{
	"contracts/Profile.sol": {
		"Profile": {
			"abi": [
				{
					"inputs": [
						{
							"internalType": "string",
							"name": "firstName",
							"type": "string"
						},
						{
							"internalType": "string",
							"name": "middleName",
							"type": "string"
						},
						{
							"internalType": "string",
							"name": "lastName",
							"type": "string"
						},
						{
							"internalType": "string",
							"name": "email",
							"type": "string"
						},
						{
							"internalType": "string",
							"name": "phone",
							"type": "string"
						}
					],
					"name": "addBio",
					"outputs": [],
					"stateMutability": "nonpayable",
					"type": "function"
				},
				{
					"inputs": [],
					"name": "getBio",
					"outputs": [
						{
							"components": [
								{
									"internalType": "string",
									"name": "firstName",
									"type": "string"
								},
								{
									"internalType": "string",
									"name": "middleName",
									"type": "string"
								},
								{
									"internalType": "string",
									"name": "lastName",
									"type": "string"
								},
								{
									"internalType": "string",
									"name": "email",
									"type": "string"
								},
								{
									"internalType": "string",
									"name": "phone",
									"type": "string"
								}
							],
							"internalType": "struct Profile.Bio",
							"name": "",
							"type": "tuple"
						}
					],
					"stateMutability": "view",
					"type": "function"
				},
				{
					"inputs": [
						{
							"internalType": "address",
							"name": "",
							"type": "address"
						}
					],
					"name": "profile",
					"outputs": [
						{
							"internalType": "string",
							"name": "firstName",
							"type": "string"
						},
						{
							"internalType": "string",
							"name": "middleName",
							"type": "string"
						},
						{
							"internalType": "string",
							"name": "lastName",
							"type": "string"
						},
						{
							"internalType": "string",
							"name": "email",
							"type": "string"
						},
						{
							"internalType": "string",
							"name": "phone",
							"type": "string"
						}
					],
					"stateMutability": "view",
					"type": "function"
				}
			],
			"devdoc": {
				"kind": "dev",
				"methods": {},
				"version": 1
			},
			"evm": {
				"assembly": "    /* \"contracts/Profile.sol\":64:800  contract Profile {\r... */\n  mstore(0x40, 0x80)\n  callvalue\n  dup1\n  iszero\n  tag_1\n  jumpi\n  0x00\n  dup1\n  revert\ntag_1:\n  pop\n  dataSize(sub_0)\n  dup1\n  dataOffset(sub_0)\n  0x00\n  codecopy\n  0x00\n  return\nstop\n\nsub_0: assembly {\n        /* \"contracts/Profile.sol\":64:800  contract Profile {\r... */\n      mstore(0x40, 0x80)\n      callvalue\n      dup1\n      iszero\n      tag_1\n      jumpi\n      0x00\n      dup1\n      revert\n    tag_1:\n      pop\n      jumpi(tag_2, lt(calldatasize, 0x04))\n      shr(0xe0, calldataload(0x00))\n      dup1\n      0x3e0eb060\n      eq\n      tag_3\n      jumpi\n      dup1\n      0x9dd9d0fd\n      eq\n      tag_4\n      jumpi\n      dup1\n      0xfa165e8f\n      eq\n      tag_5\n      jumpi\n    tag_2:\n      0x00\n      dup1\n      revert\n        /* \"contracts/Profile.sol\":295:687  function addBio(string memory firstName, string memory middleName, string memory lastName, string memory email, string memory phone) public {\r... */\n    tag_3:\n      tag_6\n      0x04\n      dup1\n      calldatasize\n      sub\n      dup2\n      add\n      swap1\n      tag_7\n      swap2\n      swap1\n      tag_8\n      jump\t// in\n    tag_7:\n      tag_9\n      jump\t// in\n    tag_6:\n      stop\n        /* \"contracts/Profile.sol\":242:282  mapping (address => Bio) public  profile */\n    tag_4:\n      tag_10\n      0x04\n      dup1\n      calldatasize\n      sub\n      dup2\n      add\n      swap1\n      tag_11\n      swap2\n      swap1\n      tag_12\n      jump\t// in\n    tag_11:\n      tag_13\n      jump\t// in\n    tag_10:\n      mload(0x40)\n      tag_14\n      swap6\n      swap5\n      swap4\n      swap3\n      swap2\n      swap1\n      tag_15\n      jump\t// in\n    tag_14:\n      mload(0x40)\n      dup1\n      swap2\n      sub\n      swap1\n      return\n        /* \"contracts/Profile.sol\":695:791  function getBio() public view returns(Bio memory ) {\r... */\n    tag_5:\n      tag_16\n      tag_17\n      jump\t// in\n    tag_16:\n      mload(0x40)\n      tag_18\n      swap2\n      swap1\n      tag_19\n      jump\t// in\n    tag_18:\n      mload(0x40)\n      dup1\n      swap2\n      sub\n      swap1\n      return\n        /* \"contracts/Profile.sol\":295:687  function addBio(string memory firstName, string memory middleName, string memory lastName, string memory email, string memory phone) public {\r... */\n    tag_9:\n        /* \"contracts/Profile.sol\":478:487  firstName */\n      dup5\n        /* \"contracts/Profile.sol\":446:453  profile */\n      0x00\n        /* \"contracts/Profile.sol\":446:465  profile[msg.sender] */\n      dup1\n        /* \"contracts/Profile.sol\":454:464  msg.sender */\n      caller\n        /* \"contracts/Profile.sol\":446:465  profile[msg.sender] */\n      0xffffffffffffffffffffffffffffffffffffffff\n      and\n      0xffffffffffffffffffffffffffffffffffffffff\n      and\n      dup2\n      mstore\n      0x20\n      add\n      swap1\n      dup2\n      mstore\n      0x20\n      add\n      0x00\n      keccak256\n        /* \"contracts/Profile.sol\":446:475  profile[msg.sender].firstName */\n      0x00\n      add\n        /* \"contracts/Profile.sol\":446:487  profile[msg.sender].firstName = firstName */\n      swap1\n      dup1\n      mload\n      swap1\n      0x20\n      add\n      swap1\n      tag_21\n      swap3\n      swap2\n      swap1\n      tag_22\n      jump\t// in\n    tag_21:\n      pop\n        /* \"contracts/Profile.sol\":531:541  middleName */\n      dup4\n        /* \"contracts/Profile.sol\":498:505  profile */\n      0x00\n        /* \"contracts/Profile.sol\":498:517  profile[msg.sender] */\n      dup1\n        /* \"contracts/Profile.sol\":506:516  msg.sender */\n      caller\n        /* \"contracts/Profile.sol\":498:517  profile[msg.sender] */\n      0xffffffffffffffffffffffffffffffffffffffff\n      and\n      0xffffffffffffffffffffffffffffffffffffffff\n      and\n      dup2\n      mstore\n      0x20\n      add\n      swap1\n      dup2\n      mstore\n      0x20\n      add\n      0x00\n      keccak256\n        /* \"contracts/Profile.sol\":498:528  profile[msg.sender].middleName */\n      0x01\n      add\n        /* \"contracts/Profile.sol\":498:541  profile[msg.sender].middleName = middleName */\n      swap1\n      dup1\n      mload\n      swap1\n      0x20\n      add\n      swap1\n      tag_23\n      swap3\n      swap2\n      swap1\n      tag_22\n      jump\t// in\n    tag_23:\n      pop\n        /* \"contracts/Profile.sol\":583:591  lastName */\n      dup3\n        /* \"contracts/Profile.sol\":552:559  profile */\n      0x00\n        /* \"contracts/Profile.sol\":552:571  profile[msg.sender] */\n      dup1\n        /* \"contracts/Profile.sol\":560:570  msg.sender */\n      caller\n        /* \"contracts/Profile.sol\":552:571  profile[msg.sender] */\n      0xffffffffffffffffffffffffffffffffffffffff\n      and\n      0xffffffffffffffffffffffffffffffffffffffff\n      and\n      dup2\n      mstore\n      0x20\n      add\n      swap1\n      dup2\n      mstore\n      0x20\n      add\n      0x00\n      keccak256\n        /* \"contracts/Profile.sol\":552:580  profile[msg.sender].lastName */\n      0x02\n      add\n        /* \"contracts/Profile.sol\":552:591  profile[msg.sender].lastName = lastName */\n      swap1\n      dup1\n      mload\n      swap1\n      0x20\n      add\n      swap1\n      tag_24\n      swap3\n      swap2\n      swap1\n      tag_22\n      jump\t// in\n    tag_24:\n      pop\n        /* \"contracts/Profile.sol\":630:635  email */\n      dup2\n        /* \"contracts/Profile.sol\":602:609  profile */\n      0x00\n        /* \"contracts/Profile.sol\":602:621  profile[msg.sender] */\n      dup1\n        /* \"contracts/Profile.sol\":610:620  msg.sender */\n      caller\n        /* \"contracts/Profile.sol\":602:621  profile[msg.sender] */\n      0xffffffffffffffffffffffffffffffffffffffff\n      and\n      0xffffffffffffffffffffffffffffffffffffffff\n      and\n      dup2\n      mstore\n      0x20\n      add\n      swap1\n      dup2\n      mstore\n      0x20\n      add\n      0x00\n      keccak256\n        /* \"contracts/Profile.sol\":602:627  profile[msg.sender].email */\n      0x03\n      add\n        /* \"contracts/Profile.sol\":602:635  profile[msg.sender].email = email */\n      swap1\n      dup1\n      mload\n      swap1\n      0x20\n      add\n      swap1\n      tag_25\n      swap3\n      swap2\n      swap1\n      tag_22\n      jump\t// in\n    tag_25:\n      pop\n        /* \"contracts/Profile.sol\":674:679  phone */\n      dup1\n        /* \"contracts/Profile.sol\":646:653  profile */\n      0x00\n        /* \"contracts/Profile.sol\":646:665  profile[msg.sender] */\n      dup1\n        /* \"contracts/Profile.sol\":654:664  msg.sender */\n      caller\n        /* \"contracts/Profile.sol\":646:665  profile[msg.sender] */\n      0xffffffffffffffffffffffffffffffffffffffff\n      and\n      0xffffffffffffffffffffffffffffffffffffffff\n      and\n      dup2\n      mstore\n      0x20\n      add\n      swap1\n      dup2\n      mstore\n      0x20\n      add\n      0x00\n      keccak256\n        /* \"contracts/Profile.sol\":646:671  profile[msg.sender].phone */\n      0x04\n      add\n        /* \"contracts/Profile.sol\":646:679  profile[msg.sender].phone = phone */\n      swap1\n      dup1\n      mload\n      swap1\n      0x20\n      add\n      swap1\n      tag_26\n      swap3\n      swap2\n      swap1\n      tag_22\n      jump\t// in\n    tag_26:\n      pop\n        /* \"contracts/Profile.sol\":295:687  function addBio(string memory firstName, string memory middleName, string memory lastName, string memory email, string memory phone) public {\r... */\n      pop\n      pop\n      pop\n      pop\n      pop\n      jump\t// out\n        /* \"contracts/Profile.sol\":242:282  mapping (address => Bio) public  profile */\n    tag_13:\n      mstore(0x20, 0x00)\n      dup1\n      0x00\n      mstore\n      keccak256(0x00, 0x40)\n      0x00\n      swap2\n      pop\n      swap1\n      pop\n      dup1\n      0x00\n      add\n      dup1\n      sload\n      tag_27\n      swap1\n      tag_28\n      jump\t// in\n    tag_27:\n      dup1\n      0x1f\n      add\n      0x20\n      dup1\n      swap2\n      div\n      mul\n      0x20\n      add\n      mload(0x40)\n      swap1\n      dup2\n      add\n      0x40\n      mstore\n      dup1\n      swap3\n      swap2\n      swap1\n      dup2\n      dup2\n      mstore\n      0x20\n      add\n      dup3\n      dup1\n      sload\n      tag_29\n      swap1\n      tag_28\n      jump\t// in\n    tag_29:\n      dup1\n      iszero\n      tag_30\n      jumpi\n      dup1\n      0x1f\n      lt\n      tag_31\n      jumpi\n      0x0100\n      dup1\n      dup4\n      sload\n      div\n      mul\n      dup4\n      mstore\n      swap2\n      0x20\n      add\n      swap2\n      jump(tag_30)\n    tag_31:\n      dup3\n      add\n      swap2\n      swap1\n      0x00\n      mstore\n      keccak256(0x00, 0x20)\n      swap1\n    tag_32:\n      dup2\n      sload\n      dup2\n      mstore\n      swap1\n      0x01\n      add\n      swap1\n      0x20\n      add\n      dup1\n      dup4\n      gt\n      tag_32\n      jumpi\n      dup3\n      swap1\n      sub\n      0x1f\n      and\n      dup3\n      add\n      swap2\n    tag_30:\n      pop\n      pop\n      pop\n      pop\n      pop\n      swap1\n      dup1\n      0x01\n      add\n      dup1\n      sload\n      tag_33\n      swap1\n      tag_28\n      jump\t// in\n    tag_33:\n      dup1\n      0x1f\n      add\n      0x20\n      dup1\n      swap2\n      div\n      mul\n      0x20\n      add\n      mload(0x40)\n      swap1\n      dup2\n      add\n      0x40\n      mstore\n      dup1\n      swap3\n      swap2\n      swap1\n      dup2\n      dup2\n      mstore\n      0x20\n      add\n      dup3\n      dup1\n      sload\n      tag_34\n      swap1\n      tag_28\n      jump\t// in\n    tag_34:\n      dup1\n      iszero\n      tag_35\n      jumpi\n      dup1\n      0x1f\n      lt\n      tag_36\n      jumpi\n      0x0100\n      dup1\n      dup4\n      sload\n      div\n      mul\n      dup4\n      mstore\n      swap2\n      0x20\n      add\n      swap2\n      jump(tag_35)\n    tag_36:\n      dup3\n      add\n      swap2\n      swap1\n      0x00\n      mstore\n      keccak256(0x00, 0x20)\n      swap1\n    tag_37:\n      dup2\n      sload\n      dup2\n      mstore\n      swap1\n      0x01\n      add\n      swap1\n      0x20\n      add\n      dup1\n      dup4\n      gt\n      tag_37\n      jumpi\n      dup3\n      swap1\n      sub\n      0x1f\n      and\n      dup3\n      add\n      swap2\n    tag_35:\n      pop\n      pop\n      pop\n      pop\n      pop\n      swap1\n      dup1\n      0x02\n      add\n      dup1\n      sload\n      tag_38\n      swap1\n      tag_28\n      jump\t// in\n    tag_38:\n      dup1\n      0x1f\n      add\n      0x20\n      dup1\n      swap2\n      div\n      mul\n      0x20\n      add\n      mload(0x40)\n      swap1\n      dup2\n      add\n      0x40\n      mstore\n      dup1\n      swap3\n      swap2\n      swap1\n      dup2\n      dup2\n      mstore\n      0x20\n      add\n      dup3\n      dup1\n      sload\n      tag_39\n      swap1\n      tag_28\n      jump\t// in\n    tag_39:\n      dup1\n      iszero\n      tag_40\n      jumpi\n      dup1\n      0x1f\n      lt\n      tag_41\n      jumpi\n      0x0100\n      dup1\n      dup4\n      sload\n      div\n      mul\n      dup4\n      mstore\n      swap2\n      0x20\n      add\n      swap2\n      jump(tag_40)\n    tag_41:\n      dup3\n      add\n      swap2\n      swap1\n      0x00\n      mstore\n      keccak256(0x00, 0x20)\n      swap1\n    tag_42:\n      dup2\n      sload\n      dup2\n      mstore\n      swap1\n      0x01\n      add\n      swap1\n      0x20\n      add\n      dup1\n      dup4\n      gt\n      tag_42\n      jumpi\n      dup3\n      swap1\n      sub\n      0x1f\n      and\n      dup3\n      add\n      swap2\n    tag_40:\n      pop\n      pop\n      pop\n      pop\n      pop\n      swap1\n      dup1\n      0x03\n      add\n      dup1\n      sload\n      tag_43\n      swap1\n      tag_28\n      jump\t// in\n    tag_43:\n      dup1\n      0x1f\n      add\n      0x20\n      dup1\n      swap2\n      div\n      mul\n      0x20\n      add\n      mload(0x40)\n      swap1\n      dup2\n      add\n      0x40\n      mstore\n      dup1\n      swap3\n      swap2\n      swap1\n      dup2\n      dup2\n      mstore\n      0x20\n      add\n      dup3\n      dup1\n      sload\n      tag_44\n      swap1\n      tag_28\n      jump\t// in\n    tag_44:\n      dup1\n      iszero\n      tag_45\n      jumpi\n      dup1\n      0x1f\n      lt\n      tag_46\n      jumpi\n      0x0100\n      dup1\n      dup4\n      sload\n      div\n      mul\n      dup4\n      mstore\n      swap2\n      0x20\n      add\n      swap2\n      jump(tag_45)\n    tag_46:\n      dup3\n      add\n      swap2\n      swap1\n      0x00\n      mstore\n      keccak256(0x00, 0x20)\n      swap1\n    tag_47:\n      dup2\n      sload\n      dup2\n      mstore\n      swap1\n      0x01\n      add\n      swap1\n      0x20\n      add\n      dup1\n      dup4\n      gt\n      tag_47\n      jumpi\n      dup3\n      swap1\n      sub\n      0x1f\n      and\n      dup3\n      add\n      swap2\n    tag_45:\n      pop\n      pop\n      pop\n      pop\n      pop\n      swap1\n      dup1\n      0x04\n      add\n      dup1\n      sload\n      tag_48\n      swap1\n      tag_28\n      jump\t// in\n    tag_48:\n      dup1\n      0x1f\n      add\n      0x20\n      dup1\n      swap2\n      div\n      mul\n      0x20\n      add\n      mload(0x40)\n      swap1\n      dup2\n      add\n      0x40\n      mstore\n      dup1\n      swap3\n      swap2\n      swap1\n      dup2\n      dup2\n      mstore\n      0x20\n      add\n      dup3\n      dup1\n      sload\n      tag_49\n      swap1\n      tag_28\n      jump\t// in\n    tag_49:\n      dup1\n      iszero\n      tag_50\n      jumpi\n      dup1\n      0x1f\n      lt\n      tag_51\n      jumpi\n      0x0100\n      dup1\n      dup4\n      sload\n      div\n      mul\n      dup4\n      mstore\n      swap2\n      0x20\n      add\n      swap2\n      jump(tag_50)\n    tag_51:\n      dup3\n      add\n      swap2\n      swap1\n      0x00\n      mstore\n      keccak256(0x00, 0x20)\n      swap1\n    tag_52:\n      dup2\n      sload\n      dup2\n      mstore\n      swap1\n      0x01\n      add\n      swap1\n      0x20\n      add\n      dup1\n      dup4\n      gt\n      tag_52\n      jumpi\n      dup3\n      swap1\n      sub\n      0x1f\n      and\n      dup3\n      add\n      swap2\n    tag_50:\n      pop\n      pop\n      pop\n      pop\n      pop\n      swap1\n      pop\n      dup6\n      jump\t// out\n        /* \"contracts/Profile.sol\":695:791  function getBio() public view returns(Bio memory ) {\r... */\n    tag_17:\n        /* \"contracts/Profile.sol\":733:743  Bio memory */\n      tag_53\n      tag_54\n      jump\t// in\n    tag_53:\n        /* \"contracts/Profile.sol\":764:771  profile */\n      0x00\n        /* \"contracts/Profile.sol\":764:783  profile[msg.sender] */\n      dup1\n        /* \"contracts/Profile.sol\":772:782  msg.sender */\n      caller\n        /* \"contracts/Profile.sol\":764:783  profile[msg.sender] */\n      0xffffffffffffffffffffffffffffffffffffffff\n      and\n      0xffffffffffffffffffffffffffffffffffffffff\n      and\n      dup2\n      mstore\n      0x20\n      add\n      swap1\n      dup2\n      mstore\n      0x20\n      add\n      0x00\n      keccak256\n        /* \"contracts/Profile.sol\":757:783  return profile[msg.sender] */\n      mload(0x40)\n      dup1\n      0xa0\n      add\n      0x40\n      mstore\n      swap1\n      dup2\n      0x00\n      dup3\n      add\n      dup1\n      sload\n      tag_56\n      swap1\n      tag_28\n      jump\t// in\n    tag_56:\n      dup1\n      0x1f\n      add\n      0x20\n      dup1\n      swap2\n      div\n      mul\n      0x20\n      add\n      mload(0x40)\n      swap1\n      dup2\n      add\n      0x40\n      mstore\n      dup1\n      swap3\n      swap2\n      swap1\n      dup2\n      dup2\n      mstore\n      0x20\n      add\n      dup3\n      dup1\n      sload\n      tag_57\n      swap1\n      tag_28\n      jump\t// in\n    tag_57:\n      dup1\n      iszero\n      tag_58\n      jumpi\n      dup1\n      0x1f\n      lt\n      tag_59\n      jumpi\n      0x0100\n      dup1\n      dup4\n      sload\n      div\n      mul\n      dup4\n      mstore\n      swap2\n      0x20\n      add\n      swap2\n      jump(tag_58)\n    tag_59:\n      dup3\n      add\n      swap2\n      swap1\n      0x00\n      mstore\n      keccak256(0x00, 0x20)\n      swap1\n    tag_60:\n      dup2\n      sload\n      dup2\n      mstore\n      swap1\n      0x01\n      add\n      swap1\n      0x20\n      add\n      dup1\n      dup4\n      gt\n      tag_60\n      jumpi\n      dup3\n      swap1\n      sub\n      0x1f\n      and\n      dup3\n      add\n      swap2\n    tag_58:\n      pop\n      pop\n      pop\n      pop\n      pop\n      dup2\n      mstore\n      0x20\n      add\n      0x01\n      dup3\n      add\n      dup1\n      sload\n      tag_61\n      swap1\n      tag_28\n      jump\t// in\n    tag_61:\n      dup1\n      0x1f\n      add\n      0x20\n      dup1\n      swap2\n      div\n      mul\n      0x20\n      add\n      mload(0x40)\n      swap1\n      dup2\n      add\n      0x40\n      mstore\n      dup1\n      swap3\n      swap2\n      swap1\n      dup2\n      dup2\n      mstore\n      0x20\n      add\n      dup3\n      dup1\n      sload\n      tag_62\n      swap1\n      tag_28\n      jump\t// in\n    tag_62:\n      dup1\n      iszero\n      tag_63\n      jumpi\n      dup1\n      0x1f\n      lt\n      tag_64\n      jumpi\n      0x0100\n      dup1\n      dup4\n      sload\n      div\n      mul\n      dup4\n      mstore\n      swap2\n      0x20\n      add\n      swap2\n      jump(tag_63)\n    tag_64:\n      dup3\n      add\n      swap2\n      swap1\n      0x00\n      mstore\n      keccak256(0x00, 0x20)\n      swap1\n    tag_65:\n      dup2\n      sload\n      dup2\n      mstore\n      swap1\n      0x01\n      add\n      swap1\n      0x20\n      add\n      dup1\n      dup4\n      gt\n      tag_65\n      jumpi\n      dup3\n      swap1\n      sub\n      0x1f\n      and\n      dup3\n      add\n      swap2\n    tag_63:\n      pop\n      pop\n      pop\n      pop\n      pop\n      dup2\n      mstore\n      0x20\n      add\n      0x02\n      dup3\n      add\n      dup1\n      sload\n      tag_66\n      swap1\n      tag_28\n      jump\t// in\n    tag_66:\n      dup1\n      0x1f\n      add\n      0x20\n      dup1\n      swap2\n      div\n      mul\n      0x20\n      add\n      mload(0x40)\n      swap1\n      dup2\n      add\n      0x40\n      mstore\n      dup1\n      swap3\n      swap2\n      swap1\n      dup2\n      dup2\n      mstore\n      0x20\n      add\n      dup3\n      dup1\n      sload\n      tag_67\n      swap1\n      tag_28\n      jump\t// in\n    tag_67:\n      dup1\n      iszero\n      tag_68\n      jumpi\n      dup1\n      0x1f\n      lt\n      tag_69\n      jumpi\n      0x0100\n      dup1\n      dup4\n      sload\n      div\n      mul\n      dup4\n      mstore\n      swap2\n      0x20\n      add\n      swap2\n      jump(tag_68)\n    tag_69:\n      dup3\n      add\n      swap2\n      swap1\n      0x00\n      mstore\n      keccak256(0x00, 0x20)\n      swap1\n    tag_70:\n      dup2\n      sload\n      dup2\n      mstore\n      swap1\n      0x01\n      add\n      swap1\n      0x20\n      add\n      dup1\n      dup4\n      gt\n      tag_70\n      jumpi\n      dup3\n      swap1\n      sub\n      0x1f\n      and\n      dup3\n      add\n      swap2\n    tag_68:\n      pop\n      pop\n      pop\n      pop\n      pop\n      dup2\n      mstore\n      0x20\n      add\n      0x03\n      dup3\n      add\n      dup1\n      sload\n      tag_71\n      swap1\n      tag_28\n      jump\t// in\n    tag_71:\n      dup1\n      0x1f\n      add\n      0x20\n      dup1\n      swap2\n      div\n      mul\n      0x20\n      add\n      mload(0x40)\n      swap1\n      dup2\n      add\n      0x40\n      mstore\n      dup1\n      swap3\n      swap2\n      swap1\n      dup2\n      dup2\n      mstore\n      0x20\n      add\n      dup3\n      dup1\n      sload\n      tag_72\n      swap1\n      tag_28\n      jump\t// in\n    tag_72:\n      dup1\n      iszero\n      tag_73\n      jumpi\n      dup1\n      0x1f\n      lt\n      tag_74\n      jumpi\n      0x0100\n      dup1\n      dup4\n      sload\n      div\n      mul\n      dup4\n      mstore\n      swap2\n      0x20\n      add\n      swap2\n      jump(tag_73)\n    tag_74:\n      dup3\n      add\n      swap2\n      swap1\n      0x00\n      mstore\n      keccak256(0x00, 0x20)\n      swap1\n    tag_75:\n      dup2\n      sload\n      dup2\n      mstore\n      swap1\n      0x01\n      add\n      swap1\n      0x20\n      add\n      dup1\n      dup4\n      gt\n      tag_75\n      jumpi\n      dup3\n      swap1\n      sub\n      0x1f\n      and\n      dup3\n      add\n      swap2\n    tag_73:\n      pop\n      pop\n      pop\n      pop\n      pop\n      dup2\n      mstore\n      0x20\n      add\n      0x04\n      dup3\n      add\n      dup1\n      sload\n      tag_76\n      swap1\n      tag_28\n      jump\t// in\n    tag_76:\n      dup1\n      0x1f\n      add\n      0x20\n      dup1\n      swap2\n      div\n      mul\n      0x20\n      add\n      mload(0x40)\n      swap1\n      dup2\n      add\n      0x40\n      mstore\n      dup1\n      swap3\n      swap2\n      swap1\n      dup2\n      dup2\n      mstore\n      0x20\n      add\n      dup3\n      dup1\n      sload\n      tag_77\n      swap1\n      tag_28\n      jump\t// in\n    tag_77:\n      dup1\n      iszero\n      tag_78\n      jumpi\n      dup1\n      0x1f\n      lt\n      tag_79\n      jumpi\n      0x0100\n      dup1\n      dup4\n      sload\n      div\n      mul\n      dup4\n      mstore\n      swap2\n      0x20\n      add\n      swap2\n      jump(tag_78)\n    tag_79:\n      dup3\n      add\n      swap2\n      swap1\n      0x00\n      mstore\n      keccak256(0x00, 0x20)\n      swap1\n    tag_80:\n      dup2\n      sload\n      dup2\n      mstore\n      swap1\n      0x01\n      add\n      swap1\n      0x20\n      add\n      dup1\n      dup4\n      gt\n      tag_80\n      jumpi\n      dup3\n      swap1\n      sub\n      0x1f\n      and\n      dup3\n      add\n      swap2\n    tag_78:\n      pop\n      pop\n      pop\n      pop\n      pop\n      dup2\n      mstore\n      pop\n      pop\n      swap1\n      pop\n        /* \"contracts/Profile.sol\":695:791  function getBio() public view returns(Bio memory ) {\r... */\n      swap1\n      jump\t// out\n    tag_22:\n      dup3\n      dup1\n      sload\n      tag_81\n      swap1\n      tag_28\n      jump\t// in\n    tag_81:\n      swap1\n      0x00\n      mstore\n      keccak256(0x00, 0x20)\n      swap1\n      0x1f\n      add\n      0x20\n      swap1\n      div\n      dup2\n      add\n      swap3\n      dup3\n      tag_83\n      jumpi\n      0x00\n      dup6\n      sstore\n      jump(tag_82)\n    tag_83:\n      dup3\n      0x1f\n      lt\n      tag_84\n      jumpi\n      dup1\n      mload\n      not(0xff)\n      and\n      dup4\n      dup1\n      add\n      or\n      dup6\n      sstore\n      jump(tag_82)\n    tag_84:\n      dup3\n      dup1\n      add\n      0x01\n      add\n      dup6\n      sstore\n      dup3\n      iszero\n      tag_82\n      jumpi\n      swap2\n      dup3\n      add\n    tag_85:\n      dup3\n      dup2\n      gt\n      iszero\n      tag_86\n      jumpi\n      dup3\n      mload\n      dup3\n      sstore\n      swap2\n      0x20\n      add\n      swap2\n      swap1\n      0x01\n      add\n      swap1\n      jump(tag_85)\n    tag_86:\n    tag_82:\n      pop\n      swap1\n      pop\n      tag_87\n      swap2\n      swap1\n      tag_88\n      jump\t// in\n    tag_87:\n      pop\n      swap1\n      jump\t// out\n    tag_54:\n      mload(0x40)\n      dup1\n      0xa0\n      add\n      0x40\n      mstore\n      dup1\n      0x60\n      dup2\n      mstore\n      0x20\n      add\n      0x60\n      dup2\n      mstore\n      0x20\n      add\n      0x60\n      dup2\n      mstore\n      0x20\n      add\n      0x60\n      dup2\n      mstore\n      0x20\n      add\n      0x60\n      dup2\n      mstore\n      pop\n      swap1\n      jump\t// out\n    tag_88:\n    tag_89:\n      dup1\n      dup3\n      gt\n      iszero\n      tag_90\n      jumpi\n      0x00\n      dup2\n      0x00\n      swap1\n      sstore\n      pop\n      0x01\n      add\n      jump(tag_89)\n    tag_90:\n      pop\n      swap1\n      jump\t// out\n        /* \"#utility.yul\":7:419   */\n    tag_92:\n        /* \"#utility.yul\":85:90   */\n      0x00\n        /* \"#utility.yul\":110:176   */\n      tag_94\n        /* \"#utility.yul\":126:175   */\n      tag_95\n        /* \"#utility.yul\":168:174   */\n      dup5\n        /* \"#utility.yul\":126:175   */\n      tag_96\n      jump\t// in\n    tag_95:\n        /* \"#utility.yul\":110:176   */\n      tag_97\n      jump\t// in\n    tag_94:\n        /* \"#utility.yul\":101:176   */\n      swap1\n      pop\n        /* \"#utility.yul\":199:205   */\n      dup3\n        /* \"#utility.yul\":192:197   */\n      dup2\n        /* \"#utility.yul\":185:206   */\n      mstore\n        /* \"#utility.yul\":237:241   */\n      0x20\n        /* \"#utility.yul\":230:235   */\n      dup2\n        /* \"#utility.yul\":226:242   */\n      add\n        /* \"#utility.yul\":275:278   */\n      dup5\n        /* \"#utility.yul\":266:272   */\n      dup5\n        /* \"#utility.yul\":261:264   */\n      dup5\n        /* \"#utility.yul\":257:273   */\n      add\n        /* \"#utility.yul\":254:279   */\n      gt\n        /* \"#utility.yul\":251:363   */\n      iszero\n      tag_98\n      jumpi\n        /* \"#utility.yul\":282:361   */\n      tag_99\n      tag_100\n      jump\t// in\n    tag_99:\n        /* \"#utility.yul\":251:363   */\n    tag_98:\n        /* \"#utility.yul\":372:413   */\n      tag_101\n        /* \"#utility.yul\":406:412   */\n      dup5\n        /* \"#utility.yul\":401:404   */\n      dup3\n        /* \"#utility.yul\":396:399   */\n      dup6\n        /* \"#utility.yul\":372:413   */\n      tag_102\n      jump\t// in\n    tag_101:\n        /* \"#utility.yul\":91:419   */\n      pop\n        /* \"#utility.yul\":7:419   */\n      swap4\n      swap3\n      pop\n      pop\n      pop\n      jump\t// out\n        /* \"#utility.yul\":425:564   */\n    tag_103:\n        /* \"#utility.yul\":471:476   */\n      0x00\n        /* \"#utility.yul\":509:515   */\n      dup2\n        /* \"#utility.yul\":496:516   */\n      calldataload\n        /* \"#utility.yul\":487:516   */\n      swap1\n      pop\n        /* \"#utility.yul\":525:558   */\n      tag_105\n        /* \"#utility.yul\":552:557   */\n      dup2\n        /* \"#utility.yul\":525:558   */\n      tag_106\n      jump\t// in\n    tag_105:\n        /* \"#utility.yul\":425:564   */\n      swap3\n      swap2\n      pop\n      pop\n      jump\t// out\n        /* \"#utility.yul\":584:924   */\n    tag_107:\n        /* \"#utility.yul\":640:645   */\n      0x00\n        /* \"#utility.yul\":689:692   */\n      dup3\n        /* \"#utility.yul\":682:686   */\n      0x1f\n        /* \"#utility.yul\":674:680   */\n      dup4\n        /* \"#utility.yul\":670:687   */\n      add\n        /* \"#utility.yul\":666:693   */\n      slt\n        /* \"#utility.yul\":656:778   */\n      tag_109\n      jumpi\n        /* \"#utility.yul\":697:776   */\n      tag_110\n      tag_111\n      jump\t// in\n    tag_110:\n        /* \"#utility.yul\":656:778   */\n    tag_109:\n        /* \"#utility.yul\":814:820   */\n      dup2\n        /* \"#utility.yul\":801:821   */\n      calldataload\n        /* \"#utility.yul\":839:918   */\n      tag_112\n        /* \"#utility.yul\":914:917   */\n      dup5\n        /* \"#utility.yul\":906:912   */\n      dup3\n        /* \"#utility.yul\":899:903   */\n      0x20\n        /* \"#utility.yul\":891:897   */\n      dup7\n        /* \"#utility.yul\":887:904   */\n      add\n        /* \"#utility.yul\":839:918   */\n      tag_92\n      jump\t// in\n    tag_112:\n        /* \"#utility.yul\":830:918   */\n      swap2\n      pop\n        /* \"#utility.yul\":646:924   */\n      pop\n        /* \"#utility.yul\":584:924   */\n      swap3\n      swap2\n      pop\n      pop\n      jump\t// out\n        /* \"#utility.yul\":930:1259   */\n    tag_12:\n        /* \"#utility.yul\":989:995   */\n      0x00\n        /* \"#utility.yul\":1038:1040   */\n      0x20\n        /* \"#utility.yul\":1026:1035   */\n      dup3\n        /* \"#utility.yul\":1017:1024   */\n      dup5\n        /* \"#utility.yul\":1013:1036   */\n      sub\n        /* \"#utility.yul\":1009:1041   */\n      slt\n        /* \"#utility.yul\":1006:1125   */\n      iszero\n      tag_114\n      jumpi\n        /* \"#utility.yul\":1044:1123   */\n      tag_115\n      tag_116\n      jump\t// in\n    tag_115:\n        /* \"#utility.yul\":1006:1125   */\n    tag_114:\n        /* \"#utility.yul\":1164:1165   */\n      0x00\n        /* \"#utility.yul\":1189:1242   */\n      tag_117\n        /* \"#utility.yul\":1234:1241   */\n      dup5\n        /* \"#utility.yul\":1225:1231   */\n      dup3\n        /* \"#utility.yul\":1214:1223   */\n      dup6\n        /* \"#utility.yul\":1210:1232   */\n      add\n        /* \"#utility.yul\":1189:1242   */\n      tag_103\n      jump\t// in\n    tag_117:\n        /* \"#utility.yul\":1179:1242   */\n      swap2\n      pop\n        /* \"#utility.yul\":1135:1252   */\n      pop\n        /* \"#utility.yul\":930:1259   */\n      swap3\n      swap2\n      pop\n      pop\n      jump\t// out\n        /* \"#utility.yul\":1265:3076   */\n    tag_8:\n        /* \"#utility.yul\":1410:1416   */\n      0x00\n        /* \"#utility.yul\":1418:1424   */\n      dup1\n        /* \"#utility.yul\":1426:1432   */\n      0x00\n        /* \"#utility.yul\":1434:1440   */\n      dup1\n        /* \"#utility.yul\":1442:1448   */\n      0x00\n        /* \"#utility.yul\":1491:1494   */\n      0xa0\n        /* \"#utility.yul\":1479:1488   */\n      dup7\n        /* \"#utility.yul\":1470:1477   */\n      dup9\n        /* \"#utility.yul\":1466:1489   */\n      sub\n        /* \"#utility.yul\":1462:1495   */\n      slt\n        /* \"#utility.yul\":1459:1579   */\n      iszero\n      tag_119\n      jumpi\n        /* \"#utility.yul\":1498:1577   */\n      tag_120\n      tag_116\n      jump\t// in\n    tag_120:\n        /* \"#utility.yul\":1459:1579   */\n    tag_119:\n        /* \"#utility.yul\":1646:1647   */\n      0x00\n        /* \"#utility.yul\":1635:1644   */\n      dup7\n        /* \"#utility.yul\":1631:1648   */\n      add\n        /* \"#utility.yul\":1618:1649   */\n      calldataload\n        /* \"#utility.yul\":1676:1694   */\n      0xffffffffffffffff\n        /* \"#utility.yul\":1668:1674   */\n      dup2\n        /* \"#utility.yul\":1665:1695   */\n      gt\n        /* \"#utility.yul\":1662:1779   */\n      iszero\n      tag_121\n      jumpi\n        /* \"#utility.yul\":1698:1777   */\n      tag_122\n      tag_123\n      jump\t// in\n    tag_122:\n        /* \"#utility.yul\":1662:1779   */\n    tag_121:\n        /* \"#utility.yul\":1803:1866   */\n      tag_124\n        /* \"#utility.yul\":1858:1865   */\n      dup9\n        /* \"#utility.yul\":1849:1855   */\n      dup3\n        /* \"#utility.yul\":1838:1847   */\n      dup10\n        /* \"#utility.yul\":1834:1856   */\n      add\n        /* \"#utility.yul\":1803:1866   */\n      tag_107\n      jump\t// in\n    tag_124:\n        /* \"#utility.yul\":1793:1866   */\n      swap6\n      pop\n        /* \"#utility.yul\":1589:1876   */\n      pop\n        /* \"#utility.yul\":1943:1945   */\n      0x20\n        /* \"#utility.yul\":1932:1941   */\n      dup7\n        /* \"#utility.yul\":1928:1946   */\n      add\n        /* \"#utility.yul\":1915:1947   */\n      calldataload\n        /* \"#utility.yul\":1974:1992   */\n      0xffffffffffffffff\n        /* \"#utility.yul\":1966:1972   */\n      dup2\n        /* \"#utility.yul\":1963:1993   */\n      gt\n        /* \"#utility.yul\":1960:2077   */\n      iszero\n      tag_125\n      jumpi\n        /* \"#utility.yul\":1996:2075   */\n      tag_126\n      tag_123\n      jump\t// in\n    tag_126:\n        /* \"#utility.yul\":1960:2077   */\n    tag_125:\n        /* \"#utility.yul\":2101:2164   */\n      tag_127\n        /* \"#utility.yul\":2156:2163   */\n      dup9\n        /* \"#utility.yul\":2147:2153   */\n      dup3\n        /* \"#utility.yul\":2136:2145   */\n      dup10\n        /* \"#utility.yul\":2132:2154   */\n      add\n        /* \"#utility.yul\":2101:2164   */\n      tag_107\n      jump\t// in\n    tag_127:\n        /* \"#utility.yul\":2091:2164   */\n      swap5\n      pop\n        /* \"#utility.yul\":1886:2174   */\n      pop\n        /* \"#utility.yul\":2241:2243   */\n      0x40\n        /* \"#utility.yul\":2230:2239   */\n      dup7\n        /* \"#utility.yul\":2226:2244   */\n      add\n        /* \"#utility.yul\":2213:2245   */\n      calldataload\n        /* \"#utility.yul\":2272:2290   */\n      0xffffffffffffffff\n        /* \"#utility.yul\":2264:2270   */\n      dup2\n        /* \"#utility.yul\":2261:2291   */\n      gt\n        /* \"#utility.yul\":2258:2375   */\n      iszero\n      tag_128\n      jumpi\n        /* \"#utility.yul\":2294:2373   */\n      tag_129\n      tag_123\n      jump\t// in\n    tag_129:\n        /* \"#utility.yul\":2258:2375   */\n    tag_128:\n        /* \"#utility.yul\":2399:2462   */\n      tag_130\n        /* \"#utility.yul\":2454:2461   */\n      dup9\n        /* \"#utility.yul\":2445:2451   */\n      dup3\n        /* \"#utility.yul\":2434:2443   */\n      dup10\n        /* \"#utility.yul\":2430:2452   */\n      add\n        /* \"#utility.yul\":2399:2462   */\n      tag_107\n      jump\t// in\n    tag_130:\n        /* \"#utility.yul\":2389:2462   */\n      swap4\n      pop\n        /* \"#utility.yul\":2184:2472   */\n      pop\n        /* \"#utility.yul\":2539:2541   */\n      0x60\n        /* \"#utility.yul\":2528:2537   */\n      dup7\n        /* \"#utility.yul\":2524:2542   */\n      add\n        /* \"#utility.yul\":2511:2543   */\n      calldataload\n        /* \"#utility.yul\":2570:2588   */\n      0xffffffffffffffff\n        /* \"#utility.yul\":2562:2568   */\n      dup2\n        /* \"#utility.yul\":2559:2589   */\n      gt\n        /* \"#utility.yul\":2556:2673   */\n      iszero\n      tag_131\n      jumpi\n        /* \"#utility.yul\":2592:2671   */\n      tag_132\n      tag_123\n      jump\t// in\n    tag_132:\n        /* \"#utility.yul\":2556:2673   */\n    tag_131:\n        /* \"#utility.yul\":2697:2760   */\n      tag_133\n        /* \"#utility.yul\":2752:2759   */\n      dup9\n        /* \"#utility.yul\":2743:2749   */\n      dup3\n        /* \"#utility.yul\":2732:2741   */\n      dup10\n        /* \"#utility.yul\":2728:2750   */\n      add\n        /* \"#utility.yul\":2697:2760   */\n      tag_107\n      jump\t// in\n    tag_133:\n        /* \"#utility.yul\":2687:2760   */\n      swap3\n      pop\n        /* \"#utility.yul\":2482:2770   */\n      pop\n        /* \"#utility.yul\":2837:2840   */\n      0x80\n        /* \"#utility.yul\":2826:2835   */\n      dup7\n        /* \"#utility.yul\":2822:2841   */\n      add\n        /* \"#utility.yul\":2809:2842   */\n      calldataload\n        /* \"#utility.yul\":2869:2887   */\n      0xffffffffffffffff\n        /* \"#utility.yul\":2861:2867   */\n      dup2\n        /* \"#utility.yul\":2858:2888   */\n      gt\n        /* \"#utility.yul\":2855:2972   */\n      iszero\n      tag_134\n      jumpi\n        /* \"#utility.yul\":2891:2970   */\n      tag_135\n      tag_123\n      jump\t// in\n    tag_135:\n        /* \"#utility.yul\":2855:2972   */\n    tag_134:\n        /* \"#utility.yul\":2996:3059   */\n      tag_136\n        /* \"#utility.yul\":3051:3058   */\n      dup9\n        /* \"#utility.yul\":3042:3048   */\n      dup3\n        /* \"#utility.yul\":3031:3040   */\n      dup10\n        /* \"#utility.yul\":3027:3049   */\n      add\n        /* \"#utility.yul\":2996:3059   */\n      tag_107\n      jump\t// in\n    tag_136:\n        /* \"#utility.yul\":2986:3059   */\n      swap2\n      pop\n        /* \"#utility.yul\":2780:3069   */\n      pop\n        /* \"#utility.yul\":1265:3076   */\n      swap3\n      swap6\n      pop\n      swap3\n      swap6\n      swap1\n      swap4\n      pop\n      jump\t// out\n        /* \"#utility.yul\":3082:3426   */\n    tag_137:\n        /* \"#utility.yul\":3160:3163   */\n      0x00\n        /* \"#utility.yul\":3188:3227   */\n      tag_139\n        /* \"#utility.yul\":3221:3226   */\n      dup3\n        /* \"#utility.yul\":3188:3227   */\n      tag_140\n      jump\t// in\n    tag_139:\n        /* \"#utility.yul\":3243:3304   */\n      tag_141\n        /* \"#utility.yul\":3297:3303   */\n      dup2\n        /* \"#utility.yul\":3292:3295   */\n      dup6\n        /* \"#utility.yul\":3243:3304   */\n      tag_142\n      jump\t// in\n    tag_141:\n        /* \"#utility.yul\":3236:3304   */\n      swap4\n      pop\n        /* \"#utility.yul\":3313:3365   */\n      tag_143\n        /* \"#utility.yul\":3358:3364   */\n      dup2\n        /* \"#utility.yul\":3353:3356   */\n      dup6\n        /* \"#utility.yul\":3346:3350   */\n      0x20\n        /* \"#utility.yul\":3339:3344   */\n      dup7\n        /* \"#utility.yul\":3335:3351   */\n      add\n        /* \"#utility.yul\":3313:3365   */\n      tag_144\n      jump\t// in\n    tag_143:\n        /* \"#utility.yul\":3390:3419   */\n      tag_145\n        /* \"#utility.yul\":3412:3418   */\n      dup2\n        /* \"#utility.yul\":3390:3419   */\n      tag_146\n      jump\t// in\n    tag_145:\n        /* \"#utility.yul\":3385:3388   */\n      dup5\n        /* \"#utility.yul\":3381:3420   */\n      add\n        /* \"#utility.yul\":3374:3420   */\n      swap2\n      pop\n        /* \"#utility.yul\":3164:3426   */\n      pop\n        /* \"#utility.yul\":3082:3426   */\n      swap3\n      swap2\n      pop\n      pop\n      jump\t// out\n        /* \"#utility.yul\":3432:3796   */\n    tag_147:\n        /* \"#utility.yul\":3520:3523   */\n      0x00\n        /* \"#utility.yul\":3548:3587   */\n      tag_149\n        /* \"#utility.yul\":3581:3586   */\n      dup3\n        /* \"#utility.yul\":3548:3587   */\n      tag_140\n      jump\t// in\n    tag_149:\n        /* \"#utility.yul\":3603:3674   */\n      tag_150\n        /* \"#utility.yul\":3667:3673   */\n      dup2\n        /* \"#utility.yul\":3662:3665   */\n      dup6\n        /* \"#utility.yul\":3603:3674   */\n      tag_151\n      jump\t// in\n    tag_150:\n        /* \"#utility.yul\":3596:3674   */\n      swap4\n      pop\n        /* \"#utility.yul\":3683:3735   */\n      tag_152\n        /* \"#utility.yul\":3728:3734   */\n      dup2\n        /* \"#utility.yul\":3723:3726   */\n      dup6\n        /* \"#utility.yul\":3716:3720   */\n      0x20\n        /* \"#utility.yul\":3709:3714   */\n      dup7\n        /* \"#utility.yul\":3705:3721   */\n      add\n        /* \"#utility.yul\":3683:3735   */\n      tag_144\n      jump\t// in\n    tag_152:\n        /* \"#utility.yul\":3760:3789   */\n      tag_153\n        /* \"#utility.yul\":3782:3788   */\n      dup2\n        /* \"#utility.yul\":3760:3789   */\n      tag_146\n      jump\t// in\n    tag_153:\n        /* \"#utility.yul\":3755:3758   */\n      dup5\n        /* \"#utility.yul\":3751:3790   */\n      add\n        /* \"#utility.yul\":3744:3790   */\n      swap2\n      pop\n        /* \"#utility.yul\":3524:3796   */\n      pop\n        /* \"#utility.yul\":3432:3796   */\n      swap3\n      swap2\n      pop\n      pop\n      jump\t// out\n        /* \"#utility.yul\":3850:5267   */\n    tag_154:\n        /* \"#utility.yul\":3957:3960   */\n      0x00\n        /* \"#utility.yul\":3993:3997   */\n      0xa0\n        /* \"#utility.yul\":3988:3991   */\n      dup4\n        /* \"#utility.yul\":3984:3998   */\n      add\n        /* \"#utility.yul\":4085:4089   */\n      0x00\n        /* \"#utility.yul\":4078:4083   */\n      dup4\n        /* \"#utility.yul\":4074:4090   */\n      add\n        /* \"#utility.yul\":4068:4091   */\n      mload\n        /* \"#utility.yul\":4138:4141   */\n      dup5\n        /* \"#utility.yul\":4132:4136   */\n      dup3\n        /* \"#utility.yul\":4128:4142   */\n      sub\n        /* \"#utility.yul\":4121:4125   */\n      0x00\n        /* \"#utility.yul\":4116:4119   */\n      dup7\n        /* \"#utility.yul\":4112:4126   */\n      add\n        /* \"#utility.yul\":4105:4143   */\n      mstore\n        /* \"#utility.yul\":4164:4237   */\n      tag_156\n        /* \"#utility.yul\":4232:4236   */\n      dup3\n        /* \"#utility.yul\":4218:4230   */\n      dup3\n        /* \"#utility.yul\":4164:4237   */\n      tag_137\n      jump\t// in\n    tag_156:\n        /* \"#utility.yul\":4156:4237   */\n      swap2\n      pop\n        /* \"#utility.yul\":4008:4248   */\n      pop\n        /* \"#utility.yul\":4336:4340   */\n      0x20\n        /* \"#utility.yul\":4329:4334   */\n      dup4\n        /* \"#utility.yul\":4325:4341   */\n      add\n        /* \"#utility.yul\":4319:4342   */\n      mload\n        /* \"#utility.yul\":4389:4392   */\n      dup5\n        /* \"#utility.yul\":4383:4387   */\n      dup3\n        /* \"#utility.yul\":4379:4393   */\n      sub\n        /* \"#utility.yul\":4372:4376   */\n      0x20\n        /* \"#utility.yul\":4367:4370   */\n      dup7\n        /* \"#utility.yul\":4363:4377   */\n      add\n        /* \"#utility.yul\":4356:4394   */\n      mstore\n        /* \"#utility.yul\":4415:4488   */\n      tag_157\n        /* \"#utility.yul\":4483:4487   */\n      dup3\n        /* \"#utility.yul\":4469:4481   */\n      dup3\n        /* \"#utility.yul\":4415:4488   */\n      tag_137\n      jump\t// in\n    tag_157:\n        /* \"#utility.yul\":4407:4488   */\n      swap2\n      pop\n        /* \"#utility.yul\":4258:4499   */\n      pop\n        /* \"#utility.yul\":4585:4589   */\n      0x40\n        /* \"#utility.yul\":4578:4583   */\n      dup4\n        /* \"#utility.yul\":4574:4590   */\n      add\n        /* \"#utility.yul\":4568:4591   */\n      mload\n        /* \"#utility.yul\":4638:4641   */\n      dup5\n        /* \"#utility.yul\":4632:4636   */\n      dup3\n        /* \"#utility.yul\":4628:4642   */\n      sub\n        /* \"#utility.yul\":4621:4625   */\n      0x40\n        /* \"#utility.yul\":4616:4619   */\n      dup7\n        /* \"#utility.yul\":4612:4626   */\n      add\n        /* \"#utility.yul\":4605:4643   */\n      mstore\n        /* \"#utility.yul\":4664:4737   */\n      tag_158\n        /* \"#utility.yul\":4732:4736   */\n      dup3\n        /* \"#utility.yul\":4718:4730   */\n      dup3\n        /* \"#utility.yul\":4664:4737   */\n      tag_137\n      jump\t// in\n    tag_158:\n        /* \"#utility.yul\":4656:4737   */\n      swap2\n      pop\n        /* \"#utility.yul\":4509:4748   */\n      pop\n        /* \"#utility.yul\":4831:4835   */\n      0x60\n        /* \"#utility.yul\":4824:4829   */\n      dup4\n        /* \"#utility.yul\":4820:4836   */\n      add\n        /* \"#utility.yul\":4814:4837   */\n      mload\n        /* \"#utility.yul\":4884:4887   */\n      dup5\n        /* \"#utility.yul\":4878:4882   */\n      dup3\n        /* \"#utility.yul\":4874:4888   */\n      sub\n        /* \"#utility.yul\":4867:4871   */\n      0x60\n        /* \"#utility.yul\":4862:4865   */\n      dup7\n        /* \"#utility.yul\":4858:4872   */\n      add\n        /* \"#utility.yul\":4851:4889   */\n      mstore\n        /* \"#utility.yul\":4910:4983   */\n      tag_159\n        /* \"#utility.yul\":4978:4982   */\n      dup3\n        /* \"#utility.yul\":4964:4976   */\n      dup3\n        /* \"#utility.yul\":4910:4983   */\n      tag_137\n      jump\t// in\n    tag_159:\n        /* \"#utility.yul\":4902:4983   */\n      swap2\n      pop\n        /* \"#utility.yul\":4758:4994   */\n      pop\n        /* \"#utility.yul\":5077:5081   */\n      0x80\n        /* \"#utility.yul\":5070:5075   */\n      dup4\n        /* \"#utility.yul\":5066:5082   */\n      add\n        /* \"#utility.yul\":5060:5083   */\n      mload\n        /* \"#utility.yul\":5130:5133   */\n      dup5\n        /* \"#utility.yul\":5124:5128   */\n      dup3\n        /* \"#utility.yul\":5120:5134   */\n      sub\n        /* \"#utility.yul\":5113:5117   */\n      0x80\n        /* \"#utility.yul\":5108:5111   */\n      dup7\n        /* \"#utility.yul\":5104:5118   */\n      add\n        /* \"#utility.yul\":5097:5135   */\n      mstore\n        /* \"#utility.yul\":5156:5229   */\n      tag_160\n        /* \"#utility.yul\":5224:5228   */\n      dup3\n        /* \"#utility.yul\":5210:5222   */\n      dup3\n        /* \"#utility.yul\":5156:5229   */\n      tag_137\n      jump\t// in\n    tag_160:\n        /* \"#utility.yul\":5148:5229   */\n      swap2\n      pop\n        /* \"#utility.yul\":5004:5240   */\n      pop\n        /* \"#utility.yul\":5257:5261   */\n      dup1\n        /* \"#utility.yul\":5250:5261   */\n      swap2\n      pop\n        /* \"#utility.yul\":3962:5267   */\n      pop\n        /* \"#utility.yul\":3850:5267   */\n      swap3\n      swap2\n      pop\n      pop\n      jump\t// out\n        /* \"#utility.yul\":5273:6392   */\n    tag_15:\n        /* \"#utility.yul\":5578:5582   */\n      0x00\n        /* \"#utility.yul\":5616:5619   */\n      0xa0\n        /* \"#utility.yul\":5605:5614   */\n      dup3\n        /* \"#utility.yul\":5601:5620   */\n      add\n        /* \"#utility.yul\":5593:5620   */\n      swap1\n      pop\n        /* \"#utility.yul\":5666:5675   */\n      dup2\n        /* \"#utility.yul\":5660:5664   */\n      dup2\n        /* \"#utility.yul\":5656:5676   */\n      sub\n        /* \"#utility.yul\":5652:5653   */\n      0x00\n        /* \"#utility.yul\":5641:5650   */\n      dup4\n        /* \"#utility.yul\":5637:5654   */\n      add\n        /* \"#utility.yul\":5630:5677   */\n      mstore\n        /* \"#utility.yul\":5694:5772   */\n      tag_162\n        /* \"#utility.yul\":5767:5771   */\n      dup2\n        /* \"#utility.yul\":5758:5764   */\n      dup9\n        /* \"#utility.yul\":5694:5772   */\n      tag_147\n      jump\t// in\n    tag_162:\n        /* \"#utility.yul\":5686:5772   */\n      swap1\n      pop\n        /* \"#utility.yul\":5819:5828   */\n      dup2\n        /* \"#utility.yul\":5813:5817   */\n      dup2\n        /* \"#utility.yul\":5809:5829   */\n      sub\n        /* \"#utility.yul\":5804:5806   */\n      0x20\n        /* \"#utility.yul\":5793:5802   */\n      dup4\n        /* \"#utility.yul\":5789:5807   */\n      add\n        /* \"#utility.yul\":5782:5830   */\n      mstore\n        /* \"#utility.yul\":5847:5925   */\n      tag_163\n        /* \"#utility.yul\":5920:5924   */\n      dup2\n        /* \"#utility.yul\":5911:5917   */\n      dup8\n        /* \"#utility.yul\":5847:5925   */\n      tag_147\n      jump\t// in\n    tag_163:\n        /* \"#utility.yul\":5839:5925   */\n      swap1\n      pop\n        /* \"#utility.yul\":5972:5981   */\n      dup2\n        /* \"#utility.yul\":5966:5970   */\n      dup2\n        /* \"#utility.yul\":5962:5982   */\n      sub\n        /* \"#utility.yul\":5957:5959   */\n      0x40\n        /* \"#utility.yul\":5946:5955   */\n      dup4\n        /* \"#utility.yul\":5942:5960   */\n      add\n        /* \"#utility.yul\":5935:5983   */\n      mstore\n        /* \"#utility.yul\":6000:6078   */\n      tag_164\n        /* \"#utility.yul\":6073:6077   */\n      dup2\n        /* \"#utility.yul\":6064:6070   */\n      dup7\n        /* \"#utility.yul\":6000:6078   */\n      tag_147\n      jump\t// in\n    tag_164:\n        /* \"#utility.yul\":5992:6078   */\n      swap1\n      pop\n        /* \"#utility.yul\":6125:6134   */\n      dup2\n        /* \"#utility.yul\":6119:6123   */\n      dup2\n        /* \"#utility.yul\":6115:6135   */\n      sub\n        /* \"#utility.yul\":6110:6112   */\n      0x60\n        /* \"#utility.yul\":6099:6108   */\n      dup4\n        /* \"#utility.yul\":6095:6113   */\n      add\n        /* \"#utility.yul\":6088:6136   */\n      mstore\n        /* \"#utility.yul\":6153:6231   */\n      tag_165\n        /* \"#utility.yul\":6226:6230   */\n      dup2\n        /* \"#utility.yul\":6217:6223   */\n      dup6\n        /* \"#utility.yul\":6153:6231   */\n      tag_147\n      jump\t// in\n    tag_165:\n        /* \"#utility.yul\":6145:6231   */\n      swap1\n      pop\n        /* \"#utility.yul\":6279:6288   */\n      dup2\n        /* \"#utility.yul\":6273:6277   */\n      dup2\n        /* \"#utility.yul\":6269:6289   */\n      sub\n        /* \"#utility.yul\":6263:6266   */\n      0x80\n        /* \"#utility.yul\":6252:6261   */\n      dup4\n        /* \"#utility.yul\":6248:6267   */\n      add\n        /* \"#utility.yul\":6241:6290   */\n      mstore\n        /* \"#utility.yul\":6307:6385   */\n      tag_166\n        /* \"#utility.yul\":6380:6384   */\n      dup2\n        /* \"#utility.yul\":6371:6377   */\n      dup5\n        /* \"#utility.yul\":6307:6385   */\n      tag_147\n      jump\t// in\n    tag_166:\n        /* \"#utility.yul\":6299:6385   */\n      swap1\n      pop\n        /* \"#utility.yul\":5273:6392   */\n      swap7\n      swap6\n      pop\n      pop\n      pop\n      pop\n      pop\n      pop\n      jump\t// out\n        /* \"#utility.yul\":6398:6747   */\n    tag_19:\n        /* \"#utility.yul\":6529:6533   */\n      0x00\n        /* \"#utility.yul\":6567:6569   */\n      0x20\n        /* \"#utility.yul\":6556:6565   */\n      dup3\n        /* \"#utility.yul\":6552:6570   */\n      add\n        /* \"#utility.yul\":6544:6570   */\n      swap1\n      pop\n        /* \"#utility.yul\":6616:6625   */\n      dup2\n        /* \"#utility.yul\":6610:6614   */\n      dup2\n        /* \"#utility.yul\":6606:6626   */\n      sub\n        /* \"#utility.yul\":6602:6603   */\n      0x00\n        /* \"#utility.yul\":6591:6600   */\n      dup4\n        /* \"#utility.yul\":6587:6604   */\n      add\n        /* \"#utility.yul\":6580:6627   */\n      mstore\n        /* \"#utility.yul\":6644:6740   */\n      tag_168\n        /* \"#utility.yul\":6735:6739   */\n      dup2\n        /* \"#utility.yul\":6726:6732   */\n      dup5\n        /* \"#utility.yul\":6644:6740   */\n      tag_154\n      jump\t// in\n    tag_168:\n        /* \"#utility.yul\":6636:6740   */\n      swap1\n      pop\n        /* \"#utility.yul\":6398:6747   */\n      swap3\n      swap2\n      pop\n      pop\n      jump\t// out\n        /* \"#utility.yul\":6753:6882   */\n    tag_97:\n        /* \"#utility.yul\":6787:6793   */\n      0x00\n        /* \"#utility.yul\":6814:6834   */\n      tag_170\n      tag_171\n      jump\t// in\n    tag_170:\n        /* \"#utility.yul\":6804:6834   */\n      swap1\n      pop\n        /* \"#utility.yul\":6843:6876   */\n      tag_172\n        /* \"#utility.yul\":6871:6875   */\n      dup3\n        /* \"#utility.yul\":6863:6869   */\n      dup3\n        /* \"#utility.yul\":6843:6876   */\n      tag_173\n      jump\t// in\n    tag_172:\n        /* \"#utility.yul\":6753:6882   */\n      swap2\n      swap1\n      pop\n      jump\t// out\n        /* \"#utility.yul\":6888:6963   */\n    tag_171:\n        /* \"#utility.yul\":6921:6927   */\n      0x00\n        /* \"#utility.yul\":6954:6956   */\n      0x40\n        /* \"#utility.yul\":6948:6957   */\n      mload\n        /* \"#utility.yul\":6938:6957   */\n      swap1\n      pop\n        /* \"#utility.yul\":6888:6963   */\n      swap1\n      jump\t// out\n        /* \"#utility.yul\":6969:7277   */\n    tag_96:\n        /* \"#utility.yul\":7031:7035   */\n      0x00\n        /* \"#utility.yul\":7121:7139   */\n      0xffffffffffffffff\n        /* \"#utility.yul\":7113:7119   */\n      dup3\n        /* \"#utility.yul\":7110:7140   */\n      gt\n        /* \"#utility.yul\":7107:7163   */\n      iszero\n      tag_176\n      jumpi\n        /* \"#utility.yul\":7143:7161   */\n      tag_177\n      tag_178\n      jump\t// in\n    tag_177:\n        /* \"#utility.yul\":7107:7163   */\n    tag_176:\n        /* \"#utility.yul\":7181:7210   */\n      tag_179\n        /* \"#utility.yul\":7203:7209   */\n      dup3\n        /* \"#utility.yul\":7181:7210   */\n      tag_146\n      jump\t// in\n    tag_179:\n        /* \"#utility.yul\":7173:7210   */\n      swap1\n      pop\n        /* \"#utility.yul\":7265:7269   */\n      0x20\n        /* \"#utility.yul\":7259:7263   */\n      dup2\n        /* \"#utility.yul\":7255:7270   */\n      add\n        /* \"#utility.yul\":7247:7270   */\n      swap1\n      pop\n        /* \"#utility.yul\":6969:7277   */\n      swap2\n      swap1\n      pop\n      jump\t// out\n        /* \"#utility.yul\":7283:7382   */\n    tag_140:\n        /* \"#utility.yul\":7335:7341   */\n      0x00\n        /* \"#utility.yul\":7369:7374   */\n      dup2\n        /* \"#utility.yul\":7363:7375   */\n      mload\n        /* \"#utility.yul\":7353:7375   */\n      swap1\n      pop\n        /* \"#utility.yul\":7283:7382   */\n      swap2\n      swap1\n      pop\n      jump\t// out\n        /* \"#utility.yul\":7388:7547   */\n    tag_142:\n        /* \"#utility.yul\":7462:7473   */\n      0x00\n        /* \"#utility.yul\":7496:7502   */\n      dup3\n        /* \"#utility.yul\":7491:7494   */\n      dup3\n        /* \"#utility.yul\":7484:7503   */\n      mstore\n        /* \"#utility.yul\":7536:7540   */\n      0x20\n        /* \"#utility.yul\":7531:7534   */\n      dup3\n        /* \"#utility.yul\":7527:7541   */\n      add\n        /* \"#utility.yul\":7512:7541   */\n      swap1\n      pop\n        /* \"#utility.yul\":7388:7547   */\n      swap3\n      swap2\n      pop\n      pop\n      jump\t// out\n        /* \"#utility.yul\":7553:7722   */\n    tag_151:\n        /* \"#utility.yul\":7637:7648   */\n      0x00\n        /* \"#utility.yul\":7671:7677   */\n      dup3\n        /* \"#utility.yul\":7666:7669   */\n      dup3\n        /* \"#utility.yul\":7659:7678   */\n      mstore\n        /* \"#utility.yul\":7711:7715   */\n      0x20\n        /* \"#utility.yul\":7706:7709   */\n      dup3\n        /* \"#utility.yul\":7702:7716   */\n      add\n        /* \"#utility.yul\":7687:7716   */\n      swap1\n      pop\n        /* \"#utility.yul\":7553:7722   */\n      swap3\n      swap2\n      pop\n      pop\n      jump\t// out\n        /* \"#utility.yul\":7728:7824   */\n    tag_183:\n        /* \"#utility.yul\":7765:7772   */\n      0x00\n        /* \"#utility.yul\":7794:7818   */\n      tag_185\n        /* \"#utility.yul\":7812:7817   */\n      dup3\n        /* \"#utility.yul\":7794:7818   */\n      tag_186\n      jump\t// in\n    tag_185:\n        /* \"#utility.yul\":7783:7818   */\n      swap1\n      pop\n        /* \"#utility.yul\":7728:7824   */\n      swap2\n      swap1\n      pop\n      jump\t// out\n        /* \"#utility.yul\":7830:7956   */\n    tag_186:\n        /* \"#utility.yul\":7867:7874   */\n      0x00\n        /* \"#utility.yul\":7907:7949   */\n      0xffffffffffffffffffffffffffffffffffffffff\n        /* \"#utility.yul\":7900:7905   */\n      dup3\n        /* \"#utility.yul\":7896:7950   */\n      and\n        /* \"#utility.yul\":7885:7950   */\n      swap1\n      pop\n        /* \"#utility.yul\":7830:7956   */\n      swap2\n      swap1\n      pop\n      jump\t// out\n        /* \"#utility.yul\":7962:8116   */\n    tag_102:\n        /* \"#utility.yul\":8046:8052   */\n      dup3\n        /* \"#utility.yul\":8041:8044   */\n      dup2\n        /* \"#utility.yul\":8036:8039   */\n      dup4\n        /* \"#utility.yul\":8023:8053   */\n      calldatacopy\n        /* \"#utility.yul\":8108:8109   */\n      0x00\n        /* \"#utility.yul\":8099:8105   */\n      dup4\n        /* \"#utility.yul\":8094:8097   */\n      dup4\n        /* \"#utility.yul\":8090:8106   */\n      add\n        /* \"#utility.yul\":8083:8110   */\n      mstore\n        /* \"#utility.yul\":7962:8116   */\n      pop\n      pop\n      pop\n      jump\t// out\n        /* \"#utility.yul\":8122:8429   */\n    tag_144:\n        /* \"#utility.yul\":8190:8191   */\n      0x00\n        /* \"#utility.yul\":8200:8313   */\n    tag_190:\n        /* \"#utility.yul\":8214:8220   */\n      dup4\n        /* \"#utility.yul\":8211:8212   */\n      dup2\n        /* \"#utility.yul\":8208:8221   */\n      lt\n        /* \"#utility.yul\":8200:8313   */\n      iszero\n      tag_192\n      jumpi\n        /* \"#utility.yul\":8299:8300   */\n      dup1\n        /* \"#utility.yul\":8294:8297   */\n      dup3\n        /* \"#utility.yul\":8290:8301   */\n      add\n        /* \"#utility.yul\":8284:8302   */\n      mload\n        /* \"#utility.yul\":8280:8281   */\n      dup2\n        /* \"#utility.yul\":8275:8278   */\n      dup5\n        /* \"#utility.yul\":8271:8282   */\n      add\n        /* \"#utility.yul\":8264:8303   */\n      mstore\n        /* \"#utility.yul\":8236:8238   */\n      0x20\n        /* \"#utility.yul\":8233:8234   */\n      dup2\n        /* \"#utility.yul\":8229:8239   */\n      add\n        /* \"#utility.yul\":8224:8239   */\n      swap1\n      pop\n        /* \"#utility.yul\":8200:8313   */\n      jump(tag_190)\n    tag_192:\n        /* \"#utility.yul\":8331:8337   */\n      dup4\n        /* \"#utility.yul\":8328:8329   */\n      dup2\n        /* \"#utility.yul\":8325:8338   */\n      gt\n        /* \"#utility.yul\":8322:8423   */\n      iszero\n      tag_193\n      jumpi\n        /* \"#utility.yul\":8411:8412   */\n      0x00\n        /* \"#utility.yul\":8402:8408   */\n      dup5\n        /* \"#utility.yul\":8397:8400   */\n      dup5\n        /* \"#utility.yul\":8393:8409   */\n      add\n        /* \"#utility.yul\":8386:8413   */\n      mstore\n        /* \"#utility.yul\":8322:8423   */\n    tag_193:\n        /* \"#utility.yul\":8171:8429   */\n      pop\n        /* \"#utility.yul\":8122:8429   */\n      pop\n      pop\n      pop\n      jump\t// out\n        /* \"#utility.yul\":8435:8755   */\n    tag_28:\n        /* \"#utility.yul\":8479:8485   */\n      0x00\n        /* \"#utility.yul\":8516:8517   */\n      0x02\n        /* \"#utility.yul\":8510:8514   */\n      dup3\n        /* \"#utility.yul\":8506:8518   */\n      div\n        /* \"#utility.yul\":8496:8518   */\n      swap1\n      pop\n        /* \"#utility.yul\":8563:8564   */\n      0x01\n        /* \"#utility.yul\":8557:8561   */\n      dup3\n        /* \"#utility.yul\":8553:8565   */\n      and\n        /* \"#utility.yul\":8584:8602   */\n      dup1\n        /* \"#utility.yul\":8574:8655   */\n      tag_195\n      jumpi\n        /* \"#utility.yul\":8640:8644   */\n      0x7f\n        /* \"#utility.yul\":8632:8638   */\n      dup3\n        /* \"#utility.yul\":8628:8645   */\n      and\n        /* \"#utility.yul\":8618:8645   */\n      swap2\n      pop\n        /* \"#utility.yul\":8574:8655   */\n    tag_195:\n        /* \"#utility.yul\":8702:8704   */\n      0x20\n        /* \"#utility.yul\":8694:8700   */\n      dup3\n        /* \"#utility.yul\":8691:8705   */\n      lt\n        /* \"#utility.yul\":8671:8689   */\n      dup2\n        /* \"#utility.yul\":8668:8706   */\n      eq\n        /* \"#utility.yul\":8665:8749   */\n      iszero\n      tag_196\n      jumpi\n        /* \"#utility.yul\":8721:8739   */\n      tag_197\n      tag_198\n      jump\t// in\n    tag_197:\n        /* \"#utility.yul\":8665:8749   */\n    tag_196:\n        /* \"#utility.yul\":8486:8755   */\n      pop\n        /* \"#utility.yul\":8435:8755   */\n      swap2\n      swap1\n      pop\n      jump\t// out\n        /* \"#utility.yul\":8761:9042   */\n    tag_173:\n        /* \"#utility.yul\":8844:8871   */\n      tag_200\n        /* \"#utility.yul\":8866:8870   */\n      dup3\n        /* \"#utility.yul\":8844:8871   */\n      tag_146\n      jump\t// in\n    tag_200:\n        /* \"#utility.yul\":8836:8842   */\n      dup2\n        /* \"#utility.yul\":8832:8872   */\n      add\n        /* \"#utility.yul\":8974:8980   */\n      dup2\n        /* \"#utility.yul\":8962:8972   */\n      dup2\n        /* \"#utility.yul\":8959:8981   */\n      lt\n        /* \"#utility.yul\":8938:8956   */\n      0xffffffffffffffff\n        /* \"#utility.yul\":8926:8936   */\n      dup3\n        /* \"#utility.yul\":8923:8957   */\n      gt\n        /* \"#utility.yul\":8920:8982   */\n      or\n        /* \"#utility.yul\":8917:9005   */\n      iszero\n      tag_201\n      jumpi\n        /* \"#utility.yul\":8985:9003   */\n      tag_202\n      tag_178\n      jump\t// in\n    tag_202:\n        /* \"#utility.yul\":8917:9005   */\n    tag_201:\n        /* \"#utility.yul\":9025:9035   */\n      dup1\n        /* \"#utility.yul\":9021:9023   */\n      0x40\n        /* \"#utility.yul\":9014:9036   */\n      mstore\n        /* \"#utility.yul\":8804:9042   */\n      pop\n        /* \"#utility.yul\":8761:9042   */\n      pop\n      pop\n      jump\t// out\n        /* \"#utility.yul\":9048:9228   */\n    tag_198:\n        /* \"#utility.yul\":9096:9173   */\n      0x4e487b7100000000000000000000000000000000000000000000000000000000\n        /* \"#utility.yul\":9093:9094   */\n      0x00\n        /* \"#utility.yul\":9086:9174   */\n      mstore\n        /* \"#utility.yul\":9193:9197   */\n      0x22\n        /* \"#utility.yul\":9190:9191   */\n      0x04\n        /* \"#utility.yul\":9183:9198   */\n      mstore\n        /* \"#utility.yul\":9217:9221   */\n      0x24\n        /* \"#utility.yul\":9214:9215   */\n      0x00\n        /* \"#utility.yul\":9207:9222   */\n      revert\n        /* \"#utility.yul\":9234:9414   */\n    tag_178:\n        /* \"#utility.yul\":9282:9359   */\n      0x4e487b7100000000000000000000000000000000000000000000000000000000\n        /* \"#utility.yul\":9279:9280   */\n      0x00\n        /* \"#utility.yul\":9272:9360   */\n      mstore\n        /* \"#utility.yul\":9379:9383   */\n      0x41\n        /* \"#utility.yul\":9376:9377   */\n      0x04\n        /* \"#utility.yul\":9369:9384   */\n      mstore\n        /* \"#utility.yul\":9403:9407   */\n      0x24\n        /* \"#utility.yul\":9400:9401   */\n      0x00\n        /* \"#utility.yul\":9393:9408   */\n      revert\n        /* \"#utility.yul\":9420:9537   */\n    tag_111:\n        /* \"#utility.yul\":9529:9530   */\n      0x00\n        /* \"#utility.yul\":9526:9527   */\n      dup1\n        /* \"#utility.yul\":9519:9531   */\n      revert\n        /* \"#utility.yul\":9543:9660   */\n    tag_100:\n        /* \"#utility.yul\":9652:9653   */\n      0x00\n        /* \"#utility.yul\":9649:9650   */\n      dup1\n        /* \"#utility.yul\":9642:9654   */\n      revert\n        /* \"#utility.yul\":9666:9783   */\n    tag_123:\n        /* \"#utility.yul\":9775:9776   */\n      0x00\n        /* \"#utility.yul\":9772:9773   */\n      dup1\n        /* \"#utility.yul\":9765:9777   */\n      revert\n        /* \"#utility.yul\":9789:9906   */\n    tag_116:\n        /* \"#utility.yul\":9898:9899   */\n      0x00\n        /* \"#utility.yul\":9895:9896   */\n      dup1\n        /* \"#utility.yul\":9888:9900   */\n      revert\n        /* \"#utility.yul\":9912:10014   */\n    tag_146:\n        /* \"#utility.yul\":9953:9959   */\n      0x00\n        /* \"#utility.yul\":10004:10006   */\n      0x1f\n        /* \"#utility.yul\":10000:10007   */\n      not\n        /* \"#utility.yul\":9995:9997   */\n      0x1f\n        /* \"#utility.yul\":9988:9993   */\n      dup4\n        /* \"#utility.yul\":9984:9998   */\n      add\n        /* \"#utility.yul\":9980:10008   */\n      and\n        /* \"#utility.yul\":9970:10008   */\n      swap1\n      pop\n        /* \"#utility.yul\":9912:10014   */\n      swap2\n      swap1\n      pop\n      jump\t// out\n        /* \"#utility.yul\":10020:10142   */\n    tag_106:\n        /* \"#utility.yul\":10093:10117   */\n      tag_211\n        /* \"#utility.yul\":10111:10116   */\n      dup2\n        /* \"#utility.yul\":10093:10117   */\n      tag_183\n      jump\t// in\n    tag_211:\n        /* \"#utility.yul\":10086:10091   */\n      dup2\n        /* \"#utility.yul\":10083:10118   */\n      eq\n        /* \"#utility.yul\":10073:10136   */\n      tag_212\n      jumpi\n        /* \"#utility.yul\":10132:10133   */\n      0x00\n        /* \"#utility.yul\":10129:10130   */\n      dup1\n        /* \"#utility.yul\":10122:10134   */\n      revert\n        /* \"#utility.yul\":10073:10136   */\n    tag_212:\n        /* \"#utility.yul\":10020:10142   */\n      pop\n      jump\t// out\n\n    auxdata: 0xa264697066735822122066b120a4c53731e3b174dd0e6a40294ae87b6df6b61e69098e8c03adec08665064736f6c63430008070033\n}\n",
				"bytecode": {
					"linkReferences": {},
					"object": "608060405234801561001057600080fd5b50610ec8806100206000396000f3fe608060405234801561001057600080fd5b50600436106100415760003560e01c80633e0eb060146100465780639dd9d0fd14610062578063fa165e8f14610096575b600080fd5b610060600480360381019061005b91906109fb565b6100b4565b005b61007c600480360381019061007791906109ce565b610269565b60405161008d959493929190610c06565b60405180910390f35b61009e610547565b6040516100ab9190610c7c565b60405180910390f35b846000803373ffffffffffffffffffffffffffffffffffffffff1673ffffffffffffffffffffffffffffffffffffffff1681526020019081526020016000206000019080519060200190610109929190610877565b50836000803373ffffffffffffffffffffffffffffffffffffffff1673ffffffffffffffffffffffffffffffffffffffff168152602001908152602001600020600101908051906020019061015f929190610877565b50826000803373ffffffffffffffffffffffffffffffffffffffff1673ffffffffffffffffffffffffffffffffffffffff16815260200190815260200160002060020190805190602001906101b5929190610877565b50816000803373ffffffffffffffffffffffffffffffffffffffff1673ffffffffffffffffffffffffffffffffffffffff168152602001908152602001600020600301908051906020019061020b929190610877565b50806000803373ffffffffffffffffffffffffffffffffffffffff1673ffffffffffffffffffffffffffffffffffffffff1681526020019081526020016000206004019080519060200190610261929190610877565b505050505050565b600060205280600052604060002060009150905080600001805461028c90610d95565b80601f01602080910402602001604051908101604052809291908181526020018280546102b890610d95565b80156103055780601f106102da57610100808354040283529160200191610305565b820191906000526020600020905b8154815290600101906020018083116102e857829003601f168201915b50505050509080600101805461031a90610d95565b80601f016020809104026020016040519081016040528092919081815260200182805461034690610d95565b80156103935780601f1061036857610100808354040283529160200191610393565b820191906000526020600020905b81548152906001019060200180831161037657829003601f168201915b5050505050908060020180546103a890610d95565b80601f01602080910402602001604051908101604052809291908181526020018280546103d490610d95565b80156104215780601f106103f657610100808354040283529160200191610421565b820191906000526020600020905b81548152906001019060200180831161040457829003601f168201915b50505050509080600301805461043690610d95565b80601f016020809104026020016040519081016040528092919081815260200182805461046290610d95565b80156104af5780601f10610484576101008083540402835291602001916104af565b820191906000526020600020905b81548152906001019060200180831161049257829003601f168201915b5050505050908060040180546104c490610d95565b80601f01602080910402602001604051908101604052809291908181526020018280546104f090610d95565b801561053d5780601f106105125761010080835404028352916020019161053d565b820191906000526020600020905b81548152906001019060200180831161052057829003601f168201915b5050505050905085565b61054f6108fd565b6000803373ffffffffffffffffffffffffffffffffffffffff1673ffffffffffffffffffffffffffffffffffffffff1681526020019081526020016000206040518060a00160405290816000820180546105a890610d95565b80601f01602080910402602001604051908101604052809291908181526020018280546105d490610d95565b80156106215780601f106105f657610100808354040283529160200191610621565b820191906000526020600020905b81548152906001019060200180831161060457829003601f168201915b5050505050815260200160018201805461063a90610d95565b80601f016020809104026020016040519081016040528092919081815260200182805461066690610d95565b80156106b35780601f10610688576101008083540402835291602001916106b3565b820191906000526020600020905b81548152906001019060200180831161069657829003601f168201915b505050505081526020016002820180546106cc90610d95565b80601f01602080910402602001604051908101604052809291908181526020018280546106f890610d95565b80156107455780601f1061071a57610100808354040283529160200191610745565b820191906000526020600020905b81548152906001019060200180831161072857829003601f168201915b5050505050815260200160038201805461075e90610d95565b80601f016020809104026020016040519081016040528092919081815260200182805461078a90610d95565b80156107d75780601f106107ac576101008083540402835291602001916107d7565b820191906000526020600020905b8154815290600101906020018083116107ba57829003601f168201915b505050505081526020016004820180546107f090610d95565b80601f016020809104026020016040519081016040528092919081815260200182805461081c90610d95565b80156108695780601f1061083e57610100808354040283529160200191610869565b820191906000526020600020905b81548152906001019060200180831161084c57829003601f168201915b505050505081525050905090565b82805461088390610d95565b90600052602060002090601f0160209004810192826108a557600085556108ec565b82601f106108be57805160ff19168380011785556108ec565b828001600101855582156108ec579182015b828111156108eb5782518255916020019190600101906108d0565b5b5090506108f9919061092c565b5090565b6040518060a0016040528060608152602001606081526020016060815260200160608152602001606081525090565b5b8082111561094557600081600090555060010161092d565b5090565b600061095c61095784610cc3565b610c9e565b90508281526020810184848401111561097857610977610e5b565b5b610983848285610d53565b509392505050565b60008135905061099a81610e7b565b92915050565b600082601f8301126109b5576109b4610e56565b5b81356109c5848260208601610949565b91505092915050565b6000602082840312156109e4576109e3610e65565b5b60006109f28482850161098b565b91505092915050565b600080600080600060a08688031215610a1757610a16610e65565b5b600086013567ffffffffffffffff811115610a3557610a34610e60565b5b610a41888289016109a0565b955050602086013567ffffffffffffffff811115610a6257610a61610e60565b5b610a6e888289016109a0565b945050604086013567ffffffffffffffff811115610a8f57610a8e610e60565b5b610a9b888289016109a0565b935050606086013567ffffffffffffffff811115610abc57610abb610e60565b5b610ac8888289016109a0565b925050608086013567ffffffffffffffff811115610ae957610ae8610e60565b5b610af5888289016109a0565b9150509295509295909350565b6000610b0d82610cf4565b610b178185610cff565b9350610b27818560208601610d62565b610b3081610e6a565b840191505092915050565b6000610b4682610cf4565b610b508185610d10565b9350610b60818560208601610d62565b610b6981610e6a565b840191505092915050565b600060a0830160008301518482036000860152610b918282610b02565b91505060208301518482036020860152610bab8282610b02565b91505060408301518482036040860152610bc58282610b02565b91505060608301518482036060860152610bdf8282610b02565b91505060808301518482036080860152610bf98282610b02565b9150508091505092915050565b600060a0820190508181036000830152610c208188610b3b565b90508181036020830152610c348187610b3b565b90508181036040830152610c488186610b3b565b90508181036060830152610c5c8185610b3b565b90508181036080830152610c708184610b3b565b90509695505050505050565b60006020820190508181036000830152610c968184610b74565b905092915050565b6000610ca8610cb9565b9050610cb48282610dc7565b919050565b6000604051905090565b600067ffffffffffffffff821115610cde57610cdd610e27565b5b610ce782610e6a565b9050602081019050919050565b600081519050919050565b600082825260208201905092915050565b600082825260208201905092915050565b6000610d2c82610d33565b9050919050565b600073ffffffffffffffffffffffffffffffffffffffff82169050919050565b82818337600083830152505050565b60005b83811015610d80578082015181840152602081019050610d65565b83811115610d8f576000848401525b50505050565b60006002820490506001821680610dad57607f821691505b60208210811415610dc157610dc0610df8565b5b50919050565b610dd082610e6a565b810181811067ffffffffffffffff82111715610def57610dee610e27565b5b80604052505050565b7f4e487b7100000000000000000000000000000000000000000000000000000000600052602260045260246000fd5b7f4e487b7100000000000000000000000000000000000000000000000000000000600052604160045260246000fd5b600080fd5b600080fd5b600080fd5b600080fd5b6000601f19601f8301169050919050565b610e8481610d21565b8114610e8f57600080fd5b5056fea264697066735822122066b120a4c53731e3b174dd0e6a40294ae87b6df6b61e69098e8c03adec08665064736f6c63430008070033",
					"opcodes": "PUSH1 0x80 PUSH1 0x40 MSTORE CALLVALUE DUP1 ISZERO PUSH2 0x10 JUMPI PUSH1 0x0 DUP1 REVERT JUMPDEST POP PUSH2 0xEC8 DUP1 PUSH2 0x20 PUSH1 0x0 CODECOPY PUSH1 0x0 RETURN INVALID PUSH1 0x80 PUSH1 0x40 MSTORE CALLVALUE DUP1 ISZERO PUSH2 0x10 JUMPI PUSH1 0x0 DUP1 REVERT JUMPDEST POP PUSH1 0x4 CALLDATASIZE LT PUSH2 0x41 JUMPI PUSH1 0x0 CALLDATALOAD PUSH1 0xE0 SHR DUP1 PUSH4 0x3E0EB060 EQ PUSH2 0x46 JUMPI DUP1 PUSH4 0x9DD9D0FD EQ PUSH2 0x62 JUMPI DUP1 PUSH4 0xFA165E8F EQ PUSH2 0x96 JUMPI JUMPDEST PUSH1 0x0 DUP1 REVERT JUMPDEST PUSH2 0x60 PUSH1 0x4 DUP1 CALLDATASIZE SUB DUP2 ADD SWAP1 PUSH2 0x5B SWAP2 SWAP1 PUSH2 0x9FB JUMP JUMPDEST PUSH2 0xB4 JUMP JUMPDEST STOP JUMPDEST PUSH2 0x7C PUSH1 0x4 DUP1 CALLDATASIZE SUB DUP2 ADD SWAP1 PUSH2 0x77 SWAP2 SWAP1 PUSH2 0x9CE JUMP JUMPDEST PUSH2 0x269 JUMP JUMPDEST PUSH1 0x40 MLOAD PUSH2 0x8D SWAP6 SWAP5 SWAP4 SWAP3 SWAP2 SWAP1 PUSH2 0xC06 JUMP JUMPDEST PUSH1 0x40 MLOAD DUP1 SWAP2 SUB SWAP1 RETURN JUMPDEST PUSH2 0x9E PUSH2 0x547 JUMP JUMPDEST PUSH1 0x40 MLOAD PUSH2 0xAB SWAP2 SWAP1 PUSH2 0xC7C JUMP JUMPDEST PUSH1 0x40 MLOAD DUP1 SWAP2 SUB SWAP1 RETURN JUMPDEST DUP5 PUSH1 0x0 DUP1 CALLER PUSH20 0xFFFFFFFFFFFFFFFFFFFFFFFFFFFFFFFFFFFFFFFF AND PUSH20 0xFFFFFFFFFFFFFFFFFFFFFFFFFFFFFFFFFFFFFFFF AND DUP2 MSTORE PUSH1 0x20 ADD SWAP1 DUP2 MSTORE PUSH1 0x20 ADD PUSH1 0x0 KECCAK256 PUSH1 0x0 ADD SWAP1 DUP1 MLOAD SWAP1 PUSH1 0x20 ADD SWAP1 PUSH2 0x109 SWAP3 SWAP2 SWAP1 PUSH2 0x877 JUMP JUMPDEST POP DUP4 PUSH1 0x0 DUP1 CALLER PUSH20 0xFFFFFFFFFFFFFFFFFFFFFFFFFFFFFFFFFFFFFFFF AND PUSH20 0xFFFFFFFFFFFFFFFFFFFFFFFFFFFFFFFFFFFFFFFF AND DUP2 MSTORE PUSH1 0x20 ADD SWAP1 DUP2 MSTORE PUSH1 0x20 ADD PUSH1 0x0 KECCAK256 PUSH1 0x1 ADD SWAP1 DUP1 MLOAD SWAP1 PUSH1 0x20 ADD SWAP1 PUSH2 0x15F SWAP3 SWAP2 SWAP1 PUSH2 0x877 JUMP JUMPDEST POP DUP3 PUSH1 0x0 DUP1 CALLER PUSH20 0xFFFFFFFFFFFFFFFFFFFFFFFFFFFFFFFFFFFFFFFF AND PUSH20 0xFFFFFFFFFFFFFFFFFFFFFFFFFFFFFFFFFFFFFFFF AND DUP2 MSTORE PUSH1 0x20 ADD SWAP1 DUP2 MSTORE PUSH1 0x20 ADD PUSH1 0x0 KECCAK256 PUSH1 0x2 ADD SWAP1 DUP1 MLOAD SWAP1 PUSH1 0x20 ADD SWAP1 PUSH2 0x1B5 SWAP3 SWAP2 SWAP1 PUSH2 0x877 JUMP JUMPDEST POP DUP2 PUSH1 0x0 DUP1 CALLER PUSH20 0xFFFFFFFFFFFFFFFFFFFFFFFFFFFFFFFFFFFFFFFF AND PUSH20 0xFFFFFFFFFFFFFFFFFFFFFFFFFFFFFFFFFFFFFFFF AND DUP2 MSTORE PUSH1 0x20 ADD SWAP1 DUP2 MSTORE PUSH1 0x20 ADD PUSH1 0x0 KECCAK256 PUSH1 0x3 ADD SWAP1 DUP1 MLOAD SWAP1 PUSH1 0x20 ADD SWAP1 PUSH2 0x20B SWAP3 SWAP2 SWAP1 PUSH2 0x877 JUMP JUMPDEST POP DUP1 PUSH1 0x0 DUP1 CALLER PUSH20 0xFFFFFFFFFFFFFFFFFFFFFFFFFFFFFFFFFFFFFFFF AND PUSH20 0xFFFFFFFFFFFFFFFFFFFFFFFFFFFFFFFFFFFFFFFF AND DUP2 MSTORE PUSH1 0x20 ADD SWAP1 DUP2 MSTORE PUSH1 0x20 ADD PUSH1 0x0 KECCAK256 PUSH1 0x4 ADD SWAP1 DUP1 MLOAD SWAP1 PUSH1 0x20 ADD SWAP1 PUSH2 0x261 SWAP3 SWAP2 SWAP1 PUSH2 0x877 JUMP JUMPDEST POP POP POP POP POP POP JUMP JUMPDEST PUSH1 0x0 PUSH1 0x20 MSTORE DUP1 PUSH1 0x0 MSTORE PUSH1 0x40 PUSH1 0x0 KECCAK256 PUSH1 0x0 SWAP2 POP SWAP1 POP DUP1 PUSH1 0x0 ADD DUP1 SLOAD PUSH2 0x28C SWAP1 PUSH2 0xD95 JUMP JUMPDEST DUP1 PUSH1 0x1F ADD PUSH1 0x20 DUP1 SWAP2 DIV MUL PUSH1 0x20 ADD PUSH1 0x40 MLOAD SWAP1 DUP2 ADD PUSH1 0x40 MSTORE DUP1 SWAP3 SWAP2 SWAP1 DUP2 DUP2 MSTORE PUSH1 0x20 ADD DUP3 DUP1 SLOAD PUSH2 0x2B8 SWAP1 PUSH2 0xD95 JUMP JUMPDEST DUP1 ISZERO PUSH2 0x305 JUMPI DUP1 PUSH1 0x1F LT PUSH2 0x2DA JUMPI PUSH2 0x100 DUP1 DUP4 SLOAD DIV MUL DUP4 MSTORE SWAP2 PUSH1 0x20 ADD SWAP2 PUSH2 0x305 JUMP JUMPDEST DUP3 ADD SWAP2 SWAP1 PUSH1 0x0 MSTORE PUSH1 0x20 PUSH1 0x0 KECCAK256 SWAP1 JUMPDEST DUP2 SLOAD DUP2 MSTORE SWAP1 PUSH1 0x1 ADD SWAP1 PUSH1 0x20 ADD DUP1 DUP4 GT PUSH2 0x2E8 JUMPI DUP3 SWAP1 SUB PUSH1 0x1F AND DUP3 ADD SWAP2 JUMPDEST POP POP POP POP POP SWAP1 DUP1 PUSH1 0x1 ADD DUP1 SLOAD PUSH2 0x31A SWAP1 PUSH2 0xD95 JUMP JUMPDEST DUP1 PUSH1 0x1F ADD PUSH1 0x20 DUP1 SWAP2 DIV MUL PUSH1 0x20 ADD PUSH1 0x40 MLOAD SWAP1 DUP2 ADD PUSH1 0x40 MSTORE DUP1 SWAP3 SWAP2 SWAP1 DUP2 DUP2 MSTORE PUSH1 0x20 ADD DUP3 DUP1 SLOAD PUSH2 0x346 SWAP1 PUSH2 0xD95 JUMP JUMPDEST DUP1 ISZERO PUSH2 0x393 JUMPI DUP1 PUSH1 0x1F LT PUSH2 0x368 JUMPI PUSH2 0x100 DUP1 DUP4 SLOAD DIV MUL DUP4 MSTORE SWAP2 PUSH1 0x20 ADD SWAP2 PUSH2 0x393 JUMP JUMPDEST DUP3 ADD SWAP2 SWAP1 PUSH1 0x0 MSTORE PUSH1 0x20 PUSH1 0x0 KECCAK256 SWAP1 JUMPDEST DUP2 SLOAD DUP2 MSTORE SWAP1 PUSH1 0x1 ADD SWAP1 PUSH1 0x20 ADD DUP1 DUP4 GT PUSH2 0x376 JUMPI DUP3 SWAP1 SUB PUSH1 0x1F AND DUP3 ADD SWAP2 JUMPDEST POP POP POP POP POP SWAP1 DUP1 PUSH1 0x2 ADD DUP1 SLOAD PUSH2 0x3A8 SWAP1 PUSH2 0xD95 JUMP JUMPDEST DUP1 PUSH1 0x1F ADD PUSH1 0x20 DUP1 SWAP2 DIV MUL PUSH1 0x20 ADD PUSH1 0x40 MLOAD SWAP1 DUP2 ADD PUSH1 0x40 MSTORE DUP1 SWAP3 SWAP2 SWAP1 DUP2 DUP2 MSTORE PUSH1 0x20 ADD DUP3 DUP1 SLOAD PUSH2 0x3D4 SWAP1 PUSH2 0xD95 JUMP JUMPDEST DUP1 ISZERO PUSH2 0x421 JUMPI DUP1 PUSH1 0x1F LT PUSH2 0x3F6 JUMPI PUSH2 0x100 DUP1 DUP4 SLOAD DIV MUL DUP4 MSTORE SWAP2 PUSH1 0x20 ADD SWAP2 PUSH2 0x421 JUMP JUMPDEST DUP3 ADD SWAP2 SWAP1 PUSH1 0x0 MSTORE PUSH1 0x20 PUSH1 0x0 KECCAK256 SWAP1 JUMPDEST DUP2 SLOAD DUP2 MSTORE SWAP1 PUSH1 0x1 ADD SWAP1 PUSH1 0x20 ADD DUP1 DUP4 GT PUSH2 0x404 JUMPI DUP3 SWAP1 SUB PUSH1 0x1F AND DUP3 ADD SWAP2 JUMPDEST POP POP POP POP POP SWAP1 DUP1 PUSH1 0x3 ADD DUP1 SLOAD PUSH2 0x436 SWAP1 PUSH2 0xD95 JUMP JUMPDEST DUP1 PUSH1 0x1F ADD PUSH1 0x20 DUP1 SWAP2 DIV MUL PUSH1 0x20 ADD PUSH1 0x40 MLOAD SWAP1 DUP2 ADD PUSH1 0x40 MSTORE DUP1 SWAP3 SWAP2 SWAP1 DUP2 DUP2 MSTORE PUSH1 0x20 ADD DUP3 DUP1 SLOAD PUSH2 0x462 SWAP1 PUSH2 0xD95 JUMP JUMPDEST DUP1 ISZERO PUSH2 0x4AF JUMPI DUP1 PUSH1 0x1F LT PUSH2 0x484 JUMPI PUSH2 0x100 DUP1 DUP4 SLOAD DIV MUL DUP4 MSTORE SWAP2 PUSH1 0x20 ADD SWAP2 PUSH2 0x4AF JUMP JUMPDEST DUP3 ADD SWAP2 SWAP1 PUSH1 0x0 MSTORE PUSH1 0x20 PUSH1 0x0 KECCAK256 SWAP1 JUMPDEST DUP2 SLOAD DUP2 MSTORE SWAP1 PUSH1 0x1 ADD SWAP1 PUSH1 0x20 ADD DUP1 DUP4 GT PUSH2 0x492 JUMPI DUP3 SWAP1 SUB PUSH1 0x1F AND DUP3 ADD SWAP2 JUMPDEST POP POP POP POP POP SWAP1 DUP1 PUSH1 0x4 ADD DUP1 SLOAD PUSH2 0x4C4 SWAP1 PUSH2 0xD95 JUMP JUMPDEST DUP1 PUSH1 0x1F ADD PUSH1 0x20 DUP1 SWAP2 DIV MUL PUSH1 0x20 ADD PUSH1 0x40 MLOAD SWAP1 DUP2 ADD PUSH1 0x40 MSTORE DUP1 SWAP3 SWAP2 SWAP1 DUP2 DUP2 MSTORE PUSH1 0x20 ADD DUP3 DUP1 SLOAD PUSH2 0x4F0 SWAP1 PUSH2 0xD95 JUMP JUMPDEST DUP1 ISZERO PUSH2 0x53D JUMPI DUP1 PUSH1 0x1F LT PUSH2 0x512 JUMPI PUSH2 0x100 DUP1 DUP4 SLOAD DIV MUL DUP4 MSTORE SWAP2 PUSH1 0x20 ADD SWAP2 PUSH2 0x53D JUMP JUMPDEST DUP3 ADD SWAP2 SWAP1 PUSH1 0x0 MSTORE PUSH1 0x20 PUSH1 0x0 KECCAK256 SWAP1 JUMPDEST DUP2 SLOAD DUP2 MSTORE SWAP1 PUSH1 0x1 ADD SWAP1 PUSH1 0x20 ADD DUP1 DUP4 GT PUSH2 0x520 JUMPI DUP3 SWAP1 SUB PUSH1 0x1F AND DUP3 ADD SWAP2 JUMPDEST POP POP POP POP POP SWAP1 POP DUP6 JUMP JUMPDEST PUSH2 0x54F PUSH2 0x8FD JUMP JUMPDEST PUSH1 0x0 DUP1 CALLER PUSH20 0xFFFFFFFFFFFFFFFFFFFFFFFFFFFFFFFFFFFFFFFF AND PUSH20 0xFFFFFFFFFFFFFFFFFFFFFFFFFFFFFFFFFFFFFFFF AND DUP2 MSTORE PUSH1 0x20 ADD SWAP1 DUP2 MSTORE PUSH1 0x20 ADD PUSH1 0x0 KECCAK256 PUSH1 0x40 MLOAD DUP1 PUSH1 0xA0 ADD PUSH1 0x40 MSTORE SWAP1 DUP2 PUSH1 0x0 DUP3 ADD DUP1 SLOAD PUSH2 0x5A8 SWAP1 PUSH2 0xD95 JUMP JUMPDEST DUP1 PUSH1 0x1F ADD PUSH1 0x20 DUP1 SWAP2 DIV MUL PUSH1 0x20 ADD PUSH1 0x40 MLOAD SWAP1 DUP2 ADD PUSH1 0x40 MSTORE DUP1 SWAP3 SWAP2 SWAP1 DUP2 DUP2 MSTORE PUSH1 0x20 ADD DUP3 DUP1 SLOAD PUSH2 0x5D4 SWAP1 PUSH2 0xD95 JUMP JUMPDEST DUP1 ISZERO PUSH2 0x621 JUMPI DUP1 PUSH1 0x1F LT PUSH2 0x5F6 JUMPI PUSH2 0x100 DUP1 DUP4 SLOAD DIV MUL DUP4 MSTORE SWAP2 PUSH1 0x20 ADD SWAP2 PUSH2 0x621 JUMP JUMPDEST DUP3 ADD SWAP2 SWAP1 PUSH1 0x0 MSTORE PUSH1 0x20 PUSH1 0x0 KECCAK256 SWAP1 JUMPDEST DUP2 SLOAD DUP2 MSTORE SWAP1 PUSH1 0x1 ADD SWAP1 PUSH1 0x20 ADD DUP1 DUP4 GT PUSH2 0x604 JUMPI DUP3 SWAP1 SUB PUSH1 0x1F AND DUP3 ADD SWAP2 JUMPDEST POP POP POP POP POP DUP2 MSTORE PUSH1 0x20 ADD PUSH1 0x1 DUP3 ADD DUP1 SLOAD PUSH2 0x63A SWAP1 PUSH2 0xD95 JUMP JUMPDEST DUP1 PUSH1 0x1F ADD PUSH1 0x20 DUP1 SWAP2 DIV MUL PUSH1 0x20 ADD PUSH1 0x40 MLOAD SWAP1 DUP2 ADD PUSH1 0x40 MSTORE DUP1 SWAP3 SWAP2 SWAP1 DUP2 DUP2 MSTORE PUSH1 0x20 ADD DUP3 DUP1 SLOAD PUSH2 0x666 SWAP1 PUSH2 0xD95 JUMP JUMPDEST DUP1 ISZERO PUSH2 0x6B3 JUMPI DUP1 PUSH1 0x1F LT PUSH2 0x688 JUMPI PUSH2 0x100 DUP1 DUP4 SLOAD DIV MUL DUP4 MSTORE SWAP2 PUSH1 0x20 ADD SWAP2 PUSH2 0x6B3 JUMP JUMPDEST DUP3 ADD SWAP2 SWAP1 PUSH1 0x0 MSTORE PUSH1 0x20 PUSH1 0x0 KECCAK256 SWAP1 JUMPDEST DUP2 SLOAD DUP2 MSTORE SWAP1 PUSH1 0x1 ADD SWAP1 PUSH1 0x20 ADD DUP1 DUP4 GT PUSH2 0x696 JUMPI DUP3 SWAP1 SUB PUSH1 0x1F AND DUP3 ADD SWAP2 JUMPDEST POP POP POP POP POP DUP2 MSTORE PUSH1 0x20 ADD PUSH1 0x2 DUP3 ADD DUP1 SLOAD PUSH2 0x6CC SWAP1 PUSH2 0xD95 JUMP JUMPDEST DUP1 PUSH1 0x1F ADD PUSH1 0x20 DUP1 SWAP2 DIV MUL PUSH1 0x20 ADD PUSH1 0x40 MLOAD SWAP1 DUP2 ADD PUSH1 0x40 MSTORE DUP1 SWAP3 SWAP2 SWAP1 DUP2 DUP2 MSTORE PUSH1 0x20 ADD DUP3 DUP1 SLOAD PUSH2 0x6F8 SWAP1 PUSH2 0xD95 JUMP JUMPDEST DUP1 ISZERO PUSH2 0x745 JUMPI DUP1 PUSH1 0x1F LT PUSH2 0x71A JUMPI PUSH2 0x100 DUP1 DUP4 SLOAD DIV MUL DUP4 MSTORE SWAP2 PUSH1 0x20 ADD SWAP2 PUSH2 0x745 JUMP JUMPDEST DUP3 ADD SWAP2 SWAP1 PUSH1 0x0 MSTORE PUSH1 0x20 PUSH1 0x0 KECCAK256 SWAP1 JUMPDEST DUP2 SLOAD DUP2 MSTORE SWAP1 PUSH1 0x1 ADD SWAP1 PUSH1 0x20 ADD DUP1 DUP4 GT PUSH2 0x728 JUMPI DUP3 SWAP1 SUB PUSH1 0x1F AND DUP3 ADD SWAP2 JUMPDEST POP POP POP POP POP DUP2 MSTORE PUSH1 0x20 ADD PUSH1 0x3 DUP3 ADD DUP1 SLOAD PUSH2 0x75E SWAP1 PUSH2 0xD95 JUMP JUMPDEST DUP1 PUSH1 0x1F ADD PUSH1 0x20 DUP1 SWAP2 DIV MUL PUSH1 0x20 ADD PUSH1 0x40 MLOAD SWAP1 DUP2 ADD PUSH1 0x40 MSTORE DUP1 SWAP3 SWAP2 SWAP1 DUP2 DUP2 MSTORE PUSH1 0x20 ADD DUP3 DUP1 SLOAD PUSH2 0x78A SWAP1 PUSH2 0xD95 JUMP JUMPDEST DUP1 ISZERO PUSH2 0x7D7 JUMPI DUP1 PUSH1 0x1F LT PUSH2 0x7AC JUMPI PUSH2 0x100 DUP1 DUP4 SLOAD DIV MUL DUP4 MSTORE SWAP2 PUSH1 0x20 ADD SWAP2 PUSH2 0x7D7 JUMP JUMPDEST DUP3 ADD SWAP2 SWAP1 PUSH1 0x0 MSTORE PUSH1 0x20 PUSH1 0x0 KECCAK256 SWAP1 JUMPDEST DUP2 SLOAD DUP2 MSTORE SWAP1 PUSH1 0x1 ADD SWAP1 PUSH1 0x20 ADD DUP1 DUP4 GT PUSH2 0x7BA JUMPI DUP3 SWAP1 SUB PUSH1 0x1F AND DUP3 ADD SWAP2 JUMPDEST POP POP POP POP POP DUP2 MSTORE PUSH1 0x20 ADD PUSH1 0x4 DUP3 ADD DUP1 SLOAD PUSH2 0x7F0 SWAP1 PUSH2 0xD95 JUMP JUMPDEST DUP1 PUSH1 0x1F ADD PUSH1 0x20 DUP1 SWAP2 DIV MUL PUSH1 0x20 ADD PUSH1 0x40 MLOAD SWAP1 DUP2 ADD PUSH1 0x40 MSTORE DUP1 SWAP3 SWAP2 SWAP1 DUP2 DUP2 MSTORE PUSH1 0x20 ADD DUP3 DUP1 SLOAD PUSH2 0x81C SWAP1 PUSH2 0xD95 JUMP JUMPDEST DUP1 ISZERO PUSH2 0x869 JUMPI DUP1 PUSH1 0x1F LT PUSH2 0x83E JUMPI PUSH2 0x100 DUP1 DUP4 SLOAD DIV MUL DUP4 MSTORE SWAP2 PUSH1 0x20 ADD SWAP2 PUSH2 0x869 JUMP JUMPDEST DUP3 ADD SWAP2 SWAP1 PUSH1 0x0 MSTORE PUSH1 0x20 PUSH1 0x0 KECCAK256 SWAP1 JUMPDEST DUP2 SLOAD DUP2 MSTORE SWAP1 PUSH1 0x1 ADD SWAP1 PUSH1 0x20 ADD DUP1 DUP4 GT PUSH2 0x84C JUMPI DUP3 SWAP1 SUB PUSH1 0x1F AND DUP3 ADD SWAP2 JUMPDEST POP POP POP POP POP DUP2 MSTORE POP POP SWAP1 POP SWAP1 JUMP JUMPDEST DUP3 DUP1 SLOAD PUSH2 0x883 SWAP1 PUSH2 0xD95 JUMP JUMPDEST SWAP1 PUSH1 0x0 MSTORE PUSH1 0x20 PUSH1 0x0 KECCAK256 SWAP1 PUSH1 0x1F ADD PUSH1 0x20 SWAP1 DIV DUP2 ADD SWAP3 DUP3 PUSH2 0x8A5 JUMPI PUSH1 0x0 DUP6 SSTORE PUSH2 0x8EC JUMP JUMPDEST DUP3 PUSH1 0x1F LT PUSH2 0x8BE JUMPI DUP1 MLOAD PUSH1 0xFF NOT AND DUP4 DUP1 ADD OR DUP6 SSTORE PUSH2 0x8EC JUMP JUMPDEST DUP3 DUP1 ADD PUSH1 0x1 ADD DUP6 SSTORE DUP3 ISZERO PUSH2 0x8EC JUMPI SWAP2 DUP3 ADD JUMPDEST DUP3 DUP2 GT ISZERO PUSH2 0x8EB JUMPI DUP3 MLOAD DUP3 SSTORE SWAP2 PUSH1 0x20 ADD SWAP2 SWAP1 PUSH1 0x1 ADD SWAP1 PUSH2 0x8D0 JUMP JUMPDEST JUMPDEST POP SWAP1 POP PUSH2 0x8F9 SWAP2 SWAP1 PUSH2 0x92C JUMP JUMPDEST POP SWAP1 JUMP JUMPDEST PUSH1 0x40 MLOAD DUP1 PUSH1 0xA0 ADD PUSH1 0x40 MSTORE DUP1 PUSH1 0x60 DUP2 MSTORE PUSH1 0x20 ADD PUSH1 0x60 DUP2 MSTORE PUSH1 0x20 ADD PUSH1 0x60 DUP2 MSTORE PUSH1 0x20 ADD PUSH1 0x60 DUP2 MSTORE PUSH1 0x20 ADD PUSH1 0x60 DUP2 MSTORE POP SWAP1 JUMP JUMPDEST JUMPDEST DUP1 DUP3 GT ISZERO PUSH2 0x945 JUMPI PUSH1 0x0 DUP2 PUSH1 0x0 SWAP1 SSTORE POP PUSH1 0x1 ADD PUSH2 0x92D JUMP JUMPDEST POP SWAP1 JUMP JUMPDEST PUSH1 0x0 PUSH2 0x95C PUSH2 0x957 DUP5 PUSH2 0xCC3 JUMP JUMPDEST PUSH2 0xC9E JUMP JUMPDEST SWAP1 POP DUP3 DUP2 MSTORE PUSH1 0x20 DUP2 ADD DUP5 DUP5 DUP5 ADD GT ISZERO PUSH2 0x978 JUMPI PUSH2 0x977 PUSH2 0xE5B JUMP JUMPDEST JUMPDEST PUSH2 0x983 DUP5 DUP3 DUP6 PUSH2 0xD53 JUMP JUMPDEST POP SWAP4 SWAP3 POP POP POP JUMP JUMPDEST PUSH1 0x0 DUP2 CALLDATALOAD SWAP1 POP PUSH2 0x99A DUP2 PUSH2 0xE7B JUMP JUMPDEST SWAP3 SWAP2 POP POP JUMP JUMPDEST PUSH1 0x0 DUP3 PUSH1 0x1F DUP4 ADD SLT PUSH2 0x9B5 JUMPI PUSH2 0x9B4 PUSH2 0xE56 JUMP JUMPDEST JUMPDEST DUP2 CALLDATALOAD PUSH2 0x9C5 DUP5 DUP3 PUSH1 0x20 DUP7 ADD PUSH2 0x949 JUMP JUMPDEST SWAP2 POP POP SWAP3 SWAP2 POP POP JUMP JUMPDEST PUSH1 0x0 PUSH1 0x20 DUP3 DUP5 SUB SLT ISZERO PUSH2 0x9E4 JUMPI PUSH2 0x9E3 PUSH2 0xE65 JUMP JUMPDEST JUMPDEST PUSH1 0x0 PUSH2 0x9F2 DUP5 DUP3 DUP6 ADD PUSH2 0x98B JUMP JUMPDEST SWAP2 POP POP SWAP3 SWAP2 POP POP JUMP JUMPDEST PUSH1 0x0 DUP1 PUSH1 0x0 DUP1 PUSH1 0x0 PUSH1 0xA0 DUP7 DUP9 SUB SLT ISZERO PUSH2 0xA17 JUMPI PUSH2 0xA16 PUSH2 0xE65 JUMP JUMPDEST JUMPDEST PUSH1 0x0 DUP7 ADD CALLDATALOAD PUSH8 0xFFFFFFFFFFFFFFFF DUP2 GT ISZERO PUSH2 0xA35 JUMPI PUSH2 0xA34 PUSH2 0xE60 JUMP JUMPDEST JUMPDEST PUSH2 0xA41 DUP9 DUP3 DUP10 ADD PUSH2 0x9A0 JUMP JUMPDEST SWAP6 POP POP PUSH1 0x20 DUP7 ADD CALLDATALOAD PUSH8 0xFFFFFFFFFFFFFFFF DUP2 GT ISZERO PUSH2 0xA62 JUMPI PUSH2 0xA61 PUSH2 0xE60 JUMP JUMPDEST JUMPDEST PUSH2 0xA6E DUP9 DUP3 DUP10 ADD PUSH2 0x9A0 JUMP JUMPDEST SWAP5 POP POP PUSH1 0x40 DUP7 ADD CALLDATALOAD PUSH8 0xFFFFFFFFFFFFFFFF DUP2 GT ISZERO PUSH2 0xA8F JUMPI PUSH2 0xA8E PUSH2 0xE60 JUMP JUMPDEST JUMPDEST PUSH2 0xA9B DUP9 DUP3 DUP10 ADD PUSH2 0x9A0 JUMP JUMPDEST SWAP4 POP POP PUSH1 0x60 DUP7 ADD CALLDATALOAD PUSH8 0xFFFFFFFFFFFFFFFF DUP2 GT ISZERO PUSH2 0xABC JUMPI PUSH2 0xABB PUSH2 0xE60 JUMP JUMPDEST JUMPDEST PUSH2 0xAC8 DUP9 DUP3 DUP10 ADD PUSH2 0x9A0 JUMP JUMPDEST SWAP3 POP POP PUSH1 0x80 DUP7 ADD CALLDATALOAD PUSH8 0xFFFFFFFFFFFFFFFF DUP2 GT ISZERO PUSH2 0xAE9 JUMPI PUSH2 0xAE8 PUSH2 0xE60 JUMP JUMPDEST JUMPDEST PUSH2 0xAF5 DUP9 DUP3 DUP10 ADD PUSH2 0x9A0 JUMP JUMPDEST SWAP2 POP POP SWAP3 SWAP6 POP SWAP3 SWAP6 SWAP1 SWAP4 POP JUMP JUMPDEST PUSH1 0x0 PUSH2 0xB0D DUP3 PUSH2 0xCF4 JUMP JUMPDEST PUSH2 0xB17 DUP2 DUP6 PUSH2 0xCFF JUMP JUMPDEST SWAP4 POP PUSH2 0xB27 DUP2 DUP6 PUSH1 0x20 DUP7 ADD PUSH2 0xD62 JUMP JUMPDEST PUSH2 0xB30 DUP2 PUSH2 0xE6A JUMP JUMPDEST DUP5 ADD SWAP2 POP POP SWAP3 SWAP2 POP POP JUMP JUMPDEST PUSH1 0x0 PUSH2 0xB46 DUP3 PUSH2 0xCF4 JUMP JUMPDEST PUSH2 0xB50 DUP2 DUP6 PUSH2 0xD10 JUMP JUMPDEST SWAP4 POP PUSH2 0xB60 DUP2 DUP6 PUSH1 0x20 DUP7 ADD PUSH2 0xD62 JUMP JUMPDEST PUSH2 0xB69 DUP2 PUSH2 0xE6A JUMP JUMPDEST DUP5 ADD SWAP2 POP POP SWAP3 SWAP2 POP POP JUMP JUMPDEST PUSH1 0x0 PUSH1 0xA0 DUP4 ADD PUSH1 0x0 DUP4 ADD MLOAD DUP5 DUP3 SUB PUSH1 0x0 DUP7 ADD MSTORE PUSH2 0xB91 DUP3 DUP3 PUSH2 0xB02 JUMP JUMPDEST SWAP2 POP POP PUSH1 0x20 DUP4 ADD MLOAD DUP5 DUP3 SUB PUSH1 0x20 DUP7 ADD MSTORE PUSH2 0xBAB DUP3 DUP3 PUSH2 0xB02 JUMP JUMPDEST SWAP2 POP POP PUSH1 0x40 DUP4 ADD MLOAD DUP5 DUP3 SUB PUSH1 0x40 DUP7 ADD MSTORE PUSH2 0xBC5 DUP3 DUP3 PUSH2 0xB02 JUMP JUMPDEST SWAP2 POP POP PUSH1 0x60 DUP4 ADD MLOAD DUP5 DUP3 SUB PUSH1 0x60 DUP7 ADD MSTORE PUSH2 0xBDF DUP3 DUP3 PUSH2 0xB02 JUMP JUMPDEST SWAP2 POP POP PUSH1 0x80 DUP4 ADD MLOAD DUP5 DUP3 SUB PUSH1 0x80 DUP7 ADD MSTORE PUSH2 0xBF9 DUP3 DUP3 PUSH2 0xB02 JUMP JUMPDEST SWAP2 POP POP DUP1 SWAP2 POP POP SWAP3 SWAP2 POP POP JUMP JUMPDEST PUSH1 0x0 PUSH1 0xA0 DUP3 ADD SWAP1 POP DUP2 DUP2 SUB PUSH1 0x0 DUP4 ADD MSTORE PUSH2 0xC20 DUP2 DUP9 PUSH2 0xB3B JUMP JUMPDEST SWAP1 POP DUP2 DUP2 SUB PUSH1 0x20 DUP4 ADD MSTORE PUSH2 0xC34 DUP2 DUP8 PUSH2 0xB3B JUMP JUMPDEST SWAP1 POP DUP2 DUP2 SUB PUSH1 0x40 DUP4 ADD MSTORE PUSH2 0xC48 DUP2 DUP7 PUSH2 0xB3B JUMP JUMPDEST SWAP1 POP DUP2 DUP2 SUB PUSH1 0x60 DUP4 ADD MSTORE PUSH2 0xC5C DUP2 DUP6 PUSH2 0xB3B JUMP JUMPDEST SWAP1 POP DUP2 DUP2 SUB PUSH1 0x80 DUP4 ADD MSTORE PUSH2 0xC70 DUP2 DUP5 PUSH2 0xB3B JUMP JUMPDEST SWAP1 POP SWAP7 SWAP6 POP POP POP POP POP POP JUMP JUMPDEST PUSH1 0x0 PUSH1 0x20 DUP3 ADD SWAP1 POP DUP2 DUP2 SUB PUSH1 0x0 DUP4 ADD MSTORE PUSH2 0xC96 DUP2 DUP5 PUSH2 0xB74 JUMP JUMPDEST SWAP1 POP SWAP3 SWAP2 POP POP JUMP JUMPDEST PUSH1 0x0 PUSH2 0xCA8 PUSH2 0xCB9 JUMP JUMPDEST SWAP1 POP PUSH2 0xCB4 DUP3 DUP3 PUSH2 0xDC7 JUMP JUMPDEST SWAP2 SWAP1 POP JUMP JUMPDEST PUSH1 0x0 PUSH1 0x40 MLOAD SWAP1 POP SWAP1 JUMP JUMPDEST PUSH1 0x0 PUSH8 0xFFFFFFFFFFFFFFFF DUP3 GT ISZERO PUSH2 0xCDE JUMPI PUSH2 0xCDD PUSH2 0xE27 JUMP JUMPDEST JUMPDEST PUSH2 0xCE7 DUP3 PUSH2 0xE6A JUMP JUMPDEST SWAP1 POP PUSH1 0x20 DUP2 ADD SWAP1 POP SWAP2 SWAP1 POP JUMP JUMPDEST PUSH1 0x0 DUP2 MLOAD SWAP1 POP SWAP2 SWAP1 POP JUMP JUMPDEST PUSH1 0x0 DUP3 DUP3 MSTORE PUSH1 0x20 DUP3 ADD SWAP1 POP SWAP3 SWAP2 POP POP JUMP JUMPDEST PUSH1 0x0 DUP3 DUP3 MSTORE PUSH1 0x20 DUP3 ADD SWAP1 POP SWAP3 SWAP2 POP POP JUMP JUMPDEST PUSH1 0x0 PUSH2 0xD2C DUP3 PUSH2 0xD33 JUMP JUMPDEST SWAP1 POP SWAP2 SWAP1 POP JUMP JUMPDEST PUSH1 0x0 PUSH20 0xFFFFFFFFFFFFFFFFFFFFFFFFFFFFFFFFFFFFFFFF DUP3 AND SWAP1 POP SWAP2 SWAP1 POP JUMP JUMPDEST DUP3 DUP2 DUP4 CALLDATACOPY PUSH1 0x0 DUP4 DUP4 ADD MSTORE POP POP POP JUMP JUMPDEST PUSH1 0x0 JUMPDEST DUP4 DUP2 LT ISZERO PUSH2 0xD80 JUMPI DUP1 DUP3 ADD MLOAD DUP2 DUP5 ADD MSTORE PUSH1 0x20 DUP2 ADD SWAP1 POP PUSH2 0xD65 JUMP JUMPDEST DUP4 DUP2 GT ISZERO PUSH2 0xD8F JUMPI PUSH1 0x0 DUP5 DUP5 ADD MSTORE JUMPDEST POP POP POP POP JUMP JUMPDEST PUSH1 0x0 PUSH1 0x2 DUP3 DIV SWAP1 POP PUSH1 0x1 DUP3 AND DUP1 PUSH2 0xDAD JUMPI PUSH1 0x7F DUP3 AND SWAP2 POP JUMPDEST PUSH1 0x20 DUP3 LT DUP2 EQ ISZERO PUSH2 0xDC1 JUMPI PUSH2 0xDC0 PUSH2 0xDF8 JUMP JUMPDEST JUMPDEST POP SWAP2 SWAP1 POP JUMP JUMPDEST PUSH2 0xDD0 DUP3 PUSH2 0xE6A JUMP JUMPDEST DUP2 ADD DUP2 DUP2 LT PUSH8 0xFFFFFFFFFFFFFFFF DUP3 GT OR ISZERO PUSH2 0xDEF JUMPI PUSH2 0xDEE PUSH2 0xE27 JUMP JUMPDEST JUMPDEST DUP1 PUSH1 0x40 MSTORE POP POP POP JUMP JUMPDEST PUSH32 0x4E487B7100000000000000000000000000000000000000000000000000000000 PUSH1 0x0 MSTORE PUSH1 0x22 PUSH1 0x4 MSTORE PUSH1 0x24 PUSH1 0x0 REVERT JUMPDEST PUSH32 0x4E487B7100000000000000000000000000000000000000000000000000000000 PUSH1 0x0 MSTORE PUSH1 0x41 PUSH1 0x4 MSTORE PUSH1 0x24 PUSH1 0x0 REVERT JUMPDEST PUSH1 0x0 DUP1 REVERT JUMPDEST PUSH1 0x0 DUP1 REVERT JUMPDEST PUSH1 0x0 DUP1 REVERT JUMPDEST PUSH1 0x0 DUP1 REVERT JUMPDEST PUSH1 0x0 PUSH1 0x1F NOT PUSH1 0x1F DUP4 ADD AND SWAP1 POP SWAP2 SWAP1 POP JUMP JUMPDEST PUSH2 0xE84 DUP2 PUSH2 0xD21 JUMP JUMPDEST DUP2 EQ PUSH2 0xE8F JUMPI PUSH1 0x0 DUP1 REVERT JUMPDEST POP JUMP INVALID LOG2 PUSH5 0x6970667358 0x22 SLT KECCAK256 PUSH7 0xB120A4C53731E3 0xB1 PUSH21 0xDD0E6A40294AE87B6DF6B61E69098E8C03ADEC0866 POP PUSH5 0x736F6C6343 STOP ADDMOD SMOD STOP CALLER "
				},
				"gasEstimates": {
					"creation": {
						"codeDepositCost": "756800",
						"executionCost": "792",
						"totalCost": "757592"
					},
					"external": {
						"addBio(string,string,string,string,string)": "infinite",
						"getBio()": "infinite",
						"profile(address)": "infinite"
					}
				},
				"methodIdentifiers": {
					"addBio(string,string,string,string,string)": "3e0eb060",
					"getBio()": "fa165e8f",
					"profile(address)": "9dd9d0fd"
				}
			},
			"storageLayout": {
				"storage": [
					{
						"astId": 17,
						"contract": "contracts/Profile.sol:Profile",
						"label": "profile",
						"offset": 0,
						"slot": "0",
						"type": "t_mapping(t_address,t_struct(Bio)12_storage)"
					}
				],
				"types": {
					"t_address": {
						"encoding": "inplace",
						"label": "address",
						"numberOfBytes": "20"
					},
					"t_mapping(t_address,t_struct(Bio)12_storage)": {
						"encoding": "mapping",
						"key": "t_address",
						"label": "mapping(address => struct Profile.Bio)",
						"numberOfBytes": "32",
						"value": "t_struct(Bio)12_storage"
					},
					"t_string_storage": {
						"encoding": "bytes",
						"label": "string",
						"numberOfBytes": "32"
					},
					"t_struct(Bio)12_storage": {
						"encoding": "inplace",
						"label": "struct Profile.Bio",
						"members": [
							{
								"astId": 3,
								"contract": "contracts/Profile.sol:Profile",
								"label": "firstName",
								"offset": 0,
								"slot": "0",
								"type": "t_string_storage"
							},
							{
								"astId": 5,
								"contract": "contracts/Profile.sol:Profile",
								"label": "middleName",
								"offset": 0,
								"slot": "1",
								"type": "t_string_storage"
							},
							{
								"astId": 7,
								"contract": "contracts/Profile.sol:Profile",
								"label": "lastName",
								"offset": 0,
								"slot": "2",
								"type": "t_string_storage"
							},
							{
								"astId": 9,
								"contract": "contracts/Profile.sol:Profile",
								"label": "email",
								"offset": 0,
								"slot": "3",
								"type": "t_string_storage"
							},
							{
								"astId": 11,
								"contract": "contracts/Profile.sol:Profile",
								"label": "phone",
								"offset": 0,
								"slot": "4",
								"type": "t_string_storage"
							}
						],
						"numberOfBytes": "160"
					}
				}
			},
			"userdoc": {
				"kind": "user",
				"methods": {},
				"version": 1
			}
		}
	}
}