{
	"contracts/Profile.sol": {
		"Profile": {
			"abi": [
				{
					"inputs": [
						{
							"internalType": "string",
							"name": "firstName",
							"type": "string"
						},
						{
							"internalType": "string",
							"name": "middleName",
							"type": "string"
						},
						{
							"internalType": "string",
							"name": "lastName",
							"type": "string"
						},
						{
							"internalType": "string",
							"name": "email",
							"type": "string"
						},
						{
							"internalType": "string",
							"name": "phone",
							"type": "string"
						},
						{
							"internalType": "string",
							"name": "profileImage",
							"type": "string"
						},
						{
							"internalType": "string[]",
							"name": "frontend",
							"type": "string[]"
						},
						{
							"internalType": "string[]",
							"name": "backend",
							"type": "string[]"
						},
						{
							"internalType": "string[]",
							"name": "framework",
							"type": "string[]"
						}
					],
					"name": "addBio",
					"outputs": [],
					"stateMutability": "nonpayable",
					"type": "function"
				},
				{
					"inputs": [],
					"name": "delProfile",
					"outputs": [],
					"stateMutability": "nonpayable",
					"type": "function"
				},
				{
					"inputs": [
						{
							"internalType": "address",
							"name": "",
							"type": "address"
						}
					],
					"name": "profile",
					"outputs": [
						{
							"internalType": "address",
							"name": "userAddress",
							"type": "address"
						},
						{
							"internalType": "string",
							"name": "firstName",
							"type": "string"
						},
						{
							"internalType": "string",
							"name": "middleName",
							"type": "string"
						},
						{
							"internalType": "string",
							"name": "lastName",
							"type": "string"
						},
						{
							"internalType": "string",
							"name": "email",
							"type": "string"
						},
						{
							"internalType": "string",
							"name": "phone",
							"type": "string"
						},
						{
							"internalType": "string",
							"name": "profileImage",
							"type": "string"
						},
						{
							"internalType": "uint256",
							"name": "createDate",
							"type": "uint256"
						}
					],
					"stateMutability": "view",
					"type": "function"
				}
			],
			"devdoc": {
				"kind": "dev",
				"methods": {},
				"version": 1
			},
			"evm": {
				"assembly": "    /* \"contracts/Profile.sol\":60:2481  contract Profile {\r... */\n  mstore(0x40, 0x80)\n  callvalue\n  dup1\n  iszero\n  tag_1\n  jumpi\n  0x00\n  dup1\n  revert\ntag_1:\n  pop\n  dataSize(sub_0)\n  dup1\n  dataOffset(sub_0)\n  0x00\n  codecopy\n  0x00\n  return\nstop\n\nsub_0: assembly {\n        /* \"contracts/Profile.sol\":60:2481  contract Profile {\r... */\n      mstore(0x40, 0x80)\n      callvalue\n      dup1\n      iszero\n      tag_1\n      jumpi\n      0x00\n      dup1\n      revert\n    tag_1:\n      pop\n      jumpi(tag_2, lt(calldatasize, 0x04))\n      shr(0xe0, calldataload(0x00))\n      dup1\n      0x9dd9d0fd\n      eq\n      tag_3\n      jumpi\n      dup1\n      0xca679f1d\n      eq\n      tag_4\n      jumpi\n      dup1\n      0xfabce08f\n      eq\n      tag_5\n      jumpi\n    tag_2:\n      0x00\n      dup1\n      revert\n        /* \"contracts/Profile.sol\":444:484  mapping (address => Bio) public  profile */\n    tag_3:\n      tag_6\n      0x04\n      dup1\n      calldatasize\n      sub\n      dup2\n      add\n      swap1\n      tag_7\n      swap2\n      swap1\n      tag_8\n      jump\t// in\n    tag_7:\n      tag_9\n      jump\t// in\n    tag_6:\n      mload(0x40)\n      tag_10\n      swap9\n      swap8\n      swap7\n      swap6\n      swap5\n      swap4\n      swap3\n      swap2\n      swap1\n      tag_11\n      jump\t// in\n    tag_10:\n      mload(0x40)\n      dup1\n      swap2\n      sub\n      swap1\n      return\n        /* \"contracts/Profile.sol\":738:1514  function addBio(string memory firstName, string memory middleName, string memory lastName, string memory email, string memory phone, string memory profileImage, string[] memory frontend, string[] memory backend, string[] memory framework) public {\r... */\n    tag_4:\n      tag_12\n      0x04\n      dup1\n      calldatasize\n      sub\n      dup2\n      add\n      swap1\n      tag_13\n      swap2\n      swap1\n      tag_14\n      jump\t// in\n    tag_13:\n      tag_15\n      jump\t// in\n    tag_12:\n      stop\n        /* \"contracts/Profile.sol\":2400:2474  function delProfile() public {\r... */\n    tag_5:\n      tag_16\n      tag_17\n      jump\t// in\n    tag_16:\n      stop\n        /* \"contracts/Profile.sol\":444:484  mapping (address => Bio) public  profile */\n    tag_9:\n      mstore(0x20, 0x00)\n      dup1\n      0x00\n      mstore\n      keccak256(0x00, 0x40)\n      0x00\n      swap2\n      pop\n      swap1\n      pop\n      dup1\n      0x00\n      add\n      0x00\n      swap1\n      sload\n      swap1\n      0x0100\n      exp\n      swap1\n      div\n      0xffffffffffffffffffffffffffffffffffffffff\n      and\n      swap1\n      dup1\n      0x01\n      add\n      dup1\n      sload\n      tag_18\n      swap1\n      tag_19\n      jump\t// in\n    tag_18:\n      dup1\n      0x1f\n      add\n      0x20\n      dup1\n      swap2\n      div\n      mul\n      0x20\n      add\n      mload(0x40)\n      swap1\n      dup2\n      add\n      0x40\n      mstore\n      dup1\n      swap3\n      swap2\n      swap1\n      dup2\n      dup2\n      mstore\n      0x20\n      add\n      dup3\n      dup1\n      sload\n      tag_20\n      swap1\n      tag_19\n      jump\t// in\n    tag_20:\n      dup1\n      iszero\n      tag_21\n      jumpi\n      dup1\n      0x1f\n      lt\n      tag_22\n      jumpi\n      0x0100\n      dup1\n      dup4\n      sload\n      div\n      mul\n      dup4\n      mstore\n      swap2\n      0x20\n      add\n      swap2\n      jump(tag_21)\n    tag_22:\n      dup3\n      add\n      swap2\n      swap1\n      0x00\n      mstore\n      keccak256(0x00, 0x20)\n      swap1\n    tag_23:\n      dup2\n      sload\n      dup2\n      mstore\n      swap1\n      0x01\n      add\n      swap1\n      0x20\n      add\n      dup1\n      dup4\n      gt\n      tag_23\n      jumpi\n      dup3\n      swap1\n      sub\n      0x1f\n      and\n      dup3\n      add\n      swap2\n    tag_21:\n      pop\n      pop\n      pop\n      pop\n      pop\n      swap1\n      dup1\n      0x02\n      add\n      dup1\n      sload\n      tag_24\n      swap1\n      tag_19\n      jump\t// in\n    tag_24:\n      dup1\n      0x1f\n      add\n      0x20\n      dup1\n      swap2\n      div\n      mul\n      0x20\n      add\n      mload(0x40)\n      swap1\n      dup2\n      add\n      0x40\n      mstore\n      dup1\n      swap3\n      swap2\n      swap1\n      dup2\n      dup2\n      mstore\n      0x20\n      add\n      dup3\n      dup1\n      sload\n      tag_25\n      swap1\n      tag_19\n      jump\t// in\n    tag_25:\n      dup1\n      iszero\n      tag_26\n      jumpi\n      dup1\n      0x1f\n      lt\n      tag_27\n      jumpi\n      0x0100\n      dup1\n      dup4\n      sload\n      div\n      mul\n      dup4\n      mstore\n      swap2\n      0x20\n      add\n      swap2\n      jump(tag_26)\n    tag_27:\n      dup3\n      add\n      swap2\n      swap1\n      0x00\n      mstore\n      keccak256(0x00, 0x20)\n      swap1\n    tag_28:\n      dup2\n      sload\n      dup2\n      mstore\n      swap1\n      0x01\n      add\n      swap1\n      0x20\n      add\n      dup1\n      dup4\n      gt\n      tag_28\n      jumpi\n      dup3\n      swap1\n      sub\n      0x1f\n      and\n      dup3\n      add\n      swap2\n    tag_26:\n      pop\n      pop\n      pop\n      pop\n      pop\n      swap1\n      dup1\n      0x03\n      add\n      dup1\n      sload\n      tag_29\n      swap1\n      tag_19\n      jump\t// in\n    tag_29:\n      dup1\n      0x1f\n      add\n      0x20\n      dup1\n      swap2\n      div\n      mul\n      0x20\n      add\n      mload(0x40)\n      swap1\n      dup2\n      add\n      0x40\n      mstore\n      dup1\n      swap3\n      swap2\n      swap1\n      dup2\n      dup2\n      mstore\n      0x20\n      add\n      dup3\n      dup1\n      sload\n      tag_30\n      swap1\n      tag_19\n      jump\t// in\n    tag_30:\n      dup1\n      iszero\n      tag_31\n      jumpi\n      dup1\n      0x1f\n      lt\n      tag_32\n      jumpi\n      0x0100\n      dup1\n      dup4\n      sload\n      div\n      mul\n      dup4\n      mstore\n      swap2\n      0x20\n      add\n      swap2\n      jump(tag_31)\n    tag_32:\n      dup3\n      add\n      swap2\n      swap1\n      0x00\n      mstore\n      keccak256(0x00, 0x20)\n      swap1\n    tag_33:\n      dup2\n      sload\n      dup2\n      mstore\n      swap1\n      0x01\n      add\n      swap1\n      0x20\n      add\n      dup1\n      dup4\n      gt\n      tag_33\n      jumpi\n      dup3\n      swap1\n      sub\n      0x1f\n      and\n      dup3\n      add\n      swap2\n    tag_31:\n      pop\n      pop\n      pop\n      pop\n      pop\n      swap1\n      dup1\n      0x04\n      add\n      dup1\n      sload\n      tag_34\n      swap1\n      tag_19\n      jump\t// in\n    tag_34:\n      dup1\n      0x1f\n      add\n      0x20\n      dup1\n      swap2\n      div\n      mul\n      0x20\n      add\n      mload(0x40)\n      swap1\n      dup2\n      add\n      0x40\n      mstore\n      dup1\n      swap3\n      swap2\n      swap1\n      dup2\n      dup2\n      mstore\n      0x20\n      add\n      dup3\n      dup1\n      sload\n      tag_35\n      swap1\n      tag_19\n      jump\t// in\n    tag_35:\n      dup1\n      iszero\n      tag_36\n      jumpi\n      dup1\n      0x1f\n      lt\n      tag_37\n      jumpi\n      0x0100\n      dup1\n      dup4\n      sload\n      div\n      mul\n      dup4\n      mstore\n      swap2\n      0x20\n      add\n      swap2\n      jump(tag_36)\n    tag_37:\n      dup3\n      add\n      swap2\n      swap1\n      0x00\n      mstore\n      keccak256(0x00, 0x20)\n      swap1\n    tag_38:\n      dup2\n      sload\n      dup2\n      mstore\n      swap1\n      0x01\n      add\n      swap1\n      0x20\n      add\n      dup1\n      dup4\n      gt\n      tag_38\n      jumpi\n      dup3\n      swap1\n      sub\n      0x1f\n      and\n      dup3\n      add\n      swap2\n    tag_36:\n      pop\n      pop\n      pop\n      pop\n      pop\n      swap1\n      dup1\n      0x05\n      add\n      dup1\n      sload\n      tag_39\n      swap1\n      tag_19\n      jump\t// in\n    tag_39:\n      dup1\n      0x1f\n      add\n      0x20\n      dup1\n      swap2\n      div\n      mul\n      0x20\n      add\n      mload(0x40)\n      swap1\n      dup2\n      add\n      0x40\n      mstore\n      dup1\n      swap3\n      swap2\n      swap1\n      dup2\n      dup2\n      mstore\n      0x20\n      add\n      dup3\n      dup1\n      sload\n      tag_40\n      swap1\n      tag_19\n      jump\t// in\n    tag_40:\n      dup1\n      iszero\n      tag_41\n      jumpi\n      dup1\n      0x1f\n      lt\n      tag_42\n      jumpi\n      0x0100\n      dup1\n      dup4\n      sload\n      div\n      mul\n      dup4\n      mstore\n      swap2\n      0x20\n      add\n      swap2\n      jump(tag_41)\n    tag_42:\n      dup3\n      add\n      swap2\n      swap1\n      0x00\n      mstore\n      keccak256(0x00, 0x20)\n      swap1\n    tag_43:\n      dup2\n      sload\n      dup2\n      mstore\n      swap1\n      0x01\n      add\n      swap1\n      0x20\n      add\n      dup1\n      dup4\n      gt\n      tag_43\n      jumpi\n      dup3\n      swap1\n      sub\n      0x1f\n      and\n      dup3\n      add\n      swap2\n    tag_41:\n      pop\n      pop\n      pop\n      pop\n      pop\n      swap1\n      dup1\n      0x06\n      add\n      dup1\n      sload\n      tag_44\n      swap1\n      tag_19\n      jump\t// in\n    tag_44:\n      dup1\n      0x1f\n      add\n      0x20\n      dup1\n      swap2\n      div\n      mul\n      0x20\n      add\n      mload(0x40)\n      swap1\n      dup2\n      add\n      0x40\n      mstore\n      dup1\n      swap3\n      swap2\n      swap1\n      dup2\n      dup2\n      mstore\n      0x20\n      add\n      dup3\n      dup1\n      sload\n      tag_45\n      swap1\n      tag_19\n      jump\t// in\n    tag_45:\n      dup1\n      iszero\n      tag_46\n      jumpi\n      dup1\n      0x1f\n      lt\n      tag_47\n      jumpi\n      0x0100\n      dup1\n      dup4\n      sload\n      div\n      mul\n      dup4\n      mstore\n      swap2\n      0x20\n      add\n      swap2\n      jump(tag_46)\n    tag_47:\n      dup3\n      add\n      swap2\n      swap1\n      0x00\n      mstore\n      keccak256(0x00, 0x20)\n      swap1\n    tag_48:\n      dup2\n      sload\n      dup2\n      mstore\n      swap1\n      0x01\n      add\n      swap1\n      0x20\n      add\n      dup1\n      dup4\n      gt\n      tag_48\n      jumpi\n      dup3\n      swap1\n      sub\n      0x1f\n      and\n      dup3\n      add\n      swap2\n    tag_46:\n      pop\n      pop\n      pop\n      pop\n      pop\n      swap1\n      dup1\n      0x07\n      add\n      sload\n      swap1\n      pop\n      dup9\n      jump\t// out\n        /* \"contracts/Profile.sol\":738:1514  function addBio(string memory firstName, string memory middleName, string memory lastName, string memory email, string memory phone, string memory profileImage, string[] memory frontend, string[] memory backend, string[] memory framework) public {\r... */\n    tag_15:\n        /* \"contracts/Profile.sol\":1027:1036  firstName */\n      dup9\n        /* \"contracts/Profile.sol\":995:1002  profile */\n      0x00\n        /* \"contracts/Profile.sol\":995:1014  profile[msg.sender] */\n      dup1\n        /* \"contracts/Profile.sol\":1003:1013  msg.sender */\n      caller\n        /* \"contracts/Profile.sol\":995:1014  profile[msg.sender] */\n      0xffffffffffffffffffffffffffffffffffffffff\n      and\n      0xffffffffffffffffffffffffffffffffffffffff\n      and\n      dup2\n      mstore\n      0x20\n      add\n      swap1\n      dup2\n      mstore\n      0x20\n      add\n      0x00\n      keccak256\n        /* \"contracts/Profile.sol\":995:1024  profile[msg.sender].firstName */\n      0x01\n      add\n        /* \"contracts/Profile.sol\":995:1036  profile[msg.sender].firstName = firstName */\n      swap1\n      dup1\n      mload\n      swap1\n      0x20\n      add\n      swap1\n      tag_50\n      swap3\n      swap2\n      swap1\n      tag_51\n      jump\t// in\n    tag_50:\n      pop\n        /* \"contracts/Profile.sol\":1080:1090  middleName */\n      dup8\n        /* \"contracts/Profile.sol\":1047:1054  profile */\n      0x00\n        /* \"contracts/Profile.sol\":1047:1066  profile[msg.sender] */\n      dup1\n        /* \"contracts/Profile.sol\":1055:1065  msg.sender */\n      caller\n        /* \"contracts/Profile.sol\":1047:1066  profile[msg.sender] */\n      0xffffffffffffffffffffffffffffffffffffffff\n      and\n      0xffffffffffffffffffffffffffffffffffffffff\n      and\n      dup2\n      mstore\n      0x20\n      add\n      swap1\n      dup2\n      mstore\n      0x20\n      add\n      0x00\n      keccak256\n        /* \"contracts/Profile.sol\":1047:1077  profile[msg.sender].middleName */\n      0x02\n      add\n        /* \"contracts/Profile.sol\":1047:1090  profile[msg.sender].middleName = middleName */\n      swap1\n      dup1\n      mload\n      swap1\n      0x20\n      add\n      swap1\n      tag_52\n      swap3\n      swap2\n      swap1\n      tag_51\n      jump\t// in\n    tag_52:\n      pop\n        /* \"contracts/Profile.sol\":1132:1140  lastName */\n      dup7\n        /* \"contracts/Profile.sol\":1101:1108  profile */\n      0x00\n        /* \"contracts/Profile.sol\":1101:1120  profile[msg.sender] */\n      dup1\n        /* \"contracts/Profile.sol\":1109:1119  msg.sender */\n      caller\n        /* \"contracts/Profile.sol\":1101:1120  profile[msg.sender] */\n      0xffffffffffffffffffffffffffffffffffffffff\n      and\n      0xffffffffffffffffffffffffffffffffffffffff\n      and\n      dup2\n      mstore\n      0x20\n      add\n      swap1\n      dup2\n      mstore\n      0x20\n      add\n      0x00\n      keccak256\n        /* \"contracts/Profile.sol\":1101:1129  profile[msg.sender].lastName */\n      0x03\n      add\n        /* \"contracts/Profile.sol\":1101:1140  profile[msg.sender].lastName = lastName */\n      swap1\n      dup1\n      mload\n      swap1\n      0x20\n      add\n      swap1\n      tag_53\n      swap3\n      swap2\n      swap1\n      tag_51\n      jump\t// in\n    tag_53:\n      pop\n        /* \"contracts/Profile.sol\":1179:1184  email */\n      dup6\n        /* \"contracts/Profile.sol\":1151:1158  profile */\n      0x00\n        /* \"contracts/Profile.sol\":1151:1170  profile[msg.sender] */\n      dup1\n        /* \"contracts/Profile.sol\":1159:1169  msg.sender */\n      caller\n        /* \"contracts/Profile.sol\":1151:1170  profile[msg.sender] */\n      0xffffffffffffffffffffffffffffffffffffffff\n      and\n      0xffffffffffffffffffffffffffffffffffffffff\n      and\n      dup2\n      mstore\n      0x20\n      add\n      swap1\n      dup2\n      mstore\n      0x20\n      add\n      0x00\n      keccak256\n        /* \"contracts/Profile.sol\":1151:1176  profile[msg.sender].email */\n      0x04\n      add\n        /* \"contracts/Profile.sol\":1151:1184  profile[msg.sender].email = email */\n      swap1\n      dup1\n      mload\n      swap1\n      0x20\n      add\n      swap1\n      tag_54\n      swap3\n      swap2\n      swap1\n      tag_51\n      jump\t// in\n    tag_54:\n      pop\n        /* \"contracts/Profile.sol\":1223:1228  phone */\n      dup5\n        /* \"contracts/Profile.sol\":1195:1202  profile */\n      0x00\n        /* \"contracts/Profile.sol\":1195:1214  profile[msg.sender] */\n      dup1\n        /* \"contracts/Profile.sol\":1203:1213  msg.sender */\n      caller\n        /* \"contracts/Profile.sol\":1195:1214  profile[msg.sender] */\n      0xffffffffffffffffffffffffffffffffffffffff\n      and\n      0xffffffffffffffffffffffffffffffffffffffff\n      and\n      dup2\n      mstore\n      0x20\n      add\n      swap1\n      dup2\n      mstore\n      0x20\n      add\n      0x00\n      keccak256\n        /* \"contracts/Profile.sol\":1195:1220  profile[msg.sender].phone */\n      0x05\n      add\n        /* \"contracts/Profile.sol\":1195:1228  profile[msg.sender].phone = phone */\n      swap1\n      dup1\n      mload\n      swap1\n      0x20\n      add\n      swap1\n      tag_55\n      swap3\n      swap2\n      swap1\n      tag_51\n      jump\t// in\n    tag_55:\n      pop\n        /* \"contracts/Profile.sol\":1274:1286  profileImage */\n      dup4\n        /* \"contracts/Profile.sol\":1239:1246  profile */\n      0x00\n        /* \"contracts/Profile.sol\":1239:1258  profile[msg.sender] */\n      dup1\n        /* \"contracts/Profile.sol\":1247:1257  msg.sender */\n      caller\n        /* \"contracts/Profile.sol\":1239:1258  profile[msg.sender] */\n      0xffffffffffffffffffffffffffffffffffffffff\n      and\n      0xffffffffffffffffffffffffffffffffffffffff\n      and\n      dup2\n      mstore\n      0x20\n      add\n      swap1\n      dup2\n      mstore\n      0x20\n      add\n      0x00\n      keccak256\n        /* \"contracts/Profile.sol\":1239:1271  profile[msg.sender].profileImage */\n      0x06\n      add\n        /* \"contracts/Profile.sol\":1239:1286  profile[msg.sender].profileImage = profileImage */\n      swap1\n      dup1\n      mload\n      swap1\n      0x20\n      add\n      swap1\n      tag_56\n      swap3\n      swap2\n      swap1\n      tag_51\n      jump\t// in\n    tag_56:\n      pop\n        /* \"contracts/Profile.sol\":1331:1341  msg.sender */\n      caller\n        /* \"contracts/Profile.sol\":1297:1304  profile */\n      0x00\n        /* \"contracts/Profile.sol\":1297:1316  profile[msg.sender] */\n      dup1\n        /* \"contracts/Profile.sol\":1305:1315  msg.sender */\n      caller\n        /* \"contracts/Profile.sol\":1297:1316  profile[msg.sender] */\n      0xffffffffffffffffffffffffffffffffffffffff\n      and\n      0xffffffffffffffffffffffffffffffffffffffff\n      and\n      dup2\n      mstore\n      0x20\n      add\n      swap1\n      dup2\n      mstore\n      0x20\n      add\n      0x00\n      keccak256\n        /* \"contracts/Profile.sol\":1297:1328  profile[msg.sender].userAddress */\n      0x00\n      add\n      0x00\n        /* \"contracts/Profile.sol\":1297:1341  profile[msg.sender].userAddress = msg.sender */\n      0x0100\n      exp\n      dup2\n      sload\n      dup2\n      0xffffffffffffffffffffffffffffffffffffffff\n      mul\n      not\n      and\n      swap1\n      dup4\n      0xffffffffffffffffffffffffffffffffffffffff\n      and\n      mul\n      or\n      swap1\n      sstore\n      pop\n        /* \"contracts/Profile.sol\":1386:1401  block.timestamp */\n      timestamp\n        /* \"contracts/Profile.sol\":1353:1360  profile */\n      0x00\n        /* \"contracts/Profile.sol\":1353:1372  profile[msg.sender] */\n      dup1\n        /* \"contracts/Profile.sol\":1361:1371  msg.sender */\n      caller\n        /* \"contracts/Profile.sol\":1353:1372  profile[msg.sender] */\n      0xffffffffffffffffffffffffffffffffffffffff\n      and\n      0xffffffffffffffffffffffffffffffffffffffff\n      and\n      dup2\n      mstore\n      0x20\n      add\n      swap1\n      dup2\n      mstore\n      0x20\n      add\n      0x00\n      keccak256\n        /* \"contracts/Profile.sol\":1353:1383  profile[msg.sender].createDate */\n      0x07\n      add\n        /* \"contracts/Profile.sol\":1353:1401  profile[msg.sender].createDate = block.timestamp */\n      dup2\n      swap1\n      sstore\n      pop\n        /* \"contracts/Profile.sol\":738:1514  function addBio(string memory firstName, string memory middleName, string memory lastName, string memory email, string memory phone, string memory profileImage, string[] memory frontend, string[] memory backend, string[] memory framework) public {\r... */\n      pop\n      pop\n      pop\n      pop\n      pop\n      pop\n      pop\n      pop\n      pop\n      jump\t// out\n        /* \"contracts/Profile.sol\":2400:2474  function delProfile() public {\r... */\n    tag_17:\n        /* \"contracts/Profile.sol\":2447:2454  profile */\n      0x00\n        /* \"contracts/Profile.sol\":2447:2466  profile[msg.sender] */\n      dup1\n        /* \"contracts/Profile.sol\":2455:2465  msg.sender */\n      caller\n        /* \"contracts/Profile.sol\":2447:2466  profile[msg.sender] */\n      0xffffffffffffffffffffffffffffffffffffffff\n      and\n      0xffffffffffffffffffffffffffffffffffffffff\n      and\n      dup2\n      mstore\n      0x20\n      add\n      swap1\n      dup2\n      mstore\n      0x20\n      add\n      0x00\n      keccak256\n      0x00\n        /* \"contracts/Profile.sol\":2440:2466  delete profile[msg.sender] */\n      dup1\n      dup3\n      add\n      exp(0x0100, 0x00)\n      dup2\n      sload\n      swap1\n      0xffffffffffffffffffffffffffffffffffffffff\n      mul\n      not\n      and\n      swap1\n      sstore\n      0x01\n      dup3\n      add\n      0x00\n      tag_58\n      swap2\n      swap1\n      tag_59\n      jump\t// in\n    tag_58:\n      0x02\n      dup3\n      add\n      0x00\n      tag_60\n      swap2\n      swap1\n      tag_59\n      jump\t// in\n    tag_60:\n      0x03\n      dup3\n      add\n      0x00\n      tag_61\n      swap2\n      swap1\n      tag_59\n      jump\t// in\n    tag_61:\n      0x04\n      dup3\n      add\n      0x00\n      tag_62\n      swap2\n      swap1\n      tag_59\n      jump\t// in\n    tag_62:\n      0x05\n      dup3\n      add\n      0x00\n      tag_63\n      swap2\n      swap1\n      tag_59\n      jump\t// in\n    tag_63:\n      0x06\n      dup3\n      add\n      0x00\n      tag_64\n      swap2\n      swap1\n      tag_59\n      jump\t// in\n    tag_64:\n      0x07\n      dup3\n      add\n      0x00\n      swap1\n      sstore\n      0x08\n      dup3\n      add\n      0x00\n      tag_65\n      swap2\n      swap1\n      tag_66\n      jump\t// in\n    tag_65:\n      pop\n      pop\n        /* \"contracts/Profile.sol\":2400:2474  function delProfile() public {\r... */\n      jump\t// out\n    tag_51:\n      dup3\n      dup1\n      sload\n      tag_67\n      swap1\n      tag_19\n      jump\t// in\n    tag_67:\n      swap1\n      0x00\n      mstore\n      keccak256(0x00, 0x20)\n      swap1\n      0x1f\n      add\n      0x20\n      swap1\n      div\n      dup2\n      add\n      swap3\n      dup3\n      tag_69\n      jumpi\n      0x00\n      dup6\n      sstore\n      jump(tag_68)\n    tag_69:\n      dup3\n      0x1f\n      lt\n      tag_70\n      jumpi\n      dup1\n      mload\n      not(0xff)\n      and\n      dup4\n      dup1\n      add\n      or\n      dup6\n      sstore\n      jump(tag_68)\n    tag_70:\n      dup3\n      dup1\n      add\n      0x01\n      add\n      dup6\n      sstore\n      dup3\n      iszero\n      tag_68\n      jumpi\n      swap2\n      dup3\n      add\n    tag_71:\n      dup3\n      dup2\n      gt\n      iszero\n      tag_72\n      jumpi\n      dup3\n      mload\n      dup3\n      sstore\n      swap2\n      0x20\n      add\n      swap2\n      swap1\n      0x01\n      add\n      swap1\n      jump(tag_71)\n    tag_72:\n    tag_68:\n      pop\n      swap1\n      pop\n      tag_73\n      swap2\n      swap1\n      tag_74\n      jump\t// in\n    tag_73:\n      pop\n      swap1\n      jump\t// out\n    tag_59:\n      pop\n      dup1\n      sload\n      tag_75\n      swap1\n      tag_19\n      jump\t// in\n    tag_75:\n      0x00\n      dup3\n      sstore\n      dup1\n      0x1f\n      lt\n      tag_77\n      jumpi\n      pop\n      jump(tag_76)\n    tag_77:\n      0x1f\n      add\n      0x20\n      swap1\n      div\n      swap1\n      0x00\n      mstore\n      keccak256(0x00, 0x20)\n      swap1\n      dup2\n      add\n      swap1\n      tag_78\n      swap2\n      swap1\n      tag_74\n      jump\t// in\n    tag_78:\n    tag_76:\n      pop\n      jump\t// out\n    tag_66:\n      pop\n      dup1\n      sload\n      0x00\n      dup3\n      sstore\n      0x03\n      mul\n      swap1\n      0x00\n      mstore\n      keccak256(0x00, 0x20)\n      swap1\n      dup2\n      add\n      swap1\n      tag_80\n      swap2\n      swap1\n      tag_81\n      jump\t// in\n    tag_80:\n      pop\n      jump\t// out\n    tag_74:\n    tag_82:\n      dup1\n      dup3\n      gt\n      iszero\n      tag_83\n      jumpi\n      0x00\n      dup2\n      0x00\n      swap1\n      sstore\n      pop\n      0x01\n      add\n      jump(tag_82)\n    tag_83:\n      pop\n      swap1\n      jump\t// out\n    tag_81:\n    tag_84:\n      dup1\n      dup3\n      gt\n      iszero\n      tag_85\n      jumpi\n      0x00\n      dup1\n      dup3\n      add\n      0x00\n      tag_86\n      swap2\n      swap1\n      tag_87\n      jump\t// in\n    tag_86:\n      0x01\n      dup3\n      add\n      0x00\n      tag_88\n      swap2\n      swap1\n      tag_87\n      jump\t// in\n    tag_88:\n      0x02\n      dup3\n      add\n      0x00\n      tag_89\n      swap2\n      swap1\n      tag_87\n      jump\t// in\n    tag_89:\n      pop\n      0x03\n      add\n      jump(tag_84)\n    tag_85:\n      pop\n      swap1\n      jump\t// out\n    tag_87:\n      pop\n      dup1\n      sload\n      0x00\n      dup3\n      sstore\n      swap1\n      0x00\n      mstore\n      keccak256(0x00, 0x20)\n      swap1\n      dup2\n      add\n      swap1\n      tag_91\n      swap2\n      swap1\n      tag_92\n      jump\t// in\n    tag_91:\n      pop\n      jump\t// out\n    tag_92:\n    tag_93:\n      dup1\n      dup3\n      gt\n      iszero\n      tag_94\n      jumpi\n      0x00\n      dup2\n      dup2\n      tag_95\n      swap2\n      swap1\n      tag_59\n      jump\t// in\n    tag_95:\n      pop\n      0x01\n      add\n      jump(tag_93)\n    tag_94:\n      pop\n      swap1\n      jump\t// out\n        /* \"#utility.yul\":23:980   */\n    tag_97:\n        /* \"#utility.yul\":129:134   */\n      0x00\n        /* \"#utility.yul\":154:245   */\n      tag_99\n        /* \"#utility.yul\":170:244   */\n      tag_100\n        /* \"#utility.yul\":237:243   */\n      dup5\n        /* \"#utility.yul\":170:244   */\n      tag_101\n      jump\t// in\n    tag_100:\n        /* \"#utility.yul\":154:245   */\n      tag_102\n      jump\t// in\n    tag_99:\n        /* \"#utility.yul\":145:245   */\n      swap1\n      pop\n        /* \"#utility.yul\":265:270   */\n      dup1\n        /* \"#utility.yul\":294:300   */\n      dup4\n        /* \"#utility.yul\":287:292   */\n      dup3\n        /* \"#utility.yul\":280:301   */\n      mstore\n        /* \"#utility.yul\":328:332   */\n      0x20\n        /* \"#utility.yul\":321:326   */\n      dup3\n        /* \"#utility.yul\":317:333   */\n      add\n        /* \"#utility.yul\":310:333   */\n      swap1\n      pop\n        /* \"#utility.yul\":354:360   */\n      dup3\n        /* \"#utility.yul\":404:407   */\n      dup6\n        /* \"#utility.yul\":396:400   */\n      0x20\n        /* \"#utility.yul\":388:394   */\n      dup7\n        /* \"#utility.yul\":384:401   */\n      mul\n        /* \"#utility.yul\":379:382   */\n      dup3\n        /* \"#utility.yul\":375:402   */\n      add\n        /* \"#utility.yul\":372:408   */\n      gt\n        /* \"#utility.yul\":369:512   */\n      iszero\n      tag_103\n      jumpi\n        /* \"#utility.yul\":423:502   */\n      tag_104\n      tag_105\n      jump\t// in\n    tag_104:\n        /* \"#utility.yul\":369:512   */\n    tag_103:\n        /* \"#utility.yul\":536:537   */\n      0x00\n        /* \"#utility.yul\":521:974   */\n    tag_106:\n        /* \"#utility.yul\":546:552   */\n      dup6\n        /* \"#utility.yul\":543:544   */\n      dup2\n        /* \"#utility.yul\":540:553   */\n      lt\n        /* \"#utility.yul\":521:974   */\n      iszero\n      tag_108\n      jumpi\n        /* \"#utility.yul\":628:631   */\n      dup2\n        /* \"#utility.yul\":615:632   */\n      calldataload\n        /* \"#utility.yul\":664:682   */\n      0xffffffffffffffff\n        /* \"#utility.yul\":651:662   */\n      dup2\n        /* \"#utility.yul\":648:683   */\n      gt\n        /* \"#utility.yul\":645:767   */\n      iszero\n      tag_109\n      jumpi\n        /* \"#utility.yul\":686:765   */\n      tag_110\n      tag_111\n      jump\t// in\n    tag_110:\n        /* \"#utility.yul\":645:767   */\n    tag_109:\n        /* \"#utility.yul\":810:821   */\n      dup1\n        /* \"#utility.yul\":802:808   */\n      dup7\n        /* \"#utility.yul\":798:822   */\n      add\n        /* \"#utility.yul\":848:895   */\n      tag_112\n        /* \"#utility.yul\":891:894   */\n      dup10\n        /* \"#utility.yul\":879:889   */\n      dup3\n        /* \"#utility.yul\":848:895   */\n      tag_113\n      jump\t// in\n    tag_112:\n        /* \"#utility.yul\":843:846   */\n      dup6\n        /* \"#utility.yul\":836:896   */\n      mstore\n        /* \"#utility.yul\":925:929   */\n      0x20\n        /* \"#utility.yul\":920:923   */\n      dup6\n        /* \"#utility.yul\":916:930   */\n      add\n        /* \"#utility.yul\":909:930   */\n      swap5\n      pop\n        /* \"#utility.yul\":959:963   */\n      0x20\n        /* \"#utility.yul\":954:957   */\n      dup5\n        /* \"#utility.yul\":950:964   */\n      add\n        /* \"#utility.yul\":943:964   */\n      swap4\n      pop\n        /* \"#utility.yul\":581:974   */\n      pop\n      pop\n        /* \"#utility.yul\":568:569   */\n      0x01\n        /* \"#utility.yul\":565:566   */\n      dup2\n        /* \"#utility.yul\":561:570   */\n      add\n        /* \"#utility.yul\":556:570   */\n      swap1\n      pop\n        /* \"#utility.yul\":521:974   */\n      jump(tag_106)\n    tag_108:\n        /* \"#utility.yul\":525:539   */\n      pop\n        /* \"#utility.yul\":135:980   */\n      pop\n      pop\n        /* \"#utility.yul\":23:980   */\n      swap4\n      swap3\n      pop\n      pop\n      pop\n      jump\t// out\n        /* \"#utility.yul\":986:1398   */\n    tag_114:\n        /* \"#utility.yul\":1064:1069   */\n      0x00\n        /* \"#utility.yul\":1089:1155   */\n      tag_116\n        /* \"#utility.yul\":1105:1154   */\n      tag_117\n        /* \"#utility.yul\":1147:1153   */\n      dup5\n        /* \"#utility.yul\":1105:1154   */\n      tag_118\n      jump\t// in\n    tag_117:\n        /* \"#utility.yul\":1089:1155   */\n      tag_102\n      jump\t// in\n    tag_116:\n        /* \"#utility.yul\":1080:1155   */\n      swap1\n      pop\n        /* \"#utility.yul\":1178:1184   */\n      dup3\n        /* \"#utility.yul\":1171:1176   */\n      dup2\n        /* \"#utility.yul\":1164:1185   */\n      mstore\n        /* \"#utility.yul\":1216:1220   */\n      0x20\n        /* \"#utility.yul\":1209:1214   */\n      dup2\n        /* \"#utility.yul\":1205:1221   */\n      add\n        /* \"#utility.yul\":1254:1257   */\n      dup5\n        /* \"#utility.yul\":1245:1251   */\n      dup5\n        /* \"#utility.yul\":1240:1243   */\n      dup5\n        /* \"#utility.yul\":1236:1252   */\n      add\n        /* \"#utility.yul\":1233:1258   */\n      gt\n        /* \"#utility.yul\":1230:1342   */\n      iszero\n      tag_119\n      jumpi\n        /* \"#utility.yul\":1261:1340   */\n      tag_120\n      tag_121\n      jump\t// in\n    tag_120:\n        /* \"#utility.yul\":1230:1342   */\n    tag_119:\n        /* \"#utility.yul\":1351:1392   */\n      tag_122\n        /* \"#utility.yul\":1385:1391   */\n      dup5\n        /* \"#utility.yul\":1380:1383   */\n      dup3\n        /* \"#utility.yul\":1375:1378   */\n      dup6\n        /* \"#utility.yul\":1351:1392   */\n      tag_123\n      jump\t// in\n    tag_122:\n        /* \"#utility.yul\":1070:1398   */\n      pop\n        /* \"#utility.yul\":986:1398   */\n      swap4\n      swap3\n      pop\n      pop\n      pop\n      jump\t// out\n        /* \"#utility.yul\":1404:1543   */\n    tag_124:\n        /* \"#utility.yul\":1450:1455   */\n      0x00\n        /* \"#utility.yul\":1488:1494   */\n      dup2\n        /* \"#utility.yul\":1475:1495   */\n      calldataload\n        /* \"#utility.yul\":1466:1495   */\n      swap1\n      pop\n        /* \"#utility.yul\":1504:1537   */\n      tag_126\n        /* \"#utility.yul\":1531:1536   */\n      dup2\n        /* \"#utility.yul\":1504:1537   */\n      tag_127\n      jump\t// in\n    tag_126:\n        /* \"#utility.yul\":1404:1543   */\n      swap3\n      swap2\n      pop\n      pop\n      jump\t// out\n        /* \"#utility.yul\":1565:1955   */\n    tag_128:\n        /* \"#utility.yul\":1646:1651   */\n      0x00\n        /* \"#utility.yul\":1695:1698   */\n      dup3\n        /* \"#utility.yul\":1688:1692   */\n      0x1f\n        /* \"#utility.yul\":1680:1686   */\n      dup4\n        /* \"#utility.yul\":1676:1693   */\n      add\n        /* \"#utility.yul\":1672:1699   */\n      slt\n        /* \"#utility.yul\":1662:1784   */\n      tag_130\n      jumpi\n        /* \"#utility.yul\":1703:1782   */\n      tag_131\n      tag_111\n      jump\t// in\n    tag_131:\n        /* \"#utility.yul\":1662:1784   */\n    tag_130:\n        /* \"#utility.yul\":1820:1826   */\n      dup2\n        /* \"#utility.yul\":1807:1827   */\n      calldataload\n        /* \"#utility.yul\":1845:1949   */\n      tag_132\n        /* \"#utility.yul\":1945:1948   */\n      dup5\n        /* \"#utility.yul\":1937:1943   */\n      dup3\n        /* \"#utility.yul\":1930:1934   */\n      0x20\n        /* \"#utility.yul\":1922:1928   */\n      dup7\n        /* \"#utility.yul\":1918:1935   */\n      add\n        /* \"#utility.yul\":1845:1949   */\n      tag_97\n      jump\t// in\n    tag_132:\n        /* \"#utility.yul\":1836:1949   */\n      swap2\n      pop\n        /* \"#utility.yul\":1652:1955   */\n      pop\n        /* \"#utility.yul\":1565:1955   */\n      swap3\n      swap2\n      pop\n      pop\n      jump\t// out\n        /* \"#utility.yul\":1975:2315   */\n    tag_113:\n        /* \"#utility.yul\":2031:2036   */\n      0x00\n        /* \"#utility.yul\":2080:2083   */\n      dup3\n        /* \"#utility.yul\":2073:2077   */\n      0x1f\n        /* \"#utility.yul\":2065:2071   */\n      dup4\n        /* \"#utility.yul\":2061:2078   */\n      add\n        /* \"#utility.yul\":2057:2084   */\n      slt\n        /* \"#utility.yul\":2047:2169   */\n      tag_134\n      jumpi\n        /* \"#utility.yul\":2088:2167   */\n      tag_135\n      tag_111\n      jump\t// in\n    tag_135:\n        /* \"#utility.yul\":2047:2169   */\n    tag_134:\n        /* \"#utility.yul\":2205:2211   */\n      dup2\n        /* \"#utility.yul\":2192:2212   */\n      calldataload\n        /* \"#utility.yul\":2230:2309   */\n      tag_136\n        /* \"#utility.yul\":2305:2308   */\n      dup5\n        /* \"#utility.yul\":2297:2303   */\n      dup3\n        /* \"#utility.yul\":2290:2294   */\n      0x20\n        /* \"#utility.yul\":2282:2288   */\n      dup7\n        /* \"#utility.yul\":2278:2295   */\n      add\n        /* \"#utility.yul\":2230:2309   */\n      tag_114\n      jump\t// in\n    tag_136:\n        /* \"#utility.yul\":2221:2309   */\n      swap2\n      pop\n        /* \"#utility.yul\":2037:2315   */\n      pop\n        /* \"#utility.yul\":1975:2315   */\n      swap3\n      swap2\n      pop\n      pop\n      jump\t// out\n        /* \"#utility.yul\":2321:2650   */\n    tag_8:\n        /* \"#utility.yul\":2380:2386   */\n      0x00\n        /* \"#utility.yul\":2429:2431   */\n      0x20\n        /* \"#utility.yul\":2417:2426   */\n      dup3\n        /* \"#utility.yul\":2408:2415   */\n      dup5\n        /* \"#utility.yul\":2404:2427   */\n      sub\n        /* \"#utility.yul\":2400:2432   */\n      slt\n        /* \"#utility.yul\":2397:2516   */\n      iszero\n      tag_138\n      jumpi\n        /* \"#utility.yul\":2435:2514   */\n      tag_139\n      tag_140\n      jump\t// in\n    tag_139:\n        /* \"#utility.yul\":2397:2516   */\n    tag_138:\n        /* \"#utility.yul\":2555:2556   */\n      0x00\n        /* \"#utility.yul\":2580:2633   */\n      tag_141\n        /* \"#utility.yul\":2625:2632   */\n      dup5\n        /* \"#utility.yul\":2616:2622   */\n      dup3\n        /* \"#utility.yul\":2605:2614   */\n      dup6\n        /* \"#utility.yul\":2601:2623   */\n      add\n        /* \"#utility.yul\":2580:2633   */\n      tag_124\n      jump\t// in\n    tag_141:\n        /* \"#utility.yul\":2570:2633   */\n      swap2\n      pop\n        /* \"#utility.yul\":2526:2643   */\n      pop\n        /* \"#utility.yul\":2321:2650   */\n      swap3\n      swap2\n      pop\n      pop\n      jump\t// out\n        /* \"#utility.yul\":2656:5921   */\n    tag_14:\n        /* \"#utility.yul\":2952:2958   */\n      0x00\n        /* \"#utility.yul\":2960:2966   */\n      dup1\n        /* \"#utility.yul\":2968:2974   */\n      0x00\n        /* \"#utility.yul\":2976:2982   */\n      dup1\n        /* \"#utility.yul\":2984:2990   */\n      0x00\n        /* \"#utility.yul\":2992:2998   */\n      dup1\n        /* \"#utility.yul\":3000:3006   */\n      0x00\n        /* \"#utility.yul\":3008:3014   */\n      dup1\n        /* \"#utility.yul\":3016:3022   */\n      0x00\n        /* \"#utility.yul\":3065:3068   */\n      0x0120\n        /* \"#utility.yul\":3053:3062   */\n      dup11\n        /* \"#utility.yul\":3044:3051   */\n      dup13\n        /* \"#utility.yul\":3040:3063   */\n      sub\n        /* \"#utility.yul\":3036:3069   */\n      slt\n        /* \"#utility.yul\":3033:3153   */\n      iszero\n      tag_143\n      jumpi\n        /* \"#utility.yul\":3072:3151   */\n      tag_144\n      tag_140\n      jump\t// in\n    tag_144:\n        /* \"#utility.yul\":3033:3153   */\n    tag_143:\n        /* \"#utility.yul\":3220:3221   */\n      0x00\n        /* \"#utility.yul\":3209:3218   */\n      dup11\n        /* \"#utility.yul\":3205:3222   */\n      add\n        /* \"#utility.yul\":3192:3223   */\n      calldataload\n        /* \"#utility.yul\":3250:3268   */\n      0xffffffffffffffff\n        /* \"#utility.yul\":3242:3248   */\n      dup2\n        /* \"#utility.yul\":3239:3269   */\n      gt\n        /* \"#utility.yul\":3236:3353   */\n      iszero\n      tag_145\n      jumpi\n        /* \"#utility.yul\":3272:3351   */\n      tag_146\n      tag_147\n      jump\t// in\n    tag_146:\n        /* \"#utility.yul\":3236:3353   */\n    tag_145:\n        /* \"#utility.yul\":3377:3440   */\n      tag_148\n        /* \"#utility.yul\":3432:3439   */\n      dup13\n        /* \"#utility.yul\":3423:3429   */\n      dup3\n        /* \"#utility.yul\":3412:3421   */\n      dup14\n        /* \"#utility.yul\":3408:3430   */\n      add\n        /* \"#utility.yul\":3377:3440   */\n      tag_113\n      jump\t// in\n    tag_148:\n        /* \"#utility.yul\":3367:3440   */\n      swap10\n      pop\n        /* \"#utility.yul\":3163:3450   */\n      pop\n        /* \"#utility.yul\":3517:3519   */\n      0x20\n        /* \"#utility.yul\":3506:3515   */\n      dup11\n        /* \"#utility.yul\":3502:3520   */\n      add\n        /* \"#utility.yul\":3489:3521   */\n      calldataload\n        /* \"#utility.yul\":3548:3566   */\n      0xffffffffffffffff\n        /* \"#utility.yul\":3540:3546   */\n      dup2\n        /* \"#utility.yul\":3537:3567   */\n      gt\n        /* \"#utility.yul\":3534:3651   */\n      iszero\n      tag_149\n      jumpi\n        /* \"#utility.yul\":3570:3649   */\n      tag_150\n      tag_147\n      jump\t// in\n    tag_150:\n        /* \"#utility.yul\":3534:3651   */\n    tag_149:\n        /* \"#utility.yul\":3675:3738   */\n      tag_151\n        /* \"#utility.yul\":3730:3737   */\n      dup13\n        /* \"#utility.yul\":3721:3727   */\n      dup3\n        /* \"#utility.yul\":3710:3719   */\n      dup14\n        /* \"#utility.yul\":3706:3728   */\n      add\n        /* \"#utility.yul\":3675:3738   */\n      tag_113\n      jump\t// in\n    tag_151:\n        /* \"#utility.yul\":3665:3738   */\n      swap9\n      pop\n        /* \"#utility.yul\":3460:3748   */\n      pop\n        /* \"#utility.yul\":3815:3817   */\n      0x40\n        /* \"#utility.yul\":3804:3813   */\n      dup11\n        /* \"#utility.yul\":3800:3818   */\n      add\n        /* \"#utility.yul\":3787:3819   */\n      calldataload\n        /* \"#utility.yul\":3846:3864   */\n      0xffffffffffffffff\n        /* \"#utility.yul\":3838:3844   */\n      dup2\n        /* \"#utility.yul\":3835:3865   */\n      gt\n        /* \"#utility.yul\":3832:3949   */\n      iszero\n      tag_152\n      jumpi\n        /* \"#utility.yul\":3868:3947   */\n      tag_153\n      tag_147\n      jump\t// in\n    tag_153:\n        /* \"#utility.yul\":3832:3949   */\n    tag_152:\n        /* \"#utility.yul\":3973:4036   */\n      tag_154\n        /* \"#utility.yul\":4028:4035   */\n      dup13\n        /* \"#utility.yul\":4019:4025   */\n      dup3\n        /* \"#utility.yul\":4008:4017   */\n      dup14\n        /* \"#utility.yul\":4004:4026   */\n      add\n        /* \"#utility.yul\":3973:4036   */\n      tag_113\n      jump\t// in\n    tag_154:\n        /* \"#utility.yul\":3963:4036   */\n      swap8\n      pop\n        /* \"#utility.yul\":3758:4046   */\n      pop\n        /* \"#utility.yul\":4113:4115   */\n      0x60\n        /* \"#utility.yul\":4102:4111   */\n      dup11\n        /* \"#utility.yul\":4098:4116   */\n      add\n        /* \"#utility.yul\":4085:4117   */\n      calldataload\n        /* \"#utility.yul\":4144:4162   */\n      0xffffffffffffffff\n        /* \"#utility.yul\":4136:4142   */\n      dup2\n        /* \"#utility.yul\":4133:4163   */\n      gt\n        /* \"#utility.yul\":4130:4247   */\n      iszero\n      tag_155\n      jumpi\n        /* \"#utility.yul\":4166:4245   */\n      tag_156\n      tag_147\n      jump\t// in\n    tag_156:\n        /* \"#utility.yul\":4130:4247   */\n    tag_155:\n        /* \"#utility.yul\":4271:4334   */\n      tag_157\n        /* \"#utility.yul\":4326:4333   */\n      dup13\n        /* \"#utility.yul\":4317:4323   */\n      dup3\n        /* \"#utility.yul\":4306:4315   */\n      dup14\n        /* \"#utility.yul\":4302:4324   */\n      add\n        /* \"#utility.yul\":4271:4334   */\n      tag_113\n      jump\t// in\n    tag_157:\n        /* \"#utility.yul\":4261:4334   */\n      swap7\n      pop\n        /* \"#utility.yul\":4056:4344   */\n      pop\n        /* \"#utility.yul\":4411:4414   */\n      0x80\n        /* \"#utility.yul\":4400:4409   */\n      dup11\n        /* \"#utility.yul\":4396:4415   */\n      add\n        /* \"#utility.yul\":4383:4416   */\n      calldataload\n        /* \"#utility.yul\":4443:4461   */\n      0xffffffffffffffff\n        /* \"#utility.yul\":4435:4441   */\n      dup2\n        /* \"#utility.yul\":4432:4462   */\n      gt\n        /* \"#utility.yul\":4429:4546   */\n      iszero\n      tag_158\n      jumpi\n        /* \"#utility.yul\":4465:4544   */\n      tag_159\n      tag_147\n      jump\t// in\n    tag_159:\n        /* \"#utility.yul\":4429:4546   */\n    tag_158:\n        /* \"#utility.yul\":4570:4633   */\n      tag_160\n        /* \"#utility.yul\":4625:4632   */\n      dup13\n        /* \"#utility.yul\":4616:4622   */\n      dup3\n        /* \"#utility.yul\":4605:4614   */\n      dup14\n        /* \"#utility.yul\":4601:4623   */\n      add\n        /* \"#utility.yul\":4570:4633   */\n      tag_113\n      jump\t// in\n    tag_160:\n        /* \"#utility.yul\":4560:4633   */\n      swap6\n      pop\n        /* \"#utility.yul\":4354:4643   */\n      pop\n        /* \"#utility.yul\":4710:4713   */\n      0xa0\n        /* \"#utility.yul\":4699:4708   */\n      dup11\n        /* \"#utility.yul\":4695:4714   */\n      add\n        /* \"#utility.yul\":4682:4715   */\n      calldataload\n        /* \"#utility.yul\":4742:4760   */\n      0xffffffffffffffff\n        /* \"#utility.yul\":4734:4740   */\n      dup2\n        /* \"#utility.yul\":4731:4761   */\n      gt\n        /* \"#utility.yul\":4728:4845   */\n      iszero\n      tag_161\n      jumpi\n        /* \"#utility.yul\":4764:4843   */\n      tag_162\n      tag_147\n      jump\t// in\n    tag_162:\n        /* \"#utility.yul\":4728:4845   */\n    tag_161:\n        /* \"#utility.yul\":4869:4932   */\n      tag_163\n        /* \"#utility.yul\":4924:4931   */\n      dup13\n        /* \"#utility.yul\":4915:4921   */\n      dup3\n        /* \"#utility.yul\":4904:4913   */\n      dup14\n        /* \"#utility.yul\":4900:4922   */\n      add\n        /* \"#utility.yul\":4869:4932   */\n      tag_113\n      jump\t// in\n    tag_163:\n        /* \"#utility.yul\":4859:4932   */\n      swap5\n      pop\n        /* \"#utility.yul\":4653:4942   */\n      pop\n        /* \"#utility.yul\":5009:5012   */\n      0xc0\n        /* \"#utility.yul\":4998:5007   */\n      dup11\n        /* \"#utility.yul\":4994:5013   */\n      add\n        /* \"#utility.yul\":4981:5014   */\n      calldataload\n        /* \"#utility.yul\":5041:5059   */\n      0xffffffffffffffff\n        /* \"#utility.yul\":5033:5039   */\n      dup2\n        /* \"#utility.yul\":5030:5060   */\n      gt\n        /* \"#utility.yul\":5027:5144   */\n      iszero\n      tag_164\n      jumpi\n        /* \"#utility.yul\":5063:5142   */\n      tag_165\n      tag_147\n      jump\t// in\n    tag_165:\n        /* \"#utility.yul\":5027:5144   */\n    tag_164:\n        /* \"#utility.yul\":5168:5256   */\n      tag_166\n        /* \"#utility.yul\":5248:5255   */\n      dup13\n        /* \"#utility.yul\":5239:5245   */\n      dup3\n        /* \"#utility.yul\":5228:5237   */\n      dup14\n        /* \"#utility.yul\":5224:5246   */\n      add\n        /* \"#utility.yul\":5168:5256   */\n      tag_128\n      jump\t// in\n    tag_166:\n        /* \"#utility.yul\":5158:5256   */\n      swap4\n      pop\n        /* \"#utility.yul\":4952:5266   */\n      pop\n        /* \"#utility.yul\":5333:5336   */\n      0xe0\n        /* \"#utility.yul\":5322:5331   */\n      dup11\n        /* \"#utility.yul\":5318:5337   */\n      add\n        /* \"#utility.yul\":5305:5338   */\n      calldataload\n        /* \"#utility.yul\":5365:5383   */\n      0xffffffffffffffff\n        /* \"#utility.yul\":5357:5363   */\n      dup2\n        /* \"#utility.yul\":5354:5384   */\n      gt\n        /* \"#utility.yul\":5351:5468   */\n      iszero\n      tag_167\n      jumpi\n        /* \"#utility.yul\":5387:5466   */\n      tag_168\n      tag_147\n      jump\t// in\n    tag_168:\n        /* \"#utility.yul\":5351:5468   */\n    tag_167:\n        /* \"#utility.yul\":5492:5580   */\n      tag_169\n        /* \"#utility.yul\":5572:5579   */\n      dup13\n        /* \"#utility.yul\":5563:5569   */\n      dup3\n        /* \"#utility.yul\":5552:5561   */\n      dup14\n        /* \"#utility.yul\":5548:5570   */\n      add\n        /* \"#utility.yul\":5492:5580   */\n      tag_128\n      jump\t// in\n    tag_169:\n        /* \"#utility.yul\":5482:5580   */\n      swap3\n      pop\n        /* \"#utility.yul\":5276:5590   */\n      pop\n        /* \"#utility.yul\":5657:5660   */\n      0x0100\n        /* \"#utility.yul\":5646:5655   */\n      dup11\n        /* \"#utility.yul\":5642:5661   */\n      add\n        /* \"#utility.yul\":5629:5662   */\n      calldataload\n        /* \"#utility.yul\":5689:5707   */\n      0xffffffffffffffff\n        /* \"#utility.yul\":5681:5687   */\n      dup2\n        /* \"#utility.yul\":5678:5708   */\n      gt\n        /* \"#utility.yul\":5675:5792   */\n      iszero\n      tag_170\n      jumpi\n        /* \"#utility.yul\":5711:5790   */\n      tag_171\n      tag_147\n      jump\t// in\n    tag_171:\n        /* \"#utility.yul\":5675:5792   */\n    tag_170:\n        /* \"#utility.yul\":5816:5904   */\n      tag_172\n        /* \"#utility.yul\":5896:5903   */\n      dup13\n        /* \"#utility.yul\":5887:5893   */\n      dup3\n        /* \"#utility.yul\":5876:5885   */\n      dup14\n        /* \"#utility.yul\":5872:5894   */\n      add\n        /* \"#utility.yul\":5816:5904   */\n      tag_128\n      jump\t// in\n    tag_172:\n        /* \"#utility.yul\":5806:5904   */\n      swap2\n      pop\n        /* \"#utility.yul\":5600:5914   */\n      pop\n        /* \"#utility.yul\":2656:5921   */\n      swap3\n      swap6\n      swap9\n      pop\n      swap3\n      swap6\n      swap9\n      pop\n      swap3\n      swap6\n      swap9\n      jump\t// out\n        /* \"#utility.yul\":5927:6045   */\n    tag_173:\n        /* \"#utility.yul\":6014:6038   */\n      tag_175\n        /* \"#utility.yul\":6032:6037   */\n      dup2\n        /* \"#utility.yul\":6014:6038   */\n      tag_176\n      jump\t// in\n    tag_175:\n        /* \"#utility.yul\":6009:6012   */\n      dup3\n        /* \"#utility.yul\":6002:6039   */\n      mstore\n        /* \"#utility.yul\":5927:6045   */\n      pop\n      pop\n      jump\t// out\n        /* \"#utility.yul\":6051:6415   */\n    tag_177:\n        /* \"#utility.yul\":6139:6142   */\n      0x00\n        /* \"#utility.yul\":6167:6206   */\n      tag_179\n        /* \"#utility.yul\":6200:6205   */\n      dup3\n        /* \"#utility.yul\":6167:6206   */\n      tag_180\n      jump\t// in\n    tag_179:\n        /* \"#utility.yul\":6222:6293   */\n      tag_181\n        /* \"#utility.yul\":6286:6292   */\n      dup2\n        /* \"#utility.yul\":6281:6284   */\n      dup6\n        /* \"#utility.yul\":6222:6293   */\n      tag_182\n      jump\t// in\n    tag_181:\n        /* \"#utility.yul\":6215:6293   */\n      swap4\n      pop\n        /* \"#utility.yul\":6302:6354   */\n      tag_183\n        /* \"#utility.yul\":6347:6353   */\n      dup2\n        /* \"#utility.yul\":6342:6345   */\n      dup6\n        /* \"#utility.yul\":6335:6339   */\n      0x20\n        /* \"#utility.yul\":6328:6333   */\n      dup7\n        /* \"#utility.yul\":6324:6340   */\n      add\n        /* \"#utility.yul\":6302:6354   */\n      tag_184\n      jump\t// in\n    tag_183:\n        /* \"#utility.yul\":6379:6408   */\n      tag_185\n        /* \"#utility.yul\":6401:6407   */\n      dup2\n        /* \"#utility.yul\":6379:6408   */\n      tag_186\n      jump\t// in\n    tag_185:\n        /* \"#utility.yul\":6374:6377   */\n      dup5\n        /* \"#utility.yul\":6370:6409   */\n      add\n        /* \"#utility.yul\":6363:6409   */\n      swap2\n      pop\n        /* \"#utility.yul\":6143:6415   */\n      pop\n        /* \"#utility.yul\":6051:6415   */\n      swap3\n      swap2\n      pop\n      pop\n      jump\t// out\n        /* \"#utility.yul\":6421:6539   */\n    tag_187:\n        /* \"#utility.yul\":6508:6532   */\n      tag_189\n        /* \"#utility.yul\":6526:6531   */\n      dup2\n        /* \"#utility.yul\":6508:6532   */\n      tag_190\n      jump\t// in\n    tag_189:\n        /* \"#utility.yul\":6503:6506   */\n      dup3\n        /* \"#utility.yul\":6496:6533   */\n      mstore\n        /* \"#utility.yul\":6421:6539   */\n      pop\n      pop\n      jump\t// out\n        /* \"#utility.yul\":6545:8088   */\n    tag_11:\n        /* \"#utility.yul\":6954:6958   */\n      0x00\n        /* \"#utility.yul\":6992:6995   */\n      0x0100\n        /* \"#utility.yul\":6981:6990   */\n      dup3\n        /* \"#utility.yul\":6977:6996   */\n      add\n        /* \"#utility.yul\":6969:6996   */\n      swap1\n      pop\n        /* \"#utility.yul\":7006:7077   */\n      tag_192\n        /* \"#utility.yul\":7074:7075   */\n      0x00\n        /* \"#utility.yul\":7063:7072   */\n      dup4\n        /* \"#utility.yul\":7059:7076   */\n      add\n        /* \"#utility.yul\":7050:7056   */\n      dup12\n        /* \"#utility.yul\":7006:7077   */\n      tag_173\n      jump\t// in\n    tag_192:\n        /* \"#utility.yul\":7124:7133   */\n      dup2\n        /* \"#utility.yul\":7118:7122   */\n      dup2\n        /* \"#utility.yul\":7114:7134   */\n      sub\n        /* \"#utility.yul\":7109:7111   */\n      0x20\n        /* \"#utility.yul\":7098:7107   */\n      dup4\n        /* \"#utility.yul\":7094:7112   */\n      add\n        /* \"#utility.yul\":7087:7135   */\n      mstore\n        /* \"#utility.yul\":7152:7230   */\n      tag_193\n        /* \"#utility.yul\":7225:7229   */\n      dup2\n        /* \"#utility.yul\":7216:7222   */\n      dup11\n        /* \"#utility.yul\":7152:7230   */\n      tag_177\n      jump\t// in\n    tag_193:\n        /* \"#utility.yul\":7144:7230   */\n      swap1\n      pop\n        /* \"#utility.yul\":7277:7286   */\n      dup2\n        /* \"#utility.yul\":7271:7275   */\n      dup2\n        /* \"#utility.yul\":7267:7287   */\n      sub\n        /* \"#utility.yul\":7262:7264   */\n      0x40\n        /* \"#utility.yul\":7251:7260   */\n      dup4\n        /* \"#utility.yul\":7247:7265   */\n      add\n        /* \"#utility.yul\":7240:7288   */\n      mstore\n        /* \"#utility.yul\":7305:7383   */\n      tag_194\n        /* \"#utility.yul\":7378:7382   */\n      dup2\n        /* \"#utility.yul\":7369:7375   */\n      dup10\n        /* \"#utility.yul\":7305:7383   */\n      tag_177\n      jump\t// in\n    tag_194:\n        /* \"#utility.yul\":7297:7383   */\n      swap1\n      pop\n        /* \"#utility.yul\":7430:7439   */\n      dup2\n        /* \"#utility.yul\":7424:7428   */\n      dup2\n        /* \"#utility.yul\":7420:7440   */\n      sub\n        /* \"#utility.yul\":7415:7417   */\n      0x60\n        /* \"#utility.yul\":7404:7413   */\n      dup4\n        /* \"#utility.yul\":7400:7418   */\n      add\n        /* \"#utility.yul\":7393:7441   */\n      mstore\n        /* \"#utility.yul\":7458:7536   */\n      tag_195\n        /* \"#utility.yul\":7531:7535   */\n      dup2\n        /* \"#utility.yul\":7522:7528   */\n      dup9\n        /* \"#utility.yul\":7458:7536   */\n      tag_177\n      jump\t// in\n    tag_195:\n        /* \"#utility.yul\":7450:7536   */\n      swap1\n      pop\n        /* \"#utility.yul\":7584:7593   */\n      dup2\n        /* \"#utility.yul\":7578:7582   */\n      dup2\n        /* \"#utility.yul\":7574:7594   */\n      sub\n        /* \"#utility.yul\":7568:7571   */\n      0x80\n        /* \"#utility.yul\":7557:7566   */\n      dup4\n        /* \"#utility.yul\":7553:7572   */\n      add\n        /* \"#utility.yul\":7546:7595   */\n      mstore\n        /* \"#utility.yul\":7612:7690   */\n      tag_196\n        /* \"#utility.yul\":7685:7689   */\n      dup2\n        /* \"#utility.yul\":7676:7682   */\n      dup8\n        /* \"#utility.yul\":7612:7690   */\n      tag_177\n      jump\t// in\n    tag_196:\n        /* \"#utility.yul\":7604:7690   */\n      swap1\n      pop\n        /* \"#utility.yul\":7738:7747   */\n      dup2\n        /* \"#utility.yul\":7732:7736   */\n      dup2\n        /* \"#utility.yul\":7728:7748   */\n      sub\n        /* \"#utility.yul\":7722:7725   */\n      0xa0\n        /* \"#utility.yul\":7711:7720   */\n      dup4\n        /* \"#utility.yul\":7707:7726   */\n      add\n        /* \"#utility.yul\":7700:7749   */\n      mstore\n        /* \"#utility.yul\":7766:7844   */\n      tag_197\n        /* \"#utility.yul\":7839:7843   */\n      dup2\n        /* \"#utility.yul\":7830:7836   */\n      dup7\n        /* \"#utility.yul\":7766:7844   */\n      tag_177\n      jump\t// in\n    tag_197:\n        /* \"#utility.yul\":7758:7844   */\n      swap1\n      pop\n        /* \"#utility.yul\":7892:7901   */\n      dup2\n        /* \"#utility.yul\":7886:7890   */\n      dup2\n        /* \"#utility.yul\":7882:7902   */\n      sub\n        /* \"#utility.yul\":7876:7879   */\n      0xc0\n        /* \"#utility.yul\":7865:7874   */\n      dup4\n        /* \"#utility.yul\":7861:7880   */\n      add\n        /* \"#utility.yul\":7854:7903   */\n      mstore\n        /* \"#utility.yul\":7920:7998   */\n      tag_198\n        /* \"#utility.yul\":7993:7997   */\n      dup2\n        /* \"#utility.yul\":7984:7990   */\n      dup6\n        /* \"#utility.yul\":7920:7998   */\n      tag_177\n      jump\t// in\n    tag_198:\n        /* \"#utility.yul\":7912:7998   */\n      swap1\n      pop\n        /* \"#utility.yul\":8008:8081   */\n      tag_199\n        /* \"#utility.yul\":8076:8079   */\n      0xe0\n        /* \"#utility.yul\":8065:8074   */\n      dup4\n        /* \"#utility.yul\":8061:8080   */\n      add\n        /* \"#utility.yul\":8052:8058   */\n      dup5\n        /* \"#utility.yul\":8008:8081   */\n      tag_187\n      jump\t// in\n    tag_199:\n        /* \"#utility.yul\":6545:8088   */\n      swap10\n      swap9\n      pop\n      pop\n      pop\n      pop\n      pop\n      pop\n      pop\n      pop\n      pop\n      jump\t// out\n        /* \"#utility.yul\":8094:8223   */\n    tag_102:\n        /* \"#utility.yul\":8128:8134   */\n      0x00\n        /* \"#utility.yul\":8155:8175   */\n      tag_201\n      tag_202\n      jump\t// in\n    tag_201:\n        /* \"#utility.yul\":8145:8175   */\n      swap1\n      pop\n        /* \"#utility.yul\":8184:8217   */\n      tag_203\n        /* \"#utility.yul\":8212:8216   */\n      dup3\n        /* \"#utility.yul\":8204:8210   */\n      dup3\n        /* \"#utility.yul\":8184:8217   */\n      tag_204\n      jump\t// in\n    tag_203:\n        /* \"#utility.yul\":8094:8223   */\n      swap2\n      swap1\n      pop\n      jump\t// out\n        /* \"#utility.yul\":8229:8304   */\n    tag_202:\n        /* \"#utility.yul\":8262:8268   */\n      0x00\n        /* \"#utility.yul\":8295:8297   */\n      0x40\n        /* \"#utility.yul\":8289:8298   */\n      mload\n        /* \"#utility.yul\":8279:8298   */\n      swap1\n      pop\n        /* \"#utility.yul\":8229:8304   */\n      swap1\n      jump\t// out\n        /* \"#utility.yul\":8310:8631   */\n    tag_101:\n        /* \"#utility.yul\":8397:8401   */\n      0x00\n        /* \"#utility.yul\":8487:8505   */\n      0xffffffffffffffff\n        /* \"#utility.yul\":8479:8485   */\n      dup3\n        /* \"#utility.yul\":8476:8506   */\n      gt\n        /* \"#utility.yul\":8473:8529   */\n      iszero\n      tag_207\n      jumpi\n        /* \"#utility.yul\":8509:8527   */\n      tag_208\n      tag_209\n      jump\t// in\n    tag_208:\n        /* \"#utility.yul\":8473:8529   */\n    tag_207:\n        /* \"#utility.yul\":8559:8563   */\n      0x20\n        /* \"#utility.yul\":8551:8557   */\n      dup3\n        /* \"#utility.yul\":8547:8564   */\n      mul\n        /* \"#utility.yul\":8539:8564   */\n      swap1\n      pop\n        /* \"#utility.yul\":8619:8623   */\n      0x20\n        /* \"#utility.yul\":8613:8617   */\n      dup2\n        /* \"#utility.yul\":8609:8624   */\n      add\n        /* \"#utility.yul\":8601:8624   */\n      swap1\n      pop\n        /* \"#utility.yul\":8310:8631   */\n      swap2\n      swap1\n      pop\n      jump\t// out\n        /* \"#utility.yul\":8637:8945   */\n    tag_118:\n        /* \"#utility.yul\":8699:8703   */\n      0x00\n        /* \"#utility.yul\":8789:8807   */\n      0xffffffffffffffff\n        /* \"#utility.yul\":8781:8787   */\n      dup3\n        /* \"#utility.yul\":8778:8808   */\n      gt\n        /* \"#utility.yul\":8775:8831   */\n      iszero\n      tag_211\n      jumpi\n        /* \"#utility.yul\":8811:8829   */\n      tag_212\n      tag_209\n      jump\t// in\n    tag_212:\n        /* \"#utility.yul\":8775:8831   */\n    tag_211:\n        /* \"#utility.yul\":8849:8878   */\n      tag_213\n        /* \"#utility.yul\":8871:8877   */\n      dup3\n        /* \"#utility.yul\":8849:8878   */\n      tag_186\n      jump\t// in\n    tag_213:\n        /* \"#utility.yul\":8841:8878   */\n      swap1\n      pop\n        /* \"#utility.yul\":8933:8937   */\n      0x20\n        /* \"#utility.yul\":8927:8931   */\n      dup2\n        /* \"#utility.yul\":8923:8938   */\n      add\n        /* \"#utility.yul\":8915:8938   */\n      swap1\n      pop\n        /* \"#utility.yul\":8637:8945   */\n      swap2\n      swap1\n      pop\n      jump\t// out\n        /* \"#utility.yul\":8951:9050   */\n    tag_180:\n        /* \"#utility.yul\":9003:9009   */\n      0x00\n        /* \"#utility.yul\":9037:9042   */\n      dup2\n        /* \"#utility.yul\":9031:9043   */\n      mload\n        /* \"#utility.yul\":9021:9043   */\n      swap1\n      pop\n        /* \"#utility.yul\":8951:9050   */\n      swap2\n      swap1\n      pop\n      jump\t// out\n        /* \"#utility.yul\":9056:9225   */\n    tag_182:\n        /* \"#utility.yul\":9140:9151   */\n      0x00\n        /* \"#utility.yul\":9174:9180   */\n      dup3\n        /* \"#utility.yul\":9169:9172   */\n      dup3\n        /* \"#utility.yul\":9162:9181   */\n      mstore\n        /* \"#utility.yul\":9214:9218   */\n      0x20\n        /* \"#utility.yul\":9209:9212   */\n      dup3\n        /* \"#utility.yul\":9205:9219   */\n      add\n        /* \"#utility.yul\":9190:9219   */\n      swap1\n      pop\n        /* \"#utility.yul\":9056:9225   */\n      swap3\n      swap2\n      pop\n      pop\n      jump\t// out\n        /* \"#utility.yul\":9231:9327   */\n    tag_176:\n        /* \"#utility.yul\":9268:9275   */\n      0x00\n        /* \"#utility.yul\":9297:9321   */\n      tag_217\n        /* \"#utility.yul\":9315:9320   */\n      dup3\n        /* \"#utility.yul\":9297:9321   */\n      tag_218\n      jump\t// in\n    tag_217:\n        /* \"#utility.yul\":9286:9321   */\n      swap1\n      pop\n        /* \"#utility.yul\":9231:9327   */\n      swap2\n      swap1\n      pop\n      jump\t// out\n        /* \"#utility.yul\":9333:9459   */\n    tag_218:\n        /* \"#utility.yul\":9370:9377   */\n      0x00\n        /* \"#utility.yul\":9410:9452   */\n      0xffffffffffffffffffffffffffffffffffffffff\n        /* \"#utility.yul\":9403:9408   */\n      dup3\n        /* \"#utility.yul\":9399:9453   */\n      and\n        /* \"#utility.yul\":9388:9453   */\n      swap1\n      pop\n        /* \"#utility.yul\":9333:9459   */\n      swap2\n      swap1\n      pop\n      jump\t// out\n        /* \"#utility.yul\":9465:9542   */\n    tag_190:\n        /* \"#utility.yul\":9502:9509   */\n      0x00\n        /* \"#utility.yul\":9531:9536   */\n      dup2\n        /* \"#utility.yul\":9520:9536   */\n      swap1\n      pop\n        /* \"#utility.yul\":9465:9542   */\n      swap2\n      swap1\n      pop\n      jump\t// out\n        /* \"#utility.yul\":9548:9702   */\n    tag_123:\n        /* \"#utility.yul\":9632:9638   */\n      dup3\n        /* \"#utility.yul\":9627:9630   */\n      dup2\n        /* \"#utility.yul\":9622:9625   */\n      dup4\n        /* \"#utility.yul\":9609:9639   */\n      calldatacopy\n        /* \"#utility.yul\":9694:9695   */\n      0x00\n        /* \"#utility.yul\":9685:9691   */\n      dup4\n        /* \"#utility.yul\":9680:9683   */\n      dup4\n        /* \"#utility.yul\":9676:9692   */\n      add\n        /* \"#utility.yul\":9669:9696   */\n      mstore\n        /* \"#utility.yul\":9548:9702   */\n      pop\n      pop\n      pop\n      jump\t// out\n        /* \"#utility.yul\":9708:10015   */\n    tag_184:\n        /* \"#utility.yul\":9776:9777   */\n      0x00\n        /* \"#utility.yul\":9786:9899   */\n    tag_223:\n        /* \"#utility.yul\":9800:9806   */\n      dup4\n        /* \"#utility.yul\":9797:9798   */\n      dup2\n        /* \"#utility.yul\":9794:9807   */\n      lt\n        /* \"#utility.yul\":9786:9899   */\n      iszero\n      tag_225\n      jumpi\n        /* \"#utility.yul\":9885:9886   */\n      dup1\n        /* \"#utility.yul\":9880:9883   */\n      dup3\n        /* \"#utility.yul\":9876:9887   */\n      add\n        /* \"#utility.yul\":9870:9888   */\n      mload\n        /* \"#utility.yul\":9866:9867   */\n      dup2\n        /* \"#utility.yul\":9861:9864   */\n      dup5\n        /* \"#utility.yul\":9857:9868   */\n      add\n        /* \"#utility.yul\":9850:9889   */\n      mstore\n        /* \"#utility.yul\":9822:9824   */\n      0x20\n        /* \"#utility.yul\":9819:9820   */\n      dup2\n        /* \"#utility.yul\":9815:9825   */\n      add\n        /* \"#utility.yul\":9810:9825   */\n      swap1\n      pop\n        /* \"#utility.yul\":9786:9899   */\n      jump(tag_223)\n    tag_225:\n        /* \"#utility.yul\":9917:9923   */\n      dup4\n        /* \"#utility.yul\":9914:9915   */\n      dup2\n        /* \"#utility.yul\":9911:9924   */\n      gt\n        /* \"#utility.yul\":9908:10009   */\n      iszero\n      tag_226\n      jumpi\n        /* \"#utility.yul\":9997:9998   */\n      0x00\n        /* \"#utility.yul\":9988:9994   */\n      dup5\n        /* \"#utility.yul\":9983:9986   */\n      dup5\n        /* \"#utility.yul\":9979:9995   */\n      add\n        /* \"#utility.yul\":9972:9999   */\n      mstore\n        /* \"#utility.yul\":9908:10009   */\n    tag_226:\n        /* \"#utility.yul\":9757:10015   */\n      pop\n        /* \"#utility.yul\":9708:10015   */\n      pop\n      pop\n      pop\n      jump\t// out\n        /* \"#utility.yul\":10021:10341   */\n    tag_19:\n        /* \"#utility.yul\":10065:10071   */\n      0x00\n        /* \"#utility.yul\":10102:10103   */\n      0x02\n        /* \"#utility.yul\":10096:10100   */\n      dup3\n        /* \"#utility.yul\":10092:10104   */\n      div\n        /* \"#utility.yul\":10082:10104   */\n      swap1\n      pop\n        /* \"#utility.yul\":10149:10150   */\n      0x01\n        /* \"#utility.yul\":10143:10147   */\n      dup3\n        /* \"#utility.yul\":10139:10151   */\n      and\n        /* \"#utility.yul\":10170:10188   */\n      dup1\n        /* \"#utility.yul\":10160:10241   */\n      tag_228\n      jumpi\n        /* \"#utility.yul\":10226:10230   */\n      0x7f\n        /* \"#utility.yul\":10218:10224   */\n      dup3\n        /* \"#utility.yul\":10214:10231   */\n      and\n        /* \"#utility.yul\":10204:10231   */\n      swap2\n      pop\n        /* \"#utility.yul\":10160:10241   */\n    tag_228:\n        /* \"#utility.yul\":10288:10290   */\n      0x20\n        /* \"#utility.yul\":10280:10286   */\n      dup3\n        /* \"#utility.yul\":10277:10291   */\n      lt\n        /* \"#utility.yul\":10257:10275   */\n      dup2\n        /* \"#utility.yul\":10254:10292   */\n      eq\n        /* \"#utility.yul\":10251:10335   */\n      iszero\n      tag_229\n      jumpi\n        /* \"#utility.yul\":10307:10325   */\n      tag_230\n      tag_231\n      jump\t// in\n    tag_230:\n        /* \"#utility.yul\":10251:10335   */\n    tag_229:\n        /* \"#utility.yul\":10072:10341   */\n      pop\n        /* \"#utility.yul\":10021:10341   */\n      swap2\n      swap1\n      pop\n      jump\t// out\n        /* \"#utility.yul\":10347:10628   */\n    tag_204:\n        /* \"#utility.yul\":10430:10457   */\n      tag_233\n        /* \"#utility.yul\":10452:10456   */\n      dup3\n        /* \"#utility.yul\":10430:10457   */\n      tag_186\n      jump\t// in\n    tag_233:\n        /* \"#utility.yul\":10422:10428   */\n      dup2\n        /* \"#utility.yul\":10418:10458   */\n      add\n        /* \"#utility.yul\":10560:10566   */\n      dup2\n        /* \"#utility.yul\":10548:10558   */\n      dup2\n        /* \"#utility.yul\":10545:10567   */\n      lt\n        /* \"#utility.yul\":10524:10542   */\n      0xffffffffffffffff\n        /* \"#utility.yul\":10512:10522   */\n      dup3\n        /* \"#utility.yul\":10509:10543   */\n      gt\n        /* \"#utility.yul\":10506:10568   */\n      or\n        /* \"#utility.yul\":10503:10591   */\n      iszero\n      tag_234\n      jumpi\n        /* \"#utility.yul\":10571:10589   */\n      tag_235\n      tag_209\n      jump\t// in\n    tag_235:\n        /* \"#utility.yul\":10503:10591   */\n    tag_234:\n        /* \"#utility.yul\":10611:10621   */\n      dup1\n        /* \"#utility.yul\":10607:10609   */\n      0x40\n        /* \"#utility.yul\":10600:10622   */\n      mstore\n        /* \"#utility.yul\":10390:10628   */\n      pop\n        /* \"#utility.yul\":10347:10628   */\n      pop\n      pop\n      jump\t// out\n        /* \"#utility.yul\":10634:10814   */\n    tag_231:\n        /* \"#utility.yul\":10682:10759   */\n      0x4e487b7100000000000000000000000000000000000000000000000000000000\n        /* \"#utility.yul\":10679:10680   */\n      0x00\n        /* \"#utility.yul\":10672:10760   */\n      mstore\n        /* \"#utility.yul\":10779:10783   */\n      0x22\n        /* \"#utility.yul\":10776:10777   */\n      0x04\n        /* \"#utility.yul\":10769:10784   */\n      mstore\n        /* \"#utility.yul\":10803:10807   */\n      0x24\n        /* \"#utility.yul\":10800:10801   */\n      0x00\n        /* \"#utility.yul\":10793:10808   */\n      revert\n        /* \"#utility.yul\":10820:11000   */\n    tag_209:\n        /* \"#utility.yul\":10868:10945   */\n      0x4e487b7100000000000000000000000000000000000000000000000000000000\n        /* \"#utility.yul\":10865:10866   */\n      0x00\n        /* \"#utility.yul\":10858:10946   */\n      mstore\n        /* \"#utility.yul\":10965:10969   */\n      0x41\n        /* \"#utility.yul\":10962:10963   */\n      0x04\n        /* \"#utility.yul\":10955:10970   */\n      mstore\n        /* \"#utility.yul\":10989:10993   */\n      0x24\n        /* \"#utility.yul\":10986:10987   */\n      0x00\n        /* \"#utility.yul\":10979:10994   */\n      revert\n        /* \"#utility.yul\":11006:11123   */\n    tag_111:\n        /* \"#utility.yul\":11115:11116   */\n      0x00\n        /* \"#utility.yul\":11112:11113   */\n      dup1\n        /* \"#utility.yul\":11105:11117   */\n      revert\n        /* \"#utility.yul\":11129:11246   */\n    tag_105:\n        /* \"#utility.yul\":11238:11239   */\n      0x00\n        /* \"#utility.yul\":11235:11236   */\n      dup1\n        /* \"#utility.yul\":11228:11240   */\n      revert\n        /* \"#utility.yul\":11252:11369   */\n    tag_121:\n        /* \"#utility.yul\":11361:11362   */\n      0x00\n        /* \"#utility.yul\":11358:11359   */\n      dup1\n        /* \"#utility.yul\":11351:11363   */\n      revert\n        /* \"#utility.yul\":11375:11492   */\n    tag_147:\n        /* \"#utility.yul\":11484:11485   */\n      0x00\n        /* \"#utility.yul\":11481:11482   */\n      dup1\n        /* \"#utility.yul\":11474:11486   */\n      revert\n        /* \"#utility.yul\":11498:11615   */\n    tag_140:\n        /* \"#utility.yul\":11607:11608   */\n      0x00\n        /* \"#utility.yul\":11604:11605   */\n      dup1\n        /* \"#utility.yul\":11597:11609   */\n      revert\n        /* \"#utility.yul\":11621:11723   */\n    tag_186:\n        /* \"#utility.yul\":11662:11668   */\n      0x00\n        /* \"#utility.yul\":11713:11715   */\n      0x1f\n        /* \"#utility.yul\":11709:11716   */\n      not\n        /* \"#utility.yul\":11704:11706   */\n      0x1f\n        /* \"#utility.yul\":11697:11702   */\n      dup4\n        /* \"#utility.yul\":11693:11707   */\n      add\n        /* \"#utility.yul\":11689:11717   */\n      and\n        /* \"#utility.yul\":11679:11717   */\n      swap1\n      pop\n        /* \"#utility.yul\":11621:11723   */\n      swap2\n      swap1\n      pop\n      jump\t// out\n        /* \"#utility.yul\":11729:11851   */\n    tag_127:\n        /* \"#utility.yul\":11802:11826   */\n      tag_245\n        /* \"#utility.yul\":11820:11825   */\n      dup2\n        /* \"#utility.yul\":11802:11826   */\n      tag_176\n      jump\t// in\n    tag_245:\n        /* \"#utility.yul\":11795:11800   */\n      dup2\n        /* \"#utility.yul\":11792:11827   */\n      eq\n        /* \"#utility.yul\":11782:11845   */\n      tag_246\n      jumpi\n        /* \"#utility.yul\":11841:11842   */\n      0x00\n        /* \"#utility.yul\":11838:11839   */\n      dup1\n        /* \"#utility.yul\":11831:11843   */\n      revert\n        /* \"#utility.yul\":11782:11845   */\n    tag_246:\n        /* \"#utility.yul\":11729:11851   */\n      pop\n      jump\t// out\n\n    auxdata: 0xa2646970667358221220cc76e673b96aaa74c0e4150aaeac6b8326aff5b02c12ac96109295ddd031ac7c64736f6c63430008070033\n}\n",
				"bytecode": {
					"linkReferences": {},
					"object": "608060405234801561001057600080fd5b5061100c806100206000396000f3fe608060405234801561001057600080fd5b50600436106100415760003560e01c80639dd9d0fd14610046578063ca679f1d1461007d578063fabce08f14610099575b600080fd5b610060600480360381019061005b9190610ac6565b6100a3565b604051610074989796959493929190610d10565b60405180910390f35b61009760048036038101906100929190610af3565b61043b565b005b6100a1610710565b005b60006020528060005260406000206000915090508060000160009054906101000a900473ffffffffffffffffffffffffffffffffffffffff16908060010180546100ec90610ed4565b80601f016020809104026020016040519081016040528092919081815260200182805461011890610ed4565b80156101655780601f1061013a57610100808354040283529160200191610165565b820191906000526020600020905b81548152906001019060200180831161014857829003601f168201915b50505050509080600201805461017a90610ed4565b80601f01602080910402602001604051908101604052809291908181526020018280546101a690610ed4565b80156101f35780601f106101c8576101008083540402835291602001916101f3565b820191906000526020600020905b8154815290600101906020018083116101d657829003601f168201915b50505050509080600301805461020890610ed4565b80601f016020809104026020016040519081016040528092919081815260200182805461023490610ed4565b80156102815780601f1061025657610100808354040283529160200191610281565b820191906000526020600020905b81548152906001019060200180831161026457829003601f168201915b50505050509080600401805461029690610ed4565b80601f01602080910402602001604051908101604052809291908181526020018280546102c290610ed4565b801561030f5780601f106102e45761010080835404028352916020019161030f565b820191906000526020600020905b8154815290600101906020018083116102f257829003601f168201915b50505050509080600501805461032490610ed4565b80601f016020809104026020016040519081016040528092919081815260200182805461035090610ed4565b801561039d5780601f106103725761010080835404028352916020019161039d565b820191906000526020600020905b81548152906001019060200180831161038057829003601f168201915b5050505050908060060180546103b290610ed4565b80601f01602080910402602001604051908101604052809291908181526020018280546103de90610ed4565b801561042b5780601f106104005761010080835404028352916020019161042b565b820191906000526020600020905b81548152906001019060200180831161040e57829003601f168201915b5050505050908060070154905088565b886000803373ffffffffffffffffffffffffffffffffffffffff1673ffffffffffffffffffffffffffffffffffffffff16815260200190815260200160002060010190805190602001906104909291906107f2565b50876000803373ffffffffffffffffffffffffffffffffffffffff1673ffffffffffffffffffffffffffffffffffffffff16815260200190815260200160002060020190805190602001906104e69291906107f2565b50866000803373ffffffffffffffffffffffffffffffffffffffff1673ffffffffffffffffffffffffffffffffffffffff168152602001908152602001600020600301908051906020019061053c9291906107f2565b50856000803373ffffffffffffffffffffffffffffffffffffffff1673ffffffffffffffffffffffffffffffffffffffff16815260200190815260200160002060040190805190602001906105929291906107f2565b50846000803373ffffffffffffffffffffffffffffffffffffffff1673ffffffffffffffffffffffffffffffffffffffff16815260200190815260200160002060050190805190602001906105e89291906107f2565b50836000803373ffffffffffffffffffffffffffffffffffffffff1673ffffffffffffffffffffffffffffffffffffffff168152602001908152602001600020600601908051906020019061063e9291906107f2565b50336000803373ffffffffffffffffffffffffffffffffffffffff1673ffffffffffffffffffffffffffffffffffffffff16815260200190815260200160002060000160006101000a81548173ffffffffffffffffffffffffffffffffffffffff021916908373ffffffffffffffffffffffffffffffffffffffff160217905550426000803373ffffffffffffffffffffffffffffffffffffffff1673ffffffffffffffffffffffffffffffffffffffff16815260200190815260200160002060070181905550505050505050505050565b6000803373ffffffffffffffffffffffffffffffffffffffff1673ffffffffffffffffffffffffffffffffffffffff168152602001908152602001600020600080820160006101000a81549073ffffffffffffffffffffffffffffffffffffffff02191690556001820160006107869190610878565b6002820160006107969190610878565b6003820160006107a69190610878565b6004820160006107b69190610878565b6005820160006107c69190610878565b6006820160006107d69190610878565b60078201600090556008820160006107ee91906108b8565b5050565b8280546107fe90610ed4565b90600052602060002090601f0160209004810192826108205760008555610867565b82601f1061083957805160ff1916838001178555610867565b82800160010185558215610867579182015b8281111561086657825182559160200191906001019061084b565b5b50905061087491906108dc565b5090565b50805461088490610ed4565b6000825580601f1061089657506108b5565b601f0160209004906000526020600020908101906108b491906108dc565b5b50565b50805460008255600302906000526020600020908101906108d991906108f9565b50565b5b808211156108f55760008160009055506001016108dd565b5090565b5b8082111561093c57600080820160006109139190610940565b6001820160006109239190610940565b6002820160006109339190610940565b506003016108fa565b5090565b508054600082559060005260206000209081019061095e9190610961565b50565b5b8082111561098157600081816109789190610878565b50600101610962565b5090565b600061099861099384610ddd565b610db8565b905080838252602082019050828560208602820111156109bb576109ba610f9a565b5b60005b85811015610a0957813567ffffffffffffffff8111156109e1576109e0610f95565b5b8086016109ee8982610a98565b855260208501945060208401935050506001810190506109be565b5050509392505050565b6000610a26610a2184610e09565b610db8565b905082815260208101848484011115610a4257610a41610f9f565b5b610a4d848285610e92565b509392505050565b600081359050610a6481610fbf565b92915050565b600082601f830112610a7f57610a7e610f95565b5b8135610a8f848260208601610985565b91505092915050565b600082601f830112610aad57610aac610f95565b5b8135610abd848260208601610a13565b91505092915050565b600060208284031215610adc57610adb610fa9565b5b6000610aea84828501610a55565b91505092915050565b60008060008060008060008060006101208a8c031215610b1657610b15610fa9565b5b60008a013567ffffffffffffffff811115610b3457610b33610fa4565b5b610b408c828d01610a98565b99505060208a013567ffffffffffffffff811115610b6157610b60610fa4565b5b610b6d8c828d01610a98565b98505060408a013567ffffffffffffffff811115610b8e57610b8d610fa4565b5b610b9a8c828d01610a98565b97505060608a013567ffffffffffffffff811115610bbb57610bba610fa4565b5b610bc78c828d01610a98565b96505060808a013567ffffffffffffffff811115610be857610be7610fa4565b5b610bf48c828d01610a98565b95505060a08a013567ffffffffffffffff811115610c1557610c14610fa4565b5b610c218c828d01610a98565b94505060c08a013567ffffffffffffffff811115610c4257610c41610fa4565b5b610c4e8c828d01610a6a565b93505060e08a013567ffffffffffffffff811115610c6f57610c6e610fa4565b5b610c7b8c828d01610a6a565b9250506101008a013567ffffffffffffffff811115610c9d57610c9c610fa4565b5b610ca98c828d01610a6a565b9150509295985092959850929598565b610cc281610e56565b82525050565b6000610cd382610e3a565b610cdd8185610e45565b9350610ced818560208601610ea1565b610cf681610fae565b840191505092915050565b610d0a81610e88565b82525050565b600061010082019050610d26600083018b610cb9565b8181036020830152610d38818a610cc8565b90508181036040830152610d4c8189610cc8565b90508181036060830152610d608188610cc8565b90508181036080830152610d748187610cc8565b905081810360a0830152610d888186610cc8565b905081810360c0830152610d9c8185610cc8565b9050610dab60e0830184610d01565b9998505050505050505050565b6000610dc2610dd3565b9050610dce8282610f06565b919050565b6000604051905090565b600067ffffffffffffffff821115610df857610df7610f66565b5b602082029050602081019050919050565b600067ffffffffffffffff821115610e2457610e23610f66565b5b610e2d82610fae565b9050602081019050919050565b600081519050919050565b600082825260208201905092915050565b6000610e6182610e68565b9050919050565b600073ffffffffffffffffffffffffffffffffffffffff82169050919050565b6000819050919050565b82818337600083830152505050565b60005b83811015610ebf578082015181840152602081019050610ea4565b83811115610ece576000848401525b50505050565b60006002820490506001821680610eec57607f821691505b60208210811415610f0057610eff610f37565b5b50919050565b610f0f82610fae565b810181811067ffffffffffffffff82111715610f2e57610f2d610f66565b5b80604052505050565b7f4e487b7100000000000000000000000000000000000000000000000000000000600052602260045260246000fd5b7f4e487b7100000000000000000000000000000000000000000000000000000000600052604160045260246000fd5b600080fd5b600080fd5b600080fd5b600080fd5b600080fd5b6000601f19601f8301169050919050565b610fc881610e56565b8114610fd357600080fd5b5056fea2646970667358221220cc76e673b96aaa74c0e4150aaeac6b8326aff5b02c12ac96109295ddd031ac7c64736f6c63430008070033",
					"opcodes": "PUSH1 0x80 PUSH1 0x40 MSTORE CALLVALUE DUP1 ISZERO PUSH2 0x10 JUMPI PUSH1 0x0 DUP1 REVERT JUMPDEST POP PUSH2 0x100C DUP1 PUSH2 0x20 PUSH1 0x0 CODECOPY PUSH1 0x0 RETURN INVALID PUSH1 0x80 PUSH1 0x40 MSTORE CALLVALUE DUP1 ISZERO PUSH2 0x10 JUMPI PUSH1 0x0 DUP1 REVERT JUMPDEST POP PUSH1 0x4 CALLDATASIZE LT PUSH2 0x41 JUMPI PUSH1 0x0 CALLDATALOAD PUSH1 0xE0 SHR DUP1 PUSH4 0x9DD9D0FD EQ PUSH2 0x46 JUMPI DUP1 PUSH4 0xCA679F1D EQ PUSH2 0x7D JUMPI DUP1 PUSH4 0xFABCE08F EQ PUSH2 0x99 JUMPI JUMPDEST PUSH1 0x0 DUP1 REVERT JUMPDEST PUSH2 0x60 PUSH1 0x4 DUP1 CALLDATASIZE SUB DUP2 ADD SWAP1 PUSH2 0x5B SWAP2 SWAP1 PUSH2 0xAC6 JUMP JUMPDEST PUSH2 0xA3 JUMP JUMPDEST PUSH1 0x40 MLOAD PUSH2 0x74 SWAP9 SWAP8 SWAP7 SWAP6 SWAP5 SWAP4 SWAP3 SWAP2 SWAP1 PUSH2 0xD10 JUMP JUMPDEST PUSH1 0x40 MLOAD DUP1 SWAP2 SUB SWAP1 RETURN JUMPDEST PUSH2 0x97 PUSH1 0x4 DUP1 CALLDATASIZE SUB DUP2 ADD SWAP1 PUSH2 0x92 SWAP2 SWAP1 PUSH2 0xAF3 JUMP JUMPDEST PUSH2 0x43B JUMP JUMPDEST STOP JUMPDEST PUSH2 0xA1 PUSH2 0x710 JUMP JUMPDEST STOP JUMPDEST PUSH1 0x0 PUSH1 0x20 MSTORE DUP1 PUSH1 0x0 MSTORE PUSH1 0x40 PUSH1 0x0 KECCAK256 PUSH1 0x0 SWAP2 POP SWAP1 POP DUP1 PUSH1 0x0 ADD PUSH1 0x0 SWAP1 SLOAD SWAP1 PUSH2 0x100 EXP SWAP1 DIV PUSH20 0xFFFFFFFFFFFFFFFFFFFFFFFFFFFFFFFFFFFFFFFF AND SWAP1 DUP1 PUSH1 0x1 ADD DUP1 SLOAD PUSH2 0xEC SWAP1 PUSH2 0xED4 JUMP JUMPDEST DUP1 PUSH1 0x1F ADD PUSH1 0x20 DUP1 SWAP2 DIV MUL PUSH1 0x20 ADD PUSH1 0x40 MLOAD SWAP1 DUP2 ADD PUSH1 0x40 MSTORE DUP1 SWAP3 SWAP2 SWAP1 DUP2 DUP2 MSTORE PUSH1 0x20 ADD DUP3 DUP1 SLOAD PUSH2 0x118 SWAP1 PUSH2 0xED4 JUMP JUMPDEST DUP1 ISZERO PUSH2 0x165 JUMPI DUP1 PUSH1 0x1F LT PUSH2 0x13A JUMPI PUSH2 0x100 DUP1 DUP4 SLOAD DIV MUL DUP4 MSTORE SWAP2 PUSH1 0x20 ADD SWAP2 PUSH2 0x165 JUMP JUMPDEST DUP3 ADD SWAP2 SWAP1 PUSH1 0x0 MSTORE PUSH1 0x20 PUSH1 0x0 KECCAK256 SWAP1 JUMPDEST DUP2 SLOAD DUP2 MSTORE SWAP1 PUSH1 0x1 ADD SWAP1 PUSH1 0x20 ADD DUP1 DUP4 GT PUSH2 0x148 JUMPI DUP3 SWAP1 SUB PUSH1 0x1F AND DUP3 ADD SWAP2 JUMPDEST POP POP POP POP POP SWAP1 DUP1 PUSH1 0x2 ADD DUP1 SLOAD PUSH2 0x17A SWAP1 PUSH2 0xED4 JUMP JUMPDEST DUP1 PUSH1 0x1F ADD PUSH1 0x20 DUP1 SWAP2 DIV MUL PUSH1 0x20 ADD PUSH1 0x40 MLOAD SWAP1 DUP2 ADD PUSH1 0x40 MSTORE DUP1 SWAP3 SWAP2 SWAP1 DUP2 DUP2 MSTORE PUSH1 0x20 ADD DUP3 DUP1 SLOAD PUSH2 0x1A6 SWAP1 PUSH2 0xED4 JUMP JUMPDEST DUP1 ISZERO PUSH2 0x1F3 JUMPI DUP1 PUSH1 0x1F LT PUSH2 0x1C8 JUMPI PUSH2 0x100 DUP1 DUP4 SLOAD DIV MUL DUP4 MSTORE SWAP2 PUSH1 0x20 ADD SWAP2 PUSH2 0x1F3 JUMP JUMPDEST DUP3 ADD SWAP2 SWAP1 PUSH1 0x0 MSTORE PUSH1 0x20 PUSH1 0x0 KECCAK256 SWAP1 JUMPDEST DUP2 SLOAD DUP2 MSTORE SWAP1 PUSH1 0x1 ADD SWAP1 PUSH1 0x20 ADD DUP1 DUP4 GT PUSH2 0x1D6 JUMPI DUP3 SWAP1 SUB PUSH1 0x1F AND DUP3 ADD SWAP2 JUMPDEST POP POP POP POP POP SWAP1 DUP1 PUSH1 0x3 ADD DUP1 SLOAD PUSH2 0x208 SWAP1 PUSH2 0xED4 JUMP JUMPDEST DUP1 PUSH1 0x1F ADD PUSH1 0x20 DUP1 SWAP2 DIV MUL PUSH1 0x20 ADD PUSH1 0x40 MLOAD SWAP1 DUP2 ADD PUSH1 0x40 MSTORE DUP1 SWAP3 SWAP2 SWAP1 DUP2 DUP2 MSTORE PUSH1 0x20 ADD DUP3 DUP1 SLOAD PUSH2 0x234 SWAP1 PUSH2 0xED4 JUMP JUMPDEST DUP1 ISZERO PUSH2 0x281 JUMPI DUP1 PUSH1 0x1F LT PUSH2 0x256 JUMPI PUSH2 0x100 DUP1 DUP4 SLOAD DIV MUL DUP4 MSTORE SWAP2 PUSH1 0x20 ADD SWAP2 PUSH2 0x281 JUMP JUMPDEST DUP3 ADD SWAP2 SWAP1 PUSH1 0x0 MSTORE PUSH1 0x20 PUSH1 0x0 KECCAK256 SWAP1 JUMPDEST DUP2 SLOAD DUP2 MSTORE SWAP1 PUSH1 0x1 ADD SWAP1 PUSH1 0x20 ADD DUP1 DUP4 GT PUSH2 0x264 JUMPI DUP3 SWAP1 SUB PUSH1 0x1F AND DUP3 ADD SWAP2 JUMPDEST POP POP POP POP POP SWAP1 DUP1 PUSH1 0x4 ADD DUP1 SLOAD PUSH2 0x296 SWAP1 PUSH2 0xED4 JUMP JUMPDEST DUP1 PUSH1 0x1F ADD PUSH1 0x20 DUP1 SWAP2 DIV MUL PUSH1 0x20 ADD PUSH1 0x40 MLOAD SWAP1 DUP2 ADD PUSH1 0x40 MSTORE DUP1 SWAP3 SWAP2 SWAP1 DUP2 DUP2 MSTORE PUSH1 0x20 ADD DUP3 DUP1 SLOAD PUSH2 0x2C2 SWAP1 PUSH2 0xED4 JUMP JUMPDEST DUP1 ISZERO PUSH2 0x30F JUMPI DUP1 PUSH1 0x1F LT PUSH2 0x2E4 JUMPI PUSH2 0x100 DUP1 DUP4 SLOAD DIV MUL DUP4 MSTORE SWAP2 PUSH1 0x20 ADD SWAP2 PUSH2 0x30F JUMP JUMPDEST DUP3 ADD SWAP2 SWAP1 PUSH1 0x0 MSTORE PUSH1 0x20 PUSH1 0x0 KECCAK256 SWAP1 JUMPDEST DUP2 SLOAD DUP2 MSTORE SWAP1 PUSH1 0x1 ADD SWAP1 PUSH1 0x20 ADD DUP1 DUP4 GT PUSH2 0x2F2 JUMPI DUP3 SWAP1 SUB PUSH1 0x1F AND DUP3 ADD SWAP2 JUMPDEST POP POP POP POP POP SWAP1 DUP1 PUSH1 0x5 ADD DUP1 SLOAD PUSH2 0x324 SWAP1 PUSH2 0xED4 JUMP JUMPDEST DUP1 PUSH1 0x1F ADD PUSH1 0x20 DUP1 SWAP2 DIV MUL PUSH1 0x20 ADD PUSH1 0x40 MLOAD SWAP1 DUP2 ADD PUSH1 0x40 MSTORE DUP1 SWAP3 SWAP2 SWAP1 DUP2 DUP2 MSTORE PUSH1 0x20 ADD DUP3 DUP1 SLOAD PUSH2 0x350 SWAP1 PUSH2 0xED4 JUMP JUMPDEST DUP1 ISZERO PUSH2 0x39D JUMPI DUP1 PUSH1 0x1F LT PUSH2 0x372 JUMPI PUSH2 0x100 DUP1 DUP4 SLOAD DIV MUL DUP4 MSTORE SWAP2 PUSH1 0x20 ADD SWAP2 PUSH2 0x39D JUMP JUMPDEST DUP3 ADD SWAP2 SWAP1 PUSH1 0x0 MSTORE PUSH1 0x20 PUSH1 0x0 KECCAK256 SWAP1 JUMPDEST DUP2 SLOAD DUP2 MSTORE SWAP1 PUSH1 0x1 ADD SWAP1 PUSH1 0x20 ADD DUP1 DUP4 GT PUSH2 0x380 JUMPI DUP3 SWAP1 SUB PUSH1 0x1F AND DUP3 ADD SWAP2 JUMPDEST POP POP POP POP POP SWAP1 DUP1 PUSH1 0x6 ADD DUP1 SLOAD PUSH2 0x3B2 SWAP1 PUSH2 0xED4 JUMP JUMPDEST DUP1 PUSH1 0x1F ADD PUSH1 0x20 DUP1 SWAP2 DIV MUL PUSH1 0x20 ADD PUSH1 0x40 MLOAD SWAP1 DUP2 ADD PUSH1 0x40 MSTORE DUP1 SWAP3 SWAP2 SWAP1 DUP2 DUP2 MSTORE PUSH1 0x20 ADD DUP3 DUP1 SLOAD PUSH2 0x3DE SWAP1 PUSH2 0xED4 JUMP JUMPDEST DUP1 ISZERO PUSH2 0x42B JUMPI DUP1 PUSH1 0x1F LT PUSH2 0x400 JUMPI PUSH2 0x100 DUP1 DUP4 SLOAD DIV MUL DUP4 MSTORE SWAP2 PUSH1 0x20 ADD SWAP2 PUSH2 0x42B JUMP JUMPDEST DUP3 ADD SWAP2 SWAP1 PUSH1 0x0 MSTORE PUSH1 0x20 PUSH1 0x0 KECCAK256 SWAP1 JUMPDEST DUP2 SLOAD DUP2 MSTORE SWAP1 PUSH1 0x1 ADD SWAP1 PUSH1 0x20 ADD DUP1 DUP4 GT PUSH2 0x40E JUMPI DUP3 SWAP1 SUB PUSH1 0x1F AND DUP3 ADD SWAP2 JUMPDEST POP POP POP POP POP SWAP1 DUP1 PUSH1 0x7 ADD SLOAD SWAP1 POP DUP9 JUMP JUMPDEST DUP9 PUSH1 0x0 DUP1 CALLER PUSH20 0xFFFFFFFFFFFFFFFFFFFFFFFFFFFFFFFFFFFFFFFF AND PUSH20 0xFFFFFFFFFFFFFFFFFFFFFFFFFFFFFFFFFFFFFFFF AND DUP2 MSTORE PUSH1 0x20 ADD SWAP1 DUP2 MSTORE PUSH1 0x20 ADD PUSH1 0x0 KECCAK256 PUSH1 0x1 ADD SWAP1 DUP1 MLOAD SWAP1 PUSH1 0x20 ADD SWAP1 PUSH2 0x490 SWAP3 SWAP2 SWAP1 PUSH2 0x7F2 JUMP JUMPDEST POP DUP8 PUSH1 0x0 DUP1 CALLER PUSH20 0xFFFFFFFFFFFFFFFFFFFFFFFFFFFFFFFFFFFFFFFF AND PUSH20 0xFFFFFFFFFFFFFFFFFFFFFFFFFFFFFFFFFFFFFFFF AND DUP2 MSTORE PUSH1 0x20 ADD SWAP1 DUP2 MSTORE PUSH1 0x20 ADD PUSH1 0x0 KECCAK256 PUSH1 0x2 ADD SWAP1 DUP1 MLOAD SWAP1 PUSH1 0x20 ADD SWAP1 PUSH2 0x4E6 SWAP3 SWAP2 SWAP1 PUSH2 0x7F2 JUMP JUMPDEST POP DUP7 PUSH1 0x0 DUP1 CALLER PUSH20 0xFFFFFFFFFFFFFFFFFFFFFFFFFFFFFFFFFFFFFFFF AND PUSH20 0xFFFFFFFFFFFFFFFFFFFFFFFFFFFFFFFFFFFFFFFF AND DUP2 MSTORE PUSH1 0x20 ADD SWAP1 DUP2 MSTORE PUSH1 0x20 ADD PUSH1 0x0 KECCAK256 PUSH1 0x3 ADD SWAP1 DUP1 MLOAD SWAP1 PUSH1 0x20 ADD SWAP1 PUSH2 0x53C SWAP3 SWAP2 SWAP1 PUSH2 0x7F2 JUMP JUMPDEST POP DUP6 PUSH1 0x0 DUP1 CALLER PUSH20 0xFFFFFFFFFFFFFFFFFFFFFFFFFFFFFFFFFFFFFFFF AND PUSH20 0xFFFFFFFFFFFFFFFFFFFFFFFFFFFFFFFFFFFFFFFF AND DUP2 MSTORE PUSH1 0x20 ADD SWAP1 DUP2 MSTORE PUSH1 0x20 ADD PUSH1 0x0 KECCAK256 PUSH1 0x4 ADD SWAP1 DUP1 MLOAD SWAP1 PUSH1 0x20 ADD SWAP1 PUSH2 0x592 SWAP3 SWAP2 SWAP1 PUSH2 0x7F2 JUMP JUMPDEST POP DUP5 PUSH1 0x0 DUP1 CALLER PUSH20 0xFFFFFFFFFFFFFFFFFFFFFFFFFFFFFFFFFFFFFFFF AND PUSH20 0xFFFFFFFFFFFFFFFFFFFFFFFFFFFFFFFFFFFFFFFF AND DUP2 MSTORE PUSH1 0x20 ADD SWAP1 DUP2 MSTORE PUSH1 0x20 ADD PUSH1 0x0 KECCAK256 PUSH1 0x5 ADD SWAP1 DUP1 MLOAD SWAP1 PUSH1 0x20 ADD SWAP1 PUSH2 0x5E8 SWAP3 SWAP2 SWAP1 PUSH2 0x7F2 JUMP JUMPDEST POP DUP4 PUSH1 0x0 DUP1 CALLER PUSH20 0xFFFFFFFFFFFFFFFFFFFFFFFFFFFFFFFFFFFFFFFF AND PUSH20 0xFFFFFFFFFFFFFFFFFFFFFFFFFFFFFFFFFFFFFFFF AND DUP2 MSTORE PUSH1 0x20 ADD SWAP1 DUP2 MSTORE PUSH1 0x20 ADD PUSH1 0x0 KECCAK256 PUSH1 0x6 ADD SWAP1 DUP1 MLOAD SWAP1 PUSH1 0x20 ADD SWAP1 PUSH2 0x63E SWAP3 SWAP2 SWAP1 PUSH2 0x7F2 JUMP JUMPDEST POP CALLER PUSH1 0x0 DUP1 CALLER PUSH20 0xFFFFFFFFFFFFFFFFFFFFFFFFFFFFFFFFFFFFFFFF AND PUSH20 0xFFFFFFFFFFFFFFFFFFFFFFFFFFFFFFFFFFFFFFFF AND DUP2 MSTORE PUSH1 0x20 ADD SWAP1 DUP2 MSTORE PUSH1 0x20 ADD PUSH1 0x0 KECCAK256 PUSH1 0x0 ADD PUSH1 0x0 PUSH2 0x100 EXP DUP2 SLOAD DUP2 PUSH20 0xFFFFFFFFFFFFFFFFFFFFFFFFFFFFFFFFFFFFFFFF MUL NOT AND SWAP1 DUP4 PUSH20 0xFFFFFFFFFFFFFFFFFFFFFFFFFFFFFFFFFFFFFFFF AND MUL OR SWAP1 SSTORE POP TIMESTAMP PUSH1 0x0 DUP1 CALLER PUSH20 0xFFFFFFFFFFFFFFFFFFFFFFFFFFFFFFFFFFFFFFFF AND PUSH20 0xFFFFFFFFFFFFFFFFFFFFFFFFFFFFFFFFFFFFFFFF AND DUP2 MSTORE PUSH1 0x20 ADD SWAP1 DUP2 MSTORE PUSH1 0x20 ADD PUSH1 0x0 KECCAK256 PUSH1 0x7 ADD DUP2 SWAP1 SSTORE POP POP POP POP POP POP POP POP POP POP JUMP JUMPDEST PUSH1 0x0 DUP1 CALLER PUSH20 0xFFFFFFFFFFFFFFFFFFFFFFFFFFFFFFFFFFFFFFFF AND PUSH20 0xFFFFFFFFFFFFFFFFFFFFFFFFFFFFFFFFFFFFFFFF AND DUP2 MSTORE PUSH1 0x20 ADD SWAP1 DUP2 MSTORE PUSH1 0x20 ADD PUSH1 0x0 KECCAK256 PUSH1 0x0 DUP1 DUP3 ADD PUSH1 0x0 PUSH2 0x100 EXP DUP2 SLOAD SWAP1 PUSH20 0xFFFFFFFFFFFFFFFFFFFFFFFFFFFFFFFFFFFFFFFF MUL NOT AND SWAP1 SSTORE PUSH1 0x1 DUP3 ADD PUSH1 0x0 PUSH2 0x786 SWAP2 SWAP1 PUSH2 0x878 JUMP JUMPDEST PUSH1 0x2 DUP3 ADD PUSH1 0x0 PUSH2 0x796 SWAP2 SWAP1 PUSH2 0x878 JUMP JUMPDEST PUSH1 0x3 DUP3 ADD PUSH1 0x0 PUSH2 0x7A6 SWAP2 SWAP1 PUSH2 0x878 JUMP JUMPDEST PUSH1 0x4 DUP3 ADD PUSH1 0x0 PUSH2 0x7B6 SWAP2 SWAP1 PUSH2 0x878 JUMP JUMPDEST PUSH1 0x5 DUP3 ADD PUSH1 0x0 PUSH2 0x7C6 SWAP2 SWAP1 PUSH2 0x878 JUMP JUMPDEST PUSH1 0x6 DUP3 ADD PUSH1 0x0 PUSH2 0x7D6 SWAP2 SWAP1 PUSH2 0x878 JUMP JUMPDEST PUSH1 0x7 DUP3 ADD PUSH1 0x0 SWAP1 SSTORE PUSH1 0x8 DUP3 ADD PUSH1 0x0 PUSH2 0x7EE SWAP2 SWAP1 PUSH2 0x8B8 JUMP JUMPDEST POP POP JUMP JUMPDEST DUP3 DUP1 SLOAD PUSH2 0x7FE SWAP1 PUSH2 0xED4 JUMP JUMPDEST SWAP1 PUSH1 0x0 MSTORE PUSH1 0x20 PUSH1 0x0 KECCAK256 SWAP1 PUSH1 0x1F ADD PUSH1 0x20 SWAP1 DIV DUP2 ADD SWAP3 DUP3 PUSH2 0x820 JUMPI PUSH1 0x0 DUP6 SSTORE PUSH2 0x867 JUMP JUMPDEST DUP3 PUSH1 0x1F LT PUSH2 0x839 JUMPI DUP1 MLOAD PUSH1 0xFF NOT AND DUP4 DUP1 ADD OR DUP6 SSTORE PUSH2 0x867 JUMP JUMPDEST DUP3 DUP1 ADD PUSH1 0x1 ADD DUP6 SSTORE DUP3 ISZERO PUSH2 0x867 JUMPI SWAP2 DUP3 ADD JUMPDEST DUP3 DUP2 GT ISZERO PUSH2 0x866 JUMPI DUP3 MLOAD DUP3 SSTORE SWAP2 PUSH1 0x20 ADD SWAP2 SWAP1 PUSH1 0x1 ADD SWAP1 PUSH2 0x84B JUMP JUMPDEST JUMPDEST POP SWAP1 POP PUSH2 0x874 SWAP2 SWAP1 PUSH2 0x8DC JUMP JUMPDEST POP SWAP1 JUMP JUMPDEST POP DUP1 SLOAD PUSH2 0x884 SWAP1 PUSH2 0xED4 JUMP JUMPDEST PUSH1 0x0 DUP3 SSTORE DUP1 PUSH1 0x1F LT PUSH2 0x896 JUMPI POP PUSH2 0x8B5 JUMP JUMPDEST PUSH1 0x1F ADD PUSH1 0x20 SWAP1 DIV SWAP1 PUSH1 0x0 MSTORE PUSH1 0x20 PUSH1 0x0 KECCAK256 SWAP1 DUP2 ADD SWAP1 PUSH2 0x8B4 SWAP2 SWAP1 PUSH2 0x8DC JUMP JUMPDEST JUMPDEST POP JUMP JUMPDEST POP DUP1 SLOAD PUSH1 0x0 DUP3 SSTORE PUSH1 0x3 MUL SWAP1 PUSH1 0x0 MSTORE PUSH1 0x20 PUSH1 0x0 KECCAK256 SWAP1 DUP2 ADD SWAP1 PUSH2 0x8D9 SWAP2 SWAP1 PUSH2 0x8F9 JUMP JUMPDEST POP JUMP JUMPDEST JUMPDEST DUP1 DUP3 GT ISZERO PUSH2 0x8F5 JUMPI PUSH1 0x0 DUP2 PUSH1 0x0 SWAP1 SSTORE POP PUSH1 0x1 ADD PUSH2 0x8DD JUMP JUMPDEST POP SWAP1 JUMP JUMPDEST JUMPDEST DUP1 DUP3 GT ISZERO PUSH2 0x93C JUMPI PUSH1 0x0 DUP1 DUP3 ADD PUSH1 0x0 PUSH2 0x913 SWAP2 SWAP1 PUSH2 0x940 JUMP JUMPDEST PUSH1 0x1 DUP3 ADD PUSH1 0x0 PUSH2 0x923 SWAP2 SWAP1 PUSH2 0x940 JUMP JUMPDEST PUSH1 0x2 DUP3 ADD PUSH1 0x0 PUSH2 0x933 SWAP2 SWAP1 PUSH2 0x940 JUMP JUMPDEST POP PUSH1 0x3 ADD PUSH2 0x8FA JUMP JUMPDEST POP SWAP1 JUMP JUMPDEST POP DUP1 SLOAD PUSH1 0x0 DUP3 SSTORE SWAP1 PUSH1 0x0 MSTORE PUSH1 0x20 PUSH1 0x0 KECCAK256 SWAP1 DUP2 ADD SWAP1 PUSH2 0x95E SWAP2 SWAP1 PUSH2 0x961 JUMP JUMPDEST POP JUMP JUMPDEST JUMPDEST DUP1 DUP3 GT ISZERO PUSH2 0x981 JUMPI PUSH1 0x0 DUP2 DUP2 PUSH2 0x978 SWAP2 SWAP1 PUSH2 0x878 JUMP JUMPDEST POP PUSH1 0x1 ADD PUSH2 0x962 JUMP JUMPDEST POP SWAP1 JUMP JUMPDEST PUSH1 0x0 PUSH2 0x998 PUSH2 0x993 DUP5 PUSH2 0xDDD JUMP JUMPDEST PUSH2 0xDB8 JUMP JUMPDEST SWAP1 POP DUP1 DUP4 DUP3 MSTORE PUSH1 0x20 DUP3 ADD SWAP1 POP DUP3 DUP6 PUSH1 0x20 DUP7 MUL DUP3 ADD GT ISZERO PUSH2 0x9BB JUMPI PUSH2 0x9BA PUSH2 0xF9A JUMP JUMPDEST JUMPDEST PUSH1 0x0 JUMPDEST DUP6 DUP2 LT ISZERO PUSH2 0xA09 JUMPI DUP2 CALLDATALOAD PUSH8 0xFFFFFFFFFFFFFFFF DUP2 GT ISZERO PUSH2 0x9E1 JUMPI PUSH2 0x9E0 PUSH2 0xF95 JUMP JUMPDEST JUMPDEST DUP1 DUP7 ADD PUSH2 0x9EE DUP10 DUP3 PUSH2 0xA98 JUMP JUMPDEST DUP6 MSTORE PUSH1 0x20 DUP6 ADD SWAP5 POP PUSH1 0x20 DUP5 ADD SWAP4 POP POP POP PUSH1 0x1 DUP2 ADD SWAP1 POP PUSH2 0x9BE JUMP JUMPDEST POP POP POP SWAP4 SWAP3 POP POP POP JUMP JUMPDEST PUSH1 0x0 PUSH2 0xA26 PUSH2 0xA21 DUP5 PUSH2 0xE09 JUMP JUMPDEST PUSH2 0xDB8 JUMP JUMPDEST SWAP1 POP DUP3 DUP2 MSTORE PUSH1 0x20 DUP2 ADD DUP5 DUP5 DUP5 ADD GT ISZERO PUSH2 0xA42 JUMPI PUSH2 0xA41 PUSH2 0xF9F JUMP JUMPDEST JUMPDEST PUSH2 0xA4D DUP5 DUP3 DUP6 PUSH2 0xE92 JUMP JUMPDEST POP SWAP4 SWAP3 POP POP POP JUMP JUMPDEST PUSH1 0x0 DUP2 CALLDATALOAD SWAP1 POP PUSH2 0xA64 DUP2 PUSH2 0xFBF JUMP JUMPDEST SWAP3 SWAP2 POP POP JUMP JUMPDEST PUSH1 0x0 DUP3 PUSH1 0x1F DUP4 ADD SLT PUSH2 0xA7F JUMPI PUSH2 0xA7E PUSH2 0xF95 JUMP JUMPDEST JUMPDEST DUP2 CALLDATALOAD PUSH2 0xA8F DUP5 DUP3 PUSH1 0x20 DUP7 ADD PUSH2 0x985 JUMP JUMPDEST SWAP2 POP POP SWAP3 SWAP2 POP POP JUMP JUMPDEST PUSH1 0x0 DUP3 PUSH1 0x1F DUP4 ADD SLT PUSH2 0xAAD JUMPI PUSH2 0xAAC PUSH2 0xF95 JUMP JUMPDEST JUMPDEST DUP2 CALLDATALOAD PUSH2 0xABD DUP5 DUP3 PUSH1 0x20 DUP7 ADD PUSH2 0xA13 JUMP JUMPDEST SWAP2 POP POP SWAP3 SWAP2 POP POP JUMP JUMPDEST PUSH1 0x0 PUSH1 0x20 DUP3 DUP5 SUB SLT ISZERO PUSH2 0xADC JUMPI PUSH2 0xADB PUSH2 0xFA9 JUMP JUMPDEST JUMPDEST PUSH1 0x0 PUSH2 0xAEA DUP5 DUP3 DUP6 ADD PUSH2 0xA55 JUMP JUMPDEST SWAP2 POP POP SWAP3 SWAP2 POP POP JUMP JUMPDEST PUSH1 0x0 DUP1 PUSH1 0x0 DUP1 PUSH1 0x0 DUP1 PUSH1 0x0 DUP1 PUSH1 0x0 PUSH2 0x120 DUP11 DUP13 SUB SLT ISZERO PUSH2 0xB16 JUMPI PUSH2 0xB15 PUSH2 0xFA9 JUMP JUMPDEST JUMPDEST PUSH1 0x0 DUP11 ADD CALLDATALOAD PUSH8 0xFFFFFFFFFFFFFFFF DUP2 GT ISZERO PUSH2 0xB34 JUMPI PUSH2 0xB33 PUSH2 0xFA4 JUMP JUMPDEST JUMPDEST PUSH2 0xB40 DUP13 DUP3 DUP14 ADD PUSH2 0xA98 JUMP JUMPDEST SWAP10 POP POP PUSH1 0x20 DUP11 ADD CALLDATALOAD PUSH8 0xFFFFFFFFFFFFFFFF DUP2 GT ISZERO PUSH2 0xB61 JUMPI PUSH2 0xB60 PUSH2 0xFA4 JUMP JUMPDEST JUMPDEST PUSH2 0xB6D DUP13 DUP3 DUP14 ADD PUSH2 0xA98 JUMP JUMPDEST SWAP9 POP POP PUSH1 0x40 DUP11 ADD CALLDATALOAD PUSH8 0xFFFFFFFFFFFFFFFF DUP2 GT ISZERO PUSH2 0xB8E JUMPI PUSH2 0xB8D PUSH2 0xFA4 JUMP JUMPDEST JUMPDEST PUSH2 0xB9A DUP13 DUP3 DUP14 ADD PUSH2 0xA98 JUMP JUMPDEST SWAP8 POP POP PUSH1 0x60 DUP11 ADD CALLDATALOAD PUSH8 0xFFFFFFFFFFFFFFFF DUP2 GT ISZERO PUSH2 0xBBB JUMPI PUSH2 0xBBA PUSH2 0xFA4 JUMP JUMPDEST JUMPDEST PUSH2 0xBC7 DUP13 DUP3 DUP14 ADD PUSH2 0xA98 JUMP JUMPDEST SWAP7 POP POP PUSH1 0x80 DUP11 ADD CALLDATALOAD PUSH8 0xFFFFFFFFFFFFFFFF DUP2 GT ISZERO PUSH2 0xBE8 JUMPI PUSH2 0xBE7 PUSH2 0xFA4 JUMP JUMPDEST JUMPDEST PUSH2 0xBF4 DUP13 DUP3 DUP14 ADD PUSH2 0xA98 JUMP JUMPDEST SWAP6 POP POP PUSH1 0xA0 DUP11 ADD CALLDATALOAD PUSH8 0xFFFFFFFFFFFFFFFF DUP2 GT ISZERO PUSH2 0xC15 JUMPI PUSH2 0xC14 PUSH2 0xFA4 JUMP JUMPDEST JUMPDEST PUSH2 0xC21 DUP13 DUP3 DUP14 ADD PUSH2 0xA98 JUMP JUMPDEST SWAP5 POP POP PUSH1 0xC0 DUP11 ADD CALLDATALOAD PUSH8 0xFFFFFFFFFFFFFFFF DUP2 GT ISZERO PUSH2 0xC42 JUMPI PUSH2 0xC41 PUSH2 0xFA4 JUMP JUMPDEST JUMPDEST PUSH2 0xC4E DUP13 DUP3 DUP14 ADD PUSH2 0xA6A JUMP JUMPDEST SWAP4 POP POP PUSH1 0xE0 DUP11 ADD CALLDATALOAD PUSH8 0xFFFFFFFFFFFFFFFF DUP2 GT ISZERO PUSH2 0xC6F JUMPI PUSH2 0xC6E PUSH2 0xFA4 JUMP JUMPDEST JUMPDEST PUSH2 0xC7B DUP13 DUP3 DUP14 ADD PUSH2 0xA6A JUMP JUMPDEST SWAP3 POP POP PUSH2 0x100 DUP11 ADD CALLDATALOAD PUSH8 0xFFFFFFFFFFFFFFFF DUP2 GT ISZERO PUSH2 0xC9D JUMPI PUSH2 0xC9C PUSH2 0xFA4 JUMP JUMPDEST JUMPDEST PUSH2 0xCA9 DUP13 DUP3 DUP14 ADD PUSH2 0xA6A JUMP JUMPDEST SWAP2 POP POP SWAP3 SWAP6 SWAP9 POP SWAP3 SWAP6 SWAP9 POP SWAP3 SWAP6 SWAP9 JUMP JUMPDEST PUSH2 0xCC2 DUP2 PUSH2 0xE56 JUMP JUMPDEST DUP3 MSTORE POP POP JUMP JUMPDEST PUSH1 0x0 PUSH2 0xCD3 DUP3 PUSH2 0xE3A JUMP JUMPDEST PUSH2 0xCDD DUP2 DUP6 PUSH2 0xE45 JUMP JUMPDEST SWAP4 POP PUSH2 0xCED DUP2 DUP6 PUSH1 0x20 DUP7 ADD PUSH2 0xEA1 JUMP JUMPDEST PUSH2 0xCF6 DUP2 PUSH2 0xFAE JUMP JUMPDEST DUP5 ADD SWAP2 POP POP SWAP3 SWAP2 POP POP JUMP JUMPDEST PUSH2 0xD0A DUP2 PUSH2 0xE88 JUMP JUMPDEST DUP3 MSTORE POP POP JUMP JUMPDEST PUSH1 0x0 PUSH2 0x100 DUP3 ADD SWAP1 POP PUSH2 0xD26 PUSH1 0x0 DUP4 ADD DUP12 PUSH2 0xCB9 JUMP JUMPDEST DUP2 DUP2 SUB PUSH1 0x20 DUP4 ADD MSTORE PUSH2 0xD38 DUP2 DUP11 PUSH2 0xCC8 JUMP JUMPDEST SWAP1 POP DUP2 DUP2 SUB PUSH1 0x40 DUP4 ADD MSTORE PUSH2 0xD4C DUP2 DUP10 PUSH2 0xCC8 JUMP JUMPDEST SWAP1 POP DUP2 DUP2 SUB PUSH1 0x60 DUP4 ADD MSTORE PUSH2 0xD60 DUP2 DUP9 PUSH2 0xCC8 JUMP JUMPDEST SWAP1 POP DUP2 DUP2 SUB PUSH1 0x80 DUP4 ADD MSTORE PUSH2 0xD74 DUP2 DUP8 PUSH2 0xCC8 JUMP JUMPDEST SWAP1 POP DUP2 DUP2 SUB PUSH1 0xA0 DUP4 ADD MSTORE PUSH2 0xD88 DUP2 DUP7 PUSH2 0xCC8 JUMP JUMPDEST SWAP1 POP DUP2 DUP2 SUB PUSH1 0xC0 DUP4 ADD MSTORE PUSH2 0xD9C DUP2 DUP6 PUSH2 0xCC8 JUMP JUMPDEST SWAP1 POP PUSH2 0xDAB PUSH1 0xE0 DUP4 ADD DUP5 PUSH2 0xD01 JUMP JUMPDEST SWAP10 SWAP9 POP POP POP POP POP POP POP POP POP JUMP JUMPDEST PUSH1 0x0 PUSH2 0xDC2 PUSH2 0xDD3 JUMP JUMPDEST SWAP1 POP PUSH2 0xDCE DUP3 DUP3 PUSH2 0xF06 JUMP JUMPDEST SWAP2 SWAP1 POP JUMP JUMPDEST PUSH1 0x0 PUSH1 0x40 MLOAD SWAP1 POP SWAP1 JUMP JUMPDEST PUSH1 0x0 PUSH8 0xFFFFFFFFFFFFFFFF DUP3 GT ISZERO PUSH2 0xDF8 JUMPI PUSH2 0xDF7 PUSH2 0xF66 JUMP JUMPDEST JUMPDEST PUSH1 0x20 DUP3 MUL SWAP1 POP PUSH1 0x20 DUP2 ADD SWAP1 POP SWAP2 SWAP1 POP JUMP JUMPDEST PUSH1 0x0 PUSH8 0xFFFFFFFFFFFFFFFF DUP3 GT ISZERO PUSH2 0xE24 JUMPI PUSH2 0xE23 PUSH2 0xF66 JUMP JUMPDEST JUMPDEST PUSH2 0xE2D DUP3 PUSH2 0xFAE JUMP JUMPDEST SWAP1 POP PUSH1 0x20 DUP2 ADD SWAP1 POP SWAP2 SWAP1 POP JUMP JUMPDEST PUSH1 0x0 DUP2 MLOAD SWAP1 POP SWAP2 SWAP1 POP JUMP JUMPDEST PUSH1 0x0 DUP3 DUP3 MSTORE PUSH1 0x20 DUP3 ADD SWAP1 POP SWAP3 SWAP2 POP POP JUMP JUMPDEST PUSH1 0x0 PUSH2 0xE61 DUP3 PUSH2 0xE68 JUMP JUMPDEST SWAP1 POP SWAP2 SWAP1 POP JUMP JUMPDEST PUSH1 0x0 PUSH20 0xFFFFFFFFFFFFFFFFFFFFFFFFFFFFFFFFFFFFFFFF DUP3 AND SWAP1 POP SWAP2 SWAP1 POP JUMP JUMPDEST PUSH1 0x0 DUP2 SWAP1 POP SWAP2 SWAP1 POP JUMP JUMPDEST DUP3 DUP2 DUP4 CALLDATACOPY PUSH1 0x0 DUP4 DUP4 ADD MSTORE POP POP POP JUMP JUMPDEST PUSH1 0x0 JUMPDEST DUP4 DUP2 LT ISZERO PUSH2 0xEBF JUMPI DUP1 DUP3 ADD MLOAD DUP2 DUP5 ADD MSTORE PUSH1 0x20 DUP2 ADD SWAP1 POP PUSH2 0xEA4 JUMP JUMPDEST DUP4 DUP2 GT ISZERO PUSH2 0xECE JUMPI PUSH1 0x0 DUP5 DUP5 ADD MSTORE JUMPDEST POP POP POP POP JUMP JUMPDEST PUSH1 0x0 PUSH1 0x2 DUP3 DIV SWAP1 POP PUSH1 0x1 DUP3 AND DUP1 PUSH2 0xEEC JUMPI PUSH1 0x7F DUP3 AND SWAP2 POP JUMPDEST PUSH1 0x20 DUP3 LT DUP2 EQ ISZERO PUSH2 0xF00 JUMPI PUSH2 0xEFF PUSH2 0xF37 JUMP JUMPDEST JUMPDEST POP SWAP2 SWAP1 POP JUMP JUMPDEST PUSH2 0xF0F DUP3 PUSH2 0xFAE JUMP JUMPDEST DUP2 ADD DUP2 DUP2 LT PUSH8 0xFFFFFFFFFFFFFFFF DUP3 GT OR ISZERO PUSH2 0xF2E JUMPI PUSH2 0xF2D PUSH2 0xF66 JUMP JUMPDEST JUMPDEST DUP1 PUSH1 0x40 MSTORE POP POP POP JUMP JUMPDEST PUSH32 0x4E487B7100000000000000000000000000000000000000000000000000000000 PUSH1 0x0 MSTORE PUSH1 0x22 PUSH1 0x4 MSTORE PUSH1 0x24 PUSH1 0x0 REVERT JUMPDEST PUSH32 0x4E487B7100000000000000000000000000000000000000000000000000000000 PUSH1 0x0 MSTORE PUSH1 0x41 PUSH1 0x4 MSTORE PUSH1 0x24 PUSH1 0x0 REVERT JUMPDEST PUSH1 0x0 DUP1 REVERT JUMPDEST PUSH1 0x0 DUP1 REVERT JUMPDEST PUSH1 0x0 DUP1 REVERT JUMPDEST PUSH1 0x0 DUP1 REVERT JUMPDEST PUSH1 0x0 DUP1 REVERT JUMPDEST PUSH1 0x0 PUSH1 0x1F NOT PUSH1 0x1F DUP4 ADD AND SWAP1 POP SWAP2 SWAP1 POP JUMP JUMPDEST PUSH2 0xFC8 DUP2 PUSH2 0xE56 JUMP JUMPDEST DUP2 EQ PUSH2 0xFD3 JUMPI PUSH1 0x0 DUP1 REVERT JUMPDEST POP JUMP INVALID LOG2 PUSH5 0x6970667358 0x22 SLT KECCAK256 0xCC PUSH23 0xE673B96AAA74C0E4150AAEAC6B8326AFF5B02C12AC9610 SWAP3 SWAP6 0xDD 0xD0 BALANCE 0xAC PUSH29 0x64736F6C63430008070033000000000000000000000000000000000000 "
				},
				"gasEstimates": {
					"creation": {
						"codeDepositCost": "821600",
						"executionCost": "857",
						"totalCost": "822457"
					},
					"external": {
						"addBio(string,string,string,string,string,string,string[],string[],string[])": "infinite",
						"delProfile()": "infinite",
						"profile(address)": "infinite"
					}
				},
				"methodIdentifiers": {
					"addBio(string,string,string,string,string,string,string[],string[],string[])": "ca679f1d",
					"delProfile()": "fabce08f",
					"profile(address)": "9dd9d0fd"
				}
			},
			"storageLayout": {
				"storage": [
					{
						"astId": 27,
						"contract": "contracts/Profile.sol:Profile",
						"label": "profile",
						"offset": 0,
						"slot": "0",
						"type": "t_mapping(t_address,t_struct(Bio)22_storage)"
					}
				],
				"types": {
					"t_address": {
						"encoding": "inplace",
						"label": "address",
						"numberOfBytes": "20"
					},
					"t_array(t_string_storage)dyn_storage": {
						"base": "t_string_storage",
						"encoding": "dynamic_array",
						"label": "string[]",
						"numberOfBytes": "32"
					},
					"t_array(t_struct(Skill)37_storage)dyn_storage": {
						"base": "t_struct(Skill)37_storage",
						"encoding": "dynamic_array",
						"label": "struct Profile.Skill[]",
						"numberOfBytes": "32"
					},
					"t_mapping(t_address,t_struct(Bio)22_storage)": {
						"encoding": "mapping",
						"key": "t_address",
						"label": "mapping(address => struct Profile.Bio)",
						"numberOfBytes": "32",
						"value": "t_struct(Bio)22_storage"
					},
					"t_string_storage": {
						"encoding": "bytes",
						"label": "string",
						"numberOfBytes": "32"
					},
					"t_struct(Bio)22_storage": {
						"encoding": "inplace",
						"label": "struct Profile.Bio",
						"members": [
							{
								"astId": 3,
								"contract": "contracts/Profile.sol:Profile",
								"label": "userAddress",
								"offset": 0,
								"slot": "0",
								"type": "t_address"
							},
							{
								"astId": 5,
								"contract": "contracts/Profile.sol:Profile",
								"label": "firstName",
								"offset": 0,
								"slot": "1",
								"type": "t_string_storage"
							},
							{
								"astId": 7,
								"contract": "contracts/Profile.sol:Profile",
								"label": "middleName",
								"offset": 0,
								"slot": "2",
								"type": "t_string_storage"
							},
							{
								"astId": 9,
								"contract": "contracts/Profile.sol:Profile",
								"label": "lastName",
								"offset": 0,
								"slot": "3",
								"type": "t_string_storage"
							},
							{
								"astId": 11,
								"contract": "contracts/Profile.sol:Profile",
								"label": "email",
								"offset": 0,
								"slot": "4",
								"type": "t_string_storage"
							},
							{
								"astId": 13,
								"contract": "contracts/Profile.sol:Profile",
								"label": "phone",
								"offset": 0,
								"slot": "5",
								"type": "t_string_storage"
							},
							{
								"astId": 15,
								"contract": "contracts/Profile.sol:Profile",
								"label": "profileImage",
								"offset": 0,
								"slot": "6",
								"type": "t_string_storage"
							},
							{
								"astId": 17,
								"contract": "contracts/Profile.sol:Profile",
								"label": "createDate",
								"offset": 0,
								"slot": "7",
								"type": "t_uint256"
							},
							{
								"astId": 21,
								"contract": "contracts/Profile.sol:Profile",
								"label": "skill",
								"offset": 0,
								"slot": "8",
								"type": "t_array(t_struct(Skill)37_storage)dyn_storage"
							}
						],
						"numberOfBytes": "288"
					},
					"t_struct(Skill)37_storage": {
						"encoding": "inplace",
						"label": "struct Profile.Skill",
						"members": [
							{
								"astId": 30,
								"contract": "contracts/Profile.sol:Profile",
								"label": "frontend",
								"offset": 0,
								"slot": "0",
								"type": "t_array(t_string_storage)dyn_storage"
							},
							{
								"astId": 33,
								"contract": "contracts/Profile.sol:Profile",
								"label": "backend",
								"offset": 0,
								"slot": "1",
								"type": "t_array(t_string_storage)dyn_storage"
							},
							{
								"astId": 36,
								"contract": "contracts/Profile.sol:Profile",
								"label": "framework",
								"offset": 0,
								"slot": "2",
								"type": "t_array(t_string_storage)dyn_storage"
							}
						],
						"numberOfBytes": "96"
					},
					"t_uint256": {
						"encoding": "inplace",
						"label": "uint256",
						"numberOfBytes": "32"
					}
				}
			},
			"userdoc": {
				"kind": "user",
				"methods": {},
				"version": 1
			}
		}
	}
}