{
	"contracts/Profile.sol": {
		"Profile": {
			"abi": [
				{
					"inputs": [
						{
							"internalType": "string",
							"name": "firstName",
							"type": "string"
						},
						{
							"internalType": "string",
							"name": "middleName",
							"type": "string"
						},
						{
							"internalType": "string",
							"name": "lastName",
							"type": "string"
						},
						{
							"internalType": "string",
							"name": "profileImage",
							"type": "string"
						}
					],
					"name": "addBio",
					"outputs": [],
					"stateMutability": "nonpayable",
					"type": "function"
				},
				{
					"inputs": [
						{
							"internalType": "string",
							"name": "email",
							"type": "string"
						},
						{
							"internalType": "string",
							"name": "phone",
							"type": "string"
						},
						{
							"internalType": "string",
							"name": "github",
							"type": "string"
						},
						{
							"internalType": "string",
							"name": "gitlab",
							"type": "string"
						},
						{
							"internalType": "string",
							"name": "linkin",
							"type": "string"
						}
					],
					"name": "addContract",
					"outputs": [],
					"stateMutability": "nonpayable",
					"type": "function"
				},
				{
					"inputs": [
						{
							"internalType": "string[]",
							"name": "frontend",
							"type": "string[]"
						},
						{
							"internalType": "string[]",
							"name": "backend",
							"type": "string[]"
						},
						{
							"internalType": "string[]",
							"name": "framework",
							"type": "string[]"
						}
					],
					"name": "addSkill",
					"outputs": [],
					"stateMutability": "nonpayable",
					"type": "function"
				},
				{
					"inputs": [],
					"name": "delProfile",
					"outputs": [],
					"stateMutability": "nonpayable",
					"type": "function"
				},
				{
					"inputs": [
						{
							"internalType": "address",
							"name": "",
							"type": "address"
						}
					],
					"name": "profile",
					"outputs": [
						{
							"internalType": "address",
							"name": "userAddress",
							"type": "address"
						},
						{
							"internalType": "string",
							"name": "firstName",
							"type": "string"
						},
						{
							"internalType": "string",
							"name": "middleName",
							"type": "string"
						},
						{
							"internalType": "string",
							"name": "lastName",
							"type": "string"
						},
						{
							"internalType": "string",
							"name": "profileImage",
							"type": "string"
						},
						{
							"internalType": "uint256",
							"name": "createDate",
							"type": "uint256"
						},
						{
							"components": [
								{
									"internalType": "string",
									"name": "email",
									"type": "string"
								},
								{
									"internalType": "string",
									"name": "phone",
									"type": "string"
								},
								{
									"internalType": "string",
									"name": "github",
									"type": "string"
								},
								{
									"internalType": "string",
									"name": "gitlab",
									"type": "string"
								},
								{
									"internalType": "string",
									"name": "linkin",
									"type": "string"
								}
							],
							"internalType": "struct Profile.Contract",
							"name": "privateContract",
							"type": "tuple"
						},
						{
							"components": [
								{
									"internalType": "string[]",
									"name": "frontend",
									"type": "string[]"
								},
								{
									"internalType": "string[]",
									"name": "backend",
									"type": "string[]"
								},
								{
									"internalType": "string[]",
									"name": "framework",
									"type": "string[]"
								}
							],
							"internalType": "struct Profile.Skill",
							"name": "skill",
							"type": "tuple"
						}
					],
					"stateMutability": "view",
					"type": "function"
				}
			],
			"devdoc": {
				"kind": "dev",
				"methods": {},
				"version": 1
			},
			"evm": {
				"assembly": "    /* \"contracts/Profile.sol\":60:2073  contract Profile {\r... */\n  mstore(0x40, 0x80)\n  callvalue\n  dup1\n  iszero\n  tag_1\n  jumpi\n  0x00\n  dup1\n  revert\ntag_1:\n  pop\n  dataSize(sub_0)\n  dup1\n  dataOffset(sub_0)\n  0x00\n  codecopy\n  0x00\n  return\nstop\n\nsub_0: assembly {\n        /* \"contracts/Profile.sol\":60:2073  contract Profile {\r... */\n      mstore(0x40, 0x80)\n      callvalue\n      dup1\n      iszero\n      tag_1\n      jumpi\n      0x00\n      dup1\n      revert\n    tag_1:\n      pop\n      jumpi(tag_2, lt(calldatasize, 0x04))\n      shr(0xe0, calldataload(0x00))\n      dup1\n      0x4571f125\n      eq\n      tag_3\n      jumpi\n      dup1\n      0x91f2cb9d\n      eq\n      tag_4\n      jumpi\n      dup1\n      0x9dd9d0fd\n      eq\n      tag_5\n      jumpi\n      dup1\n      0xd52246d7\n      eq\n      tag_6\n      jumpi\n      dup1\n      0xfabce08f\n      eq\n      tag_7\n      jumpi\n    tag_2:\n      0x00\n      dup1\n      revert\n        /* \"contracts/Profile.sol\":694:1158  function addBio(string memory firstName, string memory middleName, string memory lastName,  string memory profileImage) public {\r... */\n    tag_3:\n      tag_8\n      0x04\n      dup1\n      calldatasize\n      sub\n      dup2\n      add\n      swap1\n      tag_9\n      swap2\n      swap1\n      tag_10\n      jump\t// in\n    tag_9:\n      tag_11\n      jump\t// in\n    tag_8:\n      stop\n        /* \"contracts/Profile.sol\":1166:1612  function addContract(string memory email, string memory phone, string memory github, string memory gitlab, string memory linkin) public{\r... */\n    tag_4:\n      tag_12\n      0x04\n      dup1\n      calldatasize\n      sub\n      dup2\n      add\n      swap1\n      tag_13\n      swap2\n      swap1\n      tag_14\n      jump\t// in\n    tag_13:\n      tag_15\n      jump\t// in\n    tag_12:\n      stop\n        /* \"contracts/Profile.sol\":338:378  mapping (address => Bio) public  profile */\n    tag_5:\n      tag_16\n      0x04\n      dup1\n      calldatasize\n      sub\n      dup2\n      add\n      swap1\n      tag_17\n      swap2\n      swap1\n      tag_18\n      jump\t// in\n    tag_17:\n      tag_19\n      jump\t// in\n    tag_16:\n      mload(0x40)\n      tag_20\n      swap9\n      swap8\n      swap7\n      swap6\n      swap5\n      swap4\n      swap3\n      swap2\n      swap1\n      tag_21\n      jump\t// in\n    tag_20:\n      mload(0x40)\n      dup1\n      swap2\n      sub\n      swap1\n      return\n        /* \"contracts/Profile.sol\":1701:1979  function addSkill(string[] memory frontend, string[] memory backend, string[] memory framework) public{\r... */\n    tag_6:\n      tag_22\n      0x04\n      dup1\n      calldatasize\n      sub\n      dup2\n      add\n      swap1\n      tag_23\n      swap2\n      swap1\n      tag_24\n      jump\t// in\n    tag_23:\n      tag_25\n      jump\t// in\n    tag_22:\n      stop\n        /* \"contracts/Profile.sol\":1992:2066  function delProfile() public {\r... */\n    tag_7:\n      tag_26\n      tag_27\n      jump\t// in\n    tag_26:\n      stop\n        /* \"contracts/Profile.sol\":694:1158  function addBio(string memory firstName, string memory middleName, string memory lastName,  string memory profileImage) public {\r... */\n    tag_11:\n        /* \"contracts/Profile.sol\":864:873  firstName */\n      dup4\n        /* \"contracts/Profile.sol\":832:839  profile */\n      0x00\n        /* \"contracts/Profile.sol\":832:851  profile[msg.sender] */\n      dup1\n        /* \"contracts/Profile.sol\":840:850  msg.sender */\n      caller\n        /* \"contracts/Profile.sol\":832:851  profile[msg.sender] */\n      0xffffffffffffffffffffffffffffffffffffffff\n      and\n      0xffffffffffffffffffffffffffffffffffffffff\n      and\n      dup2\n      mstore\n      0x20\n      add\n      swap1\n      dup2\n      mstore\n      0x20\n      add\n      0x00\n      keccak256\n        /* \"contracts/Profile.sol\":832:861  profile[msg.sender].firstName */\n      0x01\n      add\n        /* \"contracts/Profile.sol\":832:873  profile[msg.sender].firstName = firstName */\n      swap1\n      dup1\n      mload\n      swap1\n      0x20\n      add\n      swap1\n      tag_29\n      swap3\n      swap2\n      swap1\n      tag_30\n      jump\t// in\n    tag_29:\n      pop\n        /* \"contracts/Profile.sol\":917:927  middleName */\n      dup3\n        /* \"contracts/Profile.sol\":884:891  profile */\n      0x00\n        /* \"contracts/Profile.sol\":884:903  profile[msg.sender] */\n      dup1\n        /* \"contracts/Profile.sol\":892:902  msg.sender */\n      caller\n        /* \"contracts/Profile.sol\":884:903  profile[msg.sender] */\n      0xffffffffffffffffffffffffffffffffffffffff\n      and\n      0xffffffffffffffffffffffffffffffffffffffff\n      and\n      dup2\n      mstore\n      0x20\n      add\n      swap1\n      dup2\n      mstore\n      0x20\n      add\n      0x00\n      keccak256\n        /* \"contracts/Profile.sol\":884:914  profile[msg.sender].middleName */\n      0x02\n      add\n        /* \"contracts/Profile.sol\":884:927  profile[msg.sender].middleName = middleName */\n      swap1\n      dup1\n      mload\n      swap1\n      0x20\n      add\n      swap1\n      tag_31\n      swap3\n      swap2\n      swap1\n      tag_30\n      jump\t// in\n    tag_31:\n      pop\n        /* \"contracts/Profile.sol\":969:977  lastName */\n      dup2\n        /* \"contracts/Profile.sol\":938:945  profile */\n      0x00\n        /* \"contracts/Profile.sol\":938:957  profile[msg.sender] */\n      dup1\n        /* \"contracts/Profile.sol\":946:956  msg.sender */\n      caller\n        /* \"contracts/Profile.sol\":938:957  profile[msg.sender] */\n      0xffffffffffffffffffffffffffffffffffffffff\n      and\n      0xffffffffffffffffffffffffffffffffffffffff\n      and\n      dup2\n      mstore\n      0x20\n      add\n      swap1\n      dup2\n      mstore\n      0x20\n      add\n      0x00\n      keccak256\n        /* \"contracts/Profile.sol\":938:966  profile[msg.sender].lastName */\n      0x03\n      add\n        /* \"contracts/Profile.sol\":938:977  profile[msg.sender].lastName = lastName */\n      swap1\n      dup1\n      mload\n      swap1\n      0x20\n      add\n      swap1\n      tag_32\n      swap3\n      swap2\n      swap1\n      tag_30\n      jump\t// in\n    tag_32:\n      pop\n        /* \"contracts/Profile.sol\":1023:1035  profileImage */\n      dup1\n        /* \"contracts/Profile.sol\":988:995  profile */\n      0x00\n        /* \"contracts/Profile.sol\":988:1007  profile[msg.sender] */\n      dup1\n        /* \"contracts/Profile.sol\":996:1006  msg.sender */\n      caller\n        /* \"contracts/Profile.sol\":988:1007  profile[msg.sender] */\n      0xffffffffffffffffffffffffffffffffffffffff\n      and\n      0xffffffffffffffffffffffffffffffffffffffff\n      and\n      dup2\n      mstore\n      0x20\n      add\n      swap1\n      dup2\n      mstore\n      0x20\n      add\n      0x00\n      keccak256\n        /* \"contracts/Profile.sol\":988:1020  profile[msg.sender].profileImage */\n      0x04\n      add\n        /* \"contracts/Profile.sol\":988:1035  profile[msg.sender].profileImage = profileImage */\n      swap1\n      dup1\n      mload\n      swap1\n      0x20\n      add\n      swap1\n      tag_33\n      swap3\n      swap2\n      swap1\n      tag_30\n      jump\t// in\n    tag_33:\n      pop\n        /* \"contracts/Profile.sol\":1080:1090  msg.sender */\n      caller\n        /* \"contracts/Profile.sol\":1046:1053  profile */\n      0x00\n        /* \"contracts/Profile.sol\":1046:1065  profile[msg.sender] */\n      dup1\n        /* \"contracts/Profile.sol\":1054:1064  msg.sender */\n      caller\n        /* \"contracts/Profile.sol\":1046:1065  profile[msg.sender] */\n      0xffffffffffffffffffffffffffffffffffffffff\n      and\n      0xffffffffffffffffffffffffffffffffffffffff\n      and\n      dup2\n      mstore\n      0x20\n      add\n      swap1\n      dup2\n      mstore\n      0x20\n      add\n      0x00\n      keccak256\n        /* \"contracts/Profile.sol\":1046:1077  profile[msg.sender].userAddress */\n      0x00\n      add\n      0x00\n        /* \"contracts/Profile.sol\":1046:1090  profile[msg.sender].userAddress = msg.sender */\n      0x0100\n      exp\n      dup2\n      sload\n      dup2\n      0xffffffffffffffffffffffffffffffffffffffff\n      mul\n      not\n      and\n      swap1\n      dup4\n      0xffffffffffffffffffffffffffffffffffffffff\n      and\n      mul\n      or\n      swap1\n      sstore\n      pop\n        /* \"contracts/Profile.sol\":1135:1150  block.timestamp */\n      timestamp\n        /* \"contracts/Profile.sol\":1102:1109  profile */\n      0x00\n        /* \"contracts/Profile.sol\":1102:1121  profile[msg.sender] */\n      dup1\n        /* \"contracts/Profile.sol\":1110:1120  msg.sender */\n      caller\n        /* \"contracts/Profile.sol\":1102:1121  profile[msg.sender] */\n      0xffffffffffffffffffffffffffffffffffffffff\n      and\n      0xffffffffffffffffffffffffffffffffffffffff\n      and\n      dup2\n      mstore\n      0x20\n      add\n      swap1\n      dup2\n      mstore\n      0x20\n      add\n      0x00\n      keccak256\n        /* \"contracts/Profile.sol\":1102:1132  profile[msg.sender].createDate */\n      0x05\n      add\n        /* \"contracts/Profile.sol\":1102:1150  profile[msg.sender].createDate = block.timestamp */\n      dup2\n      swap1\n      sstore\n      pop\n        /* \"contracts/Profile.sol\":694:1158  function addBio(string memory firstName, string memory middleName, string memory lastName,  string memory profileImage) public {\r... */\n      pop\n      pop\n      pop\n      pop\n      jump\t// out\n        /* \"contracts/Profile.sol\":1166:1612  function addContract(string memory email, string memory phone, string memory github, string memory gitlab, string memory linkin) public{\r... */\n    tag_15:\n        /* \"contracts/Profile.sol\":1356:1361  email */\n      dup5\n        /* \"contracts/Profile.sol\":1312:1319  profile */\n      0x00\n        /* \"contracts/Profile.sol\":1312:1331  profile[msg.sender] */\n      dup1\n        /* \"contracts/Profile.sol\":1320:1330  msg.sender */\n      caller\n        /* \"contracts/Profile.sol\":1312:1331  profile[msg.sender] */\n      0xffffffffffffffffffffffffffffffffffffffff\n      and\n      0xffffffffffffffffffffffffffffffffffffffff\n      and\n      dup2\n      mstore\n      0x20\n      add\n      swap1\n      dup2\n      mstore\n      0x20\n      add\n      0x00\n      keccak256\n        /* \"contracts/Profile.sol\":1312:1347  profile[msg.sender].privateContract */\n      0x06\n      add\n        /* \"contracts/Profile.sol\":1312:1353  profile[msg.sender].privateContract.email */\n      0x00\n      add\n        /* \"contracts/Profile.sol\":1312:1361  profile[msg.sender].privateContract.email = email */\n      swap1\n      dup1\n      mload\n      swap1\n      0x20\n      add\n      swap1\n      tag_35\n      swap3\n      swap2\n      swap1\n      tag_30\n      jump\t// in\n    tag_35:\n      pop\n        /* \"contracts/Profile.sol\":1416:1421  phone */\n      dup4\n        /* \"contracts/Profile.sol\":1372:1379  profile */\n      0x00\n        /* \"contracts/Profile.sol\":1372:1391  profile[msg.sender] */\n      dup1\n        /* \"contracts/Profile.sol\":1380:1390  msg.sender */\n      caller\n        /* \"contracts/Profile.sol\":1372:1391  profile[msg.sender] */\n      0xffffffffffffffffffffffffffffffffffffffff\n      and\n      0xffffffffffffffffffffffffffffffffffffffff\n      and\n      dup2\n      mstore\n      0x20\n      add\n      swap1\n      dup2\n      mstore\n      0x20\n      add\n      0x00\n      keccak256\n        /* \"contracts/Profile.sol\":1372:1407  profile[msg.sender].privateContract */\n      0x06\n      add\n        /* \"contracts/Profile.sol\":1372:1413  profile[msg.sender].privateContract.phone */\n      0x01\n      add\n        /* \"contracts/Profile.sol\":1372:1421  profile[msg.sender].privateContract.phone = phone */\n      swap1\n      dup1\n      mload\n      swap1\n      0x20\n      add\n      swap1\n      tag_36\n      swap3\n      swap2\n      swap1\n      tag_30\n      jump\t// in\n    tag_36:\n      pop\n        /* \"contracts/Profile.sol\":1476:1482  github */\n      dup3\n        /* \"contracts/Profile.sol\":1432:1439  profile */\n      0x00\n        /* \"contracts/Profile.sol\":1432:1451  profile[msg.sender] */\n      dup1\n        /* \"contracts/Profile.sol\":1440:1450  msg.sender */\n      caller\n        /* \"contracts/Profile.sol\":1432:1451  profile[msg.sender] */\n      0xffffffffffffffffffffffffffffffffffffffff\n      and\n      0xffffffffffffffffffffffffffffffffffffffff\n      and\n      dup2\n      mstore\n      0x20\n      add\n      swap1\n      dup2\n      mstore\n      0x20\n      add\n      0x00\n      keccak256\n        /* \"contracts/Profile.sol\":1432:1467  profile[msg.sender].privateContract */\n      0x06\n      add\n        /* \"contracts/Profile.sol\":1432:1473  profile[msg.sender].privateContract.email */\n      0x00\n      add\n        /* \"contracts/Profile.sol\":1432:1482  profile[msg.sender].privateContract.email = github */\n      swap1\n      dup1\n      mload\n      swap1\n      0x20\n      add\n      swap1\n      tag_37\n      swap3\n      swap2\n      swap1\n      tag_30\n      jump\t// in\n    tag_37:\n      pop\n        /* \"contracts/Profile.sol\":1537:1543  gitlab */\n      dup2\n        /* \"contracts/Profile.sol\":1493:1500  profile */\n      0x00\n        /* \"contracts/Profile.sol\":1493:1512  profile[msg.sender] */\n      dup1\n        /* \"contracts/Profile.sol\":1501:1511  msg.sender */\n      caller\n        /* \"contracts/Profile.sol\":1493:1512  profile[msg.sender] */\n      0xffffffffffffffffffffffffffffffffffffffff\n      and\n      0xffffffffffffffffffffffffffffffffffffffff\n      and\n      dup2\n      mstore\n      0x20\n      add\n      swap1\n      dup2\n      mstore\n      0x20\n      add\n      0x00\n      keccak256\n        /* \"contracts/Profile.sol\":1493:1528  profile[msg.sender].privateContract */\n      0x06\n      add\n        /* \"contracts/Profile.sol\":1493:1534  profile[msg.sender].privateContract.phone */\n      0x01\n      add\n        /* \"contracts/Profile.sol\":1493:1543  profile[msg.sender].privateContract.phone = gitlab */\n      swap1\n      dup1\n      mload\n      swap1\n      0x20\n      add\n      swap1\n      tag_38\n      swap3\n      swap2\n      swap1\n      tag_30\n      jump\t// in\n    tag_38:\n      pop\n        /* \"contracts/Profile.sol\":1598:1604  linkin */\n      dup1\n        /* \"contracts/Profile.sol\":1554:1561  profile */\n      0x00\n        /* \"contracts/Profile.sol\":1554:1573  profile[msg.sender] */\n      dup1\n        /* \"contracts/Profile.sol\":1562:1572  msg.sender */\n      caller\n        /* \"contracts/Profile.sol\":1554:1573  profile[msg.sender] */\n      0xffffffffffffffffffffffffffffffffffffffff\n      and\n      0xffffffffffffffffffffffffffffffffffffffff\n      and\n      dup2\n      mstore\n      0x20\n      add\n      swap1\n      dup2\n      mstore\n      0x20\n      add\n      0x00\n      keccak256\n        /* \"contracts/Profile.sol\":1554:1589  profile[msg.sender].privateContract */\n      0x06\n      add\n        /* \"contracts/Profile.sol\":1554:1595  profile[msg.sender].privateContract.email */\n      0x00\n      add\n        /* \"contracts/Profile.sol\":1554:1604  profile[msg.sender].privateContract.email = linkin */\n      swap1\n      dup1\n      mload\n      swap1\n      0x20\n      add\n      swap1\n      tag_39\n      swap3\n      swap2\n      swap1\n      tag_30\n      jump\t// in\n    tag_39:\n      pop\n        /* \"contracts/Profile.sol\":1166:1612  function addContract(string memory email, string memory phone, string memory github, string memory gitlab, string memory linkin) public{\r... */\n      pop\n      pop\n      pop\n      pop\n      pop\n      jump\t// out\n        /* \"contracts/Profile.sol\":338:378  mapping (address => Bio) public  profile */\n    tag_19:\n      mstore(0x20, 0x00)\n      dup1\n      0x00\n      mstore\n      keccak256(0x00, 0x40)\n      0x00\n      swap2\n      pop\n      swap1\n      pop\n      dup1\n      0x00\n      add\n      0x00\n      swap1\n      sload\n      swap1\n      0x0100\n      exp\n      swap1\n      div\n      0xffffffffffffffffffffffffffffffffffffffff\n      and\n      swap1\n      dup1\n      0x01\n      add\n      dup1\n      sload\n      tag_40\n      swap1\n      tag_41\n      jump\t// in\n    tag_40:\n      dup1\n      0x1f\n      add\n      0x20\n      dup1\n      swap2\n      div\n      mul\n      0x20\n      add\n      mload(0x40)\n      swap1\n      dup2\n      add\n      0x40\n      mstore\n      dup1\n      swap3\n      swap2\n      swap1\n      dup2\n      dup2\n      mstore\n      0x20\n      add\n      dup3\n      dup1\n      sload\n      tag_42\n      swap1\n      tag_41\n      jump\t// in\n    tag_42:\n      dup1\n      iszero\n      tag_43\n      jumpi\n      dup1\n      0x1f\n      lt\n      tag_44\n      jumpi\n      0x0100\n      dup1\n      dup4\n      sload\n      div\n      mul\n      dup4\n      mstore\n      swap2\n      0x20\n      add\n      swap2\n      jump(tag_43)\n    tag_44:\n      dup3\n      add\n      swap2\n      swap1\n      0x00\n      mstore\n      keccak256(0x00, 0x20)\n      swap1\n    tag_45:\n      dup2\n      sload\n      dup2\n      mstore\n      swap1\n      0x01\n      add\n      swap1\n      0x20\n      add\n      dup1\n      dup4\n      gt\n      tag_45\n      jumpi\n      dup3\n      swap1\n      sub\n      0x1f\n      and\n      dup3\n      add\n      swap2\n    tag_43:\n      pop\n      pop\n      pop\n      pop\n      pop\n      swap1\n      dup1\n      0x02\n      add\n      dup1\n      sload\n      tag_46\n      swap1\n      tag_41\n      jump\t// in\n    tag_46:\n      dup1\n      0x1f\n      add\n      0x20\n      dup1\n      swap2\n      div\n      mul\n      0x20\n      add\n      mload(0x40)\n      swap1\n      dup2\n      add\n      0x40\n      mstore\n      dup1\n      swap3\n      swap2\n      swap1\n      dup2\n      dup2\n      mstore\n      0x20\n      add\n      dup3\n      dup1\n      sload\n      tag_47\n      swap1\n      tag_41\n      jump\t// in\n    tag_47:\n      dup1\n      iszero\n      tag_48\n      jumpi\n      dup1\n      0x1f\n      lt\n      tag_49\n      jumpi\n      0x0100\n      dup1\n      dup4\n      sload\n      div\n      mul\n      dup4\n      mstore\n      swap2\n      0x20\n      add\n      swap2\n      jump(tag_48)\n    tag_49:\n      dup3\n      add\n      swap2\n      swap1\n      0x00\n      mstore\n      keccak256(0x00, 0x20)\n      swap1\n    tag_50:\n      dup2\n      sload\n      dup2\n      mstore\n      swap1\n      0x01\n      add\n      swap1\n      0x20\n      add\n      dup1\n      dup4\n      gt\n      tag_50\n      jumpi\n      dup3\n      swap1\n      sub\n      0x1f\n      and\n      dup3\n      add\n      swap2\n    tag_48:\n      pop\n      pop\n      pop\n      pop\n      pop\n      swap1\n      dup1\n      0x03\n      add\n      dup1\n      sload\n      tag_51\n      swap1\n      tag_41\n      jump\t// in\n    tag_51:\n      dup1\n      0x1f\n      add\n      0x20\n      dup1\n      swap2\n      div\n      mul\n      0x20\n      add\n      mload(0x40)\n      swap1\n      dup2\n      add\n      0x40\n      mstore\n      dup1\n      swap3\n      swap2\n      swap1\n      dup2\n      dup2\n      mstore\n      0x20\n      add\n      dup3\n      dup1\n      sload\n      tag_52\n      swap1\n      tag_41\n      jump\t// in\n    tag_52:\n      dup1\n      iszero\n      tag_53\n      jumpi\n      dup1\n      0x1f\n      lt\n      tag_54\n      jumpi\n      0x0100\n      dup1\n      dup4\n      sload\n      div\n      mul\n      dup4\n      mstore\n      swap2\n      0x20\n      add\n      swap2\n      jump(tag_53)\n    tag_54:\n      dup3\n      add\n      swap2\n      swap1\n      0x00\n      mstore\n      keccak256(0x00, 0x20)\n      swap1\n    tag_55:\n      dup2\n      sload\n      dup2\n      mstore\n      swap1\n      0x01\n      add\n      swap1\n      0x20\n      add\n      dup1\n      dup4\n      gt\n      tag_55\n      jumpi\n      dup3\n      swap1\n      sub\n      0x1f\n      and\n      dup3\n      add\n      swap2\n    tag_53:\n      pop\n      pop\n      pop\n      pop\n      pop\n      swap1\n      dup1\n      0x04\n      add\n      dup1\n      sload\n      tag_56\n      swap1\n      tag_41\n      jump\t// in\n    tag_56:\n      dup1\n      0x1f\n      add\n      0x20\n      dup1\n      swap2\n      div\n      mul\n      0x20\n      add\n      mload(0x40)\n      swap1\n      dup2\n      add\n      0x40\n      mstore\n      dup1\n      swap3\n      swap2\n      swap1\n      dup2\n      dup2\n      mstore\n      0x20\n      add\n      dup3\n      dup1\n      sload\n      tag_57\n      swap1\n      tag_41\n      jump\t// in\n    tag_57:\n      dup1\n      iszero\n      tag_58\n      jumpi\n      dup1\n      0x1f\n      lt\n      tag_59\n      jumpi\n      0x0100\n      dup1\n      dup4\n      sload\n      div\n      mul\n      dup4\n      mstore\n      swap2\n      0x20\n      add\n      swap2\n      jump(tag_58)\n    tag_59:\n      dup3\n      add\n      swap2\n      swap1\n      0x00\n      mstore\n      keccak256(0x00, 0x20)\n      swap1\n    tag_60:\n      dup2\n      sload\n      dup2\n      mstore\n      swap1\n      0x01\n      add\n      swap1\n      0x20\n      add\n      dup1\n      dup4\n      gt\n      tag_60\n      jumpi\n      dup3\n      swap1\n      sub\n      0x1f\n      and\n      dup3\n      add\n      swap2\n    tag_58:\n      pop\n      pop\n      pop\n      pop\n      pop\n      swap1\n      dup1\n      0x05\n      add\n      sload\n      swap1\n      dup1\n      0x06\n      add\n      mload(0x40)\n      dup1\n      0xa0\n      add\n      0x40\n      mstore\n      swap1\n      dup2\n      0x00\n      dup3\n      add\n      dup1\n      sload\n      tag_61\n      swap1\n      tag_41\n      jump\t// in\n    tag_61:\n      dup1\n      0x1f\n      add\n      0x20\n      dup1\n      swap2\n      div\n      mul\n      0x20\n      add\n      mload(0x40)\n      swap1\n      dup2\n      add\n      0x40\n      mstore\n      dup1\n      swap3\n      swap2\n      swap1\n      dup2\n      dup2\n      mstore\n      0x20\n      add\n      dup3\n      dup1\n      sload\n      tag_62\n      swap1\n      tag_41\n      jump\t// in\n    tag_62:\n      dup1\n      iszero\n      tag_63\n      jumpi\n      dup1\n      0x1f\n      lt\n      tag_64\n      jumpi\n      0x0100\n      dup1\n      dup4\n      sload\n      div\n      mul\n      dup4\n      mstore\n      swap2\n      0x20\n      add\n      swap2\n      jump(tag_63)\n    tag_64:\n      dup3\n      add\n      swap2\n      swap1\n      0x00\n      mstore\n      keccak256(0x00, 0x20)\n      swap1\n    tag_65:\n      dup2\n      sload\n      dup2\n      mstore\n      swap1\n      0x01\n      add\n      swap1\n      0x20\n      add\n      dup1\n      dup4\n      gt\n      tag_65\n      jumpi\n      dup3\n      swap1\n      sub\n      0x1f\n      and\n      dup3\n      add\n      swap2\n    tag_63:\n      pop\n      pop\n      pop\n      pop\n      pop\n      dup2\n      mstore\n      0x20\n      add\n      0x01\n      dup3\n      add\n      dup1\n      sload\n      tag_66\n      swap1\n      tag_41\n      jump\t// in\n    tag_66:\n      dup1\n      0x1f\n      add\n      0x20\n      dup1\n      swap2\n      div\n      mul\n      0x20\n      add\n      mload(0x40)\n      swap1\n      dup2\n      add\n      0x40\n      mstore\n      dup1\n      swap3\n      swap2\n      swap1\n      dup2\n      dup2\n      mstore\n      0x20\n      add\n      dup3\n      dup1\n      sload\n      tag_67\n      swap1\n      tag_41\n      jump\t// in\n    tag_67:\n      dup1\n      iszero\n      tag_68\n      jumpi\n      dup1\n      0x1f\n      lt\n      tag_69\n      jumpi\n      0x0100\n      dup1\n      dup4\n      sload\n      div\n      mul\n      dup4\n      mstore\n      swap2\n      0x20\n      add\n      swap2\n      jump(tag_68)\n    tag_69:\n      dup3\n      add\n      swap2\n      swap1\n      0x00\n      mstore\n      keccak256(0x00, 0x20)\n      swap1\n    tag_70:\n      dup2\n      sload\n      dup2\n      mstore\n      swap1\n      0x01\n      add\n      swap1\n      0x20\n      add\n      dup1\n      dup4\n      gt\n      tag_70\n      jumpi\n      dup3\n      swap1\n      sub\n      0x1f\n      and\n      dup3\n      add\n      swap2\n    tag_68:\n      pop\n      pop\n      pop\n      pop\n      pop\n      dup2\n      mstore\n      0x20\n      add\n      0x02\n      dup3\n      add\n      dup1\n      sload\n      tag_71\n      swap1\n      tag_41\n      jump\t// in\n    tag_71:\n      dup1\n      0x1f\n      add\n      0x20\n      dup1\n      swap2\n      div\n      mul\n      0x20\n      add\n      mload(0x40)\n      swap1\n      dup2\n      add\n      0x40\n      mstore\n      dup1\n      swap3\n      swap2\n      swap1\n      dup2\n      dup2\n      mstore\n      0x20\n      add\n      dup3\n      dup1\n      sload\n      tag_72\n      swap1\n      tag_41\n      jump\t// in\n    tag_72:\n      dup1\n      iszero\n      tag_73\n      jumpi\n      dup1\n      0x1f\n      lt\n      tag_74\n      jumpi\n      0x0100\n      dup1\n      dup4\n      sload\n      div\n      mul\n      dup4\n      mstore\n      swap2\n      0x20\n      add\n      swap2\n      jump(tag_73)\n    tag_74:\n      dup3\n      add\n      swap2\n      swap1\n      0x00\n      mstore\n      keccak256(0x00, 0x20)\n      swap1\n    tag_75:\n      dup2\n      sload\n      dup2\n      mstore\n      swap1\n      0x01\n      add\n      swap1\n      0x20\n      add\n      dup1\n      dup4\n      gt\n      tag_75\n      jumpi\n      dup3\n      swap1\n      sub\n      0x1f\n      and\n      dup3\n      add\n      swap2\n    tag_73:\n      pop\n      pop\n      pop\n      pop\n      pop\n      dup2\n      mstore\n      0x20\n      add\n      0x03\n      dup3\n      add\n      dup1\n      sload\n      tag_76\n      swap1\n      tag_41\n      jump\t// in\n    tag_76:\n      dup1\n      0x1f\n      add\n      0x20\n      dup1\n      swap2\n      div\n      mul\n      0x20\n      add\n      mload(0x40)\n      swap1\n      dup2\n      add\n      0x40\n      mstore\n      dup1\n      swap3\n      swap2\n      swap1\n      dup2\n      dup2\n      mstore\n      0x20\n      add\n      dup3\n      dup1\n      sload\n      tag_77\n      swap1\n      tag_41\n      jump\t// in\n    tag_77:\n      dup1\n      iszero\n      tag_78\n      jumpi\n      dup1\n      0x1f\n      lt\n      tag_79\n      jumpi\n      0x0100\n      dup1\n      dup4\n      sload\n      div\n      mul\n      dup4\n      mstore\n      swap2\n      0x20\n      add\n      swap2\n      jump(tag_78)\n    tag_79:\n      dup3\n      add\n      swap2\n      swap1\n      0x00\n      mstore\n      keccak256(0x00, 0x20)\n      swap1\n    tag_80:\n      dup2\n      sload\n      dup2\n      mstore\n      swap1\n      0x01\n      add\n      swap1\n      0x20\n      add\n      dup1\n      dup4\n      gt\n      tag_80\n      jumpi\n      dup3\n      swap1\n      sub\n      0x1f\n      and\n      dup3\n      add\n      swap2\n    tag_78:\n      pop\n      pop\n      pop\n      pop\n      pop\n      dup2\n      mstore\n      0x20\n      add\n      0x04\n      dup3\n      add\n      dup1\n      sload\n      tag_81\n      swap1\n      tag_41\n      jump\t// in\n    tag_81:\n      dup1\n      0x1f\n      add\n      0x20\n      dup1\n      swap2\n      div\n      mul\n      0x20\n      add\n      mload(0x40)\n      swap1\n      dup2\n      add\n      0x40\n      mstore\n      dup1\n      swap3\n      swap2\n      swap1\n      dup2\n      dup2\n      mstore\n      0x20\n      add\n      dup3\n      dup1\n      sload\n      tag_82\n      swap1\n      tag_41\n      jump\t// in\n    tag_82:\n      dup1\n      iszero\n      tag_83\n      jumpi\n      dup1\n      0x1f\n      lt\n      tag_84\n      jumpi\n      0x0100\n      dup1\n      dup4\n      sload\n      div\n      mul\n      dup4\n      mstore\n      swap2\n      0x20\n      add\n      swap2\n      jump(tag_83)\n    tag_84:\n      dup3\n      add\n      swap2\n      swap1\n      0x00\n      mstore\n      keccak256(0x00, 0x20)\n      swap1\n    tag_85:\n      dup2\n      sload\n      dup2\n      mstore\n      swap1\n      0x01\n      add\n      swap1\n      0x20\n      add\n      dup1\n      dup4\n      gt\n      tag_85\n      jumpi\n      dup3\n      swap1\n      sub\n      0x1f\n      and\n      dup3\n      add\n      swap2\n    tag_83:\n      pop\n      pop\n      pop\n      pop\n      pop\n      dup2\n      mstore\n      pop\n      pop\n      swap1\n      dup1\n      0x0b\n      add\n      mload(0x40)\n      dup1\n      0x60\n      add\n      0x40\n      mstore\n      swap1\n      dup2\n      0x00\n      dup3\n      add\n      dup1\n      sload\n      dup1\n      0x20\n      mul\n      0x20\n      add\n      mload(0x40)\n      swap1\n      dup2\n      add\n      0x40\n      mstore\n      dup1\n      swap3\n      swap2\n      swap1\n      dup2\n      dup2\n      mstore\n      0x20\n      add\n      0x00\n      swap1\n    tag_86:\n      dup3\n      dup3\n      lt\n      iszero\n      tag_87\n      jumpi\n      dup4\n      dup3\n      swap1\n      0x00\n      mstore\n      keccak256(0x00, 0x20)\n      add\n      dup1\n      sload\n      tag_89\n      swap1\n      tag_41\n      jump\t// in\n    tag_89:\n      dup1\n      0x1f\n      add\n      0x20\n      dup1\n      swap2\n      div\n      mul\n      0x20\n      add\n      mload(0x40)\n      swap1\n      dup2\n      add\n      0x40\n      mstore\n      dup1\n      swap3\n      swap2\n      swap1\n      dup2\n      dup2\n      mstore\n      0x20\n      add\n      dup3\n      dup1\n      sload\n      tag_90\n      swap1\n      tag_41\n      jump\t// in\n    tag_90:\n      dup1\n      iszero\n      tag_91\n      jumpi\n      dup1\n      0x1f\n      lt\n      tag_92\n      jumpi\n      0x0100\n      dup1\n      dup4\n      sload\n      div\n      mul\n      dup4\n      mstore\n      swap2\n      0x20\n      add\n      swap2\n      jump(tag_91)\n    tag_92:\n      dup3\n      add\n      swap2\n      swap1\n      0x00\n      mstore\n      keccak256(0x00, 0x20)\n      swap1\n    tag_93:\n      dup2\n      sload\n      dup2\n      mstore\n      swap1\n      0x01\n      add\n      swap1\n      0x20\n      add\n      dup1\n      dup4\n      gt\n      tag_93\n      jumpi\n      dup3\n      swap1\n      sub\n      0x1f\n      and\n      dup3\n      add\n      swap2\n    tag_91:\n      pop\n      pop\n      pop\n      pop\n      pop\n      dup2\n      mstore\n      0x20\n      add\n      swap1\n      0x01\n      add\n      swap1\n      jump(tag_86)\n    tag_87:\n      pop\n      pop\n      pop\n      pop\n      dup2\n      mstore\n      0x20\n      add\n      0x01\n      dup3\n      add\n      dup1\n      sload\n      dup1\n      0x20\n      mul\n      0x20\n      add\n      mload(0x40)\n      swap1\n      dup2\n      add\n      0x40\n      mstore\n      dup1\n      swap3\n      swap2\n      swap1\n      dup2\n      dup2\n      mstore\n      0x20\n      add\n      0x00\n      swap1\n    tag_94:\n      dup3\n      dup3\n      lt\n      iszero\n      tag_95\n      jumpi\n      dup4\n      dup3\n      swap1\n      0x00\n      mstore\n      keccak256(0x00, 0x20)\n      add\n      dup1\n      sload\n      tag_97\n      swap1\n      tag_41\n      jump\t// in\n    tag_97:\n      dup1\n      0x1f\n      add\n      0x20\n      dup1\n      swap2\n      div\n      mul\n      0x20\n      add\n      mload(0x40)\n      swap1\n      dup2\n      add\n      0x40\n      mstore\n      dup1\n      swap3\n      swap2\n      swap1\n      dup2\n      dup2\n      mstore\n      0x20\n      add\n      dup3\n      dup1\n      sload\n      tag_98\n      swap1\n      tag_41\n      jump\t// in\n    tag_98:\n      dup1\n      iszero\n      tag_99\n      jumpi\n      dup1\n      0x1f\n      lt\n      tag_100\n      jumpi\n      0x0100\n      dup1\n      dup4\n      sload\n      div\n      mul\n      dup4\n      mstore\n      swap2\n      0x20\n      add\n      swap2\n      jump(tag_99)\n    tag_100:\n      dup3\n      add\n      swap2\n      swap1\n      0x00\n      mstore\n      keccak256(0x00, 0x20)\n      swap1\n    tag_101:\n      dup2\n      sload\n      dup2\n      mstore\n      swap1\n      0x01\n      add\n      swap1\n      0x20\n      add\n      dup1\n      dup4\n      gt\n      tag_101\n      jumpi\n      dup3\n      swap1\n      sub\n      0x1f\n      and\n      dup3\n      add\n      swap2\n    tag_99:\n      pop\n      pop\n      pop\n      pop\n      pop\n      dup2\n      mstore\n      0x20\n      add\n      swap1\n      0x01\n      add\n      swap1\n      jump(tag_94)\n    tag_95:\n      pop\n      pop\n      pop\n      pop\n      dup2\n      mstore\n      0x20\n      add\n      0x02\n      dup3\n      add\n      dup1\n      sload\n      dup1\n      0x20\n      mul\n      0x20\n      add\n      mload(0x40)\n      swap1\n      dup2\n      add\n      0x40\n      mstore\n      dup1\n      swap3\n      swap2\n      swap1\n      dup2\n      dup2\n      mstore\n      0x20\n      add\n      0x00\n      swap1\n    tag_102:\n      dup3\n      dup3\n      lt\n      iszero\n      tag_103\n      jumpi\n      dup4\n      dup3\n      swap1\n      0x00\n      mstore\n      keccak256(0x00, 0x20)\n      add\n      dup1\n      sload\n      tag_105\n      swap1\n      tag_41\n      jump\t// in\n    tag_105:\n      dup1\n      0x1f\n      add\n      0x20\n      dup1\n      swap2\n      div\n      mul\n      0x20\n      add\n      mload(0x40)\n      swap1\n      dup2\n      add\n      0x40\n      mstore\n      dup1\n      swap3\n      swap2\n      swap1\n      dup2\n      dup2\n      mstore\n      0x20\n      add\n      dup3\n      dup1\n      sload\n      tag_106\n      swap1\n      tag_41\n      jump\t// in\n    tag_106:\n      dup1\n      iszero\n      tag_107\n      jumpi\n      dup1\n      0x1f\n      lt\n      tag_108\n      jumpi\n      0x0100\n      dup1\n      dup4\n      sload\n      div\n      mul\n      dup4\n      mstore\n      swap2\n      0x20\n      add\n      swap2\n      jump(tag_107)\n    tag_108:\n      dup3\n      add\n      swap2\n      swap1\n      0x00\n      mstore\n      keccak256(0x00, 0x20)\n      swap1\n    tag_109:\n      dup2\n      sload\n      dup2\n      mstore\n      swap1\n      0x01\n      add\n      swap1\n      0x20\n      add\n      dup1\n      dup4\n      gt\n      tag_109\n      jumpi\n      dup3\n      swap1\n      sub\n      0x1f\n      and\n      dup3\n      add\n      swap2\n    tag_107:\n      pop\n      pop\n      pop\n      pop\n      pop\n      dup2\n      mstore\n      0x20\n      add\n      swap1\n      0x01\n      add\n      swap1\n      jump(tag_102)\n    tag_103:\n      pop\n      pop\n      pop\n      pop\n      dup2\n      mstore\n      pop\n      pop\n      swap1\n      pop\n      dup9\n      jump\t// out\n        /* \"contracts/Profile.sol\":1701:1979  function addSkill(string[] memory frontend, string[] memory backend, string[] memory framework) public{\r... */\n    tag_25:\n        /* \"contracts/Profile.sol\":1851:1859  frontend */\n      dup3\n        /* \"contracts/Profile.sol\":1814:1821  profile */\n      0x00\n        /* \"contracts/Profile.sol\":1814:1833  profile[msg.sender] */\n      dup1\n        /* \"contracts/Profile.sol\":1822:1832  msg.sender */\n      caller\n        /* \"contracts/Profile.sol\":1814:1833  profile[msg.sender] */\n      0xffffffffffffffffffffffffffffffffffffffff\n      and\n      0xffffffffffffffffffffffffffffffffffffffff\n      and\n      dup2\n      mstore\n      0x20\n      add\n      swap1\n      dup2\n      mstore\n      0x20\n      add\n      0x00\n      keccak256\n        /* \"contracts/Profile.sol\":1814:1839  profile[msg.sender].skill */\n      0x0b\n      add\n        /* \"contracts/Profile.sol\":1814:1848  profile[msg.sender].skill.frontend */\n      0x00\n      add\n        /* \"contracts/Profile.sol\":1814:1859  profile[msg.sender].skill.frontend = frontend */\n      swap1\n      dup1\n      mload\n      swap1\n      0x20\n      add\n      swap1\n      tag_111\n      swap3\n      swap2\n      swap1\n      tag_112\n      jump\t// in\n    tag_111:\n      pop\n        /* \"contracts/Profile.sol\":1906:1913  backend */\n      dup2\n        /* \"contracts/Profile.sol\":1870:1877  profile */\n      0x00\n        /* \"contracts/Profile.sol\":1870:1889  profile[msg.sender] */\n      dup1\n        /* \"contracts/Profile.sol\":1878:1888  msg.sender */\n      caller\n        /* \"contracts/Profile.sol\":1870:1889  profile[msg.sender] */\n      0xffffffffffffffffffffffffffffffffffffffff\n      and\n      0xffffffffffffffffffffffffffffffffffffffff\n      and\n      dup2\n      mstore\n      0x20\n      add\n      swap1\n      dup2\n      mstore\n      0x20\n      add\n      0x00\n      keccak256\n        /* \"contracts/Profile.sol\":1870:1895  profile[msg.sender].skill */\n      0x0b\n      add\n        /* \"contracts/Profile.sol\":1870:1903  profile[msg.sender].skill.backend */\n      0x01\n      add\n        /* \"contracts/Profile.sol\":1870:1913  profile[msg.sender].skill.backend = backend */\n      swap1\n      dup1\n      mload\n      swap1\n      0x20\n      add\n      swap1\n      tag_113\n      swap3\n      swap2\n      swap1\n      tag_112\n      jump\t// in\n    tag_113:\n      pop\n        /* \"contracts/Profile.sol\":1962:1971  framework */\n      dup1\n        /* \"contracts/Profile.sol\":1924:1931  profile */\n      0x00\n        /* \"contracts/Profile.sol\":1924:1943  profile[msg.sender] */\n      dup1\n        /* \"contracts/Profile.sol\":1932:1942  msg.sender */\n      caller\n        /* \"contracts/Profile.sol\":1924:1943  profile[msg.sender] */\n      0xffffffffffffffffffffffffffffffffffffffff\n      and\n      0xffffffffffffffffffffffffffffffffffffffff\n      and\n      dup2\n      mstore\n      0x20\n      add\n      swap1\n      dup2\n      mstore\n      0x20\n      add\n      0x00\n      keccak256\n        /* \"contracts/Profile.sol\":1924:1949  profile[msg.sender].skill */\n      0x0b\n      add\n        /* \"contracts/Profile.sol\":1924:1959  profile[msg.sender].skill.framework */\n      0x02\n      add\n        /* \"contracts/Profile.sol\":1924:1971  profile[msg.sender].skill.framework = framework */\n      swap1\n      dup1\n      mload\n      swap1\n      0x20\n      add\n      swap1\n      tag_114\n      swap3\n      swap2\n      swap1\n      tag_112\n      jump\t// in\n    tag_114:\n      pop\n        /* \"contracts/Profile.sol\":1701:1979  function addSkill(string[] memory frontend, string[] memory backend, string[] memory framework) public{\r... */\n      pop\n      pop\n      pop\n      jump\t// out\n        /* \"contracts/Profile.sol\":1992:2066  function delProfile() public {\r... */\n    tag_27:\n        /* \"contracts/Profile.sol\":2039:2046  profile */\n      0x00\n        /* \"contracts/Profile.sol\":2039:2058  profile[msg.sender] */\n      dup1\n        /* \"contracts/Profile.sol\":2047:2057  msg.sender */\n      caller\n        /* \"contracts/Profile.sol\":2039:2058  profile[msg.sender] */\n      0xffffffffffffffffffffffffffffffffffffffff\n      and\n      0xffffffffffffffffffffffffffffffffffffffff\n      and\n      dup2\n      mstore\n      0x20\n      add\n      swap1\n      dup2\n      mstore\n      0x20\n      add\n      0x00\n      keccak256\n      0x00\n        /* \"contracts/Profile.sol\":2032:2058  delete profile[msg.sender] */\n      dup1\n      dup3\n      add\n      exp(0x0100, 0x00)\n      dup2\n      sload\n      swap1\n      0xffffffffffffffffffffffffffffffffffffffff\n      mul\n      not\n      and\n      swap1\n      sstore\n      0x01\n      dup3\n      add\n      0x00\n      tag_116\n      swap2\n      swap1\n      tag_117\n      jump\t// in\n    tag_116:\n      0x02\n      dup3\n      add\n      0x00\n      tag_118\n      swap2\n      swap1\n      tag_117\n      jump\t// in\n    tag_118:\n      0x03\n      dup3\n      add\n      0x00\n      tag_119\n      swap2\n      swap1\n      tag_117\n      jump\t// in\n    tag_119:\n      0x04\n      dup3\n      add\n      0x00\n      tag_120\n      swap2\n      swap1\n      tag_117\n      jump\t// in\n    tag_120:\n      0x05\n      dup3\n      add\n      0x00\n      swap1\n      sstore\n      0x06\n      dup3\n      add\n      0x00\n      dup1\n      dup3\n      add\n      0x00\n      tag_121\n      swap2\n      swap1\n      tag_117\n      jump\t// in\n    tag_121:\n      0x01\n      dup3\n      add\n      0x00\n      tag_122\n      swap2\n      swap1\n      tag_117\n      jump\t// in\n    tag_122:\n      0x02\n      dup3\n      add\n      0x00\n      tag_123\n      swap2\n      swap1\n      tag_117\n      jump\t// in\n    tag_123:\n      0x03\n      dup3\n      add\n      0x00\n      tag_124\n      swap2\n      swap1\n      tag_117\n      jump\t// in\n    tag_124:\n      0x04\n      dup3\n      add\n      0x00\n      tag_125\n      swap2\n      swap1\n      tag_117\n      jump\t// in\n    tag_125:\n      pop\n      pop\n      0x0b\n      dup3\n      add\n      0x00\n      dup1\n      dup3\n      add\n      0x00\n      tag_126\n      swap2\n      swap1\n      tag_127\n      jump\t// in\n    tag_126:\n      0x01\n      dup3\n      add\n      0x00\n      tag_128\n      swap2\n      swap1\n      tag_127\n      jump\t// in\n    tag_128:\n      0x02\n      dup3\n      add\n      0x00\n      tag_129\n      swap2\n      swap1\n      tag_127\n      jump\t// in\n    tag_129:\n      pop\n      pop\n      pop\n      pop\n        /* \"contracts/Profile.sol\":1992:2066  function delProfile() public {\r... */\n      jump\t// out\n    tag_30:\n      dup3\n      dup1\n      sload\n      tag_130\n      swap1\n      tag_41\n      jump\t// in\n    tag_130:\n      swap1\n      0x00\n      mstore\n      keccak256(0x00, 0x20)\n      swap1\n      0x1f\n      add\n      0x20\n      swap1\n      div\n      dup2\n      add\n      swap3\n      dup3\n      tag_132\n      jumpi\n      0x00\n      dup6\n      sstore\n      jump(tag_131)\n    tag_132:\n      dup3\n      0x1f\n      lt\n      tag_133\n      jumpi\n      dup1\n      mload\n      not(0xff)\n      and\n      dup4\n      dup1\n      add\n      or\n      dup6\n      sstore\n      jump(tag_131)\n    tag_133:\n      dup3\n      dup1\n      add\n      0x01\n      add\n      dup6\n      sstore\n      dup3\n      iszero\n      tag_131\n      jumpi\n      swap2\n      dup3\n      add\n    tag_134:\n      dup3\n      dup2\n      gt\n      iszero\n      tag_135\n      jumpi\n      dup3\n      mload\n      dup3\n      sstore\n      swap2\n      0x20\n      add\n      swap2\n      swap1\n      0x01\n      add\n      swap1\n      jump(tag_134)\n    tag_135:\n    tag_131:\n      pop\n      swap1\n      pop\n      tag_136\n      swap2\n      swap1\n      tag_137\n      jump\t// in\n    tag_136:\n      pop\n      swap1\n      jump\t// out\n    tag_112:\n      dup3\n      dup1\n      sload\n      dup3\n      dup3\n      sstore\n      swap1\n      0x00\n      mstore\n      keccak256(0x00, 0x20)\n      swap1\n      dup2\n      add\n      swap3\n      dup3\n      iszero\n      tag_138\n      jumpi\n      swap2\n      0x20\n      mul\n      dup3\n      add\n    tag_139:\n      dup3\n      dup2\n      gt\n      iszero\n      tag_140\n      jumpi\n      dup3\n      mload\n      dup3\n      swap1\n      dup1\n      mload\n      swap1\n      0x20\n      add\n      swap1\n      tag_141\n      swap3\n      swap2\n      swap1\n      tag_30\n      jump\t// in\n    tag_141:\n      pop\n      swap2\n      0x20\n      add\n      swap2\n      swap1\n      0x01\n      add\n      swap1\n      jump(tag_139)\n    tag_140:\n    tag_138:\n      pop\n      swap1\n      pop\n      tag_142\n      swap2\n      swap1\n      tag_143\n      jump\t// in\n    tag_142:\n      pop\n      swap1\n      jump\t// out\n    tag_117:\n      pop\n      dup1\n      sload\n      tag_144\n      swap1\n      tag_41\n      jump\t// in\n    tag_144:\n      0x00\n      dup3\n      sstore\n      dup1\n      0x1f\n      lt\n      tag_146\n      jumpi\n      pop\n      jump(tag_145)\n    tag_146:\n      0x1f\n      add\n      0x20\n      swap1\n      div\n      swap1\n      0x00\n      mstore\n      keccak256(0x00, 0x20)\n      swap1\n      dup2\n      add\n      swap1\n      tag_147\n      swap2\n      swap1\n      tag_137\n      jump\t// in\n    tag_147:\n    tag_145:\n      pop\n      jump\t// out\n    tag_127:\n      pop\n      dup1\n      sload\n      0x00\n      dup3\n      sstore\n      swap1\n      0x00\n      mstore\n      keccak256(0x00, 0x20)\n      swap1\n      dup2\n      add\n      swap1\n      tag_149\n      swap2\n      swap1\n      tag_143\n      jump\t// in\n    tag_149:\n      pop\n      jump\t// out\n    tag_137:\n    tag_150:\n      dup1\n      dup3\n      gt\n      iszero\n      tag_151\n      jumpi\n      0x00\n      dup2\n      0x00\n      swap1\n      sstore\n      pop\n      0x01\n      add\n      jump(tag_150)\n    tag_151:\n      pop\n      swap1\n      jump\t// out\n    tag_143:\n    tag_152:\n      dup1\n      dup3\n      gt\n      iszero\n      tag_153\n      jumpi\n      0x00\n      dup2\n      dup2\n      tag_154\n      swap2\n      swap1\n      tag_117\n      jump\t// in\n    tag_154:\n      pop\n      0x01\n      add\n      jump(tag_152)\n    tag_153:\n      pop\n      swap1\n      jump\t// out\n        /* \"#utility.yul\":23:980   */\n    tag_156:\n        /* \"#utility.yul\":129:134   */\n      0x00\n        /* \"#utility.yul\":154:245   */\n      tag_158\n        /* \"#utility.yul\":170:244   */\n      tag_159\n        /* \"#utility.yul\":237:243   */\n      dup5\n        /* \"#utility.yul\":170:244   */\n      tag_160\n      jump\t// in\n    tag_159:\n        /* \"#utility.yul\":154:245   */\n      tag_161\n      jump\t// in\n    tag_158:\n        /* \"#utility.yul\":145:245   */\n      swap1\n      pop\n        /* \"#utility.yul\":265:270   */\n      dup1\n        /* \"#utility.yul\":294:300   */\n      dup4\n        /* \"#utility.yul\":287:292   */\n      dup3\n        /* \"#utility.yul\":280:301   */\n      mstore\n        /* \"#utility.yul\":328:332   */\n      0x20\n        /* \"#utility.yul\":321:326   */\n      dup3\n        /* \"#utility.yul\":317:333   */\n      add\n        /* \"#utility.yul\":310:333   */\n      swap1\n      pop\n        /* \"#utility.yul\":354:360   */\n      dup3\n        /* \"#utility.yul\":404:407   */\n      dup6\n        /* \"#utility.yul\":396:400   */\n      0x20\n        /* \"#utility.yul\":388:394   */\n      dup7\n        /* \"#utility.yul\":384:401   */\n      mul\n        /* \"#utility.yul\":379:382   */\n      dup3\n        /* \"#utility.yul\":375:402   */\n      add\n        /* \"#utility.yul\":372:408   */\n      gt\n        /* \"#utility.yul\":369:512   */\n      iszero\n      tag_162\n      jumpi\n        /* \"#utility.yul\":423:502   */\n      tag_163\n      tag_164\n      jump\t// in\n    tag_163:\n        /* \"#utility.yul\":369:512   */\n    tag_162:\n        /* \"#utility.yul\":536:537   */\n      0x00\n        /* \"#utility.yul\":521:974   */\n    tag_165:\n        /* \"#utility.yul\":546:552   */\n      dup6\n        /* \"#utility.yul\":543:544   */\n      dup2\n        /* \"#utility.yul\":540:553   */\n      lt\n        /* \"#utility.yul\":521:974   */\n      iszero\n      tag_167\n      jumpi\n        /* \"#utility.yul\":628:631   */\n      dup2\n        /* \"#utility.yul\":615:632   */\n      calldataload\n        /* \"#utility.yul\":664:682   */\n      0xffffffffffffffff\n        /* \"#utility.yul\":651:662   */\n      dup2\n        /* \"#utility.yul\":648:683   */\n      gt\n        /* \"#utility.yul\":645:767   */\n      iszero\n      tag_168\n      jumpi\n        /* \"#utility.yul\":686:765   */\n      tag_169\n      tag_170\n      jump\t// in\n    tag_169:\n        /* \"#utility.yul\":645:767   */\n    tag_168:\n        /* \"#utility.yul\":810:821   */\n      dup1\n        /* \"#utility.yul\":802:808   */\n      dup7\n        /* \"#utility.yul\":798:822   */\n      add\n        /* \"#utility.yul\":848:895   */\n      tag_171\n        /* \"#utility.yul\":891:894   */\n      dup10\n        /* \"#utility.yul\":879:889   */\n      dup3\n        /* \"#utility.yul\":848:895   */\n      tag_172\n      jump\t// in\n    tag_171:\n        /* \"#utility.yul\":843:846   */\n      dup6\n        /* \"#utility.yul\":836:896   */\n      mstore\n        /* \"#utility.yul\":925:929   */\n      0x20\n        /* \"#utility.yul\":920:923   */\n      dup6\n        /* \"#utility.yul\":916:930   */\n      add\n        /* \"#utility.yul\":909:930   */\n      swap5\n      pop\n        /* \"#utility.yul\":959:963   */\n      0x20\n        /* \"#utility.yul\":954:957   */\n      dup5\n        /* \"#utility.yul\":950:964   */\n      add\n        /* \"#utility.yul\":943:964   */\n      swap4\n      pop\n        /* \"#utility.yul\":581:974   */\n      pop\n      pop\n        /* \"#utility.yul\":568:569   */\n      0x01\n        /* \"#utility.yul\":565:566   */\n      dup2\n        /* \"#utility.yul\":561:570   */\n      add\n        /* \"#utility.yul\":556:570   */\n      swap1\n      pop\n        /* \"#utility.yul\":521:974   */\n      jump(tag_165)\n    tag_167:\n        /* \"#utility.yul\":525:539   */\n      pop\n        /* \"#utility.yul\":135:980   */\n      pop\n      pop\n        /* \"#utility.yul\":23:980   */\n      swap4\n      swap3\n      pop\n      pop\n      pop\n      jump\t// out\n        /* \"#utility.yul\":986:1398   */\n    tag_173:\n        /* \"#utility.yul\":1064:1069   */\n      0x00\n        /* \"#utility.yul\":1089:1155   */\n      tag_175\n        /* \"#utility.yul\":1105:1154   */\n      tag_176\n        /* \"#utility.yul\":1147:1153   */\n      dup5\n        /* \"#utility.yul\":1105:1154   */\n      tag_177\n      jump\t// in\n    tag_176:\n        /* \"#utility.yul\":1089:1155   */\n      tag_161\n      jump\t// in\n    tag_175:\n        /* \"#utility.yul\":1080:1155   */\n      swap1\n      pop\n        /* \"#utility.yul\":1178:1184   */\n      dup3\n        /* \"#utility.yul\":1171:1176   */\n      dup2\n        /* \"#utility.yul\":1164:1185   */\n      mstore\n        /* \"#utility.yul\":1216:1220   */\n      0x20\n        /* \"#utility.yul\":1209:1214   */\n      dup2\n        /* \"#utility.yul\":1205:1221   */\n      add\n        /* \"#utility.yul\":1254:1257   */\n      dup5\n        /* \"#utility.yul\":1245:1251   */\n      dup5\n        /* \"#utility.yul\":1240:1243   */\n      dup5\n        /* \"#utility.yul\":1236:1252   */\n      add\n        /* \"#utility.yul\":1233:1258   */\n      gt\n        /* \"#utility.yul\":1230:1342   */\n      iszero\n      tag_178\n      jumpi\n        /* \"#utility.yul\":1261:1340   */\n      tag_179\n      tag_180\n      jump\t// in\n    tag_179:\n        /* \"#utility.yul\":1230:1342   */\n    tag_178:\n        /* \"#utility.yul\":1351:1392   */\n      tag_181\n        /* \"#utility.yul\":1385:1391   */\n      dup5\n        /* \"#utility.yul\":1380:1383   */\n      dup3\n        /* \"#utility.yul\":1375:1378   */\n      dup6\n        /* \"#utility.yul\":1351:1392   */\n      tag_182\n      jump\t// in\n    tag_181:\n        /* \"#utility.yul\":1070:1398   */\n      pop\n        /* \"#utility.yul\":986:1398   */\n      swap4\n      swap3\n      pop\n      pop\n      pop\n      jump\t// out\n        /* \"#utility.yul\":1404:1543   */\n    tag_183:\n        /* \"#utility.yul\":1450:1455   */\n      0x00\n        /* \"#utility.yul\":1488:1494   */\n      dup2\n        /* \"#utility.yul\":1475:1495   */\n      calldataload\n        /* \"#utility.yul\":1466:1495   */\n      swap1\n      pop\n        /* \"#utility.yul\":1504:1537   */\n      tag_185\n        /* \"#utility.yul\":1531:1536   */\n      dup2\n        /* \"#utility.yul\":1504:1537   */\n      tag_186\n      jump\t// in\n    tag_185:\n        /* \"#utility.yul\":1404:1543   */\n      swap3\n      swap2\n      pop\n      pop\n      jump\t// out\n        /* \"#utility.yul\":1565:1955   */\n    tag_187:\n        /* \"#utility.yul\":1646:1651   */\n      0x00\n        /* \"#utility.yul\":1695:1698   */\n      dup3\n        /* \"#utility.yul\":1688:1692   */\n      0x1f\n        /* \"#utility.yul\":1680:1686   */\n      dup4\n        /* \"#utility.yul\":1676:1693   */\n      add\n        /* \"#utility.yul\":1672:1699   */\n      slt\n        /* \"#utility.yul\":1662:1784   */\n      tag_189\n      jumpi\n        /* \"#utility.yul\":1703:1782   */\n      tag_190\n      tag_170\n      jump\t// in\n    tag_190:\n        /* \"#utility.yul\":1662:1784   */\n    tag_189:\n        /* \"#utility.yul\":1820:1826   */\n      dup2\n        /* \"#utility.yul\":1807:1827   */\n      calldataload\n        /* \"#utility.yul\":1845:1949   */\n      tag_191\n        /* \"#utility.yul\":1945:1948   */\n      dup5\n        /* \"#utility.yul\":1937:1943   */\n      dup3\n        /* \"#utility.yul\":1930:1934   */\n      0x20\n        /* \"#utility.yul\":1922:1928   */\n      dup7\n        /* \"#utility.yul\":1918:1935   */\n      add\n        /* \"#utility.yul\":1845:1949   */\n      tag_156\n      jump\t// in\n    tag_191:\n        /* \"#utility.yul\":1836:1949   */\n      swap2\n      pop\n        /* \"#utility.yul\":1652:1955   */\n      pop\n        /* \"#utility.yul\":1565:1955   */\n      swap3\n      swap2\n      pop\n      pop\n      jump\t// out\n        /* \"#utility.yul\":1975:2315   */\n    tag_172:\n        /* \"#utility.yul\":2031:2036   */\n      0x00\n        /* \"#utility.yul\":2080:2083   */\n      dup3\n        /* \"#utility.yul\":2073:2077   */\n      0x1f\n        /* \"#utility.yul\":2065:2071   */\n      dup4\n        /* \"#utility.yul\":2061:2078   */\n      add\n        /* \"#utility.yul\":2057:2084   */\n      slt\n        /* \"#utility.yul\":2047:2169   */\n      tag_193\n      jumpi\n        /* \"#utility.yul\":2088:2167   */\n      tag_194\n      tag_170\n      jump\t// in\n    tag_194:\n        /* \"#utility.yul\":2047:2169   */\n    tag_193:\n        /* \"#utility.yul\":2205:2211   */\n      dup2\n        /* \"#utility.yul\":2192:2212   */\n      calldataload\n        /* \"#utility.yul\":2230:2309   */\n      tag_195\n        /* \"#utility.yul\":2305:2308   */\n      dup5\n        /* \"#utility.yul\":2297:2303   */\n      dup3\n        /* \"#utility.yul\":2290:2294   */\n      0x20\n        /* \"#utility.yul\":2282:2288   */\n      dup7\n        /* \"#utility.yul\":2278:2295   */\n      add\n        /* \"#utility.yul\":2230:2309   */\n      tag_173\n      jump\t// in\n    tag_195:\n        /* \"#utility.yul\":2221:2309   */\n      swap2\n      pop\n        /* \"#utility.yul\":2037:2315   */\n      pop\n        /* \"#utility.yul\":1975:2315   */\n      swap3\n      swap2\n      pop\n      pop\n      jump\t// out\n        /* \"#utility.yul\":2321:2650   */\n    tag_18:\n        /* \"#utility.yul\":2380:2386   */\n      0x00\n        /* \"#utility.yul\":2429:2431   */\n      0x20\n        /* \"#utility.yul\":2417:2426   */\n      dup3\n        /* \"#utility.yul\":2408:2415   */\n      dup5\n        /* \"#utility.yul\":2404:2427   */\n      sub\n        /* \"#utility.yul\":2400:2432   */\n      slt\n        /* \"#utility.yul\":2397:2516   */\n      iszero\n      tag_197\n      jumpi\n        /* \"#utility.yul\":2435:2514   */\n      tag_198\n      tag_199\n      jump\t// in\n    tag_198:\n        /* \"#utility.yul\":2397:2516   */\n    tag_197:\n        /* \"#utility.yul\":2555:2556   */\n      0x00\n        /* \"#utility.yul\":2580:2633   */\n      tag_200\n        /* \"#utility.yul\":2625:2632   */\n      dup5\n        /* \"#utility.yul\":2616:2622   */\n      dup3\n        /* \"#utility.yul\":2605:2614   */\n      dup6\n        /* \"#utility.yul\":2601:2623   */\n      add\n        /* \"#utility.yul\":2580:2633   */\n      tag_183\n      jump\t// in\n    tag_200:\n        /* \"#utility.yul\":2570:2633   */\n      swap2\n      pop\n        /* \"#utility.yul\":2526:2643   */\n      pop\n        /* \"#utility.yul\":2321:2650   */\n      swap3\n      swap2\n      pop\n      pop\n      jump\t// out\n        /* \"#utility.yul\":2656:3965   */\n    tag_24:\n        /* \"#utility.yul\":2838:2844   */\n      0x00\n        /* \"#utility.yul\":2846:2852   */\n      dup1\n        /* \"#utility.yul\":2854:2860   */\n      0x00\n        /* \"#utility.yul\":2903:2905   */\n      0x60\n        /* \"#utility.yul\":2891:2900   */\n      dup5\n        /* \"#utility.yul\":2882:2889   */\n      dup7\n        /* \"#utility.yul\":2878:2901   */\n      sub\n        /* \"#utility.yul\":2874:2906   */\n      slt\n        /* \"#utility.yul\":2871:2990   */\n      iszero\n      tag_202\n      jumpi\n        /* \"#utility.yul\":2909:2988   */\n      tag_203\n      tag_199\n      jump\t// in\n    tag_203:\n        /* \"#utility.yul\":2871:2990   */\n    tag_202:\n        /* \"#utility.yul\":3057:3058   */\n      0x00\n        /* \"#utility.yul\":3046:3055   */\n      dup5\n        /* \"#utility.yul\":3042:3059   */\n      add\n        /* \"#utility.yul\":3029:3060   */\n      calldataload\n        /* \"#utility.yul\":3087:3105   */\n      0xffffffffffffffff\n        /* \"#utility.yul\":3079:3085   */\n      dup2\n        /* \"#utility.yul\":3076:3106   */\n      gt\n        /* \"#utility.yul\":3073:3190   */\n      iszero\n      tag_204\n      jumpi\n        /* \"#utility.yul\":3109:3188   */\n      tag_205\n      tag_206\n      jump\t// in\n    tag_205:\n        /* \"#utility.yul\":3073:3190   */\n    tag_204:\n        /* \"#utility.yul\":3214:3302   */\n      tag_207\n        /* \"#utility.yul\":3294:3301   */\n      dup7\n        /* \"#utility.yul\":3285:3291   */\n      dup3\n        /* \"#utility.yul\":3274:3283   */\n      dup8\n        /* \"#utility.yul\":3270:3292   */\n      add\n        /* \"#utility.yul\":3214:3302   */\n      tag_187\n      jump\t// in\n    tag_207:\n        /* \"#utility.yul\":3204:3302   */\n      swap4\n      pop\n        /* \"#utility.yul\":3000:3312   */\n      pop\n        /* \"#utility.yul\":3379:3381   */\n      0x20\n        /* \"#utility.yul\":3368:3377   */\n      dup5\n        /* \"#utility.yul\":3364:3382   */\n      add\n        /* \"#utility.yul\":3351:3383   */\n      calldataload\n        /* \"#utility.yul\":3410:3428   */\n      0xffffffffffffffff\n        /* \"#utility.yul\":3402:3408   */\n      dup2\n        /* \"#utility.yul\":3399:3429   */\n      gt\n        /* \"#utility.yul\":3396:3513   */\n      iszero\n      tag_208\n      jumpi\n        /* \"#utility.yul\":3432:3511   */\n      tag_209\n      tag_206\n      jump\t// in\n    tag_209:\n        /* \"#utility.yul\":3396:3513   */\n    tag_208:\n        /* \"#utility.yul\":3537:3625   */\n      tag_210\n        /* \"#utility.yul\":3617:3624   */\n      dup7\n        /* \"#utility.yul\":3608:3614   */\n      dup3\n        /* \"#utility.yul\":3597:3606   */\n      dup8\n        /* \"#utility.yul\":3593:3615   */\n      add\n        /* \"#utility.yul\":3537:3625   */\n      tag_187\n      jump\t// in\n    tag_210:\n        /* \"#utility.yul\":3527:3625   */\n      swap3\n      pop\n        /* \"#utility.yul\":3322:3635   */\n      pop\n        /* \"#utility.yul\":3702:3704   */\n      0x40\n        /* \"#utility.yul\":3691:3700   */\n      dup5\n        /* \"#utility.yul\":3687:3705   */\n      add\n        /* \"#utility.yul\":3674:3706   */\n      calldataload\n        /* \"#utility.yul\":3733:3751   */\n      0xffffffffffffffff\n        /* \"#utility.yul\":3725:3731   */\n      dup2\n        /* \"#utility.yul\":3722:3752   */\n      gt\n        /* \"#utility.yul\":3719:3836   */\n      iszero\n      tag_211\n      jumpi\n        /* \"#utility.yul\":3755:3834   */\n      tag_212\n      tag_206\n      jump\t// in\n    tag_212:\n        /* \"#utility.yul\":3719:3836   */\n    tag_211:\n        /* \"#utility.yul\":3860:3948   */\n      tag_213\n        /* \"#utility.yul\":3940:3947   */\n      dup7\n        /* \"#utility.yul\":3931:3937   */\n      dup3\n        /* \"#utility.yul\":3920:3929   */\n      dup8\n        /* \"#utility.yul\":3916:3938   */\n      add\n        /* \"#utility.yul\":3860:3948   */\n      tag_187\n      jump\t// in\n    tag_213:\n        /* \"#utility.yul\":3850:3948   */\n      swap2\n      pop\n        /* \"#utility.yul\":3645:3958   */\n      pop\n        /* \"#utility.yul\":2656:3965   */\n      swap3\n      pop\n      swap3\n      pop\n      swap3\n      jump\t// out\n        /* \"#utility.yul\":3971:5456   */\n    tag_10:\n        /* \"#utility.yul\":4097:4103   */\n      0x00\n        /* \"#utility.yul\":4105:4111   */\n      dup1\n        /* \"#utility.yul\":4113:4119   */\n      0x00\n        /* \"#utility.yul\":4121:4127   */\n      dup1\n        /* \"#utility.yul\":4170:4173   */\n      0x80\n        /* \"#utility.yul\":4158:4167   */\n      dup6\n        /* \"#utility.yul\":4149:4156   */\n      dup8\n        /* \"#utility.yul\":4145:4168   */\n      sub\n        /* \"#utility.yul\":4141:4174   */\n      slt\n        /* \"#utility.yul\":4138:4258   */\n      iszero\n      tag_215\n      jumpi\n        /* \"#utility.yul\":4177:4256   */\n      tag_216\n      tag_199\n      jump\t// in\n    tag_216:\n        /* \"#utility.yul\":4138:4258   */\n    tag_215:\n        /* \"#utility.yul\":4325:4326   */\n      0x00\n        /* \"#utility.yul\":4314:4323   */\n      dup6\n        /* \"#utility.yul\":4310:4327   */\n      add\n        /* \"#utility.yul\":4297:4328   */\n      calldataload\n        /* \"#utility.yul\":4355:4373   */\n      0xffffffffffffffff\n        /* \"#utility.yul\":4347:4353   */\n      dup2\n        /* \"#utility.yul\":4344:4374   */\n      gt\n        /* \"#utility.yul\":4341:4458   */\n      iszero\n      tag_217\n      jumpi\n        /* \"#utility.yul\":4377:4456   */\n      tag_218\n      tag_206\n      jump\t// in\n    tag_218:\n        /* \"#utility.yul\":4341:4458   */\n    tag_217:\n        /* \"#utility.yul\":4482:4545   */\n      tag_219\n        /* \"#utility.yul\":4537:4544   */\n      dup8\n        /* \"#utility.yul\":4528:4534   */\n      dup3\n        /* \"#utility.yul\":4517:4526   */\n      dup9\n        /* \"#utility.yul\":4513:4535   */\n      add\n        /* \"#utility.yul\":4482:4545   */\n      tag_172\n      jump\t// in\n    tag_219:\n        /* \"#utility.yul\":4472:4545   */\n      swap5\n      pop\n        /* \"#utility.yul\":4268:4555   */\n      pop\n        /* \"#utility.yul\":4622:4624   */\n      0x20\n        /* \"#utility.yul\":4611:4620   */\n      dup6\n        /* \"#utility.yul\":4607:4625   */\n      add\n        /* \"#utility.yul\":4594:4626   */\n      calldataload\n        /* \"#utility.yul\":4653:4671   */\n      0xffffffffffffffff\n        /* \"#utility.yul\":4645:4651   */\n      dup2\n        /* \"#utility.yul\":4642:4672   */\n      gt\n        /* \"#utility.yul\":4639:4756   */\n      iszero\n      tag_220\n      jumpi\n        /* \"#utility.yul\":4675:4754   */\n      tag_221\n      tag_206\n      jump\t// in\n    tag_221:\n        /* \"#utility.yul\":4639:4756   */\n    tag_220:\n        /* \"#utility.yul\":4780:4843   */\n      tag_222\n        /* \"#utility.yul\":4835:4842   */\n      dup8\n        /* \"#utility.yul\":4826:4832   */\n      dup3\n        /* \"#utility.yul\":4815:4824   */\n      dup9\n        /* \"#utility.yul\":4811:4833   */\n      add\n        /* \"#utility.yul\":4780:4843   */\n      tag_172\n      jump\t// in\n    tag_222:\n        /* \"#utility.yul\":4770:4843   */\n      swap4\n      pop\n        /* \"#utility.yul\":4565:4853   */\n      pop\n        /* \"#utility.yul\":4920:4922   */\n      0x40\n        /* \"#utility.yul\":4909:4918   */\n      dup6\n        /* \"#utility.yul\":4905:4923   */\n      add\n        /* \"#utility.yul\":4892:4924   */\n      calldataload\n        /* \"#utility.yul\":4951:4969   */\n      0xffffffffffffffff\n        /* \"#utility.yul\":4943:4949   */\n      dup2\n        /* \"#utility.yul\":4940:4970   */\n      gt\n        /* \"#utility.yul\":4937:5054   */\n      iszero\n      tag_223\n      jumpi\n        /* \"#utility.yul\":4973:5052   */\n      tag_224\n      tag_206\n      jump\t// in\n    tag_224:\n        /* \"#utility.yul\":4937:5054   */\n    tag_223:\n        /* \"#utility.yul\":5078:5141   */\n      tag_225\n        /* \"#utility.yul\":5133:5140   */\n      dup8\n        /* \"#utility.yul\":5124:5130   */\n      dup3\n        /* \"#utility.yul\":5113:5122   */\n      dup9\n        /* \"#utility.yul\":5109:5131   */\n      add\n        /* \"#utility.yul\":5078:5141   */\n      tag_172\n      jump\t// in\n    tag_225:\n        /* \"#utility.yul\":5068:5141   */\n      swap3\n      pop\n        /* \"#utility.yul\":4863:5151   */\n      pop\n        /* \"#utility.yul\":5218:5220   */\n      0x60\n        /* \"#utility.yul\":5207:5216   */\n      dup6\n        /* \"#utility.yul\":5203:5221   */\n      add\n        /* \"#utility.yul\":5190:5222   */\n      calldataload\n        /* \"#utility.yul\":5249:5267   */\n      0xffffffffffffffff\n        /* \"#utility.yul\":5241:5247   */\n      dup2\n        /* \"#utility.yul\":5238:5268   */\n      gt\n        /* \"#utility.yul\":5235:5352   */\n      iszero\n      tag_226\n      jumpi\n        /* \"#utility.yul\":5271:5350   */\n      tag_227\n      tag_206\n      jump\t// in\n    tag_227:\n        /* \"#utility.yul\":5235:5352   */\n    tag_226:\n        /* \"#utility.yul\":5376:5439   */\n      tag_228\n        /* \"#utility.yul\":5431:5438   */\n      dup8\n        /* \"#utility.yul\":5422:5428   */\n      dup3\n        /* \"#utility.yul\":5411:5420   */\n      dup9\n        /* \"#utility.yul\":5407:5429   */\n      add\n        /* \"#utility.yul\":5376:5439   */\n      tag_172\n      jump\t// in\n    tag_228:\n        /* \"#utility.yul\":5366:5439   */\n      swap2\n      pop\n        /* \"#utility.yul\":5161:5449   */\n      pop\n        /* \"#utility.yul\":3971:5456   */\n      swap3\n      swap6\n      swap2\n      swap5\n      pop\n      swap3\n      pop\n      jump\t// out\n        /* \"#utility.yul\":5462:7273   */\n    tag_14:\n        /* \"#utility.yul\":5607:5613   */\n      0x00\n        /* \"#utility.yul\":5615:5621   */\n      dup1\n        /* \"#utility.yul\":5623:5629   */\n      0x00\n        /* \"#utility.yul\":5631:5637   */\n      dup1\n        /* \"#utility.yul\":5639:5645   */\n      0x00\n        /* \"#utility.yul\":5688:5691   */\n      0xa0\n        /* \"#utility.yul\":5676:5685   */\n      dup7\n        /* \"#utility.yul\":5667:5674   */\n      dup9\n        /* \"#utility.yul\":5663:5686   */\n      sub\n        /* \"#utility.yul\":5659:5692   */\n      slt\n        /* \"#utility.yul\":5656:5776   */\n      iszero\n      tag_230\n      jumpi\n        /* \"#utility.yul\":5695:5774   */\n      tag_231\n      tag_199\n      jump\t// in\n    tag_231:\n        /* \"#utility.yul\":5656:5776   */\n    tag_230:\n        /* \"#utility.yul\":5843:5844   */\n      0x00\n        /* \"#utility.yul\":5832:5841   */\n      dup7\n        /* \"#utility.yul\":5828:5845   */\n      add\n        /* \"#utility.yul\":5815:5846   */\n      calldataload\n        /* \"#utility.yul\":5873:5891   */\n      0xffffffffffffffff\n        /* \"#utility.yul\":5865:5871   */\n      dup2\n        /* \"#utility.yul\":5862:5892   */\n      gt\n        /* \"#utility.yul\":5859:5976   */\n      iszero\n      tag_232\n      jumpi\n        /* \"#utility.yul\":5895:5974   */\n      tag_233\n      tag_206\n      jump\t// in\n    tag_233:\n        /* \"#utility.yul\":5859:5976   */\n    tag_232:\n        /* \"#utility.yul\":6000:6063   */\n      tag_234\n        /* \"#utility.yul\":6055:6062   */\n      dup9\n        /* \"#utility.yul\":6046:6052   */\n      dup3\n        /* \"#utility.yul\":6035:6044   */\n      dup10\n        /* \"#utility.yul\":6031:6053   */\n      add\n        /* \"#utility.yul\":6000:6063   */\n      tag_172\n      jump\t// in\n    tag_234:\n        /* \"#utility.yul\":5990:6063   */\n      swap6\n      pop\n        /* \"#utility.yul\":5786:6073   */\n      pop\n        /* \"#utility.yul\":6140:6142   */\n      0x20\n        /* \"#utility.yul\":6129:6138   */\n      dup7\n        /* \"#utility.yul\":6125:6143   */\n      add\n        /* \"#utility.yul\":6112:6144   */\n      calldataload\n        /* \"#utility.yul\":6171:6189   */\n      0xffffffffffffffff\n        /* \"#utility.yul\":6163:6169   */\n      dup2\n        /* \"#utility.yul\":6160:6190   */\n      gt\n        /* \"#utility.yul\":6157:6274   */\n      iszero\n      tag_235\n      jumpi\n        /* \"#utility.yul\":6193:6272   */\n      tag_236\n      tag_206\n      jump\t// in\n    tag_236:\n        /* \"#utility.yul\":6157:6274   */\n    tag_235:\n        /* \"#utility.yul\":6298:6361   */\n      tag_237\n        /* \"#utility.yul\":6353:6360   */\n      dup9\n        /* \"#utility.yul\":6344:6350   */\n      dup3\n        /* \"#utility.yul\":6333:6342   */\n      dup10\n        /* \"#utility.yul\":6329:6351   */\n      add\n        /* \"#utility.yul\":6298:6361   */\n      tag_172\n      jump\t// in\n    tag_237:\n        /* \"#utility.yul\":6288:6361   */\n      swap5\n      pop\n        /* \"#utility.yul\":6083:6371   */\n      pop\n        /* \"#utility.yul\":6438:6440   */\n      0x40\n        /* \"#utility.yul\":6427:6436   */\n      dup7\n        /* \"#utility.yul\":6423:6441   */\n      add\n        /* \"#utility.yul\":6410:6442   */\n      calldataload\n        /* \"#utility.yul\":6469:6487   */\n      0xffffffffffffffff\n        /* \"#utility.yul\":6461:6467   */\n      dup2\n        /* \"#utility.yul\":6458:6488   */\n      gt\n        /* \"#utility.yul\":6455:6572   */\n      iszero\n      tag_238\n      jumpi\n        /* \"#utility.yul\":6491:6570   */\n      tag_239\n      tag_206\n      jump\t// in\n    tag_239:\n        /* \"#utility.yul\":6455:6572   */\n    tag_238:\n        /* \"#utility.yul\":6596:6659   */\n      tag_240\n        /* \"#utility.yul\":6651:6658   */\n      dup9\n        /* \"#utility.yul\":6642:6648   */\n      dup3\n        /* \"#utility.yul\":6631:6640   */\n      dup10\n        /* \"#utility.yul\":6627:6649   */\n      add\n        /* \"#utility.yul\":6596:6659   */\n      tag_172\n      jump\t// in\n    tag_240:\n        /* \"#utility.yul\":6586:6659   */\n      swap4\n      pop\n        /* \"#utility.yul\":6381:6669   */\n      pop\n        /* \"#utility.yul\":6736:6738   */\n      0x60\n        /* \"#utility.yul\":6725:6734   */\n      dup7\n        /* \"#utility.yul\":6721:6739   */\n      add\n        /* \"#utility.yul\":6708:6740   */\n      calldataload\n        /* \"#utility.yul\":6767:6785   */\n      0xffffffffffffffff\n        /* \"#utility.yul\":6759:6765   */\n      dup2\n        /* \"#utility.yul\":6756:6786   */\n      gt\n        /* \"#utility.yul\":6753:6870   */\n      iszero\n      tag_241\n      jumpi\n        /* \"#utility.yul\":6789:6868   */\n      tag_242\n      tag_206\n      jump\t// in\n    tag_242:\n        /* \"#utility.yul\":6753:6870   */\n    tag_241:\n        /* \"#utility.yul\":6894:6957   */\n      tag_243\n        /* \"#utility.yul\":6949:6956   */\n      dup9\n        /* \"#utility.yul\":6940:6946   */\n      dup3\n        /* \"#utility.yul\":6929:6938   */\n      dup10\n        /* \"#utility.yul\":6925:6947   */\n      add\n        /* \"#utility.yul\":6894:6957   */\n      tag_172\n      jump\t// in\n    tag_243:\n        /* \"#utility.yul\":6884:6957   */\n      swap3\n      pop\n        /* \"#utility.yul\":6679:6967   */\n      pop\n        /* \"#utility.yul\":7034:7037   */\n      0x80\n        /* \"#utility.yul\":7023:7032   */\n      dup7\n        /* \"#utility.yul\":7019:7038   */\n      add\n        /* \"#utility.yul\":7006:7039   */\n      calldataload\n        /* \"#utility.yul\":7066:7084   */\n      0xffffffffffffffff\n        /* \"#utility.yul\":7058:7064   */\n      dup2\n        /* \"#utility.yul\":7055:7085   */\n      gt\n        /* \"#utility.yul\":7052:7169   */\n      iszero\n      tag_244\n      jumpi\n        /* \"#utility.yul\":7088:7167   */\n      tag_245\n      tag_206\n      jump\t// in\n    tag_245:\n        /* \"#utility.yul\":7052:7169   */\n    tag_244:\n        /* \"#utility.yul\":7193:7256   */\n      tag_246\n        /* \"#utility.yul\":7248:7255   */\n      dup9\n        /* \"#utility.yul\":7239:7245   */\n      dup3\n        /* \"#utility.yul\":7228:7237   */\n      dup10\n        /* \"#utility.yul\":7224:7246   */\n      add\n        /* \"#utility.yul\":7193:7256   */\n      tag_172\n      jump\t// in\n    tag_246:\n        /* \"#utility.yul\":7183:7256   */\n      swap2\n      pop\n        /* \"#utility.yul\":6977:7266   */\n      pop\n        /* \"#utility.yul\":5462:7273   */\n      swap3\n      swap6\n      pop\n      swap3\n      swap6\n      swap1\n      swap4\n      pop\n      jump\t// out\n        /* \"#utility.yul\":7279:7475   */\n    tag_247:\n        /* \"#utility.yul\":7368:7378   */\n      0x00\n        /* \"#utility.yul\":7403:7469   */\n      tag_249\n        /* \"#utility.yul\":7465:7468   */\n      dup4\n        /* \"#utility.yul\":7457:7463   */\n      dup4\n        /* \"#utility.yul\":7403:7469   */\n      tag_250\n      jump\t// in\n    tag_249:\n        /* \"#utility.yul\":7389:7469   */\n      swap1\n      pop\n        /* \"#utility.yul\":7279:7475   */\n      swap3\n      swap2\n      pop\n      pop\n      jump\t// out\n        /* \"#utility.yul\":7481:7599   */\n    tag_251:\n        /* \"#utility.yul\":7568:7592   */\n      tag_253\n        /* \"#utility.yul\":7586:7591   */\n      dup2\n        /* \"#utility.yul\":7568:7592   */\n      tag_254\n      jump\t// in\n    tag_253:\n        /* \"#utility.yul\":7563:7566   */\n      dup3\n        /* \"#utility.yul\":7556:7593   */\n      mstore\n        /* \"#utility.yul\":7481:7599   */\n      pop\n      pop\n      jump\t// out\n        /* \"#utility.yul\":7633:8604   */\n    tag_255:\n        /* \"#utility.yul\":7762:7765   */\n      0x00\n        /* \"#utility.yul\":7791:7855   */\n      tag_257\n        /* \"#utility.yul\":7849:7854   */\n      dup3\n        /* \"#utility.yul\":7791:7855   */\n      tag_258\n      jump\t// in\n    tag_257:\n        /* \"#utility.yul\":7871:7957   */\n      tag_259\n        /* \"#utility.yul\":7950:7956   */\n      dup2\n        /* \"#utility.yul\":7945:7948   */\n      dup6\n        /* \"#utility.yul\":7871:7957   */\n      tag_260\n      jump\t// in\n    tag_259:\n        /* \"#utility.yul\":7864:7957   */\n      swap4\n      pop\n        /* \"#utility.yul\":7983:7986   */\n      dup4\n        /* \"#utility.yul\":8028:8032   */\n      0x20\n        /* \"#utility.yul\":8020:8026   */\n      dup3\n        /* \"#utility.yul\":8016:8033   */\n      mul\n        /* \"#utility.yul\":8011:8014   */\n      dup6\n        /* \"#utility.yul\":8007:8034   */\n      add\n        /* \"#utility.yul\":8058:8124   */\n      tag_261\n        /* \"#utility.yul\":8118:8123   */\n      dup6\n        /* \"#utility.yul\":8058:8124   */\n      tag_262\n      jump\t// in\n    tag_261:\n        /* \"#utility.yul\":8147:8154   */\n      dup1\n        /* \"#utility.yul\":8178:8179   */\n      0x00\n        /* \"#utility.yul\":8163:8559   */\n    tag_263:\n        /* \"#utility.yul\":8188:8194   */\n      dup6\n        /* \"#utility.yul\":8185:8186   */\n      dup2\n        /* \"#utility.yul\":8182:8195   */\n      lt\n        /* \"#utility.yul\":8163:8559   */\n      iszero\n      tag_265\n      jumpi\n        /* \"#utility.yul\":8259:8268   */\n      dup5\n        /* \"#utility.yul\":8253:8257   */\n      dup5\n        /* \"#utility.yul\":8249:8269   */\n      sub\n        /* \"#utility.yul\":8244:8247   */\n      dup10\n        /* \"#utility.yul\":8237:8270   */\n      mstore\n        /* \"#utility.yul\":8310:8316   */\n      dup2\n        /* \"#utility.yul\":8304:8317   */\n      mload\n        /* \"#utility.yul\":8338:8422   */\n      tag_266\n        /* \"#utility.yul\":8417:8421   */\n      dup6\n        /* \"#utility.yul\":8402:8415   */\n      dup3\n        /* \"#utility.yul\":8338:8422   */\n      tag_247\n      jump\t// in\n    tag_266:\n        /* \"#utility.yul\":8330:8422   */\n      swap5\n      pop\n        /* \"#utility.yul\":8445:8515   */\n      tag_267\n        /* \"#utility.yul\":8508:8514   */\n      dup4\n        /* \"#utility.yul\":8445:8515   */\n      tag_268\n      jump\t// in\n    tag_267:\n        /* \"#utility.yul\":8435:8515   */\n      swap3\n      pop\n        /* \"#utility.yul\":8544:8548   */\n      0x20\n        /* \"#utility.yul\":8539:8542   */\n      dup11\n        /* \"#utility.yul\":8535:8549   */\n      add\n        /* \"#utility.yul\":8528:8549   */\n      swap10\n      pop\n        /* \"#utility.yul\":8223:8559   */\n      pop\n        /* \"#utility.yul\":8210:8211   */\n      0x01\n        /* \"#utility.yul\":8207:8208   */\n      dup2\n        /* \"#utility.yul\":8203:8212   */\n      add\n        /* \"#utility.yul\":8198:8212   */\n      swap1\n      pop\n        /* \"#utility.yul\":8163:8559   */\n      jump(tag_263)\n    tag_265:\n        /* \"#utility.yul\":8167:8181   */\n      pop\n        /* \"#utility.yul\":8575:8579   */\n      dup3\n        /* \"#utility.yul\":8568:8579   */\n      swap8\n      pop\n        /* \"#utility.yul\":8595:8598   */\n      dup8\n        /* \"#utility.yul\":8588:8598   */\n      swap6\n      pop\n        /* \"#utility.yul\":7767:8604   */\n      pop\n      pop\n      pop\n      pop\n      pop\n        /* \"#utility.yul\":7633:8604   */\n      swap3\n      swap2\n      pop\n      pop\n      jump\t// out\n        /* \"#utility.yul\":8610:8954   */\n    tag_250:\n        /* \"#utility.yul\":8688:8691   */\n      0x00\n        /* \"#utility.yul\":8716:8755   */\n      tag_270\n        /* \"#utility.yul\":8749:8754   */\n      dup3\n        /* \"#utility.yul\":8716:8755   */\n      tag_271\n      jump\t// in\n    tag_270:\n        /* \"#utility.yul\":8771:8832   */\n      tag_272\n        /* \"#utility.yul\":8825:8831   */\n      dup2\n        /* \"#utility.yul\":8820:8823   */\n      dup6\n        /* \"#utility.yul\":8771:8832   */\n      tag_273\n      jump\t// in\n    tag_272:\n        /* \"#utility.yul\":8764:8832   */\n      swap4\n      pop\n        /* \"#utility.yul\":8841:8893   */\n      tag_274\n        /* \"#utility.yul\":8886:8892   */\n      dup2\n        /* \"#utility.yul\":8881:8884   */\n      dup6\n        /* \"#utility.yul\":8874:8878   */\n      0x20\n        /* \"#utility.yul\":8867:8872   */\n      dup7\n        /* \"#utility.yul\":8863:8879   */\n      add\n        /* \"#utility.yul\":8841:8893   */\n      tag_275\n      jump\t// in\n    tag_274:\n        /* \"#utility.yul\":8918:8947   */\n      tag_276\n        /* \"#utility.yul\":8940:8946   */\n      dup2\n        /* \"#utility.yul\":8918:8947   */\n      tag_277\n      jump\t// in\n    tag_276:\n        /* \"#utility.yul\":8913:8916   */\n      dup5\n        /* \"#utility.yul\":8909:8948   */\n      add\n        /* \"#utility.yul\":8902:8948   */\n      swap2\n      pop\n        /* \"#utility.yul\":8692:8954   */\n      pop\n        /* \"#utility.yul\":8610:8954   */\n      swap3\n      swap2\n      pop\n      pop\n      jump\t// out\n        /* \"#utility.yul\":8960:9324   */\n    tag_278:\n        /* \"#utility.yul\":9048:9051   */\n      0x00\n        /* \"#utility.yul\":9076:9115   */\n      tag_280\n        /* \"#utility.yul\":9109:9114   */\n      dup3\n        /* \"#utility.yul\":9076:9115   */\n      tag_271\n      jump\t// in\n    tag_280:\n        /* \"#utility.yul\":9131:9202   */\n      tag_281\n        /* \"#utility.yul\":9195:9201   */\n      dup2\n        /* \"#utility.yul\":9190:9193   */\n      dup6\n        /* \"#utility.yul\":9131:9202   */\n      tag_282\n      jump\t// in\n    tag_281:\n        /* \"#utility.yul\":9124:9202   */\n      swap4\n      pop\n        /* \"#utility.yul\":9211:9263   */\n      tag_283\n        /* \"#utility.yul\":9256:9262   */\n      dup2\n        /* \"#utility.yul\":9251:9254   */\n      dup6\n        /* \"#utility.yul\":9244:9248   */\n      0x20\n        /* \"#utility.yul\":9237:9242   */\n      dup7\n        /* \"#utility.yul\":9233:9249   */\n      add\n        /* \"#utility.yul\":9211:9263   */\n      tag_275\n      jump\t// in\n    tag_283:\n        /* \"#utility.yul\":9288:9317   */\n      tag_284\n        /* \"#utility.yul\":9310:9316   */\n      dup2\n        /* \"#utility.yul\":9288:9317   */\n      tag_277\n      jump\t// in\n    tag_284:\n        /* \"#utility.yul\":9283:9286   */\n      dup5\n        /* \"#utility.yul\":9279:9318   */\n      add\n        /* \"#utility.yul\":9272:9318   */\n      swap2\n      pop\n        /* \"#utility.yul\":9052:9324   */\n      pop\n        /* \"#utility.yul\":8960:9324   */\n      swap3\n      swap2\n      pop\n      pop\n      jump\t// out\n        /* \"#utility.yul\":9388:10806   */\n    tag_285:\n        /* \"#utility.yul\":9505:9508   */\n      0x00\n        /* \"#utility.yul\":9541:9545   */\n      0xa0\n        /* \"#utility.yul\":9536:9539   */\n      dup4\n        /* \"#utility.yul\":9532:9546   */\n      add\n        /* \"#utility.yul\":9629:9633   */\n      0x00\n        /* \"#utility.yul\":9622:9627   */\n      dup4\n        /* \"#utility.yul\":9618:9634   */\n      add\n        /* \"#utility.yul\":9612:9635   */\n      mload\n        /* \"#utility.yul\":9682:9685   */\n      dup5\n        /* \"#utility.yul\":9676:9680   */\n      dup3\n        /* \"#utility.yul\":9672:9686   */\n      sub\n        /* \"#utility.yul\":9665:9669   */\n      0x00\n        /* \"#utility.yul\":9660:9663   */\n      dup7\n        /* \"#utility.yul\":9656:9670   */\n      add\n        /* \"#utility.yul\":9649:9687   */\n      mstore\n        /* \"#utility.yul\":9708:9781   */\n      tag_287\n        /* \"#utility.yul\":9776:9780   */\n      dup3\n        /* \"#utility.yul\":9762:9774   */\n      dup3\n        /* \"#utility.yul\":9708:9781   */\n      tag_250\n      jump\t// in\n    tag_287:\n        /* \"#utility.yul\":9700:9781   */\n      swap2\n      pop\n        /* \"#utility.yul\":9556:9792   */\n      pop\n        /* \"#utility.yul\":9875:9879   */\n      0x20\n        /* \"#utility.yul\":9868:9873   */\n      dup4\n        /* \"#utility.yul\":9864:9880   */\n      add\n        /* \"#utility.yul\":9858:9881   */\n      mload\n        /* \"#utility.yul\":9928:9931   */\n      dup5\n        /* \"#utility.yul\":9922:9926   */\n      dup3\n        /* \"#utility.yul\":9918:9932   */\n      sub\n        /* \"#utility.yul\":9911:9915   */\n      0x20\n        /* \"#utility.yul\":9906:9909   */\n      dup7\n        /* \"#utility.yul\":9902:9916   */\n      add\n        /* \"#utility.yul\":9895:9933   */\n      mstore\n        /* \"#utility.yul\":9954:10027   */\n      tag_288\n        /* \"#utility.yul\":10022:10026   */\n      dup3\n        /* \"#utility.yul\":10008:10020   */\n      dup3\n        /* \"#utility.yul\":9954:10027   */\n      tag_250\n      jump\t// in\n    tag_288:\n        /* \"#utility.yul\":9946:10027   */\n      swap2\n      pop\n        /* \"#utility.yul\":9802:10038   */\n      pop\n        /* \"#utility.yul\":10122:10126   */\n      0x40\n        /* \"#utility.yul\":10115:10120   */\n      dup4\n        /* \"#utility.yul\":10111:10127   */\n      add\n        /* \"#utility.yul\":10105:10128   */\n      mload\n        /* \"#utility.yul\":10175:10178   */\n      dup5\n        /* \"#utility.yul\":10169:10173   */\n      dup3\n        /* \"#utility.yul\":10165:10179   */\n      sub\n        /* \"#utility.yul\":10158:10162   */\n      0x40\n        /* \"#utility.yul\":10153:10156   */\n      dup7\n        /* \"#utility.yul\":10149:10163   */\n      add\n        /* \"#utility.yul\":10142:10180   */\n      mstore\n        /* \"#utility.yul\":10201:10274   */\n      tag_289\n        /* \"#utility.yul\":10269:10273   */\n      dup3\n        /* \"#utility.yul\":10255:10267   */\n      dup3\n        /* \"#utility.yul\":10201:10274   */\n      tag_250\n      jump\t// in\n    tag_289:\n        /* \"#utility.yul\":10193:10274   */\n      swap2\n      pop\n        /* \"#utility.yul\":10048:10285   */\n      pop\n        /* \"#utility.yul\":10369:10373   */\n      0x60\n        /* \"#utility.yul\":10362:10367   */\n      dup4\n        /* \"#utility.yul\":10358:10374   */\n      add\n        /* \"#utility.yul\":10352:10375   */\n      mload\n        /* \"#utility.yul\":10422:10425   */\n      dup5\n        /* \"#utility.yul\":10416:10420   */\n      dup3\n        /* \"#utility.yul\":10412:10426   */\n      sub\n        /* \"#utility.yul\":10405:10409   */\n      0x60\n        /* \"#utility.yul\":10400:10403   */\n      dup7\n        /* \"#utility.yul\":10396:10410   */\n      add\n        /* \"#utility.yul\":10389:10427   */\n      mstore\n        /* \"#utility.yul\":10448:10521   */\n      tag_290\n        /* \"#utility.yul\":10516:10520   */\n      dup3\n        /* \"#utility.yul\":10502:10514   */\n      dup3\n        /* \"#utility.yul\":10448:10521   */\n      tag_250\n      jump\t// in\n    tag_290:\n        /* \"#utility.yul\":10440:10521   */\n      swap2\n      pop\n        /* \"#utility.yul\":10295:10532   */\n      pop\n        /* \"#utility.yul\":10616:10620   */\n      0x80\n        /* \"#utility.yul\":10609:10614   */\n      dup4\n        /* \"#utility.yul\":10605:10621   */\n      add\n        /* \"#utility.yul\":10599:10622   */\n      mload\n        /* \"#utility.yul\":10669:10672   */\n      dup5\n        /* \"#utility.yul\":10663:10667   */\n      dup3\n        /* \"#utility.yul\":10659:10673   */\n      sub\n        /* \"#utility.yul\":10652:10656   */\n      0x80\n        /* \"#utility.yul\":10647:10650   */\n      dup7\n        /* \"#utility.yul\":10643:10657   */\n      add\n        /* \"#utility.yul\":10636:10674   */\n      mstore\n        /* \"#utility.yul\":10695:10768   */\n      tag_291\n        /* \"#utility.yul\":10763:10767   */\n      dup3\n        /* \"#utility.yul\":10749:10761   */\n      dup3\n        /* \"#utility.yul\":10695:10768   */\n      tag_250\n      jump\t// in\n    tag_291:\n        /* \"#utility.yul\":10687:10768   */\n      swap2\n      pop\n        /* \"#utility.yul\":10542:10779   */\n      pop\n        /* \"#utility.yul\":10796:10800   */\n      dup1\n        /* \"#utility.yul\":10789:10800   */\n      swap2\n      pop\n        /* \"#utility.yul\":9510:10806   */\n      pop\n        /* \"#utility.yul\":9388:10806   */\n      swap3\n      swap2\n      pop\n      pop\n      jump\t// out\n        /* \"#utility.yul\":10864:11940   */\n    tag_292:\n        /* \"#utility.yul\":10975:10978   */\n      0x00\n        /* \"#utility.yul\":11011:11015   */\n      0x60\n        /* \"#utility.yul\":11006:11009   */\n      dup4\n        /* \"#utility.yul\":11002:11016   */\n      add\n        /* \"#utility.yul\":11102:11106   */\n      0x00\n        /* \"#utility.yul\":11095:11100   */\n      dup4\n        /* \"#utility.yul\":11091:11107   */\n      add\n        /* \"#utility.yul\":11085:11108   */\n      mload\n        /* \"#utility.yul\":11155:11158   */\n      dup5\n        /* \"#utility.yul\":11149:11153   */\n      dup3\n        /* \"#utility.yul\":11145:11159   */\n      sub\n        /* \"#utility.yul\":11138:11142   */\n      0x00\n        /* \"#utility.yul\":11133:11136   */\n      dup7\n        /* \"#utility.yul\":11129:11143   */\n      add\n        /* \"#utility.yul\":11122:11160   */\n      mstore\n        /* \"#utility.yul\":11181:11304   */\n      tag_294\n        /* \"#utility.yul\":11299:11303   */\n      dup3\n        /* \"#utility.yul\":11285:11297   */\n      dup3\n        /* \"#utility.yul\":11181:11304   */\n      tag_255\n      jump\t// in\n    tag_294:\n        /* \"#utility.yul\":11173:11304   */\n      swap2\n      pop\n        /* \"#utility.yul\":11026:11315   */\n      pop\n        /* \"#utility.yul\":11400:11404   */\n      0x20\n        /* \"#utility.yul\":11393:11398   */\n      dup4\n        /* \"#utility.yul\":11389:11405   */\n      add\n        /* \"#utility.yul\":11383:11406   */\n      mload\n        /* \"#utility.yul\":11453:11456   */\n      dup5\n        /* \"#utility.yul\":11447:11451   */\n      dup3\n        /* \"#utility.yul\":11443:11457   */\n      sub\n        /* \"#utility.yul\":11436:11440   */\n      0x20\n        /* \"#utility.yul\":11431:11434   */\n      dup7\n        /* \"#utility.yul\":11427:11441   */\n      add\n        /* \"#utility.yul\":11420:11458   */\n      mstore\n        /* \"#utility.yul\":11479:11602   */\n      tag_295\n        /* \"#utility.yul\":11597:11601   */\n      dup3\n        /* \"#utility.yul\":11583:11595   */\n      dup3\n        /* \"#utility.yul\":11479:11602   */\n      tag_255\n      jump\t// in\n    tag_295:\n        /* \"#utility.yul\":11471:11602   */\n      swap2\n      pop\n        /* \"#utility.yul\":11325:11613   */\n      pop\n        /* \"#utility.yul\":11700:11704   */\n      0x40\n        /* \"#utility.yul\":11693:11698   */\n      dup4\n        /* \"#utility.yul\":11689:11705   */\n      add\n        /* \"#utility.yul\":11683:11706   */\n      mload\n        /* \"#utility.yul\":11753:11756   */\n      dup5\n        /* \"#utility.yul\":11747:11751   */\n      dup3\n        /* \"#utility.yul\":11743:11757   */\n      sub\n        /* \"#utility.yul\":11736:11740   */\n      0x40\n        /* \"#utility.yul\":11731:11734   */\n      dup7\n        /* \"#utility.yul\":11727:11741   */\n      add\n        /* \"#utility.yul\":11720:11758   */\n      mstore\n        /* \"#utility.yul\":11779:11902   */\n      tag_296\n        /* \"#utility.yul\":11897:11901   */\n      dup3\n        /* \"#utility.yul\":11883:11895   */\n      dup3\n        /* \"#utility.yul\":11779:11902   */\n      tag_255\n      jump\t// in\n    tag_296:\n        /* \"#utility.yul\":11771:11902   */\n      swap2\n      pop\n        /* \"#utility.yul\":11623:11913   */\n      pop\n        /* \"#utility.yul\":11930:11934   */\n      dup1\n        /* \"#utility.yul\":11923:11934   */\n      swap2\n      pop\n        /* \"#utility.yul\":10980:11940   */\n      pop\n        /* \"#utility.yul\":10864:11940   */\n      swap3\n      swap2\n      pop\n      pop\n      jump\t// out\n        /* \"#utility.yul\":11946:12064   */\n    tag_297:\n        /* \"#utility.yul\":12033:12057   */\n      tag_299\n        /* \"#utility.yul\":12051:12056   */\n      dup2\n        /* \"#utility.yul\":12033:12057   */\n      tag_300\n      jump\t// in\n    tag_299:\n        /* \"#utility.yul\":12028:12031   */\n      dup3\n        /* \"#utility.yul\":12021:12058   */\n      mstore\n        /* \"#utility.yul\":11946:12064   */\n      pop\n      pop\n      jump\t// out\n        /* \"#utility.yul\":12070:13713   */\n    tag_21:\n        /* \"#utility.yul\":12529:12533   */\n      0x00\n        /* \"#utility.yul\":12567:12570   */\n      0x0100\n        /* \"#utility.yul\":12556:12565   */\n      dup3\n        /* \"#utility.yul\":12552:12571   */\n      add\n        /* \"#utility.yul\":12544:12571   */\n      swap1\n      pop\n        /* \"#utility.yul\":12581:12652   */\n      tag_302\n        /* \"#utility.yul\":12649:12650   */\n      0x00\n        /* \"#utility.yul\":12638:12647   */\n      dup4\n        /* \"#utility.yul\":12634:12651   */\n      add\n        /* \"#utility.yul\":12625:12631   */\n      dup12\n        /* \"#utility.yul\":12581:12652   */\n      tag_251\n      jump\t// in\n    tag_302:\n        /* \"#utility.yul\":12699:12708   */\n      dup2\n        /* \"#utility.yul\":12693:12697   */\n      dup2\n        /* \"#utility.yul\":12689:12709   */\n      sub\n        /* \"#utility.yul\":12684:12686   */\n      0x20\n        /* \"#utility.yul\":12673:12682   */\n      dup4\n        /* \"#utility.yul\":12669:12687   */\n      add\n        /* \"#utility.yul\":12662:12710   */\n      mstore\n        /* \"#utility.yul\":12727:12805   */\n      tag_303\n        /* \"#utility.yul\":12800:12804   */\n      dup2\n        /* \"#utility.yul\":12791:12797   */\n      dup11\n        /* \"#utility.yul\":12727:12805   */\n      tag_278\n      jump\t// in\n    tag_303:\n        /* \"#utility.yul\":12719:12805   */\n      swap1\n      pop\n        /* \"#utility.yul\":12852:12861   */\n      dup2\n        /* \"#utility.yul\":12846:12850   */\n      dup2\n        /* \"#utility.yul\":12842:12862   */\n      sub\n        /* \"#utility.yul\":12837:12839   */\n      0x40\n        /* \"#utility.yul\":12826:12835   */\n      dup4\n        /* \"#utility.yul\":12822:12840   */\n      add\n        /* \"#utility.yul\":12815:12863   */\n      mstore\n        /* \"#utility.yul\":12880:12958   */\n      tag_304\n        /* \"#utility.yul\":12953:12957   */\n      dup2\n        /* \"#utility.yul\":12944:12950   */\n      dup10\n        /* \"#utility.yul\":12880:12958   */\n      tag_278\n      jump\t// in\n    tag_304:\n        /* \"#utility.yul\":12872:12958   */\n      swap1\n      pop\n        /* \"#utility.yul\":13005:13014   */\n      dup2\n        /* \"#utility.yul\":12999:13003   */\n      dup2\n        /* \"#utility.yul\":12995:13015   */\n      sub\n        /* \"#utility.yul\":12990:12992   */\n      0x60\n        /* \"#utility.yul\":12979:12988   */\n      dup4\n        /* \"#utility.yul\":12975:12993   */\n      add\n        /* \"#utility.yul\":12968:13016   */\n      mstore\n        /* \"#utility.yul\":13033:13111   */\n      tag_305\n        /* \"#utility.yul\":13106:13110   */\n      dup2\n        /* \"#utility.yul\":13097:13103   */\n      dup9\n        /* \"#utility.yul\":13033:13111   */\n      tag_278\n      jump\t// in\n    tag_305:\n        /* \"#utility.yul\":13025:13111   */\n      swap1\n      pop\n        /* \"#utility.yul\":13159:13168   */\n      dup2\n        /* \"#utility.yul\":13153:13157   */\n      dup2\n        /* \"#utility.yul\":13149:13169   */\n      sub\n        /* \"#utility.yul\":13143:13146   */\n      0x80\n        /* \"#utility.yul\":13132:13141   */\n      dup4\n        /* \"#utility.yul\":13128:13147   */\n      add\n        /* \"#utility.yul\":13121:13170   */\n      mstore\n        /* \"#utility.yul\":13187:13265   */\n      tag_306\n        /* \"#utility.yul\":13260:13264   */\n      dup2\n        /* \"#utility.yul\":13251:13257   */\n      dup8\n        /* \"#utility.yul\":13187:13265   */\n      tag_278\n      jump\t// in\n    tag_306:\n        /* \"#utility.yul\":13179:13265   */\n      swap1\n      pop\n        /* \"#utility.yul\":13275:13348   */\n      tag_307\n        /* \"#utility.yul\":13343:13346   */\n      0xa0\n        /* \"#utility.yul\":13332:13341   */\n      dup4\n        /* \"#utility.yul\":13328:13347   */\n      add\n        /* \"#utility.yul\":13319:13325   */\n      dup7\n        /* \"#utility.yul\":13275:13348   */\n      tag_297\n      jump\t// in\n    tag_307:\n        /* \"#utility.yul\":13396:13405   */\n      dup2\n        /* \"#utility.yul\":13390:13394   */\n      dup2\n        /* \"#utility.yul\":13386:13406   */\n      sub\n        /* \"#utility.yul\":13380:13383   */\n      0xc0\n        /* \"#utility.yul\":13369:13378   */\n      dup4\n        /* \"#utility.yul\":13365:13384   */\n      add\n        /* \"#utility.yul\":13358:13407   */\n      mstore\n        /* \"#utility.yul\":13424:13530   */\n      tag_308\n        /* \"#utility.yul\":13525:13529   */\n      dup2\n        /* \"#utility.yul\":13516:13522   */\n      dup6\n        /* \"#utility.yul\":13424:13530   */\n      tag_285\n      jump\t// in\n    tag_308:\n        /* \"#utility.yul\":13416:13530   */\n      swap1\n      pop\n        /* \"#utility.yul\":13578:13587   */\n      dup2\n        /* \"#utility.yul\":13572:13576   */\n      dup2\n        /* \"#utility.yul\":13568:13588   */\n      sub\n        /* \"#utility.yul\":13562:13565   */\n      0xe0\n        /* \"#utility.yul\":13551:13560   */\n      dup4\n        /* \"#utility.yul\":13547:13566   */\n      add\n        /* \"#utility.yul\":13540:13589   */\n      mstore\n        /* \"#utility.yul\":13606:13706   */\n      tag_309\n        /* \"#utility.yul\":13701:13705   */\n      dup2\n        /* \"#utility.yul\":13692:13698   */\n      dup5\n        /* \"#utility.yul\":13606:13706   */\n      tag_292\n      jump\t// in\n    tag_309:\n        /* \"#utility.yul\":13598:13706   */\n      swap1\n      pop\n        /* \"#utility.yul\":12070:13713   */\n      swap10\n      swap9\n      pop\n      pop\n      pop\n      pop\n      pop\n      pop\n      pop\n      pop\n      pop\n      jump\t// out\n        /* \"#utility.yul\":13719:13848   */\n    tag_161:\n        /* \"#utility.yul\":13753:13759   */\n      0x00\n        /* \"#utility.yul\":13780:13800   */\n      tag_311\n      tag_312\n      jump\t// in\n    tag_311:\n        /* \"#utility.yul\":13770:13800   */\n      swap1\n      pop\n        /* \"#utility.yul\":13809:13842   */\n      tag_313\n        /* \"#utility.yul\":13837:13841   */\n      dup3\n        /* \"#utility.yul\":13829:13835   */\n      dup3\n        /* \"#utility.yul\":13809:13842   */\n      tag_314\n      jump\t// in\n    tag_313:\n        /* \"#utility.yul\":13719:13848   */\n      swap2\n      swap1\n      pop\n      jump\t// out\n        /* \"#utility.yul\":13854:13929   */\n    tag_312:\n        /* \"#utility.yul\":13887:13893   */\n      0x00\n        /* \"#utility.yul\":13920:13922   */\n      0x40\n        /* \"#utility.yul\":13914:13923   */\n      mload\n        /* \"#utility.yul\":13904:13923   */\n      swap1\n      pop\n        /* \"#utility.yul\":13854:13929   */\n      swap1\n      jump\t// out\n        /* \"#utility.yul\":13935:14256   */\n    tag_160:\n        /* \"#utility.yul\":14022:14026   */\n      0x00\n        /* \"#utility.yul\":14112:14130   */\n      0xffffffffffffffff\n        /* \"#utility.yul\":14104:14110   */\n      dup3\n        /* \"#utility.yul\":14101:14131   */\n      gt\n        /* \"#utility.yul\":14098:14154   */\n      iszero\n      tag_317\n      jumpi\n        /* \"#utility.yul\":14134:14152   */\n      tag_318\n      tag_319\n      jump\t// in\n    tag_318:\n        /* \"#utility.yul\":14098:14154   */\n    tag_317:\n        /* \"#utility.yul\":14184:14188   */\n      0x20\n        /* \"#utility.yul\":14176:14182   */\n      dup3\n        /* \"#utility.yul\":14172:14189   */\n      mul\n        /* \"#utility.yul\":14164:14189   */\n      swap1\n      pop\n        /* \"#utility.yul\":14244:14248   */\n      0x20\n        /* \"#utility.yul\":14238:14242   */\n      dup2\n        /* \"#utility.yul\":14234:14249   */\n      add\n        /* \"#utility.yul\":14226:14249   */\n      swap1\n      pop\n        /* \"#utility.yul\":13935:14256   */\n      swap2\n      swap1\n      pop\n      jump\t// out\n        /* \"#utility.yul\":14262:14570   */\n    tag_177:\n        /* \"#utility.yul\":14324:14328   */\n      0x00\n        /* \"#utility.yul\":14414:14432   */\n      0xffffffffffffffff\n        /* \"#utility.yul\":14406:14412   */\n      dup3\n        /* \"#utility.yul\":14403:14433   */\n      gt\n        /* \"#utility.yul\":14400:14456   */\n      iszero\n      tag_321\n      jumpi\n        /* \"#utility.yul\":14436:14454   */\n      tag_322\n      tag_319\n      jump\t// in\n    tag_322:\n        /* \"#utility.yul\":14400:14456   */\n    tag_321:\n        /* \"#utility.yul\":14474:14503   */\n      tag_323\n        /* \"#utility.yul\":14496:14502   */\n      dup3\n        /* \"#utility.yul\":14474:14503   */\n      tag_277\n      jump\t// in\n    tag_323:\n        /* \"#utility.yul\":14466:14503   */\n      swap1\n      pop\n        /* \"#utility.yul\":14558:14562   */\n      0x20\n        /* \"#utility.yul\":14552:14556   */\n      dup2\n        /* \"#utility.yul\":14548:14563   */\n      add\n        /* \"#utility.yul\":14540:14563   */\n      swap1\n      pop\n        /* \"#utility.yul\":14262:14570   */\n      swap2\n      swap1\n      pop\n      jump\t// out\n        /* \"#utility.yul\":14576:14718   */\n    tag_262:\n        /* \"#utility.yul\":14653:14657   */\n      0x00\n        /* \"#utility.yul\":14676:14679   */\n      dup2\n        /* \"#utility.yul\":14668:14679   */\n      swap1\n      pop\n        /* \"#utility.yul\":14706:14710   */\n      0x20\n        /* \"#utility.yul\":14701:14704   */\n      dup3\n        /* \"#utility.yul\":14697:14711   */\n      add\n        /* \"#utility.yul\":14689:14711   */\n      swap1\n      pop\n        /* \"#utility.yul\":14576:14718   */\n      swap2\n      swap1\n      pop\n      jump\t// out\n        /* \"#utility.yul\":14724:14848   */\n    tag_258:\n        /* \"#utility.yul\":14801:14807   */\n      0x00\n        /* \"#utility.yul\":14835:14840   */\n      dup2\n        /* \"#utility.yul\":14829:14841   */\n      mload\n        /* \"#utility.yul\":14819:14841   */\n      swap1\n      pop\n        /* \"#utility.yul\":14724:14848   */\n      swap2\n      swap1\n      pop\n      jump\t// out\n        /* \"#utility.yul\":14854:14953   */\n    tag_271:\n        /* \"#utility.yul\":14906:14912   */\n      0x00\n        /* \"#utility.yul\":14940:14945   */\n      dup2\n        /* \"#utility.yul\":14934:14946   */\n      mload\n        /* \"#utility.yul\":14924:14946   */\n      swap1\n      pop\n        /* \"#utility.yul\":14854:14953   */\n      swap2\n      swap1\n      pop\n      jump\t// out\n        /* \"#utility.yul\":14959:15082   */\n    tag_268:\n        /* \"#utility.yul\":15039:15043   */\n      0x00\n        /* \"#utility.yul\":15071:15075   */\n      0x20\n        /* \"#utility.yul\":15066:15069   */\n      dup3\n        /* \"#utility.yul\":15062:15076   */\n      add\n        /* \"#utility.yul\":15054:15076   */\n      swap1\n      pop\n        /* \"#utility.yul\":14959:15082   */\n      swap2\n      swap1\n      pop\n      jump\t// out\n        /* \"#utility.yul\":15088:15272   */\n    tag_260:\n        /* \"#utility.yul\":15187:15198   */\n      0x00\n        /* \"#utility.yul\":15221:15227   */\n      dup3\n        /* \"#utility.yul\":15216:15219   */\n      dup3\n        /* \"#utility.yul\":15209:15228   */\n      mstore\n        /* \"#utility.yul\":15261:15265   */\n      0x20\n        /* \"#utility.yul\":15256:15259   */\n      dup3\n        /* \"#utility.yul\":15252:15266   */\n      add\n        /* \"#utility.yul\":15237:15266   */\n      swap1\n      pop\n        /* \"#utility.yul\":15088:15272   */\n      swap3\n      swap2\n      pop\n      pop\n      jump\t// out\n        /* \"#utility.yul\":15278:15437   */\n    tag_273:\n        /* \"#utility.yul\":15352:15363   */\n      0x00\n        /* \"#utility.yul\":15386:15392   */\n      dup3\n        /* \"#utility.yul\":15381:15384   */\n      dup3\n        /* \"#utility.yul\":15374:15393   */\n      mstore\n        /* \"#utility.yul\":15426:15430   */\n      0x20\n        /* \"#utility.yul\":15421:15424   */\n      dup3\n        /* \"#utility.yul\":15417:15431   */\n      add\n        /* \"#utility.yul\":15402:15431   */\n      swap1\n      pop\n        /* \"#utility.yul\":15278:15437   */\n      swap3\n      swap2\n      pop\n      pop\n      jump\t// out\n        /* \"#utility.yul\":15443:15612   */\n    tag_282:\n        /* \"#utility.yul\":15527:15538   */\n      0x00\n        /* \"#utility.yul\":15561:15567   */\n      dup3\n        /* \"#utility.yul\":15556:15559   */\n      dup3\n        /* \"#utility.yul\":15549:15568   */\n      mstore\n        /* \"#utility.yul\":15601:15605   */\n      0x20\n        /* \"#utility.yul\":15596:15599   */\n      dup3\n        /* \"#utility.yul\":15592:15606   */\n      add\n        /* \"#utility.yul\":15577:15606   */\n      swap1\n      pop\n        /* \"#utility.yul\":15443:15612   */\n      swap3\n      swap2\n      pop\n      pop\n      jump\t// out\n        /* \"#utility.yul\":15618:15714   */\n    tag_254:\n        /* \"#utility.yul\":15655:15662   */\n      0x00\n        /* \"#utility.yul\":15684:15708   */\n      tag_332\n        /* \"#utility.yul\":15702:15707   */\n      dup3\n        /* \"#utility.yul\":15684:15708   */\n      tag_333\n      jump\t// in\n    tag_332:\n        /* \"#utility.yul\":15673:15708   */\n      swap1\n      pop\n        /* \"#utility.yul\":15618:15714   */\n      swap2\n      swap1\n      pop\n      jump\t// out\n        /* \"#utility.yul\":15720:15846   */\n    tag_333:\n        /* \"#utility.yul\":15757:15764   */\n      0x00\n        /* \"#utility.yul\":15797:15839   */\n      0xffffffffffffffffffffffffffffffffffffffff\n        /* \"#utility.yul\":15790:15795   */\n      dup3\n        /* \"#utility.yul\":15786:15840   */\n      and\n        /* \"#utility.yul\":15775:15840   */\n      swap1\n      pop\n        /* \"#utility.yul\":15720:15846   */\n      swap2\n      swap1\n      pop\n      jump\t// out\n        /* \"#utility.yul\":15852:15929   */\n    tag_300:\n        /* \"#utility.yul\":15889:15896   */\n      0x00\n        /* \"#utility.yul\":15918:15923   */\n      dup2\n        /* \"#utility.yul\":15907:15923   */\n      swap1\n      pop\n        /* \"#utility.yul\":15852:15929   */\n      swap2\n      swap1\n      pop\n      jump\t// out\n        /* \"#utility.yul\":15935:16089   */\n    tag_182:\n        /* \"#utility.yul\":16019:16025   */\n      dup3\n        /* \"#utility.yul\":16014:16017   */\n      dup2\n        /* \"#utility.yul\":16009:16012   */\n      dup4\n        /* \"#utility.yul\":15996:16026   */\n      calldatacopy\n        /* \"#utility.yul\":16081:16082   */\n      0x00\n        /* \"#utility.yul\":16072:16078   */\n      dup4\n        /* \"#utility.yul\":16067:16070   */\n      dup4\n        /* \"#utility.yul\":16063:16079   */\n      add\n        /* \"#utility.yul\":16056:16083   */\n      mstore\n        /* \"#utility.yul\":15935:16089   */\n      pop\n      pop\n      pop\n      jump\t// out\n        /* \"#utility.yul\":16095:16402   */\n    tag_275:\n        /* \"#utility.yul\":16163:16164   */\n      0x00\n        /* \"#utility.yul\":16173:16286   */\n    tag_338:\n        /* \"#utility.yul\":16187:16193   */\n      dup4\n        /* \"#utility.yul\":16184:16185   */\n      dup2\n        /* \"#utility.yul\":16181:16194   */\n      lt\n        /* \"#utility.yul\":16173:16286   */\n      iszero\n      tag_340\n      jumpi\n        /* \"#utility.yul\":16272:16273   */\n      dup1\n        /* \"#utility.yul\":16267:16270   */\n      dup3\n        /* \"#utility.yul\":16263:16274   */\n      add\n        /* \"#utility.yul\":16257:16275   */\n      mload\n        /* \"#utility.yul\":16253:16254   */\n      dup2\n        /* \"#utility.yul\":16248:16251   */\n      dup5\n        /* \"#utility.yul\":16244:16255   */\n      add\n        /* \"#utility.yul\":16237:16276   */\n      mstore\n        /* \"#utility.yul\":16209:16211   */\n      0x20\n        /* \"#utility.yul\":16206:16207   */\n      dup2\n        /* \"#utility.yul\":16202:16212   */\n      add\n        /* \"#utility.yul\":16197:16212   */\n      swap1\n      pop\n        /* \"#utility.yul\":16173:16286   */\n      jump(tag_338)\n    tag_340:\n        /* \"#utility.yul\":16304:16310   */\n      dup4\n        /* \"#utility.yul\":16301:16302   */\n      dup2\n        /* \"#utility.yul\":16298:16311   */\n      gt\n        /* \"#utility.yul\":16295:16396   */\n      iszero\n      tag_341\n      jumpi\n        /* \"#utility.yul\":16384:16385   */\n      0x00\n        /* \"#utility.yul\":16375:16381   */\n      dup5\n        /* \"#utility.yul\":16370:16373   */\n      dup5\n        /* \"#utility.yul\":16366:16382   */\n      add\n        /* \"#utility.yul\":16359:16386   */\n      mstore\n        /* \"#utility.yul\":16295:16396   */\n    tag_341:\n        /* \"#utility.yul\":16144:16402   */\n      pop\n        /* \"#utility.yul\":16095:16402   */\n      pop\n      pop\n      pop\n      jump\t// out\n        /* \"#utility.yul\":16408:16728   */\n    tag_41:\n        /* \"#utility.yul\":16452:16458   */\n      0x00\n        /* \"#utility.yul\":16489:16490   */\n      0x02\n        /* \"#utility.yul\":16483:16487   */\n      dup3\n        /* \"#utility.yul\":16479:16491   */\n      div\n        /* \"#utility.yul\":16469:16491   */\n      swap1\n      pop\n        /* \"#utility.yul\":16536:16537   */\n      0x01\n        /* \"#utility.yul\":16530:16534   */\n      dup3\n        /* \"#utility.yul\":16526:16538   */\n      and\n        /* \"#utility.yul\":16557:16575   */\n      dup1\n        /* \"#utility.yul\":16547:16628   */\n      tag_343\n      jumpi\n        /* \"#utility.yul\":16613:16617   */\n      0x7f\n        /* \"#utility.yul\":16605:16611   */\n      dup3\n        /* \"#utility.yul\":16601:16618   */\n      and\n        /* \"#utility.yul\":16591:16618   */\n      swap2\n      pop\n        /* \"#utility.yul\":16547:16628   */\n    tag_343:\n        /* \"#utility.yul\":16675:16677   */\n      0x20\n        /* \"#utility.yul\":16667:16673   */\n      dup3\n        /* \"#utility.yul\":16664:16678   */\n      lt\n        /* \"#utility.yul\":16644:16662   */\n      dup2\n        /* \"#utility.yul\":16641:16679   */\n      eq\n        /* \"#utility.yul\":16638:16722   */\n      iszero\n      tag_344\n      jumpi\n        /* \"#utility.yul\":16694:16712   */\n      tag_345\n      tag_346\n      jump\t// in\n    tag_345:\n        /* \"#utility.yul\":16638:16722   */\n    tag_344:\n        /* \"#utility.yul\":16459:16728   */\n      pop\n        /* \"#utility.yul\":16408:16728   */\n      swap2\n      swap1\n      pop\n      jump\t// out\n        /* \"#utility.yul\":16734:17015   */\n    tag_314:\n        /* \"#utility.yul\":16817:16844   */\n      tag_348\n        /* \"#utility.yul\":16839:16843   */\n      dup3\n        /* \"#utility.yul\":16817:16844   */\n      tag_277\n      jump\t// in\n    tag_348:\n        /* \"#utility.yul\":16809:16815   */\n      dup2\n        /* \"#utility.yul\":16805:16845   */\n      add\n        /* \"#utility.yul\":16947:16953   */\n      dup2\n        /* \"#utility.yul\":16935:16945   */\n      dup2\n        /* \"#utility.yul\":16932:16954   */\n      lt\n        /* \"#utility.yul\":16911:16929   */\n      0xffffffffffffffff\n        /* \"#utility.yul\":16899:16909   */\n      dup3\n        /* \"#utility.yul\":16896:16930   */\n      gt\n        /* \"#utility.yul\":16893:16955   */\n      or\n        /* \"#utility.yul\":16890:16978   */\n      iszero\n      tag_349\n      jumpi\n        /* \"#utility.yul\":16958:16976   */\n      tag_350\n      tag_319\n      jump\t// in\n    tag_350:\n        /* \"#utility.yul\":16890:16978   */\n    tag_349:\n        /* \"#utility.yul\":16998:17008   */\n      dup1\n        /* \"#utility.yul\":16994:16996   */\n      0x40\n        /* \"#utility.yul\":16987:17009   */\n      mstore\n        /* \"#utility.yul\":16777:17015   */\n      pop\n        /* \"#utility.yul\":16734:17015   */\n      pop\n      pop\n      jump\t// out\n        /* \"#utility.yul\":17021:17201   */\n    tag_346:\n        /* \"#utility.yul\":17069:17146   */\n      0x4e487b7100000000000000000000000000000000000000000000000000000000\n        /* \"#utility.yul\":17066:17067   */\n      0x00\n        /* \"#utility.yul\":17059:17147   */\n      mstore\n        /* \"#utility.yul\":17166:17170   */\n      0x22\n        /* \"#utility.yul\":17163:17164   */\n      0x04\n        /* \"#utility.yul\":17156:17171   */\n      mstore\n        /* \"#utility.yul\":17190:17194   */\n      0x24\n        /* \"#utility.yul\":17187:17188   */\n      0x00\n        /* \"#utility.yul\":17180:17195   */\n      revert\n        /* \"#utility.yul\":17207:17387   */\n    tag_319:\n        /* \"#utility.yul\":17255:17332   */\n      0x4e487b7100000000000000000000000000000000000000000000000000000000\n        /* \"#utility.yul\":17252:17253   */\n      0x00\n        /* \"#utility.yul\":17245:17333   */\n      mstore\n        /* \"#utility.yul\":17352:17356   */\n      0x41\n        /* \"#utility.yul\":17349:17350   */\n      0x04\n        /* \"#utility.yul\":17342:17357   */\n      mstore\n        /* \"#utility.yul\":17376:17380   */\n      0x24\n        /* \"#utility.yul\":17373:17374   */\n      0x00\n        /* \"#utility.yul\":17366:17381   */\n      revert\n        /* \"#utility.yul\":17393:17510   */\n    tag_170:\n        /* \"#utility.yul\":17502:17503   */\n      0x00\n        /* \"#utility.yul\":17499:17500   */\n      dup1\n        /* \"#utility.yul\":17492:17504   */\n      revert\n        /* \"#utility.yul\":17516:17633   */\n    tag_164:\n        /* \"#utility.yul\":17625:17626   */\n      0x00\n        /* \"#utility.yul\":17622:17623   */\n      dup1\n        /* \"#utility.yul\":17615:17627   */\n      revert\n        /* \"#utility.yul\":17639:17756   */\n    tag_180:\n        /* \"#utility.yul\":17748:17749   */\n      0x00\n        /* \"#utility.yul\":17745:17746   */\n      dup1\n        /* \"#utility.yul\":17738:17750   */\n      revert\n        /* \"#utility.yul\":17762:17879   */\n    tag_206:\n        /* \"#utility.yul\":17871:17872   */\n      0x00\n        /* \"#utility.yul\":17868:17869   */\n      dup1\n        /* \"#utility.yul\":17861:17873   */\n      revert\n        /* \"#utility.yul\":17885:18002   */\n    tag_199:\n        /* \"#utility.yul\":17994:17995   */\n      0x00\n        /* \"#utility.yul\":17991:17992   */\n      dup1\n        /* \"#utility.yul\":17984:17996   */\n      revert\n        /* \"#utility.yul\":18008:18110   */\n    tag_277:\n        /* \"#utility.yul\":18049:18055   */\n      0x00\n        /* \"#utility.yul\":18100:18102   */\n      0x1f\n        /* \"#utility.yul\":18096:18103   */\n      not\n        /* \"#utility.yul\":18091:18093   */\n      0x1f\n        /* \"#utility.yul\":18084:18089   */\n      dup4\n        /* \"#utility.yul\":18080:18094   */\n      add\n        /* \"#utility.yul\":18076:18104   */\n      and\n        /* \"#utility.yul\":18066:18104   */\n      swap1\n      pop\n        /* \"#utility.yul\":18008:18110   */\n      swap2\n      swap1\n      pop\n      jump\t// out\n        /* \"#utility.yul\":18116:18238   */\n    tag_186:\n        /* \"#utility.yul\":18189:18213   */\n      tag_360\n        /* \"#utility.yul\":18207:18212   */\n      dup2\n        /* \"#utility.yul\":18189:18213   */\n      tag_254\n      jump\t// in\n    tag_360:\n        /* \"#utility.yul\":18182:18187   */\n      dup2\n        /* \"#utility.yul\":18179:18214   */\n      eq\n        /* \"#utility.yul\":18169:18232   */\n      tag_361\n      jumpi\n        /* \"#utility.yul\":18228:18229   */\n      0x00\n        /* \"#utility.yul\":18225:18226   */\n      dup1\n        /* \"#utility.yul\":18218:18230   */\n      revert\n        /* \"#utility.yul\":18169:18232   */\n    tag_361:\n        /* \"#utility.yul\":18116:18238   */\n      pop\n      jump\t// out\n\n    auxdata: 0xa2646970667358221220d11f30a65957553f8c2bdd2391023001b82127b1d9066a1e74d1819c3965e8df64736f6c63430008070033\n}\n",
				"bytecode": {
					"linkReferences": {},
					"object": "608060405234801561001057600080fd5b506119f4806100206000396000f3fe608060405234801561001057600080fd5b50600436106100575760003560e01c80634571f1251461005c57806391f2cb9d146100785780639dd9d0fd14610094578063d52246d7146100cb578063fabce08f146100e7575b600080fd5b610076600480360381019061007191906112c7565b6100f1565b005b610092600480360381019061008d919061139e565b610315565b005b6100ae60048036038101906100a991906111f3565b6104d9565b6040516100c29897969594939291906116ae565b60405180910390f35b6100e560048036038101906100e09190611220565b610cda565b005b6100ef610dea565b005b836000803373ffffffffffffffffffffffffffffffffffffffff1673ffffffffffffffffffffffffffffffffffffffff1681526020019081526020016000206001019080519060200190610146929190610f2a565b50826000803373ffffffffffffffffffffffffffffffffffffffff1673ffffffffffffffffffffffffffffffffffffffff168152602001908152602001600020600201908051906020019061019c929190610f2a565b50816000803373ffffffffffffffffffffffffffffffffffffffff1673ffffffffffffffffffffffffffffffffffffffff16815260200190815260200160002060030190805190602001906101f2929190610f2a565b50806000803373ffffffffffffffffffffffffffffffffffffffff1673ffffffffffffffffffffffffffffffffffffffff1681526020019081526020016000206004019080519060200190610248929190610f2a565b50336000803373ffffffffffffffffffffffffffffffffffffffff1673ffffffffffffffffffffffffffffffffffffffff16815260200190815260200160002060000160006101000a81548173ffffffffffffffffffffffffffffffffffffffff021916908373ffffffffffffffffffffffffffffffffffffffff160217905550426000803373ffffffffffffffffffffffffffffffffffffffff1673ffffffffffffffffffffffffffffffffffffffff1681526020019081526020016000206005018190555050505050565b846000803373ffffffffffffffffffffffffffffffffffffffff1673ffffffffffffffffffffffffffffffffffffffff168152602001908152602001600020600601600001908051906020019061036d929190610f2a565b50836000803373ffffffffffffffffffffffffffffffffffffffff1673ffffffffffffffffffffffffffffffffffffffff16815260200190815260200160002060060160010190805190602001906103c6929190610f2a565b50826000803373ffffffffffffffffffffffffffffffffffffffff1673ffffffffffffffffffffffffffffffffffffffff168152602001908152602001600020600601600001908051906020019061041f929190610f2a565b50816000803373ffffffffffffffffffffffffffffffffffffffff1673ffffffffffffffffffffffffffffffffffffffff1681526020019081526020016000206006016001019080519060200190610478929190610f2a565b50806000803373ffffffffffffffffffffffffffffffffffffffff1673ffffffffffffffffffffffffffffffffffffffff16815260200190815260200160002060060160000190805190602001906104d1929190610f2a565b505050505050565b60006020528060005260406000206000915090508060000160009054906101000a900473ffffffffffffffffffffffffffffffffffffffff1690806001018054610522906118bc565b80601f016020809104026020016040519081016040528092919081815260200182805461054e906118bc565b801561059b5780601f106105705761010080835404028352916020019161059b565b820191906000526020600020905b81548152906001019060200180831161057e57829003601f168201915b5050505050908060020180546105b0906118bc565b80601f01602080910402602001604051908101604052809291908181526020018280546105dc906118bc565b80156106295780601f106105fe57610100808354040283529160200191610629565b820191906000526020600020905b81548152906001019060200180831161060c57829003601f168201915b50505050509080600301805461063e906118bc565b80601f016020809104026020016040519081016040528092919081815260200182805461066a906118bc565b80156106b75780601f1061068c576101008083540402835291602001916106b7565b820191906000526020600020905b81548152906001019060200180831161069a57829003601f168201915b5050505050908060040180546106cc906118bc565b80601f01602080910402602001604051908101604052809291908181526020018280546106f8906118bc565b80156107455780601f1061071a57610100808354040283529160200191610745565b820191906000526020600020905b81548152906001019060200180831161072857829003601f168201915b505050505090806005015490806006016040518060a0016040529081600082018054610770906118bc565b80601f016020809104026020016040519081016040528092919081815260200182805461079c906118bc565b80156107e95780601f106107be576101008083540402835291602001916107e9565b820191906000526020600020905b8154815290600101906020018083116107cc57829003601f168201915b50505050508152602001600182018054610802906118bc565b80601f016020809104026020016040519081016040528092919081815260200182805461082e906118bc565b801561087b5780601f106108505761010080835404028352916020019161087b565b820191906000526020600020905b81548152906001019060200180831161085e57829003601f168201915b50505050508152602001600282018054610894906118bc565b80601f01602080910402602001604051908101604052809291908181526020018280546108c0906118bc565b801561090d5780601f106108e25761010080835404028352916020019161090d565b820191906000526020600020905b8154815290600101906020018083116108f057829003601f168201915b50505050508152602001600382018054610926906118bc565b80601f0160208091040260200160405190810160405280929190818152602001828054610952906118bc565b801561099f5780601f106109745761010080835404028352916020019161099f565b820191906000526020600020905b81548152906001019060200180831161098257829003601f168201915b505050505081526020016004820180546109b8906118bc565b80601f01602080910402602001604051908101604052809291908181526020018280546109e4906118bc565b8015610a315780601f10610a0657610100808354040283529160200191610a31565b820191906000526020600020905b815481529060010190602001808311610a1457829003601f168201915b5050505050815250509080600b0160405180606001604052908160008201805480602002602001604051908101604052809291908181526020016000905b82821015610b1b578382906000526020600020018054610a8e906118bc565b80601f0160208091040260200160405190810160405280929190818152602001828054610aba906118bc565b8015610b075780601f10610adc57610100808354040283529160200191610b07565b820191906000526020600020905b815481529060010190602001808311610aea57829003601f168201915b505050505081526020019060010190610a6f565b50505050815260200160018201805480602002602001604051908101604052809291908181526020016000905b82821015610bf4578382906000526020600020018054610b67906118bc565b80601f0160208091040260200160405190810160405280929190818152602001828054610b93906118bc565b8015610be05780601f10610bb557610100808354040283529160200191610be0565b820191906000526020600020905b815481529060010190602001808311610bc357829003601f168201915b505050505081526020019060010190610b48565b50505050815260200160028201805480602002602001604051908101604052809291908181526020016000905b82821015610ccd578382906000526020600020018054610c40906118bc565b80601f0160208091040260200160405190810160405280929190818152602001828054610c6c906118bc565b8015610cb95780601f10610c8e57610100808354040283529160200191610cb9565b820191906000526020600020905b815481529060010190602001808311610c9c57829003601f168201915b505050505081526020019060010190610c21565b5050505081525050905088565b826000803373ffffffffffffffffffffffffffffffffffffffff1673ffffffffffffffffffffffffffffffffffffffff168152602001908152602001600020600b016000019080519060200190610d32929190610fb0565b50816000803373ffffffffffffffffffffffffffffffffffffffff1673ffffffffffffffffffffffffffffffffffffffff168152602001908152602001600020600b016001019080519060200190610d8b929190610fb0565b50806000803373ffffffffffffffffffffffffffffffffffffffff1673ffffffffffffffffffffffffffffffffffffffff168152602001908152602001600020600b016002019080519060200190610de4929190610fb0565b50505050565b6000803373ffffffffffffffffffffffffffffffffffffffff1673ffffffffffffffffffffffffffffffffffffffff168152602001908152602001600020600080820160006101000a81549073ffffffffffffffffffffffffffffffffffffffff0219169055600182016000610e609190611010565b600282016000610e709190611010565b600382016000610e809190611010565b600482016000610e909190611010565b60058201600090556006820160008082016000610ead9190611010565b600182016000610ebd9190611010565b600282016000610ecd9190611010565b600382016000610edd9190611010565b600482016000610eed9190611010565b5050600b820160008082016000610f049190611050565b600182016000610f149190611050565b600282016000610f249190611050565b50505050565b828054610f36906118bc565b90600052602060002090601f016020900481019282610f585760008555610f9f565b82601f10610f7157805160ff1916838001178555610f9f565b82800160010185558215610f9f579182015b82811115610f9e578251825591602001919060010190610f83565b5b509050610fac9190611071565b5090565b828054828255906000526020600020908101928215610fff579160200282015b82811115610ffe578251829080519060200190610fee929190610f2a565b5091602001919060010190610fd0565b5b50905061100c919061108e565b5090565b50805461101c906118bc565b6000825580601f1061102e575061104d565b601f01602090049060005260206000209081019061104c9190611071565b5b50565b508054600082559060005260206000209081019061106e919061108e565b50565b5b8082111561108a576000816000905550600101611072565b5090565b5b808211156110ae57600081816110a59190611010565b5060010161108f565b5090565b60006110c56110c08461177b565b611756565b905080838252602082019050828560208602820111156110e8576110e7611982565b5b60005b8581101561113657813567ffffffffffffffff81111561110e5761110d61197d565b5b80860161111b89826111c5565b855260208501945060208401935050506001810190506110eb565b5050509392505050565b600061115361114e846117a7565b611756565b90508281526020810184848401111561116f5761116e611987565b5b61117a84828561187a565b509392505050565b600081359050611191816119a7565b92915050565b600082601f8301126111ac576111ab61197d565b5b81356111bc8482602086016110b2565b91505092915050565b600082601f8301126111da576111d961197d565b5b81356111ea848260208601611140565b91505092915050565b60006020828403121561120957611208611991565b5b600061121784828501611182565b91505092915050565b60008060006060848603121561123957611238611991565b5b600084013567ffffffffffffffff8111156112575761125661198c565b5b61126386828701611197565b935050602084013567ffffffffffffffff8111156112845761128361198c565b5b61129086828701611197565b925050604084013567ffffffffffffffff8111156112b1576112b061198c565b5b6112bd86828701611197565b9150509250925092565b600080600080608085870312156112e1576112e0611991565b5b600085013567ffffffffffffffff8111156112ff576112fe61198c565b5b61130b878288016111c5565b945050602085013567ffffffffffffffff81111561132c5761132b61198c565b5b611338878288016111c5565b935050604085013567ffffffffffffffff8111156113595761135861198c565b5b611365878288016111c5565b925050606085013567ffffffffffffffff8111156113865761138561198c565b5b611392878288016111c5565b91505092959194509250565b600080600080600060a086880312156113ba576113b9611991565b5b600086013567ffffffffffffffff8111156113d8576113d761198c565b5b6113e4888289016111c5565b955050602086013567ffffffffffffffff8111156114055761140461198c565b5b611411888289016111c5565b945050604086013567ffffffffffffffff8111156114325761143161198c565b5b61143e888289016111c5565b935050606086013567ffffffffffffffff81111561145f5761145e61198c565b5b61146b888289016111c5565b925050608086013567ffffffffffffffff81111561148c5761148b61198c565b5b611498888289016111c5565b9150509295509295909350565b60006114b1838361153d565b905092915050565b6114c28161183e565b82525050565b60006114d3826117e8565b6114dd818561180b565b9350836020820285016114ef856117d8565b8060005b8581101561152b578484038952815161150c85826114a5565b9450611517836117fe565b925060208a019950506001810190506114f3565b50829750879550505050505092915050565b6000611548826117f3565b611552818561181c565b9350611562818560208601611889565b61156b81611996565b840191505092915050565b6000611581826117f3565b61158b818561182d565b935061159b818560208601611889565b6115a481611996565b840191505092915050565b600060a08301600083015184820360008601526115cc828261153d565b915050602083015184820360208601526115e6828261153d565b91505060408301518482036040860152611600828261153d565b9150506060830151848203606086015261161a828261153d565b91505060808301518482036080860152611634828261153d565b9150508091505092915050565b6000606083016000830151848203600086015261165e82826114c8565b9150506020830151848203602086015261167882826114c8565b9150506040830151848203604086015261169282826114c8565b9150508091505092915050565b6116a881611870565b82525050565b6000610100820190506116c4600083018b6114b9565b81810360208301526116d6818a611576565b905081810360408301526116ea8189611576565b905081810360608301526116fe8188611576565b905081810360808301526117128187611576565b905061172160a083018661169f565b81810360c083015261173381856115af565b905081810360e08301526117478184611641565b90509998505050505050505050565b6000611760611771565b905061176c82826118ee565b919050565b6000604051905090565b600067ffffffffffffffff8211156117965761179561194e565b5b602082029050602081019050919050565b600067ffffffffffffffff8211156117c2576117c161194e565b5b6117cb82611996565b9050602081019050919050565b6000819050602082019050919050565b600081519050919050565b600081519050919050565b6000602082019050919050565b600082825260208201905092915050565b600082825260208201905092915050565b600082825260208201905092915050565b600061184982611850565b9050919050565b600073ffffffffffffffffffffffffffffffffffffffff82169050919050565b6000819050919050565b82818337600083830152505050565b60005b838110156118a757808201518184015260208101905061188c565b838111156118b6576000848401525b50505050565b600060028204905060018216806118d457607f821691505b602082108114156118e8576118e761191f565b5b50919050565b6118f782611996565b810181811067ffffffffffffffff821117156119165761191561194e565b5b80604052505050565b7f4e487b7100000000000000000000000000000000000000000000000000000000600052602260045260246000fd5b7f4e487b7100000000000000000000000000000000000000000000000000000000600052604160045260246000fd5b600080fd5b600080fd5b600080fd5b600080fd5b600080fd5b6000601f19601f8301169050919050565b6119b08161183e565b81146119bb57600080fd5b5056fea2646970667358221220d11f30a65957553f8c2bdd2391023001b82127b1d9066a1e74d1819c3965e8df64736f6c63430008070033",
					"opcodes": "PUSH1 0x80 PUSH1 0x40 MSTORE CALLVALUE DUP1 ISZERO PUSH2 0x10 JUMPI PUSH1 0x0 DUP1 REVERT JUMPDEST POP PUSH2 0x19F4 DUP1 PUSH2 0x20 PUSH1 0x0 CODECOPY PUSH1 0x0 RETURN INVALID PUSH1 0x80 PUSH1 0x40 MSTORE CALLVALUE DUP1 ISZERO PUSH2 0x10 JUMPI PUSH1 0x0 DUP1 REVERT JUMPDEST POP PUSH1 0x4 CALLDATASIZE LT PUSH2 0x57 JUMPI PUSH1 0x0 CALLDATALOAD PUSH1 0xE0 SHR DUP1 PUSH4 0x4571F125 EQ PUSH2 0x5C JUMPI DUP1 PUSH4 0x91F2CB9D EQ PUSH2 0x78 JUMPI DUP1 PUSH4 0x9DD9D0FD EQ PUSH2 0x94 JUMPI DUP1 PUSH4 0xD52246D7 EQ PUSH2 0xCB JUMPI DUP1 PUSH4 0xFABCE08F EQ PUSH2 0xE7 JUMPI JUMPDEST PUSH1 0x0 DUP1 REVERT JUMPDEST PUSH2 0x76 PUSH1 0x4 DUP1 CALLDATASIZE SUB DUP2 ADD SWAP1 PUSH2 0x71 SWAP2 SWAP1 PUSH2 0x12C7 JUMP JUMPDEST PUSH2 0xF1 JUMP JUMPDEST STOP JUMPDEST PUSH2 0x92 PUSH1 0x4 DUP1 CALLDATASIZE SUB DUP2 ADD SWAP1 PUSH2 0x8D SWAP2 SWAP1 PUSH2 0x139E JUMP JUMPDEST PUSH2 0x315 JUMP JUMPDEST STOP JUMPDEST PUSH2 0xAE PUSH1 0x4 DUP1 CALLDATASIZE SUB DUP2 ADD SWAP1 PUSH2 0xA9 SWAP2 SWAP1 PUSH2 0x11F3 JUMP JUMPDEST PUSH2 0x4D9 JUMP JUMPDEST PUSH1 0x40 MLOAD PUSH2 0xC2 SWAP9 SWAP8 SWAP7 SWAP6 SWAP5 SWAP4 SWAP3 SWAP2 SWAP1 PUSH2 0x16AE JUMP JUMPDEST PUSH1 0x40 MLOAD DUP1 SWAP2 SUB SWAP1 RETURN JUMPDEST PUSH2 0xE5 PUSH1 0x4 DUP1 CALLDATASIZE SUB DUP2 ADD SWAP1 PUSH2 0xE0 SWAP2 SWAP1 PUSH2 0x1220 JUMP JUMPDEST PUSH2 0xCDA JUMP JUMPDEST STOP JUMPDEST PUSH2 0xEF PUSH2 0xDEA JUMP JUMPDEST STOP JUMPDEST DUP4 PUSH1 0x0 DUP1 CALLER PUSH20 0xFFFFFFFFFFFFFFFFFFFFFFFFFFFFFFFFFFFFFFFF AND PUSH20 0xFFFFFFFFFFFFFFFFFFFFFFFFFFFFFFFFFFFFFFFF AND DUP2 MSTORE PUSH1 0x20 ADD SWAP1 DUP2 MSTORE PUSH1 0x20 ADD PUSH1 0x0 KECCAK256 PUSH1 0x1 ADD SWAP1 DUP1 MLOAD SWAP1 PUSH1 0x20 ADD SWAP1 PUSH2 0x146 SWAP3 SWAP2 SWAP1 PUSH2 0xF2A JUMP JUMPDEST POP DUP3 PUSH1 0x0 DUP1 CALLER PUSH20 0xFFFFFFFFFFFFFFFFFFFFFFFFFFFFFFFFFFFFFFFF AND PUSH20 0xFFFFFFFFFFFFFFFFFFFFFFFFFFFFFFFFFFFFFFFF AND DUP2 MSTORE PUSH1 0x20 ADD SWAP1 DUP2 MSTORE PUSH1 0x20 ADD PUSH1 0x0 KECCAK256 PUSH1 0x2 ADD SWAP1 DUP1 MLOAD SWAP1 PUSH1 0x20 ADD SWAP1 PUSH2 0x19C SWAP3 SWAP2 SWAP1 PUSH2 0xF2A JUMP JUMPDEST POP DUP2 PUSH1 0x0 DUP1 CALLER PUSH20 0xFFFFFFFFFFFFFFFFFFFFFFFFFFFFFFFFFFFFFFFF AND PUSH20 0xFFFFFFFFFFFFFFFFFFFFFFFFFFFFFFFFFFFFFFFF AND DUP2 MSTORE PUSH1 0x20 ADD SWAP1 DUP2 MSTORE PUSH1 0x20 ADD PUSH1 0x0 KECCAK256 PUSH1 0x3 ADD SWAP1 DUP1 MLOAD SWAP1 PUSH1 0x20 ADD SWAP1 PUSH2 0x1F2 SWAP3 SWAP2 SWAP1 PUSH2 0xF2A JUMP JUMPDEST POP DUP1 PUSH1 0x0 DUP1 CALLER PUSH20 0xFFFFFFFFFFFFFFFFFFFFFFFFFFFFFFFFFFFFFFFF AND PUSH20 0xFFFFFFFFFFFFFFFFFFFFFFFFFFFFFFFFFFFFFFFF AND DUP2 MSTORE PUSH1 0x20 ADD SWAP1 DUP2 MSTORE PUSH1 0x20 ADD PUSH1 0x0 KECCAK256 PUSH1 0x4 ADD SWAP1 DUP1 MLOAD SWAP1 PUSH1 0x20 ADD SWAP1 PUSH2 0x248 SWAP3 SWAP2 SWAP1 PUSH2 0xF2A JUMP JUMPDEST POP CALLER PUSH1 0x0 DUP1 CALLER PUSH20 0xFFFFFFFFFFFFFFFFFFFFFFFFFFFFFFFFFFFFFFFF AND PUSH20 0xFFFFFFFFFFFFFFFFFFFFFFFFFFFFFFFFFFFFFFFF AND DUP2 MSTORE PUSH1 0x20 ADD SWAP1 DUP2 MSTORE PUSH1 0x20 ADD PUSH1 0x0 KECCAK256 PUSH1 0x0 ADD PUSH1 0x0 PUSH2 0x100 EXP DUP2 SLOAD DUP2 PUSH20 0xFFFFFFFFFFFFFFFFFFFFFFFFFFFFFFFFFFFFFFFF MUL NOT AND SWAP1 DUP4 PUSH20 0xFFFFFFFFFFFFFFFFFFFFFFFFFFFFFFFFFFFFFFFF AND MUL OR SWAP1 SSTORE POP TIMESTAMP PUSH1 0x0 DUP1 CALLER PUSH20 0xFFFFFFFFFFFFFFFFFFFFFFFFFFFFFFFFFFFFFFFF AND PUSH20 0xFFFFFFFFFFFFFFFFFFFFFFFFFFFFFFFFFFFFFFFF AND DUP2 MSTORE PUSH1 0x20 ADD SWAP1 DUP2 MSTORE PUSH1 0x20 ADD PUSH1 0x0 KECCAK256 PUSH1 0x5 ADD DUP2 SWAP1 SSTORE POP POP POP POP POP JUMP JUMPDEST DUP5 PUSH1 0x0 DUP1 CALLER PUSH20 0xFFFFFFFFFFFFFFFFFFFFFFFFFFFFFFFFFFFFFFFF AND PUSH20 0xFFFFFFFFFFFFFFFFFFFFFFFFFFFFFFFFFFFFFFFF AND DUP2 MSTORE PUSH1 0x20 ADD SWAP1 DUP2 MSTORE PUSH1 0x20 ADD PUSH1 0x0 KECCAK256 PUSH1 0x6 ADD PUSH1 0x0 ADD SWAP1 DUP1 MLOAD SWAP1 PUSH1 0x20 ADD SWAP1 PUSH2 0x36D SWAP3 SWAP2 SWAP1 PUSH2 0xF2A JUMP JUMPDEST POP DUP4 PUSH1 0x0 DUP1 CALLER PUSH20 0xFFFFFFFFFFFFFFFFFFFFFFFFFFFFFFFFFFFFFFFF AND PUSH20 0xFFFFFFFFFFFFFFFFFFFFFFFFFFFFFFFFFFFFFFFF AND DUP2 MSTORE PUSH1 0x20 ADD SWAP1 DUP2 MSTORE PUSH1 0x20 ADD PUSH1 0x0 KECCAK256 PUSH1 0x6 ADD PUSH1 0x1 ADD SWAP1 DUP1 MLOAD SWAP1 PUSH1 0x20 ADD SWAP1 PUSH2 0x3C6 SWAP3 SWAP2 SWAP1 PUSH2 0xF2A JUMP JUMPDEST POP DUP3 PUSH1 0x0 DUP1 CALLER PUSH20 0xFFFFFFFFFFFFFFFFFFFFFFFFFFFFFFFFFFFFFFFF AND PUSH20 0xFFFFFFFFFFFFFFFFFFFFFFFFFFFFFFFFFFFFFFFF AND DUP2 MSTORE PUSH1 0x20 ADD SWAP1 DUP2 MSTORE PUSH1 0x20 ADD PUSH1 0x0 KECCAK256 PUSH1 0x6 ADD PUSH1 0x0 ADD SWAP1 DUP1 MLOAD SWAP1 PUSH1 0x20 ADD SWAP1 PUSH2 0x41F SWAP3 SWAP2 SWAP1 PUSH2 0xF2A JUMP JUMPDEST POP DUP2 PUSH1 0x0 DUP1 CALLER PUSH20 0xFFFFFFFFFFFFFFFFFFFFFFFFFFFFFFFFFFFFFFFF AND PUSH20 0xFFFFFFFFFFFFFFFFFFFFFFFFFFFFFFFFFFFFFFFF AND DUP2 MSTORE PUSH1 0x20 ADD SWAP1 DUP2 MSTORE PUSH1 0x20 ADD PUSH1 0x0 KECCAK256 PUSH1 0x6 ADD PUSH1 0x1 ADD SWAP1 DUP1 MLOAD SWAP1 PUSH1 0x20 ADD SWAP1 PUSH2 0x478 SWAP3 SWAP2 SWAP1 PUSH2 0xF2A JUMP JUMPDEST POP DUP1 PUSH1 0x0 DUP1 CALLER PUSH20 0xFFFFFFFFFFFFFFFFFFFFFFFFFFFFFFFFFFFFFFFF AND PUSH20 0xFFFFFFFFFFFFFFFFFFFFFFFFFFFFFFFFFFFFFFFF AND DUP2 MSTORE PUSH1 0x20 ADD SWAP1 DUP2 MSTORE PUSH1 0x20 ADD PUSH1 0x0 KECCAK256 PUSH1 0x6 ADD PUSH1 0x0 ADD SWAP1 DUP1 MLOAD SWAP1 PUSH1 0x20 ADD SWAP1 PUSH2 0x4D1 SWAP3 SWAP2 SWAP1 PUSH2 0xF2A JUMP JUMPDEST POP POP POP POP POP POP JUMP JUMPDEST PUSH1 0x0 PUSH1 0x20 MSTORE DUP1 PUSH1 0x0 MSTORE PUSH1 0x40 PUSH1 0x0 KECCAK256 PUSH1 0x0 SWAP2 POP SWAP1 POP DUP1 PUSH1 0x0 ADD PUSH1 0x0 SWAP1 SLOAD SWAP1 PUSH2 0x100 EXP SWAP1 DIV PUSH20 0xFFFFFFFFFFFFFFFFFFFFFFFFFFFFFFFFFFFFFFFF AND SWAP1 DUP1 PUSH1 0x1 ADD DUP1 SLOAD PUSH2 0x522 SWAP1 PUSH2 0x18BC JUMP JUMPDEST DUP1 PUSH1 0x1F ADD PUSH1 0x20 DUP1 SWAP2 DIV MUL PUSH1 0x20 ADD PUSH1 0x40 MLOAD SWAP1 DUP2 ADD PUSH1 0x40 MSTORE DUP1 SWAP3 SWAP2 SWAP1 DUP2 DUP2 MSTORE PUSH1 0x20 ADD DUP3 DUP1 SLOAD PUSH2 0x54E SWAP1 PUSH2 0x18BC JUMP JUMPDEST DUP1 ISZERO PUSH2 0x59B JUMPI DUP1 PUSH1 0x1F LT PUSH2 0x570 JUMPI PUSH2 0x100 DUP1 DUP4 SLOAD DIV MUL DUP4 MSTORE SWAP2 PUSH1 0x20 ADD SWAP2 PUSH2 0x59B JUMP JUMPDEST DUP3 ADD SWAP2 SWAP1 PUSH1 0x0 MSTORE PUSH1 0x20 PUSH1 0x0 KECCAK256 SWAP1 JUMPDEST DUP2 SLOAD DUP2 MSTORE SWAP1 PUSH1 0x1 ADD SWAP1 PUSH1 0x20 ADD DUP1 DUP4 GT PUSH2 0x57E JUMPI DUP3 SWAP1 SUB PUSH1 0x1F AND DUP3 ADD SWAP2 JUMPDEST POP POP POP POP POP SWAP1 DUP1 PUSH1 0x2 ADD DUP1 SLOAD PUSH2 0x5B0 SWAP1 PUSH2 0x18BC JUMP JUMPDEST DUP1 PUSH1 0x1F ADD PUSH1 0x20 DUP1 SWAP2 DIV MUL PUSH1 0x20 ADD PUSH1 0x40 MLOAD SWAP1 DUP2 ADD PUSH1 0x40 MSTORE DUP1 SWAP3 SWAP2 SWAP1 DUP2 DUP2 MSTORE PUSH1 0x20 ADD DUP3 DUP1 SLOAD PUSH2 0x5DC SWAP1 PUSH2 0x18BC JUMP JUMPDEST DUP1 ISZERO PUSH2 0x629 JUMPI DUP1 PUSH1 0x1F LT PUSH2 0x5FE JUMPI PUSH2 0x100 DUP1 DUP4 SLOAD DIV MUL DUP4 MSTORE SWAP2 PUSH1 0x20 ADD SWAP2 PUSH2 0x629 JUMP JUMPDEST DUP3 ADD SWAP2 SWAP1 PUSH1 0x0 MSTORE PUSH1 0x20 PUSH1 0x0 KECCAK256 SWAP1 JUMPDEST DUP2 SLOAD DUP2 MSTORE SWAP1 PUSH1 0x1 ADD SWAP1 PUSH1 0x20 ADD DUP1 DUP4 GT PUSH2 0x60C JUMPI DUP3 SWAP1 SUB PUSH1 0x1F AND DUP3 ADD SWAP2 JUMPDEST POP POP POP POP POP SWAP1 DUP1 PUSH1 0x3 ADD DUP1 SLOAD PUSH2 0x63E SWAP1 PUSH2 0x18BC JUMP JUMPDEST DUP1 PUSH1 0x1F ADD PUSH1 0x20 DUP1 SWAP2 DIV MUL PUSH1 0x20 ADD PUSH1 0x40 MLOAD SWAP1 DUP2 ADD PUSH1 0x40 MSTORE DUP1 SWAP3 SWAP2 SWAP1 DUP2 DUP2 MSTORE PUSH1 0x20 ADD DUP3 DUP1 SLOAD PUSH2 0x66A SWAP1 PUSH2 0x18BC JUMP JUMPDEST DUP1 ISZERO PUSH2 0x6B7 JUMPI DUP1 PUSH1 0x1F LT PUSH2 0x68C JUMPI PUSH2 0x100 DUP1 DUP4 SLOAD DIV MUL DUP4 MSTORE SWAP2 PUSH1 0x20 ADD SWAP2 PUSH2 0x6B7 JUMP JUMPDEST DUP3 ADD SWAP2 SWAP1 PUSH1 0x0 MSTORE PUSH1 0x20 PUSH1 0x0 KECCAK256 SWAP1 JUMPDEST DUP2 SLOAD DUP2 MSTORE SWAP1 PUSH1 0x1 ADD SWAP1 PUSH1 0x20 ADD DUP1 DUP4 GT PUSH2 0x69A JUMPI DUP3 SWAP1 SUB PUSH1 0x1F AND DUP3 ADD SWAP2 JUMPDEST POP POP POP POP POP SWAP1 DUP1 PUSH1 0x4 ADD DUP1 SLOAD PUSH2 0x6CC SWAP1 PUSH2 0x18BC JUMP JUMPDEST DUP1 PUSH1 0x1F ADD PUSH1 0x20 DUP1 SWAP2 DIV MUL PUSH1 0x20 ADD PUSH1 0x40 MLOAD SWAP1 DUP2 ADD PUSH1 0x40 MSTORE DUP1 SWAP3 SWAP2 SWAP1 DUP2 DUP2 MSTORE PUSH1 0x20 ADD DUP3 DUP1 SLOAD PUSH2 0x6F8 SWAP1 PUSH2 0x18BC JUMP JUMPDEST DUP1 ISZERO PUSH2 0x745 JUMPI DUP1 PUSH1 0x1F LT PUSH2 0x71A JUMPI PUSH2 0x100 DUP1 DUP4 SLOAD DIV MUL DUP4 MSTORE SWAP2 PUSH1 0x20 ADD SWAP2 PUSH2 0x745 JUMP JUMPDEST DUP3 ADD SWAP2 SWAP1 PUSH1 0x0 MSTORE PUSH1 0x20 PUSH1 0x0 KECCAK256 SWAP1 JUMPDEST DUP2 SLOAD DUP2 MSTORE SWAP1 PUSH1 0x1 ADD SWAP1 PUSH1 0x20 ADD DUP1 DUP4 GT PUSH2 0x728 JUMPI DUP3 SWAP1 SUB PUSH1 0x1F AND DUP3 ADD SWAP2 JUMPDEST POP POP POP POP POP SWAP1 DUP1 PUSH1 0x5 ADD SLOAD SWAP1 DUP1 PUSH1 0x6 ADD PUSH1 0x40 MLOAD DUP1 PUSH1 0xA0 ADD PUSH1 0x40 MSTORE SWAP1 DUP2 PUSH1 0x0 DUP3 ADD DUP1 SLOAD PUSH2 0x770 SWAP1 PUSH2 0x18BC JUMP JUMPDEST DUP1 PUSH1 0x1F ADD PUSH1 0x20 DUP1 SWAP2 DIV MUL PUSH1 0x20 ADD PUSH1 0x40 MLOAD SWAP1 DUP2 ADD PUSH1 0x40 MSTORE DUP1 SWAP3 SWAP2 SWAP1 DUP2 DUP2 MSTORE PUSH1 0x20 ADD DUP3 DUP1 SLOAD PUSH2 0x79C SWAP1 PUSH2 0x18BC JUMP JUMPDEST DUP1 ISZERO PUSH2 0x7E9 JUMPI DUP1 PUSH1 0x1F LT PUSH2 0x7BE JUMPI PUSH2 0x100 DUP1 DUP4 SLOAD DIV MUL DUP4 MSTORE SWAP2 PUSH1 0x20 ADD SWAP2 PUSH2 0x7E9 JUMP JUMPDEST DUP3 ADD SWAP2 SWAP1 PUSH1 0x0 MSTORE PUSH1 0x20 PUSH1 0x0 KECCAK256 SWAP1 JUMPDEST DUP2 SLOAD DUP2 MSTORE SWAP1 PUSH1 0x1 ADD SWAP1 PUSH1 0x20 ADD DUP1 DUP4 GT PUSH2 0x7CC JUMPI DUP3 SWAP1 SUB PUSH1 0x1F AND DUP3 ADD SWAP2 JUMPDEST POP POP POP POP POP DUP2 MSTORE PUSH1 0x20 ADD PUSH1 0x1 DUP3 ADD DUP1 SLOAD PUSH2 0x802 SWAP1 PUSH2 0x18BC JUMP JUMPDEST DUP1 PUSH1 0x1F ADD PUSH1 0x20 DUP1 SWAP2 DIV MUL PUSH1 0x20 ADD PUSH1 0x40 MLOAD SWAP1 DUP2 ADD PUSH1 0x40 MSTORE DUP1 SWAP3 SWAP2 SWAP1 DUP2 DUP2 MSTORE PUSH1 0x20 ADD DUP3 DUP1 SLOAD PUSH2 0x82E SWAP1 PUSH2 0x18BC JUMP JUMPDEST DUP1 ISZERO PUSH2 0x87B JUMPI DUP1 PUSH1 0x1F LT PUSH2 0x850 JUMPI PUSH2 0x100 DUP1 DUP4 SLOAD DIV MUL DUP4 MSTORE SWAP2 PUSH1 0x20 ADD SWAP2 PUSH2 0x87B JUMP JUMPDEST DUP3 ADD SWAP2 SWAP1 PUSH1 0x0 MSTORE PUSH1 0x20 PUSH1 0x0 KECCAK256 SWAP1 JUMPDEST DUP2 SLOAD DUP2 MSTORE SWAP1 PUSH1 0x1 ADD SWAP1 PUSH1 0x20 ADD DUP1 DUP4 GT PUSH2 0x85E JUMPI DUP3 SWAP1 SUB PUSH1 0x1F AND DUP3 ADD SWAP2 JUMPDEST POP POP POP POP POP DUP2 MSTORE PUSH1 0x20 ADD PUSH1 0x2 DUP3 ADD DUP1 SLOAD PUSH2 0x894 SWAP1 PUSH2 0x18BC JUMP JUMPDEST DUP1 PUSH1 0x1F ADD PUSH1 0x20 DUP1 SWAP2 DIV MUL PUSH1 0x20 ADD PUSH1 0x40 MLOAD SWAP1 DUP2 ADD PUSH1 0x40 MSTORE DUP1 SWAP3 SWAP2 SWAP1 DUP2 DUP2 MSTORE PUSH1 0x20 ADD DUP3 DUP1 SLOAD PUSH2 0x8C0 SWAP1 PUSH2 0x18BC JUMP JUMPDEST DUP1 ISZERO PUSH2 0x90D JUMPI DUP1 PUSH1 0x1F LT PUSH2 0x8E2 JUMPI PUSH2 0x100 DUP1 DUP4 SLOAD DIV MUL DUP4 MSTORE SWAP2 PUSH1 0x20 ADD SWAP2 PUSH2 0x90D JUMP JUMPDEST DUP3 ADD SWAP2 SWAP1 PUSH1 0x0 MSTORE PUSH1 0x20 PUSH1 0x0 KECCAK256 SWAP1 JUMPDEST DUP2 SLOAD DUP2 MSTORE SWAP1 PUSH1 0x1 ADD SWAP1 PUSH1 0x20 ADD DUP1 DUP4 GT PUSH2 0x8F0 JUMPI DUP3 SWAP1 SUB PUSH1 0x1F AND DUP3 ADD SWAP2 JUMPDEST POP POP POP POP POP DUP2 MSTORE PUSH1 0x20 ADD PUSH1 0x3 DUP3 ADD DUP1 SLOAD PUSH2 0x926 SWAP1 PUSH2 0x18BC JUMP JUMPDEST DUP1 PUSH1 0x1F ADD PUSH1 0x20 DUP1 SWAP2 DIV MUL PUSH1 0x20 ADD PUSH1 0x40 MLOAD SWAP1 DUP2 ADD PUSH1 0x40 MSTORE DUP1 SWAP3 SWAP2 SWAP1 DUP2 DUP2 MSTORE PUSH1 0x20 ADD DUP3 DUP1 SLOAD PUSH2 0x952 SWAP1 PUSH2 0x18BC JUMP JUMPDEST DUP1 ISZERO PUSH2 0x99F JUMPI DUP1 PUSH1 0x1F LT PUSH2 0x974 JUMPI PUSH2 0x100 DUP1 DUP4 SLOAD DIV MUL DUP4 MSTORE SWAP2 PUSH1 0x20 ADD SWAP2 PUSH2 0x99F JUMP JUMPDEST DUP3 ADD SWAP2 SWAP1 PUSH1 0x0 MSTORE PUSH1 0x20 PUSH1 0x0 KECCAK256 SWAP1 JUMPDEST DUP2 SLOAD DUP2 MSTORE SWAP1 PUSH1 0x1 ADD SWAP1 PUSH1 0x20 ADD DUP1 DUP4 GT PUSH2 0x982 JUMPI DUP3 SWAP1 SUB PUSH1 0x1F AND DUP3 ADD SWAP2 JUMPDEST POP POP POP POP POP DUP2 MSTORE PUSH1 0x20 ADD PUSH1 0x4 DUP3 ADD DUP1 SLOAD PUSH2 0x9B8 SWAP1 PUSH2 0x18BC JUMP JUMPDEST DUP1 PUSH1 0x1F ADD PUSH1 0x20 DUP1 SWAP2 DIV MUL PUSH1 0x20 ADD PUSH1 0x40 MLOAD SWAP1 DUP2 ADD PUSH1 0x40 MSTORE DUP1 SWAP3 SWAP2 SWAP1 DUP2 DUP2 MSTORE PUSH1 0x20 ADD DUP3 DUP1 SLOAD PUSH2 0x9E4 SWAP1 PUSH2 0x18BC JUMP JUMPDEST DUP1 ISZERO PUSH2 0xA31 JUMPI DUP1 PUSH1 0x1F LT PUSH2 0xA06 JUMPI PUSH2 0x100 DUP1 DUP4 SLOAD DIV MUL DUP4 MSTORE SWAP2 PUSH1 0x20 ADD SWAP2 PUSH2 0xA31 JUMP JUMPDEST DUP3 ADD SWAP2 SWAP1 PUSH1 0x0 MSTORE PUSH1 0x20 PUSH1 0x0 KECCAK256 SWAP1 JUMPDEST DUP2 SLOAD DUP2 MSTORE SWAP1 PUSH1 0x1 ADD SWAP1 PUSH1 0x20 ADD DUP1 DUP4 GT PUSH2 0xA14 JUMPI DUP3 SWAP1 SUB PUSH1 0x1F AND DUP3 ADD SWAP2 JUMPDEST POP POP POP POP POP DUP2 MSTORE POP POP SWAP1 DUP1 PUSH1 0xB ADD PUSH1 0x40 MLOAD DUP1 PUSH1 0x60 ADD PUSH1 0x40 MSTORE SWAP1 DUP2 PUSH1 0x0 DUP3 ADD DUP1 SLOAD DUP1 PUSH1 0x20 MUL PUSH1 0x20 ADD PUSH1 0x40 MLOAD SWAP1 DUP2 ADD PUSH1 0x40 MSTORE DUP1 SWAP3 SWAP2 SWAP1 DUP2 DUP2 MSTORE PUSH1 0x20 ADD PUSH1 0x0 SWAP1 JUMPDEST DUP3 DUP3 LT ISZERO PUSH2 0xB1B JUMPI DUP4 DUP3 SWAP1 PUSH1 0x0 MSTORE PUSH1 0x20 PUSH1 0x0 KECCAK256 ADD DUP1 SLOAD PUSH2 0xA8E SWAP1 PUSH2 0x18BC JUMP JUMPDEST DUP1 PUSH1 0x1F ADD PUSH1 0x20 DUP1 SWAP2 DIV MUL PUSH1 0x20 ADD PUSH1 0x40 MLOAD SWAP1 DUP2 ADD PUSH1 0x40 MSTORE DUP1 SWAP3 SWAP2 SWAP1 DUP2 DUP2 MSTORE PUSH1 0x20 ADD DUP3 DUP1 SLOAD PUSH2 0xABA SWAP1 PUSH2 0x18BC JUMP JUMPDEST DUP1 ISZERO PUSH2 0xB07 JUMPI DUP1 PUSH1 0x1F LT PUSH2 0xADC JUMPI PUSH2 0x100 DUP1 DUP4 SLOAD DIV MUL DUP4 MSTORE SWAP2 PUSH1 0x20 ADD SWAP2 PUSH2 0xB07 JUMP JUMPDEST DUP3 ADD SWAP2 SWAP1 PUSH1 0x0 MSTORE PUSH1 0x20 PUSH1 0x0 KECCAK256 SWAP1 JUMPDEST DUP2 SLOAD DUP2 MSTORE SWAP1 PUSH1 0x1 ADD SWAP1 PUSH1 0x20 ADD DUP1 DUP4 GT PUSH2 0xAEA JUMPI DUP3 SWAP1 SUB PUSH1 0x1F AND DUP3 ADD SWAP2 JUMPDEST POP POP POP POP POP DUP2 MSTORE PUSH1 0x20 ADD SWAP1 PUSH1 0x1 ADD SWAP1 PUSH2 0xA6F JUMP JUMPDEST POP POP POP POP DUP2 MSTORE PUSH1 0x20 ADD PUSH1 0x1 DUP3 ADD DUP1 SLOAD DUP1 PUSH1 0x20 MUL PUSH1 0x20 ADD PUSH1 0x40 MLOAD SWAP1 DUP2 ADD PUSH1 0x40 MSTORE DUP1 SWAP3 SWAP2 SWAP1 DUP2 DUP2 MSTORE PUSH1 0x20 ADD PUSH1 0x0 SWAP1 JUMPDEST DUP3 DUP3 LT ISZERO PUSH2 0xBF4 JUMPI DUP4 DUP3 SWAP1 PUSH1 0x0 MSTORE PUSH1 0x20 PUSH1 0x0 KECCAK256 ADD DUP1 SLOAD PUSH2 0xB67 SWAP1 PUSH2 0x18BC JUMP JUMPDEST DUP1 PUSH1 0x1F ADD PUSH1 0x20 DUP1 SWAP2 DIV MUL PUSH1 0x20 ADD PUSH1 0x40 MLOAD SWAP1 DUP2 ADD PUSH1 0x40 MSTORE DUP1 SWAP3 SWAP2 SWAP1 DUP2 DUP2 MSTORE PUSH1 0x20 ADD DUP3 DUP1 SLOAD PUSH2 0xB93 SWAP1 PUSH2 0x18BC JUMP JUMPDEST DUP1 ISZERO PUSH2 0xBE0 JUMPI DUP1 PUSH1 0x1F LT PUSH2 0xBB5 JUMPI PUSH2 0x100 DUP1 DUP4 SLOAD DIV MUL DUP4 MSTORE SWAP2 PUSH1 0x20 ADD SWAP2 PUSH2 0xBE0 JUMP JUMPDEST DUP3 ADD SWAP2 SWAP1 PUSH1 0x0 MSTORE PUSH1 0x20 PUSH1 0x0 KECCAK256 SWAP1 JUMPDEST DUP2 SLOAD DUP2 MSTORE SWAP1 PUSH1 0x1 ADD SWAP1 PUSH1 0x20 ADD DUP1 DUP4 GT PUSH2 0xBC3 JUMPI DUP3 SWAP1 SUB PUSH1 0x1F AND DUP3 ADD SWAP2 JUMPDEST POP POP POP POP POP DUP2 MSTORE PUSH1 0x20 ADD SWAP1 PUSH1 0x1 ADD SWAP1 PUSH2 0xB48 JUMP JUMPDEST POP POP POP POP DUP2 MSTORE PUSH1 0x20 ADD PUSH1 0x2 DUP3 ADD DUP1 SLOAD DUP1 PUSH1 0x20 MUL PUSH1 0x20 ADD PUSH1 0x40 MLOAD SWAP1 DUP2 ADD PUSH1 0x40 MSTORE DUP1 SWAP3 SWAP2 SWAP1 DUP2 DUP2 MSTORE PUSH1 0x20 ADD PUSH1 0x0 SWAP1 JUMPDEST DUP3 DUP3 LT ISZERO PUSH2 0xCCD JUMPI DUP4 DUP3 SWAP1 PUSH1 0x0 MSTORE PUSH1 0x20 PUSH1 0x0 KECCAK256 ADD DUP1 SLOAD PUSH2 0xC40 SWAP1 PUSH2 0x18BC JUMP JUMPDEST DUP1 PUSH1 0x1F ADD PUSH1 0x20 DUP1 SWAP2 DIV MUL PUSH1 0x20 ADD PUSH1 0x40 MLOAD SWAP1 DUP2 ADD PUSH1 0x40 MSTORE DUP1 SWAP3 SWAP2 SWAP1 DUP2 DUP2 MSTORE PUSH1 0x20 ADD DUP3 DUP1 SLOAD PUSH2 0xC6C SWAP1 PUSH2 0x18BC JUMP JUMPDEST DUP1 ISZERO PUSH2 0xCB9 JUMPI DUP1 PUSH1 0x1F LT PUSH2 0xC8E JUMPI PUSH2 0x100 DUP1 DUP4 SLOAD DIV MUL DUP4 MSTORE SWAP2 PUSH1 0x20 ADD SWAP2 PUSH2 0xCB9 JUMP JUMPDEST DUP3 ADD SWAP2 SWAP1 PUSH1 0x0 MSTORE PUSH1 0x20 PUSH1 0x0 KECCAK256 SWAP1 JUMPDEST DUP2 SLOAD DUP2 MSTORE SWAP1 PUSH1 0x1 ADD SWAP1 PUSH1 0x20 ADD DUP1 DUP4 GT PUSH2 0xC9C JUMPI DUP3 SWAP1 SUB PUSH1 0x1F AND DUP3 ADD SWAP2 JUMPDEST POP POP POP POP POP DUP2 MSTORE PUSH1 0x20 ADD SWAP1 PUSH1 0x1 ADD SWAP1 PUSH2 0xC21 JUMP JUMPDEST POP POP POP POP DUP2 MSTORE POP POP SWAP1 POP DUP9 JUMP JUMPDEST DUP3 PUSH1 0x0 DUP1 CALLER PUSH20 0xFFFFFFFFFFFFFFFFFFFFFFFFFFFFFFFFFFFFFFFF AND PUSH20 0xFFFFFFFFFFFFFFFFFFFFFFFFFFFFFFFFFFFFFFFF AND DUP2 MSTORE PUSH1 0x20 ADD SWAP1 DUP2 MSTORE PUSH1 0x20 ADD PUSH1 0x0 KECCAK256 PUSH1 0xB ADD PUSH1 0x0 ADD SWAP1 DUP1 MLOAD SWAP1 PUSH1 0x20 ADD SWAP1 PUSH2 0xD32 SWAP3 SWAP2 SWAP1 PUSH2 0xFB0 JUMP JUMPDEST POP DUP2 PUSH1 0x0 DUP1 CALLER PUSH20 0xFFFFFFFFFFFFFFFFFFFFFFFFFFFFFFFFFFFFFFFF AND PUSH20 0xFFFFFFFFFFFFFFFFFFFFFFFFFFFFFFFFFFFFFFFF AND DUP2 MSTORE PUSH1 0x20 ADD SWAP1 DUP2 MSTORE PUSH1 0x20 ADD PUSH1 0x0 KECCAK256 PUSH1 0xB ADD PUSH1 0x1 ADD SWAP1 DUP1 MLOAD SWAP1 PUSH1 0x20 ADD SWAP1 PUSH2 0xD8B SWAP3 SWAP2 SWAP1 PUSH2 0xFB0 JUMP JUMPDEST POP DUP1 PUSH1 0x0 DUP1 CALLER PUSH20 0xFFFFFFFFFFFFFFFFFFFFFFFFFFFFFFFFFFFFFFFF AND PUSH20 0xFFFFFFFFFFFFFFFFFFFFFFFFFFFFFFFFFFFFFFFF AND DUP2 MSTORE PUSH1 0x20 ADD SWAP1 DUP2 MSTORE PUSH1 0x20 ADD PUSH1 0x0 KECCAK256 PUSH1 0xB ADD PUSH1 0x2 ADD SWAP1 DUP1 MLOAD SWAP1 PUSH1 0x20 ADD SWAP1 PUSH2 0xDE4 SWAP3 SWAP2 SWAP1 PUSH2 0xFB0 JUMP JUMPDEST POP POP POP POP JUMP JUMPDEST PUSH1 0x0 DUP1 CALLER PUSH20 0xFFFFFFFFFFFFFFFFFFFFFFFFFFFFFFFFFFFFFFFF AND PUSH20 0xFFFFFFFFFFFFFFFFFFFFFFFFFFFFFFFFFFFFFFFF AND DUP2 MSTORE PUSH1 0x20 ADD SWAP1 DUP2 MSTORE PUSH1 0x20 ADD PUSH1 0x0 KECCAK256 PUSH1 0x0 DUP1 DUP3 ADD PUSH1 0x0 PUSH2 0x100 EXP DUP2 SLOAD SWAP1 PUSH20 0xFFFFFFFFFFFFFFFFFFFFFFFFFFFFFFFFFFFFFFFF MUL NOT AND SWAP1 SSTORE PUSH1 0x1 DUP3 ADD PUSH1 0x0 PUSH2 0xE60 SWAP2 SWAP1 PUSH2 0x1010 JUMP JUMPDEST PUSH1 0x2 DUP3 ADD PUSH1 0x0 PUSH2 0xE70 SWAP2 SWAP1 PUSH2 0x1010 JUMP JUMPDEST PUSH1 0x3 DUP3 ADD PUSH1 0x0 PUSH2 0xE80 SWAP2 SWAP1 PUSH2 0x1010 JUMP JUMPDEST PUSH1 0x4 DUP3 ADD PUSH1 0x0 PUSH2 0xE90 SWAP2 SWAP1 PUSH2 0x1010 JUMP JUMPDEST PUSH1 0x5 DUP3 ADD PUSH1 0x0 SWAP1 SSTORE PUSH1 0x6 DUP3 ADD PUSH1 0x0 DUP1 DUP3 ADD PUSH1 0x0 PUSH2 0xEAD SWAP2 SWAP1 PUSH2 0x1010 JUMP JUMPDEST PUSH1 0x1 DUP3 ADD PUSH1 0x0 PUSH2 0xEBD SWAP2 SWAP1 PUSH2 0x1010 JUMP JUMPDEST PUSH1 0x2 DUP3 ADD PUSH1 0x0 PUSH2 0xECD SWAP2 SWAP1 PUSH2 0x1010 JUMP JUMPDEST PUSH1 0x3 DUP3 ADD PUSH1 0x0 PUSH2 0xEDD SWAP2 SWAP1 PUSH2 0x1010 JUMP JUMPDEST PUSH1 0x4 DUP3 ADD PUSH1 0x0 PUSH2 0xEED SWAP2 SWAP1 PUSH2 0x1010 JUMP JUMPDEST POP POP PUSH1 0xB DUP3 ADD PUSH1 0x0 DUP1 DUP3 ADD PUSH1 0x0 PUSH2 0xF04 SWAP2 SWAP1 PUSH2 0x1050 JUMP JUMPDEST PUSH1 0x1 DUP3 ADD PUSH1 0x0 PUSH2 0xF14 SWAP2 SWAP1 PUSH2 0x1050 JUMP JUMPDEST PUSH1 0x2 DUP3 ADD PUSH1 0x0 PUSH2 0xF24 SWAP2 SWAP1 PUSH2 0x1050 JUMP JUMPDEST POP POP POP POP JUMP JUMPDEST DUP3 DUP1 SLOAD PUSH2 0xF36 SWAP1 PUSH2 0x18BC JUMP JUMPDEST SWAP1 PUSH1 0x0 MSTORE PUSH1 0x20 PUSH1 0x0 KECCAK256 SWAP1 PUSH1 0x1F ADD PUSH1 0x20 SWAP1 DIV DUP2 ADD SWAP3 DUP3 PUSH2 0xF58 JUMPI PUSH1 0x0 DUP6 SSTORE PUSH2 0xF9F JUMP JUMPDEST DUP3 PUSH1 0x1F LT PUSH2 0xF71 JUMPI DUP1 MLOAD PUSH1 0xFF NOT AND DUP4 DUP1 ADD OR DUP6 SSTORE PUSH2 0xF9F JUMP JUMPDEST DUP3 DUP1 ADD PUSH1 0x1 ADD DUP6 SSTORE DUP3 ISZERO PUSH2 0xF9F JUMPI SWAP2 DUP3 ADD JUMPDEST DUP3 DUP2 GT ISZERO PUSH2 0xF9E JUMPI DUP3 MLOAD DUP3 SSTORE SWAP2 PUSH1 0x20 ADD SWAP2 SWAP1 PUSH1 0x1 ADD SWAP1 PUSH2 0xF83 JUMP JUMPDEST JUMPDEST POP SWAP1 POP PUSH2 0xFAC SWAP2 SWAP1 PUSH2 0x1071 JUMP JUMPDEST POP SWAP1 JUMP JUMPDEST DUP3 DUP1 SLOAD DUP3 DUP3 SSTORE SWAP1 PUSH1 0x0 MSTORE PUSH1 0x20 PUSH1 0x0 KECCAK256 SWAP1 DUP2 ADD SWAP3 DUP3 ISZERO PUSH2 0xFFF JUMPI SWAP2 PUSH1 0x20 MUL DUP3 ADD JUMPDEST DUP3 DUP2 GT ISZERO PUSH2 0xFFE JUMPI DUP3 MLOAD DUP3 SWAP1 DUP1 MLOAD SWAP1 PUSH1 0x20 ADD SWAP1 PUSH2 0xFEE SWAP3 SWAP2 SWAP1 PUSH2 0xF2A JUMP JUMPDEST POP SWAP2 PUSH1 0x20 ADD SWAP2 SWAP1 PUSH1 0x1 ADD SWAP1 PUSH2 0xFD0 JUMP JUMPDEST JUMPDEST POP SWAP1 POP PUSH2 0x100C SWAP2 SWAP1 PUSH2 0x108E JUMP JUMPDEST POP SWAP1 JUMP JUMPDEST POP DUP1 SLOAD PUSH2 0x101C SWAP1 PUSH2 0x18BC JUMP JUMPDEST PUSH1 0x0 DUP3 SSTORE DUP1 PUSH1 0x1F LT PUSH2 0x102E JUMPI POP PUSH2 0x104D JUMP JUMPDEST PUSH1 0x1F ADD PUSH1 0x20 SWAP1 DIV SWAP1 PUSH1 0x0 MSTORE PUSH1 0x20 PUSH1 0x0 KECCAK256 SWAP1 DUP2 ADD SWAP1 PUSH2 0x104C SWAP2 SWAP1 PUSH2 0x1071 JUMP JUMPDEST JUMPDEST POP JUMP JUMPDEST POP DUP1 SLOAD PUSH1 0x0 DUP3 SSTORE SWAP1 PUSH1 0x0 MSTORE PUSH1 0x20 PUSH1 0x0 KECCAK256 SWAP1 DUP2 ADD SWAP1 PUSH2 0x106E SWAP2 SWAP1 PUSH2 0x108E JUMP JUMPDEST POP JUMP JUMPDEST JUMPDEST DUP1 DUP3 GT ISZERO PUSH2 0x108A JUMPI PUSH1 0x0 DUP2 PUSH1 0x0 SWAP1 SSTORE POP PUSH1 0x1 ADD PUSH2 0x1072 JUMP JUMPDEST POP SWAP1 JUMP JUMPDEST JUMPDEST DUP1 DUP3 GT ISZERO PUSH2 0x10AE JUMPI PUSH1 0x0 DUP2 DUP2 PUSH2 0x10A5 SWAP2 SWAP1 PUSH2 0x1010 JUMP JUMPDEST POP PUSH1 0x1 ADD PUSH2 0x108F JUMP JUMPDEST POP SWAP1 JUMP JUMPDEST PUSH1 0x0 PUSH2 0x10C5 PUSH2 0x10C0 DUP5 PUSH2 0x177B JUMP JUMPDEST PUSH2 0x1756 JUMP JUMPDEST SWAP1 POP DUP1 DUP4 DUP3 MSTORE PUSH1 0x20 DUP3 ADD SWAP1 POP DUP3 DUP6 PUSH1 0x20 DUP7 MUL DUP3 ADD GT ISZERO PUSH2 0x10E8 JUMPI PUSH2 0x10E7 PUSH2 0x1982 JUMP JUMPDEST JUMPDEST PUSH1 0x0 JUMPDEST DUP6 DUP2 LT ISZERO PUSH2 0x1136 JUMPI DUP2 CALLDATALOAD PUSH8 0xFFFFFFFFFFFFFFFF DUP2 GT ISZERO PUSH2 0x110E JUMPI PUSH2 0x110D PUSH2 0x197D JUMP JUMPDEST JUMPDEST DUP1 DUP7 ADD PUSH2 0x111B DUP10 DUP3 PUSH2 0x11C5 JUMP JUMPDEST DUP6 MSTORE PUSH1 0x20 DUP6 ADD SWAP5 POP PUSH1 0x20 DUP5 ADD SWAP4 POP POP POP PUSH1 0x1 DUP2 ADD SWAP1 POP PUSH2 0x10EB JUMP JUMPDEST POP POP POP SWAP4 SWAP3 POP POP POP JUMP JUMPDEST PUSH1 0x0 PUSH2 0x1153 PUSH2 0x114E DUP5 PUSH2 0x17A7 JUMP JUMPDEST PUSH2 0x1756 JUMP JUMPDEST SWAP1 POP DUP3 DUP2 MSTORE PUSH1 0x20 DUP2 ADD DUP5 DUP5 DUP5 ADD GT ISZERO PUSH2 0x116F JUMPI PUSH2 0x116E PUSH2 0x1987 JUMP JUMPDEST JUMPDEST PUSH2 0x117A DUP5 DUP3 DUP6 PUSH2 0x187A JUMP JUMPDEST POP SWAP4 SWAP3 POP POP POP JUMP JUMPDEST PUSH1 0x0 DUP2 CALLDATALOAD SWAP1 POP PUSH2 0x1191 DUP2 PUSH2 0x19A7 JUMP JUMPDEST SWAP3 SWAP2 POP POP JUMP JUMPDEST PUSH1 0x0 DUP3 PUSH1 0x1F DUP4 ADD SLT PUSH2 0x11AC JUMPI PUSH2 0x11AB PUSH2 0x197D JUMP JUMPDEST JUMPDEST DUP2 CALLDATALOAD PUSH2 0x11BC DUP5 DUP3 PUSH1 0x20 DUP7 ADD PUSH2 0x10B2 JUMP JUMPDEST SWAP2 POP POP SWAP3 SWAP2 POP POP JUMP JUMPDEST PUSH1 0x0 DUP3 PUSH1 0x1F DUP4 ADD SLT PUSH2 0x11DA JUMPI PUSH2 0x11D9 PUSH2 0x197D JUMP JUMPDEST JUMPDEST DUP2 CALLDATALOAD PUSH2 0x11EA DUP5 DUP3 PUSH1 0x20 DUP7 ADD PUSH2 0x1140 JUMP JUMPDEST SWAP2 POP POP SWAP3 SWAP2 POP POP JUMP JUMPDEST PUSH1 0x0 PUSH1 0x20 DUP3 DUP5 SUB SLT ISZERO PUSH2 0x1209 JUMPI PUSH2 0x1208 PUSH2 0x1991 JUMP JUMPDEST JUMPDEST PUSH1 0x0 PUSH2 0x1217 DUP5 DUP3 DUP6 ADD PUSH2 0x1182 JUMP JUMPDEST SWAP2 POP POP SWAP3 SWAP2 POP POP JUMP JUMPDEST PUSH1 0x0 DUP1 PUSH1 0x0 PUSH1 0x60 DUP5 DUP7 SUB SLT ISZERO PUSH2 0x1239 JUMPI PUSH2 0x1238 PUSH2 0x1991 JUMP JUMPDEST JUMPDEST PUSH1 0x0 DUP5 ADD CALLDATALOAD PUSH8 0xFFFFFFFFFFFFFFFF DUP2 GT ISZERO PUSH2 0x1257 JUMPI PUSH2 0x1256 PUSH2 0x198C JUMP JUMPDEST JUMPDEST PUSH2 0x1263 DUP7 DUP3 DUP8 ADD PUSH2 0x1197 JUMP JUMPDEST SWAP4 POP POP PUSH1 0x20 DUP5 ADD CALLDATALOAD PUSH8 0xFFFFFFFFFFFFFFFF DUP2 GT ISZERO PUSH2 0x1284 JUMPI PUSH2 0x1283 PUSH2 0x198C JUMP JUMPDEST JUMPDEST PUSH2 0x1290 DUP7 DUP3 DUP8 ADD PUSH2 0x1197 JUMP JUMPDEST SWAP3 POP POP PUSH1 0x40 DUP5 ADD CALLDATALOAD PUSH8 0xFFFFFFFFFFFFFFFF DUP2 GT ISZERO PUSH2 0x12B1 JUMPI PUSH2 0x12B0 PUSH2 0x198C JUMP JUMPDEST JUMPDEST PUSH2 0x12BD DUP7 DUP3 DUP8 ADD PUSH2 0x1197 JUMP JUMPDEST SWAP2 POP POP SWAP3 POP SWAP3 POP SWAP3 JUMP JUMPDEST PUSH1 0x0 DUP1 PUSH1 0x0 DUP1 PUSH1 0x80 DUP6 DUP8 SUB SLT ISZERO PUSH2 0x12E1 JUMPI PUSH2 0x12E0 PUSH2 0x1991 JUMP JUMPDEST JUMPDEST PUSH1 0x0 DUP6 ADD CALLDATALOAD PUSH8 0xFFFFFFFFFFFFFFFF DUP2 GT ISZERO PUSH2 0x12FF JUMPI PUSH2 0x12FE PUSH2 0x198C JUMP JUMPDEST JUMPDEST PUSH2 0x130B DUP8 DUP3 DUP9 ADD PUSH2 0x11C5 JUMP JUMPDEST SWAP5 POP POP PUSH1 0x20 DUP6 ADD CALLDATALOAD PUSH8 0xFFFFFFFFFFFFFFFF DUP2 GT ISZERO PUSH2 0x132C JUMPI PUSH2 0x132B PUSH2 0x198C JUMP JUMPDEST JUMPDEST PUSH2 0x1338 DUP8 DUP3 DUP9 ADD PUSH2 0x11C5 JUMP JUMPDEST SWAP4 POP POP PUSH1 0x40 DUP6 ADD CALLDATALOAD PUSH8 0xFFFFFFFFFFFFFFFF DUP2 GT ISZERO PUSH2 0x1359 JUMPI PUSH2 0x1358 PUSH2 0x198C JUMP JUMPDEST JUMPDEST PUSH2 0x1365 DUP8 DUP3 DUP9 ADD PUSH2 0x11C5 JUMP JUMPDEST SWAP3 POP POP PUSH1 0x60 DUP6 ADD CALLDATALOAD PUSH8 0xFFFFFFFFFFFFFFFF DUP2 GT ISZERO PUSH2 0x1386 JUMPI PUSH2 0x1385 PUSH2 0x198C JUMP JUMPDEST JUMPDEST PUSH2 0x1392 DUP8 DUP3 DUP9 ADD PUSH2 0x11C5 JUMP JUMPDEST SWAP2 POP POP SWAP3 SWAP6 SWAP2 SWAP5 POP SWAP3 POP JUMP JUMPDEST PUSH1 0x0 DUP1 PUSH1 0x0 DUP1 PUSH1 0x0 PUSH1 0xA0 DUP7 DUP9 SUB SLT ISZERO PUSH2 0x13BA JUMPI PUSH2 0x13B9 PUSH2 0x1991 JUMP JUMPDEST JUMPDEST PUSH1 0x0 DUP7 ADD CALLDATALOAD PUSH8 0xFFFFFFFFFFFFFFFF DUP2 GT ISZERO PUSH2 0x13D8 JUMPI PUSH2 0x13D7 PUSH2 0x198C JUMP JUMPDEST JUMPDEST PUSH2 0x13E4 DUP9 DUP3 DUP10 ADD PUSH2 0x11C5 JUMP JUMPDEST SWAP6 POP POP PUSH1 0x20 DUP7 ADD CALLDATALOAD PUSH8 0xFFFFFFFFFFFFFFFF DUP2 GT ISZERO PUSH2 0x1405 JUMPI PUSH2 0x1404 PUSH2 0x198C JUMP JUMPDEST JUMPDEST PUSH2 0x1411 DUP9 DUP3 DUP10 ADD PUSH2 0x11C5 JUMP JUMPDEST SWAP5 POP POP PUSH1 0x40 DUP7 ADD CALLDATALOAD PUSH8 0xFFFFFFFFFFFFFFFF DUP2 GT ISZERO PUSH2 0x1432 JUMPI PUSH2 0x1431 PUSH2 0x198C JUMP JUMPDEST JUMPDEST PUSH2 0x143E DUP9 DUP3 DUP10 ADD PUSH2 0x11C5 JUMP JUMPDEST SWAP4 POP POP PUSH1 0x60 DUP7 ADD CALLDATALOAD PUSH8 0xFFFFFFFFFFFFFFFF DUP2 GT ISZERO PUSH2 0x145F JUMPI PUSH2 0x145E PUSH2 0x198C JUMP JUMPDEST JUMPDEST PUSH2 0x146B DUP9 DUP3 DUP10 ADD PUSH2 0x11C5 JUMP JUMPDEST SWAP3 POP POP PUSH1 0x80 DUP7 ADD CALLDATALOAD PUSH8 0xFFFFFFFFFFFFFFFF DUP2 GT ISZERO PUSH2 0x148C JUMPI PUSH2 0x148B PUSH2 0x198C JUMP JUMPDEST JUMPDEST PUSH2 0x1498 DUP9 DUP3 DUP10 ADD PUSH2 0x11C5 JUMP JUMPDEST SWAP2 POP POP SWAP3 SWAP6 POP SWAP3 SWAP6 SWAP1 SWAP4 POP JUMP JUMPDEST PUSH1 0x0 PUSH2 0x14B1 DUP4 DUP4 PUSH2 0x153D JUMP JUMPDEST SWAP1 POP SWAP3 SWAP2 POP POP JUMP JUMPDEST PUSH2 0x14C2 DUP2 PUSH2 0x183E JUMP JUMPDEST DUP3 MSTORE POP POP JUMP JUMPDEST PUSH1 0x0 PUSH2 0x14D3 DUP3 PUSH2 0x17E8 JUMP JUMPDEST PUSH2 0x14DD DUP2 DUP6 PUSH2 0x180B JUMP JUMPDEST SWAP4 POP DUP4 PUSH1 0x20 DUP3 MUL DUP6 ADD PUSH2 0x14EF DUP6 PUSH2 0x17D8 JUMP JUMPDEST DUP1 PUSH1 0x0 JUMPDEST DUP6 DUP2 LT ISZERO PUSH2 0x152B JUMPI DUP5 DUP5 SUB DUP10 MSTORE DUP2 MLOAD PUSH2 0x150C DUP6 DUP3 PUSH2 0x14A5 JUMP JUMPDEST SWAP5 POP PUSH2 0x1517 DUP4 PUSH2 0x17FE JUMP JUMPDEST SWAP3 POP PUSH1 0x20 DUP11 ADD SWAP10 POP POP PUSH1 0x1 DUP2 ADD SWAP1 POP PUSH2 0x14F3 JUMP JUMPDEST POP DUP3 SWAP8 POP DUP8 SWAP6 POP POP POP POP POP POP SWAP3 SWAP2 POP POP JUMP JUMPDEST PUSH1 0x0 PUSH2 0x1548 DUP3 PUSH2 0x17F3 JUMP JUMPDEST PUSH2 0x1552 DUP2 DUP6 PUSH2 0x181C JUMP JUMPDEST SWAP4 POP PUSH2 0x1562 DUP2 DUP6 PUSH1 0x20 DUP7 ADD PUSH2 0x1889 JUMP JUMPDEST PUSH2 0x156B DUP2 PUSH2 0x1996 JUMP JUMPDEST DUP5 ADD SWAP2 POP POP SWAP3 SWAP2 POP POP JUMP JUMPDEST PUSH1 0x0 PUSH2 0x1581 DUP3 PUSH2 0x17F3 JUMP JUMPDEST PUSH2 0x158B DUP2 DUP6 PUSH2 0x182D JUMP JUMPDEST SWAP4 POP PUSH2 0x159B DUP2 DUP6 PUSH1 0x20 DUP7 ADD PUSH2 0x1889 JUMP JUMPDEST PUSH2 0x15A4 DUP2 PUSH2 0x1996 JUMP JUMPDEST DUP5 ADD SWAP2 POP POP SWAP3 SWAP2 POP POP JUMP JUMPDEST PUSH1 0x0 PUSH1 0xA0 DUP4 ADD PUSH1 0x0 DUP4 ADD MLOAD DUP5 DUP3 SUB PUSH1 0x0 DUP7 ADD MSTORE PUSH2 0x15CC DUP3 DUP3 PUSH2 0x153D JUMP JUMPDEST SWAP2 POP POP PUSH1 0x20 DUP4 ADD MLOAD DUP5 DUP3 SUB PUSH1 0x20 DUP7 ADD MSTORE PUSH2 0x15E6 DUP3 DUP3 PUSH2 0x153D JUMP JUMPDEST SWAP2 POP POP PUSH1 0x40 DUP4 ADD MLOAD DUP5 DUP3 SUB PUSH1 0x40 DUP7 ADD MSTORE PUSH2 0x1600 DUP3 DUP3 PUSH2 0x153D JUMP JUMPDEST SWAP2 POP POP PUSH1 0x60 DUP4 ADD MLOAD DUP5 DUP3 SUB PUSH1 0x60 DUP7 ADD MSTORE PUSH2 0x161A DUP3 DUP3 PUSH2 0x153D JUMP JUMPDEST SWAP2 POP POP PUSH1 0x80 DUP4 ADD MLOAD DUP5 DUP3 SUB PUSH1 0x80 DUP7 ADD MSTORE PUSH2 0x1634 DUP3 DUP3 PUSH2 0x153D JUMP JUMPDEST SWAP2 POP POP DUP1 SWAP2 POP POP SWAP3 SWAP2 POP POP JUMP JUMPDEST PUSH1 0x0 PUSH1 0x60 DUP4 ADD PUSH1 0x0 DUP4 ADD MLOAD DUP5 DUP3 SUB PUSH1 0x0 DUP7 ADD MSTORE PUSH2 0x165E DUP3 DUP3 PUSH2 0x14C8 JUMP JUMPDEST SWAP2 POP POP PUSH1 0x20 DUP4 ADD MLOAD DUP5 DUP3 SUB PUSH1 0x20 DUP7 ADD MSTORE PUSH2 0x1678 DUP3 DUP3 PUSH2 0x14C8 JUMP JUMPDEST SWAP2 POP POP PUSH1 0x40 DUP4 ADD MLOAD DUP5 DUP3 SUB PUSH1 0x40 DUP7 ADD MSTORE PUSH2 0x1692 DUP3 DUP3 PUSH2 0x14C8 JUMP JUMPDEST SWAP2 POP POP DUP1 SWAP2 POP POP SWAP3 SWAP2 POP POP JUMP JUMPDEST PUSH2 0x16A8 DUP2 PUSH2 0x1870 JUMP JUMPDEST DUP3 MSTORE POP POP JUMP JUMPDEST PUSH1 0x0 PUSH2 0x100 DUP3 ADD SWAP1 POP PUSH2 0x16C4 PUSH1 0x0 DUP4 ADD DUP12 PUSH2 0x14B9 JUMP JUMPDEST DUP2 DUP2 SUB PUSH1 0x20 DUP4 ADD MSTORE PUSH2 0x16D6 DUP2 DUP11 PUSH2 0x1576 JUMP JUMPDEST SWAP1 POP DUP2 DUP2 SUB PUSH1 0x40 DUP4 ADD MSTORE PUSH2 0x16EA DUP2 DUP10 PUSH2 0x1576 JUMP JUMPDEST SWAP1 POP DUP2 DUP2 SUB PUSH1 0x60 DUP4 ADD MSTORE PUSH2 0x16FE DUP2 DUP9 PUSH2 0x1576 JUMP JUMPDEST SWAP1 POP DUP2 DUP2 SUB PUSH1 0x80 DUP4 ADD MSTORE PUSH2 0x1712 DUP2 DUP8 PUSH2 0x1576 JUMP JUMPDEST SWAP1 POP PUSH2 0x1721 PUSH1 0xA0 DUP4 ADD DUP7 PUSH2 0x169F JUMP JUMPDEST DUP2 DUP2 SUB PUSH1 0xC0 DUP4 ADD MSTORE PUSH2 0x1733 DUP2 DUP6 PUSH2 0x15AF JUMP JUMPDEST SWAP1 POP DUP2 DUP2 SUB PUSH1 0xE0 DUP4 ADD MSTORE PUSH2 0x1747 DUP2 DUP5 PUSH2 0x1641 JUMP JUMPDEST SWAP1 POP SWAP10 SWAP9 POP POP POP POP POP POP POP POP POP JUMP JUMPDEST PUSH1 0x0 PUSH2 0x1760 PUSH2 0x1771 JUMP JUMPDEST SWAP1 POP PUSH2 0x176C DUP3 DUP3 PUSH2 0x18EE JUMP JUMPDEST SWAP2 SWAP1 POP JUMP JUMPDEST PUSH1 0x0 PUSH1 0x40 MLOAD SWAP1 POP SWAP1 JUMP JUMPDEST PUSH1 0x0 PUSH8 0xFFFFFFFFFFFFFFFF DUP3 GT ISZERO PUSH2 0x1796 JUMPI PUSH2 0x1795 PUSH2 0x194E JUMP JUMPDEST JUMPDEST PUSH1 0x20 DUP3 MUL SWAP1 POP PUSH1 0x20 DUP2 ADD SWAP1 POP SWAP2 SWAP1 POP JUMP JUMPDEST PUSH1 0x0 PUSH8 0xFFFFFFFFFFFFFFFF DUP3 GT ISZERO PUSH2 0x17C2 JUMPI PUSH2 0x17C1 PUSH2 0x194E JUMP JUMPDEST JUMPDEST PUSH2 0x17CB DUP3 PUSH2 0x1996 JUMP JUMPDEST SWAP1 POP PUSH1 0x20 DUP2 ADD SWAP1 POP SWAP2 SWAP1 POP JUMP JUMPDEST PUSH1 0x0 DUP2 SWAP1 POP PUSH1 0x20 DUP3 ADD SWAP1 POP SWAP2 SWAP1 POP JUMP JUMPDEST PUSH1 0x0 DUP2 MLOAD SWAP1 POP SWAP2 SWAP1 POP JUMP JUMPDEST PUSH1 0x0 DUP2 MLOAD SWAP1 POP SWAP2 SWAP1 POP JUMP JUMPDEST PUSH1 0x0 PUSH1 0x20 DUP3 ADD SWAP1 POP SWAP2 SWAP1 POP JUMP JUMPDEST PUSH1 0x0 DUP3 DUP3 MSTORE PUSH1 0x20 DUP3 ADD SWAP1 POP SWAP3 SWAP2 POP POP JUMP JUMPDEST PUSH1 0x0 DUP3 DUP3 MSTORE PUSH1 0x20 DUP3 ADD SWAP1 POP SWAP3 SWAP2 POP POP JUMP JUMPDEST PUSH1 0x0 DUP3 DUP3 MSTORE PUSH1 0x20 DUP3 ADD SWAP1 POP SWAP3 SWAP2 POP POP JUMP JUMPDEST PUSH1 0x0 PUSH2 0x1849 DUP3 PUSH2 0x1850 JUMP JUMPDEST SWAP1 POP SWAP2 SWAP1 POP JUMP JUMPDEST PUSH1 0x0 PUSH20 0xFFFFFFFFFFFFFFFFFFFFFFFFFFFFFFFFFFFFFFFF DUP3 AND SWAP1 POP SWAP2 SWAP1 POP JUMP JUMPDEST PUSH1 0x0 DUP2 SWAP1 POP SWAP2 SWAP1 POP JUMP JUMPDEST DUP3 DUP2 DUP4 CALLDATACOPY PUSH1 0x0 DUP4 DUP4 ADD MSTORE POP POP POP JUMP JUMPDEST PUSH1 0x0 JUMPDEST DUP4 DUP2 LT ISZERO PUSH2 0x18A7 JUMPI DUP1 DUP3 ADD MLOAD DUP2 DUP5 ADD MSTORE PUSH1 0x20 DUP2 ADD SWAP1 POP PUSH2 0x188C JUMP JUMPDEST DUP4 DUP2 GT ISZERO PUSH2 0x18B6 JUMPI PUSH1 0x0 DUP5 DUP5 ADD MSTORE JUMPDEST POP POP POP POP JUMP JUMPDEST PUSH1 0x0 PUSH1 0x2 DUP3 DIV SWAP1 POP PUSH1 0x1 DUP3 AND DUP1 PUSH2 0x18D4 JUMPI PUSH1 0x7F DUP3 AND SWAP2 POP JUMPDEST PUSH1 0x20 DUP3 LT DUP2 EQ ISZERO PUSH2 0x18E8 JUMPI PUSH2 0x18E7 PUSH2 0x191F JUMP JUMPDEST JUMPDEST POP SWAP2 SWAP1 POP JUMP JUMPDEST PUSH2 0x18F7 DUP3 PUSH2 0x1996 JUMP JUMPDEST DUP2 ADD DUP2 DUP2 LT PUSH8 0xFFFFFFFFFFFFFFFF DUP3 GT OR ISZERO PUSH2 0x1916 JUMPI PUSH2 0x1915 PUSH2 0x194E JUMP JUMPDEST JUMPDEST DUP1 PUSH1 0x40 MSTORE POP POP POP JUMP JUMPDEST PUSH32 0x4E487B7100000000000000000000000000000000000000000000000000000000 PUSH1 0x0 MSTORE PUSH1 0x22 PUSH1 0x4 MSTORE PUSH1 0x24 PUSH1 0x0 REVERT JUMPDEST PUSH32 0x4E487B7100000000000000000000000000000000000000000000000000000000 PUSH1 0x0 MSTORE PUSH1 0x41 PUSH1 0x4 MSTORE PUSH1 0x24 PUSH1 0x0 REVERT JUMPDEST PUSH1 0x0 DUP1 REVERT JUMPDEST PUSH1 0x0 DUP1 REVERT JUMPDEST PUSH1 0x0 DUP1 REVERT JUMPDEST PUSH1 0x0 DUP1 REVERT JUMPDEST PUSH1 0x0 DUP1 REVERT JUMPDEST PUSH1 0x0 PUSH1 0x1F NOT PUSH1 0x1F DUP4 ADD AND SWAP1 POP SWAP2 SWAP1 POP JUMP JUMPDEST PUSH2 0x19B0 DUP2 PUSH2 0x183E JUMP JUMPDEST DUP2 EQ PUSH2 0x19BB JUMPI PUSH1 0x0 DUP1 REVERT JUMPDEST POP JUMP INVALID LOG2 PUSH5 0x6970667358 0x22 SLT KECCAK256 0xD1 0x1F ADDRESS 0xA6 MSIZE JUMPI SSTORE EXTCODEHASH DUP13 0x2B 0xDD 0x23 SWAP2 MUL ADDRESS ADD 0xB8 0x21 0x27 0xB1 0xD9 MOD PUSH11 0x1E74D1819C3965E8DF6473 PUSH16 0x6C634300080700330000000000000000 "
				},
				"gasEstimates": {
					"creation": {
						"codeDepositCost": "1328800",
						"executionCost": "1383",
						"totalCost": "1330183"
					},
					"external": {
						"addBio(string,string,string,string)": "infinite",
						"addContract(string,string,string,string,string)": "infinite",
						"addSkill(string[],string[],string[])": "infinite",
						"delProfile()": "infinite",
						"profile(address)": "infinite"
					}
				},
				"methodIdentifiers": {
					"addBio(string,string,string,string)": "4571f125",
					"addContract(string,string,string,string,string)": "91f2cb9d",
					"addSkill(string[],string[],string[])": "d52246d7",
					"delProfile()": "fabce08f",
					"profile(address)": "9dd9d0fd"
				}
			},
			"storageLayout": {
				"storage": [
					{
						"astId": 25,
						"contract": "contracts/Profile.sol:Profile",
						"label": "profile",
						"offset": 0,
						"slot": "0",
						"type": "t_mapping(t_address,t_struct(Bio)20_storage)"
					}
				],
				"types": {
					"t_address": {
						"encoding": "inplace",
						"label": "address",
						"numberOfBytes": "20"
					},
					"t_array(t_string_storage)dyn_storage": {
						"base": "t_string_storage",
						"encoding": "dynamic_array",
						"label": "string[]",
						"numberOfBytes": "32"
					},
					"t_mapping(t_address,t_struct(Bio)20_storage)": {
						"encoding": "mapping",
						"key": "t_address",
						"label": "mapping(address => struct Profile.Bio)",
						"numberOfBytes": "32",
						"value": "t_struct(Bio)20_storage"
					},
					"t_string_storage": {
						"encoding": "bytes",
						"label": "string",
						"numberOfBytes": "32"
					},
					"t_struct(Bio)20_storage": {
						"encoding": "inplace",
						"label": "struct Profile.Bio",
						"members": [
							{
								"astId": 3,
								"contract": "contracts/Profile.sol:Profile",
								"label": "userAddress",
								"offset": 0,
								"slot": "0",
								"type": "t_address"
							},
							{
								"astId": 5,
								"contract": "contracts/Profile.sol:Profile",
								"label": "firstName",
								"offset": 0,
								"slot": "1",
								"type": "t_string_storage"
							},
							{
								"astId": 7,
								"contract": "contracts/Profile.sol:Profile",
								"label": "middleName",
								"offset": 0,
								"slot": "2",
								"type": "t_string_storage"
							},
							{
								"astId": 9,
								"contract": "contracts/Profile.sol:Profile",
								"label": "lastName",
								"offset": 0,
								"slot": "3",
								"type": "t_string_storage"
							},
							{
								"astId": 11,
								"contract": "contracts/Profile.sol:Profile",
								"label": "profileImage",
								"offset": 0,
								"slot": "4",
								"type": "t_string_storage"
							},
							{
								"astId": 13,
								"contract": "contracts/Profile.sol:Profile",
								"label": "createDate",
								"offset": 0,
								"slot": "5",
								"type": "t_uint256"
							},
							{
								"astId": 16,
								"contract": "contracts/Profile.sol:Profile",
								"label": "privateContract",
								"offset": 0,
								"slot": "6",
								"type": "t_struct(Contract)36_storage"
							},
							{
								"astId": 19,
								"contract": "contracts/Profile.sol:Profile",
								"label": "skill",
								"offset": 0,
								"slot": "11",
								"type": "t_struct(Skill)46_storage"
							}
						],
						"numberOfBytes": "448"
					},
					"t_struct(Contract)36_storage": {
						"encoding": "inplace",
						"label": "struct Profile.Contract",
						"members": [
							{
								"astId": 27,
								"contract": "contracts/Profile.sol:Profile",
								"label": "email",
								"offset": 0,
								"slot": "0",
								"type": "t_string_storage"
							},
							{
								"astId": 29,
								"contract": "contracts/Profile.sol:Profile",
								"label": "phone",
								"offset": 0,
								"slot": "1",
								"type": "t_string_storage"
							},
							{
								"astId": 31,
								"contract": "contracts/Profile.sol:Profile",
								"label": "github",
								"offset": 0,
								"slot": "2",
								"type": "t_string_storage"
							},
							{
								"astId": 33,
								"contract": "contracts/Profile.sol:Profile",
								"label": "gitlab",
								"offset": 0,
								"slot": "3",
								"type": "t_string_storage"
							},
							{
								"astId": 35,
								"contract": "contracts/Profile.sol:Profile",
								"label": "linkin",
								"offset": 0,
								"slot": "4",
								"type": "t_string_storage"
							}
						],
						"numberOfBytes": "160"
					},
					"t_struct(Skill)46_storage": {
						"encoding": "inplace",
						"label": "struct Profile.Skill",
						"members": [
							{
								"astId": 39,
								"contract": "contracts/Profile.sol:Profile",
								"label": "frontend",
								"offset": 0,
								"slot": "0",
								"type": "t_array(t_string_storage)dyn_storage"
							},
							{
								"astId": 42,
								"contract": "contracts/Profile.sol:Profile",
								"label": "backend",
								"offset": 0,
								"slot": "1",
								"type": "t_array(t_string_storage)dyn_storage"
							},
							{
								"astId": 45,
								"contract": "contracts/Profile.sol:Profile",
								"label": "framework",
								"offset": 0,
								"slot": "2",
								"type": "t_array(t_string_storage)dyn_storage"
							}
						],
						"numberOfBytes": "96"
					},
					"t_uint256": {
						"encoding": "inplace",
						"label": "uint256",
						"numberOfBytes": "32"
					}
				}
			},
			"userdoc": {
				"kind": "user",
				"methods": {},
				"version": 1
			}
		}
	}
}