{
	"contracts/Profile.sol": {
		"Profile": {
			"abi": [
				{
					"inputs": [
						{
							"internalType": "string",
							"name": "firstName",
							"type": "string"
						},
						{
							"internalType": "string",
							"name": "middleName",
							"type": "string"
						},
						{
							"internalType": "string",
							"name": "lastName",
							"type": "string"
						},
						{
							"internalType": "string",
							"name": "email",
							"type": "string"
						},
						{
							"internalType": "string",
							"name": "phone",
							"type": "string"
						},
						{
							"internalType": "string",
							"name": "profileImage",
							"type": "string"
						}
					],
					"name": "addBio",
					"outputs": [],
					"stateMutability": "nonpayable",
					"type": "function"
				},
				{
					"inputs": [
						{
							"internalType": "string[]",
							"name": "frontend",
							"type": "string[]"
						},
						{
							"internalType": "string[]",
							"name": "backend",
							"type": "string[]"
						},
						{
							"internalType": "string[]",
							"name": "framework",
							"type": "string[]"
						}
					],
					"name": "addContract",
					"outputs": [],
					"stateMutability": "nonpayable",
					"type": "function"
				},
				{
					"inputs": [
						{
							"internalType": "string[]",
							"name": "frontend",
							"type": "string[]"
						},
						{
							"internalType": "string[]",
							"name": "backend",
							"type": "string[]"
						},
						{
							"internalType": "string[]",
							"name": "framework",
							"type": "string[]"
						}
					],
					"name": "addSkill",
					"outputs": [],
					"stateMutability": "nonpayable",
					"type": "function"
				},
				{
					"inputs": [],
					"name": "delProfile",
					"outputs": [],
					"stateMutability": "nonpayable",
					"type": "function"
				},
				{
					"inputs": [
						{
							"internalType": "address",
							"name": "",
							"type": "address"
						}
					],
					"name": "profile",
					"outputs": [
						{
							"internalType": "address",
							"name": "userAddress",
							"type": "address"
						},
						{
							"internalType": "string",
							"name": "firstName",
							"type": "string"
						},
						{
							"internalType": "string",
							"name": "middleName",
							"type": "string"
						},
						{
							"internalType": "string",
							"name": "lastName",
							"type": "string"
						},
						{
							"internalType": "string",
							"name": "profileImage",
							"type": "string"
						},
						{
							"internalType": "uint256",
							"name": "createDate",
							"type": "uint256"
						},
						{
							"internalType": "string",
							"name": "education",
							"type": "string"
						},
						{
							"components": [
								{
									"internalType": "string",
									"name": "email",
									"type": "string"
								},
								{
									"internalType": "string",
									"name": "phone",
									"type": "string"
								},
								{
									"internalType": "string",
									"name": "github",
									"type": "string"
								},
								{
									"internalType": "string",
									"name": "gitlab",
									"type": "string"
								},
								{
									"internalType": "string",
									"name": "linkin",
									"type": "string"
								}
							],
							"internalType": "struct Profile.Contract",
							"name": "privateContract",
							"type": "tuple"
						},
						{
							"components": [
								{
									"internalType": "string[]",
									"name": "frontend",
									"type": "string[]"
								},
								{
									"internalType": "string[]",
									"name": "backend",
									"type": "string[]"
								},
								{
									"internalType": "string[]",
									"name": "framework",
									"type": "string[]"
								}
							],
							"internalType": "struct Profile.Skill",
							"name": "skill",
							"type": "tuple"
						}
					],
					"stateMutability": "view",
					"type": "function"
				}
			],
			"devdoc": {
				"kind": "dev",
				"methods": {},
				"version": 1
			},
			"evm": {
				"assembly": "    /* \"contracts/Profile.sol\":60:2111  contract Profile {\r... */\n  mstore(0x40, 0x80)\n  callvalue\n  dup1\n  iszero\n  tag_1\n  jumpi\n  0x00\n  dup1\n  revert\ntag_1:\n  pop\n  dataSize(sub_0)\n  dup1\n  dataOffset(sub_0)\n  0x00\n  codecopy\n  0x00\n  return\nstop\n\nsub_0: assembly {\n        /* \"contracts/Profile.sol\":60:2111  contract Profile {\r... */\n      mstore(0x40, 0x80)\n      callvalue\n      dup1\n      iszero\n      tag_1\n      jumpi\n      0x00\n      dup1\n      revert\n    tag_1:\n      pop\n      jumpi(tag_2, lt(calldatasize, 0x04))\n      shr(0xe0, calldataload(0x00))\n      dup1\n      0x4aafdfe3\n      eq\n      tag_3\n      jumpi\n      dup1\n      0x721041af\n      eq\n      tag_4\n      jumpi\n      dup1\n      0x9dd9d0fd\n      eq\n      tag_5\n      jumpi\n      dup1\n      0xd52246d7\n      eq\n      tag_6\n      jumpi\n      dup1\n      0xfabce08f\n      eq\n      tag_7\n      jumpi\n    tag_2:\n      0x00\n      dup1\n      revert\n        /* \"contracts/Profile.sol\":1450:1731  function addContract(string[] memory frontend, string[] memory backend, string[] memory framework) public{\r... */\n    tag_3:\n      tag_8\n      0x04\n      dup1\n      calldatasize\n      sub\n      dup2\n      add\n      swap1\n      tag_9\n      swap2\n      swap1\n      tag_10\n      jump\t// in\n    tag_9:\n      tag_11\n      jump\t// in\n    tag_8:\n      stop\n        /* \"contracts/Profile.sol\":817:1442  function addBio(string memory firstName, string memory middleName, string memory lastName, string memory email, string memory phone, string memory profileImage) public {\r... */\n    tag_4:\n      tag_12\n      0x04\n      dup1\n      calldatasize\n      sub\n      dup2\n      add\n      swap1\n      tag_13\n      swap2\n      swap1\n      tag_14\n      jump\t// in\n    tag_13:\n      tag_15\n      jump\t// in\n    tag_12:\n      stop\n        /* \"contracts/Profile.sol\":365:405  mapping (address => Bio) public  profile */\n    tag_5:\n      tag_16\n      0x04\n      dup1\n      calldatasize\n      sub\n      dup2\n      add\n      swap1\n      tag_17\n      swap2\n      swap1\n      tag_18\n      jump\t// in\n    tag_17:\n      tag_19\n      jump\t// in\n    tag_16:\n      mload(0x40)\n      tag_20\n      swap10\n      swap9\n      swap8\n      swap7\n      swap6\n      swap5\n      swap4\n      swap3\n      swap2\n      swap1\n      tag_21\n      jump\t// in\n    tag_20:\n      mload(0x40)\n      dup1\n      swap2\n      sub\n      swap1\n      return\n        /* \"contracts/Profile.sol\":1739:2017  function addSkill(string[] memory frontend, string[] memory backend, string[] memory framework) public{\r... */\n    tag_6:\n      tag_22\n      0x04\n      dup1\n      calldatasize\n      sub\n      dup2\n      add\n      swap1\n      tag_23\n      swap2\n      swap1\n      tag_10\n      jump\t// in\n    tag_23:\n      tag_24\n      jump\t// in\n    tag_22:\n      stop\n        /* \"contracts/Profile.sol\":2030:2104  function delProfile() public {\r... */\n    tag_7:\n      tag_25\n      tag_26\n      jump\t// in\n    tag_25:\n      stop\n        /* \"contracts/Profile.sol\":1450:1731  function addContract(string[] memory frontend, string[] memory backend, string[] memory framework) public{\r... */\n    tag_11:\n        /* \"contracts/Profile.sol\":1603:1611  frontend */\n      dup3\n        /* \"contracts/Profile.sol\":1566:1573  profile */\n      0x00\n        /* \"contracts/Profile.sol\":1566:1585  profile[msg.sender] */\n      dup1\n        /* \"contracts/Profile.sol\":1574:1584  msg.sender */\n      caller\n        /* \"contracts/Profile.sol\":1566:1585  profile[msg.sender] */\n      0xffffffffffffffffffffffffffffffffffffffff\n      and\n      0xffffffffffffffffffffffffffffffffffffffff\n      and\n      dup2\n      mstore\n      0x20\n      add\n      swap1\n      dup2\n      mstore\n      0x20\n      add\n      0x00\n      keccak256\n        /* \"contracts/Profile.sol\":1566:1591  profile[msg.sender].skill */\n      0x0c\n      add\n        /* \"contracts/Profile.sol\":1566:1600  profile[msg.sender].skill.frontend */\n      0x00\n      add\n        /* \"contracts/Profile.sol\":1566:1611  profile[msg.sender].skill.frontend = frontend */\n      swap1\n      dup1\n      mload\n      swap1\n      0x20\n      add\n      swap1\n      tag_28\n      swap3\n      swap2\n      swap1\n      tag_29\n      jump\t// in\n    tag_28:\n      pop\n        /* \"contracts/Profile.sol\":1658:1665  backend */\n      dup2\n        /* \"contracts/Profile.sol\":1622:1629  profile */\n      0x00\n        /* \"contracts/Profile.sol\":1622:1641  profile[msg.sender] */\n      dup1\n        /* \"contracts/Profile.sol\":1630:1640  msg.sender */\n      caller\n        /* \"contracts/Profile.sol\":1622:1641  profile[msg.sender] */\n      0xffffffffffffffffffffffffffffffffffffffff\n      and\n      0xffffffffffffffffffffffffffffffffffffffff\n      and\n      dup2\n      mstore\n      0x20\n      add\n      swap1\n      dup2\n      mstore\n      0x20\n      add\n      0x00\n      keccak256\n        /* \"contracts/Profile.sol\":1622:1647  profile[msg.sender].skill */\n      0x0c\n      add\n        /* \"contracts/Profile.sol\":1622:1655  profile[msg.sender].skill.backend */\n      0x01\n      add\n        /* \"contracts/Profile.sol\":1622:1665  profile[msg.sender].skill.backend = backend */\n      swap1\n      dup1\n      mload\n      swap1\n      0x20\n      add\n      swap1\n      tag_30\n      swap3\n      swap2\n      swap1\n      tag_29\n      jump\t// in\n    tag_30:\n      pop\n        /* \"contracts/Profile.sol\":1714:1723  framework */\n      dup1\n        /* \"contracts/Profile.sol\":1676:1683  profile */\n      0x00\n        /* \"contracts/Profile.sol\":1676:1695  profile[msg.sender] */\n      dup1\n        /* \"contracts/Profile.sol\":1684:1694  msg.sender */\n      caller\n        /* \"contracts/Profile.sol\":1676:1695  profile[msg.sender] */\n      0xffffffffffffffffffffffffffffffffffffffff\n      and\n      0xffffffffffffffffffffffffffffffffffffffff\n      and\n      dup2\n      mstore\n      0x20\n      add\n      swap1\n      dup2\n      mstore\n      0x20\n      add\n      0x00\n      keccak256\n        /* \"contracts/Profile.sol\":1676:1701  profile[msg.sender].skill */\n      0x0c\n      add\n        /* \"contracts/Profile.sol\":1676:1711  profile[msg.sender].skill.framework */\n      0x02\n      add\n        /* \"contracts/Profile.sol\":1676:1723  profile[msg.sender].skill.framework = framework */\n      swap1\n      dup1\n      mload\n      swap1\n      0x20\n      add\n      swap1\n      tag_31\n      swap3\n      swap2\n      swap1\n      tag_29\n      jump\t// in\n    tag_31:\n      pop\n        /* \"contracts/Profile.sol\":1450:1731  function addContract(string[] memory frontend, string[] memory backend, string[] memory framework) public{\r... */\n      pop\n      pop\n      pop\n      jump\t// out\n        /* \"contracts/Profile.sol\":817:1442  function addBio(string memory firstName, string memory middleName, string memory lastName, string memory email, string memory phone, string memory profileImage) public {\r... */\n    tag_15:\n        /* \"contracts/Profile.sol\":1028:1037  firstName */\n      dup6\n        /* \"contracts/Profile.sol\":996:1003  profile */\n      0x00\n        /* \"contracts/Profile.sol\":996:1015  profile[msg.sender] */\n      dup1\n        /* \"contracts/Profile.sol\":1004:1014  msg.sender */\n      caller\n        /* \"contracts/Profile.sol\":996:1015  profile[msg.sender] */\n      0xffffffffffffffffffffffffffffffffffffffff\n      and\n      0xffffffffffffffffffffffffffffffffffffffff\n      and\n      dup2\n      mstore\n      0x20\n      add\n      swap1\n      dup2\n      mstore\n      0x20\n      add\n      0x00\n      keccak256\n        /* \"contracts/Profile.sol\":996:1025  profile[msg.sender].firstName */\n      0x01\n      add\n        /* \"contracts/Profile.sol\":996:1037  profile[msg.sender].firstName = firstName */\n      swap1\n      dup1\n      mload\n      swap1\n      0x20\n      add\n      swap1\n      tag_33\n      swap3\n      swap2\n      swap1\n      tag_34\n      jump\t// in\n    tag_33:\n      pop\n        /* \"contracts/Profile.sol\":1081:1091  middleName */\n      dup5\n        /* \"contracts/Profile.sol\":1048:1055  profile */\n      0x00\n        /* \"contracts/Profile.sol\":1048:1067  profile[msg.sender] */\n      dup1\n        /* \"contracts/Profile.sol\":1056:1066  msg.sender */\n      caller\n        /* \"contracts/Profile.sol\":1048:1067  profile[msg.sender] */\n      0xffffffffffffffffffffffffffffffffffffffff\n      and\n      0xffffffffffffffffffffffffffffffffffffffff\n      and\n      dup2\n      mstore\n      0x20\n      add\n      swap1\n      dup2\n      mstore\n      0x20\n      add\n      0x00\n      keccak256\n        /* \"contracts/Profile.sol\":1048:1078  profile[msg.sender].middleName */\n      0x02\n      add\n        /* \"contracts/Profile.sol\":1048:1091  profile[msg.sender].middleName = middleName */\n      swap1\n      dup1\n      mload\n      swap1\n      0x20\n      add\n      swap1\n      tag_35\n      swap3\n      swap2\n      swap1\n      tag_34\n      jump\t// in\n    tag_35:\n      pop\n        /* \"contracts/Profile.sol\":1133:1141  lastName */\n      dup4\n        /* \"contracts/Profile.sol\":1102:1109  profile */\n      0x00\n        /* \"contracts/Profile.sol\":1102:1121  profile[msg.sender] */\n      dup1\n        /* \"contracts/Profile.sol\":1110:1120  msg.sender */\n      caller\n        /* \"contracts/Profile.sol\":1102:1121  profile[msg.sender] */\n      0xffffffffffffffffffffffffffffffffffffffff\n      and\n      0xffffffffffffffffffffffffffffffffffffffff\n      and\n      dup2\n      mstore\n      0x20\n      add\n      swap1\n      dup2\n      mstore\n      0x20\n      add\n      0x00\n      keccak256\n        /* \"contracts/Profile.sol\":1102:1130  profile[msg.sender].lastName */\n      0x03\n      add\n        /* \"contracts/Profile.sol\":1102:1141  profile[msg.sender].lastName = lastName */\n      swap1\n      dup1\n      mload\n      swap1\n      0x20\n      add\n      swap1\n      tag_36\n      swap3\n      swap2\n      swap1\n      tag_34\n      jump\t// in\n    tag_36:\n      pop\n        /* \"contracts/Profile.sol\":1187:1199  profileImage */\n      dup1\n        /* \"contracts/Profile.sol\":1152:1159  profile */\n      0x00\n        /* \"contracts/Profile.sol\":1152:1171  profile[msg.sender] */\n      dup1\n        /* \"contracts/Profile.sol\":1160:1170  msg.sender */\n      caller\n        /* \"contracts/Profile.sol\":1152:1171  profile[msg.sender] */\n      0xffffffffffffffffffffffffffffffffffffffff\n      and\n      0xffffffffffffffffffffffffffffffffffffffff\n      and\n      dup2\n      mstore\n      0x20\n      add\n      swap1\n      dup2\n      mstore\n      0x20\n      add\n      0x00\n      keccak256\n        /* \"contracts/Profile.sol\":1152:1184  profile[msg.sender].profileImage */\n      0x04\n      add\n        /* \"contracts/Profile.sol\":1152:1199  profile[msg.sender].profileImage = profileImage */\n      swap1\n      dup1\n      mload\n      swap1\n      0x20\n      add\n      swap1\n      tag_37\n      swap3\n      swap2\n      swap1\n      tag_34\n      jump\t// in\n    tag_37:\n      pop\n        /* \"contracts/Profile.sol\":1244:1254  msg.sender */\n      caller\n        /* \"contracts/Profile.sol\":1210:1217  profile */\n      0x00\n        /* \"contracts/Profile.sol\":1210:1229  profile[msg.sender] */\n      dup1\n        /* \"contracts/Profile.sol\":1218:1228  msg.sender */\n      caller\n        /* \"contracts/Profile.sol\":1210:1229  profile[msg.sender] */\n      0xffffffffffffffffffffffffffffffffffffffff\n      and\n      0xffffffffffffffffffffffffffffffffffffffff\n      and\n      dup2\n      mstore\n      0x20\n      add\n      swap1\n      dup2\n      mstore\n      0x20\n      add\n      0x00\n      keccak256\n        /* \"contracts/Profile.sol\":1210:1241  profile[msg.sender].userAddress */\n      0x00\n      add\n      0x00\n        /* \"contracts/Profile.sol\":1210:1254  profile[msg.sender].userAddress = msg.sender */\n      0x0100\n      exp\n      dup2\n      sload\n      dup2\n      0xffffffffffffffffffffffffffffffffffffffff\n      mul\n      not\n      and\n      swap1\n      dup4\n      0xffffffffffffffffffffffffffffffffffffffff\n      and\n      mul\n      or\n      swap1\n      sstore\n      pop\n        /* \"contracts/Profile.sol\":1299:1314  block.timestamp */\n      timestamp\n        /* \"contracts/Profile.sol\":1266:1273  profile */\n      0x00\n        /* \"contracts/Profile.sol\":1266:1285  profile[msg.sender] */\n      dup1\n        /* \"contracts/Profile.sol\":1274:1284  msg.sender */\n      caller\n        /* \"contracts/Profile.sol\":1266:1285  profile[msg.sender] */\n      0xffffffffffffffffffffffffffffffffffffffff\n      and\n      0xffffffffffffffffffffffffffffffffffffffff\n      and\n      dup2\n      mstore\n      0x20\n      add\n      swap1\n      dup2\n      mstore\n      0x20\n      add\n      0x00\n      keccak256\n        /* \"contracts/Profile.sol\":1266:1296  profile[msg.sender].createDate */\n      0x05\n      add\n        /* \"contracts/Profile.sol\":1266:1314  profile[msg.sender].createDate = block.timestamp */\n      dup2\n      swap1\n      sstore\n      pop\n        /* \"contracts/Profile.sol\":1369:1374  email */\n      dup3\n        /* \"contracts/Profile.sol\":1325:1332  profile */\n      0x00\n        /* \"contracts/Profile.sol\":1325:1344  profile[msg.sender] */\n      dup1\n        /* \"contracts/Profile.sol\":1333:1343  msg.sender */\n      caller\n        /* \"contracts/Profile.sol\":1325:1344  profile[msg.sender] */\n      0xffffffffffffffffffffffffffffffffffffffff\n      and\n      0xffffffffffffffffffffffffffffffffffffffff\n      and\n      dup2\n      mstore\n      0x20\n      add\n      swap1\n      dup2\n      mstore\n      0x20\n      add\n      0x00\n      keccak256\n        /* \"contracts/Profile.sol\":1325:1360  profile[msg.sender].privateContract */\n      0x07\n      add\n        /* \"contracts/Profile.sol\":1325:1366  profile[msg.sender].privateContract.email */\n      0x00\n      add\n        /* \"contracts/Profile.sol\":1325:1374  profile[msg.sender].privateContract.email = email */\n      swap1\n      dup1\n      mload\n      swap1\n      0x20\n      add\n      swap1\n      tag_38\n      swap3\n      swap2\n      swap1\n      tag_34\n      jump\t// in\n    tag_38:\n      pop\n        /* \"contracts/Profile.sol\":1429:1434  phone */\n      dup2\n        /* \"contracts/Profile.sol\":1385:1392  profile */\n      0x00\n        /* \"contracts/Profile.sol\":1385:1404  profile[msg.sender] */\n      dup1\n        /* \"contracts/Profile.sol\":1393:1403  msg.sender */\n      caller\n        /* \"contracts/Profile.sol\":1385:1404  profile[msg.sender] */\n      0xffffffffffffffffffffffffffffffffffffffff\n      and\n      0xffffffffffffffffffffffffffffffffffffffff\n      and\n      dup2\n      mstore\n      0x20\n      add\n      swap1\n      dup2\n      mstore\n      0x20\n      add\n      0x00\n      keccak256\n        /* \"contracts/Profile.sol\":1385:1420  profile[msg.sender].privateContract */\n      0x07\n      add\n        /* \"contracts/Profile.sol\":1385:1426  profile[msg.sender].privateContract.phone */\n      0x01\n      add\n        /* \"contracts/Profile.sol\":1385:1434  profile[msg.sender].privateContract.phone = phone */\n      swap1\n      dup1\n      mload\n      swap1\n      0x20\n      add\n      swap1\n      tag_39\n      swap3\n      swap2\n      swap1\n      tag_34\n      jump\t// in\n    tag_39:\n      pop\n        /* \"contracts/Profile.sol\":817:1442  function addBio(string memory firstName, string memory middleName, string memory lastName, string memory email, string memory phone, string memory profileImage) public {\r... */\n      pop\n      pop\n      pop\n      pop\n      pop\n      pop\n      jump\t// out\n        /* \"contracts/Profile.sol\":365:405  mapping (address => Bio) public  profile */\n    tag_19:\n      mstore(0x20, 0x00)\n      dup1\n      0x00\n      mstore\n      keccak256(0x00, 0x40)\n      0x00\n      swap2\n      pop\n      swap1\n      pop\n      dup1\n      0x00\n      add\n      0x00\n      swap1\n      sload\n      swap1\n      0x0100\n      exp\n      swap1\n      div\n      0xffffffffffffffffffffffffffffffffffffffff\n      and\n      swap1\n      dup1\n      0x01\n      add\n      dup1\n      sload\n      tag_40\n      swap1\n      tag_41\n      jump\t// in\n    tag_40:\n      dup1\n      0x1f\n      add\n      0x20\n      dup1\n      swap2\n      div\n      mul\n      0x20\n      add\n      mload(0x40)\n      swap1\n      dup2\n      add\n      0x40\n      mstore\n      dup1\n      swap3\n      swap2\n      swap1\n      dup2\n      dup2\n      mstore\n      0x20\n      add\n      dup3\n      dup1\n      sload\n      tag_42\n      swap1\n      tag_41\n      jump\t// in\n    tag_42:\n      dup1\n      iszero\n      tag_43\n      jumpi\n      dup1\n      0x1f\n      lt\n      tag_44\n      jumpi\n      0x0100\n      dup1\n      dup4\n      sload\n      div\n      mul\n      dup4\n      mstore\n      swap2\n      0x20\n      add\n      swap2\n      jump(tag_43)\n    tag_44:\n      dup3\n      add\n      swap2\n      swap1\n      0x00\n      mstore\n      keccak256(0x00, 0x20)\n      swap1\n    tag_45:\n      dup2\n      sload\n      dup2\n      mstore\n      swap1\n      0x01\n      add\n      swap1\n      0x20\n      add\n      dup1\n      dup4\n      gt\n      tag_45\n      jumpi\n      dup3\n      swap1\n      sub\n      0x1f\n      and\n      dup3\n      add\n      swap2\n    tag_43:\n      pop\n      pop\n      pop\n      pop\n      pop\n      swap1\n      dup1\n      0x02\n      add\n      dup1\n      sload\n      tag_46\n      swap1\n      tag_41\n      jump\t// in\n    tag_46:\n      dup1\n      0x1f\n      add\n      0x20\n      dup1\n      swap2\n      div\n      mul\n      0x20\n      add\n      mload(0x40)\n      swap1\n      dup2\n      add\n      0x40\n      mstore\n      dup1\n      swap3\n      swap2\n      swap1\n      dup2\n      dup2\n      mstore\n      0x20\n      add\n      dup3\n      dup1\n      sload\n      tag_47\n      swap1\n      tag_41\n      jump\t// in\n    tag_47:\n      dup1\n      iszero\n      tag_48\n      jumpi\n      dup1\n      0x1f\n      lt\n      tag_49\n      jumpi\n      0x0100\n      dup1\n      dup4\n      sload\n      div\n      mul\n      dup4\n      mstore\n      swap2\n      0x20\n      add\n      swap2\n      jump(tag_48)\n    tag_49:\n      dup3\n      add\n      swap2\n      swap1\n      0x00\n      mstore\n      keccak256(0x00, 0x20)\n      swap1\n    tag_50:\n      dup2\n      sload\n      dup2\n      mstore\n      swap1\n      0x01\n      add\n      swap1\n      0x20\n      add\n      dup1\n      dup4\n      gt\n      tag_50\n      jumpi\n      dup3\n      swap1\n      sub\n      0x1f\n      and\n      dup3\n      add\n      swap2\n    tag_48:\n      pop\n      pop\n      pop\n      pop\n      pop\n      swap1\n      dup1\n      0x03\n      add\n      dup1\n      sload\n      tag_51\n      swap1\n      tag_41\n      jump\t// in\n    tag_51:\n      dup1\n      0x1f\n      add\n      0x20\n      dup1\n      swap2\n      div\n      mul\n      0x20\n      add\n      mload(0x40)\n      swap1\n      dup2\n      add\n      0x40\n      mstore\n      dup1\n      swap3\n      swap2\n      swap1\n      dup2\n      dup2\n      mstore\n      0x20\n      add\n      dup3\n      dup1\n      sload\n      tag_52\n      swap1\n      tag_41\n      jump\t// in\n    tag_52:\n      dup1\n      iszero\n      tag_53\n      jumpi\n      dup1\n      0x1f\n      lt\n      tag_54\n      jumpi\n      0x0100\n      dup1\n      dup4\n      sload\n      div\n      mul\n      dup4\n      mstore\n      swap2\n      0x20\n      add\n      swap2\n      jump(tag_53)\n    tag_54:\n      dup3\n      add\n      swap2\n      swap1\n      0x00\n      mstore\n      keccak256(0x00, 0x20)\n      swap1\n    tag_55:\n      dup2\n      sload\n      dup2\n      mstore\n      swap1\n      0x01\n      add\n      swap1\n      0x20\n      add\n      dup1\n      dup4\n      gt\n      tag_55\n      jumpi\n      dup3\n      swap1\n      sub\n      0x1f\n      and\n      dup3\n      add\n      swap2\n    tag_53:\n      pop\n      pop\n      pop\n      pop\n      pop\n      swap1\n      dup1\n      0x04\n      add\n      dup1\n      sload\n      tag_56\n      swap1\n      tag_41\n      jump\t// in\n    tag_56:\n      dup1\n      0x1f\n      add\n      0x20\n      dup1\n      swap2\n      div\n      mul\n      0x20\n      add\n      mload(0x40)\n      swap1\n      dup2\n      add\n      0x40\n      mstore\n      dup1\n      swap3\n      swap2\n      swap1\n      dup2\n      dup2\n      mstore\n      0x20\n      add\n      dup3\n      dup1\n      sload\n      tag_57\n      swap1\n      tag_41\n      jump\t// in\n    tag_57:\n      dup1\n      iszero\n      tag_58\n      jumpi\n      dup1\n      0x1f\n      lt\n      tag_59\n      jumpi\n      0x0100\n      dup1\n      dup4\n      sload\n      div\n      mul\n      dup4\n      mstore\n      swap2\n      0x20\n      add\n      swap2\n      jump(tag_58)\n    tag_59:\n      dup3\n      add\n      swap2\n      swap1\n      0x00\n      mstore\n      keccak256(0x00, 0x20)\n      swap1\n    tag_60:\n      dup2\n      sload\n      dup2\n      mstore\n      swap1\n      0x01\n      add\n      swap1\n      0x20\n      add\n      dup1\n      dup4\n      gt\n      tag_60\n      jumpi\n      dup3\n      swap1\n      sub\n      0x1f\n      and\n      dup3\n      add\n      swap2\n    tag_58:\n      pop\n      pop\n      pop\n      pop\n      pop\n      swap1\n      dup1\n      0x05\n      add\n      sload\n      swap1\n      dup1\n      0x06\n      add\n      dup1\n      sload\n      tag_61\n      swap1\n      tag_41\n      jump\t// in\n    tag_61:\n      dup1\n      0x1f\n      add\n      0x20\n      dup1\n      swap2\n      div\n      mul\n      0x20\n      add\n      mload(0x40)\n      swap1\n      dup2\n      add\n      0x40\n      mstore\n      dup1\n      swap3\n      swap2\n      swap1\n      dup2\n      dup2\n      mstore\n      0x20\n      add\n      dup3\n      dup1\n      sload\n      tag_62\n      swap1\n      tag_41\n      jump\t// in\n    tag_62:\n      dup1\n      iszero\n      tag_63\n      jumpi\n      dup1\n      0x1f\n      lt\n      tag_64\n      jumpi\n      0x0100\n      dup1\n      dup4\n      sload\n      div\n      mul\n      dup4\n      mstore\n      swap2\n      0x20\n      add\n      swap2\n      jump(tag_63)\n    tag_64:\n      dup3\n      add\n      swap2\n      swap1\n      0x00\n      mstore\n      keccak256(0x00, 0x20)\n      swap1\n    tag_65:\n      dup2\n      sload\n      dup2\n      mstore\n      swap1\n      0x01\n      add\n      swap1\n      0x20\n      add\n      dup1\n      dup4\n      gt\n      tag_65\n      jumpi\n      dup3\n      swap1\n      sub\n      0x1f\n      and\n      dup3\n      add\n      swap2\n    tag_63:\n      pop\n      pop\n      pop\n      pop\n      pop\n      swap1\n      dup1\n      0x07\n      add\n      mload(0x40)\n      dup1\n      0xa0\n      add\n      0x40\n      mstore\n      swap1\n      dup2\n      0x00\n      dup3\n      add\n      dup1\n      sload\n      tag_66\n      swap1\n      tag_41\n      jump\t// in\n    tag_66:\n      dup1\n      0x1f\n      add\n      0x20\n      dup1\n      swap2\n      div\n      mul\n      0x20\n      add\n      mload(0x40)\n      swap1\n      dup2\n      add\n      0x40\n      mstore\n      dup1\n      swap3\n      swap2\n      swap1\n      dup2\n      dup2\n      mstore\n      0x20\n      add\n      dup3\n      dup1\n      sload\n      tag_67\n      swap1\n      tag_41\n      jump\t// in\n    tag_67:\n      dup1\n      iszero\n      tag_68\n      jumpi\n      dup1\n      0x1f\n      lt\n      tag_69\n      jumpi\n      0x0100\n      dup1\n      dup4\n      sload\n      div\n      mul\n      dup4\n      mstore\n      swap2\n      0x20\n      add\n      swap2\n      jump(tag_68)\n    tag_69:\n      dup3\n      add\n      swap2\n      swap1\n      0x00\n      mstore\n      keccak256(0x00, 0x20)\n      swap1\n    tag_70:\n      dup2\n      sload\n      dup2\n      mstore\n      swap1\n      0x01\n      add\n      swap1\n      0x20\n      add\n      dup1\n      dup4\n      gt\n      tag_70\n      jumpi\n      dup3\n      swap1\n      sub\n      0x1f\n      and\n      dup3\n      add\n      swap2\n    tag_68:\n      pop\n      pop\n      pop\n      pop\n      pop\n      dup2\n      mstore\n      0x20\n      add\n      0x01\n      dup3\n      add\n      dup1\n      sload\n      tag_71\n      swap1\n      tag_41\n      jump\t// in\n    tag_71:\n      dup1\n      0x1f\n      add\n      0x20\n      dup1\n      swap2\n      div\n      mul\n      0x20\n      add\n      mload(0x40)\n      swap1\n      dup2\n      add\n      0x40\n      mstore\n      dup1\n      swap3\n      swap2\n      swap1\n      dup2\n      dup2\n      mstore\n      0x20\n      add\n      dup3\n      dup1\n      sload\n      tag_72\n      swap1\n      tag_41\n      jump\t// in\n    tag_72:\n      dup1\n      iszero\n      tag_73\n      jumpi\n      dup1\n      0x1f\n      lt\n      tag_74\n      jumpi\n      0x0100\n      dup1\n      dup4\n      sload\n      div\n      mul\n      dup4\n      mstore\n      swap2\n      0x20\n      add\n      swap2\n      jump(tag_73)\n    tag_74:\n      dup3\n      add\n      swap2\n      swap1\n      0x00\n      mstore\n      keccak256(0x00, 0x20)\n      swap1\n    tag_75:\n      dup2\n      sload\n      dup2\n      mstore\n      swap1\n      0x01\n      add\n      swap1\n      0x20\n      add\n      dup1\n      dup4\n      gt\n      tag_75\n      jumpi\n      dup3\n      swap1\n      sub\n      0x1f\n      and\n      dup3\n      add\n      swap2\n    tag_73:\n      pop\n      pop\n      pop\n      pop\n      pop\n      dup2\n      mstore\n      0x20\n      add\n      0x02\n      dup3\n      add\n      dup1\n      sload\n      tag_76\n      swap1\n      tag_41\n      jump\t// in\n    tag_76:\n      dup1\n      0x1f\n      add\n      0x20\n      dup1\n      swap2\n      div\n      mul\n      0x20\n      add\n      mload(0x40)\n      swap1\n      dup2\n      add\n      0x40\n      mstore\n      dup1\n      swap3\n      swap2\n      swap1\n      dup2\n      dup2\n      mstore\n      0x20\n      add\n      dup3\n      dup1\n      sload\n      tag_77\n      swap1\n      tag_41\n      jump\t// in\n    tag_77:\n      dup1\n      iszero\n      tag_78\n      jumpi\n      dup1\n      0x1f\n      lt\n      tag_79\n      jumpi\n      0x0100\n      dup1\n      dup4\n      sload\n      div\n      mul\n      dup4\n      mstore\n      swap2\n      0x20\n      add\n      swap2\n      jump(tag_78)\n    tag_79:\n      dup3\n      add\n      swap2\n      swap1\n      0x00\n      mstore\n      keccak256(0x00, 0x20)\n      swap1\n    tag_80:\n      dup2\n      sload\n      dup2\n      mstore\n      swap1\n      0x01\n      add\n      swap1\n      0x20\n      add\n      dup1\n      dup4\n      gt\n      tag_80\n      jumpi\n      dup3\n      swap1\n      sub\n      0x1f\n      and\n      dup3\n      add\n      swap2\n    tag_78:\n      pop\n      pop\n      pop\n      pop\n      pop\n      dup2\n      mstore\n      0x20\n      add\n      0x03\n      dup3\n      add\n      dup1\n      sload\n      tag_81\n      swap1\n      tag_41\n      jump\t// in\n    tag_81:\n      dup1\n      0x1f\n      add\n      0x20\n      dup1\n      swap2\n      div\n      mul\n      0x20\n      add\n      mload(0x40)\n      swap1\n      dup2\n      add\n      0x40\n      mstore\n      dup1\n      swap3\n      swap2\n      swap1\n      dup2\n      dup2\n      mstore\n      0x20\n      add\n      dup3\n      dup1\n      sload\n      tag_82\n      swap1\n      tag_41\n      jump\t// in\n    tag_82:\n      dup1\n      iszero\n      tag_83\n      jumpi\n      dup1\n      0x1f\n      lt\n      tag_84\n      jumpi\n      0x0100\n      dup1\n      dup4\n      sload\n      div\n      mul\n      dup4\n      mstore\n      swap2\n      0x20\n      add\n      swap2\n      jump(tag_83)\n    tag_84:\n      dup3\n      add\n      swap2\n      swap1\n      0x00\n      mstore\n      keccak256(0x00, 0x20)\n      swap1\n    tag_85:\n      dup2\n      sload\n      dup2\n      mstore\n      swap1\n      0x01\n      add\n      swap1\n      0x20\n      add\n      dup1\n      dup4\n      gt\n      tag_85\n      jumpi\n      dup3\n      swap1\n      sub\n      0x1f\n      and\n      dup3\n      add\n      swap2\n    tag_83:\n      pop\n      pop\n      pop\n      pop\n      pop\n      dup2\n      mstore\n      0x20\n      add\n      0x04\n      dup3\n      add\n      dup1\n      sload\n      tag_86\n      swap1\n      tag_41\n      jump\t// in\n    tag_86:\n      dup1\n      0x1f\n      add\n      0x20\n      dup1\n      swap2\n      div\n      mul\n      0x20\n      add\n      mload(0x40)\n      swap1\n      dup2\n      add\n      0x40\n      mstore\n      dup1\n      swap3\n      swap2\n      swap1\n      dup2\n      dup2\n      mstore\n      0x20\n      add\n      dup3\n      dup1\n      sload\n      tag_87\n      swap1\n      tag_41\n      jump\t// in\n    tag_87:\n      dup1\n      iszero\n      tag_88\n      jumpi\n      dup1\n      0x1f\n      lt\n      tag_89\n      jumpi\n      0x0100\n      dup1\n      dup4\n      sload\n      div\n      mul\n      dup4\n      mstore\n      swap2\n      0x20\n      add\n      swap2\n      jump(tag_88)\n    tag_89:\n      dup3\n      add\n      swap2\n      swap1\n      0x00\n      mstore\n      keccak256(0x00, 0x20)\n      swap1\n    tag_90:\n      dup2\n      sload\n      dup2\n      mstore\n      swap1\n      0x01\n      add\n      swap1\n      0x20\n      add\n      dup1\n      dup4\n      gt\n      tag_90\n      jumpi\n      dup3\n      swap1\n      sub\n      0x1f\n      and\n      dup3\n      add\n      swap2\n    tag_88:\n      pop\n      pop\n      pop\n      pop\n      pop\n      dup2\n      mstore\n      pop\n      pop\n      swap1\n      dup1\n      0x0c\n      add\n      mload(0x40)\n      dup1\n      0x60\n      add\n      0x40\n      mstore\n      swap1\n      dup2\n      0x00\n      dup3\n      add\n      dup1\n      sload\n      dup1\n      0x20\n      mul\n      0x20\n      add\n      mload(0x40)\n      swap1\n      dup2\n      add\n      0x40\n      mstore\n      dup1\n      swap3\n      swap2\n      swap1\n      dup2\n      dup2\n      mstore\n      0x20\n      add\n      0x00\n      swap1\n    tag_91:\n      dup3\n      dup3\n      lt\n      iszero\n      tag_92\n      jumpi\n      dup4\n      dup3\n      swap1\n      0x00\n      mstore\n      keccak256(0x00, 0x20)\n      add\n      dup1\n      sload\n      tag_94\n      swap1\n      tag_41\n      jump\t// in\n    tag_94:\n      dup1\n      0x1f\n      add\n      0x20\n      dup1\n      swap2\n      div\n      mul\n      0x20\n      add\n      mload(0x40)\n      swap1\n      dup2\n      add\n      0x40\n      mstore\n      dup1\n      swap3\n      swap2\n      swap1\n      dup2\n      dup2\n      mstore\n      0x20\n      add\n      dup3\n      dup1\n      sload\n      tag_95\n      swap1\n      tag_41\n      jump\t// in\n    tag_95:\n      dup1\n      iszero\n      tag_96\n      jumpi\n      dup1\n      0x1f\n      lt\n      tag_97\n      jumpi\n      0x0100\n      dup1\n      dup4\n      sload\n      div\n      mul\n      dup4\n      mstore\n      swap2\n      0x20\n      add\n      swap2\n      jump(tag_96)\n    tag_97:\n      dup3\n      add\n      swap2\n      swap1\n      0x00\n      mstore\n      keccak256(0x00, 0x20)\n      swap1\n    tag_98:\n      dup2\n      sload\n      dup2\n      mstore\n      swap1\n      0x01\n      add\n      swap1\n      0x20\n      add\n      dup1\n      dup4\n      gt\n      tag_98\n      jumpi\n      dup3\n      swap1\n      sub\n      0x1f\n      and\n      dup3\n      add\n      swap2\n    tag_96:\n      pop\n      pop\n      pop\n      pop\n      pop\n      dup2\n      mstore\n      0x20\n      add\n      swap1\n      0x01\n      add\n      swap1\n      jump(tag_91)\n    tag_92:\n      pop\n      pop\n      pop\n      pop\n      dup2\n      mstore\n      0x20\n      add\n      0x01\n      dup3\n      add\n      dup1\n      sload\n      dup1\n      0x20\n      mul\n      0x20\n      add\n      mload(0x40)\n      swap1\n      dup2\n      add\n      0x40\n      mstore\n      dup1\n      swap3\n      swap2\n      swap1\n      dup2\n      dup2\n      mstore\n      0x20\n      add\n      0x00\n      swap1\n    tag_99:\n      dup3\n      dup3\n      lt\n      iszero\n      tag_100\n      jumpi\n      dup4\n      dup3\n      swap1\n      0x00\n      mstore\n      keccak256(0x00, 0x20)\n      add\n      dup1\n      sload\n      tag_102\n      swap1\n      tag_41\n      jump\t// in\n    tag_102:\n      dup1\n      0x1f\n      add\n      0x20\n      dup1\n      swap2\n      div\n      mul\n      0x20\n      add\n      mload(0x40)\n      swap1\n      dup2\n      add\n      0x40\n      mstore\n      dup1\n      swap3\n      swap2\n      swap1\n      dup2\n      dup2\n      mstore\n      0x20\n      add\n      dup3\n      dup1\n      sload\n      tag_103\n      swap1\n      tag_41\n      jump\t// in\n    tag_103:\n      dup1\n      iszero\n      tag_104\n      jumpi\n      dup1\n      0x1f\n      lt\n      tag_105\n      jumpi\n      0x0100\n      dup1\n      dup4\n      sload\n      div\n      mul\n      dup4\n      mstore\n      swap2\n      0x20\n      add\n      swap2\n      jump(tag_104)\n    tag_105:\n      dup3\n      add\n      swap2\n      swap1\n      0x00\n      mstore\n      keccak256(0x00, 0x20)\n      swap1\n    tag_106:\n      dup2\n      sload\n      dup2\n      mstore\n      swap1\n      0x01\n      add\n      swap1\n      0x20\n      add\n      dup1\n      dup4\n      gt\n      tag_106\n      jumpi\n      dup3\n      swap1\n      sub\n      0x1f\n      and\n      dup3\n      add\n      swap2\n    tag_104:\n      pop\n      pop\n      pop\n      pop\n      pop\n      dup2\n      mstore\n      0x20\n      add\n      swap1\n      0x01\n      add\n      swap1\n      jump(tag_99)\n    tag_100:\n      pop\n      pop\n      pop\n      pop\n      dup2\n      mstore\n      0x20\n      add\n      0x02\n      dup3\n      add\n      dup1\n      sload\n      dup1\n      0x20\n      mul\n      0x20\n      add\n      mload(0x40)\n      swap1\n      dup2\n      add\n      0x40\n      mstore\n      dup1\n      swap3\n      swap2\n      swap1\n      dup2\n      dup2\n      mstore\n      0x20\n      add\n      0x00\n      swap1\n    tag_107:\n      dup3\n      dup3\n      lt\n      iszero\n      tag_108\n      jumpi\n      dup4\n      dup3\n      swap1\n      0x00\n      mstore\n      keccak256(0x00, 0x20)\n      add\n      dup1\n      sload\n      tag_110\n      swap1\n      tag_41\n      jump\t// in\n    tag_110:\n      dup1\n      0x1f\n      add\n      0x20\n      dup1\n      swap2\n      div\n      mul\n      0x20\n      add\n      mload(0x40)\n      swap1\n      dup2\n      add\n      0x40\n      mstore\n      dup1\n      swap3\n      swap2\n      swap1\n      dup2\n      dup2\n      mstore\n      0x20\n      add\n      dup3\n      dup1\n      sload\n      tag_111\n      swap1\n      tag_41\n      jump\t// in\n    tag_111:\n      dup1\n      iszero\n      tag_112\n      jumpi\n      dup1\n      0x1f\n      lt\n      tag_113\n      jumpi\n      0x0100\n      dup1\n      dup4\n      sload\n      div\n      mul\n      dup4\n      mstore\n      swap2\n      0x20\n      add\n      swap2\n      jump(tag_112)\n    tag_113:\n      dup3\n      add\n      swap2\n      swap1\n      0x00\n      mstore\n      keccak256(0x00, 0x20)\n      swap1\n    tag_114:\n      dup2\n      sload\n      dup2\n      mstore\n      swap1\n      0x01\n      add\n      swap1\n      0x20\n      add\n      dup1\n      dup4\n      gt\n      tag_114\n      jumpi\n      dup3\n      swap1\n      sub\n      0x1f\n      and\n      dup3\n      add\n      swap2\n    tag_112:\n      pop\n      pop\n      pop\n      pop\n      pop\n      dup2\n      mstore\n      0x20\n      add\n      swap1\n      0x01\n      add\n      swap1\n      jump(tag_107)\n    tag_108:\n      pop\n      pop\n      pop\n      pop\n      dup2\n      mstore\n      pop\n      pop\n      swap1\n      pop\n      dup10\n      jump\t// out\n        /* \"contracts/Profile.sol\":1739:2017  function addSkill(string[] memory frontend, string[] memory backend, string[] memory framework) public{\r... */\n    tag_24:\n        /* \"contracts/Profile.sol\":1889:1897  frontend */\n      dup3\n        /* \"contracts/Profile.sol\":1852:1859  profile */\n      0x00\n        /* \"contracts/Profile.sol\":1852:1871  profile[msg.sender] */\n      dup1\n        /* \"contracts/Profile.sol\":1860:1870  msg.sender */\n      caller\n        /* \"contracts/Profile.sol\":1852:1871  profile[msg.sender] */\n      0xffffffffffffffffffffffffffffffffffffffff\n      and\n      0xffffffffffffffffffffffffffffffffffffffff\n      and\n      dup2\n      mstore\n      0x20\n      add\n      swap1\n      dup2\n      mstore\n      0x20\n      add\n      0x00\n      keccak256\n        /* \"contracts/Profile.sol\":1852:1877  profile[msg.sender].skill */\n      0x0c\n      add\n        /* \"contracts/Profile.sol\":1852:1886  profile[msg.sender].skill.frontend */\n      0x00\n      add\n        /* \"contracts/Profile.sol\":1852:1897  profile[msg.sender].skill.frontend = frontend */\n      swap1\n      dup1\n      mload\n      swap1\n      0x20\n      add\n      swap1\n      tag_116\n      swap3\n      swap2\n      swap1\n      tag_29\n      jump\t// in\n    tag_116:\n      pop\n        /* \"contracts/Profile.sol\":1944:1951  backend */\n      dup2\n        /* \"contracts/Profile.sol\":1908:1915  profile */\n      0x00\n        /* \"contracts/Profile.sol\":1908:1927  profile[msg.sender] */\n      dup1\n        /* \"contracts/Profile.sol\":1916:1926  msg.sender */\n      caller\n        /* \"contracts/Profile.sol\":1908:1927  profile[msg.sender] */\n      0xffffffffffffffffffffffffffffffffffffffff\n      and\n      0xffffffffffffffffffffffffffffffffffffffff\n      and\n      dup2\n      mstore\n      0x20\n      add\n      swap1\n      dup2\n      mstore\n      0x20\n      add\n      0x00\n      keccak256\n        /* \"contracts/Profile.sol\":1908:1933  profile[msg.sender].skill */\n      0x0c\n      add\n        /* \"contracts/Profile.sol\":1908:1941  profile[msg.sender].skill.backend */\n      0x01\n      add\n        /* \"contracts/Profile.sol\":1908:1951  profile[msg.sender].skill.backend = backend */\n      swap1\n      dup1\n      mload\n      swap1\n      0x20\n      add\n      swap1\n      tag_117\n      swap3\n      swap2\n      swap1\n      tag_29\n      jump\t// in\n    tag_117:\n      pop\n        /* \"contracts/Profile.sol\":2000:2009  framework */\n      dup1\n        /* \"contracts/Profile.sol\":1962:1969  profile */\n      0x00\n        /* \"contracts/Profile.sol\":1962:1981  profile[msg.sender] */\n      dup1\n        /* \"contracts/Profile.sol\":1970:1980  msg.sender */\n      caller\n        /* \"contracts/Profile.sol\":1962:1981  profile[msg.sender] */\n      0xffffffffffffffffffffffffffffffffffffffff\n      and\n      0xffffffffffffffffffffffffffffffffffffffff\n      and\n      dup2\n      mstore\n      0x20\n      add\n      swap1\n      dup2\n      mstore\n      0x20\n      add\n      0x00\n      keccak256\n        /* \"contracts/Profile.sol\":1962:1987  profile[msg.sender].skill */\n      0x0c\n      add\n        /* \"contracts/Profile.sol\":1962:1997  profile[msg.sender].skill.framework */\n      0x02\n      add\n        /* \"contracts/Profile.sol\":1962:2009  profile[msg.sender].skill.framework = framework */\n      swap1\n      dup1\n      mload\n      swap1\n      0x20\n      add\n      swap1\n      tag_118\n      swap3\n      swap2\n      swap1\n      tag_29\n      jump\t// in\n    tag_118:\n      pop\n        /* \"contracts/Profile.sol\":1739:2017  function addSkill(string[] memory frontend, string[] memory backend, string[] memory framework) public{\r... */\n      pop\n      pop\n      pop\n      jump\t// out\n        /* \"contracts/Profile.sol\":2030:2104  function delProfile() public {\r... */\n    tag_26:\n        /* \"contracts/Profile.sol\":2077:2084  profile */\n      0x00\n        /* \"contracts/Profile.sol\":2077:2096  profile[msg.sender] */\n      dup1\n        /* \"contracts/Profile.sol\":2085:2095  msg.sender */\n      caller\n        /* \"contracts/Profile.sol\":2077:2096  profile[msg.sender] */\n      0xffffffffffffffffffffffffffffffffffffffff\n      and\n      0xffffffffffffffffffffffffffffffffffffffff\n      and\n      dup2\n      mstore\n      0x20\n      add\n      swap1\n      dup2\n      mstore\n      0x20\n      add\n      0x00\n      keccak256\n      0x00\n        /* \"contracts/Profile.sol\":2070:2096  delete profile[msg.sender] */\n      dup1\n      dup3\n      add\n      exp(0x0100, 0x00)\n      dup2\n      sload\n      swap1\n      0xffffffffffffffffffffffffffffffffffffffff\n      mul\n      not\n      and\n      swap1\n      sstore\n      0x01\n      dup3\n      add\n      0x00\n      tag_120\n      swap2\n      swap1\n      tag_121\n      jump\t// in\n    tag_120:\n      0x02\n      dup3\n      add\n      0x00\n      tag_122\n      swap2\n      swap1\n      tag_121\n      jump\t// in\n    tag_122:\n      0x03\n      dup3\n      add\n      0x00\n      tag_123\n      swap2\n      swap1\n      tag_121\n      jump\t// in\n    tag_123:\n      0x04\n      dup3\n      add\n      0x00\n      tag_124\n      swap2\n      swap1\n      tag_121\n      jump\t// in\n    tag_124:\n      0x05\n      dup3\n      add\n      0x00\n      swap1\n      sstore\n      0x06\n      dup3\n      add\n      0x00\n      tag_125\n      swap2\n      swap1\n      tag_121\n      jump\t// in\n    tag_125:\n      0x07\n      dup3\n      add\n      0x00\n      dup1\n      dup3\n      add\n      0x00\n      tag_126\n      swap2\n      swap1\n      tag_121\n      jump\t// in\n    tag_126:\n      0x01\n      dup3\n      add\n      0x00\n      tag_127\n      swap2\n      swap1\n      tag_121\n      jump\t// in\n    tag_127:\n      0x02\n      dup3\n      add\n      0x00\n      tag_128\n      swap2\n      swap1\n      tag_121\n      jump\t// in\n    tag_128:\n      0x03\n      dup3\n      add\n      0x00\n      tag_129\n      swap2\n      swap1\n      tag_121\n      jump\t// in\n    tag_129:\n      0x04\n      dup3\n      add\n      0x00\n      tag_130\n      swap2\n      swap1\n      tag_121\n      jump\t// in\n    tag_130:\n      pop\n      pop\n      0x0c\n      dup3\n      add\n      0x00\n      dup1\n      dup3\n      add\n      0x00\n      tag_131\n      swap2\n      swap1\n      tag_132\n      jump\t// in\n    tag_131:\n      0x01\n      dup3\n      add\n      0x00\n      tag_133\n      swap2\n      swap1\n      tag_132\n      jump\t// in\n    tag_133:\n      0x02\n      dup3\n      add\n      0x00\n      tag_134\n      swap2\n      swap1\n      tag_132\n      jump\t// in\n    tag_134:\n      pop\n      pop\n      pop\n      pop\n        /* \"contracts/Profile.sol\":2030:2104  function delProfile() public {\r... */\n      jump\t// out\n    tag_29:\n      dup3\n      dup1\n      sload\n      dup3\n      dup3\n      sstore\n      swap1\n      0x00\n      mstore\n      keccak256(0x00, 0x20)\n      swap1\n      dup2\n      add\n      swap3\n      dup3\n      iszero\n      tag_135\n      jumpi\n      swap2\n      0x20\n      mul\n      dup3\n      add\n    tag_136:\n      dup3\n      dup2\n      gt\n      iszero\n      tag_137\n      jumpi\n      dup3\n      mload\n      dup3\n      swap1\n      dup1\n      mload\n      swap1\n      0x20\n      add\n      swap1\n      tag_138\n      swap3\n      swap2\n      swap1\n      tag_34\n      jump\t// in\n    tag_138:\n      pop\n      swap2\n      0x20\n      add\n      swap2\n      swap1\n      0x01\n      add\n      swap1\n      jump(tag_136)\n    tag_137:\n    tag_135:\n      pop\n      swap1\n      pop\n      tag_139\n      swap2\n      swap1\n      tag_140\n      jump\t// in\n    tag_139:\n      pop\n      swap1\n      jump\t// out\n    tag_34:\n      dup3\n      dup1\n      sload\n      tag_141\n      swap1\n      tag_41\n      jump\t// in\n    tag_141:\n      swap1\n      0x00\n      mstore\n      keccak256(0x00, 0x20)\n      swap1\n      0x1f\n      add\n      0x20\n      swap1\n      div\n      dup2\n      add\n      swap3\n      dup3\n      tag_143\n      jumpi\n      0x00\n      dup6\n      sstore\n      jump(tag_142)\n    tag_143:\n      dup3\n      0x1f\n      lt\n      tag_144\n      jumpi\n      dup1\n      mload\n      not(0xff)\n      and\n      dup4\n      dup1\n      add\n      or\n      dup6\n      sstore\n      jump(tag_142)\n    tag_144:\n      dup3\n      dup1\n      add\n      0x01\n      add\n      dup6\n      sstore\n      dup3\n      iszero\n      tag_142\n      jumpi\n      swap2\n      dup3\n      add\n    tag_145:\n      dup3\n      dup2\n      gt\n      iszero\n      tag_146\n      jumpi\n      dup3\n      mload\n      dup3\n      sstore\n      swap2\n      0x20\n      add\n      swap2\n      swap1\n      0x01\n      add\n      swap1\n      jump(tag_145)\n    tag_146:\n    tag_142:\n      pop\n      swap1\n      pop\n      tag_147\n      swap2\n      swap1\n      tag_148\n      jump\t// in\n    tag_147:\n      pop\n      swap1\n      jump\t// out\n    tag_121:\n      pop\n      dup1\n      sload\n      tag_149\n      swap1\n      tag_41\n      jump\t// in\n    tag_149:\n      0x00\n      dup3\n      sstore\n      dup1\n      0x1f\n      lt\n      tag_151\n      jumpi\n      pop\n      jump(tag_150)\n    tag_151:\n      0x1f\n      add\n      0x20\n      swap1\n      div\n      swap1\n      0x00\n      mstore\n      keccak256(0x00, 0x20)\n      swap1\n      dup2\n      add\n      swap1\n      tag_152\n      swap2\n      swap1\n      tag_148\n      jump\t// in\n    tag_152:\n    tag_150:\n      pop\n      jump\t// out\n    tag_132:\n      pop\n      dup1\n      sload\n      0x00\n      dup3\n      sstore\n      swap1\n      0x00\n      mstore\n      keccak256(0x00, 0x20)\n      swap1\n      dup2\n      add\n      swap1\n      tag_154\n      swap2\n      swap1\n      tag_140\n      jump\t// in\n    tag_154:\n      pop\n      jump\t// out\n    tag_140:\n    tag_155:\n      dup1\n      dup3\n      gt\n      iszero\n      tag_156\n      jumpi\n      0x00\n      dup2\n      dup2\n      tag_157\n      swap2\n      swap1\n      tag_121\n      jump\t// in\n    tag_157:\n      pop\n      0x01\n      add\n      jump(tag_155)\n    tag_156:\n      pop\n      swap1\n      jump\t// out\n    tag_148:\n    tag_158:\n      dup1\n      dup3\n      gt\n      iszero\n      tag_159\n      jumpi\n      0x00\n      dup2\n      0x00\n      swap1\n      sstore\n      pop\n      0x01\n      add\n      jump(tag_158)\n    tag_159:\n      pop\n      swap1\n      jump\t// out\n        /* \"#utility.yul\":23:980   */\n    tag_161:\n        /* \"#utility.yul\":129:134   */\n      0x00\n        /* \"#utility.yul\":154:245   */\n      tag_163\n        /* \"#utility.yul\":170:244   */\n      tag_164\n        /* \"#utility.yul\":237:243   */\n      dup5\n        /* \"#utility.yul\":170:244   */\n      tag_165\n      jump\t// in\n    tag_164:\n        /* \"#utility.yul\":154:245   */\n      tag_166\n      jump\t// in\n    tag_163:\n        /* \"#utility.yul\":145:245   */\n      swap1\n      pop\n        /* \"#utility.yul\":265:270   */\n      dup1\n        /* \"#utility.yul\":294:300   */\n      dup4\n        /* \"#utility.yul\":287:292   */\n      dup3\n        /* \"#utility.yul\":280:301   */\n      mstore\n        /* \"#utility.yul\":328:332   */\n      0x20\n        /* \"#utility.yul\":321:326   */\n      dup3\n        /* \"#utility.yul\":317:333   */\n      add\n        /* \"#utility.yul\":310:333   */\n      swap1\n      pop\n        /* \"#utility.yul\":354:360   */\n      dup3\n        /* \"#utility.yul\":404:407   */\n      dup6\n        /* \"#utility.yul\":396:400   */\n      0x20\n        /* \"#utility.yul\":388:394   */\n      dup7\n        /* \"#utility.yul\":384:401   */\n      mul\n        /* \"#utility.yul\":379:382   */\n      dup3\n        /* \"#utility.yul\":375:402   */\n      add\n        /* \"#utility.yul\":372:408   */\n      gt\n        /* \"#utility.yul\":369:512   */\n      iszero\n      tag_167\n      jumpi\n        /* \"#utility.yul\":423:502   */\n      tag_168\n      tag_169\n      jump\t// in\n    tag_168:\n        /* \"#utility.yul\":369:512   */\n    tag_167:\n        /* \"#utility.yul\":536:537   */\n      0x00\n        /* \"#utility.yul\":521:974   */\n    tag_170:\n        /* \"#utility.yul\":546:552   */\n      dup6\n        /* \"#utility.yul\":543:544   */\n      dup2\n        /* \"#utility.yul\":540:553   */\n      lt\n        /* \"#utility.yul\":521:974   */\n      iszero\n      tag_172\n      jumpi\n        /* \"#utility.yul\":628:631   */\n      dup2\n        /* \"#utility.yul\":615:632   */\n      calldataload\n        /* \"#utility.yul\":664:682   */\n      0xffffffffffffffff\n        /* \"#utility.yul\":651:662   */\n      dup2\n        /* \"#utility.yul\":648:683   */\n      gt\n        /* \"#utility.yul\":645:767   */\n      iszero\n      tag_173\n      jumpi\n        /* \"#utility.yul\":686:765   */\n      tag_174\n      tag_175\n      jump\t// in\n    tag_174:\n        /* \"#utility.yul\":645:767   */\n    tag_173:\n        /* \"#utility.yul\":810:821   */\n      dup1\n        /* \"#utility.yul\":802:808   */\n      dup7\n        /* \"#utility.yul\":798:822   */\n      add\n        /* \"#utility.yul\":848:895   */\n      tag_176\n        /* \"#utility.yul\":891:894   */\n      dup10\n        /* \"#utility.yul\":879:889   */\n      dup3\n        /* \"#utility.yul\":848:895   */\n      tag_177\n      jump\t// in\n    tag_176:\n        /* \"#utility.yul\":843:846   */\n      dup6\n        /* \"#utility.yul\":836:896   */\n      mstore\n        /* \"#utility.yul\":925:929   */\n      0x20\n        /* \"#utility.yul\":920:923   */\n      dup6\n        /* \"#utility.yul\":916:930   */\n      add\n        /* \"#utility.yul\":909:930   */\n      swap5\n      pop\n        /* \"#utility.yul\":959:963   */\n      0x20\n        /* \"#utility.yul\":954:957   */\n      dup5\n        /* \"#utility.yul\":950:964   */\n      add\n        /* \"#utility.yul\":943:964   */\n      swap4\n      pop\n        /* \"#utility.yul\":581:974   */\n      pop\n      pop\n        /* \"#utility.yul\":568:569   */\n      0x01\n        /* \"#utility.yul\":565:566   */\n      dup2\n        /* \"#utility.yul\":561:570   */\n      add\n        /* \"#utility.yul\":556:570   */\n      swap1\n      pop\n        /* \"#utility.yul\":521:974   */\n      jump(tag_170)\n    tag_172:\n        /* \"#utility.yul\":525:539   */\n      pop\n        /* \"#utility.yul\":135:980   */\n      pop\n      pop\n        /* \"#utility.yul\":23:980   */\n      swap4\n      swap3\n      pop\n      pop\n      pop\n      jump\t// out\n        /* \"#utility.yul\":986:1398   */\n    tag_178:\n        /* \"#utility.yul\":1064:1069   */\n      0x00\n        /* \"#utility.yul\":1089:1155   */\n      tag_180\n        /* \"#utility.yul\":1105:1154   */\n      tag_181\n        /* \"#utility.yul\":1147:1153   */\n      dup5\n        /* \"#utility.yul\":1105:1154   */\n      tag_182\n      jump\t// in\n    tag_181:\n        /* \"#utility.yul\":1089:1155   */\n      tag_166\n      jump\t// in\n    tag_180:\n        /* \"#utility.yul\":1080:1155   */\n      swap1\n      pop\n        /* \"#utility.yul\":1178:1184   */\n      dup3\n        /* \"#utility.yul\":1171:1176   */\n      dup2\n        /* \"#utility.yul\":1164:1185   */\n      mstore\n        /* \"#utility.yul\":1216:1220   */\n      0x20\n        /* \"#utility.yul\":1209:1214   */\n      dup2\n        /* \"#utility.yul\":1205:1221   */\n      add\n        /* \"#utility.yul\":1254:1257   */\n      dup5\n        /* \"#utility.yul\":1245:1251   */\n      dup5\n        /* \"#utility.yul\":1240:1243   */\n      dup5\n        /* \"#utility.yul\":1236:1252   */\n      add\n        /* \"#utility.yul\":1233:1258   */\n      gt\n        /* \"#utility.yul\":1230:1342   */\n      iszero\n      tag_183\n      jumpi\n        /* \"#utility.yul\":1261:1340   */\n      tag_184\n      tag_185\n      jump\t// in\n    tag_184:\n        /* \"#utility.yul\":1230:1342   */\n    tag_183:\n        /* \"#utility.yul\":1351:1392   */\n      tag_186\n        /* \"#utility.yul\":1385:1391   */\n      dup5\n        /* \"#utility.yul\":1380:1383   */\n      dup3\n        /* \"#utility.yul\":1375:1378   */\n      dup6\n        /* \"#utility.yul\":1351:1392   */\n      tag_187\n      jump\t// in\n    tag_186:\n        /* \"#utility.yul\":1070:1398   */\n      pop\n        /* \"#utility.yul\":986:1398   */\n      swap4\n      swap3\n      pop\n      pop\n      pop\n      jump\t// out\n        /* \"#utility.yul\":1404:1543   */\n    tag_188:\n        /* \"#utility.yul\":1450:1455   */\n      0x00\n        /* \"#utility.yul\":1488:1494   */\n      dup2\n        /* \"#utility.yul\":1475:1495   */\n      calldataload\n        /* \"#utility.yul\":1466:1495   */\n      swap1\n      pop\n        /* \"#utility.yul\":1504:1537   */\n      tag_190\n        /* \"#utility.yul\":1531:1536   */\n      dup2\n        /* \"#utility.yul\":1504:1537   */\n      tag_191\n      jump\t// in\n    tag_190:\n        /* \"#utility.yul\":1404:1543   */\n      swap3\n      swap2\n      pop\n      pop\n      jump\t// out\n        /* \"#utility.yul\":1565:1955   */\n    tag_192:\n        /* \"#utility.yul\":1646:1651   */\n      0x00\n        /* \"#utility.yul\":1695:1698   */\n      dup3\n        /* \"#utility.yul\":1688:1692   */\n      0x1f\n        /* \"#utility.yul\":1680:1686   */\n      dup4\n        /* \"#utility.yul\":1676:1693   */\n      add\n        /* \"#utility.yul\":1672:1699   */\n      slt\n        /* \"#utility.yul\":1662:1784   */\n      tag_194\n      jumpi\n        /* \"#utility.yul\":1703:1782   */\n      tag_195\n      tag_175\n      jump\t// in\n    tag_195:\n        /* \"#utility.yul\":1662:1784   */\n    tag_194:\n        /* \"#utility.yul\":1820:1826   */\n      dup2\n        /* \"#utility.yul\":1807:1827   */\n      calldataload\n        /* \"#utility.yul\":1845:1949   */\n      tag_196\n        /* \"#utility.yul\":1945:1948   */\n      dup5\n        /* \"#utility.yul\":1937:1943   */\n      dup3\n        /* \"#utility.yul\":1930:1934   */\n      0x20\n        /* \"#utility.yul\":1922:1928   */\n      dup7\n        /* \"#utility.yul\":1918:1935   */\n      add\n        /* \"#utility.yul\":1845:1949   */\n      tag_161\n      jump\t// in\n    tag_196:\n        /* \"#utility.yul\":1836:1949   */\n      swap2\n      pop\n        /* \"#utility.yul\":1652:1955   */\n      pop\n        /* \"#utility.yul\":1565:1955   */\n      swap3\n      swap2\n      pop\n      pop\n      jump\t// out\n        /* \"#utility.yul\":1975:2315   */\n    tag_177:\n        /* \"#utility.yul\":2031:2036   */\n      0x00\n        /* \"#utility.yul\":2080:2083   */\n      dup3\n        /* \"#utility.yul\":2073:2077   */\n      0x1f\n        /* \"#utility.yul\":2065:2071   */\n      dup4\n        /* \"#utility.yul\":2061:2078   */\n      add\n        /* \"#utility.yul\":2057:2084   */\n      slt\n        /* \"#utility.yul\":2047:2169   */\n      tag_198\n      jumpi\n        /* \"#utility.yul\":2088:2167   */\n      tag_199\n      tag_175\n      jump\t// in\n    tag_199:\n        /* \"#utility.yul\":2047:2169   */\n    tag_198:\n        /* \"#utility.yul\":2205:2211   */\n      dup2\n        /* \"#utility.yul\":2192:2212   */\n      calldataload\n        /* \"#utility.yul\":2230:2309   */\n      tag_200\n        /* \"#utility.yul\":2305:2308   */\n      dup5\n        /* \"#utility.yul\":2297:2303   */\n      dup3\n        /* \"#utility.yul\":2290:2294   */\n      0x20\n        /* \"#utility.yul\":2282:2288   */\n      dup7\n        /* \"#utility.yul\":2278:2295   */\n      add\n        /* \"#utility.yul\":2230:2309   */\n      tag_178\n      jump\t// in\n    tag_200:\n        /* \"#utility.yul\":2221:2309   */\n      swap2\n      pop\n        /* \"#utility.yul\":2037:2315   */\n      pop\n        /* \"#utility.yul\":1975:2315   */\n      swap3\n      swap2\n      pop\n      pop\n      jump\t// out\n        /* \"#utility.yul\":2321:2650   */\n    tag_18:\n        /* \"#utility.yul\":2380:2386   */\n      0x00\n        /* \"#utility.yul\":2429:2431   */\n      0x20\n        /* \"#utility.yul\":2417:2426   */\n      dup3\n        /* \"#utility.yul\":2408:2415   */\n      dup5\n        /* \"#utility.yul\":2404:2427   */\n      sub\n        /* \"#utility.yul\":2400:2432   */\n      slt\n        /* \"#utility.yul\":2397:2516   */\n      iszero\n      tag_202\n      jumpi\n        /* \"#utility.yul\":2435:2514   */\n      tag_203\n      tag_204\n      jump\t// in\n    tag_203:\n        /* \"#utility.yul\":2397:2516   */\n    tag_202:\n        /* \"#utility.yul\":2555:2556   */\n      0x00\n        /* \"#utility.yul\":2580:2633   */\n      tag_205\n        /* \"#utility.yul\":2625:2632   */\n      dup5\n        /* \"#utility.yul\":2616:2622   */\n      dup3\n        /* \"#utility.yul\":2605:2614   */\n      dup6\n        /* \"#utility.yul\":2601:2623   */\n      add\n        /* \"#utility.yul\":2580:2633   */\n      tag_188\n      jump\t// in\n    tag_205:\n        /* \"#utility.yul\":2570:2633   */\n      swap2\n      pop\n        /* \"#utility.yul\":2526:2643   */\n      pop\n        /* \"#utility.yul\":2321:2650   */\n      swap3\n      swap2\n      pop\n      pop\n      jump\t// out\n        /* \"#utility.yul\":2656:3965   */\n    tag_10:\n        /* \"#utility.yul\":2838:2844   */\n      0x00\n        /* \"#utility.yul\":2846:2852   */\n      dup1\n        /* \"#utility.yul\":2854:2860   */\n      0x00\n        /* \"#utility.yul\":2903:2905   */\n      0x60\n        /* \"#utility.yul\":2891:2900   */\n      dup5\n        /* \"#utility.yul\":2882:2889   */\n      dup7\n        /* \"#utility.yul\":2878:2901   */\n      sub\n        /* \"#utility.yul\":2874:2906   */\n      slt\n        /* \"#utility.yul\":2871:2990   */\n      iszero\n      tag_207\n      jumpi\n        /* \"#utility.yul\":2909:2988   */\n      tag_208\n      tag_204\n      jump\t// in\n    tag_208:\n        /* \"#utility.yul\":2871:2990   */\n    tag_207:\n        /* \"#utility.yul\":3057:3058   */\n      0x00\n        /* \"#utility.yul\":3046:3055   */\n      dup5\n        /* \"#utility.yul\":3042:3059   */\n      add\n        /* \"#utility.yul\":3029:3060   */\n      calldataload\n        /* \"#utility.yul\":3087:3105   */\n      0xffffffffffffffff\n        /* \"#utility.yul\":3079:3085   */\n      dup2\n        /* \"#utility.yul\":3076:3106   */\n      gt\n        /* \"#utility.yul\":3073:3190   */\n      iszero\n      tag_209\n      jumpi\n        /* \"#utility.yul\":3109:3188   */\n      tag_210\n      tag_211\n      jump\t// in\n    tag_210:\n        /* \"#utility.yul\":3073:3190   */\n    tag_209:\n        /* \"#utility.yul\":3214:3302   */\n      tag_212\n        /* \"#utility.yul\":3294:3301   */\n      dup7\n        /* \"#utility.yul\":3285:3291   */\n      dup3\n        /* \"#utility.yul\":3274:3283   */\n      dup8\n        /* \"#utility.yul\":3270:3292   */\n      add\n        /* \"#utility.yul\":3214:3302   */\n      tag_192\n      jump\t// in\n    tag_212:\n        /* \"#utility.yul\":3204:3302   */\n      swap4\n      pop\n        /* \"#utility.yul\":3000:3312   */\n      pop\n        /* \"#utility.yul\":3379:3381   */\n      0x20\n        /* \"#utility.yul\":3368:3377   */\n      dup5\n        /* \"#utility.yul\":3364:3382   */\n      add\n        /* \"#utility.yul\":3351:3383   */\n      calldataload\n        /* \"#utility.yul\":3410:3428   */\n      0xffffffffffffffff\n        /* \"#utility.yul\":3402:3408   */\n      dup2\n        /* \"#utility.yul\":3399:3429   */\n      gt\n        /* \"#utility.yul\":3396:3513   */\n      iszero\n      tag_213\n      jumpi\n        /* \"#utility.yul\":3432:3511   */\n      tag_214\n      tag_211\n      jump\t// in\n    tag_214:\n        /* \"#utility.yul\":3396:3513   */\n    tag_213:\n        /* \"#utility.yul\":3537:3625   */\n      tag_215\n        /* \"#utility.yul\":3617:3624   */\n      dup7\n        /* \"#utility.yul\":3608:3614   */\n      dup3\n        /* \"#utility.yul\":3597:3606   */\n      dup8\n        /* \"#utility.yul\":3593:3615   */\n      add\n        /* \"#utility.yul\":3537:3625   */\n      tag_192\n      jump\t// in\n    tag_215:\n        /* \"#utility.yul\":3527:3625   */\n      swap3\n      pop\n        /* \"#utility.yul\":3322:3635   */\n      pop\n        /* \"#utility.yul\":3702:3704   */\n      0x40\n        /* \"#utility.yul\":3691:3700   */\n      dup5\n        /* \"#utility.yul\":3687:3705   */\n      add\n        /* \"#utility.yul\":3674:3706   */\n      calldataload\n        /* \"#utility.yul\":3733:3751   */\n      0xffffffffffffffff\n        /* \"#utility.yul\":3725:3731   */\n      dup2\n        /* \"#utility.yul\":3722:3752   */\n      gt\n        /* \"#utility.yul\":3719:3836   */\n      iszero\n      tag_216\n      jumpi\n        /* \"#utility.yul\":3755:3834   */\n      tag_217\n      tag_211\n      jump\t// in\n    tag_217:\n        /* \"#utility.yul\":3719:3836   */\n    tag_216:\n        /* \"#utility.yul\":3860:3948   */\n      tag_218\n        /* \"#utility.yul\":3940:3947   */\n      dup7\n        /* \"#utility.yul\":3931:3937   */\n      dup3\n        /* \"#utility.yul\":3920:3929   */\n      dup8\n        /* \"#utility.yul\":3916:3938   */\n      add\n        /* \"#utility.yul\":3860:3948   */\n      tag_192\n      jump\t// in\n    tag_218:\n        /* \"#utility.yul\":3850:3948   */\n      swap2\n      pop\n        /* \"#utility.yul\":3645:3958   */\n      pop\n        /* \"#utility.yul\":2656:3965   */\n      swap3\n      pop\n      swap3\n      pop\n      swap3\n      jump\t// out\n        /* \"#utility.yul\":3971:6108   */\n    tag_14:\n        /* \"#utility.yul\":4135:4141   */\n      0x00\n        /* \"#utility.yul\":4143:4149   */\n      dup1\n        /* \"#utility.yul\":4151:4157   */\n      0x00\n        /* \"#utility.yul\":4159:4165   */\n      dup1\n        /* \"#utility.yul\":4167:4173   */\n      0x00\n        /* \"#utility.yul\":4175:4181   */\n      dup1\n        /* \"#utility.yul\":4224:4227   */\n      0xc0\n        /* \"#utility.yul\":4212:4221   */\n      dup8\n        /* \"#utility.yul\":4203:4210   */\n      dup10\n        /* \"#utility.yul\":4199:4222   */\n      sub\n        /* \"#utility.yul\":4195:4228   */\n      slt\n        /* \"#utility.yul\":4192:4312   */\n      iszero\n      tag_220\n      jumpi\n        /* \"#utility.yul\":4231:4310   */\n      tag_221\n      tag_204\n      jump\t// in\n    tag_221:\n        /* \"#utility.yul\":4192:4312   */\n    tag_220:\n        /* \"#utility.yul\":4379:4380   */\n      0x00\n        /* \"#utility.yul\":4368:4377   */\n      dup8\n        /* \"#utility.yul\":4364:4381   */\n      add\n        /* \"#utility.yul\":4351:4382   */\n      calldataload\n        /* \"#utility.yul\":4409:4427   */\n      0xffffffffffffffff\n        /* \"#utility.yul\":4401:4407   */\n      dup2\n        /* \"#utility.yul\":4398:4428   */\n      gt\n        /* \"#utility.yul\":4395:4512   */\n      iszero\n      tag_222\n      jumpi\n        /* \"#utility.yul\":4431:4510   */\n      tag_223\n      tag_211\n      jump\t// in\n    tag_223:\n        /* \"#utility.yul\":4395:4512   */\n    tag_222:\n        /* \"#utility.yul\":4536:4599   */\n      tag_224\n        /* \"#utility.yul\":4591:4598   */\n      dup10\n        /* \"#utility.yul\":4582:4588   */\n      dup3\n        /* \"#utility.yul\":4571:4580   */\n      dup11\n        /* \"#utility.yul\":4567:4589   */\n      add\n        /* \"#utility.yul\":4536:4599   */\n      tag_177\n      jump\t// in\n    tag_224:\n        /* \"#utility.yul\":4526:4599   */\n      swap7\n      pop\n        /* \"#utility.yul\":4322:4609   */\n      pop\n        /* \"#utility.yul\":4676:4678   */\n      0x20\n        /* \"#utility.yul\":4665:4674   */\n      dup8\n        /* \"#utility.yul\":4661:4679   */\n      add\n        /* \"#utility.yul\":4648:4680   */\n      calldataload\n        /* \"#utility.yul\":4707:4725   */\n      0xffffffffffffffff\n        /* \"#utility.yul\":4699:4705   */\n      dup2\n        /* \"#utility.yul\":4696:4726   */\n      gt\n        /* \"#utility.yul\":4693:4810   */\n      iszero\n      tag_225\n      jumpi\n        /* \"#utility.yul\":4729:4808   */\n      tag_226\n      tag_211\n      jump\t// in\n    tag_226:\n        /* \"#utility.yul\":4693:4810   */\n    tag_225:\n        /* \"#utility.yul\":4834:4897   */\n      tag_227\n        /* \"#utility.yul\":4889:4896   */\n      dup10\n        /* \"#utility.yul\":4880:4886   */\n      dup3\n        /* \"#utility.yul\":4869:4878   */\n      dup11\n        /* \"#utility.yul\":4865:4887   */\n      add\n        /* \"#utility.yul\":4834:4897   */\n      tag_177\n      jump\t// in\n    tag_227:\n        /* \"#utility.yul\":4824:4897   */\n      swap6\n      pop\n        /* \"#utility.yul\":4619:4907   */\n      pop\n        /* \"#utility.yul\":4974:4976   */\n      0x40\n        /* \"#utility.yul\":4963:4972   */\n      dup8\n        /* \"#utility.yul\":4959:4977   */\n      add\n        /* \"#utility.yul\":4946:4978   */\n      calldataload\n        /* \"#utility.yul\":5005:5023   */\n      0xffffffffffffffff\n        /* \"#utility.yul\":4997:5003   */\n      dup2\n        /* \"#utility.yul\":4994:5024   */\n      gt\n        /* \"#utility.yul\":4991:5108   */\n      iszero\n      tag_228\n      jumpi\n        /* \"#utility.yul\":5027:5106   */\n      tag_229\n      tag_211\n      jump\t// in\n    tag_229:\n        /* \"#utility.yul\":4991:5108   */\n    tag_228:\n        /* \"#utility.yul\":5132:5195   */\n      tag_230\n        /* \"#utility.yul\":5187:5194   */\n      dup10\n        /* \"#utility.yul\":5178:5184   */\n      dup3\n        /* \"#utility.yul\":5167:5176   */\n      dup11\n        /* \"#utility.yul\":5163:5185   */\n      add\n        /* \"#utility.yul\":5132:5195   */\n      tag_177\n      jump\t// in\n    tag_230:\n        /* \"#utility.yul\":5122:5195   */\n      swap5\n      pop\n        /* \"#utility.yul\":4917:5205   */\n      pop\n        /* \"#utility.yul\":5272:5274   */\n      0x60\n        /* \"#utility.yul\":5261:5270   */\n      dup8\n        /* \"#utility.yul\":5257:5275   */\n      add\n        /* \"#utility.yul\":5244:5276   */\n      calldataload\n        /* \"#utility.yul\":5303:5321   */\n      0xffffffffffffffff\n        /* \"#utility.yul\":5295:5301   */\n      dup2\n        /* \"#utility.yul\":5292:5322   */\n      gt\n        /* \"#utility.yul\":5289:5406   */\n      iszero\n      tag_231\n      jumpi\n        /* \"#utility.yul\":5325:5404   */\n      tag_232\n      tag_211\n      jump\t// in\n    tag_232:\n        /* \"#utility.yul\":5289:5406   */\n    tag_231:\n        /* \"#utility.yul\":5430:5493   */\n      tag_233\n        /* \"#utility.yul\":5485:5492   */\n      dup10\n        /* \"#utility.yul\":5476:5482   */\n      dup3\n        /* \"#utility.yul\":5465:5474   */\n      dup11\n        /* \"#utility.yul\":5461:5483   */\n      add\n        /* \"#utility.yul\":5430:5493   */\n      tag_177\n      jump\t// in\n    tag_233:\n        /* \"#utility.yul\":5420:5493   */\n      swap4\n      pop\n        /* \"#utility.yul\":5215:5503   */\n      pop\n        /* \"#utility.yul\":5570:5573   */\n      0x80\n        /* \"#utility.yul\":5559:5568   */\n      dup8\n        /* \"#utility.yul\":5555:5574   */\n      add\n        /* \"#utility.yul\":5542:5575   */\n      calldataload\n        /* \"#utility.yul\":5602:5620   */\n      0xffffffffffffffff\n        /* \"#utility.yul\":5594:5600   */\n      dup2\n        /* \"#utility.yul\":5591:5621   */\n      gt\n        /* \"#utility.yul\":5588:5705   */\n      iszero\n      tag_234\n      jumpi\n        /* \"#utility.yul\":5624:5703   */\n      tag_235\n      tag_211\n      jump\t// in\n    tag_235:\n        /* \"#utility.yul\":5588:5705   */\n    tag_234:\n        /* \"#utility.yul\":5729:5792   */\n      tag_236\n        /* \"#utility.yul\":5784:5791   */\n      dup10\n        /* \"#utility.yul\":5775:5781   */\n      dup3\n        /* \"#utility.yul\":5764:5773   */\n      dup11\n        /* \"#utility.yul\":5760:5782   */\n      add\n        /* \"#utility.yul\":5729:5792   */\n      tag_177\n      jump\t// in\n    tag_236:\n        /* \"#utility.yul\":5719:5792   */\n      swap3\n      pop\n        /* \"#utility.yul\":5513:5802   */\n      pop\n        /* \"#utility.yul\":5869:5872   */\n      0xa0\n        /* \"#utility.yul\":5858:5867   */\n      dup8\n        /* \"#utility.yul\":5854:5873   */\n      add\n        /* \"#utility.yul\":5841:5874   */\n      calldataload\n        /* \"#utility.yul\":5901:5919   */\n      0xffffffffffffffff\n        /* \"#utility.yul\":5893:5899   */\n      dup2\n        /* \"#utility.yul\":5890:5920   */\n      gt\n        /* \"#utility.yul\":5887:6004   */\n      iszero\n      tag_237\n      jumpi\n        /* \"#utility.yul\":5923:6002   */\n      tag_238\n      tag_211\n      jump\t// in\n    tag_238:\n        /* \"#utility.yul\":5887:6004   */\n    tag_237:\n        /* \"#utility.yul\":6028:6091   */\n      tag_239\n        /* \"#utility.yul\":6083:6090   */\n      dup10\n        /* \"#utility.yul\":6074:6080   */\n      dup3\n        /* \"#utility.yul\":6063:6072   */\n      dup11\n        /* \"#utility.yul\":6059:6081   */\n      add\n        /* \"#utility.yul\":6028:6091   */\n      tag_177\n      jump\t// in\n    tag_239:\n        /* \"#utility.yul\":6018:6091   */\n      swap2\n      pop\n        /* \"#utility.yul\":5812:6101   */\n      pop\n        /* \"#utility.yul\":3971:6108   */\n      swap3\n      swap6\n      pop\n      swap3\n      swap6\n      pop\n      swap3\n      swap6\n      jump\t// out\n        /* \"#utility.yul\":6114:6310   */\n    tag_240:\n        /* \"#utility.yul\":6203:6213   */\n      0x00\n        /* \"#utility.yul\":6238:6304   */\n      tag_242\n        /* \"#utility.yul\":6300:6303   */\n      dup4\n        /* \"#utility.yul\":6292:6298   */\n      dup4\n        /* \"#utility.yul\":6238:6304   */\n      tag_243\n      jump\t// in\n    tag_242:\n        /* \"#utility.yul\":6224:6304   */\n      swap1\n      pop\n        /* \"#utility.yul\":6114:6310   */\n      swap3\n      swap2\n      pop\n      pop\n      jump\t// out\n        /* \"#utility.yul\":6316:6434   */\n    tag_244:\n        /* \"#utility.yul\":6403:6427   */\n      tag_246\n        /* \"#utility.yul\":6421:6426   */\n      dup2\n        /* \"#utility.yul\":6403:6427   */\n      tag_247\n      jump\t// in\n    tag_246:\n        /* \"#utility.yul\":6398:6401   */\n      dup3\n        /* \"#utility.yul\":6391:6428   */\n      mstore\n        /* \"#utility.yul\":6316:6434   */\n      pop\n      pop\n      jump\t// out\n        /* \"#utility.yul\":6468:7439   */\n    tag_248:\n        /* \"#utility.yul\":6597:6600   */\n      0x00\n        /* \"#utility.yul\":6626:6690   */\n      tag_250\n        /* \"#utility.yul\":6684:6689   */\n      dup3\n        /* \"#utility.yul\":6626:6690   */\n      tag_251\n      jump\t// in\n    tag_250:\n        /* \"#utility.yul\":6706:6792   */\n      tag_252\n        /* \"#utility.yul\":6785:6791   */\n      dup2\n        /* \"#utility.yul\":6780:6783   */\n      dup6\n        /* \"#utility.yul\":6706:6792   */\n      tag_253\n      jump\t// in\n    tag_252:\n        /* \"#utility.yul\":6699:6792   */\n      swap4\n      pop\n        /* \"#utility.yul\":6818:6821   */\n      dup4\n        /* \"#utility.yul\":6863:6867   */\n      0x20\n        /* \"#utility.yul\":6855:6861   */\n      dup3\n        /* \"#utility.yul\":6851:6868   */\n      mul\n        /* \"#utility.yul\":6846:6849   */\n      dup6\n        /* \"#utility.yul\":6842:6869   */\n      add\n        /* \"#utility.yul\":6893:6959   */\n      tag_254\n        /* \"#utility.yul\":6953:6958   */\n      dup6\n        /* \"#utility.yul\":6893:6959   */\n      tag_255\n      jump\t// in\n    tag_254:\n        /* \"#utility.yul\":6982:6989   */\n      dup1\n        /* \"#utility.yul\":7013:7014   */\n      0x00\n        /* \"#utility.yul\":6998:7394   */\n    tag_256:\n        /* \"#utility.yul\":7023:7029   */\n      dup6\n        /* \"#utility.yul\":7020:7021   */\n      dup2\n        /* \"#utility.yul\":7017:7030   */\n      lt\n        /* \"#utility.yul\":6998:7394   */\n      iszero\n      tag_258\n      jumpi\n        /* \"#utility.yul\":7094:7103   */\n      dup5\n        /* \"#utility.yul\":7088:7092   */\n      dup5\n        /* \"#utility.yul\":7084:7104   */\n      sub\n        /* \"#utility.yul\":7079:7082   */\n      dup10\n        /* \"#utility.yul\":7072:7105   */\n      mstore\n        /* \"#utility.yul\":7145:7151   */\n      dup2\n        /* \"#utility.yul\":7139:7152   */\n      mload\n        /* \"#utility.yul\":7173:7257   */\n      tag_259\n        /* \"#utility.yul\":7252:7256   */\n      dup6\n        /* \"#utility.yul\":7237:7250   */\n      dup3\n        /* \"#utility.yul\":7173:7257   */\n      tag_240\n      jump\t// in\n    tag_259:\n        /* \"#utility.yul\":7165:7257   */\n      swap5\n      pop\n        /* \"#utility.yul\":7280:7350   */\n      tag_260\n        /* \"#utility.yul\":7343:7349   */\n      dup4\n        /* \"#utility.yul\":7280:7350   */\n      tag_261\n      jump\t// in\n    tag_260:\n        /* \"#utility.yul\":7270:7350   */\n      swap3\n      pop\n        /* \"#utility.yul\":7379:7383   */\n      0x20\n        /* \"#utility.yul\":7374:7377   */\n      dup11\n        /* \"#utility.yul\":7370:7384   */\n      add\n        /* \"#utility.yul\":7363:7384   */\n      swap10\n      pop\n        /* \"#utility.yul\":7058:7394   */\n      pop\n        /* \"#utility.yul\":7045:7046   */\n      0x01\n        /* \"#utility.yul\":7042:7043   */\n      dup2\n        /* \"#utility.yul\":7038:7047   */\n      add\n        /* \"#utility.yul\":7033:7047   */\n      swap1\n      pop\n        /* \"#utility.yul\":6998:7394   */\n      jump(tag_256)\n    tag_258:\n        /* \"#utility.yul\":7002:7016   */\n      pop\n        /* \"#utility.yul\":7410:7414   */\n      dup3\n        /* \"#utility.yul\":7403:7414   */\n      swap8\n      pop\n        /* \"#utility.yul\":7430:7433   */\n      dup8\n        /* \"#utility.yul\":7423:7433   */\n      swap6\n      pop\n        /* \"#utility.yul\":6602:7439   */\n      pop\n      pop\n      pop\n      pop\n      pop\n        /* \"#utility.yul\":6468:7439   */\n      swap3\n      swap2\n      pop\n      pop\n      jump\t// out\n        /* \"#utility.yul\":7445:7789   */\n    tag_243:\n        /* \"#utility.yul\":7523:7526   */\n      0x00\n        /* \"#utility.yul\":7551:7590   */\n      tag_263\n        /* \"#utility.yul\":7584:7589   */\n      dup3\n        /* \"#utility.yul\":7551:7590   */\n      tag_264\n      jump\t// in\n    tag_263:\n        /* \"#utility.yul\":7606:7667   */\n      tag_265\n        /* \"#utility.yul\":7660:7666   */\n      dup2\n        /* \"#utility.yul\":7655:7658   */\n      dup6\n        /* \"#utility.yul\":7606:7667   */\n      tag_266\n      jump\t// in\n    tag_265:\n        /* \"#utility.yul\":7599:7667   */\n      swap4\n      pop\n        /* \"#utility.yul\":7676:7728   */\n      tag_267\n        /* \"#utility.yul\":7721:7727   */\n      dup2\n        /* \"#utility.yul\":7716:7719   */\n      dup6\n        /* \"#utility.yul\":7709:7713   */\n      0x20\n        /* \"#utility.yul\":7702:7707   */\n      dup7\n        /* \"#utility.yul\":7698:7714   */\n      add\n        /* \"#utility.yul\":7676:7728   */\n      tag_268\n      jump\t// in\n    tag_267:\n        /* \"#utility.yul\":7753:7782   */\n      tag_269\n        /* \"#utility.yul\":7775:7781   */\n      dup2\n        /* \"#utility.yul\":7753:7782   */\n      tag_270\n      jump\t// in\n    tag_269:\n        /* \"#utility.yul\":7748:7751   */\n      dup5\n        /* \"#utility.yul\":7744:7783   */\n      add\n        /* \"#utility.yul\":7737:7783   */\n      swap2\n      pop\n        /* \"#utility.yul\":7527:7789   */\n      pop\n        /* \"#utility.yul\":7445:7789   */\n      swap3\n      swap2\n      pop\n      pop\n      jump\t// out\n        /* \"#utility.yul\":7795:8159   */\n    tag_271:\n        /* \"#utility.yul\":7883:7886   */\n      0x00\n        /* \"#utility.yul\":7911:7950   */\n      tag_273\n        /* \"#utility.yul\":7944:7949   */\n      dup3\n        /* \"#utility.yul\":7911:7950   */\n      tag_264\n      jump\t// in\n    tag_273:\n        /* \"#utility.yul\":7966:8037   */\n      tag_274\n        /* \"#utility.yul\":8030:8036   */\n      dup2\n        /* \"#utility.yul\":8025:8028   */\n      dup6\n        /* \"#utility.yul\":7966:8037   */\n      tag_275\n      jump\t// in\n    tag_274:\n        /* \"#utility.yul\":7959:8037   */\n      swap4\n      pop\n        /* \"#utility.yul\":8046:8098   */\n      tag_276\n        /* \"#utility.yul\":8091:8097   */\n      dup2\n        /* \"#utility.yul\":8086:8089   */\n      dup6\n        /* \"#utility.yul\":8079:8083   */\n      0x20\n        /* \"#utility.yul\":8072:8077   */\n      dup7\n        /* \"#utility.yul\":8068:8084   */\n      add\n        /* \"#utility.yul\":8046:8098   */\n      tag_268\n      jump\t// in\n    tag_276:\n        /* \"#utility.yul\":8123:8152   */\n      tag_277\n        /* \"#utility.yul\":8145:8151   */\n      dup2\n        /* \"#utility.yul\":8123:8152   */\n      tag_270\n      jump\t// in\n    tag_277:\n        /* \"#utility.yul\":8118:8121   */\n      dup5\n        /* \"#utility.yul\":8114:8153   */\n      add\n        /* \"#utility.yul\":8107:8153   */\n      swap2\n      pop\n        /* \"#utility.yul\":7887:8159   */\n      pop\n        /* \"#utility.yul\":7795:8159   */\n      swap3\n      swap2\n      pop\n      pop\n      jump\t// out\n        /* \"#utility.yul\":8223:9641   */\n    tag_278:\n        /* \"#utility.yul\":8340:8343   */\n      0x00\n        /* \"#utility.yul\":8376:8380   */\n      0xa0\n        /* \"#utility.yul\":8371:8374   */\n      dup4\n        /* \"#utility.yul\":8367:8381   */\n      add\n        /* \"#utility.yul\":8464:8468   */\n      0x00\n        /* \"#utility.yul\":8457:8462   */\n      dup4\n        /* \"#utility.yul\":8453:8469   */\n      add\n        /* \"#utility.yul\":8447:8470   */\n      mload\n        /* \"#utility.yul\":8517:8520   */\n      dup5\n        /* \"#utility.yul\":8511:8515   */\n      dup3\n        /* \"#utility.yul\":8507:8521   */\n      sub\n        /* \"#utility.yul\":8500:8504   */\n      0x00\n        /* \"#utility.yul\":8495:8498   */\n      dup7\n        /* \"#utility.yul\":8491:8505   */\n      add\n        /* \"#utility.yul\":8484:8522   */\n      mstore\n        /* \"#utility.yul\":8543:8616   */\n      tag_280\n        /* \"#utility.yul\":8611:8615   */\n      dup3\n        /* \"#utility.yul\":8597:8609   */\n      dup3\n        /* \"#utility.yul\":8543:8616   */\n      tag_243\n      jump\t// in\n    tag_280:\n        /* \"#utility.yul\":8535:8616   */\n      swap2\n      pop\n        /* \"#utility.yul\":8391:8627   */\n      pop\n        /* \"#utility.yul\":8710:8714   */\n      0x20\n        /* \"#utility.yul\":8703:8708   */\n      dup4\n        /* \"#utility.yul\":8699:8715   */\n      add\n        /* \"#utility.yul\":8693:8716   */\n      mload\n        /* \"#utility.yul\":8763:8766   */\n      dup5\n        /* \"#utility.yul\":8757:8761   */\n      dup3\n        /* \"#utility.yul\":8753:8767   */\n      sub\n        /* \"#utility.yul\":8746:8750   */\n      0x20\n        /* \"#utility.yul\":8741:8744   */\n      dup7\n        /* \"#utility.yul\":8737:8751   */\n      add\n        /* \"#utility.yul\":8730:8768   */\n      mstore\n        /* \"#utility.yul\":8789:8862   */\n      tag_281\n        /* \"#utility.yul\":8857:8861   */\n      dup3\n        /* \"#utility.yul\":8843:8855   */\n      dup3\n        /* \"#utility.yul\":8789:8862   */\n      tag_243\n      jump\t// in\n    tag_281:\n        /* \"#utility.yul\":8781:8862   */\n      swap2\n      pop\n        /* \"#utility.yul\":8637:8873   */\n      pop\n        /* \"#utility.yul\":8957:8961   */\n      0x40\n        /* \"#utility.yul\":8950:8955   */\n      dup4\n        /* \"#utility.yul\":8946:8962   */\n      add\n        /* \"#utility.yul\":8940:8963   */\n      mload\n        /* \"#utility.yul\":9010:9013   */\n      dup5\n        /* \"#utility.yul\":9004:9008   */\n      dup3\n        /* \"#utility.yul\":9000:9014   */\n      sub\n        /* \"#utility.yul\":8993:8997   */\n      0x40\n        /* \"#utility.yul\":8988:8991   */\n      dup7\n        /* \"#utility.yul\":8984:8998   */\n      add\n        /* \"#utility.yul\":8977:9015   */\n      mstore\n        /* \"#utility.yul\":9036:9109   */\n      tag_282\n        /* \"#utility.yul\":9104:9108   */\n      dup3\n        /* \"#utility.yul\":9090:9102   */\n      dup3\n        /* \"#utility.yul\":9036:9109   */\n      tag_243\n      jump\t// in\n    tag_282:\n        /* \"#utility.yul\":9028:9109   */\n      swap2\n      pop\n        /* \"#utility.yul\":8883:9120   */\n      pop\n        /* \"#utility.yul\":9204:9208   */\n      0x60\n        /* \"#utility.yul\":9197:9202   */\n      dup4\n        /* \"#utility.yul\":9193:9209   */\n      add\n        /* \"#utility.yul\":9187:9210   */\n      mload\n        /* \"#utility.yul\":9257:9260   */\n      dup5\n        /* \"#utility.yul\":9251:9255   */\n      dup3\n        /* \"#utility.yul\":9247:9261   */\n      sub\n        /* \"#utility.yul\":9240:9244   */\n      0x60\n        /* \"#utility.yul\":9235:9238   */\n      dup7\n        /* \"#utility.yul\":9231:9245   */\n      add\n        /* \"#utility.yul\":9224:9262   */\n      mstore\n        /* \"#utility.yul\":9283:9356   */\n      tag_283\n        /* \"#utility.yul\":9351:9355   */\n      dup3\n        /* \"#utility.yul\":9337:9349   */\n      dup3\n        /* \"#utility.yul\":9283:9356   */\n      tag_243\n      jump\t// in\n    tag_283:\n        /* \"#utility.yul\":9275:9356   */\n      swap2\n      pop\n        /* \"#utility.yul\":9130:9367   */\n      pop\n        /* \"#utility.yul\":9451:9455   */\n      0x80\n        /* \"#utility.yul\":9444:9449   */\n      dup4\n        /* \"#utility.yul\":9440:9456   */\n      add\n        /* \"#utility.yul\":9434:9457   */\n      mload\n        /* \"#utility.yul\":9504:9507   */\n      dup5\n        /* \"#utility.yul\":9498:9502   */\n      dup3\n        /* \"#utility.yul\":9494:9508   */\n      sub\n        /* \"#utility.yul\":9487:9491   */\n      0x80\n        /* \"#utility.yul\":9482:9485   */\n      dup7\n        /* \"#utility.yul\":9478:9492   */\n      add\n        /* \"#utility.yul\":9471:9509   */\n      mstore\n        /* \"#utility.yul\":9530:9603   */\n      tag_284\n        /* \"#utility.yul\":9598:9602   */\n      dup3\n        /* \"#utility.yul\":9584:9596   */\n      dup3\n        /* \"#utility.yul\":9530:9603   */\n      tag_243\n      jump\t// in\n    tag_284:\n        /* \"#utility.yul\":9522:9603   */\n      swap2\n      pop\n        /* \"#utility.yul\":9377:9614   */\n      pop\n        /* \"#utility.yul\":9631:9635   */\n      dup1\n        /* \"#utility.yul\":9624:9635   */\n      swap2\n      pop\n        /* \"#utility.yul\":8345:9641   */\n      pop\n        /* \"#utility.yul\":8223:9641   */\n      swap3\n      swap2\n      pop\n      pop\n      jump\t// out\n        /* \"#utility.yul\":9699:10775   */\n    tag_285:\n        /* \"#utility.yul\":9810:9813   */\n      0x00\n        /* \"#utility.yul\":9846:9850   */\n      0x60\n        /* \"#utility.yul\":9841:9844   */\n      dup4\n        /* \"#utility.yul\":9837:9851   */\n      add\n        /* \"#utility.yul\":9937:9941   */\n      0x00\n        /* \"#utility.yul\":9930:9935   */\n      dup4\n        /* \"#utility.yul\":9926:9942   */\n      add\n        /* \"#utility.yul\":9920:9943   */\n      mload\n        /* \"#utility.yul\":9990:9993   */\n      dup5\n        /* \"#utility.yul\":9984:9988   */\n      dup3\n        /* \"#utility.yul\":9980:9994   */\n      sub\n        /* \"#utility.yul\":9973:9977   */\n      0x00\n        /* \"#utility.yul\":9968:9971   */\n      dup7\n        /* \"#utility.yul\":9964:9978   */\n      add\n        /* \"#utility.yul\":9957:9995   */\n      mstore\n        /* \"#utility.yul\":10016:10139   */\n      tag_287\n        /* \"#utility.yul\":10134:10138   */\n      dup3\n        /* \"#utility.yul\":10120:10132   */\n      dup3\n        /* \"#utility.yul\":10016:10139   */\n      tag_248\n      jump\t// in\n    tag_287:\n        /* \"#utility.yul\":10008:10139   */\n      swap2\n      pop\n        /* \"#utility.yul\":9861:10150   */\n      pop\n        /* \"#utility.yul\":10235:10239   */\n      0x20\n        /* \"#utility.yul\":10228:10233   */\n      dup4\n        /* \"#utility.yul\":10224:10240   */\n      add\n        /* \"#utility.yul\":10218:10241   */\n      mload\n        /* \"#utility.yul\":10288:10291   */\n      dup5\n        /* \"#utility.yul\":10282:10286   */\n      dup3\n        /* \"#utility.yul\":10278:10292   */\n      sub\n        /* \"#utility.yul\":10271:10275   */\n      0x20\n        /* \"#utility.yul\":10266:10269   */\n      dup7\n        /* \"#utility.yul\":10262:10276   */\n      add\n        /* \"#utility.yul\":10255:10293   */\n      mstore\n        /* \"#utility.yul\":10314:10437   */\n      tag_288\n        /* \"#utility.yul\":10432:10436   */\n      dup3\n        /* \"#utility.yul\":10418:10430   */\n      dup3\n        /* \"#utility.yul\":10314:10437   */\n      tag_248\n      jump\t// in\n    tag_288:\n        /* \"#utility.yul\":10306:10437   */\n      swap2\n      pop\n        /* \"#utility.yul\":10160:10448   */\n      pop\n        /* \"#utility.yul\":10535:10539   */\n      0x40\n        /* \"#utility.yul\":10528:10533   */\n      dup4\n        /* \"#utility.yul\":10524:10540   */\n      add\n        /* \"#utility.yul\":10518:10541   */\n      mload\n        /* \"#utility.yul\":10588:10591   */\n      dup5\n        /* \"#utility.yul\":10582:10586   */\n      dup3\n        /* \"#utility.yul\":10578:10592   */\n      sub\n        /* \"#utility.yul\":10571:10575   */\n      0x40\n        /* \"#utility.yul\":10566:10569   */\n      dup7\n        /* \"#utility.yul\":10562:10576   */\n      add\n        /* \"#utility.yul\":10555:10593   */\n      mstore\n        /* \"#utility.yul\":10614:10737   */\n      tag_289\n        /* \"#utility.yul\":10732:10736   */\n      dup3\n        /* \"#utility.yul\":10718:10730   */\n      dup3\n        /* \"#utility.yul\":10614:10737   */\n      tag_248\n      jump\t// in\n    tag_289:\n        /* \"#utility.yul\":10606:10737   */\n      swap2\n      pop\n        /* \"#utility.yul\":10458:10748   */\n      pop\n        /* \"#utility.yul\":10765:10769   */\n      dup1\n        /* \"#utility.yul\":10758:10769   */\n      swap2\n      pop\n        /* \"#utility.yul\":9815:10775   */\n      pop\n        /* \"#utility.yul\":9699:10775   */\n      swap3\n      swap2\n      pop\n      pop\n      jump\t// out\n        /* \"#utility.yul\":10781:10899   */\n    tag_290:\n        /* \"#utility.yul\":10868:10892   */\n      tag_292\n        /* \"#utility.yul\":10886:10891   */\n      dup2\n        /* \"#utility.yul\":10868:10892   */\n      tag_293\n      jump\t// in\n    tag_292:\n        /* \"#utility.yul\":10863:10866   */\n      dup3\n        /* \"#utility.yul\":10856:10893   */\n      mstore\n        /* \"#utility.yul\":10781:10899   */\n      pop\n      pop\n      jump\t// out\n        /* \"#utility.yul\":10905:12750   */\n    tag_21:\n        /* \"#utility.yul\":11412:11416   */\n      0x00\n        /* \"#utility.yul\":11450:11453   */\n      0x0120\n        /* \"#utility.yul\":11439:11448   */\n      dup3\n        /* \"#utility.yul\":11435:11454   */\n      add\n        /* \"#utility.yul\":11427:11454   */\n      swap1\n      pop\n        /* \"#utility.yul\":11464:11535   */\n      tag_295\n        /* \"#utility.yul\":11532:11533   */\n      0x00\n        /* \"#utility.yul\":11521:11530   */\n      dup4\n        /* \"#utility.yul\":11517:11534   */\n      add\n        /* \"#utility.yul\":11508:11514   */\n      dup13\n        /* \"#utility.yul\":11464:11535   */\n      tag_244\n      jump\t// in\n    tag_295:\n        /* \"#utility.yul\":11582:11591   */\n      dup2\n        /* \"#utility.yul\":11576:11580   */\n      dup2\n        /* \"#utility.yul\":11572:11592   */\n      sub\n        /* \"#utility.yul\":11567:11569   */\n      0x20\n        /* \"#utility.yul\":11556:11565   */\n      dup4\n        /* \"#utility.yul\":11552:11570   */\n      add\n        /* \"#utility.yul\":11545:11593   */\n      mstore\n        /* \"#utility.yul\":11610:11688   */\n      tag_296\n        /* \"#utility.yul\":11683:11687   */\n      dup2\n        /* \"#utility.yul\":11674:11680   */\n      dup12\n        /* \"#utility.yul\":11610:11688   */\n      tag_271\n      jump\t// in\n    tag_296:\n        /* \"#utility.yul\":11602:11688   */\n      swap1\n      pop\n        /* \"#utility.yul\":11735:11744   */\n      dup2\n        /* \"#utility.yul\":11729:11733   */\n      dup2\n        /* \"#utility.yul\":11725:11745   */\n      sub\n        /* \"#utility.yul\":11720:11722   */\n      0x40\n        /* \"#utility.yul\":11709:11718   */\n      dup4\n        /* \"#utility.yul\":11705:11723   */\n      add\n        /* \"#utility.yul\":11698:11746   */\n      mstore\n        /* \"#utility.yul\":11763:11841   */\n      tag_297\n        /* \"#utility.yul\":11836:11840   */\n      dup2\n        /* \"#utility.yul\":11827:11833   */\n      dup11\n        /* \"#utility.yul\":11763:11841   */\n      tag_271\n      jump\t// in\n    tag_297:\n        /* \"#utility.yul\":11755:11841   */\n      swap1\n      pop\n        /* \"#utility.yul\":11888:11897   */\n      dup2\n        /* \"#utility.yul\":11882:11886   */\n      dup2\n        /* \"#utility.yul\":11878:11898   */\n      sub\n        /* \"#utility.yul\":11873:11875   */\n      0x60\n        /* \"#utility.yul\":11862:11871   */\n      dup4\n        /* \"#utility.yul\":11858:11876   */\n      add\n        /* \"#utility.yul\":11851:11899   */\n      mstore\n        /* \"#utility.yul\":11916:11994   */\n      tag_298\n        /* \"#utility.yul\":11989:11993   */\n      dup2\n        /* \"#utility.yul\":11980:11986   */\n      dup10\n        /* \"#utility.yul\":11916:11994   */\n      tag_271\n      jump\t// in\n    tag_298:\n        /* \"#utility.yul\":11908:11994   */\n      swap1\n      pop\n        /* \"#utility.yul\":12042:12051   */\n      dup2\n        /* \"#utility.yul\":12036:12040   */\n      dup2\n        /* \"#utility.yul\":12032:12052   */\n      sub\n        /* \"#utility.yul\":12026:12029   */\n      0x80\n        /* \"#utility.yul\":12015:12024   */\n      dup4\n        /* \"#utility.yul\":12011:12030   */\n      add\n        /* \"#utility.yul\":12004:12053   */\n      mstore\n        /* \"#utility.yul\":12070:12148   */\n      tag_299\n        /* \"#utility.yul\":12143:12147   */\n      dup2\n        /* \"#utility.yul\":12134:12140   */\n      dup9\n        /* \"#utility.yul\":12070:12148   */\n      tag_271\n      jump\t// in\n    tag_299:\n        /* \"#utility.yul\":12062:12148   */\n      swap1\n      pop\n        /* \"#utility.yul\":12158:12231   */\n      tag_300\n        /* \"#utility.yul\":12226:12229   */\n      0xa0\n        /* \"#utility.yul\":12215:12224   */\n      dup4\n        /* \"#utility.yul\":12211:12230   */\n      add\n        /* \"#utility.yul\":12202:12208   */\n      dup8\n        /* \"#utility.yul\":12158:12231   */\n      tag_290\n      jump\t// in\n    tag_300:\n        /* \"#utility.yul\":12279:12288   */\n      dup2\n        /* \"#utility.yul\":12273:12277   */\n      dup2\n        /* \"#utility.yul\":12269:12289   */\n      sub\n        /* \"#utility.yul\":12263:12266   */\n      0xc0\n        /* \"#utility.yul\":12252:12261   */\n      dup4\n        /* \"#utility.yul\":12248:12267   */\n      add\n        /* \"#utility.yul\":12241:12290   */\n      mstore\n        /* \"#utility.yul\":12307:12385   */\n      tag_301\n        /* \"#utility.yul\":12380:12384   */\n      dup2\n        /* \"#utility.yul\":12371:12377   */\n      dup7\n        /* \"#utility.yul\":12307:12385   */\n      tag_271\n      jump\t// in\n    tag_301:\n        /* \"#utility.yul\":12299:12385   */\n      swap1\n      pop\n        /* \"#utility.yul\":12433:12442   */\n      dup2\n        /* \"#utility.yul\":12427:12431   */\n      dup2\n        /* \"#utility.yul\":12423:12443   */\n      sub\n        /* \"#utility.yul\":12417:12420   */\n      0xe0\n        /* \"#utility.yul\":12406:12415   */\n      dup4\n        /* \"#utility.yul\":12402:12421   */\n      add\n        /* \"#utility.yul\":12395:12444   */\n      mstore\n        /* \"#utility.yul\":12461:12567   */\n      tag_302\n        /* \"#utility.yul\":12562:12566   */\n      dup2\n        /* \"#utility.yul\":12553:12559   */\n      dup6\n        /* \"#utility.yul\":12461:12567   */\n      tag_278\n      jump\t// in\n    tag_302:\n        /* \"#utility.yul\":12453:12567   */\n      swap1\n      pop\n        /* \"#utility.yul\":12615:12624   */\n      dup2\n        /* \"#utility.yul\":12609:12613   */\n      dup2\n        /* \"#utility.yul\":12605:12625   */\n      sub\n        /* \"#utility.yul\":12599:12602   */\n      0x0100\n        /* \"#utility.yul\":12588:12597   */\n      dup4\n        /* \"#utility.yul\":12584:12603   */\n      add\n        /* \"#utility.yul\":12577:12626   */\n      mstore\n        /* \"#utility.yul\":12643:12743   */\n      tag_303\n        /* \"#utility.yul\":12738:12742   */\n      dup2\n        /* \"#utility.yul\":12729:12735   */\n      dup5\n        /* \"#utility.yul\":12643:12743   */\n      tag_285\n      jump\t// in\n    tag_303:\n        /* \"#utility.yul\":12635:12743   */\n      swap1\n      pop\n        /* \"#utility.yul\":10905:12750   */\n      swap11\n      swap10\n      pop\n      pop\n      pop\n      pop\n      pop\n      pop\n      pop\n      pop\n      pop\n      pop\n      jump\t// out\n        /* \"#utility.yul\":12756:12885   */\n    tag_166:\n        /* \"#utility.yul\":12790:12796   */\n      0x00\n        /* \"#utility.yul\":12817:12837   */\n      tag_305\n      tag_306\n      jump\t// in\n    tag_305:\n        /* \"#utility.yul\":12807:12837   */\n      swap1\n      pop\n        /* \"#utility.yul\":12846:12879   */\n      tag_307\n        /* \"#utility.yul\":12874:12878   */\n      dup3\n        /* \"#utility.yul\":12866:12872   */\n      dup3\n        /* \"#utility.yul\":12846:12879   */\n      tag_308\n      jump\t// in\n    tag_307:\n        /* \"#utility.yul\":12756:12885   */\n      swap2\n      swap1\n      pop\n      jump\t// out\n        /* \"#utility.yul\":12891:12966   */\n    tag_306:\n        /* \"#utility.yul\":12924:12930   */\n      0x00\n        /* \"#utility.yul\":12957:12959   */\n      0x40\n        /* \"#utility.yul\":12951:12960   */\n      mload\n        /* \"#utility.yul\":12941:12960   */\n      swap1\n      pop\n        /* \"#utility.yul\":12891:12966   */\n      swap1\n      jump\t// out\n        /* \"#utility.yul\":12972:13293   */\n    tag_165:\n        /* \"#utility.yul\":13059:13063   */\n      0x00\n        /* \"#utility.yul\":13149:13167   */\n      0xffffffffffffffff\n        /* \"#utility.yul\":13141:13147   */\n      dup3\n        /* \"#utility.yul\":13138:13168   */\n      gt\n        /* \"#utility.yul\":13135:13191   */\n      iszero\n      tag_311\n      jumpi\n        /* \"#utility.yul\":13171:13189   */\n      tag_312\n      tag_313\n      jump\t// in\n    tag_312:\n        /* \"#utility.yul\":13135:13191   */\n    tag_311:\n        /* \"#utility.yul\":13221:13225   */\n      0x20\n        /* \"#utility.yul\":13213:13219   */\n      dup3\n        /* \"#utility.yul\":13209:13226   */\n      mul\n        /* \"#utility.yul\":13201:13226   */\n      swap1\n      pop\n        /* \"#utility.yul\":13281:13285   */\n      0x20\n        /* \"#utility.yul\":13275:13279   */\n      dup2\n        /* \"#utility.yul\":13271:13286   */\n      add\n        /* \"#utility.yul\":13263:13286   */\n      swap1\n      pop\n        /* \"#utility.yul\":12972:13293   */\n      swap2\n      swap1\n      pop\n      jump\t// out\n        /* \"#utility.yul\":13299:13607   */\n    tag_182:\n        /* \"#utility.yul\":13361:13365   */\n      0x00\n        /* \"#utility.yul\":13451:13469   */\n      0xffffffffffffffff\n        /* \"#utility.yul\":13443:13449   */\n      dup3\n        /* \"#utility.yul\":13440:13470   */\n      gt\n        /* \"#utility.yul\":13437:13493   */\n      iszero\n      tag_315\n      jumpi\n        /* \"#utility.yul\":13473:13491   */\n      tag_316\n      tag_313\n      jump\t// in\n    tag_316:\n        /* \"#utility.yul\":13437:13493   */\n    tag_315:\n        /* \"#utility.yul\":13511:13540   */\n      tag_317\n        /* \"#utility.yul\":13533:13539   */\n      dup3\n        /* \"#utility.yul\":13511:13540   */\n      tag_270\n      jump\t// in\n    tag_317:\n        /* \"#utility.yul\":13503:13540   */\n      swap1\n      pop\n        /* \"#utility.yul\":13595:13599   */\n      0x20\n        /* \"#utility.yul\":13589:13593   */\n      dup2\n        /* \"#utility.yul\":13585:13600   */\n      add\n        /* \"#utility.yul\":13577:13600   */\n      swap1\n      pop\n        /* \"#utility.yul\":13299:13607   */\n      swap2\n      swap1\n      pop\n      jump\t// out\n        /* \"#utility.yul\":13613:13755   */\n    tag_255:\n        /* \"#utility.yul\":13690:13694   */\n      0x00\n        /* \"#utility.yul\":13713:13716   */\n      dup2\n        /* \"#utility.yul\":13705:13716   */\n      swap1\n      pop\n        /* \"#utility.yul\":13743:13747   */\n      0x20\n        /* \"#utility.yul\":13738:13741   */\n      dup3\n        /* \"#utility.yul\":13734:13748   */\n      add\n        /* \"#utility.yul\":13726:13748   */\n      swap1\n      pop\n        /* \"#utility.yul\":13613:13755   */\n      swap2\n      swap1\n      pop\n      jump\t// out\n        /* \"#utility.yul\":13761:13885   */\n    tag_251:\n        /* \"#utility.yul\":13838:13844   */\n      0x00\n        /* \"#utility.yul\":13872:13877   */\n      dup2\n        /* \"#utility.yul\":13866:13878   */\n      mload\n        /* \"#utility.yul\":13856:13878   */\n      swap1\n      pop\n        /* \"#utility.yul\":13761:13885   */\n      swap2\n      swap1\n      pop\n      jump\t// out\n        /* \"#utility.yul\":13891:13990   */\n    tag_264:\n        /* \"#utility.yul\":13943:13949   */\n      0x00\n        /* \"#utility.yul\":13977:13982   */\n      dup2\n        /* \"#utility.yul\":13971:13983   */\n      mload\n        /* \"#utility.yul\":13961:13983   */\n      swap1\n      pop\n        /* \"#utility.yul\":13891:13990   */\n      swap2\n      swap1\n      pop\n      jump\t// out\n        /* \"#utility.yul\":13996:14119   */\n    tag_261:\n        /* \"#utility.yul\":14076:14080   */\n      0x00\n        /* \"#utility.yul\":14108:14112   */\n      0x20\n        /* \"#utility.yul\":14103:14106   */\n      dup3\n        /* \"#utility.yul\":14099:14113   */\n      add\n        /* \"#utility.yul\":14091:14113   */\n      swap1\n      pop\n        /* \"#utility.yul\":13996:14119   */\n      swap2\n      swap1\n      pop\n      jump\t// out\n        /* \"#utility.yul\":14125:14309   */\n    tag_253:\n        /* \"#utility.yul\":14224:14235   */\n      0x00\n        /* \"#utility.yul\":14258:14264   */\n      dup3\n        /* \"#utility.yul\":14253:14256   */\n      dup3\n        /* \"#utility.yul\":14246:14265   */\n      mstore\n        /* \"#utility.yul\":14298:14302   */\n      0x20\n        /* \"#utility.yul\":14293:14296   */\n      dup3\n        /* \"#utility.yul\":14289:14303   */\n      add\n        /* \"#utility.yul\":14274:14303   */\n      swap1\n      pop\n        /* \"#utility.yul\":14125:14309   */\n      swap3\n      swap2\n      pop\n      pop\n      jump\t// out\n        /* \"#utility.yul\":14315:14474   */\n    tag_266:\n        /* \"#utility.yul\":14389:14400   */\n      0x00\n        /* \"#utility.yul\":14423:14429   */\n      dup3\n        /* \"#utility.yul\":14418:14421   */\n      dup3\n        /* \"#utility.yul\":14411:14430   */\n      mstore\n        /* \"#utility.yul\":14463:14467   */\n      0x20\n        /* \"#utility.yul\":14458:14461   */\n      dup3\n        /* \"#utility.yul\":14454:14468   */\n      add\n        /* \"#utility.yul\":14439:14468   */\n      swap1\n      pop\n        /* \"#utility.yul\":14315:14474   */\n      swap3\n      swap2\n      pop\n      pop\n      jump\t// out\n        /* \"#utility.yul\":14480:14649   */\n    tag_275:\n        /* \"#utility.yul\":14564:14575   */\n      0x00\n        /* \"#utility.yul\":14598:14604   */\n      dup3\n        /* \"#utility.yul\":14593:14596   */\n      dup3\n        /* \"#utility.yul\":14586:14605   */\n      mstore\n        /* \"#utility.yul\":14638:14642   */\n      0x20\n        /* \"#utility.yul\":14633:14636   */\n      dup3\n        /* \"#utility.yul\":14629:14643   */\n      add\n        /* \"#utility.yul\":14614:14643   */\n      swap1\n      pop\n        /* \"#utility.yul\":14480:14649   */\n      swap3\n      swap2\n      pop\n      pop\n      jump\t// out\n        /* \"#utility.yul\":14655:14751   */\n    tag_247:\n        /* \"#utility.yul\":14692:14699   */\n      0x00\n        /* \"#utility.yul\":14721:14745   */\n      tag_326\n        /* \"#utility.yul\":14739:14744   */\n      dup3\n        /* \"#utility.yul\":14721:14745   */\n      tag_327\n      jump\t// in\n    tag_326:\n        /* \"#utility.yul\":14710:14745   */\n      swap1\n      pop\n        /* \"#utility.yul\":14655:14751   */\n      swap2\n      swap1\n      pop\n      jump\t// out\n        /* \"#utility.yul\":14757:14883   */\n    tag_327:\n        /* \"#utility.yul\":14794:14801   */\n      0x00\n        /* \"#utility.yul\":14834:14876   */\n      0xffffffffffffffffffffffffffffffffffffffff\n        /* \"#utility.yul\":14827:14832   */\n      dup3\n        /* \"#utility.yul\":14823:14877   */\n      and\n        /* \"#utility.yul\":14812:14877   */\n      swap1\n      pop\n        /* \"#utility.yul\":14757:14883   */\n      swap2\n      swap1\n      pop\n      jump\t// out\n        /* \"#utility.yul\":14889:14966   */\n    tag_293:\n        /* \"#utility.yul\":14926:14933   */\n      0x00\n        /* \"#utility.yul\":14955:14960   */\n      dup2\n        /* \"#utility.yul\":14944:14960   */\n      swap1\n      pop\n        /* \"#utility.yul\":14889:14966   */\n      swap2\n      swap1\n      pop\n      jump\t// out\n        /* \"#utility.yul\":14972:15126   */\n    tag_187:\n        /* \"#utility.yul\":15056:15062   */\n      dup3\n        /* \"#utility.yul\":15051:15054   */\n      dup2\n        /* \"#utility.yul\":15046:15049   */\n      dup4\n        /* \"#utility.yul\":15033:15063   */\n      calldatacopy\n        /* \"#utility.yul\":15118:15119   */\n      0x00\n        /* \"#utility.yul\":15109:15115   */\n      dup4\n        /* \"#utility.yul\":15104:15107   */\n      dup4\n        /* \"#utility.yul\":15100:15116   */\n      add\n        /* \"#utility.yul\":15093:15120   */\n      mstore\n        /* \"#utility.yul\":14972:15126   */\n      pop\n      pop\n      pop\n      jump\t// out\n        /* \"#utility.yul\":15132:15439   */\n    tag_268:\n        /* \"#utility.yul\":15200:15201   */\n      0x00\n        /* \"#utility.yul\":15210:15323   */\n    tag_332:\n        /* \"#utility.yul\":15224:15230   */\n      dup4\n        /* \"#utility.yul\":15221:15222   */\n      dup2\n        /* \"#utility.yul\":15218:15231   */\n      lt\n        /* \"#utility.yul\":15210:15323   */\n      iszero\n      tag_334\n      jumpi\n        /* \"#utility.yul\":15309:15310   */\n      dup1\n        /* \"#utility.yul\":15304:15307   */\n      dup3\n        /* \"#utility.yul\":15300:15311   */\n      add\n        /* \"#utility.yul\":15294:15312   */\n      mload\n        /* \"#utility.yul\":15290:15291   */\n      dup2\n        /* \"#utility.yul\":15285:15288   */\n      dup5\n        /* \"#utility.yul\":15281:15292   */\n      add\n        /* \"#utility.yul\":15274:15313   */\n      mstore\n        /* \"#utility.yul\":15246:15248   */\n      0x20\n        /* \"#utility.yul\":15243:15244   */\n      dup2\n        /* \"#utility.yul\":15239:15249   */\n      add\n        /* \"#utility.yul\":15234:15249   */\n      swap1\n      pop\n        /* \"#utility.yul\":15210:15323   */\n      jump(tag_332)\n    tag_334:\n        /* \"#utility.yul\":15341:15347   */\n      dup4\n        /* \"#utility.yul\":15338:15339   */\n      dup2\n        /* \"#utility.yul\":15335:15348   */\n      gt\n        /* \"#utility.yul\":15332:15433   */\n      iszero\n      tag_335\n      jumpi\n        /* \"#utility.yul\":15421:15422   */\n      0x00\n        /* \"#utility.yul\":15412:15418   */\n      dup5\n        /* \"#utility.yul\":15407:15410   */\n      dup5\n        /* \"#utility.yul\":15403:15419   */\n      add\n        /* \"#utility.yul\":15396:15423   */\n      mstore\n        /* \"#utility.yul\":15332:15433   */\n    tag_335:\n        /* \"#utility.yul\":15181:15439   */\n      pop\n        /* \"#utility.yul\":15132:15439   */\n      pop\n      pop\n      pop\n      jump\t// out\n        /* \"#utility.yul\":15445:15765   */\n    tag_41:\n        /* \"#utility.yul\":15489:15495   */\n      0x00\n        /* \"#utility.yul\":15526:15527   */\n      0x02\n        /* \"#utility.yul\":15520:15524   */\n      dup3\n        /* \"#utility.yul\":15516:15528   */\n      div\n        /* \"#utility.yul\":15506:15528   */\n      swap1\n      pop\n        /* \"#utility.yul\":15573:15574   */\n      0x01\n        /* \"#utility.yul\":15567:15571   */\n      dup3\n        /* \"#utility.yul\":15563:15575   */\n      and\n        /* \"#utility.yul\":15594:15612   */\n      dup1\n        /* \"#utility.yul\":15584:15665   */\n      tag_337\n      jumpi\n        /* \"#utility.yul\":15650:15654   */\n      0x7f\n        /* \"#utility.yul\":15642:15648   */\n      dup3\n        /* \"#utility.yul\":15638:15655   */\n      and\n        /* \"#utility.yul\":15628:15655   */\n      swap2\n      pop\n        /* \"#utility.yul\":15584:15665   */\n    tag_337:\n        /* \"#utility.yul\":15712:15714   */\n      0x20\n        /* \"#utility.yul\":15704:15710   */\n      dup3\n        /* \"#utility.yul\":15701:15715   */\n      lt\n        /* \"#utility.yul\":15681:15699   */\n      dup2\n        /* \"#utility.yul\":15678:15716   */\n      eq\n        /* \"#utility.yul\":15675:15759   */\n      iszero\n      tag_338\n      jumpi\n        /* \"#utility.yul\":15731:15749   */\n      tag_339\n      tag_340\n      jump\t// in\n    tag_339:\n        /* \"#utility.yul\":15675:15759   */\n    tag_338:\n        /* \"#utility.yul\":15496:15765   */\n      pop\n        /* \"#utility.yul\":15445:15765   */\n      swap2\n      swap1\n      pop\n      jump\t// out\n        /* \"#utility.yul\":15771:16052   */\n    tag_308:\n        /* \"#utility.yul\":15854:15881   */\n      tag_342\n        /* \"#utility.yul\":15876:15880   */\n      dup3\n        /* \"#utility.yul\":15854:15881   */\n      tag_270\n      jump\t// in\n    tag_342:\n        /* \"#utility.yul\":15846:15852   */\n      dup2\n        /* \"#utility.yul\":15842:15882   */\n      add\n        /* \"#utility.yul\":15984:15990   */\n      dup2\n        /* \"#utility.yul\":15972:15982   */\n      dup2\n        /* \"#utility.yul\":15969:15991   */\n      lt\n        /* \"#utility.yul\":15948:15966   */\n      0xffffffffffffffff\n        /* \"#utility.yul\":15936:15946   */\n      dup3\n        /* \"#utility.yul\":15933:15967   */\n      gt\n        /* \"#utility.yul\":15930:15992   */\n      or\n        /* \"#utility.yul\":15927:16015   */\n      iszero\n      tag_343\n      jumpi\n        /* \"#utility.yul\":15995:16013   */\n      tag_344\n      tag_313\n      jump\t// in\n    tag_344:\n        /* \"#utility.yul\":15927:16015   */\n    tag_343:\n        /* \"#utility.yul\":16035:16045   */\n      dup1\n        /* \"#utility.yul\":16031:16033   */\n      0x40\n        /* \"#utility.yul\":16024:16046   */\n      mstore\n        /* \"#utility.yul\":15814:16052   */\n      pop\n        /* \"#utility.yul\":15771:16052   */\n      pop\n      pop\n      jump\t// out\n        /* \"#utility.yul\":16058:16238   */\n    tag_340:\n        /* \"#utility.yul\":16106:16183   */\n      0x4e487b7100000000000000000000000000000000000000000000000000000000\n        /* \"#utility.yul\":16103:16104   */\n      0x00\n        /* \"#utility.yul\":16096:16184   */\n      mstore\n        /* \"#utility.yul\":16203:16207   */\n      0x22\n        /* \"#utility.yul\":16200:16201   */\n      0x04\n        /* \"#utility.yul\":16193:16208   */\n      mstore\n        /* \"#utility.yul\":16227:16231   */\n      0x24\n        /* \"#utility.yul\":16224:16225   */\n      0x00\n        /* \"#utility.yul\":16217:16232   */\n      revert\n        /* \"#utility.yul\":16244:16424   */\n    tag_313:\n        /* \"#utility.yul\":16292:16369   */\n      0x4e487b7100000000000000000000000000000000000000000000000000000000\n        /* \"#utility.yul\":16289:16290   */\n      0x00\n        /* \"#utility.yul\":16282:16370   */\n      mstore\n        /* \"#utility.yul\":16389:16393   */\n      0x41\n        /* \"#utility.yul\":16386:16387   */\n      0x04\n        /* \"#utility.yul\":16379:16394   */\n      mstore\n        /* \"#utility.yul\":16413:16417   */\n      0x24\n        /* \"#utility.yul\":16410:16411   */\n      0x00\n        /* \"#utility.yul\":16403:16418   */\n      revert\n        /* \"#utility.yul\":16430:16547   */\n    tag_175:\n        /* \"#utility.yul\":16539:16540   */\n      0x00\n        /* \"#utility.yul\":16536:16537   */\n      dup1\n        /* \"#utility.yul\":16529:16541   */\n      revert\n        /* \"#utility.yul\":16553:16670   */\n    tag_169:\n        /* \"#utility.yul\":16662:16663   */\n      0x00\n        /* \"#utility.yul\":16659:16660   */\n      dup1\n        /* \"#utility.yul\":16652:16664   */\n      revert\n        /* \"#utility.yul\":16676:16793   */\n    tag_185:\n        /* \"#utility.yul\":16785:16786   */\n      0x00\n        /* \"#utility.yul\":16782:16783   */\n      dup1\n        /* \"#utility.yul\":16775:16787   */\n      revert\n        /* \"#utility.yul\":16799:16916   */\n    tag_211:\n        /* \"#utility.yul\":16908:16909   */\n      0x00\n        /* \"#utility.yul\":16905:16906   */\n      dup1\n        /* \"#utility.yul\":16898:16910   */\n      revert\n        /* \"#utility.yul\":16922:17039   */\n    tag_204:\n        /* \"#utility.yul\":17031:17032   */\n      0x00\n        /* \"#utility.yul\":17028:17029   */\n      dup1\n        /* \"#utility.yul\":17021:17033   */\n      revert\n        /* \"#utility.yul\":17045:17147   */\n    tag_270:\n        /* \"#utility.yul\":17086:17092   */\n      0x00\n        /* \"#utility.yul\":17137:17139   */\n      0x1f\n        /* \"#utility.yul\":17133:17140   */\n      not\n        /* \"#utility.yul\":17128:17130   */\n      0x1f\n        /* \"#utility.yul\":17121:17126   */\n      dup4\n        /* \"#utility.yul\":17117:17131   */\n      add\n        /* \"#utility.yul\":17113:17141   */\n      and\n        /* \"#utility.yul\":17103:17141   */\n      swap1\n      pop\n        /* \"#utility.yul\":17045:17147   */\n      swap2\n      swap1\n      pop\n      jump\t// out\n        /* \"#utility.yul\":17153:17275   */\n    tag_191:\n        /* \"#utility.yul\":17226:17250   */\n      tag_354\n        /* \"#utility.yul\":17244:17249   */\n      dup2\n        /* \"#utility.yul\":17226:17250   */\n      tag_247\n      jump\t// in\n    tag_354:\n        /* \"#utility.yul\":17219:17224   */\n      dup2\n        /* \"#utility.yul\":17216:17251   */\n      eq\n        /* \"#utility.yul\":17206:17269   */\n      tag_355\n      jumpi\n        /* \"#utility.yul\":17265:17266   */\n      0x00\n        /* \"#utility.yul\":17262:17263   */\n      dup1\n        /* \"#utility.yul\":17255:17267   */\n      revert\n        /* \"#utility.yul\":17206:17269   */\n    tag_355:\n        /* \"#utility.yul\":17153:17275   */\n      pop\n      jump\t// out\n\n    auxdata: 0xa264697066735822122093d39d4b53d78f5fde35b26d670613dc79f3e7dd09bb1b25b8258bb8949a199e64736f6c63430008070033\n}\n",
				"bytecode": {
					"linkReferences": {},
					"object": "608060405234801561001057600080fd5b50611a00806100206000396000f3fe608060405234801561001057600080fd5b50600436106100575760003560e01c80634aafdfe31461005c578063721041af146100785780639dd9d0fd14610094578063d52246d7146100cc578063fabce08f146100e8575b600080fd5b610076600480360381019061007191906112bf565b6100f2565b005b610092600480360381019061008d9190611366565b610202565b005b6100ae60048036038101906100a99190611292565b6104da565b6040516100c3999897969594939291906116a4565b60405180910390f35b6100e660048036038101906100e191906112bf565b610d69565b005b6100f0610e79565b005b826000803373ffffffffffffffffffffffffffffffffffffffff1673ffffffffffffffffffffffffffffffffffffffff168152602001908152602001600020600c01600001908051906020019061014a929190610fc9565b50816000803373ffffffffffffffffffffffffffffffffffffffff1673ffffffffffffffffffffffffffffffffffffffff168152602001908152602001600020600c0160010190805190602001906101a3929190610fc9565b50806000803373ffffffffffffffffffffffffffffffffffffffff1673ffffffffffffffffffffffffffffffffffffffff168152602001908152602001600020600c0160020190805190602001906101fc929190610fc9565b50505050565b856000803373ffffffffffffffffffffffffffffffffffffffff1673ffffffffffffffffffffffffffffffffffffffff1681526020019081526020016000206001019080519060200190610257929190611029565b50846000803373ffffffffffffffffffffffffffffffffffffffff1673ffffffffffffffffffffffffffffffffffffffff16815260200190815260200160002060020190805190602001906102ad929190611029565b50836000803373ffffffffffffffffffffffffffffffffffffffff1673ffffffffffffffffffffffffffffffffffffffff1681526020019081526020016000206003019080519060200190610303929190611029565b50806000803373ffffffffffffffffffffffffffffffffffffffff1673ffffffffffffffffffffffffffffffffffffffff1681526020019081526020016000206004019080519060200190610359929190611029565b50336000803373ffffffffffffffffffffffffffffffffffffffff1673ffffffffffffffffffffffffffffffffffffffff16815260200190815260200160002060000160006101000a81548173ffffffffffffffffffffffffffffffffffffffff021916908373ffffffffffffffffffffffffffffffffffffffff160217905550426000803373ffffffffffffffffffffffffffffffffffffffff1673ffffffffffffffffffffffffffffffffffffffff16815260200190815260200160002060050181905550826000803373ffffffffffffffffffffffffffffffffffffffff1673ffffffffffffffffffffffffffffffffffffffff1681526020019081526020016000206007016000019080519060200190610478929190611029565b50816000803373ffffffffffffffffffffffffffffffffffffffff1673ffffffffffffffffffffffffffffffffffffffff16815260200190815260200160002060070160010190805190602001906104d1929190611029565b50505050505050565b60006020528060005260406000206000915090508060000160009054906101000a900473ffffffffffffffffffffffffffffffffffffffff1690806001018054610523906118c8565b80601f016020809104026020016040519081016040528092919081815260200182805461054f906118c8565b801561059c5780601f106105715761010080835404028352916020019161059c565b820191906000526020600020905b81548152906001019060200180831161057f57829003601f168201915b5050505050908060020180546105b1906118c8565b80601f01602080910402602001604051908101604052809291908181526020018280546105dd906118c8565b801561062a5780601f106105ff5761010080835404028352916020019161062a565b820191906000526020600020905b81548152906001019060200180831161060d57829003601f168201915b50505050509080600301805461063f906118c8565b80601f016020809104026020016040519081016040528092919081815260200182805461066b906118c8565b80156106b85780601f1061068d576101008083540402835291602001916106b8565b820191906000526020600020905b81548152906001019060200180831161069b57829003601f168201915b5050505050908060040180546106cd906118c8565b80601f01602080910402602001604051908101604052809291908181526020018280546106f9906118c8565b80156107465780601f1061071b57610100808354040283529160200191610746565b820191906000526020600020905b81548152906001019060200180831161072957829003601f168201915b505050505090806005015490806006018054610761906118c8565b80601f016020809104026020016040519081016040528092919081815260200182805461078d906118c8565b80156107da5780601f106107af576101008083540402835291602001916107da565b820191906000526020600020905b8154815290600101906020018083116107bd57829003601f168201915b505050505090806007016040518060a00160405290816000820180546107ff906118c8565b80601f016020809104026020016040519081016040528092919081815260200182805461082b906118c8565b80156108785780601f1061084d57610100808354040283529160200191610878565b820191906000526020600020905b81548152906001019060200180831161085b57829003601f168201915b50505050508152602001600182018054610891906118c8565b80601f01602080910402602001604051908101604052809291908181526020018280546108bd906118c8565b801561090a5780601f106108df5761010080835404028352916020019161090a565b820191906000526020600020905b8154815290600101906020018083116108ed57829003601f168201915b50505050508152602001600282018054610923906118c8565b80601f016020809104026020016040519081016040528092919081815260200182805461094f906118c8565b801561099c5780601f106109715761010080835404028352916020019161099c565b820191906000526020600020905b81548152906001019060200180831161097f57829003601f168201915b505050505081526020016003820180546109b5906118c8565b80601f01602080910402602001604051908101604052809291908181526020018280546109e1906118c8565b8015610a2e5780601f10610a0357610100808354040283529160200191610a2e565b820191906000526020600020905b815481529060010190602001808311610a1157829003601f168201915b50505050508152602001600482018054610a47906118c8565b80601f0160208091040260200160405190810160405280929190818152602001828054610a73906118c8565b8015610ac05780601f10610a9557610100808354040283529160200191610ac0565b820191906000526020600020905b815481529060010190602001808311610aa357829003601f168201915b5050505050815250509080600c0160405180606001604052908160008201805480602002602001604051908101604052809291908181526020016000905b82821015610baa578382906000526020600020018054610b1d906118c8565b80601f0160208091040260200160405190810160405280929190818152602001828054610b49906118c8565b8015610b965780601f10610b6b57610100808354040283529160200191610b96565b820191906000526020600020905b815481529060010190602001808311610b7957829003601f168201915b505050505081526020019060010190610afe565b50505050815260200160018201805480602002602001604051908101604052809291908181526020016000905b82821015610c83578382906000526020600020018054610bf6906118c8565b80601f0160208091040260200160405190810160405280929190818152602001828054610c22906118c8565b8015610c6f5780601f10610c4457610100808354040283529160200191610c6f565b820191906000526020600020905b815481529060010190602001808311610c5257829003601f168201915b505050505081526020019060010190610bd7565b50505050815260200160028201805480602002602001604051908101604052809291908181526020016000905b82821015610d5c578382906000526020600020018054610ccf906118c8565b80601f0160208091040260200160405190810160405280929190818152602001828054610cfb906118c8565b8015610d485780601f10610d1d57610100808354040283529160200191610d48565b820191906000526020600020905b815481529060010190602001808311610d2b57829003601f168201915b505050505081526020019060010190610cb0565b5050505081525050905089565b826000803373ffffffffffffffffffffffffffffffffffffffff1673ffffffffffffffffffffffffffffffffffffffff168152602001908152602001600020600c016000019080519060200190610dc1929190610fc9565b50816000803373ffffffffffffffffffffffffffffffffffffffff1673ffffffffffffffffffffffffffffffffffffffff168152602001908152602001600020600c016001019080519060200190610e1a929190610fc9565b50806000803373ffffffffffffffffffffffffffffffffffffffff1673ffffffffffffffffffffffffffffffffffffffff168152602001908152602001600020600c016002019080519060200190610e73929190610fc9565b50505050565b6000803373ffffffffffffffffffffffffffffffffffffffff1673ffffffffffffffffffffffffffffffffffffffff168152602001908152602001600020600080820160006101000a81549073ffffffffffffffffffffffffffffffffffffffff0219169055600182016000610eef91906110af565b600282016000610eff91906110af565b600382016000610f0f91906110af565b600482016000610f1f91906110af565b6005820160009055600682016000610f3791906110af565b6007820160008082016000610f4c91906110af565b600182016000610f5c91906110af565b600282016000610f6c91906110af565b600382016000610f7c91906110af565b600482016000610f8c91906110af565b5050600c820160008082016000610fa391906110ef565b600182016000610fb391906110ef565b600282016000610fc391906110ef565b50505050565b828054828255906000526020600020908101928215611018579160200282015b82811115611017578251829080519060200190611007929190611029565b5091602001919060010190610fe9565b5b5090506110259190611110565b5090565b828054611035906118c8565b90600052602060002090601f016020900481019282611057576000855561109e565b82601f1061107057805160ff191683800117855561109e565b8280016001018555821561109e579182015b8281111561109d578251825591602001919060010190611082565b5b5090506110ab9190611134565b5090565b5080546110bb906118c8565b6000825580601f106110cd57506110ec565b601f0160209004906000526020600020908101906110eb9190611134565b5b50565b508054600082559060005260206000209081019061110d9190611110565b50565b5b80821115611130576000818161112791906110af565b50600101611111565b5090565b5b8082111561114d576000816000905550600101611135565b5090565b600061116461115f84611787565b611762565b905080838252602082019050828560208602820111156111875761118661198e565b5b60005b858110156111d557813567ffffffffffffffff8111156111ad576111ac611989565b5b8086016111ba8982611264565b8552602085019450602084019350505060018101905061118a565b5050509392505050565b60006111f26111ed846117b3565b611762565b90508281526020810184848401111561120e5761120d611993565b5b611219848285611886565b509392505050565b600081359050611230816119b3565b92915050565b600082601f83011261124b5761124a611989565b5b813561125b848260208601611151565b91505092915050565b600082601f83011261127957611278611989565b5b81356112898482602086016111df565b91505092915050565b6000602082840312156112a8576112a761199d565b5b60006112b684828501611221565b91505092915050565b6000806000606084860312156112d8576112d761199d565b5b600084013567ffffffffffffffff8111156112f6576112f5611998565b5b61130286828701611236565b935050602084013567ffffffffffffffff81111561132357611322611998565b5b61132f86828701611236565b925050604084013567ffffffffffffffff8111156113505761134f611998565b5b61135c86828701611236565b9150509250925092565b60008060008060008060c087890312156113835761138261199d565b5b600087013567ffffffffffffffff8111156113a1576113a0611998565b5b6113ad89828a01611264565b965050602087013567ffffffffffffffff8111156113ce576113cd611998565b5b6113da89828a01611264565b955050604087013567ffffffffffffffff8111156113fb576113fa611998565b5b61140789828a01611264565b945050606087013567ffffffffffffffff81111561142857611427611998565b5b61143489828a01611264565b935050608087013567ffffffffffffffff81111561145557611454611998565b5b61146189828a01611264565b92505060a087013567ffffffffffffffff81111561148257611481611998565b5b61148e89828a01611264565b9150509295509295509295565b60006114a78383611533565b905092915050565b6114b88161184a565b82525050565b60006114c9826117f4565b6114d38185611817565b9350836020820285016114e5856117e4565b8060005b858110156115215784840389528151611502858261149b565b945061150d8361180a565b925060208a019950506001810190506114e9565b50829750879550505050505092915050565b600061153e826117ff565b6115488185611828565b9350611558818560208601611895565b611561816119a2565b840191505092915050565b6000611577826117ff565b6115818185611839565b9350611591818560208601611895565b61159a816119a2565b840191505092915050565b600060a08301600083015184820360008601526115c28282611533565b915050602083015184820360208601526115dc8282611533565b915050604083015184820360408601526115f68282611533565b915050606083015184820360608601526116108282611533565b9150506080830151848203608086015261162a8282611533565b9150508091505092915050565b6000606083016000830151848203600086015261165482826114be565b9150506020830151848203602086015261166e82826114be565b9150506040830151848203604086015261168882826114be565b9150508091505092915050565b61169e8161187c565b82525050565b6000610120820190506116ba600083018c6114af565b81810360208301526116cc818b61156c565b905081810360408301526116e0818a61156c565b905081810360608301526116f4818961156c565b90508181036080830152611708818861156c565b905061171760a0830187611695565b81810360c0830152611729818661156c565b905081810360e083015261173d81856115a5565b90508181036101008301526117528184611637565b90509a9950505050505050505050565b600061176c61177d565b905061177882826118fa565b919050565b6000604051905090565b600067ffffffffffffffff8211156117a2576117a161195a565b5b602082029050602081019050919050565b600067ffffffffffffffff8211156117ce576117cd61195a565b5b6117d7826119a2565b9050602081019050919050565b6000819050602082019050919050565b600081519050919050565b600081519050919050565b6000602082019050919050565b600082825260208201905092915050565b600082825260208201905092915050565b600082825260208201905092915050565b60006118558261185c565b9050919050565b600073ffffffffffffffffffffffffffffffffffffffff82169050919050565b6000819050919050565b82818337600083830152505050565b60005b838110156118b3578082015181840152602081019050611898565b838111156118c2576000848401525b50505050565b600060028204905060018216806118e057607f821691505b602082108114156118f4576118f361192b565b5b50919050565b611903826119a2565b810181811067ffffffffffffffff821117156119225761192161195a565b5b80604052505050565b7f4e487b7100000000000000000000000000000000000000000000000000000000600052602260045260246000fd5b7f4e487b7100000000000000000000000000000000000000000000000000000000600052604160045260246000fd5b600080fd5b600080fd5b600080fd5b600080fd5b600080fd5b6000601f19601f8301169050919050565b6119bc8161184a565b81146119c757600080fd5b5056fea264697066735822122093d39d4b53d78f5fde35b26d670613dc79f3e7dd09bb1b25b8258bb8949a199e64736f6c63430008070033",
					"opcodes": "PUSH1 0x80 PUSH1 0x40 MSTORE CALLVALUE DUP1 ISZERO PUSH2 0x10 JUMPI PUSH1 0x0 DUP1 REVERT JUMPDEST POP PUSH2 0x1A00 DUP1 PUSH2 0x20 PUSH1 0x0 CODECOPY PUSH1 0x0 RETURN INVALID PUSH1 0x80 PUSH1 0x40 MSTORE CALLVALUE DUP1 ISZERO PUSH2 0x10 JUMPI PUSH1 0x0 DUP1 REVERT JUMPDEST POP PUSH1 0x4 CALLDATASIZE LT PUSH2 0x57 JUMPI PUSH1 0x0 CALLDATALOAD PUSH1 0xE0 SHR DUP1 PUSH4 0x4AAFDFE3 EQ PUSH2 0x5C JUMPI DUP1 PUSH4 0x721041AF EQ PUSH2 0x78 JUMPI DUP1 PUSH4 0x9DD9D0FD EQ PUSH2 0x94 JUMPI DUP1 PUSH4 0xD52246D7 EQ PUSH2 0xCC JUMPI DUP1 PUSH4 0xFABCE08F EQ PUSH2 0xE8 JUMPI JUMPDEST PUSH1 0x0 DUP1 REVERT JUMPDEST PUSH2 0x76 PUSH1 0x4 DUP1 CALLDATASIZE SUB DUP2 ADD SWAP1 PUSH2 0x71 SWAP2 SWAP1 PUSH2 0x12BF JUMP JUMPDEST PUSH2 0xF2 JUMP JUMPDEST STOP JUMPDEST PUSH2 0x92 PUSH1 0x4 DUP1 CALLDATASIZE SUB DUP2 ADD SWAP1 PUSH2 0x8D SWAP2 SWAP1 PUSH2 0x1366 JUMP JUMPDEST PUSH2 0x202 JUMP JUMPDEST STOP JUMPDEST PUSH2 0xAE PUSH1 0x4 DUP1 CALLDATASIZE SUB DUP2 ADD SWAP1 PUSH2 0xA9 SWAP2 SWAP1 PUSH2 0x1292 JUMP JUMPDEST PUSH2 0x4DA JUMP JUMPDEST PUSH1 0x40 MLOAD PUSH2 0xC3 SWAP10 SWAP9 SWAP8 SWAP7 SWAP6 SWAP5 SWAP4 SWAP3 SWAP2 SWAP1 PUSH2 0x16A4 JUMP JUMPDEST PUSH1 0x40 MLOAD DUP1 SWAP2 SUB SWAP1 RETURN JUMPDEST PUSH2 0xE6 PUSH1 0x4 DUP1 CALLDATASIZE SUB DUP2 ADD SWAP1 PUSH2 0xE1 SWAP2 SWAP1 PUSH2 0x12BF JUMP JUMPDEST PUSH2 0xD69 JUMP JUMPDEST STOP JUMPDEST PUSH2 0xF0 PUSH2 0xE79 JUMP JUMPDEST STOP JUMPDEST DUP3 PUSH1 0x0 DUP1 CALLER PUSH20 0xFFFFFFFFFFFFFFFFFFFFFFFFFFFFFFFFFFFFFFFF AND PUSH20 0xFFFFFFFFFFFFFFFFFFFFFFFFFFFFFFFFFFFFFFFF AND DUP2 MSTORE PUSH1 0x20 ADD SWAP1 DUP2 MSTORE PUSH1 0x20 ADD PUSH1 0x0 KECCAK256 PUSH1 0xC ADD PUSH1 0x0 ADD SWAP1 DUP1 MLOAD SWAP1 PUSH1 0x20 ADD SWAP1 PUSH2 0x14A SWAP3 SWAP2 SWAP1 PUSH2 0xFC9 JUMP JUMPDEST POP DUP2 PUSH1 0x0 DUP1 CALLER PUSH20 0xFFFFFFFFFFFFFFFFFFFFFFFFFFFFFFFFFFFFFFFF AND PUSH20 0xFFFFFFFFFFFFFFFFFFFFFFFFFFFFFFFFFFFFFFFF AND DUP2 MSTORE PUSH1 0x20 ADD SWAP1 DUP2 MSTORE PUSH1 0x20 ADD PUSH1 0x0 KECCAK256 PUSH1 0xC ADD PUSH1 0x1 ADD SWAP1 DUP1 MLOAD SWAP1 PUSH1 0x20 ADD SWAP1 PUSH2 0x1A3 SWAP3 SWAP2 SWAP1 PUSH2 0xFC9 JUMP JUMPDEST POP DUP1 PUSH1 0x0 DUP1 CALLER PUSH20 0xFFFFFFFFFFFFFFFFFFFFFFFFFFFFFFFFFFFFFFFF AND PUSH20 0xFFFFFFFFFFFFFFFFFFFFFFFFFFFFFFFFFFFFFFFF AND DUP2 MSTORE PUSH1 0x20 ADD SWAP1 DUP2 MSTORE PUSH1 0x20 ADD PUSH1 0x0 KECCAK256 PUSH1 0xC ADD PUSH1 0x2 ADD SWAP1 DUP1 MLOAD SWAP1 PUSH1 0x20 ADD SWAP1 PUSH2 0x1FC SWAP3 SWAP2 SWAP1 PUSH2 0xFC9 JUMP JUMPDEST POP POP POP POP JUMP JUMPDEST DUP6 PUSH1 0x0 DUP1 CALLER PUSH20 0xFFFFFFFFFFFFFFFFFFFFFFFFFFFFFFFFFFFFFFFF AND PUSH20 0xFFFFFFFFFFFFFFFFFFFFFFFFFFFFFFFFFFFFFFFF AND DUP2 MSTORE PUSH1 0x20 ADD SWAP1 DUP2 MSTORE PUSH1 0x20 ADD PUSH1 0x0 KECCAK256 PUSH1 0x1 ADD SWAP1 DUP1 MLOAD SWAP1 PUSH1 0x20 ADD SWAP1 PUSH2 0x257 SWAP3 SWAP2 SWAP1 PUSH2 0x1029 JUMP JUMPDEST POP DUP5 PUSH1 0x0 DUP1 CALLER PUSH20 0xFFFFFFFFFFFFFFFFFFFFFFFFFFFFFFFFFFFFFFFF AND PUSH20 0xFFFFFFFFFFFFFFFFFFFFFFFFFFFFFFFFFFFFFFFF AND DUP2 MSTORE PUSH1 0x20 ADD SWAP1 DUP2 MSTORE PUSH1 0x20 ADD PUSH1 0x0 KECCAK256 PUSH1 0x2 ADD SWAP1 DUP1 MLOAD SWAP1 PUSH1 0x20 ADD SWAP1 PUSH2 0x2AD SWAP3 SWAP2 SWAP1 PUSH2 0x1029 JUMP JUMPDEST POP DUP4 PUSH1 0x0 DUP1 CALLER PUSH20 0xFFFFFFFFFFFFFFFFFFFFFFFFFFFFFFFFFFFFFFFF AND PUSH20 0xFFFFFFFFFFFFFFFFFFFFFFFFFFFFFFFFFFFFFFFF AND DUP2 MSTORE PUSH1 0x20 ADD SWAP1 DUP2 MSTORE PUSH1 0x20 ADD PUSH1 0x0 KECCAK256 PUSH1 0x3 ADD SWAP1 DUP1 MLOAD SWAP1 PUSH1 0x20 ADD SWAP1 PUSH2 0x303 SWAP3 SWAP2 SWAP1 PUSH2 0x1029 JUMP JUMPDEST POP DUP1 PUSH1 0x0 DUP1 CALLER PUSH20 0xFFFFFFFFFFFFFFFFFFFFFFFFFFFFFFFFFFFFFFFF AND PUSH20 0xFFFFFFFFFFFFFFFFFFFFFFFFFFFFFFFFFFFFFFFF AND DUP2 MSTORE PUSH1 0x20 ADD SWAP1 DUP2 MSTORE PUSH1 0x20 ADD PUSH1 0x0 KECCAK256 PUSH1 0x4 ADD SWAP1 DUP1 MLOAD SWAP1 PUSH1 0x20 ADD SWAP1 PUSH2 0x359 SWAP3 SWAP2 SWAP1 PUSH2 0x1029 JUMP JUMPDEST POP CALLER PUSH1 0x0 DUP1 CALLER PUSH20 0xFFFFFFFFFFFFFFFFFFFFFFFFFFFFFFFFFFFFFFFF AND PUSH20 0xFFFFFFFFFFFFFFFFFFFFFFFFFFFFFFFFFFFFFFFF AND DUP2 MSTORE PUSH1 0x20 ADD SWAP1 DUP2 MSTORE PUSH1 0x20 ADD PUSH1 0x0 KECCAK256 PUSH1 0x0 ADD PUSH1 0x0 PUSH2 0x100 EXP DUP2 SLOAD DUP2 PUSH20 0xFFFFFFFFFFFFFFFFFFFFFFFFFFFFFFFFFFFFFFFF MUL NOT AND SWAP1 DUP4 PUSH20 0xFFFFFFFFFFFFFFFFFFFFFFFFFFFFFFFFFFFFFFFF AND MUL OR SWAP1 SSTORE POP TIMESTAMP PUSH1 0x0 DUP1 CALLER PUSH20 0xFFFFFFFFFFFFFFFFFFFFFFFFFFFFFFFFFFFFFFFF AND PUSH20 0xFFFFFFFFFFFFFFFFFFFFFFFFFFFFFFFFFFFFFFFF AND DUP2 MSTORE PUSH1 0x20 ADD SWAP1 DUP2 MSTORE PUSH1 0x20 ADD PUSH1 0x0 KECCAK256 PUSH1 0x5 ADD DUP2 SWAP1 SSTORE POP DUP3 PUSH1 0x0 DUP1 CALLER PUSH20 0xFFFFFFFFFFFFFFFFFFFFFFFFFFFFFFFFFFFFFFFF AND PUSH20 0xFFFFFFFFFFFFFFFFFFFFFFFFFFFFFFFFFFFFFFFF AND DUP2 MSTORE PUSH1 0x20 ADD SWAP1 DUP2 MSTORE PUSH1 0x20 ADD PUSH1 0x0 KECCAK256 PUSH1 0x7 ADD PUSH1 0x0 ADD SWAP1 DUP1 MLOAD SWAP1 PUSH1 0x20 ADD SWAP1 PUSH2 0x478 SWAP3 SWAP2 SWAP1 PUSH2 0x1029 JUMP JUMPDEST POP DUP2 PUSH1 0x0 DUP1 CALLER PUSH20 0xFFFFFFFFFFFFFFFFFFFFFFFFFFFFFFFFFFFFFFFF AND PUSH20 0xFFFFFFFFFFFFFFFFFFFFFFFFFFFFFFFFFFFFFFFF AND DUP2 MSTORE PUSH1 0x20 ADD SWAP1 DUP2 MSTORE PUSH1 0x20 ADD PUSH1 0x0 KECCAK256 PUSH1 0x7 ADD PUSH1 0x1 ADD SWAP1 DUP1 MLOAD SWAP1 PUSH1 0x20 ADD SWAP1 PUSH2 0x4D1 SWAP3 SWAP2 SWAP1 PUSH2 0x1029 JUMP JUMPDEST POP POP POP POP POP POP POP JUMP JUMPDEST PUSH1 0x0 PUSH1 0x20 MSTORE DUP1 PUSH1 0x0 MSTORE PUSH1 0x40 PUSH1 0x0 KECCAK256 PUSH1 0x0 SWAP2 POP SWAP1 POP DUP1 PUSH1 0x0 ADD PUSH1 0x0 SWAP1 SLOAD SWAP1 PUSH2 0x100 EXP SWAP1 DIV PUSH20 0xFFFFFFFFFFFFFFFFFFFFFFFFFFFFFFFFFFFFFFFF AND SWAP1 DUP1 PUSH1 0x1 ADD DUP1 SLOAD PUSH2 0x523 SWAP1 PUSH2 0x18C8 JUMP JUMPDEST DUP1 PUSH1 0x1F ADD PUSH1 0x20 DUP1 SWAP2 DIV MUL PUSH1 0x20 ADD PUSH1 0x40 MLOAD SWAP1 DUP2 ADD PUSH1 0x40 MSTORE DUP1 SWAP3 SWAP2 SWAP1 DUP2 DUP2 MSTORE PUSH1 0x20 ADD DUP3 DUP1 SLOAD PUSH2 0x54F SWAP1 PUSH2 0x18C8 JUMP JUMPDEST DUP1 ISZERO PUSH2 0x59C JUMPI DUP1 PUSH1 0x1F LT PUSH2 0x571 JUMPI PUSH2 0x100 DUP1 DUP4 SLOAD DIV MUL DUP4 MSTORE SWAP2 PUSH1 0x20 ADD SWAP2 PUSH2 0x59C JUMP JUMPDEST DUP3 ADD SWAP2 SWAP1 PUSH1 0x0 MSTORE PUSH1 0x20 PUSH1 0x0 KECCAK256 SWAP1 JUMPDEST DUP2 SLOAD DUP2 MSTORE SWAP1 PUSH1 0x1 ADD SWAP1 PUSH1 0x20 ADD DUP1 DUP4 GT PUSH2 0x57F JUMPI DUP3 SWAP1 SUB PUSH1 0x1F AND DUP3 ADD SWAP2 JUMPDEST POP POP POP POP POP SWAP1 DUP1 PUSH1 0x2 ADD DUP1 SLOAD PUSH2 0x5B1 SWAP1 PUSH2 0x18C8 JUMP JUMPDEST DUP1 PUSH1 0x1F ADD PUSH1 0x20 DUP1 SWAP2 DIV MUL PUSH1 0x20 ADD PUSH1 0x40 MLOAD SWAP1 DUP2 ADD PUSH1 0x40 MSTORE DUP1 SWAP3 SWAP2 SWAP1 DUP2 DUP2 MSTORE PUSH1 0x20 ADD DUP3 DUP1 SLOAD PUSH2 0x5DD SWAP1 PUSH2 0x18C8 JUMP JUMPDEST DUP1 ISZERO PUSH2 0x62A JUMPI DUP1 PUSH1 0x1F LT PUSH2 0x5FF JUMPI PUSH2 0x100 DUP1 DUP4 SLOAD DIV MUL DUP4 MSTORE SWAP2 PUSH1 0x20 ADD SWAP2 PUSH2 0x62A JUMP JUMPDEST DUP3 ADD SWAP2 SWAP1 PUSH1 0x0 MSTORE PUSH1 0x20 PUSH1 0x0 KECCAK256 SWAP1 JUMPDEST DUP2 SLOAD DUP2 MSTORE SWAP1 PUSH1 0x1 ADD SWAP1 PUSH1 0x20 ADD DUP1 DUP4 GT PUSH2 0x60D JUMPI DUP3 SWAP1 SUB PUSH1 0x1F AND DUP3 ADD SWAP2 JUMPDEST POP POP POP POP POP SWAP1 DUP1 PUSH1 0x3 ADD DUP1 SLOAD PUSH2 0x63F SWAP1 PUSH2 0x18C8 JUMP JUMPDEST DUP1 PUSH1 0x1F ADD PUSH1 0x20 DUP1 SWAP2 DIV MUL PUSH1 0x20 ADD PUSH1 0x40 MLOAD SWAP1 DUP2 ADD PUSH1 0x40 MSTORE DUP1 SWAP3 SWAP2 SWAP1 DUP2 DUP2 MSTORE PUSH1 0x20 ADD DUP3 DUP1 SLOAD PUSH2 0x66B SWAP1 PUSH2 0x18C8 JUMP JUMPDEST DUP1 ISZERO PUSH2 0x6B8 JUMPI DUP1 PUSH1 0x1F LT PUSH2 0x68D JUMPI PUSH2 0x100 DUP1 DUP4 SLOAD DIV MUL DUP4 MSTORE SWAP2 PUSH1 0x20 ADD SWAP2 PUSH2 0x6B8 JUMP JUMPDEST DUP3 ADD SWAP2 SWAP1 PUSH1 0x0 MSTORE PUSH1 0x20 PUSH1 0x0 KECCAK256 SWAP1 JUMPDEST DUP2 SLOAD DUP2 MSTORE SWAP1 PUSH1 0x1 ADD SWAP1 PUSH1 0x20 ADD DUP1 DUP4 GT PUSH2 0x69B JUMPI DUP3 SWAP1 SUB PUSH1 0x1F AND DUP3 ADD SWAP2 JUMPDEST POP POP POP POP POP SWAP1 DUP1 PUSH1 0x4 ADD DUP1 SLOAD PUSH2 0x6CD SWAP1 PUSH2 0x18C8 JUMP JUMPDEST DUP1 PUSH1 0x1F ADD PUSH1 0x20 DUP1 SWAP2 DIV MUL PUSH1 0x20 ADD PUSH1 0x40 MLOAD SWAP1 DUP2 ADD PUSH1 0x40 MSTORE DUP1 SWAP3 SWAP2 SWAP1 DUP2 DUP2 MSTORE PUSH1 0x20 ADD DUP3 DUP1 SLOAD PUSH2 0x6F9 SWAP1 PUSH2 0x18C8 JUMP JUMPDEST DUP1 ISZERO PUSH2 0x746 JUMPI DUP1 PUSH1 0x1F LT PUSH2 0x71B JUMPI PUSH2 0x100 DUP1 DUP4 SLOAD DIV MUL DUP4 MSTORE SWAP2 PUSH1 0x20 ADD SWAP2 PUSH2 0x746 JUMP JUMPDEST DUP3 ADD SWAP2 SWAP1 PUSH1 0x0 MSTORE PUSH1 0x20 PUSH1 0x0 KECCAK256 SWAP1 JUMPDEST DUP2 SLOAD DUP2 MSTORE SWAP1 PUSH1 0x1 ADD SWAP1 PUSH1 0x20 ADD DUP1 DUP4 GT PUSH2 0x729 JUMPI DUP3 SWAP1 SUB PUSH1 0x1F AND DUP3 ADD SWAP2 JUMPDEST POP POP POP POP POP SWAP1 DUP1 PUSH1 0x5 ADD SLOAD SWAP1 DUP1 PUSH1 0x6 ADD DUP1 SLOAD PUSH2 0x761 SWAP1 PUSH2 0x18C8 JUMP JUMPDEST DUP1 PUSH1 0x1F ADD PUSH1 0x20 DUP1 SWAP2 DIV MUL PUSH1 0x20 ADD PUSH1 0x40 MLOAD SWAP1 DUP2 ADD PUSH1 0x40 MSTORE DUP1 SWAP3 SWAP2 SWAP1 DUP2 DUP2 MSTORE PUSH1 0x20 ADD DUP3 DUP1 SLOAD PUSH2 0x78D SWAP1 PUSH2 0x18C8 JUMP JUMPDEST DUP1 ISZERO PUSH2 0x7DA JUMPI DUP1 PUSH1 0x1F LT PUSH2 0x7AF JUMPI PUSH2 0x100 DUP1 DUP4 SLOAD DIV MUL DUP4 MSTORE SWAP2 PUSH1 0x20 ADD SWAP2 PUSH2 0x7DA JUMP JUMPDEST DUP3 ADD SWAP2 SWAP1 PUSH1 0x0 MSTORE PUSH1 0x20 PUSH1 0x0 KECCAK256 SWAP1 JUMPDEST DUP2 SLOAD DUP2 MSTORE SWAP1 PUSH1 0x1 ADD SWAP1 PUSH1 0x20 ADD DUP1 DUP4 GT PUSH2 0x7BD JUMPI DUP3 SWAP1 SUB PUSH1 0x1F AND DUP3 ADD SWAP2 JUMPDEST POP POP POP POP POP SWAP1 DUP1 PUSH1 0x7 ADD PUSH1 0x40 MLOAD DUP1 PUSH1 0xA0 ADD PUSH1 0x40 MSTORE SWAP1 DUP2 PUSH1 0x0 DUP3 ADD DUP1 SLOAD PUSH2 0x7FF SWAP1 PUSH2 0x18C8 JUMP JUMPDEST DUP1 PUSH1 0x1F ADD PUSH1 0x20 DUP1 SWAP2 DIV MUL PUSH1 0x20 ADD PUSH1 0x40 MLOAD SWAP1 DUP2 ADD PUSH1 0x40 MSTORE DUP1 SWAP3 SWAP2 SWAP1 DUP2 DUP2 MSTORE PUSH1 0x20 ADD DUP3 DUP1 SLOAD PUSH2 0x82B SWAP1 PUSH2 0x18C8 JUMP JUMPDEST DUP1 ISZERO PUSH2 0x878 JUMPI DUP1 PUSH1 0x1F LT PUSH2 0x84D JUMPI PUSH2 0x100 DUP1 DUP4 SLOAD DIV MUL DUP4 MSTORE SWAP2 PUSH1 0x20 ADD SWAP2 PUSH2 0x878 JUMP JUMPDEST DUP3 ADD SWAP2 SWAP1 PUSH1 0x0 MSTORE PUSH1 0x20 PUSH1 0x0 KECCAK256 SWAP1 JUMPDEST DUP2 SLOAD DUP2 MSTORE SWAP1 PUSH1 0x1 ADD SWAP1 PUSH1 0x20 ADD DUP1 DUP4 GT PUSH2 0x85B JUMPI DUP3 SWAP1 SUB PUSH1 0x1F AND DUP3 ADD SWAP2 JUMPDEST POP POP POP POP POP DUP2 MSTORE PUSH1 0x20 ADD PUSH1 0x1 DUP3 ADD DUP1 SLOAD PUSH2 0x891 SWAP1 PUSH2 0x18C8 JUMP JUMPDEST DUP1 PUSH1 0x1F ADD PUSH1 0x20 DUP1 SWAP2 DIV MUL PUSH1 0x20 ADD PUSH1 0x40 MLOAD SWAP1 DUP2 ADD PUSH1 0x40 MSTORE DUP1 SWAP3 SWAP2 SWAP1 DUP2 DUP2 MSTORE PUSH1 0x20 ADD DUP3 DUP1 SLOAD PUSH2 0x8BD SWAP1 PUSH2 0x18C8 JUMP JUMPDEST DUP1 ISZERO PUSH2 0x90A JUMPI DUP1 PUSH1 0x1F LT PUSH2 0x8DF JUMPI PUSH2 0x100 DUP1 DUP4 SLOAD DIV MUL DUP4 MSTORE SWAP2 PUSH1 0x20 ADD SWAP2 PUSH2 0x90A JUMP JUMPDEST DUP3 ADD SWAP2 SWAP1 PUSH1 0x0 MSTORE PUSH1 0x20 PUSH1 0x0 KECCAK256 SWAP1 JUMPDEST DUP2 SLOAD DUP2 MSTORE SWAP1 PUSH1 0x1 ADD SWAP1 PUSH1 0x20 ADD DUP1 DUP4 GT PUSH2 0x8ED JUMPI DUP3 SWAP1 SUB PUSH1 0x1F AND DUP3 ADD SWAP2 JUMPDEST POP POP POP POP POP DUP2 MSTORE PUSH1 0x20 ADD PUSH1 0x2 DUP3 ADD DUP1 SLOAD PUSH2 0x923 SWAP1 PUSH2 0x18C8 JUMP JUMPDEST DUP1 PUSH1 0x1F ADD PUSH1 0x20 DUP1 SWAP2 DIV MUL PUSH1 0x20 ADD PUSH1 0x40 MLOAD SWAP1 DUP2 ADD PUSH1 0x40 MSTORE DUP1 SWAP3 SWAP2 SWAP1 DUP2 DUP2 MSTORE PUSH1 0x20 ADD DUP3 DUP1 SLOAD PUSH2 0x94F SWAP1 PUSH2 0x18C8 JUMP JUMPDEST DUP1 ISZERO PUSH2 0x99C JUMPI DUP1 PUSH1 0x1F LT PUSH2 0x971 JUMPI PUSH2 0x100 DUP1 DUP4 SLOAD DIV MUL DUP4 MSTORE SWAP2 PUSH1 0x20 ADD SWAP2 PUSH2 0x99C JUMP JUMPDEST DUP3 ADD SWAP2 SWAP1 PUSH1 0x0 MSTORE PUSH1 0x20 PUSH1 0x0 KECCAK256 SWAP1 JUMPDEST DUP2 SLOAD DUP2 MSTORE SWAP1 PUSH1 0x1 ADD SWAP1 PUSH1 0x20 ADD DUP1 DUP4 GT PUSH2 0x97F JUMPI DUP3 SWAP1 SUB PUSH1 0x1F AND DUP3 ADD SWAP2 JUMPDEST POP POP POP POP POP DUP2 MSTORE PUSH1 0x20 ADD PUSH1 0x3 DUP3 ADD DUP1 SLOAD PUSH2 0x9B5 SWAP1 PUSH2 0x18C8 JUMP JUMPDEST DUP1 PUSH1 0x1F ADD PUSH1 0x20 DUP1 SWAP2 DIV MUL PUSH1 0x20 ADD PUSH1 0x40 MLOAD SWAP1 DUP2 ADD PUSH1 0x40 MSTORE DUP1 SWAP3 SWAP2 SWAP1 DUP2 DUP2 MSTORE PUSH1 0x20 ADD DUP3 DUP1 SLOAD PUSH2 0x9E1 SWAP1 PUSH2 0x18C8 JUMP JUMPDEST DUP1 ISZERO PUSH2 0xA2E JUMPI DUP1 PUSH1 0x1F LT PUSH2 0xA03 JUMPI PUSH2 0x100 DUP1 DUP4 SLOAD DIV MUL DUP4 MSTORE SWAP2 PUSH1 0x20 ADD SWAP2 PUSH2 0xA2E JUMP JUMPDEST DUP3 ADD SWAP2 SWAP1 PUSH1 0x0 MSTORE PUSH1 0x20 PUSH1 0x0 KECCAK256 SWAP1 JUMPDEST DUP2 SLOAD DUP2 MSTORE SWAP1 PUSH1 0x1 ADD SWAP1 PUSH1 0x20 ADD DUP1 DUP4 GT PUSH2 0xA11 JUMPI DUP3 SWAP1 SUB PUSH1 0x1F AND DUP3 ADD SWAP2 JUMPDEST POP POP POP POP POP DUP2 MSTORE PUSH1 0x20 ADD PUSH1 0x4 DUP3 ADD DUP1 SLOAD PUSH2 0xA47 SWAP1 PUSH2 0x18C8 JUMP JUMPDEST DUP1 PUSH1 0x1F ADD PUSH1 0x20 DUP1 SWAP2 DIV MUL PUSH1 0x20 ADD PUSH1 0x40 MLOAD SWAP1 DUP2 ADD PUSH1 0x40 MSTORE DUP1 SWAP3 SWAP2 SWAP1 DUP2 DUP2 MSTORE PUSH1 0x20 ADD DUP3 DUP1 SLOAD PUSH2 0xA73 SWAP1 PUSH2 0x18C8 JUMP JUMPDEST DUP1 ISZERO PUSH2 0xAC0 JUMPI DUP1 PUSH1 0x1F LT PUSH2 0xA95 JUMPI PUSH2 0x100 DUP1 DUP4 SLOAD DIV MUL DUP4 MSTORE SWAP2 PUSH1 0x20 ADD SWAP2 PUSH2 0xAC0 JUMP JUMPDEST DUP3 ADD SWAP2 SWAP1 PUSH1 0x0 MSTORE PUSH1 0x20 PUSH1 0x0 KECCAK256 SWAP1 JUMPDEST DUP2 SLOAD DUP2 MSTORE SWAP1 PUSH1 0x1 ADD SWAP1 PUSH1 0x20 ADD DUP1 DUP4 GT PUSH2 0xAA3 JUMPI DUP3 SWAP1 SUB PUSH1 0x1F AND DUP3 ADD SWAP2 JUMPDEST POP POP POP POP POP DUP2 MSTORE POP POP SWAP1 DUP1 PUSH1 0xC ADD PUSH1 0x40 MLOAD DUP1 PUSH1 0x60 ADD PUSH1 0x40 MSTORE SWAP1 DUP2 PUSH1 0x0 DUP3 ADD DUP1 SLOAD DUP1 PUSH1 0x20 MUL PUSH1 0x20 ADD PUSH1 0x40 MLOAD SWAP1 DUP2 ADD PUSH1 0x40 MSTORE DUP1 SWAP3 SWAP2 SWAP1 DUP2 DUP2 MSTORE PUSH1 0x20 ADD PUSH1 0x0 SWAP1 JUMPDEST DUP3 DUP3 LT ISZERO PUSH2 0xBAA JUMPI DUP4 DUP3 SWAP1 PUSH1 0x0 MSTORE PUSH1 0x20 PUSH1 0x0 KECCAK256 ADD DUP1 SLOAD PUSH2 0xB1D SWAP1 PUSH2 0x18C8 JUMP JUMPDEST DUP1 PUSH1 0x1F ADD PUSH1 0x20 DUP1 SWAP2 DIV MUL PUSH1 0x20 ADD PUSH1 0x40 MLOAD SWAP1 DUP2 ADD PUSH1 0x40 MSTORE DUP1 SWAP3 SWAP2 SWAP1 DUP2 DUP2 MSTORE PUSH1 0x20 ADD DUP3 DUP1 SLOAD PUSH2 0xB49 SWAP1 PUSH2 0x18C8 JUMP JUMPDEST DUP1 ISZERO PUSH2 0xB96 JUMPI DUP1 PUSH1 0x1F LT PUSH2 0xB6B JUMPI PUSH2 0x100 DUP1 DUP4 SLOAD DIV MUL DUP4 MSTORE SWAP2 PUSH1 0x20 ADD SWAP2 PUSH2 0xB96 JUMP JUMPDEST DUP3 ADD SWAP2 SWAP1 PUSH1 0x0 MSTORE PUSH1 0x20 PUSH1 0x0 KECCAK256 SWAP1 JUMPDEST DUP2 SLOAD DUP2 MSTORE SWAP1 PUSH1 0x1 ADD SWAP1 PUSH1 0x20 ADD DUP1 DUP4 GT PUSH2 0xB79 JUMPI DUP3 SWAP1 SUB PUSH1 0x1F AND DUP3 ADD SWAP2 JUMPDEST POP POP POP POP POP DUP2 MSTORE PUSH1 0x20 ADD SWAP1 PUSH1 0x1 ADD SWAP1 PUSH2 0xAFE JUMP JUMPDEST POP POP POP POP DUP2 MSTORE PUSH1 0x20 ADD PUSH1 0x1 DUP3 ADD DUP1 SLOAD DUP1 PUSH1 0x20 MUL PUSH1 0x20 ADD PUSH1 0x40 MLOAD SWAP1 DUP2 ADD PUSH1 0x40 MSTORE DUP1 SWAP3 SWAP2 SWAP1 DUP2 DUP2 MSTORE PUSH1 0x20 ADD PUSH1 0x0 SWAP1 JUMPDEST DUP3 DUP3 LT ISZERO PUSH2 0xC83 JUMPI DUP4 DUP3 SWAP1 PUSH1 0x0 MSTORE PUSH1 0x20 PUSH1 0x0 KECCAK256 ADD DUP1 SLOAD PUSH2 0xBF6 SWAP1 PUSH2 0x18C8 JUMP JUMPDEST DUP1 PUSH1 0x1F ADD PUSH1 0x20 DUP1 SWAP2 DIV MUL PUSH1 0x20 ADD PUSH1 0x40 MLOAD SWAP1 DUP2 ADD PUSH1 0x40 MSTORE DUP1 SWAP3 SWAP2 SWAP1 DUP2 DUP2 MSTORE PUSH1 0x20 ADD DUP3 DUP1 SLOAD PUSH2 0xC22 SWAP1 PUSH2 0x18C8 JUMP JUMPDEST DUP1 ISZERO PUSH2 0xC6F JUMPI DUP1 PUSH1 0x1F LT PUSH2 0xC44 JUMPI PUSH2 0x100 DUP1 DUP4 SLOAD DIV MUL DUP4 MSTORE SWAP2 PUSH1 0x20 ADD SWAP2 PUSH2 0xC6F JUMP JUMPDEST DUP3 ADD SWAP2 SWAP1 PUSH1 0x0 MSTORE PUSH1 0x20 PUSH1 0x0 KECCAK256 SWAP1 JUMPDEST DUP2 SLOAD DUP2 MSTORE SWAP1 PUSH1 0x1 ADD SWAP1 PUSH1 0x20 ADD DUP1 DUP4 GT PUSH2 0xC52 JUMPI DUP3 SWAP1 SUB PUSH1 0x1F AND DUP3 ADD SWAP2 JUMPDEST POP POP POP POP POP DUP2 MSTORE PUSH1 0x20 ADD SWAP1 PUSH1 0x1 ADD SWAP1 PUSH2 0xBD7 JUMP JUMPDEST POP POP POP POP DUP2 MSTORE PUSH1 0x20 ADD PUSH1 0x2 DUP3 ADD DUP1 SLOAD DUP1 PUSH1 0x20 MUL PUSH1 0x20 ADD PUSH1 0x40 MLOAD SWAP1 DUP2 ADD PUSH1 0x40 MSTORE DUP1 SWAP3 SWAP2 SWAP1 DUP2 DUP2 MSTORE PUSH1 0x20 ADD PUSH1 0x0 SWAP1 JUMPDEST DUP3 DUP3 LT ISZERO PUSH2 0xD5C JUMPI DUP4 DUP3 SWAP1 PUSH1 0x0 MSTORE PUSH1 0x20 PUSH1 0x0 KECCAK256 ADD DUP1 SLOAD PUSH2 0xCCF SWAP1 PUSH2 0x18C8 JUMP JUMPDEST DUP1 PUSH1 0x1F ADD PUSH1 0x20 DUP1 SWAP2 DIV MUL PUSH1 0x20 ADD PUSH1 0x40 MLOAD SWAP1 DUP2 ADD PUSH1 0x40 MSTORE DUP1 SWAP3 SWAP2 SWAP1 DUP2 DUP2 MSTORE PUSH1 0x20 ADD DUP3 DUP1 SLOAD PUSH2 0xCFB SWAP1 PUSH2 0x18C8 JUMP JUMPDEST DUP1 ISZERO PUSH2 0xD48 JUMPI DUP1 PUSH1 0x1F LT PUSH2 0xD1D JUMPI PUSH2 0x100 DUP1 DUP4 SLOAD DIV MUL DUP4 MSTORE SWAP2 PUSH1 0x20 ADD SWAP2 PUSH2 0xD48 JUMP JUMPDEST DUP3 ADD SWAP2 SWAP1 PUSH1 0x0 MSTORE PUSH1 0x20 PUSH1 0x0 KECCAK256 SWAP1 JUMPDEST DUP2 SLOAD DUP2 MSTORE SWAP1 PUSH1 0x1 ADD SWAP1 PUSH1 0x20 ADD DUP1 DUP4 GT PUSH2 0xD2B JUMPI DUP3 SWAP1 SUB PUSH1 0x1F AND DUP3 ADD SWAP2 JUMPDEST POP POP POP POP POP DUP2 MSTORE PUSH1 0x20 ADD SWAP1 PUSH1 0x1 ADD SWAP1 PUSH2 0xCB0 JUMP JUMPDEST POP POP POP POP DUP2 MSTORE POP POP SWAP1 POP DUP10 JUMP JUMPDEST DUP3 PUSH1 0x0 DUP1 CALLER PUSH20 0xFFFFFFFFFFFFFFFFFFFFFFFFFFFFFFFFFFFFFFFF AND PUSH20 0xFFFFFFFFFFFFFFFFFFFFFFFFFFFFFFFFFFFFFFFF AND DUP2 MSTORE PUSH1 0x20 ADD SWAP1 DUP2 MSTORE PUSH1 0x20 ADD PUSH1 0x0 KECCAK256 PUSH1 0xC ADD PUSH1 0x0 ADD SWAP1 DUP1 MLOAD SWAP1 PUSH1 0x20 ADD SWAP1 PUSH2 0xDC1 SWAP3 SWAP2 SWAP1 PUSH2 0xFC9 JUMP JUMPDEST POP DUP2 PUSH1 0x0 DUP1 CALLER PUSH20 0xFFFFFFFFFFFFFFFFFFFFFFFFFFFFFFFFFFFFFFFF AND PUSH20 0xFFFFFFFFFFFFFFFFFFFFFFFFFFFFFFFFFFFFFFFF AND DUP2 MSTORE PUSH1 0x20 ADD SWAP1 DUP2 MSTORE PUSH1 0x20 ADD PUSH1 0x0 KECCAK256 PUSH1 0xC ADD PUSH1 0x1 ADD SWAP1 DUP1 MLOAD SWAP1 PUSH1 0x20 ADD SWAP1 PUSH2 0xE1A SWAP3 SWAP2 SWAP1 PUSH2 0xFC9 JUMP JUMPDEST POP DUP1 PUSH1 0x0 DUP1 CALLER PUSH20 0xFFFFFFFFFFFFFFFFFFFFFFFFFFFFFFFFFFFFFFFF AND PUSH20 0xFFFFFFFFFFFFFFFFFFFFFFFFFFFFFFFFFFFFFFFF AND DUP2 MSTORE PUSH1 0x20 ADD SWAP1 DUP2 MSTORE PUSH1 0x20 ADD PUSH1 0x0 KECCAK256 PUSH1 0xC ADD PUSH1 0x2 ADD SWAP1 DUP1 MLOAD SWAP1 PUSH1 0x20 ADD SWAP1 PUSH2 0xE73 SWAP3 SWAP2 SWAP1 PUSH2 0xFC9 JUMP JUMPDEST POP POP POP POP JUMP JUMPDEST PUSH1 0x0 DUP1 CALLER PUSH20 0xFFFFFFFFFFFFFFFFFFFFFFFFFFFFFFFFFFFFFFFF AND PUSH20 0xFFFFFFFFFFFFFFFFFFFFFFFFFFFFFFFFFFFFFFFF AND DUP2 MSTORE PUSH1 0x20 ADD SWAP1 DUP2 MSTORE PUSH1 0x20 ADD PUSH1 0x0 KECCAK256 PUSH1 0x0 DUP1 DUP3 ADD PUSH1 0x0 PUSH2 0x100 EXP DUP2 SLOAD SWAP1 PUSH20 0xFFFFFFFFFFFFFFFFFFFFFFFFFFFFFFFFFFFFFFFF MUL NOT AND SWAP1 SSTORE PUSH1 0x1 DUP3 ADD PUSH1 0x0 PUSH2 0xEEF SWAP2 SWAP1 PUSH2 0x10AF JUMP JUMPDEST PUSH1 0x2 DUP3 ADD PUSH1 0x0 PUSH2 0xEFF SWAP2 SWAP1 PUSH2 0x10AF JUMP JUMPDEST PUSH1 0x3 DUP3 ADD PUSH1 0x0 PUSH2 0xF0F SWAP2 SWAP1 PUSH2 0x10AF JUMP JUMPDEST PUSH1 0x4 DUP3 ADD PUSH1 0x0 PUSH2 0xF1F SWAP2 SWAP1 PUSH2 0x10AF JUMP JUMPDEST PUSH1 0x5 DUP3 ADD PUSH1 0x0 SWAP1 SSTORE PUSH1 0x6 DUP3 ADD PUSH1 0x0 PUSH2 0xF37 SWAP2 SWAP1 PUSH2 0x10AF JUMP JUMPDEST PUSH1 0x7 DUP3 ADD PUSH1 0x0 DUP1 DUP3 ADD PUSH1 0x0 PUSH2 0xF4C SWAP2 SWAP1 PUSH2 0x10AF JUMP JUMPDEST PUSH1 0x1 DUP3 ADD PUSH1 0x0 PUSH2 0xF5C SWAP2 SWAP1 PUSH2 0x10AF JUMP JUMPDEST PUSH1 0x2 DUP3 ADD PUSH1 0x0 PUSH2 0xF6C SWAP2 SWAP1 PUSH2 0x10AF JUMP JUMPDEST PUSH1 0x3 DUP3 ADD PUSH1 0x0 PUSH2 0xF7C SWAP2 SWAP1 PUSH2 0x10AF JUMP JUMPDEST PUSH1 0x4 DUP3 ADD PUSH1 0x0 PUSH2 0xF8C SWAP2 SWAP1 PUSH2 0x10AF JUMP JUMPDEST POP POP PUSH1 0xC DUP3 ADD PUSH1 0x0 DUP1 DUP3 ADD PUSH1 0x0 PUSH2 0xFA3 SWAP2 SWAP1 PUSH2 0x10EF JUMP JUMPDEST PUSH1 0x1 DUP3 ADD PUSH1 0x0 PUSH2 0xFB3 SWAP2 SWAP1 PUSH2 0x10EF JUMP JUMPDEST PUSH1 0x2 DUP3 ADD PUSH1 0x0 PUSH2 0xFC3 SWAP2 SWAP1 PUSH2 0x10EF JUMP JUMPDEST POP POP POP POP JUMP JUMPDEST DUP3 DUP1 SLOAD DUP3 DUP3 SSTORE SWAP1 PUSH1 0x0 MSTORE PUSH1 0x20 PUSH1 0x0 KECCAK256 SWAP1 DUP2 ADD SWAP3 DUP3 ISZERO PUSH2 0x1018 JUMPI SWAP2 PUSH1 0x20 MUL DUP3 ADD JUMPDEST DUP3 DUP2 GT ISZERO PUSH2 0x1017 JUMPI DUP3 MLOAD DUP3 SWAP1 DUP1 MLOAD SWAP1 PUSH1 0x20 ADD SWAP1 PUSH2 0x1007 SWAP3 SWAP2 SWAP1 PUSH2 0x1029 JUMP JUMPDEST POP SWAP2 PUSH1 0x20 ADD SWAP2 SWAP1 PUSH1 0x1 ADD SWAP1 PUSH2 0xFE9 JUMP JUMPDEST JUMPDEST POP SWAP1 POP PUSH2 0x1025 SWAP2 SWAP1 PUSH2 0x1110 JUMP JUMPDEST POP SWAP1 JUMP JUMPDEST DUP3 DUP1 SLOAD PUSH2 0x1035 SWAP1 PUSH2 0x18C8 JUMP JUMPDEST SWAP1 PUSH1 0x0 MSTORE PUSH1 0x20 PUSH1 0x0 KECCAK256 SWAP1 PUSH1 0x1F ADD PUSH1 0x20 SWAP1 DIV DUP2 ADD SWAP3 DUP3 PUSH2 0x1057 JUMPI PUSH1 0x0 DUP6 SSTORE PUSH2 0x109E JUMP JUMPDEST DUP3 PUSH1 0x1F LT PUSH2 0x1070 JUMPI DUP1 MLOAD PUSH1 0xFF NOT AND DUP4 DUP1 ADD OR DUP6 SSTORE PUSH2 0x109E JUMP JUMPDEST DUP3 DUP1 ADD PUSH1 0x1 ADD DUP6 SSTORE DUP3 ISZERO PUSH2 0x109E JUMPI SWAP2 DUP3 ADD JUMPDEST DUP3 DUP2 GT ISZERO PUSH2 0x109D JUMPI DUP3 MLOAD DUP3 SSTORE SWAP2 PUSH1 0x20 ADD SWAP2 SWAP1 PUSH1 0x1 ADD SWAP1 PUSH2 0x1082 JUMP JUMPDEST JUMPDEST POP SWAP1 POP PUSH2 0x10AB SWAP2 SWAP1 PUSH2 0x1134 JUMP JUMPDEST POP SWAP1 JUMP JUMPDEST POP DUP1 SLOAD PUSH2 0x10BB SWAP1 PUSH2 0x18C8 JUMP JUMPDEST PUSH1 0x0 DUP3 SSTORE DUP1 PUSH1 0x1F LT PUSH2 0x10CD JUMPI POP PUSH2 0x10EC JUMP JUMPDEST PUSH1 0x1F ADD PUSH1 0x20 SWAP1 DIV SWAP1 PUSH1 0x0 MSTORE PUSH1 0x20 PUSH1 0x0 KECCAK256 SWAP1 DUP2 ADD SWAP1 PUSH2 0x10EB SWAP2 SWAP1 PUSH2 0x1134 JUMP JUMPDEST JUMPDEST POP JUMP JUMPDEST POP DUP1 SLOAD PUSH1 0x0 DUP3 SSTORE SWAP1 PUSH1 0x0 MSTORE PUSH1 0x20 PUSH1 0x0 KECCAK256 SWAP1 DUP2 ADD SWAP1 PUSH2 0x110D SWAP2 SWAP1 PUSH2 0x1110 JUMP JUMPDEST POP JUMP JUMPDEST JUMPDEST DUP1 DUP3 GT ISZERO PUSH2 0x1130 JUMPI PUSH1 0x0 DUP2 DUP2 PUSH2 0x1127 SWAP2 SWAP1 PUSH2 0x10AF JUMP JUMPDEST POP PUSH1 0x1 ADD PUSH2 0x1111 JUMP JUMPDEST POP SWAP1 JUMP JUMPDEST JUMPDEST DUP1 DUP3 GT ISZERO PUSH2 0x114D JUMPI PUSH1 0x0 DUP2 PUSH1 0x0 SWAP1 SSTORE POP PUSH1 0x1 ADD PUSH2 0x1135 JUMP JUMPDEST POP SWAP1 JUMP JUMPDEST PUSH1 0x0 PUSH2 0x1164 PUSH2 0x115F DUP5 PUSH2 0x1787 JUMP JUMPDEST PUSH2 0x1762 JUMP JUMPDEST SWAP1 POP DUP1 DUP4 DUP3 MSTORE PUSH1 0x20 DUP3 ADD SWAP1 POP DUP3 DUP6 PUSH1 0x20 DUP7 MUL DUP3 ADD GT ISZERO PUSH2 0x1187 JUMPI PUSH2 0x1186 PUSH2 0x198E JUMP JUMPDEST JUMPDEST PUSH1 0x0 JUMPDEST DUP6 DUP2 LT ISZERO PUSH2 0x11D5 JUMPI DUP2 CALLDATALOAD PUSH8 0xFFFFFFFFFFFFFFFF DUP2 GT ISZERO PUSH2 0x11AD JUMPI PUSH2 0x11AC PUSH2 0x1989 JUMP JUMPDEST JUMPDEST DUP1 DUP7 ADD PUSH2 0x11BA DUP10 DUP3 PUSH2 0x1264 JUMP JUMPDEST DUP6 MSTORE PUSH1 0x20 DUP6 ADD SWAP5 POP PUSH1 0x20 DUP5 ADD SWAP4 POP POP POP PUSH1 0x1 DUP2 ADD SWAP1 POP PUSH2 0x118A JUMP JUMPDEST POP POP POP SWAP4 SWAP3 POP POP POP JUMP JUMPDEST PUSH1 0x0 PUSH2 0x11F2 PUSH2 0x11ED DUP5 PUSH2 0x17B3 JUMP JUMPDEST PUSH2 0x1762 JUMP JUMPDEST SWAP1 POP DUP3 DUP2 MSTORE PUSH1 0x20 DUP2 ADD DUP5 DUP5 DUP5 ADD GT ISZERO PUSH2 0x120E JUMPI PUSH2 0x120D PUSH2 0x1993 JUMP JUMPDEST JUMPDEST PUSH2 0x1219 DUP5 DUP3 DUP6 PUSH2 0x1886 JUMP JUMPDEST POP SWAP4 SWAP3 POP POP POP JUMP JUMPDEST PUSH1 0x0 DUP2 CALLDATALOAD SWAP1 POP PUSH2 0x1230 DUP2 PUSH2 0x19B3 JUMP JUMPDEST SWAP3 SWAP2 POP POP JUMP JUMPDEST PUSH1 0x0 DUP3 PUSH1 0x1F DUP4 ADD SLT PUSH2 0x124B JUMPI PUSH2 0x124A PUSH2 0x1989 JUMP JUMPDEST JUMPDEST DUP2 CALLDATALOAD PUSH2 0x125B DUP5 DUP3 PUSH1 0x20 DUP7 ADD PUSH2 0x1151 JUMP JUMPDEST SWAP2 POP POP SWAP3 SWAP2 POP POP JUMP JUMPDEST PUSH1 0x0 DUP3 PUSH1 0x1F DUP4 ADD SLT PUSH2 0x1279 JUMPI PUSH2 0x1278 PUSH2 0x1989 JUMP JUMPDEST JUMPDEST DUP2 CALLDATALOAD PUSH2 0x1289 DUP5 DUP3 PUSH1 0x20 DUP7 ADD PUSH2 0x11DF JUMP JUMPDEST SWAP2 POP POP SWAP3 SWAP2 POP POP JUMP JUMPDEST PUSH1 0x0 PUSH1 0x20 DUP3 DUP5 SUB SLT ISZERO PUSH2 0x12A8 JUMPI PUSH2 0x12A7 PUSH2 0x199D JUMP JUMPDEST JUMPDEST PUSH1 0x0 PUSH2 0x12B6 DUP5 DUP3 DUP6 ADD PUSH2 0x1221 JUMP JUMPDEST SWAP2 POP POP SWAP3 SWAP2 POP POP JUMP JUMPDEST PUSH1 0x0 DUP1 PUSH1 0x0 PUSH1 0x60 DUP5 DUP7 SUB SLT ISZERO PUSH2 0x12D8 JUMPI PUSH2 0x12D7 PUSH2 0x199D JUMP JUMPDEST JUMPDEST PUSH1 0x0 DUP5 ADD CALLDATALOAD PUSH8 0xFFFFFFFFFFFFFFFF DUP2 GT ISZERO PUSH2 0x12F6 JUMPI PUSH2 0x12F5 PUSH2 0x1998 JUMP JUMPDEST JUMPDEST PUSH2 0x1302 DUP7 DUP3 DUP8 ADD PUSH2 0x1236 JUMP JUMPDEST SWAP4 POP POP PUSH1 0x20 DUP5 ADD CALLDATALOAD PUSH8 0xFFFFFFFFFFFFFFFF DUP2 GT ISZERO PUSH2 0x1323 JUMPI PUSH2 0x1322 PUSH2 0x1998 JUMP JUMPDEST JUMPDEST PUSH2 0x132F DUP7 DUP3 DUP8 ADD PUSH2 0x1236 JUMP JUMPDEST SWAP3 POP POP PUSH1 0x40 DUP5 ADD CALLDATALOAD PUSH8 0xFFFFFFFFFFFFFFFF DUP2 GT ISZERO PUSH2 0x1350 JUMPI PUSH2 0x134F PUSH2 0x1998 JUMP JUMPDEST JUMPDEST PUSH2 0x135C DUP7 DUP3 DUP8 ADD PUSH2 0x1236 JUMP JUMPDEST SWAP2 POP POP SWAP3 POP SWAP3 POP SWAP3 JUMP JUMPDEST PUSH1 0x0 DUP1 PUSH1 0x0 DUP1 PUSH1 0x0 DUP1 PUSH1 0xC0 DUP8 DUP10 SUB SLT ISZERO PUSH2 0x1383 JUMPI PUSH2 0x1382 PUSH2 0x199D JUMP JUMPDEST JUMPDEST PUSH1 0x0 DUP8 ADD CALLDATALOAD PUSH8 0xFFFFFFFFFFFFFFFF DUP2 GT ISZERO PUSH2 0x13A1 JUMPI PUSH2 0x13A0 PUSH2 0x1998 JUMP JUMPDEST JUMPDEST PUSH2 0x13AD DUP10 DUP3 DUP11 ADD PUSH2 0x1264 JUMP JUMPDEST SWAP7 POP POP PUSH1 0x20 DUP8 ADD CALLDATALOAD PUSH8 0xFFFFFFFFFFFFFFFF DUP2 GT ISZERO PUSH2 0x13CE JUMPI PUSH2 0x13CD PUSH2 0x1998 JUMP JUMPDEST JUMPDEST PUSH2 0x13DA DUP10 DUP3 DUP11 ADD PUSH2 0x1264 JUMP JUMPDEST SWAP6 POP POP PUSH1 0x40 DUP8 ADD CALLDATALOAD PUSH8 0xFFFFFFFFFFFFFFFF DUP2 GT ISZERO PUSH2 0x13FB JUMPI PUSH2 0x13FA PUSH2 0x1998 JUMP JUMPDEST JUMPDEST PUSH2 0x1407 DUP10 DUP3 DUP11 ADD PUSH2 0x1264 JUMP JUMPDEST SWAP5 POP POP PUSH1 0x60 DUP8 ADD CALLDATALOAD PUSH8 0xFFFFFFFFFFFFFFFF DUP2 GT ISZERO PUSH2 0x1428 JUMPI PUSH2 0x1427 PUSH2 0x1998 JUMP JUMPDEST JUMPDEST PUSH2 0x1434 DUP10 DUP3 DUP11 ADD PUSH2 0x1264 JUMP JUMPDEST SWAP4 POP POP PUSH1 0x80 DUP8 ADD CALLDATALOAD PUSH8 0xFFFFFFFFFFFFFFFF DUP2 GT ISZERO PUSH2 0x1455 JUMPI PUSH2 0x1454 PUSH2 0x1998 JUMP JUMPDEST JUMPDEST PUSH2 0x1461 DUP10 DUP3 DUP11 ADD PUSH2 0x1264 JUMP JUMPDEST SWAP3 POP POP PUSH1 0xA0 DUP8 ADD CALLDATALOAD PUSH8 0xFFFFFFFFFFFFFFFF DUP2 GT ISZERO PUSH2 0x1482 JUMPI PUSH2 0x1481 PUSH2 0x1998 JUMP JUMPDEST JUMPDEST PUSH2 0x148E DUP10 DUP3 DUP11 ADD PUSH2 0x1264 JUMP JUMPDEST SWAP2 POP POP SWAP3 SWAP6 POP SWAP3 SWAP6 POP SWAP3 SWAP6 JUMP JUMPDEST PUSH1 0x0 PUSH2 0x14A7 DUP4 DUP4 PUSH2 0x1533 JUMP JUMPDEST SWAP1 POP SWAP3 SWAP2 POP POP JUMP JUMPDEST PUSH2 0x14B8 DUP2 PUSH2 0x184A JUMP JUMPDEST DUP3 MSTORE POP POP JUMP JUMPDEST PUSH1 0x0 PUSH2 0x14C9 DUP3 PUSH2 0x17F4 JUMP JUMPDEST PUSH2 0x14D3 DUP2 DUP6 PUSH2 0x1817 JUMP JUMPDEST SWAP4 POP DUP4 PUSH1 0x20 DUP3 MUL DUP6 ADD PUSH2 0x14E5 DUP6 PUSH2 0x17E4 JUMP JUMPDEST DUP1 PUSH1 0x0 JUMPDEST DUP6 DUP2 LT ISZERO PUSH2 0x1521 JUMPI DUP5 DUP5 SUB DUP10 MSTORE DUP2 MLOAD PUSH2 0x1502 DUP6 DUP3 PUSH2 0x149B JUMP JUMPDEST SWAP5 POP PUSH2 0x150D DUP4 PUSH2 0x180A JUMP JUMPDEST SWAP3 POP PUSH1 0x20 DUP11 ADD SWAP10 POP POP PUSH1 0x1 DUP2 ADD SWAP1 POP PUSH2 0x14E9 JUMP JUMPDEST POP DUP3 SWAP8 POP DUP8 SWAP6 POP POP POP POP POP POP SWAP3 SWAP2 POP POP JUMP JUMPDEST PUSH1 0x0 PUSH2 0x153E DUP3 PUSH2 0x17FF JUMP JUMPDEST PUSH2 0x1548 DUP2 DUP6 PUSH2 0x1828 JUMP JUMPDEST SWAP4 POP PUSH2 0x1558 DUP2 DUP6 PUSH1 0x20 DUP7 ADD PUSH2 0x1895 JUMP JUMPDEST PUSH2 0x1561 DUP2 PUSH2 0x19A2 JUMP JUMPDEST DUP5 ADD SWAP2 POP POP SWAP3 SWAP2 POP POP JUMP JUMPDEST PUSH1 0x0 PUSH2 0x1577 DUP3 PUSH2 0x17FF JUMP JUMPDEST PUSH2 0x1581 DUP2 DUP6 PUSH2 0x1839 JUMP JUMPDEST SWAP4 POP PUSH2 0x1591 DUP2 DUP6 PUSH1 0x20 DUP7 ADD PUSH2 0x1895 JUMP JUMPDEST PUSH2 0x159A DUP2 PUSH2 0x19A2 JUMP JUMPDEST DUP5 ADD SWAP2 POP POP SWAP3 SWAP2 POP POP JUMP JUMPDEST PUSH1 0x0 PUSH1 0xA0 DUP4 ADD PUSH1 0x0 DUP4 ADD MLOAD DUP5 DUP3 SUB PUSH1 0x0 DUP7 ADD MSTORE PUSH2 0x15C2 DUP3 DUP3 PUSH2 0x1533 JUMP JUMPDEST SWAP2 POP POP PUSH1 0x20 DUP4 ADD MLOAD DUP5 DUP3 SUB PUSH1 0x20 DUP7 ADD MSTORE PUSH2 0x15DC DUP3 DUP3 PUSH2 0x1533 JUMP JUMPDEST SWAP2 POP POP PUSH1 0x40 DUP4 ADD MLOAD DUP5 DUP3 SUB PUSH1 0x40 DUP7 ADD MSTORE PUSH2 0x15F6 DUP3 DUP3 PUSH2 0x1533 JUMP JUMPDEST SWAP2 POP POP PUSH1 0x60 DUP4 ADD MLOAD DUP5 DUP3 SUB PUSH1 0x60 DUP7 ADD MSTORE PUSH2 0x1610 DUP3 DUP3 PUSH2 0x1533 JUMP JUMPDEST SWAP2 POP POP PUSH1 0x80 DUP4 ADD MLOAD DUP5 DUP3 SUB PUSH1 0x80 DUP7 ADD MSTORE PUSH2 0x162A DUP3 DUP3 PUSH2 0x1533 JUMP JUMPDEST SWAP2 POP POP DUP1 SWAP2 POP POP SWAP3 SWAP2 POP POP JUMP JUMPDEST PUSH1 0x0 PUSH1 0x60 DUP4 ADD PUSH1 0x0 DUP4 ADD MLOAD DUP5 DUP3 SUB PUSH1 0x0 DUP7 ADD MSTORE PUSH2 0x1654 DUP3 DUP3 PUSH2 0x14BE JUMP JUMPDEST SWAP2 POP POP PUSH1 0x20 DUP4 ADD MLOAD DUP5 DUP3 SUB PUSH1 0x20 DUP7 ADD MSTORE PUSH2 0x166E DUP3 DUP3 PUSH2 0x14BE JUMP JUMPDEST SWAP2 POP POP PUSH1 0x40 DUP4 ADD MLOAD DUP5 DUP3 SUB PUSH1 0x40 DUP7 ADD MSTORE PUSH2 0x1688 DUP3 DUP3 PUSH2 0x14BE JUMP JUMPDEST SWAP2 POP POP DUP1 SWAP2 POP POP SWAP3 SWAP2 POP POP JUMP JUMPDEST PUSH2 0x169E DUP2 PUSH2 0x187C JUMP JUMPDEST DUP3 MSTORE POP POP JUMP JUMPDEST PUSH1 0x0 PUSH2 0x120 DUP3 ADD SWAP1 POP PUSH2 0x16BA PUSH1 0x0 DUP4 ADD DUP13 PUSH2 0x14AF JUMP JUMPDEST DUP2 DUP2 SUB PUSH1 0x20 DUP4 ADD MSTORE PUSH2 0x16CC DUP2 DUP12 PUSH2 0x156C JUMP JUMPDEST SWAP1 POP DUP2 DUP2 SUB PUSH1 0x40 DUP4 ADD MSTORE PUSH2 0x16E0 DUP2 DUP11 PUSH2 0x156C JUMP JUMPDEST SWAP1 POP DUP2 DUP2 SUB PUSH1 0x60 DUP4 ADD MSTORE PUSH2 0x16F4 DUP2 DUP10 PUSH2 0x156C JUMP JUMPDEST SWAP1 POP DUP2 DUP2 SUB PUSH1 0x80 DUP4 ADD MSTORE PUSH2 0x1708 DUP2 DUP9 PUSH2 0x156C JUMP JUMPDEST SWAP1 POP PUSH2 0x1717 PUSH1 0xA0 DUP4 ADD DUP8 PUSH2 0x1695 JUMP JUMPDEST DUP2 DUP2 SUB PUSH1 0xC0 DUP4 ADD MSTORE PUSH2 0x1729 DUP2 DUP7 PUSH2 0x156C JUMP JUMPDEST SWAP1 POP DUP2 DUP2 SUB PUSH1 0xE0 DUP4 ADD MSTORE PUSH2 0x173D DUP2 DUP6 PUSH2 0x15A5 JUMP JUMPDEST SWAP1 POP DUP2 DUP2 SUB PUSH2 0x100 DUP4 ADD MSTORE PUSH2 0x1752 DUP2 DUP5 PUSH2 0x1637 JUMP JUMPDEST SWAP1 POP SWAP11 SWAP10 POP POP POP POP POP POP POP POP POP POP JUMP JUMPDEST PUSH1 0x0 PUSH2 0x176C PUSH2 0x177D JUMP JUMPDEST SWAP1 POP PUSH2 0x1778 DUP3 DUP3 PUSH2 0x18FA JUMP JUMPDEST SWAP2 SWAP1 POP JUMP JUMPDEST PUSH1 0x0 PUSH1 0x40 MLOAD SWAP1 POP SWAP1 JUMP JUMPDEST PUSH1 0x0 PUSH8 0xFFFFFFFFFFFFFFFF DUP3 GT ISZERO PUSH2 0x17A2 JUMPI PUSH2 0x17A1 PUSH2 0x195A JUMP JUMPDEST JUMPDEST PUSH1 0x20 DUP3 MUL SWAP1 POP PUSH1 0x20 DUP2 ADD SWAP1 POP SWAP2 SWAP1 POP JUMP JUMPDEST PUSH1 0x0 PUSH8 0xFFFFFFFFFFFFFFFF DUP3 GT ISZERO PUSH2 0x17CE JUMPI PUSH2 0x17CD PUSH2 0x195A JUMP JUMPDEST JUMPDEST PUSH2 0x17D7 DUP3 PUSH2 0x19A2 JUMP JUMPDEST SWAP1 POP PUSH1 0x20 DUP2 ADD SWAP1 POP SWAP2 SWAP1 POP JUMP JUMPDEST PUSH1 0x0 DUP2 SWAP1 POP PUSH1 0x20 DUP3 ADD SWAP1 POP SWAP2 SWAP1 POP JUMP JUMPDEST PUSH1 0x0 DUP2 MLOAD SWAP1 POP SWAP2 SWAP1 POP JUMP JUMPDEST PUSH1 0x0 DUP2 MLOAD SWAP1 POP SWAP2 SWAP1 POP JUMP JUMPDEST PUSH1 0x0 PUSH1 0x20 DUP3 ADD SWAP1 POP SWAP2 SWAP1 POP JUMP JUMPDEST PUSH1 0x0 DUP3 DUP3 MSTORE PUSH1 0x20 DUP3 ADD SWAP1 POP SWAP3 SWAP2 POP POP JUMP JUMPDEST PUSH1 0x0 DUP3 DUP3 MSTORE PUSH1 0x20 DUP3 ADD SWAP1 POP SWAP3 SWAP2 POP POP JUMP JUMPDEST PUSH1 0x0 DUP3 DUP3 MSTORE PUSH1 0x20 DUP3 ADD SWAP1 POP SWAP3 SWAP2 POP POP JUMP JUMPDEST PUSH1 0x0 PUSH2 0x1855 DUP3 PUSH2 0x185C JUMP JUMPDEST SWAP1 POP SWAP2 SWAP1 POP JUMP JUMPDEST PUSH1 0x0 PUSH20 0xFFFFFFFFFFFFFFFFFFFFFFFFFFFFFFFFFFFFFFFF DUP3 AND SWAP1 POP SWAP2 SWAP1 POP JUMP JUMPDEST PUSH1 0x0 DUP2 SWAP1 POP SWAP2 SWAP1 POP JUMP JUMPDEST DUP3 DUP2 DUP4 CALLDATACOPY PUSH1 0x0 DUP4 DUP4 ADD MSTORE POP POP POP JUMP JUMPDEST PUSH1 0x0 JUMPDEST DUP4 DUP2 LT ISZERO PUSH2 0x18B3 JUMPI DUP1 DUP3 ADD MLOAD DUP2 DUP5 ADD MSTORE PUSH1 0x20 DUP2 ADD SWAP1 POP PUSH2 0x1898 JUMP JUMPDEST DUP4 DUP2 GT ISZERO PUSH2 0x18C2 JUMPI PUSH1 0x0 DUP5 DUP5 ADD MSTORE JUMPDEST POP POP POP POP JUMP JUMPDEST PUSH1 0x0 PUSH1 0x2 DUP3 DIV SWAP1 POP PUSH1 0x1 DUP3 AND DUP1 PUSH2 0x18E0 JUMPI PUSH1 0x7F DUP3 AND SWAP2 POP JUMPDEST PUSH1 0x20 DUP3 LT DUP2 EQ ISZERO PUSH2 0x18F4 JUMPI PUSH2 0x18F3 PUSH2 0x192B JUMP JUMPDEST JUMPDEST POP SWAP2 SWAP1 POP JUMP JUMPDEST PUSH2 0x1903 DUP3 PUSH2 0x19A2 JUMP JUMPDEST DUP2 ADD DUP2 DUP2 LT PUSH8 0xFFFFFFFFFFFFFFFF DUP3 GT OR ISZERO PUSH2 0x1922 JUMPI PUSH2 0x1921 PUSH2 0x195A JUMP JUMPDEST JUMPDEST DUP1 PUSH1 0x40 MSTORE POP POP POP JUMP JUMPDEST PUSH32 0x4E487B7100000000000000000000000000000000000000000000000000000000 PUSH1 0x0 MSTORE PUSH1 0x22 PUSH1 0x4 MSTORE PUSH1 0x24 PUSH1 0x0 REVERT JUMPDEST PUSH32 0x4E487B7100000000000000000000000000000000000000000000000000000000 PUSH1 0x0 MSTORE PUSH1 0x41 PUSH1 0x4 MSTORE PUSH1 0x24 PUSH1 0x0 REVERT JUMPDEST PUSH1 0x0 DUP1 REVERT JUMPDEST PUSH1 0x0 DUP1 REVERT JUMPDEST PUSH1 0x0 DUP1 REVERT JUMPDEST PUSH1 0x0 DUP1 REVERT JUMPDEST PUSH1 0x0 DUP1 REVERT JUMPDEST PUSH1 0x0 PUSH1 0x1F NOT PUSH1 0x1F DUP4 ADD AND SWAP1 POP SWAP2 SWAP1 POP JUMP JUMPDEST PUSH2 0x19BC DUP2 PUSH2 0x184A JUMP JUMPDEST DUP2 EQ PUSH2 0x19C7 JUMPI PUSH1 0x0 DUP1 REVERT JUMPDEST POP JUMP INVALID LOG2 PUSH5 0x6970667358 0x22 SLT KECCAK256 SWAP4 0xD3 SWAP14 0x4B MSTORE8 0xD7 DUP16 0x5F 0xDE CALLDATALOAD 0xB2 PUSH14 0x670613DC79F3E7DD09BB1B25B825 DUP12 0xB8 SWAP5 SWAP11 NOT SWAP15 PUSH5 0x736F6C6343 STOP ADDMOD SMOD STOP CALLER "
				},
				"gasEstimates": {
					"creation": {
						"codeDepositCost": "1331200",
						"executionCost": "1383",
						"totalCost": "1332583"
					},
					"external": {
						"addBio(string,string,string,string,string,string)": "infinite",
						"addContract(string[],string[],string[])": "infinite",
						"addSkill(string[],string[],string[])": "infinite",
						"delProfile()": "infinite",
						"profile(address)": "infinite"
					}
				},
				"methodIdentifiers": {
					"addBio(string,string,string,string,string,string)": "721041af",
					"addContract(string[],string[],string[])": "4aafdfe3",
					"addSkill(string[],string[],string[])": "d52246d7",
					"delProfile()": "fabce08f",
					"profile(address)": "9dd9d0fd"
				}
			},
			"storageLayout": {
				"storage": [
					{
						"astId": 27,
						"contract": "contracts/Profile.sol:Profile",
						"label": "profile",
						"offset": 0,
						"slot": "0",
						"type": "t_mapping(t_address,t_struct(Bio)22_storage)"
					}
				],
				"types": {
					"t_address": {
						"encoding": "inplace",
						"label": "address",
						"numberOfBytes": "20"
					},
					"t_array(t_string_storage)dyn_storage": {
						"base": "t_string_storage",
						"encoding": "dynamic_array",
						"label": "string[]",
						"numberOfBytes": "32"
					},
					"t_mapping(t_address,t_struct(Bio)22_storage)": {
						"encoding": "mapping",
						"key": "t_address",
						"label": "mapping(address => struct Profile.Bio)",
						"numberOfBytes": "32",
						"value": "t_struct(Bio)22_storage"
					},
					"t_string_storage": {
						"encoding": "bytes",
						"label": "string",
						"numberOfBytes": "32"
					},
					"t_struct(Bio)22_storage": {
						"encoding": "inplace",
						"label": "struct Profile.Bio",
						"members": [
							{
								"astId": 3,
								"contract": "contracts/Profile.sol:Profile",
								"label": "userAddress",
								"offset": 0,
								"slot": "0",
								"type": "t_address"
							},
							{
								"astId": 5,
								"contract": "contracts/Profile.sol:Profile",
								"label": "firstName",
								"offset": 0,
								"slot": "1",
								"type": "t_string_storage"
							},
							{
								"astId": 7,
								"contract": "contracts/Profile.sol:Profile",
								"label": "middleName",
								"offset": 0,
								"slot": "2",
								"type": "t_string_storage"
							},
							{
								"astId": 9,
								"contract": "contracts/Profile.sol:Profile",
								"label": "lastName",
								"offset": 0,
								"slot": "3",
								"type": "t_string_storage"
							},
							{
								"astId": 11,
								"contract": "contracts/Profile.sol:Profile",
								"label": "profileImage",
								"offset": 0,
								"slot": "4",
								"type": "t_string_storage"
							},
							{
								"astId": 13,
								"contract": "contracts/Profile.sol:Profile",
								"label": "createDate",
								"offset": 0,
								"slot": "5",
								"type": "t_uint256"
							},
							{
								"astId": 15,
								"contract": "contracts/Profile.sol:Profile",
								"label": "education",
								"offset": 0,
								"slot": "6",
								"type": "t_string_storage"
							},
							{
								"astId": 18,
								"contract": "contracts/Profile.sol:Profile",
								"label": "privateContract",
								"offset": 0,
								"slot": "7",
								"type": "t_struct(Contract)38_storage"
							},
							{
								"astId": 21,
								"contract": "contracts/Profile.sol:Profile",
								"label": "skill",
								"offset": 0,
								"slot": "12",
								"type": "t_struct(Skill)48_storage"
							}
						],
						"numberOfBytes": "480"
					},
					"t_struct(Contract)38_storage": {
						"encoding": "inplace",
						"label": "struct Profile.Contract",
						"members": [
							{
								"astId": 29,
								"contract": "contracts/Profile.sol:Profile",
								"label": "email",
								"offset": 0,
								"slot": "0",
								"type": "t_string_storage"
							},
							{
								"astId": 31,
								"contract": "contracts/Profile.sol:Profile",
								"label": "phone",
								"offset": 0,
								"slot": "1",
								"type": "t_string_storage"
							},
							{
								"astId": 33,
								"contract": "contracts/Profile.sol:Profile",
								"label": "github",
								"offset": 0,
								"slot": "2",
								"type": "t_string_storage"
							},
							{
								"astId": 35,
								"contract": "contracts/Profile.sol:Profile",
								"label": "gitlab",
								"offset": 0,
								"slot": "3",
								"type": "t_string_storage"
							},
							{
								"astId": 37,
								"contract": "contracts/Profile.sol:Profile",
								"label": "linkin",
								"offset": 0,
								"slot": "4",
								"type": "t_string_storage"
							}
						],
						"numberOfBytes": "160"
					},
					"t_struct(Skill)48_storage": {
						"encoding": "inplace",
						"label": "struct Profile.Skill",
						"members": [
							{
								"astId": 41,
								"contract": "contracts/Profile.sol:Profile",
								"label": "frontend",
								"offset": 0,
								"slot": "0",
								"type": "t_array(t_string_storage)dyn_storage"
							},
							{
								"astId": 44,
								"contract": "contracts/Profile.sol:Profile",
								"label": "backend",
								"offset": 0,
								"slot": "1",
								"type": "t_array(t_string_storage)dyn_storage"
							},
							{
								"astId": 47,
								"contract": "contracts/Profile.sol:Profile",
								"label": "framework",
								"offset": 0,
								"slot": "2",
								"type": "t_array(t_string_storage)dyn_storage"
							}
						],
						"numberOfBytes": "96"
					},
					"t_uint256": {
						"encoding": "inplace",
						"label": "uint256",
						"numberOfBytes": "32"
					}
				}
			},
			"userdoc": {
				"kind": "user",
				"methods": {},
				"version": 1
			}
		}
	}
}