{
	"contracts/Profile.sol": {
		"Profile": {
			"abi": [
				{
					"inputs": [
						{
							"internalType": "string[]",
							"name": "award",
							"type": "string[]"
						},
						{
							"internalType": "string[]",
							"name": "certificate",
							"type": "string[]"
						}
					],
					"name": "createAward",
					"outputs": [],
					"stateMutability": "nonpayable",
					"type": "function"
				},
				{
					"inputs": [
						{
							"internalType": "string",
							"name": "email",
							"type": "string"
						},
						{
							"internalType": "string",
							"name": "phone",
							"type": "string"
						},
						{
							"internalType": "string",
							"name": "github",
							"type": "string"
						},
						{
							"internalType": "string",
							"name": "gitlab",
							"type": "string"
						},
						{
							"internalType": "string",
							"name": "linkin",
							"type": "string"
						}
					],
					"name": "createContract",
					"outputs": [],
					"stateMutability": "nonpayable",
					"type": "function"
				},
				{
					"inputs": [
						{
							"internalType": "string[]",
							"name": "award",
							"type": "string[]"
						},
						{
							"internalType": "string[]",
							"name": "certificate",
							"type": "string[]"
						}
					],
					"name": "createFreelanceExperience",
					"outputs": [],
					"stateMutability": "nonpayable",
					"type": "function"
				},
				{
					"inputs": [
						{
							"internalType": "string",
							"name": "firstName",
							"type": "string"
						},
						{
							"internalType": "string",
							"name": "middleName",
							"type": "string"
						},
						{
							"internalType": "string",
							"name": "lastName",
							"type": "string"
						},
						{
							"internalType": "string",
							"name": "profileImage",
							"type": "string"
						},
						{
							"internalType": "string",
							"name": "aboutMe",
							"type": "string"
						},
						{
							"internalType": "string",
							"name": "position",
							"type": "string"
						}
					],
					"name": "createInformation",
					"outputs": [],
					"stateMutability": "nonpayable",
					"type": "function"
				},
				{
					"inputs": [
						{
							"internalType": "string[]",
							"name": "programmingLanguages",
							"type": "string[]"
						},
						{
							"internalType": "string[]",
							"name": "framework",
							"type": "string[]"
						},
						{
							"internalType": "string[]",
							"name": "databaseAndOther",
							"type": "string[]"
						}
					],
					"name": "createSkill",
					"outputs": [],
					"stateMutability": "nonpayable",
					"type": "function"
				},
				{
					"inputs": [
						{
							"internalType": "string",
							"name": "startDate",
							"type": "string"
						},
						{
							"internalType": "string",
							"name": "endDate",
							"type": "string"
						},
						{
							"internalType": "string",
							"name": "univercity",
							"type": "string"
						},
						{
							"internalType": "string",
							"name": "major",
							"type": "string"
						},
						{
							"internalType": "string",
							"name": "finalProject",
							"type": "string"
						}
					],
					"name": "createUnivercity",
					"outputs": [],
					"stateMutability": "nonpayable",
					"type": "function"
				},
				{
					"inputs": [],
					"name": "delAllEducation",
					"outputs": [],
					"stateMutability": "nonpayable",
					"type": "function"
				},
				{
					"inputs": [],
					"name": "delCertificateAndAward",
					"outputs": [],
					"stateMutability": "nonpayable",
					"type": "function"
				},
				{
					"inputs": [],
					"name": "delInformaion",
					"outputs": [],
					"stateMutability": "nonpayable",
					"type": "function"
				},
				{
					"inputs": [],
					"name": "delProfile",
					"outputs": [],
					"stateMutability": "nonpayable",
					"type": "function"
				},
				{
					"inputs": [
						{
							"internalType": "uint256",
							"name": "index",
							"type": "uint256"
						}
					],
					"name": "getEducation",
					"outputs": [
						{
							"internalType": "string",
							"name": "",
							"type": "string"
						},
						{
							"internalType": "string",
							"name": "",
							"type": "string"
						},
						{
							"internalType": "string",
							"name": "",
							"type": "string"
						},
						{
							"internalType": "string",
							"name": "",
							"type": "string"
						},
						{
							"internalType": "string",
							"name": "",
							"type": "string"
						}
					],
					"stateMutability": "view",
					"type": "function"
				},
				{
					"inputs": [],
					"name": "getEducationCount",
					"outputs": [
						{
							"internalType": "uint256",
							"name": "",
							"type": "uint256"
						}
					],
					"stateMutability": "view",
					"type": "function"
				},
				{
					"inputs": [
						{
							"internalType": "address",
							"name": "",
							"type": "address"
						}
					],
					"name": "profile",
					"outputs": [
						{
							"components": [
								{
									"internalType": "string",
									"name": "aboutMe",
									"type": "string"
								},
								{
									"internalType": "string",
									"name": "position",
									"type": "string"
								},
								{
									"internalType": "address",
									"name": "userAddress",
									"type": "address"
								},
								{
									"internalType": "string",
									"name": "firstName",
									"type": "string"
								},
								{
									"internalType": "string",
									"name": "middleName",
									"type": "string"
								},
								{
									"internalType": "string",
									"name": "lastName",
									"type": "string"
								},
								{
									"internalType": "string",
									"name": "profileImage",
									"type": "string"
								},
								{
									"internalType": "uint256",
									"name": "createDate",
									"type": "uint256"
								}
							],
							"internalType": "struct Profile.Information",
							"name": "information",
							"type": "tuple"
						},
						{
							"components": [
								{
									"internalType": "string",
									"name": "aboutMe",
									"type": "string"
								},
								{
									"internalType": "string",
									"name": "email",
									"type": "string"
								},
								{
									"internalType": "string",
									"name": "phone",
									"type": "string"
								},
								{
									"internalType": "string",
									"name": "github",
									"type": "string"
								},
								{
									"internalType": "string",
									"name": "gitlab",
									"type": "string"
								},
								{
									"internalType": "string",
									"name": "linkin",
									"type": "string"
								}
							],
							"internalType": "struct Profile.Contract",
							"name": "privateContract",
							"type": "tuple"
						},
						{
							"components": [
								{
									"internalType": "string[]",
									"name": "programmingLanguages",
									"type": "string[]"
								},
								{
									"internalType": "string[]",
									"name": "framework",
									"type": "string[]"
								},
								{
									"internalType": "string[]",
									"name": "databaseAndOther",
									"type": "string[]"
								}
							],
							"internalType": "struct Profile.Skill",
							"name": "skill",
							"type": "tuple"
						},
						{
							"components": [
								{
									"internalType": "string[]",
									"name": "certificate",
									"type": "string[]"
								},
								{
									"internalType": "string[]",
									"name": "award",
									"type": "string[]"
								}
							],
							"internalType": "struct Profile.CertificateAndAward",
							"name": "certificateAndAward",
							"type": "tuple"
						},
						{
							"components": [
								{
									"internalType": "string",
									"name": "companyName",
									"type": "string"
								},
								{
									"internalType": "string",
									"name": "position",
									"type": "string"
								},
								{
									"internalType": "string",
									"name": "startDate",
									"type": "string"
								},
								{
									"internalType": "string",
									"name": "endDate",
									"type": "string"
								},
								{
									"internalType": "string[]",
									"name": "project",
									"type": "string[]"
								}
							],
							"internalType": "struct Profile.CompanyExperience",
							"name": "companyExperience",
							"type": "tuple"
						},
						{
							"components": [
								{
									"internalType": "string",
									"name": "projectName",
									"type": "string"
								},
								{
									"internalType": "string",
									"name": "Detail",
									"type": "string"
								}
							],
							"internalType": "struct Profile.FreelanceExperience",
							"name": "freelanceExperience",
							"type": "tuple"
						}
					],
					"stateMutability": "view",
					"type": "function"
				}
			],
			"devdoc": {
				"kind": "dev",
				"methods": {},
				"version": 1
			},
			"evm": {
				"assembly": "    /* \"contracts/Profile.sol\":60:5312  contract Profile {\r... */\n  mstore(0x40, 0x80)\n  callvalue\n  dup1\n  iszero\n  tag_1\n  jumpi\n  0x00\n  dup1\n  revert\ntag_1:\n  pop\n  dataSize(sub_0)\n  dup1\n  dataOffset(sub_0)\n  0x00\n  codecopy\n  0x00\n  return\nstop\n\nsub_0: assembly {\n        /* \"contracts/Profile.sol\":60:5312  contract Profile {\r... */\n      mstore(0x40, 0x80)\n      callvalue\n      dup1\n      iszero\n      tag_1\n      jumpi\n      0x00\n      dup1\n      revert\n    tag_1:\n      pop\n      jumpi(tag_2, lt(calldatasize, 0x04))\n      shr(0xe0, calldataload(0x00))\n      dup1\n      0x958791ae\n      gt\n      tag_16\n      jumpi\n      dup1\n      0xc02abb9b\n      gt\n      tag_17\n      jumpi\n      dup1\n      0xc02abb9b\n      eq\n      tag_12\n      jumpi\n      dup1\n      0xed2217ef\n      eq\n      tag_13\n      jumpi\n      dup1\n      0xf96e32f8\n      eq\n      tag_14\n      jumpi\n      dup1\n      0xfabce08f\n      eq\n      tag_15\n      jumpi\n      jump(tag_2)\n    tag_17:\n      dup1\n      0x958791ae\n      eq\n      tag_9\n      jumpi\n      dup1\n      0x95ea3757\n      eq\n      tag_10\n      jumpi\n      dup1\n      0x9dd9d0fd\n      eq\n      tag_11\n      jumpi\n      jump(tag_2)\n    tag_16:\n      dup1\n      0x3d984d0e\n      eq\n      tag_3\n      jumpi\n      dup1\n      0x4ed74067\n      eq\n      tag_4\n      jumpi\n      dup1\n      0x6212fa02\n      eq\n      tag_5\n      jumpi\n      dup1\n      0x66244dfb\n      eq\n      tag_6\n      jumpi\n      dup1\n      0x6c2cc774\n      eq\n      tag_7\n      jumpi\n      dup1\n      0x72828388\n      eq\n      tag_8\n      jumpi\n    tag_2:\n      0x00\n      dup1\n      revert\n        /* \"contracts/Profile.sol\":2951:3339  function createSkill(string[] memory programmingLanguages, string[] memory framework, string[] memory databaseAndOther) public {\r... */\n    tag_3:\n      tag_18\n      0x04\n      dup1\n      calldatasize\n      sub\n      dup2\n      add\n      swap1\n      tag_19\n      swap2\n      swap1\n      tag_20\n      jump\t// in\n    tag_19:\n      tag_21\n      jump\t// in\n    tag_18:\n      stop\n        /* \"contracts/Profile.sol\":5199:5307  function delCertificateAndAward() external {\r... */\n    tag_4:\n      tag_22\n      tag_23\n      jump\t// in\n    tag_22:\n      stop\n        /* \"contracts/Profile.sol\":4286:4404  function getEducationCount() public view returns (uint) {\r... */\n    tag_5:\n      tag_24\n      tag_25\n      jump\t// in\n    tag_24:\n      mload(0x40)\n      tag_26\n      swap2\n      swap1\n      tag_27\n      jump\t// in\n    tag_26:\n      mload(0x40)\n      dup1\n      swap2\n      sub\n      swap1\n      return\n        /* \"contracts/Profile.sol\":3406:3876  function createUnivercity(string memory startDate, string memory endDate, string memory univercity, string memory major, string memory finalProject) public {\r... */\n    tag_6:\n      tag_28\n      0x04\n      dup1\n      calldatasize\n      sub\n      dup2\n      add\n      swap1\n      tag_29\n      swap2\n      swap1\n      tag_30\n      jump\t// in\n    tag_29:\n      tag_31\n      jump\t// in\n    tag_28:\n      stop\n        /* \"contracts/Profile.sol\":4412:4640  function createAward(string[] memory award, string[] memory certificate) public {\r... */\n    tag_7:\n      tag_32\n      0x04\n      dup1\n      calldatasize\n      sub\n      dup2\n      add\n      swap1\n      tag_33\n      swap2\n      swap1\n      tag_34\n      jump\t// in\n    tag_33:\n      tag_35\n      jump\t// in\n    tag_32:\n      stop\n        /* \"contracts/Profile.sol\":2360:2864  function createContract(string memory email, string memory phone, string memory github, string memory gitlab, string memory linkin) public {\r... */\n    tag_8:\n      tag_36\n      0x04\n      dup1\n      calldatasize\n      sub\n      dup2\n      add\n      swap1\n      tag_37\n      swap2\n      swap1\n      tag_30\n      jump\t// in\n    tag_37:\n      tag_38\n      jump\t// in\n    tag_36:\n      stop\n        /* \"contracts/Profile.sol\":1589:2305  function createInformation(string memory firstName, string memory middleName, string memory lastName,  string memory profileImage, string memory aboutMe, string memory position) public {\r... */\n    tag_9:\n      tag_39\n      0x04\n      dup1\n      calldatasize\n      sub\n      dup2\n      add\n      swap1\n      tag_40\n      swap2\n      swap1\n      tag_41\n      jump\t// in\n    tag_40:\n      tag_42\n      jump\t// in\n    tag_39:\n      stop\n        /* \"contracts/Profile.sol\":5015:5107  function delInformaion() external  {\r... */\n    tag_10:\n      tag_43\n      tag_44\n      jump\t// in\n    tag_43:\n      stop\n        /* \"contracts/Profile.sol\":380:420  mapping (address => Bio) public  profile */\n    tag_11:\n      tag_45\n      0x04\n      dup1\n      calldatasize\n      sub\n      dup2\n      add\n      swap1\n      tag_46\n      swap2\n      swap1\n      tag_47\n      jump\t// in\n    tag_46:\n      tag_48\n      jump\t// in\n    tag_45:\n      mload(0x40)\n      tag_49\n      swap7\n      swap6\n      swap5\n      swap4\n      swap3\n      swap2\n      swap1\n      tag_50\n      jump\t// in\n    tag_49:\n      mload(0x40)\n      dup1\n      swap2\n      sub\n      swap1\n      return\n        /* \"contracts/Profile.sol\":4652:4894  function createFreelanceExperience(string[] memory award, string[] memory certificate) public {\r... */\n    tag_12:\n      tag_51\n      0x04\n      dup1\n      calldatasize\n      sub\n      dup2\n      add\n      swap1\n      tag_52\n      swap2\n      swap1\n      tag_34\n      jump\t// in\n    tag_52:\n      tag_53\n      jump\t// in\n    tag_51:\n      stop\n        /* \"contracts/Profile.sol\":4915:5007  function delAllEducation() external  {\r... */\n    tag_13:\n      tag_54\n      tag_55\n      jump\t// in\n    tag_54:\n      stop\n        /* \"contracts/Profile.sol\":3885:4278  function getEducation(uint index) public view returns(string memory, string memory, string memory, string memory, string memory) {\r... */\n    tag_14:\n      tag_56\n      0x04\n      dup1\n      calldatasize\n      sub\n      dup2\n      add\n      swap1\n      tag_57\n      swap2\n      swap1\n      tag_58\n      jump\t// in\n    tag_57:\n      tag_59\n      jump\t// in\n    tag_56:\n      mload(0x40)\n      tag_60\n      swap6\n      swap5\n      swap4\n      swap3\n      swap2\n      swap1\n      tag_61\n      jump\t// in\n    tag_60:\n      mload(0x40)\n      dup1\n      swap2\n      sub\n      swap1\n      return\n        /* \"contracts/Profile.sol\":5115:5191  function delProfile() external {\r... */\n    tag_15:\n      tag_62\n      tag_63\n      jump\t// in\n    tag_62:\n      stop\n        /* \"contracts/Profile.sol\":2951:3339  function createSkill(string[] memory programmingLanguages, string[] memory framework, string[] memory databaseAndOther) public {\r... */\n    tag_21:\n        /* \"contracts/Profile.sol\":3096:3103  profile */\n      0x00\n        /* \"contracts/Profile.sol\":3096:3115  profile[msg.sender] */\n      dup1\n        /* \"contracts/Profile.sol\":3104:3114  msg.sender */\n      caller\n        /* \"contracts/Profile.sol\":3096:3115  profile[msg.sender] */\n      0xffffffffffffffffffffffffffffffffffffffff\n      and\n      0xffffffffffffffffffffffffffffffffffffffff\n      and\n      dup2\n      mstore\n      0x20\n      add\n      swap1\n      dup2\n      mstore\n      0x20\n      add\n      0x00\n      keccak256\n        /* \"contracts/Profile.sol\":3096:3121  profile[msg.sender].skill */\n      0x0e\n      add\n      0x00\n        /* \"contracts/Profile.sol\":3089:3121  delete profile[msg.sender].skill */\n      dup1\n      dup3\n      add\n      0x00\n      tag_65\n      swap2\n      swap1\n      tag_66\n      jump\t// in\n    tag_65:\n      0x01\n      dup3\n      add\n      0x00\n      tag_67\n      swap2\n      swap1\n      tag_66\n      jump\t// in\n    tag_67:\n      0x02\n      dup3\n      add\n      0x00\n      tag_68\n      swap2\n      swap1\n      tag_66\n      jump\t// in\n    tag_68:\n      pop\n      pop\n        /* \"contracts/Profile.sol\":3181:3201  programmingLanguages */\n      dup3\n        /* \"contracts/Profile.sol\":3132:3139  profile */\n      0x00\n        /* \"contracts/Profile.sol\":3132:3151  profile[msg.sender] */\n      dup1\n        /* \"contracts/Profile.sol\":3140:3150  msg.sender */\n      caller\n        /* \"contracts/Profile.sol\":3132:3151  profile[msg.sender] */\n      0xffffffffffffffffffffffffffffffffffffffff\n      and\n      0xffffffffffffffffffffffffffffffffffffffff\n      and\n      dup2\n      mstore\n      0x20\n      add\n      swap1\n      dup2\n      mstore\n      0x20\n      add\n      0x00\n      keccak256\n        /* \"contracts/Profile.sol\":3132:3157  profile[msg.sender].skill */\n      0x0e\n      add\n        /* \"contracts/Profile.sol\":3132:3178  profile[msg.sender].skill.programmingLanguages */\n      0x00\n      add\n        /* \"contracts/Profile.sol\":3132:3201  profile[msg.sender].skill.programmingLanguages = programmingLanguages */\n      swap1\n      dup1\n      mload\n      swap1\n      0x20\n      add\n      swap1\n      tag_69\n      swap3\n      swap2\n      swap1\n      tag_70\n      jump\t// in\n    tag_69:\n      pop\n        /* \"contracts/Profile.sol\":3250:3259  framework */\n      dup2\n        /* \"contracts/Profile.sol\":3212:3219  profile */\n      0x00\n        /* \"contracts/Profile.sol\":3212:3231  profile[msg.sender] */\n      dup1\n        /* \"contracts/Profile.sol\":3220:3230  msg.sender */\n      caller\n        /* \"contracts/Profile.sol\":3212:3231  profile[msg.sender] */\n      0xffffffffffffffffffffffffffffffffffffffff\n      and\n      0xffffffffffffffffffffffffffffffffffffffff\n      and\n      dup2\n      mstore\n      0x20\n      add\n      swap1\n      dup2\n      mstore\n      0x20\n      add\n      0x00\n      keccak256\n        /* \"contracts/Profile.sol\":3212:3237  profile[msg.sender].skill */\n      0x0e\n      add\n        /* \"contracts/Profile.sol\":3212:3247  profile[msg.sender].skill.framework */\n      0x01\n      add\n        /* \"contracts/Profile.sol\":3212:3259  profile[msg.sender].skill.framework = framework */\n      swap1\n      dup1\n      mload\n      swap1\n      0x20\n      add\n      swap1\n      tag_71\n      swap3\n      swap2\n      swap1\n      tag_70\n      jump\t// in\n    tag_71:\n      pop\n        /* \"contracts/Profile.sol\":3315:3331  databaseAndOther */\n      dup1\n        /* \"contracts/Profile.sol\":3270:3277  profile */\n      0x00\n        /* \"contracts/Profile.sol\":3270:3289  profile[msg.sender] */\n      dup1\n        /* \"contracts/Profile.sol\":3278:3288  msg.sender */\n      caller\n        /* \"contracts/Profile.sol\":3270:3289  profile[msg.sender] */\n      0xffffffffffffffffffffffffffffffffffffffff\n      and\n      0xffffffffffffffffffffffffffffffffffffffff\n      and\n      dup2\n      mstore\n      0x20\n      add\n      swap1\n      dup2\n      mstore\n      0x20\n      add\n      0x00\n      keccak256\n        /* \"contracts/Profile.sol\":3270:3295  profile[msg.sender].skill */\n      0x0e\n      add\n        /* \"contracts/Profile.sol\":3270:3312  profile[msg.sender].skill.databaseAndOther */\n      0x02\n      add\n        /* \"contracts/Profile.sol\":3270:3331  profile[msg.sender].skill.databaseAndOther = databaseAndOther */\n      swap1\n      dup1\n      mload\n      swap1\n      0x20\n      add\n      swap1\n      tag_72\n      swap3\n      swap2\n      swap1\n      tag_70\n      jump\t// in\n    tag_72:\n      pop\n        /* \"contracts/Profile.sol\":2951:3339  function createSkill(string[] memory programmingLanguages, string[] memory framework, string[] memory databaseAndOther) public {\r... */\n      pop\n      pop\n      pop\n      jump\t// out\n        /* \"contracts/Profile.sol\":5199:5307  function delCertificateAndAward() external {\r... */\n    tag_23:\n        /* \"contracts/Profile.sol\":5260:5267  profile */\n      0x00\n        /* \"contracts/Profile.sol\":5260:5279  profile[msg.sender] */\n      dup1\n        /* \"contracts/Profile.sol\":5268:5278  msg.sender */\n      caller\n        /* \"contracts/Profile.sol\":5260:5279  profile[msg.sender] */\n      0xffffffffffffffffffffffffffffffffffffffff\n      and\n      0xffffffffffffffffffffffffffffffffffffffff\n      and\n      dup2\n      mstore\n      0x20\n      add\n      swap1\n      dup2\n      mstore\n      0x20\n      add\n      0x00\n      keccak256\n        /* \"contracts/Profile.sol\":5260:5299  profile[msg.sender].certificateAndAward */\n      0x12\n      add\n      0x00\n        /* \"contracts/Profile.sol\":5253:5299  delete profile[msg.sender].certificateAndAward */\n      dup1\n      dup3\n      add\n      0x00\n      tag_74\n      swap2\n      swap1\n      tag_66\n      jump\t// in\n    tag_74:\n      0x01\n      dup3\n      add\n      0x00\n      tag_75\n      swap2\n      swap1\n      tag_66\n      jump\t// in\n    tag_75:\n      pop\n      pop\n        /* \"contracts/Profile.sol\":5199:5307  function delCertificateAndAward() external {\r... */\n      jump\t// out\n        /* \"contracts/Profile.sol\":4286:4404  function getEducationCount() public view returns (uint) {\r... */\n    tag_25:\n        /* \"contracts/Profile.sol\":4336:4340  uint */\n      0x00\n        /* \"contracts/Profile.sol\":4360:4367  profile */\n      dup1\n        /* \"contracts/Profile.sol\":4360:4379  profile[msg.sender] */\n      0x00\n        /* \"contracts/Profile.sol\":4368:4378  msg.sender */\n      caller\n        /* \"contracts/Profile.sol\":4360:4379  profile[msg.sender] */\n      0xffffffffffffffffffffffffffffffffffffffff\n      and\n      0xffffffffffffffffffffffffffffffffffffffff\n      and\n      dup2\n      mstore\n      0x20\n      add\n      swap1\n      dup2\n      mstore\n      0x20\n      add\n      0x00\n      keccak256\n        /* \"contracts/Profile.sol\":4360:4389  profile[msg.sender].education */\n      0x11\n      add\n        /* \"contracts/Profile.sol\":4360:4396  profile[msg.sender].education.length */\n      dup1\n      sload\n      swap1\n      pop\n        /* \"contracts/Profile.sol\":4353:4396  return profile[msg.sender].education.length */\n      swap1\n      pop\n        /* \"contracts/Profile.sol\":4286:4404  function getEducationCount() public view returns (uint) {\r... */\n      swap1\n      jump\t// out\n        /* \"contracts/Profile.sol\":3406:3876  function createUnivercity(string memory startDate, string memory endDate, string memory univercity, string memory major, string memory finalProject) public {\r... */\n    tag_31:\n        /* \"contracts/Profile.sol\":3573:3600  Education memory _education */\n      tag_78\n      tag_79\n      jump\t// in\n    tag_78:\n        /* \"contracts/Profile.sol\":3634:3643  startDate */\n      dup6\n        /* \"contracts/Profile.sol\":3611:3621  _education */\n      dup2\n        /* \"contracts/Profile.sol\":3611:3631  _education.startDate */\n      0x00\n      add\n        /* \"contracts/Profile.sol\":3611:3643  _education.startDate = startDate */\n      dup2\n      swap1\n      mstore\n      pop\n        /* \"contracts/Profile.sol\":3675:3682  endDate */\n      dup5\n        /* \"contracts/Profile.sol\":3654:3664  _education */\n      dup2\n        /* \"contracts/Profile.sol\":3654:3672  _education.endDate */\n      0x20\n      add\n        /* \"contracts/Profile.sol\":3654:3682  _education.endDate = endDate */\n      dup2\n      swap1\n      mstore\n      pop\n        /* \"contracts/Profile.sol\":3717:3727  univercity */\n      dup4\n        /* \"contracts/Profile.sol\":3693:3703  _education */\n      dup2\n        /* \"contracts/Profile.sol\":3693:3714  _education.univercity */\n      0x40\n      add\n        /* \"contracts/Profile.sol\":3693:3727  _education.univercity = univercity */\n      dup2\n      swap1\n      mstore\n      pop\n        /* \"contracts/Profile.sol\":3757:3762  major */\n      dup3\n        /* \"contracts/Profile.sol\":3738:3748  _education */\n      dup2\n        /* \"contracts/Profile.sol\":3738:3754  _education.major */\n      0x60\n      add\n        /* \"contracts/Profile.sol\":3738:3762  _education.major = major */\n      dup2\n      swap1\n      mstore\n      pop\n        /* \"contracts/Profile.sol\":3799:3811  finalProject */\n      dup2\n        /* \"contracts/Profile.sol\":3773:3783  _education */\n      dup2\n        /* \"contracts/Profile.sol\":3773:3796  _education.finalProject */\n      0x80\n      add\n        /* \"contracts/Profile.sol\":3773:3811  _education.finalProject = finalProject */\n      dup2\n      swap1\n      mstore\n      pop\n        /* \"contracts/Profile.sol\":3822:3829  profile */\n      0x00\n        /* \"contracts/Profile.sol\":3822:3841  profile[msg.sender] */\n      dup1\n        /* \"contracts/Profile.sol\":3830:3840  msg.sender */\n      caller\n        /* \"contracts/Profile.sol\":3822:3841  profile[msg.sender] */\n      0xffffffffffffffffffffffffffffffffffffffff\n      and\n      0xffffffffffffffffffffffffffffffffffffffff\n      and\n      dup2\n      mstore\n      0x20\n      add\n      swap1\n      dup2\n      mstore\n      0x20\n      add\n      0x00\n      keccak256\n        /* \"contracts/Profile.sol\":3822:3851  profile[msg.sender].education */\n      0x11\n      add\n        /* \"contracts/Profile.sol\":3857:3867  _education */\n      dup2\n        /* \"contracts/Profile.sol\":3822:3868  profile[msg.sender].education.push(_education) */\n      swap1\n      dup1\n      0x01\n      dup2\n      sload\n      add\n      dup1\n      dup3\n      sstore\n      dup1\n      swap2\n      pop\n      pop\n      0x01\n      swap1\n      sub\n      swap1\n      0x00\n      mstore\n      keccak256(0x00, 0x20)\n      swap1\n      0x05\n      mul\n      add\n      0x00\n      swap1\n      swap2\n      swap1\n      swap2\n      swap1\n      swap2\n      pop\n      0x00\n      dup3\n      add\n      mload\n      dup2\n      0x00\n      add\n      swap1\n      dup1\n      mload\n      swap1\n      0x20\n      add\n      swap1\n      tag_81\n      swap3\n      swap2\n      swap1\n      tag_82\n      jump\t// in\n    tag_81:\n      pop\n      0x20\n      dup3\n      add\n      mload\n      dup2\n      0x01\n      add\n      swap1\n      dup1\n      mload\n      swap1\n      0x20\n      add\n      swap1\n      tag_83\n      swap3\n      swap2\n      swap1\n      tag_82\n      jump\t// in\n    tag_83:\n      pop\n      0x40\n      dup3\n      add\n      mload\n      dup2\n      0x02\n      add\n      swap1\n      dup1\n      mload\n      swap1\n      0x20\n      add\n      swap1\n      tag_84\n      swap3\n      swap2\n      swap1\n      tag_82\n      jump\t// in\n    tag_84:\n      pop\n      0x60\n      dup3\n      add\n      mload\n      dup2\n      0x03\n      add\n      swap1\n      dup1\n      mload\n      swap1\n      0x20\n      add\n      swap1\n      tag_85\n      swap3\n      swap2\n      swap1\n      tag_82\n      jump\t// in\n    tag_85:\n      pop\n      0x80\n      dup3\n      add\n      mload\n      dup2\n      0x04\n      add\n      swap1\n      dup1\n      mload\n      swap1\n      0x20\n      add\n      swap1\n      tag_86\n      swap3\n      swap2\n      swap1\n      tag_82\n      jump\t// in\n    tag_86:\n      pop\n      pop\n      pop\n        /* \"contracts/Profile.sol\":3562:3876  {\r... */\n      pop\n        /* \"contracts/Profile.sol\":3406:3876  function createUnivercity(string memory startDate, string memory endDate, string memory univercity, string memory major, string memory finalProject) public {\r... */\n      pop\n      pop\n      pop\n      pop\n      pop\n      jump\t// out\n        /* \"contracts/Profile.sol\":4412:4640  function createAward(string[] memory award, string[] memory certificate) public {\r... */\n    tag_35:\n        /* \"contracts/Profile.sol\":4551:4556  award */\n      dup2\n        /* \"contracts/Profile.sol\":4503:4510  profile */\n      0x00\n        /* \"contracts/Profile.sol\":4503:4522  profile[msg.sender] */\n      dup1\n        /* \"contracts/Profile.sol\":4511:4521  msg.sender */\n      caller\n        /* \"contracts/Profile.sol\":4503:4522  profile[msg.sender] */\n      0xffffffffffffffffffffffffffffffffffffffff\n      and\n      0xffffffffffffffffffffffffffffffffffffffff\n      and\n      dup2\n      mstore\n      0x20\n      add\n      swap1\n      dup2\n      mstore\n      0x20\n      add\n      0x00\n      keccak256\n        /* \"contracts/Profile.sol\":4503:4542  profile[msg.sender].certificateAndAward */\n      0x12\n      add\n        /* \"contracts/Profile.sol\":4503:4548  profile[msg.sender].certificateAndAward.award */\n      0x01\n      add\n        /* \"contracts/Profile.sol\":4503:4556  profile[msg.sender].certificateAndAward.award = award */\n      swap1\n      dup1\n      mload\n      swap1\n      0x20\n      add\n      swap1\n      tag_88\n      swap3\n      swap2\n      swap1\n      tag_70\n      jump\t// in\n    tag_88:\n      pop\n        /* \"contracts/Profile.sol\":4621:4632  certificate */\n      dup1\n        /* \"contracts/Profile.sol\":4567:4574  profile */\n      0x00\n        /* \"contracts/Profile.sol\":4567:4586  profile[msg.sender] */\n      dup1\n        /* \"contracts/Profile.sol\":4575:4585  msg.sender */\n      caller\n        /* \"contracts/Profile.sol\":4567:4586  profile[msg.sender] */\n      0xffffffffffffffffffffffffffffffffffffffff\n      and\n      0xffffffffffffffffffffffffffffffffffffffff\n      and\n      dup2\n      mstore\n      0x20\n      add\n      swap1\n      dup2\n      mstore\n      0x20\n      add\n      0x00\n      keccak256\n        /* \"contracts/Profile.sol\":4567:4606  profile[msg.sender].certificateAndAward */\n      0x12\n      add\n        /* \"contracts/Profile.sol\":4567:4618  profile[msg.sender].certificateAndAward.certificate */\n      0x00\n      add\n        /* \"contracts/Profile.sol\":4567:4632  profile[msg.sender].certificateAndAward.certificate = certificate */\n      swap1\n      dup1\n      mload\n      swap1\n      0x20\n      add\n      swap1\n      tag_89\n      swap3\n      swap2\n      swap1\n      tag_70\n      jump\t// in\n    tag_89:\n      pop\n        /* \"contracts/Profile.sol\":4412:4640  function createAward(string[] memory award, string[] memory certificate) public {\r... */\n      pop\n      pop\n      jump\t// out\n        /* \"contracts/Profile.sol\":2360:2864  function createContract(string memory email, string memory phone, string memory github, string memory gitlab, string memory linkin) public {\r... */\n    tag_38:\n        /* \"contracts/Profile.sol\":2517:2524  profile */\n      0x00\n        /* \"contracts/Profile.sol\":2517:2536  profile[msg.sender] */\n      dup1\n        /* \"contracts/Profile.sol\":2525:2535  msg.sender */\n      caller\n        /* \"contracts/Profile.sol\":2517:2536  profile[msg.sender] */\n      0xffffffffffffffffffffffffffffffffffffffff\n      and\n      0xffffffffffffffffffffffffffffffffffffffff\n      and\n      dup2\n      mstore\n      0x20\n      add\n      swap1\n      dup2\n      mstore\n      0x20\n      add\n      0x00\n      keccak256\n        /* \"contracts/Profile.sol\":2517:2552  profile[msg.sender].privateContract */\n      0x08\n      add\n      0x00\n        /* \"contracts/Profile.sol\":2510:2552  delete profile[msg.sender].privateContract */\n      dup1\n      dup3\n      add\n      0x00\n      tag_91\n      swap2\n      swap1\n      tag_92\n      jump\t// in\n    tag_91:\n      0x01\n      dup3\n      add\n      0x00\n      tag_93\n      swap2\n      swap1\n      tag_92\n      jump\t// in\n    tag_93:\n      0x02\n      dup3\n      add\n      0x00\n      tag_94\n      swap2\n      swap1\n      tag_92\n      jump\t// in\n    tag_94:\n      0x03\n      dup3\n      add\n      0x00\n      tag_95\n      swap2\n      swap1\n      tag_92\n      jump\t// in\n    tag_95:\n      0x04\n      dup3\n      add\n      0x00\n      tag_96\n      swap2\n      swap1\n      tag_92\n      jump\t// in\n    tag_96:\n      0x05\n      dup3\n      add\n      0x00\n      tag_97\n      swap2\n      swap1\n      tag_92\n      jump\t// in\n    tag_97:\n      pop\n      pop\n        /* \"contracts/Profile.sol\":2607:2612  email */\n      dup5\n        /* \"contracts/Profile.sol\":2563:2570  profile */\n      0x00\n        /* \"contracts/Profile.sol\":2563:2582  profile[msg.sender] */\n      dup1\n        /* \"contracts/Profile.sol\":2571:2581  msg.sender */\n      caller\n        /* \"contracts/Profile.sol\":2563:2582  profile[msg.sender] */\n      0xffffffffffffffffffffffffffffffffffffffff\n      and\n      0xffffffffffffffffffffffffffffffffffffffff\n      and\n      dup2\n      mstore\n      0x20\n      add\n      swap1\n      dup2\n      mstore\n      0x20\n      add\n      0x00\n      keccak256\n        /* \"contracts/Profile.sol\":2563:2598  profile[msg.sender].privateContract */\n      0x08\n      add\n        /* \"contracts/Profile.sol\":2563:2604  profile[msg.sender].privateContract.email */\n      0x01\n      add\n        /* \"contracts/Profile.sol\":2563:2612  profile[msg.sender].privateContract.email = email */\n      swap1\n      dup1\n      mload\n      swap1\n      0x20\n      add\n      swap1\n      tag_98\n      swap3\n      swap2\n      swap1\n      tag_82\n      jump\t// in\n    tag_98:\n      pop\n        /* \"contracts/Profile.sol\":2667:2672  phone */\n      dup4\n        /* \"contracts/Profile.sol\":2623:2630  profile */\n      0x00\n        /* \"contracts/Profile.sol\":2623:2642  profile[msg.sender] */\n      dup1\n        /* \"contracts/Profile.sol\":2631:2641  msg.sender */\n      caller\n        /* \"contracts/Profile.sol\":2623:2642  profile[msg.sender] */\n      0xffffffffffffffffffffffffffffffffffffffff\n      and\n      0xffffffffffffffffffffffffffffffffffffffff\n      and\n      dup2\n      mstore\n      0x20\n      add\n      swap1\n      dup2\n      mstore\n      0x20\n      add\n      0x00\n      keccak256\n        /* \"contracts/Profile.sol\":2623:2658  profile[msg.sender].privateContract */\n      0x08\n      add\n        /* \"contracts/Profile.sol\":2623:2664  profile[msg.sender].privateContract.phone */\n      0x02\n      add\n        /* \"contracts/Profile.sol\":2623:2672  profile[msg.sender].privateContract.phone = phone */\n      swap1\n      dup1\n      mload\n      swap1\n      0x20\n      add\n      swap1\n      tag_99\n      swap3\n      swap2\n      swap1\n      tag_82\n      jump\t// in\n    tag_99:\n      pop\n        /* \"contracts/Profile.sol\":2728:2734  github */\n      dup3\n        /* \"contracts/Profile.sol\":2683:2690  profile */\n      0x00\n        /* \"contracts/Profile.sol\":2683:2702  profile[msg.sender] */\n      dup1\n        /* \"contracts/Profile.sol\":2691:2701  msg.sender */\n      caller\n        /* \"contracts/Profile.sol\":2683:2702  profile[msg.sender] */\n      0xffffffffffffffffffffffffffffffffffffffff\n      and\n      0xffffffffffffffffffffffffffffffffffffffff\n      and\n      dup2\n      mstore\n      0x20\n      add\n      swap1\n      dup2\n      mstore\n      0x20\n      add\n      0x00\n      keccak256\n        /* \"contracts/Profile.sol\":2683:2718  profile[msg.sender].privateContract */\n      0x08\n      add\n        /* \"contracts/Profile.sol\":2683:2725  profile[msg.sender].privateContract.github */\n      0x03\n      add\n        /* \"contracts/Profile.sol\":2683:2734  profile[msg.sender].privateContract.github = github */\n      swap1\n      dup1\n      mload\n      swap1\n      0x20\n      add\n      swap1\n      tag_100\n      swap3\n      swap2\n      swap1\n      tag_82\n      jump\t// in\n    tag_100:\n      pop\n        /* \"contracts/Profile.sol\":2789:2795  gitlab */\n      dup2\n        /* \"contracts/Profile.sol\":2745:2752  profile */\n      0x00\n        /* \"contracts/Profile.sol\":2745:2764  profile[msg.sender] */\n      dup1\n        /* \"contracts/Profile.sol\":2753:2763  msg.sender */\n      caller\n        /* \"contracts/Profile.sol\":2745:2764  profile[msg.sender] */\n      0xffffffffffffffffffffffffffffffffffffffff\n      and\n      0xffffffffffffffffffffffffffffffffffffffff\n      and\n      dup2\n      mstore\n      0x20\n      add\n      swap1\n      dup2\n      mstore\n      0x20\n      add\n      0x00\n      keccak256\n        /* \"contracts/Profile.sol\":2745:2780  profile[msg.sender].privateContract */\n      0x08\n      add\n        /* \"contracts/Profile.sol\":2745:2786  profile[msg.sender].privateContract.phone */\n      0x02\n      add\n        /* \"contracts/Profile.sol\":2745:2795  profile[msg.sender].privateContract.phone = gitlab */\n      swap1\n      dup1\n      mload\n      swap1\n      0x20\n      add\n      swap1\n      tag_101\n      swap3\n      swap2\n      swap1\n      tag_82\n      jump\t// in\n    tag_101:\n      pop\n        /* \"contracts/Profile.sol\":2850:2856  linkin */\n      dup1\n        /* \"contracts/Profile.sol\":2806:2813  profile */\n      0x00\n        /* \"contracts/Profile.sol\":2806:2825  profile[msg.sender] */\n      dup1\n        /* \"contracts/Profile.sol\":2814:2824  msg.sender */\n      caller\n        /* \"contracts/Profile.sol\":2806:2825  profile[msg.sender] */\n      0xffffffffffffffffffffffffffffffffffffffff\n      and\n      0xffffffffffffffffffffffffffffffffffffffff\n      and\n      dup2\n      mstore\n      0x20\n      add\n      swap1\n      dup2\n      mstore\n      0x20\n      add\n      0x00\n      keccak256\n        /* \"contracts/Profile.sol\":2806:2841  profile[msg.sender].privateContract */\n      0x08\n      add\n        /* \"contracts/Profile.sol\":2806:2847  profile[msg.sender].privateContract.email */\n      0x01\n      add\n        /* \"contracts/Profile.sol\":2806:2856  profile[msg.sender].privateContract.email = linkin */\n      swap1\n      dup1\n      mload\n      swap1\n      0x20\n      add\n      swap1\n      tag_102\n      swap3\n      swap2\n      swap1\n      tag_82\n      jump\t// in\n    tag_102:\n      pop\n        /* \"contracts/Profile.sol\":2360:2864  function createContract(string memory email, string memory phone, string memory github, string memory gitlab, string memory linkin) public {\r... */\n      pop\n      pop\n      pop\n      pop\n      pop\n      jump\t// out\n        /* \"contracts/Profile.sol\":1589:2305  function createInformation(string memory firstName, string memory middleName, string memory lastName,  string memory profileImage, string memory aboutMe, string memory position) public {\r... */\n    tag_42:\n        /* \"contracts/Profile.sol\":1829:1838  firstName */\n      dup6\n        /* \"contracts/Profile.sol\":1785:1792  profile */\n      0x00\n        /* \"contracts/Profile.sol\":1785:1804  profile[msg.sender] */\n      dup1\n        /* \"contracts/Profile.sol\":1793:1803  msg.sender */\n      caller\n        /* \"contracts/Profile.sol\":1785:1804  profile[msg.sender] */\n      0xffffffffffffffffffffffffffffffffffffffff\n      and\n      0xffffffffffffffffffffffffffffffffffffffff\n      and\n      dup2\n      mstore\n      0x20\n      add\n      swap1\n      dup2\n      mstore\n      0x20\n      add\n      0x00\n      keccak256\n        /* \"contracts/Profile.sol\":1785:1816  profile[msg.sender].information */\n      0x00\n      add\n        /* \"contracts/Profile.sol\":1785:1826  profile[msg.sender].information.firstName */\n      0x03\n      add\n        /* \"contracts/Profile.sol\":1785:1838  profile[msg.sender].information.firstName = firstName */\n      swap1\n      dup1\n      mload\n      swap1\n      0x20\n      add\n      swap1\n      tag_104\n      swap3\n      swap2\n      swap1\n      tag_82\n      jump\t// in\n    tag_104:\n      pop\n        /* \"contracts/Profile.sol\":1894:1904  middleName */\n      dup5\n        /* \"contracts/Profile.sol\":1849:1856  profile */\n      0x00\n        /* \"contracts/Profile.sol\":1849:1868  profile[msg.sender] */\n      dup1\n        /* \"contracts/Profile.sol\":1857:1867  msg.sender */\n      caller\n        /* \"contracts/Profile.sol\":1849:1868  profile[msg.sender] */\n      0xffffffffffffffffffffffffffffffffffffffff\n      and\n      0xffffffffffffffffffffffffffffffffffffffff\n      and\n      dup2\n      mstore\n      0x20\n      add\n      swap1\n      dup2\n      mstore\n      0x20\n      add\n      0x00\n      keccak256\n        /* \"contracts/Profile.sol\":1849:1880  profile[msg.sender].information */\n      0x00\n      add\n        /* \"contracts/Profile.sol\":1849:1891  profile[msg.sender].information.middleName */\n      0x04\n      add\n        /* \"contracts/Profile.sol\":1849:1904  profile[msg.sender].information.middleName = middleName */\n      swap1\n      dup1\n      mload\n      swap1\n      0x20\n      add\n      swap1\n      tag_105\n      swap3\n      swap2\n      swap1\n      tag_82\n      jump\t// in\n    tag_105:\n      pop\n        /* \"contracts/Profile.sol\":1958:1966  lastName */\n      dup4\n        /* \"contracts/Profile.sol\":1915:1922  profile */\n      0x00\n        /* \"contracts/Profile.sol\":1915:1934  profile[msg.sender] */\n      dup1\n        /* \"contracts/Profile.sol\":1923:1933  msg.sender */\n      caller\n        /* \"contracts/Profile.sol\":1915:1934  profile[msg.sender] */\n      0xffffffffffffffffffffffffffffffffffffffff\n      and\n      0xffffffffffffffffffffffffffffffffffffffff\n      and\n      dup2\n      mstore\n      0x20\n      add\n      swap1\n      dup2\n      mstore\n      0x20\n      add\n      0x00\n      keccak256\n        /* \"contracts/Profile.sol\":1915:1946  profile[msg.sender].information */\n      0x00\n      add\n        /* \"contracts/Profile.sol\":1915:1955  profile[msg.sender].information.lastName */\n      0x05\n      add\n        /* \"contracts/Profile.sol\":1915:1966  profile[msg.sender].information.lastName = lastName */\n      swap1\n      dup1\n      mload\n      swap1\n      0x20\n      add\n      swap1\n      tag_106\n      swap3\n      swap2\n      swap1\n      tag_82\n      jump\t// in\n    tag_106:\n      pop\n        /* \"contracts/Profile.sol\":2024:2036  profileImage */\n      dup3\n        /* \"contracts/Profile.sol\":1977:1984  profile */\n      0x00\n        /* \"contracts/Profile.sol\":1977:1996  profile[msg.sender] */\n      dup1\n        /* \"contracts/Profile.sol\":1985:1995  msg.sender */\n      caller\n        /* \"contracts/Profile.sol\":1977:1996  profile[msg.sender] */\n      0xffffffffffffffffffffffffffffffffffffffff\n      and\n      0xffffffffffffffffffffffffffffffffffffffff\n      and\n      dup2\n      mstore\n      0x20\n      add\n      swap1\n      dup2\n      mstore\n      0x20\n      add\n      0x00\n      keccak256\n        /* \"contracts/Profile.sol\":1977:2008  profile[msg.sender].information */\n      0x00\n      add\n        /* \"contracts/Profile.sol\":1977:2021  profile[msg.sender].information.profileImage */\n      0x06\n      add\n        /* \"contracts/Profile.sol\":1977:2036  profile[msg.sender].information.profileImage = profileImage */\n      swap1\n      dup1\n      mload\n      swap1\n      0x20\n      add\n      swap1\n      tag_107\n      swap3\n      swap2\n      swap1\n      tag_82\n      jump\t// in\n    tag_107:\n      pop\n        /* \"contracts/Profile.sol\":2089:2096  aboutMe */\n      dup2\n        /* \"contracts/Profile.sol\":2047:2054  profile */\n      0x00\n        /* \"contracts/Profile.sol\":2047:2066  profile[msg.sender] */\n      dup1\n        /* \"contracts/Profile.sol\":2055:2065  msg.sender */\n      caller\n        /* \"contracts/Profile.sol\":2047:2066  profile[msg.sender] */\n      0xffffffffffffffffffffffffffffffffffffffff\n      and\n      0xffffffffffffffffffffffffffffffffffffffff\n      and\n      dup2\n      mstore\n      0x20\n      add\n      swap1\n      dup2\n      mstore\n      0x20\n      add\n      0x00\n      keccak256\n        /* \"contracts/Profile.sol\":2047:2078  profile[msg.sender].information */\n      0x00\n      add\n        /* \"contracts/Profile.sol\":2047:2086  profile[msg.sender].information.aboutMe */\n      0x00\n      add\n        /* \"contracts/Profile.sol\":2047:2096  profile[msg.sender].information.aboutMe = aboutMe */\n      swap1\n      dup1\n      mload\n      swap1\n      0x20\n      add\n      swap1\n      tag_108\n      swap3\n      swap2\n      swap1\n      tag_82\n      jump\t// in\n    tag_108:\n      pop\n        /* \"contracts/Profile.sol\":2150:2158  position */\n      dup1\n        /* \"contracts/Profile.sol\":2107:2114  profile */\n      0x00\n        /* \"contracts/Profile.sol\":2107:2126  profile[msg.sender] */\n      dup1\n        /* \"contracts/Profile.sol\":2115:2125  msg.sender */\n      caller\n        /* \"contracts/Profile.sol\":2107:2126  profile[msg.sender] */\n      0xffffffffffffffffffffffffffffffffffffffff\n      and\n      0xffffffffffffffffffffffffffffffffffffffff\n      and\n      dup2\n      mstore\n      0x20\n      add\n      swap1\n      dup2\n      mstore\n      0x20\n      add\n      0x00\n      keccak256\n        /* \"contracts/Profile.sol\":2107:2138  profile[msg.sender].information */\n      0x00\n      add\n        /* \"contracts/Profile.sol\":2107:2147  profile[msg.sender].information.position */\n      0x01\n      add\n        /* \"contracts/Profile.sol\":2107:2158  profile[msg.sender].information.position = position */\n      swap1\n      dup1\n      mload\n      swap1\n      0x20\n      add\n      swap1\n      tag_109\n      swap3\n      swap2\n      swap1\n      tag_82\n      jump\t// in\n    tag_109:\n      pop\n        /* \"contracts/Profile.sol\":2215:2225  msg.sender */\n      caller\n        /* \"contracts/Profile.sol\":2169:2176  profile */\n      0x00\n        /* \"contracts/Profile.sol\":2169:2188  profile[msg.sender] */\n      dup1\n        /* \"contracts/Profile.sol\":2177:2187  msg.sender */\n      caller\n        /* \"contracts/Profile.sol\":2169:2188  profile[msg.sender] */\n      0xffffffffffffffffffffffffffffffffffffffff\n      and\n      0xffffffffffffffffffffffffffffffffffffffff\n      and\n      dup2\n      mstore\n      0x20\n      add\n      swap1\n      dup2\n      mstore\n      0x20\n      add\n      0x00\n      keccak256\n        /* \"contracts/Profile.sol\":2169:2200  profile[msg.sender].information */\n      0x00\n      add\n        /* \"contracts/Profile.sol\":2169:2212  profile[msg.sender].information.userAddress */\n      0x02\n      add\n      0x00\n        /* \"contracts/Profile.sol\":2169:2225  profile[msg.sender].information.userAddress = msg.sender */\n      0x0100\n      exp\n      dup2\n      sload\n      dup2\n      0xffffffffffffffffffffffffffffffffffffffff\n      mul\n      not\n      and\n      swap1\n      dup4\n      0xffffffffffffffffffffffffffffffffffffffff\n      and\n      mul\n      or\n      swap1\n      sstore\n      pop\n        /* \"contracts/Profile.sol\":2282:2297  block.timestamp */\n      timestamp\n        /* \"contracts/Profile.sol\":2237:2244  profile */\n      0x00\n        /* \"contracts/Profile.sol\":2237:2256  profile[msg.sender] */\n      dup1\n        /* \"contracts/Profile.sol\":2245:2255  msg.sender */\n      caller\n        /* \"contracts/Profile.sol\":2237:2256  profile[msg.sender] */\n      0xffffffffffffffffffffffffffffffffffffffff\n      and\n      0xffffffffffffffffffffffffffffffffffffffff\n      and\n      dup2\n      mstore\n      0x20\n      add\n      swap1\n      dup2\n      mstore\n      0x20\n      add\n      0x00\n      keccak256\n        /* \"contracts/Profile.sol\":2237:2268  profile[msg.sender].information */\n      0x00\n      add\n        /* \"contracts/Profile.sol\":2237:2279  profile[msg.sender].information.createDate */\n      0x07\n      add\n        /* \"contracts/Profile.sol\":2237:2297  profile[msg.sender].information.createDate = block.timestamp */\n      dup2\n      swap1\n      sstore\n      pop\n        /* \"contracts/Profile.sol\":1589:2305  function createInformation(string memory firstName, string memory middleName, string memory lastName,  string memory profileImage, string memory aboutMe, string memory position) public {\r... */\n      pop\n      pop\n      pop\n      pop\n      pop\n      pop\n      jump\t// out\n        /* \"contracts/Profile.sol\":5015:5107  function delInformaion() external  {\r... */\n    tag_44:\n        /* \"contracts/Profile.sol\":5068:5075  profile */\n      0x00\n        /* \"contracts/Profile.sol\":5068:5087  profile[msg.sender] */\n      dup1\n        /* \"contracts/Profile.sol\":5076:5086  msg.sender */\n      caller\n        /* \"contracts/Profile.sol\":5068:5087  profile[msg.sender] */\n      0xffffffffffffffffffffffffffffffffffffffff\n      and\n      0xffffffffffffffffffffffffffffffffffffffff\n      and\n      dup2\n      mstore\n      0x20\n      add\n      swap1\n      dup2\n      mstore\n      0x20\n      add\n      0x00\n      keccak256\n        /* \"contracts/Profile.sol\":5068:5099  profile[msg.sender].information */\n      0x00\n      add\n      0x00\n        /* \"contracts/Profile.sol\":5061:5099  delete profile[msg.sender].information */\n      dup1\n      dup3\n      add\n      0x00\n      tag_111\n      swap2\n      swap1\n      tag_92\n      jump\t// in\n    tag_111:\n      0x01\n      dup3\n      add\n      0x00\n      tag_112\n      swap2\n      swap1\n      tag_92\n      jump\t// in\n    tag_112:\n      0x02\n      dup3\n      add\n      exp(0x0100, 0x00)\n      dup2\n      sload\n      swap1\n      0xffffffffffffffffffffffffffffffffffffffff\n      mul\n      not\n      and\n      swap1\n      sstore\n      0x03\n      dup3\n      add\n      0x00\n      tag_113\n      swap2\n      swap1\n      tag_92\n      jump\t// in\n    tag_113:\n      0x04\n      dup3\n      add\n      0x00\n      tag_114\n      swap2\n      swap1\n      tag_92\n      jump\t// in\n    tag_114:\n      0x05\n      dup3\n      add\n      0x00\n      tag_115\n      swap2\n      swap1\n      tag_92\n      jump\t// in\n    tag_115:\n      0x06\n      dup3\n      add\n      0x00\n      tag_116\n      swap2\n      swap1\n      tag_92\n      jump\t// in\n    tag_116:\n      0x07\n      dup3\n      add\n      0x00\n      swap1\n      sstore\n      pop\n      pop\n        /* \"contracts/Profile.sol\":5015:5107  function delInformaion() external  {\r... */\n      jump\t// out\n        /* \"contracts/Profile.sol\":380:420  mapping (address => Bio) public  profile */\n    tag_48:\n      mstore(0x20, 0x00)\n      dup1\n      0x00\n      mstore\n      keccak256(0x00, 0x40)\n      0x00\n      swap2\n      pop\n      swap1\n      pop\n      dup1\n      0x00\n      add\n      mload(0x40)\n      dup1\n      0x0100\n      add\n      0x40\n      mstore\n      swap1\n      dup2\n      0x00\n      dup3\n      add\n      dup1\n      sload\n      tag_117\n      swap1\n      tag_118\n      jump\t// in\n    tag_117:\n      dup1\n      0x1f\n      add\n      0x20\n      dup1\n      swap2\n      div\n      mul\n      0x20\n      add\n      mload(0x40)\n      swap1\n      dup2\n      add\n      0x40\n      mstore\n      dup1\n      swap3\n      swap2\n      swap1\n      dup2\n      dup2\n      mstore\n      0x20\n      add\n      dup3\n      dup1\n      sload\n      tag_119\n      swap1\n      tag_118\n      jump\t// in\n    tag_119:\n      dup1\n      iszero\n      tag_120\n      jumpi\n      dup1\n      0x1f\n      lt\n      tag_121\n      jumpi\n      0x0100\n      dup1\n      dup4\n      sload\n      div\n      mul\n      dup4\n      mstore\n      swap2\n      0x20\n      add\n      swap2\n      jump(tag_120)\n    tag_121:\n      dup3\n      add\n      swap2\n      swap1\n      0x00\n      mstore\n      keccak256(0x00, 0x20)\n      swap1\n    tag_122:\n      dup2\n      sload\n      dup2\n      mstore\n      swap1\n      0x01\n      add\n      swap1\n      0x20\n      add\n      dup1\n      dup4\n      gt\n      tag_122\n      jumpi\n      dup3\n      swap1\n      sub\n      0x1f\n      and\n      dup3\n      add\n      swap2\n    tag_120:\n      pop\n      pop\n      pop\n      pop\n      pop\n      dup2\n      mstore\n      0x20\n      add\n      0x01\n      dup3\n      add\n      dup1\n      sload\n      tag_123\n      swap1\n      tag_118\n      jump\t// in\n    tag_123:\n      dup1\n      0x1f\n      add\n      0x20\n      dup1\n      swap2\n      div\n      mul\n      0x20\n      add\n      mload(0x40)\n      swap1\n      dup2\n      add\n      0x40\n      mstore\n      dup1\n      swap3\n      swap2\n      swap1\n      dup2\n      dup2\n      mstore\n      0x20\n      add\n      dup3\n      dup1\n      sload\n      tag_124\n      swap1\n      tag_118\n      jump\t// in\n    tag_124:\n      dup1\n      iszero\n      tag_125\n      jumpi\n      dup1\n      0x1f\n      lt\n      tag_126\n      jumpi\n      0x0100\n      dup1\n      dup4\n      sload\n      div\n      mul\n      dup4\n      mstore\n      swap2\n      0x20\n      add\n      swap2\n      jump(tag_125)\n    tag_126:\n      dup3\n      add\n      swap2\n      swap1\n      0x00\n      mstore\n      keccak256(0x00, 0x20)\n      swap1\n    tag_127:\n      dup2\n      sload\n      dup2\n      mstore\n      swap1\n      0x01\n      add\n      swap1\n      0x20\n      add\n      dup1\n      dup4\n      gt\n      tag_127\n      jumpi\n      dup3\n      swap1\n      sub\n      0x1f\n      and\n      dup3\n      add\n      swap2\n    tag_125:\n      pop\n      pop\n      pop\n      pop\n      pop\n      dup2\n      mstore\n      0x20\n      add\n      0x02\n      dup3\n      add\n      0x00\n      swap1\n      sload\n      swap1\n      0x0100\n      exp\n      swap1\n      div\n      0xffffffffffffffffffffffffffffffffffffffff\n      and\n      0xffffffffffffffffffffffffffffffffffffffff\n      and\n      0xffffffffffffffffffffffffffffffffffffffff\n      and\n      dup2\n      mstore\n      0x20\n      add\n      0x03\n      dup3\n      add\n      dup1\n      sload\n      tag_128\n      swap1\n      tag_118\n      jump\t// in\n    tag_128:\n      dup1\n      0x1f\n      add\n      0x20\n      dup1\n      swap2\n      div\n      mul\n      0x20\n      add\n      mload(0x40)\n      swap1\n      dup2\n      add\n      0x40\n      mstore\n      dup1\n      swap3\n      swap2\n      swap1\n      dup2\n      dup2\n      mstore\n      0x20\n      add\n      dup3\n      dup1\n      sload\n      tag_129\n      swap1\n      tag_118\n      jump\t// in\n    tag_129:\n      dup1\n      iszero\n      tag_130\n      jumpi\n      dup1\n      0x1f\n      lt\n      tag_131\n      jumpi\n      0x0100\n      dup1\n      dup4\n      sload\n      div\n      mul\n      dup4\n      mstore\n      swap2\n      0x20\n      add\n      swap2\n      jump(tag_130)\n    tag_131:\n      dup3\n      add\n      swap2\n      swap1\n      0x00\n      mstore\n      keccak256(0x00, 0x20)\n      swap1\n    tag_132:\n      dup2\n      sload\n      dup2\n      mstore\n      swap1\n      0x01\n      add\n      swap1\n      0x20\n      add\n      dup1\n      dup4\n      gt\n      tag_132\n      jumpi\n      dup3\n      swap1\n      sub\n      0x1f\n      and\n      dup3\n      add\n      swap2\n    tag_130:\n      pop\n      pop\n      pop\n      pop\n      pop\n      dup2\n      mstore\n      0x20\n      add\n      0x04\n      dup3\n      add\n      dup1\n      sload\n      tag_133\n      swap1\n      tag_118\n      jump\t// in\n    tag_133:\n      dup1\n      0x1f\n      add\n      0x20\n      dup1\n      swap2\n      div\n      mul\n      0x20\n      add\n      mload(0x40)\n      swap1\n      dup2\n      add\n      0x40\n      mstore\n      dup1\n      swap3\n      swap2\n      swap1\n      dup2\n      dup2\n      mstore\n      0x20\n      add\n      dup3\n      dup1\n      sload\n      tag_134\n      swap1\n      tag_118\n      jump\t// in\n    tag_134:\n      dup1\n      iszero\n      tag_135\n      jumpi\n      dup1\n      0x1f\n      lt\n      tag_136\n      jumpi\n      0x0100\n      dup1\n      dup4\n      sload\n      div\n      mul\n      dup4\n      mstore\n      swap2\n      0x20\n      add\n      swap2\n      jump(tag_135)\n    tag_136:\n      dup3\n      add\n      swap2\n      swap1\n      0x00\n      mstore\n      keccak256(0x00, 0x20)\n      swap1\n    tag_137:\n      dup2\n      sload\n      dup2\n      mstore\n      swap1\n      0x01\n      add\n      swap1\n      0x20\n      add\n      dup1\n      dup4\n      gt\n      tag_137\n      jumpi\n      dup3\n      swap1\n      sub\n      0x1f\n      and\n      dup3\n      add\n      swap2\n    tag_135:\n      pop\n      pop\n      pop\n      pop\n      pop\n      dup2\n      mstore\n      0x20\n      add\n      0x05\n      dup3\n      add\n      dup1\n      sload\n      tag_138\n      swap1\n      tag_118\n      jump\t// in\n    tag_138:\n      dup1\n      0x1f\n      add\n      0x20\n      dup1\n      swap2\n      div\n      mul\n      0x20\n      add\n      mload(0x40)\n      swap1\n      dup2\n      add\n      0x40\n      mstore\n      dup1\n      swap3\n      swap2\n      swap1\n      dup2\n      dup2\n      mstore\n      0x20\n      add\n      dup3\n      dup1\n      sload\n      tag_139\n      swap1\n      tag_118\n      jump\t// in\n    tag_139:\n      dup1\n      iszero\n      tag_140\n      jumpi\n      dup1\n      0x1f\n      lt\n      tag_141\n      jumpi\n      0x0100\n      dup1\n      dup4\n      sload\n      div\n      mul\n      dup4\n      mstore\n      swap2\n      0x20\n      add\n      swap2\n      jump(tag_140)\n    tag_141:\n      dup3\n      add\n      swap2\n      swap1\n      0x00\n      mstore\n      keccak256(0x00, 0x20)\n      swap1\n    tag_142:\n      dup2\n      sload\n      dup2\n      mstore\n      swap1\n      0x01\n      add\n      swap1\n      0x20\n      add\n      dup1\n      dup4\n      gt\n      tag_142\n      jumpi\n      dup3\n      swap1\n      sub\n      0x1f\n      and\n      dup3\n      add\n      swap2\n    tag_140:\n      pop\n      pop\n      pop\n      pop\n      pop\n      dup2\n      mstore\n      0x20\n      add\n      0x06\n      dup3\n      add\n      dup1\n      sload\n      tag_143\n      swap1\n      tag_118\n      jump\t// in\n    tag_143:\n      dup1\n      0x1f\n      add\n      0x20\n      dup1\n      swap2\n      div\n      mul\n      0x20\n      add\n      mload(0x40)\n      swap1\n      dup2\n      add\n      0x40\n      mstore\n      dup1\n      swap3\n      swap2\n      swap1\n      dup2\n      dup2\n      mstore\n      0x20\n      add\n      dup3\n      dup1\n      sload\n      tag_144\n      swap1\n      tag_118\n      jump\t// in\n    tag_144:\n      dup1\n      iszero\n      tag_145\n      jumpi\n      dup1\n      0x1f\n      lt\n      tag_146\n      jumpi\n      0x0100\n      dup1\n      dup4\n      sload\n      div\n      mul\n      dup4\n      mstore\n      swap2\n      0x20\n      add\n      swap2\n      jump(tag_145)\n    tag_146:\n      dup3\n      add\n      swap2\n      swap1\n      0x00\n      mstore\n      keccak256(0x00, 0x20)\n      swap1\n    tag_147:\n      dup2\n      sload\n      dup2\n      mstore\n      swap1\n      0x01\n      add\n      swap1\n      0x20\n      add\n      dup1\n      dup4\n      gt\n      tag_147\n      jumpi\n      dup3\n      swap1\n      sub\n      0x1f\n      and\n      dup3\n      add\n      swap2\n    tag_145:\n      pop\n      pop\n      pop\n      pop\n      pop\n      dup2\n      mstore\n      0x20\n      add\n      0x07\n      dup3\n      add\n      sload\n      dup2\n      mstore\n      pop\n      pop\n      swap1\n      dup1\n      0x08\n      add\n      mload(0x40)\n      dup1\n      0xc0\n      add\n      0x40\n      mstore\n      swap1\n      dup2\n      0x00\n      dup3\n      add\n      dup1\n      sload\n      tag_148\n      swap1\n      tag_118\n      jump\t// in\n    tag_148:\n      dup1\n      0x1f\n      add\n      0x20\n      dup1\n      swap2\n      div\n      mul\n      0x20\n      add\n      mload(0x40)\n      swap1\n      dup2\n      add\n      0x40\n      mstore\n      dup1\n      swap3\n      swap2\n      swap1\n      dup2\n      dup2\n      mstore\n      0x20\n      add\n      dup3\n      dup1\n      sload\n      tag_149\n      swap1\n      tag_118\n      jump\t// in\n    tag_149:\n      dup1\n      iszero\n      tag_150\n      jumpi\n      dup1\n      0x1f\n      lt\n      tag_151\n      jumpi\n      0x0100\n      dup1\n      dup4\n      sload\n      div\n      mul\n      dup4\n      mstore\n      swap2\n      0x20\n      add\n      swap2\n      jump(tag_150)\n    tag_151:\n      dup3\n      add\n      swap2\n      swap1\n      0x00\n      mstore\n      keccak256(0x00, 0x20)\n      swap1\n    tag_152:\n      dup2\n      sload\n      dup2\n      mstore\n      swap1\n      0x01\n      add\n      swap1\n      0x20\n      add\n      dup1\n      dup4\n      gt\n      tag_152\n      jumpi\n      dup3\n      swap1\n      sub\n      0x1f\n      and\n      dup3\n      add\n      swap2\n    tag_150:\n      pop\n      pop\n      pop\n      pop\n      pop\n      dup2\n      mstore\n      0x20\n      add\n      0x01\n      dup3\n      add\n      dup1\n      sload\n      tag_153\n      swap1\n      tag_118\n      jump\t// in\n    tag_153:\n      dup1\n      0x1f\n      add\n      0x20\n      dup1\n      swap2\n      div\n      mul\n      0x20\n      add\n      mload(0x40)\n      swap1\n      dup2\n      add\n      0x40\n      mstore\n      dup1\n      swap3\n      swap2\n      swap1\n      dup2\n      dup2\n      mstore\n      0x20\n      add\n      dup3\n      dup1\n      sload\n      tag_154\n      swap1\n      tag_118\n      jump\t// in\n    tag_154:\n      dup1\n      iszero\n      tag_155\n      jumpi\n      dup1\n      0x1f\n      lt\n      tag_156\n      jumpi\n      0x0100\n      dup1\n      dup4\n      sload\n      div\n      mul\n      dup4\n      mstore\n      swap2\n      0x20\n      add\n      swap2\n      jump(tag_155)\n    tag_156:\n      dup3\n      add\n      swap2\n      swap1\n      0x00\n      mstore\n      keccak256(0x00, 0x20)\n      swap1\n    tag_157:\n      dup2\n      sload\n      dup2\n      mstore\n      swap1\n      0x01\n      add\n      swap1\n      0x20\n      add\n      dup1\n      dup4\n      gt\n      tag_157\n      jumpi\n      dup3\n      swap1\n      sub\n      0x1f\n      and\n      dup3\n      add\n      swap2\n    tag_155:\n      pop\n      pop\n      pop\n      pop\n      pop\n      dup2\n      mstore\n      0x20\n      add\n      0x02\n      dup3\n      add\n      dup1\n      sload\n      tag_158\n      swap1\n      tag_118\n      jump\t// in\n    tag_158:\n      dup1\n      0x1f\n      add\n      0x20\n      dup1\n      swap2\n      div\n      mul\n      0x20\n      add\n      mload(0x40)\n      swap1\n      dup2\n      add\n      0x40\n      mstore\n      dup1\n      swap3\n      swap2\n      swap1\n      dup2\n      dup2\n      mstore\n      0x20\n      add\n      dup3\n      dup1\n      sload\n      tag_159\n      swap1\n      tag_118\n      jump\t// in\n    tag_159:\n      dup1\n      iszero\n      tag_160\n      jumpi\n      dup1\n      0x1f\n      lt\n      tag_161\n      jumpi\n      0x0100\n      dup1\n      dup4\n      sload\n      div\n      mul\n      dup4\n      mstore\n      swap2\n      0x20\n      add\n      swap2\n      jump(tag_160)\n    tag_161:\n      dup3\n      add\n      swap2\n      swap1\n      0x00\n      mstore\n      keccak256(0x00, 0x20)\n      swap1\n    tag_162:\n      dup2\n      sload\n      dup2\n      mstore\n      swap1\n      0x01\n      add\n      swap1\n      0x20\n      add\n      dup1\n      dup4\n      gt\n      tag_162\n      jumpi\n      dup3\n      swap1\n      sub\n      0x1f\n      and\n      dup3\n      add\n      swap2\n    tag_160:\n      pop\n      pop\n      pop\n      pop\n      pop\n      dup2\n      mstore\n      0x20\n      add\n      0x03\n      dup3\n      add\n      dup1\n      sload\n      tag_163\n      swap1\n      tag_118\n      jump\t// in\n    tag_163:\n      dup1\n      0x1f\n      add\n      0x20\n      dup1\n      swap2\n      div\n      mul\n      0x20\n      add\n      mload(0x40)\n      swap1\n      dup2\n      add\n      0x40\n      mstore\n      dup1\n      swap3\n      swap2\n      swap1\n      dup2\n      dup2\n      mstore\n      0x20\n      add\n      dup3\n      dup1\n      sload\n      tag_164\n      swap1\n      tag_118\n      jump\t// in\n    tag_164:\n      dup1\n      iszero\n      tag_165\n      jumpi\n      dup1\n      0x1f\n      lt\n      tag_166\n      jumpi\n      0x0100\n      dup1\n      dup4\n      sload\n      div\n      mul\n      dup4\n      mstore\n      swap2\n      0x20\n      add\n      swap2\n      jump(tag_165)\n    tag_166:\n      dup3\n      add\n      swap2\n      swap1\n      0x00\n      mstore\n      keccak256(0x00, 0x20)\n      swap1\n    tag_167:\n      dup2\n      sload\n      dup2\n      mstore\n      swap1\n      0x01\n      add\n      swap1\n      0x20\n      add\n      dup1\n      dup4\n      gt\n      tag_167\n      jumpi\n      dup3\n      swap1\n      sub\n      0x1f\n      and\n      dup3\n      add\n      swap2\n    tag_165:\n      pop\n      pop\n      pop\n      pop\n      pop\n      dup2\n      mstore\n      0x20\n      add\n      0x04\n      dup3\n      add\n      dup1\n      sload\n      tag_168\n      swap1\n      tag_118\n      jump\t// in\n    tag_168:\n      dup1\n      0x1f\n      add\n      0x20\n      dup1\n      swap2\n      div\n      mul\n      0x20\n      add\n      mload(0x40)\n      swap1\n      dup2\n      add\n      0x40\n      mstore\n      dup1\n      swap3\n      swap2\n      swap1\n      dup2\n      dup2\n      mstore\n      0x20\n      add\n      dup3\n      dup1\n      sload\n      tag_169\n      swap1\n      tag_118\n      jump\t// in\n    tag_169:\n      dup1\n      iszero\n      tag_170\n      jumpi\n      dup1\n      0x1f\n      lt\n      tag_171\n      jumpi\n      0x0100\n      dup1\n      dup4\n      sload\n      div\n      mul\n      dup4\n      mstore\n      swap2\n      0x20\n      add\n      swap2\n      jump(tag_170)\n    tag_171:\n      dup3\n      add\n      swap2\n      swap1\n      0x00\n      mstore\n      keccak256(0x00, 0x20)\n      swap1\n    tag_172:\n      dup2\n      sload\n      dup2\n      mstore\n      swap1\n      0x01\n      add\n      swap1\n      0x20\n      add\n      dup1\n      dup4\n      gt\n      tag_172\n      jumpi\n      dup3\n      swap1\n      sub\n      0x1f\n      and\n      dup3\n      add\n      swap2\n    tag_170:\n      pop\n      pop\n      pop\n      pop\n      pop\n      dup2\n      mstore\n      0x20\n      add\n      0x05\n      dup3\n      add\n      dup1\n      sload\n      tag_173\n      swap1\n      tag_118\n      jump\t// in\n    tag_173:\n      dup1\n      0x1f\n      add\n      0x20\n      dup1\n      swap2\n      div\n      mul\n      0x20\n      add\n      mload(0x40)\n      swap1\n      dup2\n      add\n      0x40\n      mstore\n      dup1\n      swap3\n      swap2\n      swap1\n      dup2\n      dup2\n      mstore\n      0x20\n      add\n      dup3\n      dup1\n      sload\n      tag_174\n      swap1\n      tag_118\n      jump\t// in\n    tag_174:\n      dup1\n      iszero\n      tag_175\n      jumpi\n      dup1\n      0x1f\n      lt\n      tag_176\n      jumpi\n      0x0100\n      dup1\n      dup4\n      sload\n      div\n      mul\n      dup4\n      mstore\n      swap2\n      0x20\n      add\n      swap2\n      jump(tag_175)\n    tag_176:\n      dup3\n      add\n      swap2\n      swap1\n      0x00\n      mstore\n      keccak256(0x00, 0x20)\n      swap1\n    tag_177:\n      dup2\n      sload\n      dup2\n      mstore\n      swap1\n      0x01\n      add\n      swap1\n      0x20\n      add\n      dup1\n      dup4\n      gt\n      tag_177\n      jumpi\n      dup3\n      swap1\n      sub\n      0x1f\n      and\n      dup3\n      add\n      swap2\n    tag_175:\n      pop\n      pop\n      pop\n      pop\n      pop\n      dup2\n      mstore\n      pop\n      pop\n      swap1\n      dup1\n      0x0e\n      add\n      mload(0x40)\n      dup1\n      0x60\n      add\n      0x40\n      mstore\n      swap1\n      dup2\n      0x00\n      dup3\n      add\n      dup1\n      sload\n      dup1\n      0x20\n      mul\n      0x20\n      add\n      mload(0x40)\n      swap1\n      dup2\n      add\n      0x40\n      mstore\n      dup1\n      swap3\n      swap2\n      swap1\n      dup2\n      dup2\n      mstore\n      0x20\n      add\n      0x00\n      swap1\n    tag_178:\n      dup3\n      dup3\n      lt\n      iszero\n      tag_179\n      jumpi\n      dup4\n      dup3\n      swap1\n      0x00\n      mstore\n      keccak256(0x00, 0x20)\n      add\n      dup1\n      sload\n      tag_181\n      swap1\n      tag_118\n      jump\t// in\n    tag_181:\n      dup1\n      0x1f\n      add\n      0x20\n      dup1\n      swap2\n      div\n      mul\n      0x20\n      add\n      mload(0x40)\n      swap1\n      dup2\n      add\n      0x40\n      mstore\n      dup1\n      swap3\n      swap2\n      swap1\n      dup2\n      dup2\n      mstore\n      0x20\n      add\n      dup3\n      dup1\n      sload\n      tag_182\n      swap1\n      tag_118\n      jump\t// in\n    tag_182:\n      dup1\n      iszero\n      tag_183\n      jumpi\n      dup1\n      0x1f\n      lt\n      tag_184\n      jumpi\n      0x0100\n      dup1\n      dup4\n      sload\n      div\n      mul\n      dup4\n      mstore\n      swap2\n      0x20\n      add\n      swap2\n      jump(tag_183)\n    tag_184:\n      dup3\n      add\n      swap2\n      swap1\n      0x00\n      mstore\n      keccak256(0x00, 0x20)\n      swap1\n    tag_185:\n      dup2\n      sload\n      dup2\n      mstore\n      swap1\n      0x01\n      add\n      swap1\n      0x20\n      add\n      dup1\n      dup4\n      gt\n      tag_185\n      jumpi\n      dup3\n      swap1\n      sub\n      0x1f\n      and\n      dup3\n      add\n      swap2\n    tag_183:\n      pop\n      pop\n      pop\n      pop\n      pop\n      dup2\n      mstore\n      0x20\n      add\n      swap1\n      0x01\n      add\n      swap1\n      jump(tag_178)\n    tag_179:\n      pop\n      pop\n      pop\n      pop\n      dup2\n      mstore\n      0x20\n      add\n      0x01\n      dup3\n      add\n      dup1\n      sload\n      dup1\n      0x20\n      mul\n      0x20\n      add\n      mload(0x40)\n      swap1\n      dup2\n      add\n      0x40\n      mstore\n      dup1\n      swap3\n      swap2\n      swap1\n      dup2\n      dup2\n      mstore\n      0x20\n      add\n      0x00\n      swap1\n    tag_186:\n      dup3\n      dup3\n      lt\n      iszero\n      tag_187\n      jumpi\n      dup4\n      dup3\n      swap1\n      0x00\n      mstore\n      keccak256(0x00, 0x20)\n      add\n      dup1\n      sload\n      tag_189\n      swap1\n      tag_118\n      jump\t// in\n    tag_189:\n      dup1\n      0x1f\n      add\n      0x20\n      dup1\n      swap2\n      div\n      mul\n      0x20\n      add\n      mload(0x40)\n      swap1\n      dup2\n      add\n      0x40\n      mstore\n      dup1\n      swap3\n      swap2\n      swap1\n      dup2\n      dup2\n      mstore\n      0x20\n      add\n      dup3\n      dup1\n      sload\n      tag_190\n      swap1\n      tag_118\n      jump\t// in\n    tag_190:\n      dup1\n      iszero\n      tag_191\n      jumpi\n      dup1\n      0x1f\n      lt\n      tag_192\n      jumpi\n      0x0100\n      dup1\n      dup4\n      sload\n      div\n      mul\n      dup4\n      mstore\n      swap2\n      0x20\n      add\n      swap2\n      jump(tag_191)\n    tag_192:\n      dup3\n      add\n      swap2\n      swap1\n      0x00\n      mstore\n      keccak256(0x00, 0x20)\n      swap1\n    tag_193:\n      dup2\n      sload\n      dup2\n      mstore\n      swap1\n      0x01\n      add\n      swap1\n      0x20\n      add\n      dup1\n      dup4\n      gt\n      tag_193\n      jumpi\n      dup3\n      swap1\n      sub\n      0x1f\n      and\n      dup3\n      add\n      swap2\n    tag_191:\n      pop\n      pop\n      pop\n      pop\n      pop\n      dup2\n      mstore\n      0x20\n      add\n      swap1\n      0x01\n      add\n      swap1\n      jump(tag_186)\n    tag_187:\n      pop\n      pop\n      pop\n      pop\n      dup2\n      mstore\n      0x20\n      add\n      0x02\n      dup3\n      add\n      dup1\n      sload\n      dup1\n      0x20\n      mul\n      0x20\n      add\n      mload(0x40)\n      swap1\n      dup2\n      add\n      0x40\n      mstore\n      dup1\n      swap3\n      swap2\n      swap1\n      dup2\n      dup2\n      mstore\n      0x20\n      add\n      0x00\n      swap1\n    tag_194:\n      dup3\n      dup3\n      lt\n      iszero\n      tag_195\n      jumpi\n      dup4\n      dup3\n      swap1\n      0x00\n      mstore\n      keccak256(0x00, 0x20)\n      add\n      dup1\n      sload\n      tag_197\n      swap1\n      tag_118\n      jump\t// in\n    tag_197:\n      dup1\n      0x1f\n      add\n      0x20\n      dup1\n      swap2\n      div\n      mul\n      0x20\n      add\n      mload(0x40)\n      swap1\n      dup2\n      add\n      0x40\n      mstore\n      dup1\n      swap3\n      swap2\n      swap1\n      dup2\n      dup2\n      mstore\n      0x20\n      add\n      dup3\n      dup1\n      sload\n      tag_198\n      swap1\n      tag_118\n      jump\t// in\n    tag_198:\n      dup1\n      iszero\n      tag_199\n      jumpi\n      dup1\n      0x1f\n      lt\n      tag_200\n      jumpi\n      0x0100\n      dup1\n      dup4\n      sload\n      div\n      mul\n      dup4\n      mstore\n      swap2\n      0x20\n      add\n      swap2\n      jump(tag_199)\n    tag_200:\n      dup3\n      add\n      swap2\n      swap1\n      0x00\n      mstore\n      keccak256(0x00, 0x20)\n      swap1\n    tag_201:\n      dup2\n      sload\n      dup2\n      mstore\n      swap1\n      0x01\n      add\n      swap1\n      0x20\n      add\n      dup1\n      dup4\n      gt\n      tag_201\n      jumpi\n      dup3\n      swap1\n      sub\n      0x1f\n      and\n      dup3\n      add\n      swap2\n    tag_199:\n      pop\n      pop\n      pop\n      pop\n      pop\n      dup2\n      mstore\n      0x20\n      add\n      swap1\n      0x01\n      add\n      swap1\n      jump(tag_194)\n    tag_195:\n      pop\n      pop\n      pop\n      pop\n      dup2\n      mstore\n      pop\n      pop\n      swap1\n      dup1\n      0x12\n      add\n      mload(0x40)\n      dup1\n      0x40\n      add\n      0x40\n      mstore\n      swap1\n      dup2\n      0x00\n      dup3\n      add\n      dup1\n      sload\n      dup1\n      0x20\n      mul\n      0x20\n      add\n      mload(0x40)\n      swap1\n      dup2\n      add\n      0x40\n      mstore\n      dup1\n      swap3\n      swap2\n      swap1\n      dup2\n      dup2\n      mstore\n      0x20\n      add\n      0x00\n      swap1\n    tag_202:\n      dup3\n      dup3\n      lt\n      iszero\n      tag_203\n      jumpi\n      dup4\n      dup3\n      swap1\n      0x00\n      mstore\n      keccak256(0x00, 0x20)\n      add\n      dup1\n      sload\n      tag_205\n      swap1\n      tag_118\n      jump\t// in\n    tag_205:\n      dup1\n      0x1f\n      add\n      0x20\n      dup1\n      swap2\n      div\n      mul\n      0x20\n      add\n      mload(0x40)\n      swap1\n      dup2\n      add\n      0x40\n      mstore\n      dup1\n      swap3\n      swap2\n      swap1\n      dup2\n      dup2\n      mstore\n      0x20\n      add\n      dup3\n      dup1\n      sload\n      tag_206\n      swap1\n      tag_118\n      jump\t// in\n    tag_206:\n      dup1\n      iszero\n      tag_207\n      jumpi\n      dup1\n      0x1f\n      lt\n      tag_208\n      jumpi\n      0x0100\n      dup1\n      dup4\n      sload\n      div\n      mul\n      dup4\n      mstore\n      swap2\n      0x20\n      add\n      swap2\n      jump(tag_207)\n    tag_208:\n      dup3\n      add\n      swap2\n      swap1\n      0x00\n      mstore\n      keccak256(0x00, 0x20)\n      swap1\n    tag_209:\n      dup2\n      sload\n      dup2\n      mstore\n      swap1\n      0x01\n      add\n      swap1\n      0x20\n      add\n      dup1\n      dup4\n      gt\n      tag_209\n      jumpi\n      dup3\n      swap1\n      sub\n      0x1f\n      and\n      dup3\n      add\n      swap2\n    tag_207:\n      pop\n      pop\n      pop\n      pop\n      pop\n      dup2\n      mstore\n      0x20\n      add\n      swap1\n      0x01\n      add\n      swap1\n      jump(tag_202)\n    tag_203:\n      pop\n      pop\n      pop\n      pop\n      dup2\n      mstore\n      0x20\n      add\n      0x01\n      dup3\n      add\n      dup1\n      sload\n      dup1\n      0x20\n      mul\n      0x20\n      add\n      mload(0x40)\n      swap1\n      dup2\n      add\n      0x40\n      mstore\n      dup1\n      swap3\n      swap2\n      swap1\n      dup2\n      dup2\n      mstore\n      0x20\n      add\n      0x00\n      swap1\n    tag_210:\n      dup3\n      dup3\n      lt\n      iszero\n      tag_211\n      jumpi\n      dup4\n      dup3\n      swap1\n      0x00\n      mstore\n      keccak256(0x00, 0x20)\n      add\n      dup1\n      sload\n      tag_213\n      swap1\n      tag_118\n      jump\t// in\n    tag_213:\n      dup1\n      0x1f\n      add\n      0x20\n      dup1\n      swap2\n      div\n      mul\n      0x20\n      add\n      mload(0x40)\n      swap1\n      dup2\n      add\n      0x40\n      mstore\n      dup1\n      swap3\n      swap2\n      swap1\n      dup2\n      dup2\n      mstore\n      0x20\n      add\n      dup3\n      dup1\n      sload\n      tag_214\n      swap1\n      tag_118\n      jump\t// in\n    tag_214:\n      dup1\n      iszero\n      tag_215\n      jumpi\n      dup1\n      0x1f\n      lt\n      tag_216\n      jumpi\n      0x0100\n      dup1\n      dup4\n      sload\n      div\n      mul\n      dup4\n      mstore\n      swap2\n      0x20\n      add\n      swap2\n      jump(tag_215)\n    tag_216:\n      dup3\n      add\n      swap2\n      swap1\n      0x00\n      mstore\n      keccak256(0x00, 0x20)\n      swap1\n    tag_217:\n      dup2\n      sload\n      dup2\n      mstore\n      swap1\n      0x01\n      add\n      swap1\n      0x20\n      add\n      dup1\n      dup4\n      gt\n      tag_217\n      jumpi\n      dup3\n      swap1\n      sub\n      0x1f\n      and\n      dup3\n      add\n      swap2\n    tag_215:\n      pop\n      pop\n      pop\n      pop\n      pop\n      dup2\n      mstore\n      0x20\n      add\n      swap1\n      0x01\n      add\n      swap1\n      jump(tag_210)\n    tag_211:\n      pop\n      pop\n      pop\n      pop\n      dup2\n      mstore\n      pop\n      pop\n      swap1\n      dup1\n      0x14\n      add\n      mload(0x40)\n      dup1\n      0xa0\n      add\n      0x40\n      mstore\n      swap1\n      dup2\n      0x00\n      dup3\n      add\n      dup1\n      sload\n      tag_218\n      swap1\n      tag_118\n      jump\t// in\n    tag_218:\n      dup1\n      0x1f\n      add\n      0x20\n      dup1\n      swap2\n      div\n      mul\n      0x20\n      add\n      mload(0x40)\n      swap1\n      dup2\n      add\n      0x40\n      mstore\n      dup1\n      swap3\n      swap2\n      swap1\n      dup2\n      dup2\n      mstore\n      0x20\n      add\n      dup3\n      dup1\n      sload\n      tag_219\n      swap1\n      tag_118\n      jump\t// in\n    tag_219:\n      dup1\n      iszero\n      tag_220\n      jumpi\n      dup1\n      0x1f\n      lt\n      tag_221\n      jumpi\n      0x0100\n      dup1\n      dup4\n      sload\n      div\n      mul\n      dup4\n      mstore\n      swap2\n      0x20\n      add\n      swap2\n      jump(tag_220)\n    tag_221:\n      dup3\n      add\n      swap2\n      swap1\n      0x00\n      mstore\n      keccak256(0x00, 0x20)\n      swap1\n    tag_222:\n      dup2\n      sload\n      dup2\n      mstore\n      swap1\n      0x01\n      add\n      swap1\n      0x20\n      add\n      dup1\n      dup4\n      gt\n      tag_222\n      jumpi\n      dup3\n      swap1\n      sub\n      0x1f\n      and\n      dup3\n      add\n      swap2\n    tag_220:\n      pop\n      pop\n      pop\n      pop\n      pop\n      dup2\n      mstore\n      0x20\n      add\n      0x01\n      dup3\n      add\n      dup1\n      sload\n      tag_223\n      swap1\n      tag_118\n      jump\t// in\n    tag_223:\n      dup1\n      0x1f\n      add\n      0x20\n      dup1\n      swap2\n      div\n      mul\n      0x20\n      add\n      mload(0x40)\n      swap1\n      dup2\n      add\n      0x40\n      mstore\n      dup1\n      swap3\n      swap2\n      swap1\n      dup2\n      dup2\n      mstore\n      0x20\n      add\n      dup3\n      dup1\n      sload\n      tag_224\n      swap1\n      tag_118\n      jump\t// in\n    tag_224:\n      dup1\n      iszero\n      tag_225\n      jumpi\n      dup1\n      0x1f\n      lt\n      tag_226\n      jumpi\n      0x0100\n      dup1\n      dup4\n      sload\n      div\n      mul\n      dup4\n      mstore\n      swap2\n      0x20\n      add\n      swap2\n      jump(tag_225)\n    tag_226:\n      dup3\n      add\n      swap2\n      swap1\n      0x00\n      mstore\n      keccak256(0x00, 0x20)\n      swap1\n    tag_227:\n      dup2\n      sload\n      dup2\n      mstore\n      swap1\n      0x01\n      add\n      swap1\n      0x20\n      add\n      dup1\n      dup4\n      gt\n      tag_227\n      jumpi\n      dup3\n      swap1\n      sub\n      0x1f\n      and\n      dup3\n      add\n      swap2\n    tag_225:\n      pop\n      pop\n      pop\n      pop\n      pop\n      dup2\n      mstore\n      0x20\n      add\n      0x02\n      dup3\n      add\n      dup1\n      sload\n      tag_228\n      swap1\n      tag_118\n      jump\t// in\n    tag_228:\n      dup1\n      0x1f\n      add\n      0x20\n      dup1\n      swap2\n      div\n      mul\n      0x20\n      add\n      mload(0x40)\n      swap1\n      dup2\n      add\n      0x40\n      mstore\n      dup1\n      swap3\n      swap2\n      swap1\n      dup2\n      dup2\n      mstore\n      0x20\n      add\n      dup3\n      dup1\n      sload\n      tag_229\n      swap1\n      tag_118\n      jump\t// in\n    tag_229:\n      dup1\n      iszero\n      tag_230\n      jumpi\n      dup1\n      0x1f\n      lt\n      tag_231\n      jumpi\n      0x0100\n      dup1\n      dup4\n      sload\n      div\n      mul\n      dup4\n      mstore\n      swap2\n      0x20\n      add\n      swap2\n      jump(tag_230)\n    tag_231:\n      dup3\n      add\n      swap2\n      swap1\n      0x00\n      mstore\n      keccak256(0x00, 0x20)\n      swap1\n    tag_232:\n      dup2\n      sload\n      dup2\n      mstore\n      swap1\n      0x01\n      add\n      swap1\n      0x20\n      add\n      dup1\n      dup4\n      gt\n      tag_232\n      jumpi\n      dup3\n      swap1\n      sub\n      0x1f\n      and\n      dup3\n      add\n      swap2\n    tag_230:\n      pop\n      pop\n      pop\n      pop\n      pop\n      dup2\n      mstore\n      0x20\n      add\n      0x03\n      dup3\n      add\n      dup1\n      sload\n      tag_233\n      swap1\n      tag_118\n      jump\t// in\n    tag_233:\n      dup1\n      0x1f\n      add\n      0x20\n      dup1\n      swap2\n      div\n      mul\n      0x20\n      add\n      mload(0x40)\n      swap1\n      dup2\n      add\n      0x40\n      mstore\n      dup1\n      swap3\n      swap2\n      swap1\n      dup2\n      dup2\n      mstore\n      0x20\n      add\n      dup3\n      dup1\n      sload\n      tag_234\n      swap1\n      tag_118\n      jump\t// in\n    tag_234:\n      dup1\n      iszero\n      tag_235\n      jumpi\n      dup1\n      0x1f\n      lt\n      tag_236\n      jumpi\n      0x0100\n      dup1\n      dup4\n      sload\n      div\n      mul\n      dup4\n      mstore\n      swap2\n      0x20\n      add\n      swap2\n      jump(tag_235)\n    tag_236:\n      dup3\n      add\n      swap2\n      swap1\n      0x00\n      mstore\n      keccak256(0x00, 0x20)\n      swap1\n    tag_237:\n      dup2\n      sload\n      dup2\n      mstore\n      swap1\n      0x01\n      add\n      swap1\n      0x20\n      add\n      dup1\n      dup4\n      gt\n      tag_237\n      jumpi\n      dup3\n      swap1\n      sub\n      0x1f\n      and\n      dup3\n      add\n      swap2\n    tag_235:\n      pop\n      pop\n      pop\n      pop\n      pop\n      dup2\n      mstore\n      0x20\n      add\n      0x04\n      dup3\n      add\n      dup1\n      sload\n      dup1\n      0x20\n      mul\n      0x20\n      add\n      mload(0x40)\n      swap1\n      dup2\n      add\n      0x40\n      mstore\n      dup1\n      swap3\n      swap2\n      swap1\n      dup2\n      dup2\n      mstore\n      0x20\n      add\n      0x00\n      swap1\n    tag_238:\n      dup3\n      dup3\n      lt\n      iszero\n      tag_239\n      jumpi\n      dup4\n      dup3\n      swap1\n      0x00\n      mstore\n      keccak256(0x00, 0x20)\n      add\n      dup1\n      sload\n      tag_241\n      swap1\n      tag_118\n      jump\t// in\n    tag_241:\n      dup1\n      0x1f\n      add\n      0x20\n      dup1\n      swap2\n      div\n      mul\n      0x20\n      add\n      mload(0x40)\n      swap1\n      dup2\n      add\n      0x40\n      mstore\n      dup1\n      swap3\n      swap2\n      swap1\n      dup2\n      dup2\n      mstore\n      0x20\n      add\n      dup3\n      dup1\n      sload\n      tag_242\n      swap1\n      tag_118\n      jump\t// in\n    tag_242:\n      dup1\n      iszero\n      tag_243\n      jumpi\n      dup1\n      0x1f\n      lt\n      tag_244\n      jumpi\n      0x0100\n      dup1\n      dup4\n      sload\n      div\n      mul\n      dup4\n      mstore\n      swap2\n      0x20\n      add\n      swap2\n      jump(tag_243)\n    tag_244:\n      dup3\n      add\n      swap2\n      swap1\n      0x00\n      mstore\n      keccak256(0x00, 0x20)\n      swap1\n    tag_245:\n      dup2\n      sload\n      dup2\n      mstore\n      swap1\n      0x01\n      add\n      swap1\n      0x20\n      add\n      dup1\n      dup4\n      gt\n      tag_245\n      jumpi\n      dup3\n      swap1\n      sub\n      0x1f\n      and\n      dup3\n      add\n      swap2\n    tag_243:\n      pop\n      pop\n      pop\n      pop\n      pop\n      dup2\n      mstore\n      0x20\n      add\n      swap1\n      0x01\n      add\n      swap1\n      jump(tag_238)\n    tag_239:\n      pop\n      pop\n      pop\n      pop\n      dup2\n      mstore\n      pop\n      pop\n      swap1\n      dup1\n      0x19\n      add\n      mload(0x40)\n      dup1\n      0x40\n      add\n      0x40\n      mstore\n      swap1\n      dup2\n      0x00\n      dup3\n      add\n      dup1\n      sload\n      tag_246\n      swap1\n      tag_118\n      jump\t// in\n    tag_246:\n      dup1\n      0x1f\n      add\n      0x20\n      dup1\n      swap2\n      div\n      mul\n      0x20\n      add\n      mload(0x40)\n      swap1\n      dup2\n      add\n      0x40\n      mstore\n      dup1\n      swap3\n      swap2\n      swap1\n      dup2\n      dup2\n      mstore\n      0x20\n      add\n      dup3\n      dup1\n      sload\n      tag_247\n      swap1\n      tag_118\n      jump\t// in\n    tag_247:\n      dup1\n      iszero\n      tag_248\n      jumpi\n      dup1\n      0x1f\n      lt\n      tag_249\n      jumpi\n      0x0100\n      dup1\n      dup4\n      sload\n      div\n      mul\n      dup4\n      mstore\n      swap2\n      0x20\n      add\n      swap2\n      jump(tag_248)\n    tag_249:\n      dup3\n      add\n      swap2\n      swap1\n      0x00\n      mstore\n      keccak256(0x00, 0x20)\n      swap1\n    tag_250:\n      dup2\n      sload\n      dup2\n      mstore\n      swap1\n      0x01\n      add\n      swap1\n      0x20\n      add\n      dup1\n      dup4\n      gt\n      tag_250\n      jumpi\n      dup3\n      swap1\n      sub\n      0x1f\n      and\n      dup3\n      add\n      swap2\n    tag_248:\n      pop\n      pop\n      pop\n      pop\n      pop\n      dup2\n      mstore\n      0x20\n      add\n      0x01\n      dup3\n      add\n      dup1\n      sload\n      tag_251\n      swap1\n      tag_118\n      jump\t// in\n    tag_251:\n      dup1\n      0x1f\n      add\n      0x20\n      dup1\n      swap2\n      div\n      mul\n      0x20\n      add\n      mload(0x40)\n      swap1\n      dup2\n      add\n      0x40\n      mstore\n      dup1\n      swap3\n      swap2\n      swap1\n      dup2\n      dup2\n      mstore\n      0x20\n      add\n      dup3\n      dup1\n      sload\n      tag_252\n      swap1\n      tag_118\n      jump\t// in\n    tag_252:\n      dup1\n      iszero\n      tag_253\n      jumpi\n      dup1\n      0x1f\n      lt\n      tag_254\n      jumpi\n      0x0100\n      dup1\n      dup4\n      sload\n      div\n      mul\n      dup4\n      mstore\n      swap2\n      0x20\n      add\n      swap2\n      jump(tag_253)\n    tag_254:\n      dup3\n      add\n      swap2\n      swap1\n      0x00\n      mstore\n      keccak256(0x00, 0x20)\n      swap1\n    tag_255:\n      dup2\n      sload\n      dup2\n      mstore\n      swap1\n      0x01\n      add\n      swap1\n      0x20\n      add\n      dup1\n      dup4\n      gt\n      tag_255\n      jumpi\n      dup3\n      swap1\n      sub\n      0x1f\n      and\n      dup3\n      add\n      swap2\n    tag_253:\n      pop\n      pop\n      pop\n      pop\n      pop\n      dup2\n      mstore\n      pop\n      pop\n      swap1\n      pop\n      dup7\n      jump\t// out\n        /* \"contracts/Profile.sol\":4652:4894  function createFreelanceExperience(string[] memory award, string[] memory certificate) public {\r... */\n    tag_53:\n        /* \"contracts/Profile.sol\":4805:4810  award */\n      dup2\n        /* \"contracts/Profile.sol\":4757:4764  profile */\n      0x00\n        /* \"contracts/Profile.sol\":4757:4776  profile[msg.sender] */\n      dup1\n        /* \"contracts/Profile.sol\":4765:4775  msg.sender */\n      caller\n        /* \"contracts/Profile.sol\":4757:4776  profile[msg.sender] */\n      0xffffffffffffffffffffffffffffffffffffffff\n      and\n      0xffffffffffffffffffffffffffffffffffffffff\n      and\n      dup2\n      mstore\n      0x20\n      add\n      swap1\n      dup2\n      mstore\n      0x20\n      add\n      0x00\n      keccak256\n        /* \"contracts/Profile.sol\":4757:4796  profile[msg.sender].certificateAndAward */\n      0x12\n      add\n        /* \"contracts/Profile.sol\":4757:4802  profile[msg.sender].certificateAndAward.award */\n      0x01\n      add\n        /* \"contracts/Profile.sol\":4757:4810  profile[msg.sender].certificateAndAward.award = award */\n      swap1\n      dup1\n      mload\n      swap1\n      0x20\n      add\n      swap1\n      tag_257\n      swap3\n      swap2\n      swap1\n      tag_70\n      jump\t// in\n    tag_257:\n      pop\n        /* \"contracts/Profile.sol\":4875:4886  certificate */\n      dup1\n        /* \"contracts/Profile.sol\":4821:4828  profile */\n      0x00\n        /* \"contracts/Profile.sol\":4821:4840  profile[msg.sender] */\n      dup1\n        /* \"contracts/Profile.sol\":4829:4839  msg.sender */\n      caller\n        /* \"contracts/Profile.sol\":4821:4840  profile[msg.sender] */\n      0xffffffffffffffffffffffffffffffffffffffff\n      and\n      0xffffffffffffffffffffffffffffffffffffffff\n      and\n      dup2\n      mstore\n      0x20\n      add\n      swap1\n      dup2\n      mstore\n      0x20\n      add\n      0x00\n      keccak256\n        /* \"contracts/Profile.sol\":4821:4860  profile[msg.sender].certificateAndAward */\n      0x12\n      add\n        /* \"contracts/Profile.sol\":4821:4872  profile[msg.sender].certificateAndAward.certificate */\n      0x00\n      add\n        /* \"contracts/Profile.sol\":4821:4886  profile[msg.sender].certificateAndAward.certificate = certificate */\n      swap1\n      dup1\n      mload\n      swap1\n      0x20\n      add\n      swap1\n      tag_258\n      swap3\n      swap2\n      swap1\n      tag_70\n      jump\t// in\n    tag_258:\n      pop\n        /* \"contracts/Profile.sol\":4652:4894  function createFreelanceExperience(string[] memory award, string[] memory certificate) public {\r... */\n      pop\n      pop\n      jump\t// out\n        /* \"contracts/Profile.sol\":4915:5007  function delAllEducation() external  {\r... */\n    tag_55:\n        /* \"contracts/Profile.sol\":4970:4977  profile */\n      0x00\n        /* \"contracts/Profile.sol\":4970:4989  profile[msg.sender] */\n      dup1\n        /* \"contracts/Profile.sol\":4978:4988  msg.sender */\n      caller\n        /* \"contracts/Profile.sol\":4970:4989  profile[msg.sender] */\n      0xffffffffffffffffffffffffffffffffffffffff\n      and\n      0xffffffffffffffffffffffffffffffffffffffff\n      and\n      dup2\n      mstore\n      0x20\n      add\n      swap1\n      dup2\n      mstore\n      0x20\n      add\n      0x00\n      keccak256\n        /* \"contracts/Profile.sol\":4970:4999  profile[msg.sender].education */\n      0x11\n      add\n      0x00\n        /* \"contracts/Profile.sol\":4963:4999  delete profile[msg.sender].education */\n      tag_260\n      swap2\n      swap1\n      tag_261\n      jump\t// in\n    tag_260:\n        /* \"contracts/Profile.sol\":4915:5007  function delAllEducation() external  {\r... */\n      jump\t// out\n        /* \"contracts/Profile.sol\":3885:4278  function getEducation(uint index) public view returns(string memory, string memory, string memory, string memory, string memory) {\r... */\n    tag_59:\n        /* \"contracts/Profile.sol\":3939:3952  string memory */\n      0x60\n        /* \"contracts/Profile.sol\":3954:3967  string memory */\n      dup1\n        /* \"contracts/Profile.sol\":3969:3982  string memory */\n      0x60\n        /* \"contracts/Profile.sol\":3984:3997  string memory */\n      dup1\n        /* \"contracts/Profile.sol\":3999:4012  string memory */\n      0x60\n        /* \"contracts/Profile.sol\":4033:4040  profile */\n      0x00\n        /* \"contracts/Profile.sol\":4033:4052  profile[msg.sender] */\n      dup1\n        /* \"contracts/Profile.sol\":4041:4051  msg.sender */\n      caller\n        /* \"contracts/Profile.sol\":4033:4052  profile[msg.sender] */\n      0xffffffffffffffffffffffffffffffffffffffff\n      and\n      0xffffffffffffffffffffffffffffffffffffffff\n      and\n      dup2\n      mstore\n      0x20\n      add\n      swap1\n      dup2\n      mstore\n      0x20\n      add\n      0x00\n      keccak256\n        /* \"contracts/Profile.sol\":4033:4062  profile[msg.sender].education */\n      0x11\n      add\n        /* \"contracts/Profile.sol\":4063:4068  index */\n      dup7\n        /* \"contracts/Profile.sol\":4033:4069  profile[msg.sender].education[index] */\n      dup2\n      sload\n      dup2\n      lt\n      tag_263\n      jumpi\n      tag_264\n      tag_265\n      jump\t// in\n    tag_264:\n    tag_263:\n      swap1\n      0x00\n      mstore\n      keccak256(0x00, 0x20)\n      swap1\n      0x05\n      mul\n      add\n        /* \"contracts/Profile.sol\":4033:4079  profile[msg.sender].education[index].startDate */\n      0x00\n      add\n        /* \"contracts/Profile.sol\":4081:4088  profile */\n      0x00\n        /* \"contracts/Profile.sol\":4081:4100  profile[msg.sender] */\n      dup1\n        /* \"contracts/Profile.sol\":4089:4099  msg.sender */\n      caller\n        /* \"contracts/Profile.sol\":4081:4100  profile[msg.sender] */\n      0xffffffffffffffffffffffffffffffffffffffff\n      and\n      0xffffffffffffffffffffffffffffffffffffffff\n      and\n      dup2\n      mstore\n      0x20\n      add\n      swap1\n      dup2\n      mstore\n      0x20\n      add\n      0x00\n      keccak256\n        /* \"contracts/Profile.sol\":4081:4110  profile[msg.sender].education */\n      0x11\n      add\n        /* \"contracts/Profile.sol\":4111:4116  index */\n      dup8\n        /* \"contracts/Profile.sol\":4081:4117  profile[msg.sender].education[index] */\n      dup2\n      sload\n      dup2\n      lt\n      tag_267\n      jumpi\n      tag_268\n      tag_265\n      jump\t// in\n    tag_268:\n    tag_267:\n      swap1\n      0x00\n      mstore\n      keccak256(0x00, 0x20)\n      swap1\n      0x05\n      mul\n      add\n        /* \"contracts/Profile.sol\":4081:4125  profile[msg.sender].education[index].endDate */\n      0x01\n      add\n        /* \"contracts/Profile.sol\":4127:4134  profile */\n      0x00\n        /* \"contracts/Profile.sol\":4127:4146  profile[msg.sender] */\n      dup1\n        /* \"contracts/Profile.sol\":4135:4145  msg.sender */\n      caller\n        /* \"contracts/Profile.sol\":4127:4146  profile[msg.sender] */\n      0xffffffffffffffffffffffffffffffffffffffff\n      and\n      0xffffffffffffffffffffffffffffffffffffffff\n      and\n      dup2\n      mstore\n      0x20\n      add\n      swap1\n      dup2\n      mstore\n      0x20\n      add\n      0x00\n      keccak256\n        /* \"contracts/Profile.sol\":4127:4156  profile[msg.sender].education */\n      0x11\n      add\n        /* \"contracts/Profile.sol\":4157:4162  index */\n      dup9\n        /* \"contracts/Profile.sol\":4127:4163  profile[msg.sender].education[index] */\n      dup2\n      sload\n      dup2\n      lt\n      tag_270\n      jumpi\n      tag_271\n      tag_265\n      jump\t// in\n    tag_271:\n    tag_270:\n      swap1\n      0x00\n      mstore\n      keccak256(0x00, 0x20)\n      swap1\n      0x05\n      mul\n      add\n        /* \"contracts/Profile.sol\":4127:4174  profile[msg.sender].education[index].univercity */\n      0x02\n      add\n        /* \"contracts/Profile.sol\":4176:4183  profile */\n      0x00\n        /* \"contracts/Profile.sol\":4176:4195  profile[msg.sender] */\n      dup1\n        /* \"contracts/Profile.sol\":4184:4194  msg.sender */\n      caller\n        /* \"contracts/Profile.sol\":4176:4195  profile[msg.sender] */\n      0xffffffffffffffffffffffffffffffffffffffff\n      and\n      0xffffffffffffffffffffffffffffffffffffffff\n      and\n      dup2\n      mstore\n      0x20\n      add\n      swap1\n      dup2\n      mstore\n      0x20\n      add\n      0x00\n      keccak256\n        /* \"contracts/Profile.sol\":4176:4205  profile[msg.sender].education */\n      0x11\n      add\n        /* \"contracts/Profile.sol\":4206:4211  index */\n      dup10\n        /* \"contracts/Profile.sol\":4176:4212  profile[msg.sender].education[index] */\n      dup2\n      sload\n      dup2\n      lt\n      tag_273\n      jumpi\n      tag_274\n      tag_265\n      jump\t// in\n    tag_274:\n    tag_273:\n      swap1\n      0x00\n      mstore\n      keccak256(0x00, 0x20)\n      swap1\n      0x05\n      mul\n      add\n        /* \"contracts/Profile.sol\":4176:4218  profile[msg.sender].education[index].major */\n      0x03\n      add\n        /* \"contracts/Profile.sol\":4220:4227  profile */\n      0x00\n        /* \"contracts/Profile.sol\":4220:4239  profile[msg.sender] */\n      dup1\n        /* \"contracts/Profile.sol\":4228:4238  msg.sender */\n      caller\n        /* \"contracts/Profile.sol\":4220:4239  profile[msg.sender] */\n      0xffffffffffffffffffffffffffffffffffffffff\n      and\n      0xffffffffffffffffffffffffffffffffffffffff\n      and\n      dup2\n      mstore\n      0x20\n      add\n      swap1\n      dup2\n      mstore\n      0x20\n      add\n      0x00\n      keccak256\n        /* \"contracts/Profile.sol\":4220:4249  profile[msg.sender].education */\n      0x11\n      add\n        /* \"contracts/Profile.sol\":4250:4255  index */\n      dup11\n        /* \"contracts/Profile.sol\":4220:4256  profile[msg.sender].education[index] */\n      dup2\n      sload\n      dup2\n      lt\n      tag_276\n      jumpi\n      tag_277\n      tag_265\n      jump\t// in\n    tag_277:\n    tag_276:\n      swap1\n      0x00\n      mstore\n      keccak256(0x00, 0x20)\n      swap1\n      0x05\n      mul\n      add\n        /* \"contracts/Profile.sol\":4220:4269  profile[msg.sender].education[index].finalProject */\n      0x04\n      add\n        /* \"contracts/Profile.sol\":4025:4270  return (profile[msg.sender].education[index].startDate, profile[msg.sender].education[index].endDate, profile[msg.sender].education[index].univercity, profile[msg.sender].education[index].major, profile[msg.sender].education[index].finalProject) */\n      dup5\n      dup1\n      sload\n      tag_279\n      swap1\n      tag_118\n      jump\t// in\n    tag_279:\n      dup1\n      0x1f\n      add\n      0x20\n      dup1\n      swap2\n      div\n      mul\n      0x20\n      add\n      mload(0x40)\n      swap1\n      dup2\n      add\n      0x40\n      mstore\n      dup1\n      swap3\n      swap2\n      swap1\n      dup2\n      dup2\n      mstore\n      0x20\n      add\n      dup3\n      dup1\n      sload\n      tag_280\n      swap1\n      tag_118\n      jump\t// in\n    tag_280:\n      dup1\n      iszero\n      tag_281\n      jumpi\n      dup1\n      0x1f\n      lt\n      tag_282\n      jumpi\n      0x0100\n      dup1\n      dup4\n      sload\n      div\n      mul\n      dup4\n      mstore\n      swap2\n      0x20\n      add\n      swap2\n      jump(tag_281)\n    tag_282:\n      dup3\n      add\n      swap2\n      swap1\n      0x00\n      mstore\n      keccak256(0x00, 0x20)\n      swap1\n    tag_283:\n      dup2\n      sload\n      dup2\n      mstore\n      swap1\n      0x01\n      add\n      swap1\n      0x20\n      add\n      dup1\n      dup4\n      gt\n      tag_283\n      jumpi\n      dup3\n      swap1\n      sub\n      0x1f\n      and\n      dup3\n      add\n      swap2\n    tag_281:\n      pop\n      pop\n      pop\n      pop\n      pop\n      swap5\n      pop\n      dup4\n      dup1\n      sload\n      tag_284\n      swap1\n      tag_118\n      jump\t// in\n    tag_284:\n      dup1\n      0x1f\n      add\n      0x20\n      dup1\n      swap2\n      div\n      mul\n      0x20\n      add\n      mload(0x40)\n      swap1\n      dup2\n      add\n      0x40\n      mstore\n      dup1\n      swap3\n      swap2\n      swap1\n      dup2\n      dup2\n      mstore\n      0x20\n      add\n      dup3\n      dup1\n      sload\n      tag_285\n      swap1\n      tag_118\n      jump\t// in\n    tag_285:\n      dup1\n      iszero\n      tag_286\n      jumpi\n      dup1\n      0x1f\n      lt\n      tag_287\n      jumpi\n      0x0100\n      dup1\n      dup4\n      sload\n      div\n      mul\n      dup4\n      mstore\n      swap2\n      0x20\n      add\n      swap2\n      jump(tag_286)\n    tag_287:\n      dup3\n      add\n      swap2\n      swap1\n      0x00\n      mstore\n      keccak256(0x00, 0x20)\n      swap1\n    tag_288:\n      dup2\n      sload\n      dup2\n      mstore\n      swap1\n      0x01\n      add\n      swap1\n      0x20\n      add\n      dup1\n      dup4\n      gt\n      tag_288\n      jumpi\n      dup3\n      swap1\n      sub\n      0x1f\n      and\n      dup3\n      add\n      swap2\n    tag_286:\n      pop\n      pop\n      pop\n      pop\n      pop\n      swap4\n      pop\n      dup3\n      dup1\n      sload\n      tag_289\n      swap1\n      tag_118\n      jump\t// in\n    tag_289:\n      dup1\n      0x1f\n      add\n      0x20\n      dup1\n      swap2\n      div\n      mul\n      0x20\n      add\n      mload(0x40)\n      swap1\n      dup2\n      add\n      0x40\n      mstore\n      dup1\n      swap3\n      swap2\n      swap1\n      dup2\n      dup2\n      mstore\n      0x20\n      add\n      dup3\n      dup1\n      sload\n      tag_290\n      swap1\n      tag_118\n      jump\t// in\n    tag_290:\n      dup1\n      iszero\n      tag_291\n      jumpi\n      dup1\n      0x1f\n      lt\n      tag_292\n      jumpi\n      0x0100\n      dup1\n      dup4\n      sload\n      div\n      mul\n      dup4\n      mstore\n      swap2\n      0x20\n      add\n      swap2\n      jump(tag_291)\n    tag_292:\n      dup3\n      add\n      swap2\n      swap1\n      0x00\n      mstore\n      keccak256(0x00, 0x20)\n      swap1\n    tag_293:\n      dup2\n      sload\n      dup2\n      mstore\n      swap1\n      0x01\n      add\n      swap1\n      0x20\n      add\n      dup1\n      dup4\n      gt\n      tag_293\n      jumpi\n      dup3\n      swap1\n      sub\n      0x1f\n      and\n      dup3\n      add\n      swap2\n    tag_291:\n      pop\n      pop\n      pop\n      pop\n      pop\n      swap3\n      pop\n      dup2\n      dup1\n      sload\n      tag_294\n      swap1\n      tag_118\n      jump\t// in\n    tag_294:\n      dup1\n      0x1f\n      add\n      0x20\n      dup1\n      swap2\n      div\n      mul\n      0x20\n      add\n      mload(0x40)\n      swap1\n      dup2\n      add\n      0x40\n      mstore\n      dup1\n      swap3\n      swap2\n      swap1\n      dup2\n      dup2\n      mstore\n      0x20\n      add\n      dup3\n      dup1\n      sload\n      tag_295\n      swap1\n      tag_118\n      jump\t// in\n    tag_295:\n      dup1\n      iszero\n      tag_296\n      jumpi\n      dup1\n      0x1f\n      lt\n      tag_297\n      jumpi\n      0x0100\n      dup1\n      dup4\n      sload\n      div\n      mul\n      dup4\n      mstore\n      swap2\n      0x20\n      add\n      swap2\n      jump(tag_296)\n    tag_297:\n      dup3\n      add\n      swap2\n      swap1\n      0x00\n      mstore\n      keccak256(0x00, 0x20)\n      swap1\n    tag_298:\n      dup2\n      sload\n      dup2\n      mstore\n      swap1\n      0x01\n      add\n      swap1\n      0x20\n      add\n      dup1\n      dup4\n      gt\n      tag_298\n      jumpi\n      dup3\n      swap1\n      sub\n      0x1f\n      and\n      dup3\n      add\n      swap2\n    tag_296:\n      pop\n      pop\n      pop\n      pop\n      pop\n      swap2\n      pop\n      dup1\n      dup1\n      sload\n      tag_299\n      swap1\n      tag_118\n      jump\t// in\n    tag_299:\n      dup1\n      0x1f\n      add\n      0x20\n      dup1\n      swap2\n      div\n      mul\n      0x20\n      add\n      mload(0x40)\n      swap1\n      dup2\n      add\n      0x40\n      mstore\n      dup1\n      swap3\n      swap2\n      swap1\n      dup2\n      dup2\n      mstore\n      0x20\n      add\n      dup3\n      dup1\n      sload\n      tag_300\n      swap1\n      tag_118\n      jump\t// in\n    tag_300:\n      dup1\n      iszero\n      tag_301\n      jumpi\n      dup1\n      0x1f\n      lt\n      tag_302\n      jumpi\n      0x0100\n      dup1\n      dup4\n      sload\n      div\n      mul\n      dup4\n      mstore\n      swap2\n      0x20\n      add\n      swap2\n      jump(tag_301)\n    tag_302:\n      dup3\n      add\n      swap2\n      swap1\n      0x00\n      mstore\n      keccak256(0x00, 0x20)\n      swap1\n    tag_303:\n      dup2\n      sload\n      dup2\n      mstore\n      swap1\n      0x01\n      add\n      swap1\n      0x20\n      add\n      dup1\n      dup4\n      gt\n      tag_303\n      jumpi\n      dup3\n      swap1\n      sub\n      0x1f\n      and\n      dup3\n      add\n      swap2\n    tag_301:\n      pop\n      pop\n      pop\n      pop\n      pop\n      swap1\n      pop\n      swap5\n      pop\n      swap5\n      pop\n      swap5\n      pop\n      swap5\n      pop\n      swap5\n      pop\n        /* \"contracts/Profile.sol\":3885:4278  function getEducation(uint index) public view returns(string memory, string memory, string memory, string memory, string memory) {\r... */\n      swap2\n      swap4\n      swap6\n      swap1\n      swap3\n      swap5\n      pop\n      jump\t// out\n        /* \"contracts/Profile.sol\":5115:5191  function delProfile() external {\r... */\n    tag_63:\n        /* \"contracts/Profile.sol\":5164:5171  profile */\n      0x00\n        /* \"contracts/Profile.sol\":5164:5183  profile[msg.sender] */\n      dup1\n        /* \"contracts/Profile.sol\":5172:5182  msg.sender */\n      caller\n        /* \"contracts/Profile.sol\":5164:5183  profile[msg.sender] */\n      0xffffffffffffffffffffffffffffffffffffffff\n      and\n      0xffffffffffffffffffffffffffffffffffffffff\n      and\n      dup2\n      mstore\n      0x20\n      add\n      swap1\n      dup2\n      mstore\n      0x20\n      add\n      0x00\n      keccak256\n      0x00\n        /* \"contracts/Profile.sol\":5157:5183  delete profile[msg.sender] */\n      dup1\n      dup3\n      add\n      0x00\n      dup1\n      dup3\n      add\n      0x00\n      tag_305\n      swap2\n      swap1\n      tag_92\n      jump\t// in\n    tag_305:\n      0x01\n      dup3\n      add\n      0x00\n      tag_306\n      swap2\n      swap1\n      tag_92\n      jump\t// in\n    tag_306:\n      0x02\n      dup3\n      add\n      exp(0x0100, 0x00)\n      dup2\n      sload\n      swap1\n      0xffffffffffffffffffffffffffffffffffffffff\n      mul\n      not\n      and\n      swap1\n      sstore\n      0x03\n      dup3\n      add\n      0x00\n      tag_307\n      swap2\n      swap1\n      tag_92\n      jump\t// in\n    tag_307:\n      0x04\n      dup3\n      add\n      0x00\n      tag_308\n      swap2\n      swap1\n      tag_92\n      jump\t// in\n    tag_308:\n      0x05\n      dup3\n      add\n      0x00\n      tag_309\n      swap2\n      swap1\n      tag_92\n      jump\t// in\n    tag_309:\n      0x06\n      dup3\n      add\n      0x00\n      tag_310\n      swap2\n      swap1\n      tag_92\n      jump\t// in\n    tag_310:\n      0x07\n      dup3\n      add\n      0x00\n      swap1\n      sstore\n      pop\n      pop\n      0x08\n      dup3\n      add\n      0x00\n      dup1\n      dup3\n      add\n      0x00\n      tag_311\n      swap2\n      swap1\n      tag_92\n      jump\t// in\n    tag_311:\n      0x01\n      dup3\n      add\n      0x00\n      tag_312\n      swap2\n      swap1\n      tag_92\n      jump\t// in\n    tag_312:\n      0x02\n      dup3\n      add\n      0x00\n      tag_313\n      swap2\n      swap1\n      tag_92\n      jump\t// in\n    tag_313:\n      0x03\n      dup3\n      add\n      0x00\n      tag_314\n      swap2\n      swap1\n      tag_92\n      jump\t// in\n    tag_314:\n      0x04\n      dup3\n      add\n      0x00\n      tag_315\n      swap2\n      swap1\n      tag_92\n      jump\t// in\n    tag_315:\n      0x05\n      dup3\n      add\n      0x00\n      tag_316\n      swap2\n      swap1\n      tag_92\n      jump\t// in\n    tag_316:\n      pop\n      pop\n      0x0e\n      dup3\n      add\n      0x00\n      dup1\n      dup3\n      add\n      0x00\n      tag_317\n      swap2\n      swap1\n      tag_66\n      jump\t// in\n    tag_317:\n      0x01\n      dup3\n      add\n      0x00\n      tag_318\n      swap2\n      swap1\n      tag_66\n      jump\t// in\n    tag_318:\n      0x02\n      dup3\n      add\n      0x00\n      tag_319\n      swap2\n      swap1\n      tag_66\n      jump\t// in\n    tag_319:\n      pop\n      pop\n      0x11\n      dup3\n      add\n      0x00\n      tag_320\n      swap2\n      swap1\n      tag_261\n      jump\t// in\n    tag_320:\n      0x12\n      dup3\n      add\n      0x00\n      dup1\n      dup3\n      add\n      0x00\n      tag_321\n      swap2\n      swap1\n      tag_66\n      jump\t// in\n    tag_321:\n      0x01\n      dup3\n      add\n      0x00\n      tag_322\n      swap2\n      swap1\n      tag_66\n      jump\t// in\n    tag_322:\n      pop\n      pop\n      0x14\n      dup3\n      add\n      0x00\n      dup1\n      dup3\n      add\n      0x00\n      tag_323\n      swap2\n      swap1\n      tag_92\n      jump\t// in\n    tag_323:\n      0x01\n      dup3\n      add\n      0x00\n      tag_324\n      swap2\n      swap1\n      tag_92\n      jump\t// in\n    tag_324:\n      0x02\n      dup3\n      add\n      0x00\n      tag_325\n      swap2\n      swap1\n      tag_92\n      jump\t// in\n    tag_325:\n      0x03\n      dup3\n      add\n      0x00\n      tag_326\n      swap2\n      swap1\n      tag_92\n      jump\t// in\n    tag_326:\n      0x04\n      dup3\n      add\n      0x00\n      tag_327\n      swap2\n      swap1\n      tag_66\n      jump\t// in\n    tag_327:\n      pop\n      pop\n      0x19\n      dup3\n      add\n      0x00\n      dup1\n      dup3\n      add\n      0x00\n      tag_328\n      swap2\n      swap1\n      tag_92\n      jump\t// in\n    tag_328:\n      0x01\n      dup3\n      add\n      0x00\n      tag_329\n      swap2\n      swap1\n      tag_92\n      jump\t// in\n    tag_329:\n      pop\n      pop\n      pop\n      pop\n        /* \"contracts/Profile.sol\":5115:5191  function delProfile() external {\r... */\n      jump\t// out\n    tag_66:\n      pop\n      dup1\n      sload\n      0x00\n      dup3\n      sstore\n      swap1\n      0x00\n      mstore\n      keccak256(0x00, 0x20)\n      swap1\n      dup2\n      add\n      swap1\n      tag_331\n      swap2\n      swap1\n      tag_332\n      jump\t// in\n    tag_331:\n      pop\n      jump\t// out\n    tag_70:\n      dup3\n      dup1\n      sload\n      dup3\n      dup3\n      sstore\n      swap1\n      0x00\n      mstore\n      keccak256(0x00, 0x20)\n      swap1\n      dup2\n      add\n      swap3\n      dup3\n      iszero\n      tag_333\n      jumpi\n      swap2\n      0x20\n      mul\n      dup3\n      add\n    tag_334:\n      dup3\n      dup2\n      gt\n      iszero\n      tag_335\n      jumpi\n      dup3\n      mload\n      dup3\n      swap1\n      dup1\n      mload\n      swap1\n      0x20\n      add\n      swap1\n      tag_336\n      swap3\n      swap2\n      swap1\n      tag_82\n      jump\t// in\n    tag_336:\n      pop\n      swap2\n      0x20\n      add\n      swap2\n      swap1\n      0x01\n      add\n      swap1\n      jump(tag_334)\n    tag_335:\n    tag_333:\n      pop\n      swap1\n      pop\n      tag_337\n      swap2\n      swap1\n      tag_332\n      jump\t// in\n    tag_337:\n      pop\n      swap1\n      jump\t// out\n    tag_79:\n      mload(0x40)\n      dup1\n      0xa0\n      add\n      0x40\n      mstore\n      dup1\n      0x60\n      dup2\n      mstore\n      0x20\n      add\n      0x60\n      dup2\n      mstore\n      0x20\n      add\n      0x60\n      dup2\n      mstore\n      0x20\n      add\n      0x60\n      dup2\n      mstore\n      0x20\n      add\n      0x60\n      dup2\n      mstore\n      pop\n      swap1\n      jump\t// out\n    tag_82:\n      dup3\n      dup1\n      sload\n      tag_338\n      swap1\n      tag_118\n      jump\t// in\n    tag_338:\n      swap1\n      0x00\n      mstore\n      keccak256(0x00, 0x20)\n      swap1\n      0x1f\n      add\n      0x20\n      swap1\n      div\n      dup2\n      add\n      swap3\n      dup3\n      tag_340\n      jumpi\n      0x00\n      dup6\n      sstore\n      jump(tag_339)\n    tag_340:\n      dup3\n      0x1f\n      lt\n      tag_341\n      jumpi\n      dup1\n      mload\n      not(0xff)\n      and\n      dup4\n      dup1\n      add\n      or\n      dup6\n      sstore\n      jump(tag_339)\n    tag_341:\n      dup3\n      dup1\n      add\n      0x01\n      add\n      dup6\n      sstore\n      dup3\n      iszero\n      tag_339\n      jumpi\n      swap2\n      dup3\n      add\n    tag_342:\n      dup3\n      dup2\n      gt\n      iszero\n      tag_343\n      jumpi\n      dup3\n      mload\n      dup3\n      sstore\n      swap2\n      0x20\n      add\n      swap2\n      swap1\n      0x01\n      add\n      swap1\n      jump(tag_342)\n    tag_343:\n    tag_339:\n      pop\n      swap1\n      pop\n      tag_344\n      swap2\n      swap1\n      tag_345\n      jump\t// in\n    tag_344:\n      pop\n      swap1\n      jump\t// out\n    tag_92:\n      pop\n      dup1\n      sload\n      tag_346\n      swap1\n      tag_118\n      jump\t// in\n    tag_346:\n      0x00\n      dup3\n      sstore\n      dup1\n      0x1f\n      lt\n      tag_348\n      jumpi\n      pop\n      jump(tag_347)\n    tag_348:\n      0x1f\n      add\n      0x20\n      swap1\n      div\n      swap1\n      0x00\n      mstore\n      keccak256(0x00, 0x20)\n      swap1\n      dup2\n      add\n      swap1\n      tag_349\n      swap2\n      swap1\n      tag_345\n      jump\t// in\n    tag_349:\n    tag_347:\n      pop\n      jump\t// out\n    tag_261:\n      pop\n      dup1\n      sload\n      0x00\n      dup3\n      sstore\n      0x05\n      mul\n      swap1\n      0x00\n      mstore\n      keccak256(0x00, 0x20)\n      swap1\n      dup2\n      add\n      swap1\n      tag_351\n      swap2\n      swap1\n      tag_352\n      jump\t// in\n    tag_351:\n      pop\n      jump\t// out\n    tag_332:\n    tag_353:\n      dup1\n      dup3\n      gt\n      iszero\n      tag_354\n      jumpi\n      0x00\n      dup2\n      dup2\n      tag_355\n      swap2\n      swap1\n      tag_92\n      jump\t// in\n    tag_355:\n      pop\n      0x01\n      add\n      jump(tag_353)\n    tag_354:\n      pop\n      swap1\n      jump\t// out\n    tag_345:\n    tag_356:\n      dup1\n      dup3\n      gt\n      iszero\n      tag_357\n      jumpi\n      0x00\n      dup2\n      0x00\n      swap1\n      sstore\n      pop\n      0x01\n      add\n      jump(tag_356)\n    tag_357:\n      pop\n      swap1\n      jump\t// out\n    tag_352:\n    tag_358:\n      dup1\n      dup3\n      gt\n      iszero\n      tag_359\n      jumpi\n      0x00\n      dup1\n      dup3\n      add\n      0x00\n      tag_360\n      swap2\n      swap1\n      tag_92\n      jump\t// in\n    tag_360:\n      0x01\n      dup3\n      add\n      0x00\n      tag_361\n      swap2\n      swap1\n      tag_92\n      jump\t// in\n    tag_361:\n      0x02\n      dup3\n      add\n      0x00\n      tag_362\n      swap2\n      swap1\n      tag_92\n      jump\t// in\n    tag_362:\n      0x03\n      dup3\n      add\n      0x00\n      tag_363\n      swap2\n      swap1\n      tag_92\n      jump\t// in\n    tag_363:\n      0x04\n      dup3\n      add\n      0x00\n      tag_364\n      swap2\n      swap1\n      tag_92\n      jump\t// in\n    tag_364:\n      pop\n      0x05\n      add\n      jump(tag_358)\n    tag_359:\n      pop\n      swap1\n      jump\t// out\n        /* \"#utility.yul\":23:980   */\n    tag_366:\n        /* \"#utility.yul\":129:134   */\n      0x00\n        /* \"#utility.yul\":154:245   */\n      tag_368\n        /* \"#utility.yul\":170:244   */\n      tag_369\n        /* \"#utility.yul\":237:243   */\n      dup5\n        /* \"#utility.yul\":170:244   */\n      tag_370\n      jump\t// in\n    tag_369:\n        /* \"#utility.yul\":154:245   */\n      tag_371\n      jump\t// in\n    tag_368:\n        /* \"#utility.yul\":145:245   */\n      swap1\n      pop\n        /* \"#utility.yul\":265:270   */\n      dup1\n        /* \"#utility.yul\":294:300   */\n      dup4\n        /* \"#utility.yul\":287:292   */\n      dup3\n        /* \"#utility.yul\":280:301   */\n      mstore\n        /* \"#utility.yul\":328:332   */\n      0x20\n        /* \"#utility.yul\":321:326   */\n      dup3\n        /* \"#utility.yul\":317:333   */\n      add\n        /* \"#utility.yul\":310:333   */\n      swap1\n      pop\n        /* \"#utility.yul\":354:360   */\n      dup3\n        /* \"#utility.yul\":404:407   */\n      dup6\n        /* \"#utility.yul\":396:400   */\n      0x20\n        /* \"#utility.yul\":388:394   */\n      dup7\n        /* \"#utility.yul\":384:401   */\n      mul\n        /* \"#utility.yul\":379:382   */\n      dup3\n        /* \"#utility.yul\":375:402   */\n      add\n        /* \"#utility.yul\":372:408   */\n      gt\n        /* \"#utility.yul\":369:512   */\n      iszero\n      tag_372\n      jumpi\n        /* \"#utility.yul\":423:502   */\n      tag_373\n      tag_374\n      jump\t// in\n    tag_373:\n        /* \"#utility.yul\":369:512   */\n    tag_372:\n        /* \"#utility.yul\":536:537   */\n      0x00\n        /* \"#utility.yul\":521:974   */\n    tag_375:\n        /* \"#utility.yul\":546:552   */\n      dup6\n        /* \"#utility.yul\":543:544   */\n      dup2\n        /* \"#utility.yul\":540:553   */\n      lt\n        /* \"#utility.yul\":521:974   */\n      iszero\n      tag_377\n      jumpi\n        /* \"#utility.yul\":628:631   */\n      dup2\n        /* \"#utility.yul\":615:632   */\n      calldataload\n        /* \"#utility.yul\":664:682   */\n      0xffffffffffffffff\n        /* \"#utility.yul\":651:662   */\n      dup2\n        /* \"#utility.yul\":648:683   */\n      gt\n        /* \"#utility.yul\":645:767   */\n      iszero\n      tag_378\n      jumpi\n        /* \"#utility.yul\":686:765   */\n      tag_379\n      tag_380\n      jump\t// in\n    tag_379:\n        /* \"#utility.yul\":645:767   */\n    tag_378:\n        /* \"#utility.yul\":810:821   */\n      dup1\n        /* \"#utility.yul\":802:808   */\n      dup7\n        /* \"#utility.yul\":798:822   */\n      add\n        /* \"#utility.yul\":848:895   */\n      tag_381\n        /* \"#utility.yul\":891:894   */\n      dup10\n        /* \"#utility.yul\":879:889   */\n      dup3\n        /* \"#utility.yul\":848:895   */\n      tag_382\n      jump\t// in\n    tag_381:\n        /* \"#utility.yul\":843:846   */\n      dup6\n        /* \"#utility.yul\":836:896   */\n      mstore\n        /* \"#utility.yul\":925:929   */\n      0x20\n        /* \"#utility.yul\":920:923   */\n      dup6\n        /* \"#utility.yul\":916:930   */\n      add\n        /* \"#utility.yul\":909:930   */\n      swap5\n      pop\n        /* \"#utility.yul\":959:963   */\n      0x20\n        /* \"#utility.yul\":954:957   */\n      dup5\n        /* \"#utility.yul\":950:964   */\n      add\n        /* \"#utility.yul\":943:964   */\n      swap4\n      pop\n        /* \"#utility.yul\":581:974   */\n      pop\n      pop\n        /* \"#utility.yul\":568:569   */\n      0x01\n        /* \"#utility.yul\":565:566   */\n      dup2\n        /* \"#utility.yul\":561:570   */\n      add\n        /* \"#utility.yul\":556:570   */\n      swap1\n      pop\n        /* \"#utility.yul\":521:974   */\n      jump(tag_375)\n    tag_377:\n        /* \"#utility.yul\":525:539   */\n      pop\n        /* \"#utility.yul\":135:980   */\n      pop\n      pop\n        /* \"#utility.yul\":23:980   */\n      swap4\n      swap3\n      pop\n      pop\n      pop\n      jump\t// out\n        /* \"#utility.yul\":986:1398   */\n    tag_383:\n        /* \"#utility.yul\":1064:1069   */\n      0x00\n        /* \"#utility.yul\":1089:1155   */\n      tag_385\n        /* \"#utility.yul\":1105:1154   */\n      tag_386\n        /* \"#utility.yul\":1147:1153   */\n      dup5\n        /* \"#utility.yul\":1105:1154   */\n      tag_387\n      jump\t// in\n    tag_386:\n        /* \"#utility.yul\":1089:1155   */\n      tag_371\n      jump\t// in\n    tag_385:\n        /* \"#utility.yul\":1080:1155   */\n      swap1\n      pop\n        /* \"#utility.yul\":1178:1184   */\n      dup3\n        /* \"#utility.yul\":1171:1176   */\n      dup2\n        /* \"#utility.yul\":1164:1185   */\n      mstore\n        /* \"#utility.yul\":1216:1220   */\n      0x20\n        /* \"#utility.yul\":1209:1214   */\n      dup2\n        /* \"#utility.yul\":1205:1221   */\n      add\n        /* \"#utility.yul\":1254:1257   */\n      dup5\n        /* \"#utility.yul\":1245:1251   */\n      dup5\n        /* \"#utility.yul\":1240:1243   */\n      dup5\n        /* \"#utility.yul\":1236:1252   */\n      add\n        /* \"#utility.yul\":1233:1258   */\n      gt\n        /* \"#utility.yul\":1230:1342   */\n      iszero\n      tag_388\n      jumpi\n        /* \"#utility.yul\":1261:1340   */\n      tag_389\n      tag_390\n      jump\t// in\n    tag_389:\n        /* \"#utility.yul\":1230:1342   */\n    tag_388:\n        /* \"#utility.yul\":1351:1392   */\n      tag_391\n        /* \"#utility.yul\":1385:1391   */\n      dup5\n        /* \"#utility.yul\":1380:1383   */\n      dup3\n        /* \"#utility.yul\":1375:1378   */\n      dup6\n        /* \"#utility.yul\":1351:1392   */\n      tag_392\n      jump\t// in\n    tag_391:\n        /* \"#utility.yul\":1070:1398   */\n      pop\n        /* \"#utility.yul\":986:1398   */\n      swap4\n      swap3\n      pop\n      pop\n      pop\n      jump\t// out\n        /* \"#utility.yul\":1404:1543   */\n    tag_393:\n        /* \"#utility.yul\":1450:1455   */\n      0x00\n        /* \"#utility.yul\":1488:1494   */\n      dup2\n        /* \"#utility.yul\":1475:1495   */\n      calldataload\n        /* \"#utility.yul\":1466:1495   */\n      swap1\n      pop\n        /* \"#utility.yul\":1504:1537   */\n      tag_395\n        /* \"#utility.yul\":1531:1536   */\n      dup2\n        /* \"#utility.yul\":1504:1537   */\n      tag_396\n      jump\t// in\n    tag_395:\n        /* \"#utility.yul\":1404:1543   */\n      swap3\n      swap2\n      pop\n      pop\n      jump\t// out\n        /* \"#utility.yul\":1565:1955   */\n    tag_397:\n        /* \"#utility.yul\":1646:1651   */\n      0x00\n        /* \"#utility.yul\":1695:1698   */\n      dup3\n        /* \"#utility.yul\":1688:1692   */\n      0x1f\n        /* \"#utility.yul\":1680:1686   */\n      dup4\n        /* \"#utility.yul\":1676:1693   */\n      add\n        /* \"#utility.yul\":1672:1699   */\n      slt\n        /* \"#utility.yul\":1662:1784   */\n      tag_399\n      jumpi\n        /* \"#utility.yul\":1703:1782   */\n      tag_400\n      tag_380\n      jump\t// in\n    tag_400:\n        /* \"#utility.yul\":1662:1784   */\n    tag_399:\n        /* \"#utility.yul\":1820:1826   */\n      dup2\n        /* \"#utility.yul\":1807:1827   */\n      calldataload\n        /* \"#utility.yul\":1845:1949   */\n      tag_401\n        /* \"#utility.yul\":1945:1948   */\n      dup5\n        /* \"#utility.yul\":1937:1943   */\n      dup3\n        /* \"#utility.yul\":1930:1934   */\n      0x20\n        /* \"#utility.yul\":1922:1928   */\n      dup7\n        /* \"#utility.yul\":1918:1935   */\n      add\n        /* \"#utility.yul\":1845:1949   */\n      tag_366\n      jump\t// in\n    tag_401:\n        /* \"#utility.yul\":1836:1949   */\n      swap2\n      pop\n        /* \"#utility.yul\":1652:1955   */\n      pop\n        /* \"#utility.yul\":1565:1955   */\n      swap3\n      swap2\n      pop\n      pop\n      jump\t// out\n        /* \"#utility.yul\":1975:2315   */\n    tag_382:\n        /* \"#utility.yul\":2031:2036   */\n      0x00\n        /* \"#utility.yul\":2080:2083   */\n      dup3\n        /* \"#utility.yul\":2073:2077   */\n      0x1f\n        /* \"#utility.yul\":2065:2071   */\n      dup4\n        /* \"#utility.yul\":2061:2078   */\n      add\n        /* \"#utility.yul\":2057:2084   */\n      slt\n        /* \"#utility.yul\":2047:2169   */\n      tag_403\n      jumpi\n        /* \"#utility.yul\":2088:2167   */\n      tag_404\n      tag_380\n      jump\t// in\n    tag_404:\n        /* \"#utility.yul\":2047:2169   */\n    tag_403:\n        /* \"#utility.yul\":2205:2211   */\n      dup2\n        /* \"#utility.yul\":2192:2212   */\n      calldataload\n        /* \"#utility.yul\":2230:2309   */\n      tag_405\n        /* \"#utility.yul\":2305:2308   */\n      dup5\n        /* \"#utility.yul\":2297:2303   */\n      dup3\n        /* \"#utility.yul\":2290:2294   */\n      0x20\n        /* \"#utility.yul\":2282:2288   */\n      dup7\n        /* \"#utility.yul\":2278:2295   */\n      add\n        /* \"#utility.yul\":2230:2309   */\n      tag_383\n      jump\t// in\n    tag_405:\n        /* \"#utility.yul\":2221:2309   */\n      swap2\n      pop\n        /* \"#utility.yul\":2037:2315   */\n      pop\n        /* \"#utility.yul\":1975:2315   */\n      swap3\n      swap2\n      pop\n      pop\n      jump\t// out\n        /* \"#utility.yul\":2321:2460   */\n    tag_406:\n        /* \"#utility.yul\":2367:2372   */\n      0x00\n        /* \"#utility.yul\":2405:2411   */\n      dup2\n        /* \"#utility.yul\":2392:2412   */\n      calldataload\n        /* \"#utility.yul\":2383:2412   */\n      swap1\n      pop\n        /* \"#utility.yul\":2421:2454   */\n      tag_408\n        /* \"#utility.yul\":2448:2453   */\n      dup2\n        /* \"#utility.yul\":2421:2454   */\n      tag_409\n      jump\t// in\n    tag_408:\n        /* \"#utility.yul\":2321:2460   */\n      swap3\n      swap2\n      pop\n      pop\n      jump\t// out\n        /* \"#utility.yul\":2466:2795   */\n    tag_47:\n        /* \"#utility.yul\":2525:2531   */\n      0x00\n        /* \"#utility.yul\":2574:2576   */\n      0x20\n        /* \"#utility.yul\":2562:2571   */\n      dup3\n        /* \"#utility.yul\":2553:2560   */\n      dup5\n        /* \"#utility.yul\":2549:2572   */\n      sub\n        /* \"#utility.yul\":2545:2577   */\n      slt\n        /* \"#utility.yul\":2542:2661   */\n      iszero\n      tag_411\n      jumpi\n        /* \"#utility.yul\":2580:2659   */\n      tag_412\n      tag_413\n      jump\t// in\n    tag_412:\n        /* \"#utility.yul\":2542:2661   */\n    tag_411:\n        /* \"#utility.yul\":2700:2701   */\n      0x00\n        /* \"#utility.yul\":2725:2778   */\n      tag_414\n        /* \"#utility.yul\":2770:2777   */\n      dup5\n        /* \"#utility.yul\":2761:2767   */\n      dup3\n        /* \"#utility.yul\":2750:2759   */\n      dup6\n        /* \"#utility.yul\":2746:2768   */\n      add\n        /* \"#utility.yul\":2725:2778   */\n      tag_393\n      jump\t// in\n    tag_414:\n        /* \"#utility.yul\":2715:2778   */\n      swap2\n      pop\n        /* \"#utility.yul\":2671:2788   */\n      pop\n        /* \"#utility.yul\":2466:2795   */\n      swap3\n      swap2\n      pop\n      pop\n      jump\t// out\n        /* \"#utility.yul\":2801:3735   */\n    tag_34:\n        /* \"#utility.yul\":2939:2945   */\n      0x00\n        /* \"#utility.yul\":2947:2953   */\n      dup1\n        /* \"#utility.yul\":2996:2998   */\n      0x40\n        /* \"#utility.yul\":2984:2993   */\n      dup4\n        /* \"#utility.yul\":2975:2982   */\n      dup6\n        /* \"#utility.yul\":2971:2994   */\n      sub\n        /* \"#utility.yul\":2967:2999   */\n      slt\n        /* \"#utility.yul\":2964:3083   */\n      iszero\n      tag_416\n      jumpi\n        /* \"#utility.yul\":3002:3081   */\n      tag_417\n      tag_413\n      jump\t// in\n    tag_417:\n        /* \"#utility.yul\":2964:3083   */\n    tag_416:\n        /* \"#utility.yul\":3150:3151   */\n      0x00\n        /* \"#utility.yul\":3139:3148   */\n      dup4\n        /* \"#utility.yul\":3135:3152   */\n      add\n        /* \"#utility.yul\":3122:3153   */\n      calldataload\n        /* \"#utility.yul\":3180:3198   */\n      0xffffffffffffffff\n        /* \"#utility.yul\":3172:3178   */\n      dup2\n        /* \"#utility.yul\":3169:3199   */\n      gt\n        /* \"#utility.yul\":3166:3283   */\n      iszero\n      tag_418\n      jumpi\n        /* \"#utility.yul\":3202:3281   */\n      tag_419\n      tag_420\n      jump\t// in\n    tag_419:\n        /* \"#utility.yul\":3166:3283   */\n    tag_418:\n        /* \"#utility.yul\":3307:3395   */\n      tag_421\n        /* \"#utility.yul\":3387:3394   */\n      dup6\n        /* \"#utility.yul\":3378:3384   */\n      dup3\n        /* \"#utility.yul\":3367:3376   */\n      dup7\n        /* \"#utility.yul\":3363:3385   */\n      add\n        /* \"#utility.yul\":3307:3395   */\n      tag_397\n      jump\t// in\n    tag_421:\n        /* \"#utility.yul\":3297:3395   */\n      swap3\n      pop\n        /* \"#utility.yul\":3093:3405   */\n      pop\n        /* \"#utility.yul\":3472:3474   */\n      0x20\n        /* \"#utility.yul\":3461:3470   */\n      dup4\n        /* \"#utility.yul\":3457:3475   */\n      add\n        /* \"#utility.yul\":3444:3476   */\n      calldataload\n        /* \"#utility.yul\":3503:3521   */\n      0xffffffffffffffff\n        /* \"#utility.yul\":3495:3501   */\n      dup2\n        /* \"#utility.yul\":3492:3522   */\n      gt\n        /* \"#utility.yul\":3489:3606   */\n      iszero\n      tag_422\n      jumpi\n        /* \"#utility.yul\":3525:3604   */\n      tag_423\n      tag_420\n      jump\t// in\n    tag_423:\n        /* \"#utility.yul\":3489:3606   */\n    tag_422:\n        /* \"#utility.yul\":3630:3718   */\n      tag_424\n        /* \"#utility.yul\":3710:3717   */\n      dup6\n        /* \"#utility.yul\":3701:3707   */\n      dup3\n        /* \"#utility.yul\":3690:3699   */\n      dup7\n        /* \"#utility.yul\":3686:3708   */\n      add\n        /* \"#utility.yul\":3630:3718   */\n      tag_397\n      jump\t// in\n    tag_424:\n        /* \"#utility.yul\":3620:3718   */\n      swap2\n      pop\n        /* \"#utility.yul\":3415:3728   */\n      pop\n        /* \"#utility.yul\":2801:3735   */\n      swap3\n      pop\n      swap3\n      swap1\n      pop\n      jump\t// out\n        /* \"#utility.yul\":3741:5050   */\n    tag_20:\n        /* \"#utility.yul\":3923:3929   */\n      0x00\n        /* \"#utility.yul\":3931:3937   */\n      dup1\n        /* \"#utility.yul\":3939:3945   */\n      0x00\n        /* \"#utility.yul\":3988:3990   */\n      0x60\n        /* \"#utility.yul\":3976:3985   */\n      dup5\n        /* \"#utility.yul\":3967:3974   */\n      dup7\n        /* \"#utility.yul\":3963:3986   */\n      sub\n        /* \"#utility.yul\":3959:3991   */\n      slt\n        /* \"#utility.yul\":3956:4075   */\n      iszero\n      tag_426\n      jumpi\n        /* \"#utility.yul\":3994:4073   */\n      tag_427\n      tag_413\n      jump\t// in\n    tag_427:\n        /* \"#utility.yul\":3956:4075   */\n    tag_426:\n        /* \"#utility.yul\":4142:4143   */\n      0x00\n        /* \"#utility.yul\":4131:4140   */\n      dup5\n        /* \"#utility.yul\":4127:4144   */\n      add\n        /* \"#utility.yul\":4114:4145   */\n      calldataload\n        /* \"#utility.yul\":4172:4190   */\n      0xffffffffffffffff\n        /* \"#utility.yul\":4164:4170   */\n      dup2\n        /* \"#utility.yul\":4161:4191   */\n      gt\n        /* \"#utility.yul\":4158:4275   */\n      iszero\n      tag_428\n      jumpi\n        /* \"#utility.yul\":4194:4273   */\n      tag_429\n      tag_420\n      jump\t// in\n    tag_429:\n        /* \"#utility.yul\":4158:4275   */\n    tag_428:\n        /* \"#utility.yul\":4299:4387   */\n      tag_430\n        /* \"#utility.yul\":4379:4386   */\n      dup7\n        /* \"#utility.yul\":4370:4376   */\n      dup3\n        /* \"#utility.yul\":4359:4368   */\n      dup8\n        /* \"#utility.yul\":4355:4377   */\n      add\n        /* \"#utility.yul\":4299:4387   */\n      tag_397\n      jump\t// in\n    tag_430:\n        /* \"#utility.yul\":4289:4387   */\n      swap4\n      pop\n        /* \"#utility.yul\":4085:4397   */\n      pop\n        /* \"#utility.yul\":4464:4466   */\n      0x20\n        /* \"#utility.yul\":4453:4462   */\n      dup5\n        /* \"#utility.yul\":4449:4467   */\n      add\n        /* \"#utility.yul\":4436:4468   */\n      calldataload\n        /* \"#utility.yul\":4495:4513   */\n      0xffffffffffffffff\n        /* \"#utility.yul\":4487:4493   */\n      dup2\n        /* \"#utility.yul\":4484:4514   */\n      gt\n        /* \"#utility.yul\":4481:4598   */\n      iszero\n      tag_431\n      jumpi\n        /* \"#utility.yul\":4517:4596   */\n      tag_432\n      tag_420\n      jump\t// in\n    tag_432:\n        /* \"#utility.yul\":4481:4598   */\n    tag_431:\n        /* \"#utility.yul\":4622:4710   */\n      tag_433\n        /* \"#utility.yul\":4702:4709   */\n      dup7\n        /* \"#utility.yul\":4693:4699   */\n      dup3\n        /* \"#utility.yul\":4682:4691   */\n      dup8\n        /* \"#utility.yul\":4678:4700   */\n      add\n        /* \"#utility.yul\":4622:4710   */\n      tag_397\n      jump\t// in\n    tag_433:\n        /* \"#utility.yul\":4612:4710   */\n      swap3\n      pop\n        /* \"#utility.yul\":4407:4720   */\n      pop\n        /* \"#utility.yul\":4787:4789   */\n      0x40\n        /* \"#utility.yul\":4776:4785   */\n      dup5\n        /* \"#utility.yul\":4772:4790   */\n      add\n        /* \"#utility.yul\":4759:4791   */\n      calldataload\n        /* \"#utility.yul\":4818:4836   */\n      0xffffffffffffffff\n        /* \"#utility.yul\":4810:4816   */\n      dup2\n        /* \"#utility.yul\":4807:4837   */\n      gt\n        /* \"#utility.yul\":4804:4921   */\n      iszero\n      tag_434\n      jumpi\n        /* \"#utility.yul\":4840:4919   */\n      tag_435\n      tag_420\n      jump\t// in\n    tag_435:\n        /* \"#utility.yul\":4804:4921   */\n    tag_434:\n        /* \"#utility.yul\":4945:5033   */\n      tag_436\n        /* \"#utility.yul\":5025:5032   */\n      dup7\n        /* \"#utility.yul\":5016:5022   */\n      dup3\n        /* \"#utility.yul\":5005:5014   */\n      dup8\n        /* \"#utility.yul\":5001:5023   */\n      add\n        /* \"#utility.yul\":4945:5033   */\n      tag_397\n      jump\t// in\n    tag_436:\n        /* \"#utility.yul\":4935:5033   */\n      swap2\n      pop\n        /* \"#utility.yul\":4730:5043   */\n      pop\n        /* \"#utility.yul\":3741:5050   */\n      swap3\n      pop\n      swap3\n      pop\n      swap3\n      jump\t// out\n        /* \"#utility.yul\":5056:6867   */\n    tag_30:\n        /* \"#utility.yul\":5201:5207   */\n      0x00\n        /* \"#utility.yul\":5209:5215   */\n      dup1\n        /* \"#utility.yul\":5217:5223   */\n      0x00\n        /* \"#utility.yul\":5225:5231   */\n      dup1\n        /* \"#utility.yul\":5233:5239   */\n      0x00\n        /* \"#utility.yul\":5282:5285   */\n      0xa0\n        /* \"#utility.yul\":5270:5279   */\n      dup7\n        /* \"#utility.yul\":5261:5268   */\n      dup9\n        /* \"#utility.yul\":5257:5280   */\n      sub\n        /* \"#utility.yul\":5253:5286   */\n      slt\n        /* \"#utility.yul\":5250:5370   */\n      iszero\n      tag_438\n      jumpi\n        /* \"#utility.yul\":5289:5368   */\n      tag_439\n      tag_413\n      jump\t// in\n    tag_439:\n        /* \"#utility.yul\":5250:5370   */\n    tag_438:\n        /* \"#utility.yul\":5437:5438   */\n      0x00\n        /* \"#utility.yul\":5426:5435   */\n      dup7\n        /* \"#utility.yul\":5422:5439   */\n      add\n        /* \"#utility.yul\":5409:5440   */\n      calldataload\n        /* \"#utility.yul\":5467:5485   */\n      0xffffffffffffffff\n        /* \"#utility.yul\":5459:5465   */\n      dup2\n        /* \"#utility.yul\":5456:5486   */\n      gt\n        /* \"#utility.yul\":5453:5570   */\n      iszero\n      tag_440\n      jumpi\n        /* \"#utility.yul\":5489:5568   */\n      tag_441\n      tag_420\n      jump\t// in\n    tag_441:\n        /* \"#utility.yul\":5453:5570   */\n    tag_440:\n        /* \"#utility.yul\":5594:5657   */\n      tag_442\n        /* \"#utility.yul\":5649:5656   */\n      dup9\n        /* \"#utility.yul\":5640:5646   */\n      dup3\n        /* \"#utility.yul\":5629:5638   */\n      dup10\n        /* \"#utility.yul\":5625:5647   */\n      add\n        /* \"#utility.yul\":5594:5657   */\n      tag_382\n      jump\t// in\n    tag_442:\n        /* \"#utility.yul\":5584:5657   */\n      swap6\n      pop\n        /* \"#utility.yul\":5380:5667   */\n      pop\n        /* \"#utility.yul\":5734:5736   */\n      0x20\n        /* \"#utility.yul\":5723:5732   */\n      dup7\n        /* \"#utility.yul\":5719:5737   */\n      add\n        /* \"#utility.yul\":5706:5738   */\n      calldataload\n        /* \"#utility.yul\":5765:5783   */\n      0xffffffffffffffff\n        /* \"#utility.yul\":5757:5763   */\n      dup2\n        /* \"#utility.yul\":5754:5784   */\n      gt\n        /* \"#utility.yul\":5751:5868   */\n      iszero\n      tag_443\n      jumpi\n        /* \"#utility.yul\":5787:5866   */\n      tag_444\n      tag_420\n      jump\t// in\n    tag_444:\n        /* \"#utility.yul\":5751:5868   */\n    tag_443:\n        /* \"#utility.yul\":5892:5955   */\n      tag_445\n        /* \"#utility.yul\":5947:5954   */\n      dup9\n        /* \"#utility.yul\":5938:5944   */\n      dup3\n        /* \"#utility.yul\":5927:5936   */\n      dup10\n        /* \"#utility.yul\":5923:5945   */\n      add\n        /* \"#utility.yul\":5892:5955   */\n      tag_382\n      jump\t// in\n    tag_445:\n        /* \"#utility.yul\":5882:5955   */\n      swap5\n      pop\n        /* \"#utility.yul\":5677:5965   */\n      pop\n        /* \"#utility.yul\":6032:6034   */\n      0x40\n        /* \"#utility.yul\":6021:6030   */\n      dup7\n        /* \"#utility.yul\":6017:6035   */\n      add\n        /* \"#utility.yul\":6004:6036   */\n      calldataload\n        /* \"#utility.yul\":6063:6081   */\n      0xffffffffffffffff\n        /* \"#utility.yul\":6055:6061   */\n      dup2\n        /* \"#utility.yul\":6052:6082   */\n      gt\n        /* \"#utility.yul\":6049:6166   */\n      iszero\n      tag_446\n      jumpi\n        /* \"#utility.yul\":6085:6164   */\n      tag_447\n      tag_420\n      jump\t// in\n    tag_447:\n        /* \"#utility.yul\":6049:6166   */\n    tag_446:\n        /* \"#utility.yul\":6190:6253   */\n      tag_448\n        /* \"#utility.yul\":6245:6252   */\n      dup9\n        /* \"#utility.yul\":6236:6242   */\n      dup3\n        /* \"#utility.yul\":6225:6234   */\n      dup10\n        /* \"#utility.yul\":6221:6243   */\n      add\n        /* \"#utility.yul\":6190:6253   */\n      tag_382\n      jump\t// in\n    tag_448:\n        /* \"#utility.yul\":6180:6253   */\n      swap4\n      pop\n        /* \"#utility.yul\":5975:6263   */\n      pop\n        /* \"#utility.yul\":6330:6332   */\n      0x60\n        /* \"#utility.yul\":6319:6328   */\n      dup7\n        /* \"#utility.yul\":6315:6333   */\n      add\n        /* \"#utility.yul\":6302:6334   */\n      calldataload\n        /* \"#utility.yul\":6361:6379   */\n      0xffffffffffffffff\n        /* \"#utility.yul\":6353:6359   */\n      dup2\n        /* \"#utility.yul\":6350:6380   */\n      gt\n        /* \"#utility.yul\":6347:6464   */\n      iszero\n      tag_449\n      jumpi\n        /* \"#utility.yul\":6383:6462   */\n      tag_450\n      tag_420\n      jump\t// in\n    tag_450:\n        /* \"#utility.yul\":6347:6464   */\n    tag_449:\n        /* \"#utility.yul\":6488:6551   */\n      tag_451\n        /* \"#utility.yul\":6543:6550   */\n      dup9\n        /* \"#utility.yul\":6534:6540   */\n      dup3\n        /* \"#utility.yul\":6523:6532   */\n      dup10\n        /* \"#utility.yul\":6519:6541   */\n      add\n        /* \"#utility.yul\":6488:6551   */\n      tag_382\n      jump\t// in\n    tag_451:\n        /* \"#utility.yul\":6478:6551   */\n      swap3\n      pop\n        /* \"#utility.yul\":6273:6561   */\n      pop\n        /* \"#utility.yul\":6628:6631   */\n      0x80\n        /* \"#utility.yul\":6617:6626   */\n      dup7\n        /* \"#utility.yul\":6613:6632   */\n      add\n        /* \"#utility.yul\":6600:6633   */\n      calldataload\n        /* \"#utility.yul\":6660:6678   */\n      0xffffffffffffffff\n        /* \"#utility.yul\":6652:6658   */\n      dup2\n        /* \"#utility.yul\":6649:6679   */\n      gt\n        /* \"#utility.yul\":6646:6763   */\n      iszero\n      tag_452\n      jumpi\n        /* \"#utility.yul\":6682:6761   */\n      tag_453\n      tag_420\n      jump\t// in\n    tag_453:\n        /* \"#utility.yul\":6646:6763   */\n    tag_452:\n        /* \"#utility.yul\":6787:6850   */\n      tag_454\n        /* \"#utility.yul\":6842:6849   */\n      dup9\n        /* \"#utility.yul\":6833:6839   */\n      dup3\n        /* \"#utility.yul\":6822:6831   */\n      dup10\n        /* \"#utility.yul\":6818:6840   */\n      add\n        /* \"#utility.yul\":6787:6850   */\n      tag_382\n      jump\t// in\n    tag_454:\n        /* \"#utility.yul\":6777:6850   */\n      swap2\n      pop\n        /* \"#utility.yul\":6571:6860   */\n      pop\n        /* \"#utility.yul\":5056:6867   */\n      swap3\n      swap6\n      pop\n      swap3\n      swap6\n      swap1\n      swap4\n      pop\n      jump\t// out\n        /* \"#utility.yul\":6873:9010   */\n    tag_41:\n        /* \"#utility.yul\":7037:7043   */\n      0x00\n        /* \"#utility.yul\":7045:7051   */\n      dup1\n        /* \"#utility.yul\":7053:7059   */\n      0x00\n        /* \"#utility.yul\":7061:7067   */\n      dup1\n        /* \"#utility.yul\":7069:7075   */\n      0x00\n        /* \"#utility.yul\":7077:7083   */\n      dup1\n        /* \"#utility.yul\":7126:7129   */\n      0xc0\n        /* \"#utility.yul\":7114:7123   */\n      dup8\n        /* \"#utility.yul\":7105:7112   */\n      dup10\n        /* \"#utility.yul\":7101:7124   */\n      sub\n        /* \"#utility.yul\":7097:7130   */\n      slt\n        /* \"#utility.yul\":7094:7214   */\n      iszero\n      tag_456\n      jumpi\n        /* \"#utility.yul\":7133:7212   */\n      tag_457\n      tag_413\n      jump\t// in\n    tag_457:\n        /* \"#utility.yul\":7094:7214   */\n    tag_456:\n        /* \"#utility.yul\":7281:7282   */\n      0x00\n        /* \"#utility.yul\":7270:7279   */\n      dup8\n        /* \"#utility.yul\":7266:7283   */\n      add\n        /* \"#utility.yul\":7253:7284   */\n      calldataload\n        /* \"#utility.yul\":7311:7329   */\n      0xffffffffffffffff\n        /* \"#utility.yul\":7303:7309   */\n      dup2\n        /* \"#utility.yul\":7300:7330   */\n      gt\n        /* \"#utility.yul\":7297:7414   */\n      iszero\n      tag_458\n      jumpi\n        /* \"#utility.yul\":7333:7412   */\n      tag_459\n      tag_420\n      jump\t// in\n    tag_459:\n        /* \"#utility.yul\":7297:7414   */\n    tag_458:\n        /* \"#utility.yul\":7438:7501   */\n      tag_460\n        /* \"#utility.yul\":7493:7500   */\n      dup10\n        /* \"#utility.yul\":7484:7490   */\n      dup3\n        /* \"#utility.yul\":7473:7482   */\n      dup11\n        /* \"#utility.yul\":7469:7491   */\n      add\n        /* \"#utility.yul\":7438:7501   */\n      tag_382\n      jump\t// in\n    tag_460:\n        /* \"#utility.yul\":7428:7501   */\n      swap7\n      pop\n        /* \"#utility.yul\":7224:7511   */\n      pop\n        /* \"#utility.yul\":7578:7580   */\n      0x20\n        /* \"#utility.yul\":7567:7576   */\n      dup8\n        /* \"#utility.yul\":7563:7581   */\n      add\n        /* \"#utility.yul\":7550:7582   */\n      calldataload\n        /* \"#utility.yul\":7609:7627   */\n      0xffffffffffffffff\n        /* \"#utility.yul\":7601:7607   */\n      dup2\n        /* \"#utility.yul\":7598:7628   */\n      gt\n        /* \"#utility.yul\":7595:7712   */\n      iszero\n      tag_461\n      jumpi\n        /* \"#utility.yul\":7631:7710   */\n      tag_462\n      tag_420\n      jump\t// in\n    tag_462:\n        /* \"#utility.yul\":7595:7712   */\n    tag_461:\n        /* \"#utility.yul\":7736:7799   */\n      tag_463\n        /* \"#utility.yul\":7791:7798   */\n      dup10\n        /* \"#utility.yul\":7782:7788   */\n      dup3\n        /* \"#utility.yul\":7771:7780   */\n      dup11\n        /* \"#utility.yul\":7767:7789   */\n      add\n        /* \"#utility.yul\":7736:7799   */\n      tag_382\n      jump\t// in\n    tag_463:\n        /* \"#utility.yul\":7726:7799   */\n      swap6\n      pop\n        /* \"#utility.yul\":7521:7809   */\n      pop\n        /* \"#utility.yul\":7876:7878   */\n      0x40\n        /* \"#utility.yul\":7865:7874   */\n      dup8\n        /* \"#utility.yul\":7861:7879   */\n      add\n        /* \"#utility.yul\":7848:7880   */\n      calldataload\n        /* \"#utility.yul\":7907:7925   */\n      0xffffffffffffffff\n        /* \"#utility.yul\":7899:7905   */\n      dup2\n        /* \"#utility.yul\":7896:7926   */\n      gt\n        /* \"#utility.yul\":7893:8010   */\n      iszero\n      tag_464\n      jumpi\n        /* \"#utility.yul\":7929:8008   */\n      tag_465\n      tag_420\n      jump\t// in\n    tag_465:\n        /* \"#utility.yul\":7893:8010   */\n    tag_464:\n        /* \"#utility.yul\":8034:8097   */\n      tag_466\n        /* \"#utility.yul\":8089:8096   */\n      dup10\n        /* \"#utility.yul\":8080:8086   */\n      dup3\n        /* \"#utility.yul\":8069:8078   */\n      dup11\n        /* \"#utility.yul\":8065:8087   */\n      add\n        /* \"#utility.yul\":8034:8097   */\n      tag_382\n      jump\t// in\n    tag_466:\n        /* \"#utility.yul\":8024:8097   */\n      swap5\n      pop\n        /* \"#utility.yul\":7819:8107   */\n      pop\n        /* \"#utility.yul\":8174:8176   */\n      0x60\n        /* \"#utility.yul\":8163:8172   */\n      dup8\n        /* \"#utility.yul\":8159:8177   */\n      add\n        /* \"#utility.yul\":8146:8178   */\n      calldataload\n        /* \"#utility.yul\":8205:8223   */\n      0xffffffffffffffff\n        /* \"#utility.yul\":8197:8203   */\n      dup2\n        /* \"#utility.yul\":8194:8224   */\n      gt\n        /* \"#utility.yul\":8191:8308   */\n      iszero\n      tag_467\n      jumpi\n        /* \"#utility.yul\":8227:8306   */\n      tag_468\n      tag_420\n      jump\t// in\n    tag_468:\n        /* \"#utility.yul\":8191:8308   */\n    tag_467:\n        /* \"#utility.yul\":8332:8395   */\n      tag_469\n        /* \"#utility.yul\":8387:8394   */\n      dup10\n        /* \"#utility.yul\":8378:8384   */\n      dup3\n        /* \"#utility.yul\":8367:8376   */\n      dup11\n        /* \"#utility.yul\":8363:8385   */\n      add\n        /* \"#utility.yul\":8332:8395   */\n      tag_382\n      jump\t// in\n    tag_469:\n        /* \"#utility.yul\":8322:8395   */\n      swap4\n      pop\n        /* \"#utility.yul\":8117:8405   */\n      pop\n        /* \"#utility.yul\":8472:8475   */\n      0x80\n        /* \"#utility.yul\":8461:8470   */\n      dup8\n        /* \"#utility.yul\":8457:8476   */\n      add\n        /* \"#utility.yul\":8444:8477   */\n      calldataload\n        /* \"#utility.yul\":8504:8522   */\n      0xffffffffffffffff\n        /* \"#utility.yul\":8496:8502   */\n      dup2\n        /* \"#utility.yul\":8493:8523   */\n      gt\n        /* \"#utility.yul\":8490:8607   */\n      iszero\n      tag_470\n      jumpi\n        /* \"#utility.yul\":8526:8605   */\n      tag_471\n      tag_420\n      jump\t// in\n    tag_471:\n        /* \"#utility.yul\":8490:8607   */\n    tag_470:\n        /* \"#utility.yul\":8631:8694   */\n      tag_472\n        /* \"#utility.yul\":8686:8693   */\n      dup10\n        /* \"#utility.yul\":8677:8683   */\n      dup3\n        /* \"#utility.yul\":8666:8675   */\n      dup11\n        /* \"#utility.yul\":8662:8684   */\n      add\n        /* \"#utility.yul\":8631:8694   */\n      tag_382\n      jump\t// in\n    tag_472:\n        /* \"#utility.yul\":8621:8694   */\n      swap3\n      pop\n        /* \"#utility.yul\":8415:8704   */\n      pop\n        /* \"#utility.yul\":8771:8774   */\n      0xa0\n        /* \"#utility.yul\":8760:8769   */\n      dup8\n        /* \"#utility.yul\":8756:8775   */\n      add\n        /* \"#utility.yul\":8743:8776   */\n      calldataload\n        /* \"#utility.yul\":8803:8821   */\n      0xffffffffffffffff\n        /* \"#utility.yul\":8795:8801   */\n      dup2\n        /* \"#utility.yul\":8792:8822   */\n      gt\n        /* \"#utility.yul\":8789:8906   */\n      iszero\n      tag_473\n      jumpi\n        /* \"#utility.yul\":8825:8904   */\n      tag_474\n      tag_420\n      jump\t// in\n    tag_474:\n        /* \"#utility.yul\":8789:8906   */\n    tag_473:\n        /* \"#utility.yul\":8930:8993   */\n      tag_475\n        /* \"#utility.yul\":8985:8992   */\n      dup10\n        /* \"#utility.yul\":8976:8982   */\n      dup3\n        /* \"#utility.yul\":8965:8974   */\n      dup11\n        /* \"#utility.yul\":8961:8983   */\n      add\n        /* \"#utility.yul\":8930:8993   */\n      tag_382\n      jump\t// in\n    tag_475:\n        /* \"#utility.yul\":8920:8993   */\n      swap2\n      pop\n        /* \"#utility.yul\":8714:9003   */\n      pop\n        /* \"#utility.yul\":6873:9010   */\n      swap3\n      swap6\n      pop\n      swap3\n      swap6\n      pop\n      swap3\n      swap6\n      jump\t// out\n        /* \"#utility.yul\":9016:9345   */\n    tag_58:\n        /* \"#utility.yul\":9075:9081   */\n      0x00\n        /* \"#utility.yul\":9124:9126   */\n      0x20\n        /* \"#utility.yul\":9112:9121   */\n      dup3\n        /* \"#utility.yul\":9103:9110   */\n      dup5\n        /* \"#utility.yul\":9099:9122   */\n      sub\n        /* \"#utility.yul\":9095:9127   */\n      slt\n        /* \"#utility.yul\":9092:9211   */\n      iszero\n      tag_477\n      jumpi\n        /* \"#utility.yul\":9130:9209   */\n      tag_478\n      tag_413\n      jump\t// in\n    tag_478:\n        /* \"#utility.yul\":9092:9211   */\n    tag_477:\n        /* \"#utility.yul\":9250:9251   */\n      0x00\n        /* \"#utility.yul\":9275:9328   */\n      tag_479\n        /* \"#utility.yul\":9320:9327   */\n      dup5\n        /* \"#utility.yul\":9311:9317   */\n      dup3\n        /* \"#utility.yul\":9300:9309   */\n      dup6\n        /* \"#utility.yul\":9296:9318   */\n      add\n        /* \"#utility.yul\":9275:9328   */\n      tag_406\n      jump\t// in\n    tag_479:\n        /* \"#utility.yul\":9265:9328   */\n      swap2\n      pop\n        /* \"#utility.yul\":9221:9338   */\n      pop\n        /* \"#utility.yul\":9016:9345   */\n      swap3\n      swap2\n      pop\n      pop\n      jump\t// out\n        /* \"#utility.yul\":9351:9547   */\n    tag_480:\n        /* \"#utility.yul\":9440:9450   */\n      0x00\n        /* \"#utility.yul\":9475:9541   */\n      tag_482\n        /* \"#utility.yul\":9537:9540   */\n      dup4\n        /* \"#utility.yul\":9529:9535   */\n      dup4\n        /* \"#utility.yul\":9475:9541   */\n      tag_483\n      jump\t// in\n    tag_482:\n        /* \"#utility.yul\":9461:9541   */\n      swap1\n      pop\n        /* \"#utility.yul\":9351:9547   */\n      swap3\n      swap2\n      pop\n      pop\n      jump\t// out\n        /* \"#utility.yul\":9553:9661   */\n    tag_484:\n        /* \"#utility.yul\":9630:9654   */\n      tag_486\n        /* \"#utility.yul\":9648:9653   */\n      dup2\n        /* \"#utility.yul\":9630:9654   */\n      tag_487\n      jump\t// in\n    tag_486:\n        /* \"#utility.yul\":9625:9628   */\n      dup3\n        /* \"#utility.yul\":9618:9655   */\n      mstore\n        /* \"#utility.yul\":9553:9661   */\n      pop\n      pop\n      jump\t// out\n        /* \"#utility.yul\":9695:10666   */\n    tag_488:\n        /* \"#utility.yul\":9824:9827   */\n      0x00\n        /* \"#utility.yul\":9853:9917   */\n      tag_490\n        /* \"#utility.yul\":9911:9916   */\n      dup3\n        /* \"#utility.yul\":9853:9917   */\n      tag_491\n      jump\t// in\n    tag_490:\n        /* \"#utility.yul\":9933:10019   */\n      tag_492\n        /* \"#utility.yul\":10012:10018   */\n      dup2\n        /* \"#utility.yul\":10007:10010   */\n      dup6\n        /* \"#utility.yul\":9933:10019   */\n      tag_493\n      jump\t// in\n    tag_492:\n        /* \"#utility.yul\":9926:10019   */\n      swap4\n      pop\n        /* \"#utility.yul\":10045:10048   */\n      dup4\n        /* \"#utility.yul\":10090:10094   */\n      0x20\n        /* \"#utility.yul\":10082:10088   */\n      dup3\n        /* \"#utility.yul\":10078:10095   */\n      mul\n        /* \"#utility.yul\":10073:10076   */\n      dup6\n        /* \"#utility.yul\":10069:10096   */\n      add\n        /* \"#utility.yul\":10120:10186   */\n      tag_494\n        /* \"#utility.yul\":10180:10185   */\n      dup6\n        /* \"#utility.yul\":10120:10186   */\n      tag_495\n      jump\t// in\n    tag_494:\n        /* \"#utility.yul\":10209:10216   */\n      dup1\n        /* \"#utility.yul\":10240:10241   */\n      0x00\n        /* \"#utility.yul\":10225:10621   */\n    tag_496:\n        /* \"#utility.yul\":10250:10256   */\n      dup6\n        /* \"#utility.yul\":10247:10248   */\n      dup2\n        /* \"#utility.yul\":10244:10257   */\n      lt\n        /* \"#utility.yul\":10225:10621   */\n      iszero\n      tag_498\n      jumpi\n        /* \"#utility.yul\":10321:10330   */\n      dup5\n        /* \"#utility.yul\":10315:10319   */\n      dup5\n        /* \"#utility.yul\":10311:10331   */\n      sub\n        /* \"#utility.yul\":10306:10309   */\n      dup10\n        /* \"#utility.yul\":10299:10332   */\n      mstore\n        /* \"#utility.yul\":10372:10378   */\n      dup2\n        /* \"#utility.yul\":10366:10379   */\n      mload\n        /* \"#utility.yul\":10400:10484   */\n      tag_499\n        /* \"#utility.yul\":10479:10483   */\n      dup6\n        /* \"#utility.yul\":10464:10477   */\n      dup3\n        /* \"#utility.yul\":10400:10484   */\n      tag_480\n      jump\t// in\n    tag_499:\n        /* \"#utility.yul\":10392:10484   */\n      swap5\n      pop\n        /* \"#utility.yul\":10507:10577   */\n      tag_500\n        /* \"#utility.yul\":10570:10576   */\n      dup4\n        /* \"#utility.yul\":10507:10577   */\n      tag_501\n      jump\t// in\n    tag_500:\n        /* \"#utility.yul\":10497:10577   */\n      swap3\n      pop\n        /* \"#utility.yul\":10606:10610   */\n      0x20\n        /* \"#utility.yul\":10601:10604   */\n      dup11\n        /* \"#utility.yul\":10597:10611   */\n      add\n        /* \"#utility.yul\":10590:10611   */\n      swap10\n      pop\n        /* \"#utility.yul\":10285:10621   */\n      pop\n        /* \"#utility.yul\":10272:10273   */\n      0x01\n        /* \"#utility.yul\":10269:10270   */\n      dup2\n        /* \"#utility.yul\":10265:10274   */\n      add\n        /* \"#utility.yul\":10260:10274   */\n      swap1\n      pop\n        /* \"#utility.yul\":10225:10621   */\n      jump(tag_496)\n    tag_498:\n        /* \"#utility.yul\":10229:10243   */\n      pop\n        /* \"#utility.yul\":10637:10641   */\n      dup3\n        /* \"#utility.yul\":10630:10641   */\n      swap8\n      pop\n        /* \"#utility.yul\":10657:10660   */\n      dup8\n        /* \"#utility.yul\":10650:10660   */\n      swap6\n      pop\n        /* \"#utility.yul\":9829:10666   */\n      pop\n      pop\n      pop\n      pop\n      pop\n        /* \"#utility.yul\":9695:10666   */\n      swap3\n      swap2\n      pop\n      pop\n      jump\t// out\n        /* \"#utility.yul\":10672:11016   */\n    tag_483:\n        /* \"#utility.yul\":10750:10753   */\n      0x00\n        /* \"#utility.yul\":10778:10817   */\n      tag_503\n        /* \"#utility.yul\":10811:10816   */\n      dup3\n        /* \"#utility.yul\":10778:10817   */\n      tag_504\n      jump\t// in\n    tag_503:\n        /* \"#utility.yul\":10833:10894   */\n      tag_505\n        /* \"#utility.yul\":10887:10893   */\n      dup2\n        /* \"#utility.yul\":10882:10885   */\n      dup6\n        /* \"#utility.yul\":10833:10894   */\n      tag_506\n      jump\t// in\n    tag_505:\n        /* \"#utility.yul\":10826:10894   */\n      swap4\n      pop\n        /* \"#utility.yul\":10903:10955   */\n      tag_507\n        /* \"#utility.yul\":10948:10954   */\n      dup2\n        /* \"#utility.yul\":10943:10946   */\n      dup6\n        /* \"#utility.yul\":10936:10940   */\n      0x20\n        /* \"#utility.yul\":10929:10934   */\n      dup7\n        /* \"#utility.yul\":10925:10941   */\n      add\n        /* \"#utility.yul\":10903:10955   */\n      tag_508\n      jump\t// in\n    tag_507:\n        /* \"#utility.yul\":10980:11009   */\n      tag_509\n        /* \"#utility.yul\":11002:11008   */\n      dup2\n        /* \"#utility.yul\":10980:11009   */\n      tag_510\n      jump\t// in\n    tag_509:\n        /* \"#utility.yul\":10975:10978   */\n      dup5\n        /* \"#utility.yul\":10971:11010   */\n      add\n        /* \"#utility.yul\":10964:11010   */\n      swap2\n      pop\n        /* \"#utility.yul\":10754:11016   */\n      pop\n        /* \"#utility.yul\":10672:11016   */\n      swap3\n      swap2\n      pop\n      pop\n      jump\t// out\n        /* \"#utility.yul\":11022:11386   */\n    tag_511:\n        /* \"#utility.yul\":11110:11113   */\n      0x00\n        /* \"#utility.yul\":11138:11177   */\n      tag_513\n        /* \"#utility.yul\":11171:11176   */\n      dup3\n        /* \"#utility.yul\":11138:11177   */\n      tag_504\n      jump\t// in\n    tag_513:\n        /* \"#utility.yul\":11193:11264   */\n      tag_514\n        /* \"#utility.yul\":11257:11263   */\n      dup2\n        /* \"#utility.yul\":11252:11255   */\n      dup6\n        /* \"#utility.yul\":11193:11264   */\n      tag_515\n      jump\t// in\n    tag_514:\n        /* \"#utility.yul\":11186:11264   */\n      swap4\n      pop\n        /* \"#utility.yul\":11273:11325   */\n      tag_516\n        /* \"#utility.yul\":11318:11324   */\n      dup2\n        /* \"#utility.yul\":11313:11316   */\n      dup6\n        /* \"#utility.yul\":11306:11310   */\n      0x20\n        /* \"#utility.yul\":11299:11304   */\n      dup7\n        /* \"#utility.yul\":11295:11311   */\n      add\n        /* \"#utility.yul\":11273:11325   */\n      tag_508\n      jump\t// in\n    tag_516:\n        /* \"#utility.yul\":11350:11379   */\n      tag_517\n        /* \"#utility.yul\":11372:11378   */\n      dup2\n        /* \"#utility.yul\":11350:11379   */\n      tag_510\n      jump\t// in\n    tag_517:\n        /* \"#utility.yul\":11345:11348   */\n      dup5\n        /* \"#utility.yul\":11341:11380   */\n      add\n        /* \"#utility.yul\":11334:11380   */\n      swap2\n      pop\n        /* \"#utility.yul\":11114:11386   */\n      pop\n        /* \"#utility.yul\":11022:11386   */\n      swap3\n      swap2\n      pop\n      pop\n      jump\t// out\n        /* \"#utility.yul\":11472:12279   */\n    tag_518:\n        /* \"#utility.yul\":11613:11616   */\n      0x00\n        /* \"#utility.yul\":11649:11653   */\n      0x40\n        /* \"#utility.yul\":11644:11647   */\n      dup4\n        /* \"#utility.yul\":11640:11654   */\n      add\n        /* \"#utility.yul\":11743:11747   */\n      0x00\n        /* \"#utility.yul\":11736:11741   */\n      dup4\n        /* \"#utility.yul\":11732:11748   */\n      add\n        /* \"#utility.yul\":11726:11749   */\n      mload\n        /* \"#utility.yul\":11796:11799   */\n      dup5\n        /* \"#utility.yul\":11790:11794   */\n      dup3\n        /* \"#utility.yul\":11786:11800   */\n      sub\n        /* \"#utility.yul\":11779:11783   */\n      0x00\n        /* \"#utility.yul\":11774:11777   */\n      dup7\n        /* \"#utility.yul\":11770:11784   */\n      add\n        /* \"#utility.yul\":11763:11801   */\n      mstore\n        /* \"#utility.yul\":11822:11945   */\n      tag_520\n        /* \"#utility.yul\":11940:11944   */\n      dup3\n        /* \"#utility.yul\":11926:11938   */\n      dup3\n        /* \"#utility.yul\":11822:11945   */\n      tag_488\n      jump\t// in\n    tag_520:\n        /* \"#utility.yul\":11814:11945   */\n      swap2\n      pop\n        /* \"#utility.yul\":11664:11956   */\n      pop\n        /* \"#utility.yul\":12039:12043   */\n      0x20\n        /* \"#utility.yul\":12032:12037   */\n      dup4\n        /* \"#utility.yul\":12028:12044   */\n      add\n        /* \"#utility.yul\":12022:12045   */\n      mload\n        /* \"#utility.yul\":12092:12095   */\n      dup5\n        /* \"#utility.yul\":12086:12090   */\n      dup3\n        /* \"#utility.yul\":12082:12096   */\n      sub\n        /* \"#utility.yul\":12075:12079   */\n      0x20\n        /* \"#utility.yul\":12070:12073   */\n      dup7\n        /* \"#utility.yul\":12066:12080   */\n      add\n        /* \"#utility.yul\":12059:12097   */\n      mstore\n        /* \"#utility.yul\":12118:12241   */\n      tag_521\n        /* \"#utility.yul\":12236:12240   */\n      dup3\n        /* \"#utility.yul\":12222:12234   */\n      dup3\n        /* \"#utility.yul\":12118:12241   */\n      tag_488\n      jump\t// in\n    tag_521:\n        /* \"#utility.yul\":12110:12241   */\n      swap2\n      pop\n        /* \"#utility.yul\":11966:12252   */\n      pop\n        /* \"#utility.yul\":12269:12273   */\n      dup1\n        /* \"#utility.yul\":12262:12273   */\n      swap2\n      pop\n        /* \"#utility.yul\":11618:12279   */\n      pop\n        /* \"#utility.yul\":11472:12279   */\n      swap3\n      swap2\n      pop\n      pop\n      jump\t// out\n        /* \"#utility.yul\":12361:13861   */\n    tag_522:\n        /* \"#utility.yul\":12496:12499   */\n      0x00\n        /* \"#utility.yul\":12532:12536   */\n      0xa0\n        /* \"#utility.yul\":12527:12530   */\n      dup4\n        /* \"#utility.yul\":12523:12537   */\n      add\n        /* \"#utility.yul\":12626:12630   */\n      0x00\n        /* \"#utility.yul\":12619:12624   */\n      dup4\n        /* \"#utility.yul\":12615:12631   */\n      add\n        /* \"#utility.yul\":12609:12632   */\n      mload\n        /* \"#utility.yul\":12679:12682   */\n      dup5\n        /* \"#utility.yul\":12673:12677   */\n      dup3\n        /* \"#utility.yul\":12669:12683   */\n      sub\n        /* \"#utility.yul\":12662:12666   */\n      0x00\n        /* \"#utility.yul\":12657:12660   */\n      dup7\n        /* \"#utility.yul\":12653:12667   */\n      add\n        /* \"#utility.yul\":12646:12684   */\n      mstore\n        /* \"#utility.yul\":12705:12778   */\n      tag_524\n        /* \"#utility.yul\":12773:12777   */\n      dup3\n        /* \"#utility.yul\":12759:12771   */\n      dup3\n        /* \"#utility.yul\":12705:12778   */\n      tag_483\n      jump\t// in\n    tag_524:\n        /* \"#utility.yul\":12697:12778   */\n      swap2\n      pop\n        /* \"#utility.yul\":12547:12789   */\n      pop\n        /* \"#utility.yul\":12875:12879   */\n      0x20\n        /* \"#utility.yul\":12868:12873   */\n      dup4\n        /* \"#utility.yul\":12864:12880   */\n      add\n        /* \"#utility.yul\":12858:12881   */\n      mload\n        /* \"#utility.yul\":12928:12931   */\n      dup5\n        /* \"#utility.yul\":12922:12926   */\n      dup3\n        /* \"#utility.yul\":12918:12932   */\n      sub\n        /* \"#utility.yul\":12911:12915   */\n      0x20\n        /* \"#utility.yul\":12906:12909   */\n      dup7\n        /* \"#utility.yul\":12902:12916   */\n      add\n        /* \"#utility.yul\":12895:12933   */\n      mstore\n        /* \"#utility.yul\":12954:13027   */\n      tag_525\n        /* \"#utility.yul\":13022:13026   */\n      dup3\n        /* \"#utility.yul\":13008:13020   */\n      dup3\n        /* \"#utility.yul\":12954:13027   */\n      tag_483\n      jump\t// in\n    tag_525:\n        /* \"#utility.yul\":12946:13027   */\n      swap2\n      pop\n        /* \"#utility.yul\":12799:13038   */\n      pop\n        /* \"#utility.yul\":13125:13129   */\n      0x40\n        /* \"#utility.yul\":13118:13123   */\n      dup4\n        /* \"#utility.yul\":13114:13130   */\n      add\n        /* \"#utility.yul\":13108:13131   */\n      mload\n        /* \"#utility.yul\":13178:13181   */\n      dup5\n        /* \"#utility.yul\":13172:13176   */\n      dup3\n        /* \"#utility.yul\":13168:13182   */\n      sub\n        /* \"#utility.yul\":13161:13165   */\n      0x40\n        /* \"#utility.yul\":13156:13159   */\n      dup7\n        /* \"#utility.yul\":13152:13166   */\n      add\n        /* \"#utility.yul\":13145:13183   */\n      mstore\n        /* \"#utility.yul\":13204:13277   */\n      tag_526\n        /* \"#utility.yul\":13272:13276   */\n      dup3\n        /* \"#utility.yul\":13258:13270   */\n      dup3\n        /* \"#utility.yul\":13204:13277   */\n      tag_483\n      jump\t// in\n    tag_526:\n        /* \"#utility.yul\":13196:13277   */\n      swap2\n      pop\n        /* \"#utility.yul\":13048:13288   */\n      pop\n        /* \"#utility.yul\":13373:13377   */\n      0x60\n        /* \"#utility.yul\":13366:13371   */\n      dup4\n        /* \"#utility.yul\":13362:13378   */\n      add\n        /* \"#utility.yul\":13356:13379   */\n      mload\n        /* \"#utility.yul\":13426:13429   */\n      dup5\n        /* \"#utility.yul\":13420:13424   */\n      dup3\n        /* \"#utility.yul\":13416:13430   */\n      sub\n        /* \"#utility.yul\":13409:13413   */\n      0x60\n        /* \"#utility.yul\":13404:13407   */\n      dup7\n        /* \"#utility.yul\":13400:13414   */\n      add\n        /* \"#utility.yul\":13393:13431   */\n      mstore\n        /* \"#utility.yul\":13452:13525   */\n      tag_527\n        /* \"#utility.yul\":13520:13524   */\n      dup3\n        /* \"#utility.yul\":13506:13518   */\n      dup3\n        /* \"#utility.yul\":13452:13525   */\n      tag_483\n      jump\t// in\n    tag_527:\n        /* \"#utility.yul\":13444:13525   */\n      swap2\n      pop\n        /* \"#utility.yul\":13298:13536   */\n      pop\n        /* \"#utility.yul\":13621:13625   */\n      0x80\n        /* \"#utility.yul\":13614:13619   */\n      dup4\n        /* \"#utility.yul\":13610:13626   */\n      add\n        /* \"#utility.yul\":13604:13627   */\n      mload\n        /* \"#utility.yul\":13674:13677   */\n      dup5\n        /* \"#utility.yul\":13668:13672   */\n      dup3\n        /* \"#utility.yul\":13664:13678   */\n      sub\n        /* \"#utility.yul\":13657:13661   */\n      0x80\n        /* \"#utility.yul\":13652:13655   */\n      dup7\n        /* \"#utility.yul\":13648:13662   */\n      add\n        /* \"#utility.yul\":13641:13679   */\n      mstore\n        /* \"#utility.yul\":13700:13823   */\n      tag_528\n        /* \"#utility.yul\":13818:13822   */\n      dup3\n        /* \"#utility.yul\":13804:13816   */\n      dup3\n        /* \"#utility.yul\":13700:13823   */\n      tag_488\n      jump\t// in\n    tag_528:\n        /* \"#utility.yul\":13692:13823   */\n      swap2\n      pop\n        /* \"#utility.yul\":13546:13834   */\n      pop\n        /* \"#utility.yul\":13851:13855   */\n      dup1\n        /* \"#utility.yul\":13844:13855   */\n      swap2\n      pop\n        /* \"#utility.yul\":12501:13861   */\n      pop\n        /* \"#utility.yul\":12361:13861   */\n      swap3\n      swap2\n      pop\n      pop\n      jump\t// out\n        /* \"#utility.yul\":13925:15591   */\n    tag_529:\n        /* \"#utility.yul\":14042:14045   */\n      0x00\n        /* \"#utility.yul\":14078:14082   */\n      0xc0\n        /* \"#utility.yul\":14073:14076   */\n      dup4\n        /* \"#utility.yul\":14069:14083   */\n      add\n        /* \"#utility.yul\":14168:14172   */\n      0x00\n        /* \"#utility.yul\":14161:14166   */\n      dup4\n        /* \"#utility.yul\":14157:14173   */\n      add\n        /* \"#utility.yul\":14151:14174   */\n      mload\n        /* \"#utility.yul\":14221:14224   */\n      dup5\n        /* \"#utility.yul\":14215:14219   */\n      dup3\n        /* \"#utility.yul\":14211:14225   */\n      sub\n        /* \"#utility.yul\":14204:14208   */\n      0x00\n        /* \"#utility.yul\":14199:14202   */\n      dup7\n        /* \"#utility.yul\":14195:14209   */\n      add\n        /* \"#utility.yul\":14188:14226   */\n      mstore\n        /* \"#utility.yul\":14247:14320   */\n      tag_531\n        /* \"#utility.yul\":14315:14319   */\n      dup3\n        /* \"#utility.yul\":14301:14313   */\n      dup3\n        /* \"#utility.yul\":14247:14320   */\n      tag_483\n      jump\t// in\n    tag_531:\n        /* \"#utility.yul\":14239:14320   */\n      swap2\n      pop\n        /* \"#utility.yul\":14093:14331   */\n      pop\n        /* \"#utility.yul\":14414:14418   */\n      0x20\n        /* \"#utility.yul\":14407:14412   */\n      dup4\n        /* \"#utility.yul\":14403:14419   */\n      add\n        /* \"#utility.yul\":14397:14420   */\n      mload\n        /* \"#utility.yul\":14467:14470   */\n      dup5\n        /* \"#utility.yul\":14461:14465   */\n      dup3\n        /* \"#utility.yul\":14457:14471   */\n      sub\n        /* \"#utility.yul\":14450:14454   */\n      0x20\n        /* \"#utility.yul\":14445:14448   */\n      dup7\n        /* \"#utility.yul\":14441:14455   */\n      add\n        /* \"#utility.yul\":14434:14472   */\n      mstore\n        /* \"#utility.yul\":14493:14566   */\n      tag_532\n        /* \"#utility.yul\":14561:14565   */\n      dup3\n        /* \"#utility.yul\":14547:14559   */\n      dup3\n        /* \"#utility.yul\":14493:14566   */\n      tag_483\n      jump\t// in\n    tag_532:\n        /* \"#utility.yul\":14485:14566   */\n      swap2\n      pop\n        /* \"#utility.yul\":14341:14577   */\n      pop\n        /* \"#utility.yul\":14660:14664   */\n      0x40\n        /* \"#utility.yul\":14653:14658   */\n      dup4\n        /* \"#utility.yul\":14649:14665   */\n      add\n        /* \"#utility.yul\":14643:14666   */\n      mload\n        /* \"#utility.yul\":14713:14716   */\n      dup5\n        /* \"#utility.yul\":14707:14711   */\n      dup3\n        /* \"#utility.yul\":14703:14717   */\n      sub\n        /* \"#utility.yul\":14696:14700   */\n      0x40\n        /* \"#utility.yul\":14691:14694   */\n      dup7\n        /* \"#utility.yul\":14687:14701   */\n      add\n        /* \"#utility.yul\":14680:14718   */\n      mstore\n        /* \"#utility.yul\":14739:14812   */\n      tag_533\n        /* \"#utility.yul\":14807:14811   */\n      dup3\n        /* \"#utility.yul\":14793:14805   */\n      dup3\n        /* \"#utility.yul\":14739:14812   */\n      tag_483\n      jump\t// in\n    tag_533:\n        /* \"#utility.yul\":14731:14812   */\n      swap2\n      pop\n        /* \"#utility.yul\":14587:14823   */\n      pop\n        /* \"#utility.yul\":14907:14911   */\n      0x60\n        /* \"#utility.yul\":14900:14905   */\n      dup4\n        /* \"#utility.yul\":14896:14912   */\n      add\n        /* \"#utility.yul\":14890:14913   */\n      mload\n        /* \"#utility.yul\":14960:14963   */\n      dup5\n        /* \"#utility.yul\":14954:14958   */\n      dup3\n        /* \"#utility.yul\":14950:14964   */\n      sub\n        /* \"#utility.yul\":14943:14947   */\n      0x60\n        /* \"#utility.yul\":14938:14941   */\n      dup7\n        /* \"#utility.yul\":14934:14948   */\n      add\n        /* \"#utility.yul\":14927:14965   */\n      mstore\n        /* \"#utility.yul\":14986:15059   */\n      tag_534\n        /* \"#utility.yul\":15054:15058   */\n      dup3\n        /* \"#utility.yul\":15040:15052   */\n      dup3\n        /* \"#utility.yul\":14986:15059   */\n      tag_483\n      jump\t// in\n    tag_534:\n        /* \"#utility.yul\":14978:15059   */\n      swap2\n      pop\n        /* \"#utility.yul\":14833:15070   */\n      pop\n        /* \"#utility.yul\":15154:15158   */\n      0x80\n        /* \"#utility.yul\":15147:15152   */\n      dup4\n        /* \"#utility.yul\":15143:15159   */\n      add\n        /* \"#utility.yul\":15137:15160   */\n      mload\n        /* \"#utility.yul\":15207:15210   */\n      dup5\n        /* \"#utility.yul\":15201:15205   */\n      dup3\n        /* \"#utility.yul\":15197:15211   */\n      sub\n        /* \"#utility.yul\":15190:15194   */\n      0x80\n        /* \"#utility.yul\":15185:15188   */\n      dup7\n        /* \"#utility.yul\":15181:15195   */\n      add\n        /* \"#utility.yul\":15174:15212   */\n      mstore\n        /* \"#utility.yul\":15233:15306   */\n      tag_535\n        /* \"#utility.yul\":15301:15305   */\n      dup3\n        /* \"#utility.yul\":15287:15299   */\n      dup3\n        /* \"#utility.yul\":15233:15306   */\n      tag_483\n      jump\t// in\n    tag_535:\n        /* \"#utility.yul\":15225:15306   */\n      swap2\n      pop\n        /* \"#utility.yul\":15080:15317   */\n      pop\n        /* \"#utility.yul\":15401:15405   */\n      0xa0\n        /* \"#utility.yul\":15394:15399   */\n      dup4\n        /* \"#utility.yul\":15390:15406   */\n      add\n        /* \"#utility.yul\":15384:15407   */\n      mload\n        /* \"#utility.yul\":15454:15457   */\n      dup5\n        /* \"#utility.yul\":15448:15452   */\n      dup3\n        /* \"#utility.yul\":15444:15458   */\n      sub\n        /* \"#utility.yul\":15437:15441   */\n      0xa0\n        /* \"#utility.yul\":15432:15435   */\n      dup7\n        /* \"#utility.yul\":15428:15442   */\n      add\n        /* \"#utility.yul\":15421:15459   */\n      mstore\n        /* \"#utility.yul\":15480:15553   */\n      tag_536\n        /* \"#utility.yul\":15548:15552   */\n      dup3\n        /* \"#utility.yul\":15534:15546   */\n      dup3\n        /* \"#utility.yul\":15480:15553   */\n      tag_483\n      jump\t// in\n    tag_536:\n        /* \"#utility.yul\":15472:15553   */\n      swap2\n      pop\n        /* \"#utility.yul\":15327:15564   */\n      pop\n        /* \"#utility.yul\":15581:15585   */\n      dup1\n        /* \"#utility.yul\":15574:15585   */\n      swap2\n      pop\n        /* \"#utility.yul\":14047:15591   */\n      pop\n        /* \"#utility.yul\":13925:15591   */\n      swap3\n      swap2\n      pop\n      pop\n      jump\t// out\n        /* \"#utility.yul\":15677:16383   */\n    tag_537:\n        /* \"#utility.yul\":15816:15819   */\n      0x00\n        /* \"#utility.yul\":15852:15856   */\n      0x40\n        /* \"#utility.yul\":15847:15850   */\n      dup4\n        /* \"#utility.yul\":15843:15857   */\n      add\n        /* \"#utility.yul\":15946:15950   */\n      0x00\n        /* \"#utility.yul\":15939:15944   */\n      dup4\n        /* \"#utility.yul\":15935:15951   */\n      add\n        /* \"#utility.yul\":15929:15952   */\n      mload\n        /* \"#utility.yul\":15999:16002   */\n      dup5\n        /* \"#utility.yul\":15993:15997   */\n      dup3\n        /* \"#utility.yul\":15989:16003   */\n      sub\n        /* \"#utility.yul\":15982:15986   */\n      0x00\n        /* \"#utility.yul\":15977:15980   */\n      dup7\n        /* \"#utility.yul\":15973:15987   */\n      add\n        /* \"#utility.yul\":15966:16004   */\n      mstore\n        /* \"#utility.yul\":16025:16098   */\n      tag_539\n        /* \"#utility.yul\":16093:16097   */\n      dup3\n        /* \"#utility.yul\":16079:16091   */\n      dup3\n        /* \"#utility.yul\":16025:16098   */\n      tag_483\n      jump\t// in\n    tag_539:\n        /* \"#utility.yul\":16017:16098   */\n      swap2\n      pop\n        /* \"#utility.yul\":15867:16109   */\n      pop\n        /* \"#utility.yul\":16193:16197   */\n      0x20\n        /* \"#utility.yul\":16186:16191   */\n      dup4\n        /* \"#utility.yul\":16182:16198   */\n      add\n        /* \"#utility.yul\":16176:16199   */\n      mload\n        /* \"#utility.yul\":16246:16249   */\n      dup5\n        /* \"#utility.yul\":16240:16244   */\n      dup3\n        /* \"#utility.yul\":16236:16250   */\n      sub\n        /* \"#utility.yul\":16229:16233   */\n      0x20\n        /* \"#utility.yul\":16224:16227   */\n      dup7\n        /* \"#utility.yul\":16220:16234   */\n      add\n        /* \"#utility.yul\":16213:16251   */\n      mstore\n        /* \"#utility.yul\":16272:16345   */\n      tag_540\n        /* \"#utility.yul\":16340:16344   */\n      dup3\n        /* \"#utility.yul\":16326:16338   */\n      dup3\n        /* \"#utility.yul\":16272:16345   */\n      tag_483\n      jump\t// in\n    tag_540:\n        /* \"#utility.yul\":16264:16345   */\n      swap2\n      pop\n        /* \"#utility.yul\":16119:16356   */\n      pop\n        /* \"#utility.yul\":16373:16377   */\n      dup1\n        /* \"#utility.yul\":16366:16377   */\n      swap2\n      pop\n        /* \"#utility.yul\":15821:16383   */\n      pop\n        /* \"#utility.yul\":15677:16383   */\n      swap3\n      swap2\n      pop\n      pop\n      jump\t// out\n        /* \"#utility.yul\":16453:18507   */\n    tag_541:\n        /* \"#utility.yul\":16576:16579   */\n      0x00\n        /* \"#utility.yul\":16612:16618   */\n      0x0100\n        /* \"#utility.yul\":16607:16610   */\n      dup4\n        /* \"#utility.yul\":16603:16619   */\n      add\n        /* \"#utility.yul\":16704:16708   */\n      0x00\n        /* \"#utility.yul\":16697:16702   */\n      dup4\n        /* \"#utility.yul\":16693:16709   */\n      add\n        /* \"#utility.yul\":16687:16710   */\n      mload\n        /* \"#utility.yul\":16757:16760   */\n      dup5\n        /* \"#utility.yul\":16751:16755   */\n      dup3\n        /* \"#utility.yul\":16747:16761   */\n      sub\n        /* \"#utility.yul\":16740:16744   */\n      0x00\n        /* \"#utility.yul\":16735:16738   */\n      dup7\n        /* \"#utility.yul\":16731:16745   */\n      add\n        /* \"#utility.yul\":16724:16762   */\n      mstore\n        /* \"#utility.yul\":16783:16856   */\n      tag_543\n        /* \"#utility.yul\":16851:16855   */\n      dup3\n        /* \"#utility.yul\":16837:16849   */\n      dup3\n        /* \"#utility.yul\":16783:16856   */\n      tag_483\n      jump\t// in\n    tag_543:\n        /* \"#utility.yul\":16775:16856   */\n      swap2\n      pop\n        /* \"#utility.yul\":16629:16867   */\n      pop\n        /* \"#utility.yul\":16953:16957   */\n      0x20\n        /* \"#utility.yul\":16946:16951   */\n      dup4\n        /* \"#utility.yul\":16942:16958   */\n      add\n        /* \"#utility.yul\":16936:16959   */\n      mload\n        /* \"#utility.yul\":17006:17009   */\n      dup5\n        /* \"#utility.yul\":17000:17004   */\n      dup3\n        /* \"#utility.yul\":16996:17010   */\n      sub\n        /* \"#utility.yul\":16989:16993   */\n      0x20\n        /* \"#utility.yul\":16984:16987   */\n      dup7\n        /* \"#utility.yul\":16980:16994   */\n      add\n        /* \"#utility.yul\":16973:17011   */\n      mstore\n        /* \"#utility.yul\":17032:17105   */\n      tag_544\n        /* \"#utility.yul\":17100:17104   */\n      dup3\n        /* \"#utility.yul\":17086:17098   */\n      dup3\n        /* \"#utility.yul\":17032:17105   */\n      tag_483\n      jump\t// in\n    tag_544:\n        /* \"#utility.yul\":17024:17105   */\n      swap2\n      pop\n        /* \"#utility.yul\":16877:17116   */\n      pop\n        /* \"#utility.yul\":17205:17209   */\n      0x40\n        /* \"#utility.yul\":17198:17203   */\n      dup4\n        /* \"#utility.yul\":17194:17210   */\n      add\n        /* \"#utility.yul\":17188:17211   */\n      mload\n        /* \"#utility.yul\":17224:17287   */\n      tag_545\n        /* \"#utility.yul\":17281:17285   */\n      0x40\n        /* \"#utility.yul\":17276:17279   */\n      dup7\n        /* \"#utility.yul\":17272:17286   */\n      add\n        /* \"#utility.yul\":17258:17270   */\n      dup3\n        /* \"#utility.yul\":17224:17287   */\n      tag_484\n      jump\t// in\n    tag_545:\n        /* \"#utility.yul\":17126:17297   */\n      pop\n        /* \"#utility.yul\":17384:17388   */\n      0x60\n        /* \"#utility.yul\":17377:17382   */\n      dup4\n        /* \"#utility.yul\":17373:17389   */\n      add\n        /* \"#utility.yul\":17367:17390   */\n      mload\n        /* \"#utility.yul\":17437:17440   */\n      dup5\n        /* \"#utility.yul\":17431:17435   */\n      dup3\n        /* \"#utility.yul\":17427:17441   */\n      sub\n        /* \"#utility.yul\":17420:17424   */\n      0x60\n        /* \"#utility.yul\":17415:17418   */\n      dup7\n        /* \"#utility.yul\":17411:17425   */\n      add\n        /* \"#utility.yul\":17404:17442   */\n      mstore\n        /* \"#utility.yul\":17463:17536   */\n      tag_546\n        /* \"#utility.yul\":17531:17535   */\n      dup3\n        /* \"#utility.yul\":17517:17529   */\n      dup3\n        /* \"#utility.yul\":17463:17536   */\n      tag_483\n      jump\t// in\n    tag_546:\n        /* \"#utility.yul\":17455:17536   */\n      swap2\n      pop\n        /* \"#utility.yul\":17307:17547   */\n      pop\n        /* \"#utility.yul\":17635:17639   */\n      0x80\n        /* \"#utility.yul\":17628:17633   */\n      dup4\n        /* \"#utility.yul\":17624:17640   */\n      add\n        /* \"#utility.yul\":17618:17641   */\n      mload\n        /* \"#utility.yul\":17688:17691   */\n      dup5\n        /* \"#utility.yul\":17682:17686   */\n      dup3\n        /* \"#utility.yul\":17678:17692   */\n      sub\n        /* \"#utility.yul\":17671:17675   */\n      0x80\n        /* \"#utility.yul\":17666:17669   */\n      dup7\n        /* \"#utility.yul\":17662:17676   */\n      add\n        /* \"#utility.yul\":17655:17693   */\n      mstore\n        /* \"#utility.yul\":17714:17787   */\n      tag_547\n        /* \"#utility.yul\":17782:17786   */\n      dup3\n        /* \"#utility.yul\":17768:17780   */\n      dup3\n        /* \"#utility.yul\":17714:17787   */\n      tag_483\n      jump\t// in\n    tag_547:\n        /* \"#utility.yul\":17706:17787   */\n      swap2\n      pop\n        /* \"#utility.yul\":17557:17798   */\n      pop\n        /* \"#utility.yul\":17884:17888   */\n      0xa0\n        /* \"#utility.yul\":17877:17882   */\n      dup4\n        /* \"#utility.yul\":17873:17889   */\n      add\n        /* \"#utility.yul\":17867:17890   */\n      mload\n        /* \"#utility.yul\":17937:17940   */\n      dup5\n        /* \"#utility.yul\":17931:17935   */\n      dup3\n        /* \"#utility.yul\":17927:17941   */\n      sub\n        /* \"#utility.yul\":17920:17924   */\n      0xa0\n        /* \"#utility.yul\":17915:17918   */\n      dup7\n        /* \"#utility.yul\":17911:17925   */\n      add\n        /* \"#utility.yul\":17904:17942   */\n      mstore\n        /* \"#utility.yul\":17963:18036   */\n      tag_548\n        /* \"#utility.yul\":18031:18035   */\n      dup3\n        /* \"#utility.yul\":18017:18029   */\n      dup3\n        /* \"#utility.yul\":17963:18036   */\n      tag_483\n      jump\t// in\n    tag_548:\n        /* \"#utility.yul\":17955:18036   */\n      swap2\n      pop\n        /* \"#utility.yul\":17808:18047   */\n      pop\n        /* \"#utility.yul\":18137:18141   */\n      0xc0\n        /* \"#utility.yul\":18130:18135   */\n      dup4\n        /* \"#utility.yul\":18126:18142   */\n      add\n        /* \"#utility.yul\":18120:18143   */\n      mload\n        /* \"#utility.yul\":18190:18193   */\n      dup5\n        /* \"#utility.yul\":18184:18188   */\n      dup3\n        /* \"#utility.yul\":18180:18194   */\n      sub\n        /* \"#utility.yul\":18173:18177   */\n      0xc0\n        /* \"#utility.yul\":18168:18171   */\n      dup7\n        /* \"#utility.yul\":18164:18178   */\n      add\n        /* \"#utility.yul\":18157:18195   */\n      mstore\n        /* \"#utility.yul\":18216:18289   */\n      tag_549\n        /* \"#utility.yul\":18284:18288   */\n      dup3\n        /* \"#utility.yul\":18270:18282   */\n      dup3\n        /* \"#utility.yul\":18216:18289   */\n      tag_483\n      jump\t// in\n    tag_549:\n        /* \"#utility.yul\":18208:18289   */\n      swap2\n      pop\n        /* \"#utility.yul\":18057:18300   */\n      pop\n        /* \"#utility.yul\":18388:18392   */\n      0xe0\n        /* \"#utility.yul\":18381:18386   */\n      dup4\n        /* \"#utility.yul\":18377:18393   */\n      add\n        /* \"#utility.yul\":18371:18394   */\n      mload\n        /* \"#utility.yul\":18407:18470   */\n      tag_550\n        /* \"#utility.yul\":18464:18468   */\n      0xe0\n        /* \"#utility.yul\":18459:18462   */\n      dup7\n        /* \"#utility.yul\":18455:18469   */\n      add\n        /* \"#utility.yul\":18441:18453   */\n      dup3\n        /* \"#utility.yul\":18407:18470   */\n      tag_551\n      jump\t// in\n    tag_550:\n        /* \"#utility.yul\":18310:18480   */\n      pop\n        /* \"#utility.yul\":18497:18501   */\n      dup1\n        /* \"#utility.yul\":18490:18501   */\n      swap2\n      pop\n        /* \"#utility.yul\":16581:18507   */\n      pop\n        /* \"#utility.yul\":16453:18507   */\n      swap3\n      swap2\n      pop\n      pop\n      jump\t// out\n        /* \"#utility.yul\":18565:19662   */\n    tag_552:\n        /* \"#utility.yul\":18676:18679   */\n      0x00\n        /* \"#utility.yul\":18712:18716   */\n      0x60\n        /* \"#utility.yul\":18707:18710   */\n      dup4\n        /* \"#utility.yul\":18703:18717   */\n      add\n        /* \"#utility.yul\":18815:18819   */\n      0x00\n        /* \"#utility.yul\":18808:18813   */\n      dup4\n        /* \"#utility.yul\":18804:18820   */\n      add\n        /* \"#utility.yul\":18798:18821   */\n      mload\n        /* \"#utility.yul\":18868:18871   */\n      dup5\n        /* \"#utility.yul\":18862:18866   */\n      dup3\n        /* \"#utility.yul\":18858:18872   */\n      sub\n        /* \"#utility.yul\":18851:18855   */\n      0x00\n        /* \"#utility.yul\":18846:18849   */\n      dup7\n        /* \"#utility.yul\":18842:18856   */\n      add\n        /* \"#utility.yul\":18835:18873   */\n      mstore\n        /* \"#utility.yul\":18894:19017   */\n      tag_554\n        /* \"#utility.yul\":19012:19016   */\n      dup3\n        /* \"#utility.yul\":18998:19010   */\n      dup3\n        /* \"#utility.yul\":18894:19017   */\n      tag_488\n      jump\t// in\n    tag_554:\n        /* \"#utility.yul\":18886:19017   */\n      swap2\n      pop\n        /* \"#utility.yul\":18727:19028   */\n      pop\n        /* \"#utility.yul\":19115:19119   */\n      0x20\n        /* \"#utility.yul\":19108:19113   */\n      dup4\n        /* \"#utility.yul\":19104:19120   */\n      add\n        /* \"#utility.yul\":19098:19121   */\n      mload\n        /* \"#utility.yul\":19168:19171   */\n      dup5\n        /* \"#utility.yul\":19162:19166   */\n      dup3\n        /* \"#utility.yul\":19158:19172   */\n      sub\n        /* \"#utility.yul\":19151:19155   */\n      0x20\n        /* \"#utility.yul\":19146:19149   */\n      dup7\n        /* \"#utility.yul\":19142:19156   */\n      add\n        /* \"#utility.yul\":19135:19173   */\n      mstore\n        /* \"#utility.yul\":19194:19317   */\n      tag_555\n        /* \"#utility.yul\":19312:19316   */\n      dup3\n        /* \"#utility.yul\":19298:19310   */\n      dup3\n        /* \"#utility.yul\":19194:19317   */\n      tag_488\n      jump\t// in\n    tag_555:\n        /* \"#utility.yul\":19186:19317   */\n      swap2\n      pop\n        /* \"#utility.yul\":19038:19328   */\n      pop\n        /* \"#utility.yul\":19422:19426   */\n      0x40\n        /* \"#utility.yul\":19415:19420   */\n      dup4\n        /* \"#utility.yul\":19411:19427   */\n      add\n        /* \"#utility.yul\":19405:19428   */\n      mload\n        /* \"#utility.yul\":19475:19478   */\n      dup5\n        /* \"#utility.yul\":19469:19473   */\n      dup3\n        /* \"#utility.yul\":19465:19479   */\n      sub\n        /* \"#utility.yul\":19458:19462   */\n      0x40\n        /* \"#utility.yul\":19453:19456   */\n      dup7\n        /* \"#utility.yul\":19449:19463   */\n      add\n        /* \"#utility.yul\":19442:19480   */\n      mstore\n        /* \"#utility.yul\":19501:19624   */\n      tag_556\n        /* \"#utility.yul\":19619:19623   */\n      dup3\n        /* \"#utility.yul\":19605:19617   */\n      dup3\n        /* \"#utility.yul\":19501:19624   */\n      tag_488\n      jump\t// in\n    tag_556:\n        /* \"#utility.yul\":19493:19624   */\n      swap2\n      pop\n        /* \"#utility.yul\":19338:19635   */\n      pop\n        /* \"#utility.yul\":19652:19656   */\n      dup1\n        /* \"#utility.yul\":19645:19656   */\n      swap2\n      pop\n        /* \"#utility.yul\":18681:19662   */\n      pop\n        /* \"#utility.yul\":18565:19662   */\n      swap3\n      swap2\n      pop\n      pop\n      jump\t// out\n        /* \"#utility.yul\":19668:19776   */\n    tag_551:\n        /* \"#utility.yul\":19745:19769   */\n      tag_558\n        /* \"#utility.yul\":19763:19768   */\n      dup2\n        /* \"#utility.yul\":19745:19769   */\n      tag_559\n      jump\t// in\n    tag_558:\n        /* \"#utility.yul\":19740:19743   */\n      dup3\n        /* \"#utility.yul\":19733:19770   */\n      mstore\n        /* \"#utility.yul\":19668:19776   */\n      pop\n      pop\n      jump\t// out\n        /* \"#utility.yul\":19782:19900   */\n    tag_560:\n        /* \"#utility.yul\":19869:19893   */\n      tag_562\n        /* \"#utility.yul\":19887:19892   */\n      dup2\n        /* \"#utility.yul\":19869:19893   */\n      tag_559\n      jump\t// in\n    tag_562:\n        /* \"#utility.yul\":19864:19867   */\n      dup3\n        /* \"#utility.yul\":19857:19894   */\n      mstore\n        /* \"#utility.yul\":19782:19900   */\n      pop\n      pop\n      jump\t// out\n        /* \"#utility.yul\":19906:21025   */\n    tag_61:\n        /* \"#utility.yul\":20211:20215   */\n      0x00\n        /* \"#utility.yul\":20249:20252   */\n      0xa0\n        /* \"#utility.yul\":20238:20247   */\n      dup3\n        /* \"#utility.yul\":20234:20253   */\n      add\n        /* \"#utility.yul\":20226:20253   */\n      swap1\n      pop\n        /* \"#utility.yul\":20299:20308   */\n      dup2\n        /* \"#utility.yul\":20293:20297   */\n      dup2\n        /* \"#utility.yul\":20289:20309   */\n      sub\n        /* \"#utility.yul\":20285:20286   */\n      0x00\n        /* \"#utility.yul\":20274:20283   */\n      dup4\n        /* \"#utility.yul\":20270:20287   */\n      add\n        /* \"#utility.yul\":20263:20310   */\n      mstore\n        /* \"#utility.yul\":20327:20405   */\n      tag_564\n        /* \"#utility.yul\":20400:20404   */\n      dup2\n        /* \"#utility.yul\":20391:20397   */\n      dup9\n        /* \"#utility.yul\":20327:20405   */\n      tag_511\n      jump\t// in\n    tag_564:\n        /* \"#utility.yul\":20319:20405   */\n      swap1\n      pop\n        /* \"#utility.yul\":20452:20461   */\n      dup2\n        /* \"#utility.yul\":20446:20450   */\n      dup2\n        /* \"#utility.yul\":20442:20462   */\n      sub\n        /* \"#utility.yul\":20437:20439   */\n      0x20\n        /* \"#utility.yul\":20426:20435   */\n      dup4\n        /* \"#utility.yul\":20422:20440   */\n      add\n        /* \"#utility.yul\":20415:20463   */\n      mstore\n        /* \"#utility.yul\":20480:20558   */\n      tag_565\n        /* \"#utility.yul\":20553:20557   */\n      dup2\n        /* \"#utility.yul\":20544:20550   */\n      dup8\n        /* \"#utility.yul\":20480:20558   */\n      tag_511\n      jump\t// in\n    tag_565:\n        /* \"#utility.yul\":20472:20558   */\n      swap1\n      pop\n        /* \"#utility.yul\":20605:20614   */\n      dup2\n        /* \"#utility.yul\":20599:20603   */\n      dup2\n        /* \"#utility.yul\":20595:20615   */\n      sub\n        /* \"#utility.yul\":20590:20592   */\n      0x40\n        /* \"#utility.yul\":20579:20588   */\n      dup4\n        /* \"#utility.yul\":20575:20593   */\n      add\n        /* \"#utility.yul\":20568:20616   */\n      mstore\n        /* \"#utility.yul\":20633:20711   */\n      tag_566\n        /* \"#utility.yul\":20706:20710   */\n      dup2\n        /* \"#utility.yul\":20697:20703   */\n      dup7\n        /* \"#utility.yul\":20633:20711   */\n      tag_511\n      jump\t// in\n    tag_566:\n        /* \"#utility.yul\":20625:20711   */\n      swap1\n      pop\n        /* \"#utility.yul\":20758:20767   */\n      dup2\n        /* \"#utility.yul\":20752:20756   */\n      dup2\n        /* \"#utility.yul\":20748:20768   */\n      sub\n        /* \"#utility.yul\":20743:20745   */\n      0x60\n        /* \"#utility.yul\":20732:20741   */\n      dup4\n        /* \"#utility.yul\":20728:20746   */\n      add\n        /* \"#utility.yul\":20721:20769   */\n      mstore\n        /* \"#utility.yul\":20786:20864   */\n      tag_567\n        /* \"#utility.yul\":20859:20863   */\n      dup2\n        /* \"#utility.yul\":20850:20856   */\n      dup6\n        /* \"#utility.yul\":20786:20864   */\n      tag_511\n      jump\t// in\n    tag_567:\n        /* \"#utility.yul\":20778:20864   */\n      swap1\n      pop\n        /* \"#utility.yul\":20912:20921   */\n      dup2\n        /* \"#utility.yul\":20906:20910   */\n      dup2\n        /* \"#utility.yul\":20902:20922   */\n      sub\n        /* \"#utility.yul\":20896:20899   */\n      0x80\n        /* \"#utility.yul\":20885:20894   */\n      dup4\n        /* \"#utility.yul\":20881:20900   */\n      add\n        /* \"#utility.yul\":20874:20923   */\n      mstore\n        /* \"#utility.yul\":20940:21018   */\n      tag_568\n        /* \"#utility.yul\":21013:21017   */\n      dup2\n        /* \"#utility.yul\":21004:21010   */\n      dup5\n        /* \"#utility.yul\":20940:21018   */\n      tag_511\n      jump\t// in\n    tag_568:\n        /* \"#utility.yul\":20932:21018   */\n      swap1\n      pop\n        /* \"#utility.yul\":19906:21025   */\n      swap7\n      swap6\n      pop\n      pop\n      pop\n      pop\n      pop\n      pop\n      jump\t// out\n        /* \"#utility.yul\":21031:22816   */\n    tag_50:\n        /* \"#utility.yul\":21616:21620   */\n      0x00\n        /* \"#utility.yul\":21654:21657   */\n      0xc0\n        /* \"#utility.yul\":21643:21652   */\n      dup3\n        /* \"#utility.yul\":21639:21658   */\n      add\n        /* \"#utility.yul\":21631:21658   */\n      swap1\n      pop\n        /* \"#utility.yul\":21704:21713   */\n      dup2\n        /* \"#utility.yul\":21698:21702   */\n      dup2\n        /* \"#utility.yul\":21694:21714   */\n      sub\n        /* \"#utility.yul\":21690:21691   */\n      0x00\n        /* \"#utility.yul\":21679:21688   */\n      dup4\n        /* \"#utility.yul\":21675:21692   */\n      add\n        /* \"#utility.yul\":21668:21715   */\n      mstore\n        /* \"#utility.yul\":21732:21844   */\n      tag_570\n        /* \"#utility.yul\":21839:21843   */\n      dup2\n        /* \"#utility.yul\":21830:21836   */\n      dup10\n        /* \"#utility.yul\":21732:21844   */\n      tag_541\n      jump\t// in\n    tag_570:\n        /* \"#utility.yul\":21724:21844   */\n      swap1\n      pop\n        /* \"#utility.yul\":21891:21900   */\n      dup2\n        /* \"#utility.yul\":21885:21889   */\n      dup2\n        /* \"#utility.yul\":21881:21901   */\n      sub\n        /* \"#utility.yul\":21876:21878   */\n      0x20\n        /* \"#utility.yul\":21865:21874   */\n      dup4\n        /* \"#utility.yul\":21861:21879   */\n      add\n        /* \"#utility.yul\":21854:21902   */\n      mstore\n        /* \"#utility.yul\":21919:22025   */\n      tag_571\n        /* \"#utility.yul\":22020:22024   */\n      dup2\n        /* \"#utility.yul\":22011:22017   */\n      dup9\n        /* \"#utility.yul\":21919:22025   */\n      tag_529\n      jump\t// in\n    tag_571:\n        /* \"#utility.yul\":21911:22025   */\n      swap1\n      pop\n        /* \"#utility.yul\":22072:22081   */\n      dup2\n        /* \"#utility.yul\":22066:22070   */\n      dup2\n        /* \"#utility.yul\":22062:22082   */\n      sub\n        /* \"#utility.yul\":22057:22059   */\n      0x40\n        /* \"#utility.yul\":22046:22055   */\n      dup4\n        /* \"#utility.yul\":22042:22060   */\n      add\n        /* \"#utility.yul\":22035:22083   */\n      mstore\n        /* \"#utility.yul\":22100:22200   */\n      tag_572\n        /* \"#utility.yul\":22195:22199   */\n      dup2\n        /* \"#utility.yul\":22186:22192   */\n      dup8\n        /* \"#utility.yul\":22100:22200   */\n      tag_552\n      jump\t// in\n    tag_572:\n        /* \"#utility.yul\":22092:22200   */\n      swap1\n      pop\n        /* \"#utility.yul\":22247:22256   */\n      dup2\n        /* \"#utility.yul\":22241:22245   */\n      dup2\n        /* \"#utility.yul\":22237:22257   */\n      sub\n        /* \"#utility.yul\":22232:22234   */\n      0x60\n        /* \"#utility.yul\":22221:22230   */\n      dup4\n        /* \"#utility.yul\":22217:22235   */\n      add\n        /* \"#utility.yul\":22210:22258   */\n      mstore\n        /* \"#utility.yul\":22275:22405   */\n      tag_573\n        /* \"#utility.yul\":22400:22404   */\n      dup2\n        /* \"#utility.yul\":22391:22397   */\n      dup7\n        /* \"#utility.yul\":22275:22405   */\n      tag_518\n      jump\t// in\n    tag_573:\n        /* \"#utility.yul\":22267:22405   */\n      swap1\n      pop\n        /* \"#utility.yul\":22453:22462   */\n      dup2\n        /* \"#utility.yul\":22447:22451   */\n      dup2\n        /* \"#utility.yul\":22443:22463   */\n      sub\n        /* \"#utility.yul\":22437:22440   */\n      0x80\n        /* \"#utility.yul\":22426:22435   */\n      dup4\n        /* \"#utility.yul\":22422:22441   */\n      add\n        /* \"#utility.yul\":22415:22464   */\n      mstore\n        /* \"#utility.yul\":22481:22605   */\n      tag_574\n        /* \"#utility.yul\":22600:22604   */\n      dup2\n        /* \"#utility.yul\":22591:22597   */\n      dup6\n        /* \"#utility.yul\":22481:22605   */\n      tag_522\n      jump\t// in\n    tag_574:\n        /* \"#utility.yul\":22473:22605   */\n      swap1\n      pop\n        /* \"#utility.yul\":22653:22662   */\n      dup2\n        /* \"#utility.yul\":22647:22651   */\n      dup2\n        /* \"#utility.yul\":22643:22663   */\n      sub\n        /* \"#utility.yul\":22637:22640   */\n      0xa0\n        /* \"#utility.yul\":22626:22635   */\n      dup4\n        /* \"#utility.yul\":22622:22641   */\n      add\n        /* \"#utility.yul\":22615:22664   */\n      mstore\n        /* \"#utility.yul\":22681:22809   */\n      tag_575\n        /* \"#utility.yul\":22804:22808   */\n      dup2\n        /* \"#utility.yul\":22795:22801   */\n      dup5\n        /* \"#utility.yul\":22681:22809   */\n      tag_537\n      jump\t// in\n    tag_575:\n        /* \"#utility.yul\":22673:22809   */\n      swap1\n      pop\n        /* \"#utility.yul\":21031:22816   */\n      swap8\n      swap7\n      pop\n      pop\n      pop\n      pop\n      pop\n      pop\n      pop\n      jump\t// out\n        /* \"#utility.yul\":22822:23044   */\n    tag_27:\n        /* \"#utility.yul\":22915:22919   */\n      0x00\n        /* \"#utility.yul\":22953:22955   */\n      0x20\n        /* \"#utility.yul\":22942:22951   */\n      dup3\n        /* \"#utility.yul\":22938:22956   */\n      add\n        /* \"#utility.yul\":22930:22956   */\n      swap1\n      pop\n        /* \"#utility.yul\":22966:23037   */\n      tag_577\n        /* \"#utility.yul\":23034:23035   */\n      0x00\n        /* \"#utility.yul\":23023:23032   */\n      dup4\n        /* \"#utility.yul\":23019:23036   */\n      add\n        /* \"#utility.yul\":23010:23016   */\n      dup5\n        /* \"#utility.yul\":22966:23037   */\n      tag_560\n      jump\t// in\n    tag_577:\n        /* \"#utility.yul\":22822:23044   */\n      swap3\n      swap2\n      pop\n      pop\n      jump\t// out\n        /* \"#utility.yul\":23050:23179   */\n    tag_371:\n        /* \"#utility.yul\":23084:23090   */\n      0x00\n        /* \"#utility.yul\":23111:23131   */\n      tag_579\n      tag_580\n      jump\t// in\n    tag_579:\n        /* \"#utility.yul\":23101:23131   */\n      swap1\n      pop\n        /* \"#utility.yul\":23140:23173   */\n      tag_581\n        /* \"#utility.yul\":23168:23172   */\n      dup3\n        /* \"#utility.yul\":23160:23166   */\n      dup3\n        /* \"#utility.yul\":23140:23173   */\n      tag_582\n      jump\t// in\n    tag_581:\n        /* \"#utility.yul\":23050:23179   */\n      swap2\n      swap1\n      pop\n      jump\t// out\n        /* \"#utility.yul\":23185:23260   */\n    tag_580:\n        /* \"#utility.yul\":23218:23224   */\n      0x00\n        /* \"#utility.yul\":23251:23253   */\n      0x40\n        /* \"#utility.yul\":23245:23254   */\n      mload\n        /* \"#utility.yul\":23235:23254   */\n      swap1\n      pop\n        /* \"#utility.yul\":23185:23260   */\n      swap1\n      jump\t// out\n        /* \"#utility.yul\":23266:23587   */\n    tag_370:\n        /* \"#utility.yul\":23353:23357   */\n      0x00\n        /* \"#utility.yul\":23443:23461   */\n      0xffffffffffffffff\n        /* \"#utility.yul\":23435:23441   */\n      dup3\n        /* \"#utility.yul\":23432:23462   */\n      gt\n        /* \"#utility.yul\":23429:23485   */\n      iszero\n      tag_585\n      jumpi\n        /* \"#utility.yul\":23465:23483   */\n      tag_586\n      tag_587\n      jump\t// in\n    tag_586:\n        /* \"#utility.yul\":23429:23485   */\n    tag_585:\n        /* \"#utility.yul\":23515:23519   */\n      0x20\n        /* \"#utility.yul\":23507:23513   */\n      dup3\n        /* \"#utility.yul\":23503:23520   */\n      mul\n        /* \"#utility.yul\":23495:23520   */\n      swap1\n      pop\n        /* \"#utility.yul\":23575:23579   */\n      0x20\n        /* \"#utility.yul\":23569:23573   */\n      dup2\n        /* \"#utility.yul\":23565:23580   */\n      add\n        /* \"#utility.yul\":23557:23580   */\n      swap1\n      pop\n        /* \"#utility.yul\":23266:23587   */\n      swap2\n      swap1\n      pop\n      jump\t// out\n        /* \"#utility.yul\":23593:23901   */\n    tag_387:\n        /* \"#utility.yul\":23655:23659   */\n      0x00\n        /* \"#utility.yul\":23745:23763   */\n      0xffffffffffffffff\n        /* \"#utility.yul\":23737:23743   */\n      dup3\n        /* \"#utility.yul\":23734:23764   */\n      gt\n        /* \"#utility.yul\":23731:23787   */\n      iszero\n      tag_589\n      jumpi\n        /* \"#utility.yul\":23767:23785   */\n      tag_590\n      tag_587\n      jump\t// in\n    tag_590:\n        /* \"#utility.yul\":23731:23787   */\n    tag_589:\n        /* \"#utility.yul\":23805:23834   */\n      tag_591\n        /* \"#utility.yul\":23827:23833   */\n      dup3\n        /* \"#utility.yul\":23805:23834   */\n      tag_510\n      jump\t// in\n    tag_591:\n        /* \"#utility.yul\":23797:23834   */\n      swap1\n      pop\n        /* \"#utility.yul\":23889:23893   */\n      0x20\n        /* \"#utility.yul\":23883:23887   */\n      dup2\n        /* \"#utility.yul\":23879:23894   */\n      add\n        /* \"#utility.yul\":23871:23894   */\n      swap1\n      pop\n        /* \"#utility.yul\":23593:23901   */\n      swap2\n      swap1\n      pop\n      jump\t// out\n        /* \"#utility.yul\":23907:24049   */\n    tag_495:\n        /* \"#utility.yul\":23984:23988   */\n      0x00\n        /* \"#utility.yul\":24007:24010   */\n      dup2\n        /* \"#utility.yul\":23999:24010   */\n      swap1\n      pop\n        /* \"#utility.yul\":24037:24041   */\n      0x20\n        /* \"#utility.yul\":24032:24035   */\n      dup3\n        /* \"#utility.yul\":24028:24042   */\n      add\n        /* \"#utility.yul\":24020:24042   */\n      swap1\n      pop\n        /* \"#utility.yul\":23907:24049   */\n      swap2\n      swap1\n      pop\n      jump\t// out\n        /* \"#utility.yul\":24055:24179   */\n    tag_491:\n        /* \"#utility.yul\":24132:24138   */\n      0x00\n        /* \"#utility.yul\":24166:24171   */\n      dup2\n        /* \"#utility.yul\":24160:24172   */\n      mload\n        /* \"#utility.yul\":24150:24172   */\n      swap1\n      pop\n        /* \"#utility.yul\":24055:24179   */\n      swap2\n      swap1\n      pop\n      jump\t// out\n        /* \"#utility.yul\":24185:24284   */\n    tag_504:\n        /* \"#utility.yul\":24237:24243   */\n      0x00\n        /* \"#utility.yul\":24271:24276   */\n      dup2\n        /* \"#utility.yul\":24265:24277   */\n      mload\n        /* \"#utility.yul\":24255:24277   */\n      swap1\n      pop\n        /* \"#utility.yul\":24185:24284   */\n      swap2\n      swap1\n      pop\n      jump\t// out\n        /* \"#utility.yul\":24290:24413   */\n    tag_501:\n        /* \"#utility.yul\":24370:24374   */\n      0x00\n        /* \"#utility.yul\":24402:24406   */\n      0x20\n        /* \"#utility.yul\":24397:24400   */\n      dup3\n        /* \"#utility.yul\":24393:24407   */\n      add\n        /* \"#utility.yul\":24385:24407   */\n      swap1\n      pop\n        /* \"#utility.yul\":24290:24413   */\n      swap2\n      swap1\n      pop\n      jump\t// out\n        /* \"#utility.yul\":24419:24603   */\n    tag_493:\n        /* \"#utility.yul\":24518:24529   */\n      0x00\n        /* \"#utility.yul\":24552:24558   */\n      dup3\n        /* \"#utility.yul\":24547:24550   */\n      dup3\n        /* \"#utility.yul\":24540:24559   */\n      mstore\n        /* \"#utility.yul\":24592:24596   */\n      0x20\n        /* \"#utility.yul\":24587:24590   */\n      dup3\n        /* \"#utility.yul\":24583:24597   */\n      add\n        /* \"#utility.yul\":24568:24597   */\n      swap1\n      pop\n        /* \"#utility.yul\":24419:24603   */\n      swap3\n      swap2\n      pop\n      pop\n      jump\t// out\n        /* \"#utility.yul\":24609:24768   */\n    tag_506:\n        /* \"#utility.yul\":24683:24694   */\n      0x00\n        /* \"#utility.yul\":24717:24723   */\n      dup3\n        /* \"#utility.yul\":24712:24715   */\n      dup3\n        /* \"#utility.yul\":24705:24724   */\n      mstore\n        /* \"#utility.yul\":24757:24761   */\n      0x20\n        /* \"#utility.yul\":24752:24755   */\n      dup3\n        /* \"#utility.yul\":24748:24762   */\n      add\n        /* \"#utility.yul\":24733:24762   */\n      swap1\n      pop\n        /* \"#utility.yul\":24609:24768   */\n      swap3\n      swap2\n      pop\n      pop\n      jump\t// out\n        /* \"#utility.yul\":24774:24943   */\n    tag_515:\n        /* \"#utility.yul\":24858:24869   */\n      0x00\n        /* \"#utility.yul\":24892:24898   */\n      dup3\n        /* \"#utility.yul\":24887:24890   */\n      dup3\n        /* \"#utility.yul\":24880:24899   */\n      mstore\n        /* \"#utility.yul\":24932:24936   */\n      0x20\n        /* \"#utility.yul\":24927:24930   */\n      dup3\n        /* \"#utility.yul\":24923:24937   */\n      add\n        /* \"#utility.yul\":24908:24937   */\n      swap1\n      pop\n        /* \"#utility.yul\":24774:24943   */\n      swap3\n      swap2\n      pop\n      pop\n      jump\t// out\n        /* \"#utility.yul\":24949:25045   */\n    tag_487:\n        /* \"#utility.yul\":24986:24993   */\n      0x00\n        /* \"#utility.yul\":25015:25039   */\n      tag_600\n        /* \"#utility.yul\":25033:25038   */\n      dup3\n        /* \"#utility.yul\":25015:25039   */\n      tag_601\n      jump\t// in\n    tag_600:\n        /* \"#utility.yul\":25004:25039   */\n      swap1\n      pop\n        /* \"#utility.yul\":24949:25045   */\n      swap2\n      swap1\n      pop\n      jump\t// out\n        /* \"#utility.yul\":25051:25177   */\n    tag_601:\n        /* \"#utility.yul\":25088:25095   */\n      0x00\n        /* \"#utility.yul\":25128:25170   */\n      0xffffffffffffffffffffffffffffffffffffffff\n        /* \"#utility.yul\":25121:25126   */\n      dup3\n        /* \"#utility.yul\":25117:25171   */\n      and\n        /* \"#utility.yul\":25106:25171   */\n      swap1\n      pop\n        /* \"#utility.yul\":25051:25177   */\n      swap2\n      swap1\n      pop\n      jump\t// out\n        /* \"#utility.yul\":25183:25260   */\n    tag_559:\n        /* \"#utility.yul\":25220:25227   */\n      0x00\n        /* \"#utility.yul\":25249:25254   */\n      dup2\n        /* \"#utility.yul\":25238:25254   */\n      swap1\n      pop\n        /* \"#utility.yul\":25183:25260   */\n      swap2\n      swap1\n      pop\n      jump\t// out\n        /* \"#utility.yul\":25266:25420   */\n    tag_392:\n        /* \"#utility.yul\":25350:25356   */\n      dup3\n        /* \"#utility.yul\":25345:25348   */\n      dup2\n        /* \"#utility.yul\":25340:25343   */\n      dup4\n        /* \"#utility.yul\":25327:25357   */\n      calldatacopy\n        /* \"#utility.yul\":25412:25413   */\n      0x00\n        /* \"#utility.yul\":25403:25409   */\n      dup4\n        /* \"#utility.yul\":25398:25401   */\n      dup4\n        /* \"#utility.yul\":25394:25410   */\n      add\n        /* \"#utility.yul\":25387:25414   */\n      mstore\n        /* \"#utility.yul\":25266:25420   */\n      pop\n      pop\n      pop\n      jump\t// out\n        /* \"#utility.yul\":25426:25733   */\n    tag_508:\n        /* \"#utility.yul\":25494:25495   */\n      0x00\n        /* \"#utility.yul\":25504:25617   */\n    tag_606:\n        /* \"#utility.yul\":25518:25524   */\n      dup4\n        /* \"#utility.yul\":25515:25516   */\n      dup2\n        /* \"#utility.yul\":25512:25525   */\n      lt\n        /* \"#utility.yul\":25504:25617   */\n      iszero\n      tag_608\n      jumpi\n        /* \"#utility.yul\":25603:25604   */\n      dup1\n        /* \"#utility.yul\":25598:25601   */\n      dup3\n        /* \"#utility.yul\":25594:25605   */\n      add\n        /* \"#utility.yul\":25588:25606   */\n      mload\n        /* \"#utility.yul\":25584:25585   */\n      dup2\n        /* \"#utility.yul\":25579:25582   */\n      dup5\n        /* \"#utility.yul\":25575:25586   */\n      add\n        /* \"#utility.yul\":25568:25607   */\n      mstore\n        /* \"#utility.yul\":25540:25542   */\n      0x20\n        /* \"#utility.yul\":25537:25538   */\n      dup2\n        /* \"#utility.yul\":25533:25543   */\n      add\n        /* \"#utility.yul\":25528:25543   */\n      swap1\n      pop\n        /* \"#utility.yul\":25504:25617   */\n      jump(tag_606)\n    tag_608:\n        /* \"#utility.yul\":25635:25641   */\n      dup4\n        /* \"#utility.yul\":25632:25633   */\n      dup2\n        /* \"#utility.yul\":25629:25642   */\n      gt\n        /* \"#utility.yul\":25626:25727   */\n      iszero\n      tag_609\n      jumpi\n        /* \"#utility.yul\":25715:25716   */\n      0x00\n        /* \"#utility.yul\":25706:25712   */\n      dup5\n        /* \"#utility.yul\":25701:25704   */\n      dup5\n        /* \"#utility.yul\":25697:25713   */\n      add\n        /* \"#utility.yul\":25690:25717   */\n      mstore\n        /* \"#utility.yul\":25626:25727   */\n    tag_609:\n        /* \"#utility.yul\":25475:25733   */\n      pop\n        /* \"#utility.yul\":25426:25733   */\n      pop\n      pop\n      pop\n      jump\t// out\n        /* \"#utility.yul\":25739:26059   */\n    tag_118:\n        /* \"#utility.yul\":25783:25789   */\n      0x00\n        /* \"#utility.yul\":25820:25821   */\n      0x02\n        /* \"#utility.yul\":25814:25818   */\n      dup3\n        /* \"#utility.yul\":25810:25822   */\n      div\n        /* \"#utility.yul\":25800:25822   */\n      swap1\n      pop\n        /* \"#utility.yul\":25867:25868   */\n      0x01\n        /* \"#utility.yul\":25861:25865   */\n      dup3\n        /* \"#utility.yul\":25857:25869   */\n      and\n        /* \"#utility.yul\":25888:25906   */\n      dup1\n        /* \"#utility.yul\":25878:25959   */\n      tag_611\n      jumpi\n        /* \"#utility.yul\":25944:25948   */\n      0x7f\n        /* \"#utility.yul\":25936:25942   */\n      dup3\n        /* \"#utility.yul\":25932:25949   */\n      and\n        /* \"#utility.yul\":25922:25949   */\n      swap2\n      pop\n        /* \"#utility.yul\":25878:25959   */\n    tag_611:\n        /* \"#utility.yul\":26006:26008   */\n      0x20\n        /* \"#utility.yul\":25998:26004   */\n      dup3\n        /* \"#utility.yul\":25995:26009   */\n      lt\n        /* \"#utility.yul\":25975:25993   */\n      dup2\n        /* \"#utility.yul\":25972:26010   */\n      eq\n        /* \"#utility.yul\":25969:26053   */\n      iszero\n      tag_612\n      jumpi\n        /* \"#utility.yul\":26025:26043   */\n      tag_613\n      tag_614\n      jump\t// in\n    tag_613:\n        /* \"#utility.yul\":25969:26053   */\n    tag_612:\n        /* \"#utility.yul\":25790:26059   */\n      pop\n        /* \"#utility.yul\":25739:26059   */\n      swap2\n      swap1\n      pop\n      jump\t// out\n        /* \"#utility.yul\":26065:26346   */\n    tag_582:\n        /* \"#utility.yul\":26148:26175   */\n      tag_616\n        /* \"#utility.yul\":26170:26174   */\n      dup3\n        /* \"#utility.yul\":26148:26175   */\n      tag_510\n      jump\t// in\n    tag_616:\n        /* \"#utility.yul\":26140:26146   */\n      dup2\n        /* \"#utility.yul\":26136:26176   */\n      add\n        /* \"#utility.yul\":26278:26284   */\n      dup2\n        /* \"#utility.yul\":26266:26276   */\n      dup2\n        /* \"#utility.yul\":26263:26285   */\n      lt\n        /* \"#utility.yul\":26242:26260   */\n      0xffffffffffffffff\n        /* \"#utility.yul\":26230:26240   */\n      dup3\n        /* \"#utility.yul\":26227:26261   */\n      gt\n        /* \"#utility.yul\":26224:26286   */\n      or\n        /* \"#utility.yul\":26221:26309   */\n      iszero\n      tag_617\n      jumpi\n        /* \"#utility.yul\":26289:26307   */\n      tag_618\n      tag_587\n      jump\t// in\n    tag_618:\n        /* \"#utility.yul\":26221:26309   */\n    tag_617:\n        /* \"#utility.yul\":26329:26339   */\n      dup1\n        /* \"#utility.yul\":26325:26327   */\n      0x40\n        /* \"#utility.yul\":26318:26340   */\n      mstore\n        /* \"#utility.yul\":26108:26346   */\n      pop\n        /* \"#utility.yul\":26065:26346   */\n      pop\n      pop\n      jump\t// out\n        /* \"#utility.yul\":26352:26532   */\n    tag_614:\n        /* \"#utility.yul\":26400:26477   */\n      0x4e487b7100000000000000000000000000000000000000000000000000000000\n        /* \"#utility.yul\":26397:26398   */\n      0x00\n        /* \"#utility.yul\":26390:26478   */\n      mstore\n        /* \"#utility.yul\":26497:26501   */\n      0x22\n        /* \"#utility.yul\":26494:26495   */\n      0x04\n        /* \"#utility.yul\":26487:26502   */\n      mstore\n        /* \"#utility.yul\":26521:26525   */\n      0x24\n        /* \"#utility.yul\":26518:26519   */\n      0x00\n        /* \"#utility.yul\":26511:26526   */\n      revert\n        /* \"#utility.yul\":26538:26718   */\n    tag_265:\n        /* \"#utility.yul\":26586:26663   */\n      0x4e487b7100000000000000000000000000000000000000000000000000000000\n        /* \"#utility.yul\":26583:26584   */\n      0x00\n        /* \"#utility.yul\":26576:26664   */\n      mstore\n        /* \"#utility.yul\":26683:26687   */\n      0x32\n        /* \"#utility.yul\":26680:26681   */\n      0x04\n        /* \"#utility.yul\":26673:26688   */\n      mstore\n        /* \"#utility.yul\":26707:26711   */\n      0x24\n        /* \"#utility.yul\":26704:26705   */\n      0x00\n        /* \"#utility.yul\":26697:26712   */\n      revert\n        /* \"#utility.yul\":26724:26904   */\n    tag_587:\n        /* \"#utility.yul\":26772:26849   */\n      0x4e487b7100000000000000000000000000000000000000000000000000000000\n        /* \"#utility.yul\":26769:26770   */\n      0x00\n        /* \"#utility.yul\":26762:26850   */\n      mstore\n        /* \"#utility.yul\":26869:26873   */\n      0x41\n        /* \"#utility.yul\":26866:26867   */\n      0x04\n        /* \"#utility.yul\":26859:26874   */\n      mstore\n        /* \"#utility.yul\":26893:26897   */\n      0x24\n        /* \"#utility.yul\":26890:26891   */\n      0x00\n        /* \"#utility.yul\":26883:26898   */\n      revert\n        /* \"#utility.yul\":26910:27027   */\n    tag_380:\n        /* \"#utility.yul\":27019:27020   */\n      0x00\n        /* \"#utility.yul\":27016:27017   */\n      dup1\n        /* \"#utility.yul\":27009:27021   */\n      revert\n        /* \"#utility.yul\":27033:27150   */\n    tag_374:\n        /* \"#utility.yul\":27142:27143   */\n      0x00\n        /* \"#utility.yul\":27139:27140   */\n      dup1\n        /* \"#utility.yul\":27132:27144   */\n      revert\n        /* \"#utility.yul\":27156:27273   */\n    tag_390:\n        /* \"#utility.yul\":27265:27266   */\n      0x00\n        /* \"#utility.yul\":27262:27263   */\n      dup1\n        /* \"#utility.yul\":27255:27267   */\n      revert\n        /* \"#utility.yul\":27279:27396   */\n    tag_420:\n        /* \"#utility.yul\":27388:27389   */\n      0x00\n        /* \"#utility.yul\":27385:27386   */\n      dup1\n        /* \"#utility.yul\":27378:27390   */\n      revert\n        /* \"#utility.yul\":27402:27519   */\n    tag_413:\n        /* \"#utility.yul\":27511:27512   */\n      0x00\n        /* \"#utility.yul\":27508:27509   */\n      dup1\n        /* \"#utility.yul\":27501:27513   */\n      revert\n        /* \"#utility.yul\":27525:27627   */\n    tag_510:\n        /* \"#utility.yul\":27566:27572   */\n      0x00\n        /* \"#utility.yul\":27617:27619   */\n      0x1f\n        /* \"#utility.yul\":27613:27620   */\n      not\n        /* \"#utility.yul\":27608:27610   */\n      0x1f\n        /* \"#utility.yul\":27601:27606   */\n      dup4\n        /* \"#utility.yul\":27597:27611   */\n      add\n        /* \"#utility.yul\":27593:27621   */\n      and\n        /* \"#utility.yul\":27583:27621   */\n      swap1\n      pop\n        /* \"#utility.yul\":27525:27627   */\n      swap2\n      swap1\n      pop\n      jump\t// out\n        /* \"#utility.yul\":27633:27755   */\n    tag_396:\n        /* \"#utility.yul\":27706:27730   */\n      tag_629\n        /* \"#utility.yul\":27724:27729   */\n      dup2\n        /* \"#utility.yul\":27706:27730   */\n      tag_487\n      jump\t// in\n    tag_629:\n        /* \"#utility.yul\":27699:27704   */\n      dup2\n        /* \"#utility.yul\":27696:27731   */\n      eq\n        /* \"#utility.yul\":27686:27749   */\n      tag_630\n      jumpi\n        /* \"#utility.yul\":27745:27746   */\n      0x00\n        /* \"#utility.yul\":27742:27743   */\n      dup1\n        /* \"#utility.yul\":27735:27747   */\n      revert\n        /* \"#utility.yul\":27686:27749   */\n    tag_630:\n        /* \"#utility.yul\":27633:27755   */\n      pop\n      jump\t// out\n        /* \"#utility.yul\":27761:27883   */\n    tag_409:\n        /* \"#utility.yul\":27834:27858   */\n      tag_632\n        /* \"#utility.yul\":27852:27857   */\n      dup2\n        /* \"#utility.yul\":27834:27858   */\n      tag_559\n      jump\t// in\n    tag_632:\n        /* \"#utility.yul\":27827:27832   */\n      dup2\n        /* \"#utility.yul\":27824:27859   */\n      eq\n        /* \"#utility.yul\":27814:27877   */\n      tag_633\n      jumpi\n        /* \"#utility.yul\":27873:27874   */\n      0x00\n        /* \"#utility.yul\":27870:27871   */\n      dup1\n        /* \"#utility.yul\":27863:27875   */\n      revert\n        /* \"#utility.yul\":27814:27877   */\n    tag_633:\n        /* \"#utility.yul\":27761:27883   */\n      pop\n      jump\t// out\n\n    auxdata: 0xa2646970667358221220996722c219303e2bb4a18d8eafaa233fe516a3d2ab26eba269b369a1dcc8041364736f6c63430008070033\n}\n",
				"bytecode": {
					"linkReferences": {},
					"object": "608060405234801561001057600080fd5b50613414806100206000396000f3fe608060405234801561001057600080fd5b50600436106100cf5760003560e01c8063958791ae1161008c578063c02abb9b11610066578063c02abb9b146101c7578063ed2217ef146101e3578063f96e32f8146101ed578063fabce08f14610221576100cf565b8063958791ae1461016c57806395ea3757146101885780639dd9d0fd14610192576100cf565b80633d984d0e146100d45780634ed74067146100f05780636212fa02146100fa57806366244dfb146101185780636c2cc774146101345780637282838814610150575b600080fd5b6100ee60048036038101906100e991906128e5565b61022b565b005b6100f86103af565b005b610102610415565b60405161010f9190613115565b60405180910390f35b610132600480360381019061012d919061298c565b610461565b005b61014e6004803603810190610149919061286d565b61059c565b005b61016a6004803603810190610165919061298c565b610652565b005b61018660048036038101906101819190612a93565b6108ba565b005b610190610ba4565b005b6101ac60048036038101906101a79190612840565b610c79565b6040516101be9695949392919061308a565b60405180910390f35b6101e160048036038101906101dc919061286d565b611cac565b005b6101eb611d62565b005b61020760048036038101906102029190612bc8565b611db1565b604051610218959493929190613014565b60405180910390f35b61022961227c565b005b6000803373ffffffffffffffffffffffffffffffffffffffff1673ffffffffffffffffffffffffffffffffffffffff168152602001908152602001600020600e016000808201600061027d91906124a8565b60018201600061028d91906124a8565b60028201600061029d91906124a8565b5050826000803373ffffffffffffffffffffffffffffffffffffffff1673ffffffffffffffffffffffffffffffffffffffff168152602001908152602001600020600e0160000190805190602001906102f79291906124c9565b50816000803373ffffffffffffffffffffffffffffffffffffffff1673ffffffffffffffffffffffffffffffffffffffff168152602001908152602001600020600e0160010190805190602001906103509291906124c9565b50806000803373ffffffffffffffffffffffffffffffffffffffff1673ffffffffffffffffffffffffffffffffffffffff168152602001908152602001600020600e0160020190805190602001906103a99291906124c9565b50505050565b6000803373ffffffffffffffffffffffffffffffffffffffff1673ffffffffffffffffffffffffffffffffffffffff1681526020019081526020016000206012016000808201600061040191906124a8565b60018201600061041191906124a8565b5050565b60008060003373ffffffffffffffffffffffffffffffffffffffff1673ffffffffffffffffffffffffffffffffffffffff16815260200190815260200160002060110180549050905090565b610469612529565b8581600001819052508481602001819052508381604001819052508281606001819052508181608001819052506000803373ffffffffffffffffffffffffffffffffffffffff1673ffffffffffffffffffffffffffffffffffffffff168152602001908152602001600020601101819080600181540180825580915050600190039060005260206000209060050201600090919091909150600082015181600001908051906020019061051d929190612558565b50602082015181600101908051906020019061053a929190612558565b506040820151816002019080519060200190610557929190612558565b506060820151816003019080519060200190610574929190612558565b506080820151816004019080519060200190610591929190612558565b505050505050505050565b816000803373ffffffffffffffffffffffffffffffffffffffff1673ffffffffffffffffffffffffffffffffffffffff16815260200190815260200160002060120160010190805190602001906105f49291906124c9565b50806000803373ffffffffffffffffffffffffffffffffffffffff1673ffffffffffffffffffffffffffffffffffffffff168152602001908152602001600020601201600001908051906020019061064d9291906124c9565b505050565b6000803373ffffffffffffffffffffffffffffffffffffffff1673ffffffffffffffffffffffffffffffffffffffff168152602001908152602001600020600801600080820160006106a491906125de565b6001820160006106b491906125de565b6002820160006106c491906125de565b6003820160006106d491906125de565b6004820160006106e491906125de565b6005820160006106f491906125de565b5050846000803373ffffffffffffffffffffffffffffffffffffffff1673ffffffffffffffffffffffffffffffffffffffff168152602001908152602001600020600801600101908051906020019061074e929190612558565b50836000803373ffffffffffffffffffffffffffffffffffffffff1673ffffffffffffffffffffffffffffffffffffffff16815260200190815260200160002060080160020190805190602001906107a7929190612558565b50826000803373ffffffffffffffffffffffffffffffffffffffff1673ffffffffffffffffffffffffffffffffffffffff1681526020019081526020016000206008016003019080519060200190610800929190612558565b50816000803373ffffffffffffffffffffffffffffffffffffffff1673ffffffffffffffffffffffffffffffffffffffff1681526020019081526020016000206008016002019080519060200190610859929190612558565b50806000803373ffffffffffffffffffffffffffffffffffffffff1673ffffffffffffffffffffffffffffffffffffffff16815260200190815260200160002060080160010190805190602001906108b2929190612558565b505050505050565b856000803373ffffffffffffffffffffffffffffffffffffffff1673ffffffffffffffffffffffffffffffffffffffff1681526020019081526020016000206000016003019080519060200190610912929190612558565b50846000803373ffffffffffffffffffffffffffffffffffffffff1673ffffffffffffffffffffffffffffffffffffffff168152602001908152602001600020600001600401908051906020019061096b929190612558565b50836000803373ffffffffffffffffffffffffffffffffffffffff1673ffffffffffffffffffffffffffffffffffffffff16815260200190815260200160002060000160050190805190602001906109c4929190612558565b50826000803373ffffffffffffffffffffffffffffffffffffffff1673ffffffffffffffffffffffffffffffffffffffff1681526020019081526020016000206000016006019080519060200190610a1d929190612558565b50816000803373ffffffffffffffffffffffffffffffffffffffff1673ffffffffffffffffffffffffffffffffffffffff1681526020019081526020016000206000016000019080519060200190610a76929190612558565b50806000803373ffffffffffffffffffffffffffffffffffffffff1673ffffffffffffffffffffffffffffffffffffffff1681526020019081526020016000206000016001019080519060200190610acf929190612558565b50336000803373ffffffffffffffffffffffffffffffffffffffff1673ffffffffffffffffffffffffffffffffffffffff16815260200190815260200160002060000160020160006101000a81548173ffffffffffffffffffffffffffffffffffffffff021916908373ffffffffffffffffffffffffffffffffffffffff160217905550426000803373ffffffffffffffffffffffffffffffffffffffff1673ffffffffffffffffffffffffffffffffffffffff16815260200190815260200160002060000160070181905550505050505050565b6000803373ffffffffffffffffffffffffffffffffffffffff1673ffffffffffffffffffffffffffffffffffffffff16815260200190815260200160002060000160008082016000610bf691906125de565b600182016000610c0691906125de565b6002820160006101000a81549073ffffffffffffffffffffffffffffffffffffffff0219169055600382016000610c3d91906125de565b600482016000610c4d91906125de565b600582016000610c5d91906125de565b600682016000610c6d91906125de565b60078201600090555050565b60006020528060005260406000206000915090508060000160405180610100016040529081600082018054610cad90613296565b80601f0160208091040260200160405190810160405280929190818152602001828054610cd990613296565b8015610d265780601f10610cfb57610100808354040283529160200191610d26565b820191906000526020600020905b815481529060010190602001808311610d0957829003601f168201915b50505050508152602001600182018054610d3f90613296565b80601f0160208091040260200160405190810160405280929190818152602001828054610d6b90613296565b8015610db85780601f10610d8d57610100808354040283529160200191610db8565b820191906000526020600020905b815481529060010190602001808311610d9b57829003601f168201915b505050505081526020016002820160009054906101000a900473ffffffffffffffffffffffffffffffffffffffff1673ffffffffffffffffffffffffffffffffffffffff1673ffffffffffffffffffffffffffffffffffffffff168152602001600382018054610e2790613296565b80601f0160208091040260200160405190810160405280929190818152602001828054610e5390613296565b8015610ea05780601f10610e7557610100808354040283529160200191610ea0565b820191906000526020600020905b815481529060010190602001808311610e8357829003601f168201915b50505050508152602001600482018054610eb990613296565b80601f0160208091040260200160405190810160405280929190818152602001828054610ee590613296565b8015610f325780601f10610f0757610100808354040283529160200191610f32565b820191906000526020600020905b815481529060010190602001808311610f1557829003601f168201915b50505050508152602001600582018054610f4b90613296565b80601f0160208091040260200160405190810160405280929190818152602001828054610f7790613296565b8015610fc45780601f10610f9957610100808354040283529160200191610fc4565b820191906000526020600020905b815481529060010190602001808311610fa757829003601f168201915b50505050508152602001600682018054610fdd90613296565b80601f016020809104026020016040519081016040528092919081815260200182805461100990613296565b80156110565780601f1061102b57610100808354040283529160200191611056565b820191906000526020600020905b81548152906001019060200180831161103957829003601f168201915b5050505050815260200160078201548152505090806008016040518060c001604052908160008201805461108990613296565b80601f01602080910402602001604051908101604052809291908181526020018280546110b590613296565b80156111025780601f106110d757610100808354040283529160200191611102565b820191906000526020600020905b8154815290600101906020018083116110e557829003601f168201915b5050505050815260200160018201805461111b90613296565b80601f016020809104026020016040519081016040528092919081815260200182805461114790613296565b80156111945780601f1061116957610100808354040283529160200191611194565b820191906000526020600020905b81548152906001019060200180831161117757829003601f168201915b505050505081526020016002820180546111ad90613296565b80601f01602080910402602001604051908101604052809291908181526020018280546111d990613296565b80156112265780601f106111fb57610100808354040283529160200191611226565b820191906000526020600020905b81548152906001019060200180831161120957829003601f168201915b5050505050815260200160038201805461123f90613296565b80601f016020809104026020016040519081016040528092919081815260200182805461126b90613296565b80156112b85780601f1061128d576101008083540402835291602001916112b8565b820191906000526020600020905b81548152906001019060200180831161129b57829003601f168201915b505050505081526020016004820180546112d190613296565b80601f01602080910402602001604051908101604052809291908181526020018280546112fd90613296565b801561134a5780601f1061131f5761010080835404028352916020019161134a565b820191906000526020600020905b81548152906001019060200180831161132d57829003601f168201915b5050505050815260200160058201805461136390613296565b80601f016020809104026020016040519081016040528092919081815260200182805461138f90613296565b80156113dc5780601f106113b1576101008083540402835291602001916113dc565b820191906000526020600020905b8154815290600101906020018083116113bf57829003601f168201915b5050505050815250509080600e0160405180606001604052908160008201805480602002602001604051908101604052809291908181526020016000905b828210156114c657838290600052602060002001805461143990613296565b80601f016020809104026020016040519081016040528092919081815260200182805461146590613296565b80156114b25780601f10611487576101008083540402835291602001916114b2565b820191906000526020600020905b81548152906001019060200180831161149557829003601f168201915b50505050508152602001906001019061141a565b50505050815260200160018201805480602002602001604051908101604052809291908181526020016000905b8282101561159f57838290600052602060002001805461151290613296565b80601f016020809104026020016040519081016040528092919081815260200182805461153e90613296565b801561158b5780601f106115605761010080835404028352916020019161158b565b820191906000526020600020905b81548152906001019060200180831161156e57829003601f168201915b5050505050815260200190600101906114f3565b50505050815260200160028201805480602002602001604051908101604052809291908181526020016000905b828210156116785783829060005260206000200180546115eb90613296565b80601f016020809104026020016040519081016040528092919081815260200182805461161790613296565b80156116645780601f1061163957610100808354040283529160200191611664565b820191906000526020600020905b81548152906001019060200180831161164757829003601f168201915b5050505050815260200190600101906115cc565b5050505081525050908060120160405180604001604052908160008201805480602002602001604051908101604052809291908181526020016000905b828210156117615783829060005260206000200180546116d490613296565b80601f016020809104026020016040519081016040528092919081815260200182805461170090613296565b801561174d5780601f106117225761010080835404028352916020019161174d565b820191906000526020600020905b81548152906001019060200180831161173057829003601f168201915b5050505050815260200190600101906116b5565b50505050815260200160018201805480602002602001604051908101604052809291908181526020016000905b8282101561183a5783829060005260206000200180546117ad90613296565b80601f01602080910402602001604051908101604052809291908181526020018280546117d990613296565b80156118265780601f106117fb57610100808354040283529160200191611826565b820191906000526020600020905b81548152906001019060200180831161180957829003601f168201915b50505050508152602001906001019061178e565b505050508152505090806014016040518060a001604052908160008201805461186290613296565b80601f016020809104026020016040519081016040528092919081815260200182805461188e90613296565b80156118db5780601f106118b0576101008083540402835291602001916118db565b820191906000526020600020905b8154815290600101906020018083116118be57829003601f168201915b505050505081526020016001820180546118f490613296565b80601f016020809104026020016040519081016040528092919081815260200182805461192090613296565b801561196d5780601f106119425761010080835404028352916020019161196d565b820191906000526020600020905b81548152906001019060200180831161195057829003601f168201915b5050505050815260200160028201805461198690613296565b80601f01602080910402602001604051908101604052809291908181526020018280546119b290613296565b80156119ff5780601f106119d4576101008083540402835291602001916119ff565b820191906000526020600020905b8154815290600101906020018083116119e257829003601f168201915b50505050508152602001600382018054611a1890613296565b80601f0160208091040260200160405190810160405280929190818152602001828054611a4490613296565b8015611a915780601f10611a6657610100808354040283529160200191611a91565b820191906000526020600020905b815481529060010190602001808311611a7457829003601f168201915b5050505050815260200160048201805480602002602001604051908101604052809291908181526020016000905b82821015611b6b578382906000526020600020018054611ade90613296565b80601f0160208091040260200160405190810160405280929190818152602001828054611b0a90613296565b8015611b575780601f10611b2c57610100808354040283529160200191611b57565b820191906000526020600020905b815481529060010190602001808311611b3a57829003601f168201915b505050505081526020019060010190611abf565b50505050815250509080601901604051806040016040529081600082018054611b9390613296565b80601f0160208091040260200160405190810160405280929190818152602001828054611bbf90613296565b8015611c0c5780601f10611be157610100808354040283529160200191611c0c565b820191906000526020600020905b815481529060010190602001808311611bef57829003601f168201915b50505050508152602001600182018054611c2590613296565b80601f0160208091040260200160405190810160405280929190818152602001828054611c5190613296565b8015611c9e5780601f10611c7357610100808354040283529160200191611c9e565b820191906000526020600020905b815481529060010190602001808311611c8157829003601f168201915b505050505081525050905086565b816000803373ffffffffffffffffffffffffffffffffffffffff1673ffffffffffffffffffffffffffffffffffffffff1681526020019081526020016000206012016001019080519060200190611d049291906124c9565b50806000803373ffffffffffffffffffffffffffffffffffffffff1673ffffffffffffffffffffffffffffffffffffffff1681526020019081526020016000206012016000019080519060200190611d5d9291906124c9565b505050565b6000803373ffffffffffffffffffffffffffffffffffffffff1673ffffffffffffffffffffffffffffffffffffffff1681526020019081526020016000206011016000611daf919061261e565b565b60608060608060606000803373ffffffffffffffffffffffffffffffffffffffff1673ffffffffffffffffffffffffffffffffffffffff1681526020019081526020016000206011018681548110611e0c57611e0b613328565b5b90600052602060002090600502016000016000803373ffffffffffffffffffffffffffffffffffffffff1673ffffffffffffffffffffffffffffffffffffffff1681526020019081526020016000206011018781548110611e7057611e6f613328565b5b90600052602060002090600502016001016000803373ffffffffffffffffffffffffffffffffffffffff1673ffffffffffffffffffffffffffffffffffffffff1681526020019081526020016000206011018881548110611ed457611ed3613328565b5b90600052602060002090600502016002016000803373ffffffffffffffffffffffffffffffffffffffff1673ffffffffffffffffffffffffffffffffffffffff1681526020019081526020016000206011018981548110611f3857611f37613328565b5b90600052602060002090600502016003016000803373ffffffffffffffffffffffffffffffffffffffff1673ffffffffffffffffffffffffffffffffffffffff1681526020019081526020016000206011018a81548110611f9c57611f9b613328565b5b9060005260206000209060050201600401848054611fb990613296565b80601f0160208091040260200160405190810160405280929190818152602001828054611fe590613296565b80156120325780601f1061200757610100808354040283529160200191612032565b820191906000526020600020905b81548152906001019060200180831161201557829003601f168201915b5050505050945083805461204590613296565b80601f016020809104026020016040519081016040528092919081815260200182805461207190613296565b80156120be5780601f10612093576101008083540402835291602001916120be565b820191906000526020600020905b8154815290600101906020018083116120a157829003601f168201915b505050505093508280546120d190613296565b80601f01602080910402602001604051908101604052809291908181526020018280546120fd90613296565b801561214a5780601f1061211f5761010080835404028352916020019161214a565b820191906000526020600020905b81548152906001019060200180831161212d57829003601f168201915b5050505050925081805461215d90613296565b80601f016020809104026020016040519081016040528092919081815260200182805461218990613296565b80156121d65780601f106121ab576101008083540402835291602001916121d6565b820191906000526020600020905b8154815290600101906020018083116121b957829003601f168201915b505050505091508080546121e990613296565b80601f016020809104026020016040519081016040528092919081815260200182805461221590613296565b80156122625780601f1061223757610100808354040283529160200191612262565b820191906000526020600020905b81548152906001019060200180831161224557829003601f168201915b505050505090509450945094509450945091939590929450565b6000803373ffffffffffffffffffffffffffffffffffffffff1673ffffffffffffffffffffffffffffffffffffffff1681526020019081526020016000206000808201600080820160006122d091906125de565b6001820160006122e091906125de565b6002820160006101000a81549073ffffffffffffffffffffffffffffffffffffffff021916905560038201600061231791906125de565b60048201600061232791906125de565b60058201600061233791906125de565b60068201600061234791906125de565b60078201600090555050600882016000808201600061236691906125de565b60018201600061237691906125de565b60028201600061238691906125de565b60038201600061239691906125de565b6004820160006123a691906125de565b6005820160006123b691906125de565b5050600e8201600080820160006123cd91906124a8565b6001820160006123dd91906124a8565b6002820160006123ed91906124a8565b50506011820160006123ff919061261e565b601282016000808201600061241491906124a8565b60018201600061242491906124a8565b5050601482016000808201600061243b91906125de565b60018201600061244b91906125de565b60028201600061245b91906125de565b60038201600061246b91906125de565b60048201600061247b91906124a8565b5050601982016000808201600061249291906125de565b6001820160006124a291906125de565b50505050565b50805460008255906000526020600020908101906124c69190612642565b50565b828054828255906000526020600020908101928215612518579160200282015b82811115612517578251829080519060200190612507929190612558565b50916020019190600101906124e9565b5b5090506125259190612642565b5090565b6040518060a0016040528060608152602001606081526020016060815260200160608152602001606081525090565b82805461256490613296565b90600052602060002090601f01602090048101928261258657600085556125cd565b82601f1061259f57805160ff19168380011785556125cd565b828001600101855582156125cd579182015b828111156125cc5782518255916020019190600101906125b1565b5b5090506125da9190612666565b5090565b5080546125ea90613296565b6000825580601f106125fc575061261b565b601f01602090049060005260206000209081019061261a9190612666565b5b50565b508054600082556005029060005260206000209081019061263f9190612683565b50565b5b80821115612662576000818161265991906125de565b50600101612643565b5090565b5b8082111561267f576000816000905550600101612667565b5090565b5b808211156126e6576000808201600061269d91906125de565b6001820160006126ad91906125de565b6002820160006126bd91906125de565b6003820160006126cd91906125de565b6004820160006126dd91906125de565b50600501612684565b5090565b60006126fd6126f884613155565b613130565b905080838252602082019050828560208602820111156127205761271f61338b565b5b60005b8581101561276e57813567ffffffffffffffff81111561274657612745613386565b5b80860161275389826127fd565b85526020850194506020840193505050600181019050612723565b5050509392505050565b600061278b61278684613181565b613130565b9050828152602081018484840111156127a7576127a6613390565b5b6127b2848285613254565b509392505050565b6000813590506127c9816133b0565b92915050565b600082601f8301126127e4576127e3613386565b5b81356127f48482602086016126ea565b91505092915050565b600082601f83011261281257612811613386565b5b8135612822848260208601612778565b91505092915050565b60008135905061283a816133c7565b92915050565b6000602082840312156128565761285561339a565b5b6000612864848285016127ba565b91505092915050565b600080604083850312156128845761288361339a565b5b600083013567ffffffffffffffff8111156128a2576128a1613395565b5b6128ae858286016127cf565b925050602083013567ffffffffffffffff8111156128cf576128ce613395565b5b6128db858286016127cf565b9150509250929050565b6000806000606084860312156128fe576128fd61339a565b5b600084013567ffffffffffffffff81111561291c5761291b613395565b5b612928868287016127cf565b935050602084013567ffffffffffffffff81111561294957612948613395565b5b612955868287016127cf565b925050604084013567ffffffffffffffff81111561297657612975613395565b5b612982868287016127cf565b9150509250925092565b600080600080600060a086880312156129a8576129a761339a565b5b600086013567ffffffffffffffff8111156129c6576129c5613395565b5b6129d2888289016127fd565b955050602086013567ffffffffffffffff8111156129f3576129f2613395565b5b6129ff888289016127fd565b945050604086013567ffffffffffffffff811115612a2057612a1f613395565b5b612a2c888289016127fd565b935050606086013567ffffffffffffffff811115612a4d57612a4c613395565b5b612a59888289016127fd565b925050608086013567ffffffffffffffff811115612a7a57612a79613395565b5b612a86888289016127fd565b9150509295509295909350565b60008060008060008060c08789031215612ab057612aaf61339a565b5b600087013567ffffffffffffffff811115612ace57612acd613395565b5b612ada89828a016127fd565b965050602087013567ffffffffffffffff811115612afb57612afa613395565b5b612b0789828a016127fd565b955050604087013567ffffffffffffffff811115612b2857612b27613395565b5b612b3489828a016127fd565b945050606087013567ffffffffffffffff811115612b5557612b54613395565b5b612b6189828a016127fd565b935050608087013567ffffffffffffffff811115612b8257612b81613395565b5b612b8e89828a016127fd565b92505060a087013567ffffffffffffffff811115612baf57612bae613395565b5b612bbb89828a016127fd565b9150509295509295509295565b600060208284031215612bde57612bdd61339a565b5b6000612bec8482850161282b565b91505092915050565b6000612c018383612c8d565b905092915050565b612c1281613218565b82525050565b6000612c23826131c2565b612c2d81856131e5565b935083602082028501612c3f856131b2565b8060005b85811015612c7b5784840389528151612c5c8582612bf5565b9450612c67836131d8565b925060208a01995050600181019050612c43565b50829750879550505050505092915050565b6000612c98826131cd565b612ca281856131f6565b9350612cb2818560208601613263565b612cbb8161339f565b840191505092915050565b6000612cd1826131cd565b612cdb8185613207565b9350612ceb818560208601613263565b612cf48161339f565b840191505092915050565b60006040830160008301518482036000860152612d1c8282612c18565b91505060208301518482036020860152612d368282612c18565b9150508091505092915050565b600060a0830160008301518482036000860152612d608282612c8d565b91505060208301518482036020860152612d7a8282612c8d565b91505060408301518482036040860152612d948282612c8d565b91505060608301518482036060860152612dae8282612c8d565b91505060808301518482036080860152612dc88282612c18565b9150508091505092915050565b600060c0830160008301518482036000860152612df28282612c8d565b91505060208301518482036020860152612e0c8282612c8d565b91505060408301518482036040860152612e268282612c8d565b91505060608301518482036060860152612e408282612c8d565b91505060808301518482036080860152612e5a8282612c8d565b91505060a083015184820360a0860152612e748282612c8d565b9150508091505092915050565b60006040830160008301518482036000860152612e9e8282612c8d565b91505060208301518482036020860152612eb88282612c8d565b9150508091505092915050565b6000610100830160008301518482036000860152612ee38282612c8d565b91505060208301518482036020860152612efd8282612c8d565b9150506040830151612f126040860182612c09565b5060608301518482036060860152612f2a8282612c8d565b91505060808301518482036080860152612f448282612c8d565b91505060a083015184820360a0860152612f5e8282612c8d565b91505060c083015184820360c0860152612f788282612c8d565b91505060e0830151612f8d60e0860182612ff6565b508091505092915050565b60006060830160008301518482036000860152612fb58282612c18565b91505060208301518482036020860152612fcf8282612c18565b91505060408301518482036040860152612fe98282612c18565b9150508091505092915050565b612fff8161324a565b82525050565b61300e8161324a565b82525050565b600060a082019050818103600083015261302e8188612cc6565b905081810360208301526130428187612cc6565b905081810360408301526130568186612cc6565b9050818103606083015261306a8185612cc6565b9050818103608083015261307e8184612cc6565b90509695505050505050565b600060c08201905081810360008301526130a48189612ec5565b905081810360208301526130b88188612dd5565b905081810360408301526130cc8187612f98565b905081810360608301526130e08186612cff565b905081810360808301526130f48185612d43565b905081810360a08301526131088184612e81565b9050979650505050505050565b600060208201905061312a6000830184613005565b92915050565b600061313a61314b565b905061314682826132c8565b919050565b6000604051905090565b600067ffffffffffffffff8211156131705761316f613357565b5b602082029050602081019050919050565b600067ffffffffffffffff82111561319c5761319b613357565b5b6131a58261339f565b9050602081019050919050565b6000819050602082019050919050565b600081519050919050565b600081519050919050565b6000602082019050919050565b600082825260208201905092915050565b600082825260208201905092915050565b600082825260208201905092915050565b60006132238261322a565b9050919050565b600073ffffffffffffffffffffffffffffffffffffffff82169050919050565b6000819050919050565b82818337600083830152505050565b60005b83811015613281578082015181840152602081019050613266565b83811115613290576000848401525b50505050565b600060028204905060018216806132ae57607f821691505b602082108114156132c2576132c16132f9565b5b50919050565b6132d18261339f565b810181811067ffffffffffffffff821117156132f0576132ef613357565b5b80604052505050565b7f4e487b7100000000000000000000000000000000000000000000000000000000600052602260045260246000fd5b7f4e487b7100000000000000000000000000000000000000000000000000000000600052603260045260246000fd5b7f4e487b7100000000000000000000000000000000000000000000000000000000600052604160045260246000fd5b600080fd5b600080fd5b600080fd5b600080fd5b600080fd5b6000601f19601f8301169050919050565b6133b981613218565b81146133c457600080fd5b50565b6133d08161324a565b81146133db57600080fd5b5056fea2646970667358221220996722c219303e2bb4a18d8eafaa233fe516a3d2ab26eba269b369a1dcc8041364736f6c63430008070033",
					"opcodes": "PUSH1 0x80 PUSH1 0x40 MSTORE CALLVALUE DUP1 ISZERO PUSH2 0x10 JUMPI PUSH1 0x0 DUP1 REVERT JUMPDEST POP PUSH2 0x3414 DUP1 PUSH2 0x20 PUSH1 0x0 CODECOPY PUSH1 0x0 RETURN INVALID PUSH1 0x80 PUSH1 0x40 MSTORE CALLVALUE DUP1 ISZERO PUSH2 0x10 JUMPI PUSH1 0x0 DUP1 REVERT JUMPDEST POP PUSH1 0x4 CALLDATASIZE LT PUSH2 0xCF JUMPI PUSH1 0x0 CALLDATALOAD PUSH1 0xE0 SHR DUP1 PUSH4 0x958791AE GT PUSH2 0x8C JUMPI DUP1 PUSH4 0xC02ABB9B GT PUSH2 0x66 JUMPI DUP1 PUSH4 0xC02ABB9B EQ PUSH2 0x1C7 JUMPI DUP1 PUSH4 0xED2217EF EQ PUSH2 0x1E3 JUMPI DUP1 PUSH4 0xF96E32F8 EQ PUSH2 0x1ED JUMPI DUP1 PUSH4 0xFABCE08F EQ PUSH2 0x221 JUMPI PUSH2 0xCF JUMP JUMPDEST DUP1 PUSH4 0x958791AE EQ PUSH2 0x16C JUMPI DUP1 PUSH4 0x95EA3757 EQ PUSH2 0x188 JUMPI DUP1 PUSH4 0x9DD9D0FD EQ PUSH2 0x192 JUMPI PUSH2 0xCF JUMP JUMPDEST DUP1 PUSH4 0x3D984D0E EQ PUSH2 0xD4 JUMPI DUP1 PUSH4 0x4ED74067 EQ PUSH2 0xF0 JUMPI DUP1 PUSH4 0x6212FA02 EQ PUSH2 0xFA JUMPI DUP1 PUSH4 0x66244DFB EQ PUSH2 0x118 JUMPI DUP1 PUSH4 0x6C2CC774 EQ PUSH2 0x134 JUMPI DUP1 PUSH4 0x72828388 EQ PUSH2 0x150 JUMPI JUMPDEST PUSH1 0x0 DUP1 REVERT JUMPDEST PUSH2 0xEE PUSH1 0x4 DUP1 CALLDATASIZE SUB DUP2 ADD SWAP1 PUSH2 0xE9 SWAP2 SWAP1 PUSH2 0x28E5 JUMP JUMPDEST PUSH2 0x22B JUMP JUMPDEST STOP JUMPDEST PUSH2 0xF8 PUSH2 0x3AF JUMP JUMPDEST STOP JUMPDEST PUSH2 0x102 PUSH2 0x415 JUMP JUMPDEST PUSH1 0x40 MLOAD PUSH2 0x10F SWAP2 SWAP1 PUSH2 0x3115 JUMP JUMPDEST PUSH1 0x40 MLOAD DUP1 SWAP2 SUB SWAP1 RETURN JUMPDEST PUSH2 0x132 PUSH1 0x4 DUP1 CALLDATASIZE SUB DUP2 ADD SWAP1 PUSH2 0x12D SWAP2 SWAP1 PUSH2 0x298C JUMP JUMPDEST PUSH2 0x461 JUMP JUMPDEST STOP JUMPDEST PUSH2 0x14E PUSH1 0x4 DUP1 CALLDATASIZE SUB DUP2 ADD SWAP1 PUSH2 0x149 SWAP2 SWAP1 PUSH2 0x286D JUMP JUMPDEST PUSH2 0x59C JUMP JUMPDEST STOP JUMPDEST PUSH2 0x16A PUSH1 0x4 DUP1 CALLDATASIZE SUB DUP2 ADD SWAP1 PUSH2 0x165 SWAP2 SWAP1 PUSH2 0x298C JUMP JUMPDEST PUSH2 0x652 JUMP JUMPDEST STOP JUMPDEST PUSH2 0x186 PUSH1 0x4 DUP1 CALLDATASIZE SUB DUP2 ADD SWAP1 PUSH2 0x181 SWAP2 SWAP1 PUSH2 0x2A93 JUMP JUMPDEST PUSH2 0x8BA JUMP JUMPDEST STOP JUMPDEST PUSH2 0x190 PUSH2 0xBA4 JUMP JUMPDEST STOP JUMPDEST PUSH2 0x1AC PUSH1 0x4 DUP1 CALLDATASIZE SUB DUP2 ADD SWAP1 PUSH2 0x1A7 SWAP2 SWAP1 PUSH2 0x2840 JUMP JUMPDEST PUSH2 0xC79 JUMP JUMPDEST PUSH1 0x40 MLOAD PUSH2 0x1BE SWAP7 SWAP6 SWAP5 SWAP4 SWAP3 SWAP2 SWAP1 PUSH2 0x308A JUMP JUMPDEST PUSH1 0x40 MLOAD DUP1 SWAP2 SUB SWAP1 RETURN JUMPDEST PUSH2 0x1E1 PUSH1 0x4 DUP1 CALLDATASIZE SUB DUP2 ADD SWAP1 PUSH2 0x1DC SWAP2 SWAP1 PUSH2 0x286D JUMP JUMPDEST PUSH2 0x1CAC JUMP JUMPDEST STOP JUMPDEST PUSH2 0x1EB PUSH2 0x1D62 JUMP JUMPDEST STOP JUMPDEST PUSH2 0x207 PUSH1 0x4 DUP1 CALLDATASIZE SUB DUP2 ADD SWAP1 PUSH2 0x202 SWAP2 SWAP1 PUSH2 0x2BC8 JUMP JUMPDEST PUSH2 0x1DB1 JUMP JUMPDEST PUSH1 0x40 MLOAD PUSH2 0x218 SWAP6 SWAP5 SWAP4 SWAP3 SWAP2 SWAP1 PUSH2 0x3014 JUMP JUMPDEST PUSH1 0x40 MLOAD DUP1 SWAP2 SUB SWAP1 RETURN JUMPDEST PUSH2 0x229 PUSH2 0x227C JUMP JUMPDEST STOP JUMPDEST PUSH1 0x0 DUP1 CALLER PUSH20 0xFFFFFFFFFFFFFFFFFFFFFFFFFFFFFFFFFFFFFFFF AND PUSH20 0xFFFFFFFFFFFFFFFFFFFFFFFFFFFFFFFFFFFFFFFF AND DUP2 MSTORE PUSH1 0x20 ADD SWAP1 DUP2 MSTORE PUSH1 0x20 ADD PUSH1 0x0 KECCAK256 PUSH1 0xE ADD PUSH1 0x0 DUP1 DUP3 ADD PUSH1 0x0 PUSH2 0x27D SWAP2 SWAP1 PUSH2 0x24A8 JUMP JUMPDEST PUSH1 0x1 DUP3 ADD PUSH1 0x0 PUSH2 0x28D SWAP2 SWAP1 PUSH2 0x24A8 JUMP JUMPDEST PUSH1 0x2 DUP3 ADD PUSH1 0x0 PUSH2 0x29D SWAP2 SWAP1 PUSH2 0x24A8 JUMP JUMPDEST POP POP DUP3 PUSH1 0x0 DUP1 CALLER PUSH20 0xFFFFFFFFFFFFFFFFFFFFFFFFFFFFFFFFFFFFFFFF AND PUSH20 0xFFFFFFFFFFFFFFFFFFFFFFFFFFFFFFFFFFFFFFFF AND DUP2 MSTORE PUSH1 0x20 ADD SWAP1 DUP2 MSTORE PUSH1 0x20 ADD PUSH1 0x0 KECCAK256 PUSH1 0xE ADD PUSH1 0x0 ADD SWAP1 DUP1 MLOAD SWAP1 PUSH1 0x20 ADD SWAP1 PUSH2 0x2F7 SWAP3 SWAP2 SWAP1 PUSH2 0x24C9 JUMP JUMPDEST POP DUP2 PUSH1 0x0 DUP1 CALLER PUSH20 0xFFFFFFFFFFFFFFFFFFFFFFFFFFFFFFFFFFFFFFFF AND PUSH20 0xFFFFFFFFFFFFFFFFFFFFFFFFFFFFFFFFFFFFFFFF AND DUP2 MSTORE PUSH1 0x20 ADD SWAP1 DUP2 MSTORE PUSH1 0x20 ADD PUSH1 0x0 KECCAK256 PUSH1 0xE ADD PUSH1 0x1 ADD SWAP1 DUP1 MLOAD SWAP1 PUSH1 0x20 ADD SWAP1 PUSH2 0x350 SWAP3 SWAP2 SWAP1 PUSH2 0x24C9 JUMP JUMPDEST POP DUP1 PUSH1 0x0 DUP1 CALLER PUSH20 0xFFFFFFFFFFFFFFFFFFFFFFFFFFFFFFFFFFFFFFFF AND PUSH20 0xFFFFFFFFFFFFFFFFFFFFFFFFFFFFFFFFFFFFFFFF AND DUP2 MSTORE PUSH1 0x20 ADD SWAP1 DUP2 MSTORE PUSH1 0x20 ADD PUSH1 0x0 KECCAK256 PUSH1 0xE ADD PUSH1 0x2 ADD SWAP1 DUP1 MLOAD SWAP1 PUSH1 0x20 ADD SWAP1 PUSH2 0x3A9 SWAP3 SWAP2 SWAP1 PUSH2 0x24C9 JUMP JUMPDEST POP POP POP POP JUMP JUMPDEST PUSH1 0x0 DUP1 CALLER PUSH20 0xFFFFFFFFFFFFFFFFFFFFFFFFFFFFFFFFFFFFFFFF AND PUSH20 0xFFFFFFFFFFFFFFFFFFFFFFFFFFFFFFFFFFFFFFFF AND DUP2 MSTORE PUSH1 0x20 ADD SWAP1 DUP2 MSTORE PUSH1 0x20 ADD PUSH1 0x0 KECCAK256 PUSH1 0x12 ADD PUSH1 0x0 DUP1 DUP3 ADD PUSH1 0x0 PUSH2 0x401 SWAP2 SWAP1 PUSH2 0x24A8 JUMP JUMPDEST PUSH1 0x1 DUP3 ADD PUSH1 0x0 PUSH2 0x411 SWAP2 SWAP1 PUSH2 0x24A8 JUMP JUMPDEST POP POP JUMP JUMPDEST PUSH1 0x0 DUP1 PUSH1 0x0 CALLER PUSH20 0xFFFFFFFFFFFFFFFFFFFFFFFFFFFFFFFFFFFFFFFF AND PUSH20 0xFFFFFFFFFFFFFFFFFFFFFFFFFFFFFFFFFFFFFFFF AND DUP2 MSTORE PUSH1 0x20 ADD SWAP1 DUP2 MSTORE PUSH1 0x20 ADD PUSH1 0x0 KECCAK256 PUSH1 0x11 ADD DUP1 SLOAD SWAP1 POP SWAP1 POP SWAP1 JUMP JUMPDEST PUSH2 0x469 PUSH2 0x2529 JUMP JUMPDEST DUP6 DUP2 PUSH1 0x0 ADD DUP2 SWAP1 MSTORE POP DUP5 DUP2 PUSH1 0x20 ADD DUP2 SWAP1 MSTORE POP DUP4 DUP2 PUSH1 0x40 ADD DUP2 SWAP1 MSTORE POP DUP3 DUP2 PUSH1 0x60 ADD DUP2 SWAP1 MSTORE POP DUP2 DUP2 PUSH1 0x80 ADD DUP2 SWAP1 MSTORE POP PUSH1 0x0 DUP1 CALLER PUSH20 0xFFFFFFFFFFFFFFFFFFFFFFFFFFFFFFFFFFFFFFFF AND PUSH20 0xFFFFFFFFFFFFFFFFFFFFFFFFFFFFFFFFFFFFFFFF AND DUP2 MSTORE PUSH1 0x20 ADD SWAP1 DUP2 MSTORE PUSH1 0x20 ADD PUSH1 0x0 KECCAK256 PUSH1 0x11 ADD DUP2 SWAP1 DUP1 PUSH1 0x1 DUP2 SLOAD ADD DUP1 DUP3 SSTORE DUP1 SWAP2 POP POP PUSH1 0x1 SWAP1 SUB SWAP1 PUSH1 0x0 MSTORE PUSH1 0x20 PUSH1 0x0 KECCAK256 SWAP1 PUSH1 0x5 MUL ADD PUSH1 0x0 SWAP1 SWAP2 SWAP1 SWAP2 SWAP1 SWAP2 POP PUSH1 0x0 DUP3 ADD MLOAD DUP2 PUSH1 0x0 ADD SWAP1 DUP1 MLOAD SWAP1 PUSH1 0x20 ADD SWAP1 PUSH2 0x51D SWAP3 SWAP2 SWAP1 PUSH2 0x2558 JUMP JUMPDEST POP PUSH1 0x20 DUP3 ADD MLOAD DUP2 PUSH1 0x1 ADD SWAP1 DUP1 MLOAD SWAP1 PUSH1 0x20 ADD SWAP1 PUSH2 0x53A SWAP3 SWAP2 SWAP1 PUSH2 0x2558 JUMP JUMPDEST POP PUSH1 0x40 DUP3 ADD MLOAD DUP2 PUSH1 0x2 ADD SWAP1 DUP1 MLOAD SWAP1 PUSH1 0x20 ADD SWAP1 PUSH2 0x557 SWAP3 SWAP2 SWAP1 PUSH2 0x2558 JUMP JUMPDEST POP PUSH1 0x60 DUP3 ADD MLOAD DUP2 PUSH1 0x3 ADD SWAP1 DUP1 MLOAD SWAP1 PUSH1 0x20 ADD SWAP1 PUSH2 0x574 SWAP3 SWAP2 SWAP1 PUSH2 0x2558 JUMP JUMPDEST POP PUSH1 0x80 DUP3 ADD MLOAD DUP2 PUSH1 0x4 ADD SWAP1 DUP1 MLOAD SWAP1 PUSH1 0x20 ADD SWAP1 PUSH2 0x591 SWAP3 SWAP2 SWAP1 PUSH2 0x2558 JUMP JUMPDEST POP POP POP POP POP POP POP POP POP JUMP JUMPDEST DUP2 PUSH1 0x0 DUP1 CALLER PUSH20 0xFFFFFFFFFFFFFFFFFFFFFFFFFFFFFFFFFFFFFFFF AND PUSH20 0xFFFFFFFFFFFFFFFFFFFFFFFFFFFFFFFFFFFFFFFF AND DUP2 MSTORE PUSH1 0x20 ADD SWAP1 DUP2 MSTORE PUSH1 0x20 ADD PUSH1 0x0 KECCAK256 PUSH1 0x12 ADD PUSH1 0x1 ADD SWAP1 DUP1 MLOAD SWAP1 PUSH1 0x20 ADD SWAP1 PUSH2 0x5F4 SWAP3 SWAP2 SWAP1 PUSH2 0x24C9 JUMP JUMPDEST POP DUP1 PUSH1 0x0 DUP1 CALLER PUSH20 0xFFFFFFFFFFFFFFFFFFFFFFFFFFFFFFFFFFFFFFFF AND PUSH20 0xFFFFFFFFFFFFFFFFFFFFFFFFFFFFFFFFFFFFFFFF AND DUP2 MSTORE PUSH1 0x20 ADD SWAP1 DUP2 MSTORE PUSH1 0x20 ADD PUSH1 0x0 KECCAK256 PUSH1 0x12 ADD PUSH1 0x0 ADD SWAP1 DUP1 MLOAD SWAP1 PUSH1 0x20 ADD SWAP1 PUSH2 0x64D SWAP3 SWAP2 SWAP1 PUSH2 0x24C9 JUMP JUMPDEST POP POP POP JUMP JUMPDEST PUSH1 0x0 DUP1 CALLER PUSH20 0xFFFFFFFFFFFFFFFFFFFFFFFFFFFFFFFFFFFFFFFF AND PUSH20 0xFFFFFFFFFFFFFFFFFFFFFFFFFFFFFFFFFFFFFFFF AND DUP2 MSTORE PUSH1 0x20 ADD SWAP1 DUP2 MSTORE PUSH1 0x20 ADD PUSH1 0x0 KECCAK256 PUSH1 0x8 ADD PUSH1 0x0 DUP1 DUP3 ADD PUSH1 0x0 PUSH2 0x6A4 SWAP2 SWAP1 PUSH2 0x25DE JUMP JUMPDEST PUSH1 0x1 DUP3 ADD PUSH1 0x0 PUSH2 0x6B4 SWAP2 SWAP1 PUSH2 0x25DE JUMP JUMPDEST PUSH1 0x2 DUP3 ADD PUSH1 0x0 PUSH2 0x6C4 SWAP2 SWAP1 PUSH2 0x25DE JUMP JUMPDEST PUSH1 0x3 DUP3 ADD PUSH1 0x0 PUSH2 0x6D4 SWAP2 SWAP1 PUSH2 0x25DE JUMP JUMPDEST PUSH1 0x4 DUP3 ADD PUSH1 0x0 PUSH2 0x6E4 SWAP2 SWAP1 PUSH2 0x25DE JUMP JUMPDEST PUSH1 0x5 DUP3 ADD PUSH1 0x0 PUSH2 0x6F4 SWAP2 SWAP1 PUSH2 0x25DE JUMP JUMPDEST POP POP DUP5 PUSH1 0x0 DUP1 CALLER PUSH20 0xFFFFFFFFFFFFFFFFFFFFFFFFFFFFFFFFFFFFFFFF AND PUSH20 0xFFFFFFFFFFFFFFFFFFFFFFFFFFFFFFFFFFFFFFFF AND DUP2 MSTORE PUSH1 0x20 ADD SWAP1 DUP2 MSTORE PUSH1 0x20 ADD PUSH1 0x0 KECCAK256 PUSH1 0x8 ADD PUSH1 0x1 ADD SWAP1 DUP1 MLOAD SWAP1 PUSH1 0x20 ADD SWAP1 PUSH2 0x74E SWAP3 SWAP2 SWAP1 PUSH2 0x2558 JUMP JUMPDEST POP DUP4 PUSH1 0x0 DUP1 CALLER PUSH20 0xFFFFFFFFFFFFFFFFFFFFFFFFFFFFFFFFFFFFFFFF AND PUSH20 0xFFFFFFFFFFFFFFFFFFFFFFFFFFFFFFFFFFFFFFFF AND DUP2 MSTORE PUSH1 0x20 ADD SWAP1 DUP2 MSTORE PUSH1 0x20 ADD PUSH1 0x0 KECCAK256 PUSH1 0x8 ADD PUSH1 0x2 ADD SWAP1 DUP1 MLOAD SWAP1 PUSH1 0x20 ADD SWAP1 PUSH2 0x7A7 SWAP3 SWAP2 SWAP1 PUSH2 0x2558 JUMP JUMPDEST POP DUP3 PUSH1 0x0 DUP1 CALLER PUSH20 0xFFFFFFFFFFFFFFFFFFFFFFFFFFFFFFFFFFFFFFFF AND PUSH20 0xFFFFFFFFFFFFFFFFFFFFFFFFFFFFFFFFFFFFFFFF AND DUP2 MSTORE PUSH1 0x20 ADD SWAP1 DUP2 MSTORE PUSH1 0x20 ADD PUSH1 0x0 KECCAK256 PUSH1 0x8 ADD PUSH1 0x3 ADD SWAP1 DUP1 MLOAD SWAP1 PUSH1 0x20 ADD SWAP1 PUSH2 0x800 SWAP3 SWAP2 SWAP1 PUSH2 0x2558 JUMP JUMPDEST POP DUP2 PUSH1 0x0 DUP1 CALLER PUSH20 0xFFFFFFFFFFFFFFFFFFFFFFFFFFFFFFFFFFFFFFFF AND PUSH20 0xFFFFFFFFFFFFFFFFFFFFFFFFFFFFFFFFFFFFFFFF AND DUP2 MSTORE PUSH1 0x20 ADD SWAP1 DUP2 MSTORE PUSH1 0x20 ADD PUSH1 0x0 KECCAK256 PUSH1 0x8 ADD PUSH1 0x2 ADD SWAP1 DUP1 MLOAD SWAP1 PUSH1 0x20 ADD SWAP1 PUSH2 0x859 SWAP3 SWAP2 SWAP1 PUSH2 0x2558 JUMP JUMPDEST POP DUP1 PUSH1 0x0 DUP1 CALLER PUSH20 0xFFFFFFFFFFFFFFFFFFFFFFFFFFFFFFFFFFFFFFFF AND PUSH20 0xFFFFFFFFFFFFFFFFFFFFFFFFFFFFFFFFFFFFFFFF AND DUP2 MSTORE PUSH1 0x20 ADD SWAP1 DUP2 MSTORE PUSH1 0x20 ADD PUSH1 0x0 KECCAK256 PUSH1 0x8 ADD PUSH1 0x1 ADD SWAP1 DUP1 MLOAD SWAP1 PUSH1 0x20 ADD SWAP1 PUSH2 0x8B2 SWAP3 SWAP2 SWAP1 PUSH2 0x2558 JUMP JUMPDEST POP POP POP POP POP POP JUMP JUMPDEST DUP6 PUSH1 0x0 DUP1 CALLER PUSH20 0xFFFFFFFFFFFFFFFFFFFFFFFFFFFFFFFFFFFFFFFF AND PUSH20 0xFFFFFFFFFFFFFFFFFFFFFFFFFFFFFFFFFFFFFFFF AND DUP2 MSTORE PUSH1 0x20 ADD SWAP1 DUP2 MSTORE PUSH1 0x20 ADD PUSH1 0x0 KECCAK256 PUSH1 0x0 ADD PUSH1 0x3 ADD SWAP1 DUP1 MLOAD SWAP1 PUSH1 0x20 ADD SWAP1 PUSH2 0x912 SWAP3 SWAP2 SWAP1 PUSH2 0x2558 JUMP JUMPDEST POP DUP5 PUSH1 0x0 DUP1 CALLER PUSH20 0xFFFFFFFFFFFFFFFFFFFFFFFFFFFFFFFFFFFFFFFF AND PUSH20 0xFFFFFFFFFFFFFFFFFFFFFFFFFFFFFFFFFFFFFFFF AND DUP2 MSTORE PUSH1 0x20 ADD SWAP1 DUP2 MSTORE PUSH1 0x20 ADD PUSH1 0x0 KECCAK256 PUSH1 0x0 ADD PUSH1 0x4 ADD SWAP1 DUP1 MLOAD SWAP1 PUSH1 0x20 ADD SWAP1 PUSH2 0x96B SWAP3 SWAP2 SWAP1 PUSH2 0x2558 JUMP JUMPDEST POP DUP4 PUSH1 0x0 DUP1 CALLER PUSH20 0xFFFFFFFFFFFFFFFFFFFFFFFFFFFFFFFFFFFFFFFF AND PUSH20 0xFFFFFFFFFFFFFFFFFFFFFFFFFFFFFFFFFFFFFFFF AND DUP2 MSTORE PUSH1 0x20 ADD SWAP1 DUP2 MSTORE PUSH1 0x20 ADD PUSH1 0x0 KECCAK256 PUSH1 0x0 ADD PUSH1 0x5 ADD SWAP1 DUP1 MLOAD SWAP1 PUSH1 0x20 ADD SWAP1 PUSH2 0x9C4 SWAP3 SWAP2 SWAP1 PUSH2 0x2558 JUMP JUMPDEST POP DUP3 PUSH1 0x0 DUP1 CALLER PUSH20 0xFFFFFFFFFFFFFFFFFFFFFFFFFFFFFFFFFFFFFFFF AND PUSH20 0xFFFFFFFFFFFFFFFFFFFFFFFFFFFFFFFFFFFFFFFF AND DUP2 MSTORE PUSH1 0x20 ADD SWAP1 DUP2 MSTORE PUSH1 0x20 ADD PUSH1 0x0 KECCAK256 PUSH1 0x0 ADD PUSH1 0x6 ADD SWAP1 DUP1 MLOAD SWAP1 PUSH1 0x20 ADD SWAP1 PUSH2 0xA1D SWAP3 SWAP2 SWAP1 PUSH2 0x2558 JUMP JUMPDEST POP DUP2 PUSH1 0x0 DUP1 CALLER PUSH20 0xFFFFFFFFFFFFFFFFFFFFFFFFFFFFFFFFFFFFFFFF AND PUSH20 0xFFFFFFFFFFFFFFFFFFFFFFFFFFFFFFFFFFFFFFFF AND DUP2 MSTORE PUSH1 0x20 ADD SWAP1 DUP2 MSTORE PUSH1 0x20 ADD PUSH1 0x0 KECCAK256 PUSH1 0x0 ADD PUSH1 0x0 ADD SWAP1 DUP1 MLOAD SWAP1 PUSH1 0x20 ADD SWAP1 PUSH2 0xA76 SWAP3 SWAP2 SWAP1 PUSH2 0x2558 JUMP JUMPDEST POP DUP1 PUSH1 0x0 DUP1 CALLER PUSH20 0xFFFFFFFFFFFFFFFFFFFFFFFFFFFFFFFFFFFFFFFF AND PUSH20 0xFFFFFFFFFFFFFFFFFFFFFFFFFFFFFFFFFFFFFFFF AND DUP2 MSTORE PUSH1 0x20 ADD SWAP1 DUP2 MSTORE PUSH1 0x20 ADD PUSH1 0x0 KECCAK256 PUSH1 0x0 ADD PUSH1 0x1 ADD SWAP1 DUP1 MLOAD SWAP1 PUSH1 0x20 ADD SWAP1 PUSH2 0xACF SWAP3 SWAP2 SWAP1 PUSH2 0x2558 JUMP JUMPDEST POP CALLER PUSH1 0x0 DUP1 CALLER PUSH20 0xFFFFFFFFFFFFFFFFFFFFFFFFFFFFFFFFFFFFFFFF AND PUSH20 0xFFFFFFFFFFFFFFFFFFFFFFFFFFFFFFFFFFFFFFFF AND DUP2 MSTORE PUSH1 0x20 ADD SWAP1 DUP2 MSTORE PUSH1 0x20 ADD PUSH1 0x0 KECCAK256 PUSH1 0x0 ADD PUSH1 0x2 ADD PUSH1 0x0 PUSH2 0x100 EXP DUP2 SLOAD DUP2 PUSH20 0xFFFFFFFFFFFFFFFFFFFFFFFFFFFFFFFFFFFFFFFF MUL NOT AND SWAP1 DUP4 PUSH20 0xFFFFFFFFFFFFFFFFFFFFFFFFFFFFFFFFFFFFFFFF AND MUL OR SWAP1 SSTORE POP TIMESTAMP PUSH1 0x0 DUP1 CALLER PUSH20 0xFFFFFFFFFFFFFFFFFFFFFFFFFFFFFFFFFFFFFFFF AND PUSH20 0xFFFFFFFFFFFFFFFFFFFFFFFFFFFFFFFFFFFFFFFF AND DUP2 MSTORE PUSH1 0x20 ADD SWAP1 DUP2 MSTORE PUSH1 0x20 ADD PUSH1 0x0 KECCAK256 PUSH1 0x0 ADD PUSH1 0x7 ADD DUP2 SWAP1 SSTORE POP POP POP POP POP POP POP JUMP JUMPDEST PUSH1 0x0 DUP1 CALLER PUSH20 0xFFFFFFFFFFFFFFFFFFFFFFFFFFFFFFFFFFFFFFFF AND PUSH20 0xFFFFFFFFFFFFFFFFFFFFFFFFFFFFFFFFFFFFFFFF AND DUP2 MSTORE PUSH1 0x20 ADD SWAP1 DUP2 MSTORE PUSH1 0x20 ADD PUSH1 0x0 KECCAK256 PUSH1 0x0 ADD PUSH1 0x0 DUP1 DUP3 ADD PUSH1 0x0 PUSH2 0xBF6 SWAP2 SWAP1 PUSH2 0x25DE JUMP JUMPDEST PUSH1 0x1 DUP3 ADD PUSH1 0x0 PUSH2 0xC06 SWAP2 SWAP1 PUSH2 0x25DE JUMP JUMPDEST PUSH1 0x2 DUP3 ADD PUSH1 0x0 PUSH2 0x100 EXP DUP2 SLOAD SWAP1 PUSH20 0xFFFFFFFFFFFFFFFFFFFFFFFFFFFFFFFFFFFFFFFF MUL NOT AND SWAP1 SSTORE PUSH1 0x3 DUP3 ADD PUSH1 0x0 PUSH2 0xC3D SWAP2 SWAP1 PUSH2 0x25DE JUMP JUMPDEST PUSH1 0x4 DUP3 ADD PUSH1 0x0 PUSH2 0xC4D SWAP2 SWAP1 PUSH2 0x25DE JUMP JUMPDEST PUSH1 0x5 DUP3 ADD PUSH1 0x0 PUSH2 0xC5D SWAP2 SWAP1 PUSH2 0x25DE JUMP JUMPDEST PUSH1 0x6 DUP3 ADD PUSH1 0x0 PUSH2 0xC6D SWAP2 SWAP1 PUSH2 0x25DE JUMP JUMPDEST PUSH1 0x7 DUP3 ADD PUSH1 0x0 SWAP1 SSTORE POP POP JUMP JUMPDEST PUSH1 0x0 PUSH1 0x20 MSTORE DUP1 PUSH1 0x0 MSTORE PUSH1 0x40 PUSH1 0x0 KECCAK256 PUSH1 0x0 SWAP2 POP SWAP1 POP DUP1 PUSH1 0x0 ADD PUSH1 0x40 MLOAD DUP1 PUSH2 0x100 ADD PUSH1 0x40 MSTORE SWAP1 DUP2 PUSH1 0x0 DUP3 ADD DUP1 SLOAD PUSH2 0xCAD SWAP1 PUSH2 0x3296 JUMP JUMPDEST DUP1 PUSH1 0x1F ADD PUSH1 0x20 DUP1 SWAP2 DIV MUL PUSH1 0x20 ADD PUSH1 0x40 MLOAD SWAP1 DUP2 ADD PUSH1 0x40 MSTORE DUP1 SWAP3 SWAP2 SWAP1 DUP2 DUP2 MSTORE PUSH1 0x20 ADD DUP3 DUP1 SLOAD PUSH2 0xCD9 SWAP1 PUSH2 0x3296 JUMP JUMPDEST DUP1 ISZERO PUSH2 0xD26 JUMPI DUP1 PUSH1 0x1F LT PUSH2 0xCFB JUMPI PUSH2 0x100 DUP1 DUP4 SLOAD DIV MUL DUP4 MSTORE SWAP2 PUSH1 0x20 ADD SWAP2 PUSH2 0xD26 JUMP JUMPDEST DUP3 ADD SWAP2 SWAP1 PUSH1 0x0 MSTORE PUSH1 0x20 PUSH1 0x0 KECCAK256 SWAP1 JUMPDEST DUP2 SLOAD DUP2 MSTORE SWAP1 PUSH1 0x1 ADD SWAP1 PUSH1 0x20 ADD DUP1 DUP4 GT PUSH2 0xD09 JUMPI DUP3 SWAP1 SUB PUSH1 0x1F AND DUP3 ADD SWAP2 JUMPDEST POP POP POP POP POP DUP2 MSTORE PUSH1 0x20 ADD PUSH1 0x1 DUP3 ADD DUP1 SLOAD PUSH2 0xD3F SWAP1 PUSH2 0x3296 JUMP JUMPDEST DUP1 PUSH1 0x1F ADD PUSH1 0x20 DUP1 SWAP2 DIV MUL PUSH1 0x20 ADD PUSH1 0x40 MLOAD SWAP1 DUP2 ADD PUSH1 0x40 MSTORE DUP1 SWAP3 SWAP2 SWAP1 DUP2 DUP2 MSTORE PUSH1 0x20 ADD DUP3 DUP1 SLOAD PUSH2 0xD6B SWAP1 PUSH2 0x3296 JUMP JUMPDEST DUP1 ISZERO PUSH2 0xDB8 JUMPI DUP1 PUSH1 0x1F LT PUSH2 0xD8D JUMPI PUSH2 0x100 DUP1 DUP4 SLOAD DIV MUL DUP4 MSTORE SWAP2 PUSH1 0x20 ADD SWAP2 PUSH2 0xDB8 JUMP JUMPDEST DUP3 ADD SWAP2 SWAP1 PUSH1 0x0 MSTORE PUSH1 0x20 PUSH1 0x0 KECCAK256 SWAP1 JUMPDEST DUP2 SLOAD DUP2 MSTORE SWAP1 PUSH1 0x1 ADD SWAP1 PUSH1 0x20 ADD DUP1 DUP4 GT PUSH2 0xD9B JUMPI DUP3 SWAP1 SUB PUSH1 0x1F AND DUP3 ADD SWAP2 JUMPDEST POP POP POP POP POP DUP2 MSTORE PUSH1 0x20 ADD PUSH1 0x2 DUP3 ADD PUSH1 0x0 SWAP1 SLOAD SWAP1 PUSH2 0x100 EXP SWAP1 DIV PUSH20 0xFFFFFFFFFFFFFFFFFFFFFFFFFFFFFFFFFFFFFFFF AND PUSH20 0xFFFFFFFFFFFFFFFFFFFFFFFFFFFFFFFFFFFFFFFF AND PUSH20 0xFFFFFFFFFFFFFFFFFFFFFFFFFFFFFFFFFFFFFFFF AND DUP2 MSTORE PUSH1 0x20 ADD PUSH1 0x3 DUP3 ADD DUP1 SLOAD PUSH2 0xE27 SWAP1 PUSH2 0x3296 JUMP JUMPDEST DUP1 PUSH1 0x1F ADD PUSH1 0x20 DUP1 SWAP2 DIV MUL PUSH1 0x20 ADD PUSH1 0x40 MLOAD SWAP1 DUP2 ADD PUSH1 0x40 MSTORE DUP1 SWAP3 SWAP2 SWAP1 DUP2 DUP2 MSTORE PUSH1 0x20 ADD DUP3 DUP1 SLOAD PUSH2 0xE53 SWAP1 PUSH2 0x3296 JUMP JUMPDEST DUP1 ISZERO PUSH2 0xEA0 JUMPI DUP1 PUSH1 0x1F LT PUSH2 0xE75 JUMPI PUSH2 0x100 DUP1 DUP4 SLOAD DIV MUL DUP4 MSTORE SWAP2 PUSH1 0x20 ADD SWAP2 PUSH2 0xEA0 JUMP JUMPDEST DUP3 ADD SWAP2 SWAP1 PUSH1 0x0 MSTORE PUSH1 0x20 PUSH1 0x0 KECCAK256 SWAP1 JUMPDEST DUP2 SLOAD DUP2 MSTORE SWAP1 PUSH1 0x1 ADD SWAP1 PUSH1 0x20 ADD DUP1 DUP4 GT PUSH2 0xE83 JUMPI DUP3 SWAP1 SUB PUSH1 0x1F AND DUP3 ADD SWAP2 JUMPDEST POP POP POP POP POP DUP2 MSTORE PUSH1 0x20 ADD PUSH1 0x4 DUP3 ADD DUP1 SLOAD PUSH2 0xEB9 SWAP1 PUSH2 0x3296 JUMP JUMPDEST DUP1 PUSH1 0x1F ADD PUSH1 0x20 DUP1 SWAP2 DIV MUL PUSH1 0x20 ADD PUSH1 0x40 MLOAD SWAP1 DUP2 ADD PUSH1 0x40 MSTORE DUP1 SWAP3 SWAP2 SWAP1 DUP2 DUP2 MSTORE PUSH1 0x20 ADD DUP3 DUP1 SLOAD PUSH2 0xEE5 SWAP1 PUSH2 0x3296 JUMP JUMPDEST DUP1 ISZERO PUSH2 0xF32 JUMPI DUP1 PUSH1 0x1F LT PUSH2 0xF07 JUMPI PUSH2 0x100 DUP1 DUP4 SLOAD DIV MUL DUP4 MSTORE SWAP2 PUSH1 0x20 ADD SWAP2 PUSH2 0xF32 JUMP JUMPDEST DUP3 ADD SWAP2 SWAP1 PUSH1 0x0 MSTORE PUSH1 0x20 PUSH1 0x0 KECCAK256 SWAP1 JUMPDEST DUP2 SLOAD DUP2 MSTORE SWAP1 PUSH1 0x1 ADD SWAP1 PUSH1 0x20 ADD DUP1 DUP4 GT PUSH2 0xF15 JUMPI DUP3 SWAP1 SUB PUSH1 0x1F AND DUP3 ADD SWAP2 JUMPDEST POP POP POP POP POP DUP2 MSTORE PUSH1 0x20 ADD PUSH1 0x5 DUP3 ADD DUP1 SLOAD PUSH2 0xF4B SWAP1 PUSH2 0x3296 JUMP JUMPDEST DUP1 PUSH1 0x1F ADD PUSH1 0x20 DUP1 SWAP2 DIV MUL PUSH1 0x20 ADD PUSH1 0x40 MLOAD SWAP1 DUP2 ADD PUSH1 0x40 MSTORE DUP1 SWAP3 SWAP2 SWAP1 DUP2 DUP2 MSTORE PUSH1 0x20 ADD DUP3 DUP1 SLOAD PUSH2 0xF77 SWAP1 PUSH2 0x3296 JUMP JUMPDEST DUP1 ISZERO PUSH2 0xFC4 JUMPI DUP1 PUSH1 0x1F LT PUSH2 0xF99 JUMPI PUSH2 0x100 DUP1 DUP4 SLOAD DIV MUL DUP4 MSTORE SWAP2 PUSH1 0x20 ADD SWAP2 PUSH2 0xFC4 JUMP JUMPDEST DUP3 ADD SWAP2 SWAP1 PUSH1 0x0 MSTORE PUSH1 0x20 PUSH1 0x0 KECCAK256 SWAP1 JUMPDEST DUP2 SLOAD DUP2 MSTORE SWAP1 PUSH1 0x1 ADD SWAP1 PUSH1 0x20 ADD DUP1 DUP4 GT PUSH2 0xFA7 JUMPI DUP3 SWAP1 SUB PUSH1 0x1F AND DUP3 ADD SWAP2 JUMPDEST POP POP POP POP POP DUP2 MSTORE PUSH1 0x20 ADD PUSH1 0x6 DUP3 ADD DUP1 SLOAD PUSH2 0xFDD SWAP1 PUSH2 0x3296 JUMP JUMPDEST DUP1 PUSH1 0x1F ADD PUSH1 0x20 DUP1 SWAP2 DIV MUL PUSH1 0x20 ADD PUSH1 0x40 MLOAD SWAP1 DUP2 ADD PUSH1 0x40 MSTORE DUP1 SWAP3 SWAP2 SWAP1 DUP2 DUP2 MSTORE PUSH1 0x20 ADD DUP3 DUP1 SLOAD PUSH2 0x1009 SWAP1 PUSH2 0x3296 JUMP JUMPDEST DUP1 ISZERO PUSH2 0x1056 JUMPI DUP1 PUSH1 0x1F LT PUSH2 0x102B JUMPI PUSH2 0x100 DUP1 DUP4 SLOAD DIV MUL DUP4 MSTORE SWAP2 PUSH1 0x20 ADD SWAP2 PUSH2 0x1056 JUMP JUMPDEST DUP3 ADD SWAP2 SWAP1 PUSH1 0x0 MSTORE PUSH1 0x20 PUSH1 0x0 KECCAK256 SWAP1 JUMPDEST DUP2 SLOAD DUP2 MSTORE SWAP1 PUSH1 0x1 ADD SWAP1 PUSH1 0x20 ADD DUP1 DUP4 GT PUSH2 0x1039 JUMPI DUP3 SWAP1 SUB PUSH1 0x1F AND DUP3 ADD SWAP2 JUMPDEST POP POP POP POP POP DUP2 MSTORE PUSH1 0x20 ADD PUSH1 0x7 DUP3 ADD SLOAD DUP2 MSTORE POP POP SWAP1 DUP1 PUSH1 0x8 ADD PUSH1 0x40 MLOAD DUP1 PUSH1 0xC0 ADD PUSH1 0x40 MSTORE SWAP1 DUP2 PUSH1 0x0 DUP3 ADD DUP1 SLOAD PUSH2 0x1089 SWAP1 PUSH2 0x3296 JUMP JUMPDEST DUP1 PUSH1 0x1F ADD PUSH1 0x20 DUP1 SWAP2 DIV MUL PUSH1 0x20 ADD PUSH1 0x40 MLOAD SWAP1 DUP2 ADD PUSH1 0x40 MSTORE DUP1 SWAP3 SWAP2 SWAP1 DUP2 DUP2 MSTORE PUSH1 0x20 ADD DUP3 DUP1 SLOAD PUSH2 0x10B5 SWAP1 PUSH2 0x3296 JUMP JUMPDEST DUP1 ISZERO PUSH2 0x1102 JUMPI DUP1 PUSH1 0x1F LT PUSH2 0x10D7 JUMPI PUSH2 0x100 DUP1 DUP4 SLOAD DIV MUL DUP4 MSTORE SWAP2 PUSH1 0x20 ADD SWAP2 PUSH2 0x1102 JUMP JUMPDEST DUP3 ADD SWAP2 SWAP1 PUSH1 0x0 MSTORE PUSH1 0x20 PUSH1 0x0 KECCAK256 SWAP1 JUMPDEST DUP2 SLOAD DUP2 MSTORE SWAP1 PUSH1 0x1 ADD SWAP1 PUSH1 0x20 ADD DUP1 DUP4 GT PUSH2 0x10E5 JUMPI DUP3 SWAP1 SUB PUSH1 0x1F AND DUP3 ADD SWAP2 JUMPDEST POP POP POP POP POP DUP2 MSTORE PUSH1 0x20 ADD PUSH1 0x1 DUP3 ADD DUP1 SLOAD PUSH2 0x111B SWAP1 PUSH2 0x3296 JUMP JUMPDEST DUP1 PUSH1 0x1F ADD PUSH1 0x20 DUP1 SWAP2 DIV MUL PUSH1 0x20 ADD PUSH1 0x40 MLOAD SWAP1 DUP2 ADD PUSH1 0x40 MSTORE DUP1 SWAP3 SWAP2 SWAP1 DUP2 DUP2 MSTORE PUSH1 0x20 ADD DUP3 DUP1 SLOAD PUSH2 0x1147 SWAP1 PUSH2 0x3296 JUMP JUMPDEST DUP1 ISZERO PUSH2 0x1194 JUMPI DUP1 PUSH1 0x1F LT PUSH2 0x1169 JUMPI PUSH2 0x100 DUP1 DUP4 SLOAD DIV MUL DUP4 MSTORE SWAP2 PUSH1 0x20 ADD SWAP2 PUSH2 0x1194 JUMP JUMPDEST DUP3 ADD SWAP2 SWAP1 PUSH1 0x0 MSTORE PUSH1 0x20 PUSH1 0x0 KECCAK256 SWAP1 JUMPDEST DUP2 SLOAD DUP2 MSTORE SWAP1 PUSH1 0x1 ADD SWAP1 PUSH1 0x20 ADD DUP1 DUP4 GT PUSH2 0x1177 JUMPI DUP3 SWAP1 SUB PUSH1 0x1F AND DUP3 ADD SWAP2 JUMPDEST POP POP POP POP POP DUP2 MSTORE PUSH1 0x20 ADD PUSH1 0x2 DUP3 ADD DUP1 SLOAD PUSH2 0x11AD SWAP1 PUSH2 0x3296 JUMP JUMPDEST DUP1 PUSH1 0x1F ADD PUSH1 0x20 DUP1 SWAP2 DIV MUL PUSH1 0x20 ADD PUSH1 0x40 MLOAD SWAP1 DUP2 ADD PUSH1 0x40 MSTORE DUP1 SWAP3 SWAP2 SWAP1 DUP2 DUP2 MSTORE PUSH1 0x20 ADD DUP3 DUP1 SLOAD PUSH2 0x11D9 SWAP1 PUSH2 0x3296 JUMP JUMPDEST DUP1 ISZERO PUSH2 0x1226 JUMPI DUP1 PUSH1 0x1F LT PUSH2 0x11FB JUMPI PUSH2 0x100 DUP1 DUP4 SLOAD DIV MUL DUP4 MSTORE SWAP2 PUSH1 0x20 ADD SWAP2 PUSH2 0x1226 JUMP JUMPDEST DUP3 ADD SWAP2 SWAP1 PUSH1 0x0 MSTORE PUSH1 0x20 PUSH1 0x0 KECCAK256 SWAP1 JUMPDEST DUP2 SLOAD DUP2 MSTORE SWAP1 PUSH1 0x1 ADD SWAP1 PUSH1 0x20 ADD DUP1 DUP4 GT PUSH2 0x1209 JUMPI DUP3 SWAP1 SUB PUSH1 0x1F AND DUP3 ADD SWAP2 JUMPDEST POP POP POP POP POP DUP2 MSTORE PUSH1 0x20 ADD PUSH1 0x3 DUP3 ADD DUP1 SLOAD PUSH2 0x123F SWAP1 PUSH2 0x3296 JUMP JUMPDEST DUP1 PUSH1 0x1F ADD PUSH1 0x20 DUP1 SWAP2 DIV MUL PUSH1 0x20 ADD PUSH1 0x40 MLOAD SWAP1 DUP2 ADD PUSH1 0x40 MSTORE DUP1 SWAP3 SWAP2 SWAP1 DUP2 DUP2 MSTORE PUSH1 0x20 ADD DUP3 DUP1 SLOAD PUSH2 0x126B SWAP1 PUSH2 0x3296 JUMP JUMPDEST DUP1 ISZERO PUSH2 0x12B8 JUMPI DUP1 PUSH1 0x1F LT PUSH2 0x128D JUMPI PUSH2 0x100 DUP1 DUP4 SLOAD DIV MUL DUP4 MSTORE SWAP2 PUSH1 0x20 ADD SWAP2 PUSH2 0x12B8 JUMP JUMPDEST DUP3 ADD SWAP2 SWAP1 PUSH1 0x0 MSTORE PUSH1 0x20 PUSH1 0x0 KECCAK256 SWAP1 JUMPDEST DUP2 SLOAD DUP2 MSTORE SWAP1 PUSH1 0x1 ADD SWAP1 PUSH1 0x20 ADD DUP1 DUP4 GT PUSH2 0x129B JUMPI DUP3 SWAP1 SUB PUSH1 0x1F AND DUP3 ADD SWAP2 JUMPDEST POP POP POP POP POP DUP2 MSTORE PUSH1 0x20 ADD PUSH1 0x4 DUP3 ADD DUP1 SLOAD PUSH2 0x12D1 SWAP1 PUSH2 0x3296 JUMP JUMPDEST DUP1 PUSH1 0x1F ADD PUSH1 0x20 DUP1 SWAP2 DIV MUL PUSH1 0x20 ADD PUSH1 0x40 MLOAD SWAP1 DUP2 ADD PUSH1 0x40 MSTORE DUP1 SWAP3 SWAP2 SWAP1 DUP2 DUP2 MSTORE PUSH1 0x20 ADD DUP3 DUP1 SLOAD PUSH2 0x12FD SWAP1 PUSH2 0x3296 JUMP JUMPDEST DUP1 ISZERO PUSH2 0x134A JUMPI DUP1 PUSH1 0x1F LT PUSH2 0x131F JUMPI PUSH2 0x100 DUP1 DUP4 SLOAD DIV MUL DUP4 MSTORE SWAP2 PUSH1 0x20 ADD SWAP2 PUSH2 0x134A JUMP JUMPDEST DUP3 ADD SWAP2 SWAP1 PUSH1 0x0 MSTORE PUSH1 0x20 PUSH1 0x0 KECCAK256 SWAP1 JUMPDEST DUP2 SLOAD DUP2 MSTORE SWAP1 PUSH1 0x1 ADD SWAP1 PUSH1 0x20 ADD DUP1 DUP4 GT PUSH2 0x132D JUMPI DUP3 SWAP1 SUB PUSH1 0x1F AND DUP3 ADD SWAP2 JUMPDEST POP POP POP POP POP DUP2 MSTORE PUSH1 0x20 ADD PUSH1 0x5 DUP3 ADD DUP1 SLOAD PUSH2 0x1363 SWAP1 PUSH2 0x3296 JUMP JUMPDEST DUP1 PUSH1 0x1F ADD PUSH1 0x20 DUP1 SWAP2 DIV MUL PUSH1 0x20 ADD PUSH1 0x40 MLOAD SWAP1 DUP2 ADD PUSH1 0x40 MSTORE DUP1 SWAP3 SWAP2 SWAP1 DUP2 DUP2 MSTORE PUSH1 0x20 ADD DUP3 DUP1 SLOAD PUSH2 0x138F SWAP1 PUSH2 0x3296 JUMP JUMPDEST DUP1 ISZERO PUSH2 0x13DC JUMPI DUP1 PUSH1 0x1F LT PUSH2 0x13B1 JUMPI PUSH2 0x100 DUP1 DUP4 SLOAD DIV MUL DUP4 MSTORE SWAP2 PUSH1 0x20 ADD SWAP2 PUSH2 0x13DC JUMP JUMPDEST DUP3 ADD SWAP2 SWAP1 PUSH1 0x0 MSTORE PUSH1 0x20 PUSH1 0x0 KECCAK256 SWAP1 JUMPDEST DUP2 SLOAD DUP2 MSTORE SWAP1 PUSH1 0x1 ADD SWAP1 PUSH1 0x20 ADD DUP1 DUP4 GT PUSH2 0x13BF JUMPI DUP3 SWAP1 SUB PUSH1 0x1F AND DUP3 ADD SWAP2 JUMPDEST POP POP POP POP POP DUP2 MSTORE POP POP SWAP1 DUP1 PUSH1 0xE ADD PUSH1 0x40 MLOAD DUP1 PUSH1 0x60 ADD PUSH1 0x40 MSTORE SWAP1 DUP2 PUSH1 0x0 DUP3 ADD DUP1 SLOAD DUP1 PUSH1 0x20 MUL PUSH1 0x20 ADD PUSH1 0x40 MLOAD SWAP1 DUP2 ADD PUSH1 0x40 MSTORE DUP1 SWAP3 SWAP2 SWAP1 DUP2 DUP2 MSTORE PUSH1 0x20 ADD PUSH1 0x0 SWAP1 JUMPDEST DUP3 DUP3 LT ISZERO PUSH2 0x14C6 JUMPI DUP4 DUP3 SWAP1 PUSH1 0x0 MSTORE PUSH1 0x20 PUSH1 0x0 KECCAK256 ADD DUP1 SLOAD PUSH2 0x1439 SWAP1 PUSH2 0x3296 JUMP JUMPDEST DUP1 PUSH1 0x1F ADD PUSH1 0x20 DUP1 SWAP2 DIV MUL PUSH1 0x20 ADD PUSH1 0x40 MLOAD SWAP1 DUP2 ADD PUSH1 0x40 MSTORE DUP1 SWAP3 SWAP2 SWAP1 DUP2 DUP2 MSTORE PUSH1 0x20 ADD DUP3 DUP1 SLOAD PUSH2 0x1465 SWAP1 PUSH2 0x3296 JUMP JUMPDEST DUP1 ISZERO PUSH2 0x14B2 JUMPI DUP1 PUSH1 0x1F LT PUSH2 0x1487 JUMPI PUSH2 0x100 DUP1 DUP4 SLOAD DIV MUL DUP4 MSTORE SWAP2 PUSH1 0x20 ADD SWAP2 PUSH2 0x14B2 JUMP JUMPDEST DUP3 ADD SWAP2 SWAP1 PUSH1 0x0 MSTORE PUSH1 0x20 PUSH1 0x0 KECCAK256 SWAP1 JUMPDEST DUP2 SLOAD DUP2 MSTORE SWAP1 PUSH1 0x1 ADD SWAP1 PUSH1 0x20 ADD DUP1 DUP4 GT PUSH2 0x1495 JUMPI DUP3 SWAP1 SUB PUSH1 0x1F AND DUP3 ADD SWAP2 JUMPDEST POP POP POP POP POP DUP2 MSTORE PUSH1 0x20 ADD SWAP1 PUSH1 0x1 ADD SWAP1 PUSH2 0x141A JUMP JUMPDEST POP POP POP POP DUP2 MSTORE PUSH1 0x20 ADD PUSH1 0x1 DUP3 ADD DUP1 SLOAD DUP1 PUSH1 0x20 MUL PUSH1 0x20 ADD PUSH1 0x40 MLOAD SWAP1 DUP2 ADD PUSH1 0x40 MSTORE DUP1 SWAP3 SWAP2 SWAP1 DUP2 DUP2 MSTORE PUSH1 0x20 ADD PUSH1 0x0 SWAP1 JUMPDEST DUP3 DUP3 LT ISZERO PUSH2 0x159F JUMPI DUP4 DUP3 SWAP1 PUSH1 0x0 MSTORE PUSH1 0x20 PUSH1 0x0 KECCAK256 ADD DUP1 SLOAD PUSH2 0x1512 SWAP1 PUSH2 0x3296 JUMP JUMPDEST DUP1 PUSH1 0x1F ADD PUSH1 0x20 DUP1 SWAP2 DIV MUL PUSH1 0x20 ADD PUSH1 0x40 MLOAD SWAP1 DUP2 ADD PUSH1 0x40 MSTORE DUP1 SWAP3 SWAP2 SWAP1 DUP2 DUP2 MSTORE PUSH1 0x20 ADD DUP3 DUP1 SLOAD PUSH2 0x153E SWAP1 PUSH2 0x3296 JUMP JUMPDEST DUP1 ISZERO PUSH2 0x158B JUMPI DUP1 PUSH1 0x1F LT PUSH2 0x1560 JUMPI PUSH2 0x100 DUP1 DUP4 SLOAD DIV MUL DUP4 MSTORE SWAP2 PUSH1 0x20 ADD SWAP2 PUSH2 0x158B JUMP JUMPDEST DUP3 ADD SWAP2 SWAP1 PUSH1 0x0 MSTORE PUSH1 0x20 PUSH1 0x0 KECCAK256 SWAP1 JUMPDEST DUP2 SLOAD DUP2 MSTORE SWAP1 PUSH1 0x1 ADD SWAP1 PUSH1 0x20 ADD DUP1 DUP4 GT PUSH2 0x156E JUMPI DUP3 SWAP1 SUB PUSH1 0x1F AND DUP3 ADD SWAP2 JUMPDEST POP POP POP POP POP DUP2 MSTORE PUSH1 0x20 ADD SWAP1 PUSH1 0x1 ADD SWAP1 PUSH2 0x14F3 JUMP JUMPDEST POP POP POP POP DUP2 MSTORE PUSH1 0x20 ADD PUSH1 0x2 DUP3 ADD DUP1 SLOAD DUP1 PUSH1 0x20 MUL PUSH1 0x20 ADD PUSH1 0x40 MLOAD SWAP1 DUP2 ADD PUSH1 0x40 MSTORE DUP1 SWAP3 SWAP2 SWAP1 DUP2 DUP2 MSTORE PUSH1 0x20 ADD PUSH1 0x0 SWAP1 JUMPDEST DUP3 DUP3 LT ISZERO PUSH2 0x1678 JUMPI DUP4 DUP3 SWAP1 PUSH1 0x0 MSTORE PUSH1 0x20 PUSH1 0x0 KECCAK256 ADD DUP1 SLOAD PUSH2 0x15EB SWAP1 PUSH2 0x3296 JUMP JUMPDEST DUP1 PUSH1 0x1F ADD PUSH1 0x20 DUP1 SWAP2 DIV MUL PUSH1 0x20 ADD PUSH1 0x40 MLOAD SWAP1 DUP2 ADD PUSH1 0x40 MSTORE DUP1 SWAP3 SWAP2 SWAP1 DUP2 DUP2 MSTORE PUSH1 0x20 ADD DUP3 DUP1 SLOAD PUSH2 0x1617 SWAP1 PUSH2 0x3296 JUMP JUMPDEST DUP1 ISZERO PUSH2 0x1664 JUMPI DUP1 PUSH1 0x1F LT PUSH2 0x1639 JUMPI PUSH2 0x100 DUP1 DUP4 SLOAD DIV MUL DUP4 MSTORE SWAP2 PUSH1 0x20 ADD SWAP2 PUSH2 0x1664 JUMP JUMPDEST DUP3 ADD SWAP2 SWAP1 PUSH1 0x0 MSTORE PUSH1 0x20 PUSH1 0x0 KECCAK256 SWAP1 JUMPDEST DUP2 SLOAD DUP2 MSTORE SWAP1 PUSH1 0x1 ADD SWAP1 PUSH1 0x20 ADD DUP1 DUP4 GT PUSH2 0x1647 JUMPI DUP3 SWAP1 SUB PUSH1 0x1F AND DUP3 ADD SWAP2 JUMPDEST POP POP POP POP POP DUP2 MSTORE PUSH1 0x20 ADD SWAP1 PUSH1 0x1 ADD SWAP1 PUSH2 0x15CC JUMP JUMPDEST POP POP POP POP DUP2 MSTORE POP POP SWAP1 DUP1 PUSH1 0x12 ADD PUSH1 0x40 MLOAD DUP1 PUSH1 0x40 ADD PUSH1 0x40 MSTORE SWAP1 DUP2 PUSH1 0x0 DUP3 ADD DUP1 SLOAD DUP1 PUSH1 0x20 MUL PUSH1 0x20 ADD PUSH1 0x40 MLOAD SWAP1 DUP2 ADD PUSH1 0x40 MSTORE DUP1 SWAP3 SWAP2 SWAP1 DUP2 DUP2 MSTORE PUSH1 0x20 ADD PUSH1 0x0 SWAP1 JUMPDEST DUP3 DUP3 LT ISZERO PUSH2 0x1761 JUMPI DUP4 DUP3 SWAP1 PUSH1 0x0 MSTORE PUSH1 0x20 PUSH1 0x0 KECCAK256 ADD DUP1 SLOAD PUSH2 0x16D4 SWAP1 PUSH2 0x3296 JUMP JUMPDEST DUP1 PUSH1 0x1F ADD PUSH1 0x20 DUP1 SWAP2 DIV MUL PUSH1 0x20 ADD PUSH1 0x40 MLOAD SWAP1 DUP2 ADD PUSH1 0x40 MSTORE DUP1 SWAP3 SWAP2 SWAP1 DUP2 DUP2 MSTORE PUSH1 0x20 ADD DUP3 DUP1 SLOAD PUSH2 0x1700 SWAP1 PUSH2 0x3296 JUMP JUMPDEST DUP1 ISZERO PUSH2 0x174D JUMPI DUP1 PUSH1 0x1F LT PUSH2 0x1722 JUMPI PUSH2 0x100 DUP1 DUP4 SLOAD DIV MUL DUP4 MSTORE SWAP2 PUSH1 0x20 ADD SWAP2 PUSH2 0x174D JUMP JUMPDEST DUP3 ADD SWAP2 SWAP1 PUSH1 0x0 MSTORE PUSH1 0x20 PUSH1 0x0 KECCAK256 SWAP1 JUMPDEST DUP2 SLOAD DUP2 MSTORE SWAP1 PUSH1 0x1 ADD SWAP1 PUSH1 0x20 ADD DUP1 DUP4 GT PUSH2 0x1730 JUMPI DUP3 SWAP1 SUB PUSH1 0x1F AND DUP3 ADD SWAP2 JUMPDEST POP POP POP POP POP DUP2 MSTORE PUSH1 0x20 ADD SWAP1 PUSH1 0x1 ADD SWAP1 PUSH2 0x16B5 JUMP JUMPDEST POP POP POP POP DUP2 MSTORE PUSH1 0x20 ADD PUSH1 0x1 DUP3 ADD DUP1 SLOAD DUP1 PUSH1 0x20 MUL PUSH1 0x20 ADD PUSH1 0x40 MLOAD SWAP1 DUP2 ADD PUSH1 0x40 MSTORE DUP1 SWAP3 SWAP2 SWAP1 DUP2 DUP2 MSTORE PUSH1 0x20 ADD PUSH1 0x0 SWAP1 JUMPDEST DUP3 DUP3 LT ISZERO PUSH2 0x183A JUMPI DUP4 DUP3 SWAP1 PUSH1 0x0 MSTORE PUSH1 0x20 PUSH1 0x0 KECCAK256 ADD DUP1 SLOAD PUSH2 0x17AD SWAP1 PUSH2 0x3296 JUMP JUMPDEST DUP1 PUSH1 0x1F ADD PUSH1 0x20 DUP1 SWAP2 DIV MUL PUSH1 0x20 ADD PUSH1 0x40 MLOAD SWAP1 DUP2 ADD PUSH1 0x40 MSTORE DUP1 SWAP3 SWAP2 SWAP1 DUP2 DUP2 MSTORE PUSH1 0x20 ADD DUP3 DUP1 SLOAD PUSH2 0x17D9 SWAP1 PUSH2 0x3296 JUMP JUMPDEST DUP1 ISZERO PUSH2 0x1826 JUMPI DUP1 PUSH1 0x1F LT PUSH2 0x17FB JUMPI PUSH2 0x100 DUP1 DUP4 SLOAD DIV MUL DUP4 MSTORE SWAP2 PUSH1 0x20 ADD SWAP2 PUSH2 0x1826 JUMP JUMPDEST DUP3 ADD SWAP2 SWAP1 PUSH1 0x0 MSTORE PUSH1 0x20 PUSH1 0x0 KECCAK256 SWAP1 JUMPDEST DUP2 SLOAD DUP2 MSTORE SWAP1 PUSH1 0x1 ADD SWAP1 PUSH1 0x20 ADD DUP1 DUP4 GT PUSH2 0x1809 JUMPI DUP3 SWAP1 SUB PUSH1 0x1F AND DUP3 ADD SWAP2 JUMPDEST POP POP POP POP POP DUP2 MSTORE PUSH1 0x20 ADD SWAP1 PUSH1 0x1 ADD SWAP1 PUSH2 0x178E JUMP JUMPDEST POP POP POP POP DUP2 MSTORE POP POP SWAP1 DUP1 PUSH1 0x14 ADD PUSH1 0x40 MLOAD DUP1 PUSH1 0xA0 ADD PUSH1 0x40 MSTORE SWAP1 DUP2 PUSH1 0x0 DUP3 ADD DUP1 SLOAD PUSH2 0x1862 SWAP1 PUSH2 0x3296 JUMP JUMPDEST DUP1 PUSH1 0x1F ADD PUSH1 0x20 DUP1 SWAP2 DIV MUL PUSH1 0x20 ADD PUSH1 0x40 MLOAD SWAP1 DUP2 ADD PUSH1 0x40 MSTORE DUP1 SWAP3 SWAP2 SWAP1 DUP2 DUP2 MSTORE PUSH1 0x20 ADD DUP3 DUP1 SLOAD PUSH2 0x188E SWAP1 PUSH2 0x3296 JUMP JUMPDEST DUP1 ISZERO PUSH2 0x18DB JUMPI DUP1 PUSH1 0x1F LT PUSH2 0x18B0 JUMPI PUSH2 0x100 DUP1 DUP4 SLOAD DIV MUL DUP4 MSTORE SWAP2 PUSH1 0x20 ADD SWAP2 PUSH2 0x18DB JUMP JUMPDEST DUP3 ADD SWAP2 SWAP1 PUSH1 0x0 MSTORE PUSH1 0x20 PUSH1 0x0 KECCAK256 SWAP1 JUMPDEST DUP2 SLOAD DUP2 MSTORE SWAP1 PUSH1 0x1 ADD SWAP1 PUSH1 0x20 ADD DUP1 DUP4 GT PUSH2 0x18BE JUMPI DUP3 SWAP1 SUB PUSH1 0x1F AND DUP3 ADD SWAP2 JUMPDEST POP POP POP POP POP DUP2 MSTORE PUSH1 0x20 ADD PUSH1 0x1 DUP3 ADD DUP1 SLOAD PUSH2 0x18F4 SWAP1 PUSH2 0x3296 JUMP JUMPDEST DUP1 PUSH1 0x1F ADD PUSH1 0x20 DUP1 SWAP2 DIV MUL PUSH1 0x20 ADD PUSH1 0x40 MLOAD SWAP1 DUP2 ADD PUSH1 0x40 MSTORE DUP1 SWAP3 SWAP2 SWAP1 DUP2 DUP2 MSTORE PUSH1 0x20 ADD DUP3 DUP1 SLOAD PUSH2 0x1920 SWAP1 PUSH2 0x3296 JUMP JUMPDEST DUP1 ISZERO PUSH2 0x196D JUMPI DUP1 PUSH1 0x1F LT PUSH2 0x1942 JUMPI PUSH2 0x100 DUP1 DUP4 SLOAD DIV MUL DUP4 MSTORE SWAP2 PUSH1 0x20 ADD SWAP2 PUSH2 0x196D JUMP JUMPDEST DUP3 ADD SWAP2 SWAP1 PUSH1 0x0 MSTORE PUSH1 0x20 PUSH1 0x0 KECCAK256 SWAP1 JUMPDEST DUP2 SLOAD DUP2 MSTORE SWAP1 PUSH1 0x1 ADD SWAP1 PUSH1 0x20 ADD DUP1 DUP4 GT PUSH2 0x1950 JUMPI DUP3 SWAP1 SUB PUSH1 0x1F AND DUP3 ADD SWAP2 JUMPDEST POP POP POP POP POP DUP2 MSTORE PUSH1 0x20 ADD PUSH1 0x2 DUP3 ADD DUP1 SLOAD PUSH2 0x1986 SWAP1 PUSH2 0x3296 JUMP JUMPDEST DUP1 PUSH1 0x1F ADD PUSH1 0x20 DUP1 SWAP2 DIV MUL PUSH1 0x20 ADD PUSH1 0x40 MLOAD SWAP1 DUP2 ADD PUSH1 0x40 MSTORE DUP1 SWAP3 SWAP2 SWAP1 DUP2 DUP2 MSTORE PUSH1 0x20 ADD DUP3 DUP1 SLOAD PUSH2 0x19B2 SWAP1 PUSH2 0x3296 JUMP JUMPDEST DUP1 ISZERO PUSH2 0x19FF JUMPI DUP1 PUSH1 0x1F LT PUSH2 0x19D4 JUMPI PUSH2 0x100 DUP1 DUP4 SLOAD DIV MUL DUP4 MSTORE SWAP2 PUSH1 0x20 ADD SWAP2 PUSH2 0x19FF JUMP JUMPDEST DUP3 ADD SWAP2 SWAP1 PUSH1 0x0 MSTORE PUSH1 0x20 PUSH1 0x0 KECCAK256 SWAP1 JUMPDEST DUP2 SLOAD DUP2 MSTORE SWAP1 PUSH1 0x1 ADD SWAP1 PUSH1 0x20 ADD DUP1 DUP4 GT PUSH2 0x19E2 JUMPI DUP3 SWAP1 SUB PUSH1 0x1F AND DUP3 ADD SWAP2 JUMPDEST POP POP POP POP POP DUP2 MSTORE PUSH1 0x20 ADD PUSH1 0x3 DUP3 ADD DUP1 SLOAD PUSH2 0x1A18 SWAP1 PUSH2 0x3296 JUMP JUMPDEST DUP1 PUSH1 0x1F ADD PUSH1 0x20 DUP1 SWAP2 DIV MUL PUSH1 0x20 ADD PUSH1 0x40 MLOAD SWAP1 DUP2 ADD PUSH1 0x40 MSTORE DUP1 SWAP3 SWAP2 SWAP1 DUP2 DUP2 MSTORE PUSH1 0x20 ADD DUP3 DUP1 SLOAD PUSH2 0x1A44 SWAP1 PUSH2 0x3296 JUMP JUMPDEST DUP1 ISZERO PUSH2 0x1A91 JUMPI DUP1 PUSH1 0x1F LT PUSH2 0x1A66 JUMPI PUSH2 0x100 DUP1 DUP4 SLOAD DIV MUL DUP4 MSTORE SWAP2 PUSH1 0x20 ADD SWAP2 PUSH2 0x1A91 JUMP JUMPDEST DUP3 ADD SWAP2 SWAP1 PUSH1 0x0 MSTORE PUSH1 0x20 PUSH1 0x0 KECCAK256 SWAP1 JUMPDEST DUP2 SLOAD DUP2 MSTORE SWAP1 PUSH1 0x1 ADD SWAP1 PUSH1 0x20 ADD DUP1 DUP4 GT PUSH2 0x1A74 JUMPI DUP3 SWAP1 SUB PUSH1 0x1F AND DUP3 ADD SWAP2 JUMPDEST POP POP POP POP POP DUP2 MSTORE PUSH1 0x20 ADD PUSH1 0x4 DUP3 ADD DUP1 SLOAD DUP1 PUSH1 0x20 MUL PUSH1 0x20 ADD PUSH1 0x40 MLOAD SWAP1 DUP2 ADD PUSH1 0x40 MSTORE DUP1 SWAP3 SWAP2 SWAP1 DUP2 DUP2 MSTORE PUSH1 0x20 ADD PUSH1 0x0 SWAP1 JUMPDEST DUP3 DUP3 LT ISZERO PUSH2 0x1B6B JUMPI DUP4 DUP3 SWAP1 PUSH1 0x0 MSTORE PUSH1 0x20 PUSH1 0x0 KECCAK256 ADD DUP1 SLOAD PUSH2 0x1ADE SWAP1 PUSH2 0x3296 JUMP JUMPDEST DUP1 PUSH1 0x1F ADD PUSH1 0x20 DUP1 SWAP2 DIV MUL PUSH1 0x20 ADD PUSH1 0x40 MLOAD SWAP1 DUP2 ADD PUSH1 0x40 MSTORE DUP1 SWAP3 SWAP2 SWAP1 DUP2 DUP2 MSTORE PUSH1 0x20 ADD DUP3 DUP1 SLOAD PUSH2 0x1B0A SWAP1 PUSH2 0x3296 JUMP JUMPDEST DUP1 ISZERO PUSH2 0x1B57 JUMPI DUP1 PUSH1 0x1F LT PUSH2 0x1B2C JUMPI PUSH2 0x100 DUP1 DUP4 SLOAD DIV MUL DUP4 MSTORE SWAP2 PUSH1 0x20 ADD SWAP2 PUSH2 0x1B57 JUMP JUMPDEST DUP3 ADD SWAP2 SWAP1 PUSH1 0x0 MSTORE PUSH1 0x20 PUSH1 0x0 KECCAK256 SWAP1 JUMPDEST DUP2 SLOAD DUP2 MSTORE SWAP1 PUSH1 0x1 ADD SWAP1 PUSH1 0x20 ADD DUP1 DUP4 GT PUSH2 0x1B3A JUMPI DUP3 SWAP1 SUB PUSH1 0x1F AND DUP3 ADD SWAP2 JUMPDEST POP POP POP POP POP DUP2 MSTORE PUSH1 0x20 ADD SWAP1 PUSH1 0x1 ADD SWAP1 PUSH2 0x1ABF JUMP JUMPDEST POP POP POP POP DUP2 MSTORE POP POP SWAP1 DUP1 PUSH1 0x19 ADD PUSH1 0x40 MLOAD DUP1 PUSH1 0x40 ADD PUSH1 0x40 MSTORE SWAP1 DUP2 PUSH1 0x0 DUP3 ADD DUP1 SLOAD PUSH2 0x1B93 SWAP1 PUSH2 0x3296 JUMP JUMPDEST DUP1 PUSH1 0x1F ADD PUSH1 0x20 DUP1 SWAP2 DIV MUL PUSH1 0x20 ADD PUSH1 0x40 MLOAD SWAP1 DUP2 ADD PUSH1 0x40 MSTORE DUP1 SWAP3 SWAP2 SWAP1 DUP2 DUP2 MSTORE PUSH1 0x20 ADD DUP3 DUP1 SLOAD PUSH2 0x1BBF SWAP1 PUSH2 0x3296 JUMP JUMPDEST DUP1 ISZERO PUSH2 0x1C0C JUMPI DUP1 PUSH1 0x1F LT PUSH2 0x1BE1 JUMPI PUSH2 0x100 DUP1 DUP4 SLOAD DIV MUL DUP4 MSTORE SWAP2 PUSH1 0x20 ADD SWAP2 PUSH2 0x1C0C JUMP JUMPDEST DUP3 ADD SWAP2 SWAP1 PUSH1 0x0 MSTORE PUSH1 0x20 PUSH1 0x0 KECCAK256 SWAP1 JUMPDEST DUP2 SLOAD DUP2 MSTORE SWAP1 PUSH1 0x1 ADD SWAP1 PUSH1 0x20 ADD DUP1 DUP4 GT PUSH2 0x1BEF JUMPI DUP3 SWAP1 SUB PUSH1 0x1F AND DUP3 ADD SWAP2 JUMPDEST POP POP POP POP POP DUP2 MSTORE PUSH1 0x20 ADD PUSH1 0x1 DUP3 ADD DUP1 SLOAD PUSH2 0x1C25 SWAP1 PUSH2 0x3296 JUMP JUMPDEST DUP1 PUSH1 0x1F ADD PUSH1 0x20 DUP1 SWAP2 DIV MUL PUSH1 0x20 ADD PUSH1 0x40 MLOAD SWAP1 DUP2 ADD PUSH1 0x40 MSTORE DUP1 SWAP3 SWAP2 SWAP1 DUP2 DUP2 MSTORE PUSH1 0x20 ADD DUP3 DUP1 SLOAD PUSH2 0x1C51 SWAP1 PUSH2 0x3296 JUMP JUMPDEST DUP1 ISZERO PUSH2 0x1C9E JUMPI DUP1 PUSH1 0x1F LT PUSH2 0x1C73 JUMPI PUSH2 0x100 DUP1 DUP4 SLOAD DIV MUL DUP4 MSTORE SWAP2 PUSH1 0x20 ADD SWAP2 PUSH2 0x1C9E JUMP JUMPDEST DUP3 ADD SWAP2 SWAP1 PUSH1 0x0 MSTORE PUSH1 0x20 PUSH1 0x0 KECCAK256 SWAP1 JUMPDEST DUP2 SLOAD DUP2 MSTORE SWAP1 PUSH1 0x1 ADD SWAP1 PUSH1 0x20 ADD DUP1 DUP4 GT PUSH2 0x1C81 JUMPI DUP3 SWAP1 SUB PUSH1 0x1F AND DUP3 ADD SWAP2 JUMPDEST POP POP POP POP POP DUP2 MSTORE POP POP SWAP1 POP DUP7 JUMP JUMPDEST DUP2 PUSH1 0x0 DUP1 CALLER PUSH20 0xFFFFFFFFFFFFFFFFFFFFFFFFFFFFFFFFFFFFFFFF AND PUSH20 0xFFFFFFFFFFFFFFFFFFFFFFFFFFFFFFFFFFFFFFFF AND DUP2 MSTORE PUSH1 0x20 ADD SWAP1 DUP2 MSTORE PUSH1 0x20 ADD PUSH1 0x0 KECCAK256 PUSH1 0x12 ADD PUSH1 0x1 ADD SWAP1 DUP1 MLOAD SWAP1 PUSH1 0x20 ADD SWAP1 PUSH2 0x1D04 SWAP3 SWAP2 SWAP1 PUSH2 0x24C9 JUMP JUMPDEST POP DUP1 PUSH1 0x0 DUP1 CALLER PUSH20 0xFFFFFFFFFFFFFFFFFFFFFFFFFFFFFFFFFFFFFFFF AND PUSH20 0xFFFFFFFFFFFFFFFFFFFFFFFFFFFFFFFFFFFFFFFF AND DUP2 MSTORE PUSH1 0x20 ADD SWAP1 DUP2 MSTORE PUSH1 0x20 ADD PUSH1 0x0 KECCAK256 PUSH1 0x12 ADD PUSH1 0x0 ADD SWAP1 DUP1 MLOAD SWAP1 PUSH1 0x20 ADD SWAP1 PUSH2 0x1D5D SWAP3 SWAP2 SWAP1 PUSH2 0x24C9 JUMP JUMPDEST POP POP POP JUMP JUMPDEST PUSH1 0x0 DUP1 CALLER PUSH20 0xFFFFFFFFFFFFFFFFFFFFFFFFFFFFFFFFFFFFFFFF AND PUSH20 0xFFFFFFFFFFFFFFFFFFFFFFFFFFFFFFFFFFFFFFFF AND DUP2 MSTORE PUSH1 0x20 ADD SWAP1 DUP2 MSTORE PUSH1 0x20 ADD PUSH1 0x0 KECCAK256 PUSH1 0x11 ADD PUSH1 0x0 PUSH2 0x1DAF SWAP2 SWAP1 PUSH2 0x261E JUMP JUMPDEST JUMP JUMPDEST PUSH1 0x60 DUP1 PUSH1 0x60 DUP1 PUSH1 0x60 PUSH1 0x0 DUP1 CALLER PUSH20 0xFFFFFFFFFFFFFFFFFFFFFFFFFFFFFFFFFFFFFFFF AND PUSH20 0xFFFFFFFFFFFFFFFFFFFFFFFFFFFFFFFFFFFFFFFF AND DUP2 MSTORE PUSH1 0x20 ADD SWAP1 DUP2 MSTORE PUSH1 0x20 ADD PUSH1 0x0 KECCAK256 PUSH1 0x11 ADD DUP7 DUP2 SLOAD DUP2 LT PUSH2 0x1E0C JUMPI PUSH2 0x1E0B PUSH2 0x3328 JUMP JUMPDEST JUMPDEST SWAP1 PUSH1 0x0 MSTORE PUSH1 0x20 PUSH1 0x0 KECCAK256 SWAP1 PUSH1 0x5 MUL ADD PUSH1 0x0 ADD PUSH1 0x0 DUP1 CALLER PUSH20 0xFFFFFFFFFFFFFFFFFFFFFFFFFFFFFFFFFFFFFFFF AND PUSH20 0xFFFFFFFFFFFFFFFFFFFFFFFFFFFFFFFFFFFFFFFF AND DUP2 MSTORE PUSH1 0x20 ADD SWAP1 DUP2 MSTORE PUSH1 0x20 ADD PUSH1 0x0 KECCAK256 PUSH1 0x11 ADD DUP8 DUP2 SLOAD DUP2 LT PUSH2 0x1E70 JUMPI PUSH2 0x1E6F PUSH2 0x3328 JUMP JUMPDEST JUMPDEST SWAP1 PUSH1 0x0 MSTORE PUSH1 0x20 PUSH1 0x0 KECCAK256 SWAP1 PUSH1 0x5 MUL ADD PUSH1 0x1 ADD PUSH1 0x0 DUP1 CALLER PUSH20 0xFFFFFFFFFFFFFFFFFFFFFFFFFFFFFFFFFFFFFFFF AND PUSH20 0xFFFFFFFFFFFFFFFFFFFFFFFFFFFFFFFFFFFFFFFF AND DUP2 MSTORE PUSH1 0x20 ADD SWAP1 DUP2 MSTORE PUSH1 0x20 ADD PUSH1 0x0 KECCAK256 PUSH1 0x11 ADD DUP9 DUP2 SLOAD DUP2 LT PUSH2 0x1ED4 JUMPI PUSH2 0x1ED3 PUSH2 0x3328 JUMP JUMPDEST JUMPDEST SWAP1 PUSH1 0x0 MSTORE PUSH1 0x20 PUSH1 0x0 KECCAK256 SWAP1 PUSH1 0x5 MUL ADD PUSH1 0x2 ADD PUSH1 0x0 DUP1 CALLER PUSH20 0xFFFFFFFFFFFFFFFFFFFFFFFFFFFFFFFFFFFFFFFF AND PUSH20 0xFFFFFFFFFFFFFFFFFFFFFFFFFFFFFFFFFFFFFFFF AND DUP2 MSTORE PUSH1 0x20 ADD SWAP1 DUP2 MSTORE PUSH1 0x20 ADD PUSH1 0x0 KECCAK256 PUSH1 0x11 ADD DUP10 DUP2 SLOAD DUP2 LT PUSH2 0x1F38 JUMPI PUSH2 0x1F37 PUSH2 0x3328 JUMP JUMPDEST JUMPDEST SWAP1 PUSH1 0x0 MSTORE PUSH1 0x20 PUSH1 0x0 KECCAK256 SWAP1 PUSH1 0x5 MUL ADD PUSH1 0x3 ADD PUSH1 0x0 DUP1 CALLER PUSH20 0xFFFFFFFFFFFFFFFFFFFFFFFFFFFFFFFFFFFFFFFF AND PUSH20 0xFFFFFFFFFFFFFFFFFFFFFFFFFFFFFFFFFFFFFFFF AND DUP2 MSTORE PUSH1 0x20 ADD SWAP1 DUP2 MSTORE PUSH1 0x20 ADD PUSH1 0x0 KECCAK256 PUSH1 0x11 ADD DUP11 DUP2 SLOAD DUP2 LT PUSH2 0x1F9C JUMPI PUSH2 0x1F9B PUSH2 0x3328 JUMP JUMPDEST JUMPDEST SWAP1 PUSH1 0x0 MSTORE PUSH1 0x20 PUSH1 0x0 KECCAK256 SWAP1 PUSH1 0x5 MUL ADD PUSH1 0x4 ADD DUP5 DUP1 SLOAD PUSH2 0x1FB9 SWAP1 PUSH2 0x3296 JUMP JUMPDEST DUP1 PUSH1 0x1F ADD PUSH1 0x20 DUP1 SWAP2 DIV MUL PUSH1 0x20 ADD PUSH1 0x40 MLOAD SWAP1 DUP2 ADD PUSH1 0x40 MSTORE DUP1 SWAP3 SWAP2 SWAP1 DUP2 DUP2 MSTORE PUSH1 0x20 ADD DUP3 DUP1 SLOAD PUSH2 0x1FE5 SWAP1 PUSH2 0x3296 JUMP JUMPDEST DUP1 ISZERO PUSH2 0x2032 JUMPI DUP1 PUSH1 0x1F LT PUSH2 0x2007 JUMPI PUSH2 0x100 DUP1 DUP4 SLOAD DIV MUL DUP4 MSTORE SWAP2 PUSH1 0x20 ADD SWAP2 PUSH2 0x2032 JUMP JUMPDEST DUP3 ADD SWAP2 SWAP1 PUSH1 0x0 MSTORE PUSH1 0x20 PUSH1 0x0 KECCAK256 SWAP1 JUMPDEST DUP2 SLOAD DUP2 MSTORE SWAP1 PUSH1 0x1 ADD SWAP1 PUSH1 0x20 ADD DUP1 DUP4 GT PUSH2 0x2015 JUMPI DUP3 SWAP1 SUB PUSH1 0x1F AND DUP3 ADD SWAP2 JUMPDEST POP POP POP POP POP SWAP5 POP DUP4 DUP1 SLOAD PUSH2 0x2045 SWAP1 PUSH2 0x3296 JUMP JUMPDEST DUP1 PUSH1 0x1F ADD PUSH1 0x20 DUP1 SWAP2 DIV MUL PUSH1 0x20 ADD PUSH1 0x40 MLOAD SWAP1 DUP2 ADD PUSH1 0x40 MSTORE DUP1 SWAP3 SWAP2 SWAP1 DUP2 DUP2 MSTORE PUSH1 0x20 ADD DUP3 DUP1 SLOAD PUSH2 0x2071 SWAP1 PUSH2 0x3296 JUMP JUMPDEST DUP1 ISZERO PUSH2 0x20BE JUMPI DUP1 PUSH1 0x1F LT PUSH2 0x2093 JUMPI PUSH2 0x100 DUP1 DUP4 SLOAD DIV MUL DUP4 MSTORE SWAP2 PUSH1 0x20 ADD SWAP2 PUSH2 0x20BE JUMP JUMPDEST DUP3 ADD SWAP2 SWAP1 PUSH1 0x0 MSTORE PUSH1 0x20 PUSH1 0x0 KECCAK256 SWAP1 JUMPDEST DUP2 SLOAD DUP2 MSTORE SWAP1 PUSH1 0x1 ADD SWAP1 PUSH1 0x20 ADD DUP1 DUP4 GT PUSH2 0x20A1 JUMPI DUP3 SWAP1 SUB PUSH1 0x1F AND DUP3 ADD SWAP2 JUMPDEST POP POP POP POP POP SWAP4 POP DUP3 DUP1 SLOAD PUSH2 0x20D1 SWAP1 PUSH2 0x3296 JUMP JUMPDEST DUP1 PUSH1 0x1F ADD PUSH1 0x20 DUP1 SWAP2 DIV MUL PUSH1 0x20 ADD PUSH1 0x40 MLOAD SWAP1 DUP2 ADD PUSH1 0x40 MSTORE DUP1 SWAP3 SWAP2 SWAP1 DUP2 DUP2 MSTORE PUSH1 0x20 ADD DUP3 DUP1 SLOAD PUSH2 0x20FD SWAP1 PUSH2 0x3296 JUMP JUMPDEST DUP1 ISZERO PUSH2 0x214A JUMPI DUP1 PUSH1 0x1F LT PUSH2 0x211F JUMPI PUSH2 0x100 DUP1 DUP4 SLOAD DIV MUL DUP4 MSTORE SWAP2 PUSH1 0x20 ADD SWAP2 PUSH2 0x214A JUMP JUMPDEST DUP3 ADD SWAP2 SWAP1 PUSH1 0x0 MSTORE PUSH1 0x20 PUSH1 0x0 KECCAK256 SWAP1 JUMPDEST DUP2 SLOAD DUP2 MSTORE SWAP1 PUSH1 0x1 ADD SWAP1 PUSH1 0x20 ADD DUP1 DUP4 GT PUSH2 0x212D JUMPI DUP3 SWAP1 SUB PUSH1 0x1F AND DUP3 ADD SWAP2 JUMPDEST POP POP POP POP POP SWAP3 POP DUP2 DUP1 SLOAD PUSH2 0x215D SWAP1 PUSH2 0x3296 JUMP JUMPDEST DUP1 PUSH1 0x1F ADD PUSH1 0x20 DUP1 SWAP2 DIV MUL PUSH1 0x20 ADD PUSH1 0x40 MLOAD SWAP1 DUP2 ADD PUSH1 0x40 MSTORE DUP1 SWAP3 SWAP2 SWAP1 DUP2 DUP2 MSTORE PUSH1 0x20 ADD DUP3 DUP1 SLOAD PUSH2 0x2189 SWAP1 PUSH2 0x3296 JUMP JUMPDEST DUP1 ISZERO PUSH2 0x21D6 JUMPI DUP1 PUSH1 0x1F LT PUSH2 0x21AB JUMPI PUSH2 0x100 DUP1 DUP4 SLOAD DIV MUL DUP4 MSTORE SWAP2 PUSH1 0x20 ADD SWAP2 PUSH2 0x21D6 JUMP JUMPDEST DUP3 ADD SWAP2 SWAP1 PUSH1 0x0 MSTORE PUSH1 0x20 PUSH1 0x0 KECCAK256 SWAP1 JUMPDEST DUP2 SLOAD DUP2 MSTORE SWAP1 PUSH1 0x1 ADD SWAP1 PUSH1 0x20 ADD DUP1 DUP4 GT PUSH2 0x21B9 JUMPI DUP3 SWAP1 SUB PUSH1 0x1F AND DUP3 ADD SWAP2 JUMPDEST POP POP POP POP POP SWAP2 POP DUP1 DUP1 SLOAD PUSH2 0x21E9 SWAP1 PUSH2 0x3296 JUMP JUMPDEST DUP1 PUSH1 0x1F ADD PUSH1 0x20 DUP1 SWAP2 DIV MUL PUSH1 0x20 ADD PUSH1 0x40 MLOAD SWAP1 DUP2 ADD PUSH1 0x40 MSTORE DUP1 SWAP3 SWAP2 SWAP1 DUP2 DUP2 MSTORE PUSH1 0x20 ADD DUP3 DUP1 SLOAD PUSH2 0x2215 SWAP1 PUSH2 0x3296 JUMP JUMPDEST DUP1 ISZERO PUSH2 0x2262 JUMPI DUP1 PUSH1 0x1F LT PUSH2 0x2237 JUMPI PUSH2 0x100 DUP1 DUP4 SLOAD DIV MUL DUP4 MSTORE SWAP2 PUSH1 0x20 ADD SWAP2 PUSH2 0x2262 JUMP JUMPDEST DUP3 ADD SWAP2 SWAP1 PUSH1 0x0 MSTORE PUSH1 0x20 PUSH1 0x0 KECCAK256 SWAP1 JUMPDEST DUP2 SLOAD DUP2 MSTORE SWAP1 PUSH1 0x1 ADD SWAP1 PUSH1 0x20 ADD DUP1 DUP4 GT PUSH2 0x2245 JUMPI DUP3 SWAP1 SUB PUSH1 0x1F AND DUP3 ADD SWAP2 JUMPDEST POP POP POP POP POP SWAP1 POP SWAP5 POP SWAP5 POP SWAP5 POP SWAP5 POP SWAP5 POP SWAP2 SWAP4 SWAP6 SWAP1 SWAP3 SWAP5 POP JUMP JUMPDEST PUSH1 0x0 DUP1 CALLER PUSH20 0xFFFFFFFFFFFFFFFFFFFFFFFFFFFFFFFFFFFFFFFF AND PUSH20 0xFFFFFFFFFFFFFFFFFFFFFFFFFFFFFFFFFFFFFFFF AND DUP2 MSTORE PUSH1 0x20 ADD SWAP1 DUP2 MSTORE PUSH1 0x20 ADD PUSH1 0x0 KECCAK256 PUSH1 0x0 DUP1 DUP3 ADD PUSH1 0x0 DUP1 DUP3 ADD PUSH1 0x0 PUSH2 0x22D0 SWAP2 SWAP1 PUSH2 0x25DE JUMP JUMPDEST PUSH1 0x1 DUP3 ADD PUSH1 0x0 PUSH2 0x22E0 SWAP2 SWAP1 PUSH2 0x25DE JUMP JUMPDEST PUSH1 0x2 DUP3 ADD PUSH1 0x0 PUSH2 0x100 EXP DUP2 SLOAD SWAP1 PUSH20 0xFFFFFFFFFFFFFFFFFFFFFFFFFFFFFFFFFFFFFFFF MUL NOT AND SWAP1 SSTORE PUSH1 0x3 DUP3 ADD PUSH1 0x0 PUSH2 0x2317 SWAP2 SWAP1 PUSH2 0x25DE JUMP JUMPDEST PUSH1 0x4 DUP3 ADD PUSH1 0x0 PUSH2 0x2327 SWAP2 SWAP1 PUSH2 0x25DE JUMP JUMPDEST PUSH1 0x5 DUP3 ADD PUSH1 0x0 PUSH2 0x2337 SWAP2 SWAP1 PUSH2 0x25DE JUMP JUMPDEST PUSH1 0x6 DUP3 ADD PUSH1 0x0 PUSH2 0x2347 SWAP2 SWAP1 PUSH2 0x25DE JUMP JUMPDEST PUSH1 0x7 DUP3 ADD PUSH1 0x0 SWAP1 SSTORE POP POP PUSH1 0x8 DUP3 ADD PUSH1 0x0 DUP1 DUP3 ADD PUSH1 0x0 PUSH2 0x2366 SWAP2 SWAP1 PUSH2 0x25DE JUMP JUMPDEST PUSH1 0x1 DUP3 ADD PUSH1 0x0 PUSH2 0x2376 SWAP2 SWAP1 PUSH2 0x25DE JUMP JUMPDEST PUSH1 0x2 DUP3 ADD PUSH1 0x0 PUSH2 0x2386 SWAP2 SWAP1 PUSH2 0x25DE JUMP JUMPDEST PUSH1 0x3 DUP3 ADD PUSH1 0x0 PUSH2 0x2396 SWAP2 SWAP1 PUSH2 0x25DE JUMP JUMPDEST PUSH1 0x4 DUP3 ADD PUSH1 0x0 PUSH2 0x23A6 SWAP2 SWAP1 PUSH2 0x25DE JUMP JUMPDEST PUSH1 0x5 DUP3 ADD PUSH1 0x0 PUSH2 0x23B6 SWAP2 SWAP1 PUSH2 0x25DE JUMP JUMPDEST POP POP PUSH1 0xE DUP3 ADD PUSH1 0x0 DUP1 DUP3 ADD PUSH1 0x0 PUSH2 0x23CD SWAP2 SWAP1 PUSH2 0x24A8 JUMP JUMPDEST PUSH1 0x1 DUP3 ADD PUSH1 0x0 PUSH2 0x23DD SWAP2 SWAP1 PUSH2 0x24A8 JUMP JUMPDEST PUSH1 0x2 DUP3 ADD PUSH1 0x0 PUSH2 0x23ED SWAP2 SWAP1 PUSH2 0x24A8 JUMP JUMPDEST POP POP PUSH1 0x11 DUP3 ADD PUSH1 0x0 PUSH2 0x23FF SWAP2 SWAP1 PUSH2 0x261E JUMP JUMPDEST PUSH1 0x12 DUP3 ADD PUSH1 0x0 DUP1 DUP3 ADD PUSH1 0x0 PUSH2 0x2414 SWAP2 SWAP1 PUSH2 0x24A8 JUMP JUMPDEST PUSH1 0x1 DUP3 ADD PUSH1 0x0 PUSH2 0x2424 SWAP2 SWAP1 PUSH2 0x24A8 JUMP JUMPDEST POP POP PUSH1 0x14 DUP3 ADD PUSH1 0x0 DUP1 DUP3 ADD PUSH1 0x0 PUSH2 0x243B SWAP2 SWAP1 PUSH2 0x25DE JUMP JUMPDEST PUSH1 0x1 DUP3 ADD PUSH1 0x0 PUSH2 0x244B SWAP2 SWAP1 PUSH2 0x25DE JUMP JUMPDEST PUSH1 0x2 DUP3 ADD PUSH1 0x0 PUSH2 0x245B SWAP2 SWAP1 PUSH2 0x25DE JUMP JUMPDEST PUSH1 0x3 DUP3 ADD PUSH1 0x0 PUSH2 0x246B SWAP2 SWAP1 PUSH2 0x25DE JUMP JUMPDEST PUSH1 0x4 DUP3 ADD PUSH1 0x0 PUSH2 0x247B SWAP2 SWAP1 PUSH2 0x24A8 JUMP JUMPDEST POP POP PUSH1 0x19 DUP3 ADD PUSH1 0x0 DUP1 DUP3 ADD PUSH1 0x0 PUSH2 0x2492 SWAP2 SWAP1 PUSH2 0x25DE JUMP JUMPDEST PUSH1 0x1 DUP3 ADD PUSH1 0x0 PUSH2 0x24A2 SWAP2 SWAP1 PUSH2 0x25DE JUMP JUMPDEST POP POP POP POP JUMP JUMPDEST POP DUP1 SLOAD PUSH1 0x0 DUP3 SSTORE SWAP1 PUSH1 0x0 MSTORE PUSH1 0x20 PUSH1 0x0 KECCAK256 SWAP1 DUP2 ADD SWAP1 PUSH2 0x24C6 SWAP2 SWAP1 PUSH2 0x2642 JUMP JUMPDEST POP JUMP JUMPDEST DUP3 DUP1 SLOAD DUP3 DUP3 SSTORE SWAP1 PUSH1 0x0 MSTORE PUSH1 0x20 PUSH1 0x0 KECCAK256 SWAP1 DUP2 ADD SWAP3 DUP3 ISZERO PUSH2 0x2518 JUMPI SWAP2 PUSH1 0x20 MUL DUP3 ADD JUMPDEST DUP3 DUP2 GT ISZERO PUSH2 0x2517 JUMPI DUP3 MLOAD DUP3 SWAP1 DUP1 MLOAD SWAP1 PUSH1 0x20 ADD SWAP1 PUSH2 0x2507 SWAP3 SWAP2 SWAP1 PUSH2 0x2558 JUMP JUMPDEST POP SWAP2 PUSH1 0x20 ADD SWAP2 SWAP1 PUSH1 0x1 ADD SWAP1 PUSH2 0x24E9 JUMP JUMPDEST JUMPDEST POP SWAP1 POP PUSH2 0x2525 SWAP2 SWAP1 PUSH2 0x2642 JUMP JUMPDEST POP SWAP1 JUMP JUMPDEST PUSH1 0x40 MLOAD DUP1 PUSH1 0xA0 ADD PUSH1 0x40 MSTORE DUP1 PUSH1 0x60 DUP2 MSTORE PUSH1 0x20 ADD PUSH1 0x60 DUP2 MSTORE PUSH1 0x20 ADD PUSH1 0x60 DUP2 MSTORE PUSH1 0x20 ADD PUSH1 0x60 DUP2 MSTORE PUSH1 0x20 ADD PUSH1 0x60 DUP2 MSTORE POP SWAP1 JUMP JUMPDEST DUP3 DUP1 SLOAD PUSH2 0x2564 SWAP1 PUSH2 0x3296 JUMP JUMPDEST SWAP1 PUSH1 0x0 MSTORE PUSH1 0x20 PUSH1 0x0 KECCAK256 SWAP1 PUSH1 0x1F ADD PUSH1 0x20 SWAP1 DIV DUP2 ADD SWAP3 DUP3 PUSH2 0x2586 JUMPI PUSH1 0x0 DUP6 SSTORE PUSH2 0x25CD JUMP JUMPDEST DUP3 PUSH1 0x1F LT PUSH2 0x259F JUMPI DUP1 MLOAD PUSH1 0xFF NOT AND DUP4 DUP1 ADD OR DUP6 SSTORE PUSH2 0x25CD JUMP JUMPDEST DUP3 DUP1 ADD PUSH1 0x1 ADD DUP6 SSTORE DUP3 ISZERO PUSH2 0x25CD JUMPI SWAP2 DUP3 ADD JUMPDEST DUP3 DUP2 GT ISZERO PUSH2 0x25CC JUMPI DUP3 MLOAD DUP3 SSTORE SWAP2 PUSH1 0x20 ADD SWAP2 SWAP1 PUSH1 0x1 ADD SWAP1 PUSH2 0x25B1 JUMP JUMPDEST JUMPDEST POP SWAP1 POP PUSH2 0x25DA SWAP2 SWAP1 PUSH2 0x2666 JUMP JUMPDEST POP SWAP1 JUMP JUMPDEST POP DUP1 SLOAD PUSH2 0x25EA SWAP1 PUSH2 0x3296 JUMP JUMPDEST PUSH1 0x0 DUP3 SSTORE DUP1 PUSH1 0x1F LT PUSH2 0x25FC JUMPI POP PUSH2 0x261B JUMP JUMPDEST PUSH1 0x1F ADD PUSH1 0x20 SWAP1 DIV SWAP1 PUSH1 0x0 MSTORE PUSH1 0x20 PUSH1 0x0 KECCAK256 SWAP1 DUP2 ADD SWAP1 PUSH2 0x261A SWAP2 SWAP1 PUSH2 0x2666 JUMP JUMPDEST JUMPDEST POP JUMP JUMPDEST POP DUP1 SLOAD PUSH1 0x0 DUP3 SSTORE PUSH1 0x5 MUL SWAP1 PUSH1 0x0 MSTORE PUSH1 0x20 PUSH1 0x0 KECCAK256 SWAP1 DUP2 ADD SWAP1 PUSH2 0x263F SWAP2 SWAP1 PUSH2 0x2683 JUMP JUMPDEST POP JUMP JUMPDEST JUMPDEST DUP1 DUP3 GT ISZERO PUSH2 0x2662 JUMPI PUSH1 0x0 DUP2 DUP2 PUSH2 0x2659 SWAP2 SWAP1 PUSH2 0x25DE JUMP JUMPDEST POP PUSH1 0x1 ADD PUSH2 0x2643 JUMP JUMPDEST POP SWAP1 JUMP JUMPDEST JUMPDEST DUP1 DUP3 GT ISZERO PUSH2 0x267F JUMPI PUSH1 0x0 DUP2 PUSH1 0x0 SWAP1 SSTORE POP PUSH1 0x1 ADD PUSH2 0x2667 JUMP JUMPDEST POP SWAP1 JUMP JUMPDEST JUMPDEST DUP1 DUP3 GT ISZERO PUSH2 0x26E6 JUMPI PUSH1 0x0 DUP1 DUP3 ADD PUSH1 0x0 PUSH2 0x269D SWAP2 SWAP1 PUSH2 0x25DE JUMP JUMPDEST PUSH1 0x1 DUP3 ADD PUSH1 0x0 PUSH2 0x26AD SWAP2 SWAP1 PUSH2 0x25DE JUMP JUMPDEST PUSH1 0x2 DUP3 ADD PUSH1 0x0 PUSH2 0x26BD SWAP2 SWAP1 PUSH2 0x25DE JUMP JUMPDEST PUSH1 0x3 DUP3 ADD PUSH1 0x0 PUSH2 0x26CD SWAP2 SWAP1 PUSH2 0x25DE JUMP JUMPDEST PUSH1 0x4 DUP3 ADD PUSH1 0x0 PUSH2 0x26DD SWAP2 SWAP1 PUSH2 0x25DE JUMP JUMPDEST POP PUSH1 0x5 ADD PUSH2 0x2684 JUMP JUMPDEST POP SWAP1 JUMP JUMPDEST PUSH1 0x0 PUSH2 0x26FD PUSH2 0x26F8 DUP5 PUSH2 0x3155 JUMP JUMPDEST PUSH2 0x3130 JUMP JUMPDEST SWAP1 POP DUP1 DUP4 DUP3 MSTORE PUSH1 0x20 DUP3 ADD SWAP1 POP DUP3 DUP6 PUSH1 0x20 DUP7 MUL DUP3 ADD GT ISZERO PUSH2 0x2720 JUMPI PUSH2 0x271F PUSH2 0x338B JUMP JUMPDEST JUMPDEST PUSH1 0x0 JUMPDEST DUP6 DUP2 LT ISZERO PUSH2 0x276E JUMPI DUP2 CALLDATALOAD PUSH8 0xFFFFFFFFFFFFFFFF DUP2 GT ISZERO PUSH2 0x2746 JUMPI PUSH2 0x2745 PUSH2 0x3386 JUMP JUMPDEST JUMPDEST DUP1 DUP7 ADD PUSH2 0x2753 DUP10 DUP3 PUSH2 0x27FD JUMP JUMPDEST DUP6 MSTORE PUSH1 0x20 DUP6 ADD SWAP5 POP PUSH1 0x20 DUP5 ADD SWAP4 POP POP POP PUSH1 0x1 DUP2 ADD SWAP1 POP PUSH2 0x2723 JUMP JUMPDEST POP POP POP SWAP4 SWAP3 POP POP POP JUMP JUMPDEST PUSH1 0x0 PUSH2 0x278B PUSH2 0x2786 DUP5 PUSH2 0x3181 JUMP JUMPDEST PUSH2 0x3130 JUMP JUMPDEST SWAP1 POP DUP3 DUP2 MSTORE PUSH1 0x20 DUP2 ADD DUP5 DUP5 DUP5 ADD GT ISZERO PUSH2 0x27A7 JUMPI PUSH2 0x27A6 PUSH2 0x3390 JUMP JUMPDEST JUMPDEST PUSH2 0x27B2 DUP5 DUP3 DUP6 PUSH2 0x3254 JUMP JUMPDEST POP SWAP4 SWAP3 POP POP POP JUMP JUMPDEST PUSH1 0x0 DUP2 CALLDATALOAD SWAP1 POP PUSH2 0x27C9 DUP2 PUSH2 0x33B0 JUMP JUMPDEST SWAP3 SWAP2 POP POP JUMP JUMPDEST PUSH1 0x0 DUP3 PUSH1 0x1F DUP4 ADD SLT PUSH2 0x27E4 JUMPI PUSH2 0x27E3 PUSH2 0x3386 JUMP JUMPDEST JUMPDEST DUP2 CALLDATALOAD PUSH2 0x27F4 DUP5 DUP3 PUSH1 0x20 DUP7 ADD PUSH2 0x26EA JUMP JUMPDEST SWAP2 POP POP SWAP3 SWAP2 POP POP JUMP JUMPDEST PUSH1 0x0 DUP3 PUSH1 0x1F DUP4 ADD SLT PUSH2 0x2812 JUMPI PUSH2 0x2811 PUSH2 0x3386 JUMP JUMPDEST JUMPDEST DUP2 CALLDATALOAD PUSH2 0x2822 DUP5 DUP3 PUSH1 0x20 DUP7 ADD PUSH2 0x2778 JUMP JUMPDEST SWAP2 POP POP SWAP3 SWAP2 POP POP JUMP JUMPDEST PUSH1 0x0 DUP2 CALLDATALOAD SWAP1 POP PUSH2 0x283A DUP2 PUSH2 0x33C7 JUMP JUMPDEST SWAP3 SWAP2 POP POP JUMP JUMPDEST PUSH1 0x0 PUSH1 0x20 DUP3 DUP5 SUB SLT ISZERO PUSH2 0x2856 JUMPI PUSH2 0x2855 PUSH2 0x339A JUMP JUMPDEST JUMPDEST PUSH1 0x0 PUSH2 0x2864 DUP5 DUP3 DUP6 ADD PUSH2 0x27BA JUMP JUMPDEST SWAP2 POP POP SWAP3 SWAP2 POP POP JUMP JUMPDEST PUSH1 0x0 DUP1 PUSH1 0x40 DUP4 DUP6 SUB SLT ISZERO PUSH2 0x2884 JUMPI PUSH2 0x2883 PUSH2 0x339A JUMP JUMPDEST JUMPDEST PUSH1 0x0 DUP4 ADD CALLDATALOAD PUSH8 0xFFFFFFFFFFFFFFFF DUP2 GT ISZERO PUSH2 0x28A2 JUMPI PUSH2 0x28A1 PUSH2 0x3395 JUMP JUMPDEST JUMPDEST PUSH2 0x28AE DUP6 DUP3 DUP7 ADD PUSH2 0x27CF JUMP JUMPDEST SWAP3 POP POP PUSH1 0x20 DUP4 ADD CALLDATALOAD PUSH8 0xFFFFFFFFFFFFFFFF DUP2 GT ISZERO PUSH2 0x28CF JUMPI PUSH2 0x28CE PUSH2 0x3395 JUMP JUMPDEST JUMPDEST PUSH2 0x28DB DUP6 DUP3 DUP7 ADD PUSH2 0x27CF JUMP JUMPDEST SWAP2 POP POP SWAP3 POP SWAP3 SWAP1 POP JUMP JUMPDEST PUSH1 0x0 DUP1 PUSH1 0x0 PUSH1 0x60 DUP5 DUP7 SUB SLT ISZERO PUSH2 0x28FE JUMPI PUSH2 0x28FD PUSH2 0x339A JUMP JUMPDEST JUMPDEST PUSH1 0x0 DUP5 ADD CALLDATALOAD PUSH8 0xFFFFFFFFFFFFFFFF DUP2 GT ISZERO PUSH2 0x291C JUMPI PUSH2 0x291B PUSH2 0x3395 JUMP JUMPDEST JUMPDEST PUSH2 0x2928 DUP7 DUP3 DUP8 ADD PUSH2 0x27CF JUMP JUMPDEST SWAP4 POP POP PUSH1 0x20 DUP5 ADD CALLDATALOAD PUSH8 0xFFFFFFFFFFFFFFFF DUP2 GT ISZERO PUSH2 0x2949 JUMPI PUSH2 0x2948 PUSH2 0x3395 JUMP JUMPDEST JUMPDEST PUSH2 0x2955 DUP7 DUP3 DUP8 ADD PUSH2 0x27CF JUMP JUMPDEST SWAP3 POP POP PUSH1 0x40 DUP5 ADD CALLDATALOAD PUSH8 0xFFFFFFFFFFFFFFFF DUP2 GT ISZERO PUSH2 0x2976 JUMPI PUSH2 0x2975 PUSH2 0x3395 JUMP JUMPDEST JUMPDEST PUSH2 0x2982 DUP7 DUP3 DUP8 ADD PUSH2 0x27CF JUMP JUMPDEST SWAP2 POP POP SWAP3 POP SWAP3 POP SWAP3 JUMP JUMPDEST PUSH1 0x0 DUP1 PUSH1 0x0 DUP1 PUSH1 0x0 PUSH1 0xA0 DUP7 DUP9 SUB SLT ISZERO PUSH2 0x29A8 JUMPI PUSH2 0x29A7 PUSH2 0x339A JUMP JUMPDEST JUMPDEST PUSH1 0x0 DUP7 ADD CALLDATALOAD PUSH8 0xFFFFFFFFFFFFFFFF DUP2 GT ISZERO PUSH2 0x29C6 JUMPI PUSH2 0x29C5 PUSH2 0x3395 JUMP JUMPDEST JUMPDEST PUSH2 0x29D2 DUP9 DUP3 DUP10 ADD PUSH2 0x27FD JUMP JUMPDEST SWAP6 POP POP PUSH1 0x20 DUP7 ADD CALLDATALOAD PUSH8 0xFFFFFFFFFFFFFFFF DUP2 GT ISZERO PUSH2 0x29F3 JUMPI PUSH2 0x29F2 PUSH2 0x3395 JUMP JUMPDEST JUMPDEST PUSH2 0x29FF DUP9 DUP3 DUP10 ADD PUSH2 0x27FD JUMP JUMPDEST SWAP5 POP POP PUSH1 0x40 DUP7 ADD CALLDATALOAD PUSH8 0xFFFFFFFFFFFFFFFF DUP2 GT ISZERO PUSH2 0x2A20 JUMPI PUSH2 0x2A1F PUSH2 0x3395 JUMP JUMPDEST JUMPDEST PUSH2 0x2A2C DUP9 DUP3 DUP10 ADD PUSH2 0x27FD JUMP JUMPDEST SWAP4 POP POP PUSH1 0x60 DUP7 ADD CALLDATALOAD PUSH8 0xFFFFFFFFFFFFFFFF DUP2 GT ISZERO PUSH2 0x2A4D JUMPI PUSH2 0x2A4C PUSH2 0x3395 JUMP JUMPDEST JUMPDEST PUSH2 0x2A59 DUP9 DUP3 DUP10 ADD PUSH2 0x27FD JUMP JUMPDEST SWAP3 POP POP PUSH1 0x80 DUP7 ADD CALLDATALOAD PUSH8 0xFFFFFFFFFFFFFFFF DUP2 GT ISZERO PUSH2 0x2A7A JUMPI PUSH2 0x2A79 PUSH2 0x3395 JUMP JUMPDEST JUMPDEST PUSH2 0x2A86 DUP9 DUP3 DUP10 ADD PUSH2 0x27FD JUMP JUMPDEST SWAP2 POP POP SWAP3 SWAP6 POP SWAP3 SWAP6 SWAP1 SWAP4 POP JUMP JUMPDEST PUSH1 0x0 DUP1 PUSH1 0x0 DUP1 PUSH1 0x0 DUP1 PUSH1 0xC0 DUP8 DUP10 SUB SLT ISZERO PUSH2 0x2AB0 JUMPI PUSH2 0x2AAF PUSH2 0x339A JUMP JUMPDEST JUMPDEST PUSH1 0x0 DUP8 ADD CALLDATALOAD PUSH8 0xFFFFFFFFFFFFFFFF DUP2 GT ISZERO PUSH2 0x2ACE JUMPI PUSH2 0x2ACD PUSH2 0x3395 JUMP JUMPDEST JUMPDEST PUSH2 0x2ADA DUP10 DUP3 DUP11 ADD PUSH2 0x27FD JUMP JUMPDEST SWAP7 POP POP PUSH1 0x20 DUP8 ADD CALLDATALOAD PUSH8 0xFFFFFFFFFFFFFFFF DUP2 GT ISZERO PUSH2 0x2AFB JUMPI PUSH2 0x2AFA PUSH2 0x3395 JUMP JUMPDEST JUMPDEST PUSH2 0x2B07 DUP10 DUP3 DUP11 ADD PUSH2 0x27FD JUMP JUMPDEST SWAP6 POP POP PUSH1 0x40 DUP8 ADD CALLDATALOAD PUSH8 0xFFFFFFFFFFFFFFFF DUP2 GT ISZERO PUSH2 0x2B28 JUMPI PUSH2 0x2B27 PUSH2 0x3395 JUMP JUMPDEST JUMPDEST PUSH2 0x2B34 DUP10 DUP3 DUP11 ADD PUSH2 0x27FD JUMP JUMPDEST SWAP5 POP POP PUSH1 0x60 DUP8 ADD CALLDATALOAD PUSH8 0xFFFFFFFFFFFFFFFF DUP2 GT ISZERO PUSH2 0x2B55 JUMPI PUSH2 0x2B54 PUSH2 0x3395 JUMP JUMPDEST JUMPDEST PUSH2 0x2B61 DUP10 DUP3 DUP11 ADD PUSH2 0x27FD JUMP JUMPDEST SWAP4 POP POP PUSH1 0x80 DUP8 ADD CALLDATALOAD PUSH8 0xFFFFFFFFFFFFFFFF DUP2 GT ISZERO PUSH2 0x2B82 JUMPI PUSH2 0x2B81 PUSH2 0x3395 JUMP JUMPDEST JUMPDEST PUSH2 0x2B8E DUP10 DUP3 DUP11 ADD PUSH2 0x27FD JUMP JUMPDEST SWAP3 POP POP PUSH1 0xA0 DUP8 ADD CALLDATALOAD PUSH8 0xFFFFFFFFFFFFFFFF DUP2 GT ISZERO PUSH2 0x2BAF JUMPI PUSH2 0x2BAE PUSH2 0x3395 JUMP JUMPDEST JUMPDEST PUSH2 0x2BBB DUP10 DUP3 DUP11 ADD PUSH2 0x27FD JUMP JUMPDEST SWAP2 POP POP SWAP3 SWAP6 POP SWAP3 SWAP6 POP SWAP3 SWAP6 JUMP JUMPDEST PUSH1 0x0 PUSH1 0x20 DUP3 DUP5 SUB SLT ISZERO PUSH2 0x2BDE JUMPI PUSH2 0x2BDD PUSH2 0x339A JUMP JUMPDEST JUMPDEST PUSH1 0x0 PUSH2 0x2BEC DUP5 DUP3 DUP6 ADD PUSH2 0x282B JUMP JUMPDEST SWAP2 POP POP SWAP3 SWAP2 POP POP JUMP JUMPDEST PUSH1 0x0 PUSH2 0x2C01 DUP4 DUP4 PUSH2 0x2C8D JUMP JUMPDEST SWAP1 POP SWAP3 SWAP2 POP POP JUMP JUMPDEST PUSH2 0x2C12 DUP2 PUSH2 0x3218 JUMP JUMPDEST DUP3 MSTORE POP POP JUMP JUMPDEST PUSH1 0x0 PUSH2 0x2C23 DUP3 PUSH2 0x31C2 JUMP JUMPDEST PUSH2 0x2C2D DUP2 DUP6 PUSH2 0x31E5 JUMP JUMPDEST SWAP4 POP DUP4 PUSH1 0x20 DUP3 MUL DUP6 ADD PUSH2 0x2C3F DUP6 PUSH2 0x31B2 JUMP JUMPDEST DUP1 PUSH1 0x0 JUMPDEST DUP6 DUP2 LT ISZERO PUSH2 0x2C7B JUMPI DUP5 DUP5 SUB DUP10 MSTORE DUP2 MLOAD PUSH2 0x2C5C DUP6 DUP3 PUSH2 0x2BF5 JUMP JUMPDEST SWAP5 POP PUSH2 0x2C67 DUP4 PUSH2 0x31D8 JUMP JUMPDEST SWAP3 POP PUSH1 0x20 DUP11 ADD SWAP10 POP POP PUSH1 0x1 DUP2 ADD SWAP1 POP PUSH2 0x2C43 JUMP JUMPDEST POP DUP3 SWAP8 POP DUP8 SWAP6 POP POP POP POP POP POP SWAP3 SWAP2 POP POP JUMP JUMPDEST PUSH1 0x0 PUSH2 0x2C98 DUP3 PUSH2 0x31CD JUMP JUMPDEST PUSH2 0x2CA2 DUP2 DUP6 PUSH2 0x31F6 JUMP JUMPDEST SWAP4 POP PUSH2 0x2CB2 DUP2 DUP6 PUSH1 0x20 DUP7 ADD PUSH2 0x3263 JUMP JUMPDEST PUSH2 0x2CBB DUP2 PUSH2 0x339F JUMP JUMPDEST DUP5 ADD SWAP2 POP POP SWAP3 SWAP2 POP POP JUMP JUMPDEST PUSH1 0x0 PUSH2 0x2CD1 DUP3 PUSH2 0x31CD JUMP JUMPDEST PUSH2 0x2CDB DUP2 DUP6 PUSH2 0x3207 JUMP JUMPDEST SWAP4 POP PUSH2 0x2CEB DUP2 DUP6 PUSH1 0x20 DUP7 ADD PUSH2 0x3263 JUMP JUMPDEST PUSH2 0x2CF4 DUP2 PUSH2 0x339F JUMP JUMPDEST DUP5 ADD SWAP2 POP POP SWAP3 SWAP2 POP POP JUMP JUMPDEST PUSH1 0x0 PUSH1 0x40 DUP4 ADD PUSH1 0x0 DUP4 ADD MLOAD DUP5 DUP3 SUB PUSH1 0x0 DUP7 ADD MSTORE PUSH2 0x2D1C DUP3 DUP3 PUSH2 0x2C18 JUMP JUMPDEST SWAP2 POP POP PUSH1 0x20 DUP4 ADD MLOAD DUP5 DUP3 SUB PUSH1 0x20 DUP7 ADD MSTORE PUSH2 0x2D36 DUP3 DUP3 PUSH2 0x2C18 JUMP JUMPDEST SWAP2 POP POP DUP1 SWAP2 POP POP SWAP3 SWAP2 POP POP JUMP JUMPDEST PUSH1 0x0 PUSH1 0xA0 DUP4 ADD PUSH1 0x0 DUP4 ADD MLOAD DUP5 DUP3 SUB PUSH1 0x0 DUP7 ADD MSTORE PUSH2 0x2D60 DUP3 DUP3 PUSH2 0x2C8D JUMP JUMPDEST SWAP2 POP POP PUSH1 0x20 DUP4 ADD MLOAD DUP5 DUP3 SUB PUSH1 0x20 DUP7 ADD MSTORE PUSH2 0x2D7A DUP3 DUP3 PUSH2 0x2C8D JUMP JUMPDEST SWAP2 POP POP PUSH1 0x40 DUP4 ADD MLOAD DUP5 DUP3 SUB PUSH1 0x40 DUP7 ADD MSTORE PUSH2 0x2D94 DUP3 DUP3 PUSH2 0x2C8D JUMP JUMPDEST SWAP2 POP POP PUSH1 0x60 DUP4 ADD MLOAD DUP5 DUP3 SUB PUSH1 0x60 DUP7 ADD MSTORE PUSH2 0x2DAE DUP3 DUP3 PUSH2 0x2C8D JUMP JUMPDEST SWAP2 POP POP PUSH1 0x80 DUP4 ADD MLOAD DUP5 DUP3 SUB PUSH1 0x80 DUP7 ADD MSTORE PUSH2 0x2DC8 DUP3 DUP3 PUSH2 0x2C18 JUMP JUMPDEST SWAP2 POP POP DUP1 SWAP2 POP POP SWAP3 SWAP2 POP POP JUMP JUMPDEST PUSH1 0x0 PUSH1 0xC0 DUP4 ADD PUSH1 0x0 DUP4 ADD MLOAD DUP5 DUP3 SUB PUSH1 0x0 DUP7 ADD MSTORE PUSH2 0x2DF2 DUP3 DUP3 PUSH2 0x2C8D JUMP JUMPDEST SWAP2 POP POP PUSH1 0x20 DUP4 ADD MLOAD DUP5 DUP3 SUB PUSH1 0x20 DUP7 ADD MSTORE PUSH2 0x2E0C DUP3 DUP3 PUSH2 0x2C8D JUMP JUMPDEST SWAP2 POP POP PUSH1 0x40 DUP4 ADD MLOAD DUP5 DUP3 SUB PUSH1 0x40 DUP7 ADD MSTORE PUSH2 0x2E26 DUP3 DUP3 PUSH2 0x2C8D JUMP JUMPDEST SWAP2 POP POP PUSH1 0x60 DUP4 ADD MLOAD DUP5 DUP3 SUB PUSH1 0x60 DUP7 ADD MSTORE PUSH2 0x2E40 DUP3 DUP3 PUSH2 0x2C8D JUMP JUMPDEST SWAP2 POP POP PUSH1 0x80 DUP4 ADD MLOAD DUP5 DUP3 SUB PUSH1 0x80 DUP7 ADD MSTORE PUSH2 0x2E5A DUP3 DUP3 PUSH2 0x2C8D JUMP JUMPDEST SWAP2 POP POP PUSH1 0xA0 DUP4 ADD MLOAD DUP5 DUP3 SUB PUSH1 0xA0 DUP7 ADD MSTORE PUSH2 0x2E74 DUP3 DUP3 PUSH2 0x2C8D JUMP JUMPDEST SWAP2 POP POP DUP1 SWAP2 POP POP SWAP3 SWAP2 POP POP JUMP JUMPDEST PUSH1 0x0 PUSH1 0x40 DUP4 ADD PUSH1 0x0 DUP4 ADD MLOAD DUP5 DUP3 SUB PUSH1 0x0 DUP7 ADD MSTORE PUSH2 0x2E9E DUP3 DUP3 PUSH2 0x2C8D JUMP JUMPDEST SWAP2 POP POP PUSH1 0x20 DUP4 ADD MLOAD DUP5 DUP3 SUB PUSH1 0x20 DUP7 ADD MSTORE PUSH2 0x2EB8 DUP3 DUP3 PUSH2 0x2C8D JUMP JUMPDEST SWAP2 POP POP DUP1 SWAP2 POP POP SWAP3 SWAP2 POP POP JUMP JUMPDEST PUSH1 0x0 PUSH2 0x100 DUP4 ADD PUSH1 0x0 DUP4 ADD MLOAD DUP5 DUP3 SUB PUSH1 0x0 DUP7 ADD MSTORE PUSH2 0x2EE3 DUP3 DUP3 PUSH2 0x2C8D JUMP JUMPDEST SWAP2 POP POP PUSH1 0x20 DUP4 ADD MLOAD DUP5 DUP3 SUB PUSH1 0x20 DUP7 ADD MSTORE PUSH2 0x2EFD DUP3 DUP3 PUSH2 0x2C8D JUMP JUMPDEST SWAP2 POP POP PUSH1 0x40 DUP4 ADD MLOAD PUSH2 0x2F12 PUSH1 0x40 DUP7 ADD DUP3 PUSH2 0x2C09 JUMP JUMPDEST POP PUSH1 0x60 DUP4 ADD MLOAD DUP5 DUP3 SUB PUSH1 0x60 DUP7 ADD MSTORE PUSH2 0x2F2A DUP3 DUP3 PUSH2 0x2C8D JUMP JUMPDEST SWAP2 POP POP PUSH1 0x80 DUP4 ADD MLOAD DUP5 DUP3 SUB PUSH1 0x80 DUP7 ADD MSTORE PUSH2 0x2F44 DUP3 DUP3 PUSH2 0x2C8D JUMP JUMPDEST SWAP2 POP POP PUSH1 0xA0 DUP4 ADD MLOAD DUP5 DUP3 SUB PUSH1 0xA0 DUP7 ADD MSTORE PUSH2 0x2F5E DUP3 DUP3 PUSH2 0x2C8D JUMP JUMPDEST SWAP2 POP POP PUSH1 0xC0 DUP4 ADD MLOAD DUP5 DUP3 SUB PUSH1 0xC0 DUP7 ADD MSTORE PUSH2 0x2F78 DUP3 DUP3 PUSH2 0x2C8D JUMP JUMPDEST SWAP2 POP POP PUSH1 0xE0 DUP4 ADD MLOAD PUSH2 0x2F8D PUSH1 0xE0 DUP7 ADD DUP3 PUSH2 0x2FF6 JUMP JUMPDEST POP DUP1 SWAP2 POP POP SWAP3 SWAP2 POP POP JUMP JUMPDEST PUSH1 0x0 PUSH1 0x60 DUP4 ADD PUSH1 0x0 DUP4 ADD MLOAD DUP5 DUP3 SUB PUSH1 0x0 DUP7 ADD MSTORE PUSH2 0x2FB5 DUP3 DUP3 PUSH2 0x2C18 JUMP JUMPDEST SWAP2 POP POP PUSH1 0x20 DUP4 ADD MLOAD DUP5 DUP3 SUB PUSH1 0x20 DUP7 ADD MSTORE PUSH2 0x2FCF DUP3 DUP3 PUSH2 0x2C18 JUMP JUMPDEST SWAP2 POP POP PUSH1 0x40 DUP4 ADD MLOAD DUP5 DUP3 SUB PUSH1 0x40 DUP7 ADD MSTORE PUSH2 0x2FE9 DUP3 DUP3 PUSH2 0x2C18 JUMP JUMPDEST SWAP2 POP POP DUP1 SWAP2 POP POP SWAP3 SWAP2 POP POP JUMP JUMPDEST PUSH2 0x2FFF DUP2 PUSH2 0x324A JUMP JUMPDEST DUP3 MSTORE POP POP JUMP JUMPDEST PUSH2 0x300E DUP2 PUSH2 0x324A JUMP JUMPDEST DUP3 MSTORE POP POP JUMP JUMPDEST PUSH1 0x0 PUSH1 0xA0 DUP3 ADD SWAP1 POP DUP2 DUP2 SUB PUSH1 0x0 DUP4 ADD MSTORE PUSH2 0x302E DUP2 DUP9 PUSH2 0x2CC6 JUMP JUMPDEST SWAP1 POP DUP2 DUP2 SUB PUSH1 0x20 DUP4 ADD MSTORE PUSH2 0x3042 DUP2 DUP8 PUSH2 0x2CC6 JUMP JUMPDEST SWAP1 POP DUP2 DUP2 SUB PUSH1 0x40 DUP4 ADD MSTORE PUSH2 0x3056 DUP2 DUP7 PUSH2 0x2CC6 JUMP JUMPDEST SWAP1 POP DUP2 DUP2 SUB PUSH1 0x60 DUP4 ADD MSTORE PUSH2 0x306A DUP2 DUP6 PUSH2 0x2CC6 JUMP JUMPDEST SWAP1 POP DUP2 DUP2 SUB PUSH1 0x80 DUP4 ADD MSTORE PUSH2 0x307E DUP2 DUP5 PUSH2 0x2CC6 JUMP JUMPDEST SWAP1 POP SWAP7 SWAP6 POP POP POP POP POP POP JUMP JUMPDEST PUSH1 0x0 PUSH1 0xC0 DUP3 ADD SWAP1 POP DUP2 DUP2 SUB PUSH1 0x0 DUP4 ADD MSTORE PUSH2 0x30A4 DUP2 DUP10 PUSH2 0x2EC5 JUMP JUMPDEST SWAP1 POP DUP2 DUP2 SUB PUSH1 0x20 DUP4 ADD MSTORE PUSH2 0x30B8 DUP2 DUP9 PUSH2 0x2DD5 JUMP JUMPDEST SWAP1 POP DUP2 DUP2 SUB PUSH1 0x40 DUP4 ADD MSTORE PUSH2 0x30CC DUP2 DUP8 PUSH2 0x2F98 JUMP JUMPDEST SWAP1 POP DUP2 DUP2 SUB PUSH1 0x60 DUP4 ADD MSTORE PUSH2 0x30E0 DUP2 DUP7 PUSH2 0x2CFF JUMP JUMPDEST SWAP1 POP DUP2 DUP2 SUB PUSH1 0x80 DUP4 ADD MSTORE PUSH2 0x30F4 DUP2 DUP6 PUSH2 0x2D43 JUMP JUMPDEST SWAP1 POP DUP2 DUP2 SUB PUSH1 0xA0 DUP4 ADD MSTORE PUSH2 0x3108 DUP2 DUP5 PUSH2 0x2E81 JUMP JUMPDEST SWAP1 POP SWAP8 SWAP7 POP POP POP POP POP POP POP JUMP JUMPDEST PUSH1 0x0 PUSH1 0x20 DUP3 ADD SWAP1 POP PUSH2 0x312A PUSH1 0x0 DUP4 ADD DUP5 PUSH2 0x3005 JUMP JUMPDEST SWAP3 SWAP2 POP POP JUMP JUMPDEST PUSH1 0x0 PUSH2 0x313A PUSH2 0x314B JUMP JUMPDEST SWAP1 POP PUSH2 0x3146 DUP3 DUP3 PUSH2 0x32C8 JUMP JUMPDEST SWAP2 SWAP1 POP JUMP JUMPDEST PUSH1 0x0 PUSH1 0x40 MLOAD SWAP1 POP SWAP1 JUMP JUMPDEST PUSH1 0x0 PUSH8 0xFFFFFFFFFFFFFFFF DUP3 GT ISZERO PUSH2 0x3170 JUMPI PUSH2 0x316F PUSH2 0x3357 JUMP JUMPDEST JUMPDEST PUSH1 0x20 DUP3 MUL SWAP1 POP PUSH1 0x20 DUP2 ADD SWAP1 POP SWAP2 SWAP1 POP JUMP JUMPDEST PUSH1 0x0 PUSH8 0xFFFFFFFFFFFFFFFF DUP3 GT ISZERO PUSH2 0x319C JUMPI PUSH2 0x319B PUSH2 0x3357 JUMP JUMPDEST JUMPDEST PUSH2 0x31A5 DUP3 PUSH2 0x339F JUMP JUMPDEST SWAP1 POP PUSH1 0x20 DUP2 ADD SWAP1 POP SWAP2 SWAP1 POP JUMP JUMPDEST PUSH1 0x0 DUP2 SWAP1 POP PUSH1 0x20 DUP3 ADD SWAP1 POP SWAP2 SWAP1 POP JUMP JUMPDEST PUSH1 0x0 DUP2 MLOAD SWAP1 POP SWAP2 SWAP1 POP JUMP JUMPDEST PUSH1 0x0 DUP2 MLOAD SWAP1 POP SWAP2 SWAP1 POP JUMP JUMPDEST PUSH1 0x0 PUSH1 0x20 DUP3 ADD SWAP1 POP SWAP2 SWAP1 POP JUMP JUMPDEST PUSH1 0x0 DUP3 DUP3 MSTORE PUSH1 0x20 DUP3 ADD SWAP1 POP SWAP3 SWAP2 POP POP JUMP JUMPDEST PUSH1 0x0 DUP3 DUP3 MSTORE PUSH1 0x20 DUP3 ADD SWAP1 POP SWAP3 SWAP2 POP POP JUMP JUMPDEST PUSH1 0x0 DUP3 DUP3 MSTORE PUSH1 0x20 DUP3 ADD SWAP1 POP SWAP3 SWAP2 POP POP JUMP JUMPDEST PUSH1 0x0 PUSH2 0x3223 DUP3 PUSH2 0x322A JUMP JUMPDEST SWAP1 POP SWAP2 SWAP1 POP JUMP JUMPDEST PUSH1 0x0 PUSH20 0xFFFFFFFFFFFFFFFFFFFFFFFFFFFFFFFFFFFFFFFF DUP3 AND SWAP1 POP SWAP2 SWAP1 POP JUMP JUMPDEST PUSH1 0x0 DUP2 SWAP1 POP SWAP2 SWAP1 POP JUMP JUMPDEST DUP3 DUP2 DUP4 CALLDATACOPY PUSH1 0x0 DUP4 DUP4 ADD MSTORE POP POP POP JUMP JUMPDEST PUSH1 0x0 JUMPDEST DUP4 DUP2 LT ISZERO PUSH2 0x3281 JUMPI DUP1 DUP3 ADD MLOAD DUP2 DUP5 ADD MSTORE PUSH1 0x20 DUP2 ADD SWAP1 POP PUSH2 0x3266 JUMP JUMPDEST DUP4 DUP2 GT ISZERO PUSH2 0x3290 JUMPI PUSH1 0x0 DUP5 DUP5 ADD MSTORE JUMPDEST POP POP POP POP JUMP JUMPDEST PUSH1 0x0 PUSH1 0x2 DUP3 DIV SWAP1 POP PUSH1 0x1 DUP3 AND DUP1 PUSH2 0x32AE JUMPI PUSH1 0x7F DUP3 AND SWAP2 POP JUMPDEST PUSH1 0x20 DUP3 LT DUP2 EQ ISZERO PUSH2 0x32C2 JUMPI PUSH2 0x32C1 PUSH2 0x32F9 JUMP JUMPDEST JUMPDEST POP SWAP2 SWAP1 POP JUMP JUMPDEST PUSH2 0x32D1 DUP3 PUSH2 0x339F JUMP JUMPDEST DUP2 ADD DUP2 DUP2 LT PUSH8 0xFFFFFFFFFFFFFFFF DUP3 GT OR ISZERO PUSH2 0x32F0 JUMPI PUSH2 0x32EF PUSH2 0x3357 JUMP JUMPDEST JUMPDEST DUP1 PUSH1 0x40 MSTORE POP POP POP JUMP JUMPDEST PUSH32 0x4E487B7100000000000000000000000000000000000000000000000000000000 PUSH1 0x0 MSTORE PUSH1 0x22 PUSH1 0x4 MSTORE PUSH1 0x24 PUSH1 0x0 REVERT JUMPDEST PUSH32 0x4E487B7100000000000000000000000000000000000000000000000000000000 PUSH1 0x0 MSTORE PUSH1 0x32 PUSH1 0x4 MSTORE PUSH1 0x24 PUSH1 0x0 REVERT JUMPDEST PUSH32 0x4E487B7100000000000000000000000000000000000000000000000000000000 PUSH1 0x0 MSTORE PUSH1 0x41 PUSH1 0x4 MSTORE PUSH1 0x24 PUSH1 0x0 REVERT JUMPDEST PUSH1 0x0 DUP1 REVERT JUMPDEST PUSH1 0x0 DUP1 REVERT JUMPDEST PUSH1 0x0 DUP1 REVERT JUMPDEST PUSH1 0x0 DUP1 REVERT JUMPDEST PUSH1 0x0 DUP1 REVERT JUMPDEST PUSH1 0x0 PUSH1 0x1F NOT PUSH1 0x1F DUP4 ADD AND SWAP1 POP SWAP2 SWAP1 POP JUMP JUMPDEST PUSH2 0x33B9 DUP2 PUSH2 0x3218 JUMP JUMPDEST DUP2 EQ PUSH2 0x33C4 JUMPI PUSH1 0x0 DUP1 REVERT JUMPDEST POP JUMP JUMPDEST PUSH2 0x33D0 DUP2 PUSH2 0x324A JUMP JUMPDEST DUP2 EQ PUSH2 0x33DB JUMPI PUSH1 0x0 DUP1 REVERT JUMPDEST POP JUMP INVALID LOG2 PUSH5 0x6970667358 0x22 SLT KECCAK256 SWAP10 PUSH8 0x22C219303E2BB4A1 DUP14 DUP15 0xAF 0xAA 0x23 EXTCODEHASH 0xE5 AND LOG3 0xD2 0xAB 0x26 0xEB LOG2 PUSH10 0xB369A1DCC8041364736F PUSH13 0x63430008070033000000000000 "
				},
				"gasEstimates": {
					"creation": {
						"codeDepositCost": "2666400",
						"executionCost": "2892",
						"totalCost": "2669292"
					},
					"external": {
						"createAward(string[],string[])": "infinite",
						"createContract(string,string,string,string,string)": "infinite",
						"createFreelanceExperience(string[],string[])": "infinite",
						"createInformation(string,string,string,string,string,string)": "infinite",
						"createSkill(string[],string[],string[])": "infinite",
						"createUnivercity(string,string,string,string,string)": "infinite",
						"delAllEducation()": "infinite",
						"delCertificateAndAward()": "infinite",
						"delInformaion()": "infinite",
						"delProfile()": "infinite",
						"getEducation(uint256)": "infinite",
						"getEducationCount()": "2585",
						"profile(address)": "infinite"
					}
				},
				"methodIdentifiers": {
					"createAward(string[],string[])": "6c2cc774",
					"createContract(string,string,string,string,string)": "72828388",
					"createFreelanceExperience(string[],string[])": "c02abb9b",
					"createInformation(string,string,string,string,string,string)": "958791ae",
					"createSkill(string[],string[],string[])": "3d984d0e",
					"createUnivercity(string,string,string,string,string)": "66244dfb",
					"delAllEducation()": "ed2217ef",
					"delCertificateAndAward()": "4ed74067",
					"delInformaion()": "95ea3757",
					"delProfile()": "fabce08f",
					"getEducation(uint256)": "f96e32f8",
					"getEducationCount()": "6212fa02",
					"profile(address)": "9dd9d0fd"
				}
			},
			"storageLayout": {
				"storage": [
					{
						"astId": 29,
						"contract": "contracts/Profile.sol:Profile",
						"label": "profile",
						"offset": 0,
						"slot": "0",
						"type": "t_mapping(t_address,t_struct(Bio)24_storage)"
					}
				],
				"types": {
					"t_address": {
						"encoding": "inplace",
						"label": "address",
						"numberOfBytes": "20"
					},
					"t_array(t_string_storage)dyn_storage": {
						"base": "t_string_storage",
						"encoding": "dynamic_array",
						"label": "string[]",
						"numberOfBytes": "32"
					},
					"t_array(t_struct(Education)97_storage)dyn_storage": {
						"base": "t_struct(Education)97_storage",
						"encoding": "dynamic_array",
						"label": "struct Profile.Education[]",
						"numberOfBytes": "32"
					},
					"t_mapping(t_address,t_struct(Bio)24_storage)": {
						"encoding": "mapping",
						"key": "t_address",
						"label": "mapping(address => struct Profile.Bio)",
						"numberOfBytes": "32",
						"value": "t_struct(Bio)24_storage"
					},
					"t_string_storage": {
						"encoding": "bytes",
						"label": "string",
						"numberOfBytes": "32"
					},
					"t_struct(Bio)24_storage": {
						"encoding": "inplace",
						"label": "struct Profile.Bio",
						"members": [
							{
								"astId": 4,
								"contract": "contracts/Profile.sol:Profile",
								"label": "information",
								"offset": 0,
								"slot": "0",
								"type": "t_struct(Information)46_storage"
							},
							{
								"astId": 7,
								"contract": "contracts/Profile.sol:Profile",
								"label": "privateContract",
								"offset": 0,
								"slot": "8",
								"type": "t_struct(Contract)59_storage"
							},
							{
								"astId": 10,
								"contract": "contracts/Profile.sol:Profile",
								"label": "skill",
								"offset": 0,
								"slot": "14",
								"type": "t_struct(Skill)69_storage"
							},
							{
								"astId": 14,
								"contract": "contracts/Profile.sol:Profile",
								"label": "education",
								"offset": 0,
								"slot": "17",
								"type": "t_array(t_struct(Education)97_storage)dyn_storage"
							},
							{
								"astId": 17,
								"contract": "contracts/Profile.sol:Profile",
								"label": "certificateAndAward",
								"offset": 0,
								"slot": "18",
								"type": "t_struct(CertificateAndAward)104_storage"
							},
							{
								"astId": 20,
								"contract": "contracts/Profile.sol:Profile",
								"label": "companyExperience",
								"offset": 0,
								"slot": "20",
								"type": "t_struct(CompanyExperience)81_storage"
							},
							{
								"astId": 23,
								"contract": "contracts/Profile.sol:Profile",
								"label": "freelanceExperience",
								"offset": 0,
								"slot": "25",
								"type": "t_struct(FreelanceExperience)86_storage"
							}
						],
						"numberOfBytes": "864"
					},
					"t_struct(CertificateAndAward)104_storage": {
						"encoding": "inplace",
						"label": "struct Profile.CertificateAndAward",
						"members": [
							{
								"astId": 100,
								"contract": "contracts/Profile.sol:Profile",
								"label": "certificate",
								"offset": 0,
								"slot": "0",
								"type": "t_array(t_string_storage)dyn_storage"
							},
							{
								"astId": 103,
								"contract": "contracts/Profile.sol:Profile",
								"label": "award",
								"offset": 0,
								"slot": "1",
								"type": "t_array(t_string_storage)dyn_storage"
							}
						],
						"numberOfBytes": "64"
					},
					"t_struct(CompanyExperience)81_storage": {
						"encoding": "inplace",
						"label": "struct Profile.CompanyExperience",
						"members": [
							{
								"astId": 71,
								"contract": "contracts/Profile.sol:Profile",
								"label": "companyName",
								"offset": 0,
								"slot": "0",
								"type": "t_string_storage"
							},
							{
								"astId": 73,
								"contract": "contracts/Profile.sol:Profile",
								"label": "position",
								"offset": 0,
								"slot": "1",
								"type": "t_string_storage"
							},
							{
								"astId": 75,
								"contract": "contracts/Profile.sol:Profile",
								"label": "startDate",
								"offset": 0,
								"slot": "2",
								"type": "t_string_storage"
							},
							{
								"astId": 77,
								"contract": "contracts/Profile.sol:Profile",
								"label": "endDate",
								"offset": 0,
								"slot": "3",
								"type": "t_string_storage"
							},
							{
								"astId": 80,
								"contract": "contracts/Profile.sol:Profile",
								"label": "project",
								"offset": 0,
								"slot": "4",
								"type": "t_array(t_string_storage)dyn_storage"
							}
						],
						"numberOfBytes": "160"
					},
					"t_struct(Contract)59_storage": {
						"encoding": "inplace",
						"label": "struct Profile.Contract",
						"members": [
							{
								"astId": 48,
								"contract": "contracts/Profile.sol:Profile",
								"label": "aboutMe",
								"offset": 0,
								"slot": "0",
								"type": "t_string_storage"
							},
							{
								"astId": 50,
								"contract": "contracts/Profile.sol:Profile",
								"label": "email",
								"offset": 0,
								"slot": "1",
								"type": "t_string_storage"
							},
							{
								"astId": 52,
								"contract": "contracts/Profile.sol:Profile",
								"label": "phone",
								"offset": 0,
								"slot": "2",
								"type": "t_string_storage"
							},
							{
								"astId": 54,
								"contract": "contracts/Profile.sol:Profile",
								"label": "github",
								"offset": 0,
								"slot": "3",
								"type": "t_string_storage"
							},
							{
								"astId": 56,
								"contract": "contracts/Profile.sol:Profile",
								"label": "gitlab",
								"offset": 0,
								"slot": "4",
								"type": "t_string_storage"
							},
							{
								"astId": 58,
								"contract": "contracts/Profile.sol:Profile",
								"label": "linkin",
								"offset": 0,
								"slot": "5",
								"type": "t_string_storage"
							}
						],
						"numberOfBytes": "192"
					},
					"t_struct(Education)97_storage": {
						"encoding": "inplace",
						"label": "struct Profile.Education",
						"members": [
							{
								"astId": 88,
								"contract": "contracts/Profile.sol:Profile",
								"label": "startDate",
								"offset": 0,
								"slot": "0",
								"type": "t_string_storage"
							},
							{
								"astId": 90,
								"contract": "contracts/Profile.sol:Profile",
								"label": "endDate",
								"offset": 0,
								"slot": "1",
								"type": "t_string_storage"
							},
							{
								"astId": 92,
								"contract": "contracts/Profile.sol:Profile",
								"label": "univercity",
								"offset": 0,
								"slot": "2",
								"type": "t_string_storage"
							},
							{
								"astId": 94,
								"contract": "contracts/Profile.sol:Profile",
								"label": "major",
								"offset": 0,
								"slot": "3",
								"type": "t_string_storage"
							},
							{
								"astId": 96,
								"contract": "contracts/Profile.sol:Profile",
								"label": "finalProject",
								"offset": 0,
								"slot": "4",
								"type": "t_string_storage"
							}
						],
						"numberOfBytes": "160"
					},
					"t_struct(FreelanceExperience)86_storage": {
						"encoding": "inplace",
						"label": "struct Profile.FreelanceExperience",
						"members": [
							{
								"astId": 83,
								"contract": "contracts/Profile.sol:Profile",
								"label": "projectName",
								"offset": 0,
								"slot": "0",
								"type": "t_string_storage"
							},
							{
								"astId": 85,
								"contract": "contracts/Profile.sol:Profile",
								"label": "Detail",
								"offset": 0,
								"slot": "1",
								"type": "t_string_storage"
							}
						],
						"numberOfBytes": "64"
					},
					"t_struct(Information)46_storage": {
						"encoding": "inplace",
						"label": "struct Profile.Information",
						"members": [
							{
								"astId": 31,
								"contract": "contracts/Profile.sol:Profile",
								"label": "aboutMe",
								"offset": 0,
								"slot": "0",
								"type": "t_string_storage"
							},
							{
								"astId": 33,
								"contract": "contracts/Profile.sol:Profile",
								"label": "position",
								"offset": 0,
								"slot": "1",
								"type": "t_string_storage"
							},
							{
								"astId": 35,
								"contract": "contracts/Profile.sol:Profile",
								"label": "userAddress",
								"offset": 0,
								"slot": "2",
								"type": "t_address"
							},
							{
								"astId": 37,
								"contract": "contracts/Profile.sol:Profile",
								"label": "firstName",
								"offset": 0,
								"slot": "3",
								"type": "t_string_storage"
							},
							{
								"astId": 39,
								"contract": "contracts/Profile.sol:Profile",
								"label": "middleName",
								"offset": 0,
								"slot": "4",
								"type": "t_string_storage"
							},
							{
								"astId": 41,
								"contract": "contracts/Profile.sol:Profile",
								"label": "lastName",
								"offset": 0,
								"slot": "5",
								"type": "t_string_storage"
							},
							{
								"astId": 43,
								"contract": "contracts/Profile.sol:Profile",
								"label": "profileImage",
								"offset": 0,
								"slot": "6",
								"type": "t_string_storage"
							},
							{
								"astId": 45,
								"contract": "contracts/Profile.sol:Profile",
								"label": "createDate",
								"offset": 0,
								"slot": "7",
								"type": "t_uint256"
							}
						],
						"numberOfBytes": "256"
					},
					"t_struct(Skill)69_storage": {
						"encoding": "inplace",
						"label": "struct Profile.Skill",
						"members": [
							{
								"astId": 62,
								"contract": "contracts/Profile.sol:Profile",
								"label": "programmingLanguages",
								"offset": 0,
								"slot": "0",
								"type": "t_array(t_string_storage)dyn_storage"
							},
							{
								"astId": 65,
								"contract": "contracts/Profile.sol:Profile",
								"label": "framework",
								"offset": 0,
								"slot": "1",
								"type": "t_array(t_string_storage)dyn_storage"
							},
							{
								"astId": 68,
								"contract": "contracts/Profile.sol:Profile",
								"label": "databaseAndOther",
								"offset": 0,
								"slot": "2",
								"type": "t_array(t_string_storage)dyn_storage"
							}
						],
						"numberOfBytes": "96"
					},
					"t_uint256": {
						"encoding": "inplace",
						"label": "uint256",
						"numberOfBytes": "32"
					}
				}
			},
			"userdoc": {
				"kind": "user",
				"methods": {},
				"version": 1
			}
		}
	}
}