{
	"contracts/Profile.sol": {
		"Profile": {
			"abi": [
				{
					"inputs": [
						{
							"internalType": "string",
							"name": "firstName",
							"type": "string"
						},
						{
							"internalType": "string",
							"name": "middleName",
							"type": "string"
						},
						{
							"internalType": "string",
							"name": "lastName",
							"type": "string"
						},
						{
							"internalType": "string",
							"name": "profileImage",
							"type": "string"
						},
						{
							"internalType": "string",
							"name": "education",
							"type": "string"
						}
					],
					"name": "addBio",
					"outputs": [],
					"stateMutability": "nonpayable",
					"type": "function"
				},
				{
					"inputs": [
						{
							"internalType": "string",
							"name": "email",
							"type": "string"
						},
						{
							"internalType": "string",
							"name": "phone",
							"type": "string"
						},
						{
							"internalType": "string",
							"name": "github",
							"type": "string"
						},
						{
							"internalType": "string",
							"name": "gitlab",
							"type": "string"
						},
						{
							"internalType": "string",
							"name": "linkin",
							"type": "string"
						}
					],
					"name": "addContract",
					"outputs": [],
					"stateMutability": "nonpayable",
					"type": "function"
				},
				{
					"inputs": [
						{
							"internalType": "string[]",
							"name": "frontend",
							"type": "string[]"
						},
						{
							"internalType": "string[]",
							"name": "backend",
							"type": "string[]"
						},
						{
							"internalType": "string[]",
							"name": "framework",
							"type": "string[]"
						}
					],
					"name": "addSkill",
					"outputs": [],
					"stateMutability": "nonpayable",
					"type": "function"
				},
				{
					"inputs": [],
					"name": "delProfile",
					"outputs": [],
					"stateMutability": "nonpayable",
					"type": "function"
				},
				{
					"inputs": [
						{
							"internalType": "address",
							"name": "",
							"type": "address"
						}
					],
					"name": "profile",
					"outputs": [
						{
							"internalType": "address",
							"name": "userAddress",
							"type": "address"
						},
						{
							"internalType": "string",
							"name": "firstName",
							"type": "string"
						},
						{
							"internalType": "string",
							"name": "middleName",
							"type": "string"
						},
						{
							"internalType": "string",
							"name": "lastName",
							"type": "string"
						},
						{
							"internalType": "string",
							"name": "profileImage",
							"type": "string"
						},
						{
							"internalType": "uint256",
							"name": "createDate",
							"type": "uint256"
						},
						{
							"internalType": "string",
							"name": "education",
							"type": "string"
						},
						{
							"components": [
								{
									"internalType": "string",
									"name": "email",
									"type": "string"
								},
								{
									"internalType": "string",
									"name": "phone",
									"type": "string"
								},
								{
									"internalType": "string",
									"name": "github",
									"type": "string"
								},
								{
									"internalType": "string",
									"name": "gitlab",
									"type": "string"
								},
								{
									"internalType": "string",
									"name": "linkin",
									"type": "string"
								}
							],
							"internalType": "struct Profile.Contract",
							"name": "privateContract",
							"type": "tuple"
						},
						{
							"components": [
								{
									"internalType": "string[]",
									"name": "frontend",
									"type": "string[]"
								},
								{
									"internalType": "string[]",
									"name": "backend",
									"type": "string[]"
								},
								{
									"internalType": "string[]",
									"name": "framework",
									"type": "string[]"
								}
							],
							"internalType": "struct Profile.Skill",
							"name": "skill",
							"type": "tuple"
						}
					],
					"stateMutability": "view",
					"type": "function"
				}
			],
			"devdoc": {
				"kind": "dev",
				"methods": {},
				"version": 1
			},
			"evm": {
				"assembly": "    /* \"contracts/Profile.sol\":60:2212  contract Profile {\r... */\n  mstore(0x40, 0x80)\n  callvalue\n  dup1\n  iszero\n  tag_1\n  jumpi\n  0x00\n  dup1\n  revert\ntag_1:\n  pop\n  dataSize(sub_0)\n  dup1\n  dataOffset(sub_0)\n  0x00\n  codecopy\n  0x00\n  return\nstop\n\nsub_0: assembly {\n        /* \"contracts/Profile.sol\":60:2212  contract Profile {\r... */\n      mstore(0x40, 0x80)\n      callvalue\n      dup1\n      iszero\n      tag_1\n      jumpi\n      0x00\n      dup1\n      revert\n    tag_1:\n      pop\n      jumpi(tag_2, lt(calldatasize, 0x04))\n      shr(0xe0, calldataload(0x00))\n      dup1\n      0x3e0eb060\n      eq\n      tag_3\n      jumpi\n      dup1\n      0x91f2cb9d\n      eq\n      tag_4\n      jumpi\n      dup1\n      0x9dd9d0fd\n      eq\n      tag_5\n      jumpi\n      dup1\n      0xd52246d7\n      eq\n      tag_6\n      jumpi\n      dup1\n      0xfabce08f\n      eq\n      tag_7\n      jumpi\n    tag_2:\n      0x00\n      dup1\n      revert\n        /* \"contracts/Profile.sol\":747:1301  function addBio(string memory firstName, string memory middleName, string memory lastName,  string memory profileImage, string memory education) public {\r... */\n    tag_3:\n      tag_8\n      0x04\n      dup1\n      calldatasize\n      sub\n      dup2\n      add\n      swap1\n      tag_9\n      swap2\n      swap1\n      tag_10\n      jump\t// in\n    tag_9:\n      tag_11\n      jump\t// in\n    tag_8:\n      stop\n        /* \"contracts/Profile.sol\":1309:1755  function addContract(string memory email, string memory phone, string memory github, string memory gitlab, string memory linkin) public{\r... */\n    tag_4:\n      tag_12\n      0x04\n      dup1\n      calldatasize\n      sub\n      dup2\n      add\n      swap1\n      tag_13\n      swap2\n      swap1\n      tag_10\n      jump\t// in\n    tag_13:\n      tag_14\n      jump\t// in\n    tag_12:\n      stop\n        /* \"contracts/Profile.sol\":365:405  mapping (address => Bio) public  profile */\n    tag_5:\n      tag_15\n      0x04\n      dup1\n      calldatasize\n      sub\n      dup2\n      add\n      swap1\n      tag_16\n      swap2\n      swap1\n      tag_17\n      jump\t// in\n    tag_16:\n      tag_18\n      jump\t// in\n    tag_15:\n      mload(0x40)\n      tag_19\n      swap10\n      swap9\n      swap8\n      swap7\n      swap6\n      swap5\n      swap4\n      swap3\n      swap2\n      swap1\n      tag_20\n      jump\t// in\n    tag_19:\n      mload(0x40)\n      dup1\n      swap2\n      sub\n      swap1\n      return\n        /* \"contracts/Profile.sol\":1840:2118  function addSkill(string[] memory frontend, string[] memory backend, string[] memory framework) public{\r... */\n    tag_6:\n      tag_21\n      0x04\n      dup1\n      calldatasize\n      sub\n      dup2\n      add\n      swap1\n      tag_22\n      swap2\n      swap1\n      tag_23\n      jump\t// in\n    tag_22:\n      tag_24\n      jump\t// in\n    tag_21:\n      stop\n        /* \"contracts/Profile.sol\":2131:2205  function delProfile() public {\r... */\n    tag_7:\n      tag_25\n      tag_26\n      jump\t// in\n    tag_25:\n      stop\n        /* \"contracts/Profile.sol\":747:1301  function addBio(string memory firstName, string memory middleName, string memory lastName,  string memory profileImage, string memory education) public {\r... */\n    tag_11:\n        /* \"contracts/Profile.sol\":942:951  firstName */\n      dup5\n        /* \"contracts/Profile.sol\":910:917  profile */\n      0x00\n        /* \"contracts/Profile.sol\":910:929  profile[msg.sender] */\n      dup1\n        /* \"contracts/Profile.sol\":918:928  msg.sender */\n      caller\n        /* \"contracts/Profile.sol\":910:929  profile[msg.sender] */\n      0xffffffffffffffffffffffffffffffffffffffff\n      and\n      0xffffffffffffffffffffffffffffffffffffffff\n      and\n      dup2\n      mstore\n      0x20\n      add\n      swap1\n      dup2\n      mstore\n      0x20\n      add\n      0x00\n      keccak256\n        /* \"contracts/Profile.sol\":910:939  profile[msg.sender].firstName */\n      0x01\n      add\n        /* \"contracts/Profile.sol\":910:951  profile[msg.sender].firstName = firstName */\n      swap1\n      dup1\n      mload\n      swap1\n      0x20\n      add\n      swap1\n      tag_28\n      swap3\n      swap2\n      swap1\n      tag_29\n      jump\t// in\n    tag_28:\n      pop\n        /* \"contracts/Profile.sol\":995:1005  middleName */\n      dup4\n        /* \"contracts/Profile.sol\":962:969  profile */\n      0x00\n        /* \"contracts/Profile.sol\":962:981  profile[msg.sender] */\n      dup1\n        /* \"contracts/Profile.sol\":970:980  msg.sender */\n      caller\n        /* \"contracts/Profile.sol\":962:981  profile[msg.sender] */\n      0xffffffffffffffffffffffffffffffffffffffff\n      and\n      0xffffffffffffffffffffffffffffffffffffffff\n      and\n      dup2\n      mstore\n      0x20\n      add\n      swap1\n      dup2\n      mstore\n      0x20\n      add\n      0x00\n      keccak256\n        /* \"contracts/Profile.sol\":962:992  profile[msg.sender].middleName */\n      0x02\n      add\n        /* \"contracts/Profile.sol\":962:1005  profile[msg.sender].middleName = middleName */\n      swap1\n      dup1\n      mload\n      swap1\n      0x20\n      add\n      swap1\n      tag_30\n      swap3\n      swap2\n      swap1\n      tag_29\n      jump\t// in\n    tag_30:\n      pop\n        /* \"contracts/Profile.sol\":1047:1055  lastName */\n      dup3\n        /* \"contracts/Profile.sol\":1016:1023  profile */\n      0x00\n        /* \"contracts/Profile.sol\":1016:1035  profile[msg.sender] */\n      dup1\n        /* \"contracts/Profile.sol\":1024:1034  msg.sender */\n      caller\n        /* \"contracts/Profile.sol\":1016:1035  profile[msg.sender] */\n      0xffffffffffffffffffffffffffffffffffffffff\n      and\n      0xffffffffffffffffffffffffffffffffffffffff\n      and\n      dup2\n      mstore\n      0x20\n      add\n      swap1\n      dup2\n      mstore\n      0x20\n      add\n      0x00\n      keccak256\n        /* \"contracts/Profile.sol\":1016:1044  profile[msg.sender].lastName */\n      0x03\n      add\n        /* \"contracts/Profile.sol\":1016:1055  profile[msg.sender].lastName = lastName */\n      swap1\n      dup1\n      mload\n      swap1\n      0x20\n      add\n      swap1\n      tag_31\n      swap3\n      swap2\n      swap1\n      tag_29\n      jump\t// in\n    tag_31:\n      pop\n        /* \"contracts/Profile.sol\":1101:1113  profileImage */\n      dup2\n        /* \"contracts/Profile.sol\":1066:1073  profile */\n      0x00\n        /* \"contracts/Profile.sol\":1066:1085  profile[msg.sender] */\n      dup1\n        /* \"contracts/Profile.sol\":1074:1084  msg.sender */\n      caller\n        /* \"contracts/Profile.sol\":1066:1085  profile[msg.sender] */\n      0xffffffffffffffffffffffffffffffffffffffff\n      and\n      0xffffffffffffffffffffffffffffffffffffffff\n      and\n      dup2\n      mstore\n      0x20\n      add\n      swap1\n      dup2\n      mstore\n      0x20\n      add\n      0x00\n      keccak256\n        /* \"contracts/Profile.sol\":1066:1098  profile[msg.sender].profileImage */\n      0x04\n      add\n        /* \"contracts/Profile.sol\":1066:1113  profile[msg.sender].profileImage = profileImage */\n      swap1\n      dup1\n      mload\n      swap1\n      0x20\n      add\n      swap1\n      tag_32\n      swap3\n      swap2\n      swap1\n      tag_29\n      jump\t// in\n    tag_32:\n      pop\n        /* \"contracts/Profile.sol\":1157:1166  education */\n      dup1\n        /* \"contracts/Profile.sol\":1125:1132  profile */\n      0x00\n        /* \"contracts/Profile.sol\":1125:1144  profile[msg.sender] */\n      dup1\n        /* \"contracts/Profile.sol\":1133:1143  msg.sender */\n      caller\n        /* \"contracts/Profile.sol\":1125:1144  profile[msg.sender] */\n      0xffffffffffffffffffffffffffffffffffffffff\n      and\n      0xffffffffffffffffffffffffffffffffffffffff\n      and\n      dup2\n      mstore\n      0x20\n      add\n      swap1\n      dup2\n      mstore\n      0x20\n      add\n      0x00\n      keccak256\n        /* \"contracts/Profile.sol\":1125:1154  profile[msg.sender].education */\n      0x06\n      add\n        /* \"contracts/Profile.sol\":1125:1166  profile[msg.sender].education = education */\n      swap1\n      dup1\n      mload\n      swap1\n      0x20\n      add\n      swap1\n      tag_33\n      swap3\n      swap2\n      swap1\n      tag_29\n      jump\t// in\n    tag_33:\n      pop\n        /* \"contracts/Profile.sol\":1223:1233  msg.sender */\n      caller\n        /* \"contracts/Profile.sol\":1189:1196  profile */\n      0x00\n        /* \"contracts/Profile.sol\":1189:1208  profile[msg.sender] */\n      dup1\n        /* \"contracts/Profile.sol\":1197:1207  msg.sender */\n      caller\n        /* \"contracts/Profile.sol\":1189:1208  profile[msg.sender] */\n      0xffffffffffffffffffffffffffffffffffffffff\n      and\n      0xffffffffffffffffffffffffffffffffffffffff\n      and\n      dup2\n      mstore\n      0x20\n      add\n      swap1\n      dup2\n      mstore\n      0x20\n      add\n      0x00\n      keccak256\n        /* \"contracts/Profile.sol\":1189:1220  profile[msg.sender].userAddress */\n      0x00\n      add\n      0x00\n        /* \"contracts/Profile.sol\":1189:1233  profile[msg.sender].userAddress = msg.sender */\n      0x0100\n      exp\n      dup2\n      sload\n      dup2\n      0xffffffffffffffffffffffffffffffffffffffff\n      mul\n      not\n      and\n      swap1\n      dup4\n      0xffffffffffffffffffffffffffffffffffffffff\n      and\n      mul\n      or\n      swap1\n      sstore\n      pop\n        /* \"contracts/Profile.sol\":1278:1293  block.timestamp */\n      timestamp\n        /* \"contracts/Profile.sol\":1245:1252  profile */\n      0x00\n        /* \"contracts/Profile.sol\":1245:1264  profile[msg.sender] */\n      dup1\n        /* \"contracts/Profile.sol\":1253:1263  msg.sender */\n      caller\n        /* \"contracts/Profile.sol\":1245:1264  profile[msg.sender] */\n      0xffffffffffffffffffffffffffffffffffffffff\n      and\n      0xffffffffffffffffffffffffffffffffffffffff\n      and\n      dup2\n      mstore\n      0x20\n      add\n      swap1\n      dup2\n      mstore\n      0x20\n      add\n      0x00\n      keccak256\n        /* \"contracts/Profile.sol\":1245:1275  profile[msg.sender].createDate */\n      0x05\n      add\n        /* \"contracts/Profile.sol\":1245:1293  profile[msg.sender].createDate = block.timestamp */\n      dup2\n      swap1\n      sstore\n      pop\n        /* \"contracts/Profile.sol\":747:1301  function addBio(string memory firstName, string memory middleName, string memory lastName,  string memory profileImage, string memory education) public {\r... */\n      pop\n      pop\n      pop\n      pop\n      pop\n      jump\t// out\n        /* \"contracts/Profile.sol\":1309:1755  function addContract(string memory email, string memory phone, string memory github, string memory gitlab, string memory linkin) public{\r... */\n    tag_14:\n        /* \"contracts/Profile.sol\":1499:1504  email */\n      dup5\n        /* \"contracts/Profile.sol\":1455:1462  profile */\n      0x00\n        /* \"contracts/Profile.sol\":1455:1474  profile[msg.sender] */\n      dup1\n        /* \"contracts/Profile.sol\":1463:1473  msg.sender */\n      caller\n        /* \"contracts/Profile.sol\":1455:1474  profile[msg.sender] */\n      0xffffffffffffffffffffffffffffffffffffffff\n      and\n      0xffffffffffffffffffffffffffffffffffffffff\n      and\n      dup2\n      mstore\n      0x20\n      add\n      swap1\n      dup2\n      mstore\n      0x20\n      add\n      0x00\n      keccak256\n        /* \"contracts/Profile.sol\":1455:1490  profile[msg.sender].privateContract */\n      0x07\n      add\n        /* \"contracts/Profile.sol\":1455:1496  profile[msg.sender].privateContract.email */\n      0x00\n      add\n        /* \"contracts/Profile.sol\":1455:1504  profile[msg.sender].privateContract.email = email */\n      swap1\n      dup1\n      mload\n      swap1\n      0x20\n      add\n      swap1\n      tag_35\n      swap3\n      swap2\n      swap1\n      tag_29\n      jump\t// in\n    tag_35:\n      pop\n        /* \"contracts/Profile.sol\":1559:1564  phone */\n      dup4\n        /* \"contracts/Profile.sol\":1515:1522  profile */\n      0x00\n        /* \"contracts/Profile.sol\":1515:1534  profile[msg.sender] */\n      dup1\n        /* \"contracts/Profile.sol\":1523:1533  msg.sender */\n      caller\n        /* \"contracts/Profile.sol\":1515:1534  profile[msg.sender] */\n      0xffffffffffffffffffffffffffffffffffffffff\n      and\n      0xffffffffffffffffffffffffffffffffffffffff\n      and\n      dup2\n      mstore\n      0x20\n      add\n      swap1\n      dup2\n      mstore\n      0x20\n      add\n      0x00\n      keccak256\n        /* \"contracts/Profile.sol\":1515:1550  profile[msg.sender].privateContract */\n      0x07\n      add\n        /* \"contracts/Profile.sol\":1515:1556  profile[msg.sender].privateContract.phone */\n      0x01\n      add\n        /* \"contracts/Profile.sol\":1515:1564  profile[msg.sender].privateContract.phone = phone */\n      swap1\n      dup1\n      mload\n      swap1\n      0x20\n      add\n      swap1\n      tag_36\n      swap3\n      swap2\n      swap1\n      tag_29\n      jump\t// in\n    tag_36:\n      pop\n        /* \"contracts/Profile.sol\":1619:1625  github */\n      dup3\n        /* \"contracts/Profile.sol\":1575:1582  profile */\n      0x00\n        /* \"contracts/Profile.sol\":1575:1594  profile[msg.sender] */\n      dup1\n        /* \"contracts/Profile.sol\":1583:1593  msg.sender */\n      caller\n        /* \"contracts/Profile.sol\":1575:1594  profile[msg.sender] */\n      0xffffffffffffffffffffffffffffffffffffffff\n      and\n      0xffffffffffffffffffffffffffffffffffffffff\n      and\n      dup2\n      mstore\n      0x20\n      add\n      swap1\n      dup2\n      mstore\n      0x20\n      add\n      0x00\n      keccak256\n        /* \"contracts/Profile.sol\":1575:1610  profile[msg.sender].privateContract */\n      0x07\n      add\n        /* \"contracts/Profile.sol\":1575:1616  profile[msg.sender].privateContract.email */\n      0x00\n      add\n        /* \"contracts/Profile.sol\":1575:1625  profile[msg.sender].privateContract.email = github */\n      swap1\n      dup1\n      mload\n      swap1\n      0x20\n      add\n      swap1\n      tag_37\n      swap3\n      swap2\n      swap1\n      tag_29\n      jump\t// in\n    tag_37:\n      pop\n        /* \"contracts/Profile.sol\":1680:1686  gitlab */\n      dup2\n        /* \"contracts/Profile.sol\":1636:1643  profile */\n      0x00\n        /* \"contracts/Profile.sol\":1636:1655  profile[msg.sender] */\n      dup1\n        /* \"contracts/Profile.sol\":1644:1654  msg.sender */\n      caller\n        /* \"contracts/Profile.sol\":1636:1655  profile[msg.sender] */\n      0xffffffffffffffffffffffffffffffffffffffff\n      and\n      0xffffffffffffffffffffffffffffffffffffffff\n      and\n      dup2\n      mstore\n      0x20\n      add\n      swap1\n      dup2\n      mstore\n      0x20\n      add\n      0x00\n      keccak256\n        /* \"contracts/Profile.sol\":1636:1671  profile[msg.sender].privateContract */\n      0x07\n      add\n        /* \"contracts/Profile.sol\":1636:1677  profile[msg.sender].privateContract.phone */\n      0x01\n      add\n        /* \"contracts/Profile.sol\":1636:1686  profile[msg.sender].privateContract.phone = gitlab */\n      swap1\n      dup1\n      mload\n      swap1\n      0x20\n      add\n      swap1\n      tag_38\n      swap3\n      swap2\n      swap1\n      tag_29\n      jump\t// in\n    tag_38:\n      pop\n        /* \"contracts/Profile.sol\":1741:1747  linkin */\n      dup1\n        /* \"contracts/Profile.sol\":1697:1704  profile */\n      0x00\n        /* \"contracts/Profile.sol\":1697:1716  profile[msg.sender] */\n      dup1\n        /* \"contracts/Profile.sol\":1705:1715  msg.sender */\n      caller\n        /* \"contracts/Profile.sol\":1697:1716  profile[msg.sender] */\n      0xffffffffffffffffffffffffffffffffffffffff\n      and\n      0xffffffffffffffffffffffffffffffffffffffff\n      and\n      dup2\n      mstore\n      0x20\n      add\n      swap1\n      dup2\n      mstore\n      0x20\n      add\n      0x00\n      keccak256\n        /* \"contracts/Profile.sol\":1697:1732  profile[msg.sender].privateContract */\n      0x07\n      add\n        /* \"contracts/Profile.sol\":1697:1738  profile[msg.sender].privateContract.email */\n      0x00\n      add\n        /* \"contracts/Profile.sol\":1697:1747  profile[msg.sender].privateContract.email = linkin */\n      swap1\n      dup1\n      mload\n      swap1\n      0x20\n      add\n      swap1\n      tag_39\n      swap3\n      swap2\n      swap1\n      tag_29\n      jump\t// in\n    tag_39:\n      pop\n        /* \"contracts/Profile.sol\":1309:1755  function addContract(string memory email, string memory phone, string memory github, string memory gitlab, string memory linkin) public{\r... */\n      pop\n      pop\n      pop\n      pop\n      pop\n      jump\t// out\n        /* \"contracts/Profile.sol\":365:405  mapping (address => Bio) public  profile */\n    tag_18:\n      mstore(0x20, 0x00)\n      dup1\n      0x00\n      mstore\n      keccak256(0x00, 0x40)\n      0x00\n      swap2\n      pop\n      swap1\n      pop\n      dup1\n      0x00\n      add\n      0x00\n      swap1\n      sload\n      swap1\n      0x0100\n      exp\n      swap1\n      div\n      0xffffffffffffffffffffffffffffffffffffffff\n      and\n      swap1\n      dup1\n      0x01\n      add\n      dup1\n      sload\n      tag_40\n      swap1\n      tag_41\n      jump\t// in\n    tag_40:\n      dup1\n      0x1f\n      add\n      0x20\n      dup1\n      swap2\n      div\n      mul\n      0x20\n      add\n      mload(0x40)\n      swap1\n      dup2\n      add\n      0x40\n      mstore\n      dup1\n      swap3\n      swap2\n      swap1\n      dup2\n      dup2\n      mstore\n      0x20\n      add\n      dup3\n      dup1\n      sload\n      tag_42\n      swap1\n      tag_41\n      jump\t// in\n    tag_42:\n      dup1\n      iszero\n      tag_43\n      jumpi\n      dup1\n      0x1f\n      lt\n      tag_44\n      jumpi\n      0x0100\n      dup1\n      dup4\n      sload\n      div\n      mul\n      dup4\n      mstore\n      swap2\n      0x20\n      add\n      swap2\n      jump(tag_43)\n    tag_44:\n      dup3\n      add\n      swap2\n      swap1\n      0x00\n      mstore\n      keccak256(0x00, 0x20)\n      swap1\n    tag_45:\n      dup2\n      sload\n      dup2\n      mstore\n      swap1\n      0x01\n      add\n      swap1\n      0x20\n      add\n      dup1\n      dup4\n      gt\n      tag_45\n      jumpi\n      dup3\n      swap1\n      sub\n      0x1f\n      and\n      dup3\n      add\n      swap2\n    tag_43:\n      pop\n      pop\n      pop\n      pop\n      pop\n      swap1\n      dup1\n      0x02\n      add\n      dup1\n      sload\n      tag_46\n      swap1\n      tag_41\n      jump\t// in\n    tag_46:\n      dup1\n      0x1f\n      add\n      0x20\n      dup1\n      swap2\n      div\n      mul\n      0x20\n      add\n      mload(0x40)\n      swap1\n      dup2\n      add\n      0x40\n      mstore\n      dup1\n      swap3\n      swap2\n      swap1\n      dup2\n      dup2\n      mstore\n      0x20\n      add\n      dup3\n      dup1\n      sload\n      tag_47\n      swap1\n      tag_41\n      jump\t// in\n    tag_47:\n      dup1\n      iszero\n      tag_48\n      jumpi\n      dup1\n      0x1f\n      lt\n      tag_49\n      jumpi\n      0x0100\n      dup1\n      dup4\n      sload\n      div\n      mul\n      dup4\n      mstore\n      swap2\n      0x20\n      add\n      swap2\n      jump(tag_48)\n    tag_49:\n      dup3\n      add\n      swap2\n      swap1\n      0x00\n      mstore\n      keccak256(0x00, 0x20)\n      swap1\n    tag_50:\n      dup2\n      sload\n      dup2\n      mstore\n      swap1\n      0x01\n      add\n      swap1\n      0x20\n      add\n      dup1\n      dup4\n      gt\n      tag_50\n      jumpi\n      dup3\n      swap1\n      sub\n      0x1f\n      and\n      dup3\n      add\n      swap2\n    tag_48:\n      pop\n      pop\n      pop\n      pop\n      pop\n      swap1\n      dup1\n      0x03\n      add\n      dup1\n      sload\n      tag_51\n      swap1\n      tag_41\n      jump\t// in\n    tag_51:\n      dup1\n      0x1f\n      add\n      0x20\n      dup1\n      swap2\n      div\n      mul\n      0x20\n      add\n      mload(0x40)\n      swap1\n      dup2\n      add\n      0x40\n      mstore\n      dup1\n      swap3\n      swap2\n      swap1\n      dup2\n      dup2\n      mstore\n      0x20\n      add\n      dup3\n      dup1\n      sload\n      tag_52\n      swap1\n      tag_41\n      jump\t// in\n    tag_52:\n      dup1\n      iszero\n      tag_53\n      jumpi\n      dup1\n      0x1f\n      lt\n      tag_54\n      jumpi\n      0x0100\n      dup1\n      dup4\n      sload\n      div\n      mul\n      dup4\n      mstore\n      swap2\n      0x20\n      add\n      swap2\n      jump(tag_53)\n    tag_54:\n      dup3\n      add\n      swap2\n      swap1\n      0x00\n      mstore\n      keccak256(0x00, 0x20)\n      swap1\n    tag_55:\n      dup2\n      sload\n      dup2\n      mstore\n      swap1\n      0x01\n      add\n      swap1\n      0x20\n      add\n      dup1\n      dup4\n      gt\n      tag_55\n      jumpi\n      dup3\n      swap1\n      sub\n      0x1f\n      and\n      dup3\n      add\n      swap2\n    tag_53:\n      pop\n      pop\n      pop\n      pop\n      pop\n      swap1\n      dup1\n      0x04\n      add\n      dup1\n      sload\n      tag_56\n      swap1\n      tag_41\n      jump\t// in\n    tag_56:\n      dup1\n      0x1f\n      add\n      0x20\n      dup1\n      swap2\n      div\n      mul\n      0x20\n      add\n      mload(0x40)\n      swap1\n      dup2\n      add\n      0x40\n      mstore\n      dup1\n      swap3\n      swap2\n      swap1\n      dup2\n      dup2\n      mstore\n      0x20\n      add\n      dup3\n      dup1\n      sload\n      tag_57\n      swap1\n      tag_41\n      jump\t// in\n    tag_57:\n      dup1\n      iszero\n      tag_58\n      jumpi\n      dup1\n      0x1f\n      lt\n      tag_59\n      jumpi\n      0x0100\n      dup1\n      dup4\n      sload\n      div\n      mul\n      dup4\n      mstore\n      swap2\n      0x20\n      add\n      swap2\n      jump(tag_58)\n    tag_59:\n      dup3\n      add\n      swap2\n      swap1\n      0x00\n      mstore\n      keccak256(0x00, 0x20)\n      swap1\n    tag_60:\n      dup2\n      sload\n      dup2\n      mstore\n      swap1\n      0x01\n      add\n      swap1\n      0x20\n      add\n      dup1\n      dup4\n      gt\n      tag_60\n      jumpi\n      dup3\n      swap1\n      sub\n      0x1f\n      and\n      dup3\n      add\n      swap2\n    tag_58:\n      pop\n      pop\n      pop\n      pop\n      pop\n      swap1\n      dup1\n      0x05\n      add\n      sload\n      swap1\n      dup1\n      0x06\n      add\n      dup1\n      sload\n      tag_61\n      swap1\n      tag_41\n      jump\t// in\n    tag_61:\n      dup1\n      0x1f\n      add\n      0x20\n      dup1\n      swap2\n      div\n      mul\n      0x20\n      add\n      mload(0x40)\n      swap1\n      dup2\n      add\n      0x40\n      mstore\n      dup1\n      swap3\n      swap2\n      swap1\n      dup2\n      dup2\n      mstore\n      0x20\n      add\n      dup3\n      dup1\n      sload\n      tag_62\n      swap1\n      tag_41\n      jump\t// in\n    tag_62:\n      dup1\n      iszero\n      tag_63\n      jumpi\n      dup1\n      0x1f\n      lt\n      tag_64\n      jumpi\n      0x0100\n      dup1\n      dup4\n      sload\n      div\n      mul\n      dup4\n      mstore\n      swap2\n      0x20\n      add\n      swap2\n      jump(tag_63)\n    tag_64:\n      dup3\n      add\n      swap2\n      swap1\n      0x00\n      mstore\n      keccak256(0x00, 0x20)\n      swap1\n    tag_65:\n      dup2\n      sload\n      dup2\n      mstore\n      swap1\n      0x01\n      add\n      swap1\n      0x20\n      add\n      dup1\n      dup4\n      gt\n      tag_65\n      jumpi\n      dup3\n      swap1\n      sub\n      0x1f\n      and\n      dup3\n      add\n      swap2\n    tag_63:\n      pop\n      pop\n      pop\n      pop\n      pop\n      swap1\n      dup1\n      0x07\n      add\n      mload(0x40)\n      dup1\n      0xa0\n      add\n      0x40\n      mstore\n      swap1\n      dup2\n      0x00\n      dup3\n      add\n      dup1\n      sload\n      tag_66\n      swap1\n      tag_41\n      jump\t// in\n    tag_66:\n      dup1\n      0x1f\n      add\n      0x20\n      dup1\n      swap2\n      div\n      mul\n      0x20\n      add\n      mload(0x40)\n      swap1\n      dup2\n      add\n      0x40\n      mstore\n      dup1\n      swap3\n      swap2\n      swap1\n      dup2\n      dup2\n      mstore\n      0x20\n      add\n      dup3\n      dup1\n      sload\n      tag_67\n      swap1\n      tag_41\n      jump\t// in\n    tag_67:\n      dup1\n      iszero\n      tag_68\n      jumpi\n      dup1\n      0x1f\n      lt\n      tag_69\n      jumpi\n      0x0100\n      dup1\n      dup4\n      sload\n      div\n      mul\n      dup4\n      mstore\n      swap2\n      0x20\n      add\n      swap2\n      jump(tag_68)\n    tag_69:\n      dup3\n      add\n      swap2\n      swap1\n      0x00\n      mstore\n      keccak256(0x00, 0x20)\n      swap1\n    tag_70:\n      dup2\n      sload\n      dup2\n      mstore\n      swap1\n      0x01\n      add\n      swap1\n      0x20\n      add\n      dup1\n      dup4\n      gt\n      tag_70\n      jumpi\n      dup3\n      swap1\n      sub\n      0x1f\n      and\n      dup3\n      add\n      swap2\n    tag_68:\n      pop\n      pop\n      pop\n      pop\n      pop\n      dup2\n      mstore\n      0x20\n      add\n      0x01\n      dup3\n      add\n      dup1\n      sload\n      tag_71\n      swap1\n      tag_41\n      jump\t// in\n    tag_71:\n      dup1\n      0x1f\n      add\n      0x20\n      dup1\n      swap2\n      div\n      mul\n      0x20\n      add\n      mload(0x40)\n      swap1\n      dup2\n      add\n      0x40\n      mstore\n      dup1\n      swap3\n      swap2\n      swap1\n      dup2\n      dup2\n      mstore\n      0x20\n      add\n      dup3\n      dup1\n      sload\n      tag_72\n      swap1\n      tag_41\n      jump\t// in\n    tag_72:\n      dup1\n      iszero\n      tag_73\n      jumpi\n      dup1\n      0x1f\n      lt\n      tag_74\n      jumpi\n      0x0100\n      dup1\n      dup4\n      sload\n      div\n      mul\n      dup4\n      mstore\n      swap2\n      0x20\n      add\n      swap2\n      jump(tag_73)\n    tag_74:\n      dup3\n      add\n      swap2\n      swap1\n      0x00\n      mstore\n      keccak256(0x00, 0x20)\n      swap1\n    tag_75:\n      dup2\n      sload\n      dup2\n      mstore\n      swap1\n      0x01\n      add\n      swap1\n      0x20\n      add\n      dup1\n      dup4\n      gt\n      tag_75\n      jumpi\n      dup3\n      swap1\n      sub\n      0x1f\n      and\n      dup3\n      add\n      swap2\n    tag_73:\n      pop\n      pop\n      pop\n      pop\n      pop\n      dup2\n      mstore\n      0x20\n      add\n      0x02\n      dup3\n      add\n      dup1\n      sload\n      tag_76\n      swap1\n      tag_41\n      jump\t// in\n    tag_76:\n      dup1\n      0x1f\n      add\n      0x20\n      dup1\n      swap2\n      div\n      mul\n      0x20\n      add\n      mload(0x40)\n      swap1\n      dup2\n      add\n      0x40\n      mstore\n      dup1\n      swap3\n      swap2\n      swap1\n      dup2\n      dup2\n      mstore\n      0x20\n      add\n      dup3\n      dup1\n      sload\n      tag_77\n      swap1\n      tag_41\n      jump\t// in\n    tag_77:\n      dup1\n      iszero\n      tag_78\n      jumpi\n      dup1\n      0x1f\n      lt\n      tag_79\n      jumpi\n      0x0100\n      dup1\n      dup4\n      sload\n      div\n      mul\n      dup4\n      mstore\n      swap2\n      0x20\n      add\n      swap2\n      jump(tag_78)\n    tag_79:\n      dup3\n      add\n      swap2\n      swap1\n      0x00\n      mstore\n      keccak256(0x00, 0x20)\n      swap1\n    tag_80:\n      dup2\n      sload\n      dup2\n      mstore\n      swap1\n      0x01\n      add\n      swap1\n      0x20\n      add\n      dup1\n      dup4\n      gt\n      tag_80\n      jumpi\n      dup3\n      swap1\n      sub\n      0x1f\n      and\n      dup3\n      add\n      swap2\n    tag_78:\n      pop\n      pop\n      pop\n      pop\n      pop\n      dup2\n      mstore\n      0x20\n      add\n      0x03\n      dup3\n      add\n      dup1\n      sload\n      tag_81\n      swap1\n      tag_41\n      jump\t// in\n    tag_81:\n      dup1\n      0x1f\n      add\n      0x20\n      dup1\n      swap2\n      div\n      mul\n      0x20\n      add\n      mload(0x40)\n      swap1\n      dup2\n      add\n      0x40\n      mstore\n      dup1\n      swap3\n      swap2\n      swap1\n      dup2\n      dup2\n      mstore\n      0x20\n      add\n      dup3\n      dup1\n      sload\n      tag_82\n      swap1\n      tag_41\n      jump\t// in\n    tag_82:\n      dup1\n      iszero\n      tag_83\n      jumpi\n      dup1\n      0x1f\n      lt\n      tag_84\n      jumpi\n      0x0100\n      dup1\n      dup4\n      sload\n      div\n      mul\n      dup4\n      mstore\n      swap2\n      0x20\n      add\n      swap2\n      jump(tag_83)\n    tag_84:\n      dup3\n      add\n      swap2\n      swap1\n      0x00\n      mstore\n      keccak256(0x00, 0x20)\n      swap1\n    tag_85:\n      dup2\n      sload\n      dup2\n      mstore\n      swap1\n      0x01\n      add\n      swap1\n      0x20\n      add\n      dup1\n      dup4\n      gt\n      tag_85\n      jumpi\n      dup3\n      swap1\n      sub\n      0x1f\n      and\n      dup3\n      add\n      swap2\n    tag_83:\n      pop\n      pop\n      pop\n      pop\n      pop\n      dup2\n      mstore\n      0x20\n      add\n      0x04\n      dup3\n      add\n      dup1\n      sload\n      tag_86\n      swap1\n      tag_41\n      jump\t// in\n    tag_86:\n      dup1\n      0x1f\n      add\n      0x20\n      dup1\n      swap2\n      div\n      mul\n      0x20\n      add\n      mload(0x40)\n      swap1\n      dup2\n      add\n      0x40\n      mstore\n      dup1\n      swap3\n      swap2\n      swap1\n      dup2\n      dup2\n      mstore\n      0x20\n      add\n      dup3\n      dup1\n      sload\n      tag_87\n      swap1\n      tag_41\n      jump\t// in\n    tag_87:\n      dup1\n      iszero\n      tag_88\n      jumpi\n      dup1\n      0x1f\n      lt\n      tag_89\n      jumpi\n      0x0100\n      dup1\n      dup4\n      sload\n      div\n      mul\n      dup4\n      mstore\n      swap2\n      0x20\n      add\n      swap2\n      jump(tag_88)\n    tag_89:\n      dup3\n      add\n      swap2\n      swap1\n      0x00\n      mstore\n      keccak256(0x00, 0x20)\n      swap1\n    tag_90:\n      dup2\n      sload\n      dup2\n      mstore\n      swap1\n      0x01\n      add\n      swap1\n      0x20\n      add\n      dup1\n      dup4\n      gt\n      tag_90\n      jumpi\n      dup3\n      swap1\n      sub\n      0x1f\n      and\n      dup3\n      add\n      swap2\n    tag_88:\n      pop\n      pop\n      pop\n      pop\n      pop\n      dup2\n      mstore\n      pop\n      pop\n      swap1\n      dup1\n      0x0c\n      add\n      mload(0x40)\n      dup1\n      0x60\n      add\n      0x40\n      mstore\n      swap1\n      dup2\n      0x00\n      dup3\n      add\n      dup1\n      sload\n      dup1\n      0x20\n      mul\n      0x20\n      add\n      mload(0x40)\n      swap1\n      dup2\n      add\n      0x40\n      mstore\n      dup1\n      swap3\n      swap2\n      swap1\n      dup2\n      dup2\n      mstore\n      0x20\n      add\n      0x00\n      swap1\n    tag_91:\n      dup3\n      dup3\n      lt\n      iszero\n      tag_92\n      jumpi\n      dup4\n      dup3\n      swap1\n      0x00\n      mstore\n      keccak256(0x00, 0x20)\n      add\n      dup1\n      sload\n      tag_94\n      swap1\n      tag_41\n      jump\t// in\n    tag_94:\n      dup1\n      0x1f\n      add\n      0x20\n      dup1\n      swap2\n      div\n      mul\n      0x20\n      add\n      mload(0x40)\n      swap1\n      dup2\n      add\n      0x40\n      mstore\n      dup1\n      swap3\n      swap2\n      swap1\n      dup2\n      dup2\n      mstore\n      0x20\n      add\n      dup3\n      dup1\n      sload\n      tag_95\n      swap1\n      tag_41\n      jump\t// in\n    tag_95:\n      dup1\n      iszero\n      tag_96\n      jumpi\n      dup1\n      0x1f\n      lt\n      tag_97\n      jumpi\n      0x0100\n      dup1\n      dup4\n      sload\n      div\n      mul\n      dup4\n      mstore\n      swap2\n      0x20\n      add\n      swap2\n      jump(tag_96)\n    tag_97:\n      dup3\n      add\n      swap2\n      swap1\n      0x00\n      mstore\n      keccak256(0x00, 0x20)\n      swap1\n    tag_98:\n      dup2\n      sload\n      dup2\n      mstore\n      swap1\n      0x01\n      add\n      swap1\n      0x20\n      add\n      dup1\n      dup4\n      gt\n      tag_98\n      jumpi\n      dup3\n      swap1\n      sub\n      0x1f\n      and\n      dup3\n      add\n      swap2\n    tag_96:\n      pop\n      pop\n      pop\n      pop\n      pop\n      dup2\n      mstore\n      0x20\n      add\n      swap1\n      0x01\n      add\n      swap1\n      jump(tag_91)\n    tag_92:\n      pop\n      pop\n      pop\n      pop\n      dup2\n      mstore\n      0x20\n      add\n      0x01\n      dup3\n      add\n      dup1\n      sload\n      dup1\n      0x20\n      mul\n      0x20\n      add\n      mload(0x40)\n      swap1\n      dup2\n      add\n      0x40\n      mstore\n      dup1\n      swap3\n      swap2\n      swap1\n      dup2\n      dup2\n      mstore\n      0x20\n      add\n      0x00\n      swap1\n    tag_99:\n      dup3\n      dup3\n      lt\n      iszero\n      tag_100\n      jumpi\n      dup4\n      dup3\n      swap1\n      0x00\n      mstore\n      keccak256(0x00, 0x20)\n      add\n      dup1\n      sload\n      tag_102\n      swap1\n      tag_41\n      jump\t// in\n    tag_102:\n      dup1\n      0x1f\n      add\n      0x20\n      dup1\n      swap2\n      div\n      mul\n      0x20\n      add\n      mload(0x40)\n      swap1\n      dup2\n      add\n      0x40\n      mstore\n      dup1\n      swap3\n      swap2\n      swap1\n      dup2\n      dup2\n      mstore\n      0x20\n      add\n      dup3\n      dup1\n      sload\n      tag_103\n      swap1\n      tag_41\n      jump\t// in\n    tag_103:\n      dup1\n      iszero\n      tag_104\n      jumpi\n      dup1\n      0x1f\n      lt\n      tag_105\n      jumpi\n      0x0100\n      dup1\n      dup4\n      sload\n      div\n      mul\n      dup4\n      mstore\n      swap2\n      0x20\n      add\n      swap2\n      jump(tag_104)\n    tag_105:\n      dup3\n      add\n      swap2\n      swap1\n      0x00\n      mstore\n      keccak256(0x00, 0x20)\n      swap1\n    tag_106:\n      dup2\n      sload\n      dup2\n      mstore\n      swap1\n      0x01\n      add\n      swap1\n      0x20\n      add\n      dup1\n      dup4\n      gt\n      tag_106\n      jumpi\n      dup3\n      swap1\n      sub\n      0x1f\n      and\n      dup3\n      add\n      swap2\n    tag_104:\n      pop\n      pop\n      pop\n      pop\n      pop\n      dup2\n      mstore\n      0x20\n      add\n      swap1\n      0x01\n      add\n      swap1\n      jump(tag_99)\n    tag_100:\n      pop\n      pop\n      pop\n      pop\n      dup2\n      mstore\n      0x20\n      add\n      0x02\n      dup3\n      add\n      dup1\n      sload\n      dup1\n      0x20\n      mul\n      0x20\n      add\n      mload(0x40)\n      swap1\n      dup2\n      add\n      0x40\n      mstore\n      dup1\n      swap3\n      swap2\n      swap1\n      dup2\n      dup2\n      mstore\n      0x20\n      add\n      0x00\n      swap1\n    tag_107:\n      dup3\n      dup3\n      lt\n      iszero\n      tag_108\n      jumpi\n      dup4\n      dup3\n      swap1\n      0x00\n      mstore\n      keccak256(0x00, 0x20)\n      add\n      dup1\n      sload\n      tag_110\n      swap1\n      tag_41\n      jump\t// in\n    tag_110:\n      dup1\n      0x1f\n      add\n      0x20\n      dup1\n      swap2\n      div\n      mul\n      0x20\n      add\n      mload(0x40)\n      swap1\n      dup2\n      add\n      0x40\n      mstore\n      dup1\n      swap3\n      swap2\n      swap1\n      dup2\n      dup2\n      mstore\n      0x20\n      add\n      dup3\n      dup1\n      sload\n      tag_111\n      swap1\n      tag_41\n      jump\t// in\n    tag_111:\n      dup1\n      iszero\n      tag_112\n      jumpi\n      dup1\n      0x1f\n      lt\n      tag_113\n      jumpi\n      0x0100\n      dup1\n      dup4\n      sload\n      div\n      mul\n      dup4\n      mstore\n      swap2\n      0x20\n      add\n      swap2\n      jump(tag_112)\n    tag_113:\n      dup3\n      add\n      swap2\n      swap1\n      0x00\n      mstore\n      keccak256(0x00, 0x20)\n      swap1\n    tag_114:\n      dup2\n      sload\n      dup2\n      mstore\n      swap1\n      0x01\n      add\n      swap1\n      0x20\n      add\n      dup1\n      dup4\n      gt\n      tag_114\n      jumpi\n      dup3\n      swap1\n      sub\n      0x1f\n      and\n      dup3\n      add\n      swap2\n    tag_112:\n      pop\n      pop\n      pop\n      pop\n      pop\n      dup2\n      mstore\n      0x20\n      add\n      swap1\n      0x01\n      add\n      swap1\n      jump(tag_107)\n    tag_108:\n      pop\n      pop\n      pop\n      pop\n      dup2\n      mstore\n      pop\n      pop\n      swap1\n      pop\n      dup10\n      jump\t// out\n        /* \"contracts/Profile.sol\":1840:2118  function addSkill(string[] memory frontend, string[] memory backend, string[] memory framework) public{\r... */\n    tag_24:\n        /* \"contracts/Profile.sol\":1990:1998  frontend */\n      dup3\n        /* \"contracts/Profile.sol\":1953:1960  profile */\n      0x00\n        /* \"contracts/Profile.sol\":1953:1972  profile[msg.sender] */\n      dup1\n        /* \"contracts/Profile.sol\":1961:1971  msg.sender */\n      caller\n        /* \"contracts/Profile.sol\":1953:1972  profile[msg.sender] */\n      0xffffffffffffffffffffffffffffffffffffffff\n      and\n      0xffffffffffffffffffffffffffffffffffffffff\n      and\n      dup2\n      mstore\n      0x20\n      add\n      swap1\n      dup2\n      mstore\n      0x20\n      add\n      0x00\n      keccak256\n        /* \"contracts/Profile.sol\":1953:1978  profile[msg.sender].skill */\n      0x0c\n      add\n        /* \"contracts/Profile.sol\":1953:1987  profile[msg.sender].skill.frontend */\n      0x00\n      add\n        /* \"contracts/Profile.sol\":1953:1998  profile[msg.sender].skill.frontend = frontend */\n      swap1\n      dup1\n      mload\n      swap1\n      0x20\n      add\n      swap1\n      tag_116\n      swap3\n      swap2\n      swap1\n      tag_117\n      jump\t// in\n    tag_116:\n      pop\n        /* \"contracts/Profile.sol\":2045:2052  backend */\n      dup2\n        /* \"contracts/Profile.sol\":2009:2016  profile */\n      0x00\n        /* \"contracts/Profile.sol\":2009:2028  profile[msg.sender] */\n      dup1\n        /* \"contracts/Profile.sol\":2017:2027  msg.sender */\n      caller\n        /* \"contracts/Profile.sol\":2009:2028  profile[msg.sender] */\n      0xffffffffffffffffffffffffffffffffffffffff\n      and\n      0xffffffffffffffffffffffffffffffffffffffff\n      and\n      dup2\n      mstore\n      0x20\n      add\n      swap1\n      dup2\n      mstore\n      0x20\n      add\n      0x00\n      keccak256\n        /* \"contracts/Profile.sol\":2009:2034  profile[msg.sender].skill */\n      0x0c\n      add\n        /* \"contracts/Profile.sol\":2009:2042  profile[msg.sender].skill.backend */\n      0x01\n      add\n        /* \"contracts/Profile.sol\":2009:2052  profile[msg.sender].skill.backend = backend */\n      swap1\n      dup1\n      mload\n      swap1\n      0x20\n      add\n      swap1\n      tag_118\n      swap3\n      swap2\n      swap1\n      tag_117\n      jump\t// in\n    tag_118:\n      pop\n        /* \"contracts/Profile.sol\":2101:2110  framework */\n      dup1\n        /* \"contracts/Profile.sol\":2063:2070  profile */\n      0x00\n        /* \"contracts/Profile.sol\":2063:2082  profile[msg.sender] */\n      dup1\n        /* \"contracts/Profile.sol\":2071:2081  msg.sender */\n      caller\n        /* \"contracts/Profile.sol\":2063:2082  profile[msg.sender] */\n      0xffffffffffffffffffffffffffffffffffffffff\n      and\n      0xffffffffffffffffffffffffffffffffffffffff\n      and\n      dup2\n      mstore\n      0x20\n      add\n      swap1\n      dup2\n      mstore\n      0x20\n      add\n      0x00\n      keccak256\n        /* \"contracts/Profile.sol\":2063:2088  profile[msg.sender].skill */\n      0x0c\n      add\n        /* \"contracts/Profile.sol\":2063:2098  profile[msg.sender].skill.framework */\n      0x02\n      add\n        /* \"contracts/Profile.sol\":2063:2110  profile[msg.sender].skill.framework = framework */\n      swap1\n      dup1\n      mload\n      swap1\n      0x20\n      add\n      swap1\n      tag_119\n      swap3\n      swap2\n      swap1\n      tag_117\n      jump\t// in\n    tag_119:\n      pop\n        /* \"contracts/Profile.sol\":1840:2118  function addSkill(string[] memory frontend, string[] memory backend, string[] memory framework) public{\r... */\n      pop\n      pop\n      pop\n      jump\t// out\n        /* \"contracts/Profile.sol\":2131:2205  function delProfile() public {\r... */\n    tag_26:\n        /* \"contracts/Profile.sol\":2178:2185  profile */\n      0x00\n        /* \"contracts/Profile.sol\":2178:2197  profile[msg.sender] */\n      dup1\n        /* \"contracts/Profile.sol\":2186:2196  msg.sender */\n      caller\n        /* \"contracts/Profile.sol\":2178:2197  profile[msg.sender] */\n      0xffffffffffffffffffffffffffffffffffffffff\n      and\n      0xffffffffffffffffffffffffffffffffffffffff\n      and\n      dup2\n      mstore\n      0x20\n      add\n      swap1\n      dup2\n      mstore\n      0x20\n      add\n      0x00\n      keccak256\n      0x00\n        /* \"contracts/Profile.sol\":2171:2197  delete profile[msg.sender] */\n      dup1\n      dup3\n      add\n      exp(0x0100, 0x00)\n      dup2\n      sload\n      swap1\n      0xffffffffffffffffffffffffffffffffffffffff\n      mul\n      not\n      and\n      swap1\n      sstore\n      0x01\n      dup3\n      add\n      0x00\n      tag_121\n      swap2\n      swap1\n      tag_122\n      jump\t// in\n    tag_121:\n      0x02\n      dup3\n      add\n      0x00\n      tag_123\n      swap2\n      swap1\n      tag_122\n      jump\t// in\n    tag_123:\n      0x03\n      dup3\n      add\n      0x00\n      tag_124\n      swap2\n      swap1\n      tag_122\n      jump\t// in\n    tag_124:\n      0x04\n      dup3\n      add\n      0x00\n      tag_125\n      swap2\n      swap1\n      tag_122\n      jump\t// in\n    tag_125:\n      0x05\n      dup3\n      add\n      0x00\n      swap1\n      sstore\n      0x06\n      dup3\n      add\n      0x00\n      tag_126\n      swap2\n      swap1\n      tag_122\n      jump\t// in\n    tag_126:\n      0x07\n      dup3\n      add\n      0x00\n      dup1\n      dup3\n      add\n      0x00\n      tag_127\n      swap2\n      swap1\n      tag_122\n      jump\t// in\n    tag_127:\n      0x01\n      dup3\n      add\n      0x00\n      tag_128\n      swap2\n      swap1\n      tag_122\n      jump\t// in\n    tag_128:\n      0x02\n      dup3\n      add\n      0x00\n      tag_129\n      swap2\n      swap1\n      tag_122\n      jump\t// in\n    tag_129:\n      0x03\n      dup3\n      add\n      0x00\n      tag_130\n      swap2\n      swap1\n      tag_122\n      jump\t// in\n    tag_130:\n      0x04\n      dup3\n      add\n      0x00\n      tag_131\n      swap2\n      swap1\n      tag_122\n      jump\t// in\n    tag_131:\n      pop\n      pop\n      0x0c\n      dup3\n      add\n      0x00\n      dup1\n      dup3\n      add\n      0x00\n      tag_132\n      swap2\n      swap1\n      tag_133\n      jump\t// in\n    tag_132:\n      0x01\n      dup3\n      add\n      0x00\n      tag_134\n      swap2\n      swap1\n      tag_133\n      jump\t// in\n    tag_134:\n      0x02\n      dup3\n      add\n      0x00\n      tag_135\n      swap2\n      swap1\n      tag_133\n      jump\t// in\n    tag_135:\n      pop\n      pop\n      pop\n      pop\n        /* \"contracts/Profile.sol\":2131:2205  function delProfile() public {\r... */\n      jump\t// out\n    tag_29:\n      dup3\n      dup1\n      sload\n      tag_136\n      swap1\n      tag_41\n      jump\t// in\n    tag_136:\n      swap1\n      0x00\n      mstore\n      keccak256(0x00, 0x20)\n      swap1\n      0x1f\n      add\n      0x20\n      swap1\n      div\n      dup2\n      add\n      swap3\n      dup3\n      tag_138\n      jumpi\n      0x00\n      dup6\n      sstore\n      jump(tag_137)\n    tag_138:\n      dup3\n      0x1f\n      lt\n      tag_139\n      jumpi\n      dup1\n      mload\n      not(0xff)\n      and\n      dup4\n      dup1\n      add\n      or\n      dup6\n      sstore\n      jump(tag_137)\n    tag_139:\n      dup3\n      dup1\n      add\n      0x01\n      add\n      dup6\n      sstore\n      dup3\n      iszero\n      tag_137\n      jumpi\n      swap2\n      dup3\n      add\n    tag_140:\n      dup3\n      dup2\n      gt\n      iszero\n      tag_141\n      jumpi\n      dup3\n      mload\n      dup3\n      sstore\n      swap2\n      0x20\n      add\n      swap2\n      swap1\n      0x01\n      add\n      swap1\n      jump(tag_140)\n    tag_141:\n    tag_137:\n      pop\n      swap1\n      pop\n      tag_142\n      swap2\n      swap1\n      tag_143\n      jump\t// in\n    tag_142:\n      pop\n      swap1\n      jump\t// out\n    tag_117:\n      dup3\n      dup1\n      sload\n      dup3\n      dup3\n      sstore\n      swap1\n      0x00\n      mstore\n      keccak256(0x00, 0x20)\n      swap1\n      dup2\n      add\n      swap3\n      dup3\n      iszero\n      tag_144\n      jumpi\n      swap2\n      0x20\n      mul\n      dup3\n      add\n    tag_145:\n      dup3\n      dup2\n      gt\n      iszero\n      tag_146\n      jumpi\n      dup3\n      mload\n      dup3\n      swap1\n      dup1\n      mload\n      swap1\n      0x20\n      add\n      swap1\n      tag_147\n      swap3\n      swap2\n      swap1\n      tag_29\n      jump\t// in\n    tag_147:\n      pop\n      swap2\n      0x20\n      add\n      swap2\n      swap1\n      0x01\n      add\n      swap1\n      jump(tag_145)\n    tag_146:\n    tag_144:\n      pop\n      swap1\n      pop\n      tag_148\n      swap2\n      swap1\n      tag_149\n      jump\t// in\n    tag_148:\n      pop\n      swap1\n      jump\t// out\n    tag_122:\n      pop\n      dup1\n      sload\n      tag_150\n      swap1\n      tag_41\n      jump\t// in\n    tag_150:\n      0x00\n      dup3\n      sstore\n      dup1\n      0x1f\n      lt\n      tag_152\n      jumpi\n      pop\n      jump(tag_151)\n    tag_152:\n      0x1f\n      add\n      0x20\n      swap1\n      div\n      swap1\n      0x00\n      mstore\n      keccak256(0x00, 0x20)\n      swap1\n      dup2\n      add\n      swap1\n      tag_153\n      swap2\n      swap1\n      tag_143\n      jump\t// in\n    tag_153:\n    tag_151:\n      pop\n      jump\t// out\n    tag_133:\n      pop\n      dup1\n      sload\n      0x00\n      dup3\n      sstore\n      swap1\n      0x00\n      mstore\n      keccak256(0x00, 0x20)\n      swap1\n      dup2\n      add\n      swap1\n      tag_155\n      swap2\n      swap1\n      tag_149\n      jump\t// in\n    tag_155:\n      pop\n      jump\t// out\n    tag_143:\n    tag_156:\n      dup1\n      dup3\n      gt\n      iszero\n      tag_157\n      jumpi\n      0x00\n      dup2\n      0x00\n      swap1\n      sstore\n      pop\n      0x01\n      add\n      jump(tag_156)\n    tag_157:\n      pop\n      swap1\n      jump\t// out\n    tag_149:\n    tag_158:\n      dup1\n      dup3\n      gt\n      iszero\n      tag_159\n      jumpi\n      0x00\n      dup2\n      dup2\n      tag_160\n      swap2\n      swap1\n      tag_122\n      jump\t// in\n    tag_160:\n      pop\n      0x01\n      add\n      jump(tag_158)\n    tag_159:\n      pop\n      swap1\n      jump\t// out\n        /* \"#utility.yul\":23:980   */\n    tag_162:\n        /* \"#utility.yul\":129:134   */\n      0x00\n        /* \"#utility.yul\":154:245   */\n      tag_164\n        /* \"#utility.yul\":170:244   */\n      tag_165\n        /* \"#utility.yul\":237:243   */\n      dup5\n        /* \"#utility.yul\":170:244   */\n      tag_166\n      jump\t// in\n    tag_165:\n        /* \"#utility.yul\":154:245   */\n      tag_167\n      jump\t// in\n    tag_164:\n        /* \"#utility.yul\":145:245   */\n      swap1\n      pop\n        /* \"#utility.yul\":265:270   */\n      dup1\n        /* \"#utility.yul\":294:300   */\n      dup4\n        /* \"#utility.yul\":287:292   */\n      dup3\n        /* \"#utility.yul\":280:301   */\n      mstore\n        /* \"#utility.yul\":328:332   */\n      0x20\n        /* \"#utility.yul\":321:326   */\n      dup3\n        /* \"#utility.yul\":317:333   */\n      add\n        /* \"#utility.yul\":310:333   */\n      swap1\n      pop\n        /* \"#utility.yul\":354:360   */\n      dup3\n        /* \"#utility.yul\":404:407   */\n      dup6\n        /* \"#utility.yul\":396:400   */\n      0x20\n        /* \"#utility.yul\":388:394   */\n      dup7\n        /* \"#utility.yul\":384:401   */\n      mul\n        /* \"#utility.yul\":379:382   */\n      dup3\n        /* \"#utility.yul\":375:402   */\n      add\n        /* \"#utility.yul\":372:408   */\n      gt\n        /* \"#utility.yul\":369:512   */\n      iszero\n      tag_168\n      jumpi\n        /* \"#utility.yul\":423:502   */\n      tag_169\n      tag_170\n      jump\t// in\n    tag_169:\n        /* \"#utility.yul\":369:512   */\n    tag_168:\n        /* \"#utility.yul\":536:537   */\n      0x00\n        /* \"#utility.yul\":521:974   */\n    tag_171:\n        /* \"#utility.yul\":546:552   */\n      dup6\n        /* \"#utility.yul\":543:544   */\n      dup2\n        /* \"#utility.yul\":540:553   */\n      lt\n        /* \"#utility.yul\":521:974   */\n      iszero\n      tag_173\n      jumpi\n        /* \"#utility.yul\":628:631   */\n      dup2\n        /* \"#utility.yul\":615:632   */\n      calldataload\n        /* \"#utility.yul\":664:682   */\n      0xffffffffffffffff\n        /* \"#utility.yul\":651:662   */\n      dup2\n        /* \"#utility.yul\":648:683   */\n      gt\n        /* \"#utility.yul\":645:767   */\n      iszero\n      tag_174\n      jumpi\n        /* \"#utility.yul\":686:765   */\n      tag_175\n      tag_176\n      jump\t// in\n    tag_175:\n        /* \"#utility.yul\":645:767   */\n    tag_174:\n        /* \"#utility.yul\":810:821   */\n      dup1\n        /* \"#utility.yul\":802:808   */\n      dup7\n        /* \"#utility.yul\":798:822   */\n      add\n        /* \"#utility.yul\":848:895   */\n      tag_177\n        /* \"#utility.yul\":891:894   */\n      dup10\n        /* \"#utility.yul\":879:889   */\n      dup3\n        /* \"#utility.yul\":848:895   */\n      tag_178\n      jump\t// in\n    tag_177:\n        /* \"#utility.yul\":843:846   */\n      dup6\n        /* \"#utility.yul\":836:896   */\n      mstore\n        /* \"#utility.yul\":925:929   */\n      0x20\n        /* \"#utility.yul\":920:923   */\n      dup6\n        /* \"#utility.yul\":916:930   */\n      add\n        /* \"#utility.yul\":909:930   */\n      swap5\n      pop\n        /* \"#utility.yul\":959:963   */\n      0x20\n        /* \"#utility.yul\":954:957   */\n      dup5\n        /* \"#utility.yul\":950:964   */\n      add\n        /* \"#utility.yul\":943:964   */\n      swap4\n      pop\n        /* \"#utility.yul\":581:974   */\n      pop\n      pop\n        /* \"#utility.yul\":568:569   */\n      0x01\n        /* \"#utility.yul\":565:566   */\n      dup2\n        /* \"#utility.yul\":561:570   */\n      add\n        /* \"#utility.yul\":556:570   */\n      swap1\n      pop\n        /* \"#utility.yul\":521:974   */\n      jump(tag_171)\n    tag_173:\n        /* \"#utility.yul\":525:539   */\n      pop\n        /* \"#utility.yul\":135:980   */\n      pop\n      pop\n        /* \"#utility.yul\":23:980   */\n      swap4\n      swap3\n      pop\n      pop\n      pop\n      jump\t// out\n        /* \"#utility.yul\":986:1398   */\n    tag_179:\n        /* \"#utility.yul\":1064:1069   */\n      0x00\n        /* \"#utility.yul\":1089:1155   */\n      tag_181\n        /* \"#utility.yul\":1105:1154   */\n      tag_182\n        /* \"#utility.yul\":1147:1153   */\n      dup5\n        /* \"#utility.yul\":1105:1154   */\n      tag_183\n      jump\t// in\n    tag_182:\n        /* \"#utility.yul\":1089:1155   */\n      tag_167\n      jump\t// in\n    tag_181:\n        /* \"#utility.yul\":1080:1155   */\n      swap1\n      pop\n        /* \"#utility.yul\":1178:1184   */\n      dup3\n        /* \"#utility.yul\":1171:1176   */\n      dup2\n        /* \"#utility.yul\":1164:1185   */\n      mstore\n        /* \"#utility.yul\":1216:1220   */\n      0x20\n        /* \"#utility.yul\":1209:1214   */\n      dup2\n        /* \"#utility.yul\":1205:1221   */\n      add\n        /* \"#utility.yul\":1254:1257   */\n      dup5\n        /* \"#utility.yul\":1245:1251   */\n      dup5\n        /* \"#utility.yul\":1240:1243   */\n      dup5\n        /* \"#utility.yul\":1236:1252   */\n      add\n        /* \"#utility.yul\":1233:1258   */\n      gt\n        /* \"#utility.yul\":1230:1342   */\n      iszero\n      tag_184\n      jumpi\n        /* \"#utility.yul\":1261:1340   */\n      tag_185\n      tag_186\n      jump\t// in\n    tag_185:\n        /* \"#utility.yul\":1230:1342   */\n    tag_184:\n        /* \"#utility.yul\":1351:1392   */\n      tag_187\n        /* \"#utility.yul\":1385:1391   */\n      dup5\n        /* \"#utility.yul\":1380:1383   */\n      dup3\n        /* \"#utility.yul\":1375:1378   */\n      dup6\n        /* \"#utility.yul\":1351:1392   */\n      tag_188\n      jump\t// in\n    tag_187:\n        /* \"#utility.yul\":1070:1398   */\n      pop\n        /* \"#utility.yul\":986:1398   */\n      swap4\n      swap3\n      pop\n      pop\n      pop\n      jump\t// out\n        /* \"#utility.yul\":1404:1543   */\n    tag_189:\n        /* \"#utility.yul\":1450:1455   */\n      0x00\n        /* \"#utility.yul\":1488:1494   */\n      dup2\n        /* \"#utility.yul\":1475:1495   */\n      calldataload\n        /* \"#utility.yul\":1466:1495   */\n      swap1\n      pop\n        /* \"#utility.yul\":1504:1537   */\n      tag_191\n        /* \"#utility.yul\":1531:1536   */\n      dup2\n        /* \"#utility.yul\":1504:1537   */\n      tag_192\n      jump\t// in\n    tag_191:\n        /* \"#utility.yul\":1404:1543   */\n      swap3\n      swap2\n      pop\n      pop\n      jump\t// out\n        /* \"#utility.yul\":1565:1955   */\n    tag_193:\n        /* \"#utility.yul\":1646:1651   */\n      0x00\n        /* \"#utility.yul\":1695:1698   */\n      dup3\n        /* \"#utility.yul\":1688:1692   */\n      0x1f\n        /* \"#utility.yul\":1680:1686   */\n      dup4\n        /* \"#utility.yul\":1676:1693   */\n      add\n        /* \"#utility.yul\":1672:1699   */\n      slt\n        /* \"#utility.yul\":1662:1784   */\n      tag_195\n      jumpi\n        /* \"#utility.yul\":1703:1782   */\n      tag_196\n      tag_176\n      jump\t// in\n    tag_196:\n        /* \"#utility.yul\":1662:1784   */\n    tag_195:\n        /* \"#utility.yul\":1820:1826   */\n      dup2\n        /* \"#utility.yul\":1807:1827   */\n      calldataload\n        /* \"#utility.yul\":1845:1949   */\n      tag_197\n        /* \"#utility.yul\":1945:1948   */\n      dup5\n        /* \"#utility.yul\":1937:1943   */\n      dup3\n        /* \"#utility.yul\":1930:1934   */\n      0x20\n        /* \"#utility.yul\":1922:1928   */\n      dup7\n        /* \"#utility.yul\":1918:1935   */\n      add\n        /* \"#utility.yul\":1845:1949   */\n      tag_162\n      jump\t// in\n    tag_197:\n        /* \"#utility.yul\":1836:1949   */\n      swap2\n      pop\n        /* \"#utility.yul\":1652:1955   */\n      pop\n        /* \"#utility.yul\":1565:1955   */\n      swap3\n      swap2\n      pop\n      pop\n      jump\t// out\n        /* \"#utility.yul\":1975:2315   */\n    tag_178:\n        /* \"#utility.yul\":2031:2036   */\n      0x00\n        /* \"#utility.yul\":2080:2083   */\n      dup3\n        /* \"#utility.yul\":2073:2077   */\n      0x1f\n        /* \"#utility.yul\":2065:2071   */\n      dup4\n        /* \"#utility.yul\":2061:2078   */\n      add\n        /* \"#utility.yul\":2057:2084   */\n      slt\n        /* \"#utility.yul\":2047:2169   */\n      tag_199\n      jumpi\n        /* \"#utility.yul\":2088:2167   */\n      tag_200\n      tag_176\n      jump\t// in\n    tag_200:\n        /* \"#utility.yul\":2047:2169   */\n    tag_199:\n        /* \"#utility.yul\":2205:2211   */\n      dup2\n        /* \"#utility.yul\":2192:2212   */\n      calldataload\n        /* \"#utility.yul\":2230:2309   */\n      tag_201\n        /* \"#utility.yul\":2305:2308   */\n      dup5\n        /* \"#utility.yul\":2297:2303   */\n      dup3\n        /* \"#utility.yul\":2290:2294   */\n      0x20\n        /* \"#utility.yul\":2282:2288   */\n      dup7\n        /* \"#utility.yul\":2278:2295   */\n      add\n        /* \"#utility.yul\":2230:2309   */\n      tag_179\n      jump\t// in\n    tag_201:\n        /* \"#utility.yul\":2221:2309   */\n      swap2\n      pop\n        /* \"#utility.yul\":2037:2315   */\n      pop\n        /* \"#utility.yul\":1975:2315   */\n      swap3\n      swap2\n      pop\n      pop\n      jump\t// out\n        /* \"#utility.yul\":2321:2650   */\n    tag_17:\n        /* \"#utility.yul\":2380:2386   */\n      0x00\n        /* \"#utility.yul\":2429:2431   */\n      0x20\n        /* \"#utility.yul\":2417:2426   */\n      dup3\n        /* \"#utility.yul\":2408:2415   */\n      dup5\n        /* \"#utility.yul\":2404:2427   */\n      sub\n        /* \"#utility.yul\":2400:2432   */\n      slt\n        /* \"#utility.yul\":2397:2516   */\n      iszero\n      tag_203\n      jumpi\n        /* \"#utility.yul\":2435:2514   */\n      tag_204\n      tag_205\n      jump\t// in\n    tag_204:\n        /* \"#utility.yul\":2397:2516   */\n    tag_203:\n        /* \"#utility.yul\":2555:2556   */\n      0x00\n        /* \"#utility.yul\":2580:2633   */\n      tag_206\n        /* \"#utility.yul\":2625:2632   */\n      dup5\n        /* \"#utility.yul\":2616:2622   */\n      dup3\n        /* \"#utility.yul\":2605:2614   */\n      dup6\n        /* \"#utility.yul\":2601:2623   */\n      add\n        /* \"#utility.yul\":2580:2633   */\n      tag_189\n      jump\t// in\n    tag_206:\n        /* \"#utility.yul\":2570:2633   */\n      swap2\n      pop\n        /* \"#utility.yul\":2526:2643   */\n      pop\n        /* \"#utility.yul\":2321:2650   */\n      swap3\n      swap2\n      pop\n      pop\n      jump\t// out\n        /* \"#utility.yul\":2656:3965   */\n    tag_23:\n        /* \"#utility.yul\":2838:2844   */\n      0x00\n        /* \"#utility.yul\":2846:2852   */\n      dup1\n        /* \"#utility.yul\":2854:2860   */\n      0x00\n        /* \"#utility.yul\":2903:2905   */\n      0x60\n        /* \"#utility.yul\":2891:2900   */\n      dup5\n        /* \"#utility.yul\":2882:2889   */\n      dup7\n        /* \"#utility.yul\":2878:2901   */\n      sub\n        /* \"#utility.yul\":2874:2906   */\n      slt\n        /* \"#utility.yul\":2871:2990   */\n      iszero\n      tag_208\n      jumpi\n        /* \"#utility.yul\":2909:2988   */\n      tag_209\n      tag_205\n      jump\t// in\n    tag_209:\n        /* \"#utility.yul\":2871:2990   */\n    tag_208:\n        /* \"#utility.yul\":3057:3058   */\n      0x00\n        /* \"#utility.yul\":3046:3055   */\n      dup5\n        /* \"#utility.yul\":3042:3059   */\n      add\n        /* \"#utility.yul\":3029:3060   */\n      calldataload\n        /* \"#utility.yul\":3087:3105   */\n      0xffffffffffffffff\n        /* \"#utility.yul\":3079:3085   */\n      dup2\n        /* \"#utility.yul\":3076:3106   */\n      gt\n        /* \"#utility.yul\":3073:3190   */\n      iszero\n      tag_210\n      jumpi\n        /* \"#utility.yul\":3109:3188   */\n      tag_211\n      tag_212\n      jump\t// in\n    tag_211:\n        /* \"#utility.yul\":3073:3190   */\n    tag_210:\n        /* \"#utility.yul\":3214:3302   */\n      tag_213\n        /* \"#utility.yul\":3294:3301   */\n      dup7\n        /* \"#utility.yul\":3285:3291   */\n      dup3\n        /* \"#utility.yul\":3274:3283   */\n      dup8\n        /* \"#utility.yul\":3270:3292   */\n      add\n        /* \"#utility.yul\":3214:3302   */\n      tag_193\n      jump\t// in\n    tag_213:\n        /* \"#utility.yul\":3204:3302   */\n      swap4\n      pop\n        /* \"#utility.yul\":3000:3312   */\n      pop\n        /* \"#utility.yul\":3379:3381   */\n      0x20\n        /* \"#utility.yul\":3368:3377   */\n      dup5\n        /* \"#utility.yul\":3364:3382   */\n      add\n        /* \"#utility.yul\":3351:3383   */\n      calldataload\n        /* \"#utility.yul\":3410:3428   */\n      0xffffffffffffffff\n        /* \"#utility.yul\":3402:3408   */\n      dup2\n        /* \"#utility.yul\":3399:3429   */\n      gt\n        /* \"#utility.yul\":3396:3513   */\n      iszero\n      tag_214\n      jumpi\n        /* \"#utility.yul\":3432:3511   */\n      tag_215\n      tag_212\n      jump\t// in\n    tag_215:\n        /* \"#utility.yul\":3396:3513   */\n    tag_214:\n        /* \"#utility.yul\":3537:3625   */\n      tag_216\n        /* \"#utility.yul\":3617:3624   */\n      dup7\n        /* \"#utility.yul\":3608:3614   */\n      dup3\n        /* \"#utility.yul\":3597:3606   */\n      dup8\n        /* \"#utility.yul\":3593:3615   */\n      add\n        /* \"#utility.yul\":3537:3625   */\n      tag_193\n      jump\t// in\n    tag_216:\n        /* \"#utility.yul\":3527:3625   */\n      swap3\n      pop\n        /* \"#utility.yul\":3322:3635   */\n      pop\n        /* \"#utility.yul\":3702:3704   */\n      0x40\n        /* \"#utility.yul\":3691:3700   */\n      dup5\n        /* \"#utility.yul\":3687:3705   */\n      add\n        /* \"#utility.yul\":3674:3706   */\n      calldataload\n        /* \"#utility.yul\":3733:3751   */\n      0xffffffffffffffff\n        /* \"#utility.yul\":3725:3731   */\n      dup2\n        /* \"#utility.yul\":3722:3752   */\n      gt\n        /* \"#utility.yul\":3719:3836   */\n      iszero\n      tag_217\n      jumpi\n        /* \"#utility.yul\":3755:3834   */\n      tag_218\n      tag_212\n      jump\t// in\n    tag_218:\n        /* \"#utility.yul\":3719:3836   */\n    tag_217:\n        /* \"#utility.yul\":3860:3948   */\n      tag_219\n        /* \"#utility.yul\":3940:3947   */\n      dup7\n        /* \"#utility.yul\":3931:3937   */\n      dup3\n        /* \"#utility.yul\":3920:3929   */\n      dup8\n        /* \"#utility.yul\":3916:3938   */\n      add\n        /* \"#utility.yul\":3860:3948   */\n      tag_193\n      jump\t// in\n    tag_219:\n        /* \"#utility.yul\":3850:3948   */\n      swap2\n      pop\n        /* \"#utility.yul\":3645:3958   */\n      pop\n        /* \"#utility.yul\":2656:3965   */\n      swap3\n      pop\n      swap3\n      pop\n      swap3\n      jump\t// out\n        /* \"#utility.yul\":3971:5782   */\n    tag_10:\n        /* \"#utility.yul\":4116:4122   */\n      0x00\n        /* \"#utility.yul\":4124:4130   */\n      dup1\n        /* \"#utility.yul\":4132:4138   */\n      0x00\n        /* \"#utility.yul\":4140:4146   */\n      dup1\n        /* \"#utility.yul\":4148:4154   */\n      0x00\n        /* \"#utility.yul\":4197:4200   */\n      0xa0\n        /* \"#utility.yul\":4185:4194   */\n      dup7\n        /* \"#utility.yul\":4176:4183   */\n      dup9\n        /* \"#utility.yul\":4172:4195   */\n      sub\n        /* \"#utility.yul\":4168:4201   */\n      slt\n        /* \"#utility.yul\":4165:4285   */\n      iszero\n      tag_221\n      jumpi\n        /* \"#utility.yul\":4204:4283   */\n      tag_222\n      tag_205\n      jump\t// in\n    tag_222:\n        /* \"#utility.yul\":4165:4285   */\n    tag_221:\n        /* \"#utility.yul\":4352:4353   */\n      0x00\n        /* \"#utility.yul\":4341:4350   */\n      dup7\n        /* \"#utility.yul\":4337:4354   */\n      add\n        /* \"#utility.yul\":4324:4355   */\n      calldataload\n        /* \"#utility.yul\":4382:4400   */\n      0xffffffffffffffff\n        /* \"#utility.yul\":4374:4380   */\n      dup2\n        /* \"#utility.yul\":4371:4401   */\n      gt\n        /* \"#utility.yul\":4368:4485   */\n      iszero\n      tag_223\n      jumpi\n        /* \"#utility.yul\":4404:4483   */\n      tag_224\n      tag_212\n      jump\t// in\n    tag_224:\n        /* \"#utility.yul\":4368:4485   */\n    tag_223:\n        /* \"#utility.yul\":4509:4572   */\n      tag_225\n        /* \"#utility.yul\":4564:4571   */\n      dup9\n        /* \"#utility.yul\":4555:4561   */\n      dup3\n        /* \"#utility.yul\":4544:4553   */\n      dup10\n        /* \"#utility.yul\":4540:4562   */\n      add\n        /* \"#utility.yul\":4509:4572   */\n      tag_178\n      jump\t// in\n    tag_225:\n        /* \"#utility.yul\":4499:4572   */\n      swap6\n      pop\n        /* \"#utility.yul\":4295:4582   */\n      pop\n        /* \"#utility.yul\":4649:4651   */\n      0x20\n        /* \"#utility.yul\":4638:4647   */\n      dup7\n        /* \"#utility.yul\":4634:4652   */\n      add\n        /* \"#utility.yul\":4621:4653   */\n      calldataload\n        /* \"#utility.yul\":4680:4698   */\n      0xffffffffffffffff\n        /* \"#utility.yul\":4672:4678   */\n      dup2\n        /* \"#utility.yul\":4669:4699   */\n      gt\n        /* \"#utility.yul\":4666:4783   */\n      iszero\n      tag_226\n      jumpi\n        /* \"#utility.yul\":4702:4781   */\n      tag_227\n      tag_212\n      jump\t// in\n    tag_227:\n        /* \"#utility.yul\":4666:4783   */\n    tag_226:\n        /* \"#utility.yul\":4807:4870   */\n      tag_228\n        /* \"#utility.yul\":4862:4869   */\n      dup9\n        /* \"#utility.yul\":4853:4859   */\n      dup3\n        /* \"#utility.yul\":4842:4851   */\n      dup10\n        /* \"#utility.yul\":4838:4860   */\n      add\n        /* \"#utility.yul\":4807:4870   */\n      tag_178\n      jump\t// in\n    tag_228:\n        /* \"#utility.yul\":4797:4870   */\n      swap5\n      pop\n        /* \"#utility.yul\":4592:4880   */\n      pop\n        /* \"#utility.yul\":4947:4949   */\n      0x40\n        /* \"#utility.yul\":4936:4945   */\n      dup7\n        /* \"#utility.yul\":4932:4950   */\n      add\n        /* \"#utility.yul\":4919:4951   */\n      calldataload\n        /* \"#utility.yul\":4978:4996   */\n      0xffffffffffffffff\n        /* \"#utility.yul\":4970:4976   */\n      dup2\n        /* \"#utility.yul\":4967:4997   */\n      gt\n        /* \"#utility.yul\":4964:5081   */\n      iszero\n      tag_229\n      jumpi\n        /* \"#utility.yul\":5000:5079   */\n      tag_230\n      tag_212\n      jump\t// in\n    tag_230:\n        /* \"#utility.yul\":4964:5081   */\n    tag_229:\n        /* \"#utility.yul\":5105:5168   */\n      tag_231\n        /* \"#utility.yul\":5160:5167   */\n      dup9\n        /* \"#utility.yul\":5151:5157   */\n      dup3\n        /* \"#utility.yul\":5140:5149   */\n      dup10\n        /* \"#utility.yul\":5136:5158   */\n      add\n        /* \"#utility.yul\":5105:5168   */\n      tag_178\n      jump\t// in\n    tag_231:\n        /* \"#utility.yul\":5095:5168   */\n      swap4\n      pop\n        /* \"#utility.yul\":4890:5178   */\n      pop\n        /* \"#utility.yul\":5245:5247   */\n      0x60\n        /* \"#utility.yul\":5234:5243   */\n      dup7\n        /* \"#utility.yul\":5230:5248   */\n      add\n        /* \"#utility.yul\":5217:5249   */\n      calldataload\n        /* \"#utility.yul\":5276:5294   */\n      0xffffffffffffffff\n        /* \"#utility.yul\":5268:5274   */\n      dup2\n        /* \"#utility.yul\":5265:5295   */\n      gt\n        /* \"#utility.yul\":5262:5379   */\n      iszero\n      tag_232\n      jumpi\n        /* \"#utility.yul\":5298:5377   */\n      tag_233\n      tag_212\n      jump\t// in\n    tag_233:\n        /* \"#utility.yul\":5262:5379   */\n    tag_232:\n        /* \"#utility.yul\":5403:5466   */\n      tag_234\n        /* \"#utility.yul\":5458:5465   */\n      dup9\n        /* \"#utility.yul\":5449:5455   */\n      dup3\n        /* \"#utility.yul\":5438:5447   */\n      dup10\n        /* \"#utility.yul\":5434:5456   */\n      add\n        /* \"#utility.yul\":5403:5466   */\n      tag_178\n      jump\t// in\n    tag_234:\n        /* \"#utility.yul\":5393:5466   */\n      swap3\n      pop\n        /* \"#utility.yul\":5188:5476   */\n      pop\n        /* \"#utility.yul\":5543:5546   */\n      0x80\n        /* \"#utility.yul\":5532:5541   */\n      dup7\n        /* \"#utility.yul\":5528:5547   */\n      add\n        /* \"#utility.yul\":5515:5548   */\n      calldataload\n        /* \"#utility.yul\":5575:5593   */\n      0xffffffffffffffff\n        /* \"#utility.yul\":5567:5573   */\n      dup2\n        /* \"#utility.yul\":5564:5594   */\n      gt\n        /* \"#utility.yul\":5561:5678   */\n      iszero\n      tag_235\n      jumpi\n        /* \"#utility.yul\":5597:5676   */\n      tag_236\n      tag_212\n      jump\t// in\n    tag_236:\n        /* \"#utility.yul\":5561:5678   */\n    tag_235:\n        /* \"#utility.yul\":5702:5765   */\n      tag_237\n        /* \"#utility.yul\":5757:5764   */\n      dup9\n        /* \"#utility.yul\":5748:5754   */\n      dup3\n        /* \"#utility.yul\":5737:5746   */\n      dup10\n        /* \"#utility.yul\":5733:5755   */\n      add\n        /* \"#utility.yul\":5702:5765   */\n      tag_178\n      jump\t// in\n    tag_237:\n        /* \"#utility.yul\":5692:5765   */\n      swap2\n      pop\n        /* \"#utility.yul\":5486:5775   */\n      pop\n        /* \"#utility.yul\":3971:5782   */\n      swap3\n      swap6\n      pop\n      swap3\n      swap6\n      swap1\n      swap4\n      pop\n      jump\t// out\n        /* \"#utility.yul\":5788:5984   */\n    tag_238:\n        /* \"#utility.yul\":5877:5887   */\n      0x00\n        /* \"#utility.yul\":5912:5978   */\n      tag_240\n        /* \"#utility.yul\":5974:5977   */\n      dup4\n        /* \"#utility.yul\":5966:5972   */\n      dup4\n        /* \"#utility.yul\":5912:5978   */\n      tag_241\n      jump\t// in\n    tag_240:\n        /* \"#utility.yul\":5898:5978   */\n      swap1\n      pop\n        /* \"#utility.yul\":5788:5984   */\n      swap3\n      swap2\n      pop\n      pop\n      jump\t// out\n        /* \"#utility.yul\":5990:6108   */\n    tag_242:\n        /* \"#utility.yul\":6077:6101   */\n      tag_244\n        /* \"#utility.yul\":6095:6100   */\n      dup2\n        /* \"#utility.yul\":6077:6101   */\n      tag_245\n      jump\t// in\n    tag_244:\n        /* \"#utility.yul\":6072:6075   */\n      dup3\n        /* \"#utility.yul\":6065:6102   */\n      mstore\n        /* \"#utility.yul\":5990:6108   */\n      pop\n      pop\n      jump\t// out\n        /* \"#utility.yul\":6142:7113   */\n    tag_246:\n        /* \"#utility.yul\":6271:6274   */\n      0x00\n        /* \"#utility.yul\":6300:6364   */\n      tag_248\n        /* \"#utility.yul\":6358:6363   */\n      dup3\n        /* \"#utility.yul\":6300:6364   */\n      tag_249\n      jump\t// in\n    tag_248:\n        /* \"#utility.yul\":6380:6466   */\n      tag_250\n        /* \"#utility.yul\":6459:6465   */\n      dup2\n        /* \"#utility.yul\":6454:6457   */\n      dup6\n        /* \"#utility.yul\":6380:6466   */\n      tag_251\n      jump\t// in\n    tag_250:\n        /* \"#utility.yul\":6373:6466   */\n      swap4\n      pop\n        /* \"#utility.yul\":6492:6495   */\n      dup4\n        /* \"#utility.yul\":6537:6541   */\n      0x20\n        /* \"#utility.yul\":6529:6535   */\n      dup3\n        /* \"#utility.yul\":6525:6542   */\n      mul\n        /* \"#utility.yul\":6520:6523   */\n      dup6\n        /* \"#utility.yul\":6516:6543   */\n      add\n        /* \"#utility.yul\":6567:6633   */\n      tag_252\n        /* \"#utility.yul\":6627:6632   */\n      dup6\n        /* \"#utility.yul\":6567:6633   */\n      tag_253\n      jump\t// in\n    tag_252:\n        /* \"#utility.yul\":6656:6663   */\n      dup1\n        /* \"#utility.yul\":6687:6688   */\n      0x00\n        /* \"#utility.yul\":6672:7068   */\n    tag_254:\n        /* \"#utility.yul\":6697:6703   */\n      dup6\n        /* \"#utility.yul\":6694:6695   */\n      dup2\n        /* \"#utility.yul\":6691:6704   */\n      lt\n        /* \"#utility.yul\":6672:7068   */\n      iszero\n      tag_256\n      jumpi\n        /* \"#utility.yul\":6768:6777   */\n      dup5\n        /* \"#utility.yul\":6762:6766   */\n      dup5\n        /* \"#utility.yul\":6758:6778   */\n      sub\n        /* \"#utility.yul\":6753:6756   */\n      dup10\n        /* \"#utility.yul\":6746:6779   */\n      mstore\n        /* \"#utility.yul\":6819:6825   */\n      dup2\n        /* \"#utility.yul\":6813:6826   */\n      mload\n        /* \"#utility.yul\":6847:6931   */\n      tag_257\n        /* \"#utility.yul\":6926:6930   */\n      dup6\n        /* \"#utility.yul\":6911:6924   */\n      dup3\n        /* \"#utility.yul\":6847:6931   */\n      tag_238\n      jump\t// in\n    tag_257:\n        /* \"#utility.yul\":6839:6931   */\n      swap5\n      pop\n        /* \"#utility.yul\":6954:7024   */\n      tag_258\n        /* \"#utility.yul\":7017:7023   */\n      dup4\n        /* \"#utility.yul\":6954:7024   */\n      tag_259\n      jump\t// in\n    tag_258:\n        /* \"#utility.yul\":6944:7024   */\n      swap3\n      pop\n        /* \"#utility.yul\":7053:7057   */\n      0x20\n        /* \"#utility.yul\":7048:7051   */\n      dup11\n        /* \"#utility.yul\":7044:7058   */\n      add\n        /* \"#utility.yul\":7037:7058   */\n      swap10\n      pop\n        /* \"#utility.yul\":6732:7068   */\n      pop\n        /* \"#utility.yul\":6719:6720   */\n      0x01\n        /* \"#utility.yul\":6716:6717   */\n      dup2\n        /* \"#utility.yul\":6712:6721   */\n      add\n        /* \"#utility.yul\":6707:6721   */\n      swap1\n      pop\n        /* \"#utility.yul\":6672:7068   */\n      jump(tag_254)\n    tag_256:\n        /* \"#utility.yul\":6676:6690   */\n      pop\n        /* \"#utility.yul\":7084:7088   */\n      dup3\n        /* \"#utility.yul\":7077:7088   */\n      swap8\n      pop\n        /* \"#utility.yul\":7104:7107   */\n      dup8\n        /* \"#utility.yul\":7097:7107   */\n      swap6\n      pop\n        /* \"#utility.yul\":6276:7113   */\n      pop\n      pop\n      pop\n      pop\n      pop\n        /* \"#utility.yul\":6142:7113   */\n      swap3\n      swap2\n      pop\n      pop\n      jump\t// out\n        /* \"#utility.yul\":7119:7463   */\n    tag_241:\n        /* \"#utility.yul\":7197:7200   */\n      0x00\n        /* \"#utility.yul\":7225:7264   */\n      tag_261\n        /* \"#utility.yul\":7258:7263   */\n      dup3\n        /* \"#utility.yul\":7225:7264   */\n      tag_262\n      jump\t// in\n    tag_261:\n        /* \"#utility.yul\":7280:7341   */\n      tag_263\n        /* \"#utility.yul\":7334:7340   */\n      dup2\n        /* \"#utility.yul\":7329:7332   */\n      dup6\n        /* \"#utility.yul\":7280:7341   */\n      tag_264\n      jump\t// in\n    tag_263:\n        /* \"#utility.yul\":7273:7341   */\n      swap4\n      pop\n        /* \"#utility.yul\":7350:7402   */\n      tag_265\n        /* \"#utility.yul\":7395:7401   */\n      dup2\n        /* \"#utility.yul\":7390:7393   */\n      dup6\n        /* \"#utility.yul\":7383:7387   */\n      0x20\n        /* \"#utility.yul\":7376:7381   */\n      dup7\n        /* \"#utility.yul\":7372:7388   */\n      add\n        /* \"#utility.yul\":7350:7402   */\n      tag_266\n      jump\t// in\n    tag_265:\n        /* \"#utility.yul\":7427:7456   */\n      tag_267\n        /* \"#utility.yul\":7449:7455   */\n      dup2\n        /* \"#utility.yul\":7427:7456   */\n      tag_268\n      jump\t// in\n    tag_267:\n        /* \"#utility.yul\":7422:7425   */\n      dup5\n        /* \"#utility.yul\":7418:7457   */\n      add\n        /* \"#utility.yul\":7411:7457   */\n      swap2\n      pop\n        /* \"#utility.yul\":7201:7463   */\n      pop\n        /* \"#utility.yul\":7119:7463   */\n      swap3\n      swap2\n      pop\n      pop\n      jump\t// out\n        /* \"#utility.yul\":7469:7833   */\n    tag_269:\n        /* \"#utility.yul\":7557:7560   */\n      0x00\n        /* \"#utility.yul\":7585:7624   */\n      tag_271\n        /* \"#utility.yul\":7618:7623   */\n      dup3\n        /* \"#utility.yul\":7585:7624   */\n      tag_262\n      jump\t// in\n    tag_271:\n        /* \"#utility.yul\":7640:7711   */\n      tag_272\n        /* \"#utility.yul\":7704:7710   */\n      dup2\n        /* \"#utility.yul\":7699:7702   */\n      dup6\n        /* \"#utility.yul\":7640:7711   */\n      tag_273\n      jump\t// in\n    tag_272:\n        /* \"#utility.yul\":7633:7711   */\n      swap4\n      pop\n        /* \"#utility.yul\":7720:7772   */\n      tag_274\n        /* \"#utility.yul\":7765:7771   */\n      dup2\n        /* \"#utility.yul\":7760:7763   */\n      dup6\n        /* \"#utility.yul\":7753:7757   */\n      0x20\n        /* \"#utility.yul\":7746:7751   */\n      dup7\n        /* \"#utility.yul\":7742:7758   */\n      add\n        /* \"#utility.yul\":7720:7772   */\n      tag_266\n      jump\t// in\n    tag_274:\n        /* \"#utility.yul\":7797:7826   */\n      tag_275\n        /* \"#utility.yul\":7819:7825   */\n      dup2\n        /* \"#utility.yul\":7797:7826   */\n      tag_268\n      jump\t// in\n    tag_275:\n        /* \"#utility.yul\":7792:7795   */\n      dup5\n        /* \"#utility.yul\":7788:7827   */\n      add\n        /* \"#utility.yul\":7781:7827   */\n      swap2\n      pop\n        /* \"#utility.yul\":7561:7833   */\n      pop\n        /* \"#utility.yul\":7469:7833   */\n      swap3\n      swap2\n      pop\n      pop\n      jump\t// out\n        /* \"#utility.yul\":7897:9315   */\n    tag_276:\n        /* \"#utility.yul\":8014:8017   */\n      0x00\n        /* \"#utility.yul\":8050:8054   */\n      0xa0\n        /* \"#utility.yul\":8045:8048   */\n      dup4\n        /* \"#utility.yul\":8041:8055   */\n      add\n        /* \"#utility.yul\":8138:8142   */\n      0x00\n        /* \"#utility.yul\":8131:8136   */\n      dup4\n        /* \"#utility.yul\":8127:8143   */\n      add\n        /* \"#utility.yul\":8121:8144   */\n      mload\n        /* \"#utility.yul\":8191:8194   */\n      dup5\n        /* \"#utility.yul\":8185:8189   */\n      dup3\n        /* \"#utility.yul\":8181:8195   */\n      sub\n        /* \"#utility.yul\":8174:8178   */\n      0x00\n        /* \"#utility.yul\":8169:8172   */\n      dup7\n        /* \"#utility.yul\":8165:8179   */\n      add\n        /* \"#utility.yul\":8158:8196   */\n      mstore\n        /* \"#utility.yul\":8217:8290   */\n      tag_278\n        /* \"#utility.yul\":8285:8289   */\n      dup3\n        /* \"#utility.yul\":8271:8283   */\n      dup3\n        /* \"#utility.yul\":8217:8290   */\n      tag_241\n      jump\t// in\n    tag_278:\n        /* \"#utility.yul\":8209:8290   */\n      swap2\n      pop\n        /* \"#utility.yul\":8065:8301   */\n      pop\n        /* \"#utility.yul\":8384:8388   */\n      0x20\n        /* \"#utility.yul\":8377:8382   */\n      dup4\n        /* \"#utility.yul\":8373:8389   */\n      add\n        /* \"#utility.yul\":8367:8390   */\n      mload\n        /* \"#utility.yul\":8437:8440   */\n      dup5\n        /* \"#utility.yul\":8431:8435   */\n      dup3\n        /* \"#utility.yul\":8427:8441   */\n      sub\n        /* \"#utility.yul\":8420:8424   */\n      0x20\n        /* \"#utility.yul\":8415:8418   */\n      dup7\n        /* \"#utility.yul\":8411:8425   */\n      add\n        /* \"#utility.yul\":8404:8442   */\n      mstore\n        /* \"#utility.yul\":8463:8536   */\n      tag_279\n        /* \"#utility.yul\":8531:8535   */\n      dup3\n        /* \"#utility.yul\":8517:8529   */\n      dup3\n        /* \"#utility.yul\":8463:8536   */\n      tag_241\n      jump\t// in\n    tag_279:\n        /* \"#utility.yul\":8455:8536   */\n      swap2\n      pop\n        /* \"#utility.yul\":8311:8547   */\n      pop\n        /* \"#utility.yul\":8631:8635   */\n      0x40\n        /* \"#utility.yul\":8624:8629   */\n      dup4\n        /* \"#utility.yul\":8620:8636   */\n      add\n        /* \"#utility.yul\":8614:8637   */\n      mload\n        /* \"#utility.yul\":8684:8687   */\n      dup5\n        /* \"#utility.yul\":8678:8682   */\n      dup3\n        /* \"#utility.yul\":8674:8688   */\n      sub\n        /* \"#utility.yul\":8667:8671   */\n      0x40\n        /* \"#utility.yul\":8662:8665   */\n      dup7\n        /* \"#utility.yul\":8658:8672   */\n      add\n        /* \"#utility.yul\":8651:8689   */\n      mstore\n        /* \"#utility.yul\":8710:8783   */\n      tag_280\n        /* \"#utility.yul\":8778:8782   */\n      dup3\n        /* \"#utility.yul\":8764:8776   */\n      dup3\n        /* \"#utility.yul\":8710:8783   */\n      tag_241\n      jump\t// in\n    tag_280:\n        /* \"#utility.yul\":8702:8783   */\n      swap2\n      pop\n        /* \"#utility.yul\":8557:8794   */\n      pop\n        /* \"#utility.yul\":8878:8882   */\n      0x60\n        /* \"#utility.yul\":8871:8876   */\n      dup4\n        /* \"#utility.yul\":8867:8883   */\n      add\n        /* \"#utility.yul\":8861:8884   */\n      mload\n        /* \"#utility.yul\":8931:8934   */\n      dup5\n        /* \"#utility.yul\":8925:8929   */\n      dup3\n        /* \"#utility.yul\":8921:8935   */\n      sub\n        /* \"#utility.yul\":8914:8918   */\n      0x60\n        /* \"#utility.yul\":8909:8912   */\n      dup7\n        /* \"#utility.yul\":8905:8919   */\n      add\n        /* \"#utility.yul\":8898:8936   */\n      mstore\n        /* \"#utility.yul\":8957:9030   */\n      tag_281\n        /* \"#utility.yul\":9025:9029   */\n      dup3\n        /* \"#utility.yul\":9011:9023   */\n      dup3\n        /* \"#utility.yul\":8957:9030   */\n      tag_241\n      jump\t// in\n    tag_281:\n        /* \"#utility.yul\":8949:9030   */\n      swap2\n      pop\n        /* \"#utility.yul\":8804:9041   */\n      pop\n        /* \"#utility.yul\":9125:9129   */\n      0x80\n        /* \"#utility.yul\":9118:9123   */\n      dup4\n        /* \"#utility.yul\":9114:9130   */\n      add\n        /* \"#utility.yul\":9108:9131   */\n      mload\n        /* \"#utility.yul\":9178:9181   */\n      dup5\n        /* \"#utility.yul\":9172:9176   */\n      dup3\n        /* \"#utility.yul\":9168:9182   */\n      sub\n        /* \"#utility.yul\":9161:9165   */\n      0x80\n        /* \"#utility.yul\":9156:9159   */\n      dup7\n        /* \"#utility.yul\":9152:9166   */\n      add\n        /* \"#utility.yul\":9145:9183   */\n      mstore\n        /* \"#utility.yul\":9204:9277   */\n      tag_282\n        /* \"#utility.yul\":9272:9276   */\n      dup3\n        /* \"#utility.yul\":9258:9270   */\n      dup3\n        /* \"#utility.yul\":9204:9277   */\n      tag_241\n      jump\t// in\n    tag_282:\n        /* \"#utility.yul\":9196:9277   */\n      swap2\n      pop\n        /* \"#utility.yul\":9051:9288   */\n      pop\n        /* \"#utility.yul\":9305:9309   */\n      dup1\n        /* \"#utility.yul\":9298:9309   */\n      swap2\n      pop\n        /* \"#utility.yul\":8019:9315   */\n      pop\n        /* \"#utility.yul\":7897:9315   */\n      swap3\n      swap2\n      pop\n      pop\n      jump\t// out\n        /* \"#utility.yul\":9373:10449   */\n    tag_283:\n        /* \"#utility.yul\":9484:9487   */\n      0x00\n        /* \"#utility.yul\":9520:9524   */\n      0x60\n        /* \"#utility.yul\":9515:9518   */\n      dup4\n        /* \"#utility.yul\":9511:9525   */\n      add\n        /* \"#utility.yul\":9611:9615   */\n      0x00\n        /* \"#utility.yul\":9604:9609   */\n      dup4\n        /* \"#utility.yul\":9600:9616   */\n      add\n        /* \"#utility.yul\":9594:9617   */\n      mload\n        /* \"#utility.yul\":9664:9667   */\n      dup5\n        /* \"#utility.yul\":9658:9662   */\n      dup3\n        /* \"#utility.yul\":9654:9668   */\n      sub\n        /* \"#utility.yul\":9647:9651   */\n      0x00\n        /* \"#utility.yul\":9642:9645   */\n      dup7\n        /* \"#utility.yul\":9638:9652   */\n      add\n        /* \"#utility.yul\":9631:9669   */\n      mstore\n        /* \"#utility.yul\":9690:9813   */\n      tag_285\n        /* \"#utility.yul\":9808:9812   */\n      dup3\n        /* \"#utility.yul\":9794:9806   */\n      dup3\n        /* \"#utility.yul\":9690:9813   */\n      tag_246\n      jump\t// in\n    tag_285:\n        /* \"#utility.yul\":9682:9813   */\n      swap2\n      pop\n        /* \"#utility.yul\":9535:9824   */\n      pop\n        /* \"#utility.yul\":9909:9913   */\n      0x20\n        /* \"#utility.yul\":9902:9907   */\n      dup4\n        /* \"#utility.yul\":9898:9914   */\n      add\n        /* \"#utility.yul\":9892:9915   */\n      mload\n        /* \"#utility.yul\":9962:9965   */\n      dup5\n        /* \"#utility.yul\":9956:9960   */\n      dup3\n        /* \"#utility.yul\":9952:9966   */\n      sub\n        /* \"#utility.yul\":9945:9949   */\n      0x20\n        /* \"#utility.yul\":9940:9943   */\n      dup7\n        /* \"#utility.yul\":9936:9950   */\n      add\n        /* \"#utility.yul\":9929:9967   */\n      mstore\n        /* \"#utility.yul\":9988:10111   */\n      tag_286\n        /* \"#utility.yul\":10106:10110   */\n      dup3\n        /* \"#utility.yul\":10092:10104   */\n      dup3\n        /* \"#utility.yul\":9988:10111   */\n      tag_246\n      jump\t// in\n    tag_286:\n        /* \"#utility.yul\":9980:10111   */\n      swap2\n      pop\n        /* \"#utility.yul\":9834:10122   */\n      pop\n        /* \"#utility.yul\":10209:10213   */\n      0x40\n        /* \"#utility.yul\":10202:10207   */\n      dup4\n        /* \"#utility.yul\":10198:10214   */\n      add\n        /* \"#utility.yul\":10192:10215   */\n      mload\n        /* \"#utility.yul\":10262:10265   */\n      dup5\n        /* \"#utility.yul\":10256:10260   */\n      dup3\n        /* \"#utility.yul\":10252:10266   */\n      sub\n        /* \"#utility.yul\":10245:10249   */\n      0x40\n        /* \"#utility.yul\":10240:10243   */\n      dup7\n        /* \"#utility.yul\":10236:10250   */\n      add\n        /* \"#utility.yul\":10229:10267   */\n      mstore\n        /* \"#utility.yul\":10288:10411   */\n      tag_287\n        /* \"#utility.yul\":10406:10410   */\n      dup3\n        /* \"#utility.yul\":10392:10404   */\n      dup3\n        /* \"#utility.yul\":10288:10411   */\n      tag_246\n      jump\t// in\n    tag_287:\n        /* \"#utility.yul\":10280:10411   */\n      swap2\n      pop\n        /* \"#utility.yul\":10132:10422   */\n      pop\n        /* \"#utility.yul\":10439:10443   */\n      dup1\n        /* \"#utility.yul\":10432:10443   */\n      swap2\n      pop\n        /* \"#utility.yul\":9489:10449   */\n      pop\n        /* \"#utility.yul\":9373:10449   */\n      swap3\n      swap2\n      pop\n      pop\n      jump\t// out\n        /* \"#utility.yul\":10455:10573   */\n    tag_288:\n        /* \"#utility.yul\":10542:10566   */\n      tag_290\n        /* \"#utility.yul\":10560:10565   */\n      dup2\n        /* \"#utility.yul\":10542:10566   */\n      tag_291\n      jump\t// in\n    tag_290:\n        /* \"#utility.yul\":10537:10540   */\n      dup3\n        /* \"#utility.yul\":10530:10567   */\n      mstore\n        /* \"#utility.yul\":10455:10573   */\n      pop\n      pop\n      jump\t// out\n        /* \"#utility.yul\":10579:12424   */\n    tag_20:\n        /* \"#utility.yul\":11086:11090   */\n      0x00\n        /* \"#utility.yul\":11124:11127   */\n      0x0120\n        /* \"#utility.yul\":11113:11122   */\n      dup3\n        /* \"#utility.yul\":11109:11128   */\n      add\n        /* \"#utility.yul\":11101:11128   */\n      swap1\n      pop\n        /* \"#utility.yul\":11138:11209   */\n      tag_293\n        /* \"#utility.yul\":11206:11207   */\n      0x00\n        /* \"#utility.yul\":11195:11204   */\n      dup4\n        /* \"#utility.yul\":11191:11208   */\n      add\n        /* \"#utility.yul\":11182:11188   */\n      dup13\n        /* \"#utility.yul\":11138:11209   */\n      tag_242\n      jump\t// in\n    tag_293:\n        /* \"#utility.yul\":11256:11265   */\n      dup2\n        /* \"#utility.yul\":11250:11254   */\n      dup2\n        /* \"#utility.yul\":11246:11266   */\n      sub\n        /* \"#utility.yul\":11241:11243   */\n      0x20\n        /* \"#utility.yul\":11230:11239   */\n      dup4\n        /* \"#utility.yul\":11226:11244   */\n      add\n        /* \"#utility.yul\":11219:11267   */\n      mstore\n        /* \"#utility.yul\":11284:11362   */\n      tag_294\n        /* \"#utility.yul\":11357:11361   */\n      dup2\n        /* \"#utility.yul\":11348:11354   */\n      dup12\n        /* \"#utility.yul\":11284:11362   */\n      tag_269\n      jump\t// in\n    tag_294:\n        /* \"#utility.yul\":11276:11362   */\n      swap1\n      pop\n        /* \"#utility.yul\":11409:11418   */\n      dup2\n        /* \"#utility.yul\":11403:11407   */\n      dup2\n        /* \"#utility.yul\":11399:11419   */\n      sub\n        /* \"#utility.yul\":11394:11396   */\n      0x40\n        /* \"#utility.yul\":11383:11392   */\n      dup4\n        /* \"#utility.yul\":11379:11397   */\n      add\n        /* \"#utility.yul\":11372:11420   */\n      mstore\n        /* \"#utility.yul\":11437:11515   */\n      tag_295\n        /* \"#utility.yul\":11510:11514   */\n      dup2\n        /* \"#utility.yul\":11501:11507   */\n      dup11\n        /* \"#utility.yul\":11437:11515   */\n      tag_269\n      jump\t// in\n    tag_295:\n        /* \"#utility.yul\":11429:11515   */\n      swap1\n      pop\n        /* \"#utility.yul\":11562:11571   */\n      dup2\n        /* \"#utility.yul\":11556:11560   */\n      dup2\n        /* \"#utility.yul\":11552:11572   */\n      sub\n        /* \"#utility.yul\":11547:11549   */\n      0x60\n        /* \"#utility.yul\":11536:11545   */\n      dup4\n        /* \"#utility.yul\":11532:11550   */\n      add\n        /* \"#utility.yul\":11525:11573   */\n      mstore\n        /* \"#utility.yul\":11590:11668   */\n      tag_296\n        /* \"#utility.yul\":11663:11667   */\n      dup2\n        /* \"#utility.yul\":11654:11660   */\n      dup10\n        /* \"#utility.yul\":11590:11668   */\n      tag_269\n      jump\t// in\n    tag_296:\n        /* \"#utility.yul\":11582:11668   */\n      swap1\n      pop\n        /* \"#utility.yul\":11716:11725   */\n      dup2\n        /* \"#utility.yul\":11710:11714   */\n      dup2\n        /* \"#utility.yul\":11706:11726   */\n      sub\n        /* \"#utility.yul\":11700:11703   */\n      0x80\n        /* \"#utility.yul\":11689:11698   */\n      dup4\n        /* \"#utility.yul\":11685:11704   */\n      add\n        /* \"#utility.yul\":11678:11727   */\n      mstore\n        /* \"#utility.yul\":11744:11822   */\n      tag_297\n        /* \"#utility.yul\":11817:11821   */\n      dup2\n        /* \"#utility.yul\":11808:11814   */\n      dup9\n        /* \"#utility.yul\":11744:11822   */\n      tag_269\n      jump\t// in\n    tag_297:\n        /* \"#utility.yul\":11736:11822   */\n      swap1\n      pop\n        /* \"#utility.yul\":11832:11905   */\n      tag_298\n        /* \"#utility.yul\":11900:11903   */\n      0xa0\n        /* \"#utility.yul\":11889:11898   */\n      dup4\n        /* \"#utility.yul\":11885:11904   */\n      add\n        /* \"#utility.yul\":11876:11882   */\n      dup8\n        /* \"#utility.yul\":11832:11905   */\n      tag_288\n      jump\t// in\n    tag_298:\n        /* \"#utility.yul\":11953:11962   */\n      dup2\n        /* \"#utility.yul\":11947:11951   */\n      dup2\n        /* \"#utility.yul\":11943:11963   */\n      sub\n        /* \"#utility.yul\":11937:11940   */\n      0xc0\n        /* \"#utility.yul\":11926:11935   */\n      dup4\n        /* \"#utility.yul\":11922:11941   */\n      add\n        /* \"#utility.yul\":11915:11964   */\n      mstore\n        /* \"#utility.yul\":11981:12059   */\n      tag_299\n        /* \"#utility.yul\":12054:12058   */\n      dup2\n        /* \"#utility.yul\":12045:12051   */\n      dup7\n        /* \"#utility.yul\":11981:12059   */\n      tag_269\n      jump\t// in\n    tag_299:\n        /* \"#utility.yul\":11973:12059   */\n      swap1\n      pop\n        /* \"#utility.yul\":12107:12116   */\n      dup2\n        /* \"#utility.yul\":12101:12105   */\n      dup2\n        /* \"#utility.yul\":12097:12117   */\n      sub\n        /* \"#utility.yul\":12091:12094   */\n      0xe0\n        /* \"#utility.yul\":12080:12089   */\n      dup4\n        /* \"#utility.yul\":12076:12095   */\n      add\n        /* \"#utility.yul\":12069:12118   */\n      mstore\n        /* \"#utility.yul\":12135:12241   */\n      tag_300\n        /* \"#utility.yul\":12236:12240   */\n      dup2\n        /* \"#utility.yul\":12227:12233   */\n      dup6\n        /* \"#utility.yul\":12135:12241   */\n      tag_276\n      jump\t// in\n    tag_300:\n        /* \"#utility.yul\":12127:12241   */\n      swap1\n      pop\n        /* \"#utility.yul\":12289:12298   */\n      dup2\n        /* \"#utility.yul\":12283:12287   */\n      dup2\n        /* \"#utility.yul\":12279:12299   */\n      sub\n        /* \"#utility.yul\":12273:12276   */\n      0x0100\n        /* \"#utility.yul\":12262:12271   */\n      dup4\n        /* \"#utility.yul\":12258:12277   */\n      add\n        /* \"#utility.yul\":12251:12300   */\n      mstore\n        /* \"#utility.yul\":12317:12417   */\n      tag_301\n        /* \"#utility.yul\":12412:12416   */\n      dup2\n        /* \"#utility.yul\":12403:12409   */\n      dup5\n        /* \"#utility.yul\":12317:12417   */\n      tag_283\n      jump\t// in\n    tag_301:\n        /* \"#utility.yul\":12309:12417   */\n      swap1\n      pop\n        /* \"#utility.yul\":10579:12424   */\n      swap11\n      swap10\n      pop\n      pop\n      pop\n      pop\n      pop\n      pop\n      pop\n      pop\n      pop\n      pop\n      jump\t// out\n        /* \"#utility.yul\":12430:12559   */\n    tag_167:\n        /* \"#utility.yul\":12464:12470   */\n      0x00\n        /* \"#utility.yul\":12491:12511   */\n      tag_303\n      tag_304\n      jump\t// in\n    tag_303:\n        /* \"#utility.yul\":12481:12511   */\n      swap1\n      pop\n        /* \"#utility.yul\":12520:12553   */\n      tag_305\n        /* \"#utility.yul\":12548:12552   */\n      dup3\n        /* \"#utility.yul\":12540:12546   */\n      dup3\n        /* \"#utility.yul\":12520:12553   */\n      tag_306\n      jump\t// in\n    tag_305:\n        /* \"#utility.yul\":12430:12559   */\n      swap2\n      swap1\n      pop\n      jump\t// out\n        /* \"#utility.yul\":12565:12640   */\n    tag_304:\n        /* \"#utility.yul\":12598:12604   */\n      0x00\n        /* \"#utility.yul\":12631:12633   */\n      0x40\n        /* \"#utility.yul\":12625:12634   */\n      mload\n        /* \"#utility.yul\":12615:12634   */\n      swap1\n      pop\n        /* \"#utility.yul\":12565:12640   */\n      swap1\n      jump\t// out\n        /* \"#utility.yul\":12646:12967   */\n    tag_166:\n        /* \"#utility.yul\":12733:12737   */\n      0x00\n        /* \"#utility.yul\":12823:12841   */\n      0xffffffffffffffff\n        /* \"#utility.yul\":12815:12821   */\n      dup3\n        /* \"#utility.yul\":12812:12842   */\n      gt\n        /* \"#utility.yul\":12809:12865   */\n      iszero\n      tag_309\n      jumpi\n        /* \"#utility.yul\":12845:12863   */\n      tag_310\n      tag_311\n      jump\t// in\n    tag_310:\n        /* \"#utility.yul\":12809:12865   */\n    tag_309:\n        /* \"#utility.yul\":12895:12899   */\n      0x20\n        /* \"#utility.yul\":12887:12893   */\n      dup3\n        /* \"#utility.yul\":12883:12900   */\n      mul\n        /* \"#utility.yul\":12875:12900   */\n      swap1\n      pop\n        /* \"#utility.yul\":12955:12959   */\n      0x20\n        /* \"#utility.yul\":12949:12953   */\n      dup2\n        /* \"#utility.yul\":12945:12960   */\n      add\n        /* \"#utility.yul\":12937:12960   */\n      swap1\n      pop\n        /* \"#utility.yul\":12646:12967   */\n      swap2\n      swap1\n      pop\n      jump\t// out\n        /* \"#utility.yul\":12973:13281   */\n    tag_183:\n        /* \"#utility.yul\":13035:13039   */\n      0x00\n        /* \"#utility.yul\":13125:13143   */\n      0xffffffffffffffff\n        /* \"#utility.yul\":13117:13123   */\n      dup3\n        /* \"#utility.yul\":13114:13144   */\n      gt\n        /* \"#utility.yul\":13111:13167   */\n      iszero\n      tag_313\n      jumpi\n        /* \"#utility.yul\":13147:13165   */\n      tag_314\n      tag_311\n      jump\t// in\n    tag_314:\n        /* \"#utility.yul\":13111:13167   */\n    tag_313:\n        /* \"#utility.yul\":13185:13214   */\n      tag_315\n        /* \"#utility.yul\":13207:13213   */\n      dup3\n        /* \"#utility.yul\":13185:13214   */\n      tag_268\n      jump\t// in\n    tag_315:\n        /* \"#utility.yul\":13177:13214   */\n      swap1\n      pop\n        /* \"#utility.yul\":13269:13273   */\n      0x20\n        /* \"#utility.yul\":13263:13267   */\n      dup2\n        /* \"#utility.yul\":13259:13274   */\n      add\n        /* \"#utility.yul\":13251:13274   */\n      swap1\n      pop\n        /* \"#utility.yul\":12973:13281   */\n      swap2\n      swap1\n      pop\n      jump\t// out\n        /* \"#utility.yul\":13287:13429   */\n    tag_253:\n        /* \"#utility.yul\":13364:13368   */\n      0x00\n        /* \"#utility.yul\":13387:13390   */\n      dup2\n        /* \"#utility.yul\":13379:13390   */\n      swap1\n      pop\n        /* \"#utility.yul\":13417:13421   */\n      0x20\n        /* \"#utility.yul\":13412:13415   */\n      dup3\n        /* \"#utility.yul\":13408:13422   */\n      add\n        /* \"#utility.yul\":13400:13422   */\n      swap1\n      pop\n        /* \"#utility.yul\":13287:13429   */\n      swap2\n      swap1\n      pop\n      jump\t// out\n        /* \"#utility.yul\":13435:13559   */\n    tag_249:\n        /* \"#utility.yul\":13512:13518   */\n      0x00\n        /* \"#utility.yul\":13546:13551   */\n      dup2\n        /* \"#utility.yul\":13540:13552   */\n      mload\n        /* \"#utility.yul\":13530:13552   */\n      swap1\n      pop\n        /* \"#utility.yul\":13435:13559   */\n      swap2\n      swap1\n      pop\n      jump\t// out\n        /* \"#utility.yul\":13565:13664   */\n    tag_262:\n        /* \"#utility.yul\":13617:13623   */\n      0x00\n        /* \"#utility.yul\":13651:13656   */\n      dup2\n        /* \"#utility.yul\":13645:13657   */\n      mload\n        /* \"#utility.yul\":13635:13657   */\n      swap1\n      pop\n        /* \"#utility.yul\":13565:13664   */\n      swap2\n      swap1\n      pop\n      jump\t// out\n        /* \"#utility.yul\":13670:13793   */\n    tag_259:\n        /* \"#utility.yul\":13750:13754   */\n      0x00\n        /* \"#utility.yul\":13782:13786   */\n      0x20\n        /* \"#utility.yul\":13777:13780   */\n      dup3\n        /* \"#utility.yul\":13773:13787   */\n      add\n        /* \"#utility.yul\":13765:13787   */\n      swap1\n      pop\n        /* \"#utility.yul\":13670:13793   */\n      swap2\n      swap1\n      pop\n      jump\t// out\n        /* \"#utility.yul\":13799:13983   */\n    tag_251:\n        /* \"#utility.yul\":13898:13909   */\n      0x00\n        /* \"#utility.yul\":13932:13938   */\n      dup3\n        /* \"#utility.yul\":13927:13930   */\n      dup3\n        /* \"#utility.yul\":13920:13939   */\n      mstore\n        /* \"#utility.yul\":13972:13976   */\n      0x20\n        /* \"#utility.yul\":13967:13970   */\n      dup3\n        /* \"#utility.yul\":13963:13977   */\n      add\n        /* \"#utility.yul\":13948:13977   */\n      swap1\n      pop\n        /* \"#utility.yul\":13799:13983   */\n      swap3\n      swap2\n      pop\n      pop\n      jump\t// out\n        /* \"#utility.yul\":13989:14148   */\n    tag_264:\n        /* \"#utility.yul\":14063:14074   */\n      0x00\n        /* \"#utility.yul\":14097:14103   */\n      dup3\n        /* \"#utility.yul\":14092:14095   */\n      dup3\n        /* \"#utility.yul\":14085:14104   */\n      mstore\n        /* \"#utility.yul\":14137:14141   */\n      0x20\n        /* \"#utility.yul\":14132:14135   */\n      dup3\n        /* \"#utility.yul\":14128:14142   */\n      add\n        /* \"#utility.yul\":14113:14142   */\n      swap1\n      pop\n        /* \"#utility.yul\":13989:14148   */\n      swap3\n      swap2\n      pop\n      pop\n      jump\t// out\n        /* \"#utility.yul\":14154:14323   */\n    tag_273:\n        /* \"#utility.yul\":14238:14249   */\n      0x00\n        /* \"#utility.yul\":14272:14278   */\n      dup3\n        /* \"#utility.yul\":14267:14270   */\n      dup3\n        /* \"#utility.yul\":14260:14279   */\n      mstore\n        /* \"#utility.yul\":14312:14316   */\n      0x20\n        /* \"#utility.yul\":14307:14310   */\n      dup3\n        /* \"#utility.yul\":14303:14317   */\n      add\n        /* \"#utility.yul\":14288:14317   */\n      swap1\n      pop\n        /* \"#utility.yul\":14154:14323   */\n      swap3\n      swap2\n      pop\n      pop\n      jump\t// out\n        /* \"#utility.yul\":14329:14425   */\n    tag_245:\n        /* \"#utility.yul\":14366:14373   */\n      0x00\n        /* \"#utility.yul\":14395:14419   */\n      tag_324\n        /* \"#utility.yul\":14413:14418   */\n      dup3\n        /* \"#utility.yul\":14395:14419   */\n      tag_325\n      jump\t// in\n    tag_324:\n        /* \"#utility.yul\":14384:14419   */\n      swap1\n      pop\n        /* \"#utility.yul\":14329:14425   */\n      swap2\n      swap1\n      pop\n      jump\t// out\n        /* \"#utility.yul\":14431:14557   */\n    tag_325:\n        /* \"#utility.yul\":14468:14475   */\n      0x00\n        /* \"#utility.yul\":14508:14550   */\n      0xffffffffffffffffffffffffffffffffffffffff\n        /* \"#utility.yul\":14501:14506   */\n      dup3\n        /* \"#utility.yul\":14497:14551   */\n      and\n        /* \"#utility.yul\":14486:14551   */\n      swap1\n      pop\n        /* \"#utility.yul\":14431:14557   */\n      swap2\n      swap1\n      pop\n      jump\t// out\n        /* \"#utility.yul\":14563:14640   */\n    tag_291:\n        /* \"#utility.yul\":14600:14607   */\n      0x00\n        /* \"#utility.yul\":14629:14634   */\n      dup2\n        /* \"#utility.yul\":14618:14634   */\n      swap1\n      pop\n        /* \"#utility.yul\":14563:14640   */\n      swap2\n      swap1\n      pop\n      jump\t// out\n        /* \"#utility.yul\":14646:14800   */\n    tag_188:\n        /* \"#utility.yul\":14730:14736   */\n      dup3\n        /* \"#utility.yul\":14725:14728   */\n      dup2\n        /* \"#utility.yul\":14720:14723   */\n      dup4\n        /* \"#utility.yul\":14707:14737   */\n      calldatacopy\n        /* \"#utility.yul\":14792:14793   */\n      0x00\n        /* \"#utility.yul\":14783:14789   */\n      dup4\n        /* \"#utility.yul\":14778:14781   */\n      dup4\n        /* \"#utility.yul\":14774:14790   */\n      add\n        /* \"#utility.yul\":14767:14794   */\n      mstore\n        /* \"#utility.yul\":14646:14800   */\n      pop\n      pop\n      pop\n      jump\t// out\n        /* \"#utility.yul\":14806:15113   */\n    tag_266:\n        /* \"#utility.yul\":14874:14875   */\n      0x00\n        /* \"#utility.yul\":14884:14997   */\n    tag_330:\n        /* \"#utility.yul\":14898:14904   */\n      dup4\n        /* \"#utility.yul\":14895:14896   */\n      dup2\n        /* \"#utility.yul\":14892:14905   */\n      lt\n        /* \"#utility.yul\":14884:14997   */\n      iszero\n      tag_332\n      jumpi\n        /* \"#utility.yul\":14983:14984   */\n      dup1\n        /* \"#utility.yul\":14978:14981   */\n      dup3\n        /* \"#utility.yul\":14974:14985   */\n      add\n        /* \"#utility.yul\":14968:14986   */\n      mload\n        /* \"#utility.yul\":14964:14965   */\n      dup2\n        /* \"#utility.yul\":14959:14962   */\n      dup5\n        /* \"#utility.yul\":14955:14966   */\n      add\n        /* \"#utility.yul\":14948:14987   */\n      mstore\n        /* \"#utility.yul\":14920:14922   */\n      0x20\n        /* \"#utility.yul\":14917:14918   */\n      dup2\n        /* \"#utility.yul\":14913:14923   */\n      add\n        /* \"#utility.yul\":14908:14923   */\n      swap1\n      pop\n        /* \"#utility.yul\":14884:14997   */\n      jump(tag_330)\n    tag_332:\n        /* \"#utility.yul\":15015:15021   */\n      dup4\n        /* \"#utility.yul\":15012:15013   */\n      dup2\n        /* \"#utility.yul\":15009:15022   */\n      gt\n        /* \"#utility.yul\":15006:15107   */\n      iszero\n      tag_333\n      jumpi\n        /* \"#utility.yul\":15095:15096   */\n      0x00\n        /* \"#utility.yul\":15086:15092   */\n      dup5\n        /* \"#utility.yul\":15081:15084   */\n      dup5\n        /* \"#utility.yul\":15077:15093   */\n      add\n        /* \"#utility.yul\":15070:15097   */\n      mstore\n        /* \"#utility.yul\":15006:15107   */\n    tag_333:\n        /* \"#utility.yul\":14855:15113   */\n      pop\n        /* \"#utility.yul\":14806:15113   */\n      pop\n      pop\n      pop\n      jump\t// out\n        /* \"#utility.yul\":15119:15439   */\n    tag_41:\n        /* \"#utility.yul\":15163:15169   */\n      0x00\n        /* \"#utility.yul\":15200:15201   */\n      0x02\n        /* \"#utility.yul\":15194:15198   */\n      dup3\n        /* \"#utility.yul\":15190:15202   */\n      div\n        /* \"#utility.yul\":15180:15202   */\n      swap1\n      pop\n        /* \"#utility.yul\":15247:15248   */\n      0x01\n        /* \"#utility.yul\":15241:15245   */\n      dup3\n        /* \"#utility.yul\":15237:15249   */\n      and\n        /* \"#utility.yul\":15268:15286   */\n      dup1\n        /* \"#utility.yul\":15258:15339   */\n      tag_335\n      jumpi\n        /* \"#utility.yul\":15324:15328   */\n      0x7f\n        /* \"#utility.yul\":15316:15322   */\n      dup3\n        /* \"#utility.yul\":15312:15329   */\n      and\n        /* \"#utility.yul\":15302:15329   */\n      swap2\n      pop\n        /* \"#utility.yul\":15258:15339   */\n    tag_335:\n        /* \"#utility.yul\":15386:15388   */\n      0x20\n        /* \"#utility.yul\":15378:15384   */\n      dup3\n        /* \"#utility.yul\":15375:15389   */\n      lt\n        /* \"#utility.yul\":15355:15373   */\n      dup2\n        /* \"#utility.yul\":15352:15390   */\n      eq\n        /* \"#utility.yul\":15349:15433   */\n      iszero\n      tag_336\n      jumpi\n        /* \"#utility.yul\":15405:15423   */\n      tag_337\n      tag_338\n      jump\t// in\n    tag_337:\n        /* \"#utility.yul\":15349:15433   */\n    tag_336:\n        /* \"#utility.yul\":15170:15439   */\n      pop\n        /* \"#utility.yul\":15119:15439   */\n      swap2\n      swap1\n      pop\n      jump\t// out\n        /* \"#utility.yul\":15445:15726   */\n    tag_306:\n        /* \"#utility.yul\":15528:15555   */\n      tag_340\n        /* \"#utility.yul\":15550:15554   */\n      dup3\n        /* \"#utility.yul\":15528:15555   */\n      tag_268\n      jump\t// in\n    tag_340:\n        /* \"#utility.yul\":15520:15526   */\n      dup2\n        /* \"#utility.yul\":15516:15556   */\n      add\n        /* \"#utility.yul\":15658:15664   */\n      dup2\n        /* \"#utility.yul\":15646:15656   */\n      dup2\n        /* \"#utility.yul\":15643:15665   */\n      lt\n        /* \"#utility.yul\":15622:15640   */\n      0xffffffffffffffff\n        /* \"#utility.yul\":15610:15620   */\n      dup3\n        /* \"#utility.yul\":15607:15641   */\n      gt\n        /* \"#utility.yul\":15604:15666   */\n      or\n        /* \"#utility.yul\":15601:15689   */\n      iszero\n      tag_341\n      jumpi\n        /* \"#utility.yul\":15669:15687   */\n      tag_342\n      tag_311\n      jump\t// in\n    tag_342:\n        /* \"#utility.yul\":15601:15689   */\n    tag_341:\n        /* \"#utility.yul\":15709:15719   */\n      dup1\n        /* \"#utility.yul\":15705:15707   */\n      0x40\n        /* \"#utility.yul\":15698:15720   */\n      mstore\n        /* \"#utility.yul\":15488:15726   */\n      pop\n        /* \"#utility.yul\":15445:15726   */\n      pop\n      pop\n      jump\t// out\n        /* \"#utility.yul\":15732:15912   */\n    tag_338:\n        /* \"#utility.yul\":15780:15857   */\n      0x4e487b7100000000000000000000000000000000000000000000000000000000\n        /* \"#utility.yul\":15777:15778   */\n      0x00\n        /* \"#utility.yul\":15770:15858   */\n      mstore\n        /* \"#utility.yul\":15877:15881   */\n      0x22\n        /* \"#utility.yul\":15874:15875   */\n      0x04\n        /* \"#utility.yul\":15867:15882   */\n      mstore\n        /* \"#utility.yul\":15901:15905   */\n      0x24\n        /* \"#utility.yul\":15898:15899   */\n      0x00\n        /* \"#utility.yul\":15891:15906   */\n      revert\n        /* \"#utility.yul\":15918:16098   */\n    tag_311:\n        /* \"#utility.yul\":15966:16043   */\n      0x4e487b7100000000000000000000000000000000000000000000000000000000\n        /* \"#utility.yul\":15963:15964   */\n      0x00\n        /* \"#utility.yul\":15956:16044   */\n      mstore\n        /* \"#utility.yul\":16063:16067   */\n      0x41\n        /* \"#utility.yul\":16060:16061   */\n      0x04\n        /* \"#utility.yul\":16053:16068   */\n      mstore\n        /* \"#utility.yul\":16087:16091   */\n      0x24\n        /* \"#utility.yul\":16084:16085   */\n      0x00\n        /* \"#utility.yul\":16077:16092   */\n      revert\n        /* \"#utility.yul\":16104:16221   */\n    tag_176:\n        /* \"#utility.yul\":16213:16214   */\n      0x00\n        /* \"#utility.yul\":16210:16211   */\n      dup1\n        /* \"#utility.yul\":16203:16215   */\n      revert\n        /* \"#utility.yul\":16227:16344   */\n    tag_170:\n        /* \"#utility.yul\":16336:16337   */\n      0x00\n        /* \"#utility.yul\":16333:16334   */\n      dup1\n        /* \"#utility.yul\":16326:16338   */\n      revert\n        /* \"#utility.yul\":16350:16467   */\n    tag_186:\n        /* \"#utility.yul\":16459:16460   */\n      0x00\n        /* \"#utility.yul\":16456:16457   */\n      dup1\n        /* \"#utility.yul\":16449:16461   */\n      revert\n        /* \"#utility.yul\":16473:16590   */\n    tag_212:\n        /* \"#utility.yul\":16582:16583   */\n      0x00\n        /* \"#utility.yul\":16579:16580   */\n      dup1\n        /* \"#utility.yul\":16572:16584   */\n      revert\n        /* \"#utility.yul\":16596:16713   */\n    tag_205:\n        /* \"#utility.yul\":16705:16706   */\n      0x00\n        /* \"#utility.yul\":16702:16703   */\n      dup1\n        /* \"#utility.yul\":16695:16707   */\n      revert\n        /* \"#utility.yul\":16719:16821   */\n    tag_268:\n        /* \"#utility.yul\":16760:16766   */\n      0x00\n        /* \"#utility.yul\":16811:16813   */\n      0x1f\n        /* \"#utility.yul\":16807:16814   */\n      not\n        /* \"#utility.yul\":16802:16804   */\n      0x1f\n        /* \"#utility.yul\":16795:16800   */\n      dup4\n        /* \"#utility.yul\":16791:16805   */\n      add\n        /* \"#utility.yul\":16787:16815   */\n      and\n        /* \"#utility.yul\":16777:16815   */\n      swap1\n      pop\n        /* \"#utility.yul\":16719:16821   */\n      swap2\n      swap1\n      pop\n      jump\t// out\n        /* \"#utility.yul\":16827:16949   */\n    tag_192:\n        /* \"#utility.yul\":16900:16924   */\n      tag_352\n        /* \"#utility.yul\":16918:16923   */\n      dup2\n        /* \"#utility.yul\":16900:16924   */\n      tag_245\n      jump\t// in\n    tag_352:\n        /* \"#utility.yul\":16893:16898   */\n      dup2\n        /* \"#utility.yul\":16890:16925   */\n      eq\n        /* \"#utility.yul\":16880:16943   */\n      tag_353\n      jumpi\n        /* \"#utility.yul\":16939:16940   */\n      0x00\n        /* \"#utility.yul\":16936:16937   */\n      dup1\n        /* \"#utility.yul\":16929:16941   */\n      revert\n        /* \"#utility.yul\":16880:16943   */\n    tag_353:\n        /* \"#utility.yul\":16827:16949   */\n      pop\n      jump\t// out\n\n    auxdata: 0xa2646970667358221220cdc09a681a05808a5939e22c43cac41223e121018a1c210acbdcefaf0d79ab5664736f6c63430008070033\n}\n",
				"bytecode": {
					"linkReferences": {},
					"object": "608060405234801561001057600080fd5b50611a29806100206000396000f3fe608060405234801561001057600080fd5b50600436106100575760003560e01c80633e0eb0601461005c57806391f2cb9d146100785780639dd9d0fd14610094578063d52246d7146100cc578063fabce08f146100e8575b600080fd5b610076600480360381019061007191906113bd565b6100f2565b005b610092600480360381019061008d91906113bd565b61036d565b005b6100ae60048036038101906100a991906112e9565b610531565b6040516100c3999897969594939291906116cd565b60405180910390f35b6100e660048036038101906100e19190611316565b610dc0565b005b6100f0610ed0565b005b846000803373ffffffffffffffffffffffffffffffffffffffff1673ffffffffffffffffffffffffffffffffffffffff1681526020019081526020016000206001019080519060200190610147929190611020565b50836000803373ffffffffffffffffffffffffffffffffffffffff1673ffffffffffffffffffffffffffffffffffffffff168152602001908152602001600020600201908051906020019061019d929190611020565b50826000803373ffffffffffffffffffffffffffffffffffffffff1673ffffffffffffffffffffffffffffffffffffffff16815260200190815260200160002060030190805190602001906101f3929190611020565b50816000803373ffffffffffffffffffffffffffffffffffffffff1673ffffffffffffffffffffffffffffffffffffffff1681526020019081526020016000206004019080519060200190610249929190611020565b50806000803373ffffffffffffffffffffffffffffffffffffffff1673ffffffffffffffffffffffffffffffffffffffff168152602001908152602001600020600601908051906020019061029f929190611020565b50336000803373ffffffffffffffffffffffffffffffffffffffff1673ffffffffffffffffffffffffffffffffffffffff16815260200190815260200160002060000160006101000a81548173ffffffffffffffffffffffffffffffffffffffff021916908373ffffffffffffffffffffffffffffffffffffffff160217905550426000803373ffffffffffffffffffffffffffffffffffffffff1673ffffffffffffffffffffffffffffffffffffffff168152602001908152602001600020600501819055505050505050565b846000803373ffffffffffffffffffffffffffffffffffffffff1673ffffffffffffffffffffffffffffffffffffffff16815260200190815260200160002060070160000190805190602001906103c5929190611020565b50836000803373ffffffffffffffffffffffffffffffffffffffff1673ffffffffffffffffffffffffffffffffffffffff168152602001908152602001600020600701600101908051906020019061041e929190611020565b50826000803373ffffffffffffffffffffffffffffffffffffffff1673ffffffffffffffffffffffffffffffffffffffff1681526020019081526020016000206007016000019080519060200190610477929190611020565b50816000803373ffffffffffffffffffffffffffffffffffffffff1673ffffffffffffffffffffffffffffffffffffffff16815260200190815260200160002060070160010190805190602001906104d0929190611020565b50806000803373ffffffffffffffffffffffffffffffffffffffff1673ffffffffffffffffffffffffffffffffffffffff1681526020019081526020016000206007016000019080519060200190610529929190611020565b505050505050565b60006020528060005260406000206000915090508060000160009054906101000a900473ffffffffffffffffffffffffffffffffffffffff169080600101805461057a906118f1565b80601f01602080910402602001604051908101604052809291908181526020018280546105a6906118f1565b80156105f35780601f106105c8576101008083540402835291602001916105f3565b820191906000526020600020905b8154815290600101906020018083116105d657829003601f168201915b505050505090806002018054610608906118f1565b80601f0160208091040260200160405190810160405280929190818152602001828054610634906118f1565b80156106815780601f1061065657610100808354040283529160200191610681565b820191906000526020600020905b81548152906001019060200180831161066457829003601f168201915b505050505090806003018054610696906118f1565b80601f01602080910402602001604051908101604052809291908181526020018280546106c2906118f1565b801561070f5780601f106106e45761010080835404028352916020019161070f565b820191906000526020600020905b8154815290600101906020018083116106f257829003601f168201915b505050505090806004018054610724906118f1565b80601f0160208091040260200160405190810160405280929190818152602001828054610750906118f1565b801561079d5780601f106107725761010080835404028352916020019161079d565b820191906000526020600020905b81548152906001019060200180831161078057829003601f168201915b5050505050908060050154908060060180546107b8906118f1565b80601f01602080910402602001604051908101604052809291908181526020018280546107e4906118f1565b80156108315780601f1061080657610100808354040283529160200191610831565b820191906000526020600020905b81548152906001019060200180831161081457829003601f168201915b505050505090806007016040518060a0016040529081600082018054610856906118f1565b80601f0160208091040260200160405190810160405280929190818152602001828054610882906118f1565b80156108cf5780601f106108a4576101008083540402835291602001916108cf565b820191906000526020600020905b8154815290600101906020018083116108b257829003601f168201915b505050505081526020016001820180546108e8906118f1565b80601f0160208091040260200160405190810160405280929190818152602001828054610914906118f1565b80156109615780601f1061093657610100808354040283529160200191610961565b820191906000526020600020905b81548152906001019060200180831161094457829003601f168201915b5050505050815260200160028201805461097a906118f1565b80601f01602080910402602001604051908101604052809291908181526020018280546109a6906118f1565b80156109f35780601f106109c8576101008083540402835291602001916109f3565b820191906000526020600020905b8154815290600101906020018083116109d657829003601f168201915b50505050508152602001600382018054610a0c906118f1565b80601f0160208091040260200160405190810160405280929190818152602001828054610a38906118f1565b8015610a855780601f10610a5a57610100808354040283529160200191610a85565b820191906000526020600020905b815481529060010190602001808311610a6857829003601f168201915b50505050508152602001600482018054610a9e906118f1565b80601f0160208091040260200160405190810160405280929190818152602001828054610aca906118f1565b8015610b175780601f10610aec57610100808354040283529160200191610b17565b820191906000526020600020905b815481529060010190602001808311610afa57829003601f168201915b5050505050815250509080600c0160405180606001604052908160008201805480602002602001604051908101604052809291908181526020016000905b82821015610c01578382906000526020600020018054610b74906118f1565b80601f0160208091040260200160405190810160405280929190818152602001828054610ba0906118f1565b8015610bed5780601f10610bc257610100808354040283529160200191610bed565b820191906000526020600020905b815481529060010190602001808311610bd057829003601f168201915b505050505081526020019060010190610b55565b50505050815260200160018201805480602002602001604051908101604052809291908181526020016000905b82821015610cda578382906000526020600020018054610c4d906118f1565b80601f0160208091040260200160405190810160405280929190818152602001828054610c79906118f1565b8015610cc65780601f10610c9b57610100808354040283529160200191610cc6565b820191906000526020600020905b815481529060010190602001808311610ca957829003601f168201915b505050505081526020019060010190610c2e565b50505050815260200160028201805480602002602001604051908101604052809291908181526020016000905b82821015610db3578382906000526020600020018054610d26906118f1565b80601f0160208091040260200160405190810160405280929190818152602001828054610d52906118f1565b8015610d9f5780601f10610d7457610100808354040283529160200191610d9f565b820191906000526020600020905b815481529060010190602001808311610d8257829003601f168201915b505050505081526020019060010190610d07565b5050505081525050905089565b826000803373ffffffffffffffffffffffffffffffffffffffff1673ffffffffffffffffffffffffffffffffffffffff168152602001908152602001600020600c016000019080519060200190610e189291906110a6565b50816000803373ffffffffffffffffffffffffffffffffffffffff1673ffffffffffffffffffffffffffffffffffffffff168152602001908152602001600020600c016001019080519060200190610e719291906110a6565b50806000803373ffffffffffffffffffffffffffffffffffffffff1673ffffffffffffffffffffffffffffffffffffffff168152602001908152602001600020600c016002019080519060200190610eca9291906110a6565b50505050565b6000803373ffffffffffffffffffffffffffffffffffffffff1673ffffffffffffffffffffffffffffffffffffffff168152602001908152602001600020600080820160006101000a81549073ffffffffffffffffffffffffffffffffffffffff0219169055600182016000610f469190611106565b600282016000610f569190611106565b600382016000610f669190611106565b600482016000610f769190611106565b6005820160009055600682016000610f8e9190611106565b6007820160008082016000610fa39190611106565b600182016000610fb39190611106565b600282016000610fc39190611106565b600382016000610fd39190611106565b600482016000610fe39190611106565b5050600c820160008082016000610ffa9190611146565b60018201600061100a9190611146565b60028201600061101a9190611146565b50505050565b82805461102c906118f1565b90600052602060002090601f01602090048101928261104e5760008555611095565b82601f1061106757805160ff1916838001178555611095565b82800160010185558215611095579182015b82811115611094578251825591602001919060010190611079565b5b5090506110a29190611167565b5090565b8280548282559060005260206000209081019282156110f5579160200282015b828111156110f45782518290805190602001906110e4929190611020565b50916020019190600101906110c6565b5b5090506111029190611184565b5090565b508054611112906118f1565b6000825580601f106111245750611143565b601f0160209004906000526020600020908101906111429190611167565b5b50565b50805460008255906000526020600020908101906111649190611184565b50565b5b80821115611180576000816000905550600101611168565b5090565b5b808211156111a4576000818161119b9190611106565b50600101611185565b5090565b60006111bb6111b6846117b0565b61178b565b905080838252602082019050828560208602820111156111de576111dd6119b7565b5b60005b8581101561122c57813567ffffffffffffffff811115611204576112036119b2565b5b80860161121189826112bb565b855260208501945060208401935050506001810190506111e1565b5050509392505050565b6000611249611244846117dc565b61178b565b905082815260208101848484011115611265576112646119bc565b5b6112708482856118af565b509392505050565b600081359050611287816119dc565b92915050565b600082601f8301126112a2576112a16119b2565b5b81356112b28482602086016111a8565b91505092915050565b600082601f8301126112d0576112cf6119b2565b5b81356112e0848260208601611236565b91505092915050565b6000602082840312156112ff576112fe6119c6565b5b600061130d84828501611278565b91505092915050565b60008060006060848603121561132f5761132e6119c6565b5b600084013567ffffffffffffffff81111561134d5761134c6119c1565b5b6113598682870161128d565b935050602084013567ffffffffffffffff81111561137a576113796119c1565b5b6113868682870161128d565b925050604084013567ffffffffffffffff8111156113a7576113a66119c1565b5b6113b38682870161128d565b9150509250925092565b600080600080600060a086880312156113d9576113d86119c6565b5b600086013567ffffffffffffffff8111156113f7576113f66119c1565b5b611403888289016112bb565b955050602086013567ffffffffffffffff811115611424576114236119c1565b5b611430888289016112bb565b945050604086013567ffffffffffffffff811115611451576114506119c1565b5b61145d888289016112bb565b935050606086013567ffffffffffffffff81111561147e5761147d6119c1565b5b61148a888289016112bb565b925050608086013567ffffffffffffffff8111156114ab576114aa6119c1565b5b6114b7888289016112bb565b9150509295509295909350565b60006114d0838361155c565b905092915050565b6114e181611873565b82525050565b60006114f28261181d565b6114fc8185611840565b93508360208202850161150e8561180d565b8060005b8581101561154a578484038952815161152b85826114c4565b945061153683611833565b925060208a01995050600181019050611512565b50829750879550505050505092915050565b600061156782611828565b6115718185611851565b93506115818185602086016118be565b61158a816119cb565b840191505092915050565b60006115a082611828565b6115aa8185611862565b93506115ba8185602086016118be565b6115c3816119cb565b840191505092915050565b600060a08301600083015184820360008601526115eb828261155c565b91505060208301518482036020860152611605828261155c565b9150506040830151848203604086015261161f828261155c565b91505060608301518482036060860152611639828261155c565b91505060808301518482036080860152611653828261155c565b9150508091505092915050565b6000606083016000830151848203600086015261167d82826114e7565b9150506020830151848203602086015261169782826114e7565b915050604083015184820360408601526116b182826114e7565b9150508091505092915050565b6116c7816118a5565b82525050565b6000610120820190506116e3600083018c6114d8565b81810360208301526116f5818b611595565b90508181036040830152611709818a611595565b9050818103606083015261171d8189611595565b905081810360808301526117318188611595565b905061174060a08301876116be565b81810360c08301526117528186611595565b905081810360e083015261176681856115ce565b905081810361010083015261177b8184611660565b90509a9950505050505050505050565b60006117956117a6565b90506117a18282611923565b919050565b6000604051905090565b600067ffffffffffffffff8211156117cb576117ca611983565b5b602082029050602081019050919050565b600067ffffffffffffffff8211156117f7576117f6611983565b5b611800826119cb565b9050602081019050919050565b6000819050602082019050919050565b600081519050919050565b600081519050919050565b6000602082019050919050565b600082825260208201905092915050565b600082825260208201905092915050565b600082825260208201905092915050565b600061187e82611885565b9050919050565b600073ffffffffffffffffffffffffffffffffffffffff82169050919050565b6000819050919050565b82818337600083830152505050565b60005b838110156118dc5780820151818401526020810190506118c1565b838111156118eb576000848401525b50505050565b6000600282049050600182168061190957607f821691505b6020821081141561191d5761191c611954565b5b50919050565b61192c826119cb565b810181811067ffffffffffffffff8211171561194b5761194a611983565b5b80604052505050565b7f4e487b7100000000000000000000000000000000000000000000000000000000600052602260045260246000fd5b7f4e487b7100000000000000000000000000000000000000000000000000000000600052604160045260246000fd5b600080fd5b600080fd5b600080fd5b600080fd5b600080fd5b6000601f19601f8301169050919050565b6119e581611873565b81146119f057600080fd5b5056fea2646970667358221220cdc09a681a05808a5939e22c43cac41223e121018a1c210acbdcefaf0d79ab5664736f6c63430008070033",
					"opcodes": "PUSH1 0x80 PUSH1 0x40 MSTORE CALLVALUE DUP1 ISZERO PUSH2 0x10 JUMPI PUSH1 0x0 DUP1 REVERT JUMPDEST POP PUSH2 0x1A29 DUP1 PUSH2 0x20 PUSH1 0x0 CODECOPY PUSH1 0x0 RETURN INVALID PUSH1 0x80 PUSH1 0x40 MSTORE CALLVALUE DUP1 ISZERO PUSH2 0x10 JUMPI PUSH1 0x0 DUP1 REVERT JUMPDEST POP PUSH1 0x4 CALLDATASIZE LT PUSH2 0x57 JUMPI PUSH1 0x0 CALLDATALOAD PUSH1 0xE0 SHR DUP1 PUSH4 0x3E0EB060 EQ PUSH2 0x5C JUMPI DUP1 PUSH4 0x91F2CB9D EQ PUSH2 0x78 JUMPI DUP1 PUSH4 0x9DD9D0FD EQ PUSH2 0x94 JUMPI DUP1 PUSH4 0xD52246D7 EQ PUSH2 0xCC JUMPI DUP1 PUSH4 0xFABCE08F EQ PUSH2 0xE8 JUMPI JUMPDEST PUSH1 0x0 DUP1 REVERT JUMPDEST PUSH2 0x76 PUSH1 0x4 DUP1 CALLDATASIZE SUB DUP2 ADD SWAP1 PUSH2 0x71 SWAP2 SWAP1 PUSH2 0x13BD JUMP JUMPDEST PUSH2 0xF2 JUMP JUMPDEST STOP JUMPDEST PUSH2 0x92 PUSH1 0x4 DUP1 CALLDATASIZE SUB DUP2 ADD SWAP1 PUSH2 0x8D SWAP2 SWAP1 PUSH2 0x13BD JUMP JUMPDEST PUSH2 0x36D JUMP JUMPDEST STOP JUMPDEST PUSH2 0xAE PUSH1 0x4 DUP1 CALLDATASIZE SUB DUP2 ADD SWAP1 PUSH2 0xA9 SWAP2 SWAP1 PUSH2 0x12E9 JUMP JUMPDEST PUSH2 0x531 JUMP JUMPDEST PUSH1 0x40 MLOAD PUSH2 0xC3 SWAP10 SWAP9 SWAP8 SWAP7 SWAP6 SWAP5 SWAP4 SWAP3 SWAP2 SWAP1 PUSH2 0x16CD JUMP JUMPDEST PUSH1 0x40 MLOAD DUP1 SWAP2 SUB SWAP1 RETURN JUMPDEST PUSH2 0xE6 PUSH1 0x4 DUP1 CALLDATASIZE SUB DUP2 ADD SWAP1 PUSH2 0xE1 SWAP2 SWAP1 PUSH2 0x1316 JUMP JUMPDEST PUSH2 0xDC0 JUMP JUMPDEST STOP JUMPDEST PUSH2 0xF0 PUSH2 0xED0 JUMP JUMPDEST STOP JUMPDEST DUP5 PUSH1 0x0 DUP1 CALLER PUSH20 0xFFFFFFFFFFFFFFFFFFFFFFFFFFFFFFFFFFFFFFFF AND PUSH20 0xFFFFFFFFFFFFFFFFFFFFFFFFFFFFFFFFFFFFFFFF AND DUP2 MSTORE PUSH1 0x20 ADD SWAP1 DUP2 MSTORE PUSH1 0x20 ADD PUSH1 0x0 KECCAK256 PUSH1 0x1 ADD SWAP1 DUP1 MLOAD SWAP1 PUSH1 0x20 ADD SWAP1 PUSH2 0x147 SWAP3 SWAP2 SWAP1 PUSH2 0x1020 JUMP JUMPDEST POP DUP4 PUSH1 0x0 DUP1 CALLER PUSH20 0xFFFFFFFFFFFFFFFFFFFFFFFFFFFFFFFFFFFFFFFF AND PUSH20 0xFFFFFFFFFFFFFFFFFFFFFFFFFFFFFFFFFFFFFFFF AND DUP2 MSTORE PUSH1 0x20 ADD SWAP1 DUP2 MSTORE PUSH1 0x20 ADD PUSH1 0x0 KECCAK256 PUSH1 0x2 ADD SWAP1 DUP1 MLOAD SWAP1 PUSH1 0x20 ADD SWAP1 PUSH2 0x19D SWAP3 SWAP2 SWAP1 PUSH2 0x1020 JUMP JUMPDEST POP DUP3 PUSH1 0x0 DUP1 CALLER PUSH20 0xFFFFFFFFFFFFFFFFFFFFFFFFFFFFFFFFFFFFFFFF AND PUSH20 0xFFFFFFFFFFFFFFFFFFFFFFFFFFFFFFFFFFFFFFFF AND DUP2 MSTORE PUSH1 0x20 ADD SWAP1 DUP2 MSTORE PUSH1 0x20 ADD PUSH1 0x0 KECCAK256 PUSH1 0x3 ADD SWAP1 DUP1 MLOAD SWAP1 PUSH1 0x20 ADD SWAP1 PUSH2 0x1F3 SWAP3 SWAP2 SWAP1 PUSH2 0x1020 JUMP JUMPDEST POP DUP2 PUSH1 0x0 DUP1 CALLER PUSH20 0xFFFFFFFFFFFFFFFFFFFFFFFFFFFFFFFFFFFFFFFF AND PUSH20 0xFFFFFFFFFFFFFFFFFFFFFFFFFFFFFFFFFFFFFFFF AND DUP2 MSTORE PUSH1 0x20 ADD SWAP1 DUP2 MSTORE PUSH1 0x20 ADD PUSH1 0x0 KECCAK256 PUSH1 0x4 ADD SWAP1 DUP1 MLOAD SWAP1 PUSH1 0x20 ADD SWAP1 PUSH2 0x249 SWAP3 SWAP2 SWAP1 PUSH2 0x1020 JUMP JUMPDEST POP DUP1 PUSH1 0x0 DUP1 CALLER PUSH20 0xFFFFFFFFFFFFFFFFFFFFFFFFFFFFFFFFFFFFFFFF AND PUSH20 0xFFFFFFFFFFFFFFFFFFFFFFFFFFFFFFFFFFFFFFFF AND DUP2 MSTORE PUSH1 0x20 ADD SWAP1 DUP2 MSTORE PUSH1 0x20 ADD PUSH1 0x0 KECCAK256 PUSH1 0x6 ADD SWAP1 DUP1 MLOAD SWAP1 PUSH1 0x20 ADD SWAP1 PUSH2 0x29F SWAP3 SWAP2 SWAP1 PUSH2 0x1020 JUMP JUMPDEST POP CALLER PUSH1 0x0 DUP1 CALLER PUSH20 0xFFFFFFFFFFFFFFFFFFFFFFFFFFFFFFFFFFFFFFFF AND PUSH20 0xFFFFFFFFFFFFFFFFFFFFFFFFFFFFFFFFFFFFFFFF AND DUP2 MSTORE PUSH1 0x20 ADD SWAP1 DUP2 MSTORE PUSH1 0x20 ADD PUSH1 0x0 KECCAK256 PUSH1 0x0 ADD PUSH1 0x0 PUSH2 0x100 EXP DUP2 SLOAD DUP2 PUSH20 0xFFFFFFFFFFFFFFFFFFFFFFFFFFFFFFFFFFFFFFFF MUL NOT AND SWAP1 DUP4 PUSH20 0xFFFFFFFFFFFFFFFFFFFFFFFFFFFFFFFFFFFFFFFF AND MUL OR SWAP1 SSTORE POP TIMESTAMP PUSH1 0x0 DUP1 CALLER PUSH20 0xFFFFFFFFFFFFFFFFFFFFFFFFFFFFFFFFFFFFFFFF AND PUSH20 0xFFFFFFFFFFFFFFFFFFFFFFFFFFFFFFFFFFFFFFFF AND DUP2 MSTORE PUSH1 0x20 ADD SWAP1 DUP2 MSTORE PUSH1 0x20 ADD PUSH1 0x0 KECCAK256 PUSH1 0x5 ADD DUP2 SWAP1 SSTORE POP POP POP POP POP POP JUMP JUMPDEST DUP5 PUSH1 0x0 DUP1 CALLER PUSH20 0xFFFFFFFFFFFFFFFFFFFFFFFFFFFFFFFFFFFFFFFF AND PUSH20 0xFFFFFFFFFFFFFFFFFFFFFFFFFFFFFFFFFFFFFFFF AND DUP2 MSTORE PUSH1 0x20 ADD SWAP1 DUP2 MSTORE PUSH1 0x20 ADD PUSH1 0x0 KECCAK256 PUSH1 0x7 ADD PUSH1 0x0 ADD SWAP1 DUP1 MLOAD SWAP1 PUSH1 0x20 ADD SWAP1 PUSH2 0x3C5 SWAP3 SWAP2 SWAP1 PUSH2 0x1020 JUMP JUMPDEST POP DUP4 PUSH1 0x0 DUP1 CALLER PUSH20 0xFFFFFFFFFFFFFFFFFFFFFFFFFFFFFFFFFFFFFFFF AND PUSH20 0xFFFFFFFFFFFFFFFFFFFFFFFFFFFFFFFFFFFFFFFF AND DUP2 MSTORE PUSH1 0x20 ADD SWAP1 DUP2 MSTORE PUSH1 0x20 ADD PUSH1 0x0 KECCAK256 PUSH1 0x7 ADD PUSH1 0x1 ADD SWAP1 DUP1 MLOAD SWAP1 PUSH1 0x20 ADD SWAP1 PUSH2 0x41E SWAP3 SWAP2 SWAP1 PUSH2 0x1020 JUMP JUMPDEST POP DUP3 PUSH1 0x0 DUP1 CALLER PUSH20 0xFFFFFFFFFFFFFFFFFFFFFFFFFFFFFFFFFFFFFFFF AND PUSH20 0xFFFFFFFFFFFFFFFFFFFFFFFFFFFFFFFFFFFFFFFF AND DUP2 MSTORE PUSH1 0x20 ADD SWAP1 DUP2 MSTORE PUSH1 0x20 ADD PUSH1 0x0 KECCAK256 PUSH1 0x7 ADD PUSH1 0x0 ADD SWAP1 DUP1 MLOAD SWAP1 PUSH1 0x20 ADD SWAP1 PUSH2 0x477 SWAP3 SWAP2 SWAP1 PUSH2 0x1020 JUMP JUMPDEST POP DUP2 PUSH1 0x0 DUP1 CALLER PUSH20 0xFFFFFFFFFFFFFFFFFFFFFFFFFFFFFFFFFFFFFFFF AND PUSH20 0xFFFFFFFFFFFFFFFFFFFFFFFFFFFFFFFFFFFFFFFF AND DUP2 MSTORE PUSH1 0x20 ADD SWAP1 DUP2 MSTORE PUSH1 0x20 ADD PUSH1 0x0 KECCAK256 PUSH1 0x7 ADD PUSH1 0x1 ADD SWAP1 DUP1 MLOAD SWAP1 PUSH1 0x20 ADD SWAP1 PUSH2 0x4D0 SWAP3 SWAP2 SWAP1 PUSH2 0x1020 JUMP JUMPDEST POP DUP1 PUSH1 0x0 DUP1 CALLER PUSH20 0xFFFFFFFFFFFFFFFFFFFFFFFFFFFFFFFFFFFFFFFF AND PUSH20 0xFFFFFFFFFFFFFFFFFFFFFFFFFFFFFFFFFFFFFFFF AND DUP2 MSTORE PUSH1 0x20 ADD SWAP1 DUP2 MSTORE PUSH1 0x20 ADD PUSH1 0x0 KECCAK256 PUSH1 0x7 ADD PUSH1 0x0 ADD SWAP1 DUP1 MLOAD SWAP1 PUSH1 0x20 ADD SWAP1 PUSH2 0x529 SWAP3 SWAP2 SWAP1 PUSH2 0x1020 JUMP JUMPDEST POP POP POP POP POP POP JUMP JUMPDEST PUSH1 0x0 PUSH1 0x20 MSTORE DUP1 PUSH1 0x0 MSTORE PUSH1 0x40 PUSH1 0x0 KECCAK256 PUSH1 0x0 SWAP2 POP SWAP1 POP DUP1 PUSH1 0x0 ADD PUSH1 0x0 SWAP1 SLOAD SWAP1 PUSH2 0x100 EXP SWAP1 DIV PUSH20 0xFFFFFFFFFFFFFFFFFFFFFFFFFFFFFFFFFFFFFFFF AND SWAP1 DUP1 PUSH1 0x1 ADD DUP1 SLOAD PUSH2 0x57A SWAP1 PUSH2 0x18F1 JUMP JUMPDEST DUP1 PUSH1 0x1F ADD PUSH1 0x20 DUP1 SWAP2 DIV MUL PUSH1 0x20 ADD PUSH1 0x40 MLOAD SWAP1 DUP2 ADD PUSH1 0x40 MSTORE DUP1 SWAP3 SWAP2 SWAP1 DUP2 DUP2 MSTORE PUSH1 0x20 ADD DUP3 DUP1 SLOAD PUSH2 0x5A6 SWAP1 PUSH2 0x18F1 JUMP JUMPDEST DUP1 ISZERO PUSH2 0x5F3 JUMPI DUP1 PUSH1 0x1F LT PUSH2 0x5C8 JUMPI PUSH2 0x100 DUP1 DUP4 SLOAD DIV MUL DUP4 MSTORE SWAP2 PUSH1 0x20 ADD SWAP2 PUSH2 0x5F3 JUMP JUMPDEST DUP3 ADD SWAP2 SWAP1 PUSH1 0x0 MSTORE PUSH1 0x20 PUSH1 0x0 KECCAK256 SWAP1 JUMPDEST DUP2 SLOAD DUP2 MSTORE SWAP1 PUSH1 0x1 ADD SWAP1 PUSH1 0x20 ADD DUP1 DUP4 GT PUSH2 0x5D6 JUMPI DUP3 SWAP1 SUB PUSH1 0x1F AND DUP3 ADD SWAP2 JUMPDEST POP POP POP POP POP SWAP1 DUP1 PUSH1 0x2 ADD DUP1 SLOAD PUSH2 0x608 SWAP1 PUSH2 0x18F1 JUMP JUMPDEST DUP1 PUSH1 0x1F ADD PUSH1 0x20 DUP1 SWAP2 DIV MUL PUSH1 0x20 ADD PUSH1 0x40 MLOAD SWAP1 DUP2 ADD PUSH1 0x40 MSTORE DUP1 SWAP3 SWAP2 SWAP1 DUP2 DUP2 MSTORE PUSH1 0x20 ADD DUP3 DUP1 SLOAD PUSH2 0x634 SWAP1 PUSH2 0x18F1 JUMP JUMPDEST DUP1 ISZERO PUSH2 0x681 JUMPI DUP1 PUSH1 0x1F LT PUSH2 0x656 JUMPI PUSH2 0x100 DUP1 DUP4 SLOAD DIV MUL DUP4 MSTORE SWAP2 PUSH1 0x20 ADD SWAP2 PUSH2 0x681 JUMP JUMPDEST DUP3 ADD SWAP2 SWAP1 PUSH1 0x0 MSTORE PUSH1 0x20 PUSH1 0x0 KECCAK256 SWAP1 JUMPDEST DUP2 SLOAD DUP2 MSTORE SWAP1 PUSH1 0x1 ADD SWAP1 PUSH1 0x20 ADD DUP1 DUP4 GT PUSH2 0x664 JUMPI DUP3 SWAP1 SUB PUSH1 0x1F AND DUP3 ADD SWAP2 JUMPDEST POP POP POP POP POP SWAP1 DUP1 PUSH1 0x3 ADD DUP1 SLOAD PUSH2 0x696 SWAP1 PUSH2 0x18F1 JUMP JUMPDEST DUP1 PUSH1 0x1F ADD PUSH1 0x20 DUP1 SWAP2 DIV MUL PUSH1 0x20 ADD PUSH1 0x40 MLOAD SWAP1 DUP2 ADD PUSH1 0x40 MSTORE DUP1 SWAP3 SWAP2 SWAP1 DUP2 DUP2 MSTORE PUSH1 0x20 ADD DUP3 DUP1 SLOAD PUSH2 0x6C2 SWAP1 PUSH2 0x18F1 JUMP JUMPDEST DUP1 ISZERO PUSH2 0x70F JUMPI DUP1 PUSH1 0x1F LT PUSH2 0x6E4 JUMPI PUSH2 0x100 DUP1 DUP4 SLOAD DIV MUL DUP4 MSTORE SWAP2 PUSH1 0x20 ADD SWAP2 PUSH2 0x70F JUMP JUMPDEST DUP3 ADD SWAP2 SWAP1 PUSH1 0x0 MSTORE PUSH1 0x20 PUSH1 0x0 KECCAK256 SWAP1 JUMPDEST DUP2 SLOAD DUP2 MSTORE SWAP1 PUSH1 0x1 ADD SWAP1 PUSH1 0x20 ADD DUP1 DUP4 GT PUSH2 0x6F2 JUMPI DUP3 SWAP1 SUB PUSH1 0x1F AND DUP3 ADD SWAP2 JUMPDEST POP POP POP POP POP SWAP1 DUP1 PUSH1 0x4 ADD DUP1 SLOAD PUSH2 0x724 SWAP1 PUSH2 0x18F1 JUMP JUMPDEST DUP1 PUSH1 0x1F ADD PUSH1 0x20 DUP1 SWAP2 DIV MUL PUSH1 0x20 ADD PUSH1 0x40 MLOAD SWAP1 DUP2 ADD PUSH1 0x40 MSTORE DUP1 SWAP3 SWAP2 SWAP1 DUP2 DUP2 MSTORE PUSH1 0x20 ADD DUP3 DUP1 SLOAD PUSH2 0x750 SWAP1 PUSH2 0x18F1 JUMP JUMPDEST DUP1 ISZERO PUSH2 0x79D JUMPI DUP1 PUSH1 0x1F LT PUSH2 0x772 JUMPI PUSH2 0x100 DUP1 DUP4 SLOAD DIV MUL DUP4 MSTORE SWAP2 PUSH1 0x20 ADD SWAP2 PUSH2 0x79D JUMP JUMPDEST DUP3 ADD SWAP2 SWAP1 PUSH1 0x0 MSTORE PUSH1 0x20 PUSH1 0x0 KECCAK256 SWAP1 JUMPDEST DUP2 SLOAD DUP2 MSTORE SWAP1 PUSH1 0x1 ADD SWAP1 PUSH1 0x20 ADD DUP1 DUP4 GT PUSH2 0x780 JUMPI DUP3 SWAP1 SUB PUSH1 0x1F AND DUP3 ADD SWAP2 JUMPDEST POP POP POP POP POP SWAP1 DUP1 PUSH1 0x5 ADD SLOAD SWAP1 DUP1 PUSH1 0x6 ADD DUP1 SLOAD PUSH2 0x7B8 SWAP1 PUSH2 0x18F1 JUMP JUMPDEST DUP1 PUSH1 0x1F ADD PUSH1 0x20 DUP1 SWAP2 DIV MUL PUSH1 0x20 ADD PUSH1 0x40 MLOAD SWAP1 DUP2 ADD PUSH1 0x40 MSTORE DUP1 SWAP3 SWAP2 SWAP1 DUP2 DUP2 MSTORE PUSH1 0x20 ADD DUP3 DUP1 SLOAD PUSH2 0x7E4 SWAP1 PUSH2 0x18F1 JUMP JUMPDEST DUP1 ISZERO PUSH2 0x831 JUMPI DUP1 PUSH1 0x1F LT PUSH2 0x806 JUMPI PUSH2 0x100 DUP1 DUP4 SLOAD DIV MUL DUP4 MSTORE SWAP2 PUSH1 0x20 ADD SWAP2 PUSH2 0x831 JUMP JUMPDEST DUP3 ADD SWAP2 SWAP1 PUSH1 0x0 MSTORE PUSH1 0x20 PUSH1 0x0 KECCAK256 SWAP1 JUMPDEST DUP2 SLOAD DUP2 MSTORE SWAP1 PUSH1 0x1 ADD SWAP1 PUSH1 0x20 ADD DUP1 DUP4 GT PUSH2 0x814 JUMPI DUP3 SWAP1 SUB PUSH1 0x1F AND DUP3 ADD SWAP2 JUMPDEST POP POP POP POP POP SWAP1 DUP1 PUSH1 0x7 ADD PUSH1 0x40 MLOAD DUP1 PUSH1 0xA0 ADD PUSH1 0x40 MSTORE SWAP1 DUP2 PUSH1 0x0 DUP3 ADD DUP1 SLOAD PUSH2 0x856 SWAP1 PUSH2 0x18F1 JUMP JUMPDEST DUP1 PUSH1 0x1F ADD PUSH1 0x20 DUP1 SWAP2 DIV MUL PUSH1 0x20 ADD PUSH1 0x40 MLOAD SWAP1 DUP2 ADD PUSH1 0x40 MSTORE DUP1 SWAP3 SWAP2 SWAP1 DUP2 DUP2 MSTORE PUSH1 0x20 ADD DUP3 DUP1 SLOAD PUSH2 0x882 SWAP1 PUSH2 0x18F1 JUMP JUMPDEST DUP1 ISZERO PUSH2 0x8CF JUMPI DUP1 PUSH1 0x1F LT PUSH2 0x8A4 JUMPI PUSH2 0x100 DUP1 DUP4 SLOAD DIV MUL DUP4 MSTORE SWAP2 PUSH1 0x20 ADD SWAP2 PUSH2 0x8CF JUMP JUMPDEST DUP3 ADD SWAP2 SWAP1 PUSH1 0x0 MSTORE PUSH1 0x20 PUSH1 0x0 KECCAK256 SWAP1 JUMPDEST DUP2 SLOAD DUP2 MSTORE SWAP1 PUSH1 0x1 ADD SWAP1 PUSH1 0x20 ADD DUP1 DUP4 GT PUSH2 0x8B2 JUMPI DUP3 SWAP1 SUB PUSH1 0x1F AND DUP3 ADD SWAP2 JUMPDEST POP POP POP POP POP DUP2 MSTORE PUSH1 0x20 ADD PUSH1 0x1 DUP3 ADD DUP1 SLOAD PUSH2 0x8E8 SWAP1 PUSH2 0x18F1 JUMP JUMPDEST DUP1 PUSH1 0x1F ADD PUSH1 0x20 DUP1 SWAP2 DIV MUL PUSH1 0x20 ADD PUSH1 0x40 MLOAD SWAP1 DUP2 ADD PUSH1 0x40 MSTORE DUP1 SWAP3 SWAP2 SWAP1 DUP2 DUP2 MSTORE PUSH1 0x20 ADD DUP3 DUP1 SLOAD PUSH2 0x914 SWAP1 PUSH2 0x18F1 JUMP JUMPDEST DUP1 ISZERO PUSH2 0x961 JUMPI DUP1 PUSH1 0x1F LT PUSH2 0x936 JUMPI PUSH2 0x100 DUP1 DUP4 SLOAD DIV MUL DUP4 MSTORE SWAP2 PUSH1 0x20 ADD SWAP2 PUSH2 0x961 JUMP JUMPDEST DUP3 ADD SWAP2 SWAP1 PUSH1 0x0 MSTORE PUSH1 0x20 PUSH1 0x0 KECCAK256 SWAP1 JUMPDEST DUP2 SLOAD DUP2 MSTORE SWAP1 PUSH1 0x1 ADD SWAP1 PUSH1 0x20 ADD DUP1 DUP4 GT PUSH2 0x944 JUMPI DUP3 SWAP1 SUB PUSH1 0x1F AND DUP3 ADD SWAP2 JUMPDEST POP POP POP POP POP DUP2 MSTORE PUSH1 0x20 ADD PUSH1 0x2 DUP3 ADD DUP1 SLOAD PUSH2 0x97A SWAP1 PUSH2 0x18F1 JUMP JUMPDEST DUP1 PUSH1 0x1F ADD PUSH1 0x20 DUP1 SWAP2 DIV MUL PUSH1 0x20 ADD PUSH1 0x40 MLOAD SWAP1 DUP2 ADD PUSH1 0x40 MSTORE DUP1 SWAP3 SWAP2 SWAP1 DUP2 DUP2 MSTORE PUSH1 0x20 ADD DUP3 DUP1 SLOAD PUSH2 0x9A6 SWAP1 PUSH2 0x18F1 JUMP JUMPDEST DUP1 ISZERO PUSH2 0x9F3 JUMPI DUP1 PUSH1 0x1F LT PUSH2 0x9C8 JUMPI PUSH2 0x100 DUP1 DUP4 SLOAD DIV MUL DUP4 MSTORE SWAP2 PUSH1 0x20 ADD SWAP2 PUSH2 0x9F3 JUMP JUMPDEST DUP3 ADD SWAP2 SWAP1 PUSH1 0x0 MSTORE PUSH1 0x20 PUSH1 0x0 KECCAK256 SWAP1 JUMPDEST DUP2 SLOAD DUP2 MSTORE SWAP1 PUSH1 0x1 ADD SWAP1 PUSH1 0x20 ADD DUP1 DUP4 GT PUSH2 0x9D6 JUMPI DUP3 SWAP1 SUB PUSH1 0x1F AND DUP3 ADD SWAP2 JUMPDEST POP POP POP POP POP DUP2 MSTORE PUSH1 0x20 ADD PUSH1 0x3 DUP3 ADD DUP1 SLOAD PUSH2 0xA0C SWAP1 PUSH2 0x18F1 JUMP JUMPDEST DUP1 PUSH1 0x1F ADD PUSH1 0x20 DUP1 SWAP2 DIV MUL PUSH1 0x20 ADD PUSH1 0x40 MLOAD SWAP1 DUP2 ADD PUSH1 0x40 MSTORE DUP1 SWAP3 SWAP2 SWAP1 DUP2 DUP2 MSTORE PUSH1 0x20 ADD DUP3 DUP1 SLOAD PUSH2 0xA38 SWAP1 PUSH2 0x18F1 JUMP JUMPDEST DUP1 ISZERO PUSH2 0xA85 JUMPI DUP1 PUSH1 0x1F LT PUSH2 0xA5A JUMPI PUSH2 0x100 DUP1 DUP4 SLOAD DIV MUL DUP4 MSTORE SWAP2 PUSH1 0x20 ADD SWAP2 PUSH2 0xA85 JUMP JUMPDEST DUP3 ADD SWAP2 SWAP1 PUSH1 0x0 MSTORE PUSH1 0x20 PUSH1 0x0 KECCAK256 SWAP1 JUMPDEST DUP2 SLOAD DUP2 MSTORE SWAP1 PUSH1 0x1 ADD SWAP1 PUSH1 0x20 ADD DUP1 DUP4 GT PUSH2 0xA68 JUMPI DUP3 SWAP1 SUB PUSH1 0x1F AND DUP3 ADD SWAP2 JUMPDEST POP POP POP POP POP DUP2 MSTORE PUSH1 0x20 ADD PUSH1 0x4 DUP3 ADD DUP1 SLOAD PUSH2 0xA9E SWAP1 PUSH2 0x18F1 JUMP JUMPDEST DUP1 PUSH1 0x1F ADD PUSH1 0x20 DUP1 SWAP2 DIV MUL PUSH1 0x20 ADD PUSH1 0x40 MLOAD SWAP1 DUP2 ADD PUSH1 0x40 MSTORE DUP1 SWAP3 SWAP2 SWAP1 DUP2 DUP2 MSTORE PUSH1 0x20 ADD DUP3 DUP1 SLOAD PUSH2 0xACA SWAP1 PUSH2 0x18F1 JUMP JUMPDEST DUP1 ISZERO PUSH2 0xB17 JUMPI DUP1 PUSH1 0x1F LT PUSH2 0xAEC JUMPI PUSH2 0x100 DUP1 DUP4 SLOAD DIV MUL DUP4 MSTORE SWAP2 PUSH1 0x20 ADD SWAP2 PUSH2 0xB17 JUMP JUMPDEST DUP3 ADD SWAP2 SWAP1 PUSH1 0x0 MSTORE PUSH1 0x20 PUSH1 0x0 KECCAK256 SWAP1 JUMPDEST DUP2 SLOAD DUP2 MSTORE SWAP1 PUSH1 0x1 ADD SWAP1 PUSH1 0x20 ADD DUP1 DUP4 GT PUSH2 0xAFA JUMPI DUP3 SWAP1 SUB PUSH1 0x1F AND DUP3 ADD SWAP2 JUMPDEST POP POP POP POP POP DUP2 MSTORE POP POP SWAP1 DUP1 PUSH1 0xC ADD PUSH1 0x40 MLOAD DUP1 PUSH1 0x60 ADD PUSH1 0x40 MSTORE SWAP1 DUP2 PUSH1 0x0 DUP3 ADD DUP1 SLOAD DUP1 PUSH1 0x20 MUL PUSH1 0x20 ADD PUSH1 0x40 MLOAD SWAP1 DUP2 ADD PUSH1 0x40 MSTORE DUP1 SWAP3 SWAP2 SWAP1 DUP2 DUP2 MSTORE PUSH1 0x20 ADD PUSH1 0x0 SWAP1 JUMPDEST DUP3 DUP3 LT ISZERO PUSH2 0xC01 JUMPI DUP4 DUP3 SWAP1 PUSH1 0x0 MSTORE PUSH1 0x20 PUSH1 0x0 KECCAK256 ADD DUP1 SLOAD PUSH2 0xB74 SWAP1 PUSH2 0x18F1 JUMP JUMPDEST DUP1 PUSH1 0x1F ADD PUSH1 0x20 DUP1 SWAP2 DIV MUL PUSH1 0x20 ADD PUSH1 0x40 MLOAD SWAP1 DUP2 ADD PUSH1 0x40 MSTORE DUP1 SWAP3 SWAP2 SWAP1 DUP2 DUP2 MSTORE PUSH1 0x20 ADD DUP3 DUP1 SLOAD PUSH2 0xBA0 SWAP1 PUSH2 0x18F1 JUMP JUMPDEST DUP1 ISZERO PUSH2 0xBED JUMPI DUP1 PUSH1 0x1F LT PUSH2 0xBC2 JUMPI PUSH2 0x100 DUP1 DUP4 SLOAD DIV MUL DUP4 MSTORE SWAP2 PUSH1 0x20 ADD SWAP2 PUSH2 0xBED JUMP JUMPDEST DUP3 ADD SWAP2 SWAP1 PUSH1 0x0 MSTORE PUSH1 0x20 PUSH1 0x0 KECCAK256 SWAP1 JUMPDEST DUP2 SLOAD DUP2 MSTORE SWAP1 PUSH1 0x1 ADD SWAP1 PUSH1 0x20 ADD DUP1 DUP4 GT PUSH2 0xBD0 JUMPI DUP3 SWAP1 SUB PUSH1 0x1F AND DUP3 ADD SWAP2 JUMPDEST POP POP POP POP POP DUP2 MSTORE PUSH1 0x20 ADD SWAP1 PUSH1 0x1 ADD SWAP1 PUSH2 0xB55 JUMP JUMPDEST POP POP POP POP DUP2 MSTORE PUSH1 0x20 ADD PUSH1 0x1 DUP3 ADD DUP1 SLOAD DUP1 PUSH1 0x20 MUL PUSH1 0x20 ADD PUSH1 0x40 MLOAD SWAP1 DUP2 ADD PUSH1 0x40 MSTORE DUP1 SWAP3 SWAP2 SWAP1 DUP2 DUP2 MSTORE PUSH1 0x20 ADD PUSH1 0x0 SWAP1 JUMPDEST DUP3 DUP3 LT ISZERO PUSH2 0xCDA JUMPI DUP4 DUP3 SWAP1 PUSH1 0x0 MSTORE PUSH1 0x20 PUSH1 0x0 KECCAK256 ADD DUP1 SLOAD PUSH2 0xC4D SWAP1 PUSH2 0x18F1 JUMP JUMPDEST DUP1 PUSH1 0x1F ADD PUSH1 0x20 DUP1 SWAP2 DIV MUL PUSH1 0x20 ADD PUSH1 0x40 MLOAD SWAP1 DUP2 ADD PUSH1 0x40 MSTORE DUP1 SWAP3 SWAP2 SWAP1 DUP2 DUP2 MSTORE PUSH1 0x20 ADD DUP3 DUP1 SLOAD PUSH2 0xC79 SWAP1 PUSH2 0x18F1 JUMP JUMPDEST DUP1 ISZERO PUSH2 0xCC6 JUMPI DUP1 PUSH1 0x1F LT PUSH2 0xC9B JUMPI PUSH2 0x100 DUP1 DUP4 SLOAD DIV MUL DUP4 MSTORE SWAP2 PUSH1 0x20 ADD SWAP2 PUSH2 0xCC6 JUMP JUMPDEST DUP3 ADD SWAP2 SWAP1 PUSH1 0x0 MSTORE PUSH1 0x20 PUSH1 0x0 KECCAK256 SWAP1 JUMPDEST DUP2 SLOAD DUP2 MSTORE SWAP1 PUSH1 0x1 ADD SWAP1 PUSH1 0x20 ADD DUP1 DUP4 GT PUSH2 0xCA9 JUMPI DUP3 SWAP1 SUB PUSH1 0x1F AND DUP3 ADD SWAP2 JUMPDEST POP POP POP POP POP DUP2 MSTORE PUSH1 0x20 ADD SWAP1 PUSH1 0x1 ADD SWAP1 PUSH2 0xC2E JUMP JUMPDEST POP POP POP POP DUP2 MSTORE PUSH1 0x20 ADD PUSH1 0x2 DUP3 ADD DUP1 SLOAD DUP1 PUSH1 0x20 MUL PUSH1 0x20 ADD PUSH1 0x40 MLOAD SWAP1 DUP2 ADD PUSH1 0x40 MSTORE DUP1 SWAP3 SWAP2 SWAP1 DUP2 DUP2 MSTORE PUSH1 0x20 ADD PUSH1 0x0 SWAP1 JUMPDEST DUP3 DUP3 LT ISZERO PUSH2 0xDB3 JUMPI DUP4 DUP3 SWAP1 PUSH1 0x0 MSTORE PUSH1 0x20 PUSH1 0x0 KECCAK256 ADD DUP1 SLOAD PUSH2 0xD26 SWAP1 PUSH2 0x18F1 JUMP JUMPDEST DUP1 PUSH1 0x1F ADD PUSH1 0x20 DUP1 SWAP2 DIV MUL PUSH1 0x20 ADD PUSH1 0x40 MLOAD SWAP1 DUP2 ADD PUSH1 0x40 MSTORE DUP1 SWAP3 SWAP2 SWAP1 DUP2 DUP2 MSTORE PUSH1 0x20 ADD DUP3 DUP1 SLOAD PUSH2 0xD52 SWAP1 PUSH2 0x18F1 JUMP JUMPDEST DUP1 ISZERO PUSH2 0xD9F JUMPI DUP1 PUSH1 0x1F LT PUSH2 0xD74 JUMPI PUSH2 0x100 DUP1 DUP4 SLOAD DIV MUL DUP4 MSTORE SWAP2 PUSH1 0x20 ADD SWAP2 PUSH2 0xD9F JUMP JUMPDEST DUP3 ADD SWAP2 SWAP1 PUSH1 0x0 MSTORE PUSH1 0x20 PUSH1 0x0 KECCAK256 SWAP1 JUMPDEST DUP2 SLOAD DUP2 MSTORE SWAP1 PUSH1 0x1 ADD SWAP1 PUSH1 0x20 ADD DUP1 DUP4 GT PUSH2 0xD82 JUMPI DUP3 SWAP1 SUB PUSH1 0x1F AND DUP3 ADD SWAP2 JUMPDEST POP POP POP POP POP DUP2 MSTORE PUSH1 0x20 ADD SWAP1 PUSH1 0x1 ADD SWAP1 PUSH2 0xD07 JUMP JUMPDEST POP POP POP POP DUP2 MSTORE POP POP SWAP1 POP DUP10 JUMP JUMPDEST DUP3 PUSH1 0x0 DUP1 CALLER PUSH20 0xFFFFFFFFFFFFFFFFFFFFFFFFFFFFFFFFFFFFFFFF AND PUSH20 0xFFFFFFFFFFFFFFFFFFFFFFFFFFFFFFFFFFFFFFFF AND DUP2 MSTORE PUSH1 0x20 ADD SWAP1 DUP2 MSTORE PUSH1 0x20 ADD PUSH1 0x0 KECCAK256 PUSH1 0xC ADD PUSH1 0x0 ADD SWAP1 DUP1 MLOAD SWAP1 PUSH1 0x20 ADD SWAP1 PUSH2 0xE18 SWAP3 SWAP2 SWAP1 PUSH2 0x10A6 JUMP JUMPDEST POP DUP2 PUSH1 0x0 DUP1 CALLER PUSH20 0xFFFFFFFFFFFFFFFFFFFFFFFFFFFFFFFFFFFFFFFF AND PUSH20 0xFFFFFFFFFFFFFFFFFFFFFFFFFFFFFFFFFFFFFFFF AND DUP2 MSTORE PUSH1 0x20 ADD SWAP1 DUP2 MSTORE PUSH1 0x20 ADD PUSH1 0x0 KECCAK256 PUSH1 0xC ADD PUSH1 0x1 ADD SWAP1 DUP1 MLOAD SWAP1 PUSH1 0x20 ADD SWAP1 PUSH2 0xE71 SWAP3 SWAP2 SWAP1 PUSH2 0x10A6 JUMP JUMPDEST POP DUP1 PUSH1 0x0 DUP1 CALLER PUSH20 0xFFFFFFFFFFFFFFFFFFFFFFFFFFFFFFFFFFFFFFFF AND PUSH20 0xFFFFFFFFFFFFFFFFFFFFFFFFFFFFFFFFFFFFFFFF AND DUP2 MSTORE PUSH1 0x20 ADD SWAP1 DUP2 MSTORE PUSH1 0x20 ADD PUSH1 0x0 KECCAK256 PUSH1 0xC ADD PUSH1 0x2 ADD SWAP1 DUP1 MLOAD SWAP1 PUSH1 0x20 ADD SWAP1 PUSH2 0xECA SWAP3 SWAP2 SWAP1 PUSH2 0x10A6 JUMP JUMPDEST POP POP POP POP JUMP JUMPDEST PUSH1 0x0 DUP1 CALLER PUSH20 0xFFFFFFFFFFFFFFFFFFFFFFFFFFFFFFFFFFFFFFFF AND PUSH20 0xFFFFFFFFFFFFFFFFFFFFFFFFFFFFFFFFFFFFFFFF AND DUP2 MSTORE PUSH1 0x20 ADD SWAP1 DUP2 MSTORE PUSH1 0x20 ADD PUSH1 0x0 KECCAK256 PUSH1 0x0 DUP1 DUP3 ADD PUSH1 0x0 PUSH2 0x100 EXP DUP2 SLOAD SWAP1 PUSH20 0xFFFFFFFFFFFFFFFFFFFFFFFFFFFFFFFFFFFFFFFF MUL NOT AND SWAP1 SSTORE PUSH1 0x1 DUP3 ADD PUSH1 0x0 PUSH2 0xF46 SWAP2 SWAP1 PUSH2 0x1106 JUMP JUMPDEST PUSH1 0x2 DUP3 ADD PUSH1 0x0 PUSH2 0xF56 SWAP2 SWAP1 PUSH2 0x1106 JUMP JUMPDEST PUSH1 0x3 DUP3 ADD PUSH1 0x0 PUSH2 0xF66 SWAP2 SWAP1 PUSH2 0x1106 JUMP JUMPDEST PUSH1 0x4 DUP3 ADD PUSH1 0x0 PUSH2 0xF76 SWAP2 SWAP1 PUSH2 0x1106 JUMP JUMPDEST PUSH1 0x5 DUP3 ADD PUSH1 0x0 SWAP1 SSTORE PUSH1 0x6 DUP3 ADD PUSH1 0x0 PUSH2 0xF8E SWAP2 SWAP1 PUSH2 0x1106 JUMP JUMPDEST PUSH1 0x7 DUP3 ADD PUSH1 0x0 DUP1 DUP3 ADD PUSH1 0x0 PUSH2 0xFA3 SWAP2 SWAP1 PUSH2 0x1106 JUMP JUMPDEST PUSH1 0x1 DUP3 ADD PUSH1 0x0 PUSH2 0xFB3 SWAP2 SWAP1 PUSH2 0x1106 JUMP JUMPDEST PUSH1 0x2 DUP3 ADD PUSH1 0x0 PUSH2 0xFC3 SWAP2 SWAP1 PUSH2 0x1106 JUMP JUMPDEST PUSH1 0x3 DUP3 ADD PUSH1 0x0 PUSH2 0xFD3 SWAP2 SWAP1 PUSH2 0x1106 JUMP JUMPDEST PUSH1 0x4 DUP3 ADD PUSH1 0x0 PUSH2 0xFE3 SWAP2 SWAP1 PUSH2 0x1106 JUMP JUMPDEST POP POP PUSH1 0xC DUP3 ADD PUSH1 0x0 DUP1 DUP3 ADD PUSH1 0x0 PUSH2 0xFFA SWAP2 SWAP1 PUSH2 0x1146 JUMP JUMPDEST PUSH1 0x1 DUP3 ADD PUSH1 0x0 PUSH2 0x100A SWAP2 SWAP1 PUSH2 0x1146 JUMP JUMPDEST PUSH1 0x2 DUP3 ADD PUSH1 0x0 PUSH2 0x101A SWAP2 SWAP1 PUSH2 0x1146 JUMP JUMPDEST POP POP POP POP JUMP JUMPDEST DUP3 DUP1 SLOAD PUSH2 0x102C SWAP1 PUSH2 0x18F1 JUMP JUMPDEST SWAP1 PUSH1 0x0 MSTORE PUSH1 0x20 PUSH1 0x0 KECCAK256 SWAP1 PUSH1 0x1F ADD PUSH1 0x20 SWAP1 DIV DUP2 ADD SWAP3 DUP3 PUSH2 0x104E JUMPI PUSH1 0x0 DUP6 SSTORE PUSH2 0x1095 JUMP JUMPDEST DUP3 PUSH1 0x1F LT PUSH2 0x1067 JUMPI DUP1 MLOAD PUSH1 0xFF NOT AND DUP4 DUP1 ADD OR DUP6 SSTORE PUSH2 0x1095 JUMP JUMPDEST DUP3 DUP1 ADD PUSH1 0x1 ADD DUP6 SSTORE DUP3 ISZERO PUSH2 0x1095 JUMPI SWAP2 DUP3 ADD JUMPDEST DUP3 DUP2 GT ISZERO PUSH2 0x1094 JUMPI DUP3 MLOAD DUP3 SSTORE SWAP2 PUSH1 0x20 ADD SWAP2 SWAP1 PUSH1 0x1 ADD SWAP1 PUSH2 0x1079 JUMP JUMPDEST JUMPDEST POP SWAP1 POP PUSH2 0x10A2 SWAP2 SWAP1 PUSH2 0x1167 JUMP JUMPDEST POP SWAP1 JUMP JUMPDEST DUP3 DUP1 SLOAD DUP3 DUP3 SSTORE SWAP1 PUSH1 0x0 MSTORE PUSH1 0x20 PUSH1 0x0 KECCAK256 SWAP1 DUP2 ADD SWAP3 DUP3 ISZERO PUSH2 0x10F5 JUMPI SWAP2 PUSH1 0x20 MUL DUP3 ADD JUMPDEST DUP3 DUP2 GT ISZERO PUSH2 0x10F4 JUMPI DUP3 MLOAD DUP3 SWAP1 DUP1 MLOAD SWAP1 PUSH1 0x20 ADD SWAP1 PUSH2 0x10E4 SWAP3 SWAP2 SWAP1 PUSH2 0x1020 JUMP JUMPDEST POP SWAP2 PUSH1 0x20 ADD SWAP2 SWAP1 PUSH1 0x1 ADD SWAP1 PUSH2 0x10C6 JUMP JUMPDEST JUMPDEST POP SWAP1 POP PUSH2 0x1102 SWAP2 SWAP1 PUSH2 0x1184 JUMP JUMPDEST POP SWAP1 JUMP JUMPDEST POP DUP1 SLOAD PUSH2 0x1112 SWAP1 PUSH2 0x18F1 JUMP JUMPDEST PUSH1 0x0 DUP3 SSTORE DUP1 PUSH1 0x1F LT PUSH2 0x1124 JUMPI POP PUSH2 0x1143 JUMP JUMPDEST PUSH1 0x1F ADD PUSH1 0x20 SWAP1 DIV SWAP1 PUSH1 0x0 MSTORE PUSH1 0x20 PUSH1 0x0 KECCAK256 SWAP1 DUP2 ADD SWAP1 PUSH2 0x1142 SWAP2 SWAP1 PUSH2 0x1167 JUMP JUMPDEST JUMPDEST POP JUMP JUMPDEST POP DUP1 SLOAD PUSH1 0x0 DUP3 SSTORE SWAP1 PUSH1 0x0 MSTORE PUSH1 0x20 PUSH1 0x0 KECCAK256 SWAP1 DUP2 ADD SWAP1 PUSH2 0x1164 SWAP2 SWAP1 PUSH2 0x1184 JUMP JUMPDEST POP JUMP JUMPDEST JUMPDEST DUP1 DUP3 GT ISZERO PUSH2 0x1180 JUMPI PUSH1 0x0 DUP2 PUSH1 0x0 SWAP1 SSTORE POP PUSH1 0x1 ADD PUSH2 0x1168 JUMP JUMPDEST POP SWAP1 JUMP JUMPDEST JUMPDEST DUP1 DUP3 GT ISZERO PUSH2 0x11A4 JUMPI PUSH1 0x0 DUP2 DUP2 PUSH2 0x119B SWAP2 SWAP1 PUSH2 0x1106 JUMP JUMPDEST POP PUSH1 0x1 ADD PUSH2 0x1185 JUMP JUMPDEST POP SWAP1 JUMP JUMPDEST PUSH1 0x0 PUSH2 0x11BB PUSH2 0x11B6 DUP5 PUSH2 0x17B0 JUMP JUMPDEST PUSH2 0x178B JUMP JUMPDEST SWAP1 POP DUP1 DUP4 DUP3 MSTORE PUSH1 0x20 DUP3 ADD SWAP1 POP DUP3 DUP6 PUSH1 0x20 DUP7 MUL DUP3 ADD GT ISZERO PUSH2 0x11DE JUMPI PUSH2 0x11DD PUSH2 0x19B7 JUMP JUMPDEST JUMPDEST PUSH1 0x0 JUMPDEST DUP6 DUP2 LT ISZERO PUSH2 0x122C JUMPI DUP2 CALLDATALOAD PUSH8 0xFFFFFFFFFFFFFFFF DUP2 GT ISZERO PUSH2 0x1204 JUMPI PUSH2 0x1203 PUSH2 0x19B2 JUMP JUMPDEST JUMPDEST DUP1 DUP7 ADD PUSH2 0x1211 DUP10 DUP3 PUSH2 0x12BB JUMP JUMPDEST DUP6 MSTORE PUSH1 0x20 DUP6 ADD SWAP5 POP PUSH1 0x20 DUP5 ADD SWAP4 POP POP POP PUSH1 0x1 DUP2 ADD SWAP1 POP PUSH2 0x11E1 JUMP JUMPDEST POP POP POP SWAP4 SWAP3 POP POP POP JUMP JUMPDEST PUSH1 0x0 PUSH2 0x1249 PUSH2 0x1244 DUP5 PUSH2 0x17DC JUMP JUMPDEST PUSH2 0x178B JUMP JUMPDEST SWAP1 POP DUP3 DUP2 MSTORE PUSH1 0x20 DUP2 ADD DUP5 DUP5 DUP5 ADD GT ISZERO PUSH2 0x1265 JUMPI PUSH2 0x1264 PUSH2 0x19BC JUMP JUMPDEST JUMPDEST PUSH2 0x1270 DUP5 DUP3 DUP6 PUSH2 0x18AF JUMP JUMPDEST POP SWAP4 SWAP3 POP POP POP JUMP JUMPDEST PUSH1 0x0 DUP2 CALLDATALOAD SWAP1 POP PUSH2 0x1287 DUP2 PUSH2 0x19DC JUMP JUMPDEST SWAP3 SWAP2 POP POP JUMP JUMPDEST PUSH1 0x0 DUP3 PUSH1 0x1F DUP4 ADD SLT PUSH2 0x12A2 JUMPI PUSH2 0x12A1 PUSH2 0x19B2 JUMP JUMPDEST JUMPDEST DUP2 CALLDATALOAD PUSH2 0x12B2 DUP5 DUP3 PUSH1 0x20 DUP7 ADD PUSH2 0x11A8 JUMP JUMPDEST SWAP2 POP POP SWAP3 SWAP2 POP POP JUMP JUMPDEST PUSH1 0x0 DUP3 PUSH1 0x1F DUP4 ADD SLT PUSH2 0x12D0 JUMPI PUSH2 0x12CF PUSH2 0x19B2 JUMP JUMPDEST JUMPDEST DUP2 CALLDATALOAD PUSH2 0x12E0 DUP5 DUP3 PUSH1 0x20 DUP7 ADD PUSH2 0x1236 JUMP JUMPDEST SWAP2 POP POP SWAP3 SWAP2 POP POP JUMP JUMPDEST PUSH1 0x0 PUSH1 0x20 DUP3 DUP5 SUB SLT ISZERO PUSH2 0x12FF JUMPI PUSH2 0x12FE PUSH2 0x19C6 JUMP JUMPDEST JUMPDEST PUSH1 0x0 PUSH2 0x130D DUP5 DUP3 DUP6 ADD PUSH2 0x1278 JUMP JUMPDEST SWAP2 POP POP SWAP3 SWAP2 POP POP JUMP JUMPDEST PUSH1 0x0 DUP1 PUSH1 0x0 PUSH1 0x60 DUP5 DUP7 SUB SLT ISZERO PUSH2 0x132F JUMPI PUSH2 0x132E PUSH2 0x19C6 JUMP JUMPDEST JUMPDEST PUSH1 0x0 DUP5 ADD CALLDATALOAD PUSH8 0xFFFFFFFFFFFFFFFF DUP2 GT ISZERO PUSH2 0x134D JUMPI PUSH2 0x134C PUSH2 0x19C1 JUMP JUMPDEST JUMPDEST PUSH2 0x1359 DUP7 DUP3 DUP8 ADD PUSH2 0x128D JUMP JUMPDEST SWAP4 POP POP PUSH1 0x20 DUP5 ADD CALLDATALOAD PUSH8 0xFFFFFFFFFFFFFFFF DUP2 GT ISZERO PUSH2 0x137A JUMPI PUSH2 0x1379 PUSH2 0x19C1 JUMP JUMPDEST JUMPDEST PUSH2 0x1386 DUP7 DUP3 DUP8 ADD PUSH2 0x128D JUMP JUMPDEST SWAP3 POP POP PUSH1 0x40 DUP5 ADD CALLDATALOAD PUSH8 0xFFFFFFFFFFFFFFFF DUP2 GT ISZERO PUSH2 0x13A7 JUMPI PUSH2 0x13A6 PUSH2 0x19C1 JUMP JUMPDEST JUMPDEST PUSH2 0x13B3 DUP7 DUP3 DUP8 ADD PUSH2 0x128D JUMP JUMPDEST SWAP2 POP POP SWAP3 POP SWAP3 POP SWAP3 JUMP JUMPDEST PUSH1 0x0 DUP1 PUSH1 0x0 DUP1 PUSH1 0x0 PUSH1 0xA0 DUP7 DUP9 SUB SLT ISZERO PUSH2 0x13D9 JUMPI PUSH2 0x13D8 PUSH2 0x19C6 JUMP JUMPDEST JUMPDEST PUSH1 0x0 DUP7 ADD CALLDATALOAD PUSH8 0xFFFFFFFFFFFFFFFF DUP2 GT ISZERO PUSH2 0x13F7 JUMPI PUSH2 0x13F6 PUSH2 0x19C1 JUMP JUMPDEST JUMPDEST PUSH2 0x1403 DUP9 DUP3 DUP10 ADD PUSH2 0x12BB JUMP JUMPDEST SWAP6 POP POP PUSH1 0x20 DUP7 ADD CALLDATALOAD PUSH8 0xFFFFFFFFFFFFFFFF DUP2 GT ISZERO PUSH2 0x1424 JUMPI PUSH2 0x1423 PUSH2 0x19C1 JUMP JUMPDEST JUMPDEST PUSH2 0x1430 DUP9 DUP3 DUP10 ADD PUSH2 0x12BB JUMP JUMPDEST SWAP5 POP POP PUSH1 0x40 DUP7 ADD CALLDATALOAD PUSH8 0xFFFFFFFFFFFFFFFF DUP2 GT ISZERO PUSH2 0x1451 JUMPI PUSH2 0x1450 PUSH2 0x19C1 JUMP JUMPDEST JUMPDEST PUSH2 0x145D DUP9 DUP3 DUP10 ADD PUSH2 0x12BB JUMP JUMPDEST SWAP4 POP POP PUSH1 0x60 DUP7 ADD CALLDATALOAD PUSH8 0xFFFFFFFFFFFFFFFF DUP2 GT ISZERO PUSH2 0x147E JUMPI PUSH2 0x147D PUSH2 0x19C1 JUMP JUMPDEST JUMPDEST PUSH2 0x148A DUP9 DUP3 DUP10 ADD PUSH2 0x12BB JUMP JUMPDEST SWAP3 POP POP PUSH1 0x80 DUP7 ADD CALLDATALOAD PUSH8 0xFFFFFFFFFFFFFFFF DUP2 GT ISZERO PUSH2 0x14AB JUMPI PUSH2 0x14AA PUSH2 0x19C1 JUMP JUMPDEST JUMPDEST PUSH2 0x14B7 DUP9 DUP3 DUP10 ADD PUSH2 0x12BB JUMP JUMPDEST SWAP2 POP POP SWAP3 SWAP6 POP SWAP3 SWAP6 SWAP1 SWAP4 POP JUMP JUMPDEST PUSH1 0x0 PUSH2 0x14D0 DUP4 DUP4 PUSH2 0x155C JUMP JUMPDEST SWAP1 POP SWAP3 SWAP2 POP POP JUMP JUMPDEST PUSH2 0x14E1 DUP2 PUSH2 0x1873 JUMP JUMPDEST DUP3 MSTORE POP POP JUMP JUMPDEST PUSH1 0x0 PUSH2 0x14F2 DUP3 PUSH2 0x181D JUMP JUMPDEST PUSH2 0x14FC DUP2 DUP6 PUSH2 0x1840 JUMP JUMPDEST SWAP4 POP DUP4 PUSH1 0x20 DUP3 MUL DUP6 ADD PUSH2 0x150E DUP6 PUSH2 0x180D JUMP JUMPDEST DUP1 PUSH1 0x0 JUMPDEST DUP6 DUP2 LT ISZERO PUSH2 0x154A JUMPI DUP5 DUP5 SUB DUP10 MSTORE DUP2 MLOAD PUSH2 0x152B DUP6 DUP3 PUSH2 0x14C4 JUMP JUMPDEST SWAP5 POP PUSH2 0x1536 DUP4 PUSH2 0x1833 JUMP JUMPDEST SWAP3 POP PUSH1 0x20 DUP11 ADD SWAP10 POP POP PUSH1 0x1 DUP2 ADD SWAP1 POP PUSH2 0x1512 JUMP JUMPDEST POP DUP3 SWAP8 POP DUP8 SWAP6 POP POP POP POP POP POP SWAP3 SWAP2 POP POP JUMP JUMPDEST PUSH1 0x0 PUSH2 0x1567 DUP3 PUSH2 0x1828 JUMP JUMPDEST PUSH2 0x1571 DUP2 DUP6 PUSH2 0x1851 JUMP JUMPDEST SWAP4 POP PUSH2 0x1581 DUP2 DUP6 PUSH1 0x20 DUP7 ADD PUSH2 0x18BE JUMP JUMPDEST PUSH2 0x158A DUP2 PUSH2 0x19CB JUMP JUMPDEST DUP5 ADD SWAP2 POP POP SWAP3 SWAP2 POP POP JUMP JUMPDEST PUSH1 0x0 PUSH2 0x15A0 DUP3 PUSH2 0x1828 JUMP JUMPDEST PUSH2 0x15AA DUP2 DUP6 PUSH2 0x1862 JUMP JUMPDEST SWAP4 POP PUSH2 0x15BA DUP2 DUP6 PUSH1 0x20 DUP7 ADD PUSH2 0x18BE JUMP JUMPDEST PUSH2 0x15C3 DUP2 PUSH2 0x19CB JUMP JUMPDEST DUP5 ADD SWAP2 POP POP SWAP3 SWAP2 POP POP JUMP JUMPDEST PUSH1 0x0 PUSH1 0xA0 DUP4 ADD PUSH1 0x0 DUP4 ADD MLOAD DUP5 DUP3 SUB PUSH1 0x0 DUP7 ADD MSTORE PUSH2 0x15EB DUP3 DUP3 PUSH2 0x155C JUMP JUMPDEST SWAP2 POP POP PUSH1 0x20 DUP4 ADD MLOAD DUP5 DUP3 SUB PUSH1 0x20 DUP7 ADD MSTORE PUSH2 0x1605 DUP3 DUP3 PUSH2 0x155C JUMP JUMPDEST SWAP2 POP POP PUSH1 0x40 DUP4 ADD MLOAD DUP5 DUP3 SUB PUSH1 0x40 DUP7 ADD MSTORE PUSH2 0x161F DUP3 DUP3 PUSH2 0x155C JUMP JUMPDEST SWAP2 POP POP PUSH1 0x60 DUP4 ADD MLOAD DUP5 DUP3 SUB PUSH1 0x60 DUP7 ADD MSTORE PUSH2 0x1639 DUP3 DUP3 PUSH2 0x155C JUMP JUMPDEST SWAP2 POP POP PUSH1 0x80 DUP4 ADD MLOAD DUP5 DUP3 SUB PUSH1 0x80 DUP7 ADD MSTORE PUSH2 0x1653 DUP3 DUP3 PUSH2 0x155C JUMP JUMPDEST SWAP2 POP POP DUP1 SWAP2 POP POP SWAP3 SWAP2 POP POP JUMP JUMPDEST PUSH1 0x0 PUSH1 0x60 DUP4 ADD PUSH1 0x0 DUP4 ADD MLOAD DUP5 DUP3 SUB PUSH1 0x0 DUP7 ADD MSTORE PUSH2 0x167D DUP3 DUP3 PUSH2 0x14E7 JUMP JUMPDEST SWAP2 POP POP PUSH1 0x20 DUP4 ADD MLOAD DUP5 DUP3 SUB PUSH1 0x20 DUP7 ADD MSTORE PUSH2 0x1697 DUP3 DUP3 PUSH2 0x14E7 JUMP JUMPDEST SWAP2 POP POP PUSH1 0x40 DUP4 ADD MLOAD DUP5 DUP3 SUB PUSH1 0x40 DUP7 ADD MSTORE PUSH2 0x16B1 DUP3 DUP3 PUSH2 0x14E7 JUMP JUMPDEST SWAP2 POP POP DUP1 SWAP2 POP POP SWAP3 SWAP2 POP POP JUMP JUMPDEST PUSH2 0x16C7 DUP2 PUSH2 0x18A5 JUMP JUMPDEST DUP3 MSTORE POP POP JUMP JUMPDEST PUSH1 0x0 PUSH2 0x120 DUP3 ADD SWAP1 POP PUSH2 0x16E3 PUSH1 0x0 DUP4 ADD DUP13 PUSH2 0x14D8 JUMP JUMPDEST DUP2 DUP2 SUB PUSH1 0x20 DUP4 ADD MSTORE PUSH2 0x16F5 DUP2 DUP12 PUSH2 0x1595 JUMP JUMPDEST SWAP1 POP DUP2 DUP2 SUB PUSH1 0x40 DUP4 ADD MSTORE PUSH2 0x1709 DUP2 DUP11 PUSH2 0x1595 JUMP JUMPDEST SWAP1 POP DUP2 DUP2 SUB PUSH1 0x60 DUP4 ADD MSTORE PUSH2 0x171D DUP2 DUP10 PUSH2 0x1595 JUMP JUMPDEST SWAP1 POP DUP2 DUP2 SUB PUSH1 0x80 DUP4 ADD MSTORE PUSH2 0x1731 DUP2 DUP9 PUSH2 0x1595 JUMP JUMPDEST SWAP1 POP PUSH2 0x1740 PUSH1 0xA0 DUP4 ADD DUP8 PUSH2 0x16BE JUMP JUMPDEST DUP2 DUP2 SUB PUSH1 0xC0 DUP4 ADD MSTORE PUSH2 0x1752 DUP2 DUP7 PUSH2 0x1595 JUMP JUMPDEST SWAP1 POP DUP2 DUP2 SUB PUSH1 0xE0 DUP4 ADD MSTORE PUSH2 0x1766 DUP2 DUP6 PUSH2 0x15CE JUMP JUMPDEST SWAP1 POP DUP2 DUP2 SUB PUSH2 0x100 DUP4 ADD MSTORE PUSH2 0x177B DUP2 DUP5 PUSH2 0x1660 JUMP JUMPDEST SWAP1 POP SWAP11 SWAP10 POP POP POP POP POP POP POP POP POP POP JUMP JUMPDEST PUSH1 0x0 PUSH2 0x1795 PUSH2 0x17A6 JUMP JUMPDEST SWAP1 POP PUSH2 0x17A1 DUP3 DUP3 PUSH2 0x1923 JUMP JUMPDEST SWAP2 SWAP1 POP JUMP JUMPDEST PUSH1 0x0 PUSH1 0x40 MLOAD SWAP1 POP SWAP1 JUMP JUMPDEST PUSH1 0x0 PUSH8 0xFFFFFFFFFFFFFFFF DUP3 GT ISZERO PUSH2 0x17CB JUMPI PUSH2 0x17CA PUSH2 0x1983 JUMP JUMPDEST JUMPDEST PUSH1 0x20 DUP3 MUL SWAP1 POP PUSH1 0x20 DUP2 ADD SWAP1 POP SWAP2 SWAP1 POP JUMP JUMPDEST PUSH1 0x0 PUSH8 0xFFFFFFFFFFFFFFFF DUP3 GT ISZERO PUSH2 0x17F7 JUMPI PUSH2 0x17F6 PUSH2 0x1983 JUMP JUMPDEST JUMPDEST PUSH2 0x1800 DUP3 PUSH2 0x19CB JUMP JUMPDEST SWAP1 POP PUSH1 0x20 DUP2 ADD SWAP1 POP SWAP2 SWAP1 POP JUMP JUMPDEST PUSH1 0x0 DUP2 SWAP1 POP PUSH1 0x20 DUP3 ADD SWAP1 POP SWAP2 SWAP1 POP JUMP JUMPDEST PUSH1 0x0 DUP2 MLOAD SWAP1 POP SWAP2 SWAP1 POP JUMP JUMPDEST PUSH1 0x0 DUP2 MLOAD SWAP1 POP SWAP2 SWAP1 POP JUMP JUMPDEST PUSH1 0x0 PUSH1 0x20 DUP3 ADD SWAP1 POP SWAP2 SWAP1 POP JUMP JUMPDEST PUSH1 0x0 DUP3 DUP3 MSTORE PUSH1 0x20 DUP3 ADD SWAP1 POP SWAP3 SWAP2 POP POP JUMP JUMPDEST PUSH1 0x0 DUP3 DUP3 MSTORE PUSH1 0x20 DUP3 ADD SWAP1 POP SWAP3 SWAP2 POP POP JUMP JUMPDEST PUSH1 0x0 DUP3 DUP3 MSTORE PUSH1 0x20 DUP3 ADD SWAP1 POP SWAP3 SWAP2 POP POP JUMP JUMPDEST PUSH1 0x0 PUSH2 0x187E DUP3 PUSH2 0x1885 JUMP JUMPDEST SWAP1 POP SWAP2 SWAP1 POP JUMP JUMPDEST PUSH1 0x0 PUSH20 0xFFFFFFFFFFFFFFFFFFFFFFFFFFFFFFFFFFFFFFFF DUP3 AND SWAP1 POP SWAP2 SWAP1 POP JUMP JUMPDEST PUSH1 0x0 DUP2 SWAP1 POP SWAP2 SWAP1 POP JUMP JUMPDEST DUP3 DUP2 DUP4 CALLDATACOPY PUSH1 0x0 DUP4 DUP4 ADD MSTORE POP POP POP JUMP JUMPDEST PUSH1 0x0 JUMPDEST DUP4 DUP2 LT ISZERO PUSH2 0x18DC JUMPI DUP1 DUP3 ADD MLOAD DUP2 DUP5 ADD MSTORE PUSH1 0x20 DUP2 ADD SWAP1 POP PUSH2 0x18C1 JUMP JUMPDEST DUP4 DUP2 GT ISZERO PUSH2 0x18EB JUMPI PUSH1 0x0 DUP5 DUP5 ADD MSTORE JUMPDEST POP POP POP POP JUMP JUMPDEST PUSH1 0x0 PUSH1 0x2 DUP3 DIV SWAP1 POP PUSH1 0x1 DUP3 AND DUP1 PUSH2 0x1909 JUMPI PUSH1 0x7F DUP3 AND SWAP2 POP JUMPDEST PUSH1 0x20 DUP3 LT DUP2 EQ ISZERO PUSH2 0x191D JUMPI PUSH2 0x191C PUSH2 0x1954 JUMP JUMPDEST JUMPDEST POP SWAP2 SWAP1 POP JUMP JUMPDEST PUSH2 0x192C DUP3 PUSH2 0x19CB JUMP JUMPDEST DUP2 ADD DUP2 DUP2 LT PUSH8 0xFFFFFFFFFFFFFFFF DUP3 GT OR ISZERO PUSH2 0x194B JUMPI PUSH2 0x194A PUSH2 0x1983 JUMP JUMPDEST JUMPDEST DUP1 PUSH1 0x40 MSTORE POP POP POP JUMP JUMPDEST PUSH32 0x4E487B7100000000000000000000000000000000000000000000000000000000 PUSH1 0x0 MSTORE PUSH1 0x22 PUSH1 0x4 MSTORE PUSH1 0x24 PUSH1 0x0 REVERT JUMPDEST PUSH32 0x4E487B7100000000000000000000000000000000000000000000000000000000 PUSH1 0x0 MSTORE PUSH1 0x41 PUSH1 0x4 MSTORE PUSH1 0x24 PUSH1 0x0 REVERT JUMPDEST PUSH1 0x0 DUP1 REVERT JUMPDEST PUSH1 0x0 DUP1 REVERT JUMPDEST PUSH1 0x0 DUP1 REVERT JUMPDEST PUSH1 0x0 DUP1 REVERT JUMPDEST PUSH1 0x0 DUP1 REVERT JUMPDEST PUSH1 0x0 PUSH1 0x1F NOT PUSH1 0x1F DUP4 ADD AND SWAP1 POP SWAP2 SWAP1 POP JUMP JUMPDEST PUSH2 0x19E5 DUP2 PUSH2 0x1873 JUMP JUMPDEST DUP2 EQ PUSH2 0x19F0 JUMPI PUSH1 0x0 DUP1 REVERT JUMPDEST POP JUMP INVALID LOG2 PUSH5 0x6970667358 0x22 SLT KECCAK256 0xCD 0xC0 SWAP11 PUSH9 0x1A05808A5939E22C43 0xCA 0xC4 SLT 0x23 0xE1 0x21 ADD DUP11 SHR 0x21 EXP 0xCB 0xDC 0xEF 0xAF 0xD PUSH26 0xAB5664736F6C6343000807003300000000000000000000000000 "
				},
				"gasEstimates": {
					"creation": {
						"codeDepositCost": "1339400",
						"executionCost": "1397",
						"totalCost": "1340797"
					},
					"external": {
						"addBio(string,string,string,string,string)": "infinite",
						"addContract(string,string,string,string,string)": "infinite",
						"addSkill(string[],string[],string[])": "infinite",
						"delProfile()": "infinite",
						"profile(address)": "infinite"
					}
				},
				"methodIdentifiers": {
					"addBio(string,string,string,string,string)": "3e0eb060",
					"addContract(string,string,string,string,string)": "91f2cb9d",
					"addSkill(string[],string[],string[])": "d52246d7",
					"delProfile()": "fabce08f",
					"profile(address)": "9dd9d0fd"
				}
			},
			"storageLayout": {
				"storage": [
					{
						"astId": 27,
						"contract": "contracts/Profile.sol:Profile",
						"label": "profile",
						"offset": 0,
						"slot": "0",
						"type": "t_mapping(t_address,t_struct(Bio)22_storage)"
					}
				],
				"types": {
					"t_address": {
						"encoding": "inplace",
						"label": "address",
						"numberOfBytes": "20"
					},
					"t_array(t_string_storage)dyn_storage": {
						"base": "t_string_storage",
						"encoding": "dynamic_array",
						"label": "string[]",
						"numberOfBytes": "32"
					},
					"t_mapping(t_address,t_struct(Bio)22_storage)": {
						"encoding": "mapping",
						"key": "t_address",
						"label": "mapping(address => struct Profile.Bio)",
						"numberOfBytes": "32",
						"value": "t_struct(Bio)22_storage"
					},
					"t_string_storage": {
						"encoding": "bytes",
						"label": "string",
						"numberOfBytes": "32"
					},
					"t_struct(Bio)22_storage": {
						"encoding": "inplace",
						"label": "struct Profile.Bio",
						"members": [
							{
								"astId": 3,
								"contract": "contracts/Profile.sol:Profile",
								"label": "userAddress",
								"offset": 0,
								"slot": "0",
								"type": "t_address"
							},
							{
								"astId": 5,
								"contract": "contracts/Profile.sol:Profile",
								"label": "firstName",
								"offset": 0,
								"slot": "1",
								"type": "t_string_storage"
							},
							{
								"astId": 7,
								"contract": "contracts/Profile.sol:Profile",
								"label": "middleName",
								"offset": 0,
								"slot": "2",
								"type": "t_string_storage"
							},
							{
								"astId": 9,
								"contract": "contracts/Profile.sol:Profile",
								"label": "lastName",
								"offset": 0,
								"slot": "3",
								"type": "t_string_storage"
							},
							{
								"astId": 11,
								"contract": "contracts/Profile.sol:Profile",
								"label": "profileImage",
								"offset": 0,
								"slot": "4",
								"type": "t_string_storage"
							},
							{
								"astId": 13,
								"contract": "contracts/Profile.sol:Profile",
								"label": "createDate",
								"offset": 0,
								"slot": "5",
								"type": "t_uint256"
							},
							{
								"astId": 15,
								"contract": "contracts/Profile.sol:Profile",
								"label": "education",
								"offset": 0,
								"slot": "6",
								"type": "t_string_storage"
							},
							{
								"astId": 18,
								"contract": "contracts/Profile.sol:Profile",
								"label": "privateContract",
								"offset": 0,
								"slot": "7",
								"type": "t_struct(Contract)38_storage"
							},
							{
								"astId": 21,
								"contract": "contracts/Profile.sol:Profile",
								"label": "skill",
								"offset": 0,
								"slot": "12",
								"type": "t_struct(Skill)48_storage"
							}
						],
						"numberOfBytes": "480"
					},
					"t_struct(Contract)38_storage": {
						"encoding": "inplace",
						"label": "struct Profile.Contract",
						"members": [
							{
								"astId": 29,
								"contract": "contracts/Profile.sol:Profile",
								"label": "email",
								"offset": 0,
								"slot": "0",
								"type": "t_string_storage"
							},
							{
								"astId": 31,
								"contract": "contracts/Profile.sol:Profile",
								"label": "phone",
								"offset": 0,
								"slot": "1",
								"type": "t_string_storage"
							},
							{
								"astId": 33,
								"contract": "contracts/Profile.sol:Profile",
								"label": "github",
								"offset": 0,
								"slot": "2",
								"type": "t_string_storage"
							},
							{
								"astId": 35,
								"contract": "contracts/Profile.sol:Profile",
								"label": "gitlab",
								"offset": 0,
								"slot": "3",
								"type": "t_string_storage"
							},
							{
								"astId": 37,
								"contract": "contracts/Profile.sol:Profile",
								"label": "linkin",
								"offset": 0,
								"slot": "4",
								"type": "t_string_storage"
							}
						],
						"numberOfBytes": "160"
					},
					"t_struct(Skill)48_storage": {
						"encoding": "inplace",
						"label": "struct Profile.Skill",
						"members": [
							{
								"astId": 41,
								"contract": "contracts/Profile.sol:Profile",
								"label": "frontend",
								"offset": 0,
								"slot": "0",
								"type": "t_array(t_string_storage)dyn_storage"
							},
							{
								"astId": 44,
								"contract": "contracts/Profile.sol:Profile",
								"label": "backend",
								"offset": 0,
								"slot": "1",
								"type": "t_array(t_string_storage)dyn_storage"
							},
							{
								"astId": 47,
								"contract": "contracts/Profile.sol:Profile",
								"label": "framework",
								"offset": 0,
								"slot": "2",
								"type": "t_array(t_string_storage)dyn_storage"
							}
						],
						"numberOfBytes": "96"
					},
					"t_uint256": {
						"encoding": "inplace",
						"label": "uint256",
						"numberOfBytes": "32"
					}
				}
			},
			"userdoc": {
				"kind": "user",
				"methods": {},
				"version": 1
			}
		}
	}
}