{
	"contracts/Profile.sol": {
		"Profile": {
			"abi": [
				{
					"inputs": [
						{
							"internalType": "string",
							"name": "firstName",
							"type": "string"
						},
						{
							"internalType": "string",
							"name": "middleName",
							"type": "string"
						},
						{
							"internalType": "string",
							"name": "lastName",
							"type": "string"
						},
						{
							"internalType": "string",
							"name": "profileImage",
							"type": "string"
						}
					],
					"name": "addBio",
					"outputs": [],
					"stateMutability": "nonpayable",
					"type": "function"
				},
				{
					"inputs": [
						{
							"internalType": "string",
							"name": "email",
							"type": "string"
						},
						{
							"internalType": "string",
							"name": "phone",
							"type": "string"
						},
						{
							"internalType": "string",
							"name": "github",
							"type": "string"
						},
						{
							"internalType": "string",
							"name": "gitlab",
							"type": "string"
						},
						{
							"internalType": "string",
							"name": "linkin",
							"type": "string"
						}
					],
					"name": "addContract",
					"outputs": [],
					"stateMutability": "nonpayable",
					"type": "function"
				},
				{
					"inputs": [
						{
							"internalType": "string[]",
							"name": "frontend",
							"type": "string[]"
						},
						{
							"internalType": "string[]",
							"name": "backend",
							"type": "string[]"
						},
						{
							"internalType": "string[]",
							"name": "framework",
							"type": "string[]"
						}
					],
					"name": "addSkill",
					"outputs": [],
					"stateMutability": "nonpayable",
					"type": "function"
				},
				{
					"inputs": [],
					"name": "delProfile",
					"outputs": [],
					"stateMutability": "nonpayable",
					"type": "function"
				},
				{
					"inputs": [
						{
							"internalType": "address",
							"name": "",
							"type": "address"
						}
					],
					"name": "profile",
					"outputs": [
						{
							"internalType": "address",
							"name": "userAddress",
							"type": "address"
						},
						{
							"internalType": "string",
							"name": "firstName",
							"type": "string"
						},
						{
							"internalType": "string",
							"name": "middleName",
							"type": "string"
						},
						{
							"internalType": "string",
							"name": "lastName",
							"type": "string"
						},
						{
							"internalType": "string",
							"name": "profileImage",
							"type": "string"
						},
						{
							"internalType": "uint256",
							"name": "createDate",
							"type": "uint256"
						},
						{
							"internalType": "string",
							"name": "education",
							"type": "string"
						},
						{
							"components": [
								{
									"internalType": "string",
									"name": "email",
									"type": "string"
								},
								{
									"internalType": "string",
									"name": "phone",
									"type": "string"
								},
								{
									"internalType": "string",
									"name": "github",
									"type": "string"
								},
								{
									"internalType": "string",
									"name": "gitlab",
									"type": "string"
								},
								{
									"internalType": "string",
									"name": "linkin",
									"type": "string"
								}
							],
							"internalType": "struct Profile.Contract",
							"name": "privateContract",
							"type": "tuple"
						},
						{
							"components": [
								{
									"internalType": "string[]",
									"name": "frontend",
									"type": "string[]"
								},
								{
									"internalType": "string[]",
									"name": "backend",
									"type": "string[]"
								},
								{
									"internalType": "string[]",
									"name": "framework",
									"type": "string[]"
								}
							],
							"internalType": "struct Profile.Skill",
							"name": "skill",
							"type": "tuple"
						}
					],
					"stateMutability": "view",
					"type": "function"
				}
			],
			"devdoc": {
				"kind": "dev",
				"methods": {},
				"version": 1
			},
			"evm": {
				"assembly": "    /* \"contracts/Profile.sol\":60:1944  contract Profile {\r... */\n  mstore(0x40, 0x80)\n  callvalue\n  dup1\n  iszero\n  tag_1\n  jumpi\n  0x00\n  dup1\n  revert\ntag_1:\n  pop\n  dataSize(sub_0)\n  dup1\n  dataOffset(sub_0)\n  0x00\n  codecopy\n  0x00\n  return\nstop\n\nsub_0: assembly {\n        /* \"contracts/Profile.sol\":60:1944  contract Profile {\r... */\n      mstore(0x40, 0x80)\n      callvalue\n      dup1\n      iszero\n      tag_1\n      jumpi\n      0x00\n      dup1\n      revert\n    tag_1:\n      pop\n      jumpi(tag_2, lt(calldatasize, 0x04))\n      shr(0xe0, calldataload(0x00))\n      dup1\n      0x4571f125\n      eq\n      tag_3\n      jumpi\n      dup1\n      0x91f2cb9d\n      eq\n      tag_4\n      jumpi\n      dup1\n      0x9dd9d0fd\n      eq\n      tag_5\n      jumpi\n      dup1\n      0xd52246d7\n      eq\n      tag_6\n      jumpi\n      dup1\n      0xfabce08f\n      eq\n      tag_7\n      jumpi\n    tag_2:\n      0x00\n      dup1\n      revert\n        /* \"contracts/Profile.sol\":817:1281  function addBio(string memory firstName, string memory middleName, string memory lastName,  string memory profileImage) public {\r... */\n    tag_3:\n      tag_8\n      0x04\n      dup1\n      calldatasize\n      sub\n      dup2\n      add\n      swap1\n      tag_9\n      swap2\n      swap1\n      tag_10\n      jump\t// in\n    tag_9:\n      tag_11\n      jump\t// in\n    tag_8:\n      stop\n        /* \"contracts/Profile.sol\":1289:1564  function addContract(string memory email, string memory phone, string memory github, string memory gitlab, string memory linkin) public{\r... */\n    tag_4:\n      tag_12\n      0x04\n      dup1\n      calldatasize\n      sub\n      dup2\n      add\n      swap1\n      tag_13\n      swap2\n      swap1\n      tag_14\n      jump\t// in\n    tag_13:\n      tag_15\n      jump\t// in\n    tag_12:\n      stop\n        /* \"contracts/Profile.sol\":365:405  mapping (address => Bio) public  profile */\n    tag_5:\n      tag_16\n      0x04\n      dup1\n      calldatasize\n      sub\n      dup2\n      add\n      swap1\n      tag_17\n      swap2\n      swap1\n      tag_18\n      jump\t// in\n    tag_17:\n      tag_19\n      jump\t// in\n    tag_16:\n      mload(0x40)\n      tag_20\n      swap10\n      swap9\n      swap8\n      swap7\n      swap6\n      swap5\n      swap4\n      swap3\n      swap2\n      swap1\n      tag_21\n      jump\t// in\n    tag_20:\n      mload(0x40)\n      dup1\n      swap2\n      sub\n      swap1\n      return\n        /* \"contracts/Profile.sol\":1572:1850  function addSkill(string[] memory frontend, string[] memory backend, string[] memory framework) public{\r... */\n    tag_6:\n      tag_22\n      0x04\n      dup1\n      calldatasize\n      sub\n      dup2\n      add\n      swap1\n      tag_23\n      swap2\n      swap1\n      tag_24\n      jump\t// in\n    tag_23:\n      tag_25\n      jump\t// in\n    tag_22:\n      stop\n        /* \"contracts/Profile.sol\":1863:1937  function delProfile() public {\r... */\n    tag_7:\n      tag_26\n      tag_27\n      jump\t// in\n    tag_26:\n      stop\n        /* \"contracts/Profile.sol\":817:1281  function addBio(string memory firstName, string memory middleName, string memory lastName,  string memory profileImage) public {\r... */\n    tag_11:\n        /* \"contracts/Profile.sol\":987:996  firstName */\n      dup4\n        /* \"contracts/Profile.sol\":955:962  profile */\n      0x00\n        /* \"contracts/Profile.sol\":955:974  profile[msg.sender] */\n      dup1\n        /* \"contracts/Profile.sol\":963:973  msg.sender */\n      caller\n        /* \"contracts/Profile.sol\":955:974  profile[msg.sender] */\n      0xffffffffffffffffffffffffffffffffffffffff\n      and\n      0xffffffffffffffffffffffffffffffffffffffff\n      and\n      dup2\n      mstore\n      0x20\n      add\n      swap1\n      dup2\n      mstore\n      0x20\n      add\n      0x00\n      keccak256\n        /* \"contracts/Profile.sol\":955:984  profile[msg.sender].firstName */\n      0x01\n      add\n        /* \"contracts/Profile.sol\":955:996  profile[msg.sender].firstName = firstName */\n      swap1\n      dup1\n      mload\n      swap1\n      0x20\n      add\n      swap1\n      tag_29\n      swap3\n      swap2\n      swap1\n      tag_30\n      jump\t// in\n    tag_29:\n      pop\n        /* \"contracts/Profile.sol\":1040:1050  middleName */\n      dup3\n        /* \"contracts/Profile.sol\":1007:1014  profile */\n      0x00\n        /* \"contracts/Profile.sol\":1007:1026  profile[msg.sender] */\n      dup1\n        /* \"contracts/Profile.sol\":1015:1025  msg.sender */\n      caller\n        /* \"contracts/Profile.sol\":1007:1026  profile[msg.sender] */\n      0xffffffffffffffffffffffffffffffffffffffff\n      and\n      0xffffffffffffffffffffffffffffffffffffffff\n      and\n      dup2\n      mstore\n      0x20\n      add\n      swap1\n      dup2\n      mstore\n      0x20\n      add\n      0x00\n      keccak256\n        /* \"contracts/Profile.sol\":1007:1037  profile[msg.sender].middleName */\n      0x02\n      add\n        /* \"contracts/Profile.sol\":1007:1050  profile[msg.sender].middleName = middleName */\n      swap1\n      dup1\n      mload\n      swap1\n      0x20\n      add\n      swap1\n      tag_31\n      swap3\n      swap2\n      swap1\n      tag_30\n      jump\t// in\n    tag_31:\n      pop\n        /* \"contracts/Profile.sol\":1092:1100  lastName */\n      dup2\n        /* \"contracts/Profile.sol\":1061:1068  profile */\n      0x00\n        /* \"contracts/Profile.sol\":1061:1080  profile[msg.sender] */\n      dup1\n        /* \"contracts/Profile.sol\":1069:1079  msg.sender */\n      caller\n        /* \"contracts/Profile.sol\":1061:1080  profile[msg.sender] */\n      0xffffffffffffffffffffffffffffffffffffffff\n      and\n      0xffffffffffffffffffffffffffffffffffffffff\n      and\n      dup2\n      mstore\n      0x20\n      add\n      swap1\n      dup2\n      mstore\n      0x20\n      add\n      0x00\n      keccak256\n        /* \"contracts/Profile.sol\":1061:1089  profile[msg.sender].lastName */\n      0x03\n      add\n        /* \"contracts/Profile.sol\":1061:1100  profile[msg.sender].lastName = lastName */\n      swap1\n      dup1\n      mload\n      swap1\n      0x20\n      add\n      swap1\n      tag_32\n      swap3\n      swap2\n      swap1\n      tag_30\n      jump\t// in\n    tag_32:\n      pop\n        /* \"contracts/Profile.sol\":1146:1158  profileImage */\n      dup1\n        /* \"contracts/Profile.sol\":1111:1118  profile */\n      0x00\n        /* \"contracts/Profile.sol\":1111:1130  profile[msg.sender] */\n      dup1\n        /* \"contracts/Profile.sol\":1119:1129  msg.sender */\n      caller\n        /* \"contracts/Profile.sol\":1111:1130  profile[msg.sender] */\n      0xffffffffffffffffffffffffffffffffffffffff\n      and\n      0xffffffffffffffffffffffffffffffffffffffff\n      and\n      dup2\n      mstore\n      0x20\n      add\n      swap1\n      dup2\n      mstore\n      0x20\n      add\n      0x00\n      keccak256\n        /* \"contracts/Profile.sol\":1111:1143  profile[msg.sender].profileImage */\n      0x04\n      add\n        /* \"contracts/Profile.sol\":1111:1158  profile[msg.sender].profileImage = profileImage */\n      swap1\n      dup1\n      mload\n      swap1\n      0x20\n      add\n      swap1\n      tag_33\n      swap3\n      swap2\n      swap1\n      tag_30\n      jump\t// in\n    tag_33:\n      pop\n        /* \"contracts/Profile.sol\":1203:1213  msg.sender */\n      caller\n        /* \"contracts/Profile.sol\":1169:1176  profile */\n      0x00\n        /* \"contracts/Profile.sol\":1169:1188  profile[msg.sender] */\n      dup1\n        /* \"contracts/Profile.sol\":1177:1187  msg.sender */\n      caller\n        /* \"contracts/Profile.sol\":1169:1188  profile[msg.sender] */\n      0xffffffffffffffffffffffffffffffffffffffff\n      and\n      0xffffffffffffffffffffffffffffffffffffffff\n      and\n      dup2\n      mstore\n      0x20\n      add\n      swap1\n      dup2\n      mstore\n      0x20\n      add\n      0x00\n      keccak256\n        /* \"contracts/Profile.sol\":1169:1200  profile[msg.sender].userAddress */\n      0x00\n      add\n      0x00\n        /* \"contracts/Profile.sol\":1169:1213  profile[msg.sender].userAddress = msg.sender */\n      0x0100\n      exp\n      dup2\n      sload\n      dup2\n      0xffffffffffffffffffffffffffffffffffffffff\n      mul\n      not\n      and\n      swap1\n      dup4\n      0xffffffffffffffffffffffffffffffffffffffff\n      and\n      mul\n      or\n      swap1\n      sstore\n      pop\n        /* \"contracts/Profile.sol\":1258:1273  block.timestamp */\n      timestamp\n        /* \"contracts/Profile.sol\":1225:1232  profile */\n      0x00\n        /* \"contracts/Profile.sol\":1225:1244  profile[msg.sender] */\n      dup1\n        /* \"contracts/Profile.sol\":1233:1243  msg.sender */\n      caller\n        /* \"contracts/Profile.sol\":1225:1244  profile[msg.sender] */\n      0xffffffffffffffffffffffffffffffffffffffff\n      and\n      0xffffffffffffffffffffffffffffffffffffffff\n      and\n      dup2\n      mstore\n      0x20\n      add\n      swap1\n      dup2\n      mstore\n      0x20\n      add\n      0x00\n      keccak256\n        /* \"contracts/Profile.sol\":1225:1255  profile[msg.sender].createDate */\n      0x05\n      add\n        /* \"contracts/Profile.sol\":1225:1273  profile[msg.sender].createDate = block.timestamp */\n      dup2\n      swap1\n      sstore\n      pop\n        /* \"contracts/Profile.sol\":817:1281  function addBio(string memory firstName, string memory middleName, string memory lastName,  string memory profileImage) public {\r... */\n      pop\n      pop\n      pop\n      pop\n      jump\t// out\n        /* \"contracts/Profile.sol\":1289:1564  function addContract(string memory email, string memory phone, string memory github, string memory gitlab, string memory linkin) public{\r... */\n    tag_15:\n        /* \"contracts/Profile.sol\":1479:1484  email */\n      dup5\n        /* \"contracts/Profile.sol\":1435:1442  profile */\n      0x00\n        /* \"contracts/Profile.sol\":1435:1454  profile[msg.sender] */\n      dup1\n        /* \"contracts/Profile.sol\":1443:1453  msg.sender */\n      caller\n        /* \"contracts/Profile.sol\":1435:1454  profile[msg.sender] */\n      0xffffffffffffffffffffffffffffffffffffffff\n      and\n      0xffffffffffffffffffffffffffffffffffffffff\n      and\n      dup2\n      mstore\n      0x20\n      add\n      swap1\n      dup2\n      mstore\n      0x20\n      add\n      0x00\n      keccak256\n        /* \"contracts/Profile.sol\":1435:1470  profile[msg.sender].privateContract */\n      0x07\n      add\n        /* \"contracts/Profile.sol\":1435:1476  profile[msg.sender].privateContract.email */\n      0x00\n      add\n        /* \"contracts/Profile.sol\":1435:1484  profile[msg.sender].privateContract.email = email */\n      swap1\n      dup1\n      mload\n      swap1\n      0x20\n      add\n      swap1\n      tag_35\n      swap3\n      swap2\n      swap1\n      tag_30\n      jump\t// in\n    tag_35:\n      pop\n        /* \"contracts/Profile.sol\":1539:1544  phone */\n      dup4\n        /* \"contracts/Profile.sol\":1495:1502  profile */\n      0x00\n        /* \"contracts/Profile.sol\":1495:1514  profile[msg.sender] */\n      dup1\n        /* \"contracts/Profile.sol\":1503:1513  msg.sender */\n      caller\n        /* \"contracts/Profile.sol\":1495:1514  profile[msg.sender] */\n      0xffffffffffffffffffffffffffffffffffffffff\n      and\n      0xffffffffffffffffffffffffffffffffffffffff\n      and\n      dup2\n      mstore\n      0x20\n      add\n      swap1\n      dup2\n      mstore\n      0x20\n      add\n      0x00\n      keccak256\n        /* \"contracts/Profile.sol\":1495:1530  profile[msg.sender].privateContract */\n      0x07\n      add\n        /* \"contracts/Profile.sol\":1495:1536  profile[msg.sender].privateContract.phone */\n      0x01\n      add\n        /* \"contracts/Profile.sol\":1495:1544  profile[msg.sender].privateContract.phone = phone */\n      swap1\n      dup1\n      mload\n      swap1\n      0x20\n      add\n      swap1\n      tag_36\n      swap3\n      swap2\n      swap1\n      tag_30\n      jump\t// in\n    tag_36:\n      pop\n        /* \"contracts/Profile.sol\":1289:1564  function addContract(string memory email, string memory phone, string memory github, string memory gitlab, string memory linkin) public{\r... */\n      pop\n      pop\n      pop\n      pop\n      pop\n      jump\t// out\n        /* \"contracts/Profile.sol\":365:405  mapping (address => Bio) public  profile */\n    tag_19:\n      mstore(0x20, 0x00)\n      dup1\n      0x00\n      mstore\n      keccak256(0x00, 0x40)\n      0x00\n      swap2\n      pop\n      swap1\n      pop\n      dup1\n      0x00\n      add\n      0x00\n      swap1\n      sload\n      swap1\n      0x0100\n      exp\n      swap1\n      div\n      0xffffffffffffffffffffffffffffffffffffffff\n      and\n      swap1\n      dup1\n      0x01\n      add\n      dup1\n      sload\n      tag_37\n      swap1\n      tag_38\n      jump\t// in\n    tag_37:\n      dup1\n      0x1f\n      add\n      0x20\n      dup1\n      swap2\n      div\n      mul\n      0x20\n      add\n      mload(0x40)\n      swap1\n      dup2\n      add\n      0x40\n      mstore\n      dup1\n      swap3\n      swap2\n      swap1\n      dup2\n      dup2\n      mstore\n      0x20\n      add\n      dup3\n      dup1\n      sload\n      tag_39\n      swap1\n      tag_38\n      jump\t// in\n    tag_39:\n      dup1\n      iszero\n      tag_40\n      jumpi\n      dup1\n      0x1f\n      lt\n      tag_41\n      jumpi\n      0x0100\n      dup1\n      dup4\n      sload\n      div\n      mul\n      dup4\n      mstore\n      swap2\n      0x20\n      add\n      swap2\n      jump(tag_40)\n    tag_41:\n      dup3\n      add\n      swap2\n      swap1\n      0x00\n      mstore\n      keccak256(0x00, 0x20)\n      swap1\n    tag_42:\n      dup2\n      sload\n      dup2\n      mstore\n      swap1\n      0x01\n      add\n      swap1\n      0x20\n      add\n      dup1\n      dup4\n      gt\n      tag_42\n      jumpi\n      dup3\n      swap1\n      sub\n      0x1f\n      and\n      dup3\n      add\n      swap2\n    tag_40:\n      pop\n      pop\n      pop\n      pop\n      pop\n      swap1\n      dup1\n      0x02\n      add\n      dup1\n      sload\n      tag_43\n      swap1\n      tag_38\n      jump\t// in\n    tag_43:\n      dup1\n      0x1f\n      add\n      0x20\n      dup1\n      swap2\n      div\n      mul\n      0x20\n      add\n      mload(0x40)\n      swap1\n      dup2\n      add\n      0x40\n      mstore\n      dup1\n      swap3\n      swap2\n      swap1\n      dup2\n      dup2\n      mstore\n      0x20\n      add\n      dup3\n      dup1\n      sload\n      tag_44\n      swap1\n      tag_38\n      jump\t// in\n    tag_44:\n      dup1\n      iszero\n      tag_45\n      jumpi\n      dup1\n      0x1f\n      lt\n      tag_46\n      jumpi\n      0x0100\n      dup1\n      dup4\n      sload\n      div\n      mul\n      dup4\n      mstore\n      swap2\n      0x20\n      add\n      swap2\n      jump(tag_45)\n    tag_46:\n      dup3\n      add\n      swap2\n      swap1\n      0x00\n      mstore\n      keccak256(0x00, 0x20)\n      swap1\n    tag_47:\n      dup2\n      sload\n      dup2\n      mstore\n      swap1\n      0x01\n      add\n      swap1\n      0x20\n      add\n      dup1\n      dup4\n      gt\n      tag_47\n      jumpi\n      dup3\n      swap1\n      sub\n      0x1f\n      and\n      dup3\n      add\n      swap2\n    tag_45:\n      pop\n      pop\n      pop\n      pop\n      pop\n      swap1\n      dup1\n      0x03\n      add\n      dup1\n      sload\n      tag_48\n      swap1\n      tag_38\n      jump\t// in\n    tag_48:\n      dup1\n      0x1f\n      add\n      0x20\n      dup1\n      swap2\n      div\n      mul\n      0x20\n      add\n      mload(0x40)\n      swap1\n      dup2\n      add\n      0x40\n      mstore\n      dup1\n      swap3\n      swap2\n      swap1\n      dup2\n      dup2\n      mstore\n      0x20\n      add\n      dup3\n      dup1\n      sload\n      tag_49\n      swap1\n      tag_38\n      jump\t// in\n    tag_49:\n      dup1\n      iszero\n      tag_50\n      jumpi\n      dup1\n      0x1f\n      lt\n      tag_51\n      jumpi\n      0x0100\n      dup1\n      dup4\n      sload\n      div\n      mul\n      dup4\n      mstore\n      swap2\n      0x20\n      add\n      swap2\n      jump(tag_50)\n    tag_51:\n      dup3\n      add\n      swap2\n      swap1\n      0x00\n      mstore\n      keccak256(0x00, 0x20)\n      swap1\n    tag_52:\n      dup2\n      sload\n      dup2\n      mstore\n      swap1\n      0x01\n      add\n      swap1\n      0x20\n      add\n      dup1\n      dup4\n      gt\n      tag_52\n      jumpi\n      dup3\n      swap1\n      sub\n      0x1f\n      and\n      dup3\n      add\n      swap2\n    tag_50:\n      pop\n      pop\n      pop\n      pop\n      pop\n      swap1\n      dup1\n      0x04\n      add\n      dup1\n      sload\n      tag_53\n      swap1\n      tag_38\n      jump\t// in\n    tag_53:\n      dup1\n      0x1f\n      add\n      0x20\n      dup1\n      swap2\n      div\n      mul\n      0x20\n      add\n      mload(0x40)\n      swap1\n      dup2\n      add\n      0x40\n      mstore\n      dup1\n      swap3\n      swap2\n      swap1\n      dup2\n      dup2\n      mstore\n      0x20\n      add\n      dup3\n      dup1\n      sload\n      tag_54\n      swap1\n      tag_38\n      jump\t// in\n    tag_54:\n      dup1\n      iszero\n      tag_55\n      jumpi\n      dup1\n      0x1f\n      lt\n      tag_56\n      jumpi\n      0x0100\n      dup1\n      dup4\n      sload\n      div\n      mul\n      dup4\n      mstore\n      swap2\n      0x20\n      add\n      swap2\n      jump(tag_55)\n    tag_56:\n      dup3\n      add\n      swap2\n      swap1\n      0x00\n      mstore\n      keccak256(0x00, 0x20)\n      swap1\n    tag_57:\n      dup2\n      sload\n      dup2\n      mstore\n      swap1\n      0x01\n      add\n      swap1\n      0x20\n      add\n      dup1\n      dup4\n      gt\n      tag_57\n      jumpi\n      dup3\n      swap1\n      sub\n      0x1f\n      and\n      dup3\n      add\n      swap2\n    tag_55:\n      pop\n      pop\n      pop\n      pop\n      pop\n      swap1\n      dup1\n      0x05\n      add\n      sload\n      swap1\n      dup1\n      0x06\n      add\n      dup1\n      sload\n      tag_58\n      swap1\n      tag_38\n      jump\t// in\n    tag_58:\n      dup1\n      0x1f\n      add\n      0x20\n      dup1\n      swap2\n      div\n      mul\n      0x20\n      add\n      mload(0x40)\n      swap1\n      dup2\n      add\n      0x40\n      mstore\n      dup1\n      swap3\n      swap2\n      swap1\n      dup2\n      dup2\n      mstore\n      0x20\n      add\n      dup3\n      dup1\n      sload\n      tag_59\n      swap1\n      tag_38\n      jump\t// in\n    tag_59:\n      dup1\n      iszero\n      tag_60\n      jumpi\n      dup1\n      0x1f\n      lt\n      tag_61\n      jumpi\n      0x0100\n      dup1\n      dup4\n      sload\n      div\n      mul\n      dup4\n      mstore\n      swap2\n      0x20\n      add\n      swap2\n      jump(tag_60)\n    tag_61:\n      dup3\n      add\n      swap2\n      swap1\n      0x00\n      mstore\n      keccak256(0x00, 0x20)\n      swap1\n    tag_62:\n      dup2\n      sload\n      dup2\n      mstore\n      swap1\n      0x01\n      add\n      swap1\n      0x20\n      add\n      dup1\n      dup4\n      gt\n      tag_62\n      jumpi\n      dup3\n      swap1\n      sub\n      0x1f\n      and\n      dup3\n      add\n      swap2\n    tag_60:\n      pop\n      pop\n      pop\n      pop\n      pop\n      swap1\n      dup1\n      0x07\n      add\n      mload(0x40)\n      dup1\n      0xa0\n      add\n      0x40\n      mstore\n      swap1\n      dup2\n      0x00\n      dup3\n      add\n      dup1\n      sload\n      tag_63\n      swap1\n      tag_38\n      jump\t// in\n    tag_63:\n      dup1\n      0x1f\n      add\n      0x20\n      dup1\n      swap2\n      div\n      mul\n      0x20\n      add\n      mload(0x40)\n      swap1\n      dup2\n      add\n      0x40\n      mstore\n      dup1\n      swap3\n      swap2\n      swap1\n      dup2\n      dup2\n      mstore\n      0x20\n      add\n      dup3\n      dup1\n      sload\n      tag_64\n      swap1\n      tag_38\n      jump\t// in\n    tag_64:\n      dup1\n      iszero\n      tag_65\n      jumpi\n      dup1\n      0x1f\n      lt\n      tag_66\n      jumpi\n      0x0100\n      dup1\n      dup4\n      sload\n      div\n      mul\n      dup4\n      mstore\n      swap2\n      0x20\n      add\n      swap2\n      jump(tag_65)\n    tag_66:\n      dup3\n      add\n      swap2\n      swap1\n      0x00\n      mstore\n      keccak256(0x00, 0x20)\n      swap1\n    tag_67:\n      dup2\n      sload\n      dup2\n      mstore\n      swap1\n      0x01\n      add\n      swap1\n      0x20\n      add\n      dup1\n      dup4\n      gt\n      tag_67\n      jumpi\n      dup3\n      swap1\n      sub\n      0x1f\n      and\n      dup3\n      add\n      swap2\n    tag_65:\n      pop\n      pop\n      pop\n      pop\n      pop\n      dup2\n      mstore\n      0x20\n      add\n      0x01\n      dup3\n      add\n      dup1\n      sload\n      tag_68\n      swap1\n      tag_38\n      jump\t// in\n    tag_68:\n      dup1\n      0x1f\n      add\n      0x20\n      dup1\n      swap2\n      div\n      mul\n      0x20\n      add\n      mload(0x40)\n      swap1\n      dup2\n      add\n      0x40\n      mstore\n      dup1\n      swap3\n      swap2\n      swap1\n      dup2\n      dup2\n      mstore\n      0x20\n      add\n      dup3\n      dup1\n      sload\n      tag_69\n      swap1\n      tag_38\n      jump\t// in\n    tag_69:\n      dup1\n      iszero\n      tag_70\n      jumpi\n      dup1\n      0x1f\n      lt\n      tag_71\n      jumpi\n      0x0100\n      dup1\n      dup4\n      sload\n      div\n      mul\n      dup4\n      mstore\n      swap2\n      0x20\n      add\n      swap2\n      jump(tag_70)\n    tag_71:\n      dup3\n      add\n      swap2\n      swap1\n      0x00\n      mstore\n      keccak256(0x00, 0x20)\n      swap1\n    tag_72:\n      dup2\n      sload\n      dup2\n      mstore\n      swap1\n      0x01\n      add\n      swap1\n      0x20\n      add\n      dup1\n      dup4\n      gt\n      tag_72\n      jumpi\n      dup3\n      swap1\n      sub\n      0x1f\n      and\n      dup3\n      add\n      swap2\n    tag_70:\n      pop\n      pop\n      pop\n      pop\n      pop\n      dup2\n      mstore\n      0x20\n      add\n      0x02\n      dup3\n      add\n      dup1\n      sload\n      tag_73\n      swap1\n      tag_38\n      jump\t// in\n    tag_73:\n      dup1\n      0x1f\n      add\n      0x20\n      dup1\n      swap2\n      div\n      mul\n      0x20\n      add\n      mload(0x40)\n      swap1\n      dup2\n      add\n      0x40\n      mstore\n      dup1\n      swap3\n      swap2\n      swap1\n      dup2\n      dup2\n      mstore\n      0x20\n      add\n      dup3\n      dup1\n      sload\n      tag_74\n      swap1\n      tag_38\n      jump\t// in\n    tag_74:\n      dup1\n      iszero\n      tag_75\n      jumpi\n      dup1\n      0x1f\n      lt\n      tag_76\n      jumpi\n      0x0100\n      dup1\n      dup4\n      sload\n      div\n      mul\n      dup4\n      mstore\n      swap2\n      0x20\n      add\n      swap2\n      jump(tag_75)\n    tag_76:\n      dup3\n      add\n      swap2\n      swap1\n      0x00\n      mstore\n      keccak256(0x00, 0x20)\n      swap1\n    tag_77:\n      dup2\n      sload\n      dup2\n      mstore\n      swap1\n      0x01\n      add\n      swap1\n      0x20\n      add\n      dup1\n      dup4\n      gt\n      tag_77\n      jumpi\n      dup3\n      swap1\n      sub\n      0x1f\n      and\n      dup3\n      add\n      swap2\n    tag_75:\n      pop\n      pop\n      pop\n      pop\n      pop\n      dup2\n      mstore\n      0x20\n      add\n      0x03\n      dup3\n      add\n      dup1\n      sload\n      tag_78\n      swap1\n      tag_38\n      jump\t// in\n    tag_78:\n      dup1\n      0x1f\n      add\n      0x20\n      dup1\n      swap2\n      div\n      mul\n      0x20\n      add\n      mload(0x40)\n      swap1\n      dup2\n      add\n      0x40\n      mstore\n      dup1\n      swap3\n      swap2\n      swap1\n      dup2\n      dup2\n      mstore\n      0x20\n      add\n      dup3\n      dup1\n      sload\n      tag_79\n      swap1\n      tag_38\n      jump\t// in\n    tag_79:\n      dup1\n      iszero\n      tag_80\n      jumpi\n      dup1\n      0x1f\n      lt\n      tag_81\n      jumpi\n      0x0100\n      dup1\n      dup4\n      sload\n      div\n      mul\n      dup4\n      mstore\n      swap2\n      0x20\n      add\n      swap2\n      jump(tag_80)\n    tag_81:\n      dup3\n      add\n      swap2\n      swap1\n      0x00\n      mstore\n      keccak256(0x00, 0x20)\n      swap1\n    tag_82:\n      dup2\n      sload\n      dup2\n      mstore\n      swap1\n      0x01\n      add\n      swap1\n      0x20\n      add\n      dup1\n      dup4\n      gt\n      tag_82\n      jumpi\n      dup3\n      swap1\n      sub\n      0x1f\n      and\n      dup3\n      add\n      swap2\n    tag_80:\n      pop\n      pop\n      pop\n      pop\n      pop\n      dup2\n      mstore\n      0x20\n      add\n      0x04\n      dup3\n      add\n      dup1\n      sload\n      tag_83\n      swap1\n      tag_38\n      jump\t// in\n    tag_83:\n      dup1\n      0x1f\n      add\n      0x20\n      dup1\n      swap2\n      div\n      mul\n      0x20\n      add\n      mload(0x40)\n      swap1\n      dup2\n      add\n      0x40\n      mstore\n      dup1\n      swap3\n      swap2\n      swap1\n      dup2\n      dup2\n      mstore\n      0x20\n      add\n      dup3\n      dup1\n      sload\n      tag_84\n      swap1\n      tag_38\n      jump\t// in\n    tag_84:\n      dup1\n      iszero\n      tag_85\n      jumpi\n      dup1\n      0x1f\n      lt\n      tag_86\n      jumpi\n      0x0100\n      dup1\n      dup4\n      sload\n      div\n      mul\n      dup4\n      mstore\n      swap2\n      0x20\n      add\n      swap2\n      jump(tag_85)\n    tag_86:\n      dup3\n      add\n      swap2\n      swap1\n      0x00\n      mstore\n      keccak256(0x00, 0x20)\n      swap1\n    tag_87:\n      dup2\n      sload\n      dup2\n      mstore\n      swap1\n      0x01\n      add\n      swap1\n      0x20\n      add\n      dup1\n      dup4\n      gt\n      tag_87\n      jumpi\n      dup3\n      swap1\n      sub\n      0x1f\n      and\n      dup3\n      add\n      swap2\n    tag_85:\n      pop\n      pop\n      pop\n      pop\n      pop\n      dup2\n      mstore\n      pop\n      pop\n      swap1\n      dup1\n      0x0c\n      add\n      mload(0x40)\n      dup1\n      0x60\n      add\n      0x40\n      mstore\n      swap1\n      dup2\n      0x00\n      dup3\n      add\n      dup1\n      sload\n      dup1\n      0x20\n      mul\n      0x20\n      add\n      mload(0x40)\n      swap1\n      dup2\n      add\n      0x40\n      mstore\n      dup1\n      swap3\n      swap2\n      swap1\n      dup2\n      dup2\n      mstore\n      0x20\n      add\n      0x00\n      swap1\n    tag_88:\n      dup3\n      dup3\n      lt\n      iszero\n      tag_89\n      jumpi\n      dup4\n      dup3\n      swap1\n      0x00\n      mstore\n      keccak256(0x00, 0x20)\n      add\n      dup1\n      sload\n      tag_91\n      swap1\n      tag_38\n      jump\t// in\n    tag_91:\n      dup1\n      0x1f\n      add\n      0x20\n      dup1\n      swap2\n      div\n      mul\n      0x20\n      add\n      mload(0x40)\n      swap1\n      dup2\n      add\n      0x40\n      mstore\n      dup1\n      swap3\n      swap2\n      swap1\n      dup2\n      dup2\n      mstore\n      0x20\n      add\n      dup3\n      dup1\n      sload\n      tag_92\n      swap1\n      tag_38\n      jump\t// in\n    tag_92:\n      dup1\n      iszero\n      tag_93\n      jumpi\n      dup1\n      0x1f\n      lt\n      tag_94\n      jumpi\n      0x0100\n      dup1\n      dup4\n      sload\n      div\n      mul\n      dup4\n      mstore\n      swap2\n      0x20\n      add\n      swap2\n      jump(tag_93)\n    tag_94:\n      dup3\n      add\n      swap2\n      swap1\n      0x00\n      mstore\n      keccak256(0x00, 0x20)\n      swap1\n    tag_95:\n      dup2\n      sload\n      dup2\n      mstore\n      swap1\n      0x01\n      add\n      swap1\n      0x20\n      add\n      dup1\n      dup4\n      gt\n      tag_95\n      jumpi\n      dup3\n      swap1\n      sub\n      0x1f\n      and\n      dup3\n      add\n      swap2\n    tag_93:\n      pop\n      pop\n      pop\n      pop\n      pop\n      dup2\n      mstore\n      0x20\n      add\n      swap1\n      0x01\n      add\n      swap1\n      jump(tag_88)\n    tag_89:\n      pop\n      pop\n      pop\n      pop\n      dup2\n      mstore\n      0x20\n      add\n      0x01\n      dup3\n      add\n      dup1\n      sload\n      dup1\n      0x20\n      mul\n      0x20\n      add\n      mload(0x40)\n      swap1\n      dup2\n      add\n      0x40\n      mstore\n      dup1\n      swap3\n      swap2\n      swap1\n      dup2\n      dup2\n      mstore\n      0x20\n      add\n      0x00\n      swap1\n    tag_96:\n      dup3\n      dup3\n      lt\n      iszero\n      tag_97\n      jumpi\n      dup4\n      dup3\n      swap1\n      0x00\n      mstore\n      keccak256(0x00, 0x20)\n      add\n      dup1\n      sload\n      tag_99\n      swap1\n      tag_38\n      jump\t// in\n    tag_99:\n      dup1\n      0x1f\n      add\n      0x20\n      dup1\n      swap2\n      div\n      mul\n      0x20\n      add\n      mload(0x40)\n      swap1\n      dup2\n      add\n      0x40\n      mstore\n      dup1\n      swap3\n      swap2\n      swap1\n      dup2\n      dup2\n      mstore\n      0x20\n      add\n      dup3\n      dup1\n      sload\n      tag_100\n      swap1\n      tag_38\n      jump\t// in\n    tag_100:\n      dup1\n      iszero\n      tag_101\n      jumpi\n      dup1\n      0x1f\n      lt\n      tag_102\n      jumpi\n      0x0100\n      dup1\n      dup4\n      sload\n      div\n      mul\n      dup4\n      mstore\n      swap2\n      0x20\n      add\n      swap2\n      jump(tag_101)\n    tag_102:\n      dup3\n      add\n      swap2\n      swap1\n      0x00\n      mstore\n      keccak256(0x00, 0x20)\n      swap1\n    tag_103:\n      dup2\n      sload\n      dup2\n      mstore\n      swap1\n      0x01\n      add\n      swap1\n      0x20\n      add\n      dup1\n      dup4\n      gt\n      tag_103\n      jumpi\n      dup3\n      swap1\n      sub\n      0x1f\n      and\n      dup3\n      add\n      swap2\n    tag_101:\n      pop\n      pop\n      pop\n      pop\n      pop\n      dup2\n      mstore\n      0x20\n      add\n      swap1\n      0x01\n      add\n      swap1\n      jump(tag_96)\n    tag_97:\n      pop\n      pop\n      pop\n      pop\n      dup2\n      mstore\n      0x20\n      add\n      0x02\n      dup3\n      add\n      dup1\n      sload\n      dup1\n      0x20\n      mul\n      0x20\n      add\n      mload(0x40)\n      swap1\n      dup2\n      add\n      0x40\n      mstore\n      dup1\n      swap3\n      swap2\n      swap1\n      dup2\n      dup2\n      mstore\n      0x20\n      add\n      0x00\n      swap1\n    tag_104:\n      dup3\n      dup3\n      lt\n      iszero\n      tag_105\n      jumpi\n      dup4\n      dup3\n      swap1\n      0x00\n      mstore\n      keccak256(0x00, 0x20)\n      add\n      dup1\n      sload\n      tag_107\n      swap1\n      tag_38\n      jump\t// in\n    tag_107:\n      dup1\n      0x1f\n      add\n      0x20\n      dup1\n      swap2\n      div\n      mul\n      0x20\n      add\n      mload(0x40)\n      swap1\n      dup2\n      add\n      0x40\n      mstore\n      dup1\n      swap3\n      swap2\n      swap1\n      dup2\n      dup2\n      mstore\n      0x20\n      add\n      dup3\n      dup1\n      sload\n      tag_108\n      swap1\n      tag_38\n      jump\t// in\n    tag_108:\n      dup1\n      iszero\n      tag_109\n      jumpi\n      dup1\n      0x1f\n      lt\n      tag_110\n      jumpi\n      0x0100\n      dup1\n      dup4\n      sload\n      div\n      mul\n      dup4\n      mstore\n      swap2\n      0x20\n      add\n      swap2\n      jump(tag_109)\n    tag_110:\n      dup3\n      add\n      swap2\n      swap1\n      0x00\n      mstore\n      keccak256(0x00, 0x20)\n      swap1\n    tag_111:\n      dup2\n      sload\n      dup2\n      mstore\n      swap1\n      0x01\n      add\n      swap1\n      0x20\n      add\n      dup1\n      dup4\n      gt\n      tag_111\n      jumpi\n      dup3\n      swap1\n      sub\n      0x1f\n      and\n      dup3\n      add\n      swap2\n    tag_109:\n      pop\n      pop\n      pop\n      pop\n      pop\n      dup2\n      mstore\n      0x20\n      add\n      swap1\n      0x01\n      add\n      swap1\n      jump(tag_104)\n    tag_105:\n      pop\n      pop\n      pop\n      pop\n      dup2\n      mstore\n      pop\n      pop\n      swap1\n      pop\n      dup10\n      jump\t// out\n        /* \"contracts/Profile.sol\":1572:1850  function addSkill(string[] memory frontend, string[] memory backend, string[] memory framework) public{\r... */\n    tag_25:\n        /* \"contracts/Profile.sol\":1722:1730  frontend */\n      dup3\n        /* \"contracts/Profile.sol\":1685:1692  profile */\n      0x00\n        /* \"contracts/Profile.sol\":1685:1704  profile[msg.sender] */\n      dup1\n        /* \"contracts/Profile.sol\":1693:1703  msg.sender */\n      caller\n        /* \"contracts/Profile.sol\":1685:1704  profile[msg.sender] */\n      0xffffffffffffffffffffffffffffffffffffffff\n      and\n      0xffffffffffffffffffffffffffffffffffffffff\n      and\n      dup2\n      mstore\n      0x20\n      add\n      swap1\n      dup2\n      mstore\n      0x20\n      add\n      0x00\n      keccak256\n        /* \"contracts/Profile.sol\":1685:1710  profile[msg.sender].skill */\n      0x0c\n      add\n        /* \"contracts/Profile.sol\":1685:1719  profile[msg.sender].skill.frontend */\n      0x00\n      add\n        /* \"contracts/Profile.sol\":1685:1730  profile[msg.sender].skill.frontend = frontend */\n      swap1\n      dup1\n      mload\n      swap1\n      0x20\n      add\n      swap1\n      tag_113\n      swap3\n      swap2\n      swap1\n      tag_114\n      jump\t// in\n    tag_113:\n      pop\n        /* \"contracts/Profile.sol\":1777:1784  backend */\n      dup2\n        /* \"contracts/Profile.sol\":1741:1748  profile */\n      0x00\n        /* \"contracts/Profile.sol\":1741:1760  profile[msg.sender] */\n      dup1\n        /* \"contracts/Profile.sol\":1749:1759  msg.sender */\n      caller\n        /* \"contracts/Profile.sol\":1741:1760  profile[msg.sender] */\n      0xffffffffffffffffffffffffffffffffffffffff\n      and\n      0xffffffffffffffffffffffffffffffffffffffff\n      and\n      dup2\n      mstore\n      0x20\n      add\n      swap1\n      dup2\n      mstore\n      0x20\n      add\n      0x00\n      keccak256\n        /* \"contracts/Profile.sol\":1741:1766  profile[msg.sender].skill */\n      0x0c\n      add\n        /* \"contracts/Profile.sol\":1741:1774  profile[msg.sender].skill.backend */\n      0x01\n      add\n        /* \"contracts/Profile.sol\":1741:1784  profile[msg.sender].skill.backend = backend */\n      swap1\n      dup1\n      mload\n      swap1\n      0x20\n      add\n      swap1\n      tag_115\n      swap3\n      swap2\n      swap1\n      tag_114\n      jump\t// in\n    tag_115:\n      pop\n        /* \"contracts/Profile.sol\":1833:1842  framework */\n      dup1\n        /* \"contracts/Profile.sol\":1795:1802  profile */\n      0x00\n        /* \"contracts/Profile.sol\":1795:1814  profile[msg.sender] */\n      dup1\n        /* \"contracts/Profile.sol\":1803:1813  msg.sender */\n      caller\n        /* \"contracts/Profile.sol\":1795:1814  profile[msg.sender] */\n      0xffffffffffffffffffffffffffffffffffffffff\n      and\n      0xffffffffffffffffffffffffffffffffffffffff\n      and\n      dup2\n      mstore\n      0x20\n      add\n      swap1\n      dup2\n      mstore\n      0x20\n      add\n      0x00\n      keccak256\n        /* \"contracts/Profile.sol\":1795:1820  profile[msg.sender].skill */\n      0x0c\n      add\n        /* \"contracts/Profile.sol\":1795:1830  profile[msg.sender].skill.framework */\n      0x02\n      add\n        /* \"contracts/Profile.sol\":1795:1842  profile[msg.sender].skill.framework = framework */\n      swap1\n      dup1\n      mload\n      swap1\n      0x20\n      add\n      swap1\n      tag_116\n      swap3\n      swap2\n      swap1\n      tag_114\n      jump\t// in\n    tag_116:\n      pop\n        /* \"contracts/Profile.sol\":1572:1850  function addSkill(string[] memory frontend, string[] memory backend, string[] memory framework) public{\r... */\n      pop\n      pop\n      pop\n      jump\t// out\n        /* \"contracts/Profile.sol\":1863:1937  function delProfile() public {\r... */\n    tag_27:\n        /* \"contracts/Profile.sol\":1910:1917  profile */\n      0x00\n        /* \"contracts/Profile.sol\":1910:1929  profile[msg.sender] */\n      dup1\n        /* \"contracts/Profile.sol\":1918:1928  msg.sender */\n      caller\n        /* \"contracts/Profile.sol\":1910:1929  profile[msg.sender] */\n      0xffffffffffffffffffffffffffffffffffffffff\n      and\n      0xffffffffffffffffffffffffffffffffffffffff\n      and\n      dup2\n      mstore\n      0x20\n      add\n      swap1\n      dup2\n      mstore\n      0x20\n      add\n      0x00\n      keccak256\n      0x00\n        /* \"contracts/Profile.sol\":1903:1929  delete profile[msg.sender] */\n      dup1\n      dup3\n      add\n      exp(0x0100, 0x00)\n      dup2\n      sload\n      swap1\n      0xffffffffffffffffffffffffffffffffffffffff\n      mul\n      not\n      and\n      swap1\n      sstore\n      0x01\n      dup3\n      add\n      0x00\n      tag_118\n      swap2\n      swap1\n      tag_119\n      jump\t// in\n    tag_118:\n      0x02\n      dup3\n      add\n      0x00\n      tag_120\n      swap2\n      swap1\n      tag_119\n      jump\t// in\n    tag_120:\n      0x03\n      dup3\n      add\n      0x00\n      tag_121\n      swap2\n      swap1\n      tag_119\n      jump\t// in\n    tag_121:\n      0x04\n      dup3\n      add\n      0x00\n      tag_122\n      swap2\n      swap1\n      tag_119\n      jump\t// in\n    tag_122:\n      0x05\n      dup3\n      add\n      0x00\n      swap1\n      sstore\n      0x06\n      dup3\n      add\n      0x00\n      tag_123\n      swap2\n      swap1\n      tag_119\n      jump\t// in\n    tag_123:\n      0x07\n      dup3\n      add\n      0x00\n      dup1\n      dup3\n      add\n      0x00\n      tag_124\n      swap2\n      swap1\n      tag_119\n      jump\t// in\n    tag_124:\n      0x01\n      dup3\n      add\n      0x00\n      tag_125\n      swap2\n      swap1\n      tag_119\n      jump\t// in\n    tag_125:\n      0x02\n      dup3\n      add\n      0x00\n      tag_126\n      swap2\n      swap1\n      tag_119\n      jump\t// in\n    tag_126:\n      0x03\n      dup3\n      add\n      0x00\n      tag_127\n      swap2\n      swap1\n      tag_119\n      jump\t// in\n    tag_127:\n      0x04\n      dup3\n      add\n      0x00\n      tag_128\n      swap2\n      swap1\n      tag_119\n      jump\t// in\n    tag_128:\n      pop\n      pop\n      0x0c\n      dup3\n      add\n      0x00\n      dup1\n      dup3\n      add\n      0x00\n      tag_129\n      swap2\n      swap1\n      tag_130\n      jump\t// in\n    tag_129:\n      0x01\n      dup3\n      add\n      0x00\n      tag_131\n      swap2\n      swap1\n      tag_130\n      jump\t// in\n    tag_131:\n      0x02\n      dup3\n      add\n      0x00\n      tag_132\n      swap2\n      swap1\n      tag_130\n      jump\t// in\n    tag_132:\n      pop\n      pop\n      pop\n      pop\n        /* \"contracts/Profile.sol\":1863:1937  function delProfile() public {\r... */\n      jump\t// out\n    tag_30:\n      dup3\n      dup1\n      sload\n      tag_133\n      swap1\n      tag_38\n      jump\t// in\n    tag_133:\n      swap1\n      0x00\n      mstore\n      keccak256(0x00, 0x20)\n      swap1\n      0x1f\n      add\n      0x20\n      swap1\n      div\n      dup2\n      add\n      swap3\n      dup3\n      tag_135\n      jumpi\n      0x00\n      dup6\n      sstore\n      jump(tag_134)\n    tag_135:\n      dup3\n      0x1f\n      lt\n      tag_136\n      jumpi\n      dup1\n      mload\n      not(0xff)\n      and\n      dup4\n      dup1\n      add\n      or\n      dup6\n      sstore\n      jump(tag_134)\n    tag_136:\n      dup3\n      dup1\n      add\n      0x01\n      add\n      dup6\n      sstore\n      dup3\n      iszero\n      tag_134\n      jumpi\n      swap2\n      dup3\n      add\n    tag_137:\n      dup3\n      dup2\n      gt\n      iszero\n      tag_138\n      jumpi\n      dup3\n      mload\n      dup3\n      sstore\n      swap2\n      0x20\n      add\n      swap2\n      swap1\n      0x01\n      add\n      swap1\n      jump(tag_137)\n    tag_138:\n    tag_134:\n      pop\n      swap1\n      pop\n      tag_139\n      swap2\n      swap1\n      tag_140\n      jump\t// in\n    tag_139:\n      pop\n      swap1\n      jump\t// out\n    tag_114:\n      dup3\n      dup1\n      sload\n      dup3\n      dup3\n      sstore\n      swap1\n      0x00\n      mstore\n      keccak256(0x00, 0x20)\n      swap1\n      dup2\n      add\n      swap3\n      dup3\n      iszero\n      tag_141\n      jumpi\n      swap2\n      0x20\n      mul\n      dup3\n      add\n    tag_142:\n      dup3\n      dup2\n      gt\n      iszero\n      tag_143\n      jumpi\n      dup3\n      mload\n      dup3\n      swap1\n      dup1\n      mload\n      swap1\n      0x20\n      add\n      swap1\n      tag_144\n      swap3\n      swap2\n      swap1\n      tag_30\n      jump\t// in\n    tag_144:\n      pop\n      swap2\n      0x20\n      add\n      swap2\n      swap1\n      0x01\n      add\n      swap1\n      jump(tag_142)\n    tag_143:\n    tag_141:\n      pop\n      swap1\n      pop\n      tag_145\n      swap2\n      swap1\n      tag_146\n      jump\t// in\n    tag_145:\n      pop\n      swap1\n      jump\t// out\n    tag_119:\n      pop\n      dup1\n      sload\n      tag_147\n      swap1\n      tag_38\n      jump\t// in\n    tag_147:\n      0x00\n      dup3\n      sstore\n      dup1\n      0x1f\n      lt\n      tag_149\n      jumpi\n      pop\n      jump(tag_148)\n    tag_149:\n      0x1f\n      add\n      0x20\n      swap1\n      div\n      swap1\n      0x00\n      mstore\n      keccak256(0x00, 0x20)\n      swap1\n      dup2\n      add\n      swap1\n      tag_150\n      swap2\n      swap1\n      tag_140\n      jump\t// in\n    tag_150:\n    tag_148:\n      pop\n      jump\t// out\n    tag_130:\n      pop\n      dup1\n      sload\n      0x00\n      dup3\n      sstore\n      swap1\n      0x00\n      mstore\n      keccak256(0x00, 0x20)\n      swap1\n      dup2\n      add\n      swap1\n      tag_152\n      swap2\n      swap1\n      tag_146\n      jump\t// in\n    tag_152:\n      pop\n      jump\t// out\n    tag_140:\n    tag_153:\n      dup1\n      dup3\n      gt\n      iszero\n      tag_154\n      jumpi\n      0x00\n      dup2\n      0x00\n      swap1\n      sstore\n      pop\n      0x01\n      add\n      jump(tag_153)\n    tag_154:\n      pop\n      swap1\n      jump\t// out\n    tag_146:\n    tag_155:\n      dup1\n      dup3\n      gt\n      iszero\n      tag_156\n      jumpi\n      0x00\n      dup2\n      dup2\n      tag_157\n      swap2\n      swap1\n      tag_119\n      jump\t// in\n    tag_157:\n      pop\n      0x01\n      add\n      jump(tag_155)\n    tag_156:\n      pop\n      swap1\n      jump\t// out\n        /* \"#utility.yul\":23:980   */\n    tag_159:\n        /* \"#utility.yul\":129:134   */\n      0x00\n        /* \"#utility.yul\":154:245   */\n      tag_161\n        /* \"#utility.yul\":170:244   */\n      tag_162\n        /* \"#utility.yul\":237:243   */\n      dup5\n        /* \"#utility.yul\":170:244   */\n      tag_163\n      jump\t// in\n    tag_162:\n        /* \"#utility.yul\":154:245   */\n      tag_164\n      jump\t// in\n    tag_161:\n        /* \"#utility.yul\":145:245   */\n      swap1\n      pop\n        /* \"#utility.yul\":265:270   */\n      dup1\n        /* \"#utility.yul\":294:300   */\n      dup4\n        /* \"#utility.yul\":287:292   */\n      dup3\n        /* \"#utility.yul\":280:301   */\n      mstore\n        /* \"#utility.yul\":328:332   */\n      0x20\n        /* \"#utility.yul\":321:326   */\n      dup3\n        /* \"#utility.yul\":317:333   */\n      add\n        /* \"#utility.yul\":310:333   */\n      swap1\n      pop\n        /* \"#utility.yul\":354:360   */\n      dup3\n        /* \"#utility.yul\":404:407   */\n      dup6\n        /* \"#utility.yul\":396:400   */\n      0x20\n        /* \"#utility.yul\":388:394   */\n      dup7\n        /* \"#utility.yul\":384:401   */\n      mul\n        /* \"#utility.yul\":379:382   */\n      dup3\n        /* \"#utility.yul\":375:402   */\n      add\n        /* \"#utility.yul\":372:408   */\n      gt\n        /* \"#utility.yul\":369:512   */\n      iszero\n      tag_165\n      jumpi\n        /* \"#utility.yul\":423:502   */\n      tag_166\n      tag_167\n      jump\t// in\n    tag_166:\n        /* \"#utility.yul\":369:512   */\n    tag_165:\n        /* \"#utility.yul\":536:537   */\n      0x00\n        /* \"#utility.yul\":521:974   */\n    tag_168:\n        /* \"#utility.yul\":546:552   */\n      dup6\n        /* \"#utility.yul\":543:544   */\n      dup2\n        /* \"#utility.yul\":540:553   */\n      lt\n        /* \"#utility.yul\":521:974   */\n      iszero\n      tag_170\n      jumpi\n        /* \"#utility.yul\":628:631   */\n      dup2\n        /* \"#utility.yul\":615:632   */\n      calldataload\n        /* \"#utility.yul\":664:682   */\n      0xffffffffffffffff\n        /* \"#utility.yul\":651:662   */\n      dup2\n        /* \"#utility.yul\":648:683   */\n      gt\n        /* \"#utility.yul\":645:767   */\n      iszero\n      tag_171\n      jumpi\n        /* \"#utility.yul\":686:765   */\n      tag_172\n      tag_173\n      jump\t// in\n    tag_172:\n        /* \"#utility.yul\":645:767   */\n    tag_171:\n        /* \"#utility.yul\":810:821   */\n      dup1\n        /* \"#utility.yul\":802:808   */\n      dup7\n        /* \"#utility.yul\":798:822   */\n      add\n        /* \"#utility.yul\":848:895   */\n      tag_174\n        /* \"#utility.yul\":891:894   */\n      dup10\n        /* \"#utility.yul\":879:889   */\n      dup3\n        /* \"#utility.yul\":848:895   */\n      tag_175\n      jump\t// in\n    tag_174:\n        /* \"#utility.yul\":843:846   */\n      dup6\n        /* \"#utility.yul\":836:896   */\n      mstore\n        /* \"#utility.yul\":925:929   */\n      0x20\n        /* \"#utility.yul\":920:923   */\n      dup6\n        /* \"#utility.yul\":916:930   */\n      add\n        /* \"#utility.yul\":909:930   */\n      swap5\n      pop\n        /* \"#utility.yul\":959:963   */\n      0x20\n        /* \"#utility.yul\":954:957   */\n      dup5\n        /* \"#utility.yul\":950:964   */\n      add\n        /* \"#utility.yul\":943:964   */\n      swap4\n      pop\n        /* \"#utility.yul\":581:974   */\n      pop\n      pop\n        /* \"#utility.yul\":568:569   */\n      0x01\n        /* \"#utility.yul\":565:566   */\n      dup2\n        /* \"#utility.yul\":561:570   */\n      add\n        /* \"#utility.yul\":556:570   */\n      swap1\n      pop\n        /* \"#utility.yul\":521:974   */\n      jump(tag_168)\n    tag_170:\n        /* \"#utility.yul\":525:539   */\n      pop\n        /* \"#utility.yul\":135:980   */\n      pop\n      pop\n        /* \"#utility.yul\":23:980   */\n      swap4\n      swap3\n      pop\n      pop\n      pop\n      jump\t// out\n        /* \"#utility.yul\":986:1398   */\n    tag_176:\n        /* \"#utility.yul\":1064:1069   */\n      0x00\n        /* \"#utility.yul\":1089:1155   */\n      tag_178\n        /* \"#utility.yul\":1105:1154   */\n      tag_179\n        /* \"#utility.yul\":1147:1153   */\n      dup5\n        /* \"#utility.yul\":1105:1154   */\n      tag_180\n      jump\t// in\n    tag_179:\n        /* \"#utility.yul\":1089:1155   */\n      tag_164\n      jump\t// in\n    tag_178:\n        /* \"#utility.yul\":1080:1155   */\n      swap1\n      pop\n        /* \"#utility.yul\":1178:1184   */\n      dup3\n        /* \"#utility.yul\":1171:1176   */\n      dup2\n        /* \"#utility.yul\":1164:1185   */\n      mstore\n        /* \"#utility.yul\":1216:1220   */\n      0x20\n        /* \"#utility.yul\":1209:1214   */\n      dup2\n        /* \"#utility.yul\":1205:1221   */\n      add\n        /* \"#utility.yul\":1254:1257   */\n      dup5\n        /* \"#utility.yul\":1245:1251   */\n      dup5\n        /* \"#utility.yul\":1240:1243   */\n      dup5\n        /* \"#utility.yul\":1236:1252   */\n      add\n        /* \"#utility.yul\":1233:1258   */\n      gt\n        /* \"#utility.yul\":1230:1342   */\n      iszero\n      tag_181\n      jumpi\n        /* \"#utility.yul\":1261:1340   */\n      tag_182\n      tag_183\n      jump\t// in\n    tag_182:\n        /* \"#utility.yul\":1230:1342   */\n    tag_181:\n        /* \"#utility.yul\":1351:1392   */\n      tag_184\n        /* \"#utility.yul\":1385:1391   */\n      dup5\n        /* \"#utility.yul\":1380:1383   */\n      dup3\n        /* \"#utility.yul\":1375:1378   */\n      dup6\n        /* \"#utility.yul\":1351:1392   */\n      tag_185\n      jump\t// in\n    tag_184:\n        /* \"#utility.yul\":1070:1398   */\n      pop\n        /* \"#utility.yul\":986:1398   */\n      swap4\n      swap3\n      pop\n      pop\n      pop\n      jump\t// out\n        /* \"#utility.yul\":1404:1543   */\n    tag_186:\n        /* \"#utility.yul\":1450:1455   */\n      0x00\n        /* \"#utility.yul\":1488:1494   */\n      dup2\n        /* \"#utility.yul\":1475:1495   */\n      calldataload\n        /* \"#utility.yul\":1466:1495   */\n      swap1\n      pop\n        /* \"#utility.yul\":1504:1537   */\n      tag_188\n        /* \"#utility.yul\":1531:1536   */\n      dup2\n        /* \"#utility.yul\":1504:1537   */\n      tag_189\n      jump\t// in\n    tag_188:\n        /* \"#utility.yul\":1404:1543   */\n      swap3\n      swap2\n      pop\n      pop\n      jump\t// out\n        /* \"#utility.yul\":1565:1955   */\n    tag_190:\n        /* \"#utility.yul\":1646:1651   */\n      0x00\n        /* \"#utility.yul\":1695:1698   */\n      dup3\n        /* \"#utility.yul\":1688:1692   */\n      0x1f\n        /* \"#utility.yul\":1680:1686   */\n      dup4\n        /* \"#utility.yul\":1676:1693   */\n      add\n        /* \"#utility.yul\":1672:1699   */\n      slt\n        /* \"#utility.yul\":1662:1784   */\n      tag_192\n      jumpi\n        /* \"#utility.yul\":1703:1782   */\n      tag_193\n      tag_173\n      jump\t// in\n    tag_193:\n        /* \"#utility.yul\":1662:1784   */\n    tag_192:\n        /* \"#utility.yul\":1820:1826   */\n      dup2\n        /* \"#utility.yul\":1807:1827   */\n      calldataload\n        /* \"#utility.yul\":1845:1949   */\n      tag_194\n        /* \"#utility.yul\":1945:1948   */\n      dup5\n        /* \"#utility.yul\":1937:1943   */\n      dup3\n        /* \"#utility.yul\":1930:1934   */\n      0x20\n        /* \"#utility.yul\":1922:1928   */\n      dup7\n        /* \"#utility.yul\":1918:1935   */\n      add\n        /* \"#utility.yul\":1845:1949   */\n      tag_159\n      jump\t// in\n    tag_194:\n        /* \"#utility.yul\":1836:1949   */\n      swap2\n      pop\n        /* \"#utility.yul\":1652:1955   */\n      pop\n        /* \"#utility.yul\":1565:1955   */\n      swap3\n      swap2\n      pop\n      pop\n      jump\t// out\n        /* \"#utility.yul\":1975:2315   */\n    tag_175:\n        /* \"#utility.yul\":2031:2036   */\n      0x00\n        /* \"#utility.yul\":2080:2083   */\n      dup3\n        /* \"#utility.yul\":2073:2077   */\n      0x1f\n        /* \"#utility.yul\":2065:2071   */\n      dup4\n        /* \"#utility.yul\":2061:2078   */\n      add\n        /* \"#utility.yul\":2057:2084   */\n      slt\n        /* \"#utility.yul\":2047:2169   */\n      tag_196\n      jumpi\n        /* \"#utility.yul\":2088:2167   */\n      tag_197\n      tag_173\n      jump\t// in\n    tag_197:\n        /* \"#utility.yul\":2047:2169   */\n    tag_196:\n        /* \"#utility.yul\":2205:2211   */\n      dup2\n        /* \"#utility.yul\":2192:2212   */\n      calldataload\n        /* \"#utility.yul\":2230:2309   */\n      tag_198\n        /* \"#utility.yul\":2305:2308   */\n      dup5\n        /* \"#utility.yul\":2297:2303   */\n      dup3\n        /* \"#utility.yul\":2290:2294   */\n      0x20\n        /* \"#utility.yul\":2282:2288   */\n      dup7\n        /* \"#utility.yul\":2278:2295   */\n      add\n        /* \"#utility.yul\":2230:2309   */\n      tag_176\n      jump\t// in\n    tag_198:\n        /* \"#utility.yul\":2221:2309   */\n      swap2\n      pop\n        /* \"#utility.yul\":2037:2315   */\n      pop\n        /* \"#utility.yul\":1975:2315   */\n      swap3\n      swap2\n      pop\n      pop\n      jump\t// out\n        /* \"#utility.yul\":2321:2650   */\n    tag_18:\n        /* \"#utility.yul\":2380:2386   */\n      0x00\n        /* \"#utility.yul\":2429:2431   */\n      0x20\n        /* \"#utility.yul\":2417:2426   */\n      dup3\n        /* \"#utility.yul\":2408:2415   */\n      dup5\n        /* \"#utility.yul\":2404:2427   */\n      sub\n        /* \"#utility.yul\":2400:2432   */\n      slt\n        /* \"#utility.yul\":2397:2516   */\n      iszero\n      tag_200\n      jumpi\n        /* \"#utility.yul\":2435:2514   */\n      tag_201\n      tag_202\n      jump\t// in\n    tag_201:\n        /* \"#utility.yul\":2397:2516   */\n    tag_200:\n        /* \"#utility.yul\":2555:2556   */\n      0x00\n        /* \"#utility.yul\":2580:2633   */\n      tag_203\n        /* \"#utility.yul\":2625:2632   */\n      dup5\n        /* \"#utility.yul\":2616:2622   */\n      dup3\n        /* \"#utility.yul\":2605:2614   */\n      dup6\n        /* \"#utility.yul\":2601:2623   */\n      add\n        /* \"#utility.yul\":2580:2633   */\n      tag_186\n      jump\t// in\n    tag_203:\n        /* \"#utility.yul\":2570:2633   */\n      swap2\n      pop\n        /* \"#utility.yul\":2526:2643   */\n      pop\n        /* \"#utility.yul\":2321:2650   */\n      swap3\n      swap2\n      pop\n      pop\n      jump\t// out\n        /* \"#utility.yul\":2656:3965   */\n    tag_24:\n        /* \"#utility.yul\":2838:2844   */\n      0x00\n        /* \"#utility.yul\":2846:2852   */\n      dup1\n        /* \"#utility.yul\":2854:2860   */\n      0x00\n        /* \"#utility.yul\":2903:2905   */\n      0x60\n        /* \"#utility.yul\":2891:2900   */\n      dup5\n        /* \"#utility.yul\":2882:2889   */\n      dup7\n        /* \"#utility.yul\":2878:2901   */\n      sub\n        /* \"#utility.yul\":2874:2906   */\n      slt\n        /* \"#utility.yul\":2871:2990   */\n      iszero\n      tag_205\n      jumpi\n        /* \"#utility.yul\":2909:2988   */\n      tag_206\n      tag_202\n      jump\t// in\n    tag_206:\n        /* \"#utility.yul\":2871:2990   */\n    tag_205:\n        /* \"#utility.yul\":3057:3058   */\n      0x00\n        /* \"#utility.yul\":3046:3055   */\n      dup5\n        /* \"#utility.yul\":3042:3059   */\n      add\n        /* \"#utility.yul\":3029:3060   */\n      calldataload\n        /* \"#utility.yul\":3087:3105   */\n      0xffffffffffffffff\n        /* \"#utility.yul\":3079:3085   */\n      dup2\n        /* \"#utility.yul\":3076:3106   */\n      gt\n        /* \"#utility.yul\":3073:3190   */\n      iszero\n      tag_207\n      jumpi\n        /* \"#utility.yul\":3109:3188   */\n      tag_208\n      tag_209\n      jump\t// in\n    tag_208:\n        /* \"#utility.yul\":3073:3190   */\n    tag_207:\n        /* \"#utility.yul\":3214:3302   */\n      tag_210\n        /* \"#utility.yul\":3294:3301   */\n      dup7\n        /* \"#utility.yul\":3285:3291   */\n      dup3\n        /* \"#utility.yul\":3274:3283   */\n      dup8\n        /* \"#utility.yul\":3270:3292   */\n      add\n        /* \"#utility.yul\":3214:3302   */\n      tag_190\n      jump\t// in\n    tag_210:\n        /* \"#utility.yul\":3204:3302   */\n      swap4\n      pop\n        /* \"#utility.yul\":3000:3312   */\n      pop\n        /* \"#utility.yul\":3379:3381   */\n      0x20\n        /* \"#utility.yul\":3368:3377   */\n      dup5\n        /* \"#utility.yul\":3364:3382   */\n      add\n        /* \"#utility.yul\":3351:3383   */\n      calldataload\n        /* \"#utility.yul\":3410:3428   */\n      0xffffffffffffffff\n        /* \"#utility.yul\":3402:3408   */\n      dup2\n        /* \"#utility.yul\":3399:3429   */\n      gt\n        /* \"#utility.yul\":3396:3513   */\n      iszero\n      tag_211\n      jumpi\n        /* \"#utility.yul\":3432:3511   */\n      tag_212\n      tag_209\n      jump\t// in\n    tag_212:\n        /* \"#utility.yul\":3396:3513   */\n    tag_211:\n        /* \"#utility.yul\":3537:3625   */\n      tag_213\n        /* \"#utility.yul\":3617:3624   */\n      dup7\n        /* \"#utility.yul\":3608:3614   */\n      dup3\n        /* \"#utility.yul\":3597:3606   */\n      dup8\n        /* \"#utility.yul\":3593:3615   */\n      add\n        /* \"#utility.yul\":3537:3625   */\n      tag_190\n      jump\t// in\n    tag_213:\n        /* \"#utility.yul\":3527:3625   */\n      swap3\n      pop\n        /* \"#utility.yul\":3322:3635   */\n      pop\n        /* \"#utility.yul\":3702:3704   */\n      0x40\n        /* \"#utility.yul\":3691:3700   */\n      dup5\n        /* \"#utility.yul\":3687:3705   */\n      add\n        /* \"#utility.yul\":3674:3706   */\n      calldataload\n        /* \"#utility.yul\":3733:3751   */\n      0xffffffffffffffff\n        /* \"#utility.yul\":3725:3731   */\n      dup2\n        /* \"#utility.yul\":3722:3752   */\n      gt\n        /* \"#utility.yul\":3719:3836   */\n      iszero\n      tag_214\n      jumpi\n        /* \"#utility.yul\":3755:3834   */\n      tag_215\n      tag_209\n      jump\t// in\n    tag_215:\n        /* \"#utility.yul\":3719:3836   */\n    tag_214:\n        /* \"#utility.yul\":3860:3948   */\n      tag_216\n        /* \"#utility.yul\":3940:3947   */\n      dup7\n        /* \"#utility.yul\":3931:3937   */\n      dup3\n        /* \"#utility.yul\":3920:3929   */\n      dup8\n        /* \"#utility.yul\":3916:3938   */\n      add\n        /* \"#utility.yul\":3860:3948   */\n      tag_190\n      jump\t// in\n    tag_216:\n        /* \"#utility.yul\":3850:3948   */\n      swap2\n      pop\n        /* \"#utility.yul\":3645:3958   */\n      pop\n        /* \"#utility.yul\":2656:3965   */\n      swap3\n      pop\n      swap3\n      pop\n      swap3\n      jump\t// out\n        /* \"#utility.yul\":3971:5456   */\n    tag_10:\n        /* \"#utility.yul\":4097:4103   */\n      0x00\n        /* \"#utility.yul\":4105:4111   */\n      dup1\n        /* \"#utility.yul\":4113:4119   */\n      0x00\n        /* \"#utility.yul\":4121:4127   */\n      dup1\n        /* \"#utility.yul\":4170:4173   */\n      0x80\n        /* \"#utility.yul\":4158:4167   */\n      dup6\n        /* \"#utility.yul\":4149:4156   */\n      dup8\n        /* \"#utility.yul\":4145:4168   */\n      sub\n        /* \"#utility.yul\":4141:4174   */\n      slt\n        /* \"#utility.yul\":4138:4258   */\n      iszero\n      tag_218\n      jumpi\n        /* \"#utility.yul\":4177:4256   */\n      tag_219\n      tag_202\n      jump\t// in\n    tag_219:\n        /* \"#utility.yul\":4138:4258   */\n    tag_218:\n        /* \"#utility.yul\":4325:4326   */\n      0x00\n        /* \"#utility.yul\":4314:4323   */\n      dup6\n        /* \"#utility.yul\":4310:4327   */\n      add\n        /* \"#utility.yul\":4297:4328   */\n      calldataload\n        /* \"#utility.yul\":4355:4373   */\n      0xffffffffffffffff\n        /* \"#utility.yul\":4347:4353   */\n      dup2\n        /* \"#utility.yul\":4344:4374   */\n      gt\n        /* \"#utility.yul\":4341:4458   */\n      iszero\n      tag_220\n      jumpi\n        /* \"#utility.yul\":4377:4456   */\n      tag_221\n      tag_209\n      jump\t// in\n    tag_221:\n        /* \"#utility.yul\":4341:4458   */\n    tag_220:\n        /* \"#utility.yul\":4482:4545   */\n      tag_222\n        /* \"#utility.yul\":4537:4544   */\n      dup8\n        /* \"#utility.yul\":4528:4534   */\n      dup3\n        /* \"#utility.yul\":4517:4526   */\n      dup9\n        /* \"#utility.yul\":4513:4535   */\n      add\n        /* \"#utility.yul\":4482:4545   */\n      tag_175\n      jump\t// in\n    tag_222:\n        /* \"#utility.yul\":4472:4545   */\n      swap5\n      pop\n        /* \"#utility.yul\":4268:4555   */\n      pop\n        /* \"#utility.yul\":4622:4624   */\n      0x20\n        /* \"#utility.yul\":4611:4620   */\n      dup6\n        /* \"#utility.yul\":4607:4625   */\n      add\n        /* \"#utility.yul\":4594:4626   */\n      calldataload\n        /* \"#utility.yul\":4653:4671   */\n      0xffffffffffffffff\n        /* \"#utility.yul\":4645:4651   */\n      dup2\n        /* \"#utility.yul\":4642:4672   */\n      gt\n        /* \"#utility.yul\":4639:4756   */\n      iszero\n      tag_223\n      jumpi\n        /* \"#utility.yul\":4675:4754   */\n      tag_224\n      tag_209\n      jump\t// in\n    tag_224:\n        /* \"#utility.yul\":4639:4756   */\n    tag_223:\n        /* \"#utility.yul\":4780:4843   */\n      tag_225\n        /* \"#utility.yul\":4835:4842   */\n      dup8\n        /* \"#utility.yul\":4826:4832   */\n      dup3\n        /* \"#utility.yul\":4815:4824   */\n      dup9\n        /* \"#utility.yul\":4811:4833   */\n      add\n        /* \"#utility.yul\":4780:4843   */\n      tag_175\n      jump\t// in\n    tag_225:\n        /* \"#utility.yul\":4770:4843   */\n      swap4\n      pop\n        /* \"#utility.yul\":4565:4853   */\n      pop\n        /* \"#utility.yul\":4920:4922   */\n      0x40\n        /* \"#utility.yul\":4909:4918   */\n      dup6\n        /* \"#utility.yul\":4905:4923   */\n      add\n        /* \"#utility.yul\":4892:4924   */\n      calldataload\n        /* \"#utility.yul\":4951:4969   */\n      0xffffffffffffffff\n        /* \"#utility.yul\":4943:4949   */\n      dup2\n        /* \"#utility.yul\":4940:4970   */\n      gt\n        /* \"#utility.yul\":4937:5054   */\n      iszero\n      tag_226\n      jumpi\n        /* \"#utility.yul\":4973:5052   */\n      tag_227\n      tag_209\n      jump\t// in\n    tag_227:\n        /* \"#utility.yul\":4937:5054   */\n    tag_226:\n        /* \"#utility.yul\":5078:5141   */\n      tag_228\n        /* \"#utility.yul\":5133:5140   */\n      dup8\n        /* \"#utility.yul\":5124:5130   */\n      dup3\n        /* \"#utility.yul\":5113:5122   */\n      dup9\n        /* \"#utility.yul\":5109:5131   */\n      add\n        /* \"#utility.yul\":5078:5141   */\n      tag_175\n      jump\t// in\n    tag_228:\n        /* \"#utility.yul\":5068:5141   */\n      swap3\n      pop\n        /* \"#utility.yul\":4863:5151   */\n      pop\n        /* \"#utility.yul\":5218:5220   */\n      0x60\n        /* \"#utility.yul\":5207:5216   */\n      dup6\n        /* \"#utility.yul\":5203:5221   */\n      add\n        /* \"#utility.yul\":5190:5222   */\n      calldataload\n        /* \"#utility.yul\":5249:5267   */\n      0xffffffffffffffff\n        /* \"#utility.yul\":5241:5247   */\n      dup2\n        /* \"#utility.yul\":5238:5268   */\n      gt\n        /* \"#utility.yul\":5235:5352   */\n      iszero\n      tag_229\n      jumpi\n        /* \"#utility.yul\":5271:5350   */\n      tag_230\n      tag_209\n      jump\t// in\n    tag_230:\n        /* \"#utility.yul\":5235:5352   */\n    tag_229:\n        /* \"#utility.yul\":5376:5439   */\n      tag_231\n        /* \"#utility.yul\":5431:5438   */\n      dup8\n        /* \"#utility.yul\":5422:5428   */\n      dup3\n        /* \"#utility.yul\":5411:5420   */\n      dup9\n        /* \"#utility.yul\":5407:5429   */\n      add\n        /* \"#utility.yul\":5376:5439   */\n      tag_175\n      jump\t// in\n    tag_231:\n        /* \"#utility.yul\":5366:5439   */\n      swap2\n      pop\n        /* \"#utility.yul\":5161:5449   */\n      pop\n        /* \"#utility.yul\":3971:5456   */\n      swap3\n      swap6\n      swap2\n      swap5\n      pop\n      swap3\n      pop\n      jump\t// out\n        /* \"#utility.yul\":5462:7273   */\n    tag_14:\n        /* \"#utility.yul\":5607:5613   */\n      0x00\n        /* \"#utility.yul\":5615:5621   */\n      dup1\n        /* \"#utility.yul\":5623:5629   */\n      0x00\n        /* \"#utility.yul\":5631:5637   */\n      dup1\n        /* \"#utility.yul\":5639:5645   */\n      0x00\n        /* \"#utility.yul\":5688:5691   */\n      0xa0\n        /* \"#utility.yul\":5676:5685   */\n      dup7\n        /* \"#utility.yul\":5667:5674   */\n      dup9\n        /* \"#utility.yul\":5663:5686   */\n      sub\n        /* \"#utility.yul\":5659:5692   */\n      slt\n        /* \"#utility.yul\":5656:5776   */\n      iszero\n      tag_233\n      jumpi\n        /* \"#utility.yul\":5695:5774   */\n      tag_234\n      tag_202\n      jump\t// in\n    tag_234:\n        /* \"#utility.yul\":5656:5776   */\n    tag_233:\n        /* \"#utility.yul\":5843:5844   */\n      0x00\n        /* \"#utility.yul\":5832:5841   */\n      dup7\n        /* \"#utility.yul\":5828:5845   */\n      add\n        /* \"#utility.yul\":5815:5846   */\n      calldataload\n        /* \"#utility.yul\":5873:5891   */\n      0xffffffffffffffff\n        /* \"#utility.yul\":5865:5871   */\n      dup2\n        /* \"#utility.yul\":5862:5892   */\n      gt\n        /* \"#utility.yul\":5859:5976   */\n      iszero\n      tag_235\n      jumpi\n        /* \"#utility.yul\":5895:5974   */\n      tag_236\n      tag_209\n      jump\t// in\n    tag_236:\n        /* \"#utility.yul\":5859:5976   */\n    tag_235:\n        /* \"#utility.yul\":6000:6063   */\n      tag_237\n        /* \"#utility.yul\":6055:6062   */\n      dup9\n        /* \"#utility.yul\":6046:6052   */\n      dup3\n        /* \"#utility.yul\":6035:6044   */\n      dup10\n        /* \"#utility.yul\":6031:6053   */\n      add\n        /* \"#utility.yul\":6000:6063   */\n      tag_175\n      jump\t// in\n    tag_237:\n        /* \"#utility.yul\":5990:6063   */\n      swap6\n      pop\n        /* \"#utility.yul\":5786:6073   */\n      pop\n        /* \"#utility.yul\":6140:6142   */\n      0x20\n        /* \"#utility.yul\":6129:6138   */\n      dup7\n        /* \"#utility.yul\":6125:6143   */\n      add\n        /* \"#utility.yul\":6112:6144   */\n      calldataload\n        /* \"#utility.yul\":6171:6189   */\n      0xffffffffffffffff\n        /* \"#utility.yul\":6163:6169   */\n      dup2\n        /* \"#utility.yul\":6160:6190   */\n      gt\n        /* \"#utility.yul\":6157:6274   */\n      iszero\n      tag_238\n      jumpi\n        /* \"#utility.yul\":6193:6272   */\n      tag_239\n      tag_209\n      jump\t// in\n    tag_239:\n        /* \"#utility.yul\":6157:6274   */\n    tag_238:\n        /* \"#utility.yul\":6298:6361   */\n      tag_240\n        /* \"#utility.yul\":6353:6360   */\n      dup9\n        /* \"#utility.yul\":6344:6350   */\n      dup3\n        /* \"#utility.yul\":6333:6342   */\n      dup10\n        /* \"#utility.yul\":6329:6351   */\n      add\n        /* \"#utility.yul\":6298:6361   */\n      tag_175\n      jump\t// in\n    tag_240:\n        /* \"#utility.yul\":6288:6361   */\n      swap5\n      pop\n        /* \"#utility.yul\":6083:6371   */\n      pop\n        /* \"#utility.yul\":6438:6440   */\n      0x40\n        /* \"#utility.yul\":6427:6436   */\n      dup7\n        /* \"#utility.yul\":6423:6441   */\n      add\n        /* \"#utility.yul\":6410:6442   */\n      calldataload\n        /* \"#utility.yul\":6469:6487   */\n      0xffffffffffffffff\n        /* \"#utility.yul\":6461:6467   */\n      dup2\n        /* \"#utility.yul\":6458:6488   */\n      gt\n        /* \"#utility.yul\":6455:6572   */\n      iszero\n      tag_241\n      jumpi\n        /* \"#utility.yul\":6491:6570   */\n      tag_242\n      tag_209\n      jump\t// in\n    tag_242:\n        /* \"#utility.yul\":6455:6572   */\n    tag_241:\n        /* \"#utility.yul\":6596:6659   */\n      tag_243\n        /* \"#utility.yul\":6651:6658   */\n      dup9\n        /* \"#utility.yul\":6642:6648   */\n      dup3\n        /* \"#utility.yul\":6631:6640   */\n      dup10\n        /* \"#utility.yul\":6627:6649   */\n      add\n        /* \"#utility.yul\":6596:6659   */\n      tag_175\n      jump\t// in\n    tag_243:\n        /* \"#utility.yul\":6586:6659   */\n      swap4\n      pop\n        /* \"#utility.yul\":6381:6669   */\n      pop\n        /* \"#utility.yul\":6736:6738   */\n      0x60\n        /* \"#utility.yul\":6725:6734   */\n      dup7\n        /* \"#utility.yul\":6721:6739   */\n      add\n        /* \"#utility.yul\":6708:6740   */\n      calldataload\n        /* \"#utility.yul\":6767:6785   */\n      0xffffffffffffffff\n        /* \"#utility.yul\":6759:6765   */\n      dup2\n        /* \"#utility.yul\":6756:6786   */\n      gt\n        /* \"#utility.yul\":6753:6870   */\n      iszero\n      tag_244\n      jumpi\n        /* \"#utility.yul\":6789:6868   */\n      tag_245\n      tag_209\n      jump\t// in\n    tag_245:\n        /* \"#utility.yul\":6753:6870   */\n    tag_244:\n        /* \"#utility.yul\":6894:6957   */\n      tag_246\n        /* \"#utility.yul\":6949:6956   */\n      dup9\n        /* \"#utility.yul\":6940:6946   */\n      dup3\n        /* \"#utility.yul\":6929:6938   */\n      dup10\n        /* \"#utility.yul\":6925:6947   */\n      add\n        /* \"#utility.yul\":6894:6957   */\n      tag_175\n      jump\t// in\n    tag_246:\n        /* \"#utility.yul\":6884:6957   */\n      swap3\n      pop\n        /* \"#utility.yul\":6679:6967   */\n      pop\n        /* \"#utility.yul\":7034:7037   */\n      0x80\n        /* \"#utility.yul\":7023:7032   */\n      dup7\n        /* \"#utility.yul\":7019:7038   */\n      add\n        /* \"#utility.yul\":7006:7039   */\n      calldataload\n        /* \"#utility.yul\":7066:7084   */\n      0xffffffffffffffff\n        /* \"#utility.yul\":7058:7064   */\n      dup2\n        /* \"#utility.yul\":7055:7085   */\n      gt\n        /* \"#utility.yul\":7052:7169   */\n      iszero\n      tag_247\n      jumpi\n        /* \"#utility.yul\":7088:7167   */\n      tag_248\n      tag_209\n      jump\t// in\n    tag_248:\n        /* \"#utility.yul\":7052:7169   */\n    tag_247:\n        /* \"#utility.yul\":7193:7256   */\n      tag_249\n        /* \"#utility.yul\":7248:7255   */\n      dup9\n        /* \"#utility.yul\":7239:7245   */\n      dup3\n        /* \"#utility.yul\":7228:7237   */\n      dup10\n        /* \"#utility.yul\":7224:7246   */\n      add\n        /* \"#utility.yul\":7193:7256   */\n      tag_175\n      jump\t// in\n    tag_249:\n        /* \"#utility.yul\":7183:7256   */\n      swap2\n      pop\n        /* \"#utility.yul\":6977:7266   */\n      pop\n        /* \"#utility.yul\":5462:7273   */\n      swap3\n      swap6\n      pop\n      swap3\n      swap6\n      swap1\n      swap4\n      pop\n      jump\t// out\n        /* \"#utility.yul\":7279:7475   */\n    tag_250:\n        /* \"#utility.yul\":7368:7378   */\n      0x00\n        /* \"#utility.yul\":7403:7469   */\n      tag_252\n        /* \"#utility.yul\":7465:7468   */\n      dup4\n        /* \"#utility.yul\":7457:7463   */\n      dup4\n        /* \"#utility.yul\":7403:7469   */\n      tag_253\n      jump\t// in\n    tag_252:\n        /* \"#utility.yul\":7389:7469   */\n      swap1\n      pop\n        /* \"#utility.yul\":7279:7475   */\n      swap3\n      swap2\n      pop\n      pop\n      jump\t// out\n        /* \"#utility.yul\":7481:7599   */\n    tag_254:\n        /* \"#utility.yul\":7568:7592   */\n      tag_256\n        /* \"#utility.yul\":7586:7591   */\n      dup2\n        /* \"#utility.yul\":7568:7592   */\n      tag_257\n      jump\t// in\n    tag_256:\n        /* \"#utility.yul\":7563:7566   */\n      dup3\n        /* \"#utility.yul\":7556:7593   */\n      mstore\n        /* \"#utility.yul\":7481:7599   */\n      pop\n      pop\n      jump\t// out\n        /* \"#utility.yul\":7633:8604   */\n    tag_258:\n        /* \"#utility.yul\":7762:7765   */\n      0x00\n        /* \"#utility.yul\":7791:7855   */\n      tag_260\n        /* \"#utility.yul\":7849:7854   */\n      dup3\n        /* \"#utility.yul\":7791:7855   */\n      tag_261\n      jump\t// in\n    tag_260:\n        /* \"#utility.yul\":7871:7957   */\n      tag_262\n        /* \"#utility.yul\":7950:7956   */\n      dup2\n        /* \"#utility.yul\":7945:7948   */\n      dup6\n        /* \"#utility.yul\":7871:7957   */\n      tag_263\n      jump\t// in\n    tag_262:\n        /* \"#utility.yul\":7864:7957   */\n      swap4\n      pop\n        /* \"#utility.yul\":7983:7986   */\n      dup4\n        /* \"#utility.yul\":8028:8032   */\n      0x20\n        /* \"#utility.yul\":8020:8026   */\n      dup3\n        /* \"#utility.yul\":8016:8033   */\n      mul\n        /* \"#utility.yul\":8011:8014   */\n      dup6\n        /* \"#utility.yul\":8007:8034   */\n      add\n        /* \"#utility.yul\":8058:8124   */\n      tag_264\n        /* \"#utility.yul\":8118:8123   */\n      dup6\n        /* \"#utility.yul\":8058:8124   */\n      tag_265\n      jump\t// in\n    tag_264:\n        /* \"#utility.yul\":8147:8154   */\n      dup1\n        /* \"#utility.yul\":8178:8179   */\n      0x00\n        /* \"#utility.yul\":8163:8559   */\n    tag_266:\n        /* \"#utility.yul\":8188:8194   */\n      dup6\n        /* \"#utility.yul\":8185:8186   */\n      dup2\n        /* \"#utility.yul\":8182:8195   */\n      lt\n        /* \"#utility.yul\":8163:8559   */\n      iszero\n      tag_268\n      jumpi\n        /* \"#utility.yul\":8259:8268   */\n      dup5\n        /* \"#utility.yul\":8253:8257   */\n      dup5\n        /* \"#utility.yul\":8249:8269   */\n      sub\n        /* \"#utility.yul\":8244:8247   */\n      dup10\n        /* \"#utility.yul\":8237:8270   */\n      mstore\n        /* \"#utility.yul\":8310:8316   */\n      dup2\n        /* \"#utility.yul\":8304:8317   */\n      mload\n        /* \"#utility.yul\":8338:8422   */\n      tag_269\n        /* \"#utility.yul\":8417:8421   */\n      dup6\n        /* \"#utility.yul\":8402:8415   */\n      dup3\n        /* \"#utility.yul\":8338:8422   */\n      tag_250\n      jump\t// in\n    tag_269:\n        /* \"#utility.yul\":8330:8422   */\n      swap5\n      pop\n        /* \"#utility.yul\":8445:8515   */\n      tag_270\n        /* \"#utility.yul\":8508:8514   */\n      dup4\n        /* \"#utility.yul\":8445:8515   */\n      tag_271\n      jump\t// in\n    tag_270:\n        /* \"#utility.yul\":8435:8515   */\n      swap3\n      pop\n        /* \"#utility.yul\":8544:8548   */\n      0x20\n        /* \"#utility.yul\":8539:8542   */\n      dup11\n        /* \"#utility.yul\":8535:8549   */\n      add\n        /* \"#utility.yul\":8528:8549   */\n      swap10\n      pop\n        /* \"#utility.yul\":8223:8559   */\n      pop\n        /* \"#utility.yul\":8210:8211   */\n      0x01\n        /* \"#utility.yul\":8207:8208   */\n      dup2\n        /* \"#utility.yul\":8203:8212   */\n      add\n        /* \"#utility.yul\":8198:8212   */\n      swap1\n      pop\n        /* \"#utility.yul\":8163:8559   */\n      jump(tag_266)\n    tag_268:\n        /* \"#utility.yul\":8167:8181   */\n      pop\n        /* \"#utility.yul\":8575:8579   */\n      dup3\n        /* \"#utility.yul\":8568:8579   */\n      swap8\n      pop\n        /* \"#utility.yul\":8595:8598   */\n      dup8\n        /* \"#utility.yul\":8588:8598   */\n      swap6\n      pop\n        /* \"#utility.yul\":7767:8604   */\n      pop\n      pop\n      pop\n      pop\n      pop\n        /* \"#utility.yul\":7633:8604   */\n      swap3\n      swap2\n      pop\n      pop\n      jump\t// out\n        /* \"#utility.yul\":8610:8954   */\n    tag_253:\n        /* \"#utility.yul\":8688:8691   */\n      0x00\n        /* \"#utility.yul\":8716:8755   */\n      tag_273\n        /* \"#utility.yul\":8749:8754   */\n      dup3\n        /* \"#utility.yul\":8716:8755   */\n      tag_274\n      jump\t// in\n    tag_273:\n        /* \"#utility.yul\":8771:8832   */\n      tag_275\n        /* \"#utility.yul\":8825:8831   */\n      dup2\n        /* \"#utility.yul\":8820:8823   */\n      dup6\n        /* \"#utility.yul\":8771:8832   */\n      tag_276\n      jump\t// in\n    tag_275:\n        /* \"#utility.yul\":8764:8832   */\n      swap4\n      pop\n        /* \"#utility.yul\":8841:8893   */\n      tag_277\n        /* \"#utility.yul\":8886:8892   */\n      dup2\n        /* \"#utility.yul\":8881:8884   */\n      dup6\n        /* \"#utility.yul\":8874:8878   */\n      0x20\n        /* \"#utility.yul\":8867:8872   */\n      dup7\n        /* \"#utility.yul\":8863:8879   */\n      add\n        /* \"#utility.yul\":8841:8893   */\n      tag_278\n      jump\t// in\n    tag_277:\n        /* \"#utility.yul\":8918:8947   */\n      tag_279\n        /* \"#utility.yul\":8940:8946   */\n      dup2\n        /* \"#utility.yul\":8918:8947   */\n      tag_280\n      jump\t// in\n    tag_279:\n        /* \"#utility.yul\":8913:8916   */\n      dup5\n        /* \"#utility.yul\":8909:8948   */\n      add\n        /* \"#utility.yul\":8902:8948   */\n      swap2\n      pop\n        /* \"#utility.yul\":8692:8954   */\n      pop\n        /* \"#utility.yul\":8610:8954   */\n      swap3\n      swap2\n      pop\n      pop\n      jump\t// out\n        /* \"#utility.yul\":8960:9324   */\n    tag_281:\n        /* \"#utility.yul\":9048:9051   */\n      0x00\n        /* \"#utility.yul\":9076:9115   */\n      tag_283\n        /* \"#utility.yul\":9109:9114   */\n      dup3\n        /* \"#utility.yul\":9076:9115   */\n      tag_274\n      jump\t// in\n    tag_283:\n        /* \"#utility.yul\":9131:9202   */\n      tag_284\n        /* \"#utility.yul\":9195:9201   */\n      dup2\n        /* \"#utility.yul\":9190:9193   */\n      dup6\n        /* \"#utility.yul\":9131:9202   */\n      tag_285\n      jump\t// in\n    tag_284:\n        /* \"#utility.yul\":9124:9202   */\n      swap4\n      pop\n        /* \"#utility.yul\":9211:9263   */\n      tag_286\n        /* \"#utility.yul\":9256:9262   */\n      dup2\n        /* \"#utility.yul\":9251:9254   */\n      dup6\n        /* \"#utility.yul\":9244:9248   */\n      0x20\n        /* \"#utility.yul\":9237:9242   */\n      dup7\n        /* \"#utility.yul\":9233:9249   */\n      add\n        /* \"#utility.yul\":9211:9263   */\n      tag_278\n      jump\t// in\n    tag_286:\n        /* \"#utility.yul\":9288:9317   */\n      tag_287\n        /* \"#utility.yul\":9310:9316   */\n      dup2\n        /* \"#utility.yul\":9288:9317   */\n      tag_280\n      jump\t// in\n    tag_287:\n        /* \"#utility.yul\":9283:9286   */\n      dup5\n        /* \"#utility.yul\":9279:9318   */\n      add\n        /* \"#utility.yul\":9272:9318   */\n      swap2\n      pop\n        /* \"#utility.yul\":9052:9324   */\n      pop\n        /* \"#utility.yul\":8960:9324   */\n      swap3\n      swap2\n      pop\n      pop\n      jump\t// out\n        /* \"#utility.yul\":9388:10806   */\n    tag_288:\n        /* \"#utility.yul\":9505:9508   */\n      0x00\n        /* \"#utility.yul\":9541:9545   */\n      0xa0\n        /* \"#utility.yul\":9536:9539   */\n      dup4\n        /* \"#utility.yul\":9532:9546   */\n      add\n        /* \"#utility.yul\":9629:9633   */\n      0x00\n        /* \"#utility.yul\":9622:9627   */\n      dup4\n        /* \"#utility.yul\":9618:9634   */\n      add\n        /* \"#utility.yul\":9612:9635   */\n      mload\n        /* \"#utility.yul\":9682:9685   */\n      dup5\n        /* \"#utility.yul\":9676:9680   */\n      dup3\n        /* \"#utility.yul\":9672:9686   */\n      sub\n        /* \"#utility.yul\":9665:9669   */\n      0x00\n        /* \"#utility.yul\":9660:9663   */\n      dup7\n        /* \"#utility.yul\":9656:9670   */\n      add\n        /* \"#utility.yul\":9649:9687   */\n      mstore\n        /* \"#utility.yul\":9708:9781   */\n      tag_290\n        /* \"#utility.yul\":9776:9780   */\n      dup3\n        /* \"#utility.yul\":9762:9774   */\n      dup3\n        /* \"#utility.yul\":9708:9781   */\n      tag_253\n      jump\t// in\n    tag_290:\n        /* \"#utility.yul\":9700:9781   */\n      swap2\n      pop\n        /* \"#utility.yul\":9556:9792   */\n      pop\n        /* \"#utility.yul\":9875:9879   */\n      0x20\n        /* \"#utility.yul\":9868:9873   */\n      dup4\n        /* \"#utility.yul\":9864:9880   */\n      add\n        /* \"#utility.yul\":9858:9881   */\n      mload\n        /* \"#utility.yul\":9928:9931   */\n      dup5\n        /* \"#utility.yul\":9922:9926   */\n      dup3\n        /* \"#utility.yul\":9918:9932   */\n      sub\n        /* \"#utility.yul\":9911:9915   */\n      0x20\n        /* \"#utility.yul\":9906:9909   */\n      dup7\n        /* \"#utility.yul\":9902:9916   */\n      add\n        /* \"#utility.yul\":9895:9933   */\n      mstore\n        /* \"#utility.yul\":9954:10027   */\n      tag_291\n        /* \"#utility.yul\":10022:10026   */\n      dup3\n        /* \"#utility.yul\":10008:10020   */\n      dup3\n        /* \"#utility.yul\":9954:10027   */\n      tag_253\n      jump\t// in\n    tag_291:\n        /* \"#utility.yul\":9946:10027   */\n      swap2\n      pop\n        /* \"#utility.yul\":9802:10038   */\n      pop\n        /* \"#utility.yul\":10122:10126   */\n      0x40\n        /* \"#utility.yul\":10115:10120   */\n      dup4\n        /* \"#utility.yul\":10111:10127   */\n      add\n        /* \"#utility.yul\":10105:10128   */\n      mload\n        /* \"#utility.yul\":10175:10178   */\n      dup5\n        /* \"#utility.yul\":10169:10173   */\n      dup3\n        /* \"#utility.yul\":10165:10179   */\n      sub\n        /* \"#utility.yul\":10158:10162   */\n      0x40\n        /* \"#utility.yul\":10153:10156   */\n      dup7\n        /* \"#utility.yul\":10149:10163   */\n      add\n        /* \"#utility.yul\":10142:10180   */\n      mstore\n        /* \"#utility.yul\":10201:10274   */\n      tag_292\n        /* \"#utility.yul\":10269:10273   */\n      dup3\n        /* \"#utility.yul\":10255:10267   */\n      dup3\n        /* \"#utility.yul\":10201:10274   */\n      tag_253\n      jump\t// in\n    tag_292:\n        /* \"#utility.yul\":10193:10274   */\n      swap2\n      pop\n        /* \"#utility.yul\":10048:10285   */\n      pop\n        /* \"#utility.yul\":10369:10373   */\n      0x60\n        /* \"#utility.yul\":10362:10367   */\n      dup4\n        /* \"#utility.yul\":10358:10374   */\n      add\n        /* \"#utility.yul\":10352:10375   */\n      mload\n        /* \"#utility.yul\":10422:10425   */\n      dup5\n        /* \"#utility.yul\":10416:10420   */\n      dup3\n        /* \"#utility.yul\":10412:10426   */\n      sub\n        /* \"#utility.yul\":10405:10409   */\n      0x60\n        /* \"#utility.yul\":10400:10403   */\n      dup7\n        /* \"#utility.yul\":10396:10410   */\n      add\n        /* \"#utility.yul\":10389:10427   */\n      mstore\n        /* \"#utility.yul\":10448:10521   */\n      tag_293\n        /* \"#utility.yul\":10516:10520   */\n      dup3\n        /* \"#utility.yul\":10502:10514   */\n      dup3\n        /* \"#utility.yul\":10448:10521   */\n      tag_253\n      jump\t// in\n    tag_293:\n        /* \"#utility.yul\":10440:10521   */\n      swap2\n      pop\n        /* \"#utility.yul\":10295:10532   */\n      pop\n        /* \"#utility.yul\":10616:10620   */\n      0x80\n        /* \"#utility.yul\":10609:10614   */\n      dup4\n        /* \"#utility.yul\":10605:10621   */\n      add\n        /* \"#utility.yul\":10599:10622   */\n      mload\n        /* \"#utility.yul\":10669:10672   */\n      dup5\n        /* \"#utility.yul\":10663:10667   */\n      dup3\n        /* \"#utility.yul\":10659:10673   */\n      sub\n        /* \"#utility.yul\":10652:10656   */\n      0x80\n        /* \"#utility.yul\":10647:10650   */\n      dup7\n        /* \"#utility.yul\":10643:10657   */\n      add\n        /* \"#utility.yul\":10636:10674   */\n      mstore\n        /* \"#utility.yul\":10695:10768   */\n      tag_294\n        /* \"#utility.yul\":10763:10767   */\n      dup3\n        /* \"#utility.yul\":10749:10761   */\n      dup3\n        /* \"#utility.yul\":10695:10768   */\n      tag_253\n      jump\t// in\n    tag_294:\n        /* \"#utility.yul\":10687:10768   */\n      swap2\n      pop\n        /* \"#utility.yul\":10542:10779   */\n      pop\n        /* \"#utility.yul\":10796:10800   */\n      dup1\n        /* \"#utility.yul\":10789:10800   */\n      swap2\n      pop\n        /* \"#utility.yul\":9510:10806   */\n      pop\n        /* \"#utility.yul\":9388:10806   */\n      swap3\n      swap2\n      pop\n      pop\n      jump\t// out\n        /* \"#utility.yul\":10864:11940   */\n    tag_295:\n        /* \"#utility.yul\":10975:10978   */\n      0x00\n        /* \"#utility.yul\":11011:11015   */\n      0x60\n        /* \"#utility.yul\":11006:11009   */\n      dup4\n        /* \"#utility.yul\":11002:11016   */\n      add\n        /* \"#utility.yul\":11102:11106   */\n      0x00\n        /* \"#utility.yul\":11095:11100   */\n      dup4\n        /* \"#utility.yul\":11091:11107   */\n      add\n        /* \"#utility.yul\":11085:11108   */\n      mload\n        /* \"#utility.yul\":11155:11158   */\n      dup5\n        /* \"#utility.yul\":11149:11153   */\n      dup3\n        /* \"#utility.yul\":11145:11159   */\n      sub\n        /* \"#utility.yul\":11138:11142   */\n      0x00\n        /* \"#utility.yul\":11133:11136   */\n      dup7\n        /* \"#utility.yul\":11129:11143   */\n      add\n        /* \"#utility.yul\":11122:11160   */\n      mstore\n        /* \"#utility.yul\":11181:11304   */\n      tag_297\n        /* \"#utility.yul\":11299:11303   */\n      dup3\n        /* \"#utility.yul\":11285:11297   */\n      dup3\n        /* \"#utility.yul\":11181:11304   */\n      tag_258\n      jump\t// in\n    tag_297:\n        /* \"#utility.yul\":11173:11304   */\n      swap2\n      pop\n        /* \"#utility.yul\":11026:11315   */\n      pop\n        /* \"#utility.yul\":11400:11404   */\n      0x20\n        /* \"#utility.yul\":11393:11398   */\n      dup4\n        /* \"#utility.yul\":11389:11405   */\n      add\n        /* \"#utility.yul\":11383:11406   */\n      mload\n        /* \"#utility.yul\":11453:11456   */\n      dup5\n        /* \"#utility.yul\":11447:11451   */\n      dup3\n        /* \"#utility.yul\":11443:11457   */\n      sub\n        /* \"#utility.yul\":11436:11440   */\n      0x20\n        /* \"#utility.yul\":11431:11434   */\n      dup7\n        /* \"#utility.yul\":11427:11441   */\n      add\n        /* \"#utility.yul\":11420:11458   */\n      mstore\n        /* \"#utility.yul\":11479:11602   */\n      tag_298\n        /* \"#utility.yul\":11597:11601   */\n      dup3\n        /* \"#utility.yul\":11583:11595   */\n      dup3\n        /* \"#utility.yul\":11479:11602   */\n      tag_258\n      jump\t// in\n    tag_298:\n        /* \"#utility.yul\":11471:11602   */\n      swap2\n      pop\n        /* \"#utility.yul\":11325:11613   */\n      pop\n        /* \"#utility.yul\":11700:11704   */\n      0x40\n        /* \"#utility.yul\":11693:11698   */\n      dup4\n        /* \"#utility.yul\":11689:11705   */\n      add\n        /* \"#utility.yul\":11683:11706   */\n      mload\n        /* \"#utility.yul\":11753:11756   */\n      dup5\n        /* \"#utility.yul\":11747:11751   */\n      dup3\n        /* \"#utility.yul\":11743:11757   */\n      sub\n        /* \"#utility.yul\":11736:11740   */\n      0x40\n        /* \"#utility.yul\":11731:11734   */\n      dup7\n        /* \"#utility.yul\":11727:11741   */\n      add\n        /* \"#utility.yul\":11720:11758   */\n      mstore\n        /* \"#utility.yul\":11779:11902   */\n      tag_299\n        /* \"#utility.yul\":11897:11901   */\n      dup3\n        /* \"#utility.yul\":11883:11895   */\n      dup3\n        /* \"#utility.yul\":11779:11902   */\n      tag_258\n      jump\t// in\n    tag_299:\n        /* \"#utility.yul\":11771:11902   */\n      swap2\n      pop\n        /* \"#utility.yul\":11623:11913   */\n      pop\n        /* \"#utility.yul\":11930:11934   */\n      dup1\n        /* \"#utility.yul\":11923:11934   */\n      swap2\n      pop\n        /* \"#utility.yul\":10980:11940   */\n      pop\n        /* \"#utility.yul\":10864:11940   */\n      swap3\n      swap2\n      pop\n      pop\n      jump\t// out\n        /* \"#utility.yul\":11946:12064   */\n    tag_300:\n        /* \"#utility.yul\":12033:12057   */\n      tag_302\n        /* \"#utility.yul\":12051:12056   */\n      dup2\n        /* \"#utility.yul\":12033:12057   */\n      tag_303\n      jump\t// in\n    tag_302:\n        /* \"#utility.yul\":12028:12031   */\n      dup3\n        /* \"#utility.yul\":12021:12058   */\n      mstore\n        /* \"#utility.yul\":11946:12064   */\n      pop\n      pop\n      jump\t// out\n        /* \"#utility.yul\":12070:13915   */\n    tag_21:\n        /* \"#utility.yul\":12577:12581   */\n      0x00\n        /* \"#utility.yul\":12615:12618   */\n      0x0120\n        /* \"#utility.yul\":12604:12613   */\n      dup3\n        /* \"#utility.yul\":12600:12619   */\n      add\n        /* \"#utility.yul\":12592:12619   */\n      swap1\n      pop\n        /* \"#utility.yul\":12629:12700   */\n      tag_305\n        /* \"#utility.yul\":12697:12698   */\n      0x00\n        /* \"#utility.yul\":12686:12695   */\n      dup4\n        /* \"#utility.yul\":12682:12699   */\n      add\n        /* \"#utility.yul\":12673:12679   */\n      dup13\n        /* \"#utility.yul\":12629:12700   */\n      tag_254\n      jump\t// in\n    tag_305:\n        /* \"#utility.yul\":12747:12756   */\n      dup2\n        /* \"#utility.yul\":12741:12745   */\n      dup2\n        /* \"#utility.yul\":12737:12757   */\n      sub\n        /* \"#utility.yul\":12732:12734   */\n      0x20\n        /* \"#utility.yul\":12721:12730   */\n      dup4\n        /* \"#utility.yul\":12717:12735   */\n      add\n        /* \"#utility.yul\":12710:12758   */\n      mstore\n        /* \"#utility.yul\":12775:12853   */\n      tag_306\n        /* \"#utility.yul\":12848:12852   */\n      dup2\n        /* \"#utility.yul\":12839:12845   */\n      dup12\n        /* \"#utility.yul\":12775:12853   */\n      tag_281\n      jump\t// in\n    tag_306:\n        /* \"#utility.yul\":12767:12853   */\n      swap1\n      pop\n        /* \"#utility.yul\":12900:12909   */\n      dup2\n        /* \"#utility.yul\":12894:12898   */\n      dup2\n        /* \"#utility.yul\":12890:12910   */\n      sub\n        /* \"#utility.yul\":12885:12887   */\n      0x40\n        /* \"#utility.yul\":12874:12883   */\n      dup4\n        /* \"#utility.yul\":12870:12888   */\n      add\n        /* \"#utility.yul\":12863:12911   */\n      mstore\n        /* \"#utility.yul\":12928:13006   */\n      tag_307\n        /* \"#utility.yul\":13001:13005   */\n      dup2\n        /* \"#utility.yul\":12992:12998   */\n      dup11\n        /* \"#utility.yul\":12928:13006   */\n      tag_281\n      jump\t// in\n    tag_307:\n        /* \"#utility.yul\":12920:13006   */\n      swap1\n      pop\n        /* \"#utility.yul\":13053:13062   */\n      dup2\n        /* \"#utility.yul\":13047:13051   */\n      dup2\n        /* \"#utility.yul\":13043:13063   */\n      sub\n        /* \"#utility.yul\":13038:13040   */\n      0x60\n        /* \"#utility.yul\":13027:13036   */\n      dup4\n        /* \"#utility.yul\":13023:13041   */\n      add\n        /* \"#utility.yul\":13016:13064   */\n      mstore\n        /* \"#utility.yul\":13081:13159   */\n      tag_308\n        /* \"#utility.yul\":13154:13158   */\n      dup2\n        /* \"#utility.yul\":13145:13151   */\n      dup10\n        /* \"#utility.yul\":13081:13159   */\n      tag_281\n      jump\t// in\n    tag_308:\n        /* \"#utility.yul\":13073:13159   */\n      swap1\n      pop\n        /* \"#utility.yul\":13207:13216   */\n      dup2\n        /* \"#utility.yul\":13201:13205   */\n      dup2\n        /* \"#utility.yul\":13197:13217   */\n      sub\n        /* \"#utility.yul\":13191:13194   */\n      0x80\n        /* \"#utility.yul\":13180:13189   */\n      dup4\n        /* \"#utility.yul\":13176:13195   */\n      add\n        /* \"#utility.yul\":13169:13218   */\n      mstore\n        /* \"#utility.yul\":13235:13313   */\n      tag_309\n        /* \"#utility.yul\":13308:13312   */\n      dup2\n        /* \"#utility.yul\":13299:13305   */\n      dup9\n        /* \"#utility.yul\":13235:13313   */\n      tag_281\n      jump\t// in\n    tag_309:\n        /* \"#utility.yul\":13227:13313   */\n      swap1\n      pop\n        /* \"#utility.yul\":13323:13396   */\n      tag_310\n        /* \"#utility.yul\":13391:13394   */\n      0xa0\n        /* \"#utility.yul\":13380:13389   */\n      dup4\n        /* \"#utility.yul\":13376:13395   */\n      add\n        /* \"#utility.yul\":13367:13373   */\n      dup8\n        /* \"#utility.yul\":13323:13396   */\n      tag_300\n      jump\t// in\n    tag_310:\n        /* \"#utility.yul\":13444:13453   */\n      dup2\n        /* \"#utility.yul\":13438:13442   */\n      dup2\n        /* \"#utility.yul\":13434:13454   */\n      sub\n        /* \"#utility.yul\":13428:13431   */\n      0xc0\n        /* \"#utility.yul\":13417:13426   */\n      dup4\n        /* \"#utility.yul\":13413:13432   */\n      add\n        /* \"#utility.yul\":13406:13455   */\n      mstore\n        /* \"#utility.yul\":13472:13550   */\n      tag_311\n        /* \"#utility.yul\":13545:13549   */\n      dup2\n        /* \"#utility.yul\":13536:13542   */\n      dup7\n        /* \"#utility.yul\":13472:13550   */\n      tag_281\n      jump\t// in\n    tag_311:\n        /* \"#utility.yul\":13464:13550   */\n      swap1\n      pop\n        /* \"#utility.yul\":13598:13607   */\n      dup2\n        /* \"#utility.yul\":13592:13596   */\n      dup2\n        /* \"#utility.yul\":13588:13608   */\n      sub\n        /* \"#utility.yul\":13582:13585   */\n      0xe0\n        /* \"#utility.yul\":13571:13580   */\n      dup4\n        /* \"#utility.yul\":13567:13586   */\n      add\n        /* \"#utility.yul\":13560:13609   */\n      mstore\n        /* \"#utility.yul\":13626:13732   */\n      tag_312\n        /* \"#utility.yul\":13727:13731   */\n      dup2\n        /* \"#utility.yul\":13718:13724   */\n      dup6\n        /* \"#utility.yul\":13626:13732   */\n      tag_288\n      jump\t// in\n    tag_312:\n        /* \"#utility.yul\":13618:13732   */\n      swap1\n      pop\n        /* \"#utility.yul\":13780:13789   */\n      dup2\n        /* \"#utility.yul\":13774:13778   */\n      dup2\n        /* \"#utility.yul\":13770:13790   */\n      sub\n        /* \"#utility.yul\":13764:13767   */\n      0x0100\n        /* \"#utility.yul\":13753:13762   */\n      dup4\n        /* \"#utility.yul\":13749:13768   */\n      add\n        /* \"#utility.yul\":13742:13791   */\n      mstore\n        /* \"#utility.yul\":13808:13908   */\n      tag_313\n        /* \"#utility.yul\":13903:13907   */\n      dup2\n        /* \"#utility.yul\":13894:13900   */\n      dup5\n        /* \"#utility.yul\":13808:13908   */\n      tag_295\n      jump\t// in\n    tag_313:\n        /* \"#utility.yul\":13800:13908   */\n      swap1\n      pop\n        /* \"#utility.yul\":12070:13915   */\n      swap11\n      swap10\n      pop\n      pop\n      pop\n      pop\n      pop\n      pop\n      pop\n      pop\n      pop\n      pop\n      jump\t// out\n        /* \"#utility.yul\":13921:14050   */\n    tag_164:\n        /* \"#utility.yul\":13955:13961   */\n      0x00\n        /* \"#utility.yul\":13982:14002   */\n      tag_315\n      tag_316\n      jump\t// in\n    tag_315:\n        /* \"#utility.yul\":13972:14002   */\n      swap1\n      pop\n        /* \"#utility.yul\":14011:14044   */\n      tag_317\n        /* \"#utility.yul\":14039:14043   */\n      dup3\n        /* \"#utility.yul\":14031:14037   */\n      dup3\n        /* \"#utility.yul\":14011:14044   */\n      tag_318\n      jump\t// in\n    tag_317:\n        /* \"#utility.yul\":13921:14050   */\n      swap2\n      swap1\n      pop\n      jump\t// out\n        /* \"#utility.yul\":14056:14131   */\n    tag_316:\n        /* \"#utility.yul\":14089:14095   */\n      0x00\n        /* \"#utility.yul\":14122:14124   */\n      0x40\n        /* \"#utility.yul\":14116:14125   */\n      mload\n        /* \"#utility.yul\":14106:14125   */\n      swap1\n      pop\n        /* \"#utility.yul\":14056:14131   */\n      swap1\n      jump\t// out\n        /* \"#utility.yul\":14137:14458   */\n    tag_163:\n        /* \"#utility.yul\":14224:14228   */\n      0x00\n        /* \"#utility.yul\":14314:14332   */\n      0xffffffffffffffff\n        /* \"#utility.yul\":14306:14312   */\n      dup3\n        /* \"#utility.yul\":14303:14333   */\n      gt\n        /* \"#utility.yul\":14300:14356   */\n      iszero\n      tag_321\n      jumpi\n        /* \"#utility.yul\":14336:14354   */\n      tag_322\n      tag_323\n      jump\t// in\n    tag_322:\n        /* \"#utility.yul\":14300:14356   */\n    tag_321:\n        /* \"#utility.yul\":14386:14390   */\n      0x20\n        /* \"#utility.yul\":14378:14384   */\n      dup3\n        /* \"#utility.yul\":14374:14391   */\n      mul\n        /* \"#utility.yul\":14366:14391   */\n      swap1\n      pop\n        /* \"#utility.yul\":14446:14450   */\n      0x20\n        /* \"#utility.yul\":14440:14444   */\n      dup2\n        /* \"#utility.yul\":14436:14451   */\n      add\n        /* \"#utility.yul\":14428:14451   */\n      swap1\n      pop\n        /* \"#utility.yul\":14137:14458   */\n      swap2\n      swap1\n      pop\n      jump\t// out\n        /* \"#utility.yul\":14464:14772   */\n    tag_180:\n        /* \"#utility.yul\":14526:14530   */\n      0x00\n        /* \"#utility.yul\":14616:14634   */\n      0xffffffffffffffff\n        /* \"#utility.yul\":14608:14614   */\n      dup3\n        /* \"#utility.yul\":14605:14635   */\n      gt\n        /* \"#utility.yul\":14602:14658   */\n      iszero\n      tag_325\n      jumpi\n        /* \"#utility.yul\":14638:14656   */\n      tag_326\n      tag_323\n      jump\t// in\n    tag_326:\n        /* \"#utility.yul\":14602:14658   */\n    tag_325:\n        /* \"#utility.yul\":14676:14705   */\n      tag_327\n        /* \"#utility.yul\":14698:14704   */\n      dup3\n        /* \"#utility.yul\":14676:14705   */\n      tag_280\n      jump\t// in\n    tag_327:\n        /* \"#utility.yul\":14668:14705   */\n      swap1\n      pop\n        /* \"#utility.yul\":14760:14764   */\n      0x20\n        /* \"#utility.yul\":14754:14758   */\n      dup2\n        /* \"#utility.yul\":14750:14765   */\n      add\n        /* \"#utility.yul\":14742:14765   */\n      swap1\n      pop\n        /* \"#utility.yul\":14464:14772   */\n      swap2\n      swap1\n      pop\n      jump\t// out\n        /* \"#utility.yul\":14778:14920   */\n    tag_265:\n        /* \"#utility.yul\":14855:14859   */\n      0x00\n        /* \"#utility.yul\":14878:14881   */\n      dup2\n        /* \"#utility.yul\":14870:14881   */\n      swap1\n      pop\n        /* \"#utility.yul\":14908:14912   */\n      0x20\n        /* \"#utility.yul\":14903:14906   */\n      dup3\n        /* \"#utility.yul\":14899:14913   */\n      add\n        /* \"#utility.yul\":14891:14913   */\n      swap1\n      pop\n        /* \"#utility.yul\":14778:14920   */\n      swap2\n      swap1\n      pop\n      jump\t// out\n        /* \"#utility.yul\":14926:15050   */\n    tag_261:\n        /* \"#utility.yul\":15003:15009   */\n      0x00\n        /* \"#utility.yul\":15037:15042   */\n      dup2\n        /* \"#utility.yul\":15031:15043   */\n      mload\n        /* \"#utility.yul\":15021:15043   */\n      swap1\n      pop\n        /* \"#utility.yul\":14926:15050   */\n      swap2\n      swap1\n      pop\n      jump\t// out\n        /* \"#utility.yul\":15056:15155   */\n    tag_274:\n        /* \"#utility.yul\":15108:15114   */\n      0x00\n        /* \"#utility.yul\":15142:15147   */\n      dup2\n        /* \"#utility.yul\":15136:15148   */\n      mload\n        /* \"#utility.yul\":15126:15148   */\n      swap1\n      pop\n        /* \"#utility.yul\":15056:15155   */\n      swap2\n      swap1\n      pop\n      jump\t// out\n        /* \"#utility.yul\":15161:15284   */\n    tag_271:\n        /* \"#utility.yul\":15241:15245   */\n      0x00\n        /* \"#utility.yul\":15273:15277   */\n      0x20\n        /* \"#utility.yul\":15268:15271   */\n      dup3\n        /* \"#utility.yul\":15264:15278   */\n      add\n        /* \"#utility.yul\":15256:15278   */\n      swap1\n      pop\n        /* \"#utility.yul\":15161:15284   */\n      swap2\n      swap1\n      pop\n      jump\t// out\n        /* \"#utility.yul\":15290:15474   */\n    tag_263:\n        /* \"#utility.yul\":15389:15400   */\n      0x00\n        /* \"#utility.yul\":15423:15429   */\n      dup3\n        /* \"#utility.yul\":15418:15421   */\n      dup3\n        /* \"#utility.yul\":15411:15430   */\n      mstore\n        /* \"#utility.yul\":15463:15467   */\n      0x20\n        /* \"#utility.yul\":15458:15461   */\n      dup3\n        /* \"#utility.yul\":15454:15468   */\n      add\n        /* \"#utility.yul\":15439:15468   */\n      swap1\n      pop\n        /* \"#utility.yul\":15290:15474   */\n      swap3\n      swap2\n      pop\n      pop\n      jump\t// out\n        /* \"#utility.yul\":15480:15639   */\n    tag_276:\n        /* \"#utility.yul\":15554:15565   */\n      0x00\n        /* \"#utility.yul\":15588:15594   */\n      dup3\n        /* \"#utility.yul\":15583:15586   */\n      dup3\n        /* \"#utility.yul\":15576:15595   */\n      mstore\n        /* \"#utility.yul\":15628:15632   */\n      0x20\n        /* \"#utility.yul\":15623:15626   */\n      dup3\n        /* \"#utility.yul\":15619:15633   */\n      add\n        /* \"#utility.yul\":15604:15633   */\n      swap1\n      pop\n        /* \"#utility.yul\":15480:15639   */\n      swap3\n      swap2\n      pop\n      pop\n      jump\t// out\n        /* \"#utility.yul\":15645:15814   */\n    tag_285:\n        /* \"#utility.yul\":15729:15740   */\n      0x00\n        /* \"#utility.yul\":15763:15769   */\n      dup3\n        /* \"#utility.yul\":15758:15761   */\n      dup3\n        /* \"#utility.yul\":15751:15770   */\n      mstore\n        /* \"#utility.yul\":15803:15807   */\n      0x20\n        /* \"#utility.yul\":15798:15801   */\n      dup3\n        /* \"#utility.yul\":15794:15808   */\n      add\n        /* \"#utility.yul\":15779:15808   */\n      swap1\n      pop\n        /* \"#utility.yul\":15645:15814   */\n      swap3\n      swap2\n      pop\n      pop\n      jump\t// out\n        /* \"#utility.yul\":15820:15916   */\n    tag_257:\n        /* \"#utility.yul\":15857:15864   */\n      0x00\n        /* \"#utility.yul\":15886:15910   */\n      tag_336\n        /* \"#utility.yul\":15904:15909   */\n      dup3\n        /* \"#utility.yul\":15886:15910   */\n      tag_337\n      jump\t// in\n    tag_336:\n        /* \"#utility.yul\":15875:15910   */\n      swap1\n      pop\n        /* \"#utility.yul\":15820:15916   */\n      swap2\n      swap1\n      pop\n      jump\t// out\n        /* \"#utility.yul\":15922:16048   */\n    tag_337:\n        /* \"#utility.yul\":15959:15966   */\n      0x00\n        /* \"#utility.yul\":15999:16041   */\n      0xffffffffffffffffffffffffffffffffffffffff\n        /* \"#utility.yul\":15992:15997   */\n      dup3\n        /* \"#utility.yul\":15988:16042   */\n      and\n        /* \"#utility.yul\":15977:16042   */\n      swap1\n      pop\n        /* \"#utility.yul\":15922:16048   */\n      swap2\n      swap1\n      pop\n      jump\t// out\n        /* \"#utility.yul\":16054:16131   */\n    tag_303:\n        /* \"#utility.yul\":16091:16098   */\n      0x00\n        /* \"#utility.yul\":16120:16125   */\n      dup2\n        /* \"#utility.yul\":16109:16125   */\n      swap1\n      pop\n        /* \"#utility.yul\":16054:16131   */\n      swap2\n      swap1\n      pop\n      jump\t// out\n        /* \"#utility.yul\":16137:16291   */\n    tag_185:\n        /* \"#utility.yul\":16221:16227   */\n      dup3\n        /* \"#utility.yul\":16216:16219   */\n      dup2\n        /* \"#utility.yul\":16211:16214   */\n      dup4\n        /* \"#utility.yul\":16198:16228   */\n      calldatacopy\n        /* \"#utility.yul\":16283:16284   */\n      0x00\n        /* \"#utility.yul\":16274:16280   */\n      dup4\n        /* \"#utility.yul\":16269:16272   */\n      dup4\n        /* \"#utility.yul\":16265:16281   */\n      add\n        /* \"#utility.yul\":16258:16285   */\n      mstore\n        /* \"#utility.yul\":16137:16291   */\n      pop\n      pop\n      pop\n      jump\t// out\n        /* \"#utility.yul\":16297:16604   */\n    tag_278:\n        /* \"#utility.yul\":16365:16366   */\n      0x00\n        /* \"#utility.yul\":16375:16488   */\n    tag_342:\n        /* \"#utility.yul\":16389:16395   */\n      dup4\n        /* \"#utility.yul\":16386:16387   */\n      dup2\n        /* \"#utility.yul\":16383:16396   */\n      lt\n        /* \"#utility.yul\":16375:16488   */\n      iszero\n      tag_344\n      jumpi\n        /* \"#utility.yul\":16474:16475   */\n      dup1\n        /* \"#utility.yul\":16469:16472   */\n      dup3\n        /* \"#utility.yul\":16465:16476   */\n      add\n        /* \"#utility.yul\":16459:16477   */\n      mload\n        /* \"#utility.yul\":16455:16456   */\n      dup2\n        /* \"#utility.yul\":16450:16453   */\n      dup5\n        /* \"#utility.yul\":16446:16457   */\n      add\n        /* \"#utility.yul\":16439:16478   */\n      mstore\n        /* \"#utility.yul\":16411:16413   */\n      0x20\n        /* \"#utility.yul\":16408:16409   */\n      dup2\n        /* \"#utility.yul\":16404:16414   */\n      add\n        /* \"#utility.yul\":16399:16414   */\n      swap1\n      pop\n        /* \"#utility.yul\":16375:16488   */\n      jump(tag_342)\n    tag_344:\n        /* \"#utility.yul\":16506:16512   */\n      dup4\n        /* \"#utility.yul\":16503:16504   */\n      dup2\n        /* \"#utility.yul\":16500:16513   */\n      gt\n        /* \"#utility.yul\":16497:16598   */\n      iszero\n      tag_345\n      jumpi\n        /* \"#utility.yul\":16586:16587   */\n      0x00\n        /* \"#utility.yul\":16577:16583   */\n      dup5\n        /* \"#utility.yul\":16572:16575   */\n      dup5\n        /* \"#utility.yul\":16568:16584   */\n      add\n        /* \"#utility.yul\":16561:16588   */\n      mstore\n        /* \"#utility.yul\":16497:16598   */\n    tag_345:\n        /* \"#utility.yul\":16346:16604   */\n      pop\n        /* \"#utility.yul\":16297:16604   */\n      pop\n      pop\n      pop\n      jump\t// out\n        /* \"#utility.yul\":16610:16930   */\n    tag_38:\n        /* \"#utility.yul\":16654:16660   */\n      0x00\n        /* \"#utility.yul\":16691:16692   */\n      0x02\n        /* \"#utility.yul\":16685:16689   */\n      dup3\n        /* \"#utility.yul\":16681:16693   */\n      div\n        /* \"#utility.yul\":16671:16693   */\n      swap1\n      pop\n        /* \"#utility.yul\":16738:16739   */\n      0x01\n        /* \"#utility.yul\":16732:16736   */\n      dup3\n        /* \"#utility.yul\":16728:16740   */\n      and\n        /* \"#utility.yul\":16759:16777   */\n      dup1\n        /* \"#utility.yul\":16749:16830   */\n      tag_347\n      jumpi\n        /* \"#utility.yul\":16815:16819   */\n      0x7f\n        /* \"#utility.yul\":16807:16813   */\n      dup3\n        /* \"#utility.yul\":16803:16820   */\n      and\n        /* \"#utility.yul\":16793:16820   */\n      swap2\n      pop\n        /* \"#utility.yul\":16749:16830   */\n    tag_347:\n        /* \"#utility.yul\":16877:16879   */\n      0x20\n        /* \"#utility.yul\":16869:16875   */\n      dup3\n        /* \"#utility.yul\":16866:16880   */\n      lt\n        /* \"#utility.yul\":16846:16864   */\n      dup2\n        /* \"#utility.yul\":16843:16881   */\n      eq\n        /* \"#utility.yul\":16840:16924   */\n      iszero\n      tag_348\n      jumpi\n        /* \"#utility.yul\":16896:16914   */\n      tag_349\n      tag_350\n      jump\t// in\n    tag_349:\n        /* \"#utility.yul\":16840:16924   */\n    tag_348:\n        /* \"#utility.yul\":16661:16930   */\n      pop\n        /* \"#utility.yul\":16610:16930   */\n      swap2\n      swap1\n      pop\n      jump\t// out\n        /* \"#utility.yul\":16936:17217   */\n    tag_318:\n        /* \"#utility.yul\":17019:17046   */\n      tag_352\n        /* \"#utility.yul\":17041:17045   */\n      dup3\n        /* \"#utility.yul\":17019:17046   */\n      tag_280\n      jump\t// in\n    tag_352:\n        /* \"#utility.yul\":17011:17017   */\n      dup2\n        /* \"#utility.yul\":17007:17047   */\n      add\n        /* \"#utility.yul\":17149:17155   */\n      dup2\n        /* \"#utility.yul\":17137:17147   */\n      dup2\n        /* \"#utility.yul\":17134:17156   */\n      lt\n        /* \"#utility.yul\":17113:17131   */\n      0xffffffffffffffff\n        /* \"#utility.yul\":17101:17111   */\n      dup3\n        /* \"#utility.yul\":17098:17132   */\n      gt\n        /* \"#utility.yul\":17095:17157   */\n      or\n        /* \"#utility.yul\":17092:17180   */\n      iszero\n      tag_353\n      jumpi\n        /* \"#utility.yul\":17160:17178   */\n      tag_354\n      tag_323\n      jump\t// in\n    tag_354:\n        /* \"#utility.yul\":17092:17180   */\n    tag_353:\n        /* \"#utility.yul\":17200:17210   */\n      dup1\n        /* \"#utility.yul\":17196:17198   */\n      0x40\n        /* \"#utility.yul\":17189:17211   */\n      mstore\n        /* \"#utility.yul\":16979:17217   */\n      pop\n        /* \"#utility.yul\":16936:17217   */\n      pop\n      pop\n      jump\t// out\n        /* \"#utility.yul\":17223:17403   */\n    tag_350:\n        /* \"#utility.yul\":17271:17348   */\n      0x4e487b7100000000000000000000000000000000000000000000000000000000\n        /* \"#utility.yul\":17268:17269   */\n      0x00\n        /* \"#utility.yul\":17261:17349   */\n      mstore\n        /* \"#utility.yul\":17368:17372   */\n      0x22\n        /* \"#utility.yul\":17365:17366   */\n      0x04\n        /* \"#utility.yul\":17358:17373   */\n      mstore\n        /* \"#utility.yul\":17392:17396   */\n      0x24\n        /* \"#utility.yul\":17389:17390   */\n      0x00\n        /* \"#utility.yul\":17382:17397   */\n      revert\n        /* \"#utility.yul\":17409:17589   */\n    tag_323:\n        /* \"#utility.yul\":17457:17534   */\n      0x4e487b7100000000000000000000000000000000000000000000000000000000\n        /* \"#utility.yul\":17454:17455   */\n      0x00\n        /* \"#utility.yul\":17447:17535   */\n      mstore\n        /* \"#utility.yul\":17554:17558   */\n      0x41\n        /* \"#utility.yul\":17551:17552   */\n      0x04\n        /* \"#utility.yul\":17544:17559   */\n      mstore\n        /* \"#utility.yul\":17578:17582   */\n      0x24\n        /* \"#utility.yul\":17575:17576   */\n      0x00\n        /* \"#utility.yul\":17568:17583   */\n      revert\n        /* \"#utility.yul\":17595:17712   */\n    tag_173:\n        /* \"#utility.yul\":17704:17705   */\n      0x00\n        /* \"#utility.yul\":17701:17702   */\n      dup1\n        /* \"#utility.yul\":17694:17706   */\n      revert\n        /* \"#utility.yul\":17718:17835   */\n    tag_167:\n        /* \"#utility.yul\":17827:17828   */\n      0x00\n        /* \"#utility.yul\":17824:17825   */\n      dup1\n        /* \"#utility.yul\":17817:17829   */\n      revert\n        /* \"#utility.yul\":17841:17958   */\n    tag_183:\n        /* \"#utility.yul\":17950:17951   */\n      0x00\n        /* \"#utility.yul\":17947:17948   */\n      dup1\n        /* \"#utility.yul\":17940:17952   */\n      revert\n        /* \"#utility.yul\":17964:18081   */\n    tag_209:\n        /* \"#utility.yul\":18073:18074   */\n      0x00\n        /* \"#utility.yul\":18070:18071   */\n      dup1\n        /* \"#utility.yul\":18063:18075   */\n      revert\n        /* \"#utility.yul\":18087:18204   */\n    tag_202:\n        /* \"#utility.yul\":18196:18197   */\n      0x00\n        /* \"#utility.yul\":18193:18194   */\n      dup1\n        /* \"#utility.yul\":18186:18198   */\n      revert\n        /* \"#utility.yul\":18210:18312   */\n    tag_280:\n        /* \"#utility.yul\":18251:18257   */\n      0x00\n        /* \"#utility.yul\":18302:18304   */\n      0x1f\n        /* \"#utility.yul\":18298:18305   */\n      not\n        /* \"#utility.yul\":18293:18295   */\n      0x1f\n        /* \"#utility.yul\":18286:18291   */\n      dup4\n        /* \"#utility.yul\":18282:18296   */\n      add\n        /* \"#utility.yul\":18278:18306   */\n      and\n        /* \"#utility.yul\":18268:18306   */\n      swap1\n      pop\n        /* \"#utility.yul\":18210:18312   */\n      swap2\n      swap1\n      pop\n      jump\t// out\n        /* \"#utility.yul\":18318:18440   */\n    tag_189:\n        /* \"#utility.yul\":18391:18415   */\n      tag_364\n        /* \"#utility.yul\":18409:18414   */\n      dup2\n        /* \"#utility.yul\":18391:18415   */\n      tag_257\n      jump\t// in\n    tag_364:\n        /* \"#utility.yul\":18384:18389   */\n      dup2\n        /* \"#utility.yul\":18381:18416   */\n      eq\n        /* \"#utility.yul\":18371:18434   */\n      tag_365\n      jumpi\n        /* \"#utility.yul\":18430:18431   */\n      0x00\n        /* \"#utility.yul\":18427:18428   */\n      dup1\n        /* \"#utility.yul\":18420:18432   */\n      revert\n        /* \"#utility.yul\":18371:18434   */\n    tag_365:\n        /* \"#utility.yul\":18318:18440   */\n      pop\n      jump\t// out\n\n    auxdata: 0xa2646970667358221220c0910f0671682bb007cc1834c5afdb26a55cd3b7a4a7939a8922eb44d05f12d864736f6c63430008070033\n}\n",
				"bytecode": {
					"linkReferences": {},
					"object": "608060405234801561001057600080fd5b5061199e806100206000396000f3fe608060405234801561001057600080fd5b50600436106100575760003560e01c80634571f1251461005c57806391f2cb9d146100785780639dd9d0fd14610094578063d52246d7146100cc578063fabce08f146100e8575b600080fd5b6100766004803603810190610071919061125b565b6100f2565b005b610092600480360381019061008d9190611332565b610316565b005b6100ae60048036038101906100a99190611187565b6103cf565b6040516100c399989796959493929190611642565b60405180910390f35b6100e660048036038101906100e191906111b4565b610c5e565b005b6100f0610d6e565b005b836000803373ffffffffffffffffffffffffffffffffffffffff1673ffffffffffffffffffffffffffffffffffffffff1681526020019081526020016000206001019080519060200190610147929190610ebe565b50826000803373ffffffffffffffffffffffffffffffffffffffff1673ffffffffffffffffffffffffffffffffffffffff168152602001908152602001600020600201908051906020019061019d929190610ebe565b50816000803373ffffffffffffffffffffffffffffffffffffffff1673ffffffffffffffffffffffffffffffffffffffff16815260200190815260200160002060030190805190602001906101f3929190610ebe565b50806000803373ffffffffffffffffffffffffffffffffffffffff1673ffffffffffffffffffffffffffffffffffffffff1681526020019081526020016000206004019080519060200190610249929190610ebe565b50336000803373ffffffffffffffffffffffffffffffffffffffff1673ffffffffffffffffffffffffffffffffffffffff16815260200190815260200160002060000160006101000a81548173ffffffffffffffffffffffffffffffffffffffff021916908373ffffffffffffffffffffffffffffffffffffffff160217905550426000803373ffffffffffffffffffffffffffffffffffffffff1673ffffffffffffffffffffffffffffffffffffffff1681526020019081526020016000206005018190555050505050565b846000803373ffffffffffffffffffffffffffffffffffffffff1673ffffffffffffffffffffffffffffffffffffffff168152602001908152602001600020600701600001908051906020019061036e929190610ebe565b50836000803373ffffffffffffffffffffffffffffffffffffffff1673ffffffffffffffffffffffffffffffffffffffff16815260200190815260200160002060070160010190805190602001906103c7929190610ebe565b505050505050565b60006020528060005260406000206000915090508060000160009054906101000a900473ffffffffffffffffffffffffffffffffffffffff169080600101805461041890611866565b80601f016020809104026020016040519081016040528092919081815260200182805461044490611866565b80156104915780601f1061046657610100808354040283529160200191610491565b820191906000526020600020905b81548152906001019060200180831161047457829003601f168201915b5050505050908060020180546104a690611866565b80601f01602080910402602001604051908101604052809291908181526020018280546104d290611866565b801561051f5780601f106104f45761010080835404028352916020019161051f565b820191906000526020600020905b81548152906001019060200180831161050257829003601f168201915b50505050509080600301805461053490611866565b80601f016020809104026020016040519081016040528092919081815260200182805461056090611866565b80156105ad5780601f10610582576101008083540402835291602001916105ad565b820191906000526020600020905b81548152906001019060200180831161059057829003601f168201915b5050505050908060040180546105c290611866565b80601f01602080910402602001604051908101604052809291908181526020018280546105ee90611866565b801561063b5780601f106106105761010080835404028352916020019161063b565b820191906000526020600020905b81548152906001019060200180831161061e57829003601f168201915b50505050509080600501549080600601805461065690611866565b80601f016020809104026020016040519081016040528092919081815260200182805461068290611866565b80156106cf5780601f106106a4576101008083540402835291602001916106cf565b820191906000526020600020905b8154815290600101906020018083116106b257829003601f168201915b505050505090806007016040518060a00160405290816000820180546106f490611866565b80601f016020809104026020016040519081016040528092919081815260200182805461072090611866565b801561076d5780601f106107425761010080835404028352916020019161076d565b820191906000526020600020905b81548152906001019060200180831161075057829003601f168201915b5050505050815260200160018201805461078690611866565b80601f01602080910402602001604051908101604052809291908181526020018280546107b290611866565b80156107ff5780601f106107d4576101008083540402835291602001916107ff565b820191906000526020600020905b8154815290600101906020018083116107e257829003601f168201915b5050505050815260200160028201805461081890611866565b80601f016020809104026020016040519081016040528092919081815260200182805461084490611866565b80156108915780601f1061086657610100808354040283529160200191610891565b820191906000526020600020905b81548152906001019060200180831161087457829003601f168201915b505050505081526020016003820180546108aa90611866565b80601f01602080910402602001604051908101604052809291908181526020018280546108d690611866565b80156109235780601f106108f857610100808354040283529160200191610923565b820191906000526020600020905b81548152906001019060200180831161090657829003601f168201915b5050505050815260200160048201805461093c90611866565b80601f016020809104026020016040519081016040528092919081815260200182805461096890611866565b80156109b55780601f1061098a576101008083540402835291602001916109b5565b820191906000526020600020905b81548152906001019060200180831161099857829003601f168201915b5050505050815250509080600c0160405180606001604052908160008201805480602002602001604051908101604052809291908181526020016000905b82821015610a9f578382906000526020600020018054610a1290611866565b80601f0160208091040260200160405190810160405280929190818152602001828054610a3e90611866565b8015610a8b5780601f10610a6057610100808354040283529160200191610a8b565b820191906000526020600020905b815481529060010190602001808311610a6e57829003601f168201915b5050505050815260200190600101906109f3565b50505050815260200160018201805480602002602001604051908101604052809291908181526020016000905b82821015610b78578382906000526020600020018054610aeb90611866565b80601f0160208091040260200160405190810160405280929190818152602001828054610b1790611866565b8015610b645780601f10610b3957610100808354040283529160200191610b64565b820191906000526020600020905b815481529060010190602001808311610b4757829003601f168201915b505050505081526020019060010190610acc565b50505050815260200160028201805480602002602001604051908101604052809291908181526020016000905b82821015610c51578382906000526020600020018054610bc490611866565b80601f0160208091040260200160405190810160405280929190818152602001828054610bf090611866565b8015610c3d5780601f10610c1257610100808354040283529160200191610c3d565b820191906000526020600020905b815481529060010190602001808311610c2057829003601f168201915b505050505081526020019060010190610ba5565b5050505081525050905089565b826000803373ffffffffffffffffffffffffffffffffffffffff1673ffffffffffffffffffffffffffffffffffffffff168152602001908152602001600020600c016000019080519060200190610cb6929190610f44565b50816000803373ffffffffffffffffffffffffffffffffffffffff1673ffffffffffffffffffffffffffffffffffffffff168152602001908152602001600020600c016001019080519060200190610d0f929190610f44565b50806000803373ffffffffffffffffffffffffffffffffffffffff1673ffffffffffffffffffffffffffffffffffffffff168152602001908152602001600020600c016002019080519060200190610d68929190610f44565b50505050565b6000803373ffffffffffffffffffffffffffffffffffffffff1673ffffffffffffffffffffffffffffffffffffffff168152602001908152602001600020600080820160006101000a81549073ffffffffffffffffffffffffffffffffffffffff0219169055600182016000610de49190610fa4565b600282016000610df49190610fa4565b600382016000610e049190610fa4565b600482016000610e149190610fa4565b6005820160009055600682016000610e2c9190610fa4565b6007820160008082016000610e419190610fa4565b600182016000610e519190610fa4565b600282016000610e619190610fa4565b600382016000610e719190610fa4565b600482016000610e819190610fa4565b5050600c820160008082016000610e989190610fe4565b600182016000610ea89190610fe4565b600282016000610eb89190610fe4565b50505050565b828054610eca90611866565b90600052602060002090601f016020900481019282610eec5760008555610f33565b82601f10610f0557805160ff1916838001178555610f33565b82800160010185558215610f33579182015b82811115610f32578251825591602001919060010190610f17565b5b509050610f409190611005565b5090565b828054828255906000526020600020908101928215610f93579160200282015b82811115610f92578251829080519060200190610f82929190610ebe565b5091602001919060010190610f64565b5b509050610fa09190611022565b5090565b508054610fb090611866565b6000825580601f10610fc25750610fe1565b601f016020900490600052602060002090810190610fe09190611005565b5b50565b50805460008255906000526020600020908101906110029190611022565b50565b5b8082111561101e576000816000905550600101611006565b5090565b5b8082111561104257600081816110399190610fa4565b50600101611023565b5090565b600061105961105484611725565b611700565b9050808382526020820190508285602086028201111561107c5761107b61192c565b5b60005b858110156110ca57813567ffffffffffffffff8111156110a2576110a1611927565b5b8086016110af8982611159565b8552602085019450602084019350505060018101905061107f565b5050509392505050565b60006110e76110e284611751565b611700565b90508281526020810184848401111561110357611102611931565b5b61110e848285611824565b509392505050565b60008135905061112581611951565b92915050565b600082601f8301126111405761113f611927565b5b8135611150848260208601611046565b91505092915050565b600082601f83011261116e5761116d611927565b5b813561117e8482602086016110d4565b91505092915050565b60006020828403121561119d5761119c61193b565b5b60006111ab84828501611116565b91505092915050565b6000806000606084860312156111cd576111cc61193b565b5b600084013567ffffffffffffffff8111156111eb576111ea611936565b5b6111f78682870161112b565b935050602084013567ffffffffffffffff81111561121857611217611936565b5b6112248682870161112b565b925050604084013567ffffffffffffffff81111561124557611244611936565b5b6112518682870161112b565b9150509250925092565b600080600080608085870312156112755761127461193b565b5b600085013567ffffffffffffffff81111561129357611292611936565b5b61129f87828801611159565b945050602085013567ffffffffffffffff8111156112c0576112bf611936565b5b6112cc87828801611159565b935050604085013567ffffffffffffffff8111156112ed576112ec611936565b5b6112f987828801611159565b925050606085013567ffffffffffffffff81111561131a57611319611936565b5b61132687828801611159565b91505092959194509250565b600080600080600060a0868803121561134e5761134d61193b565b5b600086013567ffffffffffffffff81111561136c5761136b611936565b5b61137888828901611159565b955050602086013567ffffffffffffffff81111561139957611398611936565b5b6113a588828901611159565b945050604086013567ffffffffffffffff8111156113c6576113c5611936565b5b6113d288828901611159565b935050606086013567ffffffffffffffff8111156113f3576113f2611936565b5b6113ff88828901611159565b925050608086013567ffffffffffffffff8111156114205761141f611936565b5b61142c88828901611159565b9150509295509295909350565b600061144583836114d1565b905092915050565b611456816117e8565b82525050565b600061146782611792565b61147181856117b5565b93508360208202850161148385611782565b8060005b858110156114bf57848403895281516114a08582611439565b94506114ab836117a8565b925060208a01995050600181019050611487565b50829750879550505050505092915050565b60006114dc8261179d565b6114e681856117c6565b93506114f6818560208601611833565b6114ff81611940565b840191505092915050565b60006115158261179d565b61151f81856117d7565b935061152f818560208601611833565b61153881611940565b840191505092915050565b600060a083016000830151848203600086015261156082826114d1565b9150506020830151848203602086015261157a82826114d1565b9150506040830151848203604086015261159482826114d1565b915050606083015184820360608601526115ae82826114d1565b915050608083015184820360808601526115c882826114d1565b9150508091505092915050565b600060608301600083015184820360008601526115f2828261145c565b9150506020830151848203602086015261160c828261145c565b91505060408301518482036040860152611626828261145c565b9150508091505092915050565b61163c8161181a565b82525050565b600061012082019050611658600083018c61144d565b818103602083015261166a818b61150a565b9050818103604083015261167e818a61150a565b90508181036060830152611692818961150a565b905081810360808301526116a6818861150a565b90506116b560a0830187611633565b81810360c08301526116c7818661150a565b905081810360e08301526116db8185611543565b90508181036101008301526116f081846115d5565b90509a9950505050505050505050565b600061170a61171b565b90506117168282611898565b919050565b6000604051905090565b600067ffffffffffffffff8211156117405761173f6118f8565b5b602082029050602081019050919050565b600067ffffffffffffffff82111561176c5761176b6118f8565b5b61177582611940565b9050602081019050919050565b6000819050602082019050919050565b600081519050919050565b600081519050919050565b6000602082019050919050565b600082825260208201905092915050565b600082825260208201905092915050565b600082825260208201905092915050565b60006117f3826117fa565b9050919050565b600073ffffffffffffffffffffffffffffffffffffffff82169050919050565b6000819050919050565b82818337600083830152505050565b60005b83811015611851578082015181840152602081019050611836565b83811115611860576000848401525b50505050565b6000600282049050600182168061187e57607f821691505b60208210811415611892576118916118c9565b5b50919050565b6118a182611940565b810181811067ffffffffffffffff821117156118c0576118bf6118f8565b5b80604052505050565b7f4e487b7100000000000000000000000000000000000000000000000000000000600052602260045260246000fd5b7f4e487b7100000000000000000000000000000000000000000000000000000000600052604160045260246000fd5b600080fd5b600080fd5b600080fd5b600080fd5b600080fd5b6000601f19601f8301169050919050565b61195a816117e8565b811461196557600080fd5b5056fea2646970667358221220c0910f0671682bb007cc1834c5afdb26a55cd3b7a4a7939a8922eb44d05f12d864736f6c63430008070033",
					"opcodes": "PUSH1 0x80 PUSH1 0x40 MSTORE CALLVALUE DUP1 ISZERO PUSH2 0x10 JUMPI PUSH1 0x0 DUP1 REVERT JUMPDEST POP PUSH2 0x199E DUP1 PUSH2 0x20 PUSH1 0x0 CODECOPY PUSH1 0x0 RETURN INVALID PUSH1 0x80 PUSH1 0x40 MSTORE CALLVALUE DUP1 ISZERO PUSH2 0x10 JUMPI PUSH1 0x0 DUP1 REVERT JUMPDEST POP PUSH1 0x4 CALLDATASIZE LT PUSH2 0x57 JUMPI PUSH1 0x0 CALLDATALOAD PUSH1 0xE0 SHR DUP1 PUSH4 0x4571F125 EQ PUSH2 0x5C JUMPI DUP1 PUSH4 0x91F2CB9D EQ PUSH2 0x78 JUMPI DUP1 PUSH4 0x9DD9D0FD EQ PUSH2 0x94 JUMPI DUP1 PUSH4 0xD52246D7 EQ PUSH2 0xCC JUMPI DUP1 PUSH4 0xFABCE08F EQ PUSH2 0xE8 JUMPI JUMPDEST PUSH1 0x0 DUP1 REVERT JUMPDEST PUSH2 0x76 PUSH1 0x4 DUP1 CALLDATASIZE SUB DUP2 ADD SWAP1 PUSH2 0x71 SWAP2 SWAP1 PUSH2 0x125B JUMP JUMPDEST PUSH2 0xF2 JUMP JUMPDEST STOP JUMPDEST PUSH2 0x92 PUSH1 0x4 DUP1 CALLDATASIZE SUB DUP2 ADD SWAP1 PUSH2 0x8D SWAP2 SWAP1 PUSH2 0x1332 JUMP JUMPDEST PUSH2 0x316 JUMP JUMPDEST STOP JUMPDEST PUSH2 0xAE PUSH1 0x4 DUP1 CALLDATASIZE SUB DUP2 ADD SWAP1 PUSH2 0xA9 SWAP2 SWAP1 PUSH2 0x1187 JUMP JUMPDEST PUSH2 0x3CF JUMP JUMPDEST PUSH1 0x40 MLOAD PUSH2 0xC3 SWAP10 SWAP9 SWAP8 SWAP7 SWAP6 SWAP5 SWAP4 SWAP3 SWAP2 SWAP1 PUSH2 0x1642 JUMP JUMPDEST PUSH1 0x40 MLOAD DUP1 SWAP2 SUB SWAP1 RETURN JUMPDEST PUSH2 0xE6 PUSH1 0x4 DUP1 CALLDATASIZE SUB DUP2 ADD SWAP1 PUSH2 0xE1 SWAP2 SWAP1 PUSH2 0x11B4 JUMP JUMPDEST PUSH2 0xC5E JUMP JUMPDEST STOP JUMPDEST PUSH2 0xF0 PUSH2 0xD6E JUMP JUMPDEST STOP JUMPDEST DUP4 PUSH1 0x0 DUP1 CALLER PUSH20 0xFFFFFFFFFFFFFFFFFFFFFFFFFFFFFFFFFFFFFFFF AND PUSH20 0xFFFFFFFFFFFFFFFFFFFFFFFFFFFFFFFFFFFFFFFF AND DUP2 MSTORE PUSH1 0x20 ADD SWAP1 DUP2 MSTORE PUSH1 0x20 ADD PUSH1 0x0 KECCAK256 PUSH1 0x1 ADD SWAP1 DUP1 MLOAD SWAP1 PUSH1 0x20 ADD SWAP1 PUSH2 0x147 SWAP3 SWAP2 SWAP1 PUSH2 0xEBE JUMP JUMPDEST POP DUP3 PUSH1 0x0 DUP1 CALLER PUSH20 0xFFFFFFFFFFFFFFFFFFFFFFFFFFFFFFFFFFFFFFFF AND PUSH20 0xFFFFFFFFFFFFFFFFFFFFFFFFFFFFFFFFFFFFFFFF AND DUP2 MSTORE PUSH1 0x20 ADD SWAP1 DUP2 MSTORE PUSH1 0x20 ADD PUSH1 0x0 KECCAK256 PUSH1 0x2 ADD SWAP1 DUP1 MLOAD SWAP1 PUSH1 0x20 ADD SWAP1 PUSH2 0x19D SWAP3 SWAP2 SWAP1 PUSH2 0xEBE JUMP JUMPDEST POP DUP2 PUSH1 0x0 DUP1 CALLER PUSH20 0xFFFFFFFFFFFFFFFFFFFFFFFFFFFFFFFFFFFFFFFF AND PUSH20 0xFFFFFFFFFFFFFFFFFFFFFFFFFFFFFFFFFFFFFFFF AND DUP2 MSTORE PUSH1 0x20 ADD SWAP1 DUP2 MSTORE PUSH1 0x20 ADD PUSH1 0x0 KECCAK256 PUSH1 0x3 ADD SWAP1 DUP1 MLOAD SWAP1 PUSH1 0x20 ADD SWAP1 PUSH2 0x1F3 SWAP3 SWAP2 SWAP1 PUSH2 0xEBE JUMP JUMPDEST POP DUP1 PUSH1 0x0 DUP1 CALLER PUSH20 0xFFFFFFFFFFFFFFFFFFFFFFFFFFFFFFFFFFFFFFFF AND PUSH20 0xFFFFFFFFFFFFFFFFFFFFFFFFFFFFFFFFFFFFFFFF AND DUP2 MSTORE PUSH1 0x20 ADD SWAP1 DUP2 MSTORE PUSH1 0x20 ADD PUSH1 0x0 KECCAK256 PUSH1 0x4 ADD SWAP1 DUP1 MLOAD SWAP1 PUSH1 0x20 ADD SWAP1 PUSH2 0x249 SWAP3 SWAP2 SWAP1 PUSH2 0xEBE JUMP JUMPDEST POP CALLER PUSH1 0x0 DUP1 CALLER PUSH20 0xFFFFFFFFFFFFFFFFFFFFFFFFFFFFFFFFFFFFFFFF AND PUSH20 0xFFFFFFFFFFFFFFFFFFFFFFFFFFFFFFFFFFFFFFFF AND DUP2 MSTORE PUSH1 0x20 ADD SWAP1 DUP2 MSTORE PUSH1 0x20 ADD PUSH1 0x0 KECCAK256 PUSH1 0x0 ADD PUSH1 0x0 PUSH2 0x100 EXP DUP2 SLOAD DUP2 PUSH20 0xFFFFFFFFFFFFFFFFFFFFFFFFFFFFFFFFFFFFFFFF MUL NOT AND SWAP1 DUP4 PUSH20 0xFFFFFFFFFFFFFFFFFFFFFFFFFFFFFFFFFFFFFFFF AND MUL OR SWAP1 SSTORE POP TIMESTAMP PUSH1 0x0 DUP1 CALLER PUSH20 0xFFFFFFFFFFFFFFFFFFFFFFFFFFFFFFFFFFFFFFFF AND PUSH20 0xFFFFFFFFFFFFFFFFFFFFFFFFFFFFFFFFFFFFFFFF AND DUP2 MSTORE PUSH1 0x20 ADD SWAP1 DUP2 MSTORE PUSH1 0x20 ADD PUSH1 0x0 KECCAK256 PUSH1 0x5 ADD DUP2 SWAP1 SSTORE POP POP POP POP POP JUMP JUMPDEST DUP5 PUSH1 0x0 DUP1 CALLER PUSH20 0xFFFFFFFFFFFFFFFFFFFFFFFFFFFFFFFFFFFFFFFF AND PUSH20 0xFFFFFFFFFFFFFFFFFFFFFFFFFFFFFFFFFFFFFFFF AND DUP2 MSTORE PUSH1 0x20 ADD SWAP1 DUP2 MSTORE PUSH1 0x20 ADD PUSH1 0x0 KECCAK256 PUSH1 0x7 ADD PUSH1 0x0 ADD SWAP1 DUP1 MLOAD SWAP1 PUSH1 0x20 ADD SWAP1 PUSH2 0x36E SWAP3 SWAP2 SWAP1 PUSH2 0xEBE JUMP JUMPDEST POP DUP4 PUSH1 0x0 DUP1 CALLER PUSH20 0xFFFFFFFFFFFFFFFFFFFFFFFFFFFFFFFFFFFFFFFF AND PUSH20 0xFFFFFFFFFFFFFFFFFFFFFFFFFFFFFFFFFFFFFFFF AND DUP2 MSTORE PUSH1 0x20 ADD SWAP1 DUP2 MSTORE PUSH1 0x20 ADD PUSH1 0x0 KECCAK256 PUSH1 0x7 ADD PUSH1 0x1 ADD SWAP1 DUP1 MLOAD SWAP1 PUSH1 0x20 ADD SWAP1 PUSH2 0x3C7 SWAP3 SWAP2 SWAP1 PUSH2 0xEBE JUMP JUMPDEST POP POP POP POP POP POP JUMP JUMPDEST PUSH1 0x0 PUSH1 0x20 MSTORE DUP1 PUSH1 0x0 MSTORE PUSH1 0x40 PUSH1 0x0 KECCAK256 PUSH1 0x0 SWAP2 POP SWAP1 POP DUP1 PUSH1 0x0 ADD PUSH1 0x0 SWAP1 SLOAD SWAP1 PUSH2 0x100 EXP SWAP1 DIV PUSH20 0xFFFFFFFFFFFFFFFFFFFFFFFFFFFFFFFFFFFFFFFF AND SWAP1 DUP1 PUSH1 0x1 ADD DUP1 SLOAD PUSH2 0x418 SWAP1 PUSH2 0x1866 JUMP JUMPDEST DUP1 PUSH1 0x1F ADD PUSH1 0x20 DUP1 SWAP2 DIV MUL PUSH1 0x20 ADD PUSH1 0x40 MLOAD SWAP1 DUP2 ADD PUSH1 0x40 MSTORE DUP1 SWAP3 SWAP2 SWAP1 DUP2 DUP2 MSTORE PUSH1 0x20 ADD DUP3 DUP1 SLOAD PUSH2 0x444 SWAP1 PUSH2 0x1866 JUMP JUMPDEST DUP1 ISZERO PUSH2 0x491 JUMPI DUP1 PUSH1 0x1F LT PUSH2 0x466 JUMPI PUSH2 0x100 DUP1 DUP4 SLOAD DIV MUL DUP4 MSTORE SWAP2 PUSH1 0x20 ADD SWAP2 PUSH2 0x491 JUMP JUMPDEST DUP3 ADD SWAP2 SWAP1 PUSH1 0x0 MSTORE PUSH1 0x20 PUSH1 0x0 KECCAK256 SWAP1 JUMPDEST DUP2 SLOAD DUP2 MSTORE SWAP1 PUSH1 0x1 ADD SWAP1 PUSH1 0x20 ADD DUP1 DUP4 GT PUSH2 0x474 JUMPI DUP3 SWAP1 SUB PUSH1 0x1F AND DUP3 ADD SWAP2 JUMPDEST POP POP POP POP POP SWAP1 DUP1 PUSH1 0x2 ADD DUP1 SLOAD PUSH2 0x4A6 SWAP1 PUSH2 0x1866 JUMP JUMPDEST DUP1 PUSH1 0x1F ADD PUSH1 0x20 DUP1 SWAP2 DIV MUL PUSH1 0x20 ADD PUSH1 0x40 MLOAD SWAP1 DUP2 ADD PUSH1 0x40 MSTORE DUP1 SWAP3 SWAP2 SWAP1 DUP2 DUP2 MSTORE PUSH1 0x20 ADD DUP3 DUP1 SLOAD PUSH2 0x4D2 SWAP1 PUSH2 0x1866 JUMP JUMPDEST DUP1 ISZERO PUSH2 0x51F JUMPI DUP1 PUSH1 0x1F LT PUSH2 0x4F4 JUMPI PUSH2 0x100 DUP1 DUP4 SLOAD DIV MUL DUP4 MSTORE SWAP2 PUSH1 0x20 ADD SWAP2 PUSH2 0x51F JUMP JUMPDEST DUP3 ADD SWAP2 SWAP1 PUSH1 0x0 MSTORE PUSH1 0x20 PUSH1 0x0 KECCAK256 SWAP1 JUMPDEST DUP2 SLOAD DUP2 MSTORE SWAP1 PUSH1 0x1 ADD SWAP1 PUSH1 0x20 ADD DUP1 DUP4 GT PUSH2 0x502 JUMPI DUP3 SWAP1 SUB PUSH1 0x1F AND DUP3 ADD SWAP2 JUMPDEST POP POP POP POP POP SWAP1 DUP1 PUSH1 0x3 ADD DUP1 SLOAD PUSH2 0x534 SWAP1 PUSH2 0x1866 JUMP JUMPDEST DUP1 PUSH1 0x1F ADD PUSH1 0x20 DUP1 SWAP2 DIV MUL PUSH1 0x20 ADD PUSH1 0x40 MLOAD SWAP1 DUP2 ADD PUSH1 0x40 MSTORE DUP1 SWAP3 SWAP2 SWAP1 DUP2 DUP2 MSTORE PUSH1 0x20 ADD DUP3 DUP1 SLOAD PUSH2 0x560 SWAP1 PUSH2 0x1866 JUMP JUMPDEST DUP1 ISZERO PUSH2 0x5AD JUMPI DUP1 PUSH1 0x1F LT PUSH2 0x582 JUMPI PUSH2 0x100 DUP1 DUP4 SLOAD DIV MUL DUP4 MSTORE SWAP2 PUSH1 0x20 ADD SWAP2 PUSH2 0x5AD JUMP JUMPDEST DUP3 ADD SWAP2 SWAP1 PUSH1 0x0 MSTORE PUSH1 0x20 PUSH1 0x0 KECCAK256 SWAP1 JUMPDEST DUP2 SLOAD DUP2 MSTORE SWAP1 PUSH1 0x1 ADD SWAP1 PUSH1 0x20 ADD DUP1 DUP4 GT PUSH2 0x590 JUMPI DUP3 SWAP1 SUB PUSH1 0x1F AND DUP3 ADD SWAP2 JUMPDEST POP POP POP POP POP SWAP1 DUP1 PUSH1 0x4 ADD DUP1 SLOAD PUSH2 0x5C2 SWAP1 PUSH2 0x1866 JUMP JUMPDEST DUP1 PUSH1 0x1F ADD PUSH1 0x20 DUP1 SWAP2 DIV MUL PUSH1 0x20 ADD PUSH1 0x40 MLOAD SWAP1 DUP2 ADD PUSH1 0x40 MSTORE DUP1 SWAP3 SWAP2 SWAP1 DUP2 DUP2 MSTORE PUSH1 0x20 ADD DUP3 DUP1 SLOAD PUSH2 0x5EE SWAP1 PUSH2 0x1866 JUMP JUMPDEST DUP1 ISZERO PUSH2 0x63B JUMPI DUP1 PUSH1 0x1F LT PUSH2 0x610 JUMPI PUSH2 0x100 DUP1 DUP4 SLOAD DIV MUL DUP4 MSTORE SWAP2 PUSH1 0x20 ADD SWAP2 PUSH2 0x63B JUMP JUMPDEST DUP3 ADD SWAP2 SWAP1 PUSH1 0x0 MSTORE PUSH1 0x20 PUSH1 0x0 KECCAK256 SWAP1 JUMPDEST DUP2 SLOAD DUP2 MSTORE SWAP1 PUSH1 0x1 ADD SWAP1 PUSH1 0x20 ADD DUP1 DUP4 GT PUSH2 0x61E JUMPI DUP3 SWAP1 SUB PUSH1 0x1F AND DUP3 ADD SWAP2 JUMPDEST POP POP POP POP POP SWAP1 DUP1 PUSH1 0x5 ADD SLOAD SWAP1 DUP1 PUSH1 0x6 ADD DUP1 SLOAD PUSH2 0x656 SWAP1 PUSH2 0x1866 JUMP JUMPDEST DUP1 PUSH1 0x1F ADD PUSH1 0x20 DUP1 SWAP2 DIV MUL PUSH1 0x20 ADD PUSH1 0x40 MLOAD SWAP1 DUP2 ADD PUSH1 0x40 MSTORE DUP1 SWAP3 SWAP2 SWAP1 DUP2 DUP2 MSTORE PUSH1 0x20 ADD DUP3 DUP1 SLOAD PUSH2 0x682 SWAP1 PUSH2 0x1866 JUMP JUMPDEST DUP1 ISZERO PUSH2 0x6CF JUMPI DUP1 PUSH1 0x1F LT PUSH2 0x6A4 JUMPI PUSH2 0x100 DUP1 DUP4 SLOAD DIV MUL DUP4 MSTORE SWAP2 PUSH1 0x20 ADD SWAP2 PUSH2 0x6CF JUMP JUMPDEST DUP3 ADD SWAP2 SWAP1 PUSH1 0x0 MSTORE PUSH1 0x20 PUSH1 0x0 KECCAK256 SWAP1 JUMPDEST DUP2 SLOAD DUP2 MSTORE SWAP1 PUSH1 0x1 ADD SWAP1 PUSH1 0x20 ADD DUP1 DUP4 GT PUSH2 0x6B2 JUMPI DUP3 SWAP1 SUB PUSH1 0x1F AND DUP3 ADD SWAP2 JUMPDEST POP POP POP POP POP SWAP1 DUP1 PUSH1 0x7 ADD PUSH1 0x40 MLOAD DUP1 PUSH1 0xA0 ADD PUSH1 0x40 MSTORE SWAP1 DUP2 PUSH1 0x0 DUP3 ADD DUP1 SLOAD PUSH2 0x6F4 SWAP1 PUSH2 0x1866 JUMP JUMPDEST DUP1 PUSH1 0x1F ADD PUSH1 0x20 DUP1 SWAP2 DIV MUL PUSH1 0x20 ADD PUSH1 0x40 MLOAD SWAP1 DUP2 ADD PUSH1 0x40 MSTORE DUP1 SWAP3 SWAP2 SWAP1 DUP2 DUP2 MSTORE PUSH1 0x20 ADD DUP3 DUP1 SLOAD PUSH2 0x720 SWAP1 PUSH2 0x1866 JUMP JUMPDEST DUP1 ISZERO PUSH2 0x76D JUMPI DUP1 PUSH1 0x1F LT PUSH2 0x742 JUMPI PUSH2 0x100 DUP1 DUP4 SLOAD DIV MUL DUP4 MSTORE SWAP2 PUSH1 0x20 ADD SWAP2 PUSH2 0x76D JUMP JUMPDEST DUP3 ADD SWAP2 SWAP1 PUSH1 0x0 MSTORE PUSH1 0x20 PUSH1 0x0 KECCAK256 SWAP1 JUMPDEST DUP2 SLOAD DUP2 MSTORE SWAP1 PUSH1 0x1 ADD SWAP1 PUSH1 0x20 ADD DUP1 DUP4 GT PUSH2 0x750 JUMPI DUP3 SWAP1 SUB PUSH1 0x1F AND DUP3 ADD SWAP2 JUMPDEST POP POP POP POP POP DUP2 MSTORE PUSH1 0x20 ADD PUSH1 0x1 DUP3 ADD DUP1 SLOAD PUSH2 0x786 SWAP1 PUSH2 0x1866 JUMP JUMPDEST DUP1 PUSH1 0x1F ADD PUSH1 0x20 DUP1 SWAP2 DIV MUL PUSH1 0x20 ADD PUSH1 0x40 MLOAD SWAP1 DUP2 ADD PUSH1 0x40 MSTORE DUP1 SWAP3 SWAP2 SWAP1 DUP2 DUP2 MSTORE PUSH1 0x20 ADD DUP3 DUP1 SLOAD PUSH2 0x7B2 SWAP1 PUSH2 0x1866 JUMP JUMPDEST DUP1 ISZERO PUSH2 0x7FF JUMPI DUP1 PUSH1 0x1F LT PUSH2 0x7D4 JUMPI PUSH2 0x100 DUP1 DUP4 SLOAD DIV MUL DUP4 MSTORE SWAP2 PUSH1 0x20 ADD SWAP2 PUSH2 0x7FF JUMP JUMPDEST DUP3 ADD SWAP2 SWAP1 PUSH1 0x0 MSTORE PUSH1 0x20 PUSH1 0x0 KECCAK256 SWAP1 JUMPDEST DUP2 SLOAD DUP2 MSTORE SWAP1 PUSH1 0x1 ADD SWAP1 PUSH1 0x20 ADD DUP1 DUP4 GT PUSH2 0x7E2 JUMPI DUP3 SWAP1 SUB PUSH1 0x1F AND DUP3 ADD SWAP2 JUMPDEST POP POP POP POP POP DUP2 MSTORE PUSH1 0x20 ADD PUSH1 0x2 DUP3 ADD DUP1 SLOAD PUSH2 0x818 SWAP1 PUSH2 0x1866 JUMP JUMPDEST DUP1 PUSH1 0x1F ADD PUSH1 0x20 DUP1 SWAP2 DIV MUL PUSH1 0x20 ADD PUSH1 0x40 MLOAD SWAP1 DUP2 ADD PUSH1 0x40 MSTORE DUP1 SWAP3 SWAP2 SWAP1 DUP2 DUP2 MSTORE PUSH1 0x20 ADD DUP3 DUP1 SLOAD PUSH2 0x844 SWAP1 PUSH2 0x1866 JUMP JUMPDEST DUP1 ISZERO PUSH2 0x891 JUMPI DUP1 PUSH1 0x1F LT PUSH2 0x866 JUMPI PUSH2 0x100 DUP1 DUP4 SLOAD DIV MUL DUP4 MSTORE SWAP2 PUSH1 0x20 ADD SWAP2 PUSH2 0x891 JUMP JUMPDEST DUP3 ADD SWAP2 SWAP1 PUSH1 0x0 MSTORE PUSH1 0x20 PUSH1 0x0 KECCAK256 SWAP1 JUMPDEST DUP2 SLOAD DUP2 MSTORE SWAP1 PUSH1 0x1 ADD SWAP1 PUSH1 0x20 ADD DUP1 DUP4 GT PUSH2 0x874 JUMPI DUP3 SWAP1 SUB PUSH1 0x1F AND DUP3 ADD SWAP2 JUMPDEST POP POP POP POP POP DUP2 MSTORE PUSH1 0x20 ADD PUSH1 0x3 DUP3 ADD DUP1 SLOAD PUSH2 0x8AA SWAP1 PUSH2 0x1866 JUMP JUMPDEST DUP1 PUSH1 0x1F ADD PUSH1 0x20 DUP1 SWAP2 DIV MUL PUSH1 0x20 ADD PUSH1 0x40 MLOAD SWAP1 DUP2 ADD PUSH1 0x40 MSTORE DUP1 SWAP3 SWAP2 SWAP1 DUP2 DUP2 MSTORE PUSH1 0x20 ADD DUP3 DUP1 SLOAD PUSH2 0x8D6 SWAP1 PUSH2 0x1866 JUMP JUMPDEST DUP1 ISZERO PUSH2 0x923 JUMPI DUP1 PUSH1 0x1F LT PUSH2 0x8F8 JUMPI PUSH2 0x100 DUP1 DUP4 SLOAD DIV MUL DUP4 MSTORE SWAP2 PUSH1 0x20 ADD SWAP2 PUSH2 0x923 JUMP JUMPDEST DUP3 ADD SWAP2 SWAP1 PUSH1 0x0 MSTORE PUSH1 0x20 PUSH1 0x0 KECCAK256 SWAP1 JUMPDEST DUP2 SLOAD DUP2 MSTORE SWAP1 PUSH1 0x1 ADD SWAP1 PUSH1 0x20 ADD DUP1 DUP4 GT PUSH2 0x906 JUMPI DUP3 SWAP1 SUB PUSH1 0x1F AND DUP3 ADD SWAP2 JUMPDEST POP POP POP POP POP DUP2 MSTORE PUSH1 0x20 ADD PUSH1 0x4 DUP3 ADD DUP1 SLOAD PUSH2 0x93C SWAP1 PUSH2 0x1866 JUMP JUMPDEST DUP1 PUSH1 0x1F ADD PUSH1 0x20 DUP1 SWAP2 DIV MUL PUSH1 0x20 ADD PUSH1 0x40 MLOAD SWAP1 DUP2 ADD PUSH1 0x40 MSTORE DUP1 SWAP3 SWAP2 SWAP1 DUP2 DUP2 MSTORE PUSH1 0x20 ADD DUP3 DUP1 SLOAD PUSH2 0x968 SWAP1 PUSH2 0x1866 JUMP JUMPDEST DUP1 ISZERO PUSH2 0x9B5 JUMPI DUP1 PUSH1 0x1F LT PUSH2 0x98A JUMPI PUSH2 0x100 DUP1 DUP4 SLOAD DIV MUL DUP4 MSTORE SWAP2 PUSH1 0x20 ADD SWAP2 PUSH2 0x9B5 JUMP JUMPDEST DUP3 ADD SWAP2 SWAP1 PUSH1 0x0 MSTORE PUSH1 0x20 PUSH1 0x0 KECCAK256 SWAP1 JUMPDEST DUP2 SLOAD DUP2 MSTORE SWAP1 PUSH1 0x1 ADD SWAP1 PUSH1 0x20 ADD DUP1 DUP4 GT PUSH2 0x998 JUMPI DUP3 SWAP1 SUB PUSH1 0x1F AND DUP3 ADD SWAP2 JUMPDEST POP POP POP POP POP DUP2 MSTORE POP POP SWAP1 DUP1 PUSH1 0xC ADD PUSH1 0x40 MLOAD DUP1 PUSH1 0x60 ADD PUSH1 0x40 MSTORE SWAP1 DUP2 PUSH1 0x0 DUP3 ADD DUP1 SLOAD DUP1 PUSH1 0x20 MUL PUSH1 0x20 ADD PUSH1 0x40 MLOAD SWAP1 DUP2 ADD PUSH1 0x40 MSTORE DUP1 SWAP3 SWAP2 SWAP1 DUP2 DUP2 MSTORE PUSH1 0x20 ADD PUSH1 0x0 SWAP1 JUMPDEST DUP3 DUP3 LT ISZERO PUSH2 0xA9F JUMPI DUP4 DUP3 SWAP1 PUSH1 0x0 MSTORE PUSH1 0x20 PUSH1 0x0 KECCAK256 ADD DUP1 SLOAD PUSH2 0xA12 SWAP1 PUSH2 0x1866 JUMP JUMPDEST DUP1 PUSH1 0x1F ADD PUSH1 0x20 DUP1 SWAP2 DIV MUL PUSH1 0x20 ADD PUSH1 0x40 MLOAD SWAP1 DUP2 ADD PUSH1 0x40 MSTORE DUP1 SWAP3 SWAP2 SWAP1 DUP2 DUP2 MSTORE PUSH1 0x20 ADD DUP3 DUP1 SLOAD PUSH2 0xA3E SWAP1 PUSH2 0x1866 JUMP JUMPDEST DUP1 ISZERO PUSH2 0xA8B JUMPI DUP1 PUSH1 0x1F LT PUSH2 0xA60 JUMPI PUSH2 0x100 DUP1 DUP4 SLOAD DIV MUL DUP4 MSTORE SWAP2 PUSH1 0x20 ADD SWAP2 PUSH2 0xA8B JUMP JUMPDEST DUP3 ADD SWAP2 SWAP1 PUSH1 0x0 MSTORE PUSH1 0x20 PUSH1 0x0 KECCAK256 SWAP1 JUMPDEST DUP2 SLOAD DUP2 MSTORE SWAP1 PUSH1 0x1 ADD SWAP1 PUSH1 0x20 ADD DUP1 DUP4 GT PUSH2 0xA6E JUMPI DUP3 SWAP1 SUB PUSH1 0x1F AND DUP3 ADD SWAP2 JUMPDEST POP POP POP POP POP DUP2 MSTORE PUSH1 0x20 ADD SWAP1 PUSH1 0x1 ADD SWAP1 PUSH2 0x9F3 JUMP JUMPDEST POP POP POP POP DUP2 MSTORE PUSH1 0x20 ADD PUSH1 0x1 DUP3 ADD DUP1 SLOAD DUP1 PUSH1 0x20 MUL PUSH1 0x20 ADD PUSH1 0x40 MLOAD SWAP1 DUP2 ADD PUSH1 0x40 MSTORE DUP1 SWAP3 SWAP2 SWAP1 DUP2 DUP2 MSTORE PUSH1 0x20 ADD PUSH1 0x0 SWAP1 JUMPDEST DUP3 DUP3 LT ISZERO PUSH2 0xB78 JUMPI DUP4 DUP3 SWAP1 PUSH1 0x0 MSTORE PUSH1 0x20 PUSH1 0x0 KECCAK256 ADD DUP1 SLOAD PUSH2 0xAEB SWAP1 PUSH2 0x1866 JUMP JUMPDEST DUP1 PUSH1 0x1F ADD PUSH1 0x20 DUP1 SWAP2 DIV MUL PUSH1 0x20 ADD PUSH1 0x40 MLOAD SWAP1 DUP2 ADD PUSH1 0x40 MSTORE DUP1 SWAP3 SWAP2 SWAP1 DUP2 DUP2 MSTORE PUSH1 0x20 ADD DUP3 DUP1 SLOAD PUSH2 0xB17 SWAP1 PUSH2 0x1866 JUMP JUMPDEST DUP1 ISZERO PUSH2 0xB64 JUMPI DUP1 PUSH1 0x1F LT PUSH2 0xB39 JUMPI PUSH2 0x100 DUP1 DUP4 SLOAD DIV MUL DUP4 MSTORE SWAP2 PUSH1 0x20 ADD SWAP2 PUSH2 0xB64 JUMP JUMPDEST DUP3 ADD SWAP2 SWAP1 PUSH1 0x0 MSTORE PUSH1 0x20 PUSH1 0x0 KECCAK256 SWAP1 JUMPDEST DUP2 SLOAD DUP2 MSTORE SWAP1 PUSH1 0x1 ADD SWAP1 PUSH1 0x20 ADD DUP1 DUP4 GT PUSH2 0xB47 JUMPI DUP3 SWAP1 SUB PUSH1 0x1F AND DUP3 ADD SWAP2 JUMPDEST POP POP POP POP POP DUP2 MSTORE PUSH1 0x20 ADD SWAP1 PUSH1 0x1 ADD SWAP1 PUSH2 0xACC JUMP JUMPDEST POP POP POP POP DUP2 MSTORE PUSH1 0x20 ADD PUSH1 0x2 DUP3 ADD DUP1 SLOAD DUP1 PUSH1 0x20 MUL PUSH1 0x20 ADD PUSH1 0x40 MLOAD SWAP1 DUP2 ADD PUSH1 0x40 MSTORE DUP1 SWAP3 SWAP2 SWAP1 DUP2 DUP2 MSTORE PUSH1 0x20 ADD PUSH1 0x0 SWAP1 JUMPDEST DUP3 DUP3 LT ISZERO PUSH2 0xC51 JUMPI DUP4 DUP3 SWAP1 PUSH1 0x0 MSTORE PUSH1 0x20 PUSH1 0x0 KECCAK256 ADD DUP1 SLOAD PUSH2 0xBC4 SWAP1 PUSH2 0x1866 JUMP JUMPDEST DUP1 PUSH1 0x1F ADD PUSH1 0x20 DUP1 SWAP2 DIV MUL PUSH1 0x20 ADD PUSH1 0x40 MLOAD SWAP1 DUP2 ADD PUSH1 0x40 MSTORE DUP1 SWAP3 SWAP2 SWAP1 DUP2 DUP2 MSTORE PUSH1 0x20 ADD DUP3 DUP1 SLOAD PUSH2 0xBF0 SWAP1 PUSH2 0x1866 JUMP JUMPDEST DUP1 ISZERO PUSH2 0xC3D JUMPI DUP1 PUSH1 0x1F LT PUSH2 0xC12 JUMPI PUSH2 0x100 DUP1 DUP4 SLOAD DIV MUL DUP4 MSTORE SWAP2 PUSH1 0x20 ADD SWAP2 PUSH2 0xC3D JUMP JUMPDEST DUP3 ADD SWAP2 SWAP1 PUSH1 0x0 MSTORE PUSH1 0x20 PUSH1 0x0 KECCAK256 SWAP1 JUMPDEST DUP2 SLOAD DUP2 MSTORE SWAP1 PUSH1 0x1 ADD SWAP1 PUSH1 0x20 ADD DUP1 DUP4 GT PUSH2 0xC20 JUMPI DUP3 SWAP1 SUB PUSH1 0x1F AND DUP3 ADD SWAP2 JUMPDEST POP POP POP POP POP DUP2 MSTORE PUSH1 0x20 ADD SWAP1 PUSH1 0x1 ADD SWAP1 PUSH2 0xBA5 JUMP JUMPDEST POP POP POP POP DUP2 MSTORE POP POP SWAP1 POP DUP10 JUMP JUMPDEST DUP3 PUSH1 0x0 DUP1 CALLER PUSH20 0xFFFFFFFFFFFFFFFFFFFFFFFFFFFFFFFFFFFFFFFF AND PUSH20 0xFFFFFFFFFFFFFFFFFFFFFFFFFFFFFFFFFFFFFFFF AND DUP2 MSTORE PUSH1 0x20 ADD SWAP1 DUP2 MSTORE PUSH1 0x20 ADD PUSH1 0x0 KECCAK256 PUSH1 0xC ADD PUSH1 0x0 ADD SWAP1 DUP1 MLOAD SWAP1 PUSH1 0x20 ADD SWAP1 PUSH2 0xCB6 SWAP3 SWAP2 SWAP1 PUSH2 0xF44 JUMP JUMPDEST POP DUP2 PUSH1 0x0 DUP1 CALLER PUSH20 0xFFFFFFFFFFFFFFFFFFFFFFFFFFFFFFFFFFFFFFFF AND PUSH20 0xFFFFFFFFFFFFFFFFFFFFFFFFFFFFFFFFFFFFFFFF AND DUP2 MSTORE PUSH1 0x20 ADD SWAP1 DUP2 MSTORE PUSH1 0x20 ADD PUSH1 0x0 KECCAK256 PUSH1 0xC ADD PUSH1 0x1 ADD SWAP1 DUP1 MLOAD SWAP1 PUSH1 0x20 ADD SWAP1 PUSH2 0xD0F SWAP3 SWAP2 SWAP1 PUSH2 0xF44 JUMP JUMPDEST POP DUP1 PUSH1 0x0 DUP1 CALLER PUSH20 0xFFFFFFFFFFFFFFFFFFFFFFFFFFFFFFFFFFFFFFFF AND PUSH20 0xFFFFFFFFFFFFFFFFFFFFFFFFFFFFFFFFFFFFFFFF AND DUP2 MSTORE PUSH1 0x20 ADD SWAP1 DUP2 MSTORE PUSH1 0x20 ADD PUSH1 0x0 KECCAK256 PUSH1 0xC ADD PUSH1 0x2 ADD SWAP1 DUP1 MLOAD SWAP1 PUSH1 0x20 ADD SWAP1 PUSH2 0xD68 SWAP3 SWAP2 SWAP1 PUSH2 0xF44 JUMP JUMPDEST POP POP POP POP JUMP JUMPDEST PUSH1 0x0 DUP1 CALLER PUSH20 0xFFFFFFFFFFFFFFFFFFFFFFFFFFFFFFFFFFFFFFFF AND PUSH20 0xFFFFFFFFFFFFFFFFFFFFFFFFFFFFFFFFFFFFFFFF AND DUP2 MSTORE PUSH1 0x20 ADD SWAP1 DUP2 MSTORE PUSH1 0x20 ADD PUSH1 0x0 KECCAK256 PUSH1 0x0 DUP1 DUP3 ADD PUSH1 0x0 PUSH2 0x100 EXP DUP2 SLOAD SWAP1 PUSH20 0xFFFFFFFFFFFFFFFFFFFFFFFFFFFFFFFFFFFFFFFF MUL NOT AND SWAP1 SSTORE PUSH1 0x1 DUP3 ADD PUSH1 0x0 PUSH2 0xDE4 SWAP2 SWAP1 PUSH2 0xFA4 JUMP JUMPDEST PUSH1 0x2 DUP3 ADD PUSH1 0x0 PUSH2 0xDF4 SWAP2 SWAP1 PUSH2 0xFA4 JUMP JUMPDEST PUSH1 0x3 DUP3 ADD PUSH1 0x0 PUSH2 0xE04 SWAP2 SWAP1 PUSH2 0xFA4 JUMP JUMPDEST PUSH1 0x4 DUP3 ADD PUSH1 0x0 PUSH2 0xE14 SWAP2 SWAP1 PUSH2 0xFA4 JUMP JUMPDEST PUSH1 0x5 DUP3 ADD PUSH1 0x0 SWAP1 SSTORE PUSH1 0x6 DUP3 ADD PUSH1 0x0 PUSH2 0xE2C SWAP2 SWAP1 PUSH2 0xFA4 JUMP JUMPDEST PUSH1 0x7 DUP3 ADD PUSH1 0x0 DUP1 DUP3 ADD PUSH1 0x0 PUSH2 0xE41 SWAP2 SWAP1 PUSH2 0xFA4 JUMP JUMPDEST PUSH1 0x1 DUP3 ADD PUSH1 0x0 PUSH2 0xE51 SWAP2 SWAP1 PUSH2 0xFA4 JUMP JUMPDEST PUSH1 0x2 DUP3 ADD PUSH1 0x0 PUSH2 0xE61 SWAP2 SWAP1 PUSH2 0xFA4 JUMP JUMPDEST PUSH1 0x3 DUP3 ADD PUSH1 0x0 PUSH2 0xE71 SWAP2 SWAP1 PUSH2 0xFA4 JUMP JUMPDEST PUSH1 0x4 DUP3 ADD PUSH1 0x0 PUSH2 0xE81 SWAP2 SWAP1 PUSH2 0xFA4 JUMP JUMPDEST POP POP PUSH1 0xC DUP3 ADD PUSH1 0x0 DUP1 DUP3 ADD PUSH1 0x0 PUSH2 0xE98 SWAP2 SWAP1 PUSH2 0xFE4 JUMP JUMPDEST PUSH1 0x1 DUP3 ADD PUSH1 0x0 PUSH2 0xEA8 SWAP2 SWAP1 PUSH2 0xFE4 JUMP JUMPDEST PUSH1 0x2 DUP3 ADD PUSH1 0x0 PUSH2 0xEB8 SWAP2 SWAP1 PUSH2 0xFE4 JUMP JUMPDEST POP POP POP POP JUMP JUMPDEST DUP3 DUP1 SLOAD PUSH2 0xECA SWAP1 PUSH2 0x1866 JUMP JUMPDEST SWAP1 PUSH1 0x0 MSTORE PUSH1 0x20 PUSH1 0x0 KECCAK256 SWAP1 PUSH1 0x1F ADD PUSH1 0x20 SWAP1 DIV DUP2 ADD SWAP3 DUP3 PUSH2 0xEEC JUMPI PUSH1 0x0 DUP6 SSTORE PUSH2 0xF33 JUMP JUMPDEST DUP3 PUSH1 0x1F LT PUSH2 0xF05 JUMPI DUP1 MLOAD PUSH1 0xFF NOT AND DUP4 DUP1 ADD OR DUP6 SSTORE PUSH2 0xF33 JUMP JUMPDEST DUP3 DUP1 ADD PUSH1 0x1 ADD DUP6 SSTORE DUP3 ISZERO PUSH2 0xF33 JUMPI SWAP2 DUP3 ADD JUMPDEST DUP3 DUP2 GT ISZERO PUSH2 0xF32 JUMPI DUP3 MLOAD DUP3 SSTORE SWAP2 PUSH1 0x20 ADD SWAP2 SWAP1 PUSH1 0x1 ADD SWAP1 PUSH2 0xF17 JUMP JUMPDEST JUMPDEST POP SWAP1 POP PUSH2 0xF40 SWAP2 SWAP1 PUSH2 0x1005 JUMP JUMPDEST POP SWAP1 JUMP JUMPDEST DUP3 DUP1 SLOAD DUP3 DUP3 SSTORE SWAP1 PUSH1 0x0 MSTORE PUSH1 0x20 PUSH1 0x0 KECCAK256 SWAP1 DUP2 ADD SWAP3 DUP3 ISZERO PUSH2 0xF93 JUMPI SWAP2 PUSH1 0x20 MUL DUP3 ADD JUMPDEST DUP3 DUP2 GT ISZERO PUSH2 0xF92 JUMPI DUP3 MLOAD DUP3 SWAP1 DUP1 MLOAD SWAP1 PUSH1 0x20 ADD SWAP1 PUSH2 0xF82 SWAP3 SWAP2 SWAP1 PUSH2 0xEBE JUMP JUMPDEST POP SWAP2 PUSH1 0x20 ADD SWAP2 SWAP1 PUSH1 0x1 ADD SWAP1 PUSH2 0xF64 JUMP JUMPDEST JUMPDEST POP SWAP1 POP PUSH2 0xFA0 SWAP2 SWAP1 PUSH2 0x1022 JUMP JUMPDEST POP SWAP1 JUMP JUMPDEST POP DUP1 SLOAD PUSH2 0xFB0 SWAP1 PUSH2 0x1866 JUMP JUMPDEST PUSH1 0x0 DUP3 SSTORE DUP1 PUSH1 0x1F LT PUSH2 0xFC2 JUMPI POP PUSH2 0xFE1 JUMP JUMPDEST PUSH1 0x1F ADD PUSH1 0x20 SWAP1 DIV SWAP1 PUSH1 0x0 MSTORE PUSH1 0x20 PUSH1 0x0 KECCAK256 SWAP1 DUP2 ADD SWAP1 PUSH2 0xFE0 SWAP2 SWAP1 PUSH2 0x1005 JUMP JUMPDEST JUMPDEST POP JUMP JUMPDEST POP DUP1 SLOAD PUSH1 0x0 DUP3 SSTORE SWAP1 PUSH1 0x0 MSTORE PUSH1 0x20 PUSH1 0x0 KECCAK256 SWAP1 DUP2 ADD SWAP1 PUSH2 0x1002 SWAP2 SWAP1 PUSH2 0x1022 JUMP JUMPDEST POP JUMP JUMPDEST JUMPDEST DUP1 DUP3 GT ISZERO PUSH2 0x101E JUMPI PUSH1 0x0 DUP2 PUSH1 0x0 SWAP1 SSTORE POP PUSH1 0x1 ADD PUSH2 0x1006 JUMP JUMPDEST POP SWAP1 JUMP JUMPDEST JUMPDEST DUP1 DUP3 GT ISZERO PUSH2 0x1042 JUMPI PUSH1 0x0 DUP2 DUP2 PUSH2 0x1039 SWAP2 SWAP1 PUSH2 0xFA4 JUMP JUMPDEST POP PUSH1 0x1 ADD PUSH2 0x1023 JUMP JUMPDEST POP SWAP1 JUMP JUMPDEST PUSH1 0x0 PUSH2 0x1059 PUSH2 0x1054 DUP5 PUSH2 0x1725 JUMP JUMPDEST PUSH2 0x1700 JUMP JUMPDEST SWAP1 POP DUP1 DUP4 DUP3 MSTORE PUSH1 0x20 DUP3 ADD SWAP1 POP DUP3 DUP6 PUSH1 0x20 DUP7 MUL DUP3 ADD GT ISZERO PUSH2 0x107C JUMPI PUSH2 0x107B PUSH2 0x192C JUMP JUMPDEST JUMPDEST PUSH1 0x0 JUMPDEST DUP6 DUP2 LT ISZERO PUSH2 0x10CA JUMPI DUP2 CALLDATALOAD PUSH8 0xFFFFFFFFFFFFFFFF DUP2 GT ISZERO PUSH2 0x10A2 JUMPI PUSH2 0x10A1 PUSH2 0x1927 JUMP JUMPDEST JUMPDEST DUP1 DUP7 ADD PUSH2 0x10AF DUP10 DUP3 PUSH2 0x1159 JUMP JUMPDEST DUP6 MSTORE PUSH1 0x20 DUP6 ADD SWAP5 POP PUSH1 0x20 DUP5 ADD SWAP4 POP POP POP PUSH1 0x1 DUP2 ADD SWAP1 POP PUSH2 0x107F JUMP JUMPDEST POP POP POP SWAP4 SWAP3 POP POP POP JUMP JUMPDEST PUSH1 0x0 PUSH2 0x10E7 PUSH2 0x10E2 DUP5 PUSH2 0x1751 JUMP JUMPDEST PUSH2 0x1700 JUMP JUMPDEST SWAP1 POP DUP3 DUP2 MSTORE PUSH1 0x20 DUP2 ADD DUP5 DUP5 DUP5 ADD GT ISZERO PUSH2 0x1103 JUMPI PUSH2 0x1102 PUSH2 0x1931 JUMP JUMPDEST JUMPDEST PUSH2 0x110E DUP5 DUP3 DUP6 PUSH2 0x1824 JUMP JUMPDEST POP SWAP4 SWAP3 POP POP POP JUMP JUMPDEST PUSH1 0x0 DUP2 CALLDATALOAD SWAP1 POP PUSH2 0x1125 DUP2 PUSH2 0x1951 JUMP JUMPDEST SWAP3 SWAP2 POP POP JUMP JUMPDEST PUSH1 0x0 DUP3 PUSH1 0x1F DUP4 ADD SLT PUSH2 0x1140 JUMPI PUSH2 0x113F PUSH2 0x1927 JUMP JUMPDEST JUMPDEST DUP2 CALLDATALOAD PUSH2 0x1150 DUP5 DUP3 PUSH1 0x20 DUP7 ADD PUSH2 0x1046 JUMP JUMPDEST SWAP2 POP POP SWAP3 SWAP2 POP POP JUMP JUMPDEST PUSH1 0x0 DUP3 PUSH1 0x1F DUP4 ADD SLT PUSH2 0x116E JUMPI PUSH2 0x116D PUSH2 0x1927 JUMP JUMPDEST JUMPDEST DUP2 CALLDATALOAD PUSH2 0x117E DUP5 DUP3 PUSH1 0x20 DUP7 ADD PUSH2 0x10D4 JUMP JUMPDEST SWAP2 POP POP SWAP3 SWAP2 POP POP JUMP JUMPDEST PUSH1 0x0 PUSH1 0x20 DUP3 DUP5 SUB SLT ISZERO PUSH2 0x119D JUMPI PUSH2 0x119C PUSH2 0x193B JUMP JUMPDEST JUMPDEST PUSH1 0x0 PUSH2 0x11AB DUP5 DUP3 DUP6 ADD PUSH2 0x1116 JUMP JUMPDEST SWAP2 POP POP SWAP3 SWAP2 POP POP JUMP JUMPDEST PUSH1 0x0 DUP1 PUSH1 0x0 PUSH1 0x60 DUP5 DUP7 SUB SLT ISZERO PUSH2 0x11CD JUMPI PUSH2 0x11CC PUSH2 0x193B JUMP JUMPDEST JUMPDEST PUSH1 0x0 DUP5 ADD CALLDATALOAD PUSH8 0xFFFFFFFFFFFFFFFF DUP2 GT ISZERO PUSH2 0x11EB JUMPI PUSH2 0x11EA PUSH2 0x1936 JUMP JUMPDEST JUMPDEST PUSH2 0x11F7 DUP7 DUP3 DUP8 ADD PUSH2 0x112B JUMP JUMPDEST SWAP4 POP POP PUSH1 0x20 DUP5 ADD CALLDATALOAD PUSH8 0xFFFFFFFFFFFFFFFF DUP2 GT ISZERO PUSH2 0x1218 JUMPI PUSH2 0x1217 PUSH2 0x1936 JUMP JUMPDEST JUMPDEST PUSH2 0x1224 DUP7 DUP3 DUP8 ADD PUSH2 0x112B JUMP JUMPDEST SWAP3 POP POP PUSH1 0x40 DUP5 ADD CALLDATALOAD PUSH8 0xFFFFFFFFFFFFFFFF DUP2 GT ISZERO PUSH2 0x1245 JUMPI PUSH2 0x1244 PUSH2 0x1936 JUMP JUMPDEST JUMPDEST PUSH2 0x1251 DUP7 DUP3 DUP8 ADD PUSH2 0x112B JUMP JUMPDEST SWAP2 POP POP SWAP3 POP SWAP3 POP SWAP3 JUMP JUMPDEST PUSH1 0x0 DUP1 PUSH1 0x0 DUP1 PUSH1 0x80 DUP6 DUP8 SUB SLT ISZERO PUSH2 0x1275 JUMPI PUSH2 0x1274 PUSH2 0x193B JUMP JUMPDEST JUMPDEST PUSH1 0x0 DUP6 ADD CALLDATALOAD PUSH8 0xFFFFFFFFFFFFFFFF DUP2 GT ISZERO PUSH2 0x1293 JUMPI PUSH2 0x1292 PUSH2 0x1936 JUMP JUMPDEST JUMPDEST PUSH2 0x129F DUP8 DUP3 DUP9 ADD PUSH2 0x1159 JUMP JUMPDEST SWAP5 POP POP PUSH1 0x20 DUP6 ADD CALLDATALOAD PUSH8 0xFFFFFFFFFFFFFFFF DUP2 GT ISZERO PUSH2 0x12C0 JUMPI PUSH2 0x12BF PUSH2 0x1936 JUMP JUMPDEST JUMPDEST PUSH2 0x12CC DUP8 DUP3 DUP9 ADD PUSH2 0x1159 JUMP JUMPDEST SWAP4 POP POP PUSH1 0x40 DUP6 ADD CALLDATALOAD PUSH8 0xFFFFFFFFFFFFFFFF DUP2 GT ISZERO PUSH2 0x12ED JUMPI PUSH2 0x12EC PUSH2 0x1936 JUMP JUMPDEST JUMPDEST PUSH2 0x12F9 DUP8 DUP3 DUP9 ADD PUSH2 0x1159 JUMP JUMPDEST SWAP3 POP POP PUSH1 0x60 DUP6 ADD CALLDATALOAD PUSH8 0xFFFFFFFFFFFFFFFF DUP2 GT ISZERO PUSH2 0x131A JUMPI PUSH2 0x1319 PUSH2 0x1936 JUMP JUMPDEST JUMPDEST PUSH2 0x1326 DUP8 DUP3 DUP9 ADD PUSH2 0x1159 JUMP JUMPDEST SWAP2 POP POP SWAP3 SWAP6 SWAP2 SWAP5 POP SWAP3 POP JUMP JUMPDEST PUSH1 0x0 DUP1 PUSH1 0x0 DUP1 PUSH1 0x0 PUSH1 0xA0 DUP7 DUP9 SUB SLT ISZERO PUSH2 0x134E JUMPI PUSH2 0x134D PUSH2 0x193B JUMP JUMPDEST JUMPDEST PUSH1 0x0 DUP7 ADD CALLDATALOAD PUSH8 0xFFFFFFFFFFFFFFFF DUP2 GT ISZERO PUSH2 0x136C JUMPI PUSH2 0x136B PUSH2 0x1936 JUMP JUMPDEST JUMPDEST PUSH2 0x1378 DUP9 DUP3 DUP10 ADD PUSH2 0x1159 JUMP JUMPDEST SWAP6 POP POP PUSH1 0x20 DUP7 ADD CALLDATALOAD PUSH8 0xFFFFFFFFFFFFFFFF DUP2 GT ISZERO PUSH2 0x1399 JUMPI PUSH2 0x1398 PUSH2 0x1936 JUMP JUMPDEST JUMPDEST PUSH2 0x13A5 DUP9 DUP3 DUP10 ADD PUSH2 0x1159 JUMP JUMPDEST SWAP5 POP POP PUSH1 0x40 DUP7 ADD CALLDATALOAD PUSH8 0xFFFFFFFFFFFFFFFF DUP2 GT ISZERO PUSH2 0x13C6 JUMPI PUSH2 0x13C5 PUSH2 0x1936 JUMP JUMPDEST JUMPDEST PUSH2 0x13D2 DUP9 DUP3 DUP10 ADD PUSH2 0x1159 JUMP JUMPDEST SWAP4 POP POP PUSH1 0x60 DUP7 ADD CALLDATALOAD PUSH8 0xFFFFFFFFFFFFFFFF DUP2 GT ISZERO PUSH2 0x13F3 JUMPI PUSH2 0x13F2 PUSH2 0x1936 JUMP JUMPDEST JUMPDEST PUSH2 0x13FF DUP9 DUP3 DUP10 ADD PUSH2 0x1159 JUMP JUMPDEST SWAP3 POP POP PUSH1 0x80 DUP7 ADD CALLDATALOAD PUSH8 0xFFFFFFFFFFFFFFFF DUP2 GT ISZERO PUSH2 0x1420 JUMPI PUSH2 0x141F PUSH2 0x1936 JUMP JUMPDEST JUMPDEST PUSH2 0x142C DUP9 DUP3 DUP10 ADD PUSH2 0x1159 JUMP JUMPDEST SWAP2 POP POP SWAP3 SWAP6 POP SWAP3 SWAP6 SWAP1 SWAP4 POP JUMP JUMPDEST PUSH1 0x0 PUSH2 0x1445 DUP4 DUP4 PUSH2 0x14D1 JUMP JUMPDEST SWAP1 POP SWAP3 SWAP2 POP POP JUMP JUMPDEST PUSH2 0x1456 DUP2 PUSH2 0x17E8 JUMP JUMPDEST DUP3 MSTORE POP POP JUMP JUMPDEST PUSH1 0x0 PUSH2 0x1467 DUP3 PUSH2 0x1792 JUMP JUMPDEST PUSH2 0x1471 DUP2 DUP6 PUSH2 0x17B5 JUMP JUMPDEST SWAP4 POP DUP4 PUSH1 0x20 DUP3 MUL DUP6 ADD PUSH2 0x1483 DUP6 PUSH2 0x1782 JUMP JUMPDEST DUP1 PUSH1 0x0 JUMPDEST DUP6 DUP2 LT ISZERO PUSH2 0x14BF JUMPI DUP5 DUP5 SUB DUP10 MSTORE DUP2 MLOAD PUSH2 0x14A0 DUP6 DUP3 PUSH2 0x1439 JUMP JUMPDEST SWAP5 POP PUSH2 0x14AB DUP4 PUSH2 0x17A8 JUMP JUMPDEST SWAP3 POP PUSH1 0x20 DUP11 ADD SWAP10 POP POP PUSH1 0x1 DUP2 ADD SWAP1 POP PUSH2 0x1487 JUMP JUMPDEST POP DUP3 SWAP8 POP DUP8 SWAP6 POP POP POP POP POP POP SWAP3 SWAP2 POP POP JUMP JUMPDEST PUSH1 0x0 PUSH2 0x14DC DUP3 PUSH2 0x179D JUMP JUMPDEST PUSH2 0x14E6 DUP2 DUP6 PUSH2 0x17C6 JUMP JUMPDEST SWAP4 POP PUSH2 0x14F6 DUP2 DUP6 PUSH1 0x20 DUP7 ADD PUSH2 0x1833 JUMP JUMPDEST PUSH2 0x14FF DUP2 PUSH2 0x1940 JUMP JUMPDEST DUP5 ADD SWAP2 POP POP SWAP3 SWAP2 POP POP JUMP JUMPDEST PUSH1 0x0 PUSH2 0x1515 DUP3 PUSH2 0x179D JUMP JUMPDEST PUSH2 0x151F DUP2 DUP6 PUSH2 0x17D7 JUMP JUMPDEST SWAP4 POP PUSH2 0x152F DUP2 DUP6 PUSH1 0x20 DUP7 ADD PUSH2 0x1833 JUMP JUMPDEST PUSH2 0x1538 DUP2 PUSH2 0x1940 JUMP JUMPDEST DUP5 ADD SWAP2 POP POP SWAP3 SWAP2 POP POP JUMP JUMPDEST PUSH1 0x0 PUSH1 0xA0 DUP4 ADD PUSH1 0x0 DUP4 ADD MLOAD DUP5 DUP3 SUB PUSH1 0x0 DUP7 ADD MSTORE PUSH2 0x1560 DUP3 DUP3 PUSH2 0x14D1 JUMP JUMPDEST SWAP2 POP POP PUSH1 0x20 DUP4 ADD MLOAD DUP5 DUP3 SUB PUSH1 0x20 DUP7 ADD MSTORE PUSH2 0x157A DUP3 DUP3 PUSH2 0x14D1 JUMP JUMPDEST SWAP2 POP POP PUSH1 0x40 DUP4 ADD MLOAD DUP5 DUP3 SUB PUSH1 0x40 DUP7 ADD MSTORE PUSH2 0x1594 DUP3 DUP3 PUSH2 0x14D1 JUMP JUMPDEST SWAP2 POP POP PUSH1 0x60 DUP4 ADD MLOAD DUP5 DUP3 SUB PUSH1 0x60 DUP7 ADD MSTORE PUSH2 0x15AE DUP3 DUP3 PUSH2 0x14D1 JUMP JUMPDEST SWAP2 POP POP PUSH1 0x80 DUP4 ADD MLOAD DUP5 DUP3 SUB PUSH1 0x80 DUP7 ADD MSTORE PUSH2 0x15C8 DUP3 DUP3 PUSH2 0x14D1 JUMP JUMPDEST SWAP2 POP POP DUP1 SWAP2 POP POP SWAP3 SWAP2 POP POP JUMP JUMPDEST PUSH1 0x0 PUSH1 0x60 DUP4 ADD PUSH1 0x0 DUP4 ADD MLOAD DUP5 DUP3 SUB PUSH1 0x0 DUP7 ADD MSTORE PUSH2 0x15F2 DUP3 DUP3 PUSH2 0x145C JUMP JUMPDEST SWAP2 POP POP PUSH1 0x20 DUP4 ADD MLOAD DUP5 DUP3 SUB PUSH1 0x20 DUP7 ADD MSTORE PUSH2 0x160C DUP3 DUP3 PUSH2 0x145C JUMP JUMPDEST SWAP2 POP POP PUSH1 0x40 DUP4 ADD MLOAD DUP5 DUP3 SUB PUSH1 0x40 DUP7 ADD MSTORE PUSH2 0x1626 DUP3 DUP3 PUSH2 0x145C JUMP JUMPDEST SWAP2 POP POP DUP1 SWAP2 POP POP SWAP3 SWAP2 POP POP JUMP JUMPDEST PUSH2 0x163C DUP2 PUSH2 0x181A JUMP JUMPDEST DUP3 MSTORE POP POP JUMP JUMPDEST PUSH1 0x0 PUSH2 0x120 DUP3 ADD SWAP1 POP PUSH2 0x1658 PUSH1 0x0 DUP4 ADD DUP13 PUSH2 0x144D JUMP JUMPDEST DUP2 DUP2 SUB PUSH1 0x20 DUP4 ADD MSTORE PUSH2 0x166A DUP2 DUP12 PUSH2 0x150A JUMP JUMPDEST SWAP1 POP DUP2 DUP2 SUB PUSH1 0x40 DUP4 ADD MSTORE PUSH2 0x167E DUP2 DUP11 PUSH2 0x150A JUMP JUMPDEST SWAP1 POP DUP2 DUP2 SUB PUSH1 0x60 DUP4 ADD MSTORE PUSH2 0x1692 DUP2 DUP10 PUSH2 0x150A JUMP JUMPDEST SWAP1 POP DUP2 DUP2 SUB PUSH1 0x80 DUP4 ADD MSTORE PUSH2 0x16A6 DUP2 DUP9 PUSH2 0x150A JUMP JUMPDEST SWAP1 POP PUSH2 0x16B5 PUSH1 0xA0 DUP4 ADD DUP8 PUSH2 0x1633 JUMP JUMPDEST DUP2 DUP2 SUB PUSH1 0xC0 DUP4 ADD MSTORE PUSH2 0x16C7 DUP2 DUP7 PUSH2 0x150A JUMP JUMPDEST SWAP1 POP DUP2 DUP2 SUB PUSH1 0xE0 DUP4 ADD MSTORE PUSH2 0x16DB DUP2 DUP6 PUSH2 0x1543 JUMP JUMPDEST SWAP1 POP DUP2 DUP2 SUB PUSH2 0x100 DUP4 ADD MSTORE PUSH2 0x16F0 DUP2 DUP5 PUSH2 0x15D5 JUMP JUMPDEST SWAP1 POP SWAP11 SWAP10 POP POP POP POP POP POP POP POP POP POP JUMP JUMPDEST PUSH1 0x0 PUSH2 0x170A PUSH2 0x171B JUMP JUMPDEST SWAP1 POP PUSH2 0x1716 DUP3 DUP3 PUSH2 0x1898 JUMP JUMPDEST SWAP2 SWAP1 POP JUMP JUMPDEST PUSH1 0x0 PUSH1 0x40 MLOAD SWAP1 POP SWAP1 JUMP JUMPDEST PUSH1 0x0 PUSH8 0xFFFFFFFFFFFFFFFF DUP3 GT ISZERO PUSH2 0x1740 JUMPI PUSH2 0x173F PUSH2 0x18F8 JUMP JUMPDEST JUMPDEST PUSH1 0x20 DUP3 MUL SWAP1 POP PUSH1 0x20 DUP2 ADD SWAP1 POP SWAP2 SWAP1 POP JUMP JUMPDEST PUSH1 0x0 PUSH8 0xFFFFFFFFFFFFFFFF DUP3 GT ISZERO PUSH2 0x176C JUMPI PUSH2 0x176B PUSH2 0x18F8 JUMP JUMPDEST JUMPDEST PUSH2 0x1775 DUP3 PUSH2 0x1940 JUMP JUMPDEST SWAP1 POP PUSH1 0x20 DUP2 ADD SWAP1 POP SWAP2 SWAP1 POP JUMP JUMPDEST PUSH1 0x0 DUP2 SWAP1 POP PUSH1 0x20 DUP3 ADD SWAP1 POP SWAP2 SWAP1 POP JUMP JUMPDEST PUSH1 0x0 DUP2 MLOAD SWAP1 POP SWAP2 SWAP1 POP JUMP JUMPDEST PUSH1 0x0 DUP2 MLOAD SWAP1 POP SWAP2 SWAP1 POP JUMP JUMPDEST PUSH1 0x0 PUSH1 0x20 DUP3 ADD SWAP1 POP SWAP2 SWAP1 POP JUMP JUMPDEST PUSH1 0x0 DUP3 DUP3 MSTORE PUSH1 0x20 DUP3 ADD SWAP1 POP SWAP3 SWAP2 POP POP JUMP JUMPDEST PUSH1 0x0 DUP3 DUP3 MSTORE PUSH1 0x20 DUP3 ADD SWAP1 POP SWAP3 SWAP2 POP POP JUMP JUMPDEST PUSH1 0x0 DUP3 DUP3 MSTORE PUSH1 0x20 DUP3 ADD SWAP1 POP SWAP3 SWAP2 POP POP JUMP JUMPDEST PUSH1 0x0 PUSH2 0x17F3 DUP3 PUSH2 0x17FA JUMP JUMPDEST SWAP1 POP SWAP2 SWAP1 POP JUMP JUMPDEST PUSH1 0x0 PUSH20 0xFFFFFFFFFFFFFFFFFFFFFFFFFFFFFFFFFFFFFFFF DUP3 AND SWAP1 POP SWAP2 SWAP1 POP JUMP JUMPDEST PUSH1 0x0 DUP2 SWAP1 POP SWAP2 SWAP1 POP JUMP JUMPDEST DUP3 DUP2 DUP4 CALLDATACOPY PUSH1 0x0 DUP4 DUP4 ADD MSTORE POP POP POP JUMP JUMPDEST PUSH1 0x0 JUMPDEST DUP4 DUP2 LT ISZERO PUSH2 0x1851 JUMPI DUP1 DUP3 ADD MLOAD DUP2 DUP5 ADD MSTORE PUSH1 0x20 DUP2 ADD SWAP1 POP PUSH2 0x1836 JUMP JUMPDEST DUP4 DUP2 GT ISZERO PUSH2 0x1860 JUMPI PUSH1 0x0 DUP5 DUP5 ADD MSTORE JUMPDEST POP POP POP POP JUMP JUMPDEST PUSH1 0x0 PUSH1 0x2 DUP3 DIV SWAP1 POP PUSH1 0x1 DUP3 AND DUP1 PUSH2 0x187E JUMPI PUSH1 0x7F DUP3 AND SWAP2 POP JUMPDEST PUSH1 0x20 DUP3 LT DUP2 EQ ISZERO PUSH2 0x1892 JUMPI PUSH2 0x1891 PUSH2 0x18C9 JUMP JUMPDEST JUMPDEST POP SWAP2 SWAP1 POP JUMP JUMPDEST PUSH2 0x18A1 DUP3 PUSH2 0x1940 JUMP JUMPDEST DUP2 ADD DUP2 DUP2 LT PUSH8 0xFFFFFFFFFFFFFFFF DUP3 GT OR ISZERO PUSH2 0x18C0 JUMPI PUSH2 0x18BF PUSH2 0x18F8 JUMP JUMPDEST JUMPDEST DUP1 PUSH1 0x40 MSTORE POP POP POP JUMP JUMPDEST PUSH32 0x4E487B7100000000000000000000000000000000000000000000000000000000 PUSH1 0x0 MSTORE PUSH1 0x22 PUSH1 0x4 MSTORE PUSH1 0x24 PUSH1 0x0 REVERT JUMPDEST PUSH32 0x4E487B7100000000000000000000000000000000000000000000000000000000 PUSH1 0x0 MSTORE PUSH1 0x41 PUSH1 0x4 MSTORE PUSH1 0x24 PUSH1 0x0 REVERT JUMPDEST PUSH1 0x0 DUP1 REVERT JUMPDEST PUSH1 0x0 DUP1 REVERT JUMPDEST PUSH1 0x0 DUP1 REVERT JUMPDEST PUSH1 0x0 DUP1 REVERT JUMPDEST PUSH1 0x0 DUP1 REVERT JUMPDEST PUSH1 0x0 PUSH1 0x1F NOT PUSH1 0x1F DUP4 ADD AND SWAP1 POP SWAP2 SWAP1 POP JUMP JUMPDEST PUSH2 0x195A DUP2 PUSH2 0x17E8 JUMP JUMPDEST DUP2 EQ PUSH2 0x1965 JUMPI PUSH1 0x0 DUP1 REVERT JUMPDEST POP JUMP INVALID LOG2 PUSH5 0x6970667358 0x22 SLT KECCAK256 0xC0 SWAP2 0xF MOD PUSH18 0x682BB007CC1834C5AFDB26A55CD3B7A4A793 SWAP11 DUP10 0x22 0xEB DIFFICULTY 0xD0 0x5F SLT 0xD8 PUSH5 0x736F6C6343 STOP ADDMOD SMOD STOP CALLER "
				},
				"gasEstimates": {
					"creation": {
						"codeDepositCost": "1311600",
						"executionCost": "1363",
						"totalCost": "1312963"
					},
					"external": {
						"addBio(string,string,string,string)": "infinite",
						"addContract(string,string,string,string,string)": "infinite",
						"addSkill(string[],string[],string[])": "infinite",
						"delProfile()": "infinite",
						"profile(address)": "infinite"
					}
				},
				"methodIdentifiers": {
					"addBio(string,string,string,string)": "4571f125",
					"addContract(string,string,string,string,string)": "91f2cb9d",
					"addSkill(string[],string[],string[])": "d52246d7",
					"delProfile()": "fabce08f",
					"profile(address)": "9dd9d0fd"
				}
			},
			"storageLayout": {
				"storage": [
					{
						"astId": 27,
						"contract": "contracts/Profile.sol:Profile",
						"label": "profile",
						"offset": 0,
						"slot": "0",
						"type": "t_mapping(t_address,t_struct(Bio)22_storage)"
					}
				],
				"types": {
					"t_address": {
						"encoding": "inplace",
						"label": "address",
						"numberOfBytes": "20"
					},
					"t_array(t_string_storage)dyn_storage": {
						"base": "t_string_storage",
						"encoding": "dynamic_array",
						"label": "string[]",
						"numberOfBytes": "32"
					},
					"t_mapping(t_address,t_struct(Bio)22_storage)": {
						"encoding": "mapping",
						"key": "t_address",
						"label": "mapping(address => struct Profile.Bio)",
						"numberOfBytes": "32",
						"value": "t_struct(Bio)22_storage"
					},
					"t_string_storage": {
						"encoding": "bytes",
						"label": "string",
						"numberOfBytes": "32"
					},
					"t_struct(Bio)22_storage": {
						"encoding": "inplace",
						"label": "struct Profile.Bio",
						"members": [
							{
								"astId": 3,
								"contract": "contracts/Profile.sol:Profile",
								"label": "userAddress",
								"offset": 0,
								"slot": "0",
								"type": "t_address"
							},
							{
								"astId": 5,
								"contract": "contracts/Profile.sol:Profile",
								"label": "firstName",
								"offset": 0,
								"slot": "1",
								"type": "t_string_storage"
							},
							{
								"astId": 7,
								"contract": "contracts/Profile.sol:Profile",
								"label": "middleName",
								"offset": 0,
								"slot": "2",
								"type": "t_string_storage"
							},
							{
								"astId": 9,
								"contract": "contracts/Profile.sol:Profile",
								"label": "lastName",
								"offset": 0,
								"slot": "3",
								"type": "t_string_storage"
							},
							{
								"astId": 11,
								"contract": "contracts/Profile.sol:Profile",
								"label": "profileImage",
								"offset": 0,
								"slot": "4",
								"type": "t_string_storage"
							},
							{
								"astId": 13,
								"contract": "contracts/Profile.sol:Profile",
								"label": "createDate",
								"offset": 0,
								"slot": "5",
								"type": "t_uint256"
							},
							{
								"astId": 15,
								"contract": "contracts/Profile.sol:Profile",
								"label": "education",
								"offset": 0,
								"slot": "6",
								"type": "t_string_storage"
							},
							{
								"astId": 18,
								"contract": "contracts/Profile.sol:Profile",
								"label": "privateContract",
								"offset": 0,
								"slot": "7",
								"type": "t_struct(Contract)38_storage"
							},
							{
								"astId": 21,
								"contract": "contracts/Profile.sol:Profile",
								"label": "skill",
								"offset": 0,
								"slot": "12",
								"type": "t_struct(Skill)48_storage"
							}
						],
						"numberOfBytes": "480"
					},
					"t_struct(Contract)38_storage": {
						"encoding": "inplace",
						"label": "struct Profile.Contract",
						"members": [
							{
								"astId": 29,
								"contract": "contracts/Profile.sol:Profile",
								"label": "email",
								"offset": 0,
								"slot": "0",
								"type": "t_string_storage"
							},
							{
								"astId": 31,
								"contract": "contracts/Profile.sol:Profile",
								"label": "phone",
								"offset": 0,
								"slot": "1",
								"type": "t_string_storage"
							},
							{
								"astId": 33,
								"contract": "contracts/Profile.sol:Profile",
								"label": "github",
								"offset": 0,
								"slot": "2",
								"type": "t_string_storage"
							},
							{
								"astId": 35,
								"contract": "contracts/Profile.sol:Profile",
								"label": "gitlab",
								"offset": 0,
								"slot": "3",
								"type": "t_string_storage"
							},
							{
								"astId": 37,
								"contract": "contracts/Profile.sol:Profile",
								"label": "linkin",
								"offset": 0,
								"slot": "4",
								"type": "t_string_storage"
							}
						],
						"numberOfBytes": "160"
					},
					"t_struct(Skill)48_storage": {
						"encoding": "inplace",
						"label": "struct Profile.Skill",
						"members": [
							{
								"astId": 41,
								"contract": "contracts/Profile.sol:Profile",
								"label": "frontend",
								"offset": 0,
								"slot": "0",
								"type": "t_array(t_string_storage)dyn_storage"
							},
							{
								"astId": 44,
								"contract": "contracts/Profile.sol:Profile",
								"label": "backend",
								"offset": 0,
								"slot": "1",
								"type": "t_array(t_string_storage)dyn_storage"
							},
							{
								"astId": 47,
								"contract": "contracts/Profile.sol:Profile",
								"label": "framework",
								"offset": 0,
								"slot": "2",
								"type": "t_array(t_string_storage)dyn_storage"
							}
						],
						"numberOfBytes": "96"
					},
					"t_uint256": {
						"encoding": "inplace",
						"label": "uint256",
						"numberOfBytes": "32"
					}
				}
			},
			"userdoc": {
				"kind": "user",
				"methods": {},
				"version": 1
			}
		}
	}
}