{
	"contracts/Profile.sol": {
		"Profile": {
			"abi": [
				{
					"inputs": [],
					"name": "get",
					"outputs": [
						{
							"components": [
								{
									"internalType": "string",
									"name": "id",
									"type": "string"
								},
								{
									"internalType": "uint256",
									"name": "time",
									"type": "uint256"
								}
							],
							"internalType": "struct Profile.Store",
							"name": "",
							"type": "tuple"
						}
					],
					"stateMutability": "view",
					"type": "function"
				},
				{
					"inputs": [
						{
							"internalType": "address",
							"name": "",
							"type": "address"
						}
					],
					"name": "purchases",
					"outputs": [
						{
							"internalType": "string",
							"name": "id",
							"type": "string"
						},
						{
							"internalType": "uint256",
							"name": "time",
							"type": "uint256"
						}
					],
					"stateMutability": "view",
					"type": "function"
				},
				{
					"inputs": [
						{
							"internalType": "string",
							"name": "_id",
							"type": "string"
						},
						{
							"internalType": "uint256",
							"name": "_time",
							"type": "uint256"
						}
					],
					"name": "set",
					"outputs": [
						{
							"internalType": "bool",
							"name": "",
							"type": "bool"
						}
					],
					"stateMutability": "nonpayable",
					"type": "function"
				}
			],
			"devdoc": {
				"kind": "dev",
				"methods": {},
				"version": 1
			},
			"evm": {
				"assembly": "    /* \"contracts/Profile.sol\":64:524  contract Profile {\r... */\n  mstore(0x40, 0x80)\n  callvalue\n  dup1\n  iszero\n  tag_1\n  jumpi\n  0x00\n  dup1\n  revert\ntag_1:\n  pop\n  dataSize(sub_0)\n  dup1\n  dataOffset(sub_0)\n  0x00\n  codecopy\n  0x00\n  return\nstop\n\nsub_0: assembly {\n        /* \"contracts/Profile.sol\":64:524  contract Profile {\r... */\n      mstore(0x40, 0x80)\n      callvalue\n      dup1\n      iszero\n      tag_1\n      jumpi\n      0x00\n      dup1\n      revert\n    tag_1:\n      pop\n      jumpi(tag_2, lt(calldatasize, 0x04))\n      shr(0xe0, calldataload(0x00))\n      dup1\n      0x6d4ce63c\n      eq\n      tag_3\n      jumpi\n      dup1\n      0x842a77d3\n      eq\n      tag_4\n      jumpi\n      dup1\n      0x8a42ebe9\n      eq\n      tag_5\n      jumpi\n    tag_2:\n      0x00\n      dup1\n      revert\n        /* \"contracts/Profile.sol\":419:515  function get() public view returns(Store memory) {\r... */\n    tag_3:\n      tag_6\n      tag_7\n      jump\t// in\n    tag_6:\n      mload(0x40)\n      tag_8\n      swap2\n      swap1\n      tag_9\n      jump\t// in\n    tag_8:\n      mload(0x40)\n      dup1\n      swap2\n      sub\n      swap1\n      return\n        /* \"contracts/Profile.sol\":178:221  mapping (address => Store) public purchases */\n    tag_4:\n      tag_10\n      0x04\n      dup1\n      calldatasize\n      sub\n      dup2\n      add\n      swap1\n      tag_11\n      swap2\n      swap1\n      tag_12\n      jump\t// in\n    tag_11:\n      tag_13\n      jump\t// in\n    tag_10:\n      mload(0x40)\n      tag_14\n      swap3\n      swap2\n      swap1\n      tag_15\n      jump\t// in\n    tag_14:\n      mload(0x40)\n      dup1\n      swap2\n      sub\n      swap1\n      return\n        /* \"contracts/Profile.sol\":230:411  function set(string memory _id, uint _time) public returns(bool) {\r... */\n    tag_5:\n      tag_16\n      0x04\n      dup1\n      calldatasize\n      sub\n      dup2\n      add\n      swap1\n      tag_17\n      swap2\n      swap1\n      tag_18\n      jump\t// in\n    tag_17:\n      tag_19\n      jump\t// in\n    tag_16:\n      mload(0x40)\n      tag_20\n      swap2\n      swap1\n      tag_21\n      jump\t// in\n    tag_20:\n      mload(0x40)\n      dup1\n      swap2\n      sub\n      swap1\n      return\n        /* \"contracts/Profile.sol\":419:515  function get() public view returns(Store memory) {\r... */\n    tag_7:\n        /* \"contracts/Profile.sol\":454:466  Store memory */\n      tag_22\n      tag_23\n      jump\t// in\n    tag_22:\n        /* \"contracts/Profile.sol\":486:495  purchases */\n      0x00\n        /* \"contracts/Profile.sol\":486:507  purchases[msg.sender] */\n      dup1\n        /* \"contracts/Profile.sol\":496:506  msg.sender */\n      caller\n        /* \"contracts/Profile.sol\":486:507  purchases[msg.sender] */\n      0xffffffffffffffffffffffffffffffffffffffff\n      and\n      0xffffffffffffffffffffffffffffffffffffffff\n      and\n      dup2\n      mstore\n      0x20\n      add\n      swap1\n      dup2\n      mstore\n      0x20\n      add\n      0x00\n      keccak256\n        /* \"contracts/Profile.sol\":479:507  return purchases[msg.sender] */\n      mload(0x40)\n      dup1\n      0x40\n      add\n      0x40\n      mstore\n      swap1\n      dup2\n      0x00\n      dup3\n      add\n      dup1\n      sload\n      tag_25\n      swap1\n      tag_26\n      jump\t// in\n    tag_25:\n      dup1\n      0x1f\n      add\n      0x20\n      dup1\n      swap2\n      div\n      mul\n      0x20\n      add\n      mload(0x40)\n      swap1\n      dup2\n      add\n      0x40\n      mstore\n      dup1\n      swap3\n      swap2\n      swap1\n      dup2\n      dup2\n      mstore\n      0x20\n      add\n      dup3\n      dup1\n      sload\n      tag_27\n      swap1\n      tag_26\n      jump\t// in\n    tag_27:\n      dup1\n      iszero\n      tag_28\n      jumpi\n      dup1\n      0x1f\n      lt\n      tag_29\n      jumpi\n      0x0100\n      dup1\n      dup4\n      sload\n      div\n      mul\n      dup4\n      mstore\n      swap2\n      0x20\n      add\n      swap2\n      jump(tag_28)\n    tag_29:\n      dup3\n      add\n      swap2\n      swap1\n      0x00\n      mstore\n      keccak256(0x00, 0x20)\n      swap1\n    tag_30:\n      dup2\n      sload\n      dup2\n      mstore\n      swap1\n      0x01\n      add\n      swap1\n      0x20\n      add\n      dup1\n      dup4\n      gt\n      tag_30\n      jumpi\n      dup3\n      swap1\n      sub\n      0x1f\n      and\n      dup3\n      add\n      swap2\n    tag_28:\n      pop\n      pop\n      pop\n      pop\n      pop\n      dup2\n      mstore\n      0x20\n      add\n      0x01\n      dup3\n      add\n      sload\n      dup2\n      mstore\n      pop\n      pop\n      swap1\n      pop\n        /* \"contracts/Profile.sol\":419:515  function get() public view returns(Store memory) {\r... */\n      swap1\n      jump\t// out\n        /* \"contracts/Profile.sol\":178:221  mapping (address => Store) public purchases */\n    tag_13:\n      mstore(0x20, 0x00)\n      dup1\n      0x00\n      mstore\n      keccak256(0x00, 0x40)\n      0x00\n      swap2\n      pop\n      swap1\n      pop\n      dup1\n      0x00\n      add\n      dup1\n      sload\n      tag_31\n      swap1\n      tag_26\n      jump\t// in\n    tag_31:\n      dup1\n      0x1f\n      add\n      0x20\n      dup1\n      swap2\n      div\n      mul\n      0x20\n      add\n      mload(0x40)\n      swap1\n      dup2\n      add\n      0x40\n      mstore\n      dup1\n      swap3\n      swap2\n      swap1\n      dup2\n      dup2\n      mstore\n      0x20\n      add\n      dup3\n      dup1\n      sload\n      tag_32\n      swap1\n      tag_26\n      jump\t// in\n    tag_32:\n      dup1\n      iszero\n      tag_33\n      jumpi\n      dup1\n      0x1f\n      lt\n      tag_34\n      jumpi\n      0x0100\n      dup1\n      dup4\n      sload\n      div\n      mul\n      dup4\n      mstore\n      swap2\n      0x20\n      add\n      swap2\n      jump(tag_33)\n    tag_34:\n      dup3\n      add\n      swap2\n      swap1\n      0x00\n      mstore\n      keccak256(0x00, 0x20)\n      swap1\n    tag_35:\n      dup2\n      sload\n      dup2\n      mstore\n      swap1\n      0x01\n      add\n      swap1\n      0x20\n      add\n      dup1\n      dup4\n      gt\n      tag_35\n      jumpi\n      dup3\n      swap1\n      sub\n      0x1f\n      and\n      dup3\n      add\n      swap2\n    tag_33:\n      pop\n      pop\n      pop\n      pop\n      pop\n      swap1\n      dup1\n      0x01\n      add\n      sload\n      swap1\n      pop\n      dup3\n      jump\t// out\n        /* \"contracts/Profile.sol\":230:411  function set(string memory _id, uint _time) public returns(bool) {\r... */\n    tag_19:\n        /* \"contracts/Profile.sol\":289:293  bool */\n      0x00\n        /* \"contracts/Profile.sol\":333:336  _id */\n      dup3\n        /* \"contracts/Profile.sol\":306:315  purchases */\n      0x00\n        /* \"contracts/Profile.sol\":306:327  purchases[msg.sender] */\n      dup1\n        /* \"contracts/Profile.sol\":316:326  msg.sender */\n      caller\n        /* \"contracts/Profile.sol\":306:327  purchases[msg.sender] */\n      0xffffffffffffffffffffffffffffffffffffffff\n      and\n      0xffffffffffffffffffffffffffffffffffffffff\n      and\n      dup2\n      mstore\n      0x20\n      add\n      swap1\n      dup2\n      mstore\n      0x20\n      add\n      0x00\n      keccak256\n        /* \"contracts/Profile.sol\":306:330  purchases[msg.sender].id */\n      0x00\n      add\n        /* \"contracts/Profile.sol\":306:336  purchases[msg.sender].id = _id */\n      swap1\n      dup1\n      mload\n      swap1\n      0x20\n      add\n      swap1\n      tag_37\n      swap3\n      swap2\n      swap1\n      tag_38\n      jump\t// in\n    tag_37:\n      pop\n        /* \"contracts/Profile.sol\":376:381  _time */\n      dup2\n        /* \"contracts/Profile.sol\":347:356  purchases */\n      0x00\n        /* \"contracts/Profile.sol\":347:368  purchases[msg.sender] */\n      dup1\n        /* \"contracts/Profile.sol\":357:367  msg.sender */\n      caller\n        /* \"contracts/Profile.sol\":347:368  purchases[msg.sender] */\n      0xffffffffffffffffffffffffffffffffffffffff\n      and\n      0xffffffffffffffffffffffffffffffffffffffff\n      and\n      dup2\n      mstore\n      0x20\n      add\n      swap1\n      dup2\n      mstore\n      0x20\n      add\n      0x00\n      keccak256\n        /* \"contracts/Profile.sol\":347:373  purchases[msg.sender].time */\n      0x01\n      add\n        /* \"contracts/Profile.sol\":347:381  purchases[msg.sender].time = _time */\n      dup2\n      swap1\n      sstore\n      pop\n        /* \"contracts/Profile.sol\":399:403  true */\n      0x01\n        /* \"contracts/Profile.sol\":392:403  return true */\n      swap1\n      pop\n        /* \"contracts/Profile.sol\":230:411  function set(string memory _id, uint _time) public returns(bool) {\r... */\n      swap3\n      swap2\n      pop\n      pop\n      jump\t// out\n    tag_23:\n      mload(0x40)\n      dup1\n      0x40\n      add\n      0x40\n      mstore\n      dup1\n      0x60\n      dup2\n      mstore\n      0x20\n      add\n      0x00\n      dup2\n      mstore\n      pop\n      swap1\n      jump\t// out\n    tag_38:\n      dup3\n      dup1\n      sload\n      tag_39\n      swap1\n      tag_26\n      jump\t// in\n    tag_39:\n      swap1\n      0x00\n      mstore\n      keccak256(0x00, 0x20)\n      swap1\n      0x1f\n      add\n      0x20\n      swap1\n      div\n      dup2\n      add\n      swap3\n      dup3\n      tag_41\n      jumpi\n      0x00\n      dup6\n      sstore\n      jump(tag_40)\n    tag_41:\n      dup3\n      0x1f\n      lt\n      tag_42\n      jumpi\n      dup1\n      mload\n      not(0xff)\n      and\n      dup4\n      dup1\n      add\n      or\n      dup6\n      sstore\n      jump(tag_40)\n    tag_42:\n      dup3\n      dup1\n      add\n      0x01\n      add\n      dup6\n      sstore\n      dup3\n      iszero\n      tag_40\n      jumpi\n      swap2\n      dup3\n      add\n    tag_43:\n      dup3\n      dup2\n      gt\n      iszero\n      tag_44\n      jumpi\n      dup3\n      mload\n      dup3\n      sstore\n      swap2\n      0x20\n      add\n      swap2\n      swap1\n      0x01\n      add\n      swap1\n      jump(tag_43)\n    tag_44:\n    tag_40:\n      pop\n      swap1\n      pop\n      tag_45\n      swap2\n      swap1\n      tag_46\n      jump\t// in\n    tag_45:\n      pop\n      swap1\n      jump\t// out\n    tag_46:\n    tag_47:\n      dup1\n      dup3\n      gt\n      iszero\n      tag_48\n      jumpi\n      0x00\n      dup2\n      0x00\n      swap1\n      sstore\n      pop\n      0x01\n      add\n      jump(tag_47)\n    tag_48:\n      pop\n      swap1\n      jump\t// out\n        /* \"#utility.yul\":7:419   */\n    tag_50:\n        /* \"#utility.yul\":85:90   */\n      0x00\n        /* \"#utility.yul\":110:176   */\n      tag_52\n        /* \"#utility.yul\":126:175   */\n      tag_53\n        /* \"#utility.yul\":168:174   */\n      dup5\n        /* \"#utility.yul\":126:175   */\n      tag_54\n      jump\t// in\n    tag_53:\n        /* \"#utility.yul\":110:176   */\n      tag_55\n      jump\t// in\n    tag_52:\n        /* \"#utility.yul\":101:176   */\n      swap1\n      pop\n        /* \"#utility.yul\":199:205   */\n      dup3\n        /* \"#utility.yul\":192:197   */\n      dup2\n        /* \"#utility.yul\":185:206   */\n      mstore\n        /* \"#utility.yul\":237:241   */\n      0x20\n        /* \"#utility.yul\":230:235   */\n      dup2\n        /* \"#utility.yul\":226:242   */\n      add\n        /* \"#utility.yul\":275:278   */\n      dup5\n        /* \"#utility.yul\":266:272   */\n      dup5\n        /* \"#utility.yul\":261:264   */\n      dup5\n        /* \"#utility.yul\":257:273   */\n      add\n        /* \"#utility.yul\":254:279   */\n      gt\n        /* \"#utility.yul\":251:363   */\n      iszero\n      tag_56\n      jumpi\n        /* \"#utility.yul\":282:361   */\n      tag_57\n      tag_58\n      jump\t// in\n    tag_57:\n        /* \"#utility.yul\":251:363   */\n    tag_56:\n        /* \"#utility.yul\":372:413   */\n      tag_59\n        /* \"#utility.yul\":406:412   */\n      dup5\n        /* \"#utility.yul\":401:404   */\n      dup3\n        /* \"#utility.yul\":396:399   */\n      dup6\n        /* \"#utility.yul\":372:413   */\n      tag_60\n      jump\t// in\n    tag_59:\n        /* \"#utility.yul\":91:419   */\n      pop\n        /* \"#utility.yul\":7:419   */\n      swap4\n      swap3\n      pop\n      pop\n      pop\n      jump\t// out\n        /* \"#utility.yul\":425:564   */\n    tag_61:\n        /* \"#utility.yul\":471:476   */\n      0x00\n        /* \"#utility.yul\":509:515   */\n      dup2\n        /* \"#utility.yul\":496:516   */\n      calldataload\n        /* \"#utility.yul\":487:516   */\n      swap1\n      pop\n        /* \"#utility.yul\":525:558   */\n      tag_63\n        /* \"#utility.yul\":552:557   */\n      dup2\n        /* \"#utility.yul\":525:558   */\n      tag_64\n      jump\t// in\n    tag_63:\n        /* \"#utility.yul\":425:564   */\n      swap3\n      swap2\n      pop\n      pop\n      jump\t// out\n        /* \"#utility.yul\":584:924   */\n    tag_65:\n        /* \"#utility.yul\":640:645   */\n      0x00\n        /* \"#utility.yul\":689:692   */\n      dup3\n        /* \"#utility.yul\":682:686   */\n      0x1f\n        /* \"#utility.yul\":674:680   */\n      dup4\n        /* \"#utility.yul\":670:687   */\n      add\n        /* \"#utility.yul\":666:693   */\n      slt\n        /* \"#utility.yul\":656:778   */\n      tag_67\n      jumpi\n        /* \"#utility.yul\":697:776   */\n      tag_68\n      tag_69\n      jump\t// in\n    tag_68:\n        /* \"#utility.yul\":656:778   */\n    tag_67:\n        /* \"#utility.yul\":814:820   */\n      dup2\n        /* \"#utility.yul\":801:821   */\n      calldataload\n        /* \"#utility.yul\":839:918   */\n      tag_70\n        /* \"#utility.yul\":914:917   */\n      dup5\n        /* \"#utility.yul\":906:912   */\n      dup3\n        /* \"#utility.yul\":899:903   */\n      0x20\n        /* \"#utility.yul\":891:897   */\n      dup7\n        /* \"#utility.yul\":887:904   */\n      add\n        /* \"#utility.yul\":839:918   */\n      tag_50\n      jump\t// in\n    tag_70:\n        /* \"#utility.yul\":830:918   */\n      swap2\n      pop\n        /* \"#utility.yul\":646:924   */\n      pop\n        /* \"#utility.yul\":584:924   */\n      swap3\n      swap2\n      pop\n      pop\n      jump\t// out\n        /* \"#utility.yul\":930:1069   */\n    tag_71:\n        /* \"#utility.yul\":976:981   */\n      0x00\n        /* \"#utility.yul\":1014:1020   */\n      dup2\n        /* \"#utility.yul\":1001:1021   */\n      calldataload\n        /* \"#utility.yul\":992:1021   */\n      swap1\n      pop\n        /* \"#utility.yul\":1030:1063   */\n      tag_73\n        /* \"#utility.yul\":1057:1062   */\n      dup2\n        /* \"#utility.yul\":1030:1063   */\n      tag_74\n      jump\t// in\n    tag_73:\n        /* \"#utility.yul\":930:1069   */\n      swap3\n      swap2\n      pop\n      pop\n      jump\t// out\n        /* \"#utility.yul\":1075:1404   */\n    tag_12:\n        /* \"#utility.yul\":1134:1140   */\n      0x00\n        /* \"#utility.yul\":1183:1185   */\n      0x20\n        /* \"#utility.yul\":1171:1180   */\n      dup3\n        /* \"#utility.yul\":1162:1169   */\n      dup5\n        /* \"#utility.yul\":1158:1181   */\n      sub\n        /* \"#utility.yul\":1154:1186   */\n      slt\n        /* \"#utility.yul\":1151:1270   */\n      iszero\n      tag_76\n      jumpi\n        /* \"#utility.yul\":1189:1268   */\n      tag_77\n      tag_78\n      jump\t// in\n    tag_77:\n        /* \"#utility.yul\":1151:1270   */\n    tag_76:\n        /* \"#utility.yul\":1309:1310   */\n      0x00\n        /* \"#utility.yul\":1334:1387   */\n      tag_79\n        /* \"#utility.yul\":1379:1386   */\n      dup5\n        /* \"#utility.yul\":1370:1376   */\n      dup3\n        /* \"#utility.yul\":1359:1368   */\n      dup6\n        /* \"#utility.yul\":1355:1377   */\n      add\n        /* \"#utility.yul\":1334:1387   */\n      tag_61\n      jump\t// in\n    tag_79:\n        /* \"#utility.yul\":1324:1387   */\n      swap2\n      pop\n        /* \"#utility.yul\":1280:1397   */\n      pop\n        /* \"#utility.yul\":1075:1404   */\n      swap3\n      swap2\n      pop\n      pop\n      jump\t// out\n        /* \"#utility.yul\":1410:2064   */\n    tag_18:\n        /* \"#utility.yul\":1488:1494   */\n      0x00\n        /* \"#utility.yul\":1496:1502   */\n      dup1\n        /* \"#utility.yul\":1545:1547   */\n      0x40\n        /* \"#utility.yul\":1533:1542   */\n      dup4\n        /* \"#utility.yul\":1524:1531   */\n      dup6\n        /* \"#utility.yul\":1520:1543   */\n      sub\n        /* \"#utility.yul\":1516:1548   */\n      slt\n        /* \"#utility.yul\":1513:1632   */\n      iszero\n      tag_81\n      jumpi\n        /* \"#utility.yul\":1551:1630   */\n      tag_82\n      tag_78\n      jump\t// in\n    tag_82:\n        /* \"#utility.yul\":1513:1632   */\n    tag_81:\n        /* \"#utility.yul\":1699:1700   */\n      0x00\n        /* \"#utility.yul\":1688:1697   */\n      dup4\n        /* \"#utility.yul\":1684:1701   */\n      add\n        /* \"#utility.yul\":1671:1702   */\n      calldataload\n        /* \"#utility.yul\":1729:1747   */\n      0xffffffffffffffff\n        /* \"#utility.yul\":1721:1727   */\n      dup2\n        /* \"#utility.yul\":1718:1748   */\n      gt\n        /* \"#utility.yul\":1715:1832   */\n      iszero\n      tag_83\n      jumpi\n        /* \"#utility.yul\":1751:1830   */\n      tag_84\n      tag_85\n      jump\t// in\n    tag_84:\n        /* \"#utility.yul\":1715:1832   */\n    tag_83:\n        /* \"#utility.yul\":1856:1919   */\n      tag_86\n        /* \"#utility.yul\":1911:1918   */\n      dup6\n        /* \"#utility.yul\":1902:1908   */\n      dup3\n        /* \"#utility.yul\":1891:1900   */\n      dup7\n        /* \"#utility.yul\":1887:1909   */\n      add\n        /* \"#utility.yul\":1856:1919   */\n      tag_65\n      jump\t// in\n    tag_86:\n        /* \"#utility.yul\":1846:1919   */\n      swap3\n      pop\n        /* \"#utility.yul\":1642:1929   */\n      pop\n        /* \"#utility.yul\":1968:1970   */\n      0x20\n        /* \"#utility.yul\":1994:2047   */\n      tag_87\n        /* \"#utility.yul\":2039:2046   */\n      dup6\n        /* \"#utility.yul\":2030:2036   */\n      dup3\n        /* \"#utility.yul\":2019:2028   */\n      dup7\n        /* \"#utility.yul\":2015:2037   */\n      add\n        /* \"#utility.yul\":1994:2047   */\n      tag_71\n      jump\t// in\n    tag_87:\n        /* \"#utility.yul\":1984:2047   */\n      swap2\n      pop\n        /* \"#utility.yul\":1939:2057   */\n      pop\n        /* \"#utility.yul\":1410:2064   */\n      swap3\n      pop\n      swap3\n      swap1\n      pop\n      jump\t// out\n        /* \"#utility.yul\":2070:2179   */\n    tag_88:\n        /* \"#utility.yul\":2151:2172   */\n      tag_90\n        /* \"#utility.yul\":2166:2171   */\n      dup2\n        /* \"#utility.yul\":2151:2172   */\n      tag_91\n      jump\t// in\n    tag_90:\n        /* \"#utility.yul\":2146:2149   */\n      dup3\n        /* \"#utility.yul\":2139:2173   */\n      mstore\n        /* \"#utility.yul\":2070:2179   */\n      pop\n      pop\n      jump\t// out\n        /* \"#utility.yul\":2185:2529   */\n    tag_92:\n        /* \"#utility.yul\":2263:2266   */\n      0x00\n        /* \"#utility.yul\":2291:2330   */\n      tag_94\n        /* \"#utility.yul\":2324:2329   */\n      dup3\n        /* \"#utility.yul\":2291:2330   */\n      tag_95\n      jump\t// in\n    tag_94:\n        /* \"#utility.yul\":2346:2407   */\n      tag_96\n        /* \"#utility.yul\":2400:2406   */\n      dup2\n        /* \"#utility.yul\":2395:2398   */\n      dup6\n        /* \"#utility.yul\":2346:2407   */\n      tag_97\n      jump\t// in\n    tag_96:\n        /* \"#utility.yul\":2339:2407   */\n      swap4\n      pop\n        /* \"#utility.yul\":2416:2468   */\n      tag_98\n        /* \"#utility.yul\":2461:2467   */\n      dup2\n        /* \"#utility.yul\":2456:2459   */\n      dup6\n        /* \"#utility.yul\":2449:2453   */\n      0x20\n        /* \"#utility.yul\":2442:2447   */\n      dup7\n        /* \"#utility.yul\":2438:2454   */\n      add\n        /* \"#utility.yul\":2416:2468   */\n      tag_99\n      jump\t// in\n    tag_98:\n        /* \"#utility.yul\":2493:2522   */\n      tag_100\n        /* \"#utility.yul\":2515:2521   */\n      dup2\n        /* \"#utility.yul\":2493:2522   */\n      tag_101\n      jump\t// in\n    tag_100:\n        /* \"#utility.yul\":2488:2491   */\n      dup5\n        /* \"#utility.yul\":2484:2523   */\n      add\n        /* \"#utility.yul\":2477:2523   */\n      swap2\n      pop\n        /* \"#utility.yul\":2267:2529   */\n      pop\n        /* \"#utility.yul\":2185:2529   */\n      swap3\n      swap2\n      pop\n      pop\n      jump\t// out\n        /* \"#utility.yul\":2535:2899   */\n    tag_102:\n        /* \"#utility.yul\":2623:2626   */\n      0x00\n        /* \"#utility.yul\":2651:2690   */\n      tag_104\n        /* \"#utility.yul\":2684:2689   */\n      dup3\n        /* \"#utility.yul\":2651:2690   */\n      tag_95\n      jump\t// in\n    tag_104:\n        /* \"#utility.yul\":2706:2777   */\n      tag_105\n        /* \"#utility.yul\":2770:2776   */\n      dup2\n        /* \"#utility.yul\":2765:2768   */\n      dup6\n        /* \"#utility.yul\":2706:2777   */\n      tag_106\n      jump\t// in\n    tag_105:\n        /* \"#utility.yul\":2699:2777   */\n      swap4\n      pop\n        /* \"#utility.yul\":2786:2838   */\n      tag_107\n        /* \"#utility.yul\":2831:2837   */\n      dup2\n        /* \"#utility.yul\":2826:2829   */\n      dup6\n        /* \"#utility.yul\":2819:2823   */\n      0x20\n        /* \"#utility.yul\":2812:2817   */\n      dup7\n        /* \"#utility.yul\":2808:2824   */\n      add\n        /* \"#utility.yul\":2786:2838   */\n      tag_99\n      jump\t// in\n    tag_107:\n        /* \"#utility.yul\":2863:2892   */\n      tag_108\n        /* \"#utility.yul\":2885:2891   */\n      dup2\n        /* \"#utility.yul\":2863:2892   */\n      tag_101\n      jump\t// in\n    tag_108:\n        /* \"#utility.yul\":2858:2861   */\n      dup5\n        /* \"#utility.yul\":2854:2893   */\n      add\n        /* \"#utility.yul\":2847:2893   */\n      swap2\n      pop\n        /* \"#utility.yul\":2627:2899   */\n      pop\n        /* \"#utility.yul\":2535:2899   */\n      swap3\n      swap2\n      pop\n      pop\n      jump\t// out\n        /* \"#utility.yul\":2957:3551   */\n    tag_109:\n        /* \"#utility.yul\":3066:3069   */\n      0x00\n        /* \"#utility.yul\":3102:3106   */\n      0x40\n        /* \"#utility.yul\":3097:3100   */\n      dup4\n        /* \"#utility.yul\":3093:3107   */\n      add\n        /* \"#utility.yul\":3187:3191   */\n      0x00\n        /* \"#utility.yul\":3180:3185   */\n      dup4\n        /* \"#utility.yul\":3176:3192   */\n      add\n        /* \"#utility.yul\":3170:3193   */\n      mload\n        /* \"#utility.yul\":3240:3243   */\n      dup5\n        /* \"#utility.yul\":3234:3238   */\n      dup3\n        /* \"#utility.yul\":3230:3244   */\n      sub\n        /* \"#utility.yul\":3223:3227   */\n      0x00\n        /* \"#utility.yul\":3218:3221   */\n      dup7\n        /* \"#utility.yul\":3214:3228   */\n      add\n        /* \"#utility.yul\":3207:3245   */\n      mstore\n        /* \"#utility.yul\":3266:3339   */\n      tag_111\n        /* \"#utility.yul\":3334:3338   */\n      dup3\n        /* \"#utility.yul\":3320:3332   */\n      dup3\n        /* \"#utility.yul\":3266:3339   */\n      tag_92\n      jump\t// in\n    tag_111:\n        /* \"#utility.yul\":3258:3339   */\n      swap2\n      pop\n        /* \"#utility.yul\":3117:3350   */\n      pop\n        /* \"#utility.yul\":3432:3436   */\n      0x20\n        /* \"#utility.yul\":3425:3430   */\n      dup4\n        /* \"#utility.yul\":3421:3437   */\n      add\n        /* \"#utility.yul\":3415:3438   */\n      mload\n        /* \"#utility.yul\":3451:3514   */\n      tag_112\n        /* \"#utility.yul\":3508:3512   */\n      0x20\n        /* \"#utility.yul\":3503:3506   */\n      dup7\n        /* \"#utility.yul\":3499:3513   */\n      add\n        /* \"#utility.yul\":3485:3497   */\n      dup3\n        /* \"#utility.yul\":3451:3514   */\n      tag_113\n      jump\t// in\n    tag_112:\n        /* \"#utility.yul\":3360:3524   */\n      pop\n        /* \"#utility.yul\":3541:3545   */\n      dup1\n        /* \"#utility.yul\":3534:3545   */\n      swap2\n      pop\n        /* \"#utility.yul\":3071:3551   */\n      pop\n        /* \"#utility.yul\":2957:3551   */\n      swap3\n      swap2\n      pop\n      pop\n      jump\t// out\n        /* \"#utility.yul\":3557:3665   */\n    tag_113:\n        /* \"#utility.yul\":3634:3658   */\n      tag_115\n        /* \"#utility.yul\":3652:3657   */\n      dup2\n        /* \"#utility.yul\":3634:3658   */\n      tag_116\n      jump\t// in\n    tag_115:\n        /* \"#utility.yul\":3629:3632   */\n      dup3\n        /* \"#utility.yul\":3622:3659   */\n      mstore\n        /* \"#utility.yul\":3557:3665   */\n      pop\n      pop\n      jump\t// out\n        /* \"#utility.yul\":3671:3789   */\n    tag_117:\n        /* \"#utility.yul\":3758:3782   */\n      tag_119\n        /* \"#utility.yul\":3776:3781   */\n      dup2\n        /* \"#utility.yul\":3758:3782   */\n      tag_116\n      jump\t// in\n    tag_119:\n        /* \"#utility.yul\":3753:3756   */\n      dup3\n        /* \"#utility.yul\":3746:3783   */\n      mstore\n        /* \"#utility.yul\":3671:3789   */\n      pop\n      pop\n      jump\t// out\n        /* \"#utility.yul\":3795:4005   */\n    tag_21:\n        /* \"#utility.yul\":3882:3886   */\n      0x00\n        /* \"#utility.yul\":3920:3922   */\n      0x20\n        /* \"#utility.yul\":3909:3918   */\n      dup3\n        /* \"#utility.yul\":3905:3923   */\n      add\n        /* \"#utility.yul\":3897:3923   */\n      swap1\n      pop\n        /* \"#utility.yul\":3933:3998   */\n      tag_121\n        /* \"#utility.yul\":3995:3996   */\n      0x00\n        /* \"#utility.yul\":3984:3993   */\n      dup4\n        /* \"#utility.yul\":3980:3997   */\n      add\n        /* \"#utility.yul\":3971:3977   */\n      dup5\n        /* \"#utility.yul\":3933:3998   */\n      tag_88\n      jump\t// in\n    tag_121:\n        /* \"#utility.yul\":3795:4005   */\n      swap3\n      swap2\n      pop\n      pop\n      jump\t// out\n        /* \"#utility.yul\":4011:4434   */\n    tag_15:\n        /* \"#utility.yul\":4152:4156   */\n      0x00\n        /* \"#utility.yul\":4190:4192   */\n      0x40\n        /* \"#utility.yul\":4179:4188   */\n      dup3\n        /* \"#utility.yul\":4175:4193   */\n      add\n        /* \"#utility.yul\":4167:4193   */\n      swap1\n      pop\n        /* \"#utility.yul\":4239:4248   */\n      dup2\n        /* \"#utility.yul\":4233:4237   */\n      dup2\n        /* \"#utility.yul\":4229:4249   */\n      sub\n        /* \"#utility.yul\":4225:4226   */\n      0x00\n        /* \"#utility.yul\":4214:4223   */\n      dup4\n        /* \"#utility.yul\":4210:4227   */\n      add\n        /* \"#utility.yul\":4203:4250   */\n      mstore\n        /* \"#utility.yul\":4267:4345   */\n      tag_123\n        /* \"#utility.yul\":4340:4344   */\n      dup2\n        /* \"#utility.yul\":4331:4337   */\n      dup6\n        /* \"#utility.yul\":4267:4345   */\n      tag_102\n      jump\t// in\n    tag_123:\n        /* \"#utility.yul\":4259:4345   */\n      swap1\n      pop\n        /* \"#utility.yul\":4355:4427   */\n      tag_124\n        /* \"#utility.yul\":4423:4425   */\n      0x20\n        /* \"#utility.yul\":4412:4421   */\n      dup4\n        /* \"#utility.yul\":4408:4426   */\n      add\n        /* \"#utility.yul\":4399:4405   */\n      dup5\n        /* \"#utility.yul\":4355:4427   */\n      tag_117\n      jump\t// in\n    tag_124:\n        /* \"#utility.yul\":4011:4434   */\n      swap4\n      swap3\n      pop\n      pop\n      pop\n      jump\t// out\n        /* \"#utility.yul\":4440:4793   */\n    tag_9:\n        /* \"#utility.yul\":4573:4577   */\n      0x00\n        /* \"#utility.yul\":4611:4613   */\n      0x20\n        /* \"#utility.yul\":4600:4609   */\n      dup3\n        /* \"#utility.yul\":4596:4614   */\n      add\n        /* \"#utility.yul\":4588:4614   */\n      swap1\n      pop\n        /* \"#utility.yul\":4660:4669   */\n      dup2\n        /* \"#utility.yul\":4654:4658   */\n      dup2\n        /* \"#utility.yul\":4650:4670   */\n      sub\n        /* \"#utility.yul\":4646:4647   */\n      0x00\n        /* \"#utility.yul\":4635:4644   */\n      dup4\n        /* \"#utility.yul\":4631:4648   */\n      add\n        /* \"#utility.yul\":4624:4671   */\n      mstore\n        /* \"#utility.yul\":4688:4786   */\n      tag_126\n        /* \"#utility.yul\":4781:4785   */\n      dup2\n        /* \"#utility.yul\":4772:4778   */\n      dup5\n        /* \"#utility.yul\":4688:4786   */\n      tag_109\n      jump\t// in\n    tag_126:\n        /* \"#utility.yul\":4680:4786   */\n      swap1\n      pop\n        /* \"#utility.yul\":4440:4793   */\n      swap3\n      swap2\n      pop\n      pop\n      jump\t// out\n        /* \"#utility.yul\":4799:4928   */\n    tag_55:\n        /* \"#utility.yul\":4833:4839   */\n      0x00\n        /* \"#utility.yul\":4860:4880   */\n      tag_128\n      tag_129\n      jump\t// in\n    tag_128:\n        /* \"#utility.yul\":4850:4880   */\n      swap1\n      pop\n        /* \"#utility.yul\":4889:4922   */\n      tag_130\n        /* \"#utility.yul\":4917:4921   */\n      dup3\n        /* \"#utility.yul\":4909:4915   */\n      dup3\n        /* \"#utility.yul\":4889:4922   */\n      tag_131\n      jump\t// in\n    tag_130:\n        /* \"#utility.yul\":4799:4928   */\n      swap2\n      swap1\n      pop\n      jump\t// out\n        /* \"#utility.yul\":4934:5009   */\n    tag_129:\n        /* \"#utility.yul\":4967:4973   */\n      0x00\n        /* \"#utility.yul\":5000:5002   */\n      0x40\n        /* \"#utility.yul\":4994:5003   */\n      mload\n        /* \"#utility.yul\":4984:5003   */\n      swap1\n      pop\n        /* \"#utility.yul\":4934:5009   */\n      swap1\n      jump\t// out\n        /* \"#utility.yul\":5015:5323   */\n    tag_54:\n        /* \"#utility.yul\":5077:5081   */\n      0x00\n        /* \"#utility.yul\":5167:5185   */\n      0xffffffffffffffff\n        /* \"#utility.yul\":5159:5165   */\n      dup3\n        /* \"#utility.yul\":5156:5186   */\n      gt\n        /* \"#utility.yul\":5153:5209   */\n      iszero\n      tag_134\n      jumpi\n        /* \"#utility.yul\":5189:5207   */\n      tag_135\n      tag_136\n      jump\t// in\n    tag_135:\n        /* \"#utility.yul\":5153:5209   */\n    tag_134:\n        /* \"#utility.yul\":5227:5256   */\n      tag_137\n        /* \"#utility.yul\":5249:5255   */\n      dup3\n        /* \"#utility.yul\":5227:5256   */\n      tag_101\n      jump\t// in\n    tag_137:\n        /* \"#utility.yul\":5219:5256   */\n      swap1\n      pop\n        /* \"#utility.yul\":5311:5315   */\n      0x20\n        /* \"#utility.yul\":5305:5309   */\n      dup2\n        /* \"#utility.yul\":5301:5316   */\n      add\n        /* \"#utility.yul\":5293:5316   */\n      swap1\n      pop\n        /* \"#utility.yul\":5015:5323   */\n      swap2\n      swap1\n      pop\n      jump\t// out\n        /* \"#utility.yul\":5329:5428   */\n    tag_95:\n        /* \"#utility.yul\":5381:5387   */\n      0x00\n        /* \"#utility.yul\":5415:5420   */\n      dup2\n        /* \"#utility.yul\":5409:5421   */\n      mload\n        /* \"#utility.yul\":5399:5421   */\n      swap1\n      pop\n        /* \"#utility.yul\":5329:5428   */\n      swap2\n      swap1\n      pop\n      jump\t// out\n        /* \"#utility.yul\":5434:5593   */\n    tag_97:\n        /* \"#utility.yul\":5508:5519   */\n      0x00\n        /* \"#utility.yul\":5542:5548   */\n      dup3\n        /* \"#utility.yul\":5537:5540   */\n      dup3\n        /* \"#utility.yul\":5530:5549   */\n      mstore\n        /* \"#utility.yul\":5582:5586   */\n      0x20\n        /* \"#utility.yul\":5577:5580   */\n      dup3\n        /* \"#utility.yul\":5573:5587   */\n      add\n        /* \"#utility.yul\":5558:5587   */\n      swap1\n      pop\n        /* \"#utility.yul\":5434:5593   */\n      swap3\n      swap2\n      pop\n      pop\n      jump\t// out\n        /* \"#utility.yul\":5599:5768   */\n    tag_106:\n        /* \"#utility.yul\":5683:5694   */\n      0x00\n        /* \"#utility.yul\":5717:5723   */\n      dup3\n        /* \"#utility.yul\":5712:5715   */\n      dup3\n        /* \"#utility.yul\":5705:5724   */\n      mstore\n        /* \"#utility.yul\":5757:5761   */\n      0x20\n        /* \"#utility.yul\":5752:5755   */\n      dup3\n        /* \"#utility.yul\":5748:5762   */\n      add\n        /* \"#utility.yul\":5733:5762   */\n      swap1\n      pop\n        /* \"#utility.yul\":5599:5768   */\n      swap3\n      swap2\n      pop\n      pop\n      jump\t// out\n        /* \"#utility.yul\":5774:5870   */\n    tag_141:\n        /* \"#utility.yul\":5811:5818   */\n      0x00\n        /* \"#utility.yul\":5840:5864   */\n      tag_143\n        /* \"#utility.yul\":5858:5863   */\n      dup3\n        /* \"#utility.yul\":5840:5864   */\n      tag_144\n      jump\t// in\n    tag_143:\n        /* \"#utility.yul\":5829:5864   */\n      swap1\n      pop\n        /* \"#utility.yul\":5774:5870   */\n      swap2\n      swap1\n      pop\n      jump\t// out\n        /* \"#utility.yul\":5876:5966   */\n    tag_91:\n        /* \"#utility.yul\":5910:5917   */\n      0x00\n        /* \"#utility.yul\":5953:5958   */\n      dup2\n        /* \"#utility.yul\":5946:5959   */\n      iszero\n        /* \"#utility.yul\":5939:5960   */\n      iszero\n        /* \"#utility.yul\":5928:5960   */\n      swap1\n      pop\n        /* \"#utility.yul\":5876:5966   */\n      swap2\n      swap1\n      pop\n      jump\t// out\n        /* \"#utility.yul\":5972:6098   */\n    tag_144:\n        /* \"#utility.yul\":6009:6016   */\n      0x00\n        /* \"#utility.yul\":6049:6091   */\n      0xffffffffffffffffffffffffffffffffffffffff\n        /* \"#utility.yul\":6042:6047   */\n      dup3\n        /* \"#utility.yul\":6038:6092   */\n      and\n        /* \"#utility.yul\":6027:6092   */\n      swap1\n      pop\n        /* \"#utility.yul\":5972:6098   */\n      swap2\n      swap1\n      pop\n      jump\t// out\n        /* \"#utility.yul\":6104:6181   */\n    tag_116:\n        /* \"#utility.yul\":6141:6148   */\n      0x00\n        /* \"#utility.yul\":6170:6175   */\n      dup2\n        /* \"#utility.yul\":6159:6175   */\n      swap1\n      pop\n        /* \"#utility.yul\":6104:6181   */\n      swap2\n      swap1\n      pop\n      jump\t// out\n        /* \"#utility.yul\":6187:6341   */\n    tag_60:\n        /* \"#utility.yul\":6271:6277   */\n      dup3\n        /* \"#utility.yul\":6266:6269   */\n      dup2\n        /* \"#utility.yul\":6261:6264   */\n      dup4\n        /* \"#utility.yul\":6248:6278   */\n      calldatacopy\n        /* \"#utility.yul\":6333:6334   */\n      0x00\n        /* \"#utility.yul\":6324:6330   */\n      dup4\n        /* \"#utility.yul\":6319:6322   */\n      dup4\n        /* \"#utility.yul\":6315:6331   */\n      add\n        /* \"#utility.yul\":6308:6335   */\n      mstore\n        /* \"#utility.yul\":6187:6341   */\n      pop\n      pop\n      pop\n      jump\t// out\n        /* \"#utility.yul\":6347:6654   */\n    tag_99:\n        /* \"#utility.yul\":6415:6416   */\n      0x00\n        /* \"#utility.yul\":6425:6538   */\n    tag_150:\n        /* \"#utility.yul\":6439:6445   */\n      dup4\n        /* \"#utility.yul\":6436:6437   */\n      dup2\n        /* \"#utility.yul\":6433:6446   */\n      lt\n        /* \"#utility.yul\":6425:6538   */\n      iszero\n      tag_152\n      jumpi\n        /* \"#utility.yul\":6524:6525   */\n      dup1\n        /* \"#utility.yul\":6519:6522   */\n      dup3\n        /* \"#utility.yul\":6515:6526   */\n      add\n        /* \"#utility.yul\":6509:6527   */\n      mload\n        /* \"#utility.yul\":6505:6506   */\n      dup2\n        /* \"#utility.yul\":6500:6503   */\n      dup5\n        /* \"#utility.yul\":6496:6507   */\n      add\n        /* \"#utility.yul\":6489:6528   */\n      mstore\n        /* \"#utility.yul\":6461:6463   */\n      0x20\n        /* \"#utility.yul\":6458:6459   */\n      dup2\n        /* \"#utility.yul\":6454:6464   */\n      add\n        /* \"#utility.yul\":6449:6464   */\n      swap1\n      pop\n        /* \"#utility.yul\":6425:6538   */\n      jump(tag_150)\n    tag_152:\n        /* \"#utility.yul\":6556:6562   */\n      dup4\n        /* \"#utility.yul\":6553:6554   */\n      dup2\n        /* \"#utility.yul\":6550:6563   */\n      gt\n        /* \"#utility.yul\":6547:6648   */\n      iszero\n      tag_153\n      jumpi\n        /* \"#utility.yul\":6636:6637   */\n      0x00\n        /* \"#utility.yul\":6627:6633   */\n      dup5\n        /* \"#utility.yul\":6622:6625   */\n      dup5\n        /* \"#utility.yul\":6618:6634   */\n      add\n        /* \"#utility.yul\":6611:6638   */\n      mstore\n        /* \"#utility.yul\":6547:6648   */\n    tag_153:\n        /* \"#utility.yul\":6396:6654   */\n      pop\n        /* \"#utility.yul\":6347:6654   */\n      pop\n      pop\n      pop\n      jump\t// out\n        /* \"#utility.yul\":6660:6980   */\n    tag_26:\n        /* \"#utility.yul\":6704:6710   */\n      0x00\n        /* \"#utility.yul\":6741:6742   */\n      0x02\n        /* \"#utility.yul\":6735:6739   */\n      dup3\n        /* \"#utility.yul\":6731:6743   */\n      div\n        /* \"#utility.yul\":6721:6743   */\n      swap1\n      pop\n        /* \"#utility.yul\":6788:6789   */\n      0x01\n        /* \"#utility.yul\":6782:6786   */\n      dup3\n        /* \"#utility.yul\":6778:6790   */\n      and\n        /* \"#utility.yul\":6809:6827   */\n      dup1\n        /* \"#utility.yul\":6799:6880   */\n      tag_155\n      jumpi\n        /* \"#utility.yul\":6865:6869   */\n      0x7f\n        /* \"#utility.yul\":6857:6863   */\n      dup3\n        /* \"#utility.yul\":6853:6870   */\n      and\n        /* \"#utility.yul\":6843:6870   */\n      swap2\n      pop\n        /* \"#utility.yul\":6799:6880   */\n    tag_155:\n        /* \"#utility.yul\":6927:6929   */\n      0x20\n        /* \"#utility.yul\":6919:6925   */\n      dup3\n        /* \"#utility.yul\":6916:6930   */\n      lt\n        /* \"#utility.yul\":6896:6914   */\n      dup2\n        /* \"#utility.yul\":6893:6931   */\n      eq\n        /* \"#utility.yul\":6890:6974   */\n      iszero\n      tag_156\n      jumpi\n        /* \"#utility.yul\":6946:6964   */\n      tag_157\n      tag_158\n      jump\t// in\n    tag_157:\n        /* \"#utility.yul\":6890:6974   */\n    tag_156:\n        /* \"#utility.yul\":6711:6980   */\n      pop\n        /* \"#utility.yul\":6660:6980   */\n      swap2\n      swap1\n      pop\n      jump\t// out\n        /* \"#utility.yul\":6986:7267   */\n    tag_131:\n        /* \"#utility.yul\":7069:7096   */\n      tag_160\n        /* \"#utility.yul\":7091:7095   */\n      dup3\n        /* \"#utility.yul\":7069:7096   */\n      tag_101\n      jump\t// in\n    tag_160:\n        /* \"#utility.yul\":7061:7067   */\n      dup2\n        /* \"#utility.yul\":7057:7097   */\n      add\n        /* \"#utility.yul\":7199:7205   */\n      dup2\n        /* \"#utility.yul\":7187:7197   */\n      dup2\n        /* \"#utility.yul\":7184:7206   */\n      lt\n        /* \"#utility.yul\":7163:7181   */\n      0xffffffffffffffff\n        /* \"#utility.yul\":7151:7161   */\n      dup3\n        /* \"#utility.yul\":7148:7182   */\n      gt\n        /* \"#utility.yul\":7145:7207   */\n      or\n        /* \"#utility.yul\":7142:7230   */\n      iszero\n      tag_161\n      jumpi\n        /* \"#utility.yul\":7210:7228   */\n      tag_162\n      tag_136\n      jump\t// in\n    tag_162:\n        /* \"#utility.yul\":7142:7230   */\n    tag_161:\n        /* \"#utility.yul\":7250:7260   */\n      dup1\n        /* \"#utility.yul\":7246:7248   */\n      0x40\n        /* \"#utility.yul\":7239:7261   */\n      mstore\n        /* \"#utility.yul\":7029:7267   */\n      pop\n        /* \"#utility.yul\":6986:7267   */\n      pop\n      pop\n      jump\t// out\n        /* \"#utility.yul\":7273:7453   */\n    tag_158:\n        /* \"#utility.yul\":7321:7398   */\n      0x4e487b7100000000000000000000000000000000000000000000000000000000\n        /* \"#utility.yul\":7318:7319   */\n      0x00\n        /* \"#utility.yul\":7311:7399   */\n      mstore\n        /* \"#utility.yul\":7418:7422   */\n      0x22\n        /* \"#utility.yul\":7415:7416   */\n      0x04\n        /* \"#utility.yul\":7408:7423   */\n      mstore\n        /* \"#utility.yul\":7442:7446   */\n      0x24\n        /* \"#utility.yul\":7439:7440   */\n      0x00\n        /* \"#utility.yul\":7432:7447   */\n      revert\n        /* \"#utility.yul\":7459:7639   */\n    tag_136:\n        /* \"#utility.yul\":7507:7584   */\n      0x4e487b7100000000000000000000000000000000000000000000000000000000\n        /* \"#utility.yul\":7504:7505   */\n      0x00\n        /* \"#utility.yul\":7497:7585   */\n      mstore\n        /* \"#utility.yul\":7604:7608   */\n      0x41\n        /* \"#utility.yul\":7601:7602   */\n      0x04\n        /* \"#utility.yul\":7594:7609   */\n      mstore\n        /* \"#utility.yul\":7628:7632   */\n      0x24\n        /* \"#utility.yul\":7625:7626   */\n      0x00\n        /* \"#utility.yul\":7618:7633   */\n      revert\n        /* \"#utility.yul\":7645:7762   */\n    tag_69:\n        /* \"#utility.yul\":7754:7755   */\n      0x00\n        /* \"#utility.yul\":7751:7752   */\n      dup1\n        /* \"#utility.yul\":7744:7756   */\n      revert\n        /* \"#utility.yul\":7768:7885   */\n    tag_58:\n        /* \"#utility.yul\":7877:7878   */\n      0x00\n        /* \"#utility.yul\":7874:7875   */\n      dup1\n        /* \"#utility.yul\":7867:7879   */\n      revert\n        /* \"#utility.yul\":7891:8008   */\n    tag_85:\n        /* \"#utility.yul\":8000:8001   */\n      0x00\n        /* \"#utility.yul\":7997:7998   */\n      dup1\n        /* \"#utility.yul\":7990:8002   */\n      revert\n        /* \"#utility.yul\":8014:8131   */\n    tag_78:\n        /* \"#utility.yul\":8123:8124   */\n      0x00\n        /* \"#utility.yul\":8120:8121   */\n      dup1\n        /* \"#utility.yul\":8113:8125   */\n      revert\n        /* \"#utility.yul\":8137:8239   */\n    tag_101:\n        /* \"#utility.yul\":8178:8184   */\n      0x00\n        /* \"#utility.yul\":8229:8231   */\n      0x1f\n        /* \"#utility.yul\":8225:8232   */\n      not\n        /* \"#utility.yul\":8220:8222   */\n      0x1f\n        /* \"#utility.yul\":8213:8218   */\n      dup4\n        /* \"#utility.yul\":8209:8223   */\n      add\n        /* \"#utility.yul\":8205:8233   */\n      and\n        /* \"#utility.yul\":8195:8233   */\n      swap1\n      pop\n        /* \"#utility.yul\":8137:8239   */\n      swap2\n      swap1\n      pop\n      jump\t// out\n        /* \"#utility.yul\":8245:8367   */\n    tag_64:\n        /* \"#utility.yul\":8318:8342   */\n      tag_171\n        /* \"#utility.yul\":8336:8341   */\n      dup2\n        /* \"#utility.yul\":8318:8342   */\n      tag_141\n      jump\t// in\n    tag_171:\n        /* \"#utility.yul\":8311:8316   */\n      dup2\n        /* \"#utility.yul\":8308:8343   */\n      eq\n        /* \"#utility.yul\":8298:8361   */\n      tag_172\n      jumpi\n        /* \"#utility.yul\":8357:8358   */\n      0x00\n        /* \"#utility.yul\":8354:8355   */\n      dup1\n        /* \"#utility.yul\":8347:8359   */\n      revert\n        /* \"#utility.yul\":8298:8361   */\n    tag_172:\n        /* \"#utility.yul\":8245:8367   */\n      pop\n      jump\t// out\n        /* \"#utility.yul\":8373:8495   */\n    tag_74:\n        /* \"#utility.yul\":8446:8470   */\n      tag_174\n        /* \"#utility.yul\":8464:8469   */\n      dup2\n        /* \"#utility.yul\":8446:8470   */\n      tag_116\n      jump\t// in\n    tag_174:\n        /* \"#utility.yul\":8439:8444   */\n      dup2\n        /* \"#utility.yul\":8436:8471   */\n      eq\n        /* \"#utility.yul\":8426:8489   */\n      tag_175\n      jumpi\n        /* \"#utility.yul\":8485:8486   */\n      0x00\n        /* \"#utility.yul\":8482:8483   */\n      dup1\n        /* \"#utility.yul\":8475:8487   */\n      revert\n        /* \"#utility.yul\":8426:8489   */\n    tag_175:\n        /* \"#utility.yul\":8373:8495   */\n      pop\n      jump\t// out\n\n    auxdata: 0xa2646970667358221220e76516be54e58aee222bd075107dc65c5430bc35d04f2af3adb46c518481d33e64736f6c63430008070033\n}\n",
				"bytecode": {
					"linkReferences": {},
					"object": "608060405234801561001057600080fd5b5061088b806100206000396000f3fe608060405234801561001057600080fd5b50600436106100415760003560e01c80636d4ce63c14610046578063842a77d3146100645780638a42ebe914610095575b600080fd5b61004e6100c5565b60405161005b9190610612565b60405180910390f35b61007e60048036038101906100799190610462565b6101b7565b60405161008c9291906105e2565b60405180910390f35b6100af60048036038101906100aa919061048f565b610263565b6040516100bc91906105c7565b60405180910390f35b6100cd61030b565b6000803373ffffffffffffffffffffffffffffffffffffffff1673ffffffffffffffffffffffffffffffffffffffff16815260200190815260200160002060405180604001604052908160008201805461012690610741565b80601f016020809104026020016040519081016040528092919081815260200182805461015290610741565b801561019f5780601f106101745761010080835404028352916020019161019f565b820191906000526020600020905b81548152906001019060200180831161018257829003601f168201915b50505050508152602001600182015481525050905090565b60006020528060005260406000206000915090508060000180546101da90610741565b80601f016020809104026020016040519081016040528092919081815260200182805461020690610741565b80156102535780601f1061022857610100808354040283529160200191610253565b820191906000526020600020905b81548152906001019060200180831161023657829003601f168201915b5050505050908060010154905082565b6000826000803373ffffffffffffffffffffffffffffffffffffffff1673ffffffffffffffffffffffffffffffffffffffff16815260200190815260200160002060000190805190602001906102ba929190610325565b50816000803373ffffffffffffffffffffffffffffffffffffffff1673ffffffffffffffffffffffffffffffffffffffff168152602001908152602001600020600101819055506001905092915050565b604051806040016040528060608152602001600081525090565b82805461033190610741565b90600052602060002090601f016020900481019282610353576000855561039a565b82601f1061036c57805160ff191683800117855561039a565b8280016001018555821561039a579182015b8281111561039957825182559160200191906001019061037e565b5b5090506103a791906103ab565b5090565b5b808211156103c45760008160009055506001016103ac565b5090565b60006103db6103d684610659565b610634565b9050828152602081018484840111156103f7576103f6610807565b5b6104028482856106ff565b509392505050565b60008135905061041981610827565b92915050565b600082601f83011261043457610433610802565b5b81356104448482602086016103c8565b91505092915050565b60008135905061045c8161083e565b92915050565b60006020828403121561047857610477610811565b5b60006104868482850161040a565b91505092915050565b600080604083850312156104a6576104a5610811565b5b600083013567ffffffffffffffff8111156104c4576104c361080c565b5b6104d08582860161041f565b92505060206104e18582860161044d565b9150509250929050565b6104f4816106c9565b82525050565b60006105058261068a565b61050f8185610695565b935061051f81856020860161070e565b61052881610816565b840191505092915050565b600061053e8261068a565b61054881856106a6565b935061055881856020860161070e565b61056181610816565b840191505092915050565b6000604083016000830151848203600086015261058982826104fa565b915050602083015161059e60208601826105a9565b508091505092915050565b6105b2816106f5565b82525050565b6105c1816106f5565b82525050565b60006020820190506105dc60008301846104eb565b92915050565b600060408201905081810360008301526105fc8185610533565b905061060b60208301846105b8565b9392505050565b6000602082019050818103600083015261062c818461056c565b905092915050565b600061063e61064f565b905061064a8282610773565b919050565b6000604051905090565b600067ffffffffffffffff821115610674576106736107d3565b5b61067d82610816565b9050602081019050919050565b600081519050919050565b600082825260208201905092915050565b600082825260208201905092915050565b60006106c2826106d5565b9050919050565b60008115159050919050565b600073ffffffffffffffffffffffffffffffffffffffff82169050919050565b6000819050919050565b82818337600083830152505050565b60005b8381101561072c578082015181840152602081019050610711565b8381111561073b576000848401525b50505050565b6000600282049050600182168061075957607f821691505b6020821081141561076d5761076c6107a4565b5b50919050565b61077c82610816565b810181811067ffffffffffffffff8211171561079b5761079a6107d3565b5b80604052505050565b7f4e487b7100000000000000000000000000000000000000000000000000000000600052602260045260246000fd5b7f4e487b7100000000000000000000000000000000000000000000000000000000600052604160045260246000fd5b600080fd5b600080fd5b600080fd5b600080fd5b6000601f19601f8301169050919050565b610830816106b7565b811461083b57600080fd5b50565b610847816106f5565b811461085257600080fd5b5056fea2646970667358221220e76516be54e58aee222bd075107dc65c5430bc35d04f2af3adb46c518481d33e64736f6c63430008070033",
					"opcodes": "PUSH1 0x80 PUSH1 0x40 MSTORE CALLVALUE DUP1 ISZERO PUSH2 0x10 JUMPI PUSH1 0x0 DUP1 REVERT JUMPDEST POP PUSH2 0x88B DUP1 PUSH2 0x20 PUSH1 0x0 CODECOPY PUSH1 0x0 RETURN INVALID PUSH1 0x80 PUSH1 0x40 MSTORE CALLVALUE DUP1 ISZERO PUSH2 0x10 JUMPI PUSH1 0x0 DUP1 REVERT JUMPDEST POP PUSH1 0x4 CALLDATASIZE LT PUSH2 0x41 JUMPI PUSH1 0x0 CALLDATALOAD PUSH1 0xE0 SHR DUP1 PUSH4 0x6D4CE63C EQ PUSH2 0x46 JUMPI DUP1 PUSH4 0x842A77D3 EQ PUSH2 0x64 JUMPI DUP1 PUSH4 0x8A42EBE9 EQ PUSH2 0x95 JUMPI JUMPDEST PUSH1 0x0 DUP1 REVERT JUMPDEST PUSH2 0x4E PUSH2 0xC5 JUMP JUMPDEST PUSH1 0x40 MLOAD PUSH2 0x5B SWAP2 SWAP1 PUSH2 0x612 JUMP JUMPDEST PUSH1 0x40 MLOAD DUP1 SWAP2 SUB SWAP1 RETURN JUMPDEST PUSH2 0x7E PUSH1 0x4 DUP1 CALLDATASIZE SUB DUP2 ADD SWAP1 PUSH2 0x79 SWAP2 SWAP1 PUSH2 0x462 JUMP JUMPDEST PUSH2 0x1B7 JUMP JUMPDEST PUSH1 0x40 MLOAD PUSH2 0x8C SWAP3 SWAP2 SWAP1 PUSH2 0x5E2 JUMP JUMPDEST PUSH1 0x40 MLOAD DUP1 SWAP2 SUB SWAP1 RETURN JUMPDEST PUSH2 0xAF PUSH1 0x4 DUP1 CALLDATASIZE SUB DUP2 ADD SWAP1 PUSH2 0xAA SWAP2 SWAP1 PUSH2 0x48F JUMP JUMPDEST PUSH2 0x263 JUMP JUMPDEST PUSH1 0x40 MLOAD PUSH2 0xBC SWAP2 SWAP1 PUSH2 0x5C7 JUMP JUMPDEST PUSH1 0x40 MLOAD DUP1 SWAP2 SUB SWAP1 RETURN JUMPDEST PUSH2 0xCD PUSH2 0x30B JUMP JUMPDEST PUSH1 0x0 DUP1 CALLER PUSH20 0xFFFFFFFFFFFFFFFFFFFFFFFFFFFFFFFFFFFFFFFF AND PUSH20 0xFFFFFFFFFFFFFFFFFFFFFFFFFFFFFFFFFFFFFFFF AND DUP2 MSTORE PUSH1 0x20 ADD SWAP1 DUP2 MSTORE PUSH1 0x20 ADD PUSH1 0x0 KECCAK256 PUSH1 0x40 MLOAD DUP1 PUSH1 0x40 ADD PUSH1 0x40 MSTORE SWAP1 DUP2 PUSH1 0x0 DUP3 ADD DUP1 SLOAD PUSH2 0x126 SWAP1 PUSH2 0x741 JUMP JUMPDEST DUP1 PUSH1 0x1F ADD PUSH1 0x20 DUP1 SWAP2 DIV MUL PUSH1 0x20 ADD PUSH1 0x40 MLOAD SWAP1 DUP2 ADD PUSH1 0x40 MSTORE DUP1 SWAP3 SWAP2 SWAP1 DUP2 DUP2 MSTORE PUSH1 0x20 ADD DUP3 DUP1 SLOAD PUSH2 0x152 SWAP1 PUSH2 0x741 JUMP JUMPDEST DUP1 ISZERO PUSH2 0x19F JUMPI DUP1 PUSH1 0x1F LT PUSH2 0x174 JUMPI PUSH2 0x100 DUP1 DUP4 SLOAD DIV MUL DUP4 MSTORE SWAP2 PUSH1 0x20 ADD SWAP2 PUSH2 0x19F JUMP JUMPDEST DUP3 ADD SWAP2 SWAP1 PUSH1 0x0 MSTORE PUSH1 0x20 PUSH1 0x0 KECCAK256 SWAP1 JUMPDEST DUP2 SLOAD DUP2 MSTORE SWAP1 PUSH1 0x1 ADD SWAP1 PUSH1 0x20 ADD DUP1 DUP4 GT PUSH2 0x182 JUMPI DUP3 SWAP1 SUB PUSH1 0x1F AND DUP3 ADD SWAP2 JUMPDEST POP POP POP POP POP DUP2 MSTORE PUSH1 0x20 ADD PUSH1 0x1 DUP3 ADD SLOAD DUP2 MSTORE POP POP SWAP1 POP SWAP1 JUMP JUMPDEST PUSH1 0x0 PUSH1 0x20 MSTORE DUP1 PUSH1 0x0 MSTORE PUSH1 0x40 PUSH1 0x0 KECCAK256 PUSH1 0x0 SWAP2 POP SWAP1 POP DUP1 PUSH1 0x0 ADD DUP1 SLOAD PUSH2 0x1DA SWAP1 PUSH2 0x741 JUMP JUMPDEST DUP1 PUSH1 0x1F ADD PUSH1 0x20 DUP1 SWAP2 DIV MUL PUSH1 0x20 ADD PUSH1 0x40 MLOAD SWAP1 DUP2 ADD PUSH1 0x40 MSTORE DUP1 SWAP3 SWAP2 SWAP1 DUP2 DUP2 MSTORE PUSH1 0x20 ADD DUP3 DUP1 SLOAD PUSH2 0x206 SWAP1 PUSH2 0x741 JUMP JUMPDEST DUP1 ISZERO PUSH2 0x253 JUMPI DUP1 PUSH1 0x1F LT PUSH2 0x228 JUMPI PUSH2 0x100 DUP1 DUP4 SLOAD DIV MUL DUP4 MSTORE SWAP2 PUSH1 0x20 ADD SWAP2 PUSH2 0x253 JUMP JUMPDEST DUP3 ADD SWAP2 SWAP1 PUSH1 0x0 MSTORE PUSH1 0x20 PUSH1 0x0 KECCAK256 SWAP1 JUMPDEST DUP2 SLOAD DUP2 MSTORE SWAP1 PUSH1 0x1 ADD SWAP1 PUSH1 0x20 ADD DUP1 DUP4 GT PUSH2 0x236 JUMPI DUP3 SWAP1 SUB PUSH1 0x1F AND DUP3 ADD SWAP2 JUMPDEST POP POP POP POP POP SWAP1 DUP1 PUSH1 0x1 ADD SLOAD SWAP1 POP DUP3 JUMP JUMPDEST PUSH1 0x0 DUP3 PUSH1 0x0 DUP1 CALLER PUSH20 0xFFFFFFFFFFFFFFFFFFFFFFFFFFFFFFFFFFFFFFFF AND PUSH20 0xFFFFFFFFFFFFFFFFFFFFFFFFFFFFFFFFFFFFFFFF AND DUP2 MSTORE PUSH1 0x20 ADD SWAP1 DUP2 MSTORE PUSH1 0x20 ADD PUSH1 0x0 KECCAK256 PUSH1 0x0 ADD SWAP1 DUP1 MLOAD SWAP1 PUSH1 0x20 ADD SWAP1 PUSH2 0x2BA SWAP3 SWAP2 SWAP1 PUSH2 0x325 JUMP JUMPDEST POP DUP2 PUSH1 0x0 DUP1 CALLER PUSH20 0xFFFFFFFFFFFFFFFFFFFFFFFFFFFFFFFFFFFFFFFF AND PUSH20 0xFFFFFFFFFFFFFFFFFFFFFFFFFFFFFFFFFFFFFFFF AND DUP2 MSTORE PUSH1 0x20 ADD SWAP1 DUP2 MSTORE PUSH1 0x20 ADD PUSH1 0x0 KECCAK256 PUSH1 0x1 ADD DUP2 SWAP1 SSTORE POP PUSH1 0x1 SWAP1 POP SWAP3 SWAP2 POP POP JUMP JUMPDEST PUSH1 0x40 MLOAD DUP1 PUSH1 0x40 ADD PUSH1 0x40 MSTORE DUP1 PUSH1 0x60 DUP2 MSTORE PUSH1 0x20 ADD PUSH1 0x0 DUP2 MSTORE POP SWAP1 JUMP JUMPDEST DUP3 DUP1 SLOAD PUSH2 0x331 SWAP1 PUSH2 0x741 JUMP JUMPDEST SWAP1 PUSH1 0x0 MSTORE PUSH1 0x20 PUSH1 0x0 KECCAK256 SWAP1 PUSH1 0x1F ADD PUSH1 0x20 SWAP1 DIV DUP2 ADD SWAP3 DUP3 PUSH2 0x353 JUMPI PUSH1 0x0 DUP6 SSTORE PUSH2 0x39A JUMP JUMPDEST DUP3 PUSH1 0x1F LT PUSH2 0x36C JUMPI DUP1 MLOAD PUSH1 0xFF NOT AND DUP4 DUP1 ADD OR DUP6 SSTORE PUSH2 0x39A JUMP JUMPDEST DUP3 DUP1 ADD PUSH1 0x1 ADD DUP6 SSTORE DUP3 ISZERO PUSH2 0x39A JUMPI SWAP2 DUP3 ADD JUMPDEST DUP3 DUP2 GT ISZERO PUSH2 0x399 JUMPI DUP3 MLOAD DUP3 SSTORE SWAP2 PUSH1 0x20 ADD SWAP2 SWAP1 PUSH1 0x1 ADD SWAP1 PUSH2 0x37E JUMP JUMPDEST JUMPDEST POP SWAP1 POP PUSH2 0x3A7 SWAP2 SWAP1 PUSH2 0x3AB JUMP JUMPDEST POP SWAP1 JUMP JUMPDEST JUMPDEST DUP1 DUP3 GT ISZERO PUSH2 0x3C4 JUMPI PUSH1 0x0 DUP2 PUSH1 0x0 SWAP1 SSTORE POP PUSH1 0x1 ADD PUSH2 0x3AC JUMP JUMPDEST POP SWAP1 JUMP JUMPDEST PUSH1 0x0 PUSH2 0x3DB PUSH2 0x3D6 DUP5 PUSH2 0x659 JUMP JUMPDEST PUSH2 0x634 JUMP JUMPDEST SWAP1 POP DUP3 DUP2 MSTORE PUSH1 0x20 DUP2 ADD DUP5 DUP5 DUP5 ADD GT ISZERO PUSH2 0x3F7 JUMPI PUSH2 0x3F6 PUSH2 0x807 JUMP JUMPDEST JUMPDEST PUSH2 0x402 DUP5 DUP3 DUP6 PUSH2 0x6FF JUMP JUMPDEST POP SWAP4 SWAP3 POP POP POP JUMP JUMPDEST PUSH1 0x0 DUP2 CALLDATALOAD SWAP1 POP PUSH2 0x419 DUP2 PUSH2 0x827 JUMP JUMPDEST SWAP3 SWAP2 POP POP JUMP JUMPDEST PUSH1 0x0 DUP3 PUSH1 0x1F DUP4 ADD SLT PUSH2 0x434 JUMPI PUSH2 0x433 PUSH2 0x802 JUMP JUMPDEST JUMPDEST DUP2 CALLDATALOAD PUSH2 0x444 DUP5 DUP3 PUSH1 0x20 DUP7 ADD PUSH2 0x3C8 JUMP JUMPDEST SWAP2 POP POP SWAP3 SWAP2 POP POP JUMP JUMPDEST PUSH1 0x0 DUP2 CALLDATALOAD SWAP1 POP PUSH2 0x45C DUP2 PUSH2 0x83E JUMP JUMPDEST SWAP3 SWAP2 POP POP JUMP JUMPDEST PUSH1 0x0 PUSH1 0x20 DUP3 DUP5 SUB SLT ISZERO PUSH2 0x478 JUMPI PUSH2 0x477 PUSH2 0x811 JUMP JUMPDEST JUMPDEST PUSH1 0x0 PUSH2 0x486 DUP5 DUP3 DUP6 ADD PUSH2 0x40A JUMP JUMPDEST SWAP2 POP POP SWAP3 SWAP2 POP POP JUMP JUMPDEST PUSH1 0x0 DUP1 PUSH1 0x40 DUP4 DUP6 SUB SLT ISZERO PUSH2 0x4A6 JUMPI PUSH2 0x4A5 PUSH2 0x811 JUMP JUMPDEST JUMPDEST PUSH1 0x0 DUP4 ADD CALLDATALOAD PUSH8 0xFFFFFFFFFFFFFFFF DUP2 GT ISZERO PUSH2 0x4C4 JUMPI PUSH2 0x4C3 PUSH2 0x80C JUMP JUMPDEST JUMPDEST PUSH2 0x4D0 DUP6 DUP3 DUP7 ADD PUSH2 0x41F JUMP JUMPDEST SWAP3 POP POP PUSH1 0x20 PUSH2 0x4E1 DUP6 DUP3 DUP7 ADD PUSH2 0x44D JUMP JUMPDEST SWAP2 POP POP SWAP3 POP SWAP3 SWAP1 POP JUMP JUMPDEST PUSH2 0x4F4 DUP2 PUSH2 0x6C9 JUMP JUMPDEST DUP3 MSTORE POP POP JUMP JUMPDEST PUSH1 0x0 PUSH2 0x505 DUP3 PUSH2 0x68A JUMP JUMPDEST PUSH2 0x50F DUP2 DUP6 PUSH2 0x695 JUMP JUMPDEST SWAP4 POP PUSH2 0x51F DUP2 DUP6 PUSH1 0x20 DUP7 ADD PUSH2 0x70E JUMP JUMPDEST PUSH2 0x528 DUP2 PUSH2 0x816 JUMP JUMPDEST DUP5 ADD SWAP2 POP POP SWAP3 SWAP2 POP POP JUMP JUMPDEST PUSH1 0x0 PUSH2 0x53E DUP3 PUSH2 0x68A JUMP JUMPDEST PUSH2 0x548 DUP2 DUP6 PUSH2 0x6A6 JUMP JUMPDEST SWAP4 POP PUSH2 0x558 DUP2 DUP6 PUSH1 0x20 DUP7 ADD PUSH2 0x70E JUMP JUMPDEST PUSH2 0x561 DUP2 PUSH2 0x816 JUMP JUMPDEST DUP5 ADD SWAP2 POP POP SWAP3 SWAP2 POP POP JUMP JUMPDEST PUSH1 0x0 PUSH1 0x40 DUP4 ADD PUSH1 0x0 DUP4 ADD MLOAD DUP5 DUP3 SUB PUSH1 0x0 DUP7 ADD MSTORE PUSH2 0x589 DUP3 DUP3 PUSH2 0x4FA JUMP JUMPDEST SWAP2 POP POP PUSH1 0x20 DUP4 ADD MLOAD PUSH2 0x59E PUSH1 0x20 DUP7 ADD DUP3 PUSH2 0x5A9 JUMP JUMPDEST POP DUP1 SWAP2 POP POP SWAP3 SWAP2 POP POP JUMP JUMPDEST PUSH2 0x5B2 DUP2 PUSH2 0x6F5 JUMP JUMPDEST DUP3 MSTORE POP POP JUMP JUMPDEST PUSH2 0x5C1 DUP2 PUSH2 0x6F5 JUMP JUMPDEST DUP3 MSTORE POP POP JUMP JUMPDEST PUSH1 0x0 PUSH1 0x20 DUP3 ADD SWAP1 POP PUSH2 0x5DC PUSH1 0x0 DUP4 ADD DUP5 PUSH2 0x4EB JUMP JUMPDEST SWAP3 SWAP2 POP POP JUMP JUMPDEST PUSH1 0x0 PUSH1 0x40 DUP3 ADD SWAP1 POP DUP2 DUP2 SUB PUSH1 0x0 DUP4 ADD MSTORE PUSH2 0x5FC DUP2 DUP6 PUSH2 0x533 JUMP JUMPDEST SWAP1 POP PUSH2 0x60B PUSH1 0x20 DUP4 ADD DUP5 PUSH2 0x5B8 JUMP JUMPDEST SWAP4 SWAP3 POP POP POP JUMP JUMPDEST PUSH1 0x0 PUSH1 0x20 DUP3 ADD SWAP1 POP DUP2 DUP2 SUB PUSH1 0x0 DUP4 ADD MSTORE PUSH2 0x62C DUP2 DUP5 PUSH2 0x56C JUMP JUMPDEST SWAP1 POP SWAP3 SWAP2 POP POP JUMP JUMPDEST PUSH1 0x0 PUSH2 0x63E PUSH2 0x64F JUMP JUMPDEST SWAP1 POP PUSH2 0x64A DUP3 DUP3 PUSH2 0x773 JUMP JUMPDEST SWAP2 SWAP1 POP JUMP JUMPDEST PUSH1 0x0 PUSH1 0x40 MLOAD SWAP1 POP SWAP1 JUMP JUMPDEST PUSH1 0x0 PUSH8 0xFFFFFFFFFFFFFFFF DUP3 GT ISZERO PUSH2 0x674 JUMPI PUSH2 0x673 PUSH2 0x7D3 JUMP JUMPDEST JUMPDEST PUSH2 0x67D DUP3 PUSH2 0x816 JUMP JUMPDEST SWAP1 POP PUSH1 0x20 DUP2 ADD SWAP1 POP SWAP2 SWAP1 POP JUMP JUMPDEST PUSH1 0x0 DUP2 MLOAD SWAP1 POP SWAP2 SWAP1 POP JUMP JUMPDEST PUSH1 0x0 DUP3 DUP3 MSTORE PUSH1 0x20 DUP3 ADD SWAP1 POP SWAP3 SWAP2 POP POP JUMP JUMPDEST PUSH1 0x0 DUP3 DUP3 MSTORE PUSH1 0x20 DUP3 ADD SWAP1 POP SWAP3 SWAP2 POP POP JUMP JUMPDEST PUSH1 0x0 PUSH2 0x6C2 DUP3 PUSH2 0x6D5 JUMP JUMPDEST SWAP1 POP SWAP2 SWAP1 POP JUMP JUMPDEST PUSH1 0x0 DUP2 ISZERO ISZERO SWAP1 POP SWAP2 SWAP1 POP JUMP JUMPDEST PUSH1 0x0 PUSH20 0xFFFFFFFFFFFFFFFFFFFFFFFFFFFFFFFFFFFFFFFF DUP3 AND SWAP1 POP SWAP2 SWAP1 POP JUMP JUMPDEST PUSH1 0x0 DUP2 SWAP1 POP SWAP2 SWAP1 POP JUMP JUMPDEST DUP3 DUP2 DUP4 CALLDATACOPY PUSH1 0x0 DUP4 DUP4 ADD MSTORE POP POP POP JUMP JUMPDEST PUSH1 0x0 JUMPDEST DUP4 DUP2 LT ISZERO PUSH2 0x72C JUMPI DUP1 DUP3 ADD MLOAD DUP2 DUP5 ADD MSTORE PUSH1 0x20 DUP2 ADD SWAP1 POP PUSH2 0x711 JUMP JUMPDEST DUP4 DUP2 GT ISZERO PUSH2 0x73B JUMPI PUSH1 0x0 DUP5 DUP5 ADD MSTORE JUMPDEST POP POP POP POP JUMP JUMPDEST PUSH1 0x0 PUSH1 0x2 DUP3 DIV SWAP1 POP PUSH1 0x1 DUP3 AND DUP1 PUSH2 0x759 JUMPI PUSH1 0x7F DUP3 AND SWAP2 POP JUMPDEST PUSH1 0x20 DUP3 LT DUP2 EQ ISZERO PUSH2 0x76D JUMPI PUSH2 0x76C PUSH2 0x7A4 JUMP JUMPDEST JUMPDEST POP SWAP2 SWAP1 POP JUMP JUMPDEST PUSH2 0x77C DUP3 PUSH2 0x816 JUMP JUMPDEST DUP2 ADD DUP2 DUP2 LT PUSH8 0xFFFFFFFFFFFFFFFF DUP3 GT OR ISZERO PUSH2 0x79B JUMPI PUSH2 0x79A PUSH2 0x7D3 JUMP JUMPDEST JUMPDEST DUP1 PUSH1 0x40 MSTORE POP POP POP JUMP JUMPDEST PUSH32 0x4E487B7100000000000000000000000000000000000000000000000000000000 PUSH1 0x0 MSTORE PUSH1 0x22 PUSH1 0x4 MSTORE PUSH1 0x24 PUSH1 0x0 REVERT JUMPDEST PUSH32 0x4E487B7100000000000000000000000000000000000000000000000000000000 PUSH1 0x0 MSTORE PUSH1 0x41 PUSH1 0x4 MSTORE PUSH1 0x24 PUSH1 0x0 REVERT JUMPDEST PUSH1 0x0 DUP1 REVERT JUMPDEST PUSH1 0x0 DUP1 REVERT JUMPDEST PUSH1 0x0 DUP1 REVERT JUMPDEST PUSH1 0x0 DUP1 REVERT JUMPDEST PUSH1 0x0 PUSH1 0x1F NOT PUSH1 0x1F DUP4 ADD AND SWAP1 POP SWAP2 SWAP1 POP JUMP JUMPDEST PUSH2 0x830 DUP2 PUSH2 0x6B7 JUMP JUMPDEST DUP2 EQ PUSH2 0x83B JUMPI PUSH1 0x0 DUP1 REVERT JUMPDEST POP JUMP JUMPDEST PUSH2 0x847 DUP2 PUSH2 0x6F5 JUMP JUMPDEST DUP2 EQ PUSH2 0x852 JUMPI PUSH1 0x0 DUP1 REVERT JUMPDEST POP JUMP INVALID LOG2 PUSH5 0x6970667358 0x22 SLT KECCAK256 0xE7 PUSH6 0x16BE54E58AEE 0x22 0x2B 0xD0 PUSH22 0x107DC65C5430BC35D04F2AF3ADB46C518481D33E6473 PUSH16 0x6C634300080700330000000000000000 "
				},
				"gasEstimates": {
					"creation": {
						"codeDepositCost": "437400",
						"executionCost": "474",
						"totalCost": "437874"
					},
					"external": {
						"get()": "infinite",
						"purchases(address)": "infinite",
						"set(string,uint256)": "infinite"
					}
				},
				"methodIdentifiers": {
					"get()": "6d4ce63c",
					"purchases(address)": "842a77d3",
					"set(string,uint256)": "8a42ebe9"
				}
			},
			"storageLayout": {
				"storage": [
					{
						"astId": 11,
						"contract": "contracts/Profile.sol:Profile",
						"label": "purchases",
						"offset": 0,
						"slot": "0",
						"type": "t_mapping(t_address,t_struct(Store)6_storage)"
					}
				],
				"types": {
					"t_address": {
						"encoding": "inplace",
						"label": "address",
						"numberOfBytes": "20"
					},
					"t_mapping(t_address,t_struct(Store)6_storage)": {
						"encoding": "mapping",
						"key": "t_address",
						"label": "mapping(address => struct Profile.Store)",
						"numberOfBytes": "32",
						"value": "t_struct(Store)6_storage"
					},
					"t_string_storage": {
						"encoding": "bytes",
						"label": "string",
						"numberOfBytes": "32"
					},
					"t_struct(Store)6_storage": {
						"encoding": "inplace",
						"label": "struct Profile.Store",
						"members": [
							{
								"astId": 3,
								"contract": "contracts/Profile.sol:Profile",
								"label": "id",
								"offset": 0,
								"slot": "0",
								"type": "t_string_storage"
							},
							{
								"astId": 5,
								"contract": "contracts/Profile.sol:Profile",
								"label": "time",
								"offset": 0,
								"slot": "1",
								"type": "t_uint256"
							}
						],
						"numberOfBytes": "64"
					},
					"t_uint256": {
						"encoding": "inplace",
						"label": "uint256",
						"numberOfBytes": "32"
					}
				}
			},
			"userdoc": {
				"kind": "user",
				"methods": {},
				"version": 1
			}
		}
	}
}