{
	"contracts/Profile.sol": {
		"Profile": {
			"abi": [
				{
					"inputs": [
						{
							"internalType": "string",
							"name": "firstName",
							"type": "string"
						},
						{
							"internalType": "string",
							"name": "middleName",
							"type": "string"
						},
						{
							"internalType": "string",
							"name": "lastName",
							"type": "string"
						},
						{
							"internalType": "string",
							"name": "profileImage",
							"type": "string"
						}
					],
					"name": "createBio",
					"outputs": [],
					"stateMutability": "nonpayable",
					"type": "function"
				},
				{
					"inputs": [
						{
							"internalType": "string",
							"name": "email",
							"type": "string"
						},
						{
							"internalType": "string",
							"name": "phone",
							"type": "string"
						},
						{
							"internalType": "string",
							"name": "github",
							"type": "string"
						},
						{
							"internalType": "string",
							"name": "gitlab",
							"type": "string"
						},
						{
							"internalType": "string",
							"name": "linkin",
							"type": "string"
						}
					],
					"name": "createContract",
					"outputs": [],
					"stateMutability": "nonpayable",
					"type": "function"
				},
				{
					"inputs": [
						{
							"internalType": "string[]",
							"name": "frontend",
							"type": "string[]"
						},
						{
							"internalType": "string[]",
							"name": "backend",
							"type": "string[]"
						},
						{
							"internalType": "string[]",
							"name": "framework",
							"type": "string[]"
						}
					],
					"name": "createSkill",
					"outputs": [],
					"stateMutability": "nonpayable",
					"type": "function"
				},
				{
					"inputs": [],
					"name": "delProfile",
					"outputs": [],
					"stateMutability": "nonpayable",
					"type": "function"
				},
				{
					"inputs": [
						{
							"internalType": "address",
							"name": "",
							"type": "address"
						}
					],
					"name": "profile",
					"outputs": [
						{
							"internalType": "address",
							"name": "userAddress",
							"type": "address"
						},
						{
							"internalType": "string",
							"name": "firstName",
							"type": "string"
						},
						{
							"internalType": "string",
							"name": "middleName",
							"type": "string"
						},
						{
							"internalType": "string",
							"name": "lastName",
							"type": "string"
						},
						{
							"internalType": "string",
							"name": "profileImage",
							"type": "string"
						},
						{
							"internalType": "uint256",
							"name": "createDate",
							"type": "uint256"
						},
						{
							"components": [
								{
									"internalType": "string",
									"name": "email",
									"type": "string"
								},
								{
									"internalType": "string",
									"name": "phone",
									"type": "string"
								},
								{
									"internalType": "string",
									"name": "github",
									"type": "string"
								},
								{
									"internalType": "string",
									"name": "gitlab",
									"type": "string"
								},
								{
									"internalType": "string",
									"name": "linkin",
									"type": "string"
								}
							],
							"internalType": "struct Profile.Contract",
							"name": "privateContract",
							"type": "tuple"
						},
						{
							"components": [
								{
									"internalType": "string[]",
									"name": "frontend",
									"type": "string[]"
								},
								{
									"internalType": "string[]",
									"name": "backend",
									"type": "string[]"
								},
								{
									"internalType": "string[]",
									"name": "framework",
									"type": "string[]"
								}
							],
							"internalType": "struct Profile.Skill",
							"name": "skill",
							"type": "tuple"
						}
					],
					"stateMutability": "view",
					"type": "function"
				}
			],
			"devdoc": {
				"kind": "dev",
				"methods": {},
				"version": 1
			},
			"evm": {
				"assembly": "    /* \"contracts/Profile.sol\":60:2221  contract Profile {\r... */\n  mstore(0x40, 0x80)\n  callvalue\n  dup1\n  iszero\n  tag_1\n  jumpi\n  0x00\n  dup1\n  revert\ntag_1:\n  pop\n  dataSize(sub_0)\n  dup1\n  dataOffset(sub_0)\n  0x00\n  codecopy\n  0x00\n  return\nstop\n\nsub_0: assembly {\n        /* \"contracts/Profile.sol\":60:2221  contract Profile {\r... */\n      mstore(0x40, 0x80)\n      callvalue\n      dup1\n      iszero\n      tag_1\n      jumpi\n      0x00\n      dup1\n      revert\n    tag_1:\n      pop\n      jumpi(tag_2, lt(calldatasize, 0x04))\n      shr(0xe0, calldataload(0x00))\n      dup1\n      0x3d984d0e\n      eq\n      tag_3\n      jumpi\n      dup1\n      0x72828388\n      eq\n      tag_4\n      jumpi\n      dup1\n      0x8c241fc4\n      eq\n      tag_5\n      jumpi\n      dup1\n      0x9dd9d0fd\n      eq\n      tag_6\n      jumpi\n      dup1\n      0xfabce08f\n      eq\n      tag_7\n      jumpi\n    tag_2:\n      0x00\n      dup1\n      revert\n        /* \"contracts/Profile.sol\":1806:2131  function createSkill(string[] memory frontend, string[] memory backend, string[] memory framework) public {\r... */\n    tag_3:\n      tag_8\n      0x04\n      dup1\n      calldatasize\n      sub\n      dup2\n      add\n      swap1\n      tag_9\n      swap2\n      swap1\n      tag_10\n      jump\t// in\n    tag_9:\n      tag_11\n      jump\t// in\n    tag_8:\n      stop\n        /* \"contracts/Profile.sol\":1216:1719  function createContract(string memory email, string memory phone, string memory github, string memory gitlab, string memory linkin) public {\r... */\n    tag_4:\n      tag_12\n      0x04\n      dup1\n      calldatasize\n      sub\n      dup2\n      add\n      swap1\n      tag_13\n      swap2\n      swap1\n      tag_14\n      jump\t// in\n    tag_13:\n      tag_15\n      jump\t// in\n    tag_12:\n      stop\n        /* \"contracts/Profile.sol\":694:1161  function createBio(string memory firstName, string memory middleName, string memory lastName,  string memory profileImage) public {\r... */\n    tag_5:\n      tag_16\n      0x04\n      dup1\n      calldatasize\n      sub\n      dup2\n      add\n      swap1\n      tag_17\n      swap2\n      swap1\n      tag_18\n      jump\t// in\n    tag_17:\n      tag_19\n      jump\t// in\n    tag_16:\n      stop\n        /* \"contracts/Profile.sol\":338:378  mapping (address => Bio) public  profile */\n    tag_6:\n      tag_20\n      0x04\n      dup1\n      calldatasize\n      sub\n      dup2\n      add\n      swap1\n      tag_21\n      swap2\n      swap1\n      tag_22\n      jump\t// in\n    tag_21:\n      tag_23\n      jump\t// in\n    tag_20:\n      mload(0x40)\n      tag_24\n      swap9\n      swap8\n      swap7\n      swap6\n      swap5\n      swap4\n      swap3\n      swap2\n      swap1\n      tag_25\n      jump\t// in\n    tag_24:\n      mload(0x40)\n      dup1\n      swap2\n      sub\n      swap1\n      return\n        /* \"contracts/Profile.sol\":2142:2218  function delProfile() external {\r... */\n    tag_7:\n      tag_26\n      tag_27\n      jump\t// in\n    tag_26:\n      stop\n        /* \"contracts/Profile.sol\":1806:2131  function createSkill(string[] memory frontend, string[] memory backend, string[] memory framework) public {\r... */\n    tag_11:\n        /* \"contracts/Profile.sol\":1930:1937  profile */\n      0x00\n        /* \"contracts/Profile.sol\":1930:1949  profile[msg.sender] */\n      dup1\n        /* \"contracts/Profile.sol\":1938:1948  msg.sender */\n      caller\n        /* \"contracts/Profile.sol\":1930:1949  profile[msg.sender] */\n      0xffffffffffffffffffffffffffffffffffffffff\n      and\n      0xffffffffffffffffffffffffffffffffffffffff\n      and\n      dup2\n      mstore\n      0x20\n      add\n      swap1\n      dup2\n      mstore\n      0x20\n      add\n      0x00\n      keccak256\n        /* \"contracts/Profile.sol\":1930:1955  profile[msg.sender].skill */\n      0x0b\n      add\n      0x00\n        /* \"contracts/Profile.sol\":1923:1955  delete profile[msg.sender].skill */\n      dup1\n      dup3\n      add\n      0x00\n      tag_29\n      swap2\n      swap1\n      tag_30\n      jump\t// in\n    tag_29:\n      0x01\n      dup3\n      add\n      0x00\n      tag_31\n      swap2\n      swap1\n      tag_30\n      jump\t// in\n    tag_31:\n      0x02\n      dup3\n      add\n      0x00\n      tag_32\n      swap2\n      swap1\n      tag_30\n      jump\t// in\n    tag_32:\n      pop\n      pop\n        /* \"contracts/Profile.sol\":2003:2011  frontend */\n      dup3\n        /* \"contracts/Profile.sol\":1966:1973  profile */\n      0x00\n        /* \"contracts/Profile.sol\":1966:1985  profile[msg.sender] */\n      dup1\n        /* \"contracts/Profile.sol\":1974:1984  msg.sender */\n      caller\n        /* \"contracts/Profile.sol\":1966:1985  profile[msg.sender] */\n      0xffffffffffffffffffffffffffffffffffffffff\n      and\n      0xffffffffffffffffffffffffffffffffffffffff\n      and\n      dup2\n      mstore\n      0x20\n      add\n      swap1\n      dup2\n      mstore\n      0x20\n      add\n      0x00\n      keccak256\n        /* \"contracts/Profile.sol\":1966:1991  profile[msg.sender].skill */\n      0x0b\n      add\n        /* \"contracts/Profile.sol\":1966:2000  profile[msg.sender].skill.frontend */\n      0x00\n      add\n        /* \"contracts/Profile.sol\":1966:2011  profile[msg.sender].skill.frontend = frontend */\n      swap1\n      dup1\n      mload\n      swap1\n      0x20\n      add\n      swap1\n      tag_33\n      swap3\n      swap2\n      swap1\n      tag_34\n      jump\t// in\n    tag_33:\n      pop\n        /* \"contracts/Profile.sol\":2058:2065  backend */\n      dup2\n        /* \"contracts/Profile.sol\":2022:2029  profile */\n      0x00\n        /* \"contracts/Profile.sol\":2022:2041  profile[msg.sender] */\n      dup1\n        /* \"contracts/Profile.sol\":2030:2040  msg.sender */\n      caller\n        /* \"contracts/Profile.sol\":2022:2041  profile[msg.sender] */\n      0xffffffffffffffffffffffffffffffffffffffff\n      and\n      0xffffffffffffffffffffffffffffffffffffffff\n      and\n      dup2\n      mstore\n      0x20\n      add\n      swap1\n      dup2\n      mstore\n      0x20\n      add\n      0x00\n      keccak256\n        /* \"contracts/Profile.sol\":2022:2047  profile[msg.sender].skill */\n      0x0b\n      add\n        /* \"contracts/Profile.sol\":2022:2055  profile[msg.sender].skill.backend */\n      0x01\n      add\n        /* \"contracts/Profile.sol\":2022:2065  profile[msg.sender].skill.backend = backend */\n      swap1\n      dup1\n      mload\n      swap1\n      0x20\n      add\n      swap1\n      tag_35\n      swap3\n      swap2\n      swap1\n      tag_34\n      jump\t// in\n    tag_35:\n      pop\n        /* \"contracts/Profile.sol\":2114:2123  framework */\n      dup1\n        /* \"contracts/Profile.sol\":2076:2083  profile */\n      0x00\n        /* \"contracts/Profile.sol\":2076:2095  profile[msg.sender] */\n      dup1\n        /* \"contracts/Profile.sol\":2084:2094  msg.sender */\n      caller\n        /* \"contracts/Profile.sol\":2076:2095  profile[msg.sender] */\n      0xffffffffffffffffffffffffffffffffffffffff\n      and\n      0xffffffffffffffffffffffffffffffffffffffff\n      and\n      dup2\n      mstore\n      0x20\n      add\n      swap1\n      dup2\n      mstore\n      0x20\n      add\n      0x00\n      keccak256\n        /* \"contracts/Profile.sol\":2076:2101  profile[msg.sender].skill */\n      0x0b\n      add\n        /* \"contracts/Profile.sol\":2076:2111  profile[msg.sender].skill.framework */\n      0x02\n      add\n        /* \"contracts/Profile.sol\":2076:2123  profile[msg.sender].skill.framework = framework */\n      swap1\n      dup1\n      mload\n      swap1\n      0x20\n      add\n      swap1\n      tag_36\n      swap3\n      swap2\n      swap1\n      tag_34\n      jump\t// in\n    tag_36:\n      pop\n        /* \"contracts/Profile.sol\":1806:2131  function createSkill(string[] memory frontend, string[] memory backend, string[] memory framework) public {\r... */\n      pop\n      pop\n      pop\n      jump\t// out\n        /* \"contracts/Profile.sol\":1216:1719  function createContract(string memory email, string memory phone, string memory github, string memory gitlab, string memory linkin) public {\r... */\n    tag_15:\n        /* \"contracts/Profile.sol\":1373:1380  profile */\n      0x00\n        /* \"contracts/Profile.sol\":1373:1392  profile[msg.sender] */\n      dup1\n        /* \"contracts/Profile.sol\":1381:1391  msg.sender */\n      caller\n        /* \"contracts/Profile.sol\":1373:1392  profile[msg.sender] */\n      0xffffffffffffffffffffffffffffffffffffffff\n      and\n      0xffffffffffffffffffffffffffffffffffffffff\n      and\n      dup2\n      mstore\n      0x20\n      add\n      swap1\n      dup2\n      mstore\n      0x20\n      add\n      0x00\n      keccak256\n        /* \"contracts/Profile.sol\":1373:1408  profile[msg.sender].privateContract */\n      0x06\n      add\n      0x00\n        /* \"contracts/Profile.sol\":1366:1408  delete profile[msg.sender].privateContract */\n      dup1\n      dup3\n      add\n      0x00\n      tag_38\n      swap2\n      swap1\n      tag_39\n      jump\t// in\n    tag_38:\n      0x01\n      dup3\n      add\n      0x00\n      tag_40\n      swap2\n      swap1\n      tag_39\n      jump\t// in\n    tag_40:\n      0x02\n      dup3\n      add\n      0x00\n      tag_41\n      swap2\n      swap1\n      tag_39\n      jump\t// in\n    tag_41:\n      0x03\n      dup3\n      add\n      0x00\n      tag_42\n      swap2\n      swap1\n      tag_39\n      jump\t// in\n    tag_42:\n      0x04\n      dup3\n      add\n      0x00\n      tag_43\n      swap2\n      swap1\n      tag_39\n      jump\t// in\n    tag_43:\n      pop\n      pop\n        /* \"contracts/Profile.sol\":1463:1468  email */\n      dup5\n        /* \"contracts/Profile.sol\":1419:1426  profile */\n      0x00\n        /* \"contracts/Profile.sol\":1419:1438  profile[msg.sender] */\n      dup1\n        /* \"contracts/Profile.sol\":1427:1437  msg.sender */\n      caller\n        /* \"contracts/Profile.sol\":1419:1438  profile[msg.sender] */\n      0xffffffffffffffffffffffffffffffffffffffff\n      and\n      0xffffffffffffffffffffffffffffffffffffffff\n      and\n      dup2\n      mstore\n      0x20\n      add\n      swap1\n      dup2\n      mstore\n      0x20\n      add\n      0x00\n      keccak256\n        /* \"contracts/Profile.sol\":1419:1454  profile[msg.sender].privateContract */\n      0x06\n      add\n        /* \"contracts/Profile.sol\":1419:1460  profile[msg.sender].privateContract.email */\n      0x00\n      add\n        /* \"contracts/Profile.sol\":1419:1468  profile[msg.sender].privateContract.email = email */\n      swap1\n      dup1\n      mload\n      swap1\n      0x20\n      add\n      swap1\n      tag_44\n      swap3\n      swap2\n      swap1\n      tag_45\n      jump\t// in\n    tag_44:\n      pop\n        /* \"contracts/Profile.sol\":1523:1528  phone */\n      dup4\n        /* \"contracts/Profile.sol\":1479:1486  profile */\n      0x00\n        /* \"contracts/Profile.sol\":1479:1498  profile[msg.sender] */\n      dup1\n        /* \"contracts/Profile.sol\":1487:1497  msg.sender */\n      caller\n        /* \"contracts/Profile.sol\":1479:1498  profile[msg.sender] */\n      0xffffffffffffffffffffffffffffffffffffffff\n      and\n      0xffffffffffffffffffffffffffffffffffffffff\n      and\n      dup2\n      mstore\n      0x20\n      add\n      swap1\n      dup2\n      mstore\n      0x20\n      add\n      0x00\n      keccak256\n        /* \"contracts/Profile.sol\":1479:1514  profile[msg.sender].privateContract */\n      0x06\n      add\n        /* \"contracts/Profile.sol\":1479:1520  profile[msg.sender].privateContract.phone */\n      0x01\n      add\n        /* \"contracts/Profile.sol\":1479:1528  profile[msg.sender].privateContract.phone = phone */\n      swap1\n      dup1\n      mload\n      swap1\n      0x20\n      add\n      swap1\n      tag_46\n      swap3\n      swap2\n      swap1\n      tag_45\n      jump\t// in\n    tag_46:\n      pop\n        /* \"contracts/Profile.sol\":1583:1589  github */\n      dup3\n        /* \"contracts/Profile.sol\":1539:1546  profile */\n      0x00\n        /* \"contracts/Profile.sol\":1539:1558  profile[msg.sender] */\n      dup1\n        /* \"contracts/Profile.sol\":1547:1557  msg.sender */\n      caller\n        /* \"contracts/Profile.sol\":1539:1558  profile[msg.sender] */\n      0xffffffffffffffffffffffffffffffffffffffff\n      and\n      0xffffffffffffffffffffffffffffffffffffffff\n      and\n      dup2\n      mstore\n      0x20\n      add\n      swap1\n      dup2\n      mstore\n      0x20\n      add\n      0x00\n      keccak256\n        /* \"contracts/Profile.sol\":1539:1574  profile[msg.sender].privateContract */\n      0x06\n      add\n        /* \"contracts/Profile.sol\":1539:1580  profile[msg.sender].privateContract.email */\n      0x00\n      add\n        /* \"contracts/Profile.sol\":1539:1589  profile[msg.sender].privateContract.email = github */\n      swap1\n      dup1\n      mload\n      swap1\n      0x20\n      add\n      swap1\n      tag_47\n      swap3\n      swap2\n      swap1\n      tag_45\n      jump\t// in\n    tag_47:\n      pop\n        /* \"contracts/Profile.sol\":1644:1650  gitlab */\n      dup2\n        /* \"contracts/Profile.sol\":1600:1607  profile */\n      0x00\n        /* \"contracts/Profile.sol\":1600:1619  profile[msg.sender] */\n      dup1\n        /* \"contracts/Profile.sol\":1608:1618  msg.sender */\n      caller\n        /* \"contracts/Profile.sol\":1600:1619  profile[msg.sender] */\n      0xffffffffffffffffffffffffffffffffffffffff\n      and\n      0xffffffffffffffffffffffffffffffffffffffff\n      and\n      dup2\n      mstore\n      0x20\n      add\n      swap1\n      dup2\n      mstore\n      0x20\n      add\n      0x00\n      keccak256\n        /* \"contracts/Profile.sol\":1600:1635  profile[msg.sender].privateContract */\n      0x06\n      add\n        /* \"contracts/Profile.sol\":1600:1641  profile[msg.sender].privateContract.phone */\n      0x01\n      add\n        /* \"contracts/Profile.sol\":1600:1650  profile[msg.sender].privateContract.phone = gitlab */\n      swap1\n      dup1\n      mload\n      swap1\n      0x20\n      add\n      swap1\n      tag_48\n      swap3\n      swap2\n      swap1\n      tag_45\n      jump\t// in\n    tag_48:\n      pop\n        /* \"contracts/Profile.sol\":1705:1711  linkin */\n      dup1\n        /* \"contracts/Profile.sol\":1661:1668  profile */\n      0x00\n        /* \"contracts/Profile.sol\":1661:1680  profile[msg.sender] */\n      dup1\n        /* \"contracts/Profile.sol\":1669:1679  msg.sender */\n      caller\n        /* \"contracts/Profile.sol\":1661:1680  profile[msg.sender] */\n      0xffffffffffffffffffffffffffffffffffffffff\n      and\n      0xffffffffffffffffffffffffffffffffffffffff\n      and\n      dup2\n      mstore\n      0x20\n      add\n      swap1\n      dup2\n      mstore\n      0x20\n      add\n      0x00\n      keccak256\n        /* \"contracts/Profile.sol\":1661:1696  profile[msg.sender].privateContract */\n      0x06\n      add\n        /* \"contracts/Profile.sol\":1661:1702  profile[msg.sender].privateContract.email */\n      0x00\n      add\n        /* \"contracts/Profile.sol\":1661:1711  profile[msg.sender].privateContract.email = linkin */\n      swap1\n      dup1\n      mload\n      swap1\n      0x20\n      add\n      swap1\n      tag_49\n      swap3\n      swap2\n      swap1\n      tag_45\n      jump\t// in\n    tag_49:\n      pop\n        /* \"contracts/Profile.sol\":1216:1719  function createContract(string memory email, string memory phone, string memory github, string memory gitlab, string memory linkin) public {\r... */\n      pop\n      pop\n      pop\n      pop\n      pop\n      jump\t// out\n        /* \"contracts/Profile.sol\":694:1161  function createBio(string memory firstName, string memory middleName, string memory lastName,  string memory profileImage) public {\r... */\n    tag_19:\n        /* \"contracts/Profile.sol\":867:876  firstName */\n      dup4\n        /* \"contracts/Profile.sol\":835:842  profile */\n      0x00\n        /* \"contracts/Profile.sol\":835:854  profile[msg.sender] */\n      dup1\n        /* \"contracts/Profile.sol\":843:853  msg.sender */\n      caller\n        /* \"contracts/Profile.sol\":835:854  profile[msg.sender] */\n      0xffffffffffffffffffffffffffffffffffffffff\n      and\n      0xffffffffffffffffffffffffffffffffffffffff\n      and\n      dup2\n      mstore\n      0x20\n      add\n      swap1\n      dup2\n      mstore\n      0x20\n      add\n      0x00\n      keccak256\n        /* \"contracts/Profile.sol\":835:864  profile[msg.sender].firstName */\n      0x01\n      add\n        /* \"contracts/Profile.sol\":835:876  profile[msg.sender].firstName = firstName */\n      swap1\n      dup1\n      mload\n      swap1\n      0x20\n      add\n      swap1\n      tag_51\n      swap3\n      swap2\n      swap1\n      tag_45\n      jump\t// in\n    tag_51:\n      pop\n        /* \"contracts/Profile.sol\":920:930  middleName */\n      dup3\n        /* \"contracts/Profile.sol\":887:894  profile */\n      0x00\n        /* \"contracts/Profile.sol\":887:906  profile[msg.sender] */\n      dup1\n        /* \"contracts/Profile.sol\":895:905  msg.sender */\n      caller\n        /* \"contracts/Profile.sol\":887:906  profile[msg.sender] */\n      0xffffffffffffffffffffffffffffffffffffffff\n      and\n      0xffffffffffffffffffffffffffffffffffffffff\n      and\n      dup2\n      mstore\n      0x20\n      add\n      swap1\n      dup2\n      mstore\n      0x20\n      add\n      0x00\n      keccak256\n        /* \"contracts/Profile.sol\":887:917  profile[msg.sender].middleName */\n      0x02\n      add\n        /* \"contracts/Profile.sol\":887:930  profile[msg.sender].middleName = middleName */\n      swap1\n      dup1\n      mload\n      swap1\n      0x20\n      add\n      swap1\n      tag_52\n      swap3\n      swap2\n      swap1\n      tag_45\n      jump\t// in\n    tag_52:\n      pop\n        /* \"contracts/Profile.sol\":972:980  lastName */\n      dup2\n        /* \"contracts/Profile.sol\":941:948  profile */\n      0x00\n        /* \"contracts/Profile.sol\":941:960  profile[msg.sender] */\n      dup1\n        /* \"contracts/Profile.sol\":949:959  msg.sender */\n      caller\n        /* \"contracts/Profile.sol\":941:960  profile[msg.sender] */\n      0xffffffffffffffffffffffffffffffffffffffff\n      and\n      0xffffffffffffffffffffffffffffffffffffffff\n      and\n      dup2\n      mstore\n      0x20\n      add\n      swap1\n      dup2\n      mstore\n      0x20\n      add\n      0x00\n      keccak256\n        /* \"contracts/Profile.sol\":941:969  profile[msg.sender].lastName */\n      0x03\n      add\n        /* \"contracts/Profile.sol\":941:980  profile[msg.sender].lastName = lastName */\n      swap1\n      dup1\n      mload\n      swap1\n      0x20\n      add\n      swap1\n      tag_53\n      swap3\n      swap2\n      swap1\n      tag_45\n      jump\t// in\n    tag_53:\n      pop\n        /* \"contracts/Profile.sol\":1026:1038  profileImage */\n      dup1\n        /* \"contracts/Profile.sol\":991:998  profile */\n      0x00\n        /* \"contracts/Profile.sol\":991:1010  profile[msg.sender] */\n      dup1\n        /* \"contracts/Profile.sol\":999:1009  msg.sender */\n      caller\n        /* \"contracts/Profile.sol\":991:1010  profile[msg.sender] */\n      0xffffffffffffffffffffffffffffffffffffffff\n      and\n      0xffffffffffffffffffffffffffffffffffffffff\n      and\n      dup2\n      mstore\n      0x20\n      add\n      swap1\n      dup2\n      mstore\n      0x20\n      add\n      0x00\n      keccak256\n        /* \"contracts/Profile.sol\":991:1023  profile[msg.sender].profileImage */\n      0x04\n      add\n        /* \"contracts/Profile.sol\":991:1038  profile[msg.sender].profileImage = profileImage */\n      swap1\n      dup1\n      mload\n      swap1\n      0x20\n      add\n      swap1\n      tag_54\n      swap3\n      swap2\n      swap1\n      tag_45\n      jump\t// in\n    tag_54:\n      pop\n        /* \"contracts/Profile.sol\":1083:1093  msg.sender */\n      caller\n        /* \"contracts/Profile.sol\":1049:1056  profile */\n      0x00\n        /* \"contracts/Profile.sol\":1049:1068  profile[msg.sender] */\n      dup1\n        /* \"contracts/Profile.sol\":1057:1067  msg.sender */\n      caller\n        /* \"contracts/Profile.sol\":1049:1068  profile[msg.sender] */\n      0xffffffffffffffffffffffffffffffffffffffff\n      and\n      0xffffffffffffffffffffffffffffffffffffffff\n      and\n      dup2\n      mstore\n      0x20\n      add\n      swap1\n      dup2\n      mstore\n      0x20\n      add\n      0x00\n      keccak256\n        /* \"contracts/Profile.sol\":1049:1080  profile[msg.sender].userAddress */\n      0x00\n      add\n      0x00\n        /* \"contracts/Profile.sol\":1049:1093  profile[msg.sender].userAddress = msg.sender */\n      0x0100\n      exp\n      dup2\n      sload\n      dup2\n      0xffffffffffffffffffffffffffffffffffffffff\n      mul\n      not\n      and\n      swap1\n      dup4\n      0xffffffffffffffffffffffffffffffffffffffff\n      and\n      mul\n      or\n      swap1\n      sstore\n      pop\n        /* \"contracts/Profile.sol\":1138:1153  block.timestamp */\n      timestamp\n        /* \"contracts/Profile.sol\":1105:1112  profile */\n      0x00\n        /* \"contracts/Profile.sol\":1105:1124  profile[msg.sender] */\n      dup1\n        /* \"contracts/Profile.sol\":1113:1123  msg.sender */\n      caller\n        /* \"contracts/Profile.sol\":1105:1124  profile[msg.sender] */\n      0xffffffffffffffffffffffffffffffffffffffff\n      and\n      0xffffffffffffffffffffffffffffffffffffffff\n      and\n      dup2\n      mstore\n      0x20\n      add\n      swap1\n      dup2\n      mstore\n      0x20\n      add\n      0x00\n      keccak256\n        /* \"contracts/Profile.sol\":1105:1135  profile[msg.sender].createDate */\n      0x05\n      add\n        /* \"contracts/Profile.sol\":1105:1153  profile[msg.sender].createDate = block.timestamp */\n      dup2\n      swap1\n      sstore\n      pop\n        /* \"contracts/Profile.sol\":694:1161  function createBio(string memory firstName, string memory middleName, string memory lastName,  string memory profileImage) public {\r... */\n      pop\n      pop\n      pop\n      pop\n      jump\t// out\n        /* \"contracts/Profile.sol\":338:378  mapping (address => Bio) public  profile */\n    tag_23:\n      mstore(0x20, 0x00)\n      dup1\n      0x00\n      mstore\n      keccak256(0x00, 0x40)\n      0x00\n      swap2\n      pop\n      swap1\n      pop\n      dup1\n      0x00\n      add\n      0x00\n      swap1\n      sload\n      swap1\n      0x0100\n      exp\n      swap1\n      div\n      0xffffffffffffffffffffffffffffffffffffffff\n      and\n      swap1\n      dup1\n      0x01\n      add\n      dup1\n      sload\n      tag_55\n      swap1\n      tag_56\n      jump\t// in\n    tag_55:\n      dup1\n      0x1f\n      add\n      0x20\n      dup1\n      swap2\n      div\n      mul\n      0x20\n      add\n      mload(0x40)\n      swap1\n      dup2\n      add\n      0x40\n      mstore\n      dup1\n      swap3\n      swap2\n      swap1\n      dup2\n      dup2\n      mstore\n      0x20\n      add\n      dup3\n      dup1\n      sload\n      tag_57\n      swap1\n      tag_56\n      jump\t// in\n    tag_57:\n      dup1\n      iszero\n      tag_58\n      jumpi\n      dup1\n      0x1f\n      lt\n      tag_59\n      jumpi\n      0x0100\n      dup1\n      dup4\n      sload\n      div\n      mul\n      dup4\n      mstore\n      swap2\n      0x20\n      add\n      swap2\n      jump(tag_58)\n    tag_59:\n      dup3\n      add\n      swap2\n      swap1\n      0x00\n      mstore\n      keccak256(0x00, 0x20)\n      swap1\n    tag_60:\n      dup2\n      sload\n      dup2\n      mstore\n      swap1\n      0x01\n      add\n      swap1\n      0x20\n      add\n      dup1\n      dup4\n      gt\n      tag_60\n      jumpi\n      dup3\n      swap1\n      sub\n      0x1f\n      and\n      dup3\n      add\n      swap2\n    tag_58:\n      pop\n      pop\n      pop\n      pop\n      pop\n      swap1\n      dup1\n      0x02\n      add\n      dup1\n      sload\n      tag_61\n      swap1\n      tag_56\n      jump\t// in\n    tag_61:\n      dup1\n      0x1f\n      add\n      0x20\n      dup1\n      swap2\n      div\n      mul\n      0x20\n      add\n      mload(0x40)\n      swap1\n      dup2\n      add\n      0x40\n      mstore\n      dup1\n      swap3\n      swap2\n      swap1\n      dup2\n      dup2\n      mstore\n      0x20\n      add\n      dup3\n      dup1\n      sload\n      tag_62\n      swap1\n      tag_56\n      jump\t// in\n    tag_62:\n      dup1\n      iszero\n      tag_63\n      jumpi\n      dup1\n      0x1f\n      lt\n      tag_64\n      jumpi\n      0x0100\n      dup1\n      dup4\n      sload\n      div\n      mul\n      dup4\n      mstore\n      swap2\n      0x20\n      add\n      swap2\n      jump(tag_63)\n    tag_64:\n      dup3\n      add\n      swap2\n      swap1\n      0x00\n      mstore\n      keccak256(0x00, 0x20)\n      swap1\n    tag_65:\n      dup2\n      sload\n      dup2\n      mstore\n      swap1\n      0x01\n      add\n      swap1\n      0x20\n      add\n      dup1\n      dup4\n      gt\n      tag_65\n      jumpi\n      dup3\n      swap1\n      sub\n      0x1f\n      and\n      dup3\n      add\n      swap2\n    tag_63:\n      pop\n      pop\n      pop\n      pop\n      pop\n      swap1\n      dup1\n      0x03\n      add\n      dup1\n      sload\n      tag_66\n      swap1\n      tag_56\n      jump\t// in\n    tag_66:\n      dup1\n      0x1f\n      add\n      0x20\n      dup1\n      swap2\n      div\n      mul\n      0x20\n      add\n      mload(0x40)\n      swap1\n      dup2\n      add\n      0x40\n      mstore\n      dup1\n      swap3\n      swap2\n      swap1\n      dup2\n      dup2\n      mstore\n      0x20\n      add\n      dup3\n      dup1\n      sload\n      tag_67\n      swap1\n      tag_56\n      jump\t// in\n    tag_67:\n      dup1\n      iszero\n      tag_68\n      jumpi\n      dup1\n      0x1f\n      lt\n      tag_69\n      jumpi\n      0x0100\n      dup1\n      dup4\n      sload\n      div\n      mul\n      dup4\n      mstore\n      swap2\n      0x20\n      add\n      swap2\n      jump(tag_68)\n    tag_69:\n      dup3\n      add\n      swap2\n      swap1\n      0x00\n      mstore\n      keccak256(0x00, 0x20)\n      swap1\n    tag_70:\n      dup2\n      sload\n      dup2\n      mstore\n      swap1\n      0x01\n      add\n      swap1\n      0x20\n      add\n      dup1\n      dup4\n      gt\n      tag_70\n      jumpi\n      dup3\n      swap1\n      sub\n      0x1f\n      and\n      dup3\n      add\n      swap2\n    tag_68:\n      pop\n      pop\n      pop\n      pop\n      pop\n      swap1\n      dup1\n      0x04\n      add\n      dup1\n      sload\n      tag_71\n      swap1\n      tag_56\n      jump\t// in\n    tag_71:\n      dup1\n      0x1f\n      add\n      0x20\n      dup1\n      swap2\n      div\n      mul\n      0x20\n      add\n      mload(0x40)\n      swap1\n      dup2\n      add\n      0x40\n      mstore\n      dup1\n      swap3\n      swap2\n      swap1\n      dup2\n      dup2\n      mstore\n      0x20\n      add\n      dup3\n      dup1\n      sload\n      tag_72\n      swap1\n      tag_56\n      jump\t// in\n    tag_72:\n      dup1\n      iszero\n      tag_73\n      jumpi\n      dup1\n      0x1f\n      lt\n      tag_74\n      jumpi\n      0x0100\n      dup1\n      dup4\n      sload\n      div\n      mul\n      dup4\n      mstore\n      swap2\n      0x20\n      add\n      swap2\n      jump(tag_73)\n    tag_74:\n      dup3\n      add\n      swap2\n      swap1\n      0x00\n      mstore\n      keccak256(0x00, 0x20)\n      swap1\n    tag_75:\n      dup2\n      sload\n      dup2\n      mstore\n      swap1\n      0x01\n      add\n      swap1\n      0x20\n      add\n      dup1\n      dup4\n      gt\n      tag_75\n      jumpi\n      dup3\n      swap1\n      sub\n      0x1f\n      and\n      dup3\n      add\n      swap2\n    tag_73:\n      pop\n      pop\n      pop\n      pop\n      pop\n      swap1\n      dup1\n      0x05\n      add\n      sload\n      swap1\n      dup1\n      0x06\n      add\n      mload(0x40)\n      dup1\n      0xa0\n      add\n      0x40\n      mstore\n      swap1\n      dup2\n      0x00\n      dup3\n      add\n      dup1\n      sload\n      tag_76\n      swap1\n      tag_56\n      jump\t// in\n    tag_76:\n      dup1\n      0x1f\n      add\n      0x20\n      dup1\n      swap2\n      div\n      mul\n      0x20\n      add\n      mload(0x40)\n      swap1\n      dup2\n      add\n      0x40\n      mstore\n      dup1\n      swap3\n      swap2\n      swap1\n      dup2\n      dup2\n      mstore\n      0x20\n      add\n      dup3\n      dup1\n      sload\n      tag_77\n      swap1\n      tag_56\n      jump\t// in\n    tag_77:\n      dup1\n      iszero\n      tag_78\n      jumpi\n      dup1\n      0x1f\n      lt\n      tag_79\n      jumpi\n      0x0100\n      dup1\n      dup4\n      sload\n      div\n      mul\n      dup4\n      mstore\n      swap2\n      0x20\n      add\n      swap2\n      jump(tag_78)\n    tag_79:\n      dup3\n      add\n      swap2\n      swap1\n      0x00\n      mstore\n      keccak256(0x00, 0x20)\n      swap1\n    tag_80:\n      dup2\n      sload\n      dup2\n      mstore\n      swap1\n      0x01\n      add\n      swap1\n      0x20\n      add\n      dup1\n      dup4\n      gt\n      tag_80\n      jumpi\n      dup3\n      swap1\n      sub\n      0x1f\n      and\n      dup3\n      add\n      swap2\n    tag_78:\n      pop\n      pop\n      pop\n      pop\n      pop\n      dup2\n      mstore\n      0x20\n      add\n      0x01\n      dup3\n      add\n      dup1\n      sload\n      tag_81\n      swap1\n      tag_56\n      jump\t// in\n    tag_81:\n      dup1\n      0x1f\n      add\n      0x20\n      dup1\n      swap2\n      div\n      mul\n      0x20\n      add\n      mload(0x40)\n      swap1\n      dup2\n      add\n      0x40\n      mstore\n      dup1\n      swap3\n      swap2\n      swap1\n      dup2\n      dup2\n      mstore\n      0x20\n      add\n      dup3\n      dup1\n      sload\n      tag_82\n      swap1\n      tag_56\n      jump\t// in\n    tag_82:\n      dup1\n      iszero\n      tag_83\n      jumpi\n      dup1\n      0x1f\n      lt\n      tag_84\n      jumpi\n      0x0100\n      dup1\n      dup4\n      sload\n      div\n      mul\n      dup4\n      mstore\n      swap2\n      0x20\n      add\n      swap2\n      jump(tag_83)\n    tag_84:\n      dup3\n      add\n      swap2\n      swap1\n      0x00\n      mstore\n      keccak256(0x00, 0x20)\n      swap1\n    tag_85:\n      dup2\n      sload\n      dup2\n      mstore\n      swap1\n      0x01\n      add\n      swap1\n      0x20\n      add\n      dup1\n      dup4\n      gt\n      tag_85\n      jumpi\n      dup3\n      swap1\n      sub\n      0x1f\n      and\n      dup3\n      add\n      swap2\n    tag_83:\n      pop\n      pop\n      pop\n      pop\n      pop\n      dup2\n      mstore\n      0x20\n      add\n      0x02\n      dup3\n      add\n      dup1\n      sload\n      tag_86\n      swap1\n      tag_56\n      jump\t// in\n    tag_86:\n      dup1\n      0x1f\n      add\n      0x20\n      dup1\n      swap2\n      div\n      mul\n      0x20\n      add\n      mload(0x40)\n      swap1\n      dup2\n      add\n      0x40\n      mstore\n      dup1\n      swap3\n      swap2\n      swap1\n      dup2\n      dup2\n      mstore\n      0x20\n      add\n      dup3\n      dup1\n      sload\n      tag_87\n      swap1\n      tag_56\n      jump\t// in\n    tag_87:\n      dup1\n      iszero\n      tag_88\n      jumpi\n      dup1\n      0x1f\n      lt\n      tag_89\n      jumpi\n      0x0100\n      dup1\n      dup4\n      sload\n      div\n      mul\n      dup4\n      mstore\n      swap2\n      0x20\n      add\n      swap2\n      jump(tag_88)\n    tag_89:\n      dup3\n      add\n      swap2\n      swap1\n      0x00\n      mstore\n      keccak256(0x00, 0x20)\n      swap1\n    tag_90:\n      dup2\n      sload\n      dup2\n      mstore\n      swap1\n      0x01\n      add\n      swap1\n      0x20\n      add\n      dup1\n      dup4\n      gt\n      tag_90\n      jumpi\n      dup3\n      swap1\n      sub\n      0x1f\n      and\n      dup3\n      add\n      swap2\n    tag_88:\n      pop\n      pop\n      pop\n      pop\n      pop\n      dup2\n      mstore\n      0x20\n      add\n      0x03\n      dup3\n      add\n      dup1\n      sload\n      tag_91\n      swap1\n      tag_56\n      jump\t// in\n    tag_91:\n      dup1\n      0x1f\n      add\n      0x20\n      dup1\n      swap2\n      div\n      mul\n      0x20\n      add\n      mload(0x40)\n      swap1\n      dup2\n      add\n      0x40\n      mstore\n      dup1\n      swap3\n      swap2\n      swap1\n      dup2\n      dup2\n      mstore\n      0x20\n      add\n      dup3\n      dup1\n      sload\n      tag_92\n      swap1\n      tag_56\n      jump\t// in\n    tag_92:\n      dup1\n      iszero\n      tag_93\n      jumpi\n      dup1\n      0x1f\n      lt\n      tag_94\n      jumpi\n      0x0100\n      dup1\n      dup4\n      sload\n      div\n      mul\n      dup4\n      mstore\n      swap2\n      0x20\n      add\n      swap2\n      jump(tag_93)\n    tag_94:\n      dup3\n      add\n      swap2\n      swap1\n      0x00\n      mstore\n      keccak256(0x00, 0x20)\n      swap1\n    tag_95:\n      dup2\n      sload\n      dup2\n      mstore\n      swap1\n      0x01\n      add\n      swap1\n      0x20\n      add\n      dup1\n      dup4\n      gt\n      tag_95\n      jumpi\n      dup3\n      swap1\n      sub\n      0x1f\n      and\n      dup3\n      add\n      swap2\n    tag_93:\n      pop\n      pop\n      pop\n      pop\n      pop\n      dup2\n      mstore\n      0x20\n      add\n      0x04\n      dup3\n      add\n      dup1\n      sload\n      tag_96\n      swap1\n      tag_56\n      jump\t// in\n    tag_96:\n      dup1\n      0x1f\n      add\n      0x20\n      dup1\n      swap2\n      div\n      mul\n      0x20\n      add\n      mload(0x40)\n      swap1\n      dup2\n      add\n      0x40\n      mstore\n      dup1\n      swap3\n      swap2\n      swap1\n      dup2\n      dup2\n      mstore\n      0x20\n      add\n      dup3\n      dup1\n      sload\n      tag_97\n      swap1\n      tag_56\n      jump\t// in\n    tag_97:\n      dup1\n      iszero\n      tag_98\n      jumpi\n      dup1\n      0x1f\n      lt\n      tag_99\n      jumpi\n      0x0100\n      dup1\n      dup4\n      sload\n      div\n      mul\n      dup4\n      mstore\n      swap2\n      0x20\n      add\n      swap2\n      jump(tag_98)\n    tag_99:\n      dup3\n      add\n      swap2\n      swap1\n      0x00\n      mstore\n      keccak256(0x00, 0x20)\n      swap1\n    tag_100:\n      dup2\n      sload\n      dup2\n      mstore\n      swap1\n      0x01\n      add\n      swap1\n      0x20\n      add\n      dup1\n      dup4\n      gt\n      tag_100\n      jumpi\n      dup3\n      swap1\n      sub\n      0x1f\n      and\n      dup3\n      add\n      swap2\n    tag_98:\n      pop\n      pop\n      pop\n      pop\n      pop\n      dup2\n      mstore\n      pop\n      pop\n      swap1\n      dup1\n      0x0b\n      add\n      mload(0x40)\n      dup1\n      0x60\n      add\n      0x40\n      mstore\n      swap1\n      dup2\n      0x00\n      dup3\n      add\n      dup1\n      sload\n      dup1\n      0x20\n      mul\n      0x20\n      add\n      mload(0x40)\n      swap1\n      dup2\n      add\n      0x40\n      mstore\n      dup1\n      swap3\n      swap2\n      swap1\n      dup2\n      dup2\n      mstore\n      0x20\n      add\n      0x00\n      swap1\n    tag_101:\n      dup3\n      dup3\n      lt\n      iszero\n      tag_102\n      jumpi\n      dup4\n      dup3\n      swap1\n      0x00\n      mstore\n      keccak256(0x00, 0x20)\n      add\n      dup1\n      sload\n      tag_104\n      swap1\n      tag_56\n      jump\t// in\n    tag_104:\n      dup1\n      0x1f\n      add\n      0x20\n      dup1\n      swap2\n      div\n      mul\n      0x20\n      add\n      mload(0x40)\n      swap1\n      dup2\n      add\n      0x40\n      mstore\n      dup1\n      swap3\n      swap2\n      swap1\n      dup2\n      dup2\n      mstore\n      0x20\n      add\n      dup3\n      dup1\n      sload\n      tag_105\n      swap1\n      tag_56\n      jump\t// in\n    tag_105:\n      dup1\n      iszero\n      tag_106\n      jumpi\n      dup1\n      0x1f\n      lt\n      tag_107\n      jumpi\n      0x0100\n      dup1\n      dup4\n      sload\n      div\n      mul\n      dup4\n      mstore\n      swap2\n      0x20\n      add\n      swap2\n      jump(tag_106)\n    tag_107:\n      dup3\n      add\n      swap2\n      swap1\n      0x00\n      mstore\n      keccak256(0x00, 0x20)\n      swap1\n    tag_108:\n      dup2\n      sload\n      dup2\n      mstore\n      swap1\n      0x01\n      add\n      swap1\n      0x20\n      add\n      dup1\n      dup4\n      gt\n      tag_108\n      jumpi\n      dup3\n      swap1\n      sub\n      0x1f\n      and\n      dup3\n      add\n      swap2\n    tag_106:\n      pop\n      pop\n      pop\n      pop\n      pop\n      dup2\n      mstore\n      0x20\n      add\n      swap1\n      0x01\n      add\n      swap1\n      jump(tag_101)\n    tag_102:\n      pop\n      pop\n      pop\n      pop\n      dup2\n      mstore\n      0x20\n      add\n      0x01\n      dup3\n      add\n      dup1\n      sload\n      dup1\n      0x20\n      mul\n      0x20\n      add\n      mload(0x40)\n      swap1\n      dup2\n      add\n      0x40\n      mstore\n      dup1\n      swap3\n      swap2\n      swap1\n      dup2\n      dup2\n      mstore\n      0x20\n      add\n      0x00\n      swap1\n    tag_109:\n      dup3\n      dup3\n      lt\n      iszero\n      tag_110\n      jumpi\n      dup4\n      dup3\n      swap1\n      0x00\n      mstore\n      keccak256(0x00, 0x20)\n      add\n      dup1\n      sload\n      tag_112\n      swap1\n      tag_56\n      jump\t// in\n    tag_112:\n      dup1\n      0x1f\n      add\n      0x20\n      dup1\n      swap2\n      div\n      mul\n      0x20\n      add\n      mload(0x40)\n      swap1\n      dup2\n      add\n      0x40\n      mstore\n      dup1\n      swap3\n      swap2\n      swap1\n      dup2\n      dup2\n      mstore\n      0x20\n      add\n      dup3\n      dup1\n      sload\n      tag_113\n      swap1\n      tag_56\n      jump\t// in\n    tag_113:\n      dup1\n      iszero\n      tag_114\n      jumpi\n      dup1\n      0x1f\n      lt\n      tag_115\n      jumpi\n      0x0100\n      dup1\n      dup4\n      sload\n      div\n      mul\n      dup4\n      mstore\n      swap2\n      0x20\n      add\n      swap2\n      jump(tag_114)\n    tag_115:\n      dup3\n      add\n      swap2\n      swap1\n      0x00\n      mstore\n      keccak256(0x00, 0x20)\n      swap1\n    tag_116:\n      dup2\n      sload\n      dup2\n      mstore\n      swap1\n      0x01\n      add\n      swap1\n      0x20\n      add\n      dup1\n      dup4\n      gt\n      tag_116\n      jumpi\n      dup3\n      swap1\n      sub\n      0x1f\n      and\n      dup3\n      add\n      swap2\n    tag_114:\n      pop\n      pop\n      pop\n      pop\n      pop\n      dup2\n      mstore\n      0x20\n      add\n      swap1\n      0x01\n      add\n      swap1\n      jump(tag_109)\n    tag_110:\n      pop\n      pop\n      pop\n      pop\n      dup2\n      mstore\n      0x20\n      add\n      0x02\n      dup3\n      add\n      dup1\n      sload\n      dup1\n      0x20\n      mul\n      0x20\n      add\n      mload(0x40)\n      swap1\n      dup2\n      add\n      0x40\n      mstore\n      dup1\n      swap3\n      swap2\n      swap1\n      dup2\n      dup2\n      mstore\n      0x20\n      add\n      0x00\n      swap1\n    tag_117:\n      dup3\n      dup3\n      lt\n      iszero\n      tag_118\n      jumpi\n      dup4\n      dup3\n      swap1\n      0x00\n      mstore\n      keccak256(0x00, 0x20)\n      add\n      dup1\n      sload\n      tag_120\n      swap1\n      tag_56\n      jump\t// in\n    tag_120:\n      dup1\n      0x1f\n      add\n      0x20\n      dup1\n      swap2\n      div\n      mul\n      0x20\n      add\n      mload(0x40)\n      swap1\n      dup2\n      add\n      0x40\n      mstore\n      dup1\n      swap3\n      swap2\n      swap1\n      dup2\n      dup2\n      mstore\n      0x20\n      add\n      dup3\n      dup1\n      sload\n      tag_121\n      swap1\n      tag_56\n      jump\t// in\n    tag_121:\n      dup1\n      iszero\n      tag_122\n      jumpi\n      dup1\n      0x1f\n      lt\n      tag_123\n      jumpi\n      0x0100\n      dup1\n      dup4\n      sload\n      div\n      mul\n      dup4\n      mstore\n      swap2\n      0x20\n      add\n      swap2\n      jump(tag_122)\n    tag_123:\n      dup3\n      add\n      swap2\n      swap1\n      0x00\n      mstore\n      keccak256(0x00, 0x20)\n      swap1\n    tag_124:\n      dup2\n      sload\n      dup2\n      mstore\n      swap1\n      0x01\n      add\n      swap1\n      0x20\n      add\n      dup1\n      dup4\n      gt\n      tag_124\n      jumpi\n      dup3\n      swap1\n      sub\n      0x1f\n      and\n      dup3\n      add\n      swap2\n    tag_122:\n      pop\n      pop\n      pop\n      pop\n      pop\n      dup2\n      mstore\n      0x20\n      add\n      swap1\n      0x01\n      add\n      swap1\n      jump(tag_117)\n    tag_118:\n      pop\n      pop\n      pop\n      pop\n      dup2\n      mstore\n      pop\n      pop\n      swap1\n      pop\n      dup9\n      jump\t// out\n        /* \"contracts/Profile.sol\":2142:2218  function delProfile() external {\r... */\n    tag_27:\n        /* \"contracts/Profile.sol\":2191:2198  profile */\n      0x00\n        /* \"contracts/Profile.sol\":2191:2210  profile[msg.sender] */\n      dup1\n        /* \"contracts/Profile.sol\":2199:2209  msg.sender */\n      caller\n        /* \"contracts/Profile.sol\":2191:2210  profile[msg.sender] */\n      0xffffffffffffffffffffffffffffffffffffffff\n      and\n      0xffffffffffffffffffffffffffffffffffffffff\n      and\n      dup2\n      mstore\n      0x20\n      add\n      swap1\n      dup2\n      mstore\n      0x20\n      add\n      0x00\n      keccak256\n      0x00\n        /* \"contracts/Profile.sol\":2184:2210  delete profile[msg.sender] */\n      dup1\n      dup3\n      add\n      exp(0x0100, 0x00)\n      dup2\n      sload\n      swap1\n      0xffffffffffffffffffffffffffffffffffffffff\n      mul\n      not\n      and\n      swap1\n      sstore\n      0x01\n      dup3\n      add\n      0x00\n      tag_126\n      swap2\n      swap1\n      tag_39\n      jump\t// in\n    tag_126:\n      0x02\n      dup3\n      add\n      0x00\n      tag_127\n      swap2\n      swap1\n      tag_39\n      jump\t// in\n    tag_127:\n      0x03\n      dup3\n      add\n      0x00\n      tag_128\n      swap2\n      swap1\n      tag_39\n      jump\t// in\n    tag_128:\n      0x04\n      dup3\n      add\n      0x00\n      tag_129\n      swap2\n      swap1\n      tag_39\n      jump\t// in\n    tag_129:\n      0x05\n      dup3\n      add\n      0x00\n      swap1\n      sstore\n      0x06\n      dup3\n      add\n      0x00\n      dup1\n      dup3\n      add\n      0x00\n      tag_130\n      swap2\n      swap1\n      tag_39\n      jump\t// in\n    tag_130:\n      0x01\n      dup3\n      add\n      0x00\n      tag_131\n      swap2\n      swap1\n      tag_39\n      jump\t// in\n    tag_131:\n      0x02\n      dup3\n      add\n      0x00\n      tag_132\n      swap2\n      swap1\n      tag_39\n      jump\t// in\n    tag_132:\n      0x03\n      dup3\n      add\n      0x00\n      tag_133\n      swap2\n      swap1\n      tag_39\n      jump\t// in\n    tag_133:\n      0x04\n      dup3\n      add\n      0x00\n      tag_134\n      swap2\n      swap1\n      tag_39\n      jump\t// in\n    tag_134:\n      pop\n      pop\n      0x0b\n      dup3\n      add\n      0x00\n      dup1\n      dup3\n      add\n      0x00\n      tag_135\n      swap2\n      swap1\n      tag_30\n      jump\t// in\n    tag_135:\n      0x01\n      dup3\n      add\n      0x00\n      tag_136\n      swap2\n      swap1\n      tag_30\n      jump\t// in\n    tag_136:\n      0x02\n      dup3\n      add\n      0x00\n      tag_137\n      swap2\n      swap1\n      tag_30\n      jump\t// in\n    tag_137:\n      pop\n      pop\n      pop\n      pop\n        /* \"contracts/Profile.sol\":2142:2218  function delProfile() external {\r... */\n      jump\t// out\n    tag_30:\n      pop\n      dup1\n      sload\n      0x00\n      dup3\n      sstore\n      swap1\n      0x00\n      mstore\n      keccak256(0x00, 0x20)\n      swap1\n      dup2\n      add\n      swap1\n      tag_139\n      swap2\n      swap1\n      tag_140\n      jump\t// in\n    tag_139:\n      pop\n      jump\t// out\n    tag_34:\n      dup3\n      dup1\n      sload\n      dup3\n      dup3\n      sstore\n      swap1\n      0x00\n      mstore\n      keccak256(0x00, 0x20)\n      swap1\n      dup2\n      add\n      swap3\n      dup3\n      iszero\n      tag_141\n      jumpi\n      swap2\n      0x20\n      mul\n      dup3\n      add\n    tag_142:\n      dup3\n      dup2\n      gt\n      iszero\n      tag_143\n      jumpi\n      dup3\n      mload\n      dup3\n      swap1\n      dup1\n      mload\n      swap1\n      0x20\n      add\n      swap1\n      tag_144\n      swap3\n      swap2\n      swap1\n      tag_45\n      jump\t// in\n    tag_144:\n      pop\n      swap2\n      0x20\n      add\n      swap2\n      swap1\n      0x01\n      add\n      swap1\n      jump(tag_142)\n    tag_143:\n    tag_141:\n      pop\n      swap1\n      pop\n      tag_145\n      swap2\n      swap1\n      tag_140\n      jump\t// in\n    tag_145:\n      pop\n      swap1\n      jump\t// out\n    tag_39:\n      pop\n      dup1\n      sload\n      tag_146\n      swap1\n      tag_56\n      jump\t// in\n    tag_146:\n      0x00\n      dup3\n      sstore\n      dup1\n      0x1f\n      lt\n      tag_148\n      jumpi\n      pop\n      jump(tag_147)\n    tag_148:\n      0x1f\n      add\n      0x20\n      swap1\n      div\n      swap1\n      0x00\n      mstore\n      keccak256(0x00, 0x20)\n      swap1\n      dup2\n      add\n      swap1\n      tag_149\n      swap2\n      swap1\n      tag_150\n      jump\t// in\n    tag_149:\n    tag_147:\n      pop\n      jump\t// out\n    tag_45:\n      dup3\n      dup1\n      sload\n      tag_151\n      swap1\n      tag_56\n      jump\t// in\n    tag_151:\n      swap1\n      0x00\n      mstore\n      keccak256(0x00, 0x20)\n      swap1\n      0x1f\n      add\n      0x20\n      swap1\n      div\n      dup2\n      add\n      swap3\n      dup3\n      tag_153\n      jumpi\n      0x00\n      dup6\n      sstore\n      jump(tag_152)\n    tag_153:\n      dup3\n      0x1f\n      lt\n      tag_154\n      jumpi\n      dup1\n      mload\n      not(0xff)\n      and\n      dup4\n      dup1\n      add\n      or\n      dup6\n      sstore\n      jump(tag_152)\n    tag_154:\n      dup3\n      dup1\n      add\n      0x01\n      add\n      dup6\n      sstore\n      dup3\n      iszero\n      tag_152\n      jumpi\n      swap2\n      dup3\n      add\n    tag_155:\n      dup3\n      dup2\n      gt\n      iszero\n      tag_156\n      jumpi\n      dup3\n      mload\n      dup3\n      sstore\n      swap2\n      0x20\n      add\n      swap2\n      swap1\n      0x01\n      add\n      swap1\n      jump(tag_155)\n    tag_156:\n    tag_152:\n      pop\n      swap1\n      pop\n      tag_157\n      swap2\n      swap1\n      tag_150\n      jump\t// in\n    tag_157:\n      pop\n      swap1\n      jump\t// out\n    tag_140:\n    tag_158:\n      dup1\n      dup3\n      gt\n      iszero\n      tag_159\n      jumpi\n      0x00\n      dup2\n      dup2\n      tag_160\n      swap2\n      swap1\n      tag_39\n      jump\t// in\n    tag_160:\n      pop\n      0x01\n      add\n      jump(tag_158)\n    tag_159:\n      pop\n      swap1\n      jump\t// out\n    tag_150:\n    tag_161:\n      dup1\n      dup3\n      gt\n      iszero\n      tag_162\n      jumpi\n      0x00\n      dup2\n      0x00\n      swap1\n      sstore\n      pop\n      0x01\n      add\n      jump(tag_161)\n    tag_162:\n      pop\n      swap1\n      jump\t// out\n        /* \"#utility.yul\":23:980   */\n    tag_164:\n        /* \"#utility.yul\":129:134   */\n      0x00\n        /* \"#utility.yul\":154:245   */\n      tag_166\n        /* \"#utility.yul\":170:244   */\n      tag_167\n        /* \"#utility.yul\":237:243   */\n      dup5\n        /* \"#utility.yul\":170:244   */\n      tag_168\n      jump\t// in\n    tag_167:\n        /* \"#utility.yul\":154:245   */\n      tag_169\n      jump\t// in\n    tag_166:\n        /* \"#utility.yul\":145:245   */\n      swap1\n      pop\n        /* \"#utility.yul\":265:270   */\n      dup1\n        /* \"#utility.yul\":294:300   */\n      dup4\n        /* \"#utility.yul\":287:292   */\n      dup3\n        /* \"#utility.yul\":280:301   */\n      mstore\n        /* \"#utility.yul\":328:332   */\n      0x20\n        /* \"#utility.yul\":321:326   */\n      dup3\n        /* \"#utility.yul\":317:333   */\n      add\n        /* \"#utility.yul\":310:333   */\n      swap1\n      pop\n        /* \"#utility.yul\":354:360   */\n      dup3\n        /* \"#utility.yul\":404:407   */\n      dup6\n        /* \"#utility.yul\":396:400   */\n      0x20\n        /* \"#utility.yul\":388:394   */\n      dup7\n        /* \"#utility.yul\":384:401   */\n      mul\n        /* \"#utility.yul\":379:382   */\n      dup3\n        /* \"#utility.yul\":375:402   */\n      add\n        /* \"#utility.yul\":372:408   */\n      gt\n        /* \"#utility.yul\":369:512   */\n      iszero\n      tag_170\n      jumpi\n        /* \"#utility.yul\":423:502   */\n      tag_171\n      tag_172\n      jump\t// in\n    tag_171:\n        /* \"#utility.yul\":369:512   */\n    tag_170:\n        /* \"#utility.yul\":536:537   */\n      0x00\n        /* \"#utility.yul\":521:974   */\n    tag_173:\n        /* \"#utility.yul\":546:552   */\n      dup6\n        /* \"#utility.yul\":543:544   */\n      dup2\n        /* \"#utility.yul\":540:553   */\n      lt\n        /* \"#utility.yul\":521:974   */\n      iszero\n      tag_175\n      jumpi\n        /* \"#utility.yul\":628:631   */\n      dup2\n        /* \"#utility.yul\":615:632   */\n      calldataload\n        /* \"#utility.yul\":664:682   */\n      0xffffffffffffffff\n        /* \"#utility.yul\":651:662   */\n      dup2\n        /* \"#utility.yul\":648:683   */\n      gt\n        /* \"#utility.yul\":645:767   */\n      iszero\n      tag_176\n      jumpi\n        /* \"#utility.yul\":686:765   */\n      tag_177\n      tag_178\n      jump\t// in\n    tag_177:\n        /* \"#utility.yul\":645:767   */\n    tag_176:\n        /* \"#utility.yul\":810:821   */\n      dup1\n        /* \"#utility.yul\":802:808   */\n      dup7\n        /* \"#utility.yul\":798:822   */\n      add\n        /* \"#utility.yul\":848:895   */\n      tag_179\n        /* \"#utility.yul\":891:894   */\n      dup10\n        /* \"#utility.yul\":879:889   */\n      dup3\n        /* \"#utility.yul\":848:895   */\n      tag_180\n      jump\t// in\n    tag_179:\n        /* \"#utility.yul\":843:846   */\n      dup6\n        /* \"#utility.yul\":836:896   */\n      mstore\n        /* \"#utility.yul\":925:929   */\n      0x20\n        /* \"#utility.yul\":920:923   */\n      dup6\n        /* \"#utility.yul\":916:930   */\n      add\n        /* \"#utility.yul\":909:930   */\n      swap5\n      pop\n        /* \"#utility.yul\":959:963   */\n      0x20\n        /* \"#utility.yul\":954:957   */\n      dup5\n        /* \"#utility.yul\":950:964   */\n      add\n        /* \"#utility.yul\":943:964   */\n      swap4\n      pop\n        /* \"#utility.yul\":581:974   */\n      pop\n      pop\n        /* \"#utility.yul\":568:569   */\n      0x01\n        /* \"#utility.yul\":565:566   */\n      dup2\n        /* \"#utility.yul\":561:570   */\n      add\n        /* \"#utility.yul\":556:570   */\n      swap1\n      pop\n        /* \"#utility.yul\":521:974   */\n      jump(tag_173)\n    tag_175:\n        /* \"#utility.yul\":525:539   */\n      pop\n        /* \"#utility.yul\":135:980   */\n      pop\n      pop\n        /* \"#utility.yul\":23:980   */\n      swap4\n      swap3\n      pop\n      pop\n      pop\n      jump\t// out\n        /* \"#utility.yul\":986:1398   */\n    tag_181:\n        /* \"#utility.yul\":1064:1069   */\n      0x00\n        /* \"#utility.yul\":1089:1155   */\n      tag_183\n        /* \"#utility.yul\":1105:1154   */\n      tag_184\n        /* \"#utility.yul\":1147:1153   */\n      dup5\n        /* \"#utility.yul\":1105:1154   */\n      tag_185\n      jump\t// in\n    tag_184:\n        /* \"#utility.yul\":1089:1155   */\n      tag_169\n      jump\t// in\n    tag_183:\n        /* \"#utility.yul\":1080:1155   */\n      swap1\n      pop\n        /* \"#utility.yul\":1178:1184   */\n      dup3\n        /* \"#utility.yul\":1171:1176   */\n      dup2\n        /* \"#utility.yul\":1164:1185   */\n      mstore\n        /* \"#utility.yul\":1216:1220   */\n      0x20\n        /* \"#utility.yul\":1209:1214   */\n      dup2\n        /* \"#utility.yul\":1205:1221   */\n      add\n        /* \"#utility.yul\":1254:1257   */\n      dup5\n        /* \"#utility.yul\":1245:1251   */\n      dup5\n        /* \"#utility.yul\":1240:1243   */\n      dup5\n        /* \"#utility.yul\":1236:1252   */\n      add\n        /* \"#utility.yul\":1233:1258   */\n      gt\n        /* \"#utility.yul\":1230:1342   */\n      iszero\n      tag_186\n      jumpi\n        /* \"#utility.yul\":1261:1340   */\n      tag_187\n      tag_188\n      jump\t// in\n    tag_187:\n        /* \"#utility.yul\":1230:1342   */\n    tag_186:\n        /* \"#utility.yul\":1351:1392   */\n      tag_189\n        /* \"#utility.yul\":1385:1391   */\n      dup5\n        /* \"#utility.yul\":1380:1383   */\n      dup3\n        /* \"#utility.yul\":1375:1378   */\n      dup6\n        /* \"#utility.yul\":1351:1392   */\n      tag_190\n      jump\t// in\n    tag_189:\n        /* \"#utility.yul\":1070:1398   */\n      pop\n        /* \"#utility.yul\":986:1398   */\n      swap4\n      swap3\n      pop\n      pop\n      pop\n      jump\t// out\n        /* \"#utility.yul\":1404:1543   */\n    tag_191:\n        /* \"#utility.yul\":1450:1455   */\n      0x00\n        /* \"#utility.yul\":1488:1494   */\n      dup2\n        /* \"#utility.yul\":1475:1495   */\n      calldataload\n        /* \"#utility.yul\":1466:1495   */\n      swap1\n      pop\n        /* \"#utility.yul\":1504:1537   */\n      tag_193\n        /* \"#utility.yul\":1531:1536   */\n      dup2\n        /* \"#utility.yul\":1504:1537   */\n      tag_194\n      jump\t// in\n    tag_193:\n        /* \"#utility.yul\":1404:1543   */\n      swap3\n      swap2\n      pop\n      pop\n      jump\t// out\n        /* \"#utility.yul\":1565:1955   */\n    tag_195:\n        /* \"#utility.yul\":1646:1651   */\n      0x00\n        /* \"#utility.yul\":1695:1698   */\n      dup3\n        /* \"#utility.yul\":1688:1692   */\n      0x1f\n        /* \"#utility.yul\":1680:1686   */\n      dup4\n        /* \"#utility.yul\":1676:1693   */\n      add\n        /* \"#utility.yul\":1672:1699   */\n      slt\n        /* \"#utility.yul\":1662:1784   */\n      tag_197\n      jumpi\n        /* \"#utility.yul\":1703:1782   */\n      tag_198\n      tag_178\n      jump\t// in\n    tag_198:\n        /* \"#utility.yul\":1662:1784   */\n    tag_197:\n        /* \"#utility.yul\":1820:1826   */\n      dup2\n        /* \"#utility.yul\":1807:1827   */\n      calldataload\n        /* \"#utility.yul\":1845:1949   */\n      tag_199\n        /* \"#utility.yul\":1945:1948   */\n      dup5\n        /* \"#utility.yul\":1937:1943   */\n      dup3\n        /* \"#utility.yul\":1930:1934   */\n      0x20\n        /* \"#utility.yul\":1922:1928   */\n      dup7\n        /* \"#utility.yul\":1918:1935   */\n      add\n        /* \"#utility.yul\":1845:1949   */\n      tag_164\n      jump\t// in\n    tag_199:\n        /* \"#utility.yul\":1836:1949   */\n      swap2\n      pop\n        /* \"#utility.yul\":1652:1955   */\n      pop\n        /* \"#utility.yul\":1565:1955   */\n      swap3\n      swap2\n      pop\n      pop\n      jump\t// out\n        /* \"#utility.yul\":1975:2315   */\n    tag_180:\n        /* \"#utility.yul\":2031:2036   */\n      0x00\n        /* \"#utility.yul\":2080:2083   */\n      dup3\n        /* \"#utility.yul\":2073:2077   */\n      0x1f\n        /* \"#utility.yul\":2065:2071   */\n      dup4\n        /* \"#utility.yul\":2061:2078   */\n      add\n        /* \"#utility.yul\":2057:2084   */\n      slt\n        /* \"#utility.yul\":2047:2169   */\n      tag_201\n      jumpi\n        /* \"#utility.yul\":2088:2167   */\n      tag_202\n      tag_178\n      jump\t// in\n    tag_202:\n        /* \"#utility.yul\":2047:2169   */\n    tag_201:\n        /* \"#utility.yul\":2205:2211   */\n      dup2\n        /* \"#utility.yul\":2192:2212   */\n      calldataload\n        /* \"#utility.yul\":2230:2309   */\n      tag_203\n        /* \"#utility.yul\":2305:2308   */\n      dup5\n        /* \"#utility.yul\":2297:2303   */\n      dup3\n        /* \"#utility.yul\":2290:2294   */\n      0x20\n        /* \"#utility.yul\":2282:2288   */\n      dup7\n        /* \"#utility.yul\":2278:2295   */\n      add\n        /* \"#utility.yul\":2230:2309   */\n      tag_181\n      jump\t// in\n    tag_203:\n        /* \"#utility.yul\":2221:2309   */\n      swap2\n      pop\n        /* \"#utility.yul\":2037:2315   */\n      pop\n        /* \"#utility.yul\":1975:2315   */\n      swap3\n      swap2\n      pop\n      pop\n      jump\t// out\n        /* \"#utility.yul\":2321:2650   */\n    tag_22:\n        /* \"#utility.yul\":2380:2386   */\n      0x00\n        /* \"#utility.yul\":2429:2431   */\n      0x20\n        /* \"#utility.yul\":2417:2426   */\n      dup3\n        /* \"#utility.yul\":2408:2415   */\n      dup5\n        /* \"#utility.yul\":2404:2427   */\n      sub\n        /* \"#utility.yul\":2400:2432   */\n      slt\n        /* \"#utility.yul\":2397:2516   */\n      iszero\n      tag_205\n      jumpi\n        /* \"#utility.yul\":2435:2514   */\n      tag_206\n      tag_207\n      jump\t// in\n    tag_206:\n        /* \"#utility.yul\":2397:2516   */\n    tag_205:\n        /* \"#utility.yul\":2555:2556   */\n      0x00\n        /* \"#utility.yul\":2580:2633   */\n      tag_208\n        /* \"#utility.yul\":2625:2632   */\n      dup5\n        /* \"#utility.yul\":2616:2622   */\n      dup3\n        /* \"#utility.yul\":2605:2614   */\n      dup6\n        /* \"#utility.yul\":2601:2623   */\n      add\n        /* \"#utility.yul\":2580:2633   */\n      tag_191\n      jump\t// in\n    tag_208:\n        /* \"#utility.yul\":2570:2633   */\n      swap2\n      pop\n        /* \"#utility.yul\":2526:2643   */\n      pop\n        /* \"#utility.yul\":2321:2650   */\n      swap3\n      swap2\n      pop\n      pop\n      jump\t// out\n        /* \"#utility.yul\":2656:3965   */\n    tag_10:\n        /* \"#utility.yul\":2838:2844   */\n      0x00\n        /* \"#utility.yul\":2846:2852   */\n      dup1\n        /* \"#utility.yul\":2854:2860   */\n      0x00\n        /* \"#utility.yul\":2903:2905   */\n      0x60\n        /* \"#utility.yul\":2891:2900   */\n      dup5\n        /* \"#utility.yul\":2882:2889   */\n      dup7\n        /* \"#utility.yul\":2878:2901   */\n      sub\n        /* \"#utility.yul\":2874:2906   */\n      slt\n        /* \"#utility.yul\":2871:2990   */\n      iszero\n      tag_210\n      jumpi\n        /* \"#utility.yul\":2909:2988   */\n      tag_211\n      tag_207\n      jump\t// in\n    tag_211:\n        /* \"#utility.yul\":2871:2990   */\n    tag_210:\n        /* \"#utility.yul\":3057:3058   */\n      0x00\n        /* \"#utility.yul\":3046:3055   */\n      dup5\n        /* \"#utility.yul\":3042:3059   */\n      add\n        /* \"#utility.yul\":3029:3060   */\n      calldataload\n        /* \"#utility.yul\":3087:3105   */\n      0xffffffffffffffff\n        /* \"#utility.yul\":3079:3085   */\n      dup2\n        /* \"#utility.yul\":3076:3106   */\n      gt\n        /* \"#utility.yul\":3073:3190   */\n      iszero\n      tag_212\n      jumpi\n        /* \"#utility.yul\":3109:3188   */\n      tag_213\n      tag_214\n      jump\t// in\n    tag_213:\n        /* \"#utility.yul\":3073:3190   */\n    tag_212:\n        /* \"#utility.yul\":3214:3302   */\n      tag_215\n        /* \"#utility.yul\":3294:3301   */\n      dup7\n        /* \"#utility.yul\":3285:3291   */\n      dup3\n        /* \"#utility.yul\":3274:3283   */\n      dup8\n        /* \"#utility.yul\":3270:3292   */\n      add\n        /* \"#utility.yul\":3214:3302   */\n      tag_195\n      jump\t// in\n    tag_215:\n        /* \"#utility.yul\":3204:3302   */\n      swap4\n      pop\n        /* \"#utility.yul\":3000:3312   */\n      pop\n        /* \"#utility.yul\":3379:3381   */\n      0x20\n        /* \"#utility.yul\":3368:3377   */\n      dup5\n        /* \"#utility.yul\":3364:3382   */\n      add\n        /* \"#utility.yul\":3351:3383   */\n      calldataload\n        /* \"#utility.yul\":3410:3428   */\n      0xffffffffffffffff\n        /* \"#utility.yul\":3402:3408   */\n      dup2\n        /* \"#utility.yul\":3399:3429   */\n      gt\n        /* \"#utility.yul\":3396:3513   */\n      iszero\n      tag_216\n      jumpi\n        /* \"#utility.yul\":3432:3511   */\n      tag_217\n      tag_214\n      jump\t// in\n    tag_217:\n        /* \"#utility.yul\":3396:3513   */\n    tag_216:\n        /* \"#utility.yul\":3537:3625   */\n      tag_218\n        /* \"#utility.yul\":3617:3624   */\n      dup7\n        /* \"#utility.yul\":3608:3614   */\n      dup3\n        /* \"#utility.yul\":3597:3606   */\n      dup8\n        /* \"#utility.yul\":3593:3615   */\n      add\n        /* \"#utility.yul\":3537:3625   */\n      tag_195\n      jump\t// in\n    tag_218:\n        /* \"#utility.yul\":3527:3625   */\n      swap3\n      pop\n        /* \"#utility.yul\":3322:3635   */\n      pop\n        /* \"#utility.yul\":3702:3704   */\n      0x40\n        /* \"#utility.yul\":3691:3700   */\n      dup5\n        /* \"#utility.yul\":3687:3705   */\n      add\n        /* \"#utility.yul\":3674:3706   */\n      calldataload\n        /* \"#utility.yul\":3733:3751   */\n      0xffffffffffffffff\n        /* \"#utility.yul\":3725:3731   */\n      dup2\n        /* \"#utility.yul\":3722:3752   */\n      gt\n        /* \"#utility.yul\":3719:3836   */\n      iszero\n      tag_219\n      jumpi\n        /* \"#utility.yul\":3755:3834   */\n      tag_220\n      tag_214\n      jump\t// in\n    tag_220:\n        /* \"#utility.yul\":3719:3836   */\n    tag_219:\n        /* \"#utility.yul\":3860:3948   */\n      tag_221\n        /* \"#utility.yul\":3940:3947   */\n      dup7\n        /* \"#utility.yul\":3931:3937   */\n      dup3\n        /* \"#utility.yul\":3920:3929   */\n      dup8\n        /* \"#utility.yul\":3916:3938   */\n      add\n        /* \"#utility.yul\":3860:3948   */\n      tag_195\n      jump\t// in\n    tag_221:\n        /* \"#utility.yul\":3850:3948   */\n      swap2\n      pop\n        /* \"#utility.yul\":3645:3958   */\n      pop\n        /* \"#utility.yul\":2656:3965   */\n      swap3\n      pop\n      swap3\n      pop\n      swap3\n      jump\t// out\n        /* \"#utility.yul\":3971:5456   */\n    tag_18:\n        /* \"#utility.yul\":4097:4103   */\n      0x00\n        /* \"#utility.yul\":4105:4111   */\n      dup1\n        /* \"#utility.yul\":4113:4119   */\n      0x00\n        /* \"#utility.yul\":4121:4127   */\n      dup1\n        /* \"#utility.yul\":4170:4173   */\n      0x80\n        /* \"#utility.yul\":4158:4167   */\n      dup6\n        /* \"#utility.yul\":4149:4156   */\n      dup8\n        /* \"#utility.yul\":4145:4168   */\n      sub\n        /* \"#utility.yul\":4141:4174   */\n      slt\n        /* \"#utility.yul\":4138:4258   */\n      iszero\n      tag_223\n      jumpi\n        /* \"#utility.yul\":4177:4256   */\n      tag_224\n      tag_207\n      jump\t// in\n    tag_224:\n        /* \"#utility.yul\":4138:4258   */\n    tag_223:\n        /* \"#utility.yul\":4325:4326   */\n      0x00\n        /* \"#utility.yul\":4314:4323   */\n      dup6\n        /* \"#utility.yul\":4310:4327   */\n      add\n        /* \"#utility.yul\":4297:4328   */\n      calldataload\n        /* \"#utility.yul\":4355:4373   */\n      0xffffffffffffffff\n        /* \"#utility.yul\":4347:4353   */\n      dup2\n        /* \"#utility.yul\":4344:4374   */\n      gt\n        /* \"#utility.yul\":4341:4458   */\n      iszero\n      tag_225\n      jumpi\n        /* \"#utility.yul\":4377:4456   */\n      tag_226\n      tag_214\n      jump\t// in\n    tag_226:\n        /* \"#utility.yul\":4341:4458   */\n    tag_225:\n        /* \"#utility.yul\":4482:4545   */\n      tag_227\n        /* \"#utility.yul\":4537:4544   */\n      dup8\n        /* \"#utility.yul\":4528:4534   */\n      dup3\n        /* \"#utility.yul\":4517:4526   */\n      dup9\n        /* \"#utility.yul\":4513:4535   */\n      add\n        /* \"#utility.yul\":4482:4545   */\n      tag_180\n      jump\t// in\n    tag_227:\n        /* \"#utility.yul\":4472:4545   */\n      swap5\n      pop\n        /* \"#utility.yul\":4268:4555   */\n      pop\n        /* \"#utility.yul\":4622:4624   */\n      0x20\n        /* \"#utility.yul\":4611:4620   */\n      dup6\n        /* \"#utility.yul\":4607:4625   */\n      add\n        /* \"#utility.yul\":4594:4626   */\n      calldataload\n        /* \"#utility.yul\":4653:4671   */\n      0xffffffffffffffff\n        /* \"#utility.yul\":4645:4651   */\n      dup2\n        /* \"#utility.yul\":4642:4672   */\n      gt\n        /* \"#utility.yul\":4639:4756   */\n      iszero\n      tag_228\n      jumpi\n        /* \"#utility.yul\":4675:4754   */\n      tag_229\n      tag_214\n      jump\t// in\n    tag_229:\n        /* \"#utility.yul\":4639:4756   */\n    tag_228:\n        /* \"#utility.yul\":4780:4843   */\n      tag_230\n        /* \"#utility.yul\":4835:4842   */\n      dup8\n        /* \"#utility.yul\":4826:4832   */\n      dup3\n        /* \"#utility.yul\":4815:4824   */\n      dup9\n        /* \"#utility.yul\":4811:4833   */\n      add\n        /* \"#utility.yul\":4780:4843   */\n      tag_180\n      jump\t// in\n    tag_230:\n        /* \"#utility.yul\":4770:4843   */\n      swap4\n      pop\n        /* \"#utility.yul\":4565:4853   */\n      pop\n        /* \"#utility.yul\":4920:4922   */\n      0x40\n        /* \"#utility.yul\":4909:4918   */\n      dup6\n        /* \"#utility.yul\":4905:4923   */\n      add\n        /* \"#utility.yul\":4892:4924   */\n      calldataload\n        /* \"#utility.yul\":4951:4969   */\n      0xffffffffffffffff\n        /* \"#utility.yul\":4943:4949   */\n      dup2\n        /* \"#utility.yul\":4940:4970   */\n      gt\n        /* \"#utility.yul\":4937:5054   */\n      iszero\n      tag_231\n      jumpi\n        /* \"#utility.yul\":4973:5052   */\n      tag_232\n      tag_214\n      jump\t// in\n    tag_232:\n        /* \"#utility.yul\":4937:5054   */\n    tag_231:\n        /* \"#utility.yul\":5078:5141   */\n      tag_233\n        /* \"#utility.yul\":5133:5140   */\n      dup8\n        /* \"#utility.yul\":5124:5130   */\n      dup3\n        /* \"#utility.yul\":5113:5122   */\n      dup9\n        /* \"#utility.yul\":5109:5131   */\n      add\n        /* \"#utility.yul\":5078:5141   */\n      tag_180\n      jump\t// in\n    tag_233:\n        /* \"#utility.yul\":5068:5141   */\n      swap3\n      pop\n        /* \"#utility.yul\":4863:5151   */\n      pop\n        /* \"#utility.yul\":5218:5220   */\n      0x60\n        /* \"#utility.yul\":5207:5216   */\n      dup6\n        /* \"#utility.yul\":5203:5221   */\n      add\n        /* \"#utility.yul\":5190:5222   */\n      calldataload\n        /* \"#utility.yul\":5249:5267   */\n      0xffffffffffffffff\n        /* \"#utility.yul\":5241:5247   */\n      dup2\n        /* \"#utility.yul\":5238:5268   */\n      gt\n        /* \"#utility.yul\":5235:5352   */\n      iszero\n      tag_234\n      jumpi\n        /* \"#utility.yul\":5271:5350   */\n      tag_235\n      tag_214\n      jump\t// in\n    tag_235:\n        /* \"#utility.yul\":5235:5352   */\n    tag_234:\n        /* \"#utility.yul\":5376:5439   */\n      tag_236\n        /* \"#utility.yul\":5431:5438   */\n      dup8\n        /* \"#utility.yul\":5422:5428   */\n      dup3\n        /* \"#utility.yul\":5411:5420   */\n      dup9\n        /* \"#utility.yul\":5407:5429   */\n      add\n        /* \"#utility.yul\":5376:5439   */\n      tag_180\n      jump\t// in\n    tag_236:\n        /* \"#utility.yul\":5366:5439   */\n      swap2\n      pop\n        /* \"#utility.yul\":5161:5449   */\n      pop\n        /* \"#utility.yul\":3971:5456   */\n      swap3\n      swap6\n      swap2\n      swap5\n      pop\n      swap3\n      pop\n      jump\t// out\n        /* \"#utility.yul\":5462:7273   */\n    tag_14:\n        /* \"#utility.yul\":5607:5613   */\n      0x00\n        /* \"#utility.yul\":5615:5621   */\n      dup1\n        /* \"#utility.yul\":5623:5629   */\n      0x00\n        /* \"#utility.yul\":5631:5637   */\n      dup1\n        /* \"#utility.yul\":5639:5645   */\n      0x00\n        /* \"#utility.yul\":5688:5691   */\n      0xa0\n        /* \"#utility.yul\":5676:5685   */\n      dup7\n        /* \"#utility.yul\":5667:5674   */\n      dup9\n        /* \"#utility.yul\":5663:5686   */\n      sub\n        /* \"#utility.yul\":5659:5692   */\n      slt\n        /* \"#utility.yul\":5656:5776   */\n      iszero\n      tag_238\n      jumpi\n        /* \"#utility.yul\":5695:5774   */\n      tag_239\n      tag_207\n      jump\t// in\n    tag_239:\n        /* \"#utility.yul\":5656:5776   */\n    tag_238:\n        /* \"#utility.yul\":5843:5844   */\n      0x00\n        /* \"#utility.yul\":5832:5841   */\n      dup7\n        /* \"#utility.yul\":5828:5845   */\n      add\n        /* \"#utility.yul\":5815:5846   */\n      calldataload\n        /* \"#utility.yul\":5873:5891   */\n      0xffffffffffffffff\n        /* \"#utility.yul\":5865:5871   */\n      dup2\n        /* \"#utility.yul\":5862:5892   */\n      gt\n        /* \"#utility.yul\":5859:5976   */\n      iszero\n      tag_240\n      jumpi\n        /* \"#utility.yul\":5895:5974   */\n      tag_241\n      tag_214\n      jump\t// in\n    tag_241:\n        /* \"#utility.yul\":5859:5976   */\n    tag_240:\n        /* \"#utility.yul\":6000:6063   */\n      tag_242\n        /* \"#utility.yul\":6055:6062   */\n      dup9\n        /* \"#utility.yul\":6046:6052   */\n      dup3\n        /* \"#utility.yul\":6035:6044   */\n      dup10\n        /* \"#utility.yul\":6031:6053   */\n      add\n        /* \"#utility.yul\":6000:6063   */\n      tag_180\n      jump\t// in\n    tag_242:\n        /* \"#utility.yul\":5990:6063   */\n      swap6\n      pop\n        /* \"#utility.yul\":5786:6073   */\n      pop\n        /* \"#utility.yul\":6140:6142   */\n      0x20\n        /* \"#utility.yul\":6129:6138   */\n      dup7\n        /* \"#utility.yul\":6125:6143   */\n      add\n        /* \"#utility.yul\":6112:6144   */\n      calldataload\n        /* \"#utility.yul\":6171:6189   */\n      0xffffffffffffffff\n        /* \"#utility.yul\":6163:6169   */\n      dup2\n        /* \"#utility.yul\":6160:6190   */\n      gt\n        /* \"#utility.yul\":6157:6274   */\n      iszero\n      tag_243\n      jumpi\n        /* \"#utility.yul\":6193:6272   */\n      tag_244\n      tag_214\n      jump\t// in\n    tag_244:\n        /* \"#utility.yul\":6157:6274   */\n    tag_243:\n        /* \"#utility.yul\":6298:6361   */\n      tag_245\n        /* \"#utility.yul\":6353:6360   */\n      dup9\n        /* \"#utility.yul\":6344:6350   */\n      dup3\n        /* \"#utility.yul\":6333:6342   */\n      dup10\n        /* \"#utility.yul\":6329:6351   */\n      add\n        /* \"#utility.yul\":6298:6361   */\n      tag_180\n      jump\t// in\n    tag_245:\n        /* \"#utility.yul\":6288:6361   */\n      swap5\n      pop\n        /* \"#utility.yul\":6083:6371   */\n      pop\n        /* \"#utility.yul\":6438:6440   */\n      0x40\n        /* \"#utility.yul\":6427:6436   */\n      dup7\n        /* \"#utility.yul\":6423:6441   */\n      add\n        /* \"#utility.yul\":6410:6442   */\n      calldataload\n        /* \"#utility.yul\":6469:6487   */\n      0xffffffffffffffff\n        /* \"#utility.yul\":6461:6467   */\n      dup2\n        /* \"#utility.yul\":6458:6488   */\n      gt\n        /* \"#utility.yul\":6455:6572   */\n      iszero\n      tag_246\n      jumpi\n        /* \"#utility.yul\":6491:6570   */\n      tag_247\n      tag_214\n      jump\t// in\n    tag_247:\n        /* \"#utility.yul\":6455:6572   */\n    tag_246:\n        /* \"#utility.yul\":6596:6659   */\n      tag_248\n        /* \"#utility.yul\":6651:6658   */\n      dup9\n        /* \"#utility.yul\":6642:6648   */\n      dup3\n        /* \"#utility.yul\":6631:6640   */\n      dup10\n        /* \"#utility.yul\":6627:6649   */\n      add\n        /* \"#utility.yul\":6596:6659   */\n      tag_180\n      jump\t// in\n    tag_248:\n        /* \"#utility.yul\":6586:6659   */\n      swap4\n      pop\n        /* \"#utility.yul\":6381:6669   */\n      pop\n        /* \"#utility.yul\":6736:6738   */\n      0x60\n        /* \"#utility.yul\":6725:6734   */\n      dup7\n        /* \"#utility.yul\":6721:6739   */\n      add\n        /* \"#utility.yul\":6708:6740   */\n      calldataload\n        /* \"#utility.yul\":6767:6785   */\n      0xffffffffffffffff\n        /* \"#utility.yul\":6759:6765   */\n      dup2\n        /* \"#utility.yul\":6756:6786   */\n      gt\n        /* \"#utility.yul\":6753:6870   */\n      iszero\n      tag_249\n      jumpi\n        /* \"#utility.yul\":6789:6868   */\n      tag_250\n      tag_214\n      jump\t// in\n    tag_250:\n        /* \"#utility.yul\":6753:6870   */\n    tag_249:\n        /* \"#utility.yul\":6894:6957   */\n      tag_251\n        /* \"#utility.yul\":6949:6956   */\n      dup9\n        /* \"#utility.yul\":6940:6946   */\n      dup3\n        /* \"#utility.yul\":6929:6938   */\n      dup10\n        /* \"#utility.yul\":6925:6947   */\n      add\n        /* \"#utility.yul\":6894:6957   */\n      tag_180\n      jump\t// in\n    tag_251:\n        /* \"#utility.yul\":6884:6957   */\n      swap3\n      pop\n        /* \"#utility.yul\":6679:6967   */\n      pop\n        /* \"#utility.yul\":7034:7037   */\n      0x80\n        /* \"#utility.yul\":7023:7032   */\n      dup7\n        /* \"#utility.yul\":7019:7038   */\n      add\n        /* \"#utility.yul\":7006:7039   */\n      calldataload\n        /* \"#utility.yul\":7066:7084   */\n      0xffffffffffffffff\n        /* \"#utility.yul\":7058:7064   */\n      dup2\n        /* \"#utility.yul\":7055:7085   */\n      gt\n        /* \"#utility.yul\":7052:7169   */\n      iszero\n      tag_252\n      jumpi\n        /* \"#utility.yul\":7088:7167   */\n      tag_253\n      tag_214\n      jump\t// in\n    tag_253:\n        /* \"#utility.yul\":7052:7169   */\n    tag_252:\n        /* \"#utility.yul\":7193:7256   */\n      tag_254\n        /* \"#utility.yul\":7248:7255   */\n      dup9\n        /* \"#utility.yul\":7239:7245   */\n      dup3\n        /* \"#utility.yul\":7228:7237   */\n      dup10\n        /* \"#utility.yul\":7224:7246   */\n      add\n        /* \"#utility.yul\":7193:7256   */\n      tag_180\n      jump\t// in\n    tag_254:\n        /* \"#utility.yul\":7183:7256   */\n      swap2\n      pop\n        /* \"#utility.yul\":6977:7266   */\n      pop\n        /* \"#utility.yul\":5462:7273   */\n      swap3\n      swap6\n      pop\n      swap3\n      swap6\n      swap1\n      swap4\n      pop\n      jump\t// out\n        /* \"#utility.yul\":7279:7475   */\n    tag_255:\n        /* \"#utility.yul\":7368:7378   */\n      0x00\n        /* \"#utility.yul\":7403:7469   */\n      tag_257\n        /* \"#utility.yul\":7465:7468   */\n      dup4\n        /* \"#utility.yul\":7457:7463   */\n      dup4\n        /* \"#utility.yul\":7403:7469   */\n      tag_258\n      jump\t// in\n    tag_257:\n        /* \"#utility.yul\":7389:7469   */\n      swap1\n      pop\n        /* \"#utility.yul\":7279:7475   */\n      swap3\n      swap2\n      pop\n      pop\n      jump\t// out\n        /* \"#utility.yul\":7481:7599   */\n    tag_259:\n        /* \"#utility.yul\":7568:7592   */\n      tag_261\n        /* \"#utility.yul\":7586:7591   */\n      dup2\n        /* \"#utility.yul\":7568:7592   */\n      tag_262\n      jump\t// in\n    tag_261:\n        /* \"#utility.yul\":7563:7566   */\n      dup3\n        /* \"#utility.yul\":7556:7593   */\n      mstore\n        /* \"#utility.yul\":7481:7599   */\n      pop\n      pop\n      jump\t// out\n        /* \"#utility.yul\":7633:8604   */\n    tag_263:\n        /* \"#utility.yul\":7762:7765   */\n      0x00\n        /* \"#utility.yul\":7791:7855   */\n      tag_265\n        /* \"#utility.yul\":7849:7854   */\n      dup3\n        /* \"#utility.yul\":7791:7855   */\n      tag_266\n      jump\t// in\n    tag_265:\n        /* \"#utility.yul\":7871:7957   */\n      tag_267\n        /* \"#utility.yul\":7950:7956   */\n      dup2\n        /* \"#utility.yul\":7945:7948   */\n      dup6\n        /* \"#utility.yul\":7871:7957   */\n      tag_268\n      jump\t// in\n    tag_267:\n        /* \"#utility.yul\":7864:7957   */\n      swap4\n      pop\n        /* \"#utility.yul\":7983:7986   */\n      dup4\n        /* \"#utility.yul\":8028:8032   */\n      0x20\n        /* \"#utility.yul\":8020:8026   */\n      dup3\n        /* \"#utility.yul\":8016:8033   */\n      mul\n        /* \"#utility.yul\":8011:8014   */\n      dup6\n        /* \"#utility.yul\":8007:8034   */\n      add\n        /* \"#utility.yul\":8058:8124   */\n      tag_269\n        /* \"#utility.yul\":8118:8123   */\n      dup6\n        /* \"#utility.yul\":8058:8124   */\n      tag_270\n      jump\t// in\n    tag_269:\n        /* \"#utility.yul\":8147:8154   */\n      dup1\n        /* \"#utility.yul\":8178:8179   */\n      0x00\n        /* \"#utility.yul\":8163:8559   */\n    tag_271:\n        /* \"#utility.yul\":8188:8194   */\n      dup6\n        /* \"#utility.yul\":8185:8186   */\n      dup2\n        /* \"#utility.yul\":8182:8195   */\n      lt\n        /* \"#utility.yul\":8163:8559   */\n      iszero\n      tag_273\n      jumpi\n        /* \"#utility.yul\":8259:8268   */\n      dup5\n        /* \"#utility.yul\":8253:8257   */\n      dup5\n        /* \"#utility.yul\":8249:8269   */\n      sub\n        /* \"#utility.yul\":8244:8247   */\n      dup10\n        /* \"#utility.yul\":8237:8270   */\n      mstore\n        /* \"#utility.yul\":8310:8316   */\n      dup2\n        /* \"#utility.yul\":8304:8317   */\n      mload\n        /* \"#utility.yul\":8338:8422   */\n      tag_274\n        /* \"#utility.yul\":8417:8421   */\n      dup6\n        /* \"#utility.yul\":8402:8415   */\n      dup3\n        /* \"#utility.yul\":8338:8422   */\n      tag_255\n      jump\t// in\n    tag_274:\n        /* \"#utility.yul\":8330:8422   */\n      swap5\n      pop\n        /* \"#utility.yul\":8445:8515   */\n      tag_275\n        /* \"#utility.yul\":8508:8514   */\n      dup4\n        /* \"#utility.yul\":8445:8515   */\n      tag_276\n      jump\t// in\n    tag_275:\n        /* \"#utility.yul\":8435:8515   */\n      swap3\n      pop\n        /* \"#utility.yul\":8544:8548   */\n      0x20\n        /* \"#utility.yul\":8539:8542   */\n      dup11\n        /* \"#utility.yul\":8535:8549   */\n      add\n        /* \"#utility.yul\":8528:8549   */\n      swap10\n      pop\n        /* \"#utility.yul\":8223:8559   */\n      pop\n        /* \"#utility.yul\":8210:8211   */\n      0x01\n        /* \"#utility.yul\":8207:8208   */\n      dup2\n        /* \"#utility.yul\":8203:8212   */\n      add\n        /* \"#utility.yul\":8198:8212   */\n      swap1\n      pop\n        /* \"#utility.yul\":8163:8559   */\n      jump(tag_271)\n    tag_273:\n        /* \"#utility.yul\":8167:8181   */\n      pop\n        /* \"#utility.yul\":8575:8579   */\n      dup3\n        /* \"#utility.yul\":8568:8579   */\n      swap8\n      pop\n        /* \"#utility.yul\":8595:8598   */\n      dup8\n        /* \"#utility.yul\":8588:8598   */\n      swap6\n      pop\n        /* \"#utility.yul\":7767:8604   */\n      pop\n      pop\n      pop\n      pop\n      pop\n        /* \"#utility.yul\":7633:8604   */\n      swap3\n      swap2\n      pop\n      pop\n      jump\t// out\n        /* \"#utility.yul\":8610:8954   */\n    tag_258:\n        /* \"#utility.yul\":8688:8691   */\n      0x00\n        /* \"#utility.yul\":8716:8755   */\n      tag_278\n        /* \"#utility.yul\":8749:8754   */\n      dup3\n        /* \"#utility.yul\":8716:8755   */\n      tag_279\n      jump\t// in\n    tag_278:\n        /* \"#utility.yul\":8771:8832   */\n      tag_280\n        /* \"#utility.yul\":8825:8831   */\n      dup2\n        /* \"#utility.yul\":8820:8823   */\n      dup6\n        /* \"#utility.yul\":8771:8832   */\n      tag_281\n      jump\t// in\n    tag_280:\n        /* \"#utility.yul\":8764:8832   */\n      swap4\n      pop\n        /* \"#utility.yul\":8841:8893   */\n      tag_282\n        /* \"#utility.yul\":8886:8892   */\n      dup2\n        /* \"#utility.yul\":8881:8884   */\n      dup6\n        /* \"#utility.yul\":8874:8878   */\n      0x20\n        /* \"#utility.yul\":8867:8872   */\n      dup7\n        /* \"#utility.yul\":8863:8879   */\n      add\n        /* \"#utility.yul\":8841:8893   */\n      tag_283\n      jump\t// in\n    tag_282:\n        /* \"#utility.yul\":8918:8947   */\n      tag_284\n        /* \"#utility.yul\":8940:8946   */\n      dup2\n        /* \"#utility.yul\":8918:8947   */\n      tag_285\n      jump\t// in\n    tag_284:\n        /* \"#utility.yul\":8913:8916   */\n      dup5\n        /* \"#utility.yul\":8909:8948   */\n      add\n        /* \"#utility.yul\":8902:8948   */\n      swap2\n      pop\n        /* \"#utility.yul\":8692:8954   */\n      pop\n        /* \"#utility.yul\":8610:8954   */\n      swap3\n      swap2\n      pop\n      pop\n      jump\t// out\n        /* \"#utility.yul\":8960:9324   */\n    tag_286:\n        /* \"#utility.yul\":9048:9051   */\n      0x00\n        /* \"#utility.yul\":9076:9115   */\n      tag_288\n        /* \"#utility.yul\":9109:9114   */\n      dup3\n        /* \"#utility.yul\":9076:9115   */\n      tag_279\n      jump\t// in\n    tag_288:\n        /* \"#utility.yul\":9131:9202   */\n      tag_289\n        /* \"#utility.yul\":9195:9201   */\n      dup2\n        /* \"#utility.yul\":9190:9193   */\n      dup6\n        /* \"#utility.yul\":9131:9202   */\n      tag_290\n      jump\t// in\n    tag_289:\n        /* \"#utility.yul\":9124:9202   */\n      swap4\n      pop\n        /* \"#utility.yul\":9211:9263   */\n      tag_291\n        /* \"#utility.yul\":9256:9262   */\n      dup2\n        /* \"#utility.yul\":9251:9254   */\n      dup6\n        /* \"#utility.yul\":9244:9248   */\n      0x20\n        /* \"#utility.yul\":9237:9242   */\n      dup7\n        /* \"#utility.yul\":9233:9249   */\n      add\n        /* \"#utility.yul\":9211:9263   */\n      tag_283\n      jump\t// in\n    tag_291:\n        /* \"#utility.yul\":9288:9317   */\n      tag_292\n        /* \"#utility.yul\":9310:9316   */\n      dup2\n        /* \"#utility.yul\":9288:9317   */\n      tag_285\n      jump\t// in\n    tag_292:\n        /* \"#utility.yul\":9283:9286   */\n      dup5\n        /* \"#utility.yul\":9279:9318   */\n      add\n        /* \"#utility.yul\":9272:9318   */\n      swap2\n      pop\n        /* \"#utility.yul\":9052:9324   */\n      pop\n        /* \"#utility.yul\":8960:9324   */\n      swap3\n      swap2\n      pop\n      pop\n      jump\t// out\n        /* \"#utility.yul\":9388:10806   */\n    tag_293:\n        /* \"#utility.yul\":9505:9508   */\n      0x00\n        /* \"#utility.yul\":9541:9545   */\n      0xa0\n        /* \"#utility.yul\":9536:9539   */\n      dup4\n        /* \"#utility.yul\":9532:9546   */\n      add\n        /* \"#utility.yul\":9629:9633   */\n      0x00\n        /* \"#utility.yul\":9622:9627   */\n      dup4\n        /* \"#utility.yul\":9618:9634   */\n      add\n        /* \"#utility.yul\":9612:9635   */\n      mload\n        /* \"#utility.yul\":9682:9685   */\n      dup5\n        /* \"#utility.yul\":9676:9680   */\n      dup3\n        /* \"#utility.yul\":9672:9686   */\n      sub\n        /* \"#utility.yul\":9665:9669   */\n      0x00\n        /* \"#utility.yul\":9660:9663   */\n      dup7\n        /* \"#utility.yul\":9656:9670   */\n      add\n        /* \"#utility.yul\":9649:9687   */\n      mstore\n        /* \"#utility.yul\":9708:9781   */\n      tag_295\n        /* \"#utility.yul\":9776:9780   */\n      dup3\n        /* \"#utility.yul\":9762:9774   */\n      dup3\n        /* \"#utility.yul\":9708:9781   */\n      tag_258\n      jump\t// in\n    tag_295:\n        /* \"#utility.yul\":9700:9781   */\n      swap2\n      pop\n        /* \"#utility.yul\":9556:9792   */\n      pop\n        /* \"#utility.yul\":9875:9879   */\n      0x20\n        /* \"#utility.yul\":9868:9873   */\n      dup4\n        /* \"#utility.yul\":9864:9880   */\n      add\n        /* \"#utility.yul\":9858:9881   */\n      mload\n        /* \"#utility.yul\":9928:9931   */\n      dup5\n        /* \"#utility.yul\":9922:9926   */\n      dup3\n        /* \"#utility.yul\":9918:9932   */\n      sub\n        /* \"#utility.yul\":9911:9915   */\n      0x20\n        /* \"#utility.yul\":9906:9909   */\n      dup7\n        /* \"#utility.yul\":9902:9916   */\n      add\n        /* \"#utility.yul\":9895:9933   */\n      mstore\n        /* \"#utility.yul\":9954:10027   */\n      tag_296\n        /* \"#utility.yul\":10022:10026   */\n      dup3\n        /* \"#utility.yul\":10008:10020   */\n      dup3\n        /* \"#utility.yul\":9954:10027   */\n      tag_258\n      jump\t// in\n    tag_296:\n        /* \"#utility.yul\":9946:10027   */\n      swap2\n      pop\n        /* \"#utility.yul\":9802:10038   */\n      pop\n        /* \"#utility.yul\":10122:10126   */\n      0x40\n        /* \"#utility.yul\":10115:10120   */\n      dup4\n        /* \"#utility.yul\":10111:10127   */\n      add\n        /* \"#utility.yul\":10105:10128   */\n      mload\n        /* \"#utility.yul\":10175:10178   */\n      dup5\n        /* \"#utility.yul\":10169:10173   */\n      dup3\n        /* \"#utility.yul\":10165:10179   */\n      sub\n        /* \"#utility.yul\":10158:10162   */\n      0x40\n        /* \"#utility.yul\":10153:10156   */\n      dup7\n        /* \"#utility.yul\":10149:10163   */\n      add\n        /* \"#utility.yul\":10142:10180   */\n      mstore\n        /* \"#utility.yul\":10201:10274   */\n      tag_297\n        /* \"#utility.yul\":10269:10273   */\n      dup3\n        /* \"#utility.yul\":10255:10267   */\n      dup3\n        /* \"#utility.yul\":10201:10274   */\n      tag_258\n      jump\t// in\n    tag_297:\n        /* \"#utility.yul\":10193:10274   */\n      swap2\n      pop\n        /* \"#utility.yul\":10048:10285   */\n      pop\n        /* \"#utility.yul\":10369:10373   */\n      0x60\n        /* \"#utility.yul\":10362:10367   */\n      dup4\n        /* \"#utility.yul\":10358:10374   */\n      add\n        /* \"#utility.yul\":10352:10375   */\n      mload\n        /* \"#utility.yul\":10422:10425   */\n      dup5\n        /* \"#utility.yul\":10416:10420   */\n      dup3\n        /* \"#utility.yul\":10412:10426   */\n      sub\n        /* \"#utility.yul\":10405:10409   */\n      0x60\n        /* \"#utility.yul\":10400:10403   */\n      dup7\n        /* \"#utility.yul\":10396:10410   */\n      add\n        /* \"#utility.yul\":10389:10427   */\n      mstore\n        /* \"#utility.yul\":10448:10521   */\n      tag_298\n        /* \"#utility.yul\":10516:10520   */\n      dup3\n        /* \"#utility.yul\":10502:10514   */\n      dup3\n        /* \"#utility.yul\":10448:10521   */\n      tag_258\n      jump\t// in\n    tag_298:\n        /* \"#utility.yul\":10440:10521   */\n      swap2\n      pop\n        /* \"#utility.yul\":10295:10532   */\n      pop\n        /* \"#utility.yul\":10616:10620   */\n      0x80\n        /* \"#utility.yul\":10609:10614   */\n      dup4\n        /* \"#utility.yul\":10605:10621   */\n      add\n        /* \"#utility.yul\":10599:10622   */\n      mload\n        /* \"#utility.yul\":10669:10672   */\n      dup5\n        /* \"#utility.yul\":10663:10667   */\n      dup3\n        /* \"#utility.yul\":10659:10673   */\n      sub\n        /* \"#utility.yul\":10652:10656   */\n      0x80\n        /* \"#utility.yul\":10647:10650   */\n      dup7\n        /* \"#utility.yul\":10643:10657   */\n      add\n        /* \"#utility.yul\":10636:10674   */\n      mstore\n        /* \"#utility.yul\":10695:10768   */\n      tag_299\n        /* \"#utility.yul\":10763:10767   */\n      dup3\n        /* \"#utility.yul\":10749:10761   */\n      dup3\n        /* \"#utility.yul\":10695:10768   */\n      tag_258\n      jump\t// in\n    tag_299:\n        /* \"#utility.yul\":10687:10768   */\n      swap2\n      pop\n        /* \"#utility.yul\":10542:10779   */\n      pop\n        /* \"#utility.yul\":10796:10800   */\n      dup1\n        /* \"#utility.yul\":10789:10800   */\n      swap2\n      pop\n        /* \"#utility.yul\":9510:10806   */\n      pop\n        /* \"#utility.yul\":9388:10806   */\n      swap3\n      swap2\n      pop\n      pop\n      jump\t// out\n        /* \"#utility.yul\":10864:11940   */\n    tag_300:\n        /* \"#utility.yul\":10975:10978   */\n      0x00\n        /* \"#utility.yul\":11011:11015   */\n      0x60\n        /* \"#utility.yul\":11006:11009   */\n      dup4\n        /* \"#utility.yul\":11002:11016   */\n      add\n        /* \"#utility.yul\":11102:11106   */\n      0x00\n        /* \"#utility.yul\":11095:11100   */\n      dup4\n        /* \"#utility.yul\":11091:11107   */\n      add\n        /* \"#utility.yul\":11085:11108   */\n      mload\n        /* \"#utility.yul\":11155:11158   */\n      dup5\n        /* \"#utility.yul\":11149:11153   */\n      dup3\n        /* \"#utility.yul\":11145:11159   */\n      sub\n        /* \"#utility.yul\":11138:11142   */\n      0x00\n        /* \"#utility.yul\":11133:11136   */\n      dup7\n        /* \"#utility.yul\":11129:11143   */\n      add\n        /* \"#utility.yul\":11122:11160   */\n      mstore\n        /* \"#utility.yul\":11181:11304   */\n      tag_302\n        /* \"#utility.yul\":11299:11303   */\n      dup3\n        /* \"#utility.yul\":11285:11297   */\n      dup3\n        /* \"#utility.yul\":11181:11304   */\n      tag_263\n      jump\t// in\n    tag_302:\n        /* \"#utility.yul\":11173:11304   */\n      swap2\n      pop\n        /* \"#utility.yul\":11026:11315   */\n      pop\n        /* \"#utility.yul\":11400:11404   */\n      0x20\n        /* \"#utility.yul\":11393:11398   */\n      dup4\n        /* \"#utility.yul\":11389:11405   */\n      add\n        /* \"#utility.yul\":11383:11406   */\n      mload\n        /* \"#utility.yul\":11453:11456   */\n      dup5\n        /* \"#utility.yul\":11447:11451   */\n      dup3\n        /* \"#utility.yul\":11443:11457   */\n      sub\n        /* \"#utility.yul\":11436:11440   */\n      0x20\n        /* \"#utility.yul\":11431:11434   */\n      dup7\n        /* \"#utility.yul\":11427:11441   */\n      add\n        /* \"#utility.yul\":11420:11458   */\n      mstore\n        /* \"#utility.yul\":11479:11602   */\n      tag_303\n        /* \"#utility.yul\":11597:11601   */\n      dup3\n        /* \"#utility.yul\":11583:11595   */\n      dup3\n        /* \"#utility.yul\":11479:11602   */\n      tag_263\n      jump\t// in\n    tag_303:\n        /* \"#utility.yul\":11471:11602   */\n      swap2\n      pop\n        /* \"#utility.yul\":11325:11613   */\n      pop\n        /* \"#utility.yul\":11700:11704   */\n      0x40\n        /* \"#utility.yul\":11693:11698   */\n      dup4\n        /* \"#utility.yul\":11689:11705   */\n      add\n        /* \"#utility.yul\":11683:11706   */\n      mload\n        /* \"#utility.yul\":11753:11756   */\n      dup5\n        /* \"#utility.yul\":11747:11751   */\n      dup3\n        /* \"#utility.yul\":11743:11757   */\n      sub\n        /* \"#utility.yul\":11736:11740   */\n      0x40\n        /* \"#utility.yul\":11731:11734   */\n      dup7\n        /* \"#utility.yul\":11727:11741   */\n      add\n        /* \"#utility.yul\":11720:11758   */\n      mstore\n        /* \"#utility.yul\":11779:11902   */\n      tag_304\n        /* \"#utility.yul\":11897:11901   */\n      dup3\n        /* \"#utility.yul\":11883:11895   */\n      dup3\n        /* \"#utility.yul\":11779:11902   */\n      tag_263\n      jump\t// in\n    tag_304:\n        /* \"#utility.yul\":11771:11902   */\n      swap2\n      pop\n        /* \"#utility.yul\":11623:11913   */\n      pop\n        /* \"#utility.yul\":11930:11934   */\n      dup1\n        /* \"#utility.yul\":11923:11934   */\n      swap2\n      pop\n        /* \"#utility.yul\":10980:11940   */\n      pop\n        /* \"#utility.yul\":10864:11940   */\n      swap3\n      swap2\n      pop\n      pop\n      jump\t// out\n        /* \"#utility.yul\":11946:12064   */\n    tag_305:\n        /* \"#utility.yul\":12033:12057   */\n      tag_307\n        /* \"#utility.yul\":12051:12056   */\n      dup2\n        /* \"#utility.yul\":12033:12057   */\n      tag_308\n      jump\t// in\n    tag_307:\n        /* \"#utility.yul\":12028:12031   */\n      dup3\n        /* \"#utility.yul\":12021:12058   */\n      mstore\n        /* \"#utility.yul\":11946:12064   */\n      pop\n      pop\n      jump\t// out\n        /* \"#utility.yul\":12070:13713   */\n    tag_25:\n        /* \"#utility.yul\":12529:12533   */\n      0x00\n        /* \"#utility.yul\":12567:12570   */\n      0x0100\n        /* \"#utility.yul\":12556:12565   */\n      dup3\n        /* \"#utility.yul\":12552:12571   */\n      add\n        /* \"#utility.yul\":12544:12571   */\n      swap1\n      pop\n        /* \"#utility.yul\":12581:12652   */\n      tag_310\n        /* \"#utility.yul\":12649:12650   */\n      0x00\n        /* \"#utility.yul\":12638:12647   */\n      dup4\n        /* \"#utility.yul\":12634:12651   */\n      add\n        /* \"#utility.yul\":12625:12631   */\n      dup12\n        /* \"#utility.yul\":12581:12652   */\n      tag_259\n      jump\t// in\n    tag_310:\n        /* \"#utility.yul\":12699:12708   */\n      dup2\n        /* \"#utility.yul\":12693:12697   */\n      dup2\n        /* \"#utility.yul\":12689:12709   */\n      sub\n        /* \"#utility.yul\":12684:12686   */\n      0x20\n        /* \"#utility.yul\":12673:12682   */\n      dup4\n        /* \"#utility.yul\":12669:12687   */\n      add\n        /* \"#utility.yul\":12662:12710   */\n      mstore\n        /* \"#utility.yul\":12727:12805   */\n      tag_311\n        /* \"#utility.yul\":12800:12804   */\n      dup2\n        /* \"#utility.yul\":12791:12797   */\n      dup11\n        /* \"#utility.yul\":12727:12805   */\n      tag_286\n      jump\t// in\n    tag_311:\n        /* \"#utility.yul\":12719:12805   */\n      swap1\n      pop\n        /* \"#utility.yul\":12852:12861   */\n      dup2\n        /* \"#utility.yul\":12846:12850   */\n      dup2\n        /* \"#utility.yul\":12842:12862   */\n      sub\n        /* \"#utility.yul\":12837:12839   */\n      0x40\n        /* \"#utility.yul\":12826:12835   */\n      dup4\n        /* \"#utility.yul\":12822:12840   */\n      add\n        /* \"#utility.yul\":12815:12863   */\n      mstore\n        /* \"#utility.yul\":12880:12958   */\n      tag_312\n        /* \"#utility.yul\":12953:12957   */\n      dup2\n        /* \"#utility.yul\":12944:12950   */\n      dup10\n        /* \"#utility.yul\":12880:12958   */\n      tag_286\n      jump\t// in\n    tag_312:\n        /* \"#utility.yul\":12872:12958   */\n      swap1\n      pop\n        /* \"#utility.yul\":13005:13014   */\n      dup2\n        /* \"#utility.yul\":12999:13003   */\n      dup2\n        /* \"#utility.yul\":12995:13015   */\n      sub\n        /* \"#utility.yul\":12990:12992   */\n      0x60\n        /* \"#utility.yul\":12979:12988   */\n      dup4\n        /* \"#utility.yul\":12975:12993   */\n      add\n        /* \"#utility.yul\":12968:13016   */\n      mstore\n        /* \"#utility.yul\":13033:13111   */\n      tag_313\n        /* \"#utility.yul\":13106:13110   */\n      dup2\n        /* \"#utility.yul\":13097:13103   */\n      dup9\n        /* \"#utility.yul\":13033:13111   */\n      tag_286\n      jump\t// in\n    tag_313:\n        /* \"#utility.yul\":13025:13111   */\n      swap1\n      pop\n        /* \"#utility.yul\":13159:13168   */\n      dup2\n        /* \"#utility.yul\":13153:13157   */\n      dup2\n        /* \"#utility.yul\":13149:13169   */\n      sub\n        /* \"#utility.yul\":13143:13146   */\n      0x80\n        /* \"#utility.yul\":13132:13141   */\n      dup4\n        /* \"#utility.yul\":13128:13147   */\n      add\n        /* \"#utility.yul\":13121:13170   */\n      mstore\n        /* \"#utility.yul\":13187:13265   */\n      tag_314\n        /* \"#utility.yul\":13260:13264   */\n      dup2\n        /* \"#utility.yul\":13251:13257   */\n      dup8\n        /* \"#utility.yul\":13187:13265   */\n      tag_286\n      jump\t// in\n    tag_314:\n        /* \"#utility.yul\":13179:13265   */\n      swap1\n      pop\n        /* \"#utility.yul\":13275:13348   */\n      tag_315\n        /* \"#utility.yul\":13343:13346   */\n      0xa0\n        /* \"#utility.yul\":13332:13341   */\n      dup4\n        /* \"#utility.yul\":13328:13347   */\n      add\n        /* \"#utility.yul\":13319:13325   */\n      dup7\n        /* \"#utility.yul\":13275:13348   */\n      tag_305\n      jump\t// in\n    tag_315:\n        /* \"#utility.yul\":13396:13405   */\n      dup2\n        /* \"#utility.yul\":13390:13394   */\n      dup2\n        /* \"#utility.yul\":13386:13406   */\n      sub\n        /* \"#utility.yul\":13380:13383   */\n      0xc0\n        /* \"#utility.yul\":13369:13378   */\n      dup4\n        /* \"#utility.yul\":13365:13384   */\n      add\n        /* \"#utility.yul\":13358:13407   */\n      mstore\n        /* \"#utility.yul\":13424:13530   */\n      tag_316\n        /* \"#utility.yul\":13525:13529   */\n      dup2\n        /* \"#utility.yul\":13516:13522   */\n      dup6\n        /* \"#utility.yul\":13424:13530   */\n      tag_293\n      jump\t// in\n    tag_316:\n        /* \"#utility.yul\":13416:13530   */\n      swap1\n      pop\n        /* \"#utility.yul\":13578:13587   */\n      dup2\n        /* \"#utility.yul\":13572:13576   */\n      dup2\n        /* \"#utility.yul\":13568:13588   */\n      sub\n        /* \"#utility.yul\":13562:13565   */\n      0xe0\n        /* \"#utility.yul\":13551:13560   */\n      dup4\n        /* \"#utility.yul\":13547:13566   */\n      add\n        /* \"#utility.yul\":13540:13589   */\n      mstore\n        /* \"#utility.yul\":13606:13706   */\n      tag_317\n        /* \"#utility.yul\":13701:13705   */\n      dup2\n        /* \"#utility.yul\":13692:13698   */\n      dup5\n        /* \"#utility.yul\":13606:13706   */\n      tag_300\n      jump\t// in\n    tag_317:\n        /* \"#utility.yul\":13598:13706   */\n      swap1\n      pop\n        /* \"#utility.yul\":12070:13713   */\n      swap10\n      swap9\n      pop\n      pop\n      pop\n      pop\n      pop\n      pop\n      pop\n      pop\n      pop\n      jump\t// out\n        /* \"#utility.yul\":13719:13848   */\n    tag_169:\n        /* \"#utility.yul\":13753:13759   */\n      0x00\n        /* \"#utility.yul\":13780:13800   */\n      tag_319\n      tag_320\n      jump\t// in\n    tag_319:\n        /* \"#utility.yul\":13770:13800   */\n      swap1\n      pop\n        /* \"#utility.yul\":13809:13842   */\n      tag_321\n        /* \"#utility.yul\":13837:13841   */\n      dup3\n        /* \"#utility.yul\":13829:13835   */\n      dup3\n        /* \"#utility.yul\":13809:13842   */\n      tag_322\n      jump\t// in\n    tag_321:\n        /* \"#utility.yul\":13719:13848   */\n      swap2\n      swap1\n      pop\n      jump\t// out\n        /* \"#utility.yul\":13854:13929   */\n    tag_320:\n        /* \"#utility.yul\":13887:13893   */\n      0x00\n        /* \"#utility.yul\":13920:13922   */\n      0x40\n        /* \"#utility.yul\":13914:13923   */\n      mload\n        /* \"#utility.yul\":13904:13923   */\n      swap1\n      pop\n        /* \"#utility.yul\":13854:13929   */\n      swap1\n      jump\t// out\n        /* \"#utility.yul\":13935:14256   */\n    tag_168:\n        /* \"#utility.yul\":14022:14026   */\n      0x00\n        /* \"#utility.yul\":14112:14130   */\n      0xffffffffffffffff\n        /* \"#utility.yul\":14104:14110   */\n      dup3\n        /* \"#utility.yul\":14101:14131   */\n      gt\n        /* \"#utility.yul\":14098:14154   */\n      iszero\n      tag_325\n      jumpi\n        /* \"#utility.yul\":14134:14152   */\n      tag_326\n      tag_327\n      jump\t// in\n    tag_326:\n        /* \"#utility.yul\":14098:14154   */\n    tag_325:\n        /* \"#utility.yul\":14184:14188   */\n      0x20\n        /* \"#utility.yul\":14176:14182   */\n      dup3\n        /* \"#utility.yul\":14172:14189   */\n      mul\n        /* \"#utility.yul\":14164:14189   */\n      swap1\n      pop\n        /* \"#utility.yul\":14244:14248   */\n      0x20\n        /* \"#utility.yul\":14238:14242   */\n      dup2\n        /* \"#utility.yul\":14234:14249   */\n      add\n        /* \"#utility.yul\":14226:14249   */\n      swap1\n      pop\n        /* \"#utility.yul\":13935:14256   */\n      swap2\n      swap1\n      pop\n      jump\t// out\n        /* \"#utility.yul\":14262:14570   */\n    tag_185:\n        /* \"#utility.yul\":14324:14328   */\n      0x00\n        /* \"#utility.yul\":14414:14432   */\n      0xffffffffffffffff\n        /* \"#utility.yul\":14406:14412   */\n      dup3\n        /* \"#utility.yul\":14403:14433   */\n      gt\n        /* \"#utility.yul\":14400:14456   */\n      iszero\n      tag_329\n      jumpi\n        /* \"#utility.yul\":14436:14454   */\n      tag_330\n      tag_327\n      jump\t// in\n    tag_330:\n        /* \"#utility.yul\":14400:14456   */\n    tag_329:\n        /* \"#utility.yul\":14474:14503   */\n      tag_331\n        /* \"#utility.yul\":14496:14502   */\n      dup3\n        /* \"#utility.yul\":14474:14503   */\n      tag_285\n      jump\t// in\n    tag_331:\n        /* \"#utility.yul\":14466:14503   */\n      swap1\n      pop\n        /* \"#utility.yul\":14558:14562   */\n      0x20\n        /* \"#utility.yul\":14552:14556   */\n      dup2\n        /* \"#utility.yul\":14548:14563   */\n      add\n        /* \"#utility.yul\":14540:14563   */\n      swap1\n      pop\n        /* \"#utility.yul\":14262:14570   */\n      swap2\n      swap1\n      pop\n      jump\t// out\n        /* \"#utility.yul\":14576:14718   */\n    tag_270:\n        /* \"#utility.yul\":14653:14657   */\n      0x00\n        /* \"#utility.yul\":14676:14679   */\n      dup2\n        /* \"#utility.yul\":14668:14679   */\n      swap1\n      pop\n        /* \"#utility.yul\":14706:14710   */\n      0x20\n        /* \"#utility.yul\":14701:14704   */\n      dup3\n        /* \"#utility.yul\":14697:14711   */\n      add\n        /* \"#utility.yul\":14689:14711   */\n      swap1\n      pop\n        /* \"#utility.yul\":14576:14718   */\n      swap2\n      swap1\n      pop\n      jump\t// out\n        /* \"#utility.yul\":14724:14848   */\n    tag_266:\n        /* \"#utility.yul\":14801:14807   */\n      0x00\n        /* \"#utility.yul\":14835:14840   */\n      dup2\n        /* \"#utility.yul\":14829:14841   */\n      mload\n        /* \"#utility.yul\":14819:14841   */\n      swap1\n      pop\n        /* \"#utility.yul\":14724:14848   */\n      swap2\n      swap1\n      pop\n      jump\t// out\n        /* \"#utility.yul\":14854:14953   */\n    tag_279:\n        /* \"#utility.yul\":14906:14912   */\n      0x00\n        /* \"#utility.yul\":14940:14945   */\n      dup2\n        /* \"#utility.yul\":14934:14946   */\n      mload\n        /* \"#utility.yul\":14924:14946   */\n      swap1\n      pop\n        /* \"#utility.yul\":14854:14953   */\n      swap2\n      swap1\n      pop\n      jump\t// out\n        /* \"#utility.yul\":14959:15082   */\n    tag_276:\n        /* \"#utility.yul\":15039:15043   */\n      0x00\n        /* \"#utility.yul\":15071:15075   */\n      0x20\n        /* \"#utility.yul\":15066:15069   */\n      dup3\n        /* \"#utility.yul\":15062:15076   */\n      add\n        /* \"#utility.yul\":15054:15076   */\n      swap1\n      pop\n        /* \"#utility.yul\":14959:15082   */\n      swap2\n      swap1\n      pop\n      jump\t// out\n        /* \"#utility.yul\":15088:15272   */\n    tag_268:\n        /* \"#utility.yul\":15187:15198   */\n      0x00\n        /* \"#utility.yul\":15221:15227   */\n      dup3\n        /* \"#utility.yul\":15216:15219   */\n      dup3\n        /* \"#utility.yul\":15209:15228   */\n      mstore\n        /* \"#utility.yul\":15261:15265   */\n      0x20\n        /* \"#utility.yul\":15256:15259   */\n      dup3\n        /* \"#utility.yul\":15252:15266   */\n      add\n        /* \"#utility.yul\":15237:15266   */\n      swap1\n      pop\n        /* \"#utility.yul\":15088:15272   */\n      swap3\n      swap2\n      pop\n      pop\n      jump\t// out\n        /* \"#utility.yul\":15278:15437   */\n    tag_281:\n        /* \"#utility.yul\":15352:15363   */\n      0x00\n        /* \"#utility.yul\":15386:15392   */\n      dup3\n        /* \"#utility.yul\":15381:15384   */\n      dup3\n        /* \"#utility.yul\":15374:15393   */\n      mstore\n        /* \"#utility.yul\":15426:15430   */\n      0x20\n        /* \"#utility.yul\":15421:15424   */\n      dup3\n        /* \"#utility.yul\":15417:15431   */\n      add\n        /* \"#utility.yul\":15402:15431   */\n      swap1\n      pop\n        /* \"#utility.yul\":15278:15437   */\n      swap3\n      swap2\n      pop\n      pop\n      jump\t// out\n        /* \"#utility.yul\":15443:15612   */\n    tag_290:\n        /* \"#utility.yul\":15527:15538   */\n      0x00\n        /* \"#utility.yul\":15561:15567   */\n      dup3\n        /* \"#utility.yul\":15556:15559   */\n      dup3\n        /* \"#utility.yul\":15549:15568   */\n      mstore\n        /* \"#utility.yul\":15601:15605   */\n      0x20\n        /* \"#utility.yul\":15596:15599   */\n      dup3\n        /* \"#utility.yul\":15592:15606   */\n      add\n        /* \"#utility.yul\":15577:15606   */\n      swap1\n      pop\n        /* \"#utility.yul\":15443:15612   */\n      swap3\n      swap2\n      pop\n      pop\n      jump\t// out\n        /* \"#utility.yul\":15618:15714   */\n    tag_262:\n        /* \"#utility.yul\":15655:15662   */\n      0x00\n        /* \"#utility.yul\":15684:15708   */\n      tag_340\n        /* \"#utility.yul\":15702:15707   */\n      dup3\n        /* \"#utility.yul\":15684:15708   */\n      tag_341\n      jump\t// in\n    tag_340:\n        /* \"#utility.yul\":15673:15708   */\n      swap1\n      pop\n        /* \"#utility.yul\":15618:15714   */\n      swap2\n      swap1\n      pop\n      jump\t// out\n        /* \"#utility.yul\":15720:15846   */\n    tag_341:\n        /* \"#utility.yul\":15757:15764   */\n      0x00\n        /* \"#utility.yul\":15797:15839   */\n      0xffffffffffffffffffffffffffffffffffffffff\n        /* \"#utility.yul\":15790:15795   */\n      dup3\n        /* \"#utility.yul\":15786:15840   */\n      and\n        /* \"#utility.yul\":15775:15840   */\n      swap1\n      pop\n        /* \"#utility.yul\":15720:15846   */\n      swap2\n      swap1\n      pop\n      jump\t// out\n        /* \"#utility.yul\":15852:15929   */\n    tag_308:\n        /* \"#utility.yul\":15889:15896   */\n      0x00\n        /* \"#utility.yul\":15918:15923   */\n      dup2\n        /* \"#utility.yul\":15907:15923   */\n      swap1\n      pop\n        /* \"#utility.yul\":15852:15929   */\n      swap2\n      swap1\n      pop\n      jump\t// out\n        /* \"#utility.yul\":15935:16089   */\n    tag_190:\n        /* \"#utility.yul\":16019:16025   */\n      dup3\n        /* \"#utility.yul\":16014:16017   */\n      dup2\n        /* \"#utility.yul\":16009:16012   */\n      dup4\n        /* \"#utility.yul\":15996:16026   */\n      calldatacopy\n        /* \"#utility.yul\":16081:16082   */\n      0x00\n        /* \"#utility.yul\":16072:16078   */\n      dup4\n        /* \"#utility.yul\":16067:16070   */\n      dup4\n        /* \"#utility.yul\":16063:16079   */\n      add\n        /* \"#utility.yul\":16056:16083   */\n      mstore\n        /* \"#utility.yul\":15935:16089   */\n      pop\n      pop\n      pop\n      jump\t// out\n        /* \"#utility.yul\":16095:16402   */\n    tag_283:\n        /* \"#utility.yul\":16163:16164   */\n      0x00\n        /* \"#utility.yul\":16173:16286   */\n    tag_346:\n        /* \"#utility.yul\":16187:16193   */\n      dup4\n        /* \"#utility.yul\":16184:16185   */\n      dup2\n        /* \"#utility.yul\":16181:16194   */\n      lt\n        /* \"#utility.yul\":16173:16286   */\n      iszero\n      tag_348\n      jumpi\n        /* \"#utility.yul\":16272:16273   */\n      dup1\n        /* \"#utility.yul\":16267:16270   */\n      dup3\n        /* \"#utility.yul\":16263:16274   */\n      add\n        /* \"#utility.yul\":16257:16275   */\n      mload\n        /* \"#utility.yul\":16253:16254   */\n      dup2\n        /* \"#utility.yul\":16248:16251   */\n      dup5\n        /* \"#utility.yul\":16244:16255   */\n      add\n        /* \"#utility.yul\":16237:16276   */\n      mstore\n        /* \"#utility.yul\":16209:16211   */\n      0x20\n        /* \"#utility.yul\":16206:16207   */\n      dup2\n        /* \"#utility.yul\":16202:16212   */\n      add\n        /* \"#utility.yul\":16197:16212   */\n      swap1\n      pop\n        /* \"#utility.yul\":16173:16286   */\n      jump(tag_346)\n    tag_348:\n        /* \"#utility.yul\":16304:16310   */\n      dup4\n        /* \"#utility.yul\":16301:16302   */\n      dup2\n        /* \"#utility.yul\":16298:16311   */\n      gt\n        /* \"#utility.yul\":16295:16396   */\n      iszero\n      tag_349\n      jumpi\n        /* \"#utility.yul\":16384:16385   */\n      0x00\n        /* \"#utility.yul\":16375:16381   */\n      dup5\n        /* \"#utility.yul\":16370:16373   */\n      dup5\n        /* \"#utility.yul\":16366:16382   */\n      add\n        /* \"#utility.yul\":16359:16386   */\n      mstore\n        /* \"#utility.yul\":16295:16396   */\n    tag_349:\n        /* \"#utility.yul\":16144:16402   */\n      pop\n        /* \"#utility.yul\":16095:16402   */\n      pop\n      pop\n      pop\n      jump\t// out\n        /* \"#utility.yul\":16408:16728   */\n    tag_56:\n        /* \"#utility.yul\":16452:16458   */\n      0x00\n        /* \"#utility.yul\":16489:16490   */\n      0x02\n        /* \"#utility.yul\":16483:16487   */\n      dup3\n        /* \"#utility.yul\":16479:16491   */\n      div\n        /* \"#utility.yul\":16469:16491   */\n      swap1\n      pop\n        /* \"#utility.yul\":16536:16537   */\n      0x01\n        /* \"#utility.yul\":16530:16534   */\n      dup3\n        /* \"#utility.yul\":16526:16538   */\n      and\n        /* \"#utility.yul\":16557:16575   */\n      dup1\n        /* \"#utility.yul\":16547:16628   */\n      tag_351\n      jumpi\n        /* \"#utility.yul\":16613:16617   */\n      0x7f\n        /* \"#utility.yul\":16605:16611   */\n      dup3\n        /* \"#utility.yul\":16601:16618   */\n      and\n        /* \"#utility.yul\":16591:16618   */\n      swap2\n      pop\n        /* \"#utility.yul\":16547:16628   */\n    tag_351:\n        /* \"#utility.yul\":16675:16677   */\n      0x20\n        /* \"#utility.yul\":16667:16673   */\n      dup3\n        /* \"#utility.yul\":16664:16678   */\n      lt\n        /* \"#utility.yul\":16644:16662   */\n      dup2\n        /* \"#utility.yul\":16641:16679   */\n      eq\n        /* \"#utility.yul\":16638:16722   */\n      iszero\n      tag_352\n      jumpi\n        /* \"#utility.yul\":16694:16712   */\n      tag_353\n      tag_354\n      jump\t// in\n    tag_353:\n        /* \"#utility.yul\":16638:16722   */\n    tag_352:\n        /* \"#utility.yul\":16459:16728   */\n      pop\n        /* \"#utility.yul\":16408:16728   */\n      swap2\n      swap1\n      pop\n      jump\t// out\n        /* \"#utility.yul\":16734:17015   */\n    tag_322:\n        /* \"#utility.yul\":16817:16844   */\n      tag_356\n        /* \"#utility.yul\":16839:16843   */\n      dup3\n        /* \"#utility.yul\":16817:16844   */\n      tag_285\n      jump\t// in\n    tag_356:\n        /* \"#utility.yul\":16809:16815   */\n      dup2\n        /* \"#utility.yul\":16805:16845   */\n      add\n        /* \"#utility.yul\":16947:16953   */\n      dup2\n        /* \"#utility.yul\":16935:16945   */\n      dup2\n        /* \"#utility.yul\":16932:16954   */\n      lt\n        /* \"#utility.yul\":16911:16929   */\n      0xffffffffffffffff\n        /* \"#utility.yul\":16899:16909   */\n      dup3\n        /* \"#utility.yul\":16896:16930   */\n      gt\n        /* \"#utility.yul\":16893:16955   */\n      or\n        /* \"#utility.yul\":16890:16978   */\n      iszero\n      tag_357\n      jumpi\n        /* \"#utility.yul\":16958:16976   */\n      tag_358\n      tag_327\n      jump\t// in\n    tag_358:\n        /* \"#utility.yul\":16890:16978   */\n    tag_357:\n        /* \"#utility.yul\":16998:17008   */\n      dup1\n        /* \"#utility.yul\":16994:16996   */\n      0x40\n        /* \"#utility.yul\":16987:17009   */\n      mstore\n        /* \"#utility.yul\":16777:17015   */\n      pop\n        /* \"#utility.yul\":16734:17015   */\n      pop\n      pop\n      jump\t// out\n        /* \"#utility.yul\":17021:17201   */\n    tag_354:\n        /* \"#utility.yul\":17069:17146   */\n      0x4e487b7100000000000000000000000000000000000000000000000000000000\n        /* \"#utility.yul\":17066:17067   */\n      0x00\n        /* \"#utility.yul\":17059:17147   */\n      mstore\n        /* \"#utility.yul\":17166:17170   */\n      0x22\n        /* \"#utility.yul\":17163:17164   */\n      0x04\n        /* \"#utility.yul\":17156:17171   */\n      mstore\n        /* \"#utility.yul\":17190:17194   */\n      0x24\n        /* \"#utility.yul\":17187:17188   */\n      0x00\n        /* \"#utility.yul\":17180:17195   */\n      revert\n        /* \"#utility.yul\":17207:17387   */\n    tag_327:\n        /* \"#utility.yul\":17255:17332   */\n      0x4e487b7100000000000000000000000000000000000000000000000000000000\n        /* \"#utility.yul\":17252:17253   */\n      0x00\n        /* \"#utility.yul\":17245:17333   */\n      mstore\n        /* \"#utility.yul\":17352:17356   */\n      0x41\n        /* \"#utility.yul\":17349:17350   */\n      0x04\n        /* \"#utility.yul\":17342:17357   */\n      mstore\n        /* \"#utility.yul\":17376:17380   */\n      0x24\n        /* \"#utility.yul\":17373:17374   */\n      0x00\n        /* \"#utility.yul\":17366:17381   */\n      revert\n        /* \"#utility.yul\":17393:17510   */\n    tag_178:\n        /* \"#utility.yul\":17502:17503   */\n      0x00\n        /* \"#utility.yul\":17499:17500   */\n      dup1\n        /* \"#utility.yul\":17492:17504   */\n      revert\n        /* \"#utility.yul\":17516:17633   */\n    tag_172:\n        /* \"#utility.yul\":17625:17626   */\n      0x00\n        /* \"#utility.yul\":17622:17623   */\n      dup1\n        /* \"#utility.yul\":17615:17627   */\n      revert\n        /* \"#utility.yul\":17639:17756   */\n    tag_188:\n        /* \"#utility.yul\":17748:17749   */\n      0x00\n        /* \"#utility.yul\":17745:17746   */\n      dup1\n        /* \"#utility.yul\":17738:17750   */\n      revert\n        /* \"#utility.yul\":17762:17879   */\n    tag_214:\n        /* \"#utility.yul\":17871:17872   */\n      0x00\n        /* \"#utility.yul\":17868:17869   */\n      dup1\n        /* \"#utility.yul\":17861:17873   */\n      revert\n        /* \"#utility.yul\":17885:18002   */\n    tag_207:\n        /* \"#utility.yul\":17994:17995   */\n      0x00\n        /* \"#utility.yul\":17991:17992   */\n      dup1\n        /* \"#utility.yul\":17984:17996   */\n      revert\n        /* \"#utility.yul\":18008:18110   */\n    tag_285:\n        /* \"#utility.yul\":18049:18055   */\n      0x00\n        /* \"#utility.yul\":18100:18102   */\n      0x1f\n        /* \"#utility.yul\":18096:18103   */\n      not\n        /* \"#utility.yul\":18091:18093   */\n      0x1f\n        /* \"#utility.yul\":18084:18089   */\n      dup4\n        /* \"#utility.yul\":18080:18094   */\n      add\n        /* \"#utility.yul\":18076:18104   */\n      and\n        /* \"#utility.yul\":18066:18104   */\n      swap1\n      pop\n        /* \"#utility.yul\":18008:18110   */\n      swap2\n      swap1\n      pop\n      jump\t// out\n        /* \"#utility.yul\":18116:18238   */\n    tag_194:\n        /* \"#utility.yul\":18189:18213   */\n      tag_368\n        /* \"#utility.yul\":18207:18212   */\n      dup2\n        /* \"#utility.yul\":18189:18213   */\n      tag_262\n      jump\t// in\n    tag_368:\n        /* \"#utility.yul\":18182:18187   */\n      dup2\n        /* \"#utility.yul\":18179:18214   */\n      eq\n        /* \"#utility.yul\":18169:18232   */\n      tag_369\n      jumpi\n        /* \"#utility.yul\":18228:18229   */\n      0x00\n        /* \"#utility.yul\":18225:18226   */\n      dup1\n        /* \"#utility.yul\":18218:18230   */\n      revert\n        /* \"#utility.yul\":18169:18232   */\n    tag_369:\n        /* \"#utility.yul\":18116:18238   */\n      pop\n      jump\t// out\n\n    auxdata: 0xa2646970667358221220d304fca76eb80657ef630c67c5a4e24ad0452f82a5d49cd234368655ea9b2c6464736f6c63430008070033\n}\n",
				"bytecode": {
					"linkReferences": {},
					"object": "608060405234801561001057600080fd5b50611afc806100206000396000f3fe608060405234801561001057600080fd5b50600436106100575760003560e01c80633d984d0e1461005c57806372828388146100785780638c241fc4146100945780639dd9d0fd146100b0578063fabce08f146100e7575b600080fd5b61007660048036038101906100719190611328565b6100f1565b005b610092600480360381019061008d91906114a6565b610275565b005b6100ae60048036038101906100a991906113cf565b6104cd565b005b6100ca60048036038101906100c591906112fb565b6106f1565b6040516100de9897969594939291906117b6565b60405180910390f35b6100ef610ef2565b005b6000803373ffffffffffffffffffffffffffffffffffffffff1673ffffffffffffffffffffffffffffffffffffffff168152602001908152602001600020600b01600080820160006101439190611032565b6001820160006101539190611032565b6002820160006101639190611032565b5050826000803373ffffffffffffffffffffffffffffffffffffffff1673ffffffffffffffffffffffffffffffffffffffff168152602001908152602001600020600b0160000190805190602001906101bd929190611053565b50816000803373ffffffffffffffffffffffffffffffffffffffff1673ffffffffffffffffffffffffffffffffffffffff168152602001908152602001600020600b016001019080519060200190610216929190611053565b50806000803373ffffffffffffffffffffffffffffffffffffffff1673ffffffffffffffffffffffffffffffffffffffff168152602001908152602001600020600b01600201908051906020019061026f929190611053565b50505050565b6000803373ffffffffffffffffffffffffffffffffffffffff1673ffffffffffffffffffffffffffffffffffffffff168152602001908152602001600020600601600080820160006102c791906110b3565b6001820160006102d791906110b3565b6002820160006102e791906110b3565b6003820160006102f791906110b3565b60048201600061030791906110b3565b5050846000803373ffffffffffffffffffffffffffffffffffffffff1673ffffffffffffffffffffffffffffffffffffffff16815260200190815260200160002060060160000190805190602001906103619291906110f3565b50836000803373ffffffffffffffffffffffffffffffffffffffff1673ffffffffffffffffffffffffffffffffffffffff16815260200190815260200160002060060160010190805190602001906103ba9291906110f3565b50826000803373ffffffffffffffffffffffffffffffffffffffff1673ffffffffffffffffffffffffffffffffffffffff16815260200190815260200160002060060160000190805190602001906104139291906110f3565b50816000803373ffffffffffffffffffffffffffffffffffffffff1673ffffffffffffffffffffffffffffffffffffffff168152602001908152602001600020600601600101908051906020019061046c9291906110f3565b50806000803373ffffffffffffffffffffffffffffffffffffffff1673ffffffffffffffffffffffffffffffffffffffff16815260200190815260200160002060060160000190805190602001906104c59291906110f3565b505050505050565b836000803373ffffffffffffffffffffffffffffffffffffffff1673ffffffffffffffffffffffffffffffffffffffff16815260200190815260200160002060010190805190602001906105229291906110f3565b50826000803373ffffffffffffffffffffffffffffffffffffffff1673ffffffffffffffffffffffffffffffffffffffff16815260200190815260200160002060020190805190602001906105789291906110f3565b50816000803373ffffffffffffffffffffffffffffffffffffffff1673ffffffffffffffffffffffffffffffffffffffff16815260200190815260200160002060030190805190602001906105ce9291906110f3565b50806000803373ffffffffffffffffffffffffffffffffffffffff1673ffffffffffffffffffffffffffffffffffffffff16815260200190815260200160002060040190805190602001906106249291906110f3565b50336000803373ffffffffffffffffffffffffffffffffffffffff1673ffffffffffffffffffffffffffffffffffffffff16815260200190815260200160002060000160006101000a81548173ffffffffffffffffffffffffffffffffffffffff021916908373ffffffffffffffffffffffffffffffffffffffff160217905550426000803373ffffffffffffffffffffffffffffffffffffffff1673ffffffffffffffffffffffffffffffffffffffff1681526020019081526020016000206005018190555050505050565b60006020528060005260406000206000915090508060000160009054906101000a900473ffffffffffffffffffffffffffffffffffffffff169080600101805461073a906119c4565b80601f0160208091040260200160405190810160405280929190818152602001828054610766906119c4565b80156107b35780601f10610788576101008083540402835291602001916107b3565b820191906000526020600020905b81548152906001019060200180831161079657829003601f168201915b5050505050908060020180546107c8906119c4565b80601f01602080910402602001604051908101604052809291908181526020018280546107f4906119c4565b80156108415780601f1061081657610100808354040283529160200191610841565b820191906000526020600020905b81548152906001019060200180831161082457829003601f168201915b505050505090806003018054610856906119c4565b80601f0160208091040260200160405190810160405280929190818152602001828054610882906119c4565b80156108cf5780601f106108a4576101008083540402835291602001916108cf565b820191906000526020600020905b8154815290600101906020018083116108b257829003601f168201915b5050505050908060040180546108e4906119c4565b80601f0160208091040260200160405190810160405280929190818152602001828054610910906119c4565b801561095d5780601f106109325761010080835404028352916020019161095d565b820191906000526020600020905b81548152906001019060200180831161094057829003601f168201915b505050505090806005015490806006016040518060a0016040529081600082018054610988906119c4565b80601f01602080910402602001604051908101604052809291908181526020018280546109b4906119c4565b8015610a015780601f106109d657610100808354040283529160200191610a01565b820191906000526020600020905b8154815290600101906020018083116109e457829003601f168201915b50505050508152602001600182018054610a1a906119c4565b80601f0160208091040260200160405190810160405280929190818152602001828054610a46906119c4565b8015610a935780601f10610a6857610100808354040283529160200191610a93565b820191906000526020600020905b815481529060010190602001808311610a7657829003601f168201915b50505050508152602001600282018054610aac906119c4565b80601f0160208091040260200160405190810160405280929190818152602001828054610ad8906119c4565b8015610b255780601f10610afa57610100808354040283529160200191610b25565b820191906000526020600020905b815481529060010190602001808311610b0857829003601f168201915b50505050508152602001600382018054610b3e906119c4565b80601f0160208091040260200160405190810160405280929190818152602001828054610b6a906119c4565b8015610bb75780601f10610b8c57610100808354040283529160200191610bb7565b820191906000526020600020905b815481529060010190602001808311610b9a57829003601f168201915b50505050508152602001600482018054610bd0906119c4565b80601f0160208091040260200160405190810160405280929190818152602001828054610bfc906119c4565b8015610c495780601f10610c1e57610100808354040283529160200191610c49565b820191906000526020600020905b815481529060010190602001808311610c2c57829003601f168201915b5050505050815250509080600b0160405180606001604052908160008201805480602002602001604051908101604052809291908181526020016000905b82821015610d33578382906000526020600020018054610ca6906119c4565b80601f0160208091040260200160405190810160405280929190818152602001828054610cd2906119c4565b8015610d1f5780601f10610cf457610100808354040283529160200191610d1f565b820191906000526020600020905b815481529060010190602001808311610d0257829003601f168201915b505050505081526020019060010190610c87565b50505050815260200160018201805480602002602001604051908101604052809291908181526020016000905b82821015610e0c578382906000526020600020018054610d7f906119c4565b80601f0160208091040260200160405190810160405280929190818152602001828054610dab906119c4565b8015610df85780601f10610dcd57610100808354040283529160200191610df8565b820191906000526020600020905b815481529060010190602001808311610ddb57829003601f168201915b505050505081526020019060010190610d60565b50505050815260200160028201805480602002602001604051908101604052809291908181526020016000905b82821015610ee5578382906000526020600020018054610e58906119c4565b80601f0160208091040260200160405190810160405280929190818152602001828054610e84906119c4565b8015610ed15780601f10610ea657610100808354040283529160200191610ed1565b820191906000526020600020905b815481529060010190602001808311610eb457829003601f168201915b505050505081526020019060010190610e39565b5050505081525050905088565b6000803373ffffffffffffffffffffffffffffffffffffffff1673ffffffffffffffffffffffffffffffffffffffff168152602001908152602001600020600080820160006101000a81549073ffffffffffffffffffffffffffffffffffffffff0219169055600182016000610f6891906110b3565b600282016000610f7891906110b3565b600382016000610f8891906110b3565b600482016000610f9891906110b3565b60058201600090556006820160008082016000610fb591906110b3565b600182016000610fc591906110b3565b600282016000610fd591906110b3565b600382016000610fe591906110b3565b600482016000610ff591906110b3565b5050600b82016000808201600061100c9190611032565b60018201600061101c9190611032565b60028201600061102c9190611032565b50505050565b50805460008255906000526020600020908101906110509190611179565b50565b8280548282559060005260206000209081019282156110a2579160200282015b828111156110a15782518290805190602001906110919291906110f3565b5091602001919060010190611073565b5b5090506110af9190611179565b5090565b5080546110bf906119c4565b6000825580601f106110d157506110f0565b601f0160209004906000526020600020908101906110ef919061119d565b5b50565b8280546110ff906119c4565b90600052602060002090601f0160209004810192826111215760008555611168565b82601f1061113a57805160ff1916838001178555611168565b82800160010185558215611168579182015b8281111561116757825182559160200191906001019061114c565b5b509050611175919061119d565b5090565b5b80821115611199576000818161119091906110b3565b5060010161117a565b5090565b5b808211156111b657600081600090555060010161119e565b5090565b60006111cd6111c884611883565b61185e565b905080838252602082019050828560208602820111156111f0576111ef611a8a565b5b60005b8581101561123e57813567ffffffffffffffff81111561121657611215611a85565b5b80860161122389826112cd565b855260208501945060208401935050506001810190506111f3565b5050509392505050565b600061125b611256846118af565b61185e565b90508281526020810184848401111561127757611276611a8f565b5b611282848285611982565b509392505050565b60008135905061129981611aaf565b92915050565b600082601f8301126112b4576112b3611a85565b5b81356112c48482602086016111ba565b91505092915050565b600082601f8301126112e2576112e1611a85565b5b81356112f2848260208601611248565b91505092915050565b60006020828403121561131157611310611a99565b5b600061131f8482850161128a565b91505092915050565b60008060006060848603121561134157611340611a99565b5b600084013567ffffffffffffffff81111561135f5761135e611a94565b5b61136b8682870161129f565b935050602084013567ffffffffffffffff81111561138c5761138b611a94565b5b6113988682870161129f565b925050604084013567ffffffffffffffff8111156113b9576113b8611a94565b5b6113c58682870161129f565b9150509250925092565b600080600080608085870312156113e9576113e8611a99565b5b600085013567ffffffffffffffff81111561140757611406611a94565b5b611413878288016112cd565b945050602085013567ffffffffffffffff81111561143457611433611a94565b5b611440878288016112cd565b935050604085013567ffffffffffffffff81111561146157611460611a94565b5b61146d878288016112cd565b925050606085013567ffffffffffffffff81111561148e5761148d611a94565b5b61149a878288016112cd565b91505092959194509250565b600080600080600060a086880312156114c2576114c1611a99565b5b600086013567ffffffffffffffff8111156114e0576114df611a94565b5b6114ec888289016112cd565b955050602086013567ffffffffffffffff81111561150d5761150c611a94565b5b611519888289016112cd565b945050604086013567ffffffffffffffff81111561153a57611539611a94565b5b611546888289016112cd565b935050606086013567ffffffffffffffff81111561156757611566611a94565b5b611573888289016112cd565b925050608086013567ffffffffffffffff81111561159457611593611a94565b5b6115a0888289016112cd565b9150509295509295909350565b60006115b98383611645565b905092915050565b6115ca81611946565b82525050565b60006115db826118f0565b6115e58185611913565b9350836020820285016115f7856118e0565b8060005b85811015611633578484038952815161161485826115ad565b945061161f83611906565b925060208a019950506001810190506115fb565b50829750879550505050505092915050565b6000611650826118fb565b61165a8185611924565b935061166a818560208601611991565b61167381611a9e565b840191505092915050565b6000611689826118fb565b6116938185611935565b93506116a3818560208601611991565b6116ac81611a9e565b840191505092915050565b600060a08301600083015184820360008601526116d48282611645565b915050602083015184820360208601526116ee8282611645565b915050604083015184820360408601526117088282611645565b915050606083015184820360608601526117228282611645565b9150506080830151848203608086015261173c8282611645565b9150508091505092915050565b6000606083016000830151848203600086015261176682826115d0565b9150506020830151848203602086015261178082826115d0565b9150506040830151848203604086015261179a82826115d0565b9150508091505092915050565b6117b081611978565b82525050565b6000610100820190506117cc600083018b6115c1565b81810360208301526117de818a61167e565b905081810360408301526117f2818961167e565b90508181036060830152611806818861167e565b9050818103608083015261181a818761167e565b905061182960a08301866117a7565b81810360c083015261183b81856116b7565b905081810360e083015261184f8184611749565b90509998505050505050505050565b6000611868611879565b905061187482826119f6565b919050565b6000604051905090565b600067ffffffffffffffff82111561189e5761189d611a56565b5b602082029050602081019050919050565b600067ffffffffffffffff8211156118ca576118c9611a56565b5b6118d382611a9e565b9050602081019050919050565b6000819050602082019050919050565b600081519050919050565b600081519050919050565b6000602082019050919050565b600082825260208201905092915050565b600082825260208201905092915050565b600082825260208201905092915050565b600061195182611958565b9050919050565b600073ffffffffffffffffffffffffffffffffffffffff82169050919050565b6000819050919050565b82818337600083830152505050565b60005b838110156119af578082015181840152602081019050611994565b838111156119be576000848401525b50505050565b600060028204905060018216806119dc57607f821691505b602082108114156119f0576119ef611a27565b5b50919050565b6119ff82611a9e565b810181811067ffffffffffffffff82111715611a1e57611a1d611a56565b5b80604052505050565b7f4e487b7100000000000000000000000000000000000000000000000000000000600052602260045260246000fd5b7f4e487b7100000000000000000000000000000000000000000000000000000000600052604160045260246000fd5b600080fd5b600080fd5b600080fd5b600080fd5b600080fd5b6000601f19601f8301169050919050565b611ab881611946565b8114611ac357600080fd5b5056fea2646970667358221220d304fca76eb80657ef630c67c5a4e24ad0452f82a5d49cd234368655ea9b2c6464736f6c63430008070033",
					"opcodes": "PUSH1 0x80 PUSH1 0x40 MSTORE CALLVALUE DUP1 ISZERO PUSH2 0x10 JUMPI PUSH1 0x0 DUP1 REVERT JUMPDEST POP PUSH2 0x1AFC DUP1 PUSH2 0x20 PUSH1 0x0 CODECOPY PUSH1 0x0 RETURN INVALID PUSH1 0x80 PUSH1 0x40 MSTORE CALLVALUE DUP1 ISZERO PUSH2 0x10 JUMPI PUSH1 0x0 DUP1 REVERT JUMPDEST POP PUSH1 0x4 CALLDATASIZE LT PUSH2 0x57 JUMPI PUSH1 0x0 CALLDATALOAD PUSH1 0xE0 SHR DUP1 PUSH4 0x3D984D0E EQ PUSH2 0x5C JUMPI DUP1 PUSH4 0x72828388 EQ PUSH2 0x78 JUMPI DUP1 PUSH4 0x8C241FC4 EQ PUSH2 0x94 JUMPI DUP1 PUSH4 0x9DD9D0FD EQ PUSH2 0xB0 JUMPI DUP1 PUSH4 0xFABCE08F EQ PUSH2 0xE7 JUMPI JUMPDEST PUSH1 0x0 DUP1 REVERT JUMPDEST PUSH2 0x76 PUSH1 0x4 DUP1 CALLDATASIZE SUB DUP2 ADD SWAP1 PUSH2 0x71 SWAP2 SWAP1 PUSH2 0x1328 JUMP JUMPDEST PUSH2 0xF1 JUMP JUMPDEST STOP JUMPDEST PUSH2 0x92 PUSH1 0x4 DUP1 CALLDATASIZE SUB DUP2 ADD SWAP1 PUSH2 0x8D SWAP2 SWAP1 PUSH2 0x14A6 JUMP JUMPDEST PUSH2 0x275 JUMP JUMPDEST STOP JUMPDEST PUSH2 0xAE PUSH1 0x4 DUP1 CALLDATASIZE SUB DUP2 ADD SWAP1 PUSH2 0xA9 SWAP2 SWAP1 PUSH2 0x13CF JUMP JUMPDEST PUSH2 0x4CD JUMP JUMPDEST STOP JUMPDEST PUSH2 0xCA PUSH1 0x4 DUP1 CALLDATASIZE SUB DUP2 ADD SWAP1 PUSH2 0xC5 SWAP2 SWAP1 PUSH2 0x12FB JUMP JUMPDEST PUSH2 0x6F1 JUMP JUMPDEST PUSH1 0x40 MLOAD PUSH2 0xDE SWAP9 SWAP8 SWAP7 SWAP6 SWAP5 SWAP4 SWAP3 SWAP2 SWAP1 PUSH2 0x17B6 JUMP JUMPDEST PUSH1 0x40 MLOAD DUP1 SWAP2 SUB SWAP1 RETURN JUMPDEST PUSH2 0xEF PUSH2 0xEF2 JUMP JUMPDEST STOP JUMPDEST PUSH1 0x0 DUP1 CALLER PUSH20 0xFFFFFFFFFFFFFFFFFFFFFFFFFFFFFFFFFFFFFFFF AND PUSH20 0xFFFFFFFFFFFFFFFFFFFFFFFFFFFFFFFFFFFFFFFF AND DUP2 MSTORE PUSH1 0x20 ADD SWAP1 DUP2 MSTORE PUSH1 0x20 ADD PUSH1 0x0 KECCAK256 PUSH1 0xB ADD PUSH1 0x0 DUP1 DUP3 ADD PUSH1 0x0 PUSH2 0x143 SWAP2 SWAP1 PUSH2 0x1032 JUMP JUMPDEST PUSH1 0x1 DUP3 ADD PUSH1 0x0 PUSH2 0x153 SWAP2 SWAP1 PUSH2 0x1032 JUMP JUMPDEST PUSH1 0x2 DUP3 ADD PUSH1 0x0 PUSH2 0x163 SWAP2 SWAP1 PUSH2 0x1032 JUMP JUMPDEST POP POP DUP3 PUSH1 0x0 DUP1 CALLER PUSH20 0xFFFFFFFFFFFFFFFFFFFFFFFFFFFFFFFFFFFFFFFF AND PUSH20 0xFFFFFFFFFFFFFFFFFFFFFFFFFFFFFFFFFFFFFFFF AND DUP2 MSTORE PUSH1 0x20 ADD SWAP1 DUP2 MSTORE PUSH1 0x20 ADD PUSH1 0x0 KECCAK256 PUSH1 0xB ADD PUSH1 0x0 ADD SWAP1 DUP1 MLOAD SWAP1 PUSH1 0x20 ADD SWAP1 PUSH2 0x1BD SWAP3 SWAP2 SWAP1 PUSH2 0x1053 JUMP JUMPDEST POP DUP2 PUSH1 0x0 DUP1 CALLER PUSH20 0xFFFFFFFFFFFFFFFFFFFFFFFFFFFFFFFFFFFFFFFF AND PUSH20 0xFFFFFFFFFFFFFFFFFFFFFFFFFFFFFFFFFFFFFFFF AND DUP2 MSTORE PUSH1 0x20 ADD SWAP1 DUP2 MSTORE PUSH1 0x20 ADD PUSH1 0x0 KECCAK256 PUSH1 0xB ADD PUSH1 0x1 ADD SWAP1 DUP1 MLOAD SWAP1 PUSH1 0x20 ADD SWAP1 PUSH2 0x216 SWAP3 SWAP2 SWAP1 PUSH2 0x1053 JUMP JUMPDEST POP DUP1 PUSH1 0x0 DUP1 CALLER PUSH20 0xFFFFFFFFFFFFFFFFFFFFFFFFFFFFFFFFFFFFFFFF AND PUSH20 0xFFFFFFFFFFFFFFFFFFFFFFFFFFFFFFFFFFFFFFFF AND DUP2 MSTORE PUSH1 0x20 ADD SWAP1 DUP2 MSTORE PUSH1 0x20 ADD PUSH1 0x0 KECCAK256 PUSH1 0xB ADD PUSH1 0x2 ADD SWAP1 DUP1 MLOAD SWAP1 PUSH1 0x20 ADD SWAP1 PUSH2 0x26F SWAP3 SWAP2 SWAP1 PUSH2 0x1053 JUMP JUMPDEST POP POP POP POP JUMP JUMPDEST PUSH1 0x0 DUP1 CALLER PUSH20 0xFFFFFFFFFFFFFFFFFFFFFFFFFFFFFFFFFFFFFFFF AND PUSH20 0xFFFFFFFFFFFFFFFFFFFFFFFFFFFFFFFFFFFFFFFF AND DUP2 MSTORE PUSH1 0x20 ADD SWAP1 DUP2 MSTORE PUSH1 0x20 ADD PUSH1 0x0 KECCAK256 PUSH1 0x6 ADD PUSH1 0x0 DUP1 DUP3 ADD PUSH1 0x0 PUSH2 0x2C7 SWAP2 SWAP1 PUSH2 0x10B3 JUMP JUMPDEST PUSH1 0x1 DUP3 ADD PUSH1 0x0 PUSH2 0x2D7 SWAP2 SWAP1 PUSH2 0x10B3 JUMP JUMPDEST PUSH1 0x2 DUP3 ADD PUSH1 0x0 PUSH2 0x2E7 SWAP2 SWAP1 PUSH2 0x10B3 JUMP JUMPDEST PUSH1 0x3 DUP3 ADD PUSH1 0x0 PUSH2 0x2F7 SWAP2 SWAP1 PUSH2 0x10B3 JUMP JUMPDEST PUSH1 0x4 DUP3 ADD PUSH1 0x0 PUSH2 0x307 SWAP2 SWAP1 PUSH2 0x10B3 JUMP JUMPDEST POP POP DUP5 PUSH1 0x0 DUP1 CALLER PUSH20 0xFFFFFFFFFFFFFFFFFFFFFFFFFFFFFFFFFFFFFFFF AND PUSH20 0xFFFFFFFFFFFFFFFFFFFFFFFFFFFFFFFFFFFFFFFF AND DUP2 MSTORE PUSH1 0x20 ADD SWAP1 DUP2 MSTORE PUSH1 0x20 ADD PUSH1 0x0 KECCAK256 PUSH1 0x6 ADD PUSH1 0x0 ADD SWAP1 DUP1 MLOAD SWAP1 PUSH1 0x20 ADD SWAP1 PUSH2 0x361 SWAP3 SWAP2 SWAP1 PUSH2 0x10F3 JUMP JUMPDEST POP DUP4 PUSH1 0x0 DUP1 CALLER PUSH20 0xFFFFFFFFFFFFFFFFFFFFFFFFFFFFFFFFFFFFFFFF AND PUSH20 0xFFFFFFFFFFFFFFFFFFFFFFFFFFFFFFFFFFFFFFFF AND DUP2 MSTORE PUSH1 0x20 ADD SWAP1 DUP2 MSTORE PUSH1 0x20 ADD PUSH1 0x0 KECCAK256 PUSH1 0x6 ADD PUSH1 0x1 ADD SWAP1 DUP1 MLOAD SWAP1 PUSH1 0x20 ADD SWAP1 PUSH2 0x3BA SWAP3 SWAP2 SWAP1 PUSH2 0x10F3 JUMP JUMPDEST POP DUP3 PUSH1 0x0 DUP1 CALLER PUSH20 0xFFFFFFFFFFFFFFFFFFFFFFFFFFFFFFFFFFFFFFFF AND PUSH20 0xFFFFFFFFFFFFFFFFFFFFFFFFFFFFFFFFFFFFFFFF AND DUP2 MSTORE PUSH1 0x20 ADD SWAP1 DUP2 MSTORE PUSH1 0x20 ADD PUSH1 0x0 KECCAK256 PUSH1 0x6 ADD PUSH1 0x0 ADD SWAP1 DUP1 MLOAD SWAP1 PUSH1 0x20 ADD SWAP1 PUSH2 0x413 SWAP3 SWAP2 SWAP1 PUSH2 0x10F3 JUMP JUMPDEST POP DUP2 PUSH1 0x0 DUP1 CALLER PUSH20 0xFFFFFFFFFFFFFFFFFFFFFFFFFFFFFFFFFFFFFFFF AND PUSH20 0xFFFFFFFFFFFFFFFFFFFFFFFFFFFFFFFFFFFFFFFF AND DUP2 MSTORE PUSH1 0x20 ADD SWAP1 DUP2 MSTORE PUSH1 0x20 ADD PUSH1 0x0 KECCAK256 PUSH1 0x6 ADD PUSH1 0x1 ADD SWAP1 DUP1 MLOAD SWAP1 PUSH1 0x20 ADD SWAP1 PUSH2 0x46C SWAP3 SWAP2 SWAP1 PUSH2 0x10F3 JUMP JUMPDEST POP DUP1 PUSH1 0x0 DUP1 CALLER PUSH20 0xFFFFFFFFFFFFFFFFFFFFFFFFFFFFFFFFFFFFFFFF AND PUSH20 0xFFFFFFFFFFFFFFFFFFFFFFFFFFFFFFFFFFFFFFFF AND DUP2 MSTORE PUSH1 0x20 ADD SWAP1 DUP2 MSTORE PUSH1 0x20 ADD PUSH1 0x0 KECCAK256 PUSH1 0x6 ADD PUSH1 0x0 ADD SWAP1 DUP1 MLOAD SWAP1 PUSH1 0x20 ADD SWAP1 PUSH2 0x4C5 SWAP3 SWAP2 SWAP1 PUSH2 0x10F3 JUMP JUMPDEST POP POP POP POP POP POP JUMP JUMPDEST DUP4 PUSH1 0x0 DUP1 CALLER PUSH20 0xFFFFFFFFFFFFFFFFFFFFFFFFFFFFFFFFFFFFFFFF AND PUSH20 0xFFFFFFFFFFFFFFFFFFFFFFFFFFFFFFFFFFFFFFFF AND DUP2 MSTORE PUSH1 0x20 ADD SWAP1 DUP2 MSTORE PUSH1 0x20 ADD PUSH1 0x0 KECCAK256 PUSH1 0x1 ADD SWAP1 DUP1 MLOAD SWAP1 PUSH1 0x20 ADD SWAP1 PUSH2 0x522 SWAP3 SWAP2 SWAP1 PUSH2 0x10F3 JUMP JUMPDEST POP DUP3 PUSH1 0x0 DUP1 CALLER PUSH20 0xFFFFFFFFFFFFFFFFFFFFFFFFFFFFFFFFFFFFFFFF AND PUSH20 0xFFFFFFFFFFFFFFFFFFFFFFFFFFFFFFFFFFFFFFFF AND DUP2 MSTORE PUSH1 0x20 ADD SWAP1 DUP2 MSTORE PUSH1 0x20 ADD PUSH1 0x0 KECCAK256 PUSH1 0x2 ADD SWAP1 DUP1 MLOAD SWAP1 PUSH1 0x20 ADD SWAP1 PUSH2 0x578 SWAP3 SWAP2 SWAP1 PUSH2 0x10F3 JUMP JUMPDEST POP DUP2 PUSH1 0x0 DUP1 CALLER PUSH20 0xFFFFFFFFFFFFFFFFFFFFFFFFFFFFFFFFFFFFFFFF AND PUSH20 0xFFFFFFFFFFFFFFFFFFFFFFFFFFFFFFFFFFFFFFFF AND DUP2 MSTORE PUSH1 0x20 ADD SWAP1 DUP2 MSTORE PUSH1 0x20 ADD PUSH1 0x0 KECCAK256 PUSH1 0x3 ADD SWAP1 DUP1 MLOAD SWAP1 PUSH1 0x20 ADD SWAP1 PUSH2 0x5CE SWAP3 SWAP2 SWAP1 PUSH2 0x10F3 JUMP JUMPDEST POP DUP1 PUSH1 0x0 DUP1 CALLER PUSH20 0xFFFFFFFFFFFFFFFFFFFFFFFFFFFFFFFFFFFFFFFF AND PUSH20 0xFFFFFFFFFFFFFFFFFFFFFFFFFFFFFFFFFFFFFFFF AND DUP2 MSTORE PUSH1 0x20 ADD SWAP1 DUP2 MSTORE PUSH1 0x20 ADD PUSH1 0x0 KECCAK256 PUSH1 0x4 ADD SWAP1 DUP1 MLOAD SWAP1 PUSH1 0x20 ADD SWAP1 PUSH2 0x624 SWAP3 SWAP2 SWAP1 PUSH2 0x10F3 JUMP JUMPDEST POP CALLER PUSH1 0x0 DUP1 CALLER PUSH20 0xFFFFFFFFFFFFFFFFFFFFFFFFFFFFFFFFFFFFFFFF AND PUSH20 0xFFFFFFFFFFFFFFFFFFFFFFFFFFFFFFFFFFFFFFFF AND DUP2 MSTORE PUSH1 0x20 ADD SWAP1 DUP2 MSTORE PUSH1 0x20 ADD PUSH1 0x0 KECCAK256 PUSH1 0x0 ADD PUSH1 0x0 PUSH2 0x100 EXP DUP2 SLOAD DUP2 PUSH20 0xFFFFFFFFFFFFFFFFFFFFFFFFFFFFFFFFFFFFFFFF MUL NOT AND SWAP1 DUP4 PUSH20 0xFFFFFFFFFFFFFFFFFFFFFFFFFFFFFFFFFFFFFFFF AND MUL OR SWAP1 SSTORE POP TIMESTAMP PUSH1 0x0 DUP1 CALLER PUSH20 0xFFFFFFFFFFFFFFFFFFFFFFFFFFFFFFFFFFFFFFFF AND PUSH20 0xFFFFFFFFFFFFFFFFFFFFFFFFFFFFFFFFFFFFFFFF AND DUP2 MSTORE PUSH1 0x20 ADD SWAP1 DUP2 MSTORE PUSH1 0x20 ADD PUSH1 0x0 KECCAK256 PUSH1 0x5 ADD DUP2 SWAP1 SSTORE POP POP POP POP POP JUMP JUMPDEST PUSH1 0x0 PUSH1 0x20 MSTORE DUP1 PUSH1 0x0 MSTORE PUSH1 0x40 PUSH1 0x0 KECCAK256 PUSH1 0x0 SWAP2 POP SWAP1 POP DUP1 PUSH1 0x0 ADD PUSH1 0x0 SWAP1 SLOAD SWAP1 PUSH2 0x100 EXP SWAP1 DIV PUSH20 0xFFFFFFFFFFFFFFFFFFFFFFFFFFFFFFFFFFFFFFFF AND SWAP1 DUP1 PUSH1 0x1 ADD DUP1 SLOAD PUSH2 0x73A SWAP1 PUSH2 0x19C4 JUMP JUMPDEST DUP1 PUSH1 0x1F ADD PUSH1 0x20 DUP1 SWAP2 DIV MUL PUSH1 0x20 ADD PUSH1 0x40 MLOAD SWAP1 DUP2 ADD PUSH1 0x40 MSTORE DUP1 SWAP3 SWAP2 SWAP1 DUP2 DUP2 MSTORE PUSH1 0x20 ADD DUP3 DUP1 SLOAD PUSH2 0x766 SWAP1 PUSH2 0x19C4 JUMP JUMPDEST DUP1 ISZERO PUSH2 0x7B3 JUMPI DUP1 PUSH1 0x1F LT PUSH2 0x788 JUMPI PUSH2 0x100 DUP1 DUP4 SLOAD DIV MUL DUP4 MSTORE SWAP2 PUSH1 0x20 ADD SWAP2 PUSH2 0x7B3 JUMP JUMPDEST DUP3 ADD SWAP2 SWAP1 PUSH1 0x0 MSTORE PUSH1 0x20 PUSH1 0x0 KECCAK256 SWAP1 JUMPDEST DUP2 SLOAD DUP2 MSTORE SWAP1 PUSH1 0x1 ADD SWAP1 PUSH1 0x20 ADD DUP1 DUP4 GT PUSH2 0x796 JUMPI DUP3 SWAP1 SUB PUSH1 0x1F AND DUP3 ADD SWAP2 JUMPDEST POP POP POP POP POP SWAP1 DUP1 PUSH1 0x2 ADD DUP1 SLOAD PUSH2 0x7C8 SWAP1 PUSH2 0x19C4 JUMP JUMPDEST DUP1 PUSH1 0x1F ADD PUSH1 0x20 DUP1 SWAP2 DIV MUL PUSH1 0x20 ADD PUSH1 0x40 MLOAD SWAP1 DUP2 ADD PUSH1 0x40 MSTORE DUP1 SWAP3 SWAP2 SWAP1 DUP2 DUP2 MSTORE PUSH1 0x20 ADD DUP3 DUP1 SLOAD PUSH2 0x7F4 SWAP1 PUSH2 0x19C4 JUMP JUMPDEST DUP1 ISZERO PUSH2 0x841 JUMPI DUP1 PUSH1 0x1F LT PUSH2 0x816 JUMPI PUSH2 0x100 DUP1 DUP4 SLOAD DIV MUL DUP4 MSTORE SWAP2 PUSH1 0x20 ADD SWAP2 PUSH2 0x841 JUMP JUMPDEST DUP3 ADD SWAP2 SWAP1 PUSH1 0x0 MSTORE PUSH1 0x20 PUSH1 0x0 KECCAK256 SWAP1 JUMPDEST DUP2 SLOAD DUP2 MSTORE SWAP1 PUSH1 0x1 ADD SWAP1 PUSH1 0x20 ADD DUP1 DUP4 GT PUSH2 0x824 JUMPI DUP3 SWAP1 SUB PUSH1 0x1F AND DUP3 ADD SWAP2 JUMPDEST POP POP POP POP POP SWAP1 DUP1 PUSH1 0x3 ADD DUP1 SLOAD PUSH2 0x856 SWAP1 PUSH2 0x19C4 JUMP JUMPDEST DUP1 PUSH1 0x1F ADD PUSH1 0x20 DUP1 SWAP2 DIV MUL PUSH1 0x20 ADD PUSH1 0x40 MLOAD SWAP1 DUP2 ADD PUSH1 0x40 MSTORE DUP1 SWAP3 SWAP2 SWAP1 DUP2 DUP2 MSTORE PUSH1 0x20 ADD DUP3 DUP1 SLOAD PUSH2 0x882 SWAP1 PUSH2 0x19C4 JUMP JUMPDEST DUP1 ISZERO PUSH2 0x8CF JUMPI DUP1 PUSH1 0x1F LT PUSH2 0x8A4 JUMPI PUSH2 0x100 DUP1 DUP4 SLOAD DIV MUL DUP4 MSTORE SWAP2 PUSH1 0x20 ADD SWAP2 PUSH2 0x8CF JUMP JUMPDEST DUP3 ADD SWAP2 SWAP1 PUSH1 0x0 MSTORE PUSH1 0x20 PUSH1 0x0 KECCAK256 SWAP1 JUMPDEST DUP2 SLOAD DUP2 MSTORE SWAP1 PUSH1 0x1 ADD SWAP1 PUSH1 0x20 ADD DUP1 DUP4 GT PUSH2 0x8B2 JUMPI DUP3 SWAP1 SUB PUSH1 0x1F AND DUP3 ADD SWAP2 JUMPDEST POP POP POP POP POP SWAP1 DUP1 PUSH1 0x4 ADD DUP1 SLOAD PUSH2 0x8E4 SWAP1 PUSH2 0x19C4 JUMP JUMPDEST DUP1 PUSH1 0x1F ADD PUSH1 0x20 DUP1 SWAP2 DIV MUL PUSH1 0x20 ADD PUSH1 0x40 MLOAD SWAP1 DUP2 ADD PUSH1 0x40 MSTORE DUP1 SWAP3 SWAP2 SWAP1 DUP2 DUP2 MSTORE PUSH1 0x20 ADD DUP3 DUP1 SLOAD PUSH2 0x910 SWAP1 PUSH2 0x19C4 JUMP JUMPDEST DUP1 ISZERO PUSH2 0x95D JUMPI DUP1 PUSH1 0x1F LT PUSH2 0x932 JUMPI PUSH2 0x100 DUP1 DUP4 SLOAD DIV MUL DUP4 MSTORE SWAP2 PUSH1 0x20 ADD SWAP2 PUSH2 0x95D JUMP JUMPDEST DUP3 ADD SWAP2 SWAP1 PUSH1 0x0 MSTORE PUSH1 0x20 PUSH1 0x0 KECCAK256 SWAP1 JUMPDEST DUP2 SLOAD DUP2 MSTORE SWAP1 PUSH1 0x1 ADD SWAP1 PUSH1 0x20 ADD DUP1 DUP4 GT PUSH2 0x940 JUMPI DUP3 SWAP1 SUB PUSH1 0x1F AND DUP3 ADD SWAP2 JUMPDEST POP POP POP POP POP SWAP1 DUP1 PUSH1 0x5 ADD SLOAD SWAP1 DUP1 PUSH1 0x6 ADD PUSH1 0x40 MLOAD DUP1 PUSH1 0xA0 ADD PUSH1 0x40 MSTORE SWAP1 DUP2 PUSH1 0x0 DUP3 ADD DUP1 SLOAD PUSH2 0x988 SWAP1 PUSH2 0x19C4 JUMP JUMPDEST DUP1 PUSH1 0x1F ADD PUSH1 0x20 DUP1 SWAP2 DIV MUL PUSH1 0x20 ADD PUSH1 0x40 MLOAD SWAP1 DUP2 ADD PUSH1 0x40 MSTORE DUP1 SWAP3 SWAP2 SWAP1 DUP2 DUP2 MSTORE PUSH1 0x20 ADD DUP3 DUP1 SLOAD PUSH2 0x9B4 SWAP1 PUSH2 0x19C4 JUMP JUMPDEST DUP1 ISZERO PUSH2 0xA01 JUMPI DUP1 PUSH1 0x1F LT PUSH2 0x9D6 JUMPI PUSH2 0x100 DUP1 DUP4 SLOAD DIV MUL DUP4 MSTORE SWAP2 PUSH1 0x20 ADD SWAP2 PUSH2 0xA01 JUMP JUMPDEST DUP3 ADD SWAP2 SWAP1 PUSH1 0x0 MSTORE PUSH1 0x20 PUSH1 0x0 KECCAK256 SWAP1 JUMPDEST DUP2 SLOAD DUP2 MSTORE SWAP1 PUSH1 0x1 ADD SWAP1 PUSH1 0x20 ADD DUP1 DUP4 GT PUSH2 0x9E4 JUMPI DUP3 SWAP1 SUB PUSH1 0x1F AND DUP3 ADD SWAP2 JUMPDEST POP POP POP POP POP DUP2 MSTORE PUSH1 0x20 ADD PUSH1 0x1 DUP3 ADD DUP1 SLOAD PUSH2 0xA1A SWAP1 PUSH2 0x19C4 JUMP JUMPDEST DUP1 PUSH1 0x1F ADD PUSH1 0x20 DUP1 SWAP2 DIV MUL PUSH1 0x20 ADD PUSH1 0x40 MLOAD SWAP1 DUP2 ADD PUSH1 0x40 MSTORE DUP1 SWAP3 SWAP2 SWAP1 DUP2 DUP2 MSTORE PUSH1 0x20 ADD DUP3 DUP1 SLOAD PUSH2 0xA46 SWAP1 PUSH2 0x19C4 JUMP JUMPDEST DUP1 ISZERO PUSH2 0xA93 JUMPI DUP1 PUSH1 0x1F LT PUSH2 0xA68 JUMPI PUSH2 0x100 DUP1 DUP4 SLOAD DIV MUL DUP4 MSTORE SWAP2 PUSH1 0x20 ADD SWAP2 PUSH2 0xA93 JUMP JUMPDEST DUP3 ADD SWAP2 SWAP1 PUSH1 0x0 MSTORE PUSH1 0x20 PUSH1 0x0 KECCAK256 SWAP1 JUMPDEST DUP2 SLOAD DUP2 MSTORE SWAP1 PUSH1 0x1 ADD SWAP1 PUSH1 0x20 ADD DUP1 DUP4 GT PUSH2 0xA76 JUMPI DUP3 SWAP1 SUB PUSH1 0x1F AND DUP3 ADD SWAP2 JUMPDEST POP POP POP POP POP DUP2 MSTORE PUSH1 0x20 ADD PUSH1 0x2 DUP3 ADD DUP1 SLOAD PUSH2 0xAAC SWAP1 PUSH2 0x19C4 JUMP JUMPDEST DUP1 PUSH1 0x1F ADD PUSH1 0x20 DUP1 SWAP2 DIV MUL PUSH1 0x20 ADD PUSH1 0x40 MLOAD SWAP1 DUP2 ADD PUSH1 0x40 MSTORE DUP1 SWAP3 SWAP2 SWAP1 DUP2 DUP2 MSTORE PUSH1 0x20 ADD DUP3 DUP1 SLOAD PUSH2 0xAD8 SWAP1 PUSH2 0x19C4 JUMP JUMPDEST DUP1 ISZERO PUSH2 0xB25 JUMPI DUP1 PUSH1 0x1F LT PUSH2 0xAFA JUMPI PUSH2 0x100 DUP1 DUP4 SLOAD DIV MUL DUP4 MSTORE SWAP2 PUSH1 0x20 ADD SWAP2 PUSH2 0xB25 JUMP JUMPDEST DUP3 ADD SWAP2 SWAP1 PUSH1 0x0 MSTORE PUSH1 0x20 PUSH1 0x0 KECCAK256 SWAP1 JUMPDEST DUP2 SLOAD DUP2 MSTORE SWAP1 PUSH1 0x1 ADD SWAP1 PUSH1 0x20 ADD DUP1 DUP4 GT PUSH2 0xB08 JUMPI DUP3 SWAP1 SUB PUSH1 0x1F AND DUP3 ADD SWAP2 JUMPDEST POP POP POP POP POP DUP2 MSTORE PUSH1 0x20 ADD PUSH1 0x3 DUP3 ADD DUP1 SLOAD PUSH2 0xB3E SWAP1 PUSH2 0x19C4 JUMP JUMPDEST DUP1 PUSH1 0x1F ADD PUSH1 0x20 DUP1 SWAP2 DIV MUL PUSH1 0x20 ADD PUSH1 0x40 MLOAD SWAP1 DUP2 ADD PUSH1 0x40 MSTORE DUP1 SWAP3 SWAP2 SWAP1 DUP2 DUP2 MSTORE PUSH1 0x20 ADD DUP3 DUP1 SLOAD PUSH2 0xB6A SWAP1 PUSH2 0x19C4 JUMP JUMPDEST DUP1 ISZERO PUSH2 0xBB7 JUMPI DUP1 PUSH1 0x1F LT PUSH2 0xB8C JUMPI PUSH2 0x100 DUP1 DUP4 SLOAD DIV MUL DUP4 MSTORE SWAP2 PUSH1 0x20 ADD SWAP2 PUSH2 0xBB7 JUMP JUMPDEST DUP3 ADD SWAP2 SWAP1 PUSH1 0x0 MSTORE PUSH1 0x20 PUSH1 0x0 KECCAK256 SWAP1 JUMPDEST DUP2 SLOAD DUP2 MSTORE SWAP1 PUSH1 0x1 ADD SWAP1 PUSH1 0x20 ADD DUP1 DUP4 GT PUSH2 0xB9A JUMPI DUP3 SWAP1 SUB PUSH1 0x1F AND DUP3 ADD SWAP2 JUMPDEST POP POP POP POP POP DUP2 MSTORE PUSH1 0x20 ADD PUSH1 0x4 DUP3 ADD DUP1 SLOAD PUSH2 0xBD0 SWAP1 PUSH2 0x19C4 JUMP JUMPDEST DUP1 PUSH1 0x1F ADD PUSH1 0x20 DUP1 SWAP2 DIV MUL PUSH1 0x20 ADD PUSH1 0x40 MLOAD SWAP1 DUP2 ADD PUSH1 0x40 MSTORE DUP1 SWAP3 SWAP2 SWAP1 DUP2 DUP2 MSTORE PUSH1 0x20 ADD DUP3 DUP1 SLOAD PUSH2 0xBFC SWAP1 PUSH2 0x19C4 JUMP JUMPDEST DUP1 ISZERO PUSH2 0xC49 JUMPI DUP1 PUSH1 0x1F LT PUSH2 0xC1E JUMPI PUSH2 0x100 DUP1 DUP4 SLOAD DIV MUL DUP4 MSTORE SWAP2 PUSH1 0x20 ADD SWAP2 PUSH2 0xC49 JUMP JUMPDEST DUP3 ADD SWAP2 SWAP1 PUSH1 0x0 MSTORE PUSH1 0x20 PUSH1 0x0 KECCAK256 SWAP1 JUMPDEST DUP2 SLOAD DUP2 MSTORE SWAP1 PUSH1 0x1 ADD SWAP1 PUSH1 0x20 ADD DUP1 DUP4 GT PUSH2 0xC2C JUMPI DUP3 SWAP1 SUB PUSH1 0x1F AND DUP3 ADD SWAP2 JUMPDEST POP POP POP POP POP DUP2 MSTORE POP POP SWAP1 DUP1 PUSH1 0xB ADD PUSH1 0x40 MLOAD DUP1 PUSH1 0x60 ADD PUSH1 0x40 MSTORE SWAP1 DUP2 PUSH1 0x0 DUP3 ADD DUP1 SLOAD DUP1 PUSH1 0x20 MUL PUSH1 0x20 ADD PUSH1 0x40 MLOAD SWAP1 DUP2 ADD PUSH1 0x40 MSTORE DUP1 SWAP3 SWAP2 SWAP1 DUP2 DUP2 MSTORE PUSH1 0x20 ADD PUSH1 0x0 SWAP1 JUMPDEST DUP3 DUP3 LT ISZERO PUSH2 0xD33 JUMPI DUP4 DUP3 SWAP1 PUSH1 0x0 MSTORE PUSH1 0x20 PUSH1 0x0 KECCAK256 ADD DUP1 SLOAD PUSH2 0xCA6 SWAP1 PUSH2 0x19C4 JUMP JUMPDEST DUP1 PUSH1 0x1F ADD PUSH1 0x20 DUP1 SWAP2 DIV MUL PUSH1 0x20 ADD PUSH1 0x40 MLOAD SWAP1 DUP2 ADD PUSH1 0x40 MSTORE DUP1 SWAP3 SWAP2 SWAP1 DUP2 DUP2 MSTORE PUSH1 0x20 ADD DUP3 DUP1 SLOAD PUSH2 0xCD2 SWAP1 PUSH2 0x19C4 JUMP JUMPDEST DUP1 ISZERO PUSH2 0xD1F JUMPI DUP1 PUSH1 0x1F LT PUSH2 0xCF4 JUMPI PUSH2 0x100 DUP1 DUP4 SLOAD DIV MUL DUP4 MSTORE SWAP2 PUSH1 0x20 ADD SWAP2 PUSH2 0xD1F JUMP JUMPDEST DUP3 ADD SWAP2 SWAP1 PUSH1 0x0 MSTORE PUSH1 0x20 PUSH1 0x0 KECCAK256 SWAP1 JUMPDEST DUP2 SLOAD DUP2 MSTORE SWAP1 PUSH1 0x1 ADD SWAP1 PUSH1 0x20 ADD DUP1 DUP4 GT PUSH2 0xD02 JUMPI DUP3 SWAP1 SUB PUSH1 0x1F AND DUP3 ADD SWAP2 JUMPDEST POP POP POP POP POP DUP2 MSTORE PUSH1 0x20 ADD SWAP1 PUSH1 0x1 ADD SWAP1 PUSH2 0xC87 JUMP JUMPDEST POP POP POP POP DUP2 MSTORE PUSH1 0x20 ADD PUSH1 0x1 DUP3 ADD DUP1 SLOAD DUP1 PUSH1 0x20 MUL PUSH1 0x20 ADD PUSH1 0x40 MLOAD SWAP1 DUP2 ADD PUSH1 0x40 MSTORE DUP1 SWAP3 SWAP2 SWAP1 DUP2 DUP2 MSTORE PUSH1 0x20 ADD PUSH1 0x0 SWAP1 JUMPDEST DUP3 DUP3 LT ISZERO PUSH2 0xE0C JUMPI DUP4 DUP3 SWAP1 PUSH1 0x0 MSTORE PUSH1 0x20 PUSH1 0x0 KECCAK256 ADD DUP1 SLOAD PUSH2 0xD7F SWAP1 PUSH2 0x19C4 JUMP JUMPDEST DUP1 PUSH1 0x1F ADD PUSH1 0x20 DUP1 SWAP2 DIV MUL PUSH1 0x20 ADD PUSH1 0x40 MLOAD SWAP1 DUP2 ADD PUSH1 0x40 MSTORE DUP1 SWAP3 SWAP2 SWAP1 DUP2 DUP2 MSTORE PUSH1 0x20 ADD DUP3 DUP1 SLOAD PUSH2 0xDAB SWAP1 PUSH2 0x19C4 JUMP JUMPDEST DUP1 ISZERO PUSH2 0xDF8 JUMPI DUP1 PUSH1 0x1F LT PUSH2 0xDCD JUMPI PUSH2 0x100 DUP1 DUP4 SLOAD DIV MUL DUP4 MSTORE SWAP2 PUSH1 0x20 ADD SWAP2 PUSH2 0xDF8 JUMP JUMPDEST DUP3 ADD SWAP2 SWAP1 PUSH1 0x0 MSTORE PUSH1 0x20 PUSH1 0x0 KECCAK256 SWAP1 JUMPDEST DUP2 SLOAD DUP2 MSTORE SWAP1 PUSH1 0x1 ADD SWAP1 PUSH1 0x20 ADD DUP1 DUP4 GT PUSH2 0xDDB JUMPI DUP3 SWAP1 SUB PUSH1 0x1F AND DUP3 ADD SWAP2 JUMPDEST POP POP POP POP POP DUP2 MSTORE PUSH1 0x20 ADD SWAP1 PUSH1 0x1 ADD SWAP1 PUSH2 0xD60 JUMP JUMPDEST POP POP POP POP DUP2 MSTORE PUSH1 0x20 ADD PUSH1 0x2 DUP3 ADD DUP1 SLOAD DUP1 PUSH1 0x20 MUL PUSH1 0x20 ADD PUSH1 0x40 MLOAD SWAP1 DUP2 ADD PUSH1 0x40 MSTORE DUP1 SWAP3 SWAP2 SWAP1 DUP2 DUP2 MSTORE PUSH1 0x20 ADD PUSH1 0x0 SWAP1 JUMPDEST DUP3 DUP3 LT ISZERO PUSH2 0xEE5 JUMPI DUP4 DUP3 SWAP1 PUSH1 0x0 MSTORE PUSH1 0x20 PUSH1 0x0 KECCAK256 ADD DUP1 SLOAD PUSH2 0xE58 SWAP1 PUSH2 0x19C4 JUMP JUMPDEST DUP1 PUSH1 0x1F ADD PUSH1 0x20 DUP1 SWAP2 DIV MUL PUSH1 0x20 ADD PUSH1 0x40 MLOAD SWAP1 DUP2 ADD PUSH1 0x40 MSTORE DUP1 SWAP3 SWAP2 SWAP1 DUP2 DUP2 MSTORE PUSH1 0x20 ADD DUP3 DUP1 SLOAD PUSH2 0xE84 SWAP1 PUSH2 0x19C4 JUMP JUMPDEST DUP1 ISZERO PUSH2 0xED1 JUMPI DUP1 PUSH1 0x1F LT PUSH2 0xEA6 JUMPI PUSH2 0x100 DUP1 DUP4 SLOAD DIV MUL DUP4 MSTORE SWAP2 PUSH1 0x20 ADD SWAP2 PUSH2 0xED1 JUMP JUMPDEST DUP3 ADD SWAP2 SWAP1 PUSH1 0x0 MSTORE PUSH1 0x20 PUSH1 0x0 KECCAK256 SWAP1 JUMPDEST DUP2 SLOAD DUP2 MSTORE SWAP1 PUSH1 0x1 ADD SWAP1 PUSH1 0x20 ADD DUP1 DUP4 GT PUSH2 0xEB4 JUMPI DUP3 SWAP1 SUB PUSH1 0x1F AND DUP3 ADD SWAP2 JUMPDEST POP POP POP POP POP DUP2 MSTORE PUSH1 0x20 ADD SWAP1 PUSH1 0x1 ADD SWAP1 PUSH2 0xE39 JUMP JUMPDEST POP POP POP POP DUP2 MSTORE POP POP SWAP1 POP DUP9 JUMP JUMPDEST PUSH1 0x0 DUP1 CALLER PUSH20 0xFFFFFFFFFFFFFFFFFFFFFFFFFFFFFFFFFFFFFFFF AND PUSH20 0xFFFFFFFFFFFFFFFFFFFFFFFFFFFFFFFFFFFFFFFF AND DUP2 MSTORE PUSH1 0x20 ADD SWAP1 DUP2 MSTORE PUSH1 0x20 ADD PUSH1 0x0 KECCAK256 PUSH1 0x0 DUP1 DUP3 ADD PUSH1 0x0 PUSH2 0x100 EXP DUP2 SLOAD SWAP1 PUSH20 0xFFFFFFFFFFFFFFFFFFFFFFFFFFFFFFFFFFFFFFFF MUL NOT AND SWAP1 SSTORE PUSH1 0x1 DUP3 ADD PUSH1 0x0 PUSH2 0xF68 SWAP2 SWAP1 PUSH2 0x10B3 JUMP JUMPDEST PUSH1 0x2 DUP3 ADD PUSH1 0x0 PUSH2 0xF78 SWAP2 SWAP1 PUSH2 0x10B3 JUMP JUMPDEST PUSH1 0x3 DUP3 ADD PUSH1 0x0 PUSH2 0xF88 SWAP2 SWAP1 PUSH2 0x10B3 JUMP JUMPDEST PUSH1 0x4 DUP3 ADD PUSH1 0x0 PUSH2 0xF98 SWAP2 SWAP1 PUSH2 0x10B3 JUMP JUMPDEST PUSH1 0x5 DUP3 ADD PUSH1 0x0 SWAP1 SSTORE PUSH1 0x6 DUP3 ADD PUSH1 0x0 DUP1 DUP3 ADD PUSH1 0x0 PUSH2 0xFB5 SWAP2 SWAP1 PUSH2 0x10B3 JUMP JUMPDEST PUSH1 0x1 DUP3 ADD PUSH1 0x0 PUSH2 0xFC5 SWAP2 SWAP1 PUSH2 0x10B3 JUMP JUMPDEST PUSH1 0x2 DUP3 ADD PUSH1 0x0 PUSH2 0xFD5 SWAP2 SWAP1 PUSH2 0x10B3 JUMP JUMPDEST PUSH1 0x3 DUP3 ADD PUSH1 0x0 PUSH2 0xFE5 SWAP2 SWAP1 PUSH2 0x10B3 JUMP JUMPDEST PUSH1 0x4 DUP3 ADD PUSH1 0x0 PUSH2 0xFF5 SWAP2 SWAP1 PUSH2 0x10B3 JUMP JUMPDEST POP POP PUSH1 0xB DUP3 ADD PUSH1 0x0 DUP1 DUP3 ADD PUSH1 0x0 PUSH2 0x100C SWAP2 SWAP1 PUSH2 0x1032 JUMP JUMPDEST PUSH1 0x1 DUP3 ADD PUSH1 0x0 PUSH2 0x101C SWAP2 SWAP1 PUSH2 0x1032 JUMP JUMPDEST PUSH1 0x2 DUP3 ADD PUSH1 0x0 PUSH2 0x102C SWAP2 SWAP1 PUSH2 0x1032 JUMP JUMPDEST POP POP POP POP JUMP JUMPDEST POP DUP1 SLOAD PUSH1 0x0 DUP3 SSTORE SWAP1 PUSH1 0x0 MSTORE PUSH1 0x20 PUSH1 0x0 KECCAK256 SWAP1 DUP2 ADD SWAP1 PUSH2 0x1050 SWAP2 SWAP1 PUSH2 0x1179 JUMP JUMPDEST POP JUMP JUMPDEST DUP3 DUP1 SLOAD DUP3 DUP3 SSTORE SWAP1 PUSH1 0x0 MSTORE PUSH1 0x20 PUSH1 0x0 KECCAK256 SWAP1 DUP2 ADD SWAP3 DUP3 ISZERO PUSH2 0x10A2 JUMPI SWAP2 PUSH1 0x20 MUL DUP3 ADD JUMPDEST DUP3 DUP2 GT ISZERO PUSH2 0x10A1 JUMPI DUP3 MLOAD DUP3 SWAP1 DUP1 MLOAD SWAP1 PUSH1 0x20 ADD SWAP1 PUSH2 0x1091 SWAP3 SWAP2 SWAP1 PUSH2 0x10F3 JUMP JUMPDEST POP SWAP2 PUSH1 0x20 ADD SWAP2 SWAP1 PUSH1 0x1 ADD SWAP1 PUSH2 0x1073 JUMP JUMPDEST JUMPDEST POP SWAP1 POP PUSH2 0x10AF SWAP2 SWAP1 PUSH2 0x1179 JUMP JUMPDEST POP SWAP1 JUMP JUMPDEST POP DUP1 SLOAD PUSH2 0x10BF SWAP1 PUSH2 0x19C4 JUMP JUMPDEST PUSH1 0x0 DUP3 SSTORE DUP1 PUSH1 0x1F LT PUSH2 0x10D1 JUMPI POP PUSH2 0x10F0 JUMP JUMPDEST PUSH1 0x1F ADD PUSH1 0x20 SWAP1 DIV SWAP1 PUSH1 0x0 MSTORE PUSH1 0x20 PUSH1 0x0 KECCAK256 SWAP1 DUP2 ADD SWAP1 PUSH2 0x10EF SWAP2 SWAP1 PUSH2 0x119D JUMP JUMPDEST JUMPDEST POP JUMP JUMPDEST DUP3 DUP1 SLOAD PUSH2 0x10FF SWAP1 PUSH2 0x19C4 JUMP JUMPDEST SWAP1 PUSH1 0x0 MSTORE PUSH1 0x20 PUSH1 0x0 KECCAK256 SWAP1 PUSH1 0x1F ADD PUSH1 0x20 SWAP1 DIV DUP2 ADD SWAP3 DUP3 PUSH2 0x1121 JUMPI PUSH1 0x0 DUP6 SSTORE PUSH2 0x1168 JUMP JUMPDEST DUP3 PUSH1 0x1F LT PUSH2 0x113A JUMPI DUP1 MLOAD PUSH1 0xFF NOT AND DUP4 DUP1 ADD OR DUP6 SSTORE PUSH2 0x1168 JUMP JUMPDEST DUP3 DUP1 ADD PUSH1 0x1 ADD DUP6 SSTORE DUP3 ISZERO PUSH2 0x1168 JUMPI SWAP2 DUP3 ADD JUMPDEST DUP3 DUP2 GT ISZERO PUSH2 0x1167 JUMPI DUP3 MLOAD DUP3 SSTORE SWAP2 PUSH1 0x20 ADD SWAP2 SWAP1 PUSH1 0x1 ADD SWAP1 PUSH2 0x114C JUMP JUMPDEST JUMPDEST POP SWAP1 POP PUSH2 0x1175 SWAP2 SWAP1 PUSH2 0x119D JUMP JUMPDEST POP SWAP1 JUMP JUMPDEST JUMPDEST DUP1 DUP3 GT ISZERO PUSH2 0x1199 JUMPI PUSH1 0x0 DUP2 DUP2 PUSH2 0x1190 SWAP2 SWAP1 PUSH2 0x10B3 JUMP JUMPDEST POP PUSH1 0x1 ADD PUSH2 0x117A JUMP JUMPDEST POP SWAP1 JUMP JUMPDEST JUMPDEST DUP1 DUP3 GT ISZERO PUSH2 0x11B6 JUMPI PUSH1 0x0 DUP2 PUSH1 0x0 SWAP1 SSTORE POP PUSH1 0x1 ADD PUSH2 0x119E JUMP JUMPDEST POP SWAP1 JUMP JUMPDEST PUSH1 0x0 PUSH2 0x11CD PUSH2 0x11C8 DUP5 PUSH2 0x1883 JUMP JUMPDEST PUSH2 0x185E JUMP JUMPDEST SWAP1 POP DUP1 DUP4 DUP3 MSTORE PUSH1 0x20 DUP3 ADD SWAP1 POP DUP3 DUP6 PUSH1 0x20 DUP7 MUL DUP3 ADD GT ISZERO PUSH2 0x11F0 JUMPI PUSH2 0x11EF PUSH2 0x1A8A JUMP JUMPDEST JUMPDEST PUSH1 0x0 JUMPDEST DUP6 DUP2 LT ISZERO PUSH2 0x123E JUMPI DUP2 CALLDATALOAD PUSH8 0xFFFFFFFFFFFFFFFF DUP2 GT ISZERO PUSH2 0x1216 JUMPI PUSH2 0x1215 PUSH2 0x1A85 JUMP JUMPDEST JUMPDEST DUP1 DUP7 ADD PUSH2 0x1223 DUP10 DUP3 PUSH2 0x12CD JUMP JUMPDEST DUP6 MSTORE PUSH1 0x20 DUP6 ADD SWAP5 POP PUSH1 0x20 DUP5 ADD SWAP4 POP POP POP PUSH1 0x1 DUP2 ADD SWAP1 POP PUSH2 0x11F3 JUMP JUMPDEST POP POP POP SWAP4 SWAP3 POP POP POP JUMP JUMPDEST PUSH1 0x0 PUSH2 0x125B PUSH2 0x1256 DUP5 PUSH2 0x18AF JUMP JUMPDEST PUSH2 0x185E JUMP JUMPDEST SWAP1 POP DUP3 DUP2 MSTORE PUSH1 0x20 DUP2 ADD DUP5 DUP5 DUP5 ADD GT ISZERO PUSH2 0x1277 JUMPI PUSH2 0x1276 PUSH2 0x1A8F JUMP JUMPDEST JUMPDEST PUSH2 0x1282 DUP5 DUP3 DUP6 PUSH2 0x1982 JUMP JUMPDEST POP SWAP4 SWAP3 POP POP POP JUMP JUMPDEST PUSH1 0x0 DUP2 CALLDATALOAD SWAP1 POP PUSH2 0x1299 DUP2 PUSH2 0x1AAF JUMP JUMPDEST SWAP3 SWAP2 POP POP JUMP JUMPDEST PUSH1 0x0 DUP3 PUSH1 0x1F DUP4 ADD SLT PUSH2 0x12B4 JUMPI PUSH2 0x12B3 PUSH2 0x1A85 JUMP JUMPDEST JUMPDEST DUP2 CALLDATALOAD PUSH2 0x12C4 DUP5 DUP3 PUSH1 0x20 DUP7 ADD PUSH2 0x11BA JUMP JUMPDEST SWAP2 POP POP SWAP3 SWAP2 POP POP JUMP JUMPDEST PUSH1 0x0 DUP3 PUSH1 0x1F DUP4 ADD SLT PUSH2 0x12E2 JUMPI PUSH2 0x12E1 PUSH2 0x1A85 JUMP JUMPDEST JUMPDEST DUP2 CALLDATALOAD PUSH2 0x12F2 DUP5 DUP3 PUSH1 0x20 DUP7 ADD PUSH2 0x1248 JUMP JUMPDEST SWAP2 POP POP SWAP3 SWAP2 POP POP JUMP JUMPDEST PUSH1 0x0 PUSH1 0x20 DUP3 DUP5 SUB SLT ISZERO PUSH2 0x1311 JUMPI PUSH2 0x1310 PUSH2 0x1A99 JUMP JUMPDEST JUMPDEST PUSH1 0x0 PUSH2 0x131F DUP5 DUP3 DUP6 ADD PUSH2 0x128A JUMP JUMPDEST SWAP2 POP POP SWAP3 SWAP2 POP POP JUMP JUMPDEST PUSH1 0x0 DUP1 PUSH1 0x0 PUSH1 0x60 DUP5 DUP7 SUB SLT ISZERO PUSH2 0x1341 JUMPI PUSH2 0x1340 PUSH2 0x1A99 JUMP JUMPDEST JUMPDEST PUSH1 0x0 DUP5 ADD CALLDATALOAD PUSH8 0xFFFFFFFFFFFFFFFF DUP2 GT ISZERO PUSH2 0x135F JUMPI PUSH2 0x135E PUSH2 0x1A94 JUMP JUMPDEST JUMPDEST PUSH2 0x136B DUP7 DUP3 DUP8 ADD PUSH2 0x129F JUMP JUMPDEST SWAP4 POP POP PUSH1 0x20 DUP5 ADD CALLDATALOAD PUSH8 0xFFFFFFFFFFFFFFFF DUP2 GT ISZERO PUSH2 0x138C JUMPI PUSH2 0x138B PUSH2 0x1A94 JUMP JUMPDEST JUMPDEST PUSH2 0x1398 DUP7 DUP3 DUP8 ADD PUSH2 0x129F JUMP JUMPDEST SWAP3 POP POP PUSH1 0x40 DUP5 ADD CALLDATALOAD PUSH8 0xFFFFFFFFFFFFFFFF DUP2 GT ISZERO PUSH2 0x13B9 JUMPI PUSH2 0x13B8 PUSH2 0x1A94 JUMP JUMPDEST JUMPDEST PUSH2 0x13C5 DUP7 DUP3 DUP8 ADD PUSH2 0x129F JUMP JUMPDEST SWAP2 POP POP SWAP3 POP SWAP3 POP SWAP3 JUMP JUMPDEST PUSH1 0x0 DUP1 PUSH1 0x0 DUP1 PUSH1 0x80 DUP6 DUP8 SUB SLT ISZERO PUSH2 0x13E9 JUMPI PUSH2 0x13E8 PUSH2 0x1A99 JUMP JUMPDEST JUMPDEST PUSH1 0x0 DUP6 ADD CALLDATALOAD PUSH8 0xFFFFFFFFFFFFFFFF DUP2 GT ISZERO PUSH2 0x1407 JUMPI PUSH2 0x1406 PUSH2 0x1A94 JUMP JUMPDEST JUMPDEST PUSH2 0x1413 DUP8 DUP3 DUP9 ADD PUSH2 0x12CD JUMP JUMPDEST SWAP5 POP POP PUSH1 0x20 DUP6 ADD CALLDATALOAD PUSH8 0xFFFFFFFFFFFFFFFF DUP2 GT ISZERO PUSH2 0x1434 JUMPI PUSH2 0x1433 PUSH2 0x1A94 JUMP JUMPDEST JUMPDEST PUSH2 0x1440 DUP8 DUP3 DUP9 ADD PUSH2 0x12CD JUMP JUMPDEST SWAP4 POP POP PUSH1 0x40 DUP6 ADD CALLDATALOAD PUSH8 0xFFFFFFFFFFFFFFFF DUP2 GT ISZERO PUSH2 0x1461 JUMPI PUSH2 0x1460 PUSH2 0x1A94 JUMP JUMPDEST JUMPDEST PUSH2 0x146D DUP8 DUP3 DUP9 ADD PUSH2 0x12CD JUMP JUMPDEST SWAP3 POP POP PUSH1 0x60 DUP6 ADD CALLDATALOAD PUSH8 0xFFFFFFFFFFFFFFFF DUP2 GT ISZERO PUSH2 0x148E JUMPI PUSH2 0x148D PUSH2 0x1A94 JUMP JUMPDEST JUMPDEST PUSH2 0x149A DUP8 DUP3 DUP9 ADD PUSH2 0x12CD JUMP JUMPDEST SWAP2 POP POP SWAP3 SWAP6 SWAP2 SWAP5 POP SWAP3 POP JUMP JUMPDEST PUSH1 0x0 DUP1 PUSH1 0x0 DUP1 PUSH1 0x0 PUSH1 0xA0 DUP7 DUP9 SUB SLT ISZERO PUSH2 0x14C2 JUMPI PUSH2 0x14C1 PUSH2 0x1A99 JUMP JUMPDEST JUMPDEST PUSH1 0x0 DUP7 ADD CALLDATALOAD PUSH8 0xFFFFFFFFFFFFFFFF DUP2 GT ISZERO PUSH2 0x14E0 JUMPI PUSH2 0x14DF PUSH2 0x1A94 JUMP JUMPDEST JUMPDEST PUSH2 0x14EC DUP9 DUP3 DUP10 ADD PUSH2 0x12CD JUMP JUMPDEST SWAP6 POP POP PUSH1 0x20 DUP7 ADD CALLDATALOAD PUSH8 0xFFFFFFFFFFFFFFFF DUP2 GT ISZERO PUSH2 0x150D JUMPI PUSH2 0x150C PUSH2 0x1A94 JUMP JUMPDEST JUMPDEST PUSH2 0x1519 DUP9 DUP3 DUP10 ADD PUSH2 0x12CD JUMP JUMPDEST SWAP5 POP POP PUSH1 0x40 DUP7 ADD CALLDATALOAD PUSH8 0xFFFFFFFFFFFFFFFF DUP2 GT ISZERO PUSH2 0x153A JUMPI PUSH2 0x1539 PUSH2 0x1A94 JUMP JUMPDEST JUMPDEST PUSH2 0x1546 DUP9 DUP3 DUP10 ADD PUSH2 0x12CD JUMP JUMPDEST SWAP4 POP POP PUSH1 0x60 DUP7 ADD CALLDATALOAD PUSH8 0xFFFFFFFFFFFFFFFF DUP2 GT ISZERO PUSH2 0x1567 JUMPI PUSH2 0x1566 PUSH2 0x1A94 JUMP JUMPDEST JUMPDEST PUSH2 0x1573 DUP9 DUP3 DUP10 ADD PUSH2 0x12CD JUMP JUMPDEST SWAP3 POP POP PUSH1 0x80 DUP7 ADD CALLDATALOAD PUSH8 0xFFFFFFFFFFFFFFFF DUP2 GT ISZERO PUSH2 0x1594 JUMPI PUSH2 0x1593 PUSH2 0x1A94 JUMP JUMPDEST JUMPDEST PUSH2 0x15A0 DUP9 DUP3 DUP10 ADD PUSH2 0x12CD JUMP JUMPDEST SWAP2 POP POP SWAP3 SWAP6 POP SWAP3 SWAP6 SWAP1 SWAP4 POP JUMP JUMPDEST PUSH1 0x0 PUSH2 0x15B9 DUP4 DUP4 PUSH2 0x1645 JUMP JUMPDEST SWAP1 POP SWAP3 SWAP2 POP POP JUMP JUMPDEST PUSH2 0x15CA DUP2 PUSH2 0x1946 JUMP JUMPDEST DUP3 MSTORE POP POP JUMP JUMPDEST PUSH1 0x0 PUSH2 0x15DB DUP3 PUSH2 0x18F0 JUMP JUMPDEST PUSH2 0x15E5 DUP2 DUP6 PUSH2 0x1913 JUMP JUMPDEST SWAP4 POP DUP4 PUSH1 0x20 DUP3 MUL DUP6 ADD PUSH2 0x15F7 DUP6 PUSH2 0x18E0 JUMP JUMPDEST DUP1 PUSH1 0x0 JUMPDEST DUP6 DUP2 LT ISZERO PUSH2 0x1633 JUMPI DUP5 DUP5 SUB DUP10 MSTORE DUP2 MLOAD PUSH2 0x1614 DUP6 DUP3 PUSH2 0x15AD JUMP JUMPDEST SWAP5 POP PUSH2 0x161F DUP4 PUSH2 0x1906 JUMP JUMPDEST SWAP3 POP PUSH1 0x20 DUP11 ADD SWAP10 POP POP PUSH1 0x1 DUP2 ADD SWAP1 POP PUSH2 0x15FB JUMP JUMPDEST POP DUP3 SWAP8 POP DUP8 SWAP6 POP POP POP POP POP POP SWAP3 SWAP2 POP POP JUMP JUMPDEST PUSH1 0x0 PUSH2 0x1650 DUP3 PUSH2 0x18FB JUMP JUMPDEST PUSH2 0x165A DUP2 DUP6 PUSH2 0x1924 JUMP JUMPDEST SWAP4 POP PUSH2 0x166A DUP2 DUP6 PUSH1 0x20 DUP7 ADD PUSH2 0x1991 JUMP JUMPDEST PUSH2 0x1673 DUP2 PUSH2 0x1A9E JUMP JUMPDEST DUP5 ADD SWAP2 POP POP SWAP3 SWAP2 POP POP JUMP JUMPDEST PUSH1 0x0 PUSH2 0x1689 DUP3 PUSH2 0x18FB JUMP JUMPDEST PUSH2 0x1693 DUP2 DUP6 PUSH2 0x1935 JUMP JUMPDEST SWAP4 POP PUSH2 0x16A3 DUP2 DUP6 PUSH1 0x20 DUP7 ADD PUSH2 0x1991 JUMP JUMPDEST PUSH2 0x16AC DUP2 PUSH2 0x1A9E JUMP JUMPDEST DUP5 ADD SWAP2 POP POP SWAP3 SWAP2 POP POP JUMP JUMPDEST PUSH1 0x0 PUSH1 0xA0 DUP4 ADD PUSH1 0x0 DUP4 ADD MLOAD DUP5 DUP3 SUB PUSH1 0x0 DUP7 ADD MSTORE PUSH2 0x16D4 DUP3 DUP3 PUSH2 0x1645 JUMP JUMPDEST SWAP2 POP POP PUSH1 0x20 DUP4 ADD MLOAD DUP5 DUP3 SUB PUSH1 0x20 DUP7 ADD MSTORE PUSH2 0x16EE DUP3 DUP3 PUSH2 0x1645 JUMP JUMPDEST SWAP2 POP POP PUSH1 0x40 DUP4 ADD MLOAD DUP5 DUP3 SUB PUSH1 0x40 DUP7 ADD MSTORE PUSH2 0x1708 DUP3 DUP3 PUSH2 0x1645 JUMP JUMPDEST SWAP2 POP POP PUSH1 0x60 DUP4 ADD MLOAD DUP5 DUP3 SUB PUSH1 0x60 DUP7 ADD MSTORE PUSH2 0x1722 DUP3 DUP3 PUSH2 0x1645 JUMP JUMPDEST SWAP2 POP POP PUSH1 0x80 DUP4 ADD MLOAD DUP5 DUP3 SUB PUSH1 0x80 DUP7 ADD MSTORE PUSH2 0x173C DUP3 DUP3 PUSH2 0x1645 JUMP JUMPDEST SWAP2 POP POP DUP1 SWAP2 POP POP SWAP3 SWAP2 POP POP JUMP JUMPDEST PUSH1 0x0 PUSH1 0x60 DUP4 ADD PUSH1 0x0 DUP4 ADD MLOAD DUP5 DUP3 SUB PUSH1 0x0 DUP7 ADD MSTORE PUSH2 0x1766 DUP3 DUP3 PUSH2 0x15D0 JUMP JUMPDEST SWAP2 POP POP PUSH1 0x20 DUP4 ADD MLOAD DUP5 DUP3 SUB PUSH1 0x20 DUP7 ADD MSTORE PUSH2 0x1780 DUP3 DUP3 PUSH2 0x15D0 JUMP JUMPDEST SWAP2 POP POP PUSH1 0x40 DUP4 ADD MLOAD DUP5 DUP3 SUB PUSH1 0x40 DUP7 ADD MSTORE PUSH2 0x179A DUP3 DUP3 PUSH2 0x15D0 JUMP JUMPDEST SWAP2 POP POP DUP1 SWAP2 POP POP SWAP3 SWAP2 POP POP JUMP JUMPDEST PUSH2 0x17B0 DUP2 PUSH2 0x1978 JUMP JUMPDEST DUP3 MSTORE POP POP JUMP JUMPDEST PUSH1 0x0 PUSH2 0x100 DUP3 ADD SWAP1 POP PUSH2 0x17CC PUSH1 0x0 DUP4 ADD DUP12 PUSH2 0x15C1 JUMP JUMPDEST DUP2 DUP2 SUB PUSH1 0x20 DUP4 ADD MSTORE PUSH2 0x17DE DUP2 DUP11 PUSH2 0x167E JUMP JUMPDEST SWAP1 POP DUP2 DUP2 SUB PUSH1 0x40 DUP4 ADD MSTORE PUSH2 0x17F2 DUP2 DUP10 PUSH2 0x167E JUMP JUMPDEST SWAP1 POP DUP2 DUP2 SUB PUSH1 0x60 DUP4 ADD MSTORE PUSH2 0x1806 DUP2 DUP9 PUSH2 0x167E JUMP JUMPDEST SWAP1 POP DUP2 DUP2 SUB PUSH1 0x80 DUP4 ADD MSTORE PUSH2 0x181A DUP2 DUP8 PUSH2 0x167E JUMP JUMPDEST SWAP1 POP PUSH2 0x1829 PUSH1 0xA0 DUP4 ADD DUP7 PUSH2 0x17A7 JUMP JUMPDEST DUP2 DUP2 SUB PUSH1 0xC0 DUP4 ADD MSTORE PUSH2 0x183B DUP2 DUP6 PUSH2 0x16B7 JUMP JUMPDEST SWAP1 POP DUP2 DUP2 SUB PUSH1 0xE0 DUP4 ADD MSTORE PUSH2 0x184F DUP2 DUP5 PUSH2 0x1749 JUMP JUMPDEST SWAP1 POP SWAP10 SWAP9 POP POP POP POP POP POP POP POP POP JUMP JUMPDEST PUSH1 0x0 PUSH2 0x1868 PUSH2 0x1879 JUMP JUMPDEST SWAP1 POP PUSH2 0x1874 DUP3 DUP3 PUSH2 0x19F6 JUMP JUMPDEST SWAP2 SWAP1 POP JUMP JUMPDEST PUSH1 0x0 PUSH1 0x40 MLOAD SWAP1 POP SWAP1 JUMP JUMPDEST PUSH1 0x0 PUSH8 0xFFFFFFFFFFFFFFFF DUP3 GT ISZERO PUSH2 0x189E JUMPI PUSH2 0x189D PUSH2 0x1A56 JUMP JUMPDEST JUMPDEST PUSH1 0x20 DUP3 MUL SWAP1 POP PUSH1 0x20 DUP2 ADD SWAP1 POP SWAP2 SWAP1 POP JUMP JUMPDEST PUSH1 0x0 PUSH8 0xFFFFFFFFFFFFFFFF DUP3 GT ISZERO PUSH2 0x18CA JUMPI PUSH2 0x18C9 PUSH2 0x1A56 JUMP JUMPDEST JUMPDEST PUSH2 0x18D3 DUP3 PUSH2 0x1A9E JUMP JUMPDEST SWAP1 POP PUSH1 0x20 DUP2 ADD SWAP1 POP SWAP2 SWAP1 POP JUMP JUMPDEST PUSH1 0x0 DUP2 SWAP1 POP PUSH1 0x20 DUP3 ADD SWAP1 POP SWAP2 SWAP1 POP JUMP JUMPDEST PUSH1 0x0 DUP2 MLOAD SWAP1 POP SWAP2 SWAP1 POP JUMP JUMPDEST PUSH1 0x0 DUP2 MLOAD SWAP1 POP SWAP2 SWAP1 POP JUMP JUMPDEST PUSH1 0x0 PUSH1 0x20 DUP3 ADD SWAP1 POP SWAP2 SWAP1 POP JUMP JUMPDEST PUSH1 0x0 DUP3 DUP3 MSTORE PUSH1 0x20 DUP3 ADD SWAP1 POP SWAP3 SWAP2 POP POP JUMP JUMPDEST PUSH1 0x0 DUP3 DUP3 MSTORE PUSH1 0x20 DUP3 ADD SWAP1 POP SWAP3 SWAP2 POP POP JUMP JUMPDEST PUSH1 0x0 DUP3 DUP3 MSTORE PUSH1 0x20 DUP3 ADD SWAP1 POP SWAP3 SWAP2 POP POP JUMP JUMPDEST PUSH1 0x0 PUSH2 0x1951 DUP3 PUSH2 0x1958 JUMP JUMPDEST SWAP1 POP SWAP2 SWAP1 POP JUMP JUMPDEST PUSH1 0x0 PUSH20 0xFFFFFFFFFFFFFFFFFFFFFFFFFFFFFFFFFFFFFFFF DUP3 AND SWAP1 POP SWAP2 SWAP1 POP JUMP JUMPDEST PUSH1 0x0 DUP2 SWAP1 POP SWAP2 SWAP1 POP JUMP JUMPDEST DUP3 DUP2 DUP4 CALLDATACOPY PUSH1 0x0 DUP4 DUP4 ADD MSTORE POP POP POP JUMP JUMPDEST PUSH1 0x0 JUMPDEST DUP4 DUP2 LT ISZERO PUSH2 0x19AF JUMPI DUP1 DUP3 ADD MLOAD DUP2 DUP5 ADD MSTORE PUSH1 0x20 DUP2 ADD SWAP1 POP PUSH2 0x1994 JUMP JUMPDEST DUP4 DUP2 GT ISZERO PUSH2 0x19BE JUMPI PUSH1 0x0 DUP5 DUP5 ADD MSTORE JUMPDEST POP POP POP POP JUMP JUMPDEST PUSH1 0x0 PUSH1 0x2 DUP3 DIV SWAP1 POP PUSH1 0x1 DUP3 AND DUP1 PUSH2 0x19DC JUMPI PUSH1 0x7F DUP3 AND SWAP2 POP JUMPDEST PUSH1 0x20 DUP3 LT DUP2 EQ ISZERO PUSH2 0x19F0 JUMPI PUSH2 0x19EF PUSH2 0x1A27 JUMP JUMPDEST JUMPDEST POP SWAP2 SWAP1 POP JUMP JUMPDEST PUSH2 0x19FF DUP3 PUSH2 0x1A9E JUMP JUMPDEST DUP2 ADD DUP2 DUP2 LT PUSH8 0xFFFFFFFFFFFFFFFF DUP3 GT OR ISZERO PUSH2 0x1A1E JUMPI PUSH2 0x1A1D PUSH2 0x1A56 JUMP JUMPDEST JUMPDEST DUP1 PUSH1 0x40 MSTORE POP POP POP JUMP JUMPDEST PUSH32 0x4E487B7100000000000000000000000000000000000000000000000000000000 PUSH1 0x0 MSTORE PUSH1 0x22 PUSH1 0x4 MSTORE PUSH1 0x24 PUSH1 0x0 REVERT JUMPDEST PUSH32 0x4E487B7100000000000000000000000000000000000000000000000000000000 PUSH1 0x0 MSTORE PUSH1 0x41 PUSH1 0x4 MSTORE PUSH1 0x24 PUSH1 0x0 REVERT JUMPDEST PUSH1 0x0 DUP1 REVERT JUMPDEST PUSH1 0x0 DUP1 REVERT JUMPDEST PUSH1 0x0 DUP1 REVERT JUMPDEST PUSH1 0x0 DUP1 REVERT JUMPDEST PUSH1 0x0 DUP1 REVERT JUMPDEST PUSH1 0x0 PUSH1 0x1F NOT PUSH1 0x1F DUP4 ADD AND SWAP1 POP SWAP2 SWAP1 POP JUMP JUMPDEST PUSH2 0x1AB8 DUP2 PUSH2 0x1946 JUMP JUMPDEST DUP2 EQ PUSH2 0x1AC3 JUMPI PUSH1 0x0 DUP1 REVERT JUMPDEST POP JUMP INVALID LOG2 PUSH5 0x6970667358 0x22 SLT KECCAK256 0xD3 DIV 0xFC 0xA7 PUSH15 0xB80657EF630C67C5A4E24AD0452F82 0xA5 0xD4 SWAP13 0xD2 CALLVALUE CALLDATASIZE DUP7 SSTORE 0xEA SWAP12 0x2C PUSH5 0x64736F6C63 NUMBER STOP ADDMOD SMOD STOP CALLER "
				},
				"gasEstimates": {
					"creation": {
						"codeDepositCost": "1381600",
						"executionCost": "1438",
						"totalCost": "1383038"
					},
					"external": {
						"createBio(string,string,string,string)": "infinite",
						"createContract(string,string,string,string,string)": "infinite",
						"createSkill(string[],string[],string[])": "infinite",
						"delProfile()": "infinite",
						"profile(address)": "infinite"
					}
				},
				"methodIdentifiers": {
					"createBio(string,string,string,string)": "8c241fc4",
					"createContract(string,string,string,string,string)": "72828388",
					"createSkill(string[],string[],string[])": "3d984d0e",
					"delProfile()": "fabce08f",
					"profile(address)": "9dd9d0fd"
				}
			},
			"storageLayout": {
				"storage": [
					{
						"astId": 25,
						"contract": "contracts/Profile.sol:Profile",
						"label": "profile",
						"offset": 0,
						"slot": "0",
						"type": "t_mapping(t_address,t_struct(Bio)20_storage)"
					}
				],
				"types": {
					"t_address": {
						"encoding": "inplace",
						"label": "address",
						"numberOfBytes": "20"
					},
					"t_array(t_string_storage)dyn_storage": {
						"base": "t_string_storage",
						"encoding": "dynamic_array",
						"label": "string[]",
						"numberOfBytes": "32"
					},
					"t_mapping(t_address,t_struct(Bio)20_storage)": {
						"encoding": "mapping",
						"key": "t_address",
						"label": "mapping(address => struct Profile.Bio)",
						"numberOfBytes": "32",
						"value": "t_struct(Bio)20_storage"
					},
					"t_string_storage": {
						"encoding": "bytes",
						"label": "string",
						"numberOfBytes": "32"
					},
					"t_struct(Bio)20_storage": {
						"encoding": "inplace",
						"label": "struct Profile.Bio",
						"members": [
							{
								"astId": 3,
								"contract": "contracts/Profile.sol:Profile",
								"label": "userAddress",
								"offset": 0,
								"slot": "0",
								"type": "t_address"
							},
							{
								"astId": 5,
								"contract": "contracts/Profile.sol:Profile",
								"label": "firstName",
								"offset": 0,
								"slot": "1",
								"type": "t_string_storage"
							},
							{
								"astId": 7,
								"contract": "contracts/Profile.sol:Profile",
								"label": "middleName",
								"offset": 0,
								"slot": "2",
								"type": "t_string_storage"
							},
							{
								"astId": 9,
								"contract": "contracts/Profile.sol:Profile",
								"label": "lastName",
								"offset": 0,
								"slot": "3",
								"type": "t_string_storage"
							},
							{
								"astId": 11,
								"contract": "contracts/Profile.sol:Profile",
								"label": "profileImage",
								"offset": 0,
								"slot": "4",
								"type": "t_string_storage"
							},
							{
								"astId": 13,
								"contract": "contracts/Profile.sol:Profile",
								"label": "createDate",
								"offset": 0,
								"slot": "5",
								"type": "t_uint256"
							},
							{
								"astId": 16,
								"contract": "contracts/Profile.sol:Profile",
								"label": "privateContract",
								"offset": 0,
								"slot": "6",
								"type": "t_struct(Contract)36_storage"
							},
							{
								"astId": 19,
								"contract": "contracts/Profile.sol:Profile",
								"label": "skill",
								"offset": 0,
								"slot": "11",
								"type": "t_struct(Skill)46_storage"
							}
						],
						"numberOfBytes": "448"
					},
					"t_struct(Contract)36_storage": {
						"encoding": "inplace",
						"label": "struct Profile.Contract",
						"members": [
							{
								"astId": 27,
								"contract": "contracts/Profile.sol:Profile",
								"label": "email",
								"offset": 0,
								"slot": "0",
								"type": "t_string_storage"
							},
							{
								"astId": 29,
								"contract": "contracts/Profile.sol:Profile",
								"label": "phone",
								"offset": 0,
								"slot": "1",
								"type": "t_string_storage"
							},
							{
								"astId": 31,
								"contract": "contracts/Profile.sol:Profile",
								"label": "github",
								"offset": 0,
								"slot": "2",
								"type": "t_string_storage"
							},
							{
								"astId": 33,
								"contract": "contracts/Profile.sol:Profile",
								"label": "gitlab",
								"offset": 0,
								"slot": "3",
								"type": "t_string_storage"
							},
							{
								"astId": 35,
								"contract": "contracts/Profile.sol:Profile",
								"label": "linkin",
								"offset": 0,
								"slot": "4",
								"type": "t_string_storage"
							}
						],
						"numberOfBytes": "160"
					},
					"t_struct(Skill)46_storage": {
						"encoding": "inplace",
						"label": "struct Profile.Skill",
						"members": [
							{
								"astId": 39,
								"contract": "contracts/Profile.sol:Profile",
								"label": "frontend",
								"offset": 0,
								"slot": "0",
								"type": "t_array(t_string_storage)dyn_storage"
							},
							{
								"astId": 42,
								"contract": "contracts/Profile.sol:Profile",
								"label": "backend",
								"offset": 0,
								"slot": "1",
								"type": "t_array(t_string_storage)dyn_storage"
							},
							{
								"astId": 45,
								"contract": "contracts/Profile.sol:Profile",
								"label": "framework",
								"offset": 0,
								"slot": "2",
								"type": "t_array(t_string_storage)dyn_storage"
							}
						],
						"numberOfBytes": "96"
					},
					"t_uint256": {
						"encoding": "inplace",
						"label": "uint256",
						"numberOfBytes": "32"
					}
				}
			},
			"userdoc": {
				"kind": "user",
				"methods": {},
				"version": 1
			}
		}
	}
}