{
	"contracts/Profile.sol": {
		"Profile": {
			"abi": [
				{
					"inputs": [
						{
							"internalType": "string",
							"name": "firstName",
							"type": "string"
						},
						{
							"internalType": "string",
							"name": "middleName",
							"type": "string"
						},
						{
							"internalType": "string",
							"name": "lastName",
							"type": "string"
						},
						{
							"internalType": "string",
							"name": "email",
							"type": "string"
						},
						{
							"internalType": "string",
							"name": "phone",
							"type": "string"
						},
						{
							"internalType": "string",
							"name": "profileImage",
							"type": "string"
						},
						{
							"internalType": "string[]",
							"name": "frontend",
							"type": "string[]"
						},
						{
							"internalType": "string[]",
							"name": "backend",
							"type": "string[]"
						},
						{
							"internalType": "string[]",
							"name": "framework",
							"type": "string[]"
						}
					],
					"name": "addBio",
					"outputs": [],
					"stateMutability": "nonpayable",
					"type": "function"
				},
				{
					"inputs": [],
					"name": "delProfile",
					"outputs": [],
					"stateMutability": "nonpayable",
					"type": "function"
				},
				{
					"inputs": [],
					"name": "getAllSkill",
					"outputs": [
						{
							"components": [
								{
									"internalType": "address",
									"name": "userAddress",
									"type": "address"
								},
								{
									"internalType": "string",
									"name": "firstName",
									"type": "string"
								},
								{
									"internalType": "string",
									"name": "middleName",
									"type": "string"
								},
								{
									"internalType": "string",
									"name": "lastName",
									"type": "string"
								},
								{
									"internalType": "string",
									"name": "email",
									"type": "string"
								},
								{
									"internalType": "string",
									"name": "phone",
									"type": "string"
								},
								{
									"internalType": "string",
									"name": "profileImage",
									"type": "string"
								},
								{
									"internalType": "uint256",
									"name": "createDate",
									"type": "uint256"
								},
								{
									"internalType": "string[]",
									"name": "frontend",
									"type": "string[]"
								},
								{
									"internalType": "string[]",
									"name": "backend",
									"type": "string[]"
								},
								{
									"internalType": "string[]",
									"name": "framework",
									"type": "string[]"
								}
							],
							"internalType": "struct Profile.Bio",
							"name": "",
							"type": "tuple"
						}
					],
					"stateMutability": "view",
					"type": "function"
				},
				{
					"inputs": [
						{
							"internalType": "address",
							"name": "",
							"type": "address"
						}
					],
					"name": "profile",
					"outputs": [
						{
							"internalType": "address",
							"name": "userAddress",
							"type": "address"
						},
						{
							"internalType": "string",
							"name": "firstName",
							"type": "string"
						},
						{
							"internalType": "string",
							"name": "middleName",
							"type": "string"
						},
						{
							"internalType": "string",
							"name": "lastName",
							"type": "string"
						},
						{
							"internalType": "string",
							"name": "email",
							"type": "string"
						},
						{
							"internalType": "string",
							"name": "phone",
							"type": "string"
						},
						{
							"internalType": "string",
							"name": "profileImage",
							"type": "string"
						},
						{
							"internalType": "uint256",
							"name": "createDate",
							"type": "uint256"
						}
					],
					"stateMutability": "view",
					"type": "function"
				}
			],
			"devdoc": {
				"kind": "dev",
				"methods": {},
				"version": 1
			},
			"evm": {
				"assembly": "    /* \"contracts/Profile.sol\":60:2255  contract Profile {\r... */\n  mstore(0x40, 0x80)\n  callvalue\n  dup1\n  iszero\n  tag_1\n  jumpi\n  0x00\n  dup1\n  revert\ntag_1:\n  pop\n  dataSize(sub_0)\n  dup1\n  dataOffset(sub_0)\n  0x00\n  codecopy\n  0x00\n  return\nstop\n\nsub_0: assembly {\n        /* \"contracts/Profile.sol\":60:2255  contract Profile {\r... */\n      mstore(0x40, 0x80)\n      callvalue\n      dup1\n      iszero\n      tag_1\n      jumpi\n      0x00\n      dup1\n      revert\n    tag_1:\n      pop\n      jumpi(tag_2, lt(calldatasize, 0x04))\n      shr(0xe0, calldataload(0x00))\n      dup1\n      0x9dd9d0fd\n      eq\n      tag_3\n      jumpi\n      dup1\n      0xb08026ea\n      eq\n      tag_4\n      jumpi\n      dup1\n      0xca679f1d\n      eq\n      tag_5\n      jumpi\n      dup1\n      0xfabce08f\n      eq\n      tag_6\n      jumpi\n    tag_2:\n      0x00\n      dup1\n      revert\n        /* \"contracts/Profile.sol\":411:451  mapping (address => Bio) public  profile */\n    tag_3:\n      tag_7\n      0x04\n      dup1\n      calldatasize\n      sub\n      dup2\n      add\n      swap1\n      tag_8\n      swap2\n      swap1\n      tag_9\n      jump\t// in\n    tag_8:\n      tag_10\n      jump\t// in\n    tag_7:\n      mload(0x40)\n      tag_11\n      swap9\n      swap8\n      swap7\n      swap6\n      swap5\n      swap4\n      swap3\n      swap2\n      swap1\n      tag_12\n      jump\t// in\n    tag_11:\n      mload(0x40)\n      dup1\n      swap2\n      sub\n      swap1\n      return\n        /* \"contracts/Profile.sol\":2063:2164  function getAllSkill() public view returns( Bio memory) {\r... */\n    tag_4:\n      tag_13\n      tag_14\n      jump\t// in\n    tag_13:\n      mload(0x40)\n      tag_15\n      swap2\n      swap1\n      tag_16\n      jump\t// in\n    tag_15:\n      mload(0x40)\n      dup1\n      swap2\n      sub\n      swap1\n      return\n        /* \"contracts/Profile.sol\":590:1357  function addBio(string memory firstName, string memory middleName, string memory lastName, string memory email, string memory phone, string memory profileImage, string[] memory frontend, string[] memory backend, string[] memory framework) public {\r... */\n    tag_5:\n      tag_17\n      0x04\n      dup1\n      calldatasize\n      sub\n      dup2\n      add\n      swap1\n      tag_18\n      swap2\n      swap1\n      tag_19\n      jump\t// in\n    tag_18:\n      tag_20\n      jump\t// in\n    tag_17:\n      stop\n        /* \"contracts/Profile.sol\":2174:2248  function delProfile() public {\r... */\n    tag_6:\n      tag_21\n      tag_22\n      jump\t// in\n    tag_21:\n      stop\n        /* \"contracts/Profile.sol\":411:451  mapping (address => Bio) public  profile */\n    tag_10:\n      mstore(0x20, 0x00)\n      dup1\n      0x00\n      mstore\n      keccak256(0x00, 0x40)\n      0x00\n      swap2\n      pop\n      swap1\n      pop\n      dup1\n      0x00\n      add\n      0x00\n      swap1\n      sload\n      swap1\n      0x0100\n      exp\n      swap1\n      div\n      0xffffffffffffffffffffffffffffffffffffffff\n      and\n      swap1\n      dup1\n      0x01\n      add\n      dup1\n      sload\n      tag_23\n      swap1\n      tag_24\n      jump\t// in\n    tag_23:\n      dup1\n      0x1f\n      add\n      0x20\n      dup1\n      swap2\n      div\n      mul\n      0x20\n      add\n      mload(0x40)\n      swap1\n      dup2\n      add\n      0x40\n      mstore\n      dup1\n      swap3\n      swap2\n      swap1\n      dup2\n      dup2\n      mstore\n      0x20\n      add\n      dup3\n      dup1\n      sload\n      tag_25\n      swap1\n      tag_24\n      jump\t// in\n    tag_25:\n      dup1\n      iszero\n      tag_26\n      jumpi\n      dup1\n      0x1f\n      lt\n      tag_27\n      jumpi\n      0x0100\n      dup1\n      dup4\n      sload\n      div\n      mul\n      dup4\n      mstore\n      swap2\n      0x20\n      add\n      swap2\n      jump(tag_26)\n    tag_27:\n      dup3\n      add\n      swap2\n      swap1\n      0x00\n      mstore\n      keccak256(0x00, 0x20)\n      swap1\n    tag_28:\n      dup2\n      sload\n      dup2\n      mstore\n      swap1\n      0x01\n      add\n      swap1\n      0x20\n      add\n      dup1\n      dup4\n      gt\n      tag_28\n      jumpi\n      dup3\n      swap1\n      sub\n      0x1f\n      and\n      dup3\n      add\n      swap2\n    tag_26:\n      pop\n      pop\n      pop\n      pop\n      pop\n      swap1\n      dup1\n      0x02\n      add\n      dup1\n      sload\n      tag_29\n      swap1\n      tag_24\n      jump\t// in\n    tag_29:\n      dup1\n      0x1f\n      add\n      0x20\n      dup1\n      swap2\n      div\n      mul\n      0x20\n      add\n      mload(0x40)\n      swap1\n      dup2\n      add\n      0x40\n      mstore\n      dup1\n      swap3\n      swap2\n      swap1\n      dup2\n      dup2\n      mstore\n      0x20\n      add\n      dup3\n      dup1\n      sload\n      tag_30\n      swap1\n      tag_24\n      jump\t// in\n    tag_30:\n      dup1\n      iszero\n      tag_31\n      jumpi\n      dup1\n      0x1f\n      lt\n      tag_32\n      jumpi\n      0x0100\n      dup1\n      dup4\n      sload\n      div\n      mul\n      dup4\n      mstore\n      swap2\n      0x20\n      add\n      swap2\n      jump(tag_31)\n    tag_32:\n      dup3\n      add\n      swap2\n      swap1\n      0x00\n      mstore\n      keccak256(0x00, 0x20)\n      swap1\n    tag_33:\n      dup2\n      sload\n      dup2\n      mstore\n      swap1\n      0x01\n      add\n      swap1\n      0x20\n      add\n      dup1\n      dup4\n      gt\n      tag_33\n      jumpi\n      dup3\n      swap1\n      sub\n      0x1f\n      and\n      dup3\n      add\n      swap2\n    tag_31:\n      pop\n      pop\n      pop\n      pop\n      pop\n      swap1\n      dup1\n      0x03\n      add\n      dup1\n      sload\n      tag_34\n      swap1\n      tag_24\n      jump\t// in\n    tag_34:\n      dup1\n      0x1f\n      add\n      0x20\n      dup1\n      swap2\n      div\n      mul\n      0x20\n      add\n      mload(0x40)\n      swap1\n      dup2\n      add\n      0x40\n      mstore\n      dup1\n      swap3\n      swap2\n      swap1\n      dup2\n      dup2\n      mstore\n      0x20\n      add\n      dup3\n      dup1\n      sload\n      tag_35\n      swap1\n      tag_24\n      jump\t// in\n    tag_35:\n      dup1\n      iszero\n      tag_36\n      jumpi\n      dup1\n      0x1f\n      lt\n      tag_37\n      jumpi\n      0x0100\n      dup1\n      dup4\n      sload\n      div\n      mul\n      dup4\n      mstore\n      swap2\n      0x20\n      add\n      swap2\n      jump(tag_36)\n    tag_37:\n      dup3\n      add\n      swap2\n      swap1\n      0x00\n      mstore\n      keccak256(0x00, 0x20)\n      swap1\n    tag_38:\n      dup2\n      sload\n      dup2\n      mstore\n      swap1\n      0x01\n      add\n      swap1\n      0x20\n      add\n      dup1\n      dup4\n      gt\n      tag_38\n      jumpi\n      dup3\n      swap1\n      sub\n      0x1f\n      and\n      dup3\n      add\n      swap2\n    tag_36:\n      pop\n      pop\n      pop\n      pop\n      pop\n      swap1\n      dup1\n      0x04\n      add\n      dup1\n      sload\n      tag_39\n      swap1\n      tag_24\n      jump\t// in\n    tag_39:\n      dup1\n      0x1f\n      add\n      0x20\n      dup1\n      swap2\n      div\n      mul\n      0x20\n      add\n      mload(0x40)\n      swap1\n      dup2\n      add\n      0x40\n      mstore\n      dup1\n      swap3\n      swap2\n      swap1\n      dup2\n      dup2\n      mstore\n      0x20\n      add\n      dup3\n      dup1\n      sload\n      tag_40\n      swap1\n      tag_24\n      jump\t// in\n    tag_40:\n      dup1\n      iszero\n      tag_41\n      jumpi\n      dup1\n      0x1f\n      lt\n      tag_42\n      jumpi\n      0x0100\n      dup1\n      dup4\n      sload\n      div\n      mul\n      dup4\n      mstore\n      swap2\n      0x20\n      add\n      swap2\n      jump(tag_41)\n    tag_42:\n      dup3\n      add\n      swap2\n      swap1\n      0x00\n      mstore\n      keccak256(0x00, 0x20)\n      swap1\n    tag_43:\n      dup2\n      sload\n      dup2\n      mstore\n      swap1\n      0x01\n      add\n      swap1\n      0x20\n      add\n      dup1\n      dup4\n      gt\n      tag_43\n      jumpi\n      dup3\n      swap1\n      sub\n      0x1f\n      and\n      dup3\n      add\n      swap2\n    tag_41:\n      pop\n      pop\n      pop\n      pop\n      pop\n      swap1\n      dup1\n      0x05\n      add\n      dup1\n      sload\n      tag_44\n      swap1\n      tag_24\n      jump\t// in\n    tag_44:\n      dup1\n      0x1f\n      add\n      0x20\n      dup1\n      swap2\n      div\n      mul\n      0x20\n      add\n      mload(0x40)\n      swap1\n      dup2\n      add\n      0x40\n      mstore\n      dup1\n      swap3\n      swap2\n      swap1\n      dup2\n      dup2\n      mstore\n      0x20\n      add\n      dup3\n      dup1\n      sload\n      tag_45\n      swap1\n      tag_24\n      jump\t// in\n    tag_45:\n      dup1\n      iszero\n      tag_46\n      jumpi\n      dup1\n      0x1f\n      lt\n      tag_47\n      jumpi\n      0x0100\n      dup1\n      dup4\n      sload\n      div\n      mul\n      dup4\n      mstore\n      swap2\n      0x20\n      add\n      swap2\n      jump(tag_46)\n    tag_47:\n      dup3\n      add\n      swap2\n      swap1\n      0x00\n      mstore\n      keccak256(0x00, 0x20)\n      swap1\n    tag_48:\n      dup2\n      sload\n      dup2\n      mstore\n      swap1\n      0x01\n      add\n      swap1\n      0x20\n      add\n      dup1\n      dup4\n      gt\n      tag_48\n      jumpi\n      dup3\n      swap1\n      sub\n      0x1f\n      and\n      dup3\n      add\n      swap2\n    tag_46:\n      pop\n      pop\n      pop\n      pop\n      pop\n      swap1\n      dup1\n      0x06\n      add\n      dup1\n      sload\n      tag_49\n      swap1\n      tag_24\n      jump\t// in\n    tag_49:\n      dup1\n      0x1f\n      add\n      0x20\n      dup1\n      swap2\n      div\n      mul\n      0x20\n      add\n      mload(0x40)\n      swap1\n      dup2\n      add\n      0x40\n      mstore\n      dup1\n      swap3\n      swap2\n      swap1\n      dup2\n      dup2\n      mstore\n      0x20\n      add\n      dup3\n      dup1\n      sload\n      tag_50\n      swap1\n      tag_24\n      jump\t// in\n    tag_50:\n      dup1\n      iszero\n      tag_51\n      jumpi\n      dup1\n      0x1f\n      lt\n      tag_52\n      jumpi\n      0x0100\n      dup1\n      dup4\n      sload\n      div\n      mul\n      dup4\n      mstore\n      swap2\n      0x20\n      add\n      swap2\n      jump(tag_51)\n    tag_52:\n      dup3\n      add\n      swap2\n      swap1\n      0x00\n      mstore\n      keccak256(0x00, 0x20)\n      swap1\n    tag_53:\n      dup2\n      sload\n      dup2\n      mstore\n      swap1\n      0x01\n      add\n      swap1\n      0x20\n      add\n      dup1\n      dup4\n      gt\n      tag_53\n      jumpi\n      dup3\n      swap1\n      sub\n      0x1f\n      and\n      dup3\n      add\n      swap2\n    tag_51:\n      pop\n      pop\n      pop\n      pop\n      pop\n      swap1\n      dup1\n      0x07\n      add\n      sload\n      swap1\n      pop\n      dup9\n      jump\t// out\n        /* \"contracts/Profile.sol\":2063:2164  function getAllSkill() public view returns( Bio memory) {\r... */\n    tag_14:\n        /* \"contracts/Profile.sol\":2107:2117  Bio memory */\n      tag_54\n      tag_55\n      jump\t// in\n    tag_54:\n        /* \"contracts/Profile.sol\":2137:2144  profile */\n      0x00\n        /* \"contracts/Profile.sol\":2137:2156  profile[msg.sender] */\n      dup1\n        /* \"contracts/Profile.sol\":2145:2155  msg.sender */\n      caller\n        /* \"contracts/Profile.sol\":2137:2156  profile[msg.sender] */\n      0xffffffffffffffffffffffffffffffffffffffff\n      and\n      0xffffffffffffffffffffffffffffffffffffffff\n      and\n      dup2\n      mstore\n      0x20\n      add\n      swap1\n      dup2\n      mstore\n      0x20\n      add\n      0x00\n      keccak256\n        /* \"contracts/Profile.sol\":2130:2156  return profile[msg.sender] */\n      mload(0x40)\n      dup1\n      0x0160\n      add\n      0x40\n      mstore\n      swap1\n      dup2\n      0x00\n      dup3\n      add\n      0x00\n      swap1\n      sload\n      swap1\n      0x0100\n      exp\n      swap1\n      div\n      0xffffffffffffffffffffffffffffffffffffffff\n      and\n      0xffffffffffffffffffffffffffffffffffffffff\n      and\n      0xffffffffffffffffffffffffffffffffffffffff\n      and\n      dup2\n      mstore\n      0x20\n      add\n      0x01\n      dup3\n      add\n      dup1\n      sload\n      tag_57\n      swap1\n      tag_24\n      jump\t// in\n    tag_57:\n      dup1\n      0x1f\n      add\n      0x20\n      dup1\n      swap2\n      div\n      mul\n      0x20\n      add\n      mload(0x40)\n      swap1\n      dup2\n      add\n      0x40\n      mstore\n      dup1\n      swap3\n      swap2\n      swap1\n      dup2\n      dup2\n      mstore\n      0x20\n      add\n      dup3\n      dup1\n      sload\n      tag_58\n      swap1\n      tag_24\n      jump\t// in\n    tag_58:\n      dup1\n      iszero\n      tag_59\n      jumpi\n      dup1\n      0x1f\n      lt\n      tag_60\n      jumpi\n      0x0100\n      dup1\n      dup4\n      sload\n      div\n      mul\n      dup4\n      mstore\n      swap2\n      0x20\n      add\n      swap2\n      jump(tag_59)\n    tag_60:\n      dup3\n      add\n      swap2\n      swap1\n      0x00\n      mstore\n      keccak256(0x00, 0x20)\n      swap1\n    tag_61:\n      dup2\n      sload\n      dup2\n      mstore\n      swap1\n      0x01\n      add\n      swap1\n      0x20\n      add\n      dup1\n      dup4\n      gt\n      tag_61\n      jumpi\n      dup3\n      swap1\n      sub\n      0x1f\n      and\n      dup3\n      add\n      swap2\n    tag_59:\n      pop\n      pop\n      pop\n      pop\n      pop\n      dup2\n      mstore\n      0x20\n      add\n      0x02\n      dup3\n      add\n      dup1\n      sload\n      tag_62\n      swap1\n      tag_24\n      jump\t// in\n    tag_62:\n      dup1\n      0x1f\n      add\n      0x20\n      dup1\n      swap2\n      div\n      mul\n      0x20\n      add\n      mload(0x40)\n      swap1\n      dup2\n      add\n      0x40\n      mstore\n      dup1\n      swap3\n      swap2\n      swap1\n      dup2\n      dup2\n      mstore\n      0x20\n      add\n      dup3\n      dup1\n      sload\n      tag_63\n      swap1\n      tag_24\n      jump\t// in\n    tag_63:\n      dup1\n      iszero\n      tag_64\n      jumpi\n      dup1\n      0x1f\n      lt\n      tag_65\n      jumpi\n      0x0100\n      dup1\n      dup4\n      sload\n      div\n      mul\n      dup4\n      mstore\n      swap2\n      0x20\n      add\n      swap2\n      jump(tag_64)\n    tag_65:\n      dup3\n      add\n      swap2\n      swap1\n      0x00\n      mstore\n      keccak256(0x00, 0x20)\n      swap1\n    tag_66:\n      dup2\n      sload\n      dup2\n      mstore\n      swap1\n      0x01\n      add\n      swap1\n      0x20\n      add\n      dup1\n      dup4\n      gt\n      tag_66\n      jumpi\n      dup3\n      swap1\n      sub\n      0x1f\n      and\n      dup3\n      add\n      swap2\n    tag_64:\n      pop\n      pop\n      pop\n      pop\n      pop\n      dup2\n      mstore\n      0x20\n      add\n      0x03\n      dup3\n      add\n      dup1\n      sload\n      tag_67\n      swap1\n      tag_24\n      jump\t// in\n    tag_67:\n      dup1\n      0x1f\n      add\n      0x20\n      dup1\n      swap2\n      div\n      mul\n      0x20\n      add\n      mload(0x40)\n      swap1\n      dup2\n      add\n      0x40\n      mstore\n      dup1\n      swap3\n      swap2\n      swap1\n      dup2\n      dup2\n      mstore\n      0x20\n      add\n      dup3\n      dup1\n      sload\n      tag_68\n      swap1\n      tag_24\n      jump\t// in\n    tag_68:\n      dup1\n      iszero\n      tag_69\n      jumpi\n      dup1\n      0x1f\n      lt\n      tag_70\n      jumpi\n      0x0100\n      dup1\n      dup4\n      sload\n      div\n      mul\n      dup4\n      mstore\n      swap2\n      0x20\n      add\n      swap2\n      jump(tag_69)\n    tag_70:\n      dup3\n      add\n      swap2\n      swap1\n      0x00\n      mstore\n      keccak256(0x00, 0x20)\n      swap1\n    tag_71:\n      dup2\n      sload\n      dup2\n      mstore\n      swap1\n      0x01\n      add\n      swap1\n      0x20\n      add\n      dup1\n      dup4\n      gt\n      tag_71\n      jumpi\n      dup3\n      swap1\n      sub\n      0x1f\n      and\n      dup3\n      add\n      swap2\n    tag_69:\n      pop\n      pop\n      pop\n      pop\n      pop\n      dup2\n      mstore\n      0x20\n      add\n      0x04\n      dup3\n      add\n      dup1\n      sload\n      tag_72\n      swap1\n      tag_24\n      jump\t// in\n    tag_72:\n      dup1\n      0x1f\n      add\n      0x20\n      dup1\n      swap2\n      div\n      mul\n      0x20\n      add\n      mload(0x40)\n      swap1\n      dup2\n      add\n      0x40\n      mstore\n      dup1\n      swap3\n      swap2\n      swap1\n      dup2\n      dup2\n      mstore\n      0x20\n      add\n      dup3\n      dup1\n      sload\n      tag_73\n      swap1\n      tag_24\n      jump\t// in\n    tag_73:\n      dup1\n      iszero\n      tag_74\n      jumpi\n      dup1\n      0x1f\n      lt\n      tag_75\n      jumpi\n      0x0100\n      dup1\n      dup4\n      sload\n      div\n      mul\n      dup4\n      mstore\n      swap2\n      0x20\n      add\n      swap2\n      jump(tag_74)\n    tag_75:\n      dup3\n      add\n      swap2\n      swap1\n      0x00\n      mstore\n      keccak256(0x00, 0x20)\n      swap1\n    tag_76:\n      dup2\n      sload\n      dup2\n      mstore\n      swap1\n      0x01\n      add\n      swap1\n      0x20\n      add\n      dup1\n      dup4\n      gt\n      tag_76\n      jumpi\n      dup3\n      swap1\n      sub\n      0x1f\n      and\n      dup3\n      add\n      swap2\n    tag_74:\n      pop\n      pop\n      pop\n      pop\n      pop\n      dup2\n      mstore\n      0x20\n      add\n      0x05\n      dup3\n      add\n      dup1\n      sload\n      tag_77\n      swap1\n      tag_24\n      jump\t// in\n    tag_77:\n      dup1\n      0x1f\n      add\n      0x20\n      dup1\n      swap2\n      div\n      mul\n      0x20\n      add\n      mload(0x40)\n      swap1\n      dup2\n      add\n      0x40\n      mstore\n      dup1\n      swap3\n      swap2\n      swap1\n      dup2\n      dup2\n      mstore\n      0x20\n      add\n      dup3\n      dup1\n      sload\n      tag_78\n      swap1\n      tag_24\n      jump\t// in\n    tag_78:\n      dup1\n      iszero\n      tag_79\n      jumpi\n      dup1\n      0x1f\n      lt\n      tag_80\n      jumpi\n      0x0100\n      dup1\n      dup4\n      sload\n      div\n      mul\n      dup4\n      mstore\n      swap2\n      0x20\n      add\n      swap2\n      jump(tag_79)\n    tag_80:\n      dup3\n      add\n      swap2\n      swap1\n      0x00\n      mstore\n      keccak256(0x00, 0x20)\n      swap1\n    tag_81:\n      dup2\n      sload\n      dup2\n      mstore\n      swap1\n      0x01\n      add\n      swap1\n      0x20\n      add\n      dup1\n      dup4\n      gt\n      tag_81\n      jumpi\n      dup3\n      swap1\n      sub\n      0x1f\n      and\n      dup3\n      add\n      swap2\n    tag_79:\n      pop\n      pop\n      pop\n      pop\n      pop\n      dup2\n      mstore\n      0x20\n      add\n      0x06\n      dup3\n      add\n      dup1\n      sload\n      tag_82\n      swap1\n      tag_24\n      jump\t// in\n    tag_82:\n      dup1\n      0x1f\n      add\n      0x20\n      dup1\n      swap2\n      div\n      mul\n      0x20\n      add\n      mload(0x40)\n      swap1\n      dup2\n      add\n      0x40\n      mstore\n      dup1\n      swap3\n      swap2\n      swap1\n      dup2\n      dup2\n      mstore\n      0x20\n      add\n      dup3\n      dup1\n      sload\n      tag_83\n      swap1\n      tag_24\n      jump\t// in\n    tag_83:\n      dup1\n      iszero\n      tag_84\n      jumpi\n      dup1\n      0x1f\n      lt\n      tag_85\n      jumpi\n      0x0100\n      dup1\n      dup4\n      sload\n      div\n      mul\n      dup4\n      mstore\n      swap2\n      0x20\n      add\n      swap2\n      jump(tag_84)\n    tag_85:\n      dup3\n      add\n      swap2\n      swap1\n      0x00\n      mstore\n      keccak256(0x00, 0x20)\n      swap1\n    tag_86:\n      dup2\n      sload\n      dup2\n      mstore\n      swap1\n      0x01\n      add\n      swap1\n      0x20\n      add\n      dup1\n      dup4\n      gt\n      tag_86\n      jumpi\n      dup3\n      swap1\n      sub\n      0x1f\n      and\n      dup3\n      add\n      swap2\n    tag_84:\n      pop\n      pop\n      pop\n      pop\n      pop\n      dup2\n      mstore\n      0x20\n      add\n      0x07\n      dup3\n      add\n      sload\n      dup2\n      mstore\n      0x20\n      add\n      0x08\n      dup3\n      add\n      dup1\n      sload\n      dup1\n      0x20\n      mul\n      0x20\n      add\n      mload(0x40)\n      swap1\n      dup2\n      add\n      0x40\n      mstore\n      dup1\n      swap3\n      swap2\n      swap1\n      dup2\n      dup2\n      mstore\n      0x20\n      add\n      0x00\n      swap1\n    tag_87:\n      dup3\n      dup3\n      lt\n      iszero\n      tag_88\n      jumpi\n      dup4\n      dup3\n      swap1\n      0x00\n      mstore\n      keccak256(0x00, 0x20)\n      add\n      dup1\n      sload\n      tag_90\n      swap1\n      tag_24\n      jump\t// in\n    tag_90:\n      dup1\n      0x1f\n      add\n      0x20\n      dup1\n      swap2\n      div\n      mul\n      0x20\n      add\n      mload(0x40)\n      swap1\n      dup2\n      add\n      0x40\n      mstore\n      dup1\n      swap3\n      swap2\n      swap1\n      dup2\n      dup2\n      mstore\n      0x20\n      add\n      dup3\n      dup1\n      sload\n      tag_91\n      swap1\n      tag_24\n      jump\t// in\n    tag_91:\n      dup1\n      iszero\n      tag_92\n      jumpi\n      dup1\n      0x1f\n      lt\n      tag_93\n      jumpi\n      0x0100\n      dup1\n      dup4\n      sload\n      div\n      mul\n      dup4\n      mstore\n      swap2\n      0x20\n      add\n      swap2\n      jump(tag_92)\n    tag_93:\n      dup3\n      add\n      swap2\n      swap1\n      0x00\n      mstore\n      keccak256(0x00, 0x20)\n      swap1\n    tag_94:\n      dup2\n      sload\n      dup2\n      mstore\n      swap1\n      0x01\n      add\n      swap1\n      0x20\n      add\n      dup1\n      dup4\n      gt\n      tag_94\n      jumpi\n      dup3\n      swap1\n      sub\n      0x1f\n      and\n      dup3\n      add\n      swap2\n    tag_92:\n      pop\n      pop\n      pop\n      pop\n      pop\n      dup2\n      mstore\n      0x20\n      add\n      swap1\n      0x01\n      add\n      swap1\n      jump(tag_87)\n    tag_88:\n      pop\n      pop\n      pop\n      pop\n      dup2\n      mstore\n      0x20\n      add\n      0x09\n      dup3\n      add\n      dup1\n      sload\n      dup1\n      0x20\n      mul\n      0x20\n      add\n      mload(0x40)\n      swap1\n      dup2\n      add\n      0x40\n      mstore\n      dup1\n      swap3\n      swap2\n      swap1\n      dup2\n      dup2\n      mstore\n      0x20\n      add\n      0x00\n      swap1\n    tag_95:\n      dup3\n      dup3\n      lt\n      iszero\n      tag_96\n      jumpi\n      dup4\n      dup3\n      swap1\n      0x00\n      mstore\n      keccak256(0x00, 0x20)\n      add\n      dup1\n      sload\n      tag_98\n      swap1\n      tag_24\n      jump\t// in\n    tag_98:\n      dup1\n      0x1f\n      add\n      0x20\n      dup1\n      swap2\n      div\n      mul\n      0x20\n      add\n      mload(0x40)\n      swap1\n      dup2\n      add\n      0x40\n      mstore\n      dup1\n      swap3\n      swap2\n      swap1\n      dup2\n      dup2\n      mstore\n      0x20\n      add\n      dup3\n      dup1\n      sload\n      tag_99\n      swap1\n      tag_24\n      jump\t// in\n    tag_99:\n      dup1\n      iszero\n      tag_100\n      jumpi\n      dup1\n      0x1f\n      lt\n      tag_101\n      jumpi\n      0x0100\n      dup1\n      dup4\n      sload\n      div\n      mul\n      dup4\n      mstore\n      swap2\n      0x20\n      add\n      swap2\n      jump(tag_100)\n    tag_101:\n      dup3\n      add\n      swap2\n      swap1\n      0x00\n      mstore\n      keccak256(0x00, 0x20)\n      swap1\n    tag_102:\n      dup2\n      sload\n      dup2\n      mstore\n      swap1\n      0x01\n      add\n      swap1\n      0x20\n      add\n      dup1\n      dup4\n      gt\n      tag_102\n      jumpi\n      dup3\n      swap1\n      sub\n      0x1f\n      and\n      dup3\n      add\n      swap2\n    tag_100:\n      pop\n      pop\n      pop\n      pop\n      pop\n      dup2\n      mstore\n      0x20\n      add\n      swap1\n      0x01\n      add\n      swap1\n      jump(tag_95)\n    tag_96:\n      pop\n      pop\n      pop\n      pop\n      dup2\n      mstore\n      0x20\n      add\n      0x0a\n      dup3\n      add\n      dup1\n      sload\n      dup1\n      0x20\n      mul\n      0x20\n      add\n      mload(0x40)\n      swap1\n      dup2\n      add\n      0x40\n      mstore\n      dup1\n      swap3\n      swap2\n      swap1\n      dup2\n      dup2\n      mstore\n      0x20\n      add\n      0x00\n      swap1\n    tag_103:\n      dup3\n      dup3\n      lt\n      iszero\n      tag_104\n      jumpi\n      dup4\n      dup3\n      swap1\n      0x00\n      mstore\n      keccak256(0x00, 0x20)\n      add\n      dup1\n      sload\n      tag_106\n      swap1\n      tag_24\n      jump\t// in\n    tag_106:\n      dup1\n      0x1f\n      add\n      0x20\n      dup1\n      swap2\n      div\n      mul\n      0x20\n      add\n      mload(0x40)\n      swap1\n      dup2\n      add\n      0x40\n      mstore\n      dup1\n      swap3\n      swap2\n      swap1\n      dup2\n      dup2\n      mstore\n      0x20\n      add\n      dup3\n      dup1\n      sload\n      tag_107\n      swap1\n      tag_24\n      jump\t// in\n    tag_107:\n      dup1\n      iszero\n      tag_108\n      jumpi\n      dup1\n      0x1f\n      lt\n      tag_109\n      jumpi\n      0x0100\n      dup1\n      dup4\n      sload\n      div\n      mul\n      dup4\n      mstore\n      swap2\n      0x20\n      add\n      swap2\n      jump(tag_108)\n    tag_109:\n      dup3\n      add\n      swap2\n      swap1\n      0x00\n      mstore\n      keccak256(0x00, 0x20)\n      swap1\n    tag_110:\n      dup2\n      sload\n      dup2\n      mstore\n      swap1\n      0x01\n      add\n      swap1\n      0x20\n      add\n      dup1\n      dup4\n      gt\n      tag_110\n      jumpi\n      dup3\n      swap1\n      sub\n      0x1f\n      and\n      dup3\n      add\n      swap2\n    tag_108:\n      pop\n      pop\n      pop\n      pop\n      pop\n      dup2\n      mstore\n      0x20\n      add\n      swap1\n      0x01\n      add\n      swap1\n      jump(tag_103)\n    tag_104:\n      pop\n      pop\n      pop\n      pop\n      dup2\n      mstore\n      pop\n      pop\n      swap1\n      pop\n        /* \"contracts/Profile.sol\":2063:2164  function getAllSkill() public view returns( Bio memory) {\r... */\n      swap1\n      jump\t// out\n        /* \"contracts/Profile.sol\":590:1357  function addBio(string memory firstName, string memory middleName, string memory lastName, string memory email, string memory phone, string memory profileImage, string[] memory frontend, string[] memory backend, string[] memory framework) public {\r... */\n    tag_20:\n        /* \"contracts/Profile.sol\":879:888  firstName */\n      dup9\n        /* \"contracts/Profile.sol\":847:854  profile */\n      0x00\n        /* \"contracts/Profile.sol\":847:866  profile[msg.sender] */\n      dup1\n        /* \"contracts/Profile.sol\":855:865  msg.sender */\n      caller\n        /* \"contracts/Profile.sol\":847:866  profile[msg.sender] */\n      0xffffffffffffffffffffffffffffffffffffffff\n      and\n      0xffffffffffffffffffffffffffffffffffffffff\n      and\n      dup2\n      mstore\n      0x20\n      add\n      swap1\n      dup2\n      mstore\n      0x20\n      add\n      0x00\n      keccak256\n        /* \"contracts/Profile.sol\":847:876  profile[msg.sender].firstName */\n      0x01\n      add\n        /* \"contracts/Profile.sol\":847:888  profile[msg.sender].firstName = firstName */\n      swap1\n      dup1\n      mload\n      swap1\n      0x20\n      add\n      swap1\n      tag_112\n      swap3\n      swap2\n      swap1\n      tag_113\n      jump\t// in\n    tag_112:\n      pop\n        /* \"contracts/Profile.sol\":932:942  middleName */\n      dup8\n        /* \"contracts/Profile.sol\":899:906  profile */\n      0x00\n        /* \"contracts/Profile.sol\":899:918  profile[msg.sender] */\n      dup1\n        /* \"contracts/Profile.sol\":907:917  msg.sender */\n      caller\n        /* \"contracts/Profile.sol\":899:918  profile[msg.sender] */\n      0xffffffffffffffffffffffffffffffffffffffff\n      and\n      0xffffffffffffffffffffffffffffffffffffffff\n      and\n      dup2\n      mstore\n      0x20\n      add\n      swap1\n      dup2\n      mstore\n      0x20\n      add\n      0x00\n      keccak256\n        /* \"contracts/Profile.sol\":899:929  profile[msg.sender].middleName */\n      0x02\n      add\n        /* \"contracts/Profile.sol\":899:942  profile[msg.sender].middleName = middleName */\n      swap1\n      dup1\n      mload\n      swap1\n      0x20\n      add\n      swap1\n      tag_114\n      swap3\n      swap2\n      swap1\n      tag_113\n      jump\t// in\n    tag_114:\n      pop\n        /* \"contracts/Profile.sol\":984:992  lastName */\n      dup7\n        /* \"contracts/Profile.sol\":953:960  profile */\n      0x00\n        /* \"contracts/Profile.sol\":953:972  profile[msg.sender] */\n      dup1\n        /* \"contracts/Profile.sol\":961:971  msg.sender */\n      caller\n        /* \"contracts/Profile.sol\":953:972  profile[msg.sender] */\n      0xffffffffffffffffffffffffffffffffffffffff\n      and\n      0xffffffffffffffffffffffffffffffffffffffff\n      and\n      dup2\n      mstore\n      0x20\n      add\n      swap1\n      dup2\n      mstore\n      0x20\n      add\n      0x00\n      keccak256\n        /* \"contracts/Profile.sol\":953:981  profile[msg.sender].lastName */\n      0x03\n      add\n        /* \"contracts/Profile.sol\":953:992  profile[msg.sender].lastName = lastName */\n      swap1\n      dup1\n      mload\n      swap1\n      0x20\n      add\n      swap1\n      tag_115\n      swap3\n      swap2\n      swap1\n      tag_113\n      jump\t// in\n    tag_115:\n      pop\n        /* \"contracts/Profile.sol\":1031:1036  email */\n      dup6\n        /* \"contracts/Profile.sol\":1003:1010  profile */\n      0x00\n        /* \"contracts/Profile.sol\":1003:1022  profile[msg.sender] */\n      dup1\n        /* \"contracts/Profile.sol\":1011:1021  msg.sender */\n      caller\n        /* \"contracts/Profile.sol\":1003:1022  profile[msg.sender] */\n      0xffffffffffffffffffffffffffffffffffffffff\n      and\n      0xffffffffffffffffffffffffffffffffffffffff\n      and\n      dup2\n      mstore\n      0x20\n      add\n      swap1\n      dup2\n      mstore\n      0x20\n      add\n      0x00\n      keccak256\n        /* \"contracts/Profile.sol\":1003:1028  profile[msg.sender].email */\n      0x04\n      add\n        /* \"contracts/Profile.sol\":1003:1036  profile[msg.sender].email = email */\n      swap1\n      dup1\n      mload\n      swap1\n      0x20\n      add\n      swap1\n      tag_116\n      swap3\n      swap2\n      swap1\n      tag_113\n      jump\t// in\n    tag_116:\n      pop\n        /* \"contracts/Profile.sol\":1075:1080  phone */\n      dup5\n        /* \"contracts/Profile.sol\":1047:1054  profile */\n      0x00\n        /* \"contracts/Profile.sol\":1047:1066  profile[msg.sender] */\n      dup1\n        /* \"contracts/Profile.sol\":1055:1065  msg.sender */\n      caller\n        /* \"contracts/Profile.sol\":1047:1066  profile[msg.sender] */\n      0xffffffffffffffffffffffffffffffffffffffff\n      and\n      0xffffffffffffffffffffffffffffffffffffffff\n      and\n      dup2\n      mstore\n      0x20\n      add\n      swap1\n      dup2\n      mstore\n      0x20\n      add\n      0x00\n      keccak256\n        /* \"contracts/Profile.sol\":1047:1072  profile[msg.sender].phone */\n      0x05\n      add\n        /* \"contracts/Profile.sol\":1047:1080  profile[msg.sender].phone = phone */\n      swap1\n      dup1\n      mload\n      swap1\n      0x20\n      add\n      swap1\n      tag_117\n      swap3\n      swap2\n      swap1\n      tag_113\n      jump\t// in\n    tag_117:\n      pop\n        /* \"contracts/Profile.sol\":1126:1138  profileImage */\n      dup4\n        /* \"contracts/Profile.sol\":1091:1098  profile */\n      0x00\n        /* \"contracts/Profile.sol\":1091:1110  profile[msg.sender] */\n      dup1\n        /* \"contracts/Profile.sol\":1099:1109  msg.sender */\n      caller\n        /* \"contracts/Profile.sol\":1091:1110  profile[msg.sender] */\n      0xffffffffffffffffffffffffffffffffffffffff\n      and\n      0xffffffffffffffffffffffffffffffffffffffff\n      and\n      dup2\n      mstore\n      0x20\n      add\n      swap1\n      dup2\n      mstore\n      0x20\n      add\n      0x00\n      keccak256\n        /* \"contracts/Profile.sol\":1091:1123  profile[msg.sender].profileImage */\n      0x06\n      add\n        /* \"contracts/Profile.sol\":1091:1138  profile[msg.sender].profileImage = profileImage */\n      swap1\n      dup1\n      mload\n      swap1\n      0x20\n      add\n      swap1\n      tag_118\n      swap3\n      swap2\n      swap1\n      tag_113\n      jump\t// in\n    tag_118:\n      pop\n        /* \"contracts/Profile.sol\":1183:1193  msg.sender */\n      caller\n        /* \"contracts/Profile.sol\":1149:1156  profile */\n      0x00\n        /* \"contracts/Profile.sol\":1149:1168  profile[msg.sender] */\n      dup1\n        /* \"contracts/Profile.sol\":1157:1167  msg.sender */\n      caller\n        /* \"contracts/Profile.sol\":1149:1168  profile[msg.sender] */\n      0xffffffffffffffffffffffffffffffffffffffff\n      and\n      0xffffffffffffffffffffffffffffffffffffffff\n      and\n      dup2\n      mstore\n      0x20\n      add\n      swap1\n      dup2\n      mstore\n      0x20\n      add\n      0x00\n      keccak256\n        /* \"contracts/Profile.sol\":1149:1180  profile[msg.sender].userAddress */\n      0x00\n      add\n      0x00\n        /* \"contracts/Profile.sol\":1149:1193  profile[msg.sender].userAddress = msg.sender */\n      0x0100\n      exp\n      dup2\n      sload\n      dup2\n      0xffffffffffffffffffffffffffffffffffffffff\n      mul\n      not\n      and\n      swap1\n      dup4\n      0xffffffffffffffffffffffffffffffffffffffff\n      and\n      mul\n      or\n      swap1\n      sstore\n      pop\n        /* \"contracts/Profile.sol\":1238:1253  block.timestamp */\n      timestamp\n        /* \"contracts/Profile.sol\":1205:1212  profile */\n      0x00\n        /* \"contracts/Profile.sol\":1205:1224  profile[msg.sender] */\n      dup1\n        /* \"contracts/Profile.sol\":1213:1223  msg.sender */\n      caller\n        /* \"contracts/Profile.sol\":1205:1224  profile[msg.sender] */\n      0xffffffffffffffffffffffffffffffffffffffff\n      and\n      0xffffffffffffffffffffffffffffffffffffffff\n      and\n      dup2\n      mstore\n      0x20\n      add\n      swap1\n      dup2\n      mstore\n      0x20\n      add\n      0x00\n      keccak256\n        /* \"contracts/Profile.sol\":1205:1235  profile[msg.sender].createDate */\n      0x07\n      add\n        /* \"contracts/Profile.sol\":1205:1253  profile[msg.sender].createDate = block.timestamp */\n      dup2\n      swap1\n      sstore\n      pop\n        /* \"contracts/Profile.sol\":1264:1285  addSkill(frontend, 0) */\n      tag_119\n        /* \"contracts/Profile.sol\":1273:1281  frontend */\n      dup4\n        /* \"contracts/Profile.sol\":1283:1284  0 */\n      0x00\n        /* \"contracts/Profile.sol\":1264:1272  addSkill */\n      tag_120\n        /* \"contracts/Profile.sol\":1264:1285  addSkill(frontend, 0) */\n      jump\t// in\n    tag_119:\n        /* \"contracts/Profile.sol\":1296:1316  addSkill(backend, 1) */\n      tag_121\n        /* \"contracts/Profile.sol\":1305:1312  backend */\n      dup3\n        /* \"contracts/Profile.sol\":1314:1315  1 */\n      0x01\n        /* \"contracts/Profile.sol\":1296:1304  addSkill */\n      tag_120\n        /* \"contracts/Profile.sol\":1296:1316  addSkill(backend, 1) */\n      jump\t// in\n    tag_121:\n        /* \"contracts/Profile.sol\":1327:1349  addSkill(framework, 2) */\n      tag_122\n        /* \"contracts/Profile.sol\":1336:1345  framework */\n      dup2\n        /* \"contracts/Profile.sol\":1347:1348  2 */\n      0x02\n        /* \"contracts/Profile.sol\":1327:1335  addSkill */\n      tag_120\n        /* \"contracts/Profile.sol\":1327:1349  addSkill(framework, 2) */\n      jump\t// in\n    tag_122:\n        /* \"contracts/Profile.sol\":590:1357  function addBio(string memory firstName, string memory middleName, string memory lastName, string memory email, string memory phone, string memory profileImage, string[] memory frontend, string[] memory backend, string[] memory framework) public {\r... */\n      pop\n      pop\n      pop\n      pop\n      pop\n      pop\n      pop\n      pop\n      pop\n      jump\t// out\n        /* \"contracts/Profile.sol\":2174:2248  function delProfile() public {\r... */\n    tag_22:\n        /* \"contracts/Profile.sol\":2221:2228  profile */\n      0x00\n        /* \"contracts/Profile.sol\":2221:2240  profile[msg.sender] */\n      dup1\n        /* \"contracts/Profile.sol\":2229:2239  msg.sender */\n      caller\n        /* \"contracts/Profile.sol\":2221:2240  profile[msg.sender] */\n      0xffffffffffffffffffffffffffffffffffffffff\n      and\n      0xffffffffffffffffffffffffffffffffffffffff\n      and\n      dup2\n      mstore\n      0x20\n      add\n      swap1\n      dup2\n      mstore\n      0x20\n      add\n      0x00\n      keccak256\n      0x00\n        /* \"contracts/Profile.sol\":2214:2240  delete profile[msg.sender] */\n      dup1\n      dup3\n      add\n      exp(0x0100, 0x00)\n      dup2\n      sload\n      swap1\n      0xffffffffffffffffffffffffffffffffffffffff\n      mul\n      not\n      and\n      swap1\n      sstore\n      0x01\n      dup3\n      add\n      0x00\n      tag_124\n      swap2\n      swap1\n      tag_125\n      jump\t// in\n    tag_124:\n      0x02\n      dup3\n      add\n      0x00\n      tag_126\n      swap2\n      swap1\n      tag_125\n      jump\t// in\n    tag_126:\n      0x03\n      dup3\n      add\n      0x00\n      tag_127\n      swap2\n      swap1\n      tag_125\n      jump\t// in\n    tag_127:\n      0x04\n      dup3\n      add\n      0x00\n      tag_128\n      swap2\n      swap1\n      tag_125\n      jump\t// in\n    tag_128:\n      0x05\n      dup3\n      add\n      0x00\n      tag_129\n      swap2\n      swap1\n      tag_125\n      jump\t// in\n    tag_129:\n      0x06\n      dup3\n      add\n      0x00\n      tag_130\n      swap2\n      swap1\n      tag_125\n      jump\t// in\n    tag_130:\n      0x07\n      dup3\n      add\n      0x00\n      swap1\n      sstore\n      0x08\n      dup3\n      add\n      0x00\n      tag_131\n      swap2\n      swap1\n      tag_132\n      jump\t// in\n    tag_131:\n      0x09\n      dup3\n      add\n      0x00\n      tag_133\n      swap2\n      swap1\n      tag_132\n      jump\t// in\n    tag_133:\n      0x0a\n      dup3\n      add\n      0x00\n      tag_134\n      swap2\n      swap1\n      tag_132\n      jump\t// in\n    tag_134:\n      pop\n      pop\n        /* \"contracts/Profile.sol\":2174:2248  function delProfile() public {\r... */\n      jump\t// out\n        /* \"contracts/Profile.sol\":1365:2055  function addSkill(string[] memory _frontend, uint8 _type) private {\r... */\n    tag_120:\n        /* \"contracts/Profile.sol\":1485:1486  0 */\n      0x00\n        /* \"contracts/Profile.sol\":1476:1481  _type */\n      dup2\n        /* \"contracts/Profile.sol\":1476:1486  _type == 0 */\n      0xff\n      and\n      eq\n        /* \"contracts/Profile.sol\":1473:1637  if(_type == 0){\r... */\n      iszero\n      tag_136\n      jumpi\n        /* \"contracts/Profile.sol\":1506:1513  uint8 i */\n      0x00\n        /* \"contracts/Profile.sol\":1502:1626  for(uint8 i=0; i < _frontend.length; i++) {\r... */\n    tag_137:\n        /* \"contracts/Profile.sol\":1521:1530  _frontend */\n      dup3\n        /* \"contracts/Profile.sol\":1521:1537  _frontend.length */\n      mload\n        /* \"contracts/Profile.sol\":1517:1518  i */\n      dup2\n        /* \"contracts/Profile.sol\":1517:1537  i < _frontend.length */\n      0xff\n      and\n      lt\n        /* \"contracts/Profile.sol\":1502:1626  for(uint8 i=0; i < _frontend.length; i++) {\r... */\n      iszero\n      tag_138\n      jumpi\n        /* \"contracts/Profile.sol\":1563:1570  profile */\n      0x00\n        /* \"contracts/Profile.sol\":1563:1582  profile[msg.sender] */\n      dup1\n        /* \"contracts/Profile.sol\":1571:1581  msg.sender */\n      caller\n        /* \"contracts/Profile.sol\":1563:1582  profile[msg.sender] */\n      0xffffffffffffffffffffffffffffffffffffffff\n      and\n      0xffffffffffffffffffffffffffffffffffffffff\n      and\n      dup2\n      mstore\n      0x20\n      add\n      swap1\n      dup2\n      mstore\n      0x20\n      add\n      0x00\n      keccak256\n        /* \"contracts/Profile.sol\":1563:1591  profile[msg.sender].frontend */\n      0x08\n      add\n        /* \"contracts/Profile.sol\":1597:1606  _frontend */\n      dup4\n        /* \"contracts/Profile.sol\":1607:1608  i */\n      dup3\n        /* \"contracts/Profile.sol\":1597:1609  _frontend[i] */\n      0xff\n      and\n      dup2\n      mload\n      dup2\n      lt\n      tag_140\n      jumpi\n      tag_141\n      tag_142\n      jump\t// in\n    tag_141:\n    tag_140:\n      0x20\n      mul\n      0x20\n      add\n      add\n      mload\n        /* \"contracts/Profile.sol\":1563:1610  profile[msg.sender].frontend.push(_frontend[i]) */\n      swap1\n      dup1\n      0x01\n      dup2\n      sload\n      add\n      dup1\n      dup3\n      sstore\n      dup1\n      swap2\n      pop\n      pop\n      0x01\n      swap1\n      sub\n      swap1\n      0x00\n      mstore\n      keccak256(0x00, 0x20)\n      add\n      0x00\n      swap1\n      swap2\n      swap1\n      swap2\n      swap1\n      swap2\n      pop\n      swap1\n      dup1\n      mload\n      swap1\n      0x20\n      add\n      swap1\n      tag_144\n      swap3\n      swap2\n      swap1\n      tag_113\n      jump\t// in\n    tag_144:\n      pop\n        /* \"contracts/Profile.sol\":1539:1542  i++ */\n      dup1\n      dup1\n      tag_145\n      swap1\n      tag_146\n      jump\t// in\n    tag_145:\n      swap2\n      pop\n      pop\n        /* \"contracts/Profile.sol\":1502:1626  for(uint8 i=0; i < _frontend.length; i++) {\r... */\n      jump(tag_137)\n    tag_138:\n      pop\n        /* \"contracts/Profile.sol\":1473:1637  if(_type == 0){\r... */\n    tag_136:\n        /* \"contracts/Profile.sol\":1690:1691  1 */\n      0x01\n        /* \"contracts/Profile.sol\":1681:1686  _type */\n      dup2\n        /* \"contracts/Profile.sol\":1681:1691  _type == 1 */\n      0xff\n      and\n      eq\n        /* \"contracts/Profile.sol\":1678:1841  if(_type == 1){\r... */\n      iszero\n      tag_147\n      jumpi\n        /* \"contracts/Profile.sol\":1711:1718  uint8 i */\n      0x00\n        /* \"contracts/Profile.sol\":1707:1830  for(uint8 i=0; i < _frontend.length; i++) {\r... */\n    tag_148:\n        /* \"contracts/Profile.sol\":1726:1735  _frontend */\n      dup3\n        /* \"contracts/Profile.sol\":1726:1742  _frontend.length */\n      mload\n        /* \"contracts/Profile.sol\":1722:1723  i */\n      dup2\n        /* \"contracts/Profile.sol\":1722:1742  i < _frontend.length */\n      0xff\n      and\n      lt\n        /* \"contracts/Profile.sol\":1707:1830  for(uint8 i=0; i < _frontend.length; i++) {\r... */\n      iszero\n      tag_149\n      jumpi\n        /* \"contracts/Profile.sol\":1768:1775  profile */\n      0x00\n        /* \"contracts/Profile.sol\":1768:1787  profile[msg.sender] */\n      dup1\n        /* \"contracts/Profile.sol\":1776:1786  msg.sender */\n      caller\n        /* \"contracts/Profile.sol\":1768:1787  profile[msg.sender] */\n      0xffffffffffffffffffffffffffffffffffffffff\n      and\n      0xffffffffffffffffffffffffffffffffffffffff\n      and\n      dup2\n      mstore\n      0x20\n      add\n      swap1\n      dup2\n      mstore\n      0x20\n      add\n      0x00\n      keccak256\n        /* \"contracts/Profile.sol\":1768:1795  profile[msg.sender].backend */\n      0x09\n      add\n        /* \"contracts/Profile.sol\":1801:1810  _frontend */\n      dup4\n        /* \"contracts/Profile.sol\":1811:1812  i */\n      dup3\n        /* \"contracts/Profile.sol\":1801:1813  _frontend[i] */\n      0xff\n      and\n      dup2\n      mload\n      dup2\n      lt\n      tag_151\n      jumpi\n      tag_152\n      tag_142\n      jump\t// in\n    tag_152:\n    tag_151:\n      0x20\n      mul\n      0x20\n      add\n      add\n      mload\n        /* \"contracts/Profile.sol\":1768:1814  profile[msg.sender].backend.push(_frontend[i]) */\n      swap1\n      dup1\n      0x01\n      dup2\n      sload\n      add\n      dup1\n      dup3\n      sstore\n      dup1\n      swap2\n      pop\n      pop\n      0x01\n      swap1\n      sub\n      swap1\n      0x00\n      mstore\n      keccak256(0x00, 0x20)\n      add\n      0x00\n      swap1\n      swap2\n      swap1\n      swap2\n      swap1\n      swap2\n      pop\n      swap1\n      dup1\n      mload\n      swap1\n      0x20\n      add\n      swap1\n      tag_154\n      swap3\n      swap2\n      swap1\n      tag_113\n      jump\t// in\n    tag_154:\n      pop\n        /* \"contracts/Profile.sol\":1744:1747  i++ */\n      dup1\n      dup1\n      tag_155\n      swap1\n      tag_146\n      jump\t// in\n    tag_155:\n      swap2\n      pop\n      pop\n        /* \"contracts/Profile.sol\":1707:1830  for(uint8 i=0; i < _frontend.length; i++) {\r... */\n      jump(tag_148)\n    tag_149:\n      pop\n        /* \"contracts/Profile.sol\":1678:1841  if(_type == 1){\r... */\n    tag_147:\n        /* \"contracts/Profile.sol\":1895:1896  2 */\n      0x02\n        /* \"contracts/Profile.sol\":1886:1891  _type */\n      dup2\n        /* \"contracts/Profile.sol\":1886:1896  _type == 2 */\n      0xff\n      and\n      eq\n        /* \"contracts/Profile.sol\":1883:2048  if(_type == 2){\r... */\n      iszero\n      tag_156\n      jumpi\n        /* \"contracts/Profile.sol\":1916:1923  uint8 i */\n      0x00\n        /* \"contracts/Profile.sol\":1912:2037  for(uint8 i=0; i < _frontend.length; i++) {\r... */\n    tag_157:\n        /* \"contracts/Profile.sol\":1931:1940  _frontend */\n      dup3\n        /* \"contracts/Profile.sol\":1931:1947  _frontend.length */\n      mload\n        /* \"contracts/Profile.sol\":1927:1928  i */\n      dup2\n        /* \"contracts/Profile.sol\":1927:1947  i < _frontend.length */\n      0xff\n      and\n      lt\n        /* \"contracts/Profile.sol\":1912:2037  for(uint8 i=0; i < _frontend.length; i++) {\r... */\n      iszero\n      tag_158\n      jumpi\n        /* \"contracts/Profile.sol\":1973:1980  profile */\n      0x00\n        /* \"contracts/Profile.sol\":1973:1992  profile[msg.sender] */\n      dup1\n        /* \"contracts/Profile.sol\":1981:1991  msg.sender */\n      caller\n        /* \"contracts/Profile.sol\":1973:1992  profile[msg.sender] */\n      0xffffffffffffffffffffffffffffffffffffffff\n      and\n      0xffffffffffffffffffffffffffffffffffffffff\n      and\n      dup2\n      mstore\n      0x20\n      add\n      swap1\n      dup2\n      mstore\n      0x20\n      add\n      0x00\n      keccak256\n        /* \"contracts/Profile.sol\":1973:2002  profile[msg.sender].framework */\n      0x0a\n      add\n        /* \"contracts/Profile.sol\":2008:2017  _frontend */\n      dup4\n        /* \"contracts/Profile.sol\":2018:2019  i */\n      dup3\n        /* \"contracts/Profile.sol\":2008:2020  _frontend[i] */\n      0xff\n      and\n      dup2\n      mload\n      dup2\n      lt\n      tag_160\n      jumpi\n      tag_161\n      tag_142\n      jump\t// in\n    tag_161:\n    tag_160:\n      0x20\n      mul\n      0x20\n      add\n      add\n      mload\n        /* \"contracts/Profile.sol\":1973:2021  profile[msg.sender].framework.push(_frontend[i]) */\n      swap1\n      dup1\n      0x01\n      dup2\n      sload\n      add\n      dup1\n      dup3\n      sstore\n      dup1\n      swap2\n      pop\n      pop\n      0x01\n      swap1\n      sub\n      swap1\n      0x00\n      mstore\n      keccak256(0x00, 0x20)\n      add\n      0x00\n      swap1\n      swap2\n      swap1\n      swap2\n      swap1\n      swap2\n      pop\n      swap1\n      dup1\n      mload\n      swap1\n      0x20\n      add\n      swap1\n      tag_163\n      swap3\n      swap2\n      swap1\n      tag_113\n      jump\t// in\n    tag_163:\n      pop\n        /* \"contracts/Profile.sol\":1949:1952  i++ */\n      dup1\n      dup1\n      tag_164\n      swap1\n      tag_146\n      jump\t// in\n    tag_164:\n      swap2\n      pop\n      pop\n        /* \"contracts/Profile.sol\":1912:2037  for(uint8 i=0; i < _frontend.length; i++) {\r... */\n      jump(tag_157)\n    tag_158:\n      pop\n        /* \"contracts/Profile.sol\":1883:2048  if(_type == 2){\r... */\n    tag_156:\n        /* \"contracts/Profile.sol\":1365:2055  function addSkill(string[] memory _frontend, uint8 _type) private {\r... */\n      pop\n      pop\n      jump\t// out\n    tag_55:\n      mload(0x40)\n      dup1\n      0x0160\n      add\n      0x40\n      mstore\n      dup1\n      and(0xffffffffffffffffffffffffffffffffffffffff, 0x00)\n      dup2\n      mstore\n      0x20\n      add\n      0x60\n      dup2\n      mstore\n      0x20\n      add\n      0x60\n      dup2\n      mstore\n      0x20\n      add\n      0x60\n      dup2\n      mstore\n      0x20\n      add\n      0x60\n      dup2\n      mstore\n      0x20\n      add\n      0x60\n      dup2\n      mstore\n      0x20\n      add\n      0x60\n      dup2\n      mstore\n      0x20\n      add\n      0x00\n      dup2\n      mstore\n      0x20\n      add\n      0x60\n      dup2\n      mstore\n      0x20\n      add\n      0x60\n      dup2\n      mstore\n      0x20\n      add\n      0x60\n      dup2\n      mstore\n      pop\n      swap1\n      jump\t// out\n    tag_113:\n      dup3\n      dup1\n      sload\n      tag_165\n      swap1\n      tag_24\n      jump\t// in\n    tag_165:\n      swap1\n      0x00\n      mstore\n      keccak256(0x00, 0x20)\n      swap1\n      0x1f\n      add\n      0x20\n      swap1\n      div\n      dup2\n      add\n      swap3\n      dup3\n      tag_167\n      jumpi\n      0x00\n      dup6\n      sstore\n      jump(tag_166)\n    tag_167:\n      dup3\n      0x1f\n      lt\n      tag_168\n      jumpi\n      dup1\n      mload\n      not(0xff)\n      and\n      dup4\n      dup1\n      add\n      or\n      dup6\n      sstore\n      jump(tag_166)\n    tag_168:\n      dup3\n      dup1\n      add\n      0x01\n      add\n      dup6\n      sstore\n      dup3\n      iszero\n      tag_166\n      jumpi\n      swap2\n      dup3\n      add\n    tag_169:\n      dup3\n      dup2\n      gt\n      iszero\n      tag_170\n      jumpi\n      dup3\n      mload\n      dup3\n      sstore\n      swap2\n      0x20\n      add\n      swap2\n      swap1\n      0x01\n      add\n      swap1\n      jump(tag_169)\n    tag_170:\n    tag_166:\n      pop\n      swap1\n      pop\n      tag_171\n      swap2\n      swap1\n      tag_172\n      jump\t// in\n    tag_171:\n      pop\n      swap1\n      jump\t// out\n    tag_125:\n      pop\n      dup1\n      sload\n      tag_173\n      swap1\n      tag_24\n      jump\t// in\n    tag_173:\n      0x00\n      dup3\n      sstore\n      dup1\n      0x1f\n      lt\n      tag_175\n      jumpi\n      pop\n      jump(tag_174)\n    tag_175:\n      0x1f\n      add\n      0x20\n      swap1\n      div\n      swap1\n      0x00\n      mstore\n      keccak256(0x00, 0x20)\n      swap1\n      dup2\n      add\n      swap1\n      tag_176\n      swap2\n      swap1\n      tag_172\n      jump\t// in\n    tag_176:\n    tag_174:\n      pop\n      jump\t// out\n    tag_132:\n      pop\n      dup1\n      sload\n      0x00\n      dup3\n      sstore\n      swap1\n      0x00\n      mstore\n      keccak256(0x00, 0x20)\n      swap1\n      dup2\n      add\n      swap1\n      tag_178\n      swap2\n      swap1\n      tag_179\n      jump\t// in\n    tag_178:\n      pop\n      jump\t// out\n    tag_172:\n    tag_180:\n      dup1\n      dup3\n      gt\n      iszero\n      tag_181\n      jumpi\n      0x00\n      dup2\n      0x00\n      swap1\n      sstore\n      pop\n      0x01\n      add\n      jump(tag_180)\n    tag_181:\n      pop\n      swap1\n      jump\t// out\n    tag_179:\n    tag_182:\n      dup1\n      dup3\n      gt\n      iszero\n      tag_183\n      jumpi\n      0x00\n      dup2\n      dup2\n      tag_184\n      swap2\n      swap1\n      tag_125\n      jump\t// in\n    tag_184:\n      pop\n      0x01\n      add\n      jump(tag_182)\n    tag_183:\n      pop\n      swap1\n      jump\t// out\n        /* \"#utility.yul\":23:980   */\n    tag_186:\n        /* \"#utility.yul\":129:134   */\n      0x00\n        /* \"#utility.yul\":154:245   */\n      tag_188\n        /* \"#utility.yul\":170:244   */\n      tag_189\n        /* \"#utility.yul\":237:243   */\n      dup5\n        /* \"#utility.yul\":170:244   */\n      tag_190\n      jump\t// in\n    tag_189:\n        /* \"#utility.yul\":154:245   */\n      tag_191\n      jump\t// in\n    tag_188:\n        /* \"#utility.yul\":145:245   */\n      swap1\n      pop\n        /* \"#utility.yul\":265:270   */\n      dup1\n        /* \"#utility.yul\":294:300   */\n      dup4\n        /* \"#utility.yul\":287:292   */\n      dup3\n        /* \"#utility.yul\":280:301   */\n      mstore\n        /* \"#utility.yul\":328:332   */\n      0x20\n        /* \"#utility.yul\":321:326   */\n      dup3\n        /* \"#utility.yul\":317:333   */\n      add\n        /* \"#utility.yul\":310:333   */\n      swap1\n      pop\n        /* \"#utility.yul\":354:360   */\n      dup3\n        /* \"#utility.yul\":404:407   */\n      dup6\n        /* \"#utility.yul\":396:400   */\n      0x20\n        /* \"#utility.yul\":388:394   */\n      dup7\n        /* \"#utility.yul\":384:401   */\n      mul\n        /* \"#utility.yul\":379:382   */\n      dup3\n        /* \"#utility.yul\":375:402   */\n      add\n        /* \"#utility.yul\":372:408   */\n      gt\n        /* \"#utility.yul\":369:512   */\n      iszero\n      tag_192\n      jumpi\n        /* \"#utility.yul\":423:502   */\n      tag_193\n      tag_194\n      jump\t// in\n    tag_193:\n        /* \"#utility.yul\":369:512   */\n    tag_192:\n        /* \"#utility.yul\":536:537   */\n      0x00\n        /* \"#utility.yul\":521:974   */\n    tag_195:\n        /* \"#utility.yul\":546:552   */\n      dup6\n        /* \"#utility.yul\":543:544   */\n      dup2\n        /* \"#utility.yul\":540:553   */\n      lt\n        /* \"#utility.yul\":521:974   */\n      iszero\n      tag_197\n      jumpi\n        /* \"#utility.yul\":628:631   */\n      dup2\n        /* \"#utility.yul\":615:632   */\n      calldataload\n        /* \"#utility.yul\":664:682   */\n      0xffffffffffffffff\n        /* \"#utility.yul\":651:662   */\n      dup2\n        /* \"#utility.yul\":648:683   */\n      gt\n        /* \"#utility.yul\":645:767   */\n      iszero\n      tag_198\n      jumpi\n        /* \"#utility.yul\":686:765   */\n      tag_199\n      tag_200\n      jump\t// in\n    tag_199:\n        /* \"#utility.yul\":645:767   */\n    tag_198:\n        /* \"#utility.yul\":810:821   */\n      dup1\n        /* \"#utility.yul\":802:808   */\n      dup7\n        /* \"#utility.yul\":798:822   */\n      add\n        /* \"#utility.yul\":848:895   */\n      tag_201\n        /* \"#utility.yul\":891:894   */\n      dup10\n        /* \"#utility.yul\":879:889   */\n      dup3\n        /* \"#utility.yul\":848:895   */\n      tag_202\n      jump\t// in\n    tag_201:\n        /* \"#utility.yul\":843:846   */\n      dup6\n        /* \"#utility.yul\":836:896   */\n      mstore\n        /* \"#utility.yul\":925:929   */\n      0x20\n        /* \"#utility.yul\":920:923   */\n      dup6\n        /* \"#utility.yul\":916:930   */\n      add\n        /* \"#utility.yul\":909:930   */\n      swap5\n      pop\n        /* \"#utility.yul\":959:963   */\n      0x20\n        /* \"#utility.yul\":954:957   */\n      dup5\n        /* \"#utility.yul\":950:964   */\n      add\n        /* \"#utility.yul\":943:964   */\n      swap4\n      pop\n        /* \"#utility.yul\":581:974   */\n      pop\n      pop\n        /* \"#utility.yul\":568:569   */\n      0x01\n        /* \"#utility.yul\":565:566   */\n      dup2\n        /* \"#utility.yul\":561:570   */\n      add\n        /* \"#utility.yul\":556:570   */\n      swap1\n      pop\n        /* \"#utility.yul\":521:974   */\n      jump(tag_195)\n    tag_197:\n        /* \"#utility.yul\":525:539   */\n      pop\n        /* \"#utility.yul\":135:980   */\n      pop\n      pop\n        /* \"#utility.yul\":23:980   */\n      swap4\n      swap3\n      pop\n      pop\n      pop\n      jump\t// out\n        /* \"#utility.yul\":986:1398   */\n    tag_203:\n        /* \"#utility.yul\":1064:1069   */\n      0x00\n        /* \"#utility.yul\":1089:1155   */\n      tag_205\n        /* \"#utility.yul\":1105:1154   */\n      tag_206\n        /* \"#utility.yul\":1147:1153   */\n      dup5\n        /* \"#utility.yul\":1105:1154   */\n      tag_207\n      jump\t// in\n    tag_206:\n        /* \"#utility.yul\":1089:1155   */\n      tag_191\n      jump\t// in\n    tag_205:\n        /* \"#utility.yul\":1080:1155   */\n      swap1\n      pop\n        /* \"#utility.yul\":1178:1184   */\n      dup3\n        /* \"#utility.yul\":1171:1176   */\n      dup2\n        /* \"#utility.yul\":1164:1185   */\n      mstore\n        /* \"#utility.yul\":1216:1220   */\n      0x20\n        /* \"#utility.yul\":1209:1214   */\n      dup2\n        /* \"#utility.yul\":1205:1221   */\n      add\n        /* \"#utility.yul\":1254:1257   */\n      dup5\n        /* \"#utility.yul\":1245:1251   */\n      dup5\n        /* \"#utility.yul\":1240:1243   */\n      dup5\n        /* \"#utility.yul\":1236:1252   */\n      add\n        /* \"#utility.yul\":1233:1258   */\n      gt\n        /* \"#utility.yul\":1230:1342   */\n      iszero\n      tag_208\n      jumpi\n        /* \"#utility.yul\":1261:1340   */\n      tag_209\n      tag_210\n      jump\t// in\n    tag_209:\n        /* \"#utility.yul\":1230:1342   */\n    tag_208:\n        /* \"#utility.yul\":1351:1392   */\n      tag_211\n        /* \"#utility.yul\":1385:1391   */\n      dup5\n        /* \"#utility.yul\":1380:1383   */\n      dup3\n        /* \"#utility.yul\":1375:1378   */\n      dup6\n        /* \"#utility.yul\":1351:1392   */\n      tag_212\n      jump\t// in\n    tag_211:\n        /* \"#utility.yul\":1070:1398   */\n      pop\n        /* \"#utility.yul\":986:1398   */\n      swap4\n      swap3\n      pop\n      pop\n      pop\n      jump\t// out\n        /* \"#utility.yul\":1404:1543   */\n    tag_213:\n        /* \"#utility.yul\":1450:1455   */\n      0x00\n        /* \"#utility.yul\":1488:1494   */\n      dup2\n        /* \"#utility.yul\":1475:1495   */\n      calldataload\n        /* \"#utility.yul\":1466:1495   */\n      swap1\n      pop\n        /* \"#utility.yul\":1504:1537   */\n      tag_215\n        /* \"#utility.yul\":1531:1536   */\n      dup2\n        /* \"#utility.yul\":1504:1537   */\n      tag_216\n      jump\t// in\n    tag_215:\n        /* \"#utility.yul\":1404:1543   */\n      swap3\n      swap2\n      pop\n      pop\n      jump\t// out\n        /* \"#utility.yul\":1565:1955   */\n    tag_217:\n        /* \"#utility.yul\":1646:1651   */\n      0x00\n        /* \"#utility.yul\":1695:1698   */\n      dup3\n        /* \"#utility.yul\":1688:1692   */\n      0x1f\n        /* \"#utility.yul\":1680:1686   */\n      dup4\n        /* \"#utility.yul\":1676:1693   */\n      add\n        /* \"#utility.yul\":1672:1699   */\n      slt\n        /* \"#utility.yul\":1662:1784   */\n      tag_219\n      jumpi\n        /* \"#utility.yul\":1703:1782   */\n      tag_220\n      tag_200\n      jump\t// in\n    tag_220:\n        /* \"#utility.yul\":1662:1784   */\n    tag_219:\n        /* \"#utility.yul\":1820:1826   */\n      dup2\n        /* \"#utility.yul\":1807:1827   */\n      calldataload\n        /* \"#utility.yul\":1845:1949   */\n      tag_221\n        /* \"#utility.yul\":1945:1948   */\n      dup5\n        /* \"#utility.yul\":1937:1943   */\n      dup3\n        /* \"#utility.yul\":1930:1934   */\n      0x20\n        /* \"#utility.yul\":1922:1928   */\n      dup7\n        /* \"#utility.yul\":1918:1935   */\n      add\n        /* \"#utility.yul\":1845:1949   */\n      tag_186\n      jump\t// in\n    tag_221:\n        /* \"#utility.yul\":1836:1949   */\n      swap2\n      pop\n        /* \"#utility.yul\":1652:1955   */\n      pop\n        /* \"#utility.yul\":1565:1955   */\n      swap3\n      swap2\n      pop\n      pop\n      jump\t// out\n        /* \"#utility.yul\":1975:2315   */\n    tag_202:\n        /* \"#utility.yul\":2031:2036   */\n      0x00\n        /* \"#utility.yul\":2080:2083   */\n      dup3\n        /* \"#utility.yul\":2073:2077   */\n      0x1f\n        /* \"#utility.yul\":2065:2071   */\n      dup4\n        /* \"#utility.yul\":2061:2078   */\n      add\n        /* \"#utility.yul\":2057:2084   */\n      slt\n        /* \"#utility.yul\":2047:2169   */\n      tag_223\n      jumpi\n        /* \"#utility.yul\":2088:2167   */\n      tag_224\n      tag_200\n      jump\t// in\n    tag_224:\n        /* \"#utility.yul\":2047:2169   */\n    tag_223:\n        /* \"#utility.yul\":2205:2211   */\n      dup2\n        /* \"#utility.yul\":2192:2212   */\n      calldataload\n        /* \"#utility.yul\":2230:2309   */\n      tag_225\n        /* \"#utility.yul\":2305:2308   */\n      dup5\n        /* \"#utility.yul\":2297:2303   */\n      dup3\n        /* \"#utility.yul\":2290:2294   */\n      0x20\n        /* \"#utility.yul\":2282:2288   */\n      dup7\n        /* \"#utility.yul\":2278:2295   */\n      add\n        /* \"#utility.yul\":2230:2309   */\n      tag_203\n      jump\t// in\n    tag_225:\n        /* \"#utility.yul\":2221:2309   */\n      swap2\n      pop\n        /* \"#utility.yul\":2037:2315   */\n      pop\n        /* \"#utility.yul\":1975:2315   */\n      swap3\n      swap2\n      pop\n      pop\n      jump\t// out\n        /* \"#utility.yul\":2321:2650   */\n    tag_9:\n        /* \"#utility.yul\":2380:2386   */\n      0x00\n        /* \"#utility.yul\":2429:2431   */\n      0x20\n        /* \"#utility.yul\":2417:2426   */\n      dup3\n        /* \"#utility.yul\":2408:2415   */\n      dup5\n        /* \"#utility.yul\":2404:2427   */\n      sub\n        /* \"#utility.yul\":2400:2432   */\n      slt\n        /* \"#utility.yul\":2397:2516   */\n      iszero\n      tag_227\n      jumpi\n        /* \"#utility.yul\":2435:2514   */\n      tag_228\n      tag_229\n      jump\t// in\n    tag_228:\n        /* \"#utility.yul\":2397:2516   */\n    tag_227:\n        /* \"#utility.yul\":2555:2556   */\n      0x00\n        /* \"#utility.yul\":2580:2633   */\n      tag_230\n        /* \"#utility.yul\":2625:2632   */\n      dup5\n        /* \"#utility.yul\":2616:2622   */\n      dup3\n        /* \"#utility.yul\":2605:2614   */\n      dup6\n        /* \"#utility.yul\":2601:2623   */\n      add\n        /* \"#utility.yul\":2580:2633   */\n      tag_213\n      jump\t// in\n    tag_230:\n        /* \"#utility.yul\":2570:2633   */\n      swap2\n      pop\n        /* \"#utility.yul\":2526:2643   */\n      pop\n        /* \"#utility.yul\":2321:2650   */\n      swap3\n      swap2\n      pop\n      pop\n      jump\t// out\n        /* \"#utility.yul\":2656:5921   */\n    tag_19:\n        /* \"#utility.yul\":2952:2958   */\n      0x00\n        /* \"#utility.yul\":2960:2966   */\n      dup1\n        /* \"#utility.yul\":2968:2974   */\n      0x00\n        /* \"#utility.yul\":2976:2982   */\n      dup1\n        /* \"#utility.yul\":2984:2990   */\n      0x00\n        /* \"#utility.yul\":2992:2998   */\n      dup1\n        /* \"#utility.yul\":3000:3006   */\n      0x00\n        /* \"#utility.yul\":3008:3014   */\n      dup1\n        /* \"#utility.yul\":3016:3022   */\n      0x00\n        /* \"#utility.yul\":3065:3068   */\n      0x0120\n        /* \"#utility.yul\":3053:3062   */\n      dup11\n        /* \"#utility.yul\":3044:3051   */\n      dup13\n        /* \"#utility.yul\":3040:3063   */\n      sub\n        /* \"#utility.yul\":3036:3069   */\n      slt\n        /* \"#utility.yul\":3033:3153   */\n      iszero\n      tag_232\n      jumpi\n        /* \"#utility.yul\":3072:3151   */\n      tag_233\n      tag_229\n      jump\t// in\n    tag_233:\n        /* \"#utility.yul\":3033:3153   */\n    tag_232:\n        /* \"#utility.yul\":3220:3221   */\n      0x00\n        /* \"#utility.yul\":3209:3218   */\n      dup11\n        /* \"#utility.yul\":3205:3222   */\n      add\n        /* \"#utility.yul\":3192:3223   */\n      calldataload\n        /* \"#utility.yul\":3250:3268   */\n      0xffffffffffffffff\n        /* \"#utility.yul\":3242:3248   */\n      dup2\n        /* \"#utility.yul\":3239:3269   */\n      gt\n        /* \"#utility.yul\":3236:3353   */\n      iszero\n      tag_234\n      jumpi\n        /* \"#utility.yul\":3272:3351   */\n      tag_235\n      tag_236\n      jump\t// in\n    tag_235:\n        /* \"#utility.yul\":3236:3353   */\n    tag_234:\n        /* \"#utility.yul\":3377:3440   */\n      tag_237\n        /* \"#utility.yul\":3432:3439   */\n      dup13\n        /* \"#utility.yul\":3423:3429   */\n      dup3\n        /* \"#utility.yul\":3412:3421   */\n      dup14\n        /* \"#utility.yul\":3408:3430   */\n      add\n        /* \"#utility.yul\":3377:3440   */\n      tag_202\n      jump\t// in\n    tag_237:\n        /* \"#utility.yul\":3367:3440   */\n      swap10\n      pop\n        /* \"#utility.yul\":3163:3450   */\n      pop\n        /* \"#utility.yul\":3517:3519   */\n      0x20\n        /* \"#utility.yul\":3506:3515   */\n      dup11\n        /* \"#utility.yul\":3502:3520   */\n      add\n        /* \"#utility.yul\":3489:3521   */\n      calldataload\n        /* \"#utility.yul\":3548:3566   */\n      0xffffffffffffffff\n        /* \"#utility.yul\":3540:3546   */\n      dup2\n        /* \"#utility.yul\":3537:3567   */\n      gt\n        /* \"#utility.yul\":3534:3651   */\n      iszero\n      tag_238\n      jumpi\n        /* \"#utility.yul\":3570:3649   */\n      tag_239\n      tag_236\n      jump\t// in\n    tag_239:\n        /* \"#utility.yul\":3534:3651   */\n    tag_238:\n        /* \"#utility.yul\":3675:3738   */\n      tag_240\n        /* \"#utility.yul\":3730:3737   */\n      dup13\n        /* \"#utility.yul\":3721:3727   */\n      dup3\n        /* \"#utility.yul\":3710:3719   */\n      dup14\n        /* \"#utility.yul\":3706:3728   */\n      add\n        /* \"#utility.yul\":3675:3738   */\n      tag_202\n      jump\t// in\n    tag_240:\n        /* \"#utility.yul\":3665:3738   */\n      swap9\n      pop\n        /* \"#utility.yul\":3460:3748   */\n      pop\n        /* \"#utility.yul\":3815:3817   */\n      0x40\n        /* \"#utility.yul\":3804:3813   */\n      dup11\n        /* \"#utility.yul\":3800:3818   */\n      add\n        /* \"#utility.yul\":3787:3819   */\n      calldataload\n        /* \"#utility.yul\":3846:3864   */\n      0xffffffffffffffff\n        /* \"#utility.yul\":3838:3844   */\n      dup2\n        /* \"#utility.yul\":3835:3865   */\n      gt\n        /* \"#utility.yul\":3832:3949   */\n      iszero\n      tag_241\n      jumpi\n        /* \"#utility.yul\":3868:3947   */\n      tag_242\n      tag_236\n      jump\t// in\n    tag_242:\n        /* \"#utility.yul\":3832:3949   */\n    tag_241:\n        /* \"#utility.yul\":3973:4036   */\n      tag_243\n        /* \"#utility.yul\":4028:4035   */\n      dup13\n        /* \"#utility.yul\":4019:4025   */\n      dup3\n        /* \"#utility.yul\":4008:4017   */\n      dup14\n        /* \"#utility.yul\":4004:4026   */\n      add\n        /* \"#utility.yul\":3973:4036   */\n      tag_202\n      jump\t// in\n    tag_243:\n        /* \"#utility.yul\":3963:4036   */\n      swap8\n      pop\n        /* \"#utility.yul\":3758:4046   */\n      pop\n        /* \"#utility.yul\":4113:4115   */\n      0x60\n        /* \"#utility.yul\":4102:4111   */\n      dup11\n        /* \"#utility.yul\":4098:4116   */\n      add\n        /* \"#utility.yul\":4085:4117   */\n      calldataload\n        /* \"#utility.yul\":4144:4162   */\n      0xffffffffffffffff\n        /* \"#utility.yul\":4136:4142   */\n      dup2\n        /* \"#utility.yul\":4133:4163   */\n      gt\n        /* \"#utility.yul\":4130:4247   */\n      iszero\n      tag_244\n      jumpi\n        /* \"#utility.yul\":4166:4245   */\n      tag_245\n      tag_236\n      jump\t// in\n    tag_245:\n        /* \"#utility.yul\":4130:4247   */\n    tag_244:\n        /* \"#utility.yul\":4271:4334   */\n      tag_246\n        /* \"#utility.yul\":4326:4333   */\n      dup13\n        /* \"#utility.yul\":4317:4323   */\n      dup3\n        /* \"#utility.yul\":4306:4315   */\n      dup14\n        /* \"#utility.yul\":4302:4324   */\n      add\n        /* \"#utility.yul\":4271:4334   */\n      tag_202\n      jump\t// in\n    tag_246:\n        /* \"#utility.yul\":4261:4334   */\n      swap7\n      pop\n        /* \"#utility.yul\":4056:4344   */\n      pop\n        /* \"#utility.yul\":4411:4414   */\n      0x80\n        /* \"#utility.yul\":4400:4409   */\n      dup11\n        /* \"#utility.yul\":4396:4415   */\n      add\n        /* \"#utility.yul\":4383:4416   */\n      calldataload\n        /* \"#utility.yul\":4443:4461   */\n      0xffffffffffffffff\n        /* \"#utility.yul\":4435:4441   */\n      dup2\n        /* \"#utility.yul\":4432:4462   */\n      gt\n        /* \"#utility.yul\":4429:4546   */\n      iszero\n      tag_247\n      jumpi\n        /* \"#utility.yul\":4465:4544   */\n      tag_248\n      tag_236\n      jump\t// in\n    tag_248:\n        /* \"#utility.yul\":4429:4546   */\n    tag_247:\n        /* \"#utility.yul\":4570:4633   */\n      tag_249\n        /* \"#utility.yul\":4625:4632   */\n      dup13\n        /* \"#utility.yul\":4616:4622   */\n      dup3\n        /* \"#utility.yul\":4605:4614   */\n      dup14\n        /* \"#utility.yul\":4601:4623   */\n      add\n        /* \"#utility.yul\":4570:4633   */\n      tag_202\n      jump\t// in\n    tag_249:\n        /* \"#utility.yul\":4560:4633   */\n      swap6\n      pop\n        /* \"#utility.yul\":4354:4643   */\n      pop\n        /* \"#utility.yul\":4710:4713   */\n      0xa0\n        /* \"#utility.yul\":4699:4708   */\n      dup11\n        /* \"#utility.yul\":4695:4714   */\n      add\n        /* \"#utility.yul\":4682:4715   */\n      calldataload\n        /* \"#utility.yul\":4742:4760   */\n      0xffffffffffffffff\n        /* \"#utility.yul\":4734:4740   */\n      dup2\n        /* \"#utility.yul\":4731:4761   */\n      gt\n        /* \"#utility.yul\":4728:4845   */\n      iszero\n      tag_250\n      jumpi\n        /* \"#utility.yul\":4764:4843   */\n      tag_251\n      tag_236\n      jump\t// in\n    tag_251:\n        /* \"#utility.yul\":4728:4845   */\n    tag_250:\n        /* \"#utility.yul\":4869:4932   */\n      tag_252\n        /* \"#utility.yul\":4924:4931   */\n      dup13\n        /* \"#utility.yul\":4915:4921   */\n      dup3\n        /* \"#utility.yul\":4904:4913   */\n      dup14\n        /* \"#utility.yul\":4900:4922   */\n      add\n        /* \"#utility.yul\":4869:4932   */\n      tag_202\n      jump\t// in\n    tag_252:\n        /* \"#utility.yul\":4859:4932   */\n      swap5\n      pop\n        /* \"#utility.yul\":4653:4942   */\n      pop\n        /* \"#utility.yul\":5009:5012   */\n      0xc0\n        /* \"#utility.yul\":4998:5007   */\n      dup11\n        /* \"#utility.yul\":4994:5013   */\n      add\n        /* \"#utility.yul\":4981:5014   */\n      calldataload\n        /* \"#utility.yul\":5041:5059   */\n      0xffffffffffffffff\n        /* \"#utility.yul\":5033:5039   */\n      dup2\n        /* \"#utility.yul\":5030:5060   */\n      gt\n        /* \"#utility.yul\":5027:5144   */\n      iszero\n      tag_253\n      jumpi\n        /* \"#utility.yul\":5063:5142   */\n      tag_254\n      tag_236\n      jump\t// in\n    tag_254:\n        /* \"#utility.yul\":5027:5144   */\n    tag_253:\n        /* \"#utility.yul\":5168:5256   */\n      tag_255\n        /* \"#utility.yul\":5248:5255   */\n      dup13\n        /* \"#utility.yul\":5239:5245   */\n      dup3\n        /* \"#utility.yul\":5228:5237   */\n      dup14\n        /* \"#utility.yul\":5224:5246   */\n      add\n        /* \"#utility.yul\":5168:5256   */\n      tag_217\n      jump\t// in\n    tag_255:\n        /* \"#utility.yul\":5158:5256   */\n      swap4\n      pop\n        /* \"#utility.yul\":4952:5266   */\n      pop\n        /* \"#utility.yul\":5333:5336   */\n      0xe0\n        /* \"#utility.yul\":5322:5331   */\n      dup11\n        /* \"#utility.yul\":5318:5337   */\n      add\n        /* \"#utility.yul\":5305:5338   */\n      calldataload\n        /* \"#utility.yul\":5365:5383   */\n      0xffffffffffffffff\n        /* \"#utility.yul\":5357:5363   */\n      dup2\n        /* \"#utility.yul\":5354:5384   */\n      gt\n        /* \"#utility.yul\":5351:5468   */\n      iszero\n      tag_256\n      jumpi\n        /* \"#utility.yul\":5387:5466   */\n      tag_257\n      tag_236\n      jump\t// in\n    tag_257:\n        /* \"#utility.yul\":5351:5468   */\n    tag_256:\n        /* \"#utility.yul\":5492:5580   */\n      tag_258\n        /* \"#utility.yul\":5572:5579   */\n      dup13\n        /* \"#utility.yul\":5563:5569   */\n      dup3\n        /* \"#utility.yul\":5552:5561   */\n      dup14\n        /* \"#utility.yul\":5548:5570   */\n      add\n        /* \"#utility.yul\":5492:5580   */\n      tag_217\n      jump\t// in\n    tag_258:\n        /* \"#utility.yul\":5482:5580   */\n      swap3\n      pop\n        /* \"#utility.yul\":5276:5590   */\n      pop\n        /* \"#utility.yul\":5657:5660   */\n      0x0100\n        /* \"#utility.yul\":5646:5655   */\n      dup11\n        /* \"#utility.yul\":5642:5661   */\n      add\n        /* \"#utility.yul\":5629:5662   */\n      calldataload\n        /* \"#utility.yul\":5689:5707   */\n      0xffffffffffffffff\n        /* \"#utility.yul\":5681:5687   */\n      dup2\n        /* \"#utility.yul\":5678:5708   */\n      gt\n        /* \"#utility.yul\":5675:5792   */\n      iszero\n      tag_259\n      jumpi\n        /* \"#utility.yul\":5711:5790   */\n      tag_260\n      tag_236\n      jump\t// in\n    tag_260:\n        /* \"#utility.yul\":5675:5792   */\n    tag_259:\n        /* \"#utility.yul\":5816:5904   */\n      tag_261\n        /* \"#utility.yul\":5896:5903   */\n      dup13\n        /* \"#utility.yul\":5887:5893   */\n      dup3\n        /* \"#utility.yul\":5876:5885   */\n      dup14\n        /* \"#utility.yul\":5872:5894   */\n      add\n        /* \"#utility.yul\":5816:5904   */\n      tag_217\n      jump\t// in\n    tag_261:\n        /* \"#utility.yul\":5806:5904   */\n      swap2\n      pop\n        /* \"#utility.yul\":5600:5914   */\n      pop\n        /* \"#utility.yul\":2656:5921   */\n      swap3\n      swap6\n      swap9\n      pop\n      swap3\n      swap6\n      swap9\n      pop\n      swap3\n      swap6\n      swap9\n      jump\t// out\n        /* \"#utility.yul\":5927:6123   */\n    tag_262:\n        /* \"#utility.yul\":6016:6026   */\n      0x00\n        /* \"#utility.yul\":6051:6117   */\n      tag_264\n        /* \"#utility.yul\":6113:6116   */\n      dup4\n        /* \"#utility.yul\":6105:6111   */\n      dup4\n        /* \"#utility.yul\":6051:6117   */\n      tag_265\n      jump\t// in\n    tag_264:\n        /* \"#utility.yul\":6037:6117   */\n      swap1\n      pop\n        /* \"#utility.yul\":5927:6123   */\n      swap3\n      swap2\n      pop\n      pop\n      jump\t// out\n        /* \"#utility.yul\":6129:6237   */\n    tag_266:\n        /* \"#utility.yul\":6206:6230   */\n      tag_268\n        /* \"#utility.yul\":6224:6229   */\n      dup2\n        /* \"#utility.yul\":6206:6230   */\n      tag_269\n      jump\t// in\n    tag_268:\n        /* \"#utility.yul\":6201:6204   */\n      dup3\n        /* \"#utility.yul\":6194:6231   */\n      mstore\n        /* \"#utility.yul\":6129:6237   */\n      pop\n      pop\n      jump\t// out\n        /* \"#utility.yul\":6243:6361   */\n    tag_270:\n        /* \"#utility.yul\":6330:6354   */\n      tag_272\n        /* \"#utility.yul\":6348:6353   */\n      dup2\n        /* \"#utility.yul\":6330:6354   */\n      tag_269\n      jump\t// in\n    tag_272:\n        /* \"#utility.yul\":6325:6328   */\n      dup3\n        /* \"#utility.yul\":6318:6355   */\n      mstore\n        /* \"#utility.yul\":6243:6361   */\n      pop\n      pop\n      jump\t// out\n        /* \"#utility.yul\":6395:7366   */\n    tag_273:\n        /* \"#utility.yul\":6524:6527   */\n      0x00\n        /* \"#utility.yul\":6553:6617   */\n      tag_275\n        /* \"#utility.yul\":6611:6616   */\n      dup3\n        /* \"#utility.yul\":6553:6617   */\n      tag_276\n      jump\t// in\n    tag_275:\n        /* \"#utility.yul\":6633:6719   */\n      tag_277\n        /* \"#utility.yul\":6712:6718   */\n      dup2\n        /* \"#utility.yul\":6707:6710   */\n      dup6\n        /* \"#utility.yul\":6633:6719   */\n      tag_278\n      jump\t// in\n    tag_277:\n        /* \"#utility.yul\":6626:6719   */\n      swap4\n      pop\n        /* \"#utility.yul\":6745:6748   */\n      dup4\n        /* \"#utility.yul\":6790:6794   */\n      0x20\n        /* \"#utility.yul\":6782:6788   */\n      dup3\n        /* \"#utility.yul\":6778:6795   */\n      mul\n        /* \"#utility.yul\":6773:6776   */\n      dup6\n        /* \"#utility.yul\":6769:6796   */\n      add\n        /* \"#utility.yul\":6820:6886   */\n      tag_279\n        /* \"#utility.yul\":6880:6885   */\n      dup6\n        /* \"#utility.yul\":6820:6886   */\n      tag_280\n      jump\t// in\n    tag_279:\n        /* \"#utility.yul\":6909:6916   */\n      dup1\n        /* \"#utility.yul\":6940:6941   */\n      0x00\n        /* \"#utility.yul\":6925:7321   */\n    tag_281:\n        /* \"#utility.yul\":6950:6956   */\n      dup6\n        /* \"#utility.yul\":6947:6948   */\n      dup2\n        /* \"#utility.yul\":6944:6957   */\n      lt\n        /* \"#utility.yul\":6925:7321   */\n      iszero\n      tag_283\n      jumpi\n        /* \"#utility.yul\":7021:7030   */\n      dup5\n        /* \"#utility.yul\":7015:7019   */\n      dup5\n        /* \"#utility.yul\":7011:7031   */\n      sub\n        /* \"#utility.yul\":7006:7009   */\n      dup10\n        /* \"#utility.yul\":6999:7032   */\n      mstore\n        /* \"#utility.yul\":7072:7078   */\n      dup2\n        /* \"#utility.yul\":7066:7079   */\n      mload\n        /* \"#utility.yul\":7100:7184   */\n      tag_284\n        /* \"#utility.yul\":7179:7183   */\n      dup6\n        /* \"#utility.yul\":7164:7177   */\n      dup3\n        /* \"#utility.yul\":7100:7184   */\n      tag_262\n      jump\t// in\n    tag_284:\n        /* \"#utility.yul\":7092:7184   */\n      swap5\n      pop\n        /* \"#utility.yul\":7207:7277   */\n      tag_285\n        /* \"#utility.yul\":7270:7276   */\n      dup4\n        /* \"#utility.yul\":7207:7277   */\n      tag_286\n      jump\t// in\n    tag_285:\n        /* \"#utility.yul\":7197:7277   */\n      swap3\n      pop\n        /* \"#utility.yul\":7306:7310   */\n      0x20\n        /* \"#utility.yul\":7301:7304   */\n      dup11\n        /* \"#utility.yul\":7297:7311   */\n      add\n        /* \"#utility.yul\":7290:7311   */\n      swap10\n      pop\n        /* \"#utility.yul\":6985:7321   */\n      pop\n        /* \"#utility.yul\":6972:6973   */\n      0x01\n        /* \"#utility.yul\":6969:6970   */\n      dup2\n        /* \"#utility.yul\":6965:6974   */\n      add\n        /* \"#utility.yul\":6960:6974   */\n      swap1\n      pop\n        /* \"#utility.yul\":6925:7321   */\n      jump(tag_281)\n    tag_283:\n        /* \"#utility.yul\":6929:6943   */\n      pop\n        /* \"#utility.yul\":7337:7341   */\n      dup3\n        /* \"#utility.yul\":7330:7341   */\n      swap8\n      pop\n        /* \"#utility.yul\":7357:7360   */\n      dup8\n        /* \"#utility.yul\":7350:7360   */\n      swap6\n      pop\n        /* \"#utility.yul\":6529:7366   */\n      pop\n      pop\n      pop\n      pop\n      pop\n        /* \"#utility.yul\":6395:7366   */\n      swap3\n      swap2\n      pop\n      pop\n      jump\t// out\n        /* \"#utility.yul\":7372:7716   */\n    tag_265:\n        /* \"#utility.yul\":7450:7453   */\n      0x00\n        /* \"#utility.yul\":7478:7517   */\n      tag_288\n        /* \"#utility.yul\":7511:7516   */\n      dup3\n        /* \"#utility.yul\":7478:7517   */\n      tag_289\n      jump\t// in\n    tag_288:\n        /* \"#utility.yul\":7533:7594   */\n      tag_290\n        /* \"#utility.yul\":7587:7593   */\n      dup2\n        /* \"#utility.yul\":7582:7585   */\n      dup6\n        /* \"#utility.yul\":7533:7594   */\n      tag_291\n      jump\t// in\n    tag_290:\n        /* \"#utility.yul\":7526:7594   */\n      swap4\n      pop\n        /* \"#utility.yul\":7603:7655   */\n      tag_292\n        /* \"#utility.yul\":7648:7654   */\n      dup2\n        /* \"#utility.yul\":7643:7646   */\n      dup6\n        /* \"#utility.yul\":7636:7640   */\n      0x20\n        /* \"#utility.yul\":7629:7634   */\n      dup7\n        /* \"#utility.yul\":7625:7641   */\n      add\n        /* \"#utility.yul\":7603:7655   */\n      tag_293\n      jump\t// in\n    tag_292:\n        /* \"#utility.yul\":7680:7709   */\n      tag_294\n        /* \"#utility.yul\":7702:7708   */\n      dup2\n        /* \"#utility.yul\":7680:7709   */\n      tag_295\n      jump\t// in\n    tag_294:\n        /* \"#utility.yul\":7675:7678   */\n      dup5\n        /* \"#utility.yul\":7671:7710   */\n      add\n        /* \"#utility.yul\":7664:7710   */\n      swap2\n      pop\n        /* \"#utility.yul\":7454:7716   */\n      pop\n        /* \"#utility.yul\":7372:7716   */\n      swap3\n      swap2\n      pop\n      pop\n      jump\t// out\n        /* \"#utility.yul\":7722:8086   */\n    tag_296:\n        /* \"#utility.yul\":7810:7813   */\n      0x00\n        /* \"#utility.yul\":7838:7877   */\n      tag_298\n        /* \"#utility.yul\":7871:7876   */\n      dup3\n        /* \"#utility.yul\":7838:7877   */\n      tag_289\n      jump\t// in\n    tag_298:\n        /* \"#utility.yul\":7893:7964   */\n      tag_299\n        /* \"#utility.yul\":7957:7963   */\n      dup2\n        /* \"#utility.yul\":7952:7955   */\n      dup6\n        /* \"#utility.yul\":7893:7964   */\n      tag_300\n      jump\t// in\n    tag_299:\n        /* \"#utility.yul\":7886:7964   */\n      swap4\n      pop\n        /* \"#utility.yul\":7973:8025   */\n      tag_301\n        /* \"#utility.yul\":8018:8024   */\n      dup2\n        /* \"#utility.yul\":8013:8016   */\n      dup6\n        /* \"#utility.yul\":8006:8010   */\n      0x20\n        /* \"#utility.yul\":7999:8004   */\n      dup7\n        /* \"#utility.yul\":7995:8011   */\n      add\n        /* \"#utility.yul\":7973:8025   */\n      tag_293\n      jump\t// in\n    tag_301:\n        /* \"#utility.yul\":8050:8079   */\n      tag_302\n        /* \"#utility.yul\":8072:8078   */\n      dup2\n        /* \"#utility.yul\":8050:8079   */\n      tag_295\n      jump\t// in\n    tag_302:\n        /* \"#utility.yul\":8045:8048   */\n      dup5\n        /* \"#utility.yul\":8041:8080   */\n      add\n        /* \"#utility.yul\":8034:8080   */\n      swap2\n      pop\n        /* \"#utility.yul\":7814:8086   */\n      pop\n        /* \"#utility.yul\":7722:8086   */\n      swap3\n      swap2\n      pop\n      pop\n      jump\t// out\n        /* \"#utility.yul\":8140:11082   */\n    tag_303:\n        /* \"#utility.yul\":8247:8250   */\n      0x00\n        /* \"#utility.yul\":8283:8289   */\n      0x0160\n        /* \"#utility.yul\":8278:8281   */\n      dup4\n        /* \"#utility.yul\":8274:8290   */\n      add\n        /* \"#utility.yul\":8379:8383   */\n      0x00\n        /* \"#utility.yul\":8372:8377   */\n      dup4\n        /* \"#utility.yul\":8368:8384   */\n      add\n        /* \"#utility.yul\":8362:8385   */\n      mload\n        /* \"#utility.yul\":8398:8461   */\n      tag_305\n        /* \"#utility.yul\":8455:8459   */\n      0x00\n        /* \"#utility.yul\":8450:8453   */\n      dup7\n        /* \"#utility.yul\":8446:8460   */\n      add\n        /* \"#utility.yul\":8432:8444   */\n      dup3\n        /* \"#utility.yul\":8398:8461   */\n      tag_266\n      jump\t// in\n    tag_305:\n        /* \"#utility.yul\":8300:8471   */\n      pop\n        /* \"#utility.yul\":8558:8562   */\n      0x20\n        /* \"#utility.yul\":8551:8556   */\n      dup4\n        /* \"#utility.yul\":8547:8563   */\n      add\n        /* \"#utility.yul\":8541:8564   */\n      mload\n        /* \"#utility.yul\":8611:8614   */\n      dup5\n        /* \"#utility.yul\":8605:8609   */\n      dup3\n        /* \"#utility.yul\":8601:8615   */\n      sub\n        /* \"#utility.yul\":8594:8598   */\n      0x20\n        /* \"#utility.yul\":8589:8592   */\n      dup7\n        /* \"#utility.yul\":8585:8599   */\n      add\n        /* \"#utility.yul\":8578:8616   */\n      mstore\n        /* \"#utility.yul\":8637:8710   */\n      tag_306\n        /* \"#utility.yul\":8705:8709   */\n      dup3\n        /* \"#utility.yul\":8691:8703   */\n      dup3\n        /* \"#utility.yul\":8637:8710   */\n      tag_265\n      jump\t// in\n    tag_306:\n        /* \"#utility.yul\":8629:8710   */\n      swap2\n      pop\n        /* \"#utility.yul\":8481:8721   */\n      pop\n        /* \"#utility.yul\":8809:8813   */\n      0x40\n        /* \"#utility.yul\":8802:8807   */\n      dup4\n        /* \"#utility.yul\":8798:8814   */\n      add\n        /* \"#utility.yul\":8792:8815   */\n      mload\n        /* \"#utility.yul\":8862:8865   */\n      dup5\n        /* \"#utility.yul\":8856:8860   */\n      dup3\n        /* \"#utility.yul\":8852:8866   */\n      sub\n        /* \"#utility.yul\":8845:8849   */\n      0x40\n        /* \"#utility.yul\":8840:8843   */\n      dup7\n        /* \"#utility.yul\":8836:8850   */\n      add\n        /* \"#utility.yul\":8829:8867   */\n      mstore\n        /* \"#utility.yul\":8888:8961   */\n      tag_307\n        /* \"#utility.yul\":8956:8960   */\n      dup3\n        /* \"#utility.yul\":8942:8954   */\n      dup3\n        /* \"#utility.yul\":8888:8961   */\n      tag_265\n      jump\t// in\n    tag_307:\n        /* \"#utility.yul\":8880:8961   */\n      swap2\n      pop\n        /* \"#utility.yul\":8731:8972   */\n      pop\n        /* \"#utility.yul\":9058:9062   */\n      0x60\n        /* \"#utility.yul\":9051:9056   */\n      dup4\n        /* \"#utility.yul\":9047:9063   */\n      add\n        /* \"#utility.yul\":9041:9064   */\n      mload\n        /* \"#utility.yul\":9111:9114   */\n      dup5\n        /* \"#utility.yul\":9105:9109   */\n      dup3\n        /* \"#utility.yul\":9101:9115   */\n      sub\n        /* \"#utility.yul\":9094:9098   */\n      0x60\n        /* \"#utility.yul\":9089:9092   */\n      dup7\n        /* \"#utility.yul\":9085:9099   */\n      add\n        /* \"#utility.yul\":9078:9116   */\n      mstore\n        /* \"#utility.yul\":9137:9210   */\n      tag_308\n        /* \"#utility.yul\":9205:9209   */\n      dup3\n        /* \"#utility.yul\":9191:9203   */\n      dup3\n        /* \"#utility.yul\":9137:9210   */\n      tag_265\n      jump\t// in\n    tag_308:\n        /* \"#utility.yul\":9129:9210   */\n      swap2\n      pop\n        /* \"#utility.yul\":8982:9221   */\n      pop\n        /* \"#utility.yul\":9304:9308   */\n      0x80\n        /* \"#utility.yul\":9297:9302   */\n      dup4\n        /* \"#utility.yul\":9293:9309   */\n      add\n        /* \"#utility.yul\":9287:9310   */\n      mload\n        /* \"#utility.yul\":9357:9360   */\n      dup5\n        /* \"#utility.yul\":9351:9355   */\n      dup3\n        /* \"#utility.yul\":9347:9361   */\n      sub\n        /* \"#utility.yul\":9340:9344   */\n      0x80\n        /* \"#utility.yul\":9335:9338   */\n      dup7\n        /* \"#utility.yul\":9331:9345   */\n      add\n        /* \"#utility.yul\":9324:9362   */\n      mstore\n        /* \"#utility.yul\":9383:9456   */\n      tag_309\n        /* \"#utility.yul\":9451:9455   */\n      dup3\n        /* \"#utility.yul\":9437:9449   */\n      dup3\n        /* \"#utility.yul\":9383:9456   */\n      tag_265\n      jump\t// in\n    tag_309:\n        /* \"#utility.yul\":9375:9456   */\n      swap2\n      pop\n        /* \"#utility.yul\":9231:9467   */\n      pop\n        /* \"#utility.yul\":9550:9554   */\n      0xa0\n        /* \"#utility.yul\":9543:9548   */\n      dup4\n        /* \"#utility.yul\":9539:9555   */\n      add\n        /* \"#utility.yul\":9533:9556   */\n      mload\n        /* \"#utility.yul\":9603:9606   */\n      dup5\n        /* \"#utility.yul\":9597:9601   */\n      dup3\n        /* \"#utility.yul\":9593:9607   */\n      sub\n        /* \"#utility.yul\":9586:9590   */\n      0xa0\n        /* \"#utility.yul\":9581:9584   */\n      dup7\n        /* \"#utility.yul\":9577:9591   */\n      add\n        /* \"#utility.yul\":9570:9608   */\n      mstore\n        /* \"#utility.yul\":9629:9702   */\n      tag_310\n        /* \"#utility.yul\":9697:9701   */\n      dup3\n        /* \"#utility.yul\":9683:9695   */\n      dup3\n        /* \"#utility.yul\":9629:9702   */\n      tag_265\n      jump\t// in\n    tag_310:\n        /* \"#utility.yul\":9621:9702   */\n      swap2\n      pop\n        /* \"#utility.yul\":9477:9713   */\n      pop\n        /* \"#utility.yul\":9803:9807   */\n      0xc0\n        /* \"#utility.yul\":9796:9801   */\n      dup4\n        /* \"#utility.yul\":9792:9808   */\n      add\n        /* \"#utility.yul\":9786:9809   */\n      mload\n        /* \"#utility.yul\":9856:9859   */\n      dup5\n        /* \"#utility.yul\":9850:9854   */\n      dup3\n        /* \"#utility.yul\":9846:9860   */\n      sub\n        /* \"#utility.yul\":9839:9843   */\n      0xc0\n        /* \"#utility.yul\":9834:9837   */\n      dup7\n        /* \"#utility.yul\":9830:9844   */\n      add\n        /* \"#utility.yul\":9823:9861   */\n      mstore\n        /* \"#utility.yul\":9882:9955   */\n      tag_311\n        /* \"#utility.yul\":9950:9954   */\n      dup3\n        /* \"#utility.yul\":9936:9948   */\n      dup3\n        /* \"#utility.yul\":9882:9955   */\n      tag_265\n      jump\t// in\n    tag_311:\n        /* \"#utility.yul\":9874:9955   */\n      swap2\n      pop\n        /* \"#utility.yul\":9723:9966   */\n      pop\n        /* \"#utility.yul\":10054:10058   */\n      0xe0\n        /* \"#utility.yul\":10047:10052   */\n      dup4\n        /* \"#utility.yul\":10043:10059   */\n      add\n        /* \"#utility.yul\":10037:10060   */\n      mload\n        /* \"#utility.yul\":10073:10136   */\n      tag_312\n        /* \"#utility.yul\":10130:10134   */\n      0xe0\n        /* \"#utility.yul\":10125:10128   */\n      dup7\n        /* \"#utility.yul\":10121:10135   */\n      add\n        /* \"#utility.yul\":10107:10119   */\n      dup3\n        /* \"#utility.yul\":10073:10136   */\n      tag_313\n      jump\t// in\n    tag_312:\n        /* \"#utility.yul\":9976:10146   */\n      pop\n        /* \"#utility.yul\":10232:10238   */\n      0x0100\n        /* \"#utility.yul\":10225:10230   */\n      dup4\n        /* \"#utility.yul\":10221:10239   */\n      add\n        /* \"#utility.yul\":10215:10240   */\n      mload\n        /* \"#utility.yul\":10289:10292   */\n      dup5\n        /* \"#utility.yul\":10283:10287   */\n      dup3\n        /* \"#utility.yul\":10279:10293   */\n      sub\n        /* \"#utility.yul\":10270:10276   */\n      0x0100\n        /* \"#utility.yul\":10265:10268   */\n      dup7\n        /* \"#utility.yul\":10261:10277   */\n      add\n        /* \"#utility.yul\":10254:10294   */\n      mstore\n        /* \"#utility.yul\":10315:10438   */\n      tag_314\n        /* \"#utility.yul\":10433:10437   */\n      dup3\n        /* \"#utility.yul\":10419:10431   */\n      dup3\n        /* \"#utility.yul\":10315:10438   */\n      tag_273\n      jump\t// in\n    tag_314:\n        /* \"#utility.yul\":10307:10438   */\n      swap2\n      pop\n        /* \"#utility.yul\":10156:10449   */\n      pop\n        /* \"#utility.yul\":10534:10540   */\n      0x0120\n        /* \"#utility.yul\":10527:10532   */\n      dup4\n        /* \"#utility.yul\":10523:10541   */\n      add\n        /* \"#utility.yul\":10517:10542   */\n      mload\n        /* \"#utility.yul\":10591:10594   */\n      dup5\n        /* \"#utility.yul\":10585:10589   */\n      dup3\n        /* \"#utility.yul\":10581:10595   */\n      sub\n        /* \"#utility.yul\":10572:10578   */\n      0x0120\n        /* \"#utility.yul\":10567:10570   */\n      dup7\n        /* \"#utility.yul\":10563:10579   */\n      add\n        /* \"#utility.yul\":10556:10596   */\n      mstore\n        /* \"#utility.yul\":10617:10740   */\n      tag_315\n        /* \"#utility.yul\":10735:10739   */\n      dup3\n        /* \"#utility.yul\":10721:10733   */\n      dup3\n        /* \"#utility.yul\":10617:10740   */\n      tag_273\n      jump\t// in\n    tag_315:\n        /* \"#utility.yul\":10609:10740   */\n      swap2\n      pop\n        /* \"#utility.yul\":10459:10751   */\n      pop\n        /* \"#utility.yul\":10838:10844   */\n      0x0140\n        /* \"#utility.yul\":10831:10836   */\n      dup4\n        /* \"#utility.yul\":10827:10845   */\n      add\n        /* \"#utility.yul\":10821:10846   */\n      mload\n        /* \"#utility.yul\":10895:10898   */\n      dup5\n        /* \"#utility.yul\":10889:10893   */\n      dup3\n        /* \"#utility.yul\":10885:10899   */\n      sub\n        /* \"#utility.yul\":10876:10882   */\n      0x0140\n        /* \"#utility.yul\":10871:10874   */\n      dup7\n        /* \"#utility.yul\":10867:10883   */\n      add\n        /* \"#utility.yul\":10860:10900   */\n      mstore\n        /* \"#utility.yul\":10921:11044   */\n      tag_316\n        /* \"#utility.yul\":11039:11043   */\n      dup3\n        /* \"#utility.yul\":11025:11037   */\n      dup3\n        /* \"#utility.yul\":10921:11044   */\n      tag_273\n      jump\t// in\n    tag_316:\n        /* \"#utility.yul\":10913:11044   */\n      swap2\n      pop\n        /* \"#utility.yul\":10761:11055   */\n      pop\n        /* \"#utility.yul\":11072:11076   */\n      dup1\n        /* \"#utility.yul\":11065:11076   */\n      swap2\n      pop\n        /* \"#utility.yul\":8252:11082   */\n      pop\n        /* \"#utility.yul\":8140:11082   */\n      swap3\n      swap2\n      pop\n      pop\n      jump\t// out\n        /* \"#utility.yul\":11088:11196   */\n    tag_313:\n        /* \"#utility.yul\":11165:11189   */\n      tag_318\n        /* \"#utility.yul\":11183:11188   */\n      dup2\n        /* \"#utility.yul\":11165:11189   */\n      tag_319\n      jump\t// in\n    tag_318:\n        /* \"#utility.yul\":11160:11163   */\n      dup3\n        /* \"#utility.yul\":11153:11190   */\n      mstore\n        /* \"#utility.yul\":11088:11196   */\n      pop\n      pop\n      jump\t// out\n        /* \"#utility.yul\":11202:11320   */\n    tag_320:\n        /* \"#utility.yul\":11289:11313   */\n      tag_322\n        /* \"#utility.yul\":11307:11312   */\n      dup2\n        /* \"#utility.yul\":11289:11313   */\n      tag_319\n      jump\t// in\n    tag_322:\n        /* \"#utility.yul\":11284:11287   */\n      dup3\n        /* \"#utility.yul\":11277:11314   */\n      mstore\n        /* \"#utility.yul\":11202:11320   */\n      pop\n      pop\n      jump\t// out\n        /* \"#utility.yul\":11326:12869   */\n    tag_12:\n        /* \"#utility.yul\":11735:11739   */\n      0x00\n        /* \"#utility.yul\":11773:11776   */\n      0x0100\n        /* \"#utility.yul\":11762:11771   */\n      dup3\n        /* \"#utility.yul\":11758:11777   */\n      add\n        /* \"#utility.yul\":11750:11777   */\n      swap1\n      pop\n        /* \"#utility.yul\":11787:11858   */\n      tag_324\n        /* \"#utility.yul\":11855:11856   */\n      0x00\n        /* \"#utility.yul\":11844:11853   */\n      dup4\n        /* \"#utility.yul\":11840:11857   */\n      add\n        /* \"#utility.yul\":11831:11837   */\n      dup12\n        /* \"#utility.yul\":11787:11858   */\n      tag_270\n      jump\t// in\n    tag_324:\n        /* \"#utility.yul\":11905:11914   */\n      dup2\n        /* \"#utility.yul\":11899:11903   */\n      dup2\n        /* \"#utility.yul\":11895:11915   */\n      sub\n        /* \"#utility.yul\":11890:11892   */\n      0x20\n        /* \"#utility.yul\":11879:11888   */\n      dup4\n        /* \"#utility.yul\":11875:11893   */\n      add\n        /* \"#utility.yul\":11868:11916   */\n      mstore\n        /* \"#utility.yul\":11933:12011   */\n      tag_325\n        /* \"#utility.yul\":12006:12010   */\n      dup2\n        /* \"#utility.yul\":11997:12003   */\n      dup11\n        /* \"#utility.yul\":11933:12011   */\n      tag_296\n      jump\t// in\n    tag_325:\n        /* \"#utility.yul\":11925:12011   */\n      swap1\n      pop\n        /* \"#utility.yul\":12058:12067   */\n      dup2\n        /* \"#utility.yul\":12052:12056   */\n      dup2\n        /* \"#utility.yul\":12048:12068   */\n      sub\n        /* \"#utility.yul\":12043:12045   */\n      0x40\n        /* \"#utility.yul\":12032:12041   */\n      dup4\n        /* \"#utility.yul\":12028:12046   */\n      add\n        /* \"#utility.yul\":12021:12069   */\n      mstore\n        /* \"#utility.yul\":12086:12164   */\n      tag_326\n        /* \"#utility.yul\":12159:12163   */\n      dup2\n        /* \"#utility.yul\":12150:12156   */\n      dup10\n        /* \"#utility.yul\":12086:12164   */\n      tag_296\n      jump\t// in\n    tag_326:\n        /* \"#utility.yul\":12078:12164   */\n      swap1\n      pop\n        /* \"#utility.yul\":12211:12220   */\n      dup2\n        /* \"#utility.yul\":12205:12209   */\n      dup2\n        /* \"#utility.yul\":12201:12221   */\n      sub\n        /* \"#utility.yul\":12196:12198   */\n      0x60\n        /* \"#utility.yul\":12185:12194   */\n      dup4\n        /* \"#utility.yul\":12181:12199   */\n      add\n        /* \"#utility.yul\":12174:12222   */\n      mstore\n        /* \"#utility.yul\":12239:12317   */\n      tag_327\n        /* \"#utility.yul\":12312:12316   */\n      dup2\n        /* \"#utility.yul\":12303:12309   */\n      dup9\n        /* \"#utility.yul\":12239:12317   */\n      tag_296\n      jump\t// in\n    tag_327:\n        /* \"#utility.yul\":12231:12317   */\n      swap1\n      pop\n        /* \"#utility.yul\":12365:12374   */\n      dup2\n        /* \"#utility.yul\":12359:12363   */\n      dup2\n        /* \"#utility.yul\":12355:12375   */\n      sub\n        /* \"#utility.yul\":12349:12352   */\n      0x80\n        /* \"#utility.yul\":12338:12347   */\n      dup4\n        /* \"#utility.yul\":12334:12353   */\n      add\n        /* \"#utility.yul\":12327:12376   */\n      mstore\n        /* \"#utility.yul\":12393:12471   */\n      tag_328\n        /* \"#utility.yul\":12466:12470   */\n      dup2\n        /* \"#utility.yul\":12457:12463   */\n      dup8\n        /* \"#utility.yul\":12393:12471   */\n      tag_296\n      jump\t// in\n    tag_328:\n        /* \"#utility.yul\":12385:12471   */\n      swap1\n      pop\n        /* \"#utility.yul\":12519:12528   */\n      dup2\n        /* \"#utility.yul\":12513:12517   */\n      dup2\n        /* \"#utility.yul\":12509:12529   */\n      sub\n        /* \"#utility.yul\":12503:12506   */\n      0xa0\n        /* \"#utility.yul\":12492:12501   */\n      dup4\n        /* \"#utility.yul\":12488:12507   */\n      add\n        /* \"#utility.yul\":12481:12530   */\n      mstore\n        /* \"#utility.yul\":12547:12625   */\n      tag_329\n        /* \"#utility.yul\":12620:12624   */\n      dup2\n        /* \"#utility.yul\":12611:12617   */\n      dup7\n        /* \"#utility.yul\":12547:12625   */\n      tag_296\n      jump\t// in\n    tag_329:\n        /* \"#utility.yul\":12539:12625   */\n      swap1\n      pop\n        /* \"#utility.yul\":12673:12682   */\n      dup2\n        /* \"#utility.yul\":12667:12671   */\n      dup2\n        /* \"#utility.yul\":12663:12683   */\n      sub\n        /* \"#utility.yul\":12657:12660   */\n      0xc0\n        /* \"#utility.yul\":12646:12655   */\n      dup4\n        /* \"#utility.yul\":12642:12661   */\n      add\n        /* \"#utility.yul\":12635:12684   */\n      mstore\n        /* \"#utility.yul\":12701:12779   */\n      tag_330\n        /* \"#utility.yul\":12774:12778   */\n      dup2\n        /* \"#utility.yul\":12765:12771   */\n      dup6\n        /* \"#utility.yul\":12701:12779   */\n      tag_296\n      jump\t// in\n    tag_330:\n        /* \"#utility.yul\":12693:12779   */\n      swap1\n      pop\n        /* \"#utility.yul\":12789:12862   */\n      tag_331\n        /* \"#utility.yul\":12857:12860   */\n      0xe0\n        /* \"#utility.yul\":12846:12855   */\n      dup4\n        /* \"#utility.yul\":12842:12861   */\n      add\n        /* \"#utility.yul\":12833:12839   */\n      dup5\n        /* \"#utility.yul\":12789:12862   */\n      tag_320\n      jump\t// in\n    tag_331:\n        /* \"#utility.yul\":11326:12869   */\n      swap10\n      swap9\n      pop\n      pop\n      pop\n      pop\n      pop\n      pop\n      pop\n      pop\n      pop\n      jump\t// out\n        /* \"#utility.yul\":12875:13224   */\n    tag_16:\n        /* \"#utility.yul\":13006:13010   */\n      0x00\n        /* \"#utility.yul\":13044:13046   */\n      0x20\n        /* \"#utility.yul\":13033:13042   */\n      dup3\n        /* \"#utility.yul\":13029:13047   */\n      add\n        /* \"#utility.yul\":13021:13047   */\n      swap1\n      pop\n        /* \"#utility.yul\":13093:13102   */\n      dup2\n        /* \"#utility.yul\":13087:13091   */\n      dup2\n        /* \"#utility.yul\":13083:13103   */\n      sub\n        /* \"#utility.yul\":13079:13080   */\n      0x00\n        /* \"#utility.yul\":13068:13077   */\n      dup4\n        /* \"#utility.yul\":13064:13081   */\n      add\n        /* \"#utility.yul\":13057:13104   */\n      mstore\n        /* \"#utility.yul\":13121:13217   */\n      tag_333\n        /* \"#utility.yul\":13212:13216   */\n      dup2\n        /* \"#utility.yul\":13203:13209   */\n      dup5\n        /* \"#utility.yul\":13121:13217   */\n      tag_303\n      jump\t// in\n    tag_333:\n        /* \"#utility.yul\":13113:13217   */\n      swap1\n      pop\n        /* \"#utility.yul\":12875:13224   */\n      swap3\n      swap2\n      pop\n      pop\n      jump\t// out\n        /* \"#utility.yul\":13230:13359   */\n    tag_191:\n        /* \"#utility.yul\":13264:13270   */\n      0x00\n        /* \"#utility.yul\":13291:13311   */\n      tag_335\n      tag_336\n      jump\t// in\n    tag_335:\n        /* \"#utility.yul\":13281:13311   */\n      swap1\n      pop\n        /* \"#utility.yul\":13320:13353   */\n      tag_337\n        /* \"#utility.yul\":13348:13352   */\n      dup3\n        /* \"#utility.yul\":13340:13346   */\n      dup3\n        /* \"#utility.yul\":13320:13353   */\n      tag_338\n      jump\t// in\n    tag_337:\n        /* \"#utility.yul\":13230:13359   */\n      swap2\n      swap1\n      pop\n      jump\t// out\n        /* \"#utility.yul\":13365:13440   */\n    tag_336:\n        /* \"#utility.yul\":13398:13404   */\n      0x00\n        /* \"#utility.yul\":13431:13433   */\n      0x40\n        /* \"#utility.yul\":13425:13434   */\n      mload\n        /* \"#utility.yul\":13415:13434   */\n      swap1\n      pop\n        /* \"#utility.yul\":13365:13440   */\n      swap1\n      jump\t// out\n        /* \"#utility.yul\":13446:13767   */\n    tag_190:\n        /* \"#utility.yul\":13533:13537   */\n      0x00\n        /* \"#utility.yul\":13623:13641   */\n      0xffffffffffffffff\n        /* \"#utility.yul\":13615:13621   */\n      dup3\n        /* \"#utility.yul\":13612:13642   */\n      gt\n        /* \"#utility.yul\":13609:13665   */\n      iszero\n      tag_341\n      jumpi\n        /* \"#utility.yul\":13645:13663   */\n      tag_342\n      tag_343\n      jump\t// in\n    tag_342:\n        /* \"#utility.yul\":13609:13665   */\n    tag_341:\n        /* \"#utility.yul\":13695:13699   */\n      0x20\n        /* \"#utility.yul\":13687:13693   */\n      dup3\n        /* \"#utility.yul\":13683:13700   */\n      mul\n        /* \"#utility.yul\":13675:13700   */\n      swap1\n      pop\n        /* \"#utility.yul\":13755:13759   */\n      0x20\n        /* \"#utility.yul\":13749:13753   */\n      dup2\n        /* \"#utility.yul\":13745:13760   */\n      add\n        /* \"#utility.yul\":13737:13760   */\n      swap1\n      pop\n        /* \"#utility.yul\":13446:13767   */\n      swap2\n      swap1\n      pop\n      jump\t// out\n        /* \"#utility.yul\":13773:14081   */\n    tag_207:\n        /* \"#utility.yul\":13835:13839   */\n      0x00\n        /* \"#utility.yul\":13925:13943   */\n      0xffffffffffffffff\n        /* \"#utility.yul\":13917:13923   */\n      dup3\n        /* \"#utility.yul\":13914:13944   */\n      gt\n        /* \"#utility.yul\":13911:13967   */\n      iszero\n      tag_345\n      jumpi\n        /* \"#utility.yul\":13947:13965   */\n      tag_346\n      tag_343\n      jump\t// in\n    tag_346:\n        /* \"#utility.yul\":13911:13967   */\n    tag_345:\n        /* \"#utility.yul\":13985:14014   */\n      tag_347\n        /* \"#utility.yul\":14007:14013   */\n      dup3\n        /* \"#utility.yul\":13985:14014   */\n      tag_295\n      jump\t// in\n    tag_347:\n        /* \"#utility.yul\":13977:14014   */\n      swap1\n      pop\n        /* \"#utility.yul\":14069:14073   */\n      0x20\n        /* \"#utility.yul\":14063:14067   */\n      dup2\n        /* \"#utility.yul\":14059:14074   */\n      add\n        /* \"#utility.yul\":14051:14074   */\n      swap1\n      pop\n        /* \"#utility.yul\":13773:14081   */\n      swap2\n      swap1\n      pop\n      jump\t// out\n        /* \"#utility.yul\":14087:14229   */\n    tag_280:\n        /* \"#utility.yul\":14164:14168   */\n      0x00\n        /* \"#utility.yul\":14187:14190   */\n      dup2\n        /* \"#utility.yul\":14179:14190   */\n      swap1\n      pop\n        /* \"#utility.yul\":14217:14221   */\n      0x20\n        /* \"#utility.yul\":14212:14215   */\n      dup3\n        /* \"#utility.yul\":14208:14222   */\n      add\n        /* \"#utility.yul\":14200:14222   */\n      swap1\n      pop\n        /* \"#utility.yul\":14087:14229   */\n      swap2\n      swap1\n      pop\n      jump\t// out\n        /* \"#utility.yul\":14235:14359   */\n    tag_276:\n        /* \"#utility.yul\":14312:14318   */\n      0x00\n        /* \"#utility.yul\":14346:14351   */\n      dup2\n        /* \"#utility.yul\":14340:14352   */\n      mload\n        /* \"#utility.yul\":14330:14352   */\n      swap1\n      pop\n        /* \"#utility.yul\":14235:14359   */\n      swap2\n      swap1\n      pop\n      jump\t// out\n        /* \"#utility.yul\":14365:14464   */\n    tag_289:\n        /* \"#utility.yul\":14417:14423   */\n      0x00\n        /* \"#utility.yul\":14451:14456   */\n      dup2\n        /* \"#utility.yul\":14445:14457   */\n      mload\n        /* \"#utility.yul\":14435:14457   */\n      swap1\n      pop\n        /* \"#utility.yul\":14365:14464   */\n      swap2\n      swap1\n      pop\n      jump\t// out\n        /* \"#utility.yul\":14470:14593   */\n    tag_286:\n        /* \"#utility.yul\":14550:14554   */\n      0x00\n        /* \"#utility.yul\":14582:14586   */\n      0x20\n        /* \"#utility.yul\":14577:14580   */\n      dup3\n        /* \"#utility.yul\":14573:14587   */\n      add\n        /* \"#utility.yul\":14565:14587   */\n      swap1\n      pop\n        /* \"#utility.yul\":14470:14593   */\n      swap2\n      swap1\n      pop\n      jump\t// out\n        /* \"#utility.yul\":14599:14783   */\n    tag_278:\n        /* \"#utility.yul\":14698:14709   */\n      0x00\n        /* \"#utility.yul\":14732:14738   */\n      dup3\n        /* \"#utility.yul\":14727:14730   */\n      dup3\n        /* \"#utility.yul\":14720:14739   */\n      mstore\n        /* \"#utility.yul\":14772:14776   */\n      0x20\n        /* \"#utility.yul\":14767:14770   */\n      dup3\n        /* \"#utility.yul\":14763:14777   */\n      add\n        /* \"#utility.yul\":14748:14777   */\n      swap1\n      pop\n        /* \"#utility.yul\":14599:14783   */\n      swap3\n      swap2\n      pop\n      pop\n      jump\t// out\n        /* \"#utility.yul\":14789:14948   */\n    tag_291:\n        /* \"#utility.yul\":14863:14874   */\n      0x00\n        /* \"#utility.yul\":14897:14903   */\n      dup3\n        /* \"#utility.yul\":14892:14895   */\n      dup3\n        /* \"#utility.yul\":14885:14904   */\n      mstore\n        /* \"#utility.yul\":14937:14941   */\n      0x20\n        /* \"#utility.yul\":14932:14935   */\n      dup3\n        /* \"#utility.yul\":14928:14942   */\n      add\n        /* \"#utility.yul\":14913:14942   */\n      swap1\n      pop\n        /* \"#utility.yul\":14789:14948   */\n      swap3\n      swap2\n      pop\n      pop\n      jump\t// out\n        /* \"#utility.yul\":14954:15123   */\n    tag_300:\n        /* \"#utility.yul\":15038:15049   */\n      0x00\n        /* \"#utility.yul\":15072:15078   */\n      dup3\n        /* \"#utility.yul\":15067:15070   */\n      dup3\n        /* \"#utility.yul\":15060:15079   */\n      mstore\n        /* \"#utility.yul\":15112:15116   */\n      0x20\n        /* \"#utility.yul\":15107:15110   */\n      dup3\n        /* \"#utility.yul\":15103:15117   */\n      add\n        /* \"#utility.yul\":15088:15117   */\n      swap1\n      pop\n        /* \"#utility.yul\":14954:15123   */\n      swap3\n      swap2\n      pop\n      pop\n      jump\t// out\n        /* \"#utility.yul\":15129:15225   */\n    tag_269:\n        /* \"#utility.yul\":15166:15173   */\n      0x00\n        /* \"#utility.yul\":15195:15219   */\n      tag_356\n        /* \"#utility.yul\":15213:15218   */\n      dup3\n        /* \"#utility.yul\":15195:15219   */\n      tag_357\n      jump\t// in\n    tag_356:\n        /* \"#utility.yul\":15184:15219   */\n      swap1\n      pop\n        /* \"#utility.yul\":15129:15225   */\n      swap2\n      swap1\n      pop\n      jump\t// out\n        /* \"#utility.yul\":15231:15357   */\n    tag_357:\n        /* \"#utility.yul\":15268:15275   */\n      0x00\n        /* \"#utility.yul\":15308:15350   */\n      0xffffffffffffffffffffffffffffffffffffffff\n        /* \"#utility.yul\":15301:15306   */\n      dup3\n        /* \"#utility.yul\":15297:15351   */\n      and\n        /* \"#utility.yul\":15286:15351   */\n      swap1\n      pop\n        /* \"#utility.yul\":15231:15357   */\n      swap2\n      swap1\n      pop\n      jump\t// out\n        /* \"#utility.yul\":15363:15440   */\n    tag_319:\n        /* \"#utility.yul\":15400:15407   */\n      0x00\n        /* \"#utility.yul\":15429:15434   */\n      dup2\n        /* \"#utility.yul\":15418:15434   */\n      swap1\n      pop\n        /* \"#utility.yul\":15363:15440   */\n      swap2\n      swap1\n      pop\n      jump\t// out\n        /* \"#utility.yul\":15446:15532   */\n    tag_360:\n        /* \"#utility.yul\":15481:15488   */\n      0x00\n        /* \"#utility.yul\":15521:15525   */\n      0xff\n        /* \"#utility.yul\":15514:15519   */\n      dup3\n        /* \"#utility.yul\":15510:15526   */\n      and\n        /* \"#utility.yul\":15499:15526   */\n      swap1\n      pop\n        /* \"#utility.yul\":15446:15532   */\n      swap2\n      swap1\n      pop\n      jump\t// out\n        /* \"#utility.yul\":15538:15692   */\n    tag_212:\n        /* \"#utility.yul\":15622:15628   */\n      dup3\n        /* \"#utility.yul\":15617:15620   */\n      dup2\n        /* \"#utility.yul\":15612:15615   */\n      dup4\n        /* \"#utility.yul\":15599:15629   */\n      calldatacopy\n        /* \"#utility.yul\":15684:15685   */\n      0x00\n        /* \"#utility.yul\":15675:15681   */\n      dup4\n        /* \"#utility.yul\":15670:15673   */\n      dup4\n        /* \"#utility.yul\":15666:15682   */\n      add\n        /* \"#utility.yul\":15659:15686   */\n      mstore\n        /* \"#utility.yul\":15538:15692   */\n      pop\n      pop\n      pop\n      jump\t// out\n        /* \"#utility.yul\":15698:16005   */\n    tag_293:\n        /* \"#utility.yul\":15766:15767   */\n      0x00\n        /* \"#utility.yul\":15776:15889   */\n    tag_364:\n        /* \"#utility.yul\":15790:15796   */\n      dup4\n        /* \"#utility.yul\":15787:15788   */\n      dup2\n        /* \"#utility.yul\":15784:15797   */\n      lt\n        /* \"#utility.yul\":15776:15889   */\n      iszero\n      tag_366\n      jumpi\n        /* \"#utility.yul\":15875:15876   */\n      dup1\n        /* \"#utility.yul\":15870:15873   */\n      dup3\n        /* \"#utility.yul\":15866:15877   */\n      add\n        /* \"#utility.yul\":15860:15878   */\n      mload\n        /* \"#utility.yul\":15856:15857   */\n      dup2\n        /* \"#utility.yul\":15851:15854   */\n      dup5\n        /* \"#utility.yul\":15847:15858   */\n      add\n        /* \"#utility.yul\":15840:15879   */\n      mstore\n        /* \"#utility.yul\":15812:15814   */\n      0x20\n        /* \"#utility.yul\":15809:15810   */\n      dup2\n        /* \"#utility.yul\":15805:15815   */\n      add\n        /* \"#utility.yul\":15800:15815   */\n      swap1\n      pop\n        /* \"#utility.yul\":15776:15889   */\n      jump(tag_364)\n    tag_366:\n        /* \"#utility.yul\":15907:15913   */\n      dup4\n        /* \"#utility.yul\":15904:15905   */\n      dup2\n        /* \"#utility.yul\":15901:15914   */\n      gt\n        /* \"#utility.yul\":15898:15999   */\n      iszero\n      tag_367\n      jumpi\n        /* \"#utility.yul\":15987:15988   */\n      0x00\n        /* \"#utility.yul\":15978:15984   */\n      dup5\n        /* \"#utility.yul\":15973:15976   */\n      dup5\n        /* \"#utility.yul\":15969:15985   */\n      add\n        /* \"#utility.yul\":15962:15989   */\n      mstore\n        /* \"#utility.yul\":15898:15999   */\n    tag_367:\n        /* \"#utility.yul\":15747:16005   */\n      pop\n        /* \"#utility.yul\":15698:16005   */\n      pop\n      pop\n      pop\n      jump\t// out\n        /* \"#utility.yul\":16011:16331   */\n    tag_24:\n        /* \"#utility.yul\":16055:16061   */\n      0x00\n        /* \"#utility.yul\":16092:16093   */\n      0x02\n        /* \"#utility.yul\":16086:16090   */\n      dup3\n        /* \"#utility.yul\":16082:16094   */\n      div\n        /* \"#utility.yul\":16072:16094   */\n      swap1\n      pop\n        /* \"#utility.yul\":16139:16140   */\n      0x01\n        /* \"#utility.yul\":16133:16137   */\n      dup3\n        /* \"#utility.yul\":16129:16141   */\n      and\n        /* \"#utility.yul\":16160:16178   */\n      dup1\n        /* \"#utility.yul\":16150:16231   */\n      tag_369\n      jumpi\n        /* \"#utility.yul\":16216:16220   */\n      0x7f\n        /* \"#utility.yul\":16208:16214   */\n      dup3\n        /* \"#utility.yul\":16204:16221   */\n      and\n        /* \"#utility.yul\":16194:16221   */\n      swap2\n      pop\n        /* \"#utility.yul\":16150:16231   */\n    tag_369:\n        /* \"#utility.yul\":16278:16280   */\n      0x20\n        /* \"#utility.yul\":16270:16276   */\n      dup3\n        /* \"#utility.yul\":16267:16281   */\n      lt\n        /* \"#utility.yul\":16247:16265   */\n      dup2\n        /* \"#utility.yul\":16244:16282   */\n      eq\n        /* \"#utility.yul\":16241:16325   */\n      iszero\n      tag_370\n      jumpi\n        /* \"#utility.yul\":16297:16315   */\n      tag_371\n      tag_372\n      jump\t// in\n    tag_371:\n        /* \"#utility.yul\":16241:16325   */\n    tag_370:\n        /* \"#utility.yul\":16062:16331   */\n      pop\n        /* \"#utility.yul\":16011:16331   */\n      swap2\n      swap1\n      pop\n      jump\t// out\n        /* \"#utility.yul\":16337:16618   */\n    tag_338:\n        /* \"#utility.yul\":16420:16447   */\n      tag_374\n        /* \"#utility.yul\":16442:16446   */\n      dup3\n        /* \"#utility.yul\":16420:16447   */\n      tag_295\n      jump\t// in\n    tag_374:\n        /* \"#utility.yul\":16412:16418   */\n      dup2\n        /* \"#utility.yul\":16408:16448   */\n      add\n        /* \"#utility.yul\":16550:16556   */\n      dup2\n        /* \"#utility.yul\":16538:16548   */\n      dup2\n        /* \"#utility.yul\":16535:16557   */\n      lt\n        /* \"#utility.yul\":16514:16532   */\n      0xffffffffffffffff\n        /* \"#utility.yul\":16502:16512   */\n      dup3\n        /* \"#utility.yul\":16499:16533   */\n      gt\n        /* \"#utility.yul\":16496:16558   */\n      or\n        /* \"#utility.yul\":16493:16581   */\n      iszero\n      tag_375\n      jumpi\n        /* \"#utility.yul\":16561:16579   */\n      tag_376\n      tag_343\n      jump\t// in\n    tag_376:\n        /* \"#utility.yul\":16493:16581   */\n    tag_375:\n        /* \"#utility.yul\":16601:16611   */\n      dup1\n        /* \"#utility.yul\":16597:16599   */\n      0x40\n        /* \"#utility.yul\":16590:16612   */\n      mstore\n        /* \"#utility.yul\":16380:16618   */\n      pop\n        /* \"#utility.yul\":16337:16618   */\n      pop\n      pop\n      jump\t// out\n        /* \"#utility.yul\":16624:16791   */\n    tag_146:\n        /* \"#utility.yul\":16661:16664   */\n      0x00\n        /* \"#utility.yul\":16684:16706   */\n      tag_378\n        /* \"#utility.yul\":16700:16705   */\n      dup3\n        /* \"#utility.yul\":16684:16706   */\n      tag_360\n      jump\t// in\n    tag_378:\n        /* \"#utility.yul\":16675:16706   */\n      swap2\n      pop\n        /* \"#utility.yul\":16728:16732   */\n      0xff\n        /* \"#utility.yul\":16721:16726   */\n      dup3\n        /* \"#utility.yul\":16718:16733   */\n      eq\n        /* \"#utility.yul\":16715:16756   */\n      iszero\n      tag_379\n      jumpi\n        /* \"#utility.yul\":16736:16754   */\n      tag_380\n      tag_381\n      jump\t// in\n    tag_380:\n        /* \"#utility.yul\":16715:16756   */\n    tag_379:\n        /* \"#utility.yul\":16783:16784   */\n      0x01\n        /* \"#utility.yul\":16776:16781   */\n      dup3\n        /* \"#utility.yul\":16772:16785   */\n      add\n        /* \"#utility.yul\":16765:16785   */\n      swap1\n      pop\n        /* \"#utility.yul\":16624:16791   */\n      swap2\n      swap1\n      pop\n      jump\t// out\n        /* \"#utility.yul\":16797:16977   */\n    tag_381:\n        /* \"#utility.yul\":16845:16922   */\n      0x4e487b7100000000000000000000000000000000000000000000000000000000\n        /* \"#utility.yul\":16842:16843   */\n      0x00\n        /* \"#utility.yul\":16835:16923   */\n      mstore\n        /* \"#utility.yul\":16942:16946   */\n      0x11\n        /* \"#utility.yul\":16939:16940   */\n      0x04\n        /* \"#utility.yul\":16932:16947   */\n      mstore\n        /* \"#utility.yul\":16966:16970   */\n      0x24\n        /* \"#utility.yul\":16963:16964   */\n      0x00\n        /* \"#utility.yul\":16956:16971   */\n      revert\n        /* \"#utility.yul\":16983:17163   */\n    tag_372:\n        /* \"#utility.yul\":17031:17108   */\n      0x4e487b7100000000000000000000000000000000000000000000000000000000\n        /* \"#utility.yul\":17028:17029   */\n      0x00\n        /* \"#utility.yul\":17021:17109   */\n      mstore\n        /* \"#utility.yul\":17128:17132   */\n      0x22\n        /* \"#utility.yul\":17125:17126   */\n      0x04\n        /* \"#utility.yul\":17118:17133   */\n      mstore\n        /* \"#utility.yul\":17152:17156   */\n      0x24\n        /* \"#utility.yul\":17149:17150   */\n      0x00\n        /* \"#utility.yul\":17142:17157   */\n      revert\n        /* \"#utility.yul\":17169:17349   */\n    tag_142:\n        /* \"#utility.yul\":17217:17294   */\n      0x4e487b7100000000000000000000000000000000000000000000000000000000\n        /* \"#utility.yul\":17214:17215   */\n      0x00\n        /* \"#utility.yul\":17207:17295   */\n      mstore\n        /* \"#utility.yul\":17314:17318   */\n      0x32\n        /* \"#utility.yul\":17311:17312   */\n      0x04\n        /* \"#utility.yul\":17304:17319   */\n      mstore\n        /* \"#utility.yul\":17338:17342   */\n      0x24\n        /* \"#utility.yul\":17335:17336   */\n      0x00\n        /* \"#utility.yul\":17328:17343   */\n      revert\n        /* \"#utility.yul\":17355:17535   */\n    tag_343:\n        /* \"#utility.yul\":17403:17480   */\n      0x4e487b7100000000000000000000000000000000000000000000000000000000\n        /* \"#utility.yul\":17400:17401   */\n      0x00\n        /* \"#utility.yul\":17393:17481   */\n      mstore\n        /* \"#utility.yul\":17500:17504   */\n      0x41\n        /* \"#utility.yul\":17497:17498   */\n      0x04\n        /* \"#utility.yul\":17490:17505   */\n      mstore\n        /* \"#utility.yul\":17524:17528   */\n      0x24\n        /* \"#utility.yul\":17521:17522   */\n      0x00\n        /* \"#utility.yul\":17514:17529   */\n      revert\n        /* \"#utility.yul\":17541:17658   */\n    tag_200:\n        /* \"#utility.yul\":17650:17651   */\n      0x00\n        /* \"#utility.yul\":17647:17648   */\n      dup1\n        /* \"#utility.yul\":17640:17652   */\n      revert\n        /* \"#utility.yul\":17664:17781   */\n    tag_194:\n        /* \"#utility.yul\":17773:17774   */\n      0x00\n        /* \"#utility.yul\":17770:17771   */\n      dup1\n        /* \"#utility.yul\":17763:17775   */\n      revert\n        /* \"#utility.yul\":17787:17904   */\n    tag_210:\n        /* \"#utility.yul\":17896:17897   */\n      0x00\n        /* \"#utility.yul\":17893:17894   */\n      dup1\n        /* \"#utility.yul\":17886:17898   */\n      revert\n        /* \"#utility.yul\":17910:18027   */\n    tag_236:\n        /* \"#utility.yul\":18019:18020   */\n      0x00\n        /* \"#utility.yul\":18016:18017   */\n      dup1\n        /* \"#utility.yul\":18009:18021   */\n      revert\n        /* \"#utility.yul\":18033:18150   */\n    tag_229:\n        /* \"#utility.yul\":18142:18143   */\n      0x00\n        /* \"#utility.yul\":18139:18140   */\n      dup1\n        /* \"#utility.yul\":18132:18144   */\n      revert\n        /* \"#utility.yul\":18156:18258   */\n    tag_295:\n        /* \"#utility.yul\":18197:18203   */\n      0x00\n        /* \"#utility.yul\":18248:18250   */\n      0x1f\n        /* \"#utility.yul\":18244:18251   */\n      not\n        /* \"#utility.yul\":18239:18241   */\n      0x1f\n        /* \"#utility.yul\":18232:18237   */\n      dup4\n        /* \"#utility.yul\":18228:18242   */\n      add\n        /* \"#utility.yul\":18224:18252   */\n      and\n        /* \"#utility.yul\":18214:18252   */\n      swap1\n      pop\n        /* \"#utility.yul\":18156:18258   */\n      swap2\n      swap1\n      pop\n      jump\t// out\n        /* \"#utility.yul\":18264:18386   */\n    tag_216:\n        /* \"#utility.yul\":18337:18361   */\n      tag_393\n        /* \"#utility.yul\":18355:18360   */\n      dup2\n        /* \"#utility.yul\":18337:18361   */\n      tag_269\n      jump\t// in\n    tag_393:\n        /* \"#utility.yul\":18330:18335   */\n      dup2\n        /* \"#utility.yul\":18327:18362   */\n      eq\n        /* \"#utility.yul\":18317:18380   */\n      tag_394\n      jumpi\n        /* \"#utility.yul\":18376:18377   */\n      0x00\n        /* \"#utility.yul\":18373:18374   */\n      dup1\n        /* \"#utility.yul\":18366:18378   */\n      revert\n        /* \"#utility.yul\":18317:18380   */\n    tag_394:\n        /* \"#utility.yul\":18264:18386   */\n      pop\n      jump\t// out\n\n    auxdata: 0xa2646970667358221220a2a8eb7d7db72758cdbe1d8acac346d8cd25f9b2d3388714042a008d4ae07df764736f6c63430008070033\n}\n",
				"bytecode": {
					"linkReferences": {},
					"object": "608060405234801561001057600080fd5b50611c8d806100206000396000f3fe608060405234801561001057600080fd5b506004361061004c5760003560e01c80639dd9d0fd14610051578063b08026ea14610088578063ca679f1d146100a6578063fabce08f146100c2575b600080fd5b61006b6004803603810190610066919061143f565b6100cc565b60405161007f989796959493929190611890565b60405180910390f35b610090610464565b60405161009d9190611938565b60405180910390f35b6100c060048036038101906100bb919061146c565b610b12565b005b6100ca610e08565b005b60006020528060005260406000206000915090508060000160009054906101000a900473ffffffffffffffffffffffffffffffffffffffff169080600101805461011590611acd565b80601f016020809104026020016040519081016040528092919081815260200182805461014190611acd565b801561018e5780601f106101635761010080835404028352916020019161018e565b820191906000526020600020905b81548152906001019060200180831161017157829003601f168201915b5050505050908060020180546101a390611acd565b80601f01602080910402602001604051908101604052809291908181526020018280546101cf90611acd565b801561021c5780601f106101f15761010080835404028352916020019161021c565b820191906000526020600020905b8154815290600101906020018083116101ff57829003601f168201915b50505050509080600301805461023190611acd565b80601f016020809104026020016040519081016040528092919081815260200182805461025d90611acd565b80156102aa5780601f1061027f576101008083540402835291602001916102aa565b820191906000526020600020905b81548152906001019060200180831161028d57829003601f168201915b5050505050908060040180546102bf90611acd565b80601f01602080910402602001604051908101604052809291908181526020018280546102eb90611acd565b80156103385780601f1061030d57610100808354040283529160200191610338565b820191906000526020600020905b81548152906001019060200180831161031b57829003601f168201915b50505050509080600501805461034d90611acd565b80601f016020809104026020016040519081016040528092919081815260200182805461037990611acd565b80156103c65780601f1061039b576101008083540402835291602001916103c6565b820191906000526020600020905b8154815290600101906020018083116103a957829003601f168201915b5050505050908060060180546103db90611acd565b80601f016020809104026020016040519081016040528092919081815260200182805461040790611acd565b80156104545780601f1061042957610100808354040283529160200191610454565b820191906000526020600020905b81548152906001019060200180831161043757829003601f168201915b5050505050908060070154905088565b61046c611166565b6000803373ffffffffffffffffffffffffffffffffffffffff1673ffffffffffffffffffffffffffffffffffffffff168152602001908152602001600020604051806101600160405290816000820160009054906101000a900473ffffffffffffffffffffffffffffffffffffffff1673ffffffffffffffffffffffffffffffffffffffff1673ffffffffffffffffffffffffffffffffffffffff16815260200160018201805461051c90611acd565b80601f016020809104026020016040519081016040528092919081815260200182805461054890611acd565b80156105955780601f1061056a57610100808354040283529160200191610595565b820191906000526020600020905b81548152906001019060200180831161057857829003601f168201915b505050505081526020016002820180546105ae90611acd565b80601f01602080910402602001604051908101604052809291908181526020018280546105da90611acd565b80156106275780601f106105fc57610100808354040283529160200191610627565b820191906000526020600020905b81548152906001019060200180831161060a57829003601f168201915b5050505050815260200160038201805461064090611acd565b80601f016020809104026020016040519081016040528092919081815260200182805461066c90611acd565b80156106b95780601f1061068e576101008083540402835291602001916106b9565b820191906000526020600020905b81548152906001019060200180831161069c57829003601f168201915b505050505081526020016004820180546106d290611acd565b80601f01602080910402602001604051908101604052809291908181526020018280546106fe90611acd565b801561074b5780601f106107205761010080835404028352916020019161074b565b820191906000526020600020905b81548152906001019060200180831161072e57829003601f168201915b5050505050815260200160058201805461076490611acd565b80601f016020809104026020016040519081016040528092919081815260200182805461079090611acd565b80156107dd5780601f106107b2576101008083540402835291602001916107dd565b820191906000526020600020905b8154815290600101906020018083116107c057829003601f168201915b505050505081526020016006820180546107f690611acd565b80601f016020809104026020016040519081016040528092919081815260200182805461082290611acd565b801561086f5780601f106108445761010080835404028352916020019161086f565b820191906000526020600020905b81548152906001019060200180831161085257829003601f168201915b505050505081526020016007820154815260200160088201805480602002602001604051908101604052809291908181526020016000905b828210156109535783829060005260206000200180546108c690611acd565b80601f01602080910402602001604051908101604052809291908181526020018280546108f290611acd565b801561093f5780601f106109145761010080835404028352916020019161093f565b820191906000526020600020905b81548152906001019060200180831161092257829003601f168201915b5050505050815260200190600101906108a7565b50505050815260200160098201805480602002602001604051908101604052809291908181526020016000905b82821015610a2c57838290600052602060002001805461099f90611acd565b80601f01602080910402602001604051908101604052809291908181526020018280546109cb90611acd565b8015610a185780601f106109ed57610100808354040283529160200191610a18565b820191906000526020600020905b8154815290600101906020018083116109fb57829003601f168201915b505050505081526020019060010190610980565b505050508152602001600a8201805480602002602001604051908101604052809291908181526020016000905b82821015610b05578382906000526020600020018054610a7890611acd565b80601f0160208091040260200160405190810160405280929190818152602001828054610aa490611acd565b8015610af15780601f10610ac657610100808354040283529160200191610af1565b820191906000526020600020905b815481529060010190602001808311610ad457829003601f168201915b505050505081526020019060010190610a59565b5050505081525050905090565b886000803373ffffffffffffffffffffffffffffffffffffffff1673ffffffffffffffffffffffffffffffffffffffff1681526020019081526020016000206001019080519060200190610b679291906111d6565b50876000803373ffffffffffffffffffffffffffffffffffffffff1673ffffffffffffffffffffffffffffffffffffffff1681526020019081526020016000206002019080519060200190610bbd9291906111d6565b50866000803373ffffffffffffffffffffffffffffffffffffffff1673ffffffffffffffffffffffffffffffffffffffff1681526020019081526020016000206003019080519060200190610c139291906111d6565b50856000803373ffffffffffffffffffffffffffffffffffffffff1673ffffffffffffffffffffffffffffffffffffffff1681526020019081526020016000206004019080519060200190610c699291906111d6565b50846000803373ffffffffffffffffffffffffffffffffffffffff1673ffffffffffffffffffffffffffffffffffffffff1681526020019081526020016000206005019080519060200190610cbf9291906111d6565b50836000803373ffffffffffffffffffffffffffffffffffffffff1673ffffffffffffffffffffffffffffffffffffffff1681526020019081526020016000206006019080519060200190610d159291906111d6565b50336000803373ffffffffffffffffffffffffffffffffffffffff1673ffffffffffffffffffffffffffffffffffffffff16815260200190815260200160002060000160006101000a81548173ffffffffffffffffffffffffffffffffffffffff021916908373ffffffffffffffffffffffffffffffffffffffff160217905550426000803373ffffffffffffffffffffffffffffffffffffffff1673ffffffffffffffffffffffffffffffffffffffff16815260200190815260200160002060070181905550610de7836000610f0a565b610df2826001610f0a565b610dfd816002610f0a565b505050505050505050565b6000803373ffffffffffffffffffffffffffffffffffffffff1673ffffffffffffffffffffffffffffffffffffffff168152602001908152602001600020600080820160006101000a81549073ffffffffffffffffffffffffffffffffffffffff0219169055600182016000610e7e919061125c565b600282016000610e8e919061125c565b600382016000610e9e919061125c565b600482016000610eae919061125c565b600582016000610ebe919061125c565b600682016000610ece919061125c565b6007820160009055600882016000610ee6919061129c565b600982016000610ef6919061129c565b600a82016000610f06919061129c565b5050565b60008160ff161415610fd25760005b82518160ff161015610fd0576000803373ffffffffffffffffffffffffffffffffffffffff1673ffffffffffffffffffffffffffffffffffffffff168152602001908152602001600020600801838260ff1681518110610f7c57610f7b611bb8565b5b6020026020010151908060018154018082558091505060019003906000526020600020016000909190919091509080519060200190610fbc9291906111d6565b508080610fc890611b30565b915050610f19565b505b60018160ff16141561109a5760005b82518160ff161015611098576000803373ffffffffffffffffffffffffffffffffffffffff1673ffffffffffffffffffffffffffffffffffffffff168152602001908152602001600020600901838260ff168151811061104457611043611bb8565b5b60200260200101519080600181540180825580915050600190039060005260206000200160009091909190915090805190602001906110849291906111d6565b50808061109090611b30565b915050610fe1565b505b60028160ff1614156111625760005b82518160ff161015611160576000803373ffffffffffffffffffffffffffffffffffffffff1673ffffffffffffffffffffffffffffffffffffffff168152602001908152602001600020600a01838260ff168151811061110c5761110b611bb8565b5b602002602001015190806001815401808255809150506001900390600052602060002001600090919091909150908051906020019061114c9291906111d6565b50808061115890611b30565b9150506110a9565b505b5050565b604051806101600160405280600073ffffffffffffffffffffffffffffffffffffffff168152602001606081526020016060815260200160608152602001606081526020016060815260200160608152602001600081526020016060815260200160608152602001606081525090565b8280546111e290611acd565b90600052602060002090601f016020900481019282611204576000855561124b565b82601f1061121d57805160ff191683800117855561124b565b8280016001018555821561124b579182015b8281111561124a57825182559160200191906001019061122f565b5b50905061125891906112bd565b5090565b50805461126890611acd565b6000825580601f1061127a5750611299565b601f01602090049060005260206000209081019061129891906112bd565b5b50565b50805460008255906000526020600020908101906112ba91906112da565b50565b5b808211156112d65760008160009055506001016112be565b5090565b5b808211156112fa57600081816112f1919061125c565b506001016112db565b5090565b600061131161130c8461197f565b61195a565b9050808382526020820190508285602086028201111561133457611333611c1b565b5b60005b8581101561138257813567ffffffffffffffff81111561135a57611359611c16565b5b8086016113678982611411565b85526020850194506020840193505050600181019050611337565b5050509392505050565b600061139f61139a846119ab565b61195a565b9050828152602081018484840111156113bb576113ba611c20565b5b6113c6848285611a8b565b509392505050565b6000813590506113dd81611c40565b92915050565b600082601f8301126113f8576113f7611c16565b5b81356114088482602086016112fe565b91505092915050565b600082601f83011261142657611425611c16565b5b813561143684826020860161138c565b91505092915050565b60006020828403121561145557611454611c2a565b5b6000611463848285016113ce565b91505092915050565b60008060008060008060008060006101208a8c03121561148f5761148e611c2a565b5b60008a013567ffffffffffffffff8111156114ad576114ac611c25565b5b6114b98c828d01611411565b99505060208a013567ffffffffffffffff8111156114da576114d9611c25565b5b6114e68c828d01611411565b98505060408a013567ffffffffffffffff81111561150757611506611c25565b5b6115138c828d01611411565b97505060608a013567ffffffffffffffff81111561153457611533611c25565b5b6115408c828d01611411565b96505060808a013567ffffffffffffffff81111561156157611560611c25565b5b61156d8c828d01611411565b95505060a08a013567ffffffffffffffff81111561158e5761158d611c25565b5b61159a8c828d01611411565b94505060c08a013567ffffffffffffffff8111156115bb576115ba611c25565b5b6115c78c828d016113e3565b93505060e08a013567ffffffffffffffff8111156115e8576115e7611c25565b5b6115f48c828d016113e3565b9250506101008a013567ffffffffffffffff81111561161657611615611c25565b5b6116228c828d016113e3565b9150509295985092959850929598565b600061163e83836116d9565b905092915050565b61164f81611a42565b82525050565b61165e81611a42565b82525050565b600061166f826119ec565b6116798185611a0f565b93508360208202850161168b856119dc565b8060005b858110156116c757848403895281516116a88582611632565b94506116b383611a02565b925060208a0199505060018101905061168f565b50829750879550505050505092915050565b60006116e4826119f7565b6116ee8185611a20565b93506116fe818560208601611a9a565b61170781611c2f565b840191505092915050565b600061171d826119f7565b6117278185611a31565b9350611737818560208601611a9a565b61174081611c2f565b840191505092915050565b6000610160830160008301516117646000860182611646565b506020830151848203602086015261177c82826116d9565b9150506040830151848203604086015261179682826116d9565b915050606083015184820360608601526117b082826116d9565b915050608083015184820360808601526117ca82826116d9565b91505060a083015184820360a08601526117e482826116d9565b91505060c083015184820360c08601526117fe82826116d9565b91505060e083015161181360e0860182611872565b5061010083015184820361010086015261182d8282611664565b9150506101208301518482036101208601526118498282611664565b9150506101408301518482036101408601526118658282611664565b9150508091505092915050565b61187b81611a74565b82525050565b61188a81611a74565b82525050565b6000610100820190506118a6600083018b611655565b81810360208301526118b8818a611712565b905081810360408301526118cc8189611712565b905081810360608301526118e08188611712565b905081810360808301526118f48187611712565b905081810360a08301526119088186611712565b905081810360c083015261191c8185611712565b905061192b60e0830184611881565b9998505050505050505050565b60006020820190508181036000830152611952818461174b565b905092915050565b6000611964611975565b90506119708282611aff565b919050565b6000604051905090565b600067ffffffffffffffff82111561199a57611999611be7565b5b602082029050602081019050919050565b600067ffffffffffffffff8211156119c6576119c5611be7565b5b6119cf82611c2f565b9050602081019050919050565b6000819050602082019050919050565b600081519050919050565b600081519050919050565b6000602082019050919050565b600082825260208201905092915050565b600082825260208201905092915050565b600082825260208201905092915050565b6000611a4d82611a54565b9050919050565b600073ffffffffffffffffffffffffffffffffffffffff82169050919050565b6000819050919050565b600060ff82169050919050565b82818337600083830152505050565b60005b83811015611ab8578082015181840152602081019050611a9d565b83811115611ac7576000848401525b50505050565b60006002820490506001821680611ae557607f821691505b60208210811415611af957611af8611b89565b5b50919050565b611b0882611c2f565b810181811067ffffffffffffffff82111715611b2757611b26611be7565b5b80604052505050565b6000611b3b82611a7e565b915060ff821415611b4f57611b4e611b5a565b5b600182019050919050565b7f4e487b7100000000000000000000000000000000000000000000000000000000600052601160045260246000fd5b7f4e487b7100000000000000000000000000000000000000000000000000000000600052602260045260246000fd5b7f4e487b7100000000000000000000000000000000000000000000000000000000600052603260045260246000fd5b7f4e487b7100000000000000000000000000000000000000000000000000000000600052604160045260246000fd5b600080fd5b600080fd5b600080fd5b600080fd5b600080fd5b6000601f19601f8301169050919050565b611c4981611a42565b8114611c5457600080fd5b5056fea2646970667358221220a2a8eb7d7db72758cdbe1d8acac346d8cd25f9b2d3388714042a008d4ae07df764736f6c63430008070033",
					"opcodes": "PUSH1 0x80 PUSH1 0x40 MSTORE CALLVALUE DUP1 ISZERO PUSH2 0x10 JUMPI PUSH1 0x0 DUP1 REVERT JUMPDEST POP PUSH2 0x1C8D DUP1 PUSH2 0x20 PUSH1 0x0 CODECOPY PUSH1 0x0 RETURN INVALID PUSH1 0x80 PUSH1 0x40 MSTORE CALLVALUE DUP1 ISZERO PUSH2 0x10 JUMPI PUSH1 0x0 DUP1 REVERT JUMPDEST POP PUSH1 0x4 CALLDATASIZE LT PUSH2 0x4C JUMPI PUSH1 0x0 CALLDATALOAD PUSH1 0xE0 SHR DUP1 PUSH4 0x9DD9D0FD EQ PUSH2 0x51 JUMPI DUP1 PUSH4 0xB08026EA EQ PUSH2 0x88 JUMPI DUP1 PUSH4 0xCA679F1D EQ PUSH2 0xA6 JUMPI DUP1 PUSH4 0xFABCE08F EQ PUSH2 0xC2 JUMPI JUMPDEST PUSH1 0x0 DUP1 REVERT JUMPDEST PUSH2 0x6B PUSH1 0x4 DUP1 CALLDATASIZE SUB DUP2 ADD SWAP1 PUSH2 0x66 SWAP2 SWAP1 PUSH2 0x143F JUMP JUMPDEST PUSH2 0xCC JUMP JUMPDEST PUSH1 0x40 MLOAD PUSH2 0x7F SWAP9 SWAP8 SWAP7 SWAP6 SWAP5 SWAP4 SWAP3 SWAP2 SWAP1 PUSH2 0x1890 JUMP JUMPDEST PUSH1 0x40 MLOAD DUP1 SWAP2 SUB SWAP1 RETURN JUMPDEST PUSH2 0x90 PUSH2 0x464 JUMP JUMPDEST PUSH1 0x40 MLOAD PUSH2 0x9D SWAP2 SWAP1 PUSH2 0x1938 JUMP JUMPDEST PUSH1 0x40 MLOAD DUP1 SWAP2 SUB SWAP1 RETURN JUMPDEST PUSH2 0xC0 PUSH1 0x4 DUP1 CALLDATASIZE SUB DUP2 ADD SWAP1 PUSH2 0xBB SWAP2 SWAP1 PUSH2 0x146C JUMP JUMPDEST PUSH2 0xB12 JUMP JUMPDEST STOP JUMPDEST PUSH2 0xCA PUSH2 0xE08 JUMP JUMPDEST STOP JUMPDEST PUSH1 0x0 PUSH1 0x20 MSTORE DUP1 PUSH1 0x0 MSTORE PUSH1 0x40 PUSH1 0x0 KECCAK256 PUSH1 0x0 SWAP2 POP SWAP1 POP DUP1 PUSH1 0x0 ADD PUSH1 0x0 SWAP1 SLOAD SWAP1 PUSH2 0x100 EXP SWAP1 DIV PUSH20 0xFFFFFFFFFFFFFFFFFFFFFFFFFFFFFFFFFFFFFFFF AND SWAP1 DUP1 PUSH1 0x1 ADD DUP1 SLOAD PUSH2 0x115 SWAP1 PUSH2 0x1ACD JUMP JUMPDEST DUP1 PUSH1 0x1F ADD PUSH1 0x20 DUP1 SWAP2 DIV MUL PUSH1 0x20 ADD PUSH1 0x40 MLOAD SWAP1 DUP2 ADD PUSH1 0x40 MSTORE DUP1 SWAP3 SWAP2 SWAP1 DUP2 DUP2 MSTORE PUSH1 0x20 ADD DUP3 DUP1 SLOAD PUSH2 0x141 SWAP1 PUSH2 0x1ACD JUMP JUMPDEST DUP1 ISZERO PUSH2 0x18E JUMPI DUP1 PUSH1 0x1F LT PUSH2 0x163 JUMPI PUSH2 0x100 DUP1 DUP4 SLOAD DIV MUL DUP4 MSTORE SWAP2 PUSH1 0x20 ADD SWAP2 PUSH2 0x18E JUMP JUMPDEST DUP3 ADD SWAP2 SWAP1 PUSH1 0x0 MSTORE PUSH1 0x20 PUSH1 0x0 KECCAK256 SWAP1 JUMPDEST DUP2 SLOAD DUP2 MSTORE SWAP1 PUSH1 0x1 ADD SWAP1 PUSH1 0x20 ADD DUP1 DUP4 GT PUSH2 0x171 JUMPI DUP3 SWAP1 SUB PUSH1 0x1F AND DUP3 ADD SWAP2 JUMPDEST POP POP POP POP POP SWAP1 DUP1 PUSH1 0x2 ADD DUP1 SLOAD PUSH2 0x1A3 SWAP1 PUSH2 0x1ACD JUMP JUMPDEST DUP1 PUSH1 0x1F ADD PUSH1 0x20 DUP1 SWAP2 DIV MUL PUSH1 0x20 ADD PUSH1 0x40 MLOAD SWAP1 DUP2 ADD PUSH1 0x40 MSTORE DUP1 SWAP3 SWAP2 SWAP1 DUP2 DUP2 MSTORE PUSH1 0x20 ADD DUP3 DUP1 SLOAD PUSH2 0x1CF SWAP1 PUSH2 0x1ACD JUMP JUMPDEST DUP1 ISZERO PUSH2 0x21C JUMPI DUP1 PUSH1 0x1F LT PUSH2 0x1F1 JUMPI PUSH2 0x100 DUP1 DUP4 SLOAD DIV MUL DUP4 MSTORE SWAP2 PUSH1 0x20 ADD SWAP2 PUSH2 0x21C JUMP JUMPDEST DUP3 ADD SWAP2 SWAP1 PUSH1 0x0 MSTORE PUSH1 0x20 PUSH1 0x0 KECCAK256 SWAP1 JUMPDEST DUP2 SLOAD DUP2 MSTORE SWAP1 PUSH1 0x1 ADD SWAP1 PUSH1 0x20 ADD DUP1 DUP4 GT PUSH2 0x1FF JUMPI DUP3 SWAP1 SUB PUSH1 0x1F AND DUP3 ADD SWAP2 JUMPDEST POP POP POP POP POP SWAP1 DUP1 PUSH1 0x3 ADD DUP1 SLOAD PUSH2 0x231 SWAP1 PUSH2 0x1ACD JUMP JUMPDEST DUP1 PUSH1 0x1F ADD PUSH1 0x20 DUP1 SWAP2 DIV MUL PUSH1 0x20 ADD PUSH1 0x40 MLOAD SWAP1 DUP2 ADD PUSH1 0x40 MSTORE DUP1 SWAP3 SWAP2 SWAP1 DUP2 DUP2 MSTORE PUSH1 0x20 ADD DUP3 DUP1 SLOAD PUSH2 0x25D SWAP1 PUSH2 0x1ACD JUMP JUMPDEST DUP1 ISZERO PUSH2 0x2AA JUMPI DUP1 PUSH1 0x1F LT PUSH2 0x27F JUMPI PUSH2 0x100 DUP1 DUP4 SLOAD DIV MUL DUP4 MSTORE SWAP2 PUSH1 0x20 ADD SWAP2 PUSH2 0x2AA JUMP JUMPDEST DUP3 ADD SWAP2 SWAP1 PUSH1 0x0 MSTORE PUSH1 0x20 PUSH1 0x0 KECCAK256 SWAP1 JUMPDEST DUP2 SLOAD DUP2 MSTORE SWAP1 PUSH1 0x1 ADD SWAP1 PUSH1 0x20 ADD DUP1 DUP4 GT PUSH2 0x28D JUMPI DUP3 SWAP1 SUB PUSH1 0x1F AND DUP3 ADD SWAP2 JUMPDEST POP POP POP POP POP SWAP1 DUP1 PUSH1 0x4 ADD DUP1 SLOAD PUSH2 0x2BF SWAP1 PUSH2 0x1ACD JUMP JUMPDEST DUP1 PUSH1 0x1F ADD PUSH1 0x20 DUP1 SWAP2 DIV MUL PUSH1 0x20 ADD PUSH1 0x40 MLOAD SWAP1 DUP2 ADD PUSH1 0x40 MSTORE DUP1 SWAP3 SWAP2 SWAP1 DUP2 DUP2 MSTORE PUSH1 0x20 ADD DUP3 DUP1 SLOAD PUSH2 0x2EB SWAP1 PUSH2 0x1ACD JUMP JUMPDEST DUP1 ISZERO PUSH2 0x338 JUMPI DUP1 PUSH1 0x1F LT PUSH2 0x30D JUMPI PUSH2 0x100 DUP1 DUP4 SLOAD DIV MUL DUP4 MSTORE SWAP2 PUSH1 0x20 ADD SWAP2 PUSH2 0x338 JUMP JUMPDEST DUP3 ADD SWAP2 SWAP1 PUSH1 0x0 MSTORE PUSH1 0x20 PUSH1 0x0 KECCAK256 SWAP1 JUMPDEST DUP2 SLOAD DUP2 MSTORE SWAP1 PUSH1 0x1 ADD SWAP1 PUSH1 0x20 ADD DUP1 DUP4 GT PUSH2 0x31B JUMPI DUP3 SWAP1 SUB PUSH1 0x1F AND DUP3 ADD SWAP2 JUMPDEST POP POP POP POP POP SWAP1 DUP1 PUSH1 0x5 ADD DUP1 SLOAD PUSH2 0x34D SWAP1 PUSH2 0x1ACD JUMP JUMPDEST DUP1 PUSH1 0x1F ADD PUSH1 0x20 DUP1 SWAP2 DIV MUL PUSH1 0x20 ADD PUSH1 0x40 MLOAD SWAP1 DUP2 ADD PUSH1 0x40 MSTORE DUP1 SWAP3 SWAP2 SWAP1 DUP2 DUP2 MSTORE PUSH1 0x20 ADD DUP3 DUP1 SLOAD PUSH2 0x379 SWAP1 PUSH2 0x1ACD JUMP JUMPDEST DUP1 ISZERO PUSH2 0x3C6 JUMPI DUP1 PUSH1 0x1F LT PUSH2 0x39B JUMPI PUSH2 0x100 DUP1 DUP4 SLOAD DIV MUL DUP4 MSTORE SWAP2 PUSH1 0x20 ADD SWAP2 PUSH2 0x3C6 JUMP JUMPDEST DUP3 ADD SWAP2 SWAP1 PUSH1 0x0 MSTORE PUSH1 0x20 PUSH1 0x0 KECCAK256 SWAP1 JUMPDEST DUP2 SLOAD DUP2 MSTORE SWAP1 PUSH1 0x1 ADD SWAP1 PUSH1 0x20 ADD DUP1 DUP4 GT PUSH2 0x3A9 JUMPI DUP3 SWAP1 SUB PUSH1 0x1F AND DUP3 ADD SWAP2 JUMPDEST POP POP POP POP POP SWAP1 DUP1 PUSH1 0x6 ADD DUP1 SLOAD PUSH2 0x3DB SWAP1 PUSH2 0x1ACD JUMP JUMPDEST DUP1 PUSH1 0x1F ADD PUSH1 0x20 DUP1 SWAP2 DIV MUL PUSH1 0x20 ADD PUSH1 0x40 MLOAD SWAP1 DUP2 ADD PUSH1 0x40 MSTORE DUP1 SWAP3 SWAP2 SWAP1 DUP2 DUP2 MSTORE PUSH1 0x20 ADD DUP3 DUP1 SLOAD PUSH2 0x407 SWAP1 PUSH2 0x1ACD JUMP JUMPDEST DUP1 ISZERO PUSH2 0x454 JUMPI DUP1 PUSH1 0x1F LT PUSH2 0x429 JUMPI PUSH2 0x100 DUP1 DUP4 SLOAD DIV MUL DUP4 MSTORE SWAP2 PUSH1 0x20 ADD SWAP2 PUSH2 0x454 JUMP JUMPDEST DUP3 ADD SWAP2 SWAP1 PUSH1 0x0 MSTORE PUSH1 0x20 PUSH1 0x0 KECCAK256 SWAP1 JUMPDEST DUP2 SLOAD DUP2 MSTORE SWAP1 PUSH1 0x1 ADD SWAP1 PUSH1 0x20 ADD DUP1 DUP4 GT PUSH2 0x437 JUMPI DUP3 SWAP1 SUB PUSH1 0x1F AND DUP3 ADD SWAP2 JUMPDEST POP POP POP POP POP SWAP1 DUP1 PUSH1 0x7 ADD SLOAD SWAP1 POP DUP9 JUMP JUMPDEST PUSH2 0x46C PUSH2 0x1166 JUMP JUMPDEST PUSH1 0x0 DUP1 CALLER PUSH20 0xFFFFFFFFFFFFFFFFFFFFFFFFFFFFFFFFFFFFFFFF AND PUSH20 0xFFFFFFFFFFFFFFFFFFFFFFFFFFFFFFFFFFFFFFFF AND DUP2 MSTORE PUSH1 0x20 ADD SWAP1 DUP2 MSTORE PUSH1 0x20 ADD PUSH1 0x0 KECCAK256 PUSH1 0x40 MLOAD DUP1 PUSH2 0x160 ADD PUSH1 0x40 MSTORE SWAP1 DUP2 PUSH1 0x0 DUP3 ADD PUSH1 0x0 SWAP1 SLOAD SWAP1 PUSH2 0x100 EXP SWAP1 DIV PUSH20 0xFFFFFFFFFFFFFFFFFFFFFFFFFFFFFFFFFFFFFFFF AND PUSH20 0xFFFFFFFFFFFFFFFFFFFFFFFFFFFFFFFFFFFFFFFF AND PUSH20 0xFFFFFFFFFFFFFFFFFFFFFFFFFFFFFFFFFFFFFFFF AND DUP2 MSTORE PUSH1 0x20 ADD PUSH1 0x1 DUP3 ADD DUP1 SLOAD PUSH2 0x51C SWAP1 PUSH2 0x1ACD JUMP JUMPDEST DUP1 PUSH1 0x1F ADD PUSH1 0x20 DUP1 SWAP2 DIV MUL PUSH1 0x20 ADD PUSH1 0x40 MLOAD SWAP1 DUP2 ADD PUSH1 0x40 MSTORE DUP1 SWAP3 SWAP2 SWAP1 DUP2 DUP2 MSTORE PUSH1 0x20 ADD DUP3 DUP1 SLOAD PUSH2 0x548 SWAP1 PUSH2 0x1ACD JUMP JUMPDEST DUP1 ISZERO PUSH2 0x595 JUMPI DUP1 PUSH1 0x1F LT PUSH2 0x56A JUMPI PUSH2 0x100 DUP1 DUP4 SLOAD DIV MUL DUP4 MSTORE SWAP2 PUSH1 0x20 ADD SWAP2 PUSH2 0x595 JUMP JUMPDEST DUP3 ADD SWAP2 SWAP1 PUSH1 0x0 MSTORE PUSH1 0x20 PUSH1 0x0 KECCAK256 SWAP1 JUMPDEST DUP2 SLOAD DUP2 MSTORE SWAP1 PUSH1 0x1 ADD SWAP1 PUSH1 0x20 ADD DUP1 DUP4 GT PUSH2 0x578 JUMPI DUP3 SWAP1 SUB PUSH1 0x1F AND DUP3 ADD SWAP2 JUMPDEST POP POP POP POP POP DUP2 MSTORE PUSH1 0x20 ADD PUSH1 0x2 DUP3 ADD DUP1 SLOAD PUSH2 0x5AE SWAP1 PUSH2 0x1ACD JUMP JUMPDEST DUP1 PUSH1 0x1F ADD PUSH1 0x20 DUP1 SWAP2 DIV MUL PUSH1 0x20 ADD PUSH1 0x40 MLOAD SWAP1 DUP2 ADD PUSH1 0x40 MSTORE DUP1 SWAP3 SWAP2 SWAP1 DUP2 DUP2 MSTORE PUSH1 0x20 ADD DUP3 DUP1 SLOAD PUSH2 0x5DA SWAP1 PUSH2 0x1ACD JUMP JUMPDEST DUP1 ISZERO PUSH2 0x627 JUMPI DUP1 PUSH1 0x1F LT PUSH2 0x5FC JUMPI PUSH2 0x100 DUP1 DUP4 SLOAD DIV MUL DUP4 MSTORE SWAP2 PUSH1 0x20 ADD SWAP2 PUSH2 0x627 JUMP JUMPDEST DUP3 ADD SWAP2 SWAP1 PUSH1 0x0 MSTORE PUSH1 0x20 PUSH1 0x0 KECCAK256 SWAP1 JUMPDEST DUP2 SLOAD DUP2 MSTORE SWAP1 PUSH1 0x1 ADD SWAP1 PUSH1 0x20 ADD DUP1 DUP4 GT PUSH2 0x60A JUMPI DUP3 SWAP1 SUB PUSH1 0x1F AND DUP3 ADD SWAP2 JUMPDEST POP POP POP POP POP DUP2 MSTORE PUSH1 0x20 ADD PUSH1 0x3 DUP3 ADD DUP1 SLOAD PUSH2 0x640 SWAP1 PUSH2 0x1ACD JUMP JUMPDEST DUP1 PUSH1 0x1F ADD PUSH1 0x20 DUP1 SWAP2 DIV MUL PUSH1 0x20 ADD PUSH1 0x40 MLOAD SWAP1 DUP2 ADD PUSH1 0x40 MSTORE DUP1 SWAP3 SWAP2 SWAP1 DUP2 DUP2 MSTORE PUSH1 0x20 ADD DUP3 DUP1 SLOAD PUSH2 0x66C SWAP1 PUSH2 0x1ACD JUMP JUMPDEST DUP1 ISZERO PUSH2 0x6B9 JUMPI DUP1 PUSH1 0x1F LT PUSH2 0x68E JUMPI PUSH2 0x100 DUP1 DUP4 SLOAD DIV MUL DUP4 MSTORE SWAP2 PUSH1 0x20 ADD SWAP2 PUSH2 0x6B9 JUMP JUMPDEST DUP3 ADD SWAP2 SWAP1 PUSH1 0x0 MSTORE PUSH1 0x20 PUSH1 0x0 KECCAK256 SWAP1 JUMPDEST DUP2 SLOAD DUP2 MSTORE SWAP1 PUSH1 0x1 ADD SWAP1 PUSH1 0x20 ADD DUP1 DUP4 GT PUSH2 0x69C JUMPI DUP3 SWAP1 SUB PUSH1 0x1F AND DUP3 ADD SWAP2 JUMPDEST POP POP POP POP POP DUP2 MSTORE PUSH1 0x20 ADD PUSH1 0x4 DUP3 ADD DUP1 SLOAD PUSH2 0x6D2 SWAP1 PUSH2 0x1ACD JUMP JUMPDEST DUP1 PUSH1 0x1F ADD PUSH1 0x20 DUP1 SWAP2 DIV MUL PUSH1 0x20 ADD PUSH1 0x40 MLOAD SWAP1 DUP2 ADD PUSH1 0x40 MSTORE DUP1 SWAP3 SWAP2 SWAP1 DUP2 DUP2 MSTORE PUSH1 0x20 ADD DUP3 DUP1 SLOAD PUSH2 0x6FE SWAP1 PUSH2 0x1ACD JUMP JUMPDEST DUP1 ISZERO PUSH2 0x74B JUMPI DUP1 PUSH1 0x1F LT PUSH2 0x720 JUMPI PUSH2 0x100 DUP1 DUP4 SLOAD DIV MUL DUP4 MSTORE SWAP2 PUSH1 0x20 ADD SWAP2 PUSH2 0x74B JUMP JUMPDEST DUP3 ADD SWAP2 SWAP1 PUSH1 0x0 MSTORE PUSH1 0x20 PUSH1 0x0 KECCAK256 SWAP1 JUMPDEST DUP2 SLOAD DUP2 MSTORE SWAP1 PUSH1 0x1 ADD SWAP1 PUSH1 0x20 ADD DUP1 DUP4 GT PUSH2 0x72E JUMPI DUP3 SWAP1 SUB PUSH1 0x1F AND DUP3 ADD SWAP2 JUMPDEST POP POP POP POP POP DUP2 MSTORE PUSH1 0x20 ADD PUSH1 0x5 DUP3 ADD DUP1 SLOAD PUSH2 0x764 SWAP1 PUSH2 0x1ACD JUMP JUMPDEST DUP1 PUSH1 0x1F ADD PUSH1 0x20 DUP1 SWAP2 DIV MUL PUSH1 0x20 ADD PUSH1 0x40 MLOAD SWAP1 DUP2 ADD PUSH1 0x40 MSTORE DUP1 SWAP3 SWAP2 SWAP1 DUP2 DUP2 MSTORE PUSH1 0x20 ADD DUP3 DUP1 SLOAD PUSH2 0x790 SWAP1 PUSH2 0x1ACD JUMP JUMPDEST DUP1 ISZERO PUSH2 0x7DD JUMPI DUP1 PUSH1 0x1F LT PUSH2 0x7B2 JUMPI PUSH2 0x100 DUP1 DUP4 SLOAD DIV MUL DUP4 MSTORE SWAP2 PUSH1 0x20 ADD SWAP2 PUSH2 0x7DD JUMP JUMPDEST DUP3 ADD SWAP2 SWAP1 PUSH1 0x0 MSTORE PUSH1 0x20 PUSH1 0x0 KECCAK256 SWAP1 JUMPDEST DUP2 SLOAD DUP2 MSTORE SWAP1 PUSH1 0x1 ADD SWAP1 PUSH1 0x20 ADD DUP1 DUP4 GT PUSH2 0x7C0 JUMPI DUP3 SWAP1 SUB PUSH1 0x1F AND DUP3 ADD SWAP2 JUMPDEST POP POP POP POP POP DUP2 MSTORE PUSH1 0x20 ADD PUSH1 0x6 DUP3 ADD DUP1 SLOAD PUSH2 0x7F6 SWAP1 PUSH2 0x1ACD JUMP JUMPDEST DUP1 PUSH1 0x1F ADD PUSH1 0x20 DUP1 SWAP2 DIV MUL PUSH1 0x20 ADD PUSH1 0x40 MLOAD SWAP1 DUP2 ADD PUSH1 0x40 MSTORE DUP1 SWAP3 SWAP2 SWAP1 DUP2 DUP2 MSTORE PUSH1 0x20 ADD DUP3 DUP1 SLOAD PUSH2 0x822 SWAP1 PUSH2 0x1ACD JUMP JUMPDEST DUP1 ISZERO PUSH2 0x86F JUMPI DUP1 PUSH1 0x1F LT PUSH2 0x844 JUMPI PUSH2 0x100 DUP1 DUP4 SLOAD DIV MUL DUP4 MSTORE SWAP2 PUSH1 0x20 ADD SWAP2 PUSH2 0x86F JUMP JUMPDEST DUP3 ADD SWAP2 SWAP1 PUSH1 0x0 MSTORE PUSH1 0x20 PUSH1 0x0 KECCAK256 SWAP1 JUMPDEST DUP2 SLOAD DUP2 MSTORE SWAP1 PUSH1 0x1 ADD SWAP1 PUSH1 0x20 ADD DUP1 DUP4 GT PUSH2 0x852 JUMPI DUP3 SWAP1 SUB PUSH1 0x1F AND DUP3 ADD SWAP2 JUMPDEST POP POP POP POP POP DUP2 MSTORE PUSH1 0x20 ADD PUSH1 0x7 DUP3 ADD SLOAD DUP2 MSTORE PUSH1 0x20 ADD PUSH1 0x8 DUP3 ADD DUP1 SLOAD DUP1 PUSH1 0x20 MUL PUSH1 0x20 ADD PUSH1 0x40 MLOAD SWAP1 DUP2 ADD PUSH1 0x40 MSTORE DUP1 SWAP3 SWAP2 SWAP1 DUP2 DUP2 MSTORE PUSH1 0x20 ADD PUSH1 0x0 SWAP1 JUMPDEST DUP3 DUP3 LT ISZERO PUSH2 0x953 JUMPI DUP4 DUP3 SWAP1 PUSH1 0x0 MSTORE PUSH1 0x20 PUSH1 0x0 KECCAK256 ADD DUP1 SLOAD PUSH2 0x8C6 SWAP1 PUSH2 0x1ACD JUMP JUMPDEST DUP1 PUSH1 0x1F ADD PUSH1 0x20 DUP1 SWAP2 DIV MUL PUSH1 0x20 ADD PUSH1 0x40 MLOAD SWAP1 DUP2 ADD PUSH1 0x40 MSTORE DUP1 SWAP3 SWAP2 SWAP1 DUP2 DUP2 MSTORE PUSH1 0x20 ADD DUP3 DUP1 SLOAD PUSH2 0x8F2 SWAP1 PUSH2 0x1ACD JUMP JUMPDEST DUP1 ISZERO PUSH2 0x93F JUMPI DUP1 PUSH1 0x1F LT PUSH2 0x914 JUMPI PUSH2 0x100 DUP1 DUP4 SLOAD DIV MUL DUP4 MSTORE SWAP2 PUSH1 0x20 ADD SWAP2 PUSH2 0x93F JUMP JUMPDEST DUP3 ADD SWAP2 SWAP1 PUSH1 0x0 MSTORE PUSH1 0x20 PUSH1 0x0 KECCAK256 SWAP1 JUMPDEST DUP2 SLOAD DUP2 MSTORE SWAP1 PUSH1 0x1 ADD SWAP1 PUSH1 0x20 ADD DUP1 DUP4 GT PUSH2 0x922 JUMPI DUP3 SWAP1 SUB PUSH1 0x1F AND DUP3 ADD SWAP2 JUMPDEST POP POP POP POP POP DUP2 MSTORE PUSH1 0x20 ADD SWAP1 PUSH1 0x1 ADD SWAP1 PUSH2 0x8A7 JUMP JUMPDEST POP POP POP POP DUP2 MSTORE PUSH1 0x20 ADD PUSH1 0x9 DUP3 ADD DUP1 SLOAD DUP1 PUSH1 0x20 MUL PUSH1 0x20 ADD PUSH1 0x40 MLOAD SWAP1 DUP2 ADD PUSH1 0x40 MSTORE DUP1 SWAP3 SWAP2 SWAP1 DUP2 DUP2 MSTORE PUSH1 0x20 ADD PUSH1 0x0 SWAP1 JUMPDEST DUP3 DUP3 LT ISZERO PUSH2 0xA2C JUMPI DUP4 DUP3 SWAP1 PUSH1 0x0 MSTORE PUSH1 0x20 PUSH1 0x0 KECCAK256 ADD DUP1 SLOAD PUSH2 0x99F SWAP1 PUSH2 0x1ACD JUMP JUMPDEST DUP1 PUSH1 0x1F ADD PUSH1 0x20 DUP1 SWAP2 DIV MUL PUSH1 0x20 ADD PUSH1 0x40 MLOAD SWAP1 DUP2 ADD PUSH1 0x40 MSTORE DUP1 SWAP3 SWAP2 SWAP1 DUP2 DUP2 MSTORE PUSH1 0x20 ADD DUP3 DUP1 SLOAD PUSH2 0x9CB SWAP1 PUSH2 0x1ACD JUMP JUMPDEST DUP1 ISZERO PUSH2 0xA18 JUMPI DUP1 PUSH1 0x1F LT PUSH2 0x9ED JUMPI PUSH2 0x100 DUP1 DUP4 SLOAD DIV MUL DUP4 MSTORE SWAP2 PUSH1 0x20 ADD SWAP2 PUSH2 0xA18 JUMP JUMPDEST DUP3 ADD SWAP2 SWAP1 PUSH1 0x0 MSTORE PUSH1 0x20 PUSH1 0x0 KECCAK256 SWAP1 JUMPDEST DUP2 SLOAD DUP2 MSTORE SWAP1 PUSH1 0x1 ADD SWAP1 PUSH1 0x20 ADD DUP1 DUP4 GT PUSH2 0x9FB JUMPI DUP3 SWAP1 SUB PUSH1 0x1F AND DUP3 ADD SWAP2 JUMPDEST POP POP POP POP POP DUP2 MSTORE PUSH1 0x20 ADD SWAP1 PUSH1 0x1 ADD SWAP1 PUSH2 0x980 JUMP JUMPDEST POP POP POP POP DUP2 MSTORE PUSH1 0x20 ADD PUSH1 0xA DUP3 ADD DUP1 SLOAD DUP1 PUSH1 0x20 MUL PUSH1 0x20 ADD PUSH1 0x40 MLOAD SWAP1 DUP2 ADD PUSH1 0x40 MSTORE DUP1 SWAP3 SWAP2 SWAP1 DUP2 DUP2 MSTORE PUSH1 0x20 ADD PUSH1 0x0 SWAP1 JUMPDEST DUP3 DUP3 LT ISZERO PUSH2 0xB05 JUMPI DUP4 DUP3 SWAP1 PUSH1 0x0 MSTORE PUSH1 0x20 PUSH1 0x0 KECCAK256 ADD DUP1 SLOAD PUSH2 0xA78 SWAP1 PUSH2 0x1ACD JUMP JUMPDEST DUP1 PUSH1 0x1F ADD PUSH1 0x20 DUP1 SWAP2 DIV MUL PUSH1 0x20 ADD PUSH1 0x40 MLOAD SWAP1 DUP2 ADD PUSH1 0x40 MSTORE DUP1 SWAP3 SWAP2 SWAP1 DUP2 DUP2 MSTORE PUSH1 0x20 ADD DUP3 DUP1 SLOAD PUSH2 0xAA4 SWAP1 PUSH2 0x1ACD JUMP JUMPDEST DUP1 ISZERO PUSH2 0xAF1 JUMPI DUP1 PUSH1 0x1F LT PUSH2 0xAC6 JUMPI PUSH2 0x100 DUP1 DUP4 SLOAD DIV MUL DUP4 MSTORE SWAP2 PUSH1 0x20 ADD SWAP2 PUSH2 0xAF1 JUMP JUMPDEST DUP3 ADD SWAP2 SWAP1 PUSH1 0x0 MSTORE PUSH1 0x20 PUSH1 0x0 KECCAK256 SWAP1 JUMPDEST DUP2 SLOAD DUP2 MSTORE SWAP1 PUSH1 0x1 ADD SWAP1 PUSH1 0x20 ADD DUP1 DUP4 GT PUSH2 0xAD4 JUMPI DUP3 SWAP1 SUB PUSH1 0x1F AND DUP3 ADD SWAP2 JUMPDEST POP POP POP POP POP DUP2 MSTORE PUSH1 0x20 ADD SWAP1 PUSH1 0x1 ADD SWAP1 PUSH2 0xA59 JUMP JUMPDEST POP POP POP POP DUP2 MSTORE POP POP SWAP1 POP SWAP1 JUMP JUMPDEST DUP9 PUSH1 0x0 DUP1 CALLER PUSH20 0xFFFFFFFFFFFFFFFFFFFFFFFFFFFFFFFFFFFFFFFF AND PUSH20 0xFFFFFFFFFFFFFFFFFFFFFFFFFFFFFFFFFFFFFFFF AND DUP2 MSTORE PUSH1 0x20 ADD SWAP1 DUP2 MSTORE PUSH1 0x20 ADD PUSH1 0x0 KECCAK256 PUSH1 0x1 ADD SWAP1 DUP1 MLOAD SWAP1 PUSH1 0x20 ADD SWAP1 PUSH2 0xB67 SWAP3 SWAP2 SWAP1 PUSH2 0x11D6 JUMP JUMPDEST POP DUP8 PUSH1 0x0 DUP1 CALLER PUSH20 0xFFFFFFFFFFFFFFFFFFFFFFFFFFFFFFFFFFFFFFFF AND PUSH20 0xFFFFFFFFFFFFFFFFFFFFFFFFFFFFFFFFFFFFFFFF AND DUP2 MSTORE PUSH1 0x20 ADD SWAP1 DUP2 MSTORE PUSH1 0x20 ADD PUSH1 0x0 KECCAK256 PUSH1 0x2 ADD SWAP1 DUP1 MLOAD SWAP1 PUSH1 0x20 ADD SWAP1 PUSH2 0xBBD SWAP3 SWAP2 SWAP1 PUSH2 0x11D6 JUMP JUMPDEST POP DUP7 PUSH1 0x0 DUP1 CALLER PUSH20 0xFFFFFFFFFFFFFFFFFFFFFFFFFFFFFFFFFFFFFFFF AND PUSH20 0xFFFFFFFFFFFFFFFFFFFFFFFFFFFFFFFFFFFFFFFF AND DUP2 MSTORE PUSH1 0x20 ADD SWAP1 DUP2 MSTORE PUSH1 0x20 ADD PUSH1 0x0 KECCAK256 PUSH1 0x3 ADD SWAP1 DUP1 MLOAD SWAP1 PUSH1 0x20 ADD SWAP1 PUSH2 0xC13 SWAP3 SWAP2 SWAP1 PUSH2 0x11D6 JUMP JUMPDEST POP DUP6 PUSH1 0x0 DUP1 CALLER PUSH20 0xFFFFFFFFFFFFFFFFFFFFFFFFFFFFFFFFFFFFFFFF AND PUSH20 0xFFFFFFFFFFFFFFFFFFFFFFFFFFFFFFFFFFFFFFFF AND DUP2 MSTORE PUSH1 0x20 ADD SWAP1 DUP2 MSTORE PUSH1 0x20 ADD PUSH1 0x0 KECCAK256 PUSH1 0x4 ADD SWAP1 DUP1 MLOAD SWAP1 PUSH1 0x20 ADD SWAP1 PUSH2 0xC69 SWAP3 SWAP2 SWAP1 PUSH2 0x11D6 JUMP JUMPDEST POP DUP5 PUSH1 0x0 DUP1 CALLER PUSH20 0xFFFFFFFFFFFFFFFFFFFFFFFFFFFFFFFFFFFFFFFF AND PUSH20 0xFFFFFFFFFFFFFFFFFFFFFFFFFFFFFFFFFFFFFFFF AND DUP2 MSTORE PUSH1 0x20 ADD SWAP1 DUP2 MSTORE PUSH1 0x20 ADD PUSH1 0x0 KECCAK256 PUSH1 0x5 ADD SWAP1 DUP1 MLOAD SWAP1 PUSH1 0x20 ADD SWAP1 PUSH2 0xCBF SWAP3 SWAP2 SWAP1 PUSH2 0x11D6 JUMP JUMPDEST POP DUP4 PUSH1 0x0 DUP1 CALLER PUSH20 0xFFFFFFFFFFFFFFFFFFFFFFFFFFFFFFFFFFFFFFFF AND PUSH20 0xFFFFFFFFFFFFFFFFFFFFFFFFFFFFFFFFFFFFFFFF AND DUP2 MSTORE PUSH1 0x20 ADD SWAP1 DUP2 MSTORE PUSH1 0x20 ADD PUSH1 0x0 KECCAK256 PUSH1 0x6 ADD SWAP1 DUP1 MLOAD SWAP1 PUSH1 0x20 ADD SWAP1 PUSH2 0xD15 SWAP3 SWAP2 SWAP1 PUSH2 0x11D6 JUMP JUMPDEST POP CALLER PUSH1 0x0 DUP1 CALLER PUSH20 0xFFFFFFFFFFFFFFFFFFFFFFFFFFFFFFFFFFFFFFFF AND PUSH20 0xFFFFFFFFFFFFFFFFFFFFFFFFFFFFFFFFFFFFFFFF AND DUP2 MSTORE PUSH1 0x20 ADD SWAP1 DUP2 MSTORE PUSH1 0x20 ADD PUSH1 0x0 KECCAK256 PUSH1 0x0 ADD PUSH1 0x0 PUSH2 0x100 EXP DUP2 SLOAD DUP2 PUSH20 0xFFFFFFFFFFFFFFFFFFFFFFFFFFFFFFFFFFFFFFFF MUL NOT AND SWAP1 DUP4 PUSH20 0xFFFFFFFFFFFFFFFFFFFFFFFFFFFFFFFFFFFFFFFF AND MUL OR SWAP1 SSTORE POP TIMESTAMP PUSH1 0x0 DUP1 CALLER PUSH20 0xFFFFFFFFFFFFFFFFFFFFFFFFFFFFFFFFFFFFFFFF AND PUSH20 0xFFFFFFFFFFFFFFFFFFFFFFFFFFFFFFFFFFFFFFFF AND DUP2 MSTORE PUSH1 0x20 ADD SWAP1 DUP2 MSTORE PUSH1 0x20 ADD PUSH1 0x0 KECCAK256 PUSH1 0x7 ADD DUP2 SWAP1 SSTORE POP PUSH2 0xDE7 DUP4 PUSH1 0x0 PUSH2 0xF0A JUMP JUMPDEST PUSH2 0xDF2 DUP3 PUSH1 0x1 PUSH2 0xF0A JUMP JUMPDEST PUSH2 0xDFD DUP2 PUSH1 0x2 PUSH2 0xF0A JUMP JUMPDEST POP POP POP POP POP POP POP POP POP JUMP JUMPDEST PUSH1 0x0 DUP1 CALLER PUSH20 0xFFFFFFFFFFFFFFFFFFFFFFFFFFFFFFFFFFFFFFFF AND PUSH20 0xFFFFFFFFFFFFFFFFFFFFFFFFFFFFFFFFFFFFFFFF AND DUP2 MSTORE PUSH1 0x20 ADD SWAP1 DUP2 MSTORE PUSH1 0x20 ADD PUSH1 0x0 KECCAK256 PUSH1 0x0 DUP1 DUP3 ADD PUSH1 0x0 PUSH2 0x100 EXP DUP2 SLOAD SWAP1 PUSH20 0xFFFFFFFFFFFFFFFFFFFFFFFFFFFFFFFFFFFFFFFF MUL NOT AND SWAP1 SSTORE PUSH1 0x1 DUP3 ADD PUSH1 0x0 PUSH2 0xE7E SWAP2 SWAP1 PUSH2 0x125C JUMP JUMPDEST PUSH1 0x2 DUP3 ADD PUSH1 0x0 PUSH2 0xE8E SWAP2 SWAP1 PUSH2 0x125C JUMP JUMPDEST PUSH1 0x3 DUP3 ADD PUSH1 0x0 PUSH2 0xE9E SWAP2 SWAP1 PUSH2 0x125C JUMP JUMPDEST PUSH1 0x4 DUP3 ADD PUSH1 0x0 PUSH2 0xEAE SWAP2 SWAP1 PUSH2 0x125C JUMP JUMPDEST PUSH1 0x5 DUP3 ADD PUSH1 0x0 PUSH2 0xEBE SWAP2 SWAP1 PUSH2 0x125C JUMP JUMPDEST PUSH1 0x6 DUP3 ADD PUSH1 0x0 PUSH2 0xECE SWAP2 SWAP1 PUSH2 0x125C JUMP JUMPDEST PUSH1 0x7 DUP3 ADD PUSH1 0x0 SWAP1 SSTORE PUSH1 0x8 DUP3 ADD PUSH1 0x0 PUSH2 0xEE6 SWAP2 SWAP1 PUSH2 0x129C JUMP JUMPDEST PUSH1 0x9 DUP3 ADD PUSH1 0x0 PUSH2 0xEF6 SWAP2 SWAP1 PUSH2 0x129C JUMP JUMPDEST PUSH1 0xA DUP3 ADD PUSH1 0x0 PUSH2 0xF06 SWAP2 SWAP1 PUSH2 0x129C JUMP JUMPDEST POP POP JUMP JUMPDEST PUSH1 0x0 DUP2 PUSH1 0xFF AND EQ ISZERO PUSH2 0xFD2 JUMPI PUSH1 0x0 JUMPDEST DUP3 MLOAD DUP2 PUSH1 0xFF AND LT ISZERO PUSH2 0xFD0 JUMPI PUSH1 0x0 DUP1 CALLER PUSH20 0xFFFFFFFFFFFFFFFFFFFFFFFFFFFFFFFFFFFFFFFF AND PUSH20 0xFFFFFFFFFFFFFFFFFFFFFFFFFFFFFFFFFFFFFFFF AND DUP2 MSTORE PUSH1 0x20 ADD SWAP1 DUP2 MSTORE PUSH1 0x20 ADD PUSH1 0x0 KECCAK256 PUSH1 0x8 ADD DUP4 DUP3 PUSH1 0xFF AND DUP2 MLOAD DUP2 LT PUSH2 0xF7C JUMPI PUSH2 0xF7B PUSH2 0x1BB8 JUMP JUMPDEST JUMPDEST PUSH1 0x20 MUL PUSH1 0x20 ADD ADD MLOAD SWAP1 DUP1 PUSH1 0x1 DUP2 SLOAD ADD DUP1 DUP3 SSTORE DUP1 SWAP2 POP POP PUSH1 0x1 SWAP1 SUB SWAP1 PUSH1 0x0 MSTORE PUSH1 0x20 PUSH1 0x0 KECCAK256 ADD PUSH1 0x0 SWAP1 SWAP2 SWAP1 SWAP2 SWAP1 SWAP2 POP SWAP1 DUP1 MLOAD SWAP1 PUSH1 0x20 ADD SWAP1 PUSH2 0xFBC SWAP3 SWAP2 SWAP1 PUSH2 0x11D6 JUMP JUMPDEST POP DUP1 DUP1 PUSH2 0xFC8 SWAP1 PUSH2 0x1B30 JUMP JUMPDEST SWAP2 POP POP PUSH2 0xF19 JUMP JUMPDEST POP JUMPDEST PUSH1 0x1 DUP2 PUSH1 0xFF AND EQ ISZERO PUSH2 0x109A JUMPI PUSH1 0x0 JUMPDEST DUP3 MLOAD DUP2 PUSH1 0xFF AND LT ISZERO PUSH2 0x1098 JUMPI PUSH1 0x0 DUP1 CALLER PUSH20 0xFFFFFFFFFFFFFFFFFFFFFFFFFFFFFFFFFFFFFFFF AND PUSH20 0xFFFFFFFFFFFFFFFFFFFFFFFFFFFFFFFFFFFFFFFF AND DUP2 MSTORE PUSH1 0x20 ADD SWAP1 DUP2 MSTORE PUSH1 0x20 ADD PUSH1 0x0 KECCAK256 PUSH1 0x9 ADD DUP4 DUP3 PUSH1 0xFF AND DUP2 MLOAD DUP2 LT PUSH2 0x1044 JUMPI PUSH2 0x1043 PUSH2 0x1BB8 JUMP JUMPDEST JUMPDEST PUSH1 0x20 MUL PUSH1 0x20 ADD ADD MLOAD SWAP1 DUP1 PUSH1 0x1 DUP2 SLOAD ADD DUP1 DUP3 SSTORE DUP1 SWAP2 POP POP PUSH1 0x1 SWAP1 SUB SWAP1 PUSH1 0x0 MSTORE PUSH1 0x20 PUSH1 0x0 KECCAK256 ADD PUSH1 0x0 SWAP1 SWAP2 SWAP1 SWAP2 SWAP1 SWAP2 POP SWAP1 DUP1 MLOAD SWAP1 PUSH1 0x20 ADD SWAP1 PUSH2 0x1084 SWAP3 SWAP2 SWAP1 PUSH2 0x11D6 JUMP JUMPDEST POP DUP1 DUP1 PUSH2 0x1090 SWAP1 PUSH2 0x1B30 JUMP JUMPDEST SWAP2 POP POP PUSH2 0xFE1 JUMP JUMPDEST POP JUMPDEST PUSH1 0x2 DUP2 PUSH1 0xFF AND EQ ISZERO PUSH2 0x1162 JUMPI PUSH1 0x0 JUMPDEST DUP3 MLOAD DUP2 PUSH1 0xFF AND LT ISZERO PUSH2 0x1160 JUMPI PUSH1 0x0 DUP1 CALLER PUSH20 0xFFFFFFFFFFFFFFFFFFFFFFFFFFFFFFFFFFFFFFFF AND PUSH20 0xFFFFFFFFFFFFFFFFFFFFFFFFFFFFFFFFFFFFFFFF AND DUP2 MSTORE PUSH1 0x20 ADD SWAP1 DUP2 MSTORE PUSH1 0x20 ADD PUSH1 0x0 KECCAK256 PUSH1 0xA ADD DUP4 DUP3 PUSH1 0xFF AND DUP2 MLOAD DUP2 LT PUSH2 0x110C JUMPI PUSH2 0x110B PUSH2 0x1BB8 JUMP JUMPDEST JUMPDEST PUSH1 0x20 MUL PUSH1 0x20 ADD ADD MLOAD SWAP1 DUP1 PUSH1 0x1 DUP2 SLOAD ADD DUP1 DUP3 SSTORE DUP1 SWAP2 POP POP PUSH1 0x1 SWAP1 SUB SWAP1 PUSH1 0x0 MSTORE PUSH1 0x20 PUSH1 0x0 KECCAK256 ADD PUSH1 0x0 SWAP1 SWAP2 SWAP1 SWAP2 SWAP1 SWAP2 POP SWAP1 DUP1 MLOAD SWAP1 PUSH1 0x20 ADD SWAP1 PUSH2 0x114C SWAP3 SWAP2 SWAP1 PUSH2 0x11D6 JUMP JUMPDEST POP DUP1 DUP1 PUSH2 0x1158 SWAP1 PUSH2 0x1B30 JUMP JUMPDEST SWAP2 POP POP PUSH2 0x10A9 JUMP JUMPDEST POP JUMPDEST POP POP JUMP JUMPDEST PUSH1 0x40 MLOAD DUP1 PUSH2 0x160 ADD PUSH1 0x40 MSTORE DUP1 PUSH1 0x0 PUSH20 0xFFFFFFFFFFFFFFFFFFFFFFFFFFFFFFFFFFFFFFFF AND DUP2 MSTORE PUSH1 0x20 ADD PUSH1 0x60 DUP2 MSTORE PUSH1 0x20 ADD PUSH1 0x60 DUP2 MSTORE PUSH1 0x20 ADD PUSH1 0x60 DUP2 MSTORE PUSH1 0x20 ADD PUSH1 0x60 DUP2 MSTORE PUSH1 0x20 ADD PUSH1 0x60 DUP2 MSTORE PUSH1 0x20 ADD PUSH1 0x60 DUP2 MSTORE PUSH1 0x20 ADD PUSH1 0x0 DUP2 MSTORE PUSH1 0x20 ADD PUSH1 0x60 DUP2 MSTORE PUSH1 0x20 ADD PUSH1 0x60 DUP2 MSTORE PUSH1 0x20 ADD PUSH1 0x60 DUP2 MSTORE POP SWAP1 JUMP JUMPDEST DUP3 DUP1 SLOAD PUSH2 0x11E2 SWAP1 PUSH2 0x1ACD JUMP JUMPDEST SWAP1 PUSH1 0x0 MSTORE PUSH1 0x20 PUSH1 0x0 KECCAK256 SWAP1 PUSH1 0x1F ADD PUSH1 0x20 SWAP1 DIV DUP2 ADD SWAP3 DUP3 PUSH2 0x1204 JUMPI PUSH1 0x0 DUP6 SSTORE PUSH2 0x124B JUMP JUMPDEST DUP3 PUSH1 0x1F LT PUSH2 0x121D JUMPI DUP1 MLOAD PUSH1 0xFF NOT AND DUP4 DUP1 ADD OR DUP6 SSTORE PUSH2 0x124B JUMP JUMPDEST DUP3 DUP1 ADD PUSH1 0x1 ADD DUP6 SSTORE DUP3 ISZERO PUSH2 0x124B JUMPI SWAP2 DUP3 ADD JUMPDEST DUP3 DUP2 GT ISZERO PUSH2 0x124A JUMPI DUP3 MLOAD DUP3 SSTORE SWAP2 PUSH1 0x20 ADD SWAP2 SWAP1 PUSH1 0x1 ADD SWAP1 PUSH2 0x122F JUMP JUMPDEST JUMPDEST POP SWAP1 POP PUSH2 0x1258 SWAP2 SWAP1 PUSH2 0x12BD JUMP JUMPDEST POP SWAP1 JUMP JUMPDEST POP DUP1 SLOAD PUSH2 0x1268 SWAP1 PUSH2 0x1ACD JUMP JUMPDEST PUSH1 0x0 DUP3 SSTORE DUP1 PUSH1 0x1F LT PUSH2 0x127A JUMPI POP PUSH2 0x1299 JUMP JUMPDEST PUSH1 0x1F ADD PUSH1 0x20 SWAP1 DIV SWAP1 PUSH1 0x0 MSTORE PUSH1 0x20 PUSH1 0x0 KECCAK256 SWAP1 DUP2 ADD SWAP1 PUSH2 0x1298 SWAP2 SWAP1 PUSH2 0x12BD JUMP JUMPDEST JUMPDEST POP JUMP JUMPDEST POP DUP1 SLOAD PUSH1 0x0 DUP3 SSTORE SWAP1 PUSH1 0x0 MSTORE PUSH1 0x20 PUSH1 0x0 KECCAK256 SWAP1 DUP2 ADD SWAP1 PUSH2 0x12BA SWAP2 SWAP1 PUSH2 0x12DA JUMP JUMPDEST POP JUMP JUMPDEST JUMPDEST DUP1 DUP3 GT ISZERO PUSH2 0x12D6 JUMPI PUSH1 0x0 DUP2 PUSH1 0x0 SWAP1 SSTORE POP PUSH1 0x1 ADD PUSH2 0x12BE JUMP JUMPDEST POP SWAP1 JUMP JUMPDEST JUMPDEST DUP1 DUP3 GT ISZERO PUSH2 0x12FA JUMPI PUSH1 0x0 DUP2 DUP2 PUSH2 0x12F1 SWAP2 SWAP1 PUSH2 0x125C JUMP JUMPDEST POP PUSH1 0x1 ADD PUSH2 0x12DB JUMP JUMPDEST POP SWAP1 JUMP JUMPDEST PUSH1 0x0 PUSH2 0x1311 PUSH2 0x130C DUP5 PUSH2 0x197F JUMP JUMPDEST PUSH2 0x195A JUMP JUMPDEST SWAP1 POP DUP1 DUP4 DUP3 MSTORE PUSH1 0x20 DUP3 ADD SWAP1 POP DUP3 DUP6 PUSH1 0x20 DUP7 MUL DUP3 ADD GT ISZERO PUSH2 0x1334 JUMPI PUSH2 0x1333 PUSH2 0x1C1B JUMP JUMPDEST JUMPDEST PUSH1 0x0 JUMPDEST DUP6 DUP2 LT ISZERO PUSH2 0x1382 JUMPI DUP2 CALLDATALOAD PUSH8 0xFFFFFFFFFFFFFFFF DUP2 GT ISZERO PUSH2 0x135A JUMPI PUSH2 0x1359 PUSH2 0x1C16 JUMP JUMPDEST JUMPDEST DUP1 DUP7 ADD PUSH2 0x1367 DUP10 DUP3 PUSH2 0x1411 JUMP JUMPDEST DUP6 MSTORE PUSH1 0x20 DUP6 ADD SWAP5 POP PUSH1 0x20 DUP5 ADD SWAP4 POP POP POP PUSH1 0x1 DUP2 ADD SWAP1 POP PUSH2 0x1337 JUMP JUMPDEST POP POP POP SWAP4 SWAP3 POP POP POP JUMP JUMPDEST PUSH1 0x0 PUSH2 0x139F PUSH2 0x139A DUP5 PUSH2 0x19AB JUMP JUMPDEST PUSH2 0x195A JUMP JUMPDEST SWAP1 POP DUP3 DUP2 MSTORE PUSH1 0x20 DUP2 ADD DUP5 DUP5 DUP5 ADD GT ISZERO PUSH2 0x13BB JUMPI PUSH2 0x13BA PUSH2 0x1C20 JUMP JUMPDEST JUMPDEST PUSH2 0x13C6 DUP5 DUP3 DUP6 PUSH2 0x1A8B JUMP JUMPDEST POP SWAP4 SWAP3 POP POP POP JUMP JUMPDEST PUSH1 0x0 DUP2 CALLDATALOAD SWAP1 POP PUSH2 0x13DD DUP2 PUSH2 0x1C40 JUMP JUMPDEST SWAP3 SWAP2 POP POP JUMP JUMPDEST PUSH1 0x0 DUP3 PUSH1 0x1F DUP4 ADD SLT PUSH2 0x13F8 JUMPI PUSH2 0x13F7 PUSH2 0x1C16 JUMP JUMPDEST JUMPDEST DUP2 CALLDATALOAD PUSH2 0x1408 DUP5 DUP3 PUSH1 0x20 DUP7 ADD PUSH2 0x12FE JUMP JUMPDEST SWAP2 POP POP SWAP3 SWAP2 POP POP JUMP JUMPDEST PUSH1 0x0 DUP3 PUSH1 0x1F DUP4 ADD SLT PUSH2 0x1426 JUMPI PUSH2 0x1425 PUSH2 0x1C16 JUMP JUMPDEST JUMPDEST DUP2 CALLDATALOAD PUSH2 0x1436 DUP5 DUP3 PUSH1 0x20 DUP7 ADD PUSH2 0x138C JUMP JUMPDEST SWAP2 POP POP SWAP3 SWAP2 POP POP JUMP JUMPDEST PUSH1 0x0 PUSH1 0x20 DUP3 DUP5 SUB SLT ISZERO PUSH2 0x1455 JUMPI PUSH2 0x1454 PUSH2 0x1C2A JUMP JUMPDEST JUMPDEST PUSH1 0x0 PUSH2 0x1463 DUP5 DUP3 DUP6 ADD PUSH2 0x13CE JUMP JUMPDEST SWAP2 POP POP SWAP3 SWAP2 POP POP JUMP JUMPDEST PUSH1 0x0 DUP1 PUSH1 0x0 DUP1 PUSH1 0x0 DUP1 PUSH1 0x0 DUP1 PUSH1 0x0 PUSH2 0x120 DUP11 DUP13 SUB SLT ISZERO PUSH2 0x148F JUMPI PUSH2 0x148E PUSH2 0x1C2A JUMP JUMPDEST JUMPDEST PUSH1 0x0 DUP11 ADD CALLDATALOAD PUSH8 0xFFFFFFFFFFFFFFFF DUP2 GT ISZERO PUSH2 0x14AD JUMPI PUSH2 0x14AC PUSH2 0x1C25 JUMP JUMPDEST JUMPDEST PUSH2 0x14B9 DUP13 DUP3 DUP14 ADD PUSH2 0x1411 JUMP JUMPDEST SWAP10 POP POP PUSH1 0x20 DUP11 ADD CALLDATALOAD PUSH8 0xFFFFFFFFFFFFFFFF DUP2 GT ISZERO PUSH2 0x14DA JUMPI PUSH2 0x14D9 PUSH2 0x1C25 JUMP JUMPDEST JUMPDEST PUSH2 0x14E6 DUP13 DUP3 DUP14 ADD PUSH2 0x1411 JUMP JUMPDEST SWAP9 POP POP PUSH1 0x40 DUP11 ADD CALLDATALOAD PUSH8 0xFFFFFFFFFFFFFFFF DUP2 GT ISZERO PUSH2 0x1507 JUMPI PUSH2 0x1506 PUSH2 0x1C25 JUMP JUMPDEST JUMPDEST PUSH2 0x1513 DUP13 DUP3 DUP14 ADD PUSH2 0x1411 JUMP JUMPDEST SWAP8 POP POP PUSH1 0x60 DUP11 ADD CALLDATALOAD PUSH8 0xFFFFFFFFFFFFFFFF DUP2 GT ISZERO PUSH2 0x1534 JUMPI PUSH2 0x1533 PUSH2 0x1C25 JUMP JUMPDEST JUMPDEST PUSH2 0x1540 DUP13 DUP3 DUP14 ADD PUSH2 0x1411 JUMP JUMPDEST SWAP7 POP POP PUSH1 0x80 DUP11 ADD CALLDATALOAD PUSH8 0xFFFFFFFFFFFFFFFF DUP2 GT ISZERO PUSH2 0x1561 JUMPI PUSH2 0x1560 PUSH2 0x1C25 JUMP JUMPDEST JUMPDEST PUSH2 0x156D DUP13 DUP3 DUP14 ADD PUSH2 0x1411 JUMP JUMPDEST SWAP6 POP POP PUSH1 0xA0 DUP11 ADD CALLDATALOAD PUSH8 0xFFFFFFFFFFFFFFFF DUP2 GT ISZERO PUSH2 0x158E JUMPI PUSH2 0x158D PUSH2 0x1C25 JUMP JUMPDEST JUMPDEST PUSH2 0x159A DUP13 DUP3 DUP14 ADD PUSH2 0x1411 JUMP JUMPDEST SWAP5 POP POP PUSH1 0xC0 DUP11 ADD CALLDATALOAD PUSH8 0xFFFFFFFFFFFFFFFF DUP2 GT ISZERO PUSH2 0x15BB JUMPI PUSH2 0x15BA PUSH2 0x1C25 JUMP JUMPDEST JUMPDEST PUSH2 0x15C7 DUP13 DUP3 DUP14 ADD PUSH2 0x13E3 JUMP JUMPDEST SWAP4 POP POP PUSH1 0xE0 DUP11 ADD CALLDATALOAD PUSH8 0xFFFFFFFFFFFFFFFF DUP2 GT ISZERO PUSH2 0x15E8 JUMPI PUSH2 0x15E7 PUSH2 0x1C25 JUMP JUMPDEST JUMPDEST PUSH2 0x15F4 DUP13 DUP3 DUP14 ADD PUSH2 0x13E3 JUMP JUMPDEST SWAP3 POP POP PUSH2 0x100 DUP11 ADD CALLDATALOAD PUSH8 0xFFFFFFFFFFFFFFFF DUP2 GT ISZERO PUSH2 0x1616 JUMPI PUSH2 0x1615 PUSH2 0x1C25 JUMP JUMPDEST JUMPDEST PUSH2 0x1622 DUP13 DUP3 DUP14 ADD PUSH2 0x13E3 JUMP JUMPDEST SWAP2 POP POP SWAP3 SWAP6 SWAP9 POP SWAP3 SWAP6 SWAP9 POP SWAP3 SWAP6 SWAP9 JUMP JUMPDEST PUSH1 0x0 PUSH2 0x163E DUP4 DUP4 PUSH2 0x16D9 JUMP JUMPDEST SWAP1 POP SWAP3 SWAP2 POP POP JUMP JUMPDEST PUSH2 0x164F DUP2 PUSH2 0x1A42 JUMP JUMPDEST DUP3 MSTORE POP POP JUMP JUMPDEST PUSH2 0x165E DUP2 PUSH2 0x1A42 JUMP JUMPDEST DUP3 MSTORE POP POP JUMP JUMPDEST PUSH1 0x0 PUSH2 0x166F DUP3 PUSH2 0x19EC JUMP JUMPDEST PUSH2 0x1679 DUP2 DUP6 PUSH2 0x1A0F JUMP JUMPDEST SWAP4 POP DUP4 PUSH1 0x20 DUP3 MUL DUP6 ADD PUSH2 0x168B DUP6 PUSH2 0x19DC JUMP JUMPDEST DUP1 PUSH1 0x0 JUMPDEST DUP6 DUP2 LT ISZERO PUSH2 0x16C7 JUMPI DUP5 DUP5 SUB DUP10 MSTORE DUP2 MLOAD PUSH2 0x16A8 DUP6 DUP3 PUSH2 0x1632 JUMP JUMPDEST SWAP5 POP PUSH2 0x16B3 DUP4 PUSH2 0x1A02 JUMP JUMPDEST SWAP3 POP PUSH1 0x20 DUP11 ADD SWAP10 POP POP PUSH1 0x1 DUP2 ADD SWAP1 POP PUSH2 0x168F JUMP JUMPDEST POP DUP3 SWAP8 POP DUP8 SWAP6 POP POP POP POP POP POP SWAP3 SWAP2 POP POP JUMP JUMPDEST PUSH1 0x0 PUSH2 0x16E4 DUP3 PUSH2 0x19F7 JUMP JUMPDEST PUSH2 0x16EE DUP2 DUP6 PUSH2 0x1A20 JUMP JUMPDEST SWAP4 POP PUSH2 0x16FE DUP2 DUP6 PUSH1 0x20 DUP7 ADD PUSH2 0x1A9A JUMP JUMPDEST PUSH2 0x1707 DUP2 PUSH2 0x1C2F JUMP JUMPDEST DUP5 ADD SWAP2 POP POP SWAP3 SWAP2 POP POP JUMP JUMPDEST PUSH1 0x0 PUSH2 0x171D DUP3 PUSH2 0x19F7 JUMP JUMPDEST PUSH2 0x1727 DUP2 DUP6 PUSH2 0x1A31 JUMP JUMPDEST SWAP4 POP PUSH2 0x1737 DUP2 DUP6 PUSH1 0x20 DUP7 ADD PUSH2 0x1A9A JUMP JUMPDEST PUSH2 0x1740 DUP2 PUSH2 0x1C2F JUMP JUMPDEST DUP5 ADD SWAP2 POP POP SWAP3 SWAP2 POP POP JUMP JUMPDEST PUSH1 0x0 PUSH2 0x160 DUP4 ADD PUSH1 0x0 DUP4 ADD MLOAD PUSH2 0x1764 PUSH1 0x0 DUP7 ADD DUP3 PUSH2 0x1646 JUMP JUMPDEST POP PUSH1 0x20 DUP4 ADD MLOAD DUP5 DUP3 SUB PUSH1 0x20 DUP7 ADD MSTORE PUSH2 0x177C DUP3 DUP3 PUSH2 0x16D9 JUMP JUMPDEST SWAP2 POP POP PUSH1 0x40 DUP4 ADD MLOAD DUP5 DUP3 SUB PUSH1 0x40 DUP7 ADD MSTORE PUSH2 0x1796 DUP3 DUP3 PUSH2 0x16D9 JUMP JUMPDEST SWAP2 POP POP PUSH1 0x60 DUP4 ADD MLOAD DUP5 DUP3 SUB PUSH1 0x60 DUP7 ADD MSTORE PUSH2 0x17B0 DUP3 DUP3 PUSH2 0x16D9 JUMP JUMPDEST SWAP2 POP POP PUSH1 0x80 DUP4 ADD MLOAD DUP5 DUP3 SUB PUSH1 0x80 DUP7 ADD MSTORE PUSH2 0x17CA DUP3 DUP3 PUSH2 0x16D9 JUMP JUMPDEST SWAP2 POP POP PUSH1 0xA0 DUP4 ADD MLOAD DUP5 DUP3 SUB PUSH1 0xA0 DUP7 ADD MSTORE PUSH2 0x17E4 DUP3 DUP3 PUSH2 0x16D9 JUMP JUMPDEST SWAP2 POP POP PUSH1 0xC0 DUP4 ADD MLOAD DUP5 DUP3 SUB PUSH1 0xC0 DUP7 ADD MSTORE PUSH2 0x17FE DUP3 DUP3 PUSH2 0x16D9 JUMP JUMPDEST SWAP2 POP POP PUSH1 0xE0 DUP4 ADD MLOAD PUSH2 0x1813 PUSH1 0xE0 DUP7 ADD DUP3 PUSH2 0x1872 JUMP JUMPDEST POP PUSH2 0x100 DUP4 ADD MLOAD DUP5 DUP3 SUB PUSH2 0x100 DUP7 ADD MSTORE PUSH2 0x182D DUP3 DUP3 PUSH2 0x1664 JUMP JUMPDEST SWAP2 POP POP PUSH2 0x120 DUP4 ADD MLOAD DUP5 DUP3 SUB PUSH2 0x120 DUP7 ADD MSTORE PUSH2 0x1849 DUP3 DUP3 PUSH2 0x1664 JUMP JUMPDEST SWAP2 POP POP PUSH2 0x140 DUP4 ADD MLOAD DUP5 DUP3 SUB PUSH2 0x140 DUP7 ADD MSTORE PUSH2 0x1865 DUP3 DUP3 PUSH2 0x1664 JUMP JUMPDEST SWAP2 POP POP DUP1 SWAP2 POP POP SWAP3 SWAP2 POP POP JUMP JUMPDEST PUSH2 0x187B DUP2 PUSH2 0x1A74 JUMP JUMPDEST DUP3 MSTORE POP POP JUMP JUMPDEST PUSH2 0x188A DUP2 PUSH2 0x1A74 JUMP JUMPDEST DUP3 MSTORE POP POP JUMP JUMPDEST PUSH1 0x0 PUSH2 0x100 DUP3 ADD SWAP1 POP PUSH2 0x18A6 PUSH1 0x0 DUP4 ADD DUP12 PUSH2 0x1655 JUMP JUMPDEST DUP2 DUP2 SUB PUSH1 0x20 DUP4 ADD MSTORE PUSH2 0x18B8 DUP2 DUP11 PUSH2 0x1712 JUMP JUMPDEST SWAP1 POP DUP2 DUP2 SUB PUSH1 0x40 DUP4 ADD MSTORE PUSH2 0x18CC DUP2 DUP10 PUSH2 0x1712 JUMP JUMPDEST SWAP1 POP DUP2 DUP2 SUB PUSH1 0x60 DUP4 ADD MSTORE PUSH2 0x18E0 DUP2 DUP9 PUSH2 0x1712 JUMP JUMPDEST SWAP1 POP DUP2 DUP2 SUB PUSH1 0x80 DUP4 ADD MSTORE PUSH2 0x18F4 DUP2 DUP8 PUSH2 0x1712 JUMP JUMPDEST SWAP1 POP DUP2 DUP2 SUB PUSH1 0xA0 DUP4 ADD MSTORE PUSH2 0x1908 DUP2 DUP7 PUSH2 0x1712 JUMP JUMPDEST SWAP1 POP DUP2 DUP2 SUB PUSH1 0xC0 DUP4 ADD MSTORE PUSH2 0x191C DUP2 DUP6 PUSH2 0x1712 JUMP JUMPDEST SWAP1 POP PUSH2 0x192B PUSH1 0xE0 DUP4 ADD DUP5 PUSH2 0x1881 JUMP JUMPDEST SWAP10 SWAP9 POP POP POP POP POP POP POP POP POP JUMP JUMPDEST PUSH1 0x0 PUSH1 0x20 DUP3 ADD SWAP1 POP DUP2 DUP2 SUB PUSH1 0x0 DUP4 ADD MSTORE PUSH2 0x1952 DUP2 DUP5 PUSH2 0x174B JUMP JUMPDEST SWAP1 POP SWAP3 SWAP2 POP POP JUMP JUMPDEST PUSH1 0x0 PUSH2 0x1964 PUSH2 0x1975 JUMP JUMPDEST SWAP1 POP PUSH2 0x1970 DUP3 DUP3 PUSH2 0x1AFF JUMP JUMPDEST SWAP2 SWAP1 POP JUMP JUMPDEST PUSH1 0x0 PUSH1 0x40 MLOAD SWAP1 POP SWAP1 JUMP JUMPDEST PUSH1 0x0 PUSH8 0xFFFFFFFFFFFFFFFF DUP3 GT ISZERO PUSH2 0x199A JUMPI PUSH2 0x1999 PUSH2 0x1BE7 JUMP JUMPDEST JUMPDEST PUSH1 0x20 DUP3 MUL SWAP1 POP PUSH1 0x20 DUP2 ADD SWAP1 POP SWAP2 SWAP1 POP JUMP JUMPDEST PUSH1 0x0 PUSH8 0xFFFFFFFFFFFFFFFF DUP3 GT ISZERO PUSH2 0x19C6 JUMPI PUSH2 0x19C5 PUSH2 0x1BE7 JUMP JUMPDEST JUMPDEST PUSH2 0x19CF DUP3 PUSH2 0x1C2F JUMP JUMPDEST SWAP1 POP PUSH1 0x20 DUP2 ADD SWAP1 POP SWAP2 SWAP1 POP JUMP JUMPDEST PUSH1 0x0 DUP2 SWAP1 POP PUSH1 0x20 DUP3 ADD SWAP1 POP SWAP2 SWAP1 POP JUMP JUMPDEST PUSH1 0x0 DUP2 MLOAD SWAP1 POP SWAP2 SWAP1 POP JUMP JUMPDEST PUSH1 0x0 DUP2 MLOAD SWAP1 POP SWAP2 SWAP1 POP JUMP JUMPDEST PUSH1 0x0 PUSH1 0x20 DUP3 ADD SWAP1 POP SWAP2 SWAP1 POP JUMP JUMPDEST PUSH1 0x0 DUP3 DUP3 MSTORE PUSH1 0x20 DUP3 ADD SWAP1 POP SWAP3 SWAP2 POP POP JUMP JUMPDEST PUSH1 0x0 DUP3 DUP3 MSTORE PUSH1 0x20 DUP3 ADD SWAP1 POP SWAP3 SWAP2 POP POP JUMP JUMPDEST PUSH1 0x0 DUP3 DUP3 MSTORE PUSH1 0x20 DUP3 ADD SWAP1 POP SWAP3 SWAP2 POP POP JUMP JUMPDEST PUSH1 0x0 PUSH2 0x1A4D DUP3 PUSH2 0x1A54 JUMP JUMPDEST SWAP1 POP SWAP2 SWAP1 POP JUMP JUMPDEST PUSH1 0x0 PUSH20 0xFFFFFFFFFFFFFFFFFFFFFFFFFFFFFFFFFFFFFFFF DUP3 AND SWAP1 POP SWAP2 SWAP1 POP JUMP JUMPDEST PUSH1 0x0 DUP2 SWAP1 POP SWAP2 SWAP1 POP JUMP JUMPDEST PUSH1 0x0 PUSH1 0xFF DUP3 AND SWAP1 POP SWAP2 SWAP1 POP JUMP JUMPDEST DUP3 DUP2 DUP4 CALLDATACOPY PUSH1 0x0 DUP4 DUP4 ADD MSTORE POP POP POP JUMP JUMPDEST PUSH1 0x0 JUMPDEST DUP4 DUP2 LT ISZERO PUSH2 0x1AB8 JUMPI DUP1 DUP3 ADD MLOAD DUP2 DUP5 ADD MSTORE PUSH1 0x20 DUP2 ADD SWAP1 POP PUSH2 0x1A9D JUMP JUMPDEST DUP4 DUP2 GT ISZERO PUSH2 0x1AC7 JUMPI PUSH1 0x0 DUP5 DUP5 ADD MSTORE JUMPDEST POP POP POP POP JUMP JUMPDEST PUSH1 0x0 PUSH1 0x2 DUP3 DIV SWAP1 POP PUSH1 0x1 DUP3 AND DUP1 PUSH2 0x1AE5 JUMPI PUSH1 0x7F DUP3 AND SWAP2 POP JUMPDEST PUSH1 0x20 DUP3 LT DUP2 EQ ISZERO PUSH2 0x1AF9 JUMPI PUSH2 0x1AF8 PUSH2 0x1B89 JUMP JUMPDEST JUMPDEST POP SWAP2 SWAP1 POP JUMP JUMPDEST PUSH2 0x1B08 DUP3 PUSH2 0x1C2F JUMP JUMPDEST DUP2 ADD DUP2 DUP2 LT PUSH8 0xFFFFFFFFFFFFFFFF DUP3 GT OR ISZERO PUSH2 0x1B27 JUMPI PUSH2 0x1B26 PUSH2 0x1BE7 JUMP JUMPDEST JUMPDEST DUP1 PUSH1 0x40 MSTORE POP POP POP JUMP JUMPDEST PUSH1 0x0 PUSH2 0x1B3B DUP3 PUSH2 0x1A7E JUMP JUMPDEST SWAP2 POP PUSH1 0xFF DUP3 EQ ISZERO PUSH2 0x1B4F JUMPI PUSH2 0x1B4E PUSH2 0x1B5A JUMP JUMPDEST JUMPDEST PUSH1 0x1 DUP3 ADD SWAP1 POP SWAP2 SWAP1 POP JUMP JUMPDEST PUSH32 0x4E487B7100000000000000000000000000000000000000000000000000000000 PUSH1 0x0 MSTORE PUSH1 0x11 PUSH1 0x4 MSTORE PUSH1 0x24 PUSH1 0x0 REVERT JUMPDEST PUSH32 0x4E487B7100000000000000000000000000000000000000000000000000000000 PUSH1 0x0 MSTORE PUSH1 0x22 PUSH1 0x4 MSTORE PUSH1 0x24 PUSH1 0x0 REVERT JUMPDEST PUSH32 0x4E487B7100000000000000000000000000000000000000000000000000000000 PUSH1 0x0 MSTORE PUSH1 0x32 PUSH1 0x4 MSTORE PUSH1 0x24 PUSH1 0x0 REVERT JUMPDEST PUSH32 0x4E487B7100000000000000000000000000000000000000000000000000000000 PUSH1 0x0 MSTORE PUSH1 0x41 PUSH1 0x4 MSTORE PUSH1 0x24 PUSH1 0x0 REVERT JUMPDEST PUSH1 0x0 DUP1 REVERT JUMPDEST PUSH1 0x0 DUP1 REVERT JUMPDEST PUSH1 0x0 DUP1 REVERT JUMPDEST PUSH1 0x0 DUP1 REVERT JUMPDEST PUSH1 0x0 DUP1 REVERT JUMPDEST PUSH1 0x0 PUSH1 0x1F NOT PUSH1 0x1F DUP4 ADD AND SWAP1 POP SWAP2 SWAP1 POP JUMP JUMPDEST PUSH2 0x1C49 DUP2 PUSH2 0x1A42 JUMP JUMPDEST DUP2 EQ PUSH2 0x1C54 JUMPI PUSH1 0x0 DUP1 REVERT JUMPDEST POP JUMP INVALID LOG2 PUSH5 0x6970667358 0x22 SLT KECCAK256 LOG2 0xA8 0xEB PUSH30 0x7DB72758CDBE1D8ACAC346D8CD25F9B2D3388714042A008D4AE07DF76473 PUSH16 0x6C634300080700330000000000000000 "
				},
				"gasEstimates": {
					"creation": {
						"codeDepositCost": "1461800",
						"executionCost": "1527",
						"totalCost": "1463327"
					},
					"external": {
						"addBio(string,string,string,string,string,string,string[],string[],string[])": "infinite",
						"delProfile()": "infinite",
						"getAllSkill()": "infinite",
						"profile(address)": "infinite"
					},
					"internal": {
						"addSkill(string memory[] memory,uint8)": "infinite"
					}
				},
				"methodIdentifiers": {
					"addBio(string,string,string,string,string,string,string[],string[],string[])": "ca679f1d",
					"delProfile()": "fabce08f",
					"getAllSkill()": "b08026ea",
					"profile(address)": "9dd9d0fd"
				}
			},
			"storageLayout": {
				"storage": [
					{
						"astId": 32,
						"contract": "contracts/Profile.sol:Profile",
						"label": "profile",
						"offset": 0,
						"slot": "0",
						"type": "t_mapping(t_address,t_struct(Bio)27_storage)"
					}
				],
				"types": {
					"t_address": {
						"encoding": "inplace",
						"label": "address",
						"numberOfBytes": "20"
					},
					"t_array(t_string_storage)dyn_storage": {
						"base": "t_string_storage",
						"encoding": "dynamic_array",
						"label": "string[]",
						"numberOfBytes": "32"
					},
					"t_mapping(t_address,t_struct(Bio)27_storage)": {
						"encoding": "mapping",
						"key": "t_address",
						"label": "mapping(address => struct Profile.Bio)",
						"numberOfBytes": "32",
						"value": "t_struct(Bio)27_storage"
					},
					"t_string_storage": {
						"encoding": "bytes",
						"label": "string",
						"numberOfBytes": "32"
					},
					"t_struct(Bio)27_storage": {
						"encoding": "inplace",
						"label": "struct Profile.Bio",
						"members": [
							{
								"astId": 3,
								"contract": "contracts/Profile.sol:Profile",
								"label": "userAddress",
								"offset": 0,
								"slot": "0",
								"type": "t_address"
							},
							{
								"astId": 5,
								"contract": "contracts/Profile.sol:Profile",
								"label": "firstName",
								"offset": 0,
								"slot": "1",
								"type": "t_string_storage"
							},
							{
								"astId": 7,
								"contract": "contracts/Profile.sol:Profile",
								"label": "middleName",
								"offset": 0,
								"slot": "2",
								"type": "t_string_storage"
							},
							{
								"astId": 9,
								"contract": "contracts/Profile.sol:Profile",
								"label": "lastName",
								"offset": 0,
								"slot": "3",
								"type": "t_string_storage"
							},
							{
								"astId": 11,
								"contract": "contracts/Profile.sol:Profile",
								"label": "email",
								"offset": 0,
								"slot": "4",
								"type": "t_string_storage"
							},
							{
								"astId": 13,
								"contract": "contracts/Profile.sol:Profile",
								"label": "phone",
								"offset": 0,
								"slot": "5",
								"type": "t_string_storage"
							},
							{
								"astId": 15,
								"contract": "contracts/Profile.sol:Profile",
								"label": "profileImage",
								"offset": 0,
								"slot": "6",
								"type": "t_string_storage"
							},
							{
								"astId": 17,
								"contract": "contracts/Profile.sol:Profile",
								"label": "createDate",
								"offset": 0,
								"slot": "7",
								"type": "t_uint256"
							},
							{
								"astId": 20,
								"contract": "contracts/Profile.sol:Profile",
								"label": "frontend",
								"offset": 0,
								"slot": "8",
								"type": "t_array(t_string_storage)dyn_storage"
							},
							{
								"astId": 23,
								"contract": "contracts/Profile.sol:Profile",
								"label": "backend",
								"offset": 0,
								"slot": "9",
								"type": "t_array(t_string_storage)dyn_storage"
							},
							{
								"astId": 26,
								"contract": "contracts/Profile.sol:Profile",
								"label": "framework",
								"offset": 0,
								"slot": "10",
								"type": "t_array(t_string_storage)dyn_storage"
							}
						],
						"numberOfBytes": "352"
					},
					"t_uint256": {
						"encoding": "inplace",
						"label": "uint256",
						"numberOfBytes": "32"
					}
				}
			},
			"userdoc": {
				"kind": "user",
				"methods": {},
				"version": 1
			}
		}
	}
}