{
	"contracts/Profile.sol": {
		"Profile": {
			"abi": [
				{
					"inputs": [
						{
							"internalType": "string",
							"name": "firstName",
							"type": "string"
						},
						{
							"internalType": "string",
							"name": "middleName",
							"type": "string"
						},
						{
							"internalType": "string",
							"name": "lastName",
							"type": "string"
						},
						{
							"internalType": "string",
							"name": "email",
							"type": "string"
						},
						{
							"internalType": "string",
							"name": "phone",
							"type": "string"
						},
						{
							"internalType": "string",
							"name": "profileImage",
							"type": "string"
						}
					],
					"name": "addBio",
					"outputs": [],
					"stateMutability": "nonpayable",
					"type": "function"
				},
				{
					"inputs": [],
					"name": "delProfile",
					"outputs": [],
					"stateMutability": "nonpayable",
					"type": "function"
				},
				{
					"inputs": [
						{
							"internalType": "address",
							"name": "",
							"type": "address"
						}
					],
					"name": "profile",
					"outputs": [
						{
							"internalType": "string",
							"name": "firstName",
							"type": "string"
						},
						{
							"internalType": "string",
							"name": "middleName",
							"type": "string"
						},
						{
							"internalType": "string",
							"name": "lastName",
							"type": "string"
						},
						{
							"internalType": "string",
							"name": "email",
							"type": "string"
						},
						{
							"internalType": "string",
							"name": "phone",
							"type": "string"
						},
						{
							"internalType": "string",
							"name": "profileImage",
							"type": "string"
						},
						{
							"internalType": "address",
							"name": "userAddress",
							"type": "address"
						}
					],
					"stateMutability": "view",
					"type": "function"
				}
			],
			"devdoc": {
				"kind": "dev",
				"methods": {},
				"version": 1
			},
			"evm": {
				"assembly": "    /* \"contracts/Profile.sol\":64:1282  contract Profile {\r... */\n  mstore(0x40, 0x80)\n  callvalue\n  dup1\n  iszero\n  tag_1\n  jumpi\n  0x00\n  dup1\n  revert\ntag_1:\n  pop\n  dataSize(sub_0)\n  dup1\n  dataOffset(sub_0)\n  0x00\n  codecopy\n  0x00\n  return\nstop\n\nsub_0: assembly {\n        /* \"contracts/Profile.sol\":64:1282  contract Profile {\r... */\n      mstore(0x40, 0x80)\n      callvalue\n      dup1\n      iszero\n      tag_1\n      jumpi\n      0x00\n      dup1\n      revert\n    tag_1:\n      pop\n      jumpi(tag_2, lt(calldatasize, 0x04))\n      shr(0xe0, calldataload(0x00))\n      dup1\n      0x721041af\n      eq\n      tag_3\n      jumpi\n      dup1\n      0x9dd9d0fd\n      eq\n      tag_4\n      jumpi\n      dup1\n      0xfabce08f\n      eq\n      tag_5\n      jumpi\n    tag_2:\n      0x00\n      dup1\n      revert\n        /* \"contracts/Profile.sol\":532:1191  function addBio(string memory firstName, string memory middleName, string memory lastName, string memory email, string memory phone, string memory profileImage) public {\r... */\n    tag_3:\n      tag_6\n      0x04\n      dup1\n      calldatasize\n      sub\n      dup2\n      add\n      swap1\n      tag_7\n      swap2\n      swap1\n      tag_8\n      jump\t// in\n    tag_7:\n      tag_9\n      jump\t// in\n    tag_6:\n      stop\n        /* \"contracts/Profile.sol\":304:344  mapping (address => Bio) public  profile */\n    tag_4:\n      tag_10\n      0x04\n      dup1\n      calldatasize\n      sub\n      dup2\n      add\n      swap1\n      tag_11\n      swap2\n      swap1\n      tag_12\n      jump\t// in\n    tag_11:\n      tag_13\n      jump\t// in\n    tag_10:\n      mload(0x40)\n      tag_14\n      swap8\n      swap7\n      swap6\n      swap5\n      swap4\n      swap3\n      swap2\n      swap1\n      tag_15\n      jump\t// in\n    tag_14:\n      mload(0x40)\n      dup1\n      swap2\n      sub\n      swap1\n      return\n        /* \"contracts/Profile.sol\":1199:1273  function delProfile() public {\r... */\n    tag_5:\n      tag_16\n      tag_17\n      jump\t// in\n    tag_16:\n      stop\n        /* \"contracts/Profile.sol\":532:1191  function addBio(string memory firstName, string memory middleName, string memory lastName, string memory email, string memory phone, string memory profileImage) public {\r... */\n    tag_9:\n        /* \"contracts/Profile.sol\":730:737  profile */\n      0x00\n        /* \"contracts/Profile.sol\":730:749  profile[msg.sender] */\n      dup1\n        /* \"contracts/Profile.sol\":738:748  msg.sender */\n      caller\n        /* \"contracts/Profile.sol\":730:749  profile[msg.sender] */\n      0xffffffffffffffffffffffffffffffffffffffff\n      and\n      0xffffffffffffffffffffffffffffffffffffffff\n      and\n      dup2\n      mstore\n      0x20\n      add\n      swap1\n      dup2\n      mstore\n      0x20\n      add\n      0x00\n      keccak256\n        /* \"contracts/Profile.sol\":730:761  profile[msg.sender].userAddress */\n      0x06\n      add\n      0x00\n      swap1\n      sload\n      swap1\n      0x0100\n      exp\n      swap1\n      div\n      0xffffffffffffffffffffffffffffffffffffffff\n      and\n        /* \"contracts/Profile.sol\":716:761  msg.sender == profile[msg.sender].userAddress */\n      0xffffffffffffffffffffffffffffffffffffffff\n      and\n        /* \"contracts/Profile.sol\":716:726  msg.sender */\n      caller\n        /* \"contracts/Profile.sol\":716:761  msg.sender == profile[msg.sender].userAddress */\n      0xffffffffffffffffffffffffffffffffffffffff\n      and\n      eq\n        /* \"contracts/Profile.sol\":713:815  if(msg.sender == profile[msg.sender].userAddress){\r... */\n      iszero\n      tag_19\n      jumpi\n        /* \"contracts/Profile.sol\":784:791  profile */\n      0x00\n        /* \"contracts/Profile.sol\":784:803  profile[msg.sender] */\n      dup1\n        /* \"contracts/Profile.sol\":792:802  msg.sender */\n      caller\n        /* \"contracts/Profile.sol\":784:803  profile[msg.sender] */\n      0xffffffffffffffffffffffffffffffffffffffff\n      and\n      0xffffffffffffffffffffffffffffffffffffffff\n      and\n      dup2\n      mstore\n      0x20\n      add\n      swap1\n      dup2\n      mstore\n      0x20\n      add\n      0x00\n      keccak256\n      0x00\n        /* \"contracts/Profile.sol\":777:803  delete profile[msg.sender] */\n      dup1\n      dup3\n      add\n      0x00\n      tag_20\n      swap2\n      swap1\n      tag_21\n      jump\t// in\n    tag_20:\n      0x01\n      dup3\n      add\n      0x00\n      tag_22\n      swap2\n      swap1\n      tag_21\n      jump\t// in\n    tag_22:\n      0x02\n      dup3\n      add\n      0x00\n      tag_23\n      swap2\n      swap1\n      tag_21\n      jump\t// in\n    tag_23:\n      0x03\n      dup3\n      add\n      0x00\n      tag_24\n      swap2\n      swap1\n      tag_21\n      jump\t// in\n    tag_24:\n      0x04\n      dup3\n      add\n      0x00\n      tag_25\n      swap2\n      swap1\n      tag_21\n      jump\t// in\n    tag_25:\n      0x05\n      dup3\n      add\n      0x00\n      tag_26\n      swap2\n      swap1\n      tag_21\n      jump\t// in\n    tag_26:\n      0x06\n      dup3\n      add\n      exp(0x0100, 0x00)\n      dup2\n      sload\n      swap1\n      0xffffffffffffffffffffffffffffffffffffffff\n      mul\n      not\n      and\n      swap1\n      sstore\n      pop\n      pop\n        /* \"contracts/Profile.sol\":713:815  if(msg.sender == profile[msg.sender].userAddress){\r... */\n    tag_19:\n        /* \"contracts/Profile.sol\":860:869  firstName */\n      dup6\n        /* \"contracts/Profile.sol\":828:835  profile */\n      0x00\n        /* \"contracts/Profile.sol\":828:847  profile[msg.sender] */\n      dup1\n        /* \"contracts/Profile.sol\":836:846  msg.sender */\n      caller\n        /* \"contracts/Profile.sol\":828:847  profile[msg.sender] */\n      0xffffffffffffffffffffffffffffffffffffffff\n      and\n      0xffffffffffffffffffffffffffffffffffffffff\n      and\n      dup2\n      mstore\n      0x20\n      add\n      swap1\n      dup2\n      mstore\n      0x20\n      add\n      0x00\n      keccak256\n        /* \"contracts/Profile.sol\":828:857  profile[msg.sender].firstName */\n      0x00\n      add\n        /* \"contracts/Profile.sol\":828:869  profile[msg.sender].firstName = firstName */\n      swap1\n      dup1\n      mload\n      swap1\n      0x20\n      add\n      swap1\n      tag_27\n      swap3\n      swap2\n      swap1\n      tag_28\n      jump\t// in\n    tag_27:\n      pop\n        /* \"contracts/Profile.sol\":913:923  middleName */\n      dup5\n        /* \"contracts/Profile.sol\":880:887  profile */\n      0x00\n        /* \"contracts/Profile.sol\":880:899  profile[msg.sender] */\n      dup1\n        /* \"contracts/Profile.sol\":888:898  msg.sender */\n      caller\n        /* \"contracts/Profile.sol\":880:899  profile[msg.sender] */\n      0xffffffffffffffffffffffffffffffffffffffff\n      and\n      0xffffffffffffffffffffffffffffffffffffffff\n      and\n      dup2\n      mstore\n      0x20\n      add\n      swap1\n      dup2\n      mstore\n      0x20\n      add\n      0x00\n      keccak256\n        /* \"contracts/Profile.sol\":880:910  profile[msg.sender].middleName */\n      0x01\n      add\n        /* \"contracts/Profile.sol\":880:923  profile[msg.sender].middleName = middleName */\n      swap1\n      dup1\n      mload\n      swap1\n      0x20\n      add\n      swap1\n      tag_29\n      swap3\n      swap2\n      swap1\n      tag_28\n      jump\t// in\n    tag_29:\n      pop\n        /* \"contracts/Profile.sol\":965:973  lastName */\n      dup4\n        /* \"contracts/Profile.sol\":934:941  profile */\n      0x00\n        /* \"contracts/Profile.sol\":934:953  profile[msg.sender] */\n      dup1\n        /* \"contracts/Profile.sol\":942:952  msg.sender */\n      caller\n        /* \"contracts/Profile.sol\":934:953  profile[msg.sender] */\n      0xffffffffffffffffffffffffffffffffffffffff\n      and\n      0xffffffffffffffffffffffffffffffffffffffff\n      and\n      dup2\n      mstore\n      0x20\n      add\n      swap1\n      dup2\n      mstore\n      0x20\n      add\n      0x00\n      keccak256\n        /* \"contracts/Profile.sol\":934:962  profile[msg.sender].lastName */\n      0x02\n      add\n        /* \"contracts/Profile.sol\":934:973  profile[msg.sender].lastName = lastName */\n      swap1\n      dup1\n      mload\n      swap1\n      0x20\n      add\n      swap1\n      tag_30\n      swap3\n      swap2\n      swap1\n      tag_28\n      jump\t// in\n    tag_30:\n      pop\n        /* \"contracts/Profile.sol\":1012:1017  email */\n      dup3\n        /* \"contracts/Profile.sol\":984:991  profile */\n      0x00\n        /* \"contracts/Profile.sol\":984:1003  profile[msg.sender] */\n      dup1\n        /* \"contracts/Profile.sol\":992:1002  msg.sender */\n      caller\n        /* \"contracts/Profile.sol\":984:1003  profile[msg.sender] */\n      0xffffffffffffffffffffffffffffffffffffffff\n      and\n      0xffffffffffffffffffffffffffffffffffffffff\n      and\n      dup2\n      mstore\n      0x20\n      add\n      swap1\n      dup2\n      mstore\n      0x20\n      add\n      0x00\n      keccak256\n        /* \"contracts/Profile.sol\":984:1009  profile[msg.sender].email */\n      0x03\n      add\n        /* \"contracts/Profile.sol\":984:1017  profile[msg.sender].email = email */\n      swap1\n      dup1\n      mload\n      swap1\n      0x20\n      add\n      swap1\n      tag_31\n      swap3\n      swap2\n      swap1\n      tag_28\n      jump\t// in\n    tag_31:\n      pop\n        /* \"contracts/Profile.sol\":1056:1061  phone */\n      dup2\n        /* \"contracts/Profile.sol\":1028:1035  profile */\n      0x00\n        /* \"contracts/Profile.sol\":1028:1047  profile[msg.sender] */\n      dup1\n        /* \"contracts/Profile.sol\":1036:1046  msg.sender */\n      caller\n        /* \"contracts/Profile.sol\":1028:1047  profile[msg.sender] */\n      0xffffffffffffffffffffffffffffffffffffffff\n      and\n      0xffffffffffffffffffffffffffffffffffffffff\n      and\n      dup2\n      mstore\n      0x20\n      add\n      swap1\n      dup2\n      mstore\n      0x20\n      add\n      0x00\n      keccak256\n        /* \"contracts/Profile.sol\":1028:1053  profile[msg.sender].phone */\n      0x04\n      add\n        /* \"contracts/Profile.sol\":1028:1061  profile[msg.sender].phone = phone */\n      swap1\n      dup1\n      mload\n      swap1\n      0x20\n      add\n      swap1\n      tag_32\n      swap3\n      swap2\n      swap1\n      tag_28\n      jump\t// in\n    tag_32:\n      pop\n        /* \"contracts/Profile.sol\":1107:1119  profileImage */\n      dup1\n        /* \"contracts/Profile.sol\":1072:1079  profile */\n      0x00\n        /* \"contracts/Profile.sol\":1072:1091  profile[msg.sender] */\n      dup1\n        /* \"contracts/Profile.sol\":1080:1090  msg.sender */\n      caller\n        /* \"contracts/Profile.sol\":1072:1091  profile[msg.sender] */\n      0xffffffffffffffffffffffffffffffffffffffff\n      and\n      0xffffffffffffffffffffffffffffffffffffffff\n      and\n      dup2\n      mstore\n      0x20\n      add\n      swap1\n      dup2\n      mstore\n      0x20\n      add\n      0x00\n      keccak256\n        /* \"contracts/Profile.sol\":1072:1104  profile[msg.sender].profileImage */\n      0x05\n      add\n        /* \"contracts/Profile.sol\":1072:1119  profile[msg.sender].profileImage = profileImage */\n      swap1\n      dup1\n      mload\n      swap1\n      0x20\n      add\n      swap1\n      tag_33\n      swap3\n      swap2\n      swap1\n      tag_28\n      jump\t// in\n    tag_33:\n      pop\n        /* \"contracts/Profile.sol\":1164:1174  msg.sender */\n      caller\n        /* \"contracts/Profile.sol\":1130:1137  profile */\n      0x00\n        /* \"contracts/Profile.sol\":1130:1149  profile[msg.sender] */\n      dup1\n        /* \"contracts/Profile.sol\":1138:1148  msg.sender */\n      caller\n        /* \"contracts/Profile.sol\":1130:1149  profile[msg.sender] */\n      0xffffffffffffffffffffffffffffffffffffffff\n      and\n      0xffffffffffffffffffffffffffffffffffffffff\n      and\n      dup2\n      mstore\n      0x20\n      add\n      swap1\n      dup2\n      mstore\n      0x20\n      add\n      0x00\n      keccak256\n        /* \"contracts/Profile.sol\":1130:1161  profile[msg.sender].userAddress */\n      0x06\n      add\n      0x00\n        /* \"contracts/Profile.sol\":1130:1174  profile[msg.sender].userAddress = msg.sender */\n      0x0100\n      exp\n      dup2\n      sload\n      dup2\n      0xffffffffffffffffffffffffffffffffffffffff\n      mul\n      not\n      and\n      swap1\n      dup4\n      0xffffffffffffffffffffffffffffffffffffffff\n      and\n      mul\n      or\n      swap1\n      sstore\n      pop\n        /* \"contracts/Profile.sol\":532:1191  function addBio(string memory firstName, string memory middleName, string memory lastName, string memory email, string memory phone, string memory profileImage) public {\r... */\n      pop\n      pop\n      pop\n      pop\n      pop\n      pop\n      jump\t// out\n        /* \"contracts/Profile.sol\":304:344  mapping (address => Bio) public  profile */\n    tag_13:\n      mstore(0x20, 0x00)\n      dup1\n      0x00\n      mstore\n      keccak256(0x00, 0x40)\n      0x00\n      swap2\n      pop\n      swap1\n      pop\n      dup1\n      0x00\n      add\n      dup1\n      sload\n      tag_34\n      swap1\n      tag_35\n      jump\t// in\n    tag_34:\n      dup1\n      0x1f\n      add\n      0x20\n      dup1\n      swap2\n      div\n      mul\n      0x20\n      add\n      mload(0x40)\n      swap1\n      dup2\n      add\n      0x40\n      mstore\n      dup1\n      swap3\n      swap2\n      swap1\n      dup2\n      dup2\n      mstore\n      0x20\n      add\n      dup3\n      dup1\n      sload\n      tag_36\n      swap1\n      tag_35\n      jump\t// in\n    tag_36:\n      dup1\n      iszero\n      tag_37\n      jumpi\n      dup1\n      0x1f\n      lt\n      tag_38\n      jumpi\n      0x0100\n      dup1\n      dup4\n      sload\n      div\n      mul\n      dup4\n      mstore\n      swap2\n      0x20\n      add\n      swap2\n      jump(tag_37)\n    tag_38:\n      dup3\n      add\n      swap2\n      swap1\n      0x00\n      mstore\n      keccak256(0x00, 0x20)\n      swap1\n    tag_39:\n      dup2\n      sload\n      dup2\n      mstore\n      swap1\n      0x01\n      add\n      swap1\n      0x20\n      add\n      dup1\n      dup4\n      gt\n      tag_39\n      jumpi\n      dup3\n      swap1\n      sub\n      0x1f\n      and\n      dup3\n      add\n      swap2\n    tag_37:\n      pop\n      pop\n      pop\n      pop\n      pop\n      swap1\n      dup1\n      0x01\n      add\n      dup1\n      sload\n      tag_40\n      swap1\n      tag_35\n      jump\t// in\n    tag_40:\n      dup1\n      0x1f\n      add\n      0x20\n      dup1\n      swap2\n      div\n      mul\n      0x20\n      add\n      mload(0x40)\n      swap1\n      dup2\n      add\n      0x40\n      mstore\n      dup1\n      swap3\n      swap2\n      swap1\n      dup2\n      dup2\n      mstore\n      0x20\n      add\n      dup3\n      dup1\n      sload\n      tag_41\n      swap1\n      tag_35\n      jump\t// in\n    tag_41:\n      dup1\n      iszero\n      tag_42\n      jumpi\n      dup1\n      0x1f\n      lt\n      tag_43\n      jumpi\n      0x0100\n      dup1\n      dup4\n      sload\n      div\n      mul\n      dup4\n      mstore\n      swap2\n      0x20\n      add\n      swap2\n      jump(tag_42)\n    tag_43:\n      dup3\n      add\n      swap2\n      swap1\n      0x00\n      mstore\n      keccak256(0x00, 0x20)\n      swap1\n    tag_44:\n      dup2\n      sload\n      dup2\n      mstore\n      swap1\n      0x01\n      add\n      swap1\n      0x20\n      add\n      dup1\n      dup4\n      gt\n      tag_44\n      jumpi\n      dup3\n      swap1\n      sub\n      0x1f\n      and\n      dup3\n      add\n      swap2\n    tag_42:\n      pop\n      pop\n      pop\n      pop\n      pop\n      swap1\n      dup1\n      0x02\n      add\n      dup1\n      sload\n      tag_45\n      swap1\n      tag_35\n      jump\t// in\n    tag_45:\n      dup1\n      0x1f\n      add\n      0x20\n      dup1\n      swap2\n      div\n      mul\n      0x20\n      add\n      mload(0x40)\n      swap1\n      dup2\n      add\n      0x40\n      mstore\n      dup1\n      swap3\n      swap2\n      swap1\n      dup2\n      dup2\n      mstore\n      0x20\n      add\n      dup3\n      dup1\n      sload\n      tag_46\n      swap1\n      tag_35\n      jump\t// in\n    tag_46:\n      dup1\n      iszero\n      tag_47\n      jumpi\n      dup1\n      0x1f\n      lt\n      tag_48\n      jumpi\n      0x0100\n      dup1\n      dup4\n      sload\n      div\n      mul\n      dup4\n      mstore\n      swap2\n      0x20\n      add\n      swap2\n      jump(tag_47)\n    tag_48:\n      dup3\n      add\n      swap2\n      swap1\n      0x00\n      mstore\n      keccak256(0x00, 0x20)\n      swap1\n    tag_49:\n      dup2\n      sload\n      dup2\n      mstore\n      swap1\n      0x01\n      add\n      swap1\n      0x20\n      add\n      dup1\n      dup4\n      gt\n      tag_49\n      jumpi\n      dup3\n      swap1\n      sub\n      0x1f\n      and\n      dup3\n      add\n      swap2\n    tag_47:\n      pop\n      pop\n      pop\n      pop\n      pop\n      swap1\n      dup1\n      0x03\n      add\n      dup1\n      sload\n      tag_50\n      swap1\n      tag_35\n      jump\t// in\n    tag_50:\n      dup1\n      0x1f\n      add\n      0x20\n      dup1\n      swap2\n      div\n      mul\n      0x20\n      add\n      mload(0x40)\n      swap1\n      dup2\n      add\n      0x40\n      mstore\n      dup1\n      swap3\n      swap2\n      swap1\n      dup2\n      dup2\n      mstore\n      0x20\n      add\n      dup3\n      dup1\n      sload\n      tag_51\n      swap1\n      tag_35\n      jump\t// in\n    tag_51:\n      dup1\n      iszero\n      tag_52\n      jumpi\n      dup1\n      0x1f\n      lt\n      tag_53\n      jumpi\n      0x0100\n      dup1\n      dup4\n      sload\n      div\n      mul\n      dup4\n      mstore\n      swap2\n      0x20\n      add\n      swap2\n      jump(tag_52)\n    tag_53:\n      dup3\n      add\n      swap2\n      swap1\n      0x00\n      mstore\n      keccak256(0x00, 0x20)\n      swap1\n    tag_54:\n      dup2\n      sload\n      dup2\n      mstore\n      swap1\n      0x01\n      add\n      swap1\n      0x20\n      add\n      dup1\n      dup4\n      gt\n      tag_54\n      jumpi\n      dup3\n      swap1\n      sub\n      0x1f\n      and\n      dup3\n      add\n      swap2\n    tag_52:\n      pop\n      pop\n      pop\n      pop\n      pop\n      swap1\n      dup1\n      0x04\n      add\n      dup1\n      sload\n      tag_55\n      swap1\n      tag_35\n      jump\t// in\n    tag_55:\n      dup1\n      0x1f\n      add\n      0x20\n      dup1\n      swap2\n      div\n      mul\n      0x20\n      add\n      mload(0x40)\n      swap1\n      dup2\n      add\n      0x40\n      mstore\n      dup1\n      swap3\n      swap2\n      swap1\n      dup2\n      dup2\n      mstore\n      0x20\n      add\n      dup3\n      dup1\n      sload\n      tag_56\n      swap1\n      tag_35\n      jump\t// in\n    tag_56:\n      dup1\n      iszero\n      tag_57\n      jumpi\n      dup1\n      0x1f\n      lt\n      tag_58\n      jumpi\n      0x0100\n      dup1\n      dup4\n      sload\n      div\n      mul\n      dup4\n      mstore\n      swap2\n      0x20\n      add\n      swap2\n      jump(tag_57)\n    tag_58:\n      dup3\n      add\n      swap2\n      swap1\n      0x00\n      mstore\n      keccak256(0x00, 0x20)\n      swap1\n    tag_59:\n      dup2\n      sload\n      dup2\n      mstore\n      swap1\n      0x01\n      add\n      swap1\n      0x20\n      add\n      dup1\n      dup4\n      gt\n      tag_59\n      jumpi\n      dup3\n      swap1\n      sub\n      0x1f\n      and\n      dup3\n      add\n      swap2\n    tag_57:\n      pop\n      pop\n      pop\n      pop\n      pop\n      swap1\n      dup1\n      0x05\n      add\n      dup1\n      sload\n      tag_60\n      swap1\n      tag_35\n      jump\t// in\n    tag_60:\n      dup1\n      0x1f\n      add\n      0x20\n      dup1\n      swap2\n      div\n      mul\n      0x20\n      add\n      mload(0x40)\n      swap1\n      dup2\n      add\n      0x40\n      mstore\n      dup1\n      swap3\n      swap2\n      swap1\n      dup2\n      dup2\n      mstore\n      0x20\n      add\n      dup3\n      dup1\n      sload\n      tag_61\n      swap1\n      tag_35\n      jump\t// in\n    tag_61:\n      dup1\n      iszero\n      tag_62\n      jumpi\n      dup1\n      0x1f\n      lt\n      tag_63\n      jumpi\n      0x0100\n      dup1\n      dup4\n      sload\n      div\n      mul\n      dup4\n      mstore\n      swap2\n      0x20\n      add\n      swap2\n      jump(tag_62)\n    tag_63:\n      dup3\n      add\n      swap2\n      swap1\n      0x00\n      mstore\n      keccak256(0x00, 0x20)\n      swap1\n    tag_64:\n      dup2\n      sload\n      dup2\n      mstore\n      swap1\n      0x01\n      add\n      swap1\n      0x20\n      add\n      dup1\n      dup4\n      gt\n      tag_64\n      jumpi\n      dup3\n      swap1\n      sub\n      0x1f\n      and\n      dup3\n      add\n      swap2\n    tag_62:\n      pop\n      pop\n      pop\n      pop\n      pop\n      swap1\n      dup1\n      0x06\n      add\n      0x00\n      swap1\n      sload\n      swap1\n      0x0100\n      exp\n      swap1\n      div\n      0xffffffffffffffffffffffffffffffffffffffff\n      and\n      swap1\n      pop\n      dup8\n      jump\t// out\n        /* \"contracts/Profile.sol\":1199:1273  function delProfile() public {\r... */\n    tag_17:\n        /* \"contracts/Profile.sol\":1246:1253  profile */\n      0x00\n        /* \"contracts/Profile.sol\":1246:1265  profile[msg.sender] */\n      dup1\n        /* \"contracts/Profile.sol\":1254:1264  msg.sender */\n      caller\n        /* \"contracts/Profile.sol\":1246:1265  profile[msg.sender] */\n      0xffffffffffffffffffffffffffffffffffffffff\n      and\n      0xffffffffffffffffffffffffffffffffffffffff\n      and\n      dup2\n      mstore\n      0x20\n      add\n      swap1\n      dup2\n      mstore\n      0x20\n      add\n      0x00\n      keccak256\n      0x00\n        /* \"contracts/Profile.sol\":1239:1265  delete profile[msg.sender] */\n      dup1\n      dup3\n      add\n      0x00\n      tag_66\n      swap2\n      swap1\n      tag_21\n      jump\t// in\n    tag_66:\n      0x01\n      dup3\n      add\n      0x00\n      tag_67\n      swap2\n      swap1\n      tag_21\n      jump\t// in\n    tag_67:\n      0x02\n      dup3\n      add\n      0x00\n      tag_68\n      swap2\n      swap1\n      tag_21\n      jump\t// in\n    tag_68:\n      0x03\n      dup3\n      add\n      0x00\n      tag_69\n      swap2\n      swap1\n      tag_21\n      jump\t// in\n    tag_69:\n      0x04\n      dup3\n      add\n      0x00\n      tag_70\n      swap2\n      swap1\n      tag_21\n      jump\t// in\n    tag_70:\n      0x05\n      dup3\n      add\n      0x00\n      tag_71\n      swap2\n      swap1\n      tag_21\n      jump\t// in\n    tag_71:\n      0x06\n      dup3\n      add\n      exp(0x0100, 0x00)\n      dup2\n      sload\n      swap1\n      0xffffffffffffffffffffffffffffffffffffffff\n      mul\n      not\n      and\n      swap1\n      sstore\n      pop\n      pop\n        /* \"contracts/Profile.sol\":1199:1273  function delProfile() public {\r... */\n      jump\t// out\n    tag_21:\n      pop\n      dup1\n      sload\n      tag_72\n      swap1\n      tag_35\n      jump\t// in\n    tag_72:\n      0x00\n      dup3\n      sstore\n      dup1\n      0x1f\n      lt\n      tag_74\n      jumpi\n      pop\n      jump(tag_73)\n    tag_74:\n      0x1f\n      add\n      0x20\n      swap1\n      div\n      swap1\n      0x00\n      mstore\n      keccak256(0x00, 0x20)\n      swap1\n      dup2\n      add\n      swap1\n      tag_75\n      swap2\n      swap1\n      tag_76\n      jump\t// in\n    tag_75:\n    tag_73:\n      pop\n      jump\t// out\n    tag_28:\n      dup3\n      dup1\n      sload\n      tag_77\n      swap1\n      tag_35\n      jump\t// in\n    tag_77:\n      swap1\n      0x00\n      mstore\n      keccak256(0x00, 0x20)\n      swap1\n      0x1f\n      add\n      0x20\n      swap1\n      div\n      dup2\n      add\n      swap3\n      dup3\n      tag_79\n      jumpi\n      0x00\n      dup6\n      sstore\n      jump(tag_78)\n    tag_79:\n      dup3\n      0x1f\n      lt\n      tag_80\n      jumpi\n      dup1\n      mload\n      not(0xff)\n      and\n      dup4\n      dup1\n      add\n      or\n      dup6\n      sstore\n      jump(tag_78)\n    tag_80:\n      dup3\n      dup1\n      add\n      0x01\n      add\n      dup6\n      sstore\n      dup3\n      iszero\n      tag_78\n      jumpi\n      swap2\n      dup3\n      add\n    tag_81:\n      dup3\n      dup2\n      gt\n      iszero\n      tag_82\n      jumpi\n      dup3\n      mload\n      dup3\n      sstore\n      swap2\n      0x20\n      add\n      swap2\n      swap1\n      0x01\n      add\n      swap1\n      jump(tag_81)\n    tag_82:\n    tag_78:\n      pop\n      swap1\n      pop\n      tag_83\n      swap2\n      swap1\n      tag_76\n      jump\t// in\n    tag_83:\n      pop\n      swap1\n      jump\t// out\n    tag_76:\n    tag_84:\n      dup1\n      dup3\n      gt\n      iszero\n      tag_85\n      jumpi\n      0x00\n      dup2\n      0x00\n      swap1\n      sstore\n      pop\n      0x01\n      add\n      jump(tag_84)\n    tag_85:\n      pop\n      swap1\n      jump\t// out\n        /* \"#utility.yul\":7:419   */\n    tag_87:\n        /* \"#utility.yul\":85:90   */\n      0x00\n        /* \"#utility.yul\":110:176   */\n      tag_89\n        /* \"#utility.yul\":126:175   */\n      tag_90\n        /* \"#utility.yul\":168:174   */\n      dup5\n        /* \"#utility.yul\":126:175   */\n      tag_91\n      jump\t// in\n    tag_90:\n        /* \"#utility.yul\":110:176   */\n      tag_92\n      jump\t// in\n    tag_89:\n        /* \"#utility.yul\":101:176   */\n      swap1\n      pop\n        /* \"#utility.yul\":199:205   */\n      dup3\n        /* \"#utility.yul\":192:197   */\n      dup2\n        /* \"#utility.yul\":185:206   */\n      mstore\n        /* \"#utility.yul\":237:241   */\n      0x20\n        /* \"#utility.yul\":230:235   */\n      dup2\n        /* \"#utility.yul\":226:242   */\n      add\n        /* \"#utility.yul\":275:278   */\n      dup5\n        /* \"#utility.yul\":266:272   */\n      dup5\n        /* \"#utility.yul\":261:264   */\n      dup5\n        /* \"#utility.yul\":257:273   */\n      add\n        /* \"#utility.yul\":254:279   */\n      gt\n        /* \"#utility.yul\":251:363   */\n      iszero\n      tag_93\n      jumpi\n        /* \"#utility.yul\":282:361   */\n      tag_94\n      tag_95\n      jump\t// in\n    tag_94:\n        /* \"#utility.yul\":251:363   */\n    tag_93:\n        /* \"#utility.yul\":372:413   */\n      tag_96\n        /* \"#utility.yul\":406:412   */\n      dup5\n        /* \"#utility.yul\":401:404   */\n      dup3\n        /* \"#utility.yul\":396:399   */\n      dup6\n        /* \"#utility.yul\":372:413   */\n      tag_97\n      jump\t// in\n    tag_96:\n        /* \"#utility.yul\":91:419   */\n      pop\n        /* \"#utility.yul\":7:419   */\n      swap4\n      swap3\n      pop\n      pop\n      pop\n      jump\t// out\n        /* \"#utility.yul\":425:564   */\n    tag_98:\n        /* \"#utility.yul\":471:476   */\n      0x00\n        /* \"#utility.yul\":509:515   */\n      dup2\n        /* \"#utility.yul\":496:516   */\n      calldataload\n        /* \"#utility.yul\":487:516   */\n      swap1\n      pop\n        /* \"#utility.yul\":525:558   */\n      tag_100\n        /* \"#utility.yul\":552:557   */\n      dup2\n        /* \"#utility.yul\":525:558   */\n      tag_101\n      jump\t// in\n    tag_100:\n        /* \"#utility.yul\":425:564   */\n      swap3\n      swap2\n      pop\n      pop\n      jump\t// out\n        /* \"#utility.yul\":584:924   */\n    tag_102:\n        /* \"#utility.yul\":640:645   */\n      0x00\n        /* \"#utility.yul\":689:692   */\n      dup3\n        /* \"#utility.yul\":682:686   */\n      0x1f\n        /* \"#utility.yul\":674:680   */\n      dup4\n        /* \"#utility.yul\":670:687   */\n      add\n        /* \"#utility.yul\":666:693   */\n      slt\n        /* \"#utility.yul\":656:778   */\n      tag_104\n      jumpi\n        /* \"#utility.yul\":697:776   */\n      tag_105\n      tag_106\n      jump\t// in\n    tag_105:\n        /* \"#utility.yul\":656:778   */\n    tag_104:\n        /* \"#utility.yul\":814:820   */\n      dup2\n        /* \"#utility.yul\":801:821   */\n      calldataload\n        /* \"#utility.yul\":839:918   */\n      tag_107\n        /* \"#utility.yul\":914:917   */\n      dup5\n        /* \"#utility.yul\":906:912   */\n      dup3\n        /* \"#utility.yul\":899:903   */\n      0x20\n        /* \"#utility.yul\":891:897   */\n      dup7\n        /* \"#utility.yul\":887:904   */\n      add\n        /* \"#utility.yul\":839:918   */\n      tag_87\n      jump\t// in\n    tag_107:\n        /* \"#utility.yul\":830:918   */\n      swap2\n      pop\n        /* \"#utility.yul\":646:924   */\n      pop\n        /* \"#utility.yul\":584:924   */\n      swap3\n      swap2\n      pop\n      pop\n      jump\t// out\n        /* \"#utility.yul\":930:1259   */\n    tag_12:\n        /* \"#utility.yul\":989:995   */\n      0x00\n        /* \"#utility.yul\":1038:1040   */\n      0x20\n        /* \"#utility.yul\":1026:1035   */\n      dup3\n        /* \"#utility.yul\":1017:1024   */\n      dup5\n        /* \"#utility.yul\":1013:1036   */\n      sub\n        /* \"#utility.yul\":1009:1041   */\n      slt\n        /* \"#utility.yul\":1006:1125   */\n      iszero\n      tag_109\n      jumpi\n        /* \"#utility.yul\":1044:1123   */\n      tag_110\n      tag_111\n      jump\t// in\n    tag_110:\n        /* \"#utility.yul\":1006:1125   */\n    tag_109:\n        /* \"#utility.yul\":1164:1165   */\n      0x00\n        /* \"#utility.yul\":1189:1242   */\n      tag_112\n        /* \"#utility.yul\":1234:1241   */\n      dup5\n        /* \"#utility.yul\":1225:1231   */\n      dup3\n        /* \"#utility.yul\":1214:1223   */\n      dup6\n        /* \"#utility.yul\":1210:1232   */\n      add\n        /* \"#utility.yul\":1189:1242   */\n      tag_98\n      jump\t// in\n    tag_112:\n        /* \"#utility.yul\":1179:1242   */\n      swap2\n      pop\n        /* \"#utility.yul\":1135:1252   */\n      pop\n        /* \"#utility.yul\":930:1259   */\n      swap3\n      swap2\n      pop\n      pop\n      jump\t// out\n        /* \"#utility.yul\":1265:3402   */\n    tag_8:\n        /* \"#utility.yul\":1429:1435   */\n      0x00\n        /* \"#utility.yul\":1437:1443   */\n      dup1\n        /* \"#utility.yul\":1445:1451   */\n      0x00\n        /* \"#utility.yul\":1453:1459   */\n      dup1\n        /* \"#utility.yul\":1461:1467   */\n      0x00\n        /* \"#utility.yul\":1469:1475   */\n      dup1\n        /* \"#utility.yul\":1518:1521   */\n      0xc0\n        /* \"#utility.yul\":1506:1515   */\n      dup8\n        /* \"#utility.yul\":1497:1504   */\n      dup10\n        /* \"#utility.yul\":1493:1516   */\n      sub\n        /* \"#utility.yul\":1489:1522   */\n      slt\n        /* \"#utility.yul\":1486:1606   */\n      iszero\n      tag_114\n      jumpi\n        /* \"#utility.yul\":1525:1604   */\n      tag_115\n      tag_111\n      jump\t// in\n    tag_115:\n        /* \"#utility.yul\":1486:1606   */\n    tag_114:\n        /* \"#utility.yul\":1673:1674   */\n      0x00\n        /* \"#utility.yul\":1662:1671   */\n      dup8\n        /* \"#utility.yul\":1658:1675   */\n      add\n        /* \"#utility.yul\":1645:1676   */\n      calldataload\n        /* \"#utility.yul\":1703:1721   */\n      0xffffffffffffffff\n        /* \"#utility.yul\":1695:1701   */\n      dup2\n        /* \"#utility.yul\":1692:1722   */\n      gt\n        /* \"#utility.yul\":1689:1806   */\n      iszero\n      tag_116\n      jumpi\n        /* \"#utility.yul\":1725:1804   */\n      tag_117\n      tag_118\n      jump\t// in\n    tag_117:\n        /* \"#utility.yul\":1689:1806   */\n    tag_116:\n        /* \"#utility.yul\":1830:1893   */\n      tag_119\n        /* \"#utility.yul\":1885:1892   */\n      dup10\n        /* \"#utility.yul\":1876:1882   */\n      dup3\n        /* \"#utility.yul\":1865:1874   */\n      dup11\n        /* \"#utility.yul\":1861:1883   */\n      add\n        /* \"#utility.yul\":1830:1893   */\n      tag_102\n      jump\t// in\n    tag_119:\n        /* \"#utility.yul\":1820:1893   */\n      swap7\n      pop\n        /* \"#utility.yul\":1616:1903   */\n      pop\n        /* \"#utility.yul\":1970:1972   */\n      0x20\n        /* \"#utility.yul\":1959:1968   */\n      dup8\n        /* \"#utility.yul\":1955:1973   */\n      add\n        /* \"#utility.yul\":1942:1974   */\n      calldataload\n        /* \"#utility.yul\":2001:2019   */\n      0xffffffffffffffff\n        /* \"#utility.yul\":1993:1999   */\n      dup2\n        /* \"#utility.yul\":1990:2020   */\n      gt\n        /* \"#utility.yul\":1987:2104   */\n      iszero\n      tag_120\n      jumpi\n        /* \"#utility.yul\":2023:2102   */\n      tag_121\n      tag_118\n      jump\t// in\n    tag_121:\n        /* \"#utility.yul\":1987:2104   */\n    tag_120:\n        /* \"#utility.yul\":2128:2191   */\n      tag_122\n        /* \"#utility.yul\":2183:2190   */\n      dup10\n        /* \"#utility.yul\":2174:2180   */\n      dup3\n        /* \"#utility.yul\":2163:2172   */\n      dup11\n        /* \"#utility.yul\":2159:2181   */\n      add\n        /* \"#utility.yul\":2128:2191   */\n      tag_102\n      jump\t// in\n    tag_122:\n        /* \"#utility.yul\":2118:2191   */\n      swap6\n      pop\n        /* \"#utility.yul\":1913:2201   */\n      pop\n        /* \"#utility.yul\":2268:2270   */\n      0x40\n        /* \"#utility.yul\":2257:2266   */\n      dup8\n        /* \"#utility.yul\":2253:2271   */\n      add\n        /* \"#utility.yul\":2240:2272   */\n      calldataload\n        /* \"#utility.yul\":2299:2317   */\n      0xffffffffffffffff\n        /* \"#utility.yul\":2291:2297   */\n      dup2\n        /* \"#utility.yul\":2288:2318   */\n      gt\n        /* \"#utility.yul\":2285:2402   */\n      iszero\n      tag_123\n      jumpi\n        /* \"#utility.yul\":2321:2400   */\n      tag_124\n      tag_118\n      jump\t// in\n    tag_124:\n        /* \"#utility.yul\":2285:2402   */\n    tag_123:\n        /* \"#utility.yul\":2426:2489   */\n      tag_125\n        /* \"#utility.yul\":2481:2488   */\n      dup10\n        /* \"#utility.yul\":2472:2478   */\n      dup3\n        /* \"#utility.yul\":2461:2470   */\n      dup11\n        /* \"#utility.yul\":2457:2479   */\n      add\n        /* \"#utility.yul\":2426:2489   */\n      tag_102\n      jump\t// in\n    tag_125:\n        /* \"#utility.yul\":2416:2489   */\n      swap5\n      pop\n        /* \"#utility.yul\":2211:2499   */\n      pop\n        /* \"#utility.yul\":2566:2568   */\n      0x60\n        /* \"#utility.yul\":2555:2564   */\n      dup8\n        /* \"#utility.yul\":2551:2569   */\n      add\n        /* \"#utility.yul\":2538:2570   */\n      calldataload\n        /* \"#utility.yul\":2597:2615   */\n      0xffffffffffffffff\n        /* \"#utility.yul\":2589:2595   */\n      dup2\n        /* \"#utility.yul\":2586:2616   */\n      gt\n        /* \"#utility.yul\":2583:2700   */\n      iszero\n      tag_126\n      jumpi\n        /* \"#utility.yul\":2619:2698   */\n      tag_127\n      tag_118\n      jump\t// in\n    tag_127:\n        /* \"#utility.yul\":2583:2700   */\n    tag_126:\n        /* \"#utility.yul\":2724:2787   */\n      tag_128\n        /* \"#utility.yul\":2779:2786   */\n      dup10\n        /* \"#utility.yul\":2770:2776   */\n      dup3\n        /* \"#utility.yul\":2759:2768   */\n      dup11\n        /* \"#utility.yul\":2755:2777   */\n      add\n        /* \"#utility.yul\":2724:2787   */\n      tag_102\n      jump\t// in\n    tag_128:\n        /* \"#utility.yul\":2714:2787   */\n      swap4\n      pop\n        /* \"#utility.yul\":2509:2797   */\n      pop\n        /* \"#utility.yul\":2864:2867   */\n      0x80\n        /* \"#utility.yul\":2853:2862   */\n      dup8\n        /* \"#utility.yul\":2849:2868   */\n      add\n        /* \"#utility.yul\":2836:2869   */\n      calldataload\n        /* \"#utility.yul\":2896:2914   */\n      0xffffffffffffffff\n        /* \"#utility.yul\":2888:2894   */\n      dup2\n        /* \"#utility.yul\":2885:2915   */\n      gt\n        /* \"#utility.yul\":2882:2999   */\n      iszero\n      tag_129\n      jumpi\n        /* \"#utility.yul\":2918:2997   */\n      tag_130\n      tag_118\n      jump\t// in\n    tag_130:\n        /* \"#utility.yul\":2882:2999   */\n    tag_129:\n        /* \"#utility.yul\":3023:3086   */\n      tag_131\n        /* \"#utility.yul\":3078:3085   */\n      dup10\n        /* \"#utility.yul\":3069:3075   */\n      dup3\n        /* \"#utility.yul\":3058:3067   */\n      dup11\n        /* \"#utility.yul\":3054:3076   */\n      add\n        /* \"#utility.yul\":3023:3086   */\n      tag_102\n      jump\t// in\n    tag_131:\n        /* \"#utility.yul\":3013:3086   */\n      swap3\n      pop\n        /* \"#utility.yul\":2807:3096   */\n      pop\n        /* \"#utility.yul\":3163:3166   */\n      0xa0\n        /* \"#utility.yul\":3152:3161   */\n      dup8\n        /* \"#utility.yul\":3148:3167   */\n      add\n        /* \"#utility.yul\":3135:3168   */\n      calldataload\n        /* \"#utility.yul\":3195:3213   */\n      0xffffffffffffffff\n        /* \"#utility.yul\":3187:3193   */\n      dup2\n        /* \"#utility.yul\":3184:3214   */\n      gt\n        /* \"#utility.yul\":3181:3298   */\n      iszero\n      tag_132\n      jumpi\n        /* \"#utility.yul\":3217:3296   */\n      tag_133\n      tag_118\n      jump\t// in\n    tag_133:\n        /* \"#utility.yul\":3181:3298   */\n    tag_132:\n        /* \"#utility.yul\":3322:3385   */\n      tag_134\n        /* \"#utility.yul\":3377:3384   */\n      dup10\n        /* \"#utility.yul\":3368:3374   */\n      dup3\n        /* \"#utility.yul\":3357:3366   */\n      dup11\n        /* \"#utility.yul\":3353:3375   */\n      add\n        /* \"#utility.yul\":3322:3385   */\n      tag_102\n      jump\t// in\n    tag_134:\n        /* \"#utility.yul\":3312:3385   */\n      swap2\n      pop\n        /* \"#utility.yul\":3106:3395   */\n      pop\n        /* \"#utility.yul\":1265:3402   */\n      swap3\n      swap6\n      pop\n      swap3\n      swap6\n      pop\n      swap3\n      swap6\n      jump\t// out\n        /* \"#utility.yul\":3408:3526   */\n    tag_135:\n        /* \"#utility.yul\":3495:3519   */\n      tag_137\n        /* \"#utility.yul\":3513:3518   */\n      dup2\n        /* \"#utility.yul\":3495:3519   */\n      tag_138\n      jump\t// in\n    tag_137:\n        /* \"#utility.yul\":3490:3493   */\n      dup3\n        /* \"#utility.yul\":3483:3520   */\n      mstore\n        /* \"#utility.yul\":3408:3526   */\n      pop\n      pop\n      jump\t// out\n        /* \"#utility.yul\":3532:3896   */\n    tag_139:\n        /* \"#utility.yul\":3620:3623   */\n      0x00\n        /* \"#utility.yul\":3648:3687   */\n      tag_141\n        /* \"#utility.yul\":3681:3686   */\n      dup3\n        /* \"#utility.yul\":3648:3687   */\n      tag_142\n      jump\t// in\n    tag_141:\n        /* \"#utility.yul\":3703:3774   */\n      tag_143\n        /* \"#utility.yul\":3767:3773   */\n      dup2\n        /* \"#utility.yul\":3762:3765   */\n      dup6\n        /* \"#utility.yul\":3703:3774   */\n      tag_144\n      jump\t// in\n    tag_143:\n        /* \"#utility.yul\":3696:3774   */\n      swap4\n      pop\n        /* \"#utility.yul\":3783:3835   */\n      tag_145\n        /* \"#utility.yul\":3828:3834   */\n      dup2\n        /* \"#utility.yul\":3823:3826   */\n      dup6\n        /* \"#utility.yul\":3816:3820   */\n      0x20\n        /* \"#utility.yul\":3809:3814   */\n      dup7\n        /* \"#utility.yul\":3805:3821   */\n      add\n        /* \"#utility.yul\":3783:3835   */\n      tag_146\n      jump\t// in\n    tag_145:\n        /* \"#utility.yul\":3860:3889   */\n      tag_147\n        /* \"#utility.yul\":3882:3888   */\n      dup2\n        /* \"#utility.yul\":3860:3889   */\n      tag_148\n      jump\t// in\n    tag_147:\n        /* \"#utility.yul\":3855:3858   */\n      dup5\n        /* \"#utility.yul\":3851:3890   */\n      add\n        /* \"#utility.yul\":3844:3890   */\n      swap2\n      pop\n        /* \"#utility.yul\":3624:3896   */\n      pop\n        /* \"#utility.yul\":3532:3896   */\n      swap3\n      swap2\n      pop\n      pop\n      jump\t// out\n        /* \"#utility.yul\":3902:5334   */\n    tag_15:\n        /* \"#utility.yul\":4283:4287   */\n      0x00\n        /* \"#utility.yul\":4321:4324   */\n      0xe0\n        /* \"#utility.yul\":4310:4319   */\n      dup3\n        /* \"#utility.yul\":4306:4325   */\n      add\n        /* \"#utility.yul\":4298:4325   */\n      swap1\n      pop\n        /* \"#utility.yul\":4371:4380   */\n      dup2\n        /* \"#utility.yul\":4365:4369   */\n      dup2\n        /* \"#utility.yul\":4361:4381   */\n      sub\n        /* \"#utility.yul\":4357:4358   */\n      0x00\n        /* \"#utility.yul\":4346:4355   */\n      dup4\n        /* \"#utility.yul\":4342:4359   */\n      add\n        /* \"#utility.yul\":4335:4382   */\n      mstore\n        /* \"#utility.yul\":4399:4477   */\n      tag_150\n        /* \"#utility.yul\":4472:4476   */\n      dup2\n        /* \"#utility.yul\":4463:4469   */\n      dup11\n        /* \"#utility.yul\":4399:4477   */\n      tag_139\n      jump\t// in\n    tag_150:\n        /* \"#utility.yul\":4391:4477   */\n      swap1\n      pop\n        /* \"#utility.yul\":4524:4533   */\n      dup2\n        /* \"#utility.yul\":4518:4522   */\n      dup2\n        /* \"#utility.yul\":4514:4534   */\n      sub\n        /* \"#utility.yul\":4509:4511   */\n      0x20\n        /* \"#utility.yul\":4498:4507   */\n      dup4\n        /* \"#utility.yul\":4494:4512   */\n      add\n        /* \"#utility.yul\":4487:4535   */\n      mstore\n        /* \"#utility.yul\":4552:4630   */\n      tag_151\n        /* \"#utility.yul\":4625:4629   */\n      dup2\n        /* \"#utility.yul\":4616:4622   */\n      dup10\n        /* \"#utility.yul\":4552:4630   */\n      tag_139\n      jump\t// in\n    tag_151:\n        /* \"#utility.yul\":4544:4630   */\n      swap1\n      pop\n        /* \"#utility.yul\":4677:4686   */\n      dup2\n        /* \"#utility.yul\":4671:4675   */\n      dup2\n        /* \"#utility.yul\":4667:4687   */\n      sub\n        /* \"#utility.yul\":4662:4664   */\n      0x40\n        /* \"#utility.yul\":4651:4660   */\n      dup4\n        /* \"#utility.yul\":4647:4665   */\n      add\n        /* \"#utility.yul\":4640:4688   */\n      mstore\n        /* \"#utility.yul\":4705:4783   */\n      tag_152\n        /* \"#utility.yul\":4778:4782   */\n      dup2\n        /* \"#utility.yul\":4769:4775   */\n      dup9\n        /* \"#utility.yul\":4705:4783   */\n      tag_139\n      jump\t// in\n    tag_152:\n        /* \"#utility.yul\":4697:4783   */\n      swap1\n      pop\n        /* \"#utility.yul\":4830:4839   */\n      dup2\n        /* \"#utility.yul\":4824:4828   */\n      dup2\n        /* \"#utility.yul\":4820:4840   */\n      sub\n        /* \"#utility.yul\":4815:4817   */\n      0x60\n        /* \"#utility.yul\":4804:4813   */\n      dup4\n        /* \"#utility.yul\":4800:4818   */\n      add\n        /* \"#utility.yul\":4793:4841   */\n      mstore\n        /* \"#utility.yul\":4858:4936   */\n      tag_153\n        /* \"#utility.yul\":4931:4935   */\n      dup2\n        /* \"#utility.yul\":4922:4928   */\n      dup8\n        /* \"#utility.yul\":4858:4936   */\n      tag_139\n      jump\t// in\n    tag_153:\n        /* \"#utility.yul\":4850:4936   */\n      swap1\n      pop\n        /* \"#utility.yul\":4984:4993   */\n      dup2\n        /* \"#utility.yul\":4978:4982   */\n      dup2\n        /* \"#utility.yul\":4974:4994   */\n      sub\n        /* \"#utility.yul\":4968:4971   */\n      0x80\n        /* \"#utility.yul\":4957:4966   */\n      dup4\n        /* \"#utility.yul\":4953:4972   */\n      add\n        /* \"#utility.yul\":4946:4995   */\n      mstore\n        /* \"#utility.yul\":5012:5090   */\n      tag_154\n        /* \"#utility.yul\":5085:5089   */\n      dup2\n        /* \"#utility.yul\":5076:5082   */\n      dup7\n        /* \"#utility.yul\":5012:5090   */\n      tag_139\n      jump\t// in\n    tag_154:\n        /* \"#utility.yul\":5004:5090   */\n      swap1\n      pop\n        /* \"#utility.yul\":5138:5147   */\n      dup2\n        /* \"#utility.yul\":5132:5136   */\n      dup2\n        /* \"#utility.yul\":5128:5148   */\n      sub\n        /* \"#utility.yul\":5122:5125   */\n      0xa0\n        /* \"#utility.yul\":5111:5120   */\n      dup4\n        /* \"#utility.yul\":5107:5126   */\n      add\n        /* \"#utility.yul\":5100:5149   */\n      mstore\n        /* \"#utility.yul\":5166:5244   */\n      tag_155\n        /* \"#utility.yul\":5239:5243   */\n      dup2\n        /* \"#utility.yul\":5230:5236   */\n      dup6\n        /* \"#utility.yul\":5166:5244   */\n      tag_139\n      jump\t// in\n    tag_155:\n        /* \"#utility.yul\":5158:5244   */\n      swap1\n      pop\n        /* \"#utility.yul\":5254:5327   */\n      tag_156\n        /* \"#utility.yul\":5322:5325   */\n      0xc0\n        /* \"#utility.yul\":5311:5320   */\n      dup4\n        /* \"#utility.yul\":5307:5326   */\n      add\n        /* \"#utility.yul\":5298:5304   */\n      dup5\n        /* \"#utility.yul\":5254:5327   */\n      tag_135\n      jump\t// in\n    tag_156:\n        /* \"#utility.yul\":3902:5334   */\n      swap9\n      swap8\n      pop\n      pop\n      pop\n      pop\n      pop\n      pop\n      pop\n      pop\n      jump\t// out\n        /* \"#utility.yul\":5340:5469   */\n    tag_92:\n        /* \"#utility.yul\":5374:5380   */\n      0x00\n        /* \"#utility.yul\":5401:5421   */\n      tag_158\n      tag_159\n      jump\t// in\n    tag_158:\n        /* \"#utility.yul\":5391:5421   */\n      swap1\n      pop\n        /* \"#utility.yul\":5430:5463   */\n      tag_160\n        /* \"#utility.yul\":5458:5462   */\n      dup3\n        /* \"#utility.yul\":5450:5456   */\n      dup3\n        /* \"#utility.yul\":5430:5463   */\n      tag_161\n      jump\t// in\n    tag_160:\n        /* \"#utility.yul\":5340:5469   */\n      swap2\n      swap1\n      pop\n      jump\t// out\n        /* \"#utility.yul\":5475:5550   */\n    tag_159:\n        /* \"#utility.yul\":5508:5514   */\n      0x00\n        /* \"#utility.yul\":5541:5543   */\n      0x40\n        /* \"#utility.yul\":5535:5544   */\n      mload\n        /* \"#utility.yul\":5525:5544   */\n      swap1\n      pop\n        /* \"#utility.yul\":5475:5550   */\n      swap1\n      jump\t// out\n        /* \"#utility.yul\":5556:5864   */\n    tag_91:\n        /* \"#utility.yul\":5618:5622   */\n      0x00\n        /* \"#utility.yul\":5708:5726   */\n      0xffffffffffffffff\n        /* \"#utility.yul\":5700:5706   */\n      dup3\n        /* \"#utility.yul\":5697:5727   */\n      gt\n        /* \"#utility.yul\":5694:5750   */\n      iszero\n      tag_164\n      jumpi\n        /* \"#utility.yul\":5730:5748   */\n      tag_165\n      tag_166\n      jump\t// in\n    tag_165:\n        /* \"#utility.yul\":5694:5750   */\n    tag_164:\n        /* \"#utility.yul\":5768:5797   */\n      tag_167\n        /* \"#utility.yul\":5790:5796   */\n      dup3\n        /* \"#utility.yul\":5768:5797   */\n      tag_148\n      jump\t// in\n    tag_167:\n        /* \"#utility.yul\":5760:5797   */\n      swap1\n      pop\n        /* \"#utility.yul\":5852:5856   */\n      0x20\n        /* \"#utility.yul\":5846:5850   */\n      dup2\n        /* \"#utility.yul\":5842:5857   */\n      add\n        /* \"#utility.yul\":5834:5857   */\n      swap1\n      pop\n        /* \"#utility.yul\":5556:5864   */\n      swap2\n      swap1\n      pop\n      jump\t// out\n        /* \"#utility.yul\":5870:5969   */\n    tag_142:\n        /* \"#utility.yul\":5922:5928   */\n      0x00\n        /* \"#utility.yul\":5956:5961   */\n      dup2\n        /* \"#utility.yul\":5950:5962   */\n      mload\n        /* \"#utility.yul\":5940:5962   */\n      swap1\n      pop\n        /* \"#utility.yul\":5870:5969   */\n      swap2\n      swap1\n      pop\n      jump\t// out\n        /* \"#utility.yul\":5975:6144   */\n    tag_144:\n        /* \"#utility.yul\":6059:6070   */\n      0x00\n        /* \"#utility.yul\":6093:6099   */\n      dup3\n        /* \"#utility.yul\":6088:6091   */\n      dup3\n        /* \"#utility.yul\":6081:6100   */\n      mstore\n        /* \"#utility.yul\":6133:6137   */\n      0x20\n        /* \"#utility.yul\":6128:6131   */\n      dup3\n        /* \"#utility.yul\":6124:6138   */\n      add\n        /* \"#utility.yul\":6109:6138   */\n      swap1\n      pop\n        /* \"#utility.yul\":5975:6144   */\n      swap3\n      swap2\n      pop\n      pop\n      jump\t// out\n        /* \"#utility.yul\":6150:6246   */\n    tag_138:\n        /* \"#utility.yul\":6187:6194   */\n      0x00\n        /* \"#utility.yul\":6216:6240   */\n      tag_171\n        /* \"#utility.yul\":6234:6239   */\n      dup3\n        /* \"#utility.yul\":6216:6240   */\n      tag_172\n      jump\t// in\n    tag_171:\n        /* \"#utility.yul\":6205:6240   */\n      swap1\n      pop\n        /* \"#utility.yul\":6150:6246   */\n      swap2\n      swap1\n      pop\n      jump\t// out\n        /* \"#utility.yul\":6252:6378   */\n    tag_172:\n        /* \"#utility.yul\":6289:6296   */\n      0x00\n        /* \"#utility.yul\":6329:6371   */\n      0xffffffffffffffffffffffffffffffffffffffff\n        /* \"#utility.yul\":6322:6327   */\n      dup3\n        /* \"#utility.yul\":6318:6372   */\n      and\n        /* \"#utility.yul\":6307:6372   */\n      swap1\n      pop\n        /* \"#utility.yul\":6252:6378   */\n      swap2\n      swap1\n      pop\n      jump\t// out\n        /* \"#utility.yul\":6384:6538   */\n    tag_97:\n        /* \"#utility.yul\":6468:6474   */\n      dup3\n        /* \"#utility.yul\":6463:6466   */\n      dup2\n        /* \"#utility.yul\":6458:6461   */\n      dup4\n        /* \"#utility.yul\":6445:6475   */\n      calldatacopy\n        /* \"#utility.yul\":6530:6531   */\n      0x00\n        /* \"#utility.yul\":6521:6527   */\n      dup4\n        /* \"#utility.yul\":6516:6519   */\n      dup4\n        /* \"#utility.yul\":6512:6528   */\n      add\n        /* \"#utility.yul\":6505:6532   */\n      mstore\n        /* \"#utility.yul\":6384:6538   */\n      pop\n      pop\n      pop\n      jump\t// out\n        /* \"#utility.yul\":6544:6851   */\n    tag_146:\n        /* \"#utility.yul\":6612:6613   */\n      0x00\n        /* \"#utility.yul\":6622:6735   */\n    tag_176:\n        /* \"#utility.yul\":6636:6642   */\n      dup4\n        /* \"#utility.yul\":6633:6634   */\n      dup2\n        /* \"#utility.yul\":6630:6643   */\n      lt\n        /* \"#utility.yul\":6622:6735   */\n      iszero\n      tag_178\n      jumpi\n        /* \"#utility.yul\":6721:6722   */\n      dup1\n        /* \"#utility.yul\":6716:6719   */\n      dup3\n        /* \"#utility.yul\":6712:6723   */\n      add\n        /* \"#utility.yul\":6706:6724   */\n      mload\n        /* \"#utility.yul\":6702:6703   */\n      dup2\n        /* \"#utility.yul\":6697:6700   */\n      dup5\n        /* \"#utility.yul\":6693:6704   */\n      add\n        /* \"#utility.yul\":6686:6725   */\n      mstore\n        /* \"#utility.yul\":6658:6660   */\n      0x20\n        /* \"#utility.yul\":6655:6656   */\n      dup2\n        /* \"#utility.yul\":6651:6661   */\n      add\n        /* \"#utility.yul\":6646:6661   */\n      swap1\n      pop\n        /* \"#utility.yul\":6622:6735   */\n      jump(tag_176)\n    tag_178:\n        /* \"#utility.yul\":6753:6759   */\n      dup4\n        /* \"#utility.yul\":6750:6751   */\n      dup2\n        /* \"#utility.yul\":6747:6760   */\n      gt\n        /* \"#utility.yul\":6744:6845   */\n      iszero\n      tag_179\n      jumpi\n        /* \"#utility.yul\":6833:6834   */\n      0x00\n        /* \"#utility.yul\":6824:6830   */\n      dup5\n        /* \"#utility.yul\":6819:6822   */\n      dup5\n        /* \"#utility.yul\":6815:6831   */\n      add\n        /* \"#utility.yul\":6808:6835   */\n      mstore\n        /* \"#utility.yul\":6744:6845   */\n    tag_179:\n        /* \"#utility.yul\":6593:6851   */\n      pop\n        /* \"#utility.yul\":6544:6851   */\n      pop\n      pop\n      pop\n      jump\t// out\n        /* \"#utility.yul\":6857:7177   */\n    tag_35:\n        /* \"#utility.yul\":6901:6907   */\n      0x00\n        /* \"#utility.yul\":6938:6939   */\n      0x02\n        /* \"#utility.yul\":6932:6936   */\n      dup3\n        /* \"#utility.yul\":6928:6940   */\n      div\n        /* \"#utility.yul\":6918:6940   */\n      swap1\n      pop\n        /* \"#utility.yul\":6985:6986   */\n      0x01\n        /* \"#utility.yul\":6979:6983   */\n      dup3\n        /* \"#utility.yul\":6975:6987   */\n      and\n        /* \"#utility.yul\":7006:7024   */\n      dup1\n        /* \"#utility.yul\":6996:7077   */\n      tag_181\n      jumpi\n        /* \"#utility.yul\":7062:7066   */\n      0x7f\n        /* \"#utility.yul\":7054:7060   */\n      dup3\n        /* \"#utility.yul\":7050:7067   */\n      and\n        /* \"#utility.yul\":7040:7067   */\n      swap2\n      pop\n        /* \"#utility.yul\":6996:7077   */\n    tag_181:\n        /* \"#utility.yul\":7124:7126   */\n      0x20\n        /* \"#utility.yul\":7116:7122   */\n      dup3\n        /* \"#utility.yul\":7113:7127   */\n      lt\n        /* \"#utility.yul\":7093:7111   */\n      dup2\n        /* \"#utility.yul\":7090:7128   */\n      eq\n        /* \"#utility.yul\":7087:7171   */\n      iszero\n      tag_182\n      jumpi\n        /* \"#utility.yul\":7143:7161   */\n      tag_183\n      tag_184\n      jump\t// in\n    tag_183:\n        /* \"#utility.yul\":7087:7171   */\n    tag_182:\n        /* \"#utility.yul\":6908:7177   */\n      pop\n        /* \"#utility.yul\":6857:7177   */\n      swap2\n      swap1\n      pop\n      jump\t// out\n        /* \"#utility.yul\":7183:7464   */\n    tag_161:\n        /* \"#utility.yul\":7266:7293   */\n      tag_186\n        /* \"#utility.yul\":7288:7292   */\n      dup3\n        /* \"#utility.yul\":7266:7293   */\n      tag_148\n      jump\t// in\n    tag_186:\n        /* \"#utility.yul\":7258:7264   */\n      dup2\n        /* \"#utility.yul\":7254:7294   */\n      add\n        /* \"#utility.yul\":7396:7402   */\n      dup2\n        /* \"#utility.yul\":7384:7394   */\n      dup2\n        /* \"#utility.yul\":7381:7403   */\n      lt\n        /* \"#utility.yul\":7360:7378   */\n      0xffffffffffffffff\n        /* \"#utility.yul\":7348:7358   */\n      dup3\n        /* \"#utility.yul\":7345:7379   */\n      gt\n        /* \"#utility.yul\":7342:7404   */\n      or\n        /* \"#utility.yul\":7339:7427   */\n      iszero\n      tag_187\n      jumpi\n        /* \"#utility.yul\":7407:7425   */\n      tag_188\n      tag_166\n      jump\t// in\n    tag_188:\n        /* \"#utility.yul\":7339:7427   */\n    tag_187:\n        /* \"#utility.yul\":7447:7457   */\n      dup1\n        /* \"#utility.yul\":7443:7445   */\n      0x40\n        /* \"#utility.yul\":7436:7458   */\n      mstore\n        /* \"#utility.yul\":7226:7464   */\n      pop\n        /* \"#utility.yul\":7183:7464   */\n      pop\n      pop\n      jump\t// out\n        /* \"#utility.yul\":7470:7650   */\n    tag_184:\n        /* \"#utility.yul\":7518:7595   */\n      0x4e487b7100000000000000000000000000000000000000000000000000000000\n        /* \"#utility.yul\":7515:7516   */\n      0x00\n        /* \"#utility.yul\":7508:7596   */\n      mstore\n        /* \"#utility.yul\":7615:7619   */\n      0x22\n        /* \"#utility.yul\":7612:7613   */\n      0x04\n        /* \"#utility.yul\":7605:7620   */\n      mstore\n        /* \"#utility.yul\":7639:7643   */\n      0x24\n        /* \"#utility.yul\":7636:7637   */\n      0x00\n        /* \"#utility.yul\":7629:7644   */\n      revert\n        /* \"#utility.yul\":7656:7836   */\n    tag_166:\n        /* \"#utility.yul\":7704:7781   */\n      0x4e487b7100000000000000000000000000000000000000000000000000000000\n        /* \"#utility.yul\":7701:7702   */\n      0x00\n        /* \"#utility.yul\":7694:7782   */\n      mstore\n        /* \"#utility.yul\":7801:7805   */\n      0x41\n        /* \"#utility.yul\":7798:7799   */\n      0x04\n        /* \"#utility.yul\":7791:7806   */\n      mstore\n        /* \"#utility.yul\":7825:7829   */\n      0x24\n        /* \"#utility.yul\":7822:7823   */\n      0x00\n        /* \"#utility.yul\":7815:7830   */\n      revert\n        /* \"#utility.yul\":7842:7959   */\n    tag_106:\n        /* \"#utility.yul\":7951:7952   */\n      0x00\n        /* \"#utility.yul\":7948:7949   */\n      dup1\n        /* \"#utility.yul\":7941:7953   */\n      revert\n        /* \"#utility.yul\":7965:8082   */\n    tag_95:\n        /* \"#utility.yul\":8074:8075   */\n      0x00\n        /* \"#utility.yul\":8071:8072   */\n      dup1\n        /* \"#utility.yul\":8064:8076   */\n      revert\n        /* \"#utility.yul\":8088:8205   */\n    tag_118:\n        /* \"#utility.yul\":8197:8198   */\n      0x00\n        /* \"#utility.yul\":8194:8195   */\n      dup1\n        /* \"#utility.yul\":8187:8199   */\n      revert\n        /* \"#utility.yul\":8211:8328   */\n    tag_111:\n        /* \"#utility.yul\":8320:8321   */\n      0x00\n        /* \"#utility.yul\":8317:8318   */\n      dup1\n        /* \"#utility.yul\":8310:8322   */\n      revert\n        /* \"#utility.yul\":8334:8436   */\n    tag_148:\n        /* \"#utility.yul\":8375:8381   */\n      0x00\n        /* \"#utility.yul\":8426:8428   */\n      0x1f\n        /* \"#utility.yul\":8422:8429   */\n      not\n        /* \"#utility.yul\":8417:8419   */\n      0x1f\n        /* \"#utility.yul\":8410:8415   */\n      dup4\n        /* \"#utility.yul\":8406:8420   */\n      add\n        /* \"#utility.yul\":8402:8430   */\n      and\n        /* \"#utility.yul\":8392:8430   */\n      swap1\n      pop\n        /* \"#utility.yul\":8334:8436   */\n      swap2\n      swap1\n      pop\n      jump\t// out\n        /* \"#utility.yul\":8442:8564   */\n    tag_101:\n        /* \"#utility.yul\":8515:8539   */\n      tag_197\n        /* \"#utility.yul\":8533:8538   */\n      dup2\n        /* \"#utility.yul\":8515:8539   */\n      tag_138\n      jump\t// in\n    tag_197:\n        /* \"#utility.yul\":8508:8513   */\n      dup2\n        /* \"#utility.yul\":8505:8540   */\n      eq\n        /* \"#utility.yul\":8495:8558   */\n      tag_198\n      jumpi\n        /* \"#utility.yul\":8554:8555   */\n      0x00\n        /* \"#utility.yul\":8551:8552   */\n      dup1\n        /* \"#utility.yul\":8544:8556   */\n      revert\n        /* \"#utility.yul\":8495:8558   */\n    tag_198:\n        /* \"#utility.yul\":8442:8564   */\n      pop\n      jump\t// out\n\n    auxdata: 0xa26469706673582212200cf73aaacf561bf8b91e037462acf89c7c8a642a5407ce7a89e0f7a6c6ff69c564736f6c63430008070033\n}\n",
				"bytecode": {
					"linkReferences": {},
					"object": "608060405234801561001057600080fd5b50610eac806100206000396000f3fe608060405234801561001057600080fd5b50600436106100415760003560e01c8063721041af146100465780639dd9d0fd14610062578063fabce08f14610098575b600080fd5b610060600480360381019061005b9190610a7d565b6100a2565b005b61007c60048036038101906100779190610a50565b61048c565b60405161008f9796959493929190610bfa565b60405180910390f35b6100a061081e565b005b6000803373ffffffffffffffffffffffffffffffffffffffff1673ffffffffffffffffffffffffffffffffffffffff16815260200190815260200160002060060160009054906101000a900473ffffffffffffffffffffffffffffffffffffffff1673ffffffffffffffffffffffffffffffffffffffff163373ffffffffffffffffffffffffffffffffffffffff161415610200576000803373ffffffffffffffffffffffffffffffffffffffff1673ffffffffffffffffffffffffffffffffffffffff1681526020019081526020016000206000808201600061018691906108e8565b60018201600061019691906108e8565b6002820160006101a691906108e8565b6003820160006101b691906108e8565b6004820160006101c691906108e8565b6005820160006101d691906108e8565b6006820160006101000a81549073ffffffffffffffffffffffffffffffffffffffff021916905550505b856000803373ffffffffffffffffffffffffffffffffffffffff1673ffffffffffffffffffffffffffffffffffffffff1681526020019081526020016000206000019080519060200190610255929190610928565b50846000803373ffffffffffffffffffffffffffffffffffffffff1673ffffffffffffffffffffffffffffffffffffffff16815260200190815260200160002060010190805190602001906102ab929190610928565b50836000803373ffffffffffffffffffffffffffffffffffffffff1673ffffffffffffffffffffffffffffffffffffffff1681526020019081526020016000206002019080519060200190610301929190610928565b50826000803373ffffffffffffffffffffffffffffffffffffffff1673ffffffffffffffffffffffffffffffffffffffff1681526020019081526020016000206003019080519060200190610357929190610928565b50816000803373ffffffffffffffffffffffffffffffffffffffff1673ffffffffffffffffffffffffffffffffffffffff16815260200190815260200160002060040190805190602001906103ad929190610928565b50806000803373ffffffffffffffffffffffffffffffffffffffff1673ffffffffffffffffffffffffffffffffffffffff1681526020019081526020016000206005019080519060200190610403929190610928565b50336000803373ffffffffffffffffffffffffffffffffffffffff1673ffffffffffffffffffffffffffffffffffffffff16815260200190815260200160002060060160006101000a81548173ffffffffffffffffffffffffffffffffffffffff021916908373ffffffffffffffffffffffffffffffffffffffff160217905550505050505050565b60006020528060005260406000206000915090508060000180546104af90610d79565b80601f01602080910402602001604051908101604052809291908181526020018280546104db90610d79565b80156105285780601f106104fd57610100808354040283529160200191610528565b820191906000526020600020905b81548152906001019060200180831161050b57829003601f168201915b50505050509080600101805461053d90610d79565b80601f016020809104026020016040519081016040528092919081815260200182805461056990610d79565b80156105b65780601f1061058b576101008083540402835291602001916105b6565b820191906000526020600020905b81548152906001019060200180831161059957829003601f168201915b5050505050908060020180546105cb90610d79565b80601f01602080910402602001604051908101604052809291908181526020018280546105f790610d79565b80156106445780601f1061061957610100808354040283529160200191610644565b820191906000526020600020905b81548152906001019060200180831161062757829003601f168201915b50505050509080600301805461065990610d79565b80601f016020809104026020016040519081016040528092919081815260200182805461068590610d79565b80156106d25780601f106106a7576101008083540402835291602001916106d2565b820191906000526020600020905b8154815290600101906020018083116106b557829003601f168201915b5050505050908060040180546106e790610d79565b80601f016020809104026020016040519081016040528092919081815260200182805461071390610d79565b80156107605780601f1061073557610100808354040283529160200191610760565b820191906000526020600020905b81548152906001019060200180831161074357829003601f168201915b50505050509080600501805461077590610d79565b80601f01602080910402602001604051908101604052809291908181526020018280546107a190610d79565b80156107ee5780601f106107c3576101008083540402835291602001916107ee565b820191906000526020600020905b8154815290600101906020018083116107d157829003601f168201915b5050505050908060060160009054906101000a900473ffffffffffffffffffffffffffffffffffffffff16905087565b6000803373ffffffffffffffffffffffffffffffffffffffff1673ffffffffffffffffffffffffffffffffffffffff1681526020019081526020016000206000808201600061086d91906108e8565b60018201600061087d91906108e8565b60028201600061088d91906108e8565b60038201600061089d91906108e8565b6004820160006108ad91906108e8565b6005820160006108bd91906108e8565b6006820160006101000a81549073ffffffffffffffffffffffffffffffffffffffff02191690555050565b5080546108f490610d79565b6000825580601f106109065750610925565b601f01602090049060005260206000209081019061092491906109ae565b5b50565b82805461093490610d79565b90600052602060002090601f016020900481019282610956576000855561099d565b82601f1061096f57805160ff191683800117855561099d565b8280016001018555821561099d579182015b8281111561099c578251825591602001919060010190610981565b5b5090506109aa91906109ae565b5090565b5b808211156109c75760008160009055506001016109af565b5090565b60006109de6109d984610cb8565b610c93565b9050828152602081018484840111156109fa576109f9610e3f565b5b610a05848285610d37565b509392505050565b600081359050610a1c81610e5f565b92915050565b600082601f830112610a3757610a36610e3a565b5b8135610a478482602086016109cb565b91505092915050565b600060208284031215610a6657610a65610e49565b5b6000610a7484828501610a0d565b91505092915050565b60008060008060008060c08789031215610a9a57610a99610e49565b5b600087013567ffffffffffffffff811115610ab857610ab7610e44565b5b610ac489828a01610a22565b965050602087013567ffffffffffffffff811115610ae557610ae4610e44565b5b610af189828a01610a22565b955050604087013567ffffffffffffffff811115610b1257610b11610e44565b5b610b1e89828a01610a22565b945050606087013567ffffffffffffffff811115610b3f57610b3e610e44565b5b610b4b89828a01610a22565b935050608087013567ffffffffffffffff811115610b6c57610b6b610e44565b5b610b7889828a01610a22565b92505060a087013567ffffffffffffffff811115610b9957610b98610e44565b5b610ba589828a01610a22565b9150509295509295509295565b610bbb81610d05565b82525050565b6000610bcc82610ce9565b610bd68185610cf4565b9350610be6818560208601610d46565b610bef81610e4e565b840191505092915050565b600060e0820190508181036000830152610c14818a610bc1565b90508181036020830152610c288189610bc1565b90508181036040830152610c3c8188610bc1565b90508181036060830152610c508187610bc1565b90508181036080830152610c648186610bc1565b905081810360a0830152610c788185610bc1565b9050610c8760c0830184610bb2565b98975050505050505050565b6000610c9d610cae565b9050610ca98282610dab565b919050565b6000604051905090565b600067ffffffffffffffff821115610cd357610cd2610e0b565b5b610cdc82610e4e565b9050602081019050919050565b600081519050919050565b600082825260208201905092915050565b6000610d1082610d17565b9050919050565b600073ffffffffffffffffffffffffffffffffffffffff82169050919050565b82818337600083830152505050565b60005b83811015610d64578082015181840152602081019050610d49565b83811115610d73576000848401525b50505050565b60006002820490506001821680610d9157607f821691505b60208210811415610da557610da4610ddc565b5b50919050565b610db482610e4e565b810181811067ffffffffffffffff82111715610dd357610dd2610e0b565b5b80604052505050565b7f4e487b7100000000000000000000000000000000000000000000000000000000600052602260045260246000fd5b7f4e487b7100000000000000000000000000000000000000000000000000000000600052604160045260246000fd5b600080fd5b600080fd5b600080fd5b600080fd5b6000601f19601f8301169050919050565b610e6881610d05565b8114610e7357600080fd5b5056fea26469706673582212200cf73aaacf561bf8b91e037462acf89c7c8a642a5407ce7a89e0f7a6c6ff69c564736f6c63430008070033",
					"opcodes": "PUSH1 0x80 PUSH1 0x40 MSTORE CALLVALUE DUP1 ISZERO PUSH2 0x10 JUMPI PUSH1 0x0 DUP1 REVERT JUMPDEST POP PUSH2 0xEAC DUP1 PUSH2 0x20 PUSH1 0x0 CODECOPY PUSH1 0x0 RETURN INVALID PUSH1 0x80 PUSH1 0x40 MSTORE CALLVALUE DUP1 ISZERO PUSH2 0x10 JUMPI PUSH1 0x0 DUP1 REVERT JUMPDEST POP PUSH1 0x4 CALLDATASIZE LT PUSH2 0x41 JUMPI PUSH1 0x0 CALLDATALOAD PUSH1 0xE0 SHR DUP1 PUSH4 0x721041AF EQ PUSH2 0x46 JUMPI DUP1 PUSH4 0x9DD9D0FD EQ PUSH2 0x62 JUMPI DUP1 PUSH4 0xFABCE08F EQ PUSH2 0x98 JUMPI JUMPDEST PUSH1 0x0 DUP1 REVERT JUMPDEST PUSH2 0x60 PUSH1 0x4 DUP1 CALLDATASIZE SUB DUP2 ADD SWAP1 PUSH2 0x5B SWAP2 SWAP1 PUSH2 0xA7D JUMP JUMPDEST PUSH2 0xA2 JUMP JUMPDEST STOP JUMPDEST PUSH2 0x7C PUSH1 0x4 DUP1 CALLDATASIZE SUB DUP2 ADD SWAP1 PUSH2 0x77 SWAP2 SWAP1 PUSH2 0xA50 JUMP JUMPDEST PUSH2 0x48C JUMP JUMPDEST PUSH1 0x40 MLOAD PUSH2 0x8F SWAP8 SWAP7 SWAP6 SWAP5 SWAP4 SWAP3 SWAP2 SWAP1 PUSH2 0xBFA JUMP JUMPDEST PUSH1 0x40 MLOAD DUP1 SWAP2 SUB SWAP1 RETURN JUMPDEST PUSH2 0xA0 PUSH2 0x81E JUMP JUMPDEST STOP JUMPDEST PUSH1 0x0 DUP1 CALLER PUSH20 0xFFFFFFFFFFFFFFFFFFFFFFFFFFFFFFFFFFFFFFFF AND PUSH20 0xFFFFFFFFFFFFFFFFFFFFFFFFFFFFFFFFFFFFFFFF AND DUP2 MSTORE PUSH1 0x20 ADD SWAP1 DUP2 MSTORE PUSH1 0x20 ADD PUSH1 0x0 KECCAK256 PUSH1 0x6 ADD PUSH1 0x0 SWAP1 SLOAD SWAP1 PUSH2 0x100 EXP SWAP1 DIV PUSH20 0xFFFFFFFFFFFFFFFFFFFFFFFFFFFFFFFFFFFFFFFF AND PUSH20 0xFFFFFFFFFFFFFFFFFFFFFFFFFFFFFFFFFFFFFFFF AND CALLER PUSH20 0xFFFFFFFFFFFFFFFFFFFFFFFFFFFFFFFFFFFFFFFF AND EQ ISZERO PUSH2 0x200 JUMPI PUSH1 0x0 DUP1 CALLER PUSH20 0xFFFFFFFFFFFFFFFFFFFFFFFFFFFFFFFFFFFFFFFF AND PUSH20 0xFFFFFFFFFFFFFFFFFFFFFFFFFFFFFFFFFFFFFFFF AND DUP2 MSTORE PUSH1 0x20 ADD SWAP1 DUP2 MSTORE PUSH1 0x20 ADD PUSH1 0x0 KECCAK256 PUSH1 0x0 DUP1 DUP3 ADD PUSH1 0x0 PUSH2 0x186 SWAP2 SWAP1 PUSH2 0x8E8 JUMP JUMPDEST PUSH1 0x1 DUP3 ADD PUSH1 0x0 PUSH2 0x196 SWAP2 SWAP1 PUSH2 0x8E8 JUMP JUMPDEST PUSH1 0x2 DUP3 ADD PUSH1 0x0 PUSH2 0x1A6 SWAP2 SWAP1 PUSH2 0x8E8 JUMP JUMPDEST PUSH1 0x3 DUP3 ADD PUSH1 0x0 PUSH2 0x1B6 SWAP2 SWAP1 PUSH2 0x8E8 JUMP JUMPDEST PUSH1 0x4 DUP3 ADD PUSH1 0x0 PUSH2 0x1C6 SWAP2 SWAP1 PUSH2 0x8E8 JUMP JUMPDEST PUSH1 0x5 DUP3 ADD PUSH1 0x0 PUSH2 0x1D6 SWAP2 SWAP1 PUSH2 0x8E8 JUMP JUMPDEST PUSH1 0x6 DUP3 ADD PUSH1 0x0 PUSH2 0x100 EXP DUP2 SLOAD SWAP1 PUSH20 0xFFFFFFFFFFFFFFFFFFFFFFFFFFFFFFFFFFFFFFFF MUL NOT AND SWAP1 SSTORE POP POP JUMPDEST DUP6 PUSH1 0x0 DUP1 CALLER PUSH20 0xFFFFFFFFFFFFFFFFFFFFFFFFFFFFFFFFFFFFFFFF AND PUSH20 0xFFFFFFFFFFFFFFFFFFFFFFFFFFFFFFFFFFFFFFFF AND DUP2 MSTORE PUSH1 0x20 ADD SWAP1 DUP2 MSTORE PUSH1 0x20 ADD PUSH1 0x0 KECCAK256 PUSH1 0x0 ADD SWAP1 DUP1 MLOAD SWAP1 PUSH1 0x20 ADD SWAP1 PUSH2 0x255 SWAP3 SWAP2 SWAP1 PUSH2 0x928 JUMP JUMPDEST POP DUP5 PUSH1 0x0 DUP1 CALLER PUSH20 0xFFFFFFFFFFFFFFFFFFFFFFFFFFFFFFFFFFFFFFFF AND PUSH20 0xFFFFFFFFFFFFFFFFFFFFFFFFFFFFFFFFFFFFFFFF AND DUP2 MSTORE PUSH1 0x20 ADD SWAP1 DUP2 MSTORE PUSH1 0x20 ADD PUSH1 0x0 KECCAK256 PUSH1 0x1 ADD SWAP1 DUP1 MLOAD SWAP1 PUSH1 0x20 ADD SWAP1 PUSH2 0x2AB SWAP3 SWAP2 SWAP1 PUSH2 0x928 JUMP JUMPDEST POP DUP4 PUSH1 0x0 DUP1 CALLER PUSH20 0xFFFFFFFFFFFFFFFFFFFFFFFFFFFFFFFFFFFFFFFF AND PUSH20 0xFFFFFFFFFFFFFFFFFFFFFFFFFFFFFFFFFFFFFFFF AND DUP2 MSTORE PUSH1 0x20 ADD SWAP1 DUP2 MSTORE PUSH1 0x20 ADD PUSH1 0x0 KECCAK256 PUSH1 0x2 ADD SWAP1 DUP1 MLOAD SWAP1 PUSH1 0x20 ADD SWAP1 PUSH2 0x301 SWAP3 SWAP2 SWAP1 PUSH2 0x928 JUMP JUMPDEST POP DUP3 PUSH1 0x0 DUP1 CALLER PUSH20 0xFFFFFFFFFFFFFFFFFFFFFFFFFFFFFFFFFFFFFFFF AND PUSH20 0xFFFFFFFFFFFFFFFFFFFFFFFFFFFFFFFFFFFFFFFF AND DUP2 MSTORE PUSH1 0x20 ADD SWAP1 DUP2 MSTORE PUSH1 0x20 ADD PUSH1 0x0 KECCAK256 PUSH1 0x3 ADD SWAP1 DUP1 MLOAD SWAP1 PUSH1 0x20 ADD SWAP1 PUSH2 0x357 SWAP3 SWAP2 SWAP1 PUSH2 0x928 JUMP JUMPDEST POP DUP2 PUSH1 0x0 DUP1 CALLER PUSH20 0xFFFFFFFFFFFFFFFFFFFFFFFFFFFFFFFFFFFFFFFF AND PUSH20 0xFFFFFFFFFFFFFFFFFFFFFFFFFFFFFFFFFFFFFFFF AND DUP2 MSTORE PUSH1 0x20 ADD SWAP1 DUP2 MSTORE PUSH1 0x20 ADD PUSH1 0x0 KECCAK256 PUSH1 0x4 ADD SWAP1 DUP1 MLOAD SWAP1 PUSH1 0x20 ADD SWAP1 PUSH2 0x3AD SWAP3 SWAP2 SWAP1 PUSH2 0x928 JUMP JUMPDEST POP DUP1 PUSH1 0x0 DUP1 CALLER PUSH20 0xFFFFFFFFFFFFFFFFFFFFFFFFFFFFFFFFFFFFFFFF AND PUSH20 0xFFFFFFFFFFFFFFFFFFFFFFFFFFFFFFFFFFFFFFFF AND DUP2 MSTORE PUSH1 0x20 ADD SWAP1 DUP2 MSTORE PUSH1 0x20 ADD PUSH1 0x0 KECCAK256 PUSH1 0x5 ADD SWAP1 DUP1 MLOAD SWAP1 PUSH1 0x20 ADD SWAP1 PUSH2 0x403 SWAP3 SWAP2 SWAP1 PUSH2 0x928 JUMP JUMPDEST POP CALLER PUSH1 0x0 DUP1 CALLER PUSH20 0xFFFFFFFFFFFFFFFFFFFFFFFFFFFFFFFFFFFFFFFF AND PUSH20 0xFFFFFFFFFFFFFFFFFFFFFFFFFFFFFFFFFFFFFFFF AND DUP2 MSTORE PUSH1 0x20 ADD SWAP1 DUP2 MSTORE PUSH1 0x20 ADD PUSH1 0x0 KECCAK256 PUSH1 0x6 ADD PUSH1 0x0 PUSH2 0x100 EXP DUP2 SLOAD DUP2 PUSH20 0xFFFFFFFFFFFFFFFFFFFFFFFFFFFFFFFFFFFFFFFF MUL NOT AND SWAP1 DUP4 PUSH20 0xFFFFFFFFFFFFFFFFFFFFFFFFFFFFFFFFFFFFFFFF AND MUL OR SWAP1 SSTORE POP POP POP POP POP POP POP JUMP JUMPDEST PUSH1 0x0 PUSH1 0x20 MSTORE DUP1 PUSH1 0x0 MSTORE PUSH1 0x40 PUSH1 0x0 KECCAK256 PUSH1 0x0 SWAP2 POP SWAP1 POP DUP1 PUSH1 0x0 ADD DUP1 SLOAD PUSH2 0x4AF SWAP1 PUSH2 0xD79 JUMP JUMPDEST DUP1 PUSH1 0x1F ADD PUSH1 0x20 DUP1 SWAP2 DIV MUL PUSH1 0x20 ADD PUSH1 0x40 MLOAD SWAP1 DUP2 ADD PUSH1 0x40 MSTORE DUP1 SWAP3 SWAP2 SWAP1 DUP2 DUP2 MSTORE PUSH1 0x20 ADD DUP3 DUP1 SLOAD PUSH2 0x4DB SWAP1 PUSH2 0xD79 JUMP JUMPDEST DUP1 ISZERO PUSH2 0x528 JUMPI DUP1 PUSH1 0x1F LT PUSH2 0x4FD JUMPI PUSH2 0x100 DUP1 DUP4 SLOAD DIV MUL DUP4 MSTORE SWAP2 PUSH1 0x20 ADD SWAP2 PUSH2 0x528 JUMP JUMPDEST DUP3 ADD SWAP2 SWAP1 PUSH1 0x0 MSTORE PUSH1 0x20 PUSH1 0x0 KECCAK256 SWAP1 JUMPDEST DUP2 SLOAD DUP2 MSTORE SWAP1 PUSH1 0x1 ADD SWAP1 PUSH1 0x20 ADD DUP1 DUP4 GT PUSH2 0x50B JUMPI DUP3 SWAP1 SUB PUSH1 0x1F AND DUP3 ADD SWAP2 JUMPDEST POP POP POP POP POP SWAP1 DUP1 PUSH1 0x1 ADD DUP1 SLOAD PUSH2 0x53D SWAP1 PUSH2 0xD79 JUMP JUMPDEST DUP1 PUSH1 0x1F ADD PUSH1 0x20 DUP1 SWAP2 DIV MUL PUSH1 0x20 ADD PUSH1 0x40 MLOAD SWAP1 DUP2 ADD PUSH1 0x40 MSTORE DUP1 SWAP3 SWAP2 SWAP1 DUP2 DUP2 MSTORE PUSH1 0x20 ADD DUP3 DUP1 SLOAD PUSH2 0x569 SWAP1 PUSH2 0xD79 JUMP JUMPDEST DUP1 ISZERO PUSH2 0x5B6 JUMPI DUP1 PUSH1 0x1F LT PUSH2 0x58B JUMPI PUSH2 0x100 DUP1 DUP4 SLOAD DIV MUL DUP4 MSTORE SWAP2 PUSH1 0x20 ADD SWAP2 PUSH2 0x5B6 JUMP JUMPDEST DUP3 ADD SWAP2 SWAP1 PUSH1 0x0 MSTORE PUSH1 0x20 PUSH1 0x0 KECCAK256 SWAP1 JUMPDEST DUP2 SLOAD DUP2 MSTORE SWAP1 PUSH1 0x1 ADD SWAP1 PUSH1 0x20 ADD DUP1 DUP4 GT PUSH2 0x599 JUMPI DUP3 SWAP1 SUB PUSH1 0x1F AND DUP3 ADD SWAP2 JUMPDEST POP POP POP POP POP SWAP1 DUP1 PUSH1 0x2 ADD DUP1 SLOAD PUSH2 0x5CB SWAP1 PUSH2 0xD79 JUMP JUMPDEST DUP1 PUSH1 0x1F ADD PUSH1 0x20 DUP1 SWAP2 DIV MUL PUSH1 0x20 ADD PUSH1 0x40 MLOAD SWAP1 DUP2 ADD PUSH1 0x40 MSTORE DUP1 SWAP3 SWAP2 SWAP1 DUP2 DUP2 MSTORE PUSH1 0x20 ADD DUP3 DUP1 SLOAD PUSH2 0x5F7 SWAP1 PUSH2 0xD79 JUMP JUMPDEST DUP1 ISZERO PUSH2 0x644 JUMPI DUP1 PUSH1 0x1F LT PUSH2 0x619 JUMPI PUSH2 0x100 DUP1 DUP4 SLOAD DIV MUL DUP4 MSTORE SWAP2 PUSH1 0x20 ADD SWAP2 PUSH2 0x644 JUMP JUMPDEST DUP3 ADD SWAP2 SWAP1 PUSH1 0x0 MSTORE PUSH1 0x20 PUSH1 0x0 KECCAK256 SWAP1 JUMPDEST DUP2 SLOAD DUP2 MSTORE SWAP1 PUSH1 0x1 ADD SWAP1 PUSH1 0x20 ADD DUP1 DUP4 GT PUSH2 0x627 JUMPI DUP3 SWAP1 SUB PUSH1 0x1F AND DUP3 ADD SWAP2 JUMPDEST POP POP POP POP POP SWAP1 DUP1 PUSH1 0x3 ADD DUP1 SLOAD PUSH2 0x659 SWAP1 PUSH2 0xD79 JUMP JUMPDEST DUP1 PUSH1 0x1F ADD PUSH1 0x20 DUP1 SWAP2 DIV MUL PUSH1 0x20 ADD PUSH1 0x40 MLOAD SWAP1 DUP2 ADD PUSH1 0x40 MSTORE DUP1 SWAP3 SWAP2 SWAP1 DUP2 DUP2 MSTORE PUSH1 0x20 ADD DUP3 DUP1 SLOAD PUSH2 0x685 SWAP1 PUSH2 0xD79 JUMP JUMPDEST DUP1 ISZERO PUSH2 0x6D2 JUMPI DUP1 PUSH1 0x1F LT PUSH2 0x6A7 JUMPI PUSH2 0x100 DUP1 DUP4 SLOAD DIV MUL DUP4 MSTORE SWAP2 PUSH1 0x20 ADD SWAP2 PUSH2 0x6D2 JUMP JUMPDEST DUP3 ADD SWAP2 SWAP1 PUSH1 0x0 MSTORE PUSH1 0x20 PUSH1 0x0 KECCAK256 SWAP1 JUMPDEST DUP2 SLOAD DUP2 MSTORE SWAP1 PUSH1 0x1 ADD SWAP1 PUSH1 0x20 ADD DUP1 DUP4 GT PUSH2 0x6B5 JUMPI DUP3 SWAP1 SUB PUSH1 0x1F AND DUP3 ADD SWAP2 JUMPDEST POP POP POP POP POP SWAP1 DUP1 PUSH1 0x4 ADD DUP1 SLOAD PUSH2 0x6E7 SWAP1 PUSH2 0xD79 JUMP JUMPDEST DUP1 PUSH1 0x1F ADD PUSH1 0x20 DUP1 SWAP2 DIV MUL PUSH1 0x20 ADD PUSH1 0x40 MLOAD SWAP1 DUP2 ADD PUSH1 0x40 MSTORE DUP1 SWAP3 SWAP2 SWAP1 DUP2 DUP2 MSTORE PUSH1 0x20 ADD DUP3 DUP1 SLOAD PUSH2 0x713 SWAP1 PUSH2 0xD79 JUMP JUMPDEST DUP1 ISZERO PUSH2 0x760 JUMPI DUP1 PUSH1 0x1F LT PUSH2 0x735 JUMPI PUSH2 0x100 DUP1 DUP4 SLOAD DIV MUL DUP4 MSTORE SWAP2 PUSH1 0x20 ADD SWAP2 PUSH2 0x760 JUMP JUMPDEST DUP3 ADD SWAP2 SWAP1 PUSH1 0x0 MSTORE PUSH1 0x20 PUSH1 0x0 KECCAK256 SWAP1 JUMPDEST DUP2 SLOAD DUP2 MSTORE SWAP1 PUSH1 0x1 ADD SWAP1 PUSH1 0x20 ADD DUP1 DUP4 GT PUSH2 0x743 JUMPI DUP3 SWAP1 SUB PUSH1 0x1F AND DUP3 ADD SWAP2 JUMPDEST POP POP POP POP POP SWAP1 DUP1 PUSH1 0x5 ADD DUP1 SLOAD PUSH2 0x775 SWAP1 PUSH2 0xD79 JUMP JUMPDEST DUP1 PUSH1 0x1F ADD PUSH1 0x20 DUP1 SWAP2 DIV MUL PUSH1 0x20 ADD PUSH1 0x40 MLOAD SWAP1 DUP2 ADD PUSH1 0x40 MSTORE DUP1 SWAP3 SWAP2 SWAP1 DUP2 DUP2 MSTORE PUSH1 0x20 ADD DUP3 DUP1 SLOAD PUSH2 0x7A1 SWAP1 PUSH2 0xD79 JUMP JUMPDEST DUP1 ISZERO PUSH2 0x7EE JUMPI DUP1 PUSH1 0x1F LT PUSH2 0x7C3 JUMPI PUSH2 0x100 DUP1 DUP4 SLOAD DIV MUL DUP4 MSTORE SWAP2 PUSH1 0x20 ADD SWAP2 PUSH2 0x7EE JUMP JUMPDEST DUP3 ADD SWAP2 SWAP1 PUSH1 0x0 MSTORE PUSH1 0x20 PUSH1 0x0 KECCAK256 SWAP1 JUMPDEST DUP2 SLOAD DUP2 MSTORE SWAP1 PUSH1 0x1 ADD SWAP1 PUSH1 0x20 ADD DUP1 DUP4 GT PUSH2 0x7D1 JUMPI DUP3 SWAP1 SUB PUSH1 0x1F AND DUP3 ADD SWAP2 JUMPDEST POP POP POP POP POP SWAP1 DUP1 PUSH1 0x6 ADD PUSH1 0x0 SWAP1 SLOAD SWAP1 PUSH2 0x100 EXP SWAP1 DIV PUSH20 0xFFFFFFFFFFFFFFFFFFFFFFFFFFFFFFFFFFFFFFFF AND SWAP1 POP DUP8 JUMP JUMPDEST PUSH1 0x0 DUP1 CALLER PUSH20 0xFFFFFFFFFFFFFFFFFFFFFFFFFFFFFFFFFFFFFFFF AND PUSH20 0xFFFFFFFFFFFFFFFFFFFFFFFFFFFFFFFFFFFFFFFF AND DUP2 MSTORE PUSH1 0x20 ADD SWAP1 DUP2 MSTORE PUSH1 0x20 ADD PUSH1 0x0 KECCAK256 PUSH1 0x0 DUP1 DUP3 ADD PUSH1 0x0 PUSH2 0x86D SWAP2 SWAP1 PUSH2 0x8E8 JUMP JUMPDEST PUSH1 0x1 DUP3 ADD PUSH1 0x0 PUSH2 0x87D SWAP2 SWAP1 PUSH2 0x8E8 JUMP JUMPDEST PUSH1 0x2 DUP3 ADD PUSH1 0x0 PUSH2 0x88D SWAP2 SWAP1 PUSH2 0x8E8 JUMP JUMPDEST PUSH1 0x3 DUP3 ADD PUSH1 0x0 PUSH2 0x89D SWAP2 SWAP1 PUSH2 0x8E8 JUMP JUMPDEST PUSH1 0x4 DUP3 ADD PUSH1 0x0 PUSH2 0x8AD SWAP2 SWAP1 PUSH2 0x8E8 JUMP JUMPDEST PUSH1 0x5 DUP3 ADD PUSH1 0x0 PUSH2 0x8BD SWAP2 SWAP1 PUSH2 0x8E8 JUMP JUMPDEST PUSH1 0x6 DUP3 ADD PUSH1 0x0 PUSH2 0x100 EXP DUP2 SLOAD SWAP1 PUSH20 0xFFFFFFFFFFFFFFFFFFFFFFFFFFFFFFFFFFFFFFFF MUL NOT AND SWAP1 SSTORE POP POP JUMP JUMPDEST POP DUP1 SLOAD PUSH2 0x8F4 SWAP1 PUSH2 0xD79 JUMP JUMPDEST PUSH1 0x0 DUP3 SSTORE DUP1 PUSH1 0x1F LT PUSH2 0x906 JUMPI POP PUSH2 0x925 JUMP JUMPDEST PUSH1 0x1F ADD PUSH1 0x20 SWAP1 DIV SWAP1 PUSH1 0x0 MSTORE PUSH1 0x20 PUSH1 0x0 KECCAK256 SWAP1 DUP2 ADD SWAP1 PUSH2 0x924 SWAP2 SWAP1 PUSH2 0x9AE JUMP JUMPDEST JUMPDEST POP JUMP JUMPDEST DUP3 DUP1 SLOAD PUSH2 0x934 SWAP1 PUSH2 0xD79 JUMP JUMPDEST SWAP1 PUSH1 0x0 MSTORE PUSH1 0x20 PUSH1 0x0 KECCAK256 SWAP1 PUSH1 0x1F ADD PUSH1 0x20 SWAP1 DIV DUP2 ADD SWAP3 DUP3 PUSH2 0x956 JUMPI PUSH1 0x0 DUP6 SSTORE PUSH2 0x99D JUMP JUMPDEST DUP3 PUSH1 0x1F LT PUSH2 0x96F JUMPI DUP1 MLOAD PUSH1 0xFF NOT AND DUP4 DUP1 ADD OR DUP6 SSTORE PUSH2 0x99D JUMP JUMPDEST DUP3 DUP1 ADD PUSH1 0x1 ADD DUP6 SSTORE DUP3 ISZERO PUSH2 0x99D JUMPI SWAP2 DUP3 ADD JUMPDEST DUP3 DUP2 GT ISZERO PUSH2 0x99C JUMPI DUP3 MLOAD DUP3 SSTORE SWAP2 PUSH1 0x20 ADD SWAP2 SWAP1 PUSH1 0x1 ADD SWAP1 PUSH2 0x981 JUMP JUMPDEST JUMPDEST POP SWAP1 POP PUSH2 0x9AA SWAP2 SWAP1 PUSH2 0x9AE JUMP JUMPDEST POP SWAP1 JUMP JUMPDEST JUMPDEST DUP1 DUP3 GT ISZERO PUSH2 0x9C7 JUMPI PUSH1 0x0 DUP2 PUSH1 0x0 SWAP1 SSTORE POP PUSH1 0x1 ADD PUSH2 0x9AF JUMP JUMPDEST POP SWAP1 JUMP JUMPDEST PUSH1 0x0 PUSH2 0x9DE PUSH2 0x9D9 DUP5 PUSH2 0xCB8 JUMP JUMPDEST PUSH2 0xC93 JUMP JUMPDEST SWAP1 POP DUP3 DUP2 MSTORE PUSH1 0x20 DUP2 ADD DUP5 DUP5 DUP5 ADD GT ISZERO PUSH2 0x9FA JUMPI PUSH2 0x9F9 PUSH2 0xE3F JUMP JUMPDEST JUMPDEST PUSH2 0xA05 DUP5 DUP3 DUP6 PUSH2 0xD37 JUMP JUMPDEST POP SWAP4 SWAP3 POP POP POP JUMP JUMPDEST PUSH1 0x0 DUP2 CALLDATALOAD SWAP1 POP PUSH2 0xA1C DUP2 PUSH2 0xE5F JUMP JUMPDEST SWAP3 SWAP2 POP POP JUMP JUMPDEST PUSH1 0x0 DUP3 PUSH1 0x1F DUP4 ADD SLT PUSH2 0xA37 JUMPI PUSH2 0xA36 PUSH2 0xE3A JUMP JUMPDEST JUMPDEST DUP2 CALLDATALOAD PUSH2 0xA47 DUP5 DUP3 PUSH1 0x20 DUP7 ADD PUSH2 0x9CB JUMP JUMPDEST SWAP2 POP POP SWAP3 SWAP2 POP POP JUMP JUMPDEST PUSH1 0x0 PUSH1 0x20 DUP3 DUP5 SUB SLT ISZERO PUSH2 0xA66 JUMPI PUSH2 0xA65 PUSH2 0xE49 JUMP JUMPDEST JUMPDEST PUSH1 0x0 PUSH2 0xA74 DUP5 DUP3 DUP6 ADD PUSH2 0xA0D JUMP JUMPDEST SWAP2 POP POP SWAP3 SWAP2 POP POP JUMP JUMPDEST PUSH1 0x0 DUP1 PUSH1 0x0 DUP1 PUSH1 0x0 DUP1 PUSH1 0xC0 DUP8 DUP10 SUB SLT ISZERO PUSH2 0xA9A JUMPI PUSH2 0xA99 PUSH2 0xE49 JUMP JUMPDEST JUMPDEST PUSH1 0x0 DUP8 ADD CALLDATALOAD PUSH8 0xFFFFFFFFFFFFFFFF DUP2 GT ISZERO PUSH2 0xAB8 JUMPI PUSH2 0xAB7 PUSH2 0xE44 JUMP JUMPDEST JUMPDEST PUSH2 0xAC4 DUP10 DUP3 DUP11 ADD PUSH2 0xA22 JUMP JUMPDEST SWAP7 POP POP PUSH1 0x20 DUP8 ADD CALLDATALOAD PUSH8 0xFFFFFFFFFFFFFFFF DUP2 GT ISZERO PUSH2 0xAE5 JUMPI PUSH2 0xAE4 PUSH2 0xE44 JUMP JUMPDEST JUMPDEST PUSH2 0xAF1 DUP10 DUP3 DUP11 ADD PUSH2 0xA22 JUMP JUMPDEST SWAP6 POP POP PUSH1 0x40 DUP8 ADD CALLDATALOAD PUSH8 0xFFFFFFFFFFFFFFFF DUP2 GT ISZERO PUSH2 0xB12 JUMPI PUSH2 0xB11 PUSH2 0xE44 JUMP JUMPDEST JUMPDEST PUSH2 0xB1E DUP10 DUP3 DUP11 ADD PUSH2 0xA22 JUMP JUMPDEST SWAP5 POP POP PUSH1 0x60 DUP8 ADD CALLDATALOAD PUSH8 0xFFFFFFFFFFFFFFFF DUP2 GT ISZERO PUSH2 0xB3F JUMPI PUSH2 0xB3E PUSH2 0xE44 JUMP JUMPDEST JUMPDEST PUSH2 0xB4B DUP10 DUP3 DUP11 ADD PUSH2 0xA22 JUMP JUMPDEST SWAP4 POP POP PUSH1 0x80 DUP8 ADD CALLDATALOAD PUSH8 0xFFFFFFFFFFFFFFFF DUP2 GT ISZERO PUSH2 0xB6C JUMPI PUSH2 0xB6B PUSH2 0xE44 JUMP JUMPDEST JUMPDEST PUSH2 0xB78 DUP10 DUP3 DUP11 ADD PUSH2 0xA22 JUMP JUMPDEST SWAP3 POP POP PUSH1 0xA0 DUP8 ADD CALLDATALOAD PUSH8 0xFFFFFFFFFFFFFFFF DUP2 GT ISZERO PUSH2 0xB99 JUMPI PUSH2 0xB98 PUSH2 0xE44 JUMP JUMPDEST JUMPDEST PUSH2 0xBA5 DUP10 DUP3 DUP11 ADD PUSH2 0xA22 JUMP JUMPDEST SWAP2 POP POP SWAP3 SWAP6 POP SWAP3 SWAP6 POP SWAP3 SWAP6 JUMP JUMPDEST PUSH2 0xBBB DUP2 PUSH2 0xD05 JUMP JUMPDEST DUP3 MSTORE POP POP JUMP JUMPDEST PUSH1 0x0 PUSH2 0xBCC DUP3 PUSH2 0xCE9 JUMP JUMPDEST PUSH2 0xBD6 DUP2 DUP6 PUSH2 0xCF4 JUMP JUMPDEST SWAP4 POP PUSH2 0xBE6 DUP2 DUP6 PUSH1 0x20 DUP7 ADD PUSH2 0xD46 JUMP JUMPDEST PUSH2 0xBEF DUP2 PUSH2 0xE4E JUMP JUMPDEST DUP5 ADD SWAP2 POP POP SWAP3 SWAP2 POP POP JUMP JUMPDEST PUSH1 0x0 PUSH1 0xE0 DUP3 ADD SWAP1 POP DUP2 DUP2 SUB PUSH1 0x0 DUP4 ADD MSTORE PUSH2 0xC14 DUP2 DUP11 PUSH2 0xBC1 JUMP JUMPDEST SWAP1 POP DUP2 DUP2 SUB PUSH1 0x20 DUP4 ADD MSTORE PUSH2 0xC28 DUP2 DUP10 PUSH2 0xBC1 JUMP JUMPDEST SWAP1 POP DUP2 DUP2 SUB PUSH1 0x40 DUP4 ADD MSTORE PUSH2 0xC3C DUP2 DUP9 PUSH2 0xBC1 JUMP JUMPDEST SWAP1 POP DUP2 DUP2 SUB PUSH1 0x60 DUP4 ADD MSTORE PUSH2 0xC50 DUP2 DUP8 PUSH2 0xBC1 JUMP JUMPDEST SWAP1 POP DUP2 DUP2 SUB PUSH1 0x80 DUP4 ADD MSTORE PUSH2 0xC64 DUP2 DUP7 PUSH2 0xBC1 JUMP JUMPDEST SWAP1 POP DUP2 DUP2 SUB PUSH1 0xA0 DUP4 ADD MSTORE PUSH2 0xC78 DUP2 DUP6 PUSH2 0xBC1 JUMP JUMPDEST SWAP1 POP PUSH2 0xC87 PUSH1 0xC0 DUP4 ADD DUP5 PUSH2 0xBB2 JUMP JUMPDEST SWAP9 SWAP8 POP POP POP POP POP POP POP POP JUMP JUMPDEST PUSH1 0x0 PUSH2 0xC9D PUSH2 0xCAE JUMP JUMPDEST SWAP1 POP PUSH2 0xCA9 DUP3 DUP3 PUSH2 0xDAB JUMP JUMPDEST SWAP2 SWAP1 POP JUMP JUMPDEST PUSH1 0x0 PUSH1 0x40 MLOAD SWAP1 POP SWAP1 JUMP JUMPDEST PUSH1 0x0 PUSH8 0xFFFFFFFFFFFFFFFF DUP3 GT ISZERO PUSH2 0xCD3 JUMPI PUSH2 0xCD2 PUSH2 0xE0B JUMP JUMPDEST JUMPDEST PUSH2 0xCDC DUP3 PUSH2 0xE4E JUMP JUMPDEST SWAP1 POP PUSH1 0x20 DUP2 ADD SWAP1 POP SWAP2 SWAP1 POP JUMP JUMPDEST PUSH1 0x0 DUP2 MLOAD SWAP1 POP SWAP2 SWAP1 POP JUMP JUMPDEST PUSH1 0x0 DUP3 DUP3 MSTORE PUSH1 0x20 DUP3 ADD SWAP1 POP SWAP3 SWAP2 POP POP JUMP JUMPDEST PUSH1 0x0 PUSH2 0xD10 DUP3 PUSH2 0xD17 JUMP JUMPDEST SWAP1 POP SWAP2 SWAP1 POP JUMP JUMPDEST PUSH1 0x0 PUSH20 0xFFFFFFFFFFFFFFFFFFFFFFFFFFFFFFFFFFFFFFFF DUP3 AND SWAP1 POP SWAP2 SWAP1 POP JUMP JUMPDEST DUP3 DUP2 DUP4 CALLDATACOPY PUSH1 0x0 DUP4 DUP4 ADD MSTORE POP POP POP JUMP JUMPDEST PUSH1 0x0 JUMPDEST DUP4 DUP2 LT ISZERO PUSH2 0xD64 JUMPI DUP1 DUP3 ADD MLOAD DUP2 DUP5 ADD MSTORE PUSH1 0x20 DUP2 ADD SWAP1 POP PUSH2 0xD49 JUMP JUMPDEST DUP4 DUP2 GT ISZERO PUSH2 0xD73 JUMPI PUSH1 0x0 DUP5 DUP5 ADD MSTORE JUMPDEST POP POP POP POP JUMP JUMPDEST PUSH1 0x0 PUSH1 0x2 DUP3 DIV SWAP1 POP PUSH1 0x1 DUP3 AND DUP1 PUSH2 0xD91 JUMPI PUSH1 0x7F DUP3 AND SWAP2 POP JUMPDEST PUSH1 0x20 DUP3 LT DUP2 EQ ISZERO PUSH2 0xDA5 JUMPI PUSH2 0xDA4 PUSH2 0xDDC JUMP JUMPDEST JUMPDEST POP SWAP2 SWAP1 POP JUMP JUMPDEST PUSH2 0xDB4 DUP3 PUSH2 0xE4E JUMP JUMPDEST DUP2 ADD DUP2 DUP2 LT PUSH8 0xFFFFFFFFFFFFFFFF DUP3 GT OR ISZERO PUSH2 0xDD3 JUMPI PUSH2 0xDD2 PUSH2 0xE0B JUMP JUMPDEST JUMPDEST DUP1 PUSH1 0x40 MSTORE POP POP POP JUMP JUMPDEST PUSH32 0x4E487B7100000000000000000000000000000000000000000000000000000000 PUSH1 0x0 MSTORE PUSH1 0x22 PUSH1 0x4 MSTORE PUSH1 0x24 PUSH1 0x0 REVERT JUMPDEST PUSH32 0x4E487B7100000000000000000000000000000000000000000000000000000000 PUSH1 0x0 MSTORE PUSH1 0x41 PUSH1 0x4 MSTORE PUSH1 0x24 PUSH1 0x0 REVERT JUMPDEST PUSH1 0x0 DUP1 REVERT JUMPDEST PUSH1 0x0 DUP1 REVERT JUMPDEST PUSH1 0x0 DUP1 REVERT JUMPDEST PUSH1 0x0 DUP1 REVERT JUMPDEST PUSH1 0x0 PUSH1 0x1F NOT PUSH1 0x1F DUP4 ADD AND SWAP1 POP SWAP2 SWAP1 POP JUMP JUMPDEST PUSH2 0xE68 DUP2 PUSH2 0xD05 JUMP JUMPDEST DUP2 EQ PUSH2 0xE73 JUMPI PUSH1 0x0 DUP1 REVERT JUMPDEST POP JUMP INVALID LOG2 PUSH5 0x6970667358 0x22 SLT KECCAK256 0xC 0xF7 GASPRICE 0xAA 0xCF JUMP SHL 0xF8 0xB9 0x1E SUB PUSH21 0x62ACF89C7C8A642A5407CE7A89E0F7A6C6FF69C564 PUSH20 0x6F6C634300080700330000000000000000000000 "
				},
				"gasEstimates": {
					"creation": {
						"codeDepositCost": "751200",
						"executionCost": "786",
						"totalCost": "751986"
					},
					"external": {
						"addBio(string,string,string,string,string,string)": "infinite",
						"delProfile()": "infinite",
						"profile(address)": "infinite"
					}
				},
				"methodIdentifiers": {
					"addBio(string,string,string,string,string,string)": "721041af",
					"delProfile()": "fabce08f",
					"profile(address)": "9dd9d0fd"
				}
			},
			"storageLayout": {
				"storage": [
					{
						"astId": 21,
						"contract": "contracts/Profile.sol:Profile",
						"label": "profile",
						"offset": 0,
						"slot": "0",
						"type": "t_mapping(t_address,t_struct(Bio)16_storage)"
					}
				],
				"types": {
					"t_address": {
						"encoding": "inplace",
						"label": "address",
						"numberOfBytes": "20"
					},
					"t_mapping(t_address,t_struct(Bio)16_storage)": {
						"encoding": "mapping",
						"key": "t_address",
						"label": "mapping(address => struct Profile.Bio)",
						"numberOfBytes": "32",
						"value": "t_struct(Bio)16_storage"
					},
					"t_string_storage": {
						"encoding": "bytes",
						"label": "string",
						"numberOfBytes": "32"
					},
					"t_struct(Bio)16_storage": {
						"encoding": "inplace",
						"label": "struct Profile.Bio",
						"members": [
							{
								"astId": 3,
								"contract": "contracts/Profile.sol:Profile",
								"label": "firstName",
								"offset": 0,
								"slot": "0",
								"type": "t_string_storage"
							},
							{
								"astId": 5,
								"contract": "contracts/Profile.sol:Profile",
								"label": "middleName",
								"offset": 0,
								"slot": "1",
								"type": "t_string_storage"
							},
							{
								"astId": 7,
								"contract": "contracts/Profile.sol:Profile",
								"label": "lastName",
								"offset": 0,
								"slot": "2",
								"type": "t_string_storage"
							},
							{
								"astId": 9,
								"contract": "contracts/Profile.sol:Profile",
								"label": "email",
								"offset": 0,
								"slot": "3",
								"type": "t_string_storage"
							},
							{
								"astId": 11,
								"contract": "contracts/Profile.sol:Profile",
								"label": "phone",
								"offset": 0,
								"slot": "4",
								"type": "t_string_storage"
							},
							{
								"astId": 13,
								"contract": "contracts/Profile.sol:Profile",
								"label": "profileImage",
								"offset": 0,
								"slot": "5",
								"type": "t_string_storage"
							},
							{
								"astId": 15,
								"contract": "contracts/Profile.sol:Profile",
								"label": "userAddress",
								"offset": 0,
								"slot": "6",
								"type": "t_address"
							}
						],
						"numberOfBytes": "224"
					}
				}
			},
			"userdoc": {
				"kind": "user",
				"methods": {},
				"version": 1
			}
		}
	}
}