{
	"contracts/Profile.sol": {
		"Profile": {
			"abi": [
				{
					"inputs": [
						{
							"internalType": "string[]",
							"name": "frontend",
							"type": "string[]"
						},
						{
							"internalType": "string[]",
							"name": "backend",
							"type": "string[]"
						},
						{
							"internalType": "string[]",
							"name": "framework",
							"type": "string[]"
						}
					],
					"name": "addBio",
					"outputs": [],
					"stateMutability": "nonpayable",
					"type": "function"
				},
				{
					"inputs": [],
					"name": "delProfile",
					"outputs": [],
					"stateMutability": "nonpayable",
					"type": "function"
				},
				{
					"inputs": [
						{
							"internalType": "address",
							"name": "",
							"type": "address"
						}
					],
					"name": "profile",
					"outputs": [
						{
							"internalType": "address",
							"name": "userAddress",
							"type": "address"
						},
						{
							"internalType": "string",
							"name": "firstName",
							"type": "string"
						},
						{
							"internalType": "string",
							"name": "middleName",
							"type": "string"
						},
						{
							"internalType": "string",
							"name": "lastName",
							"type": "string"
						},
						{
							"internalType": "string",
							"name": "email",
							"type": "string"
						},
						{
							"internalType": "string",
							"name": "phone",
							"type": "string"
						},
						{
							"internalType": "string",
							"name": "profileImage",
							"type": "string"
						},
						{
							"internalType": "uint256",
							"name": "createDate",
							"type": "uint256"
						}
					],
					"stateMutability": "view",
					"type": "function"
				}
			],
			"devdoc": {
				"kind": "dev",
				"methods": {},
				"version": 1
			},
			"evm": {
				"assembly": "    /* \"contracts/Profile.sol\":60:2399  contract Profile {\r... */\n  mstore(0x40, 0x80)\n  callvalue\n  dup1\n  iszero\n  tag_1\n  jumpi\n  0x00\n  dup1\n  revert\ntag_1:\n  pop\n  dataSize(sub_0)\n  dup1\n  dataOffset(sub_0)\n  0x00\n  codecopy\n  0x00\n  return\nstop\n\nsub_0: assembly {\n        /* \"contracts/Profile.sol\":60:2399  contract Profile {\r... */\n      mstore(0x40, 0x80)\n      callvalue\n      dup1\n      iszero\n      tag_1\n      jumpi\n      0x00\n      dup1\n      revert\n    tag_1:\n      pop\n      jumpi(tag_2, lt(calldatasize, 0x04))\n      shr(0xe0, calldataload(0x00))\n      dup1\n      0x0c8c0186\n      eq\n      tag_3\n      jumpi\n      dup1\n      0x9dd9d0fd\n      eq\n      tag_4\n      jumpi\n      dup1\n      0xfabce08f\n      eq\n      tag_5\n      jumpi\n    tag_2:\n      0x00\n      dup1\n      revert\n        /* \"contracts/Profile.sol\":1405:1610  function addBio(string[] memory frontend, string[] memory backend, string[] memory framework) public {\r... */\n    tag_3:\n      tag_6\n      0x04\n      dup1\n      calldatasize\n      sub\n      dup2\n      add\n      swap1\n      tag_7\n      swap2\n      swap1\n      tag_8\n      jump\t// in\n    tag_7:\n      tag_9\n      jump\t// in\n    tag_6:\n      stop\n        /* \"contracts/Profile.sol\":411:451  mapping (address => Bio) public  profile */\n    tag_4:\n      tag_10\n      0x04\n      dup1\n      calldatasize\n      sub\n      dup2\n      add\n      swap1\n      tag_11\n      swap2\n      swap1\n      tag_12\n      jump\t// in\n    tag_11:\n      tag_13\n      jump\t// in\n    tag_10:\n      mload(0x40)\n      tag_14\n      swap9\n      swap8\n      swap7\n      swap6\n      swap5\n      swap4\n      swap3\n      swap2\n      swap1\n      tag_15\n      jump\t// in\n    tag_14:\n      mload(0x40)\n      dup1\n      swap2\n      sub\n      swap1\n      return\n        /* \"contracts/Profile.sol\":2318:2392  function delProfile() public {\r... */\n    tag_5:\n      tag_16\n      tag_17\n      jump\t// in\n    tag_16:\n      stop\n        /* \"contracts/Profile.sol\":1405:1610  function addBio(string[] memory frontend, string[] memory backend, string[] memory framework) public {\r... */\n    tag_9:\n        /* \"contracts/Profile.sol\":1517:1538  addSkill(frontend, 0) */\n      tag_19\n        /* \"contracts/Profile.sol\":1526:1534  frontend */\n      dup4\n        /* \"contracts/Profile.sol\":1536:1537  0 */\n      0x00\n        /* \"contracts/Profile.sol\":1517:1525  addSkill */\n      tag_20\n        /* \"contracts/Profile.sol\":1517:1538  addSkill(frontend, 0) */\n      jump\t// in\n    tag_19:\n        /* \"contracts/Profile.sol\":1549:1569  addSkill(backend, 1) */\n      tag_21\n        /* \"contracts/Profile.sol\":1558:1565  backend */\n      dup3\n        /* \"contracts/Profile.sol\":1567:1568  1 */\n      0x01\n        /* \"contracts/Profile.sol\":1549:1557  addSkill */\n      tag_20\n        /* \"contracts/Profile.sol\":1549:1569  addSkill(backend, 1) */\n      jump\t// in\n    tag_21:\n        /* \"contracts/Profile.sol\":1580:1602  addSkill(framework, 2) */\n      tag_22\n        /* \"contracts/Profile.sol\":1589:1598  framework */\n      dup2\n        /* \"contracts/Profile.sol\":1600:1601  2 */\n      0x02\n        /* \"contracts/Profile.sol\":1580:1588  addSkill */\n      tag_20\n        /* \"contracts/Profile.sol\":1580:1602  addSkill(framework, 2) */\n      jump\t// in\n    tag_22:\n        /* \"contracts/Profile.sol\":1405:1610  function addBio(string[] memory frontend, string[] memory backend, string[] memory framework) public {\r... */\n      pop\n      pop\n      pop\n      jump\t// out\n        /* \"contracts/Profile.sol\":411:451  mapping (address => Bio) public  profile */\n    tag_13:\n      mstore(0x20, 0x00)\n      dup1\n      0x00\n      mstore\n      keccak256(0x00, 0x40)\n      0x00\n      swap2\n      pop\n      swap1\n      pop\n      dup1\n      0x00\n      add\n      0x00\n      swap1\n      sload\n      swap1\n      0x0100\n      exp\n      swap1\n      div\n      0xffffffffffffffffffffffffffffffffffffffff\n      and\n      swap1\n      dup1\n      0x01\n      add\n      dup1\n      sload\n      tag_23\n      swap1\n      tag_24\n      jump\t// in\n    tag_23:\n      dup1\n      0x1f\n      add\n      0x20\n      dup1\n      swap2\n      div\n      mul\n      0x20\n      add\n      mload(0x40)\n      swap1\n      dup2\n      add\n      0x40\n      mstore\n      dup1\n      swap3\n      swap2\n      swap1\n      dup2\n      dup2\n      mstore\n      0x20\n      add\n      dup3\n      dup1\n      sload\n      tag_25\n      swap1\n      tag_24\n      jump\t// in\n    tag_25:\n      dup1\n      iszero\n      tag_26\n      jumpi\n      dup1\n      0x1f\n      lt\n      tag_27\n      jumpi\n      0x0100\n      dup1\n      dup4\n      sload\n      div\n      mul\n      dup4\n      mstore\n      swap2\n      0x20\n      add\n      swap2\n      jump(tag_26)\n    tag_27:\n      dup3\n      add\n      swap2\n      swap1\n      0x00\n      mstore\n      keccak256(0x00, 0x20)\n      swap1\n    tag_28:\n      dup2\n      sload\n      dup2\n      mstore\n      swap1\n      0x01\n      add\n      swap1\n      0x20\n      add\n      dup1\n      dup4\n      gt\n      tag_28\n      jumpi\n      dup3\n      swap1\n      sub\n      0x1f\n      and\n      dup3\n      add\n      swap2\n    tag_26:\n      pop\n      pop\n      pop\n      pop\n      pop\n      swap1\n      dup1\n      0x02\n      add\n      dup1\n      sload\n      tag_29\n      swap1\n      tag_24\n      jump\t// in\n    tag_29:\n      dup1\n      0x1f\n      add\n      0x20\n      dup1\n      swap2\n      div\n      mul\n      0x20\n      add\n      mload(0x40)\n      swap1\n      dup2\n      add\n      0x40\n      mstore\n      dup1\n      swap3\n      swap2\n      swap1\n      dup2\n      dup2\n      mstore\n      0x20\n      add\n      dup3\n      dup1\n      sload\n      tag_30\n      swap1\n      tag_24\n      jump\t// in\n    tag_30:\n      dup1\n      iszero\n      tag_31\n      jumpi\n      dup1\n      0x1f\n      lt\n      tag_32\n      jumpi\n      0x0100\n      dup1\n      dup4\n      sload\n      div\n      mul\n      dup4\n      mstore\n      swap2\n      0x20\n      add\n      swap2\n      jump(tag_31)\n    tag_32:\n      dup3\n      add\n      swap2\n      swap1\n      0x00\n      mstore\n      keccak256(0x00, 0x20)\n      swap1\n    tag_33:\n      dup2\n      sload\n      dup2\n      mstore\n      swap1\n      0x01\n      add\n      swap1\n      0x20\n      add\n      dup1\n      dup4\n      gt\n      tag_33\n      jumpi\n      dup3\n      swap1\n      sub\n      0x1f\n      and\n      dup3\n      add\n      swap2\n    tag_31:\n      pop\n      pop\n      pop\n      pop\n      pop\n      swap1\n      dup1\n      0x03\n      add\n      dup1\n      sload\n      tag_34\n      swap1\n      tag_24\n      jump\t// in\n    tag_34:\n      dup1\n      0x1f\n      add\n      0x20\n      dup1\n      swap2\n      div\n      mul\n      0x20\n      add\n      mload(0x40)\n      swap1\n      dup2\n      add\n      0x40\n      mstore\n      dup1\n      swap3\n      swap2\n      swap1\n      dup2\n      dup2\n      mstore\n      0x20\n      add\n      dup3\n      dup1\n      sload\n      tag_35\n      swap1\n      tag_24\n      jump\t// in\n    tag_35:\n      dup1\n      iszero\n      tag_36\n      jumpi\n      dup1\n      0x1f\n      lt\n      tag_37\n      jumpi\n      0x0100\n      dup1\n      dup4\n      sload\n      div\n      mul\n      dup4\n      mstore\n      swap2\n      0x20\n      add\n      swap2\n      jump(tag_36)\n    tag_37:\n      dup3\n      add\n      swap2\n      swap1\n      0x00\n      mstore\n      keccak256(0x00, 0x20)\n      swap1\n    tag_38:\n      dup2\n      sload\n      dup2\n      mstore\n      swap1\n      0x01\n      add\n      swap1\n      0x20\n      add\n      dup1\n      dup4\n      gt\n      tag_38\n      jumpi\n      dup3\n      swap1\n      sub\n      0x1f\n      and\n      dup3\n      add\n      swap2\n    tag_36:\n      pop\n      pop\n      pop\n      pop\n      pop\n      swap1\n      dup1\n      0x04\n      add\n      dup1\n      sload\n      tag_39\n      swap1\n      tag_24\n      jump\t// in\n    tag_39:\n      dup1\n      0x1f\n      add\n      0x20\n      dup1\n      swap2\n      div\n      mul\n      0x20\n      add\n      mload(0x40)\n      swap1\n      dup2\n      add\n      0x40\n      mstore\n      dup1\n      swap3\n      swap2\n      swap1\n      dup2\n      dup2\n      mstore\n      0x20\n      add\n      dup3\n      dup1\n      sload\n      tag_40\n      swap1\n      tag_24\n      jump\t// in\n    tag_40:\n      dup1\n      iszero\n      tag_41\n      jumpi\n      dup1\n      0x1f\n      lt\n      tag_42\n      jumpi\n      0x0100\n      dup1\n      dup4\n      sload\n      div\n      mul\n      dup4\n      mstore\n      swap2\n      0x20\n      add\n      swap2\n      jump(tag_41)\n    tag_42:\n      dup3\n      add\n      swap2\n      swap1\n      0x00\n      mstore\n      keccak256(0x00, 0x20)\n      swap1\n    tag_43:\n      dup2\n      sload\n      dup2\n      mstore\n      swap1\n      0x01\n      add\n      swap1\n      0x20\n      add\n      dup1\n      dup4\n      gt\n      tag_43\n      jumpi\n      dup3\n      swap1\n      sub\n      0x1f\n      and\n      dup3\n      add\n      swap2\n    tag_41:\n      pop\n      pop\n      pop\n      pop\n      pop\n      swap1\n      dup1\n      0x05\n      add\n      dup1\n      sload\n      tag_44\n      swap1\n      tag_24\n      jump\t// in\n    tag_44:\n      dup1\n      0x1f\n      add\n      0x20\n      dup1\n      swap2\n      div\n      mul\n      0x20\n      add\n      mload(0x40)\n      swap1\n      dup2\n      add\n      0x40\n      mstore\n      dup1\n      swap3\n      swap2\n      swap1\n      dup2\n      dup2\n      mstore\n      0x20\n      add\n      dup3\n      dup1\n      sload\n      tag_45\n      swap1\n      tag_24\n      jump\t// in\n    tag_45:\n      dup1\n      iszero\n      tag_46\n      jumpi\n      dup1\n      0x1f\n      lt\n      tag_47\n      jumpi\n      0x0100\n      dup1\n      dup4\n      sload\n      div\n      mul\n      dup4\n      mstore\n      swap2\n      0x20\n      add\n      swap2\n      jump(tag_46)\n    tag_47:\n      dup3\n      add\n      swap2\n      swap1\n      0x00\n      mstore\n      keccak256(0x00, 0x20)\n      swap1\n    tag_48:\n      dup2\n      sload\n      dup2\n      mstore\n      swap1\n      0x01\n      add\n      swap1\n      0x20\n      add\n      dup1\n      dup4\n      gt\n      tag_48\n      jumpi\n      dup3\n      swap1\n      sub\n      0x1f\n      and\n      dup3\n      add\n      swap2\n    tag_46:\n      pop\n      pop\n      pop\n      pop\n      pop\n      swap1\n      dup1\n      0x06\n      add\n      dup1\n      sload\n      tag_49\n      swap1\n      tag_24\n      jump\t// in\n    tag_49:\n      dup1\n      0x1f\n      add\n      0x20\n      dup1\n      swap2\n      div\n      mul\n      0x20\n      add\n      mload(0x40)\n      swap1\n      dup2\n      add\n      0x40\n      mstore\n      dup1\n      swap3\n      swap2\n      swap1\n      dup2\n      dup2\n      mstore\n      0x20\n      add\n      dup3\n      dup1\n      sload\n      tag_50\n      swap1\n      tag_24\n      jump\t// in\n    tag_50:\n      dup1\n      iszero\n      tag_51\n      jumpi\n      dup1\n      0x1f\n      lt\n      tag_52\n      jumpi\n      0x0100\n      dup1\n      dup4\n      sload\n      div\n      mul\n      dup4\n      mstore\n      swap2\n      0x20\n      add\n      swap2\n      jump(tag_51)\n    tag_52:\n      dup3\n      add\n      swap2\n      swap1\n      0x00\n      mstore\n      keccak256(0x00, 0x20)\n      swap1\n    tag_53:\n      dup2\n      sload\n      dup2\n      mstore\n      swap1\n      0x01\n      add\n      swap1\n      0x20\n      add\n      dup1\n      dup4\n      gt\n      tag_53\n      jumpi\n      dup3\n      swap1\n      sub\n      0x1f\n      and\n      dup3\n      add\n      swap2\n    tag_51:\n      pop\n      pop\n      pop\n      pop\n      pop\n      swap1\n      dup1\n      0x07\n      add\n      sload\n      swap1\n      pop\n      dup9\n      jump\t// out\n        /* \"contracts/Profile.sol\":2318:2392  function delProfile() public {\r... */\n    tag_17:\n        /* \"contracts/Profile.sol\":2365:2372  profile */\n      0x00\n        /* \"contracts/Profile.sol\":2365:2384  profile[msg.sender] */\n      dup1\n        /* \"contracts/Profile.sol\":2373:2383  msg.sender */\n      caller\n        /* \"contracts/Profile.sol\":2365:2384  profile[msg.sender] */\n      0xffffffffffffffffffffffffffffffffffffffff\n      and\n      0xffffffffffffffffffffffffffffffffffffffff\n      and\n      dup2\n      mstore\n      0x20\n      add\n      swap1\n      dup2\n      mstore\n      0x20\n      add\n      0x00\n      keccak256\n      0x00\n        /* \"contracts/Profile.sol\":2358:2384  delete profile[msg.sender] */\n      dup1\n      dup3\n      add\n      exp(0x0100, 0x00)\n      dup2\n      sload\n      swap1\n      0xffffffffffffffffffffffffffffffffffffffff\n      mul\n      not\n      and\n      swap1\n      sstore\n      0x01\n      dup3\n      add\n      0x00\n      tag_55\n      swap2\n      swap1\n      tag_56\n      jump\t// in\n    tag_55:\n      0x02\n      dup3\n      add\n      0x00\n      tag_57\n      swap2\n      swap1\n      tag_56\n      jump\t// in\n    tag_57:\n      0x03\n      dup3\n      add\n      0x00\n      tag_58\n      swap2\n      swap1\n      tag_56\n      jump\t// in\n    tag_58:\n      0x04\n      dup3\n      add\n      0x00\n      tag_59\n      swap2\n      swap1\n      tag_56\n      jump\t// in\n    tag_59:\n      0x05\n      dup3\n      add\n      0x00\n      tag_60\n      swap2\n      swap1\n      tag_56\n      jump\t// in\n    tag_60:\n      0x06\n      dup3\n      add\n      0x00\n      tag_61\n      swap2\n      swap1\n      tag_56\n      jump\t// in\n    tag_61:\n      0x07\n      dup3\n      add\n      0x00\n      swap1\n      sstore\n      0x08\n      dup3\n      add\n      0x00\n      tag_62\n      swap2\n      swap1\n      tag_63\n      jump\t// in\n    tag_62:\n      0x09\n      dup3\n      add\n      0x00\n      tag_64\n      swap2\n      swap1\n      tag_63\n      jump\t// in\n    tag_64:\n      0x0a\n      dup3\n      add\n      0x00\n      tag_65\n      swap2\n      swap1\n      tag_63\n      jump\t// in\n    tag_65:\n      pop\n      pop\n        /* \"contracts/Profile.sol\":2318:2392  function delProfile() public {\r... */\n      jump\t// out\n        /* \"contracts/Profile.sol\":1620:2310  function addSkill(string[] memory _frontend, uint8 _type) private {\r... */\n    tag_20:\n        /* \"contracts/Profile.sol\":1740:1741  0 */\n      0x00\n        /* \"contracts/Profile.sol\":1731:1736  _type */\n      dup2\n        /* \"contracts/Profile.sol\":1731:1741  _type == 0 */\n      0xff\n      and\n      eq\n        /* \"contracts/Profile.sol\":1728:1892  if(_type == 0){\r... */\n      iszero\n      tag_67\n      jumpi\n        /* \"contracts/Profile.sol\":1761:1768  uint8 i */\n      0x00\n        /* \"contracts/Profile.sol\":1757:1881  for(uint8 i=0; i < _frontend.length; i++) {\r... */\n    tag_68:\n        /* \"contracts/Profile.sol\":1776:1785  _frontend */\n      dup3\n        /* \"contracts/Profile.sol\":1776:1792  _frontend.length */\n      mload\n        /* \"contracts/Profile.sol\":1772:1773  i */\n      dup2\n        /* \"contracts/Profile.sol\":1772:1792  i < _frontend.length */\n      0xff\n      and\n      lt\n        /* \"contracts/Profile.sol\":1757:1881  for(uint8 i=0; i < _frontend.length; i++) {\r... */\n      iszero\n      tag_69\n      jumpi\n        /* \"contracts/Profile.sol\":1818:1825  profile */\n      0x00\n        /* \"contracts/Profile.sol\":1818:1837  profile[msg.sender] */\n      dup1\n        /* \"contracts/Profile.sol\":1826:1836  msg.sender */\n      caller\n        /* \"contracts/Profile.sol\":1818:1837  profile[msg.sender] */\n      0xffffffffffffffffffffffffffffffffffffffff\n      and\n      0xffffffffffffffffffffffffffffffffffffffff\n      and\n      dup2\n      mstore\n      0x20\n      add\n      swap1\n      dup2\n      mstore\n      0x20\n      add\n      0x00\n      keccak256\n        /* \"contracts/Profile.sol\":1818:1846  profile[msg.sender].frontend */\n      0x08\n      add\n        /* \"contracts/Profile.sol\":1852:1861  _frontend */\n      dup4\n        /* \"contracts/Profile.sol\":1862:1863  i */\n      dup3\n        /* \"contracts/Profile.sol\":1852:1864  _frontend[i] */\n      0xff\n      and\n      dup2\n      mload\n      dup2\n      lt\n      tag_71\n      jumpi\n      tag_72\n      tag_73\n      jump\t// in\n    tag_72:\n    tag_71:\n      0x20\n      mul\n      0x20\n      add\n      add\n      mload\n        /* \"contracts/Profile.sol\":1818:1865  profile[msg.sender].frontend.push(_frontend[i]) */\n      swap1\n      dup1\n      0x01\n      dup2\n      sload\n      add\n      dup1\n      dup3\n      sstore\n      dup1\n      swap2\n      pop\n      pop\n      0x01\n      swap1\n      sub\n      swap1\n      0x00\n      mstore\n      keccak256(0x00, 0x20)\n      add\n      0x00\n      swap1\n      swap2\n      swap1\n      swap2\n      swap1\n      swap2\n      pop\n      swap1\n      dup1\n      mload\n      swap1\n      0x20\n      add\n      swap1\n      tag_75\n      swap3\n      swap2\n      swap1\n      tag_76\n      jump\t// in\n    tag_75:\n      pop\n        /* \"contracts/Profile.sol\":1794:1797  i++ */\n      dup1\n      dup1\n      tag_77\n      swap1\n      tag_78\n      jump\t// in\n    tag_77:\n      swap2\n      pop\n      pop\n        /* \"contracts/Profile.sol\":1757:1881  for(uint8 i=0; i < _frontend.length; i++) {\r... */\n      jump(tag_68)\n    tag_69:\n      pop\n        /* \"contracts/Profile.sol\":1728:1892  if(_type == 0){\r... */\n    tag_67:\n        /* \"contracts/Profile.sol\":1945:1946  1 */\n      0x01\n        /* \"contracts/Profile.sol\":1936:1941  _type */\n      dup2\n        /* \"contracts/Profile.sol\":1936:1946  _type == 1 */\n      0xff\n      and\n      eq\n        /* \"contracts/Profile.sol\":1933:2096  if(_type == 1){\r... */\n      iszero\n      tag_79\n      jumpi\n        /* \"contracts/Profile.sol\":1966:1973  uint8 i */\n      0x00\n        /* \"contracts/Profile.sol\":1962:2085  for(uint8 i=0; i < _frontend.length; i++) {\r... */\n    tag_80:\n        /* \"contracts/Profile.sol\":1981:1990  _frontend */\n      dup3\n        /* \"contracts/Profile.sol\":1981:1997  _frontend.length */\n      mload\n        /* \"contracts/Profile.sol\":1977:1978  i */\n      dup2\n        /* \"contracts/Profile.sol\":1977:1997  i < _frontend.length */\n      0xff\n      and\n      lt\n        /* \"contracts/Profile.sol\":1962:2085  for(uint8 i=0; i < _frontend.length; i++) {\r... */\n      iszero\n      tag_81\n      jumpi\n        /* \"contracts/Profile.sol\":2023:2030  profile */\n      0x00\n        /* \"contracts/Profile.sol\":2023:2042  profile[msg.sender] */\n      dup1\n        /* \"contracts/Profile.sol\":2031:2041  msg.sender */\n      caller\n        /* \"contracts/Profile.sol\":2023:2042  profile[msg.sender] */\n      0xffffffffffffffffffffffffffffffffffffffff\n      and\n      0xffffffffffffffffffffffffffffffffffffffff\n      and\n      dup2\n      mstore\n      0x20\n      add\n      swap1\n      dup2\n      mstore\n      0x20\n      add\n      0x00\n      keccak256\n        /* \"contracts/Profile.sol\":2023:2050  profile[msg.sender].backend */\n      0x09\n      add\n        /* \"contracts/Profile.sol\":2056:2065  _frontend */\n      dup4\n        /* \"contracts/Profile.sol\":2066:2067  i */\n      dup3\n        /* \"contracts/Profile.sol\":2056:2068  _frontend[i] */\n      0xff\n      and\n      dup2\n      mload\n      dup2\n      lt\n      tag_83\n      jumpi\n      tag_84\n      tag_73\n      jump\t// in\n    tag_84:\n    tag_83:\n      0x20\n      mul\n      0x20\n      add\n      add\n      mload\n        /* \"contracts/Profile.sol\":2023:2069  profile[msg.sender].backend.push(_frontend[i]) */\n      swap1\n      dup1\n      0x01\n      dup2\n      sload\n      add\n      dup1\n      dup3\n      sstore\n      dup1\n      swap2\n      pop\n      pop\n      0x01\n      swap1\n      sub\n      swap1\n      0x00\n      mstore\n      keccak256(0x00, 0x20)\n      add\n      0x00\n      swap1\n      swap2\n      swap1\n      swap2\n      swap1\n      swap2\n      pop\n      swap1\n      dup1\n      mload\n      swap1\n      0x20\n      add\n      swap1\n      tag_86\n      swap3\n      swap2\n      swap1\n      tag_76\n      jump\t// in\n    tag_86:\n      pop\n        /* \"contracts/Profile.sol\":1999:2002  i++ */\n      dup1\n      dup1\n      tag_87\n      swap1\n      tag_78\n      jump\t// in\n    tag_87:\n      swap2\n      pop\n      pop\n        /* \"contracts/Profile.sol\":1962:2085  for(uint8 i=0; i < _frontend.length; i++) {\r... */\n      jump(tag_80)\n    tag_81:\n      pop\n        /* \"contracts/Profile.sol\":1933:2096  if(_type == 1){\r... */\n    tag_79:\n        /* \"contracts/Profile.sol\":2150:2151  2 */\n      0x02\n        /* \"contracts/Profile.sol\":2141:2146  _type */\n      dup2\n        /* \"contracts/Profile.sol\":2141:2151  _type == 2 */\n      0xff\n      and\n      eq\n        /* \"contracts/Profile.sol\":2138:2303  if(_type == 2){\r... */\n      iszero\n      tag_88\n      jumpi\n        /* \"contracts/Profile.sol\":2171:2178  uint8 i */\n      0x00\n        /* \"contracts/Profile.sol\":2167:2292  for(uint8 i=0; i < _frontend.length; i++) {\r... */\n    tag_89:\n        /* \"contracts/Profile.sol\":2186:2195  _frontend */\n      dup3\n        /* \"contracts/Profile.sol\":2186:2202  _frontend.length */\n      mload\n        /* \"contracts/Profile.sol\":2182:2183  i */\n      dup2\n        /* \"contracts/Profile.sol\":2182:2202  i < _frontend.length */\n      0xff\n      and\n      lt\n        /* \"contracts/Profile.sol\":2167:2292  for(uint8 i=0; i < _frontend.length; i++) {\r... */\n      iszero\n      tag_90\n      jumpi\n        /* \"contracts/Profile.sol\":2228:2235  profile */\n      0x00\n        /* \"contracts/Profile.sol\":2228:2247  profile[msg.sender] */\n      dup1\n        /* \"contracts/Profile.sol\":2236:2246  msg.sender */\n      caller\n        /* \"contracts/Profile.sol\":2228:2247  profile[msg.sender] */\n      0xffffffffffffffffffffffffffffffffffffffff\n      and\n      0xffffffffffffffffffffffffffffffffffffffff\n      and\n      dup2\n      mstore\n      0x20\n      add\n      swap1\n      dup2\n      mstore\n      0x20\n      add\n      0x00\n      keccak256\n        /* \"contracts/Profile.sol\":2228:2257  profile[msg.sender].framework */\n      0x0a\n      add\n        /* \"contracts/Profile.sol\":2263:2272  _frontend */\n      dup4\n        /* \"contracts/Profile.sol\":2273:2274  i */\n      dup3\n        /* \"contracts/Profile.sol\":2263:2275  _frontend[i] */\n      0xff\n      and\n      dup2\n      mload\n      dup2\n      lt\n      tag_92\n      jumpi\n      tag_93\n      tag_73\n      jump\t// in\n    tag_93:\n    tag_92:\n      0x20\n      mul\n      0x20\n      add\n      add\n      mload\n        /* \"contracts/Profile.sol\":2228:2276  profile[msg.sender].framework.push(_frontend[i]) */\n      swap1\n      dup1\n      0x01\n      dup2\n      sload\n      add\n      dup1\n      dup3\n      sstore\n      dup1\n      swap2\n      pop\n      pop\n      0x01\n      swap1\n      sub\n      swap1\n      0x00\n      mstore\n      keccak256(0x00, 0x20)\n      add\n      0x00\n      swap1\n      swap2\n      swap1\n      swap2\n      swap1\n      swap2\n      pop\n      swap1\n      dup1\n      mload\n      swap1\n      0x20\n      add\n      swap1\n      tag_95\n      swap3\n      swap2\n      swap1\n      tag_76\n      jump\t// in\n    tag_95:\n      pop\n        /* \"contracts/Profile.sol\":2204:2207  i++ */\n      dup1\n      dup1\n      tag_96\n      swap1\n      tag_78\n      jump\t// in\n    tag_96:\n      swap2\n      pop\n      pop\n        /* \"contracts/Profile.sol\":2167:2292  for(uint8 i=0; i < _frontend.length; i++) {\r... */\n      jump(tag_89)\n    tag_90:\n      pop\n        /* \"contracts/Profile.sol\":2138:2303  if(_type == 2){\r... */\n    tag_88:\n        /* \"contracts/Profile.sol\":1620:2310  function addSkill(string[] memory _frontend, uint8 _type) private {\r... */\n      pop\n      pop\n      jump\t// out\n    tag_56:\n      pop\n      dup1\n      sload\n      tag_97\n      swap1\n      tag_24\n      jump\t// in\n    tag_97:\n      0x00\n      dup3\n      sstore\n      dup1\n      0x1f\n      lt\n      tag_99\n      jumpi\n      pop\n      jump(tag_98)\n    tag_99:\n      0x1f\n      add\n      0x20\n      swap1\n      div\n      swap1\n      0x00\n      mstore\n      keccak256(0x00, 0x20)\n      swap1\n      dup2\n      add\n      swap1\n      tag_100\n      swap2\n      swap1\n      tag_101\n      jump\t// in\n    tag_100:\n    tag_98:\n      pop\n      jump\t// out\n    tag_63:\n      pop\n      dup1\n      sload\n      0x00\n      dup3\n      sstore\n      swap1\n      0x00\n      mstore\n      keccak256(0x00, 0x20)\n      swap1\n      dup2\n      add\n      swap1\n      tag_103\n      swap2\n      swap1\n      tag_104\n      jump\t// in\n    tag_103:\n      pop\n      jump\t// out\n    tag_76:\n      dup3\n      dup1\n      sload\n      tag_105\n      swap1\n      tag_24\n      jump\t// in\n    tag_105:\n      swap1\n      0x00\n      mstore\n      keccak256(0x00, 0x20)\n      swap1\n      0x1f\n      add\n      0x20\n      swap1\n      div\n      dup2\n      add\n      swap3\n      dup3\n      tag_107\n      jumpi\n      0x00\n      dup6\n      sstore\n      jump(tag_106)\n    tag_107:\n      dup3\n      0x1f\n      lt\n      tag_108\n      jumpi\n      dup1\n      mload\n      not(0xff)\n      and\n      dup4\n      dup1\n      add\n      or\n      dup6\n      sstore\n      jump(tag_106)\n    tag_108:\n      dup3\n      dup1\n      add\n      0x01\n      add\n      dup6\n      sstore\n      dup3\n      iszero\n      tag_106\n      jumpi\n      swap2\n      dup3\n      add\n    tag_109:\n      dup3\n      dup2\n      gt\n      iszero\n      tag_110\n      jumpi\n      dup3\n      mload\n      dup3\n      sstore\n      swap2\n      0x20\n      add\n      swap2\n      swap1\n      0x01\n      add\n      swap1\n      jump(tag_109)\n    tag_110:\n    tag_106:\n      pop\n      swap1\n      pop\n      tag_111\n      swap2\n      swap1\n      tag_101\n      jump\t// in\n    tag_111:\n      pop\n      swap1\n      jump\t// out\n    tag_101:\n    tag_112:\n      dup1\n      dup3\n      gt\n      iszero\n      tag_113\n      jumpi\n      0x00\n      dup2\n      0x00\n      swap1\n      sstore\n      pop\n      0x01\n      add\n      jump(tag_112)\n    tag_113:\n      pop\n      swap1\n      jump\t// out\n    tag_104:\n    tag_114:\n      dup1\n      dup3\n      gt\n      iszero\n      tag_115\n      jumpi\n      0x00\n      dup2\n      dup2\n      tag_116\n      swap2\n      swap1\n      tag_56\n      jump\t// in\n    tag_116:\n      pop\n      0x01\n      add\n      jump(tag_114)\n    tag_115:\n      pop\n      swap1\n      jump\t// out\n        /* \"#utility.yul\":23:980   */\n    tag_118:\n        /* \"#utility.yul\":129:134   */\n      0x00\n        /* \"#utility.yul\":154:245   */\n      tag_120\n        /* \"#utility.yul\":170:244   */\n      tag_121\n        /* \"#utility.yul\":237:243   */\n      dup5\n        /* \"#utility.yul\":170:244   */\n      tag_122\n      jump\t// in\n    tag_121:\n        /* \"#utility.yul\":154:245   */\n      tag_123\n      jump\t// in\n    tag_120:\n        /* \"#utility.yul\":145:245   */\n      swap1\n      pop\n        /* \"#utility.yul\":265:270   */\n      dup1\n        /* \"#utility.yul\":294:300   */\n      dup4\n        /* \"#utility.yul\":287:292   */\n      dup3\n        /* \"#utility.yul\":280:301   */\n      mstore\n        /* \"#utility.yul\":328:332   */\n      0x20\n        /* \"#utility.yul\":321:326   */\n      dup3\n        /* \"#utility.yul\":317:333   */\n      add\n        /* \"#utility.yul\":310:333   */\n      swap1\n      pop\n        /* \"#utility.yul\":354:360   */\n      dup3\n        /* \"#utility.yul\":404:407   */\n      dup6\n        /* \"#utility.yul\":396:400   */\n      0x20\n        /* \"#utility.yul\":388:394   */\n      dup7\n        /* \"#utility.yul\":384:401   */\n      mul\n        /* \"#utility.yul\":379:382   */\n      dup3\n        /* \"#utility.yul\":375:402   */\n      add\n        /* \"#utility.yul\":372:408   */\n      gt\n        /* \"#utility.yul\":369:512   */\n      iszero\n      tag_124\n      jumpi\n        /* \"#utility.yul\":423:502   */\n      tag_125\n      tag_126\n      jump\t// in\n    tag_125:\n        /* \"#utility.yul\":369:512   */\n    tag_124:\n        /* \"#utility.yul\":536:537   */\n      0x00\n        /* \"#utility.yul\":521:974   */\n    tag_127:\n        /* \"#utility.yul\":546:552   */\n      dup6\n        /* \"#utility.yul\":543:544   */\n      dup2\n        /* \"#utility.yul\":540:553   */\n      lt\n        /* \"#utility.yul\":521:974   */\n      iszero\n      tag_129\n      jumpi\n        /* \"#utility.yul\":628:631   */\n      dup2\n        /* \"#utility.yul\":615:632   */\n      calldataload\n        /* \"#utility.yul\":664:682   */\n      0xffffffffffffffff\n        /* \"#utility.yul\":651:662   */\n      dup2\n        /* \"#utility.yul\":648:683   */\n      gt\n        /* \"#utility.yul\":645:767   */\n      iszero\n      tag_130\n      jumpi\n        /* \"#utility.yul\":686:765   */\n      tag_131\n      tag_132\n      jump\t// in\n    tag_131:\n        /* \"#utility.yul\":645:767   */\n    tag_130:\n        /* \"#utility.yul\":810:821   */\n      dup1\n        /* \"#utility.yul\":802:808   */\n      dup7\n        /* \"#utility.yul\":798:822   */\n      add\n        /* \"#utility.yul\":848:895   */\n      tag_133\n        /* \"#utility.yul\":891:894   */\n      dup10\n        /* \"#utility.yul\":879:889   */\n      dup3\n        /* \"#utility.yul\":848:895   */\n      tag_134\n      jump\t// in\n    tag_133:\n        /* \"#utility.yul\":843:846   */\n      dup6\n        /* \"#utility.yul\":836:896   */\n      mstore\n        /* \"#utility.yul\":925:929   */\n      0x20\n        /* \"#utility.yul\":920:923   */\n      dup6\n        /* \"#utility.yul\":916:930   */\n      add\n        /* \"#utility.yul\":909:930   */\n      swap5\n      pop\n        /* \"#utility.yul\":959:963   */\n      0x20\n        /* \"#utility.yul\":954:957   */\n      dup5\n        /* \"#utility.yul\":950:964   */\n      add\n        /* \"#utility.yul\":943:964   */\n      swap4\n      pop\n        /* \"#utility.yul\":581:974   */\n      pop\n      pop\n        /* \"#utility.yul\":568:569   */\n      0x01\n        /* \"#utility.yul\":565:566   */\n      dup2\n        /* \"#utility.yul\":561:570   */\n      add\n        /* \"#utility.yul\":556:570   */\n      swap1\n      pop\n        /* \"#utility.yul\":521:974   */\n      jump(tag_127)\n    tag_129:\n        /* \"#utility.yul\":525:539   */\n      pop\n        /* \"#utility.yul\":135:980   */\n      pop\n      pop\n        /* \"#utility.yul\":23:980   */\n      swap4\n      swap3\n      pop\n      pop\n      pop\n      jump\t// out\n        /* \"#utility.yul\":986:1398   */\n    tag_135:\n        /* \"#utility.yul\":1064:1069   */\n      0x00\n        /* \"#utility.yul\":1089:1155   */\n      tag_137\n        /* \"#utility.yul\":1105:1154   */\n      tag_138\n        /* \"#utility.yul\":1147:1153   */\n      dup5\n        /* \"#utility.yul\":1105:1154   */\n      tag_139\n      jump\t// in\n    tag_138:\n        /* \"#utility.yul\":1089:1155   */\n      tag_123\n      jump\t// in\n    tag_137:\n        /* \"#utility.yul\":1080:1155   */\n      swap1\n      pop\n        /* \"#utility.yul\":1178:1184   */\n      dup3\n        /* \"#utility.yul\":1171:1176   */\n      dup2\n        /* \"#utility.yul\":1164:1185   */\n      mstore\n        /* \"#utility.yul\":1216:1220   */\n      0x20\n        /* \"#utility.yul\":1209:1214   */\n      dup2\n        /* \"#utility.yul\":1205:1221   */\n      add\n        /* \"#utility.yul\":1254:1257   */\n      dup5\n        /* \"#utility.yul\":1245:1251   */\n      dup5\n        /* \"#utility.yul\":1240:1243   */\n      dup5\n        /* \"#utility.yul\":1236:1252   */\n      add\n        /* \"#utility.yul\":1233:1258   */\n      gt\n        /* \"#utility.yul\":1230:1342   */\n      iszero\n      tag_140\n      jumpi\n        /* \"#utility.yul\":1261:1340   */\n      tag_141\n      tag_142\n      jump\t// in\n    tag_141:\n        /* \"#utility.yul\":1230:1342   */\n    tag_140:\n        /* \"#utility.yul\":1351:1392   */\n      tag_143\n        /* \"#utility.yul\":1385:1391   */\n      dup5\n        /* \"#utility.yul\":1380:1383   */\n      dup3\n        /* \"#utility.yul\":1375:1378   */\n      dup6\n        /* \"#utility.yul\":1351:1392   */\n      tag_144\n      jump\t// in\n    tag_143:\n        /* \"#utility.yul\":1070:1398   */\n      pop\n        /* \"#utility.yul\":986:1398   */\n      swap4\n      swap3\n      pop\n      pop\n      pop\n      jump\t// out\n        /* \"#utility.yul\":1404:1543   */\n    tag_145:\n        /* \"#utility.yul\":1450:1455   */\n      0x00\n        /* \"#utility.yul\":1488:1494   */\n      dup2\n        /* \"#utility.yul\":1475:1495   */\n      calldataload\n        /* \"#utility.yul\":1466:1495   */\n      swap1\n      pop\n        /* \"#utility.yul\":1504:1537   */\n      tag_147\n        /* \"#utility.yul\":1531:1536   */\n      dup2\n        /* \"#utility.yul\":1504:1537   */\n      tag_148\n      jump\t// in\n    tag_147:\n        /* \"#utility.yul\":1404:1543   */\n      swap3\n      swap2\n      pop\n      pop\n      jump\t// out\n        /* \"#utility.yul\":1565:1955   */\n    tag_149:\n        /* \"#utility.yul\":1646:1651   */\n      0x00\n        /* \"#utility.yul\":1695:1698   */\n      dup3\n        /* \"#utility.yul\":1688:1692   */\n      0x1f\n        /* \"#utility.yul\":1680:1686   */\n      dup4\n        /* \"#utility.yul\":1676:1693   */\n      add\n        /* \"#utility.yul\":1672:1699   */\n      slt\n        /* \"#utility.yul\":1662:1784   */\n      tag_151\n      jumpi\n        /* \"#utility.yul\":1703:1782   */\n      tag_152\n      tag_132\n      jump\t// in\n    tag_152:\n        /* \"#utility.yul\":1662:1784   */\n    tag_151:\n        /* \"#utility.yul\":1820:1826   */\n      dup2\n        /* \"#utility.yul\":1807:1827   */\n      calldataload\n        /* \"#utility.yul\":1845:1949   */\n      tag_153\n        /* \"#utility.yul\":1945:1948   */\n      dup5\n        /* \"#utility.yul\":1937:1943   */\n      dup3\n        /* \"#utility.yul\":1930:1934   */\n      0x20\n        /* \"#utility.yul\":1922:1928   */\n      dup7\n        /* \"#utility.yul\":1918:1935   */\n      add\n        /* \"#utility.yul\":1845:1949   */\n      tag_118\n      jump\t// in\n    tag_153:\n        /* \"#utility.yul\":1836:1949   */\n      swap2\n      pop\n        /* \"#utility.yul\":1652:1955   */\n      pop\n        /* \"#utility.yul\":1565:1955   */\n      swap3\n      swap2\n      pop\n      pop\n      jump\t// out\n        /* \"#utility.yul\":1975:2315   */\n    tag_134:\n        /* \"#utility.yul\":2031:2036   */\n      0x00\n        /* \"#utility.yul\":2080:2083   */\n      dup3\n        /* \"#utility.yul\":2073:2077   */\n      0x1f\n        /* \"#utility.yul\":2065:2071   */\n      dup4\n        /* \"#utility.yul\":2061:2078   */\n      add\n        /* \"#utility.yul\":2057:2084   */\n      slt\n        /* \"#utility.yul\":2047:2169   */\n      tag_155\n      jumpi\n        /* \"#utility.yul\":2088:2167   */\n      tag_156\n      tag_132\n      jump\t// in\n    tag_156:\n        /* \"#utility.yul\":2047:2169   */\n    tag_155:\n        /* \"#utility.yul\":2205:2211   */\n      dup2\n        /* \"#utility.yul\":2192:2212   */\n      calldataload\n        /* \"#utility.yul\":2230:2309   */\n      tag_157\n        /* \"#utility.yul\":2305:2308   */\n      dup5\n        /* \"#utility.yul\":2297:2303   */\n      dup3\n        /* \"#utility.yul\":2290:2294   */\n      0x20\n        /* \"#utility.yul\":2282:2288   */\n      dup7\n        /* \"#utility.yul\":2278:2295   */\n      add\n        /* \"#utility.yul\":2230:2309   */\n      tag_135\n      jump\t// in\n    tag_157:\n        /* \"#utility.yul\":2221:2309   */\n      swap2\n      pop\n        /* \"#utility.yul\":2037:2315   */\n      pop\n        /* \"#utility.yul\":1975:2315   */\n      swap3\n      swap2\n      pop\n      pop\n      jump\t// out\n        /* \"#utility.yul\":2321:2650   */\n    tag_12:\n        /* \"#utility.yul\":2380:2386   */\n      0x00\n        /* \"#utility.yul\":2429:2431   */\n      0x20\n        /* \"#utility.yul\":2417:2426   */\n      dup3\n        /* \"#utility.yul\":2408:2415   */\n      dup5\n        /* \"#utility.yul\":2404:2427   */\n      sub\n        /* \"#utility.yul\":2400:2432   */\n      slt\n        /* \"#utility.yul\":2397:2516   */\n      iszero\n      tag_159\n      jumpi\n        /* \"#utility.yul\":2435:2514   */\n      tag_160\n      tag_161\n      jump\t// in\n    tag_160:\n        /* \"#utility.yul\":2397:2516   */\n    tag_159:\n        /* \"#utility.yul\":2555:2556   */\n      0x00\n        /* \"#utility.yul\":2580:2633   */\n      tag_162\n        /* \"#utility.yul\":2625:2632   */\n      dup5\n        /* \"#utility.yul\":2616:2622   */\n      dup3\n        /* \"#utility.yul\":2605:2614   */\n      dup6\n        /* \"#utility.yul\":2601:2623   */\n      add\n        /* \"#utility.yul\":2580:2633   */\n      tag_145\n      jump\t// in\n    tag_162:\n        /* \"#utility.yul\":2570:2633   */\n      swap2\n      pop\n        /* \"#utility.yul\":2526:2643   */\n      pop\n        /* \"#utility.yul\":2321:2650   */\n      swap3\n      swap2\n      pop\n      pop\n      jump\t// out\n        /* \"#utility.yul\":2656:3965   */\n    tag_8:\n        /* \"#utility.yul\":2838:2844   */\n      0x00\n        /* \"#utility.yul\":2846:2852   */\n      dup1\n        /* \"#utility.yul\":2854:2860   */\n      0x00\n        /* \"#utility.yul\":2903:2905   */\n      0x60\n        /* \"#utility.yul\":2891:2900   */\n      dup5\n        /* \"#utility.yul\":2882:2889   */\n      dup7\n        /* \"#utility.yul\":2878:2901   */\n      sub\n        /* \"#utility.yul\":2874:2906   */\n      slt\n        /* \"#utility.yul\":2871:2990   */\n      iszero\n      tag_164\n      jumpi\n        /* \"#utility.yul\":2909:2988   */\n      tag_165\n      tag_161\n      jump\t// in\n    tag_165:\n        /* \"#utility.yul\":2871:2990   */\n    tag_164:\n        /* \"#utility.yul\":3057:3058   */\n      0x00\n        /* \"#utility.yul\":3046:3055   */\n      dup5\n        /* \"#utility.yul\":3042:3059   */\n      add\n        /* \"#utility.yul\":3029:3060   */\n      calldataload\n        /* \"#utility.yul\":3087:3105   */\n      0xffffffffffffffff\n        /* \"#utility.yul\":3079:3085   */\n      dup2\n        /* \"#utility.yul\":3076:3106   */\n      gt\n        /* \"#utility.yul\":3073:3190   */\n      iszero\n      tag_166\n      jumpi\n        /* \"#utility.yul\":3109:3188   */\n      tag_167\n      tag_168\n      jump\t// in\n    tag_167:\n        /* \"#utility.yul\":3073:3190   */\n    tag_166:\n        /* \"#utility.yul\":3214:3302   */\n      tag_169\n        /* \"#utility.yul\":3294:3301   */\n      dup7\n        /* \"#utility.yul\":3285:3291   */\n      dup3\n        /* \"#utility.yul\":3274:3283   */\n      dup8\n        /* \"#utility.yul\":3270:3292   */\n      add\n        /* \"#utility.yul\":3214:3302   */\n      tag_149\n      jump\t// in\n    tag_169:\n        /* \"#utility.yul\":3204:3302   */\n      swap4\n      pop\n        /* \"#utility.yul\":3000:3312   */\n      pop\n        /* \"#utility.yul\":3379:3381   */\n      0x20\n        /* \"#utility.yul\":3368:3377   */\n      dup5\n        /* \"#utility.yul\":3364:3382   */\n      add\n        /* \"#utility.yul\":3351:3383   */\n      calldataload\n        /* \"#utility.yul\":3410:3428   */\n      0xffffffffffffffff\n        /* \"#utility.yul\":3402:3408   */\n      dup2\n        /* \"#utility.yul\":3399:3429   */\n      gt\n        /* \"#utility.yul\":3396:3513   */\n      iszero\n      tag_170\n      jumpi\n        /* \"#utility.yul\":3432:3511   */\n      tag_171\n      tag_168\n      jump\t// in\n    tag_171:\n        /* \"#utility.yul\":3396:3513   */\n    tag_170:\n        /* \"#utility.yul\":3537:3625   */\n      tag_172\n        /* \"#utility.yul\":3617:3624   */\n      dup7\n        /* \"#utility.yul\":3608:3614   */\n      dup3\n        /* \"#utility.yul\":3597:3606   */\n      dup8\n        /* \"#utility.yul\":3593:3615   */\n      add\n        /* \"#utility.yul\":3537:3625   */\n      tag_149\n      jump\t// in\n    tag_172:\n        /* \"#utility.yul\":3527:3625   */\n      swap3\n      pop\n        /* \"#utility.yul\":3322:3635   */\n      pop\n        /* \"#utility.yul\":3702:3704   */\n      0x40\n        /* \"#utility.yul\":3691:3700   */\n      dup5\n        /* \"#utility.yul\":3687:3705   */\n      add\n        /* \"#utility.yul\":3674:3706   */\n      calldataload\n        /* \"#utility.yul\":3733:3751   */\n      0xffffffffffffffff\n        /* \"#utility.yul\":3725:3731   */\n      dup2\n        /* \"#utility.yul\":3722:3752   */\n      gt\n        /* \"#utility.yul\":3719:3836   */\n      iszero\n      tag_173\n      jumpi\n        /* \"#utility.yul\":3755:3834   */\n      tag_174\n      tag_168\n      jump\t// in\n    tag_174:\n        /* \"#utility.yul\":3719:3836   */\n    tag_173:\n        /* \"#utility.yul\":3860:3948   */\n      tag_175\n        /* \"#utility.yul\":3940:3947   */\n      dup7\n        /* \"#utility.yul\":3931:3937   */\n      dup3\n        /* \"#utility.yul\":3920:3929   */\n      dup8\n        /* \"#utility.yul\":3916:3938   */\n      add\n        /* \"#utility.yul\":3860:3948   */\n      tag_149\n      jump\t// in\n    tag_175:\n        /* \"#utility.yul\":3850:3948   */\n      swap2\n      pop\n        /* \"#utility.yul\":3645:3958   */\n      pop\n        /* \"#utility.yul\":2656:3965   */\n      swap3\n      pop\n      swap3\n      pop\n      swap3\n      jump\t// out\n        /* \"#utility.yul\":3971:4089   */\n    tag_176:\n        /* \"#utility.yul\":4058:4082   */\n      tag_178\n        /* \"#utility.yul\":4076:4081   */\n      dup2\n        /* \"#utility.yul\":4058:4082   */\n      tag_179\n      jump\t// in\n    tag_178:\n        /* \"#utility.yul\":4053:4056   */\n      dup3\n        /* \"#utility.yul\":4046:4083   */\n      mstore\n        /* \"#utility.yul\":3971:4089   */\n      pop\n      pop\n      jump\t// out\n        /* \"#utility.yul\":4095:4459   */\n    tag_180:\n        /* \"#utility.yul\":4183:4186   */\n      0x00\n        /* \"#utility.yul\":4211:4250   */\n      tag_182\n        /* \"#utility.yul\":4244:4249   */\n      dup3\n        /* \"#utility.yul\":4211:4250   */\n      tag_183\n      jump\t// in\n    tag_182:\n        /* \"#utility.yul\":4266:4337   */\n      tag_184\n        /* \"#utility.yul\":4330:4336   */\n      dup2\n        /* \"#utility.yul\":4325:4328   */\n      dup6\n        /* \"#utility.yul\":4266:4337   */\n      tag_185\n      jump\t// in\n    tag_184:\n        /* \"#utility.yul\":4259:4337   */\n      swap4\n      pop\n        /* \"#utility.yul\":4346:4398   */\n      tag_186\n        /* \"#utility.yul\":4391:4397   */\n      dup2\n        /* \"#utility.yul\":4386:4389   */\n      dup6\n        /* \"#utility.yul\":4379:4383   */\n      0x20\n        /* \"#utility.yul\":4372:4377   */\n      dup7\n        /* \"#utility.yul\":4368:4384   */\n      add\n        /* \"#utility.yul\":4346:4398   */\n      tag_187\n      jump\t// in\n    tag_186:\n        /* \"#utility.yul\":4423:4452   */\n      tag_188\n        /* \"#utility.yul\":4445:4451   */\n      dup2\n        /* \"#utility.yul\":4423:4452   */\n      tag_189\n      jump\t// in\n    tag_188:\n        /* \"#utility.yul\":4418:4421   */\n      dup5\n        /* \"#utility.yul\":4414:4453   */\n      add\n        /* \"#utility.yul\":4407:4453   */\n      swap2\n      pop\n        /* \"#utility.yul\":4187:4459   */\n      pop\n        /* \"#utility.yul\":4095:4459   */\n      swap3\n      swap2\n      pop\n      pop\n      jump\t// out\n        /* \"#utility.yul\":4465:4583   */\n    tag_190:\n        /* \"#utility.yul\":4552:4576   */\n      tag_192\n        /* \"#utility.yul\":4570:4575   */\n      dup2\n        /* \"#utility.yul\":4552:4576   */\n      tag_193\n      jump\t// in\n    tag_192:\n        /* \"#utility.yul\":4547:4550   */\n      dup3\n        /* \"#utility.yul\":4540:4577   */\n      mstore\n        /* \"#utility.yul\":4465:4583   */\n      pop\n      pop\n      jump\t// out\n        /* \"#utility.yul\":4589:6132   */\n    tag_15:\n        /* \"#utility.yul\":4998:5002   */\n      0x00\n        /* \"#utility.yul\":5036:5039   */\n      0x0100\n        /* \"#utility.yul\":5025:5034   */\n      dup3\n        /* \"#utility.yul\":5021:5040   */\n      add\n        /* \"#utility.yul\":5013:5040   */\n      swap1\n      pop\n        /* \"#utility.yul\":5050:5121   */\n      tag_195\n        /* \"#utility.yul\":5118:5119   */\n      0x00\n        /* \"#utility.yul\":5107:5116   */\n      dup4\n        /* \"#utility.yul\":5103:5120   */\n      add\n        /* \"#utility.yul\":5094:5100   */\n      dup12\n        /* \"#utility.yul\":5050:5121   */\n      tag_176\n      jump\t// in\n    tag_195:\n        /* \"#utility.yul\":5168:5177   */\n      dup2\n        /* \"#utility.yul\":5162:5166   */\n      dup2\n        /* \"#utility.yul\":5158:5178   */\n      sub\n        /* \"#utility.yul\":5153:5155   */\n      0x20\n        /* \"#utility.yul\":5142:5151   */\n      dup4\n        /* \"#utility.yul\":5138:5156   */\n      add\n        /* \"#utility.yul\":5131:5179   */\n      mstore\n        /* \"#utility.yul\":5196:5274   */\n      tag_196\n        /* \"#utility.yul\":5269:5273   */\n      dup2\n        /* \"#utility.yul\":5260:5266   */\n      dup11\n        /* \"#utility.yul\":5196:5274   */\n      tag_180\n      jump\t// in\n    tag_196:\n        /* \"#utility.yul\":5188:5274   */\n      swap1\n      pop\n        /* \"#utility.yul\":5321:5330   */\n      dup2\n        /* \"#utility.yul\":5315:5319   */\n      dup2\n        /* \"#utility.yul\":5311:5331   */\n      sub\n        /* \"#utility.yul\":5306:5308   */\n      0x40\n        /* \"#utility.yul\":5295:5304   */\n      dup4\n        /* \"#utility.yul\":5291:5309   */\n      add\n        /* \"#utility.yul\":5284:5332   */\n      mstore\n        /* \"#utility.yul\":5349:5427   */\n      tag_197\n        /* \"#utility.yul\":5422:5426   */\n      dup2\n        /* \"#utility.yul\":5413:5419   */\n      dup10\n        /* \"#utility.yul\":5349:5427   */\n      tag_180\n      jump\t// in\n    tag_197:\n        /* \"#utility.yul\":5341:5427   */\n      swap1\n      pop\n        /* \"#utility.yul\":5474:5483   */\n      dup2\n        /* \"#utility.yul\":5468:5472   */\n      dup2\n        /* \"#utility.yul\":5464:5484   */\n      sub\n        /* \"#utility.yul\":5459:5461   */\n      0x60\n        /* \"#utility.yul\":5448:5457   */\n      dup4\n        /* \"#utility.yul\":5444:5462   */\n      add\n        /* \"#utility.yul\":5437:5485   */\n      mstore\n        /* \"#utility.yul\":5502:5580   */\n      tag_198\n        /* \"#utility.yul\":5575:5579   */\n      dup2\n        /* \"#utility.yul\":5566:5572   */\n      dup9\n        /* \"#utility.yul\":5502:5580   */\n      tag_180\n      jump\t// in\n    tag_198:\n        /* \"#utility.yul\":5494:5580   */\n      swap1\n      pop\n        /* \"#utility.yul\":5628:5637   */\n      dup2\n        /* \"#utility.yul\":5622:5626   */\n      dup2\n        /* \"#utility.yul\":5618:5638   */\n      sub\n        /* \"#utility.yul\":5612:5615   */\n      0x80\n        /* \"#utility.yul\":5601:5610   */\n      dup4\n        /* \"#utility.yul\":5597:5616   */\n      add\n        /* \"#utility.yul\":5590:5639   */\n      mstore\n        /* \"#utility.yul\":5656:5734   */\n      tag_199\n        /* \"#utility.yul\":5729:5733   */\n      dup2\n        /* \"#utility.yul\":5720:5726   */\n      dup8\n        /* \"#utility.yul\":5656:5734   */\n      tag_180\n      jump\t// in\n    tag_199:\n        /* \"#utility.yul\":5648:5734   */\n      swap1\n      pop\n        /* \"#utility.yul\":5782:5791   */\n      dup2\n        /* \"#utility.yul\":5776:5780   */\n      dup2\n        /* \"#utility.yul\":5772:5792   */\n      sub\n        /* \"#utility.yul\":5766:5769   */\n      0xa0\n        /* \"#utility.yul\":5755:5764   */\n      dup4\n        /* \"#utility.yul\":5751:5770   */\n      add\n        /* \"#utility.yul\":5744:5793   */\n      mstore\n        /* \"#utility.yul\":5810:5888   */\n      tag_200\n        /* \"#utility.yul\":5883:5887   */\n      dup2\n        /* \"#utility.yul\":5874:5880   */\n      dup7\n        /* \"#utility.yul\":5810:5888   */\n      tag_180\n      jump\t// in\n    tag_200:\n        /* \"#utility.yul\":5802:5888   */\n      swap1\n      pop\n        /* \"#utility.yul\":5936:5945   */\n      dup2\n        /* \"#utility.yul\":5930:5934   */\n      dup2\n        /* \"#utility.yul\":5926:5946   */\n      sub\n        /* \"#utility.yul\":5920:5923   */\n      0xc0\n        /* \"#utility.yul\":5909:5918   */\n      dup4\n        /* \"#utility.yul\":5905:5924   */\n      add\n        /* \"#utility.yul\":5898:5947   */\n      mstore\n        /* \"#utility.yul\":5964:6042   */\n      tag_201\n        /* \"#utility.yul\":6037:6041   */\n      dup2\n        /* \"#utility.yul\":6028:6034   */\n      dup6\n        /* \"#utility.yul\":5964:6042   */\n      tag_180\n      jump\t// in\n    tag_201:\n        /* \"#utility.yul\":5956:6042   */\n      swap1\n      pop\n        /* \"#utility.yul\":6052:6125   */\n      tag_202\n        /* \"#utility.yul\":6120:6123   */\n      0xe0\n        /* \"#utility.yul\":6109:6118   */\n      dup4\n        /* \"#utility.yul\":6105:6124   */\n      add\n        /* \"#utility.yul\":6096:6102   */\n      dup5\n        /* \"#utility.yul\":6052:6125   */\n      tag_190\n      jump\t// in\n    tag_202:\n        /* \"#utility.yul\":4589:6132   */\n      swap10\n      swap9\n      pop\n      pop\n      pop\n      pop\n      pop\n      pop\n      pop\n      pop\n      pop\n      jump\t// out\n        /* \"#utility.yul\":6138:6267   */\n    tag_123:\n        /* \"#utility.yul\":6172:6178   */\n      0x00\n        /* \"#utility.yul\":6199:6219   */\n      tag_204\n      tag_205\n      jump\t// in\n    tag_204:\n        /* \"#utility.yul\":6189:6219   */\n      swap1\n      pop\n        /* \"#utility.yul\":6228:6261   */\n      tag_206\n        /* \"#utility.yul\":6256:6260   */\n      dup3\n        /* \"#utility.yul\":6248:6254   */\n      dup3\n        /* \"#utility.yul\":6228:6261   */\n      tag_207\n      jump\t// in\n    tag_206:\n        /* \"#utility.yul\":6138:6267   */\n      swap2\n      swap1\n      pop\n      jump\t// out\n        /* \"#utility.yul\":6273:6348   */\n    tag_205:\n        /* \"#utility.yul\":6306:6312   */\n      0x00\n        /* \"#utility.yul\":6339:6341   */\n      0x40\n        /* \"#utility.yul\":6333:6342   */\n      mload\n        /* \"#utility.yul\":6323:6342   */\n      swap1\n      pop\n        /* \"#utility.yul\":6273:6348   */\n      swap1\n      jump\t// out\n        /* \"#utility.yul\":6354:6675   */\n    tag_122:\n        /* \"#utility.yul\":6441:6445   */\n      0x00\n        /* \"#utility.yul\":6531:6549   */\n      0xffffffffffffffff\n        /* \"#utility.yul\":6523:6529   */\n      dup3\n        /* \"#utility.yul\":6520:6550   */\n      gt\n        /* \"#utility.yul\":6517:6573   */\n      iszero\n      tag_210\n      jumpi\n        /* \"#utility.yul\":6553:6571   */\n      tag_211\n      tag_212\n      jump\t// in\n    tag_211:\n        /* \"#utility.yul\":6517:6573   */\n    tag_210:\n        /* \"#utility.yul\":6603:6607   */\n      0x20\n        /* \"#utility.yul\":6595:6601   */\n      dup3\n        /* \"#utility.yul\":6591:6608   */\n      mul\n        /* \"#utility.yul\":6583:6608   */\n      swap1\n      pop\n        /* \"#utility.yul\":6663:6667   */\n      0x20\n        /* \"#utility.yul\":6657:6661   */\n      dup2\n        /* \"#utility.yul\":6653:6668   */\n      add\n        /* \"#utility.yul\":6645:6668   */\n      swap1\n      pop\n        /* \"#utility.yul\":6354:6675   */\n      swap2\n      swap1\n      pop\n      jump\t// out\n        /* \"#utility.yul\":6681:6989   */\n    tag_139:\n        /* \"#utility.yul\":6743:6747   */\n      0x00\n        /* \"#utility.yul\":6833:6851   */\n      0xffffffffffffffff\n        /* \"#utility.yul\":6825:6831   */\n      dup3\n        /* \"#utility.yul\":6822:6852   */\n      gt\n        /* \"#utility.yul\":6819:6875   */\n      iszero\n      tag_214\n      jumpi\n        /* \"#utility.yul\":6855:6873   */\n      tag_215\n      tag_212\n      jump\t// in\n    tag_215:\n        /* \"#utility.yul\":6819:6875   */\n    tag_214:\n        /* \"#utility.yul\":6893:6922   */\n      tag_216\n        /* \"#utility.yul\":6915:6921   */\n      dup3\n        /* \"#utility.yul\":6893:6922   */\n      tag_189\n      jump\t// in\n    tag_216:\n        /* \"#utility.yul\":6885:6922   */\n      swap1\n      pop\n        /* \"#utility.yul\":6977:6981   */\n      0x20\n        /* \"#utility.yul\":6971:6975   */\n      dup2\n        /* \"#utility.yul\":6967:6982   */\n      add\n        /* \"#utility.yul\":6959:6982   */\n      swap1\n      pop\n        /* \"#utility.yul\":6681:6989   */\n      swap2\n      swap1\n      pop\n      jump\t// out\n        /* \"#utility.yul\":6995:7094   */\n    tag_183:\n        /* \"#utility.yul\":7047:7053   */\n      0x00\n        /* \"#utility.yul\":7081:7086   */\n      dup2\n        /* \"#utility.yul\":7075:7087   */\n      mload\n        /* \"#utility.yul\":7065:7087   */\n      swap1\n      pop\n        /* \"#utility.yul\":6995:7094   */\n      swap2\n      swap1\n      pop\n      jump\t// out\n        /* \"#utility.yul\":7100:7269   */\n    tag_185:\n        /* \"#utility.yul\":7184:7195   */\n      0x00\n        /* \"#utility.yul\":7218:7224   */\n      dup3\n        /* \"#utility.yul\":7213:7216   */\n      dup3\n        /* \"#utility.yul\":7206:7225   */\n      mstore\n        /* \"#utility.yul\":7258:7262   */\n      0x20\n        /* \"#utility.yul\":7253:7256   */\n      dup3\n        /* \"#utility.yul\":7249:7263   */\n      add\n        /* \"#utility.yul\":7234:7263   */\n      swap1\n      pop\n        /* \"#utility.yul\":7100:7269   */\n      swap3\n      swap2\n      pop\n      pop\n      jump\t// out\n        /* \"#utility.yul\":7275:7371   */\n    tag_179:\n        /* \"#utility.yul\":7312:7319   */\n      0x00\n        /* \"#utility.yul\":7341:7365   */\n      tag_220\n        /* \"#utility.yul\":7359:7364   */\n      dup3\n        /* \"#utility.yul\":7341:7365   */\n      tag_221\n      jump\t// in\n    tag_220:\n        /* \"#utility.yul\":7330:7365   */\n      swap1\n      pop\n        /* \"#utility.yul\":7275:7371   */\n      swap2\n      swap1\n      pop\n      jump\t// out\n        /* \"#utility.yul\":7377:7503   */\n    tag_221:\n        /* \"#utility.yul\":7414:7421   */\n      0x00\n        /* \"#utility.yul\":7454:7496   */\n      0xffffffffffffffffffffffffffffffffffffffff\n        /* \"#utility.yul\":7447:7452   */\n      dup3\n        /* \"#utility.yul\":7443:7497   */\n      and\n        /* \"#utility.yul\":7432:7497   */\n      swap1\n      pop\n        /* \"#utility.yul\":7377:7503   */\n      swap2\n      swap1\n      pop\n      jump\t// out\n        /* \"#utility.yul\":7509:7586   */\n    tag_193:\n        /* \"#utility.yul\":7546:7553   */\n      0x00\n        /* \"#utility.yul\":7575:7580   */\n      dup2\n        /* \"#utility.yul\":7564:7580   */\n      swap1\n      pop\n        /* \"#utility.yul\":7509:7586   */\n      swap2\n      swap1\n      pop\n      jump\t// out\n        /* \"#utility.yul\":7592:7678   */\n    tag_224:\n        /* \"#utility.yul\":7627:7634   */\n      0x00\n        /* \"#utility.yul\":7667:7671   */\n      0xff\n        /* \"#utility.yul\":7660:7665   */\n      dup3\n        /* \"#utility.yul\":7656:7672   */\n      and\n        /* \"#utility.yul\":7645:7672   */\n      swap1\n      pop\n        /* \"#utility.yul\":7592:7678   */\n      swap2\n      swap1\n      pop\n      jump\t// out\n        /* \"#utility.yul\":7684:7838   */\n    tag_144:\n        /* \"#utility.yul\":7768:7774   */\n      dup3\n        /* \"#utility.yul\":7763:7766   */\n      dup2\n        /* \"#utility.yul\":7758:7761   */\n      dup4\n        /* \"#utility.yul\":7745:7775   */\n      calldatacopy\n        /* \"#utility.yul\":7830:7831   */\n      0x00\n        /* \"#utility.yul\":7821:7827   */\n      dup4\n        /* \"#utility.yul\":7816:7819   */\n      dup4\n        /* \"#utility.yul\":7812:7828   */\n      add\n        /* \"#utility.yul\":7805:7832   */\n      mstore\n        /* \"#utility.yul\":7684:7838   */\n      pop\n      pop\n      pop\n      jump\t// out\n        /* \"#utility.yul\":7844:8151   */\n    tag_187:\n        /* \"#utility.yul\":7912:7913   */\n      0x00\n        /* \"#utility.yul\":7922:8035   */\n    tag_228:\n        /* \"#utility.yul\":7936:7942   */\n      dup4\n        /* \"#utility.yul\":7933:7934   */\n      dup2\n        /* \"#utility.yul\":7930:7943   */\n      lt\n        /* \"#utility.yul\":7922:8035   */\n      iszero\n      tag_230\n      jumpi\n        /* \"#utility.yul\":8021:8022   */\n      dup1\n        /* \"#utility.yul\":8016:8019   */\n      dup3\n        /* \"#utility.yul\":8012:8023   */\n      add\n        /* \"#utility.yul\":8006:8024   */\n      mload\n        /* \"#utility.yul\":8002:8003   */\n      dup2\n        /* \"#utility.yul\":7997:8000   */\n      dup5\n        /* \"#utility.yul\":7993:8004   */\n      add\n        /* \"#utility.yul\":7986:8025   */\n      mstore\n        /* \"#utility.yul\":7958:7960   */\n      0x20\n        /* \"#utility.yul\":7955:7956   */\n      dup2\n        /* \"#utility.yul\":7951:7961   */\n      add\n        /* \"#utility.yul\":7946:7961   */\n      swap1\n      pop\n        /* \"#utility.yul\":7922:8035   */\n      jump(tag_228)\n    tag_230:\n        /* \"#utility.yul\":8053:8059   */\n      dup4\n        /* \"#utility.yul\":8050:8051   */\n      dup2\n        /* \"#utility.yul\":8047:8060   */\n      gt\n        /* \"#utility.yul\":8044:8145   */\n      iszero\n      tag_231\n      jumpi\n        /* \"#utility.yul\":8133:8134   */\n      0x00\n        /* \"#utility.yul\":8124:8130   */\n      dup5\n        /* \"#utility.yul\":8119:8122   */\n      dup5\n        /* \"#utility.yul\":8115:8131   */\n      add\n        /* \"#utility.yul\":8108:8135   */\n      mstore\n        /* \"#utility.yul\":8044:8145   */\n    tag_231:\n        /* \"#utility.yul\":7893:8151   */\n      pop\n        /* \"#utility.yul\":7844:8151   */\n      pop\n      pop\n      pop\n      jump\t// out\n        /* \"#utility.yul\":8157:8477   */\n    tag_24:\n        /* \"#utility.yul\":8201:8207   */\n      0x00\n        /* \"#utility.yul\":8238:8239   */\n      0x02\n        /* \"#utility.yul\":8232:8236   */\n      dup3\n        /* \"#utility.yul\":8228:8240   */\n      div\n        /* \"#utility.yul\":8218:8240   */\n      swap1\n      pop\n        /* \"#utility.yul\":8285:8286   */\n      0x01\n        /* \"#utility.yul\":8279:8283   */\n      dup3\n        /* \"#utility.yul\":8275:8287   */\n      and\n        /* \"#utility.yul\":8306:8324   */\n      dup1\n        /* \"#utility.yul\":8296:8377   */\n      tag_233\n      jumpi\n        /* \"#utility.yul\":8362:8366   */\n      0x7f\n        /* \"#utility.yul\":8354:8360   */\n      dup3\n        /* \"#utility.yul\":8350:8367   */\n      and\n        /* \"#utility.yul\":8340:8367   */\n      swap2\n      pop\n        /* \"#utility.yul\":8296:8377   */\n    tag_233:\n        /* \"#utility.yul\":8424:8426   */\n      0x20\n        /* \"#utility.yul\":8416:8422   */\n      dup3\n        /* \"#utility.yul\":8413:8427   */\n      lt\n        /* \"#utility.yul\":8393:8411   */\n      dup2\n        /* \"#utility.yul\":8390:8428   */\n      eq\n        /* \"#utility.yul\":8387:8471   */\n      iszero\n      tag_234\n      jumpi\n        /* \"#utility.yul\":8443:8461   */\n      tag_235\n      tag_236\n      jump\t// in\n    tag_235:\n        /* \"#utility.yul\":8387:8471   */\n    tag_234:\n        /* \"#utility.yul\":8208:8477   */\n      pop\n        /* \"#utility.yul\":8157:8477   */\n      swap2\n      swap1\n      pop\n      jump\t// out\n        /* \"#utility.yul\":8483:8764   */\n    tag_207:\n        /* \"#utility.yul\":8566:8593   */\n      tag_238\n        /* \"#utility.yul\":8588:8592   */\n      dup3\n        /* \"#utility.yul\":8566:8593   */\n      tag_189\n      jump\t// in\n    tag_238:\n        /* \"#utility.yul\":8558:8564   */\n      dup2\n        /* \"#utility.yul\":8554:8594   */\n      add\n        /* \"#utility.yul\":8696:8702   */\n      dup2\n        /* \"#utility.yul\":8684:8694   */\n      dup2\n        /* \"#utility.yul\":8681:8703   */\n      lt\n        /* \"#utility.yul\":8660:8678   */\n      0xffffffffffffffff\n        /* \"#utility.yul\":8648:8658   */\n      dup3\n        /* \"#utility.yul\":8645:8679   */\n      gt\n        /* \"#utility.yul\":8642:8704   */\n      or\n        /* \"#utility.yul\":8639:8727   */\n      iszero\n      tag_239\n      jumpi\n        /* \"#utility.yul\":8707:8725   */\n      tag_240\n      tag_212\n      jump\t// in\n    tag_240:\n        /* \"#utility.yul\":8639:8727   */\n    tag_239:\n        /* \"#utility.yul\":8747:8757   */\n      dup1\n        /* \"#utility.yul\":8743:8745   */\n      0x40\n        /* \"#utility.yul\":8736:8758   */\n      mstore\n        /* \"#utility.yul\":8526:8764   */\n      pop\n        /* \"#utility.yul\":8483:8764   */\n      pop\n      pop\n      jump\t// out\n        /* \"#utility.yul\":8770:8937   */\n    tag_78:\n        /* \"#utility.yul\":8807:8810   */\n      0x00\n        /* \"#utility.yul\":8830:8852   */\n      tag_242\n        /* \"#utility.yul\":8846:8851   */\n      dup3\n        /* \"#utility.yul\":8830:8852   */\n      tag_224\n      jump\t// in\n    tag_242:\n        /* \"#utility.yul\":8821:8852   */\n      swap2\n      pop\n        /* \"#utility.yul\":8874:8878   */\n      0xff\n        /* \"#utility.yul\":8867:8872   */\n      dup3\n        /* \"#utility.yul\":8864:8879   */\n      eq\n        /* \"#utility.yul\":8861:8902   */\n      iszero\n      tag_243\n      jumpi\n        /* \"#utility.yul\":8882:8900   */\n      tag_244\n      tag_245\n      jump\t// in\n    tag_244:\n        /* \"#utility.yul\":8861:8902   */\n    tag_243:\n        /* \"#utility.yul\":8929:8930   */\n      0x01\n        /* \"#utility.yul\":8922:8927   */\n      dup3\n        /* \"#utility.yul\":8918:8931   */\n      add\n        /* \"#utility.yul\":8911:8931   */\n      swap1\n      pop\n        /* \"#utility.yul\":8770:8937   */\n      swap2\n      swap1\n      pop\n      jump\t// out\n        /* \"#utility.yul\":8943:9123   */\n    tag_245:\n        /* \"#utility.yul\":8991:9068   */\n      0x4e487b7100000000000000000000000000000000000000000000000000000000\n        /* \"#utility.yul\":8988:8989   */\n      0x00\n        /* \"#utility.yul\":8981:9069   */\n      mstore\n        /* \"#utility.yul\":9088:9092   */\n      0x11\n        /* \"#utility.yul\":9085:9086   */\n      0x04\n        /* \"#utility.yul\":9078:9093   */\n      mstore\n        /* \"#utility.yul\":9112:9116   */\n      0x24\n        /* \"#utility.yul\":9109:9110   */\n      0x00\n        /* \"#utility.yul\":9102:9117   */\n      revert\n        /* \"#utility.yul\":9129:9309   */\n    tag_236:\n        /* \"#utility.yul\":9177:9254   */\n      0x4e487b7100000000000000000000000000000000000000000000000000000000\n        /* \"#utility.yul\":9174:9175   */\n      0x00\n        /* \"#utility.yul\":9167:9255   */\n      mstore\n        /* \"#utility.yul\":9274:9278   */\n      0x22\n        /* \"#utility.yul\":9271:9272   */\n      0x04\n        /* \"#utility.yul\":9264:9279   */\n      mstore\n        /* \"#utility.yul\":9298:9302   */\n      0x24\n        /* \"#utility.yul\":9295:9296   */\n      0x00\n        /* \"#utility.yul\":9288:9303   */\n      revert\n        /* \"#utility.yul\":9315:9495   */\n    tag_73:\n        /* \"#utility.yul\":9363:9440   */\n      0x4e487b7100000000000000000000000000000000000000000000000000000000\n        /* \"#utility.yul\":9360:9361   */\n      0x00\n        /* \"#utility.yul\":9353:9441   */\n      mstore\n        /* \"#utility.yul\":9460:9464   */\n      0x32\n        /* \"#utility.yul\":9457:9458   */\n      0x04\n        /* \"#utility.yul\":9450:9465   */\n      mstore\n        /* \"#utility.yul\":9484:9488   */\n      0x24\n        /* \"#utility.yul\":9481:9482   */\n      0x00\n        /* \"#utility.yul\":9474:9489   */\n      revert\n        /* \"#utility.yul\":9501:9681   */\n    tag_212:\n        /* \"#utility.yul\":9549:9626   */\n      0x4e487b7100000000000000000000000000000000000000000000000000000000\n        /* \"#utility.yul\":9546:9547   */\n      0x00\n        /* \"#utility.yul\":9539:9627   */\n      mstore\n        /* \"#utility.yul\":9646:9650   */\n      0x41\n        /* \"#utility.yul\":9643:9644   */\n      0x04\n        /* \"#utility.yul\":9636:9651   */\n      mstore\n        /* \"#utility.yul\":9670:9674   */\n      0x24\n        /* \"#utility.yul\":9667:9668   */\n      0x00\n        /* \"#utility.yul\":9660:9675   */\n      revert\n        /* \"#utility.yul\":9687:9804   */\n    tag_132:\n        /* \"#utility.yul\":9796:9797   */\n      0x00\n        /* \"#utility.yul\":9793:9794   */\n      dup1\n        /* \"#utility.yul\":9786:9798   */\n      revert\n        /* \"#utility.yul\":9810:9927   */\n    tag_126:\n        /* \"#utility.yul\":9919:9920   */\n      0x00\n        /* \"#utility.yul\":9916:9917   */\n      dup1\n        /* \"#utility.yul\":9909:9921   */\n      revert\n        /* \"#utility.yul\":9933:10050   */\n    tag_142:\n        /* \"#utility.yul\":10042:10043   */\n      0x00\n        /* \"#utility.yul\":10039:10040   */\n      dup1\n        /* \"#utility.yul\":10032:10044   */\n      revert\n        /* \"#utility.yul\":10056:10173   */\n    tag_168:\n        /* \"#utility.yul\":10165:10166   */\n      0x00\n        /* \"#utility.yul\":10162:10163   */\n      dup1\n        /* \"#utility.yul\":10155:10167   */\n      revert\n        /* \"#utility.yul\":10179:10296   */\n    tag_161:\n        /* \"#utility.yul\":10288:10289   */\n      0x00\n        /* \"#utility.yul\":10285:10286   */\n      dup1\n        /* \"#utility.yul\":10278:10290   */\n      revert\n        /* \"#utility.yul\":10302:10404   */\n    tag_189:\n        /* \"#utility.yul\":10343:10349   */\n      0x00\n        /* \"#utility.yul\":10394:10396   */\n      0x1f\n        /* \"#utility.yul\":10390:10397   */\n      not\n        /* \"#utility.yul\":10385:10387   */\n      0x1f\n        /* \"#utility.yul\":10378:10383   */\n      dup4\n        /* \"#utility.yul\":10374:10388   */\n      add\n        /* \"#utility.yul\":10370:10398   */\n      and\n        /* \"#utility.yul\":10360:10398   */\n      swap1\n      pop\n        /* \"#utility.yul\":10302:10404   */\n      swap2\n      swap1\n      pop\n      jump\t// out\n        /* \"#utility.yul\":10410:10532   */\n    tag_148:\n        /* \"#utility.yul\":10483:10507   */\n      tag_257\n        /* \"#utility.yul\":10501:10506   */\n      dup2\n        /* \"#utility.yul\":10483:10507   */\n      tag_179\n      jump\t// in\n    tag_257:\n        /* \"#utility.yul\":10476:10481   */\n      dup2\n        /* \"#utility.yul\":10473:10508   */\n      eq\n        /* \"#utility.yul\":10463:10526   */\n      tag_258\n      jumpi\n        /* \"#utility.yul\":10522:10523   */\n      0x00\n        /* \"#utility.yul\":10519:10520   */\n      dup1\n        /* \"#utility.yul\":10512:10524   */\n      revert\n        /* \"#utility.yul\":10463:10526   */\n    tag_258:\n        /* \"#utility.yul\":10410:10532   */\n      pop\n      jump\t// out\n\n    auxdata: 0xa2646970667358221220d87bbe9abd846872bc3d53204101b601af70ebc0514b87dac1ef61757e50cfbc64736f6c63430008070033\n}\n",
				"bytecode": {
					"linkReferences": {},
					"object": "608060405234801561001057600080fd5b50610ee4806100206000396000f3fe608060405234801561001057600080fd5b50600436106100415760003560e01c80630c8c0186146100465780639dd9d0fd14610062578063fabce08f14610099575b600080fd5b610060600480360381019061005b9190610a55565b6100a3565b005b61007c60048036038101906100779190610a28565b6100c9565b604051610090989796959493929190610b53565b60405180910390f35b6100a1610461565b005b6100ae836000610563565b6100b9826001610563565b6100c4816002610563565b505050565b60006020528060005260406000206000915090508060000160009054906101000a900473ffffffffffffffffffffffffffffffffffffffff169080600101805461011290610d24565b80601f016020809104026020016040519081016040528092919081815260200182805461013e90610d24565b801561018b5780601f106101605761010080835404028352916020019161018b565b820191906000526020600020905b81548152906001019060200180831161016e57829003601f168201915b5050505050908060020180546101a090610d24565b80601f01602080910402602001604051908101604052809291908181526020018280546101cc90610d24565b80156102195780601f106101ee57610100808354040283529160200191610219565b820191906000526020600020905b8154815290600101906020018083116101fc57829003601f168201915b50505050509080600301805461022e90610d24565b80601f016020809104026020016040519081016040528092919081815260200182805461025a90610d24565b80156102a75780601f1061027c576101008083540402835291602001916102a7565b820191906000526020600020905b81548152906001019060200180831161028a57829003601f168201915b5050505050908060040180546102bc90610d24565b80601f01602080910402602001604051908101604052809291908181526020018280546102e890610d24565b80156103355780601f1061030a57610100808354040283529160200191610335565b820191906000526020600020905b81548152906001019060200180831161031857829003601f168201915b50505050509080600501805461034a90610d24565b80601f016020809104026020016040519081016040528092919081815260200182805461037690610d24565b80156103c35780601f10610398576101008083540402835291602001916103c3565b820191906000526020600020905b8154815290600101906020018083116103a657829003601f168201915b5050505050908060060180546103d890610d24565b80601f016020809104026020016040519081016040528092919081815260200182805461040490610d24565b80156104515780601f1061042657610100808354040283529160200191610451565b820191906000526020600020905b81548152906001019060200180831161043457829003601f168201915b5050505050908060070154905088565b6000803373ffffffffffffffffffffffffffffffffffffffff1673ffffffffffffffffffffffffffffffffffffffff168152602001908152602001600020600080820160006101000a81549073ffffffffffffffffffffffffffffffffffffffff02191690556001820160006104d791906107bf565b6002820160006104e791906107bf565b6003820160006104f791906107bf565b60048201600061050791906107bf565b60058201600061051791906107bf565b60068201600061052791906107bf565b600782016000905560088201600061053f91906107ff565b60098201600061054f91906107ff565b600a8201600061055f91906107ff565b5050565b60008160ff16141561062b5760005b82518160ff161015610629576000803373ffffffffffffffffffffffffffffffffffffffff1673ffffffffffffffffffffffffffffffffffffffff168152602001908152602001600020600801838260ff16815181106105d5576105d4610e0f565b5b6020026020010151908060018154018082558091505060019003906000526020600020016000909190919091509080519060200190610615929190610820565b50808061062190610d87565b915050610572565b505b60018160ff1614156106f35760005b82518160ff1610156106f1576000803373ffffffffffffffffffffffffffffffffffffffff1673ffffffffffffffffffffffffffffffffffffffff168152602001908152602001600020600901838260ff168151811061069d5761069c610e0f565b5b60200260200101519080600181540180825580915050600190039060005260206000200160009091909190915090805190602001906106dd929190610820565b5080806106e990610d87565b91505061063a565b505b60028160ff1614156107bb5760005b82518160ff1610156107b9576000803373ffffffffffffffffffffffffffffffffffffffff1673ffffffffffffffffffffffffffffffffffffffff168152602001908152602001600020600a01838260ff168151811061076557610764610e0f565b5b60200260200101519080600181540180825580915050600190039060005260206000200160009091909190915090805190602001906107a5929190610820565b5080806107b190610d87565b915050610702565b505b5050565b5080546107cb90610d24565b6000825580601f106107dd57506107fc565b601f0160209004906000526020600020908101906107fb91906108a6565b5b50565b508054600082559060005260206000209081019061081d91906108c3565b50565b82805461082c90610d24565b90600052602060002090601f01602090048101928261084e5760008555610895565b82601f1061086757805160ff1916838001178555610895565b82800160010185558215610895579182015b82811115610894578251825591602001919060010190610879565b5b5090506108a291906108a6565b5090565b5b808211156108bf5760008160009055506001016108a7565b5090565b5b808211156108e357600081816108da91906107bf565b506001016108c4565b5090565b60006108fa6108f584610c20565b610bfb565b9050808382526020820190508285602086028201111561091d5761091c610e72565b5b60005b8581101561096b57813567ffffffffffffffff81111561094357610942610e6d565b5b80860161095089826109fa565b85526020850194506020840193505050600181019050610920565b5050509392505050565b600061098861098384610c4c565b610bfb565b9050828152602081018484840111156109a4576109a3610e77565b5b6109af848285610ce2565b509392505050565b6000813590506109c681610e97565b92915050565b600082601f8301126109e1576109e0610e6d565b5b81356109f18482602086016108e7565b91505092915050565b600082601f830112610a0f57610a0e610e6d565b5b8135610a1f848260208601610975565b91505092915050565b600060208284031215610a3e57610a3d610e81565b5b6000610a4c848285016109b7565b91505092915050565b600080600060608486031215610a6e57610a6d610e81565b5b600084013567ffffffffffffffff811115610a8c57610a8b610e7c565b5b610a98868287016109cc565b935050602084013567ffffffffffffffff811115610ab957610ab8610e7c565b5b610ac5868287016109cc565b925050604084013567ffffffffffffffff811115610ae657610ae5610e7c565b5b610af2868287016109cc565b9150509250925092565b610b0581610c99565b82525050565b6000610b1682610c7d565b610b208185610c88565b9350610b30818560208601610cf1565b610b3981610e86565b840191505092915050565b610b4d81610ccb565b82525050565b600061010082019050610b69600083018b610afc565b8181036020830152610b7b818a610b0b565b90508181036040830152610b8f8189610b0b565b90508181036060830152610ba38188610b0b565b90508181036080830152610bb78187610b0b565b905081810360a0830152610bcb8186610b0b565b905081810360c0830152610bdf8185610b0b565b9050610bee60e0830184610b44565b9998505050505050505050565b6000610c05610c16565b9050610c118282610d56565b919050565b6000604051905090565b600067ffffffffffffffff821115610c3b57610c3a610e3e565b5b602082029050602081019050919050565b600067ffffffffffffffff821115610c6757610c66610e3e565b5b610c7082610e86565b9050602081019050919050565b600081519050919050565b600082825260208201905092915050565b6000610ca482610cab565b9050919050565b600073ffffffffffffffffffffffffffffffffffffffff82169050919050565b6000819050919050565b600060ff82169050919050565b82818337600083830152505050565b60005b83811015610d0f578082015181840152602081019050610cf4565b83811115610d1e576000848401525b50505050565b60006002820490506001821680610d3c57607f821691505b60208210811415610d5057610d4f610de0565b5b50919050565b610d5f82610e86565b810181811067ffffffffffffffff82111715610d7e57610d7d610e3e565b5b80604052505050565b6000610d9282610cd5565b915060ff821415610da657610da5610db1565b5b600182019050919050565b7f4e487b7100000000000000000000000000000000000000000000000000000000600052601160045260246000fd5b7f4e487b7100000000000000000000000000000000000000000000000000000000600052602260045260246000fd5b7f4e487b7100000000000000000000000000000000000000000000000000000000600052603260045260246000fd5b7f4e487b7100000000000000000000000000000000000000000000000000000000600052604160045260246000fd5b600080fd5b600080fd5b600080fd5b600080fd5b600080fd5b6000601f19601f8301169050919050565b610ea081610c99565b8114610eab57600080fd5b5056fea2646970667358221220d87bbe9abd846872bc3d53204101b601af70ebc0514b87dac1ef61757e50cfbc64736f6c63430008070033",
					"opcodes": "PUSH1 0x80 PUSH1 0x40 MSTORE CALLVALUE DUP1 ISZERO PUSH2 0x10 JUMPI PUSH1 0x0 DUP1 REVERT JUMPDEST POP PUSH2 0xEE4 DUP1 PUSH2 0x20 PUSH1 0x0 CODECOPY PUSH1 0x0 RETURN INVALID PUSH1 0x80 PUSH1 0x40 MSTORE CALLVALUE DUP1 ISZERO PUSH2 0x10 JUMPI PUSH1 0x0 DUP1 REVERT JUMPDEST POP PUSH1 0x4 CALLDATASIZE LT PUSH2 0x41 JUMPI PUSH1 0x0 CALLDATALOAD PUSH1 0xE0 SHR DUP1 PUSH4 0xC8C0186 EQ PUSH2 0x46 JUMPI DUP1 PUSH4 0x9DD9D0FD EQ PUSH2 0x62 JUMPI DUP1 PUSH4 0xFABCE08F EQ PUSH2 0x99 JUMPI JUMPDEST PUSH1 0x0 DUP1 REVERT JUMPDEST PUSH2 0x60 PUSH1 0x4 DUP1 CALLDATASIZE SUB DUP2 ADD SWAP1 PUSH2 0x5B SWAP2 SWAP1 PUSH2 0xA55 JUMP JUMPDEST PUSH2 0xA3 JUMP JUMPDEST STOP JUMPDEST PUSH2 0x7C PUSH1 0x4 DUP1 CALLDATASIZE SUB DUP2 ADD SWAP1 PUSH2 0x77 SWAP2 SWAP1 PUSH2 0xA28 JUMP JUMPDEST PUSH2 0xC9 JUMP JUMPDEST PUSH1 0x40 MLOAD PUSH2 0x90 SWAP9 SWAP8 SWAP7 SWAP6 SWAP5 SWAP4 SWAP3 SWAP2 SWAP1 PUSH2 0xB53 JUMP JUMPDEST PUSH1 0x40 MLOAD DUP1 SWAP2 SUB SWAP1 RETURN JUMPDEST PUSH2 0xA1 PUSH2 0x461 JUMP JUMPDEST STOP JUMPDEST PUSH2 0xAE DUP4 PUSH1 0x0 PUSH2 0x563 JUMP JUMPDEST PUSH2 0xB9 DUP3 PUSH1 0x1 PUSH2 0x563 JUMP JUMPDEST PUSH2 0xC4 DUP2 PUSH1 0x2 PUSH2 0x563 JUMP JUMPDEST POP POP POP JUMP JUMPDEST PUSH1 0x0 PUSH1 0x20 MSTORE DUP1 PUSH1 0x0 MSTORE PUSH1 0x40 PUSH1 0x0 KECCAK256 PUSH1 0x0 SWAP2 POP SWAP1 POP DUP1 PUSH1 0x0 ADD PUSH1 0x0 SWAP1 SLOAD SWAP1 PUSH2 0x100 EXP SWAP1 DIV PUSH20 0xFFFFFFFFFFFFFFFFFFFFFFFFFFFFFFFFFFFFFFFF AND SWAP1 DUP1 PUSH1 0x1 ADD DUP1 SLOAD PUSH2 0x112 SWAP1 PUSH2 0xD24 JUMP JUMPDEST DUP1 PUSH1 0x1F ADD PUSH1 0x20 DUP1 SWAP2 DIV MUL PUSH1 0x20 ADD PUSH1 0x40 MLOAD SWAP1 DUP2 ADD PUSH1 0x40 MSTORE DUP1 SWAP3 SWAP2 SWAP1 DUP2 DUP2 MSTORE PUSH1 0x20 ADD DUP3 DUP1 SLOAD PUSH2 0x13E SWAP1 PUSH2 0xD24 JUMP JUMPDEST DUP1 ISZERO PUSH2 0x18B JUMPI DUP1 PUSH1 0x1F LT PUSH2 0x160 JUMPI PUSH2 0x100 DUP1 DUP4 SLOAD DIV MUL DUP4 MSTORE SWAP2 PUSH1 0x20 ADD SWAP2 PUSH2 0x18B JUMP JUMPDEST DUP3 ADD SWAP2 SWAP1 PUSH1 0x0 MSTORE PUSH1 0x20 PUSH1 0x0 KECCAK256 SWAP1 JUMPDEST DUP2 SLOAD DUP2 MSTORE SWAP1 PUSH1 0x1 ADD SWAP1 PUSH1 0x20 ADD DUP1 DUP4 GT PUSH2 0x16E JUMPI DUP3 SWAP1 SUB PUSH1 0x1F AND DUP3 ADD SWAP2 JUMPDEST POP POP POP POP POP SWAP1 DUP1 PUSH1 0x2 ADD DUP1 SLOAD PUSH2 0x1A0 SWAP1 PUSH2 0xD24 JUMP JUMPDEST DUP1 PUSH1 0x1F ADD PUSH1 0x20 DUP1 SWAP2 DIV MUL PUSH1 0x20 ADD PUSH1 0x40 MLOAD SWAP1 DUP2 ADD PUSH1 0x40 MSTORE DUP1 SWAP3 SWAP2 SWAP1 DUP2 DUP2 MSTORE PUSH1 0x20 ADD DUP3 DUP1 SLOAD PUSH2 0x1CC SWAP1 PUSH2 0xD24 JUMP JUMPDEST DUP1 ISZERO PUSH2 0x219 JUMPI DUP1 PUSH1 0x1F LT PUSH2 0x1EE JUMPI PUSH2 0x100 DUP1 DUP4 SLOAD DIV MUL DUP4 MSTORE SWAP2 PUSH1 0x20 ADD SWAP2 PUSH2 0x219 JUMP JUMPDEST DUP3 ADD SWAP2 SWAP1 PUSH1 0x0 MSTORE PUSH1 0x20 PUSH1 0x0 KECCAK256 SWAP1 JUMPDEST DUP2 SLOAD DUP2 MSTORE SWAP1 PUSH1 0x1 ADD SWAP1 PUSH1 0x20 ADD DUP1 DUP4 GT PUSH2 0x1FC JUMPI DUP3 SWAP1 SUB PUSH1 0x1F AND DUP3 ADD SWAP2 JUMPDEST POP POP POP POP POP SWAP1 DUP1 PUSH1 0x3 ADD DUP1 SLOAD PUSH2 0x22E SWAP1 PUSH2 0xD24 JUMP JUMPDEST DUP1 PUSH1 0x1F ADD PUSH1 0x20 DUP1 SWAP2 DIV MUL PUSH1 0x20 ADD PUSH1 0x40 MLOAD SWAP1 DUP2 ADD PUSH1 0x40 MSTORE DUP1 SWAP3 SWAP2 SWAP1 DUP2 DUP2 MSTORE PUSH1 0x20 ADD DUP3 DUP1 SLOAD PUSH2 0x25A SWAP1 PUSH2 0xD24 JUMP JUMPDEST DUP1 ISZERO PUSH2 0x2A7 JUMPI DUP1 PUSH1 0x1F LT PUSH2 0x27C JUMPI PUSH2 0x100 DUP1 DUP4 SLOAD DIV MUL DUP4 MSTORE SWAP2 PUSH1 0x20 ADD SWAP2 PUSH2 0x2A7 JUMP JUMPDEST DUP3 ADD SWAP2 SWAP1 PUSH1 0x0 MSTORE PUSH1 0x20 PUSH1 0x0 KECCAK256 SWAP1 JUMPDEST DUP2 SLOAD DUP2 MSTORE SWAP1 PUSH1 0x1 ADD SWAP1 PUSH1 0x20 ADD DUP1 DUP4 GT PUSH2 0x28A JUMPI DUP3 SWAP1 SUB PUSH1 0x1F AND DUP3 ADD SWAP2 JUMPDEST POP POP POP POP POP SWAP1 DUP1 PUSH1 0x4 ADD DUP1 SLOAD PUSH2 0x2BC SWAP1 PUSH2 0xD24 JUMP JUMPDEST DUP1 PUSH1 0x1F ADD PUSH1 0x20 DUP1 SWAP2 DIV MUL PUSH1 0x20 ADD PUSH1 0x40 MLOAD SWAP1 DUP2 ADD PUSH1 0x40 MSTORE DUP1 SWAP3 SWAP2 SWAP1 DUP2 DUP2 MSTORE PUSH1 0x20 ADD DUP3 DUP1 SLOAD PUSH2 0x2E8 SWAP1 PUSH2 0xD24 JUMP JUMPDEST DUP1 ISZERO PUSH2 0x335 JUMPI DUP1 PUSH1 0x1F LT PUSH2 0x30A JUMPI PUSH2 0x100 DUP1 DUP4 SLOAD DIV MUL DUP4 MSTORE SWAP2 PUSH1 0x20 ADD SWAP2 PUSH2 0x335 JUMP JUMPDEST DUP3 ADD SWAP2 SWAP1 PUSH1 0x0 MSTORE PUSH1 0x20 PUSH1 0x0 KECCAK256 SWAP1 JUMPDEST DUP2 SLOAD DUP2 MSTORE SWAP1 PUSH1 0x1 ADD SWAP1 PUSH1 0x20 ADD DUP1 DUP4 GT PUSH2 0x318 JUMPI DUP3 SWAP1 SUB PUSH1 0x1F AND DUP3 ADD SWAP2 JUMPDEST POP POP POP POP POP SWAP1 DUP1 PUSH1 0x5 ADD DUP1 SLOAD PUSH2 0x34A SWAP1 PUSH2 0xD24 JUMP JUMPDEST DUP1 PUSH1 0x1F ADD PUSH1 0x20 DUP1 SWAP2 DIV MUL PUSH1 0x20 ADD PUSH1 0x40 MLOAD SWAP1 DUP2 ADD PUSH1 0x40 MSTORE DUP1 SWAP3 SWAP2 SWAP1 DUP2 DUP2 MSTORE PUSH1 0x20 ADD DUP3 DUP1 SLOAD PUSH2 0x376 SWAP1 PUSH2 0xD24 JUMP JUMPDEST DUP1 ISZERO PUSH2 0x3C3 JUMPI DUP1 PUSH1 0x1F LT PUSH2 0x398 JUMPI PUSH2 0x100 DUP1 DUP4 SLOAD DIV MUL DUP4 MSTORE SWAP2 PUSH1 0x20 ADD SWAP2 PUSH2 0x3C3 JUMP JUMPDEST DUP3 ADD SWAP2 SWAP1 PUSH1 0x0 MSTORE PUSH1 0x20 PUSH1 0x0 KECCAK256 SWAP1 JUMPDEST DUP2 SLOAD DUP2 MSTORE SWAP1 PUSH1 0x1 ADD SWAP1 PUSH1 0x20 ADD DUP1 DUP4 GT PUSH2 0x3A6 JUMPI DUP3 SWAP1 SUB PUSH1 0x1F AND DUP3 ADD SWAP2 JUMPDEST POP POP POP POP POP SWAP1 DUP1 PUSH1 0x6 ADD DUP1 SLOAD PUSH2 0x3D8 SWAP1 PUSH2 0xD24 JUMP JUMPDEST DUP1 PUSH1 0x1F ADD PUSH1 0x20 DUP1 SWAP2 DIV MUL PUSH1 0x20 ADD PUSH1 0x40 MLOAD SWAP1 DUP2 ADD PUSH1 0x40 MSTORE DUP1 SWAP3 SWAP2 SWAP1 DUP2 DUP2 MSTORE PUSH1 0x20 ADD DUP3 DUP1 SLOAD PUSH2 0x404 SWAP1 PUSH2 0xD24 JUMP JUMPDEST DUP1 ISZERO PUSH2 0x451 JUMPI DUP1 PUSH1 0x1F LT PUSH2 0x426 JUMPI PUSH2 0x100 DUP1 DUP4 SLOAD DIV MUL DUP4 MSTORE SWAP2 PUSH1 0x20 ADD SWAP2 PUSH2 0x451 JUMP JUMPDEST DUP3 ADD SWAP2 SWAP1 PUSH1 0x0 MSTORE PUSH1 0x20 PUSH1 0x0 KECCAK256 SWAP1 JUMPDEST DUP2 SLOAD DUP2 MSTORE SWAP1 PUSH1 0x1 ADD SWAP1 PUSH1 0x20 ADD DUP1 DUP4 GT PUSH2 0x434 JUMPI DUP3 SWAP1 SUB PUSH1 0x1F AND DUP3 ADD SWAP2 JUMPDEST POP POP POP POP POP SWAP1 DUP1 PUSH1 0x7 ADD SLOAD SWAP1 POP DUP9 JUMP JUMPDEST PUSH1 0x0 DUP1 CALLER PUSH20 0xFFFFFFFFFFFFFFFFFFFFFFFFFFFFFFFFFFFFFFFF AND PUSH20 0xFFFFFFFFFFFFFFFFFFFFFFFFFFFFFFFFFFFFFFFF AND DUP2 MSTORE PUSH1 0x20 ADD SWAP1 DUP2 MSTORE PUSH1 0x20 ADD PUSH1 0x0 KECCAK256 PUSH1 0x0 DUP1 DUP3 ADD PUSH1 0x0 PUSH2 0x100 EXP DUP2 SLOAD SWAP1 PUSH20 0xFFFFFFFFFFFFFFFFFFFFFFFFFFFFFFFFFFFFFFFF MUL NOT AND SWAP1 SSTORE PUSH1 0x1 DUP3 ADD PUSH1 0x0 PUSH2 0x4D7 SWAP2 SWAP1 PUSH2 0x7BF JUMP JUMPDEST PUSH1 0x2 DUP3 ADD PUSH1 0x0 PUSH2 0x4E7 SWAP2 SWAP1 PUSH2 0x7BF JUMP JUMPDEST PUSH1 0x3 DUP3 ADD PUSH1 0x0 PUSH2 0x4F7 SWAP2 SWAP1 PUSH2 0x7BF JUMP JUMPDEST PUSH1 0x4 DUP3 ADD PUSH1 0x0 PUSH2 0x507 SWAP2 SWAP1 PUSH2 0x7BF JUMP JUMPDEST PUSH1 0x5 DUP3 ADD PUSH1 0x0 PUSH2 0x517 SWAP2 SWAP1 PUSH2 0x7BF JUMP JUMPDEST PUSH1 0x6 DUP3 ADD PUSH1 0x0 PUSH2 0x527 SWAP2 SWAP1 PUSH2 0x7BF JUMP JUMPDEST PUSH1 0x7 DUP3 ADD PUSH1 0x0 SWAP1 SSTORE PUSH1 0x8 DUP3 ADD PUSH1 0x0 PUSH2 0x53F SWAP2 SWAP1 PUSH2 0x7FF JUMP JUMPDEST PUSH1 0x9 DUP3 ADD PUSH1 0x0 PUSH2 0x54F SWAP2 SWAP1 PUSH2 0x7FF JUMP JUMPDEST PUSH1 0xA DUP3 ADD PUSH1 0x0 PUSH2 0x55F SWAP2 SWAP1 PUSH2 0x7FF JUMP JUMPDEST POP POP JUMP JUMPDEST PUSH1 0x0 DUP2 PUSH1 0xFF AND EQ ISZERO PUSH2 0x62B JUMPI PUSH1 0x0 JUMPDEST DUP3 MLOAD DUP2 PUSH1 0xFF AND LT ISZERO PUSH2 0x629 JUMPI PUSH1 0x0 DUP1 CALLER PUSH20 0xFFFFFFFFFFFFFFFFFFFFFFFFFFFFFFFFFFFFFFFF AND PUSH20 0xFFFFFFFFFFFFFFFFFFFFFFFFFFFFFFFFFFFFFFFF AND DUP2 MSTORE PUSH1 0x20 ADD SWAP1 DUP2 MSTORE PUSH1 0x20 ADD PUSH1 0x0 KECCAK256 PUSH1 0x8 ADD DUP4 DUP3 PUSH1 0xFF AND DUP2 MLOAD DUP2 LT PUSH2 0x5D5 JUMPI PUSH2 0x5D4 PUSH2 0xE0F JUMP JUMPDEST JUMPDEST PUSH1 0x20 MUL PUSH1 0x20 ADD ADD MLOAD SWAP1 DUP1 PUSH1 0x1 DUP2 SLOAD ADD DUP1 DUP3 SSTORE DUP1 SWAP2 POP POP PUSH1 0x1 SWAP1 SUB SWAP1 PUSH1 0x0 MSTORE PUSH1 0x20 PUSH1 0x0 KECCAK256 ADD PUSH1 0x0 SWAP1 SWAP2 SWAP1 SWAP2 SWAP1 SWAP2 POP SWAP1 DUP1 MLOAD SWAP1 PUSH1 0x20 ADD SWAP1 PUSH2 0x615 SWAP3 SWAP2 SWAP1 PUSH2 0x820 JUMP JUMPDEST POP DUP1 DUP1 PUSH2 0x621 SWAP1 PUSH2 0xD87 JUMP JUMPDEST SWAP2 POP POP PUSH2 0x572 JUMP JUMPDEST POP JUMPDEST PUSH1 0x1 DUP2 PUSH1 0xFF AND EQ ISZERO PUSH2 0x6F3 JUMPI PUSH1 0x0 JUMPDEST DUP3 MLOAD DUP2 PUSH1 0xFF AND LT ISZERO PUSH2 0x6F1 JUMPI PUSH1 0x0 DUP1 CALLER PUSH20 0xFFFFFFFFFFFFFFFFFFFFFFFFFFFFFFFFFFFFFFFF AND PUSH20 0xFFFFFFFFFFFFFFFFFFFFFFFFFFFFFFFFFFFFFFFF AND DUP2 MSTORE PUSH1 0x20 ADD SWAP1 DUP2 MSTORE PUSH1 0x20 ADD PUSH1 0x0 KECCAK256 PUSH1 0x9 ADD DUP4 DUP3 PUSH1 0xFF AND DUP2 MLOAD DUP2 LT PUSH2 0x69D JUMPI PUSH2 0x69C PUSH2 0xE0F JUMP JUMPDEST JUMPDEST PUSH1 0x20 MUL PUSH1 0x20 ADD ADD MLOAD SWAP1 DUP1 PUSH1 0x1 DUP2 SLOAD ADD DUP1 DUP3 SSTORE DUP1 SWAP2 POP POP PUSH1 0x1 SWAP1 SUB SWAP1 PUSH1 0x0 MSTORE PUSH1 0x20 PUSH1 0x0 KECCAK256 ADD PUSH1 0x0 SWAP1 SWAP2 SWAP1 SWAP2 SWAP1 SWAP2 POP SWAP1 DUP1 MLOAD SWAP1 PUSH1 0x20 ADD SWAP1 PUSH2 0x6DD SWAP3 SWAP2 SWAP1 PUSH2 0x820 JUMP JUMPDEST POP DUP1 DUP1 PUSH2 0x6E9 SWAP1 PUSH2 0xD87 JUMP JUMPDEST SWAP2 POP POP PUSH2 0x63A JUMP JUMPDEST POP JUMPDEST PUSH1 0x2 DUP2 PUSH1 0xFF AND EQ ISZERO PUSH2 0x7BB JUMPI PUSH1 0x0 JUMPDEST DUP3 MLOAD DUP2 PUSH1 0xFF AND LT ISZERO PUSH2 0x7B9 JUMPI PUSH1 0x0 DUP1 CALLER PUSH20 0xFFFFFFFFFFFFFFFFFFFFFFFFFFFFFFFFFFFFFFFF AND PUSH20 0xFFFFFFFFFFFFFFFFFFFFFFFFFFFFFFFFFFFFFFFF AND DUP2 MSTORE PUSH1 0x20 ADD SWAP1 DUP2 MSTORE PUSH1 0x20 ADD PUSH1 0x0 KECCAK256 PUSH1 0xA ADD DUP4 DUP3 PUSH1 0xFF AND DUP2 MLOAD DUP2 LT PUSH2 0x765 JUMPI PUSH2 0x764 PUSH2 0xE0F JUMP JUMPDEST JUMPDEST PUSH1 0x20 MUL PUSH1 0x20 ADD ADD MLOAD SWAP1 DUP1 PUSH1 0x1 DUP2 SLOAD ADD DUP1 DUP3 SSTORE DUP1 SWAP2 POP POP PUSH1 0x1 SWAP1 SUB SWAP1 PUSH1 0x0 MSTORE PUSH1 0x20 PUSH1 0x0 KECCAK256 ADD PUSH1 0x0 SWAP1 SWAP2 SWAP1 SWAP2 SWAP1 SWAP2 POP SWAP1 DUP1 MLOAD SWAP1 PUSH1 0x20 ADD SWAP1 PUSH2 0x7A5 SWAP3 SWAP2 SWAP1 PUSH2 0x820 JUMP JUMPDEST POP DUP1 DUP1 PUSH2 0x7B1 SWAP1 PUSH2 0xD87 JUMP JUMPDEST SWAP2 POP POP PUSH2 0x702 JUMP JUMPDEST POP JUMPDEST POP POP JUMP JUMPDEST POP DUP1 SLOAD PUSH2 0x7CB SWAP1 PUSH2 0xD24 JUMP JUMPDEST PUSH1 0x0 DUP3 SSTORE DUP1 PUSH1 0x1F LT PUSH2 0x7DD JUMPI POP PUSH2 0x7FC JUMP JUMPDEST PUSH1 0x1F ADD PUSH1 0x20 SWAP1 DIV SWAP1 PUSH1 0x0 MSTORE PUSH1 0x20 PUSH1 0x0 KECCAK256 SWAP1 DUP2 ADD SWAP1 PUSH2 0x7FB SWAP2 SWAP1 PUSH2 0x8A6 JUMP JUMPDEST JUMPDEST POP JUMP JUMPDEST POP DUP1 SLOAD PUSH1 0x0 DUP3 SSTORE SWAP1 PUSH1 0x0 MSTORE PUSH1 0x20 PUSH1 0x0 KECCAK256 SWAP1 DUP2 ADD SWAP1 PUSH2 0x81D SWAP2 SWAP1 PUSH2 0x8C3 JUMP JUMPDEST POP JUMP JUMPDEST DUP3 DUP1 SLOAD PUSH2 0x82C SWAP1 PUSH2 0xD24 JUMP JUMPDEST SWAP1 PUSH1 0x0 MSTORE PUSH1 0x20 PUSH1 0x0 KECCAK256 SWAP1 PUSH1 0x1F ADD PUSH1 0x20 SWAP1 DIV DUP2 ADD SWAP3 DUP3 PUSH2 0x84E JUMPI PUSH1 0x0 DUP6 SSTORE PUSH2 0x895 JUMP JUMPDEST DUP3 PUSH1 0x1F LT PUSH2 0x867 JUMPI DUP1 MLOAD PUSH1 0xFF NOT AND DUP4 DUP1 ADD OR DUP6 SSTORE PUSH2 0x895 JUMP JUMPDEST DUP3 DUP1 ADD PUSH1 0x1 ADD DUP6 SSTORE DUP3 ISZERO PUSH2 0x895 JUMPI SWAP2 DUP3 ADD JUMPDEST DUP3 DUP2 GT ISZERO PUSH2 0x894 JUMPI DUP3 MLOAD DUP3 SSTORE SWAP2 PUSH1 0x20 ADD SWAP2 SWAP1 PUSH1 0x1 ADD SWAP1 PUSH2 0x879 JUMP JUMPDEST JUMPDEST POP SWAP1 POP PUSH2 0x8A2 SWAP2 SWAP1 PUSH2 0x8A6 JUMP JUMPDEST POP SWAP1 JUMP JUMPDEST JUMPDEST DUP1 DUP3 GT ISZERO PUSH2 0x8BF JUMPI PUSH1 0x0 DUP2 PUSH1 0x0 SWAP1 SSTORE POP PUSH1 0x1 ADD PUSH2 0x8A7 JUMP JUMPDEST POP SWAP1 JUMP JUMPDEST JUMPDEST DUP1 DUP3 GT ISZERO PUSH2 0x8E3 JUMPI PUSH1 0x0 DUP2 DUP2 PUSH2 0x8DA SWAP2 SWAP1 PUSH2 0x7BF JUMP JUMPDEST POP PUSH1 0x1 ADD PUSH2 0x8C4 JUMP JUMPDEST POP SWAP1 JUMP JUMPDEST PUSH1 0x0 PUSH2 0x8FA PUSH2 0x8F5 DUP5 PUSH2 0xC20 JUMP JUMPDEST PUSH2 0xBFB JUMP JUMPDEST SWAP1 POP DUP1 DUP4 DUP3 MSTORE PUSH1 0x20 DUP3 ADD SWAP1 POP DUP3 DUP6 PUSH1 0x20 DUP7 MUL DUP3 ADD GT ISZERO PUSH2 0x91D JUMPI PUSH2 0x91C PUSH2 0xE72 JUMP JUMPDEST JUMPDEST PUSH1 0x0 JUMPDEST DUP6 DUP2 LT ISZERO PUSH2 0x96B JUMPI DUP2 CALLDATALOAD PUSH8 0xFFFFFFFFFFFFFFFF DUP2 GT ISZERO PUSH2 0x943 JUMPI PUSH2 0x942 PUSH2 0xE6D JUMP JUMPDEST JUMPDEST DUP1 DUP7 ADD PUSH2 0x950 DUP10 DUP3 PUSH2 0x9FA JUMP JUMPDEST DUP6 MSTORE PUSH1 0x20 DUP6 ADD SWAP5 POP PUSH1 0x20 DUP5 ADD SWAP4 POP POP POP PUSH1 0x1 DUP2 ADD SWAP1 POP PUSH2 0x920 JUMP JUMPDEST POP POP POP SWAP4 SWAP3 POP POP POP JUMP JUMPDEST PUSH1 0x0 PUSH2 0x988 PUSH2 0x983 DUP5 PUSH2 0xC4C JUMP JUMPDEST PUSH2 0xBFB JUMP JUMPDEST SWAP1 POP DUP3 DUP2 MSTORE PUSH1 0x20 DUP2 ADD DUP5 DUP5 DUP5 ADD GT ISZERO PUSH2 0x9A4 JUMPI PUSH2 0x9A3 PUSH2 0xE77 JUMP JUMPDEST JUMPDEST PUSH2 0x9AF DUP5 DUP3 DUP6 PUSH2 0xCE2 JUMP JUMPDEST POP SWAP4 SWAP3 POP POP POP JUMP JUMPDEST PUSH1 0x0 DUP2 CALLDATALOAD SWAP1 POP PUSH2 0x9C6 DUP2 PUSH2 0xE97 JUMP JUMPDEST SWAP3 SWAP2 POP POP JUMP JUMPDEST PUSH1 0x0 DUP3 PUSH1 0x1F DUP4 ADD SLT PUSH2 0x9E1 JUMPI PUSH2 0x9E0 PUSH2 0xE6D JUMP JUMPDEST JUMPDEST DUP2 CALLDATALOAD PUSH2 0x9F1 DUP5 DUP3 PUSH1 0x20 DUP7 ADD PUSH2 0x8E7 JUMP JUMPDEST SWAP2 POP POP SWAP3 SWAP2 POP POP JUMP JUMPDEST PUSH1 0x0 DUP3 PUSH1 0x1F DUP4 ADD SLT PUSH2 0xA0F JUMPI PUSH2 0xA0E PUSH2 0xE6D JUMP JUMPDEST JUMPDEST DUP2 CALLDATALOAD PUSH2 0xA1F DUP5 DUP3 PUSH1 0x20 DUP7 ADD PUSH2 0x975 JUMP JUMPDEST SWAP2 POP POP SWAP3 SWAP2 POP POP JUMP JUMPDEST PUSH1 0x0 PUSH1 0x20 DUP3 DUP5 SUB SLT ISZERO PUSH2 0xA3E JUMPI PUSH2 0xA3D PUSH2 0xE81 JUMP JUMPDEST JUMPDEST PUSH1 0x0 PUSH2 0xA4C DUP5 DUP3 DUP6 ADD PUSH2 0x9B7 JUMP JUMPDEST SWAP2 POP POP SWAP3 SWAP2 POP POP JUMP JUMPDEST PUSH1 0x0 DUP1 PUSH1 0x0 PUSH1 0x60 DUP5 DUP7 SUB SLT ISZERO PUSH2 0xA6E JUMPI PUSH2 0xA6D PUSH2 0xE81 JUMP JUMPDEST JUMPDEST PUSH1 0x0 DUP5 ADD CALLDATALOAD PUSH8 0xFFFFFFFFFFFFFFFF DUP2 GT ISZERO PUSH2 0xA8C JUMPI PUSH2 0xA8B PUSH2 0xE7C JUMP JUMPDEST JUMPDEST PUSH2 0xA98 DUP7 DUP3 DUP8 ADD PUSH2 0x9CC JUMP JUMPDEST SWAP4 POP POP PUSH1 0x20 DUP5 ADD CALLDATALOAD PUSH8 0xFFFFFFFFFFFFFFFF DUP2 GT ISZERO PUSH2 0xAB9 JUMPI PUSH2 0xAB8 PUSH2 0xE7C JUMP JUMPDEST JUMPDEST PUSH2 0xAC5 DUP7 DUP3 DUP8 ADD PUSH2 0x9CC JUMP JUMPDEST SWAP3 POP POP PUSH1 0x40 DUP5 ADD CALLDATALOAD PUSH8 0xFFFFFFFFFFFFFFFF DUP2 GT ISZERO PUSH2 0xAE6 JUMPI PUSH2 0xAE5 PUSH2 0xE7C JUMP JUMPDEST JUMPDEST PUSH2 0xAF2 DUP7 DUP3 DUP8 ADD PUSH2 0x9CC JUMP JUMPDEST SWAP2 POP POP SWAP3 POP SWAP3 POP SWAP3 JUMP JUMPDEST PUSH2 0xB05 DUP2 PUSH2 0xC99 JUMP JUMPDEST DUP3 MSTORE POP POP JUMP JUMPDEST PUSH1 0x0 PUSH2 0xB16 DUP3 PUSH2 0xC7D JUMP JUMPDEST PUSH2 0xB20 DUP2 DUP6 PUSH2 0xC88 JUMP JUMPDEST SWAP4 POP PUSH2 0xB30 DUP2 DUP6 PUSH1 0x20 DUP7 ADD PUSH2 0xCF1 JUMP JUMPDEST PUSH2 0xB39 DUP2 PUSH2 0xE86 JUMP JUMPDEST DUP5 ADD SWAP2 POP POP SWAP3 SWAP2 POP POP JUMP JUMPDEST PUSH2 0xB4D DUP2 PUSH2 0xCCB JUMP JUMPDEST DUP3 MSTORE POP POP JUMP JUMPDEST PUSH1 0x0 PUSH2 0x100 DUP3 ADD SWAP1 POP PUSH2 0xB69 PUSH1 0x0 DUP4 ADD DUP12 PUSH2 0xAFC JUMP JUMPDEST DUP2 DUP2 SUB PUSH1 0x20 DUP4 ADD MSTORE PUSH2 0xB7B DUP2 DUP11 PUSH2 0xB0B JUMP JUMPDEST SWAP1 POP DUP2 DUP2 SUB PUSH1 0x40 DUP4 ADD MSTORE PUSH2 0xB8F DUP2 DUP10 PUSH2 0xB0B JUMP JUMPDEST SWAP1 POP DUP2 DUP2 SUB PUSH1 0x60 DUP4 ADD MSTORE PUSH2 0xBA3 DUP2 DUP9 PUSH2 0xB0B JUMP JUMPDEST SWAP1 POP DUP2 DUP2 SUB PUSH1 0x80 DUP4 ADD MSTORE PUSH2 0xBB7 DUP2 DUP8 PUSH2 0xB0B JUMP JUMPDEST SWAP1 POP DUP2 DUP2 SUB PUSH1 0xA0 DUP4 ADD MSTORE PUSH2 0xBCB DUP2 DUP7 PUSH2 0xB0B JUMP JUMPDEST SWAP1 POP DUP2 DUP2 SUB PUSH1 0xC0 DUP4 ADD MSTORE PUSH2 0xBDF DUP2 DUP6 PUSH2 0xB0B JUMP JUMPDEST SWAP1 POP PUSH2 0xBEE PUSH1 0xE0 DUP4 ADD DUP5 PUSH2 0xB44 JUMP JUMPDEST SWAP10 SWAP9 POP POP POP POP POP POP POP POP POP JUMP JUMPDEST PUSH1 0x0 PUSH2 0xC05 PUSH2 0xC16 JUMP JUMPDEST SWAP1 POP PUSH2 0xC11 DUP3 DUP3 PUSH2 0xD56 JUMP JUMPDEST SWAP2 SWAP1 POP JUMP JUMPDEST PUSH1 0x0 PUSH1 0x40 MLOAD SWAP1 POP SWAP1 JUMP JUMPDEST PUSH1 0x0 PUSH8 0xFFFFFFFFFFFFFFFF DUP3 GT ISZERO PUSH2 0xC3B JUMPI PUSH2 0xC3A PUSH2 0xE3E JUMP JUMPDEST JUMPDEST PUSH1 0x20 DUP3 MUL SWAP1 POP PUSH1 0x20 DUP2 ADD SWAP1 POP SWAP2 SWAP1 POP JUMP JUMPDEST PUSH1 0x0 PUSH8 0xFFFFFFFFFFFFFFFF DUP3 GT ISZERO PUSH2 0xC67 JUMPI PUSH2 0xC66 PUSH2 0xE3E JUMP JUMPDEST JUMPDEST PUSH2 0xC70 DUP3 PUSH2 0xE86 JUMP JUMPDEST SWAP1 POP PUSH1 0x20 DUP2 ADD SWAP1 POP SWAP2 SWAP1 POP JUMP JUMPDEST PUSH1 0x0 DUP2 MLOAD SWAP1 POP SWAP2 SWAP1 POP JUMP JUMPDEST PUSH1 0x0 DUP3 DUP3 MSTORE PUSH1 0x20 DUP3 ADD SWAP1 POP SWAP3 SWAP2 POP POP JUMP JUMPDEST PUSH1 0x0 PUSH2 0xCA4 DUP3 PUSH2 0xCAB JUMP JUMPDEST SWAP1 POP SWAP2 SWAP1 POP JUMP JUMPDEST PUSH1 0x0 PUSH20 0xFFFFFFFFFFFFFFFFFFFFFFFFFFFFFFFFFFFFFFFF DUP3 AND SWAP1 POP SWAP2 SWAP1 POP JUMP JUMPDEST PUSH1 0x0 DUP2 SWAP1 POP SWAP2 SWAP1 POP JUMP JUMPDEST PUSH1 0x0 PUSH1 0xFF DUP3 AND SWAP1 POP SWAP2 SWAP1 POP JUMP JUMPDEST DUP3 DUP2 DUP4 CALLDATACOPY PUSH1 0x0 DUP4 DUP4 ADD MSTORE POP POP POP JUMP JUMPDEST PUSH1 0x0 JUMPDEST DUP4 DUP2 LT ISZERO PUSH2 0xD0F JUMPI DUP1 DUP3 ADD MLOAD DUP2 DUP5 ADD MSTORE PUSH1 0x20 DUP2 ADD SWAP1 POP PUSH2 0xCF4 JUMP JUMPDEST DUP4 DUP2 GT ISZERO PUSH2 0xD1E JUMPI PUSH1 0x0 DUP5 DUP5 ADD MSTORE JUMPDEST POP POP POP POP JUMP JUMPDEST PUSH1 0x0 PUSH1 0x2 DUP3 DIV SWAP1 POP PUSH1 0x1 DUP3 AND DUP1 PUSH2 0xD3C JUMPI PUSH1 0x7F DUP3 AND SWAP2 POP JUMPDEST PUSH1 0x20 DUP3 LT DUP2 EQ ISZERO PUSH2 0xD50 JUMPI PUSH2 0xD4F PUSH2 0xDE0 JUMP JUMPDEST JUMPDEST POP SWAP2 SWAP1 POP JUMP JUMPDEST PUSH2 0xD5F DUP3 PUSH2 0xE86 JUMP JUMPDEST DUP2 ADD DUP2 DUP2 LT PUSH8 0xFFFFFFFFFFFFFFFF DUP3 GT OR ISZERO PUSH2 0xD7E JUMPI PUSH2 0xD7D PUSH2 0xE3E JUMP JUMPDEST JUMPDEST DUP1 PUSH1 0x40 MSTORE POP POP POP JUMP JUMPDEST PUSH1 0x0 PUSH2 0xD92 DUP3 PUSH2 0xCD5 JUMP JUMPDEST SWAP2 POP PUSH1 0xFF DUP3 EQ ISZERO PUSH2 0xDA6 JUMPI PUSH2 0xDA5 PUSH2 0xDB1 JUMP JUMPDEST JUMPDEST PUSH1 0x1 DUP3 ADD SWAP1 POP SWAP2 SWAP1 POP JUMP JUMPDEST PUSH32 0x4E487B7100000000000000000000000000000000000000000000000000000000 PUSH1 0x0 MSTORE PUSH1 0x11 PUSH1 0x4 MSTORE PUSH1 0x24 PUSH1 0x0 REVERT JUMPDEST PUSH32 0x4E487B7100000000000000000000000000000000000000000000000000000000 PUSH1 0x0 MSTORE PUSH1 0x22 PUSH1 0x4 MSTORE PUSH1 0x24 PUSH1 0x0 REVERT JUMPDEST PUSH32 0x4E487B7100000000000000000000000000000000000000000000000000000000 PUSH1 0x0 MSTORE PUSH1 0x32 PUSH1 0x4 MSTORE PUSH1 0x24 PUSH1 0x0 REVERT JUMPDEST PUSH32 0x4E487B7100000000000000000000000000000000000000000000000000000000 PUSH1 0x0 MSTORE PUSH1 0x41 PUSH1 0x4 MSTORE PUSH1 0x24 PUSH1 0x0 REVERT JUMPDEST PUSH1 0x0 DUP1 REVERT JUMPDEST PUSH1 0x0 DUP1 REVERT JUMPDEST PUSH1 0x0 DUP1 REVERT JUMPDEST PUSH1 0x0 DUP1 REVERT JUMPDEST PUSH1 0x0 DUP1 REVERT JUMPDEST PUSH1 0x0 PUSH1 0x1F NOT PUSH1 0x1F DUP4 ADD AND SWAP1 POP SWAP2 SWAP1 POP JUMP JUMPDEST PUSH2 0xEA0 DUP2 PUSH2 0xC99 JUMP JUMPDEST DUP2 EQ PUSH2 0xEAB JUMPI PUSH1 0x0 DUP1 REVERT JUMPDEST POP JUMP INVALID LOG2 PUSH5 0x6970667358 0x22 SLT KECCAK256 0xD8 PUSH28 0xBE9ABD846872BC3D53204101B601AF70EBC0514B87DAC1EF61757E50 0xCF 0xBC PUSH5 0x736F6C6343 STOP ADDMOD SMOD STOP CALLER "
				},
				"gasEstimates": {
					"creation": {
						"codeDepositCost": "762400",
						"executionCost": "799",
						"totalCost": "763199"
					},
					"external": {
						"addBio(string[],string[],string[])": "infinite",
						"delProfile()": "infinite",
						"profile(address)": "infinite"
					},
					"internal": {
						"addSkill(string memory[] memory,uint8)": "infinite"
					}
				},
				"methodIdentifiers": {
					"addBio(string[],string[],string[])": "0c8c0186",
					"delProfile()": "fabce08f",
					"profile(address)": "9dd9d0fd"
				}
			},
			"storageLayout": {
				"storage": [
					{
						"astId": 32,
						"contract": "contracts/Profile.sol:Profile",
						"label": "profile",
						"offset": 0,
						"slot": "0",
						"type": "t_mapping(t_address,t_struct(Bio)27_storage)"
					}
				],
				"types": {
					"t_address": {
						"encoding": "inplace",
						"label": "address",
						"numberOfBytes": "20"
					},
					"t_array(t_string_storage)dyn_storage": {
						"base": "t_string_storage",
						"encoding": "dynamic_array",
						"label": "string[]",
						"numberOfBytes": "32"
					},
					"t_mapping(t_address,t_struct(Bio)27_storage)": {
						"encoding": "mapping",
						"key": "t_address",
						"label": "mapping(address => struct Profile.Bio)",
						"numberOfBytes": "32",
						"value": "t_struct(Bio)27_storage"
					},
					"t_string_storage": {
						"encoding": "bytes",
						"label": "string",
						"numberOfBytes": "32"
					},
					"t_struct(Bio)27_storage": {
						"encoding": "inplace",
						"label": "struct Profile.Bio",
						"members": [
							{
								"astId": 3,
								"contract": "contracts/Profile.sol:Profile",
								"label": "userAddress",
								"offset": 0,
								"slot": "0",
								"type": "t_address"
							},
							{
								"astId": 5,
								"contract": "contracts/Profile.sol:Profile",
								"label": "firstName",
								"offset": 0,
								"slot": "1",
								"type": "t_string_storage"
							},
							{
								"astId": 7,
								"contract": "contracts/Profile.sol:Profile",
								"label": "middleName",
								"offset": 0,
								"slot": "2",
								"type": "t_string_storage"
							},
							{
								"astId": 9,
								"contract": "contracts/Profile.sol:Profile",
								"label": "lastName",
								"offset": 0,
								"slot": "3",
								"type": "t_string_storage"
							},
							{
								"astId": 11,
								"contract": "contracts/Profile.sol:Profile",
								"label": "email",
								"offset": 0,
								"slot": "4",
								"type": "t_string_storage"
							},
							{
								"astId": 13,
								"contract": "contracts/Profile.sol:Profile",
								"label": "phone",
								"offset": 0,
								"slot": "5",
								"type": "t_string_storage"
							},
							{
								"astId": 15,
								"contract": "contracts/Profile.sol:Profile",
								"label": "profileImage",
								"offset": 0,
								"slot": "6",
								"type": "t_string_storage"
							},
							{
								"astId": 17,
								"contract": "contracts/Profile.sol:Profile",
								"label": "createDate",
								"offset": 0,
								"slot": "7",
								"type": "t_uint256"
							},
							{
								"astId": 20,
								"contract": "contracts/Profile.sol:Profile",
								"label": "frontend",
								"offset": 0,
								"slot": "8",
								"type": "t_array(t_string_storage)dyn_storage"
							},
							{
								"astId": 23,
								"contract": "contracts/Profile.sol:Profile",
								"label": "backend",
								"offset": 0,
								"slot": "9",
								"type": "t_array(t_string_storage)dyn_storage"
							},
							{
								"astId": 26,
								"contract": "contracts/Profile.sol:Profile",
								"label": "framework",
								"offset": 0,
								"slot": "10",
								"type": "t_array(t_string_storage)dyn_storage"
							}
						],
						"numberOfBytes": "352"
					},
					"t_uint256": {
						"encoding": "inplace",
						"label": "uint256",
						"numberOfBytes": "32"
					}
				}
			},
			"userdoc": {
				"kind": "user",
				"methods": {},
				"version": 1
			}
		}
	}
}