{
	"contracts/Profile.sol": {
		"Profile": {
			"abi": [
				{
					"inputs": [
						{
							"internalType": "string",
							"name": "email",
							"type": "string"
						},
						{
							"internalType": "string",
							"name": "phone",
							"type": "string"
						},
						{
							"internalType": "string",
							"name": "github",
							"type": "string"
						},
						{
							"internalType": "string",
							"name": "gitlab",
							"type": "string"
						},
						{
							"internalType": "string",
							"name": "linkin",
							"type": "string"
						}
					],
					"name": "createContract",
					"outputs": [],
					"stateMutability": "nonpayable",
					"type": "function"
				},
				{
					"inputs": [
						{
							"internalType": "string",
							"name": "firstName",
							"type": "string"
						},
						{
							"internalType": "string",
							"name": "middleName",
							"type": "string"
						},
						{
							"internalType": "string",
							"name": "lastName",
							"type": "string"
						},
						{
							"internalType": "string",
							"name": "profileImage",
							"type": "string"
						},
						{
							"internalType": "string",
							"name": "aboutMe",
							"type": "string"
						},
						{
							"internalType": "string",
							"name": "position",
							"type": "string"
						}
					],
					"name": "createInformation",
					"outputs": [],
					"stateMutability": "nonpayable",
					"type": "function"
				},
				{
					"inputs": [
						{
							"internalType": "string[]",
							"name": "programmingLanguages",
							"type": "string[]"
						},
						{
							"internalType": "string[]",
							"name": "framework",
							"type": "string[]"
						},
						{
							"internalType": "string[]",
							"name": "databaseAndOther",
							"type": "string[]"
						}
					],
					"name": "createSkill",
					"outputs": [],
					"stateMutability": "nonpayable",
					"type": "function"
				},
				{
					"inputs": [
						{
							"internalType": "string",
							"name": "startDate",
							"type": "string"
						},
						{
							"internalType": "string",
							"name": "endDate",
							"type": "string"
						},
						{
							"internalType": "string",
							"name": "univercity",
							"type": "string"
						},
						{
							"internalType": "string",
							"name": "major",
							"type": "string"
						}
					],
					"name": "createUnivercity",
					"outputs": [],
					"stateMutability": "nonpayable",
					"type": "function"
				},
				{
					"inputs": [],
					"name": "delAllEducation",
					"outputs": [],
					"stateMutability": "nonpayable",
					"type": "function"
				},
				{
					"inputs": [],
					"name": "delInformaion",
					"outputs": [],
					"stateMutability": "nonpayable",
					"type": "function"
				},
				{
					"inputs": [],
					"name": "delProfile",
					"outputs": [],
					"stateMutability": "nonpayable",
					"type": "function"
				},
				{
					"inputs": [
						{
							"internalType": "uint256",
							"name": "index",
							"type": "uint256"
						}
					],
					"name": "getEducation",
					"outputs": [
						{
							"internalType": "string",
							"name": "",
							"type": "string"
						},
						{
							"internalType": "string",
							"name": "",
							"type": "string"
						},
						{
							"internalType": "string",
							"name": "",
							"type": "string"
						},
						{
							"internalType": "string",
							"name": "",
							"type": "string"
						}
					],
					"stateMutability": "view",
					"type": "function"
				},
				{
					"inputs": [],
					"name": "getEducationCount",
					"outputs": [
						{
							"internalType": "uint256",
							"name": "",
							"type": "uint256"
						}
					],
					"stateMutability": "view",
					"type": "function"
				},
				{
					"inputs": [
						{
							"internalType": "address",
							"name": "",
							"type": "address"
						}
					],
					"name": "profile",
					"outputs": [
						{
							"components": [
								{
									"internalType": "string",
									"name": "aboutMe",
									"type": "string"
								},
								{
									"internalType": "string",
									"name": "position",
									"type": "string"
								},
								{
									"internalType": "address",
									"name": "userAddress",
									"type": "address"
								},
								{
									"internalType": "string",
									"name": "firstName",
									"type": "string"
								},
								{
									"internalType": "string",
									"name": "middleName",
									"type": "string"
								},
								{
									"internalType": "string",
									"name": "lastName",
									"type": "string"
								},
								{
									"internalType": "string",
									"name": "profileImage",
									"type": "string"
								},
								{
									"internalType": "uint256",
									"name": "createDate",
									"type": "uint256"
								}
							],
							"internalType": "struct Profile.Information",
							"name": "information",
							"type": "tuple"
						},
						{
							"components": [
								{
									"internalType": "string",
									"name": "aboutMe",
									"type": "string"
								},
								{
									"internalType": "string",
									"name": "email",
									"type": "string"
								},
								{
									"internalType": "string",
									"name": "phone",
									"type": "string"
								},
								{
									"internalType": "string",
									"name": "github",
									"type": "string"
								},
								{
									"internalType": "string",
									"name": "gitlab",
									"type": "string"
								},
								{
									"internalType": "string",
									"name": "linkin",
									"type": "string"
								}
							],
							"internalType": "struct Profile.Contract",
							"name": "privateContract",
							"type": "tuple"
						},
						{
							"components": [
								{
									"internalType": "string[]",
									"name": "programmingLanguages",
									"type": "string[]"
								},
								{
									"internalType": "string[]",
									"name": "framework",
									"type": "string[]"
								},
								{
									"internalType": "string[]",
									"name": "databaseAndOther",
									"type": "string[]"
								}
							],
							"internalType": "struct Profile.Skill",
							"name": "skill",
							"type": "tuple"
						}
					],
					"stateMutability": "view",
					"type": "function"
				}
			],
			"devdoc": {
				"kind": "dev",
				"methods": {},
				"version": 1
			},
			"evm": {
				"assembly": "    /* \"contracts/Profile.sol\":60:4035  contract Profile {\r... */\n  mstore(0x40, 0x80)\n  callvalue\n  dup1\n  iszero\n  tag_1\n  jumpi\n  0x00\n  dup1\n  revert\ntag_1:\n  pop\n  dataSize(sub_0)\n  dup1\n  dataOffset(sub_0)\n  0x00\n  codecopy\n  0x00\n  return\nstop\n\nsub_0: assembly {\n        /* \"contracts/Profile.sol\":60:4035  contract Profile {\r... */\n      mstore(0x40, 0x80)\n      callvalue\n      dup1\n      iszero\n      tag_1\n      jumpi\n      0x00\n      dup1\n      revert\n    tag_1:\n      pop\n      jumpi(tag_2, lt(calldatasize, 0x04))\n      shr(0xe0, calldataload(0x00))\n      dup1\n      0x9d983a01\n      gt\n      tag_13\n      jumpi\n      dup1\n      0x9d983a01\n      eq\n      tag_8\n      jumpi\n      dup1\n      0x9dd9d0fd\n      eq\n      tag_9\n      jumpi\n      dup1\n      0xed2217ef\n      eq\n      tag_10\n      jumpi\n      dup1\n      0xf96e32f8\n      eq\n      tag_11\n      jumpi\n      dup1\n      0xfabce08f\n      eq\n      tag_12\n      jumpi\n      jump(tag_2)\n    tag_13:\n      dup1\n      0x3d984d0e\n      eq\n      tag_3\n      jumpi\n      dup1\n      0x6212fa02\n      eq\n      tag_4\n      jumpi\n      dup1\n      0x72828388\n      eq\n      tag_5\n      jumpi\n      dup1\n      0x958791ae\n      eq\n      tag_6\n      jumpi\n      dup1\n      0x95ea3757\n      eq\n      tag_7\n      jumpi\n    tag_2:\n      0x00\n      dup1\n      revert\n        /* \"contracts/Profile.sol\":2434:2822  function createSkill(string[] memory programmingLanguages, string[] memory framework, string[] memory databaseAndOther) public {\r... */\n    tag_3:\n      tag_14\n      0x04\n      dup1\n      calldatasize\n      sub\n      dup2\n      add\n      swap1\n      tag_15\n      swap2\n      swap1\n      tag_16\n      jump\t// in\n    tag_15:\n      tag_17\n      jump\t// in\n    tag_14:\n      stop\n        /* \"contracts/Profile.sol\":3626:3744  function getEducationCount() public view returns (uint) {\r... */\n    tag_4:\n      tag_18\n      tag_19\n      jump\t// in\n    tag_18:\n      mload(0x40)\n      tag_20\n      swap2\n      swap1\n      tag_21\n      jump\t// in\n    tag_20:\n      mload(0x40)\n      dup1\n      swap2\n      sub\n      swap1\n      return\n        /* \"contracts/Profile.sol\":1831:2347  function createContract(string memory email, string memory phone, string memory github, string memory gitlab, string memory linkin) public {\r... */\n    tag_5:\n      tag_22\n      0x04\n      dup1\n      calldatasize\n      sub\n      dup2\n      add\n      swap1\n      tag_23\n      swap2\n      swap1\n      tag_24\n      jump\t// in\n    tag_23:\n      tag_25\n      jump\t// in\n    tag_22:\n      stop\n        /* \"contracts/Profile.sol\":1043:1776  function createInformation(string memory firstName, string memory middleName, string memory lastName,  string memory profileImage, string memory aboutMe, string memory position) public {\r... */\n    tag_6:\n      tag_26\n      0x04\n      dup1\n      calldatasize\n      sub\n      dup2\n      add\n      swap1\n      tag_27\n      swap2\n      swap1\n      tag_28\n      jump\t// in\n    tag_27:\n      tag_29\n      jump\t// in\n    tag_26:\n      stop\n        /* \"contracts/Profile.sol\":3856:3948  function delInformaion() external  {\r... */\n    tag_7:\n      tag_30\n      tag_31\n      jump\t// in\n    tag_30:\n      stop\n        /* \"contracts/Profile.sol\":2889:3282  function createUnivercity(string memory startDate, string memory endDate, string memory univercity, string memory major) public {\r... */\n    tag_8:\n      tag_32\n      0x04\n      dup1\n      calldatasize\n      sub\n      dup2\n      add\n      swap1\n      tag_33\n      swap2\n      swap1\n      tag_34\n      jump\t// in\n    tag_33:\n      tag_35\n      jump\t// in\n    tag_32:\n      stop\n        /* \"contracts/Profile.sol\":234:274  mapping (address => Bio) public  profile */\n    tag_9:\n      tag_36\n      0x04\n      dup1\n      calldatasize\n      sub\n      dup2\n      add\n      swap1\n      tag_37\n      swap2\n      swap1\n      tag_38\n      jump\t// in\n    tag_37:\n      tag_39\n      jump\t// in\n    tag_36:\n      mload(0x40)\n      tag_40\n      swap4\n      swap3\n      swap2\n      swap1\n      tag_41\n      jump\t// in\n    tag_40:\n      mload(0x40)\n      dup1\n      swap2\n      sub\n      swap1\n      return\n        /* \"contracts/Profile.sol\":3756:3848  function delAllEducation() external  {\r... */\n    tag_10:\n      tag_42\n      tag_43\n      jump\t// in\n    tag_42:\n      stop\n        /* \"contracts/Profile.sol\":3291:3618  function getEducation(uint index) public view returns(string memory, string memory, string memory, string memory) {\r... */\n    tag_11:\n      tag_44\n      0x04\n      dup1\n      calldatasize\n      sub\n      dup2\n      add\n      swap1\n      tag_45\n      swap2\n      swap1\n      tag_46\n      jump\t// in\n    tag_45:\n      tag_47\n      jump\t// in\n    tag_44:\n      mload(0x40)\n      tag_48\n      swap5\n      swap4\n      swap3\n      swap2\n      swap1\n      tag_49\n      jump\t// in\n    tag_48:\n      mload(0x40)\n      dup1\n      swap2\n      sub\n      swap1\n      return\n        /* \"contracts/Profile.sol\":3956:4032  function delProfile() external {\r... */\n    tag_12:\n      tag_50\n      tag_51\n      jump\t// in\n    tag_50:\n      stop\n        /* \"contracts/Profile.sol\":2434:2822  function createSkill(string[] memory programmingLanguages, string[] memory framework, string[] memory databaseAndOther) public {\r... */\n    tag_17:\n        /* \"contracts/Profile.sol\":2579:2586  profile */\n      0x00\n        /* \"contracts/Profile.sol\":2579:2598  profile[msg.sender] */\n      dup1\n        /* \"contracts/Profile.sol\":2587:2597  msg.sender */\n      caller\n        /* \"contracts/Profile.sol\":2579:2598  profile[msg.sender] */\n      0xffffffffffffffffffffffffffffffffffffffff\n      and\n      0xffffffffffffffffffffffffffffffffffffffff\n      and\n      dup2\n      mstore\n      0x20\n      add\n      swap1\n      dup2\n      mstore\n      0x20\n      add\n      0x00\n      keccak256\n        /* \"contracts/Profile.sol\":2579:2604  profile[msg.sender].skill */\n      0x0e\n      add\n      0x00\n        /* \"contracts/Profile.sol\":2572:2604  delete profile[msg.sender].skill */\n      dup1\n      dup3\n      add\n      0x00\n      tag_53\n      swap2\n      swap1\n      tag_54\n      jump\t// in\n    tag_53:\n      0x01\n      dup3\n      add\n      0x00\n      tag_55\n      swap2\n      swap1\n      tag_54\n      jump\t// in\n    tag_55:\n      0x02\n      dup3\n      add\n      0x00\n      tag_56\n      swap2\n      swap1\n      tag_54\n      jump\t// in\n    tag_56:\n      pop\n      pop\n        /* \"contracts/Profile.sol\":2664:2684  programmingLanguages */\n      dup3\n        /* \"contracts/Profile.sol\":2615:2622  profile */\n      0x00\n        /* \"contracts/Profile.sol\":2615:2634  profile[msg.sender] */\n      dup1\n        /* \"contracts/Profile.sol\":2623:2633  msg.sender */\n      caller\n        /* \"contracts/Profile.sol\":2615:2634  profile[msg.sender] */\n      0xffffffffffffffffffffffffffffffffffffffff\n      and\n      0xffffffffffffffffffffffffffffffffffffffff\n      and\n      dup2\n      mstore\n      0x20\n      add\n      swap1\n      dup2\n      mstore\n      0x20\n      add\n      0x00\n      keccak256\n        /* \"contracts/Profile.sol\":2615:2640  profile[msg.sender].skill */\n      0x0e\n      add\n        /* \"contracts/Profile.sol\":2615:2661  profile[msg.sender].skill.programmingLanguages */\n      0x00\n      add\n        /* \"contracts/Profile.sol\":2615:2684  profile[msg.sender].skill.programmingLanguages = programmingLanguages */\n      swap1\n      dup1\n      mload\n      swap1\n      0x20\n      add\n      swap1\n      tag_57\n      swap3\n      swap2\n      swap1\n      tag_58\n      jump\t// in\n    tag_57:\n      pop\n        /* \"contracts/Profile.sol\":2733:2742  framework */\n      dup2\n        /* \"contracts/Profile.sol\":2695:2702  profile */\n      0x00\n        /* \"contracts/Profile.sol\":2695:2714  profile[msg.sender] */\n      dup1\n        /* \"contracts/Profile.sol\":2703:2713  msg.sender */\n      caller\n        /* \"contracts/Profile.sol\":2695:2714  profile[msg.sender] */\n      0xffffffffffffffffffffffffffffffffffffffff\n      and\n      0xffffffffffffffffffffffffffffffffffffffff\n      and\n      dup2\n      mstore\n      0x20\n      add\n      swap1\n      dup2\n      mstore\n      0x20\n      add\n      0x00\n      keccak256\n        /* \"contracts/Profile.sol\":2695:2720  profile[msg.sender].skill */\n      0x0e\n      add\n        /* \"contracts/Profile.sol\":2695:2730  profile[msg.sender].skill.framework */\n      0x01\n      add\n        /* \"contracts/Profile.sol\":2695:2742  profile[msg.sender].skill.framework = framework */\n      swap1\n      dup1\n      mload\n      swap1\n      0x20\n      add\n      swap1\n      tag_59\n      swap3\n      swap2\n      swap1\n      tag_58\n      jump\t// in\n    tag_59:\n      pop\n        /* \"contracts/Profile.sol\":2798:2814  databaseAndOther */\n      dup1\n        /* \"contracts/Profile.sol\":2753:2760  profile */\n      0x00\n        /* \"contracts/Profile.sol\":2753:2772  profile[msg.sender] */\n      dup1\n        /* \"contracts/Profile.sol\":2761:2771  msg.sender */\n      caller\n        /* \"contracts/Profile.sol\":2753:2772  profile[msg.sender] */\n      0xffffffffffffffffffffffffffffffffffffffff\n      and\n      0xffffffffffffffffffffffffffffffffffffffff\n      and\n      dup2\n      mstore\n      0x20\n      add\n      swap1\n      dup2\n      mstore\n      0x20\n      add\n      0x00\n      keccak256\n        /* \"contracts/Profile.sol\":2753:2778  profile[msg.sender].skill */\n      0x0e\n      add\n        /* \"contracts/Profile.sol\":2753:2795  profile[msg.sender].skill.databaseAndOther */\n      0x02\n      add\n        /* \"contracts/Profile.sol\":2753:2814  profile[msg.sender].skill.databaseAndOther = databaseAndOther */\n      swap1\n      dup1\n      mload\n      swap1\n      0x20\n      add\n      swap1\n      tag_60\n      swap3\n      swap2\n      swap1\n      tag_58\n      jump\t// in\n    tag_60:\n      pop\n        /* \"contracts/Profile.sol\":2434:2822  function createSkill(string[] memory programmingLanguages, string[] memory framework, string[] memory databaseAndOther) public {\r... */\n      pop\n      pop\n      pop\n      jump\t// out\n        /* \"contracts/Profile.sol\":3626:3744  function getEducationCount() public view returns (uint) {\r... */\n    tag_19:\n        /* \"contracts/Profile.sol\":3676:3680  uint */\n      0x00\n        /* \"contracts/Profile.sol\":3700:3707  profile */\n      dup1\n        /* \"contracts/Profile.sol\":3700:3719  profile[msg.sender] */\n      0x00\n        /* \"contracts/Profile.sol\":3708:3718  msg.sender */\n      caller\n        /* \"contracts/Profile.sol\":3700:3719  profile[msg.sender] */\n      0xffffffffffffffffffffffffffffffffffffffff\n      and\n      0xffffffffffffffffffffffffffffffffffffffff\n      and\n      dup2\n      mstore\n      0x20\n      add\n      swap1\n      dup2\n      mstore\n      0x20\n      add\n      0x00\n      keccak256\n        /* \"contracts/Profile.sol\":3700:3729  profile[msg.sender].education */\n      0x11\n      add\n        /* \"contracts/Profile.sol\":3700:3736  profile[msg.sender].education.length */\n      dup1\n      sload\n      swap1\n      pop\n        /* \"contracts/Profile.sol\":3693:3736  return profile[msg.sender].education.length */\n      swap1\n      pop\n        /* \"contracts/Profile.sol\":3626:3744  function getEducationCount() public view returns (uint) {\r... */\n      swap1\n      jump\t// out\n        /* \"contracts/Profile.sol\":1831:2347  function createContract(string memory email, string memory phone, string memory github, string memory gitlab, string memory linkin) public {\r... */\n    tag_25:\n        /* \"contracts/Profile.sol\":1988:1995  profile */\n      0x00\n        /* \"contracts/Profile.sol\":1988:2007  profile[msg.sender] */\n      dup1\n        /* \"contracts/Profile.sol\":1996:2006  msg.sender */\n      caller\n        /* \"contracts/Profile.sol\":1988:2007  profile[msg.sender] */\n      0xffffffffffffffffffffffffffffffffffffffff\n      and\n      0xffffffffffffffffffffffffffffffffffffffff\n      and\n      dup2\n      mstore\n      0x20\n      add\n      swap1\n      dup2\n      mstore\n      0x20\n      add\n      0x00\n      keccak256\n        /* \"contracts/Profile.sol\":1988:2023  profile[msg.sender].privateContract */\n      0x08\n      add\n      0x00\n        /* \"contracts/Profile.sol\":1981:2023  delete profile[msg.sender].privateContract */\n      dup1\n      dup3\n      add\n      0x00\n      tag_63\n      swap2\n      swap1\n      tag_64\n      jump\t// in\n    tag_63:\n      0x01\n      dup3\n      add\n      0x00\n      tag_65\n      swap2\n      swap1\n      tag_64\n      jump\t// in\n    tag_65:\n      0x02\n      dup3\n      add\n      0x00\n      tag_66\n      swap2\n      swap1\n      tag_64\n      jump\t// in\n    tag_66:\n      0x03\n      dup3\n      add\n      0x00\n      tag_67\n      swap2\n      swap1\n      tag_64\n      jump\t// in\n    tag_67:\n      0x04\n      dup3\n      add\n      0x00\n      tag_68\n      swap2\n      swap1\n      tag_64\n      jump\t// in\n    tag_68:\n      0x05\n      dup3\n      add\n      0x00\n      tag_69\n      swap2\n      swap1\n      tag_64\n      jump\t// in\n    tag_69:\n      pop\n      pop\n        /* \"contracts/Profile.sol\":2078:2083  email */\n      dup5\n        /* \"contracts/Profile.sol\":2034:2041  profile */\n      0x00\n        /* \"contracts/Profile.sol\":2034:2053  profile[msg.sender] */\n      dup1\n        /* \"contracts/Profile.sol\":2042:2052  msg.sender */\n      caller\n        /* \"contracts/Profile.sol\":2034:2053  profile[msg.sender] */\n      0xffffffffffffffffffffffffffffffffffffffff\n      and\n      0xffffffffffffffffffffffffffffffffffffffff\n      and\n      dup2\n      mstore\n      0x20\n      add\n      swap1\n      dup2\n      mstore\n      0x20\n      add\n      0x00\n      keccak256\n        /* \"contracts/Profile.sol\":2034:2069  profile[msg.sender].privateContract */\n      0x08\n      add\n        /* \"contracts/Profile.sol\":2034:2075  profile[msg.sender].privateContract.email */\n      0x01\n      add\n        /* \"contracts/Profile.sol\":2034:2083  profile[msg.sender].privateContract.email = email */\n      swap1\n      dup1\n      mload\n      swap1\n      0x20\n      add\n      swap1\n      tag_70\n      swap3\n      swap2\n      swap1\n      tag_71\n      jump\t// in\n    tag_70:\n      pop\n        /* \"contracts/Profile.sol\":2138:2143  phone */\n      dup4\n        /* \"contracts/Profile.sol\":2094:2101  profile */\n      0x00\n        /* \"contracts/Profile.sol\":2094:2113  profile[msg.sender] */\n      dup1\n        /* \"contracts/Profile.sol\":2102:2112  msg.sender */\n      caller\n        /* \"contracts/Profile.sol\":2094:2113  profile[msg.sender] */\n      0xffffffffffffffffffffffffffffffffffffffff\n      and\n      0xffffffffffffffffffffffffffffffffffffffff\n      and\n      dup2\n      mstore\n      0x20\n      add\n      swap1\n      dup2\n      mstore\n      0x20\n      add\n      0x00\n      keccak256\n        /* \"contracts/Profile.sol\":2094:2129  profile[msg.sender].privateContract */\n      0x08\n      add\n        /* \"contracts/Profile.sol\":2094:2135  profile[msg.sender].privateContract.phone */\n      0x02\n      add\n        /* \"contracts/Profile.sol\":2094:2143  profile[msg.sender].privateContract.phone = phone */\n      swap1\n      dup1\n      mload\n      swap1\n      0x20\n      add\n      swap1\n      tag_72\n      swap3\n      swap2\n      swap1\n      tag_71\n      jump\t// in\n    tag_72:\n      pop\n        /* \"contracts/Profile.sol\":2199:2205  github */\n      dup3\n        /* \"contracts/Profile.sol\":2154:2161  profile */\n      0x00\n        /* \"contracts/Profile.sol\":2154:2173  profile[msg.sender] */\n      dup1\n        /* \"contracts/Profile.sol\":2162:2172  msg.sender */\n      caller\n        /* \"contracts/Profile.sol\":2154:2173  profile[msg.sender] */\n      0xffffffffffffffffffffffffffffffffffffffff\n      and\n      0xffffffffffffffffffffffffffffffffffffffff\n      and\n      dup2\n      mstore\n      0x20\n      add\n      swap1\n      dup2\n      mstore\n      0x20\n      add\n      0x00\n      keccak256\n        /* \"contracts/Profile.sol\":2154:2189  profile[msg.sender].privateContract */\n      0x08\n      add\n        /* \"contracts/Profile.sol\":2154:2196  profile[msg.sender].privateContract.github */\n      0x03\n      add\n        /* \"contracts/Profile.sol\":2154:2205  profile[msg.sender].privateContract.github = github */\n      swap1\n      dup1\n      mload\n      swap1\n      0x20\n      add\n      swap1\n      tag_73\n      swap3\n      swap2\n      swap1\n      tag_71\n      jump\t// in\n    tag_73:\n      pop\n        /* \"contracts/Profile.sol\":2260:2266  gitlab */\n      dup2\n        /* \"contracts/Profile.sol\":2216:2223  profile */\n      0x00\n        /* \"contracts/Profile.sol\":2216:2235  profile[msg.sender] */\n      dup1\n        /* \"contracts/Profile.sol\":2224:2234  msg.sender */\n      caller\n        /* \"contracts/Profile.sol\":2216:2235  profile[msg.sender] */\n      0xffffffffffffffffffffffffffffffffffffffff\n      and\n      0xffffffffffffffffffffffffffffffffffffffff\n      and\n      dup2\n      mstore\n      0x20\n      add\n      swap1\n      dup2\n      mstore\n      0x20\n      add\n      0x00\n      keccak256\n        /* \"contracts/Profile.sol\":2216:2251  profile[msg.sender].privateContract */\n      0x08\n      add\n        /* \"contracts/Profile.sol\":2216:2257  profile[msg.sender].privateContract.phone */\n      0x02\n      add\n        /* \"contracts/Profile.sol\":2216:2266  profile[msg.sender].privateContract.phone = gitlab */\n      swap1\n      dup1\n      mload\n      swap1\n      0x20\n      add\n      swap1\n      tag_74\n      swap3\n      swap2\n      swap1\n      tag_71\n      jump\t// in\n    tag_74:\n      pop\n        /* \"contracts/Profile.sol\":2321:2327  linkin */\n      dup1\n        /* \"contracts/Profile.sol\":2277:2284  profile */\n      0x00\n        /* \"contracts/Profile.sol\":2277:2296  profile[msg.sender] */\n      dup1\n        /* \"contracts/Profile.sol\":2285:2295  msg.sender */\n      caller\n        /* \"contracts/Profile.sol\":2277:2296  profile[msg.sender] */\n      0xffffffffffffffffffffffffffffffffffffffff\n      and\n      0xffffffffffffffffffffffffffffffffffffffff\n      and\n      dup2\n      mstore\n      0x20\n      add\n      swap1\n      dup2\n      mstore\n      0x20\n      add\n      0x00\n      keccak256\n        /* \"contracts/Profile.sol\":2277:2312  profile[msg.sender].privateContract */\n      0x08\n      add\n        /* \"contracts/Profile.sol\":2277:2318  profile[msg.sender].privateContract.email */\n      0x01\n      add\n        /* \"contracts/Profile.sol\":2277:2327  profile[msg.sender].privateContract.email = linkin */\n      swap1\n      dup1\n      mload\n      swap1\n      0x20\n      add\n      swap1\n      tag_75\n      swap3\n      swap2\n      swap1\n      tag_71\n      jump\t// in\n    tag_75:\n      pop\n        /* \"contracts/Profile.sol\":1831:2347  function createContract(string memory email, string memory phone, string memory github, string memory gitlab, string memory linkin) public {\r... */\n      pop\n      pop\n      pop\n      pop\n      pop\n      jump\t// out\n        /* \"contracts/Profile.sol\":1043:1776  function createInformation(string memory firstName, string memory middleName, string memory lastName,  string memory profileImage, string memory aboutMe, string memory position) public {\r... */\n    tag_29:\n        /* \"contracts/Profile.sol\":1283:1292  firstName */\n      dup6\n        /* \"contracts/Profile.sol\":1239:1246  profile */\n      0x00\n        /* \"contracts/Profile.sol\":1239:1258  profile[msg.sender] */\n      dup1\n        /* \"contracts/Profile.sol\":1247:1257  msg.sender */\n      caller\n        /* \"contracts/Profile.sol\":1239:1258  profile[msg.sender] */\n      0xffffffffffffffffffffffffffffffffffffffff\n      and\n      0xffffffffffffffffffffffffffffffffffffffff\n      and\n      dup2\n      mstore\n      0x20\n      add\n      swap1\n      dup2\n      mstore\n      0x20\n      add\n      0x00\n      keccak256\n        /* \"contracts/Profile.sol\":1239:1270  profile[msg.sender].information */\n      0x00\n      add\n        /* \"contracts/Profile.sol\":1239:1280  profile[msg.sender].information.firstName */\n      0x03\n      add\n        /* \"contracts/Profile.sol\":1239:1292  profile[msg.sender].information.firstName = firstName */\n      swap1\n      dup1\n      mload\n      swap1\n      0x20\n      add\n      swap1\n      tag_77\n      swap3\n      swap2\n      swap1\n      tag_71\n      jump\t// in\n    tag_77:\n      pop\n        /* \"contracts/Profile.sol\":1348:1358  middleName */\n      dup5\n        /* \"contracts/Profile.sol\":1303:1310  profile */\n      0x00\n        /* \"contracts/Profile.sol\":1303:1322  profile[msg.sender] */\n      dup1\n        /* \"contracts/Profile.sol\":1311:1321  msg.sender */\n      caller\n        /* \"contracts/Profile.sol\":1303:1322  profile[msg.sender] */\n      0xffffffffffffffffffffffffffffffffffffffff\n      and\n      0xffffffffffffffffffffffffffffffffffffffff\n      and\n      dup2\n      mstore\n      0x20\n      add\n      swap1\n      dup2\n      mstore\n      0x20\n      add\n      0x00\n      keccak256\n        /* \"contracts/Profile.sol\":1303:1334  profile[msg.sender].information */\n      0x00\n      add\n        /* \"contracts/Profile.sol\":1303:1345  profile[msg.sender].information.middleName */\n      0x04\n      add\n        /* \"contracts/Profile.sol\":1303:1358  profile[msg.sender].information.middleName = middleName */\n      swap1\n      dup1\n      mload\n      swap1\n      0x20\n      add\n      swap1\n      tag_78\n      swap3\n      swap2\n      swap1\n      tag_71\n      jump\t// in\n    tag_78:\n      pop\n        /* \"contracts/Profile.sol\":1412:1420  lastName */\n      dup4\n        /* \"contracts/Profile.sol\":1369:1376  profile */\n      0x00\n        /* \"contracts/Profile.sol\":1369:1388  profile[msg.sender] */\n      dup1\n        /* \"contracts/Profile.sol\":1377:1387  msg.sender */\n      caller\n        /* \"contracts/Profile.sol\":1369:1388  profile[msg.sender] */\n      0xffffffffffffffffffffffffffffffffffffffff\n      and\n      0xffffffffffffffffffffffffffffffffffffffff\n      and\n      dup2\n      mstore\n      0x20\n      add\n      swap1\n      dup2\n      mstore\n      0x20\n      add\n      0x00\n      keccak256\n        /* \"contracts/Profile.sol\":1369:1400  profile[msg.sender].information */\n      0x00\n      add\n        /* \"contracts/Profile.sol\":1369:1409  profile[msg.sender].information.lastName */\n      0x05\n      add\n        /* \"contracts/Profile.sol\":1369:1420  profile[msg.sender].information.lastName = lastName */\n      swap1\n      dup1\n      mload\n      swap1\n      0x20\n      add\n      swap1\n      tag_79\n      swap3\n      swap2\n      swap1\n      tag_71\n      jump\t// in\n    tag_79:\n      pop\n        /* \"contracts/Profile.sol\":1478:1490  profileImage */\n      dup3\n        /* \"contracts/Profile.sol\":1431:1438  profile */\n      0x00\n        /* \"contracts/Profile.sol\":1431:1450  profile[msg.sender] */\n      dup1\n        /* \"contracts/Profile.sol\":1439:1449  msg.sender */\n      caller\n        /* \"contracts/Profile.sol\":1431:1450  profile[msg.sender] */\n      0xffffffffffffffffffffffffffffffffffffffff\n      and\n      0xffffffffffffffffffffffffffffffffffffffff\n      and\n      dup2\n      mstore\n      0x20\n      add\n      swap1\n      dup2\n      mstore\n      0x20\n      add\n      0x00\n      keccak256\n        /* \"contracts/Profile.sol\":1431:1462  profile[msg.sender].information */\n      0x00\n      add\n        /* \"contracts/Profile.sol\":1431:1475  profile[msg.sender].information.profileImage */\n      0x06\n      add\n        /* \"contracts/Profile.sol\":1431:1490  profile[msg.sender].information.profileImage = profileImage */\n      swap1\n      dup1\n      mload\n      swap1\n      0x20\n      add\n      swap1\n      tag_80\n      swap3\n      swap2\n      swap1\n      tag_71\n      jump\t// in\n    tag_80:\n      pop\n        /* \"contracts/Profile.sol\":1545:1553  position */\n      dup1\n        /* \"contracts/Profile.sol\":1502:1509  profile */\n      0x00\n        /* \"contracts/Profile.sol\":1502:1521  profile[msg.sender] */\n      dup1\n        /* \"contracts/Profile.sol\":1510:1520  msg.sender */\n      caller\n        /* \"contracts/Profile.sol\":1502:1521  profile[msg.sender] */\n      0xffffffffffffffffffffffffffffffffffffffff\n      and\n      0xffffffffffffffffffffffffffffffffffffffff\n      and\n      dup2\n      mstore\n      0x20\n      add\n      swap1\n      dup2\n      mstore\n      0x20\n      add\n      0x00\n      keccak256\n        /* \"contracts/Profile.sol\":1502:1533  profile[msg.sender].information */\n      0x00\n      add\n        /* \"contracts/Profile.sol\":1502:1542  profile[msg.sender].information.position */\n      0x01\n      add\n        /* \"contracts/Profile.sol\":1502:1553  profile[msg.sender].information.position = position */\n      swap1\n      dup1\n      mload\n      swap1\n      0x20\n      add\n      swap1\n      tag_81\n      swap3\n      swap2\n      swap1\n      tag_71\n      jump\t// in\n    tag_81:\n      pop\n        /* \"contracts/Profile.sol\":1624:1634  msg.sender */\n      caller\n        /* \"contracts/Profile.sol\":1578:1585  profile */\n      0x00\n        /* \"contracts/Profile.sol\":1578:1597  profile[msg.sender] */\n      dup1\n        /* \"contracts/Profile.sol\":1586:1596  msg.sender */\n      caller\n        /* \"contracts/Profile.sol\":1578:1597  profile[msg.sender] */\n      0xffffffffffffffffffffffffffffffffffffffff\n      and\n      0xffffffffffffffffffffffffffffffffffffffff\n      and\n      dup2\n      mstore\n      0x20\n      add\n      swap1\n      dup2\n      mstore\n      0x20\n      add\n      0x00\n      keccak256\n        /* \"contracts/Profile.sol\":1578:1609  profile[msg.sender].information */\n      0x00\n      add\n        /* \"contracts/Profile.sol\":1578:1621  profile[msg.sender].information.userAddress */\n      0x02\n      add\n      0x00\n        /* \"contracts/Profile.sol\":1578:1634  profile[msg.sender].information.userAddress = msg.sender */\n      0x0100\n      exp\n      dup2\n      sload\n      dup2\n      0xffffffffffffffffffffffffffffffffffffffff\n      mul\n      not\n      and\n      swap1\n      dup4\n      0xffffffffffffffffffffffffffffffffffffffff\n      and\n      mul\n      or\n      swap1\n      sstore\n      pop\n        /* \"contracts/Profile.sol\":1691:1706  block.timestamp */\n      timestamp\n        /* \"contracts/Profile.sol\":1646:1653  profile */\n      0x00\n        /* \"contracts/Profile.sol\":1646:1665  profile[msg.sender] */\n      dup1\n        /* \"contracts/Profile.sol\":1654:1664  msg.sender */\n      caller\n        /* \"contracts/Profile.sol\":1646:1665  profile[msg.sender] */\n      0xffffffffffffffffffffffffffffffffffffffff\n      and\n      0xffffffffffffffffffffffffffffffffffffffff\n      and\n      dup2\n      mstore\n      0x20\n      add\n      swap1\n      dup2\n      mstore\n      0x20\n      add\n      0x00\n      keccak256\n        /* \"contracts/Profile.sol\":1646:1677  profile[msg.sender].information */\n      0x00\n      add\n        /* \"contracts/Profile.sol\":1646:1688  profile[msg.sender].information.createDate */\n      0x07\n      add\n        /* \"contracts/Profile.sol\":1646:1706  profile[msg.sender].information.createDate = block.timestamp */\n      dup2\n      swap1\n      sstore\n      pop\n        /* \"contracts/Profile.sol\":1759:1766  aboutMe */\n      dup2\n        /* \"contracts/Profile.sol\":1717:1724  profile */\n      0x00\n        /* \"contracts/Profile.sol\":1717:1736  profile[msg.sender] */\n      dup1\n        /* \"contracts/Profile.sol\":1725:1735  msg.sender */\n      caller\n        /* \"contracts/Profile.sol\":1717:1736  profile[msg.sender] */\n      0xffffffffffffffffffffffffffffffffffffffff\n      and\n      0xffffffffffffffffffffffffffffffffffffffff\n      and\n      dup2\n      mstore\n      0x20\n      add\n      swap1\n      dup2\n      mstore\n      0x20\n      add\n      0x00\n      keccak256\n        /* \"contracts/Profile.sol\":1717:1748  profile[msg.sender].information */\n      0x00\n      add\n        /* \"contracts/Profile.sol\":1717:1756  profile[msg.sender].information.aboutMe */\n      0x00\n      add\n        /* \"contracts/Profile.sol\":1717:1766  profile[msg.sender].information.aboutMe = aboutMe */\n      swap1\n      dup1\n      mload\n      swap1\n      0x20\n      add\n      swap1\n      tag_82\n      swap3\n      swap2\n      swap1\n      tag_71\n      jump\t// in\n    tag_82:\n      pop\n        /* \"contracts/Profile.sol\":1043:1776  function createInformation(string memory firstName, string memory middleName, string memory lastName,  string memory profileImage, string memory aboutMe, string memory position) public {\r... */\n      pop\n      pop\n      pop\n      pop\n      pop\n      pop\n      jump\t// out\n        /* \"contracts/Profile.sol\":3856:3948  function delInformaion() external  {\r... */\n    tag_31:\n        /* \"contracts/Profile.sol\":3909:3916  profile */\n      0x00\n        /* \"contracts/Profile.sol\":3909:3928  profile[msg.sender] */\n      dup1\n        /* \"contracts/Profile.sol\":3917:3927  msg.sender */\n      caller\n        /* \"contracts/Profile.sol\":3909:3928  profile[msg.sender] */\n      0xffffffffffffffffffffffffffffffffffffffff\n      and\n      0xffffffffffffffffffffffffffffffffffffffff\n      and\n      dup2\n      mstore\n      0x20\n      add\n      swap1\n      dup2\n      mstore\n      0x20\n      add\n      0x00\n      keccak256\n        /* \"contracts/Profile.sol\":3909:3940  profile[msg.sender].information */\n      0x00\n      add\n      0x00\n        /* \"contracts/Profile.sol\":3902:3940  delete profile[msg.sender].information */\n      dup1\n      dup3\n      add\n      0x00\n      tag_84\n      swap2\n      swap1\n      tag_64\n      jump\t// in\n    tag_84:\n      0x01\n      dup3\n      add\n      0x00\n      tag_85\n      swap2\n      swap1\n      tag_64\n      jump\t// in\n    tag_85:\n      0x02\n      dup3\n      add\n      exp(0x0100, 0x00)\n      dup2\n      sload\n      swap1\n      0xffffffffffffffffffffffffffffffffffffffff\n      mul\n      not\n      and\n      swap1\n      sstore\n      0x03\n      dup3\n      add\n      0x00\n      tag_86\n      swap2\n      swap1\n      tag_64\n      jump\t// in\n    tag_86:\n      0x04\n      dup3\n      add\n      0x00\n      tag_87\n      swap2\n      swap1\n      tag_64\n      jump\t// in\n    tag_87:\n      0x05\n      dup3\n      add\n      0x00\n      tag_88\n      swap2\n      swap1\n      tag_64\n      jump\t// in\n    tag_88:\n      0x06\n      dup3\n      add\n      0x00\n      tag_89\n      swap2\n      swap1\n      tag_64\n      jump\t// in\n    tag_89:\n      0x07\n      dup3\n      add\n      0x00\n      swap1\n      sstore\n      pop\n      pop\n        /* \"contracts/Profile.sol\":3856:3948  function delInformaion() external  {\r... */\n      jump\t// out\n        /* \"contracts/Profile.sol\":2889:3282  function createUnivercity(string memory startDate, string memory endDate, string memory univercity, string memory major) public {\r... */\n    tag_35:\n        /* \"contracts/Profile.sol\":3028:3055  Education memory _education */\n      tag_91\n      tag_92\n      jump\t// in\n    tag_91:\n        /* \"contracts/Profile.sol\":3089:3098  startDate */\n      dup5\n        /* \"contracts/Profile.sol\":3066:3076  _education */\n      dup2\n        /* \"contracts/Profile.sol\":3066:3086  _education.startDate */\n      0x00\n      add\n        /* \"contracts/Profile.sol\":3066:3098  _education.startDate = startDate */\n      dup2\n      swap1\n      mstore\n      pop\n        /* \"contracts/Profile.sol\":3130:3137  endDate */\n      dup4\n        /* \"contracts/Profile.sol\":3109:3119  _education */\n      dup2\n        /* \"contracts/Profile.sol\":3109:3127  _education.endDate */\n      0x20\n      add\n        /* \"contracts/Profile.sol\":3109:3137  _education.endDate = endDate */\n      dup2\n      swap1\n      mstore\n      pop\n        /* \"contracts/Profile.sol\":3172:3182  univercity */\n      dup3\n        /* \"contracts/Profile.sol\":3148:3158  _education */\n      dup2\n        /* \"contracts/Profile.sol\":3148:3169  _education.univercity */\n      0x40\n      add\n        /* \"contracts/Profile.sol\":3148:3182  _education.univercity = univercity */\n      dup2\n      swap1\n      mstore\n      pop\n        /* \"contracts/Profile.sol\":3212:3217  major */\n      dup2\n        /* \"contracts/Profile.sol\":3193:3203  _education */\n      dup2\n        /* \"contracts/Profile.sol\":3193:3209  _education.major */\n      0x60\n      add\n        /* \"contracts/Profile.sol\":3193:3217  _education.major = major */\n      dup2\n      swap1\n      mstore\n      pop\n        /* \"contracts/Profile.sol\":3228:3235  profile */\n      0x00\n        /* \"contracts/Profile.sol\":3228:3247  profile[msg.sender] */\n      dup1\n        /* \"contracts/Profile.sol\":3236:3246  msg.sender */\n      caller\n        /* \"contracts/Profile.sol\":3228:3247  profile[msg.sender] */\n      0xffffffffffffffffffffffffffffffffffffffff\n      and\n      0xffffffffffffffffffffffffffffffffffffffff\n      and\n      dup2\n      mstore\n      0x20\n      add\n      swap1\n      dup2\n      mstore\n      0x20\n      add\n      0x00\n      keccak256\n        /* \"contracts/Profile.sol\":3228:3257  profile[msg.sender].education */\n      0x11\n      add\n        /* \"contracts/Profile.sol\":3263:3273  _education */\n      dup2\n        /* \"contracts/Profile.sol\":3228:3274  profile[msg.sender].education.push(_education) */\n      swap1\n      dup1\n      0x01\n      dup2\n      sload\n      add\n      dup1\n      dup3\n      sstore\n      dup1\n      swap2\n      pop\n      pop\n      0x01\n      swap1\n      sub\n      swap1\n      0x00\n      mstore\n      keccak256(0x00, 0x20)\n      swap1\n      0x04\n      mul\n      add\n      0x00\n      swap1\n      swap2\n      swap1\n      swap2\n      swap1\n      swap2\n      pop\n      0x00\n      dup3\n      add\n      mload\n      dup2\n      0x00\n      add\n      swap1\n      dup1\n      mload\n      swap1\n      0x20\n      add\n      swap1\n      tag_94\n      swap3\n      swap2\n      swap1\n      tag_71\n      jump\t// in\n    tag_94:\n      pop\n      0x20\n      dup3\n      add\n      mload\n      dup2\n      0x01\n      add\n      swap1\n      dup1\n      mload\n      swap1\n      0x20\n      add\n      swap1\n      tag_95\n      swap3\n      swap2\n      swap1\n      tag_71\n      jump\t// in\n    tag_95:\n      pop\n      0x40\n      dup3\n      add\n      mload\n      dup2\n      0x02\n      add\n      swap1\n      dup1\n      mload\n      swap1\n      0x20\n      add\n      swap1\n      tag_96\n      swap3\n      swap2\n      swap1\n      tag_71\n      jump\t// in\n    tag_96:\n      pop\n      0x60\n      dup3\n      add\n      mload\n      dup2\n      0x03\n      add\n      swap1\n      dup1\n      mload\n      swap1\n      0x20\n      add\n      swap1\n      tag_97\n      swap3\n      swap2\n      swap1\n      tag_71\n      jump\t// in\n    tag_97:\n      pop\n      pop\n      pop\n        /* \"contracts/Profile.sol\":3017:3282  {\r... */\n      pop\n        /* \"contracts/Profile.sol\":2889:3282  function createUnivercity(string memory startDate, string memory endDate, string memory univercity, string memory major) public {\r... */\n      pop\n      pop\n      pop\n      pop\n      jump\t// out\n        /* \"contracts/Profile.sol\":234:274  mapping (address => Bio) public  profile */\n    tag_39:\n      mstore(0x20, 0x00)\n      dup1\n      0x00\n      mstore\n      keccak256(0x00, 0x40)\n      0x00\n      swap2\n      pop\n      swap1\n      pop\n      dup1\n      0x00\n      add\n      mload(0x40)\n      dup1\n      0x0100\n      add\n      0x40\n      mstore\n      swap1\n      dup2\n      0x00\n      dup3\n      add\n      dup1\n      sload\n      tag_98\n      swap1\n      tag_99\n      jump\t// in\n    tag_98:\n      dup1\n      0x1f\n      add\n      0x20\n      dup1\n      swap2\n      div\n      mul\n      0x20\n      add\n      mload(0x40)\n      swap1\n      dup2\n      add\n      0x40\n      mstore\n      dup1\n      swap3\n      swap2\n      swap1\n      dup2\n      dup2\n      mstore\n      0x20\n      add\n      dup3\n      dup1\n      sload\n      tag_100\n      swap1\n      tag_99\n      jump\t// in\n    tag_100:\n      dup1\n      iszero\n      tag_101\n      jumpi\n      dup1\n      0x1f\n      lt\n      tag_102\n      jumpi\n      0x0100\n      dup1\n      dup4\n      sload\n      div\n      mul\n      dup4\n      mstore\n      swap2\n      0x20\n      add\n      swap2\n      jump(tag_101)\n    tag_102:\n      dup3\n      add\n      swap2\n      swap1\n      0x00\n      mstore\n      keccak256(0x00, 0x20)\n      swap1\n    tag_103:\n      dup2\n      sload\n      dup2\n      mstore\n      swap1\n      0x01\n      add\n      swap1\n      0x20\n      add\n      dup1\n      dup4\n      gt\n      tag_103\n      jumpi\n      dup3\n      swap1\n      sub\n      0x1f\n      and\n      dup3\n      add\n      swap2\n    tag_101:\n      pop\n      pop\n      pop\n      pop\n      pop\n      dup2\n      mstore\n      0x20\n      add\n      0x01\n      dup3\n      add\n      dup1\n      sload\n      tag_104\n      swap1\n      tag_99\n      jump\t// in\n    tag_104:\n      dup1\n      0x1f\n      add\n      0x20\n      dup1\n      swap2\n      div\n      mul\n      0x20\n      add\n      mload(0x40)\n      swap1\n      dup2\n      add\n      0x40\n      mstore\n      dup1\n      swap3\n      swap2\n      swap1\n      dup2\n      dup2\n      mstore\n      0x20\n      add\n      dup3\n      dup1\n      sload\n      tag_105\n      swap1\n      tag_99\n      jump\t// in\n    tag_105:\n      dup1\n      iszero\n      tag_106\n      jumpi\n      dup1\n      0x1f\n      lt\n      tag_107\n      jumpi\n      0x0100\n      dup1\n      dup4\n      sload\n      div\n      mul\n      dup4\n      mstore\n      swap2\n      0x20\n      add\n      swap2\n      jump(tag_106)\n    tag_107:\n      dup3\n      add\n      swap2\n      swap1\n      0x00\n      mstore\n      keccak256(0x00, 0x20)\n      swap1\n    tag_108:\n      dup2\n      sload\n      dup2\n      mstore\n      swap1\n      0x01\n      add\n      swap1\n      0x20\n      add\n      dup1\n      dup4\n      gt\n      tag_108\n      jumpi\n      dup3\n      swap1\n      sub\n      0x1f\n      and\n      dup3\n      add\n      swap2\n    tag_106:\n      pop\n      pop\n      pop\n      pop\n      pop\n      dup2\n      mstore\n      0x20\n      add\n      0x02\n      dup3\n      add\n      0x00\n      swap1\n      sload\n      swap1\n      0x0100\n      exp\n      swap1\n      div\n      0xffffffffffffffffffffffffffffffffffffffff\n      and\n      0xffffffffffffffffffffffffffffffffffffffff\n      and\n      0xffffffffffffffffffffffffffffffffffffffff\n      and\n      dup2\n      mstore\n      0x20\n      add\n      0x03\n      dup3\n      add\n      dup1\n      sload\n      tag_109\n      swap1\n      tag_99\n      jump\t// in\n    tag_109:\n      dup1\n      0x1f\n      add\n      0x20\n      dup1\n      swap2\n      div\n      mul\n      0x20\n      add\n      mload(0x40)\n      swap1\n      dup2\n      add\n      0x40\n      mstore\n      dup1\n      swap3\n      swap2\n      swap1\n      dup2\n      dup2\n      mstore\n      0x20\n      add\n      dup3\n      dup1\n      sload\n      tag_110\n      swap1\n      tag_99\n      jump\t// in\n    tag_110:\n      dup1\n      iszero\n      tag_111\n      jumpi\n      dup1\n      0x1f\n      lt\n      tag_112\n      jumpi\n      0x0100\n      dup1\n      dup4\n      sload\n      div\n      mul\n      dup4\n      mstore\n      swap2\n      0x20\n      add\n      swap2\n      jump(tag_111)\n    tag_112:\n      dup3\n      add\n      swap2\n      swap1\n      0x00\n      mstore\n      keccak256(0x00, 0x20)\n      swap1\n    tag_113:\n      dup2\n      sload\n      dup2\n      mstore\n      swap1\n      0x01\n      add\n      swap1\n      0x20\n      add\n      dup1\n      dup4\n      gt\n      tag_113\n      jumpi\n      dup3\n      swap1\n      sub\n      0x1f\n      and\n      dup3\n      add\n      swap2\n    tag_111:\n      pop\n      pop\n      pop\n      pop\n      pop\n      dup2\n      mstore\n      0x20\n      add\n      0x04\n      dup3\n      add\n      dup1\n      sload\n      tag_114\n      swap1\n      tag_99\n      jump\t// in\n    tag_114:\n      dup1\n      0x1f\n      add\n      0x20\n      dup1\n      swap2\n      div\n      mul\n      0x20\n      add\n      mload(0x40)\n      swap1\n      dup2\n      add\n      0x40\n      mstore\n      dup1\n      swap3\n      swap2\n      swap1\n      dup2\n      dup2\n      mstore\n      0x20\n      add\n      dup3\n      dup1\n      sload\n      tag_115\n      swap1\n      tag_99\n      jump\t// in\n    tag_115:\n      dup1\n      iszero\n      tag_116\n      jumpi\n      dup1\n      0x1f\n      lt\n      tag_117\n      jumpi\n      0x0100\n      dup1\n      dup4\n      sload\n      div\n      mul\n      dup4\n      mstore\n      swap2\n      0x20\n      add\n      swap2\n      jump(tag_116)\n    tag_117:\n      dup3\n      add\n      swap2\n      swap1\n      0x00\n      mstore\n      keccak256(0x00, 0x20)\n      swap1\n    tag_118:\n      dup2\n      sload\n      dup2\n      mstore\n      swap1\n      0x01\n      add\n      swap1\n      0x20\n      add\n      dup1\n      dup4\n      gt\n      tag_118\n      jumpi\n      dup3\n      swap1\n      sub\n      0x1f\n      and\n      dup3\n      add\n      swap2\n    tag_116:\n      pop\n      pop\n      pop\n      pop\n      pop\n      dup2\n      mstore\n      0x20\n      add\n      0x05\n      dup3\n      add\n      dup1\n      sload\n      tag_119\n      swap1\n      tag_99\n      jump\t// in\n    tag_119:\n      dup1\n      0x1f\n      add\n      0x20\n      dup1\n      swap2\n      div\n      mul\n      0x20\n      add\n      mload(0x40)\n      swap1\n      dup2\n      add\n      0x40\n      mstore\n      dup1\n      swap3\n      swap2\n      swap1\n      dup2\n      dup2\n      mstore\n      0x20\n      add\n      dup3\n      dup1\n      sload\n      tag_120\n      swap1\n      tag_99\n      jump\t// in\n    tag_120:\n      dup1\n      iszero\n      tag_121\n      jumpi\n      dup1\n      0x1f\n      lt\n      tag_122\n      jumpi\n      0x0100\n      dup1\n      dup4\n      sload\n      div\n      mul\n      dup4\n      mstore\n      swap2\n      0x20\n      add\n      swap2\n      jump(tag_121)\n    tag_122:\n      dup3\n      add\n      swap2\n      swap1\n      0x00\n      mstore\n      keccak256(0x00, 0x20)\n      swap1\n    tag_123:\n      dup2\n      sload\n      dup2\n      mstore\n      swap1\n      0x01\n      add\n      swap1\n      0x20\n      add\n      dup1\n      dup4\n      gt\n      tag_123\n      jumpi\n      dup3\n      swap1\n      sub\n      0x1f\n      and\n      dup3\n      add\n      swap2\n    tag_121:\n      pop\n      pop\n      pop\n      pop\n      pop\n      dup2\n      mstore\n      0x20\n      add\n      0x06\n      dup3\n      add\n      dup1\n      sload\n      tag_124\n      swap1\n      tag_99\n      jump\t// in\n    tag_124:\n      dup1\n      0x1f\n      add\n      0x20\n      dup1\n      swap2\n      div\n      mul\n      0x20\n      add\n      mload(0x40)\n      swap1\n      dup2\n      add\n      0x40\n      mstore\n      dup1\n      swap3\n      swap2\n      swap1\n      dup2\n      dup2\n      mstore\n      0x20\n      add\n      dup3\n      dup1\n      sload\n      tag_125\n      swap1\n      tag_99\n      jump\t// in\n    tag_125:\n      dup1\n      iszero\n      tag_126\n      jumpi\n      dup1\n      0x1f\n      lt\n      tag_127\n      jumpi\n      0x0100\n      dup1\n      dup4\n      sload\n      div\n      mul\n      dup4\n      mstore\n      swap2\n      0x20\n      add\n      swap2\n      jump(tag_126)\n    tag_127:\n      dup3\n      add\n      swap2\n      swap1\n      0x00\n      mstore\n      keccak256(0x00, 0x20)\n      swap1\n    tag_128:\n      dup2\n      sload\n      dup2\n      mstore\n      swap1\n      0x01\n      add\n      swap1\n      0x20\n      add\n      dup1\n      dup4\n      gt\n      tag_128\n      jumpi\n      dup3\n      swap1\n      sub\n      0x1f\n      and\n      dup3\n      add\n      swap2\n    tag_126:\n      pop\n      pop\n      pop\n      pop\n      pop\n      dup2\n      mstore\n      0x20\n      add\n      0x07\n      dup3\n      add\n      sload\n      dup2\n      mstore\n      pop\n      pop\n      swap1\n      dup1\n      0x08\n      add\n      mload(0x40)\n      dup1\n      0xc0\n      add\n      0x40\n      mstore\n      swap1\n      dup2\n      0x00\n      dup3\n      add\n      dup1\n      sload\n      tag_129\n      swap1\n      tag_99\n      jump\t// in\n    tag_129:\n      dup1\n      0x1f\n      add\n      0x20\n      dup1\n      swap2\n      div\n      mul\n      0x20\n      add\n      mload(0x40)\n      swap1\n      dup2\n      add\n      0x40\n      mstore\n      dup1\n      swap3\n      swap2\n      swap1\n      dup2\n      dup2\n      mstore\n      0x20\n      add\n      dup3\n      dup1\n      sload\n      tag_130\n      swap1\n      tag_99\n      jump\t// in\n    tag_130:\n      dup1\n      iszero\n      tag_131\n      jumpi\n      dup1\n      0x1f\n      lt\n      tag_132\n      jumpi\n      0x0100\n      dup1\n      dup4\n      sload\n      div\n      mul\n      dup4\n      mstore\n      swap2\n      0x20\n      add\n      swap2\n      jump(tag_131)\n    tag_132:\n      dup3\n      add\n      swap2\n      swap1\n      0x00\n      mstore\n      keccak256(0x00, 0x20)\n      swap1\n    tag_133:\n      dup2\n      sload\n      dup2\n      mstore\n      swap1\n      0x01\n      add\n      swap1\n      0x20\n      add\n      dup1\n      dup4\n      gt\n      tag_133\n      jumpi\n      dup3\n      swap1\n      sub\n      0x1f\n      and\n      dup3\n      add\n      swap2\n    tag_131:\n      pop\n      pop\n      pop\n      pop\n      pop\n      dup2\n      mstore\n      0x20\n      add\n      0x01\n      dup3\n      add\n      dup1\n      sload\n      tag_134\n      swap1\n      tag_99\n      jump\t// in\n    tag_134:\n      dup1\n      0x1f\n      add\n      0x20\n      dup1\n      swap2\n      div\n      mul\n      0x20\n      add\n      mload(0x40)\n      swap1\n      dup2\n      add\n      0x40\n      mstore\n      dup1\n      swap3\n      swap2\n      swap1\n      dup2\n      dup2\n      mstore\n      0x20\n      add\n      dup3\n      dup1\n      sload\n      tag_135\n      swap1\n      tag_99\n      jump\t// in\n    tag_135:\n      dup1\n      iszero\n      tag_136\n      jumpi\n      dup1\n      0x1f\n      lt\n      tag_137\n      jumpi\n      0x0100\n      dup1\n      dup4\n      sload\n      div\n      mul\n      dup4\n      mstore\n      swap2\n      0x20\n      add\n      swap2\n      jump(tag_136)\n    tag_137:\n      dup3\n      add\n      swap2\n      swap1\n      0x00\n      mstore\n      keccak256(0x00, 0x20)\n      swap1\n    tag_138:\n      dup2\n      sload\n      dup2\n      mstore\n      swap1\n      0x01\n      add\n      swap1\n      0x20\n      add\n      dup1\n      dup4\n      gt\n      tag_138\n      jumpi\n      dup3\n      swap1\n      sub\n      0x1f\n      and\n      dup3\n      add\n      swap2\n    tag_136:\n      pop\n      pop\n      pop\n      pop\n      pop\n      dup2\n      mstore\n      0x20\n      add\n      0x02\n      dup3\n      add\n      dup1\n      sload\n      tag_139\n      swap1\n      tag_99\n      jump\t// in\n    tag_139:\n      dup1\n      0x1f\n      add\n      0x20\n      dup1\n      swap2\n      div\n      mul\n      0x20\n      add\n      mload(0x40)\n      swap1\n      dup2\n      add\n      0x40\n      mstore\n      dup1\n      swap3\n      swap2\n      swap1\n      dup2\n      dup2\n      mstore\n      0x20\n      add\n      dup3\n      dup1\n      sload\n      tag_140\n      swap1\n      tag_99\n      jump\t// in\n    tag_140:\n      dup1\n      iszero\n      tag_141\n      jumpi\n      dup1\n      0x1f\n      lt\n      tag_142\n      jumpi\n      0x0100\n      dup1\n      dup4\n      sload\n      div\n      mul\n      dup4\n      mstore\n      swap2\n      0x20\n      add\n      swap2\n      jump(tag_141)\n    tag_142:\n      dup3\n      add\n      swap2\n      swap1\n      0x00\n      mstore\n      keccak256(0x00, 0x20)\n      swap1\n    tag_143:\n      dup2\n      sload\n      dup2\n      mstore\n      swap1\n      0x01\n      add\n      swap1\n      0x20\n      add\n      dup1\n      dup4\n      gt\n      tag_143\n      jumpi\n      dup3\n      swap1\n      sub\n      0x1f\n      and\n      dup3\n      add\n      swap2\n    tag_141:\n      pop\n      pop\n      pop\n      pop\n      pop\n      dup2\n      mstore\n      0x20\n      add\n      0x03\n      dup3\n      add\n      dup1\n      sload\n      tag_144\n      swap1\n      tag_99\n      jump\t// in\n    tag_144:\n      dup1\n      0x1f\n      add\n      0x20\n      dup1\n      swap2\n      div\n      mul\n      0x20\n      add\n      mload(0x40)\n      swap1\n      dup2\n      add\n      0x40\n      mstore\n      dup1\n      swap3\n      swap2\n      swap1\n      dup2\n      dup2\n      mstore\n      0x20\n      add\n      dup3\n      dup1\n      sload\n      tag_145\n      swap1\n      tag_99\n      jump\t// in\n    tag_145:\n      dup1\n      iszero\n      tag_146\n      jumpi\n      dup1\n      0x1f\n      lt\n      tag_147\n      jumpi\n      0x0100\n      dup1\n      dup4\n      sload\n      div\n      mul\n      dup4\n      mstore\n      swap2\n      0x20\n      add\n      swap2\n      jump(tag_146)\n    tag_147:\n      dup3\n      add\n      swap2\n      swap1\n      0x00\n      mstore\n      keccak256(0x00, 0x20)\n      swap1\n    tag_148:\n      dup2\n      sload\n      dup2\n      mstore\n      swap1\n      0x01\n      add\n      swap1\n      0x20\n      add\n      dup1\n      dup4\n      gt\n      tag_148\n      jumpi\n      dup3\n      swap1\n      sub\n      0x1f\n      and\n      dup3\n      add\n      swap2\n    tag_146:\n      pop\n      pop\n      pop\n      pop\n      pop\n      dup2\n      mstore\n      0x20\n      add\n      0x04\n      dup3\n      add\n      dup1\n      sload\n      tag_149\n      swap1\n      tag_99\n      jump\t// in\n    tag_149:\n      dup1\n      0x1f\n      add\n      0x20\n      dup1\n      swap2\n      div\n      mul\n      0x20\n      add\n      mload(0x40)\n      swap1\n      dup2\n      add\n      0x40\n      mstore\n      dup1\n      swap3\n      swap2\n      swap1\n      dup2\n      dup2\n      mstore\n      0x20\n      add\n      dup3\n      dup1\n      sload\n      tag_150\n      swap1\n      tag_99\n      jump\t// in\n    tag_150:\n      dup1\n      iszero\n      tag_151\n      jumpi\n      dup1\n      0x1f\n      lt\n      tag_152\n      jumpi\n      0x0100\n      dup1\n      dup4\n      sload\n      div\n      mul\n      dup4\n      mstore\n      swap2\n      0x20\n      add\n      swap2\n      jump(tag_151)\n    tag_152:\n      dup3\n      add\n      swap2\n      swap1\n      0x00\n      mstore\n      keccak256(0x00, 0x20)\n      swap1\n    tag_153:\n      dup2\n      sload\n      dup2\n      mstore\n      swap1\n      0x01\n      add\n      swap1\n      0x20\n      add\n      dup1\n      dup4\n      gt\n      tag_153\n      jumpi\n      dup3\n      swap1\n      sub\n      0x1f\n      and\n      dup3\n      add\n      swap2\n    tag_151:\n      pop\n      pop\n      pop\n      pop\n      pop\n      dup2\n      mstore\n      0x20\n      add\n      0x05\n      dup3\n      add\n      dup1\n      sload\n      tag_154\n      swap1\n      tag_99\n      jump\t// in\n    tag_154:\n      dup1\n      0x1f\n      add\n      0x20\n      dup1\n      swap2\n      div\n      mul\n      0x20\n      add\n      mload(0x40)\n      swap1\n      dup2\n      add\n      0x40\n      mstore\n      dup1\n      swap3\n      swap2\n      swap1\n      dup2\n      dup2\n      mstore\n      0x20\n      add\n      dup3\n      dup1\n      sload\n      tag_155\n      swap1\n      tag_99\n      jump\t// in\n    tag_155:\n      dup1\n      iszero\n      tag_156\n      jumpi\n      dup1\n      0x1f\n      lt\n      tag_157\n      jumpi\n      0x0100\n      dup1\n      dup4\n      sload\n      div\n      mul\n      dup4\n      mstore\n      swap2\n      0x20\n      add\n      swap2\n      jump(tag_156)\n    tag_157:\n      dup3\n      add\n      swap2\n      swap1\n      0x00\n      mstore\n      keccak256(0x00, 0x20)\n      swap1\n    tag_158:\n      dup2\n      sload\n      dup2\n      mstore\n      swap1\n      0x01\n      add\n      swap1\n      0x20\n      add\n      dup1\n      dup4\n      gt\n      tag_158\n      jumpi\n      dup3\n      swap1\n      sub\n      0x1f\n      and\n      dup3\n      add\n      swap2\n    tag_156:\n      pop\n      pop\n      pop\n      pop\n      pop\n      dup2\n      mstore\n      pop\n      pop\n      swap1\n      dup1\n      0x0e\n      add\n      mload(0x40)\n      dup1\n      0x60\n      add\n      0x40\n      mstore\n      swap1\n      dup2\n      0x00\n      dup3\n      add\n      dup1\n      sload\n      dup1\n      0x20\n      mul\n      0x20\n      add\n      mload(0x40)\n      swap1\n      dup2\n      add\n      0x40\n      mstore\n      dup1\n      swap3\n      swap2\n      swap1\n      dup2\n      dup2\n      mstore\n      0x20\n      add\n      0x00\n      swap1\n    tag_159:\n      dup3\n      dup3\n      lt\n      iszero\n      tag_160\n      jumpi\n      dup4\n      dup3\n      swap1\n      0x00\n      mstore\n      keccak256(0x00, 0x20)\n      add\n      dup1\n      sload\n      tag_162\n      swap1\n      tag_99\n      jump\t// in\n    tag_162:\n      dup1\n      0x1f\n      add\n      0x20\n      dup1\n      swap2\n      div\n      mul\n      0x20\n      add\n      mload(0x40)\n      swap1\n      dup2\n      add\n      0x40\n      mstore\n      dup1\n      swap3\n      swap2\n      swap1\n      dup2\n      dup2\n      mstore\n      0x20\n      add\n      dup3\n      dup1\n      sload\n      tag_163\n      swap1\n      tag_99\n      jump\t// in\n    tag_163:\n      dup1\n      iszero\n      tag_164\n      jumpi\n      dup1\n      0x1f\n      lt\n      tag_165\n      jumpi\n      0x0100\n      dup1\n      dup4\n      sload\n      div\n      mul\n      dup4\n      mstore\n      swap2\n      0x20\n      add\n      swap2\n      jump(tag_164)\n    tag_165:\n      dup3\n      add\n      swap2\n      swap1\n      0x00\n      mstore\n      keccak256(0x00, 0x20)\n      swap1\n    tag_166:\n      dup2\n      sload\n      dup2\n      mstore\n      swap1\n      0x01\n      add\n      swap1\n      0x20\n      add\n      dup1\n      dup4\n      gt\n      tag_166\n      jumpi\n      dup3\n      swap1\n      sub\n      0x1f\n      and\n      dup3\n      add\n      swap2\n    tag_164:\n      pop\n      pop\n      pop\n      pop\n      pop\n      dup2\n      mstore\n      0x20\n      add\n      swap1\n      0x01\n      add\n      swap1\n      jump(tag_159)\n    tag_160:\n      pop\n      pop\n      pop\n      pop\n      dup2\n      mstore\n      0x20\n      add\n      0x01\n      dup3\n      add\n      dup1\n      sload\n      dup1\n      0x20\n      mul\n      0x20\n      add\n      mload(0x40)\n      swap1\n      dup2\n      add\n      0x40\n      mstore\n      dup1\n      swap3\n      swap2\n      swap1\n      dup2\n      dup2\n      mstore\n      0x20\n      add\n      0x00\n      swap1\n    tag_167:\n      dup3\n      dup3\n      lt\n      iszero\n      tag_168\n      jumpi\n      dup4\n      dup3\n      swap1\n      0x00\n      mstore\n      keccak256(0x00, 0x20)\n      add\n      dup1\n      sload\n      tag_170\n      swap1\n      tag_99\n      jump\t// in\n    tag_170:\n      dup1\n      0x1f\n      add\n      0x20\n      dup1\n      swap2\n      div\n      mul\n      0x20\n      add\n      mload(0x40)\n      swap1\n      dup2\n      add\n      0x40\n      mstore\n      dup1\n      swap3\n      swap2\n      swap1\n      dup2\n      dup2\n      mstore\n      0x20\n      add\n      dup3\n      dup1\n      sload\n      tag_171\n      swap1\n      tag_99\n      jump\t// in\n    tag_171:\n      dup1\n      iszero\n      tag_172\n      jumpi\n      dup1\n      0x1f\n      lt\n      tag_173\n      jumpi\n      0x0100\n      dup1\n      dup4\n      sload\n      div\n      mul\n      dup4\n      mstore\n      swap2\n      0x20\n      add\n      swap2\n      jump(tag_172)\n    tag_173:\n      dup3\n      add\n      swap2\n      swap1\n      0x00\n      mstore\n      keccak256(0x00, 0x20)\n      swap1\n    tag_174:\n      dup2\n      sload\n      dup2\n      mstore\n      swap1\n      0x01\n      add\n      swap1\n      0x20\n      add\n      dup1\n      dup4\n      gt\n      tag_174\n      jumpi\n      dup3\n      swap1\n      sub\n      0x1f\n      and\n      dup3\n      add\n      swap2\n    tag_172:\n      pop\n      pop\n      pop\n      pop\n      pop\n      dup2\n      mstore\n      0x20\n      add\n      swap1\n      0x01\n      add\n      swap1\n      jump(tag_167)\n    tag_168:\n      pop\n      pop\n      pop\n      pop\n      dup2\n      mstore\n      0x20\n      add\n      0x02\n      dup3\n      add\n      dup1\n      sload\n      dup1\n      0x20\n      mul\n      0x20\n      add\n      mload(0x40)\n      swap1\n      dup2\n      add\n      0x40\n      mstore\n      dup1\n      swap3\n      swap2\n      swap1\n      dup2\n      dup2\n      mstore\n      0x20\n      add\n      0x00\n      swap1\n    tag_175:\n      dup3\n      dup3\n      lt\n      iszero\n      tag_176\n      jumpi\n      dup4\n      dup3\n      swap1\n      0x00\n      mstore\n      keccak256(0x00, 0x20)\n      add\n      dup1\n      sload\n      tag_178\n      swap1\n      tag_99\n      jump\t// in\n    tag_178:\n      dup1\n      0x1f\n      add\n      0x20\n      dup1\n      swap2\n      div\n      mul\n      0x20\n      add\n      mload(0x40)\n      swap1\n      dup2\n      add\n      0x40\n      mstore\n      dup1\n      swap3\n      swap2\n      swap1\n      dup2\n      dup2\n      mstore\n      0x20\n      add\n      dup3\n      dup1\n      sload\n      tag_179\n      swap1\n      tag_99\n      jump\t// in\n    tag_179:\n      dup1\n      iszero\n      tag_180\n      jumpi\n      dup1\n      0x1f\n      lt\n      tag_181\n      jumpi\n      0x0100\n      dup1\n      dup4\n      sload\n      div\n      mul\n      dup4\n      mstore\n      swap2\n      0x20\n      add\n      swap2\n      jump(tag_180)\n    tag_181:\n      dup3\n      add\n      swap2\n      swap1\n      0x00\n      mstore\n      keccak256(0x00, 0x20)\n      swap1\n    tag_182:\n      dup2\n      sload\n      dup2\n      mstore\n      swap1\n      0x01\n      add\n      swap1\n      0x20\n      add\n      dup1\n      dup4\n      gt\n      tag_182\n      jumpi\n      dup3\n      swap1\n      sub\n      0x1f\n      and\n      dup3\n      add\n      swap2\n    tag_180:\n      pop\n      pop\n      pop\n      pop\n      pop\n      dup2\n      mstore\n      0x20\n      add\n      swap1\n      0x01\n      add\n      swap1\n      jump(tag_175)\n    tag_176:\n      pop\n      pop\n      pop\n      pop\n      dup2\n      mstore\n      pop\n      pop\n      swap1\n      pop\n      dup4\n      jump\t// out\n        /* \"contracts/Profile.sol\":3756:3848  function delAllEducation() external  {\r... */\n    tag_43:\n        /* \"contracts/Profile.sol\":3811:3818  profile */\n      0x00\n        /* \"contracts/Profile.sol\":3811:3830  profile[msg.sender] */\n      dup1\n        /* \"contracts/Profile.sol\":3819:3829  msg.sender */\n      caller\n        /* \"contracts/Profile.sol\":3811:3830  profile[msg.sender] */\n      0xffffffffffffffffffffffffffffffffffffffff\n      and\n      0xffffffffffffffffffffffffffffffffffffffff\n      and\n      dup2\n      mstore\n      0x20\n      add\n      swap1\n      dup2\n      mstore\n      0x20\n      add\n      0x00\n      keccak256\n        /* \"contracts/Profile.sol\":3811:3840  profile[msg.sender].education */\n      0x11\n      add\n      0x00\n        /* \"contracts/Profile.sol\":3804:3840  delete profile[msg.sender].education */\n      tag_184\n      swap2\n      swap1\n      tag_185\n      jump\t// in\n    tag_184:\n        /* \"contracts/Profile.sol\":3756:3848  function delAllEducation() external  {\r... */\n      jump\t// out\n        /* \"contracts/Profile.sol\":3291:3618  function getEducation(uint index) public view returns(string memory, string memory, string memory, string memory) {\r... */\n    tag_47:\n        /* \"contracts/Profile.sol\":3345:3358  string memory */\n      0x60\n        /* \"contracts/Profile.sol\":3360:3373  string memory */\n      dup1\n        /* \"contracts/Profile.sol\":3375:3388  string memory */\n      0x60\n        /* \"contracts/Profile.sol\":3390:3403  string memory */\n      dup1\n        /* \"contracts/Profile.sol\":3424:3431  profile */\n      0x00\n        /* \"contracts/Profile.sol\":3424:3443  profile[msg.sender] */\n      dup1\n        /* \"contracts/Profile.sol\":3432:3442  msg.sender */\n      caller\n        /* \"contracts/Profile.sol\":3424:3443  profile[msg.sender] */\n      0xffffffffffffffffffffffffffffffffffffffff\n      and\n      0xffffffffffffffffffffffffffffffffffffffff\n      and\n      dup2\n      mstore\n      0x20\n      add\n      swap1\n      dup2\n      mstore\n      0x20\n      add\n      0x00\n      keccak256\n        /* \"contracts/Profile.sol\":3424:3453  profile[msg.sender].education */\n      0x11\n      add\n        /* \"contracts/Profile.sol\":3454:3459  index */\n      dup6\n        /* \"contracts/Profile.sol\":3424:3460  profile[msg.sender].education[index] */\n      dup2\n      sload\n      dup2\n      lt\n      tag_187\n      jumpi\n      tag_188\n      tag_189\n      jump\t// in\n    tag_188:\n    tag_187:\n      swap1\n      0x00\n      mstore\n      keccak256(0x00, 0x20)\n      swap1\n      0x04\n      mul\n      add\n        /* \"contracts/Profile.sol\":3424:3470  profile[msg.sender].education[index].startDate */\n      0x00\n      add\n        /* \"contracts/Profile.sol\":3472:3479  profile */\n      0x00\n        /* \"contracts/Profile.sol\":3472:3491  profile[msg.sender] */\n      dup1\n        /* \"contracts/Profile.sol\":3480:3490  msg.sender */\n      caller\n        /* \"contracts/Profile.sol\":3472:3491  profile[msg.sender] */\n      0xffffffffffffffffffffffffffffffffffffffff\n      and\n      0xffffffffffffffffffffffffffffffffffffffff\n      and\n      dup2\n      mstore\n      0x20\n      add\n      swap1\n      dup2\n      mstore\n      0x20\n      add\n      0x00\n      keccak256\n        /* \"contracts/Profile.sol\":3472:3501  profile[msg.sender].education */\n      0x11\n      add\n        /* \"contracts/Profile.sol\":3502:3507  index */\n      dup7\n        /* \"contracts/Profile.sol\":3472:3508  profile[msg.sender].education[index] */\n      dup2\n      sload\n      dup2\n      lt\n      tag_191\n      jumpi\n      tag_192\n      tag_189\n      jump\t// in\n    tag_192:\n    tag_191:\n      swap1\n      0x00\n      mstore\n      keccak256(0x00, 0x20)\n      swap1\n      0x04\n      mul\n      add\n        /* \"contracts/Profile.sol\":3472:3516  profile[msg.sender].education[index].endDate */\n      0x01\n      add\n        /* \"contracts/Profile.sol\":3518:3525  profile */\n      0x00\n        /* \"contracts/Profile.sol\":3518:3537  profile[msg.sender] */\n      dup1\n        /* \"contracts/Profile.sol\":3526:3536  msg.sender */\n      caller\n        /* \"contracts/Profile.sol\":3518:3537  profile[msg.sender] */\n      0xffffffffffffffffffffffffffffffffffffffff\n      and\n      0xffffffffffffffffffffffffffffffffffffffff\n      and\n      dup2\n      mstore\n      0x20\n      add\n      swap1\n      dup2\n      mstore\n      0x20\n      add\n      0x00\n      keccak256\n        /* \"contracts/Profile.sol\":3518:3547  profile[msg.sender].education */\n      0x11\n      add\n        /* \"contracts/Profile.sol\":3548:3553  index */\n      dup8\n        /* \"contracts/Profile.sol\":3518:3554  profile[msg.sender].education[index] */\n      dup2\n      sload\n      dup2\n      lt\n      tag_194\n      jumpi\n      tag_195\n      tag_189\n      jump\t// in\n    tag_195:\n    tag_194:\n      swap1\n      0x00\n      mstore\n      keccak256(0x00, 0x20)\n      swap1\n      0x04\n      mul\n      add\n        /* \"contracts/Profile.sol\":3518:3565  profile[msg.sender].education[index].univercity */\n      0x02\n      add\n        /* \"contracts/Profile.sol\":3567:3574  profile */\n      0x00\n        /* \"contracts/Profile.sol\":3567:3586  profile[msg.sender] */\n      dup1\n        /* \"contracts/Profile.sol\":3575:3585  msg.sender */\n      caller\n        /* \"contracts/Profile.sol\":3567:3586  profile[msg.sender] */\n      0xffffffffffffffffffffffffffffffffffffffff\n      and\n      0xffffffffffffffffffffffffffffffffffffffff\n      and\n      dup2\n      mstore\n      0x20\n      add\n      swap1\n      dup2\n      mstore\n      0x20\n      add\n      0x00\n      keccak256\n        /* \"contracts/Profile.sol\":3567:3596  profile[msg.sender].education */\n      0x11\n      add\n        /* \"contracts/Profile.sol\":3597:3602  index */\n      dup9\n        /* \"contracts/Profile.sol\":3567:3603  profile[msg.sender].education[index] */\n      dup2\n      sload\n      dup2\n      lt\n      tag_197\n      jumpi\n      tag_198\n      tag_189\n      jump\t// in\n    tag_198:\n    tag_197:\n      swap1\n      0x00\n      mstore\n      keccak256(0x00, 0x20)\n      swap1\n      0x04\n      mul\n      add\n        /* \"contracts/Profile.sol\":3567:3609  profile[msg.sender].education[index].major */\n      0x03\n      add\n        /* \"contracts/Profile.sol\":3416:3610  return (profile[msg.sender].education[index].startDate, profile[msg.sender].education[index].endDate, profile[msg.sender].education[index].univercity, profile[msg.sender].education[index].major) */\n      dup4\n      dup1\n      sload\n      tag_200\n      swap1\n      tag_99\n      jump\t// in\n    tag_200:\n      dup1\n      0x1f\n      add\n      0x20\n      dup1\n      swap2\n      div\n      mul\n      0x20\n      add\n      mload(0x40)\n      swap1\n      dup2\n      add\n      0x40\n      mstore\n      dup1\n      swap3\n      swap2\n      swap1\n      dup2\n      dup2\n      mstore\n      0x20\n      add\n      dup3\n      dup1\n      sload\n      tag_201\n      swap1\n      tag_99\n      jump\t// in\n    tag_201:\n      dup1\n      iszero\n      tag_202\n      jumpi\n      dup1\n      0x1f\n      lt\n      tag_203\n      jumpi\n      0x0100\n      dup1\n      dup4\n      sload\n      div\n      mul\n      dup4\n      mstore\n      swap2\n      0x20\n      add\n      swap2\n      jump(tag_202)\n    tag_203:\n      dup3\n      add\n      swap2\n      swap1\n      0x00\n      mstore\n      keccak256(0x00, 0x20)\n      swap1\n    tag_204:\n      dup2\n      sload\n      dup2\n      mstore\n      swap1\n      0x01\n      add\n      swap1\n      0x20\n      add\n      dup1\n      dup4\n      gt\n      tag_204\n      jumpi\n      dup3\n      swap1\n      sub\n      0x1f\n      and\n      dup3\n      add\n      swap2\n    tag_202:\n      pop\n      pop\n      pop\n      pop\n      pop\n      swap4\n      pop\n      dup3\n      dup1\n      sload\n      tag_205\n      swap1\n      tag_99\n      jump\t// in\n    tag_205:\n      dup1\n      0x1f\n      add\n      0x20\n      dup1\n      swap2\n      div\n      mul\n      0x20\n      add\n      mload(0x40)\n      swap1\n      dup2\n      add\n      0x40\n      mstore\n      dup1\n      swap3\n      swap2\n      swap1\n      dup2\n      dup2\n      mstore\n      0x20\n      add\n      dup3\n      dup1\n      sload\n      tag_206\n      swap1\n      tag_99\n      jump\t// in\n    tag_206:\n      dup1\n      iszero\n      tag_207\n      jumpi\n      dup1\n      0x1f\n      lt\n      tag_208\n      jumpi\n      0x0100\n      dup1\n      dup4\n      sload\n      div\n      mul\n      dup4\n      mstore\n      swap2\n      0x20\n      add\n      swap2\n      jump(tag_207)\n    tag_208:\n      dup3\n      add\n      swap2\n      swap1\n      0x00\n      mstore\n      keccak256(0x00, 0x20)\n      swap1\n    tag_209:\n      dup2\n      sload\n      dup2\n      mstore\n      swap1\n      0x01\n      add\n      swap1\n      0x20\n      add\n      dup1\n      dup4\n      gt\n      tag_209\n      jumpi\n      dup3\n      swap1\n      sub\n      0x1f\n      and\n      dup3\n      add\n      swap2\n    tag_207:\n      pop\n      pop\n      pop\n      pop\n      pop\n      swap3\n      pop\n      dup2\n      dup1\n      sload\n      tag_210\n      swap1\n      tag_99\n      jump\t// in\n    tag_210:\n      dup1\n      0x1f\n      add\n      0x20\n      dup1\n      swap2\n      div\n      mul\n      0x20\n      add\n      mload(0x40)\n      swap1\n      dup2\n      add\n      0x40\n      mstore\n      dup1\n      swap3\n      swap2\n      swap1\n      dup2\n      dup2\n      mstore\n      0x20\n      add\n      dup3\n      dup1\n      sload\n      tag_211\n      swap1\n      tag_99\n      jump\t// in\n    tag_211:\n      dup1\n      iszero\n      tag_212\n      jumpi\n      dup1\n      0x1f\n      lt\n      tag_213\n      jumpi\n      0x0100\n      dup1\n      dup4\n      sload\n      div\n      mul\n      dup4\n      mstore\n      swap2\n      0x20\n      add\n      swap2\n      jump(tag_212)\n    tag_213:\n      dup3\n      add\n      swap2\n      swap1\n      0x00\n      mstore\n      keccak256(0x00, 0x20)\n      swap1\n    tag_214:\n      dup2\n      sload\n      dup2\n      mstore\n      swap1\n      0x01\n      add\n      swap1\n      0x20\n      add\n      dup1\n      dup4\n      gt\n      tag_214\n      jumpi\n      dup3\n      swap1\n      sub\n      0x1f\n      and\n      dup3\n      add\n      swap2\n    tag_212:\n      pop\n      pop\n      pop\n      pop\n      pop\n      swap2\n      pop\n      dup1\n      dup1\n      sload\n      tag_215\n      swap1\n      tag_99\n      jump\t// in\n    tag_215:\n      dup1\n      0x1f\n      add\n      0x20\n      dup1\n      swap2\n      div\n      mul\n      0x20\n      add\n      mload(0x40)\n      swap1\n      dup2\n      add\n      0x40\n      mstore\n      dup1\n      swap3\n      swap2\n      swap1\n      dup2\n      dup2\n      mstore\n      0x20\n      add\n      dup3\n      dup1\n      sload\n      tag_216\n      swap1\n      tag_99\n      jump\t// in\n    tag_216:\n      dup1\n      iszero\n      tag_217\n      jumpi\n      dup1\n      0x1f\n      lt\n      tag_218\n      jumpi\n      0x0100\n      dup1\n      dup4\n      sload\n      div\n      mul\n      dup4\n      mstore\n      swap2\n      0x20\n      add\n      swap2\n      jump(tag_217)\n    tag_218:\n      dup3\n      add\n      swap2\n      swap1\n      0x00\n      mstore\n      keccak256(0x00, 0x20)\n      swap1\n    tag_219:\n      dup2\n      sload\n      dup2\n      mstore\n      swap1\n      0x01\n      add\n      swap1\n      0x20\n      add\n      dup1\n      dup4\n      gt\n      tag_219\n      jumpi\n      dup3\n      swap1\n      sub\n      0x1f\n      and\n      dup3\n      add\n      swap2\n    tag_217:\n      pop\n      pop\n      pop\n      pop\n      pop\n      swap1\n      pop\n      swap4\n      pop\n      swap4\n      pop\n      swap4\n      pop\n      swap4\n      pop\n        /* \"contracts/Profile.sol\":3291:3618  function getEducation(uint index) public view returns(string memory, string memory, string memory, string memory) {\r... */\n      swap2\n      swap4\n      pop\n      swap2\n      swap4\n      jump\t// out\n        /* \"contracts/Profile.sol\":3956:4032  function delProfile() external {\r... */\n    tag_51:\n        /* \"contracts/Profile.sol\":4005:4012  profile */\n      0x00\n        /* \"contracts/Profile.sol\":4005:4024  profile[msg.sender] */\n      dup1\n        /* \"contracts/Profile.sol\":4013:4023  msg.sender */\n      caller\n        /* \"contracts/Profile.sol\":4005:4024  profile[msg.sender] */\n      0xffffffffffffffffffffffffffffffffffffffff\n      and\n      0xffffffffffffffffffffffffffffffffffffffff\n      and\n      dup2\n      mstore\n      0x20\n      add\n      swap1\n      dup2\n      mstore\n      0x20\n      add\n      0x00\n      keccak256\n      0x00\n        /* \"contracts/Profile.sol\":3998:4024  delete profile[msg.sender] */\n      dup1\n      dup3\n      add\n      0x00\n      dup1\n      dup3\n      add\n      0x00\n      tag_221\n      swap2\n      swap1\n      tag_64\n      jump\t// in\n    tag_221:\n      0x01\n      dup3\n      add\n      0x00\n      tag_222\n      swap2\n      swap1\n      tag_64\n      jump\t// in\n    tag_222:\n      0x02\n      dup3\n      add\n      exp(0x0100, 0x00)\n      dup2\n      sload\n      swap1\n      0xffffffffffffffffffffffffffffffffffffffff\n      mul\n      not\n      and\n      swap1\n      sstore\n      0x03\n      dup3\n      add\n      0x00\n      tag_223\n      swap2\n      swap1\n      tag_64\n      jump\t// in\n    tag_223:\n      0x04\n      dup3\n      add\n      0x00\n      tag_224\n      swap2\n      swap1\n      tag_64\n      jump\t// in\n    tag_224:\n      0x05\n      dup3\n      add\n      0x00\n      tag_225\n      swap2\n      swap1\n      tag_64\n      jump\t// in\n    tag_225:\n      0x06\n      dup3\n      add\n      0x00\n      tag_226\n      swap2\n      swap1\n      tag_64\n      jump\t// in\n    tag_226:\n      0x07\n      dup3\n      add\n      0x00\n      swap1\n      sstore\n      pop\n      pop\n      0x08\n      dup3\n      add\n      0x00\n      dup1\n      dup3\n      add\n      0x00\n      tag_227\n      swap2\n      swap1\n      tag_64\n      jump\t// in\n    tag_227:\n      0x01\n      dup3\n      add\n      0x00\n      tag_228\n      swap2\n      swap1\n      tag_64\n      jump\t// in\n    tag_228:\n      0x02\n      dup3\n      add\n      0x00\n      tag_229\n      swap2\n      swap1\n      tag_64\n      jump\t// in\n    tag_229:\n      0x03\n      dup3\n      add\n      0x00\n      tag_230\n      swap2\n      swap1\n      tag_64\n      jump\t// in\n    tag_230:\n      0x04\n      dup3\n      add\n      0x00\n      tag_231\n      swap2\n      swap1\n      tag_64\n      jump\t// in\n    tag_231:\n      0x05\n      dup3\n      add\n      0x00\n      tag_232\n      swap2\n      swap1\n      tag_64\n      jump\t// in\n    tag_232:\n      pop\n      pop\n      0x0e\n      dup3\n      add\n      0x00\n      dup1\n      dup3\n      add\n      0x00\n      tag_233\n      swap2\n      swap1\n      tag_54\n      jump\t// in\n    tag_233:\n      0x01\n      dup3\n      add\n      0x00\n      tag_234\n      swap2\n      swap1\n      tag_54\n      jump\t// in\n    tag_234:\n      0x02\n      dup3\n      add\n      0x00\n      tag_235\n      swap2\n      swap1\n      tag_54\n      jump\t// in\n    tag_235:\n      pop\n      pop\n      0x11\n      dup3\n      add\n      0x00\n      tag_236\n      swap2\n      swap1\n      tag_185\n      jump\t// in\n    tag_236:\n      pop\n      pop\n        /* \"contracts/Profile.sol\":3956:4032  function delProfile() external {\r... */\n      jump\t// out\n    tag_54:\n      pop\n      dup1\n      sload\n      0x00\n      dup3\n      sstore\n      swap1\n      0x00\n      mstore\n      keccak256(0x00, 0x20)\n      swap1\n      dup2\n      add\n      swap1\n      tag_238\n      swap2\n      swap1\n      tag_239\n      jump\t// in\n    tag_238:\n      pop\n      jump\t// out\n    tag_58:\n      dup3\n      dup1\n      sload\n      dup3\n      dup3\n      sstore\n      swap1\n      0x00\n      mstore\n      keccak256(0x00, 0x20)\n      swap1\n      dup2\n      add\n      swap3\n      dup3\n      iszero\n      tag_240\n      jumpi\n      swap2\n      0x20\n      mul\n      dup3\n      add\n    tag_241:\n      dup3\n      dup2\n      gt\n      iszero\n      tag_242\n      jumpi\n      dup3\n      mload\n      dup3\n      swap1\n      dup1\n      mload\n      swap1\n      0x20\n      add\n      swap1\n      tag_243\n      swap3\n      swap2\n      swap1\n      tag_71\n      jump\t// in\n    tag_243:\n      pop\n      swap2\n      0x20\n      add\n      swap2\n      swap1\n      0x01\n      add\n      swap1\n      jump(tag_241)\n    tag_242:\n    tag_240:\n      pop\n      swap1\n      pop\n      tag_244\n      swap2\n      swap1\n      tag_239\n      jump\t// in\n    tag_244:\n      pop\n      swap1\n      jump\t// out\n    tag_64:\n      pop\n      dup1\n      sload\n      tag_245\n      swap1\n      tag_99\n      jump\t// in\n    tag_245:\n      0x00\n      dup3\n      sstore\n      dup1\n      0x1f\n      lt\n      tag_247\n      jumpi\n      pop\n      jump(tag_246)\n    tag_247:\n      0x1f\n      add\n      0x20\n      swap1\n      div\n      swap1\n      0x00\n      mstore\n      keccak256(0x00, 0x20)\n      swap1\n      dup2\n      add\n      swap1\n      tag_248\n      swap2\n      swap1\n      tag_249\n      jump\t// in\n    tag_248:\n    tag_246:\n      pop\n      jump\t// out\n    tag_71:\n      dup3\n      dup1\n      sload\n      tag_250\n      swap1\n      tag_99\n      jump\t// in\n    tag_250:\n      swap1\n      0x00\n      mstore\n      keccak256(0x00, 0x20)\n      swap1\n      0x1f\n      add\n      0x20\n      swap1\n      div\n      dup2\n      add\n      swap3\n      dup3\n      tag_252\n      jumpi\n      0x00\n      dup6\n      sstore\n      jump(tag_251)\n    tag_252:\n      dup3\n      0x1f\n      lt\n      tag_253\n      jumpi\n      dup1\n      mload\n      not(0xff)\n      and\n      dup4\n      dup1\n      add\n      or\n      dup6\n      sstore\n      jump(tag_251)\n    tag_253:\n      dup3\n      dup1\n      add\n      0x01\n      add\n      dup6\n      sstore\n      dup3\n      iszero\n      tag_251\n      jumpi\n      swap2\n      dup3\n      add\n    tag_254:\n      dup3\n      dup2\n      gt\n      iszero\n      tag_255\n      jumpi\n      dup3\n      mload\n      dup3\n      sstore\n      swap2\n      0x20\n      add\n      swap2\n      swap1\n      0x01\n      add\n      swap1\n      jump(tag_254)\n    tag_255:\n    tag_251:\n      pop\n      swap1\n      pop\n      tag_256\n      swap2\n      swap1\n      tag_249\n      jump\t// in\n    tag_256:\n      pop\n      swap1\n      jump\t// out\n    tag_92:\n      mload(0x40)\n      dup1\n      0x80\n      add\n      0x40\n      mstore\n      dup1\n      0x60\n      dup2\n      mstore\n      0x20\n      add\n      0x60\n      dup2\n      mstore\n      0x20\n      add\n      0x60\n      dup2\n      mstore\n      0x20\n      add\n      0x60\n      dup2\n      mstore\n      pop\n      swap1\n      jump\t// out\n    tag_185:\n      pop\n      dup1\n      sload\n      0x00\n      dup3\n      sstore\n      0x04\n      mul\n      swap1\n      0x00\n      mstore\n      keccak256(0x00, 0x20)\n      swap1\n      dup2\n      add\n      swap1\n      tag_258\n      swap2\n      swap1\n      tag_259\n      jump\t// in\n    tag_258:\n      pop\n      jump\t// out\n    tag_239:\n    tag_260:\n      dup1\n      dup3\n      gt\n      iszero\n      tag_261\n      jumpi\n      0x00\n      dup2\n      dup2\n      tag_262\n      swap2\n      swap1\n      tag_64\n      jump\t// in\n    tag_262:\n      pop\n      0x01\n      add\n      jump(tag_260)\n    tag_261:\n      pop\n      swap1\n      jump\t// out\n    tag_249:\n    tag_263:\n      dup1\n      dup3\n      gt\n      iszero\n      tag_264\n      jumpi\n      0x00\n      dup2\n      0x00\n      swap1\n      sstore\n      pop\n      0x01\n      add\n      jump(tag_263)\n    tag_264:\n      pop\n      swap1\n      jump\t// out\n    tag_259:\n    tag_265:\n      dup1\n      dup3\n      gt\n      iszero\n      tag_266\n      jumpi\n      0x00\n      dup1\n      dup3\n      add\n      0x00\n      tag_267\n      swap2\n      swap1\n      tag_64\n      jump\t// in\n    tag_267:\n      0x01\n      dup3\n      add\n      0x00\n      tag_268\n      swap2\n      swap1\n      tag_64\n      jump\t// in\n    tag_268:\n      0x02\n      dup3\n      add\n      0x00\n      tag_269\n      swap2\n      swap1\n      tag_64\n      jump\t// in\n    tag_269:\n      0x03\n      dup3\n      add\n      0x00\n      tag_270\n      swap2\n      swap1\n      tag_64\n      jump\t// in\n    tag_270:\n      pop\n      0x04\n      add\n      jump(tag_265)\n    tag_266:\n      pop\n      swap1\n      jump\t// out\n        /* \"#utility.yul\":23:980   */\n    tag_272:\n        /* \"#utility.yul\":129:134   */\n      0x00\n        /* \"#utility.yul\":154:245   */\n      tag_274\n        /* \"#utility.yul\":170:244   */\n      tag_275\n        /* \"#utility.yul\":237:243   */\n      dup5\n        /* \"#utility.yul\":170:244   */\n      tag_276\n      jump\t// in\n    tag_275:\n        /* \"#utility.yul\":154:245   */\n      tag_277\n      jump\t// in\n    tag_274:\n        /* \"#utility.yul\":145:245   */\n      swap1\n      pop\n        /* \"#utility.yul\":265:270   */\n      dup1\n        /* \"#utility.yul\":294:300   */\n      dup4\n        /* \"#utility.yul\":287:292   */\n      dup3\n        /* \"#utility.yul\":280:301   */\n      mstore\n        /* \"#utility.yul\":328:332   */\n      0x20\n        /* \"#utility.yul\":321:326   */\n      dup3\n        /* \"#utility.yul\":317:333   */\n      add\n        /* \"#utility.yul\":310:333   */\n      swap1\n      pop\n        /* \"#utility.yul\":354:360   */\n      dup3\n        /* \"#utility.yul\":404:407   */\n      dup6\n        /* \"#utility.yul\":396:400   */\n      0x20\n        /* \"#utility.yul\":388:394   */\n      dup7\n        /* \"#utility.yul\":384:401   */\n      mul\n        /* \"#utility.yul\":379:382   */\n      dup3\n        /* \"#utility.yul\":375:402   */\n      add\n        /* \"#utility.yul\":372:408   */\n      gt\n        /* \"#utility.yul\":369:512   */\n      iszero\n      tag_278\n      jumpi\n        /* \"#utility.yul\":423:502   */\n      tag_279\n      tag_280\n      jump\t// in\n    tag_279:\n        /* \"#utility.yul\":369:512   */\n    tag_278:\n        /* \"#utility.yul\":536:537   */\n      0x00\n        /* \"#utility.yul\":521:974   */\n    tag_281:\n        /* \"#utility.yul\":546:552   */\n      dup6\n        /* \"#utility.yul\":543:544   */\n      dup2\n        /* \"#utility.yul\":540:553   */\n      lt\n        /* \"#utility.yul\":521:974   */\n      iszero\n      tag_283\n      jumpi\n        /* \"#utility.yul\":628:631   */\n      dup2\n        /* \"#utility.yul\":615:632   */\n      calldataload\n        /* \"#utility.yul\":664:682   */\n      0xffffffffffffffff\n        /* \"#utility.yul\":651:662   */\n      dup2\n        /* \"#utility.yul\":648:683   */\n      gt\n        /* \"#utility.yul\":645:767   */\n      iszero\n      tag_284\n      jumpi\n        /* \"#utility.yul\":686:765   */\n      tag_285\n      tag_286\n      jump\t// in\n    tag_285:\n        /* \"#utility.yul\":645:767   */\n    tag_284:\n        /* \"#utility.yul\":810:821   */\n      dup1\n        /* \"#utility.yul\":802:808   */\n      dup7\n        /* \"#utility.yul\":798:822   */\n      add\n        /* \"#utility.yul\":848:895   */\n      tag_287\n        /* \"#utility.yul\":891:894   */\n      dup10\n        /* \"#utility.yul\":879:889   */\n      dup3\n        /* \"#utility.yul\":848:895   */\n      tag_288\n      jump\t// in\n    tag_287:\n        /* \"#utility.yul\":843:846   */\n      dup6\n        /* \"#utility.yul\":836:896   */\n      mstore\n        /* \"#utility.yul\":925:929   */\n      0x20\n        /* \"#utility.yul\":920:923   */\n      dup6\n        /* \"#utility.yul\":916:930   */\n      add\n        /* \"#utility.yul\":909:930   */\n      swap5\n      pop\n        /* \"#utility.yul\":959:963   */\n      0x20\n        /* \"#utility.yul\":954:957   */\n      dup5\n        /* \"#utility.yul\":950:964   */\n      add\n        /* \"#utility.yul\":943:964   */\n      swap4\n      pop\n        /* \"#utility.yul\":581:974   */\n      pop\n      pop\n        /* \"#utility.yul\":568:569   */\n      0x01\n        /* \"#utility.yul\":565:566   */\n      dup2\n        /* \"#utility.yul\":561:570   */\n      add\n        /* \"#utility.yul\":556:570   */\n      swap1\n      pop\n        /* \"#utility.yul\":521:974   */\n      jump(tag_281)\n    tag_283:\n        /* \"#utility.yul\":525:539   */\n      pop\n        /* \"#utility.yul\":135:980   */\n      pop\n      pop\n        /* \"#utility.yul\":23:980   */\n      swap4\n      swap3\n      pop\n      pop\n      pop\n      jump\t// out\n        /* \"#utility.yul\":986:1398   */\n    tag_289:\n        /* \"#utility.yul\":1064:1069   */\n      0x00\n        /* \"#utility.yul\":1089:1155   */\n      tag_291\n        /* \"#utility.yul\":1105:1154   */\n      tag_292\n        /* \"#utility.yul\":1147:1153   */\n      dup5\n        /* \"#utility.yul\":1105:1154   */\n      tag_293\n      jump\t// in\n    tag_292:\n        /* \"#utility.yul\":1089:1155   */\n      tag_277\n      jump\t// in\n    tag_291:\n        /* \"#utility.yul\":1080:1155   */\n      swap1\n      pop\n        /* \"#utility.yul\":1178:1184   */\n      dup3\n        /* \"#utility.yul\":1171:1176   */\n      dup2\n        /* \"#utility.yul\":1164:1185   */\n      mstore\n        /* \"#utility.yul\":1216:1220   */\n      0x20\n        /* \"#utility.yul\":1209:1214   */\n      dup2\n        /* \"#utility.yul\":1205:1221   */\n      add\n        /* \"#utility.yul\":1254:1257   */\n      dup5\n        /* \"#utility.yul\":1245:1251   */\n      dup5\n        /* \"#utility.yul\":1240:1243   */\n      dup5\n        /* \"#utility.yul\":1236:1252   */\n      add\n        /* \"#utility.yul\":1233:1258   */\n      gt\n        /* \"#utility.yul\":1230:1342   */\n      iszero\n      tag_294\n      jumpi\n        /* \"#utility.yul\":1261:1340   */\n      tag_295\n      tag_296\n      jump\t// in\n    tag_295:\n        /* \"#utility.yul\":1230:1342   */\n    tag_294:\n        /* \"#utility.yul\":1351:1392   */\n      tag_297\n        /* \"#utility.yul\":1385:1391   */\n      dup5\n        /* \"#utility.yul\":1380:1383   */\n      dup3\n        /* \"#utility.yul\":1375:1378   */\n      dup6\n        /* \"#utility.yul\":1351:1392   */\n      tag_298\n      jump\t// in\n    tag_297:\n        /* \"#utility.yul\":1070:1398   */\n      pop\n        /* \"#utility.yul\":986:1398   */\n      swap4\n      swap3\n      pop\n      pop\n      pop\n      jump\t// out\n        /* \"#utility.yul\":1404:1543   */\n    tag_299:\n        /* \"#utility.yul\":1450:1455   */\n      0x00\n        /* \"#utility.yul\":1488:1494   */\n      dup2\n        /* \"#utility.yul\":1475:1495   */\n      calldataload\n        /* \"#utility.yul\":1466:1495   */\n      swap1\n      pop\n        /* \"#utility.yul\":1504:1537   */\n      tag_301\n        /* \"#utility.yul\":1531:1536   */\n      dup2\n        /* \"#utility.yul\":1504:1537   */\n      tag_302\n      jump\t// in\n    tag_301:\n        /* \"#utility.yul\":1404:1543   */\n      swap3\n      swap2\n      pop\n      pop\n      jump\t// out\n        /* \"#utility.yul\":1565:1955   */\n    tag_303:\n        /* \"#utility.yul\":1646:1651   */\n      0x00\n        /* \"#utility.yul\":1695:1698   */\n      dup3\n        /* \"#utility.yul\":1688:1692   */\n      0x1f\n        /* \"#utility.yul\":1680:1686   */\n      dup4\n        /* \"#utility.yul\":1676:1693   */\n      add\n        /* \"#utility.yul\":1672:1699   */\n      slt\n        /* \"#utility.yul\":1662:1784   */\n      tag_305\n      jumpi\n        /* \"#utility.yul\":1703:1782   */\n      tag_306\n      tag_286\n      jump\t// in\n    tag_306:\n        /* \"#utility.yul\":1662:1784   */\n    tag_305:\n        /* \"#utility.yul\":1820:1826   */\n      dup2\n        /* \"#utility.yul\":1807:1827   */\n      calldataload\n        /* \"#utility.yul\":1845:1949   */\n      tag_307\n        /* \"#utility.yul\":1945:1948   */\n      dup5\n        /* \"#utility.yul\":1937:1943   */\n      dup3\n        /* \"#utility.yul\":1930:1934   */\n      0x20\n        /* \"#utility.yul\":1922:1928   */\n      dup7\n        /* \"#utility.yul\":1918:1935   */\n      add\n        /* \"#utility.yul\":1845:1949   */\n      tag_272\n      jump\t// in\n    tag_307:\n        /* \"#utility.yul\":1836:1949   */\n      swap2\n      pop\n        /* \"#utility.yul\":1652:1955   */\n      pop\n        /* \"#utility.yul\":1565:1955   */\n      swap3\n      swap2\n      pop\n      pop\n      jump\t// out\n        /* \"#utility.yul\":1975:2315   */\n    tag_288:\n        /* \"#utility.yul\":2031:2036   */\n      0x00\n        /* \"#utility.yul\":2080:2083   */\n      dup3\n        /* \"#utility.yul\":2073:2077   */\n      0x1f\n        /* \"#utility.yul\":2065:2071   */\n      dup4\n        /* \"#utility.yul\":2061:2078   */\n      add\n        /* \"#utility.yul\":2057:2084   */\n      slt\n        /* \"#utility.yul\":2047:2169   */\n      tag_309\n      jumpi\n        /* \"#utility.yul\":2088:2167   */\n      tag_310\n      tag_286\n      jump\t// in\n    tag_310:\n        /* \"#utility.yul\":2047:2169   */\n    tag_309:\n        /* \"#utility.yul\":2205:2211   */\n      dup2\n        /* \"#utility.yul\":2192:2212   */\n      calldataload\n        /* \"#utility.yul\":2230:2309   */\n      tag_311\n        /* \"#utility.yul\":2305:2308   */\n      dup5\n        /* \"#utility.yul\":2297:2303   */\n      dup3\n        /* \"#utility.yul\":2290:2294   */\n      0x20\n        /* \"#utility.yul\":2282:2288   */\n      dup7\n        /* \"#utility.yul\":2278:2295   */\n      add\n        /* \"#utility.yul\":2230:2309   */\n      tag_289\n      jump\t// in\n    tag_311:\n        /* \"#utility.yul\":2221:2309   */\n      swap2\n      pop\n        /* \"#utility.yul\":2037:2315   */\n      pop\n        /* \"#utility.yul\":1975:2315   */\n      swap3\n      swap2\n      pop\n      pop\n      jump\t// out\n        /* \"#utility.yul\":2321:2460   */\n    tag_312:\n        /* \"#utility.yul\":2367:2372   */\n      0x00\n        /* \"#utility.yul\":2405:2411   */\n      dup2\n        /* \"#utility.yul\":2392:2412   */\n      calldataload\n        /* \"#utility.yul\":2383:2412   */\n      swap1\n      pop\n        /* \"#utility.yul\":2421:2454   */\n      tag_314\n        /* \"#utility.yul\":2448:2453   */\n      dup2\n        /* \"#utility.yul\":2421:2454   */\n      tag_315\n      jump\t// in\n    tag_314:\n        /* \"#utility.yul\":2321:2460   */\n      swap3\n      swap2\n      pop\n      pop\n      jump\t// out\n        /* \"#utility.yul\":2466:2795   */\n    tag_38:\n        /* \"#utility.yul\":2525:2531   */\n      0x00\n        /* \"#utility.yul\":2574:2576   */\n      0x20\n        /* \"#utility.yul\":2562:2571   */\n      dup3\n        /* \"#utility.yul\":2553:2560   */\n      dup5\n        /* \"#utility.yul\":2549:2572   */\n      sub\n        /* \"#utility.yul\":2545:2577   */\n      slt\n        /* \"#utility.yul\":2542:2661   */\n      iszero\n      tag_317\n      jumpi\n        /* \"#utility.yul\":2580:2659   */\n      tag_318\n      tag_319\n      jump\t// in\n    tag_318:\n        /* \"#utility.yul\":2542:2661   */\n    tag_317:\n        /* \"#utility.yul\":2700:2701   */\n      0x00\n        /* \"#utility.yul\":2725:2778   */\n      tag_320\n        /* \"#utility.yul\":2770:2777   */\n      dup5\n        /* \"#utility.yul\":2761:2767   */\n      dup3\n        /* \"#utility.yul\":2750:2759   */\n      dup6\n        /* \"#utility.yul\":2746:2768   */\n      add\n        /* \"#utility.yul\":2725:2778   */\n      tag_299\n      jump\t// in\n    tag_320:\n        /* \"#utility.yul\":2715:2778   */\n      swap2\n      pop\n        /* \"#utility.yul\":2671:2788   */\n      pop\n        /* \"#utility.yul\":2466:2795   */\n      swap3\n      swap2\n      pop\n      pop\n      jump\t// out\n        /* \"#utility.yul\":2801:4110   */\n    tag_16:\n        /* \"#utility.yul\":2983:2989   */\n      0x00\n        /* \"#utility.yul\":2991:2997   */\n      dup1\n        /* \"#utility.yul\":2999:3005   */\n      0x00\n        /* \"#utility.yul\":3048:3050   */\n      0x60\n        /* \"#utility.yul\":3036:3045   */\n      dup5\n        /* \"#utility.yul\":3027:3034   */\n      dup7\n        /* \"#utility.yul\":3023:3046   */\n      sub\n        /* \"#utility.yul\":3019:3051   */\n      slt\n        /* \"#utility.yul\":3016:3135   */\n      iszero\n      tag_322\n      jumpi\n        /* \"#utility.yul\":3054:3133   */\n      tag_323\n      tag_319\n      jump\t// in\n    tag_323:\n        /* \"#utility.yul\":3016:3135   */\n    tag_322:\n        /* \"#utility.yul\":3202:3203   */\n      0x00\n        /* \"#utility.yul\":3191:3200   */\n      dup5\n        /* \"#utility.yul\":3187:3204   */\n      add\n        /* \"#utility.yul\":3174:3205   */\n      calldataload\n        /* \"#utility.yul\":3232:3250   */\n      0xffffffffffffffff\n        /* \"#utility.yul\":3224:3230   */\n      dup2\n        /* \"#utility.yul\":3221:3251   */\n      gt\n        /* \"#utility.yul\":3218:3335   */\n      iszero\n      tag_324\n      jumpi\n        /* \"#utility.yul\":3254:3333   */\n      tag_325\n      tag_326\n      jump\t// in\n    tag_325:\n        /* \"#utility.yul\":3218:3335   */\n    tag_324:\n        /* \"#utility.yul\":3359:3447   */\n      tag_327\n        /* \"#utility.yul\":3439:3446   */\n      dup7\n        /* \"#utility.yul\":3430:3436   */\n      dup3\n        /* \"#utility.yul\":3419:3428   */\n      dup8\n        /* \"#utility.yul\":3415:3437   */\n      add\n        /* \"#utility.yul\":3359:3447   */\n      tag_303\n      jump\t// in\n    tag_327:\n        /* \"#utility.yul\":3349:3447   */\n      swap4\n      pop\n        /* \"#utility.yul\":3145:3457   */\n      pop\n        /* \"#utility.yul\":3524:3526   */\n      0x20\n        /* \"#utility.yul\":3513:3522   */\n      dup5\n        /* \"#utility.yul\":3509:3527   */\n      add\n        /* \"#utility.yul\":3496:3528   */\n      calldataload\n        /* \"#utility.yul\":3555:3573   */\n      0xffffffffffffffff\n        /* \"#utility.yul\":3547:3553   */\n      dup2\n        /* \"#utility.yul\":3544:3574   */\n      gt\n        /* \"#utility.yul\":3541:3658   */\n      iszero\n      tag_328\n      jumpi\n        /* \"#utility.yul\":3577:3656   */\n      tag_329\n      tag_326\n      jump\t// in\n    tag_329:\n        /* \"#utility.yul\":3541:3658   */\n    tag_328:\n        /* \"#utility.yul\":3682:3770   */\n      tag_330\n        /* \"#utility.yul\":3762:3769   */\n      dup7\n        /* \"#utility.yul\":3753:3759   */\n      dup3\n        /* \"#utility.yul\":3742:3751   */\n      dup8\n        /* \"#utility.yul\":3738:3760   */\n      add\n        /* \"#utility.yul\":3682:3770   */\n      tag_303\n      jump\t// in\n    tag_330:\n        /* \"#utility.yul\":3672:3770   */\n      swap3\n      pop\n        /* \"#utility.yul\":3467:3780   */\n      pop\n        /* \"#utility.yul\":3847:3849   */\n      0x40\n        /* \"#utility.yul\":3836:3845   */\n      dup5\n        /* \"#utility.yul\":3832:3850   */\n      add\n        /* \"#utility.yul\":3819:3851   */\n      calldataload\n        /* \"#utility.yul\":3878:3896   */\n      0xffffffffffffffff\n        /* \"#utility.yul\":3870:3876   */\n      dup2\n        /* \"#utility.yul\":3867:3897   */\n      gt\n        /* \"#utility.yul\":3864:3981   */\n      iszero\n      tag_331\n      jumpi\n        /* \"#utility.yul\":3900:3979   */\n      tag_332\n      tag_326\n      jump\t// in\n    tag_332:\n        /* \"#utility.yul\":3864:3981   */\n    tag_331:\n        /* \"#utility.yul\":4005:4093   */\n      tag_333\n        /* \"#utility.yul\":4085:4092   */\n      dup7\n        /* \"#utility.yul\":4076:4082   */\n      dup3\n        /* \"#utility.yul\":4065:4074   */\n      dup8\n        /* \"#utility.yul\":4061:4083   */\n      add\n        /* \"#utility.yul\":4005:4093   */\n      tag_303\n      jump\t// in\n    tag_333:\n        /* \"#utility.yul\":3995:4093   */\n      swap2\n      pop\n        /* \"#utility.yul\":3790:4103   */\n      pop\n        /* \"#utility.yul\":2801:4110   */\n      swap3\n      pop\n      swap3\n      pop\n      swap3\n      jump\t// out\n        /* \"#utility.yul\":4116:5601   */\n    tag_34:\n        /* \"#utility.yul\":4242:4248   */\n      0x00\n        /* \"#utility.yul\":4250:4256   */\n      dup1\n        /* \"#utility.yul\":4258:4264   */\n      0x00\n        /* \"#utility.yul\":4266:4272   */\n      dup1\n        /* \"#utility.yul\":4315:4318   */\n      0x80\n        /* \"#utility.yul\":4303:4312   */\n      dup6\n        /* \"#utility.yul\":4294:4301   */\n      dup8\n        /* \"#utility.yul\":4290:4313   */\n      sub\n        /* \"#utility.yul\":4286:4319   */\n      slt\n        /* \"#utility.yul\":4283:4403   */\n      iszero\n      tag_335\n      jumpi\n        /* \"#utility.yul\":4322:4401   */\n      tag_336\n      tag_319\n      jump\t// in\n    tag_336:\n        /* \"#utility.yul\":4283:4403   */\n    tag_335:\n        /* \"#utility.yul\":4470:4471   */\n      0x00\n        /* \"#utility.yul\":4459:4468   */\n      dup6\n        /* \"#utility.yul\":4455:4472   */\n      add\n        /* \"#utility.yul\":4442:4473   */\n      calldataload\n        /* \"#utility.yul\":4500:4518   */\n      0xffffffffffffffff\n        /* \"#utility.yul\":4492:4498   */\n      dup2\n        /* \"#utility.yul\":4489:4519   */\n      gt\n        /* \"#utility.yul\":4486:4603   */\n      iszero\n      tag_337\n      jumpi\n        /* \"#utility.yul\":4522:4601   */\n      tag_338\n      tag_326\n      jump\t// in\n    tag_338:\n        /* \"#utility.yul\":4486:4603   */\n    tag_337:\n        /* \"#utility.yul\":4627:4690   */\n      tag_339\n        /* \"#utility.yul\":4682:4689   */\n      dup8\n        /* \"#utility.yul\":4673:4679   */\n      dup3\n        /* \"#utility.yul\":4662:4671   */\n      dup9\n        /* \"#utility.yul\":4658:4680   */\n      add\n        /* \"#utility.yul\":4627:4690   */\n      tag_288\n      jump\t// in\n    tag_339:\n        /* \"#utility.yul\":4617:4690   */\n      swap5\n      pop\n        /* \"#utility.yul\":4413:4700   */\n      pop\n        /* \"#utility.yul\":4767:4769   */\n      0x20\n        /* \"#utility.yul\":4756:4765   */\n      dup6\n        /* \"#utility.yul\":4752:4770   */\n      add\n        /* \"#utility.yul\":4739:4771   */\n      calldataload\n        /* \"#utility.yul\":4798:4816   */\n      0xffffffffffffffff\n        /* \"#utility.yul\":4790:4796   */\n      dup2\n        /* \"#utility.yul\":4787:4817   */\n      gt\n        /* \"#utility.yul\":4784:4901   */\n      iszero\n      tag_340\n      jumpi\n        /* \"#utility.yul\":4820:4899   */\n      tag_341\n      tag_326\n      jump\t// in\n    tag_341:\n        /* \"#utility.yul\":4784:4901   */\n    tag_340:\n        /* \"#utility.yul\":4925:4988   */\n      tag_342\n        /* \"#utility.yul\":4980:4987   */\n      dup8\n        /* \"#utility.yul\":4971:4977   */\n      dup3\n        /* \"#utility.yul\":4960:4969   */\n      dup9\n        /* \"#utility.yul\":4956:4978   */\n      add\n        /* \"#utility.yul\":4925:4988   */\n      tag_288\n      jump\t// in\n    tag_342:\n        /* \"#utility.yul\":4915:4988   */\n      swap4\n      pop\n        /* \"#utility.yul\":4710:4998   */\n      pop\n        /* \"#utility.yul\":5065:5067   */\n      0x40\n        /* \"#utility.yul\":5054:5063   */\n      dup6\n        /* \"#utility.yul\":5050:5068   */\n      add\n        /* \"#utility.yul\":5037:5069   */\n      calldataload\n        /* \"#utility.yul\":5096:5114   */\n      0xffffffffffffffff\n        /* \"#utility.yul\":5088:5094   */\n      dup2\n        /* \"#utility.yul\":5085:5115   */\n      gt\n        /* \"#utility.yul\":5082:5199   */\n      iszero\n      tag_343\n      jumpi\n        /* \"#utility.yul\":5118:5197   */\n      tag_344\n      tag_326\n      jump\t// in\n    tag_344:\n        /* \"#utility.yul\":5082:5199   */\n    tag_343:\n        /* \"#utility.yul\":5223:5286   */\n      tag_345\n        /* \"#utility.yul\":5278:5285   */\n      dup8\n        /* \"#utility.yul\":5269:5275   */\n      dup3\n        /* \"#utility.yul\":5258:5267   */\n      dup9\n        /* \"#utility.yul\":5254:5276   */\n      add\n        /* \"#utility.yul\":5223:5286   */\n      tag_288\n      jump\t// in\n    tag_345:\n        /* \"#utility.yul\":5213:5286   */\n      swap3\n      pop\n        /* \"#utility.yul\":5008:5296   */\n      pop\n        /* \"#utility.yul\":5363:5365   */\n      0x60\n        /* \"#utility.yul\":5352:5361   */\n      dup6\n        /* \"#utility.yul\":5348:5366   */\n      add\n        /* \"#utility.yul\":5335:5367   */\n      calldataload\n        /* \"#utility.yul\":5394:5412   */\n      0xffffffffffffffff\n        /* \"#utility.yul\":5386:5392   */\n      dup2\n        /* \"#utility.yul\":5383:5413   */\n      gt\n        /* \"#utility.yul\":5380:5497   */\n      iszero\n      tag_346\n      jumpi\n        /* \"#utility.yul\":5416:5495   */\n      tag_347\n      tag_326\n      jump\t// in\n    tag_347:\n        /* \"#utility.yul\":5380:5497   */\n    tag_346:\n        /* \"#utility.yul\":5521:5584   */\n      tag_348\n        /* \"#utility.yul\":5576:5583   */\n      dup8\n        /* \"#utility.yul\":5567:5573   */\n      dup3\n        /* \"#utility.yul\":5556:5565   */\n      dup9\n        /* \"#utility.yul\":5552:5574   */\n      add\n        /* \"#utility.yul\":5521:5584   */\n      tag_288\n      jump\t// in\n    tag_348:\n        /* \"#utility.yul\":5511:5584   */\n      swap2\n      pop\n        /* \"#utility.yul\":5306:5594   */\n      pop\n        /* \"#utility.yul\":4116:5601   */\n      swap3\n      swap6\n      swap2\n      swap5\n      pop\n      swap3\n      pop\n      jump\t// out\n        /* \"#utility.yul\":5607:7418   */\n    tag_24:\n        /* \"#utility.yul\":5752:5758   */\n      0x00\n        /* \"#utility.yul\":5760:5766   */\n      dup1\n        /* \"#utility.yul\":5768:5774   */\n      0x00\n        /* \"#utility.yul\":5776:5782   */\n      dup1\n        /* \"#utility.yul\":5784:5790   */\n      0x00\n        /* \"#utility.yul\":5833:5836   */\n      0xa0\n        /* \"#utility.yul\":5821:5830   */\n      dup7\n        /* \"#utility.yul\":5812:5819   */\n      dup9\n        /* \"#utility.yul\":5808:5831   */\n      sub\n        /* \"#utility.yul\":5804:5837   */\n      slt\n        /* \"#utility.yul\":5801:5921   */\n      iszero\n      tag_350\n      jumpi\n        /* \"#utility.yul\":5840:5919   */\n      tag_351\n      tag_319\n      jump\t// in\n    tag_351:\n        /* \"#utility.yul\":5801:5921   */\n    tag_350:\n        /* \"#utility.yul\":5988:5989   */\n      0x00\n        /* \"#utility.yul\":5977:5986   */\n      dup7\n        /* \"#utility.yul\":5973:5990   */\n      add\n        /* \"#utility.yul\":5960:5991   */\n      calldataload\n        /* \"#utility.yul\":6018:6036   */\n      0xffffffffffffffff\n        /* \"#utility.yul\":6010:6016   */\n      dup2\n        /* \"#utility.yul\":6007:6037   */\n      gt\n        /* \"#utility.yul\":6004:6121   */\n      iszero\n      tag_352\n      jumpi\n        /* \"#utility.yul\":6040:6119   */\n      tag_353\n      tag_326\n      jump\t// in\n    tag_353:\n        /* \"#utility.yul\":6004:6121   */\n    tag_352:\n        /* \"#utility.yul\":6145:6208   */\n      tag_354\n        /* \"#utility.yul\":6200:6207   */\n      dup9\n        /* \"#utility.yul\":6191:6197   */\n      dup3\n        /* \"#utility.yul\":6180:6189   */\n      dup10\n        /* \"#utility.yul\":6176:6198   */\n      add\n        /* \"#utility.yul\":6145:6208   */\n      tag_288\n      jump\t// in\n    tag_354:\n        /* \"#utility.yul\":6135:6208   */\n      swap6\n      pop\n        /* \"#utility.yul\":5931:6218   */\n      pop\n        /* \"#utility.yul\":6285:6287   */\n      0x20\n        /* \"#utility.yul\":6274:6283   */\n      dup7\n        /* \"#utility.yul\":6270:6288   */\n      add\n        /* \"#utility.yul\":6257:6289   */\n      calldataload\n        /* \"#utility.yul\":6316:6334   */\n      0xffffffffffffffff\n        /* \"#utility.yul\":6308:6314   */\n      dup2\n        /* \"#utility.yul\":6305:6335   */\n      gt\n        /* \"#utility.yul\":6302:6419   */\n      iszero\n      tag_355\n      jumpi\n        /* \"#utility.yul\":6338:6417   */\n      tag_356\n      tag_326\n      jump\t// in\n    tag_356:\n        /* \"#utility.yul\":6302:6419   */\n    tag_355:\n        /* \"#utility.yul\":6443:6506   */\n      tag_357\n        /* \"#utility.yul\":6498:6505   */\n      dup9\n        /* \"#utility.yul\":6489:6495   */\n      dup3\n        /* \"#utility.yul\":6478:6487   */\n      dup10\n        /* \"#utility.yul\":6474:6496   */\n      add\n        /* \"#utility.yul\":6443:6506   */\n      tag_288\n      jump\t// in\n    tag_357:\n        /* \"#utility.yul\":6433:6506   */\n      swap5\n      pop\n        /* \"#utility.yul\":6228:6516   */\n      pop\n        /* \"#utility.yul\":6583:6585   */\n      0x40\n        /* \"#utility.yul\":6572:6581   */\n      dup7\n        /* \"#utility.yul\":6568:6586   */\n      add\n        /* \"#utility.yul\":6555:6587   */\n      calldataload\n        /* \"#utility.yul\":6614:6632   */\n      0xffffffffffffffff\n        /* \"#utility.yul\":6606:6612   */\n      dup2\n        /* \"#utility.yul\":6603:6633   */\n      gt\n        /* \"#utility.yul\":6600:6717   */\n      iszero\n      tag_358\n      jumpi\n        /* \"#utility.yul\":6636:6715   */\n      tag_359\n      tag_326\n      jump\t// in\n    tag_359:\n        /* \"#utility.yul\":6600:6717   */\n    tag_358:\n        /* \"#utility.yul\":6741:6804   */\n      tag_360\n        /* \"#utility.yul\":6796:6803   */\n      dup9\n        /* \"#utility.yul\":6787:6793   */\n      dup3\n        /* \"#utility.yul\":6776:6785   */\n      dup10\n        /* \"#utility.yul\":6772:6794   */\n      add\n        /* \"#utility.yul\":6741:6804   */\n      tag_288\n      jump\t// in\n    tag_360:\n        /* \"#utility.yul\":6731:6804   */\n      swap4\n      pop\n        /* \"#utility.yul\":6526:6814   */\n      pop\n        /* \"#utility.yul\":6881:6883   */\n      0x60\n        /* \"#utility.yul\":6870:6879   */\n      dup7\n        /* \"#utility.yul\":6866:6884   */\n      add\n        /* \"#utility.yul\":6853:6885   */\n      calldataload\n        /* \"#utility.yul\":6912:6930   */\n      0xffffffffffffffff\n        /* \"#utility.yul\":6904:6910   */\n      dup2\n        /* \"#utility.yul\":6901:6931   */\n      gt\n        /* \"#utility.yul\":6898:7015   */\n      iszero\n      tag_361\n      jumpi\n        /* \"#utility.yul\":6934:7013   */\n      tag_362\n      tag_326\n      jump\t// in\n    tag_362:\n        /* \"#utility.yul\":6898:7015   */\n    tag_361:\n        /* \"#utility.yul\":7039:7102   */\n      tag_363\n        /* \"#utility.yul\":7094:7101   */\n      dup9\n        /* \"#utility.yul\":7085:7091   */\n      dup3\n        /* \"#utility.yul\":7074:7083   */\n      dup10\n        /* \"#utility.yul\":7070:7092   */\n      add\n        /* \"#utility.yul\":7039:7102   */\n      tag_288\n      jump\t// in\n    tag_363:\n        /* \"#utility.yul\":7029:7102   */\n      swap3\n      pop\n        /* \"#utility.yul\":6824:7112   */\n      pop\n        /* \"#utility.yul\":7179:7182   */\n      0x80\n        /* \"#utility.yul\":7168:7177   */\n      dup7\n        /* \"#utility.yul\":7164:7183   */\n      add\n        /* \"#utility.yul\":7151:7184   */\n      calldataload\n        /* \"#utility.yul\":7211:7229   */\n      0xffffffffffffffff\n        /* \"#utility.yul\":7203:7209   */\n      dup2\n        /* \"#utility.yul\":7200:7230   */\n      gt\n        /* \"#utility.yul\":7197:7314   */\n      iszero\n      tag_364\n      jumpi\n        /* \"#utility.yul\":7233:7312   */\n      tag_365\n      tag_326\n      jump\t// in\n    tag_365:\n        /* \"#utility.yul\":7197:7314   */\n    tag_364:\n        /* \"#utility.yul\":7338:7401   */\n      tag_366\n        /* \"#utility.yul\":7393:7400   */\n      dup9\n        /* \"#utility.yul\":7384:7390   */\n      dup3\n        /* \"#utility.yul\":7373:7382   */\n      dup10\n        /* \"#utility.yul\":7369:7391   */\n      add\n        /* \"#utility.yul\":7338:7401   */\n      tag_288\n      jump\t// in\n    tag_366:\n        /* \"#utility.yul\":7328:7401   */\n      swap2\n      pop\n        /* \"#utility.yul\":7122:7411   */\n      pop\n        /* \"#utility.yul\":5607:7418   */\n      swap3\n      swap6\n      pop\n      swap3\n      swap6\n      swap1\n      swap4\n      pop\n      jump\t// out\n        /* \"#utility.yul\":7424:9561   */\n    tag_28:\n        /* \"#utility.yul\":7588:7594   */\n      0x00\n        /* \"#utility.yul\":7596:7602   */\n      dup1\n        /* \"#utility.yul\":7604:7610   */\n      0x00\n        /* \"#utility.yul\":7612:7618   */\n      dup1\n        /* \"#utility.yul\":7620:7626   */\n      0x00\n        /* \"#utility.yul\":7628:7634   */\n      dup1\n        /* \"#utility.yul\":7677:7680   */\n      0xc0\n        /* \"#utility.yul\":7665:7674   */\n      dup8\n        /* \"#utility.yul\":7656:7663   */\n      dup10\n        /* \"#utility.yul\":7652:7675   */\n      sub\n        /* \"#utility.yul\":7648:7681   */\n      slt\n        /* \"#utility.yul\":7645:7765   */\n      iszero\n      tag_368\n      jumpi\n        /* \"#utility.yul\":7684:7763   */\n      tag_369\n      tag_319\n      jump\t// in\n    tag_369:\n        /* \"#utility.yul\":7645:7765   */\n    tag_368:\n        /* \"#utility.yul\":7832:7833   */\n      0x00\n        /* \"#utility.yul\":7821:7830   */\n      dup8\n        /* \"#utility.yul\":7817:7834   */\n      add\n        /* \"#utility.yul\":7804:7835   */\n      calldataload\n        /* \"#utility.yul\":7862:7880   */\n      0xffffffffffffffff\n        /* \"#utility.yul\":7854:7860   */\n      dup2\n        /* \"#utility.yul\":7851:7881   */\n      gt\n        /* \"#utility.yul\":7848:7965   */\n      iszero\n      tag_370\n      jumpi\n        /* \"#utility.yul\":7884:7963   */\n      tag_371\n      tag_326\n      jump\t// in\n    tag_371:\n        /* \"#utility.yul\":7848:7965   */\n    tag_370:\n        /* \"#utility.yul\":7989:8052   */\n      tag_372\n        /* \"#utility.yul\":8044:8051   */\n      dup10\n        /* \"#utility.yul\":8035:8041   */\n      dup3\n        /* \"#utility.yul\":8024:8033   */\n      dup11\n        /* \"#utility.yul\":8020:8042   */\n      add\n        /* \"#utility.yul\":7989:8052   */\n      tag_288\n      jump\t// in\n    tag_372:\n        /* \"#utility.yul\":7979:8052   */\n      swap7\n      pop\n        /* \"#utility.yul\":7775:8062   */\n      pop\n        /* \"#utility.yul\":8129:8131   */\n      0x20\n        /* \"#utility.yul\":8118:8127   */\n      dup8\n        /* \"#utility.yul\":8114:8132   */\n      add\n        /* \"#utility.yul\":8101:8133   */\n      calldataload\n        /* \"#utility.yul\":8160:8178   */\n      0xffffffffffffffff\n        /* \"#utility.yul\":8152:8158   */\n      dup2\n        /* \"#utility.yul\":8149:8179   */\n      gt\n        /* \"#utility.yul\":8146:8263   */\n      iszero\n      tag_373\n      jumpi\n        /* \"#utility.yul\":8182:8261   */\n      tag_374\n      tag_326\n      jump\t// in\n    tag_374:\n        /* \"#utility.yul\":8146:8263   */\n    tag_373:\n        /* \"#utility.yul\":8287:8350   */\n      tag_375\n        /* \"#utility.yul\":8342:8349   */\n      dup10\n        /* \"#utility.yul\":8333:8339   */\n      dup3\n        /* \"#utility.yul\":8322:8331   */\n      dup11\n        /* \"#utility.yul\":8318:8340   */\n      add\n        /* \"#utility.yul\":8287:8350   */\n      tag_288\n      jump\t// in\n    tag_375:\n        /* \"#utility.yul\":8277:8350   */\n      swap6\n      pop\n        /* \"#utility.yul\":8072:8360   */\n      pop\n        /* \"#utility.yul\":8427:8429   */\n      0x40\n        /* \"#utility.yul\":8416:8425   */\n      dup8\n        /* \"#utility.yul\":8412:8430   */\n      add\n        /* \"#utility.yul\":8399:8431   */\n      calldataload\n        /* \"#utility.yul\":8458:8476   */\n      0xffffffffffffffff\n        /* \"#utility.yul\":8450:8456   */\n      dup2\n        /* \"#utility.yul\":8447:8477   */\n      gt\n        /* \"#utility.yul\":8444:8561   */\n      iszero\n      tag_376\n      jumpi\n        /* \"#utility.yul\":8480:8559   */\n      tag_377\n      tag_326\n      jump\t// in\n    tag_377:\n        /* \"#utility.yul\":8444:8561   */\n    tag_376:\n        /* \"#utility.yul\":8585:8648   */\n      tag_378\n        /* \"#utility.yul\":8640:8647   */\n      dup10\n        /* \"#utility.yul\":8631:8637   */\n      dup3\n        /* \"#utility.yul\":8620:8629   */\n      dup11\n        /* \"#utility.yul\":8616:8638   */\n      add\n        /* \"#utility.yul\":8585:8648   */\n      tag_288\n      jump\t// in\n    tag_378:\n        /* \"#utility.yul\":8575:8648   */\n      swap5\n      pop\n        /* \"#utility.yul\":8370:8658   */\n      pop\n        /* \"#utility.yul\":8725:8727   */\n      0x60\n        /* \"#utility.yul\":8714:8723   */\n      dup8\n        /* \"#utility.yul\":8710:8728   */\n      add\n        /* \"#utility.yul\":8697:8729   */\n      calldataload\n        /* \"#utility.yul\":8756:8774   */\n      0xffffffffffffffff\n        /* \"#utility.yul\":8748:8754   */\n      dup2\n        /* \"#utility.yul\":8745:8775   */\n      gt\n        /* \"#utility.yul\":8742:8859   */\n      iszero\n      tag_379\n      jumpi\n        /* \"#utility.yul\":8778:8857   */\n      tag_380\n      tag_326\n      jump\t// in\n    tag_380:\n        /* \"#utility.yul\":8742:8859   */\n    tag_379:\n        /* \"#utility.yul\":8883:8946   */\n      tag_381\n        /* \"#utility.yul\":8938:8945   */\n      dup10\n        /* \"#utility.yul\":8929:8935   */\n      dup3\n        /* \"#utility.yul\":8918:8927   */\n      dup11\n        /* \"#utility.yul\":8914:8936   */\n      add\n        /* \"#utility.yul\":8883:8946   */\n      tag_288\n      jump\t// in\n    tag_381:\n        /* \"#utility.yul\":8873:8946   */\n      swap4\n      pop\n        /* \"#utility.yul\":8668:8956   */\n      pop\n        /* \"#utility.yul\":9023:9026   */\n      0x80\n        /* \"#utility.yul\":9012:9021   */\n      dup8\n        /* \"#utility.yul\":9008:9027   */\n      add\n        /* \"#utility.yul\":8995:9028   */\n      calldataload\n        /* \"#utility.yul\":9055:9073   */\n      0xffffffffffffffff\n        /* \"#utility.yul\":9047:9053   */\n      dup2\n        /* \"#utility.yul\":9044:9074   */\n      gt\n        /* \"#utility.yul\":9041:9158   */\n      iszero\n      tag_382\n      jumpi\n        /* \"#utility.yul\":9077:9156   */\n      tag_383\n      tag_326\n      jump\t// in\n    tag_383:\n        /* \"#utility.yul\":9041:9158   */\n    tag_382:\n        /* \"#utility.yul\":9182:9245   */\n      tag_384\n        /* \"#utility.yul\":9237:9244   */\n      dup10\n        /* \"#utility.yul\":9228:9234   */\n      dup3\n        /* \"#utility.yul\":9217:9226   */\n      dup11\n        /* \"#utility.yul\":9213:9235   */\n      add\n        /* \"#utility.yul\":9182:9245   */\n      tag_288\n      jump\t// in\n    tag_384:\n        /* \"#utility.yul\":9172:9245   */\n      swap3\n      pop\n        /* \"#utility.yul\":8966:9255   */\n      pop\n        /* \"#utility.yul\":9322:9325   */\n      0xa0\n        /* \"#utility.yul\":9311:9320   */\n      dup8\n        /* \"#utility.yul\":9307:9326   */\n      add\n        /* \"#utility.yul\":9294:9327   */\n      calldataload\n        /* \"#utility.yul\":9354:9372   */\n      0xffffffffffffffff\n        /* \"#utility.yul\":9346:9352   */\n      dup2\n        /* \"#utility.yul\":9343:9373   */\n      gt\n        /* \"#utility.yul\":9340:9457   */\n      iszero\n      tag_385\n      jumpi\n        /* \"#utility.yul\":9376:9455   */\n      tag_386\n      tag_326\n      jump\t// in\n    tag_386:\n        /* \"#utility.yul\":9340:9457   */\n    tag_385:\n        /* \"#utility.yul\":9481:9544   */\n      tag_387\n        /* \"#utility.yul\":9536:9543   */\n      dup10\n        /* \"#utility.yul\":9527:9533   */\n      dup3\n        /* \"#utility.yul\":9516:9525   */\n      dup11\n        /* \"#utility.yul\":9512:9534   */\n      add\n        /* \"#utility.yul\":9481:9544   */\n      tag_288\n      jump\t// in\n    tag_387:\n        /* \"#utility.yul\":9471:9544   */\n      swap2\n      pop\n        /* \"#utility.yul\":9265:9554   */\n      pop\n        /* \"#utility.yul\":7424:9561   */\n      swap3\n      swap6\n      pop\n      swap3\n      swap6\n      pop\n      swap3\n      swap6\n      jump\t// out\n        /* \"#utility.yul\":9567:9896   */\n    tag_46:\n        /* \"#utility.yul\":9626:9632   */\n      0x00\n        /* \"#utility.yul\":9675:9677   */\n      0x20\n        /* \"#utility.yul\":9663:9672   */\n      dup3\n        /* \"#utility.yul\":9654:9661   */\n      dup5\n        /* \"#utility.yul\":9650:9673   */\n      sub\n        /* \"#utility.yul\":9646:9678   */\n      slt\n        /* \"#utility.yul\":9643:9762   */\n      iszero\n      tag_389\n      jumpi\n        /* \"#utility.yul\":9681:9760   */\n      tag_390\n      tag_319\n      jump\t// in\n    tag_390:\n        /* \"#utility.yul\":9643:9762   */\n    tag_389:\n        /* \"#utility.yul\":9801:9802   */\n      0x00\n        /* \"#utility.yul\":9826:9879   */\n      tag_391\n        /* \"#utility.yul\":9871:9878   */\n      dup5\n        /* \"#utility.yul\":9862:9868   */\n      dup3\n        /* \"#utility.yul\":9851:9860   */\n      dup6\n        /* \"#utility.yul\":9847:9869   */\n      add\n        /* \"#utility.yul\":9826:9879   */\n      tag_312\n      jump\t// in\n    tag_391:\n        /* \"#utility.yul\":9816:9879   */\n      swap2\n      pop\n        /* \"#utility.yul\":9772:9889   */\n      pop\n        /* \"#utility.yul\":9567:9896   */\n      swap3\n      swap2\n      pop\n      pop\n      jump\t// out\n        /* \"#utility.yul\":9902:10098   */\n    tag_392:\n        /* \"#utility.yul\":9991:10001   */\n      0x00\n        /* \"#utility.yul\":10026:10092   */\n      tag_394\n        /* \"#utility.yul\":10088:10091   */\n      dup4\n        /* \"#utility.yul\":10080:10086   */\n      dup4\n        /* \"#utility.yul\":10026:10092   */\n      tag_395\n      jump\t// in\n    tag_394:\n        /* \"#utility.yul\":10012:10092   */\n      swap1\n      pop\n        /* \"#utility.yul\":9902:10098   */\n      swap3\n      swap2\n      pop\n      pop\n      jump\t// out\n        /* \"#utility.yul\":10104:10212   */\n    tag_396:\n        /* \"#utility.yul\":10181:10205   */\n      tag_398\n        /* \"#utility.yul\":10199:10204   */\n      dup2\n        /* \"#utility.yul\":10181:10205   */\n      tag_399\n      jump\t// in\n    tag_398:\n        /* \"#utility.yul\":10176:10179   */\n      dup3\n        /* \"#utility.yul\":10169:10206   */\n      mstore\n        /* \"#utility.yul\":10104:10212   */\n      pop\n      pop\n      jump\t// out\n        /* \"#utility.yul\":10246:11217   */\n    tag_400:\n        /* \"#utility.yul\":10375:10378   */\n      0x00\n        /* \"#utility.yul\":10404:10468   */\n      tag_402\n        /* \"#utility.yul\":10462:10467   */\n      dup3\n        /* \"#utility.yul\":10404:10468   */\n      tag_403\n      jump\t// in\n    tag_402:\n        /* \"#utility.yul\":10484:10570   */\n      tag_404\n        /* \"#utility.yul\":10563:10569   */\n      dup2\n        /* \"#utility.yul\":10558:10561   */\n      dup6\n        /* \"#utility.yul\":10484:10570   */\n      tag_405\n      jump\t// in\n    tag_404:\n        /* \"#utility.yul\":10477:10570   */\n      swap4\n      pop\n        /* \"#utility.yul\":10596:10599   */\n      dup4\n        /* \"#utility.yul\":10641:10645   */\n      0x20\n        /* \"#utility.yul\":10633:10639   */\n      dup3\n        /* \"#utility.yul\":10629:10646   */\n      mul\n        /* \"#utility.yul\":10624:10627   */\n      dup6\n        /* \"#utility.yul\":10620:10647   */\n      add\n        /* \"#utility.yul\":10671:10737   */\n      tag_406\n        /* \"#utility.yul\":10731:10736   */\n      dup6\n        /* \"#utility.yul\":10671:10737   */\n      tag_407\n      jump\t// in\n    tag_406:\n        /* \"#utility.yul\":10760:10767   */\n      dup1\n        /* \"#utility.yul\":10791:10792   */\n      0x00\n        /* \"#utility.yul\":10776:11172   */\n    tag_408:\n        /* \"#utility.yul\":10801:10807   */\n      dup6\n        /* \"#utility.yul\":10798:10799   */\n      dup2\n        /* \"#utility.yul\":10795:10808   */\n      lt\n        /* \"#utility.yul\":10776:11172   */\n      iszero\n      tag_410\n      jumpi\n        /* \"#utility.yul\":10872:10881   */\n      dup5\n        /* \"#utility.yul\":10866:10870   */\n      dup5\n        /* \"#utility.yul\":10862:10882   */\n      sub\n        /* \"#utility.yul\":10857:10860   */\n      dup10\n        /* \"#utility.yul\":10850:10883   */\n      mstore\n        /* \"#utility.yul\":10923:10929   */\n      dup2\n        /* \"#utility.yul\":10917:10930   */\n      mload\n        /* \"#utility.yul\":10951:11035   */\n      tag_411\n        /* \"#utility.yul\":11030:11034   */\n      dup6\n        /* \"#utility.yul\":11015:11028   */\n      dup3\n        /* \"#utility.yul\":10951:11035   */\n      tag_392\n      jump\t// in\n    tag_411:\n        /* \"#utility.yul\":10943:11035   */\n      swap5\n      pop\n        /* \"#utility.yul\":11058:11128   */\n      tag_412\n        /* \"#utility.yul\":11121:11127   */\n      dup4\n        /* \"#utility.yul\":11058:11128   */\n      tag_413\n      jump\t// in\n    tag_412:\n        /* \"#utility.yul\":11048:11128   */\n      swap3\n      pop\n        /* \"#utility.yul\":11157:11161   */\n      0x20\n        /* \"#utility.yul\":11152:11155   */\n      dup11\n        /* \"#utility.yul\":11148:11162   */\n      add\n        /* \"#utility.yul\":11141:11162   */\n      swap10\n      pop\n        /* \"#utility.yul\":10836:11172   */\n      pop\n        /* \"#utility.yul\":10823:10824   */\n      0x01\n        /* \"#utility.yul\":10820:10821   */\n      dup2\n        /* \"#utility.yul\":10816:10825   */\n      add\n        /* \"#utility.yul\":10811:10825   */\n      swap1\n      pop\n        /* \"#utility.yul\":10776:11172   */\n      jump(tag_408)\n    tag_410:\n        /* \"#utility.yul\":10780:10794   */\n      pop\n        /* \"#utility.yul\":11188:11192   */\n      dup3\n        /* \"#utility.yul\":11181:11192   */\n      swap8\n      pop\n        /* \"#utility.yul\":11208:11211   */\n      dup8\n        /* \"#utility.yul\":11201:11211   */\n      swap6\n      pop\n        /* \"#utility.yul\":10380:11217   */\n      pop\n      pop\n      pop\n      pop\n      pop\n        /* \"#utility.yul\":10246:11217   */\n      swap3\n      swap2\n      pop\n      pop\n      jump\t// out\n        /* \"#utility.yul\":11223:11567   */\n    tag_395:\n        /* \"#utility.yul\":11301:11304   */\n      0x00\n        /* \"#utility.yul\":11329:11368   */\n      tag_415\n        /* \"#utility.yul\":11362:11367   */\n      dup3\n        /* \"#utility.yul\":11329:11368   */\n      tag_416\n      jump\t// in\n    tag_415:\n        /* \"#utility.yul\":11384:11445   */\n      tag_417\n        /* \"#utility.yul\":11438:11444   */\n      dup2\n        /* \"#utility.yul\":11433:11436   */\n      dup6\n        /* \"#utility.yul\":11384:11445   */\n      tag_418\n      jump\t// in\n    tag_417:\n        /* \"#utility.yul\":11377:11445   */\n      swap4\n      pop\n        /* \"#utility.yul\":11454:11506   */\n      tag_419\n        /* \"#utility.yul\":11499:11505   */\n      dup2\n        /* \"#utility.yul\":11494:11497   */\n      dup6\n        /* \"#utility.yul\":11487:11491   */\n      0x20\n        /* \"#utility.yul\":11480:11485   */\n      dup7\n        /* \"#utility.yul\":11476:11492   */\n      add\n        /* \"#utility.yul\":11454:11506   */\n      tag_420\n      jump\t// in\n    tag_419:\n        /* \"#utility.yul\":11531:11560   */\n      tag_421\n        /* \"#utility.yul\":11553:11559   */\n      dup2\n        /* \"#utility.yul\":11531:11560   */\n      tag_422\n      jump\t// in\n    tag_421:\n        /* \"#utility.yul\":11526:11529   */\n      dup5\n        /* \"#utility.yul\":11522:11561   */\n      add\n        /* \"#utility.yul\":11515:11561   */\n      swap2\n      pop\n        /* \"#utility.yul\":11305:11567   */\n      pop\n        /* \"#utility.yul\":11223:11567   */\n      swap3\n      swap2\n      pop\n      pop\n      jump\t// out\n        /* \"#utility.yul\":11573:11937   */\n    tag_423:\n        /* \"#utility.yul\":11661:11664   */\n      0x00\n        /* \"#utility.yul\":11689:11728   */\n      tag_425\n        /* \"#utility.yul\":11722:11727   */\n      dup3\n        /* \"#utility.yul\":11689:11728   */\n      tag_416\n      jump\t// in\n    tag_425:\n        /* \"#utility.yul\":11744:11815   */\n      tag_426\n        /* \"#utility.yul\":11808:11814   */\n      dup2\n        /* \"#utility.yul\":11803:11806   */\n      dup6\n        /* \"#utility.yul\":11744:11815   */\n      tag_427\n      jump\t// in\n    tag_426:\n        /* \"#utility.yul\":11737:11815   */\n      swap4\n      pop\n        /* \"#utility.yul\":11824:11876   */\n      tag_428\n        /* \"#utility.yul\":11869:11875   */\n      dup2\n        /* \"#utility.yul\":11864:11867   */\n      dup6\n        /* \"#utility.yul\":11857:11861   */\n      0x20\n        /* \"#utility.yul\":11850:11855   */\n      dup7\n        /* \"#utility.yul\":11846:11862   */\n      add\n        /* \"#utility.yul\":11824:11876   */\n      tag_420\n      jump\t// in\n    tag_428:\n        /* \"#utility.yul\":11901:11930   */\n      tag_429\n        /* \"#utility.yul\":11923:11929   */\n      dup2\n        /* \"#utility.yul\":11901:11930   */\n      tag_422\n      jump\t// in\n    tag_429:\n        /* \"#utility.yul\":11896:11899   */\n      dup5\n        /* \"#utility.yul\":11892:11931   */\n      add\n        /* \"#utility.yul\":11885:11931   */\n      swap2\n      pop\n        /* \"#utility.yul\":11665:11937   */\n      pop\n        /* \"#utility.yul\":11573:11937   */\n      swap3\n      swap2\n      pop\n      pop\n      jump\t// out\n        /* \"#utility.yul\":12001:13667   */\n    tag_430:\n        /* \"#utility.yul\":12118:12121   */\n      0x00\n        /* \"#utility.yul\":12154:12158   */\n      0xc0\n        /* \"#utility.yul\":12149:12152   */\n      dup4\n        /* \"#utility.yul\":12145:12159   */\n      add\n        /* \"#utility.yul\":12244:12248   */\n      0x00\n        /* \"#utility.yul\":12237:12242   */\n      dup4\n        /* \"#utility.yul\":12233:12249   */\n      add\n        /* \"#utility.yul\":12227:12250   */\n      mload\n        /* \"#utility.yul\":12297:12300   */\n      dup5\n        /* \"#utility.yul\":12291:12295   */\n      dup3\n        /* \"#utility.yul\":12287:12301   */\n      sub\n        /* \"#utility.yul\":12280:12284   */\n      0x00\n        /* \"#utility.yul\":12275:12278   */\n      dup7\n        /* \"#utility.yul\":12271:12285   */\n      add\n        /* \"#utility.yul\":12264:12302   */\n      mstore\n        /* \"#utility.yul\":12323:12396   */\n      tag_432\n        /* \"#utility.yul\":12391:12395   */\n      dup3\n        /* \"#utility.yul\":12377:12389   */\n      dup3\n        /* \"#utility.yul\":12323:12396   */\n      tag_395\n      jump\t// in\n    tag_432:\n        /* \"#utility.yul\":12315:12396   */\n      swap2\n      pop\n        /* \"#utility.yul\":12169:12407   */\n      pop\n        /* \"#utility.yul\":12490:12494   */\n      0x20\n        /* \"#utility.yul\":12483:12488   */\n      dup4\n        /* \"#utility.yul\":12479:12495   */\n      add\n        /* \"#utility.yul\":12473:12496   */\n      mload\n        /* \"#utility.yul\":12543:12546   */\n      dup5\n        /* \"#utility.yul\":12537:12541   */\n      dup3\n        /* \"#utility.yul\":12533:12547   */\n      sub\n        /* \"#utility.yul\":12526:12530   */\n      0x20\n        /* \"#utility.yul\":12521:12524   */\n      dup7\n        /* \"#utility.yul\":12517:12531   */\n      add\n        /* \"#utility.yul\":12510:12548   */\n      mstore\n        /* \"#utility.yul\":12569:12642   */\n      tag_433\n        /* \"#utility.yul\":12637:12641   */\n      dup3\n        /* \"#utility.yul\":12623:12635   */\n      dup3\n        /* \"#utility.yul\":12569:12642   */\n      tag_395\n      jump\t// in\n    tag_433:\n        /* \"#utility.yul\":12561:12642   */\n      swap2\n      pop\n        /* \"#utility.yul\":12417:12653   */\n      pop\n        /* \"#utility.yul\":12736:12740   */\n      0x40\n        /* \"#utility.yul\":12729:12734   */\n      dup4\n        /* \"#utility.yul\":12725:12741   */\n      add\n        /* \"#utility.yul\":12719:12742   */\n      mload\n        /* \"#utility.yul\":12789:12792   */\n      dup5\n        /* \"#utility.yul\":12783:12787   */\n      dup3\n        /* \"#utility.yul\":12779:12793   */\n      sub\n        /* \"#utility.yul\":12772:12776   */\n      0x40\n        /* \"#utility.yul\":12767:12770   */\n      dup7\n        /* \"#utility.yul\":12763:12777   */\n      add\n        /* \"#utility.yul\":12756:12794   */\n      mstore\n        /* \"#utility.yul\":12815:12888   */\n      tag_434\n        /* \"#utility.yul\":12883:12887   */\n      dup3\n        /* \"#utility.yul\":12869:12881   */\n      dup3\n        /* \"#utility.yul\":12815:12888   */\n      tag_395\n      jump\t// in\n    tag_434:\n        /* \"#utility.yul\":12807:12888   */\n      swap2\n      pop\n        /* \"#utility.yul\":12663:12899   */\n      pop\n        /* \"#utility.yul\":12983:12987   */\n      0x60\n        /* \"#utility.yul\":12976:12981   */\n      dup4\n        /* \"#utility.yul\":12972:12988   */\n      add\n        /* \"#utility.yul\":12966:12989   */\n      mload\n        /* \"#utility.yul\":13036:13039   */\n      dup5\n        /* \"#utility.yul\":13030:13034   */\n      dup3\n        /* \"#utility.yul\":13026:13040   */\n      sub\n        /* \"#utility.yul\":13019:13023   */\n      0x60\n        /* \"#utility.yul\":13014:13017   */\n      dup7\n        /* \"#utility.yul\":13010:13024   */\n      add\n        /* \"#utility.yul\":13003:13041   */\n      mstore\n        /* \"#utility.yul\":13062:13135   */\n      tag_435\n        /* \"#utility.yul\":13130:13134   */\n      dup3\n        /* \"#utility.yul\":13116:13128   */\n      dup3\n        /* \"#utility.yul\":13062:13135   */\n      tag_395\n      jump\t// in\n    tag_435:\n        /* \"#utility.yul\":13054:13135   */\n      swap2\n      pop\n        /* \"#utility.yul\":12909:13146   */\n      pop\n        /* \"#utility.yul\":13230:13234   */\n      0x80\n        /* \"#utility.yul\":13223:13228   */\n      dup4\n        /* \"#utility.yul\":13219:13235   */\n      add\n        /* \"#utility.yul\":13213:13236   */\n      mload\n        /* \"#utility.yul\":13283:13286   */\n      dup5\n        /* \"#utility.yul\":13277:13281   */\n      dup3\n        /* \"#utility.yul\":13273:13287   */\n      sub\n        /* \"#utility.yul\":13266:13270   */\n      0x80\n        /* \"#utility.yul\":13261:13264   */\n      dup7\n        /* \"#utility.yul\":13257:13271   */\n      add\n        /* \"#utility.yul\":13250:13288   */\n      mstore\n        /* \"#utility.yul\":13309:13382   */\n      tag_436\n        /* \"#utility.yul\":13377:13381   */\n      dup3\n        /* \"#utility.yul\":13363:13375   */\n      dup3\n        /* \"#utility.yul\":13309:13382   */\n      tag_395\n      jump\t// in\n    tag_436:\n        /* \"#utility.yul\":13301:13382   */\n      swap2\n      pop\n        /* \"#utility.yul\":13156:13393   */\n      pop\n        /* \"#utility.yul\":13477:13481   */\n      0xa0\n        /* \"#utility.yul\":13470:13475   */\n      dup4\n        /* \"#utility.yul\":13466:13482   */\n      add\n        /* \"#utility.yul\":13460:13483   */\n      mload\n        /* \"#utility.yul\":13530:13533   */\n      dup5\n        /* \"#utility.yul\":13524:13528   */\n      dup3\n        /* \"#utility.yul\":13520:13534   */\n      sub\n        /* \"#utility.yul\":13513:13517   */\n      0xa0\n        /* \"#utility.yul\":13508:13511   */\n      dup7\n        /* \"#utility.yul\":13504:13518   */\n      add\n        /* \"#utility.yul\":13497:13535   */\n      mstore\n        /* \"#utility.yul\":13556:13629   */\n      tag_437\n        /* \"#utility.yul\":13624:13628   */\n      dup3\n        /* \"#utility.yul\":13610:13622   */\n      dup3\n        /* \"#utility.yul\":13556:13629   */\n      tag_395\n      jump\t// in\n    tag_437:\n        /* \"#utility.yul\":13548:13629   */\n      swap2\n      pop\n        /* \"#utility.yul\":13403:13640   */\n      pop\n        /* \"#utility.yul\":13657:13661   */\n      dup1\n        /* \"#utility.yul\":13650:13661   */\n      swap2\n      pop\n        /* \"#utility.yul\":12123:13667   */\n      pop\n        /* \"#utility.yul\":12001:13667   */\n      swap3\n      swap2\n      pop\n      pop\n      jump\t// out\n        /* \"#utility.yul\":13737:15791   */\n    tag_438:\n        /* \"#utility.yul\":13860:13863   */\n      0x00\n        /* \"#utility.yul\":13896:13902   */\n      0x0100\n        /* \"#utility.yul\":13891:13894   */\n      dup4\n        /* \"#utility.yul\":13887:13903   */\n      add\n        /* \"#utility.yul\":13988:13992   */\n      0x00\n        /* \"#utility.yul\":13981:13986   */\n      dup4\n        /* \"#utility.yul\":13977:13993   */\n      add\n        /* \"#utility.yul\":13971:13994   */\n      mload\n        /* \"#utility.yul\":14041:14044   */\n      dup5\n        /* \"#utility.yul\":14035:14039   */\n      dup3\n        /* \"#utility.yul\":14031:14045   */\n      sub\n        /* \"#utility.yul\":14024:14028   */\n      0x00\n        /* \"#utility.yul\":14019:14022   */\n      dup7\n        /* \"#utility.yul\":14015:14029   */\n      add\n        /* \"#utility.yul\":14008:14046   */\n      mstore\n        /* \"#utility.yul\":14067:14140   */\n      tag_440\n        /* \"#utility.yul\":14135:14139   */\n      dup3\n        /* \"#utility.yul\":14121:14133   */\n      dup3\n        /* \"#utility.yul\":14067:14140   */\n      tag_395\n      jump\t// in\n    tag_440:\n        /* \"#utility.yul\":14059:14140   */\n      swap2\n      pop\n        /* \"#utility.yul\":13913:14151   */\n      pop\n        /* \"#utility.yul\":14237:14241   */\n      0x20\n        /* \"#utility.yul\":14230:14235   */\n      dup4\n        /* \"#utility.yul\":14226:14242   */\n      add\n        /* \"#utility.yul\":14220:14243   */\n      mload\n        /* \"#utility.yul\":14290:14293   */\n      dup5\n        /* \"#utility.yul\":14284:14288   */\n      dup3\n        /* \"#utility.yul\":14280:14294   */\n      sub\n        /* \"#utility.yul\":14273:14277   */\n      0x20\n        /* \"#utility.yul\":14268:14271   */\n      dup7\n        /* \"#utility.yul\":14264:14278   */\n      add\n        /* \"#utility.yul\":14257:14295   */\n      mstore\n        /* \"#utility.yul\":14316:14389   */\n      tag_441\n        /* \"#utility.yul\":14384:14388   */\n      dup3\n        /* \"#utility.yul\":14370:14382   */\n      dup3\n        /* \"#utility.yul\":14316:14389   */\n      tag_395\n      jump\t// in\n    tag_441:\n        /* \"#utility.yul\":14308:14389   */\n      swap2\n      pop\n        /* \"#utility.yul\":14161:14400   */\n      pop\n        /* \"#utility.yul\":14489:14493   */\n      0x40\n        /* \"#utility.yul\":14482:14487   */\n      dup4\n        /* \"#utility.yul\":14478:14494   */\n      add\n        /* \"#utility.yul\":14472:14495   */\n      mload\n        /* \"#utility.yul\":14508:14571   */\n      tag_442\n        /* \"#utility.yul\":14565:14569   */\n      0x40\n        /* \"#utility.yul\":14560:14563   */\n      dup7\n        /* \"#utility.yul\":14556:14570   */\n      add\n        /* \"#utility.yul\":14542:14554   */\n      dup3\n        /* \"#utility.yul\":14508:14571   */\n      tag_396\n      jump\t// in\n    tag_442:\n        /* \"#utility.yul\":14410:14581   */\n      pop\n        /* \"#utility.yul\":14668:14672   */\n      0x60\n        /* \"#utility.yul\":14661:14666   */\n      dup4\n        /* \"#utility.yul\":14657:14673   */\n      add\n        /* \"#utility.yul\":14651:14674   */\n      mload\n        /* \"#utility.yul\":14721:14724   */\n      dup5\n        /* \"#utility.yul\":14715:14719   */\n      dup3\n        /* \"#utility.yul\":14711:14725   */\n      sub\n        /* \"#utility.yul\":14704:14708   */\n      0x60\n        /* \"#utility.yul\":14699:14702   */\n      dup7\n        /* \"#utility.yul\":14695:14709   */\n      add\n        /* \"#utility.yul\":14688:14726   */\n      mstore\n        /* \"#utility.yul\":14747:14820   */\n      tag_443\n        /* \"#utility.yul\":14815:14819   */\n      dup3\n        /* \"#utility.yul\":14801:14813   */\n      dup3\n        /* \"#utility.yul\":14747:14820   */\n      tag_395\n      jump\t// in\n    tag_443:\n        /* \"#utility.yul\":14739:14820   */\n      swap2\n      pop\n        /* \"#utility.yul\":14591:14831   */\n      pop\n        /* \"#utility.yul\":14919:14923   */\n      0x80\n        /* \"#utility.yul\":14912:14917   */\n      dup4\n        /* \"#utility.yul\":14908:14924   */\n      add\n        /* \"#utility.yul\":14902:14925   */\n      mload\n        /* \"#utility.yul\":14972:14975   */\n      dup5\n        /* \"#utility.yul\":14966:14970   */\n      dup3\n        /* \"#utility.yul\":14962:14976   */\n      sub\n        /* \"#utility.yul\":14955:14959   */\n      0x80\n        /* \"#utility.yul\":14950:14953   */\n      dup7\n        /* \"#utility.yul\":14946:14960   */\n      add\n        /* \"#utility.yul\":14939:14977   */\n      mstore\n        /* \"#utility.yul\":14998:15071   */\n      tag_444\n        /* \"#utility.yul\":15066:15070   */\n      dup3\n        /* \"#utility.yul\":15052:15064   */\n      dup3\n        /* \"#utility.yul\":14998:15071   */\n      tag_395\n      jump\t// in\n    tag_444:\n        /* \"#utility.yul\":14990:15071   */\n      swap2\n      pop\n        /* \"#utility.yul\":14841:15082   */\n      pop\n        /* \"#utility.yul\":15168:15172   */\n      0xa0\n        /* \"#utility.yul\":15161:15166   */\n      dup4\n        /* \"#utility.yul\":15157:15173   */\n      add\n        /* \"#utility.yul\":15151:15174   */\n      mload\n        /* \"#utility.yul\":15221:15224   */\n      dup5\n        /* \"#utility.yul\":15215:15219   */\n      dup3\n        /* \"#utility.yul\":15211:15225   */\n      sub\n        /* \"#utility.yul\":15204:15208   */\n      0xa0\n        /* \"#utility.yul\":15199:15202   */\n      dup7\n        /* \"#utility.yul\":15195:15209   */\n      add\n        /* \"#utility.yul\":15188:15226   */\n      mstore\n        /* \"#utility.yul\":15247:15320   */\n      tag_445\n        /* \"#utility.yul\":15315:15319   */\n      dup3\n        /* \"#utility.yul\":15301:15313   */\n      dup3\n        /* \"#utility.yul\":15247:15320   */\n      tag_395\n      jump\t// in\n    tag_445:\n        /* \"#utility.yul\":15239:15320   */\n      swap2\n      pop\n        /* \"#utility.yul\":15092:15331   */\n      pop\n        /* \"#utility.yul\":15421:15425   */\n      0xc0\n        /* \"#utility.yul\":15414:15419   */\n      dup4\n        /* \"#utility.yul\":15410:15426   */\n      add\n        /* \"#utility.yul\":15404:15427   */\n      mload\n        /* \"#utility.yul\":15474:15477   */\n      dup5\n        /* \"#utility.yul\":15468:15472   */\n      dup3\n        /* \"#utility.yul\":15464:15478   */\n      sub\n        /* \"#utility.yul\":15457:15461   */\n      0xc0\n        /* \"#utility.yul\":15452:15455   */\n      dup7\n        /* \"#utility.yul\":15448:15462   */\n      add\n        /* \"#utility.yul\":15441:15479   */\n      mstore\n        /* \"#utility.yul\":15500:15573   */\n      tag_446\n        /* \"#utility.yul\":15568:15572   */\n      dup3\n        /* \"#utility.yul\":15554:15566   */\n      dup3\n        /* \"#utility.yul\":15500:15573   */\n      tag_395\n      jump\t// in\n    tag_446:\n        /* \"#utility.yul\":15492:15573   */\n      swap2\n      pop\n        /* \"#utility.yul\":15341:15584   */\n      pop\n        /* \"#utility.yul\":15672:15676   */\n      0xe0\n        /* \"#utility.yul\":15665:15670   */\n      dup4\n        /* \"#utility.yul\":15661:15677   */\n      add\n        /* \"#utility.yul\":15655:15678   */\n      mload\n        /* \"#utility.yul\":15691:15754   */\n      tag_447\n        /* \"#utility.yul\":15748:15752   */\n      0xe0\n        /* \"#utility.yul\":15743:15746   */\n      dup7\n        /* \"#utility.yul\":15739:15753   */\n      add\n        /* \"#utility.yul\":15725:15737   */\n      dup3\n        /* \"#utility.yul\":15691:15754   */\n      tag_448\n      jump\t// in\n    tag_447:\n        /* \"#utility.yul\":15594:15764   */\n      pop\n        /* \"#utility.yul\":15781:15785   */\n      dup1\n        /* \"#utility.yul\":15774:15785   */\n      swap2\n      pop\n        /* \"#utility.yul\":13865:15791   */\n      pop\n        /* \"#utility.yul\":13737:15791   */\n      swap3\n      swap2\n      pop\n      pop\n      jump\t// out\n        /* \"#utility.yul\":15849:16946   */\n    tag_449:\n        /* \"#utility.yul\":15960:15963   */\n      0x00\n        /* \"#utility.yul\":15996:16000   */\n      0x60\n        /* \"#utility.yul\":15991:15994   */\n      dup4\n        /* \"#utility.yul\":15987:16001   */\n      add\n        /* \"#utility.yul\":16099:16103   */\n      0x00\n        /* \"#utility.yul\":16092:16097   */\n      dup4\n        /* \"#utility.yul\":16088:16104   */\n      add\n        /* \"#utility.yul\":16082:16105   */\n      mload\n        /* \"#utility.yul\":16152:16155   */\n      dup5\n        /* \"#utility.yul\":16146:16150   */\n      dup3\n        /* \"#utility.yul\":16142:16156   */\n      sub\n        /* \"#utility.yul\":16135:16139   */\n      0x00\n        /* \"#utility.yul\":16130:16133   */\n      dup7\n        /* \"#utility.yul\":16126:16140   */\n      add\n        /* \"#utility.yul\":16119:16157   */\n      mstore\n        /* \"#utility.yul\":16178:16301   */\n      tag_451\n        /* \"#utility.yul\":16296:16300   */\n      dup3\n        /* \"#utility.yul\":16282:16294   */\n      dup3\n        /* \"#utility.yul\":16178:16301   */\n      tag_400\n      jump\t// in\n    tag_451:\n        /* \"#utility.yul\":16170:16301   */\n      swap2\n      pop\n        /* \"#utility.yul\":16011:16312   */\n      pop\n        /* \"#utility.yul\":16399:16403   */\n      0x20\n        /* \"#utility.yul\":16392:16397   */\n      dup4\n        /* \"#utility.yul\":16388:16404   */\n      add\n        /* \"#utility.yul\":16382:16405   */\n      mload\n        /* \"#utility.yul\":16452:16455   */\n      dup5\n        /* \"#utility.yul\":16446:16450   */\n      dup3\n        /* \"#utility.yul\":16442:16456   */\n      sub\n        /* \"#utility.yul\":16435:16439   */\n      0x20\n        /* \"#utility.yul\":16430:16433   */\n      dup7\n        /* \"#utility.yul\":16426:16440   */\n      add\n        /* \"#utility.yul\":16419:16457   */\n      mstore\n        /* \"#utility.yul\":16478:16601   */\n      tag_452\n        /* \"#utility.yul\":16596:16600   */\n      dup3\n        /* \"#utility.yul\":16582:16594   */\n      dup3\n        /* \"#utility.yul\":16478:16601   */\n      tag_400\n      jump\t// in\n    tag_452:\n        /* \"#utility.yul\":16470:16601   */\n      swap2\n      pop\n        /* \"#utility.yul\":16322:16612   */\n      pop\n        /* \"#utility.yul\":16706:16710   */\n      0x40\n        /* \"#utility.yul\":16699:16704   */\n      dup4\n        /* \"#utility.yul\":16695:16711   */\n      add\n        /* \"#utility.yul\":16689:16712   */\n      mload\n        /* \"#utility.yul\":16759:16762   */\n      dup5\n        /* \"#utility.yul\":16753:16757   */\n      dup3\n        /* \"#utility.yul\":16749:16763   */\n      sub\n        /* \"#utility.yul\":16742:16746   */\n      0x40\n        /* \"#utility.yul\":16737:16740   */\n      dup7\n        /* \"#utility.yul\":16733:16747   */\n      add\n        /* \"#utility.yul\":16726:16764   */\n      mstore\n        /* \"#utility.yul\":16785:16908   */\n      tag_453\n        /* \"#utility.yul\":16903:16907   */\n      dup3\n        /* \"#utility.yul\":16889:16901   */\n      dup3\n        /* \"#utility.yul\":16785:16908   */\n      tag_400\n      jump\t// in\n    tag_453:\n        /* \"#utility.yul\":16777:16908   */\n      swap2\n      pop\n        /* \"#utility.yul\":16622:16919   */\n      pop\n        /* \"#utility.yul\":16936:16940   */\n      dup1\n        /* \"#utility.yul\":16929:16940   */\n      swap2\n      pop\n        /* \"#utility.yul\":15965:16946   */\n      pop\n        /* \"#utility.yul\":15849:16946   */\n      swap3\n      swap2\n      pop\n      pop\n      jump\t// out\n        /* \"#utility.yul\":16952:17060   */\n    tag_448:\n        /* \"#utility.yul\":17029:17053   */\n      tag_455\n        /* \"#utility.yul\":17047:17052   */\n      dup2\n        /* \"#utility.yul\":17029:17053   */\n      tag_456\n      jump\t// in\n    tag_455:\n        /* \"#utility.yul\":17024:17027   */\n      dup3\n        /* \"#utility.yul\":17017:17054   */\n      mstore\n        /* \"#utility.yul\":16952:17060   */\n      pop\n      pop\n      jump\t// out\n        /* \"#utility.yul\":17066:17184   */\n    tag_457:\n        /* \"#utility.yul\":17153:17177   */\n      tag_459\n        /* \"#utility.yul\":17171:17176   */\n      dup2\n        /* \"#utility.yul\":17153:17177   */\n      tag_456\n      jump\t// in\n    tag_459:\n        /* \"#utility.yul\":17148:17151   */\n      dup3\n        /* \"#utility.yul\":17141:17178   */\n      mstore\n        /* \"#utility.yul\":17066:17184   */\n      pop\n      pop\n      jump\t// out\n        /* \"#utility.yul\":17190:18107   */\n    tag_49:\n        /* \"#utility.yul\":17447:17451   */\n      0x00\n        /* \"#utility.yul\":17485:17488   */\n      0x80\n        /* \"#utility.yul\":17474:17483   */\n      dup3\n        /* \"#utility.yul\":17470:17489   */\n      add\n        /* \"#utility.yul\":17462:17489   */\n      swap1\n      pop\n        /* \"#utility.yul\":17535:17544   */\n      dup2\n        /* \"#utility.yul\":17529:17533   */\n      dup2\n        /* \"#utility.yul\":17525:17545   */\n      sub\n        /* \"#utility.yul\":17521:17522   */\n      0x00\n        /* \"#utility.yul\":17510:17519   */\n      dup4\n        /* \"#utility.yul\":17506:17523   */\n      add\n        /* \"#utility.yul\":17499:17546   */\n      mstore\n        /* \"#utility.yul\":17563:17641   */\n      tag_461\n        /* \"#utility.yul\":17636:17640   */\n      dup2\n        /* \"#utility.yul\":17627:17633   */\n      dup8\n        /* \"#utility.yul\":17563:17641   */\n      tag_423\n      jump\t// in\n    tag_461:\n        /* \"#utility.yul\":17555:17641   */\n      swap1\n      pop\n        /* \"#utility.yul\":17688:17697   */\n      dup2\n        /* \"#utility.yul\":17682:17686   */\n      dup2\n        /* \"#utility.yul\":17678:17698   */\n      sub\n        /* \"#utility.yul\":17673:17675   */\n      0x20\n        /* \"#utility.yul\":17662:17671   */\n      dup4\n        /* \"#utility.yul\":17658:17676   */\n      add\n        /* \"#utility.yul\":17651:17699   */\n      mstore\n        /* \"#utility.yul\":17716:17794   */\n      tag_462\n        /* \"#utility.yul\":17789:17793   */\n      dup2\n        /* \"#utility.yul\":17780:17786   */\n      dup7\n        /* \"#utility.yul\":17716:17794   */\n      tag_423\n      jump\t// in\n    tag_462:\n        /* \"#utility.yul\":17708:17794   */\n      swap1\n      pop\n        /* \"#utility.yul\":17841:17850   */\n      dup2\n        /* \"#utility.yul\":17835:17839   */\n      dup2\n        /* \"#utility.yul\":17831:17851   */\n      sub\n        /* \"#utility.yul\":17826:17828   */\n      0x40\n        /* \"#utility.yul\":17815:17824   */\n      dup4\n        /* \"#utility.yul\":17811:17829   */\n      add\n        /* \"#utility.yul\":17804:17852   */\n      mstore\n        /* \"#utility.yul\":17869:17947   */\n      tag_463\n        /* \"#utility.yul\":17942:17946   */\n      dup2\n        /* \"#utility.yul\":17933:17939   */\n      dup6\n        /* \"#utility.yul\":17869:17947   */\n      tag_423\n      jump\t// in\n    tag_463:\n        /* \"#utility.yul\":17861:17947   */\n      swap1\n      pop\n        /* \"#utility.yul\":17994:18003   */\n      dup2\n        /* \"#utility.yul\":17988:17992   */\n      dup2\n        /* \"#utility.yul\":17984:18004   */\n      sub\n        /* \"#utility.yul\":17979:17981   */\n      0x60\n        /* \"#utility.yul\":17968:17977   */\n      dup4\n        /* \"#utility.yul\":17964:17982   */\n      add\n        /* \"#utility.yul\":17957:18005   */\n      mstore\n        /* \"#utility.yul\":18022:18100   */\n      tag_464\n        /* \"#utility.yul\":18095:18099   */\n      dup2\n        /* \"#utility.yul\":18086:18092   */\n      dup5\n        /* \"#utility.yul\":18022:18100   */\n      tag_423\n      jump\t// in\n    tag_464:\n        /* \"#utility.yul\":18014:18100   */\n      swap1\n      pop\n        /* \"#utility.yul\":17190:18107   */\n      swap6\n      swap5\n      pop\n      pop\n      pop\n      pop\n      pop\n      jump\t// out\n        /* \"#utility.yul\":18113:18996   */\n    tag_41:\n        /* \"#utility.yul\":18406:18410   */\n      0x00\n        /* \"#utility.yul\":18444:18446   */\n      0x60\n        /* \"#utility.yul\":18433:18442   */\n      dup3\n        /* \"#utility.yul\":18429:18447   */\n      add\n        /* \"#utility.yul\":18421:18447   */\n      swap1\n      pop\n        /* \"#utility.yul\":18493:18502   */\n      dup2\n        /* \"#utility.yul\":18487:18491   */\n      dup2\n        /* \"#utility.yul\":18483:18503   */\n      sub\n        /* \"#utility.yul\":18479:18480   */\n      0x00\n        /* \"#utility.yul\":18468:18477   */\n      dup4\n        /* \"#utility.yul\":18464:18481   */\n      add\n        /* \"#utility.yul\":18457:18504   */\n      mstore\n        /* \"#utility.yul\":18521:18633   */\n      tag_466\n        /* \"#utility.yul\":18628:18632   */\n      dup2\n        /* \"#utility.yul\":18619:18625   */\n      dup7\n        /* \"#utility.yul\":18521:18633   */\n      tag_438\n      jump\t// in\n    tag_466:\n        /* \"#utility.yul\":18513:18633   */\n      swap1\n      pop\n        /* \"#utility.yul\":18680:18689   */\n      dup2\n        /* \"#utility.yul\":18674:18678   */\n      dup2\n        /* \"#utility.yul\":18670:18690   */\n      sub\n        /* \"#utility.yul\":18665:18667   */\n      0x20\n        /* \"#utility.yul\":18654:18663   */\n      dup4\n        /* \"#utility.yul\":18650:18668   */\n      add\n        /* \"#utility.yul\":18643:18691   */\n      mstore\n        /* \"#utility.yul\":18708:18814   */\n      tag_467\n        /* \"#utility.yul\":18809:18813   */\n      dup2\n        /* \"#utility.yul\":18800:18806   */\n      dup6\n        /* \"#utility.yul\":18708:18814   */\n      tag_430\n      jump\t// in\n    tag_467:\n        /* \"#utility.yul\":18700:18814   */\n      swap1\n      pop\n        /* \"#utility.yul\":18861:18870   */\n      dup2\n        /* \"#utility.yul\":18855:18859   */\n      dup2\n        /* \"#utility.yul\":18851:18871   */\n      sub\n        /* \"#utility.yul\":18846:18848   */\n      0x40\n        /* \"#utility.yul\":18835:18844   */\n      dup4\n        /* \"#utility.yul\":18831:18849   */\n      add\n        /* \"#utility.yul\":18824:18872   */\n      mstore\n        /* \"#utility.yul\":18889:18989   */\n      tag_468\n        /* \"#utility.yul\":18984:18988   */\n      dup2\n        /* \"#utility.yul\":18975:18981   */\n      dup5\n        /* \"#utility.yul\":18889:18989   */\n      tag_449\n      jump\t// in\n    tag_468:\n        /* \"#utility.yul\":18881:18989   */\n      swap1\n      pop\n        /* \"#utility.yul\":18113:18996   */\n      swap5\n      swap4\n      pop\n      pop\n      pop\n      pop\n      jump\t// out\n        /* \"#utility.yul\":19002:19224   */\n    tag_21:\n        /* \"#utility.yul\":19095:19099   */\n      0x00\n        /* \"#utility.yul\":19133:19135   */\n      0x20\n        /* \"#utility.yul\":19122:19131   */\n      dup3\n        /* \"#utility.yul\":19118:19136   */\n      add\n        /* \"#utility.yul\":19110:19136   */\n      swap1\n      pop\n        /* \"#utility.yul\":19146:19217   */\n      tag_470\n        /* \"#utility.yul\":19214:19215   */\n      0x00\n        /* \"#utility.yul\":19203:19212   */\n      dup4\n        /* \"#utility.yul\":19199:19216   */\n      add\n        /* \"#utility.yul\":19190:19196   */\n      dup5\n        /* \"#utility.yul\":19146:19217   */\n      tag_457\n      jump\t// in\n    tag_470:\n        /* \"#utility.yul\":19002:19224   */\n      swap3\n      swap2\n      pop\n      pop\n      jump\t// out\n        /* \"#utility.yul\":19230:19359   */\n    tag_277:\n        /* \"#utility.yul\":19264:19270   */\n      0x00\n        /* \"#utility.yul\":19291:19311   */\n      tag_472\n      tag_473\n      jump\t// in\n    tag_472:\n        /* \"#utility.yul\":19281:19311   */\n      swap1\n      pop\n        /* \"#utility.yul\":19320:19353   */\n      tag_474\n        /* \"#utility.yul\":19348:19352   */\n      dup3\n        /* \"#utility.yul\":19340:19346   */\n      dup3\n        /* \"#utility.yul\":19320:19353   */\n      tag_475\n      jump\t// in\n    tag_474:\n        /* \"#utility.yul\":19230:19359   */\n      swap2\n      swap1\n      pop\n      jump\t// out\n        /* \"#utility.yul\":19365:19440   */\n    tag_473:\n        /* \"#utility.yul\":19398:19404   */\n      0x00\n        /* \"#utility.yul\":19431:19433   */\n      0x40\n        /* \"#utility.yul\":19425:19434   */\n      mload\n        /* \"#utility.yul\":19415:19434   */\n      swap1\n      pop\n        /* \"#utility.yul\":19365:19440   */\n      swap1\n      jump\t// out\n        /* \"#utility.yul\":19446:19767   */\n    tag_276:\n        /* \"#utility.yul\":19533:19537   */\n      0x00\n        /* \"#utility.yul\":19623:19641   */\n      0xffffffffffffffff\n        /* \"#utility.yul\":19615:19621   */\n      dup3\n        /* \"#utility.yul\":19612:19642   */\n      gt\n        /* \"#utility.yul\":19609:19665   */\n      iszero\n      tag_478\n      jumpi\n        /* \"#utility.yul\":19645:19663   */\n      tag_479\n      tag_480\n      jump\t// in\n    tag_479:\n        /* \"#utility.yul\":19609:19665   */\n    tag_478:\n        /* \"#utility.yul\":19695:19699   */\n      0x20\n        /* \"#utility.yul\":19687:19693   */\n      dup3\n        /* \"#utility.yul\":19683:19700   */\n      mul\n        /* \"#utility.yul\":19675:19700   */\n      swap1\n      pop\n        /* \"#utility.yul\":19755:19759   */\n      0x20\n        /* \"#utility.yul\":19749:19753   */\n      dup2\n        /* \"#utility.yul\":19745:19760   */\n      add\n        /* \"#utility.yul\":19737:19760   */\n      swap1\n      pop\n        /* \"#utility.yul\":19446:19767   */\n      swap2\n      swap1\n      pop\n      jump\t// out\n        /* \"#utility.yul\":19773:20081   */\n    tag_293:\n        /* \"#utility.yul\":19835:19839   */\n      0x00\n        /* \"#utility.yul\":19925:19943   */\n      0xffffffffffffffff\n        /* \"#utility.yul\":19917:19923   */\n      dup3\n        /* \"#utility.yul\":19914:19944   */\n      gt\n        /* \"#utility.yul\":19911:19967   */\n      iszero\n      tag_482\n      jumpi\n        /* \"#utility.yul\":19947:19965   */\n      tag_483\n      tag_480\n      jump\t// in\n    tag_483:\n        /* \"#utility.yul\":19911:19967   */\n    tag_482:\n        /* \"#utility.yul\":19985:20014   */\n      tag_484\n        /* \"#utility.yul\":20007:20013   */\n      dup3\n        /* \"#utility.yul\":19985:20014   */\n      tag_422\n      jump\t// in\n    tag_484:\n        /* \"#utility.yul\":19977:20014   */\n      swap1\n      pop\n        /* \"#utility.yul\":20069:20073   */\n      0x20\n        /* \"#utility.yul\":20063:20067   */\n      dup2\n        /* \"#utility.yul\":20059:20074   */\n      add\n        /* \"#utility.yul\":20051:20074   */\n      swap1\n      pop\n        /* \"#utility.yul\":19773:20081   */\n      swap2\n      swap1\n      pop\n      jump\t// out\n        /* \"#utility.yul\":20087:20229   */\n    tag_407:\n        /* \"#utility.yul\":20164:20168   */\n      0x00\n        /* \"#utility.yul\":20187:20190   */\n      dup2\n        /* \"#utility.yul\":20179:20190   */\n      swap1\n      pop\n        /* \"#utility.yul\":20217:20221   */\n      0x20\n        /* \"#utility.yul\":20212:20215   */\n      dup3\n        /* \"#utility.yul\":20208:20222   */\n      add\n        /* \"#utility.yul\":20200:20222   */\n      swap1\n      pop\n        /* \"#utility.yul\":20087:20229   */\n      swap2\n      swap1\n      pop\n      jump\t// out\n        /* \"#utility.yul\":20235:20359   */\n    tag_403:\n        /* \"#utility.yul\":20312:20318   */\n      0x00\n        /* \"#utility.yul\":20346:20351   */\n      dup2\n        /* \"#utility.yul\":20340:20352   */\n      mload\n        /* \"#utility.yul\":20330:20352   */\n      swap1\n      pop\n        /* \"#utility.yul\":20235:20359   */\n      swap2\n      swap1\n      pop\n      jump\t// out\n        /* \"#utility.yul\":20365:20464   */\n    tag_416:\n        /* \"#utility.yul\":20417:20423   */\n      0x00\n        /* \"#utility.yul\":20451:20456   */\n      dup2\n        /* \"#utility.yul\":20445:20457   */\n      mload\n        /* \"#utility.yul\":20435:20457   */\n      swap1\n      pop\n        /* \"#utility.yul\":20365:20464   */\n      swap2\n      swap1\n      pop\n      jump\t// out\n        /* \"#utility.yul\":20470:20593   */\n    tag_413:\n        /* \"#utility.yul\":20550:20554   */\n      0x00\n        /* \"#utility.yul\":20582:20586   */\n      0x20\n        /* \"#utility.yul\":20577:20580   */\n      dup3\n        /* \"#utility.yul\":20573:20587   */\n      add\n        /* \"#utility.yul\":20565:20587   */\n      swap1\n      pop\n        /* \"#utility.yul\":20470:20593   */\n      swap2\n      swap1\n      pop\n      jump\t// out\n        /* \"#utility.yul\":20599:20783   */\n    tag_405:\n        /* \"#utility.yul\":20698:20709   */\n      0x00\n        /* \"#utility.yul\":20732:20738   */\n      dup3\n        /* \"#utility.yul\":20727:20730   */\n      dup3\n        /* \"#utility.yul\":20720:20739   */\n      mstore\n        /* \"#utility.yul\":20772:20776   */\n      0x20\n        /* \"#utility.yul\":20767:20770   */\n      dup3\n        /* \"#utility.yul\":20763:20777   */\n      add\n        /* \"#utility.yul\":20748:20777   */\n      swap1\n      pop\n        /* \"#utility.yul\":20599:20783   */\n      swap3\n      swap2\n      pop\n      pop\n      jump\t// out\n        /* \"#utility.yul\":20789:20948   */\n    tag_418:\n        /* \"#utility.yul\":20863:20874   */\n      0x00\n        /* \"#utility.yul\":20897:20903   */\n      dup3\n        /* \"#utility.yul\":20892:20895   */\n      dup3\n        /* \"#utility.yul\":20885:20904   */\n      mstore\n        /* \"#utility.yul\":20937:20941   */\n      0x20\n        /* \"#utility.yul\":20932:20935   */\n      dup3\n        /* \"#utility.yul\":20928:20942   */\n      add\n        /* \"#utility.yul\":20913:20942   */\n      swap1\n      pop\n        /* \"#utility.yul\":20789:20948   */\n      swap3\n      swap2\n      pop\n      pop\n      jump\t// out\n        /* \"#utility.yul\":20954:21123   */\n    tag_427:\n        /* \"#utility.yul\":21038:21049   */\n      0x00\n        /* \"#utility.yul\":21072:21078   */\n      dup3\n        /* \"#utility.yul\":21067:21070   */\n      dup3\n        /* \"#utility.yul\":21060:21079   */\n      mstore\n        /* \"#utility.yul\":21112:21116   */\n      0x20\n        /* \"#utility.yul\":21107:21110   */\n      dup3\n        /* \"#utility.yul\":21103:21117   */\n      add\n        /* \"#utility.yul\":21088:21117   */\n      swap1\n      pop\n        /* \"#utility.yul\":20954:21123   */\n      swap3\n      swap2\n      pop\n      pop\n      jump\t// out\n        /* \"#utility.yul\":21129:21225   */\n    tag_399:\n        /* \"#utility.yul\":21166:21173   */\n      0x00\n        /* \"#utility.yul\":21195:21219   */\n      tag_493\n        /* \"#utility.yul\":21213:21218   */\n      dup3\n        /* \"#utility.yul\":21195:21219   */\n      tag_494\n      jump\t// in\n    tag_493:\n        /* \"#utility.yul\":21184:21219   */\n      swap1\n      pop\n        /* \"#utility.yul\":21129:21225   */\n      swap2\n      swap1\n      pop\n      jump\t// out\n        /* \"#utility.yul\":21231:21357   */\n    tag_494:\n        /* \"#utility.yul\":21268:21275   */\n      0x00\n        /* \"#utility.yul\":21308:21350   */\n      0xffffffffffffffffffffffffffffffffffffffff\n        /* \"#utility.yul\":21301:21306   */\n      dup3\n        /* \"#utility.yul\":21297:21351   */\n      and\n        /* \"#utility.yul\":21286:21351   */\n      swap1\n      pop\n        /* \"#utility.yul\":21231:21357   */\n      swap2\n      swap1\n      pop\n      jump\t// out\n        /* \"#utility.yul\":21363:21440   */\n    tag_456:\n        /* \"#utility.yul\":21400:21407   */\n      0x00\n        /* \"#utility.yul\":21429:21434   */\n      dup2\n        /* \"#utility.yul\":21418:21434   */\n      swap1\n      pop\n        /* \"#utility.yul\":21363:21440   */\n      swap2\n      swap1\n      pop\n      jump\t// out\n        /* \"#utility.yul\":21446:21600   */\n    tag_298:\n        /* \"#utility.yul\":21530:21536   */\n      dup3\n        /* \"#utility.yul\":21525:21528   */\n      dup2\n        /* \"#utility.yul\":21520:21523   */\n      dup4\n        /* \"#utility.yul\":21507:21537   */\n      calldatacopy\n        /* \"#utility.yul\":21592:21593   */\n      0x00\n        /* \"#utility.yul\":21583:21589   */\n      dup4\n        /* \"#utility.yul\":21578:21581   */\n      dup4\n        /* \"#utility.yul\":21574:21590   */\n      add\n        /* \"#utility.yul\":21567:21594   */\n      mstore\n        /* \"#utility.yul\":21446:21600   */\n      pop\n      pop\n      pop\n      jump\t// out\n        /* \"#utility.yul\":21606:21913   */\n    tag_420:\n        /* \"#utility.yul\":21674:21675   */\n      0x00\n        /* \"#utility.yul\":21684:21797   */\n    tag_499:\n        /* \"#utility.yul\":21698:21704   */\n      dup4\n        /* \"#utility.yul\":21695:21696   */\n      dup2\n        /* \"#utility.yul\":21692:21705   */\n      lt\n        /* \"#utility.yul\":21684:21797   */\n      iszero\n      tag_501\n      jumpi\n        /* \"#utility.yul\":21783:21784   */\n      dup1\n        /* \"#utility.yul\":21778:21781   */\n      dup3\n        /* \"#utility.yul\":21774:21785   */\n      add\n        /* \"#utility.yul\":21768:21786   */\n      mload\n        /* \"#utility.yul\":21764:21765   */\n      dup2\n        /* \"#utility.yul\":21759:21762   */\n      dup5\n        /* \"#utility.yul\":21755:21766   */\n      add\n        /* \"#utility.yul\":21748:21787   */\n      mstore\n        /* \"#utility.yul\":21720:21722   */\n      0x20\n        /* \"#utility.yul\":21717:21718   */\n      dup2\n        /* \"#utility.yul\":21713:21723   */\n      add\n        /* \"#utility.yul\":21708:21723   */\n      swap1\n      pop\n        /* \"#utility.yul\":21684:21797   */\n      jump(tag_499)\n    tag_501:\n        /* \"#utility.yul\":21815:21821   */\n      dup4\n        /* \"#utility.yul\":21812:21813   */\n      dup2\n        /* \"#utility.yul\":21809:21822   */\n      gt\n        /* \"#utility.yul\":21806:21907   */\n      iszero\n      tag_502\n      jumpi\n        /* \"#utility.yul\":21895:21896   */\n      0x00\n        /* \"#utility.yul\":21886:21892   */\n      dup5\n        /* \"#utility.yul\":21881:21884   */\n      dup5\n        /* \"#utility.yul\":21877:21893   */\n      add\n        /* \"#utility.yul\":21870:21897   */\n      mstore\n        /* \"#utility.yul\":21806:21907   */\n    tag_502:\n        /* \"#utility.yul\":21655:21913   */\n      pop\n        /* \"#utility.yul\":21606:21913   */\n      pop\n      pop\n      pop\n      jump\t// out\n        /* \"#utility.yul\":21919:22239   */\n    tag_99:\n        /* \"#utility.yul\":21963:21969   */\n      0x00\n        /* \"#utility.yul\":22000:22001   */\n      0x02\n        /* \"#utility.yul\":21994:21998   */\n      dup3\n        /* \"#utility.yul\":21990:22002   */\n      div\n        /* \"#utility.yul\":21980:22002   */\n      swap1\n      pop\n        /* \"#utility.yul\":22047:22048   */\n      0x01\n        /* \"#utility.yul\":22041:22045   */\n      dup3\n        /* \"#utility.yul\":22037:22049   */\n      and\n        /* \"#utility.yul\":22068:22086   */\n      dup1\n        /* \"#utility.yul\":22058:22139   */\n      tag_504\n      jumpi\n        /* \"#utility.yul\":22124:22128   */\n      0x7f\n        /* \"#utility.yul\":22116:22122   */\n      dup3\n        /* \"#utility.yul\":22112:22129   */\n      and\n        /* \"#utility.yul\":22102:22129   */\n      swap2\n      pop\n        /* \"#utility.yul\":22058:22139   */\n    tag_504:\n        /* \"#utility.yul\":22186:22188   */\n      0x20\n        /* \"#utility.yul\":22178:22184   */\n      dup3\n        /* \"#utility.yul\":22175:22189   */\n      lt\n        /* \"#utility.yul\":22155:22173   */\n      dup2\n        /* \"#utility.yul\":22152:22190   */\n      eq\n        /* \"#utility.yul\":22149:22233   */\n      iszero\n      tag_505\n      jumpi\n        /* \"#utility.yul\":22205:22223   */\n      tag_506\n      tag_507\n      jump\t// in\n    tag_506:\n        /* \"#utility.yul\":22149:22233   */\n    tag_505:\n        /* \"#utility.yul\":21970:22239   */\n      pop\n        /* \"#utility.yul\":21919:22239   */\n      swap2\n      swap1\n      pop\n      jump\t// out\n        /* \"#utility.yul\":22245:22526   */\n    tag_475:\n        /* \"#utility.yul\":22328:22355   */\n      tag_509\n        /* \"#utility.yul\":22350:22354   */\n      dup3\n        /* \"#utility.yul\":22328:22355   */\n      tag_422\n      jump\t// in\n    tag_509:\n        /* \"#utility.yul\":22320:22326   */\n      dup2\n        /* \"#utility.yul\":22316:22356   */\n      add\n        /* \"#utility.yul\":22458:22464   */\n      dup2\n        /* \"#utility.yul\":22446:22456   */\n      dup2\n        /* \"#utility.yul\":22443:22465   */\n      lt\n        /* \"#utility.yul\":22422:22440   */\n      0xffffffffffffffff\n        /* \"#utility.yul\":22410:22420   */\n      dup3\n        /* \"#utility.yul\":22407:22441   */\n      gt\n        /* \"#utility.yul\":22404:22466   */\n      or\n        /* \"#utility.yul\":22401:22489   */\n      iszero\n      tag_510\n      jumpi\n        /* \"#utility.yul\":22469:22487   */\n      tag_511\n      tag_480\n      jump\t// in\n    tag_511:\n        /* \"#utility.yul\":22401:22489   */\n    tag_510:\n        /* \"#utility.yul\":22509:22519   */\n      dup1\n        /* \"#utility.yul\":22505:22507   */\n      0x40\n        /* \"#utility.yul\":22498:22520   */\n      mstore\n        /* \"#utility.yul\":22288:22526   */\n      pop\n        /* \"#utility.yul\":22245:22526   */\n      pop\n      pop\n      jump\t// out\n        /* \"#utility.yul\":22532:22712   */\n    tag_507:\n        /* \"#utility.yul\":22580:22657   */\n      0x4e487b7100000000000000000000000000000000000000000000000000000000\n        /* \"#utility.yul\":22577:22578   */\n      0x00\n        /* \"#utility.yul\":22570:22658   */\n      mstore\n        /* \"#utility.yul\":22677:22681   */\n      0x22\n        /* \"#utility.yul\":22674:22675   */\n      0x04\n        /* \"#utility.yul\":22667:22682   */\n      mstore\n        /* \"#utility.yul\":22701:22705   */\n      0x24\n        /* \"#utility.yul\":22698:22699   */\n      0x00\n        /* \"#utility.yul\":22691:22706   */\n      revert\n        /* \"#utility.yul\":22718:22898   */\n    tag_189:\n        /* \"#utility.yul\":22766:22843   */\n      0x4e487b7100000000000000000000000000000000000000000000000000000000\n        /* \"#utility.yul\":22763:22764   */\n      0x00\n        /* \"#utility.yul\":22756:22844   */\n      mstore\n        /* \"#utility.yul\":22863:22867   */\n      0x32\n        /* \"#utility.yul\":22860:22861   */\n      0x04\n        /* \"#utility.yul\":22853:22868   */\n      mstore\n        /* \"#utility.yul\":22887:22891   */\n      0x24\n        /* \"#utility.yul\":22884:22885   */\n      0x00\n        /* \"#utility.yul\":22877:22892   */\n      revert\n        /* \"#utility.yul\":22904:23084   */\n    tag_480:\n        /* \"#utility.yul\":22952:23029   */\n      0x4e487b7100000000000000000000000000000000000000000000000000000000\n        /* \"#utility.yul\":22949:22950   */\n      0x00\n        /* \"#utility.yul\":22942:23030   */\n      mstore\n        /* \"#utility.yul\":23049:23053   */\n      0x41\n        /* \"#utility.yul\":23046:23047   */\n      0x04\n        /* \"#utility.yul\":23039:23054   */\n      mstore\n        /* \"#utility.yul\":23073:23077   */\n      0x24\n        /* \"#utility.yul\":23070:23071   */\n      0x00\n        /* \"#utility.yul\":23063:23078   */\n      revert\n        /* \"#utility.yul\":23090:23207   */\n    tag_286:\n        /* \"#utility.yul\":23199:23200   */\n      0x00\n        /* \"#utility.yul\":23196:23197   */\n      dup1\n        /* \"#utility.yul\":23189:23201   */\n      revert\n        /* \"#utility.yul\":23213:23330   */\n    tag_280:\n        /* \"#utility.yul\":23322:23323   */\n      0x00\n        /* \"#utility.yul\":23319:23320   */\n      dup1\n        /* \"#utility.yul\":23312:23324   */\n      revert\n        /* \"#utility.yul\":23336:23453   */\n    tag_296:\n        /* \"#utility.yul\":23445:23446   */\n      0x00\n        /* \"#utility.yul\":23442:23443   */\n      dup1\n        /* \"#utility.yul\":23435:23447   */\n      revert\n        /* \"#utility.yul\":23459:23576   */\n    tag_326:\n        /* \"#utility.yul\":23568:23569   */\n      0x00\n        /* \"#utility.yul\":23565:23566   */\n      dup1\n        /* \"#utility.yul\":23558:23570   */\n      revert\n        /* \"#utility.yul\":23582:23699   */\n    tag_319:\n        /* \"#utility.yul\":23691:23692   */\n      0x00\n        /* \"#utility.yul\":23688:23689   */\n      dup1\n        /* \"#utility.yul\":23681:23693   */\n      revert\n        /* \"#utility.yul\":23705:23807   */\n    tag_422:\n        /* \"#utility.yul\":23746:23752   */\n      0x00\n        /* \"#utility.yul\":23797:23799   */\n      0x1f\n        /* \"#utility.yul\":23793:23800   */\n      not\n        /* \"#utility.yul\":23788:23790   */\n      0x1f\n        /* \"#utility.yul\":23781:23786   */\n      dup4\n        /* \"#utility.yul\":23777:23791   */\n      add\n        /* \"#utility.yul\":23773:23801   */\n      and\n        /* \"#utility.yul\":23763:23801   */\n      swap1\n      pop\n        /* \"#utility.yul\":23705:23807   */\n      swap2\n      swap1\n      pop\n      jump\t// out\n        /* \"#utility.yul\":23813:23935   */\n    tag_302:\n        /* \"#utility.yul\":23886:23910   */\n      tag_522\n        /* \"#utility.yul\":23904:23909   */\n      dup2\n        /* \"#utility.yul\":23886:23910   */\n      tag_399\n      jump\t// in\n    tag_522:\n        /* \"#utility.yul\":23879:23884   */\n      dup2\n        /* \"#utility.yul\":23876:23911   */\n      eq\n        /* \"#utility.yul\":23866:23929   */\n      tag_523\n      jumpi\n        /* \"#utility.yul\":23925:23926   */\n      0x00\n        /* \"#utility.yul\":23922:23923   */\n      dup1\n        /* \"#utility.yul\":23915:23927   */\n      revert\n        /* \"#utility.yul\":23866:23929   */\n    tag_523:\n        /* \"#utility.yul\":23813:23935   */\n      pop\n      jump\t// out\n        /* \"#utility.yul\":23941:24063   */\n    tag_315:\n        /* \"#utility.yul\":24014:24038   */\n      tag_525\n        /* \"#utility.yul\":24032:24037   */\n      dup2\n        /* \"#utility.yul\":24014:24038   */\n      tag_456\n      jump\t// in\n    tag_525:\n        /* \"#utility.yul\":24007:24012   */\n      dup2\n        /* \"#utility.yul\":24004:24039   */\n      eq\n        /* \"#utility.yul\":23994:24057   */\n      tag_526\n      jumpi\n        /* \"#utility.yul\":24053:24054   */\n      0x00\n        /* \"#utility.yul\":24050:24051   */\n      dup1\n        /* \"#utility.yul\":24043:24055   */\n      revert\n        /* \"#utility.yul\":23994:24057   */\n    tag_526:\n        /* \"#utility.yul\":23941:24063   */\n      pop\n      jump\t// out\n\n    auxdata: 0xa2646970667358221220b763d07f638997f3f2a6a1e937ac17f3d5a2f653790575b0bacfffac21d4657f64736f6c63430008070033\n}\n",
				"bytecode": {
					"linkReferences": {},
					"object": "608060405234801561001057600080fd5b506128bc806100206000396000f3fe608060405234801561001057600080fd5b506004361061009e5760003560e01c80639d983a01116100665780639d983a011461011f5780639dd9d0fd1461013b578063ed2217ef1461016d578063f96e32f814610177578063fabce08f146101aa5761009e565b80633d984d0e146100a35780636212fa02146100bf57806372828388146100dd578063958791ae146100f957806395ea375714610115575b600080fd5b6100bd60048036038101906100b89190611e24565b6101b4565b005b6100c7610338565b6040516100d491906125bd565b60405180910390f35b6100f760048036038101906100f29190611fa2565b610384565b005b610113600480360381019061010e91906120a9565b6105ec565b005b61011d6108d6565b005b61013960048036038101906101349190611ecb565b6109ab565b005b61015560048036038101906101509190611df7565b610abf565b60405161016493929190612571565b60405180910390f35b6101756114cb565b005b610191600480360381019061018c91906121de565b61151a565b6040516101a19493929190612510565b60405180910390f35b6101b26118ef565b005b6000803373ffffffffffffffffffffffffffffffffffffffff1673ffffffffffffffffffffffffffffffffffffffff168152602001908152602001600020600e01600080820160006102069190611a76565b6001820160006102169190611a76565b6002820160006102269190611a76565b5050826000803373ffffffffffffffffffffffffffffffffffffffff1673ffffffffffffffffffffffffffffffffffffffff168152602001908152602001600020600e016000019080519060200190610280929190611a97565b50816000803373ffffffffffffffffffffffffffffffffffffffff1673ffffffffffffffffffffffffffffffffffffffff168152602001908152602001600020600e0160010190805190602001906102d9929190611a97565b50806000803373ffffffffffffffffffffffffffffffffffffffff1673ffffffffffffffffffffffffffffffffffffffff168152602001908152602001600020600e016002019080519060200190610332929190611a97565b50505050565b60008060003373ffffffffffffffffffffffffffffffffffffffff1673ffffffffffffffffffffffffffffffffffffffff16815260200190815260200160002060110180549050905090565b6000803373ffffffffffffffffffffffffffffffffffffffff1673ffffffffffffffffffffffffffffffffffffffff168152602001908152602001600020600801600080820160006103d69190611af7565b6001820160006103e69190611af7565b6002820160006103f69190611af7565b6003820160006104069190611af7565b6004820160006104169190611af7565b6005820160006104269190611af7565b5050846000803373ffffffffffffffffffffffffffffffffffffffff1673ffffffffffffffffffffffffffffffffffffffff1681526020019081526020016000206008016001019080519060200190610480929190611b37565b50836000803373ffffffffffffffffffffffffffffffffffffffff1673ffffffffffffffffffffffffffffffffffffffff16815260200190815260200160002060080160020190805190602001906104d9929190611b37565b50826000803373ffffffffffffffffffffffffffffffffffffffff1673ffffffffffffffffffffffffffffffffffffffff1681526020019081526020016000206008016003019080519060200190610532929190611b37565b50816000803373ffffffffffffffffffffffffffffffffffffffff1673ffffffffffffffffffffffffffffffffffffffff168152602001908152602001600020600801600201908051906020019061058b929190611b37565b50806000803373ffffffffffffffffffffffffffffffffffffffff1673ffffffffffffffffffffffffffffffffffffffff16815260200190815260200160002060080160010190805190602001906105e4929190611b37565b505050505050565b856000803373ffffffffffffffffffffffffffffffffffffffff1673ffffffffffffffffffffffffffffffffffffffff1681526020019081526020016000206000016003019080519060200190610644929190611b37565b50846000803373ffffffffffffffffffffffffffffffffffffffff1673ffffffffffffffffffffffffffffffffffffffff168152602001908152602001600020600001600401908051906020019061069d929190611b37565b50836000803373ffffffffffffffffffffffffffffffffffffffff1673ffffffffffffffffffffffffffffffffffffffff16815260200190815260200160002060000160050190805190602001906106f6929190611b37565b50826000803373ffffffffffffffffffffffffffffffffffffffff1673ffffffffffffffffffffffffffffffffffffffff168152602001908152602001600020600001600601908051906020019061074f929190611b37565b50806000803373ffffffffffffffffffffffffffffffffffffffff1673ffffffffffffffffffffffffffffffffffffffff16815260200190815260200160002060000160010190805190602001906107a8929190611b37565b50336000803373ffffffffffffffffffffffffffffffffffffffff1673ffffffffffffffffffffffffffffffffffffffff16815260200190815260200160002060000160020160006101000a81548173ffffffffffffffffffffffffffffffffffffffff021916908373ffffffffffffffffffffffffffffffffffffffff160217905550426000803373ffffffffffffffffffffffffffffffffffffffff1673ffffffffffffffffffffffffffffffffffffffff16815260200190815260200160002060000160070181905550816000803373ffffffffffffffffffffffffffffffffffffffff1673ffffffffffffffffffffffffffffffffffffffff16815260200190815260200160002060000160000190805190602001906108cd929190611b37565b50505050505050565b6000803373ffffffffffffffffffffffffffffffffffffffff1673ffffffffffffffffffffffffffffffffffffffff168152602001908152602001600020600001600080820160006109289190611af7565b6001820160006109389190611af7565b6002820160006101000a81549073ffffffffffffffffffffffffffffffffffffffff021916905560038201600061096f9190611af7565b60048201600061097f9190611af7565b60058201600061098f9190611af7565b60068201600061099f9190611af7565b60078201600090555050565b6109b3611bbd565b8481600001819052508381602001819052508281604001819052508181606001819052506000803373ffffffffffffffffffffffffffffffffffffffff1673ffffffffffffffffffffffffffffffffffffffff1681526020019081526020016000206011018190806001815401808255809150506001900390600052602060002090600402016000909190919091506000820151816000019080519060200190610a5e929190611b37565b506020820151816001019080519060200190610a7b929190611b37565b506040820151816002019080519060200190610a98929190611b37565b506060820151816003019080519060200190610ab5929190611b37565b5050505050505050565b60006020528060005260406000206000915090508060000160405180610100016040529081600082018054610af39061273e565b80601f0160208091040260200160405190810160405280929190818152602001828054610b1f9061273e565b8015610b6c5780601f10610b4157610100808354040283529160200191610b6c565b820191906000526020600020905b815481529060010190602001808311610b4f57829003601f168201915b50505050508152602001600182018054610b859061273e565b80601f0160208091040260200160405190810160405280929190818152602001828054610bb19061273e565b8015610bfe5780601f10610bd357610100808354040283529160200191610bfe565b820191906000526020600020905b815481529060010190602001808311610be157829003601f168201915b505050505081526020016002820160009054906101000a900473ffffffffffffffffffffffffffffffffffffffff1673ffffffffffffffffffffffffffffffffffffffff1673ffffffffffffffffffffffffffffffffffffffff168152602001600382018054610c6d9061273e565b80601f0160208091040260200160405190810160405280929190818152602001828054610c999061273e565b8015610ce65780601f10610cbb57610100808354040283529160200191610ce6565b820191906000526020600020905b815481529060010190602001808311610cc957829003601f168201915b50505050508152602001600482018054610cff9061273e565b80601f0160208091040260200160405190810160405280929190818152602001828054610d2b9061273e565b8015610d785780601f10610d4d57610100808354040283529160200191610d78565b820191906000526020600020905b815481529060010190602001808311610d5b57829003601f168201915b50505050508152602001600582018054610d919061273e565b80601f0160208091040260200160405190810160405280929190818152602001828054610dbd9061273e565b8015610e0a5780601f10610ddf57610100808354040283529160200191610e0a565b820191906000526020600020905b815481529060010190602001808311610ded57829003601f168201915b50505050508152602001600682018054610e239061273e565b80601f0160208091040260200160405190810160405280929190818152602001828054610e4f9061273e565b8015610e9c5780601f10610e7157610100808354040283529160200191610e9c565b820191906000526020600020905b815481529060010190602001808311610e7f57829003601f168201915b5050505050815260200160078201548152505090806008016040518060c0016040529081600082018054610ecf9061273e565b80601f0160208091040260200160405190810160405280929190818152602001828054610efb9061273e565b8015610f485780601f10610f1d57610100808354040283529160200191610f48565b820191906000526020600020905b815481529060010190602001808311610f2b57829003601f168201915b50505050508152602001600182018054610f619061273e565b80601f0160208091040260200160405190810160405280929190818152602001828054610f8d9061273e565b8015610fda5780601f10610faf57610100808354040283529160200191610fda565b820191906000526020600020905b815481529060010190602001808311610fbd57829003601f168201915b50505050508152602001600282018054610ff39061273e565b80601f016020809104026020016040519081016040528092919081815260200182805461101f9061273e565b801561106c5780601f106110415761010080835404028352916020019161106c565b820191906000526020600020905b81548152906001019060200180831161104f57829003601f168201915b505050505081526020016003820180546110859061273e565b80601f01602080910402602001604051908101604052809291908181526020018280546110b19061273e565b80156110fe5780601f106110d3576101008083540402835291602001916110fe565b820191906000526020600020905b8154815290600101906020018083116110e157829003601f168201915b505050505081526020016004820180546111179061273e565b80601f01602080910402602001604051908101604052809291908181526020018280546111439061273e565b80156111905780601f1061116557610100808354040283529160200191611190565b820191906000526020600020905b81548152906001019060200180831161117357829003601f168201915b505050505081526020016005820180546111a99061273e565b80601f01602080910402602001604051908101604052809291908181526020018280546111d59061273e565b80156112225780601f106111f757610100808354040283529160200191611222565b820191906000526020600020905b81548152906001019060200180831161120557829003601f168201915b5050505050815250509080600e0160405180606001604052908160008201805480602002602001604051908101604052809291908181526020016000905b8282101561130c57838290600052602060002001805461127f9061273e565b80601f01602080910402602001604051908101604052809291908181526020018280546112ab9061273e565b80156112f85780601f106112cd576101008083540402835291602001916112f8565b820191906000526020600020905b8154815290600101906020018083116112db57829003601f168201915b505050505081526020019060010190611260565b50505050815260200160018201805480602002602001604051908101604052809291908181526020016000905b828210156113e55783829060005260206000200180546113589061273e565b80601f01602080910402602001604051908101604052809291908181526020018280546113849061273e565b80156113d15780601f106113a6576101008083540402835291602001916113d1565b820191906000526020600020905b8154815290600101906020018083116113b457829003601f168201915b505050505081526020019060010190611339565b50505050815260200160028201805480602002602001604051908101604052809291908181526020016000905b828210156114be5783829060005260206000200180546114319061273e565b80601f016020809104026020016040519081016040528092919081815260200182805461145d9061273e565b80156114aa5780601f1061147f576101008083540402835291602001916114aa565b820191906000526020600020905b81548152906001019060200180831161148d57829003601f168201915b505050505081526020019060010190611412565b5050505081525050905083565b6000803373ffffffffffffffffffffffffffffffffffffffff1673ffffffffffffffffffffffffffffffffffffffff16815260200190815260200160002060110160006115189190611be5565b565b6060806060806000803373ffffffffffffffffffffffffffffffffffffffff1673ffffffffffffffffffffffffffffffffffffffff1681526020019081526020016000206011018581548110611573576115726127d0565b5b90600052602060002090600402016000016000803373ffffffffffffffffffffffffffffffffffffffff1673ffffffffffffffffffffffffffffffffffffffff16815260200190815260200160002060110186815481106115d7576115d66127d0565b5b90600052602060002090600402016001016000803373ffffffffffffffffffffffffffffffffffffffff1673ffffffffffffffffffffffffffffffffffffffff168152602001908152602001600020601101878154811061163b5761163a6127d0565b5b90600052602060002090600402016002016000803373ffffffffffffffffffffffffffffffffffffffff1673ffffffffffffffffffffffffffffffffffffffff168152602001908152602001600020601101888154811061169f5761169e6127d0565b5b90600052602060002090600402016003018380546116bc9061273e565b80601f01602080910402602001604051908101604052809291908181526020018280546116e89061273e565b80156117355780601f1061170a57610100808354040283529160200191611735565b820191906000526020600020905b81548152906001019060200180831161171857829003601f168201915b505050505093508280546117489061273e565b80601f01602080910402602001604051908101604052809291908181526020018280546117749061273e565b80156117c15780601f10611796576101008083540402835291602001916117c1565b820191906000526020600020905b8154815290600101906020018083116117a457829003601f168201915b505050505092508180546117d49061273e565b80601f01602080910402602001604051908101604052809291908181526020018280546118009061273e565b801561184d5780601f106118225761010080835404028352916020019161184d565b820191906000526020600020905b81548152906001019060200180831161183057829003601f168201915b505050505091508080546118609061273e565b80601f016020809104026020016040519081016040528092919081815260200182805461188c9061273e565b80156118d95780601f106118ae576101008083540402835291602001916118d9565b820191906000526020600020905b8154815290600101906020018083116118bc57829003601f168201915b5050505050905093509350935093509193509193565b6000803373ffffffffffffffffffffffffffffffffffffffff1673ffffffffffffffffffffffffffffffffffffffff1681526020019081526020016000206000808201600080820160006119439190611af7565b6001820160006119539190611af7565b6002820160006101000a81549073ffffffffffffffffffffffffffffffffffffffff021916905560038201600061198a9190611af7565b60048201600061199a9190611af7565b6005820160006119aa9190611af7565b6006820160006119ba9190611af7565b6007820160009055505060088201600080820160006119d99190611af7565b6001820160006119e99190611af7565b6002820160006119f99190611af7565b600382016000611a099190611af7565b600482016000611a199190611af7565b600582016000611a299190611af7565b5050600e820160008082016000611a409190611a76565b600182016000611a509190611a76565b600282016000611a609190611a76565b5050601182016000611a729190611be5565b5050565b5080546000825590600052602060002090810190611a949190611c09565b50565b828054828255906000526020600020908101928215611ae6579160200282015b82811115611ae5578251829080519060200190611ad5929190611b37565b5091602001919060010190611ab7565b5b509050611af39190611c09565b5090565b508054611b039061273e565b6000825580601f10611b155750611b34565b601f016020900490600052602060002090810190611b339190611c2d565b5b50565b828054611b439061273e565b90600052602060002090601f016020900481019282611b655760008555611bac565b82601f10611b7e57805160ff1916838001178555611bac565b82800160010185558215611bac579182015b82811115611bab578251825591602001919060010190611b90565b5b509050611bb99190611c2d565b5090565b6040518060800160405280606081526020016060815260200160608152602001606081525090565b5080546000825560040290600052602060002090810190611c069190611c4a565b50565b5b80821115611c295760008181611c209190611af7565b50600101611c0a565b5090565b5b80821115611c46576000816000905550600101611c2e565b5090565b5b80821115611c9d5760008082016000611c649190611af7565b600182016000611c749190611af7565b600282016000611c849190611af7565b600382016000611c949190611af7565b50600401611c4b565b5090565b6000611cb4611caf846125fd565b6125d8565b90508083825260208201905082856020860282011115611cd757611cd6612833565b5b60005b85811015611d2557813567ffffffffffffffff811115611cfd57611cfc61282e565b5b808601611d0a8982611db4565b85526020850194506020840193505050600181019050611cda565b5050509392505050565b6000611d42611d3d84612629565b6125d8565b905082815260208101848484011115611d5e57611d5d612838565b5b611d698482856126fc565b509392505050565b600081359050611d8081612858565b92915050565b600082601f830112611d9b57611d9a61282e565b5b8135611dab848260208601611ca1565b91505092915050565b600082601f830112611dc957611dc861282e565b5b8135611dd9848260208601611d2f565b91505092915050565b600081359050611df18161286f565b92915050565b600060208284031215611e0d57611e0c612842565b5b6000611e1b84828501611d71565b91505092915050565b600080600060608486031215611e3d57611e3c612842565b5b600084013567ffffffffffffffff811115611e5b57611e5a61283d565b5b611e6786828701611d86565b935050602084013567ffffffffffffffff811115611e8857611e8761283d565b5b611e9486828701611d86565b925050604084013567ffffffffffffffff811115611eb557611eb461283d565b5b611ec186828701611d86565b9150509250925092565b60008060008060808587031215611ee557611ee4612842565b5b600085013567ffffffffffffffff811115611f0357611f0261283d565b5b611f0f87828801611db4565b945050602085013567ffffffffffffffff811115611f3057611f2f61283d565b5b611f3c87828801611db4565b935050604085013567ffffffffffffffff811115611f5d57611f5c61283d565b5b611f6987828801611db4565b925050606085013567ffffffffffffffff811115611f8a57611f8961283d565b5b611f9687828801611db4565b91505092959194509250565b600080600080600060a08688031215611fbe57611fbd612842565b5b600086013567ffffffffffffffff811115611fdc57611fdb61283d565b5b611fe888828901611db4565b955050602086013567ffffffffffffffff8111156120095761200861283d565b5b61201588828901611db4565b945050604086013567ffffffffffffffff8111156120365761203561283d565b5b61204288828901611db4565b935050606086013567ffffffffffffffff8111156120635761206261283d565b5b61206f88828901611db4565b925050608086013567ffffffffffffffff8111156120905761208f61283d565b5b61209c88828901611db4565b9150509295509295909350565b60008060008060008060c087890312156120c6576120c5612842565b5b600087013567ffffffffffffffff8111156120e4576120e361283d565b5b6120f089828a01611db4565b965050602087013567ffffffffffffffff8111156121115761211061283d565b5b61211d89828a01611db4565b955050604087013567ffffffffffffffff81111561213e5761213d61283d565b5b61214a89828a01611db4565b945050606087013567ffffffffffffffff81111561216b5761216a61283d565b5b61217789828a01611db4565b935050608087013567ffffffffffffffff8111156121985761219761283d565b5b6121a489828a01611db4565b92505060a087013567ffffffffffffffff8111156121c5576121c461283d565b5b6121d189828a01611db4565b9150509295509295509295565b6000602082840312156121f4576121f3612842565b5b600061220284828501611de2565b91505092915050565b600061221783836122a3565b905092915050565b612228816126c0565b82525050565b60006122398261266a565b612243818561268d565b9350836020820285016122558561265a565b8060005b858110156122915784840389528151612272858261220b565b945061227d83612680565b925060208a01995050600181019050612259565b50829750879550505050505092915050565b60006122ae82612675565b6122b8818561269e565b93506122c881856020860161270b565b6122d181612847565b840191505092915050565b60006122e782612675565b6122f181856126af565b935061230181856020860161270b565b61230a81612847565b840191505092915050565b600060c083016000830151848203600086015261233282826122a3565b9150506020830151848203602086015261234c82826122a3565b9150506040830151848203604086015261236682826122a3565b9150506060830151848203606086015261238082826122a3565b9150506080830151848203608086015261239a82826122a3565b91505060a083015184820360a08601526123b482826122a3565b9150508091505092915050565b60006101008301600083015184820360008601526123df82826122a3565b915050602083015184820360208601526123f982826122a3565b915050604083015161240e604086018261221f565b506060830151848203606086015261242682826122a3565b9150506080830151848203608086015261244082826122a3565b91505060a083015184820360a086015261245a82826122a3565b91505060c083015184820360c086015261247482826122a3565b91505060e083015161248960e08601826124f2565b508091505092915050565b600060608301600083015184820360008601526124b1828261222e565b915050602083015184820360208601526124cb828261222e565b915050604083015184820360408601526124e5828261222e565b9150508091505092915050565b6124fb816126f2565b82525050565b61250a816126f2565b82525050565b6000608082019050818103600083015261252a81876122dc565b9050818103602083015261253e81866122dc565b9050818103604083015261255281856122dc565b9050818103606083015261256681846122dc565b905095945050505050565b6000606082019050818103600083015261258b81866123c1565b9050818103602083015261259f8185612315565b905081810360408301526125b38184612494565b9050949350505050565b60006020820190506125d26000830184612501565b92915050565b60006125e26125f3565b90506125ee8282612770565b919050565b6000604051905090565b600067ffffffffffffffff821115612618576126176127ff565b5b602082029050602081019050919050565b600067ffffffffffffffff821115612644576126436127ff565b5b61264d82612847565b9050602081019050919050565b6000819050602082019050919050565b600081519050919050565b600081519050919050565b6000602082019050919050565b600082825260208201905092915050565b600082825260208201905092915050565b600082825260208201905092915050565b60006126cb826126d2565b9050919050565b600073ffffffffffffffffffffffffffffffffffffffff82169050919050565b6000819050919050565b82818337600083830152505050565b60005b8381101561272957808201518184015260208101905061270e565b83811115612738576000848401525b50505050565b6000600282049050600182168061275657607f821691505b6020821081141561276a576127696127a1565b5b50919050565b61277982612847565b810181811067ffffffffffffffff82111715612798576127976127ff565b5b80604052505050565b7f4e487b7100000000000000000000000000000000000000000000000000000000600052602260045260246000fd5b7f4e487b7100000000000000000000000000000000000000000000000000000000600052603260045260246000fd5b7f4e487b7100000000000000000000000000000000000000000000000000000000600052604160045260246000fd5b600080fd5b600080fd5b600080fd5b600080fd5b600080fd5b6000601f19601f8301169050919050565b612861816126c0565b811461286c57600080fd5b50565b612878816126f2565b811461288357600080fd5b5056fea2646970667358221220b763d07f638997f3f2a6a1e937ac17f3d5a2f653790575b0bacfffac21d4657f64736f6c63430008070033",
					"opcodes": "PUSH1 0x80 PUSH1 0x40 MSTORE CALLVALUE DUP1 ISZERO PUSH2 0x10 JUMPI PUSH1 0x0 DUP1 REVERT JUMPDEST POP PUSH2 0x28BC DUP1 PUSH2 0x20 PUSH1 0x0 CODECOPY PUSH1 0x0 RETURN INVALID PUSH1 0x80 PUSH1 0x40 MSTORE CALLVALUE DUP1 ISZERO PUSH2 0x10 JUMPI PUSH1 0x0 DUP1 REVERT JUMPDEST POP PUSH1 0x4 CALLDATASIZE LT PUSH2 0x9E JUMPI PUSH1 0x0 CALLDATALOAD PUSH1 0xE0 SHR DUP1 PUSH4 0x9D983A01 GT PUSH2 0x66 JUMPI DUP1 PUSH4 0x9D983A01 EQ PUSH2 0x11F JUMPI DUP1 PUSH4 0x9DD9D0FD EQ PUSH2 0x13B JUMPI DUP1 PUSH4 0xED2217EF EQ PUSH2 0x16D JUMPI DUP1 PUSH4 0xF96E32F8 EQ PUSH2 0x177 JUMPI DUP1 PUSH4 0xFABCE08F EQ PUSH2 0x1AA JUMPI PUSH2 0x9E JUMP JUMPDEST DUP1 PUSH4 0x3D984D0E EQ PUSH2 0xA3 JUMPI DUP1 PUSH4 0x6212FA02 EQ PUSH2 0xBF JUMPI DUP1 PUSH4 0x72828388 EQ PUSH2 0xDD JUMPI DUP1 PUSH4 0x958791AE EQ PUSH2 0xF9 JUMPI DUP1 PUSH4 0x95EA3757 EQ PUSH2 0x115 JUMPI JUMPDEST PUSH1 0x0 DUP1 REVERT JUMPDEST PUSH2 0xBD PUSH1 0x4 DUP1 CALLDATASIZE SUB DUP2 ADD SWAP1 PUSH2 0xB8 SWAP2 SWAP1 PUSH2 0x1E24 JUMP JUMPDEST PUSH2 0x1B4 JUMP JUMPDEST STOP JUMPDEST PUSH2 0xC7 PUSH2 0x338 JUMP JUMPDEST PUSH1 0x40 MLOAD PUSH2 0xD4 SWAP2 SWAP1 PUSH2 0x25BD JUMP JUMPDEST PUSH1 0x40 MLOAD DUP1 SWAP2 SUB SWAP1 RETURN JUMPDEST PUSH2 0xF7 PUSH1 0x4 DUP1 CALLDATASIZE SUB DUP2 ADD SWAP1 PUSH2 0xF2 SWAP2 SWAP1 PUSH2 0x1FA2 JUMP JUMPDEST PUSH2 0x384 JUMP JUMPDEST STOP JUMPDEST PUSH2 0x113 PUSH1 0x4 DUP1 CALLDATASIZE SUB DUP2 ADD SWAP1 PUSH2 0x10E SWAP2 SWAP1 PUSH2 0x20A9 JUMP JUMPDEST PUSH2 0x5EC JUMP JUMPDEST STOP JUMPDEST PUSH2 0x11D PUSH2 0x8D6 JUMP JUMPDEST STOP JUMPDEST PUSH2 0x139 PUSH1 0x4 DUP1 CALLDATASIZE SUB DUP2 ADD SWAP1 PUSH2 0x134 SWAP2 SWAP1 PUSH2 0x1ECB JUMP JUMPDEST PUSH2 0x9AB JUMP JUMPDEST STOP JUMPDEST PUSH2 0x155 PUSH1 0x4 DUP1 CALLDATASIZE SUB DUP2 ADD SWAP1 PUSH2 0x150 SWAP2 SWAP1 PUSH2 0x1DF7 JUMP JUMPDEST PUSH2 0xABF JUMP JUMPDEST PUSH1 0x40 MLOAD PUSH2 0x164 SWAP4 SWAP3 SWAP2 SWAP1 PUSH2 0x2571 JUMP JUMPDEST PUSH1 0x40 MLOAD DUP1 SWAP2 SUB SWAP1 RETURN JUMPDEST PUSH2 0x175 PUSH2 0x14CB JUMP JUMPDEST STOP JUMPDEST PUSH2 0x191 PUSH1 0x4 DUP1 CALLDATASIZE SUB DUP2 ADD SWAP1 PUSH2 0x18C SWAP2 SWAP1 PUSH2 0x21DE JUMP JUMPDEST PUSH2 0x151A JUMP JUMPDEST PUSH1 0x40 MLOAD PUSH2 0x1A1 SWAP5 SWAP4 SWAP3 SWAP2 SWAP1 PUSH2 0x2510 JUMP JUMPDEST PUSH1 0x40 MLOAD DUP1 SWAP2 SUB SWAP1 RETURN JUMPDEST PUSH2 0x1B2 PUSH2 0x18EF JUMP JUMPDEST STOP JUMPDEST PUSH1 0x0 DUP1 CALLER PUSH20 0xFFFFFFFFFFFFFFFFFFFFFFFFFFFFFFFFFFFFFFFF AND PUSH20 0xFFFFFFFFFFFFFFFFFFFFFFFFFFFFFFFFFFFFFFFF AND DUP2 MSTORE PUSH1 0x20 ADD SWAP1 DUP2 MSTORE PUSH1 0x20 ADD PUSH1 0x0 KECCAK256 PUSH1 0xE ADD PUSH1 0x0 DUP1 DUP3 ADD PUSH1 0x0 PUSH2 0x206 SWAP2 SWAP1 PUSH2 0x1A76 JUMP JUMPDEST PUSH1 0x1 DUP3 ADD PUSH1 0x0 PUSH2 0x216 SWAP2 SWAP1 PUSH2 0x1A76 JUMP JUMPDEST PUSH1 0x2 DUP3 ADD PUSH1 0x0 PUSH2 0x226 SWAP2 SWAP1 PUSH2 0x1A76 JUMP JUMPDEST POP POP DUP3 PUSH1 0x0 DUP1 CALLER PUSH20 0xFFFFFFFFFFFFFFFFFFFFFFFFFFFFFFFFFFFFFFFF AND PUSH20 0xFFFFFFFFFFFFFFFFFFFFFFFFFFFFFFFFFFFFFFFF AND DUP2 MSTORE PUSH1 0x20 ADD SWAP1 DUP2 MSTORE PUSH1 0x20 ADD PUSH1 0x0 KECCAK256 PUSH1 0xE ADD PUSH1 0x0 ADD SWAP1 DUP1 MLOAD SWAP1 PUSH1 0x20 ADD SWAP1 PUSH2 0x280 SWAP3 SWAP2 SWAP1 PUSH2 0x1A97 JUMP JUMPDEST POP DUP2 PUSH1 0x0 DUP1 CALLER PUSH20 0xFFFFFFFFFFFFFFFFFFFFFFFFFFFFFFFFFFFFFFFF AND PUSH20 0xFFFFFFFFFFFFFFFFFFFFFFFFFFFFFFFFFFFFFFFF AND DUP2 MSTORE PUSH1 0x20 ADD SWAP1 DUP2 MSTORE PUSH1 0x20 ADD PUSH1 0x0 KECCAK256 PUSH1 0xE ADD PUSH1 0x1 ADD SWAP1 DUP1 MLOAD SWAP1 PUSH1 0x20 ADD SWAP1 PUSH2 0x2D9 SWAP3 SWAP2 SWAP1 PUSH2 0x1A97 JUMP JUMPDEST POP DUP1 PUSH1 0x0 DUP1 CALLER PUSH20 0xFFFFFFFFFFFFFFFFFFFFFFFFFFFFFFFFFFFFFFFF AND PUSH20 0xFFFFFFFFFFFFFFFFFFFFFFFFFFFFFFFFFFFFFFFF AND DUP2 MSTORE PUSH1 0x20 ADD SWAP1 DUP2 MSTORE PUSH1 0x20 ADD PUSH1 0x0 KECCAK256 PUSH1 0xE ADD PUSH1 0x2 ADD SWAP1 DUP1 MLOAD SWAP1 PUSH1 0x20 ADD SWAP1 PUSH2 0x332 SWAP3 SWAP2 SWAP1 PUSH2 0x1A97 JUMP JUMPDEST POP POP POP POP JUMP JUMPDEST PUSH1 0x0 DUP1 PUSH1 0x0 CALLER PUSH20 0xFFFFFFFFFFFFFFFFFFFFFFFFFFFFFFFFFFFFFFFF AND PUSH20 0xFFFFFFFFFFFFFFFFFFFFFFFFFFFFFFFFFFFFFFFF AND DUP2 MSTORE PUSH1 0x20 ADD SWAP1 DUP2 MSTORE PUSH1 0x20 ADD PUSH1 0x0 KECCAK256 PUSH1 0x11 ADD DUP1 SLOAD SWAP1 POP SWAP1 POP SWAP1 JUMP JUMPDEST PUSH1 0x0 DUP1 CALLER PUSH20 0xFFFFFFFFFFFFFFFFFFFFFFFFFFFFFFFFFFFFFFFF AND PUSH20 0xFFFFFFFFFFFFFFFFFFFFFFFFFFFFFFFFFFFFFFFF AND DUP2 MSTORE PUSH1 0x20 ADD SWAP1 DUP2 MSTORE PUSH1 0x20 ADD PUSH1 0x0 KECCAK256 PUSH1 0x8 ADD PUSH1 0x0 DUP1 DUP3 ADD PUSH1 0x0 PUSH2 0x3D6 SWAP2 SWAP1 PUSH2 0x1AF7 JUMP JUMPDEST PUSH1 0x1 DUP3 ADD PUSH1 0x0 PUSH2 0x3E6 SWAP2 SWAP1 PUSH2 0x1AF7 JUMP JUMPDEST PUSH1 0x2 DUP3 ADD PUSH1 0x0 PUSH2 0x3F6 SWAP2 SWAP1 PUSH2 0x1AF7 JUMP JUMPDEST PUSH1 0x3 DUP3 ADD PUSH1 0x0 PUSH2 0x406 SWAP2 SWAP1 PUSH2 0x1AF7 JUMP JUMPDEST PUSH1 0x4 DUP3 ADD PUSH1 0x0 PUSH2 0x416 SWAP2 SWAP1 PUSH2 0x1AF7 JUMP JUMPDEST PUSH1 0x5 DUP3 ADD PUSH1 0x0 PUSH2 0x426 SWAP2 SWAP1 PUSH2 0x1AF7 JUMP JUMPDEST POP POP DUP5 PUSH1 0x0 DUP1 CALLER PUSH20 0xFFFFFFFFFFFFFFFFFFFFFFFFFFFFFFFFFFFFFFFF AND PUSH20 0xFFFFFFFFFFFFFFFFFFFFFFFFFFFFFFFFFFFFFFFF AND DUP2 MSTORE PUSH1 0x20 ADD SWAP1 DUP2 MSTORE PUSH1 0x20 ADD PUSH1 0x0 KECCAK256 PUSH1 0x8 ADD PUSH1 0x1 ADD SWAP1 DUP1 MLOAD SWAP1 PUSH1 0x20 ADD SWAP1 PUSH2 0x480 SWAP3 SWAP2 SWAP1 PUSH2 0x1B37 JUMP JUMPDEST POP DUP4 PUSH1 0x0 DUP1 CALLER PUSH20 0xFFFFFFFFFFFFFFFFFFFFFFFFFFFFFFFFFFFFFFFF AND PUSH20 0xFFFFFFFFFFFFFFFFFFFFFFFFFFFFFFFFFFFFFFFF AND DUP2 MSTORE PUSH1 0x20 ADD SWAP1 DUP2 MSTORE PUSH1 0x20 ADD PUSH1 0x0 KECCAK256 PUSH1 0x8 ADD PUSH1 0x2 ADD SWAP1 DUP1 MLOAD SWAP1 PUSH1 0x20 ADD SWAP1 PUSH2 0x4D9 SWAP3 SWAP2 SWAP1 PUSH2 0x1B37 JUMP JUMPDEST POP DUP3 PUSH1 0x0 DUP1 CALLER PUSH20 0xFFFFFFFFFFFFFFFFFFFFFFFFFFFFFFFFFFFFFFFF AND PUSH20 0xFFFFFFFFFFFFFFFFFFFFFFFFFFFFFFFFFFFFFFFF AND DUP2 MSTORE PUSH1 0x20 ADD SWAP1 DUP2 MSTORE PUSH1 0x20 ADD PUSH1 0x0 KECCAK256 PUSH1 0x8 ADD PUSH1 0x3 ADD SWAP1 DUP1 MLOAD SWAP1 PUSH1 0x20 ADD SWAP1 PUSH2 0x532 SWAP3 SWAP2 SWAP1 PUSH2 0x1B37 JUMP JUMPDEST POP DUP2 PUSH1 0x0 DUP1 CALLER PUSH20 0xFFFFFFFFFFFFFFFFFFFFFFFFFFFFFFFFFFFFFFFF AND PUSH20 0xFFFFFFFFFFFFFFFFFFFFFFFFFFFFFFFFFFFFFFFF AND DUP2 MSTORE PUSH1 0x20 ADD SWAP1 DUP2 MSTORE PUSH1 0x20 ADD PUSH1 0x0 KECCAK256 PUSH1 0x8 ADD PUSH1 0x2 ADD SWAP1 DUP1 MLOAD SWAP1 PUSH1 0x20 ADD SWAP1 PUSH2 0x58B SWAP3 SWAP2 SWAP1 PUSH2 0x1B37 JUMP JUMPDEST POP DUP1 PUSH1 0x0 DUP1 CALLER PUSH20 0xFFFFFFFFFFFFFFFFFFFFFFFFFFFFFFFFFFFFFFFF AND PUSH20 0xFFFFFFFFFFFFFFFFFFFFFFFFFFFFFFFFFFFFFFFF AND DUP2 MSTORE PUSH1 0x20 ADD SWAP1 DUP2 MSTORE PUSH1 0x20 ADD PUSH1 0x0 KECCAK256 PUSH1 0x8 ADD PUSH1 0x1 ADD SWAP1 DUP1 MLOAD SWAP1 PUSH1 0x20 ADD SWAP1 PUSH2 0x5E4 SWAP3 SWAP2 SWAP1 PUSH2 0x1B37 JUMP JUMPDEST POP POP POP POP POP POP JUMP JUMPDEST DUP6 PUSH1 0x0 DUP1 CALLER PUSH20 0xFFFFFFFFFFFFFFFFFFFFFFFFFFFFFFFFFFFFFFFF AND PUSH20 0xFFFFFFFFFFFFFFFFFFFFFFFFFFFFFFFFFFFFFFFF AND DUP2 MSTORE PUSH1 0x20 ADD SWAP1 DUP2 MSTORE PUSH1 0x20 ADD PUSH1 0x0 KECCAK256 PUSH1 0x0 ADD PUSH1 0x3 ADD SWAP1 DUP1 MLOAD SWAP1 PUSH1 0x20 ADD SWAP1 PUSH2 0x644 SWAP3 SWAP2 SWAP1 PUSH2 0x1B37 JUMP JUMPDEST POP DUP5 PUSH1 0x0 DUP1 CALLER PUSH20 0xFFFFFFFFFFFFFFFFFFFFFFFFFFFFFFFFFFFFFFFF AND PUSH20 0xFFFFFFFFFFFFFFFFFFFFFFFFFFFFFFFFFFFFFFFF AND DUP2 MSTORE PUSH1 0x20 ADD SWAP1 DUP2 MSTORE PUSH1 0x20 ADD PUSH1 0x0 KECCAK256 PUSH1 0x0 ADD PUSH1 0x4 ADD SWAP1 DUP1 MLOAD SWAP1 PUSH1 0x20 ADD SWAP1 PUSH2 0x69D SWAP3 SWAP2 SWAP1 PUSH2 0x1B37 JUMP JUMPDEST POP DUP4 PUSH1 0x0 DUP1 CALLER PUSH20 0xFFFFFFFFFFFFFFFFFFFFFFFFFFFFFFFFFFFFFFFF AND PUSH20 0xFFFFFFFFFFFFFFFFFFFFFFFFFFFFFFFFFFFFFFFF AND DUP2 MSTORE PUSH1 0x20 ADD SWAP1 DUP2 MSTORE PUSH1 0x20 ADD PUSH1 0x0 KECCAK256 PUSH1 0x0 ADD PUSH1 0x5 ADD SWAP1 DUP1 MLOAD SWAP1 PUSH1 0x20 ADD SWAP1 PUSH2 0x6F6 SWAP3 SWAP2 SWAP1 PUSH2 0x1B37 JUMP JUMPDEST POP DUP3 PUSH1 0x0 DUP1 CALLER PUSH20 0xFFFFFFFFFFFFFFFFFFFFFFFFFFFFFFFFFFFFFFFF AND PUSH20 0xFFFFFFFFFFFFFFFFFFFFFFFFFFFFFFFFFFFFFFFF AND DUP2 MSTORE PUSH1 0x20 ADD SWAP1 DUP2 MSTORE PUSH1 0x20 ADD PUSH1 0x0 KECCAK256 PUSH1 0x0 ADD PUSH1 0x6 ADD SWAP1 DUP1 MLOAD SWAP1 PUSH1 0x20 ADD SWAP1 PUSH2 0x74F SWAP3 SWAP2 SWAP1 PUSH2 0x1B37 JUMP JUMPDEST POP DUP1 PUSH1 0x0 DUP1 CALLER PUSH20 0xFFFFFFFFFFFFFFFFFFFFFFFFFFFFFFFFFFFFFFFF AND PUSH20 0xFFFFFFFFFFFFFFFFFFFFFFFFFFFFFFFFFFFFFFFF AND DUP2 MSTORE PUSH1 0x20 ADD SWAP1 DUP2 MSTORE PUSH1 0x20 ADD PUSH1 0x0 KECCAK256 PUSH1 0x0 ADD PUSH1 0x1 ADD SWAP1 DUP1 MLOAD SWAP1 PUSH1 0x20 ADD SWAP1 PUSH2 0x7A8 SWAP3 SWAP2 SWAP1 PUSH2 0x1B37 JUMP JUMPDEST POP CALLER PUSH1 0x0 DUP1 CALLER PUSH20 0xFFFFFFFFFFFFFFFFFFFFFFFFFFFFFFFFFFFFFFFF AND PUSH20 0xFFFFFFFFFFFFFFFFFFFFFFFFFFFFFFFFFFFFFFFF AND DUP2 MSTORE PUSH1 0x20 ADD SWAP1 DUP2 MSTORE PUSH1 0x20 ADD PUSH1 0x0 KECCAK256 PUSH1 0x0 ADD PUSH1 0x2 ADD PUSH1 0x0 PUSH2 0x100 EXP DUP2 SLOAD DUP2 PUSH20 0xFFFFFFFFFFFFFFFFFFFFFFFFFFFFFFFFFFFFFFFF MUL NOT AND SWAP1 DUP4 PUSH20 0xFFFFFFFFFFFFFFFFFFFFFFFFFFFFFFFFFFFFFFFF AND MUL OR SWAP1 SSTORE POP TIMESTAMP PUSH1 0x0 DUP1 CALLER PUSH20 0xFFFFFFFFFFFFFFFFFFFFFFFFFFFFFFFFFFFFFFFF AND PUSH20 0xFFFFFFFFFFFFFFFFFFFFFFFFFFFFFFFFFFFFFFFF AND DUP2 MSTORE PUSH1 0x20 ADD SWAP1 DUP2 MSTORE PUSH1 0x20 ADD PUSH1 0x0 KECCAK256 PUSH1 0x0 ADD PUSH1 0x7 ADD DUP2 SWAP1 SSTORE POP DUP2 PUSH1 0x0 DUP1 CALLER PUSH20 0xFFFFFFFFFFFFFFFFFFFFFFFFFFFFFFFFFFFFFFFF AND PUSH20 0xFFFFFFFFFFFFFFFFFFFFFFFFFFFFFFFFFFFFFFFF AND DUP2 MSTORE PUSH1 0x20 ADD SWAP1 DUP2 MSTORE PUSH1 0x20 ADD PUSH1 0x0 KECCAK256 PUSH1 0x0 ADD PUSH1 0x0 ADD SWAP1 DUP1 MLOAD SWAP1 PUSH1 0x20 ADD SWAP1 PUSH2 0x8CD SWAP3 SWAP2 SWAP1 PUSH2 0x1B37 JUMP JUMPDEST POP POP POP POP POP POP POP JUMP JUMPDEST PUSH1 0x0 DUP1 CALLER PUSH20 0xFFFFFFFFFFFFFFFFFFFFFFFFFFFFFFFFFFFFFFFF AND PUSH20 0xFFFFFFFFFFFFFFFFFFFFFFFFFFFFFFFFFFFFFFFF AND DUP2 MSTORE PUSH1 0x20 ADD SWAP1 DUP2 MSTORE PUSH1 0x20 ADD PUSH1 0x0 KECCAK256 PUSH1 0x0 ADD PUSH1 0x0 DUP1 DUP3 ADD PUSH1 0x0 PUSH2 0x928 SWAP2 SWAP1 PUSH2 0x1AF7 JUMP JUMPDEST PUSH1 0x1 DUP3 ADD PUSH1 0x0 PUSH2 0x938 SWAP2 SWAP1 PUSH2 0x1AF7 JUMP JUMPDEST PUSH1 0x2 DUP3 ADD PUSH1 0x0 PUSH2 0x100 EXP DUP2 SLOAD SWAP1 PUSH20 0xFFFFFFFFFFFFFFFFFFFFFFFFFFFFFFFFFFFFFFFF MUL NOT AND SWAP1 SSTORE PUSH1 0x3 DUP3 ADD PUSH1 0x0 PUSH2 0x96F SWAP2 SWAP1 PUSH2 0x1AF7 JUMP JUMPDEST PUSH1 0x4 DUP3 ADD PUSH1 0x0 PUSH2 0x97F SWAP2 SWAP1 PUSH2 0x1AF7 JUMP JUMPDEST PUSH1 0x5 DUP3 ADD PUSH1 0x0 PUSH2 0x98F SWAP2 SWAP1 PUSH2 0x1AF7 JUMP JUMPDEST PUSH1 0x6 DUP3 ADD PUSH1 0x0 PUSH2 0x99F SWAP2 SWAP1 PUSH2 0x1AF7 JUMP JUMPDEST PUSH1 0x7 DUP3 ADD PUSH1 0x0 SWAP1 SSTORE POP POP JUMP JUMPDEST PUSH2 0x9B3 PUSH2 0x1BBD JUMP JUMPDEST DUP5 DUP2 PUSH1 0x0 ADD DUP2 SWAP1 MSTORE POP DUP4 DUP2 PUSH1 0x20 ADD DUP2 SWAP1 MSTORE POP DUP3 DUP2 PUSH1 0x40 ADD DUP2 SWAP1 MSTORE POP DUP2 DUP2 PUSH1 0x60 ADD DUP2 SWAP1 MSTORE POP PUSH1 0x0 DUP1 CALLER PUSH20 0xFFFFFFFFFFFFFFFFFFFFFFFFFFFFFFFFFFFFFFFF AND PUSH20 0xFFFFFFFFFFFFFFFFFFFFFFFFFFFFFFFFFFFFFFFF AND DUP2 MSTORE PUSH1 0x20 ADD SWAP1 DUP2 MSTORE PUSH1 0x20 ADD PUSH1 0x0 KECCAK256 PUSH1 0x11 ADD DUP2 SWAP1 DUP1 PUSH1 0x1 DUP2 SLOAD ADD DUP1 DUP3 SSTORE DUP1 SWAP2 POP POP PUSH1 0x1 SWAP1 SUB SWAP1 PUSH1 0x0 MSTORE PUSH1 0x20 PUSH1 0x0 KECCAK256 SWAP1 PUSH1 0x4 MUL ADD PUSH1 0x0 SWAP1 SWAP2 SWAP1 SWAP2 SWAP1 SWAP2 POP PUSH1 0x0 DUP3 ADD MLOAD DUP2 PUSH1 0x0 ADD SWAP1 DUP1 MLOAD SWAP1 PUSH1 0x20 ADD SWAP1 PUSH2 0xA5E SWAP3 SWAP2 SWAP1 PUSH2 0x1B37 JUMP JUMPDEST POP PUSH1 0x20 DUP3 ADD MLOAD DUP2 PUSH1 0x1 ADD SWAP1 DUP1 MLOAD SWAP1 PUSH1 0x20 ADD SWAP1 PUSH2 0xA7B SWAP3 SWAP2 SWAP1 PUSH2 0x1B37 JUMP JUMPDEST POP PUSH1 0x40 DUP3 ADD MLOAD DUP2 PUSH1 0x2 ADD SWAP1 DUP1 MLOAD SWAP1 PUSH1 0x20 ADD SWAP1 PUSH2 0xA98 SWAP3 SWAP2 SWAP1 PUSH2 0x1B37 JUMP JUMPDEST POP PUSH1 0x60 DUP3 ADD MLOAD DUP2 PUSH1 0x3 ADD SWAP1 DUP1 MLOAD SWAP1 PUSH1 0x20 ADD SWAP1 PUSH2 0xAB5 SWAP3 SWAP2 SWAP1 PUSH2 0x1B37 JUMP JUMPDEST POP POP POP POP POP POP POP POP JUMP JUMPDEST PUSH1 0x0 PUSH1 0x20 MSTORE DUP1 PUSH1 0x0 MSTORE PUSH1 0x40 PUSH1 0x0 KECCAK256 PUSH1 0x0 SWAP2 POP SWAP1 POP DUP1 PUSH1 0x0 ADD PUSH1 0x40 MLOAD DUP1 PUSH2 0x100 ADD PUSH1 0x40 MSTORE SWAP1 DUP2 PUSH1 0x0 DUP3 ADD DUP1 SLOAD PUSH2 0xAF3 SWAP1 PUSH2 0x273E JUMP JUMPDEST DUP1 PUSH1 0x1F ADD PUSH1 0x20 DUP1 SWAP2 DIV MUL PUSH1 0x20 ADD PUSH1 0x40 MLOAD SWAP1 DUP2 ADD PUSH1 0x40 MSTORE DUP1 SWAP3 SWAP2 SWAP1 DUP2 DUP2 MSTORE PUSH1 0x20 ADD DUP3 DUP1 SLOAD PUSH2 0xB1F SWAP1 PUSH2 0x273E JUMP JUMPDEST DUP1 ISZERO PUSH2 0xB6C JUMPI DUP1 PUSH1 0x1F LT PUSH2 0xB41 JUMPI PUSH2 0x100 DUP1 DUP4 SLOAD DIV MUL DUP4 MSTORE SWAP2 PUSH1 0x20 ADD SWAP2 PUSH2 0xB6C JUMP JUMPDEST DUP3 ADD SWAP2 SWAP1 PUSH1 0x0 MSTORE PUSH1 0x20 PUSH1 0x0 KECCAK256 SWAP1 JUMPDEST DUP2 SLOAD DUP2 MSTORE SWAP1 PUSH1 0x1 ADD SWAP1 PUSH1 0x20 ADD DUP1 DUP4 GT PUSH2 0xB4F JUMPI DUP3 SWAP1 SUB PUSH1 0x1F AND DUP3 ADD SWAP2 JUMPDEST POP POP POP POP POP DUP2 MSTORE PUSH1 0x20 ADD PUSH1 0x1 DUP3 ADD DUP1 SLOAD PUSH2 0xB85 SWAP1 PUSH2 0x273E JUMP JUMPDEST DUP1 PUSH1 0x1F ADD PUSH1 0x20 DUP1 SWAP2 DIV MUL PUSH1 0x20 ADD PUSH1 0x40 MLOAD SWAP1 DUP2 ADD PUSH1 0x40 MSTORE DUP1 SWAP3 SWAP2 SWAP1 DUP2 DUP2 MSTORE PUSH1 0x20 ADD DUP3 DUP1 SLOAD PUSH2 0xBB1 SWAP1 PUSH2 0x273E JUMP JUMPDEST DUP1 ISZERO PUSH2 0xBFE JUMPI DUP1 PUSH1 0x1F LT PUSH2 0xBD3 JUMPI PUSH2 0x100 DUP1 DUP4 SLOAD DIV MUL DUP4 MSTORE SWAP2 PUSH1 0x20 ADD SWAP2 PUSH2 0xBFE JUMP JUMPDEST DUP3 ADD SWAP2 SWAP1 PUSH1 0x0 MSTORE PUSH1 0x20 PUSH1 0x0 KECCAK256 SWAP1 JUMPDEST DUP2 SLOAD DUP2 MSTORE SWAP1 PUSH1 0x1 ADD SWAP1 PUSH1 0x20 ADD DUP1 DUP4 GT PUSH2 0xBE1 JUMPI DUP3 SWAP1 SUB PUSH1 0x1F AND DUP3 ADD SWAP2 JUMPDEST POP POP POP POP POP DUP2 MSTORE PUSH1 0x20 ADD PUSH1 0x2 DUP3 ADD PUSH1 0x0 SWAP1 SLOAD SWAP1 PUSH2 0x100 EXP SWAP1 DIV PUSH20 0xFFFFFFFFFFFFFFFFFFFFFFFFFFFFFFFFFFFFFFFF AND PUSH20 0xFFFFFFFFFFFFFFFFFFFFFFFFFFFFFFFFFFFFFFFF AND PUSH20 0xFFFFFFFFFFFFFFFFFFFFFFFFFFFFFFFFFFFFFFFF AND DUP2 MSTORE PUSH1 0x20 ADD PUSH1 0x3 DUP3 ADD DUP1 SLOAD PUSH2 0xC6D SWAP1 PUSH2 0x273E JUMP JUMPDEST DUP1 PUSH1 0x1F ADD PUSH1 0x20 DUP1 SWAP2 DIV MUL PUSH1 0x20 ADD PUSH1 0x40 MLOAD SWAP1 DUP2 ADD PUSH1 0x40 MSTORE DUP1 SWAP3 SWAP2 SWAP1 DUP2 DUP2 MSTORE PUSH1 0x20 ADD DUP3 DUP1 SLOAD PUSH2 0xC99 SWAP1 PUSH2 0x273E JUMP JUMPDEST DUP1 ISZERO PUSH2 0xCE6 JUMPI DUP1 PUSH1 0x1F LT PUSH2 0xCBB JUMPI PUSH2 0x100 DUP1 DUP4 SLOAD DIV MUL DUP4 MSTORE SWAP2 PUSH1 0x20 ADD SWAP2 PUSH2 0xCE6 JUMP JUMPDEST DUP3 ADD SWAP2 SWAP1 PUSH1 0x0 MSTORE PUSH1 0x20 PUSH1 0x0 KECCAK256 SWAP1 JUMPDEST DUP2 SLOAD DUP2 MSTORE SWAP1 PUSH1 0x1 ADD SWAP1 PUSH1 0x20 ADD DUP1 DUP4 GT PUSH2 0xCC9 JUMPI DUP3 SWAP1 SUB PUSH1 0x1F AND DUP3 ADD SWAP2 JUMPDEST POP POP POP POP POP DUP2 MSTORE PUSH1 0x20 ADD PUSH1 0x4 DUP3 ADD DUP1 SLOAD PUSH2 0xCFF SWAP1 PUSH2 0x273E JUMP JUMPDEST DUP1 PUSH1 0x1F ADD PUSH1 0x20 DUP1 SWAP2 DIV MUL PUSH1 0x20 ADD PUSH1 0x40 MLOAD SWAP1 DUP2 ADD PUSH1 0x40 MSTORE DUP1 SWAP3 SWAP2 SWAP1 DUP2 DUP2 MSTORE PUSH1 0x20 ADD DUP3 DUP1 SLOAD PUSH2 0xD2B SWAP1 PUSH2 0x273E JUMP JUMPDEST DUP1 ISZERO PUSH2 0xD78 JUMPI DUP1 PUSH1 0x1F LT PUSH2 0xD4D JUMPI PUSH2 0x100 DUP1 DUP4 SLOAD DIV MUL DUP4 MSTORE SWAP2 PUSH1 0x20 ADD SWAP2 PUSH2 0xD78 JUMP JUMPDEST DUP3 ADD SWAP2 SWAP1 PUSH1 0x0 MSTORE PUSH1 0x20 PUSH1 0x0 KECCAK256 SWAP1 JUMPDEST DUP2 SLOAD DUP2 MSTORE SWAP1 PUSH1 0x1 ADD SWAP1 PUSH1 0x20 ADD DUP1 DUP4 GT PUSH2 0xD5B JUMPI DUP3 SWAP1 SUB PUSH1 0x1F AND DUP3 ADD SWAP2 JUMPDEST POP POP POP POP POP DUP2 MSTORE PUSH1 0x20 ADD PUSH1 0x5 DUP3 ADD DUP1 SLOAD PUSH2 0xD91 SWAP1 PUSH2 0x273E JUMP JUMPDEST DUP1 PUSH1 0x1F ADD PUSH1 0x20 DUP1 SWAP2 DIV MUL PUSH1 0x20 ADD PUSH1 0x40 MLOAD SWAP1 DUP2 ADD PUSH1 0x40 MSTORE DUP1 SWAP3 SWAP2 SWAP1 DUP2 DUP2 MSTORE PUSH1 0x20 ADD DUP3 DUP1 SLOAD PUSH2 0xDBD SWAP1 PUSH2 0x273E JUMP JUMPDEST DUP1 ISZERO PUSH2 0xE0A JUMPI DUP1 PUSH1 0x1F LT PUSH2 0xDDF JUMPI PUSH2 0x100 DUP1 DUP4 SLOAD DIV MUL DUP4 MSTORE SWAP2 PUSH1 0x20 ADD SWAP2 PUSH2 0xE0A JUMP JUMPDEST DUP3 ADD SWAP2 SWAP1 PUSH1 0x0 MSTORE PUSH1 0x20 PUSH1 0x0 KECCAK256 SWAP1 JUMPDEST DUP2 SLOAD DUP2 MSTORE SWAP1 PUSH1 0x1 ADD SWAP1 PUSH1 0x20 ADD DUP1 DUP4 GT PUSH2 0xDED JUMPI DUP3 SWAP1 SUB PUSH1 0x1F AND DUP3 ADD SWAP2 JUMPDEST POP POP POP POP POP DUP2 MSTORE PUSH1 0x20 ADD PUSH1 0x6 DUP3 ADD DUP1 SLOAD PUSH2 0xE23 SWAP1 PUSH2 0x273E JUMP JUMPDEST DUP1 PUSH1 0x1F ADD PUSH1 0x20 DUP1 SWAP2 DIV MUL PUSH1 0x20 ADD PUSH1 0x40 MLOAD SWAP1 DUP2 ADD PUSH1 0x40 MSTORE DUP1 SWAP3 SWAP2 SWAP1 DUP2 DUP2 MSTORE PUSH1 0x20 ADD DUP3 DUP1 SLOAD PUSH2 0xE4F SWAP1 PUSH2 0x273E JUMP JUMPDEST DUP1 ISZERO PUSH2 0xE9C JUMPI DUP1 PUSH1 0x1F LT PUSH2 0xE71 JUMPI PUSH2 0x100 DUP1 DUP4 SLOAD DIV MUL DUP4 MSTORE SWAP2 PUSH1 0x20 ADD SWAP2 PUSH2 0xE9C JUMP JUMPDEST DUP3 ADD SWAP2 SWAP1 PUSH1 0x0 MSTORE PUSH1 0x20 PUSH1 0x0 KECCAK256 SWAP1 JUMPDEST DUP2 SLOAD DUP2 MSTORE SWAP1 PUSH1 0x1 ADD SWAP1 PUSH1 0x20 ADD DUP1 DUP4 GT PUSH2 0xE7F JUMPI DUP3 SWAP1 SUB PUSH1 0x1F AND DUP3 ADD SWAP2 JUMPDEST POP POP POP POP POP DUP2 MSTORE PUSH1 0x20 ADD PUSH1 0x7 DUP3 ADD SLOAD DUP2 MSTORE POP POP SWAP1 DUP1 PUSH1 0x8 ADD PUSH1 0x40 MLOAD DUP1 PUSH1 0xC0 ADD PUSH1 0x40 MSTORE SWAP1 DUP2 PUSH1 0x0 DUP3 ADD DUP1 SLOAD PUSH2 0xECF SWAP1 PUSH2 0x273E JUMP JUMPDEST DUP1 PUSH1 0x1F ADD PUSH1 0x20 DUP1 SWAP2 DIV MUL PUSH1 0x20 ADD PUSH1 0x40 MLOAD SWAP1 DUP2 ADD PUSH1 0x40 MSTORE DUP1 SWAP3 SWAP2 SWAP1 DUP2 DUP2 MSTORE PUSH1 0x20 ADD DUP3 DUP1 SLOAD PUSH2 0xEFB SWAP1 PUSH2 0x273E JUMP JUMPDEST DUP1 ISZERO PUSH2 0xF48 JUMPI DUP1 PUSH1 0x1F LT PUSH2 0xF1D JUMPI PUSH2 0x100 DUP1 DUP4 SLOAD DIV MUL DUP4 MSTORE SWAP2 PUSH1 0x20 ADD SWAP2 PUSH2 0xF48 JUMP JUMPDEST DUP3 ADD SWAP2 SWAP1 PUSH1 0x0 MSTORE PUSH1 0x20 PUSH1 0x0 KECCAK256 SWAP1 JUMPDEST DUP2 SLOAD DUP2 MSTORE SWAP1 PUSH1 0x1 ADD SWAP1 PUSH1 0x20 ADD DUP1 DUP4 GT PUSH2 0xF2B JUMPI DUP3 SWAP1 SUB PUSH1 0x1F AND DUP3 ADD SWAP2 JUMPDEST POP POP POP POP POP DUP2 MSTORE PUSH1 0x20 ADD PUSH1 0x1 DUP3 ADD DUP1 SLOAD PUSH2 0xF61 SWAP1 PUSH2 0x273E JUMP JUMPDEST DUP1 PUSH1 0x1F ADD PUSH1 0x20 DUP1 SWAP2 DIV MUL PUSH1 0x20 ADD PUSH1 0x40 MLOAD SWAP1 DUP2 ADD PUSH1 0x40 MSTORE DUP1 SWAP3 SWAP2 SWAP1 DUP2 DUP2 MSTORE PUSH1 0x20 ADD DUP3 DUP1 SLOAD PUSH2 0xF8D SWAP1 PUSH2 0x273E JUMP JUMPDEST DUP1 ISZERO PUSH2 0xFDA JUMPI DUP1 PUSH1 0x1F LT PUSH2 0xFAF JUMPI PUSH2 0x100 DUP1 DUP4 SLOAD DIV MUL DUP4 MSTORE SWAP2 PUSH1 0x20 ADD SWAP2 PUSH2 0xFDA JUMP JUMPDEST DUP3 ADD SWAP2 SWAP1 PUSH1 0x0 MSTORE PUSH1 0x20 PUSH1 0x0 KECCAK256 SWAP1 JUMPDEST DUP2 SLOAD DUP2 MSTORE SWAP1 PUSH1 0x1 ADD SWAP1 PUSH1 0x20 ADD DUP1 DUP4 GT PUSH2 0xFBD JUMPI DUP3 SWAP1 SUB PUSH1 0x1F AND DUP3 ADD SWAP2 JUMPDEST POP POP POP POP POP DUP2 MSTORE PUSH1 0x20 ADD PUSH1 0x2 DUP3 ADD DUP1 SLOAD PUSH2 0xFF3 SWAP1 PUSH2 0x273E JUMP JUMPDEST DUP1 PUSH1 0x1F ADD PUSH1 0x20 DUP1 SWAP2 DIV MUL PUSH1 0x20 ADD PUSH1 0x40 MLOAD SWAP1 DUP2 ADD PUSH1 0x40 MSTORE DUP1 SWAP3 SWAP2 SWAP1 DUP2 DUP2 MSTORE PUSH1 0x20 ADD DUP3 DUP1 SLOAD PUSH2 0x101F SWAP1 PUSH2 0x273E JUMP JUMPDEST DUP1 ISZERO PUSH2 0x106C JUMPI DUP1 PUSH1 0x1F LT PUSH2 0x1041 JUMPI PUSH2 0x100 DUP1 DUP4 SLOAD DIV MUL DUP4 MSTORE SWAP2 PUSH1 0x20 ADD SWAP2 PUSH2 0x106C JUMP JUMPDEST DUP3 ADD SWAP2 SWAP1 PUSH1 0x0 MSTORE PUSH1 0x20 PUSH1 0x0 KECCAK256 SWAP1 JUMPDEST DUP2 SLOAD DUP2 MSTORE SWAP1 PUSH1 0x1 ADD SWAP1 PUSH1 0x20 ADD DUP1 DUP4 GT PUSH2 0x104F JUMPI DUP3 SWAP1 SUB PUSH1 0x1F AND DUP3 ADD SWAP2 JUMPDEST POP POP POP POP POP DUP2 MSTORE PUSH1 0x20 ADD PUSH1 0x3 DUP3 ADD DUP1 SLOAD PUSH2 0x1085 SWAP1 PUSH2 0x273E JUMP JUMPDEST DUP1 PUSH1 0x1F ADD PUSH1 0x20 DUP1 SWAP2 DIV MUL PUSH1 0x20 ADD PUSH1 0x40 MLOAD SWAP1 DUP2 ADD PUSH1 0x40 MSTORE DUP1 SWAP3 SWAP2 SWAP1 DUP2 DUP2 MSTORE PUSH1 0x20 ADD DUP3 DUP1 SLOAD PUSH2 0x10B1 SWAP1 PUSH2 0x273E JUMP JUMPDEST DUP1 ISZERO PUSH2 0x10FE JUMPI DUP1 PUSH1 0x1F LT PUSH2 0x10D3 JUMPI PUSH2 0x100 DUP1 DUP4 SLOAD DIV MUL DUP4 MSTORE SWAP2 PUSH1 0x20 ADD SWAP2 PUSH2 0x10FE JUMP JUMPDEST DUP3 ADD SWAP2 SWAP1 PUSH1 0x0 MSTORE PUSH1 0x20 PUSH1 0x0 KECCAK256 SWAP1 JUMPDEST DUP2 SLOAD DUP2 MSTORE SWAP1 PUSH1 0x1 ADD SWAP1 PUSH1 0x20 ADD DUP1 DUP4 GT PUSH2 0x10E1 JUMPI DUP3 SWAP1 SUB PUSH1 0x1F AND DUP3 ADD SWAP2 JUMPDEST POP POP POP POP POP DUP2 MSTORE PUSH1 0x20 ADD PUSH1 0x4 DUP3 ADD DUP1 SLOAD PUSH2 0x1117 SWAP1 PUSH2 0x273E JUMP JUMPDEST DUP1 PUSH1 0x1F ADD PUSH1 0x20 DUP1 SWAP2 DIV MUL PUSH1 0x20 ADD PUSH1 0x40 MLOAD SWAP1 DUP2 ADD PUSH1 0x40 MSTORE DUP1 SWAP3 SWAP2 SWAP1 DUP2 DUP2 MSTORE PUSH1 0x20 ADD DUP3 DUP1 SLOAD PUSH2 0x1143 SWAP1 PUSH2 0x273E JUMP JUMPDEST DUP1 ISZERO PUSH2 0x1190 JUMPI DUP1 PUSH1 0x1F LT PUSH2 0x1165 JUMPI PUSH2 0x100 DUP1 DUP4 SLOAD DIV MUL DUP4 MSTORE SWAP2 PUSH1 0x20 ADD SWAP2 PUSH2 0x1190 JUMP JUMPDEST DUP3 ADD SWAP2 SWAP1 PUSH1 0x0 MSTORE PUSH1 0x20 PUSH1 0x0 KECCAK256 SWAP1 JUMPDEST DUP2 SLOAD DUP2 MSTORE SWAP1 PUSH1 0x1 ADD SWAP1 PUSH1 0x20 ADD DUP1 DUP4 GT PUSH2 0x1173 JUMPI DUP3 SWAP1 SUB PUSH1 0x1F AND DUP3 ADD SWAP2 JUMPDEST POP POP POP POP POP DUP2 MSTORE PUSH1 0x20 ADD PUSH1 0x5 DUP3 ADD DUP1 SLOAD PUSH2 0x11A9 SWAP1 PUSH2 0x273E JUMP JUMPDEST DUP1 PUSH1 0x1F ADD PUSH1 0x20 DUP1 SWAP2 DIV MUL PUSH1 0x20 ADD PUSH1 0x40 MLOAD SWAP1 DUP2 ADD PUSH1 0x40 MSTORE DUP1 SWAP3 SWAP2 SWAP1 DUP2 DUP2 MSTORE PUSH1 0x20 ADD DUP3 DUP1 SLOAD PUSH2 0x11D5 SWAP1 PUSH2 0x273E JUMP JUMPDEST DUP1 ISZERO PUSH2 0x1222 JUMPI DUP1 PUSH1 0x1F LT PUSH2 0x11F7 JUMPI PUSH2 0x100 DUP1 DUP4 SLOAD DIV MUL DUP4 MSTORE SWAP2 PUSH1 0x20 ADD SWAP2 PUSH2 0x1222 JUMP JUMPDEST DUP3 ADD SWAP2 SWAP1 PUSH1 0x0 MSTORE PUSH1 0x20 PUSH1 0x0 KECCAK256 SWAP1 JUMPDEST DUP2 SLOAD DUP2 MSTORE SWAP1 PUSH1 0x1 ADD SWAP1 PUSH1 0x20 ADD DUP1 DUP4 GT PUSH2 0x1205 JUMPI DUP3 SWAP1 SUB PUSH1 0x1F AND DUP3 ADD SWAP2 JUMPDEST POP POP POP POP POP DUP2 MSTORE POP POP SWAP1 DUP1 PUSH1 0xE ADD PUSH1 0x40 MLOAD DUP1 PUSH1 0x60 ADD PUSH1 0x40 MSTORE SWAP1 DUP2 PUSH1 0x0 DUP3 ADD DUP1 SLOAD DUP1 PUSH1 0x20 MUL PUSH1 0x20 ADD PUSH1 0x40 MLOAD SWAP1 DUP2 ADD PUSH1 0x40 MSTORE DUP1 SWAP3 SWAP2 SWAP1 DUP2 DUP2 MSTORE PUSH1 0x20 ADD PUSH1 0x0 SWAP1 JUMPDEST DUP3 DUP3 LT ISZERO PUSH2 0x130C JUMPI DUP4 DUP3 SWAP1 PUSH1 0x0 MSTORE PUSH1 0x20 PUSH1 0x0 KECCAK256 ADD DUP1 SLOAD PUSH2 0x127F SWAP1 PUSH2 0x273E JUMP JUMPDEST DUP1 PUSH1 0x1F ADD PUSH1 0x20 DUP1 SWAP2 DIV MUL PUSH1 0x20 ADD PUSH1 0x40 MLOAD SWAP1 DUP2 ADD PUSH1 0x40 MSTORE DUP1 SWAP3 SWAP2 SWAP1 DUP2 DUP2 MSTORE PUSH1 0x20 ADD DUP3 DUP1 SLOAD PUSH2 0x12AB SWAP1 PUSH2 0x273E JUMP JUMPDEST DUP1 ISZERO PUSH2 0x12F8 JUMPI DUP1 PUSH1 0x1F LT PUSH2 0x12CD JUMPI PUSH2 0x100 DUP1 DUP4 SLOAD DIV MUL DUP4 MSTORE SWAP2 PUSH1 0x20 ADD SWAP2 PUSH2 0x12F8 JUMP JUMPDEST DUP3 ADD SWAP2 SWAP1 PUSH1 0x0 MSTORE PUSH1 0x20 PUSH1 0x0 KECCAK256 SWAP1 JUMPDEST DUP2 SLOAD DUP2 MSTORE SWAP1 PUSH1 0x1 ADD SWAP1 PUSH1 0x20 ADD DUP1 DUP4 GT PUSH2 0x12DB JUMPI DUP3 SWAP1 SUB PUSH1 0x1F AND DUP3 ADD SWAP2 JUMPDEST POP POP POP POP POP DUP2 MSTORE PUSH1 0x20 ADD SWAP1 PUSH1 0x1 ADD SWAP1 PUSH2 0x1260 JUMP JUMPDEST POP POP POP POP DUP2 MSTORE PUSH1 0x20 ADD PUSH1 0x1 DUP3 ADD DUP1 SLOAD DUP1 PUSH1 0x20 MUL PUSH1 0x20 ADD PUSH1 0x40 MLOAD SWAP1 DUP2 ADD PUSH1 0x40 MSTORE DUP1 SWAP3 SWAP2 SWAP1 DUP2 DUP2 MSTORE PUSH1 0x20 ADD PUSH1 0x0 SWAP1 JUMPDEST DUP3 DUP3 LT ISZERO PUSH2 0x13E5 JUMPI DUP4 DUP3 SWAP1 PUSH1 0x0 MSTORE PUSH1 0x20 PUSH1 0x0 KECCAK256 ADD DUP1 SLOAD PUSH2 0x1358 SWAP1 PUSH2 0x273E JUMP JUMPDEST DUP1 PUSH1 0x1F ADD PUSH1 0x20 DUP1 SWAP2 DIV MUL PUSH1 0x20 ADD PUSH1 0x40 MLOAD SWAP1 DUP2 ADD PUSH1 0x40 MSTORE DUP1 SWAP3 SWAP2 SWAP1 DUP2 DUP2 MSTORE PUSH1 0x20 ADD DUP3 DUP1 SLOAD PUSH2 0x1384 SWAP1 PUSH2 0x273E JUMP JUMPDEST DUP1 ISZERO PUSH2 0x13D1 JUMPI DUP1 PUSH1 0x1F LT PUSH2 0x13A6 JUMPI PUSH2 0x100 DUP1 DUP4 SLOAD DIV MUL DUP4 MSTORE SWAP2 PUSH1 0x20 ADD SWAP2 PUSH2 0x13D1 JUMP JUMPDEST DUP3 ADD SWAP2 SWAP1 PUSH1 0x0 MSTORE PUSH1 0x20 PUSH1 0x0 KECCAK256 SWAP1 JUMPDEST DUP2 SLOAD DUP2 MSTORE SWAP1 PUSH1 0x1 ADD SWAP1 PUSH1 0x20 ADD DUP1 DUP4 GT PUSH2 0x13B4 JUMPI DUP3 SWAP1 SUB PUSH1 0x1F AND DUP3 ADD SWAP2 JUMPDEST POP POP POP POP POP DUP2 MSTORE PUSH1 0x20 ADD SWAP1 PUSH1 0x1 ADD SWAP1 PUSH2 0x1339 JUMP JUMPDEST POP POP POP POP DUP2 MSTORE PUSH1 0x20 ADD PUSH1 0x2 DUP3 ADD DUP1 SLOAD DUP1 PUSH1 0x20 MUL PUSH1 0x20 ADD PUSH1 0x40 MLOAD SWAP1 DUP2 ADD PUSH1 0x40 MSTORE DUP1 SWAP3 SWAP2 SWAP1 DUP2 DUP2 MSTORE PUSH1 0x20 ADD PUSH1 0x0 SWAP1 JUMPDEST DUP3 DUP3 LT ISZERO PUSH2 0x14BE JUMPI DUP4 DUP3 SWAP1 PUSH1 0x0 MSTORE PUSH1 0x20 PUSH1 0x0 KECCAK256 ADD DUP1 SLOAD PUSH2 0x1431 SWAP1 PUSH2 0x273E JUMP JUMPDEST DUP1 PUSH1 0x1F ADD PUSH1 0x20 DUP1 SWAP2 DIV MUL PUSH1 0x20 ADD PUSH1 0x40 MLOAD SWAP1 DUP2 ADD PUSH1 0x40 MSTORE DUP1 SWAP3 SWAP2 SWAP1 DUP2 DUP2 MSTORE PUSH1 0x20 ADD DUP3 DUP1 SLOAD PUSH2 0x145D SWAP1 PUSH2 0x273E JUMP JUMPDEST DUP1 ISZERO PUSH2 0x14AA JUMPI DUP1 PUSH1 0x1F LT PUSH2 0x147F JUMPI PUSH2 0x100 DUP1 DUP4 SLOAD DIV MUL DUP4 MSTORE SWAP2 PUSH1 0x20 ADD SWAP2 PUSH2 0x14AA JUMP JUMPDEST DUP3 ADD SWAP2 SWAP1 PUSH1 0x0 MSTORE PUSH1 0x20 PUSH1 0x0 KECCAK256 SWAP1 JUMPDEST DUP2 SLOAD DUP2 MSTORE SWAP1 PUSH1 0x1 ADD SWAP1 PUSH1 0x20 ADD DUP1 DUP4 GT PUSH2 0x148D JUMPI DUP3 SWAP1 SUB PUSH1 0x1F AND DUP3 ADD SWAP2 JUMPDEST POP POP POP POP POP DUP2 MSTORE PUSH1 0x20 ADD SWAP1 PUSH1 0x1 ADD SWAP1 PUSH2 0x1412 JUMP JUMPDEST POP POP POP POP DUP2 MSTORE POP POP SWAP1 POP DUP4 JUMP JUMPDEST PUSH1 0x0 DUP1 CALLER PUSH20 0xFFFFFFFFFFFFFFFFFFFFFFFFFFFFFFFFFFFFFFFF AND PUSH20 0xFFFFFFFFFFFFFFFFFFFFFFFFFFFFFFFFFFFFFFFF AND DUP2 MSTORE PUSH1 0x20 ADD SWAP1 DUP2 MSTORE PUSH1 0x20 ADD PUSH1 0x0 KECCAK256 PUSH1 0x11 ADD PUSH1 0x0 PUSH2 0x1518 SWAP2 SWAP1 PUSH2 0x1BE5 JUMP JUMPDEST JUMP JUMPDEST PUSH1 0x60 DUP1 PUSH1 0x60 DUP1 PUSH1 0x0 DUP1 CALLER PUSH20 0xFFFFFFFFFFFFFFFFFFFFFFFFFFFFFFFFFFFFFFFF AND PUSH20 0xFFFFFFFFFFFFFFFFFFFFFFFFFFFFFFFFFFFFFFFF AND DUP2 MSTORE PUSH1 0x20 ADD SWAP1 DUP2 MSTORE PUSH1 0x20 ADD PUSH1 0x0 KECCAK256 PUSH1 0x11 ADD DUP6 DUP2 SLOAD DUP2 LT PUSH2 0x1573 JUMPI PUSH2 0x1572 PUSH2 0x27D0 JUMP JUMPDEST JUMPDEST SWAP1 PUSH1 0x0 MSTORE PUSH1 0x20 PUSH1 0x0 KECCAK256 SWAP1 PUSH1 0x4 MUL ADD PUSH1 0x0 ADD PUSH1 0x0 DUP1 CALLER PUSH20 0xFFFFFFFFFFFFFFFFFFFFFFFFFFFFFFFFFFFFFFFF AND PUSH20 0xFFFFFFFFFFFFFFFFFFFFFFFFFFFFFFFFFFFFFFFF AND DUP2 MSTORE PUSH1 0x20 ADD SWAP1 DUP2 MSTORE PUSH1 0x20 ADD PUSH1 0x0 KECCAK256 PUSH1 0x11 ADD DUP7 DUP2 SLOAD DUP2 LT PUSH2 0x15D7 JUMPI PUSH2 0x15D6 PUSH2 0x27D0 JUMP JUMPDEST JUMPDEST SWAP1 PUSH1 0x0 MSTORE PUSH1 0x20 PUSH1 0x0 KECCAK256 SWAP1 PUSH1 0x4 MUL ADD PUSH1 0x1 ADD PUSH1 0x0 DUP1 CALLER PUSH20 0xFFFFFFFFFFFFFFFFFFFFFFFFFFFFFFFFFFFFFFFF AND PUSH20 0xFFFFFFFFFFFFFFFFFFFFFFFFFFFFFFFFFFFFFFFF AND DUP2 MSTORE PUSH1 0x20 ADD SWAP1 DUP2 MSTORE PUSH1 0x20 ADD PUSH1 0x0 KECCAK256 PUSH1 0x11 ADD DUP8 DUP2 SLOAD DUP2 LT PUSH2 0x163B JUMPI PUSH2 0x163A PUSH2 0x27D0 JUMP JUMPDEST JUMPDEST SWAP1 PUSH1 0x0 MSTORE PUSH1 0x20 PUSH1 0x0 KECCAK256 SWAP1 PUSH1 0x4 MUL ADD PUSH1 0x2 ADD PUSH1 0x0 DUP1 CALLER PUSH20 0xFFFFFFFFFFFFFFFFFFFFFFFFFFFFFFFFFFFFFFFF AND PUSH20 0xFFFFFFFFFFFFFFFFFFFFFFFFFFFFFFFFFFFFFFFF AND DUP2 MSTORE PUSH1 0x20 ADD SWAP1 DUP2 MSTORE PUSH1 0x20 ADD PUSH1 0x0 KECCAK256 PUSH1 0x11 ADD DUP9 DUP2 SLOAD DUP2 LT PUSH2 0x169F JUMPI PUSH2 0x169E PUSH2 0x27D0 JUMP JUMPDEST JUMPDEST SWAP1 PUSH1 0x0 MSTORE PUSH1 0x20 PUSH1 0x0 KECCAK256 SWAP1 PUSH1 0x4 MUL ADD PUSH1 0x3 ADD DUP4 DUP1 SLOAD PUSH2 0x16BC SWAP1 PUSH2 0x273E JUMP JUMPDEST DUP1 PUSH1 0x1F ADD PUSH1 0x20 DUP1 SWAP2 DIV MUL PUSH1 0x20 ADD PUSH1 0x40 MLOAD SWAP1 DUP2 ADD PUSH1 0x40 MSTORE DUP1 SWAP3 SWAP2 SWAP1 DUP2 DUP2 MSTORE PUSH1 0x20 ADD DUP3 DUP1 SLOAD PUSH2 0x16E8 SWAP1 PUSH2 0x273E JUMP JUMPDEST DUP1 ISZERO PUSH2 0x1735 JUMPI DUP1 PUSH1 0x1F LT PUSH2 0x170A JUMPI PUSH2 0x100 DUP1 DUP4 SLOAD DIV MUL DUP4 MSTORE SWAP2 PUSH1 0x20 ADD SWAP2 PUSH2 0x1735 JUMP JUMPDEST DUP3 ADD SWAP2 SWAP1 PUSH1 0x0 MSTORE PUSH1 0x20 PUSH1 0x0 KECCAK256 SWAP1 JUMPDEST DUP2 SLOAD DUP2 MSTORE SWAP1 PUSH1 0x1 ADD SWAP1 PUSH1 0x20 ADD DUP1 DUP4 GT PUSH2 0x1718 JUMPI DUP3 SWAP1 SUB PUSH1 0x1F AND DUP3 ADD SWAP2 JUMPDEST POP POP POP POP POP SWAP4 POP DUP3 DUP1 SLOAD PUSH2 0x1748 SWAP1 PUSH2 0x273E JUMP JUMPDEST DUP1 PUSH1 0x1F ADD PUSH1 0x20 DUP1 SWAP2 DIV MUL PUSH1 0x20 ADD PUSH1 0x40 MLOAD SWAP1 DUP2 ADD PUSH1 0x40 MSTORE DUP1 SWAP3 SWAP2 SWAP1 DUP2 DUP2 MSTORE PUSH1 0x20 ADD DUP3 DUP1 SLOAD PUSH2 0x1774 SWAP1 PUSH2 0x273E JUMP JUMPDEST DUP1 ISZERO PUSH2 0x17C1 JUMPI DUP1 PUSH1 0x1F LT PUSH2 0x1796 JUMPI PUSH2 0x100 DUP1 DUP4 SLOAD DIV MUL DUP4 MSTORE SWAP2 PUSH1 0x20 ADD SWAP2 PUSH2 0x17C1 JUMP JUMPDEST DUP3 ADD SWAP2 SWAP1 PUSH1 0x0 MSTORE PUSH1 0x20 PUSH1 0x0 KECCAK256 SWAP1 JUMPDEST DUP2 SLOAD DUP2 MSTORE SWAP1 PUSH1 0x1 ADD SWAP1 PUSH1 0x20 ADD DUP1 DUP4 GT PUSH2 0x17A4 JUMPI DUP3 SWAP1 SUB PUSH1 0x1F AND DUP3 ADD SWAP2 JUMPDEST POP POP POP POP POP SWAP3 POP DUP2 DUP1 SLOAD PUSH2 0x17D4 SWAP1 PUSH2 0x273E JUMP JUMPDEST DUP1 PUSH1 0x1F ADD PUSH1 0x20 DUP1 SWAP2 DIV MUL PUSH1 0x20 ADD PUSH1 0x40 MLOAD SWAP1 DUP2 ADD PUSH1 0x40 MSTORE DUP1 SWAP3 SWAP2 SWAP1 DUP2 DUP2 MSTORE PUSH1 0x20 ADD DUP3 DUP1 SLOAD PUSH2 0x1800 SWAP1 PUSH2 0x273E JUMP JUMPDEST DUP1 ISZERO PUSH2 0x184D JUMPI DUP1 PUSH1 0x1F LT PUSH2 0x1822 JUMPI PUSH2 0x100 DUP1 DUP4 SLOAD DIV MUL DUP4 MSTORE SWAP2 PUSH1 0x20 ADD SWAP2 PUSH2 0x184D JUMP JUMPDEST DUP3 ADD SWAP2 SWAP1 PUSH1 0x0 MSTORE PUSH1 0x20 PUSH1 0x0 KECCAK256 SWAP1 JUMPDEST DUP2 SLOAD DUP2 MSTORE SWAP1 PUSH1 0x1 ADD SWAP1 PUSH1 0x20 ADD DUP1 DUP4 GT PUSH2 0x1830 JUMPI DUP3 SWAP1 SUB PUSH1 0x1F AND DUP3 ADD SWAP2 JUMPDEST POP POP POP POP POP SWAP2 POP DUP1 DUP1 SLOAD PUSH2 0x1860 SWAP1 PUSH2 0x273E JUMP JUMPDEST DUP1 PUSH1 0x1F ADD PUSH1 0x20 DUP1 SWAP2 DIV MUL PUSH1 0x20 ADD PUSH1 0x40 MLOAD SWAP1 DUP2 ADD PUSH1 0x40 MSTORE DUP1 SWAP3 SWAP2 SWAP1 DUP2 DUP2 MSTORE PUSH1 0x20 ADD DUP3 DUP1 SLOAD PUSH2 0x188C SWAP1 PUSH2 0x273E JUMP JUMPDEST DUP1 ISZERO PUSH2 0x18D9 JUMPI DUP1 PUSH1 0x1F LT PUSH2 0x18AE JUMPI PUSH2 0x100 DUP1 DUP4 SLOAD DIV MUL DUP4 MSTORE SWAP2 PUSH1 0x20 ADD SWAP2 PUSH2 0x18D9 JUMP JUMPDEST DUP3 ADD SWAP2 SWAP1 PUSH1 0x0 MSTORE PUSH1 0x20 PUSH1 0x0 KECCAK256 SWAP1 JUMPDEST DUP2 SLOAD DUP2 MSTORE SWAP1 PUSH1 0x1 ADD SWAP1 PUSH1 0x20 ADD DUP1 DUP4 GT PUSH2 0x18BC JUMPI DUP3 SWAP1 SUB PUSH1 0x1F AND DUP3 ADD SWAP2 JUMPDEST POP POP POP POP POP SWAP1 POP SWAP4 POP SWAP4 POP SWAP4 POP SWAP4 POP SWAP2 SWAP4 POP SWAP2 SWAP4 JUMP JUMPDEST PUSH1 0x0 DUP1 CALLER PUSH20 0xFFFFFFFFFFFFFFFFFFFFFFFFFFFFFFFFFFFFFFFF AND PUSH20 0xFFFFFFFFFFFFFFFFFFFFFFFFFFFFFFFFFFFFFFFF AND DUP2 MSTORE PUSH1 0x20 ADD SWAP1 DUP2 MSTORE PUSH1 0x20 ADD PUSH1 0x0 KECCAK256 PUSH1 0x0 DUP1 DUP3 ADD PUSH1 0x0 DUP1 DUP3 ADD PUSH1 0x0 PUSH2 0x1943 SWAP2 SWAP1 PUSH2 0x1AF7 JUMP JUMPDEST PUSH1 0x1 DUP3 ADD PUSH1 0x0 PUSH2 0x1953 SWAP2 SWAP1 PUSH2 0x1AF7 JUMP JUMPDEST PUSH1 0x2 DUP3 ADD PUSH1 0x0 PUSH2 0x100 EXP DUP2 SLOAD SWAP1 PUSH20 0xFFFFFFFFFFFFFFFFFFFFFFFFFFFFFFFFFFFFFFFF MUL NOT AND SWAP1 SSTORE PUSH1 0x3 DUP3 ADD PUSH1 0x0 PUSH2 0x198A SWAP2 SWAP1 PUSH2 0x1AF7 JUMP JUMPDEST PUSH1 0x4 DUP3 ADD PUSH1 0x0 PUSH2 0x199A SWAP2 SWAP1 PUSH2 0x1AF7 JUMP JUMPDEST PUSH1 0x5 DUP3 ADD PUSH1 0x0 PUSH2 0x19AA SWAP2 SWAP1 PUSH2 0x1AF7 JUMP JUMPDEST PUSH1 0x6 DUP3 ADD PUSH1 0x0 PUSH2 0x19BA SWAP2 SWAP1 PUSH2 0x1AF7 JUMP JUMPDEST PUSH1 0x7 DUP3 ADD PUSH1 0x0 SWAP1 SSTORE POP POP PUSH1 0x8 DUP3 ADD PUSH1 0x0 DUP1 DUP3 ADD PUSH1 0x0 PUSH2 0x19D9 SWAP2 SWAP1 PUSH2 0x1AF7 JUMP JUMPDEST PUSH1 0x1 DUP3 ADD PUSH1 0x0 PUSH2 0x19E9 SWAP2 SWAP1 PUSH2 0x1AF7 JUMP JUMPDEST PUSH1 0x2 DUP3 ADD PUSH1 0x0 PUSH2 0x19F9 SWAP2 SWAP1 PUSH2 0x1AF7 JUMP JUMPDEST PUSH1 0x3 DUP3 ADD PUSH1 0x0 PUSH2 0x1A09 SWAP2 SWAP1 PUSH2 0x1AF7 JUMP JUMPDEST PUSH1 0x4 DUP3 ADD PUSH1 0x0 PUSH2 0x1A19 SWAP2 SWAP1 PUSH2 0x1AF7 JUMP JUMPDEST PUSH1 0x5 DUP3 ADD PUSH1 0x0 PUSH2 0x1A29 SWAP2 SWAP1 PUSH2 0x1AF7 JUMP JUMPDEST POP POP PUSH1 0xE DUP3 ADD PUSH1 0x0 DUP1 DUP3 ADD PUSH1 0x0 PUSH2 0x1A40 SWAP2 SWAP1 PUSH2 0x1A76 JUMP JUMPDEST PUSH1 0x1 DUP3 ADD PUSH1 0x0 PUSH2 0x1A50 SWAP2 SWAP1 PUSH2 0x1A76 JUMP JUMPDEST PUSH1 0x2 DUP3 ADD PUSH1 0x0 PUSH2 0x1A60 SWAP2 SWAP1 PUSH2 0x1A76 JUMP JUMPDEST POP POP PUSH1 0x11 DUP3 ADD PUSH1 0x0 PUSH2 0x1A72 SWAP2 SWAP1 PUSH2 0x1BE5 JUMP JUMPDEST POP POP JUMP JUMPDEST POP DUP1 SLOAD PUSH1 0x0 DUP3 SSTORE SWAP1 PUSH1 0x0 MSTORE PUSH1 0x20 PUSH1 0x0 KECCAK256 SWAP1 DUP2 ADD SWAP1 PUSH2 0x1A94 SWAP2 SWAP1 PUSH2 0x1C09 JUMP JUMPDEST POP JUMP JUMPDEST DUP3 DUP1 SLOAD DUP3 DUP3 SSTORE SWAP1 PUSH1 0x0 MSTORE PUSH1 0x20 PUSH1 0x0 KECCAK256 SWAP1 DUP2 ADD SWAP3 DUP3 ISZERO PUSH2 0x1AE6 JUMPI SWAP2 PUSH1 0x20 MUL DUP3 ADD JUMPDEST DUP3 DUP2 GT ISZERO PUSH2 0x1AE5 JUMPI DUP3 MLOAD DUP3 SWAP1 DUP1 MLOAD SWAP1 PUSH1 0x20 ADD SWAP1 PUSH2 0x1AD5 SWAP3 SWAP2 SWAP1 PUSH2 0x1B37 JUMP JUMPDEST POP SWAP2 PUSH1 0x20 ADD SWAP2 SWAP1 PUSH1 0x1 ADD SWAP1 PUSH2 0x1AB7 JUMP JUMPDEST JUMPDEST POP SWAP1 POP PUSH2 0x1AF3 SWAP2 SWAP1 PUSH2 0x1C09 JUMP JUMPDEST POP SWAP1 JUMP JUMPDEST POP DUP1 SLOAD PUSH2 0x1B03 SWAP1 PUSH2 0x273E JUMP JUMPDEST PUSH1 0x0 DUP3 SSTORE DUP1 PUSH1 0x1F LT PUSH2 0x1B15 JUMPI POP PUSH2 0x1B34 JUMP JUMPDEST PUSH1 0x1F ADD PUSH1 0x20 SWAP1 DIV SWAP1 PUSH1 0x0 MSTORE PUSH1 0x20 PUSH1 0x0 KECCAK256 SWAP1 DUP2 ADD SWAP1 PUSH2 0x1B33 SWAP2 SWAP1 PUSH2 0x1C2D JUMP JUMPDEST JUMPDEST POP JUMP JUMPDEST DUP3 DUP1 SLOAD PUSH2 0x1B43 SWAP1 PUSH2 0x273E JUMP JUMPDEST SWAP1 PUSH1 0x0 MSTORE PUSH1 0x20 PUSH1 0x0 KECCAK256 SWAP1 PUSH1 0x1F ADD PUSH1 0x20 SWAP1 DIV DUP2 ADD SWAP3 DUP3 PUSH2 0x1B65 JUMPI PUSH1 0x0 DUP6 SSTORE PUSH2 0x1BAC JUMP JUMPDEST DUP3 PUSH1 0x1F LT PUSH2 0x1B7E JUMPI DUP1 MLOAD PUSH1 0xFF NOT AND DUP4 DUP1 ADD OR DUP6 SSTORE PUSH2 0x1BAC JUMP JUMPDEST DUP3 DUP1 ADD PUSH1 0x1 ADD DUP6 SSTORE DUP3 ISZERO PUSH2 0x1BAC JUMPI SWAP2 DUP3 ADD JUMPDEST DUP3 DUP2 GT ISZERO PUSH2 0x1BAB JUMPI DUP3 MLOAD DUP3 SSTORE SWAP2 PUSH1 0x20 ADD SWAP2 SWAP1 PUSH1 0x1 ADD SWAP1 PUSH2 0x1B90 JUMP JUMPDEST JUMPDEST POP SWAP1 POP PUSH2 0x1BB9 SWAP2 SWAP1 PUSH2 0x1C2D JUMP JUMPDEST POP SWAP1 JUMP JUMPDEST PUSH1 0x40 MLOAD DUP1 PUSH1 0x80 ADD PUSH1 0x40 MSTORE DUP1 PUSH1 0x60 DUP2 MSTORE PUSH1 0x20 ADD PUSH1 0x60 DUP2 MSTORE PUSH1 0x20 ADD PUSH1 0x60 DUP2 MSTORE PUSH1 0x20 ADD PUSH1 0x60 DUP2 MSTORE POP SWAP1 JUMP JUMPDEST POP DUP1 SLOAD PUSH1 0x0 DUP3 SSTORE PUSH1 0x4 MUL SWAP1 PUSH1 0x0 MSTORE PUSH1 0x20 PUSH1 0x0 KECCAK256 SWAP1 DUP2 ADD SWAP1 PUSH2 0x1C06 SWAP2 SWAP1 PUSH2 0x1C4A JUMP JUMPDEST POP JUMP JUMPDEST JUMPDEST DUP1 DUP3 GT ISZERO PUSH2 0x1C29 JUMPI PUSH1 0x0 DUP2 DUP2 PUSH2 0x1C20 SWAP2 SWAP1 PUSH2 0x1AF7 JUMP JUMPDEST POP PUSH1 0x1 ADD PUSH2 0x1C0A JUMP JUMPDEST POP SWAP1 JUMP JUMPDEST JUMPDEST DUP1 DUP3 GT ISZERO PUSH2 0x1C46 JUMPI PUSH1 0x0 DUP2 PUSH1 0x0 SWAP1 SSTORE POP PUSH1 0x1 ADD PUSH2 0x1C2E JUMP JUMPDEST POP SWAP1 JUMP JUMPDEST JUMPDEST DUP1 DUP3 GT ISZERO PUSH2 0x1C9D JUMPI PUSH1 0x0 DUP1 DUP3 ADD PUSH1 0x0 PUSH2 0x1C64 SWAP2 SWAP1 PUSH2 0x1AF7 JUMP JUMPDEST PUSH1 0x1 DUP3 ADD PUSH1 0x0 PUSH2 0x1C74 SWAP2 SWAP1 PUSH2 0x1AF7 JUMP JUMPDEST PUSH1 0x2 DUP3 ADD PUSH1 0x0 PUSH2 0x1C84 SWAP2 SWAP1 PUSH2 0x1AF7 JUMP JUMPDEST PUSH1 0x3 DUP3 ADD PUSH1 0x0 PUSH2 0x1C94 SWAP2 SWAP1 PUSH2 0x1AF7 JUMP JUMPDEST POP PUSH1 0x4 ADD PUSH2 0x1C4B JUMP JUMPDEST POP SWAP1 JUMP JUMPDEST PUSH1 0x0 PUSH2 0x1CB4 PUSH2 0x1CAF DUP5 PUSH2 0x25FD JUMP JUMPDEST PUSH2 0x25D8 JUMP JUMPDEST SWAP1 POP DUP1 DUP4 DUP3 MSTORE PUSH1 0x20 DUP3 ADD SWAP1 POP DUP3 DUP6 PUSH1 0x20 DUP7 MUL DUP3 ADD GT ISZERO PUSH2 0x1CD7 JUMPI PUSH2 0x1CD6 PUSH2 0x2833 JUMP JUMPDEST JUMPDEST PUSH1 0x0 JUMPDEST DUP6 DUP2 LT ISZERO PUSH2 0x1D25 JUMPI DUP2 CALLDATALOAD PUSH8 0xFFFFFFFFFFFFFFFF DUP2 GT ISZERO PUSH2 0x1CFD JUMPI PUSH2 0x1CFC PUSH2 0x282E JUMP JUMPDEST JUMPDEST DUP1 DUP7 ADD PUSH2 0x1D0A DUP10 DUP3 PUSH2 0x1DB4 JUMP JUMPDEST DUP6 MSTORE PUSH1 0x20 DUP6 ADD SWAP5 POP PUSH1 0x20 DUP5 ADD SWAP4 POP POP POP PUSH1 0x1 DUP2 ADD SWAP1 POP PUSH2 0x1CDA JUMP JUMPDEST POP POP POP SWAP4 SWAP3 POP POP POP JUMP JUMPDEST PUSH1 0x0 PUSH2 0x1D42 PUSH2 0x1D3D DUP5 PUSH2 0x2629 JUMP JUMPDEST PUSH2 0x25D8 JUMP JUMPDEST SWAP1 POP DUP3 DUP2 MSTORE PUSH1 0x20 DUP2 ADD DUP5 DUP5 DUP5 ADD GT ISZERO PUSH2 0x1D5E JUMPI PUSH2 0x1D5D PUSH2 0x2838 JUMP JUMPDEST JUMPDEST PUSH2 0x1D69 DUP5 DUP3 DUP6 PUSH2 0x26FC JUMP JUMPDEST POP SWAP4 SWAP3 POP POP POP JUMP JUMPDEST PUSH1 0x0 DUP2 CALLDATALOAD SWAP1 POP PUSH2 0x1D80 DUP2 PUSH2 0x2858 JUMP JUMPDEST SWAP3 SWAP2 POP POP JUMP JUMPDEST PUSH1 0x0 DUP3 PUSH1 0x1F DUP4 ADD SLT PUSH2 0x1D9B JUMPI PUSH2 0x1D9A PUSH2 0x282E JUMP JUMPDEST JUMPDEST DUP2 CALLDATALOAD PUSH2 0x1DAB DUP5 DUP3 PUSH1 0x20 DUP7 ADD PUSH2 0x1CA1 JUMP JUMPDEST SWAP2 POP POP SWAP3 SWAP2 POP POP JUMP JUMPDEST PUSH1 0x0 DUP3 PUSH1 0x1F DUP4 ADD SLT PUSH2 0x1DC9 JUMPI PUSH2 0x1DC8 PUSH2 0x282E JUMP JUMPDEST JUMPDEST DUP2 CALLDATALOAD PUSH2 0x1DD9 DUP5 DUP3 PUSH1 0x20 DUP7 ADD PUSH2 0x1D2F JUMP JUMPDEST SWAP2 POP POP SWAP3 SWAP2 POP POP JUMP JUMPDEST PUSH1 0x0 DUP2 CALLDATALOAD SWAP1 POP PUSH2 0x1DF1 DUP2 PUSH2 0x286F JUMP JUMPDEST SWAP3 SWAP2 POP POP JUMP JUMPDEST PUSH1 0x0 PUSH1 0x20 DUP3 DUP5 SUB SLT ISZERO PUSH2 0x1E0D JUMPI PUSH2 0x1E0C PUSH2 0x2842 JUMP JUMPDEST JUMPDEST PUSH1 0x0 PUSH2 0x1E1B DUP5 DUP3 DUP6 ADD PUSH2 0x1D71 JUMP JUMPDEST SWAP2 POP POP SWAP3 SWAP2 POP POP JUMP JUMPDEST PUSH1 0x0 DUP1 PUSH1 0x0 PUSH1 0x60 DUP5 DUP7 SUB SLT ISZERO PUSH2 0x1E3D JUMPI PUSH2 0x1E3C PUSH2 0x2842 JUMP JUMPDEST JUMPDEST PUSH1 0x0 DUP5 ADD CALLDATALOAD PUSH8 0xFFFFFFFFFFFFFFFF DUP2 GT ISZERO PUSH2 0x1E5B JUMPI PUSH2 0x1E5A PUSH2 0x283D JUMP JUMPDEST JUMPDEST PUSH2 0x1E67 DUP7 DUP3 DUP8 ADD PUSH2 0x1D86 JUMP JUMPDEST SWAP4 POP POP PUSH1 0x20 DUP5 ADD CALLDATALOAD PUSH8 0xFFFFFFFFFFFFFFFF DUP2 GT ISZERO PUSH2 0x1E88 JUMPI PUSH2 0x1E87 PUSH2 0x283D JUMP JUMPDEST JUMPDEST PUSH2 0x1E94 DUP7 DUP3 DUP8 ADD PUSH2 0x1D86 JUMP JUMPDEST SWAP3 POP POP PUSH1 0x40 DUP5 ADD CALLDATALOAD PUSH8 0xFFFFFFFFFFFFFFFF DUP2 GT ISZERO PUSH2 0x1EB5 JUMPI PUSH2 0x1EB4 PUSH2 0x283D JUMP JUMPDEST JUMPDEST PUSH2 0x1EC1 DUP7 DUP3 DUP8 ADD PUSH2 0x1D86 JUMP JUMPDEST SWAP2 POP POP SWAP3 POP SWAP3 POP SWAP3 JUMP JUMPDEST PUSH1 0x0 DUP1 PUSH1 0x0 DUP1 PUSH1 0x80 DUP6 DUP8 SUB SLT ISZERO PUSH2 0x1EE5 JUMPI PUSH2 0x1EE4 PUSH2 0x2842 JUMP JUMPDEST JUMPDEST PUSH1 0x0 DUP6 ADD CALLDATALOAD PUSH8 0xFFFFFFFFFFFFFFFF DUP2 GT ISZERO PUSH2 0x1F03 JUMPI PUSH2 0x1F02 PUSH2 0x283D JUMP JUMPDEST JUMPDEST PUSH2 0x1F0F DUP8 DUP3 DUP9 ADD PUSH2 0x1DB4 JUMP JUMPDEST SWAP5 POP POP PUSH1 0x20 DUP6 ADD CALLDATALOAD PUSH8 0xFFFFFFFFFFFFFFFF DUP2 GT ISZERO PUSH2 0x1F30 JUMPI PUSH2 0x1F2F PUSH2 0x283D JUMP JUMPDEST JUMPDEST PUSH2 0x1F3C DUP8 DUP3 DUP9 ADD PUSH2 0x1DB4 JUMP JUMPDEST SWAP4 POP POP PUSH1 0x40 DUP6 ADD CALLDATALOAD PUSH8 0xFFFFFFFFFFFFFFFF DUP2 GT ISZERO PUSH2 0x1F5D JUMPI PUSH2 0x1F5C PUSH2 0x283D JUMP JUMPDEST JUMPDEST PUSH2 0x1F69 DUP8 DUP3 DUP9 ADD PUSH2 0x1DB4 JUMP JUMPDEST SWAP3 POP POP PUSH1 0x60 DUP6 ADD CALLDATALOAD PUSH8 0xFFFFFFFFFFFFFFFF DUP2 GT ISZERO PUSH2 0x1F8A JUMPI PUSH2 0x1F89 PUSH2 0x283D JUMP JUMPDEST JUMPDEST PUSH2 0x1F96 DUP8 DUP3 DUP9 ADD PUSH2 0x1DB4 JUMP JUMPDEST SWAP2 POP POP SWAP3 SWAP6 SWAP2 SWAP5 POP SWAP3 POP JUMP JUMPDEST PUSH1 0x0 DUP1 PUSH1 0x0 DUP1 PUSH1 0x0 PUSH1 0xA0 DUP7 DUP9 SUB SLT ISZERO PUSH2 0x1FBE JUMPI PUSH2 0x1FBD PUSH2 0x2842 JUMP JUMPDEST JUMPDEST PUSH1 0x0 DUP7 ADD CALLDATALOAD PUSH8 0xFFFFFFFFFFFFFFFF DUP2 GT ISZERO PUSH2 0x1FDC JUMPI PUSH2 0x1FDB PUSH2 0x283D JUMP JUMPDEST JUMPDEST PUSH2 0x1FE8 DUP9 DUP3 DUP10 ADD PUSH2 0x1DB4 JUMP JUMPDEST SWAP6 POP POP PUSH1 0x20 DUP7 ADD CALLDATALOAD PUSH8 0xFFFFFFFFFFFFFFFF DUP2 GT ISZERO PUSH2 0x2009 JUMPI PUSH2 0x2008 PUSH2 0x283D JUMP JUMPDEST JUMPDEST PUSH2 0x2015 DUP9 DUP3 DUP10 ADD PUSH2 0x1DB4 JUMP JUMPDEST SWAP5 POP POP PUSH1 0x40 DUP7 ADD CALLDATALOAD PUSH8 0xFFFFFFFFFFFFFFFF DUP2 GT ISZERO PUSH2 0x2036 JUMPI PUSH2 0x2035 PUSH2 0x283D JUMP JUMPDEST JUMPDEST PUSH2 0x2042 DUP9 DUP3 DUP10 ADD PUSH2 0x1DB4 JUMP JUMPDEST SWAP4 POP POP PUSH1 0x60 DUP7 ADD CALLDATALOAD PUSH8 0xFFFFFFFFFFFFFFFF DUP2 GT ISZERO PUSH2 0x2063 JUMPI PUSH2 0x2062 PUSH2 0x283D JUMP JUMPDEST JUMPDEST PUSH2 0x206F DUP9 DUP3 DUP10 ADD PUSH2 0x1DB4 JUMP JUMPDEST SWAP3 POP POP PUSH1 0x80 DUP7 ADD CALLDATALOAD PUSH8 0xFFFFFFFFFFFFFFFF DUP2 GT ISZERO PUSH2 0x2090 JUMPI PUSH2 0x208F PUSH2 0x283D JUMP JUMPDEST JUMPDEST PUSH2 0x209C DUP9 DUP3 DUP10 ADD PUSH2 0x1DB4 JUMP JUMPDEST SWAP2 POP POP SWAP3 SWAP6 POP SWAP3 SWAP6 SWAP1 SWAP4 POP JUMP JUMPDEST PUSH1 0x0 DUP1 PUSH1 0x0 DUP1 PUSH1 0x0 DUP1 PUSH1 0xC0 DUP8 DUP10 SUB SLT ISZERO PUSH2 0x20C6 JUMPI PUSH2 0x20C5 PUSH2 0x2842 JUMP JUMPDEST JUMPDEST PUSH1 0x0 DUP8 ADD CALLDATALOAD PUSH8 0xFFFFFFFFFFFFFFFF DUP2 GT ISZERO PUSH2 0x20E4 JUMPI PUSH2 0x20E3 PUSH2 0x283D JUMP JUMPDEST JUMPDEST PUSH2 0x20F0 DUP10 DUP3 DUP11 ADD PUSH2 0x1DB4 JUMP JUMPDEST SWAP7 POP POP PUSH1 0x20 DUP8 ADD CALLDATALOAD PUSH8 0xFFFFFFFFFFFFFFFF DUP2 GT ISZERO PUSH2 0x2111 JUMPI PUSH2 0x2110 PUSH2 0x283D JUMP JUMPDEST JUMPDEST PUSH2 0x211D DUP10 DUP3 DUP11 ADD PUSH2 0x1DB4 JUMP JUMPDEST SWAP6 POP POP PUSH1 0x40 DUP8 ADD CALLDATALOAD PUSH8 0xFFFFFFFFFFFFFFFF DUP2 GT ISZERO PUSH2 0x213E JUMPI PUSH2 0x213D PUSH2 0x283D JUMP JUMPDEST JUMPDEST PUSH2 0x214A DUP10 DUP3 DUP11 ADD PUSH2 0x1DB4 JUMP JUMPDEST SWAP5 POP POP PUSH1 0x60 DUP8 ADD CALLDATALOAD PUSH8 0xFFFFFFFFFFFFFFFF DUP2 GT ISZERO PUSH2 0x216B JUMPI PUSH2 0x216A PUSH2 0x283D JUMP JUMPDEST JUMPDEST PUSH2 0x2177 DUP10 DUP3 DUP11 ADD PUSH2 0x1DB4 JUMP JUMPDEST SWAP4 POP POP PUSH1 0x80 DUP8 ADD CALLDATALOAD PUSH8 0xFFFFFFFFFFFFFFFF DUP2 GT ISZERO PUSH2 0x2198 JUMPI PUSH2 0x2197 PUSH2 0x283D JUMP JUMPDEST JUMPDEST PUSH2 0x21A4 DUP10 DUP3 DUP11 ADD PUSH2 0x1DB4 JUMP JUMPDEST SWAP3 POP POP PUSH1 0xA0 DUP8 ADD CALLDATALOAD PUSH8 0xFFFFFFFFFFFFFFFF DUP2 GT ISZERO PUSH2 0x21C5 JUMPI PUSH2 0x21C4 PUSH2 0x283D JUMP JUMPDEST JUMPDEST PUSH2 0x21D1 DUP10 DUP3 DUP11 ADD PUSH2 0x1DB4 JUMP JUMPDEST SWAP2 POP POP SWAP3 SWAP6 POP SWAP3 SWAP6 POP SWAP3 SWAP6 JUMP JUMPDEST PUSH1 0x0 PUSH1 0x20 DUP3 DUP5 SUB SLT ISZERO PUSH2 0x21F4 JUMPI PUSH2 0x21F3 PUSH2 0x2842 JUMP JUMPDEST JUMPDEST PUSH1 0x0 PUSH2 0x2202 DUP5 DUP3 DUP6 ADD PUSH2 0x1DE2 JUMP JUMPDEST SWAP2 POP POP SWAP3 SWAP2 POP POP JUMP JUMPDEST PUSH1 0x0 PUSH2 0x2217 DUP4 DUP4 PUSH2 0x22A3 JUMP JUMPDEST SWAP1 POP SWAP3 SWAP2 POP POP JUMP JUMPDEST PUSH2 0x2228 DUP2 PUSH2 0x26C0 JUMP JUMPDEST DUP3 MSTORE POP POP JUMP JUMPDEST PUSH1 0x0 PUSH2 0x2239 DUP3 PUSH2 0x266A JUMP JUMPDEST PUSH2 0x2243 DUP2 DUP6 PUSH2 0x268D JUMP JUMPDEST SWAP4 POP DUP4 PUSH1 0x20 DUP3 MUL DUP6 ADD PUSH2 0x2255 DUP6 PUSH2 0x265A JUMP JUMPDEST DUP1 PUSH1 0x0 JUMPDEST DUP6 DUP2 LT ISZERO PUSH2 0x2291 JUMPI DUP5 DUP5 SUB DUP10 MSTORE DUP2 MLOAD PUSH2 0x2272 DUP6 DUP3 PUSH2 0x220B JUMP JUMPDEST SWAP5 POP PUSH2 0x227D DUP4 PUSH2 0x2680 JUMP JUMPDEST SWAP3 POP PUSH1 0x20 DUP11 ADD SWAP10 POP POP PUSH1 0x1 DUP2 ADD SWAP1 POP PUSH2 0x2259 JUMP JUMPDEST POP DUP3 SWAP8 POP DUP8 SWAP6 POP POP POP POP POP POP SWAP3 SWAP2 POP POP JUMP JUMPDEST PUSH1 0x0 PUSH2 0x22AE DUP3 PUSH2 0x2675 JUMP JUMPDEST PUSH2 0x22B8 DUP2 DUP6 PUSH2 0x269E JUMP JUMPDEST SWAP4 POP PUSH2 0x22C8 DUP2 DUP6 PUSH1 0x20 DUP7 ADD PUSH2 0x270B JUMP JUMPDEST PUSH2 0x22D1 DUP2 PUSH2 0x2847 JUMP JUMPDEST DUP5 ADD SWAP2 POP POP SWAP3 SWAP2 POP POP JUMP JUMPDEST PUSH1 0x0 PUSH2 0x22E7 DUP3 PUSH2 0x2675 JUMP JUMPDEST PUSH2 0x22F1 DUP2 DUP6 PUSH2 0x26AF JUMP JUMPDEST SWAP4 POP PUSH2 0x2301 DUP2 DUP6 PUSH1 0x20 DUP7 ADD PUSH2 0x270B JUMP JUMPDEST PUSH2 0x230A DUP2 PUSH2 0x2847 JUMP JUMPDEST DUP5 ADD SWAP2 POP POP SWAP3 SWAP2 POP POP JUMP JUMPDEST PUSH1 0x0 PUSH1 0xC0 DUP4 ADD PUSH1 0x0 DUP4 ADD MLOAD DUP5 DUP3 SUB PUSH1 0x0 DUP7 ADD MSTORE PUSH2 0x2332 DUP3 DUP3 PUSH2 0x22A3 JUMP JUMPDEST SWAP2 POP POP PUSH1 0x20 DUP4 ADD MLOAD DUP5 DUP3 SUB PUSH1 0x20 DUP7 ADD MSTORE PUSH2 0x234C DUP3 DUP3 PUSH2 0x22A3 JUMP JUMPDEST SWAP2 POP POP PUSH1 0x40 DUP4 ADD MLOAD DUP5 DUP3 SUB PUSH1 0x40 DUP7 ADD MSTORE PUSH2 0x2366 DUP3 DUP3 PUSH2 0x22A3 JUMP JUMPDEST SWAP2 POP POP PUSH1 0x60 DUP4 ADD MLOAD DUP5 DUP3 SUB PUSH1 0x60 DUP7 ADD MSTORE PUSH2 0x2380 DUP3 DUP3 PUSH2 0x22A3 JUMP JUMPDEST SWAP2 POP POP PUSH1 0x80 DUP4 ADD MLOAD DUP5 DUP3 SUB PUSH1 0x80 DUP7 ADD MSTORE PUSH2 0x239A DUP3 DUP3 PUSH2 0x22A3 JUMP JUMPDEST SWAP2 POP POP PUSH1 0xA0 DUP4 ADD MLOAD DUP5 DUP3 SUB PUSH1 0xA0 DUP7 ADD MSTORE PUSH2 0x23B4 DUP3 DUP3 PUSH2 0x22A3 JUMP JUMPDEST SWAP2 POP POP DUP1 SWAP2 POP POP SWAP3 SWAP2 POP POP JUMP JUMPDEST PUSH1 0x0 PUSH2 0x100 DUP4 ADD PUSH1 0x0 DUP4 ADD MLOAD DUP5 DUP3 SUB PUSH1 0x0 DUP7 ADD MSTORE PUSH2 0x23DF DUP3 DUP3 PUSH2 0x22A3 JUMP JUMPDEST SWAP2 POP POP PUSH1 0x20 DUP4 ADD MLOAD DUP5 DUP3 SUB PUSH1 0x20 DUP7 ADD MSTORE PUSH2 0x23F9 DUP3 DUP3 PUSH2 0x22A3 JUMP JUMPDEST SWAP2 POP POP PUSH1 0x40 DUP4 ADD MLOAD PUSH2 0x240E PUSH1 0x40 DUP7 ADD DUP3 PUSH2 0x221F JUMP JUMPDEST POP PUSH1 0x60 DUP4 ADD MLOAD DUP5 DUP3 SUB PUSH1 0x60 DUP7 ADD MSTORE PUSH2 0x2426 DUP3 DUP3 PUSH2 0x22A3 JUMP JUMPDEST SWAP2 POP POP PUSH1 0x80 DUP4 ADD MLOAD DUP5 DUP3 SUB PUSH1 0x80 DUP7 ADD MSTORE PUSH2 0x2440 DUP3 DUP3 PUSH2 0x22A3 JUMP JUMPDEST SWAP2 POP POP PUSH1 0xA0 DUP4 ADD MLOAD DUP5 DUP3 SUB PUSH1 0xA0 DUP7 ADD MSTORE PUSH2 0x245A DUP3 DUP3 PUSH2 0x22A3 JUMP JUMPDEST SWAP2 POP POP PUSH1 0xC0 DUP4 ADD MLOAD DUP5 DUP3 SUB PUSH1 0xC0 DUP7 ADD MSTORE PUSH2 0x2474 DUP3 DUP3 PUSH2 0x22A3 JUMP JUMPDEST SWAP2 POP POP PUSH1 0xE0 DUP4 ADD MLOAD PUSH2 0x2489 PUSH1 0xE0 DUP7 ADD DUP3 PUSH2 0x24F2 JUMP JUMPDEST POP DUP1 SWAP2 POP POP SWAP3 SWAP2 POP POP JUMP JUMPDEST PUSH1 0x0 PUSH1 0x60 DUP4 ADD PUSH1 0x0 DUP4 ADD MLOAD DUP5 DUP3 SUB PUSH1 0x0 DUP7 ADD MSTORE PUSH2 0x24B1 DUP3 DUP3 PUSH2 0x222E JUMP JUMPDEST SWAP2 POP POP PUSH1 0x20 DUP4 ADD MLOAD DUP5 DUP3 SUB PUSH1 0x20 DUP7 ADD MSTORE PUSH2 0x24CB DUP3 DUP3 PUSH2 0x222E JUMP JUMPDEST SWAP2 POP POP PUSH1 0x40 DUP4 ADD MLOAD DUP5 DUP3 SUB PUSH1 0x40 DUP7 ADD MSTORE PUSH2 0x24E5 DUP3 DUP3 PUSH2 0x222E JUMP JUMPDEST SWAP2 POP POP DUP1 SWAP2 POP POP SWAP3 SWAP2 POP POP JUMP JUMPDEST PUSH2 0x24FB DUP2 PUSH2 0x26F2 JUMP JUMPDEST DUP3 MSTORE POP POP JUMP JUMPDEST PUSH2 0x250A DUP2 PUSH2 0x26F2 JUMP JUMPDEST DUP3 MSTORE POP POP JUMP JUMPDEST PUSH1 0x0 PUSH1 0x80 DUP3 ADD SWAP1 POP DUP2 DUP2 SUB PUSH1 0x0 DUP4 ADD MSTORE PUSH2 0x252A DUP2 DUP8 PUSH2 0x22DC JUMP JUMPDEST SWAP1 POP DUP2 DUP2 SUB PUSH1 0x20 DUP4 ADD MSTORE PUSH2 0x253E DUP2 DUP7 PUSH2 0x22DC JUMP JUMPDEST SWAP1 POP DUP2 DUP2 SUB PUSH1 0x40 DUP4 ADD MSTORE PUSH2 0x2552 DUP2 DUP6 PUSH2 0x22DC JUMP JUMPDEST SWAP1 POP DUP2 DUP2 SUB PUSH1 0x60 DUP4 ADD MSTORE PUSH2 0x2566 DUP2 DUP5 PUSH2 0x22DC JUMP JUMPDEST SWAP1 POP SWAP6 SWAP5 POP POP POP POP POP JUMP JUMPDEST PUSH1 0x0 PUSH1 0x60 DUP3 ADD SWAP1 POP DUP2 DUP2 SUB PUSH1 0x0 DUP4 ADD MSTORE PUSH2 0x258B DUP2 DUP7 PUSH2 0x23C1 JUMP JUMPDEST SWAP1 POP DUP2 DUP2 SUB PUSH1 0x20 DUP4 ADD MSTORE PUSH2 0x259F DUP2 DUP6 PUSH2 0x2315 JUMP JUMPDEST SWAP1 POP DUP2 DUP2 SUB PUSH1 0x40 DUP4 ADD MSTORE PUSH2 0x25B3 DUP2 DUP5 PUSH2 0x2494 JUMP JUMPDEST SWAP1 POP SWAP5 SWAP4 POP POP POP POP JUMP JUMPDEST PUSH1 0x0 PUSH1 0x20 DUP3 ADD SWAP1 POP PUSH2 0x25D2 PUSH1 0x0 DUP4 ADD DUP5 PUSH2 0x2501 JUMP JUMPDEST SWAP3 SWAP2 POP POP JUMP JUMPDEST PUSH1 0x0 PUSH2 0x25E2 PUSH2 0x25F3 JUMP JUMPDEST SWAP1 POP PUSH2 0x25EE DUP3 DUP3 PUSH2 0x2770 JUMP JUMPDEST SWAP2 SWAP1 POP JUMP JUMPDEST PUSH1 0x0 PUSH1 0x40 MLOAD SWAP1 POP SWAP1 JUMP JUMPDEST PUSH1 0x0 PUSH8 0xFFFFFFFFFFFFFFFF DUP3 GT ISZERO PUSH2 0x2618 JUMPI PUSH2 0x2617 PUSH2 0x27FF JUMP JUMPDEST JUMPDEST PUSH1 0x20 DUP3 MUL SWAP1 POP PUSH1 0x20 DUP2 ADD SWAP1 POP SWAP2 SWAP1 POP JUMP JUMPDEST PUSH1 0x0 PUSH8 0xFFFFFFFFFFFFFFFF DUP3 GT ISZERO PUSH2 0x2644 JUMPI PUSH2 0x2643 PUSH2 0x27FF JUMP JUMPDEST JUMPDEST PUSH2 0x264D DUP3 PUSH2 0x2847 JUMP JUMPDEST SWAP1 POP PUSH1 0x20 DUP2 ADD SWAP1 POP SWAP2 SWAP1 POP JUMP JUMPDEST PUSH1 0x0 DUP2 SWAP1 POP PUSH1 0x20 DUP3 ADD SWAP1 POP SWAP2 SWAP1 POP JUMP JUMPDEST PUSH1 0x0 DUP2 MLOAD SWAP1 POP SWAP2 SWAP1 POP JUMP JUMPDEST PUSH1 0x0 DUP2 MLOAD SWAP1 POP SWAP2 SWAP1 POP JUMP JUMPDEST PUSH1 0x0 PUSH1 0x20 DUP3 ADD SWAP1 POP SWAP2 SWAP1 POP JUMP JUMPDEST PUSH1 0x0 DUP3 DUP3 MSTORE PUSH1 0x20 DUP3 ADD SWAP1 POP SWAP3 SWAP2 POP POP JUMP JUMPDEST PUSH1 0x0 DUP3 DUP3 MSTORE PUSH1 0x20 DUP3 ADD SWAP1 POP SWAP3 SWAP2 POP POP JUMP JUMPDEST PUSH1 0x0 DUP3 DUP3 MSTORE PUSH1 0x20 DUP3 ADD SWAP1 POP SWAP3 SWAP2 POP POP JUMP JUMPDEST PUSH1 0x0 PUSH2 0x26CB DUP3 PUSH2 0x26D2 JUMP JUMPDEST SWAP1 POP SWAP2 SWAP1 POP JUMP JUMPDEST PUSH1 0x0 PUSH20 0xFFFFFFFFFFFFFFFFFFFFFFFFFFFFFFFFFFFFFFFF DUP3 AND SWAP1 POP SWAP2 SWAP1 POP JUMP JUMPDEST PUSH1 0x0 DUP2 SWAP1 POP SWAP2 SWAP1 POP JUMP JUMPDEST DUP3 DUP2 DUP4 CALLDATACOPY PUSH1 0x0 DUP4 DUP4 ADD MSTORE POP POP POP JUMP JUMPDEST PUSH1 0x0 JUMPDEST DUP4 DUP2 LT ISZERO PUSH2 0x2729 JUMPI DUP1 DUP3 ADD MLOAD DUP2 DUP5 ADD MSTORE PUSH1 0x20 DUP2 ADD SWAP1 POP PUSH2 0x270E JUMP JUMPDEST DUP4 DUP2 GT ISZERO PUSH2 0x2738 JUMPI PUSH1 0x0 DUP5 DUP5 ADD MSTORE JUMPDEST POP POP POP POP JUMP JUMPDEST PUSH1 0x0 PUSH1 0x2 DUP3 DIV SWAP1 POP PUSH1 0x1 DUP3 AND DUP1 PUSH2 0x2756 JUMPI PUSH1 0x7F DUP3 AND SWAP2 POP JUMPDEST PUSH1 0x20 DUP3 LT DUP2 EQ ISZERO PUSH2 0x276A JUMPI PUSH2 0x2769 PUSH2 0x27A1 JUMP JUMPDEST JUMPDEST POP SWAP2 SWAP1 POP JUMP JUMPDEST PUSH2 0x2779 DUP3 PUSH2 0x2847 JUMP JUMPDEST DUP2 ADD DUP2 DUP2 LT PUSH8 0xFFFFFFFFFFFFFFFF DUP3 GT OR ISZERO PUSH2 0x2798 JUMPI PUSH2 0x2797 PUSH2 0x27FF JUMP JUMPDEST JUMPDEST DUP1 PUSH1 0x40 MSTORE POP POP POP JUMP JUMPDEST PUSH32 0x4E487B7100000000000000000000000000000000000000000000000000000000 PUSH1 0x0 MSTORE PUSH1 0x22 PUSH1 0x4 MSTORE PUSH1 0x24 PUSH1 0x0 REVERT JUMPDEST PUSH32 0x4E487B7100000000000000000000000000000000000000000000000000000000 PUSH1 0x0 MSTORE PUSH1 0x32 PUSH1 0x4 MSTORE PUSH1 0x24 PUSH1 0x0 REVERT JUMPDEST PUSH32 0x4E487B7100000000000000000000000000000000000000000000000000000000 PUSH1 0x0 MSTORE PUSH1 0x41 PUSH1 0x4 MSTORE PUSH1 0x24 PUSH1 0x0 REVERT JUMPDEST PUSH1 0x0 DUP1 REVERT JUMPDEST PUSH1 0x0 DUP1 REVERT JUMPDEST PUSH1 0x0 DUP1 REVERT JUMPDEST PUSH1 0x0 DUP1 REVERT JUMPDEST PUSH1 0x0 DUP1 REVERT JUMPDEST PUSH1 0x0 PUSH1 0x1F NOT PUSH1 0x1F DUP4 ADD AND SWAP1 POP SWAP2 SWAP1 POP JUMP JUMPDEST PUSH2 0x2861 DUP2 PUSH2 0x26C0 JUMP JUMPDEST DUP2 EQ PUSH2 0x286C JUMPI PUSH1 0x0 DUP1 REVERT JUMPDEST POP JUMP JUMPDEST PUSH2 0x2878 DUP2 PUSH2 0x26F2 JUMP JUMPDEST DUP2 EQ PUSH2 0x2883 JUMPI PUSH1 0x0 DUP1 REVERT JUMPDEST POP JUMP INVALID LOG2 PUSH5 0x6970667358 0x22 SLT KECCAK256 0xB7 PUSH4 0xD07F6389 SWAP8 RETURN CALLCODE 0xA6 LOG1 0xE9 CALLDATACOPY 0xAC OR RETURN 0xD5 LOG2 0xF6 MSTORE8 PUSH26 0x575B0BACFFFAC21D4657F64736F6C6343000807003300000000 "
				},
				"gasEstimates": {
					"creation": {
						"codeDepositCost": "2085600",
						"executionCost": "2214",
						"totalCost": "2087814"
					},
					"external": {
						"createContract(string,string,string,string,string)": "infinite",
						"createInformation(string,string,string,string,string,string)": "infinite",
						"createSkill(string[],string[],string[])": "infinite",
						"createUnivercity(string,string,string,string)": "infinite",
						"delAllEducation()": "infinite",
						"delInformaion()": "infinite",
						"delProfile()": "infinite",
						"getEducation(uint256)": "infinite",
						"getEducationCount()": "2563",
						"profile(address)": "infinite"
					}
				},
				"methodIdentifiers": {
					"createContract(string,string,string,string,string)": "72828388",
					"createInformation(string,string,string,string,string,string)": "958791ae",
					"createSkill(string[],string[],string[])": "3d984d0e",
					"createUnivercity(string,string,string,string)": "9d983a01",
					"delAllEducation()": "ed2217ef",
					"delInformaion()": "95ea3757",
					"delProfile()": "fabce08f",
					"getEducation(uint256)": "f96e32f8",
					"getEducationCount()": "6212fa02",
					"profile(address)": "9dd9d0fd"
				}
			},
			"storageLayout": {
				"storage": [
					{
						"astId": 20,
						"contract": "contracts/Profile.sol:Profile",
						"label": "profile",
						"offset": 0,
						"slot": "0",
						"type": "t_mapping(t_address,t_struct(Bio)15_storage)"
					}
				],
				"types": {
					"t_address": {
						"encoding": "inplace",
						"label": "address",
						"numberOfBytes": "20"
					},
					"t_array(t_string_storage)dyn_storage": {
						"base": "t_string_storage",
						"encoding": "dynamic_array",
						"label": "string[]",
						"numberOfBytes": "32"
					},
					"t_array(t_struct(Education)69_storage)dyn_storage": {
						"base": "t_struct(Education)69_storage",
						"encoding": "dynamic_array",
						"label": "struct Profile.Education[]",
						"numberOfBytes": "32"
					},
					"t_mapping(t_address,t_struct(Bio)15_storage)": {
						"encoding": "mapping",
						"key": "t_address",
						"label": "mapping(address => struct Profile.Bio)",
						"numberOfBytes": "32",
						"value": "t_struct(Bio)15_storage"
					},
					"t_string_storage": {
						"encoding": "bytes",
						"label": "string",
						"numberOfBytes": "32"
					},
					"t_struct(Bio)15_storage": {
						"encoding": "inplace",
						"label": "struct Profile.Bio",
						"members": [
							{
								"astId": 4,
								"contract": "contracts/Profile.sol:Profile",
								"label": "information",
								"offset": 0,
								"slot": "0",
								"type": "t_struct(Information)37_storage"
							},
							{
								"astId": 7,
								"contract": "contracts/Profile.sol:Profile",
								"label": "privateContract",
								"offset": 0,
								"slot": "8",
								"type": "t_struct(Contract)50_storage"
							},
							{
								"astId": 10,
								"contract": "contracts/Profile.sol:Profile",
								"label": "skill",
								"offset": 0,
								"slot": "14",
								"type": "t_struct(Skill)60_storage"
							},
							{
								"astId": 14,
								"contract": "contracts/Profile.sol:Profile",
								"label": "education",
								"offset": 0,
								"slot": "17",
								"type": "t_array(t_struct(Education)69_storage)dyn_storage"
							}
						],
						"numberOfBytes": "576"
					},
					"t_struct(Contract)50_storage": {
						"encoding": "inplace",
						"label": "struct Profile.Contract",
						"members": [
							{
								"astId": 39,
								"contract": "contracts/Profile.sol:Profile",
								"label": "aboutMe",
								"offset": 0,
								"slot": "0",
								"type": "t_string_storage"
							},
							{
								"astId": 41,
								"contract": "contracts/Profile.sol:Profile",
								"label": "email",
								"offset": 0,
								"slot": "1",
								"type": "t_string_storage"
							},
							{
								"astId": 43,
								"contract": "contracts/Profile.sol:Profile",
								"label": "phone",
								"offset": 0,
								"slot": "2",
								"type": "t_string_storage"
							},
							{
								"astId": 45,
								"contract": "contracts/Profile.sol:Profile",
								"label": "github",
								"offset": 0,
								"slot": "3",
								"type": "t_string_storage"
							},
							{
								"astId": 47,
								"contract": "contracts/Profile.sol:Profile",
								"label": "gitlab",
								"offset": 0,
								"slot": "4",
								"type": "t_string_storage"
							},
							{
								"astId": 49,
								"contract": "contracts/Profile.sol:Profile",
								"label": "linkin",
								"offset": 0,
								"slot": "5",
								"type": "t_string_storage"
							}
						],
						"numberOfBytes": "192"
					},
					"t_struct(Education)69_storage": {
						"encoding": "inplace",
						"label": "struct Profile.Education",
						"members": [
							{
								"astId": 62,
								"contract": "contracts/Profile.sol:Profile",
								"label": "startDate",
								"offset": 0,
								"slot": "0",
								"type": "t_string_storage"
							},
							{
								"astId": 64,
								"contract": "contracts/Profile.sol:Profile",
								"label": "endDate",
								"offset": 0,
								"slot": "1",
								"type": "t_string_storage"
							},
							{
								"astId": 66,
								"contract": "contracts/Profile.sol:Profile",
								"label": "univercity",
								"offset": 0,
								"slot": "2",
								"type": "t_string_storage"
							},
							{
								"astId": 68,
								"contract": "contracts/Profile.sol:Profile",
								"label": "major",
								"offset": 0,
								"slot": "3",
								"type": "t_string_storage"
							}
						],
						"numberOfBytes": "128"
					},
					"t_struct(Information)37_storage": {
						"encoding": "inplace",
						"label": "struct Profile.Information",
						"members": [
							{
								"astId": 22,
								"contract": "contracts/Profile.sol:Profile",
								"label": "aboutMe",
								"offset": 0,
								"slot": "0",
								"type": "t_string_storage"
							},
							{
								"astId": 24,
								"contract": "contracts/Profile.sol:Profile",
								"label": "position",
								"offset": 0,
								"slot": "1",
								"type": "t_string_storage"
							},
							{
								"astId": 26,
								"contract": "contracts/Profile.sol:Profile",
								"label": "userAddress",
								"offset": 0,
								"slot": "2",
								"type": "t_address"
							},
							{
								"astId": 28,
								"contract": "contracts/Profile.sol:Profile",
								"label": "firstName",
								"offset": 0,
								"slot": "3",
								"type": "t_string_storage"
							},
							{
								"astId": 30,
								"contract": "contracts/Profile.sol:Profile",
								"label": "middleName",
								"offset": 0,
								"slot": "4",
								"type": "t_string_storage"
							},
							{
								"astId": 32,
								"contract": "contracts/Profile.sol:Profile",
								"label": "lastName",
								"offset": 0,
								"slot": "5",
								"type": "t_string_storage"
							},
							{
								"astId": 34,
								"contract": "contracts/Profile.sol:Profile",
								"label": "profileImage",
								"offset": 0,
								"slot": "6",
								"type": "t_string_storage"
							},
							{
								"astId": 36,
								"contract": "contracts/Profile.sol:Profile",
								"label": "createDate",
								"offset": 0,
								"slot": "7",
								"type": "t_uint256"
							}
						],
						"numberOfBytes": "256"
					},
					"t_struct(Skill)60_storage": {
						"encoding": "inplace",
						"label": "struct Profile.Skill",
						"members": [
							{
								"astId": 53,
								"contract": "contracts/Profile.sol:Profile",
								"label": "programmingLanguages",
								"offset": 0,
								"slot": "0",
								"type": "t_array(t_string_storage)dyn_storage"
							},
							{
								"astId": 56,
								"contract": "contracts/Profile.sol:Profile",
								"label": "framework",
								"offset": 0,
								"slot": "1",
								"type": "t_array(t_string_storage)dyn_storage"
							},
							{
								"astId": 59,
								"contract": "contracts/Profile.sol:Profile",
								"label": "databaseAndOther",
								"offset": 0,
								"slot": "2",
								"type": "t_array(t_string_storage)dyn_storage"
							}
						],
						"numberOfBytes": "96"
					},
					"t_uint256": {
						"encoding": "inplace",
						"label": "uint256",
						"numberOfBytes": "32"
					}
				}
			},
			"userdoc": {
				"kind": "user",
				"methods": {},
				"version": 1
			}
		}
	}
}