{
	"contracts/Profile.sol": {
		"Profile": {
			"abi": [
				{
					"inputs": [
						{
							"internalType": "string[]",
							"name": "award",
							"type": "string[]"
						},
						{
							"internalType": "string[]",
							"name": "certificate",
							"type": "string[]"
						}
					],
					"name": "createAward",
					"outputs": [],
					"stateMutability": "nonpayable",
					"type": "function"
				},
				{
					"inputs": [
						{
							"internalType": "string",
							"name": "email",
							"type": "string"
						},
						{
							"internalType": "string",
							"name": "phone",
							"type": "string"
						},
						{
							"internalType": "string",
							"name": "github",
							"type": "string"
						},
						{
							"internalType": "string",
							"name": "gitlab",
							"type": "string"
						},
						{
							"internalType": "string",
							"name": "linkin",
							"type": "string"
						}
					],
					"name": "createContract",
					"outputs": [],
					"stateMutability": "nonpayable",
					"type": "function"
				},
				{
					"inputs": [
						{
							"internalType": "string",
							"name": "projectName",
							"type": "string"
						},
						{
							"internalType": "string",
							"name": "Detail",
							"type": "string"
						}
					],
					"name": "createFreelanceExperience",
					"outputs": [],
					"stateMutability": "nonpayable",
					"type": "function"
				},
				{
					"inputs": [
						{
							"internalType": "string",
							"name": "firstName",
							"type": "string"
						},
						{
							"internalType": "string",
							"name": "middleName",
							"type": "string"
						},
						{
							"internalType": "string",
							"name": "lastName",
							"type": "string"
						},
						{
							"internalType": "string",
							"name": "profileImage",
							"type": "string"
						},
						{
							"internalType": "string",
							"name": "aboutMe",
							"type": "string"
						},
						{
							"internalType": "string",
							"name": "position",
							"type": "string"
						}
					],
					"name": "createInformation",
					"outputs": [],
					"stateMutability": "nonpayable",
					"type": "function"
				},
				{
					"inputs": [
						{
							"internalType": "string[]",
							"name": "programmingLanguages",
							"type": "string[]"
						},
						{
							"internalType": "string[]",
							"name": "framework",
							"type": "string[]"
						},
						{
							"internalType": "string[]",
							"name": "databaseAndOther",
							"type": "string[]"
						}
					],
					"name": "createSkill",
					"outputs": [],
					"stateMutability": "nonpayable",
					"type": "function"
				},
				{
					"inputs": [
						{
							"internalType": "string",
							"name": "startDate",
							"type": "string"
						},
						{
							"internalType": "string",
							"name": "endDate",
							"type": "string"
						},
						{
							"internalType": "string",
							"name": "univercity",
							"type": "string"
						},
						{
							"internalType": "string",
							"name": "major",
							"type": "string"
						},
						{
							"internalType": "string",
							"name": "finalProject",
							"type": "string"
						}
					],
					"name": "createUnivercity",
					"outputs": [],
					"stateMutability": "nonpayable",
					"type": "function"
				},
				{
					"inputs": [],
					"name": "delAllEducation",
					"outputs": [],
					"stateMutability": "nonpayable",
					"type": "function"
				},
				{
					"inputs": [],
					"name": "delCertificateAndAward",
					"outputs": [],
					"stateMutability": "nonpayable",
					"type": "function"
				},
				{
					"inputs": [],
					"name": "delInformaion",
					"outputs": [],
					"stateMutability": "nonpayable",
					"type": "function"
				},
				{
					"inputs": [],
					"name": "delProfile",
					"outputs": [],
					"stateMutability": "nonpayable",
					"type": "function"
				},
				{
					"inputs": [
						{
							"internalType": "uint256",
							"name": "index",
							"type": "uint256"
						}
					],
					"name": "getEducation",
					"outputs": [
						{
							"internalType": "string",
							"name": "",
							"type": "string"
						},
						{
							"internalType": "string",
							"name": "",
							"type": "string"
						},
						{
							"internalType": "string",
							"name": "",
							"type": "string"
						},
						{
							"internalType": "string",
							"name": "",
							"type": "string"
						},
						{
							"internalType": "string",
							"name": "",
							"type": "string"
						}
					],
					"stateMutability": "view",
					"type": "function"
				},
				{
					"inputs": [],
					"name": "getEducationCount",
					"outputs": [
						{
							"internalType": "uint256",
							"name": "",
							"type": "uint256"
						}
					],
					"stateMutability": "view",
					"type": "function"
				},
				{
					"inputs": [
						{
							"internalType": "address",
							"name": "",
							"type": "address"
						}
					],
					"name": "profile",
					"outputs": [
						{
							"components": [
								{
									"internalType": "string",
									"name": "aboutMe",
									"type": "string"
								},
								{
									"internalType": "string",
									"name": "position",
									"type": "string"
								},
								{
									"internalType": "address",
									"name": "userAddress",
									"type": "address"
								},
								{
									"internalType": "string",
									"name": "firstName",
									"type": "string"
								},
								{
									"internalType": "string",
									"name": "middleName",
									"type": "string"
								},
								{
									"internalType": "string",
									"name": "lastName",
									"type": "string"
								},
								{
									"internalType": "string",
									"name": "profileImage",
									"type": "string"
								},
								{
									"internalType": "uint256",
									"name": "createDate",
									"type": "uint256"
								}
							],
							"internalType": "struct Profile.Information",
							"name": "information",
							"type": "tuple"
						},
						{
							"components": [
								{
									"internalType": "string",
									"name": "aboutMe",
									"type": "string"
								},
								{
									"internalType": "string",
									"name": "email",
									"type": "string"
								},
								{
									"internalType": "string",
									"name": "phone",
									"type": "string"
								},
								{
									"internalType": "string",
									"name": "github",
									"type": "string"
								},
								{
									"internalType": "string",
									"name": "gitlab",
									"type": "string"
								},
								{
									"internalType": "string",
									"name": "linkin",
									"type": "string"
								}
							],
							"internalType": "struct Profile.Contract",
							"name": "privateContract",
							"type": "tuple"
						},
						{
							"components": [
								{
									"internalType": "string[]",
									"name": "programmingLanguages",
									"type": "string[]"
								},
								{
									"internalType": "string[]",
									"name": "framework",
									"type": "string[]"
								},
								{
									"internalType": "string[]",
									"name": "databaseAndOther",
									"type": "string[]"
								}
							],
							"internalType": "struct Profile.Skill",
							"name": "skill",
							"type": "tuple"
						},
						{
							"components": [
								{
									"internalType": "string[]",
									"name": "certificate",
									"type": "string[]"
								},
								{
									"internalType": "string[]",
									"name": "award",
									"type": "string[]"
								}
							],
							"internalType": "struct Profile.CertificateAndAward",
							"name": "certificateAndAward",
							"type": "tuple"
						},
						{
							"components": [
								{
									"internalType": "string",
									"name": "companyName",
									"type": "string"
								},
								{
									"internalType": "string",
									"name": "position",
									"type": "string"
								},
								{
									"internalType": "string",
									"name": "startDate",
									"type": "string"
								},
								{
									"internalType": "string",
									"name": "endDate",
									"type": "string"
								},
								{
									"internalType": "string[]",
									"name": "project",
									"type": "string[]"
								}
							],
							"internalType": "struct Profile.CompanyExperience",
							"name": "companyExperience",
							"type": "tuple"
						},
						{
							"components": [
								{
									"internalType": "string",
									"name": "projectName",
									"type": "string"
								},
								{
									"internalType": "string",
									"name": "Detail",
									"type": "string"
								}
							],
							"internalType": "struct Profile.FreelanceExperience",
							"name": "freelanceExperience",
							"type": "tuple"
						}
					],
					"stateMutability": "view",
					"type": "function"
				}
			],
			"devdoc": {
				"kind": "dev",
				"methods": {},
				"version": 1
			},
			"evm": {
				"assembly": "    /* \"contracts/Profile.sol\":60:5307  contract Profile {\r... */\n  mstore(0x40, 0x80)\n  callvalue\n  dup1\n  iszero\n  tag_1\n  jumpi\n  0x00\n  dup1\n  revert\ntag_1:\n  pop\n  dataSize(sub_0)\n  dup1\n  dataOffset(sub_0)\n  0x00\n  codecopy\n  0x00\n  return\nstop\n\nsub_0: assembly {\n        /* \"contracts/Profile.sol\":60:5307  contract Profile {\r... */\n      mstore(0x40, 0x80)\n      callvalue\n      dup1\n      iszero\n      tag_1\n      jumpi\n      0x00\n      dup1\n      revert\n    tag_1:\n      pop\n      jumpi(tag_2, lt(calldatasize, 0x04))\n      shr(0xe0, calldataload(0x00))\n      dup1\n      0x72828388\n      gt\n      tag_16\n      jumpi\n      dup1\n      0x9dd9d0fd\n      gt\n      tag_17\n      jumpi\n      dup1\n      0x9dd9d0fd\n      eq\n      tag_12\n      jumpi\n      dup1\n      0xed2217ef\n      eq\n      tag_13\n      jumpi\n      dup1\n      0xf96e32f8\n      eq\n      tag_14\n      jumpi\n      dup1\n      0xfabce08f\n      eq\n      tag_15\n      jumpi\n      jump(tag_2)\n    tag_17:\n      dup1\n      0x72828388\n      eq\n      tag_9\n      jumpi\n      dup1\n      0x958791ae\n      eq\n      tag_10\n      jumpi\n      dup1\n      0x95ea3757\n      eq\n      tag_11\n      jumpi\n      jump(tag_2)\n    tag_16:\n      dup1\n      0x322a9849\n      eq\n      tag_3\n      jumpi\n      dup1\n      0x3d984d0e\n      eq\n      tag_4\n      jumpi\n      dup1\n      0x4ed74067\n      eq\n      tag_5\n      jumpi\n      dup1\n      0x6212fa02\n      eq\n      tag_6\n      jumpi\n      dup1\n      0x66244dfb\n      eq\n      tag_7\n      jumpi\n      dup1\n      0x6c2cc774\n      eq\n      tag_8\n      jumpi\n    tag_2:\n      0x00\n      dup1\n      revert\n        /* \"contracts/Profile.sol\":4648:4889  function createFreelanceExperience(string memory projectName, string memory Detail) public {\r... */\n    tag_3:\n      tag_18\n      0x04\n      dup1\n      calldatasize\n      sub\n      dup2\n      add\n      swap1\n      tag_19\n      swap2\n      swap1\n      tag_20\n      jump\t// in\n    tag_19:\n      tag_21\n      jump\t// in\n    tag_18:\n      stop\n        /* \"contracts/Profile.sol\":2951:3339  function createSkill(string[] memory programmingLanguages, string[] memory framework, string[] memory databaseAndOther) public {\r... */\n    tag_4:\n      tag_22\n      0x04\n      dup1\n      calldatasize\n      sub\n      dup2\n      add\n      swap1\n      tag_23\n      swap2\n      swap1\n      tag_24\n      jump\t// in\n    tag_23:\n      tag_25\n      jump\t// in\n    tag_22:\n      stop\n        /* \"contracts/Profile.sol\":5194:5302  function delCertificateAndAward() external {\r... */\n    tag_5:\n      tag_26\n      tag_27\n      jump\t// in\n    tag_26:\n      stop\n        /* \"contracts/Profile.sol\":4286:4404  function getEducationCount() public view returns (uint) {\r... */\n    tag_6:\n      tag_28\n      tag_29\n      jump\t// in\n    tag_28:\n      mload(0x40)\n      tag_30\n      swap2\n      swap1\n      tag_31\n      jump\t// in\n    tag_30:\n      mload(0x40)\n      dup1\n      swap2\n      sub\n      swap1\n      return\n        /* \"contracts/Profile.sol\":3406:3876  function createUnivercity(string memory startDate, string memory endDate, string memory univercity, string memory major, string memory finalProject) public {\r... */\n    tag_7:\n      tag_32\n      0x04\n      dup1\n      calldatasize\n      sub\n      dup2\n      add\n      swap1\n      tag_33\n      swap2\n      swap1\n      tag_34\n      jump\t// in\n    tag_33:\n      tag_35\n      jump\t// in\n    tag_32:\n      stop\n        /* \"contracts/Profile.sol\":4412:4640  function createAward(string[] memory award, string[] memory certificate) public {\r... */\n    tag_8:\n      tag_36\n      0x04\n      dup1\n      calldatasize\n      sub\n      dup2\n      add\n      swap1\n      tag_37\n      swap2\n      swap1\n      tag_38\n      jump\t// in\n    tag_37:\n      tag_39\n      jump\t// in\n    tag_36:\n      stop\n        /* \"contracts/Profile.sol\":2360:2864  function createContract(string memory email, string memory phone, string memory github, string memory gitlab, string memory linkin) public {\r... */\n    tag_9:\n      tag_40\n      0x04\n      dup1\n      calldatasize\n      sub\n      dup2\n      add\n      swap1\n      tag_41\n      swap2\n      swap1\n      tag_34\n      jump\t// in\n    tag_41:\n      tag_42\n      jump\t// in\n    tag_40:\n      stop\n        /* \"contracts/Profile.sol\":1589:2305  function createInformation(string memory firstName, string memory middleName, string memory lastName,  string memory profileImage, string memory aboutMe, string memory position) public {\r... */\n    tag_10:\n      tag_43\n      0x04\n      dup1\n      calldatasize\n      sub\n      dup2\n      add\n      swap1\n      tag_44\n      swap2\n      swap1\n      tag_45\n      jump\t// in\n    tag_44:\n      tag_46\n      jump\t// in\n    tag_43:\n      stop\n        /* \"contracts/Profile.sol\":5010:5102  function delInformaion() external  {\r... */\n    tag_11:\n      tag_47\n      tag_48\n      jump\t// in\n    tag_47:\n      stop\n        /* \"contracts/Profile.sol\":380:420  mapping (address => Bio) public  profile */\n    tag_12:\n      tag_49\n      0x04\n      dup1\n      calldatasize\n      sub\n      dup2\n      add\n      swap1\n      tag_50\n      swap2\n      swap1\n      tag_51\n      jump\t// in\n    tag_50:\n      tag_52\n      jump\t// in\n    tag_49:\n      mload(0x40)\n      tag_53\n      swap7\n      swap6\n      swap5\n      swap4\n      swap3\n      swap2\n      swap1\n      tag_54\n      jump\t// in\n    tag_53:\n      mload(0x40)\n      dup1\n      swap2\n      sub\n      swap1\n      return\n        /* \"contracts/Profile.sol\":4910:5002  function delAllEducation() external  {\r... */\n    tag_13:\n      tag_55\n      tag_56\n      jump\t// in\n    tag_55:\n      stop\n        /* \"contracts/Profile.sol\":3885:4278  function getEducation(uint index) public view returns(string memory, string memory, string memory, string memory, string memory) {\r... */\n    tag_14:\n      tag_57\n      0x04\n      dup1\n      calldatasize\n      sub\n      dup2\n      add\n      swap1\n      tag_58\n      swap2\n      swap1\n      tag_59\n      jump\t// in\n    tag_58:\n      tag_60\n      jump\t// in\n    tag_57:\n      mload(0x40)\n      tag_61\n      swap6\n      swap5\n      swap4\n      swap3\n      swap2\n      swap1\n      tag_62\n      jump\t// in\n    tag_61:\n      mload(0x40)\n      dup1\n      swap2\n      sub\n      swap1\n      return\n        /* \"contracts/Profile.sol\":5110:5186  function delProfile() external {\r... */\n    tag_15:\n      tag_63\n      tag_64\n      jump\t// in\n    tag_63:\n      stop\n        /* \"contracts/Profile.sol\":4648:4889  function createFreelanceExperience(string memory projectName, string memory Detail) public {\r... */\n    tag_21:\n        /* \"contracts/Profile.sol\":4804:4815  projectName */\n      dup2\n        /* \"contracts/Profile.sol\":4750:4757  profile */\n      0x00\n        /* \"contracts/Profile.sol\":4750:4769  profile[msg.sender] */\n      dup1\n        /* \"contracts/Profile.sol\":4758:4768  msg.sender */\n      caller\n        /* \"contracts/Profile.sol\":4750:4769  profile[msg.sender] */\n      0xffffffffffffffffffffffffffffffffffffffff\n      and\n      0xffffffffffffffffffffffffffffffffffffffff\n      and\n      dup2\n      mstore\n      0x20\n      add\n      swap1\n      dup2\n      mstore\n      0x20\n      add\n      0x00\n      keccak256\n        /* \"contracts/Profile.sol\":4750:4789  profile[msg.sender].freelanceExperience */\n      0x19\n      add\n        /* \"contracts/Profile.sol\":4750:4801  profile[msg.sender].freelanceExperience.projectName */\n      0x00\n      add\n        /* \"contracts/Profile.sol\":4750:4815  profile[msg.sender].freelanceExperience.projectName = projectName */\n      swap1\n      dup1\n      mload\n      swap1\n      0x20\n      add\n      swap1\n      tag_66\n      swap3\n      swap2\n      swap1\n      tag_67\n      jump\t// in\n    tag_66:\n      pop\n        /* \"contracts/Profile.sol\":4875:4881  Detail */\n      dup1\n        /* \"contracts/Profile.sol\":4826:4833  profile */\n      0x00\n        /* \"contracts/Profile.sol\":4826:4845  profile[msg.sender] */\n      dup1\n        /* \"contracts/Profile.sol\":4834:4844  msg.sender */\n      caller\n        /* \"contracts/Profile.sol\":4826:4845  profile[msg.sender] */\n      0xffffffffffffffffffffffffffffffffffffffff\n      and\n      0xffffffffffffffffffffffffffffffffffffffff\n      and\n      dup2\n      mstore\n      0x20\n      add\n      swap1\n      dup2\n      mstore\n      0x20\n      add\n      0x00\n      keccak256\n        /* \"contracts/Profile.sol\":4826:4865  profile[msg.sender].freelanceExperience */\n      0x19\n      add\n        /* \"contracts/Profile.sol\":4826:4872  profile[msg.sender].freelanceExperience.Detail */\n      0x01\n      add\n        /* \"contracts/Profile.sol\":4826:4881  profile[msg.sender].freelanceExperience.Detail = Detail */\n      swap1\n      dup1\n      mload\n      swap1\n      0x20\n      add\n      swap1\n      tag_68\n      swap3\n      swap2\n      swap1\n      tag_67\n      jump\t// in\n    tag_68:\n      pop\n        /* \"contracts/Profile.sol\":4648:4889  function createFreelanceExperience(string memory projectName, string memory Detail) public {\r... */\n      pop\n      pop\n      jump\t// out\n        /* \"contracts/Profile.sol\":2951:3339  function createSkill(string[] memory programmingLanguages, string[] memory framework, string[] memory databaseAndOther) public {\r... */\n    tag_25:\n        /* \"contracts/Profile.sol\":3096:3103  profile */\n      0x00\n        /* \"contracts/Profile.sol\":3096:3115  profile[msg.sender] */\n      dup1\n        /* \"contracts/Profile.sol\":3104:3114  msg.sender */\n      caller\n        /* \"contracts/Profile.sol\":3096:3115  profile[msg.sender] */\n      0xffffffffffffffffffffffffffffffffffffffff\n      and\n      0xffffffffffffffffffffffffffffffffffffffff\n      and\n      dup2\n      mstore\n      0x20\n      add\n      swap1\n      dup2\n      mstore\n      0x20\n      add\n      0x00\n      keccak256\n        /* \"contracts/Profile.sol\":3096:3121  profile[msg.sender].skill */\n      0x0e\n      add\n      0x00\n        /* \"contracts/Profile.sol\":3089:3121  delete profile[msg.sender].skill */\n      dup1\n      dup3\n      add\n      0x00\n      tag_70\n      swap2\n      swap1\n      tag_71\n      jump\t// in\n    tag_70:\n      0x01\n      dup3\n      add\n      0x00\n      tag_72\n      swap2\n      swap1\n      tag_71\n      jump\t// in\n    tag_72:\n      0x02\n      dup3\n      add\n      0x00\n      tag_73\n      swap2\n      swap1\n      tag_71\n      jump\t// in\n    tag_73:\n      pop\n      pop\n        /* \"contracts/Profile.sol\":3181:3201  programmingLanguages */\n      dup3\n        /* \"contracts/Profile.sol\":3132:3139  profile */\n      0x00\n        /* \"contracts/Profile.sol\":3132:3151  profile[msg.sender] */\n      dup1\n        /* \"contracts/Profile.sol\":3140:3150  msg.sender */\n      caller\n        /* \"contracts/Profile.sol\":3132:3151  profile[msg.sender] */\n      0xffffffffffffffffffffffffffffffffffffffff\n      and\n      0xffffffffffffffffffffffffffffffffffffffff\n      and\n      dup2\n      mstore\n      0x20\n      add\n      swap1\n      dup2\n      mstore\n      0x20\n      add\n      0x00\n      keccak256\n        /* \"contracts/Profile.sol\":3132:3157  profile[msg.sender].skill */\n      0x0e\n      add\n        /* \"contracts/Profile.sol\":3132:3178  profile[msg.sender].skill.programmingLanguages */\n      0x00\n      add\n        /* \"contracts/Profile.sol\":3132:3201  profile[msg.sender].skill.programmingLanguages = programmingLanguages */\n      swap1\n      dup1\n      mload\n      swap1\n      0x20\n      add\n      swap1\n      tag_74\n      swap3\n      swap2\n      swap1\n      tag_75\n      jump\t// in\n    tag_74:\n      pop\n        /* \"contracts/Profile.sol\":3250:3259  framework */\n      dup2\n        /* \"contracts/Profile.sol\":3212:3219  profile */\n      0x00\n        /* \"contracts/Profile.sol\":3212:3231  profile[msg.sender] */\n      dup1\n        /* \"contracts/Profile.sol\":3220:3230  msg.sender */\n      caller\n        /* \"contracts/Profile.sol\":3212:3231  profile[msg.sender] */\n      0xffffffffffffffffffffffffffffffffffffffff\n      and\n      0xffffffffffffffffffffffffffffffffffffffff\n      and\n      dup2\n      mstore\n      0x20\n      add\n      swap1\n      dup2\n      mstore\n      0x20\n      add\n      0x00\n      keccak256\n        /* \"contracts/Profile.sol\":3212:3237  profile[msg.sender].skill */\n      0x0e\n      add\n        /* \"contracts/Profile.sol\":3212:3247  profile[msg.sender].skill.framework */\n      0x01\n      add\n        /* \"contracts/Profile.sol\":3212:3259  profile[msg.sender].skill.framework = framework */\n      swap1\n      dup1\n      mload\n      swap1\n      0x20\n      add\n      swap1\n      tag_76\n      swap3\n      swap2\n      swap1\n      tag_75\n      jump\t// in\n    tag_76:\n      pop\n        /* \"contracts/Profile.sol\":3315:3331  databaseAndOther */\n      dup1\n        /* \"contracts/Profile.sol\":3270:3277  profile */\n      0x00\n        /* \"contracts/Profile.sol\":3270:3289  profile[msg.sender] */\n      dup1\n        /* \"contracts/Profile.sol\":3278:3288  msg.sender */\n      caller\n        /* \"contracts/Profile.sol\":3270:3289  profile[msg.sender] */\n      0xffffffffffffffffffffffffffffffffffffffff\n      and\n      0xffffffffffffffffffffffffffffffffffffffff\n      and\n      dup2\n      mstore\n      0x20\n      add\n      swap1\n      dup2\n      mstore\n      0x20\n      add\n      0x00\n      keccak256\n        /* \"contracts/Profile.sol\":3270:3295  profile[msg.sender].skill */\n      0x0e\n      add\n        /* \"contracts/Profile.sol\":3270:3312  profile[msg.sender].skill.databaseAndOther */\n      0x02\n      add\n        /* \"contracts/Profile.sol\":3270:3331  profile[msg.sender].skill.databaseAndOther = databaseAndOther */\n      swap1\n      dup1\n      mload\n      swap1\n      0x20\n      add\n      swap1\n      tag_77\n      swap3\n      swap2\n      swap1\n      tag_75\n      jump\t// in\n    tag_77:\n      pop\n        /* \"contracts/Profile.sol\":2951:3339  function createSkill(string[] memory programmingLanguages, string[] memory framework, string[] memory databaseAndOther) public {\r... */\n      pop\n      pop\n      pop\n      jump\t// out\n        /* \"contracts/Profile.sol\":5194:5302  function delCertificateAndAward() external {\r... */\n    tag_27:\n        /* \"contracts/Profile.sol\":5255:5262  profile */\n      0x00\n        /* \"contracts/Profile.sol\":5255:5274  profile[msg.sender] */\n      dup1\n        /* \"contracts/Profile.sol\":5263:5273  msg.sender */\n      caller\n        /* \"contracts/Profile.sol\":5255:5274  profile[msg.sender] */\n      0xffffffffffffffffffffffffffffffffffffffff\n      and\n      0xffffffffffffffffffffffffffffffffffffffff\n      and\n      dup2\n      mstore\n      0x20\n      add\n      swap1\n      dup2\n      mstore\n      0x20\n      add\n      0x00\n      keccak256\n        /* \"contracts/Profile.sol\":5255:5294  profile[msg.sender].certificateAndAward */\n      0x12\n      add\n      0x00\n        /* \"contracts/Profile.sol\":5248:5294  delete profile[msg.sender].certificateAndAward */\n      dup1\n      dup3\n      add\n      0x00\n      tag_79\n      swap2\n      swap1\n      tag_71\n      jump\t// in\n    tag_79:\n      0x01\n      dup3\n      add\n      0x00\n      tag_80\n      swap2\n      swap1\n      tag_71\n      jump\t// in\n    tag_80:\n      pop\n      pop\n        /* \"contracts/Profile.sol\":5194:5302  function delCertificateAndAward() external {\r... */\n      jump\t// out\n        /* \"contracts/Profile.sol\":4286:4404  function getEducationCount() public view returns (uint) {\r... */\n    tag_29:\n        /* \"contracts/Profile.sol\":4336:4340  uint */\n      0x00\n        /* \"contracts/Profile.sol\":4360:4367  profile */\n      dup1\n        /* \"contracts/Profile.sol\":4360:4379  profile[msg.sender] */\n      0x00\n        /* \"contracts/Profile.sol\":4368:4378  msg.sender */\n      caller\n        /* \"contracts/Profile.sol\":4360:4379  profile[msg.sender] */\n      0xffffffffffffffffffffffffffffffffffffffff\n      and\n      0xffffffffffffffffffffffffffffffffffffffff\n      and\n      dup2\n      mstore\n      0x20\n      add\n      swap1\n      dup2\n      mstore\n      0x20\n      add\n      0x00\n      keccak256\n        /* \"contracts/Profile.sol\":4360:4389  profile[msg.sender].education */\n      0x11\n      add\n        /* \"contracts/Profile.sol\":4360:4396  profile[msg.sender].education.length */\n      dup1\n      sload\n      swap1\n      pop\n        /* \"contracts/Profile.sol\":4353:4396  return profile[msg.sender].education.length */\n      swap1\n      pop\n        /* \"contracts/Profile.sol\":4286:4404  function getEducationCount() public view returns (uint) {\r... */\n      swap1\n      jump\t// out\n        /* \"contracts/Profile.sol\":3406:3876  function createUnivercity(string memory startDate, string memory endDate, string memory univercity, string memory major, string memory finalProject) public {\r... */\n    tag_35:\n        /* \"contracts/Profile.sol\":3573:3600  Education memory _education */\n      tag_83\n      tag_84\n      jump\t// in\n    tag_83:\n        /* \"contracts/Profile.sol\":3634:3643  startDate */\n      dup6\n        /* \"contracts/Profile.sol\":3611:3621  _education */\n      dup2\n        /* \"contracts/Profile.sol\":3611:3631  _education.startDate */\n      0x00\n      add\n        /* \"contracts/Profile.sol\":3611:3643  _education.startDate = startDate */\n      dup2\n      swap1\n      mstore\n      pop\n        /* \"contracts/Profile.sol\":3675:3682  endDate */\n      dup5\n        /* \"contracts/Profile.sol\":3654:3664  _education */\n      dup2\n        /* \"contracts/Profile.sol\":3654:3672  _education.endDate */\n      0x20\n      add\n        /* \"contracts/Profile.sol\":3654:3682  _education.endDate = endDate */\n      dup2\n      swap1\n      mstore\n      pop\n        /* \"contracts/Profile.sol\":3717:3727  univercity */\n      dup4\n        /* \"contracts/Profile.sol\":3693:3703  _education */\n      dup2\n        /* \"contracts/Profile.sol\":3693:3714  _education.univercity */\n      0x40\n      add\n        /* \"contracts/Profile.sol\":3693:3727  _education.univercity = univercity */\n      dup2\n      swap1\n      mstore\n      pop\n        /* \"contracts/Profile.sol\":3757:3762  major */\n      dup3\n        /* \"contracts/Profile.sol\":3738:3748  _education */\n      dup2\n        /* \"contracts/Profile.sol\":3738:3754  _education.major */\n      0x60\n      add\n        /* \"contracts/Profile.sol\":3738:3762  _education.major = major */\n      dup2\n      swap1\n      mstore\n      pop\n        /* \"contracts/Profile.sol\":3799:3811  finalProject */\n      dup2\n        /* \"contracts/Profile.sol\":3773:3783  _education */\n      dup2\n        /* \"contracts/Profile.sol\":3773:3796  _education.finalProject */\n      0x80\n      add\n        /* \"contracts/Profile.sol\":3773:3811  _education.finalProject = finalProject */\n      dup2\n      swap1\n      mstore\n      pop\n        /* \"contracts/Profile.sol\":3822:3829  profile */\n      0x00\n        /* \"contracts/Profile.sol\":3822:3841  profile[msg.sender] */\n      dup1\n        /* \"contracts/Profile.sol\":3830:3840  msg.sender */\n      caller\n        /* \"contracts/Profile.sol\":3822:3841  profile[msg.sender] */\n      0xffffffffffffffffffffffffffffffffffffffff\n      and\n      0xffffffffffffffffffffffffffffffffffffffff\n      and\n      dup2\n      mstore\n      0x20\n      add\n      swap1\n      dup2\n      mstore\n      0x20\n      add\n      0x00\n      keccak256\n        /* \"contracts/Profile.sol\":3822:3851  profile[msg.sender].education */\n      0x11\n      add\n        /* \"contracts/Profile.sol\":3857:3867  _education */\n      dup2\n        /* \"contracts/Profile.sol\":3822:3868  profile[msg.sender].education.push(_education) */\n      swap1\n      dup1\n      0x01\n      dup2\n      sload\n      add\n      dup1\n      dup3\n      sstore\n      dup1\n      swap2\n      pop\n      pop\n      0x01\n      swap1\n      sub\n      swap1\n      0x00\n      mstore\n      keccak256(0x00, 0x20)\n      swap1\n      0x05\n      mul\n      add\n      0x00\n      swap1\n      swap2\n      swap1\n      swap2\n      swap1\n      swap2\n      pop\n      0x00\n      dup3\n      add\n      mload\n      dup2\n      0x00\n      add\n      swap1\n      dup1\n      mload\n      swap1\n      0x20\n      add\n      swap1\n      tag_86\n      swap3\n      swap2\n      swap1\n      tag_67\n      jump\t// in\n    tag_86:\n      pop\n      0x20\n      dup3\n      add\n      mload\n      dup2\n      0x01\n      add\n      swap1\n      dup1\n      mload\n      swap1\n      0x20\n      add\n      swap1\n      tag_87\n      swap3\n      swap2\n      swap1\n      tag_67\n      jump\t// in\n    tag_87:\n      pop\n      0x40\n      dup3\n      add\n      mload\n      dup2\n      0x02\n      add\n      swap1\n      dup1\n      mload\n      swap1\n      0x20\n      add\n      swap1\n      tag_88\n      swap3\n      swap2\n      swap1\n      tag_67\n      jump\t// in\n    tag_88:\n      pop\n      0x60\n      dup3\n      add\n      mload\n      dup2\n      0x03\n      add\n      swap1\n      dup1\n      mload\n      swap1\n      0x20\n      add\n      swap1\n      tag_89\n      swap3\n      swap2\n      swap1\n      tag_67\n      jump\t// in\n    tag_89:\n      pop\n      0x80\n      dup3\n      add\n      mload\n      dup2\n      0x04\n      add\n      swap1\n      dup1\n      mload\n      swap1\n      0x20\n      add\n      swap1\n      tag_90\n      swap3\n      swap2\n      swap1\n      tag_67\n      jump\t// in\n    tag_90:\n      pop\n      pop\n      pop\n        /* \"contracts/Profile.sol\":3562:3876  {\r... */\n      pop\n        /* \"contracts/Profile.sol\":3406:3876  function createUnivercity(string memory startDate, string memory endDate, string memory univercity, string memory major, string memory finalProject) public {\r... */\n      pop\n      pop\n      pop\n      pop\n      pop\n      jump\t// out\n        /* \"contracts/Profile.sol\":4412:4640  function createAward(string[] memory award, string[] memory certificate) public {\r... */\n    tag_39:\n        /* \"contracts/Profile.sol\":4551:4556  award */\n      dup2\n        /* \"contracts/Profile.sol\":4503:4510  profile */\n      0x00\n        /* \"contracts/Profile.sol\":4503:4522  profile[msg.sender] */\n      dup1\n        /* \"contracts/Profile.sol\":4511:4521  msg.sender */\n      caller\n        /* \"contracts/Profile.sol\":4503:4522  profile[msg.sender] */\n      0xffffffffffffffffffffffffffffffffffffffff\n      and\n      0xffffffffffffffffffffffffffffffffffffffff\n      and\n      dup2\n      mstore\n      0x20\n      add\n      swap1\n      dup2\n      mstore\n      0x20\n      add\n      0x00\n      keccak256\n        /* \"contracts/Profile.sol\":4503:4542  profile[msg.sender].certificateAndAward */\n      0x12\n      add\n        /* \"contracts/Profile.sol\":4503:4548  profile[msg.sender].certificateAndAward.award */\n      0x01\n      add\n        /* \"contracts/Profile.sol\":4503:4556  profile[msg.sender].certificateAndAward.award = award */\n      swap1\n      dup1\n      mload\n      swap1\n      0x20\n      add\n      swap1\n      tag_92\n      swap3\n      swap2\n      swap1\n      tag_75\n      jump\t// in\n    tag_92:\n      pop\n        /* \"contracts/Profile.sol\":4621:4632  certificate */\n      dup1\n        /* \"contracts/Profile.sol\":4567:4574  profile */\n      0x00\n        /* \"contracts/Profile.sol\":4567:4586  profile[msg.sender] */\n      dup1\n        /* \"contracts/Profile.sol\":4575:4585  msg.sender */\n      caller\n        /* \"contracts/Profile.sol\":4567:4586  profile[msg.sender] */\n      0xffffffffffffffffffffffffffffffffffffffff\n      and\n      0xffffffffffffffffffffffffffffffffffffffff\n      and\n      dup2\n      mstore\n      0x20\n      add\n      swap1\n      dup2\n      mstore\n      0x20\n      add\n      0x00\n      keccak256\n        /* \"contracts/Profile.sol\":4567:4606  profile[msg.sender].certificateAndAward */\n      0x12\n      add\n        /* \"contracts/Profile.sol\":4567:4618  profile[msg.sender].certificateAndAward.certificate */\n      0x00\n      add\n        /* \"contracts/Profile.sol\":4567:4632  profile[msg.sender].certificateAndAward.certificate = certificate */\n      swap1\n      dup1\n      mload\n      swap1\n      0x20\n      add\n      swap1\n      tag_93\n      swap3\n      swap2\n      swap1\n      tag_75\n      jump\t// in\n    tag_93:\n      pop\n        /* \"contracts/Profile.sol\":4412:4640  function createAward(string[] memory award, string[] memory certificate) public {\r... */\n      pop\n      pop\n      jump\t// out\n        /* \"contracts/Profile.sol\":2360:2864  function createContract(string memory email, string memory phone, string memory github, string memory gitlab, string memory linkin) public {\r... */\n    tag_42:\n        /* \"contracts/Profile.sol\":2517:2524  profile */\n      0x00\n        /* \"contracts/Profile.sol\":2517:2536  profile[msg.sender] */\n      dup1\n        /* \"contracts/Profile.sol\":2525:2535  msg.sender */\n      caller\n        /* \"contracts/Profile.sol\":2517:2536  profile[msg.sender] */\n      0xffffffffffffffffffffffffffffffffffffffff\n      and\n      0xffffffffffffffffffffffffffffffffffffffff\n      and\n      dup2\n      mstore\n      0x20\n      add\n      swap1\n      dup2\n      mstore\n      0x20\n      add\n      0x00\n      keccak256\n        /* \"contracts/Profile.sol\":2517:2552  profile[msg.sender].privateContract */\n      0x08\n      add\n      0x00\n        /* \"contracts/Profile.sol\":2510:2552  delete profile[msg.sender].privateContract */\n      dup1\n      dup3\n      add\n      0x00\n      tag_95\n      swap2\n      swap1\n      tag_96\n      jump\t// in\n    tag_95:\n      0x01\n      dup3\n      add\n      0x00\n      tag_97\n      swap2\n      swap1\n      tag_96\n      jump\t// in\n    tag_97:\n      0x02\n      dup3\n      add\n      0x00\n      tag_98\n      swap2\n      swap1\n      tag_96\n      jump\t// in\n    tag_98:\n      0x03\n      dup3\n      add\n      0x00\n      tag_99\n      swap2\n      swap1\n      tag_96\n      jump\t// in\n    tag_99:\n      0x04\n      dup3\n      add\n      0x00\n      tag_100\n      swap2\n      swap1\n      tag_96\n      jump\t// in\n    tag_100:\n      0x05\n      dup3\n      add\n      0x00\n      tag_101\n      swap2\n      swap1\n      tag_96\n      jump\t// in\n    tag_101:\n      pop\n      pop\n        /* \"contracts/Profile.sol\":2607:2612  email */\n      dup5\n        /* \"contracts/Profile.sol\":2563:2570  profile */\n      0x00\n        /* \"contracts/Profile.sol\":2563:2582  profile[msg.sender] */\n      dup1\n        /* \"contracts/Profile.sol\":2571:2581  msg.sender */\n      caller\n        /* \"contracts/Profile.sol\":2563:2582  profile[msg.sender] */\n      0xffffffffffffffffffffffffffffffffffffffff\n      and\n      0xffffffffffffffffffffffffffffffffffffffff\n      and\n      dup2\n      mstore\n      0x20\n      add\n      swap1\n      dup2\n      mstore\n      0x20\n      add\n      0x00\n      keccak256\n        /* \"contracts/Profile.sol\":2563:2598  profile[msg.sender].privateContract */\n      0x08\n      add\n        /* \"contracts/Profile.sol\":2563:2604  profile[msg.sender].privateContract.email */\n      0x01\n      add\n        /* \"contracts/Profile.sol\":2563:2612  profile[msg.sender].privateContract.email = email */\n      swap1\n      dup1\n      mload\n      swap1\n      0x20\n      add\n      swap1\n      tag_102\n      swap3\n      swap2\n      swap1\n      tag_67\n      jump\t// in\n    tag_102:\n      pop\n        /* \"contracts/Profile.sol\":2667:2672  phone */\n      dup4\n        /* \"contracts/Profile.sol\":2623:2630  profile */\n      0x00\n        /* \"contracts/Profile.sol\":2623:2642  profile[msg.sender] */\n      dup1\n        /* \"contracts/Profile.sol\":2631:2641  msg.sender */\n      caller\n        /* \"contracts/Profile.sol\":2623:2642  profile[msg.sender] */\n      0xffffffffffffffffffffffffffffffffffffffff\n      and\n      0xffffffffffffffffffffffffffffffffffffffff\n      and\n      dup2\n      mstore\n      0x20\n      add\n      swap1\n      dup2\n      mstore\n      0x20\n      add\n      0x00\n      keccak256\n        /* \"contracts/Profile.sol\":2623:2658  profile[msg.sender].privateContract */\n      0x08\n      add\n        /* \"contracts/Profile.sol\":2623:2664  profile[msg.sender].privateContract.phone */\n      0x02\n      add\n        /* \"contracts/Profile.sol\":2623:2672  profile[msg.sender].privateContract.phone = phone */\n      swap1\n      dup1\n      mload\n      swap1\n      0x20\n      add\n      swap1\n      tag_103\n      swap3\n      swap2\n      swap1\n      tag_67\n      jump\t// in\n    tag_103:\n      pop\n        /* \"contracts/Profile.sol\":2728:2734  github */\n      dup3\n        /* \"contracts/Profile.sol\":2683:2690  profile */\n      0x00\n        /* \"contracts/Profile.sol\":2683:2702  profile[msg.sender] */\n      dup1\n        /* \"contracts/Profile.sol\":2691:2701  msg.sender */\n      caller\n        /* \"contracts/Profile.sol\":2683:2702  profile[msg.sender] */\n      0xffffffffffffffffffffffffffffffffffffffff\n      and\n      0xffffffffffffffffffffffffffffffffffffffff\n      and\n      dup2\n      mstore\n      0x20\n      add\n      swap1\n      dup2\n      mstore\n      0x20\n      add\n      0x00\n      keccak256\n        /* \"contracts/Profile.sol\":2683:2718  profile[msg.sender].privateContract */\n      0x08\n      add\n        /* \"contracts/Profile.sol\":2683:2725  profile[msg.sender].privateContract.github */\n      0x03\n      add\n        /* \"contracts/Profile.sol\":2683:2734  profile[msg.sender].privateContract.github = github */\n      swap1\n      dup1\n      mload\n      swap1\n      0x20\n      add\n      swap1\n      tag_104\n      swap3\n      swap2\n      swap1\n      tag_67\n      jump\t// in\n    tag_104:\n      pop\n        /* \"contracts/Profile.sol\":2789:2795  gitlab */\n      dup2\n        /* \"contracts/Profile.sol\":2745:2752  profile */\n      0x00\n        /* \"contracts/Profile.sol\":2745:2764  profile[msg.sender] */\n      dup1\n        /* \"contracts/Profile.sol\":2753:2763  msg.sender */\n      caller\n        /* \"contracts/Profile.sol\":2745:2764  profile[msg.sender] */\n      0xffffffffffffffffffffffffffffffffffffffff\n      and\n      0xffffffffffffffffffffffffffffffffffffffff\n      and\n      dup2\n      mstore\n      0x20\n      add\n      swap1\n      dup2\n      mstore\n      0x20\n      add\n      0x00\n      keccak256\n        /* \"contracts/Profile.sol\":2745:2780  profile[msg.sender].privateContract */\n      0x08\n      add\n        /* \"contracts/Profile.sol\":2745:2786  profile[msg.sender].privateContract.phone */\n      0x02\n      add\n        /* \"contracts/Profile.sol\":2745:2795  profile[msg.sender].privateContract.phone = gitlab */\n      swap1\n      dup1\n      mload\n      swap1\n      0x20\n      add\n      swap1\n      tag_105\n      swap3\n      swap2\n      swap1\n      tag_67\n      jump\t// in\n    tag_105:\n      pop\n        /* \"contracts/Profile.sol\":2850:2856  linkin */\n      dup1\n        /* \"contracts/Profile.sol\":2806:2813  profile */\n      0x00\n        /* \"contracts/Profile.sol\":2806:2825  profile[msg.sender] */\n      dup1\n        /* \"contracts/Profile.sol\":2814:2824  msg.sender */\n      caller\n        /* \"contracts/Profile.sol\":2806:2825  profile[msg.sender] */\n      0xffffffffffffffffffffffffffffffffffffffff\n      and\n      0xffffffffffffffffffffffffffffffffffffffff\n      and\n      dup2\n      mstore\n      0x20\n      add\n      swap1\n      dup2\n      mstore\n      0x20\n      add\n      0x00\n      keccak256\n        /* \"contracts/Profile.sol\":2806:2841  profile[msg.sender].privateContract */\n      0x08\n      add\n        /* \"contracts/Profile.sol\":2806:2847  profile[msg.sender].privateContract.email */\n      0x01\n      add\n        /* \"contracts/Profile.sol\":2806:2856  profile[msg.sender].privateContract.email = linkin */\n      swap1\n      dup1\n      mload\n      swap1\n      0x20\n      add\n      swap1\n      tag_106\n      swap3\n      swap2\n      swap1\n      tag_67\n      jump\t// in\n    tag_106:\n      pop\n        /* \"contracts/Profile.sol\":2360:2864  function createContract(string memory email, string memory phone, string memory github, string memory gitlab, string memory linkin) public {\r... */\n      pop\n      pop\n      pop\n      pop\n      pop\n      jump\t// out\n        /* \"contracts/Profile.sol\":1589:2305  function createInformation(string memory firstName, string memory middleName, string memory lastName,  string memory profileImage, string memory aboutMe, string memory position) public {\r... */\n    tag_46:\n        /* \"contracts/Profile.sol\":1829:1838  firstName */\n      dup6\n        /* \"contracts/Profile.sol\":1785:1792  profile */\n      0x00\n        /* \"contracts/Profile.sol\":1785:1804  profile[msg.sender] */\n      dup1\n        /* \"contracts/Profile.sol\":1793:1803  msg.sender */\n      caller\n        /* \"contracts/Profile.sol\":1785:1804  profile[msg.sender] */\n      0xffffffffffffffffffffffffffffffffffffffff\n      and\n      0xffffffffffffffffffffffffffffffffffffffff\n      and\n      dup2\n      mstore\n      0x20\n      add\n      swap1\n      dup2\n      mstore\n      0x20\n      add\n      0x00\n      keccak256\n        /* \"contracts/Profile.sol\":1785:1816  profile[msg.sender].information */\n      0x00\n      add\n        /* \"contracts/Profile.sol\":1785:1826  profile[msg.sender].information.firstName */\n      0x03\n      add\n        /* \"contracts/Profile.sol\":1785:1838  profile[msg.sender].information.firstName = firstName */\n      swap1\n      dup1\n      mload\n      swap1\n      0x20\n      add\n      swap1\n      tag_108\n      swap3\n      swap2\n      swap1\n      tag_67\n      jump\t// in\n    tag_108:\n      pop\n        /* \"contracts/Profile.sol\":1894:1904  middleName */\n      dup5\n        /* \"contracts/Profile.sol\":1849:1856  profile */\n      0x00\n        /* \"contracts/Profile.sol\":1849:1868  profile[msg.sender] */\n      dup1\n        /* \"contracts/Profile.sol\":1857:1867  msg.sender */\n      caller\n        /* \"contracts/Profile.sol\":1849:1868  profile[msg.sender] */\n      0xffffffffffffffffffffffffffffffffffffffff\n      and\n      0xffffffffffffffffffffffffffffffffffffffff\n      and\n      dup2\n      mstore\n      0x20\n      add\n      swap1\n      dup2\n      mstore\n      0x20\n      add\n      0x00\n      keccak256\n        /* \"contracts/Profile.sol\":1849:1880  profile[msg.sender].information */\n      0x00\n      add\n        /* \"contracts/Profile.sol\":1849:1891  profile[msg.sender].information.middleName */\n      0x04\n      add\n        /* \"contracts/Profile.sol\":1849:1904  profile[msg.sender].information.middleName = middleName */\n      swap1\n      dup1\n      mload\n      swap1\n      0x20\n      add\n      swap1\n      tag_109\n      swap3\n      swap2\n      swap1\n      tag_67\n      jump\t// in\n    tag_109:\n      pop\n        /* \"contracts/Profile.sol\":1958:1966  lastName */\n      dup4\n        /* \"contracts/Profile.sol\":1915:1922  profile */\n      0x00\n        /* \"contracts/Profile.sol\":1915:1934  profile[msg.sender] */\n      dup1\n        /* \"contracts/Profile.sol\":1923:1933  msg.sender */\n      caller\n        /* \"contracts/Profile.sol\":1915:1934  profile[msg.sender] */\n      0xffffffffffffffffffffffffffffffffffffffff\n      and\n      0xffffffffffffffffffffffffffffffffffffffff\n      and\n      dup2\n      mstore\n      0x20\n      add\n      swap1\n      dup2\n      mstore\n      0x20\n      add\n      0x00\n      keccak256\n        /* \"contracts/Profile.sol\":1915:1946  profile[msg.sender].information */\n      0x00\n      add\n        /* \"contracts/Profile.sol\":1915:1955  profile[msg.sender].information.lastName */\n      0x05\n      add\n        /* \"contracts/Profile.sol\":1915:1966  profile[msg.sender].information.lastName = lastName */\n      swap1\n      dup1\n      mload\n      swap1\n      0x20\n      add\n      swap1\n      tag_110\n      swap3\n      swap2\n      swap1\n      tag_67\n      jump\t// in\n    tag_110:\n      pop\n        /* \"contracts/Profile.sol\":2024:2036  profileImage */\n      dup3\n        /* \"contracts/Profile.sol\":1977:1984  profile */\n      0x00\n        /* \"contracts/Profile.sol\":1977:1996  profile[msg.sender] */\n      dup1\n        /* \"contracts/Profile.sol\":1985:1995  msg.sender */\n      caller\n        /* \"contracts/Profile.sol\":1977:1996  profile[msg.sender] */\n      0xffffffffffffffffffffffffffffffffffffffff\n      and\n      0xffffffffffffffffffffffffffffffffffffffff\n      and\n      dup2\n      mstore\n      0x20\n      add\n      swap1\n      dup2\n      mstore\n      0x20\n      add\n      0x00\n      keccak256\n        /* \"contracts/Profile.sol\":1977:2008  profile[msg.sender].information */\n      0x00\n      add\n        /* \"contracts/Profile.sol\":1977:2021  profile[msg.sender].information.profileImage */\n      0x06\n      add\n        /* \"contracts/Profile.sol\":1977:2036  profile[msg.sender].information.profileImage = profileImage */\n      swap1\n      dup1\n      mload\n      swap1\n      0x20\n      add\n      swap1\n      tag_111\n      swap3\n      swap2\n      swap1\n      tag_67\n      jump\t// in\n    tag_111:\n      pop\n        /* \"contracts/Profile.sol\":2089:2096  aboutMe */\n      dup2\n        /* \"contracts/Profile.sol\":2047:2054  profile */\n      0x00\n        /* \"contracts/Profile.sol\":2047:2066  profile[msg.sender] */\n      dup1\n        /* \"contracts/Profile.sol\":2055:2065  msg.sender */\n      caller\n        /* \"contracts/Profile.sol\":2047:2066  profile[msg.sender] */\n      0xffffffffffffffffffffffffffffffffffffffff\n      and\n      0xffffffffffffffffffffffffffffffffffffffff\n      and\n      dup2\n      mstore\n      0x20\n      add\n      swap1\n      dup2\n      mstore\n      0x20\n      add\n      0x00\n      keccak256\n        /* \"contracts/Profile.sol\":2047:2078  profile[msg.sender].information */\n      0x00\n      add\n        /* \"contracts/Profile.sol\":2047:2086  profile[msg.sender].information.aboutMe */\n      0x00\n      add\n        /* \"contracts/Profile.sol\":2047:2096  profile[msg.sender].information.aboutMe = aboutMe */\n      swap1\n      dup1\n      mload\n      swap1\n      0x20\n      add\n      swap1\n      tag_112\n      swap3\n      swap2\n      swap1\n      tag_67\n      jump\t// in\n    tag_112:\n      pop\n        /* \"contracts/Profile.sol\":2150:2158  position */\n      dup1\n        /* \"contracts/Profile.sol\":2107:2114  profile */\n      0x00\n        /* \"contracts/Profile.sol\":2107:2126  profile[msg.sender] */\n      dup1\n        /* \"contracts/Profile.sol\":2115:2125  msg.sender */\n      caller\n        /* \"contracts/Profile.sol\":2107:2126  profile[msg.sender] */\n      0xffffffffffffffffffffffffffffffffffffffff\n      and\n      0xffffffffffffffffffffffffffffffffffffffff\n      and\n      dup2\n      mstore\n      0x20\n      add\n      swap1\n      dup2\n      mstore\n      0x20\n      add\n      0x00\n      keccak256\n        /* \"contracts/Profile.sol\":2107:2138  profile[msg.sender].information */\n      0x00\n      add\n        /* \"contracts/Profile.sol\":2107:2147  profile[msg.sender].information.position */\n      0x01\n      add\n        /* \"contracts/Profile.sol\":2107:2158  profile[msg.sender].information.position = position */\n      swap1\n      dup1\n      mload\n      swap1\n      0x20\n      add\n      swap1\n      tag_113\n      swap3\n      swap2\n      swap1\n      tag_67\n      jump\t// in\n    tag_113:\n      pop\n        /* \"contracts/Profile.sol\":2215:2225  msg.sender */\n      caller\n        /* \"contracts/Profile.sol\":2169:2176  profile */\n      0x00\n        /* \"contracts/Profile.sol\":2169:2188  profile[msg.sender] */\n      dup1\n        /* \"contracts/Profile.sol\":2177:2187  msg.sender */\n      caller\n        /* \"contracts/Profile.sol\":2169:2188  profile[msg.sender] */\n      0xffffffffffffffffffffffffffffffffffffffff\n      and\n      0xffffffffffffffffffffffffffffffffffffffff\n      and\n      dup2\n      mstore\n      0x20\n      add\n      swap1\n      dup2\n      mstore\n      0x20\n      add\n      0x00\n      keccak256\n        /* \"contracts/Profile.sol\":2169:2200  profile[msg.sender].information */\n      0x00\n      add\n        /* \"contracts/Profile.sol\":2169:2212  profile[msg.sender].information.userAddress */\n      0x02\n      add\n      0x00\n        /* \"contracts/Profile.sol\":2169:2225  profile[msg.sender].information.userAddress = msg.sender */\n      0x0100\n      exp\n      dup2\n      sload\n      dup2\n      0xffffffffffffffffffffffffffffffffffffffff\n      mul\n      not\n      and\n      swap1\n      dup4\n      0xffffffffffffffffffffffffffffffffffffffff\n      and\n      mul\n      or\n      swap1\n      sstore\n      pop\n        /* \"contracts/Profile.sol\":2282:2297  block.timestamp */\n      timestamp\n        /* \"contracts/Profile.sol\":2237:2244  profile */\n      0x00\n        /* \"contracts/Profile.sol\":2237:2256  profile[msg.sender] */\n      dup1\n        /* \"contracts/Profile.sol\":2245:2255  msg.sender */\n      caller\n        /* \"contracts/Profile.sol\":2237:2256  profile[msg.sender] */\n      0xffffffffffffffffffffffffffffffffffffffff\n      and\n      0xffffffffffffffffffffffffffffffffffffffff\n      and\n      dup2\n      mstore\n      0x20\n      add\n      swap1\n      dup2\n      mstore\n      0x20\n      add\n      0x00\n      keccak256\n        /* \"contracts/Profile.sol\":2237:2268  profile[msg.sender].information */\n      0x00\n      add\n        /* \"contracts/Profile.sol\":2237:2279  profile[msg.sender].information.createDate */\n      0x07\n      add\n        /* \"contracts/Profile.sol\":2237:2297  profile[msg.sender].information.createDate = block.timestamp */\n      dup2\n      swap1\n      sstore\n      pop\n        /* \"contracts/Profile.sol\":1589:2305  function createInformation(string memory firstName, string memory middleName, string memory lastName,  string memory profileImage, string memory aboutMe, string memory position) public {\r... */\n      pop\n      pop\n      pop\n      pop\n      pop\n      pop\n      jump\t// out\n        /* \"contracts/Profile.sol\":5010:5102  function delInformaion() external  {\r... */\n    tag_48:\n        /* \"contracts/Profile.sol\":5063:5070  profile */\n      0x00\n        /* \"contracts/Profile.sol\":5063:5082  profile[msg.sender] */\n      dup1\n        /* \"contracts/Profile.sol\":5071:5081  msg.sender */\n      caller\n        /* \"contracts/Profile.sol\":5063:5082  profile[msg.sender] */\n      0xffffffffffffffffffffffffffffffffffffffff\n      and\n      0xffffffffffffffffffffffffffffffffffffffff\n      and\n      dup2\n      mstore\n      0x20\n      add\n      swap1\n      dup2\n      mstore\n      0x20\n      add\n      0x00\n      keccak256\n        /* \"contracts/Profile.sol\":5063:5094  profile[msg.sender].information */\n      0x00\n      add\n      0x00\n        /* \"contracts/Profile.sol\":5056:5094  delete profile[msg.sender].information */\n      dup1\n      dup3\n      add\n      0x00\n      tag_115\n      swap2\n      swap1\n      tag_96\n      jump\t// in\n    tag_115:\n      0x01\n      dup3\n      add\n      0x00\n      tag_116\n      swap2\n      swap1\n      tag_96\n      jump\t// in\n    tag_116:\n      0x02\n      dup3\n      add\n      exp(0x0100, 0x00)\n      dup2\n      sload\n      swap1\n      0xffffffffffffffffffffffffffffffffffffffff\n      mul\n      not\n      and\n      swap1\n      sstore\n      0x03\n      dup3\n      add\n      0x00\n      tag_117\n      swap2\n      swap1\n      tag_96\n      jump\t// in\n    tag_117:\n      0x04\n      dup3\n      add\n      0x00\n      tag_118\n      swap2\n      swap1\n      tag_96\n      jump\t// in\n    tag_118:\n      0x05\n      dup3\n      add\n      0x00\n      tag_119\n      swap2\n      swap1\n      tag_96\n      jump\t// in\n    tag_119:\n      0x06\n      dup3\n      add\n      0x00\n      tag_120\n      swap2\n      swap1\n      tag_96\n      jump\t// in\n    tag_120:\n      0x07\n      dup3\n      add\n      0x00\n      swap1\n      sstore\n      pop\n      pop\n        /* \"contracts/Profile.sol\":5010:5102  function delInformaion() external  {\r... */\n      jump\t// out\n        /* \"contracts/Profile.sol\":380:420  mapping (address => Bio) public  profile */\n    tag_52:\n      mstore(0x20, 0x00)\n      dup1\n      0x00\n      mstore\n      keccak256(0x00, 0x40)\n      0x00\n      swap2\n      pop\n      swap1\n      pop\n      dup1\n      0x00\n      add\n      mload(0x40)\n      dup1\n      0x0100\n      add\n      0x40\n      mstore\n      swap1\n      dup2\n      0x00\n      dup3\n      add\n      dup1\n      sload\n      tag_121\n      swap1\n      tag_122\n      jump\t// in\n    tag_121:\n      dup1\n      0x1f\n      add\n      0x20\n      dup1\n      swap2\n      div\n      mul\n      0x20\n      add\n      mload(0x40)\n      swap1\n      dup2\n      add\n      0x40\n      mstore\n      dup1\n      swap3\n      swap2\n      swap1\n      dup2\n      dup2\n      mstore\n      0x20\n      add\n      dup3\n      dup1\n      sload\n      tag_123\n      swap1\n      tag_122\n      jump\t// in\n    tag_123:\n      dup1\n      iszero\n      tag_124\n      jumpi\n      dup1\n      0x1f\n      lt\n      tag_125\n      jumpi\n      0x0100\n      dup1\n      dup4\n      sload\n      div\n      mul\n      dup4\n      mstore\n      swap2\n      0x20\n      add\n      swap2\n      jump(tag_124)\n    tag_125:\n      dup3\n      add\n      swap2\n      swap1\n      0x00\n      mstore\n      keccak256(0x00, 0x20)\n      swap1\n    tag_126:\n      dup2\n      sload\n      dup2\n      mstore\n      swap1\n      0x01\n      add\n      swap1\n      0x20\n      add\n      dup1\n      dup4\n      gt\n      tag_126\n      jumpi\n      dup3\n      swap1\n      sub\n      0x1f\n      and\n      dup3\n      add\n      swap2\n    tag_124:\n      pop\n      pop\n      pop\n      pop\n      pop\n      dup2\n      mstore\n      0x20\n      add\n      0x01\n      dup3\n      add\n      dup1\n      sload\n      tag_127\n      swap1\n      tag_122\n      jump\t// in\n    tag_127:\n      dup1\n      0x1f\n      add\n      0x20\n      dup1\n      swap2\n      div\n      mul\n      0x20\n      add\n      mload(0x40)\n      swap1\n      dup2\n      add\n      0x40\n      mstore\n      dup1\n      swap3\n      swap2\n      swap1\n      dup2\n      dup2\n      mstore\n      0x20\n      add\n      dup3\n      dup1\n      sload\n      tag_128\n      swap1\n      tag_122\n      jump\t// in\n    tag_128:\n      dup1\n      iszero\n      tag_129\n      jumpi\n      dup1\n      0x1f\n      lt\n      tag_130\n      jumpi\n      0x0100\n      dup1\n      dup4\n      sload\n      div\n      mul\n      dup4\n      mstore\n      swap2\n      0x20\n      add\n      swap2\n      jump(tag_129)\n    tag_130:\n      dup3\n      add\n      swap2\n      swap1\n      0x00\n      mstore\n      keccak256(0x00, 0x20)\n      swap1\n    tag_131:\n      dup2\n      sload\n      dup2\n      mstore\n      swap1\n      0x01\n      add\n      swap1\n      0x20\n      add\n      dup1\n      dup4\n      gt\n      tag_131\n      jumpi\n      dup3\n      swap1\n      sub\n      0x1f\n      and\n      dup3\n      add\n      swap2\n    tag_129:\n      pop\n      pop\n      pop\n      pop\n      pop\n      dup2\n      mstore\n      0x20\n      add\n      0x02\n      dup3\n      add\n      0x00\n      swap1\n      sload\n      swap1\n      0x0100\n      exp\n      swap1\n      div\n      0xffffffffffffffffffffffffffffffffffffffff\n      and\n      0xffffffffffffffffffffffffffffffffffffffff\n      and\n      0xffffffffffffffffffffffffffffffffffffffff\n      and\n      dup2\n      mstore\n      0x20\n      add\n      0x03\n      dup3\n      add\n      dup1\n      sload\n      tag_132\n      swap1\n      tag_122\n      jump\t// in\n    tag_132:\n      dup1\n      0x1f\n      add\n      0x20\n      dup1\n      swap2\n      div\n      mul\n      0x20\n      add\n      mload(0x40)\n      swap1\n      dup2\n      add\n      0x40\n      mstore\n      dup1\n      swap3\n      swap2\n      swap1\n      dup2\n      dup2\n      mstore\n      0x20\n      add\n      dup3\n      dup1\n      sload\n      tag_133\n      swap1\n      tag_122\n      jump\t// in\n    tag_133:\n      dup1\n      iszero\n      tag_134\n      jumpi\n      dup1\n      0x1f\n      lt\n      tag_135\n      jumpi\n      0x0100\n      dup1\n      dup4\n      sload\n      div\n      mul\n      dup4\n      mstore\n      swap2\n      0x20\n      add\n      swap2\n      jump(tag_134)\n    tag_135:\n      dup3\n      add\n      swap2\n      swap1\n      0x00\n      mstore\n      keccak256(0x00, 0x20)\n      swap1\n    tag_136:\n      dup2\n      sload\n      dup2\n      mstore\n      swap1\n      0x01\n      add\n      swap1\n      0x20\n      add\n      dup1\n      dup4\n      gt\n      tag_136\n      jumpi\n      dup3\n      swap1\n      sub\n      0x1f\n      and\n      dup3\n      add\n      swap2\n    tag_134:\n      pop\n      pop\n      pop\n      pop\n      pop\n      dup2\n      mstore\n      0x20\n      add\n      0x04\n      dup3\n      add\n      dup1\n      sload\n      tag_137\n      swap1\n      tag_122\n      jump\t// in\n    tag_137:\n      dup1\n      0x1f\n      add\n      0x20\n      dup1\n      swap2\n      div\n      mul\n      0x20\n      add\n      mload(0x40)\n      swap1\n      dup2\n      add\n      0x40\n      mstore\n      dup1\n      swap3\n      swap2\n      swap1\n      dup2\n      dup2\n      mstore\n      0x20\n      add\n      dup3\n      dup1\n      sload\n      tag_138\n      swap1\n      tag_122\n      jump\t// in\n    tag_138:\n      dup1\n      iszero\n      tag_139\n      jumpi\n      dup1\n      0x1f\n      lt\n      tag_140\n      jumpi\n      0x0100\n      dup1\n      dup4\n      sload\n      div\n      mul\n      dup4\n      mstore\n      swap2\n      0x20\n      add\n      swap2\n      jump(tag_139)\n    tag_140:\n      dup3\n      add\n      swap2\n      swap1\n      0x00\n      mstore\n      keccak256(0x00, 0x20)\n      swap1\n    tag_141:\n      dup2\n      sload\n      dup2\n      mstore\n      swap1\n      0x01\n      add\n      swap1\n      0x20\n      add\n      dup1\n      dup4\n      gt\n      tag_141\n      jumpi\n      dup3\n      swap1\n      sub\n      0x1f\n      and\n      dup3\n      add\n      swap2\n    tag_139:\n      pop\n      pop\n      pop\n      pop\n      pop\n      dup2\n      mstore\n      0x20\n      add\n      0x05\n      dup3\n      add\n      dup1\n      sload\n      tag_142\n      swap1\n      tag_122\n      jump\t// in\n    tag_142:\n      dup1\n      0x1f\n      add\n      0x20\n      dup1\n      swap2\n      div\n      mul\n      0x20\n      add\n      mload(0x40)\n      swap1\n      dup2\n      add\n      0x40\n      mstore\n      dup1\n      swap3\n      swap2\n      swap1\n      dup2\n      dup2\n      mstore\n      0x20\n      add\n      dup3\n      dup1\n      sload\n      tag_143\n      swap1\n      tag_122\n      jump\t// in\n    tag_143:\n      dup1\n      iszero\n      tag_144\n      jumpi\n      dup1\n      0x1f\n      lt\n      tag_145\n      jumpi\n      0x0100\n      dup1\n      dup4\n      sload\n      div\n      mul\n      dup4\n      mstore\n      swap2\n      0x20\n      add\n      swap2\n      jump(tag_144)\n    tag_145:\n      dup3\n      add\n      swap2\n      swap1\n      0x00\n      mstore\n      keccak256(0x00, 0x20)\n      swap1\n    tag_146:\n      dup2\n      sload\n      dup2\n      mstore\n      swap1\n      0x01\n      add\n      swap1\n      0x20\n      add\n      dup1\n      dup4\n      gt\n      tag_146\n      jumpi\n      dup3\n      swap1\n      sub\n      0x1f\n      and\n      dup3\n      add\n      swap2\n    tag_144:\n      pop\n      pop\n      pop\n      pop\n      pop\n      dup2\n      mstore\n      0x20\n      add\n      0x06\n      dup3\n      add\n      dup1\n      sload\n      tag_147\n      swap1\n      tag_122\n      jump\t// in\n    tag_147:\n      dup1\n      0x1f\n      add\n      0x20\n      dup1\n      swap2\n      div\n      mul\n      0x20\n      add\n      mload(0x40)\n      swap1\n      dup2\n      add\n      0x40\n      mstore\n      dup1\n      swap3\n      swap2\n      swap1\n      dup2\n      dup2\n      mstore\n      0x20\n      add\n      dup3\n      dup1\n      sload\n      tag_148\n      swap1\n      tag_122\n      jump\t// in\n    tag_148:\n      dup1\n      iszero\n      tag_149\n      jumpi\n      dup1\n      0x1f\n      lt\n      tag_150\n      jumpi\n      0x0100\n      dup1\n      dup4\n      sload\n      div\n      mul\n      dup4\n      mstore\n      swap2\n      0x20\n      add\n      swap2\n      jump(tag_149)\n    tag_150:\n      dup3\n      add\n      swap2\n      swap1\n      0x00\n      mstore\n      keccak256(0x00, 0x20)\n      swap1\n    tag_151:\n      dup2\n      sload\n      dup2\n      mstore\n      swap1\n      0x01\n      add\n      swap1\n      0x20\n      add\n      dup1\n      dup4\n      gt\n      tag_151\n      jumpi\n      dup3\n      swap1\n      sub\n      0x1f\n      and\n      dup3\n      add\n      swap2\n    tag_149:\n      pop\n      pop\n      pop\n      pop\n      pop\n      dup2\n      mstore\n      0x20\n      add\n      0x07\n      dup3\n      add\n      sload\n      dup2\n      mstore\n      pop\n      pop\n      swap1\n      dup1\n      0x08\n      add\n      mload(0x40)\n      dup1\n      0xc0\n      add\n      0x40\n      mstore\n      swap1\n      dup2\n      0x00\n      dup3\n      add\n      dup1\n      sload\n      tag_152\n      swap1\n      tag_122\n      jump\t// in\n    tag_152:\n      dup1\n      0x1f\n      add\n      0x20\n      dup1\n      swap2\n      div\n      mul\n      0x20\n      add\n      mload(0x40)\n      swap1\n      dup2\n      add\n      0x40\n      mstore\n      dup1\n      swap3\n      swap2\n      swap1\n      dup2\n      dup2\n      mstore\n      0x20\n      add\n      dup3\n      dup1\n      sload\n      tag_153\n      swap1\n      tag_122\n      jump\t// in\n    tag_153:\n      dup1\n      iszero\n      tag_154\n      jumpi\n      dup1\n      0x1f\n      lt\n      tag_155\n      jumpi\n      0x0100\n      dup1\n      dup4\n      sload\n      div\n      mul\n      dup4\n      mstore\n      swap2\n      0x20\n      add\n      swap2\n      jump(tag_154)\n    tag_155:\n      dup3\n      add\n      swap2\n      swap1\n      0x00\n      mstore\n      keccak256(0x00, 0x20)\n      swap1\n    tag_156:\n      dup2\n      sload\n      dup2\n      mstore\n      swap1\n      0x01\n      add\n      swap1\n      0x20\n      add\n      dup1\n      dup4\n      gt\n      tag_156\n      jumpi\n      dup3\n      swap1\n      sub\n      0x1f\n      and\n      dup3\n      add\n      swap2\n    tag_154:\n      pop\n      pop\n      pop\n      pop\n      pop\n      dup2\n      mstore\n      0x20\n      add\n      0x01\n      dup3\n      add\n      dup1\n      sload\n      tag_157\n      swap1\n      tag_122\n      jump\t// in\n    tag_157:\n      dup1\n      0x1f\n      add\n      0x20\n      dup1\n      swap2\n      div\n      mul\n      0x20\n      add\n      mload(0x40)\n      swap1\n      dup2\n      add\n      0x40\n      mstore\n      dup1\n      swap3\n      swap2\n      swap1\n      dup2\n      dup2\n      mstore\n      0x20\n      add\n      dup3\n      dup1\n      sload\n      tag_158\n      swap1\n      tag_122\n      jump\t// in\n    tag_158:\n      dup1\n      iszero\n      tag_159\n      jumpi\n      dup1\n      0x1f\n      lt\n      tag_160\n      jumpi\n      0x0100\n      dup1\n      dup4\n      sload\n      div\n      mul\n      dup4\n      mstore\n      swap2\n      0x20\n      add\n      swap2\n      jump(tag_159)\n    tag_160:\n      dup3\n      add\n      swap2\n      swap1\n      0x00\n      mstore\n      keccak256(0x00, 0x20)\n      swap1\n    tag_161:\n      dup2\n      sload\n      dup2\n      mstore\n      swap1\n      0x01\n      add\n      swap1\n      0x20\n      add\n      dup1\n      dup4\n      gt\n      tag_161\n      jumpi\n      dup3\n      swap1\n      sub\n      0x1f\n      and\n      dup3\n      add\n      swap2\n    tag_159:\n      pop\n      pop\n      pop\n      pop\n      pop\n      dup2\n      mstore\n      0x20\n      add\n      0x02\n      dup3\n      add\n      dup1\n      sload\n      tag_162\n      swap1\n      tag_122\n      jump\t// in\n    tag_162:\n      dup1\n      0x1f\n      add\n      0x20\n      dup1\n      swap2\n      div\n      mul\n      0x20\n      add\n      mload(0x40)\n      swap1\n      dup2\n      add\n      0x40\n      mstore\n      dup1\n      swap3\n      swap2\n      swap1\n      dup2\n      dup2\n      mstore\n      0x20\n      add\n      dup3\n      dup1\n      sload\n      tag_163\n      swap1\n      tag_122\n      jump\t// in\n    tag_163:\n      dup1\n      iszero\n      tag_164\n      jumpi\n      dup1\n      0x1f\n      lt\n      tag_165\n      jumpi\n      0x0100\n      dup1\n      dup4\n      sload\n      div\n      mul\n      dup4\n      mstore\n      swap2\n      0x20\n      add\n      swap2\n      jump(tag_164)\n    tag_165:\n      dup3\n      add\n      swap2\n      swap1\n      0x00\n      mstore\n      keccak256(0x00, 0x20)\n      swap1\n    tag_166:\n      dup2\n      sload\n      dup2\n      mstore\n      swap1\n      0x01\n      add\n      swap1\n      0x20\n      add\n      dup1\n      dup4\n      gt\n      tag_166\n      jumpi\n      dup3\n      swap1\n      sub\n      0x1f\n      and\n      dup3\n      add\n      swap2\n    tag_164:\n      pop\n      pop\n      pop\n      pop\n      pop\n      dup2\n      mstore\n      0x20\n      add\n      0x03\n      dup3\n      add\n      dup1\n      sload\n      tag_167\n      swap1\n      tag_122\n      jump\t// in\n    tag_167:\n      dup1\n      0x1f\n      add\n      0x20\n      dup1\n      swap2\n      div\n      mul\n      0x20\n      add\n      mload(0x40)\n      swap1\n      dup2\n      add\n      0x40\n      mstore\n      dup1\n      swap3\n      swap2\n      swap1\n      dup2\n      dup2\n      mstore\n      0x20\n      add\n      dup3\n      dup1\n      sload\n      tag_168\n      swap1\n      tag_122\n      jump\t// in\n    tag_168:\n      dup1\n      iszero\n      tag_169\n      jumpi\n      dup1\n      0x1f\n      lt\n      tag_170\n      jumpi\n      0x0100\n      dup1\n      dup4\n      sload\n      div\n      mul\n      dup4\n      mstore\n      swap2\n      0x20\n      add\n      swap2\n      jump(tag_169)\n    tag_170:\n      dup3\n      add\n      swap2\n      swap1\n      0x00\n      mstore\n      keccak256(0x00, 0x20)\n      swap1\n    tag_171:\n      dup2\n      sload\n      dup2\n      mstore\n      swap1\n      0x01\n      add\n      swap1\n      0x20\n      add\n      dup1\n      dup4\n      gt\n      tag_171\n      jumpi\n      dup3\n      swap1\n      sub\n      0x1f\n      and\n      dup3\n      add\n      swap2\n    tag_169:\n      pop\n      pop\n      pop\n      pop\n      pop\n      dup2\n      mstore\n      0x20\n      add\n      0x04\n      dup3\n      add\n      dup1\n      sload\n      tag_172\n      swap1\n      tag_122\n      jump\t// in\n    tag_172:\n      dup1\n      0x1f\n      add\n      0x20\n      dup1\n      swap2\n      div\n      mul\n      0x20\n      add\n      mload(0x40)\n      swap1\n      dup2\n      add\n      0x40\n      mstore\n      dup1\n      swap3\n      swap2\n      swap1\n      dup2\n      dup2\n      mstore\n      0x20\n      add\n      dup3\n      dup1\n      sload\n      tag_173\n      swap1\n      tag_122\n      jump\t// in\n    tag_173:\n      dup1\n      iszero\n      tag_174\n      jumpi\n      dup1\n      0x1f\n      lt\n      tag_175\n      jumpi\n      0x0100\n      dup1\n      dup4\n      sload\n      div\n      mul\n      dup4\n      mstore\n      swap2\n      0x20\n      add\n      swap2\n      jump(tag_174)\n    tag_175:\n      dup3\n      add\n      swap2\n      swap1\n      0x00\n      mstore\n      keccak256(0x00, 0x20)\n      swap1\n    tag_176:\n      dup2\n      sload\n      dup2\n      mstore\n      swap1\n      0x01\n      add\n      swap1\n      0x20\n      add\n      dup1\n      dup4\n      gt\n      tag_176\n      jumpi\n      dup3\n      swap1\n      sub\n      0x1f\n      and\n      dup3\n      add\n      swap2\n    tag_174:\n      pop\n      pop\n      pop\n      pop\n      pop\n      dup2\n      mstore\n      0x20\n      add\n      0x05\n      dup3\n      add\n      dup1\n      sload\n      tag_177\n      swap1\n      tag_122\n      jump\t// in\n    tag_177:\n      dup1\n      0x1f\n      add\n      0x20\n      dup1\n      swap2\n      div\n      mul\n      0x20\n      add\n      mload(0x40)\n      swap1\n      dup2\n      add\n      0x40\n      mstore\n      dup1\n      swap3\n      swap2\n      swap1\n      dup2\n      dup2\n      mstore\n      0x20\n      add\n      dup3\n      dup1\n      sload\n      tag_178\n      swap1\n      tag_122\n      jump\t// in\n    tag_178:\n      dup1\n      iszero\n      tag_179\n      jumpi\n      dup1\n      0x1f\n      lt\n      tag_180\n      jumpi\n      0x0100\n      dup1\n      dup4\n      sload\n      div\n      mul\n      dup4\n      mstore\n      swap2\n      0x20\n      add\n      swap2\n      jump(tag_179)\n    tag_180:\n      dup3\n      add\n      swap2\n      swap1\n      0x00\n      mstore\n      keccak256(0x00, 0x20)\n      swap1\n    tag_181:\n      dup2\n      sload\n      dup2\n      mstore\n      swap1\n      0x01\n      add\n      swap1\n      0x20\n      add\n      dup1\n      dup4\n      gt\n      tag_181\n      jumpi\n      dup3\n      swap1\n      sub\n      0x1f\n      and\n      dup3\n      add\n      swap2\n    tag_179:\n      pop\n      pop\n      pop\n      pop\n      pop\n      dup2\n      mstore\n      pop\n      pop\n      swap1\n      dup1\n      0x0e\n      add\n      mload(0x40)\n      dup1\n      0x60\n      add\n      0x40\n      mstore\n      swap1\n      dup2\n      0x00\n      dup3\n      add\n      dup1\n      sload\n      dup1\n      0x20\n      mul\n      0x20\n      add\n      mload(0x40)\n      swap1\n      dup2\n      add\n      0x40\n      mstore\n      dup1\n      swap3\n      swap2\n      swap1\n      dup2\n      dup2\n      mstore\n      0x20\n      add\n      0x00\n      swap1\n    tag_182:\n      dup3\n      dup3\n      lt\n      iszero\n      tag_183\n      jumpi\n      dup4\n      dup3\n      swap1\n      0x00\n      mstore\n      keccak256(0x00, 0x20)\n      add\n      dup1\n      sload\n      tag_185\n      swap1\n      tag_122\n      jump\t// in\n    tag_185:\n      dup1\n      0x1f\n      add\n      0x20\n      dup1\n      swap2\n      div\n      mul\n      0x20\n      add\n      mload(0x40)\n      swap1\n      dup2\n      add\n      0x40\n      mstore\n      dup1\n      swap3\n      swap2\n      swap1\n      dup2\n      dup2\n      mstore\n      0x20\n      add\n      dup3\n      dup1\n      sload\n      tag_186\n      swap1\n      tag_122\n      jump\t// in\n    tag_186:\n      dup1\n      iszero\n      tag_187\n      jumpi\n      dup1\n      0x1f\n      lt\n      tag_188\n      jumpi\n      0x0100\n      dup1\n      dup4\n      sload\n      div\n      mul\n      dup4\n      mstore\n      swap2\n      0x20\n      add\n      swap2\n      jump(tag_187)\n    tag_188:\n      dup3\n      add\n      swap2\n      swap1\n      0x00\n      mstore\n      keccak256(0x00, 0x20)\n      swap1\n    tag_189:\n      dup2\n      sload\n      dup2\n      mstore\n      swap1\n      0x01\n      add\n      swap1\n      0x20\n      add\n      dup1\n      dup4\n      gt\n      tag_189\n      jumpi\n      dup3\n      swap1\n      sub\n      0x1f\n      and\n      dup3\n      add\n      swap2\n    tag_187:\n      pop\n      pop\n      pop\n      pop\n      pop\n      dup2\n      mstore\n      0x20\n      add\n      swap1\n      0x01\n      add\n      swap1\n      jump(tag_182)\n    tag_183:\n      pop\n      pop\n      pop\n      pop\n      dup2\n      mstore\n      0x20\n      add\n      0x01\n      dup3\n      add\n      dup1\n      sload\n      dup1\n      0x20\n      mul\n      0x20\n      add\n      mload(0x40)\n      swap1\n      dup2\n      add\n      0x40\n      mstore\n      dup1\n      swap3\n      swap2\n      swap1\n      dup2\n      dup2\n      mstore\n      0x20\n      add\n      0x00\n      swap1\n    tag_190:\n      dup3\n      dup3\n      lt\n      iszero\n      tag_191\n      jumpi\n      dup4\n      dup3\n      swap1\n      0x00\n      mstore\n      keccak256(0x00, 0x20)\n      add\n      dup1\n      sload\n      tag_193\n      swap1\n      tag_122\n      jump\t// in\n    tag_193:\n      dup1\n      0x1f\n      add\n      0x20\n      dup1\n      swap2\n      div\n      mul\n      0x20\n      add\n      mload(0x40)\n      swap1\n      dup2\n      add\n      0x40\n      mstore\n      dup1\n      swap3\n      swap2\n      swap1\n      dup2\n      dup2\n      mstore\n      0x20\n      add\n      dup3\n      dup1\n      sload\n      tag_194\n      swap1\n      tag_122\n      jump\t// in\n    tag_194:\n      dup1\n      iszero\n      tag_195\n      jumpi\n      dup1\n      0x1f\n      lt\n      tag_196\n      jumpi\n      0x0100\n      dup1\n      dup4\n      sload\n      div\n      mul\n      dup4\n      mstore\n      swap2\n      0x20\n      add\n      swap2\n      jump(tag_195)\n    tag_196:\n      dup3\n      add\n      swap2\n      swap1\n      0x00\n      mstore\n      keccak256(0x00, 0x20)\n      swap1\n    tag_197:\n      dup2\n      sload\n      dup2\n      mstore\n      swap1\n      0x01\n      add\n      swap1\n      0x20\n      add\n      dup1\n      dup4\n      gt\n      tag_197\n      jumpi\n      dup3\n      swap1\n      sub\n      0x1f\n      and\n      dup3\n      add\n      swap2\n    tag_195:\n      pop\n      pop\n      pop\n      pop\n      pop\n      dup2\n      mstore\n      0x20\n      add\n      swap1\n      0x01\n      add\n      swap1\n      jump(tag_190)\n    tag_191:\n      pop\n      pop\n      pop\n      pop\n      dup2\n      mstore\n      0x20\n      add\n      0x02\n      dup3\n      add\n      dup1\n      sload\n      dup1\n      0x20\n      mul\n      0x20\n      add\n      mload(0x40)\n      swap1\n      dup2\n      add\n      0x40\n      mstore\n      dup1\n      swap3\n      swap2\n      swap1\n      dup2\n      dup2\n      mstore\n      0x20\n      add\n      0x00\n      swap1\n    tag_198:\n      dup3\n      dup3\n      lt\n      iszero\n      tag_199\n      jumpi\n      dup4\n      dup3\n      swap1\n      0x00\n      mstore\n      keccak256(0x00, 0x20)\n      add\n      dup1\n      sload\n      tag_201\n      swap1\n      tag_122\n      jump\t// in\n    tag_201:\n      dup1\n      0x1f\n      add\n      0x20\n      dup1\n      swap2\n      div\n      mul\n      0x20\n      add\n      mload(0x40)\n      swap1\n      dup2\n      add\n      0x40\n      mstore\n      dup1\n      swap3\n      swap2\n      swap1\n      dup2\n      dup2\n      mstore\n      0x20\n      add\n      dup3\n      dup1\n      sload\n      tag_202\n      swap1\n      tag_122\n      jump\t// in\n    tag_202:\n      dup1\n      iszero\n      tag_203\n      jumpi\n      dup1\n      0x1f\n      lt\n      tag_204\n      jumpi\n      0x0100\n      dup1\n      dup4\n      sload\n      div\n      mul\n      dup4\n      mstore\n      swap2\n      0x20\n      add\n      swap2\n      jump(tag_203)\n    tag_204:\n      dup3\n      add\n      swap2\n      swap1\n      0x00\n      mstore\n      keccak256(0x00, 0x20)\n      swap1\n    tag_205:\n      dup2\n      sload\n      dup2\n      mstore\n      swap1\n      0x01\n      add\n      swap1\n      0x20\n      add\n      dup1\n      dup4\n      gt\n      tag_205\n      jumpi\n      dup3\n      swap1\n      sub\n      0x1f\n      and\n      dup3\n      add\n      swap2\n    tag_203:\n      pop\n      pop\n      pop\n      pop\n      pop\n      dup2\n      mstore\n      0x20\n      add\n      swap1\n      0x01\n      add\n      swap1\n      jump(tag_198)\n    tag_199:\n      pop\n      pop\n      pop\n      pop\n      dup2\n      mstore\n      pop\n      pop\n      swap1\n      dup1\n      0x12\n      add\n      mload(0x40)\n      dup1\n      0x40\n      add\n      0x40\n      mstore\n      swap1\n      dup2\n      0x00\n      dup3\n      add\n      dup1\n      sload\n      dup1\n      0x20\n      mul\n      0x20\n      add\n      mload(0x40)\n      swap1\n      dup2\n      add\n      0x40\n      mstore\n      dup1\n      swap3\n      swap2\n      swap1\n      dup2\n      dup2\n      mstore\n      0x20\n      add\n      0x00\n      swap1\n    tag_206:\n      dup3\n      dup3\n      lt\n      iszero\n      tag_207\n      jumpi\n      dup4\n      dup3\n      swap1\n      0x00\n      mstore\n      keccak256(0x00, 0x20)\n      add\n      dup1\n      sload\n      tag_209\n      swap1\n      tag_122\n      jump\t// in\n    tag_209:\n      dup1\n      0x1f\n      add\n      0x20\n      dup1\n      swap2\n      div\n      mul\n      0x20\n      add\n      mload(0x40)\n      swap1\n      dup2\n      add\n      0x40\n      mstore\n      dup1\n      swap3\n      swap2\n      swap1\n      dup2\n      dup2\n      mstore\n      0x20\n      add\n      dup3\n      dup1\n      sload\n      tag_210\n      swap1\n      tag_122\n      jump\t// in\n    tag_210:\n      dup1\n      iszero\n      tag_211\n      jumpi\n      dup1\n      0x1f\n      lt\n      tag_212\n      jumpi\n      0x0100\n      dup1\n      dup4\n      sload\n      div\n      mul\n      dup4\n      mstore\n      swap2\n      0x20\n      add\n      swap2\n      jump(tag_211)\n    tag_212:\n      dup3\n      add\n      swap2\n      swap1\n      0x00\n      mstore\n      keccak256(0x00, 0x20)\n      swap1\n    tag_213:\n      dup2\n      sload\n      dup2\n      mstore\n      swap1\n      0x01\n      add\n      swap1\n      0x20\n      add\n      dup1\n      dup4\n      gt\n      tag_213\n      jumpi\n      dup3\n      swap1\n      sub\n      0x1f\n      and\n      dup3\n      add\n      swap2\n    tag_211:\n      pop\n      pop\n      pop\n      pop\n      pop\n      dup2\n      mstore\n      0x20\n      add\n      swap1\n      0x01\n      add\n      swap1\n      jump(tag_206)\n    tag_207:\n      pop\n      pop\n      pop\n      pop\n      dup2\n      mstore\n      0x20\n      add\n      0x01\n      dup3\n      add\n      dup1\n      sload\n      dup1\n      0x20\n      mul\n      0x20\n      add\n      mload(0x40)\n      swap1\n      dup2\n      add\n      0x40\n      mstore\n      dup1\n      swap3\n      swap2\n      swap1\n      dup2\n      dup2\n      mstore\n      0x20\n      add\n      0x00\n      swap1\n    tag_214:\n      dup3\n      dup3\n      lt\n      iszero\n      tag_215\n      jumpi\n      dup4\n      dup3\n      swap1\n      0x00\n      mstore\n      keccak256(0x00, 0x20)\n      add\n      dup1\n      sload\n      tag_217\n      swap1\n      tag_122\n      jump\t// in\n    tag_217:\n      dup1\n      0x1f\n      add\n      0x20\n      dup1\n      swap2\n      div\n      mul\n      0x20\n      add\n      mload(0x40)\n      swap1\n      dup2\n      add\n      0x40\n      mstore\n      dup1\n      swap3\n      swap2\n      swap1\n      dup2\n      dup2\n      mstore\n      0x20\n      add\n      dup3\n      dup1\n      sload\n      tag_218\n      swap1\n      tag_122\n      jump\t// in\n    tag_218:\n      dup1\n      iszero\n      tag_219\n      jumpi\n      dup1\n      0x1f\n      lt\n      tag_220\n      jumpi\n      0x0100\n      dup1\n      dup4\n      sload\n      div\n      mul\n      dup4\n      mstore\n      swap2\n      0x20\n      add\n      swap2\n      jump(tag_219)\n    tag_220:\n      dup3\n      add\n      swap2\n      swap1\n      0x00\n      mstore\n      keccak256(0x00, 0x20)\n      swap1\n    tag_221:\n      dup2\n      sload\n      dup2\n      mstore\n      swap1\n      0x01\n      add\n      swap1\n      0x20\n      add\n      dup1\n      dup4\n      gt\n      tag_221\n      jumpi\n      dup3\n      swap1\n      sub\n      0x1f\n      and\n      dup3\n      add\n      swap2\n    tag_219:\n      pop\n      pop\n      pop\n      pop\n      pop\n      dup2\n      mstore\n      0x20\n      add\n      swap1\n      0x01\n      add\n      swap1\n      jump(tag_214)\n    tag_215:\n      pop\n      pop\n      pop\n      pop\n      dup2\n      mstore\n      pop\n      pop\n      swap1\n      dup1\n      0x14\n      add\n      mload(0x40)\n      dup1\n      0xa0\n      add\n      0x40\n      mstore\n      swap1\n      dup2\n      0x00\n      dup3\n      add\n      dup1\n      sload\n      tag_222\n      swap1\n      tag_122\n      jump\t// in\n    tag_222:\n      dup1\n      0x1f\n      add\n      0x20\n      dup1\n      swap2\n      div\n      mul\n      0x20\n      add\n      mload(0x40)\n      swap1\n      dup2\n      add\n      0x40\n      mstore\n      dup1\n      swap3\n      swap2\n      swap1\n      dup2\n      dup2\n      mstore\n      0x20\n      add\n      dup3\n      dup1\n      sload\n      tag_223\n      swap1\n      tag_122\n      jump\t// in\n    tag_223:\n      dup1\n      iszero\n      tag_224\n      jumpi\n      dup1\n      0x1f\n      lt\n      tag_225\n      jumpi\n      0x0100\n      dup1\n      dup4\n      sload\n      div\n      mul\n      dup4\n      mstore\n      swap2\n      0x20\n      add\n      swap2\n      jump(tag_224)\n    tag_225:\n      dup3\n      add\n      swap2\n      swap1\n      0x00\n      mstore\n      keccak256(0x00, 0x20)\n      swap1\n    tag_226:\n      dup2\n      sload\n      dup2\n      mstore\n      swap1\n      0x01\n      add\n      swap1\n      0x20\n      add\n      dup1\n      dup4\n      gt\n      tag_226\n      jumpi\n      dup3\n      swap1\n      sub\n      0x1f\n      and\n      dup3\n      add\n      swap2\n    tag_224:\n      pop\n      pop\n      pop\n      pop\n      pop\n      dup2\n      mstore\n      0x20\n      add\n      0x01\n      dup3\n      add\n      dup1\n      sload\n      tag_227\n      swap1\n      tag_122\n      jump\t// in\n    tag_227:\n      dup1\n      0x1f\n      add\n      0x20\n      dup1\n      swap2\n      div\n      mul\n      0x20\n      add\n      mload(0x40)\n      swap1\n      dup2\n      add\n      0x40\n      mstore\n      dup1\n      swap3\n      swap2\n      swap1\n      dup2\n      dup2\n      mstore\n      0x20\n      add\n      dup3\n      dup1\n      sload\n      tag_228\n      swap1\n      tag_122\n      jump\t// in\n    tag_228:\n      dup1\n      iszero\n      tag_229\n      jumpi\n      dup1\n      0x1f\n      lt\n      tag_230\n      jumpi\n      0x0100\n      dup1\n      dup4\n      sload\n      div\n      mul\n      dup4\n      mstore\n      swap2\n      0x20\n      add\n      swap2\n      jump(tag_229)\n    tag_230:\n      dup3\n      add\n      swap2\n      swap1\n      0x00\n      mstore\n      keccak256(0x00, 0x20)\n      swap1\n    tag_231:\n      dup2\n      sload\n      dup2\n      mstore\n      swap1\n      0x01\n      add\n      swap1\n      0x20\n      add\n      dup1\n      dup4\n      gt\n      tag_231\n      jumpi\n      dup3\n      swap1\n      sub\n      0x1f\n      and\n      dup3\n      add\n      swap2\n    tag_229:\n      pop\n      pop\n      pop\n      pop\n      pop\n      dup2\n      mstore\n      0x20\n      add\n      0x02\n      dup3\n      add\n      dup1\n      sload\n      tag_232\n      swap1\n      tag_122\n      jump\t// in\n    tag_232:\n      dup1\n      0x1f\n      add\n      0x20\n      dup1\n      swap2\n      div\n      mul\n      0x20\n      add\n      mload(0x40)\n      swap1\n      dup2\n      add\n      0x40\n      mstore\n      dup1\n      swap3\n      swap2\n      swap1\n      dup2\n      dup2\n      mstore\n      0x20\n      add\n      dup3\n      dup1\n      sload\n      tag_233\n      swap1\n      tag_122\n      jump\t// in\n    tag_233:\n      dup1\n      iszero\n      tag_234\n      jumpi\n      dup1\n      0x1f\n      lt\n      tag_235\n      jumpi\n      0x0100\n      dup1\n      dup4\n      sload\n      div\n      mul\n      dup4\n      mstore\n      swap2\n      0x20\n      add\n      swap2\n      jump(tag_234)\n    tag_235:\n      dup3\n      add\n      swap2\n      swap1\n      0x00\n      mstore\n      keccak256(0x00, 0x20)\n      swap1\n    tag_236:\n      dup2\n      sload\n      dup2\n      mstore\n      swap1\n      0x01\n      add\n      swap1\n      0x20\n      add\n      dup1\n      dup4\n      gt\n      tag_236\n      jumpi\n      dup3\n      swap1\n      sub\n      0x1f\n      and\n      dup3\n      add\n      swap2\n    tag_234:\n      pop\n      pop\n      pop\n      pop\n      pop\n      dup2\n      mstore\n      0x20\n      add\n      0x03\n      dup3\n      add\n      dup1\n      sload\n      tag_237\n      swap1\n      tag_122\n      jump\t// in\n    tag_237:\n      dup1\n      0x1f\n      add\n      0x20\n      dup1\n      swap2\n      div\n      mul\n      0x20\n      add\n      mload(0x40)\n      swap1\n      dup2\n      add\n      0x40\n      mstore\n      dup1\n      swap3\n      swap2\n      swap1\n      dup2\n      dup2\n      mstore\n      0x20\n      add\n      dup3\n      dup1\n      sload\n      tag_238\n      swap1\n      tag_122\n      jump\t// in\n    tag_238:\n      dup1\n      iszero\n      tag_239\n      jumpi\n      dup1\n      0x1f\n      lt\n      tag_240\n      jumpi\n      0x0100\n      dup1\n      dup4\n      sload\n      div\n      mul\n      dup4\n      mstore\n      swap2\n      0x20\n      add\n      swap2\n      jump(tag_239)\n    tag_240:\n      dup3\n      add\n      swap2\n      swap1\n      0x00\n      mstore\n      keccak256(0x00, 0x20)\n      swap1\n    tag_241:\n      dup2\n      sload\n      dup2\n      mstore\n      swap1\n      0x01\n      add\n      swap1\n      0x20\n      add\n      dup1\n      dup4\n      gt\n      tag_241\n      jumpi\n      dup3\n      swap1\n      sub\n      0x1f\n      and\n      dup3\n      add\n      swap2\n    tag_239:\n      pop\n      pop\n      pop\n      pop\n      pop\n      dup2\n      mstore\n      0x20\n      add\n      0x04\n      dup3\n      add\n      dup1\n      sload\n      dup1\n      0x20\n      mul\n      0x20\n      add\n      mload(0x40)\n      swap1\n      dup2\n      add\n      0x40\n      mstore\n      dup1\n      swap3\n      swap2\n      swap1\n      dup2\n      dup2\n      mstore\n      0x20\n      add\n      0x00\n      swap1\n    tag_242:\n      dup3\n      dup3\n      lt\n      iszero\n      tag_243\n      jumpi\n      dup4\n      dup3\n      swap1\n      0x00\n      mstore\n      keccak256(0x00, 0x20)\n      add\n      dup1\n      sload\n      tag_245\n      swap1\n      tag_122\n      jump\t// in\n    tag_245:\n      dup1\n      0x1f\n      add\n      0x20\n      dup1\n      swap2\n      div\n      mul\n      0x20\n      add\n      mload(0x40)\n      swap1\n      dup2\n      add\n      0x40\n      mstore\n      dup1\n      swap3\n      swap2\n      swap1\n      dup2\n      dup2\n      mstore\n      0x20\n      add\n      dup3\n      dup1\n      sload\n      tag_246\n      swap1\n      tag_122\n      jump\t// in\n    tag_246:\n      dup1\n      iszero\n      tag_247\n      jumpi\n      dup1\n      0x1f\n      lt\n      tag_248\n      jumpi\n      0x0100\n      dup1\n      dup4\n      sload\n      div\n      mul\n      dup4\n      mstore\n      swap2\n      0x20\n      add\n      swap2\n      jump(tag_247)\n    tag_248:\n      dup3\n      add\n      swap2\n      swap1\n      0x00\n      mstore\n      keccak256(0x00, 0x20)\n      swap1\n    tag_249:\n      dup2\n      sload\n      dup2\n      mstore\n      swap1\n      0x01\n      add\n      swap1\n      0x20\n      add\n      dup1\n      dup4\n      gt\n      tag_249\n      jumpi\n      dup3\n      swap1\n      sub\n      0x1f\n      and\n      dup3\n      add\n      swap2\n    tag_247:\n      pop\n      pop\n      pop\n      pop\n      pop\n      dup2\n      mstore\n      0x20\n      add\n      swap1\n      0x01\n      add\n      swap1\n      jump(tag_242)\n    tag_243:\n      pop\n      pop\n      pop\n      pop\n      dup2\n      mstore\n      pop\n      pop\n      swap1\n      dup1\n      0x19\n      add\n      mload(0x40)\n      dup1\n      0x40\n      add\n      0x40\n      mstore\n      swap1\n      dup2\n      0x00\n      dup3\n      add\n      dup1\n      sload\n      tag_250\n      swap1\n      tag_122\n      jump\t// in\n    tag_250:\n      dup1\n      0x1f\n      add\n      0x20\n      dup1\n      swap2\n      div\n      mul\n      0x20\n      add\n      mload(0x40)\n      swap1\n      dup2\n      add\n      0x40\n      mstore\n      dup1\n      swap3\n      swap2\n      swap1\n      dup2\n      dup2\n      mstore\n      0x20\n      add\n      dup3\n      dup1\n      sload\n      tag_251\n      swap1\n      tag_122\n      jump\t// in\n    tag_251:\n      dup1\n      iszero\n      tag_252\n      jumpi\n      dup1\n      0x1f\n      lt\n      tag_253\n      jumpi\n      0x0100\n      dup1\n      dup4\n      sload\n      div\n      mul\n      dup4\n      mstore\n      swap2\n      0x20\n      add\n      swap2\n      jump(tag_252)\n    tag_253:\n      dup3\n      add\n      swap2\n      swap1\n      0x00\n      mstore\n      keccak256(0x00, 0x20)\n      swap1\n    tag_254:\n      dup2\n      sload\n      dup2\n      mstore\n      swap1\n      0x01\n      add\n      swap1\n      0x20\n      add\n      dup1\n      dup4\n      gt\n      tag_254\n      jumpi\n      dup3\n      swap1\n      sub\n      0x1f\n      and\n      dup3\n      add\n      swap2\n    tag_252:\n      pop\n      pop\n      pop\n      pop\n      pop\n      dup2\n      mstore\n      0x20\n      add\n      0x01\n      dup3\n      add\n      dup1\n      sload\n      tag_255\n      swap1\n      tag_122\n      jump\t// in\n    tag_255:\n      dup1\n      0x1f\n      add\n      0x20\n      dup1\n      swap2\n      div\n      mul\n      0x20\n      add\n      mload(0x40)\n      swap1\n      dup2\n      add\n      0x40\n      mstore\n      dup1\n      swap3\n      swap2\n      swap1\n      dup2\n      dup2\n      mstore\n      0x20\n      add\n      dup3\n      dup1\n      sload\n      tag_256\n      swap1\n      tag_122\n      jump\t// in\n    tag_256:\n      dup1\n      iszero\n      tag_257\n      jumpi\n      dup1\n      0x1f\n      lt\n      tag_258\n      jumpi\n      0x0100\n      dup1\n      dup4\n      sload\n      div\n      mul\n      dup4\n      mstore\n      swap2\n      0x20\n      add\n      swap2\n      jump(tag_257)\n    tag_258:\n      dup3\n      add\n      swap2\n      swap1\n      0x00\n      mstore\n      keccak256(0x00, 0x20)\n      swap1\n    tag_259:\n      dup2\n      sload\n      dup2\n      mstore\n      swap1\n      0x01\n      add\n      swap1\n      0x20\n      add\n      dup1\n      dup4\n      gt\n      tag_259\n      jumpi\n      dup3\n      swap1\n      sub\n      0x1f\n      and\n      dup3\n      add\n      swap2\n    tag_257:\n      pop\n      pop\n      pop\n      pop\n      pop\n      dup2\n      mstore\n      pop\n      pop\n      swap1\n      pop\n      dup7\n      jump\t// out\n        /* \"contracts/Profile.sol\":4910:5002  function delAllEducation() external  {\r... */\n    tag_56:\n        /* \"contracts/Profile.sol\":4965:4972  profile */\n      0x00\n        /* \"contracts/Profile.sol\":4965:4984  profile[msg.sender] */\n      dup1\n        /* \"contracts/Profile.sol\":4973:4983  msg.sender */\n      caller\n        /* \"contracts/Profile.sol\":4965:4984  profile[msg.sender] */\n      0xffffffffffffffffffffffffffffffffffffffff\n      and\n      0xffffffffffffffffffffffffffffffffffffffff\n      and\n      dup2\n      mstore\n      0x20\n      add\n      swap1\n      dup2\n      mstore\n      0x20\n      add\n      0x00\n      keccak256\n        /* \"contracts/Profile.sol\":4965:4994  profile[msg.sender].education */\n      0x11\n      add\n      0x00\n        /* \"contracts/Profile.sol\":4958:4994  delete profile[msg.sender].education */\n      tag_261\n      swap2\n      swap1\n      tag_262\n      jump\t// in\n    tag_261:\n        /* \"contracts/Profile.sol\":4910:5002  function delAllEducation() external  {\r... */\n      jump\t// out\n        /* \"contracts/Profile.sol\":3885:4278  function getEducation(uint index) public view returns(string memory, string memory, string memory, string memory, string memory) {\r... */\n    tag_60:\n        /* \"contracts/Profile.sol\":3939:3952  string memory */\n      0x60\n        /* \"contracts/Profile.sol\":3954:3967  string memory */\n      dup1\n        /* \"contracts/Profile.sol\":3969:3982  string memory */\n      0x60\n        /* \"contracts/Profile.sol\":3984:3997  string memory */\n      dup1\n        /* \"contracts/Profile.sol\":3999:4012  string memory */\n      0x60\n        /* \"contracts/Profile.sol\":4033:4040  profile */\n      0x00\n        /* \"contracts/Profile.sol\":4033:4052  profile[msg.sender] */\n      dup1\n        /* \"contracts/Profile.sol\":4041:4051  msg.sender */\n      caller\n        /* \"contracts/Profile.sol\":4033:4052  profile[msg.sender] */\n      0xffffffffffffffffffffffffffffffffffffffff\n      and\n      0xffffffffffffffffffffffffffffffffffffffff\n      and\n      dup2\n      mstore\n      0x20\n      add\n      swap1\n      dup2\n      mstore\n      0x20\n      add\n      0x00\n      keccak256\n        /* \"contracts/Profile.sol\":4033:4062  profile[msg.sender].education */\n      0x11\n      add\n        /* \"contracts/Profile.sol\":4063:4068  index */\n      dup7\n        /* \"contracts/Profile.sol\":4033:4069  profile[msg.sender].education[index] */\n      dup2\n      sload\n      dup2\n      lt\n      tag_264\n      jumpi\n      tag_265\n      tag_266\n      jump\t// in\n    tag_265:\n    tag_264:\n      swap1\n      0x00\n      mstore\n      keccak256(0x00, 0x20)\n      swap1\n      0x05\n      mul\n      add\n        /* \"contracts/Profile.sol\":4033:4079  profile[msg.sender].education[index].startDate */\n      0x00\n      add\n        /* \"contracts/Profile.sol\":4081:4088  profile */\n      0x00\n        /* \"contracts/Profile.sol\":4081:4100  profile[msg.sender] */\n      dup1\n        /* \"contracts/Profile.sol\":4089:4099  msg.sender */\n      caller\n        /* \"contracts/Profile.sol\":4081:4100  profile[msg.sender] */\n      0xffffffffffffffffffffffffffffffffffffffff\n      and\n      0xffffffffffffffffffffffffffffffffffffffff\n      and\n      dup2\n      mstore\n      0x20\n      add\n      swap1\n      dup2\n      mstore\n      0x20\n      add\n      0x00\n      keccak256\n        /* \"contracts/Profile.sol\":4081:4110  profile[msg.sender].education */\n      0x11\n      add\n        /* \"contracts/Profile.sol\":4111:4116  index */\n      dup8\n        /* \"contracts/Profile.sol\":4081:4117  profile[msg.sender].education[index] */\n      dup2\n      sload\n      dup2\n      lt\n      tag_268\n      jumpi\n      tag_269\n      tag_266\n      jump\t// in\n    tag_269:\n    tag_268:\n      swap1\n      0x00\n      mstore\n      keccak256(0x00, 0x20)\n      swap1\n      0x05\n      mul\n      add\n        /* \"contracts/Profile.sol\":4081:4125  profile[msg.sender].education[index].endDate */\n      0x01\n      add\n        /* \"contracts/Profile.sol\":4127:4134  profile */\n      0x00\n        /* \"contracts/Profile.sol\":4127:4146  profile[msg.sender] */\n      dup1\n        /* \"contracts/Profile.sol\":4135:4145  msg.sender */\n      caller\n        /* \"contracts/Profile.sol\":4127:4146  profile[msg.sender] */\n      0xffffffffffffffffffffffffffffffffffffffff\n      and\n      0xffffffffffffffffffffffffffffffffffffffff\n      and\n      dup2\n      mstore\n      0x20\n      add\n      swap1\n      dup2\n      mstore\n      0x20\n      add\n      0x00\n      keccak256\n        /* \"contracts/Profile.sol\":4127:4156  profile[msg.sender].education */\n      0x11\n      add\n        /* \"contracts/Profile.sol\":4157:4162  index */\n      dup9\n        /* \"contracts/Profile.sol\":4127:4163  profile[msg.sender].education[index] */\n      dup2\n      sload\n      dup2\n      lt\n      tag_271\n      jumpi\n      tag_272\n      tag_266\n      jump\t// in\n    tag_272:\n    tag_271:\n      swap1\n      0x00\n      mstore\n      keccak256(0x00, 0x20)\n      swap1\n      0x05\n      mul\n      add\n        /* \"contracts/Profile.sol\":4127:4174  profile[msg.sender].education[index].univercity */\n      0x02\n      add\n        /* \"contracts/Profile.sol\":4176:4183  profile */\n      0x00\n        /* \"contracts/Profile.sol\":4176:4195  profile[msg.sender] */\n      dup1\n        /* \"contracts/Profile.sol\":4184:4194  msg.sender */\n      caller\n        /* \"contracts/Profile.sol\":4176:4195  profile[msg.sender] */\n      0xffffffffffffffffffffffffffffffffffffffff\n      and\n      0xffffffffffffffffffffffffffffffffffffffff\n      and\n      dup2\n      mstore\n      0x20\n      add\n      swap1\n      dup2\n      mstore\n      0x20\n      add\n      0x00\n      keccak256\n        /* \"contracts/Profile.sol\":4176:4205  profile[msg.sender].education */\n      0x11\n      add\n        /* \"contracts/Profile.sol\":4206:4211  index */\n      dup10\n        /* \"contracts/Profile.sol\":4176:4212  profile[msg.sender].education[index] */\n      dup2\n      sload\n      dup2\n      lt\n      tag_274\n      jumpi\n      tag_275\n      tag_266\n      jump\t// in\n    tag_275:\n    tag_274:\n      swap1\n      0x00\n      mstore\n      keccak256(0x00, 0x20)\n      swap1\n      0x05\n      mul\n      add\n        /* \"contracts/Profile.sol\":4176:4218  profile[msg.sender].education[index].major */\n      0x03\n      add\n        /* \"contracts/Profile.sol\":4220:4227  profile */\n      0x00\n        /* \"contracts/Profile.sol\":4220:4239  profile[msg.sender] */\n      dup1\n        /* \"contracts/Profile.sol\":4228:4238  msg.sender */\n      caller\n        /* \"contracts/Profile.sol\":4220:4239  profile[msg.sender] */\n      0xffffffffffffffffffffffffffffffffffffffff\n      and\n      0xffffffffffffffffffffffffffffffffffffffff\n      and\n      dup2\n      mstore\n      0x20\n      add\n      swap1\n      dup2\n      mstore\n      0x20\n      add\n      0x00\n      keccak256\n        /* \"contracts/Profile.sol\":4220:4249  profile[msg.sender].education */\n      0x11\n      add\n        /* \"contracts/Profile.sol\":4250:4255  index */\n      dup11\n        /* \"contracts/Profile.sol\":4220:4256  profile[msg.sender].education[index] */\n      dup2\n      sload\n      dup2\n      lt\n      tag_277\n      jumpi\n      tag_278\n      tag_266\n      jump\t// in\n    tag_278:\n    tag_277:\n      swap1\n      0x00\n      mstore\n      keccak256(0x00, 0x20)\n      swap1\n      0x05\n      mul\n      add\n        /* \"contracts/Profile.sol\":4220:4269  profile[msg.sender].education[index].finalProject */\n      0x04\n      add\n        /* \"contracts/Profile.sol\":4025:4270  return (profile[msg.sender].education[index].startDate, profile[msg.sender].education[index].endDate, profile[msg.sender].education[index].univercity, profile[msg.sender].education[index].major, profile[msg.sender].education[index].finalProject) */\n      dup5\n      dup1\n      sload\n      tag_280\n      swap1\n      tag_122\n      jump\t// in\n    tag_280:\n      dup1\n      0x1f\n      add\n      0x20\n      dup1\n      swap2\n      div\n      mul\n      0x20\n      add\n      mload(0x40)\n      swap1\n      dup2\n      add\n      0x40\n      mstore\n      dup1\n      swap3\n      swap2\n      swap1\n      dup2\n      dup2\n      mstore\n      0x20\n      add\n      dup3\n      dup1\n      sload\n      tag_281\n      swap1\n      tag_122\n      jump\t// in\n    tag_281:\n      dup1\n      iszero\n      tag_282\n      jumpi\n      dup1\n      0x1f\n      lt\n      tag_283\n      jumpi\n      0x0100\n      dup1\n      dup4\n      sload\n      div\n      mul\n      dup4\n      mstore\n      swap2\n      0x20\n      add\n      swap2\n      jump(tag_282)\n    tag_283:\n      dup3\n      add\n      swap2\n      swap1\n      0x00\n      mstore\n      keccak256(0x00, 0x20)\n      swap1\n    tag_284:\n      dup2\n      sload\n      dup2\n      mstore\n      swap1\n      0x01\n      add\n      swap1\n      0x20\n      add\n      dup1\n      dup4\n      gt\n      tag_284\n      jumpi\n      dup3\n      swap1\n      sub\n      0x1f\n      and\n      dup3\n      add\n      swap2\n    tag_282:\n      pop\n      pop\n      pop\n      pop\n      pop\n      swap5\n      pop\n      dup4\n      dup1\n      sload\n      tag_285\n      swap1\n      tag_122\n      jump\t// in\n    tag_285:\n      dup1\n      0x1f\n      add\n      0x20\n      dup1\n      swap2\n      div\n      mul\n      0x20\n      add\n      mload(0x40)\n      swap1\n      dup2\n      add\n      0x40\n      mstore\n      dup1\n      swap3\n      swap2\n      swap1\n      dup2\n      dup2\n      mstore\n      0x20\n      add\n      dup3\n      dup1\n      sload\n      tag_286\n      swap1\n      tag_122\n      jump\t// in\n    tag_286:\n      dup1\n      iszero\n      tag_287\n      jumpi\n      dup1\n      0x1f\n      lt\n      tag_288\n      jumpi\n      0x0100\n      dup1\n      dup4\n      sload\n      div\n      mul\n      dup4\n      mstore\n      swap2\n      0x20\n      add\n      swap2\n      jump(tag_287)\n    tag_288:\n      dup3\n      add\n      swap2\n      swap1\n      0x00\n      mstore\n      keccak256(0x00, 0x20)\n      swap1\n    tag_289:\n      dup2\n      sload\n      dup2\n      mstore\n      swap1\n      0x01\n      add\n      swap1\n      0x20\n      add\n      dup1\n      dup4\n      gt\n      tag_289\n      jumpi\n      dup3\n      swap1\n      sub\n      0x1f\n      and\n      dup3\n      add\n      swap2\n    tag_287:\n      pop\n      pop\n      pop\n      pop\n      pop\n      swap4\n      pop\n      dup3\n      dup1\n      sload\n      tag_290\n      swap1\n      tag_122\n      jump\t// in\n    tag_290:\n      dup1\n      0x1f\n      add\n      0x20\n      dup1\n      swap2\n      div\n      mul\n      0x20\n      add\n      mload(0x40)\n      swap1\n      dup2\n      add\n      0x40\n      mstore\n      dup1\n      swap3\n      swap2\n      swap1\n      dup2\n      dup2\n      mstore\n      0x20\n      add\n      dup3\n      dup1\n      sload\n      tag_291\n      swap1\n      tag_122\n      jump\t// in\n    tag_291:\n      dup1\n      iszero\n      tag_292\n      jumpi\n      dup1\n      0x1f\n      lt\n      tag_293\n      jumpi\n      0x0100\n      dup1\n      dup4\n      sload\n      div\n      mul\n      dup4\n      mstore\n      swap2\n      0x20\n      add\n      swap2\n      jump(tag_292)\n    tag_293:\n      dup3\n      add\n      swap2\n      swap1\n      0x00\n      mstore\n      keccak256(0x00, 0x20)\n      swap1\n    tag_294:\n      dup2\n      sload\n      dup2\n      mstore\n      swap1\n      0x01\n      add\n      swap1\n      0x20\n      add\n      dup1\n      dup4\n      gt\n      tag_294\n      jumpi\n      dup3\n      swap1\n      sub\n      0x1f\n      and\n      dup3\n      add\n      swap2\n    tag_292:\n      pop\n      pop\n      pop\n      pop\n      pop\n      swap3\n      pop\n      dup2\n      dup1\n      sload\n      tag_295\n      swap1\n      tag_122\n      jump\t// in\n    tag_295:\n      dup1\n      0x1f\n      add\n      0x20\n      dup1\n      swap2\n      div\n      mul\n      0x20\n      add\n      mload(0x40)\n      swap1\n      dup2\n      add\n      0x40\n      mstore\n      dup1\n      swap3\n      swap2\n      swap1\n      dup2\n      dup2\n      mstore\n      0x20\n      add\n      dup3\n      dup1\n      sload\n      tag_296\n      swap1\n      tag_122\n      jump\t// in\n    tag_296:\n      dup1\n      iszero\n      tag_297\n      jumpi\n      dup1\n      0x1f\n      lt\n      tag_298\n      jumpi\n      0x0100\n      dup1\n      dup4\n      sload\n      div\n      mul\n      dup4\n      mstore\n      swap2\n      0x20\n      add\n      swap2\n      jump(tag_297)\n    tag_298:\n      dup3\n      add\n      swap2\n      swap1\n      0x00\n      mstore\n      keccak256(0x00, 0x20)\n      swap1\n    tag_299:\n      dup2\n      sload\n      dup2\n      mstore\n      swap1\n      0x01\n      add\n      swap1\n      0x20\n      add\n      dup1\n      dup4\n      gt\n      tag_299\n      jumpi\n      dup3\n      swap1\n      sub\n      0x1f\n      and\n      dup3\n      add\n      swap2\n    tag_297:\n      pop\n      pop\n      pop\n      pop\n      pop\n      swap2\n      pop\n      dup1\n      dup1\n      sload\n      tag_300\n      swap1\n      tag_122\n      jump\t// in\n    tag_300:\n      dup1\n      0x1f\n      add\n      0x20\n      dup1\n      swap2\n      div\n      mul\n      0x20\n      add\n      mload(0x40)\n      swap1\n      dup2\n      add\n      0x40\n      mstore\n      dup1\n      swap3\n      swap2\n      swap1\n      dup2\n      dup2\n      mstore\n      0x20\n      add\n      dup3\n      dup1\n      sload\n      tag_301\n      swap1\n      tag_122\n      jump\t// in\n    tag_301:\n      dup1\n      iszero\n      tag_302\n      jumpi\n      dup1\n      0x1f\n      lt\n      tag_303\n      jumpi\n      0x0100\n      dup1\n      dup4\n      sload\n      div\n      mul\n      dup4\n      mstore\n      swap2\n      0x20\n      add\n      swap2\n      jump(tag_302)\n    tag_303:\n      dup3\n      add\n      swap2\n      swap1\n      0x00\n      mstore\n      keccak256(0x00, 0x20)\n      swap1\n    tag_304:\n      dup2\n      sload\n      dup2\n      mstore\n      swap1\n      0x01\n      add\n      swap1\n      0x20\n      add\n      dup1\n      dup4\n      gt\n      tag_304\n      jumpi\n      dup3\n      swap1\n      sub\n      0x1f\n      and\n      dup3\n      add\n      swap2\n    tag_302:\n      pop\n      pop\n      pop\n      pop\n      pop\n      swap1\n      pop\n      swap5\n      pop\n      swap5\n      pop\n      swap5\n      pop\n      swap5\n      pop\n      swap5\n      pop\n        /* \"contracts/Profile.sol\":3885:4278  function getEducation(uint index) public view returns(string memory, string memory, string memory, string memory, string memory) {\r... */\n      swap2\n      swap4\n      swap6\n      swap1\n      swap3\n      swap5\n      pop\n      jump\t// out\n        /* \"contracts/Profile.sol\":5110:5186  function delProfile() external {\r... */\n    tag_64:\n        /* \"contracts/Profile.sol\":5159:5166  profile */\n      0x00\n        /* \"contracts/Profile.sol\":5159:5178  profile[msg.sender] */\n      dup1\n        /* \"contracts/Profile.sol\":5167:5177  msg.sender */\n      caller\n        /* \"contracts/Profile.sol\":5159:5178  profile[msg.sender] */\n      0xffffffffffffffffffffffffffffffffffffffff\n      and\n      0xffffffffffffffffffffffffffffffffffffffff\n      and\n      dup2\n      mstore\n      0x20\n      add\n      swap1\n      dup2\n      mstore\n      0x20\n      add\n      0x00\n      keccak256\n      0x00\n        /* \"contracts/Profile.sol\":5152:5178  delete profile[msg.sender] */\n      dup1\n      dup3\n      add\n      0x00\n      dup1\n      dup3\n      add\n      0x00\n      tag_306\n      swap2\n      swap1\n      tag_96\n      jump\t// in\n    tag_306:\n      0x01\n      dup3\n      add\n      0x00\n      tag_307\n      swap2\n      swap1\n      tag_96\n      jump\t// in\n    tag_307:\n      0x02\n      dup3\n      add\n      exp(0x0100, 0x00)\n      dup2\n      sload\n      swap1\n      0xffffffffffffffffffffffffffffffffffffffff\n      mul\n      not\n      and\n      swap1\n      sstore\n      0x03\n      dup3\n      add\n      0x00\n      tag_308\n      swap2\n      swap1\n      tag_96\n      jump\t// in\n    tag_308:\n      0x04\n      dup3\n      add\n      0x00\n      tag_309\n      swap2\n      swap1\n      tag_96\n      jump\t// in\n    tag_309:\n      0x05\n      dup3\n      add\n      0x00\n      tag_310\n      swap2\n      swap1\n      tag_96\n      jump\t// in\n    tag_310:\n      0x06\n      dup3\n      add\n      0x00\n      tag_311\n      swap2\n      swap1\n      tag_96\n      jump\t// in\n    tag_311:\n      0x07\n      dup3\n      add\n      0x00\n      swap1\n      sstore\n      pop\n      pop\n      0x08\n      dup3\n      add\n      0x00\n      dup1\n      dup3\n      add\n      0x00\n      tag_312\n      swap2\n      swap1\n      tag_96\n      jump\t// in\n    tag_312:\n      0x01\n      dup3\n      add\n      0x00\n      tag_313\n      swap2\n      swap1\n      tag_96\n      jump\t// in\n    tag_313:\n      0x02\n      dup3\n      add\n      0x00\n      tag_314\n      swap2\n      swap1\n      tag_96\n      jump\t// in\n    tag_314:\n      0x03\n      dup3\n      add\n      0x00\n      tag_315\n      swap2\n      swap1\n      tag_96\n      jump\t// in\n    tag_315:\n      0x04\n      dup3\n      add\n      0x00\n      tag_316\n      swap2\n      swap1\n      tag_96\n      jump\t// in\n    tag_316:\n      0x05\n      dup3\n      add\n      0x00\n      tag_317\n      swap2\n      swap1\n      tag_96\n      jump\t// in\n    tag_317:\n      pop\n      pop\n      0x0e\n      dup3\n      add\n      0x00\n      dup1\n      dup3\n      add\n      0x00\n      tag_318\n      swap2\n      swap1\n      tag_71\n      jump\t// in\n    tag_318:\n      0x01\n      dup3\n      add\n      0x00\n      tag_319\n      swap2\n      swap1\n      tag_71\n      jump\t// in\n    tag_319:\n      0x02\n      dup3\n      add\n      0x00\n      tag_320\n      swap2\n      swap1\n      tag_71\n      jump\t// in\n    tag_320:\n      pop\n      pop\n      0x11\n      dup3\n      add\n      0x00\n      tag_321\n      swap2\n      swap1\n      tag_262\n      jump\t// in\n    tag_321:\n      0x12\n      dup3\n      add\n      0x00\n      dup1\n      dup3\n      add\n      0x00\n      tag_322\n      swap2\n      swap1\n      tag_71\n      jump\t// in\n    tag_322:\n      0x01\n      dup3\n      add\n      0x00\n      tag_323\n      swap2\n      swap1\n      tag_71\n      jump\t// in\n    tag_323:\n      pop\n      pop\n      0x14\n      dup3\n      add\n      0x00\n      dup1\n      dup3\n      add\n      0x00\n      tag_324\n      swap2\n      swap1\n      tag_96\n      jump\t// in\n    tag_324:\n      0x01\n      dup3\n      add\n      0x00\n      tag_325\n      swap2\n      swap1\n      tag_96\n      jump\t// in\n    tag_325:\n      0x02\n      dup3\n      add\n      0x00\n      tag_326\n      swap2\n      swap1\n      tag_96\n      jump\t// in\n    tag_326:\n      0x03\n      dup3\n      add\n      0x00\n      tag_327\n      swap2\n      swap1\n      tag_96\n      jump\t// in\n    tag_327:\n      0x04\n      dup3\n      add\n      0x00\n      tag_328\n      swap2\n      swap1\n      tag_71\n      jump\t// in\n    tag_328:\n      pop\n      pop\n      0x19\n      dup3\n      add\n      0x00\n      dup1\n      dup3\n      add\n      0x00\n      tag_329\n      swap2\n      swap1\n      tag_96\n      jump\t// in\n    tag_329:\n      0x01\n      dup3\n      add\n      0x00\n      tag_330\n      swap2\n      swap1\n      tag_96\n      jump\t// in\n    tag_330:\n      pop\n      pop\n      pop\n      pop\n        /* \"contracts/Profile.sol\":5110:5186  function delProfile() external {\r... */\n      jump\t// out\n    tag_67:\n      dup3\n      dup1\n      sload\n      tag_331\n      swap1\n      tag_122\n      jump\t// in\n    tag_331:\n      swap1\n      0x00\n      mstore\n      keccak256(0x00, 0x20)\n      swap1\n      0x1f\n      add\n      0x20\n      swap1\n      div\n      dup2\n      add\n      swap3\n      dup3\n      tag_333\n      jumpi\n      0x00\n      dup6\n      sstore\n      jump(tag_332)\n    tag_333:\n      dup3\n      0x1f\n      lt\n      tag_334\n      jumpi\n      dup1\n      mload\n      not(0xff)\n      and\n      dup4\n      dup1\n      add\n      or\n      dup6\n      sstore\n      jump(tag_332)\n    tag_334:\n      dup3\n      dup1\n      add\n      0x01\n      add\n      dup6\n      sstore\n      dup3\n      iszero\n      tag_332\n      jumpi\n      swap2\n      dup3\n      add\n    tag_335:\n      dup3\n      dup2\n      gt\n      iszero\n      tag_336\n      jumpi\n      dup3\n      mload\n      dup3\n      sstore\n      swap2\n      0x20\n      add\n      swap2\n      swap1\n      0x01\n      add\n      swap1\n      jump(tag_335)\n    tag_336:\n    tag_332:\n      pop\n      swap1\n      pop\n      tag_337\n      swap2\n      swap1\n      tag_338\n      jump\t// in\n    tag_337:\n      pop\n      swap1\n      jump\t// out\n    tag_71:\n      pop\n      dup1\n      sload\n      0x00\n      dup3\n      sstore\n      swap1\n      0x00\n      mstore\n      keccak256(0x00, 0x20)\n      swap1\n      dup2\n      add\n      swap1\n      tag_340\n      swap2\n      swap1\n      tag_341\n      jump\t// in\n    tag_340:\n      pop\n      jump\t// out\n    tag_75:\n      dup3\n      dup1\n      sload\n      dup3\n      dup3\n      sstore\n      swap1\n      0x00\n      mstore\n      keccak256(0x00, 0x20)\n      swap1\n      dup2\n      add\n      swap3\n      dup3\n      iszero\n      tag_342\n      jumpi\n      swap2\n      0x20\n      mul\n      dup3\n      add\n    tag_343:\n      dup3\n      dup2\n      gt\n      iszero\n      tag_344\n      jumpi\n      dup3\n      mload\n      dup3\n      swap1\n      dup1\n      mload\n      swap1\n      0x20\n      add\n      swap1\n      tag_345\n      swap3\n      swap2\n      swap1\n      tag_67\n      jump\t// in\n    tag_345:\n      pop\n      swap2\n      0x20\n      add\n      swap2\n      swap1\n      0x01\n      add\n      swap1\n      jump(tag_343)\n    tag_344:\n    tag_342:\n      pop\n      swap1\n      pop\n      tag_346\n      swap2\n      swap1\n      tag_341\n      jump\t// in\n    tag_346:\n      pop\n      swap1\n      jump\t// out\n    tag_84:\n      mload(0x40)\n      dup1\n      0xa0\n      add\n      0x40\n      mstore\n      dup1\n      0x60\n      dup2\n      mstore\n      0x20\n      add\n      0x60\n      dup2\n      mstore\n      0x20\n      add\n      0x60\n      dup2\n      mstore\n      0x20\n      add\n      0x60\n      dup2\n      mstore\n      0x20\n      add\n      0x60\n      dup2\n      mstore\n      pop\n      swap1\n      jump\t// out\n    tag_96:\n      pop\n      dup1\n      sload\n      tag_347\n      swap1\n      tag_122\n      jump\t// in\n    tag_347:\n      0x00\n      dup3\n      sstore\n      dup1\n      0x1f\n      lt\n      tag_349\n      jumpi\n      pop\n      jump(tag_348)\n    tag_349:\n      0x1f\n      add\n      0x20\n      swap1\n      div\n      swap1\n      0x00\n      mstore\n      keccak256(0x00, 0x20)\n      swap1\n      dup2\n      add\n      swap1\n      tag_350\n      swap2\n      swap1\n      tag_338\n      jump\t// in\n    tag_350:\n    tag_348:\n      pop\n      jump\t// out\n    tag_262:\n      pop\n      dup1\n      sload\n      0x00\n      dup3\n      sstore\n      0x05\n      mul\n      swap1\n      0x00\n      mstore\n      keccak256(0x00, 0x20)\n      swap1\n      dup2\n      add\n      swap1\n      tag_352\n      swap2\n      swap1\n      tag_353\n      jump\t// in\n    tag_352:\n      pop\n      jump\t// out\n    tag_338:\n    tag_354:\n      dup1\n      dup3\n      gt\n      iszero\n      tag_355\n      jumpi\n      0x00\n      dup2\n      0x00\n      swap1\n      sstore\n      pop\n      0x01\n      add\n      jump(tag_354)\n    tag_355:\n      pop\n      swap1\n      jump\t// out\n    tag_341:\n    tag_356:\n      dup1\n      dup3\n      gt\n      iszero\n      tag_357\n      jumpi\n      0x00\n      dup2\n      dup2\n      tag_358\n      swap2\n      swap1\n      tag_96\n      jump\t// in\n    tag_358:\n      pop\n      0x01\n      add\n      jump(tag_356)\n    tag_357:\n      pop\n      swap1\n      jump\t// out\n    tag_353:\n    tag_359:\n      dup1\n      dup3\n      gt\n      iszero\n      tag_360\n      jumpi\n      0x00\n      dup1\n      dup3\n      add\n      0x00\n      tag_361\n      swap2\n      swap1\n      tag_96\n      jump\t// in\n    tag_361:\n      0x01\n      dup3\n      add\n      0x00\n      tag_362\n      swap2\n      swap1\n      tag_96\n      jump\t// in\n    tag_362:\n      0x02\n      dup3\n      add\n      0x00\n      tag_363\n      swap2\n      swap1\n      tag_96\n      jump\t// in\n    tag_363:\n      0x03\n      dup3\n      add\n      0x00\n      tag_364\n      swap2\n      swap1\n      tag_96\n      jump\t// in\n    tag_364:\n      0x04\n      dup3\n      add\n      0x00\n      tag_365\n      swap2\n      swap1\n      tag_96\n      jump\t// in\n    tag_365:\n      pop\n      0x05\n      add\n      jump(tag_359)\n    tag_360:\n      pop\n      swap1\n      jump\t// out\n        /* \"#utility.yul\":23:980   */\n    tag_367:\n        /* \"#utility.yul\":129:134   */\n      0x00\n        /* \"#utility.yul\":154:245   */\n      tag_369\n        /* \"#utility.yul\":170:244   */\n      tag_370\n        /* \"#utility.yul\":237:243   */\n      dup5\n        /* \"#utility.yul\":170:244   */\n      tag_371\n      jump\t// in\n    tag_370:\n        /* \"#utility.yul\":154:245   */\n      tag_372\n      jump\t// in\n    tag_369:\n        /* \"#utility.yul\":145:245   */\n      swap1\n      pop\n        /* \"#utility.yul\":265:270   */\n      dup1\n        /* \"#utility.yul\":294:300   */\n      dup4\n        /* \"#utility.yul\":287:292   */\n      dup3\n        /* \"#utility.yul\":280:301   */\n      mstore\n        /* \"#utility.yul\":328:332   */\n      0x20\n        /* \"#utility.yul\":321:326   */\n      dup3\n        /* \"#utility.yul\":317:333   */\n      add\n        /* \"#utility.yul\":310:333   */\n      swap1\n      pop\n        /* \"#utility.yul\":354:360   */\n      dup3\n        /* \"#utility.yul\":404:407   */\n      dup6\n        /* \"#utility.yul\":396:400   */\n      0x20\n        /* \"#utility.yul\":388:394   */\n      dup7\n        /* \"#utility.yul\":384:401   */\n      mul\n        /* \"#utility.yul\":379:382   */\n      dup3\n        /* \"#utility.yul\":375:402   */\n      add\n        /* \"#utility.yul\":372:408   */\n      gt\n        /* \"#utility.yul\":369:512   */\n      iszero\n      tag_373\n      jumpi\n        /* \"#utility.yul\":423:502   */\n      tag_374\n      tag_375\n      jump\t// in\n    tag_374:\n        /* \"#utility.yul\":369:512   */\n    tag_373:\n        /* \"#utility.yul\":536:537   */\n      0x00\n        /* \"#utility.yul\":521:974   */\n    tag_376:\n        /* \"#utility.yul\":546:552   */\n      dup6\n        /* \"#utility.yul\":543:544   */\n      dup2\n        /* \"#utility.yul\":540:553   */\n      lt\n        /* \"#utility.yul\":521:974   */\n      iszero\n      tag_378\n      jumpi\n        /* \"#utility.yul\":628:631   */\n      dup2\n        /* \"#utility.yul\":615:632   */\n      calldataload\n        /* \"#utility.yul\":664:682   */\n      0xffffffffffffffff\n        /* \"#utility.yul\":651:662   */\n      dup2\n        /* \"#utility.yul\":648:683   */\n      gt\n        /* \"#utility.yul\":645:767   */\n      iszero\n      tag_379\n      jumpi\n        /* \"#utility.yul\":686:765   */\n      tag_380\n      tag_381\n      jump\t// in\n    tag_380:\n        /* \"#utility.yul\":645:767   */\n    tag_379:\n        /* \"#utility.yul\":810:821   */\n      dup1\n        /* \"#utility.yul\":802:808   */\n      dup7\n        /* \"#utility.yul\":798:822   */\n      add\n        /* \"#utility.yul\":848:895   */\n      tag_382\n        /* \"#utility.yul\":891:894   */\n      dup10\n        /* \"#utility.yul\":879:889   */\n      dup3\n        /* \"#utility.yul\":848:895   */\n      tag_383\n      jump\t// in\n    tag_382:\n        /* \"#utility.yul\":843:846   */\n      dup6\n        /* \"#utility.yul\":836:896   */\n      mstore\n        /* \"#utility.yul\":925:929   */\n      0x20\n        /* \"#utility.yul\":920:923   */\n      dup6\n        /* \"#utility.yul\":916:930   */\n      add\n        /* \"#utility.yul\":909:930   */\n      swap5\n      pop\n        /* \"#utility.yul\":959:963   */\n      0x20\n        /* \"#utility.yul\":954:957   */\n      dup5\n        /* \"#utility.yul\":950:964   */\n      add\n        /* \"#utility.yul\":943:964   */\n      swap4\n      pop\n        /* \"#utility.yul\":581:974   */\n      pop\n      pop\n        /* \"#utility.yul\":568:569   */\n      0x01\n        /* \"#utility.yul\":565:566   */\n      dup2\n        /* \"#utility.yul\":561:570   */\n      add\n        /* \"#utility.yul\":556:570   */\n      swap1\n      pop\n        /* \"#utility.yul\":521:974   */\n      jump(tag_376)\n    tag_378:\n        /* \"#utility.yul\":525:539   */\n      pop\n        /* \"#utility.yul\":135:980   */\n      pop\n      pop\n        /* \"#utility.yul\":23:980   */\n      swap4\n      swap3\n      pop\n      pop\n      pop\n      jump\t// out\n        /* \"#utility.yul\":986:1398   */\n    tag_384:\n        /* \"#utility.yul\":1064:1069   */\n      0x00\n        /* \"#utility.yul\":1089:1155   */\n      tag_386\n        /* \"#utility.yul\":1105:1154   */\n      tag_387\n        /* \"#utility.yul\":1147:1153   */\n      dup5\n        /* \"#utility.yul\":1105:1154   */\n      tag_388\n      jump\t// in\n    tag_387:\n        /* \"#utility.yul\":1089:1155   */\n      tag_372\n      jump\t// in\n    tag_386:\n        /* \"#utility.yul\":1080:1155   */\n      swap1\n      pop\n        /* \"#utility.yul\":1178:1184   */\n      dup3\n        /* \"#utility.yul\":1171:1176   */\n      dup2\n        /* \"#utility.yul\":1164:1185   */\n      mstore\n        /* \"#utility.yul\":1216:1220   */\n      0x20\n        /* \"#utility.yul\":1209:1214   */\n      dup2\n        /* \"#utility.yul\":1205:1221   */\n      add\n        /* \"#utility.yul\":1254:1257   */\n      dup5\n        /* \"#utility.yul\":1245:1251   */\n      dup5\n        /* \"#utility.yul\":1240:1243   */\n      dup5\n        /* \"#utility.yul\":1236:1252   */\n      add\n        /* \"#utility.yul\":1233:1258   */\n      gt\n        /* \"#utility.yul\":1230:1342   */\n      iszero\n      tag_389\n      jumpi\n        /* \"#utility.yul\":1261:1340   */\n      tag_390\n      tag_391\n      jump\t// in\n    tag_390:\n        /* \"#utility.yul\":1230:1342   */\n    tag_389:\n        /* \"#utility.yul\":1351:1392   */\n      tag_392\n        /* \"#utility.yul\":1385:1391   */\n      dup5\n        /* \"#utility.yul\":1380:1383   */\n      dup3\n        /* \"#utility.yul\":1375:1378   */\n      dup6\n        /* \"#utility.yul\":1351:1392   */\n      tag_393\n      jump\t// in\n    tag_392:\n        /* \"#utility.yul\":1070:1398   */\n      pop\n        /* \"#utility.yul\":986:1398   */\n      swap4\n      swap3\n      pop\n      pop\n      pop\n      jump\t// out\n        /* \"#utility.yul\":1404:1543   */\n    tag_394:\n        /* \"#utility.yul\":1450:1455   */\n      0x00\n        /* \"#utility.yul\":1488:1494   */\n      dup2\n        /* \"#utility.yul\":1475:1495   */\n      calldataload\n        /* \"#utility.yul\":1466:1495   */\n      swap1\n      pop\n        /* \"#utility.yul\":1504:1537   */\n      tag_396\n        /* \"#utility.yul\":1531:1536   */\n      dup2\n        /* \"#utility.yul\":1504:1537   */\n      tag_397\n      jump\t// in\n    tag_396:\n        /* \"#utility.yul\":1404:1543   */\n      swap3\n      swap2\n      pop\n      pop\n      jump\t// out\n        /* \"#utility.yul\":1565:1955   */\n    tag_398:\n        /* \"#utility.yul\":1646:1651   */\n      0x00\n        /* \"#utility.yul\":1695:1698   */\n      dup3\n        /* \"#utility.yul\":1688:1692   */\n      0x1f\n        /* \"#utility.yul\":1680:1686   */\n      dup4\n        /* \"#utility.yul\":1676:1693   */\n      add\n        /* \"#utility.yul\":1672:1699   */\n      slt\n        /* \"#utility.yul\":1662:1784   */\n      tag_400\n      jumpi\n        /* \"#utility.yul\":1703:1782   */\n      tag_401\n      tag_381\n      jump\t// in\n    tag_401:\n        /* \"#utility.yul\":1662:1784   */\n    tag_400:\n        /* \"#utility.yul\":1820:1826   */\n      dup2\n        /* \"#utility.yul\":1807:1827   */\n      calldataload\n        /* \"#utility.yul\":1845:1949   */\n      tag_402\n        /* \"#utility.yul\":1945:1948   */\n      dup5\n        /* \"#utility.yul\":1937:1943   */\n      dup3\n        /* \"#utility.yul\":1930:1934   */\n      0x20\n        /* \"#utility.yul\":1922:1928   */\n      dup7\n        /* \"#utility.yul\":1918:1935   */\n      add\n        /* \"#utility.yul\":1845:1949   */\n      tag_367\n      jump\t// in\n    tag_402:\n        /* \"#utility.yul\":1836:1949   */\n      swap2\n      pop\n        /* \"#utility.yul\":1652:1955   */\n      pop\n        /* \"#utility.yul\":1565:1955   */\n      swap3\n      swap2\n      pop\n      pop\n      jump\t// out\n        /* \"#utility.yul\":1975:2315   */\n    tag_383:\n        /* \"#utility.yul\":2031:2036   */\n      0x00\n        /* \"#utility.yul\":2080:2083   */\n      dup3\n        /* \"#utility.yul\":2073:2077   */\n      0x1f\n        /* \"#utility.yul\":2065:2071   */\n      dup4\n        /* \"#utility.yul\":2061:2078   */\n      add\n        /* \"#utility.yul\":2057:2084   */\n      slt\n        /* \"#utility.yul\":2047:2169   */\n      tag_404\n      jumpi\n        /* \"#utility.yul\":2088:2167   */\n      tag_405\n      tag_381\n      jump\t// in\n    tag_405:\n        /* \"#utility.yul\":2047:2169   */\n    tag_404:\n        /* \"#utility.yul\":2205:2211   */\n      dup2\n        /* \"#utility.yul\":2192:2212   */\n      calldataload\n        /* \"#utility.yul\":2230:2309   */\n      tag_406\n        /* \"#utility.yul\":2305:2308   */\n      dup5\n        /* \"#utility.yul\":2297:2303   */\n      dup3\n        /* \"#utility.yul\":2290:2294   */\n      0x20\n        /* \"#utility.yul\":2282:2288   */\n      dup7\n        /* \"#utility.yul\":2278:2295   */\n      add\n        /* \"#utility.yul\":2230:2309   */\n      tag_384\n      jump\t// in\n    tag_406:\n        /* \"#utility.yul\":2221:2309   */\n      swap2\n      pop\n        /* \"#utility.yul\":2037:2315   */\n      pop\n        /* \"#utility.yul\":1975:2315   */\n      swap3\n      swap2\n      pop\n      pop\n      jump\t// out\n        /* \"#utility.yul\":2321:2460   */\n    tag_407:\n        /* \"#utility.yul\":2367:2372   */\n      0x00\n        /* \"#utility.yul\":2405:2411   */\n      dup2\n        /* \"#utility.yul\":2392:2412   */\n      calldataload\n        /* \"#utility.yul\":2383:2412   */\n      swap1\n      pop\n        /* \"#utility.yul\":2421:2454   */\n      tag_409\n        /* \"#utility.yul\":2448:2453   */\n      dup2\n        /* \"#utility.yul\":2421:2454   */\n      tag_410\n      jump\t// in\n    tag_409:\n        /* \"#utility.yul\":2321:2460   */\n      swap3\n      swap2\n      pop\n      pop\n      jump\t// out\n        /* \"#utility.yul\":2466:2795   */\n    tag_51:\n        /* \"#utility.yul\":2525:2531   */\n      0x00\n        /* \"#utility.yul\":2574:2576   */\n      0x20\n        /* \"#utility.yul\":2562:2571   */\n      dup3\n        /* \"#utility.yul\":2553:2560   */\n      dup5\n        /* \"#utility.yul\":2549:2572   */\n      sub\n        /* \"#utility.yul\":2545:2577   */\n      slt\n        /* \"#utility.yul\":2542:2661   */\n      iszero\n      tag_412\n      jumpi\n        /* \"#utility.yul\":2580:2659   */\n      tag_413\n      tag_414\n      jump\t// in\n    tag_413:\n        /* \"#utility.yul\":2542:2661   */\n    tag_412:\n        /* \"#utility.yul\":2700:2701   */\n      0x00\n        /* \"#utility.yul\":2725:2778   */\n      tag_415\n        /* \"#utility.yul\":2770:2777   */\n      dup5\n        /* \"#utility.yul\":2761:2767   */\n      dup3\n        /* \"#utility.yul\":2750:2759   */\n      dup6\n        /* \"#utility.yul\":2746:2768   */\n      add\n        /* \"#utility.yul\":2725:2778   */\n      tag_394\n      jump\t// in\n    tag_415:\n        /* \"#utility.yul\":2715:2778   */\n      swap2\n      pop\n        /* \"#utility.yul\":2671:2788   */\n      pop\n        /* \"#utility.yul\":2466:2795   */\n      swap3\n      swap2\n      pop\n      pop\n      jump\t// out\n        /* \"#utility.yul\":2801:3735   */\n    tag_38:\n        /* \"#utility.yul\":2939:2945   */\n      0x00\n        /* \"#utility.yul\":2947:2953   */\n      dup1\n        /* \"#utility.yul\":2996:2998   */\n      0x40\n        /* \"#utility.yul\":2984:2993   */\n      dup4\n        /* \"#utility.yul\":2975:2982   */\n      dup6\n        /* \"#utility.yul\":2971:2994   */\n      sub\n        /* \"#utility.yul\":2967:2999   */\n      slt\n        /* \"#utility.yul\":2964:3083   */\n      iszero\n      tag_417\n      jumpi\n        /* \"#utility.yul\":3002:3081   */\n      tag_418\n      tag_414\n      jump\t// in\n    tag_418:\n        /* \"#utility.yul\":2964:3083   */\n    tag_417:\n        /* \"#utility.yul\":3150:3151   */\n      0x00\n        /* \"#utility.yul\":3139:3148   */\n      dup4\n        /* \"#utility.yul\":3135:3152   */\n      add\n        /* \"#utility.yul\":3122:3153   */\n      calldataload\n        /* \"#utility.yul\":3180:3198   */\n      0xffffffffffffffff\n        /* \"#utility.yul\":3172:3178   */\n      dup2\n        /* \"#utility.yul\":3169:3199   */\n      gt\n        /* \"#utility.yul\":3166:3283   */\n      iszero\n      tag_419\n      jumpi\n        /* \"#utility.yul\":3202:3281   */\n      tag_420\n      tag_421\n      jump\t// in\n    tag_420:\n        /* \"#utility.yul\":3166:3283   */\n    tag_419:\n        /* \"#utility.yul\":3307:3395   */\n      tag_422\n        /* \"#utility.yul\":3387:3394   */\n      dup6\n        /* \"#utility.yul\":3378:3384   */\n      dup3\n        /* \"#utility.yul\":3367:3376   */\n      dup7\n        /* \"#utility.yul\":3363:3385   */\n      add\n        /* \"#utility.yul\":3307:3395   */\n      tag_398\n      jump\t// in\n    tag_422:\n        /* \"#utility.yul\":3297:3395   */\n      swap3\n      pop\n        /* \"#utility.yul\":3093:3405   */\n      pop\n        /* \"#utility.yul\":3472:3474   */\n      0x20\n        /* \"#utility.yul\":3461:3470   */\n      dup4\n        /* \"#utility.yul\":3457:3475   */\n      add\n        /* \"#utility.yul\":3444:3476   */\n      calldataload\n        /* \"#utility.yul\":3503:3521   */\n      0xffffffffffffffff\n        /* \"#utility.yul\":3495:3501   */\n      dup2\n        /* \"#utility.yul\":3492:3522   */\n      gt\n        /* \"#utility.yul\":3489:3606   */\n      iszero\n      tag_423\n      jumpi\n        /* \"#utility.yul\":3525:3604   */\n      tag_424\n      tag_421\n      jump\t// in\n    tag_424:\n        /* \"#utility.yul\":3489:3606   */\n    tag_423:\n        /* \"#utility.yul\":3630:3718   */\n      tag_425\n        /* \"#utility.yul\":3710:3717   */\n      dup6\n        /* \"#utility.yul\":3701:3707   */\n      dup3\n        /* \"#utility.yul\":3690:3699   */\n      dup7\n        /* \"#utility.yul\":3686:3708   */\n      add\n        /* \"#utility.yul\":3630:3718   */\n      tag_398\n      jump\t// in\n    tag_425:\n        /* \"#utility.yul\":3620:3718   */\n      swap2\n      pop\n        /* \"#utility.yul\":3415:3728   */\n      pop\n        /* \"#utility.yul\":2801:3735   */\n      swap3\n      pop\n      swap3\n      swap1\n      pop\n      jump\t// out\n        /* \"#utility.yul\":3741:5050   */\n    tag_24:\n        /* \"#utility.yul\":3923:3929   */\n      0x00\n        /* \"#utility.yul\":3931:3937   */\n      dup1\n        /* \"#utility.yul\":3939:3945   */\n      0x00\n        /* \"#utility.yul\":3988:3990   */\n      0x60\n        /* \"#utility.yul\":3976:3985   */\n      dup5\n        /* \"#utility.yul\":3967:3974   */\n      dup7\n        /* \"#utility.yul\":3963:3986   */\n      sub\n        /* \"#utility.yul\":3959:3991   */\n      slt\n        /* \"#utility.yul\":3956:4075   */\n      iszero\n      tag_427\n      jumpi\n        /* \"#utility.yul\":3994:4073   */\n      tag_428\n      tag_414\n      jump\t// in\n    tag_428:\n        /* \"#utility.yul\":3956:4075   */\n    tag_427:\n        /* \"#utility.yul\":4142:4143   */\n      0x00\n        /* \"#utility.yul\":4131:4140   */\n      dup5\n        /* \"#utility.yul\":4127:4144   */\n      add\n        /* \"#utility.yul\":4114:4145   */\n      calldataload\n        /* \"#utility.yul\":4172:4190   */\n      0xffffffffffffffff\n        /* \"#utility.yul\":4164:4170   */\n      dup2\n        /* \"#utility.yul\":4161:4191   */\n      gt\n        /* \"#utility.yul\":4158:4275   */\n      iszero\n      tag_429\n      jumpi\n        /* \"#utility.yul\":4194:4273   */\n      tag_430\n      tag_421\n      jump\t// in\n    tag_430:\n        /* \"#utility.yul\":4158:4275   */\n    tag_429:\n        /* \"#utility.yul\":4299:4387   */\n      tag_431\n        /* \"#utility.yul\":4379:4386   */\n      dup7\n        /* \"#utility.yul\":4370:4376   */\n      dup3\n        /* \"#utility.yul\":4359:4368   */\n      dup8\n        /* \"#utility.yul\":4355:4377   */\n      add\n        /* \"#utility.yul\":4299:4387   */\n      tag_398\n      jump\t// in\n    tag_431:\n        /* \"#utility.yul\":4289:4387   */\n      swap4\n      pop\n        /* \"#utility.yul\":4085:4397   */\n      pop\n        /* \"#utility.yul\":4464:4466   */\n      0x20\n        /* \"#utility.yul\":4453:4462   */\n      dup5\n        /* \"#utility.yul\":4449:4467   */\n      add\n        /* \"#utility.yul\":4436:4468   */\n      calldataload\n        /* \"#utility.yul\":4495:4513   */\n      0xffffffffffffffff\n        /* \"#utility.yul\":4487:4493   */\n      dup2\n        /* \"#utility.yul\":4484:4514   */\n      gt\n        /* \"#utility.yul\":4481:4598   */\n      iszero\n      tag_432\n      jumpi\n        /* \"#utility.yul\":4517:4596   */\n      tag_433\n      tag_421\n      jump\t// in\n    tag_433:\n        /* \"#utility.yul\":4481:4598   */\n    tag_432:\n        /* \"#utility.yul\":4622:4710   */\n      tag_434\n        /* \"#utility.yul\":4702:4709   */\n      dup7\n        /* \"#utility.yul\":4693:4699   */\n      dup3\n        /* \"#utility.yul\":4682:4691   */\n      dup8\n        /* \"#utility.yul\":4678:4700   */\n      add\n        /* \"#utility.yul\":4622:4710   */\n      tag_398\n      jump\t// in\n    tag_434:\n        /* \"#utility.yul\":4612:4710   */\n      swap3\n      pop\n        /* \"#utility.yul\":4407:4720   */\n      pop\n        /* \"#utility.yul\":4787:4789   */\n      0x40\n        /* \"#utility.yul\":4776:4785   */\n      dup5\n        /* \"#utility.yul\":4772:4790   */\n      add\n        /* \"#utility.yul\":4759:4791   */\n      calldataload\n        /* \"#utility.yul\":4818:4836   */\n      0xffffffffffffffff\n        /* \"#utility.yul\":4810:4816   */\n      dup2\n        /* \"#utility.yul\":4807:4837   */\n      gt\n        /* \"#utility.yul\":4804:4921   */\n      iszero\n      tag_435\n      jumpi\n        /* \"#utility.yul\":4840:4919   */\n      tag_436\n      tag_421\n      jump\t// in\n    tag_436:\n        /* \"#utility.yul\":4804:4921   */\n    tag_435:\n        /* \"#utility.yul\":4945:5033   */\n      tag_437\n        /* \"#utility.yul\":5025:5032   */\n      dup7\n        /* \"#utility.yul\":5016:5022   */\n      dup3\n        /* \"#utility.yul\":5005:5014   */\n      dup8\n        /* \"#utility.yul\":5001:5023   */\n      add\n        /* \"#utility.yul\":4945:5033   */\n      tag_398\n      jump\t// in\n    tag_437:\n        /* \"#utility.yul\":4935:5033   */\n      swap2\n      pop\n        /* \"#utility.yul\":4730:5043   */\n      pop\n        /* \"#utility.yul\":3741:5050   */\n      swap3\n      pop\n      swap3\n      pop\n      swap3\n      jump\t// out\n        /* \"#utility.yul\":5056:5890   */\n    tag_20:\n        /* \"#utility.yul\":5144:5150   */\n      0x00\n        /* \"#utility.yul\":5152:5158   */\n      dup1\n        /* \"#utility.yul\":5201:5203   */\n      0x40\n        /* \"#utility.yul\":5189:5198   */\n      dup4\n        /* \"#utility.yul\":5180:5187   */\n      dup6\n        /* \"#utility.yul\":5176:5199   */\n      sub\n        /* \"#utility.yul\":5172:5204   */\n      slt\n        /* \"#utility.yul\":5169:5288   */\n      iszero\n      tag_439\n      jumpi\n        /* \"#utility.yul\":5207:5286   */\n      tag_440\n      tag_414\n      jump\t// in\n    tag_440:\n        /* \"#utility.yul\":5169:5288   */\n    tag_439:\n        /* \"#utility.yul\":5355:5356   */\n      0x00\n        /* \"#utility.yul\":5344:5353   */\n      dup4\n        /* \"#utility.yul\":5340:5357   */\n      add\n        /* \"#utility.yul\":5327:5358   */\n      calldataload\n        /* \"#utility.yul\":5385:5403   */\n      0xffffffffffffffff\n        /* \"#utility.yul\":5377:5383   */\n      dup2\n        /* \"#utility.yul\":5374:5404   */\n      gt\n        /* \"#utility.yul\":5371:5488   */\n      iszero\n      tag_441\n      jumpi\n        /* \"#utility.yul\":5407:5486   */\n      tag_442\n      tag_421\n      jump\t// in\n    tag_442:\n        /* \"#utility.yul\":5371:5488   */\n    tag_441:\n        /* \"#utility.yul\":5512:5575   */\n      tag_443\n        /* \"#utility.yul\":5567:5574   */\n      dup6\n        /* \"#utility.yul\":5558:5564   */\n      dup3\n        /* \"#utility.yul\":5547:5556   */\n      dup7\n        /* \"#utility.yul\":5543:5565   */\n      add\n        /* \"#utility.yul\":5512:5575   */\n      tag_383\n      jump\t// in\n    tag_443:\n        /* \"#utility.yul\":5502:5575   */\n      swap3\n      pop\n        /* \"#utility.yul\":5298:5585   */\n      pop\n        /* \"#utility.yul\":5652:5654   */\n      0x20\n        /* \"#utility.yul\":5641:5650   */\n      dup4\n        /* \"#utility.yul\":5637:5655   */\n      add\n        /* \"#utility.yul\":5624:5656   */\n      calldataload\n        /* \"#utility.yul\":5683:5701   */\n      0xffffffffffffffff\n        /* \"#utility.yul\":5675:5681   */\n      dup2\n        /* \"#utility.yul\":5672:5702   */\n      gt\n        /* \"#utility.yul\":5669:5786   */\n      iszero\n      tag_444\n      jumpi\n        /* \"#utility.yul\":5705:5784   */\n      tag_445\n      tag_421\n      jump\t// in\n    tag_445:\n        /* \"#utility.yul\":5669:5786   */\n    tag_444:\n        /* \"#utility.yul\":5810:5873   */\n      tag_446\n        /* \"#utility.yul\":5865:5872   */\n      dup6\n        /* \"#utility.yul\":5856:5862   */\n      dup3\n        /* \"#utility.yul\":5845:5854   */\n      dup7\n        /* \"#utility.yul\":5841:5863   */\n      add\n        /* \"#utility.yul\":5810:5873   */\n      tag_383\n      jump\t// in\n    tag_446:\n        /* \"#utility.yul\":5800:5873   */\n      swap2\n      pop\n        /* \"#utility.yul\":5595:5883   */\n      pop\n        /* \"#utility.yul\":5056:5890   */\n      swap3\n      pop\n      swap3\n      swap1\n      pop\n      jump\t// out\n        /* \"#utility.yul\":5896:7707   */\n    tag_34:\n        /* \"#utility.yul\":6041:6047   */\n      0x00\n        /* \"#utility.yul\":6049:6055   */\n      dup1\n        /* \"#utility.yul\":6057:6063   */\n      0x00\n        /* \"#utility.yul\":6065:6071   */\n      dup1\n        /* \"#utility.yul\":6073:6079   */\n      0x00\n        /* \"#utility.yul\":6122:6125   */\n      0xa0\n        /* \"#utility.yul\":6110:6119   */\n      dup7\n        /* \"#utility.yul\":6101:6108   */\n      dup9\n        /* \"#utility.yul\":6097:6120   */\n      sub\n        /* \"#utility.yul\":6093:6126   */\n      slt\n        /* \"#utility.yul\":6090:6210   */\n      iszero\n      tag_448\n      jumpi\n        /* \"#utility.yul\":6129:6208   */\n      tag_449\n      tag_414\n      jump\t// in\n    tag_449:\n        /* \"#utility.yul\":6090:6210   */\n    tag_448:\n        /* \"#utility.yul\":6277:6278   */\n      0x00\n        /* \"#utility.yul\":6266:6275   */\n      dup7\n        /* \"#utility.yul\":6262:6279   */\n      add\n        /* \"#utility.yul\":6249:6280   */\n      calldataload\n        /* \"#utility.yul\":6307:6325   */\n      0xffffffffffffffff\n        /* \"#utility.yul\":6299:6305   */\n      dup2\n        /* \"#utility.yul\":6296:6326   */\n      gt\n        /* \"#utility.yul\":6293:6410   */\n      iszero\n      tag_450\n      jumpi\n        /* \"#utility.yul\":6329:6408   */\n      tag_451\n      tag_421\n      jump\t// in\n    tag_451:\n        /* \"#utility.yul\":6293:6410   */\n    tag_450:\n        /* \"#utility.yul\":6434:6497   */\n      tag_452\n        /* \"#utility.yul\":6489:6496   */\n      dup9\n        /* \"#utility.yul\":6480:6486   */\n      dup3\n        /* \"#utility.yul\":6469:6478   */\n      dup10\n        /* \"#utility.yul\":6465:6487   */\n      add\n        /* \"#utility.yul\":6434:6497   */\n      tag_383\n      jump\t// in\n    tag_452:\n        /* \"#utility.yul\":6424:6497   */\n      swap6\n      pop\n        /* \"#utility.yul\":6220:6507   */\n      pop\n        /* \"#utility.yul\":6574:6576   */\n      0x20\n        /* \"#utility.yul\":6563:6572   */\n      dup7\n        /* \"#utility.yul\":6559:6577   */\n      add\n        /* \"#utility.yul\":6546:6578   */\n      calldataload\n        /* \"#utility.yul\":6605:6623   */\n      0xffffffffffffffff\n        /* \"#utility.yul\":6597:6603   */\n      dup2\n        /* \"#utility.yul\":6594:6624   */\n      gt\n        /* \"#utility.yul\":6591:6708   */\n      iszero\n      tag_453\n      jumpi\n        /* \"#utility.yul\":6627:6706   */\n      tag_454\n      tag_421\n      jump\t// in\n    tag_454:\n        /* \"#utility.yul\":6591:6708   */\n    tag_453:\n        /* \"#utility.yul\":6732:6795   */\n      tag_455\n        /* \"#utility.yul\":6787:6794   */\n      dup9\n        /* \"#utility.yul\":6778:6784   */\n      dup3\n        /* \"#utility.yul\":6767:6776   */\n      dup10\n        /* \"#utility.yul\":6763:6785   */\n      add\n        /* \"#utility.yul\":6732:6795   */\n      tag_383\n      jump\t// in\n    tag_455:\n        /* \"#utility.yul\":6722:6795   */\n      swap5\n      pop\n        /* \"#utility.yul\":6517:6805   */\n      pop\n        /* \"#utility.yul\":6872:6874   */\n      0x40\n        /* \"#utility.yul\":6861:6870   */\n      dup7\n        /* \"#utility.yul\":6857:6875   */\n      add\n        /* \"#utility.yul\":6844:6876   */\n      calldataload\n        /* \"#utility.yul\":6903:6921   */\n      0xffffffffffffffff\n        /* \"#utility.yul\":6895:6901   */\n      dup2\n        /* \"#utility.yul\":6892:6922   */\n      gt\n        /* \"#utility.yul\":6889:7006   */\n      iszero\n      tag_456\n      jumpi\n        /* \"#utility.yul\":6925:7004   */\n      tag_457\n      tag_421\n      jump\t// in\n    tag_457:\n        /* \"#utility.yul\":6889:7006   */\n    tag_456:\n        /* \"#utility.yul\":7030:7093   */\n      tag_458\n        /* \"#utility.yul\":7085:7092   */\n      dup9\n        /* \"#utility.yul\":7076:7082   */\n      dup3\n        /* \"#utility.yul\":7065:7074   */\n      dup10\n        /* \"#utility.yul\":7061:7083   */\n      add\n        /* \"#utility.yul\":7030:7093   */\n      tag_383\n      jump\t// in\n    tag_458:\n        /* \"#utility.yul\":7020:7093   */\n      swap4\n      pop\n        /* \"#utility.yul\":6815:7103   */\n      pop\n        /* \"#utility.yul\":7170:7172   */\n      0x60\n        /* \"#utility.yul\":7159:7168   */\n      dup7\n        /* \"#utility.yul\":7155:7173   */\n      add\n        /* \"#utility.yul\":7142:7174   */\n      calldataload\n        /* \"#utility.yul\":7201:7219   */\n      0xffffffffffffffff\n        /* \"#utility.yul\":7193:7199   */\n      dup2\n        /* \"#utility.yul\":7190:7220   */\n      gt\n        /* \"#utility.yul\":7187:7304   */\n      iszero\n      tag_459\n      jumpi\n        /* \"#utility.yul\":7223:7302   */\n      tag_460\n      tag_421\n      jump\t// in\n    tag_460:\n        /* \"#utility.yul\":7187:7304   */\n    tag_459:\n        /* \"#utility.yul\":7328:7391   */\n      tag_461\n        /* \"#utility.yul\":7383:7390   */\n      dup9\n        /* \"#utility.yul\":7374:7380   */\n      dup3\n        /* \"#utility.yul\":7363:7372   */\n      dup10\n        /* \"#utility.yul\":7359:7381   */\n      add\n        /* \"#utility.yul\":7328:7391   */\n      tag_383\n      jump\t// in\n    tag_461:\n        /* \"#utility.yul\":7318:7391   */\n      swap3\n      pop\n        /* \"#utility.yul\":7113:7401   */\n      pop\n        /* \"#utility.yul\":7468:7471   */\n      0x80\n        /* \"#utility.yul\":7457:7466   */\n      dup7\n        /* \"#utility.yul\":7453:7472   */\n      add\n        /* \"#utility.yul\":7440:7473   */\n      calldataload\n        /* \"#utility.yul\":7500:7518   */\n      0xffffffffffffffff\n        /* \"#utility.yul\":7492:7498   */\n      dup2\n        /* \"#utility.yul\":7489:7519   */\n      gt\n        /* \"#utility.yul\":7486:7603   */\n      iszero\n      tag_462\n      jumpi\n        /* \"#utility.yul\":7522:7601   */\n      tag_463\n      tag_421\n      jump\t// in\n    tag_463:\n        /* \"#utility.yul\":7486:7603   */\n    tag_462:\n        /* \"#utility.yul\":7627:7690   */\n      tag_464\n        /* \"#utility.yul\":7682:7689   */\n      dup9\n        /* \"#utility.yul\":7673:7679   */\n      dup3\n        /* \"#utility.yul\":7662:7671   */\n      dup10\n        /* \"#utility.yul\":7658:7680   */\n      add\n        /* \"#utility.yul\":7627:7690   */\n      tag_383\n      jump\t// in\n    tag_464:\n        /* \"#utility.yul\":7617:7690   */\n      swap2\n      pop\n        /* \"#utility.yul\":7411:7700   */\n      pop\n        /* \"#utility.yul\":5896:7707   */\n      swap3\n      swap6\n      pop\n      swap3\n      swap6\n      swap1\n      swap4\n      pop\n      jump\t// out\n        /* \"#utility.yul\":7713:9850   */\n    tag_45:\n        /* \"#utility.yul\":7877:7883   */\n      0x00\n        /* \"#utility.yul\":7885:7891   */\n      dup1\n        /* \"#utility.yul\":7893:7899   */\n      0x00\n        /* \"#utility.yul\":7901:7907   */\n      dup1\n        /* \"#utility.yul\":7909:7915   */\n      0x00\n        /* \"#utility.yul\":7917:7923   */\n      dup1\n        /* \"#utility.yul\":7966:7969   */\n      0xc0\n        /* \"#utility.yul\":7954:7963   */\n      dup8\n        /* \"#utility.yul\":7945:7952   */\n      dup10\n        /* \"#utility.yul\":7941:7964   */\n      sub\n        /* \"#utility.yul\":7937:7970   */\n      slt\n        /* \"#utility.yul\":7934:8054   */\n      iszero\n      tag_466\n      jumpi\n        /* \"#utility.yul\":7973:8052   */\n      tag_467\n      tag_414\n      jump\t// in\n    tag_467:\n        /* \"#utility.yul\":7934:8054   */\n    tag_466:\n        /* \"#utility.yul\":8121:8122   */\n      0x00\n        /* \"#utility.yul\":8110:8119   */\n      dup8\n        /* \"#utility.yul\":8106:8123   */\n      add\n        /* \"#utility.yul\":8093:8124   */\n      calldataload\n        /* \"#utility.yul\":8151:8169   */\n      0xffffffffffffffff\n        /* \"#utility.yul\":8143:8149   */\n      dup2\n        /* \"#utility.yul\":8140:8170   */\n      gt\n        /* \"#utility.yul\":8137:8254   */\n      iszero\n      tag_468\n      jumpi\n        /* \"#utility.yul\":8173:8252   */\n      tag_469\n      tag_421\n      jump\t// in\n    tag_469:\n        /* \"#utility.yul\":8137:8254   */\n    tag_468:\n        /* \"#utility.yul\":8278:8341   */\n      tag_470\n        /* \"#utility.yul\":8333:8340   */\n      dup10\n        /* \"#utility.yul\":8324:8330   */\n      dup3\n        /* \"#utility.yul\":8313:8322   */\n      dup11\n        /* \"#utility.yul\":8309:8331   */\n      add\n        /* \"#utility.yul\":8278:8341   */\n      tag_383\n      jump\t// in\n    tag_470:\n        /* \"#utility.yul\":8268:8341   */\n      swap7\n      pop\n        /* \"#utility.yul\":8064:8351   */\n      pop\n        /* \"#utility.yul\":8418:8420   */\n      0x20\n        /* \"#utility.yul\":8407:8416   */\n      dup8\n        /* \"#utility.yul\":8403:8421   */\n      add\n        /* \"#utility.yul\":8390:8422   */\n      calldataload\n        /* \"#utility.yul\":8449:8467   */\n      0xffffffffffffffff\n        /* \"#utility.yul\":8441:8447   */\n      dup2\n        /* \"#utility.yul\":8438:8468   */\n      gt\n        /* \"#utility.yul\":8435:8552   */\n      iszero\n      tag_471\n      jumpi\n        /* \"#utility.yul\":8471:8550   */\n      tag_472\n      tag_421\n      jump\t// in\n    tag_472:\n        /* \"#utility.yul\":8435:8552   */\n    tag_471:\n        /* \"#utility.yul\":8576:8639   */\n      tag_473\n        /* \"#utility.yul\":8631:8638   */\n      dup10\n        /* \"#utility.yul\":8622:8628   */\n      dup3\n        /* \"#utility.yul\":8611:8620   */\n      dup11\n        /* \"#utility.yul\":8607:8629   */\n      add\n        /* \"#utility.yul\":8576:8639   */\n      tag_383\n      jump\t// in\n    tag_473:\n        /* \"#utility.yul\":8566:8639   */\n      swap6\n      pop\n        /* \"#utility.yul\":8361:8649   */\n      pop\n        /* \"#utility.yul\":8716:8718   */\n      0x40\n        /* \"#utility.yul\":8705:8714   */\n      dup8\n        /* \"#utility.yul\":8701:8719   */\n      add\n        /* \"#utility.yul\":8688:8720   */\n      calldataload\n        /* \"#utility.yul\":8747:8765   */\n      0xffffffffffffffff\n        /* \"#utility.yul\":8739:8745   */\n      dup2\n        /* \"#utility.yul\":8736:8766   */\n      gt\n        /* \"#utility.yul\":8733:8850   */\n      iszero\n      tag_474\n      jumpi\n        /* \"#utility.yul\":8769:8848   */\n      tag_475\n      tag_421\n      jump\t// in\n    tag_475:\n        /* \"#utility.yul\":8733:8850   */\n    tag_474:\n        /* \"#utility.yul\":8874:8937   */\n      tag_476\n        /* \"#utility.yul\":8929:8936   */\n      dup10\n        /* \"#utility.yul\":8920:8926   */\n      dup3\n        /* \"#utility.yul\":8909:8918   */\n      dup11\n        /* \"#utility.yul\":8905:8927   */\n      add\n        /* \"#utility.yul\":8874:8937   */\n      tag_383\n      jump\t// in\n    tag_476:\n        /* \"#utility.yul\":8864:8937   */\n      swap5\n      pop\n        /* \"#utility.yul\":8659:8947   */\n      pop\n        /* \"#utility.yul\":9014:9016   */\n      0x60\n        /* \"#utility.yul\":9003:9012   */\n      dup8\n        /* \"#utility.yul\":8999:9017   */\n      add\n        /* \"#utility.yul\":8986:9018   */\n      calldataload\n        /* \"#utility.yul\":9045:9063   */\n      0xffffffffffffffff\n        /* \"#utility.yul\":9037:9043   */\n      dup2\n        /* \"#utility.yul\":9034:9064   */\n      gt\n        /* \"#utility.yul\":9031:9148   */\n      iszero\n      tag_477\n      jumpi\n        /* \"#utility.yul\":9067:9146   */\n      tag_478\n      tag_421\n      jump\t// in\n    tag_478:\n        /* \"#utility.yul\":9031:9148   */\n    tag_477:\n        /* \"#utility.yul\":9172:9235   */\n      tag_479\n        /* \"#utility.yul\":9227:9234   */\n      dup10\n        /* \"#utility.yul\":9218:9224   */\n      dup3\n        /* \"#utility.yul\":9207:9216   */\n      dup11\n        /* \"#utility.yul\":9203:9225   */\n      add\n        /* \"#utility.yul\":9172:9235   */\n      tag_383\n      jump\t// in\n    tag_479:\n        /* \"#utility.yul\":9162:9235   */\n      swap4\n      pop\n        /* \"#utility.yul\":8957:9245   */\n      pop\n        /* \"#utility.yul\":9312:9315   */\n      0x80\n        /* \"#utility.yul\":9301:9310   */\n      dup8\n        /* \"#utility.yul\":9297:9316   */\n      add\n        /* \"#utility.yul\":9284:9317   */\n      calldataload\n        /* \"#utility.yul\":9344:9362   */\n      0xffffffffffffffff\n        /* \"#utility.yul\":9336:9342   */\n      dup2\n        /* \"#utility.yul\":9333:9363   */\n      gt\n        /* \"#utility.yul\":9330:9447   */\n      iszero\n      tag_480\n      jumpi\n        /* \"#utility.yul\":9366:9445   */\n      tag_481\n      tag_421\n      jump\t// in\n    tag_481:\n        /* \"#utility.yul\":9330:9447   */\n    tag_480:\n        /* \"#utility.yul\":9471:9534   */\n      tag_482\n        /* \"#utility.yul\":9526:9533   */\n      dup10\n        /* \"#utility.yul\":9517:9523   */\n      dup3\n        /* \"#utility.yul\":9506:9515   */\n      dup11\n        /* \"#utility.yul\":9502:9524   */\n      add\n        /* \"#utility.yul\":9471:9534   */\n      tag_383\n      jump\t// in\n    tag_482:\n        /* \"#utility.yul\":9461:9534   */\n      swap3\n      pop\n        /* \"#utility.yul\":9255:9544   */\n      pop\n        /* \"#utility.yul\":9611:9614   */\n      0xa0\n        /* \"#utility.yul\":9600:9609   */\n      dup8\n        /* \"#utility.yul\":9596:9615   */\n      add\n        /* \"#utility.yul\":9583:9616   */\n      calldataload\n        /* \"#utility.yul\":9643:9661   */\n      0xffffffffffffffff\n        /* \"#utility.yul\":9635:9641   */\n      dup2\n        /* \"#utility.yul\":9632:9662   */\n      gt\n        /* \"#utility.yul\":9629:9746   */\n      iszero\n      tag_483\n      jumpi\n        /* \"#utility.yul\":9665:9744   */\n      tag_484\n      tag_421\n      jump\t// in\n    tag_484:\n        /* \"#utility.yul\":9629:9746   */\n    tag_483:\n        /* \"#utility.yul\":9770:9833   */\n      tag_485\n        /* \"#utility.yul\":9825:9832   */\n      dup10\n        /* \"#utility.yul\":9816:9822   */\n      dup3\n        /* \"#utility.yul\":9805:9814   */\n      dup11\n        /* \"#utility.yul\":9801:9823   */\n      add\n        /* \"#utility.yul\":9770:9833   */\n      tag_383\n      jump\t// in\n    tag_485:\n        /* \"#utility.yul\":9760:9833   */\n      swap2\n      pop\n        /* \"#utility.yul\":9554:9843   */\n      pop\n        /* \"#utility.yul\":7713:9850   */\n      swap3\n      swap6\n      pop\n      swap3\n      swap6\n      pop\n      swap3\n      swap6\n      jump\t// out\n        /* \"#utility.yul\":9856:10185   */\n    tag_59:\n        /* \"#utility.yul\":9915:9921   */\n      0x00\n        /* \"#utility.yul\":9964:9966   */\n      0x20\n        /* \"#utility.yul\":9952:9961   */\n      dup3\n        /* \"#utility.yul\":9943:9950   */\n      dup5\n        /* \"#utility.yul\":9939:9962   */\n      sub\n        /* \"#utility.yul\":9935:9967   */\n      slt\n        /* \"#utility.yul\":9932:10051   */\n      iszero\n      tag_487\n      jumpi\n        /* \"#utility.yul\":9970:10049   */\n      tag_488\n      tag_414\n      jump\t// in\n    tag_488:\n        /* \"#utility.yul\":9932:10051   */\n    tag_487:\n        /* \"#utility.yul\":10090:10091   */\n      0x00\n        /* \"#utility.yul\":10115:10168   */\n      tag_489\n        /* \"#utility.yul\":10160:10167   */\n      dup5\n        /* \"#utility.yul\":10151:10157   */\n      dup3\n        /* \"#utility.yul\":10140:10149   */\n      dup6\n        /* \"#utility.yul\":10136:10158   */\n      add\n        /* \"#utility.yul\":10115:10168   */\n      tag_407\n      jump\t// in\n    tag_489:\n        /* \"#utility.yul\":10105:10168   */\n      swap2\n      pop\n        /* \"#utility.yul\":10061:10178   */\n      pop\n        /* \"#utility.yul\":9856:10185   */\n      swap3\n      swap2\n      pop\n      pop\n      jump\t// out\n        /* \"#utility.yul\":10191:10387   */\n    tag_490:\n        /* \"#utility.yul\":10280:10290   */\n      0x00\n        /* \"#utility.yul\":10315:10381   */\n      tag_492\n        /* \"#utility.yul\":10377:10380   */\n      dup4\n        /* \"#utility.yul\":10369:10375   */\n      dup4\n        /* \"#utility.yul\":10315:10381   */\n      tag_493\n      jump\t// in\n    tag_492:\n        /* \"#utility.yul\":10301:10381   */\n      swap1\n      pop\n        /* \"#utility.yul\":10191:10387   */\n      swap3\n      swap2\n      pop\n      pop\n      jump\t// out\n        /* \"#utility.yul\":10393:10501   */\n    tag_494:\n        /* \"#utility.yul\":10470:10494   */\n      tag_496\n        /* \"#utility.yul\":10488:10493   */\n      dup2\n        /* \"#utility.yul\":10470:10494   */\n      tag_497\n      jump\t// in\n    tag_496:\n        /* \"#utility.yul\":10465:10468   */\n      dup3\n        /* \"#utility.yul\":10458:10495   */\n      mstore\n        /* \"#utility.yul\":10393:10501   */\n      pop\n      pop\n      jump\t// out\n        /* \"#utility.yul\":10535:11506   */\n    tag_498:\n        /* \"#utility.yul\":10664:10667   */\n      0x00\n        /* \"#utility.yul\":10693:10757   */\n      tag_500\n        /* \"#utility.yul\":10751:10756   */\n      dup3\n        /* \"#utility.yul\":10693:10757   */\n      tag_501\n      jump\t// in\n    tag_500:\n        /* \"#utility.yul\":10773:10859   */\n      tag_502\n        /* \"#utility.yul\":10852:10858   */\n      dup2\n        /* \"#utility.yul\":10847:10850   */\n      dup6\n        /* \"#utility.yul\":10773:10859   */\n      tag_503\n      jump\t// in\n    tag_502:\n        /* \"#utility.yul\":10766:10859   */\n      swap4\n      pop\n        /* \"#utility.yul\":10885:10888   */\n      dup4\n        /* \"#utility.yul\":10930:10934   */\n      0x20\n        /* \"#utility.yul\":10922:10928   */\n      dup3\n        /* \"#utility.yul\":10918:10935   */\n      mul\n        /* \"#utility.yul\":10913:10916   */\n      dup6\n        /* \"#utility.yul\":10909:10936   */\n      add\n        /* \"#utility.yul\":10960:11026   */\n      tag_504\n        /* \"#utility.yul\":11020:11025   */\n      dup6\n        /* \"#utility.yul\":10960:11026   */\n      tag_505\n      jump\t// in\n    tag_504:\n        /* \"#utility.yul\":11049:11056   */\n      dup1\n        /* \"#utility.yul\":11080:11081   */\n      0x00\n        /* \"#utility.yul\":11065:11461   */\n    tag_506:\n        /* \"#utility.yul\":11090:11096   */\n      dup6\n        /* \"#utility.yul\":11087:11088   */\n      dup2\n        /* \"#utility.yul\":11084:11097   */\n      lt\n        /* \"#utility.yul\":11065:11461   */\n      iszero\n      tag_508\n      jumpi\n        /* \"#utility.yul\":11161:11170   */\n      dup5\n        /* \"#utility.yul\":11155:11159   */\n      dup5\n        /* \"#utility.yul\":11151:11171   */\n      sub\n        /* \"#utility.yul\":11146:11149   */\n      dup10\n        /* \"#utility.yul\":11139:11172   */\n      mstore\n        /* \"#utility.yul\":11212:11218   */\n      dup2\n        /* \"#utility.yul\":11206:11219   */\n      mload\n        /* \"#utility.yul\":11240:11324   */\n      tag_509\n        /* \"#utility.yul\":11319:11323   */\n      dup6\n        /* \"#utility.yul\":11304:11317   */\n      dup3\n        /* \"#utility.yul\":11240:11324   */\n      tag_490\n      jump\t// in\n    tag_509:\n        /* \"#utility.yul\":11232:11324   */\n      swap5\n      pop\n        /* \"#utility.yul\":11347:11417   */\n      tag_510\n        /* \"#utility.yul\":11410:11416   */\n      dup4\n        /* \"#utility.yul\":11347:11417   */\n      tag_511\n      jump\t// in\n    tag_510:\n        /* \"#utility.yul\":11337:11417   */\n      swap3\n      pop\n        /* \"#utility.yul\":11446:11450   */\n      0x20\n        /* \"#utility.yul\":11441:11444   */\n      dup11\n        /* \"#utility.yul\":11437:11451   */\n      add\n        /* \"#utility.yul\":11430:11451   */\n      swap10\n      pop\n        /* \"#utility.yul\":11125:11461   */\n      pop\n        /* \"#utility.yul\":11112:11113   */\n      0x01\n        /* \"#utility.yul\":11109:11110   */\n      dup2\n        /* \"#utility.yul\":11105:11114   */\n      add\n        /* \"#utility.yul\":11100:11114   */\n      swap1\n      pop\n        /* \"#utility.yul\":11065:11461   */\n      jump(tag_506)\n    tag_508:\n        /* \"#utility.yul\":11069:11083   */\n      pop\n        /* \"#utility.yul\":11477:11481   */\n      dup3\n        /* \"#utility.yul\":11470:11481   */\n      swap8\n      pop\n        /* \"#utility.yul\":11497:11500   */\n      dup8\n        /* \"#utility.yul\":11490:11500   */\n      swap6\n      pop\n        /* \"#utility.yul\":10669:11506   */\n      pop\n      pop\n      pop\n      pop\n      pop\n        /* \"#utility.yul\":10535:11506   */\n      swap3\n      swap2\n      pop\n      pop\n      jump\t// out\n        /* \"#utility.yul\":11512:11856   */\n    tag_493:\n        /* \"#utility.yul\":11590:11593   */\n      0x00\n        /* \"#utility.yul\":11618:11657   */\n      tag_513\n        /* \"#utility.yul\":11651:11656   */\n      dup3\n        /* \"#utility.yul\":11618:11657   */\n      tag_514\n      jump\t// in\n    tag_513:\n        /* \"#utility.yul\":11673:11734   */\n      tag_515\n        /* \"#utility.yul\":11727:11733   */\n      dup2\n        /* \"#utility.yul\":11722:11725   */\n      dup6\n        /* \"#utility.yul\":11673:11734   */\n      tag_516\n      jump\t// in\n    tag_515:\n        /* \"#utility.yul\":11666:11734   */\n      swap4\n      pop\n        /* \"#utility.yul\":11743:11795   */\n      tag_517\n        /* \"#utility.yul\":11788:11794   */\n      dup2\n        /* \"#utility.yul\":11783:11786   */\n      dup6\n        /* \"#utility.yul\":11776:11780   */\n      0x20\n        /* \"#utility.yul\":11769:11774   */\n      dup7\n        /* \"#utility.yul\":11765:11781   */\n      add\n        /* \"#utility.yul\":11743:11795   */\n      tag_518\n      jump\t// in\n    tag_517:\n        /* \"#utility.yul\":11820:11849   */\n      tag_519\n        /* \"#utility.yul\":11842:11848   */\n      dup2\n        /* \"#utility.yul\":11820:11849   */\n      tag_520\n      jump\t// in\n    tag_519:\n        /* \"#utility.yul\":11815:11818   */\n      dup5\n        /* \"#utility.yul\":11811:11850   */\n      add\n        /* \"#utility.yul\":11804:11850   */\n      swap2\n      pop\n        /* \"#utility.yul\":11594:11856   */\n      pop\n        /* \"#utility.yul\":11512:11856   */\n      swap3\n      swap2\n      pop\n      pop\n      jump\t// out\n        /* \"#utility.yul\":11862:12226   */\n    tag_521:\n        /* \"#utility.yul\":11950:11953   */\n      0x00\n        /* \"#utility.yul\":11978:12017   */\n      tag_523\n        /* \"#utility.yul\":12011:12016   */\n      dup3\n        /* \"#utility.yul\":11978:12017   */\n      tag_514\n      jump\t// in\n    tag_523:\n        /* \"#utility.yul\":12033:12104   */\n      tag_524\n        /* \"#utility.yul\":12097:12103   */\n      dup2\n        /* \"#utility.yul\":12092:12095   */\n      dup6\n        /* \"#utility.yul\":12033:12104   */\n      tag_525\n      jump\t// in\n    tag_524:\n        /* \"#utility.yul\":12026:12104   */\n      swap4\n      pop\n        /* \"#utility.yul\":12113:12165   */\n      tag_526\n        /* \"#utility.yul\":12158:12164   */\n      dup2\n        /* \"#utility.yul\":12153:12156   */\n      dup6\n        /* \"#utility.yul\":12146:12150   */\n      0x20\n        /* \"#utility.yul\":12139:12144   */\n      dup7\n        /* \"#utility.yul\":12135:12151   */\n      add\n        /* \"#utility.yul\":12113:12165   */\n      tag_518\n      jump\t// in\n    tag_526:\n        /* \"#utility.yul\":12190:12219   */\n      tag_527\n        /* \"#utility.yul\":12212:12218   */\n      dup2\n        /* \"#utility.yul\":12190:12219   */\n      tag_520\n      jump\t// in\n    tag_527:\n        /* \"#utility.yul\":12185:12188   */\n      dup5\n        /* \"#utility.yul\":12181:12220   */\n      add\n        /* \"#utility.yul\":12174:12220   */\n      swap2\n      pop\n        /* \"#utility.yul\":11954:12226   */\n      pop\n        /* \"#utility.yul\":11862:12226   */\n      swap3\n      swap2\n      pop\n      pop\n      jump\t// out\n        /* \"#utility.yul\":12312:13119   */\n    tag_528:\n        /* \"#utility.yul\":12453:12456   */\n      0x00\n        /* \"#utility.yul\":12489:12493   */\n      0x40\n        /* \"#utility.yul\":12484:12487   */\n      dup4\n        /* \"#utility.yul\":12480:12494   */\n      add\n        /* \"#utility.yul\":12583:12587   */\n      0x00\n        /* \"#utility.yul\":12576:12581   */\n      dup4\n        /* \"#utility.yul\":12572:12588   */\n      add\n        /* \"#utility.yul\":12566:12589   */\n      mload\n        /* \"#utility.yul\":12636:12639   */\n      dup5\n        /* \"#utility.yul\":12630:12634   */\n      dup3\n        /* \"#utility.yul\":12626:12640   */\n      sub\n        /* \"#utility.yul\":12619:12623   */\n      0x00\n        /* \"#utility.yul\":12614:12617   */\n      dup7\n        /* \"#utility.yul\":12610:12624   */\n      add\n        /* \"#utility.yul\":12603:12641   */\n      mstore\n        /* \"#utility.yul\":12662:12785   */\n      tag_530\n        /* \"#utility.yul\":12780:12784   */\n      dup3\n        /* \"#utility.yul\":12766:12778   */\n      dup3\n        /* \"#utility.yul\":12662:12785   */\n      tag_498\n      jump\t// in\n    tag_530:\n        /* \"#utility.yul\":12654:12785   */\n      swap2\n      pop\n        /* \"#utility.yul\":12504:12796   */\n      pop\n        /* \"#utility.yul\":12879:12883   */\n      0x20\n        /* \"#utility.yul\":12872:12877   */\n      dup4\n        /* \"#utility.yul\":12868:12884   */\n      add\n        /* \"#utility.yul\":12862:12885   */\n      mload\n        /* \"#utility.yul\":12932:12935   */\n      dup5\n        /* \"#utility.yul\":12926:12930   */\n      dup3\n        /* \"#utility.yul\":12922:12936   */\n      sub\n        /* \"#utility.yul\":12915:12919   */\n      0x20\n        /* \"#utility.yul\":12910:12913   */\n      dup7\n        /* \"#utility.yul\":12906:12920   */\n      add\n        /* \"#utility.yul\":12899:12937   */\n      mstore\n        /* \"#utility.yul\":12958:13081   */\n      tag_531\n        /* \"#utility.yul\":13076:13080   */\n      dup3\n        /* \"#utility.yul\":13062:13074   */\n      dup3\n        /* \"#utility.yul\":12958:13081   */\n      tag_498\n      jump\t// in\n    tag_531:\n        /* \"#utility.yul\":12950:13081   */\n      swap2\n      pop\n        /* \"#utility.yul\":12806:13092   */\n      pop\n        /* \"#utility.yul\":13109:13113   */\n      dup1\n        /* \"#utility.yul\":13102:13113   */\n      swap2\n      pop\n        /* \"#utility.yul\":12458:13119   */\n      pop\n        /* \"#utility.yul\":12312:13119   */\n      swap3\n      swap2\n      pop\n      pop\n      jump\t// out\n        /* \"#utility.yul\":13201:14701   */\n    tag_532:\n        /* \"#utility.yul\":13336:13339   */\n      0x00\n        /* \"#utility.yul\":13372:13376   */\n      0xa0\n        /* \"#utility.yul\":13367:13370   */\n      dup4\n        /* \"#utility.yul\":13363:13377   */\n      add\n        /* \"#utility.yul\":13466:13470   */\n      0x00\n        /* \"#utility.yul\":13459:13464   */\n      dup4\n        /* \"#utility.yul\":13455:13471   */\n      add\n        /* \"#utility.yul\":13449:13472   */\n      mload\n        /* \"#utility.yul\":13519:13522   */\n      dup5\n        /* \"#utility.yul\":13513:13517   */\n      dup3\n        /* \"#utility.yul\":13509:13523   */\n      sub\n        /* \"#utility.yul\":13502:13506   */\n      0x00\n        /* \"#utility.yul\":13497:13500   */\n      dup7\n        /* \"#utility.yul\":13493:13507   */\n      add\n        /* \"#utility.yul\":13486:13524   */\n      mstore\n        /* \"#utility.yul\":13545:13618   */\n      tag_534\n        /* \"#utility.yul\":13613:13617   */\n      dup3\n        /* \"#utility.yul\":13599:13611   */\n      dup3\n        /* \"#utility.yul\":13545:13618   */\n      tag_493\n      jump\t// in\n    tag_534:\n        /* \"#utility.yul\":13537:13618   */\n      swap2\n      pop\n        /* \"#utility.yul\":13387:13629   */\n      pop\n        /* \"#utility.yul\":13715:13719   */\n      0x20\n        /* \"#utility.yul\":13708:13713   */\n      dup4\n        /* \"#utility.yul\":13704:13720   */\n      add\n        /* \"#utility.yul\":13698:13721   */\n      mload\n        /* \"#utility.yul\":13768:13771   */\n      dup5\n        /* \"#utility.yul\":13762:13766   */\n      dup3\n        /* \"#utility.yul\":13758:13772   */\n      sub\n        /* \"#utility.yul\":13751:13755   */\n      0x20\n        /* \"#utility.yul\":13746:13749   */\n      dup7\n        /* \"#utility.yul\":13742:13756   */\n      add\n        /* \"#utility.yul\":13735:13773   */\n      mstore\n        /* \"#utility.yul\":13794:13867   */\n      tag_535\n        /* \"#utility.yul\":13862:13866   */\n      dup3\n        /* \"#utility.yul\":13848:13860   */\n      dup3\n        /* \"#utility.yul\":13794:13867   */\n      tag_493\n      jump\t// in\n    tag_535:\n        /* \"#utility.yul\":13786:13867   */\n      swap2\n      pop\n        /* \"#utility.yul\":13639:13878   */\n      pop\n        /* \"#utility.yul\":13965:13969   */\n      0x40\n        /* \"#utility.yul\":13958:13963   */\n      dup4\n        /* \"#utility.yul\":13954:13970   */\n      add\n        /* \"#utility.yul\":13948:13971   */\n      mload\n        /* \"#utility.yul\":14018:14021   */\n      dup5\n        /* \"#utility.yul\":14012:14016   */\n      dup3\n        /* \"#utility.yul\":14008:14022   */\n      sub\n        /* \"#utility.yul\":14001:14005   */\n      0x40\n        /* \"#utility.yul\":13996:13999   */\n      dup7\n        /* \"#utility.yul\":13992:14006   */\n      add\n        /* \"#utility.yul\":13985:14023   */\n      mstore\n        /* \"#utility.yul\":14044:14117   */\n      tag_536\n        /* \"#utility.yul\":14112:14116   */\n      dup3\n        /* \"#utility.yul\":14098:14110   */\n      dup3\n        /* \"#utility.yul\":14044:14117   */\n      tag_493\n      jump\t// in\n    tag_536:\n        /* \"#utility.yul\":14036:14117   */\n      swap2\n      pop\n        /* \"#utility.yul\":13888:14128   */\n      pop\n        /* \"#utility.yul\":14213:14217   */\n      0x60\n        /* \"#utility.yul\":14206:14211   */\n      dup4\n        /* \"#utility.yul\":14202:14218   */\n      add\n        /* \"#utility.yul\":14196:14219   */\n      mload\n        /* \"#utility.yul\":14266:14269   */\n      dup5\n        /* \"#utility.yul\":14260:14264   */\n      dup3\n        /* \"#utility.yul\":14256:14270   */\n      sub\n        /* \"#utility.yul\":14249:14253   */\n      0x60\n        /* \"#utility.yul\":14244:14247   */\n      dup7\n        /* \"#utility.yul\":14240:14254   */\n      add\n        /* \"#utility.yul\":14233:14271   */\n      mstore\n        /* \"#utility.yul\":14292:14365   */\n      tag_537\n        /* \"#utility.yul\":14360:14364   */\n      dup3\n        /* \"#utility.yul\":14346:14358   */\n      dup3\n        /* \"#utility.yul\":14292:14365   */\n      tag_493\n      jump\t// in\n    tag_537:\n        /* \"#utility.yul\":14284:14365   */\n      swap2\n      pop\n        /* \"#utility.yul\":14138:14376   */\n      pop\n        /* \"#utility.yul\":14461:14465   */\n      0x80\n        /* \"#utility.yul\":14454:14459   */\n      dup4\n        /* \"#utility.yul\":14450:14466   */\n      add\n        /* \"#utility.yul\":14444:14467   */\n      mload\n        /* \"#utility.yul\":14514:14517   */\n      dup5\n        /* \"#utility.yul\":14508:14512   */\n      dup3\n        /* \"#utility.yul\":14504:14518   */\n      sub\n        /* \"#utility.yul\":14497:14501   */\n      0x80\n        /* \"#utility.yul\":14492:14495   */\n      dup7\n        /* \"#utility.yul\":14488:14502   */\n      add\n        /* \"#utility.yul\":14481:14519   */\n      mstore\n        /* \"#utility.yul\":14540:14663   */\n      tag_538\n        /* \"#utility.yul\":14658:14662   */\n      dup3\n        /* \"#utility.yul\":14644:14656   */\n      dup3\n        /* \"#utility.yul\":14540:14663   */\n      tag_498\n      jump\t// in\n    tag_538:\n        /* \"#utility.yul\":14532:14663   */\n      swap2\n      pop\n        /* \"#utility.yul\":14386:14674   */\n      pop\n        /* \"#utility.yul\":14691:14695   */\n      dup1\n        /* \"#utility.yul\":14684:14695   */\n      swap2\n      pop\n        /* \"#utility.yul\":13341:14701   */\n      pop\n        /* \"#utility.yul\":13201:14701   */\n      swap3\n      swap2\n      pop\n      pop\n      jump\t// out\n        /* \"#utility.yul\":14765:16431   */\n    tag_539:\n        /* \"#utility.yul\":14882:14885   */\n      0x00\n        /* \"#utility.yul\":14918:14922   */\n      0xc0\n        /* \"#utility.yul\":14913:14916   */\n      dup4\n        /* \"#utility.yul\":14909:14923   */\n      add\n        /* \"#utility.yul\":15008:15012   */\n      0x00\n        /* \"#utility.yul\":15001:15006   */\n      dup4\n        /* \"#utility.yul\":14997:15013   */\n      add\n        /* \"#utility.yul\":14991:15014   */\n      mload\n        /* \"#utility.yul\":15061:15064   */\n      dup5\n        /* \"#utility.yul\":15055:15059   */\n      dup3\n        /* \"#utility.yul\":15051:15065   */\n      sub\n        /* \"#utility.yul\":15044:15048   */\n      0x00\n        /* \"#utility.yul\":15039:15042   */\n      dup7\n        /* \"#utility.yul\":15035:15049   */\n      add\n        /* \"#utility.yul\":15028:15066   */\n      mstore\n        /* \"#utility.yul\":15087:15160   */\n      tag_541\n        /* \"#utility.yul\":15155:15159   */\n      dup3\n        /* \"#utility.yul\":15141:15153   */\n      dup3\n        /* \"#utility.yul\":15087:15160   */\n      tag_493\n      jump\t// in\n    tag_541:\n        /* \"#utility.yul\":15079:15160   */\n      swap2\n      pop\n        /* \"#utility.yul\":14933:15171   */\n      pop\n        /* \"#utility.yul\":15254:15258   */\n      0x20\n        /* \"#utility.yul\":15247:15252   */\n      dup4\n        /* \"#utility.yul\":15243:15259   */\n      add\n        /* \"#utility.yul\":15237:15260   */\n      mload\n        /* \"#utility.yul\":15307:15310   */\n      dup5\n        /* \"#utility.yul\":15301:15305   */\n      dup3\n        /* \"#utility.yul\":15297:15311   */\n      sub\n        /* \"#utility.yul\":15290:15294   */\n      0x20\n        /* \"#utility.yul\":15285:15288   */\n      dup7\n        /* \"#utility.yul\":15281:15295   */\n      add\n        /* \"#utility.yul\":15274:15312   */\n      mstore\n        /* \"#utility.yul\":15333:15406   */\n      tag_542\n        /* \"#utility.yul\":15401:15405   */\n      dup3\n        /* \"#utility.yul\":15387:15399   */\n      dup3\n        /* \"#utility.yul\":15333:15406   */\n      tag_493\n      jump\t// in\n    tag_542:\n        /* \"#utility.yul\":15325:15406   */\n      swap2\n      pop\n        /* \"#utility.yul\":15181:15417   */\n      pop\n        /* \"#utility.yul\":15500:15504   */\n      0x40\n        /* \"#utility.yul\":15493:15498   */\n      dup4\n        /* \"#utility.yul\":15489:15505   */\n      add\n        /* \"#utility.yul\":15483:15506   */\n      mload\n        /* \"#utility.yul\":15553:15556   */\n      dup5\n        /* \"#utility.yul\":15547:15551   */\n      dup3\n        /* \"#utility.yul\":15543:15557   */\n      sub\n        /* \"#utility.yul\":15536:15540   */\n      0x40\n        /* \"#utility.yul\":15531:15534   */\n      dup7\n        /* \"#utility.yul\":15527:15541   */\n      add\n        /* \"#utility.yul\":15520:15558   */\n      mstore\n        /* \"#utility.yul\":15579:15652   */\n      tag_543\n        /* \"#utility.yul\":15647:15651   */\n      dup3\n        /* \"#utility.yul\":15633:15645   */\n      dup3\n        /* \"#utility.yul\":15579:15652   */\n      tag_493\n      jump\t// in\n    tag_543:\n        /* \"#utility.yul\":15571:15652   */\n      swap2\n      pop\n        /* \"#utility.yul\":15427:15663   */\n      pop\n        /* \"#utility.yul\":15747:15751   */\n      0x60\n        /* \"#utility.yul\":15740:15745   */\n      dup4\n        /* \"#utility.yul\":15736:15752   */\n      add\n        /* \"#utility.yul\":15730:15753   */\n      mload\n        /* \"#utility.yul\":15800:15803   */\n      dup5\n        /* \"#utility.yul\":15794:15798   */\n      dup3\n        /* \"#utility.yul\":15790:15804   */\n      sub\n        /* \"#utility.yul\":15783:15787   */\n      0x60\n        /* \"#utility.yul\":15778:15781   */\n      dup7\n        /* \"#utility.yul\":15774:15788   */\n      add\n        /* \"#utility.yul\":15767:15805   */\n      mstore\n        /* \"#utility.yul\":15826:15899   */\n      tag_544\n        /* \"#utility.yul\":15894:15898   */\n      dup3\n        /* \"#utility.yul\":15880:15892   */\n      dup3\n        /* \"#utility.yul\":15826:15899   */\n      tag_493\n      jump\t// in\n    tag_544:\n        /* \"#utility.yul\":15818:15899   */\n      swap2\n      pop\n        /* \"#utility.yul\":15673:15910   */\n      pop\n        /* \"#utility.yul\":15994:15998   */\n      0x80\n        /* \"#utility.yul\":15987:15992   */\n      dup4\n        /* \"#utility.yul\":15983:15999   */\n      add\n        /* \"#utility.yul\":15977:16000   */\n      mload\n        /* \"#utility.yul\":16047:16050   */\n      dup5\n        /* \"#utility.yul\":16041:16045   */\n      dup3\n        /* \"#utility.yul\":16037:16051   */\n      sub\n        /* \"#utility.yul\":16030:16034   */\n      0x80\n        /* \"#utility.yul\":16025:16028   */\n      dup7\n        /* \"#utility.yul\":16021:16035   */\n      add\n        /* \"#utility.yul\":16014:16052   */\n      mstore\n        /* \"#utility.yul\":16073:16146   */\n      tag_545\n        /* \"#utility.yul\":16141:16145   */\n      dup3\n        /* \"#utility.yul\":16127:16139   */\n      dup3\n        /* \"#utility.yul\":16073:16146   */\n      tag_493\n      jump\t// in\n    tag_545:\n        /* \"#utility.yul\":16065:16146   */\n      swap2\n      pop\n        /* \"#utility.yul\":15920:16157   */\n      pop\n        /* \"#utility.yul\":16241:16245   */\n      0xa0\n        /* \"#utility.yul\":16234:16239   */\n      dup4\n        /* \"#utility.yul\":16230:16246   */\n      add\n        /* \"#utility.yul\":16224:16247   */\n      mload\n        /* \"#utility.yul\":16294:16297   */\n      dup5\n        /* \"#utility.yul\":16288:16292   */\n      dup3\n        /* \"#utility.yul\":16284:16298   */\n      sub\n        /* \"#utility.yul\":16277:16281   */\n      0xa0\n        /* \"#utility.yul\":16272:16275   */\n      dup7\n        /* \"#utility.yul\":16268:16282   */\n      add\n        /* \"#utility.yul\":16261:16299   */\n      mstore\n        /* \"#utility.yul\":16320:16393   */\n      tag_546\n        /* \"#utility.yul\":16388:16392   */\n      dup3\n        /* \"#utility.yul\":16374:16386   */\n      dup3\n        /* \"#utility.yul\":16320:16393   */\n      tag_493\n      jump\t// in\n    tag_546:\n        /* \"#utility.yul\":16312:16393   */\n      swap2\n      pop\n        /* \"#utility.yul\":16167:16404   */\n      pop\n        /* \"#utility.yul\":16421:16425   */\n      dup1\n        /* \"#utility.yul\":16414:16425   */\n      swap2\n      pop\n        /* \"#utility.yul\":14887:16431   */\n      pop\n        /* \"#utility.yul\":14765:16431   */\n      swap3\n      swap2\n      pop\n      pop\n      jump\t// out\n        /* \"#utility.yul\":16517:17223   */\n    tag_547:\n        /* \"#utility.yul\":16656:16659   */\n      0x00\n        /* \"#utility.yul\":16692:16696   */\n      0x40\n        /* \"#utility.yul\":16687:16690   */\n      dup4\n        /* \"#utility.yul\":16683:16697   */\n      add\n        /* \"#utility.yul\":16786:16790   */\n      0x00\n        /* \"#utility.yul\":16779:16784   */\n      dup4\n        /* \"#utility.yul\":16775:16791   */\n      add\n        /* \"#utility.yul\":16769:16792   */\n      mload\n        /* \"#utility.yul\":16839:16842   */\n      dup5\n        /* \"#utility.yul\":16833:16837   */\n      dup3\n        /* \"#utility.yul\":16829:16843   */\n      sub\n        /* \"#utility.yul\":16822:16826   */\n      0x00\n        /* \"#utility.yul\":16817:16820   */\n      dup7\n        /* \"#utility.yul\":16813:16827   */\n      add\n        /* \"#utility.yul\":16806:16844   */\n      mstore\n        /* \"#utility.yul\":16865:16938   */\n      tag_549\n        /* \"#utility.yul\":16933:16937   */\n      dup3\n        /* \"#utility.yul\":16919:16931   */\n      dup3\n        /* \"#utility.yul\":16865:16938   */\n      tag_493\n      jump\t// in\n    tag_549:\n        /* \"#utility.yul\":16857:16938   */\n      swap2\n      pop\n        /* \"#utility.yul\":16707:16949   */\n      pop\n        /* \"#utility.yul\":17033:17037   */\n      0x20\n        /* \"#utility.yul\":17026:17031   */\n      dup4\n        /* \"#utility.yul\":17022:17038   */\n      add\n        /* \"#utility.yul\":17016:17039   */\n      mload\n        /* \"#utility.yul\":17086:17089   */\n      dup5\n        /* \"#utility.yul\":17080:17084   */\n      dup3\n        /* \"#utility.yul\":17076:17090   */\n      sub\n        /* \"#utility.yul\":17069:17073   */\n      0x20\n        /* \"#utility.yul\":17064:17067   */\n      dup7\n        /* \"#utility.yul\":17060:17074   */\n      add\n        /* \"#utility.yul\":17053:17091   */\n      mstore\n        /* \"#utility.yul\":17112:17185   */\n      tag_550\n        /* \"#utility.yul\":17180:17184   */\n      dup3\n        /* \"#utility.yul\":17166:17178   */\n      dup3\n        /* \"#utility.yul\":17112:17185   */\n      tag_493\n      jump\t// in\n    tag_550:\n        /* \"#utility.yul\":17104:17185   */\n      swap2\n      pop\n        /* \"#utility.yul\":16959:17196   */\n      pop\n        /* \"#utility.yul\":17213:17217   */\n      dup1\n        /* \"#utility.yul\":17206:17217   */\n      swap2\n      pop\n        /* \"#utility.yul\":16661:17223   */\n      pop\n        /* \"#utility.yul\":16517:17223   */\n      swap3\n      swap2\n      pop\n      pop\n      jump\t// out\n        /* \"#utility.yul\":17293:19347   */\n    tag_551:\n        /* \"#utility.yul\":17416:17419   */\n      0x00\n        /* \"#utility.yul\":17452:17458   */\n      0x0100\n        /* \"#utility.yul\":17447:17450   */\n      dup4\n        /* \"#utility.yul\":17443:17459   */\n      add\n        /* \"#utility.yul\":17544:17548   */\n      0x00\n        /* \"#utility.yul\":17537:17542   */\n      dup4\n        /* \"#utility.yul\":17533:17549   */\n      add\n        /* \"#utility.yul\":17527:17550   */\n      mload\n        /* \"#utility.yul\":17597:17600   */\n      dup5\n        /* \"#utility.yul\":17591:17595   */\n      dup3\n        /* \"#utility.yul\":17587:17601   */\n      sub\n        /* \"#utility.yul\":17580:17584   */\n      0x00\n        /* \"#utility.yul\":17575:17578   */\n      dup7\n        /* \"#utility.yul\":17571:17585   */\n      add\n        /* \"#utility.yul\":17564:17602   */\n      mstore\n        /* \"#utility.yul\":17623:17696   */\n      tag_553\n        /* \"#utility.yul\":17691:17695   */\n      dup3\n        /* \"#utility.yul\":17677:17689   */\n      dup3\n        /* \"#utility.yul\":17623:17696   */\n      tag_493\n      jump\t// in\n    tag_553:\n        /* \"#utility.yul\":17615:17696   */\n      swap2\n      pop\n        /* \"#utility.yul\":17469:17707   */\n      pop\n        /* \"#utility.yul\":17793:17797   */\n      0x20\n        /* \"#utility.yul\":17786:17791   */\n      dup4\n        /* \"#utility.yul\":17782:17798   */\n      add\n        /* \"#utility.yul\":17776:17799   */\n      mload\n        /* \"#utility.yul\":17846:17849   */\n      dup5\n        /* \"#utility.yul\":17840:17844   */\n      dup3\n        /* \"#utility.yul\":17836:17850   */\n      sub\n        /* \"#utility.yul\":17829:17833   */\n      0x20\n        /* \"#utility.yul\":17824:17827   */\n      dup7\n        /* \"#utility.yul\":17820:17834   */\n      add\n        /* \"#utility.yul\":17813:17851   */\n      mstore\n        /* \"#utility.yul\":17872:17945   */\n      tag_554\n        /* \"#utility.yul\":17940:17944   */\n      dup3\n        /* \"#utility.yul\":17926:17938   */\n      dup3\n        /* \"#utility.yul\":17872:17945   */\n      tag_493\n      jump\t// in\n    tag_554:\n        /* \"#utility.yul\":17864:17945   */\n      swap2\n      pop\n        /* \"#utility.yul\":17717:17956   */\n      pop\n        /* \"#utility.yul\":18045:18049   */\n      0x40\n        /* \"#utility.yul\":18038:18043   */\n      dup4\n        /* \"#utility.yul\":18034:18050   */\n      add\n        /* \"#utility.yul\":18028:18051   */\n      mload\n        /* \"#utility.yul\":18064:18127   */\n      tag_555\n        /* \"#utility.yul\":18121:18125   */\n      0x40\n        /* \"#utility.yul\":18116:18119   */\n      dup7\n        /* \"#utility.yul\":18112:18126   */\n      add\n        /* \"#utility.yul\":18098:18110   */\n      dup3\n        /* \"#utility.yul\":18064:18127   */\n      tag_494\n      jump\t// in\n    tag_555:\n        /* \"#utility.yul\":17966:18137   */\n      pop\n        /* \"#utility.yul\":18224:18228   */\n      0x60\n        /* \"#utility.yul\":18217:18222   */\n      dup4\n        /* \"#utility.yul\":18213:18229   */\n      add\n        /* \"#utility.yul\":18207:18230   */\n      mload\n        /* \"#utility.yul\":18277:18280   */\n      dup5\n        /* \"#utility.yul\":18271:18275   */\n      dup3\n        /* \"#utility.yul\":18267:18281   */\n      sub\n        /* \"#utility.yul\":18260:18264   */\n      0x60\n        /* \"#utility.yul\":18255:18258   */\n      dup7\n        /* \"#utility.yul\":18251:18265   */\n      add\n        /* \"#utility.yul\":18244:18282   */\n      mstore\n        /* \"#utility.yul\":18303:18376   */\n      tag_556\n        /* \"#utility.yul\":18371:18375   */\n      dup3\n        /* \"#utility.yul\":18357:18369   */\n      dup3\n        /* \"#utility.yul\":18303:18376   */\n      tag_493\n      jump\t// in\n    tag_556:\n        /* \"#utility.yul\":18295:18376   */\n      swap2\n      pop\n        /* \"#utility.yul\":18147:18387   */\n      pop\n        /* \"#utility.yul\":18475:18479   */\n      0x80\n        /* \"#utility.yul\":18468:18473   */\n      dup4\n        /* \"#utility.yul\":18464:18480   */\n      add\n        /* \"#utility.yul\":18458:18481   */\n      mload\n        /* \"#utility.yul\":18528:18531   */\n      dup5\n        /* \"#utility.yul\":18522:18526   */\n      dup3\n        /* \"#utility.yul\":18518:18532   */\n      sub\n        /* \"#utility.yul\":18511:18515   */\n      0x80\n        /* \"#utility.yul\":18506:18509   */\n      dup7\n        /* \"#utility.yul\":18502:18516   */\n      add\n        /* \"#utility.yul\":18495:18533   */\n      mstore\n        /* \"#utility.yul\":18554:18627   */\n      tag_557\n        /* \"#utility.yul\":18622:18626   */\n      dup3\n        /* \"#utility.yul\":18608:18620   */\n      dup3\n        /* \"#utility.yul\":18554:18627   */\n      tag_493\n      jump\t// in\n    tag_557:\n        /* \"#utility.yul\":18546:18627   */\n      swap2\n      pop\n        /* \"#utility.yul\":18397:18638   */\n      pop\n        /* \"#utility.yul\":18724:18728   */\n      0xa0\n        /* \"#utility.yul\":18717:18722   */\n      dup4\n        /* \"#utility.yul\":18713:18729   */\n      add\n        /* \"#utility.yul\":18707:18730   */\n      mload\n        /* \"#utility.yul\":18777:18780   */\n      dup5\n        /* \"#utility.yul\":18771:18775   */\n      dup3\n        /* \"#utility.yul\":18767:18781   */\n      sub\n        /* \"#utility.yul\":18760:18764   */\n      0xa0\n        /* \"#utility.yul\":18755:18758   */\n      dup7\n        /* \"#utility.yul\":18751:18765   */\n      add\n        /* \"#utility.yul\":18744:18782   */\n      mstore\n        /* \"#utility.yul\":18803:18876   */\n      tag_558\n        /* \"#utility.yul\":18871:18875   */\n      dup3\n        /* \"#utility.yul\":18857:18869   */\n      dup3\n        /* \"#utility.yul\":18803:18876   */\n      tag_493\n      jump\t// in\n    tag_558:\n        /* \"#utility.yul\":18795:18876   */\n      swap2\n      pop\n        /* \"#utility.yul\":18648:18887   */\n      pop\n        /* \"#utility.yul\":18977:18981   */\n      0xc0\n        /* \"#utility.yul\":18970:18975   */\n      dup4\n        /* \"#utility.yul\":18966:18982   */\n      add\n        /* \"#utility.yul\":18960:18983   */\n      mload\n        /* \"#utility.yul\":19030:19033   */\n      dup5\n        /* \"#utility.yul\":19024:19028   */\n      dup3\n        /* \"#utility.yul\":19020:19034   */\n      sub\n        /* \"#utility.yul\":19013:19017   */\n      0xc0\n        /* \"#utility.yul\":19008:19011   */\n      dup7\n        /* \"#utility.yul\":19004:19018   */\n      add\n        /* \"#utility.yul\":18997:19035   */\n      mstore\n        /* \"#utility.yul\":19056:19129   */\n      tag_559\n        /* \"#utility.yul\":19124:19128   */\n      dup3\n        /* \"#utility.yul\":19110:19122   */\n      dup3\n        /* \"#utility.yul\":19056:19129   */\n      tag_493\n      jump\t// in\n    tag_559:\n        /* \"#utility.yul\":19048:19129   */\n      swap2\n      pop\n        /* \"#utility.yul\":18897:19140   */\n      pop\n        /* \"#utility.yul\":19228:19232   */\n      0xe0\n        /* \"#utility.yul\":19221:19226   */\n      dup4\n        /* \"#utility.yul\":19217:19233   */\n      add\n        /* \"#utility.yul\":19211:19234   */\n      mload\n        /* \"#utility.yul\":19247:19310   */\n      tag_560\n        /* \"#utility.yul\":19304:19308   */\n      0xe0\n        /* \"#utility.yul\":19299:19302   */\n      dup7\n        /* \"#utility.yul\":19295:19309   */\n      add\n        /* \"#utility.yul\":19281:19293   */\n      dup3\n        /* \"#utility.yul\":19247:19310   */\n      tag_561\n      jump\t// in\n    tag_560:\n        /* \"#utility.yul\":19150:19320   */\n      pop\n        /* \"#utility.yul\":19337:19341   */\n      dup1\n        /* \"#utility.yul\":19330:19341   */\n      swap2\n      pop\n        /* \"#utility.yul\":17421:19347   */\n      pop\n        /* \"#utility.yul\":17293:19347   */\n      swap3\n      swap2\n      pop\n      pop\n      jump\t// out\n        /* \"#utility.yul\":19405:20502   */\n    tag_562:\n        /* \"#utility.yul\":19516:19519   */\n      0x00\n        /* \"#utility.yul\":19552:19556   */\n      0x60\n        /* \"#utility.yul\":19547:19550   */\n      dup4\n        /* \"#utility.yul\":19543:19557   */\n      add\n        /* \"#utility.yul\":19655:19659   */\n      0x00\n        /* \"#utility.yul\":19648:19653   */\n      dup4\n        /* \"#utility.yul\":19644:19660   */\n      add\n        /* \"#utility.yul\":19638:19661   */\n      mload\n        /* \"#utility.yul\":19708:19711   */\n      dup5\n        /* \"#utility.yul\":19702:19706   */\n      dup3\n        /* \"#utility.yul\":19698:19712   */\n      sub\n        /* \"#utility.yul\":19691:19695   */\n      0x00\n        /* \"#utility.yul\":19686:19689   */\n      dup7\n        /* \"#utility.yul\":19682:19696   */\n      add\n        /* \"#utility.yul\":19675:19713   */\n      mstore\n        /* \"#utility.yul\":19734:19857   */\n      tag_564\n        /* \"#utility.yul\":19852:19856   */\n      dup3\n        /* \"#utility.yul\":19838:19850   */\n      dup3\n        /* \"#utility.yul\":19734:19857   */\n      tag_498\n      jump\t// in\n    tag_564:\n        /* \"#utility.yul\":19726:19857   */\n      swap2\n      pop\n        /* \"#utility.yul\":19567:19868   */\n      pop\n        /* \"#utility.yul\":19955:19959   */\n      0x20\n        /* \"#utility.yul\":19948:19953   */\n      dup4\n        /* \"#utility.yul\":19944:19960   */\n      add\n        /* \"#utility.yul\":19938:19961   */\n      mload\n        /* \"#utility.yul\":20008:20011   */\n      dup5\n        /* \"#utility.yul\":20002:20006   */\n      dup3\n        /* \"#utility.yul\":19998:20012   */\n      sub\n        /* \"#utility.yul\":19991:19995   */\n      0x20\n        /* \"#utility.yul\":19986:19989   */\n      dup7\n        /* \"#utility.yul\":19982:19996   */\n      add\n        /* \"#utility.yul\":19975:20013   */\n      mstore\n        /* \"#utility.yul\":20034:20157   */\n      tag_565\n        /* \"#utility.yul\":20152:20156   */\n      dup3\n        /* \"#utility.yul\":20138:20150   */\n      dup3\n        /* \"#utility.yul\":20034:20157   */\n      tag_498\n      jump\t// in\n    tag_565:\n        /* \"#utility.yul\":20026:20157   */\n      swap2\n      pop\n        /* \"#utility.yul\":19878:20168   */\n      pop\n        /* \"#utility.yul\":20262:20266   */\n      0x40\n        /* \"#utility.yul\":20255:20260   */\n      dup4\n        /* \"#utility.yul\":20251:20267   */\n      add\n        /* \"#utility.yul\":20245:20268   */\n      mload\n        /* \"#utility.yul\":20315:20318   */\n      dup5\n        /* \"#utility.yul\":20309:20313   */\n      dup3\n        /* \"#utility.yul\":20305:20319   */\n      sub\n        /* \"#utility.yul\":20298:20302   */\n      0x40\n        /* \"#utility.yul\":20293:20296   */\n      dup7\n        /* \"#utility.yul\":20289:20303   */\n      add\n        /* \"#utility.yul\":20282:20320   */\n      mstore\n        /* \"#utility.yul\":20341:20464   */\n      tag_566\n        /* \"#utility.yul\":20459:20463   */\n      dup3\n        /* \"#utility.yul\":20445:20457   */\n      dup3\n        /* \"#utility.yul\":20341:20464   */\n      tag_498\n      jump\t// in\n    tag_566:\n        /* \"#utility.yul\":20333:20464   */\n      swap2\n      pop\n        /* \"#utility.yul\":20178:20475   */\n      pop\n        /* \"#utility.yul\":20492:20496   */\n      dup1\n        /* \"#utility.yul\":20485:20496   */\n      swap2\n      pop\n        /* \"#utility.yul\":19521:20502   */\n      pop\n        /* \"#utility.yul\":19405:20502   */\n      swap3\n      swap2\n      pop\n      pop\n      jump\t// out\n        /* \"#utility.yul\":20508:20616   */\n    tag_561:\n        /* \"#utility.yul\":20585:20609   */\n      tag_568\n        /* \"#utility.yul\":20603:20608   */\n      dup2\n        /* \"#utility.yul\":20585:20609   */\n      tag_569\n      jump\t// in\n    tag_568:\n        /* \"#utility.yul\":20580:20583   */\n      dup3\n        /* \"#utility.yul\":20573:20610   */\n      mstore\n        /* \"#utility.yul\":20508:20616   */\n      pop\n      pop\n      jump\t// out\n        /* \"#utility.yul\":20622:20740   */\n    tag_570:\n        /* \"#utility.yul\":20709:20733   */\n      tag_572\n        /* \"#utility.yul\":20727:20732   */\n      dup2\n        /* \"#utility.yul\":20709:20733   */\n      tag_569\n      jump\t// in\n    tag_572:\n        /* \"#utility.yul\":20704:20707   */\n      dup3\n        /* \"#utility.yul\":20697:20734   */\n      mstore\n        /* \"#utility.yul\":20622:20740   */\n      pop\n      pop\n      jump\t// out\n        /* \"#utility.yul\":20746:21865   */\n    tag_62:\n        /* \"#utility.yul\":21051:21055   */\n      0x00\n        /* \"#utility.yul\":21089:21092   */\n      0xa0\n        /* \"#utility.yul\":21078:21087   */\n      dup3\n        /* \"#utility.yul\":21074:21093   */\n      add\n        /* \"#utility.yul\":21066:21093   */\n      swap1\n      pop\n        /* \"#utility.yul\":21139:21148   */\n      dup2\n        /* \"#utility.yul\":21133:21137   */\n      dup2\n        /* \"#utility.yul\":21129:21149   */\n      sub\n        /* \"#utility.yul\":21125:21126   */\n      0x00\n        /* \"#utility.yul\":21114:21123   */\n      dup4\n        /* \"#utility.yul\":21110:21127   */\n      add\n        /* \"#utility.yul\":21103:21150   */\n      mstore\n        /* \"#utility.yul\":21167:21245   */\n      tag_574\n        /* \"#utility.yul\":21240:21244   */\n      dup2\n        /* \"#utility.yul\":21231:21237   */\n      dup9\n        /* \"#utility.yul\":21167:21245   */\n      tag_521\n      jump\t// in\n    tag_574:\n        /* \"#utility.yul\":21159:21245   */\n      swap1\n      pop\n        /* \"#utility.yul\":21292:21301   */\n      dup2\n        /* \"#utility.yul\":21286:21290   */\n      dup2\n        /* \"#utility.yul\":21282:21302   */\n      sub\n        /* \"#utility.yul\":21277:21279   */\n      0x20\n        /* \"#utility.yul\":21266:21275   */\n      dup4\n        /* \"#utility.yul\":21262:21280   */\n      add\n        /* \"#utility.yul\":21255:21303   */\n      mstore\n        /* \"#utility.yul\":21320:21398   */\n      tag_575\n        /* \"#utility.yul\":21393:21397   */\n      dup2\n        /* \"#utility.yul\":21384:21390   */\n      dup8\n        /* \"#utility.yul\":21320:21398   */\n      tag_521\n      jump\t// in\n    tag_575:\n        /* \"#utility.yul\":21312:21398   */\n      swap1\n      pop\n        /* \"#utility.yul\":21445:21454   */\n      dup2\n        /* \"#utility.yul\":21439:21443   */\n      dup2\n        /* \"#utility.yul\":21435:21455   */\n      sub\n        /* \"#utility.yul\":21430:21432   */\n      0x40\n        /* \"#utility.yul\":21419:21428   */\n      dup4\n        /* \"#utility.yul\":21415:21433   */\n      add\n        /* \"#utility.yul\":21408:21456   */\n      mstore\n        /* \"#utility.yul\":21473:21551   */\n      tag_576\n        /* \"#utility.yul\":21546:21550   */\n      dup2\n        /* \"#utility.yul\":21537:21543   */\n      dup7\n        /* \"#utility.yul\":21473:21551   */\n      tag_521\n      jump\t// in\n    tag_576:\n        /* \"#utility.yul\":21465:21551   */\n      swap1\n      pop\n        /* \"#utility.yul\":21598:21607   */\n      dup2\n        /* \"#utility.yul\":21592:21596   */\n      dup2\n        /* \"#utility.yul\":21588:21608   */\n      sub\n        /* \"#utility.yul\":21583:21585   */\n      0x60\n        /* \"#utility.yul\":21572:21581   */\n      dup4\n        /* \"#utility.yul\":21568:21586   */\n      add\n        /* \"#utility.yul\":21561:21609   */\n      mstore\n        /* \"#utility.yul\":21626:21704   */\n      tag_577\n        /* \"#utility.yul\":21699:21703   */\n      dup2\n        /* \"#utility.yul\":21690:21696   */\n      dup6\n        /* \"#utility.yul\":21626:21704   */\n      tag_521\n      jump\t// in\n    tag_577:\n        /* \"#utility.yul\":21618:21704   */\n      swap1\n      pop\n        /* \"#utility.yul\":21752:21761   */\n      dup2\n        /* \"#utility.yul\":21746:21750   */\n      dup2\n        /* \"#utility.yul\":21742:21762   */\n      sub\n        /* \"#utility.yul\":21736:21739   */\n      0x80\n        /* \"#utility.yul\":21725:21734   */\n      dup4\n        /* \"#utility.yul\":21721:21740   */\n      add\n        /* \"#utility.yul\":21714:21763   */\n      mstore\n        /* \"#utility.yul\":21780:21858   */\n      tag_578\n        /* \"#utility.yul\":21853:21857   */\n      dup2\n        /* \"#utility.yul\":21844:21850   */\n      dup5\n        /* \"#utility.yul\":21780:21858   */\n      tag_521\n      jump\t// in\n    tag_578:\n        /* \"#utility.yul\":21772:21858   */\n      swap1\n      pop\n        /* \"#utility.yul\":20746:21865   */\n      swap7\n      swap6\n      pop\n      pop\n      pop\n      pop\n      pop\n      pop\n      jump\t// out\n        /* \"#utility.yul\":21871:23656   */\n    tag_54:\n        /* \"#utility.yul\":22456:22460   */\n      0x00\n        /* \"#utility.yul\":22494:22497   */\n      0xc0\n        /* \"#utility.yul\":22483:22492   */\n      dup3\n        /* \"#utility.yul\":22479:22498   */\n      add\n        /* \"#utility.yul\":22471:22498   */\n      swap1\n      pop\n        /* \"#utility.yul\":22544:22553   */\n      dup2\n        /* \"#utility.yul\":22538:22542   */\n      dup2\n        /* \"#utility.yul\":22534:22554   */\n      sub\n        /* \"#utility.yul\":22530:22531   */\n      0x00\n        /* \"#utility.yul\":22519:22528   */\n      dup4\n        /* \"#utility.yul\":22515:22532   */\n      add\n        /* \"#utility.yul\":22508:22555   */\n      mstore\n        /* \"#utility.yul\":22572:22684   */\n      tag_580\n        /* \"#utility.yul\":22679:22683   */\n      dup2\n        /* \"#utility.yul\":22670:22676   */\n      dup10\n        /* \"#utility.yul\":22572:22684   */\n      tag_551\n      jump\t// in\n    tag_580:\n        /* \"#utility.yul\":22564:22684   */\n      swap1\n      pop\n        /* \"#utility.yul\":22731:22740   */\n      dup2\n        /* \"#utility.yul\":22725:22729   */\n      dup2\n        /* \"#utility.yul\":22721:22741   */\n      sub\n        /* \"#utility.yul\":22716:22718   */\n      0x20\n        /* \"#utility.yul\":22705:22714   */\n      dup4\n        /* \"#utility.yul\":22701:22719   */\n      add\n        /* \"#utility.yul\":22694:22742   */\n      mstore\n        /* \"#utility.yul\":22759:22865   */\n      tag_581\n        /* \"#utility.yul\":22860:22864   */\n      dup2\n        /* \"#utility.yul\":22851:22857   */\n      dup9\n        /* \"#utility.yul\":22759:22865   */\n      tag_539\n      jump\t// in\n    tag_581:\n        /* \"#utility.yul\":22751:22865   */\n      swap1\n      pop\n        /* \"#utility.yul\":22912:22921   */\n      dup2\n        /* \"#utility.yul\":22906:22910   */\n      dup2\n        /* \"#utility.yul\":22902:22922   */\n      sub\n        /* \"#utility.yul\":22897:22899   */\n      0x40\n        /* \"#utility.yul\":22886:22895   */\n      dup4\n        /* \"#utility.yul\":22882:22900   */\n      add\n        /* \"#utility.yul\":22875:22923   */\n      mstore\n        /* \"#utility.yul\":22940:23040   */\n      tag_582\n        /* \"#utility.yul\":23035:23039   */\n      dup2\n        /* \"#utility.yul\":23026:23032   */\n      dup8\n        /* \"#utility.yul\":22940:23040   */\n      tag_562\n      jump\t// in\n    tag_582:\n        /* \"#utility.yul\":22932:23040   */\n      swap1\n      pop\n        /* \"#utility.yul\":23087:23096   */\n      dup2\n        /* \"#utility.yul\":23081:23085   */\n      dup2\n        /* \"#utility.yul\":23077:23097   */\n      sub\n        /* \"#utility.yul\":23072:23074   */\n      0x60\n        /* \"#utility.yul\":23061:23070   */\n      dup4\n        /* \"#utility.yul\":23057:23075   */\n      add\n        /* \"#utility.yul\":23050:23098   */\n      mstore\n        /* \"#utility.yul\":23115:23245   */\n      tag_583\n        /* \"#utility.yul\":23240:23244   */\n      dup2\n        /* \"#utility.yul\":23231:23237   */\n      dup7\n        /* \"#utility.yul\":23115:23245   */\n      tag_528\n      jump\t// in\n    tag_583:\n        /* \"#utility.yul\":23107:23245   */\n      swap1\n      pop\n        /* \"#utility.yul\":23293:23302   */\n      dup2\n        /* \"#utility.yul\":23287:23291   */\n      dup2\n        /* \"#utility.yul\":23283:23303   */\n      sub\n        /* \"#utility.yul\":23277:23280   */\n      0x80\n        /* \"#utility.yul\":23266:23275   */\n      dup4\n        /* \"#utility.yul\":23262:23281   */\n      add\n        /* \"#utility.yul\":23255:23304   */\n      mstore\n        /* \"#utility.yul\":23321:23445   */\n      tag_584\n        /* \"#utility.yul\":23440:23444   */\n      dup2\n        /* \"#utility.yul\":23431:23437   */\n      dup6\n        /* \"#utility.yul\":23321:23445   */\n      tag_532\n      jump\t// in\n    tag_584:\n        /* \"#utility.yul\":23313:23445   */\n      swap1\n      pop\n        /* \"#utility.yul\":23493:23502   */\n      dup2\n        /* \"#utility.yul\":23487:23491   */\n      dup2\n        /* \"#utility.yul\":23483:23503   */\n      sub\n        /* \"#utility.yul\":23477:23480   */\n      0xa0\n        /* \"#utility.yul\":23466:23475   */\n      dup4\n        /* \"#utility.yul\":23462:23481   */\n      add\n        /* \"#utility.yul\":23455:23504   */\n      mstore\n        /* \"#utility.yul\":23521:23649   */\n      tag_585\n        /* \"#utility.yul\":23644:23648   */\n      dup2\n        /* \"#utility.yul\":23635:23641   */\n      dup5\n        /* \"#utility.yul\":23521:23649   */\n      tag_547\n      jump\t// in\n    tag_585:\n        /* \"#utility.yul\":23513:23649   */\n      swap1\n      pop\n        /* \"#utility.yul\":21871:23656   */\n      swap8\n      swap7\n      pop\n      pop\n      pop\n      pop\n      pop\n      pop\n      pop\n      jump\t// out\n        /* \"#utility.yul\":23662:23884   */\n    tag_31:\n        /* \"#utility.yul\":23755:23759   */\n      0x00\n        /* \"#utility.yul\":23793:23795   */\n      0x20\n        /* \"#utility.yul\":23782:23791   */\n      dup3\n        /* \"#utility.yul\":23778:23796   */\n      add\n        /* \"#utility.yul\":23770:23796   */\n      swap1\n      pop\n        /* \"#utility.yul\":23806:23877   */\n      tag_587\n        /* \"#utility.yul\":23874:23875   */\n      0x00\n        /* \"#utility.yul\":23863:23872   */\n      dup4\n        /* \"#utility.yul\":23859:23876   */\n      add\n        /* \"#utility.yul\":23850:23856   */\n      dup5\n        /* \"#utility.yul\":23806:23877   */\n      tag_570\n      jump\t// in\n    tag_587:\n        /* \"#utility.yul\":23662:23884   */\n      swap3\n      swap2\n      pop\n      pop\n      jump\t// out\n        /* \"#utility.yul\":23890:24019   */\n    tag_372:\n        /* \"#utility.yul\":23924:23930   */\n      0x00\n        /* \"#utility.yul\":23951:23971   */\n      tag_589\n      tag_590\n      jump\t// in\n    tag_589:\n        /* \"#utility.yul\":23941:23971   */\n      swap1\n      pop\n        /* \"#utility.yul\":23980:24013   */\n      tag_591\n        /* \"#utility.yul\":24008:24012   */\n      dup3\n        /* \"#utility.yul\":24000:24006   */\n      dup3\n        /* \"#utility.yul\":23980:24013   */\n      tag_592\n      jump\t// in\n    tag_591:\n        /* \"#utility.yul\":23890:24019   */\n      swap2\n      swap1\n      pop\n      jump\t// out\n        /* \"#utility.yul\":24025:24100   */\n    tag_590:\n        /* \"#utility.yul\":24058:24064   */\n      0x00\n        /* \"#utility.yul\":24091:24093   */\n      0x40\n        /* \"#utility.yul\":24085:24094   */\n      mload\n        /* \"#utility.yul\":24075:24094   */\n      swap1\n      pop\n        /* \"#utility.yul\":24025:24100   */\n      swap1\n      jump\t// out\n        /* \"#utility.yul\":24106:24427   */\n    tag_371:\n        /* \"#utility.yul\":24193:24197   */\n      0x00\n        /* \"#utility.yul\":24283:24301   */\n      0xffffffffffffffff\n        /* \"#utility.yul\":24275:24281   */\n      dup3\n        /* \"#utility.yul\":24272:24302   */\n      gt\n        /* \"#utility.yul\":24269:24325   */\n      iszero\n      tag_595\n      jumpi\n        /* \"#utility.yul\":24305:24323   */\n      tag_596\n      tag_597\n      jump\t// in\n    tag_596:\n        /* \"#utility.yul\":24269:24325   */\n    tag_595:\n        /* \"#utility.yul\":24355:24359   */\n      0x20\n        /* \"#utility.yul\":24347:24353   */\n      dup3\n        /* \"#utility.yul\":24343:24360   */\n      mul\n        /* \"#utility.yul\":24335:24360   */\n      swap1\n      pop\n        /* \"#utility.yul\":24415:24419   */\n      0x20\n        /* \"#utility.yul\":24409:24413   */\n      dup2\n        /* \"#utility.yul\":24405:24420   */\n      add\n        /* \"#utility.yul\":24397:24420   */\n      swap1\n      pop\n        /* \"#utility.yul\":24106:24427   */\n      swap2\n      swap1\n      pop\n      jump\t// out\n        /* \"#utility.yul\":24433:24741   */\n    tag_388:\n        /* \"#utility.yul\":24495:24499   */\n      0x00\n        /* \"#utility.yul\":24585:24603   */\n      0xffffffffffffffff\n        /* \"#utility.yul\":24577:24583   */\n      dup3\n        /* \"#utility.yul\":24574:24604   */\n      gt\n        /* \"#utility.yul\":24571:24627   */\n      iszero\n      tag_599\n      jumpi\n        /* \"#utility.yul\":24607:24625   */\n      tag_600\n      tag_597\n      jump\t// in\n    tag_600:\n        /* \"#utility.yul\":24571:24627   */\n    tag_599:\n        /* \"#utility.yul\":24645:24674   */\n      tag_601\n        /* \"#utility.yul\":24667:24673   */\n      dup3\n        /* \"#utility.yul\":24645:24674   */\n      tag_520\n      jump\t// in\n    tag_601:\n        /* \"#utility.yul\":24637:24674   */\n      swap1\n      pop\n        /* \"#utility.yul\":24729:24733   */\n      0x20\n        /* \"#utility.yul\":24723:24727   */\n      dup2\n        /* \"#utility.yul\":24719:24734   */\n      add\n        /* \"#utility.yul\":24711:24734   */\n      swap1\n      pop\n        /* \"#utility.yul\":24433:24741   */\n      swap2\n      swap1\n      pop\n      jump\t// out\n        /* \"#utility.yul\":24747:24889   */\n    tag_505:\n        /* \"#utility.yul\":24824:24828   */\n      0x00\n        /* \"#utility.yul\":24847:24850   */\n      dup2\n        /* \"#utility.yul\":24839:24850   */\n      swap1\n      pop\n        /* \"#utility.yul\":24877:24881   */\n      0x20\n        /* \"#utility.yul\":24872:24875   */\n      dup3\n        /* \"#utility.yul\":24868:24882   */\n      add\n        /* \"#utility.yul\":24860:24882   */\n      swap1\n      pop\n        /* \"#utility.yul\":24747:24889   */\n      swap2\n      swap1\n      pop\n      jump\t// out\n        /* \"#utility.yul\":24895:25019   */\n    tag_501:\n        /* \"#utility.yul\":24972:24978   */\n      0x00\n        /* \"#utility.yul\":25006:25011   */\n      dup2\n        /* \"#utility.yul\":25000:25012   */\n      mload\n        /* \"#utility.yul\":24990:25012   */\n      swap1\n      pop\n        /* \"#utility.yul\":24895:25019   */\n      swap2\n      swap1\n      pop\n      jump\t// out\n        /* \"#utility.yul\":25025:25124   */\n    tag_514:\n        /* \"#utility.yul\":25077:25083   */\n      0x00\n        /* \"#utility.yul\":25111:25116   */\n      dup2\n        /* \"#utility.yul\":25105:25117   */\n      mload\n        /* \"#utility.yul\":25095:25117   */\n      swap1\n      pop\n        /* \"#utility.yul\":25025:25124   */\n      swap2\n      swap1\n      pop\n      jump\t// out\n        /* \"#utility.yul\":25130:25253   */\n    tag_511:\n        /* \"#utility.yul\":25210:25214   */\n      0x00\n        /* \"#utility.yul\":25242:25246   */\n      0x20\n        /* \"#utility.yul\":25237:25240   */\n      dup3\n        /* \"#utility.yul\":25233:25247   */\n      add\n        /* \"#utility.yul\":25225:25247   */\n      swap1\n      pop\n        /* \"#utility.yul\":25130:25253   */\n      swap2\n      swap1\n      pop\n      jump\t// out\n        /* \"#utility.yul\":25259:25443   */\n    tag_503:\n        /* \"#utility.yul\":25358:25369   */\n      0x00\n        /* \"#utility.yul\":25392:25398   */\n      dup3\n        /* \"#utility.yul\":25387:25390   */\n      dup3\n        /* \"#utility.yul\":25380:25399   */\n      mstore\n        /* \"#utility.yul\":25432:25436   */\n      0x20\n        /* \"#utility.yul\":25427:25430   */\n      dup3\n        /* \"#utility.yul\":25423:25437   */\n      add\n        /* \"#utility.yul\":25408:25437   */\n      swap1\n      pop\n        /* \"#utility.yul\":25259:25443   */\n      swap3\n      swap2\n      pop\n      pop\n      jump\t// out\n        /* \"#utility.yul\":25449:25608   */\n    tag_516:\n        /* \"#utility.yul\":25523:25534   */\n      0x00\n        /* \"#utility.yul\":25557:25563   */\n      dup3\n        /* \"#utility.yul\":25552:25555   */\n      dup3\n        /* \"#utility.yul\":25545:25564   */\n      mstore\n        /* \"#utility.yul\":25597:25601   */\n      0x20\n        /* \"#utility.yul\":25592:25595   */\n      dup3\n        /* \"#utility.yul\":25588:25602   */\n      add\n        /* \"#utility.yul\":25573:25602   */\n      swap1\n      pop\n        /* \"#utility.yul\":25449:25608   */\n      swap3\n      swap2\n      pop\n      pop\n      jump\t// out\n        /* \"#utility.yul\":25614:25783   */\n    tag_525:\n        /* \"#utility.yul\":25698:25709   */\n      0x00\n        /* \"#utility.yul\":25732:25738   */\n      dup3\n        /* \"#utility.yul\":25727:25730   */\n      dup3\n        /* \"#utility.yul\":25720:25739   */\n      mstore\n        /* \"#utility.yul\":25772:25776   */\n      0x20\n        /* \"#utility.yul\":25767:25770   */\n      dup3\n        /* \"#utility.yul\":25763:25777   */\n      add\n        /* \"#utility.yul\":25748:25777   */\n      swap1\n      pop\n        /* \"#utility.yul\":25614:25783   */\n      swap3\n      swap2\n      pop\n      pop\n      jump\t// out\n        /* \"#utility.yul\":25789:25885   */\n    tag_497:\n        /* \"#utility.yul\":25826:25833   */\n      0x00\n        /* \"#utility.yul\":25855:25879   */\n      tag_610\n        /* \"#utility.yul\":25873:25878   */\n      dup3\n        /* \"#utility.yul\":25855:25879   */\n      tag_611\n      jump\t// in\n    tag_610:\n        /* \"#utility.yul\":25844:25879   */\n      swap1\n      pop\n        /* \"#utility.yul\":25789:25885   */\n      swap2\n      swap1\n      pop\n      jump\t// out\n        /* \"#utility.yul\":25891:26017   */\n    tag_611:\n        /* \"#utility.yul\":25928:25935   */\n      0x00\n        /* \"#utility.yul\":25968:26010   */\n      0xffffffffffffffffffffffffffffffffffffffff\n        /* \"#utility.yul\":25961:25966   */\n      dup3\n        /* \"#utility.yul\":25957:26011   */\n      and\n        /* \"#utility.yul\":25946:26011   */\n      swap1\n      pop\n        /* \"#utility.yul\":25891:26017   */\n      swap2\n      swap1\n      pop\n      jump\t// out\n        /* \"#utility.yul\":26023:26100   */\n    tag_569:\n        /* \"#utility.yul\":26060:26067   */\n      0x00\n        /* \"#utility.yul\":26089:26094   */\n      dup2\n        /* \"#utility.yul\":26078:26094   */\n      swap1\n      pop\n        /* \"#utility.yul\":26023:26100   */\n      swap2\n      swap1\n      pop\n      jump\t// out\n        /* \"#utility.yul\":26106:26260   */\n    tag_393:\n        /* \"#utility.yul\":26190:26196   */\n      dup3\n        /* \"#utility.yul\":26185:26188   */\n      dup2\n        /* \"#utility.yul\":26180:26183   */\n      dup4\n        /* \"#utility.yul\":26167:26197   */\n      calldatacopy\n        /* \"#utility.yul\":26252:26253   */\n      0x00\n        /* \"#utility.yul\":26243:26249   */\n      dup4\n        /* \"#utility.yul\":26238:26241   */\n      dup4\n        /* \"#utility.yul\":26234:26250   */\n      add\n        /* \"#utility.yul\":26227:26254   */\n      mstore\n        /* \"#utility.yul\":26106:26260   */\n      pop\n      pop\n      pop\n      jump\t// out\n        /* \"#utility.yul\":26266:26573   */\n    tag_518:\n        /* \"#utility.yul\":26334:26335   */\n      0x00\n        /* \"#utility.yul\":26344:26457   */\n    tag_616:\n        /* \"#utility.yul\":26358:26364   */\n      dup4\n        /* \"#utility.yul\":26355:26356   */\n      dup2\n        /* \"#utility.yul\":26352:26365   */\n      lt\n        /* \"#utility.yul\":26344:26457   */\n      iszero\n      tag_618\n      jumpi\n        /* \"#utility.yul\":26443:26444   */\n      dup1\n        /* \"#utility.yul\":26438:26441   */\n      dup3\n        /* \"#utility.yul\":26434:26445   */\n      add\n        /* \"#utility.yul\":26428:26446   */\n      mload\n        /* \"#utility.yul\":26424:26425   */\n      dup2\n        /* \"#utility.yul\":26419:26422   */\n      dup5\n        /* \"#utility.yul\":26415:26426   */\n      add\n        /* \"#utility.yul\":26408:26447   */\n      mstore\n        /* \"#utility.yul\":26380:26382   */\n      0x20\n        /* \"#utility.yul\":26377:26378   */\n      dup2\n        /* \"#utility.yul\":26373:26383   */\n      add\n        /* \"#utility.yul\":26368:26383   */\n      swap1\n      pop\n        /* \"#utility.yul\":26344:26457   */\n      jump(tag_616)\n    tag_618:\n        /* \"#utility.yul\":26475:26481   */\n      dup4\n        /* \"#utility.yul\":26472:26473   */\n      dup2\n        /* \"#utility.yul\":26469:26482   */\n      gt\n        /* \"#utility.yul\":26466:26567   */\n      iszero\n      tag_619\n      jumpi\n        /* \"#utility.yul\":26555:26556   */\n      0x00\n        /* \"#utility.yul\":26546:26552   */\n      dup5\n        /* \"#utility.yul\":26541:26544   */\n      dup5\n        /* \"#utility.yul\":26537:26553   */\n      add\n        /* \"#utility.yul\":26530:26557   */\n      mstore\n        /* \"#utility.yul\":26466:26567   */\n    tag_619:\n        /* \"#utility.yul\":26315:26573   */\n      pop\n        /* \"#utility.yul\":26266:26573   */\n      pop\n      pop\n      pop\n      jump\t// out\n        /* \"#utility.yul\":26579:26899   */\n    tag_122:\n        /* \"#utility.yul\":26623:26629   */\n      0x00\n        /* \"#utility.yul\":26660:26661   */\n      0x02\n        /* \"#utility.yul\":26654:26658   */\n      dup3\n        /* \"#utility.yul\":26650:26662   */\n      div\n        /* \"#utility.yul\":26640:26662   */\n      swap1\n      pop\n        /* \"#utility.yul\":26707:26708   */\n      0x01\n        /* \"#utility.yul\":26701:26705   */\n      dup3\n        /* \"#utility.yul\":26697:26709   */\n      and\n        /* \"#utility.yul\":26728:26746   */\n      dup1\n        /* \"#utility.yul\":26718:26799   */\n      tag_621\n      jumpi\n        /* \"#utility.yul\":26784:26788   */\n      0x7f\n        /* \"#utility.yul\":26776:26782   */\n      dup3\n        /* \"#utility.yul\":26772:26789   */\n      and\n        /* \"#utility.yul\":26762:26789   */\n      swap2\n      pop\n        /* \"#utility.yul\":26718:26799   */\n    tag_621:\n        /* \"#utility.yul\":26846:26848   */\n      0x20\n        /* \"#utility.yul\":26838:26844   */\n      dup3\n        /* \"#utility.yul\":26835:26849   */\n      lt\n        /* \"#utility.yul\":26815:26833   */\n      dup2\n        /* \"#utility.yul\":26812:26850   */\n      eq\n        /* \"#utility.yul\":26809:26893   */\n      iszero\n      tag_622\n      jumpi\n        /* \"#utility.yul\":26865:26883   */\n      tag_623\n      tag_624\n      jump\t// in\n    tag_623:\n        /* \"#utility.yul\":26809:26893   */\n    tag_622:\n        /* \"#utility.yul\":26630:26899   */\n      pop\n        /* \"#utility.yul\":26579:26899   */\n      swap2\n      swap1\n      pop\n      jump\t// out\n        /* \"#utility.yul\":26905:27186   */\n    tag_592:\n        /* \"#utility.yul\":26988:27015   */\n      tag_626\n        /* \"#utility.yul\":27010:27014   */\n      dup3\n        /* \"#utility.yul\":26988:27015   */\n      tag_520\n      jump\t// in\n    tag_626:\n        /* \"#utility.yul\":26980:26986   */\n      dup2\n        /* \"#utility.yul\":26976:27016   */\n      add\n        /* \"#utility.yul\":27118:27124   */\n      dup2\n        /* \"#utility.yul\":27106:27116   */\n      dup2\n        /* \"#utility.yul\":27103:27125   */\n      lt\n        /* \"#utility.yul\":27082:27100   */\n      0xffffffffffffffff\n        /* \"#utility.yul\":27070:27080   */\n      dup3\n        /* \"#utility.yul\":27067:27101   */\n      gt\n        /* \"#utility.yul\":27064:27126   */\n      or\n        /* \"#utility.yul\":27061:27149   */\n      iszero\n      tag_627\n      jumpi\n        /* \"#utility.yul\":27129:27147   */\n      tag_628\n      tag_597\n      jump\t// in\n    tag_628:\n        /* \"#utility.yul\":27061:27149   */\n    tag_627:\n        /* \"#utility.yul\":27169:27179   */\n      dup1\n        /* \"#utility.yul\":27165:27167   */\n      0x40\n        /* \"#utility.yul\":27158:27180   */\n      mstore\n        /* \"#utility.yul\":26948:27186   */\n      pop\n        /* \"#utility.yul\":26905:27186   */\n      pop\n      pop\n      jump\t// out\n        /* \"#utility.yul\":27192:27372   */\n    tag_624:\n        /* \"#utility.yul\":27240:27317   */\n      0x4e487b7100000000000000000000000000000000000000000000000000000000\n        /* \"#utility.yul\":27237:27238   */\n      0x00\n        /* \"#utility.yul\":27230:27318   */\n      mstore\n        /* \"#utility.yul\":27337:27341   */\n      0x22\n        /* \"#utility.yul\":27334:27335   */\n      0x04\n        /* \"#utility.yul\":27327:27342   */\n      mstore\n        /* \"#utility.yul\":27361:27365   */\n      0x24\n        /* \"#utility.yul\":27358:27359   */\n      0x00\n        /* \"#utility.yul\":27351:27366   */\n      revert\n        /* \"#utility.yul\":27378:27558   */\n    tag_266:\n        /* \"#utility.yul\":27426:27503   */\n      0x4e487b7100000000000000000000000000000000000000000000000000000000\n        /* \"#utility.yul\":27423:27424   */\n      0x00\n        /* \"#utility.yul\":27416:27504   */\n      mstore\n        /* \"#utility.yul\":27523:27527   */\n      0x32\n        /* \"#utility.yul\":27520:27521   */\n      0x04\n        /* \"#utility.yul\":27513:27528   */\n      mstore\n        /* \"#utility.yul\":27547:27551   */\n      0x24\n        /* \"#utility.yul\":27544:27545   */\n      0x00\n        /* \"#utility.yul\":27537:27552   */\n      revert\n        /* \"#utility.yul\":27564:27744   */\n    tag_597:\n        /* \"#utility.yul\":27612:27689   */\n      0x4e487b7100000000000000000000000000000000000000000000000000000000\n        /* \"#utility.yul\":27609:27610   */\n      0x00\n        /* \"#utility.yul\":27602:27690   */\n      mstore\n        /* \"#utility.yul\":27709:27713   */\n      0x41\n        /* \"#utility.yul\":27706:27707   */\n      0x04\n        /* \"#utility.yul\":27699:27714   */\n      mstore\n        /* \"#utility.yul\":27733:27737   */\n      0x24\n        /* \"#utility.yul\":27730:27731   */\n      0x00\n        /* \"#utility.yul\":27723:27738   */\n      revert\n        /* \"#utility.yul\":27750:27867   */\n    tag_381:\n        /* \"#utility.yul\":27859:27860   */\n      0x00\n        /* \"#utility.yul\":27856:27857   */\n      dup1\n        /* \"#utility.yul\":27849:27861   */\n      revert\n        /* \"#utility.yul\":27873:27990   */\n    tag_375:\n        /* \"#utility.yul\":27982:27983   */\n      0x00\n        /* \"#utility.yul\":27979:27980   */\n      dup1\n        /* \"#utility.yul\":27972:27984   */\n      revert\n        /* \"#utility.yul\":27996:28113   */\n    tag_391:\n        /* \"#utility.yul\":28105:28106   */\n      0x00\n        /* \"#utility.yul\":28102:28103   */\n      dup1\n        /* \"#utility.yul\":28095:28107   */\n      revert\n        /* \"#utility.yul\":28119:28236   */\n    tag_421:\n        /* \"#utility.yul\":28228:28229   */\n      0x00\n        /* \"#utility.yul\":28225:28226   */\n      dup1\n        /* \"#utility.yul\":28218:28230   */\n      revert\n        /* \"#utility.yul\":28242:28359   */\n    tag_414:\n        /* \"#utility.yul\":28351:28352   */\n      0x00\n        /* \"#utility.yul\":28348:28349   */\n      dup1\n        /* \"#utility.yul\":28341:28353   */\n      revert\n        /* \"#utility.yul\":28365:28467   */\n    tag_520:\n        /* \"#utility.yul\":28406:28412   */\n      0x00\n        /* \"#utility.yul\":28457:28459   */\n      0x1f\n        /* \"#utility.yul\":28453:28460   */\n      not\n        /* \"#utility.yul\":28448:28450   */\n      0x1f\n        /* \"#utility.yul\":28441:28446   */\n      dup4\n        /* \"#utility.yul\":28437:28451   */\n      add\n        /* \"#utility.yul\":28433:28461   */\n      and\n        /* \"#utility.yul\":28423:28461   */\n      swap1\n      pop\n        /* \"#utility.yul\":28365:28467   */\n      swap2\n      swap1\n      pop\n      jump\t// out\n        /* \"#utility.yul\":28473:28595   */\n    tag_397:\n        /* \"#utility.yul\":28546:28570   */\n      tag_639\n        /* \"#utility.yul\":28564:28569   */\n      dup2\n        /* \"#utility.yul\":28546:28570   */\n      tag_497\n      jump\t// in\n    tag_639:\n        /* \"#utility.yul\":28539:28544   */\n      dup2\n        /* \"#utility.yul\":28536:28571   */\n      eq\n        /* \"#utility.yul\":28526:28589   */\n      tag_640\n      jumpi\n        /* \"#utility.yul\":28585:28586   */\n      0x00\n        /* \"#utility.yul\":28582:28583   */\n      dup1\n        /* \"#utility.yul\":28575:28587   */\n      revert\n        /* \"#utility.yul\":28526:28589   */\n    tag_640:\n        /* \"#utility.yul\":28473:28595   */\n      pop\n      jump\t// out\n        /* \"#utility.yul\":28601:28723   */\n    tag_410:\n        /* \"#utility.yul\":28674:28698   */\n      tag_642\n        /* \"#utility.yul\":28692:28697   */\n      dup2\n        /* \"#utility.yul\":28674:28698   */\n      tag_569\n      jump\t// in\n    tag_642:\n        /* \"#utility.yul\":28667:28672   */\n      dup2\n        /* \"#utility.yul\":28664:28699   */\n      eq\n        /* \"#utility.yul\":28654:28717   */\n      tag_643\n      jumpi\n        /* \"#utility.yul\":28713:28714   */\n      0x00\n        /* \"#utility.yul\":28710:28711   */\n      dup1\n        /* \"#utility.yul\":28703:28715   */\n      revert\n        /* \"#utility.yul\":28654:28717   */\n    tag_643:\n        /* \"#utility.yul\":28601:28723   */\n      pop\n      jump\t// out\n\n    auxdata: 0xa2646970667358221220c39a81ca1e4f658396848be65643f5e54d663363093b403bd6b5909a3603413a64736f6c63430008070033\n}\n",
				"bytecode": {
					"linkReferences": {},
					"object": "608060405234801561001057600080fd5b5061348c806100206000396000f3fe608060405234801561001057600080fd5b50600436106100cf5760003560e01c8063728283881161008c5780639dd9d0fd116100665780639dd9d0fd146101ae578063ed2217ef146101e3578063f96e32f8146101ed578063fabce08f14610221576100cf565b8063728283881461016c578063958791ae1461018857806395ea3757146101a4576100cf565b8063322a9849146100d45780633d984d0e146100f05780634ed740671461010c5780636212fa021461011657806366244dfb146101345780636c2cc77414610150575b600080fd5b6100ee60048036038101906100e9919061298c565b61022b565b005b61010a600480360381019061010591906128e5565b6102e1565b005b610114610465565b005b61011e6104cb565b60405161012b919061318d565b60405180910390f35b61014e60048036038101906101499190612a04565b610517565b005b61016a6004803603810190610165919061286d565b610652565b005b61018660048036038101906101819190612a04565b610708565b005b6101a2600480360381019061019d9190612b0b565b610970565b005b6101ac610c5a565b005b6101c860048036038101906101c39190612840565b610d2f565b6040516101da96959493929190613102565b60405180910390f35b6101eb611d62565b005b61020760048036038101906102029190612c40565b611db1565b60405161021895949392919061308c565b60405180910390f35b61022961227c565b005b816000803373ffffffffffffffffffffffffffffffffffffffff1673ffffffffffffffffffffffffffffffffffffffff16815260200190815260200160002060190160000190805190602001906102839291906124a8565b50806000803373ffffffffffffffffffffffffffffffffffffffff1673ffffffffffffffffffffffffffffffffffffffff16815260200190815260200160002060190160010190805190602001906102dc9291906124a8565b505050565b6000803373ffffffffffffffffffffffffffffffffffffffff1673ffffffffffffffffffffffffffffffffffffffff168152602001908152602001600020600e0160008082016000610333919061252e565b600182016000610343919061252e565b600282016000610353919061252e565b5050826000803373ffffffffffffffffffffffffffffffffffffffff1673ffffffffffffffffffffffffffffffffffffffff168152602001908152602001600020600e0160000190805190602001906103ad92919061254f565b50816000803373ffffffffffffffffffffffffffffffffffffffff1673ffffffffffffffffffffffffffffffffffffffff168152602001908152602001600020600e01600101908051906020019061040692919061254f565b50806000803373ffffffffffffffffffffffffffffffffffffffff1673ffffffffffffffffffffffffffffffffffffffff168152602001908152602001600020600e01600201908051906020019061045f92919061254f565b50505050565b6000803373ffffffffffffffffffffffffffffffffffffffff1673ffffffffffffffffffffffffffffffffffffffff168152602001908152602001600020601201600080820160006104b7919061252e565b6001820160006104c7919061252e565b5050565b60008060003373ffffffffffffffffffffffffffffffffffffffff1673ffffffffffffffffffffffffffffffffffffffff16815260200190815260200160002060110180549050905090565b61051f6125af565b8581600001819052508481602001819052508381604001819052508281606001819052508181608001819052506000803373ffffffffffffffffffffffffffffffffffffffff1673ffffffffffffffffffffffffffffffffffffffff16815260200190815260200160002060110181908060018154018082558091505060019003906000526020600020906005020160009091909190915060008201518160000190805190602001906105d39291906124a8565b5060208201518160010190805190602001906105f09291906124a8565b50604082015181600201908051906020019061060d9291906124a8565b50606082015181600301908051906020019061062a9291906124a8565b5060808201518160040190805190602001906106479291906124a8565b505050505050505050565b816000803373ffffffffffffffffffffffffffffffffffffffff1673ffffffffffffffffffffffffffffffffffffffff16815260200190815260200160002060120160010190805190602001906106aa92919061254f565b50806000803373ffffffffffffffffffffffffffffffffffffffff1673ffffffffffffffffffffffffffffffffffffffff168152602001908152602001600020601201600001908051906020019061070392919061254f565b505050565b6000803373ffffffffffffffffffffffffffffffffffffffff1673ffffffffffffffffffffffffffffffffffffffff1681526020019081526020016000206008016000808201600061075a91906125de565b60018201600061076a91906125de565b60028201600061077a91906125de565b60038201600061078a91906125de565b60048201600061079a91906125de565b6005820160006107aa91906125de565b5050846000803373ffffffffffffffffffffffffffffffffffffffff1673ffffffffffffffffffffffffffffffffffffffff16815260200190815260200160002060080160010190805190602001906108049291906124a8565b50836000803373ffffffffffffffffffffffffffffffffffffffff1673ffffffffffffffffffffffffffffffffffffffff168152602001908152602001600020600801600201908051906020019061085d9291906124a8565b50826000803373ffffffffffffffffffffffffffffffffffffffff1673ffffffffffffffffffffffffffffffffffffffff16815260200190815260200160002060080160030190805190602001906108b69291906124a8565b50816000803373ffffffffffffffffffffffffffffffffffffffff1673ffffffffffffffffffffffffffffffffffffffff168152602001908152602001600020600801600201908051906020019061090f9291906124a8565b50806000803373ffffffffffffffffffffffffffffffffffffffff1673ffffffffffffffffffffffffffffffffffffffff16815260200190815260200160002060080160010190805190602001906109689291906124a8565b505050505050565b856000803373ffffffffffffffffffffffffffffffffffffffff1673ffffffffffffffffffffffffffffffffffffffff16815260200190815260200160002060000160030190805190602001906109c89291906124a8565b50846000803373ffffffffffffffffffffffffffffffffffffffff1673ffffffffffffffffffffffffffffffffffffffff1681526020019081526020016000206000016004019080519060200190610a219291906124a8565b50836000803373ffffffffffffffffffffffffffffffffffffffff1673ffffffffffffffffffffffffffffffffffffffff1681526020019081526020016000206000016005019080519060200190610a7a9291906124a8565b50826000803373ffffffffffffffffffffffffffffffffffffffff1673ffffffffffffffffffffffffffffffffffffffff1681526020019081526020016000206000016006019080519060200190610ad39291906124a8565b50816000803373ffffffffffffffffffffffffffffffffffffffff1673ffffffffffffffffffffffffffffffffffffffff1681526020019081526020016000206000016000019080519060200190610b2c9291906124a8565b50806000803373ffffffffffffffffffffffffffffffffffffffff1673ffffffffffffffffffffffffffffffffffffffff1681526020019081526020016000206000016001019080519060200190610b859291906124a8565b50336000803373ffffffffffffffffffffffffffffffffffffffff1673ffffffffffffffffffffffffffffffffffffffff16815260200190815260200160002060000160020160006101000a81548173ffffffffffffffffffffffffffffffffffffffff021916908373ffffffffffffffffffffffffffffffffffffffff160217905550426000803373ffffffffffffffffffffffffffffffffffffffff1673ffffffffffffffffffffffffffffffffffffffff16815260200190815260200160002060000160070181905550505050505050565b6000803373ffffffffffffffffffffffffffffffffffffffff1673ffffffffffffffffffffffffffffffffffffffff16815260200190815260200160002060000160008082016000610cac91906125de565b600182016000610cbc91906125de565b6002820160006101000a81549073ffffffffffffffffffffffffffffffffffffffff0219169055600382016000610cf391906125de565b600482016000610d0391906125de565b600582016000610d1391906125de565b600682016000610d2391906125de565b60078201600090555050565b60006020528060005260406000206000915090508060000160405180610100016040529081600082018054610d639061330e565b80601f0160208091040260200160405190810160405280929190818152602001828054610d8f9061330e565b8015610ddc5780601f10610db157610100808354040283529160200191610ddc565b820191906000526020600020905b815481529060010190602001808311610dbf57829003601f168201915b50505050508152602001600182018054610df59061330e565b80601f0160208091040260200160405190810160405280929190818152602001828054610e219061330e565b8015610e6e5780601f10610e4357610100808354040283529160200191610e6e565b820191906000526020600020905b815481529060010190602001808311610e5157829003601f168201915b505050505081526020016002820160009054906101000a900473ffffffffffffffffffffffffffffffffffffffff1673ffffffffffffffffffffffffffffffffffffffff1673ffffffffffffffffffffffffffffffffffffffff168152602001600382018054610edd9061330e565b80601f0160208091040260200160405190810160405280929190818152602001828054610f099061330e565b8015610f565780601f10610f2b57610100808354040283529160200191610f56565b820191906000526020600020905b815481529060010190602001808311610f3957829003601f168201915b50505050508152602001600482018054610f6f9061330e565b80601f0160208091040260200160405190810160405280929190818152602001828054610f9b9061330e565b8015610fe85780601f10610fbd57610100808354040283529160200191610fe8565b820191906000526020600020905b815481529060010190602001808311610fcb57829003601f168201915b505050505081526020016005820180546110019061330e565b80601f016020809104026020016040519081016040528092919081815260200182805461102d9061330e565b801561107a5780601f1061104f5761010080835404028352916020019161107a565b820191906000526020600020905b81548152906001019060200180831161105d57829003601f168201915b505050505081526020016006820180546110939061330e565b80601f01602080910402602001604051908101604052809291908181526020018280546110bf9061330e565b801561110c5780601f106110e15761010080835404028352916020019161110c565b820191906000526020600020905b8154815290600101906020018083116110ef57829003601f168201915b5050505050815260200160078201548152505090806008016040518060c001604052908160008201805461113f9061330e565b80601f016020809104026020016040519081016040528092919081815260200182805461116b9061330e565b80156111b85780601f1061118d576101008083540402835291602001916111b8565b820191906000526020600020905b81548152906001019060200180831161119b57829003601f168201915b505050505081526020016001820180546111d19061330e565b80601f01602080910402602001604051908101604052809291908181526020018280546111fd9061330e565b801561124a5780601f1061121f5761010080835404028352916020019161124a565b820191906000526020600020905b81548152906001019060200180831161122d57829003601f168201915b505050505081526020016002820180546112639061330e565b80601f016020809104026020016040519081016040528092919081815260200182805461128f9061330e565b80156112dc5780601f106112b1576101008083540402835291602001916112dc565b820191906000526020600020905b8154815290600101906020018083116112bf57829003601f168201915b505050505081526020016003820180546112f59061330e565b80601f01602080910402602001604051908101604052809291908181526020018280546113219061330e565b801561136e5780601f106113435761010080835404028352916020019161136e565b820191906000526020600020905b81548152906001019060200180831161135157829003601f168201915b505050505081526020016004820180546113879061330e565b80601f01602080910402602001604051908101604052809291908181526020018280546113b39061330e565b80156114005780601f106113d557610100808354040283529160200191611400565b820191906000526020600020905b8154815290600101906020018083116113e357829003601f168201915b505050505081526020016005820180546114199061330e565b80601f01602080910402602001604051908101604052809291908181526020018280546114459061330e565b80156114925780601f1061146757610100808354040283529160200191611492565b820191906000526020600020905b81548152906001019060200180831161147557829003601f168201915b5050505050815250509080600e0160405180606001604052908160008201805480602002602001604051908101604052809291908181526020016000905b8282101561157c5783829060005260206000200180546114ef9061330e565b80601f016020809104026020016040519081016040528092919081815260200182805461151b9061330e565b80156115685780601f1061153d57610100808354040283529160200191611568565b820191906000526020600020905b81548152906001019060200180831161154b57829003601f168201915b5050505050815260200190600101906114d0565b50505050815260200160018201805480602002602001604051908101604052809291908181526020016000905b828210156116555783829060005260206000200180546115c89061330e565b80601f01602080910402602001604051908101604052809291908181526020018280546115f49061330e565b80156116415780601f1061161657610100808354040283529160200191611641565b820191906000526020600020905b81548152906001019060200180831161162457829003601f168201915b5050505050815260200190600101906115a9565b50505050815260200160028201805480602002602001604051908101604052809291908181526020016000905b8282101561172e5783829060005260206000200180546116a19061330e565b80601f01602080910402602001604051908101604052809291908181526020018280546116cd9061330e565b801561171a5780601f106116ef5761010080835404028352916020019161171a565b820191906000526020600020905b8154815290600101906020018083116116fd57829003601f168201915b505050505081526020019060010190611682565b5050505081525050908060120160405180604001604052908160008201805480602002602001604051908101604052809291908181526020016000905b8282101561181757838290600052602060002001805461178a9061330e565b80601f01602080910402602001604051908101604052809291908181526020018280546117b69061330e565b80156118035780601f106117d857610100808354040283529160200191611803565b820191906000526020600020905b8154815290600101906020018083116117e657829003601f168201915b50505050508152602001906001019061176b565b50505050815260200160018201805480602002602001604051908101604052809291908181526020016000905b828210156118f05783829060005260206000200180546118639061330e565b80601f016020809104026020016040519081016040528092919081815260200182805461188f9061330e565b80156118dc5780601f106118b1576101008083540402835291602001916118dc565b820191906000526020600020905b8154815290600101906020018083116118bf57829003601f168201915b505050505081526020019060010190611844565b505050508152505090806014016040518060a00160405290816000820180546119189061330e565b80601f01602080910402602001604051908101604052809291908181526020018280546119449061330e565b80156119915780601f1061196657610100808354040283529160200191611991565b820191906000526020600020905b81548152906001019060200180831161197457829003601f168201915b505050505081526020016001820180546119aa9061330e565b80601f01602080910402602001604051908101604052809291908181526020018280546119d69061330e565b8015611a235780601f106119f857610100808354040283529160200191611a23565b820191906000526020600020905b815481529060010190602001808311611a0657829003601f168201915b50505050508152602001600282018054611a3c9061330e565b80601f0160208091040260200160405190810160405280929190818152602001828054611a689061330e565b8015611ab55780601f10611a8a57610100808354040283529160200191611ab5565b820191906000526020600020905b815481529060010190602001808311611a9857829003601f168201915b50505050508152602001600382018054611ace9061330e565b80601f0160208091040260200160405190810160405280929190818152602001828054611afa9061330e565b8015611b475780601f10611b1c57610100808354040283529160200191611b47565b820191906000526020600020905b815481529060010190602001808311611b2a57829003601f168201915b5050505050815260200160048201805480602002602001604051908101604052809291908181526020016000905b82821015611c21578382906000526020600020018054611b949061330e565b80601f0160208091040260200160405190810160405280929190818152602001828054611bc09061330e565b8015611c0d5780601f10611be257610100808354040283529160200191611c0d565b820191906000526020600020905b815481529060010190602001808311611bf057829003601f168201915b505050505081526020019060010190611b75565b50505050815250509080601901604051806040016040529081600082018054611c499061330e565b80601f0160208091040260200160405190810160405280929190818152602001828054611c759061330e565b8015611cc25780601f10611c9757610100808354040283529160200191611cc2565b820191906000526020600020905b815481529060010190602001808311611ca557829003601f168201915b50505050508152602001600182018054611cdb9061330e565b80601f0160208091040260200160405190810160405280929190818152602001828054611d079061330e565b8015611d545780601f10611d2957610100808354040283529160200191611d54565b820191906000526020600020905b815481529060010190602001808311611d3757829003601f168201915b505050505081525050905086565b6000803373ffffffffffffffffffffffffffffffffffffffff1673ffffffffffffffffffffffffffffffffffffffff1681526020019081526020016000206011016000611daf919061261e565b565b60608060608060606000803373ffffffffffffffffffffffffffffffffffffffff1673ffffffffffffffffffffffffffffffffffffffff1681526020019081526020016000206011018681548110611e0c57611e0b6133a0565b5b90600052602060002090600502016000016000803373ffffffffffffffffffffffffffffffffffffffff1673ffffffffffffffffffffffffffffffffffffffff1681526020019081526020016000206011018781548110611e7057611e6f6133a0565b5b90600052602060002090600502016001016000803373ffffffffffffffffffffffffffffffffffffffff1673ffffffffffffffffffffffffffffffffffffffff1681526020019081526020016000206011018881548110611ed457611ed36133a0565b5b90600052602060002090600502016002016000803373ffffffffffffffffffffffffffffffffffffffff1673ffffffffffffffffffffffffffffffffffffffff1681526020019081526020016000206011018981548110611f3857611f376133a0565b5b90600052602060002090600502016003016000803373ffffffffffffffffffffffffffffffffffffffff1673ffffffffffffffffffffffffffffffffffffffff1681526020019081526020016000206011018a81548110611f9c57611f9b6133a0565b5b9060005260206000209060050201600401848054611fb99061330e565b80601f0160208091040260200160405190810160405280929190818152602001828054611fe59061330e565b80156120325780601f1061200757610100808354040283529160200191612032565b820191906000526020600020905b81548152906001019060200180831161201557829003601f168201915b505050505094508380546120459061330e565b80601f01602080910402602001604051908101604052809291908181526020018280546120719061330e565b80156120be5780601f10612093576101008083540402835291602001916120be565b820191906000526020600020905b8154815290600101906020018083116120a157829003601f168201915b505050505093508280546120d19061330e565b80601f01602080910402602001604051908101604052809291908181526020018280546120fd9061330e565b801561214a5780601f1061211f5761010080835404028352916020019161214a565b820191906000526020600020905b81548152906001019060200180831161212d57829003601f168201915b5050505050925081805461215d9061330e565b80601f01602080910402602001604051908101604052809291908181526020018280546121899061330e565b80156121d65780601f106121ab576101008083540402835291602001916121d6565b820191906000526020600020905b8154815290600101906020018083116121b957829003601f168201915b505050505091508080546121e99061330e565b80601f01602080910402602001604051908101604052809291908181526020018280546122159061330e565b80156122625780601f1061223757610100808354040283529160200191612262565b820191906000526020600020905b81548152906001019060200180831161224557829003601f168201915b505050505090509450945094509450945091939590929450565b6000803373ffffffffffffffffffffffffffffffffffffffff1673ffffffffffffffffffffffffffffffffffffffff1681526020019081526020016000206000808201600080820160006122d091906125de565b6001820160006122e091906125de565b6002820160006101000a81549073ffffffffffffffffffffffffffffffffffffffff021916905560038201600061231791906125de565b60048201600061232791906125de565b60058201600061233791906125de565b60068201600061234791906125de565b60078201600090555050600882016000808201600061236691906125de565b60018201600061237691906125de565b60028201600061238691906125de565b60038201600061239691906125de565b6004820160006123a691906125de565b6005820160006123b691906125de565b5050600e8201600080820160006123cd919061252e565b6001820160006123dd919061252e565b6002820160006123ed919061252e565b50506011820160006123ff919061261e565b6012820160008082016000612414919061252e565b600182016000612424919061252e565b5050601482016000808201600061243b91906125de565b60018201600061244b91906125de565b60028201600061245b91906125de565b60038201600061246b91906125de565b60048201600061247b919061252e565b5050601982016000808201600061249291906125de565b6001820160006124a291906125de565b50505050565b8280546124b49061330e565b90600052602060002090601f0160209004810192826124d6576000855561251d565b82601f106124ef57805160ff191683800117855561251d565b8280016001018555821561251d579182015b8281111561251c578251825591602001919060010190612501565b5b50905061252a9190612642565b5090565b508054600082559060005260206000209081019061254c919061265f565b50565b82805482825590600052602060002090810192821561259e579160200282015b8281111561259d57825182908051906020019061258d9291906124a8565b509160200191906001019061256f565b5b5090506125ab919061265f565b5090565b6040518060a0016040528060608152602001606081526020016060815260200160608152602001606081525090565b5080546125ea9061330e565b6000825580601f106125fc575061261b565b601f01602090049060005260206000209081019061261a9190612642565b5b50565b508054600082556005029060005260206000209081019061263f9190612683565b50565b5b8082111561265b576000816000905550600101612643565b5090565b5b8082111561267f576000818161267691906125de565b50600101612660565b5090565b5b808211156126e6576000808201600061269d91906125de565b6001820160006126ad91906125de565b6002820160006126bd91906125de565b6003820160006126cd91906125de565b6004820160006126dd91906125de565b50600501612684565b5090565b60006126fd6126f8846131cd565b6131a8565b905080838252602082019050828560208602820111156127205761271f613403565b5b60005b8581101561276e57813567ffffffffffffffff811115612746576127456133fe565b5b80860161275389826127fd565b85526020850194506020840193505050600181019050612723565b5050509392505050565b600061278b612786846131f9565b6131a8565b9050828152602081018484840111156127a7576127a6613408565b5b6127b28482856132cc565b509392505050565b6000813590506127c981613428565b92915050565b600082601f8301126127e4576127e36133fe565b5b81356127f48482602086016126ea565b91505092915050565b600082601f830112612812576128116133fe565b5b8135612822848260208601612778565b91505092915050565b60008135905061283a8161343f565b92915050565b60006020828403121561285657612855613412565b5b6000612864848285016127ba565b91505092915050565b6000806040838503121561288457612883613412565b5b600083013567ffffffffffffffff8111156128a2576128a161340d565b5b6128ae858286016127cf565b925050602083013567ffffffffffffffff8111156128cf576128ce61340d565b5b6128db858286016127cf565b9150509250929050565b6000806000606084860312156128fe576128fd613412565b5b600084013567ffffffffffffffff81111561291c5761291b61340d565b5b612928868287016127cf565b935050602084013567ffffffffffffffff8111156129495761294861340d565b5b612955868287016127cf565b925050604084013567ffffffffffffffff8111156129765761297561340d565b5b612982868287016127cf565b9150509250925092565b600080604083850312156129a3576129a2613412565b5b600083013567ffffffffffffffff8111156129c1576129c061340d565b5b6129cd858286016127fd565b925050602083013567ffffffffffffffff8111156129ee576129ed61340d565b5b6129fa858286016127fd565b9150509250929050565b600080600080600060a08688031215612a2057612a1f613412565b5b600086013567ffffffffffffffff811115612a3e57612a3d61340d565b5b612a4a888289016127fd565b955050602086013567ffffffffffffffff811115612a6b57612a6a61340d565b5b612a77888289016127fd565b945050604086013567ffffffffffffffff811115612a9857612a9761340d565b5b612aa4888289016127fd565b935050606086013567ffffffffffffffff811115612ac557612ac461340d565b5b612ad1888289016127fd565b925050608086013567ffffffffffffffff811115612af257612af161340d565b5b612afe888289016127fd565b9150509295509295909350565b60008060008060008060c08789031215612b2857612b27613412565b5b600087013567ffffffffffffffff811115612b4657612b4561340d565b5b612b5289828a016127fd565b965050602087013567ffffffffffffffff811115612b7357612b7261340d565b5b612b7f89828a016127fd565b955050604087013567ffffffffffffffff811115612ba057612b9f61340d565b5b612bac89828a016127fd565b945050606087013567ffffffffffffffff811115612bcd57612bcc61340d565b5b612bd989828a016127fd565b935050608087013567ffffffffffffffff811115612bfa57612bf961340d565b5b612c0689828a016127fd565b92505060a087013567ffffffffffffffff811115612c2757612c2661340d565b5b612c3389828a016127fd565b9150509295509295509295565b600060208284031215612c5657612c55613412565b5b6000612c648482850161282b565b91505092915050565b6000612c798383612d05565b905092915050565b612c8a81613290565b82525050565b6000612c9b8261323a565b612ca5818561325d565b935083602082028501612cb78561322a565b8060005b85811015612cf35784840389528151612cd48582612c6d565b9450612cdf83613250565b925060208a01995050600181019050612cbb565b50829750879550505050505092915050565b6000612d1082613245565b612d1a818561326e565b9350612d2a8185602086016132db565b612d3381613417565b840191505092915050565b6000612d4982613245565b612d53818561327f565b9350612d638185602086016132db565b612d6c81613417565b840191505092915050565b60006040830160008301518482036000860152612d948282612c90565b91505060208301518482036020860152612dae8282612c90565b9150508091505092915050565b600060a0830160008301518482036000860152612dd88282612d05565b91505060208301518482036020860152612df28282612d05565b91505060408301518482036040860152612e0c8282612d05565b91505060608301518482036060860152612e268282612d05565b91505060808301518482036080860152612e408282612c90565b9150508091505092915050565b600060c0830160008301518482036000860152612e6a8282612d05565b91505060208301518482036020860152612e848282612d05565b91505060408301518482036040860152612e9e8282612d05565b91505060608301518482036060860152612eb88282612d05565b91505060808301518482036080860152612ed28282612d05565b91505060a083015184820360a0860152612eec8282612d05565b9150508091505092915050565b60006040830160008301518482036000860152612f168282612d05565b91505060208301518482036020860152612f308282612d05565b9150508091505092915050565b6000610100830160008301518482036000860152612f5b8282612d05565b91505060208301518482036020860152612f758282612d05565b9150506040830151612f8a6040860182612c81565b5060608301518482036060860152612fa28282612d05565b91505060808301518482036080860152612fbc8282612d05565b91505060a083015184820360a0860152612fd68282612d05565b91505060c083015184820360c0860152612ff08282612d05565b91505060e083015161300560e086018261306e565b508091505092915050565b6000606083016000830151848203600086015261302d8282612c90565b915050602083015184820360208601526130478282612c90565b915050604083015184820360408601526130618282612c90565b9150508091505092915050565b613077816132c2565b82525050565b613086816132c2565b82525050565b600060a08201905081810360008301526130a68188612d3e565b905081810360208301526130ba8187612d3e565b905081810360408301526130ce8186612d3e565b905081810360608301526130e28185612d3e565b905081810360808301526130f68184612d3e565b90509695505050505050565b600060c082019050818103600083015261311c8189612f3d565b905081810360208301526131308188612e4d565b905081810360408301526131448187613010565b905081810360608301526131588186612d77565b9050818103608083015261316c8185612dbb565b905081810360a08301526131808184612ef9565b9050979650505050505050565b60006020820190506131a2600083018461307d565b92915050565b60006131b26131c3565b90506131be8282613340565b919050565b6000604051905090565b600067ffffffffffffffff8211156131e8576131e76133cf565b5b602082029050602081019050919050565b600067ffffffffffffffff821115613214576132136133cf565b5b61321d82613417565b9050602081019050919050565b6000819050602082019050919050565b600081519050919050565b600081519050919050565b6000602082019050919050565b600082825260208201905092915050565b600082825260208201905092915050565b600082825260208201905092915050565b600061329b826132a2565b9050919050565b600073ffffffffffffffffffffffffffffffffffffffff82169050919050565b6000819050919050565b82818337600083830152505050565b60005b838110156132f95780820151818401526020810190506132de565b83811115613308576000848401525b50505050565b6000600282049050600182168061332657607f821691505b6020821081141561333a57613339613371565b5b50919050565b61334982613417565b810181811067ffffffffffffffff82111715613368576133676133cf565b5b80604052505050565b7f4e487b7100000000000000000000000000000000000000000000000000000000600052602260045260246000fd5b7f4e487b7100000000000000000000000000000000000000000000000000000000600052603260045260246000fd5b7f4e487b7100000000000000000000000000000000000000000000000000000000600052604160045260246000fd5b600080fd5b600080fd5b600080fd5b600080fd5b600080fd5b6000601f19601f8301169050919050565b61343181613290565b811461343c57600080fd5b50565b613448816132c2565b811461345357600080fd5b5056fea2646970667358221220c39a81ca1e4f658396848be65643f5e54d663363093b403bd6b5909a3603413a64736f6c63430008070033",
					"opcodes": "PUSH1 0x80 PUSH1 0x40 MSTORE CALLVALUE DUP1 ISZERO PUSH2 0x10 JUMPI PUSH1 0x0 DUP1 REVERT JUMPDEST POP PUSH2 0x348C DUP1 PUSH2 0x20 PUSH1 0x0 CODECOPY PUSH1 0x0 RETURN INVALID PUSH1 0x80 PUSH1 0x40 MSTORE CALLVALUE DUP1 ISZERO PUSH2 0x10 JUMPI PUSH1 0x0 DUP1 REVERT JUMPDEST POP PUSH1 0x4 CALLDATASIZE LT PUSH2 0xCF JUMPI PUSH1 0x0 CALLDATALOAD PUSH1 0xE0 SHR DUP1 PUSH4 0x72828388 GT PUSH2 0x8C JUMPI DUP1 PUSH4 0x9DD9D0FD GT PUSH2 0x66 JUMPI DUP1 PUSH4 0x9DD9D0FD EQ PUSH2 0x1AE JUMPI DUP1 PUSH4 0xED2217EF EQ PUSH2 0x1E3 JUMPI DUP1 PUSH4 0xF96E32F8 EQ PUSH2 0x1ED JUMPI DUP1 PUSH4 0xFABCE08F EQ PUSH2 0x221 JUMPI PUSH2 0xCF JUMP JUMPDEST DUP1 PUSH4 0x72828388 EQ PUSH2 0x16C JUMPI DUP1 PUSH4 0x958791AE EQ PUSH2 0x188 JUMPI DUP1 PUSH4 0x95EA3757 EQ PUSH2 0x1A4 JUMPI PUSH2 0xCF JUMP JUMPDEST DUP1 PUSH4 0x322A9849 EQ PUSH2 0xD4 JUMPI DUP1 PUSH4 0x3D984D0E EQ PUSH2 0xF0 JUMPI DUP1 PUSH4 0x4ED74067 EQ PUSH2 0x10C JUMPI DUP1 PUSH4 0x6212FA02 EQ PUSH2 0x116 JUMPI DUP1 PUSH4 0x66244DFB EQ PUSH2 0x134 JUMPI DUP1 PUSH4 0x6C2CC774 EQ PUSH2 0x150 JUMPI JUMPDEST PUSH1 0x0 DUP1 REVERT JUMPDEST PUSH2 0xEE PUSH1 0x4 DUP1 CALLDATASIZE SUB DUP2 ADD SWAP1 PUSH2 0xE9 SWAP2 SWAP1 PUSH2 0x298C JUMP JUMPDEST PUSH2 0x22B JUMP JUMPDEST STOP JUMPDEST PUSH2 0x10A PUSH1 0x4 DUP1 CALLDATASIZE SUB DUP2 ADD SWAP1 PUSH2 0x105 SWAP2 SWAP1 PUSH2 0x28E5 JUMP JUMPDEST PUSH2 0x2E1 JUMP JUMPDEST STOP JUMPDEST PUSH2 0x114 PUSH2 0x465 JUMP JUMPDEST STOP JUMPDEST PUSH2 0x11E PUSH2 0x4CB JUMP JUMPDEST PUSH1 0x40 MLOAD PUSH2 0x12B SWAP2 SWAP1 PUSH2 0x318D JUMP JUMPDEST PUSH1 0x40 MLOAD DUP1 SWAP2 SUB SWAP1 RETURN JUMPDEST PUSH2 0x14E PUSH1 0x4 DUP1 CALLDATASIZE SUB DUP2 ADD SWAP1 PUSH2 0x149 SWAP2 SWAP1 PUSH2 0x2A04 JUMP JUMPDEST PUSH2 0x517 JUMP JUMPDEST STOP JUMPDEST PUSH2 0x16A PUSH1 0x4 DUP1 CALLDATASIZE SUB DUP2 ADD SWAP1 PUSH2 0x165 SWAP2 SWAP1 PUSH2 0x286D JUMP JUMPDEST PUSH2 0x652 JUMP JUMPDEST STOP JUMPDEST PUSH2 0x186 PUSH1 0x4 DUP1 CALLDATASIZE SUB DUP2 ADD SWAP1 PUSH2 0x181 SWAP2 SWAP1 PUSH2 0x2A04 JUMP JUMPDEST PUSH2 0x708 JUMP JUMPDEST STOP JUMPDEST PUSH2 0x1A2 PUSH1 0x4 DUP1 CALLDATASIZE SUB DUP2 ADD SWAP1 PUSH2 0x19D SWAP2 SWAP1 PUSH2 0x2B0B JUMP JUMPDEST PUSH2 0x970 JUMP JUMPDEST STOP JUMPDEST PUSH2 0x1AC PUSH2 0xC5A JUMP JUMPDEST STOP JUMPDEST PUSH2 0x1C8 PUSH1 0x4 DUP1 CALLDATASIZE SUB DUP2 ADD SWAP1 PUSH2 0x1C3 SWAP2 SWAP1 PUSH2 0x2840 JUMP JUMPDEST PUSH2 0xD2F JUMP JUMPDEST PUSH1 0x40 MLOAD PUSH2 0x1DA SWAP7 SWAP6 SWAP5 SWAP4 SWAP3 SWAP2 SWAP1 PUSH2 0x3102 JUMP JUMPDEST PUSH1 0x40 MLOAD DUP1 SWAP2 SUB SWAP1 RETURN JUMPDEST PUSH2 0x1EB PUSH2 0x1D62 JUMP JUMPDEST STOP JUMPDEST PUSH2 0x207 PUSH1 0x4 DUP1 CALLDATASIZE SUB DUP2 ADD SWAP1 PUSH2 0x202 SWAP2 SWAP1 PUSH2 0x2C40 JUMP JUMPDEST PUSH2 0x1DB1 JUMP JUMPDEST PUSH1 0x40 MLOAD PUSH2 0x218 SWAP6 SWAP5 SWAP4 SWAP3 SWAP2 SWAP1 PUSH2 0x308C JUMP JUMPDEST PUSH1 0x40 MLOAD DUP1 SWAP2 SUB SWAP1 RETURN JUMPDEST PUSH2 0x229 PUSH2 0x227C JUMP JUMPDEST STOP JUMPDEST DUP2 PUSH1 0x0 DUP1 CALLER PUSH20 0xFFFFFFFFFFFFFFFFFFFFFFFFFFFFFFFFFFFFFFFF AND PUSH20 0xFFFFFFFFFFFFFFFFFFFFFFFFFFFFFFFFFFFFFFFF AND DUP2 MSTORE PUSH1 0x20 ADD SWAP1 DUP2 MSTORE PUSH1 0x20 ADD PUSH1 0x0 KECCAK256 PUSH1 0x19 ADD PUSH1 0x0 ADD SWAP1 DUP1 MLOAD SWAP1 PUSH1 0x20 ADD SWAP1 PUSH2 0x283 SWAP3 SWAP2 SWAP1 PUSH2 0x24A8 JUMP JUMPDEST POP DUP1 PUSH1 0x0 DUP1 CALLER PUSH20 0xFFFFFFFFFFFFFFFFFFFFFFFFFFFFFFFFFFFFFFFF AND PUSH20 0xFFFFFFFFFFFFFFFFFFFFFFFFFFFFFFFFFFFFFFFF AND DUP2 MSTORE PUSH1 0x20 ADD SWAP1 DUP2 MSTORE PUSH1 0x20 ADD PUSH1 0x0 KECCAK256 PUSH1 0x19 ADD PUSH1 0x1 ADD SWAP1 DUP1 MLOAD SWAP1 PUSH1 0x20 ADD SWAP1 PUSH2 0x2DC SWAP3 SWAP2 SWAP1 PUSH2 0x24A8 JUMP JUMPDEST POP POP POP JUMP JUMPDEST PUSH1 0x0 DUP1 CALLER PUSH20 0xFFFFFFFFFFFFFFFFFFFFFFFFFFFFFFFFFFFFFFFF AND PUSH20 0xFFFFFFFFFFFFFFFFFFFFFFFFFFFFFFFFFFFFFFFF AND DUP2 MSTORE PUSH1 0x20 ADD SWAP1 DUP2 MSTORE PUSH1 0x20 ADD PUSH1 0x0 KECCAK256 PUSH1 0xE ADD PUSH1 0x0 DUP1 DUP3 ADD PUSH1 0x0 PUSH2 0x333 SWAP2 SWAP1 PUSH2 0x252E JUMP JUMPDEST PUSH1 0x1 DUP3 ADD PUSH1 0x0 PUSH2 0x343 SWAP2 SWAP1 PUSH2 0x252E JUMP JUMPDEST PUSH1 0x2 DUP3 ADD PUSH1 0x0 PUSH2 0x353 SWAP2 SWAP1 PUSH2 0x252E JUMP JUMPDEST POP POP DUP3 PUSH1 0x0 DUP1 CALLER PUSH20 0xFFFFFFFFFFFFFFFFFFFFFFFFFFFFFFFFFFFFFFFF AND PUSH20 0xFFFFFFFFFFFFFFFFFFFFFFFFFFFFFFFFFFFFFFFF AND DUP2 MSTORE PUSH1 0x20 ADD SWAP1 DUP2 MSTORE PUSH1 0x20 ADD PUSH1 0x0 KECCAK256 PUSH1 0xE ADD PUSH1 0x0 ADD SWAP1 DUP1 MLOAD SWAP1 PUSH1 0x20 ADD SWAP1 PUSH2 0x3AD SWAP3 SWAP2 SWAP1 PUSH2 0x254F JUMP JUMPDEST POP DUP2 PUSH1 0x0 DUP1 CALLER PUSH20 0xFFFFFFFFFFFFFFFFFFFFFFFFFFFFFFFFFFFFFFFF AND PUSH20 0xFFFFFFFFFFFFFFFFFFFFFFFFFFFFFFFFFFFFFFFF AND DUP2 MSTORE PUSH1 0x20 ADD SWAP1 DUP2 MSTORE PUSH1 0x20 ADD PUSH1 0x0 KECCAK256 PUSH1 0xE ADD PUSH1 0x1 ADD SWAP1 DUP1 MLOAD SWAP1 PUSH1 0x20 ADD SWAP1 PUSH2 0x406 SWAP3 SWAP2 SWAP1 PUSH2 0x254F JUMP JUMPDEST POP DUP1 PUSH1 0x0 DUP1 CALLER PUSH20 0xFFFFFFFFFFFFFFFFFFFFFFFFFFFFFFFFFFFFFFFF AND PUSH20 0xFFFFFFFFFFFFFFFFFFFFFFFFFFFFFFFFFFFFFFFF AND DUP2 MSTORE PUSH1 0x20 ADD SWAP1 DUP2 MSTORE PUSH1 0x20 ADD PUSH1 0x0 KECCAK256 PUSH1 0xE ADD PUSH1 0x2 ADD SWAP1 DUP1 MLOAD SWAP1 PUSH1 0x20 ADD SWAP1 PUSH2 0x45F SWAP3 SWAP2 SWAP1 PUSH2 0x254F JUMP JUMPDEST POP POP POP POP JUMP JUMPDEST PUSH1 0x0 DUP1 CALLER PUSH20 0xFFFFFFFFFFFFFFFFFFFFFFFFFFFFFFFFFFFFFFFF AND PUSH20 0xFFFFFFFFFFFFFFFFFFFFFFFFFFFFFFFFFFFFFFFF AND DUP2 MSTORE PUSH1 0x20 ADD SWAP1 DUP2 MSTORE PUSH1 0x20 ADD PUSH1 0x0 KECCAK256 PUSH1 0x12 ADD PUSH1 0x0 DUP1 DUP3 ADD PUSH1 0x0 PUSH2 0x4B7 SWAP2 SWAP1 PUSH2 0x252E JUMP JUMPDEST PUSH1 0x1 DUP3 ADD PUSH1 0x0 PUSH2 0x4C7 SWAP2 SWAP1 PUSH2 0x252E JUMP JUMPDEST POP POP JUMP JUMPDEST PUSH1 0x0 DUP1 PUSH1 0x0 CALLER PUSH20 0xFFFFFFFFFFFFFFFFFFFFFFFFFFFFFFFFFFFFFFFF AND PUSH20 0xFFFFFFFFFFFFFFFFFFFFFFFFFFFFFFFFFFFFFFFF AND DUP2 MSTORE PUSH1 0x20 ADD SWAP1 DUP2 MSTORE PUSH1 0x20 ADD PUSH1 0x0 KECCAK256 PUSH1 0x11 ADD DUP1 SLOAD SWAP1 POP SWAP1 POP SWAP1 JUMP JUMPDEST PUSH2 0x51F PUSH2 0x25AF JUMP JUMPDEST DUP6 DUP2 PUSH1 0x0 ADD DUP2 SWAP1 MSTORE POP DUP5 DUP2 PUSH1 0x20 ADD DUP2 SWAP1 MSTORE POP DUP4 DUP2 PUSH1 0x40 ADD DUP2 SWAP1 MSTORE POP DUP3 DUP2 PUSH1 0x60 ADD DUP2 SWAP1 MSTORE POP DUP2 DUP2 PUSH1 0x80 ADD DUP2 SWAP1 MSTORE POP PUSH1 0x0 DUP1 CALLER PUSH20 0xFFFFFFFFFFFFFFFFFFFFFFFFFFFFFFFFFFFFFFFF AND PUSH20 0xFFFFFFFFFFFFFFFFFFFFFFFFFFFFFFFFFFFFFFFF AND DUP2 MSTORE PUSH1 0x20 ADD SWAP1 DUP2 MSTORE PUSH1 0x20 ADD PUSH1 0x0 KECCAK256 PUSH1 0x11 ADD DUP2 SWAP1 DUP1 PUSH1 0x1 DUP2 SLOAD ADD DUP1 DUP3 SSTORE DUP1 SWAP2 POP POP PUSH1 0x1 SWAP1 SUB SWAP1 PUSH1 0x0 MSTORE PUSH1 0x20 PUSH1 0x0 KECCAK256 SWAP1 PUSH1 0x5 MUL ADD PUSH1 0x0 SWAP1 SWAP2 SWAP1 SWAP2 SWAP1 SWAP2 POP PUSH1 0x0 DUP3 ADD MLOAD DUP2 PUSH1 0x0 ADD SWAP1 DUP1 MLOAD SWAP1 PUSH1 0x20 ADD SWAP1 PUSH2 0x5D3 SWAP3 SWAP2 SWAP1 PUSH2 0x24A8 JUMP JUMPDEST POP PUSH1 0x20 DUP3 ADD MLOAD DUP2 PUSH1 0x1 ADD SWAP1 DUP1 MLOAD SWAP1 PUSH1 0x20 ADD SWAP1 PUSH2 0x5F0 SWAP3 SWAP2 SWAP1 PUSH2 0x24A8 JUMP JUMPDEST POP PUSH1 0x40 DUP3 ADD MLOAD DUP2 PUSH1 0x2 ADD SWAP1 DUP1 MLOAD SWAP1 PUSH1 0x20 ADD SWAP1 PUSH2 0x60D SWAP3 SWAP2 SWAP1 PUSH2 0x24A8 JUMP JUMPDEST POP PUSH1 0x60 DUP3 ADD MLOAD DUP2 PUSH1 0x3 ADD SWAP1 DUP1 MLOAD SWAP1 PUSH1 0x20 ADD SWAP1 PUSH2 0x62A SWAP3 SWAP2 SWAP1 PUSH2 0x24A8 JUMP JUMPDEST POP PUSH1 0x80 DUP3 ADD MLOAD DUP2 PUSH1 0x4 ADD SWAP1 DUP1 MLOAD SWAP1 PUSH1 0x20 ADD SWAP1 PUSH2 0x647 SWAP3 SWAP2 SWAP1 PUSH2 0x24A8 JUMP JUMPDEST POP POP POP POP POP POP POP POP POP JUMP JUMPDEST DUP2 PUSH1 0x0 DUP1 CALLER PUSH20 0xFFFFFFFFFFFFFFFFFFFFFFFFFFFFFFFFFFFFFFFF AND PUSH20 0xFFFFFFFFFFFFFFFFFFFFFFFFFFFFFFFFFFFFFFFF AND DUP2 MSTORE PUSH1 0x20 ADD SWAP1 DUP2 MSTORE PUSH1 0x20 ADD PUSH1 0x0 KECCAK256 PUSH1 0x12 ADD PUSH1 0x1 ADD SWAP1 DUP1 MLOAD SWAP1 PUSH1 0x20 ADD SWAP1 PUSH2 0x6AA SWAP3 SWAP2 SWAP1 PUSH2 0x254F JUMP JUMPDEST POP DUP1 PUSH1 0x0 DUP1 CALLER PUSH20 0xFFFFFFFFFFFFFFFFFFFFFFFFFFFFFFFFFFFFFFFF AND PUSH20 0xFFFFFFFFFFFFFFFFFFFFFFFFFFFFFFFFFFFFFFFF AND DUP2 MSTORE PUSH1 0x20 ADD SWAP1 DUP2 MSTORE PUSH1 0x20 ADD PUSH1 0x0 KECCAK256 PUSH1 0x12 ADD PUSH1 0x0 ADD SWAP1 DUP1 MLOAD SWAP1 PUSH1 0x20 ADD SWAP1 PUSH2 0x703 SWAP3 SWAP2 SWAP1 PUSH2 0x254F JUMP JUMPDEST POP POP POP JUMP JUMPDEST PUSH1 0x0 DUP1 CALLER PUSH20 0xFFFFFFFFFFFFFFFFFFFFFFFFFFFFFFFFFFFFFFFF AND PUSH20 0xFFFFFFFFFFFFFFFFFFFFFFFFFFFFFFFFFFFFFFFF AND DUP2 MSTORE PUSH1 0x20 ADD SWAP1 DUP2 MSTORE PUSH1 0x20 ADD PUSH1 0x0 KECCAK256 PUSH1 0x8 ADD PUSH1 0x0 DUP1 DUP3 ADD PUSH1 0x0 PUSH2 0x75A SWAP2 SWAP1 PUSH2 0x25DE JUMP JUMPDEST PUSH1 0x1 DUP3 ADD PUSH1 0x0 PUSH2 0x76A SWAP2 SWAP1 PUSH2 0x25DE JUMP JUMPDEST PUSH1 0x2 DUP3 ADD PUSH1 0x0 PUSH2 0x77A SWAP2 SWAP1 PUSH2 0x25DE JUMP JUMPDEST PUSH1 0x3 DUP3 ADD PUSH1 0x0 PUSH2 0x78A SWAP2 SWAP1 PUSH2 0x25DE JUMP JUMPDEST PUSH1 0x4 DUP3 ADD PUSH1 0x0 PUSH2 0x79A SWAP2 SWAP1 PUSH2 0x25DE JUMP JUMPDEST PUSH1 0x5 DUP3 ADD PUSH1 0x0 PUSH2 0x7AA SWAP2 SWAP1 PUSH2 0x25DE JUMP JUMPDEST POP POP DUP5 PUSH1 0x0 DUP1 CALLER PUSH20 0xFFFFFFFFFFFFFFFFFFFFFFFFFFFFFFFFFFFFFFFF AND PUSH20 0xFFFFFFFFFFFFFFFFFFFFFFFFFFFFFFFFFFFFFFFF AND DUP2 MSTORE PUSH1 0x20 ADD SWAP1 DUP2 MSTORE PUSH1 0x20 ADD PUSH1 0x0 KECCAK256 PUSH1 0x8 ADD PUSH1 0x1 ADD SWAP1 DUP1 MLOAD SWAP1 PUSH1 0x20 ADD SWAP1 PUSH2 0x804 SWAP3 SWAP2 SWAP1 PUSH2 0x24A8 JUMP JUMPDEST POP DUP4 PUSH1 0x0 DUP1 CALLER PUSH20 0xFFFFFFFFFFFFFFFFFFFFFFFFFFFFFFFFFFFFFFFF AND PUSH20 0xFFFFFFFFFFFFFFFFFFFFFFFFFFFFFFFFFFFFFFFF AND DUP2 MSTORE PUSH1 0x20 ADD SWAP1 DUP2 MSTORE PUSH1 0x20 ADD PUSH1 0x0 KECCAK256 PUSH1 0x8 ADD PUSH1 0x2 ADD SWAP1 DUP1 MLOAD SWAP1 PUSH1 0x20 ADD SWAP1 PUSH2 0x85D SWAP3 SWAP2 SWAP1 PUSH2 0x24A8 JUMP JUMPDEST POP DUP3 PUSH1 0x0 DUP1 CALLER PUSH20 0xFFFFFFFFFFFFFFFFFFFFFFFFFFFFFFFFFFFFFFFF AND PUSH20 0xFFFFFFFFFFFFFFFFFFFFFFFFFFFFFFFFFFFFFFFF AND DUP2 MSTORE PUSH1 0x20 ADD SWAP1 DUP2 MSTORE PUSH1 0x20 ADD PUSH1 0x0 KECCAK256 PUSH1 0x8 ADD PUSH1 0x3 ADD SWAP1 DUP1 MLOAD SWAP1 PUSH1 0x20 ADD SWAP1 PUSH2 0x8B6 SWAP3 SWAP2 SWAP1 PUSH2 0x24A8 JUMP JUMPDEST POP DUP2 PUSH1 0x0 DUP1 CALLER PUSH20 0xFFFFFFFFFFFFFFFFFFFFFFFFFFFFFFFFFFFFFFFF AND PUSH20 0xFFFFFFFFFFFFFFFFFFFFFFFFFFFFFFFFFFFFFFFF AND DUP2 MSTORE PUSH1 0x20 ADD SWAP1 DUP2 MSTORE PUSH1 0x20 ADD PUSH1 0x0 KECCAK256 PUSH1 0x8 ADD PUSH1 0x2 ADD SWAP1 DUP1 MLOAD SWAP1 PUSH1 0x20 ADD SWAP1 PUSH2 0x90F SWAP3 SWAP2 SWAP1 PUSH2 0x24A8 JUMP JUMPDEST POP DUP1 PUSH1 0x0 DUP1 CALLER PUSH20 0xFFFFFFFFFFFFFFFFFFFFFFFFFFFFFFFFFFFFFFFF AND PUSH20 0xFFFFFFFFFFFFFFFFFFFFFFFFFFFFFFFFFFFFFFFF AND DUP2 MSTORE PUSH1 0x20 ADD SWAP1 DUP2 MSTORE PUSH1 0x20 ADD PUSH1 0x0 KECCAK256 PUSH1 0x8 ADD PUSH1 0x1 ADD SWAP1 DUP1 MLOAD SWAP1 PUSH1 0x20 ADD SWAP1 PUSH2 0x968 SWAP3 SWAP2 SWAP1 PUSH2 0x24A8 JUMP JUMPDEST POP POP POP POP POP POP JUMP JUMPDEST DUP6 PUSH1 0x0 DUP1 CALLER PUSH20 0xFFFFFFFFFFFFFFFFFFFFFFFFFFFFFFFFFFFFFFFF AND PUSH20 0xFFFFFFFFFFFFFFFFFFFFFFFFFFFFFFFFFFFFFFFF AND DUP2 MSTORE PUSH1 0x20 ADD SWAP1 DUP2 MSTORE PUSH1 0x20 ADD PUSH1 0x0 KECCAK256 PUSH1 0x0 ADD PUSH1 0x3 ADD SWAP1 DUP1 MLOAD SWAP1 PUSH1 0x20 ADD SWAP1 PUSH2 0x9C8 SWAP3 SWAP2 SWAP1 PUSH2 0x24A8 JUMP JUMPDEST POP DUP5 PUSH1 0x0 DUP1 CALLER PUSH20 0xFFFFFFFFFFFFFFFFFFFFFFFFFFFFFFFFFFFFFFFF AND PUSH20 0xFFFFFFFFFFFFFFFFFFFFFFFFFFFFFFFFFFFFFFFF AND DUP2 MSTORE PUSH1 0x20 ADD SWAP1 DUP2 MSTORE PUSH1 0x20 ADD PUSH1 0x0 KECCAK256 PUSH1 0x0 ADD PUSH1 0x4 ADD SWAP1 DUP1 MLOAD SWAP1 PUSH1 0x20 ADD SWAP1 PUSH2 0xA21 SWAP3 SWAP2 SWAP1 PUSH2 0x24A8 JUMP JUMPDEST POP DUP4 PUSH1 0x0 DUP1 CALLER PUSH20 0xFFFFFFFFFFFFFFFFFFFFFFFFFFFFFFFFFFFFFFFF AND PUSH20 0xFFFFFFFFFFFFFFFFFFFFFFFFFFFFFFFFFFFFFFFF AND DUP2 MSTORE PUSH1 0x20 ADD SWAP1 DUP2 MSTORE PUSH1 0x20 ADD PUSH1 0x0 KECCAK256 PUSH1 0x0 ADD PUSH1 0x5 ADD SWAP1 DUP1 MLOAD SWAP1 PUSH1 0x20 ADD SWAP1 PUSH2 0xA7A SWAP3 SWAP2 SWAP1 PUSH2 0x24A8 JUMP JUMPDEST POP DUP3 PUSH1 0x0 DUP1 CALLER PUSH20 0xFFFFFFFFFFFFFFFFFFFFFFFFFFFFFFFFFFFFFFFF AND PUSH20 0xFFFFFFFFFFFFFFFFFFFFFFFFFFFFFFFFFFFFFFFF AND DUP2 MSTORE PUSH1 0x20 ADD SWAP1 DUP2 MSTORE PUSH1 0x20 ADD PUSH1 0x0 KECCAK256 PUSH1 0x0 ADD PUSH1 0x6 ADD SWAP1 DUP1 MLOAD SWAP1 PUSH1 0x20 ADD SWAP1 PUSH2 0xAD3 SWAP3 SWAP2 SWAP1 PUSH2 0x24A8 JUMP JUMPDEST POP DUP2 PUSH1 0x0 DUP1 CALLER PUSH20 0xFFFFFFFFFFFFFFFFFFFFFFFFFFFFFFFFFFFFFFFF AND PUSH20 0xFFFFFFFFFFFFFFFFFFFFFFFFFFFFFFFFFFFFFFFF AND DUP2 MSTORE PUSH1 0x20 ADD SWAP1 DUP2 MSTORE PUSH1 0x20 ADD PUSH1 0x0 KECCAK256 PUSH1 0x0 ADD PUSH1 0x0 ADD SWAP1 DUP1 MLOAD SWAP1 PUSH1 0x20 ADD SWAP1 PUSH2 0xB2C SWAP3 SWAP2 SWAP1 PUSH2 0x24A8 JUMP JUMPDEST POP DUP1 PUSH1 0x0 DUP1 CALLER PUSH20 0xFFFFFFFFFFFFFFFFFFFFFFFFFFFFFFFFFFFFFFFF AND PUSH20 0xFFFFFFFFFFFFFFFFFFFFFFFFFFFFFFFFFFFFFFFF AND DUP2 MSTORE PUSH1 0x20 ADD SWAP1 DUP2 MSTORE PUSH1 0x20 ADD PUSH1 0x0 KECCAK256 PUSH1 0x0 ADD PUSH1 0x1 ADD SWAP1 DUP1 MLOAD SWAP1 PUSH1 0x20 ADD SWAP1 PUSH2 0xB85 SWAP3 SWAP2 SWAP1 PUSH2 0x24A8 JUMP JUMPDEST POP CALLER PUSH1 0x0 DUP1 CALLER PUSH20 0xFFFFFFFFFFFFFFFFFFFFFFFFFFFFFFFFFFFFFFFF AND PUSH20 0xFFFFFFFFFFFFFFFFFFFFFFFFFFFFFFFFFFFFFFFF AND DUP2 MSTORE PUSH1 0x20 ADD SWAP1 DUP2 MSTORE PUSH1 0x20 ADD PUSH1 0x0 KECCAK256 PUSH1 0x0 ADD PUSH1 0x2 ADD PUSH1 0x0 PUSH2 0x100 EXP DUP2 SLOAD DUP2 PUSH20 0xFFFFFFFFFFFFFFFFFFFFFFFFFFFFFFFFFFFFFFFF MUL NOT AND SWAP1 DUP4 PUSH20 0xFFFFFFFFFFFFFFFFFFFFFFFFFFFFFFFFFFFFFFFF AND MUL OR SWAP1 SSTORE POP TIMESTAMP PUSH1 0x0 DUP1 CALLER PUSH20 0xFFFFFFFFFFFFFFFFFFFFFFFFFFFFFFFFFFFFFFFF AND PUSH20 0xFFFFFFFFFFFFFFFFFFFFFFFFFFFFFFFFFFFFFFFF AND DUP2 MSTORE PUSH1 0x20 ADD SWAP1 DUP2 MSTORE PUSH1 0x20 ADD PUSH1 0x0 KECCAK256 PUSH1 0x0 ADD PUSH1 0x7 ADD DUP2 SWAP1 SSTORE POP POP POP POP POP POP POP JUMP JUMPDEST PUSH1 0x0 DUP1 CALLER PUSH20 0xFFFFFFFFFFFFFFFFFFFFFFFFFFFFFFFFFFFFFFFF AND PUSH20 0xFFFFFFFFFFFFFFFFFFFFFFFFFFFFFFFFFFFFFFFF AND DUP2 MSTORE PUSH1 0x20 ADD SWAP1 DUP2 MSTORE PUSH1 0x20 ADD PUSH1 0x0 KECCAK256 PUSH1 0x0 ADD PUSH1 0x0 DUP1 DUP3 ADD PUSH1 0x0 PUSH2 0xCAC SWAP2 SWAP1 PUSH2 0x25DE JUMP JUMPDEST PUSH1 0x1 DUP3 ADD PUSH1 0x0 PUSH2 0xCBC SWAP2 SWAP1 PUSH2 0x25DE JUMP JUMPDEST PUSH1 0x2 DUP3 ADD PUSH1 0x0 PUSH2 0x100 EXP DUP2 SLOAD SWAP1 PUSH20 0xFFFFFFFFFFFFFFFFFFFFFFFFFFFFFFFFFFFFFFFF MUL NOT AND SWAP1 SSTORE PUSH1 0x3 DUP3 ADD PUSH1 0x0 PUSH2 0xCF3 SWAP2 SWAP1 PUSH2 0x25DE JUMP JUMPDEST PUSH1 0x4 DUP3 ADD PUSH1 0x0 PUSH2 0xD03 SWAP2 SWAP1 PUSH2 0x25DE JUMP JUMPDEST PUSH1 0x5 DUP3 ADD PUSH1 0x0 PUSH2 0xD13 SWAP2 SWAP1 PUSH2 0x25DE JUMP JUMPDEST PUSH1 0x6 DUP3 ADD PUSH1 0x0 PUSH2 0xD23 SWAP2 SWAP1 PUSH2 0x25DE JUMP JUMPDEST PUSH1 0x7 DUP3 ADD PUSH1 0x0 SWAP1 SSTORE POP POP JUMP JUMPDEST PUSH1 0x0 PUSH1 0x20 MSTORE DUP1 PUSH1 0x0 MSTORE PUSH1 0x40 PUSH1 0x0 KECCAK256 PUSH1 0x0 SWAP2 POP SWAP1 POP DUP1 PUSH1 0x0 ADD PUSH1 0x40 MLOAD DUP1 PUSH2 0x100 ADD PUSH1 0x40 MSTORE SWAP1 DUP2 PUSH1 0x0 DUP3 ADD DUP1 SLOAD PUSH2 0xD63 SWAP1 PUSH2 0x330E JUMP JUMPDEST DUP1 PUSH1 0x1F ADD PUSH1 0x20 DUP1 SWAP2 DIV MUL PUSH1 0x20 ADD PUSH1 0x40 MLOAD SWAP1 DUP2 ADD PUSH1 0x40 MSTORE DUP1 SWAP3 SWAP2 SWAP1 DUP2 DUP2 MSTORE PUSH1 0x20 ADD DUP3 DUP1 SLOAD PUSH2 0xD8F SWAP1 PUSH2 0x330E JUMP JUMPDEST DUP1 ISZERO PUSH2 0xDDC JUMPI DUP1 PUSH1 0x1F LT PUSH2 0xDB1 JUMPI PUSH2 0x100 DUP1 DUP4 SLOAD DIV MUL DUP4 MSTORE SWAP2 PUSH1 0x20 ADD SWAP2 PUSH2 0xDDC JUMP JUMPDEST DUP3 ADD SWAP2 SWAP1 PUSH1 0x0 MSTORE PUSH1 0x20 PUSH1 0x0 KECCAK256 SWAP1 JUMPDEST DUP2 SLOAD DUP2 MSTORE SWAP1 PUSH1 0x1 ADD SWAP1 PUSH1 0x20 ADD DUP1 DUP4 GT PUSH2 0xDBF JUMPI DUP3 SWAP1 SUB PUSH1 0x1F AND DUP3 ADD SWAP2 JUMPDEST POP POP POP POP POP DUP2 MSTORE PUSH1 0x20 ADD PUSH1 0x1 DUP3 ADD DUP1 SLOAD PUSH2 0xDF5 SWAP1 PUSH2 0x330E JUMP JUMPDEST DUP1 PUSH1 0x1F ADD PUSH1 0x20 DUP1 SWAP2 DIV MUL PUSH1 0x20 ADD PUSH1 0x40 MLOAD SWAP1 DUP2 ADD PUSH1 0x40 MSTORE DUP1 SWAP3 SWAP2 SWAP1 DUP2 DUP2 MSTORE PUSH1 0x20 ADD DUP3 DUP1 SLOAD PUSH2 0xE21 SWAP1 PUSH2 0x330E JUMP JUMPDEST DUP1 ISZERO PUSH2 0xE6E JUMPI DUP1 PUSH1 0x1F LT PUSH2 0xE43 JUMPI PUSH2 0x100 DUP1 DUP4 SLOAD DIV MUL DUP4 MSTORE SWAP2 PUSH1 0x20 ADD SWAP2 PUSH2 0xE6E JUMP JUMPDEST DUP3 ADD SWAP2 SWAP1 PUSH1 0x0 MSTORE PUSH1 0x20 PUSH1 0x0 KECCAK256 SWAP1 JUMPDEST DUP2 SLOAD DUP2 MSTORE SWAP1 PUSH1 0x1 ADD SWAP1 PUSH1 0x20 ADD DUP1 DUP4 GT PUSH2 0xE51 JUMPI DUP3 SWAP1 SUB PUSH1 0x1F AND DUP3 ADD SWAP2 JUMPDEST POP POP POP POP POP DUP2 MSTORE PUSH1 0x20 ADD PUSH1 0x2 DUP3 ADD PUSH1 0x0 SWAP1 SLOAD SWAP1 PUSH2 0x100 EXP SWAP1 DIV PUSH20 0xFFFFFFFFFFFFFFFFFFFFFFFFFFFFFFFFFFFFFFFF AND PUSH20 0xFFFFFFFFFFFFFFFFFFFFFFFFFFFFFFFFFFFFFFFF AND PUSH20 0xFFFFFFFFFFFFFFFFFFFFFFFFFFFFFFFFFFFFFFFF AND DUP2 MSTORE PUSH1 0x20 ADD PUSH1 0x3 DUP3 ADD DUP1 SLOAD PUSH2 0xEDD SWAP1 PUSH2 0x330E JUMP JUMPDEST DUP1 PUSH1 0x1F ADD PUSH1 0x20 DUP1 SWAP2 DIV MUL PUSH1 0x20 ADD PUSH1 0x40 MLOAD SWAP1 DUP2 ADD PUSH1 0x40 MSTORE DUP1 SWAP3 SWAP2 SWAP1 DUP2 DUP2 MSTORE PUSH1 0x20 ADD DUP3 DUP1 SLOAD PUSH2 0xF09 SWAP1 PUSH2 0x330E JUMP JUMPDEST DUP1 ISZERO PUSH2 0xF56 JUMPI DUP1 PUSH1 0x1F LT PUSH2 0xF2B JUMPI PUSH2 0x100 DUP1 DUP4 SLOAD DIV MUL DUP4 MSTORE SWAP2 PUSH1 0x20 ADD SWAP2 PUSH2 0xF56 JUMP JUMPDEST DUP3 ADD SWAP2 SWAP1 PUSH1 0x0 MSTORE PUSH1 0x20 PUSH1 0x0 KECCAK256 SWAP1 JUMPDEST DUP2 SLOAD DUP2 MSTORE SWAP1 PUSH1 0x1 ADD SWAP1 PUSH1 0x20 ADD DUP1 DUP4 GT PUSH2 0xF39 JUMPI DUP3 SWAP1 SUB PUSH1 0x1F AND DUP3 ADD SWAP2 JUMPDEST POP POP POP POP POP DUP2 MSTORE PUSH1 0x20 ADD PUSH1 0x4 DUP3 ADD DUP1 SLOAD PUSH2 0xF6F SWAP1 PUSH2 0x330E JUMP JUMPDEST DUP1 PUSH1 0x1F ADD PUSH1 0x20 DUP1 SWAP2 DIV MUL PUSH1 0x20 ADD PUSH1 0x40 MLOAD SWAP1 DUP2 ADD PUSH1 0x40 MSTORE DUP1 SWAP3 SWAP2 SWAP1 DUP2 DUP2 MSTORE PUSH1 0x20 ADD DUP3 DUP1 SLOAD PUSH2 0xF9B SWAP1 PUSH2 0x330E JUMP JUMPDEST DUP1 ISZERO PUSH2 0xFE8 JUMPI DUP1 PUSH1 0x1F LT PUSH2 0xFBD JUMPI PUSH2 0x100 DUP1 DUP4 SLOAD DIV MUL DUP4 MSTORE SWAP2 PUSH1 0x20 ADD SWAP2 PUSH2 0xFE8 JUMP JUMPDEST DUP3 ADD SWAP2 SWAP1 PUSH1 0x0 MSTORE PUSH1 0x20 PUSH1 0x0 KECCAK256 SWAP1 JUMPDEST DUP2 SLOAD DUP2 MSTORE SWAP1 PUSH1 0x1 ADD SWAP1 PUSH1 0x20 ADD DUP1 DUP4 GT PUSH2 0xFCB JUMPI DUP3 SWAP1 SUB PUSH1 0x1F AND DUP3 ADD SWAP2 JUMPDEST POP POP POP POP POP DUP2 MSTORE PUSH1 0x20 ADD PUSH1 0x5 DUP3 ADD DUP1 SLOAD PUSH2 0x1001 SWAP1 PUSH2 0x330E JUMP JUMPDEST DUP1 PUSH1 0x1F ADD PUSH1 0x20 DUP1 SWAP2 DIV MUL PUSH1 0x20 ADD PUSH1 0x40 MLOAD SWAP1 DUP2 ADD PUSH1 0x40 MSTORE DUP1 SWAP3 SWAP2 SWAP1 DUP2 DUP2 MSTORE PUSH1 0x20 ADD DUP3 DUP1 SLOAD PUSH2 0x102D SWAP1 PUSH2 0x330E JUMP JUMPDEST DUP1 ISZERO PUSH2 0x107A JUMPI DUP1 PUSH1 0x1F LT PUSH2 0x104F JUMPI PUSH2 0x100 DUP1 DUP4 SLOAD DIV MUL DUP4 MSTORE SWAP2 PUSH1 0x20 ADD SWAP2 PUSH2 0x107A JUMP JUMPDEST DUP3 ADD SWAP2 SWAP1 PUSH1 0x0 MSTORE PUSH1 0x20 PUSH1 0x0 KECCAK256 SWAP1 JUMPDEST DUP2 SLOAD DUP2 MSTORE SWAP1 PUSH1 0x1 ADD SWAP1 PUSH1 0x20 ADD DUP1 DUP4 GT PUSH2 0x105D JUMPI DUP3 SWAP1 SUB PUSH1 0x1F AND DUP3 ADD SWAP2 JUMPDEST POP POP POP POP POP DUP2 MSTORE PUSH1 0x20 ADD PUSH1 0x6 DUP3 ADD DUP1 SLOAD PUSH2 0x1093 SWAP1 PUSH2 0x330E JUMP JUMPDEST DUP1 PUSH1 0x1F ADD PUSH1 0x20 DUP1 SWAP2 DIV MUL PUSH1 0x20 ADD PUSH1 0x40 MLOAD SWAP1 DUP2 ADD PUSH1 0x40 MSTORE DUP1 SWAP3 SWAP2 SWAP1 DUP2 DUP2 MSTORE PUSH1 0x20 ADD DUP3 DUP1 SLOAD PUSH2 0x10BF SWAP1 PUSH2 0x330E JUMP JUMPDEST DUP1 ISZERO PUSH2 0x110C JUMPI DUP1 PUSH1 0x1F LT PUSH2 0x10E1 JUMPI PUSH2 0x100 DUP1 DUP4 SLOAD DIV MUL DUP4 MSTORE SWAP2 PUSH1 0x20 ADD SWAP2 PUSH2 0x110C JUMP JUMPDEST DUP3 ADD SWAP2 SWAP1 PUSH1 0x0 MSTORE PUSH1 0x20 PUSH1 0x0 KECCAK256 SWAP1 JUMPDEST DUP2 SLOAD DUP2 MSTORE SWAP1 PUSH1 0x1 ADD SWAP1 PUSH1 0x20 ADD DUP1 DUP4 GT PUSH2 0x10EF JUMPI DUP3 SWAP1 SUB PUSH1 0x1F AND DUP3 ADD SWAP2 JUMPDEST POP POP POP POP POP DUP2 MSTORE PUSH1 0x20 ADD PUSH1 0x7 DUP3 ADD SLOAD DUP2 MSTORE POP POP SWAP1 DUP1 PUSH1 0x8 ADD PUSH1 0x40 MLOAD DUP1 PUSH1 0xC0 ADD PUSH1 0x40 MSTORE SWAP1 DUP2 PUSH1 0x0 DUP3 ADD DUP1 SLOAD PUSH2 0x113F SWAP1 PUSH2 0x330E JUMP JUMPDEST DUP1 PUSH1 0x1F ADD PUSH1 0x20 DUP1 SWAP2 DIV MUL PUSH1 0x20 ADD PUSH1 0x40 MLOAD SWAP1 DUP2 ADD PUSH1 0x40 MSTORE DUP1 SWAP3 SWAP2 SWAP1 DUP2 DUP2 MSTORE PUSH1 0x20 ADD DUP3 DUP1 SLOAD PUSH2 0x116B SWAP1 PUSH2 0x330E JUMP JUMPDEST DUP1 ISZERO PUSH2 0x11B8 JUMPI DUP1 PUSH1 0x1F LT PUSH2 0x118D JUMPI PUSH2 0x100 DUP1 DUP4 SLOAD DIV MUL DUP4 MSTORE SWAP2 PUSH1 0x20 ADD SWAP2 PUSH2 0x11B8 JUMP JUMPDEST DUP3 ADD SWAP2 SWAP1 PUSH1 0x0 MSTORE PUSH1 0x20 PUSH1 0x0 KECCAK256 SWAP1 JUMPDEST DUP2 SLOAD DUP2 MSTORE SWAP1 PUSH1 0x1 ADD SWAP1 PUSH1 0x20 ADD DUP1 DUP4 GT PUSH2 0x119B JUMPI DUP3 SWAP1 SUB PUSH1 0x1F AND DUP3 ADD SWAP2 JUMPDEST POP POP POP POP POP DUP2 MSTORE PUSH1 0x20 ADD PUSH1 0x1 DUP3 ADD DUP1 SLOAD PUSH2 0x11D1 SWAP1 PUSH2 0x330E JUMP JUMPDEST DUP1 PUSH1 0x1F ADD PUSH1 0x20 DUP1 SWAP2 DIV MUL PUSH1 0x20 ADD PUSH1 0x40 MLOAD SWAP1 DUP2 ADD PUSH1 0x40 MSTORE DUP1 SWAP3 SWAP2 SWAP1 DUP2 DUP2 MSTORE PUSH1 0x20 ADD DUP3 DUP1 SLOAD PUSH2 0x11FD SWAP1 PUSH2 0x330E JUMP JUMPDEST DUP1 ISZERO PUSH2 0x124A JUMPI DUP1 PUSH1 0x1F LT PUSH2 0x121F JUMPI PUSH2 0x100 DUP1 DUP4 SLOAD DIV MUL DUP4 MSTORE SWAP2 PUSH1 0x20 ADD SWAP2 PUSH2 0x124A JUMP JUMPDEST DUP3 ADD SWAP2 SWAP1 PUSH1 0x0 MSTORE PUSH1 0x20 PUSH1 0x0 KECCAK256 SWAP1 JUMPDEST DUP2 SLOAD DUP2 MSTORE SWAP1 PUSH1 0x1 ADD SWAP1 PUSH1 0x20 ADD DUP1 DUP4 GT PUSH2 0x122D JUMPI DUP3 SWAP1 SUB PUSH1 0x1F AND DUP3 ADD SWAP2 JUMPDEST POP POP POP POP POP DUP2 MSTORE PUSH1 0x20 ADD PUSH1 0x2 DUP3 ADD DUP1 SLOAD PUSH2 0x1263 SWAP1 PUSH2 0x330E JUMP JUMPDEST DUP1 PUSH1 0x1F ADD PUSH1 0x20 DUP1 SWAP2 DIV MUL PUSH1 0x20 ADD PUSH1 0x40 MLOAD SWAP1 DUP2 ADD PUSH1 0x40 MSTORE DUP1 SWAP3 SWAP2 SWAP1 DUP2 DUP2 MSTORE PUSH1 0x20 ADD DUP3 DUP1 SLOAD PUSH2 0x128F SWAP1 PUSH2 0x330E JUMP JUMPDEST DUP1 ISZERO PUSH2 0x12DC JUMPI DUP1 PUSH1 0x1F LT PUSH2 0x12B1 JUMPI PUSH2 0x100 DUP1 DUP4 SLOAD DIV MUL DUP4 MSTORE SWAP2 PUSH1 0x20 ADD SWAP2 PUSH2 0x12DC JUMP JUMPDEST DUP3 ADD SWAP2 SWAP1 PUSH1 0x0 MSTORE PUSH1 0x20 PUSH1 0x0 KECCAK256 SWAP1 JUMPDEST DUP2 SLOAD DUP2 MSTORE SWAP1 PUSH1 0x1 ADD SWAP1 PUSH1 0x20 ADD DUP1 DUP4 GT PUSH2 0x12BF JUMPI DUP3 SWAP1 SUB PUSH1 0x1F AND DUP3 ADD SWAP2 JUMPDEST POP POP POP POP POP DUP2 MSTORE PUSH1 0x20 ADD PUSH1 0x3 DUP3 ADD DUP1 SLOAD PUSH2 0x12F5 SWAP1 PUSH2 0x330E JUMP JUMPDEST DUP1 PUSH1 0x1F ADD PUSH1 0x20 DUP1 SWAP2 DIV MUL PUSH1 0x20 ADD PUSH1 0x40 MLOAD SWAP1 DUP2 ADD PUSH1 0x40 MSTORE DUP1 SWAP3 SWAP2 SWAP1 DUP2 DUP2 MSTORE PUSH1 0x20 ADD DUP3 DUP1 SLOAD PUSH2 0x1321 SWAP1 PUSH2 0x330E JUMP JUMPDEST DUP1 ISZERO PUSH2 0x136E JUMPI DUP1 PUSH1 0x1F LT PUSH2 0x1343 JUMPI PUSH2 0x100 DUP1 DUP4 SLOAD DIV MUL DUP4 MSTORE SWAP2 PUSH1 0x20 ADD SWAP2 PUSH2 0x136E JUMP JUMPDEST DUP3 ADD SWAP2 SWAP1 PUSH1 0x0 MSTORE PUSH1 0x20 PUSH1 0x0 KECCAK256 SWAP1 JUMPDEST DUP2 SLOAD DUP2 MSTORE SWAP1 PUSH1 0x1 ADD SWAP1 PUSH1 0x20 ADD DUP1 DUP4 GT PUSH2 0x1351 JUMPI DUP3 SWAP1 SUB PUSH1 0x1F AND DUP3 ADD SWAP2 JUMPDEST POP POP POP POP POP DUP2 MSTORE PUSH1 0x20 ADD PUSH1 0x4 DUP3 ADD DUP1 SLOAD PUSH2 0x1387 SWAP1 PUSH2 0x330E JUMP JUMPDEST DUP1 PUSH1 0x1F ADD PUSH1 0x20 DUP1 SWAP2 DIV MUL PUSH1 0x20 ADD PUSH1 0x40 MLOAD SWAP1 DUP2 ADD PUSH1 0x40 MSTORE DUP1 SWAP3 SWAP2 SWAP1 DUP2 DUP2 MSTORE PUSH1 0x20 ADD DUP3 DUP1 SLOAD PUSH2 0x13B3 SWAP1 PUSH2 0x330E JUMP JUMPDEST DUP1 ISZERO PUSH2 0x1400 JUMPI DUP1 PUSH1 0x1F LT PUSH2 0x13D5 JUMPI PUSH2 0x100 DUP1 DUP4 SLOAD DIV MUL DUP4 MSTORE SWAP2 PUSH1 0x20 ADD SWAP2 PUSH2 0x1400 JUMP JUMPDEST DUP3 ADD SWAP2 SWAP1 PUSH1 0x0 MSTORE PUSH1 0x20 PUSH1 0x0 KECCAK256 SWAP1 JUMPDEST DUP2 SLOAD DUP2 MSTORE SWAP1 PUSH1 0x1 ADD SWAP1 PUSH1 0x20 ADD DUP1 DUP4 GT PUSH2 0x13E3 JUMPI DUP3 SWAP1 SUB PUSH1 0x1F AND DUP3 ADD SWAP2 JUMPDEST POP POP POP POP POP DUP2 MSTORE PUSH1 0x20 ADD PUSH1 0x5 DUP3 ADD DUP1 SLOAD PUSH2 0x1419 SWAP1 PUSH2 0x330E JUMP JUMPDEST DUP1 PUSH1 0x1F ADD PUSH1 0x20 DUP1 SWAP2 DIV MUL PUSH1 0x20 ADD PUSH1 0x40 MLOAD SWAP1 DUP2 ADD PUSH1 0x40 MSTORE DUP1 SWAP3 SWAP2 SWAP1 DUP2 DUP2 MSTORE PUSH1 0x20 ADD DUP3 DUP1 SLOAD PUSH2 0x1445 SWAP1 PUSH2 0x330E JUMP JUMPDEST DUP1 ISZERO PUSH2 0x1492 JUMPI DUP1 PUSH1 0x1F LT PUSH2 0x1467 JUMPI PUSH2 0x100 DUP1 DUP4 SLOAD DIV MUL DUP4 MSTORE SWAP2 PUSH1 0x20 ADD SWAP2 PUSH2 0x1492 JUMP JUMPDEST DUP3 ADD SWAP2 SWAP1 PUSH1 0x0 MSTORE PUSH1 0x20 PUSH1 0x0 KECCAK256 SWAP1 JUMPDEST DUP2 SLOAD DUP2 MSTORE SWAP1 PUSH1 0x1 ADD SWAP1 PUSH1 0x20 ADD DUP1 DUP4 GT PUSH2 0x1475 JUMPI DUP3 SWAP1 SUB PUSH1 0x1F AND DUP3 ADD SWAP2 JUMPDEST POP POP POP POP POP DUP2 MSTORE POP POP SWAP1 DUP1 PUSH1 0xE ADD PUSH1 0x40 MLOAD DUP1 PUSH1 0x60 ADD PUSH1 0x40 MSTORE SWAP1 DUP2 PUSH1 0x0 DUP3 ADD DUP1 SLOAD DUP1 PUSH1 0x20 MUL PUSH1 0x20 ADD PUSH1 0x40 MLOAD SWAP1 DUP2 ADD PUSH1 0x40 MSTORE DUP1 SWAP3 SWAP2 SWAP1 DUP2 DUP2 MSTORE PUSH1 0x20 ADD PUSH1 0x0 SWAP1 JUMPDEST DUP3 DUP3 LT ISZERO PUSH2 0x157C JUMPI DUP4 DUP3 SWAP1 PUSH1 0x0 MSTORE PUSH1 0x20 PUSH1 0x0 KECCAK256 ADD DUP1 SLOAD PUSH2 0x14EF SWAP1 PUSH2 0x330E JUMP JUMPDEST DUP1 PUSH1 0x1F ADD PUSH1 0x20 DUP1 SWAP2 DIV MUL PUSH1 0x20 ADD PUSH1 0x40 MLOAD SWAP1 DUP2 ADD PUSH1 0x40 MSTORE DUP1 SWAP3 SWAP2 SWAP1 DUP2 DUP2 MSTORE PUSH1 0x20 ADD DUP3 DUP1 SLOAD PUSH2 0x151B SWAP1 PUSH2 0x330E JUMP JUMPDEST DUP1 ISZERO PUSH2 0x1568 JUMPI DUP1 PUSH1 0x1F LT PUSH2 0x153D JUMPI PUSH2 0x100 DUP1 DUP4 SLOAD DIV MUL DUP4 MSTORE SWAP2 PUSH1 0x20 ADD SWAP2 PUSH2 0x1568 JUMP JUMPDEST DUP3 ADD SWAP2 SWAP1 PUSH1 0x0 MSTORE PUSH1 0x20 PUSH1 0x0 KECCAK256 SWAP1 JUMPDEST DUP2 SLOAD DUP2 MSTORE SWAP1 PUSH1 0x1 ADD SWAP1 PUSH1 0x20 ADD DUP1 DUP4 GT PUSH2 0x154B JUMPI DUP3 SWAP1 SUB PUSH1 0x1F AND DUP3 ADD SWAP2 JUMPDEST POP POP POP POP POP DUP2 MSTORE PUSH1 0x20 ADD SWAP1 PUSH1 0x1 ADD SWAP1 PUSH2 0x14D0 JUMP JUMPDEST POP POP POP POP DUP2 MSTORE PUSH1 0x20 ADD PUSH1 0x1 DUP3 ADD DUP1 SLOAD DUP1 PUSH1 0x20 MUL PUSH1 0x20 ADD PUSH1 0x40 MLOAD SWAP1 DUP2 ADD PUSH1 0x40 MSTORE DUP1 SWAP3 SWAP2 SWAP1 DUP2 DUP2 MSTORE PUSH1 0x20 ADD PUSH1 0x0 SWAP1 JUMPDEST DUP3 DUP3 LT ISZERO PUSH2 0x1655 JUMPI DUP4 DUP3 SWAP1 PUSH1 0x0 MSTORE PUSH1 0x20 PUSH1 0x0 KECCAK256 ADD DUP1 SLOAD PUSH2 0x15C8 SWAP1 PUSH2 0x330E JUMP JUMPDEST DUP1 PUSH1 0x1F ADD PUSH1 0x20 DUP1 SWAP2 DIV MUL PUSH1 0x20 ADD PUSH1 0x40 MLOAD SWAP1 DUP2 ADD PUSH1 0x40 MSTORE DUP1 SWAP3 SWAP2 SWAP1 DUP2 DUP2 MSTORE PUSH1 0x20 ADD DUP3 DUP1 SLOAD PUSH2 0x15F4 SWAP1 PUSH2 0x330E JUMP JUMPDEST DUP1 ISZERO PUSH2 0x1641 JUMPI DUP1 PUSH1 0x1F LT PUSH2 0x1616 JUMPI PUSH2 0x100 DUP1 DUP4 SLOAD DIV MUL DUP4 MSTORE SWAP2 PUSH1 0x20 ADD SWAP2 PUSH2 0x1641 JUMP JUMPDEST DUP3 ADD SWAP2 SWAP1 PUSH1 0x0 MSTORE PUSH1 0x20 PUSH1 0x0 KECCAK256 SWAP1 JUMPDEST DUP2 SLOAD DUP2 MSTORE SWAP1 PUSH1 0x1 ADD SWAP1 PUSH1 0x20 ADD DUP1 DUP4 GT PUSH2 0x1624 JUMPI DUP3 SWAP1 SUB PUSH1 0x1F AND DUP3 ADD SWAP2 JUMPDEST POP POP POP POP POP DUP2 MSTORE PUSH1 0x20 ADD SWAP1 PUSH1 0x1 ADD SWAP1 PUSH2 0x15A9 JUMP JUMPDEST POP POP POP POP DUP2 MSTORE PUSH1 0x20 ADD PUSH1 0x2 DUP3 ADD DUP1 SLOAD DUP1 PUSH1 0x20 MUL PUSH1 0x20 ADD PUSH1 0x40 MLOAD SWAP1 DUP2 ADD PUSH1 0x40 MSTORE DUP1 SWAP3 SWAP2 SWAP1 DUP2 DUP2 MSTORE PUSH1 0x20 ADD PUSH1 0x0 SWAP1 JUMPDEST DUP3 DUP3 LT ISZERO PUSH2 0x172E JUMPI DUP4 DUP3 SWAP1 PUSH1 0x0 MSTORE PUSH1 0x20 PUSH1 0x0 KECCAK256 ADD DUP1 SLOAD PUSH2 0x16A1 SWAP1 PUSH2 0x330E JUMP JUMPDEST DUP1 PUSH1 0x1F ADD PUSH1 0x20 DUP1 SWAP2 DIV MUL PUSH1 0x20 ADD PUSH1 0x40 MLOAD SWAP1 DUP2 ADD PUSH1 0x40 MSTORE DUP1 SWAP3 SWAP2 SWAP1 DUP2 DUP2 MSTORE PUSH1 0x20 ADD DUP3 DUP1 SLOAD PUSH2 0x16CD SWAP1 PUSH2 0x330E JUMP JUMPDEST DUP1 ISZERO PUSH2 0x171A JUMPI DUP1 PUSH1 0x1F LT PUSH2 0x16EF JUMPI PUSH2 0x100 DUP1 DUP4 SLOAD DIV MUL DUP4 MSTORE SWAP2 PUSH1 0x20 ADD SWAP2 PUSH2 0x171A JUMP JUMPDEST DUP3 ADD SWAP2 SWAP1 PUSH1 0x0 MSTORE PUSH1 0x20 PUSH1 0x0 KECCAK256 SWAP1 JUMPDEST DUP2 SLOAD DUP2 MSTORE SWAP1 PUSH1 0x1 ADD SWAP1 PUSH1 0x20 ADD DUP1 DUP4 GT PUSH2 0x16FD JUMPI DUP3 SWAP1 SUB PUSH1 0x1F AND DUP3 ADD SWAP2 JUMPDEST POP POP POP POP POP DUP2 MSTORE PUSH1 0x20 ADD SWAP1 PUSH1 0x1 ADD SWAP1 PUSH2 0x1682 JUMP JUMPDEST POP POP POP POP DUP2 MSTORE POP POP SWAP1 DUP1 PUSH1 0x12 ADD PUSH1 0x40 MLOAD DUP1 PUSH1 0x40 ADD PUSH1 0x40 MSTORE SWAP1 DUP2 PUSH1 0x0 DUP3 ADD DUP1 SLOAD DUP1 PUSH1 0x20 MUL PUSH1 0x20 ADD PUSH1 0x40 MLOAD SWAP1 DUP2 ADD PUSH1 0x40 MSTORE DUP1 SWAP3 SWAP2 SWAP1 DUP2 DUP2 MSTORE PUSH1 0x20 ADD PUSH1 0x0 SWAP1 JUMPDEST DUP3 DUP3 LT ISZERO PUSH2 0x1817 JUMPI DUP4 DUP3 SWAP1 PUSH1 0x0 MSTORE PUSH1 0x20 PUSH1 0x0 KECCAK256 ADD DUP1 SLOAD PUSH2 0x178A SWAP1 PUSH2 0x330E JUMP JUMPDEST DUP1 PUSH1 0x1F ADD PUSH1 0x20 DUP1 SWAP2 DIV MUL PUSH1 0x20 ADD PUSH1 0x40 MLOAD SWAP1 DUP2 ADD PUSH1 0x40 MSTORE DUP1 SWAP3 SWAP2 SWAP1 DUP2 DUP2 MSTORE PUSH1 0x20 ADD DUP3 DUP1 SLOAD PUSH2 0x17B6 SWAP1 PUSH2 0x330E JUMP JUMPDEST DUP1 ISZERO PUSH2 0x1803 JUMPI DUP1 PUSH1 0x1F LT PUSH2 0x17D8 JUMPI PUSH2 0x100 DUP1 DUP4 SLOAD DIV MUL DUP4 MSTORE SWAP2 PUSH1 0x20 ADD SWAP2 PUSH2 0x1803 JUMP JUMPDEST DUP3 ADD SWAP2 SWAP1 PUSH1 0x0 MSTORE PUSH1 0x20 PUSH1 0x0 KECCAK256 SWAP1 JUMPDEST DUP2 SLOAD DUP2 MSTORE SWAP1 PUSH1 0x1 ADD SWAP1 PUSH1 0x20 ADD DUP1 DUP4 GT PUSH2 0x17E6 JUMPI DUP3 SWAP1 SUB PUSH1 0x1F AND DUP3 ADD SWAP2 JUMPDEST POP POP POP POP POP DUP2 MSTORE PUSH1 0x20 ADD SWAP1 PUSH1 0x1 ADD SWAP1 PUSH2 0x176B JUMP JUMPDEST POP POP POP POP DUP2 MSTORE PUSH1 0x20 ADD PUSH1 0x1 DUP3 ADD DUP1 SLOAD DUP1 PUSH1 0x20 MUL PUSH1 0x20 ADD PUSH1 0x40 MLOAD SWAP1 DUP2 ADD PUSH1 0x40 MSTORE DUP1 SWAP3 SWAP2 SWAP1 DUP2 DUP2 MSTORE PUSH1 0x20 ADD PUSH1 0x0 SWAP1 JUMPDEST DUP3 DUP3 LT ISZERO PUSH2 0x18F0 JUMPI DUP4 DUP3 SWAP1 PUSH1 0x0 MSTORE PUSH1 0x20 PUSH1 0x0 KECCAK256 ADD DUP1 SLOAD PUSH2 0x1863 SWAP1 PUSH2 0x330E JUMP JUMPDEST DUP1 PUSH1 0x1F ADD PUSH1 0x20 DUP1 SWAP2 DIV MUL PUSH1 0x20 ADD PUSH1 0x40 MLOAD SWAP1 DUP2 ADD PUSH1 0x40 MSTORE DUP1 SWAP3 SWAP2 SWAP1 DUP2 DUP2 MSTORE PUSH1 0x20 ADD DUP3 DUP1 SLOAD PUSH2 0x188F SWAP1 PUSH2 0x330E JUMP JUMPDEST DUP1 ISZERO PUSH2 0x18DC JUMPI DUP1 PUSH1 0x1F LT PUSH2 0x18B1 JUMPI PUSH2 0x100 DUP1 DUP4 SLOAD DIV MUL DUP4 MSTORE SWAP2 PUSH1 0x20 ADD SWAP2 PUSH2 0x18DC JUMP JUMPDEST DUP3 ADD SWAP2 SWAP1 PUSH1 0x0 MSTORE PUSH1 0x20 PUSH1 0x0 KECCAK256 SWAP1 JUMPDEST DUP2 SLOAD DUP2 MSTORE SWAP1 PUSH1 0x1 ADD SWAP1 PUSH1 0x20 ADD DUP1 DUP4 GT PUSH2 0x18BF JUMPI DUP3 SWAP1 SUB PUSH1 0x1F AND DUP3 ADD SWAP2 JUMPDEST POP POP POP POP POP DUP2 MSTORE PUSH1 0x20 ADD SWAP1 PUSH1 0x1 ADD SWAP1 PUSH2 0x1844 JUMP JUMPDEST POP POP POP POP DUP2 MSTORE POP POP SWAP1 DUP1 PUSH1 0x14 ADD PUSH1 0x40 MLOAD DUP1 PUSH1 0xA0 ADD PUSH1 0x40 MSTORE SWAP1 DUP2 PUSH1 0x0 DUP3 ADD DUP1 SLOAD PUSH2 0x1918 SWAP1 PUSH2 0x330E JUMP JUMPDEST DUP1 PUSH1 0x1F ADD PUSH1 0x20 DUP1 SWAP2 DIV MUL PUSH1 0x20 ADD PUSH1 0x40 MLOAD SWAP1 DUP2 ADD PUSH1 0x40 MSTORE DUP1 SWAP3 SWAP2 SWAP1 DUP2 DUP2 MSTORE PUSH1 0x20 ADD DUP3 DUP1 SLOAD PUSH2 0x1944 SWAP1 PUSH2 0x330E JUMP JUMPDEST DUP1 ISZERO PUSH2 0x1991 JUMPI DUP1 PUSH1 0x1F LT PUSH2 0x1966 JUMPI PUSH2 0x100 DUP1 DUP4 SLOAD DIV MUL DUP4 MSTORE SWAP2 PUSH1 0x20 ADD SWAP2 PUSH2 0x1991 JUMP JUMPDEST DUP3 ADD SWAP2 SWAP1 PUSH1 0x0 MSTORE PUSH1 0x20 PUSH1 0x0 KECCAK256 SWAP1 JUMPDEST DUP2 SLOAD DUP2 MSTORE SWAP1 PUSH1 0x1 ADD SWAP1 PUSH1 0x20 ADD DUP1 DUP4 GT PUSH2 0x1974 JUMPI DUP3 SWAP1 SUB PUSH1 0x1F AND DUP3 ADD SWAP2 JUMPDEST POP POP POP POP POP DUP2 MSTORE PUSH1 0x20 ADD PUSH1 0x1 DUP3 ADD DUP1 SLOAD PUSH2 0x19AA SWAP1 PUSH2 0x330E JUMP JUMPDEST DUP1 PUSH1 0x1F ADD PUSH1 0x20 DUP1 SWAP2 DIV MUL PUSH1 0x20 ADD PUSH1 0x40 MLOAD SWAP1 DUP2 ADD PUSH1 0x40 MSTORE DUP1 SWAP3 SWAP2 SWAP1 DUP2 DUP2 MSTORE PUSH1 0x20 ADD DUP3 DUP1 SLOAD PUSH2 0x19D6 SWAP1 PUSH2 0x330E JUMP JUMPDEST DUP1 ISZERO PUSH2 0x1A23 JUMPI DUP1 PUSH1 0x1F LT PUSH2 0x19F8 JUMPI PUSH2 0x100 DUP1 DUP4 SLOAD DIV MUL DUP4 MSTORE SWAP2 PUSH1 0x20 ADD SWAP2 PUSH2 0x1A23 JUMP JUMPDEST DUP3 ADD SWAP2 SWAP1 PUSH1 0x0 MSTORE PUSH1 0x20 PUSH1 0x0 KECCAK256 SWAP1 JUMPDEST DUP2 SLOAD DUP2 MSTORE SWAP1 PUSH1 0x1 ADD SWAP1 PUSH1 0x20 ADD DUP1 DUP4 GT PUSH2 0x1A06 JUMPI DUP3 SWAP1 SUB PUSH1 0x1F AND DUP3 ADD SWAP2 JUMPDEST POP POP POP POP POP DUP2 MSTORE PUSH1 0x20 ADD PUSH1 0x2 DUP3 ADD DUP1 SLOAD PUSH2 0x1A3C SWAP1 PUSH2 0x330E JUMP JUMPDEST DUP1 PUSH1 0x1F ADD PUSH1 0x20 DUP1 SWAP2 DIV MUL PUSH1 0x20 ADD PUSH1 0x40 MLOAD SWAP1 DUP2 ADD PUSH1 0x40 MSTORE DUP1 SWAP3 SWAP2 SWAP1 DUP2 DUP2 MSTORE PUSH1 0x20 ADD DUP3 DUP1 SLOAD PUSH2 0x1A68 SWAP1 PUSH2 0x330E JUMP JUMPDEST DUP1 ISZERO PUSH2 0x1AB5 JUMPI DUP1 PUSH1 0x1F LT PUSH2 0x1A8A JUMPI PUSH2 0x100 DUP1 DUP4 SLOAD DIV MUL DUP4 MSTORE SWAP2 PUSH1 0x20 ADD SWAP2 PUSH2 0x1AB5 JUMP JUMPDEST DUP3 ADD SWAP2 SWAP1 PUSH1 0x0 MSTORE PUSH1 0x20 PUSH1 0x0 KECCAK256 SWAP1 JUMPDEST DUP2 SLOAD DUP2 MSTORE SWAP1 PUSH1 0x1 ADD SWAP1 PUSH1 0x20 ADD DUP1 DUP4 GT PUSH2 0x1A98 JUMPI DUP3 SWAP1 SUB PUSH1 0x1F AND DUP3 ADD SWAP2 JUMPDEST POP POP POP POP POP DUP2 MSTORE PUSH1 0x20 ADD PUSH1 0x3 DUP3 ADD DUP1 SLOAD PUSH2 0x1ACE SWAP1 PUSH2 0x330E JUMP JUMPDEST DUP1 PUSH1 0x1F ADD PUSH1 0x20 DUP1 SWAP2 DIV MUL PUSH1 0x20 ADD PUSH1 0x40 MLOAD SWAP1 DUP2 ADD PUSH1 0x40 MSTORE DUP1 SWAP3 SWAP2 SWAP1 DUP2 DUP2 MSTORE PUSH1 0x20 ADD DUP3 DUP1 SLOAD PUSH2 0x1AFA SWAP1 PUSH2 0x330E JUMP JUMPDEST DUP1 ISZERO PUSH2 0x1B47 JUMPI DUP1 PUSH1 0x1F LT PUSH2 0x1B1C JUMPI PUSH2 0x100 DUP1 DUP4 SLOAD DIV MUL DUP4 MSTORE SWAP2 PUSH1 0x20 ADD SWAP2 PUSH2 0x1B47 JUMP JUMPDEST DUP3 ADD SWAP2 SWAP1 PUSH1 0x0 MSTORE PUSH1 0x20 PUSH1 0x0 KECCAK256 SWAP1 JUMPDEST DUP2 SLOAD DUP2 MSTORE SWAP1 PUSH1 0x1 ADD SWAP1 PUSH1 0x20 ADD DUP1 DUP4 GT PUSH2 0x1B2A JUMPI DUP3 SWAP1 SUB PUSH1 0x1F AND DUP3 ADD SWAP2 JUMPDEST POP POP POP POP POP DUP2 MSTORE PUSH1 0x20 ADD PUSH1 0x4 DUP3 ADD DUP1 SLOAD DUP1 PUSH1 0x20 MUL PUSH1 0x20 ADD PUSH1 0x40 MLOAD SWAP1 DUP2 ADD PUSH1 0x40 MSTORE DUP1 SWAP3 SWAP2 SWAP1 DUP2 DUP2 MSTORE PUSH1 0x20 ADD PUSH1 0x0 SWAP1 JUMPDEST DUP3 DUP3 LT ISZERO PUSH2 0x1C21 JUMPI DUP4 DUP3 SWAP1 PUSH1 0x0 MSTORE PUSH1 0x20 PUSH1 0x0 KECCAK256 ADD DUP1 SLOAD PUSH2 0x1B94 SWAP1 PUSH2 0x330E JUMP JUMPDEST DUP1 PUSH1 0x1F ADD PUSH1 0x20 DUP1 SWAP2 DIV MUL PUSH1 0x20 ADD PUSH1 0x40 MLOAD SWAP1 DUP2 ADD PUSH1 0x40 MSTORE DUP1 SWAP3 SWAP2 SWAP1 DUP2 DUP2 MSTORE PUSH1 0x20 ADD DUP3 DUP1 SLOAD PUSH2 0x1BC0 SWAP1 PUSH2 0x330E JUMP JUMPDEST DUP1 ISZERO PUSH2 0x1C0D JUMPI DUP1 PUSH1 0x1F LT PUSH2 0x1BE2 JUMPI PUSH2 0x100 DUP1 DUP4 SLOAD DIV MUL DUP4 MSTORE SWAP2 PUSH1 0x20 ADD SWAP2 PUSH2 0x1C0D JUMP JUMPDEST DUP3 ADD SWAP2 SWAP1 PUSH1 0x0 MSTORE PUSH1 0x20 PUSH1 0x0 KECCAK256 SWAP1 JUMPDEST DUP2 SLOAD DUP2 MSTORE SWAP1 PUSH1 0x1 ADD SWAP1 PUSH1 0x20 ADD DUP1 DUP4 GT PUSH2 0x1BF0 JUMPI DUP3 SWAP1 SUB PUSH1 0x1F AND DUP3 ADD SWAP2 JUMPDEST POP POP POP POP POP DUP2 MSTORE PUSH1 0x20 ADD SWAP1 PUSH1 0x1 ADD SWAP1 PUSH2 0x1B75 JUMP JUMPDEST POP POP POP POP DUP2 MSTORE POP POP SWAP1 DUP1 PUSH1 0x19 ADD PUSH1 0x40 MLOAD DUP1 PUSH1 0x40 ADD PUSH1 0x40 MSTORE SWAP1 DUP2 PUSH1 0x0 DUP3 ADD DUP1 SLOAD PUSH2 0x1C49 SWAP1 PUSH2 0x330E JUMP JUMPDEST DUP1 PUSH1 0x1F ADD PUSH1 0x20 DUP1 SWAP2 DIV MUL PUSH1 0x20 ADD PUSH1 0x40 MLOAD SWAP1 DUP2 ADD PUSH1 0x40 MSTORE DUP1 SWAP3 SWAP2 SWAP1 DUP2 DUP2 MSTORE PUSH1 0x20 ADD DUP3 DUP1 SLOAD PUSH2 0x1C75 SWAP1 PUSH2 0x330E JUMP JUMPDEST DUP1 ISZERO PUSH2 0x1CC2 JUMPI DUP1 PUSH1 0x1F LT PUSH2 0x1C97 JUMPI PUSH2 0x100 DUP1 DUP4 SLOAD DIV MUL DUP4 MSTORE SWAP2 PUSH1 0x20 ADD SWAP2 PUSH2 0x1CC2 JUMP JUMPDEST DUP3 ADD SWAP2 SWAP1 PUSH1 0x0 MSTORE PUSH1 0x20 PUSH1 0x0 KECCAK256 SWAP1 JUMPDEST DUP2 SLOAD DUP2 MSTORE SWAP1 PUSH1 0x1 ADD SWAP1 PUSH1 0x20 ADD DUP1 DUP4 GT PUSH2 0x1CA5 JUMPI DUP3 SWAP1 SUB PUSH1 0x1F AND DUP3 ADD SWAP2 JUMPDEST POP POP POP POP POP DUP2 MSTORE PUSH1 0x20 ADD PUSH1 0x1 DUP3 ADD DUP1 SLOAD PUSH2 0x1CDB SWAP1 PUSH2 0x330E JUMP JUMPDEST DUP1 PUSH1 0x1F ADD PUSH1 0x20 DUP1 SWAP2 DIV MUL PUSH1 0x20 ADD PUSH1 0x40 MLOAD SWAP1 DUP2 ADD PUSH1 0x40 MSTORE DUP1 SWAP3 SWAP2 SWAP1 DUP2 DUP2 MSTORE PUSH1 0x20 ADD DUP3 DUP1 SLOAD PUSH2 0x1D07 SWAP1 PUSH2 0x330E JUMP JUMPDEST DUP1 ISZERO PUSH2 0x1D54 JUMPI DUP1 PUSH1 0x1F LT PUSH2 0x1D29 JUMPI PUSH2 0x100 DUP1 DUP4 SLOAD DIV MUL DUP4 MSTORE SWAP2 PUSH1 0x20 ADD SWAP2 PUSH2 0x1D54 JUMP JUMPDEST DUP3 ADD SWAP2 SWAP1 PUSH1 0x0 MSTORE PUSH1 0x20 PUSH1 0x0 KECCAK256 SWAP1 JUMPDEST DUP2 SLOAD DUP2 MSTORE SWAP1 PUSH1 0x1 ADD SWAP1 PUSH1 0x20 ADD DUP1 DUP4 GT PUSH2 0x1D37 JUMPI DUP3 SWAP1 SUB PUSH1 0x1F AND DUP3 ADD SWAP2 JUMPDEST POP POP POP POP POP DUP2 MSTORE POP POP SWAP1 POP DUP7 JUMP JUMPDEST PUSH1 0x0 DUP1 CALLER PUSH20 0xFFFFFFFFFFFFFFFFFFFFFFFFFFFFFFFFFFFFFFFF AND PUSH20 0xFFFFFFFFFFFFFFFFFFFFFFFFFFFFFFFFFFFFFFFF AND DUP2 MSTORE PUSH1 0x20 ADD SWAP1 DUP2 MSTORE PUSH1 0x20 ADD PUSH1 0x0 KECCAK256 PUSH1 0x11 ADD PUSH1 0x0 PUSH2 0x1DAF SWAP2 SWAP1 PUSH2 0x261E JUMP JUMPDEST JUMP JUMPDEST PUSH1 0x60 DUP1 PUSH1 0x60 DUP1 PUSH1 0x60 PUSH1 0x0 DUP1 CALLER PUSH20 0xFFFFFFFFFFFFFFFFFFFFFFFFFFFFFFFFFFFFFFFF AND PUSH20 0xFFFFFFFFFFFFFFFFFFFFFFFFFFFFFFFFFFFFFFFF AND DUP2 MSTORE PUSH1 0x20 ADD SWAP1 DUP2 MSTORE PUSH1 0x20 ADD PUSH1 0x0 KECCAK256 PUSH1 0x11 ADD DUP7 DUP2 SLOAD DUP2 LT PUSH2 0x1E0C JUMPI PUSH2 0x1E0B PUSH2 0x33A0 JUMP JUMPDEST JUMPDEST SWAP1 PUSH1 0x0 MSTORE PUSH1 0x20 PUSH1 0x0 KECCAK256 SWAP1 PUSH1 0x5 MUL ADD PUSH1 0x0 ADD PUSH1 0x0 DUP1 CALLER PUSH20 0xFFFFFFFFFFFFFFFFFFFFFFFFFFFFFFFFFFFFFFFF AND PUSH20 0xFFFFFFFFFFFFFFFFFFFFFFFFFFFFFFFFFFFFFFFF AND DUP2 MSTORE PUSH1 0x20 ADD SWAP1 DUP2 MSTORE PUSH1 0x20 ADD PUSH1 0x0 KECCAK256 PUSH1 0x11 ADD DUP8 DUP2 SLOAD DUP2 LT PUSH2 0x1E70 JUMPI PUSH2 0x1E6F PUSH2 0x33A0 JUMP JUMPDEST JUMPDEST SWAP1 PUSH1 0x0 MSTORE PUSH1 0x20 PUSH1 0x0 KECCAK256 SWAP1 PUSH1 0x5 MUL ADD PUSH1 0x1 ADD PUSH1 0x0 DUP1 CALLER PUSH20 0xFFFFFFFFFFFFFFFFFFFFFFFFFFFFFFFFFFFFFFFF AND PUSH20 0xFFFFFFFFFFFFFFFFFFFFFFFFFFFFFFFFFFFFFFFF AND DUP2 MSTORE PUSH1 0x20 ADD SWAP1 DUP2 MSTORE PUSH1 0x20 ADD PUSH1 0x0 KECCAK256 PUSH1 0x11 ADD DUP9 DUP2 SLOAD DUP2 LT PUSH2 0x1ED4 JUMPI PUSH2 0x1ED3 PUSH2 0x33A0 JUMP JUMPDEST JUMPDEST SWAP1 PUSH1 0x0 MSTORE PUSH1 0x20 PUSH1 0x0 KECCAK256 SWAP1 PUSH1 0x5 MUL ADD PUSH1 0x2 ADD PUSH1 0x0 DUP1 CALLER PUSH20 0xFFFFFFFFFFFFFFFFFFFFFFFFFFFFFFFFFFFFFFFF AND PUSH20 0xFFFFFFFFFFFFFFFFFFFFFFFFFFFFFFFFFFFFFFFF AND DUP2 MSTORE PUSH1 0x20 ADD SWAP1 DUP2 MSTORE PUSH1 0x20 ADD PUSH1 0x0 KECCAK256 PUSH1 0x11 ADD DUP10 DUP2 SLOAD DUP2 LT PUSH2 0x1F38 JUMPI PUSH2 0x1F37 PUSH2 0x33A0 JUMP JUMPDEST JUMPDEST SWAP1 PUSH1 0x0 MSTORE PUSH1 0x20 PUSH1 0x0 KECCAK256 SWAP1 PUSH1 0x5 MUL ADD PUSH1 0x3 ADD PUSH1 0x0 DUP1 CALLER PUSH20 0xFFFFFFFFFFFFFFFFFFFFFFFFFFFFFFFFFFFFFFFF AND PUSH20 0xFFFFFFFFFFFFFFFFFFFFFFFFFFFFFFFFFFFFFFFF AND DUP2 MSTORE PUSH1 0x20 ADD SWAP1 DUP2 MSTORE PUSH1 0x20 ADD PUSH1 0x0 KECCAK256 PUSH1 0x11 ADD DUP11 DUP2 SLOAD DUP2 LT PUSH2 0x1F9C JUMPI PUSH2 0x1F9B PUSH2 0x33A0 JUMP JUMPDEST JUMPDEST SWAP1 PUSH1 0x0 MSTORE PUSH1 0x20 PUSH1 0x0 KECCAK256 SWAP1 PUSH1 0x5 MUL ADD PUSH1 0x4 ADD DUP5 DUP1 SLOAD PUSH2 0x1FB9 SWAP1 PUSH2 0x330E JUMP JUMPDEST DUP1 PUSH1 0x1F ADD PUSH1 0x20 DUP1 SWAP2 DIV MUL PUSH1 0x20 ADD PUSH1 0x40 MLOAD SWAP1 DUP2 ADD PUSH1 0x40 MSTORE DUP1 SWAP3 SWAP2 SWAP1 DUP2 DUP2 MSTORE PUSH1 0x20 ADD DUP3 DUP1 SLOAD PUSH2 0x1FE5 SWAP1 PUSH2 0x330E JUMP JUMPDEST DUP1 ISZERO PUSH2 0x2032 JUMPI DUP1 PUSH1 0x1F LT PUSH2 0x2007 JUMPI PUSH2 0x100 DUP1 DUP4 SLOAD DIV MUL DUP4 MSTORE SWAP2 PUSH1 0x20 ADD SWAP2 PUSH2 0x2032 JUMP JUMPDEST DUP3 ADD SWAP2 SWAP1 PUSH1 0x0 MSTORE PUSH1 0x20 PUSH1 0x0 KECCAK256 SWAP1 JUMPDEST DUP2 SLOAD DUP2 MSTORE SWAP1 PUSH1 0x1 ADD SWAP1 PUSH1 0x20 ADD DUP1 DUP4 GT PUSH2 0x2015 JUMPI DUP3 SWAP1 SUB PUSH1 0x1F AND DUP3 ADD SWAP2 JUMPDEST POP POP POP POP POP SWAP5 POP DUP4 DUP1 SLOAD PUSH2 0x2045 SWAP1 PUSH2 0x330E JUMP JUMPDEST DUP1 PUSH1 0x1F ADD PUSH1 0x20 DUP1 SWAP2 DIV MUL PUSH1 0x20 ADD PUSH1 0x40 MLOAD SWAP1 DUP2 ADD PUSH1 0x40 MSTORE DUP1 SWAP3 SWAP2 SWAP1 DUP2 DUP2 MSTORE PUSH1 0x20 ADD DUP3 DUP1 SLOAD PUSH2 0x2071 SWAP1 PUSH2 0x330E JUMP JUMPDEST DUP1 ISZERO PUSH2 0x20BE JUMPI DUP1 PUSH1 0x1F LT PUSH2 0x2093 JUMPI PUSH2 0x100 DUP1 DUP4 SLOAD DIV MUL DUP4 MSTORE SWAP2 PUSH1 0x20 ADD SWAP2 PUSH2 0x20BE JUMP JUMPDEST DUP3 ADD SWAP2 SWAP1 PUSH1 0x0 MSTORE PUSH1 0x20 PUSH1 0x0 KECCAK256 SWAP1 JUMPDEST DUP2 SLOAD DUP2 MSTORE SWAP1 PUSH1 0x1 ADD SWAP1 PUSH1 0x20 ADD DUP1 DUP4 GT PUSH2 0x20A1 JUMPI DUP3 SWAP1 SUB PUSH1 0x1F AND DUP3 ADD SWAP2 JUMPDEST POP POP POP POP POP SWAP4 POP DUP3 DUP1 SLOAD PUSH2 0x20D1 SWAP1 PUSH2 0x330E JUMP JUMPDEST DUP1 PUSH1 0x1F ADD PUSH1 0x20 DUP1 SWAP2 DIV MUL PUSH1 0x20 ADD PUSH1 0x40 MLOAD SWAP1 DUP2 ADD PUSH1 0x40 MSTORE DUP1 SWAP3 SWAP2 SWAP1 DUP2 DUP2 MSTORE PUSH1 0x20 ADD DUP3 DUP1 SLOAD PUSH2 0x20FD SWAP1 PUSH2 0x330E JUMP JUMPDEST DUP1 ISZERO PUSH2 0x214A JUMPI DUP1 PUSH1 0x1F LT PUSH2 0x211F JUMPI PUSH2 0x100 DUP1 DUP4 SLOAD DIV MUL DUP4 MSTORE SWAP2 PUSH1 0x20 ADD SWAP2 PUSH2 0x214A JUMP JUMPDEST DUP3 ADD SWAP2 SWAP1 PUSH1 0x0 MSTORE PUSH1 0x20 PUSH1 0x0 KECCAK256 SWAP1 JUMPDEST DUP2 SLOAD DUP2 MSTORE SWAP1 PUSH1 0x1 ADD SWAP1 PUSH1 0x20 ADD DUP1 DUP4 GT PUSH2 0x212D JUMPI DUP3 SWAP1 SUB PUSH1 0x1F AND DUP3 ADD SWAP2 JUMPDEST POP POP POP POP POP SWAP3 POP DUP2 DUP1 SLOAD PUSH2 0x215D SWAP1 PUSH2 0x330E JUMP JUMPDEST DUP1 PUSH1 0x1F ADD PUSH1 0x20 DUP1 SWAP2 DIV MUL PUSH1 0x20 ADD PUSH1 0x40 MLOAD SWAP1 DUP2 ADD PUSH1 0x40 MSTORE DUP1 SWAP3 SWAP2 SWAP1 DUP2 DUP2 MSTORE PUSH1 0x20 ADD DUP3 DUP1 SLOAD PUSH2 0x2189 SWAP1 PUSH2 0x330E JUMP JUMPDEST DUP1 ISZERO PUSH2 0x21D6 JUMPI DUP1 PUSH1 0x1F LT PUSH2 0x21AB JUMPI PUSH2 0x100 DUP1 DUP4 SLOAD DIV MUL DUP4 MSTORE SWAP2 PUSH1 0x20 ADD SWAP2 PUSH2 0x21D6 JUMP JUMPDEST DUP3 ADD SWAP2 SWAP1 PUSH1 0x0 MSTORE PUSH1 0x20 PUSH1 0x0 KECCAK256 SWAP1 JUMPDEST DUP2 SLOAD DUP2 MSTORE SWAP1 PUSH1 0x1 ADD SWAP1 PUSH1 0x20 ADD DUP1 DUP4 GT PUSH2 0x21B9 JUMPI DUP3 SWAP1 SUB PUSH1 0x1F AND DUP3 ADD SWAP2 JUMPDEST POP POP POP POP POP SWAP2 POP DUP1 DUP1 SLOAD PUSH2 0x21E9 SWAP1 PUSH2 0x330E JUMP JUMPDEST DUP1 PUSH1 0x1F ADD PUSH1 0x20 DUP1 SWAP2 DIV MUL PUSH1 0x20 ADD PUSH1 0x40 MLOAD SWAP1 DUP2 ADD PUSH1 0x40 MSTORE DUP1 SWAP3 SWAP2 SWAP1 DUP2 DUP2 MSTORE PUSH1 0x20 ADD DUP3 DUP1 SLOAD PUSH2 0x2215 SWAP1 PUSH2 0x330E JUMP JUMPDEST DUP1 ISZERO PUSH2 0x2262 JUMPI DUP1 PUSH1 0x1F LT PUSH2 0x2237 JUMPI PUSH2 0x100 DUP1 DUP4 SLOAD DIV MUL DUP4 MSTORE SWAP2 PUSH1 0x20 ADD SWAP2 PUSH2 0x2262 JUMP JUMPDEST DUP3 ADD SWAP2 SWAP1 PUSH1 0x0 MSTORE PUSH1 0x20 PUSH1 0x0 KECCAK256 SWAP1 JUMPDEST DUP2 SLOAD DUP2 MSTORE SWAP1 PUSH1 0x1 ADD SWAP1 PUSH1 0x20 ADD DUP1 DUP4 GT PUSH2 0x2245 JUMPI DUP3 SWAP1 SUB PUSH1 0x1F AND DUP3 ADD SWAP2 JUMPDEST POP POP POP POP POP SWAP1 POP SWAP5 POP SWAP5 POP SWAP5 POP SWAP5 POP SWAP5 POP SWAP2 SWAP4 SWAP6 SWAP1 SWAP3 SWAP5 POP JUMP JUMPDEST PUSH1 0x0 DUP1 CALLER PUSH20 0xFFFFFFFFFFFFFFFFFFFFFFFFFFFFFFFFFFFFFFFF AND PUSH20 0xFFFFFFFFFFFFFFFFFFFFFFFFFFFFFFFFFFFFFFFF AND DUP2 MSTORE PUSH1 0x20 ADD SWAP1 DUP2 MSTORE PUSH1 0x20 ADD PUSH1 0x0 KECCAK256 PUSH1 0x0 DUP1 DUP3 ADD PUSH1 0x0 DUP1 DUP3 ADD PUSH1 0x0 PUSH2 0x22D0 SWAP2 SWAP1 PUSH2 0x25DE JUMP JUMPDEST PUSH1 0x1 DUP3 ADD PUSH1 0x0 PUSH2 0x22E0 SWAP2 SWAP1 PUSH2 0x25DE JUMP JUMPDEST PUSH1 0x2 DUP3 ADD PUSH1 0x0 PUSH2 0x100 EXP DUP2 SLOAD SWAP1 PUSH20 0xFFFFFFFFFFFFFFFFFFFFFFFFFFFFFFFFFFFFFFFF MUL NOT AND SWAP1 SSTORE PUSH1 0x3 DUP3 ADD PUSH1 0x0 PUSH2 0x2317 SWAP2 SWAP1 PUSH2 0x25DE JUMP JUMPDEST PUSH1 0x4 DUP3 ADD PUSH1 0x0 PUSH2 0x2327 SWAP2 SWAP1 PUSH2 0x25DE JUMP JUMPDEST PUSH1 0x5 DUP3 ADD PUSH1 0x0 PUSH2 0x2337 SWAP2 SWAP1 PUSH2 0x25DE JUMP JUMPDEST PUSH1 0x6 DUP3 ADD PUSH1 0x0 PUSH2 0x2347 SWAP2 SWAP1 PUSH2 0x25DE JUMP JUMPDEST PUSH1 0x7 DUP3 ADD PUSH1 0x0 SWAP1 SSTORE POP POP PUSH1 0x8 DUP3 ADD PUSH1 0x0 DUP1 DUP3 ADD PUSH1 0x0 PUSH2 0x2366 SWAP2 SWAP1 PUSH2 0x25DE JUMP JUMPDEST PUSH1 0x1 DUP3 ADD PUSH1 0x0 PUSH2 0x2376 SWAP2 SWAP1 PUSH2 0x25DE JUMP JUMPDEST PUSH1 0x2 DUP3 ADD PUSH1 0x0 PUSH2 0x2386 SWAP2 SWAP1 PUSH2 0x25DE JUMP JUMPDEST PUSH1 0x3 DUP3 ADD PUSH1 0x0 PUSH2 0x2396 SWAP2 SWAP1 PUSH2 0x25DE JUMP JUMPDEST PUSH1 0x4 DUP3 ADD PUSH1 0x0 PUSH2 0x23A6 SWAP2 SWAP1 PUSH2 0x25DE JUMP JUMPDEST PUSH1 0x5 DUP3 ADD PUSH1 0x0 PUSH2 0x23B6 SWAP2 SWAP1 PUSH2 0x25DE JUMP JUMPDEST POP POP PUSH1 0xE DUP3 ADD PUSH1 0x0 DUP1 DUP3 ADD PUSH1 0x0 PUSH2 0x23CD SWAP2 SWAP1 PUSH2 0x252E JUMP JUMPDEST PUSH1 0x1 DUP3 ADD PUSH1 0x0 PUSH2 0x23DD SWAP2 SWAP1 PUSH2 0x252E JUMP JUMPDEST PUSH1 0x2 DUP3 ADD PUSH1 0x0 PUSH2 0x23ED SWAP2 SWAP1 PUSH2 0x252E JUMP JUMPDEST POP POP PUSH1 0x11 DUP3 ADD PUSH1 0x0 PUSH2 0x23FF SWAP2 SWAP1 PUSH2 0x261E JUMP JUMPDEST PUSH1 0x12 DUP3 ADD PUSH1 0x0 DUP1 DUP3 ADD PUSH1 0x0 PUSH2 0x2414 SWAP2 SWAP1 PUSH2 0x252E JUMP JUMPDEST PUSH1 0x1 DUP3 ADD PUSH1 0x0 PUSH2 0x2424 SWAP2 SWAP1 PUSH2 0x252E JUMP JUMPDEST POP POP PUSH1 0x14 DUP3 ADD PUSH1 0x0 DUP1 DUP3 ADD PUSH1 0x0 PUSH2 0x243B SWAP2 SWAP1 PUSH2 0x25DE JUMP JUMPDEST PUSH1 0x1 DUP3 ADD PUSH1 0x0 PUSH2 0x244B SWAP2 SWAP1 PUSH2 0x25DE JUMP JUMPDEST PUSH1 0x2 DUP3 ADD PUSH1 0x0 PUSH2 0x245B SWAP2 SWAP1 PUSH2 0x25DE JUMP JUMPDEST PUSH1 0x3 DUP3 ADD PUSH1 0x0 PUSH2 0x246B SWAP2 SWAP1 PUSH2 0x25DE JUMP JUMPDEST PUSH1 0x4 DUP3 ADD PUSH1 0x0 PUSH2 0x247B SWAP2 SWAP1 PUSH2 0x252E JUMP JUMPDEST POP POP PUSH1 0x19 DUP3 ADD PUSH1 0x0 DUP1 DUP3 ADD PUSH1 0x0 PUSH2 0x2492 SWAP2 SWAP1 PUSH2 0x25DE JUMP JUMPDEST PUSH1 0x1 DUP3 ADD PUSH1 0x0 PUSH2 0x24A2 SWAP2 SWAP1 PUSH2 0x25DE JUMP JUMPDEST POP POP POP POP JUMP JUMPDEST DUP3 DUP1 SLOAD PUSH2 0x24B4 SWAP1 PUSH2 0x330E JUMP JUMPDEST SWAP1 PUSH1 0x0 MSTORE PUSH1 0x20 PUSH1 0x0 KECCAK256 SWAP1 PUSH1 0x1F ADD PUSH1 0x20 SWAP1 DIV DUP2 ADD SWAP3 DUP3 PUSH2 0x24D6 JUMPI PUSH1 0x0 DUP6 SSTORE PUSH2 0x251D JUMP JUMPDEST DUP3 PUSH1 0x1F LT PUSH2 0x24EF JUMPI DUP1 MLOAD PUSH1 0xFF NOT AND DUP4 DUP1 ADD OR DUP6 SSTORE PUSH2 0x251D JUMP JUMPDEST DUP3 DUP1 ADD PUSH1 0x1 ADD DUP6 SSTORE DUP3 ISZERO PUSH2 0x251D JUMPI SWAP2 DUP3 ADD JUMPDEST DUP3 DUP2 GT ISZERO PUSH2 0x251C JUMPI DUP3 MLOAD DUP3 SSTORE SWAP2 PUSH1 0x20 ADD SWAP2 SWAP1 PUSH1 0x1 ADD SWAP1 PUSH2 0x2501 JUMP JUMPDEST JUMPDEST POP SWAP1 POP PUSH2 0x252A SWAP2 SWAP1 PUSH2 0x2642 JUMP JUMPDEST POP SWAP1 JUMP JUMPDEST POP DUP1 SLOAD PUSH1 0x0 DUP3 SSTORE SWAP1 PUSH1 0x0 MSTORE PUSH1 0x20 PUSH1 0x0 KECCAK256 SWAP1 DUP2 ADD SWAP1 PUSH2 0x254C SWAP2 SWAP1 PUSH2 0x265F JUMP JUMPDEST POP JUMP JUMPDEST DUP3 DUP1 SLOAD DUP3 DUP3 SSTORE SWAP1 PUSH1 0x0 MSTORE PUSH1 0x20 PUSH1 0x0 KECCAK256 SWAP1 DUP2 ADD SWAP3 DUP3 ISZERO PUSH2 0x259E JUMPI SWAP2 PUSH1 0x20 MUL DUP3 ADD JUMPDEST DUP3 DUP2 GT ISZERO PUSH2 0x259D JUMPI DUP3 MLOAD DUP3 SWAP1 DUP1 MLOAD SWAP1 PUSH1 0x20 ADD SWAP1 PUSH2 0x258D SWAP3 SWAP2 SWAP1 PUSH2 0x24A8 JUMP JUMPDEST POP SWAP2 PUSH1 0x20 ADD SWAP2 SWAP1 PUSH1 0x1 ADD SWAP1 PUSH2 0x256F JUMP JUMPDEST JUMPDEST POP SWAP1 POP PUSH2 0x25AB SWAP2 SWAP1 PUSH2 0x265F JUMP JUMPDEST POP SWAP1 JUMP JUMPDEST PUSH1 0x40 MLOAD DUP1 PUSH1 0xA0 ADD PUSH1 0x40 MSTORE DUP1 PUSH1 0x60 DUP2 MSTORE PUSH1 0x20 ADD PUSH1 0x60 DUP2 MSTORE PUSH1 0x20 ADD PUSH1 0x60 DUP2 MSTORE PUSH1 0x20 ADD PUSH1 0x60 DUP2 MSTORE PUSH1 0x20 ADD PUSH1 0x60 DUP2 MSTORE POP SWAP1 JUMP JUMPDEST POP DUP1 SLOAD PUSH2 0x25EA SWAP1 PUSH2 0x330E JUMP JUMPDEST PUSH1 0x0 DUP3 SSTORE DUP1 PUSH1 0x1F LT PUSH2 0x25FC JUMPI POP PUSH2 0x261B JUMP JUMPDEST PUSH1 0x1F ADD PUSH1 0x20 SWAP1 DIV SWAP1 PUSH1 0x0 MSTORE PUSH1 0x20 PUSH1 0x0 KECCAK256 SWAP1 DUP2 ADD SWAP1 PUSH2 0x261A SWAP2 SWAP1 PUSH2 0x2642 JUMP JUMPDEST JUMPDEST POP JUMP JUMPDEST POP DUP1 SLOAD PUSH1 0x0 DUP3 SSTORE PUSH1 0x5 MUL SWAP1 PUSH1 0x0 MSTORE PUSH1 0x20 PUSH1 0x0 KECCAK256 SWAP1 DUP2 ADD SWAP1 PUSH2 0x263F SWAP2 SWAP1 PUSH2 0x2683 JUMP JUMPDEST POP JUMP JUMPDEST JUMPDEST DUP1 DUP3 GT ISZERO PUSH2 0x265B JUMPI PUSH1 0x0 DUP2 PUSH1 0x0 SWAP1 SSTORE POP PUSH1 0x1 ADD PUSH2 0x2643 JUMP JUMPDEST POP SWAP1 JUMP JUMPDEST JUMPDEST DUP1 DUP3 GT ISZERO PUSH2 0x267F JUMPI PUSH1 0x0 DUP2 DUP2 PUSH2 0x2676 SWAP2 SWAP1 PUSH2 0x25DE JUMP JUMPDEST POP PUSH1 0x1 ADD PUSH2 0x2660 JUMP JUMPDEST POP SWAP1 JUMP JUMPDEST JUMPDEST DUP1 DUP3 GT ISZERO PUSH2 0x26E6 JUMPI PUSH1 0x0 DUP1 DUP3 ADD PUSH1 0x0 PUSH2 0x269D SWAP2 SWAP1 PUSH2 0x25DE JUMP JUMPDEST PUSH1 0x1 DUP3 ADD PUSH1 0x0 PUSH2 0x26AD SWAP2 SWAP1 PUSH2 0x25DE JUMP JUMPDEST PUSH1 0x2 DUP3 ADD PUSH1 0x0 PUSH2 0x26BD SWAP2 SWAP1 PUSH2 0x25DE JUMP JUMPDEST PUSH1 0x3 DUP3 ADD PUSH1 0x0 PUSH2 0x26CD SWAP2 SWAP1 PUSH2 0x25DE JUMP JUMPDEST PUSH1 0x4 DUP3 ADD PUSH1 0x0 PUSH2 0x26DD SWAP2 SWAP1 PUSH2 0x25DE JUMP JUMPDEST POP PUSH1 0x5 ADD PUSH2 0x2684 JUMP JUMPDEST POP SWAP1 JUMP JUMPDEST PUSH1 0x0 PUSH2 0x26FD PUSH2 0x26F8 DUP5 PUSH2 0x31CD JUMP JUMPDEST PUSH2 0x31A8 JUMP JUMPDEST SWAP1 POP DUP1 DUP4 DUP3 MSTORE PUSH1 0x20 DUP3 ADD SWAP1 POP DUP3 DUP6 PUSH1 0x20 DUP7 MUL DUP3 ADD GT ISZERO PUSH2 0x2720 JUMPI PUSH2 0x271F PUSH2 0x3403 JUMP JUMPDEST JUMPDEST PUSH1 0x0 JUMPDEST DUP6 DUP2 LT ISZERO PUSH2 0x276E JUMPI DUP2 CALLDATALOAD PUSH8 0xFFFFFFFFFFFFFFFF DUP2 GT ISZERO PUSH2 0x2746 JUMPI PUSH2 0x2745 PUSH2 0x33FE JUMP JUMPDEST JUMPDEST DUP1 DUP7 ADD PUSH2 0x2753 DUP10 DUP3 PUSH2 0x27FD JUMP JUMPDEST DUP6 MSTORE PUSH1 0x20 DUP6 ADD SWAP5 POP PUSH1 0x20 DUP5 ADD SWAP4 POP POP POP PUSH1 0x1 DUP2 ADD SWAP1 POP PUSH2 0x2723 JUMP JUMPDEST POP POP POP SWAP4 SWAP3 POP POP POP JUMP JUMPDEST PUSH1 0x0 PUSH2 0x278B PUSH2 0x2786 DUP5 PUSH2 0x31F9 JUMP JUMPDEST PUSH2 0x31A8 JUMP JUMPDEST SWAP1 POP DUP3 DUP2 MSTORE PUSH1 0x20 DUP2 ADD DUP5 DUP5 DUP5 ADD GT ISZERO PUSH2 0x27A7 JUMPI PUSH2 0x27A6 PUSH2 0x3408 JUMP JUMPDEST JUMPDEST PUSH2 0x27B2 DUP5 DUP3 DUP6 PUSH2 0x32CC JUMP JUMPDEST POP SWAP4 SWAP3 POP POP POP JUMP JUMPDEST PUSH1 0x0 DUP2 CALLDATALOAD SWAP1 POP PUSH2 0x27C9 DUP2 PUSH2 0x3428 JUMP JUMPDEST SWAP3 SWAP2 POP POP JUMP JUMPDEST PUSH1 0x0 DUP3 PUSH1 0x1F DUP4 ADD SLT PUSH2 0x27E4 JUMPI PUSH2 0x27E3 PUSH2 0x33FE JUMP JUMPDEST JUMPDEST DUP2 CALLDATALOAD PUSH2 0x27F4 DUP5 DUP3 PUSH1 0x20 DUP7 ADD PUSH2 0x26EA JUMP JUMPDEST SWAP2 POP POP SWAP3 SWAP2 POP POP JUMP JUMPDEST PUSH1 0x0 DUP3 PUSH1 0x1F DUP4 ADD SLT PUSH2 0x2812 JUMPI PUSH2 0x2811 PUSH2 0x33FE JUMP JUMPDEST JUMPDEST DUP2 CALLDATALOAD PUSH2 0x2822 DUP5 DUP3 PUSH1 0x20 DUP7 ADD PUSH2 0x2778 JUMP JUMPDEST SWAP2 POP POP SWAP3 SWAP2 POP POP JUMP JUMPDEST PUSH1 0x0 DUP2 CALLDATALOAD SWAP1 POP PUSH2 0x283A DUP2 PUSH2 0x343F JUMP JUMPDEST SWAP3 SWAP2 POP POP JUMP JUMPDEST PUSH1 0x0 PUSH1 0x20 DUP3 DUP5 SUB SLT ISZERO PUSH2 0x2856 JUMPI PUSH2 0x2855 PUSH2 0x3412 JUMP JUMPDEST JUMPDEST PUSH1 0x0 PUSH2 0x2864 DUP5 DUP3 DUP6 ADD PUSH2 0x27BA JUMP JUMPDEST SWAP2 POP POP SWAP3 SWAP2 POP POP JUMP JUMPDEST PUSH1 0x0 DUP1 PUSH1 0x40 DUP4 DUP6 SUB SLT ISZERO PUSH2 0x2884 JUMPI PUSH2 0x2883 PUSH2 0x3412 JUMP JUMPDEST JUMPDEST PUSH1 0x0 DUP4 ADD CALLDATALOAD PUSH8 0xFFFFFFFFFFFFFFFF DUP2 GT ISZERO PUSH2 0x28A2 JUMPI PUSH2 0x28A1 PUSH2 0x340D JUMP JUMPDEST JUMPDEST PUSH2 0x28AE DUP6 DUP3 DUP7 ADD PUSH2 0x27CF JUMP JUMPDEST SWAP3 POP POP PUSH1 0x20 DUP4 ADD CALLDATALOAD PUSH8 0xFFFFFFFFFFFFFFFF DUP2 GT ISZERO PUSH2 0x28CF JUMPI PUSH2 0x28CE PUSH2 0x340D JUMP JUMPDEST JUMPDEST PUSH2 0x28DB DUP6 DUP3 DUP7 ADD PUSH2 0x27CF JUMP JUMPDEST SWAP2 POP POP SWAP3 POP SWAP3 SWAP1 POP JUMP JUMPDEST PUSH1 0x0 DUP1 PUSH1 0x0 PUSH1 0x60 DUP5 DUP7 SUB SLT ISZERO PUSH2 0x28FE JUMPI PUSH2 0x28FD PUSH2 0x3412 JUMP JUMPDEST JUMPDEST PUSH1 0x0 DUP5 ADD CALLDATALOAD PUSH8 0xFFFFFFFFFFFFFFFF DUP2 GT ISZERO PUSH2 0x291C JUMPI PUSH2 0x291B PUSH2 0x340D JUMP JUMPDEST JUMPDEST PUSH2 0x2928 DUP7 DUP3 DUP8 ADD PUSH2 0x27CF JUMP JUMPDEST SWAP4 POP POP PUSH1 0x20 DUP5 ADD CALLDATALOAD PUSH8 0xFFFFFFFFFFFFFFFF DUP2 GT ISZERO PUSH2 0x2949 JUMPI PUSH2 0x2948 PUSH2 0x340D JUMP JUMPDEST JUMPDEST PUSH2 0x2955 DUP7 DUP3 DUP8 ADD PUSH2 0x27CF JUMP JUMPDEST SWAP3 POP POP PUSH1 0x40 DUP5 ADD CALLDATALOAD PUSH8 0xFFFFFFFFFFFFFFFF DUP2 GT ISZERO PUSH2 0x2976 JUMPI PUSH2 0x2975 PUSH2 0x340D JUMP JUMPDEST JUMPDEST PUSH2 0x2982 DUP7 DUP3 DUP8 ADD PUSH2 0x27CF JUMP JUMPDEST SWAP2 POP POP SWAP3 POP SWAP3 POP SWAP3 JUMP JUMPDEST PUSH1 0x0 DUP1 PUSH1 0x40 DUP4 DUP6 SUB SLT ISZERO PUSH2 0x29A3 JUMPI PUSH2 0x29A2 PUSH2 0x3412 JUMP JUMPDEST JUMPDEST PUSH1 0x0 DUP4 ADD CALLDATALOAD PUSH8 0xFFFFFFFFFFFFFFFF DUP2 GT ISZERO PUSH2 0x29C1 JUMPI PUSH2 0x29C0 PUSH2 0x340D JUMP JUMPDEST JUMPDEST PUSH2 0x29CD DUP6 DUP3 DUP7 ADD PUSH2 0x27FD JUMP JUMPDEST SWAP3 POP POP PUSH1 0x20 DUP4 ADD CALLDATALOAD PUSH8 0xFFFFFFFFFFFFFFFF DUP2 GT ISZERO PUSH2 0x29EE JUMPI PUSH2 0x29ED PUSH2 0x340D JUMP JUMPDEST JUMPDEST PUSH2 0x29FA DUP6 DUP3 DUP7 ADD PUSH2 0x27FD JUMP JUMPDEST SWAP2 POP POP SWAP3 POP SWAP3 SWAP1 POP JUMP JUMPDEST PUSH1 0x0 DUP1 PUSH1 0x0 DUP1 PUSH1 0x0 PUSH1 0xA0 DUP7 DUP9 SUB SLT ISZERO PUSH2 0x2A20 JUMPI PUSH2 0x2A1F PUSH2 0x3412 JUMP JUMPDEST JUMPDEST PUSH1 0x0 DUP7 ADD CALLDATALOAD PUSH8 0xFFFFFFFFFFFFFFFF DUP2 GT ISZERO PUSH2 0x2A3E JUMPI PUSH2 0x2A3D PUSH2 0x340D JUMP JUMPDEST JUMPDEST PUSH2 0x2A4A DUP9 DUP3 DUP10 ADD PUSH2 0x27FD JUMP JUMPDEST SWAP6 POP POP PUSH1 0x20 DUP7 ADD CALLDATALOAD PUSH8 0xFFFFFFFFFFFFFFFF DUP2 GT ISZERO PUSH2 0x2A6B JUMPI PUSH2 0x2A6A PUSH2 0x340D JUMP JUMPDEST JUMPDEST PUSH2 0x2A77 DUP9 DUP3 DUP10 ADD PUSH2 0x27FD JUMP JUMPDEST SWAP5 POP POP PUSH1 0x40 DUP7 ADD CALLDATALOAD PUSH8 0xFFFFFFFFFFFFFFFF DUP2 GT ISZERO PUSH2 0x2A98 JUMPI PUSH2 0x2A97 PUSH2 0x340D JUMP JUMPDEST JUMPDEST PUSH2 0x2AA4 DUP9 DUP3 DUP10 ADD PUSH2 0x27FD JUMP JUMPDEST SWAP4 POP POP PUSH1 0x60 DUP7 ADD CALLDATALOAD PUSH8 0xFFFFFFFFFFFFFFFF DUP2 GT ISZERO PUSH2 0x2AC5 JUMPI PUSH2 0x2AC4 PUSH2 0x340D JUMP JUMPDEST JUMPDEST PUSH2 0x2AD1 DUP9 DUP3 DUP10 ADD PUSH2 0x27FD JUMP JUMPDEST SWAP3 POP POP PUSH1 0x80 DUP7 ADD CALLDATALOAD PUSH8 0xFFFFFFFFFFFFFFFF DUP2 GT ISZERO PUSH2 0x2AF2 JUMPI PUSH2 0x2AF1 PUSH2 0x340D JUMP JUMPDEST JUMPDEST PUSH2 0x2AFE DUP9 DUP3 DUP10 ADD PUSH2 0x27FD JUMP JUMPDEST SWAP2 POP POP SWAP3 SWAP6 POP SWAP3 SWAP6 SWAP1 SWAP4 POP JUMP JUMPDEST PUSH1 0x0 DUP1 PUSH1 0x0 DUP1 PUSH1 0x0 DUP1 PUSH1 0xC0 DUP8 DUP10 SUB SLT ISZERO PUSH2 0x2B28 JUMPI PUSH2 0x2B27 PUSH2 0x3412 JUMP JUMPDEST JUMPDEST PUSH1 0x0 DUP8 ADD CALLDATALOAD PUSH8 0xFFFFFFFFFFFFFFFF DUP2 GT ISZERO PUSH2 0x2B46 JUMPI PUSH2 0x2B45 PUSH2 0x340D JUMP JUMPDEST JUMPDEST PUSH2 0x2B52 DUP10 DUP3 DUP11 ADD PUSH2 0x27FD JUMP JUMPDEST SWAP7 POP POP PUSH1 0x20 DUP8 ADD CALLDATALOAD PUSH8 0xFFFFFFFFFFFFFFFF DUP2 GT ISZERO PUSH2 0x2B73 JUMPI PUSH2 0x2B72 PUSH2 0x340D JUMP JUMPDEST JUMPDEST PUSH2 0x2B7F DUP10 DUP3 DUP11 ADD PUSH2 0x27FD JUMP JUMPDEST SWAP6 POP POP PUSH1 0x40 DUP8 ADD CALLDATALOAD PUSH8 0xFFFFFFFFFFFFFFFF DUP2 GT ISZERO PUSH2 0x2BA0 JUMPI PUSH2 0x2B9F PUSH2 0x340D JUMP JUMPDEST JUMPDEST PUSH2 0x2BAC DUP10 DUP3 DUP11 ADD PUSH2 0x27FD JUMP JUMPDEST SWAP5 POP POP PUSH1 0x60 DUP8 ADD CALLDATALOAD PUSH8 0xFFFFFFFFFFFFFFFF DUP2 GT ISZERO PUSH2 0x2BCD JUMPI PUSH2 0x2BCC PUSH2 0x340D JUMP JUMPDEST JUMPDEST PUSH2 0x2BD9 DUP10 DUP3 DUP11 ADD PUSH2 0x27FD JUMP JUMPDEST SWAP4 POP POP PUSH1 0x80 DUP8 ADD CALLDATALOAD PUSH8 0xFFFFFFFFFFFFFFFF DUP2 GT ISZERO PUSH2 0x2BFA JUMPI PUSH2 0x2BF9 PUSH2 0x340D JUMP JUMPDEST JUMPDEST PUSH2 0x2C06 DUP10 DUP3 DUP11 ADD PUSH2 0x27FD JUMP JUMPDEST SWAP3 POP POP PUSH1 0xA0 DUP8 ADD CALLDATALOAD PUSH8 0xFFFFFFFFFFFFFFFF DUP2 GT ISZERO PUSH2 0x2C27 JUMPI PUSH2 0x2C26 PUSH2 0x340D JUMP JUMPDEST JUMPDEST PUSH2 0x2C33 DUP10 DUP3 DUP11 ADD PUSH2 0x27FD JUMP JUMPDEST SWAP2 POP POP SWAP3 SWAP6 POP SWAP3 SWAP6 POP SWAP3 SWAP6 JUMP JUMPDEST PUSH1 0x0 PUSH1 0x20 DUP3 DUP5 SUB SLT ISZERO PUSH2 0x2C56 JUMPI PUSH2 0x2C55 PUSH2 0x3412 JUMP JUMPDEST JUMPDEST PUSH1 0x0 PUSH2 0x2C64 DUP5 DUP3 DUP6 ADD PUSH2 0x282B JUMP JUMPDEST SWAP2 POP POP SWAP3 SWAP2 POP POP JUMP JUMPDEST PUSH1 0x0 PUSH2 0x2C79 DUP4 DUP4 PUSH2 0x2D05 JUMP JUMPDEST SWAP1 POP SWAP3 SWAP2 POP POP JUMP JUMPDEST PUSH2 0x2C8A DUP2 PUSH2 0x3290 JUMP JUMPDEST DUP3 MSTORE POP POP JUMP JUMPDEST PUSH1 0x0 PUSH2 0x2C9B DUP3 PUSH2 0x323A JUMP JUMPDEST PUSH2 0x2CA5 DUP2 DUP6 PUSH2 0x325D JUMP JUMPDEST SWAP4 POP DUP4 PUSH1 0x20 DUP3 MUL DUP6 ADD PUSH2 0x2CB7 DUP6 PUSH2 0x322A JUMP JUMPDEST DUP1 PUSH1 0x0 JUMPDEST DUP6 DUP2 LT ISZERO PUSH2 0x2CF3 JUMPI DUP5 DUP5 SUB DUP10 MSTORE DUP2 MLOAD PUSH2 0x2CD4 DUP6 DUP3 PUSH2 0x2C6D JUMP JUMPDEST SWAP5 POP PUSH2 0x2CDF DUP4 PUSH2 0x3250 JUMP JUMPDEST SWAP3 POP PUSH1 0x20 DUP11 ADD SWAP10 POP POP PUSH1 0x1 DUP2 ADD SWAP1 POP PUSH2 0x2CBB JUMP JUMPDEST POP DUP3 SWAP8 POP DUP8 SWAP6 POP POP POP POP POP POP SWAP3 SWAP2 POP POP JUMP JUMPDEST PUSH1 0x0 PUSH2 0x2D10 DUP3 PUSH2 0x3245 JUMP JUMPDEST PUSH2 0x2D1A DUP2 DUP6 PUSH2 0x326E JUMP JUMPDEST SWAP4 POP PUSH2 0x2D2A DUP2 DUP6 PUSH1 0x20 DUP7 ADD PUSH2 0x32DB JUMP JUMPDEST PUSH2 0x2D33 DUP2 PUSH2 0x3417 JUMP JUMPDEST DUP5 ADD SWAP2 POP POP SWAP3 SWAP2 POP POP JUMP JUMPDEST PUSH1 0x0 PUSH2 0x2D49 DUP3 PUSH2 0x3245 JUMP JUMPDEST PUSH2 0x2D53 DUP2 DUP6 PUSH2 0x327F JUMP JUMPDEST SWAP4 POP PUSH2 0x2D63 DUP2 DUP6 PUSH1 0x20 DUP7 ADD PUSH2 0x32DB JUMP JUMPDEST PUSH2 0x2D6C DUP2 PUSH2 0x3417 JUMP JUMPDEST DUP5 ADD SWAP2 POP POP SWAP3 SWAP2 POP POP JUMP JUMPDEST PUSH1 0x0 PUSH1 0x40 DUP4 ADD PUSH1 0x0 DUP4 ADD MLOAD DUP5 DUP3 SUB PUSH1 0x0 DUP7 ADD MSTORE PUSH2 0x2D94 DUP3 DUP3 PUSH2 0x2C90 JUMP JUMPDEST SWAP2 POP POP PUSH1 0x20 DUP4 ADD MLOAD DUP5 DUP3 SUB PUSH1 0x20 DUP7 ADD MSTORE PUSH2 0x2DAE DUP3 DUP3 PUSH2 0x2C90 JUMP JUMPDEST SWAP2 POP POP DUP1 SWAP2 POP POP SWAP3 SWAP2 POP POP JUMP JUMPDEST PUSH1 0x0 PUSH1 0xA0 DUP4 ADD PUSH1 0x0 DUP4 ADD MLOAD DUP5 DUP3 SUB PUSH1 0x0 DUP7 ADD MSTORE PUSH2 0x2DD8 DUP3 DUP3 PUSH2 0x2D05 JUMP JUMPDEST SWAP2 POP POP PUSH1 0x20 DUP4 ADD MLOAD DUP5 DUP3 SUB PUSH1 0x20 DUP7 ADD MSTORE PUSH2 0x2DF2 DUP3 DUP3 PUSH2 0x2D05 JUMP JUMPDEST SWAP2 POP POP PUSH1 0x40 DUP4 ADD MLOAD DUP5 DUP3 SUB PUSH1 0x40 DUP7 ADD MSTORE PUSH2 0x2E0C DUP3 DUP3 PUSH2 0x2D05 JUMP JUMPDEST SWAP2 POP POP PUSH1 0x60 DUP4 ADD MLOAD DUP5 DUP3 SUB PUSH1 0x60 DUP7 ADD MSTORE PUSH2 0x2E26 DUP3 DUP3 PUSH2 0x2D05 JUMP JUMPDEST SWAP2 POP POP PUSH1 0x80 DUP4 ADD MLOAD DUP5 DUP3 SUB PUSH1 0x80 DUP7 ADD MSTORE PUSH2 0x2E40 DUP3 DUP3 PUSH2 0x2C90 JUMP JUMPDEST SWAP2 POP POP DUP1 SWAP2 POP POP SWAP3 SWAP2 POP POP JUMP JUMPDEST PUSH1 0x0 PUSH1 0xC0 DUP4 ADD PUSH1 0x0 DUP4 ADD MLOAD DUP5 DUP3 SUB PUSH1 0x0 DUP7 ADD MSTORE PUSH2 0x2E6A DUP3 DUP3 PUSH2 0x2D05 JUMP JUMPDEST SWAP2 POP POP PUSH1 0x20 DUP4 ADD MLOAD DUP5 DUP3 SUB PUSH1 0x20 DUP7 ADD MSTORE PUSH2 0x2E84 DUP3 DUP3 PUSH2 0x2D05 JUMP JUMPDEST SWAP2 POP POP PUSH1 0x40 DUP4 ADD MLOAD DUP5 DUP3 SUB PUSH1 0x40 DUP7 ADD MSTORE PUSH2 0x2E9E DUP3 DUP3 PUSH2 0x2D05 JUMP JUMPDEST SWAP2 POP POP PUSH1 0x60 DUP4 ADD MLOAD DUP5 DUP3 SUB PUSH1 0x60 DUP7 ADD MSTORE PUSH2 0x2EB8 DUP3 DUP3 PUSH2 0x2D05 JUMP JUMPDEST SWAP2 POP POP PUSH1 0x80 DUP4 ADD MLOAD DUP5 DUP3 SUB PUSH1 0x80 DUP7 ADD MSTORE PUSH2 0x2ED2 DUP3 DUP3 PUSH2 0x2D05 JUMP JUMPDEST SWAP2 POP POP PUSH1 0xA0 DUP4 ADD MLOAD DUP5 DUP3 SUB PUSH1 0xA0 DUP7 ADD MSTORE PUSH2 0x2EEC DUP3 DUP3 PUSH2 0x2D05 JUMP JUMPDEST SWAP2 POP POP DUP1 SWAP2 POP POP SWAP3 SWAP2 POP POP JUMP JUMPDEST PUSH1 0x0 PUSH1 0x40 DUP4 ADD PUSH1 0x0 DUP4 ADD MLOAD DUP5 DUP3 SUB PUSH1 0x0 DUP7 ADD MSTORE PUSH2 0x2F16 DUP3 DUP3 PUSH2 0x2D05 JUMP JUMPDEST SWAP2 POP POP PUSH1 0x20 DUP4 ADD MLOAD DUP5 DUP3 SUB PUSH1 0x20 DUP7 ADD MSTORE PUSH2 0x2F30 DUP3 DUP3 PUSH2 0x2D05 JUMP JUMPDEST SWAP2 POP POP DUP1 SWAP2 POP POP SWAP3 SWAP2 POP POP JUMP JUMPDEST PUSH1 0x0 PUSH2 0x100 DUP4 ADD PUSH1 0x0 DUP4 ADD MLOAD DUP5 DUP3 SUB PUSH1 0x0 DUP7 ADD MSTORE PUSH2 0x2F5B DUP3 DUP3 PUSH2 0x2D05 JUMP JUMPDEST SWAP2 POP POP PUSH1 0x20 DUP4 ADD MLOAD DUP5 DUP3 SUB PUSH1 0x20 DUP7 ADD MSTORE PUSH2 0x2F75 DUP3 DUP3 PUSH2 0x2D05 JUMP JUMPDEST SWAP2 POP POP PUSH1 0x40 DUP4 ADD MLOAD PUSH2 0x2F8A PUSH1 0x40 DUP7 ADD DUP3 PUSH2 0x2C81 JUMP JUMPDEST POP PUSH1 0x60 DUP4 ADD MLOAD DUP5 DUP3 SUB PUSH1 0x60 DUP7 ADD MSTORE PUSH2 0x2FA2 DUP3 DUP3 PUSH2 0x2D05 JUMP JUMPDEST SWAP2 POP POP PUSH1 0x80 DUP4 ADD MLOAD DUP5 DUP3 SUB PUSH1 0x80 DUP7 ADD MSTORE PUSH2 0x2FBC DUP3 DUP3 PUSH2 0x2D05 JUMP JUMPDEST SWAP2 POP POP PUSH1 0xA0 DUP4 ADD MLOAD DUP5 DUP3 SUB PUSH1 0xA0 DUP7 ADD MSTORE PUSH2 0x2FD6 DUP3 DUP3 PUSH2 0x2D05 JUMP JUMPDEST SWAP2 POP POP PUSH1 0xC0 DUP4 ADD MLOAD DUP5 DUP3 SUB PUSH1 0xC0 DUP7 ADD MSTORE PUSH2 0x2FF0 DUP3 DUP3 PUSH2 0x2D05 JUMP JUMPDEST SWAP2 POP POP PUSH1 0xE0 DUP4 ADD MLOAD PUSH2 0x3005 PUSH1 0xE0 DUP7 ADD DUP3 PUSH2 0x306E JUMP JUMPDEST POP DUP1 SWAP2 POP POP SWAP3 SWAP2 POP POP JUMP JUMPDEST PUSH1 0x0 PUSH1 0x60 DUP4 ADD PUSH1 0x0 DUP4 ADD MLOAD DUP5 DUP3 SUB PUSH1 0x0 DUP7 ADD MSTORE PUSH2 0x302D DUP3 DUP3 PUSH2 0x2C90 JUMP JUMPDEST SWAP2 POP POP PUSH1 0x20 DUP4 ADD MLOAD DUP5 DUP3 SUB PUSH1 0x20 DUP7 ADD MSTORE PUSH2 0x3047 DUP3 DUP3 PUSH2 0x2C90 JUMP JUMPDEST SWAP2 POP POP PUSH1 0x40 DUP4 ADD MLOAD DUP5 DUP3 SUB PUSH1 0x40 DUP7 ADD MSTORE PUSH2 0x3061 DUP3 DUP3 PUSH2 0x2C90 JUMP JUMPDEST SWAP2 POP POP DUP1 SWAP2 POP POP SWAP3 SWAP2 POP POP JUMP JUMPDEST PUSH2 0x3077 DUP2 PUSH2 0x32C2 JUMP JUMPDEST DUP3 MSTORE POP POP JUMP JUMPDEST PUSH2 0x3086 DUP2 PUSH2 0x32C2 JUMP JUMPDEST DUP3 MSTORE POP POP JUMP JUMPDEST PUSH1 0x0 PUSH1 0xA0 DUP3 ADD SWAP1 POP DUP2 DUP2 SUB PUSH1 0x0 DUP4 ADD MSTORE PUSH2 0x30A6 DUP2 DUP9 PUSH2 0x2D3E JUMP JUMPDEST SWAP1 POP DUP2 DUP2 SUB PUSH1 0x20 DUP4 ADD MSTORE PUSH2 0x30BA DUP2 DUP8 PUSH2 0x2D3E JUMP JUMPDEST SWAP1 POP DUP2 DUP2 SUB PUSH1 0x40 DUP4 ADD MSTORE PUSH2 0x30CE DUP2 DUP7 PUSH2 0x2D3E JUMP JUMPDEST SWAP1 POP DUP2 DUP2 SUB PUSH1 0x60 DUP4 ADD MSTORE PUSH2 0x30E2 DUP2 DUP6 PUSH2 0x2D3E JUMP JUMPDEST SWAP1 POP DUP2 DUP2 SUB PUSH1 0x80 DUP4 ADD MSTORE PUSH2 0x30F6 DUP2 DUP5 PUSH2 0x2D3E JUMP JUMPDEST SWAP1 POP SWAP7 SWAP6 POP POP POP POP POP POP JUMP JUMPDEST PUSH1 0x0 PUSH1 0xC0 DUP3 ADD SWAP1 POP DUP2 DUP2 SUB PUSH1 0x0 DUP4 ADD MSTORE PUSH2 0x311C DUP2 DUP10 PUSH2 0x2F3D JUMP JUMPDEST SWAP1 POP DUP2 DUP2 SUB PUSH1 0x20 DUP4 ADD MSTORE PUSH2 0x3130 DUP2 DUP9 PUSH2 0x2E4D JUMP JUMPDEST SWAP1 POP DUP2 DUP2 SUB PUSH1 0x40 DUP4 ADD MSTORE PUSH2 0x3144 DUP2 DUP8 PUSH2 0x3010 JUMP JUMPDEST SWAP1 POP DUP2 DUP2 SUB PUSH1 0x60 DUP4 ADD MSTORE PUSH2 0x3158 DUP2 DUP7 PUSH2 0x2D77 JUMP JUMPDEST SWAP1 POP DUP2 DUP2 SUB PUSH1 0x80 DUP4 ADD MSTORE PUSH2 0x316C DUP2 DUP6 PUSH2 0x2DBB JUMP JUMPDEST SWAP1 POP DUP2 DUP2 SUB PUSH1 0xA0 DUP4 ADD MSTORE PUSH2 0x3180 DUP2 DUP5 PUSH2 0x2EF9 JUMP JUMPDEST SWAP1 POP SWAP8 SWAP7 POP POP POP POP POP POP POP JUMP JUMPDEST PUSH1 0x0 PUSH1 0x20 DUP3 ADD SWAP1 POP PUSH2 0x31A2 PUSH1 0x0 DUP4 ADD DUP5 PUSH2 0x307D JUMP JUMPDEST SWAP3 SWAP2 POP POP JUMP JUMPDEST PUSH1 0x0 PUSH2 0x31B2 PUSH2 0x31C3 JUMP JUMPDEST SWAP1 POP PUSH2 0x31BE DUP3 DUP3 PUSH2 0x3340 JUMP JUMPDEST SWAP2 SWAP1 POP JUMP JUMPDEST PUSH1 0x0 PUSH1 0x40 MLOAD SWAP1 POP SWAP1 JUMP JUMPDEST PUSH1 0x0 PUSH8 0xFFFFFFFFFFFFFFFF DUP3 GT ISZERO PUSH2 0x31E8 JUMPI PUSH2 0x31E7 PUSH2 0x33CF JUMP JUMPDEST JUMPDEST PUSH1 0x20 DUP3 MUL SWAP1 POP PUSH1 0x20 DUP2 ADD SWAP1 POP SWAP2 SWAP1 POP JUMP JUMPDEST PUSH1 0x0 PUSH8 0xFFFFFFFFFFFFFFFF DUP3 GT ISZERO PUSH2 0x3214 JUMPI PUSH2 0x3213 PUSH2 0x33CF JUMP JUMPDEST JUMPDEST PUSH2 0x321D DUP3 PUSH2 0x3417 JUMP JUMPDEST SWAP1 POP PUSH1 0x20 DUP2 ADD SWAP1 POP SWAP2 SWAP1 POP JUMP JUMPDEST PUSH1 0x0 DUP2 SWAP1 POP PUSH1 0x20 DUP3 ADD SWAP1 POP SWAP2 SWAP1 POP JUMP JUMPDEST PUSH1 0x0 DUP2 MLOAD SWAP1 POP SWAP2 SWAP1 POP JUMP JUMPDEST PUSH1 0x0 DUP2 MLOAD SWAP1 POP SWAP2 SWAP1 POP JUMP JUMPDEST PUSH1 0x0 PUSH1 0x20 DUP3 ADD SWAP1 POP SWAP2 SWAP1 POP JUMP JUMPDEST PUSH1 0x0 DUP3 DUP3 MSTORE PUSH1 0x20 DUP3 ADD SWAP1 POP SWAP3 SWAP2 POP POP JUMP JUMPDEST PUSH1 0x0 DUP3 DUP3 MSTORE PUSH1 0x20 DUP3 ADD SWAP1 POP SWAP3 SWAP2 POP POP JUMP JUMPDEST PUSH1 0x0 DUP3 DUP3 MSTORE PUSH1 0x20 DUP3 ADD SWAP1 POP SWAP3 SWAP2 POP POP JUMP JUMPDEST PUSH1 0x0 PUSH2 0x329B DUP3 PUSH2 0x32A2 JUMP JUMPDEST SWAP1 POP SWAP2 SWAP1 POP JUMP JUMPDEST PUSH1 0x0 PUSH20 0xFFFFFFFFFFFFFFFFFFFFFFFFFFFFFFFFFFFFFFFF DUP3 AND SWAP1 POP SWAP2 SWAP1 POP JUMP JUMPDEST PUSH1 0x0 DUP2 SWAP1 POP SWAP2 SWAP1 POP JUMP JUMPDEST DUP3 DUP2 DUP4 CALLDATACOPY PUSH1 0x0 DUP4 DUP4 ADD MSTORE POP POP POP JUMP JUMPDEST PUSH1 0x0 JUMPDEST DUP4 DUP2 LT ISZERO PUSH2 0x32F9 JUMPI DUP1 DUP3 ADD MLOAD DUP2 DUP5 ADD MSTORE PUSH1 0x20 DUP2 ADD SWAP1 POP PUSH2 0x32DE JUMP JUMPDEST DUP4 DUP2 GT ISZERO PUSH2 0x3308 JUMPI PUSH1 0x0 DUP5 DUP5 ADD MSTORE JUMPDEST POP POP POP POP JUMP JUMPDEST PUSH1 0x0 PUSH1 0x2 DUP3 DIV SWAP1 POP PUSH1 0x1 DUP3 AND DUP1 PUSH2 0x3326 JUMPI PUSH1 0x7F DUP3 AND SWAP2 POP JUMPDEST PUSH1 0x20 DUP3 LT DUP2 EQ ISZERO PUSH2 0x333A JUMPI PUSH2 0x3339 PUSH2 0x3371 JUMP JUMPDEST JUMPDEST POP SWAP2 SWAP1 POP JUMP JUMPDEST PUSH2 0x3349 DUP3 PUSH2 0x3417 JUMP JUMPDEST DUP2 ADD DUP2 DUP2 LT PUSH8 0xFFFFFFFFFFFFFFFF DUP3 GT OR ISZERO PUSH2 0x3368 JUMPI PUSH2 0x3367 PUSH2 0x33CF JUMP JUMPDEST JUMPDEST DUP1 PUSH1 0x40 MSTORE POP POP POP JUMP JUMPDEST PUSH32 0x4E487B7100000000000000000000000000000000000000000000000000000000 PUSH1 0x0 MSTORE PUSH1 0x22 PUSH1 0x4 MSTORE PUSH1 0x24 PUSH1 0x0 REVERT JUMPDEST PUSH32 0x4E487B7100000000000000000000000000000000000000000000000000000000 PUSH1 0x0 MSTORE PUSH1 0x32 PUSH1 0x4 MSTORE PUSH1 0x24 PUSH1 0x0 REVERT JUMPDEST PUSH32 0x4E487B7100000000000000000000000000000000000000000000000000000000 PUSH1 0x0 MSTORE PUSH1 0x41 PUSH1 0x4 MSTORE PUSH1 0x24 PUSH1 0x0 REVERT JUMPDEST PUSH1 0x0 DUP1 REVERT JUMPDEST PUSH1 0x0 DUP1 REVERT JUMPDEST PUSH1 0x0 DUP1 REVERT JUMPDEST PUSH1 0x0 DUP1 REVERT JUMPDEST PUSH1 0x0 DUP1 REVERT JUMPDEST PUSH1 0x0 PUSH1 0x1F NOT PUSH1 0x1F DUP4 ADD AND SWAP1 POP SWAP2 SWAP1 POP JUMP JUMPDEST PUSH2 0x3431 DUP2 PUSH2 0x3290 JUMP JUMPDEST DUP2 EQ PUSH2 0x343C JUMPI PUSH1 0x0 DUP1 REVERT JUMPDEST POP JUMP JUMPDEST PUSH2 0x3448 DUP2 PUSH2 0x32C2 JUMP JUMPDEST DUP2 EQ PUSH2 0x3453 JUMPI PUSH1 0x0 DUP1 REVERT JUMPDEST POP JUMP INVALID LOG2 PUSH5 0x6970667358 0x22 SLT KECCAK256 0xC3 SWAP11 DUP2 0xCA 0x1E 0x4F PUSH6 0x8396848BE656 NUMBER CREATE2 0xE5 0x4D PUSH7 0x3363093B403BD6 0xB5 SWAP1 SWAP11 CALLDATASIZE SUB COINBASE GASPRICE PUSH5 0x736F6C6343 STOP ADDMOD SMOD STOP CALLER "
				},
				"gasEstimates": {
					"creation": {
						"codeDepositCost": "2690400",
						"executionCost": "2923",
						"totalCost": "2693323"
					},
					"external": {
						"createAward(string[],string[])": "infinite",
						"createContract(string,string,string,string,string)": "infinite",
						"createFreelanceExperience(string,string)": "infinite",
						"createInformation(string,string,string,string,string,string)": "infinite",
						"createSkill(string[],string[],string[])": "infinite",
						"createUnivercity(string,string,string,string,string)": "infinite",
						"delAllEducation()": "infinite",
						"delCertificateAndAward()": "infinite",
						"delInformaion()": "infinite",
						"delProfile()": "infinite",
						"getEducation(uint256)": "infinite",
						"getEducationCount()": "2607",
						"profile(address)": "infinite"
					}
				},
				"methodIdentifiers": {
					"createAward(string[],string[])": "6c2cc774",
					"createContract(string,string,string,string,string)": "72828388",
					"createFreelanceExperience(string,string)": "322a9849",
					"createInformation(string,string,string,string,string,string)": "958791ae",
					"createSkill(string[],string[],string[])": "3d984d0e",
					"createUnivercity(string,string,string,string,string)": "66244dfb",
					"delAllEducation()": "ed2217ef",
					"delCertificateAndAward()": "4ed74067",
					"delInformaion()": "95ea3757",
					"delProfile()": "fabce08f",
					"getEducation(uint256)": "f96e32f8",
					"getEducationCount()": "6212fa02",
					"profile(address)": "9dd9d0fd"
				}
			},
			"storageLayout": {
				"storage": [
					{
						"astId": 29,
						"contract": "contracts/Profile.sol:Profile",
						"label": "profile",
						"offset": 0,
						"slot": "0",
						"type": "t_mapping(t_address,t_struct(Bio)24_storage)"
					}
				],
				"types": {
					"t_address": {
						"encoding": "inplace",
						"label": "address",
						"numberOfBytes": "20"
					},
					"t_array(t_string_storage)dyn_storage": {
						"base": "t_string_storage",
						"encoding": "dynamic_array",
						"label": "string[]",
						"numberOfBytes": "32"
					},
					"t_array(t_struct(Education)97_storage)dyn_storage": {
						"base": "t_struct(Education)97_storage",
						"encoding": "dynamic_array",
						"label": "struct Profile.Education[]",
						"numberOfBytes": "32"
					},
					"t_mapping(t_address,t_struct(Bio)24_storage)": {
						"encoding": "mapping",
						"key": "t_address",
						"label": "mapping(address => struct Profile.Bio)",
						"numberOfBytes": "32",
						"value": "t_struct(Bio)24_storage"
					},
					"t_string_storage": {
						"encoding": "bytes",
						"label": "string",
						"numberOfBytes": "32"
					},
					"t_struct(Bio)24_storage": {
						"encoding": "inplace",
						"label": "struct Profile.Bio",
						"members": [
							{
								"astId": 4,
								"contract": "contracts/Profile.sol:Profile",
								"label": "information",
								"offset": 0,
								"slot": "0",
								"type": "t_struct(Information)46_storage"
							},
							{
								"astId": 7,
								"contract": "contracts/Profile.sol:Profile",
								"label": "privateContract",
								"offset": 0,
								"slot": "8",
								"type": "t_struct(Contract)59_storage"
							},
							{
								"astId": 10,
								"contract": "contracts/Profile.sol:Profile",
								"label": "skill",
								"offset": 0,
								"slot": "14",
								"type": "t_struct(Skill)69_storage"
							},
							{
								"astId": 14,
								"contract": "contracts/Profile.sol:Profile",
								"label": "education",
								"offset": 0,
								"slot": "17",
								"type": "t_array(t_struct(Education)97_storage)dyn_storage"
							},
							{
								"astId": 17,
								"contract": "contracts/Profile.sol:Profile",
								"label": "certificateAndAward",
								"offset": 0,
								"slot": "18",
								"type": "t_struct(CertificateAndAward)104_storage"
							},
							{
								"astId": 20,
								"contract": "contracts/Profile.sol:Profile",
								"label": "companyExperience",
								"offset": 0,
								"slot": "20",
								"type": "t_struct(CompanyExperience)81_storage"
							},
							{
								"astId": 23,
								"contract": "contracts/Profile.sol:Profile",
								"label": "freelanceExperience",
								"offset": 0,
								"slot": "25",
								"type": "t_struct(FreelanceExperience)86_storage"
							}
						],
						"numberOfBytes": "864"
					},
					"t_struct(CertificateAndAward)104_storage": {
						"encoding": "inplace",
						"label": "struct Profile.CertificateAndAward",
						"members": [
							{
								"astId": 100,
								"contract": "contracts/Profile.sol:Profile",
								"label": "certificate",
								"offset": 0,
								"slot": "0",
								"type": "t_array(t_string_storage)dyn_storage"
							},
							{
								"astId": 103,
								"contract": "contracts/Profile.sol:Profile",
								"label": "award",
								"offset": 0,
								"slot": "1",
								"type": "t_array(t_string_storage)dyn_storage"
							}
						],
						"numberOfBytes": "64"
					},
					"t_struct(CompanyExperience)81_storage": {
						"encoding": "inplace",
						"label": "struct Profile.CompanyExperience",
						"members": [
							{
								"astId": 71,
								"contract": "contracts/Profile.sol:Profile",
								"label": "companyName",
								"offset": 0,
								"slot": "0",
								"type": "t_string_storage"
							},
							{
								"astId": 73,
								"contract": "contracts/Profile.sol:Profile",
								"label": "position",
								"offset": 0,
								"slot": "1",
								"type": "t_string_storage"
							},
							{
								"astId": 75,
								"contract": "contracts/Profile.sol:Profile",
								"label": "startDate",
								"offset": 0,
								"slot": "2",
								"type": "t_string_storage"
							},
							{
								"astId": 77,
								"contract": "contracts/Profile.sol:Profile",
								"label": "endDate",
								"offset": 0,
								"slot": "3",
								"type": "t_string_storage"
							},
							{
								"astId": 80,
								"contract": "contracts/Profile.sol:Profile",
								"label": "project",
								"offset": 0,
								"slot": "4",
								"type": "t_array(t_string_storage)dyn_storage"
							}
						],
						"numberOfBytes": "160"
					},
					"t_struct(Contract)59_storage": {
						"encoding": "inplace",
						"label": "struct Profile.Contract",
						"members": [
							{
								"astId": 48,
								"contract": "contracts/Profile.sol:Profile",
								"label": "aboutMe",
								"offset": 0,
								"slot": "0",
								"type": "t_string_storage"
							},
							{
								"astId": 50,
								"contract": "contracts/Profile.sol:Profile",
								"label": "email",
								"offset": 0,
								"slot": "1",
								"type": "t_string_storage"
							},
							{
								"astId": 52,
								"contract": "contracts/Profile.sol:Profile",
								"label": "phone",
								"offset": 0,
								"slot": "2",
								"type": "t_string_storage"
							},
							{
								"astId": 54,
								"contract": "contracts/Profile.sol:Profile",
								"label": "github",
								"offset": 0,
								"slot": "3",
								"type": "t_string_storage"
							},
							{
								"astId": 56,
								"contract": "contracts/Profile.sol:Profile",
								"label": "gitlab",
								"offset": 0,
								"slot": "4",
								"type": "t_string_storage"
							},
							{
								"astId": 58,
								"contract": "contracts/Profile.sol:Profile",
								"label": "linkin",
								"offset": 0,
								"slot": "5",
								"type": "t_string_storage"
							}
						],
						"numberOfBytes": "192"
					},
					"t_struct(Education)97_storage": {
						"encoding": "inplace",
						"label": "struct Profile.Education",
						"members": [
							{
								"astId": 88,
								"contract": "contracts/Profile.sol:Profile",
								"label": "startDate",
								"offset": 0,
								"slot": "0",
								"type": "t_string_storage"
							},
							{
								"astId": 90,
								"contract": "contracts/Profile.sol:Profile",
								"label": "endDate",
								"offset": 0,
								"slot": "1",
								"type": "t_string_storage"
							},
							{
								"astId": 92,
								"contract": "contracts/Profile.sol:Profile",
								"label": "univercity",
								"offset": 0,
								"slot": "2",
								"type": "t_string_storage"
							},
							{
								"astId": 94,
								"contract": "contracts/Profile.sol:Profile",
								"label": "major",
								"offset": 0,
								"slot": "3",
								"type": "t_string_storage"
							},
							{
								"astId": 96,
								"contract": "contracts/Profile.sol:Profile",
								"label": "finalProject",
								"offset": 0,
								"slot": "4",
								"type": "t_string_storage"
							}
						],
						"numberOfBytes": "160"
					},
					"t_struct(FreelanceExperience)86_storage": {
						"encoding": "inplace",
						"label": "struct Profile.FreelanceExperience",
						"members": [
							{
								"astId": 83,
								"contract": "contracts/Profile.sol:Profile",
								"label": "projectName",
								"offset": 0,
								"slot": "0",
								"type": "t_string_storage"
							},
							{
								"astId": 85,
								"contract": "contracts/Profile.sol:Profile",
								"label": "Detail",
								"offset": 0,
								"slot": "1",
								"type": "t_string_storage"
							}
						],
						"numberOfBytes": "64"
					},
					"t_struct(Information)46_storage": {
						"encoding": "inplace",
						"label": "struct Profile.Information",
						"members": [
							{
								"astId": 31,
								"contract": "contracts/Profile.sol:Profile",
								"label": "aboutMe",
								"offset": 0,
								"slot": "0",
								"type": "t_string_storage"
							},
							{
								"astId": 33,
								"contract": "contracts/Profile.sol:Profile",
								"label": "position",
								"offset": 0,
								"slot": "1",
								"type": "t_string_storage"
							},
							{
								"astId": 35,
								"contract": "contracts/Profile.sol:Profile",
								"label": "userAddress",
								"offset": 0,
								"slot": "2",
								"type": "t_address"
							},
							{
								"astId": 37,
								"contract": "contracts/Profile.sol:Profile",
								"label": "firstName",
								"offset": 0,
								"slot": "3",
								"type": "t_string_storage"
							},
							{
								"astId": 39,
								"contract": "contracts/Profile.sol:Profile",
								"label": "middleName",
								"offset": 0,
								"slot": "4",
								"type": "t_string_storage"
							},
							{
								"astId": 41,
								"contract": "contracts/Profile.sol:Profile",
								"label": "lastName",
								"offset": 0,
								"slot": "5",
								"type": "t_string_storage"
							},
							{
								"astId": 43,
								"contract": "contracts/Profile.sol:Profile",
								"label": "profileImage",
								"offset": 0,
								"slot": "6",
								"type": "t_string_storage"
							},
							{
								"astId": 45,
								"contract": "contracts/Profile.sol:Profile",
								"label": "createDate",
								"offset": 0,
								"slot": "7",
								"type": "t_uint256"
							}
						],
						"numberOfBytes": "256"
					},
					"t_struct(Skill)69_storage": {
						"encoding": "inplace",
						"label": "struct Profile.Skill",
						"members": [
							{
								"astId": 62,
								"contract": "contracts/Profile.sol:Profile",
								"label": "programmingLanguages",
								"offset": 0,
								"slot": "0",
								"type": "t_array(t_string_storage)dyn_storage"
							},
							{
								"astId": 65,
								"contract": "contracts/Profile.sol:Profile",
								"label": "framework",
								"offset": 0,
								"slot": "1",
								"type": "t_array(t_string_storage)dyn_storage"
							},
							{
								"astId": 68,
								"contract": "contracts/Profile.sol:Profile",
								"label": "databaseAndOther",
								"offset": 0,
								"slot": "2",
								"type": "t_array(t_string_storage)dyn_storage"
							}
						],
						"numberOfBytes": "96"
					},
					"t_uint256": {
						"encoding": "inplace",
						"label": "uint256",
						"numberOfBytes": "32"
					}
				}
			},
			"userdoc": {
				"kind": "user",
				"methods": {},
				"version": 1
			}
		}
	}
}