{
	"contracts/Profile.sol": {
		"Profile": {
			"abi": [
				{
					"inputs": [
						{
							"internalType": "string",
							"name": "firstName",
							"type": "string"
						},
						{
							"internalType": "string",
							"name": "middleName",
							"type": "string"
						},
						{
							"internalType": "string",
							"name": "lastName",
							"type": "string"
						},
						{
							"internalType": "string",
							"name": "email",
							"type": "string"
						},
						{
							"internalType": "string",
							"name": "phone",
							"type": "string"
						},
						{
							"internalType": "string",
							"name": "profileImage",
							"type": "string"
						},
						{
							"internalType": "string[]",
							"name": "frontend",
							"type": "string[]"
						}
					],
					"name": "addBio",
					"outputs": [],
					"stateMutability": "nonpayable",
					"type": "function"
				},
				{
					"inputs": [],
					"name": "delProfile",
					"outputs": [],
					"stateMutability": "nonpayable",
					"type": "function"
				},
				{
					"inputs": [
						{
							"internalType": "address",
							"name": "",
							"type": "address"
						}
					],
					"name": "profile",
					"outputs": [
						{
							"internalType": "string",
							"name": "firstName",
							"type": "string"
						},
						{
							"internalType": "string",
							"name": "middleName",
							"type": "string"
						},
						{
							"internalType": "string",
							"name": "lastName",
							"type": "string"
						},
						{
							"internalType": "string",
							"name": "email",
							"type": "string"
						},
						{
							"internalType": "string",
							"name": "phone",
							"type": "string"
						},
						{
							"internalType": "string",
							"name": "profileImage",
							"type": "string"
						},
						{
							"internalType": "address",
							"name": "userAddress",
							"type": "address"
						},
						{
							"internalType": "uint256",
							"name": "createDate",
							"type": "uint256"
						}
					],
					"stateMutability": "view",
					"type": "function"
				}
			],
			"devdoc": {
				"kind": "dev",
				"methods": {},
				"version": 1
			},
			"evm": {
				"assembly": "    /* \"contracts/Profile.sol\":60:1868  contract Profile {\r... */\n  mstore(0x40, 0x80)\n  callvalue\n  dup1\n  iszero\n  tag_1\n  jumpi\n  0x00\n  dup1\n  revert\ntag_1:\n  pop\n  dataSize(sub_0)\n  dup1\n  dataOffset(sub_0)\n  0x00\n  codecopy\n  0x00\n  return\nstop\n\nsub_0: assembly {\n        /* \"contracts/Profile.sol\":60:1868  contract Profile {\r... */\n      mstore(0x40, 0x80)\n      callvalue\n      dup1\n      iszero\n      tag_1\n      jumpi\n      0x00\n      dup1\n      revert\n    tag_1:\n      pop\n      jumpi(tag_2, lt(calldatasize, 0x04))\n      shr(0xe0, calldataload(0x00))\n      dup1\n      0x9dd9d0fd\n      eq\n      tag_3\n      jumpi\n      dup1\n      0x9e46df9a\n      eq\n      tag_4\n      jumpi\n      dup1\n      0xfabce08f\n      eq\n      tag_5\n      jumpi\n    tag_2:\n      0x00\n      dup1\n      revert\n        /* \"contracts/Profile.sol\":411:451  mapping (address => Bio) public  profile */\n    tag_3:\n      tag_6\n      0x04\n      dup1\n      calldatasize\n      sub\n      dup2\n      add\n      swap1\n      tag_7\n      swap2\n      swap1\n      tag_8\n      jump\t// in\n    tag_7:\n      tag_9\n      jump\t// in\n    tag_6:\n      mload(0x40)\n      tag_10\n      swap9\n      swap8\n      swap7\n      swap6\n      swap5\n      swap4\n      swap3\n      swap2\n      swap1\n      tag_11\n      jump\t// in\n    tag_10:\n      mload(0x40)\n      dup1\n      swap2\n      sub\n      swap1\n      return\n        /* \"contracts/Profile.sol\":466:1085  function addBio(string memory firstName, string memory middleName, string memory lastName, string memory email, string memory phone, string memory profileImage, string[] memory frontend) public {\r... */\n    tag_4:\n      tag_12\n      0x04\n      dup1\n      calldatasize\n      sub\n      dup2\n      add\n      swap1\n      tag_13\n      swap2\n      swap1\n      tag_14\n      jump\t// in\n    tag_13:\n      tag_15\n      jump\t// in\n    tag_12:\n      stop\n        /* \"contracts/Profile.sol\":1791:1865  function delProfile() public {\r... */\n    tag_5:\n      tag_16\n      tag_17\n      jump\t// in\n    tag_16:\n      stop\n        /* \"contracts/Profile.sol\":411:451  mapping (address => Bio) public  profile */\n    tag_9:\n      mstore(0x20, 0x00)\n      dup1\n      0x00\n      mstore\n      keccak256(0x00, 0x40)\n      0x00\n      swap2\n      pop\n      swap1\n      pop\n      dup1\n      0x00\n      add\n      dup1\n      sload\n      tag_18\n      swap1\n      tag_19\n      jump\t// in\n    tag_18:\n      dup1\n      0x1f\n      add\n      0x20\n      dup1\n      swap2\n      div\n      mul\n      0x20\n      add\n      mload(0x40)\n      swap1\n      dup2\n      add\n      0x40\n      mstore\n      dup1\n      swap3\n      swap2\n      swap1\n      dup2\n      dup2\n      mstore\n      0x20\n      add\n      dup3\n      dup1\n      sload\n      tag_20\n      swap1\n      tag_19\n      jump\t// in\n    tag_20:\n      dup1\n      iszero\n      tag_21\n      jumpi\n      dup1\n      0x1f\n      lt\n      tag_22\n      jumpi\n      0x0100\n      dup1\n      dup4\n      sload\n      div\n      mul\n      dup4\n      mstore\n      swap2\n      0x20\n      add\n      swap2\n      jump(tag_21)\n    tag_22:\n      dup3\n      add\n      swap2\n      swap1\n      0x00\n      mstore\n      keccak256(0x00, 0x20)\n      swap1\n    tag_23:\n      dup2\n      sload\n      dup2\n      mstore\n      swap1\n      0x01\n      add\n      swap1\n      0x20\n      add\n      dup1\n      dup4\n      gt\n      tag_23\n      jumpi\n      dup3\n      swap1\n      sub\n      0x1f\n      and\n      dup3\n      add\n      swap2\n    tag_21:\n      pop\n      pop\n      pop\n      pop\n      pop\n      swap1\n      dup1\n      0x01\n      add\n      dup1\n      sload\n      tag_24\n      swap1\n      tag_19\n      jump\t// in\n    tag_24:\n      dup1\n      0x1f\n      add\n      0x20\n      dup1\n      swap2\n      div\n      mul\n      0x20\n      add\n      mload(0x40)\n      swap1\n      dup2\n      add\n      0x40\n      mstore\n      dup1\n      swap3\n      swap2\n      swap1\n      dup2\n      dup2\n      mstore\n      0x20\n      add\n      dup3\n      dup1\n      sload\n      tag_25\n      swap1\n      tag_19\n      jump\t// in\n    tag_25:\n      dup1\n      iszero\n      tag_26\n      jumpi\n      dup1\n      0x1f\n      lt\n      tag_27\n      jumpi\n      0x0100\n      dup1\n      dup4\n      sload\n      div\n      mul\n      dup4\n      mstore\n      swap2\n      0x20\n      add\n      swap2\n      jump(tag_26)\n    tag_27:\n      dup3\n      add\n      swap2\n      swap1\n      0x00\n      mstore\n      keccak256(0x00, 0x20)\n      swap1\n    tag_28:\n      dup2\n      sload\n      dup2\n      mstore\n      swap1\n      0x01\n      add\n      swap1\n      0x20\n      add\n      dup1\n      dup4\n      gt\n      tag_28\n      jumpi\n      dup3\n      swap1\n      sub\n      0x1f\n      and\n      dup3\n      add\n      swap2\n    tag_26:\n      pop\n      pop\n      pop\n      pop\n      pop\n      swap1\n      dup1\n      0x02\n      add\n      dup1\n      sload\n      tag_29\n      swap1\n      tag_19\n      jump\t// in\n    tag_29:\n      dup1\n      0x1f\n      add\n      0x20\n      dup1\n      swap2\n      div\n      mul\n      0x20\n      add\n      mload(0x40)\n      swap1\n      dup2\n      add\n      0x40\n      mstore\n      dup1\n      swap3\n      swap2\n      swap1\n      dup2\n      dup2\n      mstore\n      0x20\n      add\n      dup3\n      dup1\n      sload\n      tag_30\n      swap1\n      tag_19\n      jump\t// in\n    tag_30:\n      dup1\n      iszero\n      tag_31\n      jumpi\n      dup1\n      0x1f\n      lt\n      tag_32\n      jumpi\n      0x0100\n      dup1\n      dup4\n      sload\n      div\n      mul\n      dup4\n      mstore\n      swap2\n      0x20\n      add\n      swap2\n      jump(tag_31)\n    tag_32:\n      dup3\n      add\n      swap2\n      swap1\n      0x00\n      mstore\n      keccak256(0x00, 0x20)\n      swap1\n    tag_33:\n      dup2\n      sload\n      dup2\n      mstore\n      swap1\n      0x01\n      add\n      swap1\n      0x20\n      add\n      dup1\n      dup4\n      gt\n      tag_33\n      jumpi\n      dup3\n      swap1\n      sub\n      0x1f\n      and\n      dup3\n      add\n      swap2\n    tag_31:\n      pop\n      pop\n      pop\n      pop\n      pop\n      swap1\n      dup1\n      0x03\n      add\n      dup1\n      sload\n      tag_34\n      swap1\n      tag_19\n      jump\t// in\n    tag_34:\n      dup1\n      0x1f\n      add\n      0x20\n      dup1\n      swap2\n      div\n      mul\n      0x20\n      add\n      mload(0x40)\n      swap1\n      dup2\n      add\n      0x40\n      mstore\n      dup1\n      swap3\n      swap2\n      swap1\n      dup2\n      dup2\n      mstore\n      0x20\n      add\n      dup3\n      dup1\n      sload\n      tag_35\n      swap1\n      tag_19\n      jump\t// in\n    tag_35:\n      dup1\n      iszero\n      tag_36\n      jumpi\n      dup1\n      0x1f\n      lt\n      tag_37\n      jumpi\n      0x0100\n      dup1\n      dup4\n      sload\n      div\n      mul\n      dup4\n      mstore\n      swap2\n      0x20\n      add\n      swap2\n      jump(tag_36)\n    tag_37:\n      dup3\n      add\n      swap2\n      swap1\n      0x00\n      mstore\n      keccak256(0x00, 0x20)\n      swap1\n    tag_38:\n      dup2\n      sload\n      dup2\n      mstore\n      swap1\n      0x01\n      add\n      swap1\n      0x20\n      add\n      dup1\n      dup4\n      gt\n      tag_38\n      jumpi\n      dup3\n      swap1\n      sub\n      0x1f\n      and\n      dup3\n      add\n      swap2\n    tag_36:\n      pop\n      pop\n      pop\n      pop\n      pop\n      swap1\n      dup1\n      0x04\n      add\n      dup1\n      sload\n      tag_39\n      swap1\n      tag_19\n      jump\t// in\n    tag_39:\n      dup1\n      0x1f\n      add\n      0x20\n      dup1\n      swap2\n      div\n      mul\n      0x20\n      add\n      mload(0x40)\n      swap1\n      dup2\n      add\n      0x40\n      mstore\n      dup1\n      swap3\n      swap2\n      swap1\n      dup2\n      dup2\n      mstore\n      0x20\n      add\n      dup3\n      dup1\n      sload\n      tag_40\n      swap1\n      tag_19\n      jump\t// in\n    tag_40:\n      dup1\n      iszero\n      tag_41\n      jumpi\n      dup1\n      0x1f\n      lt\n      tag_42\n      jumpi\n      0x0100\n      dup1\n      dup4\n      sload\n      div\n      mul\n      dup4\n      mstore\n      swap2\n      0x20\n      add\n      swap2\n      jump(tag_41)\n    tag_42:\n      dup3\n      add\n      swap2\n      swap1\n      0x00\n      mstore\n      keccak256(0x00, 0x20)\n      swap1\n    tag_43:\n      dup2\n      sload\n      dup2\n      mstore\n      swap1\n      0x01\n      add\n      swap1\n      0x20\n      add\n      dup1\n      dup4\n      gt\n      tag_43\n      jumpi\n      dup3\n      swap1\n      sub\n      0x1f\n      and\n      dup3\n      add\n      swap2\n    tag_41:\n      pop\n      pop\n      pop\n      pop\n      pop\n      swap1\n      dup1\n      0x05\n      add\n      dup1\n      sload\n      tag_44\n      swap1\n      tag_19\n      jump\t// in\n    tag_44:\n      dup1\n      0x1f\n      add\n      0x20\n      dup1\n      swap2\n      div\n      mul\n      0x20\n      add\n      mload(0x40)\n      swap1\n      dup2\n      add\n      0x40\n      mstore\n      dup1\n      swap3\n      swap2\n      swap1\n      dup2\n      dup2\n      mstore\n      0x20\n      add\n      dup3\n      dup1\n      sload\n      tag_45\n      swap1\n      tag_19\n      jump\t// in\n    tag_45:\n      dup1\n      iszero\n      tag_46\n      jumpi\n      dup1\n      0x1f\n      lt\n      tag_47\n      jumpi\n      0x0100\n      dup1\n      dup4\n      sload\n      div\n      mul\n      dup4\n      mstore\n      swap2\n      0x20\n      add\n      swap2\n      jump(tag_46)\n    tag_47:\n      dup3\n      add\n      swap2\n      swap1\n      0x00\n      mstore\n      keccak256(0x00, 0x20)\n      swap1\n    tag_48:\n      dup2\n      sload\n      dup2\n      mstore\n      swap1\n      0x01\n      add\n      swap1\n      0x20\n      add\n      dup1\n      dup4\n      gt\n      tag_48\n      jumpi\n      dup3\n      swap1\n      sub\n      0x1f\n      and\n      dup3\n      add\n      swap2\n    tag_46:\n      pop\n      pop\n      pop\n      pop\n      pop\n      swap1\n      dup1\n      0x06\n      add\n      0x00\n      swap1\n      sload\n      swap1\n      0x0100\n      exp\n      swap1\n      div\n      0xffffffffffffffffffffffffffffffffffffffff\n      and\n      swap1\n      dup1\n      0x07\n      add\n      sload\n      swap1\n      pop\n      dup9\n      jump\t// out\n        /* \"contracts/Profile.sol\":466:1085  function addBio(string memory firstName, string memory middleName, string memory lastName, string memory email, string memory phone, string memory profileImage, string[] memory frontend) public {\r... */\n    tag_15:\n        /* \"contracts/Profile.sol\":703:712  firstName */\n      dup7\n        /* \"contracts/Profile.sol\":671:678  profile */\n      0x00\n        /* \"contracts/Profile.sol\":671:690  profile[msg.sender] */\n      dup1\n        /* \"contracts/Profile.sol\":679:689  msg.sender */\n      caller\n        /* \"contracts/Profile.sol\":671:690  profile[msg.sender] */\n      0xffffffffffffffffffffffffffffffffffffffff\n      and\n      0xffffffffffffffffffffffffffffffffffffffff\n      and\n      dup2\n      mstore\n      0x20\n      add\n      swap1\n      dup2\n      mstore\n      0x20\n      add\n      0x00\n      keccak256\n        /* \"contracts/Profile.sol\":671:700  profile[msg.sender].firstName */\n      0x00\n      add\n        /* \"contracts/Profile.sol\":671:712  profile[msg.sender].firstName = firstName */\n      swap1\n      dup1\n      mload\n      swap1\n      0x20\n      add\n      swap1\n      tag_50\n      swap3\n      swap2\n      swap1\n      tag_51\n      jump\t// in\n    tag_50:\n      pop\n        /* \"contracts/Profile.sol\":756:766  middleName */\n      dup6\n        /* \"contracts/Profile.sol\":723:730  profile */\n      0x00\n        /* \"contracts/Profile.sol\":723:742  profile[msg.sender] */\n      dup1\n        /* \"contracts/Profile.sol\":731:741  msg.sender */\n      caller\n        /* \"contracts/Profile.sol\":723:742  profile[msg.sender] */\n      0xffffffffffffffffffffffffffffffffffffffff\n      and\n      0xffffffffffffffffffffffffffffffffffffffff\n      and\n      dup2\n      mstore\n      0x20\n      add\n      swap1\n      dup2\n      mstore\n      0x20\n      add\n      0x00\n      keccak256\n        /* \"contracts/Profile.sol\":723:753  profile[msg.sender].middleName */\n      0x01\n      add\n        /* \"contracts/Profile.sol\":723:766  profile[msg.sender].middleName = middleName */\n      swap1\n      dup1\n      mload\n      swap1\n      0x20\n      add\n      swap1\n      tag_52\n      swap3\n      swap2\n      swap1\n      tag_51\n      jump\t// in\n    tag_52:\n      pop\n        /* \"contracts/Profile.sol\":808:816  lastName */\n      dup5\n        /* \"contracts/Profile.sol\":777:784  profile */\n      0x00\n        /* \"contracts/Profile.sol\":777:796  profile[msg.sender] */\n      dup1\n        /* \"contracts/Profile.sol\":785:795  msg.sender */\n      caller\n        /* \"contracts/Profile.sol\":777:796  profile[msg.sender] */\n      0xffffffffffffffffffffffffffffffffffffffff\n      and\n      0xffffffffffffffffffffffffffffffffffffffff\n      and\n      dup2\n      mstore\n      0x20\n      add\n      swap1\n      dup2\n      mstore\n      0x20\n      add\n      0x00\n      keccak256\n        /* \"contracts/Profile.sol\":777:805  profile[msg.sender].lastName */\n      0x02\n      add\n        /* \"contracts/Profile.sol\":777:816  profile[msg.sender].lastName = lastName */\n      swap1\n      dup1\n      mload\n      swap1\n      0x20\n      add\n      swap1\n      tag_53\n      swap3\n      swap2\n      swap1\n      tag_51\n      jump\t// in\n    tag_53:\n      pop\n        /* \"contracts/Profile.sol\":855:860  email */\n      dup4\n        /* \"contracts/Profile.sol\":827:834  profile */\n      0x00\n        /* \"contracts/Profile.sol\":827:846  profile[msg.sender] */\n      dup1\n        /* \"contracts/Profile.sol\":835:845  msg.sender */\n      caller\n        /* \"contracts/Profile.sol\":827:846  profile[msg.sender] */\n      0xffffffffffffffffffffffffffffffffffffffff\n      and\n      0xffffffffffffffffffffffffffffffffffffffff\n      and\n      dup2\n      mstore\n      0x20\n      add\n      swap1\n      dup2\n      mstore\n      0x20\n      add\n      0x00\n      keccak256\n        /* \"contracts/Profile.sol\":827:852  profile[msg.sender].email */\n      0x03\n      add\n        /* \"contracts/Profile.sol\":827:860  profile[msg.sender].email = email */\n      swap1\n      dup1\n      mload\n      swap1\n      0x20\n      add\n      swap1\n      tag_54\n      swap3\n      swap2\n      swap1\n      tag_51\n      jump\t// in\n    tag_54:\n      pop\n        /* \"contracts/Profile.sol\":899:904  phone */\n      dup3\n        /* \"contracts/Profile.sol\":871:878  profile */\n      0x00\n        /* \"contracts/Profile.sol\":871:890  profile[msg.sender] */\n      dup1\n        /* \"contracts/Profile.sol\":879:889  msg.sender */\n      caller\n        /* \"contracts/Profile.sol\":871:890  profile[msg.sender] */\n      0xffffffffffffffffffffffffffffffffffffffff\n      and\n      0xffffffffffffffffffffffffffffffffffffffff\n      and\n      dup2\n      mstore\n      0x20\n      add\n      swap1\n      dup2\n      mstore\n      0x20\n      add\n      0x00\n      keccak256\n        /* \"contracts/Profile.sol\":871:896  profile[msg.sender].phone */\n      0x04\n      add\n        /* \"contracts/Profile.sol\":871:904  profile[msg.sender].phone = phone */\n      swap1\n      dup1\n      mload\n      swap1\n      0x20\n      add\n      swap1\n      tag_55\n      swap3\n      swap2\n      swap1\n      tag_51\n      jump\t// in\n    tag_55:\n      pop\n        /* \"contracts/Profile.sol\":950:962  profileImage */\n      dup2\n        /* \"contracts/Profile.sol\":915:922  profile */\n      0x00\n        /* \"contracts/Profile.sol\":915:934  profile[msg.sender] */\n      dup1\n        /* \"contracts/Profile.sol\":923:933  msg.sender */\n      caller\n        /* \"contracts/Profile.sol\":915:934  profile[msg.sender] */\n      0xffffffffffffffffffffffffffffffffffffffff\n      and\n      0xffffffffffffffffffffffffffffffffffffffff\n      and\n      dup2\n      mstore\n      0x20\n      add\n      swap1\n      dup2\n      mstore\n      0x20\n      add\n      0x00\n      keccak256\n        /* \"contracts/Profile.sol\":915:947  profile[msg.sender].profileImage */\n      0x05\n      add\n        /* \"contracts/Profile.sol\":915:962  profile[msg.sender].profileImage = profileImage */\n      swap1\n      dup1\n      mload\n      swap1\n      0x20\n      add\n      swap1\n      tag_56\n      swap3\n      swap2\n      swap1\n      tag_51\n      jump\t// in\n    tag_56:\n      pop\n        /* \"contracts/Profile.sol\":1007:1017  msg.sender */\n      caller\n        /* \"contracts/Profile.sol\":973:980  profile */\n      0x00\n        /* \"contracts/Profile.sol\":973:992  profile[msg.sender] */\n      dup1\n        /* \"contracts/Profile.sol\":981:991  msg.sender */\n      caller\n        /* \"contracts/Profile.sol\":973:992  profile[msg.sender] */\n      0xffffffffffffffffffffffffffffffffffffffff\n      and\n      0xffffffffffffffffffffffffffffffffffffffff\n      and\n      dup2\n      mstore\n      0x20\n      add\n      swap1\n      dup2\n      mstore\n      0x20\n      add\n      0x00\n      keccak256\n        /* \"contracts/Profile.sol\":973:1004  profile[msg.sender].userAddress */\n      0x06\n      add\n      0x00\n        /* \"contracts/Profile.sol\":973:1017  profile[msg.sender].userAddress = msg.sender */\n      0x0100\n      exp\n      dup2\n      sload\n      dup2\n      0xffffffffffffffffffffffffffffffffffffffff\n      mul\n      not\n      and\n      swap1\n      dup4\n      0xffffffffffffffffffffffffffffffffffffffff\n      and\n      mul\n      or\n      swap1\n      sstore\n      pop\n        /* \"contracts/Profile.sol\":1062:1077  block.timestamp */\n      timestamp\n        /* \"contracts/Profile.sol\":1029:1036  profile */\n      0x00\n        /* \"contracts/Profile.sol\":1029:1048  profile[msg.sender] */\n      dup1\n        /* \"contracts/Profile.sol\":1037:1047  msg.sender */\n      caller\n        /* \"contracts/Profile.sol\":1029:1048  profile[msg.sender] */\n      0xffffffffffffffffffffffffffffffffffffffff\n      and\n      0xffffffffffffffffffffffffffffffffffffffff\n      and\n      dup2\n      mstore\n      0x20\n      add\n      swap1\n      dup2\n      mstore\n      0x20\n      add\n      0x00\n      keccak256\n        /* \"contracts/Profile.sol\":1029:1059  profile[msg.sender].createDate */\n      0x07\n      add\n        /* \"contracts/Profile.sol\":1029:1077  profile[msg.sender].createDate = block.timestamp */\n      dup2\n      swap1\n      sstore\n      pop\n        /* \"contracts/Profile.sol\":466:1085  function addBio(string memory firstName, string memory middleName, string memory lastName, string memory email, string memory phone, string memory profileImage, string[] memory frontend) public {\r... */\n      pop\n      pop\n      pop\n      pop\n      pop\n      pop\n      pop\n      jump\t// out\n        /* \"contracts/Profile.sol\":1791:1865  function delProfile() public {\r... */\n    tag_17:\n        /* \"contracts/Profile.sol\":1838:1845  profile */\n      0x00\n        /* \"contracts/Profile.sol\":1838:1857  profile[msg.sender] */\n      dup1\n        /* \"contracts/Profile.sol\":1846:1856  msg.sender */\n      caller\n        /* \"contracts/Profile.sol\":1838:1857  profile[msg.sender] */\n      0xffffffffffffffffffffffffffffffffffffffff\n      and\n      0xffffffffffffffffffffffffffffffffffffffff\n      and\n      dup2\n      mstore\n      0x20\n      add\n      swap1\n      dup2\n      mstore\n      0x20\n      add\n      0x00\n      keccak256\n      0x00\n        /* \"contracts/Profile.sol\":1831:1857  delete profile[msg.sender] */\n      dup1\n      dup3\n      add\n      0x00\n      tag_58\n      swap2\n      swap1\n      tag_59\n      jump\t// in\n    tag_58:\n      0x01\n      dup3\n      add\n      0x00\n      tag_60\n      swap2\n      swap1\n      tag_59\n      jump\t// in\n    tag_60:\n      0x02\n      dup3\n      add\n      0x00\n      tag_61\n      swap2\n      swap1\n      tag_59\n      jump\t// in\n    tag_61:\n      0x03\n      dup3\n      add\n      0x00\n      tag_62\n      swap2\n      swap1\n      tag_59\n      jump\t// in\n    tag_62:\n      0x04\n      dup3\n      add\n      0x00\n      tag_63\n      swap2\n      swap1\n      tag_59\n      jump\t// in\n    tag_63:\n      0x05\n      dup3\n      add\n      0x00\n      tag_64\n      swap2\n      swap1\n      tag_59\n      jump\t// in\n    tag_64:\n      0x06\n      dup3\n      add\n      exp(0x0100, 0x00)\n      dup2\n      sload\n      swap1\n      0xffffffffffffffffffffffffffffffffffffffff\n      mul\n      not\n      and\n      swap1\n      sstore\n      0x07\n      dup3\n      add\n      0x00\n      swap1\n      sstore\n      0x08\n      dup3\n      add\n      0x00\n      tag_65\n      swap2\n      swap1\n      tag_66\n      jump\t// in\n    tag_65:\n      0x09\n      dup3\n      add\n      0x00\n      tag_67\n      swap2\n      swap1\n      tag_66\n      jump\t// in\n    tag_67:\n      0x0a\n      dup3\n      add\n      0x00\n      tag_68\n      swap2\n      swap1\n      tag_66\n      jump\t// in\n    tag_68:\n      pop\n      pop\n        /* \"contracts/Profile.sol\":1791:1865  function delProfile() public {\r... */\n      jump\t// out\n    tag_51:\n      dup3\n      dup1\n      sload\n      tag_69\n      swap1\n      tag_19\n      jump\t// in\n    tag_69:\n      swap1\n      0x00\n      mstore\n      keccak256(0x00, 0x20)\n      swap1\n      0x1f\n      add\n      0x20\n      swap1\n      div\n      dup2\n      add\n      swap3\n      dup3\n      tag_71\n      jumpi\n      0x00\n      dup6\n      sstore\n      jump(tag_70)\n    tag_71:\n      dup3\n      0x1f\n      lt\n      tag_72\n      jumpi\n      dup1\n      mload\n      not(0xff)\n      and\n      dup4\n      dup1\n      add\n      or\n      dup6\n      sstore\n      jump(tag_70)\n    tag_72:\n      dup3\n      dup1\n      add\n      0x01\n      add\n      dup6\n      sstore\n      dup3\n      iszero\n      tag_70\n      jumpi\n      swap2\n      dup3\n      add\n    tag_73:\n      dup3\n      dup2\n      gt\n      iszero\n      tag_74\n      jumpi\n      dup3\n      mload\n      dup3\n      sstore\n      swap2\n      0x20\n      add\n      swap2\n      swap1\n      0x01\n      add\n      swap1\n      jump(tag_73)\n    tag_74:\n    tag_70:\n      pop\n      swap1\n      pop\n      tag_75\n      swap2\n      swap1\n      tag_76\n      jump\t// in\n    tag_75:\n      pop\n      swap1\n      jump\t// out\n    tag_59:\n      pop\n      dup1\n      sload\n      tag_77\n      swap1\n      tag_19\n      jump\t// in\n    tag_77:\n      0x00\n      dup3\n      sstore\n      dup1\n      0x1f\n      lt\n      tag_79\n      jumpi\n      pop\n      jump(tag_78)\n    tag_79:\n      0x1f\n      add\n      0x20\n      swap1\n      div\n      swap1\n      0x00\n      mstore\n      keccak256(0x00, 0x20)\n      swap1\n      dup2\n      add\n      swap1\n      tag_80\n      swap2\n      swap1\n      tag_76\n      jump\t// in\n    tag_80:\n    tag_78:\n      pop\n      jump\t// out\n    tag_66:\n      pop\n      dup1\n      sload\n      0x00\n      dup3\n      sstore\n      swap1\n      0x00\n      mstore\n      keccak256(0x00, 0x20)\n      swap1\n      dup2\n      add\n      swap1\n      tag_82\n      swap2\n      swap1\n      tag_83\n      jump\t// in\n    tag_82:\n      pop\n      jump\t// out\n    tag_76:\n    tag_84:\n      dup1\n      dup3\n      gt\n      iszero\n      tag_85\n      jumpi\n      0x00\n      dup2\n      0x00\n      swap1\n      sstore\n      pop\n      0x01\n      add\n      jump(tag_84)\n    tag_85:\n      pop\n      swap1\n      jump\t// out\n    tag_83:\n    tag_86:\n      dup1\n      dup3\n      gt\n      iszero\n      tag_87\n      jumpi\n      0x00\n      dup2\n      dup2\n      tag_88\n      swap2\n      swap1\n      tag_59\n      jump\t// in\n    tag_88:\n      pop\n      0x01\n      add\n      jump(tag_86)\n    tag_87:\n      pop\n      swap1\n      jump\t// out\n        /* \"#utility.yul\":23:980   */\n    tag_90:\n        /* \"#utility.yul\":129:134   */\n      0x00\n        /* \"#utility.yul\":154:245   */\n      tag_92\n        /* \"#utility.yul\":170:244   */\n      tag_93\n        /* \"#utility.yul\":237:243   */\n      dup5\n        /* \"#utility.yul\":170:244   */\n      tag_94\n      jump\t// in\n    tag_93:\n        /* \"#utility.yul\":154:245   */\n      tag_95\n      jump\t// in\n    tag_92:\n        /* \"#utility.yul\":145:245   */\n      swap1\n      pop\n        /* \"#utility.yul\":265:270   */\n      dup1\n        /* \"#utility.yul\":294:300   */\n      dup4\n        /* \"#utility.yul\":287:292   */\n      dup3\n        /* \"#utility.yul\":280:301   */\n      mstore\n        /* \"#utility.yul\":328:332   */\n      0x20\n        /* \"#utility.yul\":321:326   */\n      dup3\n        /* \"#utility.yul\":317:333   */\n      add\n        /* \"#utility.yul\":310:333   */\n      swap1\n      pop\n        /* \"#utility.yul\":354:360   */\n      dup3\n        /* \"#utility.yul\":404:407   */\n      dup6\n        /* \"#utility.yul\":396:400   */\n      0x20\n        /* \"#utility.yul\":388:394   */\n      dup7\n        /* \"#utility.yul\":384:401   */\n      mul\n        /* \"#utility.yul\":379:382   */\n      dup3\n        /* \"#utility.yul\":375:402   */\n      add\n        /* \"#utility.yul\":372:408   */\n      gt\n        /* \"#utility.yul\":369:512   */\n      iszero\n      tag_96\n      jumpi\n        /* \"#utility.yul\":423:502   */\n      tag_97\n      tag_98\n      jump\t// in\n    tag_97:\n        /* \"#utility.yul\":369:512   */\n    tag_96:\n        /* \"#utility.yul\":536:537   */\n      0x00\n        /* \"#utility.yul\":521:974   */\n    tag_99:\n        /* \"#utility.yul\":546:552   */\n      dup6\n        /* \"#utility.yul\":543:544   */\n      dup2\n        /* \"#utility.yul\":540:553   */\n      lt\n        /* \"#utility.yul\":521:974   */\n      iszero\n      tag_101\n      jumpi\n        /* \"#utility.yul\":628:631   */\n      dup2\n        /* \"#utility.yul\":615:632   */\n      calldataload\n        /* \"#utility.yul\":664:682   */\n      0xffffffffffffffff\n        /* \"#utility.yul\":651:662   */\n      dup2\n        /* \"#utility.yul\":648:683   */\n      gt\n        /* \"#utility.yul\":645:767   */\n      iszero\n      tag_102\n      jumpi\n        /* \"#utility.yul\":686:765   */\n      tag_103\n      tag_104\n      jump\t// in\n    tag_103:\n        /* \"#utility.yul\":645:767   */\n    tag_102:\n        /* \"#utility.yul\":810:821   */\n      dup1\n        /* \"#utility.yul\":802:808   */\n      dup7\n        /* \"#utility.yul\":798:822   */\n      add\n        /* \"#utility.yul\":848:895   */\n      tag_105\n        /* \"#utility.yul\":891:894   */\n      dup10\n        /* \"#utility.yul\":879:889   */\n      dup3\n        /* \"#utility.yul\":848:895   */\n      tag_106\n      jump\t// in\n    tag_105:\n        /* \"#utility.yul\":843:846   */\n      dup6\n        /* \"#utility.yul\":836:896   */\n      mstore\n        /* \"#utility.yul\":925:929   */\n      0x20\n        /* \"#utility.yul\":920:923   */\n      dup6\n        /* \"#utility.yul\":916:930   */\n      add\n        /* \"#utility.yul\":909:930   */\n      swap5\n      pop\n        /* \"#utility.yul\":959:963   */\n      0x20\n        /* \"#utility.yul\":954:957   */\n      dup5\n        /* \"#utility.yul\":950:964   */\n      add\n        /* \"#utility.yul\":943:964   */\n      swap4\n      pop\n        /* \"#utility.yul\":581:974   */\n      pop\n      pop\n        /* \"#utility.yul\":568:569   */\n      0x01\n        /* \"#utility.yul\":565:566   */\n      dup2\n        /* \"#utility.yul\":561:570   */\n      add\n        /* \"#utility.yul\":556:570   */\n      swap1\n      pop\n        /* \"#utility.yul\":521:974   */\n      jump(tag_99)\n    tag_101:\n        /* \"#utility.yul\":525:539   */\n      pop\n        /* \"#utility.yul\":135:980   */\n      pop\n      pop\n        /* \"#utility.yul\":23:980   */\n      swap4\n      swap3\n      pop\n      pop\n      pop\n      jump\t// out\n        /* \"#utility.yul\":986:1398   */\n    tag_107:\n        /* \"#utility.yul\":1064:1069   */\n      0x00\n        /* \"#utility.yul\":1089:1155   */\n      tag_109\n        /* \"#utility.yul\":1105:1154   */\n      tag_110\n        /* \"#utility.yul\":1147:1153   */\n      dup5\n        /* \"#utility.yul\":1105:1154   */\n      tag_111\n      jump\t// in\n    tag_110:\n        /* \"#utility.yul\":1089:1155   */\n      tag_95\n      jump\t// in\n    tag_109:\n        /* \"#utility.yul\":1080:1155   */\n      swap1\n      pop\n        /* \"#utility.yul\":1178:1184   */\n      dup3\n        /* \"#utility.yul\":1171:1176   */\n      dup2\n        /* \"#utility.yul\":1164:1185   */\n      mstore\n        /* \"#utility.yul\":1216:1220   */\n      0x20\n        /* \"#utility.yul\":1209:1214   */\n      dup2\n        /* \"#utility.yul\":1205:1221   */\n      add\n        /* \"#utility.yul\":1254:1257   */\n      dup5\n        /* \"#utility.yul\":1245:1251   */\n      dup5\n        /* \"#utility.yul\":1240:1243   */\n      dup5\n        /* \"#utility.yul\":1236:1252   */\n      add\n        /* \"#utility.yul\":1233:1258   */\n      gt\n        /* \"#utility.yul\":1230:1342   */\n      iszero\n      tag_112\n      jumpi\n        /* \"#utility.yul\":1261:1340   */\n      tag_113\n      tag_114\n      jump\t// in\n    tag_113:\n        /* \"#utility.yul\":1230:1342   */\n    tag_112:\n        /* \"#utility.yul\":1351:1392   */\n      tag_115\n        /* \"#utility.yul\":1385:1391   */\n      dup5\n        /* \"#utility.yul\":1380:1383   */\n      dup3\n        /* \"#utility.yul\":1375:1378   */\n      dup6\n        /* \"#utility.yul\":1351:1392   */\n      tag_116\n      jump\t// in\n    tag_115:\n        /* \"#utility.yul\":1070:1398   */\n      pop\n        /* \"#utility.yul\":986:1398   */\n      swap4\n      swap3\n      pop\n      pop\n      pop\n      jump\t// out\n        /* \"#utility.yul\":1404:1543   */\n    tag_117:\n        /* \"#utility.yul\":1450:1455   */\n      0x00\n        /* \"#utility.yul\":1488:1494   */\n      dup2\n        /* \"#utility.yul\":1475:1495   */\n      calldataload\n        /* \"#utility.yul\":1466:1495   */\n      swap1\n      pop\n        /* \"#utility.yul\":1504:1537   */\n      tag_119\n        /* \"#utility.yul\":1531:1536   */\n      dup2\n        /* \"#utility.yul\":1504:1537   */\n      tag_120\n      jump\t// in\n    tag_119:\n        /* \"#utility.yul\":1404:1543   */\n      swap3\n      swap2\n      pop\n      pop\n      jump\t// out\n        /* \"#utility.yul\":1565:1955   */\n    tag_121:\n        /* \"#utility.yul\":1646:1651   */\n      0x00\n        /* \"#utility.yul\":1695:1698   */\n      dup3\n        /* \"#utility.yul\":1688:1692   */\n      0x1f\n        /* \"#utility.yul\":1680:1686   */\n      dup4\n        /* \"#utility.yul\":1676:1693   */\n      add\n        /* \"#utility.yul\":1672:1699   */\n      slt\n        /* \"#utility.yul\":1662:1784   */\n      tag_123\n      jumpi\n        /* \"#utility.yul\":1703:1782   */\n      tag_124\n      tag_104\n      jump\t// in\n    tag_124:\n        /* \"#utility.yul\":1662:1784   */\n    tag_123:\n        /* \"#utility.yul\":1820:1826   */\n      dup2\n        /* \"#utility.yul\":1807:1827   */\n      calldataload\n        /* \"#utility.yul\":1845:1949   */\n      tag_125\n        /* \"#utility.yul\":1945:1948   */\n      dup5\n        /* \"#utility.yul\":1937:1943   */\n      dup3\n        /* \"#utility.yul\":1930:1934   */\n      0x20\n        /* \"#utility.yul\":1922:1928   */\n      dup7\n        /* \"#utility.yul\":1918:1935   */\n      add\n        /* \"#utility.yul\":1845:1949   */\n      tag_90\n      jump\t// in\n    tag_125:\n        /* \"#utility.yul\":1836:1949   */\n      swap2\n      pop\n        /* \"#utility.yul\":1652:1955   */\n      pop\n        /* \"#utility.yul\":1565:1955   */\n      swap3\n      swap2\n      pop\n      pop\n      jump\t// out\n        /* \"#utility.yul\":1975:2315   */\n    tag_106:\n        /* \"#utility.yul\":2031:2036   */\n      0x00\n        /* \"#utility.yul\":2080:2083   */\n      dup3\n        /* \"#utility.yul\":2073:2077   */\n      0x1f\n        /* \"#utility.yul\":2065:2071   */\n      dup4\n        /* \"#utility.yul\":2061:2078   */\n      add\n        /* \"#utility.yul\":2057:2084   */\n      slt\n        /* \"#utility.yul\":2047:2169   */\n      tag_127\n      jumpi\n        /* \"#utility.yul\":2088:2167   */\n      tag_128\n      tag_104\n      jump\t// in\n    tag_128:\n        /* \"#utility.yul\":2047:2169   */\n    tag_127:\n        /* \"#utility.yul\":2205:2211   */\n      dup2\n        /* \"#utility.yul\":2192:2212   */\n      calldataload\n        /* \"#utility.yul\":2230:2309   */\n      tag_129\n        /* \"#utility.yul\":2305:2308   */\n      dup5\n        /* \"#utility.yul\":2297:2303   */\n      dup3\n        /* \"#utility.yul\":2290:2294   */\n      0x20\n        /* \"#utility.yul\":2282:2288   */\n      dup7\n        /* \"#utility.yul\":2278:2295   */\n      add\n        /* \"#utility.yul\":2230:2309   */\n      tag_107\n      jump\t// in\n    tag_129:\n        /* \"#utility.yul\":2221:2309   */\n      swap2\n      pop\n        /* \"#utility.yul\":2037:2315   */\n      pop\n        /* \"#utility.yul\":1975:2315   */\n      swap3\n      swap2\n      pop\n      pop\n      jump\t// out\n        /* \"#utility.yul\":2321:2650   */\n    tag_8:\n        /* \"#utility.yul\":2380:2386   */\n      0x00\n        /* \"#utility.yul\":2429:2431   */\n      0x20\n        /* \"#utility.yul\":2417:2426   */\n      dup3\n        /* \"#utility.yul\":2408:2415   */\n      dup5\n        /* \"#utility.yul\":2404:2427   */\n      sub\n        /* \"#utility.yul\":2400:2432   */\n      slt\n        /* \"#utility.yul\":2397:2516   */\n      iszero\n      tag_131\n      jumpi\n        /* \"#utility.yul\":2435:2514   */\n      tag_132\n      tag_133\n      jump\t// in\n    tag_132:\n        /* \"#utility.yul\":2397:2516   */\n    tag_131:\n        /* \"#utility.yul\":2555:2556   */\n      0x00\n        /* \"#utility.yul\":2580:2633   */\n      tag_134\n        /* \"#utility.yul\":2625:2632   */\n      dup5\n        /* \"#utility.yul\":2616:2622   */\n      dup3\n        /* \"#utility.yul\":2605:2614   */\n      dup6\n        /* \"#utility.yul\":2601:2623   */\n      add\n        /* \"#utility.yul\":2580:2633   */\n      tag_117\n      jump\t// in\n    tag_134:\n        /* \"#utility.yul\":2570:2633   */\n      swap2\n      pop\n        /* \"#utility.yul\":2526:2643   */\n      pop\n        /* \"#utility.yul\":2321:2650   */\n      swap3\n      swap2\n      pop\n      pop\n      jump\t// out\n        /* \"#utility.yul\":2656:5169   */\n    tag_14:\n        /* \"#utility.yul\":2864:2870   */\n      0x00\n        /* \"#utility.yul\":2872:2878   */\n      dup1\n        /* \"#utility.yul\":2880:2886   */\n      0x00\n        /* \"#utility.yul\":2888:2894   */\n      dup1\n        /* \"#utility.yul\":2896:2902   */\n      0x00\n        /* \"#utility.yul\":2904:2910   */\n      dup1\n        /* \"#utility.yul\":2912:2918   */\n      0x00\n        /* \"#utility.yul\":2961:2964   */\n      0xe0\n        /* \"#utility.yul\":2949:2958   */\n      dup9\n        /* \"#utility.yul\":2940:2947   */\n      dup11\n        /* \"#utility.yul\":2936:2959   */\n      sub\n        /* \"#utility.yul\":2932:2965   */\n      slt\n        /* \"#utility.yul\":2929:3049   */\n      iszero\n      tag_136\n      jumpi\n        /* \"#utility.yul\":2968:3047   */\n      tag_137\n      tag_133\n      jump\t// in\n    tag_137:\n        /* \"#utility.yul\":2929:3049   */\n    tag_136:\n        /* \"#utility.yul\":3116:3117   */\n      0x00\n        /* \"#utility.yul\":3105:3114   */\n      dup9\n        /* \"#utility.yul\":3101:3118   */\n      add\n        /* \"#utility.yul\":3088:3119   */\n      calldataload\n        /* \"#utility.yul\":3146:3164   */\n      0xffffffffffffffff\n        /* \"#utility.yul\":3138:3144   */\n      dup2\n        /* \"#utility.yul\":3135:3165   */\n      gt\n        /* \"#utility.yul\":3132:3249   */\n      iszero\n      tag_138\n      jumpi\n        /* \"#utility.yul\":3168:3247   */\n      tag_139\n      tag_140\n      jump\t// in\n    tag_139:\n        /* \"#utility.yul\":3132:3249   */\n    tag_138:\n        /* \"#utility.yul\":3273:3336   */\n      tag_141\n        /* \"#utility.yul\":3328:3335   */\n      dup11\n        /* \"#utility.yul\":3319:3325   */\n      dup3\n        /* \"#utility.yul\":3308:3317   */\n      dup12\n        /* \"#utility.yul\":3304:3326   */\n      add\n        /* \"#utility.yul\":3273:3336   */\n      tag_106\n      jump\t// in\n    tag_141:\n        /* \"#utility.yul\":3263:3336   */\n      swap8\n      pop\n        /* \"#utility.yul\":3059:3346   */\n      pop\n        /* \"#utility.yul\":3413:3415   */\n      0x20\n        /* \"#utility.yul\":3402:3411   */\n      dup9\n        /* \"#utility.yul\":3398:3416   */\n      add\n        /* \"#utility.yul\":3385:3417   */\n      calldataload\n        /* \"#utility.yul\":3444:3462   */\n      0xffffffffffffffff\n        /* \"#utility.yul\":3436:3442   */\n      dup2\n        /* \"#utility.yul\":3433:3463   */\n      gt\n        /* \"#utility.yul\":3430:3547   */\n      iszero\n      tag_142\n      jumpi\n        /* \"#utility.yul\":3466:3545   */\n      tag_143\n      tag_140\n      jump\t// in\n    tag_143:\n        /* \"#utility.yul\":3430:3547   */\n    tag_142:\n        /* \"#utility.yul\":3571:3634   */\n      tag_144\n        /* \"#utility.yul\":3626:3633   */\n      dup11\n        /* \"#utility.yul\":3617:3623   */\n      dup3\n        /* \"#utility.yul\":3606:3615   */\n      dup12\n        /* \"#utility.yul\":3602:3624   */\n      add\n        /* \"#utility.yul\":3571:3634   */\n      tag_106\n      jump\t// in\n    tag_144:\n        /* \"#utility.yul\":3561:3634   */\n      swap7\n      pop\n        /* \"#utility.yul\":3356:3644   */\n      pop\n        /* \"#utility.yul\":3711:3713   */\n      0x40\n        /* \"#utility.yul\":3700:3709   */\n      dup9\n        /* \"#utility.yul\":3696:3714   */\n      add\n        /* \"#utility.yul\":3683:3715   */\n      calldataload\n        /* \"#utility.yul\":3742:3760   */\n      0xffffffffffffffff\n        /* \"#utility.yul\":3734:3740   */\n      dup2\n        /* \"#utility.yul\":3731:3761   */\n      gt\n        /* \"#utility.yul\":3728:3845   */\n      iszero\n      tag_145\n      jumpi\n        /* \"#utility.yul\":3764:3843   */\n      tag_146\n      tag_140\n      jump\t// in\n    tag_146:\n        /* \"#utility.yul\":3728:3845   */\n    tag_145:\n        /* \"#utility.yul\":3869:3932   */\n      tag_147\n        /* \"#utility.yul\":3924:3931   */\n      dup11\n        /* \"#utility.yul\":3915:3921   */\n      dup3\n        /* \"#utility.yul\":3904:3913   */\n      dup12\n        /* \"#utility.yul\":3900:3922   */\n      add\n        /* \"#utility.yul\":3869:3932   */\n      tag_106\n      jump\t// in\n    tag_147:\n        /* \"#utility.yul\":3859:3932   */\n      swap6\n      pop\n        /* \"#utility.yul\":3654:3942   */\n      pop\n        /* \"#utility.yul\":4009:4011   */\n      0x60\n        /* \"#utility.yul\":3998:4007   */\n      dup9\n        /* \"#utility.yul\":3994:4012   */\n      add\n        /* \"#utility.yul\":3981:4013   */\n      calldataload\n        /* \"#utility.yul\":4040:4058   */\n      0xffffffffffffffff\n        /* \"#utility.yul\":4032:4038   */\n      dup2\n        /* \"#utility.yul\":4029:4059   */\n      gt\n        /* \"#utility.yul\":4026:4143   */\n      iszero\n      tag_148\n      jumpi\n        /* \"#utility.yul\":4062:4141   */\n      tag_149\n      tag_140\n      jump\t// in\n    tag_149:\n        /* \"#utility.yul\":4026:4143   */\n    tag_148:\n        /* \"#utility.yul\":4167:4230   */\n      tag_150\n        /* \"#utility.yul\":4222:4229   */\n      dup11\n        /* \"#utility.yul\":4213:4219   */\n      dup3\n        /* \"#utility.yul\":4202:4211   */\n      dup12\n        /* \"#utility.yul\":4198:4220   */\n      add\n        /* \"#utility.yul\":4167:4230   */\n      tag_106\n      jump\t// in\n    tag_150:\n        /* \"#utility.yul\":4157:4230   */\n      swap5\n      pop\n        /* \"#utility.yul\":3952:4240   */\n      pop\n        /* \"#utility.yul\":4307:4310   */\n      0x80\n        /* \"#utility.yul\":4296:4305   */\n      dup9\n        /* \"#utility.yul\":4292:4311   */\n      add\n        /* \"#utility.yul\":4279:4312   */\n      calldataload\n        /* \"#utility.yul\":4339:4357   */\n      0xffffffffffffffff\n        /* \"#utility.yul\":4331:4337   */\n      dup2\n        /* \"#utility.yul\":4328:4358   */\n      gt\n        /* \"#utility.yul\":4325:4442   */\n      iszero\n      tag_151\n      jumpi\n        /* \"#utility.yul\":4361:4440   */\n      tag_152\n      tag_140\n      jump\t// in\n    tag_152:\n        /* \"#utility.yul\":4325:4442   */\n    tag_151:\n        /* \"#utility.yul\":4466:4529   */\n      tag_153\n        /* \"#utility.yul\":4521:4528   */\n      dup11\n        /* \"#utility.yul\":4512:4518   */\n      dup3\n        /* \"#utility.yul\":4501:4510   */\n      dup12\n        /* \"#utility.yul\":4497:4519   */\n      add\n        /* \"#utility.yul\":4466:4529   */\n      tag_106\n      jump\t// in\n    tag_153:\n        /* \"#utility.yul\":4456:4529   */\n      swap4\n      pop\n        /* \"#utility.yul\":4250:4539   */\n      pop\n        /* \"#utility.yul\":4606:4609   */\n      0xa0\n        /* \"#utility.yul\":4595:4604   */\n      dup9\n        /* \"#utility.yul\":4591:4610   */\n      add\n        /* \"#utility.yul\":4578:4611   */\n      calldataload\n        /* \"#utility.yul\":4638:4656   */\n      0xffffffffffffffff\n        /* \"#utility.yul\":4630:4636   */\n      dup2\n        /* \"#utility.yul\":4627:4657   */\n      gt\n        /* \"#utility.yul\":4624:4741   */\n      iszero\n      tag_154\n      jumpi\n        /* \"#utility.yul\":4660:4739   */\n      tag_155\n      tag_140\n      jump\t// in\n    tag_155:\n        /* \"#utility.yul\":4624:4741   */\n    tag_154:\n        /* \"#utility.yul\":4765:4828   */\n      tag_156\n        /* \"#utility.yul\":4820:4827   */\n      dup11\n        /* \"#utility.yul\":4811:4817   */\n      dup3\n        /* \"#utility.yul\":4800:4809   */\n      dup12\n        /* \"#utility.yul\":4796:4818   */\n      add\n        /* \"#utility.yul\":4765:4828   */\n      tag_106\n      jump\t// in\n    tag_156:\n        /* \"#utility.yul\":4755:4828   */\n      swap3\n      pop\n        /* \"#utility.yul\":4549:4838   */\n      pop\n        /* \"#utility.yul\":4905:4908   */\n      0xc0\n        /* \"#utility.yul\":4894:4903   */\n      dup9\n        /* \"#utility.yul\":4890:4909   */\n      add\n        /* \"#utility.yul\":4877:4910   */\n      calldataload\n        /* \"#utility.yul\":4937:4955   */\n      0xffffffffffffffff\n        /* \"#utility.yul\":4929:4935   */\n      dup2\n        /* \"#utility.yul\":4926:4956   */\n      gt\n        /* \"#utility.yul\":4923:5040   */\n      iszero\n      tag_157\n      jumpi\n        /* \"#utility.yul\":4959:5038   */\n      tag_158\n      tag_140\n      jump\t// in\n    tag_158:\n        /* \"#utility.yul\":4923:5040   */\n    tag_157:\n        /* \"#utility.yul\":5064:5152   */\n      tag_159\n        /* \"#utility.yul\":5144:5151   */\n      dup11\n        /* \"#utility.yul\":5135:5141   */\n      dup3\n        /* \"#utility.yul\":5124:5133   */\n      dup12\n        /* \"#utility.yul\":5120:5142   */\n      add\n        /* \"#utility.yul\":5064:5152   */\n      tag_121\n      jump\t// in\n    tag_159:\n        /* \"#utility.yul\":5054:5152   */\n      swap2\n      pop\n        /* \"#utility.yul\":4848:5162   */\n      pop\n        /* \"#utility.yul\":2656:5169   */\n      swap3\n      swap6\n      swap9\n      swap2\n      swap5\n      swap8\n      pop\n      swap3\n      swap6\n      pop\n      jump\t// out\n        /* \"#utility.yul\":5175:5293   */\n    tag_160:\n        /* \"#utility.yul\":5262:5286   */\n      tag_162\n        /* \"#utility.yul\":5280:5285   */\n      dup2\n        /* \"#utility.yul\":5262:5286   */\n      tag_163\n      jump\t// in\n    tag_162:\n        /* \"#utility.yul\":5257:5260   */\n      dup3\n        /* \"#utility.yul\":5250:5287   */\n      mstore\n        /* \"#utility.yul\":5175:5293   */\n      pop\n      pop\n      jump\t// out\n        /* \"#utility.yul\":5299:5663   */\n    tag_164:\n        /* \"#utility.yul\":5387:5390   */\n      0x00\n        /* \"#utility.yul\":5415:5454   */\n      tag_166\n        /* \"#utility.yul\":5448:5453   */\n      dup3\n        /* \"#utility.yul\":5415:5454   */\n      tag_167\n      jump\t// in\n    tag_166:\n        /* \"#utility.yul\":5470:5541   */\n      tag_168\n        /* \"#utility.yul\":5534:5540   */\n      dup2\n        /* \"#utility.yul\":5529:5532   */\n      dup6\n        /* \"#utility.yul\":5470:5541   */\n      tag_169\n      jump\t// in\n    tag_168:\n        /* \"#utility.yul\":5463:5541   */\n      swap4\n      pop\n        /* \"#utility.yul\":5550:5602   */\n      tag_170\n        /* \"#utility.yul\":5595:5601   */\n      dup2\n        /* \"#utility.yul\":5590:5593   */\n      dup6\n        /* \"#utility.yul\":5583:5587   */\n      0x20\n        /* \"#utility.yul\":5576:5581   */\n      dup7\n        /* \"#utility.yul\":5572:5588   */\n      add\n        /* \"#utility.yul\":5550:5602   */\n      tag_171\n      jump\t// in\n    tag_170:\n        /* \"#utility.yul\":5627:5656   */\n      tag_172\n        /* \"#utility.yul\":5649:5655   */\n      dup2\n        /* \"#utility.yul\":5627:5656   */\n      tag_173\n      jump\t// in\n    tag_172:\n        /* \"#utility.yul\":5622:5625   */\n      dup5\n        /* \"#utility.yul\":5618:5657   */\n      add\n        /* \"#utility.yul\":5611:5657   */\n      swap2\n      pop\n        /* \"#utility.yul\":5391:5663   */\n      pop\n        /* \"#utility.yul\":5299:5663   */\n      swap3\n      swap2\n      pop\n      pop\n      jump\t// out\n        /* \"#utility.yul\":5669:5787   */\n    tag_174:\n        /* \"#utility.yul\":5756:5780   */\n      tag_176\n        /* \"#utility.yul\":5774:5779   */\n      dup2\n        /* \"#utility.yul\":5756:5780   */\n      tag_177\n      jump\t// in\n    tag_176:\n        /* \"#utility.yul\":5751:5754   */\n      dup3\n        /* \"#utility.yul\":5744:5781   */\n      mstore\n        /* \"#utility.yul\":5669:5787   */\n      pop\n      pop\n      jump\t// out\n        /* \"#utility.yul\":5793:7336   */\n    tag_11:\n        /* \"#utility.yul\":6202:6206   */\n      0x00\n        /* \"#utility.yul\":6240:6243   */\n      0x0100\n        /* \"#utility.yul\":6229:6238   */\n      dup3\n        /* \"#utility.yul\":6225:6244   */\n      add\n        /* \"#utility.yul\":6217:6244   */\n      swap1\n      pop\n        /* \"#utility.yul\":6290:6299   */\n      dup2\n        /* \"#utility.yul\":6284:6288   */\n      dup2\n        /* \"#utility.yul\":6280:6300   */\n      sub\n        /* \"#utility.yul\":6276:6277   */\n      0x00\n        /* \"#utility.yul\":6265:6274   */\n      dup4\n        /* \"#utility.yul\":6261:6278   */\n      add\n        /* \"#utility.yul\":6254:6301   */\n      mstore\n        /* \"#utility.yul\":6318:6396   */\n      tag_179\n        /* \"#utility.yul\":6391:6395   */\n      dup2\n        /* \"#utility.yul\":6382:6388   */\n      dup12\n        /* \"#utility.yul\":6318:6396   */\n      tag_164\n      jump\t// in\n    tag_179:\n        /* \"#utility.yul\":6310:6396   */\n      swap1\n      pop\n        /* \"#utility.yul\":6443:6452   */\n      dup2\n        /* \"#utility.yul\":6437:6441   */\n      dup2\n        /* \"#utility.yul\":6433:6453   */\n      sub\n        /* \"#utility.yul\":6428:6430   */\n      0x20\n        /* \"#utility.yul\":6417:6426   */\n      dup4\n        /* \"#utility.yul\":6413:6431   */\n      add\n        /* \"#utility.yul\":6406:6454   */\n      mstore\n        /* \"#utility.yul\":6471:6549   */\n      tag_180\n        /* \"#utility.yul\":6544:6548   */\n      dup2\n        /* \"#utility.yul\":6535:6541   */\n      dup11\n        /* \"#utility.yul\":6471:6549   */\n      tag_164\n      jump\t// in\n    tag_180:\n        /* \"#utility.yul\":6463:6549   */\n      swap1\n      pop\n        /* \"#utility.yul\":6596:6605   */\n      dup2\n        /* \"#utility.yul\":6590:6594   */\n      dup2\n        /* \"#utility.yul\":6586:6606   */\n      sub\n        /* \"#utility.yul\":6581:6583   */\n      0x40\n        /* \"#utility.yul\":6570:6579   */\n      dup4\n        /* \"#utility.yul\":6566:6584   */\n      add\n        /* \"#utility.yul\":6559:6607   */\n      mstore\n        /* \"#utility.yul\":6624:6702   */\n      tag_181\n        /* \"#utility.yul\":6697:6701   */\n      dup2\n        /* \"#utility.yul\":6688:6694   */\n      dup10\n        /* \"#utility.yul\":6624:6702   */\n      tag_164\n      jump\t// in\n    tag_181:\n        /* \"#utility.yul\":6616:6702   */\n      swap1\n      pop\n        /* \"#utility.yul\":6749:6758   */\n      dup2\n        /* \"#utility.yul\":6743:6747   */\n      dup2\n        /* \"#utility.yul\":6739:6759   */\n      sub\n        /* \"#utility.yul\":6734:6736   */\n      0x60\n        /* \"#utility.yul\":6723:6732   */\n      dup4\n        /* \"#utility.yul\":6719:6737   */\n      add\n        /* \"#utility.yul\":6712:6760   */\n      mstore\n        /* \"#utility.yul\":6777:6855   */\n      tag_182\n        /* \"#utility.yul\":6850:6854   */\n      dup2\n        /* \"#utility.yul\":6841:6847   */\n      dup9\n        /* \"#utility.yul\":6777:6855   */\n      tag_164\n      jump\t// in\n    tag_182:\n        /* \"#utility.yul\":6769:6855   */\n      swap1\n      pop\n        /* \"#utility.yul\":6903:6912   */\n      dup2\n        /* \"#utility.yul\":6897:6901   */\n      dup2\n        /* \"#utility.yul\":6893:6913   */\n      sub\n        /* \"#utility.yul\":6887:6890   */\n      0x80\n        /* \"#utility.yul\":6876:6885   */\n      dup4\n        /* \"#utility.yul\":6872:6891   */\n      add\n        /* \"#utility.yul\":6865:6914   */\n      mstore\n        /* \"#utility.yul\":6931:7009   */\n      tag_183\n        /* \"#utility.yul\":7004:7008   */\n      dup2\n        /* \"#utility.yul\":6995:7001   */\n      dup8\n        /* \"#utility.yul\":6931:7009   */\n      tag_164\n      jump\t// in\n    tag_183:\n        /* \"#utility.yul\":6923:7009   */\n      swap1\n      pop\n        /* \"#utility.yul\":7057:7066   */\n      dup2\n        /* \"#utility.yul\":7051:7055   */\n      dup2\n        /* \"#utility.yul\":7047:7067   */\n      sub\n        /* \"#utility.yul\":7041:7044   */\n      0xa0\n        /* \"#utility.yul\":7030:7039   */\n      dup4\n        /* \"#utility.yul\":7026:7045   */\n      add\n        /* \"#utility.yul\":7019:7068   */\n      mstore\n        /* \"#utility.yul\":7085:7163   */\n      tag_184\n        /* \"#utility.yul\":7158:7162   */\n      dup2\n        /* \"#utility.yul\":7149:7155   */\n      dup7\n        /* \"#utility.yul\":7085:7163   */\n      tag_164\n      jump\t// in\n    tag_184:\n        /* \"#utility.yul\":7077:7163   */\n      swap1\n      pop\n        /* \"#utility.yul\":7173:7246   */\n      tag_185\n        /* \"#utility.yul\":7241:7244   */\n      0xc0\n        /* \"#utility.yul\":7230:7239   */\n      dup4\n        /* \"#utility.yul\":7226:7245   */\n      add\n        /* \"#utility.yul\":7217:7223   */\n      dup6\n        /* \"#utility.yul\":7173:7246   */\n      tag_160\n      jump\t// in\n    tag_185:\n        /* \"#utility.yul\":7256:7329   */\n      tag_186\n        /* \"#utility.yul\":7324:7327   */\n      0xe0\n        /* \"#utility.yul\":7313:7322   */\n      dup4\n        /* \"#utility.yul\":7309:7328   */\n      add\n        /* \"#utility.yul\":7300:7306   */\n      dup5\n        /* \"#utility.yul\":7256:7329   */\n      tag_174\n      jump\t// in\n    tag_186:\n        /* \"#utility.yul\":5793:7336   */\n      swap10\n      swap9\n      pop\n      pop\n      pop\n      pop\n      pop\n      pop\n      pop\n      pop\n      pop\n      jump\t// out\n        /* \"#utility.yul\":7342:7471   */\n    tag_95:\n        /* \"#utility.yul\":7376:7382   */\n      0x00\n        /* \"#utility.yul\":7403:7423   */\n      tag_188\n      tag_189\n      jump\t// in\n    tag_188:\n        /* \"#utility.yul\":7393:7423   */\n      swap1\n      pop\n        /* \"#utility.yul\":7432:7465   */\n      tag_190\n        /* \"#utility.yul\":7460:7464   */\n      dup3\n        /* \"#utility.yul\":7452:7458   */\n      dup3\n        /* \"#utility.yul\":7432:7465   */\n      tag_191\n      jump\t// in\n    tag_190:\n        /* \"#utility.yul\":7342:7471   */\n      swap2\n      swap1\n      pop\n      jump\t// out\n        /* \"#utility.yul\":7477:7552   */\n    tag_189:\n        /* \"#utility.yul\":7510:7516   */\n      0x00\n        /* \"#utility.yul\":7543:7545   */\n      0x40\n        /* \"#utility.yul\":7537:7546   */\n      mload\n        /* \"#utility.yul\":7527:7546   */\n      swap1\n      pop\n        /* \"#utility.yul\":7477:7552   */\n      swap1\n      jump\t// out\n        /* \"#utility.yul\":7558:7879   */\n    tag_94:\n        /* \"#utility.yul\":7645:7649   */\n      0x00\n        /* \"#utility.yul\":7735:7753   */\n      0xffffffffffffffff\n        /* \"#utility.yul\":7727:7733   */\n      dup3\n        /* \"#utility.yul\":7724:7754   */\n      gt\n        /* \"#utility.yul\":7721:7777   */\n      iszero\n      tag_194\n      jumpi\n        /* \"#utility.yul\":7757:7775   */\n      tag_195\n      tag_196\n      jump\t// in\n    tag_195:\n        /* \"#utility.yul\":7721:7777   */\n    tag_194:\n        /* \"#utility.yul\":7807:7811   */\n      0x20\n        /* \"#utility.yul\":7799:7805   */\n      dup3\n        /* \"#utility.yul\":7795:7812   */\n      mul\n        /* \"#utility.yul\":7787:7812   */\n      swap1\n      pop\n        /* \"#utility.yul\":7867:7871   */\n      0x20\n        /* \"#utility.yul\":7861:7865   */\n      dup2\n        /* \"#utility.yul\":7857:7872   */\n      add\n        /* \"#utility.yul\":7849:7872   */\n      swap1\n      pop\n        /* \"#utility.yul\":7558:7879   */\n      swap2\n      swap1\n      pop\n      jump\t// out\n        /* \"#utility.yul\":7885:8193   */\n    tag_111:\n        /* \"#utility.yul\":7947:7951   */\n      0x00\n        /* \"#utility.yul\":8037:8055   */\n      0xffffffffffffffff\n        /* \"#utility.yul\":8029:8035   */\n      dup3\n        /* \"#utility.yul\":8026:8056   */\n      gt\n        /* \"#utility.yul\":8023:8079   */\n      iszero\n      tag_198\n      jumpi\n        /* \"#utility.yul\":8059:8077   */\n      tag_199\n      tag_196\n      jump\t// in\n    tag_199:\n        /* \"#utility.yul\":8023:8079   */\n    tag_198:\n        /* \"#utility.yul\":8097:8126   */\n      tag_200\n        /* \"#utility.yul\":8119:8125   */\n      dup3\n        /* \"#utility.yul\":8097:8126   */\n      tag_173\n      jump\t// in\n    tag_200:\n        /* \"#utility.yul\":8089:8126   */\n      swap1\n      pop\n        /* \"#utility.yul\":8181:8185   */\n      0x20\n        /* \"#utility.yul\":8175:8179   */\n      dup2\n        /* \"#utility.yul\":8171:8186   */\n      add\n        /* \"#utility.yul\":8163:8186   */\n      swap1\n      pop\n        /* \"#utility.yul\":7885:8193   */\n      swap2\n      swap1\n      pop\n      jump\t// out\n        /* \"#utility.yul\":8199:8298   */\n    tag_167:\n        /* \"#utility.yul\":8251:8257   */\n      0x00\n        /* \"#utility.yul\":8285:8290   */\n      dup2\n        /* \"#utility.yul\":8279:8291   */\n      mload\n        /* \"#utility.yul\":8269:8291   */\n      swap1\n      pop\n        /* \"#utility.yul\":8199:8298   */\n      swap2\n      swap1\n      pop\n      jump\t// out\n        /* \"#utility.yul\":8304:8473   */\n    tag_169:\n        /* \"#utility.yul\":8388:8399   */\n      0x00\n        /* \"#utility.yul\":8422:8428   */\n      dup3\n        /* \"#utility.yul\":8417:8420   */\n      dup3\n        /* \"#utility.yul\":8410:8429   */\n      mstore\n        /* \"#utility.yul\":8462:8466   */\n      0x20\n        /* \"#utility.yul\":8457:8460   */\n      dup3\n        /* \"#utility.yul\":8453:8467   */\n      add\n        /* \"#utility.yul\":8438:8467   */\n      swap1\n      pop\n        /* \"#utility.yul\":8304:8473   */\n      swap3\n      swap2\n      pop\n      pop\n      jump\t// out\n        /* \"#utility.yul\":8479:8575   */\n    tag_163:\n        /* \"#utility.yul\":8516:8523   */\n      0x00\n        /* \"#utility.yul\":8545:8569   */\n      tag_204\n        /* \"#utility.yul\":8563:8568   */\n      dup3\n        /* \"#utility.yul\":8545:8569   */\n      tag_205\n      jump\t// in\n    tag_204:\n        /* \"#utility.yul\":8534:8569   */\n      swap1\n      pop\n        /* \"#utility.yul\":8479:8575   */\n      swap2\n      swap1\n      pop\n      jump\t// out\n        /* \"#utility.yul\":8581:8707   */\n    tag_205:\n        /* \"#utility.yul\":8618:8625   */\n      0x00\n        /* \"#utility.yul\":8658:8700   */\n      0xffffffffffffffffffffffffffffffffffffffff\n        /* \"#utility.yul\":8651:8656   */\n      dup3\n        /* \"#utility.yul\":8647:8701   */\n      and\n        /* \"#utility.yul\":8636:8701   */\n      swap1\n      pop\n        /* \"#utility.yul\":8581:8707   */\n      swap2\n      swap1\n      pop\n      jump\t// out\n        /* \"#utility.yul\":8713:8790   */\n    tag_177:\n        /* \"#utility.yul\":8750:8757   */\n      0x00\n        /* \"#utility.yul\":8779:8784   */\n      dup2\n        /* \"#utility.yul\":8768:8784   */\n      swap1\n      pop\n        /* \"#utility.yul\":8713:8790   */\n      swap2\n      swap1\n      pop\n      jump\t// out\n        /* \"#utility.yul\":8796:8950   */\n    tag_116:\n        /* \"#utility.yul\":8880:8886   */\n      dup3\n        /* \"#utility.yul\":8875:8878   */\n      dup2\n        /* \"#utility.yul\":8870:8873   */\n      dup4\n        /* \"#utility.yul\":8857:8887   */\n      calldatacopy\n        /* \"#utility.yul\":8942:8943   */\n      0x00\n        /* \"#utility.yul\":8933:8939   */\n      dup4\n        /* \"#utility.yul\":8928:8931   */\n      dup4\n        /* \"#utility.yul\":8924:8940   */\n      add\n        /* \"#utility.yul\":8917:8944   */\n      mstore\n        /* \"#utility.yul\":8796:8950   */\n      pop\n      pop\n      pop\n      jump\t// out\n        /* \"#utility.yul\":8956:9263   */\n    tag_171:\n        /* \"#utility.yul\":9024:9025   */\n      0x00\n        /* \"#utility.yul\":9034:9147   */\n    tag_210:\n        /* \"#utility.yul\":9048:9054   */\n      dup4\n        /* \"#utility.yul\":9045:9046   */\n      dup2\n        /* \"#utility.yul\":9042:9055   */\n      lt\n        /* \"#utility.yul\":9034:9147   */\n      iszero\n      tag_212\n      jumpi\n        /* \"#utility.yul\":9133:9134   */\n      dup1\n        /* \"#utility.yul\":9128:9131   */\n      dup3\n        /* \"#utility.yul\":9124:9135   */\n      add\n        /* \"#utility.yul\":9118:9136   */\n      mload\n        /* \"#utility.yul\":9114:9115   */\n      dup2\n        /* \"#utility.yul\":9109:9112   */\n      dup5\n        /* \"#utility.yul\":9105:9116   */\n      add\n        /* \"#utility.yul\":9098:9137   */\n      mstore\n        /* \"#utility.yul\":9070:9072   */\n      0x20\n        /* \"#utility.yul\":9067:9068   */\n      dup2\n        /* \"#utility.yul\":9063:9073   */\n      add\n        /* \"#utility.yul\":9058:9073   */\n      swap1\n      pop\n        /* \"#utility.yul\":9034:9147   */\n      jump(tag_210)\n    tag_212:\n        /* \"#utility.yul\":9165:9171   */\n      dup4\n        /* \"#utility.yul\":9162:9163   */\n      dup2\n        /* \"#utility.yul\":9159:9172   */\n      gt\n        /* \"#utility.yul\":9156:9257   */\n      iszero\n      tag_213\n      jumpi\n        /* \"#utility.yul\":9245:9246   */\n      0x00\n        /* \"#utility.yul\":9236:9242   */\n      dup5\n        /* \"#utility.yul\":9231:9234   */\n      dup5\n        /* \"#utility.yul\":9227:9243   */\n      add\n        /* \"#utility.yul\":9220:9247   */\n      mstore\n        /* \"#utility.yul\":9156:9257   */\n    tag_213:\n        /* \"#utility.yul\":9005:9263   */\n      pop\n        /* \"#utility.yul\":8956:9263   */\n      pop\n      pop\n      pop\n      jump\t// out\n        /* \"#utility.yul\":9269:9589   */\n    tag_19:\n        /* \"#utility.yul\":9313:9319   */\n      0x00\n        /* \"#utility.yul\":9350:9351   */\n      0x02\n        /* \"#utility.yul\":9344:9348   */\n      dup3\n        /* \"#utility.yul\":9340:9352   */\n      div\n        /* \"#utility.yul\":9330:9352   */\n      swap1\n      pop\n        /* \"#utility.yul\":9397:9398   */\n      0x01\n        /* \"#utility.yul\":9391:9395   */\n      dup3\n        /* \"#utility.yul\":9387:9399   */\n      and\n        /* \"#utility.yul\":9418:9436   */\n      dup1\n        /* \"#utility.yul\":9408:9489   */\n      tag_215\n      jumpi\n        /* \"#utility.yul\":9474:9478   */\n      0x7f\n        /* \"#utility.yul\":9466:9472   */\n      dup3\n        /* \"#utility.yul\":9462:9479   */\n      and\n        /* \"#utility.yul\":9452:9479   */\n      swap2\n      pop\n        /* \"#utility.yul\":9408:9489   */\n    tag_215:\n        /* \"#utility.yul\":9536:9538   */\n      0x20\n        /* \"#utility.yul\":9528:9534   */\n      dup3\n        /* \"#utility.yul\":9525:9539   */\n      lt\n        /* \"#utility.yul\":9505:9523   */\n      dup2\n        /* \"#utility.yul\":9502:9540   */\n      eq\n        /* \"#utility.yul\":9499:9583   */\n      iszero\n      tag_216\n      jumpi\n        /* \"#utility.yul\":9555:9573   */\n      tag_217\n      tag_218\n      jump\t// in\n    tag_217:\n        /* \"#utility.yul\":9499:9583   */\n    tag_216:\n        /* \"#utility.yul\":9320:9589   */\n      pop\n        /* \"#utility.yul\":9269:9589   */\n      swap2\n      swap1\n      pop\n      jump\t// out\n        /* \"#utility.yul\":9595:9876   */\n    tag_191:\n        /* \"#utility.yul\":9678:9705   */\n      tag_220\n        /* \"#utility.yul\":9700:9704   */\n      dup3\n        /* \"#utility.yul\":9678:9705   */\n      tag_173\n      jump\t// in\n    tag_220:\n        /* \"#utility.yul\":9670:9676   */\n      dup2\n        /* \"#utility.yul\":9666:9706   */\n      add\n        /* \"#utility.yul\":9808:9814   */\n      dup2\n        /* \"#utility.yul\":9796:9806   */\n      dup2\n        /* \"#utility.yul\":9793:9815   */\n      lt\n        /* \"#utility.yul\":9772:9790   */\n      0xffffffffffffffff\n        /* \"#utility.yul\":9760:9770   */\n      dup3\n        /* \"#utility.yul\":9757:9791   */\n      gt\n        /* \"#utility.yul\":9754:9816   */\n      or\n        /* \"#utility.yul\":9751:9839   */\n      iszero\n      tag_221\n      jumpi\n        /* \"#utility.yul\":9819:9837   */\n      tag_222\n      tag_196\n      jump\t// in\n    tag_222:\n        /* \"#utility.yul\":9751:9839   */\n    tag_221:\n        /* \"#utility.yul\":9859:9869   */\n      dup1\n        /* \"#utility.yul\":9855:9857   */\n      0x40\n        /* \"#utility.yul\":9848:9870   */\n      mstore\n        /* \"#utility.yul\":9638:9876   */\n      pop\n        /* \"#utility.yul\":9595:9876   */\n      pop\n      pop\n      jump\t// out\n        /* \"#utility.yul\":9882:10062   */\n    tag_218:\n        /* \"#utility.yul\":9930:10007   */\n      0x4e487b7100000000000000000000000000000000000000000000000000000000\n        /* \"#utility.yul\":9927:9928   */\n      0x00\n        /* \"#utility.yul\":9920:10008   */\n      mstore\n        /* \"#utility.yul\":10027:10031   */\n      0x22\n        /* \"#utility.yul\":10024:10025   */\n      0x04\n        /* \"#utility.yul\":10017:10032   */\n      mstore\n        /* \"#utility.yul\":10051:10055   */\n      0x24\n        /* \"#utility.yul\":10048:10049   */\n      0x00\n        /* \"#utility.yul\":10041:10056   */\n      revert\n        /* \"#utility.yul\":10068:10248   */\n    tag_196:\n        /* \"#utility.yul\":10116:10193   */\n      0x4e487b7100000000000000000000000000000000000000000000000000000000\n        /* \"#utility.yul\":10113:10114   */\n      0x00\n        /* \"#utility.yul\":10106:10194   */\n      mstore\n        /* \"#utility.yul\":10213:10217   */\n      0x41\n        /* \"#utility.yul\":10210:10211   */\n      0x04\n        /* \"#utility.yul\":10203:10218   */\n      mstore\n        /* \"#utility.yul\":10237:10241   */\n      0x24\n        /* \"#utility.yul\":10234:10235   */\n      0x00\n        /* \"#utility.yul\":10227:10242   */\n      revert\n        /* \"#utility.yul\":10254:10371   */\n    tag_104:\n        /* \"#utility.yul\":10363:10364   */\n      0x00\n        /* \"#utility.yul\":10360:10361   */\n      dup1\n        /* \"#utility.yul\":10353:10365   */\n      revert\n        /* \"#utility.yul\":10377:10494   */\n    tag_98:\n        /* \"#utility.yul\":10486:10487   */\n      0x00\n        /* \"#utility.yul\":10483:10484   */\n      dup1\n        /* \"#utility.yul\":10476:10488   */\n      revert\n        /* \"#utility.yul\":10500:10617   */\n    tag_114:\n        /* \"#utility.yul\":10609:10610   */\n      0x00\n        /* \"#utility.yul\":10606:10607   */\n      dup1\n        /* \"#utility.yul\":10599:10611   */\n      revert\n        /* \"#utility.yul\":10623:10740   */\n    tag_140:\n        /* \"#utility.yul\":10732:10733   */\n      0x00\n        /* \"#utility.yul\":10729:10730   */\n      dup1\n        /* \"#utility.yul\":10722:10734   */\n      revert\n        /* \"#utility.yul\":10746:10863   */\n    tag_133:\n        /* \"#utility.yul\":10855:10856   */\n      0x00\n        /* \"#utility.yul\":10852:10853   */\n      dup1\n        /* \"#utility.yul\":10845:10857   */\n      revert\n        /* \"#utility.yul\":10869:10971   */\n    tag_173:\n        /* \"#utility.yul\":10910:10916   */\n      0x00\n        /* \"#utility.yul\":10961:10963   */\n      0x1f\n        /* \"#utility.yul\":10957:10964   */\n      not\n        /* \"#utility.yul\":10952:10954   */\n      0x1f\n        /* \"#utility.yul\":10945:10950   */\n      dup4\n        /* \"#utility.yul\":10941:10955   */\n      add\n        /* \"#utility.yul\":10937:10965   */\n      and\n        /* \"#utility.yul\":10927:10965   */\n      swap1\n      pop\n        /* \"#utility.yul\":10869:10971   */\n      swap2\n      swap1\n      pop\n      jump\t// out\n        /* \"#utility.yul\":10977:11099   */\n    tag_120:\n        /* \"#utility.yul\":11050:11074   */\n      tag_232\n        /* \"#utility.yul\":11068:11073   */\n      dup2\n        /* \"#utility.yul\":11050:11074   */\n      tag_163\n      jump\t// in\n    tag_232:\n        /* \"#utility.yul\":11043:11048   */\n      dup2\n        /* \"#utility.yul\":11040:11075   */\n      eq\n        /* \"#utility.yul\":11030:11093   */\n      tag_233\n      jumpi\n        /* \"#utility.yul\":11089:11090   */\n      0x00\n        /* \"#utility.yul\":11086:11087   */\n      dup1\n        /* \"#utility.yul\":11079:11091   */\n      revert\n        /* \"#utility.yul\":11030:11093   */\n    tag_233:\n        /* \"#utility.yul\":10977:11099   */\n      pop\n      jump\t// out\n\n    auxdata: 0xa26469706673582212200950b0c1f8d7352c46d1d93c3c2b38a95de6b0e984c9d4b852af1020cec365ff64736f6c63430008070033\n}\n",
				"bytecode": {
					"linkReferences": {},
					"object": "608060405234801561001057600080fd5b50610f5f806100206000396000f3fe608060405234801561001057600080fd5b50600436106100415760003560e01c80639dd9d0fd146100465780639e46df9a1461007d578063fabce08f14610099575b600080fd5b610060600480360381019061005b9190610a79565b6100a3565b604051610074989796959493929190610c63565b60405180910390f35b61009760048036038101906100929190610aa6565b61043b565b005b6100a161070e565b005b60006020528060005260406000206000915090508060000180546100c690610e27565b80601f01602080910402602001604051908101604052809291908181526020018280546100f290610e27565b801561013f5780601f106101145761010080835404028352916020019161013f565b820191906000526020600020905b81548152906001019060200180831161012257829003601f168201915b50505050509080600101805461015490610e27565b80601f016020809104026020016040519081016040528092919081815260200182805461018090610e27565b80156101cd5780601f106101a2576101008083540402835291602001916101cd565b820191906000526020600020905b8154815290600101906020018083116101b057829003601f168201915b5050505050908060020180546101e290610e27565b80601f016020809104026020016040519081016040528092919081815260200182805461020e90610e27565b801561025b5780601f106102305761010080835404028352916020019161025b565b820191906000526020600020905b81548152906001019060200180831161023e57829003601f168201915b50505050509080600301805461027090610e27565b80601f016020809104026020016040519081016040528092919081815260200182805461029c90610e27565b80156102e95780601f106102be576101008083540402835291602001916102e9565b820191906000526020600020905b8154815290600101906020018083116102cc57829003601f168201915b5050505050908060040180546102fe90610e27565b80601f016020809104026020016040519081016040528092919081815260200182805461032a90610e27565b80156103775780601f1061034c57610100808354040283529160200191610377565b820191906000526020600020905b81548152906001019060200180831161035a57829003601f168201915b50505050509080600501805461038c90610e27565b80601f01602080910402602001604051908101604052809291908181526020018280546103b890610e27565b80156104055780601f106103da57610100808354040283529160200191610405565b820191906000526020600020905b8154815290600101906020018083116103e857829003601f168201915b5050505050908060060160009054906101000a900473ffffffffffffffffffffffffffffffffffffffff16908060070154905088565b866000803373ffffffffffffffffffffffffffffffffffffffff1673ffffffffffffffffffffffffffffffffffffffff1681526020019081526020016000206000019080519060200190610490929190610810565b50856000803373ffffffffffffffffffffffffffffffffffffffff1673ffffffffffffffffffffffffffffffffffffffff16815260200190815260200160002060010190805190602001906104e6929190610810565b50846000803373ffffffffffffffffffffffffffffffffffffffff1673ffffffffffffffffffffffffffffffffffffffff168152602001908152602001600020600201908051906020019061053c929190610810565b50836000803373ffffffffffffffffffffffffffffffffffffffff1673ffffffffffffffffffffffffffffffffffffffff1681526020019081526020016000206003019080519060200190610592929190610810565b50826000803373ffffffffffffffffffffffffffffffffffffffff1673ffffffffffffffffffffffffffffffffffffffff16815260200190815260200160002060040190805190602001906105e8929190610810565b50816000803373ffffffffffffffffffffffffffffffffffffffff1673ffffffffffffffffffffffffffffffffffffffff168152602001908152602001600020600501908051906020019061063e929190610810565b50336000803373ffffffffffffffffffffffffffffffffffffffff1673ffffffffffffffffffffffffffffffffffffffff16815260200190815260200160002060060160006101000a81548173ffffffffffffffffffffffffffffffffffffffff021916908373ffffffffffffffffffffffffffffffffffffffff160217905550426000803373ffffffffffffffffffffffffffffffffffffffff1673ffffffffffffffffffffffffffffffffffffffff1681526020019081526020016000206007018190555050505050505050565b6000803373ffffffffffffffffffffffffffffffffffffffff1673ffffffffffffffffffffffffffffffffffffffff1681526020019081526020016000206000808201600061075d9190610896565b60018201600061076d9190610896565b60028201600061077d9190610896565b60038201600061078d9190610896565b60048201600061079d9190610896565b6005820160006107ad9190610896565b6006820160006101000a81549073ffffffffffffffffffffffffffffffffffffffff021916905560078201600090556008820160006107ec91906108d6565b6009820160006107fc91906108d6565b600a8201600061080c91906108d6565b5050565b82805461081c90610e27565b90600052602060002090601f01602090048101928261083e5760008555610885565b82601f1061085757805160ff1916838001178555610885565b82800160010185558215610885579182015b82811115610884578251825591602001919060010190610869565b5b50905061089291906108f7565b5090565b5080546108a290610e27565b6000825580601f106108b457506108d3565b601f0160209004906000526020600020908101906108d291906108f7565b5b50565b50805460008255906000526020600020908101906108f49190610914565b50565b5b808211156109105760008160009055506001016108f8565b5090565b5b80821115610934576000818161092b9190610896565b50600101610915565b5090565b600061094b61094684610d30565b610d0b565b9050808382526020820190508285602086028201111561096e5761096d610eed565b5b60005b858110156109bc57813567ffffffffffffffff81111561099457610993610ee8565b5b8086016109a18982610a4b565b85526020850194506020840193505050600181019050610971565b5050509392505050565b60006109d96109d484610d5c565b610d0b565b9050828152602081018484840111156109f5576109f4610ef2565b5b610a00848285610de5565b509392505050565b600081359050610a1781610f12565b92915050565b600082601f830112610a3257610a31610ee8565b5b8135610a42848260208601610938565b91505092915050565b600082601f830112610a6057610a5f610ee8565b5b8135610a708482602086016109c6565b91505092915050565b600060208284031215610a8f57610a8e610efc565b5b6000610a9d84828501610a08565b91505092915050565b600080600080600080600060e0888a031215610ac557610ac4610efc565b5b600088013567ffffffffffffffff811115610ae357610ae2610ef7565b5b610aef8a828b01610a4b565b975050602088013567ffffffffffffffff811115610b1057610b0f610ef7565b5b610b1c8a828b01610a4b565b965050604088013567ffffffffffffffff811115610b3d57610b3c610ef7565b5b610b498a828b01610a4b565b955050606088013567ffffffffffffffff811115610b6a57610b69610ef7565b5b610b768a828b01610a4b565b945050608088013567ffffffffffffffff811115610b9757610b96610ef7565b5b610ba38a828b01610a4b565b93505060a088013567ffffffffffffffff811115610bc457610bc3610ef7565b5b610bd08a828b01610a4b565b92505060c088013567ffffffffffffffff811115610bf157610bf0610ef7565b5b610bfd8a828b01610a1d565b91505092959891949750929550565b610c1581610da9565b82525050565b6000610c2682610d8d565b610c308185610d98565b9350610c40818560208601610df4565b610c4981610f01565b840191505092915050565b610c5d81610ddb565b82525050565b6000610100820190508181036000830152610c7e818b610c1b565b90508181036020830152610c92818a610c1b565b90508181036040830152610ca68189610c1b565b90508181036060830152610cba8188610c1b565b90508181036080830152610cce8187610c1b565b905081810360a0830152610ce28186610c1b565b9050610cf160c0830185610c0c565b610cfe60e0830184610c54565b9998505050505050505050565b6000610d15610d26565b9050610d218282610e59565b919050565b6000604051905090565b600067ffffffffffffffff821115610d4b57610d4a610eb9565b5b602082029050602081019050919050565b600067ffffffffffffffff821115610d7757610d76610eb9565b5b610d8082610f01565b9050602081019050919050565b600081519050919050565b600082825260208201905092915050565b6000610db482610dbb565b9050919050565b600073ffffffffffffffffffffffffffffffffffffffff82169050919050565b6000819050919050565b82818337600083830152505050565b60005b83811015610e12578082015181840152602081019050610df7565b83811115610e21576000848401525b50505050565b60006002820490506001821680610e3f57607f821691505b60208210811415610e5357610e52610e8a565b5b50919050565b610e6282610f01565b810181811067ffffffffffffffff82111715610e8157610e80610eb9565b5b80604052505050565b7f4e487b7100000000000000000000000000000000000000000000000000000000600052602260045260246000fd5b7f4e487b7100000000000000000000000000000000000000000000000000000000600052604160045260246000fd5b600080fd5b600080fd5b600080fd5b600080fd5b600080fd5b6000601f19601f8301169050919050565b610f1b81610da9565b8114610f2657600080fd5b5056fea26469706673582212200950b0c1f8d7352c46d1d93c3c2b38a95de6b0e984c9d4b852af1020cec365ff64736f6c63430008070033",
					"opcodes": "PUSH1 0x80 PUSH1 0x40 MSTORE CALLVALUE DUP1 ISZERO PUSH2 0x10 JUMPI PUSH1 0x0 DUP1 REVERT JUMPDEST POP PUSH2 0xF5F DUP1 PUSH2 0x20 PUSH1 0x0 CODECOPY PUSH1 0x0 RETURN INVALID PUSH1 0x80 PUSH1 0x40 MSTORE CALLVALUE DUP1 ISZERO PUSH2 0x10 JUMPI PUSH1 0x0 DUP1 REVERT JUMPDEST POP PUSH1 0x4 CALLDATASIZE LT PUSH2 0x41 JUMPI PUSH1 0x0 CALLDATALOAD PUSH1 0xE0 SHR DUP1 PUSH4 0x9DD9D0FD EQ PUSH2 0x46 JUMPI DUP1 PUSH4 0x9E46DF9A EQ PUSH2 0x7D JUMPI DUP1 PUSH4 0xFABCE08F EQ PUSH2 0x99 JUMPI JUMPDEST PUSH1 0x0 DUP1 REVERT JUMPDEST PUSH2 0x60 PUSH1 0x4 DUP1 CALLDATASIZE SUB DUP2 ADD SWAP1 PUSH2 0x5B SWAP2 SWAP1 PUSH2 0xA79 JUMP JUMPDEST PUSH2 0xA3 JUMP JUMPDEST PUSH1 0x40 MLOAD PUSH2 0x74 SWAP9 SWAP8 SWAP7 SWAP6 SWAP5 SWAP4 SWAP3 SWAP2 SWAP1 PUSH2 0xC63 JUMP JUMPDEST PUSH1 0x40 MLOAD DUP1 SWAP2 SUB SWAP1 RETURN JUMPDEST PUSH2 0x97 PUSH1 0x4 DUP1 CALLDATASIZE SUB DUP2 ADD SWAP1 PUSH2 0x92 SWAP2 SWAP1 PUSH2 0xAA6 JUMP JUMPDEST PUSH2 0x43B JUMP JUMPDEST STOP JUMPDEST PUSH2 0xA1 PUSH2 0x70E JUMP JUMPDEST STOP JUMPDEST PUSH1 0x0 PUSH1 0x20 MSTORE DUP1 PUSH1 0x0 MSTORE PUSH1 0x40 PUSH1 0x0 KECCAK256 PUSH1 0x0 SWAP2 POP SWAP1 POP DUP1 PUSH1 0x0 ADD DUP1 SLOAD PUSH2 0xC6 SWAP1 PUSH2 0xE27 JUMP JUMPDEST DUP1 PUSH1 0x1F ADD PUSH1 0x20 DUP1 SWAP2 DIV MUL PUSH1 0x20 ADD PUSH1 0x40 MLOAD SWAP1 DUP2 ADD PUSH1 0x40 MSTORE DUP1 SWAP3 SWAP2 SWAP1 DUP2 DUP2 MSTORE PUSH1 0x20 ADD DUP3 DUP1 SLOAD PUSH2 0xF2 SWAP1 PUSH2 0xE27 JUMP JUMPDEST DUP1 ISZERO PUSH2 0x13F JUMPI DUP1 PUSH1 0x1F LT PUSH2 0x114 JUMPI PUSH2 0x100 DUP1 DUP4 SLOAD DIV MUL DUP4 MSTORE SWAP2 PUSH1 0x20 ADD SWAP2 PUSH2 0x13F JUMP JUMPDEST DUP3 ADD SWAP2 SWAP1 PUSH1 0x0 MSTORE PUSH1 0x20 PUSH1 0x0 KECCAK256 SWAP1 JUMPDEST DUP2 SLOAD DUP2 MSTORE SWAP1 PUSH1 0x1 ADD SWAP1 PUSH1 0x20 ADD DUP1 DUP4 GT PUSH2 0x122 JUMPI DUP3 SWAP1 SUB PUSH1 0x1F AND DUP3 ADD SWAP2 JUMPDEST POP POP POP POP POP SWAP1 DUP1 PUSH1 0x1 ADD DUP1 SLOAD PUSH2 0x154 SWAP1 PUSH2 0xE27 JUMP JUMPDEST DUP1 PUSH1 0x1F ADD PUSH1 0x20 DUP1 SWAP2 DIV MUL PUSH1 0x20 ADD PUSH1 0x40 MLOAD SWAP1 DUP2 ADD PUSH1 0x40 MSTORE DUP1 SWAP3 SWAP2 SWAP1 DUP2 DUP2 MSTORE PUSH1 0x20 ADD DUP3 DUP1 SLOAD PUSH2 0x180 SWAP1 PUSH2 0xE27 JUMP JUMPDEST DUP1 ISZERO PUSH2 0x1CD JUMPI DUP1 PUSH1 0x1F LT PUSH2 0x1A2 JUMPI PUSH2 0x100 DUP1 DUP4 SLOAD DIV MUL DUP4 MSTORE SWAP2 PUSH1 0x20 ADD SWAP2 PUSH2 0x1CD JUMP JUMPDEST DUP3 ADD SWAP2 SWAP1 PUSH1 0x0 MSTORE PUSH1 0x20 PUSH1 0x0 KECCAK256 SWAP1 JUMPDEST DUP2 SLOAD DUP2 MSTORE SWAP1 PUSH1 0x1 ADD SWAP1 PUSH1 0x20 ADD DUP1 DUP4 GT PUSH2 0x1B0 JUMPI DUP3 SWAP1 SUB PUSH1 0x1F AND DUP3 ADD SWAP2 JUMPDEST POP POP POP POP POP SWAP1 DUP1 PUSH1 0x2 ADD DUP1 SLOAD PUSH2 0x1E2 SWAP1 PUSH2 0xE27 JUMP JUMPDEST DUP1 PUSH1 0x1F ADD PUSH1 0x20 DUP1 SWAP2 DIV MUL PUSH1 0x20 ADD PUSH1 0x40 MLOAD SWAP1 DUP2 ADD PUSH1 0x40 MSTORE DUP1 SWAP3 SWAP2 SWAP1 DUP2 DUP2 MSTORE PUSH1 0x20 ADD DUP3 DUP1 SLOAD PUSH2 0x20E SWAP1 PUSH2 0xE27 JUMP JUMPDEST DUP1 ISZERO PUSH2 0x25B JUMPI DUP1 PUSH1 0x1F LT PUSH2 0x230 JUMPI PUSH2 0x100 DUP1 DUP4 SLOAD DIV MUL DUP4 MSTORE SWAP2 PUSH1 0x20 ADD SWAP2 PUSH2 0x25B JUMP JUMPDEST DUP3 ADD SWAP2 SWAP1 PUSH1 0x0 MSTORE PUSH1 0x20 PUSH1 0x0 KECCAK256 SWAP1 JUMPDEST DUP2 SLOAD DUP2 MSTORE SWAP1 PUSH1 0x1 ADD SWAP1 PUSH1 0x20 ADD DUP1 DUP4 GT PUSH2 0x23E JUMPI DUP3 SWAP1 SUB PUSH1 0x1F AND DUP3 ADD SWAP2 JUMPDEST POP POP POP POP POP SWAP1 DUP1 PUSH1 0x3 ADD DUP1 SLOAD PUSH2 0x270 SWAP1 PUSH2 0xE27 JUMP JUMPDEST DUP1 PUSH1 0x1F ADD PUSH1 0x20 DUP1 SWAP2 DIV MUL PUSH1 0x20 ADD PUSH1 0x40 MLOAD SWAP1 DUP2 ADD PUSH1 0x40 MSTORE DUP1 SWAP3 SWAP2 SWAP1 DUP2 DUP2 MSTORE PUSH1 0x20 ADD DUP3 DUP1 SLOAD PUSH2 0x29C SWAP1 PUSH2 0xE27 JUMP JUMPDEST DUP1 ISZERO PUSH2 0x2E9 JUMPI DUP1 PUSH1 0x1F LT PUSH2 0x2BE JUMPI PUSH2 0x100 DUP1 DUP4 SLOAD DIV MUL DUP4 MSTORE SWAP2 PUSH1 0x20 ADD SWAP2 PUSH2 0x2E9 JUMP JUMPDEST DUP3 ADD SWAP2 SWAP1 PUSH1 0x0 MSTORE PUSH1 0x20 PUSH1 0x0 KECCAK256 SWAP1 JUMPDEST DUP2 SLOAD DUP2 MSTORE SWAP1 PUSH1 0x1 ADD SWAP1 PUSH1 0x20 ADD DUP1 DUP4 GT PUSH2 0x2CC JUMPI DUP3 SWAP1 SUB PUSH1 0x1F AND DUP3 ADD SWAP2 JUMPDEST POP POP POP POP POP SWAP1 DUP1 PUSH1 0x4 ADD DUP1 SLOAD PUSH2 0x2FE SWAP1 PUSH2 0xE27 JUMP JUMPDEST DUP1 PUSH1 0x1F ADD PUSH1 0x20 DUP1 SWAP2 DIV MUL PUSH1 0x20 ADD PUSH1 0x40 MLOAD SWAP1 DUP2 ADD PUSH1 0x40 MSTORE DUP1 SWAP3 SWAP2 SWAP1 DUP2 DUP2 MSTORE PUSH1 0x20 ADD DUP3 DUP1 SLOAD PUSH2 0x32A SWAP1 PUSH2 0xE27 JUMP JUMPDEST DUP1 ISZERO PUSH2 0x377 JUMPI DUP1 PUSH1 0x1F LT PUSH2 0x34C JUMPI PUSH2 0x100 DUP1 DUP4 SLOAD DIV MUL DUP4 MSTORE SWAP2 PUSH1 0x20 ADD SWAP2 PUSH2 0x377 JUMP JUMPDEST DUP3 ADD SWAP2 SWAP1 PUSH1 0x0 MSTORE PUSH1 0x20 PUSH1 0x0 KECCAK256 SWAP1 JUMPDEST DUP2 SLOAD DUP2 MSTORE SWAP1 PUSH1 0x1 ADD SWAP1 PUSH1 0x20 ADD DUP1 DUP4 GT PUSH2 0x35A JUMPI DUP3 SWAP1 SUB PUSH1 0x1F AND DUP3 ADD SWAP2 JUMPDEST POP POP POP POP POP SWAP1 DUP1 PUSH1 0x5 ADD DUP1 SLOAD PUSH2 0x38C SWAP1 PUSH2 0xE27 JUMP JUMPDEST DUP1 PUSH1 0x1F ADD PUSH1 0x20 DUP1 SWAP2 DIV MUL PUSH1 0x20 ADD PUSH1 0x40 MLOAD SWAP1 DUP2 ADD PUSH1 0x40 MSTORE DUP1 SWAP3 SWAP2 SWAP1 DUP2 DUP2 MSTORE PUSH1 0x20 ADD DUP3 DUP1 SLOAD PUSH2 0x3B8 SWAP1 PUSH2 0xE27 JUMP JUMPDEST DUP1 ISZERO PUSH2 0x405 JUMPI DUP1 PUSH1 0x1F LT PUSH2 0x3DA JUMPI PUSH2 0x100 DUP1 DUP4 SLOAD DIV MUL DUP4 MSTORE SWAP2 PUSH1 0x20 ADD SWAP2 PUSH2 0x405 JUMP JUMPDEST DUP3 ADD SWAP2 SWAP1 PUSH1 0x0 MSTORE PUSH1 0x20 PUSH1 0x0 KECCAK256 SWAP1 JUMPDEST DUP2 SLOAD DUP2 MSTORE SWAP1 PUSH1 0x1 ADD SWAP1 PUSH1 0x20 ADD DUP1 DUP4 GT PUSH2 0x3E8 JUMPI DUP3 SWAP1 SUB PUSH1 0x1F AND DUP3 ADD SWAP2 JUMPDEST POP POP POP POP POP SWAP1 DUP1 PUSH1 0x6 ADD PUSH1 0x0 SWAP1 SLOAD SWAP1 PUSH2 0x100 EXP SWAP1 DIV PUSH20 0xFFFFFFFFFFFFFFFFFFFFFFFFFFFFFFFFFFFFFFFF AND SWAP1 DUP1 PUSH1 0x7 ADD SLOAD SWAP1 POP DUP9 JUMP JUMPDEST DUP7 PUSH1 0x0 DUP1 CALLER PUSH20 0xFFFFFFFFFFFFFFFFFFFFFFFFFFFFFFFFFFFFFFFF AND PUSH20 0xFFFFFFFFFFFFFFFFFFFFFFFFFFFFFFFFFFFFFFFF AND DUP2 MSTORE PUSH1 0x20 ADD SWAP1 DUP2 MSTORE PUSH1 0x20 ADD PUSH1 0x0 KECCAK256 PUSH1 0x0 ADD SWAP1 DUP1 MLOAD SWAP1 PUSH1 0x20 ADD SWAP1 PUSH2 0x490 SWAP3 SWAP2 SWAP1 PUSH2 0x810 JUMP JUMPDEST POP DUP6 PUSH1 0x0 DUP1 CALLER PUSH20 0xFFFFFFFFFFFFFFFFFFFFFFFFFFFFFFFFFFFFFFFF AND PUSH20 0xFFFFFFFFFFFFFFFFFFFFFFFFFFFFFFFFFFFFFFFF AND DUP2 MSTORE PUSH1 0x20 ADD SWAP1 DUP2 MSTORE PUSH1 0x20 ADD PUSH1 0x0 KECCAK256 PUSH1 0x1 ADD SWAP1 DUP1 MLOAD SWAP1 PUSH1 0x20 ADD SWAP1 PUSH2 0x4E6 SWAP3 SWAP2 SWAP1 PUSH2 0x810 JUMP JUMPDEST POP DUP5 PUSH1 0x0 DUP1 CALLER PUSH20 0xFFFFFFFFFFFFFFFFFFFFFFFFFFFFFFFFFFFFFFFF AND PUSH20 0xFFFFFFFFFFFFFFFFFFFFFFFFFFFFFFFFFFFFFFFF AND DUP2 MSTORE PUSH1 0x20 ADD SWAP1 DUP2 MSTORE PUSH1 0x20 ADD PUSH1 0x0 KECCAK256 PUSH1 0x2 ADD SWAP1 DUP1 MLOAD SWAP1 PUSH1 0x20 ADD SWAP1 PUSH2 0x53C SWAP3 SWAP2 SWAP1 PUSH2 0x810 JUMP JUMPDEST POP DUP4 PUSH1 0x0 DUP1 CALLER PUSH20 0xFFFFFFFFFFFFFFFFFFFFFFFFFFFFFFFFFFFFFFFF AND PUSH20 0xFFFFFFFFFFFFFFFFFFFFFFFFFFFFFFFFFFFFFFFF AND DUP2 MSTORE PUSH1 0x20 ADD SWAP1 DUP2 MSTORE PUSH1 0x20 ADD PUSH1 0x0 KECCAK256 PUSH1 0x3 ADD SWAP1 DUP1 MLOAD SWAP1 PUSH1 0x20 ADD SWAP1 PUSH2 0x592 SWAP3 SWAP2 SWAP1 PUSH2 0x810 JUMP JUMPDEST POP DUP3 PUSH1 0x0 DUP1 CALLER PUSH20 0xFFFFFFFFFFFFFFFFFFFFFFFFFFFFFFFFFFFFFFFF AND PUSH20 0xFFFFFFFFFFFFFFFFFFFFFFFFFFFFFFFFFFFFFFFF AND DUP2 MSTORE PUSH1 0x20 ADD SWAP1 DUP2 MSTORE PUSH1 0x20 ADD PUSH1 0x0 KECCAK256 PUSH1 0x4 ADD SWAP1 DUP1 MLOAD SWAP1 PUSH1 0x20 ADD SWAP1 PUSH2 0x5E8 SWAP3 SWAP2 SWAP1 PUSH2 0x810 JUMP JUMPDEST POP DUP2 PUSH1 0x0 DUP1 CALLER PUSH20 0xFFFFFFFFFFFFFFFFFFFFFFFFFFFFFFFFFFFFFFFF AND PUSH20 0xFFFFFFFFFFFFFFFFFFFFFFFFFFFFFFFFFFFFFFFF AND DUP2 MSTORE PUSH1 0x20 ADD SWAP1 DUP2 MSTORE PUSH1 0x20 ADD PUSH1 0x0 KECCAK256 PUSH1 0x5 ADD SWAP1 DUP1 MLOAD SWAP1 PUSH1 0x20 ADD SWAP1 PUSH2 0x63E SWAP3 SWAP2 SWAP1 PUSH2 0x810 JUMP JUMPDEST POP CALLER PUSH1 0x0 DUP1 CALLER PUSH20 0xFFFFFFFFFFFFFFFFFFFFFFFFFFFFFFFFFFFFFFFF AND PUSH20 0xFFFFFFFFFFFFFFFFFFFFFFFFFFFFFFFFFFFFFFFF AND DUP2 MSTORE PUSH1 0x20 ADD SWAP1 DUP2 MSTORE PUSH1 0x20 ADD PUSH1 0x0 KECCAK256 PUSH1 0x6 ADD PUSH1 0x0 PUSH2 0x100 EXP DUP2 SLOAD DUP2 PUSH20 0xFFFFFFFFFFFFFFFFFFFFFFFFFFFFFFFFFFFFFFFF MUL NOT AND SWAP1 DUP4 PUSH20 0xFFFFFFFFFFFFFFFFFFFFFFFFFFFFFFFFFFFFFFFF AND MUL OR SWAP1 SSTORE POP TIMESTAMP PUSH1 0x0 DUP1 CALLER PUSH20 0xFFFFFFFFFFFFFFFFFFFFFFFFFFFFFFFFFFFFFFFF AND PUSH20 0xFFFFFFFFFFFFFFFFFFFFFFFFFFFFFFFFFFFFFFFF AND DUP2 MSTORE PUSH1 0x20 ADD SWAP1 DUP2 MSTORE PUSH1 0x20 ADD PUSH1 0x0 KECCAK256 PUSH1 0x7 ADD DUP2 SWAP1 SSTORE POP POP POP POP POP POP POP POP JUMP JUMPDEST PUSH1 0x0 DUP1 CALLER PUSH20 0xFFFFFFFFFFFFFFFFFFFFFFFFFFFFFFFFFFFFFFFF AND PUSH20 0xFFFFFFFFFFFFFFFFFFFFFFFFFFFFFFFFFFFFFFFF AND DUP2 MSTORE PUSH1 0x20 ADD SWAP1 DUP2 MSTORE PUSH1 0x20 ADD PUSH1 0x0 KECCAK256 PUSH1 0x0 DUP1 DUP3 ADD PUSH1 0x0 PUSH2 0x75D SWAP2 SWAP1 PUSH2 0x896 JUMP JUMPDEST PUSH1 0x1 DUP3 ADD PUSH1 0x0 PUSH2 0x76D SWAP2 SWAP1 PUSH2 0x896 JUMP JUMPDEST PUSH1 0x2 DUP3 ADD PUSH1 0x0 PUSH2 0x77D SWAP2 SWAP1 PUSH2 0x896 JUMP JUMPDEST PUSH1 0x3 DUP3 ADD PUSH1 0x0 PUSH2 0x78D SWAP2 SWAP1 PUSH2 0x896 JUMP JUMPDEST PUSH1 0x4 DUP3 ADD PUSH1 0x0 PUSH2 0x79D SWAP2 SWAP1 PUSH2 0x896 JUMP JUMPDEST PUSH1 0x5 DUP3 ADD PUSH1 0x0 PUSH2 0x7AD SWAP2 SWAP1 PUSH2 0x896 JUMP JUMPDEST PUSH1 0x6 DUP3 ADD PUSH1 0x0 PUSH2 0x100 EXP DUP2 SLOAD SWAP1 PUSH20 0xFFFFFFFFFFFFFFFFFFFFFFFFFFFFFFFFFFFFFFFF MUL NOT AND SWAP1 SSTORE PUSH1 0x7 DUP3 ADD PUSH1 0x0 SWAP1 SSTORE PUSH1 0x8 DUP3 ADD PUSH1 0x0 PUSH2 0x7EC SWAP2 SWAP1 PUSH2 0x8D6 JUMP JUMPDEST PUSH1 0x9 DUP3 ADD PUSH1 0x0 PUSH2 0x7FC SWAP2 SWAP1 PUSH2 0x8D6 JUMP JUMPDEST PUSH1 0xA DUP3 ADD PUSH1 0x0 PUSH2 0x80C SWAP2 SWAP1 PUSH2 0x8D6 JUMP JUMPDEST POP POP JUMP JUMPDEST DUP3 DUP1 SLOAD PUSH2 0x81C SWAP1 PUSH2 0xE27 JUMP JUMPDEST SWAP1 PUSH1 0x0 MSTORE PUSH1 0x20 PUSH1 0x0 KECCAK256 SWAP1 PUSH1 0x1F ADD PUSH1 0x20 SWAP1 DIV DUP2 ADD SWAP3 DUP3 PUSH2 0x83E JUMPI PUSH1 0x0 DUP6 SSTORE PUSH2 0x885 JUMP JUMPDEST DUP3 PUSH1 0x1F LT PUSH2 0x857 JUMPI DUP1 MLOAD PUSH1 0xFF NOT AND DUP4 DUP1 ADD OR DUP6 SSTORE PUSH2 0x885 JUMP JUMPDEST DUP3 DUP1 ADD PUSH1 0x1 ADD DUP6 SSTORE DUP3 ISZERO PUSH2 0x885 JUMPI SWAP2 DUP3 ADD JUMPDEST DUP3 DUP2 GT ISZERO PUSH2 0x884 JUMPI DUP3 MLOAD DUP3 SSTORE SWAP2 PUSH1 0x20 ADD SWAP2 SWAP1 PUSH1 0x1 ADD SWAP1 PUSH2 0x869 JUMP JUMPDEST JUMPDEST POP SWAP1 POP PUSH2 0x892 SWAP2 SWAP1 PUSH2 0x8F7 JUMP JUMPDEST POP SWAP1 JUMP JUMPDEST POP DUP1 SLOAD PUSH2 0x8A2 SWAP1 PUSH2 0xE27 JUMP JUMPDEST PUSH1 0x0 DUP3 SSTORE DUP1 PUSH1 0x1F LT PUSH2 0x8B4 JUMPI POP PUSH2 0x8D3 JUMP JUMPDEST PUSH1 0x1F ADD PUSH1 0x20 SWAP1 DIV SWAP1 PUSH1 0x0 MSTORE PUSH1 0x20 PUSH1 0x0 KECCAK256 SWAP1 DUP2 ADD SWAP1 PUSH2 0x8D2 SWAP2 SWAP1 PUSH2 0x8F7 JUMP JUMPDEST JUMPDEST POP JUMP JUMPDEST POP DUP1 SLOAD PUSH1 0x0 DUP3 SSTORE SWAP1 PUSH1 0x0 MSTORE PUSH1 0x20 PUSH1 0x0 KECCAK256 SWAP1 DUP2 ADD SWAP1 PUSH2 0x8F4 SWAP2 SWAP1 PUSH2 0x914 JUMP JUMPDEST POP JUMP JUMPDEST JUMPDEST DUP1 DUP3 GT ISZERO PUSH2 0x910 JUMPI PUSH1 0x0 DUP2 PUSH1 0x0 SWAP1 SSTORE POP PUSH1 0x1 ADD PUSH2 0x8F8 JUMP JUMPDEST POP SWAP1 JUMP JUMPDEST JUMPDEST DUP1 DUP3 GT ISZERO PUSH2 0x934 JUMPI PUSH1 0x0 DUP2 DUP2 PUSH2 0x92B SWAP2 SWAP1 PUSH2 0x896 JUMP JUMPDEST POP PUSH1 0x1 ADD PUSH2 0x915 JUMP JUMPDEST POP SWAP1 JUMP JUMPDEST PUSH1 0x0 PUSH2 0x94B PUSH2 0x946 DUP5 PUSH2 0xD30 JUMP JUMPDEST PUSH2 0xD0B JUMP JUMPDEST SWAP1 POP DUP1 DUP4 DUP3 MSTORE PUSH1 0x20 DUP3 ADD SWAP1 POP DUP3 DUP6 PUSH1 0x20 DUP7 MUL DUP3 ADD GT ISZERO PUSH2 0x96E JUMPI PUSH2 0x96D PUSH2 0xEED JUMP JUMPDEST JUMPDEST PUSH1 0x0 JUMPDEST DUP6 DUP2 LT ISZERO PUSH2 0x9BC JUMPI DUP2 CALLDATALOAD PUSH8 0xFFFFFFFFFFFFFFFF DUP2 GT ISZERO PUSH2 0x994 JUMPI PUSH2 0x993 PUSH2 0xEE8 JUMP JUMPDEST JUMPDEST DUP1 DUP7 ADD PUSH2 0x9A1 DUP10 DUP3 PUSH2 0xA4B JUMP JUMPDEST DUP6 MSTORE PUSH1 0x20 DUP6 ADD SWAP5 POP PUSH1 0x20 DUP5 ADD SWAP4 POP POP POP PUSH1 0x1 DUP2 ADD SWAP1 POP PUSH2 0x971 JUMP JUMPDEST POP POP POP SWAP4 SWAP3 POP POP POP JUMP JUMPDEST PUSH1 0x0 PUSH2 0x9D9 PUSH2 0x9D4 DUP5 PUSH2 0xD5C JUMP JUMPDEST PUSH2 0xD0B JUMP JUMPDEST SWAP1 POP DUP3 DUP2 MSTORE PUSH1 0x20 DUP2 ADD DUP5 DUP5 DUP5 ADD GT ISZERO PUSH2 0x9F5 JUMPI PUSH2 0x9F4 PUSH2 0xEF2 JUMP JUMPDEST JUMPDEST PUSH2 0xA00 DUP5 DUP3 DUP6 PUSH2 0xDE5 JUMP JUMPDEST POP SWAP4 SWAP3 POP POP POP JUMP JUMPDEST PUSH1 0x0 DUP2 CALLDATALOAD SWAP1 POP PUSH2 0xA17 DUP2 PUSH2 0xF12 JUMP JUMPDEST SWAP3 SWAP2 POP POP JUMP JUMPDEST PUSH1 0x0 DUP3 PUSH1 0x1F DUP4 ADD SLT PUSH2 0xA32 JUMPI PUSH2 0xA31 PUSH2 0xEE8 JUMP JUMPDEST JUMPDEST DUP2 CALLDATALOAD PUSH2 0xA42 DUP5 DUP3 PUSH1 0x20 DUP7 ADD PUSH2 0x938 JUMP JUMPDEST SWAP2 POP POP SWAP3 SWAP2 POP POP JUMP JUMPDEST PUSH1 0x0 DUP3 PUSH1 0x1F DUP4 ADD SLT PUSH2 0xA60 JUMPI PUSH2 0xA5F PUSH2 0xEE8 JUMP JUMPDEST JUMPDEST DUP2 CALLDATALOAD PUSH2 0xA70 DUP5 DUP3 PUSH1 0x20 DUP7 ADD PUSH2 0x9C6 JUMP JUMPDEST SWAP2 POP POP SWAP3 SWAP2 POP POP JUMP JUMPDEST PUSH1 0x0 PUSH1 0x20 DUP3 DUP5 SUB SLT ISZERO PUSH2 0xA8F JUMPI PUSH2 0xA8E PUSH2 0xEFC JUMP JUMPDEST JUMPDEST PUSH1 0x0 PUSH2 0xA9D DUP5 DUP3 DUP6 ADD PUSH2 0xA08 JUMP JUMPDEST SWAP2 POP POP SWAP3 SWAP2 POP POP JUMP JUMPDEST PUSH1 0x0 DUP1 PUSH1 0x0 DUP1 PUSH1 0x0 DUP1 PUSH1 0x0 PUSH1 0xE0 DUP9 DUP11 SUB SLT ISZERO PUSH2 0xAC5 JUMPI PUSH2 0xAC4 PUSH2 0xEFC JUMP JUMPDEST JUMPDEST PUSH1 0x0 DUP9 ADD CALLDATALOAD PUSH8 0xFFFFFFFFFFFFFFFF DUP2 GT ISZERO PUSH2 0xAE3 JUMPI PUSH2 0xAE2 PUSH2 0xEF7 JUMP JUMPDEST JUMPDEST PUSH2 0xAEF DUP11 DUP3 DUP12 ADD PUSH2 0xA4B JUMP JUMPDEST SWAP8 POP POP PUSH1 0x20 DUP9 ADD CALLDATALOAD PUSH8 0xFFFFFFFFFFFFFFFF DUP2 GT ISZERO PUSH2 0xB10 JUMPI PUSH2 0xB0F PUSH2 0xEF7 JUMP JUMPDEST JUMPDEST PUSH2 0xB1C DUP11 DUP3 DUP12 ADD PUSH2 0xA4B JUMP JUMPDEST SWAP7 POP POP PUSH1 0x40 DUP9 ADD CALLDATALOAD PUSH8 0xFFFFFFFFFFFFFFFF DUP2 GT ISZERO PUSH2 0xB3D JUMPI PUSH2 0xB3C PUSH2 0xEF7 JUMP JUMPDEST JUMPDEST PUSH2 0xB49 DUP11 DUP3 DUP12 ADD PUSH2 0xA4B JUMP JUMPDEST SWAP6 POP POP PUSH1 0x60 DUP9 ADD CALLDATALOAD PUSH8 0xFFFFFFFFFFFFFFFF DUP2 GT ISZERO PUSH2 0xB6A JUMPI PUSH2 0xB69 PUSH2 0xEF7 JUMP JUMPDEST JUMPDEST PUSH2 0xB76 DUP11 DUP3 DUP12 ADD PUSH2 0xA4B JUMP JUMPDEST SWAP5 POP POP PUSH1 0x80 DUP9 ADD CALLDATALOAD PUSH8 0xFFFFFFFFFFFFFFFF DUP2 GT ISZERO PUSH2 0xB97 JUMPI PUSH2 0xB96 PUSH2 0xEF7 JUMP JUMPDEST JUMPDEST PUSH2 0xBA3 DUP11 DUP3 DUP12 ADD PUSH2 0xA4B JUMP JUMPDEST SWAP4 POP POP PUSH1 0xA0 DUP9 ADD CALLDATALOAD PUSH8 0xFFFFFFFFFFFFFFFF DUP2 GT ISZERO PUSH2 0xBC4 JUMPI PUSH2 0xBC3 PUSH2 0xEF7 JUMP JUMPDEST JUMPDEST PUSH2 0xBD0 DUP11 DUP3 DUP12 ADD PUSH2 0xA4B JUMP JUMPDEST SWAP3 POP POP PUSH1 0xC0 DUP9 ADD CALLDATALOAD PUSH8 0xFFFFFFFFFFFFFFFF DUP2 GT ISZERO PUSH2 0xBF1 JUMPI PUSH2 0xBF0 PUSH2 0xEF7 JUMP JUMPDEST JUMPDEST PUSH2 0xBFD DUP11 DUP3 DUP12 ADD PUSH2 0xA1D JUMP JUMPDEST SWAP2 POP POP SWAP3 SWAP6 SWAP9 SWAP2 SWAP5 SWAP8 POP SWAP3 SWAP6 POP JUMP JUMPDEST PUSH2 0xC15 DUP2 PUSH2 0xDA9 JUMP JUMPDEST DUP3 MSTORE POP POP JUMP JUMPDEST PUSH1 0x0 PUSH2 0xC26 DUP3 PUSH2 0xD8D JUMP JUMPDEST PUSH2 0xC30 DUP2 DUP6 PUSH2 0xD98 JUMP JUMPDEST SWAP4 POP PUSH2 0xC40 DUP2 DUP6 PUSH1 0x20 DUP7 ADD PUSH2 0xDF4 JUMP JUMPDEST PUSH2 0xC49 DUP2 PUSH2 0xF01 JUMP JUMPDEST DUP5 ADD SWAP2 POP POP SWAP3 SWAP2 POP POP JUMP JUMPDEST PUSH2 0xC5D DUP2 PUSH2 0xDDB JUMP JUMPDEST DUP3 MSTORE POP POP JUMP JUMPDEST PUSH1 0x0 PUSH2 0x100 DUP3 ADD SWAP1 POP DUP2 DUP2 SUB PUSH1 0x0 DUP4 ADD MSTORE PUSH2 0xC7E DUP2 DUP12 PUSH2 0xC1B JUMP JUMPDEST SWAP1 POP DUP2 DUP2 SUB PUSH1 0x20 DUP4 ADD MSTORE PUSH2 0xC92 DUP2 DUP11 PUSH2 0xC1B JUMP JUMPDEST SWAP1 POP DUP2 DUP2 SUB PUSH1 0x40 DUP4 ADD MSTORE PUSH2 0xCA6 DUP2 DUP10 PUSH2 0xC1B JUMP JUMPDEST SWAP1 POP DUP2 DUP2 SUB PUSH1 0x60 DUP4 ADD MSTORE PUSH2 0xCBA DUP2 DUP9 PUSH2 0xC1B JUMP JUMPDEST SWAP1 POP DUP2 DUP2 SUB PUSH1 0x80 DUP4 ADD MSTORE PUSH2 0xCCE DUP2 DUP8 PUSH2 0xC1B JUMP JUMPDEST SWAP1 POP DUP2 DUP2 SUB PUSH1 0xA0 DUP4 ADD MSTORE PUSH2 0xCE2 DUP2 DUP7 PUSH2 0xC1B JUMP JUMPDEST SWAP1 POP PUSH2 0xCF1 PUSH1 0xC0 DUP4 ADD DUP6 PUSH2 0xC0C JUMP JUMPDEST PUSH2 0xCFE PUSH1 0xE0 DUP4 ADD DUP5 PUSH2 0xC54 JUMP JUMPDEST SWAP10 SWAP9 POP POP POP POP POP POP POP POP POP JUMP JUMPDEST PUSH1 0x0 PUSH2 0xD15 PUSH2 0xD26 JUMP JUMPDEST SWAP1 POP PUSH2 0xD21 DUP3 DUP3 PUSH2 0xE59 JUMP JUMPDEST SWAP2 SWAP1 POP JUMP JUMPDEST PUSH1 0x0 PUSH1 0x40 MLOAD SWAP1 POP SWAP1 JUMP JUMPDEST PUSH1 0x0 PUSH8 0xFFFFFFFFFFFFFFFF DUP3 GT ISZERO PUSH2 0xD4B JUMPI PUSH2 0xD4A PUSH2 0xEB9 JUMP JUMPDEST JUMPDEST PUSH1 0x20 DUP3 MUL SWAP1 POP PUSH1 0x20 DUP2 ADD SWAP1 POP SWAP2 SWAP1 POP JUMP JUMPDEST PUSH1 0x0 PUSH8 0xFFFFFFFFFFFFFFFF DUP3 GT ISZERO PUSH2 0xD77 JUMPI PUSH2 0xD76 PUSH2 0xEB9 JUMP JUMPDEST JUMPDEST PUSH2 0xD80 DUP3 PUSH2 0xF01 JUMP JUMPDEST SWAP1 POP PUSH1 0x20 DUP2 ADD SWAP1 POP SWAP2 SWAP1 POP JUMP JUMPDEST PUSH1 0x0 DUP2 MLOAD SWAP1 POP SWAP2 SWAP1 POP JUMP JUMPDEST PUSH1 0x0 DUP3 DUP3 MSTORE PUSH1 0x20 DUP3 ADD SWAP1 POP SWAP3 SWAP2 POP POP JUMP JUMPDEST PUSH1 0x0 PUSH2 0xDB4 DUP3 PUSH2 0xDBB JUMP JUMPDEST SWAP1 POP SWAP2 SWAP1 POP JUMP JUMPDEST PUSH1 0x0 PUSH20 0xFFFFFFFFFFFFFFFFFFFFFFFFFFFFFFFFFFFFFFFF DUP3 AND SWAP1 POP SWAP2 SWAP1 POP JUMP JUMPDEST PUSH1 0x0 DUP2 SWAP1 POP SWAP2 SWAP1 POP JUMP JUMPDEST DUP3 DUP2 DUP4 CALLDATACOPY PUSH1 0x0 DUP4 DUP4 ADD MSTORE POP POP POP JUMP JUMPDEST PUSH1 0x0 JUMPDEST DUP4 DUP2 LT ISZERO PUSH2 0xE12 JUMPI DUP1 DUP3 ADD MLOAD DUP2 DUP5 ADD MSTORE PUSH1 0x20 DUP2 ADD SWAP1 POP PUSH2 0xDF7 JUMP JUMPDEST DUP4 DUP2 GT ISZERO PUSH2 0xE21 JUMPI PUSH1 0x0 DUP5 DUP5 ADD MSTORE JUMPDEST POP POP POP POP JUMP JUMPDEST PUSH1 0x0 PUSH1 0x2 DUP3 DIV SWAP1 POP PUSH1 0x1 DUP3 AND DUP1 PUSH2 0xE3F JUMPI PUSH1 0x7F DUP3 AND SWAP2 POP JUMPDEST PUSH1 0x20 DUP3 LT DUP2 EQ ISZERO PUSH2 0xE53 JUMPI PUSH2 0xE52 PUSH2 0xE8A JUMP JUMPDEST JUMPDEST POP SWAP2 SWAP1 POP JUMP JUMPDEST PUSH2 0xE62 DUP3 PUSH2 0xF01 JUMP JUMPDEST DUP2 ADD DUP2 DUP2 LT PUSH8 0xFFFFFFFFFFFFFFFF DUP3 GT OR ISZERO PUSH2 0xE81 JUMPI PUSH2 0xE80 PUSH2 0xEB9 JUMP JUMPDEST JUMPDEST DUP1 PUSH1 0x40 MSTORE POP POP POP JUMP JUMPDEST PUSH32 0x4E487B7100000000000000000000000000000000000000000000000000000000 PUSH1 0x0 MSTORE PUSH1 0x22 PUSH1 0x4 MSTORE PUSH1 0x24 PUSH1 0x0 REVERT JUMPDEST PUSH32 0x4E487B7100000000000000000000000000000000000000000000000000000000 PUSH1 0x0 MSTORE PUSH1 0x41 PUSH1 0x4 MSTORE PUSH1 0x24 PUSH1 0x0 REVERT JUMPDEST PUSH1 0x0 DUP1 REVERT JUMPDEST PUSH1 0x0 DUP1 REVERT JUMPDEST PUSH1 0x0 DUP1 REVERT JUMPDEST PUSH1 0x0 DUP1 REVERT JUMPDEST PUSH1 0x0 DUP1 REVERT JUMPDEST PUSH1 0x0 PUSH1 0x1F NOT PUSH1 0x1F DUP4 ADD AND SWAP1 POP SWAP2 SWAP1 POP JUMP JUMPDEST PUSH2 0xF1B DUP2 PUSH2 0xDA9 JUMP JUMPDEST DUP2 EQ PUSH2 0xF26 JUMPI PUSH1 0x0 DUP1 REVERT JUMPDEST POP JUMP INVALID LOG2 PUSH5 0x6970667358 0x22 SLT KECCAK256 MULMOD POP 0xB0 0xC1 0xF8 0xD7 CALLDATALOAD 0x2C CHAINID 0xD1 0xD9 EXTCODECOPY EXTCODECOPY 0x2B CODESIZE 0xA9 0x5D 0xE6 0xB0 0xE9 DUP5 0xC9 0xD4 0xB8 MSTORE 0xAF LT KECCAK256 0xCE 0xC3 PUSH6 0xFF64736F6C63 NUMBER STOP ADDMOD SMOD STOP CALLER "
				},
				"gasEstimates": {
					"creation": {
						"codeDepositCost": "787000",
						"executionCost": "818",
						"totalCost": "787818"
					},
					"external": {
						"addBio(string,string,string,string,string,string,string[])": "infinite",
						"delProfile()": "infinite",
						"profile(address)": "infinite"
					},
					"internal": {
						"addSkill(string memory[] memory,uint8)": "infinite"
					}
				},
				"methodIdentifiers": {
					"addBio(string,string,string,string,string,string,string[])": "9e46df9a",
					"delProfile()": "fabce08f",
					"profile(address)": "9dd9d0fd"
				}
			},
			"storageLayout": {
				"storage": [
					{
						"astId": 32,
						"contract": "contracts/Profile.sol:Profile",
						"label": "profile",
						"offset": 0,
						"slot": "0",
						"type": "t_mapping(t_address,t_struct(Bio)27_storage)"
					}
				],
				"types": {
					"t_address": {
						"encoding": "inplace",
						"label": "address",
						"numberOfBytes": "20"
					},
					"t_array(t_string_storage)dyn_storage": {
						"base": "t_string_storage",
						"encoding": "dynamic_array",
						"label": "string[]",
						"numberOfBytes": "32"
					},
					"t_mapping(t_address,t_struct(Bio)27_storage)": {
						"encoding": "mapping",
						"key": "t_address",
						"label": "mapping(address => struct Profile.Bio)",
						"numberOfBytes": "32",
						"value": "t_struct(Bio)27_storage"
					},
					"t_string_storage": {
						"encoding": "bytes",
						"label": "string",
						"numberOfBytes": "32"
					},
					"t_struct(Bio)27_storage": {
						"encoding": "inplace",
						"label": "struct Profile.Bio",
						"members": [
							{
								"astId": 3,
								"contract": "contracts/Profile.sol:Profile",
								"label": "firstName",
								"offset": 0,
								"slot": "0",
								"type": "t_string_storage"
							},
							{
								"astId": 5,
								"contract": "contracts/Profile.sol:Profile",
								"label": "middleName",
								"offset": 0,
								"slot": "1",
								"type": "t_string_storage"
							},
							{
								"astId": 7,
								"contract": "contracts/Profile.sol:Profile",
								"label": "lastName",
								"offset": 0,
								"slot": "2",
								"type": "t_string_storage"
							},
							{
								"astId": 9,
								"contract": "contracts/Profile.sol:Profile",
								"label": "email",
								"offset": 0,
								"slot": "3",
								"type": "t_string_storage"
							},
							{
								"astId": 11,
								"contract": "contracts/Profile.sol:Profile",
								"label": "phone",
								"offset": 0,
								"slot": "4",
								"type": "t_string_storage"
							},
							{
								"astId": 13,
								"contract": "contracts/Profile.sol:Profile",
								"label": "profileImage",
								"offset": 0,
								"slot": "5",
								"type": "t_string_storage"
							},
							{
								"astId": 15,
								"contract": "contracts/Profile.sol:Profile",
								"label": "userAddress",
								"offset": 0,
								"slot": "6",
								"type": "t_address"
							},
							{
								"astId": 17,
								"contract": "contracts/Profile.sol:Profile",
								"label": "createDate",
								"offset": 0,
								"slot": "7",
								"type": "t_uint256"
							},
							{
								"astId": 20,
								"contract": "contracts/Profile.sol:Profile",
								"label": "frontend",
								"offset": 0,
								"slot": "8",
								"type": "t_array(t_string_storage)dyn_storage"
							},
							{
								"astId": 23,
								"contract": "contracts/Profile.sol:Profile",
								"label": "backend",
								"offset": 0,
								"slot": "9",
								"type": "t_array(t_string_storage)dyn_storage"
							},
							{
								"astId": 26,
								"contract": "contracts/Profile.sol:Profile",
								"label": "framework",
								"offset": 0,
								"slot": "10",
								"type": "t_array(t_string_storage)dyn_storage"
							}
						],
						"numberOfBytes": "352"
					},
					"t_uint256": {
						"encoding": "inplace",
						"label": "uint256",
						"numberOfBytes": "32"
					}
				}
			},
			"userdoc": {
				"kind": "user",
				"methods": {},
				"version": 1
			}
		}
	}
}