{
	"contracts/Profile.sol": {
		"Profile": {
			"abi": [
				{
					"inputs": [
						{
							"internalType": "string[]",
							"name": "award",
							"type": "string[]"
						},
						{
							"internalType": "string[]",
							"name": "certificate",
							"type": "string[]"
						}
					],
					"name": "createAward",
					"outputs": [],
					"stateMutability": "nonpayable",
					"type": "function"
				},
				{
					"inputs": [
						{
							"internalType": "string",
							"name": "companyName",
							"type": "string"
						},
						{
							"internalType": "string",
							"name": "position",
							"type": "string"
						},
						{
							"internalType": "string",
							"name": "startDate",
							"type": "string"
						},
						{
							"internalType": "string",
							"name": "endDate",
							"type": "string"
						},
						{
							"internalType": "string[]",
							"name": "project",
							"type": "string[]"
						}
					],
					"name": "createCompanyExperience",
					"outputs": [],
					"stateMutability": "nonpayable",
					"type": "function"
				},
				{
					"inputs": [
						{
							"internalType": "string",
							"name": "email",
							"type": "string"
						},
						{
							"internalType": "string",
							"name": "phone",
							"type": "string"
						},
						{
							"internalType": "string",
							"name": "github",
							"type": "string"
						},
						{
							"internalType": "string",
							"name": "gitlab",
							"type": "string"
						},
						{
							"internalType": "string",
							"name": "linkedin",
							"type": "string"
						}
					],
					"name": "createContract",
					"outputs": [],
					"stateMutability": "nonpayable",
					"type": "function"
				},
				{
					"inputs": [
						{
							"internalType": "string",
							"name": "startDate",
							"type": "string"
						},
						{
							"internalType": "string",
							"name": "endDate",
							"type": "string"
						},
						{
							"internalType": "string",
							"name": "university",
							"type": "string"
						},
						{
							"internalType": "string",
							"name": "major",
							"type": "string"
						},
						{
							"internalType": "string",
							"name": "finalProject",
							"type": "string"
						}
					],
					"name": "createEducation",
					"outputs": [],
					"stateMutability": "nonpayable",
					"type": "function"
				},
				{
					"inputs": [
						{
							"internalType": "string",
							"name": "projectName",
							"type": "string"
						},
						{
							"internalType": "string",
							"name": "Detail",
							"type": "string"
						}
					],
					"name": "createFreelanceExperience",
					"outputs": [],
					"stateMutability": "nonpayable",
					"type": "function"
				},
				{
					"inputs": [
						{
							"internalType": "string",
							"name": "firstName",
							"type": "string"
						},
						{
							"internalType": "string",
							"name": "middleName",
							"type": "string"
						},
						{
							"internalType": "string",
							"name": "lastName",
							"type": "string"
						},
						{
							"internalType": "string",
							"name": "profileImage",
							"type": "string"
						},
						{
							"internalType": "string",
							"name": "aboutMe",
							"type": "string"
						},
						{
							"internalType": "string",
							"name": "position",
							"type": "string"
						}
					],
					"name": "createInformation",
					"outputs": [],
					"stateMutability": "nonpayable",
					"type": "function"
				},
				{
					"inputs": [
						{
							"internalType": "string[]",
							"name": "programmingLanguages",
							"type": "string[]"
						},
						{
							"internalType": "string[]",
							"name": "framework",
							"type": "string[]"
						},
						{
							"internalType": "string[]",
							"name": "databaseAndOther",
							"type": "string[]"
						}
					],
					"name": "createSkill",
					"outputs": [],
					"stateMutability": "nonpayable",
					"type": "function"
				},
				{
					"inputs": [],
					"name": "delAllEducation",
					"outputs": [],
					"stateMutability": "nonpayable",
					"type": "function"
				},
				{
					"inputs": [],
					"name": "delCertificateAndAward",
					"outputs": [],
					"stateMutability": "nonpayable",
					"type": "function"
				},
				{
					"inputs": [],
					"name": "delCompanyExperience",
					"outputs": [],
					"stateMutability": "nonpayable",
					"type": "function"
				},
				{
					"inputs": [],
					"name": "delFreelanceExperience",
					"outputs": [],
					"stateMutability": "nonpayable",
					"type": "function"
				},
				{
					"inputs": [],
					"name": "delInformaion",
					"outputs": [],
					"stateMutability": "nonpayable",
					"type": "function"
				},
				{
					"inputs": [],
					"name": "delProfile",
					"outputs": [],
					"stateMutability": "nonpayable",
					"type": "function"
				},
				{
					"inputs": [
						{
							"internalType": "uint256",
							"name": "index",
							"type": "uint256"
						}
					],
					"name": "getEducation",
					"outputs": [
						{
							"internalType": "string",
							"name": "",
							"type": "string"
						},
						{
							"internalType": "string",
							"name": "",
							"type": "string"
						},
						{
							"internalType": "string",
							"name": "",
							"type": "string"
						},
						{
							"internalType": "string",
							"name": "",
							"type": "string"
						},
						{
							"internalType": "string",
							"name": "",
							"type": "string"
						}
					],
					"stateMutability": "view",
					"type": "function"
				},
				{
					"inputs": [],
					"name": "getEducationCount",
					"outputs": [
						{
							"internalType": "uint256",
							"name": "",
							"type": "uint256"
						}
					],
					"stateMutability": "view",
					"type": "function"
				},
				{
					"inputs": [],
					"name": "myBalance",
					"outputs": [
						{
							"internalType": "uint256",
							"name": "",
							"type": "uint256"
						}
					],
					"stateMutability": "view",
					"type": "function"
				},
				{
					"inputs": [
						{
							"internalType": "address",
							"name": "",
							"type": "address"
						}
					],
					"name": "profile",
					"outputs": [
						{
							"components": [
								{
									"internalType": "string",
									"name": "aboutMe",
									"type": "string"
								},
								{
									"internalType": "string",
									"name": "position",
									"type": "string"
								},
								{
									"internalType": "address",
									"name": "userAddress",
									"type": "address"
								},
								{
									"internalType": "string",
									"name": "firstName",
									"type": "string"
								},
								{
									"internalType": "string",
									"name": "middleName",
									"type": "string"
								},
								{
									"internalType": "string",
									"name": "lastName",
									"type": "string"
								},
								{
									"internalType": "string",
									"name": "profileImage",
									"type": "string"
								},
								{
									"internalType": "uint256",
									"name": "createDate",
									"type": "uint256"
								}
							],
							"internalType": "struct Profile.Information",
							"name": "information",
							"type": "tuple"
						},
						{
							"components": [
								{
									"internalType": "string",
									"name": "aboutMe",
									"type": "string"
								},
								{
									"internalType": "string",
									"name": "email",
									"type": "string"
								},
								{
									"internalType": "string",
									"name": "phone",
									"type": "string"
								},
								{
									"internalType": "string",
									"name": "github",
									"type": "string"
								},
								{
									"internalType": "string",
									"name": "gitlab",
									"type": "string"
								},
								{
									"internalType": "string",
									"name": "linkedin",
									"type": "string"
								}
							],
							"internalType": "struct Profile.Contract",
							"name": "privateContract",
							"type": "tuple"
						},
						{
							"components": [
								{
									"internalType": "string[]",
									"name": "programmingLanguages",
									"type": "string[]"
								},
								{
									"internalType": "string[]",
									"name": "framework",
									"type": "string[]"
								},
								{
									"internalType": "string[]",
									"name": "databaseAndOther",
									"type": "string[]"
								}
							],
							"internalType": "struct Profile.Skill",
							"name": "skill",
							"type": "tuple"
						},
						{
							"components": [
								{
									"internalType": "string[]",
									"name": "certificate",
									"type": "string[]"
								},
								{
									"internalType": "string[]",
									"name": "award",
									"type": "string[]"
								}
							],
							"internalType": "struct Profile.CertificateAndAward",
							"name": "certificateAndAward",
							"type": "tuple"
						}
					],
					"stateMutability": "view",
					"type": "function"
				}
			],
			"devdoc": {
				"kind": "dev",
				"methods": {},
				"version": 1
			},
			"evm": {
				"assembly": "    /* \"contracts/Profile.sol\":60:6058  contract Profile {\r... */\n  mstore(0x40, 0x80)\n  callvalue\n  dup1\n  iszero\n  tag_1\n  jumpi\n  0x00\n  dup1\n  revert\ntag_1:\n  pop\n  dataSize(sub_0)\n  dup1\n  dataOffset(sub_0)\n  0x00\n  codecopy\n  0x00\n  return\nstop\n\nsub_0: assembly {\n        /* \"contracts/Profile.sol\":60:6058  contract Profile {\r... */\n      mstore(0x40, 0x80)\n      callvalue\n      dup1\n      iszero\n      tag_1\n      jumpi\n      0x00\n      dup1\n      revert\n    tag_1:\n      pop\n      jumpi(tag_2, lt(calldatasize, 0x04))\n      shr(0xe0, calldataload(0x00))\n      dup1\n      0x958791ae\n      gt\n      tag_20\n      jumpi\n      dup1\n      0xc8ae20ff\n      gt\n      tag_21\n      jumpi\n      dup1\n      0xc8ae20ff\n      eq\n      tag_15\n      jumpi\n      dup1\n      0xc9116b69\n      eq\n      tag_16\n      jumpi\n      dup1\n      0xed2217ef\n      eq\n      tag_17\n      jumpi\n      dup1\n      0xf96e32f8\n      eq\n      tag_18\n      jumpi\n      dup1\n      0xfabce08f\n      eq\n      tag_19\n      jumpi\n      jump(tag_2)\n    tag_21:\n      dup1\n      0x958791ae\n      eq\n      tag_11\n      jumpi\n      dup1\n      0x95ea3757\n      eq\n      tag_12\n      jumpi\n      dup1\n      0x9dd9d0fd\n      eq\n      tag_13\n      jumpi\n      dup1\n      0xb240c619\n      eq\n      tag_14\n      jumpi\n      jump(tag_2)\n    tag_20:\n      dup1\n      0x4ed74067\n      gt\n      tag_22\n      jumpi\n      dup1\n      0x4ed74067\n      eq\n      tag_7\n      jumpi\n      dup1\n      0x6212fa02\n      eq\n      tag_8\n      jumpi\n      dup1\n      0x6c2cc774\n      eq\n      tag_9\n      jumpi\n      dup1\n      0x72828388\n      eq\n      tag_10\n      jumpi\n      jump(tag_2)\n    tag_22:\n      dup1\n      0x119d4cac\n      eq\n      tag_3\n      jumpi\n      dup1\n      0x2a70da29\n      eq\n      tag_4\n      jumpi\n      dup1\n      0x322a9849\n      eq\n      tag_5\n      jumpi\n      dup1\n      0x3d984d0e\n      eq\n      tag_6\n      jumpi\n    tag_2:\n      0x00\n      dup1\n      revert\n        /* \"contracts/Profile.sol\":5835:5943  function delFreelanceExperience() external {\r... */\n    tag_3:\n      tag_23\n      tag_24\n      jump\t// in\n    tag_23:\n      stop\n        /* \"contracts/Profile.sol\":4877:5427  function createCompanyExperience(string memory companyName, string memory position, string memory startDate, string memory endDate, string[] memory project) public {\r... */\n    tag_4:\n      tag_25\n      0x04\n      dup1\n      calldatasize\n      sub\n      dup2\n      add\n      swap1\n      tag_26\n      swap2\n      swap1\n      tag_27\n      jump\t// in\n    tag_26:\n      tag_28\n      jump\t// in\n    tag_25:\n      stop\n        /* \"contracts/Profile.sol\":4531:4869  function createFreelanceExperience(string memory projectName, string memory Detail) public {\r... */\n    tag_5:\n      tag_29\n      0x04\n      dup1\n      calldatasize\n      sub\n      dup2\n      add\n      swap1\n      tag_30\n      swap2\n      swap1\n      tag_31\n      jump\t// in\n    tag_30:\n      tag_32\n      jump\t// in\n    tag_29:\n      stop\n        /* \"contracts/Profile.sol\":2894:3282  function createSkill(string[] memory programmingLanguages, string[] memory framework, string[] memory databaseAndOther) public {\r... */\n    tag_6:\n      tag_33\n      0x04\n      dup1\n      calldatasize\n      sub\n      dup2\n      add\n      swap1\n      tag_34\n      swap2\n      swap1\n      tag_35\n      jump\t// in\n    tag_34:\n      tag_36\n      jump\t// in\n    tag_33:\n      stop\n        /* \"contracts/Profile.sol\":5719:5827  function delCertificateAndAward() external {\r... */\n    tag_7:\n      tag_37\n      tag_38\n      jump\t// in\n    tag_37:\n      stop\n        /* \"contracts/Profile.sol\":4169:4287  function getEducationCount() public view returns (uint) {\r... */\n    tag_8:\n      tag_39\n      tag_40\n      jump\t// in\n    tag_39:\n      mload(0x40)\n      tag_41\n      swap2\n      swap1\n      tag_42\n      jump\t// in\n    tag_41:\n      mload(0x40)\n      dup1\n      swap2\n      sub\n      swap1\n      return\n        /* \"contracts/Profile.sol\":4295:4523  function createAward(string[] memory award, string[] memory certificate) public {\r... */\n    tag_9:\n      tag_43\n      0x04\n      dup1\n      calldatasize\n      sub\n      dup2\n      add\n      swap1\n      tag_44\n      swap2\n      swap1\n      tag_45\n      jump\t// in\n    tag_44:\n      tag_46\n      jump\t// in\n    tag_43:\n      stop\n        /* \"contracts/Profile.sol\":2374:2886  function createContract(string memory email, string memory phone, string memory github, string memory gitlab, string memory linkedin) public {\r... */\n    tag_10:\n      tag_47\n      0x04\n      dup1\n      calldatasize\n      sub\n      dup2\n      add\n      swap1\n      tag_48\n      swap2\n      swap1\n      tag_49\n      jump\t// in\n    tag_48:\n      tag_50\n      jump\t// in\n    tag_47:\n      stop\n        /* \"contracts/Profile.sol\":1650:2366  function createInformation(string memory firstName, string memory middleName, string memory lastName,  string memory profileImage, string memory aboutMe, string memory position) public {\r... */\n    tag_11:\n      tag_51\n      0x04\n      dup1\n      calldatasize\n      sub\n      dup2\n      add\n      swap1\n      tag_52\n      swap2\n      swap1\n      tag_53\n      jump\t// in\n    tag_52:\n      tag_54\n      jump\t// in\n    tag_51:\n      stop\n        /* \"contracts/Profile.sol\":5535:5627  function delInformaion() external  {\r... */\n    tag_12:\n      tag_55\n      tag_56\n      jump\t// in\n    tag_55:\n      stop\n        /* \"contracts/Profile.sol\":384:424  mapping (address => Bio) public  profile */\n    tag_13:\n      tag_57\n      0x04\n      dup1\n      calldatasize\n      sub\n      dup2\n      add\n      swap1\n      tag_58\n      swap2\n      swap1\n      tag_59\n      jump\t// in\n    tag_58:\n      tag_60\n      jump\t// in\n    tag_57:\n      mload(0x40)\n      tag_61\n      swap5\n      swap4\n      swap3\n      swap2\n      swap1\n      tag_62\n      jump\t// in\n    tag_61:\n      mload(0x40)\n      dup1\n      swap2\n      sub\n      swap1\n      return\n        /* \"contracts/Profile.sol\":5951:6055  function delCompanyExperience() external {\r... */\n    tag_14:\n      tag_63\n      tag_64\n      jump\t// in\n    tag_63:\n      stop\n        /* \"contracts/Profile.sol\":3290:3759  function createEducation(string memory startDate, string memory endDate, string memory university, string memory major, string memory finalProject) public {\r... */\n    tag_15:\n      tag_65\n      0x04\n      dup1\n      calldatasize\n      sub\n      dup2\n      add\n      swap1\n      tag_66\n      swap2\n      swap1\n      tag_49\n      jump\t// in\n    tag_66:\n      tag_67\n      jump\t// in\n    tag_65:\n      stop\n        /* \"contracts/Profile.sol\":1536:1638  function myBalance() public view returns(uint256){\r... */\n    tag_16:\n      tag_68\n      tag_69\n      jump\t// in\n    tag_68:\n      mload(0x40)\n      tag_70\n      swap2\n      swap1\n      tag_42\n      jump\t// in\n    tag_70:\n      mload(0x40)\n      dup1\n      swap2\n      sub\n      swap1\n      return\n        /* \"contracts/Profile.sol\":5435:5527  function delAllEducation() external  {\r... */\n    tag_17:\n      tag_71\n      tag_72\n      jump\t// in\n    tag_71:\n      stop\n        /* \"contracts/Profile.sol\":3768:4161  function getEducation(uint index) public view returns(string memory, string memory, string memory, string memory, string memory) {\r... */\n    tag_18:\n      tag_73\n      0x04\n      dup1\n      calldatasize\n      sub\n      dup2\n      add\n      swap1\n      tag_74\n      swap2\n      swap1\n      tag_75\n      jump\t// in\n    tag_74:\n      tag_76\n      jump\t// in\n    tag_73:\n      mload(0x40)\n      tag_77\n      swap6\n      swap5\n      swap4\n      swap3\n      swap2\n      swap1\n      tag_78\n      jump\t// in\n    tag_77:\n      mload(0x40)\n      dup1\n      swap2\n      sub\n      swap1\n      return\n        /* \"contracts/Profile.sol\":5635:5711  function delProfile() external {\r... */\n    tag_19:\n      tag_79\n      tag_80\n      jump\t// in\n    tag_79:\n      stop\n        /* \"contracts/Profile.sol\":5835:5943  function delFreelanceExperience() external {\r... */\n    tag_24:\n        /* \"contracts/Profile.sol\":5896:5903  profile */\n      0x00\n        /* \"contracts/Profile.sol\":5896:5915  profile[msg.sender] */\n      dup1\n        /* \"contracts/Profile.sol\":5904:5914  msg.sender */\n      caller\n        /* \"contracts/Profile.sol\":5896:5915  profile[msg.sender] */\n      0xffffffffffffffffffffffffffffffffffffffff\n      and\n      0xffffffffffffffffffffffffffffffffffffffff\n      and\n      dup2\n      mstore\n      0x20\n      add\n      swap1\n      dup2\n      mstore\n      0x20\n      add\n      0x00\n      keccak256\n        /* \"contracts/Profile.sol\":5896:5935  profile[msg.sender].freelanceExperience */\n      0x15\n      add\n      0x00\n        /* \"contracts/Profile.sol\":5889:5935  delete profile[msg.sender].freelanceExperience */\n      tag_82\n      swap2\n      swap1\n      tag_83\n      jump\t// in\n    tag_82:\n        /* \"contracts/Profile.sol\":5835:5943  function delFreelanceExperience() external {\r... */\n      jump\t// out\n        /* \"contracts/Profile.sol\":4877:5427  function createCompanyExperience(string memory companyName, string memory position, string memory startDate, string memory endDate, string[] memory project) public {\r... */\n    tag_28:\n        /* \"contracts/Profile.sol\":5052:5095  CompanyExperience memory _companyExperience */\n      tag_85\n      tag_86\n      jump\t// in\n    tag_85:\n        /* \"contracts/Profile.sol\":5139:5150  companyName */\n      dup6\n        /* \"contracts/Profile.sol\":5106:5124  _companyExperience */\n      dup2\n        /* \"contracts/Profile.sol\":5106:5136  _companyExperience.companyName */\n      0x00\n      add\n        /* \"contracts/Profile.sol\":5106:5150  _companyExperience.companyName = companyName */\n      dup2\n      swap1\n      mstore\n      pop\n        /* \"contracts/Profile.sol\":5191:5199  position */\n      dup5\n        /* \"contracts/Profile.sol\":5161:5179  _companyExperience */\n      dup2\n        /* \"contracts/Profile.sol\":5161:5188  _companyExperience.position */\n      0x20\n      add\n        /* \"contracts/Profile.sol\":5161:5199  _companyExperience.position = position */\n      dup2\n      swap1\n      mstore\n      pop\n        /* \"contracts/Profile.sol\":5241:5250  startDate */\n      dup4\n        /* \"contracts/Profile.sol\":5210:5228  _companyExperience */\n      dup2\n        /* \"contracts/Profile.sol\":5210:5238  _companyExperience.startDate */\n      0x40\n      add\n        /* \"contracts/Profile.sol\":5210:5250  _companyExperience.startDate = startDate */\n      dup2\n      swap1\n      mstore\n      pop\n        /* \"contracts/Profile.sol\":5290:5297  endDate */\n      dup3\n        /* \"contracts/Profile.sol\":5261:5279  _companyExperience */\n      dup2\n        /* \"contracts/Profile.sol\":5261:5287  _companyExperience.endDate */\n      0x60\n      add\n        /* \"contracts/Profile.sol\":5261:5297  _companyExperience.endDate = endDate */\n      dup2\n      swap1\n      mstore\n      pop\n        /* \"contracts/Profile.sol\":5337:5344  project */\n      dup2\n        /* \"contracts/Profile.sol\":5308:5326  _companyExperience */\n      dup2\n        /* \"contracts/Profile.sol\":5308:5334  _companyExperience.project */\n      0x80\n      add\n        /* \"contracts/Profile.sol\":5308:5344  _companyExperience.project = project */\n      dup2\n      swap1\n      mstore\n      pop\n        /* \"contracts/Profile.sol\":5355:5362  profile */\n      0x00\n        /* \"contracts/Profile.sol\":5355:5374  profile[msg.sender] */\n      dup1\n        /* \"contracts/Profile.sol\":5363:5373  msg.sender */\n      caller\n        /* \"contracts/Profile.sol\":5355:5374  profile[msg.sender] */\n      0xffffffffffffffffffffffffffffffffffffffff\n      and\n      0xffffffffffffffffffffffffffffffffffffffff\n      and\n      dup2\n      mstore\n      0x20\n      add\n      swap1\n      dup2\n      mstore\n      0x20\n      add\n      0x00\n      keccak256\n        /* \"contracts/Profile.sol\":5355:5392  profile[msg.sender].companyExperience */\n      0x14\n      add\n        /* \"contracts/Profile.sol\":5398:5416  _companyExperience */\n      dup2\n        /* \"contracts/Profile.sol\":5355:5417  profile[msg.sender].companyExperience.push(_companyExperience) */\n      swap1\n      dup1\n      0x01\n      dup2\n      sload\n      add\n      dup1\n      dup3\n      sstore\n      dup1\n      swap2\n      pop\n      pop\n      0x01\n      swap1\n      sub\n      swap1\n      0x00\n      mstore\n      keccak256(0x00, 0x20)\n      swap1\n      0x05\n      mul\n      add\n      0x00\n      swap1\n      swap2\n      swap1\n      swap2\n      swap1\n      swap2\n      pop\n      0x00\n      dup3\n      add\n      mload\n      dup2\n      0x00\n      add\n      swap1\n      dup1\n      mload\n      swap1\n      0x20\n      add\n      swap1\n      tag_88\n      swap3\n      swap2\n      swap1\n      tag_89\n      jump\t// in\n    tag_88:\n      pop\n      0x20\n      dup3\n      add\n      mload\n      dup2\n      0x01\n      add\n      swap1\n      dup1\n      mload\n      swap1\n      0x20\n      add\n      swap1\n      tag_90\n      swap3\n      swap2\n      swap1\n      tag_89\n      jump\t// in\n    tag_90:\n      pop\n      0x40\n      dup3\n      add\n      mload\n      dup2\n      0x02\n      add\n      swap1\n      dup1\n      mload\n      swap1\n      0x20\n      add\n      swap1\n      tag_91\n      swap3\n      swap2\n      swap1\n      tag_89\n      jump\t// in\n    tag_91:\n      pop\n      0x60\n      dup3\n      add\n      mload\n      dup2\n      0x03\n      add\n      swap1\n      dup1\n      mload\n      swap1\n      0x20\n      add\n      swap1\n      tag_92\n      swap3\n      swap2\n      swap1\n      tag_89\n      jump\t// in\n    tag_92:\n      pop\n      0x80\n      dup3\n      add\n      mload\n      dup2\n      0x04\n      add\n      swap1\n      dup1\n      mload\n      swap1\n      0x20\n      add\n      swap1\n      tag_93\n      swap3\n      swap2\n      swap1\n      tag_94\n      jump\t// in\n    tag_93:\n      pop\n      pop\n      pop\n        /* \"contracts/Profile.sol\":5041:5427  {\r... */\n      pop\n        /* \"contracts/Profile.sol\":4877:5427  function createCompanyExperience(string memory companyName, string memory position, string memory startDate, string memory endDate, string[] memory project) public {\r... */\n      pop\n      pop\n      pop\n      pop\n      pop\n      jump\t// out\n        /* \"contracts/Profile.sol\":4531:4869  function createFreelanceExperience(string memory projectName, string memory Detail) public {\r... */\n    tag_32:\n        /* \"contracts/Profile.sol\":4633:4680  FreelanceExperience memory _freelanceExperience */\n      tag_96\n      tag_97\n      jump\t// in\n    tag_96:\n        /* \"contracts/Profile.sol\":4726:4737  projectName */\n      dup3\n        /* \"contracts/Profile.sol\":4691:4711  _freelanceExperience */\n      dup2\n        /* \"contracts/Profile.sol\":4691:4723  _freelanceExperience.projectName */\n      0x00\n      add\n        /* \"contracts/Profile.sol\":4691:4737  _freelanceExperience.projectName = projectName */\n      dup2\n      swap1\n      mstore\n      pop\n        /* \"contracts/Profile.sol\":4778:4784  Detail */\n      dup2\n        /* \"contracts/Profile.sol\":4748:4768  _freelanceExperience */\n      dup2\n        /* \"contracts/Profile.sol\":4748:4775  _freelanceExperience.Detail */\n      0x20\n      add\n        /* \"contracts/Profile.sol\":4748:4784  _freelanceExperience.Detail = Detail */\n      dup2\n      swap1\n      mstore\n      pop\n        /* \"contracts/Profile.sol\":4795:4802  profile */\n      0x00\n        /* \"contracts/Profile.sol\":4795:4814  profile[msg.sender] */\n      dup1\n        /* \"contracts/Profile.sol\":4803:4813  msg.sender */\n      caller\n        /* \"contracts/Profile.sol\":4795:4814  profile[msg.sender] */\n      0xffffffffffffffffffffffffffffffffffffffff\n      and\n      0xffffffffffffffffffffffffffffffffffffffff\n      and\n      dup2\n      mstore\n      0x20\n      add\n      swap1\n      dup2\n      mstore\n      0x20\n      add\n      0x00\n      keccak256\n        /* \"contracts/Profile.sol\":4795:4834  profile[msg.sender].freelanceExperience */\n      0x15\n      add\n        /* \"contracts/Profile.sol\":4840:4860  _freelanceExperience */\n      dup2\n        /* \"contracts/Profile.sol\":4795:4861  profile[msg.sender].freelanceExperience.push(_freelanceExperience) */\n      swap1\n      dup1\n      0x01\n      dup2\n      sload\n      add\n      dup1\n      dup3\n      sstore\n      dup1\n      swap2\n      pop\n      pop\n      0x01\n      swap1\n      sub\n      swap1\n      0x00\n      mstore\n      keccak256(0x00, 0x20)\n      swap1\n      0x02\n      mul\n      add\n      0x00\n      swap1\n      swap2\n      swap1\n      swap2\n      swap1\n      swap2\n      pop\n      0x00\n      dup3\n      add\n      mload\n      dup2\n      0x00\n      add\n      swap1\n      dup1\n      mload\n      swap1\n      0x20\n      add\n      swap1\n      tag_99\n      swap3\n      swap2\n      swap1\n      tag_89\n      jump\t// in\n    tag_99:\n      pop\n      0x20\n      dup3\n      add\n      mload\n      dup2\n      0x01\n      add\n      swap1\n      dup1\n      mload\n      swap1\n      0x20\n      add\n      swap1\n      tag_100\n      swap3\n      swap2\n      swap1\n      tag_89\n      jump\t// in\n    tag_100:\n      pop\n      pop\n      pop\n        /* \"contracts/Profile.sol\":4622:4869  {\r... */\n      pop\n        /* \"contracts/Profile.sol\":4531:4869  function createFreelanceExperience(string memory projectName, string memory Detail) public {\r... */\n      pop\n      pop\n      jump\t// out\n        /* \"contracts/Profile.sol\":2894:3282  function createSkill(string[] memory programmingLanguages, string[] memory framework, string[] memory databaseAndOther) public {\r... */\n    tag_36:\n        /* \"contracts/Profile.sol\":3039:3046  profile */\n      0x00\n        /* \"contracts/Profile.sol\":3039:3058  profile[msg.sender] */\n      dup1\n        /* \"contracts/Profile.sol\":3047:3057  msg.sender */\n      caller\n        /* \"contracts/Profile.sol\":3039:3058  profile[msg.sender] */\n      0xffffffffffffffffffffffffffffffffffffffff\n      and\n      0xffffffffffffffffffffffffffffffffffffffff\n      and\n      dup2\n      mstore\n      0x20\n      add\n      swap1\n      dup2\n      mstore\n      0x20\n      add\n      0x00\n      keccak256\n        /* \"contracts/Profile.sol\":3039:3064  profile[msg.sender].skill */\n      0x0e\n      add\n      0x00\n        /* \"contracts/Profile.sol\":3032:3064  delete profile[msg.sender].skill */\n      dup1\n      dup3\n      add\n      0x00\n      tag_102\n      swap2\n      swap1\n      tag_103\n      jump\t// in\n    tag_102:\n      0x01\n      dup3\n      add\n      0x00\n      tag_104\n      swap2\n      swap1\n      tag_103\n      jump\t// in\n    tag_104:\n      0x02\n      dup3\n      add\n      0x00\n      tag_105\n      swap2\n      swap1\n      tag_103\n      jump\t// in\n    tag_105:\n      pop\n      pop\n        /* \"contracts/Profile.sol\":3124:3144  programmingLanguages */\n      dup3\n        /* \"contracts/Profile.sol\":3075:3082  profile */\n      0x00\n        /* \"contracts/Profile.sol\":3075:3094  profile[msg.sender] */\n      dup1\n        /* \"contracts/Profile.sol\":3083:3093  msg.sender */\n      caller\n        /* \"contracts/Profile.sol\":3075:3094  profile[msg.sender] */\n      0xffffffffffffffffffffffffffffffffffffffff\n      and\n      0xffffffffffffffffffffffffffffffffffffffff\n      and\n      dup2\n      mstore\n      0x20\n      add\n      swap1\n      dup2\n      mstore\n      0x20\n      add\n      0x00\n      keccak256\n        /* \"contracts/Profile.sol\":3075:3100  profile[msg.sender].skill */\n      0x0e\n      add\n        /* \"contracts/Profile.sol\":3075:3121  profile[msg.sender].skill.programmingLanguages */\n      0x00\n      add\n        /* \"contracts/Profile.sol\":3075:3144  profile[msg.sender].skill.programmingLanguages = programmingLanguages */\n      swap1\n      dup1\n      mload\n      swap1\n      0x20\n      add\n      swap1\n      tag_106\n      swap3\n      swap2\n      swap1\n      tag_94\n      jump\t// in\n    tag_106:\n      pop\n        /* \"contracts/Profile.sol\":3193:3202  framework */\n      dup2\n        /* \"contracts/Profile.sol\":3155:3162  profile */\n      0x00\n        /* \"contracts/Profile.sol\":3155:3174  profile[msg.sender] */\n      dup1\n        /* \"contracts/Profile.sol\":3163:3173  msg.sender */\n      caller\n        /* \"contracts/Profile.sol\":3155:3174  profile[msg.sender] */\n      0xffffffffffffffffffffffffffffffffffffffff\n      and\n      0xffffffffffffffffffffffffffffffffffffffff\n      and\n      dup2\n      mstore\n      0x20\n      add\n      swap1\n      dup2\n      mstore\n      0x20\n      add\n      0x00\n      keccak256\n        /* \"contracts/Profile.sol\":3155:3180  profile[msg.sender].skill */\n      0x0e\n      add\n        /* \"contracts/Profile.sol\":3155:3190  profile[msg.sender].skill.framework */\n      0x01\n      add\n        /* \"contracts/Profile.sol\":3155:3202  profile[msg.sender].skill.framework = framework */\n      swap1\n      dup1\n      mload\n      swap1\n      0x20\n      add\n      swap1\n      tag_107\n      swap3\n      swap2\n      swap1\n      tag_94\n      jump\t// in\n    tag_107:\n      pop\n        /* \"contracts/Profile.sol\":3258:3274  databaseAndOther */\n      dup1\n        /* \"contracts/Profile.sol\":3213:3220  profile */\n      0x00\n        /* \"contracts/Profile.sol\":3213:3232  profile[msg.sender] */\n      dup1\n        /* \"contracts/Profile.sol\":3221:3231  msg.sender */\n      caller\n        /* \"contracts/Profile.sol\":3213:3232  profile[msg.sender] */\n      0xffffffffffffffffffffffffffffffffffffffff\n      and\n      0xffffffffffffffffffffffffffffffffffffffff\n      and\n      dup2\n      mstore\n      0x20\n      add\n      swap1\n      dup2\n      mstore\n      0x20\n      add\n      0x00\n      keccak256\n        /* \"contracts/Profile.sol\":3213:3238  profile[msg.sender].skill */\n      0x0e\n      add\n        /* \"contracts/Profile.sol\":3213:3255  profile[msg.sender].skill.databaseAndOther */\n      0x02\n      add\n        /* \"contracts/Profile.sol\":3213:3274  profile[msg.sender].skill.databaseAndOther = databaseAndOther */\n      swap1\n      dup1\n      mload\n      swap1\n      0x20\n      add\n      swap1\n      tag_108\n      swap3\n      swap2\n      swap1\n      tag_94\n      jump\t// in\n    tag_108:\n      pop\n        /* \"contracts/Profile.sol\":2894:3282  function createSkill(string[] memory programmingLanguages, string[] memory framework, string[] memory databaseAndOther) public {\r... */\n      pop\n      pop\n      pop\n      jump\t// out\n        /* \"contracts/Profile.sol\":5719:5827  function delCertificateAndAward() external {\r... */\n    tag_38:\n        /* \"contracts/Profile.sol\":5780:5787  profile */\n      0x00\n        /* \"contracts/Profile.sol\":5780:5799  profile[msg.sender] */\n      dup1\n        /* \"contracts/Profile.sol\":5788:5798  msg.sender */\n      caller\n        /* \"contracts/Profile.sol\":5780:5799  profile[msg.sender] */\n      0xffffffffffffffffffffffffffffffffffffffff\n      and\n      0xffffffffffffffffffffffffffffffffffffffff\n      and\n      dup2\n      mstore\n      0x20\n      add\n      swap1\n      dup2\n      mstore\n      0x20\n      add\n      0x00\n      keccak256\n        /* \"contracts/Profile.sol\":5780:5819  profile[msg.sender].certificateAndAward */\n      0x12\n      add\n      0x00\n        /* \"contracts/Profile.sol\":5773:5819  delete profile[msg.sender].certificateAndAward */\n      dup1\n      dup3\n      add\n      0x00\n      tag_110\n      swap2\n      swap1\n      tag_103\n      jump\t// in\n    tag_110:\n      0x01\n      dup3\n      add\n      0x00\n      tag_111\n      swap2\n      swap1\n      tag_103\n      jump\t// in\n    tag_111:\n      pop\n      pop\n        /* \"contracts/Profile.sol\":5719:5827  function delCertificateAndAward() external {\r... */\n      jump\t// out\n        /* \"contracts/Profile.sol\":4169:4287  function getEducationCount() public view returns (uint) {\r... */\n    tag_40:\n        /* \"contracts/Profile.sol\":4219:4223  uint */\n      0x00\n        /* \"contracts/Profile.sol\":4243:4250  profile */\n      dup1\n        /* \"contracts/Profile.sol\":4243:4262  profile[msg.sender] */\n      0x00\n        /* \"contracts/Profile.sol\":4251:4261  msg.sender */\n      caller\n        /* \"contracts/Profile.sol\":4243:4262  profile[msg.sender] */\n      0xffffffffffffffffffffffffffffffffffffffff\n      and\n      0xffffffffffffffffffffffffffffffffffffffff\n      and\n      dup2\n      mstore\n      0x20\n      add\n      swap1\n      dup2\n      mstore\n      0x20\n      add\n      0x00\n      keccak256\n        /* \"contracts/Profile.sol\":4243:4272  profile[msg.sender].education */\n      0x11\n      add\n        /* \"contracts/Profile.sol\":4243:4279  profile[msg.sender].education.length */\n      dup1\n      sload\n      swap1\n      pop\n        /* \"contracts/Profile.sol\":4236:4279  return profile[msg.sender].education.length */\n      swap1\n      pop\n        /* \"contracts/Profile.sol\":4169:4287  function getEducationCount() public view returns (uint) {\r... */\n      swap1\n      jump\t// out\n        /* \"contracts/Profile.sol\":4295:4523  function createAward(string[] memory award, string[] memory certificate) public {\r... */\n    tag_46:\n        /* \"contracts/Profile.sol\":4434:4439  award */\n      dup2\n        /* \"contracts/Profile.sol\":4386:4393  profile */\n      0x00\n        /* \"contracts/Profile.sol\":4386:4405  profile[msg.sender] */\n      dup1\n        /* \"contracts/Profile.sol\":4394:4404  msg.sender */\n      caller\n        /* \"contracts/Profile.sol\":4386:4405  profile[msg.sender] */\n      0xffffffffffffffffffffffffffffffffffffffff\n      and\n      0xffffffffffffffffffffffffffffffffffffffff\n      and\n      dup2\n      mstore\n      0x20\n      add\n      swap1\n      dup2\n      mstore\n      0x20\n      add\n      0x00\n      keccak256\n        /* \"contracts/Profile.sol\":4386:4425  profile[msg.sender].certificateAndAward */\n      0x12\n      add\n        /* \"contracts/Profile.sol\":4386:4431  profile[msg.sender].certificateAndAward.award */\n      0x01\n      add\n        /* \"contracts/Profile.sol\":4386:4439  profile[msg.sender].certificateAndAward.award = award */\n      swap1\n      dup1\n      mload\n      swap1\n      0x20\n      add\n      swap1\n      tag_114\n      swap3\n      swap2\n      swap1\n      tag_94\n      jump\t// in\n    tag_114:\n      pop\n        /* \"contracts/Profile.sol\":4504:4515  certificate */\n      dup1\n        /* \"contracts/Profile.sol\":4450:4457  profile */\n      0x00\n        /* \"contracts/Profile.sol\":4450:4469  profile[msg.sender] */\n      dup1\n        /* \"contracts/Profile.sol\":4458:4468  msg.sender */\n      caller\n        /* \"contracts/Profile.sol\":4450:4469  profile[msg.sender] */\n      0xffffffffffffffffffffffffffffffffffffffff\n      and\n      0xffffffffffffffffffffffffffffffffffffffff\n      and\n      dup2\n      mstore\n      0x20\n      add\n      swap1\n      dup2\n      mstore\n      0x20\n      add\n      0x00\n      keccak256\n        /* \"contracts/Profile.sol\":4450:4489  profile[msg.sender].certificateAndAward */\n      0x12\n      add\n        /* \"contracts/Profile.sol\":4450:4501  profile[msg.sender].certificateAndAward.certificate */\n      0x00\n      add\n        /* \"contracts/Profile.sol\":4450:4515  profile[msg.sender].certificateAndAward.certificate = certificate */\n      swap1\n      dup1\n      mload\n      swap1\n      0x20\n      add\n      swap1\n      tag_115\n      swap3\n      swap2\n      swap1\n      tag_94\n      jump\t// in\n    tag_115:\n      pop\n        /* \"contracts/Profile.sol\":4295:4523  function createAward(string[] memory award, string[] memory certificate) public {\r... */\n      pop\n      pop\n      jump\t// out\n        /* \"contracts/Profile.sol\":2374:2886  function createContract(string memory email, string memory phone, string memory github, string memory gitlab, string memory linkedin) public {\r... */\n    tag_50:\n        /* \"contracts/Profile.sol\":2533:2540  profile */\n      0x00\n        /* \"contracts/Profile.sol\":2533:2552  profile[msg.sender] */\n      dup1\n        /* \"contracts/Profile.sol\":2541:2551  msg.sender */\n      caller\n        /* \"contracts/Profile.sol\":2533:2552  profile[msg.sender] */\n      0xffffffffffffffffffffffffffffffffffffffff\n      and\n      0xffffffffffffffffffffffffffffffffffffffff\n      and\n      dup2\n      mstore\n      0x20\n      add\n      swap1\n      dup2\n      mstore\n      0x20\n      add\n      0x00\n      keccak256\n        /* \"contracts/Profile.sol\":2533:2568  profile[msg.sender].privateContract */\n      0x08\n      add\n      0x00\n        /* \"contracts/Profile.sol\":2526:2568  delete profile[msg.sender].privateContract */\n      dup1\n      dup3\n      add\n      0x00\n      tag_117\n      swap2\n      swap1\n      tag_118\n      jump\t// in\n    tag_117:\n      0x01\n      dup3\n      add\n      0x00\n      tag_119\n      swap2\n      swap1\n      tag_118\n      jump\t// in\n    tag_119:\n      0x02\n      dup3\n      add\n      0x00\n      tag_120\n      swap2\n      swap1\n      tag_118\n      jump\t// in\n    tag_120:\n      0x03\n      dup3\n      add\n      0x00\n      tag_121\n      swap2\n      swap1\n      tag_118\n      jump\t// in\n    tag_121:\n      0x04\n      dup3\n      add\n      0x00\n      tag_122\n      swap2\n      swap1\n      tag_118\n      jump\t// in\n    tag_122:\n      0x05\n      dup3\n      add\n      0x00\n      tag_123\n      swap2\n      swap1\n      tag_118\n      jump\t// in\n    tag_123:\n      pop\n      pop\n        /* \"contracts/Profile.sol\":2623:2628  email */\n      dup5\n        /* \"contracts/Profile.sol\":2579:2586  profile */\n      0x00\n        /* \"contracts/Profile.sol\":2579:2598  profile[msg.sender] */\n      dup1\n        /* \"contracts/Profile.sol\":2587:2597  msg.sender */\n      caller\n        /* \"contracts/Profile.sol\":2579:2598  profile[msg.sender] */\n      0xffffffffffffffffffffffffffffffffffffffff\n      and\n      0xffffffffffffffffffffffffffffffffffffffff\n      and\n      dup2\n      mstore\n      0x20\n      add\n      swap1\n      dup2\n      mstore\n      0x20\n      add\n      0x00\n      keccak256\n        /* \"contracts/Profile.sol\":2579:2614  profile[msg.sender].privateContract */\n      0x08\n      add\n        /* \"contracts/Profile.sol\":2579:2620  profile[msg.sender].privateContract.email */\n      0x01\n      add\n        /* \"contracts/Profile.sol\":2579:2628  profile[msg.sender].privateContract.email = email */\n      swap1\n      dup1\n      mload\n      swap1\n      0x20\n      add\n      swap1\n      tag_124\n      swap3\n      swap2\n      swap1\n      tag_89\n      jump\t// in\n    tag_124:\n      pop\n        /* \"contracts/Profile.sol\":2683:2688  phone */\n      dup4\n        /* \"contracts/Profile.sol\":2639:2646  profile */\n      0x00\n        /* \"contracts/Profile.sol\":2639:2658  profile[msg.sender] */\n      dup1\n        /* \"contracts/Profile.sol\":2647:2657  msg.sender */\n      caller\n        /* \"contracts/Profile.sol\":2639:2658  profile[msg.sender] */\n      0xffffffffffffffffffffffffffffffffffffffff\n      and\n      0xffffffffffffffffffffffffffffffffffffffff\n      and\n      dup2\n      mstore\n      0x20\n      add\n      swap1\n      dup2\n      mstore\n      0x20\n      add\n      0x00\n      keccak256\n        /* \"contracts/Profile.sol\":2639:2674  profile[msg.sender].privateContract */\n      0x08\n      add\n        /* \"contracts/Profile.sol\":2639:2680  profile[msg.sender].privateContract.phone */\n      0x02\n      add\n        /* \"contracts/Profile.sol\":2639:2688  profile[msg.sender].privateContract.phone = phone */\n      swap1\n      dup1\n      mload\n      swap1\n      0x20\n      add\n      swap1\n      tag_125\n      swap3\n      swap2\n      swap1\n      tag_89\n      jump\t// in\n    tag_125:\n      pop\n        /* \"contracts/Profile.sol\":2744:2750  github */\n      dup3\n        /* \"contracts/Profile.sol\":2699:2706  profile */\n      0x00\n        /* \"contracts/Profile.sol\":2699:2718  profile[msg.sender] */\n      dup1\n        /* \"contracts/Profile.sol\":2707:2717  msg.sender */\n      caller\n        /* \"contracts/Profile.sol\":2699:2718  profile[msg.sender] */\n      0xffffffffffffffffffffffffffffffffffffffff\n      and\n      0xffffffffffffffffffffffffffffffffffffffff\n      and\n      dup2\n      mstore\n      0x20\n      add\n      swap1\n      dup2\n      mstore\n      0x20\n      add\n      0x00\n      keccak256\n        /* \"contracts/Profile.sol\":2699:2734  profile[msg.sender].privateContract */\n      0x08\n      add\n        /* \"contracts/Profile.sol\":2699:2741  profile[msg.sender].privateContract.github */\n      0x03\n      add\n        /* \"contracts/Profile.sol\":2699:2750  profile[msg.sender].privateContract.github = github */\n      swap1\n      dup1\n      mload\n      swap1\n      0x20\n      add\n      swap1\n      tag_126\n      swap3\n      swap2\n      swap1\n      tag_89\n      jump\t// in\n    tag_126:\n      pop\n        /* \"contracts/Profile.sol\":2806:2812  gitlab */\n      dup2\n        /* \"contracts/Profile.sol\":2761:2768  profile */\n      0x00\n        /* \"contracts/Profile.sol\":2761:2780  profile[msg.sender] */\n      dup1\n        /* \"contracts/Profile.sol\":2769:2779  msg.sender */\n      caller\n        /* \"contracts/Profile.sol\":2761:2780  profile[msg.sender] */\n      0xffffffffffffffffffffffffffffffffffffffff\n      and\n      0xffffffffffffffffffffffffffffffffffffffff\n      and\n      dup2\n      mstore\n      0x20\n      add\n      swap1\n      dup2\n      mstore\n      0x20\n      add\n      0x00\n      keccak256\n        /* \"contracts/Profile.sol\":2761:2796  profile[msg.sender].privateContract */\n      0x08\n      add\n        /* \"contracts/Profile.sol\":2761:2803  profile[msg.sender].privateContract.gitlab */\n      0x04\n      add\n        /* \"contracts/Profile.sol\":2761:2812  profile[msg.sender].privateContract.gitlab = gitlab */\n      swap1\n      dup1\n      mload\n      swap1\n      0x20\n      add\n      swap1\n      tag_127\n      swap3\n      swap2\n      swap1\n      tag_89\n      jump\t// in\n    tag_127:\n      pop\n        /* \"contracts/Profile.sol\":2870:2878  linkedin */\n      dup1\n        /* \"contracts/Profile.sol\":2823:2830  profile */\n      0x00\n        /* \"contracts/Profile.sol\":2823:2842  profile[msg.sender] */\n      dup1\n        /* \"contracts/Profile.sol\":2831:2841  msg.sender */\n      caller\n        /* \"contracts/Profile.sol\":2823:2842  profile[msg.sender] */\n      0xffffffffffffffffffffffffffffffffffffffff\n      and\n      0xffffffffffffffffffffffffffffffffffffffff\n      and\n      dup2\n      mstore\n      0x20\n      add\n      swap1\n      dup2\n      mstore\n      0x20\n      add\n      0x00\n      keccak256\n        /* \"contracts/Profile.sol\":2823:2858  profile[msg.sender].privateContract */\n      0x08\n      add\n        /* \"contracts/Profile.sol\":2823:2867  profile[msg.sender].privateContract.linkedin */\n      0x05\n      add\n        /* \"contracts/Profile.sol\":2823:2878  profile[msg.sender].privateContract.linkedin = linkedin */\n      swap1\n      dup1\n      mload\n      swap1\n      0x20\n      add\n      swap1\n      tag_128\n      swap3\n      swap2\n      swap1\n      tag_89\n      jump\t// in\n    tag_128:\n      pop\n        /* \"contracts/Profile.sol\":2374:2886  function createContract(string memory email, string memory phone, string memory github, string memory gitlab, string memory linkedin) public {\r... */\n      pop\n      pop\n      pop\n      pop\n      pop\n      jump\t// out\n        /* \"contracts/Profile.sol\":1650:2366  function createInformation(string memory firstName, string memory middleName, string memory lastName,  string memory profileImage, string memory aboutMe, string memory position) public {\r... */\n    tag_54:\n        /* \"contracts/Profile.sol\":1890:1899  firstName */\n      dup6\n        /* \"contracts/Profile.sol\":1846:1853  profile */\n      0x00\n        /* \"contracts/Profile.sol\":1846:1865  profile[msg.sender] */\n      dup1\n        /* \"contracts/Profile.sol\":1854:1864  msg.sender */\n      caller\n        /* \"contracts/Profile.sol\":1846:1865  profile[msg.sender] */\n      0xffffffffffffffffffffffffffffffffffffffff\n      and\n      0xffffffffffffffffffffffffffffffffffffffff\n      and\n      dup2\n      mstore\n      0x20\n      add\n      swap1\n      dup2\n      mstore\n      0x20\n      add\n      0x00\n      keccak256\n        /* \"contracts/Profile.sol\":1846:1877  profile[msg.sender].information */\n      0x00\n      add\n        /* \"contracts/Profile.sol\":1846:1887  profile[msg.sender].information.firstName */\n      0x03\n      add\n        /* \"contracts/Profile.sol\":1846:1899  profile[msg.sender].information.firstName = firstName */\n      swap1\n      dup1\n      mload\n      swap1\n      0x20\n      add\n      swap1\n      tag_130\n      swap3\n      swap2\n      swap1\n      tag_89\n      jump\t// in\n    tag_130:\n      pop\n        /* \"contracts/Profile.sol\":1955:1965  middleName */\n      dup5\n        /* \"contracts/Profile.sol\":1910:1917  profile */\n      0x00\n        /* \"contracts/Profile.sol\":1910:1929  profile[msg.sender] */\n      dup1\n        /* \"contracts/Profile.sol\":1918:1928  msg.sender */\n      caller\n        /* \"contracts/Profile.sol\":1910:1929  profile[msg.sender] */\n      0xffffffffffffffffffffffffffffffffffffffff\n      and\n      0xffffffffffffffffffffffffffffffffffffffff\n      and\n      dup2\n      mstore\n      0x20\n      add\n      swap1\n      dup2\n      mstore\n      0x20\n      add\n      0x00\n      keccak256\n        /* \"contracts/Profile.sol\":1910:1941  profile[msg.sender].information */\n      0x00\n      add\n        /* \"contracts/Profile.sol\":1910:1952  profile[msg.sender].information.middleName */\n      0x04\n      add\n        /* \"contracts/Profile.sol\":1910:1965  profile[msg.sender].information.middleName = middleName */\n      swap1\n      dup1\n      mload\n      swap1\n      0x20\n      add\n      swap1\n      tag_131\n      swap3\n      swap2\n      swap1\n      tag_89\n      jump\t// in\n    tag_131:\n      pop\n        /* \"contracts/Profile.sol\":2019:2027  lastName */\n      dup4\n        /* \"contracts/Profile.sol\":1976:1983  profile */\n      0x00\n        /* \"contracts/Profile.sol\":1976:1995  profile[msg.sender] */\n      dup1\n        /* \"contracts/Profile.sol\":1984:1994  msg.sender */\n      caller\n        /* \"contracts/Profile.sol\":1976:1995  profile[msg.sender] */\n      0xffffffffffffffffffffffffffffffffffffffff\n      and\n      0xffffffffffffffffffffffffffffffffffffffff\n      and\n      dup2\n      mstore\n      0x20\n      add\n      swap1\n      dup2\n      mstore\n      0x20\n      add\n      0x00\n      keccak256\n        /* \"contracts/Profile.sol\":1976:2007  profile[msg.sender].information */\n      0x00\n      add\n        /* \"contracts/Profile.sol\":1976:2016  profile[msg.sender].information.lastName */\n      0x05\n      add\n        /* \"contracts/Profile.sol\":1976:2027  profile[msg.sender].information.lastName = lastName */\n      swap1\n      dup1\n      mload\n      swap1\n      0x20\n      add\n      swap1\n      tag_132\n      swap3\n      swap2\n      swap1\n      tag_89\n      jump\t// in\n    tag_132:\n      pop\n        /* \"contracts/Profile.sol\":2085:2097  profileImage */\n      dup3\n        /* \"contracts/Profile.sol\":2038:2045  profile */\n      0x00\n        /* \"contracts/Profile.sol\":2038:2057  profile[msg.sender] */\n      dup1\n        /* \"contracts/Profile.sol\":2046:2056  msg.sender */\n      caller\n        /* \"contracts/Profile.sol\":2038:2057  profile[msg.sender] */\n      0xffffffffffffffffffffffffffffffffffffffff\n      and\n      0xffffffffffffffffffffffffffffffffffffffff\n      and\n      dup2\n      mstore\n      0x20\n      add\n      swap1\n      dup2\n      mstore\n      0x20\n      add\n      0x00\n      keccak256\n        /* \"contracts/Profile.sol\":2038:2069  profile[msg.sender].information */\n      0x00\n      add\n        /* \"contracts/Profile.sol\":2038:2082  profile[msg.sender].information.profileImage */\n      0x06\n      add\n        /* \"contracts/Profile.sol\":2038:2097  profile[msg.sender].information.profileImage = profileImage */\n      swap1\n      dup1\n      mload\n      swap1\n      0x20\n      add\n      swap1\n      tag_133\n      swap3\n      swap2\n      swap1\n      tag_89\n      jump\t// in\n    tag_133:\n      pop\n        /* \"contracts/Profile.sol\":2150:2157  aboutMe */\n      dup2\n        /* \"contracts/Profile.sol\":2108:2115  profile */\n      0x00\n        /* \"contracts/Profile.sol\":2108:2127  profile[msg.sender] */\n      dup1\n        /* \"contracts/Profile.sol\":2116:2126  msg.sender */\n      caller\n        /* \"contracts/Profile.sol\":2108:2127  profile[msg.sender] */\n      0xffffffffffffffffffffffffffffffffffffffff\n      and\n      0xffffffffffffffffffffffffffffffffffffffff\n      and\n      dup2\n      mstore\n      0x20\n      add\n      swap1\n      dup2\n      mstore\n      0x20\n      add\n      0x00\n      keccak256\n        /* \"contracts/Profile.sol\":2108:2139  profile[msg.sender].information */\n      0x00\n      add\n        /* \"contracts/Profile.sol\":2108:2147  profile[msg.sender].information.aboutMe */\n      0x00\n      add\n        /* \"contracts/Profile.sol\":2108:2157  profile[msg.sender].information.aboutMe = aboutMe */\n      swap1\n      dup1\n      mload\n      swap1\n      0x20\n      add\n      swap1\n      tag_134\n      swap3\n      swap2\n      swap1\n      tag_89\n      jump\t// in\n    tag_134:\n      pop\n        /* \"contracts/Profile.sol\":2211:2219  position */\n      dup1\n        /* \"contracts/Profile.sol\":2168:2175  profile */\n      0x00\n        /* \"contracts/Profile.sol\":2168:2187  profile[msg.sender] */\n      dup1\n        /* \"contracts/Profile.sol\":2176:2186  msg.sender */\n      caller\n        /* \"contracts/Profile.sol\":2168:2187  profile[msg.sender] */\n      0xffffffffffffffffffffffffffffffffffffffff\n      and\n      0xffffffffffffffffffffffffffffffffffffffff\n      and\n      dup2\n      mstore\n      0x20\n      add\n      swap1\n      dup2\n      mstore\n      0x20\n      add\n      0x00\n      keccak256\n        /* \"contracts/Profile.sol\":2168:2199  profile[msg.sender].information */\n      0x00\n      add\n        /* \"contracts/Profile.sol\":2168:2208  profile[msg.sender].information.position */\n      0x01\n      add\n        /* \"contracts/Profile.sol\":2168:2219  profile[msg.sender].information.position = position */\n      swap1\n      dup1\n      mload\n      swap1\n      0x20\n      add\n      swap1\n      tag_135\n      swap3\n      swap2\n      swap1\n      tag_89\n      jump\t// in\n    tag_135:\n      pop\n        /* \"contracts/Profile.sol\":2276:2286  msg.sender */\n      caller\n        /* \"contracts/Profile.sol\":2230:2237  profile */\n      0x00\n        /* \"contracts/Profile.sol\":2230:2249  profile[msg.sender] */\n      dup1\n        /* \"contracts/Profile.sol\":2238:2248  msg.sender */\n      caller\n        /* \"contracts/Profile.sol\":2230:2249  profile[msg.sender] */\n      0xffffffffffffffffffffffffffffffffffffffff\n      and\n      0xffffffffffffffffffffffffffffffffffffffff\n      and\n      dup2\n      mstore\n      0x20\n      add\n      swap1\n      dup2\n      mstore\n      0x20\n      add\n      0x00\n      keccak256\n        /* \"contracts/Profile.sol\":2230:2261  profile[msg.sender].information */\n      0x00\n      add\n        /* \"contracts/Profile.sol\":2230:2273  profile[msg.sender].information.userAddress */\n      0x02\n      add\n      0x00\n        /* \"contracts/Profile.sol\":2230:2286  profile[msg.sender].information.userAddress = msg.sender */\n      0x0100\n      exp\n      dup2\n      sload\n      dup2\n      0xffffffffffffffffffffffffffffffffffffffff\n      mul\n      not\n      and\n      swap1\n      dup4\n      0xffffffffffffffffffffffffffffffffffffffff\n      and\n      mul\n      or\n      swap1\n      sstore\n      pop\n        /* \"contracts/Profile.sol\":2343:2358  block.timestamp */\n      timestamp\n        /* \"contracts/Profile.sol\":2298:2305  profile */\n      0x00\n        /* \"contracts/Profile.sol\":2298:2317  profile[msg.sender] */\n      dup1\n        /* \"contracts/Profile.sol\":2306:2316  msg.sender */\n      caller\n        /* \"contracts/Profile.sol\":2298:2317  profile[msg.sender] */\n      0xffffffffffffffffffffffffffffffffffffffff\n      and\n      0xffffffffffffffffffffffffffffffffffffffff\n      and\n      dup2\n      mstore\n      0x20\n      add\n      swap1\n      dup2\n      mstore\n      0x20\n      add\n      0x00\n      keccak256\n        /* \"contracts/Profile.sol\":2298:2329  profile[msg.sender].information */\n      0x00\n      add\n        /* \"contracts/Profile.sol\":2298:2340  profile[msg.sender].information.createDate */\n      0x07\n      add\n        /* \"contracts/Profile.sol\":2298:2358  profile[msg.sender].information.createDate = block.timestamp */\n      dup2\n      swap1\n      sstore\n      pop\n        /* \"contracts/Profile.sol\":1650:2366  function createInformation(string memory firstName, string memory middleName, string memory lastName,  string memory profileImage, string memory aboutMe, string memory position) public {\r... */\n      pop\n      pop\n      pop\n      pop\n      pop\n      pop\n      jump\t// out\n        /* \"contracts/Profile.sol\":5535:5627  function delInformaion() external  {\r... */\n    tag_56:\n        /* \"contracts/Profile.sol\":5588:5595  profile */\n      0x00\n        /* \"contracts/Profile.sol\":5588:5607  profile[msg.sender] */\n      dup1\n        /* \"contracts/Profile.sol\":5596:5606  msg.sender */\n      caller\n        /* \"contracts/Profile.sol\":5588:5607  profile[msg.sender] */\n      0xffffffffffffffffffffffffffffffffffffffff\n      and\n      0xffffffffffffffffffffffffffffffffffffffff\n      and\n      dup2\n      mstore\n      0x20\n      add\n      swap1\n      dup2\n      mstore\n      0x20\n      add\n      0x00\n      keccak256\n        /* \"contracts/Profile.sol\":5588:5619  profile[msg.sender].information */\n      0x00\n      add\n      0x00\n        /* \"contracts/Profile.sol\":5581:5619  delete profile[msg.sender].information */\n      dup1\n      dup3\n      add\n      0x00\n      tag_137\n      swap2\n      swap1\n      tag_118\n      jump\t// in\n    tag_137:\n      0x01\n      dup3\n      add\n      0x00\n      tag_138\n      swap2\n      swap1\n      tag_118\n      jump\t// in\n    tag_138:\n      0x02\n      dup3\n      add\n      exp(0x0100, 0x00)\n      dup2\n      sload\n      swap1\n      0xffffffffffffffffffffffffffffffffffffffff\n      mul\n      not\n      and\n      swap1\n      sstore\n      0x03\n      dup3\n      add\n      0x00\n      tag_139\n      swap2\n      swap1\n      tag_118\n      jump\t// in\n    tag_139:\n      0x04\n      dup3\n      add\n      0x00\n      tag_140\n      swap2\n      swap1\n      tag_118\n      jump\t// in\n    tag_140:\n      0x05\n      dup3\n      add\n      0x00\n      tag_141\n      swap2\n      swap1\n      tag_118\n      jump\t// in\n    tag_141:\n      0x06\n      dup3\n      add\n      0x00\n      tag_142\n      swap2\n      swap1\n      tag_118\n      jump\t// in\n    tag_142:\n      0x07\n      dup3\n      add\n      0x00\n      swap1\n      sstore\n      pop\n      pop\n        /* \"contracts/Profile.sol\":5535:5627  function delInformaion() external  {\r... */\n      jump\t// out\n        /* \"contracts/Profile.sol\":384:424  mapping (address => Bio) public  profile */\n    tag_60:\n      mstore(0x20, 0x00)\n      dup1\n      0x00\n      mstore\n      keccak256(0x00, 0x40)\n      0x00\n      swap2\n      pop\n      swap1\n      pop\n      dup1\n      0x00\n      add\n      mload(0x40)\n      dup1\n      0x0100\n      add\n      0x40\n      mstore\n      swap1\n      dup2\n      0x00\n      dup3\n      add\n      dup1\n      sload\n      tag_143\n      swap1\n      tag_144\n      jump\t// in\n    tag_143:\n      dup1\n      0x1f\n      add\n      0x20\n      dup1\n      swap2\n      div\n      mul\n      0x20\n      add\n      mload(0x40)\n      swap1\n      dup2\n      add\n      0x40\n      mstore\n      dup1\n      swap3\n      swap2\n      swap1\n      dup2\n      dup2\n      mstore\n      0x20\n      add\n      dup3\n      dup1\n      sload\n      tag_145\n      swap1\n      tag_144\n      jump\t// in\n    tag_145:\n      dup1\n      iszero\n      tag_146\n      jumpi\n      dup1\n      0x1f\n      lt\n      tag_147\n      jumpi\n      0x0100\n      dup1\n      dup4\n      sload\n      div\n      mul\n      dup4\n      mstore\n      swap2\n      0x20\n      add\n      swap2\n      jump(tag_146)\n    tag_147:\n      dup3\n      add\n      swap2\n      swap1\n      0x00\n      mstore\n      keccak256(0x00, 0x20)\n      swap1\n    tag_148:\n      dup2\n      sload\n      dup2\n      mstore\n      swap1\n      0x01\n      add\n      swap1\n      0x20\n      add\n      dup1\n      dup4\n      gt\n      tag_148\n      jumpi\n      dup3\n      swap1\n      sub\n      0x1f\n      and\n      dup3\n      add\n      swap2\n    tag_146:\n      pop\n      pop\n      pop\n      pop\n      pop\n      dup2\n      mstore\n      0x20\n      add\n      0x01\n      dup3\n      add\n      dup1\n      sload\n      tag_149\n      swap1\n      tag_144\n      jump\t// in\n    tag_149:\n      dup1\n      0x1f\n      add\n      0x20\n      dup1\n      swap2\n      div\n      mul\n      0x20\n      add\n      mload(0x40)\n      swap1\n      dup2\n      add\n      0x40\n      mstore\n      dup1\n      swap3\n      swap2\n      swap1\n      dup2\n      dup2\n      mstore\n      0x20\n      add\n      dup3\n      dup1\n      sload\n      tag_150\n      swap1\n      tag_144\n      jump\t// in\n    tag_150:\n      dup1\n      iszero\n      tag_151\n      jumpi\n      dup1\n      0x1f\n      lt\n      tag_152\n      jumpi\n      0x0100\n      dup1\n      dup4\n      sload\n      div\n      mul\n      dup4\n      mstore\n      swap2\n      0x20\n      add\n      swap2\n      jump(tag_151)\n    tag_152:\n      dup3\n      add\n      swap2\n      swap1\n      0x00\n      mstore\n      keccak256(0x00, 0x20)\n      swap1\n    tag_153:\n      dup2\n      sload\n      dup2\n      mstore\n      swap1\n      0x01\n      add\n      swap1\n      0x20\n      add\n      dup1\n      dup4\n      gt\n      tag_153\n      jumpi\n      dup3\n      swap1\n      sub\n      0x1f\n      and\n      dup3\n      add\n      swap2\n    tag_151:\n      pop\n      pop\n      pop\n      pop\n      pop\n      dup2\n      mstore\n      0x20\n      add\n      0x02\n      dup3\n      add\n      0x00\n      swap1\n      sload\n      swap1\n      0x0100\n      exp\n      swap1\n      div\n      0xffffffffffffffffffffffffffffffffffffffff\n      and\n      0xffffffffffffffffffffffffffffffffffffffff\n      and\n      0xffffffffffffffffffffffffffffffffffffffff\n      and\n      dup2\n      mstore\n      0x20\n      add\n      0x03\n      dup3\n      add\n      dup1\n      sload\n      tag_154\n      swap1\n      tag_144\n      jump\t// in\n    tag_154:\n      dup1\n      0x1f\n      add\n      0x20\n      dup1\n      swap2\n      div\n      mul\n      0x20\n      add\n      mload(0x40)\n      swap1\n      dup2\n      add\n      0x40\n      mstore\n      dup1\n      swap3\n      swap2\n      swap1\n      dup2\n      dup2\n      mstore\n      0x20\n      add\n      dup3\n      dup1\n      sload\n      tag_155\n      swap1\n      tag_144\n      jump\t// in\n    tag_155:\n      dup1\n      iszero\n      tag_156\n      jumpi\n      dup1\n      0x1f\n      lt\n      tag_157\n      jumpi\n      0x0100\n      dup1\n      dup4\n      sload\n      div\n      mul\n      dup4\n      mstore\n      swap2\n      0x20\n      add\n      swap2\n      jump(tag_156)\n    tag_157:\n      dup3\n      add\n      swap2\n      swap1\n      0x00\n      mstore\n      keccak256(0x00, 0x20)\n      swap1\n    tag_158:\n      dup2\n      sload\n      dup2\n      mstore\n      swap1\n      0x01\n      add\n      swap1\n      0x20\n      add\n      dup1\n      dup4\n      gt\n      tag_158\n      jumpi\n      dup3\n      swap1\n      sub\n      0x1f\n      and\n      dup3\n      add\n      swap2\n    tag_156:\n      pop\n      pop\n      pop\n      pop\n      pop\n      dup2\n      mstore\n      0x20\n      add\n      0x04\n      dup3\n      add\n      dup1\n      sload\n      tag_159\n      swap1\n      tag_144\n      jump\t// in\n    tag_159:\n      dup1\n      0x1f\n      add\n      0x20\n      dup1\n      swap2\n      div\n      mul\n      0x20\n      add\n      mload(0x40)\n      swap1\n      dup2\n      add\n      0x40\n      mstore\n      dup1\n      swap3\n      swap2\n      swap1\n      dup2\n      dup2\n      mstore\n      0x20\n      add\n      dup3\n      dup1\n      sload\n      tag_160\n      swap1\n      tag_144\n      jump\t// in\n    tag_160:\n      dup1\n      iszero\n      tag_161\n      jumpi\n      dup1\n      0x1f\n      lt\n      tag_162\n      jumpi\n      0x0100\n      dup1\n      dup4\n      sload\n      div\n      mul\n      dup4\n      mstore\n      swap2\n      0x20\n      add\n      swap2\n      jump(tag_161)\n    tag_162:\n      dup3\n      add\n      swap2\n      swap1\n      0x00\n      mstore\n      keccak256(0x00, 0x20)\n      swap1\n    tag_163:\n      dup2\n      sload\n      dup2\n      mstore\n      swap1\n      0x01\n      add\n      swap1\n      0x20\n      add\n      dup1\n      dup4\n      gt\n      tag_163\n      jumpi\n      dup3\n      swap1\n      sub\n      0x1f\n      and\n      dup3\n      add\n      swap2\n    tag_161:\n      pop\n      pop\n      pop\n      pop\n      pop\n      dup2\n      mstore\n      0x20\n      add\n      0x05\n      dup3\n      add\n      dup1\n      sload\n      tag_164\n      swap1\n      tag_144\n      jump\t// in\n    tag_164:\n      dup1\n      0x1f\n      add\n      0x20\n      dup1\n      swap2\n      div\n      mul\n      0x20\n      add\n      mload(0x40)\n      swap1\n      dup2\n      add\n      0x40\n      mstore\n      dup1\n      swap3\n      swap2\n      swap1\n      dup2\n      dup2\n      mstore\n      0x20\n      add\n      dup3\n      dup1\n      sload\n      tag_165\n      swap1\n      tag_144\n      jump\t// in\n    tag_165:\n      dup1\n      iszero\n      tag_166\n      jumpi\n      dup1\n      0x1f\n      lt\n      tag_167\n      jumpi\n      0x0100\n      dup1\n      dup4\n      sload\n      div\n      mul\n      dup4\n      mstore\n      swap2\n      0x20\n      add\n      swap2\n      jump(tag_166)\n    tag_167:\n      dup3\n      add\n      swap2\n      swap1\n      0x00\n      mstore\n      keccak256(0x00, 0x20)\n      swap1\n    tag_168:\n      dup2\n      sload\n      dup2\n      mstore\n      swap1\n      0x01\n      add\n      swap1\n      0x20\n      add\n      dup1\n      dup4\n      gt\n      tag_168\n      jumpi\n      dup3\n      swap1\n      sub\n      0x1f\n      and\n      dup3\n      add\n      swap2\n    tag_166:\n      pop\n      pop\n      pop\n      pop\n      pop\n      dup2\n      mstore\n      0x20\n      add\n      0x06\n      dup3\n      add\n      dup1\n      sload\n      tag_169\n      swap1\n      tag_144\n      jump\t// in\n    tag_169:\n      dup1\n      0x1f\n      add\n      0x20\n      dup1\n      swap2\n      div\n      mul\n      0x20\n      add\n      mload(0x40)\n      swap1\n      dup2\n      add\n      0x40\n      mstore\n      dup1\n      swap3\n      swap2\n      swap1\n      dup2\n      dup2\n      mstore\n      0x20\n      add\n      dup3\n      dup1\n      sload\n      tag_170\n      swap1\n      tag_144\n      jump\t// in\n    tag_170:\n      dup1\n      iszero\n      tag_171\n      jumpi\n      dup1\n      0x1f\n      lt\n      tag_172\n      jumpi\n      0x0100\n      dup1\n      dup4\n      sload\n      div\n      mul\n      dup4\n      mstore\n      swap2\n      0x20\n      add\n      swap2\n      jump(tag_171)\n    tag_172:\n      dup3\n      add\n      swap2\n      swap1\n      0x00\n      mstore\n      keccak256(0x00, 0x20)\n      swap1\n    tag_173:\n      dup2\n      sload\n      dup2\n      mstore\n      swap1\n      0x01\n      add\n      swap1\n      0x20\n      add\n      dup1\n      dup4\n      gt\n      tag_173\n      jumpi\n      dup3\n      swap1\n      sub\n      0x1f\n      and\n      dup3\n      add\n      swap2\n    tag_171:\n      pop\n      pop\n      pop\n      pop\n      pop\n      dup2\n      mstore\n      0x20\n      add\n      0x07\n      dup3\n      add\n      sload\n      dup2\n      mstore\n      pop\n      pop\n      swap1\n      dup1\n      0x08\n      add\n      mload(0x40)\n      dup1\n      0xc0\n      add\n      0x40\n      mstore\n      swap1\n      dup2\n      0x00\n      dup3\n      add\n      dup1\n      sload\n      tag_174\n      swap1\n      tag_144\n      jump\t// in\n    tag_174:\n      dup1\n      0x1f\n      add\n      0x20\n      dup1\n      swap2\n      div\n      mul\n      0x20\n      add\n      mload(0x40)\n      swap1\n      dup2\n      add\n      0x40\n      mstore\n      dup1\n      swap3\n      swap2\n      swap1\n      dup2\n      dup2\n      mstore\n      0x20\n      add\n      dup3\n      dup1\n      sload\n      tag_175\n      swap1\n      tag_144\n      jump\t// in\n    tag_175:\n      dup1\n      iszero\n      tag_176\n      jumpi\n      dup1\n      0x1f\n      lt\n      tag_177\n      jumpi\n      0x0100\n      dup1\n      dup4\n      sload\n      div\n      mul\n      dup4\n      mstore\n      swap2\n      0x20\n      add\n      swap2\n      jump(tag_176)\n    tag_177:\n      dup3\n      add\n      swap2\n      swap1\n      0x00\n      mstore\n      keccak256(0x00, 0x20)\n      swap1\n    tag_178:\n      dup2\n      sload\n      dup2\n      mstore\n      swap1\n      0x01\n      add\n      swap1\n      0x20\n      add\n      dup1\n      dup4\n      gt\n      tag_178\n      jumpi\n      dup3\n      swap1\n      sub\n      0x1f\n      and\n      dup3\n      add\n      swap2\n    tag_176:\n      pop\n      pop\n      pop\n      pop\n      pop\n      dup2\n      mstore\n      0x20\n      add\n      0x01\n      dup3\n      add\n      dup1\n      sload\n      tag_179\n      swap1\n      tag_144\n      jump\t// in\n    tag_179:\n      dup1\n      0x1f\n      add\n      0x20\n      dup1\n      swap2\n      div\n      mul\n      0x20\n      add\n      mload(0x40)\n      swap1\n      dup2\n      add\n      0x40\n      mstore\n      dup1\n      swap3\n      swap2\n      swap1\n      dup2\n      dup2\n      mstore\n      0x20\n      add\n      dup3\n      dup1\n      sload\n      tag_180\n      swap1\n      tag_144\n      jump\t// in\n    tag_180:\n      dup1\n      iszero\n      tag_181\n      jumpi\n      dup1\n      0x1f\n      lt\n      tag_182\n      jumpi\n      0x0100\n      dup1\n      dup4\n      sload\n      div\n      mul\n      dup4\n      mstore\n      swap2\n      0x20\n      add\n      swap2\n      jump(tag_181)\n    tag_182:\n      dup3\n      add\n      swap2\n      swap1\n      0x00\n      mstore\n      keccak256(0x00, 0x20)\n      swap1\n    tag_183:\n      dup2\n      sload\n      dup2\n      mstore\n      swap1\n      0x01\n      add\n      swap1\n      0x20\n      add\n      dup1\n      dup4\n      gt\n      tag_183\n      jumpi\n      dup3\n      swap1\n      sub\n      0x1f\n      and\n      dup3\n      add\n      swap2\n    tag_181:\n      pop\n      pop\n      pop\n      pop\n      pop\n      dup2\n      mstore\n      0x20\n      add\n      0x02\n      dup3\n      add\n      dup1\n      sload\n      tag_184\n      swap1\n      tag_144\n      jump\t// in\n    tag_184:\n      dup1\n      0x1f\n      add\n      0x20\n      dup1\n      swap2\n      div\n      mul\n      0x20\n      add\n      mload(0x40)\n      swap1\n      dup2\n      add\n      0x40\n      mstore\n      dup1\n      swap3\n      swap2\n      swap1\n      dup2\n      dup2\n      mstore\n      0x20\n      add\n      dup3\n      dup1\n      sload\n      tag_185\n      swap1\n      tag_144\n      jump\t// in\n    tag_185:\n      dup1\n      iszero\n      tag_186\n      jumpi\n      dup1\n      0x1f\n      lt\n      tag_187\n      jumpi\n      0x0100\n      dup1\n      dup4\n      sload\n      div\n      mul\n      dup4\n      mstore\n      swap2\n      0x20\n      add\n      swap2\n      jump(tag_186)\n    tag_187:\n      dup3\n      add\n      swap2\n      swap1\n      0x00\n      mstore\n      keccak256(0x00, 0x20)\n      swap1\n    tag_188:\n      dup2\n      sload\n      dup2\n      mstore\n      swap1\n      0x01\n      add\n      swap1\n      0x20\n      add\n      dup1\n      dup4\n      gt\n      tag_188\n      jumpi\n      dup3\n      swap1\n      sub\n      0x1f\n      and\n      dup3\n      add\n      swap2\n    tag_186:\n      pop\n      pop\n      pop\n      pop\n      pop\n      dup2\n      mstore\n      0x20\n      add\n      0x03\n      dup3\n      add\n      dup1\n      sload\n      tag_189\n      swap1\n      tag_144\n      jump\t// in\n    tag_189:\n      dup1\n      0x1f\n      add\n      0x20\n      dup1\n      swap2\n      div\n      mul\n      0x20\n      add\n      mload(0x40)\n      swap1\n      dup2\n      add\n      0x40\n      mstore\n      dup1\n      swap3\n      swap2\n      swap1\n      dup2\n      dup2\n      mstore\n      0x20\n      add\n      dup3\n      dup1\n      sload\n      tag_190\n      swap1\n      tag_144\n      jump\t// in\n    tag_190:\n      dup1\n      iszero\n      tag_191\n      jumpi\n      dup1\n      0x1f\n      lt\n      tag_192\n      jumpi\n      0x0100\n      dup1\n      dup4\n      sload\n      div\n      mul\n      dup4\n      mstore\n      swap2\n      0x20\n      add\n      swap2\n      jump(tag_191)\n    tag_192:\n      dup3\n      add\n      swap2\n      swap1\n      0x00\n      mstore\n      keccak256(0x00, 0x20)\n      swap1\n    tag_193:\n      dup2\n      sload\n      dup2\n      mstore\n      swap1\n      0x01\n      add\n      swap1\n      0x20\n      add\n      dup1\n      dup4\n      gt\n      tag_193\n      jumpi\n      dup3\n      swap1\n      sub\n      0x1f\n      and\n      dup3\n      add\n      swap2\n    tag_191:\n      pop\n      pop\n      pop\n      pop\n      pop\n      dup2\n      mstore\n      0x20\n      add\n      0x04\n      dup3\n      add\n      dup1\n      sload\n      tag_194\n      swap1\n      tag_144\n      jump\t// in\n    tag_194:\n      dup1\n      0x1f\n      add\n      0x20\n      dup1\n      swap2\n      div\n      mul\n      0x20\n      add\n      mload(0x40)\n      swap1\n      dup2\n      add\n      0x40\n      mstore\n      dup1\n      swap3\n      swap2\n      swap1\n      dup2\n      dup2\n      mstore\n      0x20\n      add\n      dup3\n      dup1\n      sload\n      tag_195\n      swap1\n      tag_144\n      jump\t// in\n    tag_195:\n      dup1\n      iszero\n      tag_196\n      jumpi\n      dup1\n      0x1f\n      lt\n      tag_197\n      jumpi\n      0x0100\n      dup1\n      dup4\n      sload\n      div\n      mul\n      dup4\n      mstore\n      swap2\n      0x20\n      add\n      swap2\n      jump(tag_196)\n    tag_197:\n      dup3\n      add\n      swap2\n      swap1\n      0x00\n      mstore\n      keccak256(0x00, 0x20)\n      swap1\n    tag_198:\n      dup2\n      sload\n      dup2\n      mstore\n      swap1\n      0x01\n      add\n      swap1\n      0x20\n      add\n      dup1\n      dup4\n      gt\n      tag_198\n      jumpi\n      dup3\n      swap1\n      sub\n      0x1f\n      and\n      dup3\n      add\n      swap2\n    tag_196:\n      pop\n      pop\n      pop\n      pop\n      pop\n      dup2\n      mstore\n      0x20\n      add\n      0x05\n      dup3\n      add\n      dup1\n      sload\n      tag_199\n      swap1\n      tag_144\n      jump\t// in\n    tag_199:\n      dup1\n      0x1f\n      add\n      0x20\n      dup1\n      swap2\n      div\n      mul\n      0x20\n      add\n      mload(0x40)\n      swap1\n      dup2\n      add\n      0x40\n      mstore\n      dup1\n      swap3\n      swap2\n      swap1\n      dup2\n      dup2\n      mstore\n      0x20\n      add\n      dup3\n      dup1\n      sload\n      tag_200\n      swap1\n      tag_144\n      jump\t// in\n    tag_200:\n      dup1\n      iszero\n      tag_201\n      jumpi\n      dup1\n      0x1f\n      lt\n      tag_202\n      jumpi\n      0x0100\n      dup1\n      dup4\n      sload\n      div\n      mul\n      dup4\n      mstore\n      swap2\n      0x20\n      add\n      swap2\n      jump(tag_201)\n    tag_202:\n      dup3\n      add\n      swap2\n      swap1\n      0x00\n      mstore\n      keccak256(0x00, 0x20)\n      swap1\n    tag_203:\n      dup2\n      sload\n      dup2\n      mstore\n      swap1\n      0x01\n      add\n      swap1\n      0x20\n      add\n      dup1\n      dup4\n      gt\n      tag_203\n      jumpi\n      dup3\n      swap1\n      sub\n      0x1f\n      and\n      dup3\n      add\n      swap2\n    tag_201:\n      pop\n      pop\n      pop\n      pop\n      pop\n      dup2\n      mstore\n      pop\n      pop\n      swap1\n      dup1\n      0x0e\n      add\n      mload(0x40)\n      dup1\n      0x60\n      add\n      0x40\n      mstore\n      swap1\n      dup2\n      0x00\n      dup3\n      add\n      dup1\n      sload\n      dup1\n      0x20\n      mul\n      0x20\n      add\n      mload(0x40)\n      swap1\n      dup2\n      add\n      0x40\n      mstore\n      dup1\n      swap3\n      swap2\n      swap1\n      dup2\n      dup2\n      mstore\n      0x20\n      add\n      0x00\n      swap1\n    tag_204:\n      dup3\n      dup3\n      lt\n      iszero\n      tag_205\n      jumpi\n      dup4\n      dup3\n      swap1\n      0x00\n      mstore\n      keccak256(0x00, 0x20)\n      add\n      dup1\n      sload\n      tag_207\n      swap1\n      tag_144\n      jump\t// in\n    tag_207:\n      dup1\n      0x1f\n      add\n      0x20\n      dup1\n      swap2\n      div\n      mul\n      0x20\n      add\n      mload(0x40)\n      swap1\n      dup2\n      add\n      0x40\n      mstore\n      dup1\n      swap3\n      swap2\n      swap1\n      dup2\n      dup2\n      mstore\n      0x20\n      add\n      dup3\n      dup1\n      sload\n      tag_208\n      swap1\n      tag_144\n      jump\t// in\n    tag_208:\n      dup1\n      iszero\n      tag_209\n      jumpi\n      dup1\n      0x1f\n      lt\n      tag_210\n      jumpi\n      0x0100\n      dup1\n      dup4\n      sload\n      div\n      mul\n      dup4\n      mstore\n      swap2\n      0x20\n      add\n      swap2\n      jump(tag_209)\n    tag_210:\n      dup3\n      add\n      swap2\n      swap1\n      0x00\n      mstore\n      keccak256(0x00, 0x20)\n      swap1\n    tag_211:\n      dup2\n      sload\n      dup2\n      mstore\n      swap1\n      0x01\n      add\n      swap1\n      0x20\n      add\n      dup1\n      dup4\n      gt\n      tag_211\n      jumpi\n      dup3\n      swap1\n      sub\n      0x1f\n      and\n      dup3\n      add\n      swap2\n    tag_209:\n      pop\n      pop\n      pop\n      pop\n      pop\n      dup2\n      mstore\n      0x20\n      add\n      swap1\n      0x01\n      add\n      swap1\n      jump(tag_204)\n    tag_205:\n      pop\n      pop\n      pop\n      pop\n      dup2\n      mstore\n      0x20\n      add\n      0x01\n      dup3\n      add\n      dup1\n      sload\n      dup1\n      0x20\n      mul\n      0x20\n      add\n      mload(0x40)\n      swap1\n      dup2\n      add\n      0x40\n      mstore\n      dup1\n      swap3\n      swap2\n      swap1\n      dup2\n      dup2\n      mstore\n      0x20\n      add\n      0x00\n      swap1\n    tag_212:\n      dup3\n      dup3\n      lt\n      iszero\n      tag_213\n      jumpi\n      dup4\n      dup3\n      swap1\n      0x00\n      mstore\n      keccak256(0x00, 0x20)\n      add\n      dup1\n      sload\n      tag_215\n      swap1\n      tag_144\n      jump\t// in\n    tag_215:\n      dup1\n      0x1f\n      add\n      0x20\n      dup1\n      swap2\n      div\n      mul\n      0x20\n      add\n      mload(0x40)\n      swap1\n      dup2\n      add\n      0x40\n      mstore\n      dup1\n      swap3\n      swap2\n      swap1\n      dup2\n      dup2\n      mstore\n      0x20\n      add\n      dup3\n      dup1\n      sload\n      tag_216\n      swap1\n      tag_144\n      jump\t// in\n    tag_216:\n      dup1\n      iszero\n      tag_217\n      jumpi\n      dup1\n      0x1f\n      lt\n      tag_218\n      jumpi\n      0x0100\n      dup1\n      dup4\n      sload\n      div\n      mul\n      dup4\n      mstore\n      swap2\n      0x20\n      add\n      swap2\n      jump(tag_217)\n    tag_218:\n      dup3\n      add\n      swap2\n      swap1\n      0x00\n      mstore\n      keccak256(0x00, 0x20)\n      swap1\n    tag_219:\n      dup2\n      sload\n      dup2\n      mstore\n      swap1\n      0x01\n      add\n      swap1\n      0x20\n      add\n      dup1\n      dup4\n      gt\n      tag_219\n      jumpi\n      dup3\n      swap1\n      sub\n      0x1f\n      and\n      dup3\n      add\n      swap2\n    tag_217:\n      pop\n      pop\n      pop\n      pop\n      pop\n      dup2\n      mstore\n      0x20\n      add\n      swap1\n      0x01\n      add\n      swap1\n      jump(tag_212)\n    tag_213:\n      pop\n      pop\n      pop\n      pop\n      dup2\n      mstore\n      0x20\n      add\n      0x02\n      dup3\n      add\n      dup1\n      sload\n      dup1\n      0x20\n      mul\n      0x20\n      add\n      mload(0x40)\n      swap1\n      dup2\n      add\n      0x40\n      mstore\n      dup1\n      swap3\n      swap2\n      swap1\n      dup2\n      dup2\n      mstore\n      0x20\n      add\n      0x00\n      swap1\n    tag_220:\n      dup3\n      dup3\n      lt\n      iszero\n      tag_221\n      jumpi\n      dup4\n      dup3\n      swap1\n      0x00\n      mstore\n      keccak256(0x00, 0x20)\n      add\n      dup1\n      sload\n      tag_223\n      swap1\n      tag_144\n      jump\t// in\n    tag_223:\n      dup1\n      0x1f\n      add\n      0x20\n      dup1\n      swap2\n      div\n      mul\n      0x20\n      add\n      mload(0x40)\n      swap1\n      dup2\n      add\n      0x40\n      mstore\n      dup1\n      swap3\n      swap2\n      swap1\n      dup2\n      dup2\n      mstore\n      0x20\n      add\n      dup3\n      dup1\n      sload\n      tag_224\n      swap1\n      tag_144\n      jump\t// in\n    tag_224:\n      dup1\n      iszero\n      tag_225\n      jumpi\n      dup1\n      0x1f\n      lt\n      tag_226\n      jumpi\n      0x0100\n      dup1\n      dup4\n      sload\n      div\n      mul\n      dup4\n      mstore\n      swap2\n      0x20\n      add\n      swap2\n      jump(tag_225)\n    tag_226:\n      dup3\n      add\n      swap2\n      swap1\n      0x00\n      mstore\n      keccak256(0x00, 0x20)\n      swap1\n    tag_227:\n      dup2\n      sload\n      dup2\n      mstore\n      swap1\n      0x01\n      add\n      swap1\n      0x20\n      add\n      dup1\n      dup4\n      gt\n      tag_227\n      jumpi\n      dup3\n      swap1\n      sub\n      0x1f\n      and\n      dup3\n      add\n      swap2\n    tag_225:\n      pop\n      pop\n      pop\n      pop\n      pop\n      dup2\n      mstore\n      0x20\n      add\n      swap1\n      0x01\n      add\n      swap1\n      jump(tag_220)\n    tag_221:\n      pop\n      pop\n      pop\n      pop\n      dup2\n      mstore\n      pop\n      pop\n      swap1\n      dup1\n      0x12\n      add\n      mload(0x40)\n      dup1\n      0x40\n      add\n      0x40\n      mstore\n      swap1\n      dup2\n      0x00\n      dup3\n      add\n      dup1\n      sload\n      dup1\n      0x20\n      mul\n      0x20\n      add\n      mload(0x40)\n      swap1\n      dup2\n      add\n      0x40\n      mstore\n      dup1\n      swap3\n      swap2\n      swap1\n      dup2\n      dup2\n      mstore\n      0x20\n      add\n      0x00\n      swap1\n    tag_228:\n      dup3\n      dup3\n      lt\n      iszero\n      tag_229\n      jumpi\n      dup4\n      dup3\n      swap1\n      0x00\n      mstore\n      keccak256(0x00, 0x20)\n      add\n      dup1\n      sload\n      tag_231\n      swap1\n      tag_144\n      jump\t// in\n    tag_231:\n      dup1\n      0x1f\n      add\n      0x20\n      dup1\n      swap2\n      div\n      mul\n      0x20\n      add\n      mload(0x40)\n      swap1\n      dup2\n      add\n      0x40\n      mstore\n      dup1\n      swap3\n      swap2\n      swap1\n      dup2\n      dup2\n      mstore\n      0x20\n      add\n      dup3\n      dup1\n      sload\n      tag_232\n      swap1\n      tag_144\n      jump\t// in\n    tag_232:\n      dup1\n      iszero\n      tag_233\n      jumpi\n      dup1\n      0x1f\n      lt\n      tag_234\n      jumpi\n      0x0100\n      dup1\n      dup4\n      sload\n      div\n      mul\n      dup4\n      mstore\n      swap2\n      0x20\n      add\n      swap2\n      jump(tag_233)\n    tag_234:\n      dup3\n      add\n      swap2\n      swap1\n      0x00\n      mstore\n      keccak256(0x00, 0x20)\n      swap1\n    tag_235:\n      dup2\n      sload\n      dup2\n      mstore\n      swap1\n      0x01\n      add\n      swap1\n      0x20\n      add\n      dup1\n      dup4\n      gt\n      tag_235\n      jumpi\n      dup3\n      swap1\n      sub\n      0x1f\n      and\n      dup3\n      add\n      swap2\n    tag_233:\n      pop\n      pop\n      pop\n      pop\n      pop\n      dup2\n      mstore\n      0x20\n      add\n      swap1\n      0x01\n      add\n      swap1\n      jump(tag_228)\n    tag_229:\n      pop\n      pop\n      pop\n      pop\n      dup2\n      mstore\n      0x20\n      add\n      0x01\n      dup3\n      add\n      dup1\n      sload\n      dup1\n      0x20\n      mul\n      0x20\n      add\n      mload(0x40)\n      swap1\n      dup2\n      add\n      0x40\n      mstore\n      dup1\n      swap3\n      swap2\n      swap1\n      dup2\n      dup2\n      mstore\n      0x20\n      add\n      0x00\n      swap1\n    tag_236:\n      dup3\n      dup3\n      lt\n      iszero\n      tag_237\n      jumpi\n      dup4\n      dup3\n      swap1\n      0x00\n      mstore\n      keccak256(0x00, 0x20)\n      add\n      dup1\n      sload\n      tag_239\n      swap1\n      tag_144\n      jump\t// in\n    tag_239:\n      dup1\n      0x1f\n      add\n      0x20\n      dup1\n      swap2\n      div\n      mul\n      0x20\n      add\n      mload(0x40)\n      swap1\n      dup2\n      add\n      0x40\n      mstore\n      dup1\n      swap3\n      swap2\n      swap1\n      dup2\n      dup2\n      mstore\n      0x20\n      add\n      dup3\n      dup1\n      sload\n      tag_240\n      swap1\n      tag_144\n      jump\t// in\n    tag_240:\n      dup1\n      iszero\n      tag_241\n      jumpi\n      dup1\n      0x1f\n      lt\n      tag_242\n      jumpi\n      0x0100\n      dup1\n      dup4\n      sload\n      div\n      mul\n      dup4\n      mstore\n      swap2\n      0x20\n      add\n      swap2\n      jump(tag_241)\n    tag_242:\n      dup3\n      add\n      swap2\n      swap1\n      0x00\n      mstore\n      keccak256(0x00, 0x20)\n      swap1\n    tag_243:\n      dup2\n      sload\n      dup2\n      mstore\n      swap1\n      0x01\n      add\n      swap1\n      0x20\n      add\n      dup1\n      dup4\n      gt\n      tag_243\n      jumpi\n      dup3\n      swap1\n      sub\n      0x1f\n      and\n      dup3\n      add\n      swap2\n    tag_241:\n      pop\n      pop\n      pop\n      pop\n      pop\n      dup2\n      mstore\n      0x20\n      add\n      swap1\n      0x01\n      add\n      swap1\n      jump(tag_236)\n    tag_237:\n      pop\n      pop\n      pop\n      pop\n      dup2\n      mstore\n      pop\n      pop\n      swap1\n      pop\n      dup5\n      jump\t// out\n        /* \"contracts/Profile.sol\":5951:6055  function delCompanyExperience() external {\r... */\n    tag_64:\n        /* \"contracts/Profile.sol\":6010:6017  profile */\n      0x00\n        /* \"contracts/Profile.sol\":6010:6029  profile[msg.sender] */\n      dup1\n        /* \"contracts/Profile.sol\":6018:6028  msg.sender */\n      caller\n        /* \"contracts/Profile.sol\":6010:6029  profile[msg.sender] */\n      0xffffffffffffffffffffffffffffffffffffffff\n      and\n      0xffffffffffffffffffffffffffffffffffffffff\n      and\n      dup2\n      mstore\n      0x20\n      add\n      swap1\n      dup2\n      mstore\n      0x20\n      add\n      0x00\n      keccak256\n        /* \"contracts/Profile.sol\":6010:6047  profile[msg.sender].companyExperience */\n      0x14\n      add\n      0x00\n        /* \"contracts/Profile.sol\":6003:6047  delete profile[msg.sender].companyExperience */\n      tag_245\n      swap2\n      swap1\n      tag_246\n      jump\t// in\n    tag_245:\n        /* \"contracts/Profile.sol\":5951:6055  function delCompanyExperience() external {\r... */\n      jump\t// out\n        /* \"contracts/Profile.sol\":3290:3759  function createEducation(string memory startDate, string memory endDate, string memory university, string memory major, string memory finalProject) public {\r... */\n    tag_67:\n        /* \"contracts/Profile.sol\":3456:3483  Education memory _education */\n      tag_248\n      tag_249\n      jump\t// in\n    tag_248:\n        /* \"contracts/Profile.sol\":3517:3526  startDate */\n      dup6\n        /* \"contracts/Profile.sol\":3494:3504  _education */\n      dup2\n        /* \"contracts/Profile.sol\":3494:3514  _education.startDate */\n      0x00\n      add\n        /* \"contracts/Profile.sol\":3494:3526  _education.startDate = startDate */\n      dup2\n      swap1\n      mstore\n      pop\n        /* \"contracts/Profile.sol\":3558:3565  endDate */\n      dup5\n        /* \"contracts/Profile.sol\":3537:3547  _education */\n      dup2\n        /* \"contracts/Profile.sol\":3537:3555  _education.endDate */\n      0x20\n      add\n        /* \"contracts/Profile.sol\":3537:3565  _education.endDate = endDate */\n      dup2\n      swap1\n      mstore\n      pop\n        /* \"contracts/Profile.sol\":3600:3610  university */\n      dup4\n        /* \"contracts/Profile.sol\":3576:3586  _education */\n      dup2\n        /* \"contracts/Profile.sol\":3576:3597  _education.university */\n      0x40\n      add\n        /* \"contracts/Profile.sol\":3576:3610  _education.university = university */\n      dup2\n      swap1\n      mstore\n      pop\n        /* \"contracts/Profile.sol\":3640:3645  major */\n      dup3\n        /* \"contracts/Profile.sol\":3621:3631  _education */\n      dup2\n        /* \"contracts/Profile.sol\":3621:3637  _education.major */\n      0x60\n      add\n        /* \"contracts/Profile.sol\":3621:3645  _education.major = major */\n      dup2\n      swap1\n      mstore\n      pop\n        /* \"contracts/Profile.sol\":3682:3694  finalProject */\n      dup2\n        /* \"contracts/Profile.sol\":3656:3666  _education */\n      dup2\n        /* \"contracts/Profile.sol\":3656:3679  _education.finalProject */\n      0x80\n      add\n        /* \"contracts/Profile.sol\":3656:3694  _education.finalProject = finalProject */\n      dup2\n      swap1\n      mstore\n      pop\n        /* \"contracts/Profile.sol\":3705:3712  profile */\n      0x00\n        /* \"contracts/Profile.sol\":3705:3724  profile[msg.sender] */\n      dup1\n        /* \"contracts/Profile.sol\":3713:3723  msg.sender */\n      caller\n        /* \"contracts/Profile.sol\":3705:3724  profile[msg.sender] */\n      0xffffffffffffffffffffffffffffffffffffffff\n      and\n      0xffffffffffffffffffffffffffffffffffffffff\n      and\n      dup2\n      mstore\n      0x20\n      add\n      swap1\n      dup2\n      mstore\n      0x20\n      add\n      0x00\n      keccak256\n        /* \"contracts/Profile.sol\":3705:3734  profile[msg.sender].education */\n      0x11\n      add\n        /* \"contracts/Profile.sol\":3740:3750  _education */\n      dup2\n        /* \"contracts/Profile.sol\":3705:3751  profile[msg.sender].education.push(_education) */\n      swap1\n      dup1\n      0x01\n      dup2\n      sload\n      add\n      dup1\n      dup3\n      sstore\n      dup1\n      swap2\n      pop\n      pop\n      0x01\n      swap1\n      sub\n      swap1\n      0x00\n      mstore\n      keccak256(0x00, 0x20)\n      swap1\n      0x05\n      mul\n      add\n      0x00\n      swap1\n      swap2\n      swap1\n      swap2\n      swap1\n      swap2\n      pop\n      0x00\n      dup3\n      add\n      mload\n      dup2\n      0x00\n      add\n      swap1\n      dup1\n      mload\n      swap1\n      0x20\n      add\n      swap1\n      tag_251\n      swap3\n      swap2\n      swap1\n      tag_89\n      jump\t// in\n    tag_251:\n      pop\n      0x20\n      dup3\n      add\n      mload\n      dup2\n      0x01\n      add\n      swap1\n      dup1\n      mload\n      swap1\n      0x20\n      add\n      swap1\n      tag_252\n      swap3\n      swap2\n      swap1\n      tag_89\n      jump\t// in\n    tag_252:\n      pop\n      0x40\n      dup3\n      add\n      mload\n      dup2\n      0x02\n      add\n      swap1\n      dup1\n      mload\n      swap1\n      0x20\n      add\n      swap1\n      tag_253\n      swap3\n      swap2\n      swap1\n      tag_89\n      jump\t// in\n    tag_253:\n      pop\n      0x60\n      dup3\n      add\n      mload\n      dup2\n      0x03\n      add\n      swap1\n      dup1\n      mload\n      swap1\n      0x20\n      add\n      swap1\n      tag_254\n      swap3\n      swap2\n      swap1\n      tag_89\n      jump\t// in\n    tag_254:\n      pop\n      0x80\n      dup3\n      add\n      mload\n      dup2\n      0x04\n      add\n      swap1\n      dup1\n      mload\n      swap1\n      0x20\n      add\n      swap1\n      tag_255\n      swap3\n      swap2\n      swap1\n      tag_89\n      jump\t// in\n    tag_255:\n      pop\n      pop\n      pop\n        /* \"contracts/Profile.sol\":3445:3759  {\r... */\n      pop\n        /* \"contracts/Profile.sol\":3290:3759  function createEducation(string memory startDate, string memory endDate, string memory university, string memory major, string memory finalProject) public {\r... */\n      pop\n      pop\n      pop\n      pop\n      pop\n      jump\t// out\n        /* \"contracts/Profile.sol\":1536:1638  function myBalance() public view returns(uint256){\r... */\n    tag_69:\n        /* \"contracts/Profile.sol\":1577:1584  uint256 */\n      0x00\n        /* \"contracts/Profile.sol\":1611:1621  msg.sender */\n      caller\n        /* \"contracts/Profile.sol\":1603:1630  address(msg.sender).balance */\n      0xffffffffffffffffffffffffffffffffffffffff\n      and\n      balance\n        /* \"contracts/Profile.sol\":1596:1630  return address(msg.sender).balance */\n      swap1\n      pop\n        /* \"contracts/Profile.sol\":1536:1638  function myBalance() public view returns(uint256){\r... */\n      swap1\n      jump\t// out\n        /* \"contracts/Profile.sol\":5435:5527  function delAllEducation() external  {\r... */\n    tag_72:\n        /* \"contracts/Profile.sol\":5490:5497  profile */\n      0x00\n        /* \"contracts/Profile.sol\":5490:5509  profile[msg.sender] */\n      dup1\n        /* \"contracts/Profile.sol\":5498:5508  msg.sender */\n      caller\n        /* \"contracts/Profile.sol\":5490:5509  profile[msg.sender] */\n      0xffffffffffffffffffffffffffffffffffffffff\n      and\n      0xffffffffffffffffffffffffffffffffffffffff\n      and\n      dup2\n      mstore\n      0x20\n      add\n      swap1\n      dup2\n      mstore\n      0x20\n      add\n      0x00\n      keccak256\n        /* \"contracts/Profile.sol\":5490:5519  profile[msg.sender].education */\n      0x11\n      add\n      0x00\n        /* \"contracts/Profile.sol\":5483:5519  delete profile[msg.sender].education */\n      tag_258\n      swap2\n      swap1\n      tag_259\n      jump\t// in\n    tag_258:\n        /* \"contracts/Profile.sol\":5435:5527  function delAllEducation() external  {\r... */\n      jump\t// out\n        /* \"contracts/Profile.sol\":3768:4161  function getEducation(uint index) public view returns(string memory, string memory, string memory, string memory, string memory) {\r... */\n    tag_76:\n        /* \"contracts/Profile.sol\":3822:3835  string memory */\n      0x60\n        /* \"contracts/Profile.sol\":3837:3850  string memory */\n      dup1\n        /* \"contracts/Profile.sol\":3852:3865  string memory */\n      0x60\n        /* \"contracts/Profile.sol\":3867:3880  string memory */\n      dup1\n        /* \"contracts/Profile.sol\":3882:3895  string memory */\n      0x60\n        /* \"contracts/Profile.sol\":3916:3923  profile */\n      0x00\n        /* \"contracts/Profile.sol\":3916:3935  profile[msg.sender] */\n      dup1\n        /* \"contracts/Profile.sol\":3924:3934  msg.sender */\n      caller\n        /* \"contracts/Profile.sol\":3916:3935  profile[msg.sender] */\n      0xffffffffffffffffffffffffffffffffffffffff\n      and\n      0xffffffffffffffffffffffffffffffffffffffff\n      and\n      dup2\n      mstore\n      0x20\n      add\n      swap1\n      dup2\n      mstore\n      0x20\n      add\n      0x00\n      keccak256\n        /* \"contracts/Profile.sol\":3916:3945  profile[msg.sender].education */\n      0x11\n      add\n        /* \"contracts/Profile.sol\":3946:3951  index */\n      dup7\n        /* \"contracts/Profile.sol\":3916:3952  profile[msg.sender].education[index] */\n      dup2\n      sload\n      dup2\n      lt\n      tag_261\n      jumpi\n      tag_262\n      tag_263\n      jump\t// in\n    tag_262:\n    tag_261:\n      swap1\n      0x00\n      mstore\n      keccak256(0x00, 0x20)\n      swap1\n      0x05\n      mul\n      add\n        /* \"contracts/Profile.sol\":3916:3962  profile[msg.sender].education[index].startDate */\n      0x00\n      add\n        /* \"contracts/Profile.sol\":3964:3971  profile */\n      0x00\n        /* \"contracts/Profile.sol\":3964:3983  profile[msg.sender] */\n      dup1\n        /* \"contracts/Profile.sol\":3972:3982  msg.sender */\n      caller\n        /* \"contracts/Profile.sol\":3964:3983  profile[msg.sender] */\n      0xffffffffffffffffffffffffffffffffffffffff\n      and\n      0xffffffffffffffffffffffffffffffffffffffff\n      and\n      dup2\n      mstore\n      0x20\n      add\n      swap1\n      dup2\n      mstore\n      0x20\n      add\n      0x00\n      keccak256\n        /* \"contracts/Profile.sol\":3964:3993  profile[msg.sender].education */\n      0x11\n      add\n        /* \"contracts/Profile.sol\":3994:3999  index */\n      dup8\n        /* \"contracts/Profile.sol\":3964:4000  profile[msg.sender].education[index] */\n      dup2\n      sload\n      dup2\n      lt\n      tag_265\n      jumpi\n      tag_266\n      tag_263\n      jump\t// in\n    tag_266:\n    tag_265:\n      swap1\n      0x00\n      mstore\n      keccak256(0x00, 0x20)\n      swap1\n      0x05\n      mul\n      add\n        /* \"contracts/Profile.sol\":3964:4008  profile[msg.sender].education[index].endDate */\n      0x01\n      add\n        /* \"contracts/Profile.sol\":4010:4017  profile */\n      0x00\n        /* \"contracts/Profile.sol\":4010:4029  profile[msg.sender] */\n      dup1\n        /* \"contracts/Profile.sol\":4018:4028  msg.sender */\n      caller\n        /* \"contracts/Profile.sol\":4010:4029  profile[msg.sender] */\n      0xffffffffffffffffffffffffffffffffffffffff\n      and\n      0xffffffffffffffffffffffffffffffffffffffff\n      and\n      dup2\n      mstore\n      0x20\n      add\n      swap1\n      dup2\n      mstore\n      0x20\n      add\n      0x00\n      keccak256\n        /* \"contracts/Profile.sol\":4010:4039  profile[msg.sender].education */\n      0x11\n      add\n        /* \"contracts/Profile.sol\":4040:4045  index */\n      dup9\n        /* \"contracts/Profile.sol\":4010:4046  profile[msg.sender].education[index] */\n      dup2\n      sload\n      dup2\n      lt\n      tag_268\n      jumpi\n      tag_269\n      tag_263\n      jump\t// in\n    tag_269:\n    tag_268:\n      swap1\n      0x00\n      mstore\n      keccak256(0x00, 0x20)\n      swap1\n      0x05\n      mul\n      add\n        /* \"contracts/Profile.sol\":4010:4057  profile[msg.sender].education[index].university */\n      0x02\n      add\n        /* \"contracts/Profile.sol\":4059:4066  profile */\n      0x00\n        /* \"contracts/Profile.sol\":4059:4078  profile[msg.sender] */\n      dup1\n        /* \"contracts/Profile.sol\":4067:4077  msg.sender */\n      caller\n        /* \"contracts/Profile.sol\":4059:4078  profile[msg.sender] */\n      0xffffffffffffffffffffffffffffffffffffffff\n      and\n      0xffffffffffffffffffffffffffffffffffffffff\n      and\n      dup2\n      mstore\n      0x20\n      add\n      swap1\n      dup2\n      mstore\n      0x20\n      add\n      0x00\n      keccak256\n        /* \"contracts/Profile.sol\":4059:4088  profile[msg.sender].education */\n      0x11\n      add\n        /* \"contracts/Profile.sol\":4089:4094  index */\n      dup10\n        /* \"contracts/Profile.sol\":4059:4095  profile[msg.sender].education[index] */\n      dup2\n      sload\n      dup2\n      lt\n      tag_271\n      jumpi\n      tag_272\n      tag_263\n      jump\t// in\n    tag_272:\n    tag_271:\n      swap1\n      0x00\n      mstore\n      keccak256(0x00, 0x20)\n      swap1\n      0x05\n      mul\n      add\n        /* \"contracts/Profile.sol\":4059:4101  profile[msg.sender].education[index].major */\n      0x03\n      add\n        /* \"contracts/Profile.sol\":4103:4110  profile */\n      0x00\n        /* \"contracts/Profile.sol\":4103:4122  profile[msg.sender] */\n      dup1\n        /* \"contracts/Profile.sol\":4111:4121  msg.sender */\n      caller\n        /* \"contracts/Profile.sol\":4103:4122  profile[msg.sender] */\n      0xffffffffffffffffffffffffffffffffffffffff\n      and\n      0xffffffffffffffffffffffffffffffffffffffff\n      and\n      dup2\n      mstore\n      0x20\n      add\n      swap1\n      dup2\n      mstore\n      0x20\n      add\n      0x00\n      keccak256\n        /* \"contracts/Profile.sol\":4103:4132  profile[msg.sender].education */\n      0x11\n      add\n        /* \"contracts/Profile.sol\":4133:4138  index */\n      dup11\n        /* \"contracts/Profile.sol\":4103:4139  profile[msg.sender].education[index] */\n      dup2\n      sload\n      dup2\n      lt\n      tag_274\n      jumpi\n      tag_275\n      tag_263\n      jump\t// in\n    tag_275:\n    tag_274:\n      swap1\n      0x00\n      mstore\n      keccak256(0x00, 0x20)\n      swap1\n      0x05\n      mul\n      add\n        /* \"contracts/Profile.sol\":4103:4152  profile[msg.sender].education[index].finalProject */\n      0x04\n      add\n        /* \"contracts/Profile.sol\":3908:4153  return (profile[msg.sender].education[index].startDate, profile[msg.sender].education[index].endDate, profile[msg.sender].education[index].university, profile[msg.sender].education[index].major, profile[msg.sender].education[index].finalProject) */\n      dup5\n      dup1\n      sload\n      tag_277\n      swap1\n      tag_144\n      jump\t// in\n    tag_277:\n      dup1\n      0x1f\n      add\n      0x20\n      dup1\n      swap2\n      div\n      mul\n      0x20\n      add\n      mload(0x40)\n      swap1\n      dup2\n      add\n      0x40\n      mstore\n      dup1\n      swap3\n      swap2\n      swap1\n      dup2\n      dup2\n      mstore\n      0x20\n      add\n      dup3\n      dup1\n      sload\n      tag_278\n      swap1\n      tag_144\n      jump\t// in\n    tag_278:\n      dup1\n      iszero\n      tag_279\n      jumpi\n      dup1\n      0x1f\n      lt\n      tag_280\n      jumpi\n      0x0100\n      dup1\n      dup4\n      sload\n      div\n      mul\n      dup4\n      mstore\n      swap2\n      0x20\n      add\n      swap2\n      jump(tag_279)\n    tag_280:\n      dup3\n      add\n      swap2\n      swap1\n      0x00\n      mstore\n      keccak256(0x00, 0x20)\n      swap1\n    tag_281:\n      dup2\n      sload\n      dup2\n      mstore\n      swap1\n      0x01\n      add\n      swap1\n      0x20\n      add\n      dup1\n      dup4\n      gt\n      tag_281\n      jumpi\n      dup3\n      swap1\n      sub\n      0x1f\n      and\n      dup3\n      add\n      swap2\n    tag_279:\n      pop\n      pop\n      pop\n      pop\n      pop\n      swap5\n      pop\n      dup4\n      dup1\n      sload\n      tag_282\n      swap1\n      tag_144\n      jump\t// in\n    tag_282:\n      dup1\n      0x1f\n      add\n      0x20\n      dup1\n      swap2\n      div\n      mul\n      0x20\n      add\n      mload(0x40)\n      swap1\n      dup2\n      add\n      0x40\n      mstore\n      dup1\n      swap3\n      swap2\n      swap1\n      dup2\n      dup2\n      mstore\n      0x20\n      add\n      dup3\n      dup1\n      sload\n      tag_283\n      swap1\n      tag_144\n      jump\t// in\n    tag_283:\n      dup1\n      iszero\n      tag_284\n      jumpi\n      dup1\n      0x1f\n      lt\n      tag_285\n      jumpi\n      0x0100\n      dup1\n      dup4\n      sload\n      div\n      mul\n      dup4\n      mstore\n      swap2\n      0x20\n      add\n      swap2\n      jump(tag_284)\n    tag_285:\n      dup3\n      add\n      swap2\n      swap1\n      0x00\n      mstore\n      keccak256(0x00, 0x20)\n      swap1\n    tag_286:\n      dup2\n      sload\n      dup2\n      mstore\n      swap1\n      0x01\n      add\n      swap1\n      0x20\n      add\n      dup1\n      dup4\n      gt\n      tag_286\n      jumpi\n      dup3\n      swap1\n      sub\n      0x1f\n      and\n      dup3\n      add\n      swap2\n    tag_284:\n      pop\n      pop\n      pop\n      pop\n      pop\n      swap4\n      pop\n      dup3\n      dup1\n      sload\n      tag_287\n      swap1\n      tag_144\n      jump\t// in\n    tag_287:\n      dup1\n      0x1f\n      add\n      0x20\n      dup1\n      swap2\n      div\n      mul\n      0x20\n      add\n      mload(0x40)\n      swap1\n      dup2\n      add\n      0x40\n      mstore\n      dup1\n      swap3\n      swap2\n      swap1\n      dup2\n      dup2\n      mstore\n      0x20\n      add\n      dup3\n      dup1\n      sload\n      tag_288\n      swap1\n      tag_144\n      jump\t// in\n    tag_288:\n      dup1\n      iszero\n      tag_289\n      jumpi\n      dup1\n      0x1f\n      lt\n      tag_290\n      jumpi\n      0x0100\n      dup1\n      dup4\n      sload\n      div\n      mul\n      dup4\n      mstore\n      swap2\n      0x20\n      add\n      swap2\n      jump(tag_289)\n    tag_290:\n      dup3\n      add\n      swap2\n      swap1\n      0x00\n      mstore\n      keccak256(0x00, 0x20)\n      swap1\n    tag_291:\n      dup2\n      sload\n      dup2\n      mstore\n      swap1\n      0x01\n      add\n      swap1\n      0x20\n      add\n      dup1\n      dup4\n      gt\n      tag_291\n      jumpi\n      dup3\n      swap1\n      sub\n      0x1f\n      and\n      dup3\n      add\n      swap2\n    tag_289:\n      pop\n      pop\n      pop\n      pop\n      pop\n      swap3\n      pop\n      dup2\n      dup1\n      sload\n      tag_292\n      swap1\n      tag_144\n      jump\t// in\n    tag_292:\n      dup1\n      0x1f\n      add\n      0x20\n      dup1\n      swap2\n      div\n      mul\n      0x20\n      add\n      mload(0x40)\n      swap1\n      dup2\n      add\n      0x40\n      mstore\n      dup1\n      swap3\n      swap2\n      swap1\n      dup2\n      dup2\n      mstore\n      0x20\n      add\n      dup3\n      dup1\n      sload\n      tag_293\n      swap1\n      tag_144\n      jump\t// in\n    tag_293:\n      dup1\n      iszero\n      tag_294\n      jumpi\n      dup1\n      0x1f\n      lt\n      tag_295\n      jumpi\n      0x0100\n      dup1\n      dup4\n      sload\n      div\n      mul\n      dup4\n      mstore\n      swap2\n      0x20\n      add\n      swap2\n      jump(tag_294)\n    tag_295:\n      dup3\n      add\n      swap2\n      swap1\n      0x00\n      mstore\n      keccak256(0x00, 0x20)\n      swap1\n    tag_296:\n      dup2\n      sload\n      dup2\n      mstore\n      swap1\n      0x01\n      add\n      swap1\n      0x20\n      add\n      dup1\n      dup4\n      gt\n      tag_296\n      jumpi\n      dup3\n      swap1\n      sub\n      0x1f\n      and\n      dup3\n      add\n      swap2\n    tag_294:\n      pop\n      pop\n      pop\n      pop\n      pop\n      swap2\n      pop\n      dup1\n      dup1\n      sload\n      tag_297\n      swap1\n      tag_144\n      jump\t// in\n    tag_297:\n      dup1\n      0x1f\n      add\n      0x20\n      dup1\n      swap2\n      div\n      mul\n      0x20\n      add\n      mload(0x40)\n      swap1\n      dup2\n      add\n      0x40\n      mstore\n      dup1\n      swap3\n      swap2\n      swap1\n      dup2\n      dup2\n      mstore\n      0x20\n      add\n      dup3\n      dup1\n      sload\n      tag_298\n      swap1\n      tag_144\n      jump\t// in\n    tag_298:\n      dup1\n      iszero\n      tag_299\n      jumpi\n      dup1\n      0x1f\n      lt\n      tag_300\n      jumpi\n      0x0100\n      dup1\n      dup4\n      sload\n      div\n      mul\n      dup4\n      mstore\n      swap2\n      0x20\n      add\n      swap2\n      jump(tag_299)\n    tag_300:\n      dup3\n      add\n      swap2\n      swap1\n      0x00\n      mstore\n      keccak256(0x00, 0x20)\n      swap1\n    tag_301:\n      dup2\n      sload\n      dup2\n      mstore\n      swap1\n      0x01\n      add\n      swap1\n      0x20\n      add\n      dup1\n      dup4\n      gt\n      tag_301\n      jumpi\n      dup3\n      swap1\n      sub\n      0x1f\n      and\n      dup3\n      add\n      swap2\n    tag_299:\n      pop\n      pop\n      pop\n      pop\n      pop\n      swap1\n      pop\n      swap5\n      pop\n      swap5\n      pop\n      swap5\n      pop\n      swap5\n      pop\n      swap5\n      pop\n        /* \"contracts/Profile.sol\":3768:4161  function getEducation(uint index) public view returns(string memory, string memory, string memory, string memory, string memory) {\r... */\n      swap2\n      swap4\n      swap6\n      swap1\n      swap3\n      swap5\n      pop\n      jump\t// out\n        /* \"contracts/Profile.sol\":5635:5711  function delProfile() external {\r... */\n    tag_80:\n        /* \"contracts/Profile.sol\":5684:5691  profile */\n      0x00\n        /* \"contracts/Profile.sol\":5684:5703  profile[msg.sender] */\n      dup1\n        /* \"contracts/Profile.sol\":5692:5702  msg.sender */\n      caller\n        /* \"contracts/Profile.sol\":5684:5703  profile[msg.sender] */\n      0xffffffffffffffffffffffffffffffffffffffff\n      and\n      0xffffffffffffffffffffffffffffffffffffffff\n      and\n      dup2\n      mstore\n      0x20\n      add\n      swap1\n      dup2\n      mstore\n      0x20\n      add\n      0x00\n      keccak256\n      0x00\n        /* \"contracts/Profile.sol\":5677:5703  delete profile[msg.sender] */\n      dup1\n      dup3\n      add\n      0x00\n      dup1\n      dup3\n      add\n      0x00\n      tag_303\n      swap2\n      swap1\n      tag_118\n      jump\t// in\n    tag_303:\n      0x01\n      dup3\n      add\n      0x00\n      tag_304\n      swap2\n      swap1\n      tag_118\n      jump\t// in\n    tag_304:\n      0x02\n      dup3\n      add\n      exp(0x0100, 0x00)\n      dup2\n      sload\n      swap1\n      0xffffffffffffffffffffffffffffffffffffffff\n      mul\n      not\n      and\n      swap1\n      sstore\n      0x03\n      dup3\n      add\n      0x00\n      tag_305\n      swap2\n      swap1\n      tag_118\n      jump\t// in\n    tag_305:\n      0x04\n      dup3\n      add\n      0x00\n      tag_306\n      swap2\n      swap1\n      tag_118\n      jump\t// in\n    tag_306:\n      0x05\n      dup3\n      add\n      0x00\n      tag_307\n      swap2\n      swap1\n      tag_118\n      jump\t// in\n    tag_307:\n      0x06\n      dup3\n      add\n      0x00\n      tag_308\n      swap2\n      swap1\n      tag_118\n      jump\t// in\n    tag_308:\n      0x07\n      dup3\n      add\n      0x00\n      swap1\n      sstore\n      pop\n      pop\n      0x08\n      dup3\n      add\n      0x00\n      dup1\n      dup3\n      add\n      0x00\n      tag_309\n      swap2\n      swap1\n      tag_118\n      jump\t// in\n    tag_309:\n      0x01\n      dup3\n      add\n      0x00\n      tag_310\n      swap2\n      swap1\n      tag_118\n      jump\t// in\n    tag_310:\n      0x02\n      dup3\n      add\n      0x00\n      tag_311\n      swap2\n      swap1\n      tag_118\n      jump\t// in\n    tag_311:\n      0x03\n      dup3\n      add\n      0x00\n      tag_312\n      swap2\n      swap1\n      tag_118\n      jump\t// in\n    tag_312:\n      0x04\n      dup3\n      add\n      0x00\n      tag_313\n      swap2\n      swap1\n      tag_118\n      jump\t// in\n    tag_313:\n      0x05\n      dup3\n      add\n      0x00\n      tag_314\n      swap2\n      swap1\n      tag_118\n      jump\t// in\n    tag_314:\n      pop\n      pop\n      0x0e\n      dup3\n      add\n      0x00\n      dup1\n      dup3\n      add\n      0x00\n      tag_315\n      swap2\n      swap1\n      tag_103\n      jump\t// in\n    tag_315:\n      0x01\n      dup3\n      add\n      0x00\n      tag_316\n      swap2\n      swap1\n      tag_103\n      jump\t// in\n    tag_316:\n      0x02\n      dup3\n      add\n      0x00\n      tag_317\n      swap2\n      swap1\n      tag_103\n      jump\t// in\n    tag_317:\n      pop\n      pop\n      0x11\n      dup3\n      add\n      0x00\n      tag_318\n      swap2\n      swap1\n      tag_259\n      jump\t// in\n    tag_318:\n      0x12\n      dup3\n      add\n      0x00\n      dup1\n      dup3\n      add\n      0x00\n      tag_319\n      swap2\n      swap1\n      tag_103\n      jump\t// in\n    tag_319:\n      0x01\n      dup3\n      add\n      0x00\n      tag_320\n      swap2\n      swap1\n      tag_103\n      jump\t// in\n    tag_320:\n      pop\n      pop\n      0x14\n      dup3\n      add\n      0x00\n      tag_321\n      swap2\n      swap1\n      tag_246\n      jump\t// in\n    tag_321:\n      0x15\n      dup3\n      add\n      0x00\n      tag_322\n      swap2\n      swap1\n      tag_83\n      jump\t// in\n    tag_322:\n      pop\n      pop\n        /* \"contracts/Profile.sol\":5635:5711  function delProfile() external {\r... */\n      jump\t// out\n    tag_83:\n      pop\n      dup1\n      sload\n      0x00\n      dup3\n      sstore\n      0x02\n      mul\n      swap1\n      0x00\n      mstore\n      keccak256(0x00, 0x20)\n      swap1\n      dup2\n      add\n      swap1\n      tag_324\n      swap2\n      swap1\n      tag_325\n      jump\t// in\n    tag_324:\n      pop\n      jump\t// out\n    tag_86:\n      mload(0x40)\n      dup1\n      0xa0\n      add\n      0x40\n      mstore\n      dup1\n      0x60\n      dup2\n      mstore\n      0x20\n      add\n      0x60\n      dup2\n      mstore\n      0x20\n      add\n      0x60\n      dup2\n      mstore\n      0x20\n      add\n      0x60\n      dup2\n      mstore\n      0x20\n      add\n      0x60\n      dup2\n      mstore\n      pop\n      swap1\n      jump\t// out\n    tag_89:\n      dup3\n      dup1\n      sload\n      tag_326\n      swap1\n      tag_144\n      jump\t// in\n    tag_326:\n      swap1\n      0x00\n      mstore\n      keccak256(0x00, 0x20)\n      swap1\n      0x1f\n      add\n      0x20\n      swap1\n      div\n      dup2\n      add\n      swap3\n      dup3\n      tag_328\n      jumpi\n      0x00\n      dup6\n      sstore\n      jump(tag_327)\n    tag_328:\n      dup3\n      0x1f\n      lt\n      tag_329\n      jumpi\n      dup1\n      mload\n      not(0xff)\n      and\n      dup4\n      dup1\n      add\n      or\n      dup6\n      sstore\n      jump(tag_327)\n    tag_329:\n      dup3\n      dup1\n      add\n      0x01\n      add\n      dup6\n      sstore\n      dup3\n      iszero\n      tag_327\n      jumpi\n      swap2\n      dup3\n      add\n    tag_330:\n      dup3\n      dup2\n      gt\n      iszero\n      tag_331\n      jumpi\n      dup3\n      mload\n      dup3\n      sstore\n      swap2\n      0x20\n      add\n      swap2\n      swap1\n      0x01\n      add\n      swap1\n      jump(tag_330)\n    tag_331:\n    tag_327:\n      pop\n      swap1\n      pop\n      tag_332\n      swap2\n      swap1\n      tag_333\n      jump\t// in\n    tag_332:\n      pop\n      swap1\n      jump\t// out\n    tag_94:\n      dup3\n      dup1\n      sload\n      dup3\n      dup3\n      sstore\n      swap1\n      0x00\n      mstore\n      keccak256(0x00, 0x20)\n      swap1\n      dup2\n      add\n      swap3\n      dup3\n      iszero\n      tag_334\n      jumpi\n      swap2\n      0x20\n      mul\n      dup3\n      add\n    tag_335:\n      dup3\n      dup2\n      gt\n      iszero\n      tag_336\n      jumpi\n      dup3\n      mload\n      dup3\n      swap1\n      dup1\n      mload\n      swap1\n      0x20\n      add\n      swap1\n      tag_337\n      swap3\n      swap2\n      swap1\n      tag_89\n      jump\t// in\n    tag_337:\n      pop\n      swap2\n      0x20\n      add\n      swap2\n      swap1\n      0x01\n      add\n      swap1\n      jump(tag_335)\n    tag_336:\n    tag_334:\n      pop\n      swap1\n      pop\n      tag_338\n      swap2\n      swap1\n      tag_339\n      jump\t// in\n    tag_338:\n      pop\n      swap1\n      jump\t// out\n    tag_97:\n      mload(0x40)\n      dup1\n      0x40\n      add\n      0x40\n      mstore\n      dup1\n      0x60\n      dup2\n      mstore\n      0x20\n      add\n      0x60\n      dup2\n      mstore\n      pop\n      swap1\n      jump\t// out\n    tag_103:\n      pop\n      dup1\n      sload\n      0x00\n      dup3\n      sstore\n      swap1\n      0x00\n      mstore\n      keccak256(0x00, 0x20)\n      swap1\n      dup2\n      add\n      swap1\n      tag_341\n      swap2\n      swap1\n      tag_339\n      jump\t// in\n    tag_341:\n      pop\n      jump\t// out\n    tag_118:\n      pop\n      dup1\n      sload\n      tag_342\n      swap1\n      tag_144\n      jump\t// in\n    tag_342:\n      0x00\n      dup3\n      sstore\n      dup1\n      0x1f\n      lt\n      tag_344\n      jumpi\n      pop\n      jump(tag_343)\n    tag_344:\n      0x1f\n      add\n      0x20\n      swap1\n      div\n      swap1\n      0x00\n      mstore\n      keccak256(0x00, 0x20)\n      swap1\n      dup2\n      add\n      swap1\n      tag_345\n      swap2\n      swap1\n      tag_333\n      jump\t// in\n    tag_345:\n    tag_343:\n      pop\n      jump\t// out\n    tag_246:\n      pop\n      dup1\n      sload\n      0x00\n      dup3\n      sstore\n      0x05\n      mul\n      swap1\n      0x00\n      mstore\n      keccak256(0x00, 0x20)\n      swap1\n      dup2\n      add\n      swap1\n      tag_347\n      swap2\n      swap1\n      tag_348\n      jump\t// in\n    tag_347:\n      pop\n      jump\t// out\n    tag_249:\n      mload(0x40)\n      dup1\n      0xa0\n      add\n      0x40\n      mstore\n      dup1\n      0x60\n      dup2\n      mstore\n      0x20\n      add\n      0x60\n      dup2\n      mstore\n      0x20\n      add\n      0x60\n      dup2\n      mstore\n      0x20\n      add\n      0x60\n      dup2\n      mstore\n      0x20\n      add\n      0x60\n      dup2\n      mstore\n      pop\n      swap1\n      jump\t// out\n    tag_259:\n      pop\n      dup1\n      sload\n      0x00\n      dup3\n      sstore\n      0x05\n      mul\n      swap1\n      0x00\n      mstore\n      keccak256(0x00, 0x20)\n      swap1\n      dup2\n      add\n      swap1\n      tag_350\n      swap2\n      swap1\n      tag_351\n      jump\t// in\n    tag_350:\n      pop\n      jump\t// out\n    tag_325:\n    tag_352:\n      dup1\n      dup3\n      gt\n      iszero\n      tag_353\n      jumpi\n      0x00\n      dup1\n      dup3\n      add\n      0x00\n      tag_354\n      swap2\n      swap1\n      tag_118\n      jump\t// in\n    tag_354:\n      0x01\n      dup3\n      add\n      0x00\n      tag_355\n      swap2\n      swap1\n      tag_118\n      jump\t// in\n    tag_355:\n      pop\n      0x02\n      add\n      jump(tag_352)\n    tag_353:\n      pop\n      swap1\n      jump\t// out\n    tag_333:\n    tag_356:\n      dup1\n      dup3\n      gt\n      iszero\n      tag_357\n      jumpi\n      0x00\n      dup2\n      0x00\n      swap1\n      sstore\n      pop\n      0x01\n      add\n      jump(tag_356)\n    tag_357:\n      pop\n      swap1\n      jump\t// out\n    tag_339:\n    tag_358:\n      dup1\n      dup3\n      gt\n      iszero\n      tag_359\n      jumpi\n      0x00\n      dup2\n      dup2\n      tag_360\n      swap2\n      swap1\n      tag_118\n      jump\t// in\n    tag_360:\n      pop\n      0x01\n      add\n      jump(tag_358)\n    tag_359:\n      pop\n      swap1\n      jump\t// out\n    tag_348:\n    tag_361:\n      dup1\n      dup3\n      gt\n      iszero\n      tag_362\n      jumpi\n      0x00\n      dup1\n      dup3\n      add\n      0x00\n      tag_363\n      swap2\n      swap1\n      tag_118\n      jump\t// in\n    tag_363:\n      0x01\n      dup3\n      add\n      0x00\n      tag_364\n      swap2\n      swap1\n      tag_118\n      jump\t// in\n    tag_364:\n      0x02\n      dup3\n      add\n      0x00\n      tag_365\n      swap2\n      swap1\n      tag_118\n      jump\t// in\n    tag_365:\n      0x03\n      dup3\n      add\n      0x00\n      tag_366\n      swap2\n      swap1\n      tag_118\n      jump\t// in\n    tag_366:\n      0x04\n      dup3\n      add\n      0x00\n      tag_367\n      swap2\n      swap1\n      tag_103\n      jump\t// in\n    tag_367:\n      pop\n      0x05\n      add\n      jump(tag_361)\n    tag_362:\n      pop\n      swap1\n      jump\t// out\n    tag_351:\n    tag_368:\n      dup1\n      dup3\n      gt\n      iszero\n      tag_369\n      jumpi\n      0x00\n      dup1\n      dup3\n      add\n      0x00\n      tag_370\n      swap2\n      swap1\n      tag_118\n      jump\t// in\n    tag_370:\n      0x01\n      dup3\n      add\n      0x00\n      tag_371\n      swap2\n      swap1\n      tag_118\n      jump\t// in\n    tag_371:\n      0x02\n      dup3\n      add\n      0x00\n      tag_372\n      swap2\n      swap1\n      tag_118\n      jump\t// in\n    tag_372:\n      0x03\n      dup3\n      add\n      0x00\n      tag_373\n      swap2\n      swap1\n      tag_118\n      jump\t// in\n    tag_373:\n      0x04\n      dup3\n      add\n      0x00\n      tag_374\n      swap2\n      swap1\n      tag_118\n      jump\t// in\n    tag_374:\n      pop\n      0x05\n      add\n      jump(tag_368)\n    tag_369:\n      pop\n      swap1\n      jump\t// out\n        /* \"#utility.yul\":23:980   */\n    tag_376:\n        /* \"#utility.yul\":129:134   */\n      0x00\n        /* \"#utility.yul\":154:245   */\n      tag_378\n        /* \"#utility.yul\":170:244   */\n      tag_379\n        /* \"#utility.yul\":237:243   */\n      dup5\n        /* \"#utility.yul\":170:244   */\n      tag_380\n      jump\t// in\n    tag_379:\n        /* \"#utility.yul\":154:245   */\n      tag_381\n      jump\t// in\n    tag_378:\n        /* \"#utility.yul\":145:245   */\n      swap1\n      pop\n        /* \"#utility.yul\":265:270   */\n      dup1\n        /* \"#utility.yul\":294:300   */\n      dup4\n        /* \"#utility.yul\":287:292   */\n      dup3\n        /* \"#utility.yul\":280:301   */\n      mstore\n        /* \"#utility.yul\":328:332   */\n      0x20\n        /* \"#utility.yul\":321:326   */\n      dup3\n        /* \"#utility.yul\":317:333   */\n      add\n        /* \"#utility.yul\":310:333   */\n      swap1\n      pop\n        /* \"#utility.yul\":354:360   */\n      dup3\n        /* \"#utility.yul\":404:407   */\n      dup6\n        /* \"#utility.yul\":396:400   */\n      0x20\n        /* \"#utility.yul\":388:394   */\n      dup7\n        /* \"#utility.yul\":384:401   */\n      mul\n        /* \"#utility.yul\":379:382   */\n      dup3\n        /* \"#utility.yul\":375:402   */\n      add\n        /* \"#utility.yul\":372:408   */\n      gt\n        /* \"#utility.yul\":369:512   */\n      iszero\n      tag_382\n      jumpi\n        /* \"#utility.yul\":423:502   */\n      tag_383\n      tag_384\n      jump\t// in\n    tag_383:\n        /* \"#utility.yul\":369:512   */\n    tag_382:\n        /* \"#utility.yul\":536:537   */\n      0x00\n        /* \"#utility.yul\":521:974   */\n    tag_385:\n        /* \"#utility.yul\":546:552   */\n      dup6\n        /* \"#utility.yul\":543:544   */\n      dup2\n        /* \"#utility.yul\":540:553   */\n      lt\n        /* \"#utility.yul\":521:974   */\n      iszero\n      tag_387\n      jumpi\n        /* \"#utility.yul\":628:631   */\n      dup2\n        /* \"#utility.yul\":615:632   */\n      calldataload\n        /* \"#utility.yul\":664:682   */\n      0xffffffffffffffff\n        /* \"#utility.yul\":651:662   */\n      dup2\n        /* \"#utility.yul\":648:683   */\n      gt\n        /* \"#utility.yul\":645:767   */\n      iszero\n      tag_388\n      jumpi\n        /* \"#utility.yul\":686:765   */\n      tag_389\n      tag_390\n      jump\t// in\n    tag_389:\n        /* \"#utility.yul\":645:767   */\n    tag_388:\n        /* \"#utility.yul\":810:821   */\n      dup1\n        /* \"#utility.yul\":802:808   */\n      dup7\n        /* \"#utility.yul\":798:822   */\n      add\n        /* \"#utility.yul\":848:895   */\n      tag_391\n        /* \"#utility.yul\":891:894   */\n      dup10\n        /* \"#utility.yul\":879:889   */\n      dup3\n        /* \"#utility.yul\":848:895   */\n      tag_392\n      jump\t// in\n    tag_391:\n        /* \"#utility.yul\":843:846   */\n      dup6\n        /* \"#utility.yul\":836:896   */\n      mstore\n        /* \"#utility.yul\":925:929   */\n      0x20\n        /* \"#utility.yul\":920:923   */\n      dup6\n        /* \"#utility.yul\":916:930   */\n      add\n        /* \"#utility.yul\":909:930   */\n      swap5\n      pop\n        /* \"#utility.yul\":959:963   */\n      0x20\n        /* \"#utility.yul\":954:957   */\n      dup5\n        /* \"#utility.yul\":950:964   */\n      add\n        /* \"#utility.yul\":943:964   */\n      swap4\n      pop\n        /* \"#utility.yul\":581:974   */\n      pop\n      pop\n        /* \"#utility.yul\":568:569   */\n      0x01\n        /* \"#utility.yul\":565:566   */\n      dup2\n        /* \"#utility.yul\":561:570   */\n      add\n        /* \"#utility.yul\":556:570   */\n      swap1\n      pop\n        /* \"#utility.yul\":521:974   */\n      jump(tag_385)\n    tag_387:\n        /* \"#utility.yul\":525:539   */\n      pop\n        /* \"#utility.yul\":135:980   */\n      pop\n      pop\n        /* \"#utility.yul\":23:980   */\n      swap4\n      swap3\n      pop\n      pop\n      pop\n      jump\t// out\n        /* \"#utility.yul\":986:1398   */\n    tag_393:\n        /* \"#utility.yul\":1064:1069   */\n      0x00\n        /* \"#utility.yul\":1089:1155   */\n      tag_395\n        /* \"#utility.yul\":1105:1154   */\n      tag_396\n        /* \"#utility.yul\":1147:1153   */\n      dup5\n        /* \"#utility.yul\":1105:1154   */\n      tag_397\n      jump\t// in\n    tag_396:\n        /* \"#utility.yul\":1089:1155   */\n      tag_381\n      jump\t// in\n    tag_395:\n        /* \"#utility.yul\":1080:1155   */\n      swap1\n      pop\n        /* \"#utility.yul\":1178:1184   */\n      dup3\n        /* \"#utility.yul\":1171:1176   */\n      dup2\n        /* \"#utility.yul\":1164:1185   */\n      mstore\n        /* \"#utility.yul\":1216:1220   */\n      0x20\n        /* \"#utility.yul\":1209:1214   */\n      dup2\n        /* \"#utility.yul\":1205:1221   */\n      add\n        /* \"#utility.yul\":1254:1257   */\n      dup5\n        /* \"#utility.yul\":1245:1251   */\n      dup5\n        /* \"#utility.yul\":1240:1243   */\n      dup5\n        /* \"#utility.yul\":1236:1252   */\n      add\n        /* \"#utility.yul\":1233:1258   */\n      gt\n        /* \"#utility.yul\":1230:1342   */\n      iszero\n      tag_398\n      jumpi\n        /* \"#utility.yul\":1261:1340   */\n      tag_399\n      tag_400\n      jump\t// in\n    tag_399:\n        /* \"#utility.yul\":1230:1342   */\n    tag_398:\n        /* \"#utility.yul\":1351:1392   */\n      tag_401\n        /* \"#utility.yul\":1385:1391   */\n      dup5\n        /* \"#utility.yul\":1380:1383   */\n      dup3\n        /* \"#utility.yul\":1375:1378   */\n      dup6\n        /* \"#utility.yul\":1351:1392   */\n      tag_402\n      jump\t// in\n    tag_401:\n        /* \"#utility.yul\":1070:1398   */\n      pop\n        /* \"#utility.yul\":986:1398   */\n      swap4\n      swap3\n      pop\n      pop\n      pop\n      jump\t// out\n        /* \"#utility.yul\":1404:1543   */\n    tag_403:\n        /* \"#utility.yul\":1450:1455   */\n      0x00\n        /* \"#utility.yul\":1488:1494   */\n      dup2\n        /* \"#utility.yul\":1475:1495   */\n      calldataload\n        /* \"#utility.yul\":1466:1495   */\n      swap1\n      pop\n        /* \"#utility.yul\":1504:1537   */\n      tag_405\n        /* \"#utility.yul\":1531:1536   */\n      dup2\n        /* \"#utility.yul\":1504:1537   */\n      tag_406\n      jump\t// in\n    tag_405:\n        /* \"#utility.yul\":1404:1543   */\n      swap3\n      swap2\n      pop\n      pop\n      jump\t// out\n        /* \"#utility.yul\":1565:1955   */\n    tag_407:\n        /* \"#utility.yul\":1646:1651   */\n      0x00\n        /* \"#utility.yul\":1695:1698   */\n      dup3\n        /* \"#utility.yul\":1688:1692   */\n      0x1f\n        /* \"#utility.yul\":1680:1686   */\n      dup4\n        /* \"#utility.yul\":1676:1693   */\n      add\n        /* \"#utility.yul\":1672:1699   */\n      slt\n        /* \"#utility.yul\":1662:1784   */\n      tag_409\n      jumpi\n        /* \"#utility.yul\":1703:1782   */\n      tag_410\n      tag_390\n      jump\t// in\n    tag_410:\n        /* \"#utility.yul\":1662:1784   */\n    tag_409:\n        /* \"#utility.yul\":1820:1826   */\n      dup2\n        /* \"#utility.yul\":1807:1827   */\n      calldataload\n        /* \"#utility.yul\":1845:1949   */\n      tag_411\n        /* \"#utility.yul\":1945:1948   */\n      dup5\n        /* \"#utility.yul\":1937:1943   */\n      dup3\n        /* \"#utility.yul\":1930:1934   */\n      0x20\n        /* \"#utility.yul\":1922:1928   */\n      dup7\n        /* \"#utility.yul\":1918:1935   */\n      add\n        /* \"#utility.yul\":1845:1949   */\n      tag_376\n      jump\t// in\n    tag_411:\n        /* \"#utility.yul\":1836:1949   */\n      swap2\n      pop\n        /* \"#utility.yul\":1652:1955   */\n      pop\n        /* \"#utility.yul\":1565:1955   */\n      swap3\n      swap2\n      pop\n      pop\n      jump\t// out\n        /* \"#utility.yul\":1975:2315   */\n    tag_392:\n        /* \"#utility.yul\":2031:2036   */\n      0x00\n        /* \"#utility.yul\":2080:2083   */\n      dup3\n        /* \"#utility.yul\":2073:2077   */\n      0x1f\n        /* \"#utility.yul\":2065:2071   */\n      dup4\n        /* \"#utility.yul\":2061:2078   */\n      add\n        /* \"#utility.yul\":2057:2084   */\n      slt\n        /* \"#utility.yul\":2047:2169   */\n      tag_413\n      jumpi\n        /* \"#utility.yul\":2088:2167   */\n      tag_414\n      tag_390\n      jump\t// in\n    tag_414:\n        /* \"#utility.yul\":2047:2169   */\n    tag_413:\n        /* \"#utility.yul\":2205:2211   */\n      dup2\n        /* \"#utility.yul\":2192:2212   */\n      calldataload\n        /* \"#utility.yul\":2230:2309   */\n      tag_415\n        /* \"#utility.yul\":2305:2308   */\n      dup5\n        /* \"#utility.yul\":2297:2303   */\n      dup3\n        /* \"#utility.yul\":2290:2294   */\n      0x20\n        /* \"#utility.yul\":2282:2288   */\n      dup7\n        /* \"#utility.yul\":2278:2295   */\n      add\n        /* \"#utility.yul\":2230:2309   */\n      tag_393\n      jump\t// in\n    tag_415:\n        /* \"#utility.yul\":2221:2309   */\n      swap2\n      pop\n        /* \"#utility.yul\":2037:2315   */\n      pop\n        /* \"#utility.yul\":1975:2315   */\n      swap3\n      swap2\n      pop\n      pop\n      jump\t// out\n        /* \"#utility.yul\":2321:2460   */\n    tag_416:\n        /* \"#utility.yul\":2367:2372   */\n      0x00\n        /* \"#utility.yul\":2405:2411   */\n      dup2\n        /* \"#utility.yul\":2392:2412   */\n      calldataload\n        /* \"#utility.yul\":2383:2412   */\n      swap1\n      pop\n        /* \"#utility.yul\":2421:2454   */\n      tag_418\n        /* \"#utility.yul\":2448:2453   */\n      dup2\n        /* \"#utility.yul\":2421:2454   */\n      tag_419\n      jump\t// in\n    tag_418:\n        /* \"#utility.yul\":2321:2460   */\n      swap3\n      swap2\n      pop\n      pop\n      jump\t// out\n        /* \"#utility.yul\":2466:2795   */\n    tag_59:\n        /* \"#utility.yul\":2525:2531   */\n      0x00\n        /* \"#utility.yul\":2574:2576   */\n      0x20\n        /* \"#utility.yul\":2562:2571   */\n      dup3\n        /* \"#utility.yul\":2553:2560   */\n      dup5\n        /* \"#utility.yul\":2549:2572   */\n      sub\n        /* \"#utility.yul\":2545:2577   */\n      slt\n        /* \"#utility.yul\":2542:2661   */\n      iszero\n      tag_421\n      jumpi\n        /* \"#utility.yul\":2580:2659   */\n      tag_422\n      tag_423\n      jump\t// in\n    tag_422:\n        /* \"#utility.yul\":2542:2661   */\n    tag_421:\n        /* \"#utility.yul\":2700:2701   */\n      0x00\n        /* \"#utility.yul\":2725:2778   */\n      tag_424\n        /* \"#utility.yul\":2770:2777   */\n      dup5\n        /* \"#utility.yul\":2761:2767   */\n      dup3\n        /* \"#utility.yul\":2750:2759   */\n      dup6\n        /* \"#utility.yul\":2746:2768   */\n      add\n        /* \"#utility.yul\":2725:2778   */\n      tag_403\n      jump\t// in\n    tag_424:\n        /* \"#utility.yul\":2715:2778   */\n      swap2\n      pop\n        /* \"#utility.yul\":2671:2788   */\n      pop\n        /* \"#utility.yul\":2466:2795   */\n      swap3\n      swap2\n      pop\n      pop\n      jump\t// out\n        /* \"#utility.yul\":2801:3735   */\n    tag_45:\n        /* \"#utility.yul\":2939:2945   */\n      0x00\n        /* \"#utility.yul\":2947:2953   */\n      dup1\n        /* \"#utility.yul\":2996:2998   */\n      0x40\n        /* \"#utility.yul\":2984:2993   */\n      dup4\n        /* \"#utility.yul\":2975:2982   */\n      dup6\n        /* \"#utility.yul\":2971:2994   */\n      sub\n        /* \"#utility.yul\":2967:2999   */\n      slt\n        /* \"#utility.yul\":2964:3083   */\n      iszero\n      tag_426\n      jumpi\n        /* \"#utility.yul\":3002:3081   */\n      tag_427\n      tag_423\n      jump\t// in\n    tag_427:\n        /* \"#utility.yul\":2964:3083   */\n    tag_426:\n        /* \"#utility.yul\":3150:3151   */\n      0x00\n        /* \"#utility.yul\":3139:3148   */\n      dup4\n        /* \"#utility.yul\":3135:3152   */\n      add\n        /* \"#utility.yul\":3122:3153   */\n      calldataload\n        /* \"#utility.yul\":3180:3198   */\n      0xffffffffffffffff\n        /* \"#utility.yul\":3172:3178   */\n      dup2\n        /* \"#utility.yul\":3169:3199   */\n      gt\n        /* \"#utility.yul\":3166:3283   */\n      iszero\n      tag_428\n      jumpi\n        /* \"#utility.yul\":3202:3281   */\n      tag_429\n      tag_430\n      jump\t// in\n    tag_429:\n        /* \"#utility.yul\":3166:3283   */\n    tag_428:\n        /* \"#utility.yul\":3307:3395   */\n      tag_431\n        /* \"#utility.yul\":3387:3394   */\n      dup6\n        /* \"#utility.yul\":3378:3384   */\n      dup3\n        /* \"#utility.yul\":3367:3376   */\n      dup7\n        /* \"#utility.yul\":3363:3385   */\n      add\n        /* \"#utility.yul\":3307:3395   */\n      tag_407\n      jump\t// in\n    tag_431:\n        /* \"#utility.yul\":3297:3395   */\n      swap3\n      pop\n        /* \"#utility.yul\":3093:3405   */\n      pop\n        /* \"#utility.yul\":3472:3474   */\n      0x20\n        /* \"#utility.yul\":3461:3470   */\n      dup4\n        /* \"#utility.yul\":3457:3475   */\n      add\n        /* \"#utility.yul\":3444:3476   */\n      calldataload\n        /* \"#utility.yul\":3503:3521   */\n      0xffffffffffffffff\n        /* \"#utility.yul\":3495:3501   */\n      dup2\n        /* \"#utility.yul\":3492:3522   */\n      gt\n        /* \"#utility.yul\":3489:3606   */\n      iszero\n      tag_432\n      jumpi\n        /* \"#utility.yul\":3525:3604   */\n      tag_433\n      tag_430\n      jump\t// in\n    tag_433:\n        /* \"#utility.yul\":3489:3606   */\n    tag_432:\n        /* \"#utility.yul\":3630:3718   */\n      tag_434\n        /* \"#utility.yul\":3710:3717   */\n      dup6\n        /* \"#utility.yul\":3701:3707   */\n      dup3\n        /* \"#utility.yul\":3690:3699   */\n      dup7\n        /* \"#utility.yul\":3686:3708   */\n      add\n        /* \"#utility.yul\":3630:3718   */\n      tag_407\n      jump\t// in\n    tag_434:\n        /* \"#utility.yul\":3620:3718   */\n      swap2\n      pop\n        /* \"#utility.yul\":3415:3728   */\n      pop\n        /* \"#utility.yul\":2801:3735   */\n      swap3\n      pop\n      swap3\n      swap1\n      pop\n      jump\t// out\n        /* \"#utility.yul\":3741:5050   */\n    tag_35:\n        /* \"#utility.yul\":3923:3929   */\n      0x00\n        /* \"#utility.yul\":3931:3937   */\n      dup1\n        /* \"#utility.yul\":3939:3945   */\n      0x00\n        /* \"#utility.yul\":3988:3990   */\n      0x60\n        /* \"#utility.yul\":3976:3985   */\n      dup5\n        /* \"#utility.yul\":3967:3974   */\n      dup7\n        /* \"#utility.yul\":3963:3986   */\n      sub\n        /* \"#utility.yul\":3959:3991   */\n      slt\n        /* \"#utility.yul\":3956:4075   */\n      iszero\n      tag_436\n      jumpi\n        /* \"#utility.yul\":3994:4073   */\n      tag_437\n      tag_423\n      jump\t// in\n    tag_437:\n        /* \"#utility.yul\":3956:4075   */\n    tag_436:\n        /* \"#utility.yul\":4142:4143   */\n      0x00\n        /* \"#utility.yul\":4131:4140   */\n      dup5\n        /* \"#utility.yul\":4127:4144   */\n      add\n        /* \"#utility.yul\":4114:4145   */\n      calldataload\n        /* \"#utility.yul\":4172:4190   */\n      0xffffffffffffffff\n        /* \"#utility.yul\":4164:4170   */\n      dup2\n        /* \"#utility.yul\":4161:4191   */\n      gt\n        /* \"#utility.yul\":4158:4275   */\n      iszero\n      tag_438\n      jumpi\n        /* \"#utility.yul\":4194:4273   */\n      tag_439\n      tag_430\n      jump\t// in\n    tag_439:\n        /* \"#utility.yul\":4158:4275   */\n    tag_438:\n        /* \"#utility.yul\":4299:4387   */\n      tag_440\n        /* \"#utility.yul\":4379:4386   */\n      dup7\n        /* \"#utility.yul\":4370:4376   */\n      dup3\n        /* \"#utility.yul\":4359:4368   */\n      dup8\n        /* \"#utility.yul\":4355:4377   */\n      add\n        /* \"#utility.yul\":4299:4387   */\n      tag_407\n      jump\t// in\n    tag_440:\n        /* \"#utility.yul\":4289:4387   */\n      swap4\n      pop\n        /* \"#utility.yul\":4085:4397   */\n      pop\n        /* \"#utility.yul\":4464:4466   */\n      0x20\n        /* \"#utility.yul\":4453:4462   */\n      dup5\n        /* \"#utility.yul\":4449:4467   */\n      add\n        /* \"#utility.yul\":4436:4468   */\n      calldataload\n        /* \"#utility.yul\":4495:4513   */\n      0xffffffffffffffff\n        /* \"#utility.yul\":4487:4493   */\n      dup2\n        /* \"#utility.yul\":4484:4514   */\n      gt\n        /* \"#utility.yul\":4481:4598   */\n      iszero\n      tag_441\n      jumpi\n        /* \"#utility.yul\":4517:4596   */\n      tag_442\n      tag_430\n      jump\t// in\n    tag_442:\n        /* \"#utility.yul\":4481:4598   */\n    tag_441:\n        /* \"#utility.yul\":4622:4710   */\n      tag_443\n        /* \"#utility.yul\":4702:4709   */\n      dup7\n        /* \"#utility.yul\":4693:4699   */\n      dup3\n        /* \"#utility.yul\":4682:4691   */\n      dup8\n        /* \"#utility.yul\":4678:4700   */\n      add\n        /* \"#utility.yul\":4622:4710   */\n      tag_407\n      jump\t// in\n    tag_443:\n        /* \"#utility.yul\":4612:4710   */\n      swap3\n      pop\n        /* \"#utility.yul\":4407:4720   */\n      pop\n        /* \"#utility.yul\":4787:4789   */\n      0x40\n        /* \"#utility.yul\":4776:4785   */\n      dup5\n        /* \"#utility.yul\":4772:4790   */\n      add\n        /* \"#utility.yul\":4759:4791   */\n      calldataload\n        /* \"#utility.yul\":4818:4836   */\n      0xffffffffffffffff\n        /* \"#utility.yul\":4810:4816   */\n      dup2\n        /* \"#utility.yul\":4807:4837   */\n      gt\n        /* \"#utility.yul\":4804:4921   */\n      iszero\n      tag_444\n      jumpi\n        /* \"#utility.yul\":4840:4919   */\n      tag_445\n      tag_430\n      jump\t// in\n    tag_445:\n        /* \"#utility.yul\":4804:4921   */\n    tag_444:\n        /* \"#utility.yul\":4945:5033   */\n      tag_446\n        /* \"#utility.yul\":5025:5032   */\n      dup7\n        /* \"#utility.yul\":5016:5022   */\n      dup3\n        /* \"#utility.yul\":5005:5014   */\n      dup8\n        /* \"#utility.yul\":5001:5023   */\n      add\n        /* \"#utility.yul\":4945:5033   */\n      tag_407\n      jump\t// in\n    tag_446:\n        /* \"#utility.yul\":4935:5033   */\n      swap2\n      pop\n        /* \"#utility.yul\":4730:5043   */\n      pop\n        /* \"#utility.yul\":3741:5050   */\n      swap3\n      pop\n      swap3\n      pop\n      swap3\n      jump\t// out\n        /* \"#utility.yul\":5056:5890   */\n    tag_31:\n        /* \"#utility.yul\":5144:5150   */\n      0x00\n        /* \"#utility.yul\":5152:5158   */\n      dup1\n        /* \"#utility.yul\":5201:5203   */\n      0x40\n        /* \"#utility.yul\":5189:5198   */\n      dup4\n        /* \"#utility.yul\":5180:5187   */\n      dup6\n        /* \"#utility.yul\":5176:5199   */\n      sub\n        /* \"#utility.yul\":5172:5204   */\n      slt\n        /* \"#utility.yul\":5169:5288   */\n      iszero\n      tag_448\n      jumpi\n        /* \"#utility.yul\":5207:5286   */\n      tag_449\n      tag_423\n      jump\t// in\n    tag_449:\n        /* \"#utility.yul\":5169:5288   */\n    tag_448:\n        /* \"#utility.yul\":5355:5356   */\n      0x00\n        /* \"#utility.yul\":5344:5353   */\n      dup4\n        /* \"#utility.yul\":5340:5357   */\n      add\n        /* \"#utility.yul\":5327:5358   */\n      calldataload\n        /* \"#utility.yul\":5385:5403   */\n      0xffffffffffffffff\n        /* \"#utility.yul\":5377:5383   */\n      dup2\n        /* \"#utility.yul\":5374:5404   */\n      gt\n        /* \"#utility.yul\":5371:5488   */\n      iszero\n      tag_450\n      jumpi\n        /* \"#utility.yul\":5407:5486   */\n      tag_451\n      tag_430\n      jump\t// in\n    tag_451:\n        /* \"#utility.yul\":5371:5488   */\n    tag_450:\n        /* \"#utility.yul\":5512:5575   */\n      tag_452\n        /* \"#utility.yul\":5567:5574   */\n      dup6\n        /* \"#utility.yul\":5558:5564   */\n      dup3\n        /* \"#utility.yul\":5547:5556   */\n      dup7\n        /* \"#utility.yul\":5543:5565   */\n      add\n        /* \"#utility.yul\":5512:5575   */\n      tag_392\n      jump\t// in\n    tag_452:\n        /* \"#utility.yul\":5502:5575   */\n      swap3\n      pop\n        /* \"#utility.yul\":5298:5585   */\n      pop\n        /* \"#utility.yul\":5652:5654   */\n      0x20\n        /* \"#utility.yul\":5641:5650   */\n      dup4\n        /* \"#utility.yul\":5637:5655   */\n      add\n        /* \"#utility.yul\":5624:5656   */\n      calldataload\n        /* \"#utility.yul\":5683:5701   */\n      0xffffffffffffffff\n        /* \"#utility.yul\":5675:5681   */\n      dup2\n        /* \"#utility.yul\":5672:5702   */\n      gt\n        /* \"#utility.yul\":5669:5786   */\n      iszero\n      tag_453\n      jumpi\n        /* \"#utility.yul\":5705:5784   */\n      tag_454\n      tag_430\n      jump\t// in\n    tag_454:\n        /* \"#utility.yul\":5669:5786   */\n    tag_453:\n        /* \"#utility.yul\":5810:5873   */\n      tag_455\n        /* \"#utility.yul\":5865:5872   */\n      dup6\n        /* \"#utility.yul\":5856:5862   */\n      dup3\n        /* \"#utility.yul\":5845:5854   */\n      dup7\n        /* \"#utility.yul\":5841:5863   */\n      add\n        /* \"#utility.yul\":5810:5873   */\n      tag_392\n      jump\t// in\n    tag_455:\n        /* \"#utility.yul\":5800:5873   */\n      swap2\n      pop\n        /* \"#utility.yul\":5595:5883   */\n      pop\n        /* \"#utility.yul\":5056:5890   */\n      swap3\n      pop\n      swap3\n      swap1\n      pop\n      jump\t// out\n        /* \"#utility.yul\":5896:7757   */\n    tag_27:\n        /* \"#utility.yul\":6066:6072   */\n      0x00\n        /* \"#utility.yul\":6074:6080   */\n      dup1\n        /* \"#utility.yul\":6082:6088   */\n      0x00\n        /* \"#utility.yul\":6090:6096   */\n      dup1\n        /* \"#utility.yul\":6098:6104   */\n      0x00\n        /* \"#utility.yul\":6147:6150   */\n      0xa0\n        /* \"#utility.yul\":6135:6144   */\n      dup7\n        /* \"#utility.yul\":6126:6133   */\n      dup9\n        /* \"#utility.yul\":6122:6145   */\n      sub\n        /* \"#utility.yul\":6118:6151   */\n      slt\n        /* \"#utility.yul\":6115:6235   */\n      iszero\n      tag_457\n      jumpi\n        /* \"#utility.yul\":6154:6233   */\n      tag_458\n      tag_423\n      jump\t// in\n    tag_458:\n        /* \"#utility.yul\":6115:6235   */\n    tag_457:\n        /* \"#utility.yul\":6302:6303   */\n      0x00\n        /* \"#utility.yul\":6291:6300   */\n      dup7\n        /* \"#utility.yul\":6287:6304   */\n      add\n        /* \"#utility.yul\":6274:6305   */\n      calldataload\n        /* \"#utility.yul\":6332:6350   */\n      0xffffffffffffffff\n        /* \"#utility.yul\":6324:6330   */\n      dup2\n        /* \"#utility.yul\":6321:6351   */\n      gt\n        /* \"#utility.yul\":6318:6435   */\n      iszero\n      tag_459\n      jumpi\n        /* \"#utility.yul\":6354:6433   */\n      tag_460\n      tag_430\n      jump\t// in\n    tag_460:\n        /* \"#utility.yul\":6318:6435   */\n    tag_459:\n        /* \"#utility.yul\":6459:6522   */\n      tag_461\n        /* \"#utility.yul\":6514:6521   */\n      dup9\n        /* \"#utility.yul\":6505:6511   */\n      dup3\n        /* \"#utility.yul\":6494:6503   */\n      dup10\n        /* \"#utility.yul\":6490:6512   */\n      add\n        /* \"#utility.yul\":6459:6522   */\n      tag_392\n      jump\t// in\n    tag_461:\n        /* \"#utility.yul\":6449:6522   */\n      swap6\n      pop\n        /* \"#utility.yul\":6245:6532   */\n      pop\n        /* \"#utility.yul\":6599:6601   */\n      0x20\n        /* \"#utility.yul\":6588:6597   */\n      dup7\n        /* \"#utility.yul\":6584:6602   */\n      add\n        /* \"#utility.yul\":6571:6603   */\n      calldataload\n        /* \"#utility.yul\":6630:6648   */\n      0xffffffffffffffff\n        /* \"#utility.yul\":6622:6628   */\n      dup2\n        /* \"#utility.yul\":6619:6649   */\n      gt\n        /* \"#utility.yul\":6616:6733   */\n      iszero\n      tag_462\n      jumpi\n        /* \"#utility.yul\":6652:6731   */\n      tag_463\n      tag_430\n      jump\t// in\n    tag_463:\n        /* \"#utility.yul\":6616:6733   */\n    tag_462:\n        /* \"#utility.yul\":6757:6820   */\n      tag_464\n        /* \"#utility.yul\":6812:6819   */\n      dup9\n        /* \"#utility.yul\":6803:6809   */\n      dup3\n        /* \"#utility.yul\":6792:6801   */\n      dup10\n        /* \"#utility.yul\":6788:6810   */\n      add\n        /* \"#utility.yul\":6757:6820   */\n      tag_392\n      jump\t// in\n    tag_464:\n        /* \"#utility.yul\":6747:6820   */\n      swap5\n      pop\n        /* \"#utility.yul\":6542:6830   */\n      pop\n        /* \"#utility.yul\":6897:6899   */\n      0x40\n        /* \"#utility.yul\":6886:6895   */\n      dup7\n        /* \"#utility.yul\":6882:6900   */\n      add\n        /* \"#utility.yul\":6869:6901   */\n      calldataload\n        /* \"#utility.yul\":6928:6946   */\n      0xffffffffffffffff\n        /* \"#utility.yul\":6920:6926   */\n      dup2\n        /* \"#utility.yul\":6917:6947   */\n      gt\n        /* \"#utility.yul\":6914:7031   */\n      iszero\n      tag_465\n      jumpi\n        /* \"#utility.yul\":6950:7029   */\n      tag_466\n      tag_430\n      jump\t// in\n    tag_466:\n        /* \"#utility.yul\":6914:7031   */\n    tag_465:\n        /* \"#utility.yul\":7055:7118   */\n      tag_467\n        /* \"#utility.yul\":7110:7117   */\n      dup9\n        /* \"#utility.yul\":7101:7107   */\n      dup3\n        /* \"#utility.yul\":7090:7099   */\n      dup10\n        /* \"#utility.yul\":7086:7108   */\n      add\n        /* \"#utility.yul\":7055:7118   */\n      tag_392\n      jump\t// in\n    tag_467:\n        /* \"#utility.yul\":7045:7118   */\n      swap4\n      pop\n        /* \"#utility.yul\":6840:7128   */\n      pop\n        /* \"#utility.yul\":7195:7197   */\n      0x60\n        /* \"#utility.yul\":7184:7193   */\n      dup7\n        /* \"#utility.yul\":7180:7198   */\n      add\n        /* \"#utility.yul\":7167:7199   */\n      calldataload\n        /* \"#utility.yul\":7226:7244   */\n      0xffffffffffffffff\n        /* \"#utility.yul\":7218:7224   */\n      dup2\n        /* \"#utility.yul\":7215:7245   */\n      gt\n        /* \"#utility.yul\":7212:7329   */\n      iszero\n      tag_468\n      jumpi\n        /* \"#utility.yul\":7248:7327   */\n      tag_469\n      tag_430\n      jump\t// in\n    tag_469:\n        /* \"#utility.yul\":7212:7329   */\n    tag_468:\n        /* \"#utility.yul\":7353:7416   */\n      tag_470\n        /* \"#utility.yul\":7408:7415   */\n      dup9\n        /* \"#utility.yul\":7399:7405   */\n      dup3\n        /* \"#utility.yul\":7388:7397   */\n      dup10\n        /* \"#utility.yul\":7384:7406   */\n      add\n        /* \"#utility.yul\":7353:7416   */\n      tag_392\n      jump\t// in\n    tag_470:\n        /* \"#utility.yul\":7343:7416   */\n      swap3\n      pop\n        /* \"#utility.yul\":7138:7426   */\n      pop\n        /* \"#utility.yul\":7493:7496   */\n      0x80\n        /* \"#utility.yul\":7482:7491   */\n      dup7\n        /* \"#utility.yul\":7478:7497   */\n      add\n        /* \"#utility.yul\":7465:7498   */\n      calldataload\n        /* \"#utility.yul\":7525:7543   */\n      0xffffffffffffffff\n        /* \"#utility.yul\":7517:7523   */\n      dup2\n        /* \"#utility.yul\":7514:7544   */\n      gt\n        /* \"#utility.yul\":7511:7628   */\n      iszero\n      tag_471\n      jumpi\n        /* \"#utility.yul\":7547:7626   */\n      tag_472\n      tag_430\n      jump\t// in\n    tag_472:\n        /* \"#utility.yul\":7511:7628   */\n    tag_471:\n        /* \"#utility.yul\":7652:7740   */\n      tag_473\n        /* \"#utility.yul\":7732:7739   */\n      dup9\n        /* \"#utility.yul\":7723:7729   */\n      dup3\n        /* \"#utility.yul\":7712:7721   */\n      dup10\n        /* \"#utility.yul\":7708:7730   */\n      add\n        /* \"#utility.yul\":7652:7740   */\n      tag_407\n      jump\t// in\n    tag_473:\n        /* \"#utility.yul\":7642:7740   */\n      swap2\n      pop\n        /* \"#utility.yul\":7436:7750   */\n      pop\n        /* \"#utility.yul\":5896:7757   */\n      swap3\n      swap6\n      pop\n      swap3\n      swap6\n      swap1\n      swap4\n      pop\n      jump\t// out\n        /* \"#utility.yul\":7763:9574   */\n    tag_49:\n        /* \"#utility.yul\":7908:7914   */\n      0x00\n        /* \"#utility.yul\":7916:7922   */\n      dup1\n        /* \"#utility.yul\":7924:7930   */\n      0x00\n        /* \"#utility.yul\":7932:7938   */\n      dup1\n        /* \"#utility.yul\":7940:7946   */\n      0x00\n        /* \"#utility.yul\":7989:7992   */\n      0xa0\n        /* \"#utility.yul\":7977:7986   */\n      dup7\n        /* \"#utility.yul\":7968:7975   */\n      dup9\n        /* \"#utility.yul\":7964:7987   */\n      sub\n        /* \"#utility.yul\":7960:7993   */\n      slt\n        /* \"#utility.yul\":7957:8077   */\n      iszero\n      tag_475\n      jumpi\n        /* \"#utility.yul\":7996:8075   */\n      tag_476\n      tag_423\n      jump\t// in\n    tag_476:\n        /* \"#utility.yul\":7957:8077   */\n    tag_475:\n        /* \"#utility.yul\":8144:8145   */\n      0x00\n        /* \"#utility.yul\":8133:8142   */\n      dup7\n        /* \"#utility.yul\":8129:8146   */\n      add\n        /* \"#utility.yul\":8116:8147   */\n      calldataload\n        /* \"#utility.yul\":8174:8192   */\n      0xffffffffffffffff\n        /* \"#utility.yul\":8166:8172   */\n      dup2\n        /* \"#utility.yul\":8163:8193   */\n      gt\n        /* \"#utility.yul\":8160:8277   */\n      iszero\n      tag_477\n      jumpi\n        /* \"#utility.yul\":8196:8275   */\n      tag_478\n      tag_430\n      jump\t// in\n    tag_478:\n        /* \"#utility.yul\":8160:8277   */\n    tag_477:\n        /* \"#utility.yul\":8301:8364   */\n      tag_479\n        /* \"#utility.yul\":8356:8363   */\n      dup9\n        /* \"#utility.yul\":8347:8353   */\n      dup3\n        /* \"#utility.yul\":8336:8345   */\n      dup10\n        /* \"#utility.yul\":8332:8354   */\n      add\n        /* \"#utility.yul\":8301:8364   */\n      tag_392\n      jump\t// in\n    tag_479:\n        /* \"#utility.yul\":8291:8364   */\n      swap6\n      pop\n        /* \"#utility.yul\":8087:8374   */\n      pop\n        /* \"#utility.yul\":8441:8443   */\n      0x20\n        /* \"#utility.yul\":8430:8439   */\n      dup7\n        /* \"#utility.yul\":8426:8444   */\n      add\n        /* \"#utility.yul\":8413:8445   */\n      calldataload\n        /* \"#utility.yul\":8472:8490   */\n      0xffffffffffffffff\n        /* \"#utility.yul\":8464:8470   */\n      dup2\n        /* \"#utility.yul\":8461:8491   */\n      gt\n        /* \"#utility.yul\":8458:8575   */\n      iszero\n      tag_480\n      jumpi\n        /* \"#utility.yul\":8494:8573   */\n      tag_481\n      tag_430\n      jump\t// in\n    tag_481:\n        /* \"#utility.yul\":8458:8575   */\n    tag_480:\n        /* \"#utility.yul\":8599:8662   */\n      tag_482\n        /* \"#utility.yul\":8654:8661   */\n      dup9\n        /* \"#utility.yul\":8645:8651   */\n      dup3\n        /* \"#utility.yul\":8634:8643   */\n      dup10\n        /* \"#utility.yul\":8630:8652   */\n      add\n        /* \"#utility.yul\":8599:8662   */\n      tag_392\n      jump\t// in\n    tag_482:\n        /* \"#utility.yul\":8589:8662   */\n      swap5\n      pop\n        /* \"#utility.yul\":8384:8672   */\n      pop\n        /* \"#utility.yul\":8739:8741   */\n      0x40\n        /* \"#utility.yul\":8728:8737   */\n      dup7\n        /* \"#utility.yul\":8724:8742   */\n      add\n        /* \"#utility.yul\":8711:8743   */\n      calldataload\n        /* \"#utility.yul\":8770:8788   */\n      0xffffffffffffffff\n        /* \"#utility.yul\":8762:8768   */\n      dup2\n        /* \"#utility.yul\":8759:8789   */\n      gt\n        /* \"#utility.yul\":8756:8873   */\n      iszero\n      tag_483\n      jumpi\n        /* \"#utility.yul\":8792:8871   */\n      tag_484\n      tag_430\n      jump\t// in\n    tag_484:\n        /* \"#utility.yul\":8756:8873   */\n    tag_483:\n        /* \"#utility.yul\":8897:8960   */\n      tag_485\n        /* \"#utility.yul\":8952:8959   */\n      dup9\n        /* \"#utility.yul\":8943:8949   */\n      dup3\n        /* \"#utility.yul\":8932:8941   */\n      dup10\n        /* \"#utility.yul\":8928:8950   */\n      add\n        /* \"#utility.yul\":8897:8960   */\n      tag_392\n      jump\t// in\n    tag_485:\n        /* \"#utility.yul\":8887:8960   */\n      swap4\n      pop\n        /* \"#utility.yul\":8682:8970   */\n      pop\n        /* \"#utility.yul\":9037:9039   */\n      0x60\n        /* \"#utility.yul\":9026:9035   */\n      dup7\n        /* \"#utility.yul\":9022:9040   */\n      add\n        /* \"#utility.yul\":9009:9041   */\n      calldataload\n        /* \"#utility.yul\":9068:9086   */\n      0xffffffffffffffff\n        /* \"#utility.yul\":9060:9066   */\n      dup2\n        /* \"#utility.yul\":9057:9087   */\n      gt\n        /* \"#utility.yul\":9054:9171   */\n      iszero\n      tag_486\n      jumpi\n        /* \"#utility.yul\":9090:9169   */\n      tag_487\n      tag_430\n      jump\t// in\n    tag_487:\n        /* \"#utility.yul\":9054:9171   */\n    tag_486:\n        /* \"#utility.yul\":9195:9258   */\n      tag_488\n        /* \"#utility.yul\":9250:9257   */\n      dup9\n        /* \"#utility.yul\":9241:9247   */\n      dup3\n        /* \"#utility.yul\":9230:9239   */\n      dup10\n        /* \"#utility.yul\":9226:9248   */\n      add\n        /* \"#utility.yul\":9195:9258   */\n      tag_392\n      jump\t// in\n    tag_488:\n        /* \"#utility.yul\":9185:9258   */\n      swap3\n      pop\n        /* \"#utility.yul\":8980:9268   */\n      pop\n        /* \"#utility.yul\":9335:9338   */\n      0x80\n        /* \"#utility.yul\":9324:9333   */\n      dup7\n        /* \"#utility.yul\":9320:9339   */\n      add\n        /* \"#utility.yul\":9307:9340   */\n      calldataload\n        /* \"#utility.yul\":9367:9385   */\n      0xffffffffffffffff\n        /* \"#utility.yul\":9359:9365   */\n      dup2\n        /* \"#utility.yul\":9356:9386   */\n      gt\n        /* \"#utility.yul\":9353:9470   */\n      iszero\n      tag_489\n      jumpi\n        /* \"#utility.yul\":9389:9468   */\n      tag_490\n      tag_430\n      jump\t// in\n    tag_490:\n        /* \"#utility.yul\":9353:9470   */\n    tag_489:\n        /* \"#utility.yul\":9494:9557   */\n      tag_491\n        /* \"#utility.yul\":9549:9556   */\n      dup9\n        /* \"#utility.yul\":9540:9546   */\n      dup3\n        /* \"#utility.yul\":9529:9538   */\n      dup10\n        /* \"#utility.yul\":9525:9547   */\n      add\n        /* \"#utility.yul\":9494:9557   */\n      tag_392\n      jump\t// in\n    tag_491:\n        /* \"#utility.yul\":9484:9557   */\n      swap2\n      pop\n        /* \"#utility.yul\":9278:9567   */\n      pop\n        /* \"#utility.yul\":7763:9574   */\n      swap3\n      swap6\n      pop\n      swap3\n      swap6\n      swap1\n      swap4\n      pop\n      jump\t// out\n        /* \"#utility.yul\":9580:11717   */\n    tag_53:\n        /* \"#utility.yul\":9744:9750   */\n      0x00\n        /* \"#utility.yul\":9752:9758   */\n      dup1\n        /* \"#utility.yul\":9760:9766   */\n      0x00\n        /* \"#utility.yul\":9768:9774   */\n      dup1\n        /* \"#utility.yul\":9776:9782   */\n      0x00\n        /* \"#utility.yul\":9784:9790   */\n      dup1\n        /* \"#utility.yul\":9833:9836   */\n      0xc0\n        /* \"#utility.yul\":9821:9830   */\n      dup8\n        /* \"#utility.yul\":9812:9819   */\n      dup10\n        /* \"#utility.yul\":9808:9831   */\n      sub\n        /* \"#utility.yul\":9804:9837   */\n      slt\n        /* \"#utility.yul\":9801:9921   */\n      iszero\n      tag_493\n      jumpi\n        /* \"#utility.yul\":9840:9919   */\n      tag_494\n      tag_423\n      jump\t// in\n    tag_494:\n        /* \"#utility.yul\":9801:9921   */\n    tag_493:\n        /* \"#utility.yul\":9988:9989   */\n      0x00\n        /* \"#utility.yul\":9977:9986   */\n      dup8\n        /* \"#utility.yul\":9973:9990   */\n      add\n        /* \"#utility.yul\":9960:9991   */\n      calldataload\n        /* \"#utility.yul\":10018:10036   */\n      0xffffffffffffffff\n        /* \"#utility.yul\":10010:10016   */\n      dup2\n        /* \"#utility.yul\":10007:10037   */\n      gt\n        /* \"#utility.yul\":10004:10121   */\n      iszero\n      tag_495\n      jumpi\n        /* \"#utility.yul\":10040:10119   */\n      tag_496\n      tag_430\n      jump\t// in\n    tag_496:\n        /* \"#utility.yul\":10004:10121   */\n    tag_495:\n        /* \"#utility.yul\":10145:10208   */\n      tag_497\n        /* \"#utility.yul\":10200:10207   */\n      dup10\n        /* \"#utility.yul\":10191:10197   */\n      dup3\n        /* \"#utility.yul\":10180:10189   */\n      dup11\n        /* \"#utility.yul\":10176:10198   */\n      add\n        /* \"#utility.yul\":10145:10208   */\n      tag_392\n      jump\t// in\n    tag_497:\n        /* \"#utility.yul\":10135:10208   */\n      swap7\n      pop\n        /* \"#utility.yul\":9931:10218   */\n      pop\n        /* \"#utility.yul\":10285:10287   */\n      0x20\n        /* \"#utility.yul\":10274:10283   */\n      dup8\n        /* \"#utility.yul\":10270:10288   */\n      add\n        /* \"#utility.yul\":10257:10289   */\n      calldataload\n        /* \"#utility.yul\":10316:10334   */\n      0xffffffffffffffff\n        /* \"#utility.yul\":10308:10314   */\n      dup2\n        /* \"#utility.yul\":10305:10335   */\n      gt\n        /* \"#utility.yul\":10302:10419   */\n      iszero\n      tag_498\n      jumpi\n        /* \"#utility.yul\":10338:10417   */\n      tag_499\n      tag_430\n      jump\t// in\n    tag_499:\n        /* \"#utility.yul\":10302:10419   */\n    tag_498:\n        /* \"#utility.yul\":10443:10506   */\n      tag_500\n        /* \"#utility.yul\":10498:10505   */\n      dup10\n        /* \"#utility.yul\":10489:10495   */\n      dup3\n        /* \"#utility.yul\":10478:10487   */\n      dup11\n        /* \"#utility.yul\":10474:10496   */\n      add\n        /* \"#utility.yul\":10443:10506   */\n      tag_392\n      jump\t// in\n    tag_500:\n        /* \"#utility.yul\":10433:10506   */\n      swap6\n      pop\n        /* \"#utility.yul\":10228:10516   */\n      pop\n        /* \"#utility.yul\":10583:10585   */\n      0x40\n        /* \"#utility.yul\":10572:10581   */\n      dup8\n        /* \"#utility.yul\":10568:10586   */\n      add\n        /* \"#utility.yul\":10555:10587   */\n      calldataload\n        /* \"#utility.yul\":10614:10632   */\n      0xffffffffffffffff\n        /* \"#utility.yul\":10606:10612   */\n      dup2\n        /* \"#utility.yul\":10603:10633   */\n      gt\n        /* \"#utility.yul\":10600:10717   */\n      iszero\n      tag_501\n      jumpi\n        /* \"#utility.yul\":10636:10715   */\n      tag_502\n      tag_430\n      jump\t// in\n    tag_502:\n        /* \"#utility.yul\":10600:10717   */\n    tag_501:\n        /* \"#utility.yul\":10741:10804   */\n      tag_503\n        /* \"#utility.yul\":10796:10803   */\n      dup10\n        /* \"#utility.yul\":10787:10793   */\n      dup3\n        /* \"#utility.yul\":10776:10785   */\n      dup11\n        /* \"#utility.yul\":10772:10794   */\n      add\n        /* \"#utility.yul\":10741:10804   */\n      tag_392\n      jump\t// in\n    tag_503:\n        /* \"#utility.yul\":10731:10804   */\n      swap5\n      pop\n        /* \"#utility.yul\":10526:10814   */\n      pop\n        /* \"#utility.yul\":10881:10883   */\n      0x60\n        /* \"#utility.yul\":10870:10879   */\n      dup8\n        /* \"#utility.yul\":10866:10884   */\n      add\n        /* \"#utility.yul\":10853:10885   */\n      calldataload\n        /* \"#utility.yul\":10912:10930   */\n      0xffffffffffffffff\n        /* \"#utility.yul\":10904:10910   */\n      dup2\n        /* \"#utility.yul\":10901:10931   */\n      gt\n        /* \"#utility.yul\":10898:11015   */\n      iszero\n      tag_504\n      jumpi\n        /* \"#utility.yul\":10934:11013   */\n      tag_505\n      tag_430\n      jump\t// in\n    tag_505:\n        /* \"#utility.yul\":10898:11015   */\n    tag_504:\n        /* \"#utility.yul\":11039:11102   */\n      tag_506\n        /* \"#utility.yul\":11094:11101   */\n      dup10\n        /* \"#utility.yul\":11085:11091   */\n      dup3\n        /* \"#utility.yul\":11074:11083   */\n      dup11\n        /* \"#utility.yul\":11070:11092   */\n      add\n        /* \"#utility.yul\":11039:11102   */\n      tag_392\n      jump\t// in\n    tag_506:\n        /* \"#utility.yul\":11029:11102   */\n      swap4\n      pop\n        /* \"#utility.yul\":10824:11112   */\n      pop\n        /* \"#utility.yul\":11179:11182   */\n      0x80\n        /* \"#utility.yul\":11168:11177   */\n      dup8\n        /* \"#utility.yul\":11164:11183   */\n      add\n        /* \"#utility.yul\":11151:11184   */\n      calldataload\n        /* \"#utility.yul\":11211:11229   */\n      0xffffffffffffffff\n        /* \"#utility.yul\":11203:11209   */\n      dup2\n        /* \"#utility.yul\":11200:11230   */\n      gt\n        /* \"#utility.yul\":11197:11314   */\n      iszero\n      tag_507\n      jumpi\n        /* \"#utility.yul\":11233:11312   */\n      tag_508\n      tag_430\n      jump\t// in\n    tag_508:\n        /* \"#utility.yul\":11197:11314   */\n    tag_507:\n        /* \"#utility.yul\":11338:11401   */\n      tag_509\n        /* \"#utility.yul\":11393:11400   */\n      dup10\n        /* \"#utility.yul\":11384:11390   */\n      dup3\n        /* \"#utility.yul\":11373:11382   */\n      dup11\n        /* \"#utility.yul\":11369:11391   */\n      add\n        /* \"#utility.yul\":11338:11401   */\n      tag_392\n      jump\t// in\n    tag_509:\n        /* \"#utility.yul\":11328:11401   */\n      swap3\n      pop\n        /* \"#utility.yul\":11122:11411   */\n      pop\n        /* \"#utility.yul\":11478:11481   */\n      0xa0\n        /* \"#utility.yul\":11467:11476   */\n      dup8\n        /* \"#utility.yul\":11463:11482   */\n      add\n        /* \"#utility.yul\":11450:11483   */\n      calldataload\n        /* \"#utility.yul\":11510:11528   */\n      0xffffffffffffffff\n        /* \"#utility.yul\":11502:11508   */\n      dup2\n        /* \"#utility.yul\":11499:11529   */\n      gt\n        /* \"#utility.yul\":11496:11613   */\n      iszero\n      tag_510\n      jumpi\n        /* \"#utility.yul\":11532:11611   */\n      tag_511\n      tag_430\n      jump\t// in\n    tag_511:\n        /* \"#utility.yul\":11496:11613   */\n    tag_510:\n        /* \"#utility.yul\":11637:11700   */\n      tag_512\n        /* \"#utility.yul\":11692:11699   */\n      dup10\n        /* \"#utility.yul\":11683:11689   */\n      dup3\n        /* \"#utility.yul\":11672:11681   */\n      dup11\n        /* \"#utility.yul\":11668:11690   */\n      add\n        /* \"#utility.yul\":11637:11700   */\n      tag_392\n      jump\t// in\n    tag_512:\n        /* \"#utility.yul\":11627:11700   */\n      swap2\n      pop\n        /* \"#utility.yul\":11421:11710   */\n      pop\n        /* \"#utility.yul\":9580:11717   */\n      swap3\n      swap6\n      pop\n      swap3\n      swap6\n      pop\n      swap3\n      swap6\n      jump\t// out\n        /* \"#utility.yul\":11723:12052   */\n    tag_75:\n        /* \"#utility.yul\":11782:11788   */\n      0x00\n        /* \"#utility.yul\":11831:11833   */\n      0x20\n        /* \"#utility.yul\":11819:11828   */\n      dup3\n        /* \"#utility.yul\":11810:11817   */\n      dup5\n        /* \"#utility.yul\":11806:11829   */\n      sub\n        /* \"#utility.yul\":11802:11834   */\n      slt\n        /* \"#utility.yul\":11799:11918   */\n      iszero\n      tag_514\n      jumpi\n        /* \"#utility.yul\":11837:11916   */\n      tag_515\n      tag_423\n      jump\t// in\n    tag_515:\n        /* \"#utility.yul\":11799:11918   */\n    tag_514:\n        /* \"#utility.yul\":11957:11958   */\n      0x00\n        /* \"#utility.yul\":11982:12035   */\n      tag_516\n        /* \"#utility.yul\":12027:12034   */\n      dup5\n        /* \"#utility.yul\":12018:12024   */\n      dup3\n        /* \"#utility.yul\":12007:12016   */\n      dup6\n        /* \"#utility.yul\":12003:12025   */\n      add\n        /* \"#utility.yul\":11982:12035   */\n      tag_416\n      jump\t// in\n    tag_516:\n        /* \"#utility.yul\":11972:12035   */\n      swap2\n      pop\n        /* \"#utility.yul\":11928:12045   */\n      pop\n        /* \"#utility.yul\":11723:12052   */\n      swap3\n      swap2\n      pop\n      pop\n      jump\t// out\n        /* \"#utility.yul\":12058:12254   */\n    tag_517:\n        /* \"#utility.yul\":12147:12157   */\n      0x00\n        /* \"#utility.yul\":12182:12248   */\n      tag_519\n        /* \"#utility.yul\":12244:12247   */\n      dup4\n        /* \"#utility.yul\":12236:12242   */\n      dup4\n        /* \"#utility.yul\":12182:12248   */\n      tag_520\n      jump\t// in\n    tag_519:\n        /* \"#utility.yul\":12168:12248   */\n      swap1\n      pop\n        /* \"#utility.yul\":12058:12254   */\n      swap3\n      swap2\n      pop\n      pop\n      jump\t// out\n        /* \"#utility.yul\":12260:12368   */\n    tag_521:\n        /* \"#utility.yul\":12337:12361   */\n      tag_523\n        /* \"#utility.yul\":12355:12360   */\n      dup2\n        /* \"#utility.yul\":12337:12361   */\n      tag_524\n      jump\t// in\n    tag_523:\n        /* \"#utility.yul\":12332:12335   */\n      dup3\n        /* \"#utility.yul\":12325:12362   */\n      mstore\n        /* \"#utility.yul\":12260:12368   */\n      pop\n      pop\n      jump\t// out\n        /* \"#utility.yul\":12402:13373   */\n    tag_525:\n        /* \"#utility.yul\":12531:12534   */\n      0x00\n        /* \"#utility.yul\":12560:12624   */\n      tag_527\n        /* \"#utility.yul\":12618:12623   */\n      dup3\n        /* \"#utility.yul\":12560:12624   */\n      tag_528\n      jump\t// in\n    tag_527:\n        /* \"#utility.yul\":12640:12726   */\n      tag_529\n        /* \"#utility.yul\":12719:12725   */\n      dup2\n        /* \"#utility.yul\":12714:12717   */\n      dup6\n        /* \"#utility.yul\":12640:12726   */\n      tag_530\n      jump\t// in\n    tag_529:\n        /* \"#utility.yul\":12633:12726   */\n      swap4\n      pop\n        /* \"#utility.yul\":12752:12755   */\n      dup4\n        /* \"#utility.yul\":12797:12801   */\n      0x20\n        /* \"#utility.yul\":12789:12795   */\n      dup3\n        /* \"#utility.yul\":12785:12802   */\n      mul\n        /* \"#utility.yul\":12780:12783   */\n      dup6\n        /* \"#utility.yul\":12776:12803   */\n      add\n        /* \"#utility.yul\":12827:12893   */\n      tag_531\n        /* \"#utility.yul\":12887:12892   */\n      dup6\n        /* \"#utility.yul\":12827:12893   */\n      tag_532\n      jump\t// in\n    tag_531:\n        /* \"#utility.yul\":12916:12923   */\n      dup1\n        /* \"#utility.yul\":12947:12948   */\n      0x00\n        /* \"#utility.yul\":12932:13328   */\n    tag_533:\n        /* \"#utility.yul\":12957:12963   */\n      dup6\n        /* \"#utility.yul\":12954:12955   */\n      dup2\n        /* \"#utility.yul\":12951:12964   */\n      lt\n        /* \"#utility.yul\":12932:13328   */\n      iszero\n      tag_535\n      jumpi\n        /* \"#utility.yul\":13028:13037   */\n      dup5\n        /* \"#utility.yul\":13022:13026   */\n      dup5\n        /* \"#utility.yul\":13018:13038   */\n      sub\n        /* \"#utility.yul\":13013:13016   */\n      dup10\n        /* \"#utility.yul\":13006:13039   */\n      mstore\n        /* \"#utility.yul\":13079:13085   */\n      dup2\n        /* \"#utility.yul\":13073:13086   */\n      mload\n        /* \"#utility.yul\":13107:13191   */\n      tag_536\n        /* \"#utility.yul\":13186:13190   */\n      dup6\n        /* \"#utility.yul\":13171:13184   */\n      dup3\n        /* \"#utility.yul\":13107:13191   */\n      tag_517\n      jump\t// in\n    tag_536:\n        /* \"#utility.yul\":13099:13191   */\n      swap5\n      pop\n        /* \"#utility.yul\":13214:13284   */\n      tag_537\n        /* \"#utility.yul\":13277:13283   */\n      dup4\n        /* \"#utility.yul\":13214:13284   */\n      tag_538\n      jump\t// in\n    tag_537:\n        /* \"#utility.yul\":13204:13284   */\n      swap3\n      pop\n        /* \"#utility.yul\":13313:13317   */\n      0x20\n        /* \"#utility.yul\":13308:13311   */\n      dup11\n        /* \"#utility.yul\":13304:13318   */\n      add\n        /* \"#utility.yul\":13297:13318   */\n      swap10\n      pop\n        /* \"#utility.yul\":12992:13328   */\n      pop\n        /* \"#utility.yul\":12979:12980   */\n      0x01\n        /* \"#utility.yul\":12976:12977   */\n      dup2\n        /* \"#utility.yul\":12972:12981   */\n      add\n        /* \"#utility.yul\":12967:12981   */\n      swap1\n      pop\n        /* \"#utility.yul\":12932:13328   */\n      jump(tag_533)\n    tag_535:\n        /* \"#utility.yul\":12936:12950   */\n      pop\n        /* \"#utility.yul\":13344:13348   */\n      dup3\n        /* \"#utility.yul\":13337:13348   */\n      swap8\n      pop\n        /* \"#utility.yul\":13364:13367   */\n      dup8\n        /* \"#utility.yul\":13357:13367   */\n      swap6\n      pop\n        /* \"#utility.yul\":12536:13373   */\n      pop\n      pop\n      pop\n      pop\n      pop\n        /* \"#utility.yul\":12402:13373   */\n      swap3\n      swap2\n      pop\n      pop\n      jump\t// out\n        /* \"#utility.yul\":13379:13723   */\n    tag_520:\n        /* \"#utility.yul\":13457:13460   */\n      0x00\n        /* \"#utility.yul\":13485:13524   */\n      tag_540\n        /* \"#utility.yul\":13518:13523   */\n      dup3\n        /* \"#utility.yul\":13485:13524   */\n      tag_541\n      jump\t// in\n    tag_540:\n        /* \"#utility.yul\":13540:13601   */\n      tag_542\n        /* \"#utility.yul\":13594:13600   */\n      dup2\n        /* \"#utility.yul\":13589:13592   */\n      dup6\n        /* \"#utility.yul\":13540:13601   */\n      tag_543\n      jump\t// in\n    tag_542:\n        /* \"#utility.yul\":13533:13601   */\n      swap4\n      pop\n        /* \"#utility.yul\":13610:13662   */\n      tag_544\n        /* \"#utility.yul\":13655:13661   */\n      dup2\n        /* \"#utility.yul\":13650:13653   */\n      dup6\n        /* \"#utility.yul\":13643:13647   */\n      0x20\n        /* \"#utility.yul\":13636:13641   */\n      dup7\n        /* \"#utility.yul\":13632:13648   */\n      add\n        /* \"#utility.yul\":13610:13662   */\n      tag_545\n      jump\t// in\n    tag_544:\n        /* \"#utility.yul\":13687:13716   */\n      tag_546\n        /* \"#utility.yul\":13709:13715   */\n      dup2\n        /* \"#utility.yul\":13687:13716   */\n      tag_547\n      jump\t// in\n    tag_546:\n        /* \"#utility.yul\":13682:13685   */\n      dup5\n        /* \"#utility.yul\":13678:13717   */\n      add\n        /* \"#utility.yul\":13671:13717   */\n      swap2\n      pop\n        /* \"#utility.yul\":13461:13723   */\n      pop\n        /* \"#utility.yul\":13379:13723   */\n      swap3\n      swap2\n      pop\n      pop\n      jump\t// out\n        /* \"#utility.yul\":13729:14093   */\n    tag_548:\n        /* \"#utility.yul\":13817:13820   */\n      0x00\n        /* \"#utility.yul\":13845:13884   */\n      tag_550\n        /* \"#utility.yul\":13878:13883   */\n      dup3\n        /* \"#utility.yul\":13845:13884   */\n      tag_541\n      jump\t// in\n    tag_550:\n        /* \"#utility.yul\":13900:13971   */\n      tag_551\n        /* \"#utility.yul\":13964:13970   */\n      dup2\n        /* \"#utility.yul\":13959:13962   */\n      dup6\n        /* \"#utility.yul\":13900:13971   */\n      tag_552\n      jump\t// in\n    tag_551:\n        /* \"#utility.yul\":13893:13971   */\n      swap4\n      pop\n        /* \"#utility.yul\":13980:14032   */\n      tag_553\n        /* \"#utility.yul\":14025:14031   */\n      dup2\n        /* \"#utility.yul\":14020:14023   */\n      dup6\n        /* \"#utility.yul\":14013:14017   */\n      0x20\n        /* \"#utility.yul\":14006:14011   */\n      dup7\n        /* \"#utility.yul\":14002:14018   */\n      add\n        /* \"#utility.yul\":13980:14032   */\n      tag_545\n      jump\t// in\n    tag_553:\n        /* \"#utility.yul\":14057:14086   */\n      tag_554\n        /* \"#utility.yul\":14079:14085   */\n      dup2\n        /* \"#utility.yul\":14057:14086   */\n      tag_547\n      jump\t// in\n    tag_554:\n        /* \"#utility.yul\":14052:14055   */\n      dup5\n        /* \"#utility.yul\":14048:14087   */\n      add\n        /* \"#utility.yul\":14041:14087   */\n      swap2\n      pop\n        /* \"#utility.yul\":13821:14093   */\n      pop\n        /* \"#utility.yul\":13729:14093   */\n      swap3\n      swap2\n      pop\n      pop\n      jump\t// out\n        /* \"#utility.yul\":14179:14986   */\n    tag_555:\n        /* \"#utility.yul\":14320:14323   */\n      0x00\n        /* \"#utility.yul\":14356:14360   */\n      0x40\n        /* \"#utility.yul\":14351:14354   */\n      dup4\n        /* \"#utility.yul\":14347:14361   */\n      add\n        /* \"#utility.yul\":14450:14454   */\n      0x00\n        /* \"#utility.yul\":14443:14448   */\n      dup4\n        /* \"#utility.yul\":14439:14455   */\n      add\n        /* \"#utility.yul\":14433:14456   */\n      mload\n        /* \"#utility.yul\":14503:14506   */\n      dup5\n        /* \"#utility.yul\":14497:14501   */\n      dup3\n        /* \"#utility.yul\":14493:14507   */\n      sub\n        /* \"#utility.yul\":14486:14490   */\n      0x00\n        /* \"#utility.yul\":14481:14484   */\n      dup7\n        /* \"#utility.yul\":14477:14491   */\n      add\n        /* \"#utility.yul\":14470:14508   */\n      mstore\n        /* \"#utility.yul\":14529:14652   */\n      tag_557\n        /* \"#utility.yul\":14647:14651   */\n      dup3\n        /* \"#utility.yul\":14633:14645   */\n      dup3\n        /* \"#utility.yul\":14529:14652   */\n      tag_525\n      jump\t// in\n    tag_557:\n        /* \"#utility.yul\":14521:14652   */\n      swap2\n      pop\n        /* \"#utility.yul\":14371:14663   */\n      pop\n        /* \"#utility.yul\":14746:14750   */\n      0x20\n        /* \"#utility.yul\":14739:14744   */\n      dup4\n        /* \"#utility.yul\":14735:14751   */\n      add\n        /* \"#utility.yul\":14729:14752   */\n      mload\n        /* \"#utility.yul\":14799:14802   */\n      dup5\n        /* \"#utility.yul\":14793:14797   */\n      dup3\n        /* \"#utility.yul\":14789:14803   */\n      sub\n        /* \"#utility.yul\":14782:14786   */\n      0x20\n        /* \"#utility.yul\":14777:14780   */\n      dup7\n        /* \"#utility.yul\":14773:14787   */\n      add\n        /* \"#utility.yul\":14766:14804   */\n      mstore\n        /* \"#utility.yul\":14825:14948   */\n      tag_558\n        /* \"#utility.yul\":14943:14947   */\n      dup3\n        /* \"#utility.yul\":14929:14941   */\n      dup3\n        /* \"#utility.yul\":14825:14948   */\n      tag_525\n      jump\t// in\n    tag_558:\n        /* \"#utility.yul\":14817:14948   */\n      swap2\n      pop\n        /* \"#utility.yul\":14673:14959   */\n      pop\n        /* \"#utility.yul\":14976:14980   */\n      dup1\n        /* \"#utility.yul\":14969:14980   */\n      swap2\n      pop\n        /* \"#utility.yul\":14325:14986   */\n      pop\n        /* \"#utility.yul\":14179:14986   */\n      swap3\n      swap2\n      pop\n      pop\n      jump\t// out\n        /* \"#utility.yul\":15050:16718   */\n    tag_559:\n        /* \"#utility.yul\":15167:15170   */\n      0x00\n        /* \"#utility.yul\":15203:15207   */\n      0xc0\n        /* \"#utility.yul\":15198:15201   */\n      dup4\n        /* \"#utility.yul\":15194:15208   */\n      add\n        /* \"#utility.yul\":15293:15297   */\n      0x00\n        /* \"#utility.yul\":15286:15291   */\n      dup4\n        /* \"#utility.yul\":15282:15298   */\n      add\n        /* \"#utility.yul\":15276:15299   */\n      mload\n        /* \"#utility.yul\":15346:15349   */\n      dup5\n        /* \"#utility.yul\":15340:15344   */\n      dup3\n        /* \"#utility.yul\":15336:15350   */\n      sub\n        /* \"#utility.yul\":15329:15333   */\n      0x00\n        /* \"#utility.yul\":15324:15327   */\n      dup7\n        /* \"#utility.yul\":15320:15334   */\n      add\n        /* \"#utility.yul\":15313:15351   */\n      mstore\n        /* \"#utility.yul\":15372:15445   */\n      tag_561\n        /* \"#utility.yul\":15440:15444   */\n      dup3\n        /* \"#utility.yul\":15426:15438   */\n      dup3\n        /* \"#utility.yul\":15372:15445   */\n      tag_520\n      jump\t// in\n    tag_561:\n        /* \"#utility.yul\":15364:15445   */\n      swap2\n      pop\n        /* \"#utility.yul\":15218:15456   */\n      pop\n        /* \"#utility.yul\":15539:15543   */\n      0x20\n        /* \"#utility.yul\":15532:15537   */\n      dup4\n        /* \"#utility.yul\":15528:15544   */\n      add\n        /* \"#utility.yul\":15522:15545   */\n      mload\n        /* \"#utility.yul\":15592:15595   */\n      dup5\n        /* \"#utility.yul\":15586:15590   */\n      dup3\n        /* \"#utility.yul\":15582:15596   */\n      sub\n        /* \"#utility.yul\":15575:15579   */\n      0x20\n        /* \"#utility.yul\":15570:15573   */\n      dup7\n        /* \"#utility.yul\":15566:15580   */\n      add\n        /* \"#utility.yul\":15559:15597   */\n      mstore\n        /* \"#utility.yul\":15618:15691   */\n      tag_562\n        /* \"#utility.yul\":15686:15690   */\n      dup3\n        /* \"#utility.yul\":15672:15684   */\n      dup3\n        /* \"#utility.yul\":15618:15691   */\n      tag_520\n      jump\t// in\n    tag_562:\n        /* \"#utility.yul\":15610:15691   */\n      swap2\n      pop\n        /* \"#utility.yul\":15466:15702   */\n      pop\n        /* \"#utility.yul\":15785:15789   */\n      0x40\n        /* \"#utility.yul\":15778:15783   */\n      dup4\n        /* \"#utility.yul\":15774:15790   */\n      add\n        /* \"#utility.yul\":15768:15791   */\n      mload\n        /* \"#utility.yul\":15838:15841   */\n      dup5\n        /* \"#utility.yul\":15832:15836   */\n      dup3\n        /* \"#utility.yul\":15828:15842   */\n      sub\n        /* \"#utility.yul\":15821:15825   */\n      0x40\n        /* \"#utility.yul\":15816:15819   */\n      dup7\n        /* \"#utility.yul\":15812:15826   */\n      add\n        /* \"#utility.yul\":15805:15843   */\n      mstore\n        /* \"#utility.yul\":15864:15937   */\n      tag_563\n        /* \"#utility.yul\":15932:15936   */\n      dup3\n        /* \"#utility.yul\":15918:15930   */\n      dup3\n        /* \"#utility.yul\":15864:15937   */\n      tag_520\n      jump\t// in\n    tag_563:\n        /* \"#utility.yul\":15856:15937   */\n      swap2\n      pop\n        /* \"#utility.yul\":15712:15948   */\n      pop\n        /* \"#utility.yul\":16032:16036   */\n      0x60\n        /* \"#utility.yul\":16025:16030   */\n      dup4\n        /* \"#utility.yul\":16021:16037   */\n      add\n        /* \"#utility.yul\":16015:16038   */\n      mload\n        /* \"#utility.yul\":16085:16088   */\n      dup5\n        /* \"#utility.yul\":16079:16083   */\n      dup3\n        /* \"#utility.yul\":16075:16089   */\n      sub\n        /* \"#utility.yul\":16068:16072   */\n      0x60\n        /* \"#utility.yul\":16063:16066   */\n      dup7\n        /* \"#utility.yul\":16059:16073   */\n      add\n        /* \"#utility.yul\":16052:16090   */\n      mstore\n        /* \"#utility.yul\":16111:16184   */\n      tag_564\n        /* \"#utility.yul\":16179:16183   */\n      dup3\n        /* \"#utility.yul\":16165:16177   */\n      dup3\n        /* \"#utility.yul\":16111:16184   */\n      tag_520\n      jump\t// in\n    tag_564:\n        /* \"#utility.yul\":16103:16184   */\n      swap2\n      pop\n        /* \"#utility.yul\":15958:16195   */\n      pop\n        /* \"#utility.yul\":16279:16283   */\n      0x80\n        /* \"#utility.yul\":16272:16277   */\n      dup4\n        /* \"#utility.yul\":16268:16284   */\n      add\n        /* \"#utility.yul\":16262:16285   */\n      mload\n        /* \"#utility.yul\":16332:16335   */\n      dup5\n        /* \"#utility.yul\":16326:16330   */\n      dup3\n        /* \"#utility.yul\":16322:16336   */\n      sub\n        /* \"#utility.yul\":16315:16319   */\n      0x80\n        /* \"#utility.yul\":16310:16313   */\n      dup7\n        /* \"#utility.yul\":16306:16320   */\n      add\n        /* \"#utility.yul\":16299:16337   */\n      mstore\n        /* \"#utility.yul\":16358:16431   */\n      tag_565\n        /* \"#utility.yul\":16426:16430   */\n      dup3\n        /* \"#utility.yul\":16412:16424   */\n      dup3\n        /* \"#utility.yul\":16358:16431   */\n      tag_520\n      jump\t// in\n    tag_565:\n        /* \"#utility.yul\":16350:16431   */\n      swap2\n      pop\n        /* \"#utility.yul\":16205:16442   */\n      pop\n        /* \"#utility.yul\":16528:16532   */\n      0xa0\n        /* \"#utility.yul\":16521:16526   */\n      dup4\n        /* \"#utility.yul\":16517:16533   */\n      add\n        /* \"#utility.yul\":16511:16534   */\n      mload\n        /* \"#utility.yul\":16581:16584   */\n      dup5\n        /* \"#utility.yul\":16575:16579   */\n      dup3\n        /* \"#utility.yul\":16571:16585   */\n      sub\n        /* \"#utility.yul\":16564:16568   */\n      0xa0\n        /* \"#utility.yul\":16559:16562   */\n      dup7\n        /* \"#utility.yul\":16555:16569   */\n      add\n        /* \"#utility.yul\":16548:16586   */\n      mstore\n        /* \"#utility.yul\":16607:16680   */\n      tag_566\n        /* \"#utility.yul\":16675:16679   */\n      dup3\n        /* \"#utility.yul\":16661:16673   */\n      dup3\n        /* \"#utility.yul\":16607:16680   */\n      tag_520\n      jump\t// in\n    tag_566:\n        /* \"#utility.yul\":16599:16680   */\n      swap2\n      pop\n        /* \"#utility.yul\":16452:16691   */\n      pop\n        /* \"#utility.yul\":16708:16712   */\n      dup1\n        /* \"#utility.yul\":16701:16712   */\n      swap2\n      pop\n        /* \"#utility.yul\":15172:16718   */\n      pop\n        /* \"#utility.yul\":15050:16718   */\n      swap3\n      swap2\n      pop\n      pop\n      jump\t// out\n        /* \"#utility.yul\":16788:18842   */\n    tag_567:\n        /* \"#utility.yul\":16911:16914   */\n      0x00\n        /* \"#utility.yul\":16947:16953   */\n      0x0100\n        /* \"#utility.yul\":16942:16945   */\n      dup4\n        /* \"#utility.yul\":16938:16954   */\n      add\n        /* \"#utility.yul\":17039:17043   */\n      0x00\n        /* \"#utility.yul\":17032:17037   */\n      dup4\n        /* \"#utility.yul\":17028:17044   */\n      add\n        /* \"#utility.yul\":17022:17045   */\n      mload\n        /* \"#utility.yul\":17092:17095   */\n      dup5\n        /* \"#utility.yul\":17086:17090   */\n      dup3\n        /* \"#utility.yul\":17082:17096   */\n      sub\n        /* \"#utility.yul\":17075:17079   */\n      0x00\n        /* \"#utility.yul\":17070:17073   */\n      dup7\n        /* \"#utility.yul\":17066:17080   */\n      add\n        /* \"#utility.yul\":17059:17097   */\n      mstore\n        /* \"#utility.yul\":17118:17191   */\n      tag_569\n        /* \"#utility.yul\":17186:17190   */\n      dup3\n        /* \"#utility.yul\":17172:17184   */\n      dup3\n        /* \"#utility.yul\":17118:17191   */\n      tag_520\n      jump\t// in\n    tag_569:\n        /* \"#utility.yul\":17110:17191   */\n      swap2\n      pop\n        /* \"#utility.yul\":16964:17202   */\n      pop\n        /* \"#utility.yul\":17288:17292   */\n      0x20\n        /* \"#utility.yul\":17281:17286   */\n      dup4\n        /* \"#utility.yul\":17277:17293   */\n      add\n        /* \"#utility.yul\":17271:17294   */\n      mload\n        /* \"#utility.yul\":17341:17344   */\n      dup5\n        /* \"#utility.yul\":17335:17339   */\n      dup3\n        /* \"#utility.yul\":17331:17345   */\n      sub\n        /* \"#utility.yul\":17324:17328   */\n      0x20\n        /* \"#utility.yul\":17319:17322   */\n      dup7\n        /* \"#utility.yul\":17315:17329   */\n      add\n        /* \"#utility.yul\":17308:17346   */\n      mstore\n        /* \"#utility.yul\":17367:17440   */\n      tag_570\n        /* \"#utility.yul\":17435:17439   */\n      dup3\n        /* \"#utility.yul\":17421:17433   */\n      dup3\n        /* \"#utility.yul\":17367:17440   */\n      tag_520\n      jump\t// in\n    tag_570:\n        /* \"#utility.yul\":17359:17440   */\n      swap2\n      pop\n        /* \"#utility.yul\":17212:17451   */\n      pop\n        /* \"#utility.yul\":17540:17544   */\n      0x40\n        /* \"#utility.yul\":17533:17538   */\n      dup4\n        /* \"#utility.yul\":17529:17545   */\n      add\n        /* \"#utility.yul\":17523:17546   */\n      mload\n        /* \"#utility.yul\":17559:17622   */\n      tag_571\n        /* \"#utility.yul\":17616:17620   */\n      0x40\n        /* \"#utility.yul\":17611:17614   */\n      dup7\n        /* \"#utility.yul\":17607:17621   */\n      add\n        /* \"#utility.yul\":17593:17605   */\n      dup3\n        /* \"#utility.yul\":17559:17622   */\n      tag_521\n      jump\t// in\n    tag_571:\n        /* \"#utility.yul\":17461:17632   */\n      pop\n        /* \"#utility.yul\":17719:17723   */\n      0x60\n        /* \"#utility.yul\":17712:17717   */\n      dup4\n        /* \"#utility.yul\":17708:17724   */\n      add\n        /* \"#utility.yul\":17702:17725   */\n      mload\n        /* \"#utility.yul\":17772:17775   */\n      dup5\n        /* \"#utility.yul\":17766:17770   */\n      dup3\n        /* \"#utility.yul\":17762:17776   */\n      sub\n        /* \"#utility.yul\":17755:17759   */\n      0x60\n        /* \"#utility.yul\":17750:17753   */\n      dup7\n        /* \"#utility.yul\":17746:17760   */\n      add\n        /* \"#utility.yul\":17739:17777   */\n      mstore\n        /* \"#utility.yul\":17798:17871   */\n      tag_572\n        /* \"#utility.yul\":17866:17870   */\n      dup3\n        /* \"#utility.yul\":17852:17864   */\n      dup3\n        /* \"#utility.yul\":17798:17871   */\n      tag_520\n      jump\t// in\n    tag_572:\n        /* \"#utility.yul\":17790:17871   */\n      swap2\n      pop\n        /* \"#utility.yul\":17642:17882   */\n      pop\n        /* \"#utility.yul\":17970:17974   */\n      0x80\n        /* \"#utility.yul\":17963:17968   */\n      dup4\n        /* \"#utility.yul\":17959:17975   */\n      add\n        /* \"#utility.yul\":17953:17976   */\n      mload\n        /* \"#utility.yul\":18023:18026   */\n      dup5\n        /* \"#utility.yul\":18017:18021   */\n      dup3\n        /* \"#utility.yul\":18013:18027   */\n      sub\n        /* \"#utility.yul\":18006:18010   */\n      0x80\n        /* \"#utility.yul\":18001:18004   */\n      dup7\n        /* \"#utility.yul\":17997:18011   */\n      add\n        /* \"#utility.yul\":17990:18028   */\n      mstore\n        /* \"#utility.yul\":18049:18122   */\n      tag_573\n        /* \"#utility.yul\":18117:18121   */\n      dup3\n        /* \"#utility.yul\":18103:18115   */\n      dup3\n        /* \"#utility.yul\":18049:18122   */\n      tag_520\n      jump\t// in\n    tag_573:\n        /* \"#utility.yul\":18041:18122   */\n      swap2\n      pop\n        /* \"#utility.yul\":17892:18133   */\n      pop\n        /* \"#utility.yul\":18219:18223   */\n      0xa0\n        /* \"#utility.yul\":18212:18217   */\n      dup4\n        /* \"#utility.yul\":18208:18224   */\n      add\n        /* \"#utility.yul\":18202:18225   */\n      mload\n        /* \"#utility.yul\":18272:18275   */\n      dup5\n        /* \"#utility.yul\":18266:18270   */\n      dup3\n        /* \"#utility.yul\":18262:18276   */\n      sub\n        /* \"#utility.yul\":18255:18259   */\n      0xa0\n        /* \"#utility.yul\":18250:18253   */\n      dup7\n        /* \"#utility.yul\":18246:18260   */\n      add\n        /* \"#utility.yul\":18239:18277   */\n      mstore\n        /* \"#utility.yul\":18298:18371   */\n      tag_574\n        /* \"#utility.yul\":18366:18370   */\n      dup3\n        /* \"#utility.yul\":18352:18364   */\n      dup3\n        /* \"#utility.yul\":18298:18371   */\n      tag_520\n      jump\t// in\n    tag_574:\n        /* \"#utility.yul\":18290:18371   */\n      swap2\n      pop\n        /* \"#utility.yul\":18143:18382   */\n      pop\n        /* \"#utility.yul\":18472:18476   */\n      0xc0\n        /* \"#utility.yul\":18465:18470   */\n      dup4\n        /* \"#utility.yul\":18461:18477   */\n      add\n        /* \"#utility.yul\":18455:18478   */\n      mload\n        /* \"#utility.yul\":18525:18528   */\n      dup5\n        /* \"#utility.yul\":18519:18523   */\n      dup3\n        /* \"#utility.yul\":18515:18529   */\n      sub\n        /* \"#utility.yul\":18508:18512   */\n      0xc0\n        /* \"#utility.yul\":18503:18506   */\n      dup7\n        /* \"#utility.yul\":18499:18513   */\n      add\n        /* \"#utility.yul\":18492:18530   */\n      mstore\n        /* \"#utility.yul\":18551:18624   */\n      tag_575\n        /* \"#utility.yul\":18619:18623   */\n      dup3\n        /* \"#utility.yul\":18605:18617   */\n      dup3\n        /* \"#utility.yul\":18551:18624   */\n      tag_520\n      jump\t// in\n    tag_575:\n        /* \"#utility.yul\":18543:18624   */\n      swap2\n      pop\n        /* \"#utility.yul\":18392:18635   */\n      pop\n        /* \"#utility.yul\":18723:18727   */\n      0xe0\n        /* \"#utility.yul\":18716:18721   */\n      dup4\n        /* \"#utility.yul\":18712:18728   */\n      add\n        /* \"#utility.yul\":18706:18729   */\n      mload\n        /* \"#utility.yul\":18742:18805   */\n      tag_576\n        /* \"#utility.yul\":18799:18803   */\n      0xe0\n        /* \"#utility.yul\":18794:18797   */\n      dup7\n        /* \"#utility.yul\":18790:18804   */\n      add\n        /* \"#utility.yul\":18776:18788   */\n      dup3\n        /* \"#utility.yul\":18742:18805   */\n      tag_577\n      jump\t// in\n    tag_576:\n        /* \"#utility.yul\":18645:18815   */\n      pop\n        /* \"#utility.yul\":18832:18836   */\n      dup1\n        /* \"#utility.yul\":18825:18836   */\n      swap2\n      pop\n        /* \"#utility.yul\":16916:18842   */\n      pop\n        /* \"#utility.yul\":16788:18842   */\n      swap3\n      swap2\n      pop\n      pop\n      jump\t// out\n        /* \"#utility.yul\":18900:19997   */\n    tag_578:\n        /* \"#utility.yul\":19011:19014   */\n      0x00\n        /* \"#utility.yul\":19047:19051   */\n      0x60\n        /* \"#utility.yul\":19042:19045   */\n      dup4\n        /* \"#utility.yul\":19038:19052   */\n      add\n        /* \"#utility.yul\":19150:19154   */\n      0x00\n        /* \"#utility.yul\":19143:19148   */\n      dup4\n        /* \"#utility.yul\":19139:19155   */\n      add\n        /* \"#utility.yul\":19133:19156   */\n      mload\n        /* \"#utility.yul\":19203:19206   */\n      dup5\n        /* \"#utility.yul\":19197:19201   */\n      dup3\n        /* \"#utility.yul\":19193:19207   */\n      sub\n        /* \"#utility.yul\":19186:19190   */\n      0x00\n        /* \"#utility.yul\":19181:19184   */\n      dup7\n        /* \"#utility.yul\":19177:19191   */\n      add\n        /* \"#utility.yul\":19170:19208   */\n      mstore\n        /* \"#utility.yul\":19229:19352   */\n      tag_580\n        /* \"#utility.yul\":19347:19351   */\n      dup3\n        /* \"#utility.yul\":19333:19345   */\n      dup3\n        /* \"#utility.yul\":19229:19352   */\n      tag_525\n      jump\t// in\n    tag_580:\n        /* \"#utility.yul\":19221:19352   */\n      swap2\n      pop\n        /* \"#utility.yul\":19062:19363   */\n      pop\n        /* \"#utility.yul\":19450:19454   */\n      0x20\n        /* \"#utility.yul\":19443:19448   */\n      dup4\n        /* \"#utility.yul\":19439:19455   */\n      add\n        /* \"#utility.yul\":19433:19456   */\n      mload\n        /* \"#utility.yul\":19503:19506   */\n      dup5\n        /* \"#utility.yul\":19497:19501   */\n      dup3\n        /* \"#utility.yul\":19493:19507   */\n      sub\n        /* \"#utility.yul\":19486:19490   */\n      0x20\n        /* \"#utility.yul\":19481:19484   */\n      dup7\n        /* \"#utility.yul\":19477:19491   */\n      add\n        /* \"#utility.yul\":19470:19508   */\n      mstore\n        /* \"#utility.yul\":19529:19652   */\n      tag_581\n        /* \"#utility.yul\":19647:19651   */\n      dup3\n        /* \"#utility.yul\":19633:19645   */\n      dup3\n        /* \"#utility.yul\":19529:19652   */\n      tag_525\n      jump\t// in\n    tag_581:\n        /* \"#utility.yul\":19521:19652   */\n      swap2\n      pop\n        /* \"#utility.yul\":19373:19663   */\n      pop\n        /* \"#utility.yul\":19757:19761   */\n      0x40\n        /* \"#utility.yul\":19750:19755   */\n      dup4\n        /* \"#utility.yul\":19746:19762   */\n      add\n        /* \"#utility.yul\":19740:19763   */\n      mload\n        /* \"#utility.yul\":19810:19813   */\n      dup5\n        /* \"#utility.yul\":19804:19808   */\n      dup3\n        /* \"#utility.yul\":19800:19814   */\n      sub\n        /* \"#utility.yul\":19793:19797   */\n      0x40\n        /* \"#utility.yul\":19788:19791   */\n      dup7\n        /* \"#utility.yul\":19784:19798   */\n      add\n        /* \"#utility.yul\":19777:19815   */\n      mstore\n        /* \"#utility.yul\":19836:19959   */\n      tag_582\n        /* \"#utility.yul\":19954:19958   */\n      dup3\n        /* \"#utility.yul\":19940:19952   */\n      dup3\n        /* \"#utility.yul\":19836:19959   */\n      tag_525\n      jump\t// in\n    tag_582:\n        /* \"#utility.yul\":19828:19959   */\n      swap2\n      pop\n        /* \"#utility.yul\":19673:19970   */\n      pop\n        /* \"#utility.yul\":19987:19991   */\n      dup1\n        /* \"#utility.yul\":19980:19991   */\n      swap2\n      pop\n        /* \"#utility.yul\":19016:19997   */\n      pop\n        /* \"#utility.yul\":18900:19997   */\n      swap3\n      swap2\n      pop\n      pop\n      jump\t// out\n        /* \"#utility.yul\":20003:20111   */\n    tag_577:\n        /* \"#utility.yul\":20080:20104   */\n      tag_584\n        /* \"#utility.yul\":20098:20103   */\n      dup2\n        /* \"#utility.yul\":20080:20104   */\n      tag_585\n      jump\t// in\n    tag_584:\n        /* \"#utility.yul\":20075:20078   */\n      dup3\n        /* \"#utility.yul\":20068:20105   */\n      mstore\n        /* \"#utility.yul\":20003:20111   */\n      pop\n      pop\n      jump\t// out\n        /* \"#utility.yul\":20117:20235   */\n    tag_586:\n        /* \"#utility.yul\":20204:20228   */\n      tag_588\n        /* \"#utility.yul\":20222:20227   */\n      dup2\n        /* \"#utility.yul\":20204:20228   */\n      tag_585\n      jump\t// in\n    tag_588:\n        /* \"#utility.yul\":20199:20202   */\n      dup3\n        /* \"#utility.yul\":20192:20229   */\n      mstore\n        /* \"#utility.yul\":20117:20235   */\n      pop\n      pop\n      jump\t// out\n        /* \"#utility.yul\":20241:21360   */\n    tag_78:\n        /* \"#utility.yul\":20546:20550   */\n      0x00\n        /* \"#utility.yul\":20584:20587   */\n      0xa0\n        /* \"#utility.yul\":20573:20582   */\n      dup3\n        /* \"#utility.yul\":20569:20588   */\n      add\n        /* \"#utility.yul\":20561:20588   */\n      swap1\n      pop\n        /* \"#utility.yul\":20634:20643   */\n      dup2\n        /* \"#utility.yul\":20628:20632   */\n      dup2\n        /* \"#utility.yul\":20624:20644   */\n      sub\n        /* \"#utility.yul\":20620:20621   */\n      0x00\n        /* \"#utility.yul\":20609:20618   */\n      dup4\n        /* \"#utility.yul\":20605:20622   */\n      add\n        /* \"#utility.yul\":20598:20645   */\n      mstore\n        /* \"#utility.yul\":20662:20740   */\n      tag_590\n        /* \"#utility.yul\":20735:20739   */\n      dup2\n        /* \"#utility.yul\":20726:20732   */\n      dup9\n        /* \"#utility.yul\":20662:20740   */\n      tag_548\n      jump\t// in\n    tag_590:\n        /* \"#utility.yul\":20654:20740   */\n      swap1\n      pop\n        /* \"#utility.yul\":20787:20796   */\n      dup2\n        /* \"#utility.yul\":20781:20785   */\n      dup2\n        /* \"#utility.yul\":20777:20797   */\n      sub\n        /* \"#utility.yul\":20772:20774   */\n      0x20\n        /* \"#utility.yul\":20761:20770   */\n      dup4\n        /* \"#utility.yul\":20757:20775   */\n      add\n        /* \"#utility.yul\":20750:20798   */\n      mstore\n        /* \"#utility.yul\":20815:20893   */\n      tag_591\n        /* \"#utility.yul\":20888:20892   */\n      dup2\n        /* \"#utility.yul\":20879:20885   */\n      dup8\n        /* \"#utility.yul\":20815:20893   */\n      tag_548\n      jump\t// in\n    tag_591:\n        /* \"#utility.yul\":20807:20893   */\n      swap1\n      pop\n        /* \"#utility.yul\":20940:20949   */\n      dup2\n        /* \"#utility.yul\":20934:20938   */\n      dup2\n        /* \"#utility.yul\":20930:20950   */\n      sub\n        /* \"#utility.yul\":20925:20927   */\n      0x40\n        /* \"#utility.yul\":20914:20923   */\n      dup4\n        /* \"#utility.yul\":20910:20928   */\n      add\n        /* \"#utility.yul\":20903:20951   */\n      mstore\n        /* \"#utility.yul\":20968:21046   */\n      tag_592\n        /* \"#utility.yul\":21041:21045   */\n      dup2\n        /* \"#utility.yul\":21032:21038   */\n      dup7\n        /* \"#utility.yul\":20968:21046   */\n      tag_548\n      jump\t// in\n    tag_592:\n        /* \"#utility.yul\":20960:21046   */\n      swap1\n      pop\n        /* \"#utility.yul\":21093:21102   */\n      dup2\n        /* \"#utility.yul\":21087:21091   */\n      dup2\n        /* \"#utility.yul\":21083:21103   */\n      sub\n        /* \"#utility.yul\":21078:21080   */\n      0x60\n        /* \"#utility.yul\":21067:21076   */\n      dup4\n        /* \"#utility.yul\":21063:21081   */\n      add\n        /* \"#utility.yul\":21056:21104   */\n      mstore\n        /* \"#utility.yul\":21121:21199   */\n      tag_593\n        /* \"#utility.yul\":21194:21198   */\n      dup2\n        /* \"#utility.yul\":21185:21191   */\n      dup6\n        /* \"#utility.yul\":21121:21199   */\n      tag_548\n      jump\t// in\n    tag_593:\n        /* \"#utility.yul\":21113:21199   */\n      swap1\n      pop\n        /* \"#utility.yul\":21247:21256   */\n      dup2\n        /* \"#utility.yul\":21241:21245   */\n      dup2\n        /* \"#utility.yul\":21237:21257   */\n      sub\n        /* \"#utility.yul\":21231:21234   */\n      0x80\n        /* \"#utility.yul\":21220:21229   */\n      dup4\n        /* \"#utility.yul\":21216:21235   */\n      add\n        /* \"#utility.yul\":21209:21258   */\n      mstore\n        /* \"#utility.yul\":21275:21353   */\n      tag_594\n        /* \"#utility.yul\":21348:21352   */\n      dup2\n        /* \"#utility.yul\":21339:21345   */\n      dup5\n        /* \"#utility.yul\":21275:21353   */\n      tag_548\n      jump\t// in\n    tag_594:\n        /* \"#utility.yul\":21267:21353   */\n      swap1\n      pop\n        /* \"#utility.yul\":20241:21360   */\n      swap7\n      swap6\n      pop\n      pop\n      pop\n      pop\n      pop\n      pop\n      jump\t// out\n        /* \"#utility.yul\":21366:22555   */\n    tag_62:\n        /* \"#utility.yul\":21759:21763   */\n      0x00\n        /* \"#utility.yul\":21797:21800   */\n      0x80\n        /* \"#utility.yul\":21786:21795   */\n      dup3\n        /* \"#utility.yul\":21782:21801   */\n      add\n        /* \"#utility.yul\":21774:21801   */\n      swap1\n      pop\n        /* \"#utility.yul\":21847:21856   */\n      dup2\n        /* \"#utility.yul\":21841:21845   */\n      dup2\n        /* \"#utility.yul\":21837:21857   */\n      sub\n        /* \"#utility.yul\":21833:21834   */\n      0x00\n        /* \"#utility.yul\":21822:21831   */\n      dup4\n        /* \"#utility.yul\":21818:21835   */\n      add\n        /* \"#utility.yul\":21811:21858   */\n      mstore\n        /* \"#utility.yul\":21875:21987   */\n      tag_596\n        /* \"#utility.yul\":21982:21986   */\n      dup2\n        /* \"#utility.yul\":21973:21979   */\n      dup8\n        /* \"#utility.yul\":21875:21987   */\n      tag_567\n      jump\t// in\n    tag_596:\n        /* \"#utility.yul\":21867:21987   */\n      swap1\n      pop\n        /* \"#utility.yul\":22034:22043   */\n      dup2\n        /* \"#utility.yul\":22028:22032   */\n      dup2\n        /* \"#utility.yul\":22024:22044   */\n      sub\n        /* \"#utility.yul\":22019:22021   */\n      0x20\n        /* \"#utility.yul\":22008:22017   */\n      dup4\n        /* \"#utility.yul\":22004:22022   */\n      add\n        /* \"#utility.yul\":21997:22045   */\n      mstore\n        /* \"#utility.yul\":22062:22168   */\n      tag_597\n        /* \"#utility.yul\":22163:22167   */\n      dup2\n        /* \"#utility.yul\":22154:22160   */\n      dup7\n        /* \"#utility.yul\":22062:22168   */\n      tag_559\n      jump\t// in\n    tag_597:\n        /* \"#utility.yul\":22054:22168   */\n      swap1\n      pop\n        /* \"#utility.yul\":22215:22224   */\n      dup2\n        /* \"#utility.yul\":22209:22213   */\n      dup2\n        /* \"#utility.yul\":22205:22225   */\n      sub\n        /* \"#utility.yul\":22200:22202   */\n      0x40\n        /* \"#utility.yul\":22189:22198   */\n      dup4\n        /* \"#utility.yul\":22185:22203   */\n      add\n        /* \"#utility.yul\":22178:22226   */\n      mstore\n        /* \"#utility.yul\":22243:22343   */\n      tag_598\n        /* \"#utility.yul\":22338:22342   */\n      dup2\n        /* \"#utility.yul\":22329:22335   */\n      dup6\n        /* \"#utility.yul\":22243:22343   */\n      tag_578\n      jump\t// in\n    tag_598:\n        /* \"#utility.yul\":22235:22343   */\n      swap1\n      pop\n        /* \"#utility.yul\":22390:22399   */\n      dup2\n        /* \"#utility.yul\":22384:22388   */\n      dup2\n        /* \"#utility.yul\":22380:22400   */\n      sub\n        /* \"#utility.yul\":22375:22377   */\n      0x60\n        /* \"#utility.yul\":22364:22373   */\n      dup4\n        /* \"#utility.yul\":22360:22378   */\n      add\n        /* \"#utility.yul\":22353:22401   */\n      mstore\n        /* \"#utility.yul\":22418:22548   */\n      tag_599\n        /* \"#utility.yul\":22543:22547   */\n      dup2\n        /* \"#utility.yul\":22534:22540   */\n      dup5\n        /* \"#utility.yul\":22418:22548   */\n      tag_555\n      jump\t// in\n    tag_599:\n        /* \"#utility.yul\":22410:22548   */\n      swap1\n      pop\n        /* \"#utility.yul\":21366:22555   */\n      swap6\n      swap5\n      pop\n      pop\n      pop\n      pop\n      pop\n      jump\t// out\n        /* \"#utility.yul\":22561:22783   */\n    tag_42:\n        /* \"#utility.yul\":22654:22658   */\n      0x00\n        /* \"#utility.yul\":22692:22694   */\n      0x20\n        /* \"#utility.yul\":22681:22690   */\n      dup3\n        /* \"#utility.yul\":22677:22695   */\n      add\n        /* \"#utility.yul\":22669:22695   */\n      swap1\n      pop\n        /* \"#utility.yul\":22705:22776   */\n      tag_601\n        /* \"#utility.yul\":22773:22774   */\n      0x00\n        /* \"#utility.yul\":22762:22771   */\n      dup4\n        /* \"#utility.yul\":22758:22775   */\n      add\n        /* \"#utility.yul\":22749:22755   */\n      dup5\n        /* \"#utility.yul\":22705:22776   */\n      tag_586\n      jump\t// in\n    tag_601:\n        /* \"#utility.yul\":22561:22783   */\n      swap3\n      swap2\n      pop\n      pop\n      jump\t// out\n        /* \"#utility.yul\":22789:22918   */\n    tag_381:\n        /* \"#utility.yul\":22823:22829   */\n      0x00\n        /* \"#utility.yul\":22850:22870   */\n      tag_603\n      tag_604\n      jump\t// in\n    tag_603:\n        /* \"#utility.yul\":22840:22870   */\n      swap1\n      pop\n        /* \"#utility.yul\":22879:22912   */\n      tag_605\n        /* \"#utility.yul\":22907:22911   */\n      dup3\n        /* \"#utility.yul\":22899:22905   */\n      dup3\n        /* \"#utility.yul\":22879:22912   */\n      tag_606\n      jump\t// in\n    tag_605:\n        /* \"#utility.yul\":22789:22918   */\n      swap2\n      swap1\n      pop\n      jump\t// out\n        /* \"#utility.yul\":22924:22999   */\n    tag_604:\n        /* \"#utility.yul\":22957:22963   */\n      0x00\n        /* \"#utility.yul\":22990:22992   */\n      0x40\n        /* \"#utility.yul\":22984:22993   */\n      mload\n        /* \"#utility.yul\":22974:22993   */\n      swap1\n      pop\n        /* \"#utility.yul\":22924:22999   */\n      swap1\n      jump\t// out\n        /* \"#utility.yul\":23005:23326   */\n    tag_380:\n        /* \"#utility.yul\":23092:23096   */\n      0x00\n        /* \"#utility.yul\":23182:23200   */\n      0xffffffffffffffff\n        /* \"#utility.yul\":23174:23180   */\n      dup3\n        /* \"#utility.yul\":23171:23201   */\n      gt\n        /* \"#utility.yul\":23168:23224   */\n      iszero\n      tag_609\n      jumpi\n        /* \"#utility.yul\":23204:23222   */\n      tag_610\n      tag_611\n      jump\t// in\n    tag_610:\n        /* \"#utility.yul\":23168:23224   */\n    tag_609:\n        /* \"#utility.yul\":23254:23258   */\n      0x20\n        /* \"#utility.yul\":23246:23252   */\n      dup3\n        /* \"#utility.yul\":23242:23259   */\n      mul\n        /* \"#utility.yul\":23234:23259   */\n      swap1\n      pop\n        /* \"#utility.yul\":23314:23318   */\n      0x20\n        /* \"#utility.yul\":23308:23312   */\n      dup2\n        /* \"#utility.yul\":23304:23319   */\n      add\n        /* \"#utility.yul\":23296:23319   */\n      swap1\n      pop\n        /* \"#utility.yul\":23005:23326   */\n      swap2\n      swap1\n      pop\n      jump\t// out\n        /* \"#utility.yul\":23332:23640   */\n    tag_397:\n        /* \"#utility.yul\":23394:23398   */\n      0x00\n        /* \"#utility.yul\":23484:23502   */\n      0xffffffffffffffff\n        /* \"#utility.yul\":23476:23482   */\n      dup3\n        /* \"#utility.yul\":23473:23503   */\n      gt\n        /* \"#utility.yul\":23470:23526   */\n      iszero\n      tag_613\n      jumpi\n        /* \"#utility.yul\":23506:23524   */\n      tag_614\n      tag_611\n      jump\t// in\n    tag_614:\n        /* \"#utility.yul\":23470:23526   */\n    tag_613:\n        /* \"#utility.yul\":23544:23573   */\n      tag_615\n        /* \"#utility.yul\":23566:23572   */\n      dup3\n        /* \"#utility.yul\":23544:23573   */\n      tag_547\n      jump\t// in\n    tag_615:\n        /* \"#utility.yul\":23536:23573   */\n      swap1\n      pop\n        /* \"#utility.yul\":23628:23632   */\n      0x20\n        /* \"#utility.yul\":23622:23626   */\n      dup2\n        /* \"#utility.yul\":23618:23633   */\n      add\n        /* \"#utility.yul\":23610:23633   */\n      swap1\n      pop\n        /* \"#utility.yul\":23332:23640   */\n      swap2\n      swap1\n      pop\n      jump\t// out\n        /* \"#utility.yul\":23646:23788   */\n    tag_532:\n        /* \"#utility.yul\":23723:23727   */\n      0x00\n        /* \"#utility.yul\":23746:23749   */\n      dup2\n        /* \"#utility.yul\":23738:23749   */\n      swap1\n      pop\n        /* \"#utility.yul\":23776:23780   */\n      0x20\n        /* \"#utility.yul\":23771:23774   */\n      dup3\n        /* \"#utility.yul\":23767:23781   */\n      add\n        /* \"#utility.yul\":23759:23781   */\n      swap1\n      pop\n        /* \"#utility.yul\":23646:23788   */\n      swap2\n      swap1\n      pop\n      jump\t// out\n        /* \"#utility.yul\":23794:23918   */\n    tag_528:\n        /* \"#utility.yul\":23871:23877   */\n      0x00\n        /* \"#utility.yul\":23905:23910   */\n      dup2\n        /* \"#utility.yul\":23899:23911   */\n      mload\n        /* \"#utility.yul\":23889:23911   */\n      swap1\n      pop\n        /* \"#utility.yul\":23794:23918   */\n      swap2\n      swap1\n      pop\n      jump\t// out\n        /* \"#utility.yul\":23924:24023   */\n    tag_541:\n        /* \"#utility.yul\":23976:23982   */\n      0x00\n        /* \"#utility.yul\":24010:24015   */\n      dup2\n        /* \"#utility.yul\":24004:24016   */\n      mload\n        /* \"#utility.yul\":23994:24016   */\n      swap1\n      pop\n        /* \"#utility.yul\":23924:24023   */\n      swap2\n      swap1\n      pop\n      jump\t// out\n        /* \"#utility.yul\":24029:24152   */\n    tag_538:\n        /* \"#utility.yul\":24109:24113   */\n      0x00\n        /* \"#utility.yul\":24141:24145   */\n      0x20\n        /* \"#utility.yul\":24136:24139   */\n      dup3\n        /* \"#utility.yul\":24132:24146   */\n      add\n        /* \"#utility.yul\":24124:24146   */\n      swap1\n      pop\n        /* \"#utility.yul\":24029:24152   */\n      swap2\n      swap1\n      pop\n      jump\t// out\n        /* \"#utility.yul\":24158:24342   */\n    tag_530:\n        /* \"#utility.yul\":24257:24268   */\n      0x00\n        /* \"#utility.yul\":24291:24297   */\n      dup3\n        /* \"#utility.yul\":24286:24289   */\n      dup3\n        /* \"#utility.yul\":24279:24298   */\n      mstore\n        /* \"#utility.yul\":24331:24335   */\n      0x20\n        /* \"#utility.yul\":24326:24329   */\n      dup3\n        /* \"#utility.yul\":24322:24336   */\n      add\n        /* \"#utility.yul\":24307:24336   */\n      swap1\n      pop\n        /* \"#utility.yul\":24158:24342   */\n      swap3\n      swap2\n      pop\n      pop\n      jump\t// out\n        /* \"#utility.yul\":24348:24507   */\n    tag_543:\n        /* \"#utility.yul\":24422:24433   */\n      0x00\n        /* \"#utility.yul\":24456:24462   */\n      dup3\n        /* \"#utility.yul\":24451:24454   */\n      dup3\n        /* \"#utility.yul\":24444:24463   */\n      mstore\n        /* \"#utility.yul\":24496:24500   */\n      0x20\n        /* \"#utility.yul\":24491:24494   */\n      dup3\n        /* \"#utility.yul\":24487:24501   */\n      add\n        /* \"#utility.yul\":24472:24501   */\n      swap1\n      pop\n        /* \"#utility.yul\":24348:24507   */\n      swap3\n      swap2\n      pop\n      pop\n      jump\t// out\n        /* \"#utility.yul\":24513:24682   */\n    tag_552:\n        /* \"#utility.yul\":24597:24608   */\n      0x00\n        /* \"#utility.yul\":24631:24637   */\n      dup3\n        /* \"#utility.yul\":24626:24629   */\n      dup3\n        /* \"#utility.yul\":24619:24638   */\n      mstore\n        /* \"#utility.yul\":24671:24675   */\n      0x20\n        /* \"#utility.yul\":24666:24669   */\n      dup3\n        /* \"#utility.yul\":24662:24676   */\n      add\n        /* \"#utility.yul\":24647:24676   */\n      swap1\n      pop\n        /* \"#utility.yul\":24513:24682   */\n      swap3\n      swap2\n      pop\n      pop\n      jump\t// out\n        /* \"#utility.yul\":24688:24784   */\n    tag_524:\n        /* \"#utility.yul\":24725:24732   */\n      0x00\n        /* \"#utility.yul\":24754:24778   */\n      tag_624\n        /* \"#utility.yul\":24772:24777   */\n      dup3\n        /* \"#utility.yul\":24754:24778   */\n      tag_625\n      jump\t// in\n    tag_624:\n        /* \"#utility.yul\":24743:24778   */\n      swap1\n      pop\n        /* \"#utility.yul\":24688:24784   */\n      swap2\n      swap1\n      pop\n      jump\t// out\n        /* \"#utility.yul\":24790:24916   */\n    tag_625:\n        /* \"#utility.yul\":24827:24834   */\n      0x00\n        /* \"#utility.yul\":24867:24909   */\n      0xffffffffffffffffffffffffffffffffffffffff\n        /* \"#utility.yul\":24860:24865   */\n      dup3\n        /* \"#utility.yul\":24856:24910   */\n      and\n        /* \"#utility.yul\":24845:24910   */\n      swap1\n      pop\n        /* \"#utility.yul\":24790:24916   */\n      swap2\n      swap1\n      pop\n      jump\t// out\n        /* \"#utility.yul\":24922:24999   */\n    tag_585:\n        /* \"#utility.yul\":24959:24966   */\n      0x00\n        /* \"#utility.yul\":24988:24993   */\n      dup2\n        /* \"#utility.yul\":24977:24993   */\n      swap1\n      pop\n        /* \"#utility.yul\":24922:24999   */\n      swap2\n      swap1\n      pop\n      jump\t// out\n        /* \"#utility.yul\":25005:25159   */\n    tag_402:\n        /* \"#utility.yul\":25089:25095   */\n      dup3\n        /* \"#utility.yul\":25084:25087   */\n      dup2\n        /* \"#utility.yul\":25079:25082   */\n      dup4\n        /* \"#utility.yul\":25066:25096   */\n      calldatacopy\n        /* \"#utility.yul\":25151:25152   */\n      0x00\n        /* \"#utility.yul\":25142:25148   */\n      dup4\n        /* \"#utility.yul\":25137:25140   */\n      dup4\n        /* \"#utility.yul\":25133:25149   */\n      add\n        /* \"#utility.yul\":25126:25153   */\n      mstore\n        /* \"#utility.yul\":25005:25159   */\n      pop\n      pop\n      pop\n      jump\t// out\n        /* \"#utility.yul\":25165:25472   */\n    tag_545:\n        /* \"#utility.yul\":25233:25234   */\n      0x00\n        /* \"#utility.yul\":25243:25356   */\n    tag_630:\n        /* \"#utility.yul\":25257:25263   */\n      dup4\n        /* \"#utility.yul\":25254:25255   */\n      dup2\n        /* \"#utility.yul\":25251:25264   */\n      lt\n        /* \"#utility.yul\":25243:25356   */\n      iszero\n      tag_632\n      jumpi\n        /* \"#utility.yul\":25342:25343   */\n      dup1\n        /* \"#utility.yul\":25337:25340   */\n      dup3\n        /* \"#utility.yul\":25333:25344   */\n      add\n        /* \"#utility.yul\":25327:25345   */\n      mload\n        /* \"#utility.yul\":25323:25324   */\n      dup2\n        /* \"#utility.yul\":25318:25321   */\n      dup5\n        /* \"#utility.yul\":25314:25325   */\n      add\n        /* \"#utility.yul\":25307:25346   */\n      mstore\n        /* \"#utility.yul\":25279:25281   */\n      0x20\n        /* \"#utility.yul\":25276:25277   */\n      dup2\n        /* \"#utility.yul\":25272:25282   */\n      add\n        /* \"#utility.yul\":25267:25282   */\n      swap1\n      pop\n        /* \"#utility.yul\":25243:25356   */\n      jump(tag_630)\n    tag_632:\n        /* \"#utility.yul\":25374:25380   */\n      dup4\n        /* \"#utility.yul\":25371:25372   */\n      dup2\n        /* \"#utility.yul\":25368:25381   */\n      gt\n        /* \"#utility.yul\":25365:25466   */\n      iszero\n      tag_633\n      jumpi\n        /* \"#utility.yul\":25454:25455   */\n      0x00\n        /* \"#utility.yul\":25445:25451   */\n      dup5\n        /* \"#utility.yul\":25440:25443   */\n      dup5\n        /* \"#utility.yul\":25436:25452   */\n      add\n        /* \"#utility.yul\":25429:25456   */\n      mstore\n        /* \"#utility.yul\":25365:25466   */\n    tag_633:\n        /* \"#utility.yul\":25214:25472   */\n      pop\n        /* \"#utility.yul\":25165:25472   */\n      pop\n      pop\n      pop\n      jump\t// out\n        /* \"#utility.yul\":25478:25798   */\n    tag_144:\n        /* \"#utility.yul\":25522:25528   */\n      0x00\n        /* \"#utility.yul\":25559:25560   */\n      0x02\n        /* \"#utility.yul\":25553:25557   */\n      dup3\n        /* \"#utility.yul\":25549:25561   */\n      div\n        /* \"#utility.yul\":25539:25561   */\n      swap1\n      pop\n        /* \"#utility.yul\":25606:25607   */\n      0x01\n        /* \"#utility.yul\":25600:25604   */\n      dup3\n        /* \"#utility.yul\":25596:25608   */\n      and\n        /* \"#utility.yul\":25627:25645   */\n      dup1\n        /* \"#utility.yul\":25617:25698   */\n      tag_635\n      jumpi\n        /* \"#utility.yul\":25683:25687   */\n      0x7f\n        /* \"#utility.yul\":25675:25681   */\n      dup3\n        /* \"#utility.yul\":25671:25688   */\n      and\n        /* \"#utility.yul\":25661:25688   */\n      swap2\n      pop\n        /* \"#utility.yul\":25617:25698   */\n    tag_635:\n        /* \"#utility.yul\":25745:25747   */\n      0x20\n        /* \"#utility.yul\":25737:25743   */\n      dup3\n        /* \"#utility.yul\":25734:25748   */\n      lt\n        /* \"#utility.yul\":25714:25732   */\n      dup2\n        /* \"#utility.yul\":25711:25749   */\n      eq\n        /* \"#utility.yul\":25708:25792   */\n      iszero\n      tag_636\n      jumpi\n        /* \"#utility.yul\":25764:25782   */\n      tag_637\n      tag_638\n      jump\t// in\n    tag_637:\n        /* \"#utility.yul\":25708:25792   */\n    tag_636:\n        /* \"#utility.yul\":25529:25798   */\n      pop\n        /* \"#utility.yul\":25478:25798   */\n      swap2\n      swap1\n      pop\n      jump\t// out\n        /* \"#utility.yul\":25804:26085   */\n    tag_606:\n        /* \"#utility.yul\":25887:25914   */\n      tag_640\n        /* \"#utility.yul\":25909:25913   */\n      dup3\n        /* \"#utility.yul\":25887:25914   */\n      tag_547\n      jump\t// in\n    tag_640:\n        /* \"#utility.yul\":25879:25885   */\n      dup2\n        /* \"#utility.yul\":25875:25915   */\n      add\n        /* \"#utility.yul\":26017:26023   */\n      dup2\n        /* \"#utility.yul\":26005:26015   */\n      dup2\n        /* \"#utility.yul\":26002:26024   */\n      lt\n        /* \"#utility.yul\":25981:25999   */\n      0xffffffffffffffff\n        /* \"#utility.yul\":25969:25979   */\n      dup3\n        /* \"#utility.yul\":25966:26000   */\n      gt\n        /* \"#utility.yul\":25963:26025   */\n      or\n        /* \"#utility.yul\":25960:26048   */\n      iszero\n      tag_641\n      jumpi\n        /* \"#utility.yul\":26028:26046   */\n      tag_642\n      tag_611\n      jump\t// in\n    tag_642:\n        /* \"#utility.yul\":25960:26048   */\n    tag_641:\n        /* \"#utility.yul\":26068:26078   */\n      dup1\n        /* \"#utility.yul\":26064:26066   */\n      0x40\n        /* \"#utility.yul\":26057:26079   */\n      mstore\n        /* \"#utility.yul\":25847:26085   */\n      pop\n        /* \"#utility.yul\":25804:26085   */\n      pop\n      pop\n      jump\t// out\n        /* \"#utility.yul\":26091:26271   */\n    tag_638:\n        /* \"#utility.yul\":26139:26216   */\n      0x4e487b7100000000000000000000000000000000000000000000000000000000\n        /* \"#utility.yul\":26136:26137   */\n      0x00\n        /* \"#utility.yul\":26129:26217   */\n      mstore\n        /* \"#utility.yul\":26236:26240   */\n      0x22\n        /* \"#utility.yul\":26233:26234   */\n      0x04\n        /* \"#utility.yul\":26226:26241   */\n      mstore\n        /* \"#utility.yul\":26260:26264   */\n      0x24\n        /* \"#utility.yul\":26257:26258   */\n      0x00\n        /* \"#utility.yul\":26250:26265   */\n      revert\n        /* \"#utility.yul\":26277:26457   */\n    tag_263:\n        /* \"#utility.yul\":26325:26402   */\n      0x4e487b7100000000000000000000000000000000000000000000000000000000\n        /* \"#utility.yul\":26322:26323   */\n      0x00\n        /* \"#utility.yul\":26315:26403   */\n      mstore\n        /* \"#utility.yul\":26422:26426   */\n      0x32\n        /* \"#utility.yul\":26419:26420   */\n      0x04\n        /* \"#utility.yul\":26412:26427   */\n      mstore\n        /* \"#utility.yul\":26446:26450   */\n      0x24\n        /* \"#utility.yul\":26443:26444   */\n      0x00\n        /* \"#utility.yul\":26436:26451   */\n      revert\n        /* \"#utility.yul\":26463:26643   */\n    tag_611:\n        /* \"#utility.yul\":26511:26588   */\n      0x4e487b7100000000000000000000000000000000000000000000000000000000\n        /* \"#utility.yul\":26508:26509   */\n      0x00\n        /* \"#utility.yul\":26501:26589   */\n      mstore\n        /* \"#utility.yul\":26608:26612   */\n      0x41\n        /* \"#utility.yul\":26605:26606   */\n      0x04\n        /* \"#utility.yul\":26598:26613   */\n      mstore\n        /* \"#utility.yul\":26632:26636   */\n      0x24\n        /* \"#utility.yul\":26629:26630   */\n      0x00\n        /* \"#utility.yul\":26622:26637   */\n      revert\n        /* \"#utility.yul\":26649:26766   */\n    tag_390:\n        /* \"#utility.yul\":26758:26759   */\n      0x00\n        /* \"#utility.yul\":26755:26756   */\n      dup1\n        /* \"#utility.yul\":26748:26760   */\n      revert\n        /* \"#utility.yul\":26772:26889   */\n    tag_384:\n        /* \"#utility.yul\":26881:26882   */\n      0x00\n        /* \"#utility.yul\":26878:26879   */\n      dup1\n        /* \"#utility.yul\":26871:26883   */\n      revert\n        /* \"#utility.yul\":26895:27012   */\n    tag_400:\n        /* \"#utility.yul\":27004:27005   */\n      0x00\n        /* \"#utility.yul\":27001:27002   */\n      dup1\n        /* \"#utility.yul\":26994:27006   */\n      revert\n        /* \"#utility.yul\":27018:27135   */\n    tag_430:\n        /* \"#utility.yul\":27127:27128   */\n      0x00\n        /* \"#utility.yul\":27124:27125   */\n      dup1\n        /* \"#utility.yul\":27117:27129   */\n      revert\n        /* \"#utility.yul\":27141:27258   */\n    tag_423:\n        /* \"#utility.yul\":27250:27251   */\n      0x00\n        /* \"#utility.yul\":27247:27248   */\n      dup1\n        /* \"#utility.yul\":27240:27252   */\n      revert\n        /* \"#utility.yul\":27264:27366   */\n    tag_547:\n        /* \"#utility.yul\":27305:27311   */\n      0x00\n        /* \"#utility.yul\":27356:27358   */\n      0x1f\n        /* \"#utility.yul\":27352:27359   */\n      not\n        /* \"#utility.yul\":27347:27349   */\n      0x1f\n        /* \"#utility.yul\":27340:27345   */\n      dup4\n        /* \"#utility.yul\":27336:27350   */\n      add\n        /* \"#utility.yul\":27332:27360   */\n      and\n        /* \"#utility.yul\":27322:27360   */\n      swap1\n      pop\n        /* \"#utility.yul\":27264:27366   */\n      swap2\n      swap1\n      pop\n      jump\t// out\n        /* \"#utility.yul\":27372:27494   */\n    tag_406:\n        /* \"#utility.yul\":27445:27469   */\n      tag_653\n        /* \"#utility.yul\":27463:27468   */\n      dup2\n        /* \"#utility.yul\":27445:27469   */\n      tag_524\n      jump\t// in\n    tag_653:\n        /* \"#utility.yul\":27438:27443   */\n      dup2\n        /* \"#utility.yul\":27435:27470   */\n      eq\n        /* \"#utility.yul\":27425:27488   */\n      tag_654\n      jumpi\n        /* \"#utility.yul\":27484:27485   */\n      0x00\n        /* \"#utility.yul\":27481:27482   */\n      dup1\n        /* \"#utility.yul\":27474:27486   */\n      revert\n        /* \"#utility.yul\":27425:27488   */\n    tag_654:\n        /* \"#utility.yul\":27372:27494   */\n      pop\n      jump\t// out\n        /* \"#utility.yul\":27500:27622   */\n    tag_419:\n        /* \"#utility.yul\":27573:27597   */\n      tag_656\n        /* \"#utility.yul\":27591:27596   */\n      dup2\n        /* \"#utility.yul\":27573:27597   */\n      tag_585\n      jump\t// in\n    tag_656:\n        /* \"#utility.yul\":27566:27571   */\n      dup2\n        /* \"#utility.yul\":27563:27598   */\n      eq\n        /* \"#utility.yul\":27553:27616   */\n      tag_657\n      jumpi\n        /* \"#utility.yul\":27612:27613   */\n      0x00\n        /* \"#utility.yul\":27609:27610   */\n      dup1\n        /* \"#utility.yul\":27602:27614   */\n      revert\n        /* \"#utility.yul\":27553:27616   */\n    tag_657:\n        /* \"#utility.yul\":27500:27622   */\n      pop\n      jump\t// out\n\n    auxdata: 0xa26469706673582212208569bb95f4b594c95b8a5dc78617fd73e36b2d2daa760e10554264c75c9a291c64736f6c63430008070033\n}\n",
				"bytecode": {
					"linkReferences": {},
					"object": "608060405234801561001057600080fd5b5061338f806100206000396000f3fe608060405234801561001057600080fd5b506004361061010b5760003560e01c8063958791ae116100a2578063c8ae20ff11610071578063c8ae20ff14610231578063c9116b691461024d578063ed2217ef1461026b578063f96e32f814610275578063fabce08f146102a95761010b565b8063958791ae146101ce57806395ea3757146101ea5780639dd9d0fd146101f4578063b240c619146102275761010b565b80634ed74067116100de5780634ed740671461016e5780636212fa02146101785780636c2cc7741461019657806372828388146101b25761010b565b8063119d4cac146101105780632a70da291461011a578063322a9849146101365780633d984d0e14610152575b600080fd5b6101186102b3565b005b610134600480360381019061012f9190612900565b610302565b005b610150600480360381019061014b9190612888565b61043d565b005b61016c600480360381019061016791906127e1565b610503565b005b610176610687565b005b6101806106ed565b60405161018d9190613090565b60405180910390f35b6101b060048036038101906101ab9190612769565b610739565b005b6101cc60048036038101906101c79190612a07565b6107ef565b005b6101e860048036038101906101e39190612b0e565b610a57565b005b6101f2610d41565b005b61020e6004803603810190610209919061273c565b610e16565b60405161021e949392919061302f565b60405180910390f35b61022f6119e4565b005b61024b60048036038101906102469190612a07565b611a33565b005b610255611b6e565b6040516102629190613090565b60405180910390f35b610273611b8d565b005b61028f600480360381019061028a9190612c43565b611bdc565b6040516102a0959493929190612fb9565b60405180910390f35b6102b16120a7565b005b6000803373ffffffffffffffffffffffffffffffffffffffff1673ffffffffffffffffffffffffffffffffffffffff16815260200190815260200160002060150160006103009190612275565b565b61030a612299565b8581600001819052508481602001819052508381604001819052508281606001819052508181608001819052506000803373ffffffffffffffffffffffffffffffffffffffff1673ffffffffffffffffffffffffffffffffffffffff16815260200190815260200160002060140181908060018154018082558091505060019003906000526020600020906005020160009091909190915060008201518160000190805190602001906103be9291906122c8565b5060208201518160010190805190602001906103db9291906122c8565b5060408201518160020190805190602001906103f89291906122c8565b5060608201518160030190805190602001906104159291906122c8565b50608082015181600401908051906020019061043292919061234e565b505050505050505050565b6104456123ae565b8281600001819052508181602001819052506000803373ffffffffffffffffffffffffffffffffffffffff1673ffffffffffffffffffffffffffffffffffffffff16815260200190815260200160002060150181908060018154018082558091505060019003906000526020600020906002020160009091909190915060008201518160000190805190602001906104de9291906122c8565b5060208201518160010190805190602001906104fb9291906122c8565b505050505050565b6000803373ffffffffffffffffffffffffffffffffffffffff1673ffffffffffffffffffffffffffffffffffffffff168152602001908152602001600020600e016000808201600061055591906123c8565b60018201600061056591906123c8565b60028201600061057591906123c8565b5050826000803373ffffffffffffffffffffffffffffffffffffffff1673ffffffffffffffffffffffffffffffffffffffff168152602001908152602001600020600e0160000190805190602001906105cf92919061234e565b50816000803373ffffffffffffffffffffffffffffffffffffffff1673ffffffffffffffffffffffffffffffffffffffff168152602001908152602001600020600e01600101908051906020019061062892919061234e565b50806000803373ffffffffffffffffffffffffffffffffffffffff1673ffffffffffffffffffffffffffffffffffffffff168152602001908152602001600020600e01600201908051906020019061068192919061234e565b50505050565b6000803373ffffffffffffffffffffffffffffffffffffffff1673ffffffffffffffffffffffffffffffffffffffff168152602001908152602001600020601201600080820160006106d991906123c8565b6001820160006106e991906123c8565b5050565b60008060003373ffffffffffffffffffffffffffffffffffffffff1673ffffffffffffffffffffffffffffffffffffffff16815260200190815260200160002060110180549050905090565b816000803373ffffffffffffffffffffffffffffffffffffffff1673ffffffffffffffffffffffffffffffffffffffff168152602001908152602001600020601201600101908051906020019061079192919061234e565b50806000803373ffffffffffffffffffffffffffffffffffffffff1673ffffffffffffffffffffffffffffffffffffffff16815260200190815260200160002060120160000190805190602001906107ea92919061234e565b505050565b6000803373ffffffffffffffffffffffffffffffffffffffff1673ffffffffffffffffffffffffffffffffffffffff1681526020019081526020016000206008016000808201600061084191906123e9565b60018201600061085191906123e9565b60028201600061086191906123e9565b60038201600061087191906123e9565b60048201600061088191906123e9565b60058201600061089191906123e9565b5050846000803373ffffffffffffffffffffffffffffffffffffffff1673ffffffffffffffffffffffffffffffffffffffff16815260200190815260200160002060080160010190805190602001906108eb9291906122c8565b50836000803373ffffffffffffffffffffffffffffffffffffffff1673ffffffffffffffffffffffffffffffffffffffff16815260200190815260200160002060080160020190805190602001906109449291906122c8565b50826000803373ffffffffffffffffffffffffffffffffffffffff1673ffffffffffffffffffffffffffffffffffffffff168152602001908152602001600020600801600301908051906020019061099d9291906122c8565b50816000803373ffffffffffffffffffffffffffffffffffffffff1673ffffffffffffffffffffffffffffffffffffffff16815260200190815260200160002060080160040190805190602001906109f69291906122c8565b50806000803373ffffffffffffffffffffffffffffffffffffffff1673ffffffffffffffffffffffffffffffffffffffff1681526020019081526020016000206008016005019080519060200190610a4f9291906122c8565b505050505050565b856000803373ffffffffffffffffffffffffffffffffffffffff1673ffffffffffffffffffffffffffffffffffffffff1681526020019081526020016000206000016003019080519060200190610aaf9291906122c8565b50846000803373ffffffffffffffffffffffffffffffffffffffff1673ffffffffffffffffffffffffffffffffffffffff1681526020019081526020016000206000016004019080519060200190610b089291906122c8565b50836000803373ffffffffffffffffffffffffffffffffffffffff1673ffffffffffffffffffffffffffffffffffffffff1681526020019081526020016000206000016005019080519060200190610b619291906122c8565b50826000803373ffffffffffffffffffffffffffffffffffffffff1673ffffffffffffffffffffffffffffffffffffffff1681526020019081526020016000206000016006019080519060200190610bba9291906122c8565b50816000803373ffffffffffffffffffffffffffffffffffffffff1673ffffffffffffffffffffffffffffffffffffffff1681526020019081526020016000206000016000019080519060200190610c139291906122c8565b50806000803373ffffffffffffffffffffffffffffffffffffffff1673ffffffffffffffffffffffffffffffffffffffff1681526020019081526020016000206000016001019080519060200190610c6c9291906122c8565b50336000803373ffffffffffffffffffffffffffffffffffffffff1673ffffffffffffffffffffffffffffffffffffffff16815260200190815260200160002060000160020160006101000a81548173ffffffffffffffffffffffffffffffffffffffff021916908373ffffffffffffffffffffffffffffffffffffffff160217905550426000803373ffffffffffffffffffffffffffffffffffffffff1673ffffffffffffffffffffffffffffffffffffffff16815260200190815260200160002060000160070181905550505050505050565b6000803373ffffffffffffffffffffffffffffffffffffffff1673ffffffffffffffffffffffffffffffffffffffff16815260200190815260200160002060000160008082016000610d9391906123e9565b600182016000610da391906123e9565b6002820160006101000a81549073ffffffffffffffffffffffffffffffffffffffff0219169055600382016000610dda91906123e9565b600482016000610dea91906123e9565b600582016000610dfa91906123e9565b600682016000610e0a91906123e9565b60078201600090555050565b60006020528060005260406000206000915090508060000160405180610100016040529081600082018054610e4a90613211565b80601f0160208091040260200160405190810160405280929190818152602001828054610e7690613211565b8015610ec35780601f10610e9857610100808354040283529160200191610ec3565b820191906000526020600020905b815481529060010190602001808311610ea657829003601f168201915b50505050508152602001600182018054610edc90613211565b80601f0160208091040260200160405190810160405280929190818152602001828054610f0890613211565b8015610f555780601f10610f2a57610100808354040283529160200191610f55565b820191906000526020600020905b815481529060010190602001808311610f3857829003601f168201915b505050505081526020016002820160009054906101000a900473ffffffffffffffffffffffffffffffffffffffff1673ffffffffffffffffffffffffffffffffffffffff1673ffffffffffffffffffffffffffffffffffffffff168152602001600382018054610fc490613211565b80601f0160208091040260200160405190810160405280929190818152602001828054610ff090613211565b801561103d5780601f106110125761010080835404028352916020019161103d565b820191906000526020600020905b81548152906001019060200180831161102057829003601f168201915b5050505050815260200160048201805461105690613211565b80601f016020809104026020016040519081016040528092919081815260200182805461108290613211565b80156110cf5780601f106110a4576101008083540402835291602001916110cf565b820191906000526020600020905b8154815290600101906020018083116110b257829003601f168201915b505050505081526020016005820180546110e890613211565b80601f016020809104026020016040519081016040528092919081815260200182805461111490613211565b80156111615780601f1061113657610100808354040283529160200191611161565b820191906000526020600020905b81548152906001019060200180831161114457829003601f168201915b5050505050815260200160068201805461117a90613211565b80601f01602080910402602001604051908101604052809291908181526020018280546111a690613211565b80156111f35780601f106111c8576101008083540402835291602001916111f3565b820191906000526020600020905b8154815290600101906020018083116111d657829003601f168201915b5050505050815260200160078201548152505090806008016040518060c001604052908160008201805461122690613211565b80601f016020809104026020016040519081016040528092919081815260200182805461125290613211565b801561129f5780601f106112745761010080835404028352916020019161129f565b820191906000526020600020905b81548152906001019060200180831161128257829003601f168201915b505050505081526020016001820180546112b890613211565b80601f01602080910402602001604051908101604052809291908181526020018280546112e490613211565b80156113315780601f1061130657610100808354040283529160200191611331565b820191906000526020600020905b81548152906001019060200180831161131457829003601f168201915b5050505050815260200160028201805461134a90613211565b80601f016020809104026020016040519081016040528092919081815260200182805461137690613211565b80156113c35780601f10611398576101008083540402835291602001916113c3565b820191906000526020600020905b8154815290600101906020018083116113a657829003601f168201915b505050505081526020016003820180546113dc90613211565b80601f016020809104026020016040519081016040528092919081815260200182805461140890613211565b80156114555780601f1061142a57610100808354040283529160200191611455565b820191906000526020600020905b81548152906001019060200180831161143857829003601f168201915b5050505050815260200160048201805461146e90613211565b80601f016020809104026020016040519081016040528092919081815260200182805461149a90613211565b80156114e75780601f106114bc576101008083540402835291602001916114e7565b820191906000526020600020905b8154815290600101906020018083116114ca57829003601f168201915b5050505050815260200160058201805461150090613211565b80601f016020809104026020016040519081016040528092919081815260200182805461152c90613211565b80156115795780601f1061154e57610100808354040283529160200191611579565b820191906000526020600020905b81548152906001019060200180831161155c57829003601f168201915b5050505050815250509080600e0160405180606001604052908160008201805480602002602001604051908101604052809291908181526020016000905b828210156116635783829060005260206000200180546115d690613211565b80601f016020809104026020016040519081016040528092919081815260200182805461160290613211565b801561164f5780601f106116245761010080835404028352916020019161164f565b820191906000526020600020905b81548152906001019060200180831161163257829003601f168201915b5050505050815260200190600101906115b7565b50505050815260200160018201805480602002602001604051908101604052809291908181526020016000905b8282101561173c5783829060005260206000200180546116af90613211565b80601f01602080910402602001604051908101604052809291908181526020018280546116db90613211565b80156117285780601f106116fd57610100808354040283529160200191611728565b820191906000526020600020905b81548152906001019060200180831161170b57829003601f168201915b505050505081526020019060010190611690565b50505050815260200160028201805480602002602001604051908101604052809291908181526020016000905b8282101561181557838290600052602060002001805461178890613211565b80601f01602080910402602001604051908101604052809291908181526020018280546117b490613211565b80156118015780601f106117d657610100808354040283529160200191611801565b820191906000526020600020905b8154815290600101906020018083116117e457829003601f168201915b505050505081526020019060010190611769565b5050505081525050908060120160405180604001604052908160008201805480602002602001604051908101604052809291908181526020016000905b828210156118fe57838290600052602060002001805461187190613211565b80601f016020809104026020016040519081016040528092919081815260200182805461189d90613211565b80156118ea5780601f106118bf576101008083540402835291602001916118ea565b820191906000526020600020905b8154815290600101906020018083116118cd57829003601f168201915b505050505081526020019060010190611852565b50505050815260200160018201805480602002602001604051908101604052809291908181526020016000905b828210156119d757838290600052602060002001805461194a90613211565b80601f016020809104026020016040519081016040528092919081815260200182805461197690613211565b80156119c35780601f10611998576101008083540402835291602001916119c3565b820191906000526020600020905b8154815290600101906020018083116119a657829003601f168201915b50505050508152602001906001019061192b565b5050505081525050905084565b6000803373ffffffffffffffffffffffffffffffffffffffff1673ffffffffffffffffffffffffffffffffffffffff1681526020019081526020016000206014016000611a319190612429565b565b611a3b61244d565b8581600001819052508481602001819052508381604001819052508281606001819052508181608001819052506000803373ffffffffffffffffffffffffffffffffffffffff1673ffffffffffffffffffffffffffffffffffffffff1681526020019081526020016000206011018190806001815401808255809150506001900390600052602060002090600502016000909190919091506000820151816000019080519060200190611aef9291906122c8565b506020820151816001019080519060200190611b0c9291906122c8565b506040820151816002019080519060200190611b299291906122c8565b506060820151816003019080519060200190611b469291906122c8565b506080820151816004019080519060200190611b639291906122c8565b505050505050505050565b60003373ffffffffffffffffffffffffffffffffffffffff1631905090565b6000803373ffffffffffffffffffffffffffffffffffffffff1673ffffffffffffffffffffffffffffffffffffffff1681526020019081526020016000206011016000611bda919061247c565b565b60608060608060606000803373ffffffffffffffffffffffffffffffffffffffff1673ffffffffffffffffffffffffffffffffffffffff1681526020019081526020016000206011018681548110611c3757611c366132a3565b5b90600052602060002090600502016000016000803373ffffffffffffffffffffffffffffffffffffffff1673ffffffffffffffffffffffffffffffffffffffff1681526020019081526020016000206011018781548110611c9b57611c9a6132a3565b5b90600052602060002090600502016001016000803373ffffffffffffffffffffffffffffffffffffffff1673ffffffffffffffffffffffffffffffffffffffff1681526020019081526020016000206011018881548110611cff57611cfe6132a3565b5b90600052602060002090600502016002016000803373ffffffffffffffffffffffffffffffffffffffff1673ffffffffffffffffffffffffffffffffffffffff1681526020019081526020016000206011018981548110611d6357611d626132a3565b5b90600052602060002090600502016003016000803373ffffffffffffffffffffffffffffffffffffffff1673ffffffffffffffffffffffffffffffffffffffff1681526020019081526020016000206011018a81548110611dc757611dc66132a3565b5b9060005260206000209060050201600401848054611de490613211565b80601f0160208091040260200160405190810160405280929190818152602001828054611e1090613211565b8015611e5d5780601f10611e3257610100808354040283529160200191611e5d565b820191906000526020600020905b815481529060010190602001808311611e4057829003601f168201915b50505050509450838054611e7090613211565b80601f0160208091040260200160405190810160405280929190818152602001828054611e9c90613211565b8015611ee95780601f10611ebe57610100808354040283529160200191611ee9565b820191906000526020600020905b815481529060010190602001808311611ecc57829003601f168201915b50505050509350828054611efc90613211565b80601f0160208091040260200160405190810160405280929190818152602001828054611f2890613211565b8015611f755780601f10611f4a57610100808354040283529160200191611f75565b820191906000526020600020905b815481529060010190602001808311611f5857829003601f168201915b50505050509250818054611f8890613211565b80601f0160208091040260200160405190810160405280929190818152602001828054611fb490613211565b80156120015780601f10611fd657610100808354040283529160200191612001565b820191906000526020600020905b815481529060010190602001808311611fe457829003601f168201915b5050505050915080805461201490613211565b80601f016020809104026020016040519081016040528092919081815260200182805461204090613211565b801561208d5780601f106120625761010080835404028352916020019161208d565b820191906000526020600020905b81548152906001019060200180831161207057829003601f168201915b505050505090509450945094509450945091939590929450565b6000803373ffffffffffffffffffffffffffffffffffffffff1673ffffffffffffffffffffffffffffffffffffffff1681526020019081526020016000206000808201600080820160006120fb91906123e9565b60018201600061210b91906123e9565b6002820160006101000a81549073ffffffffffffffffffffffffffffffffffffffff021916905560038201600061214291906123e9565b60048201600061215291906123e9565b60058201600061216291906123e9565b60068201600061217291906123e9565b60078201600090555050600882016000808201600061219191906123e9565b6001820160006121a191906123e9565b6002820160006121b191906123e9565b6003820160006121c191906123e9565b6004820160006121d191906123e9565b6005820160006121e191906123e9565b5050600e8201600080820160006121f891906123c8565b60018201600061220891906123c8565b60028201600061221891906123c8565b505060118201600061222a919061247c565b601282016000808201600061223f91906123c8565b60018201600061224f91906123c8565b50506014820160006122619190612429565b6015820160006122719190612275565b5050565b508054600082556002029060005260206000209081019061229691906124a0565b50565b6040518060a0016040528060608152602001606081526020016060815260200160608152602001606081525090565b8280546122d490613211565b90600052602060002090601f0160209004810192826122f6576000855561233d565b82601f1061230f57805160ff191683800117855561233d565b8280016001018555821561233d579182015b8281111561233c578251825591602001919060010190612321565b5b50905061234a91906124d7565b5090565b82805482825590600052602060002090810192821561239d579160200282015b8281111561239c57825182908051906020019061238c9291906122c8565b509160200191906001019061236e565b5b5090506123aa91906124f4565b5090565b604051806040016040528060608152602001606081525090565b50805460008255906000526020600020908101906123e691906124f4565b50565b5080546123f590613211565b6000825580601f106124075750612426565b601f01602090049060005260206000209081019061242591906124d7565b5b50565b508054600082556005029060005260206000209081019061244a9190612518565b50565b6040518060a0016040528060608152602001606081526020016060815260200160608152602001606081525090565b508054600082556005029060005260206000209081019061249d919061257f565b50565b5b808211156124d357600080820160006124ba91906123e9565b6001820160006124ca91906123e9565b506002016124a1565b5090565b5b808211156124f05760008160009055506001016124d8565b5090565b5b80821115612514576000818161250b91906123e9565b506001016124f5565b5090565b5b8082111561257b576000808201600061253291906123e9565b60018201600061254291906123e9565b60028201600061255291906123e9565b60038201600061256291906123e9565b60048201600061257291906123c8565b50600501612519565b5090565b5b808211156125e2576000808201600061259991906123e9565b6001820160006125a991906123e9565b6002820160006125b991906123e9565b6003820160006125c991906123e9565b6004820160006125d991906123e9565b50600501612580565b5090565b60006125f96125f4846130d0565b6130ab565b9050808382526020820190508285602086028201111561261c5761261b613306565b5b60005b8581101561266a57813567ffffffffffffffff81111561264257612641613301565b5b80860161264f89826126f9565b8552602085019450602084019350505060018101905061261f565b5050509392505050565b6000612687612682846130fc565b6130ab565b9050828152602081018484840111156126a3576126a261330b565b5b6126ae8482856131cf565b509392505050565b6000813590506126c58161332b565b92915050565b600082601f8301126126e0576126df613301565b5b81356126f08482602086016125e6565b91505092915050565b600082601f83011261270e5761270d613301565b5b813561271e848260208601612674565b91505092915050565b60008135905061273681613342565b92915050565b60006020828403121561275257612751613315565b5b6000612760848285016126b6565b91505092915050565b600080604083850312156127805761277f613315565b5b600083013567ffffffffffffffff81111561279e5761279d613310565b5b6127aa858286016126cb565b925050602083013567ffffffffffffffff8111156127cb576127ca613310565b5b6127d7858286016126cb565b9150509250929050565b6000806000606084860312156127fa576127f9613315565b5b600084013567ffffffffffffffff81111561281857612817613310565b5b612824868287016126cb565b935050602084013567ffffffffffffffff81111561284557612844613310565b5b612851868287016126cb565b925050604084013567ffffffffffffffff81111561287257612871613310565b5b61287e868287016126cb565b9150509250925092565b6000806040838503121561289f5761289e613315565b5b600083013567ffffffffffffffff8111156128bd576128bc613310565b5b6128c9858286016126f9565b925050602083013567ffffffffffffffff8111156128ea576128e9613310565b5b6128f6858286016126f9565b9150509250929050565b600080600080600060a0868803121561291c5761291b613315565b5b600086013567ffffffffffffffff81111561293a57612939613310565b5b612946888289016126f9565b955050602086013567ffffffffffffffff81111561296757612966613310565b5b612973888289016126f9565b945050604086013567ffffffffffffffff81111561299457612993613310565b5b6129a0888289016126f9565b935050606086013567ffffffffffffffff8111156129c1576129c0613310565b5b6129cd888289016126f9565b925050608086013567ffffffffffffffff8111156129ee576129ed613310565b5b6129fa888289016126cb565b9150509295509295909350565b600080600080600060a08688031215612a2357612a22613315565b5b600086013567ffffffffffffffff811115612a4157612a40613310565b5b612a4d888289016126f9565b955050602086013567ffffffffffffffff811115612a6e57612a6d613310565b5b612a7a888289016126f9565b945050604086013567ffffffffffffffff811115612a9b57612a9a613310565b5b612aa7888289016126f9565b935050606086013567ffffffffffffffff811115612ac857612ac7613310565b5b612ad4888289016126f9565b925050608086013567ffffffffffffffff811115612af557612af4613310565b5b612b01888289016126f9565b9150509295509295909350565b60008060008060008060c08789031215612b2b57612b2a613315565b5b600087013567ffffffffffffffff811115612b4957612b48613310565b5b612b5589828a016126f9565b965050602087013567ffffffffffffffff811115612b7657612b75613310565b5b612b8289828a016126f9565b955050604087013567ffffffffffffffff811115612ba357612ba2613310565b5b612baf89828a016126f9565b945050606087013567ffffffffffffffff811115612bd057612bcf613310565b5b612bdc89828a016126f9565b935050608087013567ffffffffffffffff811115612bfd57612bfc613310565b5b612c0989828a016126f9565b92505060a087013567ffffffffffffffff811115612c2a57612c29613310565b5b612c3689828a016126f9565b9150509295509295509295565b600060208284031215612c5957612c58613315565b5b6000612c6784828501612727565b91505092915050565b6000612c7c8383612d08565b905092915050565b612c8d81613193565b82525050565b6000612c9e8261313d565b612ca88185613160565b935083602082028501612cba8561312d565b8060005b85811015612cf65784840389528151612cd78582612c70565b9450612ce283613153565b925060208a01995050600181019050612cbe565b50829750879550505050505092915050565b6000612d1382613148565b612d1d8185613171565b9350612d2d8185602086016131de565b612d368161331a565b840191505092915050565b6000612d4c82613148565b612d568185613182565b9350612d668185602086016131de565b612d6f8161331a565b840191505092915050565b60006040830160008301518482036000860152612d978282612c93565b91505060208301518482036020860152612db18282612c93565b9150508091505092915050565b600060c0830160008301518482036000860152612ddb8282612d08565b91505060208301518482036020860152612df58282612d08565b91505060408301518482036040860152612e0f8282612d08565b91505060608301518482036060860152612e298282612d08565b91505060808301518482036080860152612e438282612d08565b91505060a083015184820360a0860152612e5d8282612d08565b9150508091505092915050565b6000610100830160008301518482036000860152612e888282612d08565b91505060208301518482036020860152612ea28282612d08565b9150506040830151612eb76040860182612c84565b5060608301518482036060860152612ecf8282612d08565b91505060808301518482036080860152612ee98282612d08565b91505060a083015184820360a0860152612f038282612d08565b91505060c083015184820360c0860152612f1d8282612d08565b91505060e0830151612f3260e0860182612f9b565b508091505092915050565b60006060830160008301518482036000860152612f5a8282612c93565b91505060208301518482036020860152612f748282612c93565b91505060408301518482036040860152612f8e8282612c93565b9150508091505092915050565b612fa4816131c5565b82525050565b612fb3816131c5565b82525050565b600060a0820190508181036000830152612fd38188612d41565b90508181036020830152612fe78187612d41565b90508181036040830152612ffb8186612d41565b9050818103606083015261300f8185612d41565b905081810360808301526130238184612d41565b90509695505050505050565b600060808201905081810360008301526130498187612e6a565b9050818103602083015261305d8186612dbe565b905081810360408301526130718185612f3d565b905081810360608301526130858184612d7a565b905095945050505050565b60006020820190506130a56000830184612faa565b92915050565b60006130b56130c6565b90506130c18282613243565b919050565b6000604051905090565b600067ffffffffffffffff8211156130eb576130ea6132d2565b5b602082029050602081019050919050565b600067ffffffffffffffff821115613117576131166132d2565b5b6131208261331a565b9050602081019050919050565b6000819050602082019050919050565b600081519050919050565b600081519050919050565b6000602082019050919050565b600082825260208201905092915050565b600082825260208201905092915050565b600082825260208201905092915050565b600061319e826131a5565b9050919050565b600073ffffffffffffffffffffffffffffffffffffffff82169050919050565b6000819050919050565b82818337600083830152505050565b60005b838110156131fc5780820151818401526020810190506131e1565b8381111561320b576000848401525b50505050565b6000600282049050600182168061322957607f821691505b6020821081141561323d5761323c613274565b5b50919050565b61324c8261331a565b810181811067ffffffffffffffff8211171561326b5761326a6132d2565b5b80604052505050565b7f4e487b7100000000000000000000000000000000000000000000000000000000600052602260045260246000fd5b7f4e487b7100000000000000000000000000000000000000000000000000000000600052603260045260246000fd5b7f4e487b7100000000000000000000000000000000000000000000000000000000600052604160045260246000fd5b600080fd5b600080fd5b600080fd5b600080fd5b600080fd5b6000601f19601f8301169050919050565b61333481613193565b811461333f57600080fd5b50565b61334b816131c5565b811461335657600080fd5b5056fea26469706673582212208569bb95f4b594c95b8a5dc78617fd73e36b2d2daa760e10554264c75c9a291c64736f6c63430008070033",
					"opcodes": "PUSH1 0x80 PUSH1 0x40 MSTORE CALLVALUE DUP1 ISZERO PUSH2 0x10 JUMPI PUSH1 0x0 DUP1 REVERT JUMPDEST POP PUSH2 0x338F DUP1 PUSH2 0x20 PUSH1 0x0 CODECOPY PUSH1 0x0 RETURN INVALID PUSH1 0x80 PUSH1 0x40 MSTORE CALLVALUE DUP1 ISZERO PUSH2 0x10 JUMPI PUSH1 0x0 DUP1 REVERT JUMPDEST POP PUSH1 0x4 CALLDATASIZE LT PUSH2 0x10B JUMPI PUSH1 0x0 CALLDATALOAD PUSH1 0xE0 SHR DUP1 PUSH4 0x958791AE GT PUSH2 0xA2 JUMPI DUP1 PUSH4 0xC8AE20FF GT PUSH2 0x71 JUMPI DUP1 PUSH4 0xC8AE20FF EQ PUSH2 0x231 JUMPI DUP1 PUSH4 0xC9116B69 EQ PUSH2 0x24D JUMPI DUP1 PUSH4 0xED2217EF EQ PUSH2 0x26B JUMPI DUP1 PUSH4 0xF96E32F8 EQ PUSH2 0x275 JUMPI DUP1 PUSH4 0xFABCE08F EQ PUSH2 0x2A9 JUMPI PUSH2 0x10B JUMP JUMPDEST DUP1 PUSH4 0x958791AE EQ PUSH2 0x1CE JUMPI DUP1 PUSH4 0x95EA3757 EQ PUSH2 0x1EA JUMPI DUP1 PUSH4 0x9DD9D0FD EQ PUSH2 0x1F4 JUMPI DUP1 PUSH4 0xB240C619 EQ PUSH2 0x227 JUMPI PUSH2 0x10B JUMP JUMPDEST DUP1 PUSH4 0x4ED74067 GT PUSH2 0xDE JUMPI DUP1 PUSH4 0x4ED74067 EQ PUSH2 0x16E JUMPI DUP1 PUSH4 0x6212FA02 EQ PUSH2 0x178 JUMPI DUP1 PUSH4 0x6C2CC774 EQ PUSH2 0x196 JUMPI DUP1 PUSH4 0x72828388 EQ PUSH2 0x1B2 JUMPI PUSH2 0x10B JUMP JUMPDEST DUP1 PUSH4 0x119D4CAC EQ PUSH2 0x110 JUMPI DUP1 PUSH4 0x2A70DA29 EQ PUSH2 0x11A JUMPI DUP1 PUSH4 0x322A9849 EQ PUSH2 0x136 JUMPI DUP1 PUSH4 0x3D984D0E EQ PUSH2 0x152 JUMPI JUMPDEST PUSH1 0x0 DUP1 REVERT JUMPDEST PUSH2 0x118 PUSH2 0x2B3 JUMP JUMPDEST STOP JUMPDEST PUSH2 0x134 PUSH1 0x4 DUP1 CALLDATASIZE SUB DUP2 ADD SWAP1 PUSH2 0x12F SWAP2 SWAP1 PUSH2 0x2900 JUMP JUMPDEST PUSH2 0x302 JUMP JUMPDEST STOP JUMPDEST PUSH2 0x150 PUSH1 0x4 DUP1 CALLDATASIZE SUB DUP2 ADD SWAP1 PUSH2 0x14B SWAP2 SWAP1 PUSH2 0x2888 JUMP JUMPDEST PUSH2 0x43D JUMP JUMPDEST STOP JUMPDEST PUSH2 0x16C PUSH1 0x4 DUP1 CALLDATASIZE SUB DUP2 ADD SWAP1 PUSH2 0x167 SWAP2 SWAP1 PUSH2 0x27E1 JUMP JUMPDEST PUSH2 0x503 JUMP JUMPDEST STOP JUMPDEST PUSH2 0x176 PUSH2 0x687 JUMP JUMPDEST STOP JUMPDEST PUSH2 0x180 PUSH2 0x6ED JUMP JUMPDEST PUSH1 0x40 MLOAD PUSH2 0x18D SWAP2 SWAP1 PUSH2 0x3090 JUMP JUMPDEST PUSH1 0x40 MLOAD DUP1 SWAP2 SUB SWAP1 RETURN JUMPDEST PUSH2 0x1B0 PUSH1 0x4 DUP1 CALLDATASIZE SUB DUP2 ADD SWAP1 PUSH2 0x1AB SWAP2 SWAP1 PUSH2 0x2769 JUMP JUMPDEST PUSH2 0x739 JUMP JUMPDEST STOP JUMPDEST PUSH2 0x1CC PUSH1 0x4 DUP1 CALLDATASIZE SUB DUP2 ADD SWAP1 PUSH2 0x1C7 SWAP2 SWAP1 PUSH2 0x2A07 JUMP JUMPDEST PUSH2 0x7EF JUMP JUMPDEST STOP JUMPDEST PUSH2 0x1E8 PUSH1 0x4 DUP1 CALLDATASIZE SUB DUP2 ADD SWAP1 PUSH2 0x1E3 SWAP2 SWAP1 PUSH2 0x2B0E JUMP JUMPDEST PUSH2 0xA57 JUMP JUMPDEST STOP JUMPDEST PUSH2 0x1F2 PUSH2 0xD41 JUMP JUMPDEST STOP JUMPDEST PUSH2 0x20E PUSH1 0x4 DUP1 CALLDATASIZE SUB DUP2 ADD SWAP1 PUSH2 0x209 SWAP2 SWAP1 PUSH2 0x273C JUMP JUMPDEST PUSH2 0xE16 JUMP JUMPDEST PUSH1 0x40 MLOAD PUSH2 0x21E SWAP5 SWAP4 SWAP3 SWAP2 SWAP1 PUSH2 0x302F JUMP JUMPDEST PUSH1 0x40 MLOAD DUP1 SWAP2 SUB SWAP1 RETURN JUMPDEST PUSH2 0x22F PUSH2 0x19E4 JUMP JUMPDEST STOP JUMPDEST PUSH2 0x24B PUSH1 0x4 DUP1 CALLDATASIZE SUB DUP2 ADD SWAP1 PUSH2 0x246 SWAP2 SWAP1 PUSH2 0x2A07 JUMP JUMPDEST PUSH2 0x1A33 JUMP JUMPDEST STOP JUMPDEST PUSH2 0x255 PUSH2 0x1B6E JUMP JUMPDEST PUSH1 0x40 MLOAD PUSH2 0x262 SWAP2 SWAP1 PUSH2 0x3090 JUMP JUMPDEST PUSH1 0x40 MLOAD DUP1 SWAP2 SUB SWAP1 RETURN JUMPDEST PUSH2 0x273 PUSH2 0x1B8D JUMP JUMPDEST STOP JUMPDEST PUSH2 0x28F PUSH1 0x4 DUP1 CALLDATASIZE SUB DUP2 ADD SWAP1 PUSH2 0x28A SWAP2 SWAP1 PUSH2 0x2C43 JUMP JUMPDEST PUSH2 0x1BDC JUMP JUMPDEST PUSH1 0x40 MLOAD PUSH2 0x2A0 SWAP6 SWAP5 SWAP4 SWAP3 SWAP2 SWAP1 PUSH2 0x2FB9 JUMP JUMPDEST PUSH1 0x40 MLOAD DUP1 SWAP2 SUB SWAP1 RETURN JUMPDEST PUSH2 0x2B1 PUSH2 0x20A7 JUMP JUMPDEST STOP JUMPDEST PUSH1 0x0 DUP1 CALLER PUSH20 0xFFFFFFFFFFFFFFFFFFFFFFFFFFFFFFFFFFFFFFFF AND PUSH20 0xFFFFFFFFFFFFFFFFFFFFFFFFFFFFFFFFFFFFFFFF AND DUP2 MSTORE PUSH1 0x20 ADD SWAP1 DUP2 MSTORE PUSH1 0x20 ADD PUSH1 0x0 KECCAK256 PUSH1 0x15 ADD PUSH1 0x0 PUSH2 0x300 SWAP2 SWAP1 PUSH2 0x2275 JUMP JUMPDEST JUMP JUMPDEST PUSH2 0x30A PUSH2 0x2299 JUMP JUMPDEST DUP6 DUP2 PUSH1 0x0 ADD DUP2 SWAP1 MSTORE POP DUP5 DUP2 PUSH1 0x20 ADD DUP2 SWAP1 MSTORE POP DUP4 DUP2 PUSH1 0x40 ADD DUP2 SWAP1 MSTORE POP DUP3 DUP2 PUSH1 0x60 ADD DUP2 SWAP1 MSTORE POP DUP2 DUP2 PUSH1 0x80 ADD DUP2 SWAP1 MSTORE POP PUSH1 0x0 DUP1 CALLER PUSH20 0xFFFFFFFFFFFFFFFFFFFFFFFFFFFFFFFFFFFFFFFF AND PUSH20 0xFFFFFFFFFFFFFFFFFFFFFFFFFFFFFFFFFFFFFFFF AND DUP2 MSTORE PUSH1 0x20 ADD SWAP1 DUP2 MSTORE PUSH1 0x20 ADD PUSH1 0x0 KECCAK256 PUSH1 0x14 ADD DUP2 SWAP1 DUP1 PUSH1 0x1 DUP2 SLOAD ADD DUP1 DUP3 SSTORE DUP1 SWAP2 POP POP PUSH1 0x1 SWAP1 SUB SWAP1 PUSH1 0x0 MSTORE PUSH1 0x20 PUSH1 0x0 KECCAK256 SWAP1 PUSH1 0x5 MUL ADD PUSH1 0x0 SWAP1 SWAP2 SWAP1 SWAP2 SWAP1 SWAP2 POP PUSH1 0x0 DUP3 ADD MLOAD DUP2 PUSH1 0x0 ADD SWAP1 DUP1 MLOAD SWAP1 PUSH1 0x20 ADD SWAP1 PUSH2 0x3BE SWAP3 SWAP2 SWAP1 PUSH2 0x22C8 JUMP JUMPDEST POP PUSH1 0x20 DUP3 ADD MLOAD DUP2 PUSH1 0x1 ADD SWAP1 DUP1 MLOAD SWAP1 PUSH1 0x20 ADD SWAP1 PUSH2 0x3DB SWAP3 SWAP2 SWAP1 PUSH2 0x22C8 JUMP JUMPDEST POP PUSH1 0x40 DUP3 ADD MLOAD DUP2 PUSH1 0x2 ADD SWAP1 DUP1 MLOAD SWAP1 PUSH1 0x20 ADD SWAP1 PUSH2 0x3F8 SWAP3 SWAP2 SWAP1 PUSH2 0x22C8 JUMP JUMPDEST POP PUSH1 0x60 DUP3 ADD MLOAD DUP2 PUSH1 0x3 ADD SWAP1 DUP1 MLOAD SWAP1 PUSH1 0x20 ADD SWAP1 PUSH2 0x415 SWAP3 SWAP2 SWAP1 PUSH2 0x22C8 JUMP JUMPDEST POP PUSH1 0x80 DUP3 ADD MLOAD DUP2 PUSH1 0x4 ADD SWAP1 DUP1 MLOAD SWAP1 PUSH1 0x20 ADD SWAP1 PUSH2 0x432 SWAP3 SWAP2 SWAP1 PUSH2 0x234E JUMP JUMPDEST POP POP POP POP POP POP POP POP POP JUMP JUMPDEST PUSH2 0x445 PUSH2 0x23AE JUMP JUMPDEST DUP3 DUP2 PUSH1 0x0 ADD DUP2 SWAP1 MSTORE POP DUP2 DUP2 PUSH1 0x20 ADD DUP2 SWAP1 MSTORE POP PUSH1 0x0 DUP1 CALLER PUSH20 0xFFFFFFFFFFFFFFFFFFFFFFFFFFFFFFFFFFFFFFFF AND PUSH20 0xFFFFFFFFFFFFFFFFFFFFFFFFFFFFFFFFFFFFFFFF AND DUP2 MSTORE PUSH1 0x20 ADD SWAP1 DUP2 MSTORE PUSH1 0x20 ADD PUSH1 0x0 KECCAK256 PUSH1 0x15 ADD DUP2 SWAP1 DUP1 PUSH1 0x1 DUP2 SLOAD ADD DUP1 DUP3 SSTORE DUP1 SWAP2 POP POP PUSH1 0x1 SWAP1 SUB SWAP1 PUSH1 0x0 MSTORE PUSH1 0x20 PUSH1 0x0 KECCAK256 SWAP1 PUSH1 0x2 MUL ADD PUSH1 0x0 SWAP1 SWAP2 SWAP1 SWAP2 SWAP1 SWAP2 POP PUSH1 0x0 DUP3 ADD MLOAD DUP2 PUSH1 0x0 ADD SWAP1 DUP1 MLOAD SWAP1 PUSH1 0x20 ADD SWAP1 PUSH2 0x4DE SWAP3 SWAP2 SWAP1 PUSH2 0x22C8 JUMP JUMPDEST POP PUSH1 0x20 DUP3 ADD MLOAD DUP2 PUSH1 0x1 ADD SWAP1 DUP1 MLOAD SWAP1 PUSH1 0x20 ADD SWAP1 PUSH2 0x4FB SWAP3 SWAP2 SWAP1 PUSH2 0x22C8 JUMP JUMPDEST POP POP POP POP POP POP JUMP JUMPDEST PUSH1 0x0 DUP1 CALLER PUSH20 0xFFFFFFFFFFFFFFFFFFFFFFFFFFFFFFFFFFFFFFFF AND PUSH20 0xFFFFFFFFFFFFFFFFFFFFFFFFFFFFFFFFFFFFFFFF AND DUP2 MSTORE PUSH1 0x20 ADD SWAP1 DUP2 MSTORE PUSH1 0x20 ADD PUSH1 0x0 KECCAK256 PUSH1 0xE ADD PUSH1 0x0 DUP1 DUP3 ADD PUSH1 0x0 PUSH2 0x555 SWAP2 SWAP1 PUSH2 0x23C8 JUMP JUMPDEST PUSH1 0x1 DUP3 ADD PUSH1 0x0 PUSH2 0x565 SWAP2 SWAP1 PUSH2 0x23C8 JUMP JUMPDEST PUSH1 0x2 DUP3 ADD PUSH1 0x0 PUSH2 0x575 SWAP2 SWAP1 PUSH2 0x23C8 JUMP JUMPDEST POP POP DUP3 PUSH1 0x0 DUP1 CALLER PUSH20 0xFFFFFFFFFFFFFFFFFFFFFFFFFFFFFFFFFFFFFFFF AND PUSH20 0xFFFFFFFFFFFFFFFFFFFFFFFFFFFFFFFFFFFFFFFF AND DUP2 MSTORE PUSH1 0x20 ADD SWAP1 DUP2 MSTORE PUSH1 0x20 ADD PUSH1 0x0 KECCAK256 PUSH1 0xE ADD PUSH1 0x0 ADD SWAP1 DUP1 MLOAD SWAP1 PUSH1 0x20 ADD SWAP1 PUSH2 0x5CF SWAP3 SWAP2 SWAP1 PUSH2 0x234E JUMP JUMPDEST POP DUP2 PUSH1 0x0 DUP1 CALLER PUSH20 0xFFFFFFFFFFFFFFFFFFFFFFFFFFFFFFFFFFFFFFFF AND PUSH20 0xFFFFFFFFFFFFFFFFFFFFFFFFFFFFFFFFFFFFFFFF AND DUP2 MSTORE PUSH1 0x20 ADD SWAP1 DUP2 MSTORE PUSH1 0x20 ADD PUSH1 0x0 KECCAK256 PUSH1 0xE ADD PUSH1 0x1 ADD SWAP1 DUP1 MLOAD SWAP1 PUSH1 0x20 ADD SWAP1 PUSH2 0x628 SWAP3 SWAP2 SWAP1 PUSH2 0x234E JUMP JUMPDEST POP DUP1 PUSH1 0x0 DUP1 CALLER PUSH20 0xFFFFFFFFFFFFFFFFFFFFFFFFFFFFFFFFFFFFFFFF AND PUSH20 0xFFFFFFFFFFFFFFFFFFFFFFFFFFFFFFFFFFFFFFFF AND DUP2 MSTORE PUSH1 0x20 ADD SWAP1 DUP2 MSTORE PUSH1 0x20 ADD PUSH1 0x0 KECCAK256 PUSH1 0xE ADD PUSH1 0x2 ADD SWAP1 DUP1 MLOAD SWAP1 PUSH1 0x20 ADD SWAP1 PUSH2 0x681 SWAP3 SWAP2 SWAP1 PUSH2 0x234E JUMP JUMPDEST POP POP POP POP JUMP JUMPDEST PUSH1 0x0 DUP1 CALLER PUSH20 0xFFFFFFFFFFFFFFFFFFFFFFFFFFFFFFFFFFFFFFFF AND PUSH20 0xFFFFFFFFFFFFFFFFFFFFFFFFFFFFFFFFFFFFFFFF AND DUP2 MSTORE PUSH1 0x20 ADD SWAP1 DUP2 MSTORE PUSH1 0x20 ADD PUSH1 0x0 KECCAK256 PUSH1 0x12 ADD PUSH1 0x0 DUP1 DUP3 ADD PUSH1 0x0 PUSH2 0x6D9 SWAP2 SWAP1 PUSH2 0x23C8 JUMP JUMPDEST PUSH1 0x1 DUP3 ADD PUSH1 0x0 PUSH2 0x6E9 SWAP2 SWAP1 PUSH2 0x23C8 JUMP JUMPDEST POP POP JUMP JUMPDEST PUSH1 0x0 DUP1 PUSH1 0x0 CALLER PUSH20 0xFFFFFFFFFFFFFFFFFFFFFFFFFFFFFFFFFFFFFFFF AND PUSH20 0xFFFFFFFFFFFFFFFFFFFFFFFFFFFFFFFFFFFFFFFF AND DUP2 MSTORE PUSH1 0x20 ADD SWAP1 DUP2 MSTORE PUSH1 0x20 ADD PUSH1 0x0 KECCAK256 PUSH1 0x11 ADD DUP1 SLOAD SWAP1 POP SWAP1 POP SWAP1 JUMP JUMPDEST DUP2 PUSH1 0x0 DUP1 CALLER PUSH20 0xFFFFFFFFFFFFFFFFFFFFFFFFFFFFFFFFFFFFFFFF AND PUSH20 0xFFFFFFFFFFFFFFFFFFFFFFFFFFFFFFFFFFFFFFFF AND DUP2 MSTORE PUSH1 0x20 ADD SWAP1 DUP2 MSTORE PUSH1 0x20 ADD PUSH1 0x0 KECCAK256 PUSH1 0x12 ADD PUSH1 0x1 ADD SWAP1 DUP1 MLOAD SWAP1 PUSH1 0x20 ADD SWAP1 PUSH2 0x791 SWAP3 SWAP2 SWAP1 PUSH2 0x234E JUMP JUMPDEST POP DUP1 PUSH1 0x0 DUP1 CALLER PUSH20 0xFFFFFFFFFFFFFFFFFFFFFFFFFFFFFFFFFFFFFFFF AND PUSH20 0xFFFFFFFFFFFFFFFFFFFFFFFFFFFFFFFFFFFFFFFF AND DUP2 MSTORE PUSH1 0x20 ADD SWAP1 DUP2 MSTORE PUSH1 0x20 ADD PUSH1 0x0 KECCAK256 PUSH1 0x12 ADD PUSH1 0x0 ADD SWAP1 DUP1 MLOAD SWAP1 PUSH1 0x20 ADD SWAP1 PUSH2 0x7EA SWAP3 SWAP2 SWAP1 PUSH2 0x234E JUMP JUMPDEST POP POP POP JUMP JUMPDEST PUSH1 0x0 DUP1 CALLER PUSH20 0xFFFFFFFFFFFFFFFFFFFFFFFFFFFFFFFFFFFFFFFF AND PUSH20 0xFFFFFFFFFFFFFFFFFFFFFFFFFFFFFFFFFFFFFFFF AND DUP2 MSTORE PUSH1 0x20 ADD SWAP1 DUP2 MSTORE PUSH1 0x20 ADD PUSH1 0x0 KECCAK256 PUSH1 0x8 ADD PUSH1 0x0 DUP1 DUP3 ADD PUSH1 0x0 PUSH2 0x841 SWAP2 SWAP1 PUSH2 0x23E9 JUMP JUMPDEST PUSH1 0x1 DUP3 ADD PUSH1 0x0 PUSH2 0x851 SWAP2 SWAP1 PUSH2 0x23E9 JUMP JUMPDEST PUSH1 0x2 DUP3 ADD PUSH1 0x0 PUSH2 0x861 SWAP2 SWAP1 PUSH2 0x23E9 JUMP JUMPDEST PUSH1 0x3 DUP3 ADD PUSH1 0x0 PUSH2 0x871 SWAP2 SWAP1 PUSH2 0x23E9 JUMP JUMPDEST PUSH1 0x4 DUP3 ADD PUSH1 0x0 PUSH2 0x881 SWAP2 SWAP1 PUSH2 0x23E9 JUMP JUMPDEST PUSH1 0x5 DUP3 ADD PUSH1 0x0 PUSH2 0x891 SWAP2 SWAP1 PUSH2 0x23E9 JUMP JUMPDEST POP POP DUP5 PUSH1 0x0 DUP1 CALLER PUSH20 0xFFFFFFFFFFFFFFFFFFFFFFFFFFFFFFFFFFFFFFFF AND PUSH20 0xFFFFFFFFFFFFFFFFFFFFFFFFFFFFFFFFFFFFFFFF AND DUP2 MSTORE PUSH1 0x20 ADD SWAP1 DUP2 MSTORE PUSH1 0x20 ADD PUSH1 0x0 KECCAK256 PUSH1 0x8 ADD PUSH1 0x1 ADD SWAP1 DUP1 MLOAD SWAP1 PUSH1 0x20 ADD SWAP1 PUSH2 0x8EB SWAP3 SWAP2 SWAP1 PUSH2 0x22C8 JUMP JUMPDEST POP DUP4 PUSH1 0x0 DUP1 CALLER PUSH20 0xFFFFFFFFFFFFFFFFFFFFFFFFFFFFFFFFFFFFFFFF AND PUSH20 0xFFFFFFFFFFFFFFFFFFFFFFFFFFFFFFFFFFFFFFFF AND DUP2 MSTORE PUSH1 0x20 ADD SWAP1 DUP2 MSTORE PUSH1 0x20 ADD PUSH1 0x0 KECCAK256 PUSH1 0x8 ADD PUSH1 0x2 ADD SWAP1 DUP1 MLOAD SWAP1 PUSH1 0x20 ADD SWAP1 PUSH2 0x944 SWAP3 SWAP2 SWAP1 PUSH2 0x22C8 JUMP JUMPDEST POP DUP3 PUSH1 0x0 DUP1 CALLER PUSH20 0xFFFFFFFFFFFFFFFFFFFFFFFFFFFFFFFFFFFFFFFF AND PUSH20 0xFFFFFFFFFFFFFFFFFFFFFFFFFFFFFFFFFFFFFFFF AND DUP2 MSTORE PUSH1 0x20 ADD SWAP1 DUP2 MSTORE PUSH1 0x20 ADD PUSH1 0x0 KECCAK256 PUSH1 0x8 ADD PUSH1 0x3 ADD SWAP1 DUP1 MLOAD SWAP1 PUSH1 0x20 ADD SWAP1 PUSH2 0x99D SWAP3 SWAP2 SWAP1 PUSH2 0x22C8 JUMP JUMPDEST POP DUP2 PUSH1 0x0 DUP1 CALLER PUSH20 0xFFFFFFFFFFFFFFFFFFFFFFFFFFFFFFFFFFFFFFFF AND PUSH20 0xFFFFFFFFFFFFFFFFFFFFFFFFFFFFFFFFFFFFFFFF AND DUP2 MSTORE PUSH1 0x20 ADD SWAP1 DUP2 MSTORE PUSH1 0x20 ADD PUSH1 0x0 KECCAK256 PUSH1 0x8 ADD PUSH1 0x4 ADD SWAP1 DUP1 MLOAD SWAP1 PUSH1 0x20 ADD SWAP1 PUSH2 0x9F6 SWAP3 SWAP2 SWAP1 PUSH2 0x22C8 JUMP JUMPDEST POP DUP1 PUSH1 0x0 DUP1 CALLER PUSH20 0xFFFFFFFFFFFFFFFFFFFFFFFFFFFFFFFFFFFFFFFF AND PUSH20 0xFFFFFFFFFFFFFFFFFFFFFFFFFFFFFFFFFFFFFFFF AND DUP2 MSTORE PUSH1 0x20 ADD SWAP1 DUP2 MSTORE PUSH1 0x20 ADD PUSH1 0x0 KECCAK256 PUSH1 0x8 ADD PUSH1 0x5 ADD SWAP1 DUP1 MLOAD SWAP1 PUSH1 0x20 ADD SWAP1 PUSH2 0xA4F SWAP3 SWAP2 SWAP1 PUSH2 0x22C8 JUMP JUMPDEST POP POP POP POP POP POP JUMP JUMPDEST DUP6 PUSH1 0x0 DUP1 CALLER PUSH20 0xFFFFFFFFFFFFFFFFFFFFFFFFFFFFFFFFFFFFFFFF AND PUSH20 0xFFFFFFFFFFFFFFFFFFFFFFFFFFFFFFFFFFFFFFFF AND DUP2 MSTORE PUSH1 0x20 ADD SWAP1 DUP2 MSTORE PUSH1 0x20 ADD PUSH1 0x0 KECCAK256 PUSH1 0x0 ADD PUSH1 0x3 ADD SWAP1 DUP1 MLOAD SWAP1 PUSH1 0x20 ADD SWAP1 PUSH2 0xAAF SWAP3 SWAP2 SWAP1 PUSH2 0x22C8 JUMP JUMPDEST POP DUP5 PUSH1 0x0 DUP1 CALLER PUSH20 0xFFFFFFFFFFFFFFFFFFFFFFFFFFFFFFFFFFFFFFFF AND PUSH20 0xFFFFFFFFFFFFFFFFFFFFFFFFFFFFFFFFFFFFFFFF AND DUP2 MSTORE PUSH1 0x20 ADD SWAP1 DUP2 MSTORE PUSH1 0x20 ADD PUSH1 0x0 KECCAK256 PUSH1 0x0 ADD PUSH1 0x4 ADD SWAP1 DUP1 MLOAD SWAP1 PUSH1 0x20 ADD SWAP1 PUSH2 0xB08 SWAP3 SWAP2 SWAP1 PUSH2 0x22C8 JUMP JUMPDEST POP DUP4 PUSH1 0x0 DUP1 CALLER PUSH20 0xFFFFFFFFFFFFFFFFFFFFFFFFFFFFFFFFFFFFFFFF AND PUSH20 0xFFFFFFFFFFFFFFFFFFFFFFFFFFFFFFFFFFFFFFFF AND DUP2 MSTORE PUSH1 0x20 ADD SWAP1 DUP2 MSTORE PUSH1 0x20 ADD PUSH1 0x0 KECCAK256 PUSH1 0x0 ADD PUSH1 0x5 ADD SWAP1 DUP1 MLOAD SWAP1 PUSH1 0x20 ADD SWAP1 PUSH2 0xB61 SWAP3 SWAP2 SWAP1 PUSH2 0x22C8 JUMP JUMPDEST POP DUP3 PUSH1 0x0 DUP1 CALLER PUSH20 0xFFFFFFFFFFFFFFFFFFFFFFFFFFFFFFFFFFFFFFFF AND PUSH20 0xFFFFFFFFFFFFFFFFFFFFFFFFFFFFFFFFFFFFFFFF AND DUP2 MSTORE PUSH1 0x20 ADD SWAP1 DUP2 MSTORE PUSH1 0x20 ADD PUSH1 0x0 KECCAK256 PUSH1 0x0 ADD PUSH1 0x6 ADD SWAP1 DUP1 MLOAD SWAP1 PUSH1 0x20 ADD SWAP1 PUSH2 0xBBA SWAP3 SWAP2 SWAP1 PUSH2 0x22C8 JUMP JUMPDEST POP DUP2 PUSH1 0x0 DUP1 CALLER PUSH20 0xFFFFFFFFFFFFFFFFFFFFFFFFFFFFFFFFFFFFFFFF AND PUSH20 0xFFFFFFFFFFFFFFFFFFFFFFFFFFFFFFFFFFFFFFFF AND DUP2 MSTORE PUSH1 0x20 ADD SWAP1 DUP2 MSTORE PUSH1 0x20 ADD PUSH1 0x0 KECCAK256 PUSH1 0x0 ADD PUSH1 0x0 ADD SWAP1 DUP1 MLOAD SWAP1 PUSH1 0x20 ADD SWAP1 PUSH2 0xC13 SWAP3 SWAP2 SWAP1 PUSH2 0x22C8 JUMP JUMPDEST POP DUP1 PUSH1 0x0 DUP1 CALLER PUSH20 0xFFFFFFFFFFFFFFFFFFFFFFFFFFFFFFFFFFFFFFFF AND PUSH20 0xFFFFFFFFFFFFFFFFFFFFFFFFFFFFFFFFFFFFFFFF AND DUP2 MSTORE PUSH1 0x20 ADD SWAP1 DUP2 MSTORE PUSH1 0x20 ADD PUSH1 0x0 KECCAK256 PUSH1 0x0 ADD PUSH1 0x1 ADD SWAP1 DUP1 MLOAD SWAP1 PUSH1 0x20 ADD SWAP1 PUSH2 0xC6C SWAP3 SWAP2 SWAP1 PUSH2 0x22C8 JUMP JUMPDEST POP CALLER PUSH1 0x0 DUP1 CALLER PUSH20 0xFFFFFFFFFFFFFFFFFFFFFFFFFFFFFFFFFFFFFFFF AND PUSH20 0xFFFFFFFFFFFFFFFFFFFFFFFFFFFFFFFFFFFFFFFF AND DUP2 MSTORE PUSH1 0x20 ADD SWAP1 DUP2 MSTORE PUSH1 0x20 ADD PUSH1 0x0 KECCAK256 PUSH1 0x0 ADD PUSH1 0x2 ADD PUSH1 0x0 PUSH2 0x100 EXP DUP2 SLOAD DUP2 PUSH20 0xFFFFFFFFFFFFFFFFFFFFFFFFFFFFFFFFFFFFFFFF MUL NOT AND SWAP1 DUP4 PUSH20 0xFFFFFFFFFFFFFFFFFFFFFFFFFFFFFFFFFFFFFFFF AND MUL OR SWAP1 SSTORE POP TIMESTAMP PUSH1 0x0 DUP1 CALLER PUSH20 0xFFFFFFFFFFFFFFFFFFFFFFFFFFFFFFFFFFFFFFFF AND PUSH20 0xFFFFFFFFFFFFFFFFFFFFFFFFFFFFFFFFFFFFFFFF AND DUP2 MSTORE PUSH1 0x20 ADD SWAP1 DUP2 MSTORE PUSH1 0x20 ADD PUSH1 0x0 KECCAK256 PUSH1 0x0 ADD PUSH1 0x7 ADD DUP2 SWAP1 SSTORE POP POP POP POP POP POP POP JUMP JUMPDEST PUSH1 0x0 DUP1 CALLER PUSH20 0xFFFFFFFFFFFFFFFFFFFFFFFFFFFFFFFFFFFFFFFF AND PUSH20 0xFFFFFFFFFFFFFFFFFFFFFFFFFFFFFFFFFFFFFFFF AND DUP2 MSTORE PUSH1 0x20 ADD SWAP1 DUP2 MSTORE PUSH1 0x20 ADD PUSH1 0x0 KECCAK256 PUSH1 0x0 ADD PUSH1 0x0 DUP1 DUP3 ADD PUSH1 0x0 PUSH2 0xD93 SWAP2 SWAP1 PUSH2 0x23E9 JUMP JUMPDEST PUSH1 0x1 DUP3 ADD PUSH1 0x0 PUSH2 0xDA3 SWAP2 SWAP1 PUSH2 0x23E9 JUMP JUMPDEST PUSH1 0x2 DUP3 ADD PUSH1 0x0 PUSH2 0x100 EXP DUP2 SLOAD SWAP1 PUSH20 0xFFFFFFFFFFFFFFFFFFFFFFFFFFFFFFFFFFFFFFFF MUL NOT AND SWAP1 SSTORE PUSH1 0x3 DUP3 ADD PUSH1 0x0 PUSH2 0xDDA SWAP2 SWAP1 PUSH2 0x23E9 JUMP JUMPDEST PUSH1 0x4 DUP3 ADD PUSH1 0x0 PUSH2 0xDEA SWAP2 SWAP1 PUSH2 0x23E9 JUMP JUMPDEST PUSH1 0x5 DUP3 ADD PUSH1 0x0 PUSH2 0xDFA SWAP2 SWAP1 PUSH2 0x23E9 JUMP JUMPDEST PUSH1 0x6 DUP3 ADD PUSH1 0x0 PUSH2 0xE0A SWAP2 SWAP1 PUSH2 0x23E9 JUMP JUMPDEST PUSH1 0x7 DUP3 ADD PUSH1 0x0 SWAP1 SSTORE POP POP JUMP JUMPDEST PUSH1 0x0 PUSH1 0x20 MSTORE DUP1 PUSH1 0x0 MSTORE PUSH1 0x40 PUSH1 0x0 KECCAK256 PUSH1 0x0 SWAP2 POP SWAP1 POP DUP1 PUSH1 0x0 ADD PUSH1 0x40 MLOAD DUP1 PUSH2 0x100 ADD PUSH1 0x40 MSTORE SWAP1 DUP2 PUSH1 0x0 DUP3 ADD DUP1 SLOAD PUSH2 0xE4A SWAP1 PUSH2 0x3211 JUMP JUMPDEST DUP1 PUSH1 0x1F ADD PUSH1 0x20 DUP1 SWAP2 DIV MUL PUSH1 0x20 ADD PUSH1 0x40 MLOAD SWAP1 DUP2 ADD PUSH1 0x40 MSTORE DUP1 SWAP3 SWAP2 SWAP1 DUP2 DUP2 MSTORE PUSH1 0x20 ADD DUP3 DUP1 SLOAD PUSH2 0xE76 SWAP1 PUSH2 0x3211 JUMP JUMPDEST DUP1 ISZERO PUSH2 0xEC3 JUMPI DUP1 PUSH1 0x1F LT PUSH2 0xE98 JUMPI PUSH2 0x100 DUP1 DUP4 SLOAD DIV MUL DUP4 MSTORE SWAP2 PUSH1 0x20 ADD SWAP2 PUSH2 0xEC3 JUMP JUMPDEST DUP3 ADD SWAP2 SWAP1 PUSH1 0x0 MSTORE PUSH1 0x20 PUSH1 0x0 KECCAK256 SWAP1 JUMPDEST DUP2 SLOAD DUP2 MSTORE SWAP1 PUSH1 0x1 ADD SWAP1 PUSH1 0x20 ADD DUP1 DUP4 GT PUSH2 0xEA6 JUMPI DUP3 SWAP1 SUB PUSH1 0x1F AND DUP3 ADD SWAP2 JUMPDEST POP POP POP POP POP DUP2 MSTORE PUSH1 0x20 ADD PUSH1 0x1 DUP3 ADD DUP1 SLOAD PUSH2 0xEDC SWAP1 PUSH2 0x3211 JUMP JUMPDEST DUP1 PUSH1 0x1F ADD PUSH1 0x20 DUP1 SWAP2 DIV MUL PUSH1 0x20 ADD PUSH1 0x40 MLOAD SWAP1 DUP2 ADD PUSH1 0x40 MSTORE DUP1 SWAP3 SWAP2 SWAP1 DUP2 DUP2 MSTORE PUSH1 0x20 ADD DUP3 DUP1 SLOAD PUSH2 0xF08 SWAP1 PUSH2 0x3211 JUMP JUMPDEST DUP1 ISZERO PUSH2 0xF55 JUMPI DUP1 PUSH1 0x1F LT PUSH2 0xF2A JUMPI PUSH2 0x100 DUP1 DUP4 SLOAD DIV MUL DUP4 MSTORE SWAP2 PUSH1 0x20 ADD SWAP2 PUSH2 0xF55 JUMP JUMPDEST DUP3 ADD SWAP2 SWAP1 PUSH1 0x0 MSTORE PUSH1 0x20 PUSH1 0x0 KECCAK256 SWAP1 JUMPDEST DUP2 SLOAD DUP2 MSTORE SWAP1 PUSH1 0x1 ADD SWAP1 PUSH1 0x20 ADD DUP1 DUP4 GT PUSH2 0xF38 JUMPI DUP3 SWAP1 SUB PUSH1 0x1F AND DUP3 ADD SWAP2 JUMPDEST POP POP POP POP POP DUP2 MSTORE PUSH1 0x20 ADD PUSH1 0x2 DUP3 ADD PUSH1 0x0 SWAP1 SLOAD SWAP1 PUSH2 0x100 EXP SWAP1 DIV PUSH20 0xFFFFFFFFFFFFFFFFFFFFFFFFFFFFFFFFFFFFFFFF AND PUSH20 0xFFFFFFFFFFFFFFFFFFFFFFFFFFFFFFFFFFFFFFFF AND PUSH20 0xFFFFFFFFFFFFFFFFFFFFFFFFFFFFFFFFFFFFFFFF AND DUP2 MSTORE PUSH1 0x20 ADD PUSH1 0x3 DUP3 ADD DUP1 SLOAD PUSH2 0xFC4 SWAP1 PUSH2 0x3211 JUMP JUMPDEST DUP1 PUSH1 0x1F ADD PUSH1 0x20 DUP1 SWAP2 DIV MUL PUSH1 0x20 ADD PUSH1 0x40 MLOAD SWAP1 DUP2 ADD PUSH1 0x40 MSTORE DUP1 SWAP3 SWAP2 SWAP1 DUP2 DUP2 MSTORE PUSH1 0x20 ADD DUP3 DUP1 SLOAD PUSH2 0xFF0 SWAP1 PUSH2 0x3211 JUMP JUMPDEST DUP1 ISZERO PUSH2 0x103D JUMPI DUP1 PUSH1 0x1F LT PUSH2 0x1012 JUMPI PUSH2 0x100 DUP1 DUP4 SLOAD DIV MUL DUP4 MSTORE SWAP2 PUSH1 0x20 ADD SWAP2 PUSH2 0x103D JUMP JUMPDEST DUP3 ADD SWAP2 SWAP1 PUSH1 0x0 MSTORE PUSH1 0x20 PUSH1 0x0 KECCAK256 SWAP1 JUMPDEST DUP2 SLOAD DUP2 MSTORE SWAP1 PUSH1 0x1 ADD SWAP1 PUSH1 0x20 ADD DUP1 DUP4 GT PUSH2 0x1020 JUMPI DUP3 SWAP1 SUB PUSH1 0x1F AND DUP3 ADD SWAP2 JUMPDEST POP POP POP POP POP DUP2 MSTORE PUSH1 0x20 ADD PUSH1 0x4 DUP3 ADD DUP1 SLOAD PUSH2 0x1056 SWAP1 PUSH2 0x3211 JUMP JUMPDEST DUP1 PUSH1 0x1F ADD PUSH1 0x20 DUP1 SWAP2 DIV MUL PUSH1 0x20 ADD PUSH1 0x40 MLOAD SWAP1 DUP2 ADD PUSH1 0x40 MSTORE DUP1 SWAP3 SWAP2 SWAP1 DUP2 DUP2 MSTORE PUSH1 0x20 ADD DUP3 DUP1 SLOAD PUSH2 0x1082 SWAP1 PUSH2 0x3211 JUMP JUMPDEST DUP1 ISZERO PUSH2 0x10CF JUMPI DUP1 PUSH1 0x1F LT PUSH2 0x10A4 JUMPI PUSH2 0x100 DUP1 DUP4 SLOAD DIV MUL DUP4 MSTORE SWAP2 PUSH1 0x20 ADD SWAP2 PUSH2 0x10CF JUMP JUMPDEST DUP3 ADD SWAP2 SWAP1 PUSH1 0x0 MSTORE PUSH1 0x20 PUSH1 0x0 KECCAK256 SWAP1 JUMPDEST DUP2 SLOAD DUP2 MSTORE SWAP1 PUSH1 0x1 ADD SWAP1 PUSH1 0x20 ADD DUP1 DUP4 GT PUSH2 0x10B2 JUMPI DUP3 SWAP1 SUB PUSH1 0x1F AND DUP3 ADD SWAP2 JUMPDEST POP POP POP POP POP DUP2 MSTORE PUSH1 0x20 ADD PUSH1 0x5 DUP3 ADD DUP1 SLOAD PUSH2 0x10E8 SWAP1 PUSH2 0x3211 JUMP JUMPDEST DUP1 PUSH1 0x1F ADD PUSH1 0x20 DUP1 SWAP2 DIV MUL PUSH1 0x20 ADD PUSH1 0x40 MLOAD SWAP1 DUP2 ADD PUSH1 0x40 MSTORE DUP1 SWAP3 SWAP2 SWAP1 DUP2 DUP2 MSTORE PUSH1 0x20 ADD DUP3 DUP1 SLOAD PUSH2 0x1114 SWAP1 PUSH2 0x3211 JUMP JUMPDEST DUP1 ISZERO PUSH2 0x1161 JUMPI DUP1 PUSH1 0x1F LT PUSH2 0x1136 JUMPI PUSH2 0x100 DUP1 DUP4 SLOAD DIV MUL DUP4 MSTORE SWAP2 PUSH1 0x20 ADD SWAP2 PUSH2 0x1161 JUMP JUMPDEST DUP3 ADD SWAP2 SWAP1 PUSH1 0x0 MSTORE PUSH1 0x20 PUSH1 0x0 KECCAK256 SWAP1 JUMPDEST DUP2 SLOAD DUP2 MSTORE SWAP1 PUSH1 0x1 ADD SWAP1 PUSH1 0x20 ADD DUP1 DUP4 GT PUSH2 0x1144 JUMPI DUP3 SWAP1 SUB PUSH1 0x1F AND DUP3 ADD SWAP2 JUMPDEST POP POP POP POP POP DUP2 MSTORE PUSH1 0x20 ADD PUSH1 0x6 DUP3 ADD DUP1 SLOAD PUSH2 0x117A SWAP1 PUSH2 0x3211 JUMP JUMPDEST DUP1 PUSH1 0x1F ADD PUSH1 0x20 DUP1 SWAP2 DIV MUL PUSH1 0x20 ADD PUSH1 0x40 MLOAD SWAP1 DUP2 ADD PUSH1 0x40 MSTORE DUP1 SWAP3 SWAP2 SWAP1 DUP2 DUP2 MSTORE PUSH1 0x20 ADD DUP3 DUP1 SLOAD PUSH2 0x11A6 SWAP1 PUSH2 0x3211 JUMP JUMPDEST DUP1 ISZERO PUSH2 0x11F3 JUMPI DUP1 PUSH1 0x1F LT PUSH2 0x11C8 JUMPI PUSH2 0x100 DUP1 DUP4 SLOAD DIV MUL DUP4 MSTORE SWAP2 PUSH1 0x20 ADD SWAP2 PUSH2 0x11F3 JUMP JUMPDEST DUP3 ADD SWAP2 SWAP1 PUSH1 0x0 MSTORE PUSH1 0x20 PUSH1 0x0 KECCAK256 SWAP1 JUMPDEST DUP2 SLOAD DUP2 MSTORE SWAP1 PUSH1 0x1 ADD SWAP1 PUSH1 0x20 ADD DUP1 DUP4 GT PUSH2 0x11D6 JUMPI DUP3 SWAP1 SUB PUSH1 0x1F AND DUP3 ADD SWAP2 JUMPDEST POP POP POP POP POP DUP2 MSTORE PUSH1 0x20 ADD PUSH1 0x7 DUP3 ADD SLOAD DUP2 MSTORE POP POP SWAP1 DUP1 PUSH1 0x8 ADD PUSH1 0x40 MLOAD DUP1 PUSH1 0xC0 ADD PUSH1 0x40 MSTORE SWAP1 DUP2 PUSH1 0x0 DUP3 ADD DUP1 SLOAD PUSH2 0x1226 SWAP1 PUSH2 0x3211 JUMP JUMPDEST DUP1 PUSH1 0x1F ADD PUSH1 0x20 DUP1 SWAP2 DIV MUL PUSH1 0x20 ADD PUSH1 0x40 MLOAD SWAP1 DUP2 ADD PUSH1 0x40 MSTORE DUP1 SWAP3 SWAP2 SWAP1 DUP2 DUP2 MSTORE PUSH1 0x20 ADD DUP3 DUP1 SLOAD PUSH2 0x1252 SWAP1 PUSH2 0x3211 JUMP JUMPDEST DUP1 ISZERO PUSH2 0x129F JUMPI DUP1 PUSH1 0x1F LT PUSH2 0x1274 JUMPI PUSH2 0x100 DUP1 DUP4 SLOAD DIV MUL DUP4 MSTORE SWAP2 PUSH1 0x20 ADD SWAP2 PUSH2 0x129F JUMP JUMPDEST DUP3 ADD SWAP2 SWAP1 PUSH1 0x0 MSTORE PUSH1 0x20 PUSH1 0x0 KECCAK256 SWAP1 JUMPDEST DUP2 SLOAD DUP2 MSTORE SWAP1 PUSH1 0x1 ADD SWAP1 PUSH1 0x20 ADD DUP1 DUP4 GT PUSH2 0x1282 JUMPI DUP3 SWAP1 SUB PUSH1 0x1F AND DUP3 ADD SWAP2 JUMPDEST POP POP POP POP POP DUP2 MSTORE PUSH1 0x20 ADD PUSH1 0x1 DUP3 ADD DUP1 SLOAD PUSH2 0x12B8 SWAP1 PUSH2 0x3211 JUMP JUMPDEST DUP1 PUSH1 0x1F ADD PUSH1 0x20 DUP1 SWAP2 DIV MUL PUSH1 0x20 ADD PUSH1 0x40 MLOAD SWAP1 DUP2 ADD PUSH1 0x40 MSTORE DUP1 SWAP3 SWAP2 SWAP1 DUP2 DUP2 MSTORE PUSH1 0x20 ADD DUP3 DUP1 SLOAD PUSH2 0x12E4 SWAP1 PUSH2 0x3211 JUMP JUMPDEST DUP1 ISZERO PUSH2 0x1331 JUMPI DUP1 PUSH1 0x1F LT PUSH2 0x1306 JUMPI PUSH2 0x100 DUP1 DUP4 SLOAD DIV MUL DUP4 MSTORE SWAP2 PUSH1 0x20 ADD SWAP2 PUSH2 0x1331 JUMP JUMPDEST DUP3 ADD SWAP2 SWAP1 PUSH1 0x0 MSTORE PUSH1 0x20 PUSH1 0x0 KECCAK256 SWAP1 JUMPDEST DUP2 SLOAD DUP2 MSTORE SWAP1 PUSH1 0x1 ADD SWAP1 PUSH1 0x20 ADD DUP1 DUP4 GT PUSH2 0x1314 JUMPI DUP3 SWAP1 SUB PUSH1 0x1F AND DUP3 ADD SWAP2 JUMPDEST POP POP POP POP POP DUP2 MSTORE PUSH1 0x20 ADD PUSH1 0x2 DUP3 ADD DUP1 SLOAD PUSH2 0x134A SWAP1 PUSH2 0x3211 JUMP JUMPDEST DUP1 PUSH1 0x1F ADD PUSH1 0x20 DUP1 SWAP2 DIV MUL PUSH1 0x20 ADD PUSH1 0x40 MLOAD SWAP1 DUP2 ADD PUSH1 0x40 MSTORE DUP1 SWAP3 SWAP2 SWAP1 DUP2 DUP2 MSTORE PUSH1 0x20 ADD DUP3 DUP1 SLOAD PUSH2 0x1376 SWAP1 PUSH2 0x3211 JUMP JUMPDEST DUP1 ISZERO PUSH2 0x13C3 JUMPI DUP1 PUSH1 0x1F LT PUSH2 0x1398 JUMPI PUSH2 0x100 DUP1 DUP4 SLOAD DIV MUL DUP4 MSTORE SWAP2 PUSH1 0x20 ADD SWAP2 PUSH2 0x13C3 JUMP JUMPDEST DUP3 ADD SWAP2 SWAP1 PUSH1 0x0 MSTORE PUSH1 0x20 PUSH1 0x0 KECCAK256 SWAP1 JUMPDEST DUP2 SLOAD DUP2 MSTORE SWAP1 PUSH1 0x1 ADD SWAP1 PUSH1 0x20 ADD DUP1 DUP4 GT PUSH2 0x13A6 JUMPI DUP3 SWAP1 SUB PUSH1 0x1F AND DUP3 ADD SWAP2 JUMPDEST POP POP POP POP POP DUP2 MSTORE PUSH1 0x20 ADD PUSH1 0x3 DUP3 ADD DUP1 SLOAD PUSH2 0x13DC SWAP1 PUSH2 0x3211 JUMP JUMPDEST DUP1 PUSH1 0x1F ADD PUSH1 0x20 DUP1 SWAP2 DIV MUL PUSH1 0x20 ADD PUSH1 0x40 MLOAD SWAP1 DUP2 ADD PUSH1 0x40 MSTORE DUP1 SWAP3 SWAP2 SWAP1 DUP2 DUP2 MSTORE PUSH1 0x20 ADD DUP3 DUP1 SLOAD PUSH2 0x1408 SWAP1 PUSH2 0x3211 JUMP JUMPDEST DUP1 ISZERO PUSH2 0x1455 JUMPI DUP1 PUSH1 0x1F LT PUSH2 0x142A JUMPI PUSH2 0x100 DUP1 DUP4 SLOAD DIV MUL DUP4 MSTORE SWAP2 PUSH1 0x20 ADD SWAP2 PUSH2 0x1455 JUMP JUMPDEST DUP3 ADD SWAP2 SWAP1 PUSH1 0x0 MSTORE PUSH1 0x20 PUSH1 0x0 KECCAK256 SWAP1 JUMPDEST DUP2 SLOAD DUP2 MSTORE SWAP1 PUSH1 0x1 ADD SWAP1 PUSH1 0x20 ADD DUP1 DUP4 GT PUSH2 0x1438 JUMPI DUP3 SWAP1 SUB PUSH1 0x1F AND DUP3 ADD SWAP2 JUMPDEST POP POP POP POP POP DUP2 MSTORE PUSH1 0x20 ADD PUSH1 0x4 DUP3 ADD DUP1 SLOAD PUSH2 0x146E SWAP1 PUSH2 0x3211 JUMP JUMPDEST DUP1 PUSH1 0x1F ADD PUSH1 0x20 DUP1 SWAP2 DIV MUL PUSH1 0x20 ADD PUSH1 0x40 MLOAD SWAP1 DUP2 ADD PUSH1 0x40 MSTORE DUP1 SWAP3 SWAP2 SWAP1 DUP2 DUP2 MSTORE PUSH1 0x20 ADD DUP3 DUP1 SLOAD PUSH2 0x149A SWAP1 PUSH2 0x3211 JUMP JUMPDEST DUP1 ISZERO PUSH2 0x14E7 JUMPI DUP1 PUSH1 0x1F LT PUSH2 0x14BC JUMPI PUSH2 0x100 DUP1 DUP4 SLOAD DIV MUL DUP4 MSTORE SWAP2 PUSH1 0x20 ADD SWAP2 PUSH2 0x14E7 JUMP JUMPDEST DUP3 ADD SWAP2 SWAP1 PUSH1 0x0 MSTORE PUSH1 0x20 PUSH1 0x0 KECCAK256 SWAP1 JUMPDEST DUP2 SLOAD DUP2 MSTORE SWAP1 PUSH1 0x1 ADD SWAP1 PUSH1 0x20 ADD DUP1 DUP4 GT PUSH2 0x14CA JUMPI DUP3 SWAP1 SUB PUSH1 0x1F AND DUP3 ADD SWAP2 JUMPDEST POP POP POP POP POP DUP2 MSTORE PUSH1 0x20 ADD PUSH1 0x5 DUP3 ADD DUP1 SLOAD PUSH2 0x1500 SWAP1 PUSH2 0x3211 JUMP JUMPDEST DUP1 PUSH1 0x1F ADD PUSH1 0x20 DUP1 SWAP2 DIV MUL PUSH1 0x20 ADD PUSH1 0x40 MLOAD SWAP1 DUP2 ADD PUSH1 0x40 MSTORE DUP1 SWAP3 SWAP2 SWAP1 DUP2 DUP2 MSTORE PUSH1 0x20 ADD DUP3 DUP1 SLOAD PUSH2 0x152C SWAP1 PUSH2 0x3211 JUMP JUMPDEST DUP1 ISZERO PUSH2 0x1579 JUMPI DUP1 PUSH1 0x1F LT PUSH2 0x154E JUMPI PUSH2 0x100 DUP1 DUP4 SLOAD DIV MUL DUP4 MSTORE SWAP2 PUSH1 0x20 ADD SWAP2 PUSH2 0x1579 JUMP JUMPDEST DUP3 ADD SWAP2 SWAP1 PUSH1 0x0 MSTORE PUSH1 0x20 PUSH1 0x0 KECCAK256 SWAP1 JUMPDEST DUP2 SLOAD DUP2 MSTORE SWAP1 PUSH1 0x1 ADD SWAP1 PUSH1 0x20 ADD DUP1 DUP4 GT PUSH2 0x155C JUMPI DUP3 SWAP1 SUB PUSH1 0x1F AND DUP3 ADD SWAP2 JUMPDEST POP POP POP POP POP DUP2 MSTORE POP POP SWAP1 DUP1 PUSH1 0xE ADD PUSH1 0x40 MLOAD DUP1 PUSH1 0x60 ADD PUSH1 0x40 MSTORE SWAP1 DUP2 PUSH1 0x0 DUP3 ADD DUP1 SLOAD DUP1 PUSH1 0x20 MUL PUSH1 0x20 ADD PUSH1 0x40 MLOAD SWAP1 DUP2 ADD PUSH1 0x40 MSTORE DUP1 SWAP3 SWAP2 SWAP1 DUP2 DUP2 MSTORE PUSH1 0x20 ADD PUSH1 0x0 SWAP1 JUMPDEST DUP3 DUP3 LT ISZERO PUSH2 0x1663 JUMPI DUP4 DUP3 SWAP1 PUSH1 0x0 MSTORE PUSH1 0x20 PUSH1 0x0 KECCAK256 ADD DUP1 SLOAD PUSH2 0x15D6 SWAP1 PUSH2 0x3211 JUMP JUMPDEST DUP1 PUSH1 0x1F ADD PUSH1 0x20 DUP1 SWAP2 DIV MUL PUSH1 0x20 ADD PUSH1 0x40 MLOAD SWAP1 DUP2 ADD PUSH1 0x40 MSTORE DUP1 SWAP3 SWAP2 SWAP1 DUP2 DUP2 MSTORE PUSH1 0x20 ADD DUP3 DUP1 SLOAD PUSH2 0x1602 SWAP1 PUSH2 0x3211 JUMP JUMPDEST DUP1 ISZERO PUSH2 0x164F JUMPI DUP1 PUSH1 0x1F LT PUSH2 0x1624 JUMPI PUSH2 0x100 DUP1 DUP4 SLOAD DIV MUL DUP4 MSTORE SWAP2 PUSH1 0x20 ADD SWAP2 PUSH2 0x164F JUMP JUMPDEST DUP3 ADD SWAP2 SWAP1 PUSH1 0x0 MSTORE PUSH1 0x20 PUSH1 0x0 KECCAK256 SWAP1 JUMPDEST DUP2 SLOAD DUP2 MSTORE SWAP1 PUSH1 0x1 ADD SWAP1 PUSH1 0x20 ADD DUP1 DUP4 GT PUSH2 0x1632 JUMPI DUP3 SWAP1 SUB PUSH1 0x1F AND DUP3 ADD SWAP2 JUMPDEST POP POP POP POP POP DUP2 MSTORE PUSH1 0x20 ADD SWAP1 PUSH1 0x1 ADD SWAP1 PUSH2 0x15B7 JUMP JUMPDEST POP POP POP POP DUP2 MSTORE PUSH1 0x20 ADD PUSH1 0x1 DUP3 ADD DUP1 SLOAD DUP1 PUSH1 0x20 MUL PUSH1 0x20 ADD PUSH1 0x40 MLOAD SWAP1 DUP2 ADD PUSH1 0x40 MSTORE DUP1 SWAP3 SWAP2 SWAP1 DUP2 DUP2 MSTORE PUSH1 0x20 ADD PUSH1 0x0 SWAP1 JUMPDEST DUP3 DUP3 LT ISZERO PUSH2 0x173C JUMPI DUP4 DUP3 SWAP1 PUSH1 0x0 MSTORE PUSH1 0x20 PUSH1 0x0 KECCAK256 ADD DUP1 SLOAD PUSH2 0x16AF SWAP1 PUSH2 0x3211 JUMP JUMPDEST DUP1 PUSH1 0x1F ADD PUSH1 0x20 DUP1 SWAP2 DIV MUL PUSH1 0x20 ADD PUSH1 0x40 MLOAD SWAP1 DUP2 ADD PUSH1 0x40 MSTORE DUP1 SWAP3 SWAP2 SWAP1 DUP2 DUP2 MSTORE PUSH1 0x20 ADD DUP3 DUP1 SLOAD PUSH2 0x16DB SWAP1 PUSH2 0x3211 JUMP JUMPDEST DUP1 ISZERO PUSH2 0x1728 JUMPI DUP1 PUSH1 0x1F LT PUSH2 0x16FD JUMPI PUSH2 0x100 DUP1 DUP4 SLOAD DIV MUL DUP4 MSTORE SWAP2 PUSH1 0x20 ADD SWAP2 PUSH2 0x1728 JUMP JUMPDEST DUP3 ADD SWAP2 SWAP1 PUSH1 0x0 MSTORE PUSH1 0x20 PUSH1 0x0 KECCAK256 SWAP1 JUMPDEST DUP2 SLOAD DUP2 MSTORE SWAP1 PUSH1 0x1 ADD SWAP1 PUSH1 0x20 ADD DUP1 DUP4 GT PUSH2 0x170B JUMPI DUP3 SWAP1 SUB PUSH1 0x1F AND DUP3 ADD SWAP2 JUMPDEST POP POP POP POP POP DUP2 MSTORE PUSH1 0x20 ADD SWAP1 PUSH1 0x1 ADD SWAP1 PUSH2 0x1690 JUMP JUMPDEST POP POP POP POP DUP2 MSTORE PUSH1 0x20 ADD PUSH1 0x2 DUP3 ADD DUP1 SLOAD DUP1 PUSH1 0x20 MUL PUSH1 0x20 ADD PUSH1 0x40 MLOAD SWAP1 DUP2 ADD PUSH1 0x40 MSTORE DUP1 SWAP3 SWAP2 SWAP1 DUP2 DUP2 MSTORE PUSH1 0x20 ADD PUSH1 0x0 SWAP1 JUMPDEST DUP3 DUP3 LT ISZERO PUSH2 0x1815 JUMPI DUP4 DUP3 SWAP1 PUSH1 0x0 MSTORE PUSH1 0x20 PUSH1 0x0 KECCAK256 ADD DUP1 SLOAD PUSH2 0x1788 SWAP1 PUSH2 0x3211 JUMP JUMPDEST DUP1 PUSH1 0x1F ADD PUSH1 0x20 DUP1 SWAP2 DIV MUL PUSH1 0x20 ADD PUSH1 0x40 MLOAD SWAP1 DUP2 ADD PUSH1 0x40 MSTORE DUP1 SWAP3 SWAP2 SWAP1 DUP2 DUP2 MSTORE PUSH1 0x20 ADD DUP3 DUP1 SLOAD PUSH2 0x17B4 SWAP1 PUSH2 0x3211 JUMP JUMPDEST DUP1 ISZERO PUSH2 0x1801 JUMPI DUP1 PUSH1 0x1F LT PUSH2 0x17D6 JUMPI PUSH2 0x100 DUP1 DUP4 SLOAD DIV MUL DUP4 MSTORE SWAP2 PUSH1 0x20 ADD SWAP2 PUSH2 0x1801 JUMP JUMPDEST DUP3 ADD SWAP2 SWAP1 PUSH1 0x0 MSTORE PUSH1 0x20 PUSH1 0x0 KECCAK256 SWAP1 JUMPDEST DUP2 SLOAD DUP2 MSTORE SWAP1 PUSH1 0x1 ADD SWAP1 PUSH1 0x20 ADD DUP1 DUP4 GT PUSH2 0x17E4 JUMPI DUP3 SWAP1 SUB PUSH1 0x1F AND DUP3 ADD SWAP2 JUMPDEST POP POP POP POP POP DUP2 MSTORE PUSH1 0x20 ADD SWAP1 PUSH1 0x1 ADD SWAP1 PUSH2 0x1769 JUMP JUMPDEST POP POP POP POP DUP2 MSTORE POP POP SWAP1 DUP1 PUSH1 0x12 ADD PUSH1 0x40 MLOAD DUP1 PUSH1 0x40 ADD PUSH1 0x40 MSTORE SWAP1 DUP2 PUSH1 0x0 DUP3 ADD DUP1 SLOAD DUP1 PUSH1 0x20 MUL PUSH1 0x20 ADD PUSH1 0x40 MLOAD SWAP1 DUP2 ADD PUSH1 0x40 MSTORE DUP1 SWAP3 SWAP2 SWAP1 DUP2 DUP2 MSTORE PUSH1 0x20 ADD PUSH1 0x0 SWAP1 JUMPDEST DUP3 DUP3 LT ISZERO PUSH2 0x18FE JUMPI DUP4 DUP3 SWAP1 PUSH1 0x0 MSTORE PUSH1 0x20 PUSH1 0x0 KECCAK256 ADD DUP1 SLOAD PUSH2 0x1871 SWAP1 PUSH2 0x3211 JUMP JUMPDEST DUP1 PUSH1 0x1F ADD PUSH1 0x20 DUP1 SWAP2 DIV MUL PUSH1 0x20 ADD PUSH1 0x40 MLOAD SWAP1 DUP2 ADD PUSH1 0x40 MSTORE DUP1 SWAP3 SWAP2 SWAP1 DUP2 DUP2 MSTORE PUSH1 0x20 ADD DUP3 DUP1 SLOAD PUSH2 0x189D SWAP1 PUSH2 0x3211 JUMP JUMPDEST DUP1 ISZERO PUSH2 0x18EA JUMPI DUP1 PUSH1 0x1F LT PUSH2 0x18BF JUMPI PUSH2 0x100 DUP1 DUP4 SLOAD DIV MUL DUP4 MSTORE SWAP2 PUSH1 0x20 ADD SWAP2 PUSH2 0x18EA JUMP JUMPDEST DUP3 ADD SWAP2 SWAP1 PUSH1 0x0 MSTORE PUSH1 0x20 PUSH1 0x0 KECCAK256 SWAP1 JUMPDEST DUP2 SLOAD DUP2 MSTORE SWAP1 PUSH1 0x1 ADD SWAP1 PUSH1 0x20 ADD DUP1 DUP4 GT PUSH2 0x18CD JUMPI DUP3 SWAP1 SUB PUSH1 0x1F AND DUP3 ADD SWAP2 JUMPDEST POP POP POP POP POP DUP2 MSTORE PUSH1 0x20 ADD SWAP1 PUSH1 0x1 ADD SWAP1 PUSH2 0x1852 JUMP JUMPDEST POP POP POP POP DUP2 MSTORE PUSH1 0x20 ADD PUSH1 0x1 DUP3 ADD DUP1 SLOAD DUP1 PUSH1 0x20 MUL PUSH1 0x20 ADD PUSH1 0x40 MLOAD SWAP1 DUP2 ADD PUSH1 0x40 MSTORE DUP1 SWAP3 SWAP2 SWAP1 DUP2 DUP2 MSTORE PUSH1 0x20 ADD PUSH1 0x0 SWAP1 JUMPDEST DUP3 DUP3 LT ISZERO PUSH2 0x19D7 JUMPI DUP4 DUP3 SWAP1 PUSH1 0x0 MSTORE PUSH1 0x20 PUSH1 0x0 KECCAK256 ADD DUP1 SLOAD PUSH2 0x194A SWAP1 PUSH2 0x3211 JUMP JUMPDEST DUP1 PUSH1 0x1F ADD PUSH1 0x20 DUP1 SWAP2 DIV MUL PUSH1 0x20 ADD PUSH1 0x40 MLOAD SWAP1 DUP2 ADD PUSH1 0x40 MSTORE DUP1 SWAP3 SWAP2 SWAP1 DUP2 DUP2 MSTORE PUSH1 0x20 ADD DUP3 DUP1 SLOAD PUSH2 0x1976 SWAP1 PUSH2 0x3211 JUMP JUMPDEST DUP1 ISZERO PUSH2 0x19C3 JUMPI DUP1 PUSH1 0x1F LT PUSH2 0x1998 JUMPI PUSH2 0x100 DUP1 DUP4 SLOAD DIV MUL DUP4 MSTORE SWAP2 PUSH1 0x20 ADD SWAP2 PUSH2 0x19C3 JUMP JUMPDEST DUP3 ADD SWAP2 SWAP1 PUSH1 0x0 MSTORE PUSH1 0x20 PUSH1 0x0 KECCAK256 SWAP1 JUMPDEST DUP2 SLOAD DUP2 MSTORE SWAP1 PUSH1 0x1 ADD SWAP1 PUSH1 0x20 ADD DUP1 DUP4 GT PUSH2 0x19A6 JUMPI DUP3 SWAP1 SUB PUSH1 0x1F AND DUP3 ADD SWAP2 JUMPDEST POP POP POP POP POP DUP2 MSTORE PUSH1 0x20 ADD SWAP1 PUSH1 0x1 ADD SWAP1 PUSH2 0x192B JUMP JUMPDEST POP POP POP POP DUP2 MSTORE POP POP SWAP1 POP DUP5 JUMP JUMPDEST PUSH1 0x0 DUP1 CALLER PUSH20 0xFFFFFFFFFFFFFFFFFFFFFFFFFFFFFFFFFFFFFFFF AND PUSH20 0xFFFFFFFFFFFFFFFFFFFFFFFFFFFFFFFFFFFFFFFF AND DUP2 MSTORE PUSH1 0x20 ADD SWAP1 DUP2 MSTORE PUSH1 0x20 ADD PUSH1 0x0 KECCAK256 PUSH1 0x14 ADD PUSH1 0x0 PUSH2 0x1A31 SWAP2 SWAP1 PUSH2 0x2429 JUMP JUMPDEST JUMP JUMPDEST PUSH2 0x1A3B PUSH2 0x244D JUMP JUMPDEST DUP6 DUP2 PUSH1 0x0 ADD DUP2 SWAP1 MSTORE POP DUP5 DUP2 PUSH1 0x20 ADD DUP2 SWAP1 MSTORE POP DUP4 DUP2 PUSH1 0x40 ADD DUP2 SWAP1 MSTORE POP DUP3 DUP2 PUSH1 0x60 ADD DUP2 SWAP1 MSTORE POP DUP2 DUP2 PUSH1 0x80 ADD DUP2 SWAP1 MSTORE POP PUSH1 0x0 DUP1 CALLER PUSH20 0xFFFFFFFFFFFFFFFFFFFFFFFFFFFFFFFFFFFFFFFF AND PUSH20 0xFFFFFFFFFFFFFFFFFFFFFFFFFFFFFFFFFFFFFFFF AND DUP2 MSTORE PUSH1 0x20 ADD SWAP1 DUP2 MSTORE PUSH1 0x20 ADD PUSH1 0x0 KECCAK256 PUSH1 0x11 ADD DUP2 SWAP1 DUP1 PUSH1 0x1 DUP2 SLOAD ADD DUP1 DUP3 SSTORE DUP1 SWAP2 POP POP PUSH1 0x1 SWAP1 SUB SWAP1 PUSH1 0x0 MSTORE PUSH1 0x20 PUSH1 0x0 KECCAK256 SWAP1 PUSH1 0x5 MUL ADD PUSH1 0x0 SWAP1 SWAP2 SWAP1 SWAP2 SWAP1 SWAP2 POP PUSH1 0x0 DUP3 ADD MLOAD DUP2 PUSH1 0x0 ADD SWAP1 DUP1 MLOAD SWAP1 PUSH1 0x20 ADD SWAP1 PUSH2 0x1AEF SWAP3 SWAP2 SWAP1 PUSH2 0x22C8 JUMP JUMPDEST POP PUSH1 0x20 DUP3 ADD MLOAD DUP2 PUSH1 0x1 ADD SWAP1 DUP1 MLOAD SWAP1 PUSH1 0x20 ADD SWAP1 PUSH2 0x1B0C SWAP3 SWAP2 SWAP1 PUSH2 0x22C8 JUMP JUMPDEST POP PUSH1 0x40 DUP3 ADD MLOAD DUP2 PUSH1 0x2 ADD SWAP1 DUP1 MLOAD SWAP1 PUSH1 0x20 ADD SWAP1 PUSH2 0x1B29 SWAP3 SWAP2 SWAP1 PUSH2 0x22C8 JUMP JUMPDEST POP PUSH1 0x60 DUP3 ADD MLOAD DUP2 PUSH1 0x3 ADD SWAP1 DUP1 MLOAD SWAP1 PUSH1 0x20 ADD SWAP1 PUSH2 0x1B46 SWAP3 SWAP2 SWAP1 PUSH2 0x22C8 JUMP JUMPDEST POP PUSH1 0x80 DUP3 ADD MLOAD DUP2 PUSH1 0x4 ADD SWAP1 DUP1 MLOAD SWAP1 PUSH1 0x20 ADD SWAP1 PUSH2 0x1B63 SWAP3 SWAP2 SWAP1 PUSH2 0x22C8 JUMP JUMPDEST POP POP POP POP POP POP POP POP POP JUMP JUMPDEST PUSH1 0x0 CALLER PUSH20 0xFFFFFFFFFFFFFFFFFFFFFFFFFFFFFFFFFFFFFFFF AND BALANCE SWAP1 POP SWAP1 JUMP JUMPDEST PUSH1 0x0 DUP1 CALLER PUSH20 0xFFFFFFFFFFFFFFFFFFFFFFFFFFFFFFFFFFFFFFFF AND PUSH20 0xFFFFFFFFFFFFFFFFFFFFFFFFFFFFFFFFFFFFFFFF AND DUP2 MSTORE PUSH1 0x20 ADD SWAP1 DUP2 MSTORE PUSH1 0x20 ADD PUSH1 0x0 KECCAK256 PUSH1 0x11 ADD PUSH1 0x0 PUSH2 0x1BDA SWAP2 SWAP1 PUSH2 0x247C JUMP JUMPDEST JUMP JUMPDEST PUSH1 0x60 DUP1 PUSH1 0x60 DUP1 PUSH1 0x60 PUSH1 0x0 DUP1 CALLER PUSH20 0xFFFFFFFFFFFFFFFFFFFFFFFFFFFFFFFFFFFFFFFF AND PUSH20 0xFFFFFFFFFFFFFFFFFFFFFFFFFFFFFFFFFFFFFFFF AND DUP2 MSTORE PUSH1 0x20 ADD SWAP1 DUP2 MSTORE PUSH1 0x20 ADD PUSH1 0x0 KECCAK256 PUSH1 0x11 ADD DUP7 DUP2 SLOAD DUP2 LT PUSH2 0x1C37 JUMPI PUSH2 0x1C36 PUSH2 0x32A3 JUMP JUMPDEST JUMPDEST SWAP1 PUSH1 0x0 MSTORE PUSH1 0x20 PUSH1 0x0 KECCAK256 SWAP1 PUSH1 0x5 MUL ADD PUSH1 0x0 ADD PUSH1 0x0 DUP1 CALLER PUSH20 0xFFFFFFFFFFFFFFFFFFFFFFFFFFFFFFFFFFFFFFFF AND PUSH20 0xFFFFFFFFFFFFFFFFFFFFFFFFFFFFFFFFFFFFFFFF AND DUP2 MSTORE PUSH1 0x20 ADD SWAP1 DUP2 MSTORE PUSH1 0x20 ADD PUSH1 0x0 KECCAK256 PUSH1 0x11 ADD DUP8 DUP2 SLOAD DUP2 LT PUSH2 0x1C9B JUMPI PUSH2 0x1C9A PUSH2 0x32A3 JUMP JUMPDEST JUMPDEST SWAP1 PUSH1 0x0 MSTORE PUSH1 0x20 PUSH1 0x0 KECCAK256 SWAP1 PUSH1 0x5 MUL ADD PUSH1 0x1 ADD PUSH1 0x0 DUP1 CALLER PUSH20 0xFFFFFFFFFFFFFFFFFFFFFFFFFFFFFFFFFFFFFFFF AND PUSH20 0xFFFFFFFFFFFFFFFFFFFFFFFFFFFFFFFFFFFFFFFF AND DUP2 MSTORE PUSH1 0x20 ADD SWAP1 DUP2 MSTORE PUSH1 0x20 ADD PUSH1 0x0 KECCAK256 PUSH1 0x11 ADD DUP9 DUP2 SLOAD DUP2 LT PUSH2 0x1CFF JUMPI PUSH2 0x1CFE PUSH2 0x32A3 JUMP JUMPDEST JUMPDEST SWAP1 PUSH1 0x0 MSTORE PUSH1 0x20 PUSH1 0x0 KECCAK256 SWAP1 PUSH1 0x5 MUL ADD PUSH1 0x2 ADD PUSH1 0x0 DUP1 CALLER PUSH20 0xFFFFFFFFFFFFFFFFFFFFFFFFFFFFFFFFFFFFFFFF AND PUSH20 0xFFFFFFFFFFFFFFFFFFFFFFFFFFFFFFFFFFFFFFFF AND DUP2 MSTORE PUSH1 0x20 ADD SWAP1 DUP2 MSTORE PUSH1 0x20 ADD PUSH1 0x0 KECCAK256 PUSH1 0x11 ADD DUP10 DUP2 SLOAD DUP2 LT PUSH2 0x1D63 JUMPI PUSH2 0x1D62 PUSH2 0x32A3 JUMP JUMPDEST JUMPDEST SWAP1 PUSH1 0x0 MSTORE PUSH1 0x20 PUSH1 0x0 KECCAK256 SWAP1 PUSH1 0x5 MUL ADD PUSH1 0x3 ADD PUSH1 0x0 DUP1 CALLER PUSH20 0xFFFFFFFFFFFFFFFFFFFFFFFFFFFFFFFFFFFFFFFF AND PUSH20 0xFFFFFFFFFFFFFFFFFFFFFFFFFFFFFFFFFFFFFFFF AND DUP2 MSTORE PUSH1 0x20 ADD SWAP1 DUP2 MSTORE PUSH1 0x20 ADD PUSH1 0x0 KECCAK256 PUSH1 0x11 ADD DUP11 DUP2 SLOAD DUP2 LT PUSH2 0x1DC7 JUMPI PUSH2 0x1DC6 PUSH2 0x32A3 JUMP JUMPDEST JUMPDEST SWAP1 PUSH1 0x0 MSTORE PUSH1 0x20 PUSH1 0x0 KECCAK256 SWAP1 PUSH1 0x5 MUL ADD PUSH1 0x4 ADD DUP5 DUP1 SLOAD PUSH2 0x1DE4 SWAP1 PUSH2 0x3211 JUMP JUMPDEST DUP1 PUSH1 0x1F ADD PUSH1 0x20 DUP1 SWAP2 DIV MUL PUSH1 0x20 ADD PUSH1 0x40 MLOAD SWAP1 DUP2 ADD PUSH1 0x40 MSTORE DUP1 SWAP3 SWAP2 SWAP1 DUP2 DUP2 MSTORE PUSH1 0x20 ADD DUP3 DUP1 SLOAD PUSH2 0x1E10 SWAP1 PUSH2 0x3211 JUMP JUMPDEST DUP1 ISZERO PUSH2 0x1E5D JUMPI DUP1 PUSH1 0x1F LT PUSH2 0x1E32 JUMPI PUSH2 0x100 DUP1 DUP4 SLOAD DIV MUL DUP4 MSTORE SWAP2 PUSH1 0x20 ADD SWAP2 PUSH2 0x1E5D JUMP JUMPDEST DUP3 ADD SWAP2 SWAP1 PUSH1 0x0 MSTORE PUSH1 0x20 PUSH1 0x0 KECCAK256 SWAP1 JUMPDEST DUP2 SLOAD DUP2 MSTORE SWAP1 PUSH1 0x1 ADD SWAP1 PUSH1 0x20 ADD DUP1 DUP4 GT PUSH2 0x1E40 JUMPI DUP3 SWAP1 SUB PUSH1 0x1F AND DUP3 ADD SWAP2 JUMPDEST POP POP POP POP POP SWAP5 POP DUP4 DUP1 SLOAD PUSH2 0x1E70 SWAP1 PUSH2 0x3211 JUMP JUMPDEST DUP1 PUSH1 0x1F ADD PUSH1 0x20 DUP1 SWAP2 DIV MUL PUSH1 0x20 ADD PUSH1 0x40 MLOAD SWAP1 DUP2 ADD PUSH1 0x40 MSTORE DUP1 SWAP3 SWAP2 SWAP1 DUP2 DUP2 MSTORE PUSH1 0x20 ADD DUP3 DUP1 SLOAD PUSH2 0x1E9C SWAP1 PUSH2 0x3211 JUMP JUMPDEST DUP1 ISZERO PUSH2 0x1EE9 JUMPI DUP1 PUSH1 0x1F LT PUSH2 0x1EBE JUMPI PUSH2 0x100 DUP1 DUP4 SLOAD DIV MUL DUP4 MSTORE SWAP2 PUSH1 0x20 ADD SWAP2 PUSH2 0x1EE9 JUMP JUMPDEST DUP3 ADD SWAP2 SWAP1 PUSH1 0x0 MSTORE PUSH1 0x20 PUSH1 0x0 KECCAK256 SWAP1 JUMPDEST DUP2 SLOAD DUP2 MSTORE SWAP1 PUSH1 0x1 ADD SWAP1 PUSH1 0x20 ADD DUP1 DUP4 GT PUSH2 0x1ECC JUMPI DUP3 SWAP1 SUB PUSH1 0x1F AND DUP3 ADD SWAP2 JUMPDEST POP POP POP POP POP SWAP4 POP DUP3 DUP1 SLOAD PUSH2 0x1EFC SWAP1 PUSH2 0x3211 JUMP JUMPDEST DUP1 PUSH1 0x1F ADD PUSH1 0x20 DUP1 SWAP2 DIV MUL PUSH1 0x20 ADD PUSH1 0x40 MLOAD SWAP1 DUP2 ADD PUSH1 0x40 MSTORE DUP1 SWAP3 SWAP2 SWAP1 DUP2 DUP2 MSTORE PUSH1 0x20 ADD DUP3 DUP1 SLOAD PUSH2 0x1F28 SWAP1 PUSH2 0x3211 JUMP JUMPDEST DUP1 ISZERO PUSH2 0x1F75 JUMPI DUP1 PUSH1 0x1F LT PUSH2 0x1F4A JUMPI PUSH2 0x100 DUP1 DUP4 SLOAD DIV MUL DUP4 MSTORE SWAP2 PUSH1 0x20 ADD SWAP2 PUSH2 0x1F75 JUMP JUMPDEST DUP3 ADD SWAP2 SWAP1 PUSH1 0x0 MSTORE PUSH1 0x20 PUSH1 0x0 KECCAK256 SWAP1 JUMPDEST DUP2 SLOAD DUP2 MSTORE SWAP1 PUSH1 0x1 ADD SWAP1 PUSH1 0x20 ADD DUP1 DUP4 GT PUSH2 0x1F58 JUMPI DUP3 SWAP1 SUB PUSH1 0x1F AND DUP3 ADD SWAP2 JUMPDEST POP POP POP POP POP SWAP3 POP DUP2 DUP1 SLOAD PUSH2 0x1F88 SWAP1 PUSH2 0x3211 JUMP JUMPDEST DUP1 PUSH1 0x1F ADD PUSH1 0x20 DUP1 SWAP2 DIV MUL PUSH1 0x20 ADD PUSH1 0x40 MLOAD SWAP1 DUP2 ADD PUSH1 0x40 MSTORE DUP1 SWAP3 SWAP2 SWAP1 DUP2 DUP2 MSTORE PUSH1 0x20 ADD DUP3 DUP1 SLOAD PUSH2 0x1FB4 SWAP1 PUSH2 0x3211 JUMP JUMPDEST DUP1 ISZERO PUSH2 0x2001 JUMPI DUP1 PUSH1 0x1F LT PUSH2 0x1FD6 JUMPI PUSH2 0x100 DUP1 DUP4 SLOAD DIV MUL DUP4 MSTORE SWAP2 PUSH1 0x20 ADD SWAP2 PUSH2 0x2001 JUMP JUMPDEST DUP3 ADD SWAP2 SWAP1 PUSH1 0x0 MSTORE PUSH1 0x20 PUSH1 0x0 KECCAK256 SWAP1 JUMPDEST DUP2 SLOAD DUP2 MSTORE SWAP1 PUSH1 0x1 ADD SWAP1 PUSH1 0x20 ADD DUP1 DUP4 GT PUSH2 0x1FE4 JUMPI DUP3 SWAP1 SUB PUSH1 0x1F AND DUP3 ADD SWAP2 JUMPDEST POP POP POP POP POP SWAP2 POP DUP1 DUP1 SLOAD PUSH2 0x2014 SWAP1 PUSH2 0x3211 JUMP JUMPDEST DUP1 PUSH1 0x1F ADD PUSH1 0x20 DUP1 SWAP2 DIV MUL PUSH1 0x20 ADD PUSH1 0x40 MLOAD SWAP1 DUP2 ADD PUSH1 0x40 MSTORE DUP1 SWAP3 SWAP2 SWAP1 DUP2 DUP2 MSTORE PUSH1 0x20 ADD DUP3 DUP1 SLOAD PUSH2 0x2040 SWAP1 PUSH2 0x3211 JUMP JUMPDEST DUP1 ISZERO PUSH2 0x208D JUMPI DUP1 PUSH1 0x1F LT PUSH2 0x2062 JUMPI PUSH2 0x100 DUP1 DUP4 SLOAD DIV MUL DUP4 MSTORE SWAP2 PUSH1 0x20 ADD SWAP2 PUSH2 0x208D JUMP JUMPDEST DUP3 ADD SWAP2 SWAP1 PUSH1 0x0 MSTORE PUSH1 0x20 PUSH1 0x0 KECCAK256 SWAP1 JUMPDEST DUP2 SLOAD DUP2 MSTORE SWAP1 PUSH1 0x1 ADD SWAP1 PUSH1 0x20 ADD DUP1 DUP4 GT PUSH2 0x2070 JUMPI DUP3 SWAP1 SUB PUSH1 0x1F AND DUP3 ADD SWAP2 JUMPDEST POP POP POP POP POP SWAP1 POP SWAP5 POP SWAP5 POP SWAP5 POP SWAP5 POP SWAP5 POP SWAP2 SWAP4 SWAP6 SWAP1 SWAP3 SWAP5 POP JUMP JUMPDEST PUSH1 0x0 DUP1 CALLER PUSH20 0xFFFFFFFFFFFFFFFFFFFFFFFFFFFFFFFFFFFFFFFF AND PUSH20 0xFFFFFFFFFFFFFFFFFFFFFFFFFFFFFFFFFFFFFFFF AND DUP2 MSTORE PUSH1 0x20 ADD SWAP1 DUP2 MSTORE PUSH1 0x20 ADD PUSH1 0x0 KECCAK256 PUSH1 0x0 DUP1 DUP3 ADD PUSH1 0x0 DUP1 DUP3 ADD PUSH1 0x0 PUSH2 0x20FB SWAP2 SWAP1 PUSH2 0x23E9 JUMP JUMPDEST PUSH1 0x1 DUP3 ADD PUSH1 0x0 PUSH2 0x210B SWAP2 SWAP1 PUSH2 0x23E9 JUMP JUMPDEST PUSH1 0x2 DUP3 ADD PUSH1 0x0 PUSH2 0x100 EXP DUP2 SLOAD SWAP1 PUSH20 0xFFFFFFFFFFFFFFFFFFFFFFFFFFFFFFFFFFFFFFFF MUL NOT AND SWAP1 SSTORE PUSH1 0x3 DUP3 ADD PUSH1 0x0 PUSH2 0x2142 SWAP2 SWAP1 PUSH2 0x23E9 JUMP JUMPDEST PUSH1 0x4 DUP3 ADD PUSH1 0x0 PUSH2 0x2152 SWAP2 SWAP1 PUSH2 0x23E9 JUMP JUMPDEST PUSH1 0x5 DUP3 ADD PUSH1 0x0 PUSH2 0x2162 SWAP2 SWAP1 PUSH2 0x23E9 JUMP JUMPDEST PUSH1 0x6 DUP3 ADD PUSH1 0x0 PUSH2 0x2172 SWAP2 SWAP1 PUSH2 0x23E9 JUMP JUMPDEST PUSH1 0x7 DUP3 ADD PUSH1 0x0 SWAP1 SSTORE POP POP PUSH1 0x8 DUP3 ADD PUSH1 0x0 DUP1 DUP3 ADD PUSH1 0x0 PUSH2 0x2191 SWAP2 SWAP1 PUSH2 0x23E9 JUMP JUMPDEST PUSH1 0x1 DUP3 ADD PUSH1 0x0 PUSH2 0x21A1 SWAP2 SWAP1 PUSH2 0x23E9 JUMP JUMPDEST PUSH1 0x2 DUP3 ADD PUSH1 0x0 PUSH2 0x21B1 SWAP2 SWAP1 PUSH2 0x23E9 JUMP JUMPDEST PUSH1 0x3 DUP3 ADD PUSH1 0x0 PUSH2 0x21C1 SWAP2 SWAP1 PUSH2 0x23E9 JUMP JUMPDEST PUSH1 0x4 DUP3 ADD PUSH1 0x0 PUSH2 0x21D1 SWAP2 SWAP1 PUSH2 0x23E9 JUMP JUMPDEST PUSH1 0x5 DUP3 ADD PUSH1 0x0 PUSH2 0x21E1 SWAP2 SWAP1 PUSH2 0x23E9 JUMP JUMPDEST POP POP PUSH1 0xE DUP3 ADD PUSH1 0x0 DUP1 DUP3 ADD PUSH1 0x0 PUSH2 0x21F8 SWAP2 SWAP1 PUSH2 0x23C8 JUMP JUMPDEST PUSH1 0x1 DUP3 ADD PUSH1 0x0 PUSH2 0x2208 SWAP2 SWAP1 PUSH2 0x23C8 JUMP JUMPDEST PUSH1 0x2 DUP3 ADD PUSH1 0x0 PUSH2 0x2218 SWAP2 SWAP1 PUSH2 0x23C8 JUMP JUMPDEST POP POP PUSH1 0x11 DUP3 ADD PUSH1 0x0 PUSH2 0x222A SWAP2 SWAP1 PUSH2 0x247C JUMP JUMPDEST PUSH1 0x12 DUP3 ADD PUSH1 0x0 DUP1 DUP3 ADD PUSH1 0x0 PUSH2 0x223F SWAP2 SWAP1 PUSH2 0x23C8 JUMP JUMPDEST PUSH1 0x1 DUP3 ADD PUSH1 0x0 PUSH2 0x224F SWAP2 SWAP1 PUSH2 0x23C8 JUMP JUMPDEST POP POP PUSH1 0x14 DUP3 ADD PUSH1 0x0 PUSH2 0x2261 SWAP2 SWAP1 PUSH2 0x2429 JUMP JUMPDEST PUSH1 0x15 DUP3 ADD PUSH1 0x0 PUSH2 0x2271 SWAP2 SWAP1 PUSH2 0x2275 JUMP JUMPDEST POP POP JUMP JUMPDEST POP DUP1 SLOAD PUSH1 0x0 DUP3 SSTORE PUSH1 0x2 MUL SWAP1 PUSH1 0x0 MSTORE PUSH1 0x20 PUSH1 0x0 KECCAK256 SWAP1 DUP2 ADD SWAP1 PUSH2 0x2296 SWAP2 SWAP1 PUSH2 0x24A0 JUMP JUMPDEST POP JUMP JUMPDEST PUSH1 0x40 MLOAD DUP1 PUSH1 0xA0 ADD PUSH1 0x40 MSTORE DUP1 PUSH1 0x60 DUP2 MSTORE PUSH1 0x20 ADD PUSH1 0x60 DUP2 MSTORE PUSH1 0x20 ADD PUSH1 0x60 DUP2 MSTORE PUSH1 0x20 ADD PUSH1 0x60 DUP2 MSTORE PUSH1 0x20 ADD PUSH1 0x60 DUP2 MSTORE POP SWAP1 JUMP JUMPDEST DUP3 DUP1 SLOAD PUSH2 0x22D4 SWAP1 PUSH2 0x3211 JUMP JUMPDEST SWAP1 PUSH1 0x0 MSTORE PUSH1 0x20 PUSH1 0x0 KECCAK256 SWAP1 PUSH1 0x1F ADD PUSH1 0x20 SWAP1 DIV DUP2 ADD SWAP3 DUP3 PUSH2 0x22F6 JUMPI PUSH1 0x0 DUP6 SSTORE PUSH2 0x233D JUMP JUMPDEST DUP3 PUSH1 0x1F LT PUSH2 0x230F JUMPI DUP1 MLOAD PUSH1 0xFF NOT AND DUP4 DUP1 ADD OR DUP6 SSTORE PUSH2 0x233D JUMP JUMPDEST DUP3 DUP1 ADD PUSH1 0x1 ADD DUP6 SSTORE DUP3 ISZERO PUSH2 0x233D JUMPI SWAP2 DUP3 ADD JUMPDEST DUP3 DUP2 GT ISZERO PUSH2 0x233C JUMPI DUP3 MLOAD DUP3 SSTORE SWAP2 PUSH1 0x20 ADD SWAP2 SWAP1 PUSH1 0x1 ADD SWAP1 PUSH2 0x2321 JUMP JUMPDEST JUMPDEST POP SWAP1 POP PUSH2 0x234A SWAP2 SWAP1 PUSH2 0x24D7 JUMP JUMPDEST POP SWAP1 JUMP JUMPDEST DUP3 DUP1 SLOAD DUP3 DUP3 SSTORE SWAP1 PUSH1 0x0 MSTORE PUSH1 0x20 PUSH1 0x0 KECCAK256 SWAP1 DUP2 ADD SWAP3 DUP3 ISZERO PUSH2 0x239D JUMPI SWAP2 PUSH1 0x20 MUL DUP3 ADD JUMPDEST DUP3 DUP2 GT ISZERO PUSH2 0x239C JUMPI DUP3 MLOAD DUP3 SWAP1 DUP1 MLOAD SWAP1 PUSH1 0x20 ADD SWAP1 PUSH2 0x238C SWAP3 SWAP2 SWAP1 PUSH2 0x22C8 JUMP JUMPDEST POP SWAP2 PUSH1 0x20 ADD SWAP2 SWAP1 PUSH1 0x1 ADD SWAP1 PUSH2 0x236E JUMP JUMPDEST JUMPDEST POP SWAP1 POP PUSH2 0x23AA SWAP2 SWAP1 PUSH2 0x24F4 JUMP JUMPDEST POP SWAP1 JUMP JUMPDEST PUSH1 0x40 MLOAD DUP1 PUSH1 0x40 ADD PUSH1 0x40 MSTORE DUP1 PUSH1 0x60 DUP2 MSTORE PUSH1 0x20 ADD PUSH1 0x60 DUP2 MSTORE POP SWAP1 JUMP JUMPDEST POP DUP1 SLOAD PUSH1 0x0 DUP3 SSTORE SWAP1 PUSH1 0x0 MSTORE PUSH1 0x20 PUSH1 0x0 KECCAK256 SWAP1 DUP2 ADD SWAP1 PUSH2 0x23E6 SWAP2 SWAP1 PUSH2 0x24F4 JUMP JUMPDEST POP JUMP JUMPDEST POP DUP1 SLOAD PUSH2 0x23F5 SWAP1 PUSH2 0x3211 JUMP JUMPDEST PUSH1 0x0 DUP3 SSTORE DUP1 PUSH1 0x1F LT PUSH2 0x2407 JUMPI POP PUSH2 0x2426 JUMP JUMPDEST PUSH1 0x1F ADD PUSH1 0x20 SWAP1 DIV SWAP1 PUSH1 0x0 MSTORE PUSH1 0x20 PUSH1 0x0 KECCAK256 SWAP1 DUP2 ADD SWAP1 PUSH2 0x2425 SWAP2 SWAP1 PUSH2 0x24D7 JUMP JUMPDEST JUMPDEST POP JUMP JUMPDEST POP DUP1 SLOAD PUSH1 0x0 DUP3 SSTORE PUSH1 0x5 MUL SWAP1 PUSH1 0x0 MSTORE PUSH1 0x20 PUSH1 0x0 KECCAK256 SWAP1 DUP2 ADD SWAP1 PUSH2 0x244A SWAP2 SWAP1 PUSH2 0x2518 JUMP JUMPDEST POP JUMP JUMPDEST PUSH1 0x40 MLOAD DUP1 PUSH1 0xA0 ADD PUSH1 0x40 MSTORE DUP1 PUSH1 0x60 DUP2 MSTORE PUSH1 0x20 ADD PUSH1 0x60 DUP2 MSTORE PUSH1 0x20 ADD PUSH1 0x60 DUP2 MSTORE PUSH1 0x20 ADD PUSH1 0x60 DUP2 MSTORE PUSH1 0x20 ADD PUSH1 0x60 DUP2 MSTORE POP SWAP1 JUMP JUMPDEST POP DUP1 SLOAD PUSH1 0x0 DUP3 SSTORE PUSH1 0x5 MUL SWAP1 PUSH1 0x0 MSTORE PUSH1 0x20 PUSH1 0x0 KECCAK256 SWAP1 DUP2 ADD SWAP1 PUSH2 0x249D SWAP2 SWAP1 PUSH2 0x257F JUMP JUMPDEST POP JUMP JUMPDEST JUMPDEST DUP1 DUP3 GT ISZERO PUSH2 0x24D3 JUMPI PUSH1 0x0 DUP1 DUP3 ADD PUSH1 0x0 PUSH2 0x24BA SWAP2 SWAP1 PUSH2 0x23E9 JUMP JUMPDEST PUSH1 0x1 DUP3 ADD PUSH1 0x0 PUSH2 0x24CA SWAP2 SWAP1 PUSH2 0x23E9 JUMP JUMPDEST POP PUSH1 0x2 ADD PUSH2 0x24A1 JUMP JUMPDEST POP SWAP1 JUMP JUMPDEST JUMPDEST DUP1 DUP3 GT ISZERO PUSH2 0x24F0 JUMPI PUSH1 0x0 DUP2 PUSH1 0x0 SWAP1 SSTORE POP PUSH1 0x1 ADD PUSH2 0x24D8 JUMP JUMPDEST POP SWAP1 JUMP JUMPDEST JUMPDEST DUP1 DUP3 GT ISZERO PUSH2 0x2514 JUMPI PUSH1 0x0 DUP2 DUP2 PUSH2 0x250B SWAP2 SWAP1 PUSH2 0x23E9 JUMP JUMPDEST POP PUSH1 0x1 ADD PUSH2 0x24F5 JUMP JUMPDEST POP SWAP1 JUMP JUMPDEST JUMPDEST DUP1 DUP3 GT ISZERO PUSH2 0x257B JUMPI PUSH1 0x0 DUP1 DUP3 ADD PUSH1 0x0 PUSH2 0x2532 SWAP2 SWAP1 PUSH2 0x23E9 JUMP JUMPDEST PUSH1 0x1 DUP3 ADD PUSH1 0x0 PUSH2 0x2542 SWAP2 SWAP1 PUSH2 0x23E9 JUMP JUMPDEST PUSH1 0x2 DUP3 ADD PUSH1 0x0 PUSH2 0x2552 SWAP2 SWAP1 PUSH2 0x23E9 JUMP JUMPDEST PUSH1 0x3 DUP3 ADD PUSH1 0x0 PUSH2 0x2562 SWAP2 SWAP1 PUSH2 0x23E9 JUMP JUMPDEST PUSH1 0x4 DUP3 ADD PUSH1 0x0 PUSH2 0x2572 SWAP2 SWAP1 PUSH2 0x23C8 JUMP JUMPDEST POP PUSH1 0x5 ADD PUSH2 0x2519 JUMP JUMPDEST POP SWAP1 JUMP JUMPDEST JUMPDEST DUP1 DUP3 GT ISZERO PUSH2 0x25E2 JUMPI PUSH1 0x0 DUP1 DUP3 ADD PUSH1 0x0 PUSH2 0x2599 SWAP2 SWAP1 PUSH2 0x23E9 JUMP JUMPDEST PUSH1 0x1 DUP3 ADD PUSH1 0x0 PUSH2 0x25A9 SWAP2 SWAP1 PUSH2 0x23E9 JUMP JUMPDEST PUSH1 0x2 DUP3 ADD PUSH1 0x0 PUSH2 0x25B9 SWAP2 SWAP1 PUSH2 0x23E9 JUMP JUMPDEST PUSH1 0x3 DUP3 ADD PUSH1 0x0 PUSH2 0x25C9 SWAP2 SWAP1 PUSH2 0x23E9 JUMP JUMPDEST PUSH1 0x4 DUP3 ADD PUSH1 0x0 PUSH2 0x25D9 SWAP2 SWAP1 PUSH2 0x23E9 JUMP JUMPDEST POP PUSH1 0x5 ADD PUSH2 0x2580 JUMP JUMPDEST POP SWAP1 JUMP JUMPDEST PUSH1 0x0 PUSH2 0x25F9 PUSH2 0x25F4 DUP5 PUSH2 0x30D0 JUMP JUMPDEST PUSH2 0x30AB JUMP JUMPDEST SWAP1 POP DUP1 DUP4 DUP3 MSTORE PUSH1 0x20 DUP3 ADD SWAP1 POP DUP3 DUP6 PUSH1 0x20 DUP7 MUL DUP3 ADD GT ISZERO PUSH2 0x261C JUMPI PUSH2 0x261B PUSH2 0x3306 JUMP JUMPDEST JUMPDEST PUSH1 0x0 JUMPDEST DUP6 DUP2 LT ISZERO PUSH2 0x266A JUMPI DUP2 CALLDATALOAD PUSH8 0xFFFFFFFFFFFFFFFF DUP2 GT ISZERO PUSH2 0x2642 JUMPI PUSH2 0x2641 PUSH2 0x3301 JUMP JUMPDEST JUMPDEST DUP1 DUP7 ADD PUSH2 0x264F DUP10 DUP3 PUSH2 0x26F9 JUMP JUMPDEST DUP6 MSTORE PUSH1 0x20 DUP6 ADD SWAP5 POP PUSH1 0x20 DUP5 ADD SWAP4 POP POP POP PUSH1 0x1 DUP2 ADD SWAP1 POP PUSH2 0x261F JUMP JUMPDEST POP POP POP SWAP4 SWAP3 POP POP POP JUMP JUMPDEST PUSH1 0x0 PUSH2 0x2687 PUSH2 0x2682 DUP5 PUSH2 0x30FC JUMP JUMPDEST PUSH2 0x30AB JUMP JUMPDEST SWAP1 POP DUP3 DUP2 MSTORE PUSH1 0x20 DUP2 ADD DUP5 DUP5 DUP5 ADD GT ISZERO PUSH2 0x26A3 JUMPI PUSH2 0x26A2 PUSH2 0x330B JUMP JUMPDEST JUMPDEST PUSH2 0x26AE DUP5 DUP3 DUP6 PUSH2 0x31CF JUMP JUMPDEST POP SWAP4 SWAP3 POP POP POP JUMP JUMPDEST PUSH1 0x0 DUP2 CALLDATALOAD SWAP1 POP PUSH2 0x26C5 DUP2 PUSH2 0x332B JUMP JUMPDEST SWAP3 SWAP2 POP POP JUMP JUMPDEST PUSH1 0x0 DUP3 PUSH1 0x1F DUP4 ADD SLT PUSH2 0x26E0 JUMPI PUSH2 0x26DF PUSH2 0x3301 JUMP JUMPDEST JUMPDEST DUP2 CALLDATALOAD PUSH2 0x26F0 DUP5 DUP3 PUSH1 0x20 DUP7 ADD PUSH2 0x25E6 JUMP JUMPDEST SWAP2 POP POP SWAP3 SWAP2 POP POP JUMP JUMPDEST PUSH1 0x0 DUP3 PUSH1 0x1F DUP4 ADD SLT PUSH2 0x270E JUMPI PUSH2 0x270D PUSH2 0x3301 JUMP JUMPDEST JUMPDEST DUP2 CALLDATALOAD PUSH2 0x271E DUP5 DUP3 PUSH1 0x20 DUP7 ADD PUSH2 0x2674 JUMP JUMPDEST SWAP2 POP POP SWAP3 SWAP2 POP POP JUMP JUMPDEST PUSH1 0x0 DUP2 CALLDATALOAD SWAP1 POP PUSH2 0x2736 DUP2 PUSH2 0x3342 JUMP JUMPDEST SWAP3 SWAP2 POP POP JUMP JUMPDEST PUSH1 0x0 PUSH1 0x20 DUP3 DUP5 SUB SLT ISZERO PUSH2 0x2752 JUMPI PUSH2 0x2751 PUSH2 0x3315 JUMP JUMPDEST JUMPDEST PUSH1 0x0 PUSH2 0x2760 DUP5 DUP3 DUP6 ADD PUSH2 0x26B6 JUMP JUMPDEST SWAP2 POP POP SWAP3 SWAP2 POP POP JUMP JUMPDEST PUSH1 0x0 DUP1 PUSH1 0x40 DUP4 DUP6 SUB SLT ISZERO PUSH2 0x2780 JUMPI PUSH2 0x277F PUSH2 0x3315 JUMP JUMPDEST JUMPDEST PUSH1 0x0 DUP4 ADD CALLDATALOAD PUSH8 0xFFFFFFFFFFFFFFFF DUP2 GT ISZERO PUSH2 0x279E JUMPI PUSH2 0x279D PUSH2 0x3310 JUMP JUMPDEST JUMPDEST PUSH2 0x27AA DUP6 DUP3 DUP7 ADD PUSH2 0x26CB JUMP JUMPDEST SWAP3 POP POP PUSH1 0x20 DUP4 ADD CALLDATALOAD PUSH8 0xFFFFFFFFFFFFFFFF DUP2 GT ISZERO PUSH2 0x27CB JUMPI PUSH2 0x27CA PUSH2 0x3310 JUMP JUMPDEST JUMPDEST PUSH2 0x27D7 DUP6 DUP3 DUP7 ADD PUSH2 0x26CB JUMP JUMPDEST SWAP2 POP POP SWAP3 POP SWAP3 SWAP1 POP JUMP JUMPDEST PUSH1 0x0 DUP1 PUSH1 0x0 PUSH1 0x60 DUP5 DUP7 SUB SLT ISZERO PUSH2 0x27FA JUMPI PUSH2 0x27F9 PUSH2 0x3315 JUMP JUMPDEST JUMPDEST PUSH1 0x0 DUP5 ADD CALLDATALOAD PUSH8 0xFFFFFFFFFFFFFFFF DUP2 GT ISZERO PUSH2 0x2818 JUMPI PUSH2 0x2817 PUSH2 0x3310 JUMP JUMPDEST JUMPDEST PUSH2 0x2824 DUP7 DUP3 DUP8 ADD PUSH2 0x26CB JUMP JUMPDEST SWAP4 POP POP PUSH1 0x20 DUP5 ADD CALLDATALOAD PUSH8 0xFFFFFFFFFFFFFFFF DUP2 GT ISZERO PUSH2 0x2845 JUMPI PUSH2 0x2844 PUSH2 0x3310 JUMP JUMPDEST JUMPDEST PUSH2 0x2851 DUP7 DUP3 DUP8 ADD PUSH2 0x26CB JUMP JUMPDEST SWAP3 POP POP PUSH1 0x40 DUP5 ADD CALLDATALOAD PUSH8 0xFFFFFFFFFFFFFFFF DUP2 GT ISZERO PUSH2 0x2872 JUMPI PUSH2 0x2871 PUSH2 0x3310 JUMP JUMPDEST JUMPDEST PUSH2 0x287E DUP7 DUP3 DUP8 ADD PUSH2 0x26CB JUMP JUMPDEST SWAP2 POP POP SWAP3 POP SWAP3 POP SWAP3 JUMP JUMPDEST PUSH1 0x0 DUP1 PUSH1 0x40 DUP4 DUP6 SUB SLT ISZERO PUSH2 0x289F JUMPI PUSH2 0x289E PUSH2 0x3315 JUMP JUMPDEST JUMPDEST PUSH1 0x0 DUP4 ADD CALLDATALOAD PUSH8 0xFFFFFFFFFFFFFFFF DUP2 GT ISZERO PUSH2 0x28BD JUMPI PUSH2 0x28BC PUSH2 0x3310 JUMP JUMPDEST JUMPDEST PUSH2 0x28C9 DUP6 DUP3 DUP7 ADD PUSH2 0x26F9 JUMP JUMPDEST SWAP3 POP POP PUSH1 0x20 DUP4 ADD CALLDATALOAD PUSH8 0xFFFFFFFFFFFFFFFF DUP2 GT ISZERO PUSH2 0x28EA JUMPI PUSH2 0x28E9 PUSH2 0x3310 JUMP JUMPDEST JUMPDEST PUSH2 0x28F6 DUP6 DUP3 DUP7 ADD PUSH2 0x26F9 JUMP JUMPDEST SWAP2 POP POP SWAP3 POP SWAP3 SWAP1 POP JUMP JUMPDEST PUSH1 0x0 DUP1 PUSH1 0x0 DUP1 PUSH1 0x0 PUSH1 0xA0 DUP7 DUP9 SUB SLT ISZERO PUSH2 0x291C JUMPI PUSH2 0x291B PUSH2 0x3315 JUMP JUMPDEST JUMPDEST PUSH1 0x0 DUP7 ADD CALLDATALOAD PUSH8 0xFFFFFFFFFFFFFFFF DUP2 GT ISZERO PUSH2 0x293A JUMPI PUSH2 0x2939 PUSH2 0x3310 JUMP JUMPDEST JUMPDEST PUSH2 0x2946 DUP9 DUP3 DUP10 ADD PUSH2 0x26F9 JUMP JUMPDEST SWAP6 POP POP PUSH1 0x20 DUP7 ADD CALLDATALOAD PUSH8 0xFFFFFFFFFFFFFFFF DUP2 GT ISZERO PUSH2 0x2967 JUMPI PUSH2 0x2966 PUSH2 0x3310 JUMP JUMPDEST JUMPDEST PUSH2 0x2973 DUP9 DUP3 DUP10 ADD PUSH2 0x26F9 JUMP JUMPDEST SWAP5 POP POP PUSH1 0x40 DUP7 ADD CALLDATALOAD PUSH8 0xFFFFFFFFFFFFFFFF DUP2 GT ISZERO PUSH2 0x2994 JUMPI PUSH2 0x2993 PUSH2 0x3310 JUMP JUMPDEST JUMPDEST PUSH2 0x29A0 DUP9 DUP3 DUP10 ADD PUSH2 0x26F9 JUMP JUMPDEST SWAP4 POP POP PUSH1 0x60 DUP7 ADD CALLDATALOAD PUSH8 0xFFFFFFFFFFFFFFFF DUP2 GT ISZERO PUSH2 0x29C1 JUMPI PUSH2 0x29C0 PUSH2 0x3310 JUMP JUMPDEST JUMPDEST PUSH2 0x29CD DUP9 DUP3 DUP10 ADD PUSH2 0x26F9 JUMP JUMPDEST SWAP3 POP POP PUSH1 0x80 DUP7 ADD CALLDATALOAD PUSH8 0xFFFFFFFFFFFFFFFF DUP2 GT ISZERO PUSH2 0x29EE JUMPI PUSH2 0x29ED PUSH2 0x3310 JUMP JUMPDEST JUMPDEST PUSH2 0x29FA DUP9 DUP3 DUP10 ADD PUSH2 0x26CB JUMP JUMPDEST SWAP2 POP POP SWAP3 SWAP6 POP SWAP3 SWAP6 SWAP1 SWAP4 POP JUMP JUMPDEST PUSH1 0x0 DUP1 PUSH1 0x0 DUP1 PUSH1 0x0 PUSH1 0xA0 DUP7 DUP9 SUB SLT ISZERO PUSH2 0x2A23 JUMPI PUSH2 0x2A22 PUSH2 0x3315 JUMP JUMPDEST JUMPDEST PUSH1 0x0 DUP7 ADD CALLDATALOAD PUSH8 0xFFFFFFFFFFFFFFFF DUP2 GT ISZERO PUSH2 0x2A41 JUMPI PUSH2 0x2A40 PUSH2 0x3310 JUMP JUMPDEST JUMPDEST PUSH2 0x2A4D DUP9 DUP3 DUP10 ADD PUSH2 0x26F9 JUMP JUMPDEST SWAP6 POP POP PUSH1 0x20 DUP7 ADD CALLDATALOAD PUSH8 0xFFFFFFFFFFFFFFFF DUP2 GT ISZERO PUSH2 0x2A6E JUMPI PUSH2 0x2A6D PUSH2 0x3310 JUMP JUMPDEST JUMPDEST PUSH2 0x2A7A DUP9 DUP3 DUP10 ADD PUSH2 0x26F9 JUMP JUMPDEST SWAP5 POP POP PUSH1 0x40 DUP7 ADD CALLDATALOAD PUSH8 0xFFFFFFFFFFFFFFFF DUP2 GT ISZERO PUSH2 0x2A9B JUMPI PUSH2 0x2A9A PUSH2 0x3310 JUMP JUMPDEST JUMPDEST PUSH2 0x2AA7 DUP9 DUP3 DUP10 ADD PUSH2 0x26F9 JUMP JUMPDEST SWAP4 POP POP PUSH1 0x60 DUP7 ADD CALLDATALOAD PUSH8 0xFFFFFFFFFFFFFFFF DUP2 GT ISZERO PUSH2 0x2AC8 JUMPI PUSH2 0x2AC7 PUSH2 0x3310 JUMP JUMPDEST JUMPDEST PUSH2 0x2AD4 DUP9 DUP3 DUP10 ADD PUSH2 0x26F9 JUMP JUMPDEST SWAP3 POP POP PUSH1 0x80 DUP7 ADD CALLDATALOAD PUSH8 0xFFFFFFFFFFFFFFFF DUP2 GT ISZERO PUSH2 0x2AF5 JUMPI PUSH2 0x2AF4 PUSH2 0x3310 JUMP JUMPDEST JUMPDEST PUSH2 0x2B01 DUP9 DUP3 DUP10 ADD PUSH2 0x26F9 JUMP JUMPDEST SWAP2 POP POP SWAP3 SWAP6 POP SWAP3 SWAP6 SWAP1 SWAP4 POP JUMP JUMPDEST PUSH1 0x0 DUP1 PUSH1 0x0 DUP1 PUSH1 0x0 DUP1 PUSH1 0xC0 DUP8 DUP10 SUB SLT ISZERO PUSH2 0x2B2B JUMPI PUSH2 0x2B2A PUSH2 0x3315 JUMP JUMPDEST JUMPDEST PUSH1 0x0 DUP8 ADD CALLDATALOAD PUSH8 0xFFFFFFFFFFFFFFFF DUP2 GT ISZERO PUSH2 0x2B49 JUMPI PUSH2 0x2B48 PUSH2 0x3310 JUMP JUMPDEST JUMPDEST PUSH2 0x2B55 DUP10 DUP3 DUP11 ADD PUSH2 0x26F9 JUMP JUMPDEST SWAP7 POP POP PUSH1 0x20 DUP8 ADD CALLDATALOAD PUSH8 0xFFFFFFFFFFFFFFFF DUP2 GT ISZERO PUSH2 0x2B76 JUMPI PUSH2 0x2B75 PUSH2 0x3310 JUMP JUMPDEST JUMPDEST PUSH2 0x2B82 DUP10 DUP3 DUP11 ADD PUSH2 0x26F9 JUMP JUMPDEST SWAP6 POP POP PUSH1 0x40 DUP8 ADD CALLDATALOAD PUSH8 0xFFFFFFFFFFFFFFFF DUP2 GT ISZERO PUSH2 0x2BA3 JUMPI PUSH2 0x2BA2 PUSH2 0x3310 JUMP JUMPDEST JUMPDEST PUSH2 0x2BAF DUP10 DUP3 DUP11 ADD PUSH2 0x26F9 JUMP JUMPDEST SWAP5 POP POP PUSH1 0x60 DUP8 ADD CALLDATALOAD PUSH8 0xFFFFFFFFFFFFFFFF DUP2 GT ISZERO PUSH2 0x2BD0 JUMPI PUSH2 0x2BCF PUSH2 0x3310 JUMP JUMPDEST JUMPDEST PUSH2 0x2BDC DUP10 DUP3 DUP11 ADD PUSH2 0x26F9 JUMP JUMPDEST SWAP4 POP POP PUSH1 0x80 DUP8 ADD CALLDATALOAD PUSH8 0xFFFFFFFFFFFFFFFF DUP2 GT ISZERO PUSH2 0x2BFD JUMPI PUSH2 0x2BFC PUSH2 0x3310 JUMP JUMPDEST JUMPDEST PUSH2 0x2C09 DUP10 DUP3 DUP11 ADD PUSH2 0x26F9 JUMP JUMPDEST SWAP3 POP POP PUSH1 0xA0 DUP8 ADD CALLDATALOAD PUSH8 0xFFFFFFFFFFFFFFFF DUP2 GT ISZERO PUSH2 0x2C2A JUMPI PUSH2 0x2C29 PUSH2 0x3310 JUMP JUMPDEST JUMPDEST PUSH2 0x2C36 DUP10 DUP3 DUP11 ADD PUSH2 0x26F9 JUMP JUMPDEST SWAP2 POP POP SWAP3 SWAP6 POP SWAP3 SWAP6 POP SWAP3 SWAP6 JUMP JUMPDEST PUSH1 0x0 PUSH1 0x20 DUP3 DUP5 SUB SLT ISZERO PUSH2 0x2C59 JUMPI PUSH2 0x2C58 PUSH2 0x3315 JUMP JUMPDEST JUMPDEST PUSH1 0x0 PUSH2 0x2C67 DUP5 DUP3 DUP6 ADD PUSH2 0x2727 JUMP JUMPDEST SWAP2 POP POP SWAP3 SWAP2 POP POP JUMP JUMPDEST PUSH1 0x0 PUSH2 0x2C7C DUP4 DUP4 PUSH2 0x2D08 JUMP JUMPDEST SWAP1 POP SWAP3 SWAP2 POP POP JUMP JUMPDEST PUSH2 0x2C8D DUP2 PUSH2 0x3193 JUMP JUMPDEST DUP3 MSTORE POP POP JUMP JUMPDEST PUSH1 0x0 PUSH2 0x2C9E DUP3 PUSH2 0x313D JUMP JUMPDEST PUSH2 0x2CA8 DUP2 DUP6 PUSH2 0x3160 JUMP JUMPDEST SWAP4 POP DUP4 PUSH1 0x20 DUP3 MUL DUP6 ADD PUSH2 0x2CBA DUP6 PUSH2 0x312D JUMP JUMPDEST DUP1 PUSH1 0x0 JUMPDEST DUP6 DUP2 LT ISZERO PUSH2 0x2CF6 JUMPI DUP5 DUP5 SUB DUP10 MSTORE DUP2 MLOAD PUSH2 0x2CD7 DUP6 DUP3 PUSH2 0x2C70 JUMP JUMPDEST SWAP5 POP PUSH2 0x2CE2 DUP4 PUSH2 0x3153 JUMP JUMPDEST SWAP3 POP PUSH1 0x20 DUP11 ADD SWAP10 POP POP PUSH1 0x1 DUP2 ADD SWAP1 POP PUSH2 0x2CBE JUMP JUMPDEST POP DUP3 SWAP8 POP DUP8 SWAP6 POP POP POP POP POP POP SWAP3 SWAP2 POP POP JUMP JUMPDEST PUSH1 0x0 PUSH2 0x2D13 DUP3 PUSH2 0x3148 JUMP JUMPDEST PUSH2 0x2D1D DUP2 DUP6 PUSH2 0x3171 JUMP JUMPDEST SWAP4 POP PUSH2 0x2D2D DUP2 DUP6 PUSH1 0x20 DUP7 ADD PUSH2 0x31DE JUMP JUMPDEST PUSH2 0x2D36 DUP2 PUSH2 0x331A JUMP JUMPDEST DUP5 ADD SWAP2 POP POP SWAP3 SWAP2 POP POP JUMP JUMPDEST PUSH1 0x0 PUSH2 0x2D4C DUP3 PUSH2 0x3148 JUMP JUMPDEST PUSH2 0x2D56 DUP2 DUP6 PUSH2 0x3182 JUMP JUMPDEST SWAP4 POP PUSH2 0x2D66 DUP2 DUP6 PUSH1 0x20 DUP7 ADD PUSH2 0x31DE JUMP JUMPDEST PUSH2 0x2D6F DUP2 PUSH2 0x331A JUMP JUMPDEST DUP5 ADD SWAP2 POP POP SWAP3 SWAP2 POP POP JUMP JUMPDEST PUSH1 0x0 PUSH1 0x40 DUP4 ADD PUSH1 0x0 DUP4 ADD MLOAD DUP5 DUP3 SUB PUSH1 0x0 DUP7 ADD MSTORE PUSH2 0x2D97 DUP3 DUP3 PUSH2 0x2C93 JUMP JUMPDEST SWAP2 POP POP PUSH1 0x20 DUP4 ADD MLOAD DUP5 DUP3 SUB PUSH1 0x20 DUP7 ADD MSTORE PUSH2 0x2DB1 DUP3 DUP3 PUSH2 0x2C93 JUMP JUMPDEST SWAP2 POP POP DUP1 SWAP2 POP POP SWAP3 SWAP2 POP POP JUMP JUMPDEST PUSH1 0x0 PUSH1 0xC0 DUP4 ADD PUSH1 0x0 DUP4 ADD MLOAD DUP5 DUP3 SUB PUSH1 0x0 DUP7 ADD MSTORE PUSH2 0x2DDB DUP3 DUP3 PUSH2 0x2D08 JUMP JUMPDEST SWAP2 POP POP PUSH1 0x20 DUP4 ADD MLOAD DUP5 DUP3 SUB PUSH1 0x20 DUP7 ADD MSTORE PUSH2 0x2DF5 DUP3 DUP3 PUSH2 0x2D08 JUMP JUMPDEST SWAP2 POP POP PUSH1 0x40 DUP4 ADD MLOAD DUP5 DUP3 SUB PUSH1 0x40 DUP7 ADD MSTORE PUSH2 0x2E0F DUP3 DUP3 PUSH2 0x2D08 JUMP JUMPDEST SWAP2 POP POP PUSH1 0x60 DUP4 ADD MLOAD DUP5 DUP3 SUB PUSH1 0x60 DUP7 ADD MSTORE PUSH2 0x2E29 DUP3 DUP3 PUSH2 0x2D08 JUMP JUMPDEST SWAP2 POP POP PUSH1 0x80 DUP4 ADD MLOAD DUP5 DUP3 SUB PUSH1 0x80 DUP7 ADD MSTORE PUSH2 0x2E43 DUP3 DUP3 PUSH2 0x2D08 JUMP JUMPDEST SWAP2 POP POP PUSH1 0xA0 DUP4 ADD MLOAD DUP5 DUP3 SUB PUSH1 0xA0 DUP7 ADD MSTORE PUSH2 0x2E5D DUP3 DUP3 PUSH2 0x2D08 JUMP JUMPDEST SWAP2 POP POP DUP1 SWAP2 POP POP SWAP3 SWAP2 POP POP JUMP JUMPDEST PUSH1 0x0 PUSH2 0x100 DUP4 ADD PUSH1 0x0 DUP4 ADD MLOAD DUP5 DUP3 SUB PUSH1 0x0 DUP7 ADD MSTORE PUSH2 0x2E88 DUP3 DUP3 PUSH2 0x2D08 JUMP JUMPDEST SWAP2 POP POP PUSH1 0x20 DUP4 ADD MLOAD DUP5 DUP3 SUB PUSH1 0x20 DUP7 ADD MSTORE PUSH2 0x2EA2 DUP3 DUP3 PUSH2 0x2D08 JUMP JUMPDEST SWAP2 POP POP PUSH1 0x40 DUP4 ADD MLOAD PUSH2 0x2EB7 PUSH1 0x40 DUP7 ADD DUP3 PUSH2 0x2C84 JUMP JUMPDEST POP PUSH1 0x60 DUP4 ADD MLOAD DUP5 DUP3 SUB PUSH1 0x60 DUP7 ADD MSTORE PUSH2 0x2ECF DUP3 DUP3 PUSH2 0x2D08 JUMP JUMPDEST SWAP2 POP POP PUSH1 0x80 DUP4 ADD MLOAD DUP5 DUP3 SUB PUSH1 0x80 DUP7 ADD MSTORE PUSH2 0x2EE9 DUP3 DUP3 PUSH2 0x2D08 JUMP JUMPDEST SWAP2 POP POP PUSH1 0xA0 DUP4 ADD MLOAD DUP5 DUP3 SUB PUSH1 0xA0 DUP7 ADD MSTORE PUSH2 0x2F03 DUP3 DUP3 PUSH2 0x2D08 JUMP JUMPDEST SWAP2 POP POP PUSH1 0xC0 DUP4 ADD MLOAD DUP5 DUP3 SUB PUSH1 0xC0 DUP7 ADD MSTORE PUSH2 0x2F1D DUP3 DUP3 PUSH2 0x2D08 JUMP JUMPDEST SWAP2 POP POP PUSH1 0xE0 DUP4 ADD MLOAD PUSH2 0x2F32 PUSH1 0xE0 DUP7 ADD DUP3 PUSH2 0x2F9B JUMP JUMPDEST POP DUP1 SWAP2 POP POP SWAP3 SWAP2 POP POP JUMP JUMPDEST PUSH1 0x0 PUSH1 0x60 DUP4 ADD PUSH1 0x0 DUP4 ADD MLOAD DUP5 DUP3 SUB PUSH1 0x0 DUP7 ADD MSTORE PUSH2 0x2F5A DUP3 DUP3 PUSH2 0x2C93 JUMP JUMPDEST SWAP2 POP POP PUSH1 0x20 DUP4 ADD MLOAD DUP5 DUP3 SUB PUSH1 0x20 DUP7 ADD MSTORE PUSH2 0x2F74 DUP3 DUP3 PUSH2 0x2C93 JUMP JUMPDEST SWAP2 POP POP PUSH1 0x40 DUP4 ADD MLOAD DUP5 DUP3 SUB PUSH1 0x40 DUP7 ADD MSTORE PUSH2 0x2F8E DUP3 DUP3 PUSH2 0x2C93 JUMP JUMPDEST SWAP2 POP POP DUP1 SWAP2 POP POP SWAP3 SWAP2 POP POP JUMP JUMPDEST PUSH2 0x2FA4 DUP2 PUSH2 0x31C5 JUMP JUMPDEST DUP3 MSTORE POP POP JUMP JUMPDEST PUSH2 0x2FB3 DUP2 PUSH2 0x31C5 JUMP JUMPDEST DUP3 MSTORE POP POP JUMP JUMPDEST PUSH1 0x0 PUSH1 0xA0 DUP3 ADD SWAP1 POP DUP2 DUP2 SUB PUSH1 0x0 DUP4 ADD MSTORE PUSH2 0x2FD3 DUP2 DUP9 PUSH2 0x2D41 JUMP JUMPDEST SWAP1 POP DUP2 DUP2 SUB PUSH1 0x20 DUP4 ADD MSTORE PUSH2 0x2FE7 DUP2 DUP8 PUSH2 0x2D41 JUMP JUMPDEST SWAP1 POP DUP2 DUP2 SUB PUSH1 0x40 DUP4 ADD MSTORE PUSH2 0x2FFB DUP2 DUP7 PUSH2 0x2D41 JUMP JUMPDEST SWAP1 POP DUP2 DUP2 SUB PUSH1 0x60 DUP4 ADD MSTORE PUSH2 0x300F DUP2 DUP6 PUSH2 0x2D41 JUMP JUMPDEST SWAP1 POP DUP2 DUP2 SUB PUSH1 0x80 DUP4 ADD MSTORE PUSH2 0x3023 DUP2 DUP5 PUSH2 0x2D41 JUMP JUMPDEST SWAP1 POP SWAP7 SWAP6 POP POP POP POP POP POP JUMP JUMPDEST PUSH1 0x0 PUSH1 0x80 DUP3 ADD SWAP1 POP DUP2 DUP2 SUB PUSH1 0x0 DUP4 ADD MSTORE PUSH2 0x3049 DUP2 DUP8 PUSH2 0x2E6A JUMP JUMPDEST SWAP1 POP DUP2 DUP2 SUB PUSH1 0x20 DUP4 ADD MSTORE PUSH2 0x305D DUP2 DUP7 PUSH2 0x2DBE JUMP JUMPDEST SWAP1 POP DUP2 DUP2 SUB PUSH1 0x40 DUP4 ADD MSTORE PUSH2 0x3071 DUP2 DUP6 PUSH2 0x2F3D JUMP JUMPDEST SWAP1 POP DUP2 DUP2 SUB PUSH1 0x60 DUP4 ADD MSTORE PUSH2 0x3085 DUP2 DUP5 PUSH2 0x2D7A JUMP JUMPDEST SWAP1 POP SWAP6 SWAP5 POP POP POP POP POP JUMP JUMPDEST PUSH1 0x0 PUSH1 0x20 DUP3 ADD SWAP1 POP PUSH2 0x30A5 PUSH1 0x0 DUP4 ADD DUP5 PUSH2 0x2FAA JUMP JUMPDEST SWAP3 SWAP2 POP POP JUMP JUMPDEST PUSH1 0x0 PUSH2 0x30B5 PUSH2 0x30C6 JUMP JUMPDEST SWAP1 POP PUSH2 0x30C1 DUP3 DUP3 PUSH2 0x3243 JUMP JUMPDEST SWAP2 SWAP1 POP JUMP JUMPDEST PUSH1 0x0 PUSH1 0x40 MLOAD SWAP1 POP SWAP1 JUMP JUMPDEST PUSH1 0x0 PUSH8 0xFFFFFFFFFFFFFFFF DUP3 GT ISZERO PUSH2 0x30EB JUMPI PUSH2 0x30EA PUSH2 0x32D2 JUMP JUMPDEST JUMPDEST PUSH1 0x20 DUP3 MUL SWAP1 POP PUSH1 0x20 DUP2 ADD SWAP1 POP SWAP2 SWAP1 POP JUMP JUMPDEST PUSH1 0x0 PUSH8 0xFFFFFFFFFFFFFFFF DUP3 GT ISZERO PUSH2 0x3117 JUMPI PUSH2 0x3116 PUSH2 0x32D2 JUMP JUMPDEST JUMPDEST PUSH2 0x3120 DUP3 PUSH2 0x331A JUMP JUMPDEST SWAP1 POP PUSH1 0x20 DUP2 ADD SWAP1 POP SWAP2 SWAP1 POP JUMP JUMPDEST PUSH1 0x0 DUP2 SWAP1 POP PUSH1 0x20 DUP3 ADD SWAP1 POP SWAP2 SWAP1 POP JUMP JUMPDEST PUSH1 0x0 DUP2 MLOAD SWAP1 POP SWAP2 SWAP1 POP JUMP JUMPDEST PUSH1 0x0 DUP2 MLOAD SWAP1 POP SWAP2 SWAP1 POP JUMP JUMPDEST PUSH1 0x0 PUSH1 0x20 DUP3 ADD SWAP1 POP SWAP2 SWAP1 POP JUMP JUMPDEST PUSH1 0x0 DUP3 DUP3 MSTORE PUSH1 0x20 DUP3 ADD SWAP1 POP SWAP3 SWAP2 POP POP JUMP JUMPDEST PUSH1 0x0 DUP3 DUP3 MSTORE PUSH1 0x20 DUP3 ADD SWAP1 POP SWAP3 SWAP2 POP POP JUMP JUMPDEST PUSH1 0x0 DUP3 DUP3 MSTORE PUSH1 0x20 DUP3 ADD SWAP1 POP SWAP3 SWAP2 POP POP JUMP JUMPDEST PUSH1 0x0 PUSH2 0x319E DUP3 PUSH2 0x31A5 JUMP JUMPDEST SWAP1 POP SWAP2 SWAP1 POP JUMP JUMPDEST PUSH1 0x0 PUSH20 0xFFFFFFFFFFFFFFFFFFFFFFFFFFFFFFFFFFFFFFFF DUP3 AND SWAP1 POP SWAP2 SWAP1 POP JUMP JUMPDEST PUSH1 0x0 DUP2 SWAP1 POP SWAP2 SWAP1 POP JUMP JUMPDEST DUP3 DUP2 DUP4 CALLDATACOPY PUSH1 0x0 DUP4 DUP4 ADD MSTORE POP POP POP JUMP JUMPDEST PUSH1 0x0 JUMPDEST DUP4 DUP2 LT ISZERO PUSH2 0x31FC JUMPI DUP1 DUP3 ADD MLOAD DUP2 DUP5 ADD MSTORE PUSH1 0x20 DUP2 ADD SWAP1 POP PUSH2 0x31E1 JUMP JUMPDEST DUP4 DUP2 GT ISZERO PUSH2 0x320B JUMPI PUSH1 0x0 DUP5 DUP5 ADD MSTORE JUMPDEST POP POP POP POP JUMP JUMPDEST PUSH1 0x0 PUSH1 0x2 DUP3 DIV SWAP1 POP PUSH1 0x1 DUP3 AND DUP1 PUSH2 0x3229 JUMPI PUSH1 0x7F DUP3 AND SWAP2 POP JUMPDEST PUSH1 0x20 DUP3 LT DUP2 EQ ISZERO PUSH2 0x323D JUMPI PUSH2 0x323C PUSH2 0x3274 JUMP JUMPDEST JUMPDEST POP SWAP2 SWAP1 POP JUMP JUMPDEST PUSH2 0x324C DUP3 PUSH2 0x331A JUMP JUMPDEST DUP2 ADD DUP2 DUP2 LT PUSH8 0xFFFFFFFFFFFFFFFF DUP3 GT OR ISZERO PUSH2 0x326B JUMPI PUSH2 0x326A PUSH2 0x32D2 JUMP JUMPDEST JUMPDEST DUP1 PUSH1 0x40 MSTORE POP POP POP JUMP JUMPDEST PUSH32 0x4E487B7100000000000000000000000000000000000000000000000000000000 PUSH1 0x0 MSTORE PUSH1 0x22 PUSH1 0x4 MSTORE PUSH1 0x24 PUSH1 0x0 REVERT JUMPDEST PUSH32 0x4E487B7100000000000000000000000000000000000000000000000000000000 PUSH1 0x0 MSTORE PUSH1 0x32 PUSH1 0x4 MSTORE PUSH1 0x24 PUSH1 0x0 REVERT JUMPDEST PUSH32 0x4E487B7100000000000000000000000000000000000000000000000000000000 PUSH1 0x0 MSTORE PUSH1 0x41 PUSH1 0x4 MSTORE PUSH1 0x24 PUSH1 0x0 REVERT JUMPDEST PUSH1 0x0 DUP1 REVERT JUMPDEST PUSH1 0x0 DUP1 REVERT JUMPDEST PUSH1 0x0 DUP1 REVERT JUMPDEST PUSH1 0x0 DUP1 REVERT JUMPDEST PUSH1 0x0 DUP1 REVERT JUMPDEST PUSH1 0x0 PUSH1 0x1F NOT PUSH1 0x1F DUP4 ADD AND SWAP1 POP SWAP2 SWAP1 POP JUMP JUMPDEST PUSH2 0x3334 DUP2 PUSH2 0x3193 JUMP JUMPDEST DUP2 EQ PUSH2 0x333F JUMPI PUSH1 0x0 DUP1 REVERT JUMPDEST POP JUMP JUMPDEST PUSH2 0x334B DUP2 PUSH2 0x31C5 JUMP JUMPDEST DUP2 EQ PUSH2 0x3356 JUMPI PUSH1 0x0 DUP1 REVERT JUMPDEST POP JUMP INVALID LOG2 PUSH5 0x6970667358 0x22 SLT KECCAK256 DUP6 PUSH10 0xBB95F4B594C95B8A5DC7 DUP7 OR REVERT PUSH20 0xE36B2D2DAA760E10554264C75C9A291C64736F6C PUSH4 0x43000807 STOP CALLER "
				},
				"gasEstimates": {
					"creation": {
						"codeDepositCost": "2639800",
						"executionCost": "2862",
						"totalCost": "2642662"
					},
					"external": {
						"createAward(string[],string[])": "infinite",
						"createCompanyExperience(string,string,string,string,string[])": "infinite",
						"createContract(string,string,string,string,string)": "infinite",
						"createEducation(string,string,string,string,string)": "infinite",
						"createFreelanceExperience(string,string)": "infinite",
						"createInformation(string,string,string,string,string,string)": "infinite",
						"createSkill(string[],string[],string[])": "infinite",
						"delAllEducation()": "infinite",
						"delCertificateAndAward()": "infinite",
						"delCompanyExperience()": "infinite",
						"delFreelanceExperience()": "infinite",
						"delInformaion()": "infinite",
						"delProfile()": "infinite",
						"getEducation(uint256)": "infinite",
						"getEducationCount()": "2585",
						"myBalance()": "2986",
						"profile(address)": "infinite"
					}
				},
				"methodIdentifiers": {
					"createAward(string[],string[])": "6c2cc774",
					"createCompanyExperience(string,string,string,string,string[])": "2a70da29",
					"createContract(string,string,string,string,string)": "72828388",
					"createEducation(string,string,string,string,string)": "c8ae20ff",
					"createFreelanceExperience(string,string)": "322a9849",
					"createInformation(string,string,string,string,string,string)": "958791ae",
					"createSkill(string[],string[],string[])": "3d984d0e",
					"delAllEducation()": "ed2217ef",
					"delCertificateAndAward()": "4ed74067",
					"delCompanyExperience()": "b240c619",
					"delFreelanceExperience()": "119d4cac",
					"delInformaion()": "95ea3757",
					"delProfile()": "fabce08f",
					"getEducation(uint256)": "f96e32f8",
					"getEducationCount()": "6212fa02",
					"myBalance()": "c9116b69",
					"profile(address)": "9dd9d0fd"
				}
			},
			"storageLayout": {
				"storage": [
					{
						"astId": 31,
						"contract": "contracts/Profile.sol:Profile",
						"label": "profile",
						"offset": 0,
						"slot": "0",
						"type": "t_mapping(t_address,t_struct(Bio)26_storage)"
					}
				],
				"types": {
					"t_address": {
						"encoding": "inplace",
						"label": "address",
						"numberOfBytes": "20"
					},
					"t_array(t_string_storage)dyn_storage": {
						"base": "t_string_storage",
						"encoding": "dynamic_array",
						"label": "string[]",
						"numberOfBytes": "32"
					},
					"t_array(t_struct(CompanyExperience)83_storage)dyn_storage": {
						"base": "t_struct(CompanyExperience)83_storage",
						"encoding": "dynamic_array",
						"label": "struct Profile.CompanyExperience[]",
						"numberOfBytes": "32"
					},
					"t_array(t_struct(Education)99_storage)dyn_storage": {
						"base": "t_struct(Education)99_storage",
						"encoding": "dynamic_array",
						"label": "struct Profile.Education[]",
						"numberOfBytes": "32"
					},
					"t_array(t_struct(FreelanceExperience)88_storage)dyn_storage": {
						"base": "t_struct(FreelanceExperience)88_storage",
						"encoding": "dynamic_array",
						"label": "struct Profile.FreelanceExperience[]",
						"numberOfBytes": "32"
					},
					"t_mapping(t_address,t_struct(Bio)26_storage)": {
						"encoding": "mapping",
						"key": "t_address",
						"label": "mapping(address => struct Profile.Bio)",
						"numberOfBytes": "32",
						"value": "t_struct(Bio)26_storage"
					},
					"t_string_storage": {
						"encoding": "bytes",
						"label": "string",
						"numberOfBytes": "32"
					},
					"t_struct(Bio)26_storage": {
						"encoding": "inplace",
						"label": "struct Profile.Bio",
						"members": [
							{
								"astId": 4,
								"contract": "contracts/Profile.sol:Profile",
								"label": "information",
								"offset": 0,
								"slot": "0",
								"type": "t_struct(Information)48_storage"
							},
							{
								"astId": 7,
								"contract": "contracts/Profile.sol:Profile",
								"label": "privateContract",
								"offset": 0,
								"slot": "8",
								"type": "t_struct(Contract)61_storage"
							},
							{
								"astId": 10,
								"contract": "contracts/Profile.sol:Profile",
								"label": "skill",
								"offset": 0,
								"slot": "14",
								"type": "t_struct(Skill)71_storage"
							},
							{
								"astId": 14,
								"contract": "contracts/Profile.sol:Profile",
								"label": "education",
								"offset": 0,
								"slot": "17",
								"type": "t_array(t_struct(Education)99_storage)dyn_storage"
							},
							{
								"astId": 17,
								"contract": "contracts/Profile.sol:Profile",
								"label": "certificateAndAward",
								"offset": 0,
								"slot": "18",
								"type": "t_struct(CertificateAndAward)106_storage"
							},
							{
								"astId": 21,
								"contract": "contracts/Profile.sol:Profile",
								"label": "companyExperience",
								"offset": 0,
								"slot": "20",
								"type": "t_array(t_struct(CompanyExperience)83_storage)dyn_storage"
							},
							{
								"astId": 25,
								"contract": "contracts/Profile.sol:Profile",
								"label": "freelanceExperience",
								"offset": 0,
								"slot": "21",
								"type": "t_array(t_struct(FreelanceExperience)88_storage)dyn_storage"
							}
						],
						"numberOfBytes": "704"
					},
					"t_struct(CertificateAndAward)106_storage": {
						"encoding": "inplace",
						"label": "struct Profile.CertificateAndAward",
						"members": [
							{
								"astId": 102,
								"contract": "contracts/Profile.sol:Profile",
								"label": "certificate",
								"offset": 0,
								"slot": "0",
								"type": "t_array(t_string_storage)dyn_storage"
							},
							{
								"astId": 105,
								"contract": "contracts/Profile.sol:Profile",
								"label": "award",
								"offset": 0,
								"slot": "1",
								"type": "t_array(t_string_storage)dyn_storage"
							}
						],
						"numberOfBytes": "64"
					},
					"t_struct(CompanyExperience)83_storage": {
						"encoding": "inplace",
						"label": "struct Profile.CompanyExperience",
						"members": [
							{
								"astId": 73,
								"contract": "contracts/Profile.sol:Profile",
								"label": "companyName",
								"offset": 0,
								"slot": "0",
								"type": "t_string_storage"
							},
							{
								"astId": 75,
								"contract": "contracts/Profile.sol:Profile",
								"label": "position",
								"offset": 0,
								"slot": "1",
								"type": "t_string_storage"
							},
							{
								"astId": 77,
								"contract": "contracts/Profile.sol:Profile",
								"label": "startDate",
								"offset": 0,
								"slot": "2",
								"type": "t_string_storage"
							},
							{
								"astId": 79,
								"contract": "contracts/Profile.sol:Profile",
								"label": "endDate",
								"offset": 0,
								"slot": "3",
								"type": "t_string_storage"
							},
							{
								"astId": 82,
								"contract": "contracts/Profile.sol:Profile",
								"label": "project",
								"offset": 0,
								"slot": "4",
								"type": "t_array(t_string_storage)dyn_storage"
							}
						],
						"numberOfBytes": "160"
					},
					"t_struct(Contract)61_storage": {
						"encoding": "inplace",
						"label": "struct Profile.Contract",
						"members": [
							{
								"astId": 50,
								"contract": "contracts/Profile.sol:Profile",
								"label": "aboutMe",
								"offset": 0,
								"slot": "0",
								"type": "t_string_storage"
							},
							{
								"astId": 52,
								"contract": "contracts/Profile.sol:Profile",
								"label": "email",
								"offset": 0,
								"slot": "1",
								"type": "t_string_storage"
							},
							{
								"astId": 54,
								"contract": "contracts/Profile.sol:Profile",
								"label": "phone",
								"offset": 0,
								"slot": "2",
								"type": "t_string_storage"
							},
							{
								"astId": 56,
								"contract": "contracts/Profile.sol:Profile",
								"label": "github",
								"offset": 0,
								"slot": "3",
								"type": "t_string_storage"
							},
							{
								"astId": 58,
								"contract": "contracts/Profile.sol:Profile",
								"label": "gitlab",
								"offset": 0,
								"slot": "4",
								"type": "t_string_storage"
							},
							{
								"astId": 60,
								"contract": "contracts/Profile.sol:Profile",
								"label": "linkedin",
								"offset": 0,
								"slot": "5",
								"type": "t_string_storage"
							}
						],
						"numberOfBytes": "192"
					},
					"t_struct(Education)99_storage": {
						"encoding": "inplace",
						"label": "struct Profile.Education",
						"members": [
							{
								"astId": 90,
								"contract": "contracts/Profile.sol:Profile",
								"label": "startDate",
								"offset": 0,
								"slot": "0",
								"type": "t_string_storage"
							},
							{
								"astId": 92,
								"contract": "contracts/Profile.sol:Profile",
								"label": "endDate",
								"offset": 0,
								"slot": "1",
								"type": "t_string_storage"
							},
							{
								"astId": 94,
								"contract": "contracts/Profile.sol:Profile",
								"label": "university",
								"offset": 0,
								"slot": "2",
								"type": "t_string_storage"
							},
							{
								"astId": 96,
								"contract": "contracts/Profile.sol:Profile",
								"label": "major",
								"offset": 0,
								"slot": "3",
								"type": "t_string_storage"
							},
							{
								"astId": 98,
								"contract": "contracts/Profile.sol:Profile",
								"label": "finalProject",
								"offset": 0,
								"slot": "4",
								"type": "t_string_storage"
							}
						],
						"numberOfBytes": "160"
					},
					"t_struct(FreelanceExperience)88_storage": {
						"encoding": "inplace",
						"label": "struct Profile.FreelanceExperience",
						"members": [
							{
								"astId": 85,
								"contract": "contracts/Profile.sol:Profile",
								"label": "projectName",
								"offset": 0,
								"slot": "0",
								"type": "t_string_storage"
							},
							{
								"astId": 87,
								"contract": "contracts/Profile.sol:Profile",
								"label": "Detail",
								"offset": 0,
								"slot": "1",
								"type": "t_string_storage"
							}
						],
						"numberOfBytes": "64"
					},
					"t_struct(Information)48_storage": {
						"encoding": "inplace",
						"label": "struct Profile.Information",
						"members": [
							{
								"astId": 33,
								"contract": "contracts/Profile.sol:Profile",
								"label": "aboutMe",
								"offset": 0,
								"slot": "0",
								"type": "t_string_storage"
							},
							{
								"astId": 35,
								"contract": "contracts/Profile.sol:Profile",
								"label": "position",
								"offset": 0,
								"slot": "1",
								"type": "t_string_storage"
							},
							{
								"astId": 37,
								"contract": "contracts/Profile.sol:Profile",
								"label": "userAddress",
								"offset": 0,
								"slot": "2",
								"type": "t_address"
							},
							{
								"astId": 39,
								"contract": "contracts/Profile.sol:Profile",
								"label": "firstName",
								"offset": 0,
								"slot": "3",
								"type": "t_string_storage"
							},
							{
								"astId": 41,
								"contract": "contracts/Profile.sol:Profile",
								"label": "middleName",
								"offset": 0,
								"slot": "4",
								"type": "t_string_storage"
							},
							{
								"astId": 43,
								"contract": "contracts/Profile.sol:Profile",
								"label": "lastName",
								"offset": 0,
								"slot": "5",
								"type": "t_string_storage"
							},
							{
								"astId": 45,
								"contract": "contracts/Profile.sol:Profile",
								"label": "profileImage",
								"offset": 0,
								"slot": "6",
								"type": "t_string_storage"
							},
							{
								"astId": 47,
								"contract": "contracts/Profile.sol:Profile",
								"label": "createDate",
								"offset": 0,
								"slot": "7",
								"type": "t_uint256"
							}
						],
						"numberOfBytes": "256"
					},
					"t_struct(Skill)71_storage": {
						"encoding": "inplace",
						"label": "struct Profile.Skill",
						"members": [
							{
								"astId": 64,
								"contract": "contracts/Profile.sol:Profile",
								"label": "programmingLanguages",
								"offset": 0,
								"slot": "0",
								"type": "t_array(t_string_storage)dyn_storage"
							},
							{
								"astId": 67,
								"contract": "contracts/Profile.sol:Profile",
								"label": "framework",
								"offset": 0,
								"slot": "1",
								"type": "t_array(t_string_storage)dyn_storage"
							},
							{
								"astId": 70,
								"contract": "contracts/Profile.sol:Profile",
								"label": "databaseAndOther",
								"offset": 0,
								"slot": "2",
								"type": "t_array(t_string_storage)dyn_storage"
							}
						],
						"numberOfBytes": "96"
					},
					"t_uint256": {
						"encoding": "inplace",
						"label": "uint256",
						"numberOfBytes": "32"
					}
				}
			},
			"userdoc": {
				"kind": "user",
				"methods": {},
				"version": 1
			}
		}
	}
}