{
	"contracts/Profile.sol": {
		"Profile": {
			"abi": [
				{
					"inputs": [
						{
							"internalType": "string[]",
							"name": "award",
							"type": "string[]"
						},
						{
							"internalType": "string[]",
							"name": "certificate",
							"type": "string[]"
						}
					],
					"name": "createAward",
					"outputs": [],
					"stateMutability": "nonpayable",
					"type": "function"
				},
				{
					"inputs": [
						{
							"internalType": "string",
							"name": "companyName",
							"type": "string"
						},
						{
							"internalType": "string",
							"name": "position",
							"type": "string"
						},
						{
							"internalType": "string",
							"name": "startDate",
							"type": "string"
						},
						{
							"internalType": "string",
							"name": "endDate",
							"type": "string"
						},
						{
							"internalType": "string[]",
							"name": "project",
							"type": "string[]"
						}
					],
					"name": "createCompanyExperience",
					"outputs": [],
					"stateMutability": "nonpayable",
					"type": "function"
				},
				{
					"inputs": [
						{
							"internalType": "string",
							"name": "email",
							"type": "string"
						},
						{
							"internalType": "string",
							"name": "phone",
							"type": "string"
						},
						{
							"internalType": "string",
							"name": "github",
							"type": "string"
						},
						{
							"internalType": "string",
							"name": "gitlab",
							"type": "string"
						},
						{
							"internalType": "string",
							"name": "linkin",
							"type": "string"
						}
					],
					"name": "createContract",
					"outputs": [],
					"stateMutability": "nonpayable",
					"type": "function"
				},
				{
					"inputs": [
						{
							"internalType": "string",
							"name": "projectName",
							"type": "string"
						},
						{
							"internalType": "string",
							"name": "Detail",
							"type": "string"
						}
					],
					"name": "createFreelanceExperience",
					"outputs": [],
					"stateMutability": "nonpayable",
					"type": "function"
				},
				{
					"inputs": [
						{
							"internalType": "string",
							"name": "firstName",
							"type": "string"
						},
						{
							"internalType": "string",
							"name": "middleName",
							"type": "string"
						},
						{
							"internalType": "string",
							"name": "lastName",
							"type": "string"
						},
						{
							"internalType": "string",
							"name": "profileImage",
							"type": "string"
						},
						{
							"internalType": "string",
							"name": "aboutMe",
							"type": "string"
						},
						{
							"internalType": "string",
							"name": "position",
							"type": "string"
						}
					],
					"name": "createInformation",
					"outputs": [],
					"stateMutability": "nonpayable",
					"type": "function"
				},
				{
					"inputs": [
						{
							"internalType": "string[]",
							"name": "programmingLanguages",
							"type": "string[]"
						},
						{
							"internalType": "string[]",
							"name": "framework",
							"type": "string[]"
						},
						{
							"internalType": "string[]",
							"name": "databaseAndOther",
							"type": "string[]"
						}
					],
					"name": "createSkill",
					"outputs": [],
					"stateMutability": "nonpayable",
					"type": "function"
				},
				{
					"inputs": [
						{
							"internalType": "string",
							"name": "startDate",
							"type": "string"
						},
						{
							"internalType": "string",
							"name": "endDate",
							"type": "string"
						},
						{
							"internalType": "string",
							"name": "univercity",
							"type": "string"
						},
						{
							"internalType": "string",
							"name": "major",
							"type": "string"
						},
						{
							"internalType": "string",
							"name": "finalProject",
							"type": "string"
						}
					],
					"name": "createUnivercity",
					"outputs": [],
					"stateMutability": "nonpayable",
					"type": "function"
				},
				{
					"inputs": [],
					"name": "delAllEducation",
					"outputs": [],
					"stateMutability": "nonpayable",
					"type": "function"
				},
				{
					"inputs": [],
					"name": "delCertificateAndAward",
					"outputs": [],
					"stateMutability": "nonpayable",
					"type": "function"
				},
				{
					"inputs": [],
					"name": "delCompanyExperience",
					"outputs": [],
					"stateMutability": "nonpayable",
					"type": "function"
				},
				{
					"inputs": [],
					"name": "delFreelanceExperience",
					"outputs": [],
					"stateMutability": "nonpayable",
					"type": "function"
				},
				{
					"inputs": [],
					"name": "delInformaion",
					"outputs": [],
					"stateMutability": "nonpayable",
					"type": "function"
				},
				{
					"inputs": [],
					"name": "delProfile",
					"outputs": [],
					"stateMutability": "nonpayable",
					"type": "function"
				},
				{
					"inputs": [
						{
							"internalType": "uint256",
							"name": "index",
							"type": "uint256"
						}
					],
					"name": "getEducation",
					"outputs": [
						{
							"internalType": "string",
							"name": "",
							"type": "string"
						},
						{
							"internalType": "string",
							"name": "",
							"type": "string"
						},
						{
							"internalType": "string",
							"name": "",
							"type": "string"
						},
						{
							"internalType": "string",
							"name": "",
							"type": "string"
						},
						{
							"internalType": "string",
							"name": "",
							"type": "string"
						}
					],
					"stateMutability": "view",
					"type": "function"
				},
				{
					"inputs": [],
					"name": "getEducationCount",
					"outputs": [
						{
							"internalType": "uint256",
							"name": "",
							"type": "uint256"
						}
					],
					"stateMutability": "view",
					"type": "function"
				},
				{
					"inputs": [],
					"name": "myBalance",
					"outputs": [
						{
							"internalType": "uint256",
							"name": "",
							"type": "uint256"
						}
					],
					"stateMutability": "view",
					"type": "function"
				},
				{
					"inputs": [
						{
							"internalType": "address",
							"name": "",
							"type": "address"
						}
					],
					"name": "profile",
					"outputs": [
						{
							"components": [
								{
									"internalType": "string",
									"name": "aboutMe",
									"type": "string"
								},
								{
									"internalType": "string",
									"name": "position",
									"type": "string"
								},
								{
									"internalType": "address",
									"name": "userAddress",
									"type": "address"
								},
								{
									"internalType": "string",
									"name": "firstName",
									"type": "string"
								},
								{
									"internalType": "string",
									"name": "middleName",
									"type": "string"
								},
								{
									"internalType": "string",
									"name": "lastName",
									"type": "string"
								},
								{
									"internalType": "string",
									"name": "profileImage",
									"type": "string"
								},
								{
									"internalType": "uint256",
									"name": "createDate",
									"type": "uint256"
								}
							],
							"internalType": "struct Profile.Information",
							"name": "information",
							"type": "tuple"
						},
						{
							"components": [
								{
									"internalType": "string",
									"name": "aboutMe",
									"type": "string"
								},
								{
									"internalType": "string",
									"name": "email",
									"type": "string"
								},
								{
									"internalType": "string",
									"name": "phone",
									"type": "string"
								},
								{
									"internalType": "string",
									"name": "github",
									"type": "string"
								},
								{
									"internalType": "string",
									"name": "gitlab",
									"type": "string"
								},
								{
									"internalType": "string",
									"name": "linkin",
									"type": "string"
								}
							],
							"internalType": "struct Profile.Contract",
							"name": "privateContract",
							"type": "tuple"
						},
						{
							"components": [
								{
									"internalType": "string[]",
									"name": "programmingLanguages",
									"type": "string[]"
								},
								{
									"internalType": "string[]",
									"name": "framework",
									"type": "string[]"
								},
								{
									"internalType": "string[]",
									"name": "databaseAndOther",
									"type": "string[]"
								}
							],
							"internalType": "struct Profile.Skill",
							"name": "skill",
							"type": "tuple"
						},
						{
							"components": [
								{
									"internalType": "string[]",
									"name": "certificate",
									"type": "string[]"
								},
								{
									"internalType": "string[]",
									"name": "award",
									"type": "string[]"
								}
							],
							"internalType": "struct Profile.CertificateAndAward",
							"name": "certificateAndAward",
							"type": "tuple"
						},
						{
							"components": [
								{
									"internalType": "string",
									"name": "companyName",
									"type": "string"
								},
								{
									"internalType": "string",
									"name": "position",
									"type": "string"
								},
								{
									"internalType": "string",
									"name": "startDate",
									"type": "string"
								},
								{
									"internalType": "string",
									"name": "endDate",
									"type": "string"
								},
								{
									"internalType": "string[]",
									"name": "project",
									"type": "string[]"
								}
							],
							"internalType": "struct Profile.CompanyExperience",
							"name": "companyExperience",
							"type": "tuple"
						},
						{
							"components": [
								{
									"internalType": "string",
									"name": "projectName",
									"type": "string"
								},
								{
									"internalType": "string",
									"name": "Detail",
									"type": "string"
								}
							],
							"internalType": "struct Profile.FreelanceExperience",
							"name": "freelanceExperience",
							"type": "tuple"
						}
					],
					"stateMutability": "view",
					"type": "function"
				}
			],
			"devdoc": {
				"kind": "dev",
				"methods": {},
				"version": 1
			},
			"evm": {
				"assembly": "    /* \"contracts/Profile.sol\":60:6162  contract Profile {\r... */\n  mstore(0x40, 0x80)\n  callvalue\n  dup1\n  iszero\n  tag_1\n  jumpi\n  0x00\n  dup1\n  revert\ntag_1:\n  pop\n  dataSize(sub_0)\n  dup1\n  dataOffset(sub_0)\n  0x00\n  codecopy\n  0x00\n  return\nstop\n\nsub_0: assembly {\n        /* \"contracts/Profile.sol\":60:6162  contract Profile {\r... */\n      mstore(0x40, 0x80)\n      callvalue\n      dup1\n      iszero\n      tag_1\n      jumpi\n      0x00\n      dup1\n      revert\n    tag_1:\n      pop\n      jumpi(tag_2, lt(calldatasize, 0x04))\n      shr(0xe0, calldataload(0x00))\n      dup1\n      0x72828388\n      gt\n      tag_20\n      jumpi\n      dup1\n      0xb240c619\n      gt\n      tag_21\n      jumpi\n      dup1\n      0xb240c619\n      eq\n      tag_15\n      jumpi\n      dup1\n      0xc9116b69\n      eq\n      tag_16\n      jumpi\n      dup1\n      0xed2217ef\n      eq\n      tag_17\n      jumpi\n      dup1\n      0xf96e32f8\n      eq\n      tag_18\n      jumpi\n      dup1\n      0xfabce08f\n      eq\n      tag_19\n      jumpi\n      jump(tag_2)\n    tag_21:\n      dup1\n      0x72828388\n      eq\n      tag_11\n      jumpi\n      dup1\n      0x958791ae\n      eq\n      tag_12\n      jumpi\n      dup1\n      0x95ea3757\n      eq\n      tag_13\n      jumpi\n      dup1\n      0x9dd9d0fd\n      eq\n      tag_14\n      jumpi\n      jump(tag_2)\n    tag_20:\n      dup1\n      0x4ed74067\n      gt\n      tag_22\n      jumpi\n      dup1\n      0x4ed74067\n      eq\n      tag_7\n      jumpi\n      dup1\n      0x6212fa02\n      eq\n      tag_8\n      jumpi\n      dup1\n      0x66244dfb\n      eq\n      tag_9\n      jumpi\n      dup1\n      0x6c2cc774\n      eq\n      tag_10\n      jumpi\n      jump(tag_2)\n    tag_22:\n      dup1\n      0x119d4cac\n      eq\n      tag_3\n      jumpi\n      dup1\n      0x2a70da29\n      eq\n      tag_4\n      jumpi\n      dup1\n      0x322a9849\n      eq\n      tag_5\n      jumpi\n      dup1\n      0x3d984d0e\n      eq\n      tag_6\n      jumpi\n    tag_2:\n      0x00\n      dup1\n      revert\n        /* \"contracts/Profile.sol\":5937:6045  function delFreelanceExperience() external {\r... */\n    tag_3:\n      tag_23\n      tag_24\n      jump\t// in\n    tag_23:\n      stop\n        /* \"contracts/Profile.sol\":5011:5527  function createCompanyExperience(string memory companyName, string memory position, string memory startDate, string memory endDate, string[] memory project) public {\r... */\n    tag_4:\n      tag_25\n      0x04\n      dup1\n      calldatasize\n      sub\n      dup2\n      add\n      swap1\n      tag_26\n      swap2\n      swap1\n      tag_27\n      jump\t// in\n    tag_26:\n      tag_28\n      jump\t// in\n    tag_25:\n      stop\n        /* \"contracts/Profile.sol\":4762:5003  function createFreelanceExperience(string memory projectName, string memory Detail) public {\r... */\n    tag_5:\n      tag_29\n      0x04\n      dup1\n      calldatasize\n      sub\n      dup2\n      add\n      swap1\n      tag_30\n      swap2\n      swap1\n      tag_31\n      jump\t// in\n    tag_30:\n      tag_32\n      jump\t// in\n    tag_29:\n      stop\n        /* \"contracts/Profile.sol\":3065:3453  function createSkill(string[] memory programmingLanguages, string[] memory framework, string[] memory databaseAndOther) public {\r... */\n    tag_6:\n      tag_33\n      0x04\n      dup1\n      calldatasize\n      sub\n      dup2\n      add\n      swap1\n      tag_34\n      swap2\n      swap1\n      tag_35\n      jump\t// in\n    tag_34:\n      tag_36\n      jump\t// in\n    tag_33:\n      stop\n        /* \"contracts/Profile.sol\":5821:5929  function delCertificateAndAward() external {\r... */\n    tag_7:\n      tag_37\n      tag_38\n      jump\t// in\n    tag_37:\n      stop\n        /* \"contracts/Profile.sol\":4400:4518  function getEducationCount() public view returns (uint) {\r... */\n    tag_8:\n      tag_39\n      tag_40\n      jump\t// in\n    tag_39:\n      mload(0x40)\n      tag_41\n      swap2\n      swap1\n      tag_42\n      jump\t// in\n    tag_41:\n      mload(0x40)\n      dup1\n      swap2\n      sub\n      swap1\n      return\n        /* \"contracts/Profile.sol\":3520:3990  function createUnivercity(string memory startDate, string memory endDate, string memory univercity, string memory major, string memory finalProject) public {\r... */\n    tag_9:\n      tag_43\n      0x04\n      dup1\n      calldatasize\n      sub\n      dup2\n      add\n      swap1\n      tag_44\n      swap2\n      swap1\n      tag_45\n      jump\t// in\n    tag_44:\n      tag_46\n      jump\t// in\n    tag_43:\n      stop\n        /* \"contracts/Profile.sol\":4526:4754  function createAward(string[] memory award, string[] memory certificate) public {\r... */\n    tag_10:\n      tag_47\n      0x04\n      dup1\n      calldatasize\n      sub\n      dup2\n      add\n      swap1\n      tag_48\n      swap2\n      swap1\n      tag_49\n      jump\t// in\n    tag_48:\n      tag_50\n      jump\t// in\n    tag_47:\n      stop\n        /* \"contracts/Profile.sol\":2474:2978  function createContract(string memory email, string memory phone, string memory github, string memory gitlab, string memory linkin) public {\r... */\n    tag_11:\n      tag_51\n      0x04\n      dup1\n      calldatasize\n      sub\n      dup2\n      add\n      swap1\n      tag_52\n      swap2\n      swap1\n      tag_45\n      jump\t// in\n    tag_52:\n      tag_53\n      jump\t// in\n    tag_51:\n      stop\n        /* \"contracts/Profile.sol\":1703:2419  function createInformation(string memory firstName, string memory middleName, string memory lastName,  string memory profileImage, string memory aboutMe, string memory position) public {\r... */\n    tag_12:\n      tag_54\n      0x04\n      dup1\n      calldatasize\n      sub\n      dup2\n      add\n      swap1\n      tag_55\n      swap2\n      swap1\n      tag_56\n      jump\t// in\n    tag_55:\n      tag_57\n      jump\t// in\n    tag_54:\n      stop\n        /* \"contracts/Profile.sol\":5637:5729  function delInformaion() external  {\r... */\n    tag_13:\n      tag_58\n      tag_59\n      jump\t// in\n    tag_58:\n      stop\n        /* \"contracts/Profile.sol\":380:420  mapping (address => Bio) public  profile */\n    tag_14:\n      tag_60\n      0x04\n      dup1\n      calldatasize\n      sub\n      dup2\n      add\n      swap1\n      tag_61\n      swap2\n      swap1\n      tag_62\n      jump\t// in\n    tag_61:\n      tag_63\n      jump\t// in\n    tag_60:\n      mload(0x40)\n      tag_64\n      swap7\n      swap6\n      swap5\n      swap4\n      swap3\n      swap2\n      swap1\n      tag_65\n      jump\t// in\n    tag_64:\n      mload(0x40)\n      dup1\n      swap2\n      sub\n      swap1\n      return\n        /* \"contracts/Profile.sol\":6053:6157  function delCompanyExperience() external {\r... */\n    tag_15:\n      tag_66\n      tag_67\n      jump\t// in\n    tag_66:\n      stop\n        /* \"contracts/Profile.sol\":1530:1634  function myBalance() public view returns(uint256){\r... */\n    tag_16:\n      tag_68\n      tag_69\n      jump\t// in\n    tag_68:\n      mload(0x40)\n      tag_70\n      swap2\n      swap1\n      tag_42\n      jump\t// in\n    tag_70:\n      mload(0x40)\n      dup1\n      swap2\n      sub\n      swap1\n      return\n        /* \"contracts/Profile.sol\":5537:5629  function delAllEducation() external  {\r... */\n    tag_17:\n      tag_71\n      tag_72\n      jump\t// in\n    tag_71:\n      stop\n        /* \"contracts/Profile.sol\":3999:4392  function getEducation(uint index) public view returns(string memory, string memory, string memory, string memory, string memory) {\r... */\n    tag_18:\n      tag_73\n      0x04\n      dup1\n      calldatasize\n      sub\n      dup2\n      add\n      swap1\n      tag_74\n      swap2\n      swap1\n      tag_75\n      jump\t// in\n    tag_74:\n      tag_76\n      jump\t// in\n    tag_73:\n      mload(0x40)\n      tag_77\n      swap6\n      swap5\n      swap4\n      swap3\n      swap2\n      swap1\n      tag_78\n      jump\t// in\n    tag_77:\n      mload(0x40)\n      dup1\n      swap2\n      sub\n      swap1\n      return\n        /* \"contracts/Profile.sol\":5737:5813  function delProfile() external {\r... */\n    tag_19:\n      tag_79\n      tag_80\n      jump\t// in\n    tag_79:\n      stop\n        /* \"contracts/Profile.sol\":5937:6045  function delFreelanceExperience() external {\r... */\n    tag_24:\n        /* \"contracts/Profile.sol\":5998:6005  profile */\n      0x00\n        /* \"contracts/Profile.sol\":5998:6017  profile[msg.sender] */\n      dup1\n        /* \"contracts/Profile.sol\":6006:6016  msg.sender */\n      caller\n        /* \"contracts/Profile.sol\":5998:6017  profile[msg.sender] */\n      0xffffffffffffffffffffffffffffffffffffffff\n      and\n      0xffffffffffffffffffffffffffffffffffffffff\n      and\n      dup2\n      mstore\n      0x20\n      add\n      swap1\n      dup2\n      mstore\n      0x20\n      add\n      0x00\n      keccak256\n        /* \"contracts/Profile.sol\":5998:6037  profile[msg.sender].freelanceExperience */\n      0x19\n      add\n      0x00\n        /* \"contracts/Profile.sol\":5991:6037  delete profile[msg.sender].freelanceExperience */\n      dup1\n      dup3\n      add\n      0x00\n      tag_82\n      swap2\n      swap1\n      tag_83\n      jump\t// in\n    tag_82:\n      0x01\n      dup3\n      add\n      0x00\n      tag_84\n      swap2\n      swap1\n      tag_83\n      jump\t// in\n    tag_84:\n      pop\n      pop\n        /* \"contracts/Profile.sol\":5937:6045  function delFreelanceExperience() external {\r... */\n      jump\t// out\n        /* \"contracts/Profile.sol\":5011:5527  function createCompanyExperience(string memory companyName, string memory position, string memory startDate, string memory endDate, string[] memory project) public {\r... */\n    tag_28:\n        /* \"contracts/Profile.sol\":5238:5249  companyName */\n      dup5\n        /* \"contracts/Profile.sol\":5186:5193  profile */\n      0x00\n        /* \"contracts/Profile.sol\":5186:5205  profile[msg.sender] */\n      dup1\n        /* \"contracts/Profile.sol\":5194:5204  msg.sender */\n      caller\n        /* \"contracts/Profile.sol\":5186:5205  profile[msg.sender] */\n      0xffffffffffffffffffffffffffffffffffffffff\n      and\n      0xffffffffffffffffffffffffffffffffffffffff\n      and\n      dup2\n      mstore\n      0x20\n      add\n      swap1\n      dup2\n      mstore\n      0x20\n      add\n      0x00\n      keccak256\n        /* \"contracts/Profile.sol\":5186:5223  profile[msg.sender].companyExperience */\n      0x14\n      add\n        /* \"contracts/Profile.sol\":5186:5235  profile[msg.sender].companyExperience.companyName */\n      0x00\n      add\n        /* \"contracts/Profile.sol\":5186:5249  profile[msg.sender].companyExperience.companyName = companyName */\n      swap1\n      dup1\n      mload\n      swap1\n      0x20\n      add\n      swap1\n      tag_86\n      swap3\n      swap2\n      swap1\n      tag_87\n      jump\t// in\n    tag_86:\n      pop\n        /* \"contracts/Profile.sol\":5309:5317  position */\n      dup4\n        /* \"contracts/Profile.sol\":5260:5267  profile */\n      0x00\n        /* \"contracts/Profile.sol\":5260:5279  profile[msg.sender] */\n      dup1\n        /* \"contracts/Profile.sol\":5268:5278  msg.sender */\n      caller\n        /* \"contracts/Profile.sol\":5260:5279  profile[msg.sender] */\n      0xffffffffffffffffffffffffffffffffffffffff\n      and\n      0xffffffffffffffffffffffffffffffffffffffff\n      and\n      dup2\n      mstore\n      0x20\n      add\n      swap1\n      dup2\n      mstore\n      0x20\n      add\n      0x00\n      keccak256\n        /* \"contracts/Profile.sol\":5260:5297  profile[msg.sender].companyExperience */\n      0x14\n      add\n        /* \"contracts/Profile.sol\":5260:5306  profile[msg.sender].companyExperience.position */\n      0x01\n      add\n        /* \"contracts/Profile.sol\":5260:5317  profile[msg.sender].companyExperience.position = position */\n      swap1\n      dup1\n      mload\n      swap1\n      0x20\n      add\n      swap1\n      tag_88\n      swap3\n      swap2\n      swap1\n      tag_87\n      jump\t// in\n    tag_88:\n      pop\n        /* \"contracts/Profile.sol\":5378:5387  startDate */\n      dup3\n        /* \"contracts/Profile.sol\":5328:5335  profile */\n      0x00\n        /* \"contracts/Profile.sol\":5328:5347  profile[msg.sender] */\n      dup1\n        /* \"contracts/Profile.sol\":5336:5346  msg.sender */\n      caller\n        /* \"contracts/Profile.sol\":5328:5347  profile[msg.sender] */\n      0xffffffffffffffffffffffffffffffffffffffff\n      and\n      0xffffffffffffffffffffffffffffffffffffffff\n      and\n      dup2\n      mstore\n      0x20\n      add\n      swap1\n      dup2\n      mstore\n      0x20\n      add\n      0x00\n      keccak256\n        /* \"contracts/Profile.sol\":5328:5365  profile[msg.sender].companyExperience */\n      0x14\n      add\n        /* \"contracts/Profile.sol\":5328:5375  profile[msg.sender].companyExperience.startDate */\n      0x02\n      add\n        /* \"contracts/Profile.sol\":5328:5387  profile[msg.sender].companyExperience.startDate = startDate */\n      swap1\n      dup1\n      mload\n      swap1\n      0x20\n      add\n      swap1\n      tag_89\n      swap3\n      swap2\n      swap1\n      tag_87\n      jump\t// in\n    tag_89:\n      pop\n        /* \"contracts/Profile.sol\":5446:5453  endDate */\n      dup2\n        /* \"contracts/Profile.sol\":5398:5405  profile */\n      0x00\n        /* \"contracts/Profile.sol\":5398:5417  profile[msg.sender] */\n      dup1\n        /* \"contracts/Profile.sol\":5406:5416  msg.sender */\n      caller\n        /* \"contracts/Profile.sol\":5398:5417  profile[msg.sender] */\n      0xffffffffffffffffffffffffffffffffffffffff\n      and\n      0xffffffffffffffffffffffffffffffffffffffff\n      and\n      dup2\n      mstore\n      0x20\n      add\n      swap1\n      dup2\n      mstore\n      0x20\n      add\n      0x00\n      keccak256\n        /* \"contracts/Profile.sol\":5398:5435  profile[msg.sender].companyExperience */\n      0x14\n      add\n        /* \"contracts/Profile.sol\":5398:5443  profile[msg.sender].companyExperience.endDate */\n      0x03\n      add\n        /* \"contracts/Profile.sol\":5398:5453  profile[msg.sender].companyExperience.endDate = endDate */\n      swap1\n      dup1\n      mload\n      swap1\n      0x20\n      add\n      swap1\n      tag_90\n      swap3\n      swap2\n      swap1\n      tag_87\n      jump\t// in\n    tag_90:\n      pop\n        /* \"contracts/Profile.sol\":5512:5519  project */\n      dup1\n        /* \"contracts/Profile.sol\":5464:5471  profile */\n      0x00\n        /* \"contracts/Profile.sol\":5464:5483  profile[msg.sender] */\n      dup1\n        /* \"contracts/Profile.sol\":5472:5482  msg.sender */\n      caller\n        /* \"contracts/Profile.sol\":5464:5483  profile[msg.sender] */\n      0xffffffffffffffffffffffffffffffffffffffff\n      and\n      0xffffffffffffffffffffffffffffffffffffffff\n      and\n      dup2\n      mstore\n      0x20\n      add\n      swap1\n      dup2\n      mstore\n      0x20\n      add\n      0x00\n      keccak256\n        /* \"contracts/Profile.sol\":5464:5501  profile[msg.sender].companyExperience */\n      0x14\n      add\n        /* \"contracts/Profile.sol\":5464:5509  profile[msg.sender].companyExperience.project */\n      0x04\n      add\n        /* \"contracts/Profile.sol\":5464:5519  profile[msg.sender].companyExperience.project = project */\n      swap1\n      dup1\n      mload\n      swap1\n      0x20\n      add\n      swap1\n      tag_91\n      swap3\n      swap2\n      swap1\n      tag_92\n      jump\t// in\n    tag_91:\n      pop\n        /* \"contracts/Profile.sol\":5011:5527  function createCompanyExperience(string memory companyName, string memory position, string memory startDate, string memory endDate, string[] memory project) public {\r... */\n      pop\n      pop\n      pop\n      pop\n      pop\n      jump\t// out\n        /* \"contracts/Profile.sol\":4762:5003  function createFreelanceExperience(string memory projectName, string memory Detail) public {\r... */\n    tag_32:\n        /* \"contracts/Profile.sol\":4918:4929  projectName */\n      dup2\n        /* \"contracts/Profile.sol\":4864:4871  profile */\n      0x00\n        /* \"contracts/Profile.sol\":4864:4883  profile[msg.sender] */\n      dup1\n        /* \"contracts/Profile.sol\":4872:4882  msg.sender */\n      caller\n        /* \"contracts/Profile.sol\":4864:4883  profile[msg.sender] */\n      0xffffffffffffffffffffffffffffffffffffffff\n      and\n      0xffffffffffffffffffffffffffffffffffffffff\n      and\n      dup2\n      mstore\n      0x20\n      add\n      swap1\n      dup2\n      mstore\n      0x20\n      add\n      0x00\n      keccak256\n        /* \"contracts/Profile.sol\":4864:4903  profile[msg.sender].freelanceExperience */\n      0x19\n      add\n        /* \"contracts/Profile.sol\":4864:4915  profile[msg.sender].freelanceExperience.projectName */\n      0x00\n      add\n        /* \"contracts/Profile.sol\":4864:4929  profile[msg.sender].freelanceExperience.projectName = projectName */\n      swap1\n      dup1\n      mload\n      swap1\n      0x20\n      add\n      swap1\n      tag_94\n      swap3\n      swap2\n      swap1\n      tag_87\n      jump\t// in\n    tag_94:\n      pop\n        /* \"contracts/Profile.sol\":4989:4995  Detail */\n      dup1\n        /* \"contracts/Profile.sol\":4940:4947  profile */\n      0x00\n        /* \"contracts/Profile.sol\":4940:4959  profile[msg.sender] */\n      dup1\n        /* \"contracts/Profile.sol\":4948:4958  msg.sender */\n      caller\n        /* \"contracts/Profile.sol\":4940:4959  profile[msg.sender] */\n      0xffffffffffffffffffffffffffffffffffffffff\n      and\n      0xffffffffffffffffffffffffffffffffffffffff\n      and\n      dup2\n      mstore\n      0x20\n      add\n      swap1\n      dup2\n      mstore\n      0x20\n      add\n      0x00\n      keccak256\n        /* \"contracts/Profile.sol\":4940:4979  profile[msg.sender].freelanceExperience */\n      0x19\n      add\n        /* \"contracts/Profile.sol\":4940:4986  profile[msg.sender].freelanceExperience.Detail */\n      0x01\n      add\n        /* \"contracts/Profile.sol\":4940:4995  profile[msg.sender].freelanceExperience.Detail = Detail */\n      swap1\n      dup1\n      mload\n      swap1\n      0x20\n      add\n      swap1\n      tag_95\n      swap3\n      swap2\n      swap1\n      tag_87\n      jump\t// in\n    tag_95:\n      pop\n        /* \"contracts/Profile.sol\":4762:5003  function createFreelanceExperience(string memory projectName, string memory Detail) public {\r... */\n      pop\n      pop\n      jump\t// out\n        /* \"contracts/Profile.sol\":3065:3453  function createSkill(string[] memory programmingLanguages, string[] memory framework, string[] memory databaseAndOther) public {\r... */\n    tag_36:\n        /* \"contracts/Profile.sol\":3210:3217  profile */\n      0x00\n        /* \"contracts/Profile.sol\":3210:3229  profile[msg.sender] */\n      dup1\n        /* \"contracts/Profile.sol\":3218:3228  msg.sender */\n      caller\n        /* \"contracts/Profile.sol\":3210:3229  profile[msg.sender] */\n      0xffffffffffffffffffffffffffffffffffffffff\n      and\n      0xffffffffffffffffffffffffffffffffffffffff\n      and\n      dup2\n      mstore\n      0x20\n      add\n      swap1\n      dup2\n      mstore\n      0x20\n      add\n      0x00\n      keccak256\n        /* \"contracts/Profile.sol\":3210:3235  profile[msg.sender].skill */\n      0x0e\n      add\n      0x00\n        /* \"contracts/Profile.sol\":3203:3235  delete profile[msg.sender].skill */\n      dup1\n      dup3\n      add\n      0x00\n      tag_97\n      swap2\n      swap1\n      tag_98\n      jump\t// in\n    tag_97:\n      0x01\n      dup3\n      add\n      0x00\n      tag_99\n      swap2\n      swap1\n      tag_98\n      jump\t// in\n    tag_99:\n      0x02\n      dup3\n      add\n      0x00\n      tag_100\n      swap2\n      swap1\n      tag_98\n      jump\t// in\n    tag_100:\n      pop\n      pop\n        /* \"contracts/Profile.sol\":3295:3315  programmingLanguages */\n      dup3\n        /* \"contracts/Profile.sol\":3246:3253  profile */\n      0x00\n        /* \"contracts/Profile.sol\":3246:3265  profile[msg.sender] */\n      dup1\n        /* \"contracts/Profile.sol\":3254:3264  msg.sender */\n      caller\n        /* \"contracts/Profile.sol\":3246:3265  profile[msg.sender] */\n      0xffffffffffffffffffffffffffffffffffffffff\n      and\n      0xffffffffffffffffffffffffffffffffffffffff\n      and\n      dup2\n      mstore\n      0x20\n      add\n      swap1\n      dup2\n      mstore\n      0x20\n      add\n      0x00\n      keccak256\n        /* \"contracts/Profile.sol\":3246:3271  profile[msg.sender].skill */\n      0x0e\n      add\n        /* \"contracts/Profile.sol\":3246:3292  profile[msg.sender].skill.programmingLanguages */\n      0x00\n      add\n        /* \"contracts/Profile.sol\":3246:3315  profile[msg.sender].skill.programmingLanguages = programmingLanguages */\n      swap1\n      dup1\n      mload\n      swap1\n      0x20\n      add\n      swap1\n      tag_101\n      swap3\n      swap2\n      swap1\n      tag_92\n      jump\t// in\n    tag_101:\n      pop\n        /* \"contracts/Profile.sol\":3364:3373  framework */\n      dup2\n        /* \"contracts/Profile.sol\":3326:3333  profile */\n      0x00\n        /* \"contracts/Profile.sol\":3326:3345  profile[msg.sender] */\n      dup1\n        /* \"contracts/Profile.sol\":3334:3344  msg.sender */\n      caller\n        /* \"contracts/Profile.sol\":3326:3345  profile[msg.sender] */\n      0xffffffffffffffffffffffffffffffffffffffff\n      and\n      0xffffffffffffffffffffffffffffffffffffffff\n      and\n      dup2\n      mstore\n      0x20\n      add\n      swap1\n      dup2\n      mstore\n      0x20\n      add\n      0x00\n      keccak256\n        /* \"contracts/Profile.sol\":3326:3351  profile[msg.sender].skill */\n      0x0e\n      add\n        /* \"contracts/Profile.sol\":3326:3361  profile[msg.sender].skill.framework */\n      0x01\n      add\n        /* \"contracts/Profile.sol\":3326:3373  profile[msg.sender].skill.framework = framework */\n      swap1\n      dup1\n      mload\n      swap1\n      0x20\n      add\n      swap1\n      tag_102\n      swap3\n      swap2\n      swap1\n      tag_92\n      jump\t// in\n    tag_102:\n      pop\n        /* \"contracts/Profile.sol\":3429:3445  databaseAndOther */\n      dup1\n        /* \"contracts/Profile.sol\":3384:3391  profile */\n      0x00\n        /* \"contracts/Profile.sol\":3384:3403  profile[msg.sender] */\n      dup1\n        /* \"contracts/Profile.sol\":3392:3402  msg.sender */\n      caller\n        /* \"contracts/Profile.sol\":3384:3403  profile[msg.sender] */\n      0xffffffffffffffffffffffffffffffffffffffff\n      and\n      0xffffffffffffffffffffffffffffffffffffffff\n      and\n      dup2\n      mstore\n      0x20\n      add\n      swap1\n      dup2\n      mstore\n      0x20\n      add\n      0x00\n      keccak256\n        /* \"contracts/Profile.sol\":3384:3409  profile[msg.sender].skill */\n      0x0e\n      add\n        /* \"contracts/Profile.sol\":3384:3426  profile[msg.sender].skill.databaseAndOther */\n      0x02\n      add\n        /* \"contracts/Profile.sol\":3384:3445  profile[msg.sender].skill.databaseAndOther = databaseAndOther */\n      swap1\n      dup1\n      mload\n      swap1\n      0x20\n      add\n      swap1\n      tag_103\n      swap3\n      swap2\n      swap1\n      tag_92\n      jump\t// in\n    tag_103:\n      pop\n        /* \"contracts/Profile.sol\":3065:3453  function createSkill(string[] memory programmingLanguages, string[] memory framework, string[] memory databaseAndOther) public {\r... */\n      pop\n      pop\n      pop\n      jump\t// out\n        /* \"contracts/Profile.sol\":5821:5929  function delCertificateAndAward() external {\r... */\n    tag_38:\n        /* \"contracts/Profile.sol\":5882:5889  profile */\n      0x00\n        /* \"contracts/Profile.sol\":5882:5901  profile[msg.sender] */\n      dup1\n        /* \"contracts/Profile.sol\":5890:5900  msg.sender */\n      caller\n        /* \"contracts/Profile.sol\":5882:5901  profile[msg.sender] */\n      0xffffffffffffffffffffffffffffffffffffffff\n      and\n      0xffffffffffffffffffffffffffffffffffffffff\n      and\n      dup2\n      mstore\n      0x20\n      add\n      swap1\n      dup2\n      mstore\n      0x20\n      add\n      0x00\n      keccak256\n        /* \"contracts/Profile.sol\":5882:5921  profile[msg.sender].certificateAndAward */\n      0x12\n      add\n      0x00\n        /* \"contracts/Profile.sol\":5875:5921  delete profile[msg.sender].certificateAndAward */\n      dup1\n      dup3\n      add\n      0x00\n      tag_105\n      swap2\n      swap1\n      tag_98\n      jump\t// in\n    tag_105:\n      0x01\n      dup3\n      add\n      0x00\n      tag_106\n      swap2\n      swap1\n      tag_98\n      jump\t// in\n    tag_106:\n      pop\n      pop\n        /* \"contracts/Profile.sol\":5821:5929  function delCertificateAndAward() external {\r... */\n      jump\t// out\n        /* \"contracts/Profile.sol\":4400:4518  function getEducationCount() public view returns (uint) {\r... */\n    tag_40:\n        /* \"contracts/Profile.sol\":4450:4454  uint */\n      0x00\n        /* \"contracts/Profile.sol\":4474:4481  profile */\n      dup1\n        /* \"contracts/Profile.sol\":4474:4493  profile[msg.sender] */\n      0x00\n        /* \"contracts/Profile.sol\":4482:4492  msg.sender */\n      caller\n        /* \"contracts/Profile.sol\":4474:4493  profile[msg.sender] */\n      0xffffffffffffffffffffffffffffffffffffffff\n      and\n      0xffffffffffffffffffffffffffffffffffffffff\n      and\n      dup2\n      mstore\n      0x20\n      add\n      swap1\n      dup2\n      mstore\n      0x20\n      add\n      0x00\n      keccak256\n        /* \"contracts/Profile.sol\":4474:4503  profile[msg.sender].education */\n      0x11\n      add\n        /* \"contracts/Profile.sol\":4474:4510  profile[msg.sender].education.length */\n      dup1\n      sload\n      swap1\n      pop\n        /* \"contracts/Profile.sol\":4467:4510  return profile[msg.sender].education.length */\n      swap1\n      pop\n        /* \"contracts/Profile.sol\":4400:4518  function getEducationCount() public view returns (uint) {\r... */\n      swap1\n      jump\t// out\n        /* \"contracts/Profile.sol\":3520:3990  function createUnivercity(string memory startDate, string memory endDate, string memory univercity, string memory major, string memory finalProject) public {\r... */\n    tag_46:\n        /* \"contracts/Profile.sol\":3687:3714  Education memory _education */\n      tag_109\n      tag_110\n      jump\t// in\n    tag_109:\n        /* \"contracts/Profile.sol\":3748:3757  startDate */\n      dup6\n        /* \"contracts/Profile.sol\":3725:3735  _education */\n      dup2\n        /* \"contracts/Profile.sol\":3725:3745  _education.startDate */\n      0x00\n      add\n        /* \"contracts/Profile.sol\":3725:3757  _education.startDate = startDate */\n      dup2\n      swap1\n      mstore\n      pop\n        /* \"contracts/Profile.sol\":3789:3796  endDate */\n      dup5\n        /* \"contracts/Profile.sol\":3768:3778  _education */\n      dup2\n        /* \"contracts/Profile.sol\":3768:3786  _education.endDate */\n      0x20\n      add\n        /* \"contracts/Profile.sol\":3768:3796  _education.endDate = endDate */\n      dup2\n      swap1\n      mstore\n      pop\n        /* \"contracts/Profile.sol\":3831:3841  univercity */\n      dup4\n        /* \"contracts/Profile.sol\":3807:3817  _education */\n      dup2\n        /* \"contracts/Profile.sol\":3807:3828  _education.univercity */\n      0x40\n      add\n        /* \"contracts/Profile.sol\":3807:3841  _education.univercity = univercity */\n      dup2\n      swap1\n      mstore\n      pop\n        /* \"contracts/Profile.sol\":3871:3876  major */\n      dup3\n        /* \"contracts/Profile.sol\":3852:3862  _education */\n      dup2\n        /* \"contracts/Profile.sol\":3852:3868  _education.major */\n      0x60\n      add\n        /* \"contracts/Profile.sol\":3852:3876  _education.major = major */\n      dup2\n      swap1\n      mstore\n      pop\n        /* \"contracts/Profile.sol\":3913:3925  finalProject */\n      dup2\n        /* \"contracts/Profile.sol\":3887:3897  _education */\n      dup2\n        /* \"contracts/Profile.sol\":3887:3910  _education.finalProject */\n      0x80\n      add\n        /* \"contracts/Profile.sol\":3887:3925  _education.finalProject = finalProject */\n      dup2\n      swap1\n      mstore\n      pop\n        /* \"contracts/Profile.sol\":3936:3943  profile */\n      0x00\n        /* \"contracts/Profile.sol\":3936:3955  profile[msg.sender] */\n      dup1\n        /* \"contracts/Profile.sol\":3944:3954  msg.sender */\n      caller\n        /* \"contracts/Profile.sol\":3936:3955  profile[msg.sender] */\n      0xffffffffffffffffffffffffffffffffffffffff\n      and\n      0xffffffffffffffffffffffffffffffffffffffff\n      and\n      dup2\n      mstore\n      0x20\n      add\n      swap1\n      dup2\n      mstore\n      0x20\n      add\n      0x00\n      keccak256\n        /* \"contracts/Profile.sol\":3936:3965  profile[msg.sender].education */\n      0x11\n      add\n        /* \"contracts/Profile.sol\":3971:3981  _education */\n      dup2\n        /* \"contracts/Profile.sol\":3936:3982  profile[msg.sender].education.push(_education) */\n      swap1\n      dup1\n      0x01\n      dup2\n      sload\n      add\n      dup1\n      dup3\n      sstore\n      dup1\n      swap2\n      pop\n      pop\n      0x01\n      swap1\n      sub\n      swap1\n      0x00\n      mstore\n      keccak256(0x00, 0x20)\n      swap1\n      0x05\n      mul\n      add\n      0x00\n      swap1\n      swap2\n      swap1\n      swap2\n      swap1\n      swap2\n      pop\n      0x00\n      dup3\n      add\n      mload\n      dup2\n      0x00\n      add\n      swap1\n      dup1\n      mload\n      swap1\n      0x20\n      add\n      swap1\n      tag_112\n      swap3\n      swap2\n      swap1\n      tag_87\n      jump\t// in\n    tag_112:\n      pop\n      0x20\n      dup3\n      add\n      mload\n      dup2\n      0x01\n      add\n      swap1\n      dup1\n      mload\n      swap1\n      0x20\n      add\n      swap1\n      tag_113\n      swap3\n      swap2\n      swap1\n      tag_87\n      jump\t// in\n    tag_113:\n      pop\n      0x40\n      dup3\n      add\n      mload\n      dup2\n      0x02\n      add\n      swap1\n      dup1\n      mload\n      swap1\n      0x20\n      add\n      swap1\n      tag_114\n      swap3\n      swap2\n      swap1\n      tag_87\n      jump\t// in\n    tag_114:\n      pop\n      0x60\n      dup3\n      add\n      mload\n      dup2\n      0x03\n      add\n      swap1\n      dup1\n      mload\n      swap1\n      0x20\n      add\n      swap1\n      tag_115\n      swap3\n      swap2\n      swap1\n      tag_87\n      jump\t// in\n    tag_115:\n      pop\n      0x80\n      dup3\n      add\n      mload\n      dup2\n      0x04\n      add\n      swap1\n      dup1\n      mload\n      swap1\n      0x20\n      add\n      swap1\n      tag_116\n      swap3\n      swap2\n      swap1\n      tag_87\n      jump\t// in\n    tag_116:\n      pop\n      pop\n      pop\n        /* \"contracts/Profile.sol\":3676:3990  {\r... */\n      pop\n        /* \"contracts/Profile.sol\":3520:3990  function createUnivercity(string memory startDate, string memory endDate, string memory univercity, string memory major, string memory finalProject) public {\r... */\n      pop\n      pop\n      pop\n      pop\n      pop\n      jump\t// out\n        /* \"contracts/Profile.sol\":4526:4754  function createAward(string[] memory award, string[] memory certificate) public {\r... */\n    tag_50:\n        /* \"contracts/Profile.sol\":4665:4670  award */\n      dup2\n        /* \"contracts/Profile.sol\":4617:4624  profile */\n      0x00\n        /* \"contracts/Profile.sol\":4617:4636  profile[msg.sender] */\n      dup1\n        /* \"contracts/Profile.sol\":4625:4635  msg.sender */\n      caller\n        /* \"contracts/Profile.sol\":4617:4636  profile[msg.sender] */\n      0xffffffffffffffffffffffffffffffffffffffff\n      and\n      0xffffffffffffffffffffffffffffffffffffffff\n      and\n      dup2\n      mstore\n      0x20\n      add\n      swap1\n      dup2\n      mstore\n      0x20\n      add\n      0x00\n      keccak256\n        /* \"contracts/Profile.sol\":4617:4656  profile[msg.sender].certificateAndAward */\n      0x12\n      add\n        /* \"contracts/Profile.sol\":4617:4662  profile[msg.sender].certificateAndAward.award */\n      0x01\n      add\n        /* \"contracts/Profile.sol\":4617:4670  profile[msg.sender].certificateAndAward.award = award */\n      swap1\n      dup1\n      mload\n      swap1\n      0x20\n      add\n      swap1\n      tag_118\n      swap3\n      swap2\n      swap1\n      tag_92\n      jump\t// in\n    tag_118:\n      pop\n        /* \"contracts/Profile.sol\":4735:4746  certificate */\n      dup1\n        /* \"contracts/Profile.sol\":4681:4688  profile */\n      0x00\n        /* \"contracts/Profile.sol\":4681:4700  profile[msg.sender] */\n      dup1\n        /* \"contracts/Profile.sol\":4689:4699  msg.sender */\n      caller\n        /* \"contracts/Profile.sol\":4681:4700  profile[msg.sender] */\n      0xffffffffffffffffffffffffffffffffffffffff\n      and\n      0xffffffffffffffffffffffffffffffffffffffff\n      and\n      dup2\n      mstore\n      0x20\n      add\n      swap1\n      dup2\n      mstore\n      0x20\n      add\n      0x00\n      keccak256\n        /* \"contracts/Profile.sol\":4681:4720  profile[msg.sender].certificateAndAward */\n      0x12\n      add\n        /* \"contracts/Profile.sol\":4681:4732  profile[msg.sender].certificateAndAward.certificate */\n      0x00\n      add\n        /* \"contracts/Profile.sol\":4681:4746  profile[msg.sender].certificateAndAward.certificate = certificate */\n      swap1\n      dup1\n      mload\n      swap1\n      0x20\n      add\n      swap1\n      tag_119\n      swap3\n      swap2\n      swap1\n      tag_92\n      jump\t// in\n    tag_119:\n      pop\n        /* \"contracts/Profile.sol\":4526:4754  function createAward(string[] memory award, string[] memory certificate) public {\r... */\n      pop\n      pop\n      jump\t// out\n        /* \"contracts/Profile.sol\":2474:2978  function createContract(string memory email, string memory phone, string memory github, string memory gitlab, string memory linkin) public {\r... */\n    tag_53:\n        /* \"contracts/Profile.sol\":2631:2638  profile */\n      0x00\n        /* \"contracts/Profile.sol\":2631:2650  profile[msg.sender] */\n      dup1\n        /* \"contracts/Profile.sol\":2639:2649  msg.sender */\n      caller\n        /* \"contracts/Profile.sol\":2631:2650  profile[msg.sender] */\n      0xffffffffffffffffffffffffffffffffffffffff\n      and\n      0xffffffffffffffffffffffffffffffffffffffff\n      and\n      dup2\n      mstore\n      0x20\n      add\n      swap1\n      dup2\n      mstore\n      0x20\n      add\n      0x00\n      keccak256\n        /* \"contracts/Profile.sol\":2631:2666  profile[msg.sender].privateContract */\n      0x08\n      add\n      0x00\n        /* \"contracts/Profile.sol\":2624:2666  delete profile[msg.sender].privateContract */\n      dup1\n      dup3\n      add\n      0x00\n      tag_121\n      swap2\n      swap1\n      tag_83\n      jump\t// in\n    tag_121:\n      0x01\n      dup3\n      add\n      0x00\n      tag_122\n      swap2\n      swap1\n      tag_83\n      jump\t// in\n    tag_122:\n      0x02\n      dup3\n      add\n      0x00\n      tag_123\n      swap2\n      swap1\n      tag_83\n      jump\t// in\n    tag_123:\n      0x03\n      dup3\n      add\n      0x00\n      tag_124\n      swap2\n      swap1\n      tag_83\n      jump\t// in\n    tag_124:\n      0x04\n      dup3\n      add\n      0x00\n      tag_125\n      swap2\n      swap1\n      tag_83\n      jump\t// in\n    tag_125:\n      0x05\n      dup3\n      add\n      0x00\n      tag_126\n      swap2\n      swap1\n      tag_83\n      jump\t// in\n    tag_126:\n      pop\n      pop\n        /* \"contracts/Profile.sol\":2721:2726  email */\n      dup5\n        /* \"contracts/Profile.sol\":2677:2684  profile */\n      0x00\n        /* \"contracts/Profile.sol\":2677:2696  profile[msg.sender] */\n      dup1\n        /* \"contracts/Profile.sol\":2685:2695  msg.sender */\n      caller\n        /* \"contracts/Profile.sol\":2677:2696  profile[msg.sender] */\n      0xffffffffffffffffffffffffffffffffffffffff\n      and\n      0xffffffffffffffffffffffffffffffffffffffff\n      and\n      dup2\n      mstore\n      0x20\n      add\n      swap1\n      dup2\n      mstore\n      0x20\n      add\n      0x00\n      keccak256\n        /* \"contracts/Profile.sol\":2677:2712  profile[msg.sender].privateContract */\n      0x08\n      add\n        /* \"contracts/Profile.sol\":2677:2718  profile[msg.sender].privateContract.email */\n      0x01\n      add\n        /* \"contracts/Profile.sol\":2677:2726  profile[msg.sender].privateContract.email = email */\n      swap1\n      dup1\n      mload\n      swap1\n      0x20\n      add\n      swap1\n      tag_127\n      swap3\n      swap2\n      swap1\n      tag_87\n      jump\t// in\n    tag_127:\n      pop\n        /* \"contracts/Profile.sol\":2781:2786  phone */\n      dup4\n        /* \"contracts/Profile.sol\":2737:2744  profile */\n      0x00\n        /* \"contracts/Profile.sol\":2737:2756  profile[msg.sender] */\n      dup1\n        /* \"contracts/Profile.sol\":2745:2755  msg.sender */\n      caller\n        /* \"contracts/Profile.sol\":2737:2756  profile[msg.sender] */\n      0xffffffffffffffffffffffffffffffffffffffff\n      and\n      0xffffffffffffffffffffffffffffffffffffffff\n      and\n      dup2\n      mstore\n      0x20\n      add\n      swap1\n      dup2\n      mstore\n      0x20\n      add\n      0x00\n      keccak256\n        /* \"contracts/Profile.sol\":2737:2772  profile[msg.sender].privateContract */\n      0x08\n      add\n        /* \"contracts/Profile.sol\":2737:2778  profile[msg.sender].privateContract.phone */\n      0x02\n      add\n        /* \"contracts/Profile.sol\":2737:2786  profile[msg.sender].privateContract.phone = phone */\n      swap1\n      dup1\n      mload\n      swap1\n      0x20\n      add\n      swap1\n      tag_128\n      swap3\n      swap2\n      swap1\n      tag_87\n      jump\t// in\n    tag_128:\n      pop\n        /* \"contracts/Profile.sol\":2842:2848  github */\n      dup3\n        /* \"contracts/Profile.sol\":2797:2804  profile */\n      0x00\n        /* \"contracts/Profile.sol\":2797:2816  profile[msg.sender] */\n      dup1\n        /* \"contracts/Profile.sol\":2805:2815  msg.sender */\n      caller\n        /* \"contracts/Profile.sol\":2797:2816  profile[msg.sender] */\n      0xffffffffffffffffffffffffffffffffffffffff\n      and\n      0xffffffffffffffffffffffffffffffffffffffff\n      and\n      dup2\n      mstore\n      0x20\n      add\n      swap1\n      dup2\n      mstore\n      0x20\n      add\n      0x00\n      keccak256\n        /* \"contracts/Profile.sol\":2797:2832  profile[msg.sender].privateContract */\n      0x08\n      add\n        /* \"contracts/Profile.sol\":2797:2839  profile[msg.sender].privateContract.github */\n      0x03\n      add\n        /* \"contracts/Profile.sol\":2797:2848  profile[msg.sender].privateContract.github = github */\n      swap1\n      dup1\n      mload\n      swap1\n      0x20\n      add\n      swap1\n      tag_129\n      swap3\n      swap2\n      swap1\n      tag_87\n      jump\t// in\n    tag_129:\n      pop\n        /* \"contracts/Profile.sol\":2903:2909  gitlab */\n      dup2\n        /* \"contracts/Profile.sol\":2859:2866  profile */\n      0x00\n        /* \"contracts/Profile.sol\":2859:2878  profile[msg.sender] */\n      dup1\n        /* \"contracts/Profile.sol\":2867:2877  msg.sender */\n      caller\n        /* \"contracts/Profile.sol\":2859:2878  profile[msg.sender] */\n      0xffffffffffffffffffffffffffffffffffffffff\n      and\n      0xffffffffffffffffffffffffffffffffffffffff\n      and\n      dup2\n      mstore\n      0x20\n      add\n      swap1\n      dup2\n      mstore\n      0x20\n      add\n      0x00\n      keccak256\n        /* \"contracts/Profile.sol\":2859:2894  profile[msg.sender].privateContract */\n      0x08\n      add\n        /* \"contracts/Profile.sol\":2859:2900  profile[msg.sender].privateContract.phone */\n      0x02\n      add\n        /* \"contracts/Profile.sol\":2859:2909  profile[msg.sender].privateContract.phone = gitlab */\n      swap1\n      dup1\n      mload\n      swap1\n      0x20\n      add\n      swap1\n      tag_130\n      swap3\n      swap2\n      swap1\n      tag_87\n      jump\t// in\n    tag_130:\n      pop\n        /* \"contracts/Profile.sol\":2964:2970  linkin */\n      dup1\n        /* \"contracts/Profile.sol\":2920:2927  profile */\n      0x00\n        /* \"contracts/Profile.sol\":2920:2939  profile[msg.sender] */\n      dup1\n        /* \"contracts/Profile.sol\":2928:2938  msg.sender */\n      caller\n        /* \"contracts/Profile.sol\":2920:2939  profile[msg.sender] */\n      0xffffffffffffffffffffffffffffffffffffffff\n      and\n      0xffffffffffffffffffffffffffffffffffffffff\n      and\n      dup2\n      mstore\n      0x20\n      add\n      swap1\n      dup2\n      mstore\n      0x20\n      add\n      0x00\n      keccak256\n        /* \"contracts/Profile.sol\":2920:2955  profile[msg.sender].privateContract */\n      0x08\n      add\n        /* \"contracts/Profile.sol\":2920:2961  profile[msg.sender].privateContract.email */\n      0x01\n      add\n        /* \"contracts/Profile.sol\":2920:2970  profile[msg.sender].privateContract.email = linkin */\n      swap1\n      dup1\n      mload\n      swap1\n      0x20\n      add\n      swap1\n      tag_131\n      swap3\n      swap2\n      swap1\n      tag_87\n      jump\t// in\n    tag_131:\n      pop\n        /* \"contracts/Profile.sol\":2474:2978  function createContract(string memory email, string memory phone, string memory github, string memory gitlab, string memory linkin) public {\r... */\n      pop\n      pop\n      pop\n      pop\n      pop\n      jump\t// out\n        /* \"contracts/Profile.sol\":1703:2419  function createInformation(string memory firstName, string memory middleName, string memory lastName,  string memory profileImage, string memory aboutMe, string memory position) public {\r... */\n    tag_57:\n        /* \"contracts/Profile.sol\":1943:1952  firstName */\n      dup6\n        /* \"contracts/Profile.sol\":1899:1906  profile */\n      0x00\n        /* \"contracts/Profile.sol\":1899:1918  profile[msg.sender] */\n      dup1\n        /* \"contracts/Profile.sol\":1907:1917  msg.sender */\n      caller\n        /* \"contracts/Profile.sol\":1899:1918  profile[msg.sender] */\n      0xffffffffffffffffffffffffffffffffffffffff\n      and\n      0xffffffffffffffffffffffffffffffffffffffff\n      and\n      dup2\n      mstore\n      0x20\n      add\n      swap1\n      dup2\n      mstore\n      0x20\n      add\n      0x00\n      keccak256\n        /* \"contracts/Profile.sol\":1899:1930  profile[msg.sender].information */\n      0x00\n      add\n        /* \"contracts/Profile.sol\":1899:1940  profile[msg.sender].information.firstName */\n      0x03\n      add\n        /* \"contracts/Profile.sol\":1899:1952  profile[msg.sender].information.firstName = firstName */\n      swap1\n      dup1\n      mload\n      swap1\n      0x20\n      add\n      swap1\n      tag_133\n      swap3\n      swap2\n      swap1\n      tag_87\n      jump\t// in\n    tag_133:\n      pop\n        /* \"contracts/Profile.sol\":2008:2018  middleName */\n      dup5\n        /* \"contracts/Profile.sol\":1963:1970  profile */\n      0x00\n        /* \"contracts/Profile.sol\":1963:1982  profile[msg.sender] */\n      dup1\n        /* \"contracts/Profile.sol\":1971:1981  msg.sender */\n      caller\n        /* \"contracts/Profile.sol\":1963:1982  profile[msg.sender] */\n      0xffffffffffffffffffffffffffffffffffffffff\n      and\n      0xffffffffffffffffffffffffffffffffffffffff\n      and\n      dup2\n      mstore\n      0x20\n      add\n      swap1\n      dup2\n      mstore\n      0x20\n      add\n      0x00\n      keccak256\n        /* \"contracts/Profile.sol\":1963:1994  profile[msg.sender].information */\n      0x00\n      add\n        /* \"contracts/Profile.sol\":1963:2005  profile[msg.sender].information.middleName */\n      0x04\n      add\n        /* \"contracts/Profile.sol\":1963:2018  profile[msg.sender].information.middleName = middleName */\n      swap1\n      dup1\n      mload\n      swap1\n      0x20\n      add\n      swap1\n      tag_134\n      swap3\n      swap2\n      swap1\n      tag_87\n      jump\t// in\n    tag_134:\n      pop\n        /* \"contracts/Profile.sol\":2072:2080  lastName */\n      dup4\n        /* \"contracts/Profile.sol\":2029:2036  profile */\n      0x00\n        /* \"contracts/Profile.sol\":2029:2048  profile[msg.sender] */\n      dup1\n        /* \"contracts/Profile.sol\":2037:2047  msg.sender */\n      caller\n        /* \"contracts/Profile.sol\":2029:2048  profile[msg.sender] */\n      0xffffffffffffffffffffffffffffffffffffffff\n      and\n      0xffffffffffffffffffffffffffffffffffffffff\n      and\n      dup2\n      mstore\n      0x20\n      add\n      swap1\n      dup2\n      mstore\n      0x20\n      add\n      0x00\n      keccak256\n        /* \"contracts/Profile.sol\":2029:2060  profile[msg.sender].information */\n      0x00\n      add\n        /* \"contracts/Profile.sol\":2029:2069  profile[msg.sender].information.lastName */\n      0x05\n      add\n        /* \"contracts/Profile.sol\":2029:2080  profile[msg.sender].information.lastName = lastName */\n      swap1\n      dup1\n      mload\n      swap1\n      0x20\n      add\n      swap1\n      tag_135\n      swap3\n      swap2\n      swap1\n      tag_87\n      jump\t// in\n    tag_135:\n      pop\n        /* \"contracts/Profile.sol\":2138:2150  profileImage */\n      dup3\n        /* \"contracts/Profile.sol\":2091:2098  profile */\n      0x00\n        /* \"contracts/Profile.sol\":2091:2110  profile[msg.sender] */\n      dup1\n        /* \"contracts/Profile.sol\":2099:2109  msg.sender */\n      caller\n        /* \"contracts/Profile.sol\":2091:2110  profile[msg.sender] */\n      0xffffffffffffffffffffffffffffffffffffffff\n      and\n      0xffffffffffffffffffffffffffffffffffffffff\n      and\n      dup2\n      mstore\n      0x20\n      add\n      swap1\n      dup2\n      mstore\n      0x20\n      add\n      0x00\n      keccak256\n        /* \"contracts/Profile.sol\":2091:2122  profile[msg.sender].information */\n      0x00\n      add\n        /* \"contracts/Profile.sol\":2091:2135  profile[msg.sender].information.profileImage */\n      0x06\n      add\n        /* \"contracts/Profile.sol\":2091:2150  profile[msg.sender].information.profileImage = profileImage */\n      swap1\n      dup1\n      mload\n      swap1\n      0x20\n      add\n      swap1\n      tag_136\n      swap3\n      swap2\n      swap1\n      tag_87\n      jump\t// in\n    tag_136:\n      pop\n        /* \"contracts/Profile.sol\":2203:2210  aboutMe */\n      dup2\n        /* \"contracts/Profile.sol\":2161:2168  profile */\n      0x00\n        /* \"contracts/Profile.sol\":2161:2180  profile[msg.sender] */\n      dup1\n        /* \"contracts/Profile.sol\":2169:2179  msg.sender */\n      caller\n        /* \"contracts/Profile.sol\":2161:2180  profile[msg.sender] */\n      0xffffffffffffffffffffffffffffffffffffffff\n      and\n      0xffffffffffffffffffffffffffffffffffffffff\n      and\n      dup2\n      mstore\n      0x20\n      add\n      swap1\n      dup2\n      mstore\n      0x20\n      add\n      0x00\n      keccak256\n        /* \"contracts/Profile.sol\":2161:2192  profile[msg.sender].information */\n      0x00\n      add\n        /* \"contracts/Profile.sol\":2161:2200  profile[msg.sender].information.aboutMe */\n      0x00\n      add\n        /* \"contracts/Profile.sol\":2161:2210  profile[msg.sender].information.aboutMe = aboutMe */\n      swap1\n      dup1\n      mload\n      swap1\n      0x20\n      add\n      swap1\n      tag_137\n      swap3\n      swap2\n      swap1\n      tag_87\n      jump\t// in\n    tag_137:\n      pop\n        /* \"contracts/Profile.sol\":2264:2272  position */\n      dup1\n        /* \"contracts/Profile.sol\":2221:2228  profile */\n      0x00\n        /* \"contracts/Profile.sol\":2221:2240  profile[msg.sender] */\n      dup1\n        /* \"contracts/Profile.sol\":2229:2239  msg.sender */\n      caller\n        /* \"contracts/Profile.sol\":2221:2240  profile[msg.sender] */\n      0xffffffffffffffffffffffffffffffffffffffff\n      and\n      0xffffffffffffffffffffffffffffffffffffffff\n      and\n      dup2\n      mstore\n      0x20\n      add\n      swap1\n      dup2\n      mstore\n      0x20\n      add\n      0x00\n      keccak256\n        /* \"contracts/Profile.sol\":2221:2252  profile[msg.sender].information */\n      0x00\n      add\n        /* \"contracts/Profile.sol\":2221:2261  profile[msg.sender].information.position */\n      0x01\n      add\n        /* \"contracts/Profile.sol\":2221:2272  profile[msg.sender].information.position = position */\n      swap1\n      dup1\n      mload\n      swap1\n      0x20\n      add\n      swap1\n      tag_138\n      swap3\n      swap2\n      swap1\n      tag_87\n      jump\t// in\n    tag_138:\n      pop\n        /* \"contracts/Profile.sol\":2329:2339  msg.sender */\n      caller\n        /* \"contracts/Profile.sol\":2283:2290  profile */\n      0x00\n        /* \"contracts/Profile.sol\":2283:2302  profile[msg.sender] */\n      dup1\n        /* \"contracts/Profile.sol\":2291:2301  msg.sender */\n      caller\n        /* \"contracts/Profile.sol\":2283:2302  profile[msg.sender] */\n      0xffffffffffffffffffffffffffffffffffffffff\n      and\n      0xffffffffffffffffffffffffffffffffffffffff\n      and\n      dup2\n      mstore\n      0x20\n      add\n      swap1\n      dup2\n      mstore\n      0x20\n      add\n      0x00\n      keccak256\n        /* \"contracts/Profile.sol\":2283:2314  profile[msg.sender].information */\n      0x00\n      add\n        /* \"contracts/Profile.sol\":2283:2326  profile[msg.sender].information.userAddress */\n      0x02\n      add\n      0x00\n        /* \"contracts/Profile.sol\":2283:2339  profile[msg.sender].information.userAddress = msg.sender */\n      0x0100\n      exp\n      dup2\n      sload\n      dup2\n      0xffffffffffffffffffffffffffffffffffffffff\n      mul\n      not\n      and\n      swap1\n      dup4\n      0xffffffffffffffffffffffffffffffffffffffff\n      and\n      mul\n      or\n      swap1\n      sstore\n      pop\n        /* \"contracts/Profile.sol\":2396:2411  block.timestamp */\n      timestamp\n        /* \"contracts/Profile.sol\":2351:2358  profile */\n      0x00\n        /* \"contracts/Profile.sol\":2351:2370  profile[msg.sender] */\n      dup1\n        /* \"contracts/Profile.sol\":2359:2369  msg.sender */\n      caller\n        /* \"contracts/Profile.sol\":2351:2370  profile[msg.sender] */\n      0xffffffffffffffffffffffffffffffffffffffff\n      and\n      0xffffffffffffffffffffffffffffffffffffffff\n      and\n      dup2\n      mstore\n      0x20\n      add\n      swap1\n      dup2\n      mstore\n      0x20\n      add\n      0x00\n      keccak256\n        /* \"contracts/Profile.sol\":2351:2382  profile[msg.sender].information */\n      0x00\n      add\n        /* \"contracts/Profile.sol\":2351:2393  profile[msg.sender].information.createDate */\n      0x07\n      add\n        /* \"contracts/Profile.sol\":2351:2411  profile[msg.sender].information.createDate = block.timestamp */\n      dup2\n      swap1\n      sstore\n      pop\n        /* \"contracts/Profile.sol\":1703:2419  function createInformation(string memory firstName, string memory middleName, string memory lastName,  string memory profileImage, string memory aboutMe, string memory position) public {\r... */\n      pop\n      pop\n      pop\n      pop\n      pop\n      pop\n      jump\t// out\n        /* \"contracts/Profile.sol\":5637:5729  function delInformaion() external  {\r... */\n    tag_59:\n        /* \"contracts/Profile.sol\":5690:5697  profile */\n      0x00\n        /* \"contracts/Profile.sol\":5690:5709  profile[msg.sender] */\n      dup1\n        /* \"contracts/Profile.sol\":5698:5708  msg.sender */\n      caller\n        /* \"contracts/Profile.sol\":5690:5709  profile[msg.sender] */\n      0xffffffffffffffffffffffffffffffffffffffff\n      and\n      0xffffffffffffffffffffffffffffffffffffffff\n      and\n      dup2\n      mstore\n      0x20\n      add\n      swap1\n      dup2\n      mstore\n      0x20\n      add\n      0x00\n      keccak256\n        /* \"contracts/Profile.sol\":5690:5721  profile[msg.sender].information */\n      0x00\n      add\n      0x00\n        /* \"contracts/Profile.sol\":5683:5721  delete profile[msg.sender].information */\n      dup1\n      dup3\n      add\n      0x00\n      tag_140\n      swap2\n      swap1\n      tag_83\n      jump\t// in\n    tag_140:\n      0x01\n      dup3\n      add\n      0x00\n      tag_141\n      swap2\n      swap1\n      tag_83\n      jump\t// in\n    tag_141:\n      0x02\n      dup3\n      add\n      exp(0x0100, 0x00)\n      dup2\n      sload\n      swap1\n      0xffffffffffffffffffffffffffffffffffffffff\n      mul\n      not\n      and\n      swap1\n      sstore\n      0x03\n      dup3\n      add\n      0x00\n      tag_142\n      swap2\n      swap1\n      tag_83\n      jump\t// in\n    tag_142:\n      0x04\n      dup3\n      add\n      0x00\n      tag_143\n      swap2\n      swap1\n      tag_83\n      jump\t// in\n    tag_143:\n      0x05\n      dup3\n      add\n      0x00\n      tag_144\n      swap2\n      swap1\n      tag_83\n      jump\t// in\n    tag_144:\n      0x06\n      dup3\n      add\n      0x00\n      tag_145\n      swap2\n      swap1\n      tag_83\n      jump\t// in\n    tag_145:\n      0x07\n      dup3\n      add\n      0x00\n      swap1\n      sstore\n      pop\n      pop\n        /* \"contracts/Profile.sol\":5637:5729  function delInformaion() external  {\r... */\n      jump\t// out\n        /* \"contracts/Profile.sol\":380:420  mapping (address => Bio) public  profile */\n    tag_63:\n      mstore(0x20, 0x00)\n      dup1\n      0x00\n      mstore\n      keccak256(0x00, 0x40)\n      0x00\n      swap2\n      pop\n      swap1\n      pop\n      dup1\n      0x00\n      add\n      mload(0x40)\n      dup1\n      0x0100\n      add\n      0x40\n      mstore\n      swap1\n      dup2\n      0x00\n      dup3\n      add\n      dup1\n      sload\n      tag_146\n      swap1\n      tag_147\n      jump\t// in\n    tag_146:\n      dup1\n      0x1f\n      add\n      0x20\n      dup1\n      swap2\n      div\n      mul\n      0x20\n      add\n      mload(0x40)\n      swap1\n      dup2\n      add\n      0x40\n      mstore\n      dup1\n      swap3\n      swap2\n      swap1\n      dup2\n      dup2\n      mstore\n      0x20\n      add\n      dup3\n      dup1\n      sload\n      tag_148\n      swap1\n      tag_147\n      jump\t// in\n    tag_148:\n      dup1\n      iszero\n      tag_149\n      jumpi\n      dup1\n      0x1f\n      lt\n      tag_150\n      jumpi\n      0x0100\n      dup1\n      dup4\n      sload\n      div\n      mul\n      dup4\n      mstore\n      swap2\n      0x20\n      add\n      swap2\n      jump(tag_149)\n    tag_150:\n      dup3\n      add\n      swap2\n      swap1\n      0x00\n      mstore\n      keccak256(0x00, 0x20)\n      swap1\n    tag_151:\n      dup2\n      sload\n      dup2\n      mstore\n      swap1\n      0x01\n      add\n      swap1\n      0x20\n      add\n      dup1\n      dup4\n      gt\n      tag_151\n      jumpi\n      dup3\n      swap1\n      sub\n      0x1f\n      and\n      dup3\n      add\n      swap2\n    tag_149:\n      pop\n      pop\n      pop\n      pop\n      pop\n      dup2\n      mstore\n      0x20\n      add\n      0x01\n      dup3\n      add\n      dup1\n      sload\n      tag_152\n      swap1\n      tag_147\n      jump\t// in\n    tag_152:\n      dup1\n      0x1f\n      add\n      0x20\n      dup1\n      swap2\n      div\n      mul\n      0x20\n      add\n      mload(0x40)\n      swap1\n      dup2\n      add\n      0x40\n      mstore\n      dup1\n      swap3\n      swap2\n      swap1\n      dup2\n      dup2\n      mstore\n      0x20\n      add\n      dup3\n      dup1\n      sload\n      tag_153\n      swap1\n      tag_147\n      jump\t// in\n    tag_153:\n      dup1\n      iszero\n      tag_154\n      jumpi\n      dup1\n      0x1f\n      lt\n      tag_155\n      jumpi\n      0x0100\n      dup1\n      dup4\n      sload\n      div\n      mul\n      dup4\n      mstore\n      swap2\n      0x20\n      add\n      swap2\n      jump(tag_154)\n    tag_155:\n      dup3\n      add\n      swap2\n      swap1\n      0x00\n      mstore\n      keccak256(0x00, 0x20)\n      swap1\n    tag_156:\n      dup2\n      sload\n      dup2\n      mstore\n      swap1\n      0x01\n      add\n      swap1\n      0x20\n      add\n      dup1\n      dup4\n      gt\n      tag_156\n      jumpi\n      dup3\n      swap1\n      sub\n      0x1f\n      and\n      dup3\n      add\n      swap2\n    tag_154:\n      pop\n      pop\n      pop\n      pop\n      pop\n      dup2\n      mstore\n      0x20\n      add\n      0x02\n      dup3\n      add\n      0x00\n      swap1\n      sload\n      swap1\n      0x0100\n      exp\n      swap1\n      div\n      0xffffffffffffffffffffffffffffffffffffffff\n      and\n      0xffffffffffffffffffffffffffffffffffffffff\n      and\n      0xffffffffffffffffffffffffffffffffffffffff\n      and\n      dup2\n      mstore\n      0x20\n      add\n      0x03\n      dup3\n      add\n      dup1\n      sload\n      tag_157\n      swap1\n      tag_147\n      jump\t// in\n    tag_157:\n      dup1\n      0x1f\n      add\n      0x20\n      dup1\n      swap2\n      div\n      mul\n      0x20\n      add\n      mload(0x40)\n      swap1\n      dup2\n      add\n      0x40\n      mstore\n      dup1\n      swap3\n      swap2\n      swap1\n      dup2\n      dup2\n      mstore\n      0x20\n      add\n      dup3\n      dup1\n      sload\n      tag_158\n      swap1\n      tag_147\n      jump\t// in\n    tag_158:\n      dup1\n      iszero\n      tag_159\n      jumpi\n      dup1\n      0x1f\n      lt\n      tag_160\n      jumpi\n      0x0100\n      dup1\n      dup4\n      sload\n      div\n      mul\n      dup4\n      mstore\n      swap2\n      0x20\n      add\n      swap2\n      jump(tag_159)\n    tag_160:\n      dup3\n      add\n      swap2\n      swap1\n      0x00\n      mstore\n      keccak256(0x00, 0x20)\n      swap1\n    tag_161:\n      dup2\n      sload\n      dup2\n      mstore\n      swap1\n      0x01\n      add\n      swap1\n      0x20\n      add\n      dup1\n      dup4\n      gt\n      tag_161\n      jumpi\n      dup3\n      swap1\n      sub\n      0x1f\n      and\n      dup3\n      add\n      swap2\n    tag_159:\n      pop\n      pop\n      pop\n      pop\n      pop\n      dup2\n      mstore\n      0x20\n      add\n      0x04\n      dup3\n      add\n      dup1\n      sload\n      tag_162\n      swap1\n      tag_147\n      jump\t// in\n    tag_162:\n      dup1\n      0x1f\n      add\n      0x20\n      dup1\n      swap2\n      div\n      mul\n      0x20\n      add\n      mload(0x40)\n      swap1\n      dup2\n      add\n      0x40\n      mstore\n      dup1\n      swap3\n      swap2\n      swap1\n      dup2\n      dup2\n      mstore\n      0x20\n      add\n      dup3\n      dup1\n      sload\n      tag_163\n      swap1\n      tag_147\n      jump\t// in\n    tag_163:\n      dup1\n      iszero\n      tag_164\n      jumpi\n      dup1\n      0x1f\n      lt\n      tag_165\n      jumpi\n      0x0100\n      dup1\n      dup4\n      sload\n      div\n      mul\n      dup4\n      mstore\n      swap2\n      0x20\n      add\n      swap2\n      jump(tag_164)\n    tag_165:\n      dup3\n      add\n      swap2\n      swap1\n      0x00\n      mstore\n      keccak256(0x00, 0x20)\n      swap1\n    tag_166:\n      dup2\n      sload\n      dup2\n      mstore\n      swap1\n      0x01\n      add\n      swap1\n      0x20\n      add\n      dup1\n      dup4\n      gt\n      tag_166\n      jumpi\n      dup3\n      swap1\n      sub\n      0x1f\n      and\n      dup3\n      add\n      swap2\n    tag_164:\n      pop\n      pop\n      pop\n      pop\n      pop\n      dup2\n      mstore\n      0x20\n      add\n      0x05\n      dup3\n      add\n      dup1\n      sload\n      tag_167\n      swap1\n      tag_147\n      jump\t// in\n    tag_167:\n      dup1\n      0x1f\n      add\n      0x20\n      dup1\n      swap2\n      div\n      mul\n      0x20\n      add\n      mload(0x40)\n      swap1\n      dup2\n      add\n      0x40\n      mstore\n      dup1\n      swap3\n      swap2\n      swap1\n      dup2\n      dup2\n      mstore\n      0x20\n      add\n      dup3\n      dup1\n      sload\n      tag_168\n      swap1\n      tag_147\n      jump\t// in\n    tag_168:\n      dup1\n      iszero\n      tag_169\n      jumpi\n      dup1\n      0x1f\n      lt\n      tag_170\n      jumpi\n      0x0100\n      dup1\n      dup4\n      sload\n      div\n      mul\n      dup4\n      mstore\n      swap2\n      0x20\n      add\n      swap2\n      jump(tag_169)\n    tag_170:\n      dup3\n      add\n      swap2\n      swap1\n      0x00\n      mstore\n      keccak256(0x00, 0x20)\n      swap1\n    tag_171:\n      dup2\n      sload\n      dup2\n      mstore\n      swap1\n      0x01\n      add\n      swap1\n      0x20\n      add\n      dup1\n      dup4\n      gt\n      tag_171\n      jumpi\n      dup3\n      swap1\n      sub\n      0x1f\n      and\n      dup3\n      add\n      swap2\n    tag_169:\n      pop\n      pop\n      pop\n      pop\n      pop\n      dup2\n      mstore\n      0x20\n      add\n      0x06\n      dup3\n      add\n      dup1\n      sload\n      tag_172\n      swap1\n      tag_147\n      jump\t// in\n    tag_172:\n      dup1\n      0x1f\n      add\n      0x20\n      dup1\n      swap2\n      div\n      mul\n      0x20\n      add\n      mload(0x40)\n      swap1\n      dup2\n      add\n      0x40\n      mstore\n      dup1\n      swap3\n      swap2\n      swap1\n      dup2\n      dup2\n      mstore\n      0x20\n      add\n      dup3\n      dup1\n      sload\n      tag_173\n      swap1\n      tag_147\n      jump\t// in\n    tag_173:\n      dup1\n      iszero\n      tag_174\n      jumpi\n      dup1\n      0x1f\n      lt\n      tag_175\n      jumpi\n      0x0100\n      dup1\n      dup4\n      sload\n      div\n      mul\n      dup4\n      mstore\n      swap2\n      0x20\n      add\n      swap2\n      jump(tag_174)\n    tag_175:\n      dup3\n      add\n      swap2\n      swap1\n      0x00\n      mstore\n      keccak256(0x00, 0x20)\n      swap1\n    tag_176:\n      dup2\n      sload\n      dup2\n      mstore\n      swap1\n      0x01\n      add\n      swap1\n      0x20\n      add\n      dup1\n      dup4\n      gt\n      tag_176\n      jumpi\n      dup3\n      swap1\n      sub\n      0x1f\n      and\n      dup3\n      add\n      swap2\n    tag_174:\n      pop\n      pop\n      pop\n      pop\n      pop\n      dup2\n      mstore\n      0x20\n      add\n      0x07\n      dup3\n      add\n      sload\n      dup2\n      mstore\n      pop\n      pop\n      swap1\n      dup1\n      0x08\n      add\n      mload(0x40)\n      dup1\n      0xc0\n      add\n      0x40\n      mstore\n      swap1\n      dup2\n      0x00\n      dup3\n      add\n      dup1\n      sload\n      tag_177\n      swap1\n      tag_147\n      jump\t// in\n    tag_177:\n      dup1\n      0x1f\n      add\n      0x20\n      dup1\n      swap2\n      div\n      mul\n      0x20\n      add\n      mload(0x40)\n      swap1\n      dup2\n      add\n      0x40\n      mstore\n      dup1\n      swap3\n      swap2\n      swap1\n      dup2\n      dup2\n      mstore\n      0x20\n      add\n      dup3\n      dup1\n      sload\n      tag_178\n      swap1\n      tag_147\n      jump\t// in\n    tag_178:\n      dup1\n      iszero\n      tag_179\n      jumpi\n      dup1\n      0x1f\n      lt\n      tag_180\n      jumpi\n      0x0100\n      dup1\n      dup4\n      sload\n      div\n      mul\n      dup4\n      mstore\n      swap2\n      0x20\n      add\n      swap2\n      jump(tag_179)\n    tag_180:\n      dup3\n      add\n      swap2\n      swap1\n      0x00\n      mstore\n      keccak256(0x00, 0x20)\n      swap1\n    tag_181:\n      dup2\n      sload\n      dup2\n      mstore\n      swap1\n      0x01\n      add\n      swap1\n      0x20\n      add\n      dup1\n      dup4\n      gt\n      tag_181\n      jumpi\n      dup3\n      swap1\n      sub\n      0x1f\n      and\n      dup3\n      add\n      swap2\n    tag_179:\n      pop\n      pop\n      pop\n      pop\n      pop\n      dup2\n      mstore\n      0x20\n      add\n      0x01\n      dup3\n      add\n      dup1\n      sload\n      tag_182\n      swap1\n      tag_147\n      jump\t// in\n    tag_182:\n      dup1\n      0x1f\n      add\n      0x20\n      dup1\n      swap2\n      div\n      mul\n      0x20\n      add\n      mload(0x40)\n      swap1\n      dup2\n      add\n      0x40\n      mstore\n      dup1\n      swap3\n      swap2\n      swap1\n      dup2\n      dup2\n      mstore\n      0x20\n      add\n      dup3\n      dup1\n      sload\n      tag_183\n      swap1\n      tag_147\n      jump\t// in\n    tag_183:\n      dup1\n      iszero\n      tag_184\n      jumpi\n      dup1\n      0x1f\n      lt\n      tag_185\n      jumpi\n      0x0100\n      dup1\n      dup4\n      sload\n      div\n      mul\n      dup4\n      mstore\n      swap2\n      0x20\n      add\n      swap2\n      jump(tag_184)\n    tag_185:\n      dup3\n      add\n      swap2\n      swap1\n      0x00\n      mstore\n      keccak256(0x00, 0x20)\n      swap1\n    tag_186:\n      dup2\n      sload\n      dup2\n      mstore\n      swap1\n      0x01\n      add\n      swap1\n      0x20\n      add\n      dup1\n      dup4\n      gt\n      tag_186\n      jumpi\n      dup3\n      swap1\n      sub\n      0x1f\n      and\n      dup3\n      add\n      swap2\n    tag_184:\n      pop\n      pop\n      pop\n      pop\n      pop\n      dup2\n      mstore\n      0x20\n      add\n      0x02\n      dup3\n      add\n      dup1\n      sload\n      tag_187\n      swap1\n      tag_147\n      jump\t// in\n    tag_187:\n      dup1\n      0x1f\n      add\n      0x20\n      dup1\n      swap2\n      div\n      mul\n      0x20\n      add\n      mload(0x40)\n      swap1\n      dup2\n      add\n      0x40\n      mstore\n      dup1\n      swap3\n      swap2\n      swap1\n      dup2\n      dup2\n      mstore\n      0x20\n      add\n      dup3\n      dup1\n      sload\n      tag_188\n      swap1\n      tag_147\n      jump\t// in\n    tag_188:\n      dup1\n      iszero\n      tag_189\n      jumpi\n      dup1\n      0x1f\n      lt\n      tag_190\n      jumpi\n      0x0100\n      dup1\n      dup4\n      sload\n      div\n      mul\n      dup4\n      mstore\n      swap2\n      0x20\n      add\n      swap2\n      jump(tag_189)\n    tag_190:\n      dup3\n      add\n      swap2\n      swap1\n      0x00\n      mstore\n      keccak256(0x00, 0x20)\n      swap1\n    tag_191:\n      dup2\n      sload\n      dup2\n      mstore\n      swap1\n      0x01\n      add\n      swap1\n      0x20\n      add\n      dup1\n      dup4\n      gt\n      tag_191\n      jumpi\n      dup3\n      swap1\n      sub\n      0x1f\n      and\n      dup3\n      add\n      swap2\n    tag_189:\n      pop\n      pop\n      pop\n      pop\n      pop\n      dup2\n      mstore\n      0x20\n      add\n      0x03\n      dup3\n      add\n      dup1\n      sload\n      tag_192\n      swap1\n      tag_147\n      jump\t// in\n    tag_192:\n      dup1\n      0x1f\n      add\n      0x20\n      dup1\n      swap2\n      div\n      mul\n      0x20\n      add\n      mload(0x40)\n      swap1\n      dup2\n      add\n      0x40\n      mstore\n      dup1\n      swap3\n      swap2\n      swap1\n      dup2\n      dup2\n      mstore\n      0x20\n      add\n      dup3\n      dup1\n      sload\n      tag_193\n      swap1\n      tag_147\n      jump\t// in\n    tag_193:\n      dup1\n      iszero\n      tag_194\n      jumpi\n      dup1\n      0x1f\n      lt\n      tag_195\n      jumpi\n      0x0100\n      dup1\n      dup4\n      sload\n      div\n      mul\n      dup4\n      mstore\n      swap2\n      0x20\n      add\n      swap2\n      jump(tag_194)\n    tag_195:\n      dup3\n      add\n      swap2\n      swap1\n      0x00\n      mstore\n      keccak256(0x00, 0x20)\n      swap1\n    tag_196:\n      dup2\n      sload\n      dup2\n      mstore\n      swap1\n      0x01\n      add\n      swap1\n      0x20\n      add\n      dup1\n      dup4\n      gt\n      tag_196\n      jumpi\n      dup3\n      swap1\n      sub\n      0x1f\n      and\n      dup3\n      add\n      swap2\n    tag_194:\n      pop\n      pop\n      pop\n      pop\n      pop\n      dup2\n      mstore\n      0x20\n      add\n      0x04\n      dup3\n      add\n      dup1\n      sload\n      tag_197\n      swap1\n      tag_147\n      jump\t// in\n    tag_197:\n      dup1\n      0x1f\n      add\n      0x20\n      dup1\n      swap2\n      div\n      mul\n      0x20\n      add\n      mload(0x40)\n      swap1\n      dup2\n      add\n      0x40\n      mstore\n      dup1\n      swap3\n      swap2\n      swap1\n      dup2\n      dup2\n      mstore\n      0x20\n      add\n      dup3\n      dup1\n      sload\n      tag_198\n      swap1\n      tag_147\n      jump\t// in\n    tag_198:\n      dup1\n      iszero\n      tag_199\n      jumpi\n      dup1\n      0x1f\n      lt\n      tag_200\n      jumpi\n      0x0100\n      dup1\n      dup4\n      sload\n      div\n      mul\n      dup4\n      mstore\n      swap2\n      0x20\n      add\n      swap2\n      jump(tag_199)\n    tag_200:\n      dup3\n      add\n      swap2\n      swap1\n      0x00\n      mstore\n      keccak256(0x00, 0x20)\n      swap1\n    tag_201:\n      dup2\n      sload\n      dup2\n      mstore\n      swap1\n      0x01\n      add\n      swap1\n      0x20\n      add\n      dup1\n      dup4\n      gt\n      tag_201\n      jumpi\n      dup3\n      swap1\n      sub\n      0x1f\n      and\n      dup3\n      add\n      swap2\n    tag_199:\n      pop\n      pop\n      pop\n      pop\n      pop\n      dup2\n      mstore\n      0x20\n      add\n      0x05\n      dup3\n      add\n      dup1\n      sload\n      tag_202\n      swap1\n      tag_147\n      jump\t// in\n    tag_202:\n      dup1\n      0x1f\n      add\n      0x20\n      dup1\n      swap2\n      div\n      mul\n      0x20\n      add\n      mload(0x40)\n      swap1\n      dup2\n      add\n      0x40\n      mstore\n      dup1\n      swap3\n      swap2\n      swap1\n      dup2\n      dup2\n      mstore\n      0x20\n      add\n      dup3\n      dup1\n      sload\n      tag_203\n      swap1\n      tag_147\n      jump\t// in\n    tag_203:\n      dup1\n      iszero\n      tag_204\n      jumpi\n      dup1\n      0x1f\n      lt\n      tag_205\n      jumpi\n      0x0100\n      dup1\n      dup4\n      sload\n      div\n      mul\n      dup4\n      mstore\n      swap2\n      0x20\n      add\n      swap2\n      jump(tag_204)\n    tag_205:\n      dup3\n      add\n      swap2\n      swap1\n      0x00\n      mstore\n      keccak256(0x00, 0x20)\n      swap1\n    tag_206:\n      dup2\n      sload\n      dup2\n      mstore\n      swap1\n      0x01\n      add\n      swap1\n      0x20\n      add\n      dup1\n      dup4\n      gt\n      tag_206\n      jumpi\n      dup3\n      swap1\n      sub\n      0x1f\n      and\n      dup3\n      add\n      swap2\n    tag_204:\n      pop\n      pop\n      pop\n      pop\n      pop\n      dup2\n      mstore\n      pop\n      pop\n      swap1\n      dup1\n      0x0e\n      add\n      mload(0x40)\n      dup1\n      0x60\n      add\n      0x40\n      mstore\n      swap1\n      dup2\n      0x00\n      dup3\n      add\n      dup1\n      sload\n      dup1\n      0x20\n      mul\n      0x20\n      add\n      mload(0x40)\n      swap1\n      dup2\n      add\n      0x40\n      mstore\n      dup1\n      swap3\n      swap2\n      swap1\n      dup2\n      dup2\n      mstore\n      0x20\n      add\n      0x00\n      swap1\n    tag_207:\n      dup3\n      dup3\n      lt\n      iszero\n      tag_208\n      jumpi\n      dup4\n      dup3\n      swap1\n      0x00\n      mstore\n      keccak256(0x00, 0x20)\n      add\n      dup1\n      sload\n      tag_210\n      swap1\n      tag_147\n      jump\t// in\n    tag_210:\n      dup1\n      0x1f\n      add\n      0x20\n      dup1\n      swap2\n      div\n      mul\n      0x20\n      add\n      mload(0x40)\n      swap1\n      dup2\n      add\n      0x40\n      mstore\n      dup1\n      swap3\n      swap2\n      swap1\n      dup2\n      dup2\n      mstore\n      0x20\n      add\n      dup3\n      dup1\n      sload\n      tag_211\n      swap1\n      tag_147\n      jump\t// in\n    tag_211:\n      dup1\n      iszero\n      tag_212\n      jumpi\n      dup1\n      0x1f\n      lt\n      tag_213\n      jumpi\n      0x0100\n      dup1\n      dup4\n      sload\n      div\n      mul\n      dup4\n      mstore\n      swap2\n      0x20\n      add\n      swap2\n      jump(tag_212)\n    tag_213:\n      dup3\n      add\n      swap2\n      swap1\n      0x00\n      mstore\n      keccak256(0x00, 0x20)\n      swap1\n    tag_214:\n      dup2\n      sload\n      dup2\n      mstore\n      swap1\n      0x01\n      add\n      swap1\n      0x20\n      add\n      dup1\n      dup4\n      gt\n      tag_214\n      jumpi\n      dup3\n      swap1\n      sub\n      0x1f\n      and\n      dup3\n      add\n      swap2\n    tag_212:\n      pop\n      pop\n      pop\n      pop\n      pop\n      dup2\n      mstore\n      0x20\n      add\n      swap1\n      0x01\n      add\n      swap1\n      jump(tag_207)\n    tag_208:\n      pop\n      pop\n      pop\n      pop\n      dup2\n      mstore\n      0x20\n      add\n      0x01\n      dup3\n      add\n      dup1\n      sload\n      dup1\n      0x20\n      mul\n      0x20\n      add\n      mload(0x40)\n      swap1\n      dup2\n      add\n      0x40\n      mstore\n      dup1\n      swap3\n      swap2\n      swap1\n      dup2\n      dup2\n      mstore\n      0x20\n      add\n      0x00\n      swap1\n    tag_215:\n      dup3\n      dup3\n      lt\n      iszero\n      tag_216\n      jumpi\n      dup4\n      dup3\n      swap1\n      0x00\n      mstore\n      keccak256(0x00, 0x20)\n      add\n      dup1\n      sload\n      tag_218\n      swap1\n      tag_147\n      jump\t// in\n    tag_218:\n      dup1\n      0x1f\n      add\n      0x20\n      dup1\n      swap2\n      div\n      mul\n      0x20\n      add\n      mload(0x40)\n      swap1\n      dup2\n      add\n      0x40\n      mstore\n      dup1\n      swap3\n      swap2\n      swap1\n      dup2\n      dup2\n      mstore\n      0x20\n      add\n      dup3\n      dup1\n      sload\n      tag_219\n      swap1\n      tag_147\n      jump\t// in\n    tag_219:\n      dup1\n      iszero\n      tag_220\n      jumpi\n      dup1\n      0x1f\n      lt\n      tag_221\n      jumpi\n      0x0100\n      dup1\n      dup4\n      sload\n      div\n      mul\n      dup4\n      mstore\n      swap2\n      0x20\n      add\n      swap2\n      jump(tag_220)\n    tag_221:\n      dup3\n      add\n      swap2\n      swap1\n      0x00\n      mstore\n      keccak256(0x00, 0x20)\n      swap1\n    tag_222:\n      dup2\n      sload\n      dup2\n      mstore\n      swap1\n      0x01\n      add\n      swap1\n      0x20\n      add\n      dup1\n      dup4\n      gt\n      tag_222\n      jumpi\n      dup3\n      swap1\n      sub\n      0x1f\n      and\n      dup3\n      add\n      swap2\n    tag_220:\n      pop\n      pop\n      pop\n      pop\n      pop\n      dup2\n      mstore\n      0x20\n      add\n      swap1\n      0x01\n      add\n      swap1\n      jump(tag_215)\n    tag_216:\n      pop\n      pop\n      pop\n      pop\n      dup2\n      mstore\n      0x20\n      add\n      0x02\n      dup3\n      add\n      dup1\n      sload\n      dup1\n      0x20\n      mul\n      0x20\n      add\n      mload(0x40)\n      swap1\n      dup2\n      add\n      0x40\n      mstore\n      dup1\n      swap3\n      swap2\n      swap1\n      dup2\n      dup2\n      mstore\n      0x20\n      add\n      0x00\n      swap1\n    tag_223:\n      dup3\n      dup3\n      lt\n      iszero\n      tag_224\n      jumpi\n      dup4\n      dup3\n      swap1\n      0x00\n      mstore\n      keccak256(0x00, 0x20)\n      add\n      dup1\n      sload\n      tag_226\n      swap1\n      tag_147\n      jump\t// in\n    tag_226:\n      dup1\n      0x1f\n      add\n      0x20\n      dup1\n      swap2\n      div\n      mul\n      0x20\n      add\n      mload(0x40)\n      swap1\n      dup2\n      add\n      0x40\n      mstore\n      dup1\n      swap3\n      swap2\n      swap1\n      dup2\n      dup2\n      mstore\n      0x20\n      add\n      dup3\n      dup1\n      sload\n      tag_227\n      swap1\n      tag_147\n      jump\t// in\n    tag_227:\n      dup1\n      iszero\n      tag_228\n      jumpi\n      dup1\n      0x1f\n      lt\n      tag_229\n      jumpi\n      0x0100\n      dup1\n      dup4\n      sload\n      div\n      mul\n      dup4\n      mstore\n      swap2\n      0x20\n      add\n      swap2\n      jump(tag_228)\n    tag_229:\n      dup3\n      add\n      swap2\n      swap1\n      0x00\n      mstore\n      keccak256(0x00, 0x20)\n      swap1\n    tag_230:\n      dup2\n      sload\n      dup2\n      mstore\n      swap1\n      0x01\n      add\n      swap1\n      0x20\n      add\n      dup1\n      dup4\n      gt\n      tag_230\n      jumpi\n      dup3\n      swap1\n      sub\n      0x1f\n      and\n      dup3\n      add\n      swap2\n    tag_228:\n      pop\n      pop\n      pop\n      pop\n      pop\n      dup2\n      mstore\n      0x20\n      add\n      swap1\n      0x01\n      add\n      swap1\n      jump(tag_223)\n    tag_224:\n      pop\n      pop\n      pop\n      pop\n      dup2\n      mstore\n      pop\n      pop\n      swap1\n      dup1\n      0x12\n      add\n      mload(0x40)\n      dup1\n      0x40\n      add\n      0x40\n      mstore\n      swap1\n      dup2\n      0x00\n      dup3\n      add\n      dup1\n      sload\n      dup1\n      0x20\n      mul\n      0x20\n      add\n      mload(0x40)\n      swap1\n      dup2\n      add\n      0x40\n      mstore\n      dup1\n      swap3\n      swap2\n      swap1\n      dup2\n      dup2\n      mstore\n      0x20\n      add\n      0x00\n      swap1\n    tag_231:\n      dup3\n      dup3\n      lt\n      iszero\n      tag_232\n      jumpi\n      dup4\n      dup3\n      swap1\n      0x00\n      mstore\n      keccak256(0x00, 0x20)\n      add\n      dup1\n      sload\n      tag_234\n      swap1\n      tag_147\n      jump\t// in\n    tag_234:\n      dup1\n      0x1f\n      add\n      0x20\n      dup1\n      swap2\n      div\n      mul\n      0x20\n      add\n      mload(0x40)\n      swap1\n      dup2\n      add\n      0x40\n      mstore\n      dup1\n      swap3\n      swap2\n      swap1\n      dup2\n      dup2\n      mstore\n      0x20\n      add\n      dup3\n      dup1\n      sload\n      tag_235\n      swap1\n      tag_147\n      jump\t// in\n    tag_235:\n      dup1\n      iszero\n      tag_236\n      jumpi\n      dup1\n      0x1f\n      lt\n      tag_237\n      jumpi\n      0x0100\n      dup1\n      dup4\n      sload\n      div\n      mul\n      dup4\n      mstore\n      swap2\n      0x20\n      add\n      swap2\n      jump(tag_236)\n    tag_237:\n      dup3\n      add\n      swap2\n      swap1\n      0x00\n      mstore\n      keccak256(0x00, 0x20)\n      swap1\n    tag_238:\n      dup2\n      sload\n      dup2\n      mstore\n      swap1\n      0x01\n      add\n      swap1\n      0x20\n      add\n      dup1\n      dup4\n      gt\n      tag_238\n      jumpi\n      dup3\n      swap1\n      sub\n      0x1f\n      and\n      dup3\n      add\n      swap2\n    tag_236:\n      pop\n      pop\n      pop\n      pop\n      pop\n      dup2\n      mstore\n      0x20\n      add\n      swap1\n      0x01\n      add\n      swap1\n      jump(tag_231)\n    tag_232:\n      pop\n      pop\n      pop\n      pop\n      dup2\n      mstore\n      0x20\n      add\n      0x01\n      dup3\n      add\n      dup1\n      sload\n      dup1\n      0x20\n      mul\n      0x20\n      add\n      mload(0x40)\n      swap1\n      dup2\n      add\n      0x40\n      mstore\n      dup1\n      swap3\n      swap2\n      swap1\n      dup2\n      dup2\n      mstore\n      0x20\n      add\n      0x00\n      swap1\n    tag_239:\n      dup3\n      dup3\n      lt\n      iszero\n      tag_240\n      jumpi\n      dup4\n      dup3\n      swap1\n      0x00\n      mstore\n      keccak256(0x00, 0x20)\n      add\n      dup1\n      sload\n      tag_242\n      swap1\n      tag_147\n      jump\t// in\n    tag_242:\n      dup1\n      0x1f\n      add\n      0x20\n      dup1\n      swap2\n      div\n      mul\n      0x20\n      add\n      mload(0x40)\n      swap1\n      dup2\n      add\n      0x40\n      mstore\n      dup1\n      swap3\n      swap2\n      swap1\n      dup2\n      dup2\n      mstore\n      0x20\n      add\n      dup3\n      dup1\n      sload\n      tag_243\n      swap1\n      tag_147\n      jump\t// in\n    tag_243:\n      dup1\n      iszero\n      tag_244\n      jumpi\n      dup1\n      0x1f\n      lt\n      tag_245\n      jumpi\n      0x0100\n      dup1\n      dup4\n      sload\n      div\n      mul\n      dup4\n      mstore\n      swap2\n      0x20\n      add\n      swap2\n      jump(tag_244)\n    tag_245:\n      dup3\n      add\n      swap2\n      swap1\n      0x00\n      mstore\n      keccak256(0x00, 0x20)\n      swap1\n    tag_246:\n      dup2\n      sload\n      dup2\n      mstore\n      swap1\n      0x01\n      add\n      swap1\n      0x20\n      add\n      dup1\n      dup4\n      gt\n      tag_246\n      jumpi\n      dup3\n      swap1\n      sub\n      0x1f\n      and\n      dup3\n      add\n      swap2\n    tag_244:\n      pop\n      pop\n      pop\n      pop\n      pop\n      dup2\n      mstore\n      0x20\n      add\n      swap1\n      0x01\n      add\n      swap1\n      jump(tag_239)\n    tag_240:\n      pop\n      pop\n      pop\n      pop\n      dup2\n      mstore\n      pop\n      pop\n      swap1\n      dup1\n      0x14\n      add\n      mload(0x40)\n      dup1\n      0xa0\n      add\n      0x40\n      mstore\n      swap1\n      dup2\n      0x00\n      dup3\n      add\n      dup1\n      sload\n      tag_247\n      swap1\n      tag_147\n      jump\t// in\n    tag_247:\n      dup1\n      0x1f\n      add\n      0x20\n      dup1\n      swap2\n      div\n      mul\n      0x20\n      add\n      mload(0x40)\n      swap1\n      dup2\n      add\n      0x40\n      mstore\n      dup1\n      swap3\n      swap2\n      swap1\n      dup2\n      dup2\n      mstore\n      0x20\n      add\n      dup3\n      dup1\n      sload\n      tag_248\n      swap1\n      tag_147\n      jump\t// in\n    tag_248:\n      dup1\n      iszero\n      tag_249\n      jumpi\n      dup1\n      0x1f\n      lt\n      tag_250\n      jumpi\n      0x0100\n      dup1\n      dup4\n      sload\n      div\n      mul\n      dup4\n      mstore\n      swap2\n      0x20\n      add\n      swap2\n      jump(tag_249)\n    tag_250:\n      dup3\n      add\n      swap2\n      swap1\n      0x00\n      mstore\n      keccak256(0x00, 0x20)\n      swap1\n    tag_251:\n      dup2\n      sload\n      dup2\n      mstore\n      swap1\n      0x01\n      add\n      swap1\n      0x20\n      add\n      dup1\n      dup4\n      gt\n      tag_251\n      jumpi\n      dup3\n      swap1\n      sub\n      0x1f\n      and\n      dup3\n      add\n      swap2\n    tag_249:\n      pop\n      pop\n      pop\n      pop\n      pop\n      dup2\n      mstore\n      0x20\n      add\n      0x01\n      dup3\n      add\n      dup1\n      sload\n      tag_252\n      swap1\n      tag_147\n      jump\t// in\n    tag_252:\n      dup1\n      0x1f\n      add\n      0x20\n      dup1\n      swap2\n      div\n      mul\n      0x20\n      add\n      mload(0x40)\n      swap1\n      dup2\n      add\n      0x40\n      mstore\n      dup1\n      swap3\n      swap2\n      swap1\n      dup2\n      dup2\n      mstore\n      0x20\n      add\n      dup3\n      dup1\n      sload\n      tag_253\n      swap1\n      tag_147\n      jump\t// in\n    tag_253:\n      dup1\n      iszero\n      tag_254\n      jumpi\n      dup1\n      0x1f\n      lt\n      tag_255\n      jumpi\n      0x0100\n      dup1\n      dup4\n      sload\n      div\n      mul\n      dup4\n      mstore\n      swap2\n      0x20\n      add\n      swap2\n      jump(tag_254)\n    tag_255:\n      dup3\n      add\n      swap2\n      swap1\n      0x00\n      mstore\n      keccak256(0x00, 0x20)\n      swap1\n    tag_256:\n      dup2\n      sload\n      dup2\n      mstore\n      swap1\n      0x01\n      add\n      swap1\n      0x20\n      add\n      dup1\n      dup4\n      gt\n      tag_256\n      jumpi\n      dup3\n      swap1\n      sub\n      0x1f\n      and\n      dup3\n      add\n      swap2\n    tag_254:\n      pop\n      pop\n      pop\n      pop\n      pop\n      dup2\n      mstore\n      0x20\n      add\n      0x02\n      dup3\n      add\n      dup1\n      sload\n      tag_257\n      swap1\n      tag_147\n      jump\t// in\n    tag_257:\n      dup1\n      0x1f\n      add\n      0x20\n      dup1\n      swap2\n      div\n      mul\n      0x20\n      add\n      mload(0x40)\n      swap1\n      dup2\n      add\n      0x40\n      mstore\n      dup1\n      swap3\n      swap2\n      swap1\n      dup2\n      dup2\n      mstore\n      0x20\n      add\n      dup3\n      dup1\n      sload\n      tag_258\n      swap1\n      tag_147\n      jump\t// in\n    tag_258:\n      dup1\n      iszero\n      tag_259\n      jumpi\n      dup1\n      0x1f\n      lt\n      tag_260\n      jumpi\n      0x0100\n      dup1\n      dup4\n      sload\n      div\n      mul\n      dup4\n      mstore\n      swap2\n      0x20\n      add\n      swap2\n      jump(tag_259)\n    tag_260:\n      dup3\n      add\n      swap2\n      swap1\n      0x00\n      mstore\n      keccak256(0x00, 0x20)\n      swap1\n    tag_261:\n      dup2\n      sload\n      dup2\n      mstore\n      swap1\n      0x01\n      add\n      swap1\n      0x20\n      add\n      dup1\n      dup4\n      gt\n      tag_261\n      jumpi\n      dup3\n      swap1\n      sub\n      0x1f\n      and\n      dup3\n      add\n      swap2\n    tag_259:\n      pop\n      pop\n      pop\n      pop\n      pop\n      dup2\n      mstore\n      0x20\n      add\n      0x03\n      dup3\n      add\n      dup1\n      sload\n      tag_262\n      swap1\n      tag_147\n      jump\t// in\n    tag_262:\n      dup1\n      0x1f\n      add\n      0x20\n      dup1\n      swap2\n      div\n      mul\n      0x20\n      add\n      mload(0x40)\n      swap1\n      dup2\n      add\n      0x40\n      mstore\n      dup1\n      swap3\n      swap2\n      swap1\n      dup2\n      dup2\n      mstore\n      0x20\n      add\n      dup3\n      dup1\n      sload\n      tag_263\n      swap1\n      tag_147\n      jump\t// in\n    tag_263:\n      dup1\n      iszero\n      tag_264\n      jumpi\n      dup1\n      0x1f\n      lt\n      tag_265\n      jumpi\n      0x0100\n      dup1\n      dup4\n      sload\n      div\n      mul\n      dup4\n      mstore\n      swap2\n      0x20\n      add\n      swap2\n      jump(tag_264)\n    tag_265:\n      dup3\n      add\n      swap2\n      swap1\n      0x00\n      mstore\n      keccak256(0x00, 0x20)\n      swap1\n    tag_266:\n      dup2\n      sload\n      dup2\n      mstore\n      swap1\n      0x01\n      add\n      swap1\n      0x20\n      add\n      dup1\n      dup4\n      gt\n      tag_266\n      jumpi\n      dup3\n      swap1\n      sub\n      0x1f\n      and\n      dup3\n      add\n      swap2\n    tag_264:\n      pop\n      pop\n      pop\n      pop\n      pop\n      dup2\n      mstore\n      0x20\n      add\n      0x04\n      dup3\n      add\n      dup1\n      sload\n      dup1\n      0x20\n      mul\n      0x20\n      add\n      mload(0x40)\n      swap1\n      dup2\n      add\n      0x40\n      mstore\n      dup1\n      swap3\n      swap2\n      swap1\n      dup2\n      dup2\n      mstore\n      0x20\n      add\n      0x00\n      swap1\n    tag_267:\n      dup3\n      dup3\n      lt\n      iszero\n      tag_268\n      jumpi\n      dup4\n      dup3\n      swap1\n      0x00\n      mstore\n      keccak256(0x00, 0x20)\n      add\n      dup1\n      sload\n      tag_270\n      swap1\n      tag_147\n      jump\t// in\n    tag_270:\n      dup1\n      0x1f\n      add\n      0x20\n      dup1\n      swap2\n      div\n      mul\n      0x20\n      add\n      mload(0x40)\n      swap1\n      dup2\n      add\n      0x40\n      mstore\n      dup1\n      swap3\n      swap2\n      swap1\n      dup2\n      dup2\n      mstore\n      0x20\n      add\n      dup3\n      dup1\n      sload\n      tag_271\n      swap1\n      tag_147\n      jump\t// in\n    tag_271:\n      dup1\n      iszero\n      tag_272\n      jumpi\n      dup1\n      0x1f\n      lt\n      tag_273\n      jumpi\n      0x0100\n      dup1\n      dup4\n      sload\n      div\n      mul\n      dup4\n      mstore\n      swap2\n      0x20\n      add\n      swap2\n      jump(tag_272)\n    tag_273:\n      dup3\n      add\n      swap2\n      swap1\n      0x00\n      mstore\n      keccak256(0x00, 0x20)\n      swap1\n    tag_274:\n      dup2\n      sload\n      dup2\n      mstore\n      swap1\n      0x01\n      add\n      swap1\n      0x20\n      add\n      dup1\n      dup4\n      gt\n      tag_274\n      jumpi\n      dup3\n      swap1\n      sub\n      0x1f\n      and\n      dup3\n      add\n      swap2\n    tag_272:\n      pop\n      pop\n      pop\n      pop\n      pop\n      dup2\n      mstore\n      0x20\n      add\n      swap1\n      0x01\n      add\n      swap1\n      jump(tag_267)\n    tag_268:\n      pop\n      pop\n      pop\n      pop\n      dup2\n      mstore\n      pop\n      pop\n      swap1\n      dup1\n      0x19\n      add\n      mload(0x40)\n      dup1\n      0x40\n      add\n      0x40\n      mstore\n      swap1\n      dup2\n      0x00\n      dup3\n      add\n      dup1\n      sload\n      tag_275\n      swap1\n      tag_147\n      jump\t// in\n    tag_275:\n      dup1\n      0x1f\n      add\n      0x20\n      dup1\n      swap2\n      div\n      mul\n      0x20\n      add\n      mload(0x40)\n      swap1\n      dup2\n      add\n      0x40\n      mstore\n      dup1\n      swap3\n      swap2\n      swap1\n      dup2\n      dup2\n      mstore\n      0x20\n      add\n      dup3\n      dup1\n      sload\n      tag_276\n      swap1\n      tag_147\n      jump\t// in\n    tag_276:\n      dup1\n      iszero\n      tag_277\n      jumpi\n      dup1\n      0x1f\n      lt\n      tag_278\n      jumpi\n      0x0100\n      dup1\n      dup4\n      sload\n      div\n      mul\n      dup4\n      mstore\n      swap2\n      0x20\n      add\n      swap2\n      jump(tag_277)\n    tag_278:\n      dup3\n      add\n      swap2\n      swap1\n      0x00\n      mstore\n      keccak256(0x00, 0x20)\n      swap1\n    tag_279:\n      dup2\n      sload\n      dup2\n      mstore\n      swap1\n      0x01\n      add\n      swap1\n      0x20\n      add\n      dup1\n      dup4\n      gt\n      tag_279\n      jumpi\n      dup3\n      swap1\n      sub\n      0x1f\n      and\n      dup3\n      add\n      swap2\n    tag_277:\n      pop\n      pop\n      pop\n      pop\n      pop\n      dup2\n      mstore\n      0x20\n      add\n      0x01\n      dup3\n      add\n      dup1\n      sload\n      tag_280\n      swap1\n      tag_147\n      jump\t// in\n    tag_280:\n      dup1\n      0x1f\n      add\n      0x20\n      dup1\n      swap2\n      div\n      mul\n      0x20\n      add\n      mload(0x40)\n      swap1\n      dup2\n      add\n      0x40\n      mstore\n      dup1\n      swap3\n      swap2\n      swap1\n      dup2\n      dup2\n      mstore\n      0x20\n      add\n      dup3\n      dup1\n      sload\n      tag_281\n      swap1\n      tag_147\n      jump\t// in\n    tag_281:\n      dup1\n      iszero\n      tag_282\n      jumpi\n      dup1\n      0x1f\n      lt\n      tag_283\n      jumpi\n      0x0100\n      dup1\n      dup4\n      sload\n      div\n      mul\n      dup4\n      mstore\n      swap2\n      0x20\n      add\n      swap2\n      jump(tag_282)\n    tag_283:\n      dup3\n      add\n      swap2\n      swap1\n      0x00\n      mstore\n      keccak256(0x00, 0x20)\n      swap1\n    tag_284:\n      dup2\n      sload\n      dup2\n      mstore\n      swap1\n      0x01\n      add\n      swap1\n      0x20\n      add\n      dup1\n      dup4\n      gt\n      tag_284\n      jumpi\n      dup3\n      swap1\n      sub\n      0x1f\n      and\n      dup3\n      add\n      swap2\n    tag_282:\n      pop\n      pop\n      pop\n      pop\n      pop\n      dup2\n      mstore\n      pop\n      pop\n      swap1\n      pop\n      dup7\n      jump\t// out\n        /* \"contracts/Profile.sol\":6053:6157  function delCompanyExperience() external {\r... */\n    tag_67:\n        /* \"contracts/Profile.sol\":6112:6119  profile */\n      0x00\n        /* \"contracts/Profile.sol\":6112:6131  profile[msg.sender] */\n      dup1\n        /* \"contracts/Profile.sol\":6120:6130  msg.sender */\n      caller\n        /* \"contracts/Profile.sol\":6112:6131  profile[msg.sender] */\n      0xffffffffffffffffffffffffffffffffffffffff\n      and\n      0xffffffffffffffffffffffffffffffffffffffff\n      and\n      dup2\n      mstore\n      0x20\n      add\n      swap1\n      dup2\n      mstore\n      0x20\n      add\n      0x00\n      keccak256\n        /* \"contracts/Profile.sol\":6112:6149  profile[msg.sender].companyExperience */\n      0x14\n      add\n      0x00\n        /* \"contracts/Profile.sol\":6105:6149  delete profile[msg.sender].companyExperience */\n      dup1\n      dup3\n      add\n      0x00\n      tag_286\n      swap2\n      swap1\n      tag_83\n      jump\t// in\n    tag_286:\n      0x01\n      dup3\n      add\n      0x00\n      tag_287\n      swap2\n      swap1\n      tag_83\n      jump\t// in\n    tag_287:\n      0x02\n      dup3\n      add\n      0x00\n      tag_288\n      swap2\n      swap1\n      tag_83\n      jump\t// in\n    tag_288:\n      0x03\n      dup3\n      add\n      0x00\n      tag_289\n      swap2\n      swap1\n      tag_83\n      jump\t// in\n    tag_289:\n      0x04\n      dup3\n      add\n      0x00\n      tag_290\n      swap2\n      swap1\n      tag_98\n      jump\t// in\n    tag_290:\n      pop\n      pop\n        /* \"contracts/Profile.sol\":6053:6157  function delCompanyExperience() external {\r... */\n      jump\t// out\n        /* \"contracts/Profile.sol\":1530:1634  function myBalance() public view returns(uint256){\r... */\n    tag_69:\n        /* \"contracts/Profile.sol\":1571:1578  uint256 */\n      0x00\n        /* \"contracts/Profile.sol\":1605:1615  msg.sender */\n      caller\n        /* \"contracts/Profile.sol\":1597:1624  address(msg.sender).balance */\n      0xffffffffffffffffffffffffffffffffffffffff\n      and\n      balance\n        /* \"contracts/Profile.sol\":1590:1624  return address(msg.sender).balance */\n      swap1\n      pop\n        /* \"contracts/Profile.sol\":1530:1634  function myBalance() public view returns(uint256){\r... */\n      swap1\n      jump\t// out\n        /* \"contracts/Profile.sol\":5537:5629  function delAllEducation() external  {\r... */\n    tag_72:\n        /* \"contracts/Profile.sol\":5592:5599  profile */\n      0x00\n        /* \"contracts/Profile.sol\":5592:5611  profile[msg.sender] */\n      dup1\n        /* \"contracts/Profile.sol\":5600:5610  msg.sender */\n      caller\n        /* \"contracts/Profile.sol\":5592:5611  profile[msg.sender] */\n      0xffffffffffffffffffffffffffffffffffffffff\n      and\n      0xffffffffffffffffffffffffffffffffffffffff\n      and\n      dup2\n      mstore\n      0x20\n      add\n      swap1\n      dup2\n      mstore\n      0x20\n      add\n      0x00\n      keccak256\n        /* \"contracts/Profile.sol\":5592:5621  profile[msg.sender].education */\n      0x11\n      add\n      0x00\n        /* \"contracts/Profile.sol\":5585:5621  delete profile[msg.sender].education */\n      tag_293\n      swap2\n      swap1\n      tag_294\n      jump\t// in\n    tag_293:\n        /* \"contracts/Profile.sol\":5537:5629  function delAllEducation() external  {\r... */\n      jump\t// out\n        /* \"contracts/Profile.sol\":3999:4392  function getEducation(uint index) public view returns(string memory, string memory, string memory, string memory, string memory) {\r... */\n    tag_76:\n        /* \"contracts/Profile.sol\":4053:4066  string memory */\n      0x60\n        /* \"contracts/Profile.sol\":4068:4081  string memory */\n      dup1\n        /* \"contracts/Profile.sol\":4083:4096  string memory */\n      0x60\n        /* \"contracts/Profile.sol\":4098:4111  string memory */\n      dup1\n        /* \"contracts/Profile.sol\":4113:4126  string memory */\n      0x60\n        /* \"contracts/Profile.sol\":4147:4154  profile */\n      0x00\n        /* \"contracts/Profile.sol\":4147:4166  profile[msg.sender] */\n      dup1\n        /* \"contracts/Profile.sol\":4155:4165  msg.sender */\n      caller\n        /* \"contracts/Profile.sol\":4147:4166  profile[msg.sender] */\n      0xffffffffffffffffffffffffffffffffffffffff\n      and\n      0xffffffffffffffffffffffffffffffffffffffff\n      and\n      dup2\n      mstore\n      0x20\n      add\n      swap1\n      dup2\n      mstore\n      0x20\n      add\n      0x00\n      keccak256\n        /* \"contracts/Profile.sol\":4147:4176  profile[msg.sender].education */\n      0x11\n      add\n        /* \"contracts/Profile.sol\":4177:4182  index */\n      dup7\n        /* \"contracts/Profile.sol\":4147:4183  profile[msg.sender].education[index] */\n      dup2\n      sload\n      dup2\n      lt\n      tag_296\n      jumpi\n      tag_297\n      tag_298\n      jump\t// in\n    tag_297:\n    tag_296:\n      swap1\n      0x00\n      mstore\n      keccak256(0x00, 0x20)\n      swap1\n      0x05\n      mul\n      add\n        /* \"contracts/Profile.sol\":4147:4193  profile[msg.sender].education[index].startDate */\n      0x00\n      add\n        /* \"contracts/Profile.sol\":4195:4202  profile */\n      0x00\n        /* \"contracts/Profile.sol\":4195:4214  profile[msg.sender] */\n      dup1\n        /* \"contracts/Profile.sol\":4203:4213  msg.sender */\n      caller\n        /* \"contracts/Profile.sol\":4195:4214  profile[msg.sender] */\n      0xffffffffffffffffffffffffffffffffffffffff\n      and\n      0xffffffffffffffffffffffffffffffffffffffff\n      and\n      dup2\n      mstore\n      0x20\n      add\n      swap1\n      dup2\n      mstore\n      0x20\n      add\n      0x00\n      keccak256\n        /* \"contracts/Profile.sol\":4195:4224  profile[msg.sender].education */\n      0x11\n      add\n        /* \"contracts/Profile.sol\":4225:4230  index */\n      dup8\n        /* \"contracts/Profile.sol\":4195:4231  profile[msg.sender].education[index] */\n      dup2\n      sload\n      dup2\n      lt\n      tag_300\n      jumpi\n      tag_301\n      tag_298\n      jump\t// in\n    tag_301:\n    tag_300:\n      swap1\n      0x00\n      mstore\n      keccak256(0x00, 0x20)\n      swap1\n      0x05\n      mul\n      add\n        /* \"contracts/Profile.sol\":4195:4239  profile[msg.sender].education[index].endDate */\n      0x01\n      add\n        /* \"contracts/Profile.sol\":4241:4248  profile */\n      0x00\n        /* \"contracts/Profile.sol\":4241:4260  profile[msg.sender] */\n      dup1\n        /* \"contracts/Profile.sol\":4249:4259  msg.sender */\n      caller\n        /* \"contracts/Profile.sol\":4241:4260  profile[msg.sender] */\n      0xffffffffffffffffffffffffffffffffffffffff\n      and\n      0xffffffffffffffffffffffffffffffffffffffff\n      and\n      dup2\n      mstore\n      0x20\n      add\n      swap1\n      dup2\n      mstore\n      0x20\n      add\n      0x00\n      keccak256\n        /* \"contracts/Profile.sol\":4241:4270  profile[msg.sender].education */\n      0x11\n      add\n        /* \"contracts/Profile.sol\":4271:4276  index */\n      dup9\n        /* \"contracts/Profile.sol\":4241:4277  profile[msg.sender].education[index] */\n      dup2\n      sload\n      dup2\n      lt\n      tag_303\n      jumpi\n      tag_304\n      tag_298\n      jump\t// in\n    tag_304:\n    tag_303:\n      swap1\n      0x00\n      mstore\n      keccak256(0x00, 0x20)\n      swap1\n      0x05\n      mul\n      add\n        /* \"contracts/Profile.sol\":4241:4288  profile[msg.sender].education[index].univercity */\n      0x02\n      add\n        /* \"contracts/Profile.sol\":4290:4297  profile */\n      0x00\n        /* \"contracts/Profile.sol\":4290:4309  profile[msg.sender] */\n      dup1\n        /* \"contracts/Profile.sol\":4298:4308  msg.sender */\n      caller\n        /* \"contracts/Profile.sol\":4290:4309  profile[msg.sender] */\n      0xffffffffffffffffffffffffffffffffffffffff\n      and\n      0xffffffffffffffffffffffffffffffffffffffff\n      and\n      dup2\n      mstore\n      0x20\n      add\n      swap1\n      dup2\n      mstore\n      0x20\n      add\n      0x00\n      keccak256\n        /* \"contracts/Profile.sol\":4290:4319  profile[msg.sender].education */\n      0x11\n      add\n        /* \"contracts/Profile.sol\":4320:4325  index */\n      dup10\n        /* \"contracts/Profile.sol\":4290:4326  profile[msg.sender].education[index] */\n      dup2\n      sload\n      dup2\n      lt\n      tag_306\n      jumpi\n      tag_307\n      tag_298\n      jump\t// in\n    tag_307:\n    tag_306:\n      swap1\n      0x00\n      mstore\n      keccak256(0x00, 0x20)\n      swap1\n      0x05\n      mul\n      add\n        /* \"contracts/Profile.sol\":4290:4332  profile[msg.sender].education[index].major */\n      0x03\n      add\n        /* \"contracts/Profile.sol\":4334:4341  profile */\n      0x00\n        /* \"contracts/Profile.sol\":4334:4353  profile[msg.sender] */\n      dup1\n        /* \"contracts/Profile.sol\":4342:4352  msg.sender */\n      caller\n        /* \"contracts/Profile.sol\":4334:4353  profile[msg.sender] */\n      0xffffffffffffffffffffffffffffffffffffffff\n      and\n      0xffffffffffffffffffffffffffffffffffffffff\n      and\n      dup2\n      mstore\n      0x20\n      add\n      swap1\n      dup2\n      mstore\n      0x20\n      add\n      0x00\n      keccak256\n        /* \"contracts/Profile.sol\":4334:4363  profile[msg.sender].education */\n      0x11\n      add\n        /* \"contracts/Profile.sol\":4364:4369  index */\n      dup11\n        /* \"contracts/Profile.sol\":4334:4370  profile[msg.sender].education[index] */\n      dup2\n      sload\n      dup2\n      lt\n      tag_309\n      jumpi\n      tag_310\n      tag_298\n      jump\t// in\n    tag_310:\n    tag_309:\n      swap1\n      0x00\n      mstore\n      keccak256(0x00, 0x20)\n      swap1\n      0x05\n      mul\n      add\n        /* \"contracts/Profile.sol\":4334:4383  profile[msg.sender].education[index].finalProject */\n      0x04\n      add\n        /* \"contracts/Profile.sol\":4139:4384  return (profile[msg.sender].education[index].startDate, profile[msg.sender].education[index].endDate, profile[msg.sender].education[index].univercity, profile[msg.sender].education[index].major, profile[msg.sender].education[index].finalProject) */\n      dup5\n      dup1\n      sload\n      tag_312\n      swap1\n      tag_147\n      jump\t// in\n    tag_312:\n      dup1\n      0x1f\n      add\n      0x20\n      dup1\n      swap2\n      div\n      mul\n      0x20\n      add\n      mload(0x40)\n      swap1\n      dup2\n      add\n      0x40\n      mstore\n      dup1\n      swap3\n      swap2\n      swap1\n      dup2\n      dup2\n      mstore\n      0x20\n      add\n      dup3\n      dup1\n      sload\n      tag_313\n      swap1\n      tag_147\n      jump\t// in\n    tag_313:\n      dup1\n      iszero\n      tag_314\n      jumpi\n      dup1\n      0x1f\n      lt\n      tag_315\n      jumpi\n      0x0100\n      dup1\n      dup4\n      sload\n      div\n      mul\n      dup4\n      mstore\n      swap2\n      0x20\n      add\n      swap2\n      jump(tag_314)\n    tag_315:\n      dup3\n      add\n      swap2\n      swap1\n      0x00\n      mstore\n      keccak256(0x00, 0x20)\n      swap1\n    tag_316:\n      dup2\n      sload\n      dup2\n      mstore\n      swap1\n      0x01\n      add\n      swap1\n      0x20\n      add\n      dup1\n      dup4\n      gt\n      tag_316\n      jumpi\n      dup3\n      swap1\n      sub\n      0x1f\n      and\n      dup3\n      add\n      swap2\n    tag_314:\n      pop\n      pop\n      pop\n      pop\n      pop\n      swap5\n      pop\n      dup4\n      dup1\n      sload\n      tag_317\n      swap1\n      tag_147\n      jump\t// in\n    tag_317:\n      dup1\n      0x1f\n      add\n      0x20\n      dup1\n      swap2\n      div\n      mul\n      0x20\n      add\n      mload(0x40)\n      swap1\n      dup2\n      add\n      0x40\n      mstore\n      dup1\n      swap3\n      swap2\n      swap1\n      dup2\n      dup2\n      mstore\n      0x20\n      add\n      dup3\n      dup1\n      sload\n      tag_318\n      swap1\n      tag_147\n      jump\t// in\n    tag_318:\n      dup1\n      iszero\n      tag_319\n      jumpi\n      dup1\n      0x1f\n      lt\n      tag_320\n      jumpi\n      0x0100\n      dup1\n      dup4\n      sload\n      div\n      mul\n      dup4\n      mstore\n      swap2\n      0x20\n      add\n      swap2\n      jump(tag_319)\n    tag_320:\n      dup3\n      add\n      swap2\n      swap1\n      0x00\n      mstore\n      keccak256(0x00, 0x20)\n      swap1\n    tag_321:\n      dup2\n      sload\n      dup2\n      mstore\n      swap1\n      0x01\n      add\n      swap1\n      0x20\n      add\n      dup1\n      dup4\n      gt\n      tag_321\n      jumpi\n      dup3\n      swap1\n      sub\n      0x1f\n      and\n      dup3\n      add\n      swap2\n    tag_319:\n      pop\n      pop\n      pop\n      pop\n      pop\n      swap4\n      pop\n      dup3\n      dup1\n      sload\n      tag_322\n      swap1\n      tag_147\n      jump\t// in\n    tag_322:\n      dup1\n      0x1f\n      add\n      0x20\n      dup1\n      swap2\n      div\n      mul\n      0x20\n      add\n      mload(0x40)\n      swap1\n      dup2\n      add\n      0x40\n      mstore\n      dup1\n      swap3\n      swap2\n      swap1\n      dup2\n      dup2\n      mstore\n      0x20\n      add\n      dup3\n      dup1\n      sload\n      tag_323\n      swap1\n      tag_147\n      jump\t// in\n    tag_323:\n      dup1\n      iszero\n      tag_324\n      jumpi\n      dup1\n      0x1f\n      lt\n      tag_325\n      jumpi\n      0x0100\n      dup1\n      dup4\n      sload\n      div\n      mul\n      dup4\n      mstore\n      swap2\n      0x20\n      add\n      swap2\n      jump(tag_324)\n    tag_325:\n      dup3\n      add\n      swap2\n      swap1\n      0x00\n      mstore\n      keccak256(0x00, 0x20)\n      swap1\n    tag_326:\n      dup2\n      sload\n      dup2\n      mstore\n      swap1\n      0x01\n      add\n      swap1\n      0x20\n      add\n      dup1\n      dup4\n      gt\n      tag_326\n      jumpi\n      dup3\n      swap1\n      sub\n      0x1f\n      and\n      dup3\n      add\n      swap2\n    tag_324:\n      pop\n      pop\n      pop\n      pop\n      pop\n      swap3\n      pop\n      dup2\n      dup1\n      sload\n      tag_327\n      swap1\n      tag_147\n      jump\t// in\n    tag_327:\n      dup1\n      0x1f\n      add\n      0x20\n      dup1\n      swap2\n      div\n      mul\n      0x20\n      add\n      mload(0x40)\n      swap1\n      dup2\n      add\n      0x40\n      mstore\n      dup1\n      swap3\n      swap2\n      swap1\n      dup2\n      dup2\n      mstore\n      0x20\n      add\n      dup3\n      dup1\n      sload\n      tag_328\n      swap1\n      tag_147\n      jump\t// in\n    tag_328:\n      dup1\n      iszero\n      tag_329\n      jumpi\n      dup1\n      0x1f\n      lt\n      tag_330\n      jumpi\n      0x0100\n      dup1\n      dup4\n      sload\n      div\n      mul\n      dup4\n      mstore\n      swap2\n      0x20\n      add\n      swap2\n      jump(tag_329)\n    tag_330:\n      dup3\n      add\n      swap2\n      swap1\n      0x00\n      mstore\n      keccak256(0x00, 0x20)\n      swap1\n    tag_331:\n      dup2\n      sload\n      dup2\n      mstore\n      swap1\n      0x01\n      add\n      swap1\n      0x20\n      add\n      dup1\n      dup4\n      gt\n      tag_331\n      jumpi\n      dup3\n      swap1\n      sub\n      0x1f\n      and\n      dup3\n      add\n      swap2\n    tag_329:\n      pop\n      pop\n      pop\n      pop\n      pop\n      swap2\n      pop\n      dup1\n      dup1\n      sload\n      tag_332\n      swap1\n      tag_147\n      jump\t// in\n    tag_332:\n      dup1\n      0x1f\n      add\n      0x20\n      dup1\n      swap2\n      div\n      mul\n      0x20\n      add\n      mload(0x40)\n      swap1\n      dup2\n      add\n      0x40\n      mstore\n      dup1\n      swap3\n      swap2\n      swap1\n      dup2\n      dup2\n      mstore\n      0x20\n      add\n      dup3\n      dup1\n      sload\n      tag_333\n      swap1\n      tag_147\n      jump\t// in\n    tag_333:\n      dup1\n      iszero\n      tag_334\n      jumpi\n      dup1\n      0x1f\n      lt\n      tag_335\n      jumpi\n      0x0100\n      dup1\n      dup4\n      sload\n      div\n      mul\n      dup4\n      mstore\n      swap2\n      0x20\n      add\n      swap2\n      jump(tag_334)\n    tag_335:\n      dup3\n      add\n      swap2\n      swap1\n      0x00\n      mstore\n      keccak256(0x00, 0x20)\n      swap1\n    tag_336:\n      dup2\n      sload\n      dup2\n      mstore\n      swap1\n      0x01\n      add\n      swap1\n      0x20\n      add\n      dup1\n      dup4\n      gt\n      tag_336\n      jumpi\n      dup3\n      swap1\n      sub\n      0x1f\n      and\n      dup3\n      add\n      swap2\n    tag_334:\n      pop\n      pop\n      pop\n      pop\n      pop\n      swap1\n      pop\n      swap5\n      pop\n      swap5\n      pop\n      swap5\n      pop\n      swap5\n      pop\n      swap5\n      pop\n        /* \"contracts/Profile.sol\":3999:4392  function getEducation(uint index) public view returns(string memory, string memory, string memory, string memory, string memory) {\r... */\n      swap2\n      swap4\n      swap6\n      swap1\n      swap3\n      swap5\n      pop\n      jump\t// out\n        /* \"contracts/Profile.sol\":5737:5813  function delProfile() external {\r... */\n    tag_80:\n        /* \"contracts/Profile.sol\":5786:5793  profile */\n      0x00\n        /* \"contracts/Profile.sol\":5786:5805  profile[msg.sender] */\n      dup1\n        /* \"contracts/Profile.sol\":5794:5804  msg.sender */\n      caller\n        /* \"contracts/Profile.sol\":5786:5805  profile[msg.sender] */\n      0xffffffffffffffffffffffffffffffffffffffff\n      and\n      0xffffffffffffffffffffffffffffffffffffffff\n      and\n      dup2\n      mstore\n      0x20\n      add\n      swap1\n      dup2\n      mstore\n      0x20\n      add\n      0x00\n      keccak256\n      0x00\n        /* \"contracts/Profile.sol\":5779:5805  delete profile[msg.sender] */\n      dup1\n      dup3\n      add\n      0x00\n      dup1\n      dup3\n      add\n      0x00\n      tag_338\n      swap2\n      swap1\n      tag_83\n      jump\t// in\n    tag_338:\n      0x01\n      dup3\n      add\n      0x00\n      tag_339\n      swap2\n      swap1\n      tag_83\n      jump\t// in\n    tag_339:\n      0x02\n      dup3\n      add\n      exp(0x0100, 0x00)\n      dup2\n      sload\n      swap1\n      0xffffffffffffffffffffffffffffffffffffffff\n      mul\n      not\n      and\n      swap1\n      sstore\n      0x03\n      dup3\n      add\n      0x00\n      tag_340\n      swap2\n      swap1\n      tag_83\n      jump\t// in\n    tag_340:\n      0x04\n      dup3\n      add\n      0x00\n      tag_341\n      swap2\n      swap1\n      tag_83\n      jump\t// in\n    tag_341:\n      0x05\n      dup3\n      add\n      0x00\n      tag_342\n      swap2\n      swap1\n      tag_83\n      jump\t// in\n    tag_342:\n      0x06\n      dup3\n      add\n      0x00\n      tag_343\n      swap2\n      swap1\n      tag_83\n      jump\t// in\n    tag_343:\n      0x07\n      dup3\n      add\n      0x00\n      swap1\n      sstore\n      pop\n      pop\n      0x08\n      dup3\n      add\n      0x00\n      dup1\n      dup3\n      add\n      0x00\n      tag_344\n      swap2\n      swap1\n      tag_83\n      jump\t// in\n    tag_344:\n      0x01\n      dup3\n      add\n      0x00\n      tag_345\n      swap2\n      swap1\n      tag_83\n      jump\t// in\n    tag_345:\n      0x02\n      dup3\n      add\n      0x00\n      tag_346\n      swap2\n      swap1\n      tag_83\n      jump\t// in\n    tag_346:\n      0x03\n      dup3\n      add\n      0x00\n      tag_347\n      swap2\n      swap1\n      tag_83\n      jump\t// in\n    tag_347:\n      0x04\n      dup3\n      add\n      0x00\n      tag_348\n      swap2\n      swap1\n      tag_83\n      jump\t// in\n    tag_348:\n      0x05\n      dup3\n      add\n      0x00\n      tag_349\n      swap2\n      swap1\n      tag_83\n      jump\t// in\n    tag_349:\n      pop\n      pop\n      0x0e\n      dup3\n      add\n      0x00\n      dup1\n      dup3\n      add\n      0x00\n      tag_350\n      swap2\n      swap1\n      tag_98\n      jump\t// in\n    tag_350:\n      0x01\n      dup3\n      add\n      0x00\n      tag_351\n      swap2\n      swap1\n      tag_98\n      jump\t// in\n    tag_351:\n      0x02\n      dup3\n      add\n      0x00\n      tag_352\n      swap2\n      swap1\n      tag_98\n      jump\t// in\n    tag_352:\n      pop\n      pop\n      0x11\n      dup3\n      add\n      0x00\n      tag_353\n      swap2\n      swap1\n      tag_294\n      jump\t// in\n    tag_353:\n      0x12\n      dup3\n      add\n      0x00\n      dup1\n      dup3\n      add\n      0x00\n      tag_354\n      swap2\n      swap1\n      tag_98\n      jump\t// in\n    tag_354:\n      0x01\n      dup3\n      add\n      0x00\n      tag_355\n      swap2\n      swap1\n      tag_98\n      jump\t// in\n    tag_355:\n      pop\n      pop\n      0x14\n      dup3\n      add\n      0x00\n      dup1\n      dup3\n      add\n      0x00\n      tag_356\n      swap2\n      swap1\n      tag_83\n      jump\t// in\n    tag_356:\n      0x01\n      dup3\n      add\n      0x00\n      tag_357\n      swap2\n      swap1\n      tag_83\n      jump\t// in\n    tag_357:\n      0x02\n      dup3\n      add\n      0x00\n      tag_358\n      swap2\n      swap1\n      tag_83\n      jump\t// in\n    tag_358:\n      0x03\n      dup3\n      add\n      0x00\n      tag_359\n      swap2\n      swap1\n      tag_83\n      jump\t// in\n    tag_359:\n      0x04\n      dup3\n      add\n      0x00\n      tag_360\n      swap2\n      swap1\n      tag_98\n      jump\t// in\n    tag_360:\n      pop\n      pop\n      0x19\n      dup3\n      add\n      0x00\n      dup1\n      dup3\n      add\n      0x00\n      tag_361\n      swap2\n      swap1\n      tag_83\n      jump\t// in\n    tag_361:\n      0x01\n      dup3\n      add\n      0x00\n      tag_362\n      swap2\n      swap1\n      tag_83\n      jump\t// in\n    tag_362:\n      pop\n      pop\n      pop\n      pop\n        /* \"contracts/Profile.sol\":5737:5813  function delProfile() external {\r... */\n      jump\t// out\n    tag_83:\n      pop\n      dup1\n      sload\n      tag_363\n      swap1\n      tag_147\n      jump\t// in\n    tag_363:\n      0x00\n      dup3\n      sstore\n      dup1\n      0x1f\n      lt\n      tag_365\n      jumpi\n      pop\n      jump(tag_364)\n    tag_365:\n      0x1f\n      add\n      0x20\n      swap1\n      div\n      swap1\n      0x00\n      mstore\n      keccak256(0x00, 0x20)\n      swap1\n      dup2\n      add\n      swap1\n      tag_366\n      swap2\n      swap1\n      tag_367\n      jump\t// in\n    tag_366:\n    tag_364:\n      pop\n      jump\t// out\n    tag_87:\n      dup3\n      dup1\n      sload\n      tag_368\n      swap1\n      tag_147\n      jump\t// in\n    tag_368:\n      swap1\n      0x00\n      mstore\n      keccak256(0x00, 0x20)\n      swap1\n      0x1f\n      add\n      0x20\n      swap1\n      div\n      dup2\n      add\n      swap3\n      dup3\n      tag_370\n      jumpi\n      0x00\n      dup6\n      sstore\n      jump(tag_369)\n    tag_370:\n      dup3\n      0x1f\n      lt\n      tag_371\n      jumpi\n      dup1\n      mload\n      not(0xff)\n      and\n      dup4\n      dup1\n      add\n      or\n      dup6\n      sstore\n      jump(tag_369)\n    tag_371:\n      dup3\n      dup1\n      add\n      0x01\n      add\n      dup6\n      sstore\n      dup3\n      iszero\n      tag_369\n      jumpi\n      swap2\n      dup3\n      add\n    tag_372:\n      dup3\n      dup2\n      gt\n      iszero\n      tag_373\n      jumpi\n      dup3\n      mload\n      dup3\n      sstore\n      swap2\n      0x20\n      add\n      swap2\n      swap1\n      0x01\n      add\n      swap1\n      jump(tag_372)\n    tag_373:\n    tag_369:\n      pop\n      swap1\n      pop\n      tag_374\n      swap2\n      swap1\n      tag_367\n      jump\t// in\n    tag_374:\n      pop\n      swap1\n      jump\t// out\n    tag_92:\n      dup3\n      dup1\n      sload\n      dup3\n      dup3\n      sstore\n      swap1\n      0x00\n      mstore\n      keccak256(0x00, 0x20)\n      swap1\n      dup2\n      add\n      swap3\n      dup3\n      iszero\n      tag_375\n      jumpi\n      swap2\n      0x20\n      mul\n      dup3\n      add\n    tag_376:\n      dup3\n      dup2\n      gt\n      iszero\n      tag_377\n      jumpi\n      dup3\n      mload\n      dup3\n      swap1\n      dup1\n      mload\n      swap1\n      0x20\n      add\n      swap1\n      tag_378\n      swap3\n      swap2\n      swap1\n      tag_87\n      jump\t// in\n    tag_378:\n      pop\n      swap2\n      0x20\n      add\n      swap2\n      swap1\n      0x01\n      add\n      swap1\n      jump(tag_376)\n    tag_377:\n    tag_375:\n      pop\n      swap1\n      pop\n      tag_379\n      swap2\n      swap1\n      tag_380\n      jump\t// in\n    tag_379:\n      pop\n      swap1\n      jump\t// out\n    tag_98:\n      pop\n      dup1\n      sload\n      0x00\n      dup3\n      sstore\n      swap1\n      0x00\n      mstore\n      keccak256(0x00, 0x20)\n      swap1\n      dup2\n      add\n      swap1\n      tag_382\n      swap2\n      swap1\n      tag_380\n      jump\t// in\n    tag_382:\n      pop\n      jump\t// out\n    tag_110:\n      mload(0x40)\n      dup1\n      0xa0\n      add\n      0x40\n      mstore\n      dup1\n      0x60\n      dup2\n      mstore\n      0x20\n      add\n      0x60\n      dup2\n      mstore\n      0x20\n      add\n      0x60\n      dup2\n      mstore\n      0x20\n      add\n      0x60\n      dup2\n      mstore\n      0x20\n      add\n      0x60\n      dup2\n      mstore\n      pop\n      swap1\n      jump\t// out\n    tag_294:\n      pop\n      dup1\n      sload\n      0x00\n      dup3\n      sstore\n      0x05\n      mul\n      swap1\n      0x00\n      mstore\n      keccak256(0x00, 0x20)\n      swap1\n      dup2\n      add\n      swap1\n      tag_384\n      swap2\n      swap1\n      tag_385\n      jump\t// in\n    tag_384:\n      pop\n      jump\t// out\n    tag_367:\n    tag_386:\n      dup1\n      dup3\n      gt\n      iszero\n      tag_387\n      jumpi\n      0x00\n      dup2\n      0x00\n      swap1\n      sstore\n      pop\n      0x01\n      add\n      jump(tag_386)\n    tag_387:\n      pop\n      swap1\n      jump\t// out\n    tag_380:\n    tag_388:\n      dup1\n      dup3\n      gt\n      iszero\n      tag_389\n      jumpi\n      0x00\n      dup2\n      dup2\n      tag_390\n      swap2\n      swap1\n      tag_83\n      jump\t// in\n    tag_390:\n      pop\n      0x01\n      add\n      jump(tag_388)\n    tag_389:\n      pop\n      swap1\n      jump\t// out\n    tag_385:\n    tag_391:\n      dup1\n      dup3\n      gt\n      iszero\n      tag_392\n      jumpi\n      0x00\n      dup1\n      dup3\n      add\n      0x00\n      tag_393\n      swap2\n      swap1\n      tag_83\n      jump\t// in\n    tag_393:\n      0x01\n      dup3\n      add\n      0x00\n      tag_394\n      swap2\n      swap1\n      tag_83\n      jump\t// in\n    tag_394:\n      0x02\n      dup3\n      add\n      0x00\n      tag_395\n      swap2\n      swap1\n      tag_83\n      jump\t// in\n    tag_395:\n      0x03\n      dup3\n      add\n      0x00\n      tag_396\n      swap2\n      swap1\n      tag_83\n      jump\t// in\n    tag_396:\n      0x04\n      dup3\n      add\n      0x00\n      tag_397\n      swap2\n      swap1\n      tag_83\n      jump\t// in\n    tag_397:\n      pop\n      0x05\n      add\n      jump(tag_391)\n    tag_392:\n      pop\n      swap1\n      jump\t// out\n        /* \"#utility.yul\":23:980   */\n    tag_399:\n        /* \"#utility.yul\":129:134   */\n      0x00\n        /* \"#utility.yul\":154:245   */\n      tag_401\n        /* \"#utility.yul\":170:244   */\n      tag_402\n        /* \"#utility.yul\":237:243   */\n      dup5\n        /* \"#utility.yul\":170:244   */\n      tag_403\n      jump\t// in\n    tag_402:\n        /* \"#utility.yul\":154:245   */\n      tag_404\n      jump\t// in\n    tag_401:\n        /* \"#utility.yul\":145:245   */\n      swap1\n      pop\n        /* \"#utility.yul\":265:270   */\n      dup1\n        /* \"#utility.yul\":294:300   */\n      dup4\n        /* \"#utility.yul\":287:292   */\n      dup3\n        /* \"#utility.yul\":280:301   */\n      mstore\n        /* \"#utility.yul\":328:332   */\n      0x20\n        /* \"#utility.yul\":321:326   */\n      dup3\n        /* \"#utility.yul\":317:333   */\n      add\n        /* \"#utility.yul\":310:333   */\n      swap1\n      pop\n        /* \"#utility.yul\":354:360   */\n      dup3\n        /* \"#utility.yul\":404:407   */\n      dup6\n        /* \"#utility.yul\":396:400   */\n      0x20\n        /* \"#utility.yul\":388:394   */\n      dup7\n        /* \"#utility.yul\":384:401   */\n      mul\n        /* \"#utility.yul\":379:382   */\n      dup3\n        /* \"#utility.yul\":375:402   */\n      add\n        /* \"#utility.yul\":372:408   */\n      gt\n        /* \"#utility.yul\":369:512   */\n      iszero\n      tag_405\n      jumpi\n        /* \"#utility.yul\":423:502   */\n      tag_406\n      tag_407\n      jump\t// in\n    tag_406:\n        /* \"#utility.yul\":369:512   */\n    tag_405:\n        /* \"#utility.yul\":536:537   */\n      0x00\n        /* \"#utility.yul\":521:974   */\n    tag_408:\n        /* \"#utility.yul\":546:552   */\n      dup6\n        /* \"#utility.yul\":543:544   */\n      dup2\n        /* \"#utility.yul\":540:553   */\n      lt\n        /* \"#utility.yul\":521:974   */\n      iszero\n      tag_410\n      jumpi\n        /* \"#utility.yul\":628:631   */\n      dup2\n        /* \"#utility.yul\":615:632   */\n      calldataload\n        /* \"#utility.yul\":664:682   */\n      0xffffffffffffffff\n        /* \"#utility.yul\":651:662   */\n      dup2\n        /* \"#utility.yul\":648:683   */\n      gt\n        /* \"#utility.yul\":645:767   */\n      iszero\n      tag_411\n      jumpi\n        /* \"#utility.yul\":686:765   */\n      tag_412\n      tag_413\n      jump\t// in\n    tag_412:\n        /* \"#utility.yul\":645:767   */\n    tag_411:\n        /* \"#utility.yul\":810:821   */\n      dup1\n        /* \"#utility.yul\":802:808   */\n      dup7\n        /* \"#utility.yul\":798:822   */\n      add\n        /* \"#utility.yul\":848:895   */\n      tag_414\n        /* \"#utility.yul\":891:894   */\n      dup10\n        /* \"#utility.yul\":879:889   */\n      dup3\n        /* \"#utility.yul\":848:895   */\n      tag_415\n      jump\t// in\n    tag_414:\n        /* \"#utility.yul\":843:846   */\n      dup6\n        /* \"#utility.yul\":836:896   */\n      mstore\n        /* \"#utility.yul\":925:929   */\n      0x20\n        /* \"#utility.yul\":920:923   */\n      dup6\n        /* \"#utility.yul\":916:930   */\n      add\n        /* \"#utility.yul\":909:930   */\n      swap5\n      pop\n        /* \"#utility.yul\":959:963   */\n      0x20\n        /* \"#utility.yul\":954:957   */\n      dup5\n        /* \"#utility.yul\":950:964   */\n      add\n        /* \"#utility.yul\":943:964   */\n      swap4\n      pop\n        /* \"#utility.yul\":581:974   */\n      pop\n      pop\n        /* \"#utility.yul\":568:569   */\n      0x01\n        /* \"#utility.yul\":565:566   */\n      dup2\n        /* \"#utility.yul\":561:570   */\n      add\n        /* \"#utility.yul\":556:570   */\n      swap1\n      pop\n        /* \"#utility.yul\":521:974   */\n      jump(tag_408)\n    tag_410:\n        /* \"#utility.yul\":525:539   */\n      pop\n        /* \"#utility.yul\":135:980   */\n      pop\n      pop\n        /* \"#utility.yul\":23:980   */\n      swap4\n      swap3\n      pop\n      pop\n      pop\n      jump\t// out\n        /* \"#utility.yul\":986:1398   */\n    tag_416:\n        /* \"#utility.yul\":1064:1069   */\n      0x00\n        /* \"#utility.yul\":1089:1155   */\n      tag_418\n        /* \"#utility.yul\":1105:1154   */\n      tag_419\n        /* \"#utility.yul\":1147:1153   */\n      dup5\n        /* \"#utility.yul\":1105:1154   */\n      tag_420\n      jump\t// in\n    tag_419:\n        /* \"#utility.yul\":1089:1155   */\n      tag_404\n      jump\t// in\n    tag_418:\n        /* \"#utility.yul\":1080:1155   */\n      swap1\n      pop\n        /* \"#utility.yul\":1178:1184   */\n      dup3\n        /* \"#utility.yul\":1171:1176   */\n      dup2\n        /* \"#utility.yul\":1164:1185   */\n      mstore\n        /* \"#utility.yul\":1216:1220   */\n      0x20\n        /* \"#utility.yul\":1209:1214   */\n      dup2\n        /* \"#utility.yul\":1205:1221   */\n      add\n        /* \"#utility.yul\":1254:1257   */\n      dup5\n        /* \"#utility.yul\":1245:1251   */\n      dup5\n        /* \"#utility.yul\":1240:1243   */\n      dup5\n        /* \"#utility.yul\":1236:1252   */\n      add\n        /* \"#utility.yul\":1233:1258   */\n      gt\n        /* \"#utility.yul\":1230:1342   */\n      iszero\n      tag_421\n      jumpi\n        /* \"#utility.yul\":1261:1340   */\n      tag_422\n      tag_423\n      jump\t// in\n    tag_422:\n        /* \"#utility.yul\":1230:1342   */\n    tag_421:\n        /* \"#utility.yul\":1351:1392   */\n      tag_424\n        /* \"#utility.yul\":1385:1391   */\n      dup5\n        /* \"#utility.yul\":1380:1383   */\n      dup3\n        /* \"#utility.yul\":1375:1378   */\n      dup6\n        /* \"#utility.yul\":1351:1392   */\n      tag_425\n      jump\t// in\n    tag_424:\n        /* \"#utility.yul\":1070:1398   */\n      pop\n        /* \"#utility.yul\":986:1398   */\n      swap4\n      swap3\n      pop\n      pop\n      pop\n      jump\t// out\n        /* \"#utility.yul\":1404:1543   */\n    tag_426:\n        /* \"#utility.yul\":1450:1455   */\n      0x00\n        /* \"#utility.yul\":1488:1494   */\n      dup2\n        /* \"#utility.yul\":1475:1495   */\n      calldataload\n        /* \"#utility.yul\":1466:1495   */\n      swap1\n      pop\n        /* \"#utility.yul\":1504:1537   */\n      tag_428\n        /* \"#utility.yul\":1531:1536   */\n      dup2\n        /* \"#utility.yul\":1504:1537   */\n      tag_429\n      jump\t// in\n    tag_428:\n        /* \"#utility.yul\":1404:1543   */\n      swap3\n      swap2\n      pop\n      pop\n      jump\t// out\n        /* \"#utility.yul\":1565:1955   */\n    tag_430:\n        /* \"#utility.yul\":1646:1651   */\n      0x00\n        /* \"#utility.yul\":1695:1698   */\n      dup3\n        /* \"#utility.yul\":1688:1692   */\n      0x1f\n        /* \"#utility.yul\":1680:1686   */\n      dup4\n        /* \"#utility.yul\":1676:1693   */\n      add\n        /* \"#utility.yul\":1672:1699   */\n      slt\n        /* \"#utility.yul\":1662:1784   */\n      tag_432\n      jumpi\n        /* \"#utility.yul\":1703:1782   */\n      tag_433\n      tag_413\n      jump\t// in\n    tag_433:\n        /* \"#utility.yul\":1662:1784   */\n    tag_432:\n        /* \"#utility.yul\":1820:1826   */\n      dup2\n        /* \"#utility.yul\":1807:1827   */\n      calldataload\n        /* \"#utility.yul\":1845:1949   */\n      tag_434\n        /* \"#utility.yul\":1945:1948   */\n      dup5\n        /* \"#utility.yul\":1937:1943   */\n      dup3\n        /* \"#utility.yul\":1930:1934   */\n      0x20\n        /* \"#utility.yul\":1922:1928   */\n      dup7\n        /* \"#utility.yul\":1918:1935   */\n      add\n        /* \"#utility.yul\":1845:1949   */\n      tag_399\n      jump\t// in\n    tag_434:\n        /* \"#utility.yul\":1836:1949   */\n      swap2\n      pop\n        /* \"#utility.yul\":1652:1955   */\n      pop\n        /* \"#utility.yul\":1565:1955   */\n      swap3\n      swap2\n      pop\n      pop\n      jump\t// out\n        /* \"#utility.yul\":1975:2315   */\n    tag_415:\n        /* \"#utility.yul\":2031:2036   */\n      0x00\n        /* \"#utility.yul\":2080:2083   */\n      dup3\n        /* \"#utility.yul\":2073:2077   */\n      0x1f\n        /* \"#utility.yul\":2065:2071   */\n      dup4\n        /* \"#utility.yul\":2061:2078   */\n      add\n        /* \"#utility.yul\":2057:2084   */\n      slt\n        /* \"#utility.yul\":2047:2169   */\n      tag_436\n      jumpi\n        /* \"#utility.yul\":2088:2167   */\n      tag_437\n      tag_413\n      jump\t// in\n    tag_437:\n        /* \"#utility.yul\":2047:2169   */\n    tag_436:\n        /* \"#utility.yul\":2205:2211   */\n      dup2\n        /* \"#utility.yul\":2192:2212   */\n      calldataload\n        /* \"#utility.yul\":2230:2309   */\n      tag_438\n        /* \"#utility.yul\":2305:2308   */\n      dup5\n        /* \"#utility.yul\":2297:2303   */\n      dup3\n        /* \"#utility.yul\":2290:2294   */\n      0x20\n        /* \"#utility.yul\":2282:2288   */\n      dup7\n        /* \"#utility.yul\":2278:2295   */\n      add\n        /* \"#utility.yul\":2230:2309   */\n      tag_416\n      jump\t// in\n    tag_438:\n        /* \"#utility.yul\":2221:2309   */\n      swap2\n      pop\n        /* \"#utility.yul\":2037:2315   */\n      pop\n        /* \"#utility.yul\":1975:2315   */\n      swap3\n      swap2\n      pop\n      pop\n      jump\t// out\n        /* \"#utility.yul\":2321:2460   */\n    tag_439:\n        /* \"#utility.yul\":2367:2372   */\n      0x00\n        /* \"#utility.yul\":2405:2411   */\n      dup2\n        /* \"#utility.yul\":2392:2412   */\n      calldataload\n        /* \"#utility.yul\":2383:2412   */\n      swap1\n      pop\n        /* \"#utility.yul\":2421:2454   */\n      tag_441\n        /* \"#utility.yul\":2448:2453   */\n      dup2\n        /* \"#utility.yul\":2421:2454   */\n      tag_442\n      jump\t// in\n    tag_441:\n        /* \"#utility.yul\":2321:2460   */\n      swap3\n      swap2\n      pop\n      pop\n      jump\t// out\n        /* \"#utility.yul\":2466:2795   */\n    tag_62:\n        /* \"#utility.yul\":2525:2531   */\n      0x00\n        /* \"#utility.yul\":2574:2576   */\n      0x20\n        /* \"#utility.yul\":2562:2571   */\n      dup3\n        /* \"#utility.yul\":2553:2560   */\n      dup5\n        /* \"#utility.yul\":2549:2572   */\n      sub\n        /* \"#utility.yul\":2545:2577   */\n      slt\n        /* \"#utility.yul\":2542:2661   */\n      iszero\n      tag_444\n      jumpi\n        /* \"#utility.yul\":2580:2659   */\n      tag_445\n      tag_446\n      jump\t// in\n    tag_445:\n        /* \"#utility.yul\":2542:2661   */\n    tag_444:\n        /* \"#utility.yul\":2700:2701   */\n      0x00\n        /* \"#utility.yul\":2725:2778   */\n      tag_447\n        /* \"#utility.yul\":2770:2777   */\n      dup5\n        /* \"#utility.yul\":2761:2767   */\n      dup3\n        /* \"#utility.yul\":2750:2759   */\n      dup6\n        /* \"#utility.yul\":2746:2768   */\n      add\n        /* \"#utility.yul\":2725:2778   */\n      tag_426\n      jump\t// in\n    tag_447:\n        /* \"#utility.yul\":2715:2778   */\n      swap2\n      pop\n        /* \"#utility.yul\":2671:2788   */\n      pop\n        /* \"#utility.yul\":2466:2795   */\n      swap3\n      swap2\n      pop\n      pop\n      jump\t// out\n        /* \"#utility.yul\":2801:3735   */\n    tag_49:\n        /* \"#utility.yul\":2939:2945   */\n      0x00\n        /* \"#utility.yul\":2947:2953   */\n      dup1\n        /* \"#utility.yul\":2996:2998   */\n      0x40\n        /* \"#utility.yul\":2984:2993   */\n      dup4\n        /* \"#utility.yul\":2975:2982   */\n      dup6\n        /* \"#utility.yul\":2971:2994   */\n      sub\n        /* \"#utility.yul\":2967:2999   */\n      slt\n        /* \"#utility.yul\":2964:3083   */\n      iszero\n      tag_449\n      jumpi\n        /* \"#utility.yul\":3002:3081   */\n      tag_450\n      tag_446\n      jump\t// in\n    tag_450:\n        /* \"#utility.yul\":2964:3083   */\n    tag_449:\n        /* \"#utility.yul\":3150:3151   */\n      0x00\n        /* \"#utility.yul\":3139:3148   */\n      dup4\n        /* \"#utility.yul\":3135:3152   */\n      add\n        /* \"#utility.yul\":3122:3153   */\n      calldataload\n        /* \"#utility.yul\":3180:3198   */\n      0xffffffffffffffff\n        /* \"#utility.yul\":3172:3178   */\n      dup2\n        /* \"#utility.yul\":3169:3199   */\n      gt\n        /* \"#utility.yul\":3166:3283   */\n      iszero\n      tag_451\n      jumpi\n        /* \"#utility.yul\":3202:3281   */\n      tag_452\n      tag_453\n      jump\t// in\n    tag_452:\n        /* \"#utility.yul\":3166:3283   */\n    tag_451:\n        /* \"#utility.yul\":3307:3395   */\n      tag_454\n        /* \"#utility.yul\":3387:3394   */\n      dup6\n        /* \"#utility.yul\":3378:3384   */\n      dup3\n        /* \"#utility.yul\":3367:3376   */\n      dup7\n        /* \"#utility.yul\":3363:3385   */\n      add\n        /* \"#utility.yul\":3307:3395   */\n      tag_430\n      jump\t// in\n    tag_454:\n        /* \"#utility.yul\":3297:3395   */\n      swap3\n      pop\n        /* \"#utility.yul\":3093:3405   */\n      pop\n        /* \"#utility.yul\":3472:3474   */\n      0x20\n        /* \"#utility.yul\":3461:3470   */\n      dup4\n        /* \"#utility.yul\":3457:3475   */\n      add\n        /* \"#utility.yul\":3444:3476   */\n      calldataload\n        /* \"#utility.yul\":3503:3521   */\n      0xffffffffffffffff\n        /* \"#utility.yul\":3495:3501   */\n      dup2\n        /* \"#utility.yul\":3492:3522   */\n      gt\n        /* \"#utility.yul\":3489:3606   */\n      iszero\n      tag_455\n      jumpi\n        /* \"#utility.yul\":3525:3604   */\n      tag_456\n      tag_453\n      jump\t// in\n    tag_456:\n        /* \"#utility.yul\":3489:3606   */\n    tag_455:\n        /* \"#utility.yul\":3630:3718   */\n      tag_457\n        /* \"#utility.yul\":3710:3717   */\n      dup6\n        /* \"#utility.yul\":3701:3707   */\n      dup3\n        /* \"#utility.yul\":3690:3699   */\n      dup7\n        /* \"#utility.yul\":3686:3708   */\n      add\n        /* \"#utility.yul\":3630:3718   */\n      tag_430\n      jump\t// in\n    tag_457:\n        /* \"#utility.yul\":3620:3718   */\n      swap2\n      pop\n        /* \"#utility.yul\":3415:3728   */\n      pop\n        /* \"#utility.yul\":2801:3735   */\n      swap3\n      pop\n      swap3\n      swap1\n      pop\n      jump\t// out\n        /* \"#utility.yul\":3741:5050   */\n    tag_35:\n        /* \"#utility.yul\":3923:3929   */\n      0x00\n        /* \"#utility.yul\":3931:3937   */\n      dup1\n        /* \"#utility.yul\":3939:3945   */\n      0x00\n        /* \"#utility.yul\":3988:3990   */\n      0x60\n        /* \"#utility.yul\":3976:3985   */\n      dup5\n        /* \"#utility.yul\":3967:3974   */\n      dup7\n        /* \"#utility.yul\":3963:3986   */\n      sub\n        /* \"#utility.yul\":3959:3991   */\n      slt\n        /* \"#utility.yul\":3956:4075   */\n      iszero\n      tag_459\n      jumpi\n        /* \"#utility.yul\":3994:4073   */\n      tag_460\n      tag_446\n      jump\t// in\n    tag_460:\n        /* \"#utility.yul\":3956:4075   */\n    tag_459:\n        /* \"#utility.yul\":4142:4143   */\n      0x00\n        /* \"#utility.yul\":4131:4140   */\n      dup5\n        /* \"#utility.yul\":4127:4144   */\n      add\n        /* \"#utility.yul\":4114:4145   */\n      calldataload\n        /* \"#utility.yul\":4172:4190   */\n      0xffffffffffffffff\n        /* \"#utility.yul\":4164:4170   */\n      dup2\n        /* \"#utility.yul\":4161:4191   */\n      gt\n        /* \"#utility.yul\":4158:4275   */\n      iszero\n      tag_461\n      jumpi\n        /* \"#utility.yul\":4194:4273   */\n      tag_462\n      tag_453\n      jump\t// in\n    tag_462:\n        /* \"#utility.yul\":4158:4275   */\n    tag_461:\n        /* \"#utility.yul\":4299:4387   */\n      tag_463\n        /* \"#utility.yul\":4379:4386   */\n      dup7\n        /* \"#utility.yul\":4370:4376   */\n      dup3\n        /* \"#utility.yul\":4359:4368   */\n      dup8\n        /* \"#utility.yul\":4355:4377   */\n      add\n        /* \"#utility.yul\":4299:4387   */\n      tag_430\n      jump\t// in\n    tag_463:\n        /* \"#utility.yul\":4289:4387   */\n      swap4\n      pop\n        /* \"#utility.yul\":4085:4397   */\n      pop\n        /* \"#utility.yul\":4464:4466   */\n      0x20\n        /* \"#utility.yul\":4453:4462   */\n      dup5\n        /* \"#utility.yul\":4449:4467   */\n      add\n        /* \"#utility.yul\":4436:4468   */\n      calldataload\n        /* \"#utility.yul\":4495:4513   */\n      0xffffffffffffffff\n        /* \"#utility.yul\":4487:4493   */\n      dup2\n        /* \"#utility.yul\":4484:4514   */\n      gt\n        /* \"#utility.yul\":4481:4598   */\n      iszero\n      tag_464\n      jumpi\n        /* \"#utility.yul\":4517:4596   */\n      tag_465\n      tag_453\n      jump\t// in\n    tag_465:\n        /* \"#utility.yul\":4481:4598   */\n    tag_464:\n        /* \"#utility.yul\":4622:4710   */\n      tag_466\n        /* \"#utility.yul\":4702:4709   */\n      dup7\n        /* \"#utility.yul\":4693:4699   */\n      dup3\n        /* \"#utility.yul\":4682:4691   */\n      dup8\n        /* \"#utility.yul\":4678:4700   */\n      add\n        /* \"#utility.yul\":4622:4710   */\n      tag_430\n      jump\t// in\n    tag_466:\n        /* \"#utility.yul\":4612:4710   */\n      swap3\n      pop\n        /* \"#utility.yul\":4407:4720   */\n      pop\n        /* \"#utility.yul\":4787:4789   */\n      0x40\n        /* \"#utility.yul\":4776:4785   */\n      dup5\n        /* \"#utility.yul\":4772:4790   */\n      add\n        /* \"#utility.yul\":4759:4791   */\n      calldataload\n        /* \"#utility.yul\":4818:4836   */\n      0xffffffffffffffff\n        /* \"#utility.yul\":4810:4816   */\n      dup2\n        /* \"#utility.yul\":4807:4837   */\n      gt\n        /* \"#utility.yul\":4804:4921   */\n      iszero\n      tag_467\n      jumpi\n        /* \"#utility.yul\":4840:4919   */\n      tag_468\n      tag_453\n      jump\t// in\n    tag_468:\n        /* \"#utility.yul\":4804:4921   */\n    tag_467:\n        /* \"#utility.yul\":4945:5033   */\n      tag_469\n        /* \"#utility.yul\":5025:5032   */\n      dup7\n        /* \"#utility.yul\":5016:5022   */\n      dup3\n        /* \"#utility.yul\":5005:5014   */\n      dup8\n        /* \"#utility.yul\":5001:5023   */\n      add\n        /* \"#utility.yul\":4945:5033   */\n      tag_430\n      jump\t// in\n    tag_469:\n        /* \"#utility.yul\":4935:5033   */\n      swap2\n      pop\n        /* \"#utility.yul\":4730:5043   */\n      pop\n        /* \"#utility.yul\":3741:5050   */\n      swap3\n      pop\n      swap3\n      pop\n      swap3\n      jump\t// out\n        /* \"#utility.yul\":5056:5890   */\n    tag_31:\n        /* \"#utility.yul\":5144:5150   */\n      0x00\n        /* \"#utility.yul\":5152:5158   */\n      dup1\n        /* \"#utility.yul\":5201:5203   */\n      0x40\n        /* \"#utility.yul\":5189:5198   */\n      dup4\n        /* \"#utility.yul\":5180:5187   */\n      dup6\n        /* \"#utility.yul\":5176:5199   */\n      sub\n        /* \"#utility.yul\":5172:5204   */\n      slt\n        /* \"#utility.yul\":5169:5288   */\n      iszero\n      tag_471\n      jumpi\n        /* \"#utility.yul\":5207:5286   */\n      tag_472\n      tag_446\n      jump\t// in\n    tag_472:\n        /* \"#utility.yul\":5169:5288   */\n    tag_471:\n        /* \"#utility.yul\":5355:5356   */\n      0x00\n        /* \"#utility.yul\":5344:5353   */\n      dup4\n        /* \"#utility.yul\":5340:5357   */\n      add\n        /* \"#utility.yul\":5327:5358   */\n      calldataload\n        /* \"#utility.yul\":5385:5403   */\n      0xffffffffffffffff\n        /* \"#utility.yul\":5377:5383   */\n      dup2\n        /* \"#utility.yul\":5374:5404   */\n      gt\n        /* \"#utility.yul\":5371:5488   */\n      iszero\n      tag_473\n      jumpi\n        /* \"#utility.yul\":5407:5486   */\n      tag_474\n      tag_453\n      jump\t// in\n    tag_474:\n        /* \"#utility.yul\":5371:5488   */\n    tag_473:\n        /* \"#utility.yul\":5512:5575   */\n      tag_475\n        /* \"#utility.yul\":5567:5574   */\n      dup6\n        /* \"#utility.yul\":5558:5564   */\n      dup3\n        /* \"#utility.yul\":5547:5556   */\n      dup7\n        /* \"#utility.yul\":5543:5565   */\n      add\n        /* \"#utility.yul\":5512:5575   */\n      tag_415\n      jump\t// in\n    tag_475:\n        /* \"#utility.yul\":5502:5575   */\n      swap3\n      pop\n        /* \"#utility.yul\":5298:5585   */\n      pop\n        /* \"#utility.yul\":5652:5654   */\n      0x20\n        /* \"#utility.yul\":5641:5650   */\n      dup4\n        /* \"#utility.yul\":5637:5655   */\n      add\n        /* \"#utility.yul\":5624:5656   */\n      calldataload\n        /* \"#utility.yul\":5683:5701   */\n      0xffffffffffffffff\n        /* \"#utility.yul\":5675:5681   */\n      dup2\n        /* \"#utility.yul\":5672:5702   */\n      gt\n        /* \"#utility.yul\":5669:5786   */\n      iszero\n      tag_476\n      jumpi\n        /* \"#utility.yul\":5705:5784   */\n      tag_477\n      tag_453\n      jump\t// in\n    tag_477:\n        /* \"#utility.yul\":5669:5786   */\n    tag_476:\n        /* \"#utility.yul\":5810:5873   */\n      tag_478\n        /* \"#utility.yul\":5865:5872   */\n      dup6\n        /* \"#utility.yul\":5856:5862   */\n      dup3\n        /* \"#utility.yul\":5845:5854   */\n      dup7\n        /* \"#utility.yul\":5841:5863   */\n      add\n        /* \"#utility.yul\":5810:5873   */\n      tag_415\n      jump\t// in\n    tag_478:\n        /* \"#utility.yul\":5800:5873   */\n      swap2\n      pop\n        /* \"#utility.yul\":5595:5883   */\n      pop\n        /* \"#utility.yul\":5056:5890   */\n      swap3\n      pop\n      swap3\n      swap1\n      pop\n      jump\t// out\n        /* \"#utility.yul\":5896:7757   */\n    tag_27:\n        /* \"#utility.yul\":6066:6072   */\n      0x00\n        /* \"#utility.yul\":6074:6080   */\n      dup1\n        /* \"#utility.yul\":6082:6088   */\n      0x00\n        /* \"#utility.yul\":6090:6096   */\n      dup1\n        /* \"#utility.yul\":6098:6104   */\n      0x00\n        /* \"#utility.yul\":6147:6150   */\n      0xa0\n        /* \"#utility.yul\":6135:6144   */\n      dup7\n        /* \"#utility.yul\":6126:6133   */\n      dup9\n        /* \"#utility.yul\":6122:6145   */\n      sub\n        /* \"#utility.yul\":6118:6151   */\n      slt\n        /* \"#utility.yul\":6115:6235   */\n      iszero\n      tag_480\n      jumpi\n        /* \"#utility.yul\":6154:6233   */\n      tag_481\n      tag_446\n      jump\t// in\n    tag_481:\n        /* \"#utility.yul\":6115:6235   */\n    tag_480:\n        /* \"#utility.yul\":6302:6303   */\n      0x00\n        /* \"#utility.yul\":6291:6300   */\n      dup7\n        /* \"#utility.yul\":6287:6304   */\n      add\n        /* \"#utility.yul\":6274:6305   */\n      calldataload\n        /* \"#utility.yul\":6332:6350   */\n      0xffffffffffffffff\n        /* \"#utility.yul\":6324:6330   */\n      dup2\n        /* \"#utility.yul\":6321:6351   */\n      gt\n        /* \"#utility.yul\":6318:6435   */\n      iszero\n      tag_482\n      jumpi\n        /* \"#utility.yul\":6354:6433   */\n      tag_483\n      tag_453\n      jump\t// in\n    tag_483:\n        /* \"#utility.yul\":6318:6435   */\n    tag_482:\n        /* \"#utility.yul\":6459:6522   */\n      tag_484\n        /* \"#utility.yul\":6514:6521   */\n      dup9\n        /* \"#utility.yul\":6505:6511   */\n      dup3\n        /* \"#utility.yul\":6494:6503   */\n      dup10\n        /* \"#utility.yul\":6490:6512   */\n      add\n        /* \"#utility.yul\":6459:6522   */\n      tag_415\n      jump\t// in\n    tag_484:\n        /* \"#utility.yul\":6449:6522   */\n      swap6\n      pop\n        /* \"#utility.yul\":6245:6532   */\n      pop\n        /* \"#utility.yul\":6599:6601   */\n      0x20\n        /* \"#utility.yul\":6588:6597   */\n      dup7\n        /* \"#utility.yul\":6584:6602   */\n      add\n        /* \"#utility.yul\":6571:6603   */\n      calldataload\n        /* \"#utility.yul\":6630:6648   */\n      0xffffffffffffffff\n        /* \"#utility.yul\":6622:6628   */\n      dup2\n        /* \"#utility.yul\":6619:6649   */\n      gt\n        /* \"#utility.yul\":6616:6733   */\n      iszero\n      tag_485\n      jumpi\n        /* \"#utility.yul\":6652:6731   */\n      tag_486\n      tag_453\n      jump\t// in\n    tag_486:\n        /* \"#utility.yul\":6616:6733   */\n    tag_485:\n        /* \"#utility.yul\":6757:6820   */\n      tag_487\n        /* \"#utility.yul\":6812:6819   */\n      dup9\n        /* \"#utility.yul\":6803:6809   */\n      dup3\n        /* \"#utility.yul\":6792:6801   */\n      dup10\n        /* \"#utility.yul\":6788:6810   */\n      add\n        /* \"#utility.yul\":6757:6820   */\n      tag_415\n      jump\t// in\n    tag_487:\n        /* \"#utility.yul\":6747:6820   */\n      swap5\n      pop\n        /* \"#utility.yul\":6542:6830   */\n      pop\n        /* \"#utility.yul\":6897:6899   */\n      0x40\n        /* \"#utility.yul\":6886:6895   */\n      dup7\n        /* \"#utility.yul\":6882:6900   */\n      add\n        /* \"#utility.yul\":6869:6901   */\n      calldataload\n        /* \"#utility.yul\":6928:6946   */\n      0xffffffffffffffff\n        /* \"#utility.yul\":6920:6926   */\n      dup2\n        /* \"#utility.yul\":6917:6947   */\n      gt\n        /* \"#utility.yul\":6914:7031   */\n      iszero\n      tag_488\n      jumpi\n        /* \"#utility.yul\":6950:7029   */\n      tag_489\n      tag_453\n      jump\t// in\n    tag_489:\n        /* \"#utility.yul\":6914:7031   */\n    tag_488:\n        /* \"#utility.yul\":7055:7118   */\n      tag_490\n        /* \"#utility.yul\":7110:7117   */\n      dup9\n        /* \"#utility.yul\":7101:7107   */\n      dup3\n        /* \"#utility.yul\":7090:7099   */\n      dup10\n        /* \"#utility.yul\":7086:7108   */\n      add\n        /* \"#utility.yul\":7055:7118   */\n      tag_415\n      jump\t// in\n    tag_490:\n        /* \"#utility.yul\":7045:7118   */\n      swap4\n      pop\n        /* \"#utility.yul\":6840:7128   */\n      pop\n        /* \"#utility.yul\":7195:7197   */\n      0x60\n        /* \"#utility.yul\":7184:7193   */\n      dup7\n        /* \"#utility.yul\":7180:7198   */\n      add\n        /* \"#utility.yul\":7167:7199   */\n      calldataload\n        /* \"#utility.yul\":7226:7244   */\n      0xffffffffffffffff\n        /* \"#utility.yul\":7218:7224   */\n      dup2\n        /* \"#utility.yul\":7215:7245   */\n      gt\n        /* \"#utility.yul\":7212:7329   */\n      iszero\n      tag_491\n      jumpi\n        /* \"#utility.yul\":7248:7327   */\n      tag_492\n      tag_453\n      jump\t// in\n    tag_492:\n        /* \"#utility.yul\":7212:7329   */\n    tag_491:\n        /* \"#utility.yul\":7353:7416   */\n      tag_493\n        /* \"#utility.yul\":7408:7415   */\n      dup9\n        /* \"#utility.yul\":7399:7405   */\n      dup3\n        /* \"#utility.yul\":7388:7397   */\n      dup10\n        /* \"#utility.yul\":7384:7406   */\n      add\n        /* \"#utility.yul\":7353:7416   */\n      tag_415\n      jump\t// in\n    tag_493:\n        /* \"#utility.yul\":7343:7416   */\n      swap3\n      pop\n        /* \"#utility.yul\":7138:7426   */\n      pop\n        /* \"#utility.yul\":7493:7496   */\n      0x80\n        /* \"#utility.yul\":7482:7491   */\n      dup7\n        /* \"#utility.yul\":7478:7497   */\n      add\n        /* \"#utility.yul\":7465:7498   */\n      calldataload\n        /* \"#utility.yul\":7525:7543   */\n      0xffffffffffffffff\n        /* \"#utility.yul\":7517:7523   */\n      dup2\n        /* \"#utility.yul\":7514:7544   */\n      gt\n        /* \"#utility.yul\":7511:7628   */\n      iszero\n      tag_494\n      jumpi\n        /* \"#utility.yul\":7547:7626   */\n      tag_495\n      tag_453\n      jump\t// in\n    tag_495:\n        /* \"#utility.yul\":7511:7628   */\n    tag_494:\n        /* \"#utility.yul\":7652:7740   */\n      tag_496\n        /* \"#utility.yul\":7732:7739   */\n      dup9\n        /* \"#utility.yul\":7723:7729   */\n      dup3\n        /* \"#utility.yul\":7712:7721   */\n      dup10\n        /* \"#utility.yul\":7708:7730   */\n      add\n        /* \"#utility.yul\":7652:7740   */\n      tag_430\n      jump\t// in\n    tag_496:\n        /* \"#utility.yul\":7642:7740   */\n      swap2\n      pop\n        /* \"#utility.yul\":7436:7750   */\n      pop\n        /* \"#utility.yul\":5896:7757   */\n      swap3\n      swap6\n      pop\n      swap3\n      swap6\n      swap1\n      swap4\n      pop\n      jump\t// out\n        /* \"#utility.yul\":7763:9574   */\n    tag_45:\n        /* \"#utility.yul\":7908:7914   */\n      0x00\n        /* \"#utility.yul\":7916:7922   */\n      dup1\n        /* \"#utility.yul\":7924:7930   */\n      0x00\n        /* \"#utility.yul\":7932:7938   */\n      dup1\n        /* \"#utility.yul\":7940:7946   */\n      0x00\n        /* \"#utility.yul\":7989:7992   */\n      0xa0\n        /* \"#utility.yul\":7977:7986   */\n      dup7\n        /* \"#utility.yul\":7968:7975   */\n      dup9\n        /* \"#utility.yul\":7964:7987   */\n      sub\n        /* \"#utility.yul\":7960:7993   */\n      slt\n        /* \"#utility.yul\":7957:8077   */\n      iszero\n      tag_498\n      jumpi\n        /* \"#utility.yul\":7996:8075   */\n      tag_499\n      tag_446\n      jump\t// in\n    tag_499:\n        /* \"#utility.yul\":7957:8077   */\n    tag_498:\n        /* \"#utility.yul\":8144:8145   */\n      0x00\n        /* \"#utility.yul\":8133:8142   */\n      dup7\n        /* \"#utility.yul\":8129:8146   */\n      add\n        /* \"#utility.yul\":8116:8147   */\n      calldataload\n        /* \"#utility.yul\":8174:8192   */\n      0xffffffffffffffff\n        /* \"#utility.yul\":8166:8172   */\n      dup2\n        /* \"#utility.yul\":8163:8193   */\n      gt\n        /* \"#utility.yul\":8160:8277   */\n      iszero\n      tag_500\n      jumpi\n        /* \"#utility.yul\":8196:8275   */\n      tag_501\n      tag_453\n      jump\t// in\n    tag_501:\n        /* \"#utility.yul\":8160:8277   */\n    tag_500:\n        /* \"#utility.yul\":8301:8364   */\n      tag_502\n        /* \"#utility.yul\":8356:8363   */\n      dup9\n        /* \"#utility.yul\":8347:8353   */\n      dup3\n        /* \"#utility.yul\":8336:8345   */\n      dup10\n        /* \"#utility.yul\":8332:8354   */\n      add\n        /* \"#utility.yul\":8301:8364   */\n      tag_415\n      jump\t// in\n    tag_502:\n        /* \"#utility.yul\":8291:8364   */\n      swap6\n      pop\n        /* \"#utility.yul\":8087:8374   */\n      pop\n        /* \"#utility.yul\":8441:8443   */\n      0x20\n        /* \"#utility.yul\":8430:8439   */\n      dup7\n        /* \"#utility.yul\":8426:8444   */\n      add\n        /* \"#utility.yul\":8413:8445   */\n      calldataload\n        /* \"#utility.yul\":8472:8490   */\n      0xffffffffffffffff\n        /* \"#utility.yul\":8464:8470   */\n      dup2\n        /* \"#utility.yul\":8461:8491   */\n      gt\n        /* \"#utility.yul\":8458:8575   */\n      iszero\n      tag_503\n      jumpi\n        /* \"#utility.yul\":8494:8573   */\n      tag_504\n      tag_453\n      jump\t// in\n    tag_504:\n        /* \"#utility.yul\":8458:8575   */\n    tag_503:\n        /* \"#utility.yul\":8599:8662   */\n      tag_505\n        /* \"#utility.yul\":8654:8661   */\n      dup9\n        /* \"#utility.yul\":8645:8651   */\n      dup3\n        /* \"#utility.yul\":8634:8643   */\n      dup10\n        /* \"#utility.yul\":8630:8652   */\n      add\n        /* \"#utility.yul\":8599:8662   */\n      tag_415\n      jump\t// in\n    tag_505:\n        /* \"#utility.yul\":8589:8662   */\n      swap5\n      pop\n        /* \"#utility.yul\":8384:8672   */\n      pop\n        /* \"#utility.yul\":8739:8741   */\n      0x40\n        /* \"#utility.yul\":8728:8737   */\n      dup7\n        /* \"#utility.yul\":8724:8742   */\n      add\n        /* \"#utility.yul\":8711:8743   */\n      calldataload\n        /* \"#utility.yul\":8770:8788   */\n      0xffffffffffffffff\n        /* \"#utility.yul\":8762:8768   */\n      dup2\n        /* \"#utility.yul\":8759:8789   */\n      gt\n        /* \"#utility.yul\":8756:8873   */\n      iszero\n      tag_506\n      jumpi\n        /* \"#utility.yul\":8792:8871   */\n      tag_507\n      tag_453\n      jump\t// in\n    tag_507:\n        /* \"#utility.yul\":8756:8873   */\n    tag_506:\n        /* \"#utility.yul\":8897:8960   */\n      tag_508\n        /* \"#utility.yul\":8952:8959   */\n      dup9\n        /* \"#utility.yul\":8943:8949   */\n      dup3\n        /* \"#utility.yul\":8932:8941   */\n      dup10\n        /* \"#utility.yul\":8928:8950   */\n      add\n        /* \"#utility.yul\":8897:8960   */\n      tag_415\n      jump\t// in\n    tag_508:\n        /* \"#utility.yul\":8887:8960   */\n      swap4\n      pop\n        /* \"#utility.yul\":8682:8970   */\n      pop\n        /* \"#utility.yul\":9037:9039   */\n      0x60\n        /* \"#utility.yul\":9026:9035   */\n      dup7\n        /* \"#utility.yul\":9022:9040   */\n      add\n        /* \"#utility.yul\":9009:9041   */\n      calldataload\n        /* \"#utility.yul\":9068:9086   */\n      0xffffffffffffffff\n        /* \"#utility.yul\":9060:9066   */\n      dup2\n        /* \"#utility.yul\":9057:9087   */\n      gt\n        /* \"#utility.yul\":9054:9171   */\n      iszero\n      tag_509\n      jumpi\n        /* \"#utility.yul\":9090:9169   */\n      tag_510\n      tag_453\n      jump\t// in\n    tag_510:\n        /* \"#utility.yul\":9054:9171   */\n    tag_509:\n        /* \"#utility.yul\":9195:9258   */\n      tag_511\n        /* \"#utility.yul\":9250:9257   */\n      dup9\n        /* \"#utility.yul\":9241:9247   */\n      dup3\n        /* \"#utility.yul\":9230:9239   */\n      dup10\n        /* \"#utility.yul\":9226:9248   */\n      add\n        /* \"#utility.yul\":9195:9258   */\n      tag_415\n      jump\t// in\n    tag_511:\n        /* \"#utility.yul\":9185:9258   */\n      swap3\n      pop\n        /* \"#utility.yul\":8980:9268   */\n      pop\n        /* \"#utility.yul\":9335:9338   */\n      0x80\n        /* \"#utility.yul\":9324:9333   */\n      dup7\n        /* \"#utility.yul\":9320:9339   */\n      add\n        /* \"#utility.yul\":9307:9340   */\n      calldataload\n        /* \"#utility.yul\":9367:9385   */\n      0xffffffffffffffff\n        /* \"#utility.yul\":9359:9365   */\n      dup2\n        /* \"#utility.yul\":9356:9386   */\n      gt\n        /* \"#utility.yul\":9353:9470   */\n      iszero\n      tag_512\n      jumpi\n        /* \"#utility.yul\":9389:9468   */\n      tag_513\n      tag_453\n      jump\t// in\n    tag_513:\n        /* \"#utility.yul\":9353:9470   */\n    tag_512:\n        /* \"#utility.yul\":9494:9557   */\n      tag_514\n        /* \"#utility.yul\":9549:9556   */\n      dup9\n        /* \"#utility.yul\":9540:9546   */\n      dup3\n        /* \"#utility.yul\":9529:9538   */\n      dup10\n        /* \"#utility.yul\":9525:9547   */\n      add\n        /* \"#utility.yul\":9494:9557   */\n      tag_415\n      jump\t// in\n    tag_514:\n        /* \"#utility.yul\":9484:9557   */\n      swap2\n      pop\n        /* \"#utility.yul\":9278:9567   */\n      pop\n        /* \"#utility.yul\":7763:9574   */\n      swap3\n      swap6\n      pop\n      swap3\n      swap6\n      swap1\n      swap4\n      pop\n      jump\t// out\n        /* \"#utility.yul\":9580:11717   */\n    tag_56:\n        /* \"#utility.yul\":9744:9750   */\n      0x00\n        /* \"#utility.yul\":9752:9758   */\n      dup1\n        /* \"#utility.yul\":9760:9766   */\n      0x00\n        /* \"#utility.yul\":9768:9774   */\n      dup1\n        /* \"#utility.yul\":9776:9782   */\n      0x00\n        /* \"#utility.yul\":9784:9790   */\n      dup1\n        /* \"#utility.yul\":9833:9836   */\n      0xc0\n        /* \"#utility.yul\":9821:9830   */\n      dup8\n        /* \"#utility.yul\":9812:9819   */\n      dup10\n        /* \"#utility.yul\":9808:9831   */\n      sub\n        /* \"#utility.yul\":9804:9837   */\n      slt\n        /* \"#utility.yul\":9801:9921   */\n      iszero\n      tag_516\n      jumpi\n        /* \"#utility.yul\":9840:9919   */\n      tag_517\n      tag_446\n      jump\t// in\n    tag_517:\n        /* \"#utility.yul\":9801:9921   */\n    tag_516:\n        /* \"#utility.yul\":9988:9989   */\n      0x00\n        /* \"#utility.yul\":9977:9986   */\n      dup8\n        /* \"#utility.yul\":9973:9990   */\n      add\n        /* \"#utility.yul\":9960:9991   */\n      calldataload\n        /* \"#utility.yul\":10018:10036   */\n      0xffffffffffffffff\n        /* \"#utility.yul\":10010:10016   */\n      dup2\n        /* \"#utility.yul\":10007:10037   */\n      gt\n        /* \"#utility.yul\":10004:10121   */\n      iszero\n      tag_518\n      jumpi\n        /* \"#utility.yul\":10040:10119   */\n      tag_519\n      tag_453\n      jump\t// in\n    tag_519:\n        /* \"#utility.yul\":10004:10121   */\n    tag_518:\n        /* \"#utility.yul\":10145:10208   */\n      tag_520\n        /* \"#utility.yul\":10200:10207   */\n      dup10\n        /* \"#utility.yul\":10191:10197   */\n      dup3\n        /* \"#utility.yul\":10180:10189   */\n      dup11\n        /* \"#utility.yul\":10176:10198   */\n      add\n        /* \"#utility.yul\":10145:10208   */\n      tag_415\n      jump\t// in\n    tag_520:\n        /* \"#utility.yul\":10135:10208   */\n      swap7\n      pop\n        /* \"#utility.yul\":9931:10218   */\n      pop\n        /* \"#utility.yul\":10285:10287   */\n      0x20\n        /* \"#utility.yul\":10274:10283   */\n      dup8\n        /* \"#utility.yul\":10270:10288   */\n      add\n        /* \"#utility.yul\":10257:10289   */\n      calldataload\n        /* \"#utility.yul\":10316:10334   */\n      0xffffffffffffffff\n        /* \"#utility.yul\":10308:10314   */\n      dup2\n        /* \"#utility.yul\":10305:10335   */\n      gt\n        /* \"#utility.yul\":10302:10419   */\n      iszero\n      tag_521\n      jumpi\n        /* \"#utility.yul\":10338:10417   */\n      tag_522\n      tag_453\n      jump\t// in\n    tag_522:\n        /* \"#utility.yul\":10302:10419   */\n    tag_521:\n        /* \"#utility.yul\":10443:10506   */\n      tag_523\n        /* \"#utility.yul\":10498:10505   */\n      dup10\n        /* \"#utility.yul\":10489:10495   */\n      dup3\n        /* \"#utility.yul\":10478:10487   */\n      dup11\n        /* \"#utility.yul\":10474:10496   */\n      add\n        /* \"#utility.yul\":10443:10506   */\n      tag_415\n      jump\t// in\n    tag_523:\n        /* \"#utility.yul\":10433:10506   */\n      swap6\n      pop\n        /* \"#utility.yul\":10228:10516   */\n      pop\n        /* \"#utility.yul\":10583:10585   */\n      0x40\n        /* \"#utility.yul\":10572:10581   */\n      dup8\n        /* \"#utility.yul\":10568:10586   */\n      add\n        /* \"#utility.yul\":10555:10587   */\n      calldataload\n        /* \"#utility.yul\":10614:10632   */\n      0xffffffffffffffff\n        /* \"#utility.yul\":10606:10612   */\n      dup2\n        /* \"#utility.yul\":10603:10633   */\n      gt\n        /* \"#utility.yul\":10600:10717   */\n      iszero\n      tag_524\n      jumpi\n        /* \"#utility.yul\":10636:10715   */\n      tag_525\n      tag_453\n      jump\t// in\n    tag_525:\n        /* \"#utility.yul\":10600:10717   */\n    tag_524:\n        /* \"#utility.yul\":10741:10804   */\n      tag_526\n        /* \"#utility.yul\":10796:10803   */\n      dup10\n        /* \"#utility.yul\":10787:10793   */\n      dup3\n        /* \"#utility.yul\":10776:10785   */\n      dup11\n        /* \"#utility.yul\":10772:10794   */\n      add\n        /* \"#utility.yul\":10741:10804   */\n      tag_415\n      jump\t// in\n    tag_526:\n        /* \"#utility.yul\":10731:10804   */\n      swap5\n      pop\n        /* \"#utility.yul\":10526:10814   */\n      pop\n        /* \"#utility.yul\":10881:10883   */\n      0x60\n        /* \"#utility.yul\":10870:10879   */\n      dup8\n        /* \"#utility.yul\":10866:10884   */\n      add\n        /* \"#utility.yul\":10853:10885   */\n      calldataload\n        /* \"#utility.yul\":10912:10930   */\n      0xffffffffffffffff\n        /* \"#utility.yul\":10904:10910   */\n      dup2\n        /* \"#utility.yul\":10901:10931   */\n      gt\n        /* \"#utility.yul\":10898:11015   */\n      iszero\n      tag_527\n      jumpi\n        /* \"#utility.yul\":10934:11013   */\n      tag_528\n      tag_453\n      jump\t// in\n    tag_528:\n        /* \"#utility.yul\":10898:11015   */\n    tag_527:\n        /* \"#utility.yul\":11039:11102   */\n      tag_529\n        /* \"#utility.yul\":11094:11101   */\n      dup10\n        /* \"#utility.yul\":11085:11091   */\n      dup3\n        /* \"#utility.yul\":11074:11083   */\n      dup11\n        /* \"#utility.yul\":11070:11092   */\n      add\n        /* \"#utility.yul\":11039:11102   */\n      tag_415\n      jump\t// in\n    tag_529:\n        /* \"#utility.yul\":11029:11102   */\n      swap4\n      pop\n        /* \"#utility.yul\":10824:11112   */\n      pop\n        /* \"#utility.yul\":11179:11182   */\n      0x80\n        /* \"#utility.yul\":11168:11177   */\n      dup8\n        /* \"#utility.yul\":11164:11183   */\n      add\n        /* \"#utility.yul\":11151:11184   */\n      calldataload\n        /* \"#utility.yul\":11211:11229   */\n      0xffffffffffffffff\n        /* \"#utility.yul\":11203:11209   */\n      dup2\n        /* \"#utility.yul\":11200:11230   */\n      gt\n        /* \"#utility.yul\":11197:11314   */\n      iszero\n      tag_530\n      jumpi\n        /* \"#utility.yul\":11233:11312   */\n      tag_531\n      tag_453\n      jump\t// in\n    tag_531:\n        /* \"#utility.yul\":11197:11314   */\n    tag_530:\n        /* \"#utility.yul\":11338:11401   */\n      tag_532\n        /* \"#utility.yul\":11393:11400   */\n      dup10\n        /* \"#utility.yul\":11384:11390   */\n      dup3\n        /* \"#utility.yul\":11373:11382   */\n      dup11\n        /* \"#utility.yul\":11369:11391   */\n      add\n        /* \"#utility.yul\":11338:11401   */\n      tag_415\n      jump\t// in\n    tag_532:\n        /* \"#utility.yul\":11328:11401   */\n      swap3\n      pop\n        /* \"#utility.yul\":11122:11411   */\n      pop\n        /* \"#utility.yul\":11478:11481   */\n      0xa0\n        /* \"#utility.yul\":11467:11476   */\n      dup8\n        /* \"#utility.yul\":11463:11482   */\n      add\n        /* \"#utility.yul\":11450:11483   */\n      calldataload\n        /* \"#utility.yul\":11510:11528   */\n      0xffffffffffffffff\n        /* \"#utility.yul\":11502:11508   */\n      dup2\n        /* \"#utility.yul\":11499:11529   */\n      gt\n        /* \"#utility.yul\":11496:11613   */\n      iszero\n      tag_533\n      jumpi\n        /* \"#utility.yul\":11532:11611   */\n      tag_534\n      tag_453\n      jump\t// in\n    tag_534:\n        /* \"#utility.yul\":11496:11613   */\n    tag_533:\n        /* \"#utility.yul\":11637:11700   */\n      tag_535\n        /* \"#utility.yul\":11692:11699   */\n      dup10\n        /* \"#utility.yul\":11683:11689   */\n      dup3\n        /* \"#utility.yul\":11672:11681   */\n      dup11\n        /* \"#utility.yul\":11668:11690   */\n      add\n        /* \"#utility.yul\":11637:11700   */\n      tag_415\n      jump\t// in\n    tag_535:\n        /* \"#utility.yul\":11627:11700   */\n      swap2\n      pop\n        /* \"#utility.yul\":11421:11710   */\n      pop\n        /* \"#utility.yul\":9580:11717   */\n      swap3\n      swap6\n      pop\n      swap3\n      swap6\n      pop\n      swap3\n      swap6\n      jump\t// out\n        /* \"#utility.yul\":11723:12052   */\n    tag_75:\n        /* \"#utility.yul\":11782:11788   */\n      0x00\n        /* \"#utility.yul\":11831:11833   */\n      0x20\n        /* \"#utility.yul\":11819:11828   */\n      dup3\n        /* \"#utility.yul\":11810:11817   */\n      dup5\n        /* \"#utility.yul\":11806:11829   */\n      sub\n        /* \"#utility.yul\":11802:11834   */\n      slt\n        /* \"#utility.yul\":11799:11918   */\n      iszero\n      tag_537\n      jumpi\n        /* \"#utility.yul\":11837:11916   */\n      tag_538\n      tag_446\n      jump\t// in\n    tag_538:\n        /* \"#utility.yul\":11799:11918   */\n    tag_537:\n        /* \"#utility.yul\":11957:11958   */\n      0x00\n        /* \"#utility.yul\":11982:12035   */\n      tag_539\n        /* \"#utility.yul\":12027:12034   */\n      dup5\n        /* \"#utility.yul\":12018:12024   */\n      dup3\n        /* \"#utility.yul\":12007:12016   */\n      dup6\n        /* \"#utility.yul\":12003:12025   */\n      add\n        /* \"#utility.yul\":11982:12035   */\n      tag_439\n      jump\t// in\n    tag_539:\n        /* \"#utility.yul\":11972:12035   */\n      swap2\n      pop\n        /* \"#utility.yul\":11928:12045   */\n      pop\n        /* \"#utility.yul\":11723:12052   */\n      swap3\n      swap2\n      pop\n      pop\n      jump\t// out\n        /* \"#utility.yul\":12058:12254   */\n    tag_540:\n        /* \"#utility.yul\":12147:12157   */\n      0x00\n        /* \"#utility.yul\":12182:12248   */\n      tag_542\n        /* \"#utility.yul\":12244:12247   */\n      dup4\n        /* \"#utility.yul\":12236:12242   */\n      dup4\n        /* \"#utility.yul\":12182:12248   */\n      tag_543\n      jump\t// in\n    tag_542:\n        /* \"#utility.yul\":12168:12248   */\n      swap1\n      pop\n        /* \"#utility.yul\":12058:12254   */\n      swap3\n      swap2\n      pop\n      pop\n      jump\t// out\n        /* \"#utility.yul\":12260:12368   */\n    tag_544:\n        /* \"#utility.yul\":12337:12361   */\n      tag_546\n        /* \"#utility.yul\":12355:12360   */\n      dup2\n        /* \"#utility.yul\":12337:12361   */\n      tag_547\n      jump\t// in\n    tag_546:\n        /* \"#utility.yul\":12332:12335   */\n      dup3\n        /* \"#utility.yul\":12325:12362   */\n      mstore\n        /* \"#utility.yul\":12260:12368   */\n      pop\n      pop\n      jump\t// out\n        /* \"#utility.yul\":12402:13373   */\n    tag_548:\n        /* \"#utility.yul\":12531:12534   */\n      0x00\n        /* \"#utility.yul\":12560:12624   */\n      tag_550\n        /* \"#utility.yul\":12618:12623   */\n      dup3\n        /* \"#utility.yul\":12560:12624   */\n      tag_551\n      jump\t// in\n    tag_550:\n        /* \"#utility.yul\":12640:12726   */\n      tag_552\n        /* \"#utility.yul\":12719:12725   */\n      dup2\n        /* \"#utility.yul\":12714:12717   */\n      dup6\n        /* \"#utility.yul\":12640:12726   */\n      tag_553\n      jump\t// in\n    tag_552:\n        /* \"#utility.yul\":12633:12726   */\n      swap4\n      pop\n        /* \"#utility.yul\":12752:12755   */\n      dup4\n        /* \"#utility.yul\":12797:12801   */\n      0x20\n        /* \"#utility.yul\":12789:12795   */\n      dup3\n        /* \"#utility.yul\":12785:12802   */\n      mul\n        /* \"#utility.yul\":12780:12783   */\n      dup6\n        /* \"#utility.yul\":12776:12803   */\n      add\n        /* \"#utility.yul\":12827:12893   */\n      tag_554\n        /* \"#utility.yul\":12887:12892   */\n      dup6\n        /* \"#utility.yul\":12827:12893   */\n      tag_555\n      jump\t// in\n    tag_554:\n        /* \"#utility.yul\":12916:12923   */\n      dup1\n        /* \"#utility.yul\":12947:12948   */\n      0x00\n        /* \"#utility.yul\":12932:13328   */\n    tag_556:\n        /* \"#utility.yul\":12957:12963   */\n      dup6\n        /* \"#utility.yul\":12954:12955   */\n      dup2\n        /* \"#utility.yul\":12951:12964   */\n      lt\n        /* \"#utility.yul\":12932:13328   */\n      iszero\n      tag_558\n      jumpi\n        /* \"#utility.yul\":13028:13037   */\n      dup5\n        /* \"#utility.yul\":13022:13026   */\n      dup5\n        /* \"#utility.yul\":13018:13038   */\n      sub\n        /* \"#utility.yul\":13013:13016   */\n      dup10\n        /* \"#utility.yul\":13006:13039   */\n      mstore\n        /* \"#utility.yul\":13079:13085   */\n      dup2\n        /* \"#utility.yul\":13073:13086   */\n      mload\n        /* \"#utility.yul\":13107:13191   */\n      tag_559\n        /* \"#utility.yul\":13186:13190   */\n      dup6\n        /* \"#utility.yul\":13171:13184   */\n      dup3\n        /* \"#utility.yul\":13107:13191   */\n      tag_540\n      jump\t// in\n    tag_559:\n        /* \"#utility.yul\":13099:13191   */\n      swap5\n      pop\n        /* \"#utility.yul\":13214:13284   */\n      tag_560\n        /* \"#utility.yul\":13277:13283   */\n      dup4\n        /* \"#utility.yul\":13214:13284   */\n      tag_561\n      jump\t// in\n    tag_560:\n        /* \"#utility.yul\":13204:13284   */\n      swap3\n      pop\n        /* \"#utility.yul\":13313:13317   */\n      0x20\n        /* \"#utility.yul\":13308:13311   */\n      dup11\n        /* \"#utility.yul\":13304:13318   */\n      add\n        /* \"#utility.yul\":13297:13318   */\n      swap10\n      pop\n        /* \"#utility.yul\":12992:13328   */\n      pop\n        /* \"#utility.yul\":12979:12980   */\n      0x01\n        /* \"#utility.yul\":12976:12977   */\n      dup2\n        /* \"#utility.yul\":12972:12981   */\n      add\n        /* \"#utility.yul\":12967:12981   */\n      swap1\n      pop\n        /* \"#utility.yul\":12932:13328   */\n      jump(tag_556)\n    tag_558:\n        /* \"#utility.yul\":12936:12950   */\n      pop\n        /* \"#utility.yul\":13344:13348   */\n      dup3\n        /* \"#utility.yul\":13337:13348   */\n      swap8\n      pop\n        /* \"#utility.yul\":13364:13367   */\n      dup8\n        /* \"#utility.yul\":13357:13367   */\n      swap6\n      pop\n        /* \"#utility.yul\":12536:13373   */\n      pop\n      pop\n      pop\n      pop\n      pop\n        /* \"#utility.yul\":12402:13373   */\n      swap3\n      swap2\n      pop\n      pop\n      jump\t// out\n        /* \"#utility.yul\":13379:13723   */\n    tag_543:\n        /* \"#utility.yul\":13457:13460   */\n      0x00\n        /* \"#utility.yul\":13485:13524   */\n      tag_563\n        /* \"#utility.yul\":13518:13523   */\n      dup3\n        /* \"#utility.yul\":13485:13524   */\n      tag_564\n      jump\t// in\n    tag_563:\n        /* \"#utility.yul\":13540:13601   */\n      tag_565\n        /* \"#utility.yul\":13594:13600   */\n      dup2\n        /* \"#utility.yul\":13589:13592   */\n      dup6\n        /* \"#utility.yul\":13540:13601   */\n      tag_566\n      jump\t// in\n    tag_565:\n        /* \"#utility.yul\":13533:13601   */\n      swap4\n      pop\n        /* \"#utility.yul\":13610:13662   */\n      tag_567\n        /* \"#utility.yul\":13655:13661   */\n      dup2\n        /* \"#utility.yul\":13650:13653   */\n      dup6\n        /* \"#utility.yul\":13643:13647   */\n      0x20\n        /* \"#utility.yul\":13636:13641   */\n      dup7\n        /* \"#utility.yul\":13632:13648   */\n      add\n        /* \"#utility.yul\":13610:13662   */\n      tag_568\n      jump\t// in\n    tag_567:\n        /* \"#utility.yul\":13687:13716   */\n      tag_569\n        /* \"#utility.yul\":13709:13715   */\n      dup2\n        /* \"#utility.yul\":13687:13716   */\n      tag_570\n      jump\t// in\n    tag_569:\n        /* \"#utility.yul\":13682:13685   */\n      dup5\n        /* \"#utility.yul\":13678:13717   */\n      add\n        /* \"#utility.yul\":13671:13717   */\n      swap2\n      pop\n        /* \"#utility.yul\":13461:13723   */\n      pop\n        /* \"#utility.yul\":13379:13723   */\n      swap3\n      swap2\n      pop\n      pop\n      jump\t// out\n        /* \"#utility.yul\":13729:14093   */\n    tag_571:\n        /* \"#utility.yul\":13817:13820   */\n      0x00\n        /* \"#utility.yul\":13845:13884   */\n      tag_573\n        /* \"#utility.yul\":13878:13883   */\n      dup3\n        /* \"#utility.yul\":13845:13884   */\n      tag_564\n      jump\t// in\n    tag_573:\n        /* \"#utility.yul\":13900:13971   */\n      tag_574\n        /* \"#utility.yul\":13964:13970   */\n      dup2\n        /* \"#utility.yul\":13959:13962   */\n      dup6\n        /* \"#utility.yul\":13900:13971   */\n      tag_575\n      jump\t// in\n    tag_574:\n        /* \"#utility.yul\":13893:13971   */\n      swap4\n      pop\n        /* \"#utility.yul\":13980:14032   */\n      tag_576\n        /* \"#utility.yul\":14025:14031   */\n      dup2\n        /* \"#utility.yul\":14020:14023   */\n      dup6\n        /* \"#utility.yul\":14013:14017   */\n      0x20\n        /* \"#utility.yul\":14006:14011   */\n      dup7\n        /* \"#utility.yul\":14002:14018   */\n      add\n        /* \"#utility.yul\":13980:14032   */\n      tag_568\n      jump\t// in\n    tag_576:\n        /* \"#utility.yul\":14057:14086   */\n      tag_577\n        /* \"#utility.yul\":14079:14085   */\n      dup2\n        /* \"#utility.yul\":14057:14086   */\n      tag_570\n      jump\t// in\n    tag_577:\n        /* \"#utility.yul\":14052:14055   */\n      dup5\n        /* \"#utility.yul\":14048:14087   */\n      add\n        /* \"#utility.yul\":14041:14087   */\n      swap2\n      pop\n        /* \"#utility.yul\":13821:14093   */\n      pop\n        /* \"#utility.yul\":13729:14093   */\n      swap3\n      swap2\n      pop\n      pop\n      jump\t// out\n        /* \"#utility.yul\":14179:14986   */\n    tag_578:\n        /* \"#utility.yul\":14320:14323   */\n      0x00\n        /* \"#utility.yul\":14356:14360   */\n      0x40\n        /* \"#utility.yul\":14351:14354   */\n      dup4\n        /* \"#utility.yul\":14347:14361   */\n      add\n        /* \"#utility.yul\":14450:14454   */\n      0x00\n        /* \"#utility.yul\":14443:14448   */\n      dup4\n        /* \"#utility.yul\":14439:14455   */\n      add\n        /* \"#utility.yul\":14433:14456   */\n      mload\n        /* \"#utility.yul\":14503:14506   */\n      dup5\n        /* \"#utility.yul\":14497:14501   */\n      dup3\n        /* \"#utility.yul\":14493:14507   */\n      sub\n        /* \"#utility.yul\":14486:14490   */\n      0x00\n        /* \"#utility.yul\":14481:14484   */\n      dup7\n        /* \"#utility.yul\":14477:14491   */\n      add\n        /* \"#utility.yul\":14470:14508   */\n      mstore\n        /* \"#utility.yul\":14529:14652   */\n      tag_580\n        /* \"#utility.yul\":14647:14651   */\n      dup3\n        /* \"#utility.yul\":14633:14645   */\n      dup3\n        /* \"#utility.yul\":14529:14652   */\n      tag_548\n      jump\t// in\n    tag_580:\n        /* \"#utility.yul\":14521:14652   */\n      swap2\n      pop\n        /* \"#utility.yul\":14371:14663   */\n      pop\n        /* \"#utility.yul\":14746:14750   */\n      0x20\n        /* \"#utility.yul\":14739:14744   */\n      dup4\n        /* \"#utility.yul\":14735:14751   */\n      add\n        /* \"#utility.yul\":14729:14752   */\n      mload\n        /* \"#utility.yul\":14799:14802   */\n      dup5\n        /* \"#utility.yul\":14793:14797   */\n      dup3\n        /* \"#utility.yul\":14789:14803   */\n      sub\n        /* \"#utility.yul\":14782:14786   */\n      0x20\n        /* \"#utility.yul\":14777:14780   */\n      dup7\n        /* \"#utility.yul\":14773:14787   */\n      add\n        /* \"#utility.yul\":14766:14804   */\n      mstore\n        /* \"#utility.yul\":14825:14948   */\n      tag_581\n        /* \"#utility.yul\":14943:14947   */\n      dup3\n        /* \"#utility.yul\":14929:14941   */\n      dup3\n        /* \"#utility.yul\":14825:14948   */\n      tag_548\n      jump\t// in\n    tag_581:\n        /* \"#utility.yul\":14817:14948   */\n      swap2\n      pop\n        /* \"#utility.yul\":14673:14959   */\n      pop\n        /* \"#utility.yul\":14976:14980   */\n      dup1\n        /* \"#utility.yul\":14969:14980   */\n      swap2\n      pop\n        /* \"#utility.yul\":14325:14986   */\n      pop\n        /* \"#utility.yul\":14179:14986   */\n      swap3\n      swap2\n      pop\n      pop\n      jump\t// out\n        /* \"#utility.yul\":15068:16568   */\n    tag_582:\n        /* \"#utility.yul\":15203:15206   */\n      0x00\n        /* \"#utility.yul\":15239:15243   */\n      0xa0\n        /* \"#utility.yul\":15234:15237   */\n      dup4\n        /* \"#utility.yul\":15230:15244   */\n      add\n        /* \"#utility.yul\":15333:15337   */\n      0x00\n        /* \"#utility.yul\":15326:15331   */\n      dup4\n        /* \"#utility.yul\":15322:15338   */\n      add\n        /* \"#utility.yul\":15316:15339   */\n      mload\n        /* \"#utility.yul\":15386:15389   */\n      dup5\n        /* \"#utility.yul\":15380:15384   */\n      dup3\n        /* \"#utility.yul\":15376:15390   */\n      sub\n        /* \"#utility.yul\":15369:15373   */\n      0x00\n        /* \"#utility.yul\":15364:15367   */\n      dup7\n        /* \"#utility.yul\":15360:15374   */\n      add\n        /* \"#utility.yul\":15353:15391   */\n      mstore\n        /* \"#utility.yul\":15412:15485   */\n      tag_584\n        /* \"#utility.yul\":15480:15484   */\n      dup3\n        /* \"#utility.yul\":15466:15478   */\n      dup3\n        /* \"#utility.yul\":15412:15485   */\n      tag_543\n      jump\t// in\n    tag_584:\n        /* \"#utility.yul\":15404:15485   */\n      swap2\n      pop\n        /* \"#utility.yul\":15254:15496   */\n      pop\n        /* \"#utility.yul\":15582:15586   */\n      0x20\n        /* \"#utility.yul\":15575:15580   */\n      dup4\n        /* \"#utility.yul\":15571:15587   */\n      add\n        /* \"#utility.yul\":15565:15588   */\n      mload\n        /* \"#utility.yul\":15635:15638   */\n      dup5\n        /* \"#utility.yul\":15629:15633   */\n      dup3\n        /* \"#utility.yul\":15625:15639   */\n      sub\n        /* \"#utility.yul\":15618:15622   */\n      0x20\n        /* \"#utility.yul\":15613:15616   */\n      dup7\n        /* \"#utility.yul\":15609:15623   */\n      add\n        /* \"#utility.yul\":15602:15640   */\n      mstore\n        /* \"#utility.yul\":15661:15734   */\n      tag_585\n        /* \"#utility.yul\":15729:15733   */\n      dup3\n        /* \"#utility.yul\":15715:15727   */\n      dup3\n        /* \"#utility.yul\":15661:15734   */\n      tag_543\n      jump\t// in\n    tag_585:\n        /* \"#utility.yul\":15653:15734   */\n      swap2\n      pop\n        /* \"#utility.yul\":15506:15745   */\n      pop\n        /* \"#utility.yul\":15832:15836   */\n      0x40\n        /* \"#utility.yul\":15825:15830   */\n      dup4\n        /* \"#utility.yul\":15821:15837   */\n      add\n        /* \"#utility.yul\":15815:15838   */\n      mload\n        /* \"#utility.yul\":15885:15888   */\n      dup5\n        /* \"#utility.yul\":15879:15883   */\n      dup3\n        /* \"#utility.yul\":15875:15889   */\n      sub\n        /* \"#utility.yul\":15868:15872   */\n      0x40\n        /* \"#utility.yul\":15863:15866   */\n      dup7\n        /* \"#utility.yul\":15859:15873   */\n      add\n        /* \"#utility.yul\":15852:15890   */\n      mstore\n        /* \"#utility.yul\":15911:15984   */\n      tag_586\n        /* \"#utility.yul\":15979:15983   */\n      dup3\n        /* \"#utility.yul\":15965:15977   */\n      dup3\n        /* \"#utility.yul\":15911:15984   */\n      tag_543\n      jump\t// in\n    tag_586:\n        /* \"#utility.yul\":15903:15984   */\n      swap2\n      pop\n        /* \"#utility.yul\":15755:15995   */\n      pop\n        /* \"#utility.yul\":16080:16084   */\n      0x60\n        /* \"#utility.yul\":16073:16078   */\n      dup4\n        /* \"#utility.yul\":16069:16085   */\n      add\n        /* \"#utility.yul\":16063:16086   */\n      mload\n        /* \"#utility.yul\":16133:16136   */\n      dup5\n        /* \"#utility.yul\":16127:16131   */\n      dup3\n        /* \"#utility.yul\":16123:16137   */\n      sub\n        /* \"#utility.yul\":16116:16120   */\n      0x60\n        /* \"#utility.yul\":16111:16114   */\n      dup7\n        /* \"#utility.yul\":16107:16121   */\n      add\n        /* \"#utility.yul\":16100:16138   */\n      mstore\n        /* \"#utility.yul\":16159:16232   */\n      tag_587\n        /* \"#utility.yul\":16227:16231   */\n      dup3\n        /* \"#utility.yul\":16213:16225   */\n      dup3\n        /* \"#utility.yul\":16159:16232   */\n      tag_543\n      jump\t// in\n    tag_587:\n        /* \"#utility.yul\":16151:16232   */\n      swap2\n      pop\n        /* \"#utility.yul\":16005:16243   */\n      pop\n        /* \"#utility.yul\":16328:16332   */\n      0x80\n        /* \"#utility.yul\":16321:16326   */\n      dup4\n        /* \"#utility.yul\":16317:16333   */\n      add\n        /* \"#utility.yul\":16311:16334   */\n      mload\n        /* \"#utility.yul\":16381:16384   */\n      dup5\n        /* \"#utility.yul\":16375:16379   */\n      dup3\n        /* \"#utility.yul\":16371:16385   */\n      sub\n        /* \"#utility.yul\":16364:16368   */\n      0x80\n        /* \"#utility.yul\":16359:16362   */\n      dup7\n        /* \"#utility.yul\":16355:16369   */\n      add\n        /* \"#utility.yul\":16348:16386   */\n      mstore\n        /* \"#utility.yul\":16407:16530   */\n      tag_588\n        /* \"#utility.yul\":16525:16529   */\n      dup3\n        /* \"#utility.yul\":16511:16523   */\n      dup3\n        /* \"#utility.yul\":16407:16530   */\n      tag_548\n      jump\t// in\n    tag_588:\n        /* \"#utility.yul\":16399:16530   */\n      swap2\n      pop\n        /* \"#utility.yul\":16253:16541   */\n      pop\n        /* \"#utility.yul\":16558:16562   */\n      dup1\n        /* \"#utility.yul\":16551:16562   */\n      swap2\n      pop\n        /* \"#utility.yul\":15208:16568   */\n      pop\n        /* \"#utility.yul\":15068:16568   */\n      swap3\n      swap2\n      pop\n      pop\n      jump\t// out\n        /* \"#utility.yul\":16632:18298   */\n    tag_589:\n        /* \"#utility.yul\":16749:16752   */\n      0x00\n        /* \"#utility.yul\":16785:16789   */\n      0xc0\n        /* \"#utility.yul\":16780:16783   */\n      dup4\n        /* \"#utility.yul\":16776:16790   */\n      add\n        /* \"#utility.yul\":16875:16879   */\n      0x00\n        /* \"#utility.yul\":16868:16873   */\n      dup4\n        /* \"#utility.yul\":16864:16880   */\n      add\n        /* \"#utility.yul\":16858:16881   */\n      mload\n        /* \"#utility.yul\":16928:16931   */\n      dup5\n        /* \"#utility.yul\":16922:16926   */\n      dup3\n        /* \"#utility.yul\":16918:16932   */\n      sub\n        /* \"#utility.yul\":16911:16915   */\n      0x00\n        /* \"#utility.yul\":16906:16909   */\n      dup7\n        /* \"#utility.yul\":16902:16916   */\n      add\n        /* \"#utility.yul\":16895:16933   */\n      mstore\n        /* \"#utility.yul\":16954:17027   */\n      tag_591\n        /* \"#utility.yul\":17022:17026   */\n      dup3\n        /* \"#utility.yul\":17008:17020   */\n      dup3\n        /* \"#utility.yul\":16954:17027   */\n      tag_543\n      jump\t// in\n    tag_591:\n        /* \"#utility.yul\":16946:17027   */\n      swap2\n      pop\n        /* \"#utility.yul\":16800:17038   */\n      pop\n        /* \"#utility.yul\":17121:17125   */\n      0x20\n        /* \"#utility.yul\":17114:17119   */\n      dup4\n        /* \"#utility.yul\":17110:17126   */\n      add\n        /* \"#utility.yul\":17104:17127   */\n      mload\n        /* \"#utility.yul\":17174:17177   */\n      dup5\n        /* \"#utility.yul\":17168:17172   */\n      dup3\n        /* \"#utility.yul\":17164:17178   */\n      sub\n        /* \"#utility.yul\":17157:17161   */\n      0x20\n        /* \"#utility.yul\":17152:17155   */\n      dup7\n        /* \"#utility.yul\":17148:17162   */\n      add\n        /* \"#utility.yul\":17141:17179   */\n      mstore\n        /* \"#utility.yul\":17200:17273   */\n      tag_592\n        /* \"#utility.yul\":17268:17272   */\n      dup3\n        /* \"#utility.yul\":17254:17266   */\n      dup3\n        /* \"#utility.yul\":17200:17273   */\n      tag_543\n      jump\t// in\n    tag_592:\n        /* \"#utility.yul\":17192:17273   */\n      swap2\n      pop\n        /* \"#utility.yul\":17048:17284   */\n      pop\n        /* \"#utility.yul\":17367:17371   */\n      0x40\n        /* \"#utility.yul\":17360:17365   */\n      dup4\n        /* \"#utility.yul\":17356:17372   */\n      add\n        /* \"#utility.yul\":17350:17373   */\n      mload\n        /* \"#utility.yul\":17420:17423   */\n      dup5\n        /* \"#utility.yul\":17414:17418   */\n      dup3\n        /* \"#utility.yul\":17410:17424   */\n      sub\n        /* \"#utility.yul\":17403:17407   */\n      0x40\n        /* \"#utility.yul\":17398:17401   */\n      dup7\n        /* \"#utility.yul\":17394:17408   */\n      add\n        /* \"#utility.yul\":17387:17425   */\n      mstore\n        /* \"#utility.yul\":17446:17519   */\n      tag_593\n        /* \"#utility.yul\":17514:17518   */\n      dup3\n        /* \"#utility.yul\":17500:17512   */\n      dup3\n        /* \"#utility.yul\":17446:17519   */\n      tag_543\n      jump\t// in\n    tag_593:\n        /* \"#utility.yul\":17438:17519   */\n      swap2\n      pop\n        /* \"#utility.yul\":17294:17530   */\n      pop\n        /* \"#utility.yul\":17614:17618   */\n      0x60\n        /* \"#utility.yul\":17607:17612   */\n      dup4\n        /* \"#utility.yul\":17603:17619   */\n      add\n        /* \"#utility.yul\":17597:17620   */\n      mload\n        /* \"#utility.yul\":17667:17670   */\n      dup5\n        /* \"#utility.yul\":17661:17665   */\n      dup3\n        /* \"#utility.yul\":17657:17671   */\n      sub\n        /* \"#utility.yul\":17650:17654   */\n      0x60\n        /* \"#utility.yul\":17645:17648   */\n      dup7\n        /* \"#utility.yul\":17641:17655   */\n      add\n        /* \"#utility.yul\":17634:17672   */\n      mstore\n        /* \"#utility.yul\":17693:17766   */\n      tag_594\n        /* \"#utility.yul\":17761:17765   */\n      dup3\n        /* \"#utility.yul\":17747:17759   */\n      dup3\n        /* \"#utility.yul\":17693:17766   */\n      tag_543\n      jump\t// in\n    tag_594:\n        /* \"#utility.yul\":17685:17766   */\n      swap2\n      pop\n        /* \"#utility.yul\":17540:17777   */\n      pop\n        /* \"#utility.yul\":17861:17865   */\n      0x80\n        /* \"#utility.yul\":17854:17859   */\n      dup4\n        /* \"#utility.yul\":17850:17866   */\n      add\n        /* \"#utility.yul\":17844:17867   */\n      mload\n        /* \"#utility.yul\":17914:17917   */\n      dup5\n        /* \"#utility.yul\":17908:17912   */\n      dup3\n        /* \"#utility.yul\":17904:17918   */\n      sub\n        /* \"#utility.yul\":17897:17901   */\n      0x80\n        /* \"#utility.yul\":17892:17895   */\n      dup7\n        /* \"#utility.yul\":17888:17902   */\n      add\n        /* \"#utility.yul\":17881:17919   */\n      mstore\n        /* \"#utility.yul\":17940:18013   */\n      tag_595\n        /* \"#utility.yul\":18008:18012   */\n      dup3\n        /* \"#utility.yul\":17994:18006   */\n      dup3\n        /* \"#utility.yul\":17940:18013   */\n      tag_543\n      jump\t// in\n    tag_595:\n        /* \"#utility.yul\":17932:18013   */\n      swap2\n      pop\n        /* \"#utility.yul\":17787:18024   */\n      pop\n        /* \"#utility.yul\":18108:18112   */\n      0xa0\n        /* \"#utility.yul\":18101:18106   */\n      dup4\n        /* \"#utility.yul\":18097:18113   */\n      add\n        /* \"#utility.yul\":18091:18114   */\n      mload\n        /* \"#utility.yul\":18161:18164   */\n      dup5\n        /* \"#utility.yul\":18155:18159   */\n      dup3\n        /* \"#utility.yul\":18151:18165   */\n      sub\n        /* \"#utility.yul\":18144:18148   */\n      0xa0\n        /* \"#utility.yul\":18139:18142   */\n      dup7\n        /* \"#utility.yul\":18135:18149   */\n      add\n        /* \"#utility.yul\":18128:18166   */\n      mstore\n        /* \"#utility.yul\":18187:18260   */\n      tag_596\n        /* \"#utility.yul\":18255:18259   */\n      dup3\n        /* \"#utility.yul\":18241:18253   */\n      dup3\n        /* \"#utility.yul\":18187:18260   */\n      tag_543\n      jump\t// in\n    tag_596:\n        /* \"#utility.yul\":18179:18260   */\n      swap2\n      pop\n        /* \"#utility.yul\":18034:18271   */\n      pop\n        /* \"#utility.yul\":18288:18292   */\n      dup1\n        /* \"#utility.yul\":18281:18292   */\n      swap2\n      pop\n        /* \"#utility.yul\":16754:18298   */\n      pop\n        /* \"#utility.yul\":16632:18298   */\n      swap3\n      swap2\n      pop\n      pop\n      jump\t// out\n        /* \"#utility.yul\":18384:19090   */\n    tag_597:\n        /* \"#utility.yul\":18523:18526   */\n      0x00\n        /* \"#utility.yul\":18559:18563   */\n      0x40\n        /* \"#utility.yul\":18554:18557   */\n      dup4\n        /* \"#utility.yul\":18550:18564   */\n      add\n        /* \"#utility.yul\":18653:18657   */\n      0x00\n        /* \"#utility.yul\":18646:18651   */\n      dup4\n        /* \"#utility.yul\":18642:18658   */\n      add\n        /* \"#utility.yul\":18636:18659   */\n      mload\n        /* \"#utility.yul\":18706:18709   */\n      dup5\n        /* \"#utility.yul\":18700:18704   */\n      dup3\n        /* \"#utility.yul\":18696:18710   */\n      sub\n        /* \"#utility.yul\":18689:18693   */\n      0x00\n        /* \"#utility.yul\":18684:18687   */\n      dup7\n        /* \"#utility.yul\":18680:18694   */\n      add\n        /* \"#utility.yul\":18673:18711   */\n      mstore\n        /* \"#utility.yul\":18732:18805   */\n      tag_599\n        /* \"#utility.yul\":18800:18804   */\n      dup3\n        /* \"#utility.yul\":18786:18798   */\n      dup3\n        /* \"#utility.yul\":18732:18805   */\n      tag_543\n      jump\t// in\n    tag_599:\n        /* \"#utility.yul\":18724:18805   */\n      swap2\n      pop\n        /* \"#utility.yul\":18574:18816   */\n      pop\n        /* \"#utility.yul\":18900:18904   */\n      0x20\n        /* \"#utility.yul\":18893:18898   */\n      dup4\n        /* \"#utility.yul\":18889:18905   */\n      add\n        /* \"#utility.yul\":18883:18906   */\n      mload\n        /* \"#utility.yul\":18953:18956   */\n      dup5\n        /* \"#utility.yul\":18947:18951   */\n      dup3\n        /* \"#utility.yul\":18943:18957   */\n      sub\n        /* \"#utility.yul\":18936:18940   */\n      0x20\n        /* \"#utility.yul\":18931:18934   */\n      dup7\n        /* \"#utility.yul\":18927:18941   */\n      add\n        /* \"#utility.yul\":18920:18958   */\n      mstore\n        /* \"#utility.yul\":18979:19052   */\n      tag_600\n        /* \"#utility.yul\":19047:19051   */\n      dup3\n        /* \"#utility.yul\":19033:19045   */\n      dup3\n        /* \"#utility.yul\":18979:19052   */\n      tag_543\n      jump\t// in\n    tag_600:\n        /* \"#utility.yul\":18971:19052   */\n      swap2\n      pop\n        /* \"#utility.yul\":18826:19063   */\n      pop\n        /* \"#utility.yul\":19080:19084   */\n      dup1\n        /* \"#utility.yul\":19073:19084   */\n      swap2\n      pop\n        /* \"#utility.yul\":18528:19090   */\n      pop\n        /* \"#utility.yul\":18384:19090   */\n      swap3\n      swap2\n      pop\n      pop\n      jump\t// out\n        /* \"#utility.yul\":19160:21214   */\n    tag_601:\n        /* \"#utility.yul\":19283:19286   */\n      0x00\n        /* \"#utility.yul\":19319:19325   */\n      0x0100\n        /* \"#utility.yul\":19314:19317   */\n      dup4\n        /* \"#utility.yul\":19310:19326   */\n      add\n        /* \"#utility.yul\":19411:19415   */\n      0x00\n        /* \"#utility.yul\":19404:19409   */\n      dup4\n        /* \"#utility.yul\":19400:19416   */\n      add\n        /* \"#utility.yul\":19394:19417   */\n      mload\n        /* \"#utility.yul\":19464:19467   */\n      dup5\n        /* \"#utility.yul\":19458:19462   */\n      dup3\n        /* \"#utility.yul\":19454:19468   */\n      sub\n        /* \"#utility.yul\":19447:19451   */\n      0x00\n        /* \"#utility.yul\":19442:19445   */\n      dup7\n        /* \"#utility.yul\":19438:19452   */\n      add\n        /* \"#utility.yul\":19431:19469   */\n      mstore\n        /* \"#utility.yul\":19490:19563   */\n      tag_603\n        /* \"#utility.yul\":19558:19562   */\n      dup3\n        /* \"#utility.yul\":19544:19556   */\n      dup3\n        /* \"#utility.yul\":19490:19563   */\n      tag_543\n      jump\t// in\n    tag_603:\n        /* \"#utility.yul\":19482:19563   */\n      swap2\n      pop\n        /* \"#utility.yul\":19336:19574   */\n      pop\n        /* \"#utility.yul\":19660:19664   */\n      0x20\n        /* \"#utility.yul\":19653:19658   */\n      dup4\n        /* \"#utility.yul\":19649:19665   */\n      add\n        /* \"#utility.yul\":19643:19666   */\n      mload\n        /* \"#utility.yul\":19713:19716   */\n      dup5\n        /* \"#utility.yul\":19707:19711   */\n      dup3\n        /* \"#utility.yul\":19703:19717   */\n      sub\n        /* \"#utility.yul\":19696:19700   */\n      0x20\n        /* \"#utility.yul\":19691:19694   */\n      dup7\n        /* \"#utility.yul\":19687:19701   */\n      add\n        /* \"#utility.yul\":19680:19718   */\n      mstore\n        /* \"#utility.yul\":19739:19812   */\n      tag_604\n        /* \"#utility.yul\":19807:19811   */\n      dup3\n        /* \"#utility.yul\":19793:19805   */\n      dup3\n        /* \"#utility.yul\":19739:19812   */\n      tag_543\n      jump\t// in\n    tag_604:\n        /* \"#utility.yul\":19731:19812   */\n      swap2\n      pop\n        /* \"#utility.yul\":19584:19823   */\n      pop\n        /* \"#utility.yul\":19912:19916   */\n      0x40\n        /* \"#utility.yul\":19905:19910   */\n      dup4\n        /* \"#utility.yul\":19901:19917   */\n      add\n        /* \"#utility.yul\":19895:19918   */\n      mload\n        /* \"#utility.yul\":19931:19994   */\n      tag_605\n        /* \"#utility.yul\":19988:19992   */\n      0x40\n        /* \"#utility.yul\":19983:19986   */\n      dup7\n        /* \"#utility.yul\":19979:19993   */\n      add\n        /* \"#utility.yul\":19965:19977   */\n      dup3\n        /* \"#utility.yul\":19931:19994   */\n      tag_544\n      jump\t// in\n    tag_605:\n        /* \"#utility.yul\":19833:20004   */\n      pop\n        /* \"#utility.yul\":20091:20095   */\n      0x60\n        /* \"#utility.yul\":20084:20089   */\n      dup4\n        /* \"#utility.yul\":20080:20096   */\n      add\n        /* \"#utility.yul\":20074:20097   */\n      mload\n        /* \"#utility.yul\":20144:20147   */\n      dup5\n        /* \"#utility.yul\":20138:20142   */\n      dup3\n        /* \"#utility.yul\":20134:20148   */\n      sub\n        /* \"#utility.yul\":20127:20131   */\n      0x60\n        /* \"#utility.yul\":20122:20125   */\n      dup7\n        /* \"#utility.yul\":20118:20132   */\n      add\n        /* \"#utility.yul\":20111:20149   */\n      mstore\n        /* \"#utility.yul\":20170:20243   */\n      tag_606\n        /* \"#utility.yul\":20238:20242   */\n      dup3\n        /* \"#utility.yul\":20224:20236   */\n      dup3\n        /* \"#utility.yul\":20170:20243   */\n      tag_543\n      jump\t// in\n    tag_606:\n        /* \"#utility.yul\":20162:20243   */\n      swap2\n      pop\n        /* \"#utility.yul\":20014:20254   */\n      pop\n        /* \"#utility.yul\":20342:20346   */\n      0x80\n        /* \"#utility.yul\":20335:20340   */\n      dup4\n        /* \"#utility.yul\":20331:20347   */\n      add\n        /* \"#utility.yul\":20325:20348   */\n      mload\n        /* \"#utility.yul\":20395:20398   */\n      dup5\n        /* \"#utility.yul\":20389:20393   */\n      dup3\n        /* \"#utility.yul\":20385:20399   */\n      sub\n        /* \"#utility.yul\":20378:20382   */\n      0x80\n        /* \"#utility.yul\":20373:20376   */\n      dup7\n        /* \"#utility.yul\":20369:20383   */\n      add\n        /* \"#utility.yul\":20362:20400   */\n      mstore\n        /* \"#utility.yul\":20421:20494   */\n      tag_607\n        /* \"#utility.yul\":20489:20493   */\n      dup3\n        /* \"#utility.yul\":20475:20487   */\n      dup3\n        /* \"#utility.yul\":20421:20494   */\n      tag_543\n      jump\t// in\n    tag_607:\n        /* \"#utility.yul\":20413:20494   */\n      swap2\n      pop\n        /* \"#utility.yul\":20264:20505   */\n      pop\n        /* \"#utility.yul\":20591:20595   */\n      0xa0\n        /* \"#utility.yul\":20584:20589   */\n      dup4\n        /* \"#utility.yul\":20580:20596   */\n      add\n        /* \"#utility.yul\":20574:20597   */\n      mload\n        /* \"#utility.yul\":20644:20647   */\n      dup5\n        /* \"#utility.yul\":20638:20642   */\n      dup3\n        /* \"#utility.yul\":20634:20648   */\n      sub\n        /* \"#utility.yul\":20627:20631   */\n      0xa0\n        /* \"#utility.yul\":20622:20625   */\n      dup7\n        /* \"#utility.yul\":20618:20632   */\n      add\n        /* \"#utility.yul\":20611:20649   */\n      mstore\n        /* \"#utility.yul\":20670:20743   */\n      tag_608\n        /* \"#utility.yul\":20738:20742   */\n      dup3\n        /* \"#utility.yul\":20724:20736   */\n      dup3\n        /* \"#utility.yul\":20670:20743   */\n      tag_543\n      jump\t// in\n    tag_608:\n        /* \"#utility.yul\":20662:20743   */\n      swap2\n      pop\n        /* \"#utility.yul\":20515:20754   */\n      pop\n        /* \"#utility.yul\":20844:20848   */\n      0xc0\n        /* \"#utility.yul\":20837:20842   */\n      dup4\n        /* \"#utility.yul\":20833:20849   */\n      add\n        /* \"#utility.yul\":20827:20850   */\n      mload\n        /* \"#utility.yul\":20897:20900   */\n      dup5\n        /* \"#utility.yul\":20891:20895   */\n      dup3\n        /* \"#utility.yul\":20887:20901   */\n      sub\n        /* \"#utility.yul\":20880:20884   */\n      0xc0\n        /* \"#utility.yul\":20875:20878   */\n      dup7\n        /* \"#utility.yul\":20871:20885   */\n      add\n        /* \"#utility.yul\":20864:20902   */\n      mstore\n        /* \"#utility.yul\":20923:20996   */\n      tag_609\n        /* \"#utility.yul\":20991:20995   */\n      dup3\n        /* \"#utility.yul\":20977:20989   */\n      dup3\n        /* \"#utility.yul\":20923:20996   */\n      tag_543\n      jump\t// in\n    tag_609:\n        /* \"#utility.yul\":20915:20996   */\n      swap2\n      pop\n        /* \"#utility.yul\":20764:21007   */\n      pop\n        /* \"#utility.yul\":21095:21099   */\n      0xe0\n        /* \"#utility.yul\":21088:21093   */\n      dup4\n        /* \"#utility.yul\":21084:21100   */\n      add\n        /* \"#utility.yul\":21078:21101   */\n      mload\n        /* \"#utility.yul\":21114:21177   */\n      tag_610\n        /* \"#utility.yul\":21171:21175   */\n      0xe0\n        /* \"#utility.yul\":21166:21169   */\n      dup7\n        /* \"#utility.yul\":21162:21176   */\n      add\n        /* \"#utility.yul\":21148:21160   */\n      dup3\n        /* \"#utility.yul\":21114:21177   */\n      tag_611\n      jump\t// in\n    tag_610:\n        /* \"#utility.yul\":21017:21187   */\n      pop\n        /* \"#utility.yul\":21204:21208   */\n      dup1\n        /* \"#utility.yul\":21197:21208   */\n      swap2\n      pop\n        /* \"#utility.yul\":19288:21214   */\n      pop\n        /* \"#utility.yul\":19160:21214   */\n      swap3\n      swap2\n      pop\n      pop\n      jump\t// out\n        /* \"#utility.yul\":21272:22369   */\n    tag_612:\n        /* \"#utility.yul\":21383:21386   */\n      0x00\n        /* \"#utility.yul\":21419:21423   */\n      0x60\n        /* \"#utility.yul\":21414:21417   */\n      dup4\n        /* \"#utility.yul\":21410:21424   */\n      add\n        /* \"#utility.yul\":21522:21526   */\n      0x00\n        /* \"#utility.yul\":21515:21520   */\n      dup4\n        /* \"#utility.yul\":21511:21527   */\n      add\n        /* \"#utility.yul\":21505:21528   */\n      mload\n        /* \"#utility.yul\":21575:21578   */\n      dup5\n        /* \"#utility.yul\":21569:21573   */\n      dup3\n        /* \"#utility.yul\":21565:21579   */\n      sub\n        /* \"#utility.yul\":21558:21562   */\n      0x00\n        /* \"#utility.yul\":21553:21556   */\n      dup7\n        /* \"#utility.yul\":21549:21563   */\n      add\n        /* \"#utility.yul\":21542:21580   */\n      mstore\n        /* \"#utility.yul\":21601:21724   */\n      tag_614\n        /* \"#utility.yul\":21719:21723   */\n      dup3\n        /* \"#utility.yul\":21705:21717   */\n      dup3\n        /* \"#utility.yul\":21601:21724   */\n      tag_548\n      jump\t// in\n    tag_614:\n        /* \"#utility.yul\":21593:21724   */\n      swap2\n      pop\n        /* \"#utility.yul\":21434:21735   */\n      pop\n        /* \"#utility.yul\":21822:21826   */\n      0x20\n        /* \"#utility.yul\":21815:21820   */\n      dup4\n        /* \"#utility.yul\":21811:21827   */\n      add\n        /* \"#utility.yul\":21805:21828   */\n      mload\n        /* \"#utility.yul\":21875:21878   */\n      dup5\n        /* \"#utility.yul\":21869:21873   */\n      dup3\n        /* \"#utility.yul\":21865:21879   */\n      sub\n        /* \"#utility.yul\":21858:21862   */\n      0x20\n        /* \"#utility.yul\":21853:21856   */\n      dup7\n        /* \"#utility.yul\":21849:21863   */\n      add\n        /* \"#utility.yul\":21842:21880   */\n      mstore\n        /* \"#utility.yul\":21901:22024   */\n      tag_615\n        /* \"#utility.yul\":22019:22023   */\n      dup3\n        /* \"#utility.yul\":22005:22017   */\n      dup3\n        /* \"#utility.yul\":21901:22024   */\n      tag_548\n      jump\t// in\n    tag_615:\n        /* \"#utility.yul\":21893:22024   */\n      swap2\n      pop\n        /* \"#utility.yul\":21745:22035   */\n      pop\n        /* \"#utility.yul\":22129:22133   */\n      0x40\n        /* \"#utility.yul\":22122:22127   */\n      dup4\n        /* \"#utility.yul\":22118:22134   */\n      add\n        /* \"#utility.yul\":22112:22135   */\n      mload\n        /* \"#utility.yul\":22182:22185   */\n      dup5\n        /* \"#utility.yul\":22176:22180   */\n      dup3\n        /* \"#utility.yul\":22172:22186   */\n      sub\n        /* \"#utility.yul\":22165:22169   */\n      0x40\n        /* \"#utility.yul\":22160:22163   */\n      dup7\n        /* \"#utility.yul\":22156:22170   */\n      add\n        /* \"#utility.yul\":22149:22187   */\n      mstore\n        /* \"#utility.yul\":22208:22331   */\n      tag_616\n        /* \"#utility.yul\":22326:22330   */\n      dup3\n        /* \"#utility.yul\":22312:22324   */\n      dup3\n        /* \"#utility.yul\":22208:22331   */\n      tag_548\n      jump\t// in\n    tag_616:\n        /* \"#utility.yul\":22200:22331   */\n      swap2\n      pop\n        /* \"#utility.yul\":22045:22342   */\n      pop\n        /* \"#utility.yul\":22359:22363   */\n      dup1\n        /* \"#utility.yul\":22352:22363   */\n      swap2\n      pop\n        /* \"#utility.yul\":21388:22369   */\n      pop\n        /* \"#utility.yul\":21272:22369   */\n      swap3\n      swap2\n      pop\n      pop\n      jump\t// out\n        /* \"#utility.yul\":22375:22483   */\n    tag_611:\n        /* \"#utility.yul\":22452:22476   */\n      tag_618\n        /* \"#utility.yul\":22470:22475   */\n      dup2\n        /* \"#utility.yul\":22452:22476   */\n      tag_619\n      jump\t// in\n    tag_618:\n        /* \"#utility.yul\":22447:22450   */\n      dup3\n        /* \"#utility.yul\":22440:22477   */\n      mstore\n        /* \"#utility.yul\":22375:22483   */\n      pop\n      pop\n      jump\t// out\n        /* \"#utility.yul\":22489:22607   */\n    tag_620:\n        /* \"#utility.yul\":22576:22600   */\n      tag_622\n        /* \"#utility.yul\":22594:22599   */\n      dup2\n        /* \"#utility.yul\":22576:22600   */\n      tag_619\n      jump\t// in\n    tag_622:\n        /* \"#utility.yul\":22571:22574   */\n      dup3\n        /* \"#utility.yul\":22564:22601   */\n      mstore\n        /* \"#utility.yul\":22489:22607   */\n      pop\n      pop\n      jump\t// out\n        /* \"#utility.yul\":22613:23732   */\n    tag_78:\n        /* \"#utility.yul\":22918:22922   */\n      0x00\n        /* \"#utility.yul\":22956:22959   */\n      0xa0\n        /* \"#utility.yul\":22945:22954   */\n      dup3\n        /* \"#utility.yul\":22941:22960   */\n      add\n        /* \"#utility.yul\":22933:22960   */\n      swap1\n      pop\n        /* \"#utility.yul\":23006:23015   */\n      dup2\n        /* \"#utility.yul\":23000:23004   */\n      dup2\n        /* \"#utility.yul\":22996:23016   */\n      sub\n        /* \"#utility.yul\":22992:22993   */\n      0x00\n        /* \"#utility.yul\":22981:22990   */\n      dup4\n        /* \"#utility.yul\":22977:22994   */\n      add\n        /* \"#utility.yul\":22970:23017   */\n      mstore\n        /* \"#utility.yul\":23034:23112   */\n      tag_624\n        /* \"#utility.yul\":23107:23111   */\n      dup2\n        /* \"#utility.yul\":23098:23104   */\n      dup9\n        /* \"#utility.yul\":23034:23112   */\n      tag_571\n      jump\t// in\n    tag_624:\n        /* \"#utility.yul\":23026:23112   */\n      swap1\n      pop\n        /* \"#utility.yul\":23159:23168   */\n      dup2\n        /* \"#utility.yul\":23153:23157   */\n      dup2\n        /* \"#utility.yul\":23149:23169   */\n      sub\n        /* \"#utility.yul\":23144:23146   */\n      0x20\n        /* \"#utility.yul\":23133:23142   */\n      dup4\n        /* \"#utility.yul\":23129:23147   */\n      add\n        /* \"#utility.yul\":23122:23170   */\n      mstore\n        /* \"#utility.yul\":23187:23265   */\n      tag_625\n        /* \"#utility.yul\":23260:23264   */\n      dup2\n        /* \"#utility.yul\":23251:23257   */\n      dup8\n        /* \"#utility.yul\":23187:23265   */\n      tag_571\n      jump\t// in\n    tag_625:\n        /* \"#utility.yul\":23179:23265   */\n      swap1\n      pop\n        /* \"#utility.yul\":23312:23321   */\n      dup2\n        /* \"#utility.yul\":23306:23310   */\n      dup2\n        /* \"#utility.yul\":23302:23322   */\n      sub\n        /* \"#utility.yul\":23297:23299   */\n      0x40\n        /* \"#utility.yul\":23286:23295   */\n      dup4\n        /* \"#utility.yul\":23282:23300   */\n      add\n        /* \"#utility.yul\":23275:23323   */\n      mstore\n        /* \"#utility.yul\":23340:23418   */\n      tag_626\n        /* \"#utility.yul\":23413:23417   */\n      dup2\n        /* \"#utility.yul\":23404:23410   */\n      dup7\n        /* \"#utility.yul\":23340:23418   */\n      tag_571\n      jump\t// in\n    tag_626:\n        /* \"#utility.yul\":23332:23418   */\n      swap1\n      pop\n        /* \"#utility.yul\":23465:23474   */\n      dup2\n        /* \"#utility.yul\":23459:23463   */\n      dup2\n        /* \"#utility.yul\":23455:23475   */\n      sub\n        /* \"#utility.yul\":23450:23452   */\n      0x60\n        /* \"#utility.yul\":23439:23448   */\n      dup4\n        /* \"#utility.yul\":23435:23453   */\n      add\n        /* \"#utility.yul\":23428:23476   */\n      mstore\n        /* \"#utility.yul\":23493:23571   */\n      tag_627\n        /* \"#utility.yul\":23566:23570   */\n      dup2\n        /* \"#utility.yul\":23557:23563   */\n      dup6\n        /* \"#utility.yul\":23493:23571   */\n      tag_571\n      jump\t// in\n    tag_627:\n        /* \"#utility.yul\":23485:23571   */\n      swap1\n      pop\n        /* \"#utility.yul\":23619:23628   */\n      dup2\n        /* \"#utility.yul\":23613:23617   */\n      dup2\n        /* \"#utility.yul\":23609:23629   */\n      sub\n        /* \"#utility.yul\":23603:23606   */\n      0x80\n        /* \"#utility.yul\":23592:23601   */\n      dup4\n        /* \"#utility.yul\":23588:23607   */\n      add\n        /* \"#utility.yul\":23581:23630   */\n      mstore\n        /* \"#utility.yul\":23647:23725   */\n      tag_628\n        /* \"#utility.yul\":23720:23724   */\n      dup2\n        /* \"#utility.yul\":23711:23717   */\n      dup5\n        /* \"#utility.yul\":23647:23725   */\n      tag_571\n      jump\t// in\n    tag_628:\n        /* \"#utility.yul\":23639:23725   */\n      swap1\n      pop\n        /* \"#utility.yul\":22613:23732   */\n      swap7\n      swap6\n      pop\n      pop\n      pop\n      pop\n      pop\n      pop\n      jump\t// out\n        /* \"#utility.yul\":23738:25523   */\n    tag_65:\n        /* \"#utility.yul\":24323:24327   */\n      0x00\n        /* \"#utility.yul\":24361:24364   */\n      0xc0\n        /* \"#utility.yul\":24350:24359   */\n      dup3\n        /* \"#utility.yul\":24346:24365   */\n      add\n        /* \"#utility.yul\":24338:24365   */\n      swap1\n      pop\n        /* \"#utility.yul\":24411:24420   */\n      dup2\n        /* \"#utility.yul\":24405:24409   */\n      dup2\n        /* \"#utility.yul\":24401:24421   */\n      sub\n        /* \"#utility.yul\":24397:24398   */\n      0x00\n        /* \"#utility.yul\":24386:24395   */\n      dup4\n        /* \"#utility.yul\":24382:24399   */\n      add\n        /* \"#utility.yul\":24375:24422   */\n      mstore\n        /* \"#utility.yul\":24439:24551   */\n      tag_630\n        /* \"#utility.yul\":24546:24550   */\n      dup2\n        /* \"#utility.yul\":24537:24543   */\n      dup10\n        /* \"#utility.yul\":24439:24551   */\n      tag_601\n      jump\t// in\n    tag_630:\n        /* \"#utility.yul\":24431:24551   */\n      swap1\n      pop\n        /* \"#utility.yul\":24598:24607   */\n      dup2\n        /* \"#utility.yul\":24592:24596   */\n      dup2\n        /* \"#utility.yul\":24588:24608   */\n      sub\n        /* \"#utility.yul\":24583:24585   */\n      0x20\n        /* \"#utility.yul\":24572:24581   */\n      dup4\n        /* \"#utility.yul\":24568:24586   */\n      add\n        /* \"#utility.yul\":24561:24609   */\n      mstore\n        /* \"#utility.yul\":24626:24732   */\n      tag_631\n        /* \"#utility.yul\":24727:24731   */\n      dup2\n        /* \"#utility.yul\":24718:24724   */\n      dup9\n        /* \"#utility.yul\":24626:24732   */\n      tag_589\n      jump\t// in\n    tag_631:\n        /* \"#utility.yul\":24618:24732   */\n      swap1\n      pop\n        /* \"#utility.yul\":24779:24788   */\n      dup2\n        /* \"#utility.yul\":24773:24777   */\n      dup2\n        /* \"#utility.yul\":24769:24789   */\n      sub\n        /* \"#utility.yul\":24764:24766   */\n      0x40\n        /* \"#utility.yul\":24753:24762   */\n      dup4\n        /* \"#utility.yul\":24749:24767   */\n      add\n        /* \"#utility.yul\":24742:24790   */\n      mstore\n        /* \"#utility.yul\":24807:24907   */\n      tag_632\n        /* \"#utility.yul\":24902:24906   */\n      dup2\n        /* \"#utility.yul\":24893:24899   */\n      dup8\n        /* \"#utility.yul\":24807:24907   */\n      tag_612\n      jump\t// in\n    tag_632:\n        /* \"#utility.yul\":24799:24907   */\n      swap1\n      pop\n        /* \"#utility.yul\":24954:24963   */\n      dup2\n        /* \"#utility.yul\":24948:24952   */\n      dup2\n        /* \"#utility.yul\":24944:24964   */\n      sub\n        /* \"#utility.yul\":24939:24941   */\n      0x60\n        /* \"#utility.yul\":24928:24937   */\n      dup4\n        /* \"#utility.yul\":24924:24942   */\n      add\n        /* \"#utility.yul\":24917:24965   */\n      mstore\n        /* \"#utility.yul\":24982:25112   */\n      tag_633\n        /* \"#utility.yul\":25107:25111   */\n      dup2\n        /* \"#utility.yul\":25098:25104   */\n      dup7\n        /* \"#utility.yul\":24982:25112   */\n      tag_578\n      jump\t// in\n    tag_633:\n        /* \"#utility.yul\":24974:25112   */\n      swap1\n      pop\n        /* \"#utility.yul\":25160:25169   */\n      dup2\n        /* \"#utility.yul\":25154:25158   */\n      dup2\n        /* \"#utility.yul\":25150:25170   */\n      sub\n        /* \"#utility.yul\":25144:25147   */\n      0x80\n        /* \"#utility.yul\":25133:25142   */\n      dup4\n        /* \"#utility.yul\":25129:25148   */\n      add\n        /* \"#utility.yul\":25122:25171   */\n      mstore\n        /* \"#utility.yul\":25188:25312   */\n      tag_634\n        /* \"#utility.yul\":25307:25311   */\n      dup2\n        /* \"#utility.yul\":25298:25304   */\n      dup6\n        /* \"#utility.yul\":25188:25312   */\n      tag_582\n      jump\t// in\n    tag_634:\n        /* \"#utility.yul\":25180:25312   */\n      swap1\n      pop\n        /* \"#utility.yul\":25360:25369   */\n      dup2\n        /* \"#utility.yul\":25354:25358   */\n      dup2\n        /* \"#utility.yul\":25350:25370   */\n      sub\n        /* \"#utility.yul\":25344:25347   */\n      0xa0\n        /* \"#utility.yul\":25333:25342   */\n      dup4\n        /* \"#utility.yul\":25329:25348   */\n      add\n        /* \"#utility.yul\":25322:25371   */\n      mstore\n        /* \"#utility.yul\":25388:25516   */\n      tag_635\n        /* \"#utility.yul\":25511:25515   */\n      dup2\n        /* \"#utility.yul\":25502:25508   */\n      dup5\n        /* \"#utility.yul\":25388:25516   */\n      tag_597\n      jump\t// in\n    tag_635:\n        /* \"#utility.yul\":25380:25516   */\n      swap1\n      pop\n        /* \"#utility.yul\":23738:25523   */\n      swap8\n      swap7\n      pop\n      pop\n      pop\n      pop\n      pop\n      pop\n      pop\n      jump\t// out\n        /* \"#utility.yul\":25529:25751   */\n    tag_42:\n        /* \"#utility.yul\":25622:25626   */\n      0x00\n        /* \"#utility.yul\":25660:25662   */\n      0x20\n        /* \"#utility.yul\":25649:25658   */\n      dup3\n        /* \"#utility.yul\":25645:25663   */\n      add\n        /* \"#utility.yul\":25637:25663   */\n      swap1\n      pop\n        /* \"#utility.yul\":25673:25744   */\n      tag_637\n        /* \"#utility.yul\":25741:25742   */\n      0x00\n        /* \"#utility.yul\":25730:25739   */\n      dup4\n        /* \"#utility.yul\":25726:25743   */\n      add\n        /* \"#utility.yul\":25717:25723   */\n      dup5\n        /* \"#utility.yul\":25673:25744   */\n      tag_620\n      jump\t// in\n    tag_637:\n        /* \"#utility.yul\":25529:25751   */\n      swap3\n      swap2\n      pop\n      pop\n      jump\t// out\n        /* \"#utility.yul\":25757:25886   */\n    tag_404:\n        /* \"#utility.yul\":25791:25797   */\n      0x00\n        /* \"#utility.yul\":25818:25838   */\n      tag_639\n      tag_640\n      jump\t// in\n    tag_639:\n        /* \"#utility.yul\":25808:25838   */\n      swap1\n      pop\n        /* \"#utility.yul\":25847:25880   */\n      tag_641\n        /* \"#utility.yul\":25875:25879   */\n      dup3\n        /* \"#utility.yul\":25867:25873   */\n      dup3\n        /* \"#utility.yul\":25847:25880   */\n      tag_642\n      jump\t// in\n    tag_641:\n        /* \"#utility.yul\":25757:25886   */\n      swap2\n      swap1\n      pop\n      jump\t// out\n        /* \"#utility.yul\":25892:25967   */\n    tag_640:\n        /* \"#utility.yul\":25925:25931   */\n      0x00\n        /* \"#utility.yul\":25958:25960   */\n      0x40\n        /* \"#utility.yul\":25952:25961   */\n      mload\n        /* \"#utility.yul\":25942:25961   */\n      swap1\n      pop\n        /* \"#utility.yul\":25892:25967   */\n      swap1\n      jump\t// out\n        /* \"#utility.yul\":25973:26294   */\n    tag_403:\n        /* \"#utility.yul\":26060:26064   */\n      0x00\n        /* \"#utility.yul\":26150:26168   */\n      0xffffffffffffffff\n        /* \"#utility.yul\":26142:26148   */\n      dup3\n        /* \"#utility.yul\":26139:26169   */\n      gt\n        /* \"#utility.yul\":26136:26192   */\n      iszero\n      tag_645\n      jumpi\n        /* \"#utility.yul\":26172:26190   */\n      tag_646\n      tag_647\n      jump\t// in\n    tag_646:\n        /* \"#utility.yul\":26136:26192   */\n    tag_645:\n        /* \"#utility.yul\":26222:26226   */\n      0x20\n        /* \"#utility.yul\":26214:26220   */\n      dup3\n        /* \"#utility.yul\":26210:26227   */\n      mul\n        /* \"#utility.yul\":26202:26227   */\n      swap1\n      pop\n        /* \"#utility.yul\":26282:26286   */\n      0x20\n        /* \"#utility.yul\":26276:26280   */\n      dup2\n        /* \"#utility.yul\":26272:26287   */\n      add\n        /* \"#utility.yul\":26264:26287   */\n      swap1\n      pop\n        /* \"#utility.yul\":25973:26294   */\n      swap2\n      swap1\n      pop\n      jump\t// out\n        /* \"#utility.yul\":26300:26608   */\n    tag_420:\n        /* \"#utility.yul\":26362:26366   */\n      0x00\n        /* \"#utility.yul\":26452:26470   */\n      0xffffffffffffffff\n        /* \"#utility.yul\":26444:26450   */\n      dup3\n        /* \"#utility.yul\":26441:26471   */\n      gt\n        /* \"#utility.yul\":26438:26494   */\n      iszero\n      tag_649\n      jumpi\n        /* \"#utility.yul\":26474:26492   */\n      tag_650\n      tag_647\n      jump\t// in\n    tag_650:\n        /* \"#utility.yul\":26438:26494   */\n    tag_649:\n        /* \"#utility.yul\":26512:26541   */\n      tag_651\n        /* \"#utility.yul\":26534:26540   */\n      dup3\n        /* \"#utility.yul\":26512:26541   */\n      tag_570\n      jump\t// in\n    tag_651:\n        /* \"#utility.yul\":26504:26541   */\n      swap1\n      pop\n        /* \"#utility.yul\":26596:26600   */\n      0x20\n        /* \"#utility.yul\":26590:26594   */\n      dup2\n        /* \"#utility.yul\":26586:26601   */\n      add\n        /* \"#utility.yul\":26578:26601   */\n      swap1\n      pop\n        /* \"#utility.yul\":26300:26608   */\n      swap2\n      swap1\n      pop\n      jump\t// out\n        /* \"#utility.yul\":26614:26756   */\n    tag_555:\n        /* \"#utility.yul\":26691:26695   */\n      0x00\n        /* \"#utility.yul\":26714:26717   */\n      dup2\n        /* \"#utility.yul\":26706:26717   */\n      swap1\n      pop\n        /* \"#utility.yul\":26744:26748   */\n      0x20\n        /* \"#utility.yul\":26739:26742   */\n      dup3\n        /* \"#utility.yul\":26735:26749   */\n      add\n        /* \"#utility.yul\":26727:26749   */\n      swap1\n      pop\n        /* \"#utility.yul\":26614:26756   */\n      swap2\n      swap1\n      pop\n      jump\t// out\n        /* \"#utility.yul\":26762:26886   */\n    tag_551:\n        /* \"#utility.yul\":26839:26845   */\n      0x00\n        /* \"#utility.yul\":26873:26878   */\n      dup2\n        /* \"#utility.yul\":26867:26879   */\n      mload\n        /* \"#utility.yul\":26857:26879   */\n      swap1\n      pop\n        /* \"#utility.yul\":26762:26886   */\n      swap2\n      swap1\n      pop\n      jump\t// out\n        /* \"#utility.yul\":26892:26991   */\n    tag_564:\n        /* \"#utility.yul\":26944:26950   */\n      0x00\n        /* \"#utility.yul\":26978:26983   */\n      dup2\n        /* \"#utility.yul\":26972:26984   */\n      mload\n        /* \"#utility.yul\":26962:26984   */\n      swap1\n      pop\n        /* \"#utility.yul\":26892:26991   */\n      swap2\n      swap1\n      pop\n      jump\t// out\n        /* \"#utility.yul\":26997:27120   */\n    tag_561:\n        /* \"#utility.yul\":27077:27081   */\n      0x00\n        /* \"#utility.yul\":27109:27113   */\n      0x20\n        /* \"#utility.yul\":27104:27107   */\n      dup3\n        /* \"#utility.yul\":27100:27114   */\n      add\n        /* \"#utility.yul\":27092:27114   */\n      swap1\n      pop\n        /* \"#utility.yul\":26997:27120   */\n      swap2\n      swap1\n      pop\n      jump\t// out\n        /* \"#utility.yul\":27126:27310   */\n    tag_553:\n        /* \"#utility.yul\":27225:27236   */\n      0x00\n        /* \"#utility.yul\":27259:27265   */\n      dup3\n        /* \"#utility.yul\":27254:27257   */\n      dup3\n        /* \"#utility.yul\":27247:27266   */\n      mstore\n        /* \"#utility.yul\":27299:27303   */\n      0x20\n        /* \"#utility.yul\":27294:27297   */\n      dup3\n        /* \"#utility.yul\":27290:27304   */\n      add\n        /* \"#utility.yul\":27275:27304   */\n      swap1\n      pop\n        /* \"#utility.yul\":27126:27310   */\n      swap3\n      swap2\n      pop\n      pop\n      jump\t// out\n        /* \"#utility.yul\":27316:27475   */\n    tag_566:\n        /* \"#utility.yul\":27390:27401   */\n      0x00\n        /* \"#utility.yul\":27424:27430   */\n      dup3\n        /* \"#utility.yul\":27419:27422   */\n      dup3\n        /* \"#utility.yul\":27412:27431   */\n      mstore\n        /* \"#utility.yul\":27464:27468   */\n      0x20\n        /* \"#utility.yul\":27459:27462   */\n      dup3\n        /* \"#utility.yul\":27455:27469   */\n      add\n        /* \"#utility.yul\":27440:27469   */\n      swap1\n      pop\n        /* \"#utility.yul\":27316:27475   */\n      swap3\n      swap2\n      pop\n      pop\n      jump\t// out\n        /* \"#utility.yul\":27481:27650   */\n    tag_575:\n        /* \"#utility.yul\":27565:27576   */\n      0x00\n        /* \"#utility.yul\":27599:27605   */\n      dup3\n        /* \"#utility.yul\":27594:27597   */\n      dup3\n        /* \"#utility.yul\":27587:27606   */\n      mstore\n        /* \"#utility.yul\":27639:27643   */\n      0x20\n        /* \"#utility.yul\":27634:27637   */\n      dup3\n        /* \"#utility.yul\":27630:27644   */\n      add\n        /* \"#utility.yul\":27615:27644   */\n      swap1\n      pop\n        /* \"#utility.yul\":27481:27650   */\n      swap3\n      swap2\n      pop\n      pop\n      jump\t// out\n        /* \"#utility.yul\":27656:27752   */\n    tag_547:\n        /* \"#utility.yul\":27693:27700   */\n      0x00\n        /* \"#utility.yul\":27722:27746   */\n      tag_660\n        /* \"#utility.yul\":27740:27745   */\n      dup3\n        /* \"#utility.yul\":27722:27746   */\n      tag_661\n      jump\t// in\n    tag_660:\n        /* \"#utility.yul\":27711:27746   */\n      swap1\n      pop\n        /* \"#utility.yul\":27656:27752   */\n      swap2\n      swap1\n      pop\n      jump\t// out\n        /* \"#utility.yul\":27758:27884   */\n    tag_661:\n        /* \"#utility.yul\":27795:27802   */\n      0x00\n        /* \"#utility.yul\":27835:27877   */\n      0xffffffffffffffffffffffffffffffffffffffff\n        /* \"#utility.yul\":27828:27833   */\n      dup3\n        /* \"#utility.yul\":27824:27878   */\n      and\n        /* \"#utility.yul\":27813:27878   */\n      swap1\n      pop\n        /* \"#utility.yul\":27758:27884   */\n      swap2\n      swap1\n      pop\n      jump\t// out\n        /* \"#utility.yul\":27890:27967   */\n    tag_619:\n        /* \"#utility.yul\":27927:27934   */\n      0x00\n        /* \"#utility.yul\":27956:27961   */\n      dup2\n        /* \"#utility.yul\":27945:27961   */\n      swap1\n      pop\n        /* \"#utility.yul\":27890:27967   */\n      swap2\n      swap1\n      pop\n      jump\t// out\n        /* \"#utility.yul\":27973:28127   */\n    tag_425:\n        /* \"#utility.yul\":28057:28063   */\n      dup3\n        /* \"#utility.yul\":28052:28055   */\n      dup2\n        /* \"#utility.yul\":28047:28050   */\n      dup4\n        /* \"#utility.yul\":28034:28064   */\n      calldatacopy\n        /* \"#utility.yul\":28119:28120   */\n      0x00\n        /* \"#utility.yul\":28110:28116   */\n      dup4\n        /* \"#utility.yul\":28105:28108   */\n      dup4\n        /* \"#utility.yul\":28101:28117   */\n      add\n        /* \"#utility.yul\":28094:28121   */\n      mstore\n        /* \"#utility.yul\":27973:28127   */\n      pop\n      pop\n      pop\n      jump\t// out\n        /* \"#utility.yul\":28133:28440   */\n    tag_568:\n        /* \"#utility.yul\":28201:28202   */\n      0x00\n        /* \"#utility.yul\":28211:28324   */\n    tag_666:\n        /* \"#utility.yul\":28225:28231   */\n      dup4\n        /* \"#utility.yul\":28222:28223   */\n      dup2\n        /* \"#utility.yul\":28219:28232   */\n      lt\n        /* \"#utility.yul\":28211:28324   */\n      iszero\n      tag_668\n      jumpi\n        /* \"#utility.yul\":28310:28311   */\n      dup1\n        /* \"#utility.yul\":28305:28308   */\n      dup3\n        /* \"#utility.yul\":28301:28312   */\n      add\n        /* \"#utility.yul\":28295:28313   */\n      mload\n        /* \"#utility.yul\":28291:28292   */\n      dup2\n        /* \"#utility.yul\":28286:28289   */\n      dup5\n        /* \"#utility.yul\":28282:28293   */\n      add\n        /* \"#utility.yul\":28275:28314   */\n      mstore\n        /* \"#utility.yul\":28247:28249   */\n      0x20\n        /* \"#utility.yul\":28244:28245   */\n      dup2\n        /* \"#utility.yul\":28240:28250   */\n      add\n        /* \"#utility.yul\":28235:28250   */\n      swap1\n      pop\n        /* \"#utility.yul\":28211:28324   */\n      jump(tag_666)\n    tag_668:\n        /* \"#utility.yul\":28342:28348   */\n      dup4\n        /* \"#utility.yul\":28339:28340   */\n      dup2\n        /* \"#utility.yul\":28336:28349   */\n      gt\n        /* \"#utility.yul\":28333:28434   */\n      iszero\n      tag_669\n      jumpi\n        /* \"#utility.yul\":28422:28423   */\n      0x00\n        /* \"#utility.yul\":28413:28419   */\n      dup5\n        /* \"#utility.yul\":28408:28411   */\n      dup5\n        /* \"#utility.yul\":28404:28420   */\n      add\n        /* \"#utility.yul\":28397:28424   */\n      mstore\n        /* \"#utility.yul\":28333:28434   */\n    tag_669:\n        /* \"#utility.yul\":28182:28440   */\n      pop\n        /* \"#utility.yul\":28133:28440   */\n      pop\n      pop\n      pop\n      jump\t// out\n        /* \"#utility.yul\":28446:28766   */\n    tag_147:\n        /* \"#utility.yul\":28490:28496   */\n      0x00\n        /* \"#utility.yul\":28527:28528   */\n      0x02\n        /* \"#utility.yul\":28521:28525   */\n      dup3\n        /* \"#utility.yul\":28517:28529   */\n      div\n        /* \"#utility.yul\":28507:28529   */\n      swap1\n      pop\n        /* \"#utility.yul\":28574:28575   */\n      0x01\n        /* \"#utility.yul\":28568:28572   */\n      dup3\n        /* \"#utility.yul\":28564:28576   */\n      and\n        /* \"#utility.yul\":28595:28613   */\n      dup1\n        /* \"#utility.yul\":28585:28666   */\n      tag_671\n      jumpi\n        /* \"#utility.yul\":28651:28655   */\n      0x7f\n        /* \"#utility.yul\":28643:28649   */\n      dup3\n        /* \"#utility.yul\":28639:28656   */\n      and\n        /* \"#utility.yul\":28629:28656   */\n      swap2\n      pop\n        /* \"#utility.yul\":28585:28666   */\n    tag_671:\n        /* \"#utility.yul\":28713:28715   */\n      0x20\n        /* \"#utility.yul\":28705:28711   */\n      dup3\n        /* \"#utility.yul\":28702:28716   */\n      lt\n        /* \"#utility.yul\":28682:28700   */\n      dup2\n        /* \"#utility.yul\":28679:28717   */\n      eq\n        /* \"#utility.yul\":28676:28760   */\n      iszero\n      tag_672\n      jumpi\n        /* \"#utility.yul\":28732:28750   */\n      tag_673\n      tag_674\n      jump\t// in\n    tag_673:\n        /* \"#utility.yul\":28676:28760   */\n    tag_672:\n        /* \"#utility.yul\":28497:28766   */\n      pop\n        /* \"#utility.yul\":28446:28766   */\n      swap2\n      swap1\n      pop\n      jump\t// out\n        /* \"#utility.yul\":28772:29053   */\n    tag_642:\n        /* \"#utility.yul\":28855:28882   */\n      tag_676\n        /* \"#utility.yul\":28877:28881   */\n      dup3\n        /* \"#utility.yul\":28855:28882   */\n      tag_570\n      jump\t// in\n    tag_676:\n        /* \"#utility.yul\":28847:28853   */\n      dup2\n        /* \"#utility.yul\":28843:28883   */\n      add\n        /* \"#utility.yul\":28985:28991   */\n      dup2\n        /* \"#utility.yul\":28973:28983   */\n      dup2\n        /* \"#utility.yul\":28970:28992   */\n      lt\n        /* \"#utility.yul\":28949:28967   */\n      0xffffffffffffffff\n        /* \"#utility.yul\":28937:28947   */\n      dup3\n        /* \"#utility.yul\":28934:28968   */\n      gt\n        /* \"#utility.yul\":28931:28993   */\n      or\n        /* \"#utility.yul\":28928:29016   */\n      iszero\n      tag_677\n      jumpi\n        /* \"#utility.yul\":28996:29014   */\n      tag_678\n      tag_647\n      jump\t// in\n    tag_678:\n        /* \"#utility.yul\":28928:29016   */\n    tag_677:\n        /* \"#utility.yul\":29036:29046   */\n      dup1\n        /* \"#utility.yul\":29032:29034   */\n      0x40\n        /* \"#utility.yul\":29025:29047   */\n      mstore\n        /* \"#utility.yul\":28815:29053   */\n      pop\n        /* \"#utility.yul\":28772:29053   */\n      pop\n      pop\n      jump\t// out\n        /* \"#utility.yul\":29059:29239   */\n    tag_674:\n        /* \"#utility.yul\":29107:29184   */\n      0x4e487b7100000000000000000000000000000000000000000000000000000000\n        /* \"#utility.yul\":29104:29105   */\n      0x00\n        /* \"#utility.yul\":29097:29185   */\n      mstore\n        /* \"#utility.yul\":29204:29208   */\n      0x22\n        /* \"#utility.yul\":29201:29202   */\n      0x04\n        /* \"#utility.yul\":29194:29209   */\n      mstore\n        /* \"#utility.yul\":29228:29232   */\n      0x24\n        /* \"#utility.yul\":29225:29226   */\n      0x00\n        /* \"#utility.yul\":29218:29233   */\n      revert\n        /* \"#utility.yul\":29245:29425   */\n    tag_298:\n        /* \"#utility.yul\":29293:29370   */\n      0x4e487b7100000000000000000000000000000000000000000000000000000000\n        /* \"#utility.yul\":29290:29291   */\n      0x00\n        /* \"#utility.yul\":29283:29371   */\n      mstore\n        /* \"#utility.yul\":29390:29394   */\n      0x32\n        /* \"#utility.yul\":29387:29388   */\n      0x04\n        /* \"#utility.yul\":29380:29395   */\n      mstore\n        /* \"#utility.yul\":29414:29418   */\n      0x24\n        /* \"#utility.yul\":29411:29412   */\n      0x00\n        /* \"#utility.yul\":29404:29419   */\n      revert\n        /* \"#utility.yul\":29431:29611   */\n    tag_647:\n        /* \"#utility.yul\":29479:29556   */\n      0x4e487b7100000000000000000000000000000000000000000000000000000000\n        /* \"#utility.yul\":29476:29477   */\n      0x00\n        /* \"#utility.yul\":29469:29557   */\n      mstore\n        /* \"#utility.yul\":29576:29580   */\n      0x41\n        /* \"#utility.yul\":29573:29574   */\n      0x04\n        /* \"#utility.yul\":29566:29581   */\n      mstore\n        /* \"#utility.yul\":29600:29604   */\n      0x24\n        /* \"#utility.yul\":29597:29598   */\n      0x00\n        /* \"#utility.yul\":29590:29605   */\n      revert\n        /* \"#utility.yul\":29617:29734   */\n    tag_413:\n        /* \"#utility.yul\":29726:29727   */\n      0x00\n        /* \"#utility.yul\":29723:29724   */\n      dup1\n        /* \"#utility.yul\":29716:29728   */\n      revert\n        /* \"#utility.yul\":29740:29857   */\n    tag_407:\n        /* \"#utility.yul\":29849:29850   */\n      0x00\n        /* \"#utility.yul\":29846:29847   */\n      dup1\n        /* \"#utility.yul\":29839:29851   */\n      revert\n        /* \"#utility.yul\":29863:29980   */\n    tag_423:\n        /* \"#utility.yul\":29972:29973   */\n      0x00\n        /* \"#utility.yul\":29969:29970   */\n      dup1\n        /* \"#utility.yul\":29962:29974   */\n      revert\n        /* \"#utility.yul\":29986:30103   */\n    tag_453:\n        /* \"#utility.yul\":30095:30096   */\n      0x00\n        /* \"#utility.yul\":30092:30093   */\n      dup1\n        /* \"#utility.yul\":30085:30097   */\n      revert\n        /* \"#utility.yul\":30109:30226   */\n    tag_446:\n        /* \"#utility.yul\":30218:30219   */\n      0x00\n        /* \"#utility.yul\":30215:30216   */\n      dup1\n        /* \"#utility.yul\":30208:30220   */\n      revert\n        /* \"#utility.yul\":30232:30334   */\n    tag_570:\n        /* \"#utility.yul\":30273:30279   */\n      0x00\n        /* \"#utility.yul\":30324:30326   */\n      0x1f\n        /* \"#utility.yul\":30320:30327   */\n      not\n        /* \"#utility.yul\":30315:30317   */\n      0x1f\n        /* \"#utility.yul\":30308:30313   */\n      dup4\n        /* \"#utility.yul\":30304:30318   */\n      add\n        /* \"#utility.yul\":30300:30328   */\n      and\n        /* \"#utility.yul\":30290:30328   */\n      swap1\n      pop\n        /* \"#utility.yul\":30232:30334   */\n      swap2\n      swap1\n      pop\n      jump\t// out\n        /* \"#utility.yul\":30340:30462   */\n    tag_429:\n        /* \"#utility.yul\":30413:30437   */\n      tag_689\n        /* \"#utility.yul\":30431:30436   */\n      dup2\n        /* \"#utility.yul\":30413:30437   */\n      tag_547\n      jump\t// in\n    tag_689:\n        /* \"#utility.yul\":30406:30411   */\n      dup2\n        /* \"#utility.yul\":30403:30438   */\n      eq\n        /* \"#utility.yul\":30393:30456   */\n      tag_690\n      jumpi\n        /* \"#utility.yul\":30452:30453   */\n      0x00\n        /* \"#utility.yul\":30449:30450   */\n      dup1\n        /* \"#utility.yul\":30442:30454   */\n      revert\n        /* \"#utility.yul\":30393:30456   */\n    tag_690:\n        /* \"#utility.yul\":30340:30462   */\n      pop\n      jump\t// out\n        /* \"#utility.yul\":30468:30590   */\n    tag_442:\n        /* \"#utility.yul\":30541:30565   */\n      tag_692\n        /* \"#utility.yul\":30559:30564   */\n      dup2\n        /* \"#utility.yul\":30541:30565   */\n      tag_619\n      jump\t// in\n    tag_692:\n        /* \"#utility.yul\":30534:30539   */\n      dup2\n        /* \"#utility.yul\":30531:30566   */\n      eq\n        /* \"#utility.yul\":30521:30584   */\n      tag_693\n      jumpi\n        /* \"#utility.yul\":30580:30581   */\n      0x00\n        /* \"#utility.yul\":30577:30578   */\n      dup1\n        /* \"#utility.yul\":30570:30582   */\n      revert\n        /* \"#utility.yul\":30521:30584   */\n    tag_693:\n        /* \"#utility.yul\":30468:30590   */\n      pop\n      jump\t// out\n\n    auxdata: 0xa26469706673582212207f29e5fb54f011f8b21486fdd7fc099543c87d6d49f6654ea9f57c465ebbc23464736f6c63430008070033\n}\n",
				"bytecode": {
					"linkReferences": {},
					"object": "608060405234801561001057600080fd5b506138fc806100206000396000f3fe608060405234801561001057600080fd5b506004361061010b5760003560e01c806372828388116100a2578063b240c61911610071578063b240c61914610245578063c9116b691461024f578063ed2217ef1461026d578063f96e32f814610277578063fabce08f146102ab5761010b565b806372828388146101ce578063958791ae146101ea57806395ea3757146102065780639dd9d0fd146102105761010b565b80634ed74067116100de5780634ed740671461016e5780636212fa021461017857806366244dfb146101965780636c2cc774146101b25761010b565b8063119d4cac146101105780632a70da291461011a578063322a9849146101365780633d984d0e14610152575b600080fd5b6101186102b5565b005b610134600480360381019061012f9190612d6d565b61031b565b005b610150600480360381019061014b9190612cf5565b6104df565b005b61016c60048036038101906101679190612c4e565b610595565b005b610176610719565b005b61018061077f565b60405161018d91906135fd565b60405180910390f35b6101b060048036038101906101ab9190612e74565b6107cb565b005b6101cc60048036038101906101c79190612bd6565b610906565b005b6101e860048036038101906101e39190612e74565b6109bc565b005b61020460048036038101906101ff9190612f7b565b610c24565b005b61020e610f0e565b005b61022a60048036038101906102259190612ba9565b610fe3565b60405161023c96959493929190613572565b60405180910390f35b61024d612016565b005b6102576120ac565b60405161026491906135fd565b60405180910390f35b6102756120cb565b005b610291600480360381019061028c91906130b0565b61211a565b6040516102a29594939291906134fc565b60405180910390f35b6102b36125e5565b005b6000803373ffffffffffffffffffffffffffffffffffffffff1673ffffffffffffffffffffffffffffffffffffffff168152602001908152602001600020601901600080820160006103079190612811565b6001820160006103179190612811565b5050565b846000803373ffffffffffffffffffffffffffffffffffffffff1673ffffffffffffffffffffffffffffffffffffffff1681526020019081526020016000206014016000019080519060200190610373929190612851565b50836000803373ffffffffffffffffffffffffffffffffffffffff1673ffffffffffffffffffffffffffffffffffffffff16815260200190815260200160002060140160010190805190602001906103cc929190612851565b50826000803373ffffffffffffffffffffffffffffffffffffffff1673ffffffffffffffffffffffffffffffffffffffff1681526020019081526020016000206014016002019080519060200190610425929190612851565b50816000803373ffffffffffffffffffffffffffffffffffffffff1673ffffffffffffffffffffffffffffffffffffffff168152602001908152602001600020601401600301908051906020019061047e929190612851565b50806000803373ffffffffffffffffffffffffffffffffffffffff1673ffffffffffffffffffffffffffffffffffffffff16815260200190815260200160002060140160040190805190602001906104d79291906128d7565b505050505050565b816000803373ffffffffffffffffffffffffffffffffffffffff1673ffffffffffffffffffffffffffffffffffffffff1681526020019081526020016000206019016000019080519060200190610537929190612851565b50806000803373ffffffffffffffffffffffffffffffffffffffff1673ffffffffffffffffffffffffffffffffffffffff1681526020019081526020016000206019016001019080519060200190610590929190612851565b505050565b6000803373ffffffffffffffffffffffffffffffffffffffff1673ffffffffffffffffffffffffffffffffffffffff168152602001908152602001600020600e01600080820160006105e79190612937565b6001820160006105f79190612937565b6002820160006106079190612937565b5050826000803373ffffffffffffffffffffffffffffffffffffffff1673ffffffffffffffffffffffffffffffffffffffff168152602001908152602001600020600e0160000190805190602001906106619291906128d7565b50816000803373ffffffffffffffffffffffffffffffffffffffff1673ffffffffffffffffffffffffffffffffffffffff168152602001908152602001600020600e0160010190805190602001906106ba9291906128d7565b50806000803373ffffffffffffffffffffffffffffffffffffffff1673ffffffffffffffffffffffffffffffffffffffff168152602001908152602001600020600e0160020190805190602001906107139291906128d7565b50505050565b6000803373ffffffffffffffffffffffffffffffffffffffff1673ffffffffffffffffffffffffffffffffffffffff1681526020019081526020016000206012016000808201600061076b9190612937565b60018201600061077b9190612937565b5050565b60008060003373ffffffffffffffffffffffffffffffffffffffff1673ffffffffffffffffffffffffffffffffffffffff16815260200190815260200160002060110180549050905090565b6107d3612958565b8581600001819052508481602001819052508381604001819052508281606001819052508181608001819052506000803373ffffffffffffffffffffffffffffffffffffffff1673ffffffffffffffffffffffffffffffffffffffff1681526020019081526020016000206011018190806001815401808255809150506001900390600052602060002090600502016000909190919091506000820151816000019080519060200190610887929190612851565b5060208201518160010190805190602001906108a4929190612851565b5060408201518160020190805190602001906108c1929190612851565b5060608201518160030190805190602001906108de929190612851565b5060808201518160040190805190602001906108fb929190612851565b505050505050505050565b816000803373ffffffffffffffffffffffffffffffffffffffff1673ffffffffffffffffffffffffffffffffffffffff168152602001908152602001600020601201600101908051906020019061095e9291906128d7565b50806000803373ffffffffffffffffffffffffffffffffffffffff1673ffffffffffffffffffffffffffffffffffffffff16815260200190815260200160002060120160000190805190602001906109b79291906128d7565b505050565b6000803373ffffffffffffffffffffffffffffffffffffffff1673ffffffffffffffffffffffffffffffffffffffff16815260200190815260200160002060080160008082016000610a0e9190612811565b600182016000610a1e9190612811565b600282016000610a2e9190612811565b600382016000610a3e9190612811565b600482016000610a4e9190612811565b600582016000610a5e9190612811565b5050846000803373ffffffffffffffffffffffffffffffffffffffff1673ffffffffffffffffffffffffffffffffffffffff1681526020019081526020016000206008016001019080519060200190610ab8929190612851565b50836000803373ffffffffffffffffffffffffffffffffffffffff1673ffffffffffffffffffffffffffffffffffffffff1681526020019081526020016000206008016002019080519060200190610b11929190612851565b50826000803373ffffffffffffffffffffffffffffffffffffffff1673ffffffffffffffffffffffffffffffffffffffff1681526020019081526020016000206008016003019080519060200190610b6a929190612851565b50816000803373ffffffffffffffffffffffffffffffffffffffff1673ffffffffffffffffffffffffffffffffffffffff1681526020019081526020016000206008016002019080519060200190610bc3929190612851565b50806000803373ffffffffffffffffffffffffffffffffffffffff1673ffffffffffffffffffffffffffffffffffffffff1681526020019081526020016000206008016001019080519060200190610c1c929190612851565b505050505050565b856000803373ffffffffffffffffffffffffffffffffffffffff1673ffffffffffffffffffffffffffffffffffffffff1681526020019081526020016000206000016003019080519060200190610c7c929190612851565b50846000803373ffffffffffffffffffffffffffffffffffffffff1673ffffffffffffffffffffffffffffffffffffffff1681526020019081526020016000206000016004019080519060200190610cd5929190612851565b50836000803373ffffffffffffffffffffffffffffffffffffffff1673ffffffffffffffffffffffffffffffffffffffff1681526020019081526020016000206000016005019080519060200190610d2e929190612851565b50826000803373ffffffffffffffffffffffffffffffffffffffff1673ffffffffffffffffffffffffffffffffffffffff1681526020019081526020016000206000016006019080519060200190610d87929190612851565b50816000803373ffffffffffffffffffffffffffffffffffffffff1673ffffffffffffffffffffffffffffffffffffffff1681526020019081526020016000206000016000019080519060200190610de0929190612851565b50806000803373ffffffffffffffffffffffffffffffffffffffff1673ffffffffffffffffffffffffffffffffffffffff1681526020019081526020016000206000016001019080519060200190610e39929190612851565b50336000803373ffffffffffffffffffffffffffffffffffffffff1673ffffffffffffffffffffffffffffffffffffffff16815260200190815260200160002060000160020160006101000a81548173ffffffffffffffffffffffffffffffffffffffff021916908373ffffffffffffffffffffffffffffffffffffffff160217905550426000803373ffffffffffffffffffffffffffffffffffffffff1673ffffffffffffffffffffffffffffffffffffffff16815260200190815260200160002060000160070181905550505050505050565b6000803373ffffffffffffffffffffffffffffffffffffffff1673ffffffffffffffffffffffffffffffffffffffff16815260200190815260200160002060000160008082016000610f609190612811565b600182016000610f709190612811565b6002820160006101000a81549073ffffffffffffffffffffffffffffffffffffffff0219169055600382016000610fa79190612811565b600482016000610fb79190612811565b600582016000610fc79190612811565b600682016000610fd79190612811565b60078201600090555050565b600060205280600052604060002060009150905080600001604051806101000160405290816000820180546110179061377e565b80601f01602080910402602001604051908101604052809291908181526020018280546110439061377e565b80156110905780601f1061106557610100808354040283529160200191611090565b820191906000526020600020905b81548152906001019060200180831161107357829003601f168201915b505050505081526020016001820180546110a99061377e565b80601f01602080910402602001604051908101604052809291908181526020018280546110d59061377e565b80156111225780601f106110f757610100808354040283529160200191611122565b820191906000526020600020905b81548152906001019060200180831161110557829003601f168201915b505050505081526020016002820160009054906101000a900473ffffffffffffffffffffffffffffffffffffffff1673ffffffffffffffffffffffffffffffffffffffff1673ffffffffffffffffffffffffffffffffffffffff1681526020016003820180546111919061377e565b80601f01602080910402602001604051908101604052809291908181526020018280546111bd9061377e565b801561120a5780601f106111df5761010080835404028352916020019161120a565b820191906000526020600020905b8154815290600101906020018083116111ed57829003601f168201915b505050505081526020016004820180546112239061377e565b80601f016020809104026020016040519081016040528092919081815260200182805461124f9061377e565b801561129c5780601f106112715761010080835404028352916020019161129c565b820191906000526020600020905b81548152906001019060200180831161127f57829003601f168201915b505050505081526020016005820180546112b59061377e565b80601f01602080910402602001604051908101604052809291908181526020018280546112e19061377e565b801561132e5780601f106113035761010080835404028352916020019161132e565b820191906000526020600020905b81548152906001019060200180831161131157829003601f168201915b505050505081526020016006820180546113479061377e565b80601f01602080910402602001604051908101604052809291908181526020018280546113739061377e565b80156113c05780601f10611395576101008083540402835291602001916113c0565b820191906000526020600020905b8154815290600101906020018083116113a357829003601f168201915b5050505050815260200160078201548152505090806008016040518060c00160405290816000820180546113f39061377e565b80601f016020809104026020016040519081016040528092919081815260200182805461141f9061377e565b801561146c5780601f106114415761010080835404028352916020019161146c565b820191906000526020600020905b81548152906001019060200180831161144f57829003601f168201915b505050505081526020016001820180546114859061377e565b80601f01602080910402602001604051908101604052809291908181526020018280546114b19061377e565b80156114fe5780601f106114d3576101008083540402835291602001916114fe565b820191906000526020600020905b8154815290600101906020018083116114e157829003601f168201915b505050505081526020016002820180546115179061377e565b80601f01602080910402602001604051908101604052809291908181526020018280546115439061377e565b80156115905780601f1061156557610100808354040283529160200191611590565b820191906000526020600020905b81548152906001019060200180831161157357829003601f168201915b505050505081526020016003820180546115a99061377e565b80601f01602080910402602001604051908101604052809291908181526020018280546115d59061377e565b80156116225780601f106115f757610100808354040283529160200191611622565b820191906000526020600020905b81548152906001019060200180831161160557829003601f168201915b5050505050815260200160048201805461163b9061377e565b80601f01602080910402602001604051908101604052809291908181526020018280546116679061377e565b80156116b45780601f10611689576101008083540402835291602001916116b4565b820191906000526020600020905b81548152906001019060200180831161169757829003601f168201915b505050505081526020016005820180546116cd9061377e565b80601f01602080910402602001604051908101604052809291908181526020018280546116f99061377e565b80156117465780601f1061171b57610100808354040283529160200191611746565b820191906000526020600020905b81548152906001019060200180831161172957829003601f168201915b5050505050815250509080600e0160405180606001604052908160008201805480602002602001604051908101604052809291908181526020016000905b828210156118305783829060005260206000200180546117a39061377e565b80601f01602080910402602001604051908101604052809291908181526020018280546117cf9061377e565b801561181c5780601f106117f15761010080835404028352916020019161181c565b820191906000526020600020905b8154815290600101906020018083116117ff57829003601f168201915b505050505081526020019060010190611784565b50505050815260200160018201805480602002602001604051908101604052809291908181526020016000905b8282101561190957838290600052602060002001805461187c9061377e565b80601f01602080910402602001604051908101604052809291908181526020018280546118a89061377e565b80156118f55780601f106118ca576101008083540402835291602001916118f5565b820191906000526020600020905b8154815290600101906020018083116118d857829003601f168201915b50505050508152602001906001019061185d565b50505050815260200160028201805480602002602001604051908101604052809291908181526020016000905b828210156119e25783829060005260206000200180546119559061377e565b80601f01602080910402602001604051908101604052809291908181526020018280546119819061377e565b80156119ce5780601f106119a3576101008083540402835291602001916119ce565b820191906000526020600020905b8154815290600101906020018083116119b157829003601f168201915b505050505081526020019060010190611936565b5050505081525050908060120160405180604001604052908160008201805480602002602001604051908101604052809291908181526020016000905b82821015611acb578382906000526020600020018054611a3e9061377e565b80601f0160208091040260200160405190810160405280929190818152602001828054611a6a9061377e565b8015611ab75780601f10611a8c57610100808354040283529160200191611ab7565b820191906000526020600020905b815481529060010190602001808311611a9a57829003601f168201915b505050505081526020019060010190611a1f565b50505050815260200160018201805480602002602001604051908101604052809291908181526020016000905b82821015611ba4578382906000526020600020018054611b179061377e565b80601f0160208091040260200160405190810160405280929190818152602001828054611b439061377e565b8015611b905780601f10611b6557610100808354040283529160200191611b90565b820191906000526020600020905b815481529060010190602001808311611b7357829003601f168201915b505050505081526020019060010190611af8565b505050508152505090806014016040518060a0016040529081600082018054611bcc9061377e565b80601f0160208091040260200160405190810160405280929190818152602001828054611bf89061377e565b8015611c455780601f10611c1a57610100808354040283529160200191611c45565b820191906000526020600020905b815481529060010190602001808311611c2857829003601f168201915b50505050508152602001600182018054611c5e9061377e565b80601f0160208091040260200160405190810160405280929190818152602001828054611c8a9061377e565b8015611cd75780601f10611cac57610100808354040283529160200191611cd7565b820191906000526020600020905b815481529060010190602001808311611cba57829003601f168201915b50505050508152602001600282018054611cf09061377e565b80601f0160208091040260200160405190810160405280929190818152602001828054611d1c9061377e565b8015611d695780601f10611d3e57610100808354040283529160200191611d69565b820191906000526020600020905b815481529060010190602001808311611d4c57829003601f168201915b50505050508152602001600382018054611d829061377e565b80601f0160208091040260200160405190810160405280929190818152602001828054611dae9061377e565b8015611dfb5780601f10611dd057610100808354040283529160200191611dfb565b820191906000526020600020905b815481529060010190602001808311611dde57829003601f168201915b5050505050815260200160048201805480602002602001604051908101604052809291908181526020016000905b82821015611ed5578382906000526020600020018054611e489061377e565b80601f0160208091040260200160405190810160405280929190818152602001828054611e749061377e565b8015611ec15780601f10611e9657610100808354040283529160200191611ec1565b820191906000526020600020905b815481529060010190602001808311611ea457829003601f168201915b505050505081526020019060010190611e29565b50505050815250509080601901604051806040016040529081600082018054611efd9061377e565b80601f0160208091040260200160405190810160405280929190818152602001828054611f299061377e565b8015611f765780601f10611f4b57610100808354040283529160200191611f76565b820191906000526020600020905b815481529060010190602001808311611f5957829003601f168201915b50505050508152602001600182018054611f8f9061377e565b80601f0160208091040260200160405190810160405280929190818152602001828054611fbb9061377e565b80156120085780601f10611fdd57610100808354040283529160200191612008565b820191906000526020600020905b815481529060010190602001808311611feb57829003601f168201915b505050505081525050905086565b6000803373ffffffffffffffffffffffffffffffffffffffff1673ffffffffffffffffffffffffffffffffffffffff168152602001908152602001600020601401600080820160006120689190612811565b6001820160006120789190612811565b6002820160006120889190612811565b6003820160006120989190612811565b6004820160006120a89190612937565b5050565b60003373ffffffffffffffffffffffffffffffffffffffff1631905090565b6000803373ffffffffffffffffffffffffffffffffffffffff1673ffffffffffffffffffffffffffffffffffffffff16815260200190815260200160002060110160006121189190612987565b565b60608060608060606000803373ffffffffffffffffffffffffffffffffffffffff1673ffffffffffffffffffffffffffffffffffffffff168152602001908152602001600020601101868154811061217557612174613810565b5b90600052602060002090600502016000016000803373ffffffffffffffffffffffffffffffffffffffff1673ffffffffffffffffffffffffffffffffffffffff16815260200190815260200160002060110187815481106121d9576121d8613810565b5b90600052602060002090600502016001016000803373ffffffffffffffffffffffffffffffffffffffff1673ffffffffffffffffffffffffffffffffffffffff168152602001908152602001600020601101888154811061223d5761223c613810565b5b90600052602060002090600502016002016000803373ffffffffffffffffffffffffffffffffffffffff1673ffffffffffffffffffffffffffffffffffffffff16815260200190815260200160002060110189815481106122a1576122a0613810565b5b90600052602060002090600502016003016000803373ffffffffffffffffffffffffffffffffffffffff1673ffffffffffffffffffffffffffffffffffffffff1681526020019081526020016000206011018a8154811061230557612304613810565b5b90600052602060002090600502016004018480546123229061377e565b80601f016020809104026020016040519081016040528092919081815260200182805461234e9061377e565b801561239b5780601f106123705761010080835404028352916020019161239b565b820191906000526020600020905b81548152906001019060200180831161237e57829003601f168201915b505050505094508380546123ae9061377e565b80601f01602080910402602001604051908101604052809291908181526020018280546123da9061377e565b80156124275780601f106123fc57610100808354040283529160200191612427565b820191906000526020600020905b81548152906001019060200180831161240a57829003601f168201915b5050505050935082805461243a9061377e565b80601f01602080910402602001604051908101604052809291908181526020018280546124669061377e565b80156124b35780601f10612488576101008083540402835291602001916124b3565b820191906000526020600020905b81548152906001019060200180831161249657829003601f168201915b505050505092508180546124c69061377e565b80601f01602080910402602001604051908101604052809291908181526020018280546124f29061377e565b801561253f5780601f106125145761010080835404028352916020019161253f565b820191906000526020600020905b81548152906001019060200180831161252257829003601f168201915b505050505091508080546125529061377e565b80601f016020809104026020016040519081016040528092919081815260200182805461257e9061377e565b80156125cb5780601f106125a0576101008083540402835291602001916125cb565b820191906000526020600020905b8154815290600101906020018083116125ae57829003601f168201915b505050505090509450945094509450945091939590929450565b6000803373ffffffffffffffffffffffffffffffffffffffff1673ffffffffffffffffffffffffffffffffffffffff1681526020019081526020016000206000808201600080820160006126399190612811565b6001820160006126499190612811565b6002820160006101000a81549073ffffffffffffffffffffffffffffffffffffffff02191690556003820160006126809190612811565b6004820160006126909190612811565b6005820160006126a09190612811565b6006820160006126b09190612811565b6007820160009055505060088201600080820160006126cf9190612811565b6001820160006126df9190612811565b6002820160006126ef9190612811565b6003820160006126ff9190612811565b60048201600061270f9190612811565b60058201600061271f9190612811565b5050600e8201600080820160006127369190612937565b6001820160006127469190612937565b6002820160006127569190612937565b50506011820160006127689190612987565b601282016000808201600061277d9190612937565b60018201600061278d9190612937565b505060148201600080820160006127a49190612811565b6001820160006127b49190612811565b6002820160006127c49190612811565b6003820160006127d49190612811565b6004820160006127e49190612937565b505060198201600080820160006127fb9190612811565b60018201600061280b9190612811565b50505050565b50805461281d9061377e565b6000825580601f1061282f575061284e565b601f01602090049060005260206000209081019061284d91906129ab565b5b50565b82805461285d9061377e565b90600052602060002090601f01602090048101928261287f57600085556128c6565b82601f1061289857805160ff19168380011785556128c6565b828001600101855582156128c6579182015b828111156128c55782518255916020019190600101906128aa565b5b5090506128d391906129ab565b5090565b828054828255906000526020600020908101928215612926579160200282015b82811115612925578251829080519060200190612915929190612851565b50916020019190600101906128f7565b5b50905061293391906129c8565b5090565b508054600082559060005260206000209081019061295591906129c8565b50565b6040518060a0016040528060608152602001606081526020016060815260200160608152602001606081525090565b50805460008255600502906000526020600020908101906129a891906129ec565b50565b5b808211156129c45760008160009055506001016129ac565b5090565b5b808211156129e857600081816129df9190612811565b506001016129c9565b5090565b5b80821115612a4f5760008082016000612a069190612811565b600182016000612a169190612811565b600282016000612a269190612811565b600382016000612a369190612811565b600482016000612a469190612811565b506005016129ed565b5090565b6000612a66612a618461363d565b613618565b90508083825260208201905082856020860282011115612a8957612a88613873565b5b60005b85811015612ad757813567ffffffffffffffff811115612aaf57612aae61386e565b5b808601612abc8982612b66565b85526020850194506020840193505050600181019050612a8c565b5050509392505050565b6000612af4612aef84613669565b613618565b905082815260208101848484011115612b1057612b0f613878565b5b612b1b84828561373c565b509392505050565b600081359050612b3281613898565b92915050565b600082601f830112612b4d57612b4c61386e565b5b8135612b5d848260208601612a53565b91505092915050565b600082601f830112612b7b57612b7a61386e565b5b8135612b8b848260208601612ae1565b91505092915050565b600081359050612ba3816138af565b92915050565b600060208284031215612bbf57612bbe613882565b5b6000612bcd84828501612b23565b91505092915050565b60008060408385031215612bed57612bec613882565b5b600083013567ffffffffffffffff811115612c0b57612c0a61387d565b5b612c1785828601612b38565b925050602083013567ffffffffffffffff811115612c3857612c3761387d565b5b612c4485828601612b38565b9150509250929050565b600080600060608486031215612c6757612c66613882565b5b600084013567ffffffffffffffff811115612c8557612c8461387d565b5b612c9186828701612b38565b935050602084013567ffffffffffffffff811115612cb257612cb161387d565b5b612cbe86828701612b38565b925050604084013567ffffffffffffffff811115612cdf57612cde61387d565b5b612ceb86828701612b38565b9150509250925092565b60008060408385031215612d0c57612d0b613882565b5b600083013567ffffffffffffffff811115612d2a57612d2961387d565b5b612d3685828601612b66565b925050602083013567ffffffffffffffff811115612d5757612d5661387d565b5b612d6385828601612b66565b9150509250929050565b600080600080600060a08688031215612d8957612d88613882565b5b600086013567ffffffffffffffff811115612da757612da661387d565b5b612db388828901612b66565b955050602086013567ffffffffffffffff811115612dd457612dd361387d565b5b612de088828901612b66565b945050604086013567ffffffffffffffff811115612e0157612e0061387d565b5b612e0d88828901612b66565b935050606086013567ffffffffffffffff811115612e2e57612e2d61387d565b5b612e3a88828901612b66565b925050608086013567ffffffffffffffff811115612e5b57612e5a61387d565b5b612e6788828901612b38565b9150509295509295909350565b600080600080600060a08688031215612e9057612e8f613882565b5b600086013567ffffffffffffffff811115612eae57612ead61387d565b5b612eba88828901612b66565b955050602086013567ffffffffffffffff811115612edb57612eda61387d565b5b612ee788828901612b66565b945050604086013567ffffffffffffffff811115612f0857612f0761387d565b5b612f1488828901612b66565b935050606086013567ffffffffffffffff811115612f3557612f3461387d565b5b612f4188828901612b66565b925050608086013567ffffffffffffffff811115612f6257612f6161387d565b5b612f6e88828901612b66565b9150509295509295909350565b60008060008060008060c08789031215612f9857612f97613882565b5b600087013567ffffffffffffffff811115612fb657612fb561387d565b5b612fc289828a01612b66565b965050602087013567ffffffffffffffff811115612fe357612fe261387d565b5b612fef89828a01612b66565b955050604087013567ffffffffffffffff8111156130105761300f61387d565b5b61301c89828a01612b66565b945050606087013567ffffffffffffffff81111561303d5761303c61387d565b5b61304989828a01612b66565b935050608087013567ffffffffffffffff81111561306a5761306961387d565b5b61307689828a01612b66565b92505060a087013567ffffffffffffffff8111156130975761309661387d565b5b6130a389828a01612b66565b9150509295509295509295565b6000602082840312156130c6576130c5613882565b5b60006130d484828501612b94565b91505092915050565b60006130e98383613175565b905092915050565b6130fa81613700565b82525050565b600061310b826136aa565b61311581856136cd565b9350836020820285016131278561369a565b8060005b85811015613163578484038952815161314485826130dd565b945061314f836136c0565b925060208a0199505060018101905061312b565b50829750879550505050505092915050565b6000613180826136b5565b61318a81856136de565b935061319a81856020860161374b565b6131a381613887565b840191505092915050565b60006131b9826136b5565b6131c381856136ef565b93506131d381856020860161374b565b6131dc81613887565b840191505092915050565b600060408301600083015184820360008601526132048282613100565b9150506020830151848203602086015261321e8282613100565b9150508091505092915050565b600060a08301600083015184820360008601526132488282613175565b915050602083015184820360208601526132628282613175565b9150506040830151848203604086015261327c8282613175565b915050606083015184820360608601526132968282613175565b915050608083015184820360808601526132b08282613100565b9150508091505092915050565b600060c08301600083015184820360008601526132da8282613175565b915050602083015184820360208601526132f48282613175565b9150506040830151848203604086015261330e8282613175565b915050606083015184820360608601526133288282613175565b915050608083015184820360808601526133428282613175565b91505060a083015184820360a086015261335c8282613175565b9150508091505092915050565b600060408301600083015184820360008601526133868282613175565b915050602083015184820360208601526133a08282613175565b9150508091505092915050565b60006101008301600083015184820360008601526133cb8282613175565b915050602083015184820360208601526133e58282613175565b91505060408301516133fa60408601826130f1565b50606083015184820360608601526134128282613175565b9150506080830151848203608086015261342c8282613175565b91505060a083015184820360a08601526134468282613175565b91505060c083015184820360c08601526134608282613175565b91505060e083015161347560e08601826134de565b508091505092915050565b6000606083016000830151848203600086015261349d8282613100565b915050602083015184820360208601526134b78282613100565b915050604083015184820360408601526134d18282613100565b9150508091505092915050565b6134e781613732565b82525050565b6134f681613732565b82525050565b600060a082019050818103600083015261351681886131ae565b9050818103602083015261352a81876131ae565b9050818103604083015261353e81866131ae565b9050818103606083015261355281856131ae565b9050818103608083015261356681846131ae565b90509695505050505050565b600060c082019050818103600083015261358c81896133ad565b905081810360208301526135a081886132bd565b905081810360408301526135b48187613480565b905081810360608301526135c881866131e7565b905081810360808301526135dc818561322b565b905081810360a08301526135f08184613369565b9050979650505050505050565b600060208201905061361260008301846134ed565b92915050565b6000613622613633565b905061362e82826137b0565b919050565b6000604051905090565b600067ffffffffffffffff8211156136585761365761383f565b5b602082029050602081019050919050565b600067ffffffffffffffff8211156136845761368361383f565b5b61368d82613887565b9050602081019050919050565b6000819050602082019050919050565b600081519050919050565b600081519050919050565b6000602082019050919050565b600082825260208201905092915050565b600082825260208201905092915050565b600082825260208201905092915050565b600061370b82613712565b9050919050565b600073ffffffffffffffffffffffffffffffffffffffff82169050919050565b6000819050919050565b82818337600083830152505050565b60005b8381101561376957808201518184015260208101905061374e565b83811115613778576000848401525b50505050565b6000600282049050600182168061379657607f821691505b602082108114156137aa576137a96137e1565b5b50919050565b6137b982613887565b810181811067ffffffffffffffff821117156137d8576137d761383f565b5b80604052505050565b7f4e487b7100000000000000000000000000000000000000000000000000000000600052602260045260246000fd5b7f4e487b7100000000000000000000000000000000000000000000000000000000600052603260045260246000fd5b7f4e487b7100000000000000000000000000000000000000000000000000000000600052604160045260246000fd5b600080fd5b600080fd5b600080fd5b600080fd5b600080fd5b6000601f19601f8301169050919050565b6138a181613700565b81146138ac57600080fd5b50565b6138b881613732565b81146138c357600080fd5b5056fea26469706673582212207f29e5fb54f011f8b21486fdd7fc099543c87d6d49f6654ea9f57c465ebbc23464736f6c63430008070033",
					"opcodes": "PUSH1 0x80 PUSH1 0x40 MSTORE CALLVALUE DUP1 ISZERO PUSH2 0x10 JUMPI PUSH1 0x0 DUP1 REVERT JUMPDEST POP PUSH2 0x38FC DUP1 PUSH2 0x20 PUSH1 0x0 CODECOPY PUSH1 0x0 RETURN INVALID PUSH1 0x80 PUSH1 0x40 MSTORE CALLVALUE DUP1 ISZERO PUSH2 0x10 JUMPI PUSH1 0x0 DUP1 REVERT JUMPDEST POP PUSH1 0x4 CALLDATASIZE LT PUSH2 0x10B JUMPI PUSH1 0x0 CALLDATALOAD PUSH1 0xE0 SHR DUP1 PUSH4 0x72828388 GT PUSH2 0xA2 JUMPI DUP1 PUSH4 0xB240C619 GT PUSH2 0x71 JUMPI DUP1 PUSH4 0xB240C619 EQ PUSH2 0x245 JUMPI DUP1 PUSH4 0xC9116B69 EQ PUSH2 0x24F JUMPI DUP1 PUSH4 0xED2217EF EQ PUSH2 0x26D JUMPI DUP1 PUSH4 0xF96E32F8 EQ PUSH2 0x277 JUMPI DUP1 PUSH4 0xFABCE08F EQ PUSH2 0x2AB JUMPI PUSH2 0x10B JUMP JUMPDEST DUP1 PUSH4 0x72828388 EQ PUSH2 0x1CE JUMPI DUP1 PUSH4 0x958791AE EQ PUSH2 0x1EA JUMPI DUP1 PUSH4 0x95EA3757 EQ PUSH2 0x206 JUMPI DUP1 PUSH4 0x9DD9D0FD EQ PUSH2 0x210 JUMPI PUSH2 0x10B JUMP JUMPDEST DUP1 PUSH4 0x4ED74067 GT PUSH2 0xDE JUMPI DUP1 PUSH4 0x4ED74067 EQ PUSH2 0x16E JUMPI DUP1 PUSH4 0x6212FA02 EQ PUSH2 0x178 JUMPI DUP1 PUSH4 0x66244DFB EQ PUSH2 0x196 JUMPI DUP1 PUSH4 0x6C2CC774 EQ PUSH2 0x1B2 JUMPI PUSH2 0x10B JUMP JUMPDEST DUP1 PUSH4 0x119D4CAC EQ PUSH2 0x110 JUMPI DUP1 PUSH4 0x2A70DA29 EQ PUSH2 0x11A JUMPI DUP1 PUSH4 0x322A9849 EQ PUSH2 0x136 JUMPI DUP1 PUSH4 0x3D984D0E EQ PUSH2 0x152 JUMPI JUMPDEST PUSH1 0x0 DUP1 REVERT JUMPDEST PUSH2 0x118 PUSH2 0x2B5 JUMP JUMPDEST STOP JUMPDEST PUSH2 0x134 PUSH1 0x4 DUP1 CALLDATASIZE SUB DUP2 ADD SWAP1 PUSH2 0x12F SWAP2 SWAP1 PUSH2 0x2D6D JUMP JUMPDEST PUSH2 0x31B JUMP JUMPDEST STOP JUMPDEST PUSH2 0x150 PUSH1 0x4 DUP1 CALLDATASIZE SUB DUP2 ADD SWAP1 PUSH2 0x14B SWAP2 SWAP1 PUSH2 0x2CF5 JUMP JUMPDEST PUSH2 0x4DF JUMP JUMPDEST STOP JUMPDEST PUSH2 0x16C PUSH1 0x4 DUP1 CALLDATASIZE SUB DUP2 ADD SWAP1 PUSH2 0x167 SWAP2 SWAP1 PUSH2 0x2C4E JUMP JUMPDEST PUSH2 0x595 JUMP JUMPDEST STOP JUMPDEST PUSH2 0x176 PUSH2 0x719 JUMP JUMPDEST STOP JUMPDEST PUSH2 0x180 PUSH2 0x77F JUMP JUMPDEST PUSH1 0x40 MLOAD PUSH2 0x18D SWAP2 SWAP1 PUSH2 0x35FD JUMP JUMPDEST PUSH1 0x40 MLOAD DUP1 SWAP2 SUB SWAP1 RETURN JUMPDEST PUSH2 0x1B0 PUSH1 0x4 DUP1 CALLDATASIZE SUB DUP2 ADD SWAP1 PUSH2 0x1AB SWAP2 SWAP1 PUSH2 0x2E74 JUMP JUMPDEST PUSH2 0x7CB JUMP JUMPDEST STOP JUMPDEST PUSH2 0x1CC PUSH1 0x4 DUP1 CALLDATASIZE SUB DUP2 ADD SWAP1 PUSH2 0x1C7 SWAP2 SWAP1 PUSH2 0x2BD6 JUMP JUMPDEST PUSH2 0x906 JUMP JUMPDEST STOP JUMPDEST PUSH2 0x1E8 PUSH1 0x4 DUP1 CALLDATASIZE SUB DUP2 ADD SWAP1 PUSH2 0x1E3 SWAP2 SWAP1 PUSH2 0x2E74 JUMP JUMPDEST PUSH2 0x9BC JUMP JUMPDEST STOP JUMPDEST PUSH2 0x204 PUSH1 0x4 DUP1 CALLDATASIZE SUB DUP2 ADD SWAP1 PUSH2 0x1FF SWAP2 SWAP1 PUSH2 0x2F7B JUMP JUMPDEST PUSH2 0xC24 JUMP JUMPDEST STOP JUMPDEST PUSH2 0x20E PUSH2 0xF0E JUMP JUMPDEST STOP JUMPDEST PUSH2 0x22A PUSH1 0x4 DUP1 CALLDATASIZE SUB DUP2 ADD SWAP1 PUSH2 0x225 SWAP2 SWAP1 PUSH2 0x2BA9 JUMP JUMPDEST PUSH2 0xFE3 JUMP JUMPDEST PUSH1 0x40 MLOAD PUSH2 0x23C SWAP7 SWAP6 SWAP5 SWAP4 SWAP3 SWAP2 SWAP1 PUSH2 0x3572 JUMP JUMPDEST PUSH1 0x40 MLOAD DUP1 SWAP2 SUB SWAP1 RETURN JUMPDEST PUSH2 0x24D PUSH2 0x2016 JUMP JUMPDEST STOP JUMPDEST PUSH2 0x257 PUSH2 0x20AC JUMP JUMPDEST PUSH1 0x40 MLOAD PUSH2 0x264 SWAP2 SWAP1 PUSH2 0x35FD JUMP JUMPDEST PUSH1 0x40 MLOAD DUP1 SWAP2 SUB SWAP1 RETURN JUMPDEST PUSH2 0x275 PUSH2 0x20CB JUMP JUMPDEST STOP JUMPDEST PUSH2 0x291 PUSH1 0x4 DUP1 CALLDATASIZE SUB DUP2 ADD SWAP1 PUSH2 0x28C SWAP2 SWAP1 PUSH2 0x30B0 JUMP JUMPDEST PUSH2 0x211A JUMP JUMPDEST PUSH1 0x40 MLOAD PUSH2 0x2A2 SWAP6 SWAP5 SWAP4 SWAP3 SWAP2 SWAP1 PUSH2 0x34FC JUMP JUMPDEST PUSH1 0x40 MLOAD DUP1 SWAP2 SUB SWAP1 RETURN JUMPDEST PUSH2 0x2B3 PUSH2 0x25E5 JUMP JUMPDEST STOP JUMPDEST PUSH1 0x0 DUP1 CALLER PUSH20 0xFFFFFFFFFFFFFFFFFFFFFFFFFFFFFFFFFFFFFFFF AND PUSH20 0xFFFFFFFFFFFFFFFFFFFFFFFFFFFFFFFFFFFFFFFF AND DUP2 MSTORE PUSH1 0x20 ADD SWAP1 DUP2 MSTORE PUSH1 0x20 ADD PUSH1 0x0 KECCAK256 PUSH1 0x19 ADD PUSH1 0x0 DUP1 DUP3 ADD PUSH1 0x0 PUSH2 0x307 SWAP2 SWAP1 PUSH2 0x2811 JUMP JUMPDEST PUSH1 0x1 DUP3 ADD PUSH1 0x0 PUSH2 0x317 SWAP2 SWAP1 PUSH2 0x2811 JUMP JUMPDEST POP POP JUMP JUMPDEST DUP5 PUSH1 0x0 DUP1 CALLER PUSH20 0xFFFFFFFFFFFFFFFFFFFFFFFFFFFFFFFFFFFFFFFF AND PUSH20 0xFFFFFFFFFFFFFFFFFFFFFFFFFFFFFFFFFFFFFFFF AND DUP2 MSTORE PUSH1 0x20 ADD SWAP1 DUP2 MSTORE PUSH1 0x20 ADD PUSH1 0x0 KECCAK256 PUSH1 0x14 ADD PUSH1 0x0 ADD SWAP1 DUP1 MLOAD SWAP1 PUSH1 0x20 ADD SWAP1 PUSH2 0x373 SWAP3 SWAP2 SWAP1 PUSH2 0x2851 JUMP JUMPDEST POP DUP4 PUSH1 0x0 DUP1 CALLER PUSH20 0xFFFFFFFFFFFFFFFFFFFFFFFFFFFFFFFFFFFFFFFF AND PUSH20 0xFFFFFFFFFFFFFFFFFFFFFFFFFFFFFFFFFFFFFFFF AND DUP2 MSTORE PUSH1 0x20 ADD SWAP1 DUP2 MSTORE PUSH1 0x20 ADD PUSH1 0x0 KECCAK256 PUSH1 0x14 ADD PUSH1 0x1 ADD SWAP1 DUP1 MLOAD SWAP1 PUSH1 0x20 ADD SWAP1 PUSH2 0x3CC SWAP3 SWAP2 SWAP1 PUSH2 0x2851 JUMP JUMPDEST POP DUP3 PUSH1 0x0 DUP1 CALLER PUSH20 0xFFFFFFFFFFFFFFFFFFFFFFFFFFFFFFFFFFFFFFFF AND PUSH20 0xFFFFFFFFFFFFFFFFFFFFFFFFFFFFFFFFFFFFFFFF AND DUP2 MSTORE PUSH1 0x20 ADD SWAP1 DUP2 MSTORE PUSH1 0x20 ADD PUSH1 0x0 KECCAK256 PUSH1 0x14 ADD PUSH1 0x2 ADD SWAP1 DUP1 MLOAD SWAP1 PUSH1 0x20 ADD SWAP1 PUSH2 0x425 SWAP3 SWAP2 SWAP1 PUSH2 0x2851 JUMP JUMPDEST POP DUP2 PUSH1 0x0 DUP1 CALLER PUSH20 0xFFFFFFFFFFFFFFFFFFFFFFFFFFFFFFFFFFFFFFFF AND PUSH20 0xFFFFFFFFFFFFFFFFFFFFFFFFFFFFFFFFFFFFFFFF AND DUP2 MSTORE PUSH1 0x20 ADD SWAP1 DUP2 MSTORE PUSH1 0x20 ADD PUSH1 0x0 KECCAK256 PUSH1 0x14 ADD PUSH1 0x3 ADD SWAP1 DUP1 MLOAD SWAP1 PUSH1 0x20 ADD SWAP1 PUSH2 0x47E SWAP3 SWAP2 SWAP1 PUSH2 0x2851 JUMP JUMPDEST POP DUP1 PUSH1 0x0 DUP1 CALLER PUSH20 0xFFFFFFFFFFFFFFFFFFFFFFFFFFFFFFFFFFFFFFFF AND PUSH20 0xFFFFFFFFFFFFFFFFFFFFFFFFFFFFFFFFFFFFFFFF AND DUP2 MSTORE PUSH1 0x20 ADD SWAP1 DUP2 MSTORE PUSH1 0x20 ADD PUSH1 0x0 KECCAK256 PUSH1 0x14 ADD PUSH1 0x4 ADD SWAP1 DUP1 MLOAD SWAP1 PUSH1 0x20 ADD SWAP1 PUSH2 0x4D7 SWAP3 SWAP2 SWAP1 PUSH2 0x28D7 JUMP JUMPDEST POP POP POP POP POP POP JUMP JUMPDEST DUP2 PUSH1 0x0 DUP1 CALLER PUSH20 0xFFFFFFFFFFFFFFFFFFFFFFFFFFFFFFFFFFFFFFFF AND PUSH20 0xFFFFFFFFFFFFFFFFFFFFFFFFFFFFFFFFFFFFFFFF AND DUP2 MSTORE PUSH1 0x20 ADD SWAP1 DUP2 MSTORE PUSH1 0x20 ADD PUSH1 0x0 KECCAK256 PUSH1 0x19 ADD PUSH1 0x0 ADD SWAP1 DUP1 MLOAD SWAP1 PUSH1 0x20 ADD SWAP1 PUSH2 0x537 SWAP3 SWAP2 SWAP1 PUSH2 0x2851 JUMP JUMPDEST POP DUP1 PUSH1 0x0 DUP1 CALLER PUSH20 0xFFFFFFFFFFFFFFFFFFFFFFFFFFFFFFFFFFFFFFFF AND PUSH20 0xFFFFFFFFFFFFFFFFFFFFFFFFFFFFFFFFFFFFFFFF AND DUP2 MSTORE PUSH1 0x20 ADD SWAP1 DUP2 MSTORE PUSH1 0x20 ADD PUSH1 0x0 KECCAK256 PUSH1 0x19 ADD PUSH1 0x1 ADD SWAP1 DUP1 MLOAD SWAP1 PUSH1 0x20 ADD SWAP1 PUSH2 0x590 SWAP3 SWAP2 SWAP1 PUSH2 0x2851 JUMP JUMPDEST POP POP POP JUMP JUMPDEST PUSH1 0x0 DUP1 CALLER PUSH20 0xFFFFFFFFFFFFFFFFFFFFFFFFFFFFFFFFFFFFFFFF AND PUSH20 0xFFFFFFFFFFFFFFFFFFFFFFFFFFFFFFFFFFFFFFFF AND DUP2 MSTORE PUSH1 0x20 ADD SWAP1 DUP2 MSTORE PUSH1 0x20 ADD PUSH1 0x0 KECCAK256 PUSH1 0xE ADD PUSH1 0x0 DUP1 DUP3 ADD PUSH1 0x0 PUSH2 0x5E7 SWAP2 SWAP1 PUSH2 0x2937 JUMP JUMPDEST PUSH1 0x1 DUP3 ADD PUSH1 0x0 PUSH2 0x5F7 SWAP2 SWAP1 PUSH2 0x2937 JUMP JUMPDEST PUSH1 0x2 DUP3 ADD PUSH1 0x0 PUSH2 0x607 SWAP2 SWAP1 PUSH2 0x2937 JUMP JUMPDEST POP POP DUP3 PUSH1 0x0 DUP1 CALLER PUSH20 0xFFFFFFFFFFFFFFFFFFFFFFFFFFFFFFFFFFFFFFFF AND PUSH20 0xFFFFFFFFFFFFFFFFFFFFFFFFFFFFFFFFFFFFFFFF AND DUP2 MSTORE PUSH1 0x20 ADD SWAP1 DUP2 MSTORE PUSH1 0x20 ADD PUSH1 0x0 KECCAK256 PUSH1 0xE ADD PUSH1 0x0 ADD SWAP1 DUP1 MLOAD SWAP1 PUSH1 0x20 ADD SWAP1 PUSH2 0x661 SWAP3 SWAP2 SWAP1 PUSH2 0x28D7 JUMP JUMPDEST POP DUP2 PUSH1 0x0 DUP1 CALLER PUSH20 0xFFFFFFFFFFFFFFFFFFFFFFFFFFFFFFFFFFFFFFFF AND PUSH20 0xFFFFFFFFFFFFFFFFFFFFFFFFFFFFFFFFFFFFFFFF AND DUP2 MSTORE PUSH1 0x20 ADD SWAP1 DUP2 MSTORE PUSH1 0x20 ADD PUSH1 0x0 KECCAK256 PUSH1 0xE ADD PUSH1 0x1 ADD SWAP1 DUP1 MLOAD SWAP1 PUSH1 0x20 ADD SWAP1 PUSH2 0x6BA SWAP3 SWAP2 SWAP1 PUSH2 0x28D7 JUMP JUMPDEST POP DUP1 PUSH1 0x0 DUP1 CALLER PUSH20 0xFFFFFFFFFFFFFFFFFFFFFFFFFFFFFFFFFFFFFFFF AND PUSH20 0xFFFFFFFFFFFFFFFFFFFFFFFFFFFFFFFFFFFFFFFF AND DUP2 MSTORE PUSH1 0x20 ADD SWAP1 DUP2 MSTORE PUSH1 0x20 ADD PUSH1 0x0 KECCAK256 PUSH1 0xE ADD PUSH1 0x2 ADD SWAP1 DUP1 MLOAD SWAP1 PUSH1 0x20 ADD SWAP1 PUSH2 0x713 SWAP3 SWAP2 SWAP1 PUSH2 0x28D7 JUMP JUMPDEST POP POP POP POP JUMP JUMPDEST PUSH1 0x0 DUP1 CALLER PUSH20 0xFFFFFFFFFFFFFFFFFFFFFFFFFFFFFFFFFFFFFFFF AND PUSH20 0xFFFFFFFFFFFFFFFFFFFFFFFFFFFFFFFFFFFFFFFF AND DUP2 MSTORE PUSH1 0x20 ADD SWAP1 DUP2 MSTORE PUSH1 0x20 ADD PUSH1 0x0 KECCAK256 PUSH1 0x12 ADD PUSH1 0x0 DUP1 DUP3 ADD PUSH1 0x0 PUSH2 0x76B SWAP2 SWAP1 PUSH2 0x2937 JUMP JUMPDEST PUSH1 0x1 DUP3 ADD PUSH1 0x0 PUSH2 0x77B SWAP2 SWAP1 PUSH2 0x2937 JUMP JUMPDEST POP POP JUMP JUMPDEST PUSH1 0x0 DUP1 PUSH1 0x0 CALLER PUSH20 0xFFFFFFFFFFFFFFFFFFFFFFFFFFFFFFFFFFFFFFFF AND PUSH20 0xFFFFFFFFFFFFFFFFFFFFFFFFFFFFFFFFFFFFFFFF AND DUP2 MSTORE PUSH1 0x20 ADD SWAP1 DUP2 MSTORE PUSH1 0x20 ADD PUSH1 0x0 KECCAK256 PUSH1 0x11 ADD DUP1 SLOAD SWAP1 POP SWAP1 POP SWAP1 JUMP JUMPDEST PUSH2 0x7D3 PUSH2 0x2958 JUMP JUMPDEST DUP6 DUP2 PUSH1 0x0 ADD DUP2 SWAP1 MSTORE POP DUP5 DUP2 PUSH1 0x20 ADD DUP2 SWAP1 MSTORE POP DUP4 DUP2 PUSH1 0x40 ADD DUP2 SWAP1 MSTORE POP DUP3 DUP2 PUSH1 0x60 ADD DUP2 SWAP1 MSTORE POP DUP2 DUP2 PUSH1 0x80 ADD DUP2 SWAP1 MSTORE POP PUSH1 0x0 DUP1 CALLER PUSH20 0xFFFFFFFFFFFFFFFFFFFFFFFFFFFFFFFFFFFFFFFF AND PUSH20 0xFFFFFFFFFFFFFFFFFFFFFFFFFFFFFFFFFFFFFFFF AND DUP2 MSTORE PUSH1 0x20 ADD SWAP1 DUP2 MSTORE PUSH1 0x20 ADD PUSH1 0x0 KECCAK256 PUSH1 0x11 ADD DUP2 SWAP1 DUP1 PUSH1 0x1 DUP2 SLOAD ADD DUP1 DUP3 SSTORE DUP1 SWAP2 POP POP PUSH1 0x1 SWAP1 SUB SWAP1 PUSH1 0x0 MSTORE PUSH1 0x20 PUSH1 0x0 KECCAK256 SWAP1 PUSH1 0x5 MUL ADD PUSH1 0x0 SWAP1 SWAP2 SWAP1 SWAP2 SWAP1 SWAP2 POP PUSH1 0x0 DUP3 ADD MLOAD DUP2 PUSH1 0x0 ADD SWAP1 DUP1 MLOAD SWAP1 PUSH1 0x20 ADD SWAP1 PUSH2 0x887 SWAP3 SWAP2 SWAP1 PUSH2 0x2851 JUMP JUMPDEST POP PUSH1 0x20 DUP3 ADD MLOAD DUP2 PUSH1 0x1 ADD SWAP1 DUP1 MLOAD SWAP1 PUSH1 0x20 ADD SWAP1 PUSH2 0x8A4 SWAP3 SWAP2 SWAP1 PUSH2 0x2851 JUMP JUMPDEST POP PUSH1 0x40 DUP3 ADD MLOAD DUP2 PUSH1 0x2 ADD SWAP1 DUP1 MLOAD SWAP1 PUSH1 0x20 ADD SWAP1 PUSH2 0x8C1 SWAP3 SWAP2 SWAP1 PUSH2 0x2851 JUMP JUMPDEST POP PUSH1 0x60 DUP3 ADD MLOAD DUP2 PUSH1 0x3 ADD SWAP1 DUP1 MLOAD SWAP1 PUSH1 0x20 ADD SWAP1 PUSH2 0x8DE SWAP3 SWAP2 SWAP1 PUSH2 0x2851 JUMP JUMPDEST POP PUSH1 0x80 DUP3 ADD MLOAD DUP2 PUSH1 0x4 ADD SWAP1 DUP1 MLOAD SWAP1 PUSH1 0x20 ADD SWAP1 PUSH2 0x8FB SWAP3 SWAP2 SWAP1 PUSH2 0x2851 JUMP JUMPDEST POP POP POP POP POP POP POP POP POP JUMP JUMPDEST DUP2 PUSH1 0x0 DUP1 CALLER PUSH20 0xFFFFFFFFFFFFFFFFFFFFFFFFFFFFFFFFFFFFFFFF AND PUSH20 0xFFFFFFFFFFFFFFFFFFFFFFFFFFFFFFFFFFFFFFFF AND DUP2 MSTORE PUSH1 0x20 ADD SWAP1 DUP2 MSTORE PUSH1 0x20 ADD PUSH1 0x0 KECCAK256 PUSH1 0x12 ADD PUSH1 0x1 ADD SWAP1 DUP1 MLOAD SWAP1 PUSH1 0x20 ADD SWAP1 PUSH2 0x95E SWAP3 SWAP2 SWAP1 PUSH2 0x28D7 JUMP JUMPDEST POP DUP1 PUSH1 0x0 DUP1 CALLER PUSH20 0xFFFFFFFFFFFFFFFFFFFFFFFFFFFFFFFFFFFFFFFF AND PUSH20 0xFFFFFFFFFFFFFFFFFFFFFFFFFFFFFFFFFFFFFFFF AND DUP2 MSTORE PUSH1 0x20 ADD SWAP1 DUP2 MSTORE PUSH1 0x20 ADD PUSH1 0x0 KECCAK256 PUSH1 0x12 ADD PUSH1 0x0 ADD SWAP1 DUP1 MLOAD SWAP1 PUSH1 0x20 ADD SWAP1 PUSH2 0x9B7 SWAP3 SWAP2 SWAP1 PUSH2 0x28D7 JUMP JUMPDEST POP POP POP JUMP JUMPDEST PUSH1 0x0 DUP1 CALLER PUSH20 0xFFFFFFFFFFFFFFFFFFFFFFFFFFFFFFFFFFFFFFFF AND PUSH20 0xFFFFFFFFFFFFFFFFFFFFFFFFFFFFFFFFFFFFFFFF AND DUP2 MSTORE PUSH1 0x20 ADD SWAP1 DUP2 MSTORE PUSH1 0x20 ADD PUSH1 0x0 KECCAK256 PUSH1 0x8 ADD PUSH1 0x0 DUP1 DUP3 ADD PUSH1 0x0 PUSH2 0xA0E SWAP2 SWAP1 PUSH2 0x2811 JUMP JUMPDEST PUSH1 0x1 DUP3 ADD PUSH1 0x0 PUSH2 0xA1E SWAP2 SWAP1 PUSH2 0x2811 JUMP JUMPDEST PUSH1 0x2 DUP3 ADD PUSH1 0x0 PUSH2 0xA2E SWAP2 SWAP1 PUSH2 0x2811 JUMP JUMPDEST PUSH1 0x3 DUP3 ADD PUSH1 0x0 PUSH2 0xA3E SWAP2 SWAP1 PUSH2 0x2811 JUMP JUMPDEST PUSH1 0x4 DUP3 ADD PUSH1 0x0 PUSH2 0xA4E SWAP2 SWAP1 PUSH2 0x2811 JUMP JUMPDEST PUSH1 0x5 DUP3 ADD PUSH1 0x0 PUSH2 0xA5E SWAP2 SWAP1 PUSH2 0x2811 JUMP JUMPDEST POP POP DUP5 PUSH1 0x0 DUP1 CALLER PUSH20 0xFFFFFFFFFFFFFFFFFFFFFFFFFFFFFFFFFFFFFFFF AND PUSH20 0xFFFFFFFFFFFFFFFFFFFFFFFFFFFFFFFFFFFFFFFF AND DUP2 MSTORE PUSH1 0x20 ADD SWAP1 DUP2 MSTORE PUSH1 0x20 ADD PUSH1 0x0 KECCAK256 PUSH1 0x8 ADD PUSH1 0x1 ADD SWAP1 DUP1 MLOAD SWAP1 PUSH1 0x20 ADD SWAP1 PUSH2 0xAB8 SWAP3 SWAP2 SWAP1 PUSH2 0x2851 JUMP JUMPDEST POP DUP4 PUSH1 0x0 DUP1 CALLER PUSH20 0xFFFFFFFFFFFFFFFFFFFFFFFFFFFFFFFFFFFFFFFF AND PUSH20 0xFFFFFFFFFFFFFFFFFFFFFFFFFFFFFFFFFFFFFFFF AND DUP2 MSTORE PUSH1 0x20 ADD SWAP1 DUP2 MSTORE PUSH1 0x20 ADD PUSH1 0x0 KECCAK256 PUSH1 0x8 ADD PUSH1 0x2 ADD SWAP1 DUP1 MLOAD SWAP1 PUSH1 0x20 ADD SWAP1 PUSH2 0xB11 SWAP3 SWAP2 SWAP1 PUSH2 0x2851 JUMP JUMPDEST POP DUP3 PUSH1 0x0 DUP1 CALLER PUSH20 0xFFFFFFFFFFFFFFFFFFFFFFFFFFFFFFFFFFFFFFFF AND PUSH20 0xFFFFFFFFFFFFFFFFFFFFFFFFFFFFFFFFFFFFFFFF AND DUP2 MSTORE PUSH1 0x20 ADD SWAP1 DUP2 MSTORE PUSH1 0x20 ADD PUSH1 0x0 KECCAK256 PUSH1 0x8 ADD PUSH1 0x3 ADD SWAP1 DUP1 MLOAD SWAP1 PUSH1 0x20 ADD SWAP1 PUSH2 0xB6A SWAP3 SWAP2 SWAP1 PUSH2 0x2851 JUMP JUMPDEST POP DUP2 PUSH1 0x0 DUP1 CALLER PUSH20 0xFFFFFFFFFFFFFFFFFFFFFFFFFFFFFFFFFFFFFFFF AND PUSH20 0xFFFFFFFFFFFFFFFFFFFFFFFFFFFFFFFFFFFFFFFF AND DUP2 MSTORE PUSH1 0x20 ADD SWAP1 DUP2 MSTORE PUSH1 0x20 ADD PUSH1 0x0 KECCAK256 PUSH1 0x8 ADD PUSH1 0x2 ADD SWAP1 DUP1 MLOAD SWAP1 PUSH1 0x20 ADD SWAP1 PUSH2 0xBC3 SWAP3 SWAP2 SWAP1 PUSH2 0x2851 JUMP JUMPDEST POP DUP1 PUSH1 0x0 DUP1 CALLER PUSH20 0xFFFFFFFFFFFFFFFFFFFFFFFFFFFFFFFFFFFFFFFF AND PUSH20 0xFFFFFFFFFFFFFFFFFFFFFFFFFFFFFFFFFFFFFFFF AND DUP2 MSTORE PUSH1 0x20 ADD SWAP1 DUP2 MSTORE PUSH1 0x20 ADD PUSH1 0x0 KECCAK256 PUSH1 0x8 ADD PUSH1 0x1 ADD SWAP1 DUP1 MLOAD SWAP1 PUSH1 0x20 ADD SWAP1 PUSH2 0xC1C SWAP3 SWAP2 SWAP1 PUSH2 0x2851 JUMP JUMPDEST POP POP POP POP POP POP JUMP JUMPDEST DUP6 PUSH1 0x0 DUP1 CALLER PUSH20 0xFFFFFFFFFFFFFFFFFFFFFFFFFFFFFFFFFFFFFFFF AND PUSH20 0xFFFFFFFFFFFFFFFFFFFFFFFFFFFFFFFFFFFFFFFF AND DUP2 MSTORE PUSH1 0x20 ADD SWAP1 DUP2 MSTORE PUSH1 0x20 ADD PUSH1 0x0 KECCAK256 PUSH1 0x0 ADD PUSH1 0x3 ADD SWAP1 DUP1 MLOAD SWAP1 PUSH1 0x20 ADD SWAP1 PUSH2 0xC7C SWAP3 SWAP2 SWAP1 PUSH2 0x2851 JUMP JUMPDEST POP DUP5 PUSH1 0x0 DUP1 CALLER PUSH20 0xFFFFFFFFFFFFFFFFFFFFFFFFFFFFFFFFFFFFFFFF AND PUSH20 0xFFFFFFFFFFFFFFFFFFFFFFFFFFFFFFFFFFFFFFFF AND DUP2 MSTORE PUSH1 0x20 ADD SWAP1 DUP2 MSTORE PUSH1 0x20 ADD PUSH1 0x0 KECCAK256 PUSH1 0x0 ADD PUSH1 0x4 ADD SWAP1 DUP1 MLOAD SWAP1 PUSH1 0x20 ADD SWAP1 PUSH2 0xCD5 SWAP3 SWAP2 SWAP1 PUSH2 0x2851 JUMP JUMPDEST POP DUP4 PUSH1 0x0 DUP1 CALLER PUSH20 0xFFFFFFFFFFFFFFFFFFFFFFFFFFFFFFFFFFFFFFFF AND PUSH20 0xFFFFFFFFFFFFFFFFFFFFFFFFFFFFFFFFFFFFFFFF AND DUP2 MSTORE PUSH1 0x20 ADD SWAP1 DUP2 MSTORE PUSH1 0x20 ADD PUSH1 0x0 KECCAK256 PUSH1 0x0 ADD PUSH1 0x5 ADD SWAP1 DUP1 MLOAD SWAP1 PUSH1 0x20 ADD SWAP1 PUSH2 0xD2E SWAP3 SWAP2 SWAP1 PUSH2 0x2851 JUMP JUMPDEST POP DUP3 PUSH1 0x0 DUP1 CALLER PUSH20 0xFFFFFFFFFFFFFFFFFFFFFFFFFFFFFFFFFFFFFFFF AND PUSH20 0xFFFFFFFFFFFFFFFFFFFFFFFFFFFFFFFFFFFFFFFF AND DUP2 MSTORE PUSH1 0x20 ADD SWAP1 DUP2 MSTORE PUSH1 0x20 ADD PUSH1 0x0 KECCAK256 PUSH1 0x0 ADD PUSH1 0x6 ADD SWAP1 DUP1 MLOAD SWAP1 PUSH1 0x20 ADD SWAP1 PUSH2 0xD87 SWAP3 SWAP2 SWAP1 PUSH2 0x2851 JUMP JUMPDEST POP DUP2 PUSH1 0x0 DUP1 CALLER PUSH20 0xFFFFFFFFFFFFFFFFFFFFFFFFFFFFFFFFFFFFFFFF AND PUSH20 0xFFFFFFFFFFFFFFFFFFFFFFFFFFFFFFFFFFFFFFFF AND DUP2 MSTORE PUSH1 0x20 ADD SWAP1 DUP2 MSTORE PUSH1 0x20 ADD PUSH1 0x0 KECCAK256 PUSH1 0x0 ADD PUSH1 0x0 ADD SWAP1 DUP1 MLOAD SWAP1 PUSH1 0x20 ADD SWAP1 PUSH2 0xDE0 SWAP3 SWAP2 SWAP1 PUSH2 0x2851 JUMP JUMPDEST POP DUP1 PUSH1 0x0 DUP1 CALLER PUSH20 0xFFFFFFFFFFFFFFFFFFFFFFFFFFFFFFFFFFFFFFFF AND PUSH20 0xFFFFFFFFFFFFFFFFFFFFFFFFFFFFFFFFFFFFFFFF AND DUP2 MSTORE PUSH1 0x20 ADD SWAP1 DUP2 MSTORE PUSH1 0x20 ADD PUSH1 0x0 KECCAK256 PUSH1 0x0 ADD PUSH1 0x1 ADD SWAP1 DUP1 MLOAD SWAP1 PUSH1 0x20 ADD SWAP1 PUSH2 0xE39 SWAP3 SWAP2 SWAP1 PUSH2 0x2851 JUMP JUMPDEST POP CALLER PUSH1 0x0 DUP1 CALLER PUSH20 0xFFFFFFFFFFFFFFFFFFFFFFFFFFFFFFFFFFFFFFFF AND PUSH20 0xFFFFFFFFFFFFFFFFFFFFFFFFFFFFFFFFFFFFFFFF AND DUP2 MSTORE PUSH1 0x20 ADD SWAP1 DUP2 MSTORE PUSH1 0x20 ADD PUSH1 0x0 KECCAK256 PUSH1 0x0 ADD PUSH1 0x2 ADD PUSH1 0x0 PUSH2 0x100 EXP DUP2 SLOAD DUP2 PUSH20 0xFFFFFFFFFFFFFFFFFFFFFFFFFFFFFFFFFFFFFFFF MUL NOT AND SWAP1 DUP4 PUSH20 0xFFFFFFFFFFFFFFFFFFFFFFFFFFFFFFFFFFFFFFFF AND MUL OR SWAP1 SSTORE POP TIMESTAMP PUSH1 0x0 DUP1 CALLER PUSH20 0xFFFFFFFFFFFFFFFFFFFFFFFFFFFFFFFFFFFFFFFF AND PUSH20 0xFFFFFFFFFFFFFFFFFFFFFFFFFFFFFFFFFFFFFFFF AND DUP2 MSTORE PUSH1 0x20 ADD SWAP1 DUP2 MSTORE PUSH1 0x20 ADD PUSH1 0x0 KECCAK256 PUSH1 0x0 ADD PUSH1 0x7 ADD DUP2 SWAP1 SSTORE POP POP POP POP POP POP POP JUMP JUMPDEST PUSH1 0x0 DUP1 CALLER PUSH20 0xFFFFFFFFFFFFFFFFFFFFFFFFFFFFFFFFFFFFFFFF AND PUSH20 0xFFFFFFFFFFFFFFFFFFFFFFFFFFFFFFFFFFFFFFFF AND DUP2 MSTORE PUSH1 0x20 ADD SWAP1 DUP2 MSTORE PUSH1 0x20 ADD PUSH1 0x0 KECCAK256 PUSH1 0x0 ADD PUSH1 0x0 DUP1 DUP3 ADD PUSH1 0x0 PUSH2 0xF60 SWAP2 SWAP1 PUSH2 0x2811 JUMP JUMPDEST PUSH1 0x1 DUP3 ADD PUSH1 0x0 PUSH2 0xF70 SWAP2 SWAP1 PUSH2 0x2811 JUMP JUMPDEST PUSH1 0x2 DUP3 ADD PUSH1 0x0 PUSH2 0x100 EXP DUP2 SLOAD SWAP1 PUSH20 0xFFFFFFFFFFFFFFFFFFFFFFFFFFFFFFFFFFFFFFFF MUL NOT AND SWAP1 SSTORE PUSH1 0x3 DUP3 ADD PUSH1 0x0 PUSH2 0xFA7 SWAP2 SWAP1 PUSH2 0x2811 JUMP JUMPDEST PUSH1 0x4 DUP3 ADD PUSH1 0x0 PUSH2 0xFB7 SWAP2 SWAP1 PUSH2 0x2811 JUMP JUMPDEST PUSH1 0x5 DUP3 ADD PUSH1 0x0 PUSH2 0xFC7 SWAP2 SWAP1 PUSH2 0x2811 JUMP JUMPDEST PUSH1 0x6 DUP3 ADD PUSH1 0x0 PUSH2 0xFD7 SWAP2 SWAP1 PUSH2 0x2811 JUMP JUMPDEST PUSH1 0x7 DUP3 ADD PUSH1 0x0 SWAP1 SSTORE POP POP JUMP JUMPDEST PUSH1 0x0 PUSH1 0x20 MSTORE DUP1 PUSH1 0x0 MSTORE PUSH1 0x40 PUSH1 0x0 KECCAK256 PUSH1 0x0 SWAP2 POP SWAP1 POP DUP1 PUSH1 0x0 ADD PUSH1 0x40 MLOAD DUP1 PUSH2 0x100 ADD PUSH1 0x40 MSTORE SWAP1 DUP2 PUSH1 0x0 DUP3 ADD DUP1 SLOAD PUSH2 0x1017 SWAP1 PUSH2 0x377E JUMP JUMPDEST DUP1 PUSH1 0x1F ADD PUSH1 0x20 DUP1 SWAP2 DIV MUL PUSH1 0x20 ADD PUSH1 0x40 MLOAD SWAP1 DUP2 ADD PUSH1 0x40 MSTORE DUP1 SWAP3 SWAP2 SWAP1 DUP2 DUP2 MSTORE PUSH1 0x20 ADD DUP3 DUP1 SLOAD PUSH2 0x1043 SWAP1 PUSH2 0x377E JUMP JUMPDEST DUP1 ISZERO PUSH2 0x1090 JUMPI DUP1 PUSH1 0x1F LT PUSH2 0x1065 JUMPI PUSH2 0x100 DUP1 DUP4 SLOAD DIV MUL DUP4 MSTORE SWAP2 PUSH1 0x20 ADD SWAP2 PUSH2 0x1090 JUMP JUMPDEST DUP3 ADD SWAP2 SWAP1 PUSH1 0x0 MSTORE PUSH1 0x20 PUSH1 0x0 KECCAK256 SWAP1 JUMPDEST DUP2 SLOAD DUP2 MSTORE SWAP1 PUSH1 0x1 ADD SWAP1 PUSH1 0x20 ADD DUP1 DUP4 GT PUSH2 0x1073 JUMPI DUP3 SWAP1 SUB PUSH1 0x1F AND DUP3 ADD SWAP2 JUMPDEST POP POP POP POP POP DUP2 MSTORE PUSH1 0x20 ADD PUSH1 0x1 DUP3 ADD DUP1 SLOAD PUSH2 0x10A9 SWAP1 PUSH2 0x377E JUMP JUMPDEST DUP1 PUSH1 0x1F ADD PUSH1 0x20 DUP1 SWAP2 DIV MUL PUSH1 0x20 ADD PUSH1 0x40 MLOAD SWAP1 DUP2 ADD PUSH1 0x40 MSTORE DUP1 SWAP3 SWAP2 SWAP1 DUP2 DUP2 MSTORE PUSH1 0x20 ADD DUP3 DUP1 SLOAD PUSH2 0x10D5 SWAP1 PUSH2 0x377E JUMP JUMPDEST DUP1 ISZERO PUSH2 0x1122 JUMPI DUP1 PUSH1 0x1F LT PUSH2 0x10F7 JUMPI PUSH2 0x100 DUP1 DUP4 SLOAD DIV MUL DUP4 MSTORE SWAP2 PUSH1 0x20 ADD SWAP2 PUSH2 0x1122 JUMP JUMPDEST DUP3 ADD SWAP2 SWAP1 PUSH1 0x0 MSTORE PUSH1 0x20 PUSH1 0x0 KECCAK256 SWAP1 JUMPDEST DUP2 SLOAD DUP2 MSTORE SWAP1 PUSH1 0x1 ADD SWAP1 PUSH1 0x20 ADD DUP1 DUP4 GT PUSH2 0x1105 JUMPI DUP3 SWAP1 SUB PUSH1 0x1F AND DUP3 ADD SWAP2 JUMPDEST POP POP POP POP POP DUP2 MSTORE PUSH1 0x20 ADD PUSH1 0x2 DUP3 ADD PUSH1 0x0 SWAP1 SLOAD SWAP1 PUSH2 0x100 EXP SWAP1 DIV PUSH20 0xFFFFFFFFFFFFFFFFFFFFFFFFFFFFFFFFFFFFFFFF AND PUSH20 0xFFFFFFFFFFFFFFFFFFFFFFFFFFFFFFFFFFFFFFFF AND PUSH20 0xFFFFFFFFFFFFFFFFFFFFFFFFFFFFFFFFFFFFFFFF AND DUP2 MSTORE PUSH1 0x20 ADD PUSH1 0x3 DUP3 ADD DUP1 SLOAD PUSH2 0x1191 SWAP1 PUSH2 0x377E JUMP JUMPDEST DUP1 PUSH1 0x1F ADD PUSH1 0x20 DUP1 SWAP2 DIV MUL PUSH1 0x20 ADD PUSH1 0x40 MLOAD SWAP1 DUP2 ADD PUSH1 0x40 MSTORE DUP1 SWAP3 SWAP2 SWAP1 DUP2 DUP2 MSTORE PUSH1 0x20 ADD DUP3 DUP1 SLOAD PUSH2 0x11BD SWAP1 PUSH2 0x377E JUMP JUMPDEST DUP1 ISZERO PUSH2 0x120A JUMPI DUP1 PUSH1 0x1F LT PUSH2 0x11DF JUMPI PUSH2 0x100 DUP1 DUP4 SLOAD DIV MUL DUP4 MSTORE SWAP2 PUSH1 0x20 ADD SWAP2 PUSH2 0x120A JUMP JUMPDEST DUP3 ADD SWAP2 SWAP1 PUSH1 0x0 MSTORE PUSH1 0x20 PUSH1 0x0 KECCAK256 SWAP1 JUMPDEST DUP2 SLOAD DUP2 MSTORE SWAP1 PUSH1 0x1 ADD SWAP1 PUSH1 0x20 ADD DUP1 DUP4 GT PUSH2 0x11ED JUMPI DUP3 SWAP1 SUB PUSH1 0x1F AND DUP3 ADD SWAP2 JUMPDEST POP POP POP POP POP DUP2 MSTORE PUSH1 0x20 ADD PUSH1 0x4 DUP3 ADD DUP1 SLOAD PUSH2 0x1223 SWAP1 PUSH2 0x377E JUMP JUMPDEST DUP1 PUSH1 0x1F ADD PUSH1 0x20 DUP1 SWAP2 DIV MUL PUSH1 0x20 ADD PUSH1 0x40 MLOAD SWAP1 DUP2 ADD PUSH1 0x40 MSTORE DUP1 SWAP3 SWAP2 SWAP1 DUP2 DUP2 MSTORE PUSH1 0x20 ADD DUP3 DUP1 SLOAD PUSH2 0x124F SWAP1 PUSH2 0x377E JUMP JUMPDEST DUP1 ISZERO PUSH2 0x129C JUMPI DUP1 PUSH1 0x1F LT PUSH2 0x1271 JUMPI PUSH2 0x100 DUP1 DUP4 SLOAD DIV MUL DUP4 MSTORE SWAP2 PUSH1 0x20 ADD SWAP2 PUSH2 0x129C JUMP JUMPDEST DUP3 ADD SWAP2 SWAP1 PUSH1 0x0 MSTORE PUSH1 0x20 PUSH1 0x0 KECCAK256 SWAP1 JUMPDEST DUP2 SLOAD DUP2 MSTORE SWAP1 PUSH1 0x1 ADD SWAP1 PUSH1 0x20 ADD DUP1 DUP4 GT PUSH2 0x127F JUMPI DUP3 SWAP1 SUB PUSH1 0x1F AND DUP3 ADD SWAP2 JUMPDEST POP POP POP POP POP DUP2 MSTORE PUSH1 0x20 ADD PUSH1 0x5 DUP3 ADD DUP1 SLOAD PUSH2 0x12B5 SWAP1 PUSH2 0x377E JUMP JUMPDEST DUP1 PUSH1 0x1F ADD PUSH1 0x20 DUP1 SWAP2 DIV MUL PUSH1 0x20 ADD PUSH1 0x40 MLOAD SWAP1 DUP2 ADD PUSH1 0x40 MSTORE DUP1 SWAP3 SWAP2 SWAP1 DUP2 DUP2 MSTORE PUSH1 0x20 ADD DUP3 DUP1 SLOAD PUSH2 0x12E1 SWAP1 PUSH2 0x377E JUMP JUMPDEST DUP1 ISZERO PUSH2 0x132E JUMPI DUP1 PUSH1 0x1F LT PUSH2 0x1303 JUMPI PUSH2 0x100 DUP1 DUP4 SLOAD DIV MUL DUP4 MSTORE SWAP2 PUSH1 0x20 ADD SWAP2 PUSH2 0x132E JUMP JUMPDEST DUP3 ADD SWAP2 SWAP1 PUSH1 0x0 MSTORE PUSH1 0x20 PUSH1 0x0 KECCAK256 SWAP1 JUMPDEST DUP2 SLOAD DUP2 MSTORE SWAP1 PUSH1 0x1 ADD SWAP1 PUSH1 0x20 ADD DUP1 DUP4 GT PUSH2 0x1311 JUMPI DUP3 SWAP1 SUB PUSH1 0x1F AND DUP3 ADD SWAP2 JUMPDEST POP POP POP POP POP DUP2 MSTORE PUSH1 0x20 ADD PUSH1 0x6 DUP3 ADD DUP1 SLOAD PUSH2 0x1347 SWAP1 PUSH2 0x377E JUMP JUMPDEST DUP1 PUSH1 0x1F ADD PUSH1 0x20 DUP1 SWAP2 DIV MUL PUSH1 0x20 ADD PUSH1 0x40 MLOAD SWAP1 DUP2 ADD PUSH1 0x40 MSTORE DUP1 SWAP3 SWAP2 SWAP1 DUP2 DUP2 MSTORE PUSH1 0x20 ADD DUP3 DUP1 SLOAD PUSH2 0x1373 SWAP1 PUSH2 0x377E JUMP JUMPDEST DUP1 ISZERO PUSH2 0x13C0 JUMPI DUP1 PUSH1 0x1F LT PUSH2 0x1395 JUMPI PUSH2 0x100 DUP1 DUP4 SLOAD DIV MUL DUP4 MSTORE SWAP2 PUSH1 0x20 ADD SWAP2 PUSH2 0x13C0 JUMP JUMPDEST DUP3 ADD SWAP2 SWAP1 PUSH1 0x0 MSTORE PUSH1 0x20 PUSH1 0x0 KECCAK256 SWAP1 JUMPDEST DUP2 SLOAD DUP2 MSTORE SWAP1 PUSH1 0x1 ADD SWAP1 PUSH1 0x20 ADD DUP1 DUP4 GT PUSH2 0x13A3 JUMPI DUP3 SWAP1 SUB PUSH1 0x1F AND DUP3 ADD SWAP2 JUMPDEST POP POP POP POP POP DUP2 MSTORE PUSH1 0x20 ADD PUSH1 0x7 DUP3 ADD SLOAD DUP2 MSTORE POP POP SWAP1 DUP1 PUSH1 0x8 ADD PUSH1 0x40 MLOAD DUP1 PUSH1 0xC0 ADD PUSH1 0x40 MSTORE SWAP1 DUP2 PUSH1 0x0 DUP3 ADD DUP1 SLOAD PUSH2 0x13F3 SWAP1 PUSH2 0x377E JUMP JUMPDEST DUP1 PUSH1 0x1F ADD PUSH1 0x20 DUP1 SWAP2 DIV MUL PUSH1 0x20 ADD PUSH1 0x40 MLOAD SWAP1 DUP2 ADD PUSH1 0x40 MSTORE DUP1 SWAP3 SWAP2 SWAP1 DUP2 DUP2 MSTORE PUSH1 0x20 ADD DUP3 DUP1 SLOAD PUSH2 0x141F SWAP1 PUSH2 0x377E JUMP JUMPDEST DUP1 ISZERO PUSH2 0x146C JUMPI DUP1 PUSH1 0x1F LT PUSH2 0x1441 JUMPI PUSH2 0x100 DUP1 DUP4 SLOAD DIV MUL DUP4 MSTORE SWAP2 PUSH1 0x20 ADD SWAP2 PUSH2 0x146C JUMP JUMPDEST DUP3 ADD SWAP2 SWAP1 PUSH1 0x0 MSTORE PUSH1 0x20 PUSH1 0x0 KECCAK256 SWAP1 JUMPDEST DUP2 SLOAD DUP2 MSTORE SWAP1 PUSH1 0x1 ADD SWAP1 PUSH1 0x20 ADD DUP1 DUP4 GT PUSH2 0x144F JUMPI DUP3 SWAP1 SUB PUSH1 0x1F AND DUP3 ADD SWAP2 JUMPDEST POP POP POP POP POP DUP2 MSTORE PUSH1 0x20 ADD PUSH1 0x1 DUP3 ADD DUP1 SLOAD PUSH2 0x1485 SWAP1 PUSH2 0x377E JUMP JUMPDEST DUP1 PUSH1 0x1F ADD PUSH1 0x20 DUP1 SWAP2 DIV MUL PUSH1 0x20 ADD PUSH1 0x40 MLOAD SWAP1 DUP2 ADD PUSH1 0x40 MSTORE DUP1 SWAP3 SWAP2 SWAP1 DUP2 DUP2 MSTORE PUSH1 0x20 ADD DUP3 DUP1 SLOAD PUSH2 0x14B1 SWAP1 PUSH2 0x377E JUMP JUMPDEST DUP1 ISZERO PUSH2 0x14FE JUMPI DUP1 PUSH1 0x1F LT PUSH2 0x14D3 JUMPI PUSH2 0x100 DUP1 DUP4 SLOAD DIV MUL DUP4 MSTORE SWAP2 PUSH1 0x20 ADD SWAP2 PUSH2 0x14FE JUMP JUMPDEST DUP3 ADD SWAP2 SWAP1 PUSH1 0x0 MSTORE PUSH1 0x20 PUSH1 0x0 KECCAK256 SWAP1 JUMPDEST DUP2 SLOAD DUP2 MSTORE SWAP1 PUSH1 0x1 ADD SWAP1 PUSH1 0x20 ADD DUP1 DUP4 GT PUSH2 0x14E1 JUMPI DUP3 SWAP1 SUB PUSH1 0x1F AND DUP3 ADD SWAP2 JUMPDEST POP POP POP POP POP DUP2 MSTORE PUSH1 0x20 ADD PUSH1 0x2 DUP3 ADD DUP1 SLOAD PUSH2 0x1517 SWAP1 PUSH2 0x377E JUMP JUMPDEST DUP1 PUSH1 0x1F ADD PUSH1 0x20 DUP1 SWAP2 DIV MUL PUSH1 0x20 ADD PUSH1 0x40 MLOAD SWAP1 DUP2 ADD PUSH1 0x40 MSTORE DUP1 SWAP3 SWAP2 SWAP1 DUP2 DUP2 MSTORE PUSH1 0x20 ADD DUP3 DUP1 SLOAD PUSH2 0x1543 SWAP1 PUSH2 0x377E JUMP JUMPDEST DUP1 ISZERO PUSH2 0x1590 JUMPI DUP1 PUSH1 0x1F LT PUSH2 0x1565 JUMPI PUSH2 0x100 DUP1 DUP4 SLOAD DIV MUL DUP4 MSTORE SWAP2 PUSH1 0x20 ADD SWAP2 PUSH2 0x1590 JUMP JUMPDEST DUP3 ADD SWAP2 SWAP1 PUSH1 0x0 MSTORE PUSH1 0x20 PUSH1 0x0 KECCAK256 SWAP1 JUMPDEST DUP2 SLOAD DUP2 MSTORE SWAP1 PUSH1 0x1 ADD SWAP1 PUSH1 0x20 ADD DUP1 DUP4 GT PUSH2 0x1573 JUMPI DUP3 SWAP1 SUB PUSH1 0x1F AND DUP3 ADD SWAP2 JUMPDEST POP POP POP POP POP DUP2 MSTORE PUSH1 0x20 ADD PUSH1 0x3 DUP3 ADD DUP1 SLOAD PUSH2 0x15A9 SWAP1 PUSH2 0x377E JUMP JUMPDEST DUP1 PUSH1 0x1F ADD PUSH1 0x20 DUP1 SWAP2 DIV MUL PUSH1 0x20 ADD PUSH1 0x40 MLOAD SWAP1 DUP2 ADD PUSH1 0x40 MSTORE DUP1 SWAP3 SWAP2 SWAP1 DUP2 DUP2 MSTORE PUSH1 0x20 ADD DUP3 DUP1 SLOAD PUSH2 0x15D5 SWAP1 PUSH2 0x377E JUMP JUMPDEST DUP1 ISZERO PUSH2 0x1622 JUMPI DUP1 PUSH1 0x1F LT PUSH2 0x15F7 JUMPI PUSH2 0x100 DUP1 DUP4 SLOAD DIV MUL DUP4 MSTORE SWAP2 PUSH1 0x20 ADD SWAP2 PUSH2 0x1622 JUMP JUMPDEST DUP3 ADD SWAP2 SWAP1 PUSH1 0x0 MSTORE PUSH1 0x20 PUSH1 0x0 KECCAK256 SWAP1 JUMPDEST DUP2 SLOAD DUP2 MSTORE SWAP1 PUSH1 0x1 ADD SWAP1 PUSH1 0x20 ADD DUP1 DUP4 GT PUSH2 0x1605 JUMPI DUP3 SWAP1 SUB PUSH1 0x1F AND DUP3 ADD SWAP2 JUMPDEST POP POP POP POP POP DUP2 MSTORE PUSH1 0x20 ADD PUSH1 0x4 DUP3 ADD DUP1 SLOAD PUSH2 0x163B SWAP1 PUSH2 0x377E JUMP JUMPDEST DUP1 PUSH1 0x1F ADD PUSH1 0x20 DUP1 SWAP2 DIV MUL PUSH1 0x20 ADD PUSH1 0x40 MLOAD SWAP1 DUP2 ADD PUSH1 0x40 MSTORE DUP1 SWAP3 SWAP2 SWAP1 DUP2 DUP2 MSTORE PUSH1 0x20 ADD DUP3 DUP1 SLOAD PUSH2 0x1667 SWAP1 PUSH2 0x377E JUMP JUMPDEST DUP1 ISZERO PUSH2 0x16B4 JUMPI DUP1 PUSH1 0x1F LT PUSH2 0x1689 JUMPI PUSH2 0x100 DUP1 DUP4 SLOAD DIV MUL DUP4 MSTORE SWAP2 PUSH1 0x20 ADD SWAP2 PUSH2 0x16B4 JUMP JUMPDEST DUP3 ADD SWAP2 SWAP1 PUSH1 0x0 MSTORE PUSH1 0x20 PUSH1 0x0 KECCAK256 SWAP1 JUMPDEST DUP2 SLOAD DUP2 MSTORE SWAP1 PUSH1 0x1 ADD SWAP1 PUSH1 0x20 ADD DUP1 DUP4 GT PUSH2 0x1697 JUMPI DUP3 SWAP1 SUB PUSH1 0x1F AND DUP3 ADD SWAP2 JUMPDEST POP POP POP POP POP DUP2 MSTORE PUSH1 0x20 ADD PUSH1 0x5 DUP3 ADD DUP1 SLOAD PUSH2 0x16CD SWAP1 PUSH2 0x377E JUMP JUMPDEST DUP1 PUSH1 0x1F ADD PUSH1 0x20 DUP1 SWAP2 DIV MUL PUSH1 0x20 ADD PUSH1 0x40 MLOAD SWAP1 DUP2 ADD PUSH1 0x40 MSTORE DUP1 SWAP3 SWAP2 SWAP1 DUP2 DUP2 MSTORE PUSH1 0x20 ADD DUP3 DUP1 SLOAD PUSH2 0x16F9 SWAP1 PUSH2 0x377E JUMP JUMPDEST DUP1 ISZERO PUSH2 0x1746 JUMPI DUP1 PUSH1 0x1F LT PUSH2 0x171B JUMPI PUSH2 0x100 DUP1 DUP4 SLOAD DIV MUL DUP4 MSTORE SWAP2 PUSH1 0x20 ADD SWAP2 PUSH2 0x1746 JUMP JUMPDEST DUP3 ADD SWAP2 SWAP1 PUSH1 0x0 MSTORE PUSH1 0x20 PUSH1 0x0 KECCAK256 SWAP1 JUMPDEST DUP2 SLOAD DUP2 MSTORE SWAP1 PUSH1 0x1 ADD SWAP1 PUSH1 0x20 ADD DUP1 DUP4 GT PUSH2 0x1729 JUMPI DUP3 SWAP1 SUB PUSH1 0x1F AND DUP3 ADD SWAP2 JUMPDEST POP POP POP POP POP DUP2 MSTORE POP POP SWAP1 DUP1 PUSH1 0xE ADD PUSH1 0x40 MLOAD DUP1 PUSH1 0x60 ADD PUSH1 0x40 MSTORE SWAP1 DUP2 PUSH1 0x0 DUP3 ADD DUP1 SLOAD DUP1 PUSH1 0x20 MUL PUSH1 0x20 ADD PUSH1 0x40 MLOAD SWAP1 DUP2 ADD PUSH1 0x40 MSTORE DUP1 SWAP3 SWAP2 SWAP1 DUP2 DUP2 MSTORE PUSH1 0x20 ADD PUSH1 0x0 SWAP1 JUMPDEST DUP3 DUP3 LT ISZERO PUSH2 0x1830 JUMPI DUP4 DUP3 SWAP1 PUSH1 0x0 MSTORE PUSH1 0x20 PUSH1 0x0 KECCAK256 ADD DUP1 SLOAD PUSH2 0x17A3 SWAP1 PUSH2 0x377E JUMP JUMPDEST DUP1 PUSH1 0x1F ADD PUSH1 0x20 DUP1 SWAP2 DIV MUL PUSH1 0x20 ADD PUSH1 0x40 MLOAD SWAP1 DUP2 ADD PUSH1 0x40 MSTORE DUP1 SWAP3 SWAP2 SWAP1 DUP2 DUP2 MSTORE PUSH1 0x20 ADD DUP3 DUP1 SLOAD PUSH2 0x17CF SWAP1 PUSH2 0x377E JUMP JUMPDEST DUP1 ISZERO PUSH2 0x181C JUMPI DUP1 PUSH1 0x1F LT PUSH2 0x17F1 JUMPI PUSH2 0x100 DUP1 DUP4 SLOAD DIV MUL DUP4 MSTORE SWAP2 PUSH1 0x20 ADD SWAP2 PUSH2 0x181C JUMP JUMPDEST DUP3 ADD SWAP2 SWAP1 PUSH1 0x0 MSTORE PUSH1 0x20 PUSH1 0x0 KECCAK256 SWAP1 JUMPDEST DUP2 SLOAD DUP2 MSTORE SWAP1 PUSH1 0x1 ADD SWAP1 PUSH1 0x20 ADD DUP1 DUP4 GT PUSH2 0x17FF JUMPI DUP3 SWAP1 SUB PUSH1 0x1F AND DUP3 ADD SWAP2 JUMPDEST POP POP POP POP POP DUP2 MSTORE PUSH1 0x20 ADD SWAP1 PUSH1 0x1 ADD SWAP1 PUSH2 0x1784 JUMP JUMPDEST POP POP POP POP DUP2 MSTORE PUSH1 0x20 ADD PUSH1 0x1 DUP3 ADD DUP1 SLOAD DUP1 PUSH1 0x20 MUL PUSH1 0x20 ADD PUSH1 0x40 MLOAD SWAP1 DUP2 ADD PUSH1 0x40 MSTORE DUP1 SWAP3 SWAP2 SWAP1 DUP2 DUP2 MSTORE PUSH1 0x20 ADD PUSH1 0x0 SWAP1 JUMPDEST DUP3 DUP3 LT ISZERO PUSH2 0x1909 JUMPI DUP4 DUP3 SWAP1 PUSH1 0x0 MSTORE PUSH1 0x20 PUSH1 0x0 KECCAK256 ADD DUP1 SLOAD PUSH2 0x187C SWAP1 PUSH2 0x377E JUMP JUMPDEST DUP1 PUSH1 0x1F ADD PUSH1 0x20 DUP1 SWAP2 DIV MUL PUSH1 0x20 ADD PUSH1 0x40 MLOAD SWAP1 DUP2 ADD PUSH1 0x40 MSTORE DUP1 SWAP3 SWAP2 SWAP1 DUP2 DUP2 MSTORE PUSH1 0x20 ADD DUP3 DUP1 SLOAD PUSH2 0x18A8 SWAP1 PUSH2 0x377E JUMP JUMPDEST DUP1 ISZERO PUSH2 0x18F5 JUMPI DUP1 PUSH1 0x1F LT PUSH2 0x18CA JUMPI PUSH2 0x100 DUP1 DUP4 SLOAD DIV MUL DUP4 MSTORE SWAP2 PUSH1 0x20 ADD SWAP2 PUSH2 0x18F5 JUMP JUMPDEST DUP3 ADD SWAP2 SWAP1 PUSH1 0x0 MSTORE PUSH1 0x20 PUSH1 0x0 KECCAK256 SWAP1 JUMPDEST DUP2 SLOAD DUP2 MSTORE SWAP1 PUSH1 0x1 ADD SWAP1 PUSH1 0x20 ADD DUP1 DUP4 GT PUSH2 0x18D8 JUMPI DUP3 SWAP1 SUB PUSH1 0x1F AND DUP3 ADD SWAP2 JUMPDEST POP POP POP POP POP DUP2 MSTORE PUSH1 0x20 ADD SWAP1 PUSH1 0x1 ADD SWAP1 PUSH2 0x185D JUMP JUMPDEST POP POP POP POP DUP2 MSTORE PUSH1 0x20 ADD PUSH1 0x2 DUP3 ADD DUP1 SLOAD DUP1 PUSH1 0x20 MUL PUSH1 0x20 ADD PUSH1 0x40 MLOAD SWAP1 DUP2 ADD PUSH1 0x40 MSTORE DUP1 SWAP3 SWAP2 SWAP1 DUP2 DUP2 MSTORE PUSH1 0x20 ADD PUSH1 0x0 SWAP1 JUMPDEST DUP3 DUP3 LT ISZERO PUSH2 0x19E2 JUMPI DUP4 DUP3 SWAP1 PUSH1 0x0 MSTORE PUSH1 0x20 PUSH1 0x0 KECCAK256 ADD DUP1 SLOAD PUSH2 0x1955 SWAP1 PUSH2 0x377E JUMP JUMPDEST DUP1 PUSH1 0x1F ADD PUSH1 0x20 DUP1 SWAP2 DIV MUL PUSH1 0x20 ADD PUSH1 0x40 MLOAD SWAP1 DUP2 ADD PUSH1 0x40 MSTORE DUP1 SWAP3 SWAP2 SWAP1 DUP2 DUP2 MSTORE PUSH1 0x20 ADD DUP3 DUP1 SLOAD PUSH2 0x1981 SWAP1 PUSH2 0x377E JUMP JUMPDEST DUP1 ISZERO PUSH2 0x19CE JUMPI DUP1 PUSH1 0x1F LT PUSH2 0x19A3 JUMPI PUSH2 0x100 DUP1 DUP4 SLOAD DIV MUL DUP4 MSTORE SWAP2 PUSH1 0x20 ADD SWAP2 PUSH2 0x19CE JUMP JUMPDEST DUP3 ADD SWAP2 SWAP1 PUSH1 0x0 MSTORE PUSH1 0x20 PUSH1 0x0 KECCAK256 SWAP1 JUMPDEST DUP2 SLOAD DUP2 MSTORE SWAP1 PUSH1 0x1 ADD SWAP1 PUSH1 0x20 ADD DUP1 DUP4 GT PUSH2 0x19B1 JUMPI DUP3 SWAP1 SUB PUSH1 0x1F AND DUP3 ADD SWAP2 JUMPDEST POP POP POP POP POP DUP2 MSTORE PUSH1 0x20 ADD SWAP1 PUSH1 0x1 ADD SWAP1 PUSH2 0x1936 JUMP JUMPDEST POP POP POP POP DUP2 MSTORE POP POP SWAP1 DUP1 PUSH1 0x12 ADD PUSH1 0x40 MLOAD DUP1 PUSH1 0x40 ADD PUSH1 0x40 MSTORE SWAP1 DUP2 PUSH1 0x0 DUP3 ADD DUP1 SLOAD DUP1 PUSH1 0x20 MUL PUSH1 0x20 ADD PUSH1 0x40 MLOAD SWAP1 DUP2 ADD PUSH1 0x40 MSTORE DUP1 SWAP3 SWAP2 SWAP1 DUP2 DUP2 MSTORE PUSH1 0x20 ADD PUSH1 0x0 SWAP1 JUMPDEST DUP3 DUP3 LT ISZERO PUSH2 0x1ACB JUMPI DUP4 DUP3 SWAP1 PUSH1 0x0 MSTORE PUSH1 0x20 PUSH1 0x0 KECCAK256 ADD DUP1 SLOAD PUSH2 0x1A3E SWAP1 PUSH2 0x377E JUMP JUMPDEST DUP1 PUSH1 0x1F ADD PUSH1 0x20 DUP1 SWAP2 DIV MUL PUSH1 0x20 ADD PUSH1 0x40 MLOAD SWAP1 DUP2 ADD PUSH1 0x40 MSTORE DUP1 SWAP3 SWAP2 SWAP1 DUP2 DUP2 MSTORE PUSH1 0x20 ADD DUP3 DUP1 SLOAD PUSH2 0x1A6A SWAP1 PUSH2 0x377E JUMP JUMPDEST DUP1 ISZERO PUSH2 0x1AB7 JUMPI DUP1 PUSH1 0x1F LT PUSH2 0x1A8C JUMPI PUSH2 0x100 DUP1 DUP4 SLOAD DIV MUL DUP4 MSTORE SWAP2 PUSH1 0x20 ADD SWAP2 PUSH2 0x1AB7 JUMP JUMPDEST DUP3 ADD SWAP2 SWAP1 PUSH1 0x0 MSTORE PUSH1 0x20 PUSH1 0x0 KECCAK256 SWAP1 JUMPDEST DUP2 SLOAD DUP2 MSTORE SWAP1 PUSH1 0x1 ADD SWAP1 PUSH1 0x20 ADD DUP1 DUP4 GT PUSH2 0x1A9A JUMPI DUP3 SWAP1 SUB PUSH1 0x1F AND DUP3 ADD SWAP2 JUMPDEST POP POP POP POP POP DUP2 MSTORE PUSH1 0x20 ADD SWAP1 PUSH1 0x1 ADD SWAP1 PUSH2 0x1A1F JUMP JUMPDEST POP POP POP POP DUP2 MSTORE PUSH1 0x20 ADD PUSH1 0x1 DUP3 ADD DUP1 SLOAD DUP1 PUSH1 0x20 MUL PUSH1 0x20 ADD PUSH1 0x40 MLOAD SWAP1 DUP2 ADD PUSH1 0x40 MSTORE DUP1 SWAP3 SWAP2 SWAP1 DUP2 DUP2 MSTORE PUSH1 0x20 ADD PUSH1 0x0 SWAP1 JUMPDEST DUP3 DUP3 LT ISZERO PUSH2 0x1BA4 JUMPI DUP4 DUP3 SWAP1 PUSH1 0x0 MSTORE PUSH1 0x20 PUSH1 0x0 KECCAK256 ADD DUP1 SLOAD PUSH2 0x1B17 SWAP1 PUSH2 0x377E JUMP JUMPDEST DUP1 PUSH1 0x1F ADD PUSH1 0x20 DUP1 SWAP2 DIV MUL PUSH1 0x20 ADD PUSH1 0x40 MLOAD SWAP1 DUP2 ADD PUSH1 0x40 MSTORE DUP1 SWAP3 SWAP2 SWAP1 DUP2 DUP2 MSTORE PUSH1 0x20 ADD DUP3 DUP1 SLOAD PUSH2 0x1B43 SWAP1 PUSH2 0x377E JUMP JUMPDEST DUP1 ISZERO PUSH2 0x1B90 JUMPI DUP1 PUSH1 0x1F LT PUSH2 0x1B65 JUMPI PUSH2 0x100 DUP1 DUP4 SLOAD DIV MUL DUP4 MSTORE SWAP2 PUSH1 0x20 ADD SWAP2 PUSH2 0x1B90 JUMP JUMPDEST DUP3 ADD SWAP2 SWAP1 PUSH1 0x0 MSTORE PUSH1 0x20 PUSH1 0x0 KECCAK256 SWAP1 JUMPDEST DUP2 SLOAD DUP2 MSTORE SWAP1 PUSH1 0x1 ADD SWAP1 PUSH1 0x20 ADD DUP1 DUP4 GT PUSH2 0x1B73 JUMPI DUP3 SWAP1 SUB PUSH1 0x1F AND DUP3 ADD SWAP2 JUMPDEST POP POP POP POP POP DUP2 MSTORE PUSH1 0x20 ADD SWAP1 PUSH1 0x1 ADD SWAP1 PUSH2 0x1AF8 JUMP JUMPDEST POP POP POP POP DUP2 MSTORE POP POP SWAP1 DUP1 PUSH1 0x14 ADD PUSH1 0x40 MLOAD DUP1 PUSH1 0xA0 ADD PUSH1 0x40 MSTORE SWAP1 DUP2 PUSH1 0x0 DUP3 ADD DUP1 SLOAD PUSH2 0x1BCC SWAP1 PUSH2 0x377E JUMP JUMPDEST DUP1 PUSH1 0x1F ADD PUSH1 0x20 DUP1 SWAP2 DIV MUL PUSH1 0x20 ADD PUSH1 0x40 MLOAD SWAP1 DUP2 ADD PUSH1 0x40 MSTORE DUP1 SWAP3 SWAP2 SWAP1 DUP2 DUP2 MSTORE PUSH1 0x20 ADD DUP3 DUP1 SLOAD PUSH2 0x1BF8 SWAP1 PUSH2 0x377E JUMP JUMPDEST DUP1 ISZERO PUSH2 0x1C45 JUMPI DUP1 PUSH1 0x1F LT PUSH2 0x1C1A JUMPI PUSH2 0x100 DUP1 DUP4 SLOAD DIV MUL DUP4 MSTORE SWAP2 PUSH1 0x20 ADD SWAP2 PUSH2 0x1C45 JUMP JUMPDEST DUP3 ADD SWAP2 SWAP1 PUSH1 0x0 MSTORE PUSH1 0x20 PUSH1 0x0 KECCAK256 SWAP1 JUMPDEST DUP2 SLOAD DUP2 MSTORE SWAP1 PUSH1 0x1 ADD SWAP1 PUSH1 0x20 ADD DUP1 DUP4 GT PUSH2 0x1C28 JUMPI DUP3 SWAP1 SUB PUSH1 0x1F AND DUP3 ADD SWAP2 JUMPDEST POP POP POP POP POP DUP2 MSTORE PUSH1 0x20 ADD PUSH1 0x1 DUP3 ADD DUP1 SLOAD PUSH2 0x1C5E SWAP1 PUSH2 0x377E JUMP JUMPDEST DUP1 PUSH1 0x1F ADD PUSH1 0x20 DUP1 SWAP2 DIV MUL PUSH1 0x20 ADD PUSH1 0x40 MLOAD SWAP1 DUP2 ADD PUSH1 0x40 MSTORE DUP1 SWAP3 SWAP2 SWAP1 DUP2 DUP2 MSTORE PUSH1 0x20 ADD DUP3 DUP1 SLOAD PUSH2 0x1C8A SWAP1 PUSH2 0x377E JUMP JUMPDEST DUP1 ISZERO PUSH2 0x1CD7 JUMPI DUP1 PUSH1 0x1F LT PUSH2 0x1CAC JUMPI PUSH2 0x100 DUP1 DUP4 SLOAD DIV MUL DUP4 MSTORE SWAP2 PUSH1 0x20 ADD SWAP2 PUSH2 0x1CD7 JUMP JUMPDEST DUP3 ADD SWAP2 SWAP1 PUSH1 0x0 MSTORE PUSH1 0x20 PUSH1 0x0 KECCAK256 SWAP1 JUMPDEST DUP2 SLOAD DUP2 MSTORE SWAP1 PUSH1 0x1 ADD SWAP1 PUSH1 0x20 ADD DUP1 DUP4 GT PUSH2 0x1CBA JUMPI DUP3 SWAP1 SUB PUSH1 0x1F AND DUP3 ADD SWAP2 JUMPDEST POP POP POP POP POP DUP2 MSTORE PUSH1 0x20 ADD PUSH1 0x2 DUP3 ADD DUP1 SLOAD PUSH2 0x1CF0 SWAP1 PUSH2 0x377E JUMP JUMPDEST DUP1 PUSH1 0x1F ADD PUSH1 0x20 DUP1 SWAP2 DIV MUL PUSH1 0x20 ADD PUSH1 0x40 MLOAD SWAP1 DUP2 ADD PUSH1 0x40 MSTORE DUP1 SWAP3 SWAP2 SWAP1 DUP2 DUP2 MSTORE PUSH1 0x20 ADD DUP3 DUP1 SLOAD PUSH2 0x1D1C SWAP1 PUSH2 0x377E JUMP JUMPDEST DUP1 ISZERO PUSH2 0x1D69 JUMPI DUP1 PUSH1 0x1F LT PUSH2 0x1D3E JUMPI PUSH2 0x100 DUP1 DUP4 SLOAD DIV MUL DUP4 MSTORE SWAP2 PUSH1 0x20 ADD SWAP2 PUSH2 0x1D69 JUMP JUMPDEST DUP3 ADD SWAP2 SWAP1 PUSH1 0x0 MSTORE PUSH1 0x20 PUSH1 0x0 KECCAK256 SWAP1 JUMPDEST DUP2 SLOAD DUP2 MSTORE SWAP1 PUSH1 0x1 ADD SWAP1 PUSH1 0x20 ADD DUP1 DUP4 GT PUSH2 0x1D4C JUMPI DUP3 SWAP1 SUB PUSH1 0x1F AND DUP3 ADD SWAP2 JUMPDEST POP POP POP POP POP DUP2 MSTORE PUSH1 0x20 ADD PUSH1 0x3 DUP3 ADD DUP1 SLOAD PUSH2 0x1D82 SWAP1 PUSH2 0x377E JUMP JUMPDEST DUP1 PUSH1 0x1F ADD PUSH1 0x20 DUP1 SWAP2 DIV MUL PUSH1 0x20 ADD PUSH1 0x40 MLOAD SWAP1 DUP2 ADD PUSH1 0x40 MSTORE DUP1 SWAP3 SWAP2 SWAP1 DUP2 DUP2 MSTORE PUSH1 0x20 ADD DUP3 DUP1 SLOAD PUSH2 0x1DAE SWAP1 PUSH2 0x377E JUMP JUMPDEST DUP1 ISZERO PUSH2 0x1DFB JUMPI DUP1 PUSH1 0x1F LT PUSH2 0x1DD0 JUMPI PUSH2 0x100 DUP1 DUP4 SLOAD DIV MUL DUP4 MSTORE SWAP2 PUSH1 0x20 ADD SWAP2 PUSH2 0x1DFB JUMP JUMPDEST DUP3 ADD SWAP2 SWAP1 PUSH1 0x0 MSTORE PUSH1 0x20 PUSH1 0x0 KECCAK256 SWAP1 JUMPDEST DUP2 SLOAD DUP2 MSTORE SWAP1 PUSH1 0x1 ADD SWAP1 PUSH1 0x20 ADD DUP1 DUP4 GT PUSH2 0x1DDE JUMPI DUP3 SWAP1 SUB PUSH1 0x1F AND DUP3 ADD SWAP2 JUMPDEST POP POP POP POP POP DUP2 MSTORE PUSH1 0x20 ADD PUSH1 0x4 DUP3 ADD DUP1 SLOAD DUP1 PUSH1 0x20 MUL PUSH1 0x20 ADD PUSH1 0x40 MLOAD SWAP1 DUP2 ADD PUSH1 0x40 MSTORE DUP1 SWAP3 SWAP2 SWAP1 DUP2 DUP2 MSTORE PUSH1 0x20 ADD PUSH1 0x0 SWAP1 JUMPDEST DUP3 DUP3 LT ISZERO PUSH2 0x1ED5 JUMPI DUP4 DUP3 SWAP1 PUSH1 0x0 MSTORE PUSH1 0x20 PUSH1 0x0 KECCAK256 ADD DUP1 SLOAD PUSH2 0x1E48 SWAP1 PUSH2 0x377E JUMP JUMPDEST DUP1 PUSH1 0x1F ADD PUSH1 0x20 DUP1 SWAP2 DIV MUL PUSH1 0x20 ADD PUSH1 0x40 MLOAD SWAP1 DUP2 ADD PUSH1 0x40 MSTORE DUP1 SWAP3 SWAP2 SWAP1 DUP2 DUP2 MSTORE PUSH1 0x20 ADD DUP3 DUP1 SLOAD PUSH2 0x1E74 SWAP1 PUSH2 0x377E JUMP JUMPDEST DUP1 ISZERO PUSH2 0x1EC1 JUMPI DUP1 PUSH1 0x1F LT PUSH2 0x1E96 JUMPI PUSH2 0x100 DUP1 DUP4 SLOAD DIV MUL DUP4 MSTORE SWAP2 PUSH1 0x20 ADD SWAP2 PUSH2 0x1EC1 JUMP JUMPDEST DUP3 ADD SWAP2 SWAP1 PUSH1 0x0 MSTORE PUSH1 0x20 PUSH1 0x0 KECCAK256 SWAP1 JUMPDEST DUP2 SLOAD DUP2 MSTORE SWAP1 PUSH1 0x1 ADD SWAP1 PUSH1 0x20 ADD DUP1 DUP4 GT PUSH2 0x1EA4 JUMPI DUP3 SWAP1 SUB PUSH1 0x1F AND DUP3 ADD SWAP2 JUMPDEST POP POP POP POP POP DUP2 MSTORE PUSH1 0x20 ADD SWAP1 PUSH1 0x1 ADD SWAP1 PUSH2 0x1E29 JUMP JUMPDEST POP POP POP POP DUP2 MSTORE POP POP SWAP1 DUP1 PUSH1 0x19 ADD PUSH1 0x40 MLOAD DUP1 PUSH1 0x40 ADD PUSH1 0x40 MSTORE SWAP1 DUP2 PUSH1 0x0 DUP3 ADD DUP1 SLOAD PUSH2 0x1EFD SWAP1 PUSH2 0x377E JUMP JUMPDEST DUP1 PUSH1 0x1F ADD PUSH1 0x20 DUP1 SWAP2 DIV MUL PUSH1 0x20 ADD PUSH1 0x40 MLOAD SWAP1 DUP2 ADD PUSH1 0x40 MSTORE DUP1 SWAP3 SWAP2 SWAP1 DUP2 DUP2 MSTORE PUSH1 0x20 ADD DUP3 DUP1 SLOAD PUSH2 0x1F29 SWAP1 PUSH2 0x377E JUMP JUMPDEST DUP1 ISZERO PUSH2 0x1F76 JUMPI DUP1 PUSH1 0x1F LT PUSH2 0x1F4B JUMPI PUSH2 0x100 DUP1 DUP4 SLOAD DIV MUL DUP4 MSTORE SWAP2 PUSH1 0x20 ADD SWAP2 PUSH2 0x1F76 JUMP JUMPDEST DUP3 ADD SWAP2 SWAP1 PUSH1 0x0 MSTORE PUSH1 0x20 PUSH1 0x0 KECCAK256 SWAP1 JUMPDEST DUP2 SLOAD DUP2 MSTORE SWAP1 PUSH1 0x1 ADD SWAP1 PUSH1 0x20 ADD DUP1 DUP4 GT PUSH2 0x1F59 JUMPI DUP3 SWAP1 SUB PUSH1 0x1F AND DUP3 ADD SWAP2 JUMPDEST POP POP POP POP POP DUP2 MSTORE PUSH1 0x20 ADD PUSH1 0x1 DUP3 ADD DUP1 SLOAD PUSH2 0x1F8F SWAP1 PUSH2 0x377E JUMP JUMPDEST DUP1 PUSH1 0x1F ADD PUSH1 0x20 DUP1 SWAP2 DIV MUL PUSH1 0x20 ADD PUSH1 0x40 MLOAD SWAP1 DUP2 ADD PUSH1 0x40 MSTORE DUP1 SWAP3 SWAP2 SWAP1 DUP2 DUP2 MSTORE PUSH1 0x20 ADD DUP3 DUP1 SLOAD PUSH2 0x1FBB SWAP1 PUSH2 0x377E JUMP JUMPDEST DUP1 ISZERO PUSH2 0x2008 JUMPI DUP1 PUSH1 0x1F LT PUSH2 0x1FDD JUMPI PUSH2 0x100 DUP1 DUP4 SLOAD DIV MUL DUP4 MSTORE SWAP2 PUSH1 0x20 ADD SWAP2 PUSH2 0x2008 JUMP JUMPDEST DUP3 ADD SWAP2 SWAP1 PUSH1 0x0 MSTORE PUSH1 0x20 PUSH1 0x0 KECCAK256 SWAP1 JUMPDEST DUP2 SLOAD DUP2 MSTORE SWAP1 PUSH1 0x1 ADD SWAP1 PUSH1 0x20 ADD DUP1 DUP4 GT PUSH2 0x1FEB JUMPI DUP3 SWAP1 SUB PUSH1 0x1F AND DUP3 ADD SWAP2 JUMPDEST POP POP POP POP POP DUP2 MSTORE POP POP SWAP1 POP DUP7 JUMP JUMPDEST PUSH1 0x0 DUP1 CALLER PUSH20 0xFFFFFFFFFFFFFFFFFFFFFFFFFFFFFFFFFFFFFFFF AND PUSH20 0xFFFFFFFFFFFFFFFFFFFFFFFFFFFFFFFFFFFFFFFF AND DUP2 MSTORE PUSH1 0x20 ADD SWAP1 DUP2 MSTORE PUSH1 0x20 ADD PUSH1 0x0 KECCAK256 PUSH1 0x14 ADD PUSH1 0x0 DUP1 DUP3 ADD PUSH1 0x0 PUSH2 0x2068 SWAP2 SWAP1 PUSH2 0x2811 JUMP JUMPDEST PUSH1 0x1 DUP3 ADD PUSH1 0x0 PUSH2 0x2078 SWAP2 SWAP1 PUSH2 0x2811 JUMP JUMPDEST PUSH1 0x2 DUP3 ADD PUSH1 0x0 PUSH2 0x2088 SWAP2 SWAP1 PUSH2 0x2811 JUMP JUMPDEST PUSH1 0x3 DUP3 ADD PUSH1 0x0 PUSH2 0x2098 SWAP2 SWAP1 PUSH2 0x2811 JUMP JUMPDEST PUSH1 0x4 DUP3 ADD PUSH1 0x0 PUSH2 0x20A8 SWAP2 SWAP1 PUSH2 0x2937 JUMP JUMPDEST POP POP JUMP JUMPDEST PUSH1 0x0 CALLER PUSH20 0xFFFFFFFFFFFFFFFFFFFFFFFFFFFFFFFFFFFFFFFF AND BALANCE SWAP1 POP SWAP1 JUMP JUMPDEST PUSH1 0x0 DUP1 CALLER PUSH20 0xFFFFFFFFFFFFFFFFFFFFFFFFFFFFFFFFFFFFFFFF AND PUSH20 0xFFFFFFFFFFFFFFFFFFFFFFFFFFFFFFFFFFFFFFFF AND DUP2 MSTORE PUSH1 0x20 ADD SWAP1 DUP2 MSTORE PUSH1 0x20 ADD PUSH1 0x0 KECCAK256 PUSH1 0x11 ADD PUSH1 0x0 PUSH2 0x2118 SWAP2 SWAP1 PUSH2 0x2987 JUMP JUMPDEST JUMP JUMPDEST PUSH1 0x60 DUP1 PUSH1 0x60 DUP1 PUSH1 0x60 PUSH1 0x0 DUP1 CALLER PUSH20 0xFFFFFFFFFFFFFFFFFFFFFFFFFFFFFFFFFFFFFFFF AND PUSH20 0xFFFFFFFFFFFFFFFFFFFFFFFFFFFFFFFFFFFFFFFF AND DUP2 MSTORE PUSH1 0x20 ADD SWAP1 DUP2 MSTORE PUSH1 0x20 ADD PUSH1 0x0 KECCAK256 PUSH1 0x11 ADD DUP7 DUP2 SLOAD DUP2 LT PUSH2 0x2175 JUMPI PUSH2 0x2174 PUSH2 0x3810 JUMP JUMPDEST JUMPDEST SWAP1 PUSH1 0x0 MSTORE PUSH1 0x20 PUSH1 0x0 KECCAK256 SWAP1 PUSH1 0x5 MUL ADD PUSH1 0x0 ADD PUSH1 0x0 DUP1 CALLER PUSH20 0xFFFFFFFFFFFFFFFFFFFFFFFFFFFFFFFFFFFFFFFF AND PUSH20 0xFFFFFFFFFFFFFFFFFFFFFFFFFFFFFFFFFFFFFFFF AND DUP2 MSTORE PUSH1 0x20 ADD SWAP1 DUP2 MSTORE PUSH1 0x20 ADD PUSH1 0x0 KECCAK256 PUSH1 0x11 ADD DUP8 DUP2 SLOAD DUP2 LT PUSH2 0x21D9 JUMPI PUSH2 0x21D8 PUSH2 0x3810 JUMP JUMPDEST JUMPDEST SWAP1 PUSH1 0x0 MSTORE PUSH1 0x20 PUSH1 0x0 KECCAK256 SWAP1 PUSH1 0x5 MUL ADD PUSH1 0x1 ADD PUSH1 0x0 DUP1 CALLER PUSH20 0xFFFFFFFFFFFFFFFFFFFFFFFFFFFFFFFFFFFFFFFF AND PUSH20 0xFFFFFFFFFFFFFFFFFFFFFFFFFFFFFFFFFFFFFFFF AND DUP2 MSTORE PUSH1 0x20 ADD SWAP1 DUP2 MSTORE PUSH1 0x20 ADD PUSH1 0x0 KECCAK256 PUSH1 0x11 ADD DUP9 DUP2 SLOAD DUP2 LT PUSH2 0x223D JUMPI PUSH2 0x223C PUSH2 0x3810 JUMP JUMPDEST JUMPDEST SWAP1 PUSH1 0x0 MSTORE PUSH1 0x20 PUSH1 0x0 KECCAK256 SWAP1 PUSH1 0x5 MUL ADD PUSH1 0x2 ADD PUSH1 0x0 DUP1 CALLER PUSH20 0xFFFFFFFFFFFFFFFFFFFFFFFFFFFFFFFFFFFFFFFF AND PUSH20 0xFFFFFFFFFFFFFFFFFFFFFFFFFFFFFFFFFFFFFFFF AND DUP2 MSTORE PUSH1 0x20 ADD SWAP1 DUP2 MSTORE PUSH1 0x20 ADD PUSH1 0x0 KECCAK256 PUSH1 0x11 ADD DUP10 DUP2 SLOAD DUP2 LT PUSH2 0x22A1 JUMPI PUSH2 0x22A0 PUSH2 0x3810 JUMP JUMPDEST JUMPDEST SWAP1 PUSH1 0x0 MSTORE PUSH1 0x20 PUSH1 0x0 KECCAK256 SWAP1 PUSH1 0x5 MUL ADD PUSH1 0x3 ADD PUSH1 0x0 DUP1 CALLER PUSH20 0xFFFFFFFFFFFFFFFFFFFFFFFFFFFFFFFFFFFFFFFF AND PUSH20 0xFFFFFFFFFFFFFFFFFFFFFFFFFFFFFFFFFFFFFFFF AND DUP2 MSTORE PUSH1 0x20 ADD SWAP1 DUP2 MSTORE PUSH1 0x20 ADD PUSH1 0x0 KECCAK256 PUSH1 0x11 ADD DUP11 DUP2 SLOAD DUP2 LT PUSH2 0x2305 JUMPI PUSH2 0x2304 PUSH2 0x3810 JUMP JUMPDEST JUMPDEST SWAP1 PUSH1 0x0 MSTORE PUSH1 0x20 PUSH1 0x0 KECCAK256 SWAP1 PUSH1 0x5 MUL ADD PUSH1 0x4 ADD DUP5 DUP1 SLOAD PUSH2 0x2322 SWAP1 PUSH2 0x377E JUMP JUMPDEST DUP1 PUSH1 0x1F ADD PUSH1 0x20 DUP1 SWAP2 DIV MUL PUSH1 0x20 ADD PUSH1 0x40 MLOAD SWAP1 DUP2 ADD PUSH1 0x40 MSTORE DUP1 SWAP3 SWAP2 SWAP1 DUP2 DUP2 MSTORE PUSH1 0x20 ADD DUP3 DUP1 SLOAD PUSH2 0x234E SWAP1 PUSH2 0x377E JUMP JUMPDEST DUP1 ISZERO PUSH2 0x239B JUMPI DUP1 PUSH1 0x1F LT PUSH2 0x2370 JUMPI PUSH2 0x100 DUP1 DUP4 SLOAD DIV MUL DUP4 MSTORE SWAP2 PUSH1 0x20 ADD SWAP2 PUSH2 0x239B JUMP JUMPDEST DUP3 ADD SWAP2 SWAP1 PUSH1 0x0 MSTORE PUSH1 0x20 PUSH1 0x0 KECCAK256 SWAP1 JUMPDEST DUP2 SLOAD DUP2 MSTORE SWAP1 PUSH1 0x1 ADD SWAP1 PUSH1 0x20 ADD DUP1 DUP4 GT PUSH2 0x237E JUMPI DUP3 SWAP1 SUB PUSH1 0x1F AND DUP3 ADD SWAP2 JUMPDEST POP POP POP POP POP SWAP5 POP DUP4 DUP1 SLOAD PUSH2 0x23AE SWAP1 PUSH2 0x377E JUMP JUMPDEST DUP1 PUSH1 0x1F ADD PUSH1 0x20 DUP1 SWAP2 DIV MUL PUSH1 0x20 ADD PUSH1 0x40 MLOAD SWAP1 DUP2 ADD PUSH1 0x40 MSTORE DUP1 SWAP3 SWAP2 SWAP1 DUP2 DUP2 MSTORE PUSH1 0x20 ADD DUP3 DUP1 SLOAD PUSH2 0x23DA SWAP1 PUSH2 0x377E JUMP JUMPDEST DUP1 ISZERO PUSH2 0x2427 JUMPI DUP1 PUSH1 0x1F LT PUSH2 0x23FC JUMPI PUSH2 0x100 DUP1 DUP4 SLOAD DIV MUL DUP4 MSTORE SWAP2 PUSH1 0x20 ADD SWAP2 PUSH2 0x2427 JUMP JUMPDEST DUP3 ADD SWAP2 SWAP1 PUSH1 0x0 MSTORE PUSH1 0x20 PUSH1 0x0 KECCAK256 SWAP1 JUMPDEST DUP2 SLOAD DUP2 MSTORE SWAP1 PUSH1 0x1 ADD SWAP1 PUSH1 0x20 ADD DUP1 DUP4 GT PUSH2 0x240A JUMPI DUP3 SWAP1 SUB PUSH1 0x1F AND DUP3 ADD SWAP2 JUMPDEST POP POP POP POP POP SWAP4 POP DUP3 DUP1 SLOAD PUSH2 0x243A SWAP1 PUSH2 0x377E JUMP JUMPDEST DUP1 PUSH1 0x1F ADD PUSH1 0x20 DUP1 SWAP2 DIV MUL PUSH1 0x20 ADD PUSH1 0x40 MLOAD SWAP1 DUP2 ADD PUSH1 0x40 MSTORE DUP1 SWAP3 SWAP2 SWAP1 DUP2 DUP2 MSTORE PUSH1 0x20 ADD DUP3 DUP1 SLOAD PUSH2 0x2466 SWAP1 PUSH2 0x377E JUMP JUMPDEST DUP1 ISZERO PUSH2 0x24B3 JUMPI DUP1 PUSH1 0x1F LT PUSH2 0x2488 JUMPI PUSH2 0x100 DUP1 DUP4 SLOAD DIV MUL DUP4 MSTORE SWAP2 PUSH1 0x20 ADD SWAP2 PUSH2 0x24B3 JUMP JUMPDEST DUP3 ADD SWAP2 SWAP1 PUSH1 0x0 MSTORE PUSH1 0x20 PUSH1 0x0 KECCAK256 SWAP1 JUMPDEST DUP2 SLOAD DUP2 MSTORE SWAP1 PUSH1 0x1 ADD SWAP1 PUSH1 0x20 ADD DUP1 DUP4 GT PUSH2 0x2496 JUMPI DUP3 SWAP1 SUB PUSH1 0x1F AND DUP3 ADD SWAP2 JUMPDEST POP POP POP POP POP SWAP3 POP DUP2 DUP1 SLOAD PUSH2 0x24C6 SWAP1 PUSH2 0x377E JUMP JUMPDEST DUP1 PUSH1 0x1F ADD PUSH1 0x20 DUP1 SWAP2 DIV MUL PUSH1 0x20 ADD PUSH1 0x40 MLOAD SWAP1 DUP2 ADD PUSH1 0x40 MSTORE DUP1 SWAP3 SWAP2 SWAP1 DUP2 DUP2 MSTORE PUSH1 0x20 ADD DUP3 DUP1 SLOAD PUSH2 0x24F2 SWAP1 PUSH2 0x377E JUMP JUMPDEST DUP1 ISZERO PUSH2 0x253F JUMPI DUP1 PUSH1 0x1F LT PUSH2 0x2514 JUMPI PUSH2 0x100 DUP1 DUP4 SLOAD DIV MUL DUP4 MSTORE SWAP2 PUSH1 0x20 ADD SWAP2 PUSH2 0x253F JUMP JUMPDEST DUP3 ADD SWAP2 SWAP1 PUSH1 0x0 MSTORE PUSH1 0x20 PUSH1 0x0 KECCAK256 SWAP1 JUMPDEST DUP2 SLOAD DUP2 MSTORE SWAP1 PUSH1 0x1 ADD SWAP1 PUSH1 0x20 ADD DUP1 DUP4 GT PUSH2 0x2522 JUMPI DUP3 SWAP1 SUB PUSH1 0x1F AND DUP3 ADD SWAP2 JUMPDEST POP POP POP POP POP SWAP2 POP DUP1 DUP1 SLOAD PUSH2 0x2552 SWAP1 PUSH2 0x377E JUMP JUMPDEST DUP1 PUSH1 0x1F ADD PUSH1 0x20 DUP1 SWAP2 DIV MUL PUSH1 0x20 ADD PUSH1 0x40 MLOAD SWAP1 DUP2 ADD PUSH1 0x40 MSTORE DUP1 SWAP3 SWAP2 SWAP1 DUP2 DUP2 MSTORE PUSH1 0x20 ADD DUP3 DUP1 SLOAD PUSH2 0x257E SWAP1 PUSH2 0x377E JUMP JUMPDEST DUP1 ISZERO PUSH2 0x25CB JUMPI DUP1 PUSH1 0x1F LT PUSH2 0x25A0 JUMPI PUSH2 0x100 DUP1 DUP4 SLOAD DIV MUL DUP4 MSTORE SWAP2 PUSH1 0x20 ADD SWAP2 PUSH2 0x25CB JUMP JUMPDEST DUP3 ADD SWAP2 SWAP1 PUSH1 0x0 MSTORE PUSH1 0x20 PUSH1 0x0 KECCAK256 SWAP1 JUMPDEST DUP2 SLOAD DUP2 MSTORE SWAP1 PUSH1 0x1 ADD SWAP1 PUSH1 0x20 ADD DUP1 DUP4 GT PUSH2 0x25AE JUMPI DUP3 SWAP1 SUB PUSH1 0x1F AND DUP3 ADD SWAP2 JUMPDEST POP POP POP POP POP SWAP1 POP SWAP5 POP SWAP5 POP SWAP5 POP SWAP5 POP SWAP5 POP SWAP2 SWAP4 SWAP6 SWAP1 SWAP3 SWAP5 POP JUMP JUMPDEST PUSH1 0x0 DUP1 CALLER PUSH20 0xFFFFFFFFFFFFFFFFFFFFFFFFFFFFFFFFFFFFFFFF AND PUSH20 0xFFFFFFFFFFFFFFFFFFFFFFFFFFFFFFFFFFFFFFFF AND DUP2 MSTORE PUSH1 0x20 ADD SWAP1 DUP2 MSTORE PUSH1 0x20 ADD PUSH1 0x0 KECCAK256 PUSH1 0x0 DUP1 DUP3 ADD PUSH1 0x0 DUP1 DUP3 ADD PUSH1 0x0 PUSH2 0x2639 SWAP2 SWAP1 PUSH2 0x2811 JUMP JUMPDEST PUSH1 0x1 DUP3 ADD PUSH1 0x0 PUSH2 0x2649 SWAP2 SWAP1 PUSH2 0x2811 JUMP JUMPDEST PUSH1 0x2 DUP3 ADD PUSH1 0x0 PUSH2 0x100 EXP DUP2 SLOAD SWAP1 PUSH20 0xFFFFFFFFFFFFFFFFFFFFFFFFFFFFFFFFFFFFFFFF MUL NOT AND SWAP1 SSTORE PUSH1 0x3 DUP3 ADD PUSH1 0x0 PUSH2 0x2680 SWAP2 SWAP1 PUSH2 0x2811 JUMP JUMPDEST PUSH1 0x4 DUP3 ADD PUSH1 0x0 PUSH2 0x2690 SWAP2 SWAP1 PUSH2 0x2811 JUMP JUMPDEST PUSH1 0x5 DUP3 ADD PUSH1 0x0 PUSH2 0x26A0 SWAP2 SWAP1 PUSH2 0x2811 JUMP JUMPDEST PUSH1 0x6 DUP3 ADD PUSH1 0x0 PUSH2 0x26B0 SWAP2 SWAP1 PUSH2 0x2811 JUMP JUMPDEST PUSH1 0x7 DUP3 ADD PUSH1 0x0 SWAP1 SSTORE POP POP PUSH1 0x8 DUP3 ADD PUSH1 0x0 DUP1 DUP3 ADD PUSH1 0x0 PUSH2 0x26CF SWAP2 SWAP1 PUSH2 0x2811 JUMP JUMPDEST PUSH1 0x1 DUP3 ADD PUSH1 0x0 PUSH2 0x26DF SWAP2 SWAP1 PUSH2 0x2811 JUMP JUMPDEST PUSH1 0x2 DUP3 ADD PUSH1 0x0 PUSH2 0x26EF SWAP2 SWAP1 PUSH2 0x2811 JUMP JUMPDEST PUSH1 0x3 DUP3 ADD PUSH1 0x0 PUSH2 0x26FF SWAP2 SWAP1 PUSH2 0x2811 JUMP JUMPDEST PUSH1 0x4 DUP3 ADD PUSH1 0x0 PUSH2 0x270F SWAP2 SWAP1 PUSH2 0x2811 JUMP JUMPDEST PUSH1 0x5 DUP3 ADD PUSH1 0x0 PUSH2 0x271F SWAP2 SWAP1 PUSH2 0x2811 JUMP JUMPDEST POP POP PUSH1 0xE DUP3 ADD PUSH1 0x0 DUP1 DUP3 ADD PUSH1 0x0 PUSH2 0x2736 SWAP2 SWAP1 PUSH2 0x2937 JUMP JUMPDEST PUSH1 0x1 DUP3 ADD PUSH1 0x0 PUSH2 0x2746 SWAP2 SWAP1 PUSH2 0x2937 JUMP JUMPDEST PUSH1 0x2 DUP3 ADD PUSH1 0x0 PUSH2 0x2756 SWAP2 SWAP1 PUSH2 0x2937 JUMP JUMPDEST POP POP PUSH1 0x11 DUP3 ADD PUSH1 0x0 PUSH2 0x2768 SWAP2 SWAP1 PUSH2 0x2987 JUMP JUMPDEST PUSH1 0x12 DUP3 ADD PUSH1 0x0 DUP1 DUP3 ADD PUSH1 0x0 PUSH2 0x277D SWAP2 SWAP1 PUSH2 0x2937 JUMP JUMPDEST PUSH1 0x1 DUP3 ADD PUSH1 0x0 PUSH2 0x278D SWAP2 SWAP1 PUSH2 0x2937 JUMP JUMPDEST POP POP PUSH1 0x14 DUP3 ADD PUSH1 0x0 DUP1 DUP3 ADD PUSH1 0x0 PUSH2 0x27A4 SWAP2 SWAP1 PUSH2 0x2811 JUMP JUMPDEST PUSH1 0x1 DUP3 ADD PUSH1 0x0 PUSH2 0x27B4 SWAP2 SWAP1 PUSH2 0x2811 JUMP JUMPDEST PUSH1 0x2 DUP3 ADD PUSH1 0x0 PUSH2 0x27C4 SWAP2 SWAP1 PUSH2 0x2811 JUMP JUMPDEST PUSH1 0x3 DUP3 ADD PUSH1 0x0 PUSH2 0x27D4 SWAP2 SWAP1 PUSH2 0x2811 JUMP JUMPDEST PUSH1 0x4 DUP3 ADD PUSH1 0x0 PUSH2 0x27E4 SWAP2 SWAP1 PUSH2 0x2937 JUMP JUMPDEST POP POP PUSH1 0x19 DUP3 ADD PUSH1 0x0 DUP1 DUP3 ADD PUSH1 0x0 PUSH2 0x27FB SWAP2 SWAP1 PUSH2 0x2811 JUMP JUMPDEST PUSH1 0x1 DUP3 ADD PUSH1 0x0 PUSH2 0x280B SWAP2 SWAP1 PUSH2 0x2811 JUMP JUMPDEST POP POP POP POP JUMP JUMPDEST POP DUP1 SLOAD PUSH2 0x281D SWAP1 PUSH2 0x377E JUMP JUMPDEST PUSH1 0x0 DUP3 SSTORE DUP1 PUSH1 0x1F LT PUSH2 0x282F JUMPI POP PUSH2 0x284E JUMP JUMPDEST PUSH1 0x1F ADD PUSH1 0x20 SWAP1 DIV SWAP1 PUSH1 0x0 MSTORE PUSH1 0x20 PUSH1 0x0 KECCAK256 SWAP1 DUP2 ADD SWAP1 PUSH2 0x284D SWAP2 SWAP1 PUSH2 0x29AB JUMP JUMPDEST JUMPDEST POP JUMP JUMPDEST DUP3 DUP1 SLOAD PUSH2 0x285D SWAP1 PUSH2 0x377E JUMP JUMPDEST SWAP1 PUSH1 0x0 MSTORE PUSH1 0x20 PUSH1 0x0 KECCAK256 SWAP1 PUSH1 0x1F ADD PUSH1 0x20 SWAP1 DIV DUP2 ADD SWAP3 DUP3 PUSH2 0x287F JUMPI PUSH1 0x0 DUP6 SSTORE PUSH2 0x28C6 JUMP JUMPDEST DUP3 PUSH1 0x1F LT PUSH2 0x2898 JUMPI DUP1 MLOAD PUSH1 0xFF NOT AND DUP4 DUP1 ADD OR DUP6 SSTORE PUSH2 0x28C6 JUMP JUMPDEST DUP3 DUP1 ADD PUSH1 0x1 ADD DUP6 SSTORE DUP3 ISZERO PUSH2 0x28C6 JUMPI SWAP2 DUP3 ADD JUMPDEST DUP3 DUP2 GT ISZERO PUSH2 0x28C5 JUMPI DUP3 MLOAD DUP3 SSTORE SWAP2 PUSH1 0x20 ADD SWAP2 SWAP1 PUSH1 0x1 ADD SWAP1 PUSH2 0x28AA JUMP JUMPDEST JUMPDEST POP SWAP1 POP PUSH2 0x28D3 SWAP2 SWAP1 PUSH2 0x29AB JUMP JUMPDEST POP SWAP1 JUMP JUMPDEST DUP3 DUP1 SLOAD DUP3 DUP3 SSTORE SWAP1 PUSH1 0x0 MSTORE PUSH1 0x20 PUSH1 0x0 KECCAK256 SWAP1 DUP2 ADD SWAP3 DUP3 ISZERO PUSH2 0x2926 JUMPI SWAP2 PUSH1 0x20 MUL DUP3 ADD JUMPDEST DUP3 DUP2 GT ISZERO PUSH2 0x2925 JUMPI DUP3 MLOAD DUP3 SWAP1 DUP1 MLOAD SWAP1 PUSH1 0x20 ADD SWAP1 PUSH2 0x2915 SWAP3 SWAP2 SWAP1 PUSH2 0x2851 JUMP JUMPDEST POP SWAP2 PUSH1 0x20 ADD SWAP2 SWAP1 PUSH1 0x1 ADD SWAP1 PUSH2 0x28F7 JUMP JUMPDEST JUMPDEST POP SWAP1 POP PUSH2 0x2933 SWAP2 SWAP1 PUSH2 0x29C8 JUMP JUMPDEST POP SWAP1 JUMP JUMPDEST POP DUP1 SLOAD PUSH1 0x0 DUP3 SSTORE SWAP1 PUSH1 0x0 MSTORE PUSH1 0x20 PUSH1 0x0 KECCAK256 SWAP1 DUP2 ADD SWAP1 PUSH2 0x2955 SWAP2 SWAP1 PUSH2 0x29C8 JUMP JUMPDEST POP JUMP JUMPDEST PUSH1 0x40 MLOAD DUP1 PUSH1 0xA0 ADD PUSH1 0x40 MSTORE DUP1 PUSH1 0x60 DUP2 MSTORE PUSH1 0x20 ADD PUSH1 0x60 DUP2 MSTORE PUSH1 0x20 ADD PUSH1 0x60 DUP2 MSTORE PUSH1 0x20 ADD PUSH1 0x60 DUP2 MSTORE PUSH1 0x20 ADD PUSH1 0x60 DUP2 MSTORE POP SWAP1 JUMP JUMPDEST POP DUP1 SLOAD PUSH1 0x0 DUP3 SSTORE PUSH1 0x5 MUL SWAP1 PUSH1 0x0 MSTORE PUSH1 0x20 PUSH1 0x0 KECCAK256 SWAP1 DUP2 ADD SWAP1 PUSH2 0x29A8 SWAP2 SWAP1 PUSH2 0x29EC JUMP JUMPDEST POP JUMP JUMPDEST JUMPDEST DUP1 DUP3 GT ISZERO PUSH2 0x29C4 JUMPI PUSH1 0x0 DUP2 PUSH1 0x0 SWAP1 SSTORE POP PUSH1 0x1 ADD PUSH2 0x29AC JUMP JUMPDEST POP SWAP1 JUMP JUMPDEST JUMPDEST DUP1 DUP3 GT ISZERO PUSH2 0x29E8 JUMPI PUSH1 0x0 DUP2 DUP2 PUSH2 0x29DF SWAP2 SWAP1 PUSH2 0x2811 JUMP JUMPDEST POP PUSH1 0x1 ADD PUSH2 0x29C9 JUMP JUMPDEST POP SWAP1 JUMP JUMPDEST JUMPDEST DUP1 DUP3 GT ISZERO PUSH2 0x2A4F JUMPI PUSH1 0x0 DUP1 DUP3 ADD PUSH1 0x0 PUSH2 0x2A06 SWAP2 SWAP1 PUSH2 0x2811 JUMP JUMPDEST PUSH1 0x1 DUP3 ADD PUSH1 0x0 PUSH2 0x2A16 SWAP2 SWAP1 PUSH2 0x2811 JUMP JUMPDEST PUSH1 0x2 DUP3 ADD PUSH1 0x0 PUSH2 0x2A26 SWAP2 SWAP1 PUSH2 0x2811 JUMP JUMPDEST PUSH1 0x3 DUP3 ADD PUSH1 0x0 PUSH2 0x2A36 SWAP2 SWAP1 PUSH2 0x2811 JUMP JUMPDEST PUSH1 0x4 DUP3 ADD PUSH1 0x0 PUSH2 0x2A46 SWAP2 SWAP1 PUSH2 0x2811 JUMP JUMPDEST POP PUSH1 0x5 ADD PUSH2 0x29ED JUMP JUMPDEST POP SWAP1 JUMP JUMPDEST PUSH1 0x0 PUSH2 0x2A66 PUSH2 0x2A61 DUP5 PUSH2 0x363D JUMP JUMPDEST PUSH2 0x3618 JUMP JUMPDEST SWAP1 POP DUP1 DUP4 DUP3 MSTORE PUSH1 0x20 DUP3 ADD SWAP1 POP DUP3 DUP6 PUSH1 0x20 DUP7 MUL DUP3 ADD GT ISZERO PUSH2 0x2A89 JUMPI PUSH2 0x2A88 PUSH2 0x3873 JUMP JUMPDEST JUMPDEST PUSH1 0x0 JUMPDEST DUP6 DUP2 LT ISZERO PUSH2 0x2AD7 JUMPI DUP2 CALLDATALOAD PUSH8 0xFFFFFFFFFFFFFFFF DUP2 GT ISZERO PUSH2 0x2AAF JUMPI PUSH2 0x2AAE PUSH2 0x386E JUMP JUMPDEST JUMPDEST DUP1 DUP7 ADD PUSH2 0x2ABC DUP10 DUP3 PUSH2 0x2B66 JUMP JUMPDEST DUP6 MSTORE PUSH1 0x20 DUP6 ADD SWAP5 POP PUSH1 0x20 DUP5 ADD SWAP4 POP POP POP PUSH1 0x1 DUP2 ADD SWAP1 POP PUSH2 0x2A8C JUMP JUMPDEST POP POP POP SWAP4 SWAP3 POP POP POP JUMP JUMPDEST PUSH1 0x0 PUSH2 0x2AF4 PUSH2 0x2AEF DUP5 PUSH2 0x3669 JUMP JUMPDEST PUSH2 0x3618 JUMP JUMPDEST SWAP1 POP DUP3 DUP2 MSTORE PUSH1 0x20 DUP2 ADD DUP5 DUP5 DUP5 ADD GT ISZERO PUSH2 0x2B10 JUMPI PUSH2 0x2B0F PUSH2 0x3878 JUMP JUMPDEST JUMPDEST PUSH2 0x2B1B DUP5 DUP3 DUP6 PUSH2 0x373C JUMP JUMPDEST POP SWAP4 SWAP3 POP POP POP JUMP JUMPDEST PUSH1 0x0 DUP2 CALLDATALOAD SWAP1 POP PUSH2 0x2B32 DUP2 PUSH2 0x3898 JUMP JUMPDEST SWAP3 SWAP2 POP POP JUMP JUMPDEST PUSH1 0x0 DUP3 PUSH1 0x1F DUP4 ADD SLT PUSH2 0x2B4D JUMPI PUSH2 0x2B4C PUSH2 0x386E JUMP JUMPDEST JUMPDEST DUP2 CALLDATALOAD PUSH2 0x2B5D DUP5 DUP3 PUSH1 0x20 DUP7 ADD PUSH2 0x2A53 JUMP JUMPDEST SWAP2 POP POP SWAP3 SWAP2 POP POP JUMP JUMPDEST PUSH1 0x0 DUP3 PUSH1 0x1F DUP4 ADD SLT PUSH2 0x2B7B JUMPI PUSH2 0x2B7A PUSH2 0x386E JUMP JUMPDEST JUMPDEST DUP2 CALLDATALOAD PUSH2 0x2B8B DUP5 DUP3 PUSH1 0x20 DUP7 ADD PUSH2 0x2AE1 JUMP JUMPDEST SWAP2 POP POP SWAP3 SWAP2 POP POP JUMP JUMPDEST PUSH1 0x0 DUP2 CALLDATALOAD SWAP1 POP PUSH2 0x2BA3 DUP2 PUSH2 0x38AF JUMP JUMPDEST SWAP3 SWAP2 POP POP JUMP JUMPDEST PUSH1 0x0 PUSH1 0x20 DUP3 DUP5 SUB SLT ISZERO PUSH2 0x2BBF JUMPI PUSH2 0x2BBE PUSH2 0x3882 JUMP JUMPDEST JUMPDEST PUSH1 0x0 PUSH2 0x2BCD DUP5 DUP3 DUP6 ADD PUSH2 0x2B23 JUMP JUMPDEST SWAP2 POP POP SWAP3 SWAP2 POP POP JUMP JUMPDEST PUSH1 0x0 DUP1 PUSH1 0x40 DUP4 DUP6 SUB SLT ISZERO PUSH2 0x2BED JUMPI PUSH2 0x2BEC PUSH2 0x3882 JUMP JUMPDEST JUMPDEST PUSH1 0x0 DUP4 ADD CALLDATALOAD PUSH8 0xFFFFFFFFFFFFFFFF DUP2 GT ISZERO PUSH2 0x2C0B JUMPI PUSH2 0x2C0A PUSH2 0x387D JUMP JUMPDEST JUMPDEST PUSH2 0x2C17 DUP6 DUP3 DUP7 ADD PUSH2 0x2B38 JUMP JUMPDEST SWAP3 POP POP PUSH1 0x20 DUP4 ADD CALLDATALOAD PUSH8 0xFFFFFFFFFFFFFFFF DUP2 GT ISZERO PUSH2 0x2C38 JUMPI PUSH2 0x2C37 PUSH2 0x387D JUMP JUMPDEST JUMPDEST PUSH2 0x2C44 DUP6 DUP3 DUP7 ADD PUSH2 0x2B38 JUMP JUMPDEST SWAP2 POP POP SWAP3 POP SWAP3 SWAP1 POP JUMP JUMPDEST PUSH1 0x0 DUP1 PUSH1 0x0 PUSH1 0x60 DUP5 DUP7 SUB SLT ISZERO PUSH2 0x2C67 JUMPI PUSH2 0x2C66 PUSH2 0x3882 JUMP JUMPDEST JUMPDEST PUSH1 0x0 DUP5 ADD CALLDATALOAD PUSH8 0xFFFFFFFFFFFFFFFF DUP2 GT ISZERO PUSH2 0x2C85 JUMPI PUSH2 0x2C84 PUSH2 0x387D JUMP JUMPDEST JUMPDEST PUSH2 0x2C91 DUP7 DUP3 DUP8 ADD PUSH2 0x2B38 JUMP JUMPDEST SWAP4 POP POP PUSH1 0x20 DUP5 ADD CALLDATALOAD PUSH8 0xFFFFFFFFFFFFFFFF DUP2 GT ISZERO PUSH2 0x2CB2 JUMPI PUSH2 0x2CB1 PUSH2 0x387D JUMP JUMPDEST JUMPDEST PUSH2 0x2CBE DUP7 DUP3 DUP8 ADD PUSH2 0x2B38 JUMP JUMPDEST SWAP3 POP POP PUSH1 0x40 DUP5 ADD CALLDATALOAD PUSH8 0xFFFFFFFFFFFFFFFF DUP2 GT ISZERO PUSH2 0x2CDF JUMPI PUSH2 0x2CDE PUSH2 0x387D JUMP JUMPDEST JUMPDEST PUSH2 0x2CEB DUP7 DUP3 DUP8 ADD PUSH2 0x2B38 JUMP JUMPDEST SWAP2 POP POP SWAP3 POP SWAP3 POP SWAP3 JUMP JUMPDEST PUSH1 0x0 DUP1 PUSH1 0x40 DUP4 DUP6 SUB SLT ISZERO PUSH2 0x2D0C JUMPI PUSH2 0x2D0B PUSH2 0x3882 JUMP JUMPDEST JUMPDEST PUSH1 0x0 DUP4 ADD CALLDATALOAD PUSH8 0xFFFFFFFFFFFFFFFF DUP2 GT ISZERO PUSH2 0x2D2A JUMPI PUSH2 0x2D29 PUSH2 0x387D JUMP JUMPDEST JUMPDEST PUSH2 0x2D36 DUP6 DUP3 DUP7 ADD PUSH2 0x2B66 JUMP JUMPDEST SWAP3 POP POP PUSH1 0x20 DUP4 ADD CALLDATALOAD PUSH8 0xFFFFFFFFFFFFFFFF DUP2 GT ISZERO PUSH2 0x2D57 JUMPI PUSH2 0x2D56 PUSH2 0x387D JUMP JUMPDEST JUMPDEST PUSH2 0x2D63 DUP6 DUP3 DUP7 ADD PUSH2 0x2B66 JUMP JUMPDEST SWAP2 POP POP SWAP3 POP SWAP3 SWAP1 POP JUMP JUMPDEST PUSH1 0x0 DUP1 PUSH1 0x0 DUP1 PUSH1 0x0 PUSH1 0xA0 DUP7 DUP9 SUB SLT ISZERO PUSH2 0x2D89 JUMPI PUSH2 0x2D88 PUSH2 0x3882 JUMP JUMPDEST JUMPDEST PUSH1 0x0 DUP7 ADD CALLDATALOAD PUSH8 0xFFFFFFFFFFFFFFFF DUP2 GT ISZERO PUSH2 0x2DA7 JUMPI PUSH2 0x2DA6 PUSH2 0x387D JUMP JUMPDEST JUMPDEST PUSH2 0x2DB3 DUP9 DUP3 DUP10 ADD PUSH2 0x2B66 JUMP JUMPDEST SWAP6 POP POP PUSH1 0x20 DUP7 ADD CALLDATALOAD PUSH8 0xFFFFFFFFFFFFFFFF DUP2 GT ISZERO PUSH2 0x2DD4 JUMPI PUSH2 0x2DD3 PUSH2 0x387D JUMP JUMPDEST JUMPDEST PUSH2 0x2DE0 DUP9 DUP3 DUP10 ADD PUSH2 0x2B66 JUMP JUMPDEST SWAP5 POP POP PUSH1 0x40 DUP7 ADD CALLDATALOAD PUSH8 0xFFFFFFFFFFFFFFFF DUP2 GT ISZERO PUSH2 0x2E01 JUMPI PUSH2 0x2E00 PUSH2 0x387D JUMP JUMPDEST JUMPDEST PUSH2 0x2E0D DUP9 DUP3 DUP10 ADD PUSH2 0x2B66 JUMP JUMPDEST SWAP4 POP POP PUSH1 0x60 DUP7 ADD CALLDATALOAD PUSH8 0xFFFFFFFFFFFFFFFF DUP2 GT ISZERO PUSH2 0x2E2E JUMPI PUSH2 0x2E2D PUSH2 0x387D JUMP JUMPDEST JUMPDEST PUSH2 0x2E3A DUP9 DUP3 DUP10 ADD PUSH2 0x2B66 JUMP JUMPDEST SWAP3 POP POP PUSH1 0x80 DUP7 ADD CALLDATALOAD PUSH8 0xFFFFFFFFFFFFFFFF DUP2 GT ISZERO PUSH2 0x2E5B JUMPI PUSH2 0x2E5A PUSH2 0x387D JUMP JUMPDEST JUMPDEST PUSH2 0x2E67 DUP9 DUP3 DUP10 ADD PUSH2 0x2B38 JUMP JUMPDEST SWAP2 POP POP SWAP3 SWAP6 POP SWAP3 SWAP6 SWAP1 SWAP4 POP JUMP JUMPDEST PUSH1 0x0 DUP1 PUSH1 0x0 DUP1 PUSH1 0x0 PUSH1 0xA0 DUP7 DUP9 SUB SLT ISZERO PUSH2 0x2E90 JUMPI PUSH2 0x2E8F PUSH2 0x3882 JUMP JUMPDEST JUMPDEST PUSH1 0x0 DUP7 ADD CALLDATALOAD PUSH8 0xFFFFFFFFFFFFFFFF DUP2 GT ISZERO PUSH2 0x2EAE JUMPI PUSH2 0x2EAD PUSH2 0x387D JUMP JUMPDEST JUMPDEST PUSH2 0x2EBA DUP9 DUP3 DUP10 ADD PUSH2 0x2B66 JUMP JUMPDEST SWAP6 POP POP PUSH1 0x20 DUP7 ADD CALLDATALOAD PUSH8 0xFFFFFFFFFFFFFFFF DUP2 GT ISZERO PUSH2 0x2EDB JUMPI PUSH2 0x2EDA PUSH2 0x387D JUMP JUMPDEST JUMPDEST PUSH2 0x2EE7 DUP9 DUP3 DUP10 ADD PUSH2 0x2B66 JUMP JUMPDEST SWAP5 POP POP PUSH1 0x40 DUP7 ADD CALLDATALOAD PUSH8 0xFFFFFFFFFFFFFFFF DUP2 GT ISZERO PUSH2 0x2F08 JUMPI PUSH2 0x2F07 PUSH2 0x387D JUMP JUMPDEST JUMPDEST PUSH2 0x2F14 DUP9 DUP3 DUP10 ADD PUSH2 0x2B66 JUMP JUMPDEST SWAP4 POP POP PUSH1 0x60 DUP7 ADD CALLDATALOAD PUSH8 0xFFFFFFFFFFFFFFFF DUP2 GT ISZERO PUSH2 0x2F35 JUMPI PUSH2 0x2F34 PUSH2 0x387D JUMP JUMPDEST JUMPDEST PUSH2 0x2F41 DUP9 DUP3 DUP10 ADD PUSH2 0x2B66 JUMP JUMPDEST SWAP3 POP POP PUSH1 0x80 DUP7 ADD CALLDATALOAD PUSH8 0xFFFFFFFFFFFFFFFF DUP2 GT ISZERO PUSH2 0x2F62 JUMPI PUSH2 0x2F61 PUSH2 0x387D JUMP JUMPDEST JUMPDEST PUSH2 0x2F6E DUP9 DUP3 DUP10 ADD PUSH2 0x2B66 JUMP JUMPDEST SWAP2 POP POP SWAP3 SWAP6 POP SWAP3 SWAP6 SWAP1 SWAP4 POP JUMP JUMPDEST PUSH1 0x0 DUP1 PUSH1 0x0 DUP1 PUSH1 0x0 DUP1 PUSH1 0xC0 DUP8 DUP10 SUB SLT ISZERO PUSH2 0x2F98 JUMPI PUSH2 0x2F97 PUSH2 0x3882 JUMP JUMPDEST JUMPDEST PUSH1 0x0 DUP8 ADD CALLDATALOAD PUSH8 0xFFFFFFFFFFFFFFFF DUP2 GT ISZERO PUSH2 0x2FB6 JUMPI PUSH2 0x2FB5 PUSH2 0x387D JUMP JUMPDEST JUMPDEST PUSH2 0x2FC2 DUP10 DUP3 DUP11 ADD PUSH2 0x2B66 JUMP JUMPDEST SWAP7 POP POP PUSH1 0x20 DUP8 ADD CALLDATALOAD PUSH8 0xFFFFFFFFFFFFFFFF DUP2 GT ISZERO PUSH2 0x2FE3 JUMPI PUSH2 0x2FE2 PUSH2 0x387D JUMP JUMPDEST JUMPDEST PUSH2 0x2FEF DUP10 DUP3 DUP11 ADD PUSH2 0x2B66 JUMP JUMPDEST SWAP6 POP POP PUSH1 0x40 DUP8 ADD CALLDATALOAD PUSH8 0xFFFFFFFFFFFFFFFF DUP2 GT ISZERO PUSH2 0x3010 JUMPI PUSH2 0x300F PUSH2 0x387D JUMP JUMPDEST JUMPDEST PUSH2 0x301C DUP10 DUP3 DUP11 ADD PUSH2 0x2B66 JUMP JUMPDEST SWAP5 POP POP PUSH1 0x60 DUP8 ADD CALLDATALOAD PUSH8 0xFFFFFFFFFFFFFFFF DUP2 GT ISZERO PUSH2 0x303D JUMPI PUSH2 0x303C PUSH2 0x387D JUMP JUMPDEST JUMPDEST PUSH2 0x3049 DUP10 DUP3 DUP11 ADD PUSH2 0x2B66 JUMP JUMPDEST SWAP4 POP POP PUSH1 0x80 DUP8 ADD CALLDATALOAD PUSH8 0xFFFFFFFFFFFFFFFF DUP2 GT ISZERO PUSH2 0x306A JUMPI PUSH2 0x3069 PUSH2 0x387D JUMP JUMPDEST JUMPDEST PUSH2 0x3076 DUP10 DUP3 DUP11 ADD PUSH2 0x2B66 JUMP JUMPDEST SWAP3 POP POP PUSH1 0xA0 DUP8 ADD CALLDATALOAD PUSH8 0xFFFFFFFFFFFFFFFF DUP2 GT ISZERO PUSH2 0x3097 JUMPI PUSH2 0x3096 PUSH2 0x387D JUMP JUMPDEST JUMPDEST PUSH2 0x30A3 DUP10 DUP3 DUP11 ADD PUSH2 0x2B66 JUMP JUMPDEST SWAP2 POP POP SWAP3 SWAP6 POP SWAP3 SWAP6 POP SWAP3 SWAP6 JUMP JUMPDEST PUSH1 0x0 PUSH1 0x20 DUP3 DUP5 SUB SLT ISZERO PUSH2 0x30C6 JUMPI PUSH2 0x30C5 PUSH2 0x3882 JUMP JUMPDEST JUMPDEST PUSH1 0x0 PUSH2 0x30D4 DUP5 DUP3 DUP6 ADD PUSH2 0x2B94 JUMP JUMPDEST SWAP2 POP POP SWAP3 SWAP2 POP POP JUMP JUMPDEST PUSH1 0x0 PUSH2 0x30E9 DUP4 DUP4 PUSH2 0x3175 JUMP JUMPDEST SWAP1 POP SWAP3 SWAP2 POP POP JUMP JUMPDEST PUSH2 0x30FA DUP2 PUSH2 0x3700 JUMP JUMPDEST DUP3 MSTORE POP POP JUMP JUMPDEST PUSH1 0x0 PUSH2 0x310B DUP3 PUSH2 0x36AA JUMP JUMPDEST PUSH2 0x3115 DUP2 DUP6 PUSH2 0x36CD JUMP JUMPDEST SWAP4 POP DUP4 PUSH1 0x20 DUP3 MUL DUP6 ADD PUSH2 0x3127 DUP6 PUSH2 0x369A JUMP JUMPDEST DUP1 PUSH1 0x0 JUMPDEST DUP6 DUP2 LT ISZERO PUSH2 0x3163 JUMPI DUP5 DUP5 SUB DUP10 MSTORE DUP2 MLOAD PUSH2 0x3144 DUP6 DUP3 PUSH2 0x30DD JUMP JUMPDEST SWAP5 POP PUSH2 0x314F DUP4 PUSH2 0x36C0 JUMP JUMPDEST SWAP3 POP PUSH1 0x20 DUP11 ADD SWAP10 POP POP PUSH1 0x1 DUP2 ADD SWAP1 POP PUSH2 0x312B JUMP JUMPDEST POP DUP3 SWAP8 POP DUP8 SWAP6 POP POP POP POP POP POP SWAP3 SWAP2 POP POP JUMP JUMPDEST PUSH1 0x0 PUSH2 0x3180 DUP3 PUSH2 0x36B5 JUMP JUMPDEST PUSH2 0x318A DUP2 DUP6 PUSH2 0x36DE JUMP JUMPDEST SWAP4 POP PUSH2 0x319A DUP2 DUP6 PUSH1 0x20 DUP7 ADD PUSH2 0x374B JUMP JUMPDEST PUSH2 0x31A3 DUP2 PUSH2 0x3887 JUMP JUMPDEST DUP5 ADD SWAP2 POP POP SWAP3 SWAP2 POP POP JUMP JUMPDEST PUSH1 0x0 PUSH2 0x31B9 DUP3 PUSH2 0x36B5 JUMP JUMPDEST PUSH2 0x31C3 DUP2 DUP6 PUSH2 0x36EF JUMP JUMPDEST SWAP4 POP PUSH2 0x31D3 DUP2 DUP6 PUSH1 0x20 DUP7 ADD PUSH2 0x374B JUMP JUMPDEST PUSH2 0x31DC DUP2 PUSH2 0x3887 JUMP JUMPDEST DUP5 ADD SWAP2 POP POP SWAP3 SWAP2 POP POP JUMP JUMPDEST PUSH1 0x0 PUSH1 0x40 DUP4 ADD PUSH1 0x0 DUP4 ADD MLOAD DUP5 DUP3 SUB PUSH1 0x0 DUP7 ADD MSTORE PUSH2 0x3204 DUP3 DUP3 PUSH2 0x3100 JUMP JUMPDEST SWAP2 POP POP PUSH1 0x20 DUP4 ADD MLOAD DUP5 DUP3 SUB PUSH1 0x20 DUP7 ADD MSTORE PUSH2 0x321E DUP3 DUP3 PUSH2 0x3100 JUMP JUMPDEST SWAP2 POP POP DUP1 SWAP2 POP POP SWAP3 SWAP2 POP POP JUMP JUMPDEST PUSH1 0x0 PUSH1 0xA0 DUP4 ADD PUSH1 0x0 DUP4 ADD MLOAD DUP5 DUP3 SUB PUSH1 0x0 DUP7 ADD MSTORE PUSH2 0x3248 DUP3 DUP3 PUSH2 0x3175 JUMP JUMPDEST SWAP2 POP POP PUSH1 0x20 DUP4 ADD MLOAD DUP5 DUP3 SUB PUSH1 0x20 DUP7 ADD MSTORE PUSH2 0x3262 DUP3 DUP3 PUSH2 0x3175 JUMP JUMPDEST SWAP2 POP POP PUSH1 0x40 DUP4 ADD MLOAD DUP5 DUP3 SUB PUSH1 0x40 DUP7 ADD MSTORE PUSH2 0x327C DUP3 DUP3 PUSH2 0x3175 JUMP JUMPDEST SWAP2 POP POP PUSH1 0x60 DUP4 ADD MLOAD DUP5 DUP3 SUB PUSH1 0x60 DUP7 ADD MSTORE PUSH2 0x3296 DUP3 DUP3 PUSH2 0x3175 JUMP JUMPDEST SWAP2 POP POP PUSH1 0x80 DUP4 ADD MLOAD DUP5 DUP3 SUB PUSH1 0x80 DUP7 ADD MSTORE PUSH2 0x32B0 DUP3 DUP3 PUSH2 0x3100 JUMP JUMPDEST SWAP2 POP POP DUP1 SWAP2 POP POP SWAP3 SWAP2 POP POP JUMP JUMPDEST PUSH1 0x0 PUSH1 0xC0 DUP4 ADD PUSH1 0x0 DUP4 ADD MLOAD DUP5 DUP3 SUB PUSH1 0x0 DUP7 ADD MSTORE PUSH2 0x32DA DUP3 DUP3 PUSH2 0x3175 JUMP JUMPDEST SWAP2 POP POP PUSH1 0x20 DUP4 ADD MLOAD DUP5 DUP3 SUB PUSH1 0x20 DUP7 ADD MSTORE PUSH2 0x32F4 DUP3 DUP3 PUSH2 0x3175 JUMP JUMPDEST SWAP2 POP POP PUSH1 0x40 DUP4 ADD MLOAD DUP5 DUP3 SUB PUSH1 0x40 DUP7 ADD MSTORE PUSH2 0x330E DUP3 DUP3 PUSH2 0x3175 JUMP JUMPDEST SWAP2 POP POP PUSH1 0x60 DUP4 ADD MLOAD DUP5 DUP3 SUB PUSH1 0x60 DUP7 ADD MSTORE PUSH2 0x3328 DUP3 DUP3 PUSH2 0x3175 JUMP JUMPDEST SWAP2 POP POP PUSH1 0x80 DUP4 ADD MLOAD DUP5 DUP3 SUB PUSH1 0x80 DUP7 ADD MSTORE PUSH2 0x3342 DUP3 DUP3 PUSH2 0x3175 JUMP JUMPDEST SWAP2 POP POP PUSH1 0xA0 DUP4 ADD MLOAD DUP5 DUP3 SUB PUSH1 0xA0 DUP7 ADD MSTORE PUSH2 0x335C DUP3 DUP3 PUSH2 0x3175 JUMP JUMPDEST SWAP2 POP POP DUP1 SWAP2 POP POP SWAP3 SWAP2 POP POP JUMP JUMPDEST PUSH1 0x0 PUSH1 0x40 DUP4 ADD PUSH1 0x0 DUP4 ADD MLOAD DUP5 DUP3 SUB PUSH1 0x0 DUP7 ADD MSTORE PUSH2 0x3386 DUP3 DUP3 PUSH2 0x3175 JUMP JUMPDEST SWAP2 POP POP PUSH1 0x20 DUP4 ADD MLOAD DUP5 DUP3 SUB PUSH1 0x20 DUP7 ADD MSTORE PUSH2 0x33A0 DUP3 DUP3 PUSH2 0x3175 JUMP JUMPDEST SWAP2 POP POP DUP1 SWAP2 POP POP SWAP3 SWAP2 POP POP JUMP JUMPDEST PUSH1 0x0 PUSH2 0x100 DUP4 ADD PUSH1 0x0 DUP4 ADD MLOAD DUP5 DUP3 SUB PUSH1 0x0 DUP7 ADD MSTORE PUSH2 0x33CB DUP3 DUP3 PUSH2 0x3175 JUMP JUMPDEST SWAP2 POP POP PUSH1 0x20 DUP4 ADD MLOAD DUP5 DUP3 SUB PUSH1 0x20 DUP7 ADD MSTORE PUSH2 0x33E5 DUP3 DUP3 PUSH2 0x3175 JUMP JUMPDEST SWAP2 POP POP PUSH1 0x40 DUP4 ADD MLOAD PUSH2 0x33FA PUSH1 0x40 DUP7 ADD DUP3 PUSH2 0x30F1 JUMP JUMPDEST POP PUSH1 0x60 DUP4 ADD MLOAD DUP5 DUP3 SUB PUSH1 0x60 DUP7 ADD MSTORE PUSH2 0x3412 DUP3 DUP3 PUSH2 0x3175 JUMP JUMPDEST SWAP2 POP POP PUSH1 0x80 DUP4 ADD MLOAD DUP5 DUP3 SUB PUSH1 0x80 DUP7 ADD MSTORE PUSH2 0x342C DUP3 DUP3 PUSH2 0x3175 JUMP JUMPDEST SWAP2 POP POP PUSH1 0xA0 DUP4 ADD MLOAD DUP5 DUP3 SUB PUSH1 0xA0 DUP7 ADD MSTORE PUSH2 0x3446 DUP3 DUP3 PUSH2 0x3175 JUMP JUMPDEST SWAP2 POP POP PUSH1 0xC0 DUP4 ADD MLOAD DUP5 DUP3 SUB PUSH1 0xC0 DUP7 ADD MSTORE PUSH2 0x3460 DUP3 DUP3 PUSH2 0x3175 JUMP JUMPDEST SWAP2 POP POP PUSH1 0xE0 DUP4 ADD MLOAD PUSH2 0x3475 PUSH1 0xE0 DUP7 ADD DUP3 PUSH2 0x34DE JUMP JUMPDEST POP DUP1 SWAP2 POP POP SWAP3 SWAP2 POP POP JUMP JUMPDEST PUSH1 0x0 PUSH1 0x60 DUP4 ADD PUSH1 0x0 DUP4 ADD MLOAD DUP5 DUP3 SUB PUSH1 0x0 DUP7 ADD MSTORE PUSH2 0x349D DUP3 DUP3 PUSH2 0x3100 JUMP JUMPDEST SWAP2 POP POP PUSH1 0x20 DUP4 ADD MLOAD DUP5 DUP3 SUB PUSH1 0x20 DUP7 ADD MSTORE PUSH2 0x34B7 DUP3 DUP3 PUSH2 0x3100 JUMP JUMPDEST SWAP2 POP POP PUSH1 0x40 DUP4 ADD MLOAD DUP5 DUP3 SUB PUSH1 0x40 DUP7 ADD MSTORE PUSH2 0x34D1 DUP3 DUP3 PUSH2 0x3100 JUMP JUMPDEST SWAP2 POP POP DUP1 SWAP2 POP POP SWAP3 SWAP2 POP POP JUMP JUMPDEST PUSH2 0x34E7 DUP2 PUSH2 0x3732 JUMP JUMPDEST DUP3 MSTORE POP POP JUMP JUMPDEST PUSH2 0x34F6 DUP2 PUSH2 0x3732 JUMP JUMPDEST DUP3 MSTORE POP POP JUMP JUMPDEST PUSH1 0x0 PUSH1 0xA0 DUP3 ADD SWAP1 POP DUP2 DUP2 SUB PUSH1 0x0 DUP4 ADD MSTORE PUSH2 0x3516 DUP2 DUP9 PUSH2 0x31AE JUMP JUMPDEST SWAP1 POP DUP2 DUP2 SUB PUSH1 0x20 DUP4 ADD MSTORE PUSH2 0x352A DUP2 DUP8 PUSH2 0x31AE JUMP JUMPDEST SWAP1 POP DUP2 DUP2 SUB PUSH1 0x40 DUP4 ADD MSTORE PUSH2 0x353E DUP2 DUP7 PUSH2 0x31AE JUMP JUMPDEST SWAP1 POP DUP2 DUP2 SUB PUSH1 0x60 DUP4 ADD MSTORE PUSH2 0x3552 DUP2 DUP6 PUSH2 0x31AE JUMP JUMPDEST SWAP1 POP DUP2 DUP2 SUB PUSH1 0x80 DUP4 ADD MSTORE PUSH2 0x3566 DUP2 DUP5 PUSH2 0x31AE JUMP JUMPDEST SWAP1 POP SWAP7 SWAP6 POP POP POP POP POP POP JUMP JUMPDEST PUSH1 0x0 PUSH1 0xC0 DUP3 ADD SWAP1 POP DUP2 DUP2 SUB PUSH1 0x0 DUP4 ADD MSTORE PUSH2 0x358C DUP2 DUP10 PUSH2 0x33AD JUMP JUMPDEST SWAP1 POP DUP2 DUP2 SUB PUSH1 0x20 DUP4 ADD MSTORE PUSH2 0x35A0 DUP2 DUP9 PUSH2 0x32BD JUMP JUMPDEST SWAP1 POP DUP2 DUP2 SUB PUSH1 0x40 DUP4 ADD MSTORE PUSH2 0x35B4 DUP2 DUP8 PUSH2 0x3480 JUMP JUMPDEST SWAP1 POP DUP2 DUP2 SUB PUSH1 0x60 DUP4 ADD MSTORE PUSH2 0x35C8 DUP2 DUP7 PUSH2 0x31E7 JUMP JUMPDEST SWAP1 POP DUP2 DUP2 SUB PUSH1 0x80 DUP4 ADD MSTORE PUSH2 0x35DC DUP2 DUP6 PUSH2 0x322B JUMP JUMPDEST SWAP1 POP DUP2 DUP2 SUB PUSH1 0xA0 DUP4 ADD MSTORE PUSH2 0x35F0 DUP2 DUP5 PUSH2 0x3369 JUMP JUMPDEST SWAP1 POP SWAP8 SWAP7 POP POP POP POP POP POP POP JUMP JUMPDEST PUSH1 0x0 PUSH1 0x20 DUP3 ADD SWAP1 POP PUSH2 0x3612 PUSH1 0x0 DUP4 ADD DUP5 PUSH2 0x34ED JUMP JUMPDEST SWAP3 SWAP2 POP POP JUMP JUMPDEST PUSH1 0x0 PUSH2 0x3622 PUSH2 0x3633 JUMP JUMPDEST SWAP1 POP PUSH2 0x362E DUP3 DUP3 PUSH2 0x37B0 JUMP JUMPDEST SWAP2 SWAP1 POP JUMP JUMPDEST PUSH1 0x0 PUSH1 0x40 MLOAD SWAP1 POP SWAP1 JUMP JUMPDEST PUSH1 0x0 PUSH8 0xFFFFFFFFFFFFFFFF DUP3 GT ISZERO PUSH2 0x3658 JUMPI PUSH2 0x3657 PUSH2 0x383F JUMP JUMPDEST JUMPDEST PUSH1 0x20 DUP3 MUL SWAP1 POP PUSH1 0x20 DUP2 ADD SWAP1 POP SWAP2 SWAP1 POP JUMP JUMPDEST PUSH1 0x0 PUSH8 0xFFFFFFFFFFFFFFFF DUP3 GT ISZERO PUSH2 0x3684 JUMPI PUSH2 0x3683 PUSH2 0x383F JUMP JUMPDEST JUMPDEST PUSH2 0x368D DUP3 PUSH2 0x3887 JUMP JUMPDEST SWAP1 POP PUSH1 0x20 DUP2 ADD SWAP1 POP SWAP2 SWAP1 POP JUMP JUMPDEST PUSH1 0x0 DUP2 SWAP1 POP PUSH1 0x20 DUP3 ADD SWAP1 POP SWAP2 SWAP1 POP JUMP JUMPDEST PUSH1 0x0 DUP2 MLOAD SWAP1 POP SWAP2 SWAP1 POP JUMP JUMPDEST PUSH1 0x0 DUP2 MLOAD SWAP1 POP SWAP2 SWAP1 POP JUMP JUMPDEST PUSH1 0x0 PUSH1 0x20 DUP3 ADD SWAP1 POP SWAP2 SWAP1 POP JUMP JUMPDEST PUSH1 0x0 DUP3 DUP3 MSTORE PUSH1 0x20 DUP3 ADD SWAP1 POP SWAP3 SWAP2 POP POP JUMP JUMPDEST PUSH1 0x0 DUP3 DUP3 MSTORE PUSH1 0x20 DUP3 ADD SWAP1 POP SWAP3 SWAP2 POP POP JUMP JUMPDEST PUSH1 0x0 DUP3 DUP3 MSTORE PUSH1 0x20 DUP3 ADD SWAP1 POP SWAP3 SWAP2 POP POP JUMP JUMPDEST PUSH1 0x0 PUSH2 0x370B DUP3 PUSH2 0x3712 JUMP JUMPDEST SWAP1 POP SWAP2 SWAP1 POP JUMP JUMPDEST PUSH1 0x0 PUSH20 0xFFFFFFFFFFFFFFFFFFFFFFFFFFFFFFFFFFFFFFFF DUP3 AND SWAP1 POP SWAP2 SWAP1 POP JUMP JUMPDEST PUSH1 0x0 DUP2 SWAP1 POP SWAP2 SWAP1 POP JUMP JUMPDEST DUP3 DUP2 DUP4 CALLDATACOPY PUSH1 0x0 DUP4 DUP4 ADD MSTORE POP POP POP JUMP JUMPDEST PUSH1 0x0 JUMPDEST DUP4 DUP2 LT ISZERO PUSH2 0x3769 JUMPI DUP1 DUP3 ADD MLOAD DUP2 DUP5 ADD MSTORE PUSH1 0x20 DUP2 ADD SWAP1 POP PUSH2 0x374E JUMP JUMPDEST DUP4 DUP2 GT ISZERO PUSH2 0x3778 JUMPI PUSH1 0x0 DUP5 DUP5 ADD MSTORE JUMPDEST POP POP POP POP JUMP JUMPDEST PUSH1 0x0 PUSH1 0x2 DUP3 DIV SWAP1 POP PUSH1 0x1 DUP3 AND DUP1 PUSH2 0x3796 JUMPI PUSH1 0x7F DUP3 AND SWAP2 POP JUMPDEST PUSH1 0x20 DUP3 LT DUP2 EQ ISZERO PUSH2 0x37AA JUMPI PUSH2 0x37A9 PUSH2 0x37E1 JUMP JUMPDEST JUMPDEST POP SWAP2 SWAP1 POP JUMP JUMPDEST PUSH2 0x37B9 DUP3 PUSH2 0x3887 JUMP JUMPDEST DUP2 ADD DUP2 DUP2 LT PUSH8 0xFFFFFFFFFFFFFFFF DUP3 GT OR ISZERO PUSH2 0x37D8 JUMPI PUSH2 0x37D7 PUSH2 0x383F JUMP JUMPDEST JUMPDEST DUP1 PUSH1 0x40 MSTORE POP POP POP JUMP JUMPDEST PUSH32 0x4E487B7100000000000000000000000000000000000000000000000000000000 PUSH1 0x0 MSTORE PUSH1 0x22 PUSH1 0x4 MSTORE PUSH1 0x24 PUSH1 0x0 REVERT JUMPDEST PUSH32 0x4E487B7100000000000000000000000000000000000000000000000000000000 PUSH1 0x0 MSTORE PUSH1 0x32 PUSH1 0x4 MSTORE PUSH1 0x24 PUSH1 0x0 REVERT JUMPDEST PUSH32 0x4E487B7100000000000000000000000000000000000000000000000000000000 PUSH1 0x0 MSTORE PUSH1 0x41 PUSH1 0x4 MSTORE PUSH1 0x24 PUSH1 0x0 REVERT JUMPDEST PUSH1 0x0 DUP1 REVERT JUMPDEST PUSH1 0x0 DUP1 REVERT JUMPDEST PUSH1 0x0 DUP1 REVERT JUMPDEST PUSH1 0x0 DUP1 REVERT JUMPDEST PUSH1 0x0 DUP1 REVERT JUMPDEST PUSH1 0x0 PUSH1 0x1F NOT PUSH1 0x1F DUP4 ADD AND SWAP1 POP SWAP2 SWAP1 POP JUMP JUMPDEST PUSH2 0x38A1 DUP2 PUSH2 0x3700 JUMP JUMPDEST DUP2 EQ PUSH2 0x38AC JUMPI PUSH1 0x0 DUP1 REVERT JUMPDEST POP JUMP JUMPDEST PUSH2 0x38B8 DUP2 PUSH2 0x3732 JUMP JUMPDEST DUP2 EQ PUSH2 0x38C3 JUMPI PUSH1 0x0 DUP1 REVERT JUMPDEST POP JUMP INVALID LOG2 PUSH5 0x6970667358 0x22 SLT KECCAK256 PUSH32 0x29E5FB54F011F8B21486FDD7FC099543C87D6D49F6654EA9F57C465EBBC23464 PUSH20 0x6F6C634300080700330000000000000000000000 "
				},
				"gasEstimates": {
					"creation": {
						"codeDepositCost": "2917600",
						"executionCost": "3193",
						"totalCost": "2920793"
					},
					"external": {
						"createAward(string[],string[])": "infinite",
						"createCompanyExperience(string,string,string,string,string[])": "infinite",
						"createContract(string,string,string,string,string)": "infinite",
						"createFreelanceExperience(string,string)": "infinite",
						"createInformation(string,string,string,string,string,string)": "infinite",
						"createSkill(string[],string[],string[])": "infinite",
						"createUnivercity(string,string,string,string,string)": "infinite",
						"delAllEducation()": "infinite",
						"delCertificateAndAward()": "infinite",
						"delCompanyExperience()": "infinite",
						"delFreelanceExperience()": "infinite",
						"delInformaion()": "infinite",
						"delProfile()": "infinite",
						"getEducation(uint256)": "infinite",
						"getEducationCount()": "2585",
						"myBalance()": "2986",
						"profile(address)": "infinite"
					}
				},
				"methodIdentifiers": {
					"createAward(string[],string[])": "6c2cc774",
					"createCompanyExperience(string,string,string,string,string[])": "2a70da29",
					"createContract(string,string,string,string,string)": "72828388",
					"createFreelanceExperience(string,string)": "322a9849",
					"createInformation(string,string,string,string,string,string)": "958791ae",
					"createSkill(string[],string[],string[])": "3d984d0e",
					"createUnivercity(string,string,string,string,string)": "66244dfb",
					"delAllEducation()": "ed2217ef",
					"delCertificateAndAward()": "4ed74067",
					"delCompanyExperience()": "b240c619",
					"delFreelanceExperience()": "119d4cac",
					"delInformaion()": "95ea3757",
					"delProfile()": "fabce08f",
					"getEducation(uint256)": "f96e32f8",
					"getEducationCount()": "6212fa02",
					"myBalance()": "c9116b69",
					"profile(address)": "9dd9d0fd"
				}
			},
			"storageLayout": {
				"storage": [
					{
						"astId": 29,
						"contract": "contracts/Profile.sol:Profile",
						"label": "profile",
						"offset": 0,
						"slot": "0",
						"type": "t_mapping(t_address,t_struct(Bio)24_storage)"
					}
				],
				"types": {
					"t_address": {
						"encoding": "inplace",
						"label": "address",
						"numberOfBytes": "20"
					},
					"t_array(t_string_storage)dyn_storage": {
						"base": "t_string_storage",
						"encoding": "dynamic_array",
						"label": "string[]",
						"numberOfBytes": "32"
					},
					"t_array(t_struct(Education)97_storage)dyn_storage": {
						"base": "t_struct(Education)97_storage",
						"encoding": "dynamic_array",
						"label": "struct Profile.Education[]",
						"numberOfBytes": "32"
					},
					"t_mapping(t_address,t_struct(Bio)24_storage)": {
						"encoding": "mapping",
						"key": "t_address",
						"label": "mapping(address => struct Profile.Bio)",
						"numberOfBytes": "32",
						"value": "t_struct(Bio)24_storage"
					},
					"t_string_storage": {
						"encoding": "bytes",
						"label": "string",
						"numberOfBytes": "32"
					},
					"t_struct(Bio)24_storage": {
						"encoding": "inplace",
						"label": "struct Profile.Bio",
						"members": [
							{
								"astId": 4,
								"contract": "contracts/Profile.sol:Profile",
								"label": "information",
								"offset": 0,
								"slot": "0",
								"type": "t_struct(Information)46_storage"
							},
							{
								"astId": 7,
								"contract": "contracts/Profile.sol:Profile",
								"label": "privateContract",
								"offset": 0,
								"slot": "8",
								"type": "t_struct(Contract)59_storage"
							},
							{
								"astId": 10,
								"contract": "contracts/Profile.sol:Profile",
								"label": "skill",
								"offset": 0,
								"slot": "14",
								"type": "t_struct(Skill)69_storage"
							},
							{
								"astId": 14,
								"contract": "contracts/Profile.sol:Profile",
								"label": "education",
								"offset": 0,
								"slot": "17",
								"type": "t_array(t_struct(Education)97_storage)dyn_storage"
							},
							{
								"astId": 17,
								"contract": "contracts/Profile.sol:Profile",
								"label": "certificateAndAward",
								"offset": 0,
								"slot": "18",
								"type": "t_struct(CertificateAndAward)104_storage"
							},
							{
								"astId": 20,
								"contract": "contracts/Profile.sol:Profile",
								"label": "companyExperience",
								"offset": 0,
								"slot": "20",
								"type": "t_struct(CompanyExperience)81_storage"
							},
							{
								"astId": 23,
								"contract": "contracts/Profile.sol:Profile",
								"label": "freelanceExperience",
								"offset": 0,
								"slot": "25",
								"type": "t_struct(FreelanceExperience)86_storage"
							}
						],
						"numberOfBytes": "864"
					},
					"t_struct(CertificateAndAward)104_storage": {
						"encoding": "inplace",
						"label": "struct Profile.CertificateAndAward",
						"members": [
							{
								"astId": 100,
								"contract": "contracts/Profile.sol:Profile",
								"label": "certificate",
								"offset": 0,
								"slot": "0",
								"type": "t_array(t_string_storage)dyn_storage"
							},
							{
								"astId": 103,
								"contract": "contracts/Profile.sol:Profile",
								"label": "award",
								"offset": 0,
								"slot": "1",
								"type": "t_array(t_string_storage)dyn_storage"
							}
						],
						"numberOfBytes": "64"
					},
					"t_struct(CompanyExperience)81_storage": {
						"encoding": "inplace",
						"label": "struct Profile.CompanyExperience",
						"members": [
							{
								"astId": 71,
								"contract": "contracts/Profile.sol:Profile",
								"label": "companyName",
								"offset": 0,
								"slot": "0",
								"type": "t_string_storage"
							},
							{
								"astId": 73,
								"contract": "contracts/Profile.sol:Profile",
								"label": "position",
								"offset": 0,
								"slot": "1",
								"type": "t_string_storage"
							},
							{
								"astId": 75,
								"contract": "contracts/Profile.sol:Profile",
								"label": "startDate",
								"offset": 0,
								"slot": "2",
								"type": "t_string_storage"
							},
							{
								"astId": 77,
								"contract": "contracts/Profile.sol:Profile",
								"label": "endDate",
								"offset": 0,
								"slot": "3",
								"type": "t_string_storage"
							},
							{
								"astId": 80,
								"contract": "contracts/Profile.sol:Profile",
								"label": "project",
								"offset": 0,
								"slot": "4",
								"type": "t_array(t_string_storage)dyn_storage"
							}
						],
						"numberOfBytes": "160"
					},
					"t_struct(Contract)59_storage": {
						"encoding": "inplace",
						"label": "struct Profile.Contract",
						"members": [
							{
								"astId": 48,
								"contract": "contracts/Profile.sol:Profile",
								"label": "aboutMe",
								"offset": 0,
								"slot": "0",
								"type": "t_string_storage"
							},
							{
								"astId": 50,
								"contract": "contracts/Profile.sol:Profile",
								"label": "email",
								"offset": 0,
								"slot": "1",
								"type": "t_string_storage"
							},
							{
								"astId": 52,
								"contract": "contracts/Profile.sol:Profile",
								"label": "phone",
								"offset": 0,
								"slot": "2",
								"type": "t_string_storage"
							},
							{
								"astId": 54,
								"contract": "contracts/Profile.sol:Profile",
								"label": "github",
								"offset": 0,
								"slot": "3",
								"type": "t_string_storage"
							},
							{
								"astId": 56,
								"contract": "contracts/Profile.sol:Profile",
								"label": "gitlab",
								"offset": 0,
								"slot": "4",
								"type": "t_string_storage"
							},
							{
								"astId": 58,
								"contract": "contracts/Profile.sol:Profile",
								"label": "linkin",
								"offset": 0,
								"slot": "5",
								"type": "t_string_storage"
							}
						],
						"numberOfBytes": "192"
					},
					"t_struct(Education)97_storage": {
						"encoding": "inplace",
						"label": "struct Profile.Education",
						"members": [
							{
								"astId": 88,
								"contract": "contracts/Profile.sol:Profile",
								"label": "startDate",
								"offset": 0,
								"slot": "0",
								"type": "t_string_storage"
							},
							{
								"astId": 90,
								"contract": "contracts/Profile.sol:Profile",
								"label": "endDate",
								"offset": 0,
								"slot": "1",
								"type": "t_string_storage"
							},
							{
								"astId": 92,
								"contract": "contracts/Profile.sol:Profile",
								"label": "univercity",
								"offset": 0,
								"slot": "2",
								"type": "t_string_storage"
							},
							{
								"astId": 94,
								"contract": "contracts/Profile.sol:Profile",
								"label": "major",
								"offset": 0,
								"slot": "3",
								"type": "t_string_storage"
							},
							{
								"astId": 96,
								"contract": "contracts/Profile.sol:Profile",
								"label": "finalProject",
								"offset": 0,
								"slot": "4",
								"type": "t_string_storage"
							}
						],
						"numberOfBytes": "160"
					},
					"t_struct(FreelanceExperience)86_storage": {
						"encoding": "inplace",
						"label": "struct Profile.FreelanceExperience",
						"members": [
							{
								"astId": 83,
								"contract": "contracts/Profile.sol:Profile",
								"label": "projectName",
								"offset": 0,
								"slot": "0",
								"type": "t_string_storage"
							},
							{
								"astId": 85,
								"contract": "contracts/Profile.sol:Profile",
								"label": "Detail",
								"offset": 0,
								"slot": "1",
								"type": "t_string_storage"
							}
						],
						"numberOfBytes": "64"
					},
					"t_struct(Information)46_storage": {
						"encoding": "inplace",
						"label": "struct Profile.Information",
						"members": [
							{
								"astId": 31,
								"contract": "contracts/Profile.sol:Profile",
								"label": "aboutMe",
								"offset": 0,
								"slot": "0",
								"type": "t_string_storage"
							},
							{
								"astId": 33,
								"contract": "contracts/Profile.sol:Profile",
								"label": "position",
								"offset": 0,
								"slot": "1",
								"type": "t_string_storage"
							},
							{
								"astId": 35,
								"contract": "contracts/Profile.sol:Profile",
								"label": "userAddress",
								"offset": 0,
								"slot": "2",
								"type": "t_address"
							},
							{
								"astId": 37,
								"contract": "contracts/Profile.sol:Profile",
								"label": "firstName",
								"offset": 0,
								"slot": "3",
								"type": "t_string_storage"
							},
							{
								"astId": 39,
								"contract": "contracts/Profile.sol:Profile",
								"label": "middleName",
								"offset": 0,
								"slot": "4",
								"type": "t_string_storage"
							},
							{
								"astId": 41,
								"contract": "contracts/Profile.sol:Profile",
								"label": "lastName",
								"offset": 0,
								"slot": "5",
								"type": "t_string_storage"
							},
							{
								"astId": 43,
								"contract": "contracts/Profile.sol:Profile",
								"label": "profileImage",
								"offset": 0,
								"slot": "6",
								"type": "t_string_storage"
							},
							{
								"astId": 45,
								"contract": "contracts/Profile.sol:Profile",
								"label": "createDate",
								"offset": 0,
								"slot": "7",
								"type": "t_uint256"
							}
						],
						"numberOfBytes": "256"
					},
					"t_struct(Skill)69_storage": {
						"encoding": "inplace",
						"label": "struct Profile.Skill",
						"members": [
							{
								"astId": 62,
								"contract": "contracts/Profile.sol:Profile",
								"label": "programmingLanguages",
								"offset": 0,
								"slot": "0",
								"type": "t_array(t_string_storage)dyn_storage"
							},
							{
								"astId": 65,
								"contract": "contracts/Profile.sol:Profile",
								"label": "framework",
								"offset": 0,
								"slot": "1",
								"type": "t_array(t_string_storage)dyn_storage"
							},
							{
								"astId": 68,
								"contract": "contracts/Profile.sol:Profile",
								"label": "databaseAndOther",
								"offset": 0,
								"slot": "2",
								"type": "t_array(t_string_storage)dyn_storage"
							}
						],
						"numberOfBytes": "96"
					},
					"t_uint256": {
						"encoding": "inplace",
						"label": "uint256",
						"numberOfBytes": "32"
					}
				}
			},
			"userdoc": {
				"kind": "user",
				"methods": {},
				"version": 1
			}
		}
	}
}