{
	"contracts/Profile.sol": {
		"Profile": {
			"abi": [
				{
					"inputs": [
						{
							"internalType": "string",
							"name": "firstName",
							"type": "string"
						},
						{
							"internalType": "string",
							"name": "middleName",
							"type": "string"
						},
						{
							"internalType": "string",
							"name": "lastName",
							"type": "string"
						},
						{
							"internalType": "string",
							"name": "profileImage",
							"type": "string"
						}
					],
					"name": "createBio",
					"outputs": [],
					"stateMutability": "nonpayable",
					"type": "function"
				},
				{
					"inputs": [
						{
							"internalType": "string",
							"name": "email",
							"type": "string"
						},
						{
							"internalType": "string",
							"name": "phone",
							"type": "string"
						},
						{
							"internalType": "string",
							"name": "github",
							"type": "string"
						},
						{
							"internalType": "string",
							"name": "gitlab",
							"type": "string"
						},
						{
							"internalType": "string",
							"name": "linkin",
							"type": "string"
						}
					],
					"name": "createContract",
					"outputs": [],
					"stateMutability": "nonpayable",
					"type": "function"
				},
				{
					"inputs": [
						{
							"internalType": "string[]",
							"name": "frontend",
							"type": "string[]"
						},
						{
							"internalType": "string[]",
							"name": "backend",
							"type": "string[]"
						},
						{
							"internalType": "string[]",
							"name": "framework",
							"type": "string[]"
						}
					],
					"name": "createSkill",
					"outputs": [],
					"stateMutability": "nonpayable",
					"type": "function"
				},
				{
					"inputs": [
						{
							"internalType": "string",
							"name": "startDate",
							"type": "string"
						},
						{
							"internalType": "string",
							"name": "endDate",
							"type": "string"
						},
						{
							"internalType": "string",
							"name": "univercity",
							"type": "string"
						}
					],
					"name": "createUnivercity",
					"outputs": [],
					"stateMutability": "nonpayable",
					"type": "function"
				},
				{
					"inputs": [],
					"name": "delProfile",
					"outputs": [],
					"stateMutability": "nonpayable",
					"type": "function"
				},
				{
					"inputs": [
						{
							"internalType": "address",
							"name": "",
							"type": "address"
						}
					],
					"name": "profile",
					"outputs": [
						{
							"internalType": "address",
							"name": "userAddress",
							"type": "address"
						},
						{
							"internalType": "string",
							"name": "firstName",
							"type": "string"
						},
						{
							"internalType": "string",
							"name": "middleName",
							"type": "string"
						},
						{
							"internalType": "string",
							"name": "lastName",
							"type": "string"
						},
						{
							"internalType": "string",
							"name": "profileImage",
							"type": "string"
						},
						{
							"internalType": "uint256",
							"name": "createDate",
							"type": "uint256"
						},
						{
							"components": [
								{
									"internalType": "string",
									"name": "email",
									"type": "string"
								},
								{
									"internalType": "string",
									"name": "phone",
									"type": "string"
								},
								{
									"internalType": "string",
									"name": "github",
									"type": "string"
								},
								{
									"internalType": "string",
									"name": "gitlab",
									"type": "string"
								},
								{
									"internalType": "string",
									"name": "linkin",
									"type": "string"
								}
							],
							"internalType": "struct Profile.Contract",
							"name": "privateContract",
							"type": "tuple"
						},
						{
							"components": [
								{
									"internalType": "string[]",
									"name": "frontend",
									"type": "string[]"
								},
								{
									"internalType": "string[]",
									"name": "backend",
									"type": "string[]"
								},
								{
									"internalType": "string[]",
									"name": "framework",
									"type": "string[]"
								}
							],
							"internalType": "struct Profile.Skill",
							"name": "skill",
							"type": "tuple"
						}
					],
					"stateMutability": "view",
					"type": "function"
				}
			],
			"devdoc": {
				"kind": "dev",
				"methods": {},
				"version": 1
			},
			"evm": {
				"assembly": "    /* \"contracts/Profile.sol\":60:2499  contract Profile {\r... */\n  mstore(0x40, 0x80)\n  callvalue\n  dup1\n  iszero\n  tag_1\n  jumpi\n  0x00\n  dup1\n  revert\ntag_1:\n  pop\n  dataSize(sub_0)\n  dup1\n  dataOffset(sub_0)\n  0x00\n  codecopy\n  0x00\n  return\nstop\n\nsub_0: assembly {\n        /* \"contracts/Profile.sol\":60:2499  contract Profile {\r... */\n      mstore(0x40, 0x80)\n      callvalue\n      dup1\n      iszero\n      tag_1\n      jumpi\n      0x00\n      dup1\n      revert\n    tag_1:\n      pop\n      jumpi(tag_2, lt(calldatasize, 0x04))\n      shr(0xe0, calldataload(0x00))\n      dup1\n      0x3d984d0e\n      eq\n      tag_3\n      jumpi\n      dup1\n      0x72828388\n      eq\n      tag_4\n      jumpi\n      dup1\n      0x8c241fc4\n      eq\n      tag_5\n      jumpi\n      dup1\n      0x9dd9d0fd\n      eq\n      tag_6\n      jumpi\n      dup1\n      0xdc6d6a83\n      eq\n      tag_7\n      jumpi\n      dup1\n      0xfabce08f\n      eq\n      tag_8\n      jumpi\n    tag_2:\n      0x00\n      dup1\n      revert\n        /* \"contracts/Profile.sol\":1951:2276  function createSkill(string[] memory frontend, string[] memory backend, string[] memory framework) public {\r... */\n    tag_3:\n      tag_9\n      0x04\n      dup1\n      calldatasize\n      sub\n      dup2\n      add\n      swap1\n      tag_10\n      swap2\n      swap1\n      tag_11\n      jump\t// in\n    tag_10:\n      tag_12\n      jump\t// in\n    tag_9:\n      stop\n        /* \"contracts/Profile.sol\":1361:1864  function createContract(string memory email, string memory phone, string memory github, string memory gitlab, string memory linkin) public {\r... */\n    tag_4:\n      tag_13\n      0x04\n      dup1\n      calldatasize\n      sub\n      dup2\n      add\n      swap1\n      tag_14\n      swap2\n      swap1\n      tag_15\n      jump\t// in\n    tag_14:\n      tag_16\n      jump\t// in\n    tag_13:\n      stop\n        /* \"contracts/Profile.sol\":839:1306  function createBio(string memory firstName, string memory middleName, string memory lastName,  string memory profileImage) public {\r... */\n    tag_5:\n      tag_17\n      0x04\n      dup1\n      calldatasize\n      sub\n      dup2\n      add\n      swap1\n      tag_18\n      swap2\n      swap1\n      tag_19\n      jump\t// in\n    tag_18:\n      tag_20\n      jump\t// in\n    tag_17:\n      stop\n        /* \"contracts/Profile.sol\":370:410  mapping (address => Bio) public  profile */\n    tag_6:\n      tag_21\n      0x04\n      dup1\n      calldatasize\n      sub\n      dup2\n      add\n      swap1\n      tag_22\n      swap2\n      swap1\n      tag_23\n      jump\t// in\n    tag_22:\n      tag_24\n      jump\t// in\n    tag_21:\n      mload(0x40)\n      tag_25\n      swap9\n      swap8\n      swap7\n      swap6\n      swap5\n      swap4\n      swap3\n      swap2\n      swap1\n      tag_26\n      jump\t// in\n    tag_25:\n      mload(0x40)\n      dup1\n      swap2\n      sub\n      swap1\n      return\n        /* \"contracts/Profile.sol\":2284:2409  function createUnivercity(string memory startDate, string memory endDate, string memory univercity) public {\r... */\n    tag_7:\n      tag_27\n      0x04\n      dup1\n      calldatasize\n      sub\n      dup2\n      add\n      swap1\n      tag_28\n      swap2\n      swap1\n      tag_29\n      jump\t// in\n    tag_28:\n      tag_30\n      jump\t// in\n    tag_27:\n      stop\n        /* \"contracts/Profile.sol\":2420:2496  function delProfile() external {\r... */\n    tag_8:\n      tag_31\n      tag_32\n      jump\t// in\n    tag_31:\n      stop\n        /* \"contracts/Profile.sol\":1951:2276  function createSkill(string[] memory frontend, string[] memory backend, string[] memory framework) public {\r... */\n    tag_12:\n        /* \"contracts/Profile.sol\":2075:2082  profile */\n      0x00\n        /* \"contracts/Profile.sol\":2075:2094  profile[msg.sender] */\n      dup1\n        /* \"contracts/Profile.sol\":2083:2093  msg.sender */\n      caller\n        /* \"contracts/Profile.sol\":2075:2094  profile[msg.sender] */\n      0xffffffffffffffffffffffffffffffffffffffff\n      and\n      0xffffffffffffffffffffffffffffffffffffffff\n      and\n      dup2\n      mstore\n      0x20\n      add\n      swap1\n      dup2\n      mstore\n      0x20\n      add\n      0x00\n      keccak256\n        /* \"contracts/Profile.sol\":2075:2100  profile[msg.sender].skill */\n      0x0b\n      add\n      0x00\n        /* \"contracts/Profile.sol\":2068:2100  delete profile[msg.sender].skill */\n      dup1\n      dup3\n      add\n      0x00\n      tag_34\n      swap2\n      swap1\n      tag_35\n      jump\t// in\n    tag_34:\n      0x01\n      dup3\n      add\n      0x00\n      tag_36\n      swap2\n      swap1\n      tag_35\n      jump\t// in\n    tag_36:\n      0x02\n      dup3\n      add\n      0x00\n      tag_37\n      swap2\n      swap1\n      tag_35\n      jump\t// in\n    tag_37:\n      pop\n      pop\n        /* \"contracts/Profile.sol\":2148:2156  frontend */\n      dup3\n        /* \"contracts/Profile.sol\":2111:2118  profile */\n      0x00\n        /* \"contracts/Profile.sol\":2111:2130  profile[msg.sender] */\n      dup1\n        /* \"contracts/Profile.sol\":2119:2129  msg.sender */\n      caller\n        /* \"contracts/Profile.sol\":2111:2130  profile[msg.sender] */\n      0xffffffffffffffffffffffffffffffffffffffff\n      and\n      0xffffffffffffffffffffffffffffffffffffffff\n      and\n      dup2\n      mstore\n      0x20\n      add\n      swap1\n      dup2\n      mstore\n      0x20\n      add\n      0x00\n      keccak256\n        /* \"contracts/Profile.sol\":2111:2136  profile[msg.sender].skill */\n      0x0b\n      add\n        /* \"contracts/Profile.sol\":2111:2145  profile[msg.sender].skill.frontend */\n      0x00\n      add\n        /* \"contracts/Profile.sol\":2111:2156  profile[msg.sender].skill.frontend = frontend */\n      swap1\n      dup1\n      mload\n      swap1\n      0x20\n      add\n      swap1\n      tag_38\n      swap3\n      swap2\n      swap1\n      tag_39\n      jump\t// in\n    tag_38:\n      pop\n        /* \"contracts/Profile.sol\":2203:2210  backend */\n      dup2\n        /* \"contracts/Profile.sol\":2167:2174  profile */\n      0x00\n        /* \"contracts/Profile.sol\":2167:2186  profile[msg.sender] */\n      dup1\n        /* \"contracts/Profile.sol\":2175:2185  msg.sender */\n      caller\n        /* \"contracts/Profile.sol\":2167:2186  profile[msg.sender] */\n      0xffffffffffffffffffffffffffffffffffffffff\n      and\n      0xffffffffffffffffffffffffffffffffffffffff\n      and\n      dup2\n      mstore\n      0x20\n      add\n      swap1\n      dup2\n      mstore\n      0x20\n      add\n      0x00\n      keccak256\n        /* \"contracts/Profile.sol\":2167:2192  profile[msg.sender].skill */\n      0x0b\n      add\n        /* \"contracts/Profile.sol\":2167:2200  profile[msg.sender].skill.backend */\n      0x01\n      add\n        /* \"contracts/Profile.sol\":2167:2210  profile[msg.sender].skill.backend = backend */\n      swap1\n      dup1\n      mload\n      swap1\n      0x20\n      add\n      swap1\n      tag_40\n      swap3\n      swap2\n      swap1\n      tag_39\n      jump\t// in\n    tag_40:\n      pop\n        /* \"contracts/Profile.sol\":2259:2268  framework */\n      dup1\n        /* \"contracts/Profile.sol\":2221:2228  profile */\n      0x00\n        /* \"contracts/Profile.sol\":2221:2240  profile[msg.sender] */\n      dup1\n        /* \"contracts/Profile.sol\":2229:2239  msg.sender */\n      caller\n        /* \"contracts/Profile.sol\":2221:2240  profile[msg.sender] */\n      0xffffffffffffffffffffffffffffffffffffffff\n      and\n      0xffffffffffffffffffffffffffffffffffffffff\n      and\n      dup2\n      mstore\n      0x20\n      add\n      swap1\n      dup2\n      mstore\n      0x20\n      add\n      0x00\n      keccak256\n        /* \"contracts/Profile.sol\":2221:2246  profile[msg.sender].skill */\n      0x0b\n      add\n        /* \"contracts/Profile.sol\":2221:2256  profile[msg.sender].skill.framework */\n      0x02\n      add\n        /* \"contracts/Profile.sol\":2221:2268  profile[msg.sender].skill.framework = framework */\n      swap1\n      dup1\n      mload\n      swap1\n      0x20\n      add\n      swap1\n      tag_41\n      swap3\n      swap2\n      swap1\n      tag_39\n      jump\t// in\n    tag_41:\n      pop\n        /* \"contracts/Profile.sol\":1951:2276  function createSkill(string[] memory frontend, string[] memory backend, string[] memory framework) public {\r... */\n      pop\n      pop\n      pop\n      jump\t// out\n        /* \"contracts/Profile.sol\":1361:1864  function createContract(string memory email, string memory phone, string memory github, string memory gitlab, string memory linkin) public {\r... */\n    tag_16:\n        /* \"contracts/Profile.sol\":1518:1525  profile */\n      0x00\n        /* \"contracts/Profile.sol\":1518:1537  profile[msg.sender] */\n      dup1\n        /* \"contracts/Profile.sol\":1526:1536  msg.sender */\n      caller\n        /* \"contracts/Profile.sol\":1518:1537  profile[msg.sender] */\n      0xffffffffffffffffffffffffffffffffffffffff\n      and\n      0xffffffffffffffffffffffffffffffffffffffff\n      and\n      dup2\n      mstore\n      0x20\n      add\n      swap1\n      dup2\n      mstore\n      0x20\n      add\n      0x00\n      keccak256\n        /* \"contracts/Profile.sol\":1518:1553  profile[msg.sender].privateContract */\n      0x06\n      add\n      0x00\n        /* \"contracts/Profile.sol\":1511:1553  delete profile[msg.sender].privateContract */\n      dup1\n      dup3\n      add\n      0x00\n      tag_43\n      swap2\n      swap1\n      tag_44\n      jump\t// in\n    tag_43:\n      0x01\n      dup3\n      add\n      0x00\n      tag_45\n      swap2\n      swap1\n      tag_44\n      jump\t// in\n    tag_45:\n      0x02\n      dup3\n      add\n      0x00\n      tag_46\n      swap2\n      swap1\n      tag_44\n      jump\t// in\n    tag_46:\n      0x03\n      dup3\n      add\n      0x00\n      tag_47\n      swap2\n      swap1\n      tag_44\n      jump\t// in\n    tag_47:\n      0x04\n      dup3\n      add\n      0x00\n      tag_48\n      swap2\n      swap1\n      tag_44\n      jump\t// in\n    tag_48:\n      pop\n      pop\n        /* \"contracts/Profile.sol\":1608:1613  email */\n      dup5\n        /* \"contracts/Profile.sol\":1564:1571  profile */\n      0x00\n        /* \"contracts/Profile.sol\":1564:1583  profile[msg.sender] */\n      dup1\n        /* \"contracts/Profile.sol\":1572:1582  msg.sender */\n      caller\n        /* \"contracts/Profile.sol\":1564:1583  profile[msg.sender] */\n      0xffffffffffffffffffffffffffffffffffffffff\n      and\n      0xffffffffffffffffffffffffffffffffffffffff\n      and\n      dup2\n      mstore\n      0x20\n      add\n      swap1\n      dup2\n      mstore\n      0x20\n      add\n      0x00\n      keccak256\n        /* \"contracts/Profile.sol\":1564:1599  profile[msg.sender].privateContract */\n      0x06\n      add\n        /* \"contracts/Profile.sol\":1564:1605  profile[msg.sender].privateContract.email */\n      0x00\n      add\n        /* \"contracts/Profile.sol\":1564:1613  profile[msg.sender].privateContract.email = email */\n      swap1\n      dup1\n      mload\n      swap1\n      0x20\n      add\n      swap1\n      tag_49\n      swap3\n      swap2\n      swap1\n      tag_50\n      jump\t// in\n    tag_49:\n      pop\n        /* \"contracts/Profile.sol\":1668:1673  phone */\n      dup4\n        /* \"contracts/Profile.sol\":1624:1631  profile */\n      0x00\n        /* \"contracts/Profile.sol\":1624:1643  profile[msg.sender] */\n      dup1\n        /* \"contracts/Profile.sol\":1632:1642  msg.sender */\n      caller\n        /* \"contracts/Profile.sol\":1624:1643  profile[msg.sender] */\n      0xffffffffffffffffffffffffffffffffffffffff\n      and\n      0xffffffffffffffffffffffffffffffffffffffff\n      and\n      dup2\n      mstore\n      0x20\n      add\n      swap1\n      dup2\n      mstore\n      0x20\n      add\n      0x00\n      keccak256\n        /* \"contracts/Profile.sol\":1624:1659  profile[msg.sender].privateContract */\n      0x06\n      add\n        /* \"contracts/Profile.sol\":1624:1665  profile[msg.sender].privateContract.phone */\n      0x01\n      add\n        /* \"contracts/Profile.sol\":1624:1673  profile[msg.sender].privateContract.phone = phone */\n      swap1\n      dup1\n      mload\n      swap1\n      0x20\n      add\n      swap1\n      tag_51\n      swap3\n      swap2\n      swap1\n      tag_50\n      jump\t// in\n    tag_51:\n      pop\n        /* \"contracts/Profile.sol\":1728:1734  github */\n      dup3\n        /* \"contracts/Profile.sol\":1684:1691  profile */\n      0x00\n        /* \"contracts/Profile.sol\":1684:1703  profile[msg.sender] */\n      dup1\n        /* \"contracts/Profile.sol\":1692:1702  msg.sender */\n      caller\n        /* \"contracts/Profile.sol\":1684:1703  profile[msg.sender] */\n      0xffffffffffffffffffffffffffffffffffffffff\n      and\n      0xffffffffffffffffffffffffffffffffffffffff\n      and\n      dup2\n      mstore\n      0x20\n      add\n      swap1\n      dup2\n      mstore\n      0x20\n      add\n      0x00\n      keccak256\n        /* \"contracts/Profile.sol\":1684:1719  profile[msg.sender].privateContract */\n      0x06\n      add\n        /* \"contracts/Profile.sol\":1684:1725  profile[msg.sender].privateContract.email */\n      0x00\n      add\n        /* \"contracts/Profile.sol\":1684:1734  profile[msg.sender].privateContract.email = github */\n      swap1\n      dup1\n      mload\n      swap1\n      0x20\n      add\n      swap1\n      tag_52\n      swap3\n      swap2\n      swap1\n      tag_50\n      jump\t// in\n    tag_52:\n      pop\n        /* \"contracts/Profile.sol\":1789:1795  gitlab */\n      dup2\n        /* \"contracts/Profile.sol\":1745:1752  profile */\n      0x00\n        /* \"contracts/Profile.sol\":1745:1764  profile[msg.sender] */\n      dup1\n        /* \"contracts/Profile.sol\":1753:1763  msg.sender */\n      caller\n        /* \"contracts/Profile.sol\":1745:1764  profile[msg.sender] */\n      0xffffffffffffffffffffffffffffffffffffffff\n      and\n      0xffffffffffffffffffffffffffffffffffffffff\n      and\n      dup2\n      mstore\n      0x20\n      add\n      swap1\n      dup2\n      mstore\n      0x20\n      add\n      0x00\n      keccak256\n        /* \"contracts/Profile.sol\":1745:1780  profile[msg.sender].privateContract */\n      0x06\n      add\n        /* \"contracts/Profile.sol\":1745:1786  profile[msg.sender].privateContract.phone */\n      0x01\n      add\n        /* \"contracts/Profile.sol\":1745:1795  profile[msg.sender].privateContract.phone = gitlab */\n      swap1\n      dup1\n      mload\n      swap1\n      0x20\n      add\n      swap1\n      tag_53\n      swap3\n      swap2\n      swap1\n      tag_50\n      jump\t// in\n    tag_53:\n      pop\n        /* \"contracts/Profile.sol\":1850:1856  linkin */\n      dup1\n        /* \"contracts/Profile.sol\":1806:1813  profile */\n      0x00\n        /* \"contracts/Profile.sol\":1806:1825  profile[msg.sender] */\n      dup1\n        /* \"contracts/Profile.sol\":1814:1824  msg.sender */\n      caller\n        /* \"contracts/Profile.sol\":1806:1825  profile[msg.sender] */\n      0xffffffffffffffffffffffffffffffffffffffff\n      and\n      0xffffffffffffffffffffffffffffffffffffffff\n      and\n      dup2\n      mstore\n      0x20\n      add\n      swap1\n      dup2\n      mstore\n      0x20\n      add\n      0x00\n      keccak256\n        /* \"contracts/Profile.sol\":1806:1841  profile[msg.sender].privateContract */\n      0x06\n      add\n        /* \"contracts/Profile.sol\":1806:1847  profile[msg.sender].privateContract.email */\n      0x00\n      add\n        /* \"contracts/Profile.sol\":1806:1856  profile[msg.sender].privateContract.email = linkin */\n      swap1\n      dup1\n      mload\n      swap1\n      0x20\n      add\n      swap1\n      tag_54\n      swap3\n      swap2\n      swap1\n      tag_50\n      jump\t// in\n    tag_54:\n      pop\n        /* \"contracts/Profile.sol\":1361:1864  function createContract(string memory email, string memory phone, string memory github, string memory gitlab, string memory linkin) public {\r... */\n      pop\n      pop\n      pop\n      pop\n      pop\n      jump\t// out\n        /* \"contracts/Profile.sol\":839:1306  function createBio(string memory firstName, string memory middleName, string memory lastName,  string memory profileImage) public {\r... */\n    tag_20:\n        /* \"contracts/Profile.sol\":1012:1021  firstName */\n      dup4\n        /* \"contracts/Profile.sol\":980:987  profile */\n      0x00\n        /* \"contracts/Profile.sol\":980:999  profile[msg.sender] */\n      dup1\n        /* \"contracts/Profile.sol\":988:998  msg.sender */\n      caller\n        /* \"contracts/Profile.sol\":980:999  profile[msg.sender] */\n      0xffffffffffffffffffffffffffffffffffffffff\n      and\n      0xffffffffffffffffffffffffffffffffffffffff\n      and\n      dup2\n      mstore\n      0x20\n      add\n      swap1\n      dup2\n      mstore\n      0x20\n      add\n      0x00\n      keccak256\n        /* \"contracts/Profile.sol\":980:1009  profile[msg.sender].firstName */\n      0x01\n      add\n        /* \"contracts/Profile.sol\":980:1021  profile[msg.sender].firstName = firstName */\n      swap1\n      dup1\n      mload\n      swap1\n      0x20\n      add\n      swap1\n      tag_56\n      swap3\n      swap2\n      swap1\n      tag_50\n      jump\t// in\n    tag_56:\n      pop\n        /* \"contracts/Profile.sol\":1065:1075  middleName */\n      dup3\n        /* \"contracts/Profile.sol\":1032:1039  profile */\n      0x00\n        /* \"contracts/Profile.sol\":1032:1051  profile[msg.sender] */\n      dup1\n        /* \"contracts/Profile.sol\":1040:1050  msg.sender */\n      caller\n        /* \"contracts/Profile.sol\":1032:1051  profile[msg.sender] */\n      0xffffffffffffffffffffffffffffffffffffffff\n      and\n      0xffffffffffffffffffffffffffffffffffffffff\n      and\n      dup2\n      mstore\n      0x20\n      add\n      swap1\n      dup2\n      mstore\n      0x20\n      add\n      0x00\n      keccak256\n        /* \"contracts/Profile.sol\":1032:1062  profile[msg.sender].middleName */\n      0x02\n      add\n        /* \"contracts/Profile.sol\":1032:1075  profile[msg.sender].middleName = middleName */\n      swap1\n      dup1\n      mload\n      swap1\n      0x20\n      add\n      swap1\n      tag_57\n      swap3\n      swap2\n      swap1\n      tag_50\n      jump\t// in\n    tag_57:\n      pop\n        /* \"contracts/Profile.sol\":1117:1125  lastName */\n      dup2\n        /* \"contracts/Profile.sol\":1086:1093  profile */\n      0x00\n        /* \"contracts/Profile.sol\":1086:1105  profile[msg.sender] */\n      dup1\n        /* \"contracts/Profile.sol\":1094:1104  msg.sender */\n      caller\n        /* \"contracts/Profile.sol\":1086:1105  profile[msg.sender] */\n      0xffffffffffffffffffffffffffffffffffffffff\n      and\n      0xffffffffffffffffffffffffffffffffffffffff\n      and\n      dup2\n      mstore\n      0x20\n      add\n      swap1\n      dup2\n      mstore\n      0x20\n      add\n      0x00\n      keccak256\n        /* \"contracts/Profile.sol\":1086:1114  profile[msg.sender].lastName */\n      0x03\n      add\n        /* \"contracts/Profile.sol\":1086:1125  profile[msg.sender].lastName = lastName */\n      swap1\n      dup1\n      mload\n      swap1\n      0x20\n      add\n      swap1\n      tag_58\n      swap3\n      swap2\n      swap1\n      tag_50\n      jump\t// in\n    tag_58:\n      pop\n        /* \"contracts/Profile.sol\":1171:1183  profileImage */\n      dup1\n        /* \"contracts/Profile.sol\":1136:1143  profile */\n      0x00\n        /* \"contracts/Profile.sol\":1136:1155  profile[msg.sender] */\n      dup1\n        /* \"contracts/Profile.sol\":1144:1154  msg.sender */\n      caller\n        /* \"contracts/Profile.sol\":1136:1155  profile[msg.sender] */\n      0xffffffffffffffffffffffffffffffffffffffff\n      and\n      0xffffffffffffffffffffffffffffffffffffffff\n      and\n      dup2\n      mstore\n      0x20\n      add\n      swap1\n      dup2\n      mstore\n      0x20\n      add\n      0x00\n      keccak256\n        /* \"contracts/Profile.sol\":1136:1168  profile[msg.sender].profileImage */\n      0x04\n      add\n        /* \"contracts/Profile.sol\":1136:1183  profile[msg.sender].profileImage = profileImage */\n      swap1\n      dup1\n      mload\n      swap1\n      0x20\n      add\n      swap1\n      tag_59\n      swap3\n      swap2\n      swap1\n      tag_50\n      jump\t// in\n    tag_59:\n      pop\n        /* \"contracts/Profile.sol\":1228:1238  msg.sender */\n      caller\n        /* \"contracts/Profile.sol\":1194:1201  profile */\n      0x00\n        /* \"contracts/Profile.sol\":1194:1213  profile[msg.sender] */\n      dup1\n        /* \"contracts/Profile.sol\":1202:1212  msg.sender */\n      caller\n        /* \"contracts/Profile.sol\":1194:1213  profile[msg.sender] */\n      0xffffffffffffffffffffffffffffffffffffffff\n      and\n      0xffffffffffffffffffffffffffffffffffffffff\n      and\n      dup2\n      mstore\n      0x20\n      add\n      swap1\n      dup2\n      mstore\n      0x20\n      add\n      0x00\n      keccak256\n        /* \"contracts/Profile.sol\":1194:1225  profile[msg.sender].userAddress */\n      0x00\n      add\n      0x00\n        /* \"contracts/Profile.sol\":1194:1238  profile[msg.sender].userAddress = msg.sender */\n      0x0100\n      exp\n      dup2\n      sload\n      dup2\n      0xffffffffffffffffffffffffffffffffffffffff\n      mul\n      not\n      and\n      swap1\n      dup4\n      0xffffffffffffffffffffffffffffffffffffffff\n      and\n      mul\n      or\n      swap1\n      sstore\n      pop\n        /* \"contracts/Profile.sol\":1283:1298  block.timestamp */\n      timestamp\n        /* \"contracts/Profile.sol\":1250:1257  profile */\n      0x00\n        /* \"contracts/Profile.sol\":1250:1269  profile[msg.sender] */\n      dup1\n        /* \"contracts/Profile.sol\":1258:1268  msg.sender */\n      caller\n        /* \"contracts/Profile.sol\":1250:1269  profile[msg.sender] */\n      0xffffffffffffffffffffffffffffffffffffffff\n      and\n      0xffffffffffffffffffffffffffffffffffffffff\n      and\n      dup2\n      mstore\n      0x20\n      add\n      swap1\n      dup2\n      mstore\n      0x20\n      add\n      0x00\n      keccak256\n        /* \"contracts/Profile.sol\":1250:1280  profile[msg.sender].createDate */\n      0x05\n      add\n        /* \"contracts/Profile.sol\":1250:1298  profile[msg.sender].createDate = block.timestamp */\n      dup2\n      swap1\n      sstore\n      pop\n        /* \"contracts/Profile.sol\":839:1306  function createBio(string memory firstName, string memory middleName, string memory lastName,  string memory profileImage) public {\r... */\n      pop\n      pop\n      pop\n      pop\n      jump\t// out\n        /* \"contracts/Profile.sol\":370:410  mapping (address => Bio) public  profile */\n    tag_24:\n      mstore(0x20, 0x00)\n      dup1\n      0x00\n      mstore\n      keccak256(0x00, 0x40)\n      0x00\n      swap2\n      pop\n      swap1\n      pop\n      dup1\n      0x00\n      add\n      0x00\n      swap1\n      sload\n      swap1\n      0x0100\n      exp\n      swap1\n      div\n      0xffffffffffffffffffffffffffffffffffffffff\n      and\n      swap1\n      dup1\n      0x01\n      add\n      dup1\n      sload\n      tag_60\n      swap1\n      tag_61\n      jump\t// in\n    tag_60:\n      dup1\n      0x1f\n      add\n      0x20\n      dup1\n      swap2\n      div\n      mul\n      0x20\n      add\n      mload(0x40)\n      swap1\n      dup2\n      add\n      0x40\n      mstore\n      dup1\n      swap3\n      swap2\n      swap1\n      dup2\n      dup2\n      mstore\n      0x20\n      add\n      dup3\n      dup1\n      sload\n      tag_62\n      swap1\n      tag_61\n      jump\t// in\n    tag_62:\n      dup1\n      iszero\n      tag_63\n      jumpi\n      dup1\n      0x1f\n      lt\n      tag_64\n      jumpi\n      0x0100\n      dup1\n      dup4\n      sload\n      div\n      mul\n      dup4\n      mstore\n      swap2\n      0x20\n      add\n      swap2\n      jump(tag_63)\n    tag_64:\n      dup3\n      add\n      swap2\n      swap1\n      0x00\n      mstore\n      keccak256(0x00, 0x20)\n      swap1\n    tag_65:\n      dup2\n      sload\n      dup2\n      mstore\n      swap1\n      0x01\n      add\n      swap1\n      0x20\n      add\n      dup1\n      dup4\n      gt\n      tag_65\n      jumpi\n      dup3\n      swap1\n      sub\n      0x1f\n      and\n      dup3\n      add\n      swap2\n    tag_63:\n      pop\n      pop\n      pop\n      pop\n      pop\n      swap1\n      dup1\n      0x02\n      add\n      dup1\n      sload\n      tag_66\n      swap1\n      tag_61\n      jump\t// in\n    tag_66:\n      dup1\n      0x1f\n      add\n      0x20\n      dup1\n      swap2\n      div\n      mul\n      0x20\n      add\n      mload(0x40)\n      swap1\n      dup2\n      add\n      0x40\n      mstore\n      dup1\n      swap3\n      swap2\n      swap1\n      dup2\n      dup2\n      mstore\n      0x20\n      add\n      dup3\n      dup1\n      sload\n      tag_67\n      swap1\n      tag_61\n      jump\t// in\n    tag_67:\n      dup1\n      iszero\n      tag_68\n      jumpi\n      dup1\n      0x1f\n      lt\n      tag_69\n      jumpi\n      0x0100\n      dup1\n      dup4\n      sload\n      div\n      mul\n      dup4\n      mstore\n      swap2\n      0x20\n      add\n      swap2\n      jump(tag_68)\n    tag_69:\n      dup3\n      add\n      swap2\n      swap1\n      0x00\n      mstore\n      keccak256(0x00, 0x20)\n      swap1\n    tag_70:\n      dup2\n      sload\n      dup2\n      mstore\n      swap1\n      0x01\n      add\n      swap1\n      0x20\n      add\n      dup1\n      dup4\n      gt\n      tag_70\n      jumpi\n      dup3\n      swap1\n      sub\n      0x1f\n      and\n      dup3\n      add\n      swap2\n    tag_68:\n      pop\n      pop\n      pop\n      pop\n      pop\n      swap1\n      dup1\n      0x03\n      add\n      dup1\n      sload\n      tag_71\n      swap1\n      tag_61\n      jump\t// in\n    tag_71:\n      dup1\n      0x1f\n      add\n      0x20\n      dup1\n      swap2\n      div\n      mul\n      0x20\n      add\n      mload(0x40)\n      swap1\n      dup2\n      add\n      0x40\n      mstore\n      dup1\n      swap3\n      swap2\n      swap1\n      dup2\n      dup2\n      mstore\n      0x20\n      add\n      dup3\n      dup1\n      sload\n      tag_72\n      swap1\n      tag_61\n      jump\t// in\n    tag_72:\n      dup1\n      iszero\n      tag_73\n      jumpi\n      dup1\n      0x1f\n      lt\n      tag_74\n      jumpi\n      0x0100\n      dup1\n      dup4\n      sload\n      div\n      mul\n      dup4\n      mstore\n      swap2\n      0x20\n      add\n      swap2\n      jump(tag_73)\n    tag_74:\n      dup3\n      add\n      swap2\n      swap1\n      0x00\n      mstore\n      keccak256(0x00, 0x20)\n      swap1\n    tag_75:\n      dup2\n      sload\n      dup2\n      mstore\n      swap1\n      0x01\n      add\n      swap1\n      0x20\n      add\n      dup1\n      dup4\n      gt\n      tag_75\n      jumpi\n      dup3\n      swap1\n      sub\n      0x1f\n      and\n      dup3\n      add\n      swap2\n    tag_73:\n      pop\n      pop\n      pop\n      pop\n      pop\n      swap1\n      dup1\n      0x04\n      add\n      dup1\n      sload\n      tag_76\n      swap1\n      tag_61\n      jump\t// in\n    tag_76:\n      dup1\n      0x1f\n      add\n      0x20\n      dup1\n      swap2\n      div\n      mul\n      0x20\n      add\n      mload(0x40)\n      swap1\n      dup2\n      add\n      0x40\n      mstore\n      dup1\n      swap3\n      swap2\n      swap1\n      dup2\n      dup2\n      mstore\n      0x20\n      add\n      dup3\n      dup1\n      sload\n      tag_77\n      swap1\n      tag_61\n      jump\t// in\n    tag_77:\n      dup1\n      iszero\n      tag_78\n      jumpi\n      dup1\n      0x1f\n      lt\n      tag_79\n      jumpi\n      0x0100\n      dup1\n      dup4\n      sload\n      div\n      mul\n      dup4\n      mstore\n      swap2\n      0x20\n      add\n      swap2\n      jump(tag_78)\n    tag_79:\n      dup3\n      add\n      swap2\n      swap1\n      0x00\n      mstore\n      keccak256(0x00, 0x20)\n      swap1\n    tag_80:\n      dup2\n      sload\n      dup2\n      mstore\n      swap1\n      0x01\n      add\n      swap1\n      0x20\n      add\n      dup1\n      dup4\n      gt\n      tag_80\n      jumpi\n      dup3\n      swap1\n      sub\n      0x1f\n      and\n      dup3\n      add\n      swap2\n    tag_78:\n      pop\n      pop\n      pop\n      pop\n      pop\n      swap1\n      dup1\n      0x05\n      add\n      sload\n      swap1\n      dup1\n      0x06\n      add\n      mload(0x40)\n      dup1\n      0xa0\n      add\n      0x40\n      mstore\n      swap1\n      dup2\n      0x00\n      dup3\n      add\n      dup1\n      sload\n      tag_81\n      swap1\n      tag_61\n      jump\t// in\n    tag_81:\n      dup1\n      0x1f\n      add\n      0x20\n      dup1\n      swap2\n      div\n      mul\n      0x20\n      add\n      mload(0x40)\n      swap1\n      dup2\n      add\n      0x40\n      mstore\n      dup1\n      swap3\n      swap2\n      swap1\n      dup2\n      dup2\n      mstore\n      0x20\n      add\n      dup3\n      dup1\n      sload\n      tag_82\n      swap1\n      tag_61\n      jump\t// in\n    tag_82:\n      dup1\n      iszero\n      tag_83\n      jumpi\n      dup1\n      0x1f\n      lt\n      tag_84\n      jumpi\n      0x0100\n      dup1\n      dup4\n      sload\n      div\n      mul\n      dup4\n      mstore\n      swap2\n      0x20\n      add\n      swap2\n      jump(tag_83)\n    tag_84:\n      dup3\n      add\n      swap2\n      swap1\n      0x00\n      mstore\n      keccak256(0x00, 0x20)\n      swap1\n    tag_85:\n      dup2\n      sload\n      dup2\n      mstore\n      swap1\n      0x01\n      add\n      swap1\n      0x20\n      add\n      dup1\n      dup4\n      gt\n      tag_85\n      jumpi\n      dup3\n      swap1\n      sub\n      0x1f\n      and\n      dup3\n      add\n      swap2\n    tag_83:\n      pop\n      pop\n      pop\n      pop\n      pop\n      dup2\n      mstore\n      0x20\n      add\n      0x01\n      dup3\n      add\n      dup1\n      sload\n      tag_86\n      swap1\n      tag_61\n      jump\t// in\n    tag_86:\n      dup1\n      0x1f\n      add\n      0x20\n      dup1\n      swap2\n      div\n      mul\n      0x20\n      add\n      mload(0x40)\n      swap1\n      dup2\n      add\n      0x40\n      mstore\n      dup1\n      swap3\n      swap2\n      swap1\n      dup2\n      dup2\n      mstore\n      0x20\n      add\n      dup3\n      dup1\n      sload\n      tag_87\n      swap1\n      tag_61\n      jump\t// in\n    tag_87:\n      dup1\n      iszero\n      tag_88\n      jumpi\n      dup1\n      0x1f\n      lt\n      tag_89\n      jumpi\n      0x0100\n      dup1\n      dup4\n      sload\n      div\n      mul\n      dup4\n      mstore\n      swap2\n      0x20\n      add\n      swap2\n      jump(tag_88)\n    tag_89:\n      dup3\n      add\n      swap2\n      swap1\n      0x00\n      mstore\n      keccak256(0x00, 0x20)\n      swap1\n    tag_90:\n      dup2\n      sload\n      dup2\n      mstore\n      swap1\n      0x01\n      add\n      swap1\n      0x20\n      add\n      dup1\n      dup4\n      gt\n      tag_90\n      jumpi\n      dup3\n      swap1\n      sub\n      0x1f\n      and\n      dup3\n      add\n      swap2\n    tag_88:\n      pop\n      pop\n      pop\n      pop\n      pop\n      dup2\n      mstore\n      0x20\n      add\n      0x02\n      dup3\n      add\n      dup1\n      sload\n      tag_91\n      swap1\n      tag_61\n      jump\t// in\n    tag_91:\n      dup1\n      0x1f\n      add\n      0x20\n      dup1\n      swap2\n      div\n      mul\n      0x20\n      add\n      mload(0x40)\n      swap1\n      dup2\n      add\n      0x40\n      mstore\n      dup1\n      swap3\n      swap2\n      swap1\n      dup2\n      dup2\n      mstore\n      0x20\n      add\n      dup3\n      dup1\n      sload\n      tag_92\n      swap1\n      tag_61\n      jump\t// in\n    tag_92:\n      dup1\n      iszero\n      tag_93\n      jumpi\n      dup1\n      0x1f\n      lt\n      tag_94\n      jumpi\n      0x0100\n      dup1\n      dup4\n      sload\n      div\n      mul\n      dup4\n      mstore\n      swap2\n      0x20\n      add\n      swap2\n      jump(tag_93)\n    tag_94:\n      dup3\n      add\n      swap2\n      swap1\n      0x00\n      mstore\n      keccak256(0x00, 0x20)\n      swap1\n    tag_95:\n      dup2\n      sload\n      dup2\n      mstore\n      swap1\n      0x01\n      add\n      swap1\n      0x20\n      add\n      dup1\n      dup4\n      gt\n      tag_95\n      jumpi\n      dup3\n      swap1\n      sub\n      0x1f\n      and\n      dup3\n      add\n      swap2\n    tag_93:\n      pop\n      pop\n      pop\n      pop\n      pop\n      dup2\n      mstore\n      0x20\n      add\n      0x03\n      dup3\n      add\n      dup1\n      sload\n      tag_96\n      swap1\n      tag_61\n      jump\t// in\n    tag_96:\n      dup1\n      0x1f\n      add\n      0x20\n      dup1\n      swap2\n      div\n      mul\n      0x20\n      add\n      mload(0x40)\n      swap1\n      dup2\n      add\n      0x40\n      mstore\n      dup1\n      swap3\n      swap2\n      swap1\n      dup2\n      dup2\n      mstore\n      0x20\n      add\n      dup3\n      dup1\n      sload\n      tag_97\n      swap1\n      tag_61\n      jump\t// in\n    tag_97:\n      dup1\n      iszero\n      tag_98\n      jumpi\n      dup1\n      0x1f\n      lt\n      tag_99\n      jumpi\n      0x0100\n      dup1\n      dup4\n      sload\n      div\n      mul\n      dup4\n      mstore\n      swap2\n      0x20\n      add\n      swap2\n      jump(tag_98)\n    tag_99:\n      dup3\n      add\n      swap2\n      swap1\n      0x00\n      mstore\n      keccak256(0x00, 0x20)\n      swap1\n    tag_100:\n      dup2\n      sload\n      dup2\n      mstore\n      swap1\n      0x01\n      add\n      swap1\n      0x20\n      add\n      dup1\n      dup4\n      gt\n      tag_100\n      jumpi\n      dup3\n      swap1\n      sub\n      0x1f\n      and\n      dup3\n      add\n      swap2\n    tag_98:\n      pop\n      pop\n      pop\n      pop\n      pop\n      dup2\n      mstore\n      0x20\n      add\n      0x04\n      dup3\n      add\n      dup1\n      sload\n      tag_101\n      swap1\n      tag_61\n      jump\t// in\n    tag_101:\n      dup1\n      0x1f\n      add\n      0x20\n      dup1\n      swap2\n      div\n      mul\n      0x20\n      add\n      mload(0x40)\n      swap1\n      dup2\n      add\n      0x40\n      mstore\n      dup1\n      swap3\n      swap2\n      swap1\n      dup2\n      dup2\n      mstore\n      0x20\n      add\n      dup3\n      dup1\n      sload\n      tag_102\n      swap1\n      tag_61\n      jump\t// in\n    tag_102:\n      dup1\n      iszero\n      tag_103\n      jumpi\n      dup1\n      0x1f\n      lt\n      tag_104\n      jumpi\n      0x0100\n      dup1\n      dup4\n      sload\n      div\n      mul\n      dup4\n      mstore\n      swap2\n      0x20\n      add\n      swap2\n      jump(tag_103)\n    tag_104:\n      dup3\n      add\n      swap2\n      swap1\n      0x00\n      mstore\n      keccak256(0x00, 0x20)\n      swap1\n    tag_105:\n      dup2\n      sload\n      dup2\n      mstore\n      swap1\n      0x01\n      add\n      swap1\n      0x20\n      add\n      dup1\n      dup4\n      gt\n      tag_105\n      jumpi\n      dup3\n      swap1\n      sub\n      0x1f\n      and\n      dup3\n      add\n      swap2\n    tag_103:\n      pop\n      pop\n      pop\n      pop\n      pop\n      dup2\n      mstore\n      pop\n      pop\n      swap1\n      dup1\n      0x0b\n      add\n      mload(0x40)\n      dup1\n      0x60\n      add\n      0x40\n      mstore\n      swap1\n      dup2\n      0x00\n      dup3\n      add\n      dup1\n      sload\n      dup1\n      0x20\n      mul\n      0x20\n      add\n      mload(0x40)\n      swap1\n      dup2\n      add\n      0x40\n      mstore\n      dup1\n      swap3\n      swap2\n      swap1\n      dup2\n      dup2\n      mstore\n      0x20\n      add\n      0x00\n      swap1\n    tag_106:\n      dup3\n      dup3\n      lt\n      iszero\n      tag_107\n      jumpi\n      dup4\n      dup3\n      swap1\n      0x00\n      mstore\n      keccak256(0x00, 0x20)\n      add\n      dup1\n      sload\n      tag_109\n      swap1\n      tag_61\n      jump\t// in\n    tag_109:\n      dup1\n      0x1f\n      add\n      0x20\n      dup1\n      swap2\n      div\n      mul\n      0x20\n      add\n      mload(0x40)\n      swap1\n      dup2\n      add\n      0x40\n      mstore\n      dup1\n      swap3\n      swap2\n      swap1\n      dup2\n      dup2\n      mstore\n      0x20\n      add\n      dup3\n      dup1\n      sload\n      tag_110\n      swap1\n      tag_61\n      jump\t// in\n    tag_110:\n      dup1\n      iszero\n      tag_111\n      jumpi\n      dup1\n      0x1f\n      lt\n      tag_112\n      jumpi\n      0x0100\n      dup1\n      dup4\n      sload\n      div\n      mul\n      dup4\n      mstore\n      swap2\n      0x20\n      add\n      swap2\n      jump(tag_111)\n    tag_112:\n      dup3\n      add\n      swap2\n      swap1\n      0x00\n      mstore\n      keccak256(0x00, 0x20)\n      swap1\n    tag_113:\n      dup2\n      sload\n      dup2\n      mstore\n      swap1\n      0x01\n      add\n      swap1\n      0x20\n      add\n      dup1\n      dup4\n      gt\n      tag_113\n      jumpi\n      dup3\n      swap1\n      sub\n      0x1f\n      and\n      dup3\n      add\n      swap2\n    tag_111:\n      pop\n      pop\n      pop\n      pop\n      pop\n      dup2\n      mstore\n      0x20\n      add\n      swap1\n      0x01\n      add\n      swap1\n      jump(tag_106)\n    tag_107:\n      pop\n      pop\n      pop\n      pop\n      dup2\n      mstore\n      0x20\n      add\n      0x01\n      dup3\n      add\n      dup1\n      sload\n      dup1\n      0x20\n      mul\n      0x20\n      add\n      mload(0x40)\n      swap1\n      dup2\n      add\n      0x40\n      mstore\n      dup1\n      swap3\n      swap2\n      swap1\n      dup2\n      dup2\n      mstore\n      0x20\n      add\n      0x00\n      swap1\n    tag_114:\n      dup3\n      dup3\n      lt\n      iszero\n      tag_115\n      jumpi\n      dup4\n      dup3\n      swap1\n      0x00\n      mstore\n      keccak256(0x00, 0x20)\n      add\n      dup1\n      sload\n      tag_117\n      swap1\n      tag_61\n      jump\t// in\n    tag_117:\n      dup1\n      0x1f\n      add\n      0x20\n      dup1\n      swap2\n      div\n      mul\n      0x20\n      add\n      mload(0x40)\n      swap1\n      dup2\n      add\n      0x40\n      mstore\n      dup1\n      swap3\n      swap2\n      swap1\n      dup2\n      dup2\n      mstore\n      0x20\n      add\n      dup3\n      dup1\n      sload\n      tag_118\n      swap1\n      tag_61\n      jump\t// in\n    tag_118:\n      dup1\n      iszero\n      tag_119\n      jumpi\n      dup1\n      0x1f\n      lt\n      tag_120\n      jumpi\n      0x0100\n      dup1\n      dup4\n      sload\n      div\n      mul\n      dup4\n      mstore\n      swap2\n      0x20\n      add\n      swap2\n      jump(tag_119)\n    tag_120:\n      dup3\n      add\n      swap2\n      swap1\n      0x00\n      mstore\n      keccak256(0x00, 0x20)\n      swap1\n    tag_121:\n      dup2\n      sload\n      dup2\n      mstore\n      swap1\n      0x01\n      add\n      swap1\n      0x20\n      add\n      dup1\n      dup4\n      gt\n      tag_121\n      jumpi\n      dup3\n      swap1\n      sub\n      0x1f\n      and\n      dup3\n      add\n      swap2\n    tag_119:\n      pop\n      pop\n      pop\n      pop\n      pop\n      dup2\n      mstore\n      0x20\n      add\n      swap1\n      0x01\n      add\n      swap1\n      jump(tag_114)\n    tag_115:\n      pop\n      pop\n      pop\n      pop\n      dup2\n      mstore\n      0x20\n      add\n      0x02\n      dup3\n      add\n      dup1\n      sload\n      dup1\n      0x20\n      mul\n      0x20\n      add\n      mload(0x40)\n      swap1\n      dup2\n      add\n      0x40\n      mstore\n      dup1\n      swap3\n      swap2\n      swap1\n      dup2\n      dup2\n      mstore\n      0x20\n      add\n      0x00\n      swap1\n    tag_122:\n      dup3\n      dup3\n      lt\n      iszero\n      tag_123\n      jumpi\n      dup4\n      dup3\n      swap1\n      0x00\n      mstore\n      keccak256(0x00, 0x20)\n      add\n      dup1\n      sload\n      tag_125\n      swap1\n      tag_61\n      jump\t// in\n    tag_125:\n      dup1\n      0x1f\n      add\n      0x20\n      dup1\n      swap2\n      div\n      mul\n      0x20\n      add\n      mload(0x40)\n      swap1\n      dup2\n      add\n      0x40\n      mstore\n      dup1\n      swap3\n      swap2\n      swap1\n      dup2\n      dup2\n      mstore\n      0x20\n      add\n      dup3\n      dup1\n      sload\n      tag_126\n      swap1\n      tag_61\n      jump\t// in\n    tag_126:\n      dup1\n      iszero\n      tag_127\n      jumpi\n      dup1\n      0x1f\n      lt\n      tag_128\n      jumpi\n      0x0100\n      dup1\n      dup4\n      sload\n      div\n      mul\n      dup4\n      mstore\n      swap2\n      0x20\n      add\n      swap2\n      jump(tag_127)\n    tag_128:\n      dup3\n      add\n      swap2\n      swap1\n      0x00\n      mstore\n      keccak256(0x00, 0x20)\n      swap1\n    tag_129:\n      dup2\n      sload\n      dup2\n      mstore\n      swap1\n      0x01\n      add\n      swap1\n      0x20\n      add\n      dup1\n      dup4\n      gt\n      tag_129\n      jumpi\n      dup3\n      swap1\n      sub\n      0x1f\n      and\n      dup3\n      add\n      swap2\n    tag_127:\n      pop\n      pop\n      pop\n      pop\n      pop\n      dup2\n      mstore\n      0x20\n      add\n      swap1\n      0x01\n      add\n      swap1\n      jump(tag_122)\n    tag_123:\n      pop\n      pop\n      pop\n      pop\n      dup2\n      mstore\n      pop\n      pop\n      swap1\n      pop\n      dup9\n      jump\t// out\n        /* \"contracts/Profile.sol\":2284:2409  function createUnivercity(string memory startDate, string memory endDate, string memory univercity) public {\r... */\n    tag_30:\n      pop\n      pop\n      pop\n      jump\t// out\n        /* \"contracts/Profile.sol\":2420:2496  function delProfile() external {\r... */\n    tag_32:\n        /* \"contracts/Profile.sol\":2469:2476  profile */\n      0x00\n        /* \"contracts/Profile.sol\":2469:2488  profile[msg.sender] */\n      dup1\n        /* \"contracts/Profile.sol\":2477:2487  msg.sender */\n      caller\n        /* \"contracts/Profile.sol\":2469:2488  profile[msg.sender] */\n      0xffffffffffffffffffffffffffffffffffffffff\n      and\n      0xffffffffffffffffffffffffffffffffffffffff\n      and\n      dup2\n      mstore\n      0x20\n      add\n      swap1\n      dup2\n      mstore\n      0x20\n      add\n      0x00\n      keccak256\n      0x00\n        /* \"contracts/Profile.sol\":2462:2488  delete profile[msg.sender] */\n      dup1\n      dup3\n      add\n      exp(0x0100, 0x00)\n      dup2\n      sload\n      swap1\n      0xffffffffffffffffffffffffffffffffffffffff\n      mul\n      not\n      and\n      swap1\n      sstore\n      0x01\n      dup3\n      add\n      0x00\n      tag_132\n      swap2\n      swap1\n      tag_44\n      jump\t// in\n    tag_132:\n      0x02\n      dup3\n      add\n      0x00\n      tag_133\n      swap2\n      swap1\n      tag_44\n      jump\t// in\n    tag_133:\n      0x03\n      dup3\n      add\n      0x00\n      tag_134\n      swap2\n      swap1\n      tag_44\n      jump\t// in\n    tag_134:\n      0x04\n      dup3\n      add\n      0x00\n      tag_135\n      swap2\n      swap1\n      tag_44\n      jump\t// in\n    tag_135:\n      0x05\n      dup3\n      add\n      0x00\n      swap1\n      sstore\n      0x06\n      dup3\n      add\n      0x00\n      dup1\n      dup3\n      add\n      0x00\n      tag_136\n      swap2\n      swap1\n      tag_44\n      jump\t// in\n    tag_136:\n      0x01\n      dup3\n      add\n      0x00\n      tag_137\n      swap2\n      swap1\n      tag_44\n      jump\t// in\n    tag_137:\n      0x02\n      dup3\n      add\n      0x00\n      tag_138\n      swap2\n      swap1\n      tag_44\n      jump\t// in\n    tag_138:\n      0x03\n      dup3\n      add\n      0x00\n      tag_139\n      swap2\n      swap1\n      tag_44\n      jump\t// in\n    tag_139:\n      0x04\n      dup3\n      add\n      0x00\n      tag_140\n      swap2\n      swap1\n      tag_44\n      jump\t// in\n    tag_140:\n      pop\n      pop\n      0x0b\n      dup3\n      add\n      0x00\n      dup1\n      dup3\n      add\n      0x00\n      tag_141\n      swap2\n      swap1\n      tag_35\n      jump\t// in\n    tag_141:\n      0x01\n      dup3\n      add\n      0x00\n      tag_142\n      swap2\n      swap1\n      tag_35\n      jump\t// in\n    tag_142:\n      0x02\n      dup3\n      add\n      0x00\n      tag_143\n      swap2\n      swap1\n      tag_35\n      jump\t// in\n    tag_143:\n      pop\n      pop\n      0x0e\n      dup3\n      add\n      0x00\n      tag_144\n      swap2\n      swap1\n      tag_145\n      jump\t// in\n    tag_144:\n      pop\n      pop\n        /* \"contracts/Profile.sol\":2420:2496  function delProfile() external {\r... */\n      jump\t// out\n    tag_35:\n      pop\n      dup1\n      sload\n      0x00\n      dup3\n      sstore\n      swap1\n      0x00\n      mstore\n      keccak256(0x00, 0x20)\n      swap1\n      dup2\n      add\n      swap1\n      tag_147\n      swap2\n      swap1\n      tag_148\n      jump\t// in\n    tag_147:\n      pop\n      jump\t// out\n    tag_39:\n      dup3\n      dup1\n      sload\n      dup3\n      dup3\n      sstore\n      swap1\n      0x00\n      mstore\n      keccak256(0x00, 0x20)\n      swap1\n      dup2\n      add\n      swap3\n      dup3\n      iszero\n      tag_149\n      jumpi\n      swap2\n      0x20\n      mul\n      dup3\n      add\n    tag_150:\n      dup3\n      dup2\n      gt\n      iszero\n      tag_151\n      jumpi\n      dup3\n      mload\n      dup3\n      swap1\n      dup1\n      mload\n      swap1\n      0x20\n      add\n      swap1\n      tag_152\n      swap3\n      swap2\n      swap1\n      tag_50\n      jump\t// in\n    tag_152:\n      pop\n      swap2\n      0x20\n      add\n      swap2\n      swap1\n      0x01\n      add\n      swap1\n      jump(tag_150)\n    tag_151:\n    tag_149:\n      pop\n      swap1\n      pop\n      tag_153\n      swap2\n      swap1\n      tag_148\n      jump\t// in\n    tag_153:\n      pop\n      swap1\n      jump\t// out\n    tag_44:\n      pop\n      dup1\n      sload\n      tag_154\n      swap1\n      tag_61\n      jump\t// in\n    tag_154:\n      0x00\n      dup3\n      sstore\n      dup1\n      0x1f\n      lt\n      tag_156\n      jumpi\n      pop\n      jump(tag_155)\n    tag_156:\n      0x1f\n      add\n      0x20\n      swap1\n      div\n      swap1\n      0x00\n      mstore\n      keccak256(0x00, 0x20)\n      swap1\n      dup2\n      add\n      swap1\n      tag_157\n      swap2\n      swap1\n      tag_158\n      jump\t// in\n    tag_157:\n    tag_155:\n      pop\n      jump\t// out\n    tag_50:\n      dup3\n      dup1\n      sload\n      tag_159\n      swap1\n      tag_61\n      jump\t// in\n    tag_159:\n      swap1\n      0x00\n      mstore\n      keccak256(0x00, 0x20)\n      swap1\n      0x1f\n      add\n      0x20\n      swap1\n      div\n      dup2\n      add\n      swap3\n      dup3\n      tag_161\n      jumpi\n      0x00\n      dup6\n      sstore\n      jump(tag_160)\n    tag_161:\n      dup3\n      0x1f\n      lt\n      tag_162\n      jumpi\n      dup1\n      mload\n      not(0xff)\n      and\n      dup4\n      dup1\n      add\n      or\n      dup6\n      sstore\n      jump(tag_160)\n    tag_162:\n      dup3\n      dup1\n      add\n      0x01\n      add\n      dup6\n      sstore\n      dup3\n      iszero\n      tag_160\n      jumpi\n      swap2\n      dup3\n      add\n    tag_163:\n      dup3\n      dup2\n      gt\n      iszero\n      tag_164\n      jumpi\n      dup3\n      mload\n      dup3\n      sstore\n      swap2\n      0x20\n      add\n      swap2\n      swap1\n      0x01\n      add\n      swap1\n      jump(tag_163)\n    tag_164:\n    tag_160:\n      pop\n      swap1\n      pop\n      tag_165\n      swap2\n      swap1\n      tag_158\n      jump\t// in\n    tag_165:\n      pop\n      swap1\n      jump\t// out\n    tag_145:\n      pop\n      dup1\n      sload\n      0x00\n      dup3\n      sstore\n      0x03\n      mul\n      swap1\n      0x00\n      mstore\n      keccak256(0x00, 0x20)\n      swap1\n      dup2\n      add\n      swap1\n      tag_167\n      swap2\n      swap1\n      tag_168\n      jump\t// in\n    tag_167:\n      pop\n      jump\t// out\n    tag_148:\n    tag_169:\n      dup1\n      dup3\n      gt\n      iszero\n      tag_170\n      jumpi\n      0x00\n      dup2\n      dup2\n      tag_171\n      swap2\n      swap1\n      tag_44\n      jump\t// in\n    tag_171:\n      pop\n      0x01\n      add\n      jump(tag_169)\n    tag_170:\n      pop\n      swap1\n      jump\t// out\n    tag_158:\n    tag_172:\n      dup1\n      dup3\n      gt\n      iszero\n      tag_173\n      jumpi\n      0x00\n      dup2\n      0x00\n      swap1\n      sstore\n      pop\n      0x01\n      add\n      jump(tag_172)\n    tag_173:\n      pop\n      swap1\n      jump\t// out\n    tag_168:\n    tag_174:\n      dup1\n      dup3\n      gt\n      iszero\n      tag_175\n      jumpi\n      0x00\n      dup1\n      dup3\n      add\n      0x00\n      tag_176\n      swap2\n      swap1\n      tag_44\n      jump\t// in\n    tag_176:\n      0x01\n      dup3\n      add\n      0x00\n      tag_177\n      swap2\n      swap1\n      tag_44\n      jump\t// in\n    tag_177:\n      0x02\n      dup3\n      add\n      0x00\n      tag_178\n      swap2\n      swap1\n      tag_44\n      jump\t// in\n    tag_178:\n      pop\n      0x03\n      add\n      jump(tag_174)\n    tag_175:\n      pop\n      swap1\n      jump\t// out\n        /* \"#utility.yul\":23:980   */\n    tag_180:\n        /* \"#utility.yul\":129:134   */\n      0x00\n        /* \"#utility.yul\":154:245   */\n      tag_182\n        /* \"#utility.yul\":170:244   */\n      tag_183\n        /* \"#utility.yul\":237:243   */\n      dup5\n        /* \"#utility.yul\":170:244   */\n      tag_184\n      jump\t// in\n    tag_183:\n        /* \"#utility.yul\":154:245   */\n      tag_185\n      jump\t// in\n    tag_182:\n        /* \"#utility.yul\":145:245   */\n      swap1\n      pop\n        /* \"#utility.yul\":265:270   */\n      dup1\n        /* \"#utility.yul\":294:300   */\n      dup4\n        /* \"#utility.yul\":287:292   */\n      dup3\n        /* \"#utility.yul\":280:301   */\n      mstore\n        /* \"#utility.yul\":328:332   */\n      0x20\n        /* \"#utility.yul\":321:326   */\n      dup3\n        /* \"#utility.yul\":317:333   */\n      add\n        /* \"#utility.yul\":310:333   */\n      swap1\n      pop\n        /* \"#utility.yul\":354:360   */\n      dup3\n        /* \"#utility.yul\":404:407   */\n      dup6\n        /* \"#utility.yul\":396:400   */\n      0x20\n        /* \"#utility.yul\":388:394   */\n      dup7\n        /* \"#utility.yul\":384:401   */\n      mul\n        /* \"#utility.yul\":379:382   */\n      dup3\n        /* \"#utility.yul\":375:402   */\n      add\n        /* \"#utility.yul\":372:408   */\n      gt\n        /* \"#utility.yul\":369:512   */\n      iszero\n      tag_186\n      jumpi\n        /* \"#utility.yul\":423:502   */\n      tag_187\n      tag_188\n      jump\t// in\n    tag_187:\n        /* \"#utility.yul\":369:512   */\n    tag_186:\n        /* \"#utility.yul\":536:537   */\n      0x00\n        /* \"#utility.yul\":521:974   */\n    tag_189:\n        /* \"#utility.yul\":546:552   */\n      dup6\n        /* \"#utility.yul\":543:544   */\n      dup2\n        /* \"#utility.yul\":540:553   */\n      lt\n        /* \"#utility.yul\":521:974   */\n      iszero\n      tag_191\n      jumpi\n        /* \"#utility.yul\":628:631   */\n      dup2\n        /* \"#utility.yul\":615:632   */\n      calldataload\n        /* \"#utility.yul\":664:682   */\n      0xffffffffffffffff\n        /* \"#utility.yul\":651:662   */\n      dup2\n        /* \"#utility.yul\":648:683   */\n      gt\n        /* \"#utility.yul\":645:767   */\n      iszero\n      tag_192\n      jumpi\n        /* \"#utility.yul\":686:765   */\n      tag_193\n      tag_194\n      jump\t// in\n    tag_193:\n        /* \"#utility.yul\":645:767   */\n    tag_192:\n        /* \"#utility.yul\":810:821   */\n      dup1\n        /* \"#utility.yul\":802:808   */\n      dup7\n        /* \"#utility.yul\":798:822   */\n      add\n        /* \"#utility.yul\":848:895   */\n      tag_195\n        /* \"#utility.yul\":891:894   */\n      dup10\n        /* \"#utility.yul\":879:889   */\n      dup3\n        /* \"#utility.yul\":848:895   */\n      tag_196\n      jump\t// in\n    tag_195:\n        /* \"#utility.yul\":843:846   */\n      dup6\n        /* \"#utility.yul\":836:896   */\n      mstore\n        /* \"#utility.yul\":925:929   */\n      0x20\n        /* \"#utility.yul\":920:923   */\n      dup6\n        /* \"#utility.yul\":916:930   */\n      add\n        /* \"#utility.yul\":909:930   */\n      swap5\n      pop\n        /* \"#utility.yul\":959:963   */\n      0x20\n        /* \"#utility.yul\":954:957   */\n      dup5\n        /* \"#utility.yul\":950:964   */\n      add\n        /* \"#utility.yul\":943:964   */\n      swap4\n      pop\n        /* \"#utility.yul\":581:974   */\n      pop\n      pop\n        /* \"#utility.yul\":568:569   */\n      0x01\n        /* \"#utility.yul\":565:566   */\n      dup2\n        /* \"#utility.yul\":561:570   */\n      add\n        /* \"#utility.yul\":556:570   */\n      swap1\n      pop\n        /* \"#utility.yul\":521:974   */\n      jump(tag_189)\n    tag_191:\n        /* \"#utility.yul\":525:539   */\n      pop\n        /* \"#utility.yul\":135:980   */\n      pop\n      pop\n        /* \"#utility.yul\":23:980   */\n      swap4\n      swap3\n      pop\n      pop\n      pop\n      jump\t// out\n        /* \"#utility.yul\":986:1398   */\n    tag_197:\n        /* \"#utility.yul\":1064:1069   */\n      0x00\n        /* \"#utility.yul\":1089:1155   */\n      tag_199\n        /* \"#utility.yul\":1105:1154   */\n      tag_200\n        /* \"#utility.yul\":1147:1153   */\n      dup5\n        /* \"#utility.yul\":1105:1154   */\n      tag_201\n      jump\t// in\n    tag_200:\n        /* \"#utility.yul\":1089:1155   */\n      tag_185\n      jump\t// in\n    tag_199:\n        /* \"#utility.yul\":1080:1155   */\n      swap1\n      pop\n        /* \"#utility.yul\":1178:1184   */\n      dup3\n        /* \"#utility.yul\":1171:1176   */\n      dup2\n        /* \"#utility.yul\":1164:1185   */\n      mstore\n        /* \"#utility.yul\":1216:1220   */\n      0x20\n        /* \"#utility.yul\":1209:1214   */\n      dup2\n        /* \"#utility.yul\":1205:1221   */\n      add\n        /* \"#utility.yul\":1254:1257   */\n      dup5\n        /* \"#utility.yul\":1245:1251   */\n      dup5\n        /* \"#utility.yul\":1240:1243   */\n      dup5\n        /* \"#utility.yul\":1236:1252   */\n      add\n        /* \"#utility.yul\":1233:1258   */\n      gt\n        /* \"#utility.yul\":1230:1342   */\n      iszero\n      tag_202\n      jumpi\n        /* \"#utility.yul\":1261:1340   */\n      tag_203\n      tag_204\n      jump\t// in\n    tag_203:\n        /* \"#utility.yul\":1230:1342   */\n    tag_202:\n        /* \"#utility.yul\":1351:1392   */\n      tag_205\n        /* \"#utility.yul\":1385:1391   */\n      dup5\n        /* \"#utility.yul\":1380:1383   */\n      dup3\n        /* \"#utility.yul\":1375:1378   */\n      dup6\n        /* \"#utility.yul\":1351:1392   */\n      tag_206\n      jump\t// in\n    tag_205:\n        /* \"#utility.yul\":1070:1398   */\n      pop\n        /* \"#utility.yul\":986:1398   */\n      swap4\n      swap3\n      pop\n      pop\n      pop\n      jump\t// out\n        /* \"#utility.yul\":1404:1543   */\n    tag_207:\n        /* \"#utility.yul\":1450:1455   */\n      0x00\n        /* \"#utility.yul\":1488:1494   */\n      dup2\n        /* \"#utility.yul\":1475:1495   */\n      calldataload\n        /* \"#utility.yul\":1466:1495   */\n      swap1\n      pop\n        /* \"#utility.yul\":1504:1537   */\n      tag_209\n        /* \"#utility.yul\":1531:1536   */\n      dup2\n        /* \"#utility.yul\":1504:1537   */\n      tag_210\n      jump\t// in\n    tag_209:\n        /* \"#utility.yul\":1404:1543   */\n      swap3\n      swap2\n      pop\n      pop\n      jump\t// out\n        /* \"#utility.yul\":1565:1955   */\n    tag_211:\n        /* \"#utility.yul\":1646:1651   */\n      0x00\n        /* \"#utility.yul\":1695:1698   */\n      dup3\n        /* \"#utility.yul\":1688:1692   */\n      0x1f\n        /* \"#utility.yul\":1680:1686   */\n      dup4\n        /* \"#utility.yul\":1676:1693   */\n      add\n        /* \"#utility.yul\":1672:1699   */\n      slt\n        /* \"#utility.yul\":1662:1784   */\n      tag_213\n      jumpi\n        /* \"#utility.yul\":1703:1782   */\n      tag_214\n      tag_194\n      jump\t// in\n    tag_214:\n        /* \"#utility.yul\":1662:1784   */\n    tag_213:\n        /* \"#utility.yul\":1820:1826   */\n      dup2\n        /* \"#utility.yul\":1807:1827   */\n      calldataload\n        /* \"#utility.yul\":1845:1949   */\n      tag_215\n        /* \"#utility.yul\":1945:1948   */\n      dup5\n        /* \"#utility.yul\":1937:1943   */\n      dup3\n        /* \"#utility.yul\":1930:1934   */\n      0x20\n        /* \"#utility.yul\":1922:1928   */\n      dup7\n        /* \"#utility.yul\":1918:1935   */\n      add\n        /* \"#utility.yul\":1845:1949   */\n      tag_180\n      jump\t// in\n    tag_215:\n        /* \"#utility.yul\":1836:1949   */\n      swap2\n      pop\n        /* \"#utility.yul\":1652:1955   */\n      pop\n        /* \"#utility.yul\":1565:1955   */\n      swap3\n      swap2\n      pop\n      pop\n      jump\t// out\n        /* \"#utility.yul\":1975:2315   */\n    tag_196:\n        /* \"#utility.yul\":2031:2036   */\n      0x00\n        /* \"#utility.yul\":2080:2083   */\n      dup3\n        /* \"#utility.yul\":2073:2077   */\n      0x1f\n        /* \"#utility.yul\":2065:2071   */\n      dup4\n        /* \"#utility.yul\":2061:2078   */\n      add\n        /* \"#utility.yul\":2057:2084   */\n      slt\n        /* \"#utility.yul\":2047:2169   */\n      tag_217\n      jumpi\n        /* \"#utility.yul\":2088:2167   */\n      tag_218\n      tag_194\n      jump\t// in\n    tag_218:\n        /* \"#utility.yul\":2047:2169   */\n    tag_217:\n        /* \"#utility.yul\":2205:2211   */\n      dup2\n        /* \"#utility.yul\":2192:2212   */\n      calldataload\n        /* \"#utility.yul\":2230:2309   */\n      tag_219\n        /* \"#utility.yul\":2305:2308   */\n      dup5\n        /* \"#utility.yul\":2297:2303   */\n      dup3\n        /* \"#utility.yul\":2290:2294   */\n      0x20\n        /* \"#utility.yul\":2282:2288   */\n      dup7\n        /* \"#utility.yul\":2278:2295   */\n      add\n        /* \"#utility.yul\":2230:2309   */\n      tag_197\n      jump\t// in\n    tag_219:\n        /* \"#utility.yul\":2221:2309   */\n      swap2\n      pop\n        /* \"#utility.yul\":2037:2315   */\n      pop\n        /* \"#utility.yul\":1975:2315   */\n      swap3\n      swap2\n      pop\n      pop\n      jump\t// out\n        /* \"#utility.yul\":2321:2650   */\n    tag_23:\n        /* \"#utility.yul\":2380:2386   */\n      0x00\n        /* \"#utility.yul\":2429:2431   */\n      0x20\n        /* \"#utility.yul\":2417:2426   */\n      dup3\n        /* \"#utility.yul\":2408:2415   */\n      dup5\n        /* \"#utility.yul\":2404:2427   */\n      sub\n        /* \"#utility.yul\":2400:2432   */\n      slt\n        /* \"#utility.yul\":2397:2516   */\n      iszero\n      tag_221\n      jumpi\n        /* \"#utility.yul\":2435:2514   */\n      tag_222\n      tag_223\n      jump\t// in\n    tag_222:\n        /* \"#utility.yul\":2397:2516   */\n    tag_221:\n        /* \"#utility.yul\":2555:2556   */\n      0x00\n        /* \"#utility.yul\":2580:2633   */\n      tag_224\n        /* \"#utility.yul\":2625:2632   */\n      dup5\n        /* \"#utility.yul\":2616:2622   */\n      dup3\n        /* \"#utility.yul\":2605:2614   */\n      dup6\n        /* \"#utility.yul\":2601:2623   */\n      add\n        /* \"#utility.yul\":2580:2633   */\n      tag_207\n      jump\t// in\n    tag_224:\n        /* \"#utility.yul\":2570:2633   */\n      swap2\n      pop\n        /* \"#utility.yul\":2526:2643   */\n      pop\n        /* \"#utility.yul\":2321:2650   */\n      swap3\n      swap2\n      pop\n      pop\n      jump\t// out\n        /* \"#utility.yul\":2656:3965   */\n    tag_11:\n        /* \"#utility.yul\":2838:2844   */\n      0x00\n        /* \"#utility.yul\":2846:2852   */\n      dup1\n        /* \"#utility.yul\":2854:2860   */\n      0x00\n        /* \"#utility.yul\":2903:2905   */\n      0x60\n        /* \"#utility.yul\":2891:2900   */\n      dup5\n        /* \"#utility.yul\":2882:2889   */\n      dup7\n        /* \"#utility.yul\":2878:2901   */\n      sub\n        /* \"#utility.yul\":2874:2906   */\n      slt\n        /* \"#utility.yul\":2871:2990   */\n      iszero\n      tag_226\n      jumpi\n        /* \"#utility.yul\":2909:2988   */\n      tag_227\n      tag_223\n      jump\t// in\n    tag_227:\n        /* \"#utility.yul\":2871:2990   */\n    tag_226:\n        /* \"#utility.yul\":3057:3058   */\n      0x00\n        /* \"#utility.yul\":3046:3055   */\n      dup5\n        /* \"#utility.yul\":3042:3059   */\n      add\n        /* \"#utility.yul\":3029:3060   */\n      calldataload\n        /* \"#utility.yul\":3087:3105   */\n      0xffffffffffffffff\n        /* \"#utility.yul\":3079:3085   */\n      dup2\n        /* \"#utility.yul\":3076:3106   */\n      gt\n        /* \"#utility.yul\":3073:3190   */\n      iszero\n      tag_228\n      jumpi\n        /* \"#utility.yul\":3109:3188   */\n      tag_229\n      tag_230\n      jump\t// in\n    tag_229:\n        /* \"#utility.yul\":3073:3190   */\n    tag_228:\n        /* \"#utility.yul\":3214:3302   */\n      tag_231\n        /* \"#utility.yul\":3294:3301   */\n      dup7\n        /* \"#utility.yul\":3285:3291   */\n      dup3\n        /* \"#utility.yul\":3274:3283   */\n      dup8\n        /* \"#utility.yul\":3270:3292   */\n      add\n        /* \"#utility.yul\":3214:3302   */\n      tag_211\n      jump\t// in\n    tag_231:\n        /* \"#utility.yul\":3204:3302   */\n      swap4\n      pop\n        /* \"#utility.yul\":3000:3312   */\n      pop\n        /* \"#utility.yul\":3379:3381   */\n      0x20\n        /* \"#utility.yul\":3368:3377   */\n      dup5\n        /* \"#utility.yul\":3364:3382   */\n      add\n        /* \"#utility.yul\":3351:3383   */\n      calldataload\n        /* \"#utility.yul\":3410:3428   */\n      0xffffffffffffffff\n        /* \"#utility.yul\":3402:3408   */\n      dup2\n        /* \"#utility.yul\":3399:3429   */\n      gt\n        /* \"#utility.yul\":3396:3513   */\n      iszero\n      tag_232\n      jumpi\n        /* \"#utility.yul\":3432:3511   */\n      tag_233\n      tag_230\n      jump\t// in\n    tag_233:\n        /* \"#utility.yul\":3396:3513   */\n    tag_232:\n        /* \"#utility.yul\":3537:3625   */\n      tag_234\n        /* \"#utility.yul\":3617:3624   */\n      dup7\n        /* \"#utility.yul\":3608:3614   */\n      dup3\n        /* \"#utility.yul\":3597:3606   */\n      dup8\n        /* \"#utility.yul\":3593:3615   */\n      add\n        /* \"#utility.yul\":3537:3625   */\n      tag_211\n      jump\t// in\n    tag_234:\n        /* \"#utility.yul\":3527:3625   */\n      swap3\n      pop\n        /* \"#utility.yul\":3322:3635   */\n      pop\n        /* \"#utility.yul\":3702:3704   */\n      0x40\n        /* \"#utility.yul\":3691:3700   */\n      dup5\n        /* \"#utility.yul\":3687:3705   */\n      add\n        /* \"#utility.yul\":3674:3706   */\n      calldataload\n        /* \"#utility.yul\":3733:3751   */\n      0xffffffffffffffff\n        /* \"#utility.yul\":3725:3731   */\n      dup2\n        /* \"#utility.yul\":3722:3752   */\n      gt\n        /* \"#utility.yul\":3719:3836   */\n      iszero\n      tag_235\n      jumpi\n        /* \"#utility.yul\":3755:3834   */\n      tag_236\n      tag_230\n      jump\t// in\n    tag_236:\n        /* \"#utility.yul\":3719:3836   */\n    tag_235:\n        /* \"#utility.yul\":3860:3948   */\n      tag_237\n        /* \"#utility.yul\":3940:3947   */\n      dup7\n        /* \"#utility.yul\":3931:3937   */\n      dup3\n        /* \"#utility.yul\":3920:3929   */\n      dup8\n        /* \"#utility.yul\":3916:3938   */\n      add\n        /* \"#utility.yul\":3860:3948   */\n      tag_211\n      jump\t// in\n    tag_237:\n        /* \"#utility.yul\":3850:3948   */\n      swap2\n      pop\n        /* \"#utility.yul\":3645:3958   */\n      pop\n        /* \"#utility.yul\":2656:3965   */\n      swap3\n      pop\n      swap3\n      pop\n      swap3\n      jump\t// out\n        /* \"#utility.yul\":3971:5130   */\n    tag_29:\n        /* \"#utility.yul\":4078:4084   */\n      0x00\n        /* \"#utility.yul\":4086:4092   */\n      dup1\n        /* \"#utility.yul\":4094:4100   */\n      0x00\n        /* \"#utility.yul\":4143:4145   */\n      0x60\n        /* \"#utility.yul\":4131:4140   */\n      dup5\n        /* \"#utility.yul\":4122:4129   */\n      dup7\n        /* \"#utility.yul\":4118:4141   */\n      sub\n        /* \"#utility.yul\":4114:4146   */\n      slt\n        /* \"#utility.yul\":4111:4230   */\n      iszero\n      tag_239\n      jumpi\n        /* \"#utility.yul\":4149:4228   */\n      tag_240\n      tag_223\n      jump\t// in\n    tag_240:\n        /* \"#utility.yul\":4111:4230   */\n    tag_239:\n        /* \"#utility.yul\":4297:4298   */\n      0x00\n        /* \"#utility.yul\":4286:4295   */\n      dup5\n        /* \"#utility.yul\":4282:4299   */\n      add\n        /* \"#utility.yul\":4269:4300   */\n      calldataload\n        /* \"#utility.yul\":4327:4345   */\n      0xffffffffffffffff\n        /* \"#utility.yul\":4319:4325   */\n      dup2\n        /* \"#utility.yul\":4316:4346   */\n      gt\n        /* \"#utility.yul\":4313:4430   */\n      iszero\n      tag_241\n      jumpi\n        /* \"#utility.yul\":4349:4428   */\n      tag_242\n      tag_230\n      jump\t// in\n    tag_242:\n        /* \"#utility.yul\":4313:4430   */\n    tag_241:\n        /* \"#utility.yul\":4454:4517   */\n      tag_243\n        /* \"#utility.yul\":4509:4516   */\n      dup7\n        /* \"#utility.yul\":4500:4506   */\n      dup3\n        /* \"#utility.yul\":4489:4498   */\n      dup8\n        /* \"#utility.yul\":4485:4507   */\n      add\n        /* \"#utility.yul\":4454:4517   */\n      tag_196\n      jump\t// in\n    tag_243:\n        /* \"#utility.yul\":4444:4517   */\n      swap4\n      pop\n        /* \"#utility.yul\":4240:4527   */\n      pop\n        /* \"#utility.yul\":4594:4596   */\n      0x20\n        /* \"#utility.yul\":4583:4592   */\n      dup5\n        /* \"#utility.yul\":4579:4597   */\n      add\n        /* \"#utility.yul\":4566:4598   */\n      calldataload\n        /* \"#utility.yul\":4625:4643   */\n      0xffffffffffffffff\n        /* \"#utility.yul\":4617:4623   */\n      dup2\n        /* \"#utility.yul\":4614:4644   */\n      gt\n        /* \"#utility.yul\":4611:4728   */\n      iszero\n      tag_244\n      jumpi\n        /* \"#utility.yul\":4647:4726   */\n      tag_245\n      tag_230\n      jump\t// in\n    tag_245:\n        /* \"#utility.yul\":4611:4728   */\n    tag_244:\n        /* \"#utility.yul\":4752:4815   */\n      tag_246\n        /* \"#utility.yul\":4807:4814   */\n      dup7\n        /* \"#utility.yul\":4798:4804   */\n      dup3\n        /* \"#utility.yul\":4787:4796   */\n      dup8\n        /* \"#utility.yul\":4783:4805   */\n      add\n        /* \"#utility.yul\":4752:4815   */\n      tag_196\n      jump\t// in\n    tag_246:\n        /* \"#utility.yul\":4742:4815   */\n      swap3\n      pop\n        /* \"#utility.yul\":4537:4825   */\n      pop\n        /* \"#utility.yul\":4892:4894   */\n      0x40\n        /* \"#utility.yul\":4881:4890   */\n      dup5\n        /* \"#utility.yul\":4877:4895   */\n      add\n        /* \"#utility.yul\":4864:4896   */\n      calldataload\n        /* \"#utility.yul\":4923:4941   */\n      0xffffffffffffffff\n        /* \"#utility.yul\":4915:4921   */\n      dup2\n        /* \"#utility.yul\":4912:4942   */\n      gt\n        /* \"#utility.yul\":4909:5026   */\n      iszero\n      tag_247\n      jumpi\n        /* \"#utility.yul\":4945:5024   */\n      tag_248\n      tag_230\n      jump\t// in\n    tag_248:\n        /* \"#utility.yul\":4909:5026   */\n    tag_247:\n        /* \"#utility.yul\":5050:5113   */\n      tag_249\n        /* \"#utility.yul\":5105:5112   */\n      dup7\n        /* \"#utility.yul\":5096:5102   */\n      dup3\n        /* \"#utility.yul\":5085:5094   */\n      dup8\n        /* \"#utility.yul\":5081:5103   */\n      add\n        /* \"#utility.yul\":5050:5113   */\n      tag_196\n      jump\t// in\n    tag_249:\n        /* \"#utility.yul\":5040:5113   */\n      swap2\n      pop\n        /* \"#utility.yul\":4835:5123   */\n      pop\n        /* \"#utility.yul\":3971:5130   */\n      swap3\n      pop\n      swap3\n      pop\n      swap3\n      jump\t// out\n        /* \"#utility.yul\":5136:6621   */\n    tag_19:\n        /* \"#utility.yul\":5262:5268   */\n      0x00\n        /* \"#utility.yul\":5270:5276   */\n      dup1\n        /* \"#utility.yul\":5278:5284   */\n      0x00\n        /* \"#utility.yul\":5286:5292   */\n      dup1\n        /* \"#utility.yul\":5335:5338   */\n      0x80\n        /* \"#utility.yul\":5323:5332   */\n      dup6\n        /* \"#utility.yul\":5314:5321   */\n      dup8\n        /* \"#utility.yul\":5310:5333   */\n      sub\n        /* \"#utility.yul\":5306:5339   */\n      slt\n        /* \"#utility.yul\":5303:5423   */\n      iszero\n      tag_251\n      jumpi\n        /* \"#utility.yul\":5342:5421   */\n      tag_252\n      tag_223\n      jump\t// in\n    tag_252:\n        /* \"#utility.yul\":5303:5423   */\n    tag_251:\n        /* \"#utility.yul\":5490:5491   */\n      0x00\n        /* \"#utility.yul\":5479:5488   */\n      dup6\n        /* \"#utility.yul\":5475:5492   */\n      add\n        /* \"#utility.yul\":5462:5493   */\n      calldataload\n        /* \"#utility.yul\":5520:5538   */\n      0xffffffffffffffff\n        /* \"#utility.yul\":5512:5518   */\n      dup2\n        /* \"#utility.yul\":5509:5539   */\n      gt\n        /* \"#utility.yul\":5506:5623   */\n      iszero\n      tag_253\n      jumpi\n        /* \"#utility.yul\":5542:5621   */\n      tag_254\n      tag_230\n      jump\t// in\n    tag_254:\n        /* \"#utility.yul\":5506:5623   */\n    tag_253:\n        /* \"#utility.yul\":5647:5710   */\n      tag_255\n        /* \"#utility.yul\":5702:5709   */\n      dup8\n        /* \"#utility.yul\":5693:5699   */\n      dup3\n        /* \"#utility.yul\":5682:5691   */\n      dup9\n        /* \"#utility.yul\":5678:5700   */\n      add\n        /* \"#utility.yul\":5647:5710   */\n      tag_196\n      jump\t// in\n    tag_255:\n        /* \"#utility.yul\":5637:5710   */\n      swap5\n      pop\n        /* \"#utility.yul\":5433:5720   */\n      pop\n        /* \"#utility.yul\":5787:5789   */\n      0x20\n        /* \"#utility.yul\":5776:5785   */\n      dup6\n        /* \"#utility.yul\":5772:5790   */\n      add\n        /* \"#utility.yul\":5759:5791   */\n      calldataload\n        /* \"#utility.yul\":5818:5836   */\n      0xffffffffffffffff\n        /* \"#utility.yul\":5810:5816   */\n      dup2\n        /* \"#utility.yul\":5807:5837   */\n      gt\n        /* \"#utility.yul\":5804:5921   */\n      iszero\n      tag_256\n      jumpi\n        /* \"#utility.yul\":5840:5919   */\n      tag_257\n      tag_230\n      jump\t// in\n    tag_257:\n        /* \"#utility.yul\":5804:5921   */\n    tag_256:\n        /* \"#utility.yul\":5945:6008   */\n      tag_258\n        /* \"#utility.yul\":6000:6007   */\n      dup8\n        /* \"#utility.yul\":5991:5997   */\n      dup3\n        /* \"#utility.yul\":5980:5989   */\n      dup9\n        /* \"#utility.yul\":5976:5998   */\n      add\n        /* \"#utility.yul\":5945:6008   */\n      tag_196\n      jump\t// in\n    tag_258:\n        /* \"#utility.yul\":5935:6008   */\n      swap4\n      pop\n        /* \"#utility.yul\":5730:6018   */\n      pop\n        /* \"#utility.yul\":6085:6087   */\n      0x40\n        /* \"#utility.yul\":6074:6083   */\n      dup6\n        /* \"#utility.yul\":6070:6088   */\n      add\n        /* \"#utility.yul\":6057:6089   */\n      calldataload\n        /* \"#utility.yul\":6116:6134   */\n      0xffffffffffffffff\n        /* \"#utility.yul\":6108:6114   */\n      dup2\n        /* \"#utility.yul\":6105:6135   */\n      gt\n        /* \"#utility.yul\":6102:6219   */\n      iszero\n      tag_259\n      jumpi\n        /* \"#utility.yul\":6138:6217   */\n      tag_260\n      tag_230\n      jump\t// in\n    tag_260:\n        /* \"#utility.yul\":6102:6219   */\n    tag_259:\n        /* \"#utility.yul\":6243:6306   */\n      tag_261\n        /* \"#utility.yul\":6298:6305   */\n      dup8\n        /* \"#utility.yul\":6289:6295   */\n      dup3\n        /* \"#utility.yul\":6278:6287   */\n      dup9\n        /* \"#utility.yul\":6274:6296   */\n      add\n        /* \"#utility.yul\":6243:6306   */\n      tag_196\n      jump\t// in\n    tag_261:\n        /* \"#utility.yul\":6233:6306   */\n      swap3\n      pop\n        /* \"#utility.yul\":6028:6316   */\n      pop\n        /* \"#utility.yul\":6383:6385   */\n      0x60\n        /* \"#utility.yul\":6372:6381   */\n      dup6\n        /* \"#utility.yul\":6368:6386   */\n      add\n        /* \"#utility.yul\":6355:6387   */\n      calldataload\n        /* \"#utility.yul\":6414:6432   */\n      0xffffffffffffffff\n        /* \"#utility.yul\":6406:6412   */\n      dup2\n        /* \"#utility.yul\":6403:6433   */\n      gt\n        /* \"#utility.yul\":6400:6517   */\n      iszero\n      tag_262\n      jumpi\n        /* \"#utility.yul\":6436:6515   */\n      tag_263\n      tag_230\n      jump\t// in\n    tag_263:\n        /* \"#utility.yul\":6400:6517   */\n    tag_262:\n        /* \"#utility.yul\":6541:6604   */\n      tag_264\n        /* \"#utility.yul\":6596:6603   */\n      dup8\n        /* \"#utility.yul\":6587:6593   */\n      dup3\n        /* \"#utility.yul\":6576:6585   */\n      dup9\n        /* \"#utility.yul\":6572:6594   */\n      add\n        /* \"#utility.yul\":6541:6604   */\n      tag_196\n      jump\t// in\n    tag_264:\n        /* \"#utility.yul\":6531:6604   */\n      swap2\n      pop\n        /* \"#utility.yul\":6326:6614   */\n      pop\n        /* \"#utility.yul\":5136:6621   */\n      swap3\n      swap6\n      swap2\n      swap5\n      pop\n      swap3\n      pop\n      jump\t// out\n        /* \"#utility.yul\":6627:8438   */\n    tag_15:\n        /* \"#utility.yul\":6772:6778   */\n      0x00\n        /* \"#utility.yul\":6780:6786   */\n      dup1\n        /* \"#utility.yul\":6788:6794   */\n      0x00\n        /* \"#utility.yul\":6796:6802   */\n      dup1\n        /* \"#utility.yul\":6804:6810   */\n      0x00\n        /* \"#utility.yul\":6853:6856   */\n      0xa0\n        /* \"#utility.yul\":6841:6850   */\n      dup7\n        /* \"#utility.yul\":6832:6839   */\n      dup9\n        /* \"#utility.yul\":6828:6851   */\n      sub\n        /* \"#utility.yul\":6824:6857   */\n      slt\n        /* \"#utility.yul\":6821:6941   */\n      iszero\n      tag_266\n      jumpi\n        /* \"#utility.yul\":6860:6939   */\n      tag_267\n      tag_223\n      jump\t// in\n    tag_267:\n        /* \"#utility.yul\":6821:6941   */\n    tag_266:\n        /* \"#utility.yul\":7008:7009   */\n      0x00\n        /* \"#utility.yul\":6997:7006   */\n      dup7\n        /* \"#utility.yul\":6993:7010   */\n      add\n        /* \"#utility.yul\":6980:7011   */\n      calldataload\n        /* \"#utility.yul\":7038:7056   */\n      0xffffffffffffffff\n        /* \"#utility.yul\":7030:7036   */\n      dup2\n        /* \"#utility.yul\":7027:7057   */\n      gt\n        /* \"#utility.yul\":7024:7141   */\n      iszero\n      tag_268\n      jumpi\n        /* \"#utility.yul\":7060:7139   */\n      tag_269\n      tag_230\n      jump\t// in\n    tag_269:\n        /* \"#utility.yul\":7024:7141   */\n    tag_268:\n        /* \"#utility.yul\":7165:7228   */\n      tag_270\n        /* \"#utility.yul\":7220:7227   */\n      dup9\n        /* \"#utility.yul\":7211:7217   */\n      dup3\n        /* \"#utility.yul\":7200:7209   */\n      dup10\n        /* \"#utility.yul\":7196:7218   */\n      add\n        /* \"#utility.yul\":7165:7228   */\n      tag_196\n      jump\t// in\n    tag_270:\n        /* \"#utility.yul\":7155:7228   */\n      swap6\n      pop\n        /* \"#utility.yul\":6951:7238   */\n      pop\n        /* \"#utility.yul\":7305:7307   */\n      0x20\n        /* \"#utility.yul\":7294:7303   */\n      dup7\n        /* \"#utility.yul\":7290:7308   */\n      add\n        /* \"#utility.yul\":7277:7309   */\n      calldataload\n        /* \"#utility.yul\":7336:7354   */\n      0xffffffffffffffff\n        /* \"#utility.yul\":7328:7334   */\n      dup2\n        /* \"#utility.yul\":7325:7355   */\n      gt\n        /* \"#utility.yul\":7322:7439   */\n      iszero\n      tag_271\n      jumpi\n        /* \"#utility.yul\":7358:7437   */\n      tag_272\n      tag_230\n      jump\t// in\n    tag_272:\n        /* \"#utility.yul\":7322:7439   */\n    tag_271:\n        /* \"#utility.yul\":7463:7526   */\n      tag_273\n        /* \"#utility.yul\":7518:7525   */\n      dup9\n        /* \"#utility.yul\":7509:7515   */\n      dup3\n        /* \"#utility.yul\":7498:7507   */\n      dup10\n        /* \"#utility.yul\":7494:7516   */\n      add\n        /* \"#utility.yul\":7463:7526   */\n      tag_196\n      jump\t// in\n    tag_273:\n        /* \"#utility.yul\":7453:7526   */\n      swap5\n      pop\n        /* \"#utility.yul\":7248:7536   */\n      pop\n        /* \"#utility.yul\":7603:7605   */\n      0x40\n        /* \"#utility.yul\":7592:7601   */\n      dup7\n        /* \"#utility.yul\":7588:7606   */\n      add\n        /* \"#utility.yul\":7575:7607   */\n      calldataload\n        /* \"#utility.yul\":7634:7652   */\n      0xffffffffffffffff\n        /* \"#utility.yul\":7626:7632   */\n      dup2\n        /* \"#utility.yul\":7623:7653   */\n      gt\n        /* \"#utility.yul\":7620:7737   */\n      iszero\n      tag_274\n      jumpi\n        /* \"#utility.yul\":7656:7735   */\n      tag_275\n      tag_230\n      jump\t// in\n    tag_275:\n        /* \"#utility.yul\":7620:7737   */\n    tag_274:\n        /* \"#utility.yul\":7761:7824   */\n      tag_276\n        /* \"#utility.yul\":7816:7823   */\n      dup9\n        /* \"#utility.yul\":7807:7813   */\n      dup3\n        /* \"#utility.yul\":7796:7805   */\n      dup10\n        /* \"#utility.yul\":7792:7814   */\n      add\n        /* \"#utility.yul\":7761:7824   */\n      tag_196\n      jump\t// in\n    tag_276:\n        /* \"#utility.yul\":7751:7824   */\n      swap4\n      pop\n        /* \"#utility.yul\":7546:7834   */\n      pop\n        /* \"#utility.yul\":7901:7903   */\n      0x60\n        /* \"#utility.yul\":7890:7899   */\n      dup7\n        /* \"#utility.yul\":7886:7904   */\n      add\n        /* \"#utility.yul\":7873:7905   */\n      calldataload\n        /* \"#utility.yul\":7932:7950   */\n      0xffffffffffffffff\n        /* \"#utility.yul\":7924:7930   */\n      dup2\n        /* \"#utility.yul\":7921:7951   */\n      gt\n        /* \"#utility.yul\":7918:8035   */\n      iszero\n      tag_277\n      jumpi\n        /* \"#utility.yul\":7954:8033   */\n      tag_278\n      tag_230\n      jump\t// in\n    tag_278:\n        /* \"#utility.yul\":7918:8035   */\n    tag_277:\n        /* \"#utility.yul\":8059:8122   */\n      tag_279\n        /* \"#utility.yul\":8114:8121   */\n      dup9\n        /* \"#utility.yul\":8105:8111   */\n      dup3\n        /* \"#utility.yul\":8094:8103   */\n      dup10\n        /* \"#utility.yul\":8090:8112   */\n      add\n        /* \"#utility.yul\":8059:8122   */\n      tag_196\n      jump\t// in\n    tag_279:\n        /* \"#utility.yul\":8049:8122   */\n      swap3\n      pop\n        /* \"#utility.yul\":7844:8132   */\n      pop\n        /* \"#utility.yul\":8199:8202   */\n      0x80\n        /* \"#utility.yul\":8188:8197   */\n      dup7\n        /* \"#utility.yul\":8184:8203   */\n      add\n        /* \"#utility.yul\":8171:8204   */\n      calldataload\n        /* \"#utility.yul\":8231:8249   */\n      0xffffffffffffffff\n        /* \"#utility.yul\":8223:8229   */\n      dup2\n        /* \"#utility.yul\":8220:8250   */\n      gt\n        /* \"#utility.yul\":8217:8334   */\n      iszero\n      tag_280\n      jumpi\n        /* \"#utility.yul\":8253:8332   */\n      tag_281\n      tag_230\n      jump\t// in\n    tag_281:\n        /* \"#utility.yul\":8217:8334   */\n    tag_280:\n        /* \"#utility.yul\":8358:8421   */\n      tag_282\n        /* \"#utility.yul\":8413:8420   */\n      dup9\n        /* \"#utility.yul\":8404:8410   */\n      dup3\n        /* \"#utility.yul\":8393:8402   */\n      dup10\n        /* \"#utility.yul\":8389:8411   */\n      add\n        /* \"#utility.yul\":8358:8421   */\n      tag_196\n      jump\t// in\n    tag_282:\n        /* \"#utility.yul\":8348:8421   */\n      swap2\n      pop\n        /* \"#utility.yul\":8142:8431   */\n      pop\n        /* \"#utility.yul\":6627:8438   */\n      swap3\n      swap6\n      pop\n      swap3\n      swap6\n      swap1\n      swap4\n      pop\n      jump\t// out\n        /* \"#utility.yul\":8444:8640   */\n    tag_283:\n        /* \"#utility.yul\":8533:8543   */\n      0x00\n        /* \"#utility.yul\":8568:8634   */\n      tag_285\n        /* \"#utility.yul\":8630:8633   */\n      dup4\n        /* \"#utility.yul\":8622:8628   */\n      dup4\n        /* \"#utility.yul\":8568:8634   */\n      tag_286\n      jump\t// in\n    tag_285:\n        /* \"#utility.yul\":8554:8634   */\n      swap1\n      pop\n        /* \"#utility.yul\":8444:8640   */\n      swap3\n      swap2\n      pop\n      pop\n      jump\t// out\n        /* \"#utility.yul\":8646:8764   */\n    tag_287:\n        /* \"#utility.yul\":8733:8757   */\n      tag_289\n        /* \"#utility.yul\":8751:8756   */\n      dup2\n        /* \"#utility.yul\":8733:8757   */\n      tag_290\n      jump\t// in\n    tag_289:\n        /* \"#utility.yul\":8728:8731   */\n      dup3\n        /* \"#utility.yul\":8721:8758   */\n      mstore\n        /* \"#utility.yul\":8646:8764   */\n      pop\n      pop\n      jump\t// out\n        /* \"#utility.yul\":8798:9769   */\n    tag_291:\n        /* \"#utility.yul\":8927:8930   */\n      0x00\n        /* \"#utility.yul\":8956:9020   */\n      tag_293\n        /* \"#utility.yul\":9014:9019   */\n      dup3\n        /* \"#utility.yul\":8956:9020   */\n      tag_294\n      jump\t// in\n    tag_293:\n        /* \"#utility.yul\":9036:9122   */\n      tag_295\n        /* \"#utility.yul\":9115:9121   */\n      dup2\n        /* \"#utility.yul\":9110:9113   */\n      dup6\n        /* \"#utility.yul\":9036:9122   */\n      tag_296\n      jump\t// in\n    tag_295:\n        /* \"#utility.yul\":9029:9122   */\n      swap4\n      pop\n        /* \"#utility.yul\":9148:9151   */\n      dup4\n        /* \"#utility.yul\":9193:9197   */\n      0x20\n        /* \"#utility.yul\":9185:9191   */\n      dup3\n        /* \"#utility.yul\":9181:9198   */\n      mul\n        /* \"#utility.yul\":9176:9179   */\n      dup6\n        /* \"#utility.yul\":9172:9199   */\n      add\n        /* \"#utility.yul\":9223:9289   */\n      tag_297\n        /* \"#utility.yul\":9283:9288   */\n      dup6\n        /* \"#utility.yul\":9223:9289   */\n      tag_298\n      jump\t// in\n    tag_297:\n        /* \"#utility.yul\":9312:9319   */\n      dup1\n        /* \"#utility.yul\":9343:9344   */\n      0x00\n        /* \"#utility.yul\":9328:9724   */\n    tag_299:\n        /* \"#utility.yul\":9353:9359   */\n      dup6\n        /* \"#utility.yul\":9350:9351   */\n      dup2\n        /* \"#utility.yul\":9347:9360   */\n      lt\n        /* \"#utility.yul\":9328:9724   */\n      iszero\n      tag_301\n      jumpi\n        /* \"#utility.yul\":9424:9433   */\n      dup5\n        /* \"#utility.yul\":9418:9422   */\n      dup5\n        /* \"#utility.yul\":9414:9434   */\n      sub\n        /* \"#utility.yul\":9409:9412   */\n      dup10\n        /* \"#utility.yul\":9402:9435   */\n      mstore\n        /* \"#utility.yul\":9475:9481   */\n      dup2\n        /* \"#utility.yul\":9469:9482   */\n      mload\n        /* \"#utility.yul\":9503:9587   */\n      tag_302\n        /* \"#utility.yul\":9582:9586   */\n      dup6\n        /* \"#utility.yul\":9567:9580   */\n      dup3\n        /* \"#utility.yul\":9503:9587   */\n      tag_283\n      jump\t// in\n    tag_302:\n        /* \"#utility.yul\":9495:9587   */\n      swap5\n      pop\n        /* \"#utility.yul\":9610:9680   */\n      tag_303\n        /* \"#utility.yul\":9673:9679   */\n      dup4\n        /* \"#utility.yul\":9610:9680   */\n      tag_304\n      jump\t// in\n    tag_303:\n        /* \"#utility.yul\":9600:9680   */\n      swap3\n      pop\n        /* \"#utility.yul\":9709:9713   */\n      0x20\n        /* \"#utility.yul\":9704:9707   */\n      dup11\n        /* \"#utility.yul\":9700:9714   */\n      add\n        /* \"#utility.yul\":9693:9714   */\n      swap10\n      pop\n        /* \"#utility.yul\":9388:9724   */\n      pop\n        /* \"#utility.yul\":9375:9376   */\n      0x01\n        /* \"#utility.yul\":9372:9373   */\n      dup2\n        /* \"#utility.yul\":9368:9377   */\n      add\n        /* \"#utility.yul\":9363:9377   */\n      swap1\n      pop\n        /* \"#utility.yul\":9328:9724   */\n      jump(tag_299)\n    tag_301:\n        /* \"#utility.yul\":9332:9346   */\n      pop\n        /* \"#utility.yul\":9740:9744   */\n      dup3\n        /* \"#utility.yul\":9733:9744   */\n      swap8\n      pop\n        /* \"#utility.yul\":9760:9763   */\n      dup8\n        /* \"#utility.yul\":9753:9763   */\n      swap6\n      pop\n        /* \"#utility.yul\":8932:9769   */\n      pop\n      pop\n      pop\n      pop\n      pop\n        /* \"#utility.yul\":8798:9769   */\n      swap3\n      swap2\n      pop\n      pop\n      jump\t// out\n        /* \"#utility.yul\":9775:10119   */\n    tag_286:\n        /* \"#utility.yul\":9853:9856   */\n      0x00\n        /* \"#utility.yul\":9881:9920   */\n      tag_306\n        /* \"#utility.yul\":9914:9919   */\n      dup3\n        /* \"#utility.yul\":9881:9920   */\n      tag_307\n      jump\t// in\n    tag_306:\n        /* \"#utility.yul\":9936:9997   */\n      tag_308\n        /* \"#utility.yul\":9990:9996   */\n      dup2\n        /* \"#utility.yul\":9985:9988   */\n      dup6\n        /* \"#utility.yul\":9936:9997   */\n      tag_309\n      jump\t// in\n    tag_308:\n        /* \"#utility.yul\":9929:9997   */\n      swap4\n      pop\n        /* \"#utility.yul\":10006:10058   */\n      tag_310\n        /* \"#utility.yul\":10051:10057   */\n      dup2\n        /* \"#utility.yul\":10046:10049   */\n      dup6\n        /* \"#utility.yul\":10039:10043   */\n      0x20\n        /* \"#utility.yul\":10032:10037   */\n      dup7\n        /* \"#utility.yul\":10028:10044   */\n      add\n        /* \"#utility.yul\":10006:10058   */\n      tag_311\n      jump\t// in\n    tag_310:\n        /* \"#utility.yul\":10083:10112   */\n      tag_312\n        /* \"#utility.yul\":10105:10111   */\n      dup2\n        /* \"#utility.yul\":10083:10112   */\n      tag_313\n      jump\t// in\n    tag_312:\n        /* \"#utility.yul\":10078:10081   */\n      dup5\n        /* \"#utility.yul\":10074:10113   */\n      add\n        /* \"#utility.yul\":10067:10113   */\n      swap2\n      pop\n        /* \"#utility.yul\":9857:10119   */\n      pop\n        /* \"#utility.yul\":9775:10119   */\n      swap3\n      swap2\n      pop\n      pop\n      jump\t// out\n        /* \"#utility.yul\":10125:10489   */\n    tag_314:\n        /* \"#utility.yul\":10213:10216   */\n      0x00\n        /* \"#utility.yul\":10241:10280   */\n      tag_316\n        /* \"#utility.yul\":10274:10279   */\n      dup3\n        /* \"#utility.yul\":10241:10280   */\n      tag_307\n      jump\t// in\n    tag_316:\n        /* \"#utility.yul\":10296:10367   */\n      tag_317\n        /* \"#utility.yul\":10360:10366   */\n      dup2\n        /* \"#utility.yul\":10355:10358   */\n      dup6\n        /* \"#utility.yul\":10296:10367   */\n      tag_318\n      jump\t// in\n    tag_317:\n        /* \"#utility.yul\":10289:10367   */\n      swap4\n      pop\n        /* \"#utility.yul\":10376:10428   */\n      tag_319\n        /* \"#utility.yul\":10421:10427   */\n      dup2\n        /* \"#utility.yul\":10416:10419   */\n      dup6\n        /* \"#utility.yul\":10409:10413   */\n      0x20\n        /* \"#utility.yul\":10402:10407   */\n      dup7\n        /* \"#utility.yul\":10398:10414   */\n      add\n        /* \"#utility.yul\":10376:10428   */\n      tag_311\n      jump\t// in\n    tag_319:\n        /* \"#utility.yul\":10453:10482   */\n      tag_320\n        /* \"#utility.yul\":10475:10481   */\n      dup2\n        /* \"#utility.yul\":10453:10482   */\n      tag_313\n      jump\t// in\n    tag_320:\n        /* \"#utility.yul\":10448:10451   */\n      dup5\n        /* \"#utility.yul\":10444:10483   */\n      add\n        /* \"#utility.yul\":10437:10483   */\n      swap2\n      pop\n        /* \"#utility.yul\":10217:10489   */\n      pop\n        /* \"#utility.yul\":10125:10489   */\n      swap3\n      swap2\n      pop\n      pop\n      jump\t// out\n        /* \"#utility.yul\":10553:11971   */\n    tag_321:\n        /* \"#utility.yul\":10670:10673   */\n      0x00\n        /* \"#utility.yul\":10706:10710   */\n      0xa0\n        /* \"#utility.yul\":10701:10704   */\n      dup4\n        /* \"#utility.yul\":10697:10711   */\n      add\n        /* \"#utility.yul\":10794:10798   */\n      0x00\n        /* \"#utility.yul\":10787:10792   */\n      dup4\n        /* \"#utility.yul\":10783:10799   */\n      add\n        /* \"#utility.yul\":10777:10800   */\n      mload\n        /* \"#utility.yul\":10847:10850   */\n      dup5\n        /* \"#utility.yul\":10841:10845   */\n      dup3\n        /* \"#utility.yul\":10837:10851   */\n      sub\n        /* \"#utility.yul\":10830:10834   */\n      0x00\n        /* \"#utility.yul\":10825:10828   */\n      dup7\n        /* \"#utility.yul\":10821:10835   */\n      add\n        /* \"#utility.yul\":10814:10852   */\n      mstore\n        /* \"#utility.yul\":10873:10946   */\n      tag_323\n        /* \"#utility.yul\":10941:10945   */\n      dup3\n        /* \"#utility.yul\":10927:10939   */\n      dup3\n        /* \"#utility.yul\":10873:10946   */\n      tag_286\n      jump\t// in\n    tag_323:\n        /* \"#utility.yul\":10865:10946   */\n      swap2\n      pop\n        /* \"#utility.yul\":10721:10957   */\n      pop\n        /* \"#utility.yul\":11040:11044   */\n      0x20\n        /* \"#utility.yul\":11033:11038   */\n      dup4\n        /* \"#utility.yul\":11029:11045   */\n      add\n        /* \"#utility.yul\":11023:11046   */\n      mload\n        /* \"#utility.yul\":11093:11096   */\n      dup5\n        /* \"#utility.yul\":11087:11091   */\n      dup3\n        /* \"#utility.yul\":11083:11097   */\n      sub\n        /* \"#utility.yul\":11076:11080   */\n      0x20\n        /* \"#utility.yul\":11071:11074   */\n      dup7\n        /* \"#utility.yul\":11067:11081   */\n      add\n        /* \"#utility.yul\":11060:11098   */\n      mstore\n        /* \"#utility.yul\":11119:11192   */\n      tag_324\n        /* \"#utility.yul\":11187:11191   */\n      dup3\n        /* \"#utility.yul\":11173:11185   */\n      dup3\n        /* \"#utility.yul\":11119:11192   */\n      tag_286\n      jump\t// in\n    tag_324:\n        /* \"#utility.yul\":11111:11192   */\n      swap2\n      pop\n        /* \"#utility.yul\":10967:11203   */\n      pop\n        /* \"#utility.yul\":11287:11291   */\n      0x40\n        /* \"#utility.yul\":11280:11285   */\n      dup4\n        /* \"#utility.yul\":11276:11292   */\n      add\n        /* \"#utility.yul\":11270:11293   */\n      mload\n        /* \"#utility.yul\":11340:11343   */\n      dup5\n        /* \"#utility.yul\":11334:11338   */\n      dup3\n        /* \"#utility.yul\":11330:11344   */\n      sub\n        /* \"#utility.yul\":11323:11327   */\n      0x40\n        /* \"#utility.yul\":11318:11321   */\n      dup7\n        /* \"#utility.yul\":11314:11328   */\n      add\n        /* \"#utility.yul\":11307:11345   */\n      mstore\n        /* \"#utility.yul\":11366:11439   */\n      tag_325\n        /* \"#utility.yul\":11434:11438   */\n      dup3\n        /* \"#utility.yul\":11420:11432   */\n      dup3\n        /* \"#utility.yul\":11366:11439   */\n      tag_286\n      jump\t// in\n    tag_325:\n        /* \"#utility.yul\":11358:11439   */\n      swap2\n      pop\n        /* \"#utility.yul\":11213:11450   */\n      pop\n        /* \"#utility.yul\":11534:11538   */\n      0x60\n        /* \"#utility.yul\":11527:11532   */\n      dup4\n        /* \"#utility.yul\":11523:11539   */\n      add\n        /* \"#utility.yul\":11517:11540   */\n      mload\n        /* \"#utility.yul\":11587:11590   */\n      dup5\n        /* \"#utility.yul\":11581:11585   */\n      dup3\n        /* \"#utility.yul\":11577:11591   */\n      sub\n        /* \"#utility.yul\":11570:11574   */\n      0x60\n        /* \"#utility.yul\":11565:11568   */\n      dup7\n        /* \"#utility.yul\":11561:11575   */\n      add\n        /* \"#utility.yul\":11554:11592   */\n      mstore\n        /* \"#utility.yul\":11613:11686   */\n      tag_326\n        /* \"#utility.yul\":11681:11685   */\n      dup3\n        /* \"#utility.yul\":11667:11679   */\n      dup3\n        /* \"#utility.yul\":11613:11686   */\n      tag_286\n      jump\t// in\n    tag_326:\n        /* \"#utility.yul\":11605:11686   */\n      swap2\n      pop\n        /* \"#utility.yul\":11460:11697   */\n      pop\n        /* \"#utility.yul\":11781:11785   */\n      0x80\n        /* \"#utility.yul\":11774:11779   */\n      dup4\n        /* \"#utility.yul\":11770:11786   */\n      add\n        /* \"#utility.yul\":11764:11787   */\n      mload\n        /* \"#utility.yul\":11834:11837   */\n      dup5\n        /* \"#utility.yul\":11828:11832   */\n      dup3\n        /* \"#utility.yul\":11824:11838   */\n      sub\n        /* \"#utility.yul\":11817:11821   */\n      0x80\n        /* \"#utility.yul\":11812:11815   */\n      dup7\n        /* \"#utility.yul\":11808:11822   */\n      add\n        /* \"#utility.yul\":11801:11839   */\n      mstore\n        /* \"#utility.yul\":11860:11933   */\n      tag_327\n        /* \"#utility.yul\":11928:11932   */\n      dup3\n        /* \"#utility.yul\":11914:11926   */\n      dup3\n        /* \"#utility.yul\":11860:11933   */\n      tag_286\n      jump\t// in\n    tag_327:\n        /* \"#utility.yul\":11852:11933   */\n      swap2\n      pop\n        /* \"#utility.yul\":11707:11944   */\n      pop\n        /* \"#utility.yul\":11961:11965   */\n      dup1\n        /* \"#utility.yul\":11954:11965   */\n      swap2\n      pop\n        /* \"#utility.yul\":10675:11971   */\n      pop\n        /* \"#utility.yul\":10553:11971   */\n      swap3\n      swap2\n      pop\n      pop\n      jump\t// out\n        /* \"#utility.yul\":12029:13105   */\n    tag_328:\n        /* \"#utility.yul\":12140:12143   */\n      0x00\n        /* \"#utility.yul\":12176:12180   */\n      0x60\n        /* \"#utility.yul\":12171:12174   */\n      dup4\n        /* \"#utility.yul\":12167:12181   */\n      add\n        /* \"#utility.yul\":12267:12271   */\n      0x00\n        /* \"#utility.yul\":12260:12265   */\n      dup4\n        /* \"#utility.yul\":12256:12272   */\n      add\n        /* \"#utility.yul\":12250:12273   */\n      mload\n        /* \"#utility.yul\":12320:12323   */\n      dup5\n        /* \"#utility.yul\":12314:12318   */\n      dup3\n        /* \"#utility.yul\":12310:12324   */\n      sub\n        /* \"#utility.yul\":12303:12307   */\n      0x00\n        /* \"#utility.yul\":12298:12301   */\n      dup7\n        /* \"#utility.yul\":12294:12308   */\n      add\n        /* \"#utility.yul\":12287:12325   */\n      mstore\n        /* \"#utility.yul\":12346:12469   */\n      tag_330\n        /* \"#utility.yul\":12464:12468   */\n      dup3\n        /* \"#utility.yul\":12450:12462   */\n      dup3\n        /* \"#utility.yul\":12346:12469   */\n      tag_291\n      jump\t// in\n    tag_330:\n        /* \"#utility.yul\":12338:12469   */\n      swap2\n      pop\n        /* \"#utility.yul\":12191:12480   */\n      pop\n        /* \"#utility.yul\":12565:12569   */\n      0x20\n        /* \"#utility.yul\":12558:12563   */\n      dup4\n        /* \"#utility.yul\":12554:12570   */\n      add\n        /* \"#utility.yul\":12548:12571   */\n      mload\n        /* \"#utility.yul\":12618:12621   */\n      dup5\n        /* \"#utility.yul\":12612:12616   */\n      dup3\n        /* \"#utility.yul\":12608:12622   */\n      sub\n        /* \"#utility.yul\":12601:12605   */\n      0x20\n        /* \"#utility.yul\":12596:12599   */\n      dup7\n        /* \"#utility.yul\":12592:12606   */\n      add\n        /* \"#utility.yul\":12585:12623   */\n      mstore\n        /* \"#utility.yul\":12644:12767   */\n      tag_331\n        /* \"#utility.yul\":12762:12766   */\n      dup3\n        /* \"#utility.yul\":12748:12760   */\n      dup3\n        /* \"#utility.yul\":12644:12767   */\n      tag_291\n      jump\t// in\n    tag_331:\n        /* \"#utility.yul\":12636:12767   */\n      swap2\n      pop\n        /* \"#utility.yul\":12490:12778   */\n      pop\n        /* \"#utility.yul\":12865:12869   */\n      0x40\n        /* \"#utility.yul\":12858:12863   */\n      dup4\n        /* \"#utility.yul\":12854:12870   */\n      add\n        /* \"#utility.yul\":12848:12871   */\n      mload\n        /* \"#utility.yul\":12918:12921   */\n      dup5\n        /* \"#utility.yul\":12912:12916   */\n      dup3\n        /* \"#utility.yul\":12908:12922   */\n      sub\n        /* \"#utility.yul\":12901:12905   */\n      0x40\n        /* \"#utility.yul\":12896:12899   */\n      dup7\n        /* \"#utility.yul\":12892:12906   */\n      add\n        /* \"#utility.yul\":12885:12923   */\n      mstore\n        /* \"#utility.yul\":12944:13067   */\n      tag_332\n        /* \"#utility.yul\":13062:13066   */\n      dup3\n        /* \"#utility.yul\":13048:13060   */\n      dup3\n        /* \"#utility.yul\":12944:13067   */\n      tag_291\n      jump\t// in\n    tag_332:\n        /* \"#utility.yul\":12936:13067   */\n      swap2\n      pop\n        /* \"#utility.yul\":12788:13078   */\n      pop\n        /* \"#utility.yul\":13095:13099   */\n      dup1\n        /* \"#utility.yul\":13088:13099   */\n      swap2\n      pop\n        /* \"#utility.yul\":12145:13105   */\n      pop\n        /* \"#utility.yul\":12029:13105   */\n      swap3\n      swap2\n      pop\n      pop\n      jump\t// out\n        /* \"#utility.yul\":13111:13229   */\n    tag_333:\n        /* \"#utility.yul\":13198:13222   */\n      tag_335\n        /* \"#utility.yul\":13216:13221   */\n      dup2\n        /* \"#utility.yul\":13198:13222   */\n      tag_336\n      jump\t// in\n    tag_335:\n        /* \"#utility.yul\":13193:13196   */\n      dup3\n        /* \"#utility.yul\":13186:13223   */\n      mstore\n        /* \"#utility.yul\":13111:13229   */\n      pop\n      pop\n      jump\t// out\n        /* \"#utility.yul\":13235:14878   */\n    tag_26:\n        /* \"#utility.yul\":13694:13698   */\n      0x00\n        /* \"#utility.yul\":13732:13735   */\n      0x0100\n        /* \"#utility.yul\":13721:13730   */\n      dup3\n        /* \"#utility.yul\":13717:13736   */\n      add\n        /* \"#utility.yul\":13709:13736   */\n      swap1\n      pop\n        /* \"#utility.yul\":13746:13817   */\n      tag_338\n        /* \"#utility.yul\":13814:13815   */\n      0x00\n        /* \"#utility.yul\":13803:13812   */\n      dup4\n        /* \"#utility.yul\":13799:13816   */\n      add\n        /* \"#utility.yul\":13790:13796   */\n      dup12\n        /* \"#utility.yul\":13746:13817   */\n      tag_287\n      jump\t// in\n    tag_338:\n        /* \"#utility.yul\":13864:13873   */\n      dup2\n        /* \"#utility.yul\":13858:13862   */\n      dup2\n        /* \"#utility.yul\":13854:13874   */\n      sub\n        /* \"#utility.yul\":13849:13851   */\n      0x20\n        /* \"#utility.yul\":13838:13847   */\n      dup4\n        /* \"#utility.yul\":13834:13852   */\n      add\n        /* \"#utility.yul\":13827:13875   */\n      mstore\n        /* \"#utility.yul\":13892:13970   */\n      tag_339\n        /* \"#utility.yul\":13965:13969   */\n      dup2\n        /* \"#utility.yul\":13956:13962   */\n      dup11\n        /* \"#utility.yul\":13892:13970   */\n      tag_314\n      jump\t// in\n    tag_339:\n        /* \"#utility.yul\":13884:13970   */\n      swap1\n      pop\n        /* \"#utility.yul\":14017:14026   */\n      dup2\n        /* \"#utility.yul\":14011:14015   */\n      dup2\n        /* \"#utility.yul\":14007:14027   */\n      sub\n        /* \"#utility.yul\":14002:14004   */\n      0x40\n        /* \"#utility.yul\":13991:14000   */\n      dup4\n        /* \"#utility.yul\":13987:14005   */\n      add\n        /* \"#utility.yul\":13980:14028   */\n      mstore\n        /* \"#utility.yul\":14045:14123   */\n      tag_340\n        /* \"#utility.yul\":14118:14122   */\n      dup2\n        /* \"#utility.yul\":14109:14115   */\n      dup10\n        /* \"#utility.yul\":14045:14123   */\n      tag_314\n      jump\t// in\n    tag_340:\n        /* \"#utility.yul\":14037:14123   */\n      swap1\n      pop\n        /* \"#utility.yul\":14170:14179   */\n      dup2\n        /* \"#utility.yul\":14164:14168   */\n      dup2\n        /* \"#utility.yul\":14160:14180   */\n      sub\n        /* \"#utility.yul\":14155:14157   */\n      0x60\n        /* \"#utility.yul\":14144:14153   */\n      dup4\n        /* \"#utility.yul\":14140:14158   */\n      add\n        /* \"#utility.yul\":14133:14181   */\n      mstore\n        /* \"#utility.yul\":14198:14276   */\n      tag_341\n        /* \"#utility.yul\":14271:14275   */\n      dup2\n        /* \"#utility.yul\":14262:14268   */\n      dup9\n        /* \"#utility.yul\":14198:14276   */\n      tag_314\n      jump\t// in\n    tag_341:\n        /* \"#utility.yul\":14190:14276   */\n      swap1\n      pop\n        /* \"#utility.yul\":14324:14333   */\n      dup2\n        /* \"#utility.yul\":14318:14322   */\n      dup2\n        /* \"#utility.yul\":14314:14334   */\n      sub\n        /* \"#utility.yul\":14308:14311   */\n      0x80\n        /* \"#utility.yul\":14297:14306   */\n      dup4\n        /* \"#utility.yul\":14293:14312   */\n      add\n        /* \"#utility.yul\":14286:14335   */\n      mstore\n        /* \"#utility.yul\":14352:14430   */\n      tag_342\n        /* \"#utility.yul\":14425:14429   */\n      dup2\n        /* \"#utility.yul\":14416:14422   */\n      dup8\n        /* \"#utility.yul\":14352:14430   */\n      tag_314\n      jump\t// in\n    tag_342:\n        /* \"#utility.yul\":14344:14430   */\n      swap1\n      pop\n        /* \"#utility.yul\":14440:14513   */\n      tag_343\n        /* \"#utility.yul\":14508:14511   */\n      0xa0\n        /* \"#utility.yul\":14497:14506   */\n      dup4\n        /* \"#utility.yul\":14493:14512   */\n      add\n        /* \"#utility.yul\":14484:14490   */\n      dup7\n        /* \"#utility.yul\":14440:14513   */\n      tag_333\n      jump\t// in\n    tag_343:\n        /* \"#utility.yul\":14561:14570   */\n      dup2\n        /* \"#utility.yul\":14555:14559   */\n      dup2\n        /* \"#utility.yul\":14551:14571   */\n      sub\n        /* \"#utility.yul\":14545:14548   */\n      0xc0\n        /* \"#utility.yul\":14534:14543   */\n      dup4\n        /* \"#utility.yul\":14530:14549   */\n      add\n        /* \"#utility.yul\":14523:14572   */\n      mstore\n        /* \"#utility.yul\":14589:14695   */\n      tag_344\n        /* \"#utility.yul\":14690:14694   */\n      dup2\n        /* \"#utility.yul\":14681:14687   */\n      dup6\n        /* \"#utility.yul\":14589:14695   */\n      tag_321\n      jump\t// in\n    tag_344:\n        /* \"#utility.yul\":14581:14695   */\n      swap1\n      pop\n        /* \"#utility.yul\":14743:14752   */\n      dup2\n        /* \"#utility.yul\":14737:14741   */\n      dup2\n        /* \"#utility.yul\":14733:14753   */\n      sub\n        /* \"#utility.yul\":14727:14730   */\n      0xe0\n        /* \"#utility.yul\":14716:14725   */\n      dup4\n        /* \"#utility.yul\":14712:14731   */\n      add\n        /* \"#utility.yul\":14705:14754   */\n      mstore\n        /* \"#utility.yul\":14771:14871   */\n      tag_345\n        /* \"#utility.yul\":14866:14870   */\n      dup2\n        /* \"#utility.yul\":14857:14863   */\n      dup5\n        /* \"#utility.yul\":14771:14871   */\n      tag_328\n      jump\t// in\n    tag_345:\n        /* \"#utility.yul\":14763:14871   */\n      swap1\n      pop\n        /* \"#utility.yul\":13235:14878   */\n      swap10\n      swap9\n      pop\n      pop\n      pop\n      pop\n      pop\n      pop\n      pop\n      pop\n      pop\n      jump\t// out\n        /* \"#utility.yul\":14884:15013   */\n    tag_185:\n        /* \"#utility.yul\":14918:14924   */\n      0x00\n        /* \"#utility.yul\":14945:14965   */\n      tag_347\n      tag_348\n      jump\t// in\n    tag_347:\n        /* \"#utility.yul\":14935:14965   */\n      swap1\n      pop\n        /* \"#utility.yul\":14974:15007   */\n      tag_349\n        /* \"#utility.yul\":15002:15006   */\n      dup3\n        /* \"#utility.yul\":14994:15000   */\n      dup3\n        /* \"#utility.yul\":14974:15007   */\n      tag_350\n      jump\t// in\n    tag_349:\n        /* \"#utility.yul\":14884:15013   */\n      swap2\n      swap1\n      pop\n      jump\t// out\n        /* \"#utility.yul\":15019:15094   */\n    tag_348:\n        /* \"#utility.yul\":15052:15058   */\n      0x00\n        /* \"#utility.yul\":15085:15087   */\n      0x40\n        /* \"#utility.yul\":15079:15088   */\n      mload\n        /* \"#utility.yul\":15069:15088   */\n      swap1\n      pop\n        /* \"#utility.yul\":15019:15094   */\n      swap1\n      jump\t// out\n        /* \"#utility.yul\":15100:15421   */\n    tag_184:\n        /* \"#utility.yul\":15187:15191   */\n      0x00\n        /* \"#utility.yul\":15277:15295   */\n      0xffffffffffffffff\n        /* \"#utility.yul\":15269:15275   */\n      dup3\n        /* \"#utility.yul\":15266:15296   */\n      gt\n        /* \"#utility.yul\":15263:15319   */\n      iszero\n      tag_353\n      jumpi\n        /* \"#utility.yul\":15299:15317   */\n      tag_354\n      tag_355\n      jump\t// in\n    tag_354:\n        /* \"#utility.yul\":15263:15319   */\n    tag_353:\n        /* \"#utility.yul\":15349:15353   */\n      0x20\n        /* \"#utility.yul\":15341:15347   */\n      dup3\n        /* \"#utility.yul\":15337:15354   */\n      mul\n        /* \"#utility.yul\":15329:15354   */\n      swap1\n      pop\n        /* \"#utility.yul\":15409:15413   */\n      0x20\n        /* \"#utility.yul\":15403:15407   */\n      dup2\n        /* \"#utility.yul\":15399:15414   */\n      add\n        /* \"#utility.yul\":15391:15414   */\n      swap1\n      pop\n        /* \"#utility.yul\":15100:15421   */\n      swap2\n      swap1\n      pop\n      jump\t// out\n        /* \"#utility.yul\":15427:15735   */\n    tag_201:\n        /* \"#utility.yul\":15489:15493   */\n      0x00\n        /* \"#utility.yul\":15579:15597   */\n      0xffffffffffffffff\n        /* \"#utility.yul\":15571:15577   */\n      dup3\n        /* \"#utility.yul\":15568:15598   */\n      gt\n        /* \"#utility.yul\":15565:15621   */\n      iszero\n      tag_357\n      jumpi\n        /* \"#utility.yul\":15601:15619   */\n      tag_358\n      tag_355\n      jump\t// in\n    tag_358:\n        /* \"#utility.yul\":15565:15621   */\n    tag_357:\n        /* \"#utility.yul\":15639:15668   */\n      tag_359\n        /* \"#utility.yul\":15661:15667   */\n      dup3\n        /* \"#utility.yul\":15639:15668   */\n      tag_313\n      jump\t// in\n    tag_359:\n        /* \"#utility.yul\":15631:15668   */\n      swap1\n      pop\n        /* \"#utility.yul\":15723:15727   */\n      0x20\n        /* \"#utility.yul\":15717:15721   */\n      dup2\n        /* \"#utility.yul\":15713:15728   */\n      add\n        /* \"#utility.yul\":15705:15728   */\n      swap1\n      pop\n        /* \"#utility.yul\":15427:15735   */\n      swap2\n      swap1\n      pop\n      jump\t// out\n        /* \"#utility.yul\":15741:15883   */\n    tag_298:\n        /* \"#utility.yul\":15818:15822   */\n      0x00\n        /* \"#utility.yul\":15841:15844   */\n      dup2\n        /* \"#utility.yul\":15833:15844   */\n      swap1\n      pop\n        /* \"#utility.yul\":15871:15875   */\n      0x20\n        /* \"#utility.yul\":15866:15869   */\n      dup3\n        /* \"#utility.yul\":15862:15876   */\n      add\n        /* \"#utility.yul\":15854:15876   */\n      swap1\n      pop\n        /* \"#utility.yul\":15741:15883   */\n      swap2\n      swap1\n      pop\n      jump\t// out\n        /* \"#utility.yul\":15889:16013   */\n    tag_294:\n        /* \"#utility.yul\":15966:15972   */\n      0x00\n        /* \"#utility.yul\":16000:16005   */\n      dup2\n        /* \"#utility.yul\":15994:16006   */\n      mload\n        /* \"#utility.yul\":15984:16006   */\n      swap1\n      pop\n        /* \"#utility.yul\":15889:16013   */\n      swap2\n      swap1\n      pop\n      jump\t// out\n        /* \"#utility.yul\":16019:16118   */\n    tag_307:\n        /* \"#utility.yul\":16071:16077   */\n      0x00\n        /* \"#utility.yul\":16105:16110   */\n      dup2\n        /* \"#utility.yul\":16099:16111   */\n      mload\n        /* \"#utility.yul\":16089:16111   */\n      swap1\n      pop\n        /* \"#utility.yul\":16019:16118   */\n      swap2\n      swap1\n      pop\n      jump\t// out\n        /* \"#utility.yul\":16124:16247   */\n    tag_304:\n        /* \"#utility.yul\":16204:16208   */\n      0x00\n        /* \"#utility.yul\":16236:16240   */\n      0x20\n        /* \"#utility.yul\":16231:16234   */\n      dup3\n        /* \"#utility.yul\":16227:16241   */\n      add\n        /* \"#utility.yul\":16219:16241   */\n      swap1\n      pop\n        /* \"#utility.yul\":16124:16247   */\n      swap2\n      swap1\n      pop\n      jump\t// out\n        /* \"#utility.yul\":16253:16437   */\n    tag_296:\n        /* \"#utility.yul\":16352:16363   */\n      0x00\n        /* \"#utility.yul\":16386:16392   */\n      dup3\n        /* \"#utility.yul\":16381:16384   */\n      dup3\n        /* \"#utility.yul\":16374:16393   */\n      mstore\n        /* \"#utility.yul\":16426:16430   */\n      0x20\n        /* \"#utility.yul\":16421:16424   */\n      dup3\n        /* \"#utility.yul\":16417:16431   */\n      add\n        /* \"#utility.yul\":16402:16431   */\n      swap1\n      pop\n        /* \"#utility.yul\":16253:16437   */\n      swap3\n      swap2\n      pop\n      pop\n      jump\t// out\n        /* \"#utility.yul\":16443:16602   */\n    tag_309:\n        /* \"#utility.yul\":16517:16528   */\n      0x00\n        /* \"#utility.yul\":16551:16557   */\n      dup3\n        /* \"#utility.yul\":16546:16549   */\n      dup3\n        /* \"#utility.yul\":16539:16558   */\n      mstore\n        /* \"#utility.yul\":16591:16595   */\n      0x20\n        /* \"#utility.yul\":16586:16589   */\n      dup3\n        /* \"#utility.yul\":16582:16596   */\n      add\n        /* \"#utility.yul\":16567:16596   */\n      swap1\n      pop\n        /* \"#utility.yul\":16443:16602   */\n      swap3\n      swap2\n      pop\n      pop\n      jump\t// out\n        /* \"#utility.yul\":16608:16777   */\n    tag_318:\n        /* \"#utility.yul\":16692:16703   */\n      0x00\n        /* \"#utility.yul\":16726:16732   */\n      dup3\n        /* \"#utility.yul\":16721:16724   */\n      dup3\n        /* \"#utility.yul\":16714:16733   */\n      mstore\n        /* \"#utility.yul\":16766:16770   */\n      0x20\n        /* \"#utility.yul\":16761:16764   */\n      dup3\n        /* \"#utility.yul\":16757:16771   */\n      add\n        /* \"#utility.yul\":16742:16771   */\n      swap1\n      pop\n        /* \"#utility.yul\":16608:16777   */\n      swap3\n      swap2\n      pop\n      pop\n      jump\t// out\n        /* \"#utility.yul\":16783:16879   */\n    tag_290:\n        /* \"#utility.yul\":16820:16827   */\n      0x00\n        /* \"#utility.yul\":16849:16873   */\n      tag_368\n        /* \"#utility.yul\":16867:16872   */\n      dup3\n        /* \"#utility.yul\":16849:16873   */\n      tag_369\n      jump\t// in\n    tag_368:\n        /* \"#utility.yul\":16838:16873   */\n      swap1\n      pop\n        /* \"#utility.yul\":16783:16879   */\n      swap2\n      swap1\n      pop\n      jump\t// out\n        /* \"#utility.yul\":16885:17011   */\n    tag_369:\n        /* \"#utility.yul\":16922:16929   */\n      0x00\n        /* \"#utility.yul\":16962:17004   */\n      0xffffffffffffffffffffffffffffffffffffffff\n        /* \"#utility.yul\":16955:16960   */\n      dup3\n        /* \"#utility.yul\":16951:17005   */\n      and\n        /* \"#utility.yul\":16940:17005   */\n      swap1\n      pop\n        /* \"#utility.yul\":16885:17011   */\n      swap2\n      swap1\n      pop\n      jump\t// out\n        /* \"#utility.yul\":17017:17094   */\n    tag_336:\n        /* \"#utility.yul\":17054:17061   */\n      0x00\n        /* \"#utility.yul\":17083:17088   */\n      dup2\n        /* \"#utility.yul\":17072:17088   */\n      swap1\n      pop\n        /* \"#utility.yul\":17017:17094   */\n      swap2\n      swap1\n      pop\n      jump\t// out\n        /* \"#utility.yul\":17100:17254   */\n    tag_206:\n        /* \"#utility.yul\":17184:17190   */\n      dup3\n        /* \"#utility.yul\":17179:17182   */\n      dup2\n        /* \"#utility.yul\":17174:17177   */\n      dup4\n        /* \"#utility.yul\":17161:17191   */\n      calldatacopy\n        /* \"#utility.yul\":17246:17247   */\n      0x00\n        /* \"#utility.yul\":17237:17243   */\n      dup4\n        /* \"#utility.yul\":17232:17235   */\n      dup4\n        /* \"#utility.yul\":17228:17244   */\n      add\n        /* \"#utility.yul\":17221:17248   */\n      mstore\n        /* \"#utility.yul\":17100:17254   */\n      pop\n      pop\n      pop\n      jump\t// out\n        /* \"#utility.yul\":17260:17567   */\n    tag_311:\n        /* \"#utility.yul\":17328:17329   */\n      0x00\n        /* \"#utility.yul\":17338:17451   */\n    tag_374:\n        /* \"#utility.yul\":17352:17358   */\n      dup4\n        /* \"#utility.yul\":17349:17350   */\n      dup2\n        /* \"#utility.yul\":17346:17359   */\n      lt\n        /* \"#utility.yul\":17338:17451   */\n      iszero\n      tag_376\n      jumpi\n        /* \"#utility.yul\":17437:17438   */\n      dup1\n        /* \"#utility.yul\":17432:17435   */\n      dup3\n        /* \"#utility.yul\":17428:17439   */\n      add\n        /* \"#utility.yul\":17422:17440   */\n      mload\n        /* \"#utility.yul\":17418:17419   */\n      dup2\n        /* \"#utility.yul\":17413:17416   */\n      dup5\n        /* \"#utility.yul\":17409:17420   */\n      add\n        /* \"#utility.yul\":17402:17441   */\n      mstore\n        /* \"#utility.yul\":17374:17376   */\n      0x20\n        /* \"#utility.yul\":17371:17372   */\n      dup2\n        /* \"#utility.yul\":17367:17377   */\n      add\n        /* \"#utility.yul\":17362:17377   */\n      swap1\n      pop\n        /* \"#utility.yul\":17338:17451   */\n      jump(tag_374)\n    tag_376:\n        /* \"#utility.yul\":17469:17475   */\n      dup4\n        /* \"#utility.yul\":17466:17467   */\n      dup2\n        /* \"#utility.yul\":17463:17476   */\n      gt\n        /* \"#utility.yul\":17460:17561   */\n      iszero\n      tag_377\n      jumpi\n        /* \"#utility.yul\":17549:17550   */\n      0x00\n        /* \"#utility.yul\":17540:17546   */\n      dup5\n        /* \"#utility.yul\":17535:17538   */\n      dup5\n        /* \"#utility.yul\":17531:17547   */\n      add\n        /* \"#utility.yul\":17524:17551   */\n      mstore\n        /* \"#utility.yul\":17460:17561   */\n    tag_377:\n        /* \"#utility.yul\":17309:17567   */\n      pop\n        /* \"#utility.yul\":17260:17567   */\n      pop\n      pop\n      pop\n      jump\t// out\n        /* \"#utility.yul\":17573:17893   */\n    tag_61:\n        /* \"#utility.yul\":17617:17623   */\n      0x00\n        /* \"#utility.yul\":17654:17655   */\n      0x02\n        /* \"#utility.yul\":17648:17652   */\n      dup3\n        /* \"#utility.yul\":17644:17656   */\n      div\n        /* \"#utility.yul\":17634:17656   */\n      swap1\n      pop\n        /* \"#utility.yul\":17701:17702   */\n      0x01\n        /* \"#utility.yul\":17695:17699   */\n      dup3\n        /* \"#utility.yul\":17691:17703   */\n      and\n        /* \"#utility.yul\":17722:17740   */\n      dup1\n        /* \"#utility.yul\":17712:17793   */\n      tag_379\n      jumpi\n        /* \"#utility.yul\":17778:17782   */\n      0x7f\n        /* \"#utility.yul\":17770:17776   */\n      dup3\n        /* \"#utility.yul\":17766:17783   */\n      and\n        /* \"#utility.yul\":17756:17783   */\n      swap2\n      pop\n        /* \"#utility.yul\":17712:17793   */\n    tag_379:\n        /* \"#utility.yul\":17840:17842   */\n      0x20\n        /* \"#utility.yul\":17832:17838   */\n      dup3\n        /* \"#utility.yul\":17829:17843   */\n      lt\n        /* \"#utility.yul\":17809:17827   */\n      dup2\n        /* \"#utility.yul\":17806:17844   */\n      eq\n        /* \"#utility.yul\":17803:17887   */\n      iszero\n      tag_380\n      jumpi\n        /* \"#utility.yul\":17859:17877   */\n      tag_381\n      tag_382\n      jump\t// in\n    tag_381:\n        /* \"#utility.yul\":17803:17887   */\n    tag_380:\n        /* \"#utility.yul\":17624:17893   */\n      pop\n        /* \"#utility.yul\":17573:17893   */\n      swap2\n      swap1\n      pop\n      jump\t// out\n        /* \"#utility.yul\":17899:18180   */\n    tag_350:\n        /* \"#utility.yul\":17982:18009   */\n      tag_384\n        /* \"#utility.yul\":18004:18008   */\n      dup3\n        /* \"#utility.yul\":17982:18009   */\n      tag_313\n      jump\t// in\n    tag_384:\n        /* \"#utility.yul\":17974:17980   */\n      dup2\n        /* \"#utility.yul\":17970:18010   */\n      add\n        /* \"#utility.yul\":18112:18118   */\n      dup2\n        /* \"#utility.yul\":18100:18110   */\n      dup2\n        /* \"#utility.yul\":18097:18119   */\n      lt\n        /* \"#utility.yul\":18076:18094   */\n      0xffffffffffffffff\n        /* \"#utility.yul\":18064:18074   */\n      dup3\n        /* \"#utility.yul\":18061:18095   */\n      gt\n        /* \"#utility.yul\":18058:18120   */\n      or\n        /* \"#utility.yul\":18055:18143   */\n      iszero\n      tag_385\n      jumpi\n        /* \"#utility.yul\":18123:18141   */\n      tag_386\n      tag_355\n      jump\t// in\n    tag_386:\n        /* \"#utility.yul\":18055:18143   */\n    tag_385:\n        /* \"#utility.yul\":18163:18173   */\n      dup1\n        /* \"#utility.yul\":18159:18161   */\n      0x40\n        /* \"#utility.yul\":18152:18174   */\n      mstore\n        /* \"#utility.yul\":17942:18180   */\n      pop\n        /* \"#utility.yul\":17899:18180   */\n      pop\n      pop\n      jump\t// out\n        /* \"#utility.yul\":18186:18366   */\n    tag_382:\n        /* \"#utility.yul\":18234:18311   */\n      0x4e487b7100000000000000000000000000000000000000000000000000000000\n        /* \"#utility.yul\":18231:18232   */\n      0x00\n        /* \"#utility.yul\":18224:18312   */\n      mstore\n        /* \"#utility.yul\":18331:18335   */\n      0x22\n        /* \"#utility.yul\":18328:18329   */\n      0x04\n        /* \"#utility.yul\":18321:18336   */\n      mstore\n        /* \"#utility.yul\":18355:18359   */\n      0x24\n        /* \"#utility.yul\":18352:18353   */\n      0x00\n        /* \"#utility.yul\":18345:18360   */\n      revert\n        /* \"#utility.yul\":18372:18552   */\n    tag_355:\n        /* \"#utility.yul\":18420:18497   */\n      0x4e487b7100000000000000000000000000000000000000000000000000000000\n        /* \"#utility.yul\":18417:18418   */\n      0x00\n        /* \"#utility.yul\":18410:18498   */\n      mstore\n        /* \"#utility.yul\":18517:18521   */\n      0x41\n        /* \"#utility.yul\":18514:18515   */\n      0x04\n        /* \"#utility.yul\":18507:18522   */\n      mstore\n        /* \"#utility.yul\":18541:18545   */\n      0x24\n        /* \"#utility.yul\":18538:18539   */\n      0x00\n        /* \"#utility.yul\":18531:18546   */\n      revert\n        /* \"#utility.yul\":18558:18675   */\n    tag_194:\n        /* \"#utility.yul\":18667:18668   */\n      0x00\n        /* \"#utility.yul\":18664:18665   */\n      dup1\n        /* \"#utility.yul\":18657:18669   */\n      revert\n        /* \"#utility.yul\":18681:18798   */\n    tag_188:\n        /* \"#utility.yul\":18790:18791   */\n      0x00\n        /* \"#utility.yul\":18787:18788   */\n      dup1\n        /* \"#utility.yul\":18780:18792   */\n      revert\n        /* \"#utility.yul\":18804:18921   */\n    tag_204:\n        /* \"#utility.yul\":18913:18914   */\n      0x00\n        /* \"#utility.yul\":18910:18911   */\n      dup1\n        /* \"#utility.yul\":18903:18915   */\n      revert\n        /* \"#utility.yul\":18927:19044   */\n    tag_230:\n        /* \"#utility.yul\":19036:19037   */\n      0x00\n        /* \"#utility.yul\":19033:19034   */\n      dup1\n        /* \"#utility.yul\":19026:19038   */\n      revert\n        /* \"#utility.yul\":19050:19167   */\n    tag_223:\n        /* \"#utility.yul\":19159:19160   */\n      0x00\n        /* \"#utility.yul\":19156:19157   */\n      dup1\n        /* \"#utility.yul\":19149:19161   */\n      revert\n        /* \"#utility.yul\":19173:19275   */\n    tag_313:\n        /* \"#utility.yul\":19214:19220   */\n      0x00\n        /* \"#utility.yul\":19265:19267   */\n      0x1f\n        /* \"#utility.yul\":19261:19268   */\n      not\n        /* \"#utility.yul\":19256:19258   */\n      0x1f\n        /* \"#utility.yul\":19249:19254   */\n      dup4\n        /* \"#utility.yul\":19245:19259   */\n      add\n        /* \"#utility.yul\":19241:19269   */\n      and\n        /* \"#utility.yul\":19231:19269   */\n      swap1\n      pop\n        /* \"#utility.yul\":19173:19275   */\n      swap2\n      swap1\n      pop\n      jump\t// out\n        /* \"#utility.yul\":19281:19403   */\n    tag_210:\n        /* \"#utility.yul\":19354:19378   */\n      tag_396\n        /* \"#utility.yul\":19372:19377   */\n      dup2\n        /* \"#utility.yul\":19354:19378   */\n      tag_290\n      jump\t// in\n    tag_396:\n        /* \"#utility.yul\":19347:19352   */\n      dup2\n        /* \"#utility.yul\":19344:19379   */\n      eq\n        /* \"#utility.yul\":19334:19397   */\n      tag_397\n      jumpi\n        /* \"#utility.yul\":19393:19394   */\n      0x00\n        /* \"#utility.yul\":19390:19391   */\n      dup1\n        /* \"#utility.yul\":19383:19395   */\n      revert\n        /* \"#utility.yul\":19334:19397   */\n    tag_397:\n        /* \"#utility.yul\":19281:19403   */\n      pop\n      jump\t// out\n\n    auxdata: 0xa2646970667358221220b6d9ca7f057c2edbac1783292e95e5602a3a5370525438e3f33ce36b5ff8a46f64736f6c63430008070033\n}\n",
				"bytecode": {
					"linkReferences": {},
					"object": "608060405234801561001057600080fd5b50611c4a806100206000396000f3fe608060405234801561001057600080fd5b50600436106100625760003560e01c80633d984d0e1461006757806372828388146100835780638c241fc41461009f5780639dd9d0fd146100bb578063dc6d6a83146100f2578063fabce08f1461010e575b600080fd5b610081600480360381019061007c91906113cf565b610118565b005b61009d600480360381019061009891906115f4565b61029c565b005b6100b960048036038101906100b4919061151d565b6104f4565b005b6100d560048036038101906100d091906113a2565b610718565b6040516100e9989796959493929190611904565b60405180910390f35b61010c60048036038101906101079190611476565b610f19565b005b610116610f1e565b005b6000803373ffffffffffffffffffffffffffffffffffffffff1673ffffffffffffffffffffffffffffffffffffffff168152602001908152602001600020600b016000808201600061016a919061106e565b60018201600061017a919061106e565b60028201600061018a919061106e565b5050826000803373ffffffffffffffffffffffffffffffffffffffff1673ffffffffffffffffffffffffffffffffffffffff168152602001908152602001600020600b0160000190805190602001906101e492919061108f565b50816000803373ffffffffffffffffffffffffffffffffffffffff1673ffffffffffffffffffffffffffffffffffffffff168152602001908152602001600020600b01600101908051906020019061023d92919061108f565b50806000803373ffffffffffffffffffffffffffffffffffffffff1673ffffffffffffffffffffffffffffffffffffffff168152602001908152602001600020600b01600201908051906020019061029692919061108f565b50505050565b6000803373ffffffffffffffffffffffffffffffffffffffff1673ffffffffffffffffffffffffffffffffffffffff168152602001908152602001600020600601600080820160006102ee91906110ef565b6001820160006102fe91906110ef565b60028201600061030e91906110ef565b60038201600061031e91906110ef565b60048201600061032e91906110ef565b5050846000803373ffffffffffffffffffffffffffffffffffffffff1673ffffffffffffffffffffffffffffffffffffffff168152602001908152602001600020600601600001908051906020019061038892919061112f565b50836000803373ffffffffffffffffffffffffffffffffffffffff1673ffffffffffffffffffffffffffffffffffffffff16815260200190815260200160002060060160010190805190602001906103e192919061112f565b50826000803373ffffffffffffffffffffffffffffffffffffffff1673ffffffffffffffffffffffffffffffffffffffff168152602001908152602001600020600601600001908051906020019061043a92919061112f565b50816000803373ffffffffffffffffffffffffffffffffffffffff1673ffffffffffffffffffffffffffffffffffffffff168152602001908152602001600020600601600101908051906020019061049392919061112f565b50806000803373ffffffffffffffffffffffffffffffffffffffff1673ffffffffffffffffffffffffffffffffffffffff16815260200190815260200160002060060160000190805190602001906104ec92919061112f565b505050505050565b836000803373ffffffffffffffffffffffffffffffffffffffff1673ffffffffffffffffffffffffffffffffffffffff168152602001908152602001600020600101908051906020019061054992919061112f565b50826000803373ffffffffffffffffffffffffffffffffffffffff1673ffffffffffffffffffffffffffffffffffffffff168152602001908152602001600020600201908051906020019061059f92919061112f565b50816000803373ffffffffffffffffffffffffffffffffffffffff1673ffffffffffffffffffffffffffffffffffffffff16815260200190815260200160002060030190805190602001906105f592919061112f565b50806000803373ffffffffffffffffffffffffffffffffffffffff1673ffffffffffffffffffffffffffffffffffffffff168152602001908152602001600020600401908051906020019061064b92919061112f565b50336000803373ffffffffffffffffffffffffffffffffffffffff1673ffffffffffffffffffffffffffffffffffffffff16815260200190815260200160002060000160006101000a81548173ffffffffffffffffffffffffffffffffffffffff021916908373ffffffffffffffffffffffffffffffffffffffff160217905550426000803373ffffffffffffffffffffffffffffffffffffffff1673ffffffffffffffffffffffffffffffffffffffff1681526020019081526020016000206005018190555050505050565b60006020528060005260406000206000915090508060000160009054906101000a900473ffffffffffffffffffffffffffffffffffffffff169080600101805461076190611b12565b80601f016020809104026020016040519081016040528092919081815260200182805461078d90611b12565b80156107da5780601f106107af576101008083540402835291602001916107da565b820191906000526020600020905b8154815290600101906020018083116107bd57829003601f168201915b5050505050908060020180546107ef90611b12565b80601f016020809104026020016040519081016040528092919081815260200182805461081b90611b12565b80156108685780601f1061083d57610100808354040283529160200191610868565b820191906000526020600020905b81548152906001019060200180831161084b57829003601f168201915b50505050509080600301805461087d90611b12565b80601f01602080910402602001604051908101604052809291908181526020018280546108a990611b12565b80156108f65780601f106108cb576101008083540402835291602001916108f6565b820191906000526020600020905b8154815290600101906020018083116108d957829003601f168201915b50505050509080600401805461090b90611b12565b80601f016020809104026020016040519081016040528092919081815260200182805461093790611b12565b80156109845780601f1061095957610100808354040283529160200191610984565b820191906000526020600020905b81548152906001019060200180831161096757829003601f168201915b505050505090806005015490806006016040518060a00160405290816000820180546109af90611b12565b80601f01602080910402602001604051908101604052809291908181526020018280546109db90611b12565b8015610a285780601f106109fd57610100808354040283529160200191610a28565b820191906000526020600020905b815481529060010190602001808311610a0b57829003601f168201915b50505050508152602001600182018054610a4190611b12565b80601f0160208091040260200160405190810160405280929190818152602001828054610a6d90611b12565b8015610aba5780601f10610a8f57610100808354040283529160200191610aba565b820191906000526020600020905b815481529060010190602001808311610a9d57829003601f168201915b50505050508152602001600282018054610ad390611b12565b80601f0160208091040260200160405190810160405280929190818152602001828054610aff90611b12565b8015610b4c5780601f10610b2157610100808354040283529160200191610b4c565b820191906000526020600020905b815481529060010190602001808311610b2f57829003601f168201915b50505050508152602001600382018054610b6590611b12565b80601f0160208091040260200160405190810160405280929190818152602001828054610b9190611b12565b8015610bde5780601f10610bb357610100808354040283529160200191610bde565b820191906000526020600020905b815481529060010190602001808311610bc157829003601f168201915b50505050508152602001600482018054610bf790611b12565b80601f0160208091040260200160405190810160405280929190818152602001828054610c2390611b12565b8015610c705780601f10610c4557610100808354040283529160200191610c70565b820191906000526020600020905b815481529060010190602001808311610c5357829003601f168201915b5050505050815250509080600b0160405180606001604052908160008201805480602002602001604051908101604052809291908181526020016000905b82821015610d5a578382906000526020600020018054610ccd90611b12565b80601f0160208091040260200160405190810160405280929190818152602001828054610cf990611b12565b8015610d465780601f10610d1b57610100808354040283529160200191610d46565b820191906000526020600020905b815481529060010190602001808311610d2957829003601f168201915b505050505081526020019060010190610cae565b50505050815260200160018201805480602002602001604051908101604052809291908181526020016000905b82821015610e33578382906000526020600020018054610da690611b12565b80601f0160208091040260200160405190810160405280929190818152602001828054610dd290611b12565b8015610e1f5780601f10610df457610100808354040283529160200191610e1f565b820191906000526020600020905b815481529060010190602001808311610e0257829003601f168201915b505050505081526020019060010190610d87565b50505050815260200160028201805480602002602001604051908101604052809291908181526020016000905b82821015610f0c578382906000526020600020018054610e7f90611b12565b80601f0160208091040260200160405190810160405280929190818152602001828054610eab90611b12565b8015610ef85780601f10610ecd57610100808354040283529160200191610ef8565b820191906000526020600020905b815481529060010190602001808311610edb57829003601f168201915b505050505081526020019060010190610e60565b5050505081525050905088565b505050565b6000803373ffffffffffffffffffffffffffffffffffffffff1673ffffffffffffffffffffffffffffffffffffffff168152602001908152602001600020600080820160006101000a81549073ffffffffffffffffffffffffffffffffffffffff0219169055600182016000610f9491906110ef565b600282016000610fa491906110ef565b600382016000610fb491906110ef565b600482016000610fc491906110ef565b60058201600090556006820160008082016000610fe191906110ef565b600182016000610ff191906110ef565b60028201600061100191906110ef565b60038201600061101191906110ef565b60048201600061102191906110ef565b5050600b820160008082016000611038919061106e565b600182016000611048919061106e565b600282016000611058919061106e565b5050600e8201600061106a91906111b5565b5050565b508054600082559060005260206000209081019061108c91906111d9565b50565b8280548282559060005260206000209081019282156110de579160200282015b828111156110dd5782518290805190602001906110cd92919061112f565b50916020019190600101906110af565b5b5090506110eb91906111d9565b5090565b5080546110fb90611b12565b6000825580601f1061110d575061112c565b601f01602090049060005260206000209081019061112b91906111fd565b5b50565b82805461113b90611b12565b90600052602060002090601f01602090048101928261115d57600085556111a4565b82601f1061117657805160ff19168380011785556111a4565b828001600101855582156111a4579182015b828111156111a3578251825591602001919060010190611188565b5b5090506111b191906111fd565b5090565b50805460008255600302906000526020600020908101906111d6919061121a565b50565b5b808211156111f957600081816111f091906110ef565b506001016111da565b5090565b5b808211156112165760008160009055506001016111fe565b5090565b5b8082111561125d576000808201600061123491906110ef565b60018201600061124491906110ef565b60028201600061125491906110ef565b5060030161121b565b5090565b600061127461126f846119d1565b6119ac565b9050808382526020820190508285602086028201111561129757611296611bd8565b5b60005b858110156112e557813567ffffffffffffffff8111156112bd576112bc611bd3565b5b8086016112ca8982611374565b8552602085019450602084019350505060018101905061129a565b5050509392505050565b60006113026112fd846119fd565b6119ac565b90508281526020810184848401111561131e5761131d611bdd565b5b611329848285611ad0565b509392505050565b60008135905061134081611bfd565b92915050565b600082601f83011261135b5761135a611bd3565b5b813561136b848260208601611261565b91505092915050565b600082601f83011261138957611388611bd3565b5b81356113998482602086016112ef565b91505092915050565b6000602082840312156113b8576113b7611be7565b5b60006113c684828501611331565b91505092915050565b6000806000606084860312156113e8576113e7611be7565b5b600084013567ffffffffffffffff81111561140657611405611be2565b5b61141286828701611346565b935050602084013567ffffffffffffffff81111561143357611432611be2565b5b61143f86828701611346565b925050604084013567ffffffffffffffff8111156114605761145f611be2565b5b61146c86828701611346565b9150509250925092565b60008060006060848603121561148f5761148e611be7565b5b600084013567ffffffffffffffff8111156114ad576114ac611be2565b5b6114b986828701611374565b935050602084013567ffffffffffffffff8111156114da576114d9611be2565b5b6114e686828701611374565b925050604084013567ffffffffffffffff81111561150757611506611be2565b5b61151386828701611374565b9150509250925092565b6000806000806080858703121561153757611536611be7565b5b600085013567ffffffffffffffff81111561155557611554611be2565b5b61156187828801611374565b945050602085013567ffffffffffffffff81111561158257611581611be2565b5b61158e87828801611374565b935050604085013567ffffffffffffffff8111156115af576115ae611be2565b5b6115bb87828801611374565b925050606085013567ffffffffffffffff8111156115dc576115db611be2565b5b6115e887828801611374565b91505092959194509250565b600080600080600060a086880312156116105761160f611be7565b5b600086013567ffffffffffffffff81111561162e5761162d611be2565b5b61163a88828901611374565b955050602086013567ffffffffffffffff81111561165b5761165a611be2565b5b61166788828901611374565b945050604086013567ffffffffffffffff81111561168857611687611be2565b5b61169488828901611374565b935050606086013567ffffffffffffffff8111156116b5576116b4611be2565b5b6116c188828901611374565b925050608086013567ffffffffffffffff8111156116e2576116e1611be2565b5b6116ee88828901611374565b9150509295509295909350565b60006117078383611793565b905092915050565b61171881611a94565b82525050565b600061172982611a3e565b6117338185611a61565b93508360208202850161174585611a2e565b8060005b85811015611781578484038952815161176285826116fb565b945061176d83611a54565b925060208a01995050600181019050611749565b50829750879550505050505092915050565b600061179e82611a49565b6117a88185611a72565b93506117b8818560208601611adf565b6117c181611bec565b840191505092915050565b60006117d782611a49565b6117e18185611a83565b93506117f1818560208601611adf565b6117fa81611bec565b840191505092915050565b600060a08301600083015184820360008601526118228282611793565b9150506020830151848203602086015261183c8282611793565b915050604083015184820360408601526118568282611793565b915050606083015184820360608601526118708282611793565b9150506080830151848203608086015261188a8282611793565b9150508091505092915050565b600060608301600083015184820360008601526118b4828261171e565b915050602083015184820360208601526118ce828261171e565b915050604083015184820360408601526118e8828261171e565b9150508091505092915050565b6118fe81611ac6565b82525050565b60006101008201905061191a600083018b61170f565b818103602083015261192c818a6117cc565b9050818103604083015261194081896117cc565b9050818103606083015261195481886117cc565b9050818103608083015261196881876117cc565b905061197760a08301866118f5565b81810360c08301526119898185611805565b905081810360e083015261199d8184611897565b90509998505050505050505050565b60006119b66119c7565b90506119c28282611b44565b919050565b6000604051905090565b600067ffffffffffffffff8211156119ec576119eb611ba4565b5b602082029050602081019050919050565b600067ffffffffffffffff821115611a1857611a17611ba4565b5b611a2182611bec565b9050602081019050919050565b6000819050602082019050919050565b600081519050919050565b600081519050919050565b6000602082019050919050565b600082825260208201905092915050565b600082825260208201905092915050565b600082825260208201905092915050565b6000611a9f82611aa6565b9050919050565b600073ffffffffffffffffffffffffffffffffffffffff82169050919050565b6000819050919050565b82818337600083830152505050565b60005b83811015611afd578082015181840152602081019050611ae2565b83811115611b0c576000848401525b50505050565b60006002820490506001821680611b2a57607f821691505b60208210811415611b3e57611b3d611b75565b5b50919050565b611b4d82611bec565b810181811067ffffffffffffffff82111715611b6c57611b6b611ba4565b5b80604052505050565b7f4e487b7100000000000000000000000000000000000000000000000000000000600052602260045260246000fd5b7f4e487b7100000000000000000000000000000000000000000000000000000000600052604160045260246000fd5b600080fd5b600080fd5b600080fd5b600080fd5b600080fd5b6000601f19601f8301169050919050565b611c0681611a94565b8114611c1157600080fd5b5056fea2646970667358221220b6d9ca7f057c2edbac1783292e95e5602a3a5370525438e3f33ce36b5ff8a46f64736f6c63430008070033",
					"opcodes": "PUSH1 0x80 PUSH1 0x40 MSTORE CALLVALUE DUP1 ISZERO PUSH2 0x10 JUMPI PUSH1 0x0 DUP1 REVERT JUMPDEST POP PUSH2 0x1C4A DUP1 PUSH2 0x20 PUSH1 0x0 CODECOPY PUSH1 0x0 RETURN INVALID PUSH1 0x80 PUSH1 0x40 MSTORE CALLVALUE DUP1 ISZERO PUSH2 0x10 JUMPI PUSH1 0x0 DUP1 REVERT JUMPDEST POP PUSH1 0x4 CALLDATASIZE LT PUSH2 0x62 JUMPI PUSH1 0x0 CALLDATALOAD PUSH1 0xE0 SHR DUP1 PUSH4 0x3D984D0E EQ PUSH2 0x67 JUMPI DUP1 PUSH4 0x72828388 EQ PUSH2 0x83 JUMPI DUP1 PUSH4 0x8C241FC4 EQ PUSH2 0x9F JUMPI DUP1 PUSH4 0x9DD9D0FD EQ PUSH2 0xBB JUMPI DUP1 PUSH4 0xDC6D6A83 EQ PUSH2 0xF2 JUMPI DUP1 PUSH4 0xFABCE08F EQ PUSH2 0x10E JUMPI JUMPDEST PUSH1 0x0 DUP1 REVERT JUMPDEST PUSH2 0x81 PUSH1 0x4 DUP1 CALLDATASIZE SUB DUP2 ADD SWAP1 PUSH2 0x7C SWAP2 SWAP1 PUSH2 0x13CF JUMP JUMPDEST PUSH2 0x118 JUMP JUMPDEST STOP JUMPDEST PUSH2 0x9D PUSH1 0x4 DUP1 CALLDATASIZE SUB DUP2 ADD SWAP1 PUSH2 0x98 SWAP2 SWAP1 PUSH2 0x15F4 JUMP JUMPDEST PUSH2 0x29C JUMP JUMPDEST STOP JUMPDEST PUSH2 0xB9 PUSH1 0x4 DUP1 CALLDATASIZE SUB DUP2 ADD SWAP1 PUSH2 0xB4 SWAP2 SWAP1 PUSH2 0x151D JUMP JUMPDEST PUSH2 0x4F4 JUMP JUMPDEST STOP JUMPDEST PUSH2 0xD5 PUSH1 0x4 DUP1 CALLDATASIZE SUB DUP2 ADD SWAP1 PUSH2 0xD0 SWAP2 SWAP1 PUSH2 0x13A2 JUMP JUMPDEST PUSH2 0x718 JUMP JUMPDEST PUSH1 0x40 MLOAD PUSH2 0xE9 SWAP9 SWAP8 SWAP7 SWAP6 SWAP5 SWAP4 SWAP3 SWAP2 SWAP1 PUSH2 0x1904 JUMP JUMPDEST PUSH1 0x40 MLOAD DUP1 SWAP2 SUB SWAP1 RETURN JUMPDEST PUSH2 0x10C PUSH1 0x4 DUP1 CALLDATASIZE SUB DUP2 ADD SWAP1 PUSH2 0x107 SWAP2 SWAP1 PUSH2 0x1476 JUMP JUMPDEST PUSH2 0xF19 JUMP JUMPDEST STOP JUMPDEST PUSH2 0x116 PUSH2 0xF1E JUMP JUMPDEST STOP JUMPDEST PUSH1 0x0 DUP1 CALLER PUSH20 0xFFFFFFFFFFFFFFFFFFFFFFFFFFFFFFFFFFFFFFFF AND PUSH20 0xFFFFFFFFFFFFFFFFFFFFFFFFFFFFFFFFFFFFFFFF AND DUP2 MSTORE PUSH1 0x20 ADD SWAP1 DUP2 MSTORE PUSH1 0x20 ADD PUSH1 0x0 KECCAK256 PUSH1 0xB ADD PUSH1 0x0 DUP1 DUP3 ADD PUSH1 0x0 PUSH2 0x16A SWAP2 SWAP1 PUSH2 0x106E JUMP JUMPDEST PUSH1 0x1 DUP3 ADD PUSH1 0x0 PUSH2 0x17A SWAP2 SWAP1 PUSH2 0x106E JUMP JUMPDEST PUSH1 0x2 DUP3 ADD PUSH1 0x0 PUSH2 0x18A SWAP2 SWAP1 PUSH2 0x106E JUMP JUMPDEST POP POP DUP3 PUSH1 0x0 DUP1 CALLER PUSH20 0xFFFFFFFFFFFFFFFFFFFFFFFFFFFFFFFFFFFFFFFF AND PUSH20 0xFFFFFFFFFFFFFFFFFFFFFFFFFFFFFFFFFFFFFFFF AND DUP2 MSTORE PUSH1 0x20 ADD SWAP1 DUP2 MSTORE PUSH1 0x20 ADD PUSH1 0x0 KECCAK256 PUSH1 0xB ADD PUSH1 0x0 ADD SWAP1 DUP1 MLOAD SWAP1 PUSH1 0x20 ADD SWAP1 PUSH2 0x1E4 SWAP3 SWAP2 SWAP1 PUSH2 0x108F JUMP JUMPDEST POP DUP2 PUSH1 0x0 DUP1 CALLER PUSH20 0xFFFFFFFFFFFFFFFFFFFFFFFFFFFFFFFFFFFFFFFF AND PUSH20 0xFFFFFFFFFFFFFFFFFFFFFFFFFFFFFFFFFFFFFFFF AND DUP2 MSTORE PUSH1 0x20 ADD SWAP1 DUP2 MSTORE PUSH1 0x20 ADD PUSH1 0x0 KECCAK256 PUSH1 0xB ADD PUSH1 0x1 ADD SWAP1 DUP1 MLOAD SWAP1 PUSH1 0x20 ADD SWAP1 PUSH2 0x23D SWAP3 SWAP2 SWAP1 PUSH2 0x108F JUMP JUMPDEST POP DUP1 PUSH1 0x0 DUP1 CALLER PUSH20 0xFFFFFFFFFFFFFFFFFFFFFFFFFFFFFFFFFFFFFFFF AND PUSH20 0xFFFFFFFFFFFFFFFFFFFFFFFFFFFFFFFFFFFFFFFF AND DUP2 MSTORE PUSH1 0x20 ADD SWAP1 DUP2 MSTORE PUSH1 0x20 ADD PUSH1 0x0 KECCAK256 PUSH1 0xB ADD PUSH1 0x2 ADD SWAP1 DUP1 MLOAD SWAP1 PUSH1 0x20 ADD SWAP1 PUSH2 0x296 SWAP3 SWAP2 SWAP1 PUSH2 0x108F JUMP JUMPDEST POP POP POP POP JUMP JUMPDEST PUSH1 0x0 DUP1 CALLER PUSH20 0xFFFFFFFFFFFFFFFFFFFFFFFFFFFFFFFFFFFFFFFF AND PUSH20 0xFFFFFFFFFFFFFFFFFFFFFFFFFFFFFFFFFFFFFFFF AND DUP2 MSTORE PUSH1 0x20 ADD SWAP1 DUP2 MSTORE PUSH1 0x20 ADD PUSH1 0x0 KECCAK256 PUSH1 0x6 ADD PUSH1 0x0 DUP1 DUP3 ADD PUSH1 0x0 PUSH2 0x2EE SWAP2 SWAP1 PUSH2 0x10EF JUMP JUMPDEST PUSH1 0x1 DUP3 ADD PUSH1 0x0 PUSH2 0x2FE SWAP2 SWAP1 PUSH2 0x10EF JUMP JUMPDEST PUSH1 0x2 DUP3 ADD PUSH1 0x0 PUSH2 0x30E SWAP2 SWAP1 PUSH2 0x10EF JUMP JUMPDEST PUSH1 0x3 DUP3 ADD PUSH1 0x0 PUSH2 0x31E SWAP2 SWAP1 PUSH2 0x10EF JUMP JUMPDEST PUSH1 0x4 DUP3 ADD PUSH1 0x0 PUSH2 0x32E SWAP2 SWAP1 PUSH2 0x10EF JUMP JUMPDEST POP POP DUP5 PUSH1 0x0 DUP1 CALLER PUSH20 0xFFFFFFFFFFFFFFFFFFFFFFFFFFFFFFFFFFFFFFFF AND PUSH20 0xFFFFFFFFFFFFFFFFFFFFFFFFFFFFFFFFFFFFFFFF AND DUP2 MSTORE PUSH1 0x20 ADD SWAP1 DUP2 MSTORE PUSH1 0x20 ADD PUSH1 0x0 KECCAK256 PUSH1 0x6 ADD PUSH1 0x0 ADD SWAP1 DUP1 MLOAD SWAP1 PUSH1 0x20 ADD SWAP1 PUSH2 0x388 SWAP3 SWAP2 SWAP1 PUSH2 0x112F JUMP JUMPDEST POP DUP4 PUSH1 0x0 DUP1 CALLER PUSH20 0xFFFFFFFFFFFFFFFFFFFFFFFFFFFFFFFFFFFFFFFF AND PUSH20 0xFFFFFFFFFFFFFFFFFFFFFFFFFFFFFFFFFFFFFFFF AND DUP2 MSTORE PUSH1 0x20 ADD SWAP1 DUP2 MSTORE PUSH1 0x20 ADD PUSH1 0x0 KECCAK256 PUSH1 0x6 ADD PUSH1 0x1 ADD SWAP1 DUP1 MLOAD SWAP1 PUSH1 0x20 ADD SWAP1 PUSH2 0x3E1 SWAP3 SWAP2 SWAP1 PUSH2 0x112F JUMP JUMPDEST POP DUP3 PUSH1 0x0 DUP1 CALLER PUSH20 0xFFFFFFFFFFFFFFFFFFFFFFFFFFFFFFFFFFFFFFFF AND PUSH20 0xFFFFFFFFFFFFFFFFFFFFFFFFFFFFFFFFFFFFFFFF AND DUP2 MSTORE PUSH1 0x20 ADD SWAP1 DUP2 MSTORE PUSH1 0x20 ADD PUSH1 0x0 KECCAK256 PUSH1 0x6 ADD PUSH1 0x0 ADD SWAP1 DUP1 MLOAD SWAP1 PUSH1 0x20 ADD SWAP1 PUSH2 0x43A SWAP3 SWAP2 SWAP1 PUSH2 0x112F JUMP JUMPDEST POP DUP2 PUSH1 0x0 DUP1 CALLER PUSH20 0xFFFFFFFFFFFFFFFFFFFFFFFFFFFFFFFFFFFFFFFF AND PUSH20 0xFFFFFFFFFFFFFFFFFFFFFFFFFFFFFFFFFFFFFFFF AND DUP2 MSTORE PUSH1 0x20 ADD SWAP1 DUP2 MSTORE PUSH1 0x20 ADD PUSH1 0x0 KECCAK256 PUSH1 0x6 ADD PUSH1 0x1 ADD SWAP1 DUP1 MLOAD SWAP1 PUSH1 0x20 ADD SWAP1 PUSH2 0x493 SWAP3 SWAP2 SWAP1 PUSH2 0x112F JUMP JUMPDEST POP DUP1 PUSH1 0x0 DUP1 CALLER PUSH20 0xFFFFFFFFFFFFFFFFFFFFFFFFFFFFFFFFFFFFFFFF AND PUSH20 0xFFFFFFFFFFFFFFFFFFFFFFFFFFFFFFFFFFFFFFFF AND DUP2 MSTORE PUSH1 0x20 ADD SWAP1 DUP2 MSTORE PUSH1 0x20 ADD PUSH1 0x0 KECCAK256 PUSH1 0x6 ADD PUSH1 0x0 ADD SWAP1 DUP1 MLOAD SWAP1 PUSH1 0x20 ADD SWAP1 PUSH2 0x4EC SWAP3 SWAP2 SWAP1 PUSH2 0x112F JUMP JUMPDEST POP POP POP POP POP POP JUMP JUMPDEST DUP4 PUSH1 0x0 DUP1 CALLER PUSH20 0xFFFFFFFFFFFFFFFFFFFFFFFFFFFFFFFFFFFFFFFF AND PUSH20 0xFFFFFFFFFFFFFFFFFFFFFFFFFFFFFFFFFFFFFFFF AND DUP2 MSTORE PUSH1 0x20 ADD SWAP1 DUP2 MSTORE PUSH1 0x20 ADD PUSH1 0x0 KECCAK256 PUSH1 0x1 ADD SWAP1 DUP1 MLOAD SWAP1 PUSH1 0x20 ADD SWAP1 PUSH2 0x549 SWAP3 SWAP2 SWAP1 PUSH2 0x112F JUMP JUMPDEST POP DUP3 PUSH1 0x0 DUP1 CALLER PUSH20 0xFFFFFFFFFFFFFFFFFFFFFFFFFFFFFFFFFFFFFFFF AND PUSH20 0xFFFFFFFFFFFFFFFFFFFFFFFFFFFFFFFFFFFFFFFF AND DUP2 MSTORE PUSH1 0x20 ADD SWAP1 DUP2 MSTORE PUSH1 0x20 ADD PUSH1 0x0 KECCAK256 PUSH1 0x2 ADD SWAP1 DUP1 MLOAD SWAP1 PUSH1 0x20 ADD SWAP1 PUSH2 0x59F SWAP3 SWAP2 SWAP1 PUSH2 0x112F JUMP JUMPDEST POP DUP2 PUSH1 0x0 DUP1 CALLER PUSH20 0xFFFFFFFFFFFFFFFFFFFFFFFFFFFFFFFFFFFFFFFF AND PUSH20 0xFFFFFFFFFFFFFFFFFFFFFFFFFFFFFFFFFFFFFFFF AND DUP2 MSTORE PUSH1 0x20 ADD SWAP1 DUP2 MSTORE PUSH1 0x20 ADD PUSH1 0x0 KECCAK256 PUSH1 0x3 ADD SWAP1 DUP1 MLOAD SWAP1 PUSH1 0x20 ADD SWAP1 PUSH2 0x5F5 SWAP3 SWAP2 SWAP1 PUSH2 0x112F JUMP JUMPDEST POP DUP1 PUSH1 0x0 DUP1 CALLER PUSH20 0xFFFFFFFFFFFFFFFFFFFFFFFFFFFFFFFFFFFFFFFF AND PUSH20 0xFFFFFFFFFFFFFFFFFFFFFFFFFFFFFFFFFFFFFFFF AND DUP2 MSTORE PUSH1 0x20 ADD SWAP1 DUP2 MSTORE PUSH1 0x20 ADD PUSH1 0x0 KECCAK256 PUSH1 0x4 ADD SWAP1 DUP1 MLOAD SWAP1 PUSH1 0x20 ADD SWAP1 PUSH2 0x64B SWAP3 SWAP2 SWAP1 PUSH2 0x112F JUMP JUMPDEST POP CALLER PUSH1 0x0 DUP1 CALLER PUSH20 0xFFFFFFFFFFFFFFFFFFFFFFFFFFFFFFFFFFFFFFFF AND PUSH20 0xFFFFFFFFFFFFFFFFFFFFFFFFFFFFFFFFFFFFFFFF AND DUP2 MSTORE PUSH1 0x20 ADD SWAP1 DUP2 MSTORE PUSH1 0x20 ADD PUSH1 0x0 KECCAK256 PUSH1 0x0 ADD PUSH1 0x0 PUSH2 0x100 EXP DUP2 SLOAD DUP2 PUSH20 0xFFFFFFFFFFFFFFFFFFFFFFFFFFFFFFFFFFFFFFFF MUL NOT AND SWAP1 DUP4 PUSH20 0xFFFFFFFFFFFFFFFFFFFFFFFFFFFFFFFFFFFFFFFF AND MUL OR SWAP1 SSTORE POP TIMESTAMP PUSH1 0x0 DUP1 CALLER PUSH20 0xFFFFFFFFFFFFFFFFFFFFFFFFFFFFFFFFFFFFFFFF AND PUSH20 0xFFFFFFFFFFFFFFFFFFFFFFFFFFFFFFFFFFFFFFFF AND DUP2 MSTORE PUSH1 0x20 ADD SWAP1 DUP2 MSTORE PUSH1 0x20 ADD PUSH1 0x0 KECCAK256 PUSH1 0x5 ADD DUP2 SWAP1 SSTORE POP POP POP POP POP JUMP JUMPDEST PUSH1 0x0 PUSH1 0x20 MSTORE DUP1 PUSH1 0x0 MSTORE PUSH1 0x40 PUSH1 0x0 KECCAK256 PUSH1 0x0 SWAP2 POP SWAP1 POP DUP1 PUSH1 0x0 ADD PUSH1 0x0 SWAP1 SLOAD SWAP1 PUSH2 0x100 EXP SWAP1 DIV PUSH20 0xFFFFFFFFFFFFFFFFFFFFFFFFFFFFFFFFFFFFFFFF AND SWAP1 DUP1 PUSH1 0x1 ADD DUP1 SLOAD PUSH2 0x761 SWAP1 PUSH2 0x1B12 JUMP JUMPDEST DUP1 PUSH1 0x1F ADD PUSH1 0x20 DUP1 SWAP2 DIV MUL PUSH1 0x20 ADD PUSH1 0x40 MLOAD SWAP1 DUP2 ADD PUSH1 0x40 MSTORE DUP1 SWAP3 SWAP2 SWAP1 DUP2 DUP2 MSTORE PUSH1 0x20 ADD DUP3 DUP1 SLOAD PUSH2 0x78D SWAP1 PUSH2 0x1B12 JUMP JUMPDEST DUP1 ISZERO PUSH2 0x7DA JUMPI DUP1 PUSH1 0x1F LT PUSH2 0x7AF JUMPI PUSH2 0x100 DUP1 DUP4 SLOAD DIV MUL DUP4 MSTORE SWAP2 PUSH1 0x20 ADD SWAP2 PUSH2 0x7DA JUMP JUMPDEST DUP3 ADD SWAP2 SWAP1 PUSH1 0x0 MSTORE PUSH1 0x20 PUSH1 0x0 KECCAK256 SWAP1 JUMPDEST DUP2 SLOAD DUP2 MSTORE SWAP1 PUSH1 0x1 ADD SWAP1 PUSH1 0x20 ADD DUP1 DUP4 GT PUSH2 0x7BD JUMPI DUP3 SWAP1 SUB PUSH1 0x1F AND DUP3 ADD SWAP2 JUMPDEST POP POP POP POP POP SWAP1 DUP1 PUSH1 0x2 ADD DUP1 SLOAD PUSH2 0x7EF SWAP1 PUSH2 0x1B12 JUMP JUMPDEST DUP1 PUSH1 0x1F ADD PUSH1 0x20 DUP1 SWAP2 DIV MUL PUSH1 0x20 ADD PUSH1 0x40 MLOAD SWAP1 DUP2 ADD PUSH1 0x40 MSTORE DUP1 SWAP3 SWAP2 SWAP1 DUP2 DUP2 MSTORE PUSH1 0x20 ADD DUP3 DUP1 SLOAD PUSH2 0x81B SWAP1 PUSH2 0x1B12 JUMP JUMPDEST DUP1 ISZERO PUSH2 0x868 JUMPI DUP1 PUSH1 0x1F LT PUSH2 0x83D JUMPI PUSH2 0x100 DUP1 DUP4 SLOAD DIV MUL DUP4 MSTORE SWAP2 PUSH1 0x20 ADD SWAP2 PUSH2 0x868 JUMP JUMPDEST DUP3 ADD SWAP2 SWAP1 PUSH1 0x0 MSTORE PUSH1 0x20 PUSH1 0x0 KECCAK256 SWAP1 JUMPDEST DUP2 SLOAD DUP2 MSTORE SWAP1 PUSH1 0x1 ADD SWAP1 PUSH1 0x20 ADD DUP1 DUP4 GT PUSH2 0x84B JUMPI DUP3 SWAP1 SUB PUSH1 0x1F AND DUP3 ADD SWAP2 JUMPDEST POP POP POP POP POP SWAP1 DUP1 PUSH1 0x3 ADD DUP1 SLOAD PUSH2 0x87D SWAP1 PUSH2 0x1B12 JUMP JUMPDEST DUP1 PUSH1 0x1F ADD PUSH1 0x20 DUP1 SWAP2 DIV MUL PUSH1 0x20 ADD PUSH1 0x40 MLOAD SWAP1 DUP2 ADD PUSH1 0x40 MSTORE DUP1 SWAP3 SWAP2 SWAP1 DUP2 DUP2 MSTORE PUSH1 0x20 ADD DUP3 DUP1 SLOAD PUSH2 0x8A9 SWAP1 PUSH2 0x1B12 JUMP JUMPDEST DUP1 ISZERO PUSH2 0x8F6 JUMPI DUP1 PUSH1 0x1F LT PUSH2 0x8CB JUMPI PUSH2 0x100 DUP1 DUP4 SLOAD DIV MUL DUP4 MSTORE SWAP2 PUSH1 0x20 ADD SWAP2 PUSH2 0x8F6 JUMP JUMPDEST DUP3 ADD SWAP2 SWAP1 PUSH1 0x0 MSTORE PUSH1 0x20 PUSH1 0x0 KECCAK256 SWAP1 JUMPDEST DUP2 SLOAD DUP2 MSTORE SWAP1 PUSH1 0x1 ADD SWAP1 PUSH1 0x20 ADD DUP1 DUP4 GT PUSH2 0x8D9 JUMPI DUP3 SWAP1 SUB PUSH1 0x1F AND DUP3 ADD SWAP2 JUMPDEST POP POP POP POP POP SWAP1 DUP1 PUSH1 0x4 ADD DUP1 SLOAD PUSH2 0x90B SWAP1 PUSH2 0x1B12 JUMP JUMPDEST DUP1 PUSH1 0x1F ADD PUSH1 0x20 DUP1 SWAP2 DIV MUL PUSH1 0x20 ADD PUSH1 0x40 MLOAD SWAP1 DUP2 ADD PUSH1 0x40 MSTORE DUP1 SWAP3 SWAP2 SWAP1 DUP2 DUP2 MSTORE PUSH1 0x20 ADD DUP3 DUP1 SLOAD PUSH2 0x937 SWAP1 PUSH2 0x1B12 JUMP JUMPDEST DUP1 ISZERO PUSH2 0x984 JUMPI DUP1 PUSH1 0x1F LT PUSH2 0x959 JUMPI PUSH2 0x100 DUP1 DUP4 SLOAD DIV MUL DUP4 MSTORE SWAP2 PUSH1 0x20 ADD SWAP2 PUSH2 0x984 JUMP JUMPDEST DUP3 ADD SWAP2 SWAP1 PUSH1 0x0 MSTORE PUSH1 0x20 PUSH1 0x0 KECCAK256 SWAP1 JUMPDEST DUP2 SLOAD DUP2 MSTORE SWAP1 PUSH1 0x1 ADD SWAP1 PUSH1 0x20 ADD DUP1 DUP4 GT PUSH2 0x967 JUMPI DUP3 SWAP1 SUB PUSH1 0x1F AND DUP3 ADD SWAP2 JUMPDEST POP POP POP POP POP SWAP1 DUP1 PUSH1 0x5 ADD SLOAD SWAP1 DUP1 PUSH1 0x6 ADD PUSH1 0x40 MLOAD DUP1 PUSH1 0xA0 ADD PUSH1 0x40 MSTORE SWAP1 DUP2 PUSH1 0x0 DUP3 ADD DUP1 SLOAD PUSH2 0x9AF SWAP1 PUSH2 0x1B12 JUMP JUMPDEST DUP1 PUSH1 0x1F ADD PUSH1 0x20 DUP1 SWAP2 DIV MUL PUSH1 0x20 ADD PUSH1 0x40 MLOAD SWAP1 DUP2 ADD PUSH1 0x40 MSTORE DUP1 SWAP3 SWAP2 SWAP1 DUP2 DUP2 MSTORE PUSH1 0x20 ADD DUP3 DUP1 SLOAD PUSH2 0x9DB SWAP1 PUSH2 0x1B12 JUMP JUMPDEST DUP1 ISZERO PUSH2 0xA28 JUMPI DUP1 PUSH1 0x1F LT PUSH2 0x9FD JUMPI PUSH2 0x100 DUP1 DUP4 SLOAD DIV MUL DUP4 MSTORE SWAP2 PUSH1 0x20 ADD SWAP2 PUSH2 0xA28 JUMP JUMPDEST DUP3 ADD SWAP2 SWAP1 PUSH1 0x0 MSTORE PUSH1 0x20 PUSH1 0x0 KECCAK256 SWAP1 JUMPDEST DUP2 SLOAD DUP2 MSTORE SWAP1 PUSH1 0x1 ADD SWAP1 PUSH1 0x20 ADD DUP1 DUP4 GT PUSH2 0xA0B JUMPI DUP3 SWAP1 SUB PUSH1 0x1F AND DUP3 ADD SWAP2 JUMPDEST POP POP POP POP POP DUP2 MSTORE PUSH1 0x20 ADD PUSH1 0x1 DUP3 ADD DUP1 SLOAD PUSH2 0xA41 SWAP1 PUSH2 0x1B12 JUMP JUMPDEST DUP1 PUSH1 0x1F ADD PUSH1 0x20 DUP1 SWAP2 DIV MUL PUSH1 0x20 ADD PUSH1 0x40 MLOAD SWAP1 DUP2 ADD PUSH1 0x40 MSTORE DUP1 SWAP3 SWAP2 SWAP1 DUP2 DUP2 MSTORE PUSH1 0x20 ADD DUP3 DUP1 SLOAD PUSH2 0xA6D SWAP1 PUSH2 0x1B12 JUMP JUMPDEST DUP1 ISZERO PUSH2 0xABA JUMPI DUP1 PUSH1 0x1F LT PUSH2 0xA8F JUMPI PUSH2 0x100 DUP1 DUP4 SLOAD DIV MUL DUP4 MSTORE SWAP2 PUSH1 0x20 ADD SWAP2 PUSH2 0xABA JUMP JUMPDEST DUP3 ADD SWAP2 SWAP1 PUSH1 0x0 MSTORE PUSH1 0x20 PUSH1 0x0 KECCAK256 SWAP1 JUMPDEST DUP2 SLOAD DUP2 MSTORE SWAP1 PUSH1 0x1 ADD SWAP1 PUSH1 0x20 ADD DUP1 DUP4 GT PUSH2 0xA9D JUMPI DUP3 SWAP1 SUB PUSH1 0x1F AND DUP3 ADD SWAP2 JUMPDEST POP POP POP POP POP DUP2 MSTORE PUSH1 0x20 ADD PUSH1 0x2 DUP3 ADD DUP1 SLOAD PUSH2 0xAD3 SWAP1 PUSH2 0x1B12 JUMP JUMPDEST DUP1 PUSH1 0x1F ADD PUSH1 0x20 DUP1 SWAP2 DIV MUL PUSH1 0x20 ADD PUSH1 0x40 MLOAD SWAP1 DUP2 ADD PUSH1 0x40 MSTORE DUP1 SWAP3 SWAP2 SWAP1 DUP2 DUP2 MSTORE PUSH1 0x20 ADD DUP3 DUP1 SLOAD PUSH2 0xAFF SWAP1 PUSH2 0x1B12 JUMP JUMPDEST DUP1 ISZERO PUSH2 0xB4C JUMPI DUP1 PUSH1 0x1F LT PUSH2 0xB21 JUMPI PUSH2 0x100 DUP1 DUP4 SLOAD DIV MUL DUP4 MSTORE SWAP2 PUSH1 0x20 ADD SWAP2 PUSH2 0xB4C JUMP JUMPDEST DUP3 ADD SWAP2 SWAP1 PUSH1 0x0 MSTORE PUSH1 0x20 PUSH1 0x0 KECCAK256 SWAP1 JUMPDEST DUP2 SLOAD DUP2 MSTORE SWAP1 PUSH1 0x1 ADD SWAP1 PUSH1 0x20 ADD DUP1 DUP4 GT PUSH2 0xB2F JUMPI DUP3 SWAP1 SUB PUSH1 0x1F AND DUP3 ADD SWAP2 JUMPDEST POP POP POP POP POP DUP2 MSTORE PUSH1 0x20 ADD PUSH1 0x3 DUP3 ADD DUP1 SLOAD PUSH2 0xB65 SWAP1 PUSH2 0x1B12 JUMP JUMPDEST DUP1 PUSH1 0x1F ADD PUSH1 0x20 DUP1 SWAP2 DIV MUL PUSH1 0x20 ADD PUSH1 0x40 MLOAD SWAP1 DUP2 ADD PUSH1 0x40 MSTORE DUP1 SWAP3 SWAP2 SWAP1 DUP2 DUP2 MSTORE PUSH1 0x20 ADD DUP3 DUP1 SLOAD PUSH2 0xB91 SWAP1 PUSH2 0x1B12 JUMP JUMPDEST DUP1 ISZERO PUSH2 0xBDE JUMPI DUP1 PUSH1 0x1F LT PUSH2 0xBB3 JUMPI PUSH2 0x100 DUP1 DUP4 SLOAD DIV MUL DUP4 MSTORE SWAP2 PUSH1 0x20 ADD SWAP2 PUSH2 0xBDE JUMP JUMPDEST DUP3 ADD SWAP2 SWAP1 PUSH1 0x0 MSTORE PUSH1 0x20 PUSH1 0x0 KECCAK256 SWAP1 JUMPDEST DUP2 SLOAD DUP2 MSTORE SWAP1 PUSH1 0x1 ADD SWAP1 PUSH1 0x20 ADD DUP1 DUP4 GT PUSH2 0xBC1 JUMPI DUP3 SWAP1 SUB PUSH1 0x1F AND DUP3 ADD SWAP2 JUMPDEST POP POP POP POP POP DUP2 MSTORE PUSH1 0x20 ADD PUSH1 0x4 DUP3 ADD DUP1 SLOAD PUSH2 0xBF7 SWAP1 PUSH2 0x1B12 JUMP JUMPDEST DUP1 PUSH1 0x1F ADD PUSH1 0x20 DUP1 SWAP2 DIV MUL PUSH1 0x20 ADD PUSH1 0x40 MLOAD SWAP1 DUP2 ADD PUSH1 0x40 MSTORE DUP1 SWAP3 SWAP2 SWAP1 DUP2 DUP2 MSTORE PUSH1 0x20 ADD DUP3 DUP1 SLOAD PUSH2 0xC23 SWAP1 PUSH2 0x1B12 JUMP JUMPDEST DUP1 ISZERO PUSH2 0xC70 JUMPI DUP1 PUSH1 0x1F LT PUSH2 0xC45 JUMPI PUSH2 0x100 DUP1 DUP4 SLOAD DIV MUL DUP4 MSTORE SWAP2 PUSH1 0x20 ADD SWAP2 PUSH2 0xC70 JUMP JUMPDEST DUP3 ADD SWAP2 SWAP1 PUSH1 0x0 MSTORE PUSH1 0x20 PUSH1 0x0 KECCAK256 SWAP1 JUMPDEST DUP2 SLOAD DUP2 MSTORE SWAP1 PUSH1 0x1 ADD SWAP1 PUSH1 0x20 ADD DUP1 DUP4 GT PUSH2 0xC53 JUMPI DUP3 SWAP1 SUB PUSH1 0x1F AND DUP3 ADD SWAP2 JUMPDEST POP POP POP POP POP DUP2 MSTORE POP POP SWAP1 DUP1 PUSH1 0xB ADD PUSH1 0x40 MLOAD DUP1 PUSH1 0x60 ADD PUSH1 0x40 MSTORE SWAP1 DUP2 PUSH1 0x0 DUP3 ADD DUP1 SLOAD DUP1 PUSH1 0x20 MUL PUSH1 0x20 ADD PUSH1 0x40 MLOAD SWAP1 DUP2 ADD PUSH1 0x40 MSTORE DUP1 SWAP3 SWAP2 SWAP1 DUP2 DUP2 MSTORE PUSH1 0x20 ADD PUSH1 0x0 SWAP1 JUMPDEST DUP3 DUP3 LT ISZERO PUSH2 0xD5A JUMPI DUP4 DUP3 SWAP1 PUSH1 0x0 MSTORE PUSH1 0x20 PUSH1 0x0 KECCAK256 ADD DUP1 SLOAD PUSH2 0xCCD SWAP1 PUSH2 0x1B12 JUMP JUMPDEST DUP1 PUSH1 0x1F ADD PUSH1 0x20 DUP1 SWAP2 DIV MUL PUSH1 0x20 ADD PUSH1 0x40 MLOAD SWAP1 DUP2 ADD PUSH1 0x40 MSTORE DUP1 SWAP3 SWAP2 SWAP1 DUP2 DUP2 MSTORE PUSH1 0x20 ADD DUP3 DUP1 SLOAD PUSH2 0xCF9 SWAP1 PUSH2 0x1B12 JUMP JUMPDEST DUP1 ISZERO PUSH2 0xD46 JUMPI DUP1 PUSH1 0x1F LT PUSH2 0xD1B JUMPI PUSH2 0x100 DUP1 DUP4 SLOAD DIV MUL DUP4 MSTORE SWAP2 PUSH1 0x20 ADD SWAP2 PUSH2 0xD46 JUMP JUMPDEST DUP3 ADD SWAP2 SWAP1 PUSH1 0x0 MSTORE PUSH1 0x20 PUSH1 0x0 KECCAK256 SWAP1 JUMPDEST DUP2 SLOAD DUP2 MSTORE SWAP1 PUSH1 0x1 ADD SWAP1 PUSH1 0x20 ADD DUP1 DUP4 GT PUSH2 0xD29 JUMPI DUP3 SWAP1 SUB PUSH1 0x1F AND DUP3 ADD SWAP2 JUMPDEST POP POP POP POP POP DUP2 MSTORE PUSH1 0x20 ADD SWAP1 PUSH1 0x1 ADD SWAP1 PUSH2 0xCAE JUMP JUMPDEST POP POP POP POP DUP2 MSTORE PUSH1 0x20 ADD PUSH1 0x1 DUP3 ADD DUP1 SLOAD DUP1 PUSH1 0x20 MUL PUSH1 0x20 ADD PUSH1 0x40 MLOAD SWAP1 DUP2 ADD PUSH1 0x40 MSTORE DUP1 SWAP3 SWAP2 SWAP1 DUP2 DUP2 MSTORE PUSH1 0x20 ADD PUSH1 0x0 SWAP1 JUMPDEST DUP3 DUP3 LT ISZERO PUSH2 0xE33 JUMPI DUP4 DUP3 SWAP1 PUSH1 0x0 MSTORE PUSH1 0x20 PUSH1 0x0 KECCAK256 ADD DUP1 SLOAD PUSH2 0xDA6 SWAP1 PUSH2 0x1B12 JUMP JUMPDEST DUP1 PUSH1 0x1F ADD PUSH1 0x20 DUP1 SWAP2 DIV MUL PUSH1 0x20 ADD PUSH1 0x40 MLOAD SWAP1 DUP2 ADD PUSH1 0x40 MSTORE DUP1 SWAP3 SWAP2 SWAP1 DUP2 DUP2 MSTORE PUSH1 0x20 ADD DUP3 DUP1 SLOAD PUSH2 0xDD2 SWAP1 PUSH2 0x1B12 JUMP JUMPDEST DUP1 ISZERO PUSH2 0xE1F JUMPI DUP1 PUSH1 0x1F LT PUSH2 0xDF4 JUMPI PUSH2 0x100 DUP1 DUP4 SLOAD DIV MUL DUP4 MSTORE SWAP2 PUSH1 0x20 ADD SWAP2 PUSH2 0xE1F JUMP JUMPDEST DUP3 ADD SWAP2 SWAP1 PUSH1 0x0 MSTORE PUSH1 0x20 PUSH1 0x0 KECCAK256 SWAP1 JUMPDEST DUP2 SLOAD DUP2 MSTORE SWAP1 PUSH1 0x1 ADD SWAP1 PUSH1 0x20 ADD DUP1 DUP4 GT PUSH2 0xE02 JUMPI DUP3 SWAP1 SUB PUSH1 0x1F AND DUP3 ADD SWAP2 JUMPDEST POP POP POP POP POP DUP2 MSTORE PUSH1 0x20 ADD SWAP1 PUSH1 0x1 ADD SWAP1 PUSH2 0xD87 JUMP JUMPDEST POP POP POP POP DUP2 MSTORE PUSH1 0x20 ADD PUSH1 0x2 DUP3 ADD DUP1 SLOAD DUP1 PUSH1 0x20 MUL PUSH1 0x20 ADD PUSH1 0x40 MLOAD SWAP1 DUP2 ADD PUSH1 0x40 MSTORE DUP1 SWAP3 SWAP2 SWAP1 DUP2 DUP2 MSTORE PUSH1 0x20 ADD PUSH1 0x0 SWAP1 JUMPDEST DUP3 DUP3 LT ISZERO PUSH2 0xF0C JUMPI DUP4 DUP3 SWAP1 PUSH1 0x0 MSTORE PUSH1 0x20 PUSH1 0x0 KECCAK256 ADD DUP1 SLOAD PUSH2 0xE7F SWAP1 PUSH2 0x1B12 JUMP JUMPDEST DUP1 PUSH1 0x1F ADD PUSH1 0x20 DUP1 SWAP2 DIV MUL PUSH1 0x20 ADD PUSH1 0x40 MLOAD SWAP1 DUP2 ADD PUSH1 0x40 MSTORE DUP1 SWAP3 SWAP2 SWAP1 DUP2 DUP2 MSTORE PUSH1 0x20 ADD DUP3 DUP1 SLOAD PUSH2 0xEAB SWAP1 PUSH2 0x1B12 JUMP JUMPDEST DUP1 ISZERO PUSH2 0xEF8 JUMPI DUP1 PUSH1 0x1F LT PUSH2 0xECD JUMPI PUSH2 0x100 DUP1 DUP4 SLOAD DIV MUL DUP4 MSTORE SWAP2 PUSH1 0x20 ADD SWAP2 PUSH2 0xEF8 JUMP JUMPDEST DUP3 ADD SWAP2 SWAP1 PUSH1 0x0 MSTORE PUSH1 0x20 PUSH1 0x0 KECCAK256 SWAP1 JUMPDEST DUP2 SLOAD DUP2 MSTORE SWAP1 PUSH1 0x1 ADD SWAP1 PUSH1 0x20 ADD DUP1 DUP4 GT PUSH2 0xEDB JUMPI DUP3 SWAP1 SUB PUSH1 0x1F AND DUP3 ADD SWAP2 JUMPDEST POP POP POP POP POP DUP2 MSTORE PUSH1 0x20 ADD SWAP1 PUSH1 0x1 ADD SWAP1 PUSH2 0xE60 JUMP JUMPDEST POP POP POP POP DUP2 MSTORE POP POP SWAP1 POP DUP9 JUMP JUMPDEST POP POP POP JUMP JUMPDEST PUSH1 0x0 DUP1 CALLER PUSH20 0xFFFFFFFFFFFFFFFFFFFFFFFFFFFFFFFFFFFFFFFF AND PUSH20 0xFFFFFFFFFFFFFFFFFFFFFFFFFFFFFFFFFFFFFFFF AND DUP2 MSTORE PUSH1 0x20 ADD SWAP1 DUP2 MSTORE PUSH1 0x20 ADD PUSH1 0x0 KECCAK256 PUSH1 0x0 DUP1 DUP3 ADD PUSH1 0x0 PUSH2 0x100 EXP DUP2 SLOAD SWAP1 PUSH20 0xFFFFFFFFFFFFFFFFFFFFFFFFFFFFFFFFFFFFFFFF MUL NOT AND SWAP1 SSTORE PUSH1 0x1 DUP3 ADD PUSH1 0x0 PUSH2 0xF94 SWAP2 SWAP1 PUSH2 0x10EF JUMP JUMPDEST PUSH1 0x2 DUP3 ADD PUSH1 0x0 PUSH2 0xFA4 SWAP2 SWAP1 PUSH2 0x10EF JUMP JUMPDEST PUSH1 0x3 DUP3 ADD PUSH1 0x0 PUSH2 0xFB4 SWAP2 SWAP1 PUSH2 0x10EF JUMP JUMPDEST PUSH1 0x4 DUP3 ADD PUSH1 0x0 PUSH2 0xFC4 SWAP2 SWAP1 PUSH2 0x10EF JUMP JUMPDEST PUSH1 0x5 DUP3 ADD PUSH1 0x0 SWAP1 SSTORE PUSH1 0x6 DUP3 ADD PUSH1 0x0 DUP1 DUP3 ADD PUSH1 0x0 PUSH2 0xFE1 SWAP2 SWAP1 PUSH2 0x10EF JUMP JUMPDEST PUSH1 0x1 DUP3 ADD PUSH1 0x0 PUSH2 0xFF1 SWAP2 SWAP1 PUSH2 0x10EF JUMP JUMPDEST PUSH1 0x2 DUP3 ADD PUSH1 0x0 PUSH2 0x1001 SWAP2 SWAP1 PUSH2 0x10EF JUMP JUMPDEST PUSH1 0x3 DUP3 ADD PUSH1 0x0 PUSH2 0x1011 SWAP2 SWAP1 PUSH2 0x10EF JUMP JUMPDEST PUSH1 0x4 DUP3 ADD PUSH1 0x0 PUSH2 0x1021 SWAP2 SWAP1 PUSH2 0x10EF JUMP JUMPDEST POP POP PUSH1 0xB DUP3 ADD PUSH1 0x0 DUP1 DUP3 ADD PUSH1 0x0 PUSH2 0x1038 SWAP2 SWAP1 PUSH2 0x106E JUMP JUMPDEST PUSH1 0x1 DUP3 ADD PUSH1 0x0 PUSH2 0x1048 SWAP2 SWAP1 PUSH2 0x106E JUMP JUMPDEST PUSH1 0x2 DUP3 ADD PUSH1 0x0 PUSH2 0x1058 SWAP2 SWAP1 PUSH2 0x106E JUMP JUMPDEST POP POP PUSH1 0xE DUP3 ADD PUSH1 0x0 PUSH2 0x106A SWAP2 SWAP1 PUSH2 0x11B5 JUMP JUMPDEST POP POP JUMP JUMPDEST POP DUP1 SLOAD PUSH1 0x0 DUP3 SSTORE SWAP1 PUSH1 0x0 MSTORE PUSH1 0x20 PUSH1 0x0 KECCAK256 SWAP1 DUP2 ADD SWAP1 PUSH2 0x108C SWAP2 SWAP1 PUSH2 0x11D9 JUMP JUMPDEST POP JUMP JUMPDEST DUP3 DUP1 SLOAD DUP3 DUP3 SSTORE SWAP1 PUSH1 0x0 MSTORE PUSH1 0x20 PUSH1 0x0 KECCAK256 SWAP1 DUP2 ADD SWAP3 DUP3 ISZERO PUSH2 0x10DE JUMPI SWAP2 PUSH1 0x20 MUL DUP3 ADD JUMPDEST DUP3 DUP2 GT ISZERO PUSH2 0x10DD JUMPI DUP3 MLOAD DUP3 SWAP1 DUP1 MLOAD SWAP1 PUSH1 0x20 ADD SWAP1 PUSH2 0x10CD SWAP3 SWAP2 SWAP1 PUSH2 0x112F JUMP JUMPDEST POP SWAP2 PUSH1 0x20 ADD SWAP2 SWAP1 PUSH1 0x1 ADD SWAP1 PUSH2 0x10AF JUMP JUMPDEST JUMPDEST POP SWAP1 POP PUSH2 0x10EB SWAP2 SWAP1 PUSH2 0x11D9 JUMP JUMPDEST POP SWAP1 JUMP JUMPDEST POP DUP1 SLOAD PUSH2 0x10FB SWAP1 PUSH2 0x1B12 JUMP JUMPDEST PUSH1 0x0 DUP3 SSTORE DUP1 PUSH1 0x1F LT PUSH2 0x110D JUMPI POP PUSH2 0x112C JUMP JUMPDEST PUSH1 0x1F ADD PUSH1 0x20 SWAP1 DIV SWAP1 PUSH1 0x0 MSTORE PUSH1 0x20 PUSH1 0x0 KECCAK256 SWAP1 DUP2 ADD SWAP1 PUSH2 0x112B SWAP2 SWAP1 PUSH2 0x11FD JUMP JUMPDEST JUMPDEST POP JUMP JUMPDEST DUP3 DUP1 SLOAD PUSH2 0x113B SWAP1 PUSH2 0x1B12 JUMP JUMPDEST SWAP1 PUSH1 0x0 MSTORE PUSH1 0x20 PUSH1 0x0 KECCAK256 SWAP1 PUSH1 0x1F ADD PUSH1 0x20 SWAP1 DIV DUP2 ADD SWAP3 DUP3 PUSH2 0x115D JUMPI PUSH1 0x0 DUP6 SSTORE PUSH2 0x11A4 JUMP JUMPDEST DUP3 PUSH1 0x1F LT PUSH2 0x1176 JUMPI DUP1 MLOAD PUSH1 0xFF NOT AND DUP4 DUP1 ADD OR DUP6 SSTORE PUSH2 0x11A4 JUMP JUMPDEST DUP3 DUP1 ADD PUSH1 0x1 ADD DUP6 SSTORE DUP3 ISZERO PUSH2 0x11A4 JUMPI SWAP2 DUP3 ADD JUMPDEST DUP3 DUP2 GT ISZERO PUSH2 0x11A3 JUMPI DUP3 MLOAD DUP3 SSTORE SWAP2 PUSH1 0x20 ADD SWAP2 SWAP1 PUSH1 0x1 ADD SWAP1 PUSH2 0x1188 JUMP JUMPDEST JUMPDEST POP SWAP1 POP PUSH2 0x11B1 SWAP2 SWAP1 PUSH2 0x11FD JUMP JUMPDEST POP SWAP1 JUMP JUMPDEST POP DUP1 SLOAD PUSH1 0x0 DUP3 SSTORE PUSH1 0x3 MUL SWAP1 PUSH1 0x0 MSTORE PUSH1 0x20 PUSH1 0x0 KECCAK256 SWAP1 DUP2 ADD SWAP1 PUSH2 0x11D6 SWAP2 SWAP1 PUSH2 0x121A JUMP JUMPDEST POP JUMP JUMPDEST JUMPDEST DUP1 DUP3 GT ISZERO PUSH2 0x11F9 JUMPI PUSH1 0x0 DUP2 DUP2 PUSH2 0x11F0 SWAP2 SWAP1 PUSH2 0x10EF JUMP JUMPDEST POP PUSH1 0x1 ADD PUSH2 0x11DA JUMP JUMPDEST POP SWAP1 JUMP JUMPDEST JUMPDEST DUP1 DUP3 GT ISZERO PUSH2 0x1216 JUMPI PUSH1 0x0 DUP2 PUSH1 0x0 SWAP1 SSTORE POP PUSH1 0x1 ADD PUSH2 0x11FE JUMP JUMPDEST POP SWAP1 JUMP JUMPDEST JUMPDEST DUP1 DUP3 GT ISZERO PUSH2 0x125D JUMPI PUSH1 0x0 DUP1 DUP3 ADD PUSH1 0x0 PUSH2 0x1234 SWAP2 SWAP1 PUSH2 0x10EF JUMP JUMPDEST PUSH1 0x1 DUP3 ADD PUSH1 0x0 PUSH2 0x1244 SWAP2 SWAP1 PUSH2 0x10EF JUMP JUMPDEST PUSH1 0x2 DUP3 ADD PUSH1 0x0 PUSH2 0x1254 SWAP2 SWAP1 PUSH2 0x10EF JUMP JUMPDEST POP PUSH1 0x3 ADD PUSH2 0x121B JUMP JUMPDEST POP SWAP1 JUMP JUMPDEST PUSH1 0x0 PUSH2 0x1274 PUSH2 0x126F DUP5 PUSH2 0x19D1 JUMP JUMPDEST PUSH2 0x19AC JUMP JUMPDEST SWAP1 POP DUP1 DUP4 DUP3 MSTORE PUSH1 0x20 DUP3 ADD SWAP1 POP DUP3 DUP6 PUSH1 0x20 DUP7 MUL DUP3 ADD GT ISZERO PUSH2 0x1297 JUMPI PUSH2 0x1296 PUSH2 0x1BD8 JUMP JUMPDEST JUMPDEST PUSH1 0x0 JUMPDEST DUP6 DUP2 LT ISZERO PUSH2 0x12E5 JUMPI DUP2 CALLDATALOAD PUSH8 0xFFFFFFFFFFFFFFFF DUP2 GT ISZERO PUSH2 0x12BD JUMPI PUSH2 0x12BC PUSH2 0x1BD3 JUMP JUMPDEST JUMPDEST DUP1 DUP7 ADD PUSH2 0x12CA DUP10 DUP3 PUSH2 0x1374 JUMP JUMPDEST DUP6 MSTORE PUSH1 0x20 DUP6 ADD SWAP5 POP PUSH1 0x20 DUP5 ADD SWAP4 POP POP POP PUSH1 0x1 DUP2 ADD SWAP1 POP PUSH2 0x129A JUMP JUMPDEST POP POP POP SWAP4 SWAP3 POP POP POP JUMP JUMPDEST PUSH1 0x0 PUSH2 0x1302 PUSH2 0x12FD DUP5 PUSH2 0x19FD JUMP JUMPDEST PUSH2 0x19AC JUMP JUMPDEST SWAP1 POP DUP3 DUP2 MSTORE PUSH1 0x20 DUP2 ADD DUP5 DUP5 DUP5 ADD GT ISZERO PUSH2 0x131E JUMPI PUSH2 0x131D PUSH2 0x1BDD JUMP JUMPDEST JUMPDEST PUSH2 0x1329 DUP5 DUP3 DUP6 PUSH2 0x1AD0 JUMP JUMPDEST POP SWAP4 SWAP3 POP POP POP JUMP JUMPDEST PUSH1 0x0 DUP2 CALLDATALOAD SWAP1 POP PUSH2 0x1340 DUP2 PUSH2 0x1BFD JUMP JUMPDEST SWAP3 SWAP2 POP POP JUMP JUMPDEST PUSH1 0x0 DUP3 PUSH1 0x1F DUP4 ADD SLT PUSH2 0x135B JUMPI PUSH2 0x135A PUSH2 0x1BD3 JUMP JUMPDEST JUMPDEST DUP2 CALLDATALOAD PUSH2 0x136B DUP5 DUP3 PUSH1 0x20 DUP7 ADD PUSH2 0x1261 JUMP JUMPDEST SWAP2 POP POP SWAP3 SWAP2 POP POP JUMP JUMPDEST PUSH1 0x0 DUP3 PUSH1 0x1F DUP4 ADD SLT PUSH2 0x1389 JUMPI PUSH2 0x1388 PUSH2 0x1BD3 JUMP JUMPDEST JUMPDEST DUP2 CALLDATALOAD PUSH2 0x1399 DUP5 DUP3 PUSH1 0x20 DUP7 ADD PUSH2 0x12EF JUMP JUMPDEST SWAP2 POP POP SWAP3 SWAP2 POP POP JUMP JUMPDEST PUSH1 0x0 PUSH1 0x20 DUP3 DUP5 SUB SLT ISZERO PUSH2 0x13B8 JUMPI PUSH2 0x13B7 PUSH2 0x1BE7 JUMP JUMPDEST JUMPDEST PUSH1 0x0 PUSH2 0x13C6 DUP5 DUP3 DUP6 ADD PUSH2 0x1331 JUMP JUMPDEST SWAP2 POP POP SWAP3 SWAP2 POP POP JUMP JUMPDEST PUSH1 0x0 DUP1 PUSH1 0x0 PUSH1 0x60 DUP5 DUP7 SUB SLT ISZERO PUSH2 0x13E8 JUMPI PUSH2 0x13E7 PUSH2 0x1BE7 JUMP JUMPDEST JUMPDEST PUSH1 0x0 DUP5 ADD CALLDATALOAD PUSH8 0xFFFFFFFFFFFFFFFF DUP2 GT ISZERO PUSH2 0x1406 JUMPI PUSH2 0x1405 PUSH2 0x1BE2 JUMP JUMPDEST JUMPDEST PUSH2 0x1412 DUP7 DUP3 DUP8 ADD PUSH2 0x1346 JUMP JUMPDEST SWAP4 POP POP PUSH1 0x20 DUP5 ADD CALLDATALOAD PUSH8 0xFFFFFFFFFFFFFFFF DUP2 GT ISZERO PUSH2 0x1433 JUMPI PUSH2 0x1432 PUSH2 0x1BE2 JUMP JUMPDEST JUMPDEST PUSH2 0x143F DUP7 DUP3 DUP8 ADD PUSH2 0x1346 JUMP JUMPDEST SWAP3 POP POP PUSH1 0x40 DUP5 ADD CALLDATALOAD PUSH8 0xFFFFFFFFFFFFFFFF DUP2 GT ISZERO PUSH2 0x1460 JUMPI PUSH2 0x145F PUSH2 0x1BE2 JUMP JUMPDEST JUMPDEST PUSH2 0x146C DUP7 DUP3 DUP8 ADD PUSH2 0x1346 JUMP JUMPDEST SWAP2 POP POP SWAP3 POP SWAP3 POP SWAP3 JUMP JUMPDEST PUSH1 0x0 DUP1 PUSH1 0x0 PUSH1 0x60 DUP5 DUP7 SUB SLT ISZERO PUSH2 0x148F JUMPI PUSH2 0x148E PUSH2 0x1BE7 JUMP JUMPDEST JUMPDEST PUSH1 0x0 DUP5 ADD CALLDATALOAD PUSH8 0xFFFFFFFFFFFFFFFF DUP2 GT ISZERO PUSH2 0x14AD JUMPI PUSH2 0x14AC PUSH2 0x1BE2 JUMP JUMPDEST JUMPDEST PUSH2 0x14B9 DUP7 DUP3 DUP8 ADD PUSH2 0x1374 JUMP JUMPDEST SWAP4 POP POP PUSH1 0x20 DUP5 ADD CALLDATALOAD PUSH8 0xFFFFFFFFFFFFFFFF DUP2 GT ISZERO PUSH2 0x14DA JUMPI PUSH2 0x14D9 PUSH2 0x1BE2 JUMP JUMPDEST JUMPDEST PUSH2 0x14E6 DUP7 DUP3 DUP8 ADD PUSH2 0x1374 JUMP JUMPDEST SWAP3 POP POP PUSH1 0x40 DUP5 ADD CALLDATALOAD PUSH8 0xFFFFFFFFFFFFFFFF DUP2 GT ISZERO PUSH2 0x1507 JUMPI PUSH2 0x1506 PUSH2 0x1BE2 JUMP JUMPDEST JUMPDEST PUSH2 0x1513 DUP7 DUP3 DUP8 ADD PUSH2 0x1374 JUMP JUMPDEST SWAP2 POP POP SWAP3 POP SWAP3 POP SWAP3 JUMP JUMPDEST PUSH1 0x0 DUP1 PUSH1 0x0 DUP1 PUSH1 0x80 DUP6 DUP8 SUB SLT ISZERO PUSH2 0x1537 JUMPI PUSH2 0x1536 PUSH2 0x1BE7 JUMP JUMPDEST JUMPDEST PUSH1 0x0 DUP6 ADD CALLDATALOAD PUSH8 0xFFFFFFFFFFFFFFFF DUP2 GT ISZERO PUSH2 0x1555 JUMPI PUSH2 0x1554 PUSH2 0x1BE2 JUMP JUMPDEST JUMPDEST PUSH2 0x1561 DUP8 DUP3 DUP9 ADD PUSH2 0x1374 JUMP JUMPDEST SWAP5 POP POP PUSH1 0x20 DUP6 ADD CALLDATALOAD PUSH8 0xFFFFFFFFFFFFFFFF DUP2 GT ISZERO PUSH2 0x1582 JUMPI PUSH2 0x1581 PUSH2 0x1BE2 JUMP JUMPDEST JUMPDEST PUSH2 0x158E DUP8 DUP3 DUP9 ADD PUSH2 0x1374 JUMP JUMPDEST SWAP4 POP POP PUSH1 0x40 DUP6 ADD CALLDATALOAD PUSH8 0xFFFFFFFFFFFFFFFF DUP2 GT ISZERO PUSH2 0x15AF JUMPI PUSH2 0x15AE PUSH2 0x1BE2 JUMP JUMPDEST JUMPDEST PUSH2 0x15BB DUP8 DUP3 DUP9 ADD PUSH2 0x1374 JUMP JUMPDEST SWAP3 POP POP PUSH1 0x60 DUP6 ADD CALLDATALOAD PUSH8 0xFFFFFFFFFFFFFFFF DUP2 GT ISZERO PUSH2 0x15DC JUMPI PUSH2 0x15DB PUSH2 0x1BE2 JUMP JUMPDEST JUMPDEST PUSH2 0x15E8 DUP8 DUP3 DUP9 ADD PUSH2 0x1374 JUMP JUMPDEST SWAP2 POP POP SWAP3 SWAP6 SWAP2 SWAP5 POP SWAP3 POP JUMP JUMPDEST PUSH1 0x0 DUP1 PUSH1 0x0 DUP1 PUSH1 0x0 PUSH1 0xA0 DUP7 DUP9 SUB SLT ISZERO PUSH2 0x1610 JUMPI PUSH2 0x160F PUSH2 0x1BE7 JUMP JUMPDEST JUMPDEST PUSH1 0x0 DUP7 ADD CALLDATALOAD PUSH8 0xFFFFFFFFFFFFFFFF DUP2 GT ISZERO PUSH2 0x162E JUMPI PUSH2 0x162D PUSH2 0x1BE2 JUMP JUMPDEST JUMPDEST PUSH2 0x163A DUP9 DUP3 DUP10 ADD PUSH2 0x1374 JUMP JUMPDEST SWAP6 POP POP PUSH1 0x20 DUP7 ADD CALLDATALOAD PUSH8 0xFFFFFFFFFFFFFFFF DUP2 GT ISZERO PUSH2 0x165B JUMPI PUSH2 0x165A PUSH2 0x1BE2 JUMP JUMPDEST JUMPDEST PUSH2 0x1667 DUP9 DUP3 DUP10 ADD PUSH2 0x1374 JUMP JUMPDEST SWAP5 POP POP PUSH1 0x40 DUP7 ADD CALLDATALOAD PUSH8 0xFFFFFFFFFFFFFFFF DUP2 GT ISZERO PUSH2 0x1688 JUMPI PUSH2 0x1687 PUSH2 0x1BE2 JUMP JUMPDEST JUMPDEST PUSH2 0x1694 DUP9 DUP3 DUP10 ADD PUSH2 0x1374 JUMP JUMPDEST SWAP4 POP POP PUSH1 0x60 DUP7 ADD CALLDATALOAD PUSH8 0xFFFFFFFFFFFFFFFF DUP2 GT ISZERO PUSH2 0x16B5 JUMPI PUSH2 0x16B4 PUSH2 0x1BE2 JUMP JUMPDEST JUMPDEST PUSH2 0x16C1 DUP9 DUP3 DUP10 ADD PUSH2 0x1374 JUMP JUMPDEST SWAP3 POP POP PUSH1 0x80 DUP7 ADD CALLDATALOAD PUSH8 0xFFFFFFFFFFFFFFFF DUP2 GT ISZERO PUSH2 0x16E2 JUMPI PUSH2 0x16E1 PUSH2 0x1BE2 JUMP JUMPDEST JUMPDEST PUSH2 0x16EE DUP9 DUP3 DUP10 ADD PUSH2 0x1374 JUMP JUMPDEST SWAP2 POP POP SWAP3 SWAP6 POP SWAP3 SWAP6 SWAP1 SWAP4 POP JUMP JUMPDEST PUSH1 0x0 PUSH2 0x1707 DUP4 DUP4 PUSH2 0x1793 JUMP JUMPDEST SWAP1 POP SWAP3 SWAP2 POP POP JUMP JUMPDEST PUSH2 0x1718 DUP2 PUSH2 0x1A94 JUMP JUMPDEST DUP3 MSTORE POP POP JUMP JUMPDEST PUSH1 0x0 PUSH2 0x1729 DUP3 PUSH2 0x1A3E JUMP JUMPDEST PUSH2 0x1733 DUP2 DUP6 PUSH2 0x1A61 JUMP JUMPDEST SWAP4 POP DUP4 PUSH1 0x20 DUP3 MUL DUP6 ADD PUSH2 0x1745 DUP6 PUSH2 0x1A2E JUMP JUMPDEST DUP1 PUSH1 0x0 JUMPDEST DUP6 DUP2 LT ISZERO PUSH2 0x1781 JUMPI DUP5 DUP5 SUB DUP10 MSTORE DUP2 MLOAD PUSH2 0x1762 DUP6 DUP3 PUSH2 0x16FB JUMP JUMPDEST SWAP5 POP PUSH2 0x176D DUP4 PUSH2 0x1A54 JUMP JUMPDEST SWAP3 POP PUSH1 0x20 DUP11 ADD SWAP10 POP POP PUSH1 0x1 DUP2 ADD SWAP1 POP PUSH2 0x1749 JUMP JUMPDEST POP DUP3 SWAP8 POP DUP8 SWAP6 POP POP POP POP POP POP SWAP3 SWAP2 POP POP JUMP JUMPDEST PUSH1 0x0 PUSH2 0x179E DUP3 PUSH2 0x1A49 JUMP JUMPDEST PUSH2 0x17A8 DUP2 DUP6 PUSH2 0x1A72 JUMP JUMPDEST SWAP4 POP PUSH2 0x17B8 DUP2 DUP6 PUSH1 0x20 DUP7 ADD PUSH2 0x1ADF JUMP JUMPDEST PUSH2 0x17C1 DUP2 PUSH2 0x1BEC JUMP JUMPDEST DUP5 ADD SWAP2 POP POP SWAP3 SWAP2 POP POP JUMP JUMPDEST PUSH1 0x0 PUSH2 0x17D7 DUP3 PUSH2 0x1A49 JUMP JUMPDEST PUSH2 0x17E1 DUP2 DUP6 PUSH2 0x1A83 JUMP JUMPDEST SWAP4 POP PUSH2 0x17F1 DUP2 DUP6 PUSH1 0x20 DUP7 ADD PUSH2 0x1ADF JUMP JUMPDEST PUSH2 0x17FA DUP2 PUSH2 0x1BEC JUMP JUMPDEST DUP5 ADD SWAP2 POP POP SWAP3 SWAP2 POP POP JUMP JUMPDEST PUSH1 0x0 PUSH1 0xA0 DUP4 ADD PUSH1 0x0 DUP4 ADD MLOAD DUP5 DUP3 SUB PUSH1 0x0 DUP7 ADD MSTORE PUSH2 0x1822 DUP3 DUP3 PUSH2 0x1793 JUMP JUMPDEST SWAP2 POP POP PUSH1 0x20 DUP4 ADD MLOAD DUP5 DUP3 SUB PUSH1 0x20 DUP7 ADD MSTORE PUSH2 0x183C DUP3 DUP3 PUSH2 0x1793 JUMP JUMPDEST SWAP2 POP POP PUSH1 0x40 DUP4 ADD MLOAD DUP5 DUP3 SUB PUSH1 0x40 DUP7 ADD MSTORE PUSH2 0x1856 DUP3 DUP3 PUSH2 0x1793 JUMP JUMPDEST SWAP2 POP POP PUSH1 0x60 DUP4 ADD MLOAD DUP5 DUP3 SUB PUSH1 0x60 DUP7 ADD MSTORE PUSH2 0x1870 DUP3 DUP3 PUSH2 0x1793 JUMP JUMPDEST SWAP2 POP POP PUSH1 0x80 DUP4 ADD MLOAD DUP5 DUP3 SUB PUSH1 0x80 DUP7 ADD MSTORE PUSH2 0x188A DUP3 DUP3 PUSH2 0x1793 JUMP JUMPDEST SWAP2 POP POP DUP1 SWAP2 POP POP SWAP3 SWAP2 POP POP JUMP JUMPDEST PUSH1 0x0 PUSH1 0x60 DUP4 ADD PUSH1 0x0 DUP4 ADD MLOAD DUP5 DUP3 SUB PUSH1 0x0 DUP7 ADD MSTORE PUSH2 0x18B4 DUP3 DUP3 PUSH2 0x171E JUMP JUMPDEST SWAP2 POP POP PUSH1 0x20 DUP4 ADD MLOAD DUP5 DUP3 SUB PUSH1 0x20 DUP7 ADD MSTORE PUSH2 0x18CE DUP3 DUP3 PUSH2 0x171E JUMP JUMPDEST SWAP2 POP POP PUSH1 0x40 DUP4 ADD MLOAD DUP5 DUP3 SUB PUSH1 0x40 DUP7 ADD MSTORE PUSH2 0x18E8 DUP3 DUP3 PUSH2 0x171E JUMP JUMPDEST SWAP2 POP POP DUP1 SWAP2 POP POP SWAP3 SWAP2 POP POP JUMP JUMPDEST PUSH2 0x18FE DUP2 PUSH2 0x1AC6 JUMP JUMPDEST DUP3 MSTORE POP POP JUMP JUMPDEST PUSH1 0x0 PUSH2 0x100 DUP3 ADD SWAP1 POP PUSH2 0x191A PUSH1 0x0 DUP4 ADD DUP12 PUSH2 0x170F JUMP JUMPDEST DUP2 DUP2 SUB PUSH1 0x20 DUP4 ADD MSTORE PUSH2 0x192C DUP2 DUP11 PUSH2 0x17CC JUMP JUMPDEST SWAP1 POP DUP2 DUP2 SUB PUSH1 0x40 DUP4 ADD MSTORE PUSH2 0x1940 DUP2 DUP10 PUSH2 0x17CC JUMP JUMPDEST SWAP1 POP DUP2 DUP2 SUB PUSH1 0x60 DUP4 ADD MSTORE PUSH2 0x1954 DUP2 DUP9 PUSH2 0x17CC JUMP JUMPDEST SWAP1 POP DUP2 DUP2 SUB PUSH1 0x80 DUP4 ADD MSTORE PUSH2 0x1968 DUP2 DUP8 PUSH2 0x17CC JUMP JUMPDEST SWAP1 POP PUSH2 0x1977 PUSH1 0xA0 DUP4 ADD DUP7 PUSH2 0x18F5 JUMP JUMPDEST DUP2 DUP2 SUB PUSH1 0xC0 DUP4 ADD MSTORE PUSH2 0x1989 DUP2 DUP6 PUSH2 0x1805 JUMP JUMPDEST SWAP1 POP DUP2 DUP2 SUB PUSH1 0xE0 DUP4 ADD MSTORE PUSH2 0x199D DUP2 DUP5 PUSH2 0x1897 JUMP JUMPDEST SWAP1 POP SWAP10 SWAP9 POP POP POP POP POP POP POP POP POP JUMP JUMPDEST PUSH1 0x0 PUSH2 0x19B6 PUSH2 0x19C7 JUMP JUMPDEST SWAP1 POP PUSH2 0x19C2 DUP3 DUP3 PUSH2 0x1B44 JUMP JUMPDEST SWAP2 SWAP1 POP JUMP JUMPDEST PUSH1 0x0 PUSH1 0x40 MLOAD SWAP1 POP SWAP1 JUMP JUMPDEST PUSH1 0x0 PUSH8 0xFFFFFFFFFFFFFFFF DUP3 GT ISZERO PUSH2 0x19EC JUMPI PUSH2 0x19EB PUSH2 0x1BA4 JUMP JUMPDEST JUMPDEST PUSH1 0x20 DUP3 MUL SWAP1 POP PUSH1 0x20 DUP2 ADD SWAP1 POP SWAP2 SWAP1 POP JUMP JUMPDEST PUSH1 0x0 PUSH8 0xFFFFFFFFFFFFFFFF DUP3 GT ISZERO PUSH2 0x1A18 JUMPI PUSH2 0x1A17 PUSH2 0x1BA4 JUMP JUMPDEST JUMPDEST PUSH2 0x1A21 DUP3 PUSH2 0x1BEC JUMP JUMPDEST SWAP1 POP PUSH1 0x20 DUP2 ADD SWAP1 POP SWAP2 SWAP1 POP JUMP JUMPDEST PUSH1 0x0 DUP2 SWAP1 POP PUSH1 0x20 DUP3 ADD SWAP1 POP SWAP2 SWAP1 POP JUMP JUMPDEST PUSH1 0x0 DUP2 MLOAD SWAP1 POP SWAP2 SWAP1 POP JUMP JUMPDEST PUSH1 0x0 DUP2 MLOAD SWAP1 POP SWAP2 SWAP1 POP JUMP JUMPDEST PUSH1 0x0 PUSH1 0x20 DUP3 ADD SWAP1 POP SWAP2 SWAP1 POP JUMP JUMPDEST PUSH1 0x0 DUP3 DUP3 MSTORE PUSH1 0x20 DUP3 ADD SWAP1 POP SWAP3 SWAP2 POP POP JUMP JUMPDEST PUSH1 0x0 DUP3 DUP3 MSTORE PUSH1 0x20 DUP3 ADD SWAP1 POP SWAP3 SWAP2 POP POP JUMP JUMPDEST PUSH1 0x0 DUP3 DUP3 MSTORE PUSH1 0x20 DUP3 ADD SWAP1 POP SWAP3 SWAP2 POP POP JUMP JUMPDEST PUSH1 0x0 PUSH2 0x1A9F DUP3 PUSH2 0x1AA6 JUMP JUMPDEST SWAP1 POP SWAP2 SWAP1 POP JUMP JUMPDEST PUSH1 0x0 PUSH20 0xFFFFFFFFFFFFFFFFFFFFFFFFFFFFFFFFFFFFFFFF DUP3 AND SWAP1 POP SWAP2 SWAP1 POP JUMP JUMPDEST PUSH1 0x0 DUP2 SWAP1 POP SWAP2 SWAP1 POP JUMP JUMPDEST DUP3 DUP2 DUP4 CALLDATACOPY PUSH1 0x0 DUP4 DUP4 ADD MSTORE POP POP POP JUMP JUMPDEST PUSH1 0x0 JUMPDEST DUP4 DUP2 LT ISZERO PUSH2 0x1AFD JUMPI DUP1 DUP3 ADD MLOAD DUP2 DUP5 ADD MSTORE PUSH1 0x20 DUP2 ADD SWAP1 POP PUSH2 0x1AE2 JUMP JUMPDEST DUP4 DUP2 GT ISZERO PUSH2 0x1B0C JUMPI PUSH1 0x0 DUP5 DUP5 ADD MSTORE JUMPDEST POP POP POP POP JUMP JUMPDEST PUSH1 0x0 PUSH1 0x2 DUP3 DIV SWAP1 POP PUSH1 0x1 DUP3 AND DUP1 PUSH2 0x1B2A JUMPI PUSH1 0x7F DUP3 AND SWAP2 POP JUMPDEST PUSH1 0x20 DUP3 LT DUP2 EQ ISZERO PUSH2 0x1B3E JUMPI PUSH2 0x1B3D PUSH2 0x1B75 JUMP JUMPDEST JUMPDEST POP SWAP2 SWAP1 POP JUMP JUMPDEST PUSH2 0x1B4D DUP3 PUSH2 0x1BEC JUMP JUMPDEST DUP2 ADD DUP2 DUP2 LT PUSH8 0xFFFFFFFFFFFFFFFF DUP3 GT OR ISZERO PUSH2 0x1B6C JUMPI PUSH2 0x1B6B PUSH2 0x1BA4 JUMP JUMPDEST JUMPDEST DUP1 PUSH1 0x40 MSTORE POP POP POP JUMP JUMPDEST PUSH32 0x4E487B7100000000000000000000000000000000000000000000000000000000 PUSH1 0x0 MSTORE PUSH1 0x22 PUSH1 0x4 MSTORE PUSH1 0x24 PUSH1 0x0 REVERT JUMPDEST PUSH32 0x4E487B7100000000000000000000000000000000000000000000000000000000 PUSH1 0x0 MSTORE PUSH1 0x41 PUSH1 0x4 MSTORE PUSH1 0x24 PUSH1 0x0 REVERT JUMPDEST PUSH1 0x0 DUP1 REVERT JUMPDEST PUSH1 0x0 DUP1 REVERT JUMPDEST PUSH1 0x0 DUP1 REVERT JUMPDEST PUSH1 0x0 DUP1 REVERT JUMPDEST PUSH1 0x0 DUP1 REVERT JUMPDEST PUSH1 0x0 PUSH1 0x1F NOT PUSH1 0x1F DUP4 ADD AND SWAP1 POP SWAP2 SWAP1 POP JUMP JUMPDEST PUSH2 0x1C06 DUP2 PUSH2 0x1A94 JUMP JUMPDEST DUP2 EQ PUSH2 0x1C11 JUMPI PUSH1 0x0 DUP1 REVERT JUMPDEST POP JUMP INVALID LOG2 PUSH5 0x6970667358 0x22 SLT KECCAK256 0xB6 0xD9 0xCA PUSH32 0x57C2EDBAC1783292E95E5602A3A5370525438E3F33CE36B5FF8A46F64736F6C PUSH4 0x43000807 STOP CALLER "
				},
				"gasEstimates": {
					"creation": {
						"codeDepositCost": "1448400",
						"executionCost": "1513",
						"totalCost": "1449913"
					},
					"external": {
						"createBio(string,string,string,string)": "infinite",
						"createContract(string,string,string,string,string)": "infinite",
						"createSkill(string[],string[],string[])": "infinite",
						"createUnivercity(string,string,string)": "infinite",
						"delProfile()": "infinite",
						"profile(address)": "infinite"
					}
				},
				"methodIdentifiers": {
					"createBio(string,string,string,string)": "8c241fc4",
					"createContract(string,string,string,string,string)": "72828388",
					"createSkill(string[],string[],string[])": "3d984d0e",
					"createUnivercity(string,string,string)": "dc6d6a83",
					"delProfile()": "fabce08f",
					"profile(address)": "9dd9d0fd"
				}
			},
			"storageLayout": {
				"storage": [
					{
						"astId": 29,
						"contract": "contracts/Profile.sol:Profile",
						"label": "profile",
						"offset": 0,
						"slot": "0",
						"type": "t_mapping(t_address,t_struct(Bio)24_storage)"
					}
				],
				"types": {
					"t_address": {
						"encoding": "inplace",
						"label": "address",
						"numberOfBytes": "20"
					},
					"t_array(t_string_storage)dyn_storage": {
						"base": "t_string_storage",
						"encoding": "dynamic_array",
						"label": "string[]",
						"numberOfBytes": "32"
					},
					"t_array(t_struct(Education)57_storage)dyn_storage": {
						"base": "t_struct(Education)57_storage",
						"encoding": "dynamic_array",
						"label": "struct Profile.Education[]",
						"numberOfBytes": "32"
					},
					"t_mapping(t_address,t_struct(Bio)24_storage)": {
						"encoding": "mapping",
						"key": "t_address",
						"label": "mapping(address => struct Profile.Bio)",
						"numberOfBytes": "32",
						"value": "t_struct(Bio)24_storage"
					},
					"t_string_storage": {
						"encoding": "bytes",
						"label": "string",
						"numberOfBytes": "32"
					},
					"t_struct(Bio)24_storage": {
						"encoding": "inplace",
						"label": "struct Profile.Bio",
						"members": [
							{
								"astId": 3,
								"contract": "contracts/Profile.sol:Profile",
								"label": "userAddress",
								"offset": 0,
								"slot": "0",
								"type": "t_address"
							},
							{
								"astId": 5,
								"contract": "contracts/Profile.sol:Profile",
								"label": "firstName",
								"offset": 0,
								"slot": "1",
								"type": "t_string_storage"
							},
							{
								"astId": 7,
								"contract": "contracts/Profile.sol:Profile",
								"label": "middleName",
								"offset": 0,
								"slot": "2",
								"type": "t_string_storage"
							},
							{
								"astId": 9,
								"contract": "contracts/Profile.sol:Profile",
								"label": "lastName",
								"offset": 0,
								"slot": "3",
								"type": "t_string_storage"
							},
							{
								"astId": 11,
								"contract": "contracts/Profile.sol:Profile",
								"label": "profileImage",
								"offset": 0,
								"slot": "4",
								"type": "t_string_storage"
							},
							{
								"astId": 13,
								"contract": "contracts/Profile.sol:Profile",
								"label": "createDate",
								"offset": 0,
								"slot": "5",
								"type": "t_uint256"
							},
							{
								"astId": 16,
								"contract": "contracts/Profile.sol:Profile",
								"label": "privateContract",
								"offset": 0,
								"slot": "6",
								"type": "t_struct(Contract)40_storage"
							},
							{
								"astId": 19,
								"contract": "contracts/Profile.sol:Profile",
								"label": "skill",
								"offset": 0,
								"slot": "11",
								"type": "t_struct(Skill)50_storage"
							},
							{
								"astId": 23,
								"contract": "contracts/Profile.sol:Profile",
								"label": "education",
								"offset": 0,
								"slot": "14",
								"type": "t_array(t_struct(Education)57_storage)dyn_storage"
							}
						],
						"numberOfBytes": "480"
					},
					"t_struct(Contract)40_storage": {
						"encoding": "inplace",
						"label": "struct Profile.Contract",
						"members": [
							{
								"astId": 31,
								"contract": "contracts/Profile.sol:Profile",
								"label": "email",
								"offset": 0,
								"slot": "0",
								"type": "t_string_storage"
							},
							{
								"astId": 33,
								"contract": "contracts/Profile.sol:Profile",
								"label": "phone",
								"offset": 0,
								"slot": "1",
								"type": "t_string_storage"
							},
							{
								"astId": 35,
								"contract": "contracts/Profile.sol:Profile",
								"label": "github",
								"offset": 0,
								"slot": "2",
								"type": "t_string_storage"
							},
							{
								"astId": 37,
								"contract": "contracts/Profile.sol:Profile",
								"label": "gitlab",
								"offset": 0,
								"slot": "3",
								"type": "t_string_storage"
							},
							{
								"astId": 39,
								"contract": "contracts/Profile.sol:Profile",
								"label": "linkin",
								"offset": 0,
								"slot": "4",
								"type": "t_string_storage"
							}
						],
						"numberOfBytes": "160"
					},
					"t_struct(Education)57_storage": {
						"encoding": "inplace",
						"label": "struct Profile.Education",
						"members": [
							{
								"astId": 52,
								"contract": "contracts/Profile.sol:Profile",
								"label": "startDate",
								"offset": 0,
								"slot": "0",
								"type": "t_string_storage"
							},
							{
								"astId": 54,
								"contract": "contracts/Profile.sol:Profile",
								"label": "endDate",
								"offset": 0,
								"slot": "1",
								"type": "t_string_storage"
							},
							{
								"astId": 56,
								"contract": "contracts/Profile.sol:Profile",
								"label": "univercity",
								"offset": 0,
								"slot": "2",
								"type": "t_string_storage"
							}
						],
						"numberOfBytes": "96"
					},
					"t_struct(Skill)50_storage": {
						"encoding": "inplace",
						"label": "struct Profile.Skill",
						"members": [
							{
								"astId": 43,
								"contract": "contracts/Profile.sol:Profile",
								"label": "frontend",
								"offset": 0,
								"slot": "0",
								"type": "t_array(t_string_storage)dyn_storage"
							},
							{
								"astId": 46,
								"contract": "contracts/Profile.sol:Profile",
								"label": "backend",
								"offset": 0,
								"slot": "1",
								"type": "t_array(t_string_storage)dyn_storage"
							},
							{
								"astId": 49,
								"contract": "contracts/Profile.sol:Profile",
								"label": "framework",
								"offset": 0,
								"slot": "2",
								"type": "t_array(t_string_storage)dyn_storage"
							}
						],
						"numberOfBytes": "96"
					},
					"t_uint256": {
						"encoding": "inplace",
						"label": "uint256",
						"numberOfBytes": "32"
					}
				}
			},
			"userdoc": {
				"kind": "user",
				"methods": {},
				"version": 1
			}
		}
	}
}