{
	"contracts/Profile.sol": {
		"Profile": {
			"abi": [
				{
					"inputs": [
						{
							"internalType": "string",
							"name": "firstName",
							"type": "string"
						},
						{
							"internalType": "string",
							"name": "middleName",
							"type": "string"
						},
						{
							"internalType": "string",
							"name": "lastName",
							"type": "string"
						},
						{
							"internalType": "string",
							"name": "email",
							"type": "string"
						},
						{
							"internalType": "string",
							"name": "phone",
							"type": "string"
						},
						{
							"internalType": "string",
							"name": "profileImage",
							"type": "string"
						},
						{
							"internalType": "string[]",
							"name": "frontend",
							"type": "string[]"
						}
					],
					"name": "addBio",
					"outputs": [],
					"stateMutability": "nonpayable",
					"type": "function"
				},
				{
					"inputs": [],
					"name": "delProfile",
					"outputs": [],
					"stateMutability": "nonpayable",
					"type": "function"
				},
				{
					"inputs": [
						{
							"internalType": "address",
							"name": "",
							"type": "address"
						}
					],
					"name": "profile",
					"outputs": [
						{
							"internalType": "string",
							"name": "firstName",
							"type": "string"
						},
						{
							"internalType": "string",
							"name": "middleName",
							"type": "string"
						},
						{
							"internalType": "string",
							"name": "lastName",
							"type": "string"
						},
						{
							"internalType": "string",
							"name": "email",
							"type": "string"
						},
						{
							"internalType": "string",
							"name": "phone",
							"type": "string"
						},
						{
							"internalType": "string",
							"name": "profileImage",
							"type": "string"
						},
						{
							"internalType": "address",
							"name": "userAddress",
							"type": "address"
						},
						{
							"internalType": "uint256",
							"name": "createDate",
							"type": "uint256"
						}
					],
					"stateMutability": "view",
					"type": "function"
				}
			],
			"devdoc": {
				"kind": "dev",
				"methods": {},
				"version": 1
			},
			"evm": {
				"assembly": "    /* \"contracts/Profile.sol\":60:1902  contract Profile {\r... */\n  mstore(0x40, 0x80)\n  callvalue\n  dup1\n  iszero\n  tag_1\n  jumpi\n  0x00\n  dup1\n  revert\ntag_1:\n  pop\n  dataSize(sub_0)\n  dup1\n  dataOffset(sub_0)\n  0x00\n  codecopy\n  0x00\n  return\nstop\n\nsub_0: assembly {\n        /* \"contracts/Profile.sol\":60:1902  contract Profile {\r... */\n      mstore(0x40, 0x80)\n      callvalue\n      dup1\n      iszero\n      tag_1\n      jumpi\n      0x00\n      dup1\n      revert\n    tag_1:\n      pop\n      jumpi(tag_2, lt(calldatasize, 0x04))\n      shr(0xe0, calldataload(0x00))\n      dup1\n      0x9dd9d0fd\n      eq\n      tag_3\n      jumpi\n      dup1\n      0x9e46df9a\n      eq\n      tag_4\n      jumpi\n      dup1\n      0xfabce08f\n      eq\n      tag_5\n      jumpi\n    tag_2:\n      0x00\n      dup1\n      revert\n        /* \"contracts/Profile.sol\":411:451  mapping (address => Bio) public  profile */\n    tag_3:\n      tag_6\n      0x04\n      dup1\n      calldatasize\n      sub\n      dup2\n      add\n      swap1\n      tag_7\n      swap2\n      swap1\n      tag_8\n      jump\t// in\n    tag_7:\n      tag_9\n      jump\t// in\n    tag_6:\n      mload(0x40)\n      tag_10\n      swap9\n      swap8\n      swap7\n      swap6\n      swap5\n      swap4\n      swap3\n      swap2\n      swap1\n      tag_11\n      jump\t// in\n    tag_10:\n      mload(0x40)\n      dup1\n      swap2\n      sub\n      swap1\n      return\n        /* \"contracts/Profile.sol\":466:1119  function addBio(string memory firstName, string memory middleName, string memory lastName, string memory email, string memory phone, string memory profileImage, string[] memory frontend) public {\r... */\n    tag_4:\n      tag_12\n      0x04\n      dup1\n      calldatasize\n      sub\n      dup2\n      add\n      swap1\n      tag_13\n      swap2\n      swap1\n      tag_14\n      jump\t// in\n    tag_13:\n      tag_15\n      jump\t// in\n    tag_12:\n      stop\n        /* \"contracts/Profile.sol\":1825:1899  function delProfile() public {\r... */\n    tag_5:\n      tag_16\n      tag_17\n      jump\t// in\n    tag_16:\n      stop\n        /* \"contracts/Profile.sol\":411:451  mapping (address => Bio) public  profile */\n    tag_9:\n      mstore(0x20, 0x00)\n      dup1\n      0x00\n      mstore\n      keccak256(0x00, 0x40)\n      0x00\n      swap2\n      pop\n      swap1\n      pop\n      dup1\n      0x00\n      add\n      dup1\n      sload\n      tag_18\n      swap1\n      tag_19\n      jump\t// in\n    tag_18:\n      dup1\n      0x1f\n      add\n      0x20\n      dup1\n      swap2\n      div\n      mul\n      0x20\n      add\n      mload(0x40)\n      swap1\n      dup2\n      add\n      0x40\n      mstore\n      dup1\n      swap3\n      swap2\n      swap1\n      dup2\n      dup2\n      mstore\n      0x20\n      add\n      dup3\n      dup1\n      sload\n      tag_20\n      swap1\n      tag_19\n      jump\t// in\n    tag_20:\n      dup1\n      iszero\n      tag_21\n      jumpi\n      dup1\n      0x1f\n      lt\n      tag_22\n      jumpi\n      0x0100\n      dup1\n      dup4\n      sload\n      div\n      mul\n      dup4\n      mstore\n      swap2\n      0x20\n      add\n      swap2\n      jump(tag_21)\n    tag_22:\n      dup3\n      add\n      swap2\n      swap1\n      0x00\n      mstore\n      keccak256(0x00, 0x20)\n      swap1\n    tag_23:\n      dup2\n      sload\n      dup2\n      mstore\n      swap1\n      0x01\n      add\n      swap1\n      0x20\n      add\n      dup1\n      dup4\n      gt\n      tag_23\n      jumpi\n      dup3\n      swap1\n      sub\n      0x1f\n      and\n      dup3\n      add\n      swap2\n    tag_21:\n      pop\n      pop\n      pop\n      pop\n      pop\n      swap1\n      dup1\n      0x01\n      add\n      dup1\n      sload\n      tag_24\n      swap1\n      tag_19\n      jump\t// in\n    tag_24:\n      dup1\n      0x1f\n      add\n      0x20\n      dup1\n      swap2\n      div\n      mul\n      0x20\n      add\n      mload(0x40)\n      swap1\n      dup2\n      add\n      0x40\n      mstore\n      dup1\n      swap3\n      swap2\n      swap1\n      dup2\n      dup2\n      mstore\n      0x20\n      add\n      dup3\n      dup1\n      sload\n      tag_25\n      swap1\n      tag_19\n      jump\t// in\n    tag_25:\n      dup1\n      iszero\n      tag_26\n      jumpi\n      dup1\n      0x1f\n      lt\n      tag_27\n      jumpi\n      0x0100\n      dup1\n      dup4\n      sload\n      div\n      mul\n      dup4\n      mstore\n      swap2\n      0x20\n      add\n      swap2\n      jump(tag_26)\n    tag_27:\n      dup3\n      add\n      swap2\n      swap1\n      0x00\n      mstore\n      keccak256(0x00, 0x20)\n      swap1\n    tag_28:\n      dup2\n      sload\n      dup2\n      mstore\n      swap1\n      0x01\n      add\n      swap1\n      0x20\n      add\n      dup1\n      dup4\n      gt\n      tag_28\n      jumpi\n      dup3\n      swap1\n      sub\n      0x1f\n      and\n      dup3\n      add\n      swap2\n    tag_26:\n      pop\n      pop\n      pop\n      pop\n      pop\n      swap1\n      dup1\n      0x02\n      add\n      dup1\n      sload\n      tag_29\n      swap1\n      tag_19\n      jump\t// in\n    tag_29:\n      dup1\n      0x1f\n      add\n      0x20\n      dup1\n      swap2\n      div\n      mul\n      0x20\n      add\n      mload(0x40)\n      swap1\n      dup2\n      add\n      0x40\n      mstore\n      dup1\n      swap3\n      swap2\n      swap1\n      dup2\n      dup2\n      mstore\n      0x20\n      add\n      dup3\n      dup1\n      sload\n      tag_30\n      swap1\n      tag_19\n      jump\t// in\n    tag_30:\n      dup1\n      iszero\n      tag_31\n      jumpi\n      dup1\n      0x1f\n      lt\n      tag_32\n      jumpi\n      0x0100\n      dup1\n      dup4\n      sload\n      div\n      mul\n      dup4\n      mstore\n      swap2\n      0x20\n      add\n      swap2\n      jump(tag_31)\n    tag_32:\n      dup3\n      add\n      swap2\n      swap1\n      0x00\n      mstore\n      keccak256(0x00, 0x20)\n      swap1\n    tag_33:\n      dup2\n      sload\n      dup2\n      mstore\n      swap1\n      0x01\n      add\n      swap1\n      0x20\n      add\n      dup1\n      dup4\n      gt\n      tag_33\n      jumpi\n      dup3\n      swap1\n      sub\n      0x1f\n      and\n      dup3\n      add\n      swap2\n    tag_31:\n      pop\n      pop\n      pop\n      pop\n      pop\n      swap1\n      dup1\n      0x03\n      add\n      dup1\n      sload\n      tag_34\n      swap1\n      tag_19\n      jump\t// in\n    tag_34:\n      dup1\n      0x1f\n      add\n      0x20\n      dup1\n      swap2\n      div\n      mul\n      0x20\n      add\n      mload(0x40)\n      swap1\n      dup2\n      add\n      0x40\n      mstore\n      dup1\n      swap3\n      swap2\n      swap1\n      dup2\n      dup2\n      mstore\n      0x20\n      add\n      dup3\n      dup1\n      sload\n      tag_35\n      swap1\n      tag_19\n      jump\t// in\n    tag_35:\n      dup1\n      iszero\n      tag_36\n      jumpi\n      dup1\n      0x1f\n      lt\n      tag_37\n      jumpi\n      0x0100\n      dup1\n      dup4\n      sload\n      div\n      mul\n      dup4\n      mstore\n      swap2\n      0x20\n      add\n      swap2\n      jump(tag_36)\n    tag_37:\n      dup3\n      add\n      swap2\n      swap1\n      0x00\n      mstore\n      keccak256(0x00, 0x20)\n      swap1\n    tag_38:\n      dup2\n      sload\n      dup2\n      mstore\n      swap1\n      0x01\n      add\n      swap1\n      0x20\n      add\n      dup1\n      dup4\n      gt\n      tag_38\n      jumpi\n      dup3\n      swap1\n      sub\n      0x1f\n      and\n      dup3\n      add\n      swap2\n    tag_36:\n      pop\n      pop\n      pop\n      pop\n      pop\n      swap1\n      dup1\n      0x04\n      add\n      dup1\n      sload\n      tag_39\n      swap1\n      tag_19\n      jump\t// in\n    tag_39:\n      dup1\n      0x1f\n      add\n      0x20\n      dup1\n      swap2\n      div\n      mul\n      0x20\n      add\n      mload(0x40)\n      swap1\n      dup2\n      add\n      0x40\n      mstore\n      dup1\n      swap3\n      swap2\n      swap1\n      dup2\n      dup2\n      mstore\n      0x20\n      add\n      dup3\n      dup1\n      sload\n      tag_40\n      swap1\n      tag_19\n      jump\t// in\n    tag_40:\n      dup1\n      iszero\n      tag_41\n      jumpi\n      dup1\n      0x1f\n      lt\n      tag_42\n      jumpi\n      0x0100\n      dup1\n      dup4\n      sload\n      div\n      mul\n      dup4\n      mstore\n      swap2\n      0x20\n      add\n      swap2\n      jump(tag_41)\n    tag_42:\n      dup3\n      add\n      swap2\n      swap1\n      0x00\n      mstore\n      keccak256(0x00, 0x20)\n      swap1\n    tag_43:\n      dup2\n      sload\n      dup2\n      mstore\n      swap1\n      0x01\n      add\n      swap1\n      0x20\n      add\n      dup1\n      dup4\n      gt\n      tag_43\n      jumpi\n      dup3\n      swap1\n      sub\n      0x1f\n      and\n      dup3\n      add\n      swap2\n    tag_41:\n      pop\n      pop\n      pop\n      pop\n      pop\n      swap1\n      dup1\n      0x05\n      add\n      dup1\n      sload\n      tag_44\n      swap1\n      tag_19\n      jump\t// in\n    tag_44:\n      dup1\n      0x1f\n      add\n      0x20\n      dup1\n      swap2\n      div\n      mul\n      0x20\n      add\n      mload(0x40)\n      swap1\n      dup2\n      add\n      0x40\n      mstore\n      dup1\n      swap3\n      swap2\n      swap1\n      dup2\n      dup2\n      mstore\n      0x20\n      add\n      dup3\n      dup1\n      sload\n      tag_45\n      swap1\n      tag_19\n      jump\t// in\n    tag_45:\n      dup1\n      iszero\n      tag_46\n      jumpi\n      dup1\n      0x1f\n      lt\n      tag_47\n      jumpi\n      0x0100\n      dup1\n      dup4\n      sload\n      div\n      mul\n      dup4\n      mstore\n      swap2\n      0x20\n      add\n      swap2\n      jump(tag_46)\n    tag_47:\n      dup3\n      add\n      swap2\n      swap1\n      0x00\n      mstore\n      keccak256(0x00, 0x20)\n      swap1\n    tag_48:\n      dup2\n      sload\n      dup2\n      mstore\n      swap1\n      0x01\n      add\n      swap1\n      0x20\n      add\n      dup1\n      dup4\n      gt\n      tag_48\n      jumpi\n      dup3\n      swap1\n      sub\n      0x1f\n      and\n      dup3\n      add\n      swap2\n    tag_46:\n      pop\n      pop\n      pop\n      pop\n      pop\n      swap1\n      dup1\n      0x06\n      add\n      0x00\n      swap1\n      sload\n      swap1\n      0x0100\n      exp\n      swap1\n      div\n      0xffffffffffffffffffffffffffffffffffffffff\n      and\n      swap1\n      dup1\n      0x07\n      add\n      sload\n      swap1\n      pop\n      dup9\n      jump\t// out\n        /* \"contracts/Profile.sol\":466:1119  function addBio(string memory firstName, string memory middleName, string memory lastName, string memory email, string memory phone, string memory profileImage, string[] memory frontend) public {\r... */\n    tag_15:\n        /* \"contracts/Profile.sol\":703:712  firstName */\n      dup7\n        /* \"contracts/Profile.sol\":671:678  profile */\n      0x00\n        /* \"contracts/Profile.sol\":671:690  profile[msg.sender] */\n      dup1\n        /* \"contracts/Profile.sol\":679:689  msg.sender */\n      caller\n        /* \"contracts/Profile.sol\":671:690  profile[msg.sender] */\n      0xffffffffffffffffffffffffffffffffffffffff\n      and\n      0xffffffffffffffffffffffffffffffffffffffff\n      and\n      dup2\n      mstore\n      0x20\n      add\n      swap1\n      dup2\n      mstore\n      0x20\n      add\n      0x00\n      keccak256\n        /* \"contracts/Profile.sol\":671:700  profile[msg.sender].firstName */\n      0x00\n      add\n        /* \"contracts/Profile.sol\":671:712  profile[msg.sender].firstName = firstName */\n      swap1\n      dup1\n      mload\n      swap1\n      0x20\n      add\n      swap1\n      tag_50\n      swap3\n      swap2\n      swap1\n      tag_51\n      jump\t// in\n    tag_50:\n      pop\n        /* \"contracts/Profile.sol\":756:766  middleName */\n      dup6\n        /* \"contracts/Profile.sol\":723:730  profile */\n      0x00\n        /* \"contracts/Profile.sol\":723:742  profile[msg.sender] */\n      dup1\n        /* \"contracts/Profile.sol\":731:741  msg.sender */\n      caller\n        /* \"contracts/Profile.sol\":723:742  profile[msg.sender] */\n      0xffffffffffffffffffffffffffffffffffffffff\n      and\n      0xffffffffffffffffffffffffffffffffffffffff\n      and\n      dup2\n      mstore\n      0x20\n      add\n      swap1\n      dup2\n      mstore\n      0x20\n      add\n      0x00\n      keccak256\n        /* \"contracts/Profile.sol\":723:753  profile[msg.sender].middleName */\n      0x01\n      add\n        /* \"contracts/Profile.sol\":723:766  profile[msg.sender].middleName = middleName */\n      swap1\n      dup1\n      mload\n      swap1\n      0x20\n      add\n      swap1\n      tag_52\n      swap3\n      swap2\n      swap1\n      tag_51\n      jump\t// in\n    tag_52:\n      pop\n        /* \"contracts/Profile.sol\":808:816  lastName */\n      dup5\n        /* \"contracts/Profile.sol\":777:784  profile */\n      0x00\n        /* \"contracts/Profile.sol\":777:796  profile[msg.sender] */\n      dup1\n        /* \"contracts/Profile.sol\":785:795  msg.sender */\n      caller\n        /* \"contracts/Profile.sol\":777:796  profile[msg.sender] */\n      0xffffffffffffffffffffffffffffffffffffffff\n      and\n      0xffffffffffffffffffffffffffffffffffffffff\n      and\n      dup2\n      mstore\n      0x20\n      add\n      swap1\n      dup2\n      mstore\n      0x20\n      add\n      0x00\n      keccak256\n        /* \"contracts/Profile.sol\":777:805  profile[msg.sender].lastName */\n      0x02\n      add\n        /* \"contracts/Profile.sol\":777:816  profile[msg.sender].lastName = lastName */\n      swap1\n      dup1\n      mload\n      swap1\n      0x20\n      add\n      swap1\n      tag_53\n      swap3\n      swap2\n      swap1\n      tag_51\n      jump\t// in\n    tag_53:\n      pop\n        /* \"contracts/Profile.sol\":855:860  email */\n      dup4\n        /* \"contracts/Profile.sol\":827:834  profile */\n      0x00\n        /* \"contracts/Profile.sol\":827:846  profile[msg.sender] */\n      dup1\n        /* \"contracts/Profile.sol\":835:845  msg.sender */\n      caller\n        /* \"contracts/Profile.sol\":827:846  profile[msg.sender] */\n      0xffffffffffffffffffffffffffffffffffffffff\n      and\n      0xffffffffffffffffffffffffffffffffffffffff\n      and\n      dup2\n      mstore\n      0x20\n      add\n      swap1\n      dup2\n      mstore\n      0x20\n      add\n      0x00\n      keccak256\n        /* \"contracts/Profile.sol\":827:852  profile[msg.sender].email */\n      0x03\n      add\n        /* \"contracts/Profile.sol\":827:860  profile[msg.sender].email = email */\n      swap1\n      dup1\n      mload\n      swap1\n      0x20\n      add\n      swap1\n      tag_54\n      swap3\n      swap2\n      swap1\n      tag_51\n      jump\t// in\n    tag_54:\n      pop\n        /* \"contracts/Profile.sol\":899:904  phone */\n      dup3\n        /* \"contracts/Profile.sol\":871:878  profile */\n      0x00\n        /* \"contracts/Profile.sol\":871:890  profile[msg.sender] */\n      dup1\n        /* \"contracts/Profile.sol\":879:889  msg.sender */\n      caller\n        /* \"contracts/Profile.sol\":871:890  profile[msg.sender] */\n      0xffffffffffffffffffffffffffffffffffffffff\n      and\n      0xffffffffffffffffffffffffffffffffffffffff\n      and\n      dup2\n      mstore\n      0x20\n      add\n      swap1\n      dup2\n      mstore\n      0x20\n      add\n      0x00\n      keccak256\n        /* \"contracts/Profile.sol\":871:896  profile[msg.sender].phone */\n      0x04\n      add\n        /* \"contracts/Profile.sol\":871:904  profile[msg.sender].phone = phone */\n      swap1\n      dup1\n      mload\n      swap1\n      0x20\n      add\n      swap1\n      tag_55\n      swap3\n      swap2\n      swap1\n      tag_51\n      jump\t// in\n    tag_55:\n      pop\n        /* \"contracts/Profile.sol\":950:962  profileImage */\n      dup2\n        /* \"contracts/Profile.sol\":915:922  profile */\n      0x00\n        /* \"contracts/Profile.sol\":915:934  profile[msg.sender] */\n      dup1\n        /* \"contracts/Profile.sol\":923:933  msg.sender */\n      caller\n        /* \"contracts/Profile.sol\":915:934  profile[msg.sender] */\n      0xffffffffffffffffffffffffffffffffffffffff\n      and\n      0xffffffffffffffffffffffffffffffffffffffff\n      and\n      dup2\n      mstore\n      0x20\n      add\n      swap1\n      dup2\n      mstore\n      0x20\n      add\n      0x00\n      keccak256\n        /* \"contracts/Profile.sol\":915:947  profile[msg.sender].profileImage */\n      0x05\n      add\n        /* \"contracts/Profile.sol\":915:962  profile[msg.sender].profileImage = profileImage */\n      swap1\n      dup1\n      mload\n      swap1\n      0x20\n      add\n      swap1\n      tag_56\n      swap3\n      swap2\n      swap1\n      tag_51\n      jump\t// in\n    tag_56:\n      pop\n        /* \"contracts/Profile.sol\":1007:1017  msg.sender */\n      caller\n        /* \"contracts/Profile.sol\":973:980  profile */\n      0x00\n        /* \"contracts/Profile.sol\":973:992  profile[msg.sender] */\n      dup1\n        /* \"contracts/Profile.sol\":981:991  msg.sender */\n      caller\n        /* \"contracts/Profile.sol\":973:992  profile[msg.sender] */\n      0xffffffffffffffffffffffffffffffffffffffff\n      and\n      0xffffffffffffffffffffffffffffffffffffffff\n      and\n      dup2\n      mstore\n      0x20\n      add\n      swap1\n      dup2\n      mstore\n      0x20\n      add\n      0x00\n      keccak256\n        /* \"contracts/Profile.sol\":973:1004  profile[msg.sender].userAddress */\n      0x06\n      add\n      0x00\n        /* \"contracts/Profile.sol\":973:1017  profile[msg.sender].userAddress = msg.sender */\n      0x0100\n      exp\n      dup2\n      sload\n      dup2\n      0xffffffffffffffffffffffffffffffffffffffff\n      mul\n      not\n      and\n      swap1\n      dup4\n      0xffffffffffffffffffffffffffffffffffffffff\n      and\n      mul\n      or\n      swap1\n      sstore\n      pop\n        /* \"contracts/Profile.sol\":1062:1077  block.timestamp */\n      timestamp\n        /* \"contracts/Profile.sol\":1029:1036  profile */\n      0x00\n        /* \"contracts/Profile.sol\":1029:1048  profile[msg.sender] */\n      dup1\n        /* \"contracts/Profile.sol\":1037:1047  msg.sender */\n      caller\n        /* \"contracts/Profile.sol\":1029:1048  profile[msg.sender] */\n      0xffffffffffffffffffffffffffffffffffffffff\n      and\n      0xffffffffffffffffffffffffffffffffffffffff\n      and\n      dup2\n      mstore\n      0x20\n      add\n      swap1\n      dup2\n      mstore\n      0x20\n      add\n      0x00\n      keccak256\n        /* \"contracts/Profile.sol\":1029:1059  profile[msg.sender].createDate */\n      0x07\n      add\n        /* \"contracts/Profile.sol\":1029:1077  profile[msg.sender].createDate = block.timestamp */\n      dup2\n      swap1\n      sstore\n      pop\n        /* \"contracts/Profile.sol\":1090:1111  addSkill(frontend, 0) */\n      tag_57\n        /* \"contracts/Profile.sol\":1099:1107  frontend */\n      dup2\n        /* \"contracts/Profile.sol\":1109:1110  0 */\n      0x00\n        /* \"contracts/Profile.sol\":1090:1098  addSkill */\n      tag_58\n        /* \"contracts/Profile.sol\":1090:1111  addSkill(frontend, 0) */\n      jump\t// in\n    tag_57:\n        /* \"contracts/Profile.sol\":466:1119  function addBio(string memory firstName, string memory middleName, string memory lastName, string memory email, string memory phone, string memory profileImage, string[] memory frontend) public {\r... */\n      pop\n      pop\n      pop\n      pop\n      pop\n      pop\n      pop\n      jump\t// out\n        /* \"contracts/Profile.sol\":1825:1899  function delProfile() public {\r... */\n    tag_17:\n        /* \"contracts/Profile.sol\":1872:1879  profile */\n      0x00\n        /* \"contracts/Profile.sol\":1872:1891  profile[msg.sender] */\n      dup1\n        /* \"contracts/Profile.sol\":1880:1890  msg.sender */\n      caller\n        /* \"contracts/Profile.sol\":1872:1891  profile[msg.sender] */\n      0xffffffffffffffffffffffffffffffffffffffff\n      and\n      0xffffffffffffffffffffffffffffffffffffffff\n      and\n      dup2\n      mstore\n      0x20\n      add\n      swap1\n      dup2\n      mstore\n      0x20\n      add\n      0x00\n      keccak256\n      0x00\n        /* \"contracts/Profile.sol\":1865:1891  delete profile[msg.sender] */\n      dup1\n      dup3\n      add\n      0x00\n      tag_60\n      swap2\n      swap1\n      tag_61\n      jump\t// in\n    tag_60:\n      0x01\n      dup3\n      add\n      0x00\n      tag_62\n      swap2\n      swap1\n      tag_61\n      jump\t// in\n    tag_62:\n      0x02\n      dup3\n      add\n      0x00\n      tag_63\n      swap2\n      swap1\n      tag_61\n      jump\t// in\n    tag_63:\n      0x03\n      dup3\n      add\n      0x00\n      tag_64\n      swap2\n      swap1\n      tag_61\n      jump\t// in\n    tag_64:\n      0x04\n      dup3\n      add\n      0x00\n      tag_65\n      swap2\n      swap1\n      tag_61\n      jump\t// in\n    tag_65:\n      0x05\n      dup3\n      add\n      0x00\n      tag_66\n      swap2\n      swap1\n      tag_61\n      jump\t// in\n    tag_66:\n      0x06\n      dup3\n      add\n      exp(0x0100, 0x00)\n      dup2\n      sload\n      swap1\n      0xffffffffffffffffffffffffffffffffffffffff\n      mul\n      not\n      and\n      swap1\n      sstore\n      0x07\n      dup3\n      add\n      0x00\n      swap1\n      sstore\n      0x08\n      dup3\n      add\n      0x00\n      tag_67\n      swap2\n      swap1\n      tag_68\n      jump\t// in\n    tag_67:\n      0x09\n      dup3\n      add\n      0x00\n      tag_69\n      swap2\n      swap1\n      tag_68\n      jump\t// in\n    tag_69:\n      0x0a\n      dup3\n      add\n      0x00\n      tag_70\n      swap2\n      swap1\n      tag_68\n      jump\t// in\n    tag_70:\n      pop\n      pop\n        /* \"contracts/Profile.sol\":1825:1899  function delProfile() public {\r... */\n      jump\t// out\n        /* \"contracts/Profile.sol\":1127:1817  function addSkill(string[] memory _frontend, uint8 _type) private {\r... */\n    tag_58:\n        /* \"contracts/Profile.sol\":1247:1248  0 */\n      0x00\n        /* \"contracts/Profile.sol\":1238:1243  _type */\n      dup2\n        /* \"contracts/Profile.sol\":1238:1248  _type == 0 */\n      0xff\n      and\n      eq\n        /* \"contracts/Profile.sol\":1235:1399  if(_type == 0){\r... */\n      iszero\n      tag_72\n      jumpi\n        /* \"contracts/Profile.sol\":1268:1275  uint8 i */\n      0x00\n        /* \"contracts/Profile.sol\":1264:1388  for(uint8 i=0; i < _frontend.length; i++) {\r... */\n    tag_73:\n        /* \"contracts/Profile.sol\":1283:1292  _frontend */\n      dup3\n        /* \"contracts/Profile.sol\":1283:1299  _frontend.length */\n      mload\n        /* \"contracts/Profile.sol\":1279:1280  i */\n      dup2\n        /* \"contracts/Profile.sol\":1279:1299  i < _frontend.length */\n      0xff\n      and\n      lt\n        /* \"contracts/Profile.sol\":1264:1388  for(uint8 i=0; i < _frontend.length; i++) {\r... */\n      iszero\n      tag_74\n      jumpi\n        /* \"contracts/Profile.sol\":1325:1332  profile */\n      0x00\n        /* \"contracts/Profile.sol\":1325:1344  profile[msg.sender] */\n      dup1\n        /* \"contracts/Profile.sol\":1333:1343  msg.sender */\n      caller\n        /* \"contracts/Profile.sol\":1325:1344  profile[msg.sender] */\n      0xffffffffffffffffffffffffffffffffffffffff\n      and\n      0xffffffffffffffffffffffffffffffffffffffff\n      and\n      dup2\n      mstore\n      0x20\n      add\n      swap1\n      dup2\n      mstore\n      0x20\n      add\n      0x00\n      keccak256\n        /* \"contracts/Profile.sol\":1325:1353  profile[msg.sender].frontend */\n      0x08\n      add\n        /* \"contracts/Profile.sol\":1359:1368  _frontend */\n      dup4\n        /* \"contracts/Profile.sol\":1369:1370  i */\n      dup3\n        /* \"contracts/Profile.sol\":1359:1371  _frontend[i] */\n      0xff\n      and\n      dup2\n      mload\n      dup2\n      lt\n      tag_76\n      jumpi\n      tag_77\n      tag_78\n      jump\t// in\n    tag_77:\n    tag_76:\n      0x20\n      mul\n      0x20\n      add\n      add\n      mload\n        /* \"contracts/Profile.sol\":1325:1372  profile[msg.sender].frontend.push(_frontend[i]) */\n      swap1\n      dup1\n      0x01\n      dup2\n      sload\n      add\n      dup1\n      dup3\n      sstore\n      dup1\n      swap2\n      pop\n      pop\n      0x01\n      swap1\n      sub\n      swap1\n      0x00\n      mstore\n      keccak256(0x00, 0x20)\n      add\n      0x00\n      swap1\n      swap2\n      swap1\n      swap2\n      swap1\n      swap2\n      pop\n      swap1\n      dup1\n      mload\n      swap1\n      0x20\n      add\n      swap1\n      tag_80\n      swap3\n      swap2\n      swap1\n      tag_51\n      jump\t// in\n    tag_80:\n      pop\n        /* \"contracts/Profile.sol\":1301:1304  i++ */\n      dup1\n      dup1\n      tag_81\n      swap1\n      tag_82\n      jump\t// in\n    tag_81:\n      swap2\n      pop\n      pop\n        /* \"contracts/Profile.sol\":1264:1388  for(uint8 i=0; i < _frontend.length; i++) {\r... */\n      jump(tag_73)\n    tag_74:\n      pop\n        /* \"contracts/Profile.sol\":1235:1399  if(_type == 0){\r... */\n    tag_72:\n        /* \"contracts/Profile.sol\":1452:1453  1 */\n      0x01\n        /* \"contracts/Profile.sol\":1443:1448  _type */\n      dup2\n        /* \"contracts/Profile.sol\":1443:1453  _type == 1 */\n      0xff\n      and\n      eq\n        /* \"contracts/Profile.sol\":1440:1603  if(_type == 1){\r... */\n      iszero\n      tag_83\n      jumpi\n        /* \"contracts/Profile.sol\":1473:1480  uint8 i */\n      0x00\n        /* \"contracts/Profile.sol\":1469:1592  for(uint8 i=0; i < _frontend.length; i++) {\r... */\n    tag_84:\n        /* \"contracts/Profile.sol\":1488:1497  _frontend */\n      dup3\n        /* \"contracts/Profile.sol\":1488:1504  _frontend.length */\n      mload\n        /* \"contracts/Profile.sol\":1484:1485  i */\n      dup2\n        /* \"contracts/Profile.sol\":1484:1504  i < _frontend.length */\n      0xff\n      and\n      lt\n        /* \"contracts/Profile.sol\":1469:1592  for(uint8 i=0; i < _frontend.length; i++) {\r... */\n      iszero\n      tag_85\n      jumpi\n        /* \"contracts/Profile.sol\":1530:1537  profile */\n      0x00\n        /* \"contracts/Profile.sol\":1530:1549  profile[msg.sender] */\n      dup1\n        /* \"contracts/Profile.sol\":1538:1548  msg.sender */\n      caller\n        /* \"contracts/Profile.sol\":1530:1549  profile[msg.sender] */\n      0xffffffffffffffffffffffffffffffffffffffff\n      and\n      0xffffffffffffffffffffffffffffffffffffffff\n      and\n      dup2\n      mstore\n      0x20\n      add\n      swap1\n      dup2\n      mstore\n      0x20\n      add\n      0x00\n      keccak256\n        /* \"contracts/Profile.sol\":1530:1557  profile[msg.sender].backend */\n      0x09\n      add\n        /* \"contracts/Profile.sol\":1563:1572  _frontend */\n      dup4\n        /* \"contracts/Profile.sol\":1573:1574  i */\n      dup3\n        /* \"contracts/Profile.sol\":1563:1575  _frontend[i] */\n      0xff\n      and\n      dup2\n      mload\n      dup2\n      lt\n      tag_87\n      jumpi\n      tag_88\n      tag_78\n      jump\t// in\n    tag_88:\n    tag_87:\n      0x20\n      mul\n      0x20\n      add\n      add\n      mload\n        /* \"contracts/Profile.sol\":1530:1576  profile[msg.sender].backend.push(_frontend[i]) */\n      swap1\n      dup1\n      0x01\n      dup2\n      sload\n      add\n      dup1\n      dup3\n      sstore\n      dup1\n      swap2\n      pop\n      pop\n      0x01\n      swap1\n      sub\n      swap1\n      0x00\n      mstore\n      keccak256(0x00, 0x20)\n      add\n      0x00\n      swap1\n      swap2\n      swap1\n      swap2\n      swap1\n      swap2\n      pop\n      swap1\n      dup1\n      mload\n      swap1\n      0x20\n      add\n      swap1\n      tag_90\n      swap3\n      swap2\n      swap1\n      tag_51\n      jump\t// in\n    tag_90:\n      pop\n        /* \"contracts/Profile.sol\":1506:1509  i++ */\n      dup1\n      dup1\n      tag_91\n      swap1\n      tag_82\n      jump\t// in\n    tag_91:\n      swap2\n      pop\n      pop\n        /* \"contracts/Profile.sol\":1469:1592  for(uint8 i=0; i < _frontend.length; i++) {\r... */\n      jump(tag_84)\n    tag_85:\n      pop\n        /* \"contracts/Profile.sol\":1440:1603  if(_type == 1){\r... */\n    tag_83:\n        /* \"contracts/Profile.sol\":1657:1658  2 */\n      0x02\n        /* \"contracts/Profile.sol\":1648:1653  _type */\n      dup2\n        /* \"contracts/Profile.sol\":1648:1658  _type == 2 */\n      0xff\n      and\n      eq\n        /* \"contracts/Profile.sol\":1645:1810  if(_type == 2){\r... */\n      iszero\n      tag_92\n      jumpi\n        /* \"contracts/Profile.sol\":1678:1685  uint8 i */\n      0x00\n        /* \"contracts/Profile.sol\":1674:1799  for(uint8 i=0; i < _frontend.length; i++) {\r... */\n    tag_93:\n        /* \"contracts/Profile.sol\":1693:1702  _frontend */\n      dup3\n        /* \"contracts/Profile.sol\":1693:1709  _frontend.length */\n      mload\n        /* \"contracts/Profile.sol\":1689:1690  i */\n      dup2\n        /* \"contracts/Profile.sol\":1689:1709  i < _frontend.length */\n      0xff\n      and\n      lt\n        /* \"contracts/Profile.sol\":1674:1799  for(uint8 i=0; i < _frontend.length; i++) {\r... */\n      iszero\n      tag_94\n      jumpi\n        /* \"contracts/Profile.sol\":1735:1742  profile */\n      0x00\n        /* \"contracts/Profile.sol\":1735:1754  profile[msg.sender] */\n      dup1\n        /* \"contracts/Profile.sol\":1743:1753  msg.sender */\n      caller\n        /* \"contracts/Profile.sol\":1735:1754  profile[msg.sender] */\n      0xffffffffffffffffffffffffffffffffffffffff\n      and\n      0xffffffffffffffffffffffffffffffffffffffff\n      and\n      dup2\n      mstore\n      0x20\n      add\n      swap1\n      dup2\n      mstore\n      0x20\n      add\n      0x00\n      keccak256\n        /* \"contracts/Profile.sol\":1735:1764  profile[msg.sender].framework */\n      0x0a\n      add\n        /* \"contracts/Profile.sol\":1770:1779  _frontend */\n      dup4\n        /* \"contracts/Profile.sol\":1780:1781  i */\n      dup3\n        /* \"contracts/Profile.sol\":1770:1782  _frontend[i] */\n      0xff\n      and\n      dup2\n      mload\n      dup2\n      lt\n      tag_96\n      jumpi\n      tag_97\n      tag_78\n      jump\t// in\n    tag_97:\n    tag_96:\n      0x20\n      mul\n      0x20\n      add\n      add\n      mload\n        /* \"contracts/Profile.sol\":1735:1783  profile[msg.sender].framework.push(_frontend[i]) */\n      swap1\n      dup1\n      0x01\n      dup2\n      sload\n      add\n      dup1\n      dup3\n      sstore\n      dup1\n      swap2\n      pop\n      pop\n      0x01\n      swap1\n      sub\n      swap1\n      0x00\n      mstore\n      keccak256(0x00, 0x20)\n      add\n      0x00\n      swap1\n      swap2\n      swap1\n      swap2\n      swap1\n      swap2\n      pop\n      swap1\n      dup1\n      mload\n      swap1\n      0x20\n      add\n      swap1\n      tag_99\n      swap3\n      swap2\n      swap1\n      tag_51\n      jump\t// in\n    tag_99:\n      pop\n        /* \"contracts/Profile.sol\":1711:1714  i++ */\n      dup1\n      dup1\n      tag_100\n      swap1\n      tag_82\n      jump\t// in\n    tag_100:\n      swap2\n      pop\n      pop\n        /* \"contracts/Profile.sol\":1674:1799  for(uint8 i=0; i < _frontend.length; i++) {\r... */\n      jump(tag_93)\n    tag_94:\n      pop\n        /* \"contracts/Profile.sol\":1645:1810  if(_type == 2){\r... */\n    tag_92:\n        /* \"contracts/Profile.sol\":1127:1817  function addSkill(string[] memory _frontend, uint8 _type) private {\r... */\n      pop\n      pop\n      jump\t// out\n    tag_51:\n      dup3\n      dup1\n      sload\n      tag_101\n      swap1\n      tag_19\n      jump\t// in\n    tag_101:\n      swap1\n      0x00\n      mstore\n      keccak256(0x00, 0x20)\n      swap1\n      0x1f\n      add\n      0x20\n      swap1\n      div\n      dup2\n      add\n      swap3\n      dup3\n      tag_103\n      jumpi\n      0x00\n      dup6\n      sstore\n      jump(tag_102)\n    tag_103:\n      dup3\n      0x1f\n      lt\n      tag_104\n      jumpi\n      dup1\n      mload\n      not(0xff)\n      and\n      dup4\n      dup1\n      add\n      or\n      dup6\n      sstore\n      jump(tag_102)\n    tag_104:\n      dup3\n      dup1\n      add\n      0x01\n      add\n      dup6\n      sstore\n      dup3\n      iszero\n      tag_102\n      jumpi\n      swap2\n      dup3\n      add\n    tag_105:\n      dup3\n      dup2\n      gt\n      iszero\n      tag_106\n      jumpi\n      dup3\n      mload\n      dup3\n      sstore\n      swap2\n      0x20\n      add\n      swap2\n      swap1\n      0x01\n      add\n      swap1\n      jump(tag_105)\n    tag_106:\n    tag_102:\n      pop\n      swap1\n      pop\n      tag_107\n      swap2\n      swap1\n      tag_108\n      jump\t// in\n    tag_107:\n      pop\n      swap1\n      jump\t// out\n    tag_61:\n      pop\n      dup1\n      sload\n      tag_109\n      swap1\n      tag_19\n      jump\t// in\n    tag_109:\n      0x00\n      dup3\n      sstore\n      dup1\n      0x1f\n      lt\n      tag_111\n      jumpi\n      pop\n      jump(tag_110)\n    tag_111:\n      0x1f\n      add\n      0x20\n      swap1\n      div\n      swap1\n      0x00\n      mstore\n      keccak256(0x00, 0x20)\n      swap1\n      dup2\n      add\n      swap1\n      tag_112\n      swap2\n      swap1\n      tag_108\n      jump\t// in\n    tag_112:\n    tag_110:\n      pop\n      jump\t// out\n    tag_68:\n      pop\n      dup1\n      sload\n      0x00\n      dup3\n      sstore\n      swap1\n      0x00\n      mstore\n      keccak256(0x00, 0x20)\n      swap1\n      dup2\n      add\n      swap1\n      tag_114\n      swap2\n      swap1\n      tag_115\n      jump\t// in\n    tag_114:\n      pop\n      jump\t// out\n    tag_108:\n    tag_116:\n      dup1\n      dup3\n      gt\n      iszero\n      tag_117\n      jumpi\n      0x00\n      dup2\n      0x00\n      swap1\n      sstore\n      pop\n      0x01\n      add\n      jump(tag_116)\n    tag_117:\n      pop\n      swap1\n      jump\t// out\n    tag_115:\n    tag_118:\n      dup1\n      dup3\n      gt\n      iszero\n      tag_119\n      jumpi\n      0x00\n      dup2\n      dup2\n      tag_120\n      swap2\n      swap1\n      tag_61\n      jump\t// in\n    tag_120:\n      pop\n      0x01\n      add\n      jump(tag_118)\n    tag_119:\n      pop\n      swap1\n      jump\t// out\n        /* \"#utility.yul\":23:980   */\n    tag_122:\n        /* \"#utility.yul\":129:134   */\n      0x00\n        /* \"#utility.yul\":154:245   */\n      tag_124\n        /* \"#utility.yul\":170:244   */\n      tag_125\n        /* \"#utility.yul\":237:243   */\n      dup5\n        /* \"#utility.yul\":170:244   */\n      tag_126\n      jump\t// in\n    tag_125:\n        /* \"#utility.yul\":154:245   */\n      tag_127\n      jump\t// in\n    tag_124:\n        /* \"#utility.yul\":145:245   */\n      swap1\n      pop\n        /* \"#utility.yul\":265:270   */\n      dup1\n        /* \"#utility.yul\":294:300   */\n      dup4\n        /* \"#utility.yul\":287:292   */\n      dup3\n        /* \"#utility.yul\":280:301   */\n      mstore\n        /* \"#utility.yul\":328:332   */\n      0x20\n        /* \"#utility.yul\":321:326   */\n      dup3\n        /* \"#utility.yul\":317:333   */\n      add\n        /* \"#utility.yul\":310:333   */\n      swap1\n      pop\n        /* \"#utility.yul\":354:360   */\n      dup3\n        /* \"#utility.yul\":404:407   */\n      dup6\n        /* \"#utility.yul\":396:400   */\n      0x20\n        /* \"#utility.yul\":388:394   */\n      dup7\n        /* \"#utility.yul\":384:401   */\n      mul\n        /* \"#utility.yul\":379:382   */\n      dup3\n        /* \"#utility.yul\":375:402   */\n      add\n        /* \"#utility.yul\":372:408   */\n      gt\n        /* \"#utility.yul\":369:512   */\n      iszero\n      tag_128\n      jumpi\n        /* \"#utility.yul\":423:502   */\n      tag_129\n      tag_130\n      jump\t// in\n    tag_129:\n        /* \"#utility.yul\":369:512   */\n    tag_128:\n        /* \"#utility.yul\":536:537   */\n      0x00\n        /* \"#utility.yul\":521:974   */\n    tag_131:\n        /* \"#utility.yul\":546:552   */\n      dup6\n        /* \"#utility.yul\":543:544   */\n      dup2\n        /* \"#utility.yul\":540:553   */\n      lt\n        /* \"#utility.yul\":521:974   */\n      iszero\n      tag_133\n      jumpi\n        /* \"#utility.yul\":628:631   */\n      dup2\n        /* \"#utility.yul\":615:632   */\n      calldataload\n        /* \"#utility.yul\":664:682   */\n      0xffffffffffffffff\n        /* \"#utility.yul\":651:662   */\n      dup2\n        /* \"#utility.yul\":648:683   */\n      gt\n        /* \"#utility.yul\":645:767   */\n      iszero\n      tag_134\n      jumpi\n        /* \"#utility.yul\":686:765   */\n      tag_135\n      tag_136\n      jump\t// in\n    tag_135:\n        /* \"#utility.yul\":645:767   */\n    tag_134:\n        /* \"#utility.yul\":810:821   */\n      dup1\n        /* \"#utility.yul\":802:808   */\n      dup7\n        /* \"#utility.yul\":798:822   */\n      add\n        /* \"#utility.yul\":848:895   */\n      tag_137\n        /* \"#utility.yul\":891:894   */\n      dup10\n        /* \"#utility.yul\":879:889   */\n      dup3\n        /* \"#utility.yul\":848:895   */\n      tag_138\n      jump\t// in\n    tag_137:\n        /* \"#utility.yul\":843:846   */\n      dup6\n        /* \"#utility.yul\":836:896   */\n      mstore\n        /* \"#utility.yul\":925:929   */\n      0x20\n        /* \"#utility.yul\":920:923   */\n      dup6\n        /* \"#utility.yul\":916:930   */\n      add\n        /* \"#utility.yul\":909:930   */\n      swap5\n      pop\n        /* \"#utility.yul\":959:963   */\n      0x20\n        /* \"#utility.yul\":954:957   */\n      dup5\n        /* \"#utility.yul\":950:964   */\n      add\n        /* \"#utility.yul\":943:964   */\n      swap4\n      pop\n        /* \"#utility.yul\":581:974   */\n      pop\n      pop\n        /* \"#utility.yul\":568:569   */\n      0x01\n        /* \"#utility.yul\":565:566   */\n      dup2\n        /* \"#utility.yul\":561:570   */\n      add\n        /* \"#utility.yul\":556:570   */\n      swap1\n      pop\n        /* \"#utility.yul\":521:974   */\n      jump(tag_131)\n    tag_133:\n        /* \"#utility.yul\":525:539   */\n      pop\n        /* \"#utility.yul\":135:980   */\n      pop\n      pop\n        /* \"#utility.yul\":23:980   */\n      swap4\n      swap3\n      pop\n      pop\n      pop\n      jump\t// out\n        /* \"#utility.yul\":986:1398   */\n    tag_139:\n        /* \"#utility.yul\":1064:1069   */\n      0x00\n        /* \"#utility.yul\":1089:1155   */\n      tag_141\n        /* \"#utility.yul\":1105:1154   */\n      tag_142\n        /* \"#utility.yul\":1147:1153   */\n      dup5\n        /* \"#utility.yul\":1105:1154   */\n      tag_143\n      jump\t// in\n    tag_142:\n        /* \"#utility.yul\":1089:1155   */\n      tag_127\n      jump\t// in\n    tag_141:\n        /* \"#utility.yul\":1080:1155   */\n      swap1\n      pop\n        /* \"#utility.yul\":1178:1184   */\n      dup3\n        /* \"#utility.yul\":1171:1176   */\n      dup2\n        /* \"#utility.yul\":1164:1185   */\n      mstore\n        /* \"#utility.yul\":1216:1220   */\n      0x20\n        /* \"#utility.yul\":1209:1214   */\n      dup2\n        /* \"#utility.yul\":1205:1221   */\n      add\n        /* \"#utility.yul\":1254:1257   */\n      dup5\n        /* \"#utility.yul\":1245:1251   */\n      dup5\n        /* \"#utility.yul\":1240:1243   */\n      dup5\n        /* \"#utility.yul\":1236:1252   */\n      add\n        /* \"#utility.yul\":1233:1258   */\n      gt\n        /* \"#utility.yul\":1230:1342   */\n      iszero\n      tag_144\n      jumpi\n        /* \"#utility.yul\":1261:1340   */\n      tag_145\n      tag_146\n      jump\t// in\n    tag_145:\n        /* \"#utility.yul\":1230:1342   */\n    tag_144:\n        /* \"#utility.yul\":1351:1392   */\n      tag_147\n        /* \"#utility.yul\":1385:1391   */\n      dup5\n        /* \"#utility.yul\":1380:1383   */\n      dup3\n        /* \"#utility.yul\":1375:1378   */\n      dup6\n        /* \"#utility.yul\":1351:1392   */\n      tag_148\n      jump\t// in\n    tag_147:\n        /* \"#utility.yul\":1070:1398   */\n      pop\n        /* \"#utility.yul\":986:1398   */\n      swap4\n      swap3\n      pop\n      pop\n      pop\n      jump\t// out\n        /* \"#utility.yul\":1404:1543   */\n    tag_149:\n        /* \"#utility.yul\":1450:1455   */\n      0x00\n        /* \"#utility.yul\":1488:1494   */\n      dup2\n        /* \"#utility.yul\":1475:1495   */\n      calldataload\n        /* \"#utility.yul\":1466:1495   */\n      swap1\n      pop\n        /* \"#utility.yul\":1504:1537   */\n      tag_151\n        /* \"#utility.yul\":1531:1536   */\n      dup2\n        /* \"#utility.yul\":1504:1537   */\n      tag_152\n      jump\t// in\n    tag_151:\n        /* \"#utility.yul\":1404:1543   */\n      swap3\n      swap2\n      pop\n      pop\n      jump\t// out\n        /* \"#utility.yul\":1565:1955   */\n    tag_153:\n        /* \"#utility.yul\":1646:1651   */\n      0x00\n        /* \"#utility.yul\":1695:1698   */\n      dup3\n        /* \"#utility.yul\":1688:1692   */\n      0x1f\n        /* \"#utility.yul\":1680:1686   */\n      dup4\n        /* \"#utility.yul\":1676:1693   */\n      add\n        /* \"#utility.yul\":1672:1699   */\n      slt\n        /* \"#utility.yul\":1662:1784   */\n      tag_155\n      jumpi\n        /* \"#utility.yul\":1703:1782   */\n      tag_156\n      tag_136\n      jump\t// in\n    tag_156:\n        /* \"#utility.yul\":1662:1784   */\n    tag_155:\n        /* \"#utility.yul\":1820:1826   */\n      dup2\n        /* \"#utility.yul\":1807:1827   */\n      calldataload\n        /* \"#utility.yul\":1845:1949   */\n      tag_157\n        /* \"#utility.yul\":1945:1948   */\n      dup5\n        /* \"#utility.yul\":1937:1943   */\n      dup3\n        /* \"#utility.yul\":1930:1934   */\n      0x20\n        /* \"#utility.yul\":1922:1928   */\n      dup7\n        /* \"#utility.yul\":1918:1935   */\n      add\n        /* \"#utility.yul\":1845:1949   */\n      tag_122\n      jump\t// in\n    tag_157:\n        /* \"#utility.yul\":1836:1949   */\n      swap2\n      pop\n        /* \"#utility.yul\":1652:1955   */\n      pop\n        /* \"#utility.yul\":1565:1955   */\n      swap3\n      swap2\n      pop\n      pop\n      jump\t// out\n        /* \"#utility.yul\":1975:2315   */\n    tag_138:\n        /* \"#utility.yul\":2031:2036   */\n      0x00\n        /* \"#utility.yul\":2080:2083   */\n      dup3\n        /* \"#utility.yul\":2073:2077   */\n      0x1f\n        /* \"#utility.yul\":2065:2071   */\n      dup4\n        /* \"#utility.yul\":2061:2078   */\n      add\n        /* \"#utility.yul\":2057:2084   */\n      slt\n        /* \"#utility.yul\":2047:2169   */\n      tag_159\n      jumpi\n        /* \"#utility.yul\":2088:2167   */\n      tag_160\n      tag_136\n      jump\t// in\n    tag_160:\n        /* \"#utility.yul\":2047:2169   */\n    tag_159:\n        /* \"#utility.yul\":2205:2211   */\n      dup2\n        /* \"#utility.yul\":2192:2212   */\n      calldataload\n        /* \"#utility.yul\":2230:2309   */\n      tag_161\n        /* \"#utility.yul\":2305:2308   */\n      dup5\n        /* \"#utility.yul\":2297:2303   */\n      dup3\n        /* \"#utility.yul\":2290:2294   */\n      0x20\n        /* \"#utility.yul\":2282:2288   */\n      dup7\n        /* \"#utility.yul\":2278:2295   */\n      add\n        /* \"#utility.yul\":2230:2309   */\n      tag_139\n      jump\t// in\n    tag_161:\n        /* \"#utility.yul\":2221:2309   */\n      swap2\n      pop\n        /* \"#utility.yul\":2037:2315   */\n      pop\n        /* \"#utility.yul\":1975:2315   */\n      swap3\n      swap2\n      pop\n      pop\n      jump\t// out\n        /* \"#utility.yul\":2321:2650   */\n    tag_8:\n        /* \"#utility.yul\":2380:2386   */\n      0x00\n        /* \"#utility.yul\":2429:2431   */\n      0x20\n        /* \"#utility.yul\":2417:2426   */\n      dup3\n        /* \"#utility.yul\":2408:2415   */\n      dup5\n        /* \"#utility.yul\":2404:2427   */\n      sub\n        /* \"#utility.yul\":2400:2432   */\n      slt\n        /* \"#utility.yul\":2397:2516   */\n      iszero\n      tag_163\n      jumpi\n        /* \"#utility.yul\":2435:2514   */\n      tag_164\n      tag_165\n      jump\t// in\n    tag_164:\n        /* \"#utility.yul\":2397:2516   */\n    tag_163:\n        /* \"#utility.yul\":2555:2556   */\n      0x00\n        /* \"#utility.yul\":2580:2633   */\n      tag_166\n        /* \"#utility.yul\":2625:2632   */\n      dup5\n        /* \"#utility.yul\":2616:2622   */\n      dup3\n        /* \"#utility.yul\":2605:2614   */\n      dup6\n        /* \"#utility.yul\":2601:2623   */\n      add\n        /* \"#utility.yul\":2580:2633   */\n      tag_149\n      jump\t// in\n    tag_166:\n        /* \"#utility.yul\":2570:2633   */\n      swap2\n      pop\n        /* \"#utility.yul\":2526:2643   */\n      pop\n        /* \"#utility.yul\":2321:2650   */\n      swap3\n      swap2\n      pop\n      pop\n      jump\t// out\n        /* \"#utility.yul\":2656:5169   */\n    tag_14:\n        /* \"#utility.yul\":2864:2870   */\n      0x00\n        /* \"#utility.yul\":2872:2878   */\n      dup1\n        /* \"#utility.yul\":2880:2886   */\n      0x00\n        /* \"#utility.yul\":2888:2894   */\n      dup1\n        /* \"#utility.yul\":2896:2902   */\n      0x00\n        /* \"#utility.yul\":2904:2910   */\n      dup1\n        /* \"#utility.yul\":2912:2918   */\n      0x00\n        /* \"#utility.yul\":2961:2964   */\n      0xe0\n        /* \"#utility.yul\":2949:2958   */\n      dup9\n        /* \"#utility.yul\":2940:2947   */\n      dup11\n        /* \"#utility.yul\":2936:2959   */\n      sub\n        /* \"#utility.yul\":2932:2965   */\n      slt\n        /* \"#utility.yul\":2929:3049   */\n      iszero\n      tag_168\n      jumpi\n        /* \"#utility.yul\":2968:3047   */\n      tag_169\n      tag_165\n      jump\t// in\n    tag_169:\n        /* \"#utility.yul\":2929:3049   */\n    tag_168:\n        /* \"#utility.yul\":3116:3117   */\n      0x00\n        /* \"#utility.yul\":3105:3114   */\n      dup9\n        /* \"#utility.yul\":3101:3118   */\n      add\n        /* \"#utility.yul\":3088:3119   */\n      calldataload\n        /* \"#utility.yul\":3146:3164   */\n      0xffffffffffffffff\n        /* \"#utility.yul\":3138:3144   */\n      dup2\n        /* \"#utility.yul\":3135:3165   */\n      gt\n        /* \"#utility.yul\":3132:3249   */\n      iszero\n      tag_170\n      jumpi\n        /* \"#utility.yul\":3168:3247   */\n      tag_171\n      tag_172\n      jump\t// in\n    tag_171:\n        /* \"#utility.yul\":3132:3249   */\n    tag_170:\n        /* \"#utility.yul\":3273:3336   */\n      tag_173\n        /* \"#utility.yul\":3328:3335   */\n      dup11\n        /* \"#utility.yul\":3319:3325   */\n      dup3\n        /* \"#utility.yul\":3308:3317   */\n      dup12\n        /* \"#utility.yul\":3304:3326   */\n      add\n        /* \"#utility.yul\":3273:3336   */\n      tag_138\n      jump\t// in\n    tag_173:\n        /* \"#utility.yul\":3263:3336   */\n      swap8\n      pop\n        /* \"#utility.yul\":3059:3346   */\n      pop\n        /* \"#utility.yul\":3413:3415   */\n      0x20\n        /* \"#utility.yul\":3402:3411   */\n      dup9\n        /* \"#utility.yul\":3398:3416   */\n      add\n        /* \"#utility.yul\":3385:3417   */\n      calldataload\n        /* \"#utility.yul\":3444:3462   */\n      0xffffffffffffffff\n        /* \"#utility.yul\":3436:3442   */\n      dup2\n        /* \"#utility.yul\":3433:3463   */\n      gt\n        /* \"#utility.yul\":3430:3547   */\n      iszero\n      tag_174\n      jumpi\n        /* \"#utility.yul\":3466:3545   */\n      tag_175\n      tag_172\n      jump\t// in\n    tag_175:\n        /* \"#utility.yul\":3430:3547   */\n    tag_174:\n        /* \"#utility.yul\":3571:3634   */\n      tag_176\n        /* \"#utility.yul\":3626:3633   */\n      dup11\n        /* \"#utility.yul\":3617:3623   */\n      dup3\n        /* \"#utility.yul\":3606:3615   */\n      dup12\n        /* \"#utility.yul\":3602:3624   */\n      add\n        /* \"#utility.yul\":3571:3634   */\n      tag_138\n      jump\t// in\n    tag_176:\n        /* \"#utility.yul\":3561:3634   */\n      swap7\n      pop\n        /* \"#utility.yul\":3356:3644   */\n      pop\n        /* \"#utility.yul\":3711:3713   */\n      0x40\n        /* \"#utility.yul\":3700:3709   */\n      dup9\n        /* \"#utility.yul\":3696:3714   */\n      add\n        /* \"#utility.yul\":3683:3715   */\n      calldataload\n        /* \"#utility.yul\":3742:3760   */\n      0xffffffffffffffff\n        /* \"#utility.yul\":3734:3740   */\n      dup2\n        /* \"#utility.yul\":3731:3761   */\n      gt\n        /* \"#utility.yul\":3728:3845   */\n      iszero\n      tag_177\n      jumpi\n        /* \"#utility.yul\":3764:3843   */\n      tag_178\n      tag_172\n      jump\t// in\n    tag_178:\n        /* \"#utility.yul\":3728:3845   */\n    tag_177:\n        /* \"#utility.yul\":3869:3932   */\n      tag_179\n        /* \"#utility.yul\":3924:3931   */\n      dup11\n        /* \"#utility.yul\":3915:3921   */\n      dup3\n        /* \"#utility.yul\":3904:3913   */\n      dup12\n        /* \"#utility.yul\":3900:3922   */\n      add\n        /* \"#utility.yul\":3869:3932   */\n      tag_138\n      jump\t// in\n    tag_179:\n        /* \"#utility.yul\":3859:3932   */\n      swap6\n      pop\n        /* \"#utility.yul\":3654:3942   */\n      pop\n        /* \"#utility.yul\":4009:4011   */\n      0x60\n        /* \"#utility.yul\":3998:4007   */\n      dup9\n        /* \"#utility.yul\":3994:4012   */\n      add\n        /* \"#utility.yul\":3981:4013   */\n      calldataload\n        /* \"#utility.yul\":4040:4058   */\n      0xffffffffffffffff\n        /* \"#utility.yul\":4032:4038   */\n      dup2\n        /* \"#utility.yul\":4029:4059   */\n      gt\n        /* \"#utility.yul\":4026:4143   */\n      iszero\n      tag_180\n      jumpi\n        /* \"#utility.yul\":4062:4141   */\n      tag_181\n      tag_172\n      jump\t// in\n    tag_181:\n        /* \"#utility.yul\":4026:4143   */\n    tag_180:\n        /* \"#utility.yul\":4167:4230   */\n      tag_182\n        /* \"#utility.yul\":4222:4229   */\n      dup11\n        /* \"#utility.yul\":4213:4219   */\n      dup3\n        /* \"#utility.yul\":4202:4211   */\n      dup12\n        /* \"#utility.yul\":4198:4220   */\n      add\n        /* \"#utility.yul\":4167:4230   */\n      tag_138\n      jump\t// in\n    tag_182:\n        /* \"#utility.yul\":4157:4230   */\n      swap5\n      pop\n        /* \"#utility.yul\":3952:4240   */\n      pop\n        /* \"#utility.yul\":4307:4310   */\n      0x80\n        /* \"#utility.yul\":4296:4305   */\n      dup9\n        /* \"#utility.yul\":4292:4311   */\n      add\n        /* \"#utility.yul\":4279:4312   */\n      calldataload\n        /* \"#utility.yul\":4339:4357   */\n      0xffffffffffffffff\n        /* \"#utility.yul\":4331:4337   */\n      dup2\n        /* \"#utility.yul\":4328:4358   */\n      gt\n        /* \"#utility.yul\":4325:4442   */\n      iszero\n      tag_183\n      jumpi\n        /* \"#utility.yul\":4361:4440   */\n      tag_184\n      tag_172\n      jump\t// in\n    tag_184:\n        /* \"#utility.yul\":4325:4442   */\n    tag_183:\n        /* \"#utility.yul\":4466:4529   */\n      tag_185\n        /* \"#utility.yul\":4521:4528   */\n      dup11\n        /* \"#utility.yul\":4512:4518   */\n      dup3\n        /* \"#utility.yul\":4501:4510   */\n      dup12\n        /* \"#utility.yul\":4497:4519   */\n      add\n        /* \"#utility.yul\":4466:4529   */\n      tag_138\n      jump\t// in\n    tag_185:\n        /* \"#utility.yul\":4456:4529   */\n      swap4\n      pop\n        /* \"#utility.yul\":4250:4539   */\n      pop\n        /* \"#utility.yul\":4606:4609   */\n      0xa0\n        /* \"#utility.yul\":4595:4604   */\n      dup9\n        /* \"#utility.yul\":4591:4610   */\n      add\n        /* \"#utility.yul\":4578:4611   */\n      calldataload\n        /* \"#utility.yul\":4638:4656   */\n      0xffffffffffffffff\n        /* \"#utility.yul\":4630:4636   */\n      dup2\n        /* \"#utility.yul\":4627:4657   */\n      gt\n        /* \"#utility.yul\":4624:4741   */\n      iszero\n      tag_186\n      jumpi\n        /* \"#utility.yul\":4660:4739   */\n      tag_187\n      tag_172\n      jump\t// in\n    tag_187:\n        /* \"#utility.yul\":4624:4741   */\n    tag_186:\n        /* \"#utility.yul\":4765:4828   */\n      tag_188\n        /* \"#utility.yul\":4820:4827   */\n      dup11\n        /* \"#utility.yul\":4811:4817   */\n      dup3\n        /* \"#utility.yul\":4800:4809   */\n      dup12\n        /* \"#utility.yul\":4796:4818   */\n      add\n        /* \"#utility.yul\":4765:4828   */\n      tag_138\n      jump\t// in\n    tag_188:\n        /* \"#utility.yul\":4755:4828   */\n      swap3\n      pop\n        /* \"#utility.yul\":4549:4838   */\n      pop\n        /* \"#utility.yul\":4905:4908   */\n      0xc0\n        /* \"#utility.yul\":4894:4903   */\n      dup9\n        /* \"#utility.yul\":4890:4909   */\n      add\n        /* \"#utility.yul\":4877:4910   */\n      calldataload\n        /* \"#utility.yul\":4937:4955   */\n      0xffffffffffffffff\n        /* \"#utility.yul\":4929:4935   */\n      dup2\n        /* \"#utility.yul\":4926:4956   */\n      gt\n        /* \"#utility.yul\":4923:5040   */\n      iszero\n      tag_189\n      jumpi\n        /* \"#utility.yul\":4959:5038   */\n      tag_190\n      tag_172\n      jump\t// in\n    tag_190:\n        /* \"#utility.yul\":4923:5040   */\n    tag_189:\n        /* \"#utility.yul\":5064:5152   */\n      tag_191\n        /* \"#utility.yul\":5144:5151   */\n      dup11\n        /* \"#utility.yul\":5135:5141   */\n      dup3\n        /* \"#utility.yul\":5124:5133   */\n      dup12\n        /* \"#utility.yul\":5120:5142   */\n      add\n        /* \"#utility.yul\":5064:5152   */\n      tag_153\n      jump\t// in\n    tag_191:\n        /* \"#utility.yul\":5054:5152   */\n      swap2\n      pop\n        /* \"#utility.yul\":4848:5162   */\n      pop\n        /* \"#utility.yul\":2656:5169   */\n      swap3\n      swap6\n      swap9\n      swap2\n      swap5\n      swap8\n      pop\n      swap3\n      swap6\n      pop\n      jump\t// out\n        /* \"#utility.yul\":5175:5293   */\n    tag_192:\n        /* \"#utility.yul\":5262:5286   */\n      tag_194\n        /* \"#utility.yul\":5280:5285   */\n      dup2\n        /* \"#utility.yul\":5262:5286   */\n      tag_195\n      jump\t// in\n    tag_194:\n        /* \"#utility.yul\":5257:5260   */\n      dup3\n        /* \"#utility.yul\":5250:5287   */\n      mstore\n        /* \"#utility.yul\":5175:5293   */\n      pop\n      pop\n      jump\t// out\n        /* \"#utility.yul\":5299:5663   */\n    tag_196:\n        /* \"#utility.yul\":5387:5390   */\n      0x00\n        /* \"#utility.yul\":5415:5454   */\n      tag_198\n        /* \"#utility.yul\":5448:5453   */\n      dup3\n        /* \"#utility.yul\":5415:5454   */\n      tag_199\n      jump\t// in\n    tag_198:\n        /* \"#utility.yul\":5470:5541   */\n      tag_200\n        /* \"#utility.yul\":5534:5540   */\n      dup2\n        /* \"#utility.yul\":5529:5532   */\n      dup6\n        /* \"#utility.yul\":5470:5541   */\n      tag_201\n      jump\t// in\n    tag_200:\n        /* \"#utility.yul\":5463:5541   */\n      swap4\n      pop\n        /* \"#utility.yul\":5550:5602   */\n      tag_202\n        /* \"#utility.yul\":5595:5601   */\n      dup2\n        /* \"#utility.yul\":5590:5593   */\n      dup6\n        /* \"#utility.yul\":5583:5587   */\n      0x20\n        /* \"#utility.yul\":5576:5581   */\n      dup7\n        /* \"#utility.yul\":5572:5588   */\n      add\n        /* \"#utility.yul\":5550:5602   */\n      tag_203\n      jump\t// in\n    tag_202:\n        /* \"#utility.yul\":5627:5656   */\n      tag_204\n        /* \"#utility.yul\":5649:5655   */\n      dup2\n        /* \"#utility.yul\":5627:5656   */\n      tag_205\n      jump\t// in\n    tag_204:\n        /* \"#utility.yul\":5622:5625   */\n      dup5\n        /* \"#utility.yul\":5618:5657   */\n      add\n        /* \"#utility.yul\":5611:5657   */\n      swap2\n      pop\n        /* \"#utility.yul\":5391:5663   */\n      pop\n        /* \"#utility.yul\":5299:5663   */\n      swap3\n      swap2\n      pop\n      pop\n      jump\t// out\n        /* \"#utility.yul\":5669:5787   */\n    tag_206:\n        /* \"#utility.yul\":5756:5780   */\n      tag_208\n        /* \"#utility.yul\":5774:5779   */\n      dup2\n        /* \"#utility.yul\":5756:5780   */\n      tag_209\n      jump\t// in\n    tag_208:\n        /* \"#utility.yul\":5751:5754   */\n      dup3\n        /* \"#utility.yul\":5744:5781   */\n      mstore\n        /* \"#utility.yul\":5669:5787   */\n      pop\n      pop\n      jump\t// out\n        /* \"#utility.yul\":5793:7336   */\n    tag_11:\n        /* \"#utility.yul\":6202:6206   */\n      0x00\n        /* \"#utility.yul\":6240:6243   */\n      0x0100\n        /* \"#utility.yul\":6229:6238   */\n      dup3\n        /* \"#utility.yul\":6225:6244   */\n      add\n        /* \"#utility.yul\":6217:6244   */\n      swap1\n      pop\n        /* \"#utility.yul\":6290:6299   */\n      dup2\n        /* \"#utility.yul\":6284:6288   */\n      dup2\n        /* \"#utility.yul\":6280:6300   */\n      sub\n        /* \"#utility.yul\":6276:6277   */\n      0x00\n        /* \"#utility.yul\":6265:6274   */\n      dup4\n        /* \"#utility.yul\":6261:6278   */\n      add\n        /* \"#utility.yul\":6254:6301   */\n      mstore\n        /* \"#utility.yul\":6318:6396   */\n      tag_211\n        /* \"#utility.yul\":6391:6395   */\n      dup2\n        /* \"#utility.yul\":6382:6388   */\n      dup12\n        /* \"#utility.yul\":6318:6396   */\n      tag_196\n      jump\t// in\n    tag_211:\n        /* \"#utility.yul\":6310:6396   */\n      swap1\n      pop\n        /* \"#utility.yul\":6443:6452   */\n      dup2\n        /* \"#utility.yul\":6437:6441   */\n      dup2\n        /* \"#utility.yul\":6433:6453   */\n      sub\n        /* \"#utility.yul\":6428:6430   */\n      0x20\n        /* \"#utility.yul\":6417:6426   */\n      dup4\n        /* \"#utility.yul\":6413:6431   */\n      add\n        /* \"#utility.yul\":6406:6454   */\n      mstore\n        /* \"#utility.yul\":6471:6549   */\n      tag_212\n        /* \"#utility.yul\":6544:6548   */\n      dup2\n        /* \"#utility.yul\":6535:6541   */\n      dup11\n        /* \"#utility.yul\":6471:6549   */\n      tag_196\n      jump\t// in\n    tag_212:\n        /* \"#utility.yul\":6463:6549   */\n      swap1\n      pop\n        /* \"#utility.yul\":6596:6605   */\n      dup2\n        /* \"#utility.yul\":6590:6594   */\n      dup2\n        /* \"#utility.yul\":6586:6606   */\n      sub\n        /* \"#utility.yul\":6581:6583   */\n      0x40\n        /* \"#utility.yul\":6570:6579   */\n      dup4\n        /* \"#utility.yul\":6566:6584   */\n      add\n        /* \"#utility.yul\":6559:6607   */\n      mstore\n        /* \"#utility.yul\":6624:6702   */\n      tag_213\n        /* \"#utility.yul\":6697:6701   */\n      dup2\n        /* \"#utility.yul\":6688:6694   */\n      dup10\n        /* \"#utility.yul\":6624:6702   */\n      tag_196\n      jump\t// in\n    tag_213:\n        /* \"#utility.yul\":6616:6702   */\n      swap1\n      pop\n        /* \"#utility.yul\":6749:6758   */\n      dup2\n        /* \"#utility.yul\":6743:6747   */\n      dup2\n        /* \"#utility.yul\":6739:6759   */\n      sub\n        /* \"#utility.yul\":6734:6736   */\n      0x60\n        /* \"#utility.yul\":6723:6732   */\n      dup4\n        /* \"#utility.yul\":6719:6737   */\n      add\n        /* \"#utility.yul\":6712:6760   */\n      mstore\n        /* \"#utility.yul\":6777:6855   */\n      tag_214\n        /* \"#utility.yul\":6850:6854   */\n      dup2\n        /* \"#utility.yul\":6841:6847   */\n      dup9\n        /* \"#utility.yul\":6777:6855   */\n      tag_196\n      jump\t// in\n    tag_214:\n        /* \"#utility.yul\":6769:6855   */\n      swap1\n      pop\n        /* \"#utility.yul\":6903:6912   */\n      dup2\n        /* \"#utility.yul\":6897:6901   */\n      dup2\n        /* \"#utility.yul\":6893:6913   */\n      sub\n        /* \"#utility.yul\":6887:6890   */\n      0x80\n        /* \"#utility.yul\":6876:6885   */\n      dup4\n        /* \"#utility.yul\":6872:6891   */\n      add\n        /* \"#utility.yul\":6865:6914   */\n      mstore\n        /* \"#utility.yul\":6931:7009   */\n      tag_215\n        /* \"#utility.yul\":7004:7008   */\n      dup2\n        /* \"#utility.yul\":6995:7001   */\n      dup8\n        /* \"#utility.yul\":6931:7009   */\n      tag_196\n      jump\t// in\n    tag_215:\n        /* \"#utility.yul\":6923:7009   */\n      swap1\n      pop\n        /* \"#utility.yul\":7057:7066   */\n      dup2\n        /* \"#utility.yul\":7051:7055   */\n      dup2\n        /* \"#utility.yul\":7047:7067   */\n      sub\n        /* \"#utility.yul\":7041:7044   */\n      0xa0\n        /* \"#utility.yul\":7030:7039   */\n      dup4\n        /* \"#utility.yul\":7026:7045   */\n      add\n        /* \"#utility.yul\":7019:7068   */\n      mstore\n        /* \"#utility.yul\":7085:7163   */\n      tag_216\n        /* \"#utility.yul\":7158:7162   */\n      dup2\n        /* \"#utility.yul\":7149:7155   */\n      dup7\n        /* \"#utility.yul\":7085:7163   */\n      tag_196\n      jump\t// in\n    tag_216:\n        /* \"#utility.yul\":7077:7163   */\n      swap1\n      pop\n        /* \"#utility.yul\":7173:7246   */\n      tag_217\n        /* \"#utility.yul\":7241:7244   */\n      0xc0\n        /* \"#utility.yul\":7230:7239   */\n      dup4\n        /* \"#utility.yul\":7226:7245   */\n      add\n        /* \"#utility.yul\":7217:7223   */\n      dup6\n        /* \"#utility.yul\":7173:7246   */\n      tag_192\n      jump\t// in\n    tag_217:\n        /* \"#utility.yul\":7256:7329   */\n      tag_218\n        /* \"#utility.yul\":7324:7327   */\n      0xe0\n        /* \"#utility.yul\":7313:7322   */\n      dup4\n        /* \"#utility.yul\":7309:7328   */\n      add\n        /* \"#utility.yul\":7300:7306   */\n      dup5\n        /* \"#utility.yul\":7256:7329   */\n      tag_206\n      jump\t// in\n    tag_218:\n        /* \"#utility.yul\":5793:7336   */\n      swap10\n      swap9\n      pop\n      pop\n      pop\n      pop\n      pop\n      pop\n      pop\n      pop\n      pop\n      jump\t// out\n        /* \"#utility.yul\":7342:7471   */\n    tag_127:\n        /* \"#utility.yul\":7376:7382   */\n      0x00\n        /* \"#utility.yul\":7403:7423   */\n      tag_220\n      tag_221\n      jump\t// in\n    tag_220:\n        /* \"#utility.yul\":7393:7423   */\n      swap1\n      pop\n        /* \"#utility.yul\":7432:7465   */\n      tag_222\n        /* \"#utility.yul\":7460:7464   */\n      dup3\n        /* \"#utility.yul\":7452:7458   */\n      dup3\n        /* \"#utility.yul\":7432:7465   */\n      tag_223\n      jump\t// in\n    tag_222:\n        /* \"#utility.yul\":7342:7471   */\n      swap2\n      swap1\n      pop\n      jump\t// out\n        /* \"#utility.yul\":7477:7552   */\n    tag_221:\n        /* \"#utility.yul\":7510:7516   */\n      0x00\n        /* \"#utility.yul\":7543:7545   */\n      0x40\n        /* \"#utility.yul\":7537:7546   */\n      mload\n        /* \"#utility.yul\":7527:7546   */\n      swap1\n      pop\n        /* \"#utility.yul\":7477:7552   */\n      swap1\n      jump\t// out\n        /* \"#utility.yul\":7558:7879   */\n    tag_126:\n        /* \"#utility.yul\":7645:7649   */\n      0x00\n        /* \"#utility.yul\":7735:7753   */\n      0xffffffffffffffff\n        /* \"#utility.yul\":7727:7733   */\n      dup3\n        /* \"#utility.yul\":7724:7754   */\n      gt\n        /* \"#utility.yul\":7721:7777   */\n      iszero\n      tag_226\n      jumpi\n        /* \"#utility.yul\":7757:7775   */\n      tag_227\n      tag_228\n      jump\t// in\n    tag_227:\n        /* \"#utility.yul\":7721:7777   */\n    tag_226:\n        /* \"#utility.yul\":7807:7811   */\n      0x20\n        /* \"#utility.yul\":7799:7805   */\n      dup3\n        /* \"#utility.yul\":7795:7812   */\n      mul\n        /* \"#utility.yul\":7787:7812   */\n      swap1\n      pop\n        /* \"#utility.yul\":7867:7871   */\n      0x20\n        /* \"#utility.yul\":7861:7865   */\n      dup2\n        /* \"#utility.yul\":7857:7872   */\n      add\n        /* \"#utility.yul\":7849:7872   */\n      swap1\n      pop\n        /* \"#utility.yul\":7558:7879   */\n      swap2\n      swap1\n      pop\n      jump\t// out\n        /* \"#utility.yul\":7885:8193   */\n    tag_143:\n        /* \"#utility.yul\":7947:7951   */\n      0x00\n        /* \"#utility.yul\":8037:8055   */\n      0xffffffffffffffff\n        /* \"#utility.yul\":8029:8035   */\n      dup3\n        /* \"#utility.yul\":8026:8056   */\n      gt\n        /* \"#utility.yul\":8023:8079   */\n      iszero\n      tag_230\n      jumpi\n        /* \"#utility.yul\":8059:8077   */\n      tag_231\n      tag_228\n      jump\t// in\n    tag_231:\n        /* \"#utility.yul\":8023:8079   */\n    tag_230:\n        /* \"#utility.yul\":8097:8126   */\n      tag_232\n        /* \"#utility.yul\":8119:8125   */\n      dup3\n        /* \"#utility.yul\":8097:8126   */\n      tag_205\n      jump\t// in\n    tag_232:\n        /* \"#utility.yul\":8089:8126   */\n      swap1\n      pop\n        /* \"#utility.yul\":8181:8185   */\n      0x20\n        /* \"#utility.yul\":8175:8179   */\n      dup2\n        /* \"#utility.yul\":8171:8186   */\n      add\n        /* \"#utility.yul\":8163:8186   */\n      swap1\n      pop\n        /* \"#utility.yul\":7885:8193   */\n      swap2\n      swap1\n      pop\n      jump\t// out\n        /* \"#utility.yul\":8199:8298   */\n    tag_199:\n        /* \"#utility.yul\":8251:8257   */\n      0x00\n        /* \"#utility.yul\":8285:8290   */\n      dup2\n        /* \"#utility.yul\":8279:8291   */\n      mload\n        /* \"#utility.yul\":8269:8291   */\n      swap1\n      pop\n        /* \"#utility.yul\":8199:8298   */\n      swap2\n      swap1\n      pop\n      jump\t// out\n        /* \"#utility.yul\":8304:8473   */\n    tag_201:\n        /* \"#utility.yul\":8388:8399   */\n      0x00\n        /* \"#utility.yul\":8422:8428   */\n      dup3\n        /* \"#utility.yul\":8417:8420   */\n      dup3\n        /* \"#utility.yul\":8410:8429   */\n      mstore\n        /* \"#utility.yul\":8462:8466   */\n      0x20\n        /* \"#utility.yul\":8457:8460   */\n      dup3\n        /* \"#utility.yul\":8453:8467   */\n      add\n        /* \"#utility.yul\":8438:8467   */\n      swap1\n      pop\n        /* \"#utility.yul\":8304:8473   */\n      swap3\n      swap2\n      pop\n      pop\n      jump\t// out\n        /* \"#utility.yul\":8479:8575   */\n    tag_195:\n        /* \"#utility.yul\":8516:8523   */\n      0x00\n        /* \"#utility.yul\":8545:8569   */\n      tag_236\n        /* \"#utility.yul\":8563:8568   */\n      dup3\n        /* \"#utility.yul\":8545:8569   */\n      tag_237\n      jump\t// in\n    tag_236:\n        /* \"#utility.yul\":8534:8569   */\n      swap1\n      pop\n        /* \"#utility.yul\":8479:8575   */\n      swap2\n      swap1\n      pop\n      jump\t// out\n        /* \"#utility.yul\":8581:8707   */\n    tag_237:\n        /* \"#utility.yul\":8618:8625   */\n      0x00\n        /* \"#utility.yul\":8658:8700   */\n      0xffffffffffffffffffffffffffffffffffffffff\n        /* \"#utility.yul\":8651:8656   */\n      dup3\n        /* \"#utility.yul\":8647:8701   */\n      and\n        /* \"#utility.yul\":8636:8701   */\n      swap1\n      pop\n        /* \"#utility.yul\":8581:8707   */\n      swap2\n      swap1\n      pop\n      jump\t// out\n        /* \"#utility.yul\":8713:8790   */\n    tag_209:\n        /* \"#utility.yul\":8750:8757   */\n      0x00\n        /* \"#utility.yul\":8779:8784   */\n      dup2\n        /* \"#utility.yul\":8768:8784   */\n      swap1\n      pop\n        /* \"#utility.yul\":8713:8790   */\n      swap2\n      swap1\n      pop\n      jump\t// out\n        /* \"#utility.yul\":8796:8882   */\n    tag_240:\n        /* \"#utility.yul\":8831:8838   */\n      0x00\n        /* \"#utility.yul\":8871:8875   */\n      0xff\n        /* \"#utility.yul\":8864:8869   */\n      dup3\n        /* \"#utility.yul\":8860:8876   */\n      and\n        /* \"#utility.yul\":8849:8876   */\n      swap1\n      pop\n        /* \"#utility.yul\":8796:8882   */\n      swap2\n      swap1\n      pop\n      jump\t// out\n        /* \"#utility.yul\":8888:9042   */\n    tag_148:\n        /* \"#utility.yul\":8972:8978   */\n      dup3\n        /* \"#utility.yul\":8967:8970   */\n      dup2\n        /* \"#utility.yul\":8962:8965   */\n      dup4\n        /* \"#utility.yul\":8949:8979   */\n      calldatacopy\n        /* \"#utility.yul\":9034:9035   */\n      0x00\n        /* \"#utility.yul\":9025:9031   */\n      dup4\n        /* \"#utility.yul\":9020:9023   */\n      dup4\n        /* \"#utility.yul\":9016:9032   */\n      add\n        /* \"#utility.yul\":9009:9036   */\n      mstore\n        /* \"#utility.yul\":8888:9042   */\n      pop\n      pop\n      pop\n      jump\t// out\n        /* \"#utility.yul\":9048:9355   */\n    tag_203:\n        /* \"#utility.yul\":9116:9117   */\n      0x00\n        /* \"#utility.yul\":9126:9239   */\n    tag_244:\n        /* \"#utility.yul\":9140:9146   */\n      dup4\n        /* \"#utility.yul\":9137:9138   */\n      dup2\n        /* \"#utility.yul\":9134:9147   */\n      lt\n        /* \"#utility.yul\":9126:9239   */\n      iszero\n      tag_246\n      jumpi\n        /* \"#utility.yul\":9225:9226   */\n      dup1\n        /* \"#utility.yul\":9220:9223   */\n      dup3\n        /* \"#utility.yul\":9216:9227   */\n      add\n        /* \"#utility.yul\":9210:9228   */\n      mload\n        /* \"#utility.yul\":9206:9207   */\n      dup2\n        /* \"#utility.yul\":9201:9204   */\n      dup5\n        /* \"#utility.yul\":9197:9208   */\n      add\n        /* \"#utility.yul\":9190:9229   */\n      mstore\n        /* \"#utility.yul\":9162:9164   */\n      0x20\n        /* \"#utility.yul\":9159:9160   */\n      dup2\n        /* \"#utility.yul\":9155:9165   */\n      add\n        /* \"#utility.yul\":9150:9165   */\n      swap1\n      pop\n        /* \"#utility.yul\":9126:9239   */\n      jump(tag_244)\n    tag_246:\n        /* \"#utility.yul\":9257:9263   */\n      dup4\n        /* \"#utility.yul\":9254:9255   */\n      dup2\n        /* \"#utility.yul\":9251:9264   */\n      gt\n        /* \"#utility.yul\":9248:9349   */\n      iszero\n      tag_247\n      jumpi\n        /* \"#utility.yul\":9337:9338   */\n      0x00\n        /* \"#utility.yul\":9328:9334   */\n      dup5\n        /* \"#utility.yul\":9323:9326   */\n      dup5\n        /* \"#utility.yul\":9319:9335   */\n      add\n        /* \"#utility.yul\":9312:9339   */\n      mstore\n        /* \"#utility.yul\":9248:9349   */\n    tag_247:\n        /* \"#utility.yul\":9097:9355   */\n      pop\n        /* \"#utility.yul\":9048:9355   */\n      pop\n      pop\n      pop\n      jump\t// out\n        /* \"#utility.yul\":9361:9681   */\n    tag_19:\n        /* \"#utility.yul\":9405:9411   */\n      0x00\n        /* \"#utility.yul\":9442:9443   */\n      0x02\n        /* \"#utility.yul\":9436:9440   */\n      dup3\n        /* \"#utility.yul\":9432:9444   */\n      div\n        /* \"#utility.yul\":9422:9444   */\n      swap1\n      pop\n        /* \"#utility.yul\":9489:9490   */\n      0x01\n        /* \"#utility.yul\":9483:9487   */\n      dup3\n        /* \"#utility.yul\":9479:9491   */\n      and\n        /* \"#utility.yul\":9510:9528   */\n      dup1\n        /* \"#utility.yul\":9500:9581   */\n      tag_249\n      jumpi\n        /* \"#utility.yul\":9566:9570   */\n      0x7f\n        /* \"#utility.yul\":9558:9564   */\n      dup3\n        /* \"#utility.yul\":9554:9571   */\n      and\n        /* \"#utility.yul\":9544:9571   */\n      swap2\n      pop\n        /* \"#utility.yul\":9500:9581   */\n    tag_249:\n        /* \"#utility.yul\":9628:9630   */\n      0x20\n        /* \"#utility.yul\":9620:9626   */\n      dup3\n        /* \"#utility.yul\":9617:9631   */\n      lt\n        /* \"#utility.yul\":9597:9615   */\n      dup2\n        /* \"#utility.yul\":9594:9632   */\n      eq\n        /* \"#utility.yul\":9591:9675   */\n      iszero\n      tag_250\n      jumpi\n        /* \"#utility.yul\":9647:9665   */\n      tag_251\n      tag_252\n      jump\t// in\n    tag_251:\n        /* \"#utility.yul\":9591:9675   */\n    tag_250:\n        /* \"#utility.yul\":9412:9681   */\n      pop\n        /* \"#utility.yul\":9361:9681   */\n      swap2\n      swap1\n      pop\n      jump\t// out\n        /* \"#utility.yul\":9687:9968   */\n    tag_223:\n        /* \"#utility.yul\":9770:9797   */\n      tag_254\n        /* \"#utility.yul\":9792:9796   */\n      dup3\n        /* \"#utility.yul\":9770:9797   */\n      tag_205\n      jump\t// in\n    tag_254:\n        /* \"#utility.yul\":9762:9768   */\n      dup2\n        /* \"#utility.yul\":9758:9798   */\n      add\n        /* \"#utility.yul\":9900:9906   */\n      dup2\n        /* \"#utility.yul\":9888:9898   */\n      dup2\n        /* \"#utility.yul\":9885:9907   */\n      lt\n        /* \"#utility.yul\":9864:9882   */\n      0xffffffffffffffff\n        /* \"#utility.yul\":9852:9862   */\n      dup3\n        /* \"#utility.yul\":9849:9883   */\n      gt\n        /* \"#utility.yul\":9846:9908   */\n      or\n        /* \"#utility.yul\":9843:9931   */\n      iszero\n      tag_255\n      jumpi\n        /* \"#utility.yul\":9911:9929   */\n      tag_256\n      tag_228\n      jump\t// in\n    tag_256:\n        /* \"#utility.yul\":9843:9931   */\n    tag_255:\n        /* \"#utility.yul\":9951:9961   */\n      dup1\n        /* \"#utility.yul\":9947:9949   */\n      0x40\n        /* \"#utility.yul\":9940:9962   */\n      mstore\n        /* \"#utility.yul\":9730:9968   */\n      pop\n        /* \"#utility.yul\":9687:9968   */\n      pop\n      pop\n      jump\t// out\n        /* \"#utility.yul\":9974:10141   */\n    tag_82:\n        /* \"#utility.yul\":10011:10014   */\n      0x00\n        /* \"#utility.yul\":10034:10056   */\n      tag_258\n        /* \"#utility.yul\":10050:10055   */\n      dup3\n        /* \"#utility.yul\":10034:10056   */\n      tag_240\n      jump\t// in\n    tag_258:\n        /* \"#utility.yul\":10025:10056   */\n      swap2\n      pop\n        /* \"#utility.yul\":10078:10082   */\n      0xff\n        /* \"#utility.yul\":10071:10076   */\n      dup3\n        /* \"#utility.yul\":10068:10083   */\n      eq\n        /* \"#utility.yul\":10065:10106   */\n      iszero\n      tag_259\n      jumpi\n        /* \"#utility.yul\":10086:10104   */\n      tag_260\n      tag_261\n      jump\t// in\n    tag_260:\n        /* \"#utility.yul\":10065:10106   */\n    tag_259:\n        /* \"#utility.yul\":10133:10134   */\n      0x01\n        /* \"#utility.yul\":10126:10131   */\n      dup3\n        /* \"#utility.yul\":10122:10135   */\n      add\n        /* \"#utility.yul\":10115:10135   */\n      swap1\n      pop\n        /* \"#utility.yul\":9974:10141   */\n      swap2\n      swap1\n      pop\n      jump\t// out\n        /* \"#utility.yul\":10147:10327   */\n    tag_261:\n        /* \"#utility.yul\":10195:10272   */\n      0x4e487b7100000000000000000000000000000000000000000000000000000000\n        /* \"#utility.yul\":10192:10193   */\n      0x00\n        /* \"#utility.yul\":10185:10273   */\n      mstore\n        /* \"#utility.yul\":10292:10296   */\n      0x11\n        /* \"#utility.yul\":10289:10290   */\n      0x04\n        /* \"#utility.yul\":10282:10297   */\n      mstore\n        /* \"#utility.yul\":10316:10320   */\n      0x24\n        /* \"#utility.yul\":10313:10314   */\n      0x00\n        /* \"#utility.yul\":10306:10321   */\n      revert\n        /* \"#utility.yul\":10333:10513   */\n    tag_252:\n        /* \"#utility.yul\":10381:10458   */\n      0x4e487b7100000000000000000000000000000000000000000000000000000000\n        /* \"#utility.yul\":10378:10379   */\n      0x00\n        /* \"#utility.yul\":10371:10459   */\n      mstore\n        /* \"#utility.yul\":10478:10482   */\n      0x22\n        /* \"#utility.yul\":10475:10476   */\n      0x04\n        /* \"#utility.yul\":10468:10483   */\n      mstore\n        /* \"#utility.yul\":10502:10506   */\n      0x24\n        /* \"#utility.yul\":10499:10500   */\n      0x00\n        /* \"#utility.yul\":10492:10507   */\n      revert\n        /* \"#utility.yul\":10519:10699   */\n    tag_78:\n        /* \"#utility.yul\":10567:10644   */\n      0x4e487b7100000000000000000000000000000000000000000000000000000000\n        /* \"#utility.yul\":10564:10565   */\n      0x00\n        /* \"#utility.yul\":10557:10645   */\n      mstore\n        /* \"#utility.yul\":10664:10668   */\n      0x32\n        /* \"#utility.yul\":10661:10662   */\n      0x04\n        /* \"#utility.yul\":10654:10669   */\n      mstore\n        /* \"#utility.yul\":10688:10692   */\n      0x24\n        /* \"#utility.yul\":10685:10686   */\n      0x00\n        /* \"#utility.yul\":10678:10693   */\n      revert\n        /* \"#utility.yul\":10705:10885   */\n    tag_228:\n        /* \"#utility.yul\":10753:10830   */\n      0x4e487b7100000000000000000000000000000000000000000000000000000000\n        /* \"#utility.yul\":10750:10751   */\n      0x00\n        /* \"#utility.yul\":10743:10831   */\n      mstore\n        /* \"#utility.yul\":10850:10854   */\n      0x41\n        /* \"#utility.yul\":10847:10848   */\n      0x04\n        /* \"#utility.yul\":10840:10855   */\n      mstore\n        /* \"#utility.yul\":10874:10878   */\n      0x24\n        /* \"#utility.yul\":10871:10872   */\n      0x00\n        /* \"#utility.yul\":10864:10879   */\n      revert\n        /* \"#utility.yul\":10891:11008   */\n    tag_136:\n        /* \"#utility.yul\":11000:11001   */\n      0x00\n        /* \"#utility.yul\":10997:10998   */\n      dup1\n        /* \"#utility.yul\":10990:11002   */\n      revert\n        /* \"#utility.yul\":11014:11131   */\n    tag_130:\n        /* \"#utility.yul\":11123:11124   */\n      0x00\n        /* \"#utility.yul\":11120:11121   */\n      dup1\n        /* \"#utility.yul\":11113:11125   */\n      revert\n        /* \"#utility.yul\":11137:11254   */\n    tag_146:\n        /* \"#utility.yul\":11246:11247   */\n      0x00\n        /* \"#utility.yul\":11243:11244   */\n      dup1\n        /* \"#utility.yul\":11236:11248   */\n      revert\n        /* \"#utility.yul\":11260:11377   */\n    tag_172:\n        /* \"#utility.yul\":11369:11370   */\n      0x00\n        /* \"#utility.yul\":11366:11367   */\n      dup1\n        /* \"#utility.yul\":11359:11371   */\n      revert\n        /* \"#utility.yul\":11383:11500   */\n    tag_165:\n        /* \"#utility.yul\":11492:11493   */\n      0x00\n        /* \"#utility.yul\":11489:11490   */\n      dup1\n        /* \"#utility.yul\":11482:11494   */\n      revert\n        /* \"#utility.yul\":11506:11608   */\n    tag_205:\n        /* \"#utility.yul\":11547:11553   */\n      0x00\n        /* \"#utility.yul\":11598:11600   */\n      0x1f\n        /* \"#utility.yul\":11594:11601   */\n      not\n        /* \"#utility.yul\":11589:11591   */\n      0x1f\n        /* \"#utility.yul\":11582:11587   */\n      dup4\n        /* \"#utility.yul\":11578:11592   */\n      add\n        /* \"#utility.yul\":11574:11602   */\n      and\n        /* \"#utility.yul\":11564:11602   */\n      swap1\n      pop\n        /* \"#utility.yul\":11506:11608   */\n      swap2\n      swap1\n      pop\n      jump\t// out\n        /* \"#utility.yul\":11614:11736   */\n    tag_152:\n        /* \"#utility.yul\":11687:11711   */\n      tag_273\n        /* \"#utility.yul\":11705:11710   */\n      dup2\n        /* \"#utility.yul\":11687:11711   */\n      tag_195\n      jump\t// in\n    tag_273:\n        /* \"#utility.yul\":11680:11685   */\n      dup2\n        /* \"#utility.yul\":11677:11712   */\n      eq\n        /* \"#utility.yul\":11667:11730   */\n      tag_274\n      jumpi\n        /* \"#utility.yul\":11726:11727   */\n      0x00\n        /* \"#utility.yul\":11723:11724   */\n      dup1\n        /* \"#utility.yul\":11716:11728   */\n      revert\n        /* \"#utility.yul\":11667:11730   */\n    tag_274:\n        /* \"#utility.yul\":11614:11736   */\n      pop\n      jump\t// out\n\n    auxdata: 0xa2646970667358221220bada8cd80ee80c667b5a804ec2f1ba67bc949852ff3db01c5435cb818b6463ab64736f6c63430008070033\n}\n",
				"bytecode": {
					"linkReferences": {},
					"object": "608060405234801561001057600080fd5b5061125b806100206000396000f3fe608060405234801561001057600080fd5b50600436106100415760003560e01c80639dd9d0fd146100465780639e46df9a1461007d578063fabce08f14610099575b600080fd5b610060600480360381019061005b9190610ce0565b6100a3565b604051610074989796959493929190610eca565b60405180910390f35b61009760048036038101906100929190610d0d565b61043b565b005b6100a1610719565b005b60006020528060005260406000206000915090508060000180546100c69061109b565b80601f01602080910402602001604051908101604052809291908181526020018280546100f29061109b565b801561013f5780601f106101145761010080835404028352916020019161013f565b820191906000526020600020905b81548152906001019060200180831161012257829003601f168201915b5050505050908060010180546101549061109b565b80601f01602080910402602001604051908101604052809291908181526020018280546101809061109b565b80156101cd5780601f106101a2576101008083540402835291602001916101cd565b820191906000526020600020905b8154815290600101906020018083116101b057829003601f168201915b5050505050908060020180546101e29061109b565b80601f016020809104026020016040519081016040528092919081815260200182805461020e9061109b565b801561025b5780601f106102305761010080835404028352916020019161025b565b820191906000526020600020905b81548152906001019060200180831161023e57829003601f168201915b5050505050908060030180546102709061109b565b80601f016020809104026020016040519081016040528092919081815260200182805461029c9061109b565b80156102e95780601f106102be576101008083540402835291602001916102e9565b820191906000526020600020905b8154815290600101906020018083116102cc57829003601f168201915b5050505050908060040180546102fe9061109b565b80601f016020809104026020016040519081016040528092919081815260200182805461032a9061109b565b80156103775780601f1061034c57610100808354040283529160200191610377565b820191906000526020600020905b81548152906001019060200180831161035a57829003601f168201915b50505050509080600501805461038c9061109b565b80601f01602080910402602001604051908101604052809291908181526020018280546103b89061109b565b80156104055780601f106103da57610100808354040283529160200191610405565b820191906000526020600020905b8154815290600101906020018083116103e857829003601f168201915b5050505050908060060160009054906101000a900473ffffffffffffffffffffffffffffffffffffffff16908060070154905088565b866000803373ffffffffffffffffffffffffffffffffffffffff1673ffffffffffffffffffffffffffffffffffffffff1681526020019081526020016000206000019080519060200190610490929190610a77565b50856000803373ffffffffffffffffffffffffffffffffffffffff1673ffffffffffffffffffffffffffffffffffffffff16815260200190815260200160002060010190805190602001906104e6929190610a77565b50846000803373ffffffffffffffffffffffffffffffffffffffff1673ffffffffffffffffffffffffffffffffffffffff168152602001908152602001600020600201908051906020019061053c929190610a77565b50836000803373ffffffffffffffffffffffffffffffffffffffff1673ffffffffffffffffffffffffffffffffffffffff1681526020019081526020016000206003019080519060200190610592929190610a77565b50826000803373ffffffffffffffffffffffffffffffffffffffff1673ffffffffffffffffffffffffffffffffffffffff16815260200190815260200160002060040190805190602001906105e8929190610a77565b50816000803373ffffffffffffffffffffffffffffffffffffffff1673ffffffffffffffffffffffffffffffffffffffff168152602001908152602001600020600501908051906020019061063e929190610a77565b50336000803373ffffffffffffffffffffffffffffffffffffffff1673ffffffffffffffffffffffffffffffffffffffff16815260200190815260200160002060060160006101000a81548173ffffffffffffffffffffffffffffffffffffffff021916908373ffffffffffffffffffffffffffffffffffffffff160217905550426000803373ffffffffffffffffffffffffffffffffffffffff1673ffffffffffffffffffffffffffffffffffffffff1681526020019081526020016000206007018190555061071081600061081b565b50505050505050565b6000803373ffffffffffffffffffffffffffffffffffffffff1673ffffffffffffffffffffffffffffffffffffffff168152602001908152602001600020600080820160006107689190610afd565b6001820160006107789190610afd565b6002820160006107889190610afd565b6003820160006107989190610afd565b6004820160006107a89190610afd565b6005820160006107b89190610afd565b6006820160006101000a81549073ffffffffffffffffffffffffffffffffffffffff021916905560078201600090556008820160006107f79190610b3d565b6009820160006108079190610b3d565b600a820160006108179190610b3d565b5050565b60008160ff1614156108e35760005b82518160ff1610156108e1576000803373ffffffffffffffffffffffffffffffffffffffff1673ffffffffffffffffffffffffffffffffffffffff168152602001908152602001600020600801838260ff168151811061088d5761088c611186565b5b60200260200101519080600181540180825580915050600190039060005260206000200160009091909190915090805190602001906108cd929190610a77565b5080806108d9906110fe565b91505061082a565b505b60018160ff1614156109ab5760005b82518160ff1610156109a9576000803373ffffffffffffffffffffffffffffffffffffffff1673ffffffffffffffffffffffffffffffffffffffff168152602001908152602001600020600901838260ff168151811061095557610954611186565b5b6020026020010151908060018154018082558091505060019003906000526020600020016000909190919091509080519060200190610995929190610a77565b5080806109a1906110fe565b9150506108f2565b505b60028160ff161415610a735760005b82518160ff161015610a71576000803373ffffffffffffffffffffffffffffffffffffffff1673ffffffffffffffffffffffffffffffffffffffff168152602001908152602001600020600a01838260ff1681518110610a1d57610a1c611186565b5b6020026020010151908060018154018082558091505060019003906000526020600020016000909190919091509080519060200190610a5d929190610a77565b508080610a69906110fe565b9150506109ba565b505b5050565b828054610a839061109b565b90600052602060002090601f016020900481019282610aa55760008555610aec565b82601f10610abe57805160ff1916838001178555610aec565b82800160010185558215610aec579182015b82811115610aeb578251825591602001919060010190610ad0565b5b509050610af99190610b5e565b5090565b508054610b099061109b565b6000825580601f10610b1b5750610b3a565b601f016020900490600052602060002090810190610b399190610b5e565b5b50565b5080546000825590600052602060002090810190610b5b9190610b7b565b50565b5b80821115610b77576000816000905550600101610b5f565b5090565b5b80821115610b9b5760008181610b929190610afd565b50600101610b7c565b5090565b6000610bb2610bad84610f97565b610f72565b90508083825260208201905082856020860282011115610bd557610bd46111e9565b5b60005b85811015610c2357813567ffffffffffffffff811115610bfb57610bfa6111e4565b5b808601610c088982610cb2565b85526020850194506020840193505050600181019050610bd8565b5050509392505050565b6000610c40610c3b84610fc3565b610f72565b905082815260208101848484011115610c5c57610c5b6111ee565b5b610c67848285611059565b509392505050565b600081359050610c7e8161120e565b92915050565b600082601f830112610c9957610c986111e4565b5b8135610ca9848260208601610b9f565b91505092915050565b600082601f830112610cc757610cc66111e4565b5b8135610cd7848260208601610c2d565b91505092915050565b600060208284031215610cf657610cf56111f8565b5b6000610d0484828501610c6f565b91505092915050565b600080600080600080600060e0888a031215610d2c57610d2b6111f8565b5b600088013567ffffffffffffffff811115610d4a57610d496111f3565b5b610d568a828b01610cb2565b975050602088013567ffffffffffffffff811115610d7757610d766111f3565b5b610d838a828b01610cb2565b965050604088013567ffffffffffffffff811115610da457610da36111f3565b5b610db08a828b01610cb2565b955050606088013567ffffffffffffffff811115610dd157610dd06111f3565b5b610ddd8a828b01610cb2565b945050608088013567ffffffffffffffff811115610dfe57610dfd6111f3565b5b610e0a8a828b01610cb2565b93505060a088013567ffffffffffffffff811115610e2b57610e2a6111f3565b5b610e378a828b01610cb2565b92505060c088013567ffffffffffffffff811115610e5857610e576111f3565b5b610e648a828b01610c84565b91505092959891949750929550565b610e7c81611010565b82525050565b6000610e8d82610ff4565b610e978185610fff565b9350610ea7818560208601611068565b610eb0816111fd565b840191505092915050565b610ec481611042565b82525050565b6000610100820190508181036000830152610ee5818b610e82565b90508181036020830152610ef9818a610e82565b90508181036040830152610f0d8189610e82565b90508181036060830152610f218188610e82565b90508181036080830152610f358187610e82565b905081810360a0830152610f498186610e82565b9050610f5860c0830185610e73565b610f6560e0830184610ebb565b9998505050505050505050565b6000610f7c610f8d565b9050610f8882826110cd565b919050565b6000604051905090565b600067ffffffffffffffff821115610fb257610fb16111b5565b5b602082029050602081019050919050565b600067ffffffffffffffff821115610fde57610fdd6111b5565b5b610fe7826111fd565b9050602081019050919050565b600081519050919050565b600082825260208201905092915050565b600061101b82611022565b9050919050565b600073ffffffffffffffffffffffffffffffffffffffff82169050919050565b6000819050919050565b600060ff82169050919050565b82818337600083830152505050565b60005b8381101561108657808201518184015260208101905061106b565b83811115611095576000848401525b50505050565b600060028204905060018216806110b357607f821691505b602082108114156110c7576110c6611157565b5b50919050565b6110d6826111fd565b810181811067ffffffffffffffff821117156110f5576110f46111b5565b5b80604052505050565b60006111098261104c565b915060ff82141561111d5761111c611128565b5b600182019050919050565b7f4e487b7100000000000000000000000000000000000000000000000000000000600052601160045260246000fd5b7f4e487b7100000000000000000000000000000000000000000000000000000000600052602260045260246000fd5b7f4e487b7100000000000000000000000000000000000000000000000000000000600052603260045260246000fd5b7f4e487b7100000000000000000000000000000000000000000000000000000000600052604160045260246000fd5b600080fd5b600080fd5b600080fd5b600080fd5b600080fd5b6000601f19601f8301169050919050565b61121781611010565b811461122257600080fd5b5056fea2646970667358221220bada8cd80ee80c667b5a804ec2f1ba67bc949852ff3db01c5435cb818b6463ab64736f6c63430008070033",
					"opcodes": "PUSH1 0x80 PUSH1 0x40 MSTORE CALLVALUE DUP1 ISZERO PUSH2 0x10 JUMPI PUSH1 0x0 DUP1 REVERT JUMPDEST POP PUSH2 0x125B DUP1 PUSH2 0x20 PUSH1 0x0 CODECOPY PUSH1 0x0 RETURN INVALID PUSH1 0x80 PUSH1 0x40 MSTORE CALLVALUE DUP1 ISZERO PUSH2 0x10 JUMPI PUSH1 0x0 DUP1 REVERT JUMPDEST POP PUSH1 0x4 CALLDATASIZE LT PUSH2 0x41 JUMPI PUSH1 0x0 CALLDATALOAD PUSH1 0xE0 SHR DUP1 PUSH4 0x9DD9D0FD EQ PUSH2 0x46 JUMPI DUP1 PUSH4 0x9E46DF9A EQ PUSH2 0x7D JUMPI DUP1 PUSH4 0xFABCE08F EQ PUSH2 0x99 JUMPI JUMPDEST PUSH1 0x0 DUP1 REVERT JUMPDEST PUSH2 0x60 PUSH1 0x4 DUP1 CALLDATASIZE SUB DUP2 ADD SWAP1 PUSH2 0x5B SWAP2 SWAP1 PUSH2 0xCE0 JUMP JUMPDEST PUSH2 0xA3 JUMP JUMPDEST PUSH1 0x40 MLOAD PUSH2 0x74 SWAP9 SWAP8 SWAP7 SWAP6 SWAP5 SWAP4 SWAP3 SWAP2 SWAP1 PUSH2 0xECA JUMP JUMPDEST PUSH1 0x40 MLOAD DUP1 SWAP2 SUB SWAP1 RETURN JUMPDEST PUSH2 0x97 PUSH1 0x4 DUP1 CALLDATASIZE SUB DUP2 ADD SWAP1 PUSH2 0x92 SWAP2 SWAP1 PUSH2 0xD0D JUMP JUMPDEST PUSH2 0x43B JUMP JUMPDEST STOP JUMPDEST PUSH2 0xA1 PUSH2 0x719 JUMP JUMPDEST STOP JUMPDEST PUSH1 0x0 PUSH1 0x20 MSTORE DUP1 PUSH1 0x0 MSTORE PUSH1 0x40 PUSH1 0x0 KECCAK256 PUSH1 0x0 SWAP2 POP SWAP1 POP DUP1 PUSH1 0x0 ADD DUP1 SLOAD PUSH2 0xC6 SWAP1 PUSH2 0x109B JUMP JUMPDEST DUP1 PUSH1 0x1F ADD PUSH1 0x20 DUP1 SWAP2 DIV MUL PUSH1 0x20 ADD PUSH1 0x40 MLOAD SWAP1 DUP2 ADD PUSH1 0x40 MSTORE DUP1 SWAP3 SWAP2 SWAP1 DUP2 DUP2 MSTORE PUSH1 0x20 ADD DUP3 DUP1 SLOAD PUSH2 0xF2 SWAP1 PUSH2 0x109B JUMP JUMPDEST DUP1 ISZERO PUSH2 0x13F JUMPI DUP1 PUSH1 0x1F LT PUSH2 0x114 JUMPI PUSH2 0x100 DUP1 DUP4 SLOAD DIV MUL DUP4 MSTORE SWAP2 PUSH1 0x20 ADD SWAP2 PUSH2 0x13F JUMP JUMPDEST DUP3 ADD SWAP2 SWAP1 PUSH1 0x0 MSTORE PUSH1 0x20 PUSH1 0x0 KECCAK256 SWAP1 JUMPDEST DUP2 SLOAD DUP2 MSTORE SWAP1 PUSH1 0x1 ADD SWAP1 PUSH1 0x20 ADD DUP1 DUP4 GT PUSH2 0x122 JUMPI DUP3 SWAP1 SUB PUSH1 0x1F AND DUP3 ADD SWAP2 JUMPDEST POP POP POP POP POP SWAP1 DUP1 PUSH1 0x1 ADD DUP1 SLOAD PUSH2 0x154 SWAP1 PUSH2 0x109B JUMP JUMPDEST DUP1 PUSH1 0x1F ADD PUSH1 0x20 DUP1 SWAP2 DIV MUL PUSH1 0x20 ADD PUSH1 0x40 MLOAD SWAP1 DUP2 ADD PUSH1 0x40 MSTORE DUP1 SWAP3 SWAP2 SWAP1 DUP2 DUP2 MSTORE PUSH1 0x20 ADD DUP3 DUP1 SLOAD PUSH2 0x180 SWAP1 PUSH2 0x109B JUMP JUMPDEST DUP1 ISZERO PUSH2 0x1CD JUMPI DUP1 PUSH1 0x1F LT PUSH2 0x1A2 JUMPI PUSH2 0x100 DUP1 DUP4 SLOAD DIV MUL DUP4 MSTORE SWAP2 PUSH1 0x20 ADD SWAP2 PUSH2 0x1CD JUMP JUMPDEST DUP3 ADD SWAP2 SWAP1 PUSH1 0x0 MSTORE PUSH1 0x20 PUSH1 0x0 KECCAK256 SWAP1 JUMPDEST DUP2 SLOAD DUP2 MSTORE SWAP1 PUSH1 0x1 ADD SWAP1 PUSH1 0x20 ADD DUP1 DUP4 GT PUSH2 0x1B0 JUMPI DUP3 SWAP1 SUB PUSH1 0x1F AND DUP3 ADD SWAP2 JUMPDEST POP POP POP POP POP SWAP1 DUP1 PUSH1 0x2 ADD DUP1 SLOAD PUSH2 0x1E2 SWAP1 PUSH2 0x109B JUMP JUMPDEST DUP1 PUSH1 0x1F ADD PUSH1 0x20 DUP1 SWAP2 DIV MUL PUSH1 0x20 ADD PUSH1 0x40 MLOAD SWAP1 DUP2 ADD PUSH1 0x40 MSTORE DUP1 SWAP3 SWAP2 SWAP1 DUP2 DUP2 MSTORE PUSH1 0x20 ADD DUP3 DUP1 SLOAD PUSH2 0x20E SWAP1 PUSH2 0x109B JUMP JUMPDEST DUP1 ISZERO PUSH2 0x25B JUMPI DUP1 PUSH1 0x1F LT PUSH2 0x230 JUMPI PUSH2 0x100 DUP1 DUP4 SLOAD DIV MUL DUP4 MSTORE SWAP2 PUSH1 0x20 ADD SWAP2 PUSH2 0x25B JUMP JUMPDEST DUP3 ADD SWAP2 SWAP1 PUSH1 0x0 MSTORE PUSH1 0x20 PUSH1 0x0 KECCAK256 SWAP1 JUMPDEST DUP2 SLOAD DUP2 MSTORE SWAP1 PUSH1 0x1 ADD SWAP1 PUSH1 0x20 ADD DUP1 DUP4 GT PUSH2 0x23E JUMPI DUP3 SWAP1 SUB PUSH1 0x1F AND DUP3 ADD SWAP2 JUMPDEST POP POP POP POP POP SWAP1 DUP1 PUSH1 0x3 ADD DUP1 SLOAD PUSH2 0x270 SWAP1 PUSH2 0x109B JUMP JUMPDEST DUP1 PUSH1 0x1F ADD PUSH1 0x20 DUP1 SWAP2 DIV MUL PUSH1 0x20 ADD PUSH1 0x40 MLOAD SWAP1 DUP2 ADD PUSH1 0x40 MSTORE DUP1 SWAP3 SWAP2 SWAP1 DUP2 DUP2 MSTORE PUSH1 0x20 ADD DUP3 DUP1 SLOAD PUSH2 0x29C SWAP1 PUSH2 0x109B JUMP JUMPDEST DUP1 ISZERO PUSH2 0x2E9 JUMPI DUP1 PUSH1 0x1F LT PUSH2 0x2BE JUMPI PUSH2 0x100 DUP1 DUP4 SLOAD DIV MUL DUP4 MSTORE SWAP2 PUSH1 0x20 ADD SWAP2 PUSH2 0x2E9 JUMP JUMPDEST DUP3 ADD SWAP2 SWAP1 PUSH1 0x0 MSTORE PUSH1 0x20 PUSH1 0x0 KECCAK256 SWAP1 JUMPDEST DUP2 SLOAD DUP2 MSTORE SWAP1 PUSH1 0x1 ADD SWAP1 PUSH1 0x20 ADD DUP1 DUP4 GT PUSH2 0x2CC JUMPI DUP3 SWAP1 SUB PUSH1 0x1F AND DUP3 ADD SWAP2 JUMPDEST POP POP POP POP POP SWAP1 DUP1 PUSH1 0x4 ADD DUP1 SLOAD PUSH2 0x2FE SWAP1 PUSH2 0x109B JUMP JUMPDEST DUP1 PUSH1 0x1F ADD PUSH1 0x20 DUP1 SWAP2 DIV MUL PUSH1 0x20 ADD PUSH1 0x40 MLOAD SWAP1 DUP2 ADD PUSH1 0x40 MSTORE DUP1 SWAP3 SWAP2 SWAP1 DUP2 DUP2 MSTORE PUSH1 0x20 ADD DUP3 DUP1 SLOAD PUSH2 0x32A SWAP1 PUSH2 0x109B JUMP JUMPDEST DUP1 ISZERO PUSH2 0x377 JUMPI DUP1 PUSH1 0x1F LT PUSH2 0x34C JUMPI PUSH2 0x100 DUP1 DUP4 SLOAD DIV MUL DUP4 MSTORE SWAP2 PUSH1 0x20 ADD SWAP2 PUSH2 0x377 JUMP JUMPDEST DUP3 ADD SWAP2 SWAP1 PUSH1 0x0 MSTORE PUSH1 0x20 PUSH1 0x0 KECCAK256 SWAP1 JUMPDEST DUP2 SLOAD DUP2 MSTORE SWAP1 PUSH1 0x1 ADD SWAP1 PUSH1 0x20 ADD DUP1 DUP4 GT PUSH2 0x35A JUMPI DUP3 SWAP1 SUB PUSH1 0x1F AND DUP3 ADD SWAP2 JUMPDEST POP POP POP POP POP SWAP1 DUP1 PUSH1 0x5 ADD DUP1 SLOAD PUSH2 0x38C SWAP1 PUSH2 0x109B JUMP JUMPDEST DUP1 PUSH1 0x1F ADD PUSH1 0x20 DUP1 SWAP2 DIV MUL PUSH1 0x20 ADD PUSH1 0x40 MLOAD SWAP1 DUP2 ADD PUSH1 0x40 MSTORE DUP1 SWAP3 SWAP2 SWAP1 DUP2 DUP2 MSTORE PUSH1 0x20 ADD DUP3 DUP1 SLOAD PUSH2 0x3B8 SWAP1 PUSH2 0x109B JUMP JUMPDEST DUP1 ISZERO PUSH2 0x405 JUMPI DUP1 PUSH1 0x1F LT PUSH2 0x3DA JUMPI PUSH2 0x100 DUP1 DUP4 SLOAD DIV MUL DUP4 MSTORE SWAP2 PUSH1 0x20 ADD SWAP2 PUSH2 0x405 JUMP JUMPDEST DUP3 ADD SWAP2 SWAP1 PUSH1 0x0 MSTORE PUSH1 0x20 PUSH1 0x0 KECCAK256 SWAP1 JUMPDEST DUP2 SLOAD DUP2 MSTORE SWAP1 PUSH1 0x1 ADD SWAP1 PUSH1 0x20 ADD DUP1 DUP4 GT PUSH2 0x3E8 JUMPI DUP3 SWAP1 SUB PUSH1 0x1F AND DUP3 ADD SWAP2 JUMPDEST POP POP POP POP POP SWAP1 DUP1 PUSH1 0x6 ADD PUSH1 0x0 SWAP1 SLOAD SWAP1 PUSH2 0x100 EXP SWAP1 DIV PUSH20 0xFFFFFFFFFFFFFFFFFFFFFFFFFFFFFFFFFFFFFFFF AND SWAP1 DUP1 PUSH1 0x7 ADD SLOAD SWAP1 POP DUP9 JUMP JUMPDEST DUP7 PUSH1 0x0 DUP1 CALLER PUSH20 0xFFFFFFFFFFFFFFFFFFFFFFFFFFFFFFFFFFFFFFFF AND PUSH20 0xFFFFFFFFFFFFFFFFFFFFFFFFFFFFFFFFFFFFFFFF AND DUP2 MSTORE PUSH1 0x20 ADD SWAP1 DUP2 MSTORE PUSH1 0x20 ADD PUSH1 0x0 KECCAK256 PUSH1 0x0 ADD SWAP1 DUP1 MLOAD SWAP1 PUSH1 0x20 ADD SWAP1 PUSH2 0x490 SWAP3 SWAP2 SWAP1 PUSH2 0xA77 JUMP JUMPDEST POP DUP6 PUSH1 0x0 DUP1 CALLER PUSH20 0xFFFFFFFFFFFFFFFFFFFFFFFFFFFFFFFFFFFFFFFF AND PUSH20 0xFFFFFFFFFFFFFFFFFFFFFFFFFFFFFFFFFFFFFFFF AND DUP2 MSTORE PUSH1 0x20 ADD SWAP1 DUP2 MSTORE PUSH1 0x20 ADD PUSH1 0x0 KECCAK256 PUSH1 0x1 ADD SWAP1 DUP1 MLOAD SWAP1 PUSH1 0x20 ADD SWAP1 PUSH2 0x4E6 SWAP3 SWAP2 SWAP1 PUSH2 0xA77 JUMP JUMPDEST POP DUP5 PUSH1 0x0 DUP1 CALLER PUSH20 0xFFFFFFFFFFFFFFFFFFFFFFFFFFFFFFFFFFFFFFFF AND PUSH20 0xFFFFFFFFFFFFFFFFFFFFFFFFFFFFFFFFFFFFFFFF AND DUP2 MSTORE PUSH1 0x20 ADD SWAP1 DUP2 MSTORE PUSH1 0x20 ADD PUSH1 0x0 KECCAK256 PUSH1 0x2 ADD SWAP1 DUP1 MLOAD SWAP1 PUSH1 0x20 ADD SWAP1 PUSH2 0x53C SWAP3 SWAP2 SWAP1 PUSH2 0xA77 JUMP JUMPDEST POP DUP4 PUSH1 0x0 DUP1 CALLER PUSH20 0xFFFFFFFFFFFFFFFFFFFFFFFFFFFFFFFFFFFFFFFF AND PUSH20 0xFFFFFFFFFFFFFFFFFFFFFFFFFFFFFFFFFFFFFFFF AND DUP2 MSTORE PUSH1 0x20 ADD SWAP1 DUP2 MSTORE PUSH1 0x20 ADD PUSH1 0x0 KECCAK256 PUSH1 0x3 ADD SWAP1 DUP1 MLOAD SWAP1 PUSH1 0x20 ADD SWAP1 PUSH2 0x592 SWAP3 SWAP2 SWAP1 PUSH2 0xA77 JUMP JUMPDEST POP DUP3 PUSH1 0x0 DUP1 CALLER PUSH20 0xFFFFFFFFFFFFFFFFFFFFFFFFFFFFFFFFFFFFFFFF AND PUSH20 0xFFFFFFFFFFFFFFFFFFFFFFFFFFFFFFFFFFFFFFFF AND DUP2 MSTORE PUSH1 0x20 ADD SWAP1 DUP2 MSTORE PUSH1 0x20 ADD PUSH1 0x0 KECCAK256 PUSH1 0x4 ADD SWAP1 DUP1 MLOAD SWAP1 PUSH1 0x20 ADD SWAP1 PUSH2 0x5E8 SWAP3 SWAP2 SWAP1 PUSH2 0xA77 JUMP JUMPDEST POP DUP2 PUSH1 0x0 DUP1 CALLER PUSH20 0xFFFFFFFFFFFFFFFFFFFFFFFFFFFFFFFFFFFFFFFF AND PUSH20 0xFFFFFFFFFFFFFFFFFFFFFFFFFFFFFFFFFFFFFFFF AND DUP2 MSTORE PUSH1 0x20 ADD SWAP1 DUP2 MSTORE PUSH1 0x20 ADD PUSH1 0x0 KECCAK256 PUSH1 0x5 ADD SWAP1 DUP1 MLOAD SWAP1 PUSH1 0x20 ADD SWAP1 PUSH2 0x63E SWAP3 SWAP2 SWAP1 PUSH2 0xA77 JUMP JUMPDEST POP CALLER PUSH1 0x0 DUP1 CALLER PUSH20 0xFFFFFFFFFFFFFFFFFFFFFFFFFFFFFFFFFFFFFFFF AND PUSH20 0xFFFFFFFFFFFFFFFFFFFFFFFFFFFFFFFFFFFFFFFF AND DUP2 MSTORE PUSH1 0x20 ADD SWAP1 DUP2 MSTORE PUSH1 0x20 ADD PUSH1 0x0 KECCAK256 PUSH1 0x6 ADD PUSH1 0x0 PUSH2 0x100 EXP DUP2 SLOAD DUP2 PUSH20 0xFFFFFFFFFFFFFFFFFFFFFFFFFFFFFFFFFFFFFFFF MUL NOT AND SWAP1 DUP4 PUSH20 0xFFFFFFFFFFFFFFFFFFFFFFFFFFFFFFFFFFFFFFFF AND MUL OR SWAP1 SSTORE POP TIMESTAMP PUSH1 0x0 DUP1 CALLER PUSH20 0xFFFFFFFFFFFFFFFFFFFFFFFFFFFFFFFFFFFFFFFF AND PUSH20 0xFFFFFFFFFFFFFFFFFFFFFFFFFFFFFFFFFFFFFFFF AND DUP2 MSTORE PUSH1 0x20 ADD SWAP1 DUP2 MSTORE PUSH1 0x20 ADD PUSH1 0x0 KECCAK256 PUSH1 0x7 ADD DUP2 SWAP1 SSTORE POP PUSH2 0x710 DUP2 PUSH1 0x0 PUSH2 0x81B JUMP JUMPDEST POP POP POP POP POP POP POP JUMP JUMPDEST PUSH1 0x0 DUP1 CALLER PUSH20 0xFFFFFFFFFFFFFFFFFFFFFFFFFFFFFFFFFFFFFFFF AND PUSH20 0xFFFFFFFFFFFFFFFFFFFFFFFFFFFFFFFFFFFFFFFF AND DUP2 MSTORE PUSH1 0x20 ADD SWAP1 DUP2 MSTORE PUSH1 0x20 ADD PUSH1 0x0 KECCAK256 PUSH1 0x0 DUP1 DUP3 ADD PUSH1 0x0 PUSH2 0x768 SWAP2 SWAP1 PUSH2 0xAFD JUMP JUMPDEST PUSH1 0x1 DUP3 ADD PUSH1 0x0 PUSH2 0x778 SWAP2 SWAP1 PUSH2 0xAFD JUMP JUMPDEST PUSH1 0x2 DUP3 ADD PUSH1 0x0 PUSH2 0x788 SWAP2 SWAP1 PUSH2 0xAFD JUMP JUMPDEST PUSH1 0x3 DUP3 ADD PUSH1 0x0 PUSH2 0x798 SWAP2 SWAP1 PUSH2 0xAFD JUMP JUMPDEST PUSH1 0x4 DUP3 ADD PUSH1 0x0 PUSH2 0x7A8 SWAP2 SWAP1 PUSH2 0xAFD JUMP JUMPDEST PUSH1 0x5 DUP3 ADD PUSH1 0x0 PUSH2 0x7B8 SWAP2 SWAP1 PUSH2 0xAFD JUMP JUMPDEST PUSH1 0x6 DUP3 ADD PUSH1 0x0 PUSH2 0x100 EXP DUP2 SLOAD SWAP1 PUSH20 0xFFFFFFFFFFFFFFFFFFFFFFFFFFFFFFFFFFFFFFFF MUL NOT AND SWAP1 SSTORE PUSH1 0x7 DUP3 ADD PUSH1 0x0 SWAP1 SSTORE PUSH1 0x8 DUP3 ADD PUSH1 0x0 PUSH2 0x7F7 SWAP2 SWAP1 PUSH2 0xB3D JUMP JUMPDEST PUSH1 0x9 DUP3 ADD PUSH1 0x0 PUSH2 0x807 SWAP2 SWAP1 PUSH2 0xB3D JUMP JUMPDEST PUSH1 0xA DUP3 ADD PUSH1 0x0 PUSH2 0x817 SWAP2 SWAP1 PUSH2 0xB3D JUMP JUMPDEST POP POP JUMP JUMPDEST PUSH1 0x0 DUP2 PUSH1 0xFF AND EQ ISZERO PUSH2 0x8E3 JUMPI PUSH1 0x0 JUMPDEST DUP3 MLOAD DUP2 PUSH1 0xFF AND LT ISZERO PUSH2 0x8E1 JUMPI PUSH1 0x0 DUP1 CALLER PUSH20 0xFFFFFFFFFFFFFFFFFFFFFFFFFFFFFFFFFFFFFFFF AND PUSH20 0xFFFFFFFFFFFFFFFFFFFFFFFFFFFFFFFFFFFFFFFF AND DUP2 MSTORE PUSH1 0x20 ADD SWAP1 DUP2 MSTORE PUSH1 0x20 ADD PUSH1 0x0 KECCAK256 PUSH1 0x8 ADD DUP4 DUP3 PUSH1 0xFF AND DUP2 MLOAD DUP2 LT PUSH2 0x88D JUMPI PUSH2 0x88C PUSH2 0x1186 JUMP JUMPDEST JUMPDEST PUSH1 0x20 MUL PUSH1 0x20 ADD ADD MLOAD SWAP1 DUP1 PUSH1 0x1 DUP2 SLOAD ADD DUP1 DUP3 SSTORE DUP1 SWAP2 POP POP PUSH1 0x1 SWAP1 SUB SWAP1 PUSH1 0x0 MSTORE PUSH1 0x20 PUSH1 0x0 KECCAK256 ADD PUSH1 0x0 SWAP1 SWAP2 SWAP1 SWAP2 SWAP1 SWAP2 POP SWAP1 DUP1 MLOAD SWAP1 PUSH1 0x20 ADD SWAP1 PUSH2 0x8CD SWAP3 SWAP2 SWAP1 PUSH2 0xA77 JUMP JUMPDEST POP DUP1 DUP1 PUSH2 0x8D9 SWAP1 PUSH2 0x10FE JUMP JUMPDEST SWAP2 POP POP PUSH2 0x82A JUMP JUMPDEST POP JUMPDEST PUSH1 0x1 DUP2 PUSH1 0xFF AND EQ ISZERO PUSH2 0x9AB JUMPI PUSH1 0x0 JUMPDEST DUP3 MLOAD DUP2 PUSH1 0xFF AND LT ISZERO PUSH2 0x9A9 JUMPI PUSH1 0x0 DUP1 CALLER PUSH20 0xFFFFFFFFFFFFFFFFFFFFFFFFFFFFFFFFFFFFFFFF AND PUSH20 0xFFFFFFFFFFFFFFFFFFFFFFFFFFFFFFFFFFFFFFFF AND DUP2 MSTORE PUSH1 0x20 ADD SWAP1 DUP2 MSTORE PUSH1 0x20 ADD PUSH1 0x0 KECCAK256 PUSH1 0x9 ADD DUP4 DUP3 PUSH1 0xFF AND DUP2 MLOAD DUP2 LT PUSH2 0x955 JUMPI PUSH2 0x954 PUSH2 0x1186 JUMP JUMPDEST JUMPDEST PUSH1 0x20 MUL PUSH1 0x20 ADD ADD MLOAD SWAP1 DUP1 PUSH1 0x1 DUP2 SLOAD ADD DUP1 DUP3 SSTORE DUP1 SWAP2 POP POP PUSH1 0x1 SWAP1 SUB SWAP1 PUSH1 0x0 MSTORE PUSH1 0x20 PUSH1 0x0 KECCAK256 ADD PUSH1 0x0 SWAP1 SWAP2 SWAP1 SWAP2 SWAP1 SWAP2 POP SWAP1 DUP1 MLOAD SWAP1 PUSH1 0x20 ADD SWAP1 PUSH2 0x995 SWAP3 SWAP2 SWAP1 PUSH2 0xA77 JUMP JUMPDEST POP DUP1 DUP1 PUSH2 0x9A1 SWAP1 PUSH2 0x10FE JUMP JUMPDEST SWAP2 POP POP PUSH2 0x8F2 JUMP JUMPDEST POP JUMPDEST PUSH1 0x2 DUP2 PUSH1 0xFF AND EQ ISZERO PUSH2 0xA73 JUMPI PUSH1 0x0 JUMPDEST DUP3 MLOAD DUP2 PUSH1 0xFF AND LT ISZERO PUSH2 0xA71 JUMPI PUSH1 0x0 DUP1 CALLER PUSH20 0xFFFFFFFFFFFFFFFFFFFFFFFFFFFFFFFFFFFFFFFF AND PUSH20 0xFFFFFFFFFFFFFFFFFFFFFFFFFFFFFFFFFFFFFFFF AND DUP2 MSTORE PUSH1 0x20 ADD SWAP1 DUP2 MSTORE PUSH1 0x20 ADD PUSH1 0x0 KECCAK256 PUSH1 0xA ADD DUP4 DUP3 PUSH1 0xFF AND DUP2 MLOAD DUP2 LT PUSH2 0xA1D JUMPI PUSH2 0xA1C PUSH2 0x1186 JUMP JUMPDEST JUMPDEST PUSH1 0x20 MUL PUSH1 0x20 ADD ADD MLOAD SWAP1 DUP1 PUSH1 0x1 DUP2 SLOAD ADD DUP1 DUP3 SSTORE DUP1 SWAP2 POP POP PUSH1 0x1 SWAP1 SUB SWAP1 PUSH1 0x0 MSTORE PUSH1 0x20 PUSH1 0x0 KECCAK256 ADD PUSH1 0x0 SWAP1 SWAP2 SWAP1 SWAP2 SWAP1 SWAP2 POP SWAP1 DUP1 MLOAD SWAP1 PUSH1 0x20 ADD SWAP1 PUSH2 0xA5D SWAP3 SWAP2 SWAP1 PUSH2 0xA77 JUMP JUMPDEST POP DUP1 DUP1 PUSH2 0xA69 SWAP1 PUSH2 0x10FE JUMP JUMPDEST SWAP2 POP POP PUSH2 0x9BA JUMP JUMPDEST POP JUMPDEST POP POP JUMP JUMPDEST DUP3 DUP1 SLOAD PUSH2 0xA83 SWAP1 PUSH2 0x109B JUMP JUMPDEST SWAP1 PUSH1 0x0 MSTORE PUSH1 0x20 PUSH1 0x0 KECCAK256 SWAP1 PUSH1 0x1F ADD PUSH1 0x20 SWAP1 DIV DUP2 ADD SWAP3 DUP3 PUSH2 0xAA5 JUMPI PUSH1 0x0 DUP6 SSTORE PUSH2 0xAEC JUMP JUMPDEST DUP3 PUSH1 0x1F LT PUSH2 0xABE JUMPI DUP1 MLOAD PUSH1 0xFF NOT AND DUP4 DUP1 ADD OR DUP6 SSTORE PUSH2 0xAEC JUMP JUMPDEST DUP3 DUP1 ADD PUSH1 0x1 ADD DUP6 SSTORE DUP3 ISZERO PUSH2 0xAEC JUMPI SWAP2 DUP3 ADD JUMPDEST DUP3 DUP2 GT ISZERO PUSH2 0xAEB JUMPI DUP3 MLOAD DUP3 SSTORE SWAP2 PUSH1 0x20 ADD SWAP2 SWAP1 PUSH1 0x1 ADD SWAP1 PUSH2 0xAD0 JUMP JUMPDEST JUMPDEST POP SWAP1 POP PUSH2 0xAF9 SWAP2 SWAP1 PUSH2 0xB5E JUMP JUMPDEST POP SWAP1 JUMP JUMPDEST POP DUP1 SLOAD PUSH2 0xB09 SWAP1 PUSH2 0x109B JUMP JUMPDEST PUSH1 0x0 DUP3 SSTORE DUP1 PUSH1 0x1F LT PUSH2 0xB1B JUMPI POP PUSH2 0xB3A JUMP JUMPDEST PUSH1 0x1F ADD PUSH1 0x20 SWAP1 DIV SWAP1 PUSH1 0x0 MSTORE PUSH1 0x20 PUSH1 0x0 KECCAK256 SWAP1 DUP2 ADD SWAP1 PUSH2 0xB39 SWAP2 SWAP1 PUSH2 0xB5E JUMP JUMPDEST JUMPDEST POP JUMP JUMPDEST POP DUP1 SLOAD PUSH1 0x0 DUP3 SSTORE SWAP1 PUSH1 0x0 MSTORE PUSH1 0x20 PUSH1 0x0 KECCAK256 SWAP1 DUP2 ADD SWAP1 PUSH2 0xB5B SWAP2 SWAP1 PUSH2 0xB7B JUMP JUMPDEST POP JUMP JUMPDEST JUMPDEST DUP1 DUP3 GT ISZERO PUSH2 0xB77 JUMPI PUSH1 0x0 DUP2 PUSH1 0x0 SWAP1 SSTORE POP PUSH1 0x1 ADD PUSH2 0xB5F JUMP JUMPDEST POP SWAP1 JUMP JUMPDEST JUMPDEST DUP1 DUP3 GT ISZERO PUSH2 0xB9B JUMPI PUSH1 0x0 DUP2 DUP2 PUSH2 0xB92 SWAP2 SWAP1 PUSH2 0xAFD JUMP JUMPDEST POP PUSH1 0x1 ADD PUSH2 0xB7C JUMP JUMPDEST POP SWAP1 JUMP JUMPDEST PUSH1 0x0 PUSH2 0xBB2 PUSH2 0xBAD DUP5 PUSH2 0xF97 JUMP JUMPDEST PUSH2 0xF72 JUMP JUMPDEST SWAP1 POP DUP1 DUP4 DUP3 MSTORE PUSH1 0x20 DUP3 ADD SWAP1 POP DUP3 DUP6 PUSH1 0x20 DUP7 MUL DUP3 ADD GT ISZERO PUSH2 0xBD5 JUMPI PUSH2 0xBD4 PUSH2 0x11E9 JUMP JUMPDEST JUMPDEST PUSH1 0x0 JUMPDEST DUP6 DUP2 LT ISZERO PUSH2 0xC23 JUMPI DUP2 CALLDATALOAD PUSH8 0xFFFFFFFFFFFFFFFF DUP2 GT ISZERO PUSH2 0xBFB JUMPI PUSH2 0xBFA PUSH2 0x11E4 JUMP JUMPDEST JUMPDEST DUP1 DUP7 ADD PUSH2 0xC08 DUP10 DUP3 PUSH2 0xCB2 JUMP JUMPDEST DUP6 MSTORE PUSH1 0x20 DUP6 ADD SWAP5 POP PUSH1 0x20 DUP5 ADD SWAP4 POP POP POP PUSH1 0x1 DUP2 ADD SWAP1 POP PUSH2 0xBD8 JUMP JUMPDEST POP POP POP SWAP4 SWAP3 POP POP POP JUMP JUMPDEST PUSH1 0x0 PUSH2 0xC40 PUSH2 0xC3B DUP5 PUSH2 0xFC3 JUMP JUMPDEST PUSH2 0xF72 JUMP JUMPDEST SWAP1 POP DUP3 DUP2 MSTORE PUSH1 0x20 DUP2 ADD DUP5 DUP5 DUP5 ADD GT ISZERO PUSH2 0xC5C JUMPI PUSH2 0xC5B PUSH2 0x11EE JUMP JUMPDEST JUMPDEST PUSH2 0xC67 DUP5 DUP3 DUP6 PUSH2 0x1059 JUMP JUMPDEST POP SWAP4 SWAP3 POP POP POP JUMP JUMPDEST PUSH1 0x0 DUP2 CALLDATALOAD SWAP1 POP PUSH2 0xC7E DUP2 PUSH2 0x120E JUMP JUMPDEST SWAP3 SWAP2 POP POP JUMP JUMPDEST PUSH1 0x0 DUP3 PUSH1 0x1F DUP4 ADD SLT PUSH2 0xC99 JUMPI PUSH2 0xC98 PUSH2 0x11E4 JUMP JUMPDEST JUMPDEST DUP2 CALLDATALOAD PUSH2 0xCA9 DUP5 DUP3 PUSH1 0x20 DUP7 ADD PUSH2 0xB9F JUMP JUMPDEST SWAP2 POP POP SWAP3 SWAP2 POP POP JUMP JUMPDEST PUSH1 0x0 DUP3 PUSH1 0x1F DUP4 ADD SLT PUSH2 0xCC7 JUMPI PUSH2 0xCC6 PUSH2 0x11E4 JUMP JUMPDEST JUMPDEST DUP2 CALLDATALOAD PUSH2 0xCD7 DUP5 DUP3 PUSH1 0x20 DUP7 ADD PUSH2 0xC2D JUMP JUMPDEST SWAP2 POP POP SWAP3 SWAP2 POP POP JUMP JUMPDEST PUSH1 0x0 PUSH1 0x20 DUP3 DUP5 SUB SLT ISZERO PUSH2 0xCF6 JUMPI PUSH2 0xCF5 PUSH2 0x11F8 JUMP JUMPDEST JUMPDEST PUSH1 0x0 PUSH2 0xD04 DUP5 DUP3 DUP6 ADD PUSH2 0xC6F JUMP JUMPDEST SWAP2 POP POP SWAP3 SWAP2 POP POP JUMP JUMPDEST PUSH1 0x0 DUP1 PUSH1 0x0 DUP1 PUSH1 0x0 DUP1 PUSH1 0x0 PUSH1 0xE0 DUP9 DUP11 SUB SLT ISZERO PUSH2 0xD2C JUMPI PUSH2 0xD2B PUSH2 0x11F8 JUMP JUMPDEST JUMPDEST PUSH1 0x0 DUP9 ADD CALLDATALOAD PUSH8 0xFFFFFFFFFFFFFFFF DUP2 GT ISZERO PUSH2 0xD4A JUMPI PUSH2 0xD49 PUSH2 0x11F3 JUMP JUMPDEST JUMPDEST PUSH2 0xD56 DUP11 DUP3 DUP12 ADD PUSH2 0xCB2 JUMP JUMPDEST SWAP8 POP POP PUSH1 0x20 DUP9 ADD CALLDATALOAD PUSH8 0xFFFFFFFFFFFFFFFF DUP2 GT ISZERO PUSH2 0xD77 JUMPI PUSH2 0xD76 PUSH2 0x11F3 JUMP JUMPDEST JUMPDEST PUSH2 0xD83 DUP11 DUP3 DUP12 ADD PUSH2 0xCB2 JUMP JUMPDEST SWAP7 POP POP PUSH1 0x40 DUP9 ADD CALLDATALOAD PUSH8 0xFFFFFFFFFFFFFFFF DUP2 GT ISZERO PUSH2 0xDA4 JUMPI PUSH2 0xDA3 PUSH2 0x11F3 JUMP JUMPDEST JUMPDEST PUSH2 0xDB0 DUP11 DUP3 DUP12 ADD PUSH2 0xCB2 JUMP JUMPDEST SWAP6 POP POP PUSH1 0x60 DUP9 ADD CALLDATALOAD PUSH8 0xFFFFFFFFFFFFFFFF DUP2 GT ISZERO PUSH2 0xDD1 JUMPI PUSH2 0xDD0 PUSH2 0x11F3 JUMP JUMPDEST JUMPDEST PUSH2 0xDDD DUP11 DUP3 DUP12 ADD PUSH2 0xCB2 JUMP JUMPDEST SWAP5 POP POP PUSH1 0x80 DUP9 ADD CALLDATALOAD PUSH8 0xFFFFFFFFFFFFFFFF DUP2 GT ISZERO PUSH2 0xDFE JUMPI PUSH2 0xDFD PUSH2 0x11F3 JUMP JUMPDEST JUMPDEST PUSH2 0xE0A DUP11 DUP3 DUP12 ADD PUSH2 0xCB2 JUMP JUMPDEST SWAP4 POP POP PUSH1 0xA0 DUP9 ADD CALLDATALOAD PUSH8 0xFFFFFFFFFFFFFFFF DUP2 GT ISZERO PUSH2 0xE2B JUMPI PUSH2 0xE2A PUSH2 0x11F3 JUMP JUMPDEST JUMPDEST PUSH2 0xE37 DUP11 DUP3 DUP12 ADD PUSH2 0xCB2 JUMP JUMPDEST SWAP3 POP POP PUSH1 0xC0 DUP9 ADD CALLDATALOAD PUSH8 0xFFFFFFFFFFFFFFFF DUP2 GT ISZERO PUSH2 0xE58 JUMPI PUSH2 0xE57 PUSH2 0x11F3 JUMP JUMPDEST JUMPDEST PUSH2 0xE64 DUP11 DUP3 DUP12 ADD PUSH2 0xC84 JUMP JUMPDEST SWAP2 POP POP SWAP3 SWAP6 SWAP9 SWAP2 SWAP5 SWAP8 POP SWAP3 SWAP6 POP JUMP JUMPDEST PUSH2 0xE7C DUP2 PUSH2 0x1010 JUMP JUMPDEST DUP3 MSTORE POP POP JUMP JUMPDEST PUSH1 0x0 PUSH2 0xE8D DUP3 PUSH2 0xFF4 JUMP JUMPDEST PUSH2 0xE97 DUP2 DUP6 PUSH2 0xFFF JUMP JUMPDEST SWAP4 POP PUSH2 0xEA7 DUP2 DUP6 PUSH1 0x20 DUP7 ADD PUSH2 0x1068 JUMP JUMPDEST PUSH2 0xEB0 DUP2 PUSH2 0x11FD JUMP JUMPDEST DUP5 ADD SWAP2 POP POP SWAP3 SWAP2 POP POP JUMP JUMPDEST PUSH2 0xEC4 DUP2 PUSH2 0x1042 JUMP JUMPDEST DUP3 MSTORE POP POP JUMP JUMPDEST PUSH1 0x0 PUSH2 0x100 DUP3 ADD SWAP1 POP DUP2 DUP2 SUB PUSH1 0x0 DUP4 ADD MSTORE PUSH2 0xEE5 DUP2 DUP12 PUSH2 0xE82 JUMP JUMPDEST SWAP1 POP DUP2 DUP2 SUB PUSH1 0x20 DUP4 ADD MSTORE PUSH2 0xEF9 DUP2 DUP11 PUSH2 0xE82 JUMP JUMPDEST SWAP1 POP DUP2 DUP2 SUB PUSH1 0x40 DUP4 ADD MSTORE PUSH2 0xF0D DUP2 DUP10 PUSH2 0xE82 JUMP JUMPDEST SWAP1 POP DUP2 DUP2 SUB PUSH1 0x60 DUP4 ADD MSTORE PUSH2 0xF21 DUP2 DUP9 PUSH2 0xE82 JUMP JUMPDEST SWAP1 POP DUP2 DUP2 SUB PUSH1 0x80 DUP4 ADD MSTORE PUSH2 0xF35 DUP2 DUP8 PUSH2 0xE82 JUMP JUMPDEST SWAP1 POP DUP2 DUP2 SUB PUSH1 0xA0 DUP4 ADD MSTORE PUSH2 0xF49 DUP2 DUP7 PUSH2 0xE82 JUMP JUMPDEST SWAP1 POP PUSH2 0xF58 PUSH1 0xC0 DUP4 ADD DUP6 PUSH2 0xE73 JUMP JUMPDEST PUSH2 0xF65 PUSH1 0xE0 DUP4 ADD DUP5 PUSH2 0xEBB JUMP JUMPDEST SWAP10 SWAP9 POP POP POP POP POP POP POP POP POP JUMP JUMPDEST PUSH1 0x0 PUSH2 0xF7C PUSH2 0xF8D JUMP JUMPDEST SWAP1 POP PUSH2 0xF88 DUP3 DUP3 PUSH2 0x10CD JUMP JUMPDEST SWAP2 SWAP1 POP JUMP JUMPDEST PUSH1 0x0 PUSH1 0x40 MLOAD SWAP1 POP SWAP1 JUMP JUMPDEST PUSH1 0x0 PUSH8 0xFFFFFFFFFFFFFFFF DUP3 GT ISZERO PUSH2 0xFB2 JUMPI PUSH2 0xFB1 PUSH2 0x11B5 JUMP JUMPDEST JUMPDEST PUSH1 0x20 DUP3 MUL SWAP1 POP PUSH1 0x20 DUP2 ADD SWAP1 POP SWAP2 SWAP1 POP JUMP JUMPDEST PUSH1 0x0 PUSH8 0xFFFFFFFFFFFFFFFF DUP3 GT ISZERO PUSH2 0xFDE JUMPI PUSH2 0xFDD PUSH2 0x11B5 JUMP JUMPDEST JUMPDEST PUSH2 0xFE7 DUP3 PUSH2 0x11FD JUMP JUMPDEST SWAP1 POP PUSH1 0x20 DUP2 ADD SWAP1 POP SWAP2 SWAP1 POP JUMP JUMPDEST PUSH1 0x0 DUP2 MLOAD SWAP1 POP SWAP2 SWAP1 POP JUMP JUMPDEST PUSH1 0x0 DUP3 DUP3 MSTORE PUSH1 0x20 DUP3 ADD SWAP1 POP SWAP3 SWAP2 POP POP JUMP JUMPDEST PUSH1 0x0 PUSH2 0x101B DUP3 PUSH2 0x1022 JUMP JUMPDEST SWAP1 POP SWAP2 SWAP1 POP JUMP JUMPDEST PUSH1 0x0 PUSH20 0xFFFFFFFFFFFFFFFFFFFFFFFFFFFFFFFFFFFFFFFF DUP3 AND SWAP1 POP SWAP2 SWAP1 POP JUMP JUMPDEST PUSH1 0x0 DUP2 SWAP1 POP SWAP2 SWAP1 POP JUMP JUMPDEST PUSH1 0x0 PUSH1 0xFF DUP3 AND SWAP1 POP SWAP2 SWAP1 POP JUMP JUMPDEST DUP3 DUP2 DUP4 CALLDATACOPY PUSH1 0x0 DUP4 DUP4 ADD MSTORE POP POP POP JUMP JUMPDEST PUSH1 0x0 JUMPDEST DUP4 DUP2 LT ISZERO PUSH2 0x1086 JUMPI DUP1 DUP3 ADD MLOAD DUP2 DUP5 ADD MSTORE PUSH1 0x20 DUP2 ADD SWAP1 POP PUSH2 0x106B JUMP JUMPDEST DUP4 DUP2 GT ISZERO PUSH2 0x1095 JUMPI PUSH1 0x0 DUP5 DUP5 ADD MSTORE JUMPDEST POP POP POP POP JUMP JUMPDEST PUSH1 0x0 PUSH1 0x2 DUP3 DIV SWAP1 POP PUSH1 0x1 DUP3 AND DUP1 PUSH2 0x10B3 JUMPI PUSH1 0x7F DUP3 AND SWAP2 POP JUMPDEST PUSH1 0x20 DUP3 LT DUP2 EQ ISZERO PUSH2 0x10C7 JUMPI PUSH2 0x10C6 PUSH2 0x1157 JUMP JUMPDEST JUMPDEST POP SWAP2 SWAP1 POP JUMP JUMPDEST PUSH2 0x10D6 DUP3 PUSH2 0x11FD JUMP JUMPDEST DUP2 ADD DUP2 DUP2 LT PUSH8 0xFFFFFFFFFFFFFFFF DUP3 GT OR ISZERO PUSH2 0x10F5 JUMPI PUSH2 0x10F4 PUSH2 0x11B5 JUMP JUMPDEST JUMPDEST DUP1 PUSH1 0x40 MSTORE POP POP POP JUMP JUMPDEST PUSH1 0x0 PUSH2 0x1109 DUP3 PUSH2 0x104C JUMP JUMPDEST SWAP2 POP PUSH1 0xFF DUP3 EQ ISZERO PUSH2 0x111D JUMPI PUSH2 0x111C PUSH2 0x1128 JUMP JUMPDEST JUMPDEST PUSH1 0x1 DUP3 ADD SWAP1 POP SWAP2 SWAP1 POP JUMP JUMPDEST PUSH32 0x4E487B7100000000000000000000000000000000000000000000000000000000 PUSH1 0x0 MSTORE PUSH1 0x11 PUSH1 0x4 MSTORE PUSH1 0x24 PUSH1 0x0 REVERT JUMPDEST PUSH32 0x4E487B7100000000000000000000000000000000000000000000000000000000 PUSH1 0x0 MSTORE PUSH1 0x22 PUSH1 0x4 MSTORE PUSH1 0x24 PUSH1 0x0 REVERT JUMPDEST PUSH32 0x4E487B7100000000000000000000000000000000000000000000000000000000 PUSH1 0x0 MSTORE PUSH1 0x32 PUSH1 0x4 MSTORE PUSH1 0x24 PUSH1 0x0 REVERT JUMPDEST PUSH32 0x4E487B7100000000000000000000000000000000000000000000000000000000 PUSH1 0x0 MSTORE PUSH1 0x41 PUSH1 0x4 MSTORE PUSH1 0x24 PUSH1 0x0 REVERT JUMPDEST PUSH1 0x0 DUP1 REVERT JUMPDEST PUSH1 0x0 DUP1 REVERT JUMPDEST PUSH1 0x0 DUP1 REVERT JUMPDEST PUSH1 0x0 DUP1 REVERT JUMPDEST PUSH1 0x0 DUP1 REVERT JUMPDEST PUSH1 0x0 PUSH1 0x1F NOT PUSH1 0x1F DUP4 ADD AND SWAP1 POP SWAP2 SWAP1 POP JUMP JUMPDEST PUSH2 0x1217 DUP2 PUSH2 0x1010 JUMP JUMPDEST DUP2 EQ PUSH2 0x1222 JUMPI PUSH1 0x0 DUP1 REVERT JUMPDEST POP JUMP INVALID LOG2 PUSH5 0x6970667358 0x22 SLT KECCAK256 0xBA 0xDA DUP13 0xD8 0xE 0xE8 0xC PUSH7 0x7B5A804EC2F1BA PUSH8 0xBC949852FF3DB01C SLOAD CALLDATALOAD 0xCB DUP2 DUP12 PUSH5 0x63AB64736F PUSH13 0x63430008070033000000000000 "
				},
				"gasEstimates": {
					"creation": {
						"codeDepositCost": "939800",
						"executionCost": "975",
						"totalCost": "940775"
					},
					"external": {
						"addBio(string,string,string,string,string,string,string[])": "infinite",
						"delProfile()": "infinite",
						"profile(address)": "infinite"
					},
					"internal": {
						"addSkill(string memory[] memory,uint8)": "infinite"
					}
				},
				"methodIdentifiers": {
					"addBio(string,string,string,string,string,string,string[])": "9e46df9a",
					"delProfile()": "fabce08f",
					"profile(address)": "9dd9d0fd"
				}
			},
			"storageLayout": {
				"storage": [
					{
						"astId": 32,
						"contract": "contracts/Profile.sol:Profile",
						"label": "profile",
						"offset": 0,
						"slot": "0",
						"type": "t_mapping(t_address,t_struct(Bio)27_storage)"
					}
				],
				"types": {
					"t_address": {
						"encoding": "inplace",
						"label": "address",
						"numberOfBytes": "20"
					},
					"t_array(t_string_storage)dyn_storage": {
						"base": "t_string_storage",
						"encoding": "dynamic_array",
						"label": "string[]",
						"numberOfBytes": "32"
					},
					"t_mapping(t_address,t_struct(Bio)27_storage)": {
						"encoding": "mapping",
						"key": "t_address",
						"label": "mapping(address => struct Profile.Bio)",
						"numberOfBytes": "32",
						"value": "t_struct(Bio)27_storage"
					},
					"t_string_storage": {
						"encoding": "bytes",
						"label": "string",
						"numberOfBytes": "32"
					},
					"t_struct(Bio)27_storage": {
						"encoding": "inplace",
						"label": "struct Profile.Bio",
						"members": [
							{
								"astId": 3,
								"contract": "contracts/Profile.sol:Profile",
								"label": "firstName",
								"offset": 0,
								"slot": "0",
								"type": "t_string_storage"
							},
							{
								"astId": 5,
								"contract": "contracts/Profile.sol:Profile",
								"label": "middleName",
								"offset": 0,
								"slot": "1",
								"type": "t_string_storage"
							},
							{
								"astId": 7,
								"contract": "contracts/Profile.sol:Profile",
								"label": "lastName",
								"offset": 0,
								"slot": "2",
								"type": "t_string_storage"
							},
							{
								"astId": 9,
								"contract": "contracts/Profile.sol:Profile",
								"label": "email",
								"offset": 0,
								"slot": "3",
								"type": "t_string_storage"
							},
							{
								"astId": 11,
								"contract": "contracts/Profile.sol:Profile",
								"label": "phone",
								"offset": 0,
								"slot": "4",
								"type": "t_string_storage"
							},
							{
								"astId": 13,
								"contract": "contracts/Profile.sol:Profile",
								"label": "profileImage",
								"offset": 0,
								"slot": "5",
								"type": "t_string_storage"
							},
							{
								"astId": 15,
								"contract": "contracts/Profile.sol:Profile",
								"label": "userAddress",
								"offset": 0,
								"slot": "6",
								"type": "t_address"
							},
							{
								"astId": 17,
								"contract": "contracts/Profile.sol:Profile",
								"label": "createDate",
								"offset": 0,
								"slot": "7",
								"type": "t_uint256"
							},
							{
								"astId": 20,
								"contract": "contracts/Profile.sol:Profile",
								"label": "frontend",
								"offset": 0,
								"slot": "8",
								"type": "t_array(t_string_storage)dyn_storage"
							},
							{
								"astId": 23,
								"contract": "contracts/Profile.sol:Profile",
								"label": "backend",
								"offset": 0,
								"slot": "9",
								"type": "t_array(t_string_storage)dyn_storage"
							},
							{
								"astId": 26,
								"contract": "contracts/Profile.sol:Profile",
								"label": "framework",
								"offset": 0,
								"slot": "10",
								"type": "t_array(t_string_storage)dyn_storage"
							}
						],
						"numberOfBytes": "352"
					},
					"t_uint256": {
						"encoding": "inplace",
						"label": "uint256",
						"numberOfBytes": "32"
					}
				}
			},
			"userdoc": {
				"kind": "user",
				"methods": {},
				"version": 1
			}
		}
	}
}