{
	"contracts/Profile.sol": {
		"Profile": {
			"abi": [
				{
					"inputs": [
						{
							"internalType": "string",
							"name": "firstName",
							"type": "string"
						},
						{
							"internalType": "string",
							"name": "middleName",
							"type": "string"
						},
						{
							"internalType": "string",
							"name": "lastName",
							"type": "string"
						},
						{
							"internalType": "string",
							"name": "email",
							"type": "string"
						},
						{
							"internalType": "string",
							"name": "phone",
							"type": "string"
						},
						{
							"internalType": "string",
							"name": "profileImage",
							"type": "string"
						},
						{
							"internalType": "string[]",
							"name": "frontend",
							"type": "string[]"
						},
						{
							"internalType": "string[]",
							"name": "backend",
							"type": "string[]"
						},
						{
							"internalType": "string[]",
							"name": "framework",
							"type": "string[]"
						}
					],
					"name": "addBio",
					"outputs": [],
					"stateMutability": "nonpayable",
					"type": "function"
				},
				{
					"inputs": [],
					"name": "delProfile",
					"outputs": [],
					"stateMutability": "nonpayable",
					"type": "function"
				},
				{
					"inputs": [],
					"name": "getAllSkill",
					"outputs": [
						{
							"internalType": "string[]",
							"name": "",
							"type": "string[]"
						}
					],
					"stateMutability": "view",
					"type": "function"
				},
				{
					"inputs": [
						{
							"internalType": "address",
							"name": "",
							"type": "address"
						}
					],
					"name": "profile",
					"outputs": [
						{
							"internalType": "address",
							"name": "userAddress",
							"type": "address"
						},
						{
							"internalType": "string",
							"name": "firstName",
							"type": "string"
						},
						{
							"internalType": "string",
							"name": "middleName",
							"type": "string"
						},
						{
							"internalType": "string",
							"name": "lastName",
							"type": "string"
						},
						{
							"internalType": "string",
							"name": "email",
							"type": "string"
						},
						{
							"internalType": "string",
							"name": "phone",
							"type": "string"
						},
						{
							"internalType": "string",
							"name": "profileImage",
							"type": "string"
						},
						{
							"internalType": "uint256",
							"name": "createDate",
							"type": "uint256"
						}
					],
					"stateMutability": "view",
					"type": "function"
				}
			],
			"devdoc": {
				"kind": "dev",
				"methods": {},
				"version": 1
			},
			"evm": {
				"assembly": "    /* \"contracts/Profile.sol\":60:2269  contract Profile {\r... */\n  mstore(0x40, 0x80)\n  callvalue\n  dup1\n  iszero\n  tag_1\n  jumpi\n  0x00\n  dup1\n  revert\ntag_1:\n  pop\n  dataSize(sub_0)\n  dup1\n  dataOffset(sub_0)\n  0x00\n  codecopy\n  0x00\n  return\nstop\n\nsub_0: assembly {\n        /* \"contracts/Profile.sol\":60:2269  contract Profile {\r... */\n      mstore(0x40, 0x80)\n      callvalue\n      dup1\n      iszero\n      tag_1\n      jumpi\n      0x00\n      dup1\n      revert\n    tag_1:\n      pop\n      jumpi(tag_2, lt(calldatasize, 0x04))\n      shr(0xe0, calldataload(0x00))\n      dup1\n      0x9dd9d0fd\n      eq\n      tag_3\n      jumpi\n      dup1\n      0xb08026ea\n      eq\n      tag_4\n      jumpi\n      dup1\n      0xca679f1d\n      eq\n      tag_5\n      jumpi\n      dup1\n      0xfabce08f\n      eq\n      tag_6\n      jumpi\n    tag_2:\n      0x00\n      dup1\n      revert\n        /* \"contracts/Profile.sol\":411:451  mapping (address => Bio) public  profile */\n    tag_3:\n      tag_7\n      0x04\n      dup1\n      calldatasize\n      sub\n      dup2\n      add\n      swap1\n      tag_8\n      swap2\n      swap1\n      tag_9\n      jump\t// in\n    tag_8:\n      tag_10\n      jump\t// in\n    tag_7:\n      mload(0x40)\n      tag_11\n      swap9\n      swap8\n      swap7\n      swap6\n      swap5\n      swap4\n      swap3\n      swap2\n      swap1\n      tag_12\n      jump\t// in\n    tag_11:\n      mload(0x40)\n      dup1\n      swap2\n      sub\n      swap1\n      return\n        /* \"contracts/Profile.sol\":2063:2178  function getAllSkill() public view returns( string[] memory) {\r... */\n    tag_4:\n      tag_13\n      tag_14\n      jump\t// in\n    tag_13:\n      mload(0x40)\n      tag_15\n      swap2\n      swap1\n      tag_16\n      jump\t// in\n    tag_15:\n      mload(0x40)\n      dup1\n      swap2\n      sub\n      swap1\n      return\n        /* \"contracts/Profile.sol\":590:1357  function addBio(string memory firstName, string memory middleName, string memory lastName, string memory email, string memory phone, string memory profileImage, string[] memory frontend, string[] memory backend, string[] memory framework) public {\r... */\n    tag_5:\n      tag_17\n      0x04\n      dup1\n      calldatasize\n      sub\n      dup2\n      add\n      swap1\n      tag_18\n      swap2\n      swap1\n      tag_19\n      jump\t// in\n    tag_18:\n      tag_20\n      jump\t// in\n    tag_17:\n      stop\n        /* \"contracts/Profile.sol\":2188:2262  function delProfile() public {\r... */\n    tag_6:\n      tag_21\n      tag_22\n      jump\t// in\n    tag_21:\n      stop\n        /* \"contracts/Profile.sol\":411:451  mapping (address => Bio) public  profile */\n    tag_10:\n      mstore(0x20, 0x00)\n      dup1\n      0x00\n      mstore\n      keccak256(0x00, 0x40)\n      0x00\n      swap2\n      pop\n      swap1\n      pop\n      dup1\n      0x00\n      add\n      0x00\n      swap1\n      sload\n      swap1\n      0x0100\n      exp\n      swap1\n      div\n      0xffffffffffffffffffffffffffffffffffffffff\n      and\n      swap1\n      dup1\n      0x01\n      add\n      dup1\n      sload\n      tag_23\n      swap1\n      tag_24\n      jump\t// in\n    tag_23:\n      dup1\n      0x1f\n      add\n      0x20\n      dup1\n      swap2\n      div\n      mul\n      0x20\n      add\n      mload(0x40)\n      swap1\n      dup2\n      add\n      0x40\n      mstore\n      dup1\n      swap3\n      swap2\n      swap1\n      dup2\n      dup2\n      mstore\n      0x20\n      add\n      dup3\n      dup1\n      sload\n      tag_25\n      swap1\n      tag_24\n      jump\t// in\n    tag_25:\n      dup1\n      iszero\n      tag_26\n      jumpi\n      dup1\n      0x1f\n      lt\n      tag_27\n      jumpi\n      0x0100\n      dup1\n      dup4\n      sload\n      div\n      mul\n      dup4\n      mstore\n      swap2\n      0x20\n      add\n      swap2\n      jump(tag_26)\n    tag_27:\n      dup3\n      add\n      swap2\n      swap1\n      0x00\n      mstore\n      keccak256(0x00, 0x20)\n      swap1\n    tag_28:\n      dup2\n      sload\n      dup2\n      mstore\n      swap1\n      0x01\n      add\n      swap1\n      0x20\n      add\n      dup1\n      dup4\n      gt\n      tag_28\n      jumpi\n      dup3\n      swap1\n      sub\n      0x1f\n      and\n      dup3\n      add\n      swap2\n    tag_26:\n      pop\n      pop\n      pop\n      pop\n      pop\n      swap1\n      dup1\n      0x02\n      add\n      dup1\n      sload\n      tag_29\n      swap1\n      tag_24\n      jump\t// in\n    tag_29:\n      dup1\n      0x1f\n      add\n      0x20\n      dup1\n      swap2\n      div\n      mul\n      0x20\n      add\n      mload(0x40)\n      swap1\n      dup2\n      add\n      0x40\n      mstore\n      dup1\n      swap3\n      swap2\n      swap1\n      dup2\n      dup2\n      mstore\n      0x20\n      add\n      dup3\n      dup1\n      sload\n      tag_30\n      swap1\n      tag_24\n      jump\t// in\n    tag_30:\n      dup1\n      iszero\n      tag_31\n      jumpi\n      dup1\n      0x1f\n      lt\n      tag_32\n      jumpi\n      0x0100\n      dup1\n      dup4\n      sload\n      div\n      mul\n      dup4\n      mstore\n      swap2\n      0x20\n      add\n      swap2\n      jump(tag_31)\n    tag_32:\n      dup3\n      add\n      swap2\n      swap1\n      0x00\n      mstore\n      keccak256(0x00, 0x20)\n      swap1\n    tag_33:\n      dup2\n      sload\n      dup2\n      mstore\n      swap1\n      0x01\n      add\n      swap1\n      0x20\n      add\n      dup1\n      dup4\n      gt\n      tag_33\n      jumpi\n      dup3\n      swap1\n      sub\n      0x1f\n      and\n      dup3\n      add\n      swap2\n    tag_31:\n      pop\n      pop\n      pop\n      pop\n      pop\n      swap1\n      dup1\n      0x03\n      add\n      dup1\n      sload\n      tag_34\n      swap1\n      tag_24\n      jump\t// in\n    tag_34:\n      dup1\n      0x1f\n      add\n      0x20\n      dup1\n      swap2\n      div\n      mul\n      0x20\n      add\n      mload(0x40)\n      swap1\n      dup2\n      add\n      0x40\n      mstore\n      dup1\n      swap3\n      swap2\n      swap1\n      dup2\n      dup2\n      mstore\n      0x20\n      add\n      dup3\n      dup1\n      sload\n      tag_35\n      swap1\n      tag_24\n      jump\t// in\n    tag_35:\n      dup1\n      iszero\n      tag_36\n      jumpi\n      dup1\n      0x1f\n      lt\n      tag_37\n      jumpi\n      0x0100\n      dup1\n      dup4\n      sload\n      div\n      mul\n      dup4\n      mstore\n      swap2\n      0x20\n      add\n      swap2\n      jump(tag_36)\n    tag_37:\n      dup3\n      add\n      swap2\n      swap1\n      0x00\n      mstore\n      keccak256(0x00, 0x20)\n      swap1\n    tag_38:\n      dup2\n      sload\n      dup2\n      mstore\n      swap1\n      0x01\n      add\n      swap1\n      0x20\n      add\n      dup1\n      dup4\n      gt\n      tag_38\n      jumpi\n      dup3\n      swap1\n      sub\n      0x1f\n      and\n      dup3\n      add\n      swap2\n    tag_36:\n      pop\n      pop\n      pop\n      pop\n      pop\n      swap1\n      dup1\n      0x04\n      add\n      dup1\n      sload\n      tag_39\n      swap1\n      tag_24\n      jump\t// in\n    tag_39:\n      dup1\n      0x1f\n      add\n      0x20\n      dup1\n      swap2\n      div\n      mul\n      0x20\n      add\n      mload(0x40)\n      swap1\n      dup2\n      add\n      0x40\n      mstore\n      dup1\n      swap3\n      swap2\n      swap1\n      dup2\n      dup2\n      mstore\n      0x20\n      add\n      dup3\n      dup1\n      sload\n      tag_40\n      swap1\n      tag_24\n      jump\t// in\n    tag_40:\n      dup1\n      iszero\n      tag_41\n      jumpi\n      dup1\n      0x1f\n      lt\n      tag_42\n      jumpi\n      0x0100\n      dup1\n      dup4\n      sload\n      div\n      mul\n      dup4\n      mstore\n      swap2\n      0x20\n      add\n      swap2\n      jump(tag_41)\n    tag_42:\n      dup3\n      add\n      swap2\n      swap1\n      0x00\n      mstore\n      keccak256(0x00, 0x20)\n      swap1\n    tag_43:\n      dup2\n      sload\n      dup2\n      mstore\n      swap1\n      0x01\n      add\n      swap1\n      0x20\n      add\n      dup1\n      dup4\n      gt\n      tag_43\n      jumpi\n      dup3\n      swap1\n      sub\n      0x1f\n      and\n      dup3\n      add\n      swap2\n    tag_41:\n      pop\n      pop\n      pop\n      pop\n      pop\n      swap1\n      dup1\n      0x05\n      add\n      dup1\n      sload\n      tag_44\n      swap1\n      tag_24\n      jump\t// in\n    tag_44:\n      dup1\n      0x1f\n      add\n      0x20\n      dup1\n      swap2\n      div\n      mul\n      0x20\n      add\n      mload(0x40)\n      swap1\n      dup2\n      add\n      0x40\n      mstore\n      dup1\n      swap3\n      swap2\n      swap1\n      dup2\n      dup2\n      mstore\n      0x20\n      add\n      dup3\n      dup1\n      sload\n      tag_45\n      swap1\n      tag_24\n      jump\t// in\n    tag_45:\n      dup1\n      iszero\n      tag_46\n      jumpi\n      dup1\n      0x1f\n      lt\n      tag_47\n      jumpi\n      0x0100\n      dup1\n      dup4\n      sload\n      div\n      mul\n      dup4\n      mstore\n      swap2\n      0x20\n      add\n      swap2\n      jump(tag_46)\n    tag_47:\n      dup3\n      add\n      swap2\n      swap1\n      0x00\n      mstore\n      keccak256(0x00, 0x20)\n      swap1\n    tag_48:\n      dup2\n      sload\n      dup2\n      mstore\n      swap1\n      0x01\n      add\n      swap1\n      0x20\n      add\n      dup1\n      dup4\n      gt\n      tag_48\n      jumpi\n      dup3\n      swap1\n      sub\n      0x1f\n      and\n      dup3\n      add\n      swap2\n    tag_46:\n      pop\n      pop\n      pop\n      pop\n      pop\n      swap1\n      dup1\n      0x06\n      add\n      dup1\n      sload\n      tag_49\n      swap1\n      tag_24\n      jump\t// in\n    tag_49:\n      dup1\n      0x1f\n      add\n      0x20\n      dup1\n      swap2\n      div\n      mul\n      0x20\n      add\n      mload(0x40)\n      swap1\n      dup2\n      add\n      0x40\n      mstore\n      dup1\n      swap3\n      swap2\n      swap1\n      dup2\n      dup2\n      mstore\n      0x20\n      add\n      dup3\n      dup1\n      sload\n      tag_50\n      swap1\n      tag_24\n      jump\t// in\n    tag_50:\n      dup1\n      iszero\n      tag_51\n      jumpi\n      dup1\n      0x1f\n      lt\n      tag_52\n      jumpi\n      0x0100\n      dup1\n      dup4\n      sload\n      div\n      mul\n      dup4\n      mstore\n      swap2\n      0x20\n      add\n      swap2\n      jump(tag_51)\n    tag_52:\n      dup3\n      add\n      swap2\n      swap1\n      0x00\n      mstore\n      keccak256(0x00, 0x20)\n      swap1\n    tag_53:\n      dup2\n      sload\n      dup2\n      mstore\n      swap1\n      0x01\n      add\n      swap1\n      0x20\n      add\n      dup1\n      dup4\n      gt\n      tag_53\n      jumpi\n      dup3\n      swap1\n      sub\n      0x1f\n      and\n      dup3\n      add\n      swap2\n    tag_51:\n      pop\n      pop\n      pop\n      pop\n      pop\n      swap1\n      dup1\n      0x07\n      add\n      sload\n      swap1\n      pop\n      dup9\n      jump\t// out\n        /* \"contracts/Profile.sol\":2063:2178  function getAllSkill() public view returns( string[] memory) {\r... */\n    tag_14:\n        /* \"contracts/Profile.sol\":2107:2122  string[] memory */\n      0x60\n        /* \"contracts/Profile.sol\":2142:2149  profile */\n      0x00\n        /* \"contracts/Profile.sol\":2142:2161  profile[msg.sender] */\n      dup1\n        /* \"contracts/Profile.sol\":2150:2160  msg.sender */\n      caller\n        /* \"contracts/Profile.sol\":2142:2161  profile[msg.sender] */\n      0xffffffffffffffffffffffffffffffffffffffff\n      and\n      0xffffffffffffffffffffffffffffffffffffffff\n      and\n      dup2\n      mstore\n      0x20\n      add\n      swap1\n      dup2\n      mstore\n      0x20\n      add\n      0x00\n      keccak256\n        /* \"contracts/Profile.sol\":2142:2170  profile[msg.sender].frontend */\n      0x08\n      add\n        /* \"contracts/Profile.sol\":2135:2170  return profile[msg.sender].frontend */\n      dup1\n      sload\n      dup1\n      0x20\n      mul\n      0x20\n      add\n      mload(0x40)\n      swap1\n      dup2\n      add\n      0x40\n      mstore\n      dup1\n      swap3\n      swap2\n      swap1\n      dup2\n      dup2\n      mstore\n      0x20\n      add\n      0x00\n      swap1\n    tag_55:\n      dup3\n      dup3\n      lt\n      iszero\n      tag_56\n      jumpi\n      dup4\n      dup3\n      swap1\n      0x00\n      mstore\n      keccak256(0x00, 0x20)\n      add\n      dup1\n      sload\n      tag_58\n      swap1\n      tag_24\n      jump\t// in\n    tag_58:\n      dup1\n      0x1f\n      add\n      0x20\n      dup1\n      swap2\n      div\n      mul\n      0x20\n      add\n      mload(0x40)\n      swap1\n      dup2\n      add\n      0x40\n      mstore\n      dup1\n      swap3\n      swap2\n      swap1\n      dup2\n      dup2\n      mstore\n      0x20\n      add\n      dup3\n      dup1\n      sload\n      tag_59\n      swap1\n      tag_24\n      jump\t// in\n    tag_59:\n      dup1\n      iszero\n      tag_60\n      jumpi\n      dup1\n      0x1f\n      lt\n      tag_61\n      jumpi\n      0x0100\n      dup1\n      dup4\n      sload\n      div\n      mul\n      dup4\n      mstore\n      swap2\n      0x20\n      add\n      swap2\n      jump(tag_60)\n    tag_61:\n      dup3\n      add\n      swap2\n      swap1\n      0x00\n      mstore\n      keccak256(0x00, 0x20)\n      swap1\n    tag_62:\n      dup2\n      sload\n      dup2\n      mstore\n      swap1\n      0x01\n      add\n      swap1\n      0x20\n      add\n      dup1\n      dup4\n      gt\n      tag_62\n      jumpi\n      dup3\n      swap1\n      sub\n      0x1f\n      and\n      dup3\n      add\n      swap2\n    tag_60:\n      pop\n      pop\n      pop\n      pop\n      pop\n      dup2\n      mstore\n      0x20\n      add\n      swap1\n      0x01\n      add\n      swap1\n      jump(tag_55)\n    tag_56:\n      pop\n      pop\n      pop\n      pop\n      swap1\n      pop\n        /* \"contracts/Profile.sol\":2063:2178  function getAllSkill() public view returns( string[] memory) {\r... */\n      swap1\n      jump\t// out\n        /* \"contracts/Profile.sol\":590:1357  function addBio(string memory firstName, string memory middleName, string memory lastName, string memory email, string memory phone, string memory profileImage, string[] memory frontend, string[] memory backend, string[] memory framework) public {\r... */\n    tag_20:\n        /* \"contracts/Profile.sol\":879:888  firstName */\n      dup9\n        /* \"contracts/Profile.sol\":847:854  profile */\n      0x00\n        /* \"contracts/Profile.sol\":847:866  profile[msg.sender] */\n      dup1\n        /* \"contracts/Profile.sol\":855:865  msg.sender */\n      caller\n        /* \"contracts/Profile.sol\":847:866  profile[msg.sender] */\n      0xffffffffffffffffffffffffffffffffffffffff\n      and\n      0xffffffffffffffffffffffffffffffffffffffff\n      and\n      dup2\n      mstore\n      0x20\n      add\n      swap1\n      dup2\n      mstore\n      0x20\n      add\n      0x00\n      keccak256\n        /* \"contracts/Profile.sol\":847:876  profile[msg.sender].firstName */\n      0x01\n      add\n        /* \"contracts/Profile.sol\":847:888  profile[msg.sender].firstName = firstName */\n      swap1\n      dup1\n      mload\n      swap1\n      0x20\n      add\n      swap1\n      tag_64\n      swap3\n      swap2\n      swap1\n      tag_65\n      jump\t// in\n    tag_64:\n      pop\n        /* \"contracts/Profile.sol\":932:942  middleName */\n      dup8\n        /* \"contracts/Profile.sol\":899:906  profile */\n      0x00\n        /* \"contracts/Profile.sol\":899:918  profile[msg.sender] */\n      dup1\n        /* \"contracts/Profile.sol\":907:917  msg.sender */\n      caller\n        /* \"contracts/Profile.sol\":899:918  profile[msg.sender] */\n      0xffffffffffffffffffffffffffffffffffffffff\n      and\n      0xffffffffffffffffffffffffffffffffffffffff\n      and\n      dup2\n      mstore\n      0x20\n      add\n      swap1\n      dup2\n      mstore\n      0x20\n      add\n      0x00\n      keccak256\n        /* \"contracts/Profile.sol\":899:929  profile[msg.sender].middleName */\n      0x02\n      add\n        /* \"contracts/Profile.sol\":899:942  profile[msg.sender].middleName = middleName */\n      swap1\n      dup1\n      mload\n      swap1\n      0x20\n      add\n      swap1\n      tag_66\n      swap3\n      swap2\n      swap1\n      tag_65\n      jump\t// in\n    tag_66:\n      pop\n        /* \"contracts/Profile.sol\":984:992  lastName */\n      dup7\n        /* \"contracts/Profile.sol\":953:960  profile */\n      0x00\n        /* \"contracts/Profile.sol\":953:972  profile[msg.sender] */\n      dup1\n        /* \"contracts/Profile.sol\":961:971  msg.sender */\n      caller\n        /* \"contracts/Profile.sol\":953:972  profile[msg.sender] */\n      0xffffffffffffffffffffffffffffffffffffffff\n      and\n      0xffffffffffffffffffffffffffffffffffffffff\n      and\n      dup2\n      mstore\n      0x20\n      add\n      swap1\n      dup2\n      mstore\n      0x20\n      add\n      0x00\n      keccak256\n        /* \"contracts/Profile.sol\":953:981  profile[msg.sender].lastName */\n      0x03\n      add\n        /* \"contracts/Profile.sol\":953:992  profile[msg.sender].lastName = lastName */\n      swap1\n      dup1\n      mload\n      swap1\n      0x20\n      add\n      swap1\n      tag_67\n      swap3\n      swap2\n      swap1\n      tag_65\n      jump\t// in\n    tag_67:\n      pop\n        /* \"contracts/Profile.sol\":1031:1036  email */\n      dup6\n        /* \"contracts/Profile.sol\":1003:1010  profile */\n      0x00\n        /* \"contracts/Profile.sol\":1003:1022  profile[msg.sender] */\n      dup1\n        /* \"contracts/Profile.sol\":1011:1021  msg.sender */\n      caller\n        /* \"contracts/Profile.sol\":1003:1022  profile[msg.sender] */\n      0xffffffffffffffffffffffffffffffffffffffff\n      and\n      0xffffffffffffffffffffffffffffffffffffffff\n      and\n      dup2\n      mstore\n      0x20\n      add\n      swap1\n      dup2\n      mstore\n      0x20\n      add\n      0x00\n      keccak256\n        /* \"contracts/Profile.sol\":1003:1028  profile[msg.sender].email */\n      0x04\n      add\n        /* \"contracts/Profile.sol\":1003:1036  profile[msg.sender].email = email */\n      swap1\n      dup1\n      mload\n      swap1\n      0x20\n      add\n      swap1\n      tag_68\n      swap3\n      swap2\n      swap1\n      tag_65\n      jump\t// in\n    tag_68:\n      pop\n        /* \"contracts/Profile.sol\":1075:1080  phone */\n      dup5\n        /* \"contracts/Profile.sol\":1047:1054  profile */\n      0x00\n        /* \"contracts/Profile.sol\":1047:1066  profile[msg.sender] */\n      dup1\n        /* \"contracts/Profile.sol\":1055:1065  msg.sender */\n      caller\n        /* \"contracts/Profile.sol\":1047:1066  profile[msg.sender] */\n      0xffffffffffffffffffffffffffffffffffffffff\n      and\n      0xffffffffffffffffffffffffffffffffffffffff\n      and\n      dup2\n      mstore\n      0x20\n      add\n      swap1\n      dup2\n      mstore\n      0x20\n      add\n      0x00\n      keccak256\n        /* \"contracts/Profile.sol\":1047:1072  profile[msg.sender].phone */\n      0x05\n      add\n        /* \"contracts/Profile.sol\":1047:1080  profile[msg.sender].phone = phone */\n      swap1\n      dup1\n      mload\n      swap1\n      0x20\n      add\n      swap1\n      tag_69\n      swap3\n      swap2\n      swap1\n      tag_65\n      jump\t// in\n    tag_69:\n      pop\n        /* \"contracts/Profile.sol\":1126:1138  profileImage */\n      dup4\n        /* \"contracts/Profile.sol\":1091:1098  profile */\n      0x00\n        /* \"contracts/Profile.sol\":1091:1110  profile[msg.sender] */\n      dup1\n        /* \"contracts/Profile.sol\":1099:1109  msg.sender */\n      caller\n        /* \"contracts/Profile.sol\":1091:1110  profile[msg.sender] */\n      0xffffffffffffffffffffffffffffffffffffffff\n      and\n      0xffffffffffffffffffffffffffffffffffffffff\n      and\n      dup2\n      mstore\n      0x20\n      add\n      swap1\n      dup2\n      mstore\n      0x20\n      add\n      0x00\n      keccak256\n        /* \"contracts/Profile.sol\":1091:1123  profile[msg.sender].profileImage */\n      0x06\n      add\n        /* \"contracts/Profile.sol\":1091:1138  profile[msg.sender].profileImage = profileImage */\n      swap1\n      dup1\n      mload\n      swap1\n      0x20\n      add\n      swap1\n      tag_70\n      swap3\n      swap2\n      swap1\n      tag_65\n      jump\t// in\n    tag_70:\n      pop\n        /* \"contracts/Profile.sol\":1183:1193  msg.sender */\n      caller\n        /* \"contracts/Profile.sol\":1149:1156  profile */\n      0x00\n        /* \"contracts/Profile.sol\":1149:1168  profile[msg.sender] */\n      dup1\n        /* \"contracts/Profile.sol\":1157:1167  msg.sender */\n      caller\n        /* \"contracts/Profile.sol\":1149:1168  profile[msg.sender] */\n      0xffffffffffffffffffffffffffffffffffffffff\n      and\n      0xffffffffffffffffffffffffffffffffffffffff\n      and\n      dup2\n      mstore\n      0x20\n      add\n      swap1\n      dup2\n      mstore\n      0x20\n      add\n      0x00\n      keccak256\n        /* \"contracts/Profile.sol\":1149:1180  profile[msg.sender].userAddress */\n      0x00\n      add\n      0x00\n        /* \"contracts/Profile.sol\":1149:1193  profile[msg.sender].userAddress = msg.sender */\n      0x0100\n      exp\n      dup2\n      sload\n      dup2\n      0xffffffffffffffffffffffffffffffffffffffff\n      mul\n      not\n      and\n      swap1\n      dup4\n      0xffffffffffffffffffffffffffffffffffffffff\n      and\n      mul\n      or\n      swap1\n      sstore\n      pop\n        /* \"contracts/Profile.sol\":1238:1253  block.timestamp */\n      timestamp\n        /* \"contracts/Profile.sol\":1205:1212  profile */\n      0x00\n        /* \"contracts/Profile.sol\":1205:1224  profile[msg.sender] */\n      dup1\n        /* \"contracts/Profile.sol\":1213:1223  msg.sender */\n      caller\n        /* \"contracts/Profile.sol\":1205:1224  profile[msg.sender] */\n      0xffffffffffffffffffffffffffffffffffffffff\n      and\n      0xffffffffffffffffffffffffffffffffffffffff\n      and\n      dup2\n      mstore\n      0x20\n      add\n      swap1\n      dup2\n      mstore\n      0x20\n      add\n      0x00\n      keccak256\n        /* \"contracts/Profile.sol\":1205:1235  profile[msg.sender].createDate */\n      0x07\n      add\n        /* \"contracts/Profile.sol\":1205:1253  profile[msg.sender].createDate = block.timestamp */\n      dup2\n      swap1\n      sstore\n      pop\n        /* \"contracts/Profile.sol\":1264:1285  addSkill(frontend, 0) */\n      tag_71\n        /* \"contracts/Profile.sol\":1273:1281  frontend */\n      dup4\n        /* \"contracts/Profile.sol\":1283:1284  0 */\n      0x00\n        /* \"contracts/Profile.sol\":1264:1272  addSkill */\n      tag_72\n        /* \"contracts/Profile.sol\":1264:1285  addSkill(frontend, 0) */\n      jump\t// in\n    tag_71:\n        /* \"contracts/Profile.sol\":1296:1316  addSkill(backend, 1) */\n      tag_73\n        /* \"contracts/Profile.sol\":1305:1312  backend */\n      dup3\n        /* \"contracts/Profile.sol\":1314:1315  1 */\n      0x01\n        /* \"contracts/Profile.sol\":1296:1304  addSkill */\n      tag_72\n        /* \"contracts/Profile.sol\":1296:1316  addSkill(backend, 1) */\n      jump\t// in\n    tag_73:\n        /* \"contracts/Profile.sol\":1327:1349  addSkill(framework, 2) */\n      tag_74\n        /* \"contracts/Profile.sol\":1336:1345  framework */\n      dup2\n        /* \"contracts/Profile.sol\":1347:1348  2 */\n      0x02\n        /* \"contracts/Profile.sol\":1327:1335  addSkill */\n      tag_72\n        /* \"contracts/Profile.sol\":1327:1349  addSkill(framework, 2) */\n      jump\t// in\n    tag_74:\n        /* \"contracts/Profile.sol\":590:1357  function addBio(string memory firstName, string memory middleName, string memory lastName, string memory email, string memory phone, string memory profileImage, string[] memory frontend, string[] memory backend, string[] memory framework) public {\r... */\n      pop\n      pop\n      pop\n      pop\n      pop\n      pop\n      pop\n      pop\n      pop\n      jump\t// out\n        /* \"contracts/Profile.sol\":2188:2262  function delProfile() public {\r... */\n    tag_22:\n        /* \"contracts/Profile.sol\":2235:2242  profile */\n      0x00\n        /* \"contracts/Profile.sol\":2235:2254  profile[msg.sender] */\n      dup1\n        /* \"contracts/Profile.sol\":2243:2253  msg.sender */\n      caller\n        /* \"contracts/Profile.sol\":2235:2254  profile[msg.sender] */\n      0xffffffffffffffffffffffffffffffffffffffff\n      and\n      0xffffffffffffffffffffffffffffffffffffffff\n      and\n      dup2\n      mstore\n      0x20\n      add\n      swap1\n      dup2\n      mstore\n      0x20\n      add\n      0x00\n      keccak256\n      0x00\n        /* \"contracts/Profile.sol\":2228:2254  delete profile[msg.sender] */\n      dup1\n      dup3\n      add\n      exp(0x0100, 0x00)\n      dup2\n      sload\n      swap1\n      0xffffffffffffffffffffffffffffffffffffffff\n      mul\n      not\n      and\n      swap1\n      sstore\n      0x01\n      dup3\n      add\n      0x00\n      tag_76\n      swap2\n      swap1\n      tag_77\n      jump\t// in\n    tag_76:\n      0x02\n      dup3\n      add\n      0x00\n      tag_78\n      swap2\n      swap1\n      tag_77\n      jump\t// in\n    tag_78:\n      0x03\n      dup3\n      add\n      0x00\n      tag_79\n      swap2\n      swap1\n      tag_77\n      jump\t// in\n    tag_79:\n      0x04\n      dup3\n      add\n      0x00\n      tag_80\n      swap2\n      swap1\n      tag_77\n      jump\t// in\n    tag_80:\n      0x05\n      dup3\n      add\n      0x00\n      tag_81\n      swap2\n      swap1\n      tag_77\n      jump\t// in\n    tag_81:\n      0x06\n      dup3\n      add\n      0x00\n      tag_82\n      swap2\n      swap1\n      tag_77\n      jump\t// in\n    tag_82:\n      0x07\n      dup3\n      add\n      0x00\n      swap1\n      sstore\n      0x08\n      dup3\n      add\n      0x00\n      tag_83\n      swap2\n      swap1\n      tag_84\n      jump\t// in\n    tag_83:\n      0x09\n      dup3\n      add\n      0x00\n      tag_85\n      swap2\n      swap1\n      tag_84\n      jump\t// in\n    tag_85:\n      0x0a\n      dup3\n      add\n      0x00\n      tag_86\n      swap2\n      swap1\n      tag_84\n      jump\t// in\n    tag_86:\n      pop\n      pop\n        /* \"contracts/Profile.sol\":2188:2262  function delProfile() public {\r... */\n      jump\t// out\n        /* \"contracts/Profile.sol\":1365:2055  function addSkill(string[] memory _frontend, uint8 _type) private {\r... */\n    tag_72:\n        /* \"contracts/Profile.sol\":1485:1486  0 */\n      0x00\n        /* \"contracts/Profile.sol\":1476:1481  _type */\n      dup2\n        /* \"contracts/Profile.sol\":1476:1486  _type == 0 */\n      0xff\n      and\n      eq\n        /* \"contracts/Profile.sol\":1473:1637  if(_type == 0){\r... */\n      iszero\n      tag_88\n      jumpi\n        /* \"contracts/Profile.sol\":1506:1513  uint8 i */\n      0x00\n        /* \"contracts/Profile.sol\":1502:1626  for(uint8 i=0; i < _frontend.length; i++) {\r... */\n    tag_89:\n        /* \"contracts/Profile.sol\":1521:1530  _frontend */\n      dup3\n        /* \"contracts/Profile.sol\":1521:1537  _frontend.length */\n      mload\n        /* \"contracts/Profile.sol\":1517:1518  i */\n      dup2\n        /* \"contracts/Profile.sol\":1517:1537  i < _frontend.length */\n      0xff\n      and\n      lt\n        /* \"contracts/Profile.sol\":1502:1626  for(uint8 i=0; i < _frontend.length; i++) {\r... */\n      iszero\n      tag_90\n      jumpi\n        /* \"contracts/Profile.sol\":1563:1570  profile */\n      0x00\n        /* \"contracts/Profile.sol\":1563:1582  profile[msg.sender] */\n      dup1\n        /* \"contracts/Profile.sol\":1571:1581  msg.sender */\n      caller\n        /* \"contracts/Profile.sol\":1563:1582  profile[msg.sender] */\n      0xffffffffffffffffffffffffffffffffffffffff\n      and\n      0xffffffffffffffffffffffffffffffffffffffff\n      and\n      dup2\n      mstore\n      0x20\n      add\n      swap1\n      dup2\n      mstore\n      0x20\n      add\n      0x00\n      keccak256\n        /* \"contracts/Profile.sol\":1563:1591  profile[msg.sender].frontend */\n      0x08\n      add\n        /* \"contracts/Profile.sol\":1597:1606  _frontend */\n      dup4\n        /* \"contracts/Profile.sol\":1607:1608  i */\n      dup3\n        /* \"contracts/Profile.sol\":1597:1609  _frontend[i] */\n      0xff\n      and\n      dup2\n      mload\n      dup2\n      lt\n      tag_92\n      jumpi\n      tag_93\n      tag_94\n      jump\t// in\n    tag_93:\n    tag_92:\n      0x20\n      mul\n      0x20\n      add\n      add\n      mload\n        /* \"contracts/Profile.sol\":1563:1610  profile[msg.sender].frontend.push(_frontend[i]) */\n      swap1\n      dup1\n      0x01\n      dup2\n      sload\n      add\n      dup1\n      dup3\n      sstore\n      dup1\n      swap2\n      pop\n      pop\n      0x01\n      swap1\n      sub\n      swap1\n      0x00\n      mstore\n      keccak256(0x00, 0x20)\n      add\n      0x00\n      swap1\n      swap2\n      swap1\n      swap2\n      swap1\n      swap2\n      pop\n      swap1\n      dup1\n      mload\n      swap1\n      0x20\n      add\n      swap1\n      tag_96\n      swap3\n      swap2\n      swap1\n      tag_65\n      jump\t// in\n    tag_96:\n      pop\n        /* \"contracts/Profile.sol\":1539:1542  i++ */\n      dup1\n      dup1\n      tag_97\n      swap1\n      tag_98\n      jump\t// in\n    tag_97:\n      swap2\n      pop\n      pop\n        /* \"contracts/Profile.sol\":1502:1626  for(uint8 i=0; i < _frontend.length; i++) {\r... */\n      jump(tag_89)\n    tag_90:\n      pop\n        /* \"contracts/Profile.sol\":1473:1637  if(_type == 0){\r... */\n    tag_88:\n        /* \"contracts/Profile.sol\":1690:1691  1 */\n      0x01\n        /* \"contracts/Profile.sol\":1681:1686  _type */\n      dup2\n        /* \"contracts/Profile.sol\":1681:1691  _type == 1 */\n      0xff\n      and\n      eq\n        /* \"contracts/Profile.sol\":1678:1841  if(_type == 1){\r... */\n      iszero\n      tag_99\n      jumpi\n        /* \"contracts/Profile.sol\":1711:1718  uint8 i */\n      0x00\n        /* \"contracts/Profile.sol\":1707:1830  for(uint8 i=0; i < _frontend.length; i++) {\r... */\n    tag_100:\n        /* \"contracts/Profile.sol\":1726:1735  _frontend */\n      dup3\n        /* \"contracts/Profile.sol\":1726:1742  _frontend.length */\n      mload\n        /* \"contracts/Profile.sol\":1722:1723  i */\n      dup2\n        /* \"contracts/Profile.sol\":1722:1742  i < _frontend.length */\n      0xff\n      and\n      lt\n        /* \"contracts/Profile.sol\":1707:1830  for(uint8 i=0; i < _frontend.length; i++) {\r... */\n      iszero\n      tag_101\n      jumpi\n        /* \"contracts/Profile.sol\":1768:1775  profile */\n      0x00\n        /* \"contracts/Profile.sol\":1768:1787  profile[msg.sender] */\n      dup1\n        /* \"contracts/Profile.sol\":1776:1786  msg.sender */\n      caller\n        /* \"contracts/Profile.sol\":1768:1787  profile[msg.sender] */\n      0xffffffffffffffffffffffffffffffffffffffff\n      and\n      0xffffffffffffffffffffffffffffffffffffffff\n      and\n      dup2\n      mstore\n      0x20\n      add\n      swap1\n      dup2\n      mstore\n      0x20\n      add\n      0x00\n      keccak256\n        /* \"contracts/Profile.sol\":1768:1795  profile[msg.sender].backend */\n      0x09\n      add\n        /* \"contracts/Profile.sol\":1801:1810  _frontend */\n      dup4\n        /* \"contracts/Profile.sol\":1811:1812  i */\n      dup3\n        /* \"contracts/Profile.sol\":1801:1813  _frontend[i] */\n      0xff\n      and\n      dup2\n      mload\n      dup2\n      lt\n      tag_103\n      jumpi\n      tag_104\n      tag_94\n      jump\t// in\n    tag_104:\n    tag_103:\n      0x20\n      mul\n      0x20\n      add\n      add\n      mload\n        /* \"contracts/Profile.sol\":1768:1814  profile[msg.sender].backend.push(_frontend[i]) */\n      swap1\n      dup1\n      0x01\n      dup2\n      sload\n      add\n      dup1\n      dup3\n      sstore\n      dup1\n      swap2\n      pop\n      pop\n      0x01\n      swap1\n      sub\n      swap1\n      0x00\n      mstore\n      keccak256(0x00, 0x20)\n      add\n      0x00\n      swap1\n      swap2\n      swap1\n      swap2\n      swap1\n      swap2\n      pop\n      swap1\n      dup1\n      mload\n      swap1\n      0x20\n      add\n      swap1\n      tag_106\n      swap3\n      swap2\n      swap1\n      tag_65\n      jump\t// in\n    tag_106:\n      pop\n        /* \"contracts/Profile.sol\":1744:1747  i++ */\n      dup1\n      dup1\n      tag_107\n      swap1\n      tag_98\n      jump\t// in\n    tag_107:\n      swap2\n      pop\n      pop\n        /* \"contracts/Profile.sol\":1707:1830  for(uint8 i=0; i < _frontend.length; i++) {\r... */\n      jump(tag_100)\n    tag_101:\n      pop\n        /* \"contracts/Profile.sol\":1678:1841  if(_type == 1){\r... */\n    tag_99:\n        /* \"contracts/Profile.sol\":1895:1896  2 */\n      0x02\n        /* \"contracts/Profile.sol\":1886:1891  _type */\n      dup2\n        /* \"contracts/Profile.sol\":1886:1896  _type == 2 */\n      0xff\n      and\n      eq\n        /* \"contracts/Profile.sol\":1883:2048  if(_type == 2){\r... */\n      iszero\n      tag_108\n      jumpi\n        /* \"contracts/Profile.sol\":1916:1923  uint8 i */\n      0x00\n        /* \"contracts/Profile.sol\":1912:2037  for(uint8 i=0; i < _frontend.length; i++) {\r... */\n    tag_109:\n        /* \"contracts/Profile.sol\":1931:1940  _frontend */\n      dup3\n        /* \"contracts/Profile.sol\":1931:1947  _frontend.length */\n      mload\n        /* \"contracts/Profile.sol\":1927:1928  i */\n      dup2\n        /* \"contracts/Profile.sol\":1927:1947  i < _frontend.length */\n      0xff\n      and\n      lt\n        /* \"contracts/Profile.sol\":1912:2037  for(uint8 i=0; i < _frontend.length; i++) {\r... */\n      iszero\n      tag_110\n      jumpi\n        /* \"contracts/Profile.sol\":1973:1980  profile */\n      0x00\n        /* \"contracts/Profile.sol\":1973:1992  profile[msg.sender] */\n      dup1\n        /* \"contracts/Profile.sol\":1981:1991  msg.sender */\n      caller\n        /* \"contracts/Profile.sol\":1973:1992  profile[msg.sender] */\n      0xffffffffffffffffffffffffffffffffffffffff\n      and\n      0xffffffffffffffffffffffffffffffffffffffff\n      and\n      dup2\n      mstore\n      0x20\n      add\n      swap1\n      dup2\n      mstore\n      0x20\n      add\n      0x00\n      keccak256\n        /* \"contracts/Profile.sol\":1973:2002  profile[msg.sender].framework */\n      0x0a\n      add\n        /* \"contracts/Profile.sol\":2008:2017  _frontend */\n      dup4\n        /* \"contracts/Profile.sol\":2018:2019  i */\n      dup3\n        /* \"contracts/Profile.sol\":2008:2020  _frontend[i] */\n      0xff\n      and\n      dup2\n      mload\n      dup2\n      lt\n      tag_112\n      jumpi\n      tag_113\n      tag_94\n      jump\t// in\n    tag_113:\n    tag_112:\n      0x20\n      mul\n      0x20\n      add\n      add\n      mload\n        /* \"contracts/Profile.sol\":1973:2021  profile[msg.sender].framework.push(_frontend[i]) */\n      swap1\n      dup1\n      0x01\n      dup2\n      sload\n      add\n      dup1\n      dup3\n      sstore\n      dup1\n      swap2\n      pop\n      pop\n      0x01\n      swap1\n      sub\n      swap1\n      0x00\n      mstore\n      keccak256(0x00, 0x20)\n      add\n      0x00\n      swap1\n      swap2\n      swap1\n      swap2\n      swap1\n      swap2\n      pop\n      swap1\n      dup1\n      mload\n      swap1\n      0x20\n      add\n      swap1\n      tag_115\n      swap3\n      swap2\n      swap1\n      tag_65\n      jump\t// in\n    tag_115:\n      pop\n        /* \"contracts/Profile.sol\":1949:1952  i++ */\n      dup1\n      dup1\n      tag_116\n      swap1\n      tag_98\n      jump\t// in\n    tag_116:\n      swap2\n      pop\n      pop\n        /* \"contracts/Profile.sol\":1912:2037  for(uint8 i=0; i < _frontend.length; i++) {\r... */\n      jump(tag_109)\n    tag_110:\n      pop\n        /* \"contracts/Profile.sol\":1883:2048  if(_type == 2){\r... */\n    tag_108:\n        /* \"contracts/Profile.sol\":1365:2055  function addSkill(string[] memory _frontend, uint8 _type) private {\r... */\n      pop\n      pop\n      jump\t// out\n    tag_65:\n      dup3\n      dup1\n      sload\n      tag_117\n      swap1\n      tag_24\n      jump\t// in\n    tag_117:\n      swap1\n      0x00\n      mstore\n      keccak256(0x00, 0x20)\n      swap1\n      0x1f\n      add\n      0x20\n      swap1\n      div\n      dup2\n      add\n      swap3\n      dup3\n      tag_119\n      jumpi\n      0x00\n      dup6\n      sstore\n      jump(tag_118)\n    tag_119:\n      dup3\n      0x1f\n      lt\n      tag_120\n      jumpi\n      dup1\n      mload\n      not(0xff)\n      and\n      dup4\n      dup1\n      add\n      or\n      dup6\n      sstore\n      jump(tag_118)\n    tag_120:\n      dup3\n      dup1\n      add\n      0x01\n      add\n      dup6\n      sstore\n      dup3\n      iszero\n      tag_118\n      jumpi\n      swap2\n      dup3\n      add\n    tag_121:\n      dup3\n      dup2\n      gt\n      iszero\n      tag_122\n      jumpi\n      dup3\n      mload\n      dup3\n      sstore\n      swap2\n      0x20\n      add\n      swap2\n      swap1\n      0x01\n      add\n      swap1\n      jump(tag_121)\n    tag_122:\n    tag_118:\n      pop\n      swap1\n      pop\n      tag_123\n      swap2\n      swap1\n      tag_124\n      jump\t// in\n    tag_123:\n      pop\n      swap1\n      jump\t// out\n    tag_77:\n      pop\n      dup1\n      sload\n      tag_125\n      swap1\n      tag_24\n      jump\t// in\n    tag_125:\n      0x00\n      dup3\n      sstore\n      dup1\n      0x1f\n      lt\n      tag_127\n      jumpi\n      pop\n      jump(tag_126)\n    tag_127:\n      0x1f\n      add\n      0x20\n      swap1\n      div\n      swap1\n      0x00\n      mstore\n      keccak256(0x00, 0x20)\n      swap1\n      dup2\n      add\n      swap1\n      tag_128\n      swap2\n      swap1\n      tag_124\n      jump\t// in\n    tag_128:\n    tag_126:\n      pop\n      jump\t// out\n    tag_84:\n      pop\n      dup1\n      sload\n      0x00\n      dup3\n      sstore\n      swap1\n      0x00\n      mstore\n      keccak256(0x00, 0x20)\n      swap1\n      dup2\n      add\n      swap1\n      tag_130\n      swap2\n      swap1\n      tag_131\n      jump\t// in\n    tag_130:\n      pop\n      jump\t// out\n    tag_124:\n    tag_132:\n      dup1\n      dup3\n      gt\n      iszero\n      tag_133\n      jumpi\n      0x00\n      dup2\n      0x00\n      swap1\n      sstore\n      pop\n      0x01\n      add\n      jump(tag_132)\n    tag_133:\n      pop\n      swap1\n      jump\t// out\n    tag_131:\n    tag_134:\n      dup1\n      dup3\n      gt\n      iszero\n      tag_135\n      jumpi\n      0x00\n      dup2\n      dup2\n      tag_136\n      swap2\n      swap1\n      tag_77\n      jump\t// in\n    tag_136:\n      pop\n      0x01\n      add\n      jump(tag_134)\n    tag_135:\n      pop\n      swap1\n      jump\t// out\n        /* \"#utility.yul\":23:980   */\n    tag_138:\n        /* \"#utility.yul\":129:134   */\n      0x00\n        /* \"#utility.yul\":154:245   */\n      tag_140\n        /* \"#utility.yul\":170:244   */\n      tag_141\n        /* \"#utility.yul\":237:243   */\n      dup5\n        /* \"#utility.yul\":170:244   */\n      tag_142\n      jump\t// in\n    tag_141:\n        /* \"#utility.yul\":154:245   */\n      tag_143\n      jump\t// in\n    tag_140:\n        /* \"#utility.yul\":145:245   */\n      swap1\n      pop\n        /* \"#utility.yul\":265:270   */\n      dup1\n        /* \"#utility.yul\":294:300   */\n      dup4\n        /* \"#utility.yul\":287:292   */\n      dup3\n        /* \"#utility.yul\":280:301   */\n      mstore\n        /* \"#utility.yul\":328:332   */\n      0x20\n        /* \"#utility.yul\":321:326   */\n      dup3\n        /* \"#utility.yul\":317:333   */\n      add\n        /* \"#utility.yul\":310:333   */\n      swap1\n      pop\n        /* \"#utility.yul\":354:360   */\n      dup3\n        /* \"#utility.yul\":404:407   */\n      dup6\n        /* \"#utility.yul\":396:400   */\n      0x20\n        /* \"#utility.yul\":388:394   */\n      dup7\n        /* \"#utility.yul\":384:401   */\n      mul\n        /* \"#utility.yul\":379:382   */\n      dup3\n        /* \"#utility.yul\":375:402   */\n      add\n        /* \"#utility.yul\":372:408   */\n      gt\n        /* \"#utility.yul\":369:512   */\n      iszero\n      tag_144\n      jumpi\n        /* \"#utility.yul\":423:502   */\n      tag_145\n      tag_146\n      jump\t// in\n    tag_145:\n        /* \"#utility.yul\":369:512   */\n    tag_144:\n        /* \"#utility.yul\":536:537   */\n      0x00\n        /* \"#utility.yul\":521:974   */\n    tag_147:\n        /* \"#utility.yul\":546:552   */\n      dup6\n        /* \"#utility.yul\":543:544   */\n      dup2\n        /* \"#utility.yul\":540:553   */\n      lt\n        /* \"#utility.yul\":521:974   */\n      iszero\n      tag_149\n      jumpi\n        /* \"#utility.yul\":628:631   */\n      dup2\n        /* \"#utility.yul\":615:632   */\n      calldataload\n        /* \"#utility.yul\":664:682   */\n      0xffffffffffffffff\n        /* \"#utility.yul\":651:662   */\n      dup2\n        /* \"#utility.yul\":648:683   */\n      gt\n        /* \"#utility.yul\":645:767   */\n      iszero\n      tag_150\n      jumpi\n        /* \"#utility.yul\":686:765   */\n      tag_151\n      tag_152\n      jump\t// in\n    tag_151:\n        /* \"#utility.yul\":645:767   */\n    tag_150:\n        /* \"#utility.yul\":810:821   */\n      dup1\n        /* \"#utility.yul\":802:808   */\n      dup7\n        /* \"#utility.yul\":798:822   */\n      add\n        /* \"#utility.yul\":848:895   */\n      tag_153\n        /* \"#utility.yul\":891:894   */\n      dup10\n        /* \"#utility.yul\":879:889   */\n      dup3\n        /* \"#utility.yul\":848:895   */\n      tag_154\n      jump\t// in\n    tag_153:\n        /* \"#utility.yul\":843:846   */\n      dup6\n        /* \"#utility.yul\":836:896   */\n      mstore\n        /* \"#utility.yul\":925:929   */\n      0x20\n        /* \"#utility.yul\":920:923   */\n      dup6\n        /* \"#utility.yul\":916:930   */\n      add\n        /* \"#utility.yul\":909:930   */\n      swap5\n      pop\n        /* \"#utility.yul\":959:963   */\n      0x20\n        /* \"#utility.yul\":954:957   */\n      dup5\n        /* \"#utility.yul\":950:964   */\n      add\n        /* \"#utility.yul\":943:964   */\n      swap4\n      pop\n        /* \"#utility.yul\":581:974   */\n      pop\n      pop\n        /* \"#utility.yul\":568:569   */\n      0x01\n        /* \"#utility.yul\":565:566   */\n      dup2\n        /* \"#utility.yul\":561:570   */\n      add\n        /* \"#utility.yul\":556:570   */\n      swap1\n      pop\n        /* \"#utility.yul\":521:974   */\n      jump(tag_147)\n    tag_149:\n        /* \"#utility.yul\":525:539   */\n      pop\n        /* \"#utility.yul\":135:980   */\n      pop\n      pop\n        /* \"#utility.yul\":23:980   */\n      swap4\n      swap3\n      pop\n      pop\n      pop\n      jump\t// out\n        /* \"#utility.yul\":986:1398   */\n    tag_155:\n        /* \"#utility.yul\":1064:1069   */\n      0x00\n        /* \"#utility.yul\":1089:1155   */\n      tag_157\n        /* \"#utility.yul\":1105:1154   */\n      tag_158\n        /* \"#utility.yul\":1147:1153   */\n      dup5\n        /* \"#utility.yul\":1105:1154   */\n      tag_159\n      jump\t// in\n    tag_158:\n        /* \"#utility.yul\":1089:1155   */\n      tag_143\n      jump\t// in\n    tag_157:\n        /* \"#utility.yul\":1080:1155   */\n      swap1\n      pop\n        /* \"#utility.yul\":1178:1184   */\n      dup3\n        /* \"#utility.yul\":1171:1176   */\n      dup2\n        /* \"#utility.yul\":1164:1185   */\n      mstore\n        /* \"#utility.yul\":1216:1220   */\n      0x20\n        /* \"#utility.yul\":1209:1214   */\n      dup2\n        /* \"#utility.yul\":1205:1221   */\n      add\n        /* \"#utility.yul\":1254:1257   */\n      dup5\n        /* \"#utility.yul\":1245:1251   */\n      dup5\n        /* \"#utility.yul\":1240:1243   */\n      dup5\n        /* \"#utility.yul\":1236:1252   */\n      add\n        /* \"#utility.yul\":1233:1258   */\n      gt\n        /* \"#utility.yul\":1230:1342   */\n      iszero\n      tag_160\n      jumpi\n        /* \"#utility.yul\":1261:1340   */\n      tag_161\n      tag_162\n      jump\t// in\n    tag_161:\n        /* \"#utility.yul\":1230:1342   */\n    tag_160:\n        /* \"#utility.yul\":1351:1392   */\n      tag_163\n        /* \"#utility.yul\":1385:1391   */\n      dup5\n        /* \"#utility.yul\":1380:1383   */\n      dup3\n        /* \"#utility.yul\":1375:1378   */\n      dup6\n        /* \"#utility.yul\":1351:1392   */\n      tag_164\n      jump\t// in\n    tag_163:\n        /* \"#utility.yul\":1070:1398   */\n      pop\n        /* \"#utility.yul\":986:1398   */\n      swap4\n      swap3\n      pop\n      pop\n      pop\n      jump\t// out\n        /* \"#utility.yul\":1404:1543   */\n    tag_165:\n        /* \"#utility.yul\":1450:1455   */\n      0x00\n        /* \"#utility.yul\":1488:1494   */\n      dup2\n        /* \"#utility.yul\":1475:1495   */\n      calldataload\n        /* \"#utility.yul\":1466:1495   */\n      swap1\n      pop\n        /* \"#utility.yul\":1504:1537   */\n      tag_167\n        /* \"#utility.yul\":1531:1536   */\n      dup2\n        /* \"#utility.yul\":1504:1537   */\n      tag_168\n      jump\t// in\n    tag_167:\n        /* \"#utility.yul\":1404:1543   */\n      swap3\n      swap2\n      pop\n      pop\n      jump\t// out\n        /* \"#utility.yul\":1565:1955   */\n    tag_169:\n        /* \"#utility.yul\":1646:1651   */\n      0x00\n        /* \"#utility.yul\":1695:1698   */\n      dup3\n        /* \"#utility.yul\":1688:1692   */\n      0x1f\n        /* \"#utility.yul\":1680:1686   */\n      dup4\n        /* \"#utility.yul\":1676:1693   */\n      add\n        /* \"#utility.yul\":1672:1699   */\n      slt\n        /* \"#utility.yul\":1662:1784   */\n      tag_171\n      jumpi\n        /* \"#utility.yul\":1703:1782   */\n      tag_172\n      tag_152\n      jump\t// in\n    tag_172:\n        /* \"#utility.yul\":1662:1784   */\n    tag_171:\n        /* \"#utility.yul\":1820:1826   */\n      dup2\n        /* \"#utility.yul\":1807:1827   */\n      calldataload\n        /* \"#utility.yul\":1845:1949   */\n      tag_173\n        /* \"#utility.yul\":1945:1948   */\n      dup5\n        /* \"#utility.yul\":1937:1943   */\n      dup3\n        /* \"#utility.yul\":1930:1934   */\n      0x20\n        /* \"#utility.yul\":1922:1928   */\n      dup7\n        /* \"#utility.yul\":1918:1935   */\n      add\n        /* \"#utility.yul\":1845:1949   */\n      tag_138\n      jump\t// in\n    tag_173:\n        /* \"#utility.yul\":1836:1949   */\n      swap2\n      pop\n        /* \"#utility.yul\":1652:1955   */\n      pop\n        /* \"#utility.yul\":1565:1955   */\n      swap3\n      swap2\n      pop\n      pop\n      jump\t// out\n        /* \"#utility.yul\":1975:2315   */\n    tag_154:\n        /* \"#utility.yul\":2031:2036   */\n      0x00\n        /* \"#utility.yul\":2080:2083   */\n      dup3\n        /* \"#utility.yul\":2073:2077   */\n      0x1f\n        /* \"#utility.yul\":2065:2071   */\n      dup4\n        /* \"#utility.yul\":2061:2078   */\n      add\n        /* \"#utility.yul\":2057:2084   */\n      slt\n        /* \"#utility.yul\":2047:2169   */\n      tag_175\n      jumpi\n        /* \"#utility.yul\":2088:2167   */\n      tag_176\n      tag_152\n      jump\t// in\n    tag_176:\n        /* \"#utility.yul\":2047:2169   */\n    tag_175:\n        /* \"#utility.yul\":2205:2211   */\n      dup2\n        /* \"#utility.yul\":2192:2212   */\n      calldataload\n        /* \"#utility.yul\":2230:2309   */\n      tag_177\n        /* \"#utility.yul\":2305:2308   */\n      dup5\n        /* \"#utility.yul\":2297:2303   */\n      dup3\n        /* \"#utility.yul\":2290:2294   */\n      0x20\n        /* \"#utility.yul\":2282:2288   */\n      dup7\n        /* \"#utility.yul\":2278:2295   */\n      add\n        /* \"#utility.yul\":2230:2309   */\n      tag_155\n      jump\t// in\n    tag_177:\n        /* \"#utility.yul\":2221:2309   */\n      swap2\n      pop\n        /* \"#utility.yul\":2037:2315   */\n      pop\n        /* \"#utility.yul\":1975:2315   */\n      swap3\n      swap2\n      pop\n      pop\n      jump\t// out\n        /* \"#utility.yul\":2321:2650   */\n    tag_9:\n        /* \"#utility.yul\":2380:2386   */\n      0x00\n        /* \"#utility.yul\":2429:2431   */\n      0x20\n        /* \"#utility.yul\":2417:2426   */\n      dup3\n        /* \"#utility.yul\":2408:2415   */\n      dup5\n        /* \"#utility.yul\":2404:2427   */\n      sub\n        /* \"#utility.yul\":2400:2432   */\n      slt\n        /* \"#utility.yul\":2397:2516   */\n      iszero\n      tag_179\n      jumpi\n        /* \"#utility.yul\":2435:2514   */\n      tag_180\n      tag_181\n      jump\t// in\n    tag_180:\n        /* \"#utility.yul\":2397:2516   */\n    tag_179:\n        /* \"#utility.yul\":2555:2556   */\n      0x00\n        /* \"#utility.yul\":2580:2633   */\n      tag_182\n        /* \"#utility.yul\":2625:2632   */\n      dup5\n        /* \"#utility.yul\":2616:2622   */\n      dup3\n        /* \"#utility.yul\":2605:2614   */\n      dup6\n        /* \"#utility.yul\":2601:2623   */\n      add\n        /* \"#utility.yul\":2580:2633   */\n      tag_165\n      jump\t// in\n    tag_182:\n        /* \"#utility.yul\":2570:2633   */\n      swap2\n      pop\n        /* \"#utility.yul\":2526:2643   */\n      pop\n        /* \"#utility.yul\":2321:2650   */\n      swap3\n      swap2\n      pop\n      pop\n      jump\t// out\n        /* \"#utility.yul\":2656:5921   */\n    tag_19:\n        /* \"#utility.yul\":2952:2958   */\n      0x00\n        /* \"#utility.yul\":2960:2966   */\n      dup1\n        /* \"#utility.yul\":2968:2974   */\n      0x00\n        /* \"#utility.yul\":2976:2982   */\n      dup1\n        /* \"#utility.yul\":2984:2990   */\n      0x00\n        /* \"#utility.yul\":2992:2998   */\n      dup1\n        /* \"#utility.yul\":3000:3006   */\n      0x00\n        /* \"#utility.yul\":3008:3014   */\n      dup1\n        /* \"#utility.yul\":3016:3022   */\n      0x00\n        /* \"#utility.yul\":3065:3068   */\n      0x0120\n        /* \"#utility.yul\":3053:3062   */\n      dup11\n        /* \"#utility.yul\":3044:3051   */\n      dup13\n        /* \"#utility.yul\":3040:3063   */\n      sub\n        /* \"#utility.yul\":3036:3069   */\n      slt\n        /* \"#utility.yul\":3033:3153   */\n      iszero\n      tag_184\n      jumpi\n        /* \"#utility.yul\":3072:3151   */\n      tag_185\n      tag_181\n      jump\t// in\n    tag_185:\n        /* \"#utility.yul\":3033:3153   */\n    tag_184:\n        /* \"#utility.yul\":3220:3221   */\n      0x00\n        /* \"#utility.yul\":3209:3218   */\n      dup11\n        /* \"#utility.yul\":3205:3222   */\n      add\n        /* \"#utility.yul\":3192:3223   */\n      calldataload\n        /* \"#utility.yul\":3250:3268   */\n      0xffffffffffffffff\n        /* \"#utility.yul\":3242:3248   */\n      dup2\n        /* \"#utility.yul\":3239:3269   */\n      gt\n        /* \"#utility.yul\":3236:3353   */\n      iszero\n      tag_186\n      jumpi\n        /* \"#utility.yul\":3272:3351   */\n      tag_187\n      tag_188\n      jump\t// in\n    tag_187:\n        /* \"#utility.yul\":3236:3353   */\n    tag_186:\n        /* \"#utility.yul\":3377:3440   */\n      tag_189\n        /* \"#utility.yul\":3432:3439   */\n      dup13\n        /* \"#utility.yul\":3423:3429   */\n      dup3\n        /* \"#utility.yul\":3412:3421   */\n      dup14\n        /* \"#utility.yul\":3408:3430   */\n      add\n        /* \"#utility.yul\":3377:3440   */\n      tag_154\n      jump\t// in\n    tag_189:\n        /* \"#utility.yul\":3367:3440   */\n      swap10\n      pop\n        /* \"#utility.yul\":3163:3450   */\n      pop\n        /* \"#utility.yul\":3517:3519   */\n      0x20\n        /* \"#utility.yul\":3506:3515   */\n      dup11\n        /* \"#utility.yul\":3502:3520   */\n      add\n        /* \"#utility.yul\":3489:3521   */\n      calldataload\n        /* \"#utility.yul\":3548:3566   */\n      0xffffffffffffffff\n        /* \"#utility.yul\":3540:3546   */\n      dup2\n        /* \"#utility.yul\":3537:3567   */\n      gt\n        /* \"#utility.yul\":3534:3651   */\n      iszero\n      tag_190\n      jumpi\n        /* \"#utility.yul\":3570:3649   */\n      tag_191\n      tag_188\n      jump\t// in\n    tag_191:\n        /* \"#utility.yul\":3534:3651   */\n    tag_190:\n        /* \"#utility.yul\":3675:3738   */\n      tag_192\n        /* \"#utility.yul\":3730:3737   */\n      dup13\n        /* \"#utility.yul\":3721:3727   */\n      dup3\n        /* \"#utility.yul\":3710:3719   */\n      dup14\n        /* \"#utility.yul\":3706:3728   */\n      add\n        /* \"#utility.yul\":3675:3738   */\n      tag_154\n      jump\t// in\n    tag_192:\n        /* \"#utility.yul\":3665:3738   */\n      swap9\n      pop\n        /* \"#utility.yul\":3460:3748   */\n      pop\n        /* \"#utility.yul\":3815:3817   */\n      0x40\n        /* \"#utility.yul\":3804:3813   */\n      dup11\n        /* \"#utility.yul\":3800:3818   */\n      add\n        /* \"#utility.yul\":3787:3819   */\n      calldataload\n        /* \"#utility.yul\":3846:3864   */\n      0xffffffffffffffff\n        /* \"#utility.yul\":3838:3844   */\n      dup2\n        /* \"#utility.yul\":3835:3865   */\n      gt\n        /* \"#utility.yul\":3832:3949   */\n      iszero\n      tag_193\n      jumpi\n        /* \"#utility.yul\":3868:3947   */\n      tag_194\n      tag_188\n      jump\t// in\n    tag_194:\n        /* \"#utility.yul\":3832:3949   */\n    tag_193:\n        /* \"#utility.yul\":3973:4036   */\n      tag_195\n        /* \"#utility.yul\":4028:4035   */\n      dup13\n        /* \"#utility.yul\":4019:4025   */\n      dup3\n        /* \"#utility.yul\":4008:4017   */\n      dup14\n        /* \"#utility.yul\":4004:4026   */\n      add\n        /* \"#utility.yul\":3973:4036   */\n      tag_154\n      jump\t// in\n    tag_195:\n        /* \"#utility.yul\":3963:4036   */\n      swap8\n      pop\n        /* \"#utility.yul\":3758:4046   */\n      pop\n        /* \"#utility.yul\":4113:4115   */\n      0x60\n        /* \"#utility.yul\":4102:4111   */\n      dup11\n        /* \"#utility.yul\":4098:4116   */\n      add\n        /* \"#utility.yul\":4085:4117   */\n      calldataload\n        /* \"#utility.yul\":4144:4162   */\n      0xffffffffffffffff\n        /* \"#utility.yul\":4136:4142   */\n      dup2\n        /* \"#utility.yul\":4133:4163   */\n      gt\n        /* \"#utility.yul\":4130:4247   */\n      iszero\n      tag_196\n      jumpi\n        /* \"#utility.yul\":4166:4245   */\n      tag_197\n      tag_188\n      jump\t// in\n    tag_197:\n        /* \"#utility.yul\":4130:4247   */\n    tag_196:\n        /* \"#utility.yul\":4271:4334   */\n      tag_198\n        /* \"#utility.yul\":4326:4333   */\n      dup13\n        /* \"#utility.yul\":4317:4323   */\n      dup3\n        /* \"#utility.yul\":4306:4315   */\n      dup14\n        /* \"#utility.yul\":4302:4324   */\n      add\n        /* \"#utility.yul\":4271:4334   */\n      tag_154\n      jump\t// in\n    tag_198:\n        /* \"#utility.yul\":4261:4334   */\n      swap7\n      pop\n        /* \"#utility.yul\":4056:4344   */\n      pop\n        /* \"#utility.yul\":4411:4414   */\n      0x80\n        /* \"#utility.yul\":4400:4409   */\n      dup11\n        /* \"#utility.yul\":4396:4415   */\n      add\n        /* \"#utility.yul\":4383:4416   */\n      calldataload\n        /* \"#utility.yul\":4443:4461   */\n      0xffffffffffffffff\n        /* \"#utility.yul\":4435:4441   */\n      dup2\n        /* \"#utility.yul\":4432:4462   */\n      gt\n        /* \"#utility.yul\":4429:4546   */\n      iszero\n      tag_199\n      jumpi\n        /* \"#utility.yul\":4465:4544   */\n      tag_200\n      tag_188\n      jump\t// in\n    tag_200:\n        /* \"#utility.yul\":4429:4546   */\n    tag_199:\n        /* \"#utility.yul\":4570:4633   */\n      tag_201\n        /* \"#utility.yul\":4625:4632   */\n      dup13\n        /* \"#utility.yul\":4616:4622   */\n      dup3\n        /* \"#utility.yul\":4605:4614   */\n      dup14\n        /* \"#utility.yul\":4601:4623   */\n      add\n        /* \"#utility.yul\":4570:4633   */\n      tag_154\n      jump\t// in\n    tag_201:\n        /* \"#utility.yul\":4560:4633   */\n      swap6\n      pop\n        /* \"#utility.yul\":4354:4643   */\n      pop\n        /* \"#utility.yul\":4710:4713   */\n      0xa0\n        /* \"#utility.yul\":4699:4708   */\n      dup11\n        /* \"#utility.yul\":4695:4714   */\n      add\n        /* \"#utility.yul\":4682:4715   */\n      calldataload\n        /* \"#utility.yul\":4742:4760   */\n      0xffffffffffffffff\n        /* \"#utility.yul\":4734:4740   */\n      dup2\n        /* \"#utility.yul\":4731:4761   */\n      gt\n        /* \"#utility.yul\":4728:4845   */\n      iszero\n      tag_202\n      jumpi\n        /* \"#utility.yul\":4764:4843   */\n      tag_203\n      tag_188\n      jump\t// in\n    tag_203:\n        /* \"#utility.yul\":4728:4845   */\n    tag_202:\n        /* \"#utility.yul\":4869:4932   */\n      tag_204\n        /* \"#utility.yul\":4924:4931   */\n      dup13\n        /* \"#utility.yul\":4915:4921   */\n      dup3\n        /* \"#utility.yul\":4904:4913   */\n      dup14\n        /* \"#utility.yul\":4900:4922   */\n      add\n        /* \"#utility.yul\":4869:4932   */\n      tag_154\n      jump\t// in\n    tag_204:\n        /* \"#utility.yul\":4859:4932   */\n      swap5\n      pop\n        /* \"#utility.yul\":4653:4942   */\n      pop\n        /* \"#utility.yul\":5009:5012   */\n      0xc0\n        /* \"#utility.yul\":4998:5007   */\n      dup11\n        /* \"#utility.yul\":4994:5013   */\n      add\n        /* \"#utility.yul\":4981:5014   */\n      calldataload\n        /* \"#utility.yul\":5041:5059   */\n      0xffffffffffffffff\n        /* \"#utility.yul\":5033:5039   */\n      dup2\n        /* \"#utility.yul\":5030:5060   */\n      gt\n        /* \"#utility.yul\":5027:5144   */\n      iszero\n      tag_205\n      jumpi\n        /* \"#utility.yul\":5063:5142   */\n      tag_206\n      tag_188\n      jump\t// in\n    tag_206:\n        /* \"#utility.yul\":5027:5144   */\n    tag_205:\n        /* \"#utility.yul\":5168:5256   */\n      tag_207\n        /* \"#utility.yul\":5248:5255   */\n      dup13\n        /* \"#utility.yul\":5239:5245   */\n      dup3\n        /* \"#utility.yul\":5228:5237   */\n      dup14\n        /* \"#utility.yul\":5224:5246   */\n      add\n        /* \"#utility.yul\":5168:5256   */\n      tag_169\n      jump\t// in\n    tag_207:\n        /* \"#utility.yul\":5158:5256   */\n      swap4\n      pop\n        /* \"#utility.yul\":4952:5266   */\n      pop\n        /* \"#utility.yul\":5333:5336   */\n      0xe0\n        /* \"#utility.yul\":5322:5331   */\n      dup11\n        /* \"#utility.yul\":5318:5337   */\n      add\n        /* \"#utility.yul\":5305:5338   */\n      calldataload\n        /* \"#utility.yul\":5365:5383   */\n      0xffffffffffffffff\n        /* \"#utility.yul\":5357:5363   */\n      dup2\n        /* \"#utility.yul\":5354:5384   */\n      gt\n        /* \"#utility.yul\":5351:5468   */\n      iszero\n      tag_208\n      jumpi\n        /* \"#utility.yul\":5387:5466   */\n      tag_209\n      tag_188\n      jump\t// in\n    tag_209:\n        /* \"#utility.yul\":5351:5468   */\n    tag_208:\n        /* \"#utility.yul\":5492:5580   */\n      tag_210\n        /* \"#utility.yul\":5572:5579   */\n      dup13\n        /* \"#utility.yul\":5563:5569   */\n      dup3\n        /* \"#utility.yul\":5552:5561   */\n      dup14\n        /* \"#utility.yul\":5548:5570   */\n      add\n        /* \"#utility.yul\":5492:5580   */\n      tag_169\n      jump\t// in\n    tag_210:\n        /* \"#utility.yul\":5482:5580   */\n      swap3\n      pop\n        /* \"#utility.yul\":5276:5590   */\n      pop\n        /* \"#utility.yul\":5657:5660   */\n      0x0100\n        /* \"#utility.yul\":5646:5655   */\n      dup11\n        /* \"#utility.yul\":5642:5661   */\n      add\n        /* \"#utility.yul\":5629:5662   */\n      calldataload\n        /* \"#utility.yul\":5689:5707   */\n      0xffffffffffffffff\n        /* \"#utility.yul\":5681:5687   */\n      dup2\n        /* \"#utility.yul\":5678:5708   */\n      gt\n        /* \"#utility.yul\":5675:5792   */\n      iszero\n      tag_211\n      jumpi\n        /* \"#utility.yul\":5711:5790   */\n      tag_212\n      tag_188\n      jump\t// in\n    tag_212:\n        /* \"#utility.yul\":5675:5792   */\n    tag_211:\n        /* \"#utility.yul\":5816:5904   */\n      tag_213\n        /* \"#utility.yul\":5896:5903   */\n      dup13\n        /* \"#utility.yul\":5887:5893   */\n      dup3\n        /* \"#utility.yul\":5876:5885   */\n      dup14\n        /* \"#utility.yul\":5872:5894   */\n      add\n        /* \"#utility.yul\":5816:5904   */\n      tag_169\n      jump\t// in\n    tag_213:\n        /* \"#utility.yul\":5806:5904   */\n      swap2\n      pop\n        /* \"#utility.yul\":5600:5914   */\n      pop\n        /* \"#utility.yul\":2656:5921   */\n      swap3\n      swap6\n      swap9\n      pop\n      swap3\n      swap6\n      swap9\n      pop\n      swap3\n      swap6\n      swap9\n      jump\t// out\n        /* \"#utility.yul\":5927:6123   */\n    tag_214:\n        /* \"#utility.yul\":6016:6026   */\n      0x00\n        /* \"#utility.yul\":6051:6117   */\n      tag_216\n        /* \"#utility.yul\":6113:6116   */\n      dup4\n        /* \"#utility.yul\":6105:6111   */\n      dup4\n        /* \"#utility.yul\":6051:6117   */\n      tag_217\n      jump\t// in\n    tag_216:\n        /* \"#utility.yul\":6037:6117   */\n      swap1\n      pop\n        /* \"#utility.yul\":5927:6123   */\n      swap3\n      swap2\n      pop\n      pop\n      jump\t// out\n        /* \"#utility.yul\":6129:6247   */\n    tag_218:\n        /* \"#utility.yul\":6216:6240   */\n      tag_220\n        /* \"#utility.yul\":6234:6239   */\n      dup2\n        /* \"#utility.yul\":6216:6240   */\n      tag_221\n      jump\t// in\n    tag_220:\n        /* \"#utility.yul\":6211:6214   */\n      dup3\n        /* \"#utility.yul\":6204:6241   */\n      mstore\n        /* \"#utility.yul\":6129:6247   */\n      pop\n      pop\n      jump\t// out\n        /* \"#utility.yul\":6281:7272   */\n    tag_222:\n        /* \"#utility.yul\":6420:6423   */\n      0x00\n        /* \"#utility.yul\":6449:6513   */\n      tag_224\n        /* \"#utility.yul\":6507:6512   */\n      dup3\n        /* \"#utility.yul\":6449:6513   */\n      tag_225\n      jump\t// in\n    tag_224:\n        /* \"#utility.yul\":6529:6625   */\n      tag_226\n        /* \"#utility.yul\":6618:6624   */\n      dup2\n        /* \"#utility.yul\":6613:6616   */\n      dup6\n        /* \"#utility.yul\":6529:6625   */\n      tag_227\n      jump\t// in\n    tag_226:\n        /* \"#utility.yul\":6522:6625   */\n      swap4\n      pop\n        /* \"#utility.yul\":6651:6654   */\n      dup4\n        /* \"#utility.yul\":6696:6700   */\n      0x20\n        /* \"#utility.yul\":6688:6694   */\n      dup3\n        /* \"#utility.yul\":6684:6701   */\n      mul\n        /* \"#utility.yul\":6679:6682   */\n      dup6\n        /* \"#utility.yul\":6675:6702   */\n      add\n        /* \"#utility.yul\":6726:6792   */\n      tag_228\n        /* \"#utility.yul\":6786:6791   */\n      dup6\n        /* \"#utility.yul\":6726:6792   */\n      tag_229\n      jump\t// in\n    tag_228:\n        /* \"#utility.yul\":6815:6822   */\n      dup1\n        /* \"#utility.yul\":6846:6847   */\n      0x00\n        /* \"#utility.yul\":6831:7227   */\n    tag_230:\n        /* \"#utility.yul\":6856:6862   */\n      dup6\n        /* \"#utility.yul\":6853:6854   */\n      dup2\n        /* \"#utility.yul\":6850:6863   */\n      lt\n        /* \"#utility.yul\":6831:7227   */\n      iszero\n      tag_232\n      jumpi\n        /* \"#utility.yul\":6927:6936   */\n      dup5\n        /* \"#utility.yul\":6921:6925   */\n      dup5\n        /* \"#utility.yul\":6917:6937   */\n      sub\n        /* \"#utility.yul\":6912:6915   */\n      dup10\n        /* \"#utility.yul\":6905:6938   */\n      mstore\n        /* \"#utility.yul\":6978:6984   */\n      dup2\n        /* \"#utility.yul\":6972:6985   */\n      mload\n        /* \"#utility.yul\":7006:7090   */\n      tag_233\n        /* \"#utility.yul\":7085:7089   */\n      dup6\n        /* \"#utility.yul\":7070:7083   */\n      dup3\n        /* \"#utility.yul\":7006:7090   */\n      tag_214\n      jump\t// in\n    tag_233:\n        /* \"#utility.yul\":6998:7090   */\n      swap5\n      pop\n        /* \"#utility.yul\":7113:7183   */\n      tag_234\n        /* \"#utility.yul\":7176:7182   */\n      dup4\n        /* \"#utility.yul\":7113:7183   */\n      tag_235\n      jump\t// in\n    tag_234:\n        /* \"#utility.yul\":7103:7183   */\n      swap3\n      pop\n        /* \"#utility.yul\":7212:7216   */\n      0x20\n        /* \"#utility.yul\":7207:7210   */\n      dup11\n        /* \"#utility.yul\":7203:7217   */\n      add\n        /* \"#utility.yul\":7196:7217   */\n      swap10\n      pop\n        /* \"#utility.yul\":6891:7227   */\n      pop\n        /* \"#utility.yul\":6878:6879   */\n      0x01\n        /* \"#utility.yul\":6875:6876   */\n      dup2\n        /* \"#utility.yul\":6871:6880   */\n      add\n        /* \"#utility.yul\":6866:6880   */\n      swap1\n      pop\n        /* \"#utility.yul\":6831:7227   */\n      jump(tag_230)\n    tag_232:\n        /* \"#utility.yul\":6835:6849   */\n      pop\n        /* \"#utility.yul\":7243:7247   */\n      dup3\n        /* \"#utility.yul\":7236:7247   */\n      swap8\n      pop\n        /* \"#utility.yul\":7263:7266   */\n      dup8\n        /* \"#utility.yul\":7256:7266   */\n      swap6\n      pop\n        /* \"#utility.yul\":6425:7272   */\n      pop\n      pop\n      pop\n      pop\n      pop\n        /* \"#utility.yul\":6281:7272   */\n      swap3\n      swap2\n      pop\n      pop\n      jump\t// out\n        /* \"#utility.yul\":7278:7622   */\n    tag_217:\n        /* \"#utility.yul\":7356:7359   */\n      0x00\n        /* \"#utility.yul\":7384:7423   */\n      tag_237\n        /* \"#utility.yul\":7417:7422   */\n      dup3\n        /* \"#utility.yul\":7384:7423   */\n      tag_238\n      jump\t// in\n    tag_237:\n        /* \"#utility.yul\":7439:7500   */\n      tag_239\n        /* \"#utility.yul\":7493:7499   */\n      dup2\n        /* \"#utility.yul\":7488:7491   */\n      dup6\n        /* \"#utility.yul\":7439:7500   */\n      tag_240\n      jump\t// in\n    tag_239:\n        /* \"#utility.yul\":7432:7500   */\n      swap4\n      pop\n        /* \"#utility.yul\":7509:7561   */\n      tag_241\n        /* \"#utility.yul\":7554:7560   */\n      dup2\n        /* \"#utility.yul\":7549:7552   */\n      dup6\n        /* \"#utility.yul\":7542:7546   */\n      0x20\n        /* \"#utility.yul\":7535:7540   */\n      dup7\n        /* \"#utility.yul\":7531:7547   */\n      add\n        /* \"#utility.yul\":7509:7561   */\n      tag_242\n      jump\t// in\n    tag_241:\n        /* \"#utility.yul\":7586:7615   */\n      tag_243\n        /* \"#utility.yul\":7608:7614   */\n      dup2\n        /* \"#utility.yul\":7586:7615   */\n      tag_244\n      jump\t// in\n    tag_243:\n        /* \"#utility.yul\":7581:7584   */\n      dup5\n        /* \"#utility.yul\":7577:7616   */\n      add\n        /* \"#utility.yul\":7570:7616   */\n      swap2\n      pop\n        /* \"#utility.yul\":7360:7622   */\n      pop\n        /* \"#utility.yul\":7278:7622   */\n      swap3\n      swap2\n      pop\n      pop\n      jump\t// out\n        /* \"#utility.yul\":7628:7992   */\n    tag_245:\n        /* \"#utility.yul\":7716:7719   */\n      0x00\n        /* \"#utility.yul\":7744:7783   */\n      tag_247\n        /* \"#utility.yul\":7777:7782   */\n      dup3\n        /* \"#utility.yul\":7744:7783   */\n      tag_238\n      jump\t// in\n    tag_247:\n        /* \"#utility.yul\":7799:7870   */\n      tag_248\n        /* \"#utility.yul\":7863:7869   */\n      dup2\n        /* \"#utility.yul\":7858:7861   */\n      dup6\n        /* \"#utility.yul\":7799:7870   */\n      tag_249\n      jump\t// in\n    tag_248:\n        /* \"#utility.yul\":7792:7870   */\n      swap4\n      pop\n        /* \"#utility.yul\":7879:7931   */\n      tag_250\n        /* \"#utility.yul\":7924:7930   */\n      dup2\n        /* \"#utility.yul\":7919:7922   */\n      dup6\n        /* \"#utility.yul\":7912:7916   */\n      0x20\n        /* \"#utility.yul\":7905:7910   */\n      dup7\n        /* \"#utility.yul\":7901:7917   */\n      add\n        /* \"#utility.yul\":7879:7931   */\n      tag_242\n      jump\t// in\n    tag_250:\n        /* \"#utility.yul\":7956:7985   */\n      tag_251\n        /* \"#utility.yul\":7978:7984   */\n      dup2\n        /* \"#utility.yul\":7956:7985   */\n      tag_244\n      jump\t// in\n    tag_251:\n        /* \"#utility.yul\":7951:7954   */\n      dup5\n        /* \"#utility.yul\":7947:7986   */\n      add\n        /* \"#utility.yul\":7940:7986   */\n      swap2\n      pop\n        /* \"#utility.yul\":7720:7992   */\n      pop\n        /* \"#utility.yul\":7628:7992   */\n      swap3\n      swap2\n      pop\n      pop\n      jump\t// out\n        /* \"#utility.yul\":7998:8116   */\n    tag_252:\n        /* \"#utility.yul\":8085:8109   */\n      tag_254\n        /* \"#utility.yul\":8103:8108   */\n      dup2\n        /* \"#utility.yul\":8085:8109   */\n      tag_255\n      jump\t// in\n    tag_254:\n        /* \"#utility.yul\":8080:8083   */\n      dup3\n        /* \"#utility.yul\":8073:8110   */\n      mstore\n        /* \"#utility.yul\":7998:8116   */\n      pop\n      pop\n      jump\t// out\n        /* \"#utility.yul\":8122:9665   */\n    tag_12:\n        /* \"#utility.yul\":8531:8535   */\n      0x00\n        /* \"#utility.yul\":8569:8572   */\n      0x0100\n        /* \"#utility.yul\":8558:8567   */\n      dup3\n        /* \"#utility.yul\":8554:8573   */\n      add\n        /* \"#utility.yul\":8546:8573   */\n      swap1\n      pop\n        /* \"#utility.yul\":8583:8654   */\n      tag_257\n        /* \"#utility.yul\":8651:8652   */\n      0x00\n        /* \"#utility.yul\":8640:8649   */\n      dup4\n        /* \"#utility.yul\":8636:8653   */\n      add\n        /* \"#utility.yul\":8627:8633   */\n      dup12\n        /* \"#utility.yul\":8583:8654   */\n      tag_218\n      jump\t// in\n    tag_257:\n        /* \"#utility.yul\":8701:8710   */\n      dup2\n        /* \"#utility.yul\":8695:8699   */\n      dup2\n        /* \"#utility.yul\":8691:8711   */\n      sub\n        /* \"#utility.yul\":8686:8688   */\n      0x20\n        /* \"#utility.yul\":8675:8684   */\n      dup4\n        /* \"#utility.yul\":8671:8689   */\n      add\n        /* \"#utility.yul\":8664:8712   */\n      mstore\n        /* \"#utility.yul\":8729:8807   */\n      tag_258\n        /* \"#utility.yul\":8802:8806   */\n      dup2\n        /* \"#utility.yul\":8793:8799   */\n      dup11\n        /* \"#utility.yul\":8729:8807   */\n      tag_245\n      jump\t// in\n    tag_258:\n        /* \"#utility.yul\":8721:8807   */\n      swap1\n      pop\n        /* \"#utility.yul\":8854:8863   */\n      dup2\n        /* \"#utility.yul\":8848:8852   */\n      dup2\n        /* \"#utility.yul\":8844:8864   */\n      sub\n        /* \"#utility.yul\":8839:8841   */\n      0x40\n        /* \"#utility.yul\":8828:8837   */\n      dup4\n        /* \"#utility.yul\":8824:8842   */\n      add\n        /* \"#utility.yul\":8817:8865   */\n      mstore\n        /* \"#utility.yul\":8882:8960   */\n      tag_259\n        /* \"#utility.yul\":8955:8959   */\n      dup2\n        /* \"#utility.yul\":8946:8952   */\n      dup10\n        /* \"#utility.yul\":8882:8960   */\n      tag_245\n      jump\t// in\n    tag_259:\n        /* \"#utility.yul\":8874:8960   */\n      swap1\n      pop\n        /* \"#utility.yul\":9007:9016   */\n      dup2\n        /* \"#utility.yul\":9001:9005   */\n      dup2\n        /* \"#utility.yul\":8997:9017   */\n      sub\n        /* \"#utility.yul\":8992:8994   */\n      0x60\n        /* \"#utility.yul\":8981:8990   */\n      dup4\n        /* \"#utility.yul\":8977:8995   */\n      add\n        /* \"#utility.yul\":8970:9018   */\n      mstore\n        /* \"#utility.yul\":9035:9113   */\n      tag_260\n        /* \"#utility.yul\":9108:9112   */\n      dup2\n        /* \"#utility.yul\":9099:9105   */\n      dup9\n        /* \"#utility.yul\":9035:9113   */\n      tag_245\n      jump\t// in\n    tag_260:\n        /* \"#utility.yul\":9027:9113   */\n      swap1\n      pop\n        /* \"#utility.yul\":9161:9170   */\n      dup2\n        /* \"#utility.yul\":9155:9159   */\n      dup2\n        /* \"#utility.yul\":9151:9171   */\n      sub\n        /* \"#utility.yul\":9145:9148   */\n      0x80\n        /* \"#utility.yul\":9134:9143   */\n      dup4\n        /* \"#utility.yul\":9130:9149   */\n      add\n        /* \"#utility.yul\":9123:9172   */\n      mstore\n        /* \"#utility.yul\":9189:9267   */\n      tag_261\n        /* \"#utility.yul\":9262:9266   */\n      dup2\n        /* \"#utility.yul\":9253:9259   */\n      dup8\n        /* \"#utility.yul\":9189:9267   */\n      tag_245\n      jump\t// in\n    tag_261:\n        /* \"#utility.yul\":9181:9267   */\n      swap1\n      pop\n        /* \"#utility.yul\":9315:9324   */\n      dup2\n        /* \"#utility.yul\":9309:9313   */\n      dup2\n        /* \"#utility.yul\":9305:9325   */\n      sub\n        /* \"#utility.yul\":9299:9302   */\n      0xa0\n        /* \"#utility.yul\":9288:9297   */\n      dup4\n        /* \"#utility.yul\":9284:9303   */\n      add\n        /* \"#utility.yul\":9277:9326   */\n      mstore\n        /* \"#utility.yul\":9343:9421   */\n      tag_262\n        /* \"#utility.yul\":9416:9420   */\n      dup2\n        /* \"#utility.yul\":9407:9413   */\n      dup7\n        /* \"#utility.yul\":9343:9421   */\n      tag_245\n      jump\t// in\n    tag_262:\n        /* \"#utility.yul\":9335:9421   */\n      swap1\n      pop\n        /* \"#utility.yul\":9469:9478   */\n      dup2\n        /* \"#utility.yul\":9463:9467   */\n      dup2\n        /* \"#utility.yul\":9459:9479   */\n      sub\n        /* \"#utility.yul\":9453:9456   */\n      0xc0\n        /* \"#utility.yul\":9442:9451   */\n      dup4\n        /* \"#utility.yul\":9438:9457   */\n      add\n        /* \"#utility.yul\":9431:9480   */\n      mstore\n        /* \"#utility.yul\":9497:9575   */\n      tag_263\n        /* \"#utility.yul\":9570:9574   */\n      dup2\n        /* \"#utility.yul\":9561:9567   */\n      dup6\n        /* \"#utility.yul\":9497:9575   */\n      tag_245\n      jump\t// in\n    tag_263:\n        /* \"#utility.yul\":9489:9575   */\n      swap1\n      pop\n        /* \"#utility.yul\":9585:9658   */\n      tag_264\n        /* \"#utility.yul\":9653:9656   */\n      0xe0\n        /* \"#utility.yul\":9642:9651   */\n      dup4\n        /* \"#utility.yul\":9638:9657   */\n      add\n        /* \"#utility.yul\":9629:9635   */\n      dup5\n        /* \"#utility.yul\":9585:9658   */\n      tag_252\n      jump\t// in\n    tag_264:\n        /* \"#utility.yul\":8122:9665   */\n      swap10\n      swap9\n      pop\n      pop\n      pop\n      pop\n      pop\n      pop\n      pop\n      pop\n      pop\n      jump\t// out\n        /* \"#utility.yul\":9671:10084   */\n    tag_16:\n        /* \"#utility.yul\":9834:9838   */\n      0x00\n        /* \"#utility.yul\":9872:9874   */\n      0x20\n        /* \"#utility.yul\":9861:9870   */\n      dup3\n        /* \"#utility.yul\":9857:9875   */\n      add\n        /* \"#utility.yul\":9849:9875   */\n      swap1\n      pop\n        /* \"#utility.yul\":9921:9930   */\n      dup2\n        /* \"#utility.yul\":9915:9919   */\n      dup2\n        /* \"#utility.yul\":9911:9931   */\n      sub\n        /* \"#utility.yul\":9907:9908   */\n      0x00\n        /* \"#utility.yul\":9896:9905   */\n      dup4\n        /* \"#utility.yul\":9892:9909   */\n      add\n        /* \"#utility.yul\":9885:9932   */\n      mstore\n        /* \"#utility.yul\":9949:10077   */\n      tag_266\n        /* \"#utility.yul\":10072:10076   */\n      dup2\n        /* \"#utility.yul\":10063:10069   */\n      dup5\n        /* \"#utility.yul\":9949:10077   */\n      tag_222\n      jump\t// in\n    tag_266:\n        /* \"#utility.yul\":9941:10077   */\n      swap1\n      pop\n        /* \"#utility.yul\":9671:10084   */\n      swap3\n      swap2\n      pop\n      pop\n      jump\t// out\n        /* \"#utility.yul\":10090:10219   */\n    tag_143:\n        /* \"#utility.yul\":10124:10130   */\n      0x00\n        /* \"#utility.yul\":10151:10171   */\n      tag_268\n      tag_269\n      jump\t// in\n    tag_268:\n        /* \"#utility.yul\":10141:10171   */\n      swap1\n      pop\n        /* \"#utility.yul\":10180:10213   */\n      tag_270\n        /* \"#utility.yul\":10208:10212   */\n      dup3\n        /* \"#utility.yul\":10200:10206   */\n      dup3\n        /* \"#utility.yul\":10180:10213   */\n      tag_271\n      jump\t// in\n    tag_270:\n        /* \"#utility.yul\":10090:10219   */\n      swap2\n      swap1\n      pop\n      jump\t// out\n        /* \"#utility.yul\":10225:10300   */\n    tag_269:\n        /* \"#utility.yul\":10258:10264   */\n      0x00\n        /* \"#utility.yul\":10291:10293   */\n      0x40\n        /* \"#utility.yul\":10285:10294   */\n      mload\n        /* \"#utility.yul\":10275:10294   */\n      swap1\n      pop\n        /* \"#utility.yul\":10225:10300   */\n      swap1\n      jump\t// out\n        /* \"#utility.yul\":10306:10627   */\n    tag_142:\n        /* \"#utility.yul\":10393:10397   */\n      0x00\n        /* \"#utility.yul\":10483:10501   */\n      0xffffffffffffffff\n        /* \"#utility.yul\":10475:10481   */\n      dup3\n        /* \"#utility.yul\":10472:10502   */\n      gt\n        /* \"#utility.yul\":10469:10525   */\n      iszero\n      tag_274\n      jumpi\n        /* \"#utility.yul\":10505:10523   */\n      tag_275\n      tag_276\n      jump\t// in\n    tag_275:\n        /* \"#utility.yul\":10469:10525   */\n    tag_274:\n        /* \"#utility.yul\":10555:10559   */\n      0x20\n        /* \"#utility.yul\":10547:10553   */\n      dup3\n        /* \"#utility.yul\":10543:10560   */\n      mul\n        /* \"#utility.yul\":10535:10560   */\n      swap1\n      pop\n        /* \"#utility.yul\":10615:10619   */\n      0x20\n        /* \"#utility.yul\":10609:10613   */\n      dup2\n        /* \"#utility.yul\":10605:10620   */\n      add\n        /* \"#utility.yul\":10597:10620   */\n      swap1\n      pop\n        /* \"#utility.yul\":10306:10627   */\n      swap2\n      swap1\n      pop\n      jump\t// out\n        /* \"#utility.yul\":10633:10941   */\n    tag_159:\n        /* \"#utility.yul\":10695:10699   */\n      0x00\n        /* \"#utility.yul\":10785:10803   */\n      0xffffffffffffffff\n        /* \"#utility.yul\":10777:10783   */\n      dup3\n        /* \"#utility.yul\":10774:10804   */\n      gt\n        /* \"#utility.yul\":10771:10827   */\n      iszero\n      tag_278\n      jumpi\n        /* \"#utility.yul\":10807:10825   */\n      tag_279\n      tag_276\n      jump\t// in\n    tag_279:\n        /* \"#utility.yul\":10771:10827   */\n    tag_278:\n        /* \"#utility.yul\":10845:10874   */\n      tag_280\n        /* \"#utility.yul\":10867:10873   */\n      dup3\n        /* \"#utility.yul\":10845:10874   */\n      tag_244\n      jump\t// in\n    tag_280:\n        /* \"#utility.yul\":10837:10874   */\n      swap1\n      pop\n        /* \"#utility.yul\":10929:10933   */\n      0x20\n        /* \"#utility.yul\":10923:10927   */\n      dup2\n        /* \"#utility.yul\":10919:10934   */\n      add\n        /* \"#utility.yul\":10911:10934   */\n      swap1\n      pop\n        /* \"#utility.yul\":10633:10941   */\n      swap2\n      swap1\n      pop\n      jump\t// out\n        /* \"#utility.yul\":10947:11089   */\n    tag_229:\n        /* \"#utility.yul\":11024:11028   */\n      0x00\n        /* \"#utility.yul\":11047:11050   */\n      dup2\n        /* \"#utility.yul\":11039:11050   */\n      swap1\n      pop\n        /* \"#utility.yul\":11077:11081   */\n      0x20\n        /* \"#utility.yul\":11072:11075   */\n      dup3\n        /* \"#utility.yul\":11068:11082   */\n      add\n        /* \"#utility.yul\":11060:11082   */\n      swap1\n      pop\n        /* \"#utility.yul\":10947:11089   */\n      swap2\n      swap1\n      pop\n      jump\t// out\n        /* \"#utility.yul\":11095:11219   */\n    tag_225:\n        /* \"#utility.yul\":11172:11178   */\n      0x00\n        /* \"#utility.yul\":11206:11211   */\n      dup2\n        /* \"#utility.yul\":11200:11212   */\n      mload\n        /* \"#utility.yul\":11190:11212   */\n      swap1\n      pop\n        /* \"#utility.yul\":11095:11219   */\n      swap2\n      swap1\n      pop\n      jump\t// out\n        /* \"#utility.yul\":11225:11324   */\n    tag_238:\n        /* \"#utility.yul\":11277:11283   */\n      0x00\n        /* \"#utility.yul\":11311:11316   */\n      dup2\n        /* \"#utility.yul\":11305:11317   */\n      mload\n        /* \"#utility.yul\":11295:11317   */\n      swap1\n      pop\n        /* \"#utility.yul\":11225:11324   */\n      swap2\n      swap1\n      pop\n      jump\t// out\n        /* \"#utility.yul\":11330:11453   */\n    tag_235:\n        /* \"#utility.yul\":11410:11414   */\n      0x00\n        /* \"#utility.yul\":11442:11446   */\n      0x20\n        /* \"#utility.yul\":11437:11440   */\n      dup3\n        /* \"#utility.yul\":11433:11447   */\n      add\n        /* \"#utility.yul\":11425:11447   */\n      swap1\n      pop\n        /* \"#utility.yul\":11330:11453   */\n      swap2\n      swap1\n      pop\n      jump\t// out\n        /* \"#utility.yul\":11459:11653   */\n    tag_227:\n        /* \"#utility.yul\":11568:11579   */\n      0x00\n        /* \"#utility.yul\":11602:11608   */\n      dup3\n        /* \"#utility.yul\":11597:11600   */\n      dup3\n        /* \"#utility.yul\":11590:11609   */\n      mstore\n        /* \"#utility.yul\":11642:11646   */\n      0x20\n        /* \"#utility.yul\":11637:11640   */\n      dup3\n        /* \"#utility.yul\":11633:11647   */\n      add\n        /* \"#utility.yul\":11618:11647   */\n      swap1\n      pop\n        /* \"#utility.yul\":11459:11653   */\n      swap3\n      swap2\n      pop\n      pop\n      jump\t// out\n        /* \"#utility.yul\":11659:11818   */\n    tag_240:\n        /* \"#utility.yul\":11733:11744   */\n      0x00\n        /* \"#utility.yul\":11767:11773   */\n      dup3\n        /* \"#utility.yul\":11762:11765   */\n      dup3\n        /* \"#utility.yul\":11755:11774   */\n      mstore\n        /* \"#utility.yul\":11807:11811   */\n      0x20\n        /* \"#utility.yul\":11802:11805   */\n      dup3\n        /* \"#utility.yul\":11798:11812   */\n      add\n        /* \"#utility.yul\":11783:11812   */\n      swap1\n      pop\n        /* \"#utility.yul\":11659:11818   */\n      swap3\n      swap2\n      pop\n      pop\n      jump\t// out\n        /* \"#utility.yul\":11824:11993   */\n    tag_249:\n        /* \"#utility.yul\":11908:11919   */\n      0x00\n        /* \"#utility.yul\":11942:11948   */\n      dup3\n        /* \"#utility.yul\":11937:11940   */\n      dup3\n        /* \"#utility.yul\":11930:11949   */\n      mstore\n        /* \"#utility.yul\":11982:11986   */\n      0x20\n        /* \"#utility.yul\":11977:11980   */\n      dup3\n        /* \"#utility.yul\":11973:11987   */\n      add\n        /* \"#utility.yul\":11958:11987   */\n      swap1\n      pop\n        /* \"#utility.yul\":11824:11993   */\n      swap3\n      swap2\n      pop\n      pop\n      jump\t// out\n        /* \"#utility.yul\":11999:12095   */\n    tag_221:\n        /* \"#utility.yul\":12036:12043   */\n      0x00\n        /* \"#utility.yul\":12065:12089   */\n      tag_289\n        /* \"#utility.yul\":12083:12088   */\n      dup3\n        /* \"#utility.yul\":12065:12089   */\n      tag_290\n      jump\t// in\n    tag_289:\n        /* \"#utility.yul\":12054:12089   */\n      swap1\n      pop\n        /* \"#utility.yul\":11999:12095   */\n      swap2\n      swap1\n      pop\n      jump\t// out\n        /* \"#utility.yul\":12101:12227   */\n    tag_290:\n        /* \"#utility.yul\":12138:12145   */\n      0x00\n        /* \"#utility.yul\":12178:12220   */\n      0xffffffffffffffffffffffffffffffffffffffff\n        /* \"#utility.yul\":12171:12176   */\n      dup3\n        /* \"#utility.yul\":12167:12221   */\n      and\n        /* \"#utility.yul\":12156:12221   */\n      swap1\n      pop\n        /* \"#utility.yul\":12101:12227   */\n      swap2\n      swap1\n      pop\n      jump\t// out\n        /* \"#utility.yul\":12233:12310   */\n    tag_255:\n        /* \"#utility.yul\":12270:12277   */\n      0x00\n        /* \"#utility.yul\":12299:12304   */\n      dup2\n        /* \"#utility.yul\":12288:12304   */\n      swap1\n      pop\n        /* \"#utility.yul\":12233:12310   */\n      swap2\n      swap1\n      pop\n      jump\t// out\n        /* \"#utility.yul\":12316:12402   */\n    tag_293:\n        /* \"#utility.yul\":12351:12358   */\n      0x00\n        /* \"#utility.yul\":12391:12395   */\n      0xff\n        /* \"#utility.yul\":12384:12389   */\n      dup3\n        /* \"#utility.yul\":12380:12396   */\n      and\n        /* \"#utility.yul\":12369:12396   */\n      swap1\n      pop\n        /* \"#utility.yul\":12316:12402   */\n      swap2\n      swap1\n      pop\n      jump\t// out\n        /* \"#utility.yul\":12408:12562   */\n    tag_164:\n        /* \"#utility.yul\":12492:12498   */\n      dup3\n        /* \"#utility.yul\":12487:12490   */\n      dup2\n        /* \"#utility.yul\":12482:12485   */\n      dup4\n        /* \"#utility.yul\":12469:12499   */\n      calldatacopy\n        /* \"#utility.yul\":12554:12555   */\n      0x00\n        /* \"#utility.yul\":12545:12551   */\n      dup4\n        /* \"#utility.yul\":12540:12543   */\n      dup4\n        /* \"#utility.yul\":12536:12552   */\n      add\n        /* \"#utility.yul\":12529:12556   */\n      mstore\n        /* \"#utility.yul\":12408:12562   */\n      pop\n      pop\n      pop\n      jump\t// out\n        /* \"#utility.yul\":12568:12875   */\n    tag_242:\n        /* \"#utility.yul\":12636:12637   */\n      0x00\n        /* \"#utility.yul\":12646:12759   */\n    tag_297:\n        /* \"#utility.yul\":12660:12666   */\n      dup4\n        /* \"#utility.yul\":12657:12658   */\n      dup2\n        /* \"#utility.yul\":12654:12667   */\n      lt\n        /* \"#utility.yul\":12646:12759   */\n      iszero\n      tag_299\n      jumpi\n        /* \"#utility.yul\":12745:12746   */\n      dup1\n        /* \"#utility.yul\":12740:12743   */\n      dup3\n        /* \"#utility.yul\":12736:12747   */\n      add\n        /* \"#utility.yul\":12730:12748   */\n      mload\n        /* \"#utility.yul\":12726:12727   */\n      dup2\n        /* \"#utility.yul\":12721:12724   */\n      dup5\n        /* \"#utility.yul\":12717:12728   */\n      add\n        /* \"#utility.yul\":12710:12749   */\n      mstore\n        /* \"#utility.yul\":12682:12684   */\n      0x20\n        /* \"#utility.yul\":12679:12680   */\n      dup2\n        /* \"#utility.yul\":12675:12685   */\n      add\n        /* \"#utility.yul\":12670:12685   */\n      swap1\n      pop\n        /* \"#utility.yul\":12646:12759   */\n      jump(tag_297)\n    tag_299:\n        /* \"#utility.yul\":12777:12783   */\n      dup4\n        /* \"#utility.yul\":12774:12775   */\n      dup2\n        /* \"#utility.yul\":12771:12784   */\n      gt\n        /* \"#utility.yul\":12768:12869   */\n      iszero\n      tag_300\n      jumpi\n        /* \"#utility.yul\":12857:12858   */\n      0x00\n        /* \"#utility.yul\":12848:12854   */\n      dup5\n        /* \"#utility.yul\":12843:12846   */\n      dup5\n        /* \"#utility.yul\":12839:12855   */\n      add\n        /* \"#utility.yul\":12832:12859   */\n      mstore\n        /* \"#utility.yul\":12768:12869   */\n    tag_300:\n        /* \"#utility.yul\":12617:12875   */\n      pop\n        /* \"#utility.yul\":12568:12875   */\n      pop\n      pop\n      pop\n      jump\t// out\n        /* \"#utility.yul\":12881:13201   */\n    tag_24:\n        /* \"#utility.yul\":12925:12931   */\n      0x00\n        /* \"#utility.yul\":12962:12963   */\n      0x02\n        /* \"#utility.yul\":12956:12960   */\n      dup3\n        /* \"#utility.yul\":12952:12964   */\n      div\n        /* \"#utility.yul\":12942:12964   */\n      swap1\n      pop\n        /* \"#utility.yul\":13009:13010   */\n      0x01\n        /* \"#utility.yul\":13003:13007   */\n      dup3\n        /* \"#utility.yul\":12999:13011   */\n      and\n        /* \"#utility.yul\":13030:13048   */\n      dup1\n        /* \"#utility.yul\":13020:13101   */\n      tag_302\n      jumpi\n        /* \"#utility.yul\":13086:13090   */\n      0x7f\n        /* \"#utility.yul\":13078:13084   */\n      dup3\n        /* \"#utility.yul\":13074:13091   */\n      and\n        /* \"#utility.yul\":13064:13091   */\n      swap2\n      pop\n        /* \"#utility.yul\":13020:13101   */\n    tag_302:\n        /* \"#utility.yul\":13148:13150   */\n      0x20\n        /* \"#utility.yul\":13140:13146   */\n      dup3\n        /* \"#utility.yul\":13137:13151   */\n      lt\n        /* \"#utility.yul\":13117:13135   */\n      dup2\n        /* \"#utility.yul\":13114:13152   */\n      eq\n        /* \"#utility.yul\":13111:13195   */\n      iszero\n      tag_303\n      jumpi\n        /* \"#utility.yul\":13167:13185   */\n      tag_304\n      tag_305\n      jump\t// in\n    tag_304:\n        /* \"#utility.yul\":13111:13195   */\n    tag_303:\n        /* \"#utility.yul\":12932:13201   */\n      pop\n        /* \"#utility.yul\":12881:13201   */\n      swap2\n      swap1\n      pop\n      jump\t// out\n        /* \"#utility.yul\":13207:13488   */\n    tag_271:\n        /* \"#utility.yul\":13290:13317   */\n      tag_307\n        /* \"#utility.yul\":13312:13316   */\n      dup3\n        /* \"#utility.yul\":13290:13317   */\n      tag_244\n      jump\t// in\n    tag_307:\n        /* \"#utility.yul\":13282:13288   */\n      dup2\n        /* \"#utility.yul\":13278:13318   */\n      add\n        /* \"#utility.yul\":13420:13426   */\n      dup2\n        /* \"#utility.yul\":13408:13418   */\n      dup2\n        /* \"#utility.yul\":13405:13427   */\n      lt\n        /* \"#utility.yul\":13384:13402   */\n      0xffffffffffffffff\n        /* \"#utility.yul\":13372:13382   */\n      dup3\n        /* \"#utility.yul\":13369:13403   */\n      gt\n        /* \"#utility.yul\":13366:13428   */\n      or\n        /* \"#utility.yul\":13363:13451   */\n      iszero\n      tag_308\n      jumpi\n        /* \"#utility.yul\":13431:13449   */\n      tag_309\n      tag_276\n      jump\t// in\n    tag_309:\n        /* \"#utility.yul\":13363:13451   */\n    tag_308:\n        /* \"#utility.yul\":13471:13481   */\n      dup1\n        /* \"#utility.yul\":13467:13469   */\n      0x40\n        /* \"#utility.yul\":13460:13482   */\n      mstore\n        /* \"#utility.yul\":13250:13488   */\n      pop\n        /* \"#utility.yul\":13207:13488   */\n      pop\n      pop\n      jump\t// out\n        /* \"#utility.yul\":13494:13661   */\n    tag_98:\n        /* \"#utility.yul\":13531:13534   */\n      0x00\n        /* \"#utility.yul\":13554:13576   */\n      tag_311\n        /* \"#utility.yul\":13570:13575   */\n      dup3\n        /* \"#utility.yul\":13554:13576   */\n      tag_293\n      jump\t// in\n    tag_311:\n        /* \"#utility.yul\":13545:13576   */\n      swap2\n      pop\n        /* \"#utility.yul\":13598:13602   */\n      0xff\n        /* \"#utility.yul\":13591:13596   */\n      dup3\n        /* \"#utility.yul\":13588:13603   */\n      eq\n        /* \"#utility.yul\":13585:13626   */\n      iszero\n      tag_312\n      jumpi\n        /* \"#utility.yul\":13606:13624   */\n      tag_313\n      tag_314\n      jump\t// in\n    tag_313:\n        /* \"#utility.yul\":13585:13626   */\n    tag_312:\n        /* \"#utility.yul\":13653:13654   */\n      0x01\n        /* \"#utility.yul\":13646:13651   */\n      dup3\n        /* \"#utility.yul\":13642:13655   */\n      add\n        /* \"#utility.yul\":13635:13655   */\n      swap1\n      pop\n        /* \"#utility.yul\":13494:13661   */\n      swap2\n      swap1\n      pop\n      jump\t// out\n        /* \"#utility.yul\":13667:13847   */\n    tag_314:\n        /* \"#utility.yul\":13715:13792   */\n      0x4e487b7100000000000000000000000000000000000000000000000000000000\n        /* \"#utility.yul\":13712:13713   */\n      0x00\n        /* \"#utility.yul\":13705:13793   */\n      mstore\n        /* \"#utility.yul\":13812:13816   */\n      0x11\n        /* \"#utility.yul\":13809:13810   */\n      0x04\n        /* \"#utility.yul\":13802:13817   */\n      mstore\n        /* \"#utility.yul\":13836:13840   */\n      0x24\n        /* \"#utility.yul\":13833:13834   */\n      0x00\n        /* \"#utility.yul\":13826:13841   */\n      revert\n        /* \"#utility.yul\":13853:14033   */\n    tag_305:\n        /* \"#utility.yul\":13901:13978   */\n      0x4e487b7100000000000000000000000000000000000000000000000000000000\n        /* \"#utility.yul\":13898:13899   */\n      0x00\n        /* \"#utility.yul\":13891:13979   */\n      mstore\n        /* \"#utility.yul\":13998:14002   */\n      0x22\n        /* \"#utility.yul\":13995:13996   */\n      0x04\n        /* \"#utility.yul\":13988:14003   */\n      mstore\n        /* \"#utility.yul\":14022:14026   */\n      0x24\n        /* \"#utility.yul\":14019:14020   */\n      0x00\n        /* \"#utility.yul\":14012:14027   */\n      revert\n        /* \"#utility.yul\":14039:14219   */\n    tag_94:\n        /* \"#utility.yul\":14087:14164   */\n      0x4e487b7100000000000000000000000000000000000000000000000000000000\n        /* \"#utility.yul\":14084:14085   */\n      0x00\n        /* \"#utility.yul\":14077:14165   */\n      mstore\n        /* \"#utility.yul\":14184:14188   */\n      0x32\n        /* \"#utility.yul\":14181:14182   */\n      0x04\n        /* \"#utility.yul\":14174:14189   */\n      mstore\n        /* \"#utility.yul\":14208:14212   */\n      0x24\n        /* \"#utility.yul\":14205:14206   */\n      0x00\n        /* \"#utility.yul\":14198:14213   */\n      revert\n        /* \"#utility.yul\":14225:14405   */\n    tag_276:\n        /* \"#utility.yul\":14273:14350   */\n      0x4e487b7100000000000000000000000000000000000000000000000000000000\n        /* \"#utility.yul\":14270:14271   */\n      0x00\n        /* \"#utility.yul\":14263:14351   */\n      mstore\n        /* \"#utility.yul\":14370:14374   */\n      0x41\n        /* \"#utility.yul\":14367:14368   */\n      0x04\n        /* \"#utility.yul\":14360:14375   */\n      mstore\n        /* \"#utility.yul\":14394:14398   */\n      0x24\n        /* \"#utility.yul\":14391:14392   */\n      0x00\n        /* \"#utility.yul\":14384:14399   */\n      revert\n        /* \"#utility.yul\":14411:14528   */\n    tag_152:\n        /* \"#utility.yul\":14520:14521   */\n      0x00\n        /* \"#utility.yul\":14517:14518   */\n      dup1\n        /* \"#utility.yul\":14510:14522   */\n      revert\n        /* \"#utility.yul\":14534:14651   */\n    tag_146:\n        /* \"#utility.yul\":14643:14644   */\n      0x00\n        /* \"#utility.yul\":14640:14641   */\n      dup1\n        /* \"#utility.yul\":14633:14645   */\n      revert\n        /* \"#utility.yul\":14657:14774   */\n    tag_162:\n        /* \"#utility.yul\":14766:14767   */\n      0x00\n        /* \"#utility.yul\":14763:14764   */\n      dup1\n        /* \"#utility.yul\":14756:14768   */\n      revert\n        /* \"#utility.yul\":14780:14897   */\n    tag_188:\n        /* \"#utility.yul\":14889:14890   */\n      0x00\n        /* \"#utility.yul\":14886:14887   */\n      dup1\n        /* \"#utility.yul\":14879:14891   */\n      revert\n        /* \"#utility.yul\":14903:15020   */\n    tag_181:\n        /* \"#utility.yul\":15012:15013   */\n      0x00\n        /* \"#utility.yul\":15009:15010   */\n      dup1\n        /* \"#utility.yul\":15002:15014   */\n      revert\n        /* \"#utility.yul\":15026:15128   */\n    tag_244:\n        /* \"#utility.yul\":15067:15073   */\n      0x00\n        /* \"#utility.yul\":15118:15120   */\n      0x1f\n        /* \"#utility.yul\":15114:15121   */\n      not\n        /* \"#utility.yul\":15109:15111   */\n      0x1f\n        /* \"#utility.yul\":15102:15107   */\n      dup4\n        /* \"#utility.yul\":15098:15112   */\n      add\n        /* \"#utility.yul\":15094:15122   */\n      and\n        /* \"#utility.yul\":15084:15122   */\n      swap1\n      pop\n        /* \"#utility.yul\":15026:15128   */\n      swap2\n      swap1\n      pop\n      jump\t// out\n        /* \"#utility.yul\":15134:15256   */\n    tag_168:\n        /* \"#utility.yul\":15207:15231   */\n      tag_326\n        /* \"#utility.yul\":15225:15230   */\n      dup2\n        /* \"#utility.yul\":15207:15231   */\n      tag_221\n      jump\t// in\n    tag_326:\n        /* \"#utility.yul\":15200:15205   */\n      dup2\n        /* \"#utility.yul\":15197:15232   */\n      eq\n        /* \"#utility.yul\":15187:15250   */\n      tag_327\n      jumpi\n        /* \"#utility.yul\":15246:15247   */\n      0x00\n        /* \"#utility.yul\":15243:15244   */\n      dup1\n        /* \"#utility.yul\":15236:15248   */\n      revert\n        /* \"#utility.yul\":15187:15250   */\n    tag_327:\n        /* \"#utility.yul\":15134:15256   */\n      pop\n      jump\t// out\n\n    auxdata: 0xa2646970667358221220013c3adf13640d07c0be249a157602442a0cdfd586c0e12b0dc8a962160ba4cb64736f6c63430008070033\n}\n",
				"bytecode": {
					"linkReferences": {},
					"object": "608060405234801561001057600080fd5b50611542806100206000396000f3fe608060405234801561001057600080fd5b506004361061004c5760003560e01c80639dd9d0fd14610051578063b08026ea14610088578063ca679f1d146100a6578063fabce08f146100c2575b600080fd5b61006b60048036038101906100669190610e39565b6100cc565b60405161007f989796959493929190611145565b60405180910390f35b610090610464565b60405161009d91906111ed565b60405180910390f35b6100c060048036038101906100bb9190610e66565b61057c565b005b6100ca610872565b005b60006020528060005260406000206000915090508060000160009054906101000a900473ffffffffffffffffffffffffffffffffffffffff169080600101805461011590611382565b80601f016020809104026020016040519081016040528092919081815260200182805461014190611382565b801561018e5780601f106101635761010080835404028352916020019161018e565b820191906000526020600020905b81548152906001019060200180831161017157829003601f168201915b5050505050908060020180546101a390611382565b80601f01602080910402602001604051908101604052809291908181526020018280546101cf90611382565b801561021c5780601f106101f15761010080835404028352916020019161021c565b820191906000526020600020905b8154815290600101906020018083116101ff57829003601f168201915b50505050509080600301805461023190611382565b80601f016020809104026020016040519081016040528092919081815260200182805461025d90611382565b80156102aa5780601f1061027f576101008083540402835291602001916102aa565b820191906000526020600020905b81548152906001019060200180831161028d57829003601f168201915b5050505050908060040180546102bf90611382565b80601f01602080910402602001604051908101604052809291908181526020018280546102eb90611382565b80156103385780601f1061030d57610100808354040283529160200191610338565b820191906000526020600020905b81548152906001019060200180831161031b57829003601f168201915b50505050509080600501805461034d90611382565b80601f016020809104026020016040519081016040528092919081815260200182805461037990611382565b80156103c65780601f1061039b576101008083540402835291602001916103c6565b820191906000526020600020905b8154815290600101906020018083116103a957829003601f168201915b5050505050908060060180546103db90611382565b80601f016020809104026020016040519081016040528092919081815260200182805461040790611382565b80156104545780601f1061042957610100808354040283529160200191610454565b820191906000526020600020905b81548152906001019060200180831161043757829003601f168201915b5050505050908060070154905088565b60606000803373ffffffffffffffffffffffffffffffffffffffff1673ffffffffffffffffffffffffffffffffffffffff168152602001908152602001600020600801805480602002602001604051908101604052809291908181526020016000905b828210156105735783829060005260206000200180546104e690611382565b80601f016020809104026020016040519081016040528092919081815260200182805461051290611382565b801561055f5780601f106105345761010080835404028352916020019161055f565b820191906000526020600020905b81548152906001019060200180831161054257829003601f168201915b5050505050815260200190600101906104c7565b50505050905090565b886000803373ffffffffffffffffffffffffffffffffffffffff1673ffffffffffffffffffffffffffffffffffffffff16815260200190815260200160002060010190805190602001906105d1929190610bd0565b50876000803373ffffffffffffffffffffffffffffffffffffffff1673ffffffffffffffffffffffffffffffffffffffff1681526020019081526020016000206002019080519060200190610627929190610bd0565b50866000803373ffffffffffffffffffffffffffffffffffffffff1673ffffffffffffffffffffffffffffffffffffffff168152602001908152602001600020600301908051906020019061067d929190610bd0565b50856000803373ffffffffffffffffffffffffffffffffffffffff1673ffffffffffffffffffffffffffffffffffffffff16815260200190815260200160002060040190805190602001906106d3929190610bd0565b50846000803373ffffffffffffffffffffffffffffffffffffffff1673ffffffffffffffffffffffffffffffffffffffff1681526020019081526020016000206005019080519060200190610729929190610bd0565b50836000803373ffffffffffffffffffffffffffffffffffffffff1673ffffffffffffffffffffffffffffffffffffffff168152602001908152602001600020600601908051906020019061077f929190610bd0565b50336000803373ffffffffffffffffffffffffffffffffffffffff1673ffffffffffffffffffffffffffffffffffffffff16815260200190815260200160002060000160006101000a81548173ffffffffffffffffffffffffffffffffffffffff021916908373ffffffffffffffffffffffffffffffffffffffff160217905550426000803373ffffffffffffffffffffffffffffffffffffffff1673ffffffffffffffffffffffffffffffffffffffff16815260200190815260200160002060070181905550610851836000610974565b61085c826001610974565b610867816002610974565b505050505050505050565b6000803373ffffffffffffffffffffffffffffffffffffffff1673ffffffffffffffffffffffffffffffffffffffff168152602001908152602001600020600080820160006101000a81549073ffffffffffffffffffffffffffffffffffffffff02191690556001820160006108e89190610c56565b6002820160006108f89190610c56565b6003820160006109089190610c56565b6004820160006109189190610c56565b6005820160006109289190610c56565b6006820160006109389190610c56565b60078201600090556008820160006109509190610c96565b6009820160006109609190610c96565b600a820160006109709190610c96565b5050565b60008160ff161415610a3c5760005b82518160ff161015610a3a576000803373ffffffffffffffffffffffffffffffffffffffff1673ffffffffffffffffffffffffffffffffffffffff168152602001908152602001600020600801838260ff16815181106109e6576109e561146d565b5b6020026020010151908060018154018082558091505060019003906000526020600020016000909190919091509080519060200190610a26929190610bd0565b508080610a32906113e5565b915050610983565b505b60018160ff161415610b045760005b82518160ff161015610b02576000803373ffffffffffffffffffffffffffffffffffffffff1673ffffffffffffffffffffffffffffffffffffffff168152602001908152602001600020600901838260ff1681518110610aae57610aad61146d565b5b6020026020010151908060018154018082558091505060019003906000526020600020016000909190919091509080519060200190610aee929190610bd0565b508080610afa906113e5565b915050610a4b565b505b60028160ff161415610bcc5760005b82518160ff161015610bca576000803373ffffffffffffffffffffffffffffffffffffffff1673ffffffffffffffffffffffffffffffffffffffff168152602001908152602001600020600a01838260ff1681518110610b7657610b7561146d565b5b6020026020010151908060018154018082558091505060019003906000526020600020016000909190919091509080519060200190610bb6929190610bd0565b508080610bc2906113e5565b915050610b13565b505b5050565b828054610bdc90611382565b90600052602060002090601f016020900481019282610bfe5760008555610c45565b82601f10610c1757805160ff1916838001178555610c45565b82800160010185558215610c45579182015b82811115610c44578251825591602001919060010190610c29565b5b509050610c529190610cb7565b5090565b508054610c6290611382565b6000825580601f10610c745750610c93565b601f016020900490600052602060002090810190610c929190610cb7565b5b50565b5080546000825590600052602060002090810190610cb49190610cd4565b50565b5b80821115610cd0576000816000905550600101610cb8565b5090565b5b80821115610cf45760008181610ceb9190610c56565b50600101610cd5565b5090565b6000610d0b610d0684611234565b61120f565b90508083825260208201905082856020860282011115610d2e57610d2d6114d0565b5b60005b85811015610d7c57813567ffffffffffffffff811115610d5457610d536114cb565b5b808601610d618982610e0b565b85526020850194506020840193505050600181019050610d31565b5050509392505050565b6000610d99610d9484611260565b61120f565b905082815260208101848484011115610db557610db46114d5565b5b610dc0848285611340565b509392505050565b600081359050610dd7816114f5565b92915050565b600082601f830112610df257610df16114cb565b5b8135610e02848260208601610cf8565b91505092915050565b600082601f830112610e2057610e1f6114cb565b5b8135610e30848260208601610d86565b91505092915050565b600060208284031215610e4f57610e4e6114df565b5b6000610e5d84828501610dc8565b91505092915050565b60008060008060008060008060006101208a8c031215610e8957610e886114df565b5b60008a013567ffffffffffffffff811115610ea757610ea66114da565b5b610eb38c828d01610e0b565b99505060208a013567ffffffffffffffff811115610ed457610ed36114da565b5b610ee08c828d01610e0b565b98505060408a013567ffffffffffffffff811115610f0157610f006114da565b5b610f0d8c828d01610e0b565b97505060608a013567ffffffffffffffff811115610f2e57610f2d6114da565b5b610f3a8c828d01610e0b565b96505060808a013567ffffffffffffffff811115610f5b57610f5a6114da565b5b610f678c828d01610e0b565b95505060a08a013567ffffffffffffffff811115610f8857610f876114da565b5b610f948c828d01610e0b565b94505060c08a013567ffffffffffffffff811115610fb557610fb46114da565b5b610fc18c828d01610ddd565b93505060e08a013567ffffffffffffffff811115610fe257610fe16114da565b5b610fee8c828d01610ddd565b9250506101008a013567ffffffffffffffff8111156110105761100f6114da565b5b61101c8c828d01610ddd565b9150509295985092959850929598565b600061103883836110c4565b905092915050565b611049816112f7565b82525050565b600061105a826112a1565b61106481856112c4565b93508360208202850161107685611291565b8060005b858110156110b25784840389528151611093858261102c565b945061109e836112b7565b925060208a0199505060018101905061107a565b50829750879550505050505092915050565b60006110cf826112ac565b6110d981856112d5565b93506110e981856020860161134f565b6110f2816114e4565b840191505092915050565b6000611108826112ac565b61111281856112e6565b935061112281856020860161134f565b61112b816114e4565b840191505092915050565b61113f81611329565b82525050565b60006101008201905061115b600083018b611040565b818103602083015261116d818a6110fd565b9050818103604083015261118181896110fd565b9050818103606083015261119581886110fd565b905081810360808301526111a981876110fd565b905081810360a08301526111bd81866110fd565b905081810360c08301526111d181856110fd565b90506111e060e0830184611136565b9998505050505050505050565b60006020820190508181036000830152611207818461104f565b905092915050565b600061121961122a565b905061122582826113b4565b919050565b6000604051905090565b600067ffffffffffffffff82111561124f5761124e61149c565b5b602082029050602081019050919050565b600067ffffffffffffffff82111561127b5761127a61149c565b5b611284826114e4565b9050602081019050919050565b6000819050602082019050919050565b600081519050919050565b600081519050919050565b6000602082019050919050565b600082825260208201905092915050565b600082825260208201905092915050565b600082825260208201905092915050565b600061130282611309565b9050919050565b600073ffffffffffffffffffffffffffffffffffffffff82169050919050565b6000819050919050565b600060ff82169050919050565b82818337600083830152505050565b60005b8381101561136d578082015181840152602081019050611352565b8381111561137c576000848401525b50505050565b6000600282049050600182168061139a57607f821691505b602082108114156113ae576113ad61143e565b5b50919050565b6113bd826114e4565b810181811067ffffffffffffffff821117156113dc576113db61149c565b5b80604052505050565b60006113f082611333565b915060ff8214156114045761140361140f565b5b600182019050919050565b7f4e487b7100000000000000000000000000000000000000000000000000000000600052601160045260246000fd5b7f4e487b7100000000000000000000000000000000000000000000000000000000600052602260045260246000fd5b7f4e487b7100000000000000000000000000000000000000000000000000000000600052603260045260246000fd5b7f4e487b7100000000000000000000000000000000000000000000000000000000600052604160045260246000fd5b600080fd5b600080fd5b600080fd5b600080fd5b600080fd5b6000601f19601f8301169050919050565b6114fe816112f7565b811461150957600080fd5b5056fea2646970667358221220013c3adf13640d07c0be249a157602442a0cdfd586c0e12b0dc8a962160ba4cb64736f6c63430008070033",
					"opcodes": "PUSH1 0x80 PUSH1 0x40 MSTORE CALLVALUE DUP1 ISZERO PUSH2 0x10 JUMPI PUSH1 0x0 DUP1 REVERT JUMPDEST POP PUSH2 0x1542 DUP1 PUSH2 0x20 PUSH1 0x0 CODECOPY PUSH1 0x0 RETURN INVALID PUSH1 0x80 PUSH1 0x40 MSTORE CALLVALUE DUP1 ISZERO PUSH2 0x10 JUMPI PUSH1 0x0 DUP1 REVERT JUMPDEST POP PUSH1 0x4 CALLDATASIZE LT PUSH2 0x4C JUMPI PUSH1 0x0 CALLDATALOAD PUSH1 0xE0 SHR DUP1 PUSH4 0x9DD9D0FD EQ PUSH2 0x51 JUMPI DUP1 PUSH4 0xB08026EA EQ PUSH2 0x88 JUMPI DUP1 PUSH4 0xCA679F1D EQ PUSH2 0xA6 JUMPI DUP1 PUSH4 0xFABCE08F EQ PUSH2 0xC2 JUMPI JUMPDEST PUSH1 0x0 DUP1 REVERT JUMPDEST PUSH2 0x6B PUSH1 0x4 DUP1 CALLDATASIZE SUB DUP2 ADD SWAP1 PUSH2 0x66 SWAP2 SWAP1 PUSH2 0xE39 JUMP JUMPDEST PUSH2 0xCC JUMP JUMPDEST PUSH1 0x40 MLOAD PUSH2 0x7F SWAP9 SWAP8 SWAP7 SWAP6 SWAP5 SWAP4 SWAP3 SWAP2 SWAP1 PUSH2 0x1145 JUMP JUMPDEST PUSH1 0x40 MLOAD DUP1 SWAP2 SUB SWAP1 RETURN JUMPDEST PUSH2 0x90 PUSH2 0x464 JUMP JUMPDEST PUSH1 0x40 MLOAD PUSH2 0x9D SWAP2 SWAP1 PUSH2 0x11ED JUMP JUMPDEST PUSH1 0x40 MLOAD DUP1 SWAP2 SUB SWAP1 RETURN JUMPDEST PUSH2 0xC0 PUSH1 0x4 DUP1 CALLDATASIZE SUB DUP2 ADD SWAP1 PUSH2 0xBB SWAP2 SWAP1 PUSH2 0xE66 JUMP JUMPDEST PUSH2 0x57C JUMP JUMPDEST STOP JUMPDEST PUSH2 0xCA PUSH2 0x872 JUMP JUMPDEST STOP JUMPDEST PUSH1 0x0 PUSH1 0x20 MSTORE DUP1 PUSH1 0x0 MSTORE PUSH1 0x40 PUSH1 0x0 KECCAK256 PUSH1 0x0 SWAP2 POP SWAP1 POP DUP1 PUSH1 0x0 ADD PUSH1 0x0 SWAP1 SLOAD SWAP1 PUSH2 0x100 EXP SWAP1 DIV PUSH20 0xFFFFFFFFFFFFFFFFFFFFFFFFFFFFFFFFFFFFFFFF AND SWAP1 DUP1 PUSH1 0x1 ADD DUP1 SLOAD PUSH2 0x115 SWAP1 PUSH2 0x1382 JUMP JUMPDEST DUP1 PUSH1 0x1F ADD PUSH1 0x20 DUP1 SWAP2 DIV MUL PUSH1 0x20 ADD PUSH1 0x40 MLOAD SWAP1 DUP2 ADD PUSH1 0x40 MSTORE DUP1 SWAP3 SWAP2 SWAP1 DUP2 DUP2 MSTORE PUSH1 0x20 ADD DUP3 DUP1 SLOAD PUSH2 0x141 SWAP1 PUSH2 0x1382 JUMP JUMPDEST DUP1 ISZERO PUSH2 0x18E JUMPI DUP1 PUSH1 0x1F LT PUSH2 0x163 JUMPI PUSH2 0x100 DUP1 DUP4 SLOAD DIV MUL DUP4 MSTORE SWAP2 PUSH1 0x20 ADD SWAP2 PUSH2 0x18E JUMP JUMPDEST DUP3 ADD SWAP2 SWAP1 PUSH1 0x0 MSTORE PUSH1 0x20 PUSH1 0x0 KECCAK256 SWAP1 JUMPDEST DUP2 SLOAD DUP2 MSTORE SWAP1 PUSH1 0x1 ADD SWAP1 PUSH1 0x20 ADD DUP1 DUP4 GT PUSH2 0x171 JUMPI DUP3 SWAP1 SUB PUSH1 0x1F AND DUP3 ADD SWAP2 JUMPDEST POP POP POP POP POP SWAP1 DUP1 PUSH1 0x2 ADD DUP1 SLOAD PUSH2 0x1A3 SWAP1 PUSH2 0x1382 JUMP JUMPDEST DUP1 PUSH1 0x1F ADD PUSH1 0x20 DUP1 SWAP2 DIV MUL PUSH1 0x20 ADD PUSH1 0x40 MLOAD SWAP1 DUP2 ADD PUSH1 0x40 MSTORE DUP1 SWAP3 SWAP2 SWAP1 DUP2 DUP2 MSTORE PUSH1 0x20 ADD DUP3 DUP1 SLOAD PUSH2 0x1CF SWAP1 PUSH2 0x1382 JUMP JUMPDEST DUP1 ISZERO PUSH2 0x21C JUMPI DUP1 PUSH1 0x1F LT PUSH2 0x1F1 JUMPI PUSH2 0x100 DUP1 DUP4 SLOAD DIV MUL DUP4 MSTORE SWAP2 PUSH1 0x20 ADD SWAP2 PUSH2 0x21C JUMP JUMPDEST DUP3 ADD SWAP2 SWAP1 PUSH1 0x0 MSTORE PUSH1 0x20 PUSH1 0x0 KECCAK256 SWAP1 JUMPDEST DUP2 SLOAD DUP2 MSTORE SWAP1 PUSH1 0x1 ADD SWAP1 PUSH1 0x20 ADD DUP1 DUP4 GT PUSH2 0x1FF JUMPI DUP3 SWAP1 SUB PUSH1 0x1F AND DUP3 ADD SWAP2 JUMPDEST POP POP POP POP POP SWAP1 DUP1 PUSH1 0x3 ADD DUP1 SLOAD PUSH2 0x231 SWAP1 PUSH2 0x1382 JUMP JUMPDEST DUP1 PUSH1 0x1F ADD PUSH1 0x20 DUP1 SWAP2 DIV MUL PUSH1 0x20 ADD PUSH1 0x40 MLOAD SWAP1 DUP2 ADD PUSH1 0x40 MSTORE DUP1 SWAP3 SWAP2 SWAP1 DUP2 DUP2 MSTORE PUSH1 0x20 ADD DUP3 DUP1 SLOAD PUSH2 0x25D SWAP1 PUSH2 0x1382 JUMP JUMPDEST DUP1 ISZERO PUSH2 0x2AA JUMPI DUP1 PUSH1 0x1F LT PUSH2 0x27F JUMPI PUSH2 0x100 DUP1 DUP4 SLOAD DIV MUL DUP4 MSTORE SWAP2 PUSH1 0x20 ADD SWAP2 PUSH2 0x2AA JUMP JUMPDEST DUP3 ADD SWAP2 SWAP1 PUSH1 0x0 MSTORE PUSH1 0x20 PUSH1 0x0 KECCAK256 SWAP1 JUMPDEST DUP2 SLOAD DUP2 MSTORE SWAP1 PUSH1 0x1 ADD SWAP1 PUSH1 0x20 ADD DUP1 DUP4 GT PUSH2 0x28D JUMPI DUP3 SWAP1 SUB PUSH1 0x1F AND DUP3 ADD SWAP2 JUMPDEST POP POP POP POP POP SWAP1 DUP1 PUSH1 0x4 ADD DUP1 SLOAD PUSH2 0x2BF SWAP1 PUSH2 0x1382 JUMP JUMPDEST DUP1 PUSH1 0x1F ADD PUSH1 0x20 DUP1 SWAP2 DIV MUL PUSH1 0x20 ADD PUSH1 0x40 MLOAD SWAP1 DUP2 ADD PUSH1 0x40 MSTORE DUP1 SWAP3 SWAP2 SWAP1 DUP2 DUP2 MSTORE PUSH1 0x20 ADD DUP3 DUP1 SLOAD PUSH2 0x2EB SWAP1 PUSH2 0x1382 JUMP JUMPDEST DUP1 ISZERO PUSH2 0x338 JUMPI DUP1 PUSH1 0x1F LT PUSH2 0x30D JUMPI PUSH2 0x100 DUP1 DUP4 SLOAD DIV MUL DUP4 MSTORE SWAP2 PUSH1 0x20 ADD SWAP2 PUSH2 0x338 JUMP JUMPDEST DUP3 ADD SWAP2 SWAP1 PUSH1 0x0 MSTORE PUSH1 0x20 PUSH1 0x0 KECCAK256 SWAP1 JUMPDEST DUP2 SLOAD DUP2 MSTORE SWAP1 PUSH1 0x1 ADD SWAP1 PUSH1 0x20 ADD DUP1 DUP4 GT PUSH2 0x31B JUMPI DUP3 SWAP1 SUB PUSH1 0x1F AND DUP3 ADD SWAP2 JUMPDEST POP POP POP POP POP SWAP1 DUP1 PUSH1 0x5 ADD DUP1 SLOAD PUSH2 0x34D SWAP1 PUSH2 0x1382 JUMP JUMPDEST DUP1 PUSH1 0x1F ADD PUSH1 0x20 DUP1 SWAP2 DIV MUL PUSH1 0x20 ADD PUSH1 0x40 MLOAD SWAP1 DUP2 ADD PUSH1 0x40 MSTORE DUP1 SWAP3 SWAP2 SWAP1 DUP2 DUP2 MSTORE PUSH1 0x20 ADD DUP3 DUP1 SLOAD PUSH2 0x379 SWAP1 PUSH2 0x1382 JUMP JUMPDEST DUP1 ISZERO PUSH2 0x3C6 JUMPI DUP1 PUSH1 0x1F LT PUSH2 0x39B JUMPI PUSH2 0x100 DUP1 DUP4 SLOAD DIV MUL DUP4 MSTORE SWAP2 PUSH1 0x20 ADD SWAP2 PUSH2 0x3C6 JUMP JUMPDEST DUP3 ADD SWAP2 SWAP1 PUSH1 0x0 MSTORE PUSH1 0x20 PUSH1 0x0 KECCAK256 SWAP1 JUMPDEST DUP2 SLOAD DUP2 MSTORE SWAP1 PUSH1 0x1 ADD SWAP1 PUSH1 0x20 ADD DUP1 DUP4 GT PUSH2 0x3A9 JUMPI DUP3 SWAP1 SUB PUSH1 0x1F AND DUP3 ADD SWAP2 JUMPDEST POP POP POP POP POP SWAP1 DUP1 PUSH1 0x6 ADD DUP1 SLOAD PUSH2 0x3DB SWAP1 PUSH2 0x1382 JUMP JUMPDEST DUP1 PUSH1 0x1F ADD PUSH1 0x20 DUP1 SWAP2 DIV MUL PUSH1 0x20 ADD PUSH1 0x40 MLOAD SWAP1 DUP2 ADD PUSH1 0x40 MSTORE DUP1 SWAP3 SWAP2 SWAP1 DUP2 DUP2 MSTORE PUSH1 0x20 ADD DUP3 DUP1 SLOAD PUSH2 0x407 SWAP1 PUSH2 0x1382 JUMP JUMPDEST DUP1 ISZERO PUSH2 0x454 JUMPI DUP1 PUSH1 0x1F LT PUSH2 0x429 JUMPI PUSH2 0x100 DUP1 DUP4 SLOAD DIV MUL DUP4 MSTORE SWAP2 PUSH1 0x20 ADD SWAP2 PUSH2 0x454 JUMP JUMPDEST DUP3 ADD SWAP2 SWAP1 PUSH1 0x0 MSTORE PUSH1 0x20 PUSH1 0x0 KECCAK256 SWAP1 JUMPDEST DUP2 SLOAD DUP2 MSTORE SWAP1 PUSH1 0x1 ADD SWAP1 PUSH1 0x20 ADD DUP1 DUP4 GT PUSH2 0x437 JUMPI DUP3 SWAP1 SUB PUSH1 0x1F AND DUP3 ADD SWAP2 JUMPDEST POP POP POP POP POP SWAP1 DUP1 PUSH1 0x7 ADD SLOAD SWAP1 POP DUP9 JUMP JUMPDEST PUSH1 0x60 PUSH1 0x0 DUP1 CALLER PUSH20 0xFFFFFFFFFFFFFFFFFFFFFFFFFFFFFFFFFFFFFFFF AND PUSH20 0xFFFFFFFFFFFFFFFFFFFFFFFFFFFFFFFFFFFFFFFF AND DUP2 MSTORE PUSH1 0x20 ADD SWAP1 DUP2 MSTORE PUSH1 0x20 ADD PUSH1 0x0 KECCAK256 PUSH1 0x8 ADD DUP1 SLOAD DUP1 PUSH1 0x20 MUL PUSH1 0x20 ADD PUSH1 0x40 MLOAD SWAP1 DUP2 ADD PUSH1 0x40 MSTORE DUP1 SWAP3 SWAP2 SWAP1 DUP2 DUP2 MSTORE PUSH1 0x20 ADD PUSH1 0x0 SWAP1 JUMPDEST DUP3 DUP3 LT ISZERO PUSH2 0x573 JUMPI DUP4 DUP3 SWAP1 PUSH1 0x0 MSTORE PUSH1 0x20 PUSH1 0x0 KECCAK256 ADD DUP1 SLOAD PUSH2 0x4E6 SWAP1 PUSH2 0x1382 JUMP JUMPDEST DUP1 PUSH1 0x1F ADD PUSH1 0x20 DUP1 SWAP2 DIV MUL PUSH1 0x20 ADD PUSH1 0x40 MLOAD SWAP1 DUP2 ADD PUSH1 0x40 MSTORE DUP1 SWAP3 SWAP2 SWAP1 DUP2 DUP2 MSTORE PUSH1 0x20 ADD DUP3 DUP1 SLOAD PUSH2 0x512 SWAP1 PUSH2 0x1382 JUMP JUMPDEST DUP1 ISZERO PUSH2 0x55F JUMPI DUP1 PUSH1 0x1F LT PUSH2 0x534 JUMPI PUSH2 0x100 DUP1 DUP4 SLOAD DIV MUL DUP4 MSTORE SWAP2 PUSH1 0x20 ADD SWAP2 PUSH2 0x55F JUMP JUMPDEST DUP3 ADD SWAP2 SWAP1 PUSH1 0x0 MSTORE PUSH1 0x20 PUSH1 0x0 KECCAK256 SWAP1 JUMPDEST DUP2 SLOAD DUP2 MSTORE SWAP1 PUSH1 0x1 ADD SWAP1 PUSH1 0x20 ADD DUP1 DUP4 GT PUSH2 0x542 JUMPI DUP3 SWAP1 SUB PUSH1 0x1F AND DUP3 ADD SWAP2 JUMPDEST POP POP POP POP POP DUP2 MSTORE PUSH1 0x20 ADD SWAP1 PUSH1 0x1 ADD SWAP1 PUSH2 0x4C7 JUMP JUMPDEST POP POP POP POP SWAP1 POP SWAP1 JUMP JUMPDEST DUP9 PUSH1 0x0 DUP1 CALLER PUSH20 0xFFFFFFFFFFFFFFFFFFFFFFFFFFFFFFFFFFFFFFFF AND PUSH20 0xFFFFFFFFFFFFFFFFFFFFFFFFFFFFFFFFFFFFFFFF AND DUP2 MSTORE PUSH1 0x20 ADD SWAP1 DUP2 MSTORE PUSH1 0x20 ADD PUSH1 0x0 KECCAK256 PUSH1 0x1 ADD SWAP1 DUP1 MLOAD SWAP1 PUSH1 0x20 ADD SWAP1 PUSH2 0x5D1 SWAP3 SWAP2 SWAP1 PUSH2 0xBD0 JUMP JUMPDEST POP DUP8 PUSH1 0x0 DUP1 CALLER PUSH20 0xFFFFFFFFFFFFFFFFFFFFFFFFFFFFFFFFFFFFFFFF AND PUSH20 0xFFFFFFFFFFFFFFFFFFFFFFFFFFFFFFFFFFFFFFFF AND DUP2 MSTORE PUSH1 0x20 ADD SWAP1 DUP2 MSTORE PUSH1 0x20 ADD PUSH1 0x0 KECCAK256 PUSH1 0x2 ADD SWAP1 DUP1 MLOAD SWAP1 PUSH1 0x20 ADD SWAP1 PUSH2 0x627 SWAP3 SWAP2 SWAP1 PUSH2 0xBD0 JUMP JUMPDEST POP DUP7 PUSH1 0x0 DUP1 CALLER PUSH20 0xFFFFFFFFFFFFFFFFFFFFFFFFFFFFFFFFFFFFFFFF AND PUSH20 0xFFFFFFFFFFFFFFFFFFFFFFFFFFFFFFFFFFFFFFFF AND DUP2 MSTORE PUSH1 0x20 ADD SWAP1 DUP2 MSTORE PUSH1 0x20 ADD PUSH1 0x0 KECCAK256 PUSH1 0x3 ADD SWAP1 DUP1 MLOAD SWAP1 PUSH1 0x20 ADD SWAP1 PUSH2 0x67D SWAP3 SWAP2 SWAP1 PUSH2 0xBD0 JUMP JUMPDEST POP DUP6 PUSH1 0x0 DUP1 CALLER PUSH20 0xFFFFFFFFFFFFFFFFFFFFFFFFFFFFFFFFFFFFFFFF AND PUSH20 0xFFFFFFFFFFFFFFFFFFFFFFFFFFFFFFFFFFFFFFFF AND DUP2 MSTORE PUSH1 0x20 ADD SWAP1 DUP2 MSTORE PUSH1 0x20 ADD PUSH1 0x0 KECCAK256 PUSH1 0x4 ADD SWAP1 DUP1 MLOAD SWAP1 PUSH1 0x20 ADD SWAP1 PUSH2 0x6D3 SWAP3 SWAP2 SWAP1 PUSH2 0xBD0 JUMP JUMPDEST POP DUP5 PUSH1 0x0 DUP1 CALLER PUSH20 0xFFFFFFFFFFFFFFFFFFFFFFFFFFFFFFFFFFFFFFFF AND PUSH20 0xFFFFFFFFFFFFFFFFFFFFFFFFFFFFFFFFFFFFFFFF AND DUP2 MSTORE PUSH1 0x20 ADD SWAP1 DUP2 MSTORE PUSH1 0x20 ADD PUSH1 0x0 KECCAK256 PUSH1 0x5 ADD SWAP1 DUP1 MLOAD SWAP1 PUSH1 0x20 ADD SWAP1 PUSH2 0x729 SWAP3 SWAP2 SWAP1 PUSH2 0xBD0 JUMP JUMPDEST POP DUP4 PUSH1 0x0 DUP1 CALLER PUSH20 0xFFFFFFFFFFFFFFFFFFFFFFFFFFFFFFFFFFFFFFFF AND PUSH20 0xFFFFFFFFFFFFFFFFFFFFFFFFFFFFFFFFFFFFFFFF AND DUP2 MSTORE PUSH1 0x20 ADD SWAP1 DUP2 MSTORE PUSH1 0x20 ADD PUSH1 0x0 KECCAK256 PUSH1 0x6 ADD SWAP1 DUP1 MLOAD SWAP1 PUSH1 0x20 ADD SWAP1 PUSH2 0x77F SWAP3 SWAP2 SWAP1 PUSH2 0xBD0 JUMP JUMPDEST POP CALLER PUSH1 0x0 DUP1 CALLER PUSH20 0xFFFFFFFFFFFFFFFFFFFFFFFFFFFFFFFFFFFFFFFF AND PUSH20 0xFFFFFFFFFFFFFFFFFFFFFFFFFFFFFFFFFFFFFFFF AND DUP2 MSTORE PUSH1 0x20 ADD SWAP1 DUP2 MSTORE PUSH1 0x20 ADD PUSH1 0x0 KECCAK256 PUSH1 0x0 ADD PUSH1 0x0 PUSH2 0x100 EXP DUP2 SLOAD DUP2 PUSH20 0xFFFFFFFFFFFFFFFFFFFFFFFFFFFFFFFFFFFFFFFF MUL NOT AND SWAP1 DUP4 PUSH20 0xFFFFFFFFFFFFFFFFFFFFFFFFFFFFFFFFFFFFFFFF AND MUL OR SWAP1 SSTORE POP TIMESTAMP PUSH1 0x0 DUP1 CALLER PUSH20 0xFFFFFFFFFFFFFFFFFFFFFFFFFFFFFFFFFFFFFFFF AND PUSH20 0xFFFFFFFFFFFFFFFFFFFFFFFFFFFFFFFFFFFFFFFF AND DUP2 MSTORE PUSH1 0x20 ADD SWAP1 DUP2 MSTORE PUSH1 0x20 ADD PUSH1 0x0 KECCAK256 PUSH1 0x7 ADD DUP2 SWAP1 SSTORE POP PUSH2 0x851 DUP4 PUSH1 0x0 PUSH2 0x974 JUMP JUMPDEST PUSH2 0x85C DUP3 PUSH1 0x1 PUSH2 0x974 JUMP JUMPDEST PUSH2 0x867 DUP2 PUSH1 0x2 PUSH2 0x974 JUMP JUMPDEST POP POP POP POP POP POP POP POP POP JUMP JUMPDEST PUSH1 0x0 DUP1 CALLER PUSH20 0xFFFFFFFFFFFFFFFFFFFFFFFFFFFFFFFFFFFFFFFF AND PUSH20 0xFFFFFFFFFFFFFFFFFFFFFFFFFFFFFFFFFFFFFFFF AND DUP2 MSTORE PUSH1 0x20 ADD SWAP1 DUP2 MSTORE PUSH1 0x20 ADD PUSH1 0x0 KECCAK256 PUSH1 0x0 DUP1 DUP3 ADD PUSH1 0x0 PUSH2 0x100 EXP DUP2 SLOAD SWAP1 PUSH20 0xFFFFFFFFFFFFFFFFFFFFFFFFFFFFFFFFFFFFFFFF MUL NOT AND SWAP1 SSTORE PUSH1 0x1 DUP3 ADD PUSH1 0x0 PUSH2 0x8E8 SWAP2 SWAP1 PUSH2 0xC56 JUMP JUMPDEST PUSH1 0x2 DUP3 ADD PUSH1 0x0 PUSH2 0x8F8 SWAP2 SWAP1 PUSH2 0xC56 JUMP JUMPDEST PUSH1 0x3 DUP3 ADD PUSH1 0x0 PUSH2 0x908 SWAP2 SWAP1 PUSH2 0xC56 JUMP JUMPDEST PUSH1 0x4 DUP3 ADD PUSH1 0x0 PUSH2 0x918 SWAP2 SWAP1 PUSH2 0xC56 JUMP JUMPDEST PUSH1 0x5 DUP3 ADD PUSH1 0x0 PUSH2 0x928 SWAP2 SWAP1 PUSH2 0xC56 JUMP JUMPDEST PUSH1 0x6 DUP3 ADD PUSH1 0x0 PUSH2 0x938 SWAP2 SWAP1 PUSH2 0xC56 JUMP JUMPDEST PUSH1 0x7 DUP3 ADD PUSH1 0x0 SWAP1 SSTORE PUSH1 0x8 DUP3 ADD PUSH1 0x0 PUSH2 0x950 SWAP2 SWAP1 PUSH2 0xC96 JUMP JUMPDEST PUSH1 0x9 DUP3 ADD PUSH1 0x0 PUSH2 0x960 SWAP2 SWAP1 PUSH2 0xC96 JUMP JUMPDEST PUSH1 0xA DUP3 ADD PUSH1 0x0 PUSH2 0x970 SWAP2 SWAP1 PUSH2 0xC96 JUMP JUMPDEST POP POP JUMP JUMPDEST PUSH1 0x0 DUP2 PUSH1 0xFF AND EQ ISZERO PUSH2 0xA3C JUMPI PUSH1 0x0 JUMPDEST DUP3 MLOAD DUP2 PUSH1 0xFF AND LT ISZERO PUSH2 0xA3A JUMPI PUSH1 0x0 DUP1 CALLER PUSH20 0xFFFFFFFFFFFFFFFFFFFFFFFFFFFFFFFFFFFFFFFF AND PUSH20 0xFFFFFFFFFFFFFFFFFFFFFFFFFFFFFFFFFFFFFFFF AND DUP2 MSTORE PUSH1 0x20 ADD SWAP1 DUP2 MSTORE PUSH1 0x20 ADD PUSH1 0x0 KECCAK256 PUSH1 0x8 ADD DUP4 DUP3 PUSH1 0xFF AND DUP2 MLOAD DUP2 LT PUSH2 0x9E6 JUMPI PUSH2 0x9E5 PUSH2 0x146D JUMP JUMPDEST JUMPDEST PUSH1 0x20 MUL PUSH1 0x20 ADD ADD MLOAD SWAP1 DUP1 PUSH1 0x1 DUP2 SLOAD ADD DUP1 DUP3 SSTORE DUP1 SWAP2 POP POP PUSH1 0x1 SWAP1 SUB SWAP1 PUSH1 0x0 MSTORE PUSH1 0x20 PUSH1 0x0 KECCAK256 ADD PUSH1 0x0 SWAP1 SWAP2 SWAP1 SWAP2 SWAP1 SWAP2 POP SWAP1 DUP1 MLOAD SWAP1 PUSH1 0x20 ADD SWAP1 PUSH2 0xA26 SWAP3 SWAP2 SWAP1 PUSH2 0xBD0 JUMP JUMPDEST POP DUP1 DUP1 PUSH2 0xA32 SWAP1 PUSH2 0x13E5 JUMP JUMPDEST SWAP2 POP POP PUSH2 0x983 JUMP JUMPDEST POP JUMPDEST PUSH1 0x1 DUP2 PUSH1 0xFF AND EQ ISZERO PUSH2 0xB04 JUMPI PUSH1 0x0 JUMPDEST DUP3 MLOAD DUP2 PUSH1 0xFF AND LT ISZERO PUSH2 0xB02 JUMPI PUSH1 0x0 DUP1 CALLER PUSH20 0xFFFFFFFFFFFFFFFFFFFFFFFFFFFFFFFFFFFFFFFF AND PUSH20 0xFFFFFFFFFFFFFFFFFFFFFFFFFFFFFFFFFFFFFFFF AND DUP2 MSTORE PUSH1 0x20 ADD SWAP1 DUP2 MSTORE PUSH1 0x20 ADD PUSH1 0x0 KECCAK256 PUSH1 0x9 ADD DUP4 DUP3 PUSH1 0xFF AND DUP2 MLOAD DUP2 LT PUSH2 0xAAE JUMPI PUSH2 0xAAD PUSH2 0x146D JUMP JUMPDEST JUMPDEST PUSH1 0x20 MUL PUSH1 0x20 ADD ADD MLOAD SWAP1 DUP1 PUSH1 0x1 DUP2 SLOAD ADD DUP1 DUP3 SSTORE DUP1 SWAP2 POP POP PUSH1 0x1 SWAP1 SUB SWAP1 PUSH1 0x0 MSTORE PUSH1 0x20 PUSH1 0x0 KECCAK256 ADD PUSH1 0x0 SWAP1 SWAP2 SWAP1 SWAP2 SWAP1 SWAP2 POP SWAP1 DUP1 MLOAD SWAP1 PUSH1 0x20 ADD SWAP1 PUSH2 0xAEE SWAP3 SWAP2 SWAP1 PUSH2 0xBD0 JUMP JUMPDEST POP DUP1 DUP1 PUSH2 0xAFA SWAP1 PUSH2 0x13E5 JUMP JUMPDEST SWAP2 POP POP PUSH2 0xA4B JUMP JUMPDEST POP JUMPDEST PUSH1 0x2 DUP2 PUSH1 0xFF AND EQ ISZERO PUSH2 0xBCC JUMPI PUSH1 0x0 JUMPDEST DUP3 MLOAD DUP2 PUSH1 0xFF AND LT ISZERO PUSH2 0xBCA JUMPI PUSH1 0x0 DUP1 CALLER PUSH20 0xFFFFFFFFFFFFFFFFFFFFFFFFFFFFFFFFFFFFFFFF AND PUSH20 0xFFFFFFFFFFFFFFFFFFFFFFFFFFFFFFFFFFFFFFFF AND DUP2 MSTORE PUSH1 0x20 ADD SWAP1 DUP2 MSTORE PUSH1 0x20 ADD PUSH1 0x0 KECCAK256 PUSH1 0xA ADD DUP4 DUP3 PUSH1 0xFF AND DUP2 MLOAD DUP2 LT PUSH2 0xB76 JUMPI PUSH2 0xB75 PUSH2 0x146D JUMP JUMPDEST JUMPDEST PUSH1 0x20 MUL PUSH1 0x20 ADD ADD MLOAD SWAP1 DUP1 PUSH1 0x1 DUP2 SLOAD ADD DUP1 DUP3 SSTORE DUP1 SWAP2 POP POP PUSH1 0x1 SWAP1 SUB SWAP1 PUSH1 0x0 MSTORE PUSH1 0x20 PUSH1 0x0 KECCAK256 ADD PUSH1 0x0 SWAP1 SWAP2 SWAP1 SWAP2 SWAP1 SWAP2 POP SWAP1 DUP1 MLOAD SWAP1 PUSH1 0x20 ADD SWAP1 PUSH2 0xBB6 SWAP3 SWAP2 SWAP1 PUSH2 0xBD0 JUMP JUMPDEST POP DUP1 DUP1 PUSH2 0xBC2 SWAP1 PUSH2 0x13E5 JUMP JUMPDEST SWAP2 POP POP PUSH2 0xB13 JUMP JUMPDEST POP JUMPDEST POP POP JUMP JUMPDEST DUP3 DUP1 SLOAD PUSH2 0xBDC SWAP1 PUSH2 0x1382 JUMP JUMPDEST SWAP1 PUSH1 0x0 MSTORE PUSH1 0x20 PUSH1 0x0 KECCAK256 SWAP1 PUSH1 0x1F ADD PUSH1 0x20 SWAP1 DIV DUP2 ADD SWAP3 DUP3 PUSH2 0xBFE JUMPI PUSH1 0x0 DUP6 SSTORE PUSH2 0xC45 JUMP JUMPDEST DUP3 PUSH1 0x1F LT PUSH2 0xC17 JUMPI DUP1 MLOAD PUSH1 0xFF NOT AND DUP4 DUP1 ADD OR DUP6 SSTORE PUSH2 0xC45 JUMP JUMPDEST DUP3 DUP1 ADD PUSH1 0x1 ADD DUP6 SSTORE DUP3 ISZERO PUSH2 0xC45 JUMPI SWAP2 DUP3 ADD JUMPDEST DUP3 DUP2 GT ISZERO PUSH2 0xC44 JUMPI DUP3 MLOAD DUP3 SSTORE SWAP2 PUSH1 0x20 ADD SWAP2 SWAP1 PUSH1 0x1 ADD SWAP1 PUSH2 0xC29 JUMP JUMPDEST JUMPDEST POP SWAP1 POP PUSH2 0xC52 SWAP2 SWAP1 PUSH2 0xCB7 JUMP JUMPDEST POP SWAP1 JUMP JUMPDEST POP DUP1 SLOAD PUSH2 0xC62 SWAP1 PUSH2 0x1382 JUMP JUMPDEST PUSH1 0x0 DUP3 SSTORE DUP1 PUSH1 0x1F LT PUSH2 0xC74 JUMPI POP PUSH2 0xC93 JUMP JUMPDEST PUSH1 0x1F ADD PUSH1 0x20 SWAP1 DIV SWAP1 PUSH1 0x0 MSTORE PUSH1 0x20 PUSH1 0x0 KECCAK256 SWAP1 DUP2 ADD SWAP1 PUSH2 0xC92 SWAP2 SWAP1 PUSH2 0xCB7 JUMP JUMPDEST JUMPDEST POP JUMP JUMPDEST POP DUP1 SLOAD PUSH1 0x0 DUP3 SSTORE SWAP1 PUSH1 0x0 MSTORE PUSH1 0x20 PUSH1 0x0 KECCAK256 SWAP1 DUP2 ADD SWAP1 PUSH2 0xCB4 SWAP2 SWAP1 PUSH2 0xCD4 JUMP JUMPDEST POP JUMP JUMPDEST JUMPDEST DUP1 DUP3 GT ISZERO PUSH2 0xCD0 JUMPI PUSH1 0x0 DUP2 PUSH1 0x0 SWAP1 SSTORE POP PUSH1 0x1 ADD PUSH2 0xCB8 JUMP JUMPDEST POP SWAP1 JUMP JUMPDEST JUMPDEST DUP1 DUP3 GT ISZERO PUSH2 0xCF4 JUMPI PUSH1 0x0 DUP2 DUP2 PUSH2 0xCEB SWAP2 SWAP1 PUSH2 0xC56 JUMP JUMPDEST POP PUSH1 0x1 ADD PUSH2 0xCD5 JUMP JUMPDEST POP SWAP1 JUMP JUMPDEST PUSH1 0x0 PUSH2 0xD0B PUSH2 0xD06 DUP5 PUSH2 0x1234 JUMP JUMPDEST PUSH2 0x120F JUMP JUMPDEST SWAP1 POP DUP1 DUP4 DUP3 MSTORE PUSH1 0x20 DUP3 ADD SWAP1 POP DUP3 DUP6 PUSH1 0x20 DUP7 MUL DUP3 ADD GT ISZERO PUSH2 0xD2E JUMPI PUSH2 0xD2D PUSH2 0x14D0 JUMP JUMPDEST JUMPDEST PUSH1 0x0 JUMPDEST DUP6 DUP2 LT ISZERO PUSH2 0xD7C JUMPI DUP2 CALLDATALOAD PUSH8 0xFFFFFFFFFFFFFFFF DUP2 GT ISZERO PUSH2 0xD54 JUMPI PUSH2 0xD53 PUSH2 0x14CB JUMP JUMPDEST JUMPDEST DUP1 DUP7 ADD PUSH2 0xD61 DUP10 DUP3 PUSH2 0xE0B JUMP JUMPDEST DUP6 MSTORE PUSH1 0x20 DUP6 ADD SWAP5 POP PUSH1 0x20 DUP5 ADD SWAP4 POP POP POP PUSH1 0x1 DUP2 ADD SWAP1 POP PUSH2 0xD31 JUMP JUMPDEST POP POP POP SWAP4 SWAP3 POP POP POP JUMP JUMPDEST PUSH1 0x0 PUSH2 0xD99 PUSH2 0xD94 DUP5 PUSH2 0x1260 JUMP JUMPDEST PUSH2 0x120F JUMP JUMPDEST SWAP1 POP DUP3 DUP2 MSTORE PUSH1 0x20 DUP2 ADD DUP5 DUP5 DUP5 ADD GT ISZERO PUSH2 0xDB5 JUMPI PUSH2 0xDB4 PUSH2 0x14D5 JUMP JUMPDEST JUMPDEST PUSH2 0xDC0 DUP5 DUP3 DUP6 PUSH2 0x1340 JUMP JUMPDEST POP SWAP4 SWAP3 POP POP POP JUMP JUMPDEST PUSH1 0x0 DUP2 CALLDATALOAD SWAP1 POP PUSH2 0xDD7 DUP2 PUSH2 0x14F5 JUMP JUMPDEST SWAP3 SWAP2 POP POP JUMP JUMPDEST PUSH1 0x0 DUP3 PUSH1 0x1F DUP4 ADD SLT PUSH2 0xDF2 JUMPI PUSH2 0xDF1 PUSH2 0x14CB JUMP JUMPDEST JUMPDEST DUP2 CALLDATALOAD PUSH2 0xE02 DUP5 DUP3 PUSH1 0x20 DUP7 ADD PUSH2 0xCF8 JUMP JUMPDEST SWAP2 POP POP SWAP3 SWAP2 POP POP JUMP JUMPDEST PUSH1 0x0 DUP3 PUSH1 0x1F DUP4 ADD SLT PUSH2 0xE20 JUMPI PUSH2 0xE1F PUSH2 0x14CB JUMP JUMPDEST JUMPDEST DUP2 CALLDATALOAD PUSH2 0xE30 DUP5 DUP3 PUSH1 0x20 DUP7 ADD PUSH2 0xD86 JUMP JUMPDEST SWAP2 POP POP SWAP3 SWAP2 POP POP JUMP JUMPDEST PUSH1 0x0 PUSH1 0x20 DUP3 DUP5 SUB SLT ISZERO PUSH2 0xE4F JUMPI PUSH2 0xE4E PUSH2 0x14DF JUMP JUMPDEST JUMPDEST PUSH1 0x0 PUSH2 0xE5D DUP5 DUP3 DUP6 ADD PUSH2 0xDC8 JUMP JUMPDEST SWAP2 POP POP SWAP3 SWAP2 POP POP JUMP JUMPDEST PUSH1 0x0 DUP1 PUSH1 0x0 DUP1 PUSH1 0x0 DUP1 PUSH1 0x0 DUP1 PUSH1 0x0 PUSH2 0x120 DUP11 DUP13 SUB SLT ISZERO PUSH2 0xE89 JUMPI PUSH2 0xE88 PUSH2 0x14DF JUMP JUMPDEST JUMPDEST PUSH1 0x0 DUP11 ADD CALLDATALOAD PUSH8 0xFFFFFFFFFFFFFFFF DUP2 GT ISZERO PUSH2 0xEA7 JUMPI PUSH2 0xEA6 PUSH2 0x14DA JUMP JUMPDEST JUMPDEST PUSH2 0xEB3 DUP13 DUP3 DUP14 ADD PUSH2 0xE0B JUMP JUMPDEST SWAP10 POP POP PUSH1 0x20 DUP11 ADD CALLDATALOAD PUSH8 0xFFFFFFFFFFFFFFFF DUP2 GT ISZERO PUSH2 0xED4 JUMPI PUSH2 0xED3 PUSH2 0x14DA JUMP JUMPDEST JUMPDEST PUSH2 0xEE0 DUP13 DUP3 DUP14 ADD PUSH2 0xE0B JUMP JUMPDEST SWAP9 POP POP PUSH1 0x40 DUP11 ADD CALLDATALOAD PUSH8 0xFFFFFFFFFFFFFFFF DUP2 GT ISZERO PUSH2 0xF01 JUMPI PUSH2 0xF00 PUSH2 0x14DA JUMP JUMPDEST JUMPDEST PUSH2 0xF0D DUP13 DUP3 DUP14 ADD PUSH2 0xE0B JUMP JUMPDEST SWAP8 POP POP PUSH1 0x60 DUP11 ADD CALLDATALOAD PUSH8 0xFFFFFFFFFFFFFFFF DUP2 GT ISZERO PUSH2 0xF2E JUMPI PUSH2 0xF2D PUSH2 0x14DA JUMP JUMPDEST JUMPDEST PUSH2 0xF3A DUP13 DUP3 DUP14 ADD PUSH2 0xE0B JUMP JUMPDEST SWAP7 POP POP PUSH1 0x80 DUP11 ADD CALLDATALOAD PUSH8 0xFFFFFFFFFFFFFFFF DUP2 GT ISZERO PUSH2 0xF5B JUMPI PUSH2 0xF5A PUSH2 0x14DA JUMP JUMPDEST JUMPDEST PUSH2 0xF67 DUP13 DUP3 DUP14 ADD PUSH2 0xE0B JUMP JUMPDEST SWAP6 POP POP PUSH1 0xA0 DUP11 ADD CALLDATALOAD PUSH8 0xFFFFFFFFFFFFFFFF DUP2 GT ISZERO PUSH2 0xF88 JUMPI PUSH2 0xF87 PUSH2 0x14DA JUMP JUMPDEST JUMPDEST PUSH2 0xF94 DUP13 DUP3 DUP14 ADD PUSH2 0xE0B JUMP JUMPDEST SWAP5 POP POP PUSH1 0xC0 DUP11 ADD CALLDATALOAD PUSH8 0xFFFFFFFFFFFFFFFF DUP2 GT ISZERO PUSH2 0xFB5 JUMPI PUSH2 0xFB4 PUSH2 0x14DA JUMP JUMPDEST JUMPDEST PUSH2 0xFC1 DUP13 DUP3 DUP14 ADD PUSH2 0xDDD JUMP JUMPDEST SWAP4 POP POP PUSH1 0xE0 DUP11 ADD CALLDATALOAD PUSH8 0xFFFFFFFFFFFFFFFF DUP2 GT ISZERO PUSH2 0xFE2 JUMPI PUSH2 0xFE1 PUSH2 0x14DA JUMP JUMPDEST JUMPDEST PUSH2 0xFEE DUP13 DUP3 DUP14 ADD PUSH2 0xDDD JUMP JUMPDEST SWAP3 POP POP PUSH2 0x100 DUP11 ADD CALLDATALOAD PUSH8 0xFFFFFFFFFFFFFFFF DUP2 GT ISZERO PUSH2 0x1010 JUMPI PUSH2 0x100F PUSH2 0x14DA JUMP JUMPDEST JUMPDEST PUSH2 0x101C DUP13 DUP3 DUP14 ADD PUSH2 0xDDD JUMP JUMPDEST SWAP2 POP POP SWAP3 SWAP6 SWAP9 POP SWAP3 SWAP6 SWAP9 POP SWAP3 SWAP6 SWAP9 JUMP JUMPDEST PUSH1 0x0 PUSH2 0x1038 DUP4 DUP4 PUSH2 0x10C4 JUMP JUMPDEST SWAP1 POP SWAP3 SWAP2 POP POP JUMP JUMPDEST PUSH2 0x1049 DUP2 PUSH2 0x12F7 JUMP JUMPDEST DUP3 MSTORE POP POP JUMP JUMPDEST PUSH1 0x0 PUSH2 0x105A DUP3 PUSH2 0x12A1 JUMP JUMPDEST PUSH2 0x1064 DUP2 DUP6 PUSH2 0x12C4 JUMP JUMPDEST SWAP4 POP DUP4 PUSH1 0x20 DUP3 MUL DUP6 ADD PUSH2 0x1076 DUP6 PUSH2 0x1291 JUMP JUMPDEST DUP1 PUSH1 0x0 JUMPDEST DUP6 DUP2 LT ISZERO PUSH2 0x10B2 JUMPI DUP5 DUP5 SUB DUP10 MSTORE DUP2 MLOAD PUSH2 0x1093 DUP6 DUP3 PUSH2 0x102C JUMP JUMPDEST SWAP5 POP PUSH2 0x109E DUP4 PUSH2 0x12B7 JUMP JUMPDEST SWAP3 POP PUSH1 0x20 DUP11 ADD SWAP10 POP POP PUSH1 0x1 DUP2 ADD SWAP1 POP PUSH2 0x107A JUMP JUMPDEST POP DUP3 SWAP8 POP DUP8 SWAP6 POP POP POP POP POP POP SWAP3 SWAP2 POP POP JUMP JUMPDEST PUSH1 0x0 PUSH2 0x10CF DUP3 PUSH2 0x12AC JUMP JUMPDEST PUSH2 0x10D9 DUP2 DUP6 PUSH2 0x12D5 JUMP JUMPDEST SWAP4 POP PUSH2 0x10E9 DUP2 DUP6 PUSH1 0x20 DUP7 ADD PUSH2 0x134F JUMP JUMPDEST PUSH2 0x10F2 DUP2 PUSH2 0x14E4 JUMP JUMPDEST DUP5 ADD SWAP2 POP POP SWAP3 SWAP2 POP POP JUMP JUMPDEST PUSH1 0x0 PUSH2 0x1108 DUP3 PUSH2 0x12AC JUMP JUMPDEST PUSH2 0x1112 DUP2 DUP6 PUSH2 0x12E6 JUMP JUMPDEST SWAP4 POP PUSH2 0x1122 DUP2 DUP6 PUSH1 0x20 DUP7 ADD PUSH2 0x134F JUMP JUMPDEST PUSH2 0x112B DUP2 PUSH2 0x14E4 JUMP JUMPDEST DUP5 ADD SWAP2 POP POP SWAP3 SWAP2 POP POP JUMP JUMPDEST PUSH2 0x113F DUP2 PUSH2 0x1329 JUMP JUMPDEST DUP3 MSTORE POP POP JUMP JUMPDEST PUSH1 0x0 PUSH2 0x100 DUP3 ADD SWAP1 POP PUSH2 0x115B PUSH1 0x0 DUP4 ADD DUP12 PUSH2 0x1040 JUMP JUMPDEST DUP2 DUP2 SUB PUSH1 0x20 DUP4 ADD MSTORE PUSH2 0x116D DUP2 DUP11 PUSH2 0x10FD JUMP JUMPDEST SWAP1 POP DUP2 DUP2 SUB PUSH1 0x40 DUP4 ADD MSTORE PUSH2 0x1181 DUP2 DUP10 PUSH2 0x10FD JUMP JUMPDEST SWAP1 POP DUP2 DUP2 SUB PUSH1 0x60 DUP4 ADD MSTORE PUSH2 0x1195 DUP2 DUP9 PUSH2 0x10FD JUMP JUMPDEST SWAP1 POP DUP2 DUP2 SUB PUSH1 0x80 DUP4 ADD MSTORE PUSH2 0x11A9 DUP2 DUP8 PUSH2 0x10FD JUMP JUMPDEST SWAP1 POP DUP2 DUP2 SUB PUSH1 0xA0 DUP4 ADD MSTORE PUSH2 0x11BD DUP2 DUP7 PUSH2 0x10FD JUMP JUMPDEST SWAP1 POP DUP2 DUP2 SUB PUSH1 0xC0 DUP4 ADD MSTORE PUSH2 0x11D1 DUP2 DUP6 PUSH2 0x10FD JUMP JUMPDEST SWAP1 POP PUSH2 0x11E0 PUSH1 0xE0 DUP4 ADD DUP5 PUSH2 0x1136 JUMP JUMPDEST SWAP10 SWAP9 POP POP POP POP POP POP POP POP POP JUMP JUMPDEST PUSH1 0x0 PUSH1 0x20 DUP3 ADD SWAP1 POP DUP2 DUP2 SUB PUSH1 0x0 DUP4 ADD MSTORE PUSH2 0x1207 DUP2 DUP5 PUSH2 0x104F JUMP JUMPDEST SWAP1 POP SWAP3 SWAP2 POP POP JUMP JUMPDEST PUSH1 0x0 PUSH2 0x1219 PUSH2 0x122A JUMP JUMPDEST SWAP1 POP PUSH2 0x1225 DUP3 DUP3 PUSH2 0x13B4 JUMP JUMPDEST SWAP2 SWAP1 POP JUMP JUMPDEST PUSH1 0x0 PUSH1 0x40 MLOAD SWAP1 POP SWAP1 JUMP JUMPDEST PUSH1 0x0 PUSH8 0xFFFFFFFFFFFFFFFF DUP3 GT ISZERO PUSH2 0x124F JUMPI PUSH2 0x124E PUSH2 0x149C JUMP JUMPDEST JUMPDEST PUSH1 0x20 DUP3 MUL SWAP1 POP PUSH1 0x20 DUP2 ADD SWAP1 POP SWAP2 SWAP1 POP JUMP JUMPDEST PUSH1 0x0 PUSH8 0xFFFFFFFFFFFFFFFF DUP3 GT ISZERO PUSH2 0x127B JUMPI PUSH2 0x127A PUSH2 0x149C JUMP JUMPDEST JUMPDEST PUSH2 0x1284 DUP3 PUSH2 0x14E4 JUMP JUMPDEST SWAP1 POP PUSH1 0x20 DUP2 ADD SWAP1 POP SWAP2 SWAP1 POP JUMP JUMPDEST PUSH1 0x0 DUP2 SWAP1 POP PUSH1 0x20 DUP3 ADD SWAP1 POP SWAP2 SWAP1 POP JUMP JUMPDEST PUSH1 0x0 DUP2 MLOAD SWAP1 POP SWAP2 SWAP1 POP JUMP JUMPDEST PUSH1 0x0 DUP2 MLOAD SWAP1 POP SWAP2 SWAP1 POP JUMP JUMPDEST PUSH1 0x0 PUSH1 0x20 DUP3 ADD SWAP1 POP SWAP2 SWAP1 POP JUMP JUMPDEST PUSH1 0x0 DUP3 DUP3 MSTORE PUSH1 0x20 DUP3 ADD SWAP1 POP SWAP3 SWAP2 POP POP JUMP JUMPDEST PUSH1 0x0 DUP3 DUP3 MSTORE PUSH1 0x20 DUP3 ADD SWAP1 POP SWAP3 SWAP2 POP POP JUMP JUMPDEST PUSH1 0x0 DUP3 DUP3 MSTORE PUSH1 0x20 DUP3 ADD SWAP1 POP SWAP3 SWAP2 POP POP JUMP JUMPDEST PUSH1 0x0 PUSH2 0x1302 DUP3 PUSH2 0x1309 JUMP JUMPDEST SWAP1 POP SWAP2 SWAP1 POP JUMP JUMPDEST PUSH1 0x0 PUSH20 0xFFFFFFFFFFFFFFFFFFFFFFFFFFFFFFFFFFFFFFFF DUP3 AND SWAP1 POP SWAP2 SWAP1 POP JUMP JUMPDEST PUSH1 0x0 DUP2 SWAP1 POP SWAP2 SWAP1 POP JUMP JUMPDEST PUSH1 0x0 PUSH1 0xFF DUP3 AND SWAP1 POP SWAP2 SWAP1 POP JUMP JUMPDEST DUP3 DUP2 DUP4 CALLDATACOPY PUSH1 0x0 DUP4 DUP4 ADD MSTORE POP POP POP JUMP JUMPDEST PUSH1 0x0 JUMPDEST DUP4 DUP2 LT ISZERO PUSH2 0x136D JUMPI DUP1 DUP3 ADD MLOAD DUP2 DUP5 ADD MSTORE PUSH1 0x20 DUP2 ADD SWAP1 POP PUSH2 0x1352 JUMP JUMPDEST DUP4 DUP2 GT ISZERO PUSH2 0x137C JUMPI PUSH1 0x0 DUP5 DUP5 ADD MSTORE JUMPDEST POP POP POP POP JUMP JUMPDEST PUSH1 0x0 PUSH1 0x2 DUP3 DIV SWAP1 POP PUSH1 0x1 DUP3 AND DUP1 PUSH2 0x139A JUMPI PUSH1 0x7F DUP3 AND SWAP2 POP JUMPDEST PUSH1 0x20 DUP3 LT DUP2 EQ ISZERO PUSH2 0x13AE JUMPI PUSH2 0x13AD PUSH2 0x143E JUMP JUMPDEST JUMPDEST POP SWAP2 SWAP1 POP JUMP JUMPDEST PUSH2 0x13BD DUP3 PUSH2 0x14E4 JUMP JUMPDEST DUP2 ADD DUP2 DUP2 LT PUSH8 0xFFFFFFFFFFFFFFFF DUP3 GT OR ISZERO PUSH2 0x13DC JUMPI PUSH2 0x13DB PUSH2 0x149C JUMP JUMPDEST JUMPDEST DUP1 PUSH1 0x40 MSTORE POP POP POP JUMP JUMPDEST PUSH1 0x0 PUSH2 0x13F0 DUP3 PUSH2 0x1333 JUMP JUMPDEST SWAP2 POP PUSH1 0xFF DUP3 EQ ISZERO PUSH2 0x1404 JUMPI PUSH2 0x1403 PUSH2 0x140F JUMP JUMPDEST JUMPDEST PUSH1 0x1 DUP3 ADD SWAP1 POP SWAP2 SWAP1 POP JUMP JUMPDEST PUSH32 0x4E487B7100000000000000000000000000000000000000000000000000000000 PUSH1 0x0 MSTORE PUSH1 0x11 PUSH1 0x4 MSTORE PUSH1 0x24 PUSH1 0x0 REVERT JUMPDEST PUSH32 0x4E487B7100000000000000000000000000000000000000000000000000000000 PUSH1 0x0 MSTORE PUSH1 0x22 PUSH1 0x4 MSTORE PUSH1 0x24 PUSH1 0x0 REVERT JUMPDEST PUSH32 0x4E487B7100000000000000000000000000000000000000000000000000000000 PUSH1 0x0 MSTORE PUSH1 0x32 PUSH1 0x4 MSTORE PUSH1 0x24 PUSH1 0x0 REVERT JUMPDEST PUSH32 0x4E487B7100000000000000000000000000000000000000000000000000000000 PUSH1 0x0 MSTORE PUSH1 0x41 PUSH1 0x4 MSTORE PUSH1 0x24 PUSH1 0x0 REVERT JUMPDEST PUSH1 0x0 DUP1 REVERT JUMPDEST PUSH1 0x0 DUP1 REVERT JUMPDEST PUSH1 0x0 DUP1 REVERT JUMPDEST PUSH1 0x0 DUP1 REVERT JUMPDEST PUSH1 0x0 DUP1 REVERT JUMPDEST PUSH1 0x0 PUSH1 0x1F NOT PUSH1 0x1F DUP4 ADD AND SWAP1 POP SWAP2 SWAP1 POP JUMP JUMPDEST PUSH2 0x14FE DUP2 PUSH2 0x12F7 JUMP JUMPDEST DUP2 EQ PUSH2 0x1509 JUMPI PUSH1 0x0 DUP1 REVERT JUMPDEST POP JUMP INVALID LOG2 PUSH5 0x6970667358 0x22 SLT KECCAK256 ADD EXTCODECOPY GASPRICE 0xDF SGT PUSH5 0xD07C0BE24 SWAP11 ISZERO PUSH23 0x2442A0CDFD586C0E12B0DC8A962160BA4CB64736F6C63 NUMBER STOP ADDMOD SMOD STOP CALLER "
				},
				"gasEstimates": {
					"creation": {
						"codeDepositCost": "1088400",
						"executionCost": "1134",
						"totalCost": "1089534"
					},
					"external": {
						"addBio(string,string,string,string,string,string,string[],string[],string[])": "infinite",
						"delProfile()": "infinite",
						"getAllSkill()": "infinite",
						"profile(address)": "infinite"
					},
					"internal": {
						"addSkill(string memory[] memory,uint8)": "infinite"
					}
				},
				"methodIdentifiers": {
					"addBio(string,string,string,string,string,string,string[],string[],string[])": "ca679f1d",
					"delProfile()": "fabce08f",
					"getAllSkill()": "b08026ea",
					"profile(address)": "9dd9d0fd"
				}
			},
			"storageLayout": {
				"storage": [
					{
						"astId": 32,
						"contract": "contracts/Profile.sol:Profile",
						"label": "profile",
						"offset": 0,
						"slot": "0",
						"type": "t_mapping(t_address,t_struct(Bio)27_storage)"
					}
				],
				"types": {
					"t_address": {
						"encoding": "inplace",
						"label": "address",
						"numberOfBytes": "20"
					},
					"t_array(t_string_storage)dyn_storage": {
						"base": "t_string_storage",
						"encoding": "dynamic_array",
						"label": "string[]",
						"numberOfBytes": "32"
					},
					"t_mapping(t_address,t_struct(Bio)27_storage)": {
						"encoding": "mapping",
						"key": "t_address",
						"label": "mapping(address => struct Profile.Bio)",
						"numberOfBytes": "32",
						"value": "t_struct(Bio)27_storage"
					},
					"t_string_storage": {
						"encoding": "bytes",
						"label": "string",
						"numberOfBytes": "32"
					},
					"t_struct(Bio)27_storage": {
						"encoding": "inplace",
						"label": "struct Profile.Bio",
						"members": [
							{
								"astId": 3,
								"contract": "contracts/Profile.sol:Profile",
								"label": "userAddress",
								"offset": 0,
								"slot": "0",
								"type": "t_address"
							},
							{
								"astId": 5,
								"contract": "contracts/Profile.sol:Profile",
								"label": "firstName",
								"offset": 0,
								"slot": "1",
								"type": "t_string_storage"
							},
							{
								"astId": 7,
								"contract": "contracts/Profile.sol:Profile",
								"label": "middleName",
								"offset": 0,
								"slot": "2",
								"type": "t_string_storage"
							},
							{
								"astId": 9,
								"contract": "contracts/Profile.sol:Profile",
								"label": "lastName",
								"offset": 0,
								"slot": "3",
								"type": "t_string_storage"
							},
							{
								"astId": 11,
								"contract": "contracts/Profile.sol:Profile",
								"label": "email",
								"offset": 0,
								"slot": "4",
								"type": "t_string_storage"
							},
							{
								"astId": 13,
								"contract": "contracts/Profile.sol:Profile",
								"label": "phone",
								"offset": 0,
								"slot": "5",
								"type": "t_string_storage"
							},
							{
								"astId": 15,
								"contract": "contracts/Profile.sol:Profile",
								"label": "profileImage",
								"offset": 0,
								"slot": "6",
								"type": "t_string_storage"
							},
							{
								"astId": 17,
								"contract": "contracts/Profile.sol:Profile",
								"label": "createDate",
								"offset": 0,
								"slot": "7",
								"type": "t_uint256"
							},
							{
								"astId": 20,
								"contract": "contracts/Profile.sol:Profile",
								"label": "frontend",
								"offset": 0,
								"slot": "8",
								"type": "t_array(t_string_storage)dyn_storage"
							},
							{
								"astId": 23,
								"contract": "contracts/Profile.sol:Profile",
								"label": "backend",
								"offset": 0,
								"slot": "9",
								"type": "t_array(t_string_storage)dyn_storage"
							},
							{
								"astId": 26,
								"contract": "contracts/Profile.sol:Profile",
								"label": "framework",
								"offset": 0,
								"slot": "10",
								"type": "t_array(t_string_storage)dyn_storage"
							}
						],
						"numberOfBytes": "352"
					},
					"t_uint256": {
						"encoding": "inplace",
						"label": "uint256",
						"numberOfBytes": "32"
					}
				}
			},
			"userdoc": {
				"kind": "user",
				"methods": {},
				"version": 1
			}
		}
	}
}