{
	"contracts/Profile.sol": {
		"Profile": {
			"abi": [
				{
					"inputs": [
						{
							"internalType": "string",
							"name": "firstName",
							"type": "string"
						},
						{
							"internalType": "string",
							"name": "middleName",
							"type": "string"
						},
						{
							"internalType": "string",
							"name": "lastName",
							"type": "string"
						},
						{
							"internalType": "string",
							"name": "profileImage",
							"type": "string"
						}
					],
					"name": "createBio",
					"outputs": [],
					"stateMutability": "nonpayable",
					"type": "function"
				},
				{
					"inputs": [
						{
							"internalType": "string",
							"name": "email",
							"type": "string"
						},
						{
							"internalType": "string",
							"name": "phone",
							"type": "string"
						},
						{
							"internalType": "string",
							"name": "github",
							"type": "string"
						},
						{
							"internalType": "string",
							"name": "gitlab",
							"type": "string"
						},
						{
							"internalType": "string",
							"name": "linkin",
							"type": "string"
						},
						{
							"internalType": "string",
							"name": "aboutMe",
							"type": "string"
						}
					],
					"name": "createContract",
					"outputs": [],
					"stateMutability": "nonpayable",
					"type": "function"
				},
				{
					"inputs": [
						{
							"internalType": "string[]",
							"name": "programmingLanguages",
							"type": "string[]"
						},
						{
							"internalType": "string[]",
							"name": "framework",
							"type": "string[]"
						},
						{
							"internalType": "string[]",
							"name": "databaseAndOther",
							"type": "string[]"
						}
					],
					"name": "createSkill",
					"outputs": [],
					"stateMutability": "nonpayable",
					"type": "function"
				},
				{
					"inputs": [
						{
							"internalType": "string",
							"name": "startDate",
							"type": "string"
						},
						{
							"internalType": "string",
							"name": "endDate",
							"type": "string"
						},
						{
							"internalType": "string",
							"name": "univercity",
							"type": "string"
						},
						{
							"internalType": "string",
							"name": "major",
							"type": "string"
						}
					],
					"name": "createUnivercity",
					"outputs": [],
					"stateMutability": "nonpayable",
					"type": "function"
				},
				{
					"inputs": [],
					"name": "delAllEducation",
					"outputs": [],
					"stateMutability": "nonpayable",
					"type": "function"
				},
				{
					"inputs": [],
					"name": "delProfile",
					"outputs": [],
					"stateMutability": "nonpayable",
					"type": "function"
				},
				{
					"inputs": [
						{
							"internalType": "uint256",
							"name": "index",
							"type": "uint256"
						}
					],
					"name": "getEducation",
					"outputs": [
						{
							"internalType": "string",
							"name": "",
							"type": "string"
						},
						{
							"internalType": "string",
							"name": "",
							"type": "string"
						},
						{
							"internalType": "string",
							"name": "",
							"type": "string"
						},
						{
							"internalType": "string",
							"name": "",
							"type": "string"
						}
					],
					"stateMutability": "view",
					"type": "function"
				},
				{
					"inputs": [],
					"name": "getEducationCount",
					"outputs": [
						{
							"internalType": "uint256",
							"name": "",
							"type": "uint256"
						}
					],
					"stateMutability": "view",
					"type": "function"
				},
				{
					"inputs": [
						{
							"internalType": "address",
							"name": "",
							"type": "address"
						}
					],
					"name": "profile",
					"outputs": [
						{
							"internalType": "address",
							"name": "userAddress",
							"type": "address"
						},
						{
							"internalType": "string",
							"name": "firstName",
							"type": "string"
						},
						{
							"internalType": "string",
							"name": "middleName",
							"type": "string"
						},
						{
							"internalType": "string",
							"name": "lastName",
							"type": "string"
						},
						{
							"internalType": "string",
							"name": "profileImage",
							"type": "string"
						},
						{
							"internalType": "uint256",
							"name": "createDate",
							"type": "uint256"
						},
						{
							"components": [
								{
									"internalType": "string",
									"name": "aboutMe",
									"type": "string"
								},
								{
									"internalType": "string",
									"name": "email",
									"type": "string"
								},
								{
									"internalType": "string",
									"name": "phone",
									"type": "string"
								},
								{
									"internalType": "string",
									"name": "github",
									"type": "string"
								},
								{
									"internalType": "string",
									"name": "gitlab",
									"type": "string"
								},
								{
									"internalType": "string",
									"name": "linkin",
									"type": "string"
								}
							],
							"internalType": "struct Profile.Contract",
							"name": "privateContract",
							"type": "tuple"
						},
						{
							"components": [
								{
									"internalType": "string[]",
									"name": "programmingLanguages",
									"type": "string[]"
								},
								{
									"internalType": "string[]",
									"name": "framework",
									"type": "string[]"
								},
								{
									"internalType": "string[]",
									"name": "databaseAndOther",
									"type": "string[]"
								}
							],
							"internalType": "struct Profile.Skill",
							"name": "skill",
							"type": "tuple"
						}
					],
					"stateMutability": "view",
					"type": "function"
				}
			],
			"devdoc": {
				"kind": "dev",
				"methods": {},
				"version": 1
			},
			"evm": {
				"assembly": "    /* \"contracts/Profile.sol\":60:3618  contract Profile {\r... */\n  mstore(0x40, 0x80)\n  callvalue\n  dup1\n  iszero\n  tag_1\n  jumpi\n  0x00\n  dup1\n  revert\ntag_1:\n  pop\n  dataSize(sub_0)\n  dup1\n  dataOffset(sub_0)\n  0x00\n  codecopy\n  0x00\n  return\nstop\n\nsub_0: assembly {\n        /* \"contracts/Profile.sol\":60:3618  contract Profile {\r... */\n      mstore(0x40, 0x80)\n      callvalue\n      dup1\n      iszero\n      tag_1\n      jumpi\n      0x00\n      dup1\n      revert\n    tag_1:\n      pop\n      jumpi(tag_2, lt(calldatasize, 0x04))\n      shr(0xe0, calldataload(0x00))\n      dup1\n      0x9d983a01\n      gt\n      tag_12\n      jumpi\n      dup1\n      0x9d983a01\n      eq\n      tag_7\n      jumpi\n      dup1\n      0x9dd9d0fd\n      eq\n      tag_8\n      jumpi\n      dup1\n      0xed2217ef\n      eq\n      tag_9\n      jumpi\n      dup1\n      0xf96e32f8\n      eq\n      tag_10\n      jumpi\n      dup1\n      0xfabce08f\n      eq\n      tag_11\n      jumpi\n      jump(tag_2)\n    tag_12:\n      dup1\n      0x3d984d0e\n      eq\n      tag_3\n      jumpi\n      dup1\n      0x6212fa02\n      eq\n      tag_4\n      jumpi\n      dup1\n      0x7d64e0e4\n      eq\n      tag_5\n      jumpi\n      dup1\n      0x8c241fc4\n      eq\n      tag_6\n      jumpi\n    tag_2:\n      0x00\n      dup1\n      revert\n        /* \"contracts/Profile.sol\":2121:2509  function createSkill(string[] memory programmingLanguages, string[] memory framework, string[] memory databaseAndOther) public {\r... */\n    tag_3:\n      tag_13\n      0x04\n      dup1\n      calldatasize\n      sub\n      dup2\n      add\n      swap1\n      tag_14\n      swap2\n      swap1\n      tag_15\n      jump\t// in\n    tag_14:\n      tag_16\n      jump\t// in\n    tag_13:\n      stop\n        /* \"contracts/Profile.sol\":3313:3431  function getEducationCount() public view returns (uint) {\r... */\n    tag_4:\n      tag_17\n      tag_18\n      jump\t// in\n    tag_17:\n      mload(0x40)\n      tag_19\n      swap2\n      swap1\n      tag_20\n      jump\t// in\n    tag_19:\n      mload(0x40)\n      dup1\n      swap2\n      sub\n      swap1\n      return\n        /* \"contracts/Profile.sol\":1431:2034  function createContract(string memory email, string memory phone, string memory github, string memory gitlab, string memory linkin, string memory aboutMe) public {\r... */\n    tag_5:\n      tag_21\n      0x04\n      dup1\n      calldatasize\n      sub\n      dup2\n      add\n      swap1\n      tag_22\n      swap2\n      swap1\n      tag_23\n      jump\t// in\n    tag_22:\n      tag_24\n      jump\t// in\n    tag_21:\n      stop\n        /* \"contracts/Profile.sol\":909:1376  function createBio(string memory firstName, string memory middleName, string memory lastName,  string memory profileImage) public {\r... */\n    tag_6:\n      tag_25\n      0x04\n      dup1\n      calldatasize\n      sub\n      dup2\n      add\n      swap1\n      tag_26\n      swap2\n      swap1\n      tag_27\n      jump\t// in\n    tag_26:\n      tag_28\n      jump\t// in\n    tag_25:\n      stop\n        /* \"contracts/Profile.sol\":2576:2969  function createUnivercity(string memory startDate, string memory endDate, string memory univercity, string memory major) public {\r... */\n    tag_7:\n      tag_29\n      0x04\n      dup1\n      calldatasize\n      sub\n      dup2\n      add\n      swap1\n      tag_30\n      swap2\n      swap1\n      tag_27\n      jump\t// in\n    tag_30:\n      tag_31\n      jump\t// in\n    tag_29:\n      stop\n        /* \"contracts/Profile.sol\":370:410  mapping (address => Bio) public  profile */\n    tag_8:\n      tag_32\n      0x04\n      dup1\n      calldatasize\n      sub\n      dup2\n      add\n      swap1\n      tag_33\n      swap2\n      swap1\n      tag_34\n      jump\t// in\n    tag_33:\n      tag_35\n      jump\t// in\n    tag_32:\n      mload(0x40)\n      tag_36\n      swap9\n      swap8\n      swap7\n      swap6\n      swap5\n      swap4\n      swap3\n      swap2\n      swap1\n      tag_37\n      jump\t// in\n    tag_36:\n      mload(0x40)\n      dup1\n      swap2\n      sub\n      swap1\n      return\n        /* \"contracts/Profile.sol\":3439:3531  function delAllEducation() external  {\r... */\n    tag_9:\n      tag_38\n      tag_39\n      jump\t// in\n    tag_38:\n      stop\n        /* \"contracts/Profile.sol\":2978:3305  function getEducation(uint index) public view returns(string memory, string memory, string memory, string memory) {\r... */\n    tag_10:\n      tag_40\n      0x04\n      dup1\n      calldatasize\n      sub\n      dup2\n      add\n      swap1\n      tag_41\n      swap2\n      swap1\n      tag_42\n      jump\t// in\n    tag_41:\n      tag_43\n      jump\t// in\n    tag_40:\n      mload(0x40)\n      tag_44\n      swap5\n      swap4\n      swap3\n      swap2\n      swap1\n      tag_45\n      jump\t// in\n    tag_44:\n      mload(0x40)\n      dup1\n      swap2\n      sub\n      swap1\n      return\n        /* \"contracts/Profile.sol\":3539:3615  function delProfile() external {\r... */\n    tag_11:\n      tag_46\n      tag_47\n      jump\t// in\n    tag_46:\n      stop\n        /* \"contracts/Profile.sol\":2121:2509  function createSkill(string[] memory programmingLanguages, string[] memory framework, string[] memory databaseAndOther) public {\r... */\n    tag_16:\n        /* \"contracts/Profile.sol\":2266:2273  profile */\n      0x00\n        /* \"contracts/Profile.sol\":2266:2285  profile[msg.sender] */\n      dup1\n        /* \"contracts/Profile.sol\":2274:2284  msg.sender */\n      caller\n        /* \"contracts/Profile.sol\":2266:2285  profile[msg.sender] */\n      0xffffffffffffffffffffffffffffffffffffffff\n      and\n      0xffffffffffffffffffffffffffffffffffffffff\n      and\n      dup2\n      mstore\n      0x20\n      add\n      swap1\n      dup2\n      mstore\n      0x20\n      add\n      0x00\n      keccak256\n        /* \"contracts/Profile.sol\":2266:2291  profile[msg.sender].skill */\n      0x0c\n      add\n      0x00\n        /* \"contracts/Profile.sol\":2259:2291  delete profile[msg.sender].skill */\n      dup1\n      dup3\n      add\n      0x00\n      tag_49\n      swap2\n      swap1\n      tag_50\n      jump\t// in\n    tag_49:\n      0x01\n      dup3\n      add\n      0x00\n      tag_51\n      swap2\n      swap1\n      tag_50\n      jump\t// in\n    tag_51:\n      0x02\n      dup3\n      add\n      0x00\n      tag_52\n      swap2\n      swap1\n      tag_50\n      jump\t// in\n    tag_52:\n      pop\n      pop\n        /* \"contracts/Profile.sol\":2351:2371  programmingLanguages */\n      dup3\n        /* \"contracts/Profile.sol\":2302:2309  profile */\n      0x00\n        /* \"contracts/Profile.sol\":2302:2321  profile[msg.sender] */\n      dup1\n        /* \"contracts/Profile.sol\":2310:2320  msg.sender */\n      caller\n        /* \"contracts/Profile.sol\":2302:2321  profile[msg.sender] */\n      0xffffffffffffffffffffffffffffffffffffffff\n      and\n      0xffffffffffffffffffffffffffffffffffffffff\n      and\n      dup2\n      mstore\n      0x20\n      add\n      swap1\n      dup2\n      mstore\n      0x20\n      add\n      0x00\n      keccak256\n        /* \"contracts/Profile.sol\":2302:2327  profile[msg.sender].skill */\n      0x0c\n      add\n        /* \"contracts/Profile.sol\":2302:2348  profile[msg.sender].skill.programmingLanguages */\n      0x00\n      add\n        /* \"contracts/Profile.sol\":2302:2371  profile[msg.sender].skill.programmingLanguages = programmingLanguages */\n      swap1\n      dup1\n      mload\n      swap1\n      0x20\n      add\n      swap1\n      tag_53\n      swap3\n      swap2\n      swap1\n      tag_54\n      jump\t// in\n    tag_53:\n      pop\n        /* \"contracts/Profile.sol\":2420:2429  framework */\n      dup2\n        /* \"contracts/Profile.sol\":2382:2389  profile */\n      0x00\n        /* \"contracts/Profile.sol\":2382:2401  profile[msg.sender] */\n      dup1\n        /* \"contracts/Profile.sol\":2390:2400  msg.sender */\n      caller\n        /* \"contracts/Profile.sol\":2382:2401  profile[msg.sender] */\n      0xffffffffffffffffffffffffffffffffffffffff\n      and\n      0xffffffffffffffffffffffffffffffffffffffff\n      and\n      dup2\n      mstore\n      0x20\n      add\n      swap1\n      dup2\n      mstore\n      0x20\n      add\n      0x00\n      keccak256\n        /* \"contracts/Profile.sol\":2382:2407  profile[msg.sender].skill */\n      0x0c\n      add\n        /* \"contracts/Profile.sol\":2382:2417  profile[msg.sender].skill.framework */\n      0x01\n      add\n        /* \"contracts/Profile.sol\":2382:2429  profile[msg.sender].skill.framework = framework */\n      swap1\n      dup1\n      mload\n      swap1\n      0x20\n      add\n      swap1\n      tag_55\n      swap3\n      swap2\n      swap1\n      tag_54\n      jump\t// in\n    tag_55:\n      pop\n        /* \"contracts/Profile.sol\":2485:2501  databaseAndOther */\n      dup1\n        /* \"contracts/Profile.sol\":2440:2447  profile */\n      0x00\n        /* \"contracts/Profile.sol\":2440:2459  profile[msg.sender] */\n      dup1\n        /* \"contracts/Profile.sol\":2448:2458  msg.sender */\n      caller\n        /* \"contracts/Profile.sol\":2440:2459  profile[msg.sender] */\n      0xffffffffffffffffffffffffffffffffffffffff\n      and\n      0xffffffffffffffffffffffffffffffffffffffff\n      and\n      dup2\n      mstore\n      0x20\n      add\n      swap1\n      dup2\n      mstore\n      0x20\n      add\n      0x00\n      keccak256\n        /* \"contracts/Profile.sol\":2440:2465  profile[msg.sender].skill */\n      0x0c\n      add\n        /* \"contracts/Profile.sol\":2440:2482  profile[msg.sender].skill.databaseAndOther */\n      0x02\n      add\n        /* \"contracts/Profile.sol\":2440:2501  profile[msg.sender].skill.databaseAndOther = databaseAndOther */\n      swap1\n      dup1\n      mload\n      swap1\n      0x20\n      add\n      swap1\n      tag_56\n      swap3\n      swap2\n      swap1\n      tag_54\n      jump\t// in\n    tag_56:\n      pop\n        /* \"contracts/Profile.sol\":2121:2509  function createSkill(string[] memory programmingLanguages, string[] memory framework, string[] memory databaseAndOther) public {\r... */\n      pop\n      pop\n      pop\n      jump\t// out\n        /* \"contracts/Profile.sol\":3313:3431  function getEducationCount() public view returns (uint) {\r... */\n    tag_18:\n        /* \"contracts/Profile.sol\":3363:3367  uint */\n      0x00\n        /* \"contracts/Profile.sol\":3387:3394  profile */\n      dup1\n        /* \"contracts/Profile.sol\":3387:3406  profile[msg.sender] */\n      0x00\n        /* \"contracts/Profile.sol\":3395:3405  msg.sender */\n      caller\n        /* \"contracts/Profile.sol\":3387:3406  profile[msg.sender] */\n      0xffffffffffffffffffffffffffffffffffffffff\n      and\n      0xffffffffffffffffffffffffffffffffffffffff\n      and\n      dup2\n      mstore\n      0x20\n      add\n      swap1\n      dup2\n      mstore\n      0x20\n      add\n      0x00\n      keccak256\n        /* \"contracts/Profile.sol\":3387:3416  profile[msg.sender].education */\n      0x0f\n      add\n        /* \"contracts/Profile.sol\":3387:3423  profile[msg.sender].education.length */\n      dup1\n      sload\n      swap1\n      pop\n        /* \"contracts/Profile.sol\":3380:3423  return profile[msg.sender].education.length */\n      swap1\n      pop\n        /* \"contracts/Profile.sol\":3313:3431  function getEducationCount() public view returns (uint) {\r... */\n      swap1\n      jump\t// out\n        /* \"contracts/Profile.sol\":1431:2034  function createContract(string memory email, string memory phone, string memory github, string memory gitlab, string memory linkin, string memory aboutMe) public {\r... */\n    tag_24:\n        /* \"contracts/Profile.sol\":1611:1618  profile */\n      0x00\n        /* \"contracts/Profile.sol\":1611:1630  profile[msg.sender] */\n      dup1\n        /* \"contracts/Profile.sol\":1619:1629  msg.sender */\n      caller\n        /* \"contracts/Profile.sol\":1611:1630  profile[msg.sender] */\n      0xffffffffffffffffffffffffffffffffffffffff\n      and\n      0xffffffffffffffffffffffffffffffffffffffff\n      and\n      dup2\n      mstore\n      0x20\n      add\n      swap1\n      dup2\n      mstore\n      0x20\n      add\n      0x00\n      keccak256\n        /* \"contracts/Profile.sol\":1611:1646  profile[msg.sender].privateContract */\n      0x06\n      add\n      0x00\n        /* \"contracts/Profile.sol\":1604:1646  delete profile[msg.sender].privateContract */\n      dup1\n      dup3\n      add\n      0x00\n      tag_59\n      swap2\n      swap1\n      tag_60\n      jump\t// in\n    tag_59:\n      0x01\n      dup3\n      add\n      0x00\n      tag_61\n      swap2\n      swap1\n      tag_60\n      jump\t// in\n    tag_61:\n      0x02\n      dup3\n      add\n      0x00\n      tag_62\n      swap2\n      swap1\n      tag_60\n      jump\t// in\n    tag_62:\n      0x03\n      dup3\n      add\n      0x00\n      tag_63\n      swap2\n      swap1\n      tag_60\n      jump\t// in\n    tag_63:\n      0x04\n      dup3\n      add\n      0x00\n      tag_64\n      swap2\n      swap1\n      tag_60\n      jump\t// in\n    tag_64:\n      0x05\n      dup3\n      add\n      0x00\n      tag_65\n      swap2\n      swap1\n      tag_60\n      jump\t// in\n    tag_65:\n      pop\n      pop\n        /* \"contracts/Profile.sol\":1701:1706  email */\n      dup6\n        /* \"contracts/Profile.sol\":1657:1664  profile */\n      0x00\n        /* \"contracts/Profile.sol\":1657:1676  profile[msg.sender] */\n      dup1\n        /* \"contracts/Profile.sol\":1665:1675  msg.sender */\n      caller\n        /* \"contracts/Profile.sol\":1657:1676  profile[msg.sender] */\n      0xffffffffffffffffffffffffffffffffffffffff\n      and\n      0xffffffffffffffffffffffffffffffffffffffff\n      and\n      dup2\n      mstore\n      0x20\n      add\n      swap1\n      dup2\n      mstore\n      0x20\n      add\n      0x00\n      keccak256\n        /* \"contracts/Profile.sol\":1657:1692  profile[msg.sender].privateContract */\n      0x06\n      add\n        /* \"contracts/Profile.sol\":1657:1698  profile[msg.sender].privateContract.email */\n      0x01\n      add\n        /* \"contracts/Profile.sol\":1657:1706  profile[msg.sender].privateContract.email = email */\n      swap1\n      dup1\n      mload\n      swap1\n      0x20\n      add\n      swap1\n      tag_66\n      swap3\n      swap2\n      swap1\n      tag_67\n      jump\t// in\n    tag_66:\n      pop\n        /* \"contracts/Profile.sol\":1761:1766  phone */\n      dup5\n        /* \"contracts/Profile.sol\":1717:1724  profile */\n      0x00\n        /* \"contracts/Profile.sol\":1717:1736  profile[msg.sender] */\n      dup1\n        /* \"contracts/Profile.sol\":1725:1735  msg.sender */\n      caller\n        /* \"contracts/Profile.sol\":1717:1736  profile[msg.sender] */\n      0xffffffffffffffffffffffffffffffffffffffff\n      and\n      0xffffffffffffffffffffffffffffffffffffffff\n      and\n      dup2\n      mstore\n      0x20\n      add\n      swap1\n      dup2\n      mstore\n      0x20\n      add\n      0x00\n      keccak256\n        /* \"contracts/Profile.sol\":1717:1752  profile[msg.sender].privateContract */\n      0x06\n      add\n        /* \"contracts/Profile.sol\":1717:1758  profile[msg.sender].privateContract.phone */\n      0x02\n      add\n        /* \"contracts/Profile.sol\":1717:1766  profile[msg.sender].privateContract.phone = phone */\n      swap1\n      dup1\n      mload\n      swap1\n      0x20\n      add\n      swap1\n      tag_68\n      swap3\n      swap2\n      swap1\n      tag_67\n      jump\t// in\n    tag_68:\n      pop\n        /* \"contracts/Profile.sol\":1822:1828  github */\n      dup4\n        /* \"contracts/Profile.sol\":1777:1784  profile */\n      0x00\n        /* \"contracts/Profile.sol\":1777:1796  profile[msg.sender] */\n      dup1\n        /* \"contracts/Profile.sol\":1785:1795  msg.sender */\n      caller\n        /* \"contracts/Profile.sol\":1777:1796  profile[msg.sender] */\n      0xffffffffffffffffffffffffffffffffffffffff\n      and\n      0xffffffffffffffffffffffffffffffffffffffff\n      and\n      dup2\n      mstore\n      0x20\n      add\n      swap1\n      dup2\n      mstore\n      0x20\n      add\n      0x00\n      keccak256\n        /* \"contracts/Profile.sol\":1777:1812  profile[msg.sender].privateContract */\n      0x06\n      add\n        /* \"contracts/Profile.sol\":1777:1819  profile[msg.sender].privateContract.github */\n      0x03\n      add\n        /* \"contracts/Profile.sol\":1777:1828  profile[msg.sender].privateContract.github = github */\n      swap1\n      dup1\n      mload\n      swap1\n      0x20\n      add\n      swap1\n      tag_69\n      swap3\n      swap2\n      swap1\n      tag_67\n      jump\t// in\n    tag_69:\n      pop\n        /* \"contracts/Profile.sol\":1883:1889  gitlab */\n      dup3\n        /* \"contracts/Profile.sol\":1839:1846  profile */\n      0x00\n        /* \"contracts/Profile.sol\":1839:1858  profile[msg.sender] */\n      dup1\n        /* \"contracts/Profile.sol\":1847:1857  msg.sender */\n      caller\n        /* \"contracts/Profile.sol\":1839:1858  profile[msg.sender] */\n      0xffffffffffffffffffffffffffffffffffffffff\n      and\n      0xffffffffffffffffffffffffffffffffffffffff\n      and\n      dup2\n      mstore\n      0x20\n      add\n      swap1\n      dup2\n      mstore\n      0x20\n      add\n      0x00\n      keccak256\n        /* \"contracts/Profile.sol\":1839:1874  profile[msg.sender].privateContract */\n      0x06\n      add\n        /* \"contracts/Profile.sol\":1839:1880  profile[msg.sender].privateContract.phone */\n      0x02\n      add\n        /* \"contracts/Profile.sol\":1839:1889  profile[msg.sender].privateContract.phone = gitlab */\n      swap1\n      dup1\n      mload\n      swap1\n      0x20\n      add\n      swap1\n      tag_70\n      swap3\n      swap2\n      swap1\n      tag_67\n      jump\t// in\n    tag_70:\n      pop\n        /* \"contracts/Profile.sol\":1944:1950  linkin */\n      dup2\n        /* \"contracts/Profile.sol\":1900:1907  profile */\n      0x00\n        /* \"contracts/Profile.sol\":1900:1919  profile[msg.sender] */\n      dup1\n        /* \"contracts/Profile.sol\":1908:1918  msg.sender */\n      caller\n        /* \"contracts/Profile.sol\":1900:1919  profile[msg.sender] */\n      0xffffffffffffffffffffffffffffffffffffffff\n      and\n      0xffffffffffffffffffffffffffffffffffffffff\n      and\n      dup2\n      mstore\n      0x20\n      add\n      swap1\n      dup2\n      mstore\n      0x20\n      add\n      0x00\n      keccak256\n        /* \"contracts/Profile.sol\":1900:1935  profile[msg.sender].privateContract */\n      0x06\n      add\n        /* \"contracts/Profile.sol\":1900:1941  profile[msg.sender].privateContract.email */\n      0x01\n      add\n        /* \"contracts/Profile.sol\":1900:1950  profile[msg.sender].privateContract.email = linkin */\n      swap1\n      dup1\n      mload\n      swap1\n      0x20\n      add\n      swap1\n      tag_71\n      swap3\n      swap2\n      swap1\n      tag_67\n      jump\t// in\n    tag_71:\n      pop\n        /* \"contracts/Profile.sol\":2007:2014  aboutMe */\n      dup1\n        /* \"contracts/Profile.sol\":1961:1968  profile */\n      0x00\n        /* \"contracts/Profile.sol\":1961:1980  profile[msg.sender] */\n      dup1\n        /* \"contracts/Profile.sol\":1969:1979  msg.sender */\n      caller\n        /* \"contracts/Profile.sol\":1961:1980  profile[msg.sender] */\n      0xffffffffffffffffffffffffffffffffffffffff\n      and\n      0xffffffffffffffffffffffffffffffffffffffff\n      and\n      dup2\n      mstore\n      0x20\n      add\n      swap1\n      dup2\n      mstore\n      0x20\n      add\n      0x00\n      keccak256\n        /* \"contracts/Profile.sol\":1961:1996  profile[msg.sender].privateContract */\n      0x06\n      add\n        /* \"contracts/Profile.sol\":1961:2004  profile[msg.sender].privateContract.aboutMe */\n      0x00\n      add\n        /* \"contracts/Profile.sol\":1961:2014  profile[msg.sender].privateContract.aboutMe = aboutMe */\n      swap1\n      dup1\n      mload\n      swap1\n      0x20\n      add\n      swap1\n      tag_72\n      swap3\n      swap2\n      swap1\n      tag_67\n      jump\t// in\n    tag_72:\n      pop\n        /* \"contracts/Profile.sol\":1431:2034  function createContract(string memory email, string memory phone, string memory github, string memory gitlab, string memory linkin, string memory aboutMe) public {\r... */\n      pop\n      pop\n      pop\n      pop\n      pop\n      pop\n      jump\t// out\n        /* \"contracts/Profile.sol\":909:1376  function createBio(string memory firstName, string memory middleName, string memory lastName,  string memory profileImage) public {\r... */\n    tag_28:\n        /* \"contracts/Profile.sol\":1082:1091  firstName */\n      dup4\n        /* \"contracts/Profile.sol\":1050:1057  profile */\n      0x00\n        /* \"contracts/Profile.sol\":1050:1069  profile[msg.sender] */\n      dup1\n        /* \"contracts/Profile.sol\":1058:1068  msg.sender */\n      caller\n        /* \"contracts/Profile.sol\":1050:1069  profile[msg.sender] */\n      0xffffffffffffffffffffffffffffffffffffffff\n      and\n      0xffffffffffffffffffffffffffffffffffffffff\n      and\n      dup2\n      mstore\n      0x20\n      add\n      swap1\n      dup2\n      mstore\n      0x20\n      add\n      0x00\n      keccak256\n        /* \"contracts/Profile.sol\":1050:1079  profile[msg.sender].firstName */\n      0x01\n      add\n        /* \"contracts/Profile.sol\":1050:1091  profile[msg.sender].firstName = firstName */\n      swap1\n      dup1\n      mload\n      swap1\n      0x20\n      add\n      swap1\n      tag_74\n      swap3\n      swap2\n      swap1\n      tag_67\n      jump\t// in\n    tag_74:\n      pop\n        /* \"contracts/Profile.sol\":1135:1145  middleName */\n      dup3\n        /* \"contracts/Profile.sol\":1102:1109  profile */\n      0x00\n        /* \"contracts/Profile.sol\":1102:1121  profile[msg.sender] */\n      dup1\n        /* \"contracts/Profile.sol\":1110:1120  msg.sender */\n      caller\n        /* \"contracts/Profile.sol\":1102:1121  profile[msg.sender] */\n      0xffffffffffffffffffffffffffffffffffffffff\n      and\n      0xffffffffffffffffffffffffffffffffffffffff\n      and\n      dup2\n      mstore\n      0x20\n      add\n      swap1\n      dup2\n      mstore\n      0x20\n      add\n      0x00\n      keccak256\n        /* \"contracts/Profile.sol\":1102:1132  profile[msg.sender].middleName */\n      0x02\n      add\n        /* \"contracts/Profile.sol\":1102:1145  profile[msg.sender].middleName = middleName */\n      swap1\n      dup1\n      mload\n      swap1\n      0x20\n      add\n      swap1\n      tag_75\n      swap3\n      swap2\n      swap1\n      tag_67\n      jump\t// in\n    tag_75:\n      pop\n        /* \"contracts/Profile.sol\":1187:1195  lastName */\n      dup2\n        /* \"contracts/Profile.sol\":1156:1163  profile */\n      0x00\n        /* \"contracts/Profile.sol\":1156:1175  profile[msg.sender] */\n      dup1\n        /* \"contracts/Profile.sol\":1164:1174  msg.sender */\n      caller\n        /* \"contracts/Profile.sol\":1156:1175  profile[msg.sender] */\n      0xffffffffffffffffffffffffffffffffffffffff\n      and\n      0xffffffffffffffffffffffffffffffffffffffff\n      and\n      dup2\n      mstore\n      0x20\n      add\n      swap1\n      dup2\n      mstore\n      0x20\n      add\n      0x00\n      keccak256\n        /* \"contracts/Profile.sol\":1156:1184  profile[msg.sender].lastName */\n      0x03\n      add\n        /* \"contracts/Profile.sol\":1156:1195  profile[msg.sender].lastName = lastName */\n      swap1\n      dup1\n      mload\n      swap1\n      0x20\n      add\n      swap1\n      tag_76\n      swap3\n      swap2\n      swap1\n      tag_67\n      jump\t// in\n    tag_76:\n      pop\n        /* \"contracts/Profile.sol\":1241:1253  profileImage */\n      dup1\n        /* \"contracts/Profile.sol\":1206:1213  profile */\n      0x00\n        /* \"contracts/Profile.sol\":1206:1225  profile[msg.sender] */\n      dup1\n        /* \"contracts/Profile.sol\":1214:1224  msg.sender */\n      caller\n        /* \"contracts/Profile.sol\":1206:1225  profile[msg.sender] */\n      0xffffffffffffffffffffffffffffffffffffffff\n      and\n      0xffffffffffffffffffffffffffffffffffffffff\n      and\n      dup2\n      mstore\n      0x20\n      add\n      swap1\n      dup2\n      mstore\n      0x20\n      add\n      0x00\n      keccak256\n        /* \"contracts/Profile.sol\":1206:1238  profile[msg.sender].profileImage */\n      0x04\n      add\n        /* \"contracts/Profile.sol\":1206:1253  profile[msg.sender].profileImage = profileImage */\n      swap1\n      dup1\n      mload\n      swap1\n      0x20\n      add\n      swap1\n      tag_77\n      swap3\n      swap2\n      swap1\n      tag_67\n      jump\t// in\n    tag_77:\n      pop\n        /* \"contracts/Profile.sol\":1298:1308  msg.sender */\n      caller\n        /* \"contracts/Profile.sol\":1264:1271  profile */\n      0x00\n        /* \"contracts/Profile.sol\":1264:1283  profile[msg.sender] */\n      dup1\n        /* \"contracts/Profile.sol\":1272:1282  msg.sender */\n      caller\n        /* \"contracts/Profile.sol\":1264:1283  profile[msg.sender] */\n      0xffffffffffffffffffffffffffffffffffffffff\n      and\n      0xffffffffffffffffffffffffffffffffffffffff\n      and\n      dup2\n      mstore\n      0x20\n      add\n      swap1\n      dup2\n      mstore\n      0x20\n      add\n      0x00\n      keccak256\n        /* \"contracts/Profile.sol\":1264:1295  profile[msg.sender].userAddress */\n      0x00\n      add\n      0x00\n        /* \"contracts/Profile.sol\":1264:1308  profile[msg.sender].userAddress = msg.sender */\n      0x0100\n      exp\n      dup2\n      sload\n      dup2\n      0xffffffffffffffffffffffffffffffffffffffff\n      mul\n      not\n      and\n      swap1\n      dup4\n      0xffffffffffffffffffffffffffffffffffffffff\n      and\n      mul\n      or\n      swap1\n      sstore\n      pop\n        /* \"contracts/Profile.sol\":1353:1368  block.timestamp */\n      timestamp\n        /* \"contracts/Profile.sol\":1320:1327  profile */\n      0x00\n        /* \"contracts/Profile.sol\":1320:1339  profile[msg.sender] */\n      dup1\n        /* \"contracts/Profile.sol\":1328:1338  msg.sender */\n      caller\n        /* \"contracts/Profile.sol\":1320:1339  profile[msg.sender] */\n      0xffffffffffffffffffffffffffffffffffffffff\n      and\n      0xffffffffffffffffffffffffffffffffffffffff\n      and\n      dup2\n      mstore\n      0x20\n      add\n      swap1\n      dup2\n      mstore\n      0x20\n      add\n      0x00\n      keccak256\n        /* \"contracts/Profile.sol\":1320:1350  profile[msg.sender].createDate */\n      0x05\n      add\n        /* \"contracts/Profile.sol\":1320:1368  profile[msg.sender].createDate = block.timestamp */\n      dup2\n      swap1\n      sstore\n      pop\n        /* \"contracts/Profile.sol\":909:1376  function createBio(string memory firstName, string memory middleName, string memory lastName,  string memory profileImage) public {\r... */\n      pop\n      pop\n      pop\n      pop\n      jump\t// out\n        /* \"contracts/Profile.sol\":2576:2969  function createUnivercity(string memory startDate, string memory endDate, string memory univercity, string memory major) public {\r... */\n    tag_31:\n        /* \"contracts/Profile.sol\":2715:2742  Education memory _education */\n      tag_79\n      tag_80\n      jump\t// in\n    tag_79:\n        /* \"contracts/Profile.sol\":2776:2785  startDate */\n      dup5\n        /* \"contracts/Profile.sol\":2753:2763  _education */\n      dup2\n        /* \"contracts/Profile.sol\":2753:2773  _education.startDate */\n      0x00\n      add\n        /* \"contracts/Profile.sol\":2753:2785  _education.startDate = startDate */\n      dup2\n      swap1\n      mstore\n      pop\n        /* \"contracts/Profile.sol\":2817:2824  endDate */\n      dup4\n        /* \"contracts/Profile.sol\":2796:2806  _education */\n      dup2\n        /* \"contracts/Profile.sol\":2796:2814  _education.endDate */\n      0x20\n      add\n        /* \"contracts/Profile.sol\":2796:2824  _education.endDate = endDate */\n      dup2\n      swap1\n      mstore\n      pop\n        /* \"contracts/Profile.sol\":2859:2869  univercity */\n      dup3\n        /* \"contracts/Profile.sol\":2835:2845  _education */\n      dup2\n        /* \"contracts/Profile.sol\":2835:2856  _education.univercity */\n      0x40\n      add\n        /* \"contracts/Profile.sol\":2835:2869  _education.univercity = univercity */\n      dup2\n      swap1\n      mstore\n      pop\n        /* \"contracts/Profile.sol\":2899:2904  major */\n      dup2\n        /* \"contracts/Profile.sol\":2880:2890  _education */\n      dup2\n        /* \"contracts/Profile.sol\":2880:2896  _education.major */\n      0x60\n      add\n        /* \"contracts/Profile.sol\":2880:2904  _education.major = major */\n      dup2\n      swap1\n      mstore\n      pop\n        /* \"contracts/Profile.sol\":2915:2922  profile */\n      0x00\n        /* \"contracts/Profile.sol\":2915:2934  profile[msg.sender] */\n      dup1\n        /* \"contracts/Profile.sol\":2923:2933  msg.sender */\n      caller\n        /* \"contracts/Profile.sol\":2915:2934  profile[msg.sender] */\n      0xffffffffffffffffffffffffffffffffffffffff\n      and\n      0xffffffffffffffffffffffffffffffffffffffff\n      and\n      dup2\n      mstore\n      0x20\n      add\n      swap1\n      dup2\n      mstore\n      0x20\n      add\n      0x00\n      keccak256\n        /* \"contracts/Profile.sol\":2915:2944  profile[msg.sender].education */\n      0x0f\n      add\n        /* \"contracts/Profile.sol\":2950:2960  _education */\n      dup2\n        /* \"contracts/Profile.sol\":2915:2961  profile[msg.sender].education.push(_education) */\n      swap1\n      dup1\n      0x01\n      dup2\n      sload\n      add\n      dup1\n      dup3\n      sstore\n      dup1\n      swap2\n      pop\n      pop\n      0x01\n      swap1\n      sub\n      swap1\n      0x00\n      mstore\n      keccak256(0x00, 0x20)\n      swap1\n      0x04\n      mul\n      add\n      0x00\n      swap1\n      swap2\n      swap1\n      swap2\n      swap1\n      swap2\n      pop\n      0x00\n      dup3\n      add\n      mload\n      dup2\n      0x00\n      add\n      swap1\n      dup1\n      mload\n      swap1\n      0x20\n      add\n      swap1\n      tag_82\n      swap3\n      swap2\n      swap1\n      tag_67\n      jump\t// in\n    tag_82:\n      pop\n      0x20\n      dup3\n      add\n      mload\n      dup2\n      0x01\n      add\n      swap1\n      dup1\n      mload\n      swap1\n      0x20\n      add\n      swap1\n      tag_83\n      swap3\n      swap2\n      swap1\n      tag_67\n      jump\t// in\n    tag_83:\n      pop\n      0x40\n      dup3\n      add\n      mload\n      dup2\n      0x02\n      add\n      swap1\n      dup1\n      mload\n      swap1\n      0x20\n      add\n      swap1\n      tag_84\n      swap3\n      swap2\n      swap1\n      tag_67\n      jump\t// in\n    tag_84:\n      pop\n      0x60\n      dup3\n      add\n      mload\n      dup2\n      0x03\n      add\n      swap1\n      dup1\n      mload\n      swap1\n      0x20\n      add\n      swap1\n      tag_85\n      swap3\n      swap2\n      swap1\n      tag_67\n      jump\t// in\n    tag_85:\n      pop\n      pop\n      pop\n        /* \"contracts/Profile.sol\":2704:2969  {\r... */\n      pop\n        /* \"contracts/Profile.sol\":2576:2969  function createUnivercity(string memory startDate, string memory endDate, string memory univercity, string memory major) public {\r... */\n      pop\n      pop\n      pop\n      pop\n      jump\t// out\n        /* \"contracts/Profile.sol\":370:410  mapping (address => Bio) public  profile */\n    tag_35:\n      mstore(0x20, 0x00)\n      dup1\n      0x00\n      mstore\n      keccak256(0x00, 0x40)\n      0x00\n      swap2\n      pop\n      swap1\n      pop\n      dup1\n      0x00\n      add\n      0x00\n      swap1\n      sload\n      swap1\n      0x0100\n      exp\n      swap1\n      div\n      0xffffffffffffffffffffffffffffffffffffffff\n      and\n      swap1\n      dup1\n      0x01\n      add\n      dup1\n      sload\n      tag_86\n      swap1\n      tag_87\n      jump\t// in\n    tag_86:\n      dup1\n      0x1f\n      add\n      0x20\n      dup1\n      swap2\n      div\n      mul\n      0x20\n      add\n      mload(0x40)\n      swap1\n      dup2\n      add\n      0x40\n      mstore\n      dup1\n      swap3\n      swap2\n      swap1\n      dup2\n      dup2\n      mstore\n      0x20\n      add\n      dup3\n      dup1\n      sload\n      tag_88\n      swap1\n      tag_87\n      jump\t// in\n    tag_88:\n      dup1\n      iszero\n      tag_89\n      jumpi\n      dup1\n      0x1f\n      lt\n      tag_90\n      jumpi\n      0x0100\n      dup1\n      dup4\n      sload\n      div\n      mul\n      dup4\n      mstore\n      swap2\n      0x20\n      add\n      swap2\n      jump(tag_89)\n    tag_90:\n      dup3\n      add\n      swap2\n      swap1\n      0x00\n      mstore\n      keccak256(0x00, 0x20)\n      swap1\n    tag_91:\n      dup2\n      sload\n      dup2\n      mstore\n      swap1\n      0x01\n      add\n      swap1\n      0x20\n      add\n      dup1\n      dup4\n      gt\n      tag_91\n      jumpi\n      dup3\n      swap1\n      sub\n      0x1f\n      and\n      dup3\n      add\n      swap2\n    tag_89:\n      pop\n      pop\n      pop\n      pop\n      pop\n      swap1\n      dup1\n      0x02\n      add\n      dup1\n      sload\n      tag_92\n      swap1\n      tag_87\n      jump\t// in\n    tag_92:\n      dup1\n      0x1f\n      add\n      0x20\n      dup1\n      swap2\n      div\n      mul\n      0x20\n      add\n      mload(0x40)\n      swap1\n      dup2\n      add\n      0x40\n      mstore\n      dup1\n      swap3\n      swap2\n      swap1\n      dup2\n      dup2\n      mstore\n      0x20\n      add\n      dup3\n      dup1\n      sload\n      tag_93\n      swap1\n      tag_87\n      jump\t// in\n    tag_93:\n      dup1\n      iszero\n      tag_94\n      jumpi\n      dup1\n      0x1f\n      lt\n      tag_95\n      jumpi\n      0x0100\n      dup1\n      dup4\n      sload\n      div\n      mul\n      dup4\n      mstore\n      swap2\n      0x20\n      add\n      swap2\n      jump(tag_94)\n    tag_95:\n      dup3\n      add\n      swap2\n      swap1\n      0x00\n      mstore\n      keccak256(0x00, 0x20)\n      swap1\n    tag_96:\n      dup2\n      sload\n      dup2\n      mstore\n      swap1\n      0x01\n      add\n      swap1\n      0x20\n      add\n      dup1\n      dup4\n      gt\n      tag_96\n      jumpi\n      dup3\n      swap1\n      sub\n      0x1f\n      and\n      dup3\n      add\n      swap2\n    tag_94:\n      pop\n      pop\n      pop\n      pop\n      pop\n      swap1\n      dup1\n      0x03\n      add\n      dup1\n      sload\n      tag_97\n      swap1\n      tag_87\n      jump\t// in\n    tag_97:\n      dup1\n      0x1f\n      add\n      0x20\n      dup1\n      swap2\n      div\n      mul\n      0x20\n      add\n      mload(0x40)\n      swap1\n      dup2\n      add\n      0x40\n      mstore\n      dup1\n      swap3\n      swap2\n      swap1\n      dup2\n      dup2\n      mstore\n      0x20\n      add\n      dup3\n      dup1\n      sload\n      tag_98\n      swap1\n      tag_87\n      jump\t// in\n    tag_98:\n      dup1\n      iszero\n      tag_99\n      jumpi\n      dup1\n      0x1f\n      lt\n      tag_100\n      jumpi\n      0x0100\n      dup1\n      dup4\n      sload\n      div\n      mul\n      dup4\n      mstore\n      swap2\n      0x20\n      add\n      swap2\n      jump(tag_99)\n    tag_100:\n      dup3\n      add\n      swap2\n      swap1\n      0x00\n      mstore\n      keccak256(0x00, 0x20)\n      swap1\n    tag_101:\n      dup2\n      sload\n      dup2\n      mstore\n      swap1\n      0x01\n      add\n      swap1\n      0x20\n      add\n      dup1\n      dup4\n      gt\n      tag_101\n      jumpi\n      dup3\n      swap1\n      sub\n      0x1f\n      and\n      dup3\n      add\n      swap2\n    tag_99:\n      pop\n      pop\n      pop\n      pop\n      pop\n      swap1\n      dup1\n      0x04\n      add\n      dup1\n      sload\n      tag_102\n      swap1\n      tag_87\n      jump\t// in\n    tag_102:\n      dup1\n      0x1f\n      add\n      0x20\n      dup1\n      swap2\n      div\n      mul\n      0x20\n      add\n      mload(0x40)\n      swap1\n      dup2\n      add\n      0x40\n      mstore\n      dup1\n      swap3\n      swap2\n      swap1\n      dup2\n      dup2\n      mstore\n      0x20\n      add\n      dup3\n      dup1\n      sload\n      tag_103\n      swap1\n      tag_87\n      jump\t// in\n    tag_103:\n      dup1\n      iszero\n      tag_104\n      jumpi\n      dup1\n      0x1f\n      lt\n      tag_105\n      jumpi\n      0x0100\n      dup1\n      dup4\n      sload\n      div\n      mul\n      dup4\n      mstore\n      swap2\n      0x20\n      add\n      swap2\n      jump(tag_104)\n    tag_105:\n      dup3\n      add\n      swap2\n      swap1\n      0x00\n      mstore\n      keccak256(0x00, 0x20)\n      swap1\n    tag_106:\n      dup2\n      sload\n      dup2\n      mstore\n      swap1\n      0x01\n      add\n      swap1\n      0x20\n      add\n      dup1\n      dup4\n      gt\n      tag_106\n      jumpi\n      dup3\n      swap1\n      sub\n      0x1f\n      and\n      dup3\n      add\n      swap2\n    tag_104:\n      pop\n      pop\n      pop\n      pop\n      pop\n      swap1\n      dup1\n      0x05\n      add\n      sload\n      swap1\n      dup1\n      0x06\n      add\n      mload(0x40)\n      dup1\n      0xc0\n      add\n      0x40\n      mstore\n      swap1\n      dup2\n      0x00\n      dup3\n      add\n      dup1\n      sload\n      tag_107\n      swap1\n      tag_87\n      jump\t// in\n    tag_107:\n      dup1\n      0x1f\n      add\n      0x20\n      dup1\n      swap2\n      div\n      mul\n      0x20\n      add\n      mload(0x40)\n      swap1\n      dup2\n      add\n      0x40\n      mstore\n      dup1\n      swap3\n      swap2\n      swap1\n      dup2\n      dup2\n      mstore\n      0x20\n      add\n      dup3\n      dup1\n      sload\n      tag_108\n      swap1\n      tag_87\n      jump\t// in\n    tag_108:\n      dup1\n      iszero\n      tag_109\n      jumpi\n      dup1\n      0x1f\n      lt\n      tag_110\n      jumpi\n      0x0100\n      dup1\n      dup4\n      sload\n      div\n      mul\n      dup4\n      mstore\n      swap2\n      0x20\n      add\n      swap2\n      jump(tag_109)\n    tag_110:\n      dup3\n      add\n      swap2\n      swap1\n      0x00\n      mstore\n      keccak256(0x00, 0x20)\n      swap1\n    tag_111:\n      dup2\n      sload\n      dup2\n      mstore\n      swap1\n      0x01\n      add\n      swap1\n      0x20\n      add\n      dup1\n      dup4\n      gt\n      tag_111\n      jumpi\n      dup3\n      swap1\n      sub\n      0x1f\n      and\n      dup3\n      add\n      swap2\n    tag_109:\n      pop\n      pop\n      pop\n      pop\n      pop\n      dup2\n      mstore\n      0x20\n      add\n      0x01\n      dup3\n      add\n      dup1\n      sload\n      tag_112\n      swap1\n      tag_87\n      jump\t// in\n    tag_112:\n      dup1\n      0x1f\n      add\n      0x20\n      dup1\n      swap2\n      div\n      mul\n      0x20\n      add\n      mload(0x40)\n      swap1\n      dup2\n      add\n      0x40\n      mstore\n      dup1\n      swap3\n      swap2\n      swap1\n      dup2\n      dup2\n      mstore\n      0x20\n      add\n      dup3\n      dup1\n      sload\n      tag_113\n      swap1\n      tag_87\n      jump\t// in\n    tag_113:\n      dup1\n      iszero\n      tag_114\n      jumpi\n      dup1\n      0x1f\n      lt\n      tag_115\n      jumpi\n      0x0100\n      dup1\n      dup4\n      sload\n      div\n      mul\n      dup4\n      mstore\n      swap2\n      0x20\n      add\n      swap2\n      jump(tag_114)\n    tag_115:\n      dup3\n      add\n      swap2\n      swap1\n      0x00\n      mstore\n      keccak256(0x00, 0x20)\n      swap1\n    tag_116:\n      dup2\n      sload\n      dup2\n      mstore\n      swap1\n      0x01\n      add\n      swap1\n      0x20\n      add\n      dup1\n      dup4\n      gt\n      tag_116\n      jumpi\n      dup3\n      swap1\n      sub\n      0x1f\n      and\n      dup3\n      add\n      swap2\n    tag_114:\n      pop\n      pop\n      pop\n      pop\n      pop\n      dup2\n      mstore\n      0x20\n      add\n      0x02\n      dup3\n      add\n      dup1\n      sload\n      tag_117\n      swap1\n      tag_87\n      jump\t// in\n    tag_117:\n      dup1\n      0x1f\n      add\n      0x20\n      dup1\n      swap2\n      div\n      mul\n      0x20\n      add\n      mload(0x40)\n      swap1\n      dup2\n      add\n      0x40\n      mstore\n      dup1\n      swap3\n      swap2\n      swap1\n      dup2\n      dup2\n      mstore\n      0x20\n      add\n      dup3\n      dup1\n      sload\n      tag_118\n      swap1\n      tag_87\n      jump\t// in\n    tag_118:\n      dup1\n      iszero\n      tag_119\n      jumpi\n      dup1\n      0x1f\n      lt\n      tag_120\n      jumpi\n      0x0100\n      dup1\n      dup4\n      sload\n      div\n      mul\n      dup4\n      mstore\n      swap2\n      0x20\n      add\n      swap2\n      jump(tag_119)\n    tag_120:\n      dup3\n      add\n      swap2\n      swap1\n      0x00\n      mstore\n      keccak256(0x00, 0x20)\n      swap1\n    tag_121:\n      dup2\n      sload\n      dup2\n      mstore\n      swap1\n      0x01\n      add\n      swap1\n      0x20\n      add\n      dup1\n      dup4\n      gt\n      tag_121\n      jumpi\n      dup3\n      swap1\n      sub\n      0x1f\n      and\n      dup3\n      add\n      swap2\n    tag_119:\n      pop\n      pop\n      pop\n      pop\n      pop\n      dup2\n      mstore\n      0x20\n      add\n      0x03\n      dup3\n      add\n      dup1\n      sload\n      tag_122\n      swap1\n      tag_87\n      jump\t// in\n    tag_122:\n      dup1\n      0x1f\n      add\n      0x20\n      dup1\n      swap2\n      div\n      mul\n      0x20\n      add\n      mload(0x40)\n      swap1\n      dup2\n      add\n      0x40\n      mstore\n      dup1\n      swap3\n      swap2\n      swap1\n      dup2\n      dup2\n      mstore\n      0x20\n      add\n      dup3\n      dup1\n      sload\n      tag_123\n      swap1\n      tag_87\n      jump\t// in\n    tag_123:\n      dup1\n      iszero\n      tag_124\n      jumpi\n      dup1\n      0x1f\n      lt\n      tag_125\n      jumpi\n      0x0100\n      dup1\n      dup4\n      sload\n      div\n      mul\n      dup4\n      mstore\n      swap2\n      0x20\n      add\n      swap2\n      jump(tag_124)\n    tag_125:\n      dup3\n      add\n      swap2\n      swap1\n      0x00\n      mstore\n      keccak256(0x00, 0x20)\n      swap1\n    tag_126:\n      dup2\n      sload\n      dup2\n      mstore\n      swap1\n      0x01\n      add\n      swap1\n      0x20\n      add\n      dup1\n      dup4\n      gt\n      tag_126\n      jumpi\n      dup3\n      swap1\n      sub\n      0x1f\n      and\n      dup3\n      add\n      swap2\n    tag_124:\n      pop\n      pop\n      pop\n      pop\n      pop\n      dup2\n      mstore\n      0x20\n      add\n      0x04\n      dup3\n      add\n      dup1\n      sload\n      tag_127\n      swap1\n      tag_87\n      jump\t// in\n    tag_127:\n      dup1\n      0x1f\n      add\n      0x20\n      dup1\n      swap2\n      div\n      mul\n      0x20\n      add\n      mload(0x40)\n      swap1\n      dup2\n      add\n      0x40\n      mstore\n      dup1\n      swap3\n      swap2\n      swap1\n      dup2\n      dup2\n      mstore\n      0x20\n      add\n      dup3\n      dup1\n      sload\n      tag_128\n      swap1\n      tag_87\n      jump\t// in\n    tag_128:\n      dup1\n      iszero\n      tag_129\n      jumpi\n      dup1\n      0x1f\n      lt\n      tag_130\n      jumpi\n      0x0100\n      dup1\n      dup4\n      sload\n      div\n      mul\n      dup4\n      mstore\n      swap2\n      0x20\n      add\n      swap2\n      jump(tag_129)\n    tag_130:\n      dup3\n      add\n      swap2\n      swap1\n      0x00\n      mstore\n      keccak256(0x00, 0x20)\n      swap1\n    tag_131:\n      dup2\n      sload\n      dup2\n      mstore\n      swap1\n      0x01\n      add\n      swap1\n      0x20\n      add\n      dup1\n      dup4\n      gt\n      tag_131\n      jumpi\n      dup3\n      swap1\n      sub\n      0x1f\n      and\n      dup3\n      add\n      swap2\n    tag_129:\n      pop\n      pop\n      pop\n      pop\n      pop\n      dup2\n      mstore\n      0x20\n      add\n      0x05\n      dup3\n      add\n      dup1\n      sload\n      tag_132\n      swap1\n      tag_87\n      jump\t// in\n    tag_132:\n      dup1\n      0x1f\n      add\n      0x20\n      dup1\n      swap2\n      div\n      mul\n      0x20\n      add\n      mload(0x40)\n      swap1\n      dup2\n      add\n      0x40\n      mstore\n      dup1\n      swap3\n      swap2\n      swap1\n      dup2\n      dup2\n      mstore\n      0x20\n      add\n      dup3\n      dup1\n      sload\n      tag_133\n      swap1\n      tag_87\n      jump\t// in\n    tag_133:\n      dup1\n      iszero\n      tag_134\n      jumpi\n      dup1\n      0x1f\n      lt\n      tag_135\n      jumpi\n      0x0100\n      dup1\n      dup4\n      sload\n      div\n      mul\n      dup4\n      mstore\n      swap2\n      0x20\n      add\n      swap2\n      jump(tag_134)\n    tag_135:\n      dup3\n      add\n      swap2\n      swap1\n      0x00\n      mstore\n      keccak256(0x00, 0x20)\n      swap1\n    tag_136:\n      dup2\n      sload\n      dup2\n      mstore\n      swap1\n      0x01\n      add\n      swap1\n      0x20\n      add\n      dup1\n      dup4\n      gt\n      tag_136\n      jumpi\n      dup3\n      swap1\n      sub\n      0x1f\n      and\n      dup3\n      add\n      swap2\n    tag_134:\n      pop\n      pop\n      pop\n      pop\n      pop\n      dup2\n      mstore\n      pop\n      pop\n      swap1\n      dup1\n      0x0c\n      add\n      mload(0x40)\n      dup1\n      0x60\n      add\n      0x40\n      mstore\n      swap1\n      dup2\n      0x00\n      dup3\n      add\n      dup1\n      sload\n      dup1\n      0x20\n      mul\n      0x20\n      add\n      mload(0x40)\n      swap1\n      dup2\n      add\n      0x40\n      mstore\n      dup1\n      swap3\n      swap2\n      swap1\n      dup2\n      dup2\n      mstore\n      0x20\n      add\n      0x00\n      swap1\n    tag_137:\n      dup3\n      dup3\n      lt\n      iszero\n      tag_138\n      jumpi\n      dup4\n      dup3\n      swap1\n      0x00\n      mstore\n      keccak256(0x00, 0x20)\n      add\n      dup1\n      sload\n      tag_140\n      swap1\n      tag_87\n      jump\t// in\n    tag_140:\n      dup1\n      0x1f\n      add\n      0x20\n      dup1\n      swap2\n      div\n      mul\n      0x20\n      add\n      mload(0x40)\n      swap1\n      dup2\n      add\n      0x40\n      mstore\n      dup1\n      swap3\n      swap2\n      swap1\n      dup2\n      dup2\n      mstore\n      0x20\n      add\n      dup3\n      dup1\n      sload\n      tag_141\n      swap1\n      tag_87\n      jump\t// in\n    tag_141:\n      dup1\n      iszero\n      tag_142\n      jumpi\n      dup1\n      0x1f\n      lt\n      tag_143\n      jumpi\n      0x0100\n      dup1\n      dup4\n      sload\n      div\n      mul\n      dup4\n      mstore\n      swap2\n      0x20\n      add\n      swap2\n      jump(tag_142)\n    tag_143:\n      dup3\n      add\n      swap2\n      swap1\n      0x00\n      mstore\n      keccak256(0x00, 0x20)\n      swap1\n    tag_144:\n      dup2\n      sload\n      dup2\n      mstore\n      swap1\n      0x01\n      add\n      swap1\n      0x20\n      add\n      dup1\n      dup4\n      gt\n      tag_144\n      jumpi\n      dup3\n      swap1\n      sub\n      0x1f\n      and\n      dup3\n      add\n      swap2\n    tag_142:\n      pop\n      pop\n      pop\n      pop\n      pop\n      dup2\n      mstore\n      0x20\n      add\n      swap1\n      0x01\n      add\n      swap1\n      jump(tag_137)\n    tag_138:\n      pop\n      pop\n      pop\n      pop\n      dup2\n      mstore\n      0x20\n      add\n      0x01\n      dup3\n      add\n      dup1\n      sload\n      dup1\n      0x20\n      mul\n      0x20\n      add\n      mload(0x40)\n      swap1\n      dup2\n      add\n      0x40\n      mstore\n      dup1\n      swap3\n      swap2\n      swap1\n      dup2\n      dup2\n      mstore\n      0x20\n      add\n      0x00\n      swap1\n    tag_145:\n      dup3\n      dup3\n      lt\n      iszero\n      tag_146\n      jumpi\n      dup4\n      dup3\n      swap1\n      0x00\n      mstore\n      keccak256(0x00, 0x20)\n      add\n      dup1\n      sload\n      tag_148\n      swap1\n      tag_87\n      jump\t// in\n    tag_148:\n      dup1\n      0x1f\n      add\n      0x20\n      dup1\n      swap2\n      div\n      mul\n      0x20\n      add\n      mload(0x40)\n      swap1\n      dup2\n      add\n      0x40\n      mstore\n      dup1\n      swap3\n      swap2\n      swap1\n      dup2\n      dup2\n      mstore\n      0x20\n      add\n      dup3\n      dup1\n      sload\n      tag_149\n      swap1\n      tag_87\n      jump\t// in\n    tag_149:\n      dup1\n      iszero\n      tag_150\n      jumpi\n      dup1\n      0x1f\n      lt\n      tag_151\n      jumpi\n      0x0100\n      dup1\n      dup4\n      sload\n      div\n      mul\n      dup4\n      mstore\n      swap2\n      0x20\n      add\n      swap2\n      jump(tag_150)\n    tag_151:\n      dup3\n      add\n      swap2\n      swap1\n      0x00\n      mstore\n      keccak256(0x00, 0x20)\n      swap1\n    tag_152:\n      dup2\n      sload\n      dup2\n      mstore\n      swap1\n      0x01\n      add\n      swap1\n      0x20\n      add\n      dup1\n      dup4\n      gt\n      tag_152\n      jumpi\n      dup3\n      swap1\n      sub\n      0x1f\n      and\n      dup3\n      add\n      swap2\n    tag_150:\n      pop\n      pop\n      pop\n      pop\n      pop\n      dup2\n      mstore\n      0x20\n      add\n      swap1\n      0x01\n      add\n      swap1\n      jump(tag_145)\n    tag_146:\n      pop\n      pop\n      pop\n      pop\n      dup2\n      mstore\n      0x20\n      add\n      0x02\n      dup3\n      add\n      dup1\n      sload\n      dup1\n      0x20\n      mul\n      0x20\n      add\n      mload(0x40)\n      swap1\n      dup2\n      add\n      0x40\n      mstore\n      dup1\n      swap3\n      swap2\n      swap1\n      dup2\n      dup2\n      mstore\n      0x20\n      add\n      0x00\n      swap1\n    tag_153:\n      dup3\n      dup3\n      lt\n      iszero\n      tag_154\n      jumpi\n      dup4\n      dup3\n      swap1\n      0x00\n      mstore\n      keccak256(0x00, 0x20)\n      add\n      dup1\n      sload\n      tag_156\n      swap1\n      tag_87\n      jump\t// in\n    tag_156:\n      dup1\n      0x1f\n      add\n      0x20\n      dup1\n      swap2\n      div\n      mul\n      0x20\n      add\n      mload(0x40)\n      swap1\n      dup2\n      add\n      0x40\n      mstore\n      dup1\n      swap3\n      swap2\n      swap1\n      dup2\n      dup2\n      mstore\n      0x20\n      add\n      dup3\n      dup1\n      sload\n      tag_157\n      swap1\n      tag_87\n      jump\t// in\n    tag_157:\n      dup1\n      iszero\n      tag_158\n      jumpi\n      dup1\n      0x1f\n      lt\n      tag_159\n      jumpi\n      0x0100\n      dup1\n      dup4\n      sload\n      div\n      mul\n      dup4\n      mstore\n      swap2\n      0x20\n      add\n      swap2\n      jump(tag_158)\n    tag_159:\n      dup3\n      add\n      swap2\n      swap1\n      0x00\n      mstore\n      keccak256(0x00, 0x20)\n      swap1\n    tag_160:\n      dup2\n      sload\n      dup2\n      mstore\n      swap1\n      0x01\n      add\n      swap1\n      0x20\n      add\n      dup1\n      dup4\n      gt\n      tag_160\n      jumpi\n      dup3\n      swap1\n      sub\n      0x1f\n      and\n      dup3\n      add\n      swap2\n    tag_158:\n      pop\n      pop\n      pop\n      pop\n      pop\n      dup2\n      mstore\n      0x20\n      add\n      swap1\n      0x01\n      add\n      swap1\n      jump(tag_153)\n    tag_154:\n      pop\n      pop\n      pop\n      pop\n      dup2\n      mstore\n      pop\n      pop\n      swap1\n      pop\n      dup9\n      jump\t// out\n        /* \"contracts/Profile.sol\":3439:3531  function delAllEducation() external  {\r... */\n    tag_39:\n        /* \"contracts/Profile.sol\":3494:3501  profile */\n      0x00\n        /* \"contracts/Profile.sol\":3494:3513  profile[msg.sender] */\n      dup1\n        /* \"contracts/Profile.sol\":3502:3512  msg.sender */\n      caller\n        /* \"contracts/Profile.sol\":3494:3513  profile[msg.sender] */\n      0xffffffffffffffffffffffffffffffffffffffff\n      and\n      0xffffffffffffffffffffffffffffffffffffffff\n      and\n      dup2\n      mstore\n      0x20\n      add\n      swap1\n      dup2\n      mstore\n      0x20\n      add\n      0x00\n      keccak256\n        /* \"contracts/Profile.sol\":3494:3523  profile[msg.sender].education */\n      0x0f\n      add\n      0x00\n        /* \"contracts/Profile.sol\":3487:3523  delete profile[msg.sender].education */\n      tag_162\n      swap2\n      swap1\n      tag_163\n      jump\t// in\n    tag_162:\n        /* \"contracts/Profile.sol\":3439:3531  function delAllEducation() external  {\r... */\n      jump\t// out\n        /* \"contracts/Profile.sol\":2978:3305  function getEducation(uint index) public view returns(string memory, string memory, string memory, string memory) {\r... */\n    tag_43:\n        /* \"contracts/Profile.sol\":3032:3045  string memory */\n      0x60\n        /* \"contracts/Profile.sol\":3047:3060  string memory */\n      dup1\n        /* \"contracts/Profile.sol\":3062:3075  string memory */\n      0x60\n        /* \"contracts/Profile.sol\":3077:3090  string memory */\n      dup1\n        /* \"contracts/Profile.sol\":3111:3118  profile */\n      0x00\n        /* \"contracts/Profile.sol\":3111:3130  profile[msg.sender] */\n      dup1\n        /* \"contracts/Profile.sol\":3119:3129  msg.sender */\n      caller\n        /* \"contracts/Profile.sol\":3111:3130  profile[msg.sender] */\n      0xffffffffffffffffffffffffffffffffffffffff\n      and\n      0xffffffffffffffffffffffffffffffffffffffff\n      and\n      dup2\n      mstore\n      0x20\n      add\n      swap1\n      dup2\n      mstore\n      0x20\n      add\n      0x00\n      keccak256\n        /* \"contracts/Profile.sol\":3111:3140  profile[msg.sender].education */\n      0x0f\n      add\n        /* \"contracts/Profile.sol\":3141:3146  index */\n      dup6\n        /* \"contracts/Profile.sol\":3111:3147  profile[msg.sender].education[index] */\n      dup2\n      sload\n      dup2\n      lt\n      tag_165\n      jumpi\n      tag_166\n      tag_167\n      jump\t// in\n    tag_166:\n    tag_165:\n      swap1\n      0x00\n      mstore\n      keccak256(0x00, 0x20)\n      swap1\n      0x04\n      mul\n      add\n        /* \"contracts/Profile.sol\":3111:3157  profile[msg.sender].education[index].startDate */\n      0x00\n      add\n        /* \"contracts/Profile.sol\":3159:3166  profile */\n      0x00\n        /* \"contracts/Profile.sol\":3159:3178  profile[msg.sender] */\n      dup1\n        /* \"contracts/Profile.sol\":3167:3177  msg.sender */\n      caller\n        /* \"contracts/Profile.sol\":3159:3178  profile[msg.sender] */\n      0xffffffffffffffffffffffffffffffffffffffff\n      and\n      0xffffffffffffffffffffffffffffffffffffffff\n      and\n      dup2\n      mstore\n      0x20\n      add\n      swap1\n      dup2\n      mstore\n      0x20\n      add\n      0x00\n      keccak256\n        /* \"contracts/Profile.sol\":3159:3188  profile[msg.sender].education */\n      0x0f\n      add\n        /* \"contracts/Profile.sol\":3189:3194  index */\n      dup7\n        /* \"contracts/Profile.sol\":3159:3195  profile[msg.sender].education[index] */\n      dup2\n      sload\n      dup2\n      lt\n      tag_169\n      jumpi\n      tag_170\n      tag_167\n      jump\t// in\n    tag_170:\n    tag_169:\n      swap1\n      0x00\n      mstore\n      keccak256(0x00, 0x20)\n      swap1\n      0x04\n      mul\n      add\n        /* \"contracts/Profile.sol\":3159:3203  profile[msg.sender].education[index].endDate */\n      0x01\n      add\n        /* \"contracts/Profile.sol\":3205:3212  profile */\n      0x00\n        /* \"contracts/Profile.sol\":3205:3224  profile[msg.sender] */\n      dup1\n        /* \"contracts/Profile.sol\":3213:3223  msg.sender */\n      caller\n        /* \"contracts/Profile.sol\":3205:3224  profile[msg.sender] */\n      0xffffffffffffffffffffffffffffffffffffffff\n      and\n      0xffffffffffffffffffffffffffffffffffffffff\n      and\n      dup2\n      mstore\n      0x20\n      add\n      swap1\n      dup2\n      mstore\n      0x20\n      add\n      0x00\n      keccak256\n        /* \"contracts/Profile.sol\":3205:3234  profile[msg.sender].education */\n      0x0f\n      add\n        /* \"contracts/Profile.sol\":3235:3240  index */\n      dup8\n        /* \"contracts/Profile.sol\":3205:3241  profile[msg.sender].education[index] */\n      dup2\n      sload\n      dup2\n      lt\n      tag_172\n      jumpi\n      tag_173\n      tag_167\n      jump\t// in\n    tag_173:\n    tag_172:\n      swap1\n      0x00\n      mstore\n      keccak256(0x00, 0x20)\n      swap1\n      0x04\n      mul\n      add\n        /* \"contracts/Profile.sol\":3205:3252  profile[msg.sender].education[index].univercity */\n      0x02\n      add\n        /* \"contracts/Profile.sol\":3254:3261  profile */\n      0x00\n        /* \"contracts/Profile.sol\":3254:3273  profile[msg.sender] */\n      dup1\n        /* \"contracts/Profile.sol\":3262:3272  msg.sender */\n      caller\n        /* \"contracts/Profile.sol\":3254:3273  profile[msg.sender] */\n      0xffffffffffffffffffffffffffffffffffffffff\n      and\n      0xffffffffffffffffffffffffffffffffffffffff\n      and\n      dup2\n      mstore\n      0x20\n      add\n      swap1\n      dup2\n      mstore\n      0x20\n      add\n      0x00\n      keccak256\n        /* \"contracts/Profile.sol\":3254:3283  profile[msg.sender].education */\n      0x0f\n      add\n        /* \"contracts/Profile.sol\":3284:3289  index */\n      dup9\n        /* \"contracts/Profile.sol\":3254:3290  profile[msg.sender].education[index] */\n      dup2\n      sload\n      dup2\n      lt\n      tag_175\n      jumpi\n      tag_176\n      tag_167\n      jump\t// in\n    tag_176:\n    tag_175:\n      swap1\n      0x00\n      mstore\n      keccak256(0x00, 0x20)\n      swap1\n      0x04\n      mul\n      add\n        /* \"contracts/Profile.sol\":3254:3296  profile[msg.sender].education[index].major */\n      0x03\n      add\n        /* \"contracts/Profile.sol\":3103:3297  return (profile[msg.sender].education[index].startDate, profile[msg.sender].education[index].endDate, profile[msg.sender].education[index].univercity, profile[msg.sender].education[index].major) */\n      dup4\n      dup1\n      sload\n      tag_178\n      swap1\n      tag_87\n      jump\t// in\n    tag_178:\n      dup1\n      0x1f\n      add\n      0x20\n      dup1\n      swap2\n      div\n      mul\n      0x20\n      add\n      mload(0x40)\n      swap1\n      dup2\n      add\n      0x40\n      mstore\n      dup1\n      swap3\n      swap2\n      swap1\n      dup2\n      dup2\n      mstore\n      0x20\n      add\n      dup3\n      dup1\n      sload\n      tag_179\n      swap1\n      tag_87\n      jump\t// in\n    tag_179:\n      dup1\n      iszero\n      tag_180\n      jumpi\n      dup1\n      0x1f\n      lt\n      tag_181\n      jumpi\n      0x0100\n      dup1\n      dup4\n      sload\n      div\n      mul\n      dup4\n      mstore\n      swap2\n      0x20\n      add\n      swap2\n      jump(tag_180)\n    tag_181:\n      dup3\n      add\n      swap2\n      swap1\n      0x00\n      mstore\n      keccak256(0x00, 0x20)\n      swap1\n    tag_182:\n      dup2\n      sload\n      dup2\n      mstore\n      swap1\n      0x01\n      add\n      swap1\n      0x20\n      add\n      dup1\n      dup4\n      gt\n      tag_182\n      jumpi\n      dup3\n      swap1\n      sub\n      0x1f\n      and\n      dup3\n      add\n      swap2\n    tag_180:\n      pop\n      pop\n      pop\n      pop\n      pop\n      swap4\n      pop\n      dup3\n      dup1\n      sload\n      tag_183\n      swap1\n      tag_87\n      jump\t// in\n    tag_183:\n      dup1\n      0x1f\n      add\n      0x20\n      dup1\n      swap2\n      div\n      mul\n      0x20\n      add\n      mload(0x40)\n      swap1\n      dup2\n      add\n      0x40\n      mstore\n      dup1\n      swap3\n      swap2\n      swap1\n      dup2\n      dup2\n      mstore\n      0x20\n      add\n      dup3\n      dup1\n      sload\n      tag_184\n      swap1\n      tag_87\n      jump\t// in\n    tag_184:\n      dup1\n      iszero\n      tag_185\n      jumpi\n      dup1\n      0x1f\n      lt\n      tag_186\n      jumpi\n      0x0100\n      dup1\n      dup4\n      sload\n      div\n      mul\n      dup4\n      mstore\n      swap2\n      0x20\n      add\n      swap2\n      jump(tag_185)\n    tag_186:\n      dup3\n      add\n      swap2\n      swap1\n      0x00\n      mstore\n      keccak256(0x00, 0x20)\n      swap1\n    tag_187:\n      dup2\n      sload\n      dup2\n      mstore\n      swap1\n      0x01\n      add\n      swap1\n      0x20\n      add\n      dup1\n      dup4\n      gt\n      tag_187\n      jumpi\n      dup3\n      swap1\n      sub\n      0x1f\n      and\n      dup3\n      add\n      swap2\n    tag_185:\n      pop\n      pop\n      pop\n      pop\n      pop\n      swap3\n      pop\n      dup2\n      dup1\n      sload\n      tag_188\n      swap1\n      tag_87\n      jump\t// in\n    tag_188:\n      dup1\n      0x1f\n      add\n      0x20\n      dup1\n      swap2\n      div\n      mul\n      0x20\n      add\n      mload(0x40)\n      swap1\n      dup2\n      add\n      0x40\n      mstore\n      dup1\n      swap3\n      swap2\n      swap1\n      dup2\n      dup2\n      mstore\n      0x20\n      add\n      dup3\n      dup1\n      sload\n      tag_189\n      swap1\n      tag_87\n      jump\t// in\n    tag_189:\n      dup1\n      iszero\n      tag_190\n      jumpi\n      dup1\n      0x1f\n      lt\n      tag_191\n      jumpi\n      0x0100\n      dup1\n      dup4\n      sload\n      div\n      mul\n      dup4\n      mstore\n      swap2\n      0x20\n      add\n      swap2\n      jump(tag_190)\n    tag_191:\n      dup3\n      add\n      swap2\n      swap1\n      0x00\n      mstore\n      keccak256(0x00, 0x20)\n      swap1\n    tag_192:\n      dup2\n      sload\n      dup2\n      mstore\n      swap1\n      0x01\n      add\n      swap1\n      0x20\n      add\n      dup1\n      dup4\n      gt\n      tag_192\n      jumpi\n      dup3\n      swap1\n      sub\n      0x1f\n      and\n      dup3\n      add\n      swap2\n    tag_190:\n      pop\n      pop\n      pop\n      pop\n      pop\n      swap2\n      pop\n      dup1\n      dup1\n      sload\n      tag_193\n      swap1\n      tag_87\n      jump\t// in\n    tag_193:\n      dup1\n      0x1f\n      add\n      0x20\n      dup1\n      swap2\n      div\n      mul\n      0x20\n      add\n      mload(0x40)\n      swap1\n      dup2\n      add\n      0x40\n      mstore\n      dup1\n      swap3\n      swap2\n      swap1\n      dup2\n      dup2\n      mstore\n      0x20\n      add\n      dup3\n      dup1\n      sload\n      tag_194\n      swap1\n      tag_87\n      jump\t// in\n    tag_194:\n      dup1\n      iszero\n      tag_195\n      jumpi\n      dup1\n      0x1f\n      lt\n      tag_196\n      jumpi\n      0x0100\n      dup1\n      dup4\n      sload\n      div\n      mul\n      dup4\n      mstore\n      swap2\n      0x20\n      add\n      swap2\n      jump(tag_195)\n    tag_196:\n      dup3\n      add\n      swap2\n      swap1\n      0x00\n      mstore\n      keccak256(0x00, 0x20)\n      swap1\n    tag_197:\n      dup2\n      sload\n      dup2\n      mstore\n      swap1\n      0x01\n      add\n      swap1\n      0x20\n      add\n      dup1\n      dup4\n      gt\n      tag_197\n      jumpi\n      dup3\n      swap1\n      sub\n      0x1f\n      and\n      dup3\n      add\n      swap2\n    tag_195:\n      pop\n      pop\n      pop\n      pop\n      pop\n      swap1\n      pop\n      swap4\n      pop\n      swap4\n      pop\n      swap4\n      pop\n      swap4\n      pop\n        /* \"contracts/Profile.sol\":2978:3305  function getEducation(uint index) public view returns(string memory, string memory, string memory, string memory) {\r... */\n      swap2\n      swap4\n      pop\n      swap2\n      swap4\n      jump\t// out\n        /* \"contracts/Profile.sol\":3539:3615  function delProfile() external {\r... */\n    tag_47:\n        /* \"contracts/Profile.sol\":3588:3595  profile */\n      0x00\n        /* \"contracts/Profile.sol\":3588:3607  profile[msg.sender] */\n      dup1\n        /* \"contracts/Profile.sol\":3596:3606  msg.sender */\n      caller\n        /* \"contracts/Profile.sol\":3588:3607  profile[msg.sender] */\n      0xffffffffffffffffffffffffffffffffffffffff\n      and\n      0xffffffffffffffffffffffffffffffffffffffff\n      and\n      dup2\n      mstore\n      0x20\n      add\n      swap1\n      dup2\n      mstore\n      0x20\n      add\n      0x00\n      keccak256\n      0x00\n        /* \"contracts/Profile.sol\":3581:3607  delete profile[msg.sender] */\n      dup1\n      dup3\n      add\n      exp(0x0100, 0x00)\n      dup2\n      sload\n      swap1\n      0xffffffffffffffffffffffffffffffffffffffff\n      mul\n      not\n      and\n      swap1\n      sstore\n      0x01\n      dup3\n      add\n      0x00\n      tag_199\n      swap2\n      swap1\n      tag_60\n      jump\t// in\n    tag_199:\n      0x02\n      dup3\n      add\n      0x00\n      tag_200\n      swap2\n      swap1\n      tag_60\n      jump\t// in\n    tag_200:\n      0x03\n      dup3\n      add\n      0x00\n      tag_201\n      swap2\n      swap1\n      tag_60\n      jump\t// in\n    tag_201:\n      0x04\n      dup3\n      add\n      0x00\n      tag_202\n      swap2\n      swap1\n      tag_60\n      jump\t// in\n    tag_202:\n      0x05\n      dup3\n      add\n      0x00\n      swap1\n      sstore\n      0x06\n      dup3\n      add\n      0x00\n      dup1\n      dup3\n      add\n      0x00\n      tag_203\n      swap2\n      swap1\n      tag_60\n      jump\t// in\n    tag_203:\n      0x01\n      dup3\n      add\n      0x00\n      tag_204\n      swap2\n      swap1\n      tag_60\n      jump\t// in\n    tag_204:\n      0x02\n      dup3\n      add\n      0x00\n      tag_205\n      swap2\n      swap1\n      tag_60\n      jump\t// in\n    tag_205:\n      0x03\n      dup3\n      add\n      0x00\n      tag_206\n      swap2\n      swap1\n      tag_60\n      jump\t// in\n    tag_206:\n      0x04\n      dup3\n      add\n      0x00\n      tag_207\n      swap2\n      swap1\n      tag_60\n      jump\t// in\n    tag_207:\n      0x05\n      dup3\n      add\n      0x00\n      tag_208\n      swap2\n      swap1\n      tag_60\n      jump\t// in\n    tag_208:\n      pop\n      pop\n      0x0c\n      dup3\n      add\n      0x00\n      dup1\n      dup3\n      add\n      0x00\n      tag_209\n      swap2\n      swap1\n      tag_50\n      jump\t// in\n    tag_209:\n      0x01\n      dup3\n      add\n      0x00\n      tag_210\n      swap2\n      swap1\n      tag_50\n      jump\t// in\n    tag_210:\n      0x02\n      dup3\n      add\n      0x00\n      tag_211\n      swap2\n      swap1\n      tag_50\n      jump\t// in\n    tag_211:\n      pop\n      pop\n      0x0f\n      dup3\n      add\n      0x00\n      tag_212\n      swap2\n      swap1\n      tag_163\n      jump\t// in\n    tag_212:\n      pop\n      pop\n        /* \"contracts/Profile.sol\":3539:3615  function delProfile() external {\r... */\n      jump\t// out\n    tag_50:\n      pop\n      dup1\n      sload\n      0x00\n      dup3\n      sstore\n      swap1\n      0x00\n      mstore\n      keccak256(0x00, 0x20)\n      swap1\n      dup2\n      add\n      swap1\n      tag_214\n      swap2\n      swap1\n      tag_215\n      jump\t// in\n    tag_214:\n      pop\n      jump\t// out\n    tag_54:\n      dup3\n      dup1\n      sload\n      dup3\n      dup3\n      sstore\n      swap1\n      0x00\n      mstore\n      keccak256(0x00, 0x20)\n      swap1\n      dup2\n      add\n      swap3\n      dup3\n      iszero\n      tag_216\n      jumpi\n      swap2\n      0x20\n      mul\n      dup3\n      add\n    tag_217:\n      dup3\n      dup2\n      gt\n      iszero\n      tag_218\n      jumpi\n      dup3\n      mload\n      dup3\n      swap1\n      dup1\n      mload\n      swap1\n      0x20\n      add\n      swap1\n      tag_219\n      swap3\n      swap2\n      swap1\n      tag_67\n      jump\t// in\n    tag_219:\n      pop\n      swap2\n      0x20\n      add\n      swap2\n      swap1\n      0x01\n      add\n      swap1\n      jump(tag_217)\n    tag_218:\n    tag_216:\n      pop\n      swap1\n      pop\n      tag_220\n      swap2\n      swap1\n      tag_215\n      jump\t// in\n    tag_220:\n      pop\n      swap1\n      jump\t// out\n    tag_60:\n      pop\n      dup1\n      sload\n      tag_221\n      swap1\n      tag_87\n      jump\t// in\n    tag_221:\n      0x00\n      dup3\n      sstore\n      dup1\n      0x1f\n      lt\n      tag_223\n      jumpi\n      pop\n      jump(tag_222)\n    tag_223:\n      0x1f\n      add\n      0x20\n      swap1\n      div\n      swap1\n      0x00\n      mstore\n      keccak256(0x00, 0x20)\n      swap1\n      dup2\n      add\n      swap1\n      tag_224\n      swap2\n      swap1\n      tag_225\n      jump\t// in\n    tag_224:\n    tag_222:\n      pop\n      jump\t// out\n    tag_67:\n      dup3\n      dup1\n      sload\n      tag_226\n      swap1\n      tag_87\n      jump\t// in\n    tag_226:\n      swap1\n      0x00\n      mstore\n      keccak256(0x00, 0x20)\n      swap1\n      0x1f\n      add\n      0x20\n      swap1\n      div\n      dup2\n      add\n      swap3\n      dup3\n      tag_228\n      jumpi\n      0x00\n      dup6\n      sstore\n      jump(tag_227)\n    tag_228:\n      dup3\n      0x1f\n      lt\n      tag_229\n      jumpi\n      dup1\n      mload\n      not(0xff)\n      and\n      dup4\n      dup1\n      add\n      or\n      dup6\n      sstore\n      jump(tag_227)\n    tag_229:\n      dup3\n      dup1\n      add\n      0x01\n      add\n      dup6\n      sstore\n      dup3\n      iszero\n      tag_227\n      jumpi\n      swap2\n      dup3\n      add\n    tag_230:\n      dup3\n      dup2\n      gt\n      iszero\n      tag_231\n      jumpi\n      dup3\n      mload\n      dup3\n      sstore\n      swap2\n      0x20\n      add\n      swap2\n      swap1\n      0x01\n      add\n      swap1\n      jump(tag_230)\n    tag_231:\n    tag_227:\n      pop\n      swap1\n      pop\n      tag_232\n      swap2\n      swap1\n      tag_225\n      jump\t// in\n    tag_232:\n      pop\n      swap1\n      jump\t// out\n    tag_80:\n      mload(0x40)\n      dup1\n      0x80\n      add\n      0x40\n      mstore\n      dup1\n      0x60\n      dup2\n      mstore\n      0x20\n      add\n      0x60\n      dup2\n      mstore\n      0x20\n      add\n      0x60\n      dup2\n      mstore\n      0x20\n      add\n      0x60\n      dup2\n      mstore\n      pop\n      swap1\n      jump\t// out\n    tag_163:\n      pop\n      dup1\n      sload\n      0x00\n      dup3\n      sstore\n      0x04\n      mul\n      swap1\n      0x00\n      mstore\n      keccak256(0x00, 0x20)\n      swap1\n      dup2\n      add\n      swap1\n      tag_234\n      swap2\n      swap1\n      tag_235\n      jump\t// in\n    tag_234:\n      pop\n      jump\t// out\n    tag_215:\n    tag_236:\n      dup1\n      dup3\n      gt\n      iszero\n      tag_237\n      jumpi\n      0x00\n      dup2\n      dup2\n      tag_238\n      swap2\n      swap1\n      tag_60\n      jump\t// in\n    tag_238:\n      pop\n      0x01\n      add\n      jump(tag_236)\n    tag_237:\n      pop\n      swap1\n      jump\t// out\n    tag_225:\n    tag_239:\n      dup1\n      dup3\n      gt\n      iszero\n      tag_240\n      jumpi\n      0x00\n      dup2\n      0x00\n      swap1\n      sstore\n      pop\n      0x01\n      add\n      jump(tag_239)\n    tag_240:\n      pop\n      swap1\n      jump\t// out\n    tag_235:\n    tag_241:\n      dup1\n      dup3\n      gt\n      iszero\n      tag_242\n      jumpi\n      0x00\n      dup1\n      dup3\n      add\n      0x00\n      tag_243\n      swap2\n      swap1\n      tag_60\n      jump\t// in\n    tag_243:\n      0x01\n      dup3\n      add\n      0x00\n      tag_244\n      swap2\n      swap1\n      tag_60\n      jump\t// in\n    tag_244:\n      0x02\n      dup3\n      add\n      0x00\n      tag_245\n      swap2\n      swap1\n      tag_60\n      jump\t// in\n    tag_245:\n      0x03\n      dup3\n      add\n      0x00\n      tag_246\n      swap2\n      swap1\n      tag_60\n      jump\t// in\n    tag_246:\n      pop\n      0x04\n      add\n      jump(tag_241)\n    tag_242:\n      pop\n      swap1\n      jump\t// out\n        /* \"#utility.yul\":23:980   */\n    tag_248:\n        /* \"#utility.yul\":129:134   */\n      0x00\n        /* \"#utility.yul\":154:245   */\n      tag_250\n        /* \"#utility.yul\":170:244   */\n      tag_251\n        /* \"#utility.yul\":237:243   */\n      dup5\n        /* \"#utility.yul\":170:244   */\n      tag_252\n      jump\t// in\n    tag_251:\n        /* \"#utility.yul\":154:245   */\n      tag_253\n      jump\t// in\n    tag_250:\n        /* \"#utility.yul\":145:245   */\n      swap1\n      pop\n        /* \"#utility.yul\":265:270   */\n      dup1\n        /* \"#utility.yul\":294:300   */\n      dup4\n        /* \"#utility.yul\":287:292   */\n      dup3\n        /* \"#utility.yul\":280:301   */\n      mstore\n        /* \"#utility.yul\":328:332   */\n      0x20\n        /* \"#utility.yul\":321:326   */\n      dup3\n        /* \"#utility.yul\":317:333   */\n      add\n        /* \"#utility.yul\":310:333   */\n      swap1\n      pop\n        /* \"#utility.yul\":354:360   */\n      dup3\n        /* \"#utility.yul\":404:407   */\n      dup6\n        /* \"#utility.yul\":396:400   */\n      0x20\n        /* \"#utility.yul\":388:394   */\n      dup7\n        /* \"#utility.yul\":384:401   */\n      mul\n        /* \"#utility.yul\":379:382   */\n      dup3\n        /* \"#utility.yul\":375:402   */\n      add\n        /* \"#utility.yul\":372:408   */\n      gt\n        /* \"#utility.yul\":369:512   */\n      iszero\n      tag_254\n      jumpi\n        /* \"#utility.yul\":423:502   */\n      tag_255\n      tag_256\n      jump\t// in\n    tag_255:\n        /* \"#utility.yul\":369:512   */\n    tag_254:\n        /* \"#utility.yul\":536:537   */\n      0x00\n        /* \"#utility.yul\":521:974   */\n    tag_257:\n        /* \"#utility.yul\":546:552   */\n      dup6\n        /* \"#utility.yul\":543:544   */\n      dup2\n        /* \"#utility.yul\":540:553   */\n      lt\n        /* \"#utility.yul\":521:974   */\n      iszero\n      tag_259\n      jumpi\n        /* \"#utility.yul\":628:631   */\n      dup2\n        /* \"#utility.yul\":615:632   */\n      calldataload\n        /* \"#utility.yul\":664:682   */\n      0xffffffffffffffff\n        /* \"#utility.yul\":651:662   */\n      dup2\n        /* \"#utility.yul\":648:683   */\n      gt\n        /* \"#utility.yul\":645:767   */\n      iszero\n      tag_260\n      jumpi\n        /* \"#utility.yul\":686:765   */\n      tag_261\n      tag_262\n      jump\t// in\n    tag_261:\n        /* \"#utility.yul\":645:767   */\n    tag_260:\n        /* \"#utility.yul\":810:821   */\n      dup1\n        /* \"#utility.yul\":802:808   */\n      dup7\n        /* \"#utility.yul\":798:822   */\n      add\n        /* \"#utility.yul\":848:895   */\n      tag_263\n        /* \"#utility.yul\":891:894   */\n      dup10\n        /* \"#utility.yul\":879:889   */\n      dup3\n        /* \"#utility.yul\":848:895   */\n      tag_264\n      jump\t// in\n    tag_263:\n        /* \"#utility.yul\":843:846   */\n      dup6\n        /* \"#utility.yul\":836:896   */\n      mstore\n        /* \"#utility.yul\":925:929   */\n      0x20\n        /* \"#utility.yul\":920:923   */\n      dup6\n        /* \"#utility.yul\":916:930   */\n      add\n        /* \"#utility.yul\":909:930   */\n      swap5\n      pop\n        /* \"#utility.yul\":959:963   */\n      0x20\n        /* \"#utility.yul\":954:957   */\n      dup5\n        /* \"#utility.yul\":950:964   */\n      add\n        /* \"#utility.yul\":943:964   */\n      swap4\n      pop\n        /* \"#utility.yul\":581:974   */\n      pop\n      pop\n        /* \"#utility.yul\":568:569   */\n      0x01\n        /* \"#utility.yul\":565:566   */\n      dup2\n        /* \"#utility.yul\":561:570   */\n      add\n        /* \"#utility.yul\":556:570   */\n      swap1\n      pop\n        /* \"#utility.yul\":521:974   */\n      jump(tag_257)\n    tag_259:\n        /* \"#utility.yul\":525:539   */\n      pop\n        /* \"#utility.yul\":135:980   */\n      pop\n      pop\n        /* \"#utility.yul\":23:980   */\n      swap4\n      swap3\n      pop\n      pop\n      pop\n      jump\t// out\n        /* \"#utility.yul\":986:1398   */\n    tag_265:\n        /* \"#utility.yul\":1064:1069   */\n      0x00\n        /* \"#utility.yul\":1089:1155   */\n      tag_267\n        /* \"#utility.yul\":1105:1154   */\n      tag_268\n        /* \"#utility.yul\":1147:1153   */\n      dup5\n        /* \"#utility.yul\":1105:1154   */\n      tag_269\n      jump\t// in\n    tag_268:\n        /* \"#utility.yul\":1089:1155   */\n      tag_253\n      jump\t// in\n    tag_267:\n        /* \"#utility.yul\":1080:1155   */\n      swap1\n      pop\n        /* \"#utility.yul\":1178:1184   */\n      dup3\n        /* \"#utility.yul\":1171:1176   */\n      dup2\n        /* \"#utility.yul\":1164:1185   */\n      mstore\n        /* \"#utility.yul\":1216:1220   */\n      0x20\n        /* \"#utility.yul\":1209:1214   */\n      dup2\n        /* \"#utility.yul\":1205:1221   */\n      add\n        /* \"#utility.yul\":1254:1257   */\n      dup5\n        /* \"#utility.yul\":1245:1251   */\n      dup5\n        /* \"#utility.yul\":1240:1243   */\n      dup5\n        /* \"#utility.yul\":1236:1252   */\n      add\n        /* \"#utility.yul\":1233:1258   */\n      gt\n        /* \"#utility.yul\":1230:1342   */\n      iszero\n      tag_270\n      jumpi\n        /* \"#utility.yul\":1261:1340   */\n      tag_271\n      tag_272\n      jump\t// in\n    tag_271:\n        /* \"#utility.yul\":1230:1342   */\n    tag_270:\n        /* \"#utility.yul\":1351:1392   */\n      tag_273\n        /* \"#utility.yul\":1385:1391   */\n      dup5\n        /* \"#utility.yul\":1380:1383   */\n      dup3\n        /* \"#utility.yul\":1375:1378   */\n      dup6\n        /* \"#utility.yul\":1351:1392   */\n      tag_274\n      jump\t// in\n    tag_273:\n        /* \"#utility.yul\":1070:1398   */\n      pop\n        /* \"#utility.yul\":986:1398   */\n      swap4\n      swap3\n      pop\n      pop\n      pop\n      jump\t// out\n        /* \"#utility.yul\":1404:1543   */\n    tag_275:\n        /* \"#utility.yul\":1450:1455   */\n      0x00\n        /* \"#utility.yul\":1488:1494   */\n      dup2\n        /* \"#utility.yul\":1475:1495   */\n      calldataload\n        /* \"#utility.yul\":1466:1495   */\n      swap1\n      pop\n        /* \"#utility.yul\":1504:1537   */\n      tag_277\n        /* \"#utility.yul\":1531:1536   */\n      dup2\n        /* \"#utility.yul\":1504:1537   */\n      tag_278\n      jump\t// in\n    tag_277:\n        /* \"#utility.yul\":1404:1543   */\n      swap3\n      swap2\n      pop\n      pop\n      jump\t// out\n        /* \"#utility.yul\":1565:1955   */\n    tag_279:\n        /* \"#utility.yul\":1646:1651   */\n      0x00\n        /* \"#utility.yul\":1695:1698   */\n      dup3\n        /* \"#utility.yul\":1688:1692   */\n      0x1f\n        /* \"#utility.yul\":1680:1686   */\n      dup4\n        /* \"#utility.yul\":1676:1693   */\n      add\n        /* \"#utility.yul\":1672:1699   */\n      slt\n        /* \"#utility.yul\":1662:1784   */\n      tag_281\n      jumpi\n        /* \"#utility.yul\":1703:1782   */\n      tag_282\n      tag_262\n      jump\t// in\n    tag_282:\n        /* \"#utility.yul\":1662:1784   */\n    tag_281:\n        /* \"#utility.yul\":1820:1826   */\n      dup2\n        /* \"#utility.yul\":1807:1827   */\n      calldataload\n        /* \"#utility.yul\":1845:1949   */\n      tag_283\n        /* \"#utility.yul\":1945:1948   */\n      dup5\n        /* \"#utility.yul\":1937:1943   */\n      dup3\n        /* \"#utility.yul\":1930:1934   */\n      0x20\n        /* \"#utility.yul\":1922:1928   */\n      dup7\n        /* \"#utility.yul\":1918:1935   */\n      add\n        /* \"#utility.yul\":1845:1949   */\n      tag_248\n      jump\t// in\n    tag_283:\n        /* \"#utility.yul\":1836:1949   */\n      swap2\n      pop\n        /* \"#utility.yul\":1652:1955   */\n      pop\n        /* \"#utility.yul\":1565:1955   */\n      swap3\n      swap2\n      pop\n      pop\n      jump\t// out\n        /* \"#utility.yul\":1975:2315   */\n    tag_264:\n        /* \"#utility.yul\":2031:2036   */\n      0x00\n        /* \"#utility.yul\":2080:2083   */\n      dup3\n        /* \"#utility.yul\":2073:2077   */\n      0x1f\n        /* \"#utility.yul\":2065:2071   */\n      dup4\n        /* \"#utility.yul\":2061:2078   */\n      add\n        /* \"#utility.yul\":2057:2084   */\n      slt\n        /* \"#utility.yul\":2047:2169   */\n      tag_285\n      jumpi\n        /* \"#utility.yul\":2088:2167   */\n      tag_286\n      tag_262\n      jump\t// in\n    tag_286:\n        /* \"#utility.yul\":2047:2169   */\n    tag_285:\n        /* \"#utility.yul\":2205:2211   */\n      dup2\n        /* \"#utility.yul\":2192:2212   */\n      calldataload\n        /* \"#utility.yul\":2230:2309   */\n      tag_287\n        /* \"#utility.yul\":2305:2308   */\n      dup5\n        /* \"#utility.yul\":2297:2303   */\n      dup3\n        /* \"#utility.yul\":2290:2294   */\n      0x20\n        /* \"#utility.yul\":2282:2288   */\n      dup7\n        /* \"#utility.yul\":2278:2295   */\n      add\n        /* \"#utility.yul\":2230:2309   */\n      tag_265\n      jump\t// in\n    tag_287:\n        /* \"#utility.yul\":2221:2309   */\n      swap2\n      pop\n        /* \"#utility.yul\":2037:2315   */\n      pop\n        /* \"#utility.yul\":1975:2315   */\n      swap3\n      swap2\n      pop\n      pop\n      jump\t// out\n        /* \"#utility.yul\":2321:2460   */\n    tag_288:\n        /* \"#utility.yul\":2367:2372   */\n      0x00\n        /* \"#utility.yul\":2405:2411   */\n      dup2\n        /* \"#utility.yul\":2392:2412   */\n      calldataload\n        /* \"#utility.yul\":2383:2412   */\n      swap1\n      pop\n        /* \"#utility.yul\":2421:2454   */\n      tag_290\n        /* \"#utility.yul\":2448:2453   */\n      dup2\n        /* \"#utility.yul\":2421:2454   */\n      tag_291\n      jump\t// in\n    tag_290:\n        /* \"#utility.yul\":2321:2460   */\n      swap3\n      swap2\n      pop\n      pop\n      jump\t// out\n        /* \"#utility.yul\":2466:2795   */\n    tag_34:\n        /* \"#utility.yul\":2525:2531   */\n      0x00\n        /* \"#utility.yul\":2574:2576   */\n      0x20\n        /* \"#utility.yul\":2562:2571   */\n      dup3\n        /* \"#utility.yul\":2553:2560   */\n      dup5\n        /* \"#utility.yul\":2549:2572   */\n      sub\n        /* \"#utility.yul\":2545:2577   */\n      slt\n        /* \"#utility.yul\":2542:2661   */\n      iszero\n      tag_293\n      jumpi\n        /* \"#utility.yul\":2580:2659   */\n      tag_294\n      tag_295\n      jump\t// in\n    tag_294:\n        /* \"#utility.yul\":2542:2661   */\n    tag_293:\n        /* \"#utility.yul\":2700:2701   */\n      0x00\n        /* \"#utility.yul\":2725:2778   */\n      tag_296\n        /* \"#utility.yul\":2770:2777   */\n      dup5\n        /* \"#utility.yul\":2761:2767   */\n      dup3\n        /* \"#utility.yul\":2750:2759   */\n      dup6\n        /* \"#utility.yul\":2746:2768   */\n      add\n        /* \"#utility.yul\":2725:2778   */\n      tag_275\n      jump\t// in\n    tag_296:\n        /* \"#utility.yul\":2715:2778   */\n      swap2\n      pop\n        /* \"#utility.yul\":2671:2788   */\n      pop\n        /* \"#utility.yul\":2466:2795   */\n      swap3\n      swap2\n      pop\n      pop\n      jump\t// out\n        /* \"#utility.yul\":2801:4110   */\n    tag_15:\n        /* \"#utility.yul\":2983:2989   */\n      0x00\n        /* \"#utility.yul\":2991:2997   */\n      dup1\n        /* \"#utility.yul\":2999:3005   */\n      0x00\n        /* \"#utility.yul\":3048:3050   */\n      0x60\n        /* \"#utility.yul\":3036:3045   */\n      dup5\n        /* \"#utility.yul\":3027:3034   */\n      dup7\n        /* \"#utility.yul\":3023:3046   */\n      sub\n        /* \"#utility.yul\":3019:3051   */\n      slt\n        /* \"#utility.yul\":3016:3135   */\n      iszero\n      tag_298\n      jumpi\n        /* \"#utility.yul\":3054:3133   */\n      tag_299\n      tag_295\n      jump\t// in\n    tag_299:\n        /* \"#utility.yul\":3016:3135   */\n    tag_298:\n        /* \"#utility.yul\":3202:3203   */\n      0x00\n        /* \"#utility.yul\":3191:3200   */\n      dup5\n        /* \"#utility.yul\":3187:3204   */\n      add\n        /* \"#utility.yul\":3174:3205   */\n      calldataload\n        /* \"#utility.yul\":3232:3250   */\n      0xffffffffffffffff\n        /* \"#utility.yul\":3224:3230   */\n      dup2\n        /* \"#utility.yul\":3221:3251   */\n      gt\n        /* \"#utility.yul\":3218:3335   */\n      iszero\n      tag_300\n      jumpi\n        /* \"#utility.yul\":3254:3333   */\n      tag_301\n      tag_302\n      jump\t// in\n    tag_301:\n        /* \"#utility.yul\":3218:3335   */\n    tag_300:\n        /* \"#utility.yul\":3359:3447   */\n      tag_303\n        /* \"#utility.yul\":3439:3446   */\n      dup7\n        /* \"#utility.yul\":3430:3436   */\n      dup3\n        /* \"#utility.yul\":3419:3428   */\n      dup8\n        /* \"#utility.yul\":3415:3437   */\n      add\n        /* \"#utility.yul\":3359:3447   */\n      tag_279\n      jump\t// in\n    tag_303:\n        /* \"#utility.yul\":3349:3447   */\n      swap4\n      pop\n        /* \"#utility.yul\":3145:3457   */\n      pop\n        /* \"#utility.yul\":3524:3526   */\n      0x20\n        /* \"#utility.yul\":3513:3522   */\n      dup5\n        /* \"#utility.yul\":3509:3527   */\n      add\n        /* \"#utility.yul\":3496:3528   */\n      calldataload\n        /* \"#utility.yul\":3555:3573   */\n      0xffffffffffffffff\n        /* \"#utility.yul\":3547:3553   */\n      dup2\n        /* \"#utility.yul\":3544:3574   */\n      gt\n        /* \"#utility.yul\":3541:3658   */\n      iszero\n      tag_304\n      jumpi\n        /* \"#utility.yul\":3577:3656   */\n      tag_305\n      tag_302\n      jump\t// in\n    tag_305:\n        /* \"#utility.yul\":3541:3658   */\n    tag_304:\n        /* \"#utility.yul\":3682:3770   */\n      tag_306\n        /* \"#utility.yul\":3762:3769   */\n      dup7\n        /* \"#utility.yul\":3753:3759   */\n      dup3\n        /* \"#utility.yul\":3742:3751   */\n      dup8\n        /* \"#utility.yul\":3738:3760   */\n      add\n        /* \"#utility.yul\":3682:3770   */\n      tag_279\n      jump\t// in\n    tag_306:\n        /* \"#utility.yul\":3672:3770   */\n      swap3\n      pop\n        /* \"#utility.yul\":3467:3780   */\n      pop\n        /* \"#utility.yul\":3847:3849   */\n      0x40\n        /* \"#utility.yul\":3836:3845   */\n      dup5\n        /* \"#utility.yul\":3832:3850   */\n      add\n        /* \"#utility.yul\":3819:3851   */\n      calldataload\n        /* \"#utility.yul\":3878:3896   */\n      0xffffffffffffffff\n        /* \"#utility.yul\":3870:3876   */\n      dup2\n        /* \"#utility.yul\":3867:3897   */\n      gt\n        /* \"#utility.yul\":3864:3981   */\n      iszero\n      tag_307\n      jumpi\n        /* \"#utility.yul\":3900:3979   */\n      tag_308\n      tag_302\n      jump\t// in\n    tag_308:\n        /* \"#utility.yul\":3864:3981   */\n    tag_307:\n        /* \"#utility.yul\":4005:4093   */\n      tag_309\n        /* \"#utility.yul\":4085:4092   */\n      dup7\n        /* \"#utility.yul\":4076:4082   */\n      dup3\n        /* \"#utility.yul\":4065:4074   */\n      dup8\n        /* \"#utility.yul\":4061:4083   */\n      add\n        /* \"#utility.yul\":4005:4093   */\n      tag_279\n      jump\t// in\n    tag_309:\n        /* \"#utility.yul\":3995:4093   */\n      swap2\n      pop\n        /* \"#utility.yul\":3790:4103   */\n      pop\n        /* \"#utility.yul\":2801:4110   */\n      swap3\n      pop\n      swap3\n      pop\n      swap3\n      jump\t// out\n        /* \"#utility.yul\":4116:5601   */\n    tag_27:\n        /* \"#utility.yul\":4242:4248   */\n      0x00\n        /* \"#utility.yul\":4250:4256   */\n      dup1\n        /* \"#utility.yul\":4258:4264   */\n      0x00\n        /* \"#utility.yul\":4266:4272   */\n      dup1\n        /* \"#utility.yul\":4315:4318   */\n      0x80\n        /* \"#utility.yul\":4303:4312   */\n      dup6\n        /* \"#utility.yul\":4294:4301   */\n      dup8\n        /* \"#utility.yul\":4290:4313   */\n      sub\n        /* \"#utility.yul\":4286:4319   */\n      slt\n        /* \"#utility.yul\":4283:4403   */\n      iszero\n      tag_311\n      jumpi\n        /* \"#utility.yul\":4322:4401   */\n      tag_312\n      tag_295\n      jump\t// in\n    tag_312:\n        /* \"#utility.yul\":4283:4403   */\n    tag_311:\n        /* \"#utility.yul\":4470:4471   */\n      0x00\n        /* \"#utility.yul\":4459:4468   */\n      dup6\n        /* \"#utility.yul\":4455:4472   */\n      add\n        /* \"#utility.yul\":4442:4473   */\n      calldataload\n        /* \"#utility.yul\":4500:4518   */\n      0xffffffffffffffff\n        /* \"#utility.yul\":4492:4498   */\n      dup2\n        /* \"#utility.yul\":4489:4519   */\n      gt\n        /* \"#utility.yul\":4486:4603   */\n      iszero\n      tag_313\n      jumpi\n        /* \"#utility.yul\":4522:4601   */\n      tag_314\n      tag_302\n      jump\t// in\n    tag_314:\n        /* \"#utility.yul\":4486:4603   */\n    tag_313:\n        /* \"#utility.yul\":4627:4690   */\n      tag_315\n        /* \"#utility.yul\":4682:4689   */\n      dup8\n        /* \"#utility.yul\":4673:4679   */\n      dup3\n        /* \"#utility.yul\":4662:4671   */\n      dup9\n        /* \"#utility.yul\":4658:4680   */\n      add\n        /* \"#utility.yul\":4627:4690   */\n      tag_264\n      jump\t// in\n    tag_315:\n        /* \"#utility.yul\":4617:4690   */\n      swap5\n      pop\n        /* \"#utility.yul\":4413:4700   */\n      pop\n        /* \"#utility.yul\":4767:4769   */\n      0x20\n        /* \"#utility.yul\":4756:4765   */\n      dup6\n        /* \"#utility.yul\":4752:4770   */\n      add\n        /* \"#utility.yul\":4739:4771   */\n      calldataload\n        /* \"#utility.yul\":4798:4816   */\n      0xffffffffffffffff\n        /* \"#utility.yul\":4790:4796   */\n      dup2\n        /* \"#utility.yul\":4787:4817   */\n      gt\n        /* \"#utility.yul\":4784:4901   */\n      iszero\n      tag_316\n      jumpi\n        /* \"#utility.yul\":4820:4899   */\n      tag_317\n      tag_302\n      jump\t// in\n    tag_317:\n        /* \"#utility.yul\":4784:4901   */\n    tag_316:\n        /* \"#utility.yul\":4925:4988   */\n      tag_318\n        /* \"#utility.yul\":4980:4987   */\n      dup8\n        /* \"#utility.yul\":4971:4977   */\n      dup3\n        /* \"#utility.yul\":4960:4969   */\n      dup9\n        /* \"#utility.yul\":4956:4978   */\n      add\n        /* \"#utility.yul\":4925:4988   */\n      tag_264\n      jump\t// in\n    tag_318:\n        /* \"#utility.yul\":4915:4988   */\n      swap4\n      pop\n        /* \"#utility.yul\":4710:4998   */\n      pop\n        /* \"#utility.yul\":5065:5067   */\n      0x40\n        /* \"#utility.yul\":5054:5063   */\n      dup6\n        /* \"#utility.yul\":5050:5068   */\n      add\n        /* \"#utility.yul\":5037:5069   */\n      calldataload\n        /* \"#utility.yul\":5096:5114   */\n      0xffffffffffffffff\n        /* \"#utility.yul\":5088:5094   */\n      dup2\n        /* \"#utility.yul\":5085:5115   */\n      gt\n        /* \"#utility.yul\":5082:5199   */\n      iszero\n      tag_319\n      jumpi\n        /* \"#utility.yul\":5118:5197   */\n      tag_320\n      tag_302\n      jump\t// in\n    tag_320:\n        /* \"#utility.yul\":5082:5199   */\n    tag_319:\n        /* \"#utility.yul\":5223:5286   */\n      tag_321\n        /* \"#utility.yul\":5278:5285   */\n      dup8\n        /* \"#utility.yul\":5269:5275   */\n      dup3\n        /* \"#utility.yul\":5258:5267   */\n      dup9\n        /* \"#utility.yul\":5254:5276   */\n      add\n        /* \"#utility.yul\":5223:5286   */\n      tag_264\n      jump\t// in\n    tag_321:\n        /* \"#utility.yul\":5213:5286   */\n      swap3\n      pop\n        /* \"#utility.yul\":5008:5296   */\n      pop\n        /* \"#utility.yul\":5363:5365   */\n      0x60\n        /* \"#utility.yul\":5352:5361   */\n      dup6\n        /* \"#utility.yul\":5348:5366   */\n      add\n        /* \"#utility.yul\":5335:5367   */\n      calldataload\n        /* \"#utility.yul\":5394:5412   */\n      0xffffffffffffffff\n        /* \"#utility.yul\":5386:5392   */\n      dup2\n        /* \"#utility.yul\":5383:5413   */\n      gt\n        /* \"#utility.yul\":5380:5497   */\n      iszero\n      tag_322\n      jumpi\n        /* \"#utility.yul\":5416:5495   */\n      tag_323\n      tag_302\n      jump\t// in\n    tag_323:\n        /* \"#utility.yul\":5380:5497   */\n    tag_322:\n        /* \"#utility.yul\":5521:5584   */\n      tag_324\n        /* \"#utility.yul\":5576:5583   */\n      dup8\n        /* \"#utility.yul\":5567:5573   */\n      dup3\n        /* \"#utility.yul\":5556:5565   */\n      dup9\n        /* \"#utility.yul\":5552:5574   */\n      add\n        /* \"#utility.yul\":5521:5584   */\n      tag_264\n      jump\t// in\n    tag_324:\n        /* \"#utility.yul\":5511:5584   */\n      swap2\n      pop\n        /* \"#utility.yul\":5306:5594   */\n      pop\n        /* \"#utility.yul\":4116:5601   */\n      swap3\n      swap6\n      swap2\n      swap5\n      pop\n      swap3\n      pop\n      jump\t// out\n        /* \"#utility.yul\":5607:7744   */\n    tag_23:\n        /* \"#utility.yul\":5771:5777   */\n      0x00\n        /* \"#utility.yul\":5779:5785   */\n      dup1\n        /* \"#utility.yul\":5787:5793   */\n      0x00\n        /* \"#utility.yul\":5795:5801   */\n      dup1\n        /* \"#utility.yul\":5803:5809   */\n      0x00\n        /* \"#utility.yul\":5811:5817   */\n      dup1\n        /* \"#utility.yul\":5860:5863   */\n      0xc0\n        /* \"#utility.yul\":5848:5857   */\n      dup8\n        /* \"#utility.yul\":5839:5846   */\n      dup10\n        /* \"#utility.yul\":5835:5858   */\n      sub\n        /* \"#utility.yul\":5831:5864   */\n      slt\n        /* \"#utility.yul\":5828:5948   */\n      iszero\n      tag_326\n      jumpi\n        /* \"#utility.yul\":5867:5946   */\n      tag_327\n      tag_295\n      jump\t// in\n    tag_327:\n        /* \"#utility.yul\":5828:5948   */\n    tag_326:\n        /* \"#utility.yul\":6015:6016   */\n      0x00\n        /* \"#utility.yul\":6004:6013   */\n      dup8\n        /* \"#utility.yul\":6000:6017   */\n      add\n        /* \"#utility.yul\":5987:6018   */\n      calldataload\n        /* \"#utility.yul\":6045:6063   */\n      0xffffffffffffffff\n        /* \"#utility.yul\":6037:6043   */\n      dup2\n        /* \"#utility.yul\":6034:6064   */\n      gt\n        /* \"#utility.yul\":6031:6148   */\n      iszero\n      tag_328\n      jumpi\n        /* \"#utility.yul\":6067:6146   */\n      tag_329\n      tag_302\n      jump\t// in\n    tag_329:\n        /* \"#utility.yul\":6031:6148   */\n    tag_328:\n        /* \"#utility.yul\":6172:6235   */\n      tag_330\n        /* \"#utility.yul\":6227:6234   */\n      dup10\n        /* \"#utility.yul\":6218:6224   */\n      dup3\n        /* \"#utility.yul\":6207:6216   */\n      dup11\n        /* \"#utility.yul\":6203:6225   */\n      add\n        /* \"#utility.yul\":6172:6235   */\n      tag_264\n      jump\t// in\n    tag_330:\n        /* \"#utility.yul\":6162:6235   */\n      swap7\n      pop\n        /* \"#utility.yul\":5958:6245   */\n      pop\n        /* \"#utility.yul\":6312:6314   */\n      0x20\n        /* \"#utility.yul\":6301:6310   */\n      dup8\n        /* \"#utility.yul\":6297:6315   */\n      add\n        /* \"#utility.yul\":6284:6316   */\n      calldataload\n        /* \"#utility.yul\":6343:6361   */\n      0xffffffffffffffff\n        /* \"#utility.yul\":6335:6341   */\n      dup2\n        /* \"#utility.yul\":6332:6362   */\n      gt\n        /* \"#utility.yul\":6329:6446   */\n      iszero\n      tag_331\n      jumpi\n        /* \"#utility.yul\":6365:6444   */\n      tag_332\n      tag_302\n      jump\t// in\n    tag_332:\n        /* \"#utility.yul\":6329:6446   */\n    tag_331:\n        /* \"#utility.yul\":6470:6533   */\n      tag_333\n        /* \"#utility.yul\":6525:6532   */\n      dup10\n        /* \"#utility.yul\":6516:6522   */\n      dup3\n        /* \"#utility.yul\":6505:6514   */\n      dup11\n        /* \"#utility.yul\":6501:6523   */\n      add\n        /* \"#utility.yul\":6470:6533   */\n      tag_264\n      jump\t// in\n    tag_333:\n        /* \"#utility.yul\":6460:6533   */\n      swap6\n      pop\n        /* \"#utility.yul\":6255:6543   */\n      pop\n        /* \"#utility.yul\":6610:6612   */\n      0x40\n        /* \"#utility.yul\":6599:6608   */\n      dup8\n        /* \"#utility.yul\":6595:6613   */\n      add\n        /* \"#utility.yul\":6582:6614   */\n      calldataload\n        /* \"#utility.yul\":6641:6659   */\n      0xffffffffffffffff\n        /* \"#utility.yul\":6633:6639   */\n      dup2\n        /* \"#utility.yul\":6630:6660   */\n      gt\n        /* \"#utility.yul\":6627:6744   */\n      iszero\n      tag_334\n      jumpi\n        /* \"#utility.yul\":6663:6742   */\n      tag_335\n      tag_302\n      jump\t// in\n    tag_335:\n        /* \"#utility.yul\":6627:6744   */\n    tag_334:\n        /* \"#utility.yul\":6768:6831   */\n      tag_336\n        /* \"#utility.yul\":6823:6830   */\n      dup10\n        /* \"#utility.yul\":6814:6820   */\n      dup3\n        /* \"#utility.yul\":6803:6812   */\n      dup11\n        /* \"#utility.yul\":6799:6821   */\n      add\n        /* \"#utility.yul\":6768:6831   */\n      tag_264\n      jump\t// in\n    tag_336:\n        /* \"#utility.yul\":6758:6831   */\n      swap5\n      pop\n        /* \"#utility.yul\":6553:6841   */\n      pop\n        /* \"#utility.yul\":6908:6910   */\n      0x60\n        /* \"#utility.yul\":6897:6906   */\n      dup8\n        /* \"#utility.yul\":6893:6911   */\n      add\n        /* \"#utility.yul\":6880:6912   */\n      calldataload\n        /* \"#utility.yul\":6939:6957   */\n      0xffffffffffffffff\n        /* \"#utility.yul\":6931:6937   */\n      dup2\n        /* \"#utility.yul\":6928:6958   */\n      gt\n        /* \"#utility.yul\":6925:7042   */\n      iszero\n      tag_337\n      jumpi\n        /* \"#utility.yul\":6961:7040   */\n      tag_338\n      tag_302\n      jump\t// in\n    tag_338:\n        /* \"#utility.yul\":6925:7042   */\n    tag_337:\n        /* \"#utility.yul\":7066:7129   */\n      tag_339\n        /* \"#utility.yul\":7121:7128   */\n      dup10\n        /* \"#utility.yul\":7112:7118   */\n      dup3\n        /* \"#utility.yul\":7101:7110   */\n      dup11\n        /* \"#utility.yul\":7097:7119   */\n      add\n        /* \"#utility.yul\":7066:7129   */\n      tag_264\n      jump\t// in\n    tag_339:\n        /* \"#utility.yul\":7056:7129   */\n      swap4\n      pop\n        /* \"#utility.yul\":6851:7139   */\n      pop\n        /* \"#utility.yul\":7206:7209   */\n      0x80\n        /* \"#utility.yul\":7195:7204   */\n      dup8\n        /* \"#utility.yul\":7191:7210   */\n      add\n        /* \"#utility.yul\":7178:7211   */\n      calldataload\n        /* \"#utility.yul\":7238:7256   */\n      0xffffffffffffffff\n        /* \"#utility.yul\":7230:7236   */\n      dup2\n        /* \"#utility.yul\":7227:7257   */\n      gt\n        /* \"#utility.yul\":7224:7341   */\n      iszero\n      tag_340\n      jumpi\n        /* \"#utility.yul\":7260:7339   */\n      tag_341\n      tag_302\n      jump\t// in\n    tag_341:\n        /* \"#utility.yul\":7224:7341   */\n    tag_340:\n        /* \"#utility.yul\":7365:7428   */\n      tag_342\n        /* \"#utility.yul\":7420:7427   */\n      dup10\n        /* \"#utility.yul\":7411:7417   */\n      dup3\n        /* \"#utility.yul\":7400:7409   */\n      dup11\n        /* \"#utility.yul\":7396:7418   */\n      add\n        /* \"#utility.yul\":7365:7428   */\n      tag_264\n      jump\t// in\n    tag_342:\n        /* \"#utility.yul\":7355:7428   */\n      swap3\n      pop\n        /* \"#utility.yul\":7149:7438   */\n      pop\n        /* \"#utility.yul\":7505:7508   */\n      0xa0\n        /* \"#utility.yul\":7494:7503   */\n      dup8\n        /* \"#utility.yul\":7490:7509   */\n      add\n        /* \"#utility.yul\":7477:7510   */\n      calldataload\n        /* \"#utility.yul\":7537:7555   */\n      0xffffffffffffffff\n        /* \"#utility.yul\":7529:7535   */\n      dup2\n        /* \"#utility.yul\":7526:7556   */\n      gt\n        /* \"#utility.yul\":7523:7640   */\n      iszero\n      tag_343\n      jumpi\n        /* \"#utility.yul\":7559:7638   */\n      tag_344\n      tag_302\n      jump\t// in\n    tag_344:\n        /* \"#utility.yul\":7523:7640   */\n    tag_343:\n        /* \"#utility.yul\":7664:7727   */\n      tag_345\n        /* \"#utility.yul\":7719:7726   */\n      dup10\n        /* \"#utility.yul\":7710:7716   */\n      dup3\n        /* \"#utility.yul\":7699:7708   */\n      dup11\n        /* \"#utility.yul\":7695:7717   */\n      add\n        /* \"#utility.yul\":7664:7727   */\n      tag_264\n      jump\t// in\n    tag_345:\n        /* \"#utility.yul\":7654:7727   */\n      swap2\n      pop\n        /* \"#utility.yul\":7448:7737   */\n      pop\n        /* \"#utility.yul\":5607:7744   */\n      swap3\n      swap6\n      pop\n      swap3\n      swap6\n      pop\n      swap3\n      swap6\n      jump\t// out\n        /* \"#utility.yul\":7750:8079   */\n    tag_42:\n        /* \"#utility.yul\":7809:7815   */\n      0x00\n        /* \"#utility.yul\":7858:7860   */\n      0x20\n        /* \"#utility.yul\":7846:7855   */\n      dup3\n        /* \"#utility.yul\":7837:7844   */\n      dup5\n        /* \"#utility.yul\":7833:7856   */\n      sub\n        /* \"#utility.yul\":7829:7861   */\n      slt\n        /* \"#utility.yul\":7826:7945   */\n      iszero\n      tag_347\n      jumpi\n        /* \"#utility.yul\":7864:7943   */\n      tag_348\n      tag_295\n      jump\t// in\n    tag_348:\n        /* \"#utility.yul\":7826:7945   */\n    tag_347:\n        /* \"#utility.yul\":7984:7985   */\n      0x00\n        /* \"#utility.yul\":8009:8062   */\n      tag_349\n        /* \"#utility.yul\":8054:8061   */\n      dup5\n        /* \"#utility.yul\":8045:8051   */\n      dup3\n        /* \"#utility.yul\":8034:8043   */\n      dup6\n        /* \"#utility.yul\":8030:8052   */\n      add\n        /* \"#utility.yul\":8009:8062   */\n      tag_288\n      jump\t// in\n    tag_349:\n        /* \"#utility.yul\":7999:8062   */\n      swap2\n      pop\n        /* \"#utility.yul\":7955:8072   */\n      pop\n        /* \"#utility.yul\":7750:8079   */\n      swap3\n      swap2\n      pop\n      pop\n      jump\t// out\n        /* \"#utility.yul\":8085:8281   */\n    tag_350:\n        /* \"#utility.yul\":8174:8184   */\n      0x00\n        /* \"#utility.yul\":8209:8275   */\n      tag_352\n        /* \"#utility.yul\":8271:8274   */\n      dup4\n        /* \"#utility.yul\":8263:8269   */\n      dup4\n        /* \"#utility.yul\":8209:8275   */\n      tag_353\n      jump\t// in\n    tag_352:\n        /* \"#utility.yul\":8195:8275   */\n      swap1\n      pop\n        /* \"#utility.yul\":8085:8281   */\n      swap3\n      swap2\n      pop\n      pop\n      jump\t// out\n        /* \"#utility.yul\":8287:8405   */\n    tag_354:\n        /* \"#utility.yul\":8374:8398   */\n      tag_356\n        /* \"#utility.yul\":8392:8397   */\n      dup2\n        /* \"#utility.yul\":8374:8398   */\n      tag_357\n      jump\t// in\n    tag_356:\n        /* \"#utility.yul\":8369:8372   */\n      dup3\n        /* \"#utility.yul\":8362:8399   */\n      mstore\n        /* \"#utility.yul\":8287:8405   */\n      pop\n      pop\n      jump\t// out\n        /* \"#utility.yul\":8439:9410   */\n    tag_358:\n        /* \"#utility.yul\":8568:8571   */\n      0x00\n        /* \"#utility.yul\":8597:8661   */\n      tag_360\n        /* \"#utility.yul\":8655:8660   */\n      dup3\n        /* \"#utility.yul\":8597:8661   */\n      tag_361\n      jump\t// in\n    tag_360:\n        /* \"#utility.yul\":8677:8763   */\n      tag_362\n        /* \"#utility.yul\":8756:8762   */\n      dup2\n        /* \"#utility.yul\":8751:8754   */\n      dup6\n        /* \"#utility.yul\":8677:8763   */\n      tag_363\n      jump\t// in\n    tag_362:\n        /* \"#utility.yul\":8670:8763   */\n      swap4\n      pop\n        /* \"#utility.yul\":8789:8792   */\n      dup4\n        /* \"#utility.yul\":8834:8838   */\n      0x20\n        /* \"#utility.yul\":8826:8832   */\n      dup3\n        /* \"#utility.yul\":8822:8839   */\n      mul\n        /* \"#utility.yul\":8817:8820   */\n      dup6\n        /* \"#utility.yul\":8813:8840   */\n      add\n        /* \"#utility.yul\":8864:8930   */\n      tag_364\n        /* \"#utility.yul\":8924:8929   */\n      dup6\n        /* \"#utility.yul\":8864:8930   */\n      tag_365\n      jump\t// in\n    tag_364:\n        /* \"#utility.yul\":8953:8960   */\n      dup1\n        /* \"#utility.yul\":8984:8985   */\n      0x00\n        /* \"#utility.yul\":8969:9365   */\n    tag_366:\n        /* \"#utility.yul\":8994:9000   */\n      dup6\n        /* \"#utility.yul\":8991:8992   */\n      dup2\n        /* \"#utility.yul\":8988:9001   */\n      lt\n        /* \"#utility.yul\":8969:9365   */\n      iszero\n      tag_368\n      jumpi\n        /* \"#utility.yul\":9065:9074   */\n      dup5\n        /* \"#utility.yul\":9059:9063   */\n      dup5\n        /* \"#utility.yul\":9055:9075   */\n      sub\n        /* \"#utility.yul\":9050:9053   */\n      dup10\n        /* \"#utility.yul\":9043:9076   */\n      mstore\n        /* \"#utility.yul\":9116:9122   */\n      dup2\n        /* \"#utility.yul\":9110:9123   */\n      mload\n        /* \"#utility.yul\":9144:9228   */\n      tag_369\n        /* \"#utility.yul\":9223:9227   */\n      dup6\n        /* \"#utility.yul\":9208:9221   */\n      dup3\n        /* \"#utility.yul\":9144:9228   */\n      tag_350\n      jump\t// in\n    tag_369:\n        /* \"#utility.yul\":9136:9228   */\n      swap5\n      pop\n        /* \"#utility.yul\":9251:9321   */\n      tag_370\n        /* \"#utility.yul\":9314:9320   */\n      dup4\n        /* \"#utility.yul\":9251:9321   */\n      tag_371\n      jump\t// in\n    tag_370:\n        /* \"#utility.yul\":9241:9321   */\n      swap3\n      pop\n        /* \"#utility.yul\":9350:9354   */\n      0x20\n        /* \"#utility.yul\":9345:9348   */\n      dup11\n        /* \"#utility.yul\":9341:9355   */\n      add\n        /* \"#utility.yul\":9334:9355   */\n      swap10\n      pop\n        /* \"#utility.yul\":9029:9365   */\n      pop\n        /* \"#utility.yul\":9016:9017   */\n      0x01\n        /* \"#utility.yul\":9013:9014   */\n      dup2\n        /* \"#utility.yul\":9009:9018   */\n      add\n        /* \"#utility.yul\":9004:9018   */\n      swap1\n      pop\n        /* \"#utility.yul\":8969:9365   */\n      jump(tag_366)\n    tag_368:\n        /* \"#utility.yul\":8973:8987   */\n      pop\n        /* \"#utility.yul\":9381:9385   */\n      dup3\n        /* \"#utility.yul\":9374:9385   */\n      swap8\n      pop\n        /* \"#utility.yul\":9401:9404   */\n      dup8\n        /* \"#utility.yul\":9394:9404   */\n      swap6\n      pop\n        /* \"#utility.yul\":8573:9410   */\n      pop\n      pop\n      pop\n      pop\n      pop\n        /* \"#utility.yul\":8439:9410   */\n      swap3\n      swap2\n      pop\n      pop\n      jump\t// out\n        /* \"#utility.yul\":9416:9760   */\n    tag_353:\n        /* \"#utility.yul\":9494:9497   */\n      0x00\n        /* \"#utility.yul\":9522:9561   */\n      tag_373\n        /* \"#utility.yul\":9555:9560   */\n      dup3\n        /* \"#utility.yul\":9522:9561   */\n      tag_374\n      jump\t// in\n    tag_373:\n        /* \"#utility.yul\":9577:9638   */\n      tag_375\n        /* \"#utility.yul\":9631:9637   */\n      dup2\n        /* \"#utility.yul\":9626:9629   */\n      dup6\n        /* \"#utility.yul\":9577:9638   */\n      tag_376\n      jump\t// in\n    tag_375:\n        /* \"#utility.yul\":9570:9638   */\n      swap4\n      pop\n        /* \"#utility.yul\":9647:9699   */\n      tag_377\n        /* \"#utility.yul\":9692:9698   */\n      dup2\n        /* \"#utility.yul\":9687:9690   */\n      dup6\n        /* \"#utility.yul\":9680:9684   */\n      0x20\n        /* \"#utility.yul\":9673:9678   */\n      dup7\n        /* \"#utility.yul\":9669:9685   */\n      add\n        /* \"#utility.yul\":9647:9699   */\n      tag_378\n      jump\t// in\n    tag_377:\n        /* \"#utility.yul\":9724:9753   */\n      tag_379\n        /* \"#utility.yul\":9746:9752   */\n      dup2\n        /* \"#utility.yul\":9724:9753   */\n      tag_380\n      jump\t// in\n    tag_379:\n        /* \"#utility.yul\":9719:9722   */\n      dup5\n        /* \"#utility.yul\":9715:9754   */\n      add\n        /* \"#utility.yul\":9708:9754   */\n      swap2\n      pop\n        /* \"#utility.yul\":9498:9760   */\n      pop\n        /* \"#utility.yul\":9416:9760   */\n      swap3\n      swap2\n      pop\n      pop\n      jump\t// out\n        /* \"#utility.yul\":9766:10130   */\n    tag_381:\n        /* \"#utility.yul\":9854:9857   */\n      0x00\n        /* \"#utility.yul\":9882:9921   */\n      tag_383\n        /* \"#utility.yul\":9915:9920   */\n      dup3\n        /* \"#utility.yul\":9882:9921   */\n      tag_374\n      jump\t// in\n    tag_383:\n        /* \"#utility.yul\":9937:10008   */\n      tag_384\n        /* \"#utility.yul\":10001:10007   */\n      dup2\n        /* \"#utility.yul\":9996:9999   */\n      dup6\n        /* \"#utility.yul\":9937:10008   */\n      tag_385\n      jump\t// in\n    tag_384:\n        /* \"#utility.yul\":9930:10008   */\n      swap4\n      pop\n        /* \"#utility.yul\":10017:10069   */\n      tag_386\n        /* \"#utility.yul\":10062:10068   */\n      dup2\n        /* \"#utility.yul\":10057:10060   */\n      dup6\n        /* \"#utility.yul\":10050:10054   */\n      0x20\n        /* \"#utility.yul\":10043:10048   */\n      dup7\n        /* \"#utility.yul\":10039:10055   */\n      add\n        /* \"#utility.yul\":10017:10069   */\n      tag_378\n      jump\t// in\n    tag_386:\n        /* \"#utility.yul\":10094:10123   */\n      tag_387\n        /* \"#utility.yul\":10116:10122   */\n      dup2\n        /* \"#utility.yul\":10094:10123   */\n      tag_380\n      jump\t// in\n    tag_387:\n        /* \"#utility.yul\":10089:10092   */\n      dup5\n        /* \"#utility.yul\":10085:10124   */\n      add\n        /* \"#utility.yul\":10078:10124   */\n      swap2\n      pop\n        /* \"#utility.yul\":9858:10130   */\n      pop\n        /* \"#utility.yul\":9766:10130   */\n      swap3\n      swap2\n      pop\n      pop\n      jump\t// out\n        /* \"#utility.yul\":10194:11860   */\n    tag_388:\n        /* \"#utility.yul\":10311:10314   */\n      0x00\n        /* \"#utility.yul\":10347:10351   */\n      0xc0\n        /* \"#utility.yul\":10342:10345   */\n      dup4\n        /* \"#utility.yul\":10338:10352   */\n      add\n        /* \"#utility.yul\":10437:10441   */\n      0x00\n        /* \"#utility.yul\":10430:10435   */\n      dup4\n        /* \"#utility.yul\":10426:10442   */\n      add\n        /* \"#utility.yul\":10420:10443   */\n      mload\n        /* \"#utility.yul\":10490:10493   */\n      dup5\n        /* \"#utility.yul\":10484:10488   */\n      dup3\n        /* \"#utility.yul\":10480:10494   */\n      sub\n        /* \"#utility.yul\":10473:10477   */\n      0x00\n        /* \"#utility.yul\":10468:10471   */\n      dup7\n        /* \"#utility.yul\":10464:10478   */\n      add\n        /* \"#utility.yul\":10457:10495   */\n      mstore\n        /* \"#utility.yul\":10516:10589   */\n      tag_390\n        /* \"#utility.yul\":10584:10588   */\n      dup3\n        /* \"#utility.yul\":10570:10582   */\n      dup3\n        /* \"#utility.yul\":10516:10589   */\n      tag_353\n      jump\t// in\n    tag_390:\n        /* \"#utility.yul\":10508:10589   */\n      swap2\n      pop\n        /* \"#utility.yul\":10362:10600   */\n      pop\n        /* \"#utility.yul\":10683:10687   */\n      0x20\n        /* \"#utility.yul\":10676:10681   */\n      dup4\n        /* \"#utility.yul\":10672:10688   */\n      add\n        /* \"#utility.yul\":10666:10689   */\n      mload\n        /* \"#utility.yul\":10736:10739   */\n      dup5\n        /* \"#utility.yul\":10730:10734   */\n      dup3\n        /* \"#utility.yul\":10726:10740   */\n      sub\n        /* \"#utility.yul\":10719:10723   */\n      0x20\n        /* \"#utility.yul\":10714:10717   */\n      dup7\n        /* \"#utility.yul\":10710:10724   */\n      add\n        /* \"#utility.yul\":10703:10741   */\n      mstore\n        /* \"#utility.yul\":10762:10835   */\n      tag_391\n        /* \"#utility.yul\":10830:10834   */\n      dup3\n        /* \"#utility.yul\":10816:10828   */\n      dup3\n        /* \"#utility.yul\":10762:10835   */\n      tag_353\n      jump\t// in\n    tag_391:\n        /* \"#utility.yul\":10754:10835   */\n      swap2\n      pop\n        /* \"#utility.yul\":10610:10846   */\n      pop\n        /* \"#utility.yul\":10929:10933   */\n      0x40\n        /* \"#utility.yul\":10922:10927   */\n      dup4\n        /* \"#utility.yul\":10918:10934   */\n      add\n        /* \"#utility.yul\":10912:10935   */\n      mload\n        /* \"#utility.yul\":10982:10985   */\n      dup5\n        /* \"#utility.yul\":10976:10980   */\n      dup3\n        /* \"#utility.yul\":10972:10986   */\n      sub\n        /* \"#utility.yul\":10965:10969   */\n      0x40\n        /* \"#utility.yul\":10960:10963   */\n      dup7\n        /* \"#utility.yul\":10956:10970   */\n      add\n        /* \"#utility.yul\":10949:10987   */\n      mstore\n        /* \"#utility.yul\":11008:11081   */\n      tag_392\n        /* \"#utility.yul\":11076:11080   */\n      dup3\n        /* \"#utility.yul\":11062:11074   */\n      dup3\n        /* \"#utility.yul\":11008:11081   */\n      tag_353\n      jump\t// in\n    tag_392:\n        /* \"#utility.yul\":11000:11081   */\n      swap2\n      pop\n        /* \"#utility.yul\":10856:11092   */\n      pop\n        /* \"#utility.yul\":11176:11180   */\n      0x60\n        /* \"#utility.yul\":11169:11174   */\n      dup4\n        /* \"#utility.yul\":11165:11181   */\n      add\n        /* \"#utility.yul\":11159:11182   */\n      mload\n        /* \"#utility.yul\":11229:11232   */\n      dup5\n        /* \"#utility.yul\":11223:11227   */\n      dup3\n        /* \"#utility.yul\":11219:11233   */\n      sub\n        /* \"#utility.yul\":11212:11216   */\n      0x60\n        /* \"#utility.yul\":11207:11210   */\n      dup7\n        /* \"#utility.yul\":11203:11217   */\n      add\n        /* \"#utility.yul\":11196:11234   */\n      mstore\n        /* \"#utility.yul\":11255:11328   */\n      tag_393\n        /* \"#utility.yul\":11323:11327   */\n      dup3\n        /* \"#utility.yul\":11309:11321   */\n      dup3\n        /* \"#utility.yul\":11255:11328   */\n      tag_353\n      jump\t// in\n    tag_393:\n        /* \"#utility.yul\":11247:11328   */\n      swap2\n      pop\n        /* \"#utility.yul\":11102:11339   */\n      pop\n        /* \"#utility.yul\":11423:11427   */\n      0x80\n        /* \"#utility.yul\":11416:11421   */\n      dup4\n        /* \"#utility.yul\":11412:11428   */\n      add\n        /* \"#utility.yul\":11406:11429   */\n      mload\n        /* \"#utility.yul\":11476:11479   */\n      dup5\n        /* \"#utility.yul\":11470:11474   */\n      dup3\n        /* \"#utility.yul\":11466:11480   */\n      sub\n        /* \"#utility.yul\":11459:11463   */\n      0x80\n        /* \"#utility.yul\":11454:11457   */\n      dup7\n        /* \"#utility.yul\":11450:11464   */\n      add\n        /* \"#utility.yul\":11443:11481   */\n      mstore\n        /* \"#utility.yul\":11502:11575   */\n      tag_394\n        /* \"#utility.yul\":11570:11574   */\n      dup3\n        /* \"#utility.yul\":11556:11568   */\n      dup3\n        /* \"#utility.yul\":11502:11575   */\n      tag_353\n      jump\t// in\n    tag_394:\n        /* \"#utility.yul\":11494:11575   */\n      swap2\n      pop\n        /* \"#utility.yul\":11349:11586   */\n      pop\n        /* \"#utility.yul\":11670:11674   */\n      0xa0\n        /* \"#utility.yul\":11663:11668   */\n      dup4\n        /* \"#utility.yul\":11659:11675   */\n      add\n        /* \"#utility.yul\":11653:11676   */\n      mload\n        /* \"#utility.yul\":11723:11726   */\n      dup5\n        /* \"#utility.yul\":11717:11721   */\n      dup3\n        /* \"#utility.yul\":11713:11727   */\n      sub\n        /* \"#utility.yul\":11706:11710   */\n      0xa0\n        /* \"#utility.yul\":11701:11704   */\n      dup7\n        /* \"#utility.yul\":11697:11711   */\n      add\n        /* \"#utility.yul\":11690:11728   */\n      mstore\n        /* \"#utility.yul\":11749:11822   */\n      tag_395\n        /* \"#utility.yul\":11817:11821   */\n      dup3\n        /* \"#utility.yul\":11803:11815   */\n      dup3\n        /* \"#utility.yul\":11749:11822   */\n      tag_353\n      jump\t// in\n    tag_395:\n        /* \"#utility.yul\":11741:11822   */\n      swap2\n      pop\n        /* \"#utility.yul\":11596:11833   */\n      pop\n        /* \"#utility.yul\":11850:11854   */\n      dup1\n        /* \"#utility.yul\":11843:11854   */\n      swap2\n      pop\n        /* \"#utility.yul\":10316:11860   */\n      pop\n        /* \"#utility.yul\":10194:11860   */\n      swap3\n      swap2\n      pop\n      pop\n      jump\t// out\n        /* \"#utility.yul\":11918:13015   */\n    tag_396:\n        /* \"#utility.yul\":12029:12032   */\n      0x00\n        /* \"#utility.yul\":12065:12069   */\n      0x60\n        /* \"#utility.yul\":12060:12063   */\n      dup4\n        /* \"#utility.yul\":12056:12070   */\n      add\n        /* \"#utility.yul\":12168:12172   */\n      0x00\n        /* \"#utility.yul\":12161:12166   */\n      dup4\n        /* \"#utility.yul\":12157:12173   */\n      add\n        /* \"#utility.yul\":12151:12174   */\n      mload\n        /* \"#utility.yul\":12221:12224   */\n      dup5\n        /* \"#utility.yul\":12215:12219   */\n      dup3\n        /* \"#utility.yul\":12211:12225   */\n      sub\n        /* \"#utility.yul\":12204:12208   */\n      0x00\n        /* \"#utility.yul\":12199:12202   */\n      dup7\n        /* \"#utility.yul\":12195:12209   */\n      add\n        /* \"#utility.yul\":12188:12226   */\n      mstore\n        /* \"#utility.yul\":12247:12370   */\n      tag_398\n        /* \"#utility.yul\":12365:12369   */\n      dup3\n        /* \"#utility.yul\":12351:12363   */\n      dup3\n        /* \"#utility.yul\":12247:12370   */\n      tag_358\n      jump\t// in\n    tag_398:\n        /* \"#utility.yul\":12239:12370   */\n      swap2\n      pop\n        /* \"#utility.yul\":12080:12381   */\n      pop\n        /* \"#utility.yul\":12468:12472   */\n      0x20\n        /* \"#utility.yul\":12461:12466   */\n      dup4\n        /* \"#utility.yul\":12457:12473   */\n      add\n        /* \"#utility.yul\":12451:12474   */\n      mload\n        /* \"#utility.yul\":12521:12524   */\n      dup5\n        /* \"#utility.yul\":12515:12519   */\n      dup3\n        /* \"#utility.yul\":12511:12525   */\n      sub\n        /* \"#utility.yul\":12504:12508   */\n      0x20\n        /* \"#utility.yul\":12499:12502   */\n      dup7\n        /* \"#utility.yul\":12495:12509   */\n      add\n        /* \"#utility.yul\":12488:12526   */\n      mstore\n        /* \"#utility.yul\":12547:12670   */\n      tag_399\n        /* \"#utility.yul\":12665:12669   */\n      dup3\n        /* \"#utility.yul\":12651:12663   */\n      dup3\n        /* \"#utility.yul\":12547:12670   */\n      tag_358\n      jump\t// in\n    tag_399:\n        /* \"#utility.yul\":12539:12670   */\n      swap2\n      pop\n        /* \"#utility.yul\":12391:12681   */\n      pop\n        /* \"#utility.yul\":12775:12779   */\n      0x40\n        /* \"#utility.yul\":12768:12773   */\n      dup4\n        /* \"#utility.yul\":12764:12780   */\n      add\n        /* \"#utility.yul\":12758:12781   */\n      mload\n        /* \"#utility.yul\":12828:12831   */\n      dup5\n        /* \"#utility.yul\":12822:12826   */\n      dup3\n        /* \"#utility.yul\":12818:12832   */\n      sub\n        /* \"#utility.yul\":12811:12815   */\n      0x40\n        /* \"#utility.yul\":12806:12809   */\n      dup7\n        /* \"#utility.yul\":12802:12816   */\n      add\n        /* \"#utility.yul\":12795:12833   */\n      mstore\n        /* \"#utility.yul\":12854:12977   */\n      tag_400\n        /* \"#utility.yul\":12972:12976   */\n      dup3\n        /* \"#utility.yul\":12958:12970   */\n      dup3\n        /* \"#utility.yul\":12854:12977   */\n      tag_358\n      jump\t// in\n    tag_400:\n        /* \"#utility.yul\":12846:12977   */\n      swap2\n      pop\n        /* \"#utility.yul\":12691:12988   */\n      pop\n        /* \"#utility.yul\":13005:13009   */\n      dup1\n        /* \"#utility.yul\":12998:13009   */\n      swap2\n      pop\n        /* \"#utility.yul\":12034:13015   */\n      pop\n        /* \"#utility.yul\":11918:13015   */\n      swap3\n      swap2\n      pop\n      pop\n      jump\t// out\n        /* \"#utility.yul\":13021:13139   */\n    tag_401:\n        /* \"#utility.yul\":13108:13132   */\n      tag_403\n        /* \"#utility.yul\":13126:13131   */\n      dup2\n        /* \"#utility.yul\":13108:13132   */\n      tag_404\n      jump\t// in\n    tag_403:\n        /* \"#utility.yul\":13103:13106   */\n      dup3\n        /* \"#utility.yul\":13096:13133   */\n      mstore\n        /* \"#utility.yul\":13021:13139   */\n      pop\n      pop\n      jump\t// out\n        /* \"#utility.yul\":13145:14788   */\n    tag_37:\n        /* \"#utility.yul\":13604:13608   */\n      0x00\n        /* \"#utility.yul\":13642:13645   */\n      0x0100\n        /* \"#utility.yul\":13631:13640   */\n      dup3\n        /* \"#utility.yul\":13627:13646   */\n      add\n        /* \"#utility.yul\":13619:13646   */\n      swap1\n      pop\n        /* \"#utility.yul\":13656:13727   */\n      tag_406\n        /* \"#utility.yul\":13724:13725   */\n      0x00\n        /* \"#utility.yul\":13713:13722   */\n      dup4\n        /* \"#utility.yul\":13709:13726   */\n      add\n        /* \"#utility.yul\":13700:13706   */\n      dup12\n        /* \"#utility.yul\":13656:13727   */\n      tag_354\n      jump\t// in\n    tag_406:\n        /* \"#utility.yul\":13774:13783   */\n      dup2\n        /* \"#utility.yul\":13768:13772   */\n      dup2\n        /* \"#utility.yul\":13764:13784   */\n      sub\n        /* \"#utility.yul\":13759:13761   */\n      0x20\n        /* \"#utility.yul\":13748:13757   */\n      dup4\n        /* \"#utility.yul\":13744:13762   */\n      add\n        /* \"#utility.yul\":13737:13785   */\n      mstore\n        /* \"#utility.yul\":13802:13880   */\n      tag_407\n        /* \"#utility.yul\":13875:13879   */\n      dup2\n        /* \"#utility.yul\":13866:13872   */\n      dup11\n        /* \"#utility.yul\":13802:13880   */\n      tag_381\n      jump\t// in\n    tag_407:\n        /* \"#utility.yul\":13794:13880   */\n      swap1\n      pop\n        /* \"#utility.yul\":13927:13936   */\n      dup2\n        /* \"#utility.yul\":13921:13925   */\n      dup2\n        /* \"#utility.yul\":13917:13937   */\n      sub\n        /* \"#utility.yul\":13912:13914   */\n      0x40\n        /* \"#utility.yul\":13901:13910   */\n      dup4\n        /* \"#utility.yul\":13897:13915   */\n      add\n        /* \"#utility.yul\":13890:13938   */\n      mstore\n        /* \"#utility.yul\":13955:14033   */\n      tag_408\n        /* \"#utility.yul\":14028:14032   */\n      dup2\n        /* \"#utility.yul\":14019:14025   */\n      dup10\n        /* \"#utility.yul\":13955:14033   */\n      tag_381\n      jump\t// in\n    tag_408:\n        /* \"#utility.yul\":13947:14033   */\n      swap1\n      pop\n        /* \"#utility.yul\":14080:14089   */\n      dup2\n        /* \"#utility.yul\":14074:14078   */\n      dup2\n        /* \"#utility.yul\":14070:14090   */\n      sub\n        /* \"#utility.yul\":14065:14067   */\n      0x60\n        /* \"#utility.yul\":14054:14063   */\n      dup4\n        /* \"#utility.yul\":14050:14068   */\n      add\n        /* \"#utility.yul\":14043:14091   */\n      mstore\n        /* \"#utility.yul\":14108:14186   */\n      tag_409\n        /* \"#utility.yul\":14181:14185   */\n      dup2\n        /* \"#utility.yul\":14172:14178   */\n      dup9\n        /* \"#utility.yul\":14108:14186   */\n      tag_381\n      jump\t// in\n    tag_409:\n        /* \"#utility.yul\":14100:14186   */\n      swap1\n      pop\n        /* \"#utility.yul\":14234:14243   */\n      dup2\n        /* \"#utility.yul\":14228:14232   */\n      dup2\n        /* \"#utility.yul\":14224:14244   */\n      sub\n        /* \"#utility.yul\":14218:14221   */\n      0x80\n        /* \"#utility.yul\":14207:14216   */\n      dup4\n        /* \"#utility.yul\":14203:14222   */\n      add\n        /* \"#utility.yul\":14196:14245   */\n      mstore\n        /* \"#utility.yul\":14262:14340   */\n      tag_410\n        /* \"#utility.yul\":14335:14339   */\n      dup2\n        /* \"#utility.yul\":14326:14332   */\n      dup8\n        /* \"#utility.yul\":14262:14340   */\n      tag_381\n      jump\t// in\n    tag_410:\n        /* \"#utility.yul\":14254:14340   */\n      swap1\n      pop\n        /* \"#utility.yul\":14350:14423   */\n      tag_411\n        /* \"#utility.yul\":14418:14421   */\n      0xa0\n        /* \"#utility.yul\":14407:14416   */\n      dup4\n        /* \"#utility.yul\":14403:14422   */\n      add\n        /* \"#utility.yul\":14394:14400   */\n      dup7\n        /* \"#utility.yul\":14350:14423   */\n      tag_401\n      jump\t// in\n    tag_411:\n        /* \"#utility.yul\":14471:14480   */\n      dup2\n        /* \"#utility.yul\":14465:14469   */\n      dup2\n        /* \"#utility.yul\":14461:14481   */\n      sub\n        /* \"#utility.yul\":14455:14458   */\n      0xc0\n        /* \"#utility.yul\":14444:14453   */\n      dup4\n        /* \"#utility.yul\":14440:14459   */\n      add\n        /* \"#utility.yul\":14433:14482   */\n      mstore\n        /* \"#utility.yul\":14499:14605   */\n      tag_412\n        /* \"#utility.yul\":14600:14604   */\n      dup2\n        /* \"#utility.yul\":14591:14597   */\n      dup6\n        /* \"#utility.yul\":14499:14605   */\n      tag_388\n      jump\t// in\n    tag_412:\n        /* \"#utility.yul\":14491:14605   */\n      swap1\n      pop\n        /* \"#utility.yul\":14653:14662   */\n      dup2\n        /* \"#utility.yul\":14647:14651   */\n      dup2\n        /* \"#utility.yul\":14643:14663   */\n      sub\n        /* \"#utility.yul\":14637:14640   */\n      0xe0\n        /* \"#utility.yul\":14626:14635   */\n      dup4\n        /* \"#utility.yul\":14622:14641   */\n      add\n        /* \"#utility.yul\":14615:14664   */\n      mstore\n        /* \"#utility.yul\":14681:14781   */\n      tag_413\n        /* \"#utility.yul\":14776:14780   */\n      dup2\n        /* \"#utility.yul\":14767:14773   */\n      dup5\n        /* \"#utility.yul\":14681:14781   */\n      tag_396\n      jump\t// in\n    tag_413:\n        /* \"#utility.yul\":14673:14781   */\n      swap1\n      pop\n        /* \"#utility.yul\":13145:14788   */\n      swap10\n      swap9\n      pop\n      pop\n      pop\n      pop\n      pop\n      pop\n      pop\n      pop\n      pop\n      jump\t// out\n        /* \"#utility.yul\":14794:15711   */\n    tag_45:\n        /* \"#utility.yul\":15051:15055   */\n      0x00\n        /* \"#utility.yul\":15089:15092   */\n      0x80\n        /* \"#utility.yul\":15078:15087   */\n      dup3\n        /* \"#utility.yul\":15074:15093   */\n      add\n        /* \"#utility.yul\":15066:15093   */\n      swap1\n      pop\n        /* \"#utility.yul\":15139:15148   */\n      dup2\n        /* \"#utility.yul\":15133:15137   */\n      dup2\n        /* \"#utility.yul\":15129:15149   */\n      sub\n        /* \"#utility.yul\":15125:15126   */\n      0x00\n        /* \"#utility.yul\":15114:15123   */\n      dup4\n        /* \"#utility.yul\":15110:15127   */\n      add\n        /* \"#utility.yul\":15103:15150   */\n      mstore\n        /* \"#utility.yul\":15167:15245   */\n      tag_415\n        /* \"#utility.yul\":15240:15244   */\n      dup2\n        /* \"#utility.yul\":15231:15237   */\n      dup8\n        /* \"#utility.yul\":15167:15245   */\n      tag_381\n      jump\t// in\n    tag_415:\n        /* \"#utility.yul\":15159:15245   */\n      swap1\n      pop\n        /* \"#utility.yul\":15292:15301   */\n      dup2\n        /* \"#utility.yul\":15286:15290   */\n      dup2\n        /* \"#utility.yul\":15282:15302   */\n      sub\n        /* \"#utility.yul\":15277:15279   */\n      0x20\n        /* \"#utility.yul\":15266:15275   */\n      dup4\n        /* \"#utility.yul\":15262:15280   */\n      add\n        /* \"#utility.yul\":15255:15303   */\n      mstore\n        /* \"#utility.yul\":15320:15398   */\n      tag_416\n        /* \"#utility.yul\":15393:15397   */\n      dup2\n        /* \"#utility.yul\":15384:15390   */\n      dup7\n        /* \"#utility.yul\":15320:15398   */\n      tag_381\n      jump\t// in\n    tag_416:\n        /* \"#utility.yul\":15312:15398   */\n      swap1\n      pop\n        /* \"#utility.yul\":15445:15454   */\n      dup2\n        /* \"#utility.yul\":15439:15443   */\n      dup2\n        /* \"#utility.yul\":15435:15455   */\n      sub\n        /* \"#utility.yul\":15430:15432   */\n      0x40\n        /* \"#utility.yul\":15419:15428   */\n      dup4\n        /* \"#utility.yul\":15415:15433   */\n      add\n        /* \"#utility.yul\":15408:15456   */\n      mstore\n        /* \"#utility.yul\":15473:15551   */\n      tag_417\n        /* \"#utility.yul\":15546:15550   */\n      dup2\n        /* \"#utility.yul\":15537:15543   */\n      dup6\n        /* \"#utility.yul\":15473:15551   */\n      tag_381\n      jump\t// in\n    tag_417:\n        /* \"#utility.yul\":15465:15551   */\n      swap1\n      pop\n        /* \"#utility.yul\":15598:15607   */\n      dup2\n        /* \"#utility.yul\":15592:15596   */\n      dup2\n        /* \"#utility.yul\":15588:15608   */\n      sub\n        /* \"#utility.yul\":15583:15585   */\n      0x60\n        /* \"#utility.yul\":15572:15581   */\n      dup4\n        /* \"#utility.yul\":15568:15586   */\n      add\n        /* \"#utility.yul\":15561:15609   */\n      mstore\n        /* \"#utility.yul\":15626:15704   */\n      tag_418\n        /* \"#utility.yul\":15699:15703   */\n      dup2\n        /* \"#utility.yul\":15690:15696   */\n      dup5\n        /* \"#utility.yul\":15626:15704   */\n      tag_381\n      jump\t// in\n    tag_418:\n        /* \"#utility.yul\":15618:15704   */\n      swap1\n      pop\n        /* \"#utility.yul\":14794:15711   */\n      swap6\n      swap5\n      pop\n      pop\n      pop\n      pop\n      pop\n      jump\t// out\n        /* \"#utility.yul\":15717:15939   */\n    tag_20:\n        /* \"#utility.yul\":15810:15814   */\n      0x00\n        /* \"#utility.yul\":15848:15850   */\n      0x20\n        /* \"#utility.yul\":15837:15846   */\n      dup3\n        /* \"#utility.yul\":15833:15851   */\n      add\n        /* \"#utility.yul\":15825:15851   */\n      swap1\n      pop\n        /* \"#utility.yul\":15861:15932   */\n      tag_420\n        /* \"#utility.yul\":15929:15930   */\n      0x00\n        /* \"#utility.yul\":15918:15927   */\n      dup4\n        /* \"#utility.yul\":15914:15931   */\n      add\n        /* \"#utility.yul\":15905:15911   */\n      dup5\n        /* \"#utility.yul\":15861:15932   */\n      tag_401\n      jump\t// in\n    tag_420:\n        /* \"#utility.yul\":15717:15939   */\n      swap3\n      swap2\n      pop\n      pop\n      jump\t// out\n        /* \"#utility.yul\":15945:16074   */\n    tag_253:\n        /* \"#utility.yul\":15979:15985   */\n      0x00\n        /* \"#utility.yul\":16006:16026   */\n      tag_422\n      tag_423\n      jump\t// in\n    tag_422:\n        /* \"#utility.yul\":15996:16026   */\n      swap1\n      pop\n        /* \"#utility.yul\":16035:16068   */\n      tag_424\n        /* \"#utility.yul\":16063:16067   */\n      dup3\n        /* \"#utility.yul\":16055:16061   */\n      dup3\n        /* \"#utility.yul\":16035:16068   */\n      tag_425\n      jump\t// in\n    tag_424:\n        /* \"#utility.yul\":15945:16074   */\n      swap2\n      swap1\n      pop\n      jump\t// out\n        /* \"#utility.yul\":16080:16155   */\n    tag_423:\n        /* \"#utility.yul\":16113:16119   */\n      0x00\n        /* \"#utility.yul\":16146:16148   */\n      0x40\n        /* \"#utility.yul\":16140:16149   */\n      mload\n        /* \"#utility.yul\":16130:16149   */\n      swap1\n      pop\n        /* \"#utility.yul\":16080:16155   */\n      swap1\n      jump\t// out\n        /* \"#utility.yul\":16161:16482   */\n    tag_252:\n        /* \"#utility.yul\":16248:16252   */\n      0x00\n        /* \"#utility.yul\":16338:16356   */\n      0xffffffffffffffff\n        /* \"#utility.yul\":16330:16336   */\n      dup3\n        /* \"#utility.yul\":16327:16357   */\n      gt\n        /* \"#utility.yul\":16324:16380   */\n      iszero\n      tag_428\n      jumpi\n        /* \"#utility.yul\":16360:16378   */\n      tag_429\n      tag_430\n      jump\t// in\n    tag_429:\n        /* \"#utility.yul\":16324:16380   */\n    tag_428:\n        /* \"#utility.yul\":16410:16414   */\n      0x20\n        /* \"#utility.yul\":16402:16408   */\n      dup3\n        /* \"#utility.yul\":16398:16415   */\n      mul\n        /* \"#utility.yul\":16390:16415   */\n      swap1\n      pop\n        /* \"#utility.yul\":16470:16474   */\n      0x20\n        /* \"#utility.yul\":16464:16468   */\n      dup2\n        /* \"#utility.yul\":16460:16475   */\n      add\n        /* \"#utility.yul\":16452:16475   */\n      swap1\n      pop\n        /* \"#utility.yul\":16161:16482   */\n      swap2\n      swap1\n      pop\n      jump\t// out\n        /* \"#utility.yul\":16488:16796   */\n    tag_269:\n        /* \"#utility.yul\":16550:16554   */\n      0x00\n        /* \"#utility.yul\":16640:16658   */\n      0xffffffffffffffff\n        /* \"#utility.yul\":16632:16638   */\n      dup3\n        /* \"#utility.yul\":16629:16659   */\n      gt\n        /* \"#utility.yul\":16626:16682   */\n      iszero\n      tag_432\n      jumpi\n        /* \"#utility.yul\":16662:16680   */\n      tag_433\n      tag_430\n      jump\t// in\n    tag_433:\n        /* \"#utility.yul\":16626:16682   */\n    tag_432:\n        /* \"#utility.yul\":16700:16729   */\n      tag_434\n        /* \"#utility.yul\":16722:16728   */\n      dup3\n        /* \"#utility.yul\":16700:16729   */\n      tag_380\n      jump\t// in\n    tag_434:\n        /* \"#utility.yul\":16692:16729   */\n      swap1\n      pop\n        /* \"#utility.yul\":16784:16788   */\n      0x20\n        /* \"#utility.yul\":16778:16782   */\n      dup2\n        /* \"#utility.yul\":16774:16789   */\n      add\n        /* \"#utility.yul\":16766:16789   */\n      swap1\n      pop\n        /* \"#utility.yul\":16488:16796   */\n      swap2\n      swap1\n      pop\n      jump\t// out\n        /* \"#utility.yul\":16802:16944   */\n    tag_365:\n        /* \"#utility.yul\":16879:16883   */\n      0x00\n        /* \"#utility.yul\":16902:16905   */\n      dup2\n        /* \"#utility.yul\":16894:16905   */\n      swap1\n      pop\n        /* \"#utility.yul\":16932:16936   */\n      0x20\n        /* \"#utility.yul\":16927:16930   */\n      dup3\n        /* \"#utility.yul\":16923:16937   */\n      add\n        /* \"#utility.yul\":16915:16937   */\n      swap1\n      pop\n        /* \"#utility.yul\":16802:16944   */\n      swap2\n      swap1\n      pop\n      jump\t// out\n        /* \"#utility.yul\":16950:17074   */\n    tag_361:\n        /* \"#utility.yul\":17027:17033   */\n      0x00\n        /* \"#utility.yul\":17061:17066   */\n      dup2\n        /* \"#utility.yul\":17055:17067   */\n      mload\n        /* \"#utility.yul\":17045:17067   */\n      swap1\n      pop\n        /* \"#utility.yul\":16950:17074   */\n      swap2\n      swap1\n      pop\n      jump\t// out\n        /* \"#utility.yul\":17080:17179   */\n    tag_374:\n        /* \"#utility.yul\":17132:17138   */\n      0x00\n        /* \"#utility.yul\":17166:17171   */\n      dup2\n        /* \"#utility.yul\":17160:17172   */\n      mload\n        /* \"#utility.yul\":17150:17172   */\n      swap1\n      pop\n        /* \"#utility.yul\":17080:17179   */\n      swap2\n      swap1\n      pop\n      jump\t// out\n        /* \"#utility.yul\":17185:17308   */\n    tag_371:\n        /* \"#utility.yul\":17265:17269   */\n      0x00\n        /* \"#utility.yul\":17297:17301   */\n      0x20\n        /* \"#utility.yul\":17292:17295   */\n      dup3\n        /* \"#utility.yul\":17288:17302   */\n      add\n        /* \"#utility.yul\":17280:17302   */\n      swap1\n      pop\n        /* \"#utility.yul\":17185:17308   */\n      swap2\n      swap1\n      pop\n      jump\t// out\n        /* \"#utility.yul\":17314:17498   */\n    tag_363:\n        /* \"#utility.yul\":17413:17424   */\n      0x00\n        /* \"#utility.yul\":17447:17453   */\n      dup3\n        /* \"#utility.yul\":17442:17445   */\n      dup3\n        /* \"#utility.yul\":17435:17454   */\n      mstore\n        /* \"#utility.yul\":17487:17491   */\n      0x20\n        /* \"#utility.yul\":17482:17485   */\n      dup3\n        /* \"#utility.yul\":17478:17492   */\n      add\n        /* \"#utility.yul\":17463:17492   */\n      swap1\n      pop\n        /* \"#utility.yul\":17314:17498   */\n      swap3\n      swap2\n      pop\n      pop\n      jump\t// out\n        /* \"#utility.yul\":17504:17663   */\n    tag_376:\n        /* \"#utility.yul\":17578:17589   */\n      0x00\n        /* \"#utility.yul\":17612:17618   */\n      dup3\n        /* \"#utility.yul\":17607:17610   */\n      dup3\n        /* \"#utility.yul\":17600:17619   */\n      mstore\n        /* \"#utility.yul\":17652:17656   */\n      0x20\n        /* \"#utility.yul\":17647:17650   */\n      dup3\n        /* \"#utility.yul\":17643:17657   */\n      add\n        /* \"#utility.yul\":17628:17657   */\n      swap1\n      pop\n        /* \"#utility.yul\":17504:17663   */\n      swap3\n      swap2\n      pop\n      pop\n      jump\t// out\n        /* \"#utility.yul\":17669:17838   */\n    tag_385:\n        /* \"#utility.yul\":17753:17764   */\n      0x00\n        /* \"#utility.yul\":17787:17793   */\n      dup3\n        /* \"#utility.yul\":17782:17785   */\n      dup3\n        /* \"#utility.yul\":17775:17794   */\n      mstore\n        /* \"#utility.yul\":17827:17831   */\n      0x20\n        /* \"#utility.yul\":17822:17825   */\n      dup3\n        /* \"#utility.yul\":17818:17832   */\n      add\n        /* \"#utility.yul\":17803:17832   */\n      swap1\n      pop\n        /* \"#utility.yul\":17669:17838   */\n      swap3\n      swap2\n      pop\n      pop\n      jump\t// out\n        /* \"#utility.yul\":17844:17940   */\n    tag_357:\n        /* \"#utility.yul\":17881:17888   */\n      0x00\n        /* \"#utility.yul\":17910:17934   */\n      tag_443\n        /* \"#utility.yul\":17928:17933   */\n      dup3\n        /* \"#utility.yul\":17910:17934   */\n      tag_444\n      jump\t// in\n    tag_443:\n        /* \"#utility.yul\":17899:17934   */\n      swap1\n      pop\n        /* \"#utility.yul\":17844:17940   */\n      swap2\n      swap1\n      pop\n      jump\t// out\n        /* \"#utility.yul\":17946:18072   */\n    tag_444:\n        /* \"#utility.yul\":17983:17990   */\n      0x00\n        /* \"#utility.yul\":18023:18065   */\n      0xffffffffffffffffffffffffffffffffffffffff\n        /* \"#utility.yul\":18016:18021   */\n      dup3\n        /* \"#utility.yul\":18012:18066   */\n      and\n        /* \"#utility.yul\":18001:18066   */\n      swap1\n      pop\n        /* \"#utility.yul\":17946:18072   */\n      swap2\n      swap1\n      pop\n      jump\t// out\n        /* \"#utility.yul\":18078:18155   */\n    tag_404:\n        /* \"#utility.yul\":18115:18122   */\n      0x00\n        /* \"#utility.yul\":18144:18149   */\n      dup2\n        /* \"#utility.yul\":18133:18149   */\n      swap1\n      pop\n        /* \"#utility.yul\":18078:18155   */\n      swap2\n      swap1\n      pop\n      jump\t// out\n        /* \"#utility.yul\":18161:18315   */\n    tag_274:\n        /* \"#utility.yul\":18245:18251   */\n      dup3\n        /* \"#utility.yul\":18240:18243   */\n      dup2\n        /* \"#utility.yul\":18235:18238   */\n      dup4\n        /* \"#utility.yul\":18222:18252   */\n      calldatacopy\n        /* \"#utility.yul\":18307:18308   */\n      0x00\n        /* \"#utility.yul\":18298:18304   */\n      dup4\n        /* \"#utility.yul\":18293:18296   */\n      dup4\n        /* \"#utility.yul\":18289:18305   */\n      add\n        /* \"#utility.yul\":18282:18309   */\n      mstore\n        /* \"#utility.yul\":18161:18315   */\n      pop\n      pop\n      pop\n      jump\t// out\n        /* \"#utility.yul\":18321:18628   */\n    tag_378:\n        /* \"#utility.yul\":18389:18390   */\n      0x00\n        /* \"#utility.yul\":18399:18512   */\n    tag_449:\n        /* \"#utility.yul\":18413:18419   */\n      dup4\n        /* \"#utility.yul\":18410:18411   */\n      dup2\n        /* \"#utility.yul\":18407:18420   */\n      lt\n        /* \"#utility.yul\":18399:18512   */\n      iszero\n      tag_451\n      jumpi\n        /* \"#utility.yul\":18498:18499   */\n      dup1\n        /* \"#utility.yul\":18493:18496   */\n      dup3\n        /* \"#utility.yul\":18489:18500   */\n      add\n        /* \"#utility.yul\":18483:18501   */\n      mload\n        /* \"#utility.yul\":18479:18480   */\n      dup2\n        /* \"#utility.yul\":18474:18477   */\n      dup5\n        /* \"#utility.yul\":18470:18481   */\n      add\n        /* \"#utility.yul\":18463:18502   */\n      mstore\n        /* \"#utility.yul\":18435:18437   */\n      0x20\n        /* \"#utility.yul\":18432:18433   */\n      dup2\n        /* \"#utility.yul\":18428:18438   */\n      add\n        /* \"#utility.yul\":18423:18438   */\n      swap1\n      pop\n        /* \"#utility.yul\":18399:18512   */\n      jump(tag_449)\n    tag_451:\n        /* \"#utility.yul\":18530:18536   */\n      dup4\n        /* \"#utility.yul\":18527:18528   */\n      dup2\n        /* \"#utility.yul\":18524:18537   */\n      gt\n        /* \"#utility.yul\":18521:18622   */\n      iszero\n      tag_452\n      jumpi\n        /* \"#utility.yul\":18610:18611   */\n      0x00\n        /* \"#utility.yul\":18601:18607   */\n      dup5\n        /* \"#utility.yul\":18596:18599   */\n      dup5\n        /* \"#utility.yul\":18592:18608   */\n      add\n        /* \"#utility.yul\":18585:18612   */\n      mstore\n        /* \"#utility.yul\":18521:18622   */\n    tag_452:\n        /* \"#utility.yul\":18370:18628   */\n      pop\n        /* \"#utility.yul\":18321:18628   */\n      pop\n      pop\n      pop\n      jump\t// out\n        /* \"#utility.yul\":18634:18954   */\n    tag_87:\n        /* \"#utility.yul\":18678:18684   */\n      0x00\n        /* \"#utility.yul\":18715:18716   */\n      0x02\n        /* \"#utility.yul\":18709:18713   */\n      dup3\n        /* \"#utility.yul\":18705:18717   */\n      div\n        /* \"#utility.yul\":18695:18717   */\n      swap1\n      pop\n        /* \"#utility.yul\":18762:18763   */\n      0x01\n        /* \"#utility.yul\":18756:18760   */\n      dup3\n        /* \"#utility.yul\":18752:18764   */\n      and\n        /* \"#utility.yul\":18783:18801   */\n      dup1\n        /* \"#utility.yul\":18773:18854   */\n      tag_454\n      jumpi\n        /* \"#utility.yul\":18839:18843   */\n      0x7f\n        /* \"#utility.yul\":18831:18837   */\n      dup3\n        /* \"#utility.yul\":18827:18844   */\n      and\n        /* \"#utility.yul\":18817:18844   */\n      swap2\n      pop\n        /* \"#utility.yul\":18773:18854   */\n    tag_454:\n        /* \"#utility.yul\":18901:18903   */\n      0x20\n        /* \"#utility.yul\":18893:18899   */\n      dup3\n        /* \"#utility.yul\":18890:18904   */\n      lt\n        /* \"#utility.yul\":18870:18888   */\n      dup2\n        /* \"#utility.yul\":18867:18905   */\n      eq\n        /* \"#utility.yul\":18864:18948   */\n      iszero\n      tag_455\n      jumpi\n        /* \"#utility.yul\":18920:18938   */\n      tag_456\n      tag_457\n      jump\t// in\n    tag_456:\n        /* \"#utility.yul\":18864:18948   */\n    tag_455:\n        /* \"#utility.yul\":18685:18954   */\n      pop\n        /* \"#utility.yul\":18634:18954   */\n      swap2\n      swap1\n      pop\n      jump\t// out\n        /* \"#utility.yul\":18960:19241   */\n    tag_425:\n        /* \"#utility.yul\":19043:19070   */\n      tag_459\n        /* \"#utility.yul\":19065:19069   */\n      dup3\n        /* \"#utility.yul\":19043:19070   */\n      tag_380\n      jump\t// in\n    tag_459:\n        /* \"#utility.yul\":19035:19041   */\n      dup2\n        /* \"#utility.yul\":19031:19071   */\n      add\n        /* \"#utility.yul\":19173:19179   */\n      dup2\n        /* \"#utility.yul\":19161:19171   */\n      dup2\n        /* \"#utility.yul\":19158:19180   */\n      lt\n        /* \"#utility.yul\":19137:19155   */\n      0xffffffffffffffff\n        /* \"#utility.yul\":19125:19135   */\n      dup3\n        /* \"#utility.yul\":19122:19156   */\n      gt\n        /* \"#utility.yul\":19119:19181   */\n      or\n        /* \"#utility.yul\":19116:19204   */\n      iszero\n      tag_460\n      jumpi\n        /* \"#utility.yul\":19184:19202   */\n      tag_461\n      tag_430\n      jump\t// in\n    tag_461:\n        /* \"#utility.yul\":19116:19204   */\n    tag_460:\n        /* \"#utility.yul\":19224:19234   */\n      dup1\n        /* \"#utility.yul\":19220:19222   */\n      0x40\n        /* \"#utility.yul\":19213:19235   */\n      mstore\n        /* \"#utility.yul\":19003:19241   */\n      pop\n        /* \"#utility.yul\":18960:19241   */\n      pop\n      pop\n      jump\t// out\n        /* \"#utility.yul\":19247:19427   */\n    tag_457:\n        /* \"#utility.yul\":19295:19372   */\n      0x4e487b7100000000000000000000000000000000000000000000000000000000\n        /* \"#utility.yul\":19292:19293   */\n      0x00\n        /* \"#utility.yul\":19285:19373   */\n      mstore\n        /* \"#utility.yul\":19392:19396   */\n      0x22\n        /* \"#utility.yul\":19389:19390   */\n      0x04\n        /* \"#utility.yul\":19382:19397   */\n      mstore\n        /* \"#utility.yul\":19416:19420   */\n      0x24\n        /* \"#utility.yul\":19413:19414   */\n      0x00\n        /* \"#utility.yul\":19406:19421   */\n      revert\n        /* \"#utility.yul\":19433:19613   */\n    tag_167:\n        /* \"#utility.yul\":19481:19558   */\n      0x4e487b7100000000000000000000000000000000000000000000000000000000\n        /* \"#utility.yul\":19478:19479   */\n      0x00\n        /* \"#utility.yul\":19471:19559   */\n      mstore\n        /* \"#utility.yul\":19578:19582   */\n      0x32\n        /* \"#utility.yul\":19575:19576   */\n      0x04\n        /* \"#utility.yul\":19568:19583   */\n      mstore\n        /* \"#utility.yul\":19602:19606   */\n      0x24\n        /* \"#utility.yul\":19599:19600   */\n      0x00\n        /* \"#utility.yul\":19592:19607   */\n      revert\n        /* \"#utility.yul\":19619:19799   */\n    tag_430:\n        /* \"#utility.yul\":19667:19744   */\n      0x4e487b7100000000000000000000000000000000000000000000000000000000\n        /* \"#utility.yul\":19664:19665   */\n      0x00\n        /* \"#utility.yul\":19657:19745   */\n      mstore\n        /* \"#utility.yul\":19764:19768   */\n      0x41\n        /* \"#utility.yul\":19761:19762   */\n      0x04\n        /* \"#utility.yul\":19754:19769   */\n      mstore\n        /* \"#utility.yul\":19788:19792   */\n      0x24\n        /* \"#utility.yul\":19785:19786   */\n      0x00\n        /* \"#utility.yul\":19778:19793   */\n      revert\n        /* \"#utility.yul\":19805:19922   */\n    tag_262:\n        /* \"#utility.yul\":19914:19915   */\n      0x00\n        /* \"#utility.yul\":19911:19912   */\n      dup1\n        /* \"#utility.yul\":19904:19916   */\n      revert\n        /* \"#utility.yul\":19928:20045   */\n    tag_256:\n        /* \"#utility.yul\":20037:20038   */\n      0x00\n        /* \"#utility.yul\":20034:20035   */\n      dup1\n        /* \"#utility.yul\":20027:20039   */\n      revert\n        /* \"#utility.yul\":20051:20168   */\n    tag_272:\n        /* \"#utility.yul\":20160:20161   */\n      0x00\n        /* \"#utility.yul\":20157:20158   */\n      dup1\n        /* \"#utility.yul\":20150:20162   */\n      revert\n        /* \"#utility.yul\":20174:20291   */\n    tag_302:\n        /* \"#utility.yul\":20283:20284   */\n      0x00\n        /* \"#utility.yul\":20280:20281   */\n      dup1\n        /* \"#utility.yul\":20273:20285   */\n      revert\n        /* \"#utility.yul\":20297:20414   */\n    tag_295:\n        /* \"#utility.yul\":20406:20407   */\n      0x00\n        /* \"#utility.yul\":20403:20404   */\n      dup1\n        /* \"#utility.yul\":20396:20408   */\n      revert\n        /* \"#utility.yul\":20420:20522   */\n    tag_380:\n        /* \"#utility.yul\":20461:20467   */\n      0x00\n        /* \"#utility.yul\":20512:20514   */\n      0x1f\n        /* \"#utility.yul\":20508:20515   */\n      not\n        /* \"#utility.yul\":20503:20505   */\n      0x1f\n        /* \"#utility.yul\":20496:20501   */\n      dup4\n        /* \"#utility.yul\":20492:20506   */\n      add\n        /* \"#utility.yul\":20488:20516   */\n      and\n        /* \"#utility.yul\":20478:20516   */\n      swap1\n      pop\n        /* \"#utility.yul\":20420:20522   */\n      swap2\n      swap1\n      pop\n      jump\t// out\n        /* \"#utility.yul\":20528:20650   */\n    tag_278:\n        /* \"#utility.yul\":20601:20625   */\n      tag_472\n        /* \"#utility.yul\":20619:20624   */\n      dup2\n        /* \"#utility.yul\":20601:20625   */\n      tag_357\n      jump\t// in\n    tag_472:\n        /* \"#utility.yul\":20594:20599   */\n      dup2\n        /* \"#utility.yul\":20591:20626   */\n      eq\n        /* \"#utility.yul\":20581:20644   */\n      tag_473\n      jumpi\n        /* \"#utility.yul\":20640:20641   */\n      0x00\n        /* \"#utility.yul\":20637:20638   */\n      dup1\n        /* \"#utility.yul\":20630:20642   */\n      revert\n        /* \"#utility.yul\":20581:20644   */\n    tag_473:\n        /* \"#utility.yul\":20528:20650   */\n      pop\n      jump\t// out\n        /* \"#utility.yul\":20656:20778   */\n    tag_291:\n        /* \"#utility.yul\":20729:20753   */\n      tag_475\n        /* \"#utility.yul\":20747:20752   */\n      dup2\n        /* \"#utility.yul\":20729:20753   */\n      tag_404\n      jump\t// in\n    tag_475:\n        /* \"#utility.yul\":20722:20727   */\n      dup2\n        /* \"#utility.yul\":20719:20754   */\n      eq\n        /* \"#utility.yul\":20709:20772   */\n      tag_476\n      jumpi\n        /* \"#utility.yul\":20768:20769   */\n      0x00\n        /* \"#utility.yul\":20765:20766   */\n      dup1\n        /* \"#utility.yul\":20758:20770   */\n      revert\n        /* \"#utility.yul\":20709:20772   */\n    tag_476:\n        /* \"#utility.yul\":20656:20778   */\n      pop\n      jump\t// out\n\n    auxdata: 0xa264697066735822122059c14c8afd61d21ebb45e8fb301b3201987a8e68639dba0b503d8c5e241e9a3864736f6c63430008070033\n}\n",
				"bytecode": {
					"linkReferences": {},
					"object": "608060405234801561001057600080fd5b5061243e806100206000396000f3fe608060405234801561001057600080fd5b50600436106100935760003560e01c80639d983a01116100665780639d983a011461010a5780639dd9d0fd14610126578063ed2217ef1461015d578063f96e32f814610167578063fabce08f1461019a57610093565b80633d984d0e146100985780636212fa02146100b45780637d64e0e4146100d25780638c241fc4146100ee575b600080fd5b6100b260048036038101906100ad9190611b33565b6101a4565b005b6100bc610328565b6040516100c9919061213f565b60405180910390f35b6100ec60048036038101906100e79190611cb1565b610374565b005b61010860048036038101906101039190611bda565b610636565b005b610124600480360381019061011f9190611bda565b61085a565b005b610140600480360381019061013b9190611b06565b61096e565b604051610154989796959493929190612036565b60405180910390f35b610165611201565b005b610181600480360381019061017c9190611de6565b611250565b60405161019194939291906120de565b60405180910390f35b6101a2611625565b005b6000803373ffffffffffffffffffffffffffffffffffffffff1673ffffffffffffffffffffffffffffffffffffffff168152602001908152602001600020600c01600080820160006101f69190611785565b6001820160006102069190611785565b6002820160006102169190611785565b5050826000803373ffffffffffffffffffffffffffffffffffffffff1673ffffffffffffffffffffffffffffffffffffffff168152602001908152602001600020600c0160000190805190602001906102709291906117a6565b50816000803373ffffffffffffffffffffffffffffffffffffffff1673ffffffffffffffffffffffffffffffffffffffff168152602001908152602001600020600c0160010190805190602001906102c99291906117a6565b50806000803373ffffffffffffffffffffffffffffffffffffffff1673ffffffffffffffffffffffffffffffffffffffff168152602001908152602001600020600c0160020190805190602001906103229291906117a6565b50505050565b60008060003373ffffffffffffffffffffffffffffffffffffffff1673ffffffffffffffffffffffffffffffffffffffff168152602001908152602001600020600f0180549050905090565b6000803373ffffffffffffffffffffffffffffffffffffffff1673ffffffffffffffffffffffffffffffffffffffff168152602001908152602001600020600601600080820160006103c69190611806565b6001820160006103d69190611806565b6002820160006103e69190611806565b6003820160006103f69190611806565b6004820160006104069190611806565b6005820160006104169190611806565b5050856000803373ffffffffffffffffffffffffffffffffffffffff1673ffffffffffffffffffffffffffffffffffffffff1681526020019081526020016000206006016001019080519060200190610470929190611846565b50846000803373ffffffffffffffffffffffffffffffffffffffff1673ffffffffffffffffffffffffffffffffffffffff16815260200190815260200160002060060160020190805190602001906104c9929190611846565b50836000803373ffffffffffffffffffffffffffffffffffffffff1673ffffffffffffffffffffffffffffffffffffffff1681526020019081526020016000206006016003019080519060200190610522929190611846565b50826000803373ffffffffffffffffffffffffffffffffffffffff1673ffffffffffffffffffffffffffffffffffffffff168152602001908152602001600020600601600201908051906020019061057b929190611846565b50816000803373ffffffffffffffffffffffffffffffffffffffff1673ffffffffffffffffffffffffffffffffffffffff16815260200190815260200160002060060160010190805190602001906105d4929190611846565b50806000803373ffffffffffffffffffffffffffffffffffffffff1673ffffffffffffffffffffffffffffffffffffffff168152602001908152602001600020600601600001908051906020019061062d929190611846565b50505050505050565b836000803373ffffffffffffffffffffffffffffffffffffffff1673ffffffffffffffffffffffffffffffffffffffff168152602001908152602001600020600101908051906020019061068b929190611846565b50826000803373ffffffffffffffffffffffffffffffffffffffff1673ffffffffffffffffffffffffffffffffffffffff16815260200190815260200160002060020190805190602001906106e1929190611846565b50816000803373ffffffffffffffffffffffffffffffffffffffff1673ffffffffffffffffffffffffffffffffffffffff1681526020019081526020016000206003019080519060200190610737929190611846565b50806000803373ffffffffffffffffffffffffffffffffffffffff1673ffffffffffffffffffffffffffffffffffffffff168152602001908152602001600020600401908051906020019061078d929190611846565b50336000803373ffffffffffffffffffffffffffffffffffffffff1673ffffffffffffffffffffffffffffffffffffffff16815260200190815260200160002060000160006101000a81548173ffffffffffffffffffffffffffffffffffffffff021916908373ffffffffffffffffffffffffffffffffffffffff160217905550426000803373ffffffffffffffffffffffffffffffffffffffff1673ffffffffffffffffffffffffffffffffffffffff1681526020019081526020016000206005018190555050505050565b6108626118cc565b8481600001819052508381602001819052508281604001819052508181606001819052506000803373ffffffffffffffffffffffffffffffffffffffff1673ffffffffffffffffffffffffffffffffffffffff168152602001908152602001600020600f01819080600181540180825580915050600190039060005260206000209060040201600090919091909150600082015181600001908051906020019061090d929190611846565b50602082015181600101908051906020019061092a929190611846565b506040820151816002019080519060200190610947929190611846565b506060820151816003019080519060200190610964929190611846565b5050505050505050565b60006020528060005260406000206000915090508060000160009054906101000a900473ffffffffffffffffffffffffffffffffffffffff16908060010180546109b7906122c0565b80601f01602080910402602001604051908101604052809291908181526020018280546109e3906122c0565b8015610a305780601f10610a0557610100808354040283529160200191610a30565b820191906000526020600020905b815481529060010190602001808311610a1357829003601f168201915b505050505090806002018054610a45906122c0565b80601f0160208091040260200160405190810160405280929190818152602001828054610a71906122c0565b8015610abe5780601f10610a9357610100808354040283529160200191610abe565b820191906000526020600020905b815481529060010190602001808311610aa157829003601f168201915b505050505090806003018054610ad3906122c0565b80601f0160208091040260200160405190810160405280929190818152602001828054610aff906122c0565b8015610b4c5780601f10610b2157610100808354040283529160200191610b4c565b820191906000526020600020905b815481529060010190602001808311610b2f57829003601f168201915b505050505090806004018054610b61906122c0565b80601f0160208091040260200160405190810160405280929190818152602001828054610b8d906122c0565b8015610bda5780601f10610baf57610100808354040283529160200191610bda565b820191906000526020600020905b815481529060010190602001808311610bbd57829003601f168201915b505050505090806005015490806006016040518060c0016040529081600082018054610c05906122c0565b80601f0160208091040260200160405190810160405280929190818152602001828054610c31906122c0565b8015610c7e5780601f10610c5357610100808354040283529160200191610c7e565b820191906000526020600020905b815481529060010190602001808311610c6157829003601f168201915b50505050508152602001600182018054610c97906122c0565b80601f0160208091040260200160405190810160405280929190818152602001828054610cc3906122c0565b8015610d105780601f10610ce557610100808354040283529160200191610d10565b820191906000526020600020905b815481529060010190602001808311610cf357829003601f168201915b50505050508152602001600282018054610d29906122c0565b80601f0160208091040260200160405190810160405280929190818152602001828054610d55906122c0565b8015610da25780601f10610d7757610100808354040283529160200191610da2565b820191906000526020600020905b815481529060010190602001808311610d8557829003601f168201915b50505050508152602001600382018054610dbb906122c0565b80601f0160208091040260200160405190810160405280929190818152602001828054610de7906122c0565b8015610e345780601f10610e0957610100808354040283529160200191610e34565b820191906000526020600020905b815481529060010190602001808311610e1757829003601f168201915b50505050508152602001600482018054610e4d906122c0565b80601f0160208091040260200160405190810160405280929190818152602001828054610e79906122c0565b8015610ec65780601f10610e9b57610100808354040283529160200191610ec6565b820191906000526020600020905b815481529060010190602001808311610ea957829003601f168201915b50505050508152602001600582018054610edf906122c0565b80601f0160208091040260200160405190810160405280929190818152602001828054610f0b906122c0565b8015610f585780601f10610f2d57610100808354040283529160200191610f58565b820191906000526020600020905b815481529060010190602001808311610f3b57829003601f168201915b5050505050815250509080600c0160405180606001604052908160008201805480602002602001604051908101604052809291908181526020016000905b82821015611042578382906000526020600020018054610fb5906122c0565b80601f0160208091040260200160405190810160405280929190818152602001828054610fe1906122c0565b801561102e5780601f106110035761010080835404028352916020019161102e565b820191906000526020600020905b81548152906001019060200180831161101157829003601f168201915b505050505081526020019060010190610f96565b50505050815260200160018201805480602002602001604051908101604052809291908181526020016000905b8282101561111b57838290600052602060002001805461108e906122c0565b80601f01602080910402602001604051908101604052809291908181526020018280546110ba906122c0565b80156111075780601f106110dc57610100808354040283529160200191611107565b820191906000526020600020905b8154815290600101906020018083116110ea57829003601f168201915b50505050508152602001906001019061106f565b50505050815260200160028201805480602002602001604051908101604052809291908181526020016000905b828210156111f4578382906000526020600020018054611167906122c0565b80601f0160208091040260200160405190810160405280929190818152602001828054611193906122c0565b80156111e05780601f106111b5576101008083540402835291602001916111e0565b820191906000526020600020905b8154815290600101906020018083116111c357829003601f168201915b505050505081526020019060010190611148565b5050505081525050905088565b6000803373ffffffffffffffffffffffffffffffffffffffff1673ffffffffffffffffffffffffffffffffffffffff168152602001908152602001600020600f01600061124e91906118f4565b565b6060806060806000803373ffffffffffffffffffffffffffffffffffffffff1673ffffffffffffffffffffffffffffffffffffffff168152602001908152602001600020600f0185815481106112a9576112a8612352565b5b90600052602060002090600402016000016000803373ffffffffffffffffffffffffffffffffffffffff1673ffffffffffffffffffffffffffffffffffffffff168152602001908152602001600020600f01868154811061130d5761130c612352565b5b90600052602060002090600402016001016000803373ffffffffffffffffffffffffffffffffffffffff1673ffffffffffffffffffffffffffffffffffffffff168152602001908152602001600020600f01878154811061137157611370612352565b5b90600052602060002090600402016002016000803373ffffffffffffffffffffffffffffffffffffffff1673ffffffffffffffffffffffffffffffffffffffff168152602001908152602001600020600f0188815481106113d5576113d4612352565b5b90600052602060002090600402016003018380546113f2906122c0565b80601f016020809104026020016040519081016040528092919081815260200182805461141e906122c0565b801561146b5780601f106114405761010080835404028352916020019161146b565b820191906000526020600020905b81548152906001019060200180831161144e57829003601f168201915b5050505050935082805461147e906122c0565b80601f01602080910402602001604051908101604052809291908181526020018280546114aa906122c0565b80156114f75780601f106114cc576101008083540402835291602001916114f7565b820191906000526020600020905b8154815290600101906020018083116114da57829003601f168201915b5050505050925081805461150a906122c0565b80601f0160208091040260200160405190810160405280929190818152602001828054611536906122c0565b80156115835780601f1061155857610100808354040283529160200191611583565b820191906000526020600020905b81548152906001019060200180831161156657829003601f168201915b50505050509150808054611596906122c0565b80601f01602080910402602001604051908101604052809291908181526020018280546115c2906122c0565b801561160f5780601f106115e45761010080835404028352916020019161160f565b820191906000526020600020905b8154815290600101906020018083116115f257829003601f168201915b5050505050905093509350935093509193509193565b6000803373ffffffffffffffffffffffffffffffffffffffff1673ffffffffffffffffffffffffffffffffffffffff168152602001908152602001600020600080820160006101000a81549073ffffffffffffffffffffffffffffffffffffffff021916905560018201600061169b9190611806565b6002820160006116ab9190611806565b6003820160006116bb9190611806565b6004820160006116cb9190611806565b600582016000905560068201600080820160006116e89190611806565b6001820160006116f89190611806565b6002820160006117089190611806565b6003820160006117189190611806565b6004820160006117289190611806565b6005820160006117389190611806565b5050600c82016000808201600061174f9190611785565b60018201600061175f9190611785565b60028201600061176f9190611785565b5050600f8201600061178191906118f4565b5050565b50805460008255906000526020600020908101906117a39190611918565b50565b8280548282559060005260206000209081019282156117f5579160200282015b828111156117f45782518290805190602001906117e4929190611846565b50916020019190600101906117c6565b5b5090506118029190611918565b5090565b508054611812906122c0565b6000825580601f106118245750611843565b601f016020900490600052602060002090810190611842919061193c565b5b50565b828054611852906122c0565b90600052602060002090601f01602090048101928261187457600085556118bb565b82601f1061188d57805160ff19168380011785556118bb565b828001600101855582156118bb579182015b828111156118ba57825182559160200191906001019061189f565b5b5090506118c8919061193c565b5090565b6040518060800160405280606081526020016060815260200160608152602001606081525090565b50805460008255600402906000526020600020908101906119159190611959565b50565b5b80821115611938576000818161192f9190611806565b50600101611919565b5090565b5b8082111561195557600081600090555060010161193d565b5090565b5b808211156119ac57600080820160006119739190611806565b6001820160006119839190611806565b6002820160006119939190611806565b6003820160006119a39190611806565b5060040161195a565b5090565b60006119c36119be8461217f565b61215a565b905080838252602082019050828560208602820111156119e6576119e56123b5565b5b60005b85811015611a3457813567ffffffffffffffff811115611a0c57611a0b6123b0565b5b808601611a198982611ac3565b855260208501945060208401935050506001810190506119e9565b5050509392505050565b6000611a51611a4c846121ab565b61215a565b905082815260208101848484011115611a6d57611a6c6123ba565b5b611a7884828561227e565b509392505050565b600081359050611a8f816123da565b92915050565b600082601f830112611aaa57611aa96123b0565b5b8135611aba8482602086016119b0565b91505092915050565b600082601f830112611ad857611ad76123b0565b5b8135611ae8848260208601611a3e565b91505092915050565b600081359050611b00816123f1565b92915050565b600060208284031215611b1c57611b1b6123c4565b5b6000611b2a84828501611a80565b91505092915050565b600080600060608486031215611b4c57611b4b6123c4565b5b600084013567ffffffffffffffff811115611b6a57611b696123bf565b5b611b7686828701611a95565b935050602084013567ffffffffffffffff811115611b9757611b966123bf565b5b611ba386828701611a95565b925050604084013567ffffffffffffffff811115611bc457611bc36123bf565b5b611bd086828701611a95565b9150509250925092565b60008060008060808587031215611bf457611bf36123c4565b5b600085013567ffffffffffffffff811115611c1257611c116123bf565b5b611c1e87828801611ac3565b945050602085013567ffffffffffffffff811115611c3f57611c3e6123bf565b5b611c4b87828801611ac3565b935050604085013567ffffffffffffffff811115611c6c57611c6b6123bf565b5b611c7887828801611ac3565b925050606085013567ffffffffffffffff811115611c9957611c986123bf565b5b611ca587828801611ac3565b91505092959194509250565b60008060008060008060c08789031215611cce57611ccd6123c4565b5b600087013567ffffffffffffffff811115611cec57611ceb6123bf565b5b611cf889828a01611ac3565b965050602087013567ffffffffffffffff811115611d1957611d186123bf565b5b611d2589828a01611ac3565b955050604087013567ffffffffffffffff811115611d4657611d456123bf565b5b611d5289828a01611ac3565b945050606087013567ffffffffffffffff811115611d7357611d726123bf565b5b611d7f89828a01611ac3565b935050608087013567ffffffffffffffff811115611da057611d9f6123bf565b5b611dac89828a01611ac3565b92505060a087013567ffffffffffffffff811115611dcd57611dcc6123bf565b5b611dd989828a01611ac3565b9150509295509295509295565b600060208284031215611dfc57611dfb6123c4565b5b6000611e0a84828501611af1565b91505092915050565b6000611e1f8383611eab565b905092915050565b611e3081612242565b82525050565b6000611e41826121ec565b611e4b818561220f565b935083602082028501611e5d856121dc565b8060005b85811015611e995784840389528151611e7a8582611e13565b9450611e8583612202565b925060208a01995050600181019050611e61565b50829750879550505050505092915050565b6000611eb6826121f7565b611ec08185612220565b9350611ed081856020860161228d565b611ed9816123c9565b840191505092915050565b6000611eef826121f7565b611ef98185612231565b9350611f0981856020860161228d565b611f12816123c9565b840191505092915050565b600060c0830160008301518482036000860152611f3a8282611eab565b91505060208301518482036020860152611f548282611eab565b91505060408301518482036040860152611f6e8282611eab565b91505060608301518482036060860152611f888282611eab565b91505060808301518482036080860152611fa28282611eab565b91505060a083015184820360a0860152611fbc8282611eab565b9150508091505092915050565b60006060830160008301518482036000860152611fe68282611e36565b915050602083015184820360208601526120008282611e36565b9150506040830151848203604086015261201a8282611e36565b9150508091505092915050565b61203081612274565b82525050565b60006101008201905061204c600083018b611e27565b818103602083015261205e818a611ee4565b905081810360408301526120728189611ee4565b905081810360608301526120868188611ee4565b9050818103608083015261209a8187611ee4565b90506120a960a0830186612027565b81810360c08301526120bb8185611f1d565b905081810360e08301526120cf8184611fc9565b90509998505050505050505050565b600060808201905081810360008301526120f88187611ee4565b9050818103602083015261210c8186611ee4565b905081810360408301526121208185611ee4565b905081810360608301526121348184611ee4565b905095945050505050565b60006020820190506121546000830184612027565b92915050565b6000612164612175565b905061217082826122f2565b919050565b6000604051905090565b600067ffffffffffffffff82111561219a57612199612381565b5b602082029050602081019050919050565b600067ffffffffffffffff8211156121c6576121c5612381565b5b6121cf826123c9565b9050602081019050919050565b6000819050602082019050919050565b600081519050919050565b600081519050919050565b6000602082019050919050565b600082825260208201905092915050565b600082825260208201905092915050565b600082825260208201905092915050565b600061224d82612254565b9050919050565b600073ffffffffffffffffffffffffffffffffffffffff82169050919050565b6000819050919050565b82818337600083830152505050565b60005b838110156122ab578082015181840152602081019050612290565b838111156122ba576000848401525b50505050565b600060028204905060018216806122d857607f821691505b602082108114156122ec576122eb612323565b5b50919050565b6122fb826123c9565b810181811067ffffffffffffffff8211171561231a57612319612381565b5b80604052505050565b7f4e487b7100000000000000000000000000000000000000000000000000000000600052602260045260246000fd5b7f4e487b7100000000000000000000000000000000000000000000000000000000600052603260045260246000fd5b7f4e487b7100000000000000000000000000000000000000000000000000000000600052604160045260246000fd5b600080fd5b600080fd5b600080fd5b600080fd5b600080fd5b6000601f19601f8301169050919050565b6123e381612242565b81146123ee57600080fd5b50565b6123fa81612274565b811461240557600080fd5b5056fea264697066735822122059c14c8afd61d21ebb45e8fb301b3201987a8e68639dba0b503d8c5e241e9a3864736f6c63430008070033",
					"opcodes": "PUSH1 0x80 PUSH1 0x40 MSTORE CALLVALUE DUP1 ISZERO PUSH2 0x10 JUMPI PUSH1 0x0 DUP1 REVERT JUMPDEST POP PUSH2 0x243E DUP1 PUSH2 0x20 PUSH1 0x0 CODECOPY PUSH1 0x0 RETURN INVALID PUSH1 0x80 PUSH1 0x40 MSTORE CALLVALUE DUP1 ISZERO PUSH2 0x10 JUMPI PUSH1 0x0 DUP1 REVERT JUMPDEST POP PUSH1 0x4 CALLDATASIZE LT PUSH2 0x93 JUMPI PUSH1 0x0 CALLDATALOAD PUSH1 0xE0 SHR DUP1 PUSH4 0x9D983A01 GT PUSH2 0x66 JUMPI DUP1 PUSH4 0x9D983A01 EQ PUSH2 0x10A JUMPI DUP1 PUSH4 0x9DD9D0FD EQ PUSH2 0x126 JUMPI DUP1 PUSH4 0xED2217EF EQ PUSH2 0x15D JUMPI DUP1 PUSH4 0xF96E32F8 EQ PUSH2 0x167 JUMPI DUP1 PUSH4 0xFABCE08F EQ PUSH2 0x19A JUMPI PUSH2 0x93 JUMP JUMPDEST DUP1 PUSH4 0x3D984D0E EQ PUSH2 0x98 JUMPI DUP1 PUSH4 0x6212FA02 EQ PUSH2 0xB4 JUMPI DUP1 PUSH4 0x7D64E0E4 EQ PUSH2 0xD2 JUMPI DUP1 PUSH4 0x8C241FC4 EQ PUSH2 0xEE JUMPI JUMPDEST PUSH1 0x0 DUP1 REVERT JUMPDEST PUSH2 0xB2 PUSH1 0x4 DUP1 CALLDATASIZE SUB DUP2 ADD SWAP1 PUSH2 0xAD SWAP2 SWAP1 PUSH2 0x1B33 JUMP JUMPDEST PUSH2 0x1A4 JUMP JUMPDEST STOP JUMPDEST PUSH2 0xBC PUSH2 0x328 JUMP JUMPDEST PUSH1 0x40 MLOAD PUSH2 0xC9 SWAP2 SWAP1 PUSH2 0x213F JUMP JUMPDEST PUSH1 0x40 MLOAD DUP1 SWAP2 SUB SWAP1 RETURN JUMPDEST PUSH2 0xEC PUSH1 0x4 DUP1 CALLDATASIZE SUB DUP2 ADD SWAP1 PUSH2 0xE7 SWAP2 SWAP1 PUSH2 0x1CB1 JUMP JUMPDEST PUSH2 0x374 JUMP JUMPDEST STOP JUMPDEST PUSH2 0x108 PUSH1 0x4 DUP1 CALLDATASIZE SUB DUP2 ADD SWAP1 PUSH2 0x103 SWAP2 SWAP1 PUSH2 0x1BDA JUMP JUMPDEST PUSH2 0x636 JUMP JUMPDEST STOP JUMPDEST PUSH2 0x124 PUSH1 0x4 DUP1 CALLDATASIZE SUB DUP2 ADD SWAP1 PUSH2 0x11F SWAP2 SWAP1 PUSH2 0x1BDA JUMP JUMPDEST PUSH2 0x85A JUMP JUMPDEST STOP JUMPDEST PUSH2 0x140 PUSH1 0x4 DUP1 CALLDATASIZE SUB DUP2 ADD SWAP1 PUSH2 0x13B SWAP2 SWAP1 PUSH2 0x1B06 JUMP JUMPDEST PUSH2 0x96E JUMP JUMPDEST PUSH1 0x40 MLOAD PUSH2 0x154 SWAP9 SWAP8 SWAP7 SWAP6 SWAP5 SWAP4 SWAP3 SWAP2 SWAP1 PUSH2 0x2036 JUMP JUMPDEST PUSH1 0x40 MLOAD DUP1 SWAP2 SUB SWAP1 RETURN JUMPDEST PUSH2 0x165 PUSH2 0x1201 JUMP JUMPDEST STOP JUMPDEST PUSH2 0x181 PUSH1 0x4 DUP1 CALLDATASIZE SUB DUP2 ADD SWAP1 PUSH2 0x17C SWAP2 SWAP1 PUSH2 0x1DE6 JUMP JUMPDEST PUSH2 0x1250 JUMP JUMPDEST PUSH1 0x40 MLOAD PUSH2 0x191 SWAP5 SWAP4 SWAP3 SWAP2 SWAP1 PUSH2 0x20DE JUMP JUMPDEST PUSH1 0x40 MLOAD DUP1 SWAP2 SUB SWAP1 RETURN JUMPDEST PUSH2 0x1A2 PUSH2 0x1625 JUMP JUMPDEST STOP JUMPDEST PUSH1 0x0 DUP1 CALLER PUSH20 0xFFFFFFFFFFFFFFFFFFFFFFFFFFFFFFFFFFFFFFFF AND PUSH20 0xFFFFFFFFFFFFFFFFFFFFFFFFFFFFFFFFFFFFFFFF AND DUP2 MSTORE PUSH1 0x20 ADD SWAP1 DUP2 MSTORE PUSH1 0x20 ADD PUSH1 0x0 KECCAK256 PUSH1 0xC ADD PUSH1 0x0 DUP1 DUP3 ADD PUSH1 0x0 PUSH2 0x1F6 SWAP2 SWAP1 PUSH2 0x1785 JUMP JUMPDEST PUSH1 0x1 DUP3 ADD PUSH1 0x0 PUSH2 0x206 SWAP2 SWAP1 PUSH2 0x1785 JUMP JUMPDEST PUSH1 0x2 DUP3 ADD PUSH1 0x0 PUSH2 0x216 SWAP2 SWAP1 PUSH2 0x1785 JUMP JUMPDEST POP POP DUP3 PUSH1 0x0 DUP1 CALLER PUSH20 0xFFFFFFFFFFFFFFFFFFFFFFFFFFFFFFFFFFFFFFFF AND PUSH20 0xFFFFFFFFFFFFFFFFFFFFFFFFFFFFFFFFFFFFFFFF AND DUP2 MSTORE PUSH1 0x20 ADD SWAP1 DUP2 MSTORE PUSH1 0x20 ADD PUSH1 0x0 KECCAK256 PUSH1 0xC ADD PUSH1 0x0 ADD SWAP1 DUP1 MLOAD SWAP1 PUSH1 0x20 ADD SWAP1 PUSH2 0x270 SWAP3 SWAP2 SWAP1 PUSH2 0x17A6 JUMP JUMPDEST POP DUP2 PUSH1 0x0 DUP1 CALLER PUSH20 0xFFFFFFFFFFFFFFFFFFFFFFFFFFFFFFFFFFFFFFFF AND PUSH20 0xFFFFFFFFFFFFFFFFFFFFFFFFFFFFFFFFFFFFFFFF AND DUP2 MSTORE PUSH1 0x20 ADD SWAP1 DUP2 MSTORE PUSH1 0x20 ADD PUSH1 0x0 KECCAK256 PUSH1 0xC ADD PUSH1 0x1 ADD SWAP1 DUP1 MLOAD SWAP1 PUSH1 0x20 ADD SWAP1 PUSH2 0x2C9 SWAP3 SWAP2 SWAP1 PUSH2 0x17A6 JUMP JUMPDEST POP DUP1 PUSH1 0x0 DUP1 CALLER PUSH20 0xFFFFFFFFFFFFFFFFFFFFFFFFFFFFFFFFFFFFFFFF AND PUSH20 0xFFFFFFFFFFFFFFFFFFFFFFFFFFFFFFFFFFFFFFFF AND DUP2 MSTORE PUSH1 0x20 ADD SWAP1 DUP2 MSTORE PUSH1 0x20 ADD PUSH1 0x0 KECCAK256 PUSH1 0xC ADD PUSH1 0x2 ADD SWAP1 DUP1 MLOAD SWAP1 PUSH1 0x20 ADD SWAP1 PUSH2 0x322 SWAP3 SWAP2 SWAP1 PUSH2 0x17A6 JUMP JUMPDEST POP POP POP POP JUMP JUMPDEST PUSH1 0x0 DUP1 PUSH1 0x0 CALLER PUSH20 0xFFFFFFFFFFFFFFFFFFFFFFFFFFFFFFFFFFFFFFFF AND PUSH20 0xFFFFFFFFFFFFFFFFFFFFFFFFFFFFFFFFFFFFFFFF AND DUP2 MSTORE PUSH1 0x20 ADD SWAP1 DUP2 MSTORE PUSH1 0x20 ADD PUSH1 0x0 KECCAK256 PUSH1 0xF ADD DUP1 SLOAD SWAP1 POP SWAP1 POP SWAP1 JUMP JUMPDEST PUSH1 0x0 DUP1 CALLER PUSH20 0xFFFFFFFFFFFFFFFFFFFFFFFFFFFFFFFFFFFFFFFF AND PUSH20 0xFFFFFFFFFFFFFFFFFFFFFFFFFFFFFFFFFFFFFFFF AND DUP2 MSTORE PUSH1 0x20 ADD SWAP1 DUP2 MSTORE PUSH1 0x20 ADD PUSH1 0x0 KECCAK256 PUSH1 0x6 ADD PUSH1 0x0 DUP1 DUP3 ADD PUSH1 0x0 PUSH2 0x3C6 SWAP2 SWAP1 PUSH2 0x1806 JUMP JUMPDEST PUSH1 0x1 DUP3 ADD PUSH1 0x0 PUSH2 0x3D6 SWAP2 SWAP1 PUSH2 0x1806 JUMP JUMPDEST PUSH1 0x2 DUP3 ADD PUSH1 0x0 PUSH2 0x3E6 SWAP2 SWAP1 PUSH2 0x1806 JUMP JUMPDEST PUSH1 0x3 DUP3 ADD PUSH1 0x0 PUSH2 0x3F6 SWAP2 SWAP1 PUSH2 0x1806 JUMP JUMPDEST PUSH1 0x4 DUP3 ADD PUSH1 0x0 PUSH2 0x406 SWAP2 SWAP1 PUSH2 0x1806 JUMP JUMPDEST PUSH1 0x5 DUP3 ADD PUSH1 0x0 PUSH2 0x416 SWAP2 SWAP1 PUSH2 0x1806 JUMP JUMPDEST POP POP DUP6 PUSH1 0x0 DUP1 CALLER PUSH20 0xFFFFFFFFFFFFFFFFFFFFFFFFFFFFFFFFFFFFFFFF AND PUSH20 0xFFFFFFFFFFFFFFFFFFFFFFFFFFFFFFFFFFFFFFFF AND DUP2 MSTORE PUSH1 0x20 ADD SWAP1 DUP2 MSTORE PUSH1 0x20 ADD PUSH1 0x0 KECCAK256 PUSH1 0x6 ADD PUSH1 0x1 ADD SWAP1 DUP1 MLOAD SWAP1 PUSH1 0x20 ADD SWAP1 PUSH2 0x470 SWAP3 SWAP2 SWAP1 PUSH2 0x1846 JUMP JUMPDEST POP DUP5 PUSH1 0x0 DUP1 CALLER PUSH20 0xFFFFFFFFFFFFFFFFFFFFFFFFFFFFFFFFFFFFFFFF AND PUSH20 0xFFFFFFFFFFFFFFFFFFFFFFFFFFFFFFFFFFFFFFFF AND DUP2 MSTORE PUSH1 0x20 ADD SWAP1 DUP2 MSTORE PUSH1 0x20 ADD PUSH1 0x0 KECCAK256 PUSH1 0x6 ADD PUSH1 0x2 ADD SWAP1 DUP1 MLOAD SWAP1 PUSH1 0x20 ADD SWAP1 PUSH2 0x4C9 SWAP3 SWAP2 SWAP1 PUSH2 0x1846 JUMP JUMPDEST POP DUP4 PUSH1 0x0 DUP1 CALLER PUSH20 0xFFFFFFFFFFFFFFFFFFFFFFFFFFFFFFFFFFFFFFFF AND PUSH20 0xFFFFFFFFFFFFFFFFFFFFFFFFFFFFFFFFFFFFFFFF AND DUP2 MSTORE PUSH1 0x20 ADD SWAP1 DUP2 MSTORE PUSH1 0x20 ADD PUSH1 0x0 KECCAK256 PUSH1 0x6 ADD PUSH1 0x3 ADD SWAP1 DUP1 MLOAD SWAP1 PUSH1 0x20 ADD SWAP1 PUSH2 0x522 SWAP3 SWAP2 SWAP1 PUSH2 0x1846 JUMP JUMPDEST POP DUP3 PUSH1 0x0 DUP1 CALLER PUSH20 0xFFFFFFFFFFFFFFFFFFFFFFFFFFFFFFFFFFFFFFFF AND PUSH20 0xFFFFFFFFFFFFFFFFFFFFFFFFFFFFFFFFFFFFFFFF AND DUP2 MSTORE PUSH1 0x20 ADD SWAP1 DUP2 MSTORE PUSH1 0x20 ADD PUSH1 0x0 KECCAK256 PUSH1 0x6 ADD PUSH1 0x2 ADD SWAP1 DUP1 MLOAD SWAP1 PUSH1 0x20 ADD SWAP1 PUSH2 0x57B SWAP3 SWAP2 SWAP1 PUSH2 0x1846 JUMP JUMPDEST POP DUP2 PUSH1 0x0 DUP1 CALLER PUSH20 0xFFFFFFFFFFFFFFFFFFFFFFFFFFFFFFFFFFFFFFFF AND PUSH20 0xFFFFFFFFFFFFFFFFFFFFFFFFFFFFFFFFFFFFFFFF AND DUP2 MSTORE PUSH1 0x20 ADD SWAP1 DUP2 MSTORE PUSH1 0x20 ADD PUSH1 0x0 KECCAK256 PUSH1 0x6 ADD PUSH1 0x1 ADD SWAP1 DUP1 MLOAD SWAP1 PUSH1 0x20 ADD SWAP1 PUSH2 0x5D4 SWAP3 SWAP2 SWAP1 PUSH2 0x1846 JUMP JUMPDEST POP DUP1 PUSH1 0x0 DUP1 CALLER PUSH20 0xFFFFFFFFFFFFFFFFFFFFFFFFFFFFFFFFFFFFFFFF AND PUSH20 0xFFFFFFFFFFFFFFFFFFFFFFFFFFFFFFFFFFFFFFFF AND DUP2 MSTORE PUSH1 0x20 ADD SWAP1 DUP2 MSTORE PUSH1 0x20 ADD PUSH1 0x0 KECCAK256 PUSH1 0x6 ADD PUSH1 0x0 ADD SWAP1 DUP1 MLOAD SWAP1 PUSH1 0x20 ADD SWAP1 PUSH2 0x62D SWAP3 SWAP2 SWAP1 PUSH2 0x1846 JUMP JUMPDEST POP POP POP POP POP POP POP JUMP JUMPDEST DUP4 PUSH1 0x0 DUP1 CALLER PUSH20 0xFFFFFFFFFFFFFFFFFFFFFFFFFFFFFFFFFFFFFFFF AND PUSH20 0xFFFFFFFFFFFFFFFFFFFFFFFFFFFFFFFFFFFFFFFF AND DUP2 MSTORE PUSH1 0x20 ADD SWAP1 DUP2 MSTORE PUSH1 0x20 ADD PUSH1 0x0 KECCAK256 PUSH1 0x1 ADD SWAP1 DUP1 MLOAD SWAP1 PUSH1 0x20 ADD SWAP1 PUSH2 0x68B SWAP3 SWAP2 SWAP1 PUSH2 0x1846 JUMP JUMPDEST POP DUP3 PUSH1 0x0 DUP1 CALLER PUSH20 0xFFFFFFFFFFFFFFFFFFFFFFFFFFFFFFFFFFFFFFFF AND PUSH20 0xFFFFFFFFFFFFFFFFFFFFFFFFFFFFFFFFFFFFFFFF AND DUP2 MSTORE PUSH1 0x20 ADD SWAP1 DUP2 MSTORE PUSH1 0x20 ADD PUSH1 0x0 KECCAK256 PUSH1 0x2 ADD SWAP1 DUP1 MLOAD SWAP1 PUSH1 0x20 ADD SWAP1 PUSH2 0x6E1 SWAP3 SWAP2 SWAP1 PUSH2 0x1846 JUMP JUMPDEST POP DUP2 PUSH1 0x0 DUP1 CALLER PUSH20 0xFFFFFFFFFFFFFFFFFFFFFFFFFFFFFFFFFFFFFFFF AND PUSH20 0xFFFFFFFFFFFFFFFFFFFFFFFFFFFFFFFFFFFFFFFF AND DUP2 MSTORE PUSH1 0x20 ADD SWAP1 DUP2 MSTORE PUSH1 0x20 ADD PUSH1 0x0 KECCAK256 PUSH1 0x3 ADD SWAP1 DUP1 MLOAD SWAP1 PUSH1 0x20 ADD SWAP1 PUSH2 0x737 SWAP3 SWAP2 SWAP1 PUSH2 0x1846 JUMP JUMPDEST POP DUP1 PUSH1 0x0 DUP1 CALLER PUSH20 0xFFFFFFFFFFFFFFFFFFFFFFFFFFFFFFFFFFFFFFFF AND PUSH20 0xFFFFFFFFFFFFFFFFFFFFFFFFFFFFFFFFFFFFFFFF AND DUP2 MSTORE PUSH1 0x20 ADD SWAP1 DUP2 MSTORE PUSH1 0x20 ADD PUSH1 0x0 KECCAK256 PUSH1 0x4 ADD SWAP1 DUP1 MLOAD SWAP1 PUSH1 0x20 ADD SWAP1 PUSH2 0x78D SWAP3 SWAP2 SWAP1 PUSH2 0x1846 JUMP JUMPDEST POP CALLER PUSH1 0x0 DUP1 CALLER PUSH20 0xFFFFFFFFFFFFFFFFFFFFFFFFFFFFFFFFFFFFFFFF AND PUSH20 0xFFFFFFFFFFFFFFFFFFFFFFFFFFFFFFFFFFFFFFFF AND DUP2 MSTORE PUSH1 0x20 ADD SWAP1 DUP2 MSTORE PUSH1 0x20 ADD PUSH1 0x0 KECCAK256 PUSH1 0x0 ADD PUSH1 0x0 PUSH2 0x100 EXP DUP2 SLOAD DUP2 PUSH20 0xFFFFFFFFFFFFFFFFFFFFFFFFFFFFFFFFFFFFFFFF MUL NOT AND SWAP1 DUP4 PUSH20 0xFFFFFFFFFFFFFFFFFFFFFFFFFFFFFFFFFFFFFFFF AND MUL OR SWAP1 SSTORE POP TIMESTAMP PUSH1 0x0 DUP1 CALLER PUSH20 0xFFFFFFFFFFFFFFFFFFFFFFFFFFFFFFFFFFFFFFFF AND PUSH20 0xFFFFFFFFFFFFFFFFFFFFFFFFFFFFFFFFFFFFFFFF AND DUP2 MSTORE PUSH1 0x20 ADD SWAP1 DUP2 MSTORE PUSH1 0x20 ADD PUSH1 0x0 KECCAK256 PUSH1 0x5 ADD DUP2 SWAP1 SSTORE POP POP POP POP POP JUMP JUMPDEST PUSH2 0x862 PUSH2 0x18CC JUMP JUMPDEST DUP5 DUP2 PUSH1 0x0 ADD DUP2 SWAP1 MSTORE POP DUP4 DUP2 PUSH1 0x20 ADD DUP2 SWAP1 MSTORE POP DUP3 DUP2 PUSH1 0x40 ADD DUP2 SWAP1 MSTORE POP DUP2 DUP2 PUSH1 0x60 ADD DUP2 SWAP1 MSTORE POP PUSH1 0x0 DUP1 CALLER PUSH20 0xFFFFFFFFFFFFFFFFFFFFFFFFFFFFFFFFFFFFFFFF AND PUSH20 0xFFFFFFFFFFFFFFFFFFFFFFFFFFFFFFFFFFFFFFFF AND DUP2 MSTORE PUSH1 0x20 ADD SWAP1 DUP2 MSTORE PUSH1 0x20 ADD PUSH1 0x0 KECCAK256 PUSH1 0xF ADD DUP2 SWAP1 DUP1 PUSH1 0x1 DUP2 SLOAD ADD DUP1 DUP3 SSTORE DUP1 SWAP2 POP POP PUSH1 0x1 SWAP1 SUB SWAP1 PUSH1 0x0 MSTORE PUSH1 0x20 PUSH1 0x0 KECCAK256 SWAP1 PUSH1 0x4 MUL ADD PUSH1 0x0 SWAP1 SWAP2 SWAP1 SWAP2 SWAP1 SWAP2 POP PUSH1 0x0 DUP3 ADD MLOAD DUP2 PUSH1 0x0 ADD SWAP1 DUP1 MLOAD SWAP1 PUSH1 0x20 ADD SWAP1 PUSH2 0x90D SWAP3 SWAP2 SWAP1 PUSH2 0x1846 JUMP JUMPDEST POP PUSH1 0x20 DUP3 ADD MLOAD DUP2 PUSH1 0x1 ADD SWAP1 DUP1 MLOAD SWAP1 PUSH1 0x20 ADD SWAP1 PUSH2 0x92A SWAP3 SWAP2 SWAP1 PUSH2 0x1846 JUMP JUMPDEST POP PUSH1 0x40 DUP3 ADD MLOAD DUP2 PUSH1 0x2 ADD SWAP1 DUP1 MLOAD SWAP1 PUSH1 0x20 ADD SWAP1 PUSH2 0x947 SWAP3 SWAP2 SWAP1 PUSH2 0x1846 JUMP JUMPDEST POP PUSH1 0x60 DUP3 ADD MLOAD DUP2 PUSH1 0x3 ADD SWAP1 DUP1 MLOAD SWAP1 PUSH1 0x20 ADD SWAP1 PUSH2 0x964 SWAP3 SWAP2 SWAP1 PUSH2 0x1846 JUMP JUMPDEST POP POP POP POP POP POP POP POP JUMP JUMPDEST PUSH1 0x0 PUSH1 0x20 MSTORE DUP1 PUSH1 0x0 MSTORE PUSH1 0x40 PUSH1 0x0 KECCAK256 PUSH1 0x0 SWAP2 POP SWAP1 POP DUP1 PUSH1 0x0 ADD PUSH1 0x0 SWAP1 SLOAD SWAP1 PUSH2 0x100 EXP SWAP1 DIV PUSH20 0xFFFFFFFFFFFFFFFFFFFFFFFFFFFFFFFFFFFFFFFF AND SWAP1 DUP1 PUSH1 0x1 ADD DUP1 SLOAD PUSH2 0x9B7 SWAP1 PUSH2 0x22C0 JUMP JUMPDEST DUP1 PUSH1 0x1F ADD PUSH1 0x20 DUP1 SWAP2 DIV MUL PUSH1 0x20 ADD PUSH1 0x40 MLOAD SWAP1 DUP2 ADD PUSH1 0x40 MSTORE DUP1 SWAP3 SWAP2 SWAP1 DUP2 DUP2 MSTORE PUSH1 0x20 ADD DUP3 DUP1 SLOAD PUSH2 0x9E3 SWAP1 PUSH2 0x22C0 JUMP JUMPDEST DUP1 ISZERO PUSH2 0xA30 JUMPI DUP1 PUSH1 0x1F LT PUSH2 0xA05 JUMPI PUSH2 0x100 DUP1 DUP4 SLOAD DIV MUL DUP4 MSTORE SWAP2 PUSH1 0x20 ADD SWAP2 PUSH2 0xA30 JUMP JUMPDEST DUP3 ADD SWAP2 SWAP1 PUSH1 0x0 MSTORE PUSH1 0x20 PUSH1 0x0 KECCAK256 SWAP1 JUMPDEST DUP2 SLOAD DUP2 MSTORE SWAP1 PUSH1 0x1 ADD SWAP1 PUSH1 0x20 ADD DUP1 DUP4 GT PUSH2 0xA13 JUMPI DUP3 SWAP1 SUB PUSH1 0x1F AND DUP3 ADD SWAP2 JUMPDEST POP POP POP POP POP SWAP1 DUP1 PUSH1 0x2 ADD DUP1 SLOAD PUSH2 0xA45 SWAP1 PUSH2 0x22C0 JUMP JUMPDEST DUP1 PUSH1 0x1F ADD PUSH1 0x20 DUP1 SWAP2 DIV MUL PUSH1 0x20 ADD PUSH1 0x40 MLOAD SWAP1 DUP2 ADD PUSH1 0x40 MSTORE DUP1 SWAP3 SWAP2 SWAP1 DUP2 DUP2 MSTORE PUSH1 0x20 ADD DUP3 DUP1 SLOAD PUSH2 0xA71 SWAP1 PUSH2 0x22C0 JUMP JUMPDEST DUP1 ISZERO PUSH2 0xABE JUMPI DUP1 PUSH1 0x1F LT PUSH2 0xA93 JUMPI PUSH2 0x100 DUP1 DUP4 SLOAD DIV MUL DUP4 MSTORE SWAP2 PUSH1 0x20 ADD SWAP2 PUSH2 0xABE JUMP JUMPDEST DUP3 ADD SWAP2 SWAP1 PUSH1 0x0 MSTORE PUSH1 0x20 PUSH1 0x0 KECCAK256 SWAP1 JUMPDEST DUP2 SLOAD DUP2 MSTORE SWAP1 PUSH1 0x1 ADD SWAP1 PUSH1 0x20 ADD DUP1 DUP4 GT PUSH2 0xAA1 JUMPI DUP3 SWAP1 SUB PUSH1 0x1F AND DUP3 ADD SWAP2 JUMPDEST POP POP POP POP POP SWAP1 DUP1 PUSH1 0x3 ADD DUP1 SLOAD PUSH2 0xAD3 SWAP1 PUSH2 0x22C0 JUMP JUMPDEST DUP1 PUSH1 0x1F ADD PUSH1 0x20 DUP1 SWAP2 DIV MUL PUSH1 0x20 ADD PUSH1 0x40 MLOAD SWAP1 DUP2 ADD PUSH1 0x40 MSTORE DUP1 SWAP3 SWAP2 SWAP1 DUP2 DUP2 MSTORE PUSH1 0x20 ADD DUP3 DUP1 SLOAD PUSH2 0xAFF SWAP1 PUSH2 0x22C0 JUMP JUMPDEST DUP1 ISZERO PUSH2 0xB4C JUMPI DUP1 PUSH1 0x1F LT PUSH2 0xB21 JUMPI PUSH2 0x100 DUP1 DUP4 SLOAD DIV MUL DUP4 MSTORE SWAP2 PUSH1 0x20 ADD SWAP2 PUSH2 0xB4C JUMP JUMPDEST DUP3 ADD SWAP2 SWAP1 PUSH1 0x0 MSTORE PUSH1 0x20 PUSH1 0x0 KECCAK256 SWAP1 JUMPDEST DUP2 SLOAD DUP2 MSTORE SWAP1 PUSH1 0x1 ADD SWAP1 PUSH1 0x20 ADD DUP1 DUP4 GT PUSH2 0xB2F JUMPI DUP3 SWAP1 SUB PUSH1 0x1F AND DUP3 ADD SWAP2 JUMPDEST POP POP POP POP POP SWAP1 DUP1 PUSH1 0x4 ADD DUP1 SLOAD PUSH2 0xB61 SWAP1 PUSH2 0x22C0 JUMP JUMPDEST DUP1 PUSH1 0x1F ADD PUSH1 0x20 DUP1 SWAP2 DIV MUL PUSH1 0x20 ADD PUSH1 0x40 MLOAD SWAP1 DUP2 ADD PUSH1 0x40 MSTORE DUP1 SWAP3 SWAP2 SWAP1 DUP2 DUP2 MSTORE PUSH1 0x20 ADD DUP3 DUP1 SLOAD PUSH2 0xB8D SWAP1 PUSH2 0x22C0 JUMP JUMPDEST DUP1 ISZERO PUSH2 0xBDA JUMPI DUP1 PUSH1 0x1F LT PUSH2 0xBAF JUMPI PUSH2 0x100 DUP1 DUP4 SLOAD DIV MUL DUP4 MSTORE SWAP2 PUSH1 0x20 ADD SWAP2 PUSH2 0xBDA JUMP JUMPDEST DUP3 ADD SWAP2 SWAP1 PUSH1 0x0 MSTORE PUSH1 0x20 PUSH1 0x0 KECCAK256 SWAP1 JUMPDEST DUP2 SLOAD DUP2 MSTORE SWAP1 PUSH1 0x1 ADD SWAP1 PUSH1 0x20 ADD DUP1 DUP4 GT PUSH2 0xBBD JUMPI DUP3 SWAP1 SUB PUSH1 0x1F AND DUP3 ADD SWAP2 JUMPDEST POP POP POP POP POP SWAP1 DUP1 PUSH1 0x5 ADD SLOAD SWAP1 DUP1 PUSH1 0x6 ADD PUSH1 0x40 MLOAD DUP1 PUSH1 0xC0 ADD PUSH1 0x40 MSTORE SWAP1 DUP2 PUSH1 0x0 DUP3 ADD DUP1 SLOAD PUSH2 0xC05 SWAP1 PUSH2 0x22C0 JUMP JUMPDEST DUP1 PUSH1 0x1F ADD PUSH1 0x20 DUP1 SWAP2 DIV MUL PUSH1 0x20 ADD PUSH1 0x40 MLOAD SWAP1 DUP2 ADD PUSH1 0x40 MSTORE DUP1 SWAP3 SWAP2 SWAP1 DUP2 DUP2 MSTORE PUSH1 0x20 ADD DUP3 DUP1 SLOAD PUSH2 0xC31 SWAP1 PUSH2 0x22C0 JUMP JUMPDEST DUP1 ISZERO PUSH2 0xC7E JUMPI DUP1 PUSH1 0x1F LT PUSH2 0xC53 JUMPI PUSH2 0x100 DUP1 DUP4 SLOAD DIV MUL DUP4 MSTORE SWAP2 PUSH1 0x20 ADD SWAP2 PUSH2 0xC7E JUMP JUMPDEST DUP3 ADD SWAP2 SWAP1 PUSH1 0x0 MSTORE PUSH1 0x20 PUSH1 0x0 KECCAK256 SWAP1 JUMPDEST DUP2 SLOAD DUP2 MSTORE SWAP1 PUSH1 0x1 ADD SWAP1 PUSH1 0x20 ADD DUP1 DUP4 GT PUSH2 0xC61 JUMPI DUP3 SWAP1 SUB PUSH1 0x1F AND DUP3 ADD SWAP2 JUMPDEST POP POP POP POP POP DUP2 MSTORE PUSH1 0x20 ADD PUSH1 0x1 DUP3 ADD DUP1 SLOAD PUSH2 0xC97 SWAP1 PUSH2 0x22C0 JUMP JUMPDEST DUP1 PUSH1 0x1F ADD PUSH1 0x20 DUP1 SWAP2 DIV MUL PUSH1 0x20 ADD PUSH1 0x40 MLOAD SWAP1 DUP2 ADD PUSH1 0x40 MSTORE DUP1 SWAP3 SWAP2 SWAP1 DUP2 DUP2 MSTORE PUSH1 0x20 ADD DUP3 DUP1 SLOAD PUSH2 0xCC3 SWAP1 PUSH2 0x22C0 JUMP JUMPDEST DUP1 ISZERO PUSH2 0xD10 JUMPI DUP1 PUSH1 0x1F LT PUSH2 0xCE5 JUMPI PUSH2 0x100 DUP1 DUP4 SLOAD DIV MUL DUP4 MSTORE SWAP2 PUSH1 0x20 ADD SWAP2 PUSH2 0xD10 JUMP JUMPDEST DUP3 ADD SWAP2 SWAP1 PUSH1 0x0 MSTORE PUSH1 0x20 PUSH1 0x0 KECCAK256 SWAP1 JUMPDEST DUP2 SLOAD DUP2 MSTORE SWAP1 PUSH1 0x1 ADD SWAP1 PUSH1 0x20 ADD DUP1 DUP4 GT PUSH2 0xCF3 JUMPI DUP3 SWAP1 SUB PUSH1 0x1F AND DUP3 ADD SWAP2 JUMPDEST POP POP POP POP POP DUP2 MSTORE PUSH1 0x20 ADD PUSH1 0x2 DUP3 ADD DUP1 SLOAD PUSH2 0xD29 SWAP1 PUSH2 0x22C0 JUMP JUMPDEST DUP1 PUSH1 0x1F ADD PUSH1 0x20 DUP1 SWAP2 DIV MUL PUSH1 0x20 ADD PUSH1 0x40 MLOAD SWAP1 DUP2 ADD PUSH1 0x40 MSTORE DUP1 SWAP3 SWAP2 SWAP1 DUP2 DUP2 MSTORE PUSH1 0x20 ADD DUP3 DUP1 SLOAD PUSH2 0xD55 SWAP1 PUSH2 0x22C0 JUMP JUMPDEST DUP1 ISZERO PUSH2 0xDA2 JUMPI DUP1 PUSH1 0x1F LT PUSH2 0xD77 JUMPI PUSH2 0x100 DUP1 DUP4 SLOAD DIV MUL DUP4 MSTORE SWAP2 PUSH1 0x20 ADD SWAP2 PUSH2 0xDA2 JUMP JUMPDEST DUP3 ADD SWAP2 SWAP1 PUSH1 0x0 MSTORE PUSH1 0x20 PUSH1 0x0 KECCAK256 SWAP1 JUMPDEST DUP2 SLOAD DUP2 MSTORE SWAP1 PUSH1 0x1 ADD SWAP1 PUSH1 0x20 ADD DUP1 DUP4 GT PUSH2 0xD85 JUMPI DUP3 SWAP1 SUB PUSH1 0x1F AND DUP3 ADD SWAP2 JUMPDEST POP POP POP POP POP DUP2 MSTORE PUSH1 0x20 ADD PUSH1 0x3 DUP3 ADD DUP1 SLOAD PUSH2 0xDBB SWAP1 PUSH2 0x22C0 JUMP JUMPDEST DUP1 PUSH1 0x1F ADD PUSH1 0x20 DUP1 SWAP2 DIV MUL PUSH1 0x20 ADD PUSH1 0x40 MLOAD SWAP1 DUP2 ADD PUSH1 0x40 MSTORE DUP1 SWAP3 SWAP2 SWAP1 DUP2 DUP2 MSTORE PUSH1 0x20 ADD DUP3 DUP1 SLOAD PUSH2 0xDE7 SWAP1 PUSH2 0x22C0 JUMP JUMPDEST DUP1 ISZERO PUSH2 0xE34 JUMPI DUP1 PUSH1 0x1F LT PUSH2 0xE09 JUMPI PUSH2 0x100 DUP1 DUP4 SLOAD DIV MUL DUP4 MSTORE SWAP2 PUSH1 0x20 ADD SWAP2 PUSH2 0xE34 JUMP JUMPDEST DUP3 ADD SWAP2 SWAP1 PUSH1 0x0 MSTORE PUSH1 0x20 PUSH1 0x0 KECCAK256 SWAP1 JUMPDEST DUP2 SLOAD DUP2 MSTORE SWAP1 PUSH1 0x1 ADD SWAP1 PUSH1 0x20 ADD DUP1 DUP4 GT PUSH2 0xE17 JUMPI DUP3 SWAP1 SUB PUSH1 0x1F AND DUP3 ADD SWAP2 JUMPDEST POP POP POP POP POP DUP2 MSTORE PUSH1 0x20 ADD PUSH1 0x4 DUP3 ADD DUP1 SLOAD PUSH2 0xE4D SWAP1 PUSH2 0x22C0 JUMP JUMPDEST DUP1 PUSH1 0x1F ADD PUSH1 0x20 DUP1 SWAP2 DIV MUL PUSH1 0x20 ADD PUSH1 0x40 MLOAD SWAP1 DUP2 ADD PUSH1 0x40 MSTORE DUP1 SWAP3 SWAP2 SWAP1 DUP2 DUP2 MSTORE PUSH1 0x20 ADD DUP3 DUP1 SLOAD PUSH2 0xE79 SWAP1 PUSH2 0x22C0 JUMP JUMPDEST DUP1 ISZERO PUSH2 0xEC6 JUMPI DUP1 PUSH1 0x1F LT PUSH2 0xE9B JUMPI PUSH2 0x100 DUP1 DUP4 SLOAD DIV MUL DUP4 MSTORE SWAP2 PUSH1 0x20 ADD SWAP2 PUSH2 0xEC6 JUMP JUMPDEST DUP3 ADD SWAP2 SWAP1 PUSH1 0x0 MSTORE PUSH1 0x20 PUSH1 0x0 KECCAK256 SWAP1 JUMPDEST DUP2 SLOAD DUP2 MSTORE SWAP1 PUSH1 0x1 ADD SWAP1 PUSH1 0x20 ADD DUP1 DUP4 GT PUSH2 0xEA9 JUMPI DUP3 SWAP1 SUB PUSH1 0x1F AND DUP3 ADD SWAP2 JUMPDEST POP POP POP POP POP DUP2 MSTORE PUSH1 0x20 ADD PUSH1 0x5 DUP3 ADD DUP1 SLOAD PUSH2 0xEDF SWAP1 PUSH2 0x22C0 JUMP JUMPDEST DUP1 PUSH1 0x1F ADD PUSH1 0x20 DUP1 SWAP2 DIV MUL PUSH1 0x20 ADD PUSH1 0x40 MLOAD SWAP1 DUP2 ADD PUSH1 0x40 MSTORE DUP1 SWAP3 SWAP2 SWAP1 DUP2 DUP2 MSTORE PUSH1 0x20 ADD DUP3 DUP1 SLOAD PUSH2 0xF0B SWAP1 PUSH2 0x22C0 JUMP JUMPDEST DUP1 ISZERO PUSH2 0xF58 JUMPI DUP1 PUSH1 0x1F LT PUSH2 0xF2D JUMPI PUSH2 0x100 DUP1 DUP4 SLOAD DIV MUL DUP4 MSTORE SWAP2 PUSH1 0x20 ADD SWAP2 PUSH2 0xF58 JUMP JUMPDEST DUP3 ADD SWAP2 SWAP1 PUSH1 0x0 MSTORE PUSH1 0x20 PUSH1 0x0 KECCAK256 SWAP1 JUMPDEST DUP2 SLOAD DUP2 MSTORE SWAP1 PUSH1 0x1 ADD SWAP1 PUSH1 0x20 ADD DUP1 DUP4 GT PUSH2 0xF3B JUMPI DUP3 SWAP1 SUB PUSH1 0x1F AND DUP3 ADD SWAP2 JUMPDEST POP POP POP POP POP DUP2 MSTORE POP POP SWAP1 DUP1 PUSH1 0xC ADD PUSH1 0x40 MLOAD DUP1 PUSH1 0x60 ADD PUSH1 0x40 MSTORE SWAP1 DUP2 PUSH1 0x0 DUP3 ADD DUP1 SLOAD DUP1 PUSH1 0x20 MUL PUSH1 0x20 ADD PUSH1 0x40 MLOAD SWAP1 DUP2 ADD PUSH1 0x40 MSTORE DUP1 SWAP3 SWAP2 SWAP1 DUP2 DUP2 MSTORE PUSH1 0x20 ADD PUSH1 0x0 SWAP1 JUMPDEST DUP3 DUP3 LT ISZERO PUSH2 0x1042 JUMPI DUP4 DUP3 SWAP1 PUSH1 0x0 MSTORE PUSH1 0x20 PUSH1 0x0 KECCAK256 ADD DUP1 SLOAD PUSH2 0xFB5 SWAP1 PUSH2 0x22C0 JUMP JUMPDEST DUP1 PUSH1 0x1F ADD PUSH1 0x20 DUP1 SWAP2 DIV MUL PUSH1 0x20 ADD PUSH1 0x40 MLOAD SWAP1 DUP2 ADD PUSH1 0x40 MSTORE DUP1 SWAP3 SWAP2 SWAP1 DUP2 DUP2 MSTORE PUSH1 0x20 ADD DUP3 DUP1 SLOAD PUSH2 0xFE1 SWAP1 PUSH2 0x22C0 JUMP JUMPDEST DUP1 ISZERO PUSH2 0x102E JUMPI DUP1 PUSH1 0x1F LT PUSH2 0x1003 JUMPI PUSH2 0x100 DUP1 DUP4 SLOAD DIV MUL DUP4 MSTORE SWAP2 PUSH1 0x20 ADD SWAP2 PUSH2 0x102E JUMP JUMPDEST DUP3 ADD SWAP2 SWAP1 PUSH1 0x0 MSTORE PUSH1 0x20 PUSH1 0x0 KECCAK256 SWAP1 JUMPDEST DUP2 SLOAD DUP2 MSTORE SWAP1 PUSH1 0x1 ADD SWAP1 PUSH1 0x20 ADD DUP1 DUP4 GT PUSH2 0x1011 JUMPI DUP3 SWAP1 SUB PUSH1 0x1F AND DUP3 ADD SWAP2 JUMPDEST POP POP POP POP POP DUP2 MSTORE PUSH1 0x20 ADD SWAP1 PUSH1 0x1 ADD SWAP1 PUSH2 0xF96 JUMP JUMPDEST POP POP POP POP DUP2 MSTORE PUSH1 0x20 ADD PUSH1 0x1 DUP3 ADD DUP1 SLOAD DUP1 PUSH1 0x20 MUL PUSH1 0x20 ADD PUSH1 0x40 MLOAD SWAP1 DUP2 ADD PUSH1 0x40 MSTORE DUP1 SWAP3 SWAP2 SWAP1 DUP2 DUP2 MSTORE PUSH1 0x20 ADD PUSH1 0x0 SWAP1 JUMPDEST DUP3 DUP3 LT ISZERO PUSH2 0x111B JUMPI DUP4 DUP3 SWAP1 PUSH1 0x0 MSTORE PUSH1 0x20 PUSH1 0x0 KECCAK256 ADD DUP1 SLOAD PUSH2 0x108E SWAP1 PUSH2 0x22C0 JUMP JUMPDEST DUP1 PUSH1 0x1F ADD PUSH1 0x20 DUP1 SWAP2 DIV MUL PUSH1 0x20 ADD PUSH1 0x40 MLOAD SWAP1 DUP2 ADD PUSH1 0x40 MSTORE DUP1 SWAP3 SWAP2 SWAP1 DUP2 DUP2 MSTORE PUSH1 0x20 ADD DUP3 DUP1 SLOAD PUSH2 0x10BA SWAP1 PUSH2 0x22C0 JUMP JUMPDEST DUP1 ISZERO PUSH2 0x1107 JUMPI DUP1 PUSH1 0x1F LT PUSH2 0x10DC JUMPI PUSH2 0x100 DUP1 DUP4 SLOAD DIV MUL DUP4 MSTORE SWAP2 PUSH1 0x20 ADD SWAP2 PUSH2 0x1107 JUMP JUMPDEST DUP3 ADD SWAP2 SWAP1 PUSH1 0x0 MSTORE PUSH1 0x20 PUSH1 0x0 KECCAK256 SWAP1 JUMPDEST DUP2 SLOAD DUP2 MSTORE SWAP1 PUSH1 0x1 ADD SWAP1 PUSH1 0x20 ADD DUP1 DUP4 GT PUSH2 0x10EA JUMPI DUP3 SWAP1 SUB PUSH1 0x1F AND DUP3 ADD SWAP2 JUMPDEST POP POP POP POP POP DUP2 MSTORE PUSH1 0x20 ADD SWAP1 PUSH1 0x1 ADD SWAP1 PUSH2 0x106F JUMP JUMPDEST POP POP POP POP DUP2 MSTORE PUSH1 0x20 ADD PUSH1 0x2 DUP3 ADD DUP1 SLOAD DUP1 PUSH1 0x20 MUL PUSH1 0x20 ADD PUSH1 0x40 MLOAD SWAP1 DUP2 ADD PUSH1 0x40 MSTORE DUP1 SWAP3 SWAP2 SWAP1 DUP2 DUP2 MSTORE PUSH1 0x20 ADD PUSH1 0x0 SWAP1 JUMPDEST DUP3 DUP3 LT ISZERO PUSH2 0x11F4 JUMPI DUP4 DUP3 SWAP1 PUSH1 0x0 MSTORE PUSH1 0x20 PUSH1 0x0 KECCAK256 ADD DUP1 SLOAD PUSH2 0x1167 SWAP1 PUSH2 0x22C0 JUMP JUMPDEST DUP1 PUSH1 0x1F ADD PUSH1 0x20 DUP1 SWAP2 DIV MUL PUSH1 0x20 ADD PUSH1 0x40 MLOAD SWAP1 DUP2 ADD PUSH1 0x40 MSTORE DUP1 SWAP3 SWAP2 SWAP1 DUP2 DUP2 MSTORE PUSH1 0x20 ADD DUP3 DUP1 SLOAD PUSH2 0x1193 SWAP1 PUSH2 0x22C0 JUMP JUMPDEST DUP1 ISZERO PUSH2 0x11E0 JUMPI DUP1 PUSH1 0x1F LT PUSH2 0x11B5 JUMPI PUSH2 0x100 DUP1 DUP4 SLOAD DIV MUL DUP4 MSTORE SWAP2 PUSH1 0x20 ADD SWAP2 PUSH2 0x11E0 JUMP JUMPDEST DUP3 ADD SWAP2 SWAP1 PUSH1 0x0 MSTORE PUSH1 0x20 PUSH1 0x0 KECCAK256 SWAP1 JUMPDEST DUP2 SLOAD DUP2 MSTORE SWAP1 PUSH1 0x1 ADD SWAP1 PUSH1 0x20 ADD DUP1 DUP4 GT PUSH2 0x11C3 JUMPI DUP3 SWAP1 SUB PUSH1 0x1F AND DUP3 ADD SWAP2 JUMPDEST POP POP POP POP POP DUP2 MSTORE PUSH1 0x20 ADD SWAP1 PUSH1 0x1 ADD SWAP1 PUSH2 0x1148 JUMP JUMPDEST POP POP POP POP DUP2 MSTORE POP POP SWAP1 POP DUP9 JUMP JUMPDEST PUSH1 0x0 DUP1 CALLER PUSH20 0xFFFFFFFFFFFFFFFFFFFFFFFFFFFFFFFFFFFFFFFF AND PUSH20 0xFFFFFFFFFFFFFFFFFFFFFFFFFFFFFFFFFFFFFFFF AND DUP2 MSTORE PUSH1 0x20 ADD SWAP1 DUP2 MSTORE PUSH1 0x20 ADD PUSH1 0x0 KECCAK256 PUSH1 0xF ADD PUSH1 0x0 PUSH2 0x124E SWAP2 SWAP1 PUSH2 0x18F4 JUMP JUMPDEST JUMP JUMPDEST PUSH1 0x60 DUP1 PUSH1 0x60 DUP1 PUSH1 0x0 DUP1 CALLER PUSH20 0xFFFFFFFFFFFFFFFFFFFFFFFFFFFFFFFFFFFFFFFF AND PUSH20 0xFFFFFFFFFFFFFFFFFFFFFFFFFFFFFFFFFFFFFFFF AND DUP2 MSTORE PUSH1 0x20 ADD SWAP1 DUP2 MSTORE PUSH1 0x20 ADD PUSH1 0x0 KECCAK256 PUSH1 0xF ADD DUP6 DUP2 SLOAD DUP2 LT PUSH2 0x12A9 JUMPI PUSH2 0x12A8 PUSH2 0x2352 JUMP JUMPDEST JUMPDEST SWAP1 PUSH1 0x0 MSTORE PUSH1 0x20 PUSH1 0x0 KECCAK256 SWAP1 PUSH1 0x4 MUL ADD PUSH1 0x0 ADD PUSH1 0x0 DUP1 CALLER PUSH20 0xFFFFFFFFFFFFFFFFFFFFFFFFFFFFFFFFFFFFFFFF AND PUSH20 0xFFFFFFFFFFFFFFFFFFFFFFFFFFFFFFFFFFFFFFFF AND DUP2 MSTORE PUSH1 0x20 ADD SWAP1 DUP2 MSTORE PUSH1 0x20 ADD PUSH1 0x0 KECCAK256 PUSH1 0xF ADD DUP7 DUP2 SLOAD DUP2 LT PUSH2 0x130D JUMPI PUSH2 0x130C PUSH2 0x2352 JUMP JUMPDEST JUMPDEST SWAP1 PUSH1 0x0 MSTORE PUSH1 0x20 PUSH1 0x0 KECCAK256 SWAP1 PUSH1 0x4 MUL ADD PUSH1 0x1 ADD PUSH1 0x0 DUP1 CALLER PUSH20 0xFFFFFFFFFFFFFFFFFFFFFFFFFFFFFFFFFFFFFFFF AND PUSH20 0xFFFFFFFFFFFFFFFFFFFFFFFFFFFFFFFFFFFFFFFF AND DUP2 MSTORE PUSH1 0x20 ADD SWAP1 DUP2 MSTORE PUSH1 0x20 ADD PUSH1 0x0 KECCAK256 PUSH1 0xF ADD DUP8 DUP2 SLOAD DUP2 LT PUSH2 0x1371 JUMPI PUSH2 0x1370 PUSH2 0x2352 JUMP JUMPDEST JUMPDEST SWAP1 PUSH1 0x0 MSTORE PUSH1 0x20 PUSH1 0x0 KECCAK256 SWAP1 PUSH1 0x4 MUL ADD PUSH1 0x2 ADD PUSH1 0x0 DUP1 CALLER PUSH20 0xFFFFFFFFFFFFFFFFFFFFFFFFFFFFFFFFFFFFFFFF AND PUSH20 0xFFFFFFFFFFFFFFFFFFFFFFFFFFFFFFFFFFFFFFFF AND DUP2 MSTORE PUSH1 0x20 ADD SWAP1 DUP2 MSTORE PUSH1 0x20 ADD PUSH1 0x0 KECCAK256 PUSH1 0xF ADD DUP9 DUP2 SLOAD DUP2 LT PUSH2 0x13D5 JUMPI PUSH2 0x13D4 PUSH2 0x2352 JUMP JUMPDEST JUMPDEST SWAP1 PUSH1 0x0 MSTORE PUSH1 0x20 PUSH1 0x0 KECCAK256 SWAP1 PUSH1 0x4 MUL ADD PUSH1 0x3 ADD DUP4 DUP1 SLOAD PUSH2 0x13F2 SWAP1 PUSH2 0x22C0 JUMP JUMPDEST DUP1 PUSH1 0x1F ADD PUSH1 0x20 DUP1 SWAP2 DIV MUL PUSH1 0x20 ADD PUSH1 0x40 MLOAD SWAP1 DUP2 ADD PUSH1 0x40 MSTORE DUP1 SWAP3 SWAP2 SWAP1 DUP2 DUP2 MSTORE PUSH1 0x20 ADD DUP3 DUP1 SLOAD PUSH2 0x141E SWAP1 PUSH2 0x22C0 JUMP JUMPDEST DUP1 ISZERO PUSH2 0x146B JUMPI DUP1 PUSH1 0x1F LT PUSH2 0x1440 JUMPI PUSH2 0x100 DUP1 DUP4 SLOAD DIV MUL DUP4 MSTORE SWAP2 PUSH1 0x20 ADD SWAP2 PUSH2 0x146B JUMP JUMPDEST DUP3 ADD SWAP2 SWAP1 PUSH1 0x0 MSTORE PUSH1 0x20 PUSH1 0x0 KECCAK256 SWAP1 JUMPDEST DUP2 SLOAD DUP2 MSTORE SWAP1 PUSH1 0x1 ADD SWAP1 PUSH1 0x20 ADD DUP1 DUP4 GT PUSH2 0x144E JUMPI DUP3 SWAP1 SUB PUSH1 0x1F AND DUP3 ADD SWAP2 JUMPDEST POP POP POP POP POP SWAP4 POP DUP3 DUP1 SLOAD PUSH2 0x147E SWAP1 PUSH2 0x22C0 JUMP JUMPDEST DUP1 PUSH1 0x1F ADD PUSH1 0x20 DUP1 SWAP2 DIV MUL PUSH1 0x20 ADD PUSH1 0x40 MLOAD SWAP1 DUP2 ADD PUSH1 0x40 MSTORE DUP1 SWAP3 SWAP2 SWAP1 DUP2 DUP2 MSTORE PUSH1 0x20 ADD DUP3 DUP1 SLOAD PUSH2 0x14AA SWAP1 PUSH2 0x22C0 JUMP JUMPDEST DUP1 ISZERO PUSH2 0x14F7 JUMPI DUP1 PUSH1 0x1F LT PUSH2 0x14CC JUMPI PUSH2 0x100 DUP1 DUP4 SLOAD DIV MUL DUP4 MSTORE SWAP2 PUSH1 0x20 ADD SWAP2 PUSH2 0x14F7 JUMP JUMPDEST DUP3 ADD SWAP2 SWAP1 PUSH1 0x0 MSTORE PUSH1 0x20 PUSH1 0x0 KECCAK256 SWAP1 JUMPDEST DUP2 SLOAD DUP2 MSTORE SWAP1 PUSH1 0x1 ADD SWAP1 PUSH1 0x20 ADD DUP1 DUP4 GT PUSH2 0x14DA JUMPI DUP3 SWAP1 SUB PUSH1 0x1F AND DUP3 ADD SWAP2 JUMPDEST POP POP POP POP POP SWAP3 POP DUP2 DUP1 SLOAD PUSH2 0x150A SWAP1 PUSH2 0x22C0 JUMP JUMPDEST DUP1 PUSH1 0x1F ADD PUSH1 0x20 DUP1 SWAP2 DIV MUL PUSH1 0x20 ADD PUSH1 0x40 MLOAD SWAP1 DUP2 ADD PUSH1 0x40 MSTORE DUP1 SWAP3 SWAP2 SWAP1 DUP2 DUP2 MSTORE PUSH1 0x20 ADD DUP3 DUP1 SLOAD PUSH2 0x1536 SWAP1 PUSH2 0x22C0 JUMP JUMPDEST DUP1 ISZERO PUSH2 0x1583 JUMPI DUP1 PUSH1 0x1F LT PUSH2 0x1558 JUMPI PUSH2 0x100 DUP1 DUP4 SLOAD DIV MUL DUP4 MSTORE SWAP2 PUSH1 0x20 ADD SWAP2 PUSH2 0x1583 JUMP JUMPDEST DUP3 ADD SWAP2 SWAP1 PUSH1 0x0 MSTORE PUSH1 0x20 PUSH1 0x0 KECCAK256 SWAP1 JUMPDEST DUP2 SLOAD DUP2 MSTORE SWAP1 PUSH1 0x1 ADD SWAP1 PUSH1 0x20 ADD DUP1 DUP4 GT PUSH2 0x1566 JUMPI DUP3 SWAP1 SUB PUSH1 0x1F AND DUP3 ADD SWAP2 JUMPDEST POP POP POP POP POP SWAP2 POP DUP1 DUP1 SLOAD PUSH2 0x1596 SWAP1 PUSH2 0x22C0 JUMP JUMPDEST DUP1 PUSH1 0x1F ADD PUSH1 0x20 DUP1 SWAP2 DIV MUL PUSH1 0x20 ADD PUSH1 0x40 MLOAD SWAP1 DUP2 ADD PUSH1 0x40 MSTORE DUP1 SWAP3 SWAP2 SWAP1 DUP2 DUP2 MSTORE PUSH1 0x20 ADD DUP3 DUP1 SLOAD PUSH2 0x15C2 SWAP1 PUSH2 0x22C0 JUMP JUMPDEST DUP1 ISZERO PUSH2 0x160F JUMPI DUP1 PUSH1 0x1F LT PUSH2 0x15E4 JUMPI PUSH2 0x100 DUP1 DUP4 SLOAD DIV MUL DUP4 MSTORE SWAP2 PUSH1 0x20 ADD SWAP2 PUSH2 0x160F JUMP JUMPDEST DUP3 ADD SWAP2 SWAP1 PUSH1 0x0 MSTORE PUSH1 0x20 PUSH1 0x0 KECCAK256 SWAP1 JUMPDEST DUP2 SLOAD DUP2 MSTORE SWAP1 PUSH1 0x1 ADD SWAP1 PUSH1 0x20 ADD DUP1 DUP4 GT PUSH2 0x15F2 JUMPI DUP3 SWAP1 SUB PUSH1 0x1F AND DUP3 ADD SWAP2 JUMPDEST POP POP POP POP POP SWAP1 POP SWAP4 POP SWAP4 POP SWAP4 POP SWAP4 POP SWAP2 SWAP4 POP SWAP2 SWAP4 JUMP JUMPDEST PUSH1 0x0 DUP1 CALLER PUSH20 0xFFFFFFFFFFFFFFFFFFFFFFFFFFFFFFFFFFFFFFFF AND PUSH20 0xFFFFFFFFFFFFFFFFFFFFFFFFFFFFFFFFFFFFFFFF AND DUP2 MSTORE PUSH1 0x20 ADD SWAP1 DUP2 MSTORE PUSH1 0x20 ADD PUSH1 0x0 KECCAK256 PUSH1 0x0 DUP1 DUP3 ADD PUSH1 0x0 PUSH2 0x100 EXP DUP2 SLOAD SWAP1 PUSH20 0xFFFFFFFFFFFFFFFFFFFFFFFFFFFFFFFFFFFFFFFF MUL NOT AND SWAP1 SSTORE PUSH1 0x1 DUP3 ADD PUSH1 0x0 PUSH2 0x169B SWAP2 SWAP1 PUSH2 0x1806 JUMP JUMPDEST PUSH1 0x2 DUP3 ADD PUSH1 0x0 PUSH2 0x16AB SWAP2 SWAP1 PUSH2 0x1806 JUMP JUMPDEST PUSH1 0x3 DUP3 ADD PUSH1 0x0 PUSH2 0x16BB SWAP2 SWAP1 PUSH2 0x1806 JUMP JUMPDEST PUSH1 0x4 DUP3 ADD PUSH1 0x0 PUSH2 0x16CB SWAP2 SWAP1 PUSH2 0x1806 JUMP JUMPDEST PUSH1 0x5 DUP3 ADD PUSH1 0x0 SWAP1 SSTORE PUSH1 0x6 DUP3 ADD PUSH1 0x0 DUP1 DUP3 ADD PUSH1 0x0 PUSH2 0x16E8 SWAP2 SWAP1 PUSH2 0x1806 JUMP JUMPDEST PUSH1 0x1 DUP3 ADD PUSH1 0x0 PUSH2 0x16F8 SWAP2 SWAP1 PUSH2 0x1806 JUMP JUMPDEST PUSH1 0x2 DUP3 ADD PUSH1 0x0 PUSH2 0x1708 SWAP2 SWAP1 PUSH2 0x1806 JUMP JUMPDEST PUSH1 0x3 DUP3 ADD PUSH1 0x0 PUSH2 0x1718 SWAP2 SWAP1 PUSH2 0x1806 JUMP JUMPDEST PUSH1 0x4 DUP3 ADD PUSH1 0x0 PUSH2 0x1728 SWAP2 SWAP1 PUSH2 0x1806 JUMP JUMPDEST PUSH1 0x5 DUP3 ADD PUSH1 0x0 PUSH2 0x1738 SWAP2 SWAP1 PUSH2 0x1806 JUMP JUMPDEST POP POP PUSH1 0xC DUP3 ADD PUSH1 0x0 DUP1 DUP3 ADD PUSH1 0x0 PUSH2 0x174F SWAP2 SWAP1 PUSH2 0x1785 JUMP JUMPDEST PUSH1 0x1 DUP3 ADD PUSH1 0x0 PUSH2 0x175F SWAP2 SWAP1 PUSH2 0x1785 JUMP JUMPDEST PUSH1 0x2 DUP3 ADD PUSH1 0x0 PUSH2 0x176F SWAP2 SWAP1 PUSH2 0x1785 JUMP JUMPDEST POP POP PUSH1 0xF DUP3 ADD PUSH1 0x0 PUSH2 0x1781 SWAP2 SWAP1 PUSH2 0x18F4 JUMP JUMPDEST POP POP JUMP JUMPDEST POP DUP1 SLOAD PUSH1 0x0 DUP3 SSTORE SWAP1 PUSH1 0x0 MSTORE PUSH1 0x20 PUSH1 0x0 KECCAK256 SWAP1 DUP2 ADD SWAP1 PUSH2 0x17A3 SWAP2 SWAP1 PUSH2 0x1918 JUMP JUMPDEST POP JUMP JUMPDEST DUP3 DUP1 SLOAD DUP3 DUP3 SSTORE SWAP1 PUSH1 0x0 MSTORE PUSH1 0x20 PUSH1 0x0 KECCAK256 SWAP1 DUP2 ADD SWAP3 DUP3 ISZERO PUSH2 0x17F5 JUMPI SWAP2 PUSH1 0x20 MUL DUP3 ADD JUMPDEST DUP3 DUP2 GT ISZERO PUSH2 0x17F4 JUMPI DUP3 MLOAD DUP3 SWAP1 DUP1 MLOAD SWAP1 PUSH1 0x20 ADD SWAP1 PUSH2 0x17E4 SWAP3 SWAP2 SWAP1 PUSH2 0x1846 JUMP JUMPDEST POP SWAP2 PUSH1 0x20 ADD SWAP2 SWAP1 PUSH1 0x1 ADD SWAP1 PUSH2 0x17C6 JUMP JUMPDEST JUMPDEST POP SWAP1 POP PUSH2 0x1802 SWAP2 SWAP1 PUSH2 0x1918 JUMP JUMPDEST POP SWAP1 JUMP JUMPDEST POP DUP1 SLOAD PUSH2 0x1812 SWAP1 PUSH2 0x22C0 JUMP JUMPDEST PUSH1 0x0 DUP3 SSTORE DUP1 PUSH1 0x1F LT PUSH2 0x1824 JUMPI POP PUSH2 0x1843 JUMP JUMPDEST PUSH1 0x1F ADD PUSH1 0x20 SWAP1 DIV SWAP1 PUSH1 0x0 MSTORE PUSH1 0x20 PUSH1 0x0 KECCAK256 SWAP1 DUP2 ADD SWAP1 PUSH2 0x1842 SWAP2 SWAP1 PUSH2 0x193C JUMP JUMPDEST JUMPDEST POP JUMP JUMPDEST DUP3 DUP1 SLOAD PUSH2 0x1852 SWAP1 PUSH2 0x22C0 JUMP JUMPDEST SWAP1 PUSH1 0x0 MSTORE PUSH1 0x20 PUSH1 0x0 KECCAK256 SWAP1 PUSH1 0x1F ADD PUSH1 0x20 SWAP1 DIV DUP2 ADD SWAP3 DUP3 PUSH2 0x1874 JUMPI PUSH1 0x0 DUP6 SSTORE PUSH2 0x18BB JUMP JUMPDEST DUP3 PUSH1 0x1F LT PUSH2 0x188D JUMPI DUP1 MLOAD PUSH1 0xFF NOT AND DUP4 DUP1 ADD OR DUP6 SSTORE PUSH2 0x18BB JUMP JUMPDEST DUP3 DUP1 ADD PUSH1 0x1 ADD DUP6 SSTORE DUP3 ISZERO PUSH2 0x18BB JUMPI SWAP2 DUP3 ADD JUMPDEST DUP3 DUP2 GT ISZERO PUSH2 0x18BA JUMPI DUP3 MLOAD DUP3 SSTORE SWAP2 PUSH1 0x20 ADD SWAP2 SWAP1 PUSH1 0x1 ADD SWAP1 PUSH2 0x189F JUMP JUMPDEST JUMPDEST POP SWAP1 POP PUSH2 0x18C8 SWAP2 SWAP1 PUSH2 0x193C JUMP JUMPDEST POP SWAP1 JUMP JUMPDEST PUSH1 0x40 MLOAD DUP1 PUSH1 0x80 ADD PUSH1 0x40 MSTORE DUP1 PUSH1 0x60 DUP2 MSTORE PUSH1 0x20 ADD PUSH1 0x60 DUP2 MSTORE PUSH1 0x20 ADD PUSH1 0x60 DUP2 MSTORE PUSH1 0x20 ADD PUSH1 0x60 DUP2 MSTORE POP SWAP1 JUMP JUMPDEST POP DUP1 SLOAD PUSH1 0x0 DUP3 SSTORE PUSH1 0x4 MUL SWAP1 PUSH1 0x0 MSTORE PUSH1 0x20 PUSH1 0x0 KECCAK256 SWAP1 DUP2 ADD SWAP1 PUSH2 0x1915 SWAP2 SWAP1 PUSH2 0x1959 JUMP JUMPDEST POP JUMP JUMPDEST JUMPDEST DUP1 DUP3 GT ISZERO PUSH2 0x1938 JUMPI PUSH1 0x0 DUP2 DUP2 PUSH2 0x192F SWAP2 SWAP1 PUSH2 0x1806 JUMP JUMPDEST POP PUSH1 0x1 ADD PUSH2 0x1919 JUMP JUMPDEST POP SWAP1 JUMP JUMPDEST JUMPDEST DUP1 DUP3 GT ISZERO PUSH2 0x1955 JUMPI PUSH1 0x0 DUP2 PUSH1 0x0 SWAP1 SSTORE POP PUSH1 0x1 ADD PUSH2 0x193D JUMP JUMPDEST POP SWAP1 JUMP JUMPDEST JUMPDEST DUP1 DUP3 GT ISZERO PUSH2 0x19AC JUMPI PUSH1 0x0 DUP1 DUP3 ADD PUSH1 0x0 PUSH2 0x1973 SWAP2 SWAP1 PUSH2 0x1806 JUMP JUMPDEST PUSH1 0x1 DUP3 ADD PUSH1 0x0 PUSH2 0x1983 SWAP2 SWAP1 PUSH2 0x1806 JUMP JUMPDEST PUSH1 0x2 DUP3 ADD PUSH1 0x0 PUSH2 0x1993 SWAP2 SWAP1 PUSH2 0x1806 JUMP JUMPDEST PUSH1 0x3 DUP3 ADD PUSH1 0x0 PUSH2 0x19A3 SWAP2 SWAP1 PUSH2 0x1806 JUMP JUMPDEST POP PUSH1 0x4 ADD PUSH2 0x195A JUMP JUMPDEST POP SWAP1 JUMP JUMPDEST PUSH1 0x0 PUSH2 0x19C3 PUSH2 0x19BE DUP5 PUSH2 0x217F JUMP JUMPDEST PUSH2 0x215A JUMP JUMPDEST SWAP1 POP DUP1 DUP4 DUP3 MSTORE PUSH1 0x20 DUP3 ADD SWAP1 POP DUP3 DUP6 PUSH1 0x20 DUP7 MUL DUP3 ADD GT ISZERO PUSH2 0x19E6 JUMPI PUSH2 0x19E5 PUSH2 0x23B5 JUMP JUMPDEST JUMPDEST PUSH1 0x0 JUMPDEST DUP6 DUP2 LT ISZERO PUSH2 0x1A34 JUMPI DUP2 CALLDATALOAD PUSH8 0xFFFFFFFFFFFFFFFF DUP2 GT ISZERO PUSH2 0x1A0C JUMPI PUSH2 0x1A0B PUSH2 0x23B0 JUMP JUMPDEST JUMPDEST DUP1 DUP7 ADD PUSH2 0x1A19 DUP10 DUP3 PUSH2 0x1AC3 JUMP JUMPDEST DUP6 MSTORE PUSH1 0x20 DUP6 ADD SWAP5 POP PUSH1 0x20 DUP5 ADD SWAP4 POP POP POP PUSH1 0x1 DUP2 ADD SWAP1 POP PUSH2 0x19E9 JUMP JUMPDEST POP POP POP SWAP4 SWAP3 POP POP POP JUMP JUMPDEST PUSH1 0x0 PUSH2 0x1A51 PUSH2 0x1A4C DUP5 PUSH2 0x21AB JUMP JUMPDEST PUSH2 0x215A JUMP JUMPDEST SWAP1 POP DUP3 DUP2 MSTORE PUSH1 0x20 DUP2 ADD DUP5 DUP5 DUP5 ADD GT ISZERO PUSH2 0x1A6D JUMPI PUSH2 0x1A6C PUSH2 0x23BA JUMP JUMPDEST JUMPDEST PUSH2 0x1A78 DUP5 DUP3 DUP6 PUSH2 0x227E JUMP JUMPDEST POP SWAP4 SWAP3 POP POP POP JUMP JUMPDEST PUSH1 0x0 DUP2 CALLDATALOAD SWAP1 POP PUSH2 0x1A8F DUP2 PUSH2 0x23DA JUMP JUMPDEST SWAP3 SWAP2 POP POP JUMP JUMPDEST PUSH1 0x0 DUP3 PUSH1 0x1F DUP4 ADD SLT PUSH2 0x1AAA JUMPI PUSH2 0x1AA9 PUSH2 0x23B0 JUMP JUMPDEST JUMPDEST DUP2 CALLDATALOAD PUSH2 0x1ABA DUP5 DUP3 PUSH1 0x20 DUP7 ADD PUSH2 0x19B0 JUMP JUMPDEST SWAP2 POP POP SWAP3 SWAP2 POP POP JUMP JUMPDEST PUSH1 0x0 DUP3 PUSH1 0x1F DUP4 ADD SLT PUSH2 0x1AD8 JUMPI PUSH2 0x1AD7 PUSH2 0x23B0 JUMP JUMPDEST JUMPDEST DUP2 CALLDATALOAD PUSH2 0x1AE8 DUP5 DUP3 PUSH1 0x20 DUP7 ADD PUSH2 0x1A3E JUMP JUMPDEST SWAP2 POP POP SWAP3 SWAP2 POP POP JUMP JUMPDEST PUSH1 0x0 DUP2 CALLDATALOAD SWAP1 POP PUSH2 0x1B00 DUP2 PUSH2 0x23F1 JUMP JUMPDEST SWAP3 SWAP2 POP POP JUMP JUMPDEST PUSH1 0x0 PUSH1 0x20 DUP3 DUP5 SUB SLT ISZERO PUSH2 0x1B1C JUMPI PUSH2 0x1B1B PUSH2 0x23C4 JUMP JUMPDEST JUMPDEST PUSH1 0x0 PUSH2 0x1B2A DUP5 DUP3 DUP6 ADD PUSH2 0x1A80 JUMP JUMPDEST SWAP2 POP POP SWAP3 SWAP2 POP POP JUMP JUMPDEST PUSH1 0x0 DUP1 PUSH1 0x0 PUSH1 0x60 DUP5 DUP7 SUB SLT ISZERO PUSH2 0x1B4C JUMPI PUSH2 0x1B4B PUSH2 0x23C4 JUMP JUMPDEST JUMPDEST PUSH1 0x0 DUP5 ADD CALLDATALOAD PUSH8 0xFFFFFFFFFFFFFFFF DUP2 GT ISZERO PUSH2 0x1B6A JUMPI PUSH2 0x1B69 PUSH2 0x23BF JUMP JUMPDEST JUMPDEST PUSH2 0x1B76 DUP7 DUP3 DUP8 ADD PUSH2 0x1A95 JUMP JUMPDEST SWAP4 POP POP PUSH1 0x20 DUP5 ADD CALLDATALOAD PUSH8 0xFFFFFFFFFFFFFFFF DUP2 GT ISZERO PUSH2 0x1B97 JUMPI PUSH2 0x1B96 PUSH2 0x23BF JUMP JUMPDEST JUMPDEST PUSH2 0x1BA3 DUP7 DUP3 DUP8 ADD PUSH2 0x1A95 JUMP JUMPDEST SWAP3 POP POP PUSH1 0x40 DUP5 ADD CALLDATALOAD PUSH8 0xFFFFFFFFFFFFFFFF DUP2 GT ISZERO PUSH2 0x1BC4 JUMPI PUSH2 0x1BC3 PUSH2 0x23BF JUMP JUMPDEST JUMPDEST PUSH2 0x1BD0 DUP7 DUP3 DUP8 ADD PUSH2 0x1A95 JUMP JUMPDEST SWAP2 POP POP SWAP3 POP SWAP3 POP SWAP3 JUMP JUMPDEST PUSH1 0x0 DUP1 PUSH1 0x0 DUP1 PUSH1 0x80 DUP6 DUP8 SUB SLT ISZERO PUSH2 0x1BF4 JUMPI PUSH2 0x1BF3 PUSH2 0x23C4 JUMP JUMPDEST JUMPDEST PUSH1 0x0 DUP6 ADD CALLDATALOAD PUSH8 0xFFFFFFFFFFFFFFFF DUP2 GT ISZERO PUSH2 0x1C12 JUMPI PUSH2 0x1C11 PUSH2 0x23BF JUMP JUMPDEST JUMPDEST PUSH2 0x1C1E DUP8 DUP3 DUP9 ADD PUSH2 0x1AC3 JUMP JUMPDEST SWAP5 POP POP PUSH1 0x20 DUP6 ADD CALLDATALOAD PUSH8 0xFFFFFFFFFFFFFFFF DUP2 GT ISZERO PUSH2 0x1C3F JUMPI PUSH2 0x1C3E PUSH2 0x23BF JUMP JUMPDEST JUMPDEST PUSH2 0x1C4B DUP8 DUP3 DUP9 ADD PUSH2 0x1AC3 JUMP JUMPDEST SWAP4 POP POP PUSH1 0x40 DUP6 ADD CALLDATALOAD PUSH8 0xFFFFFFFFFFFFFFFF DUP2 GT ISZERO PUSH2 0x1C6C JUMPI PUSH2 0x1C6B PUSH2 0x23BF JUMP JUMPDEST JUMPDEST PUSH2 0x1C78 DUP8 DUP3 DUP9 ADD PUSH2 0x1AC3 JUMP JUMPDEST SWAP3 POP POP PUSH1 0x60 DUP6 ADD CALLDATALOAD PUSH8 0xFFFFFFFFFFFFFFFF DUP2 GT ISZERO PUSH2 0x1C99 JUMPI PUSH2 0x1C98 PUSH2 0x23BF JUMP JUMPDEST JUMPDEST PUSH2 0x1CA5 DUP8 DUP3 DUP9 ADD PUSH2 0x1AC3 JUMP JUMPDEST SWAP2 POP POP SWAP3 SWAP6 SWAP2 SWAP5 POP SWAP3 POP JUMP JUMPDEST PUSH1 0x0 DUP1 PUSH1 0x0 DUP1 PUSH1 0x0 DUP1 PUSH1 0xC0 DUP8 DUP10 SUB SLT ISZERO PUSH2 0x1CCE JUMPI PUSH2 0x1CCD PUSH2 0x23C4 JUMP JUMPDEST JUMPDEST PUSH1 0x0 DUP8 ADD CALLDATALOAD PUSH8 0xFFFFFFFFFFFFFFFF DUP2 GT ISZERO PUSH2 0x1CEC JUMPI PUSH2 0x1CEB PUSH2 0x23BF JUMP JUMPDEST JUMPDEST PUSH2 0x1CF8 DUP10 DUP3 DUP11 ADD PUSH2 0x1AC3 JUMP JUMPDEST SWAP7 POP POP PUSH1 0x20 DUP8 ADD CALLDATALOAD PUSH8 0xFFFFFFFFFFFFFFFF DUP2 GT ISZERO PUSH2 0x1D19 JUMPI PUSH2 0x1D18 PUSH2 0x23BF JUMP JUMPDEST JUMPDEST PUSH2 0x1D25 DUP10 DUP3 DUP11 ADD PUSH2 0x1AC3 JUMP JUMPDEST SWAP6 POP POP PUSH1 0x40 DUP8 ADD CALLDATALOAD PUSH8 0xFFFFFFFFFFFFFFFF DUP2 GT ISZERO PUSH2 0x1D46 JUMPI PUSH2 0x1D45 PUSH2 0x23BF JUMP JUMPDEST JUMPDEST PUSH2 0x1D52 DUP10 DUP3 DUP11 ADD PUSH2 0x1AC3 JUMP JUMPDEST SWAP5 POP POP PUSH1 0x60 DUP8 ADD CALLDATALOAD PUSH8 0xFFFFFFFFFFFFFFFF DUP2 GT ISZERO PUSH2 0x1D73 JUMPI PUSH2 0x1D72 PUSH2 0x23BF JUMP JUMPDEST JUMPDEST PUSH2 0x1D7F DUP10 DUP3 DUP11 ADD PUSH2 0x1AC3 JUMP JUMPDEST SWAP4 POP POP PUSH1 0x80 DUP8 ADD CALLDATALOAD PUSH8 0xFFFFFFFFFFFFFFFF DUP2 GT ISZERO PUSH2 0x1DA0 JUMPI PUSH2 0x1D9F PUSH2 0x23BF JUMP JUMPDEST JUMPDEST PUSH2 0x1DAC DUP10 DUP3 DUP11 ADD PUSH2 0x1AC3 JUMP JUMPDEST SWAP3 POP POP PUSH1 0xA0 DUP8 ADD CALLDATALOAD PUSH8 0xFFFFFFFFFFFFFFFF DUP2 GT ISZERO PUSH2 0x1DCD JUMPI PUSH2 0x1DCC PUSH2 0x23BF JUMP JUMPDEST JUMPDEST PUSH2 0x1DD9 DUP10 DUP3 DUP11 ADD PUSH2 0x1AC3 JUMP JUMPDEST SWAP2 POP POP SWAP3 SWAP6 POP SWAP3 SWAP6 POP SWAP3 SWAP6 JUMP JUMPDEST PUSH1 0x0 PUSH1 0x20 DUP3 DUP5 SUB SLT ISZERO PUSH2 0x1DFC JUMPI PUSH2 0x1DFB PUSH2 0x23C4 JUMP JUMPDEST JUMPDEST PUSH1 0x0 PUSH2 0x1E0A DUP5 DUP3 DUP6 ADD PUSH2 0x1AF1 JUMP JUMPDEST SWAP2 POP POP SWAP3 SWAP2 POP POP JUMP JUMPDEST PUSH1 0x0 PUSH2 0x1E1F DUP4 DUP4 PUSH2 0x1EAB JUMP JUMPDEST SWAP1 POP SWAP3 SWAP2 POP POP JUMP JUMPDEST PUSH2 0x1E30 DUP2 PUSH2 0x2242 JUMP JUMPDEST DUP3 MSTORE POP POP JUMP JUMPDEST PUSH1 0x0 PUSH2 0x1E41 DUP3 PUSH2 0x21EC JUMP JUMPDEST PUSH2 0x1E4B DUP2 DUP6 PUSH2 0x220F JUMP JUMPDEST SWAP4 POP DUP4 PUSH1 0x20 DUP3 MUL DUP6 ADD PUSH2 0x1E5D DUP6 PUSH2 0x21DC JUMP JUMPDEST DUP1 PUSH1 0x0 JUMPDEST DUP6 DUP2 LT ISZERO PUSH2 0x1E99 JUMPI DUP5 DUP5 SUB DUP10 MSTORE DUP2 MLOAD PUSH2 0x1E7A DUP6 DUP3 PUSH2 0x1E13 JUMP JUMPDEST SWAP5 POP PUSH2 0x1E85 DUP4 PUSH2 0x2202 JUMP JUMPDEST SWAP3 POP PUSH1 0x20 DUP11 ADD SWAP10 POP POP PUSH1 0x1 DUP2 ADD SWAP1 POP PUSH2 0x1E61 JUMP JUMPDEST POP DUP3 SWAP8 POP DUP8 SWAP6 POP POP POP POP POP POP SWAP3 SWAP2 POP POP JUMP JUMPDEST PUSH1 0x0 PUSH2 0x1EB6 DUP3 PUSH2 0x21F7 JUMP JUMPDEST PUSH2 0x1EC0 DUP2 DUP6 PUSH2 0x2220 JUMP JUMPDEST SWAP4 POP PUSH2 0x1ED0 DUP2 DUP6 PUSH1 0x20 DUP7 ADD PUSH2 0x228D JUMP JUMPDEST PUSH2 0x1ED9 DUP2 PUSH2 0x23C9 JUMP JUMPDEST DUP5 ADD SWAP2 POP POP SWAP3 SWAP2 POP POP JUMP JUMPDEST PUSH1 0x0 PUSH2 0x1EEF DUP3 PUSH2 0x21F7 JUMP JUMPDEST PUSH2 0x1EF9 DUP2 DUP6 PUSH2 0x2231 JUMP JUMPDEST SWAP4 POP PUSH2 0x1F09 DUP2 DUP6 PUSH1 0x20 DUP7 ADD PUSH2 0x228D JUMP JUMPDEST PUSH2 0x1F12 DUP2 PUSH2 0x23C9 JUMP JUMPDEST DUP5 ADD SWAP2 POP POP SWAP3 SWAP2 POP POP JUMP JUMPDEST PUSH1 0x0 PUSH1 0xC0 DUP4 ADD PUSH1 0x0 DUP4 ADD MLOAD DUP5 DUP3 SUB PUSH1 0x0 DUP7 ADD MSTORE PUSH2 0x1F3A DUP3 DUP3 PUSH2 0x1EAB JUMP JUMPDEST SWAP2 POP POP PUSH1 0x20 DUP4 ADD MLOAD DUP5 DUP3 SUB PUSH1 0x20 DUP7 ADD MSTORE PUSH2 0x1F54 DUP3 DUP3 PUSH2 0x1EAB JUMP JUMPDEST SWAP2 POP POP PUSH1 0x40 DUP4 ADD MLOAD DUP5 DUP3 SUB PUSH1 0x40 DUP7 ADD MSTORE PUSH2 0x1F6E DUP3 DUP3 PUSH2 0x1EAB JUMP JUMPDEST SWAP2 POP POP PUSH1 0x60 DUP4 ADD MLOAD DUP5 DUP3 SUB PUSH1 0x60 DUP7 ADD MSTORE PUSH2 0x1F88 DUP3 DUP3 PUSH2 0x1EAB JUMP JUMPDEST SWAP2 POP POP PUSH1 0x80 DUP4 ADD MLOAD DUP5 DUP3 SUB PUSH1 0x80 DUP7 ADD MSTORE PUSH2 0x1FA2 DUP3 DUP3 PUSH2 0x1EAB JUMP JUMPDEST SWAP2 POP POP PUSH1 0xA0 DUP4 ADD MLOAD DUP5 DUP3 SUB PUSH1 0xA0 DUP7 ADD MSTORE PUSH2 0x1FBC DUP3 DUP3 PUSH2 0x1EAB JUMP JUMPDEST SWAP2 POP POP DUP1 SWAP2 POP POP SWAP3 SWAP2 POP POP JUMP JUMPDEST PUSH1 0x0 PUSH1 0x60 DUP4 ADD PUSH1 0x0 DUP4 ADD MLOAD DUP5 DUP3 SUB PUSH1 0x0 DUP7 ADD MSTORE PUSH2 0x1FE6 DUP3 DUP3 PUSH2 0x1E36 JUMP JUMPDEST SWAP2 POP POP PUSH1 0x20 DUP4 ADD MLOAD DUP5 DUP3 SUB PUSH1 0x20 DUP7 ADD MSTORE PUSH2 0x2000 DUP3 DUP3 PUSH2 0x1E36 JUMP JUMPDEST SWAP2 POP POP PUSH1 0x40 DUP4 ADD MLOAD DUP5 DUP3 SUB PUSH1 0x40 DUP7 ADD MSTORE PUSH2 0x201A DUP3 DUP3 PUSH2 0x1E36 JUMP JUMPDEST SWAP2 POP POP DUP1 SWAP2 POP POP SWAP3 SWAP2 POP POP JUMP JUMPDEST PUSH2 0x2030 DUP2 PUSH2 0x2274 JUMP JUMPDEST DUP3 MSTORE POP POP JUMP JUMPDEST PUSH1 0x0 PUSH2 0x100 DUP3 ADD SWAP1 POP PUSH2 0x204C PUSH1 0x0 DUP4 ADD DUP12 PUSH2 0x1E27 JUMP JUMPDEST DUP2 DUP2 SUB PUSH1 0x20 DUP4 ADD MSTORE PUSH2 0x205E DUP2 DUP11 PUSH2 0x1EE4 JUMP JUMPDEST SWAP1 POP DUP2 DUP2 SUB PUSH1 0x40 DUP4 ADD MSTORE PUSH2 0x2072 DUP2 DUP10 PUSH2 0x1EE4 JUMP JUMPDEST SWAP1 POP DUP2 DUP2 SUB PUSH1 0x60 DUP4 ADD MSTORE PUSH2 0x2086 DUP2 DUP9 PUSH2 0x1EE4 JUMP JUMPDEST SWAP1 POP DUP2 DUP2 SUB PUSH1 0x80 DUP4 ADD MSTORE PUSH2 0x209A DUP2 DUP8 PUSH2 0x1EE4 JUMP JUMPDEST SWAP1 POP PUSH2 0x20A9 PUSH1 0xA0 DUP4 ADD DUP7 PUSH2 0x2027 JUMP JUMPDEST DUP2 DUP2 SUB PUSH1 0xC0 DUP4 ADD MSTORE PUSH2 0x20BB DUP2 DUP6 PUSH2 0x1F1D JUMP JUMPDEST SWAP1 POP DUP2 DUP2 SUB PUSH1 0xE0 DUP4 ADD MSTORE PUSH2 0x20CF DUP2 DUP5 PUSH2 0x1FC9 JUMP JUMPDEST SWAP1 POP SWAP10 SWAP9 POP POP POP POP POP POP POP POP POP JUMP JUMPDEST PUSH1 0x0 PUSH1 0x80 DUP3 ADD SWAP1 POP DUP2 DUP2 SUB PUSH1 0x0 DUP4 ADD MSTORE PUSH2 0x20F8 DUP2 DUP8 PUSH2 0x1EE4 JUMP JUMPDEST SWAP1 POP DUP2 DUP2 SUB PUSH1 0x20 DUP4 ADD MSTORE PUSH2 0x210C DUP2 DUP7 PUSH2 0x1EE4 JUMP JUMPDEST SWAP1 POP DUP2 DUP2 SUB PUSH1 0x40 DUP4 ADD MSTORE PUSH2 0x2120 DUP2 DUP6 PUSH2 0x1EE4 JUMP JUMPDEST SWAP1 POP DUP2 DUP2 SUB PUSH1 0x60 DUP4 ADD MSTORE PUSH2 0x2134 DUP2 DUP5 PUSH2 0x1EE4 JUMP JUMPDEST SWAP1 POP SWAP6 SWAP5 POP POP POP POP POP JUMP JUMPDEST PUSH1 0x0 PUSH1 0x20 DUP3 ADD SWAP1 POP PUSH2 0x2154 PUSH1 0x0 DUP4 ADD DUP5 PUSH2 0x2027 JUMP JUMPDEST SWAP3 SWAP2 POP POP JUMP JUMPDEST PUSH1 0x0 PUSH2 0x2164 PUSH2 0x2175 JUMP JUMPDEST SWAP1 POP PUSH2 0x2170 DUP3 DUP3 PUSH2 0x22F2 JUMP JUMPDEST SWAP2 SWAP1 POP JUMP JUMPDEST PUSH1 0x0 PUSH1 0x40 MLOAD SWAP1 POP SWAP1 JUMP JUMPDEST PUSH1 0x0 PUSH8 0xFFFFFFFFFFFFFFFF DUP3 GT ISZERO PUSH2 0x219A JUMPI PUSH2 0x2199 PUSH2 0x2381 JUMP JUMPDEST JUMPDEST PUSH1 0x20 DUP3 MUL SWAP1 POP PUSH1 0x20 DUP2 ADD SWAP1 POP SWAP2 SWAP1 POP JUMP JUMPDEST PUSH1 0x0 PUSH8 0xFFFFFFFFFFFFFFFF DUP3 GT ISZERO PUSH2 0x21C6 JUMPI PUSH2 0x21C5 PUSH2 0x2381 JUMP JUMPDEST JUMPDEST PUSH2 0x21CF DUP3 PUSH2 0x23C9 JUMP JUMPDEST SWAP1 POP PUSH1 0x20 DUP2 ADD SWAP1 POP SWAP2 SWAP1 POP JUMP JUMPDEST PUSH1 0x0 DUP2 SWAP1 POP PUSH1 0x20 DUP3 ADD SWAP1 POP SWAP2 SWAP1 POP JUMP JUMPDEST PUSH1 0x0 DUP2 MLOAD SWAP1 POP SWAP2 SWAP1 POP JUMP JUMPDEST PUSH1 0x0 DUP2 MLOAD SWAP1 POP SWAP2 SWAP1 POP JUMP JUMPDEST PUSH1 0x0 PUSH1 0x20 DUP3 ADD SWAP1 POP SWAP2 SWAP1 POP JUMP JUMPDEST PUSH1 0x0 DUP3 DUP3 MSTORE PUSH1 0x20 DUP3 ADD SWAP1 POP SWAP3 SWAP2 POP POP JUMP JUMPDEST PUSH1 0x0 DUP3 DUP3 MSTORE PUSH1 0x20 DUP3 ADD SWAP1 POP SWAP3 SWAP2 POP POP JUMP JUMPDEST PUSH1 0x0 DUP3 DUP3 MSTORE PUSH1 0x20 DUP3 ADD SWAP1 POP SWAP3 SWAP2 POP POP JUMP JUMPDEST PUSH1 0x0 PUSH2 0x224D DUP3 PUSH2 0x2254 JUMP JUMPDEST SWAP1 POP SWAP2 SWAP1 POP JUMP JUMPDEST PUSH1 0x0 PUSH20 0xFFFFFFFFFFFFFFFFFFFFFFFFFFFFFFFFFFFFFFFF DUP3 AND SWAP1 POP SWAP2 SWAP1 POP JUMP JUMPDEST PUSH1 0x0 DUP2 SWAP1 POP SWAP2 SWAP1 POP JUMP JUMPDEST DUP3 DUP2 DUP4 CALLDATACOPY PUSH1 0x0 DUP4 DUP4 ADD MSTORE POP POP POP JUMP JUMPDEST PUSH1 0x0 JUMPDEST DUP4 DUP2 LT ISZERO PUSH2 0x22AB JUMPI DUP1 DUP3 ADD MLOAD DUP2 DUP5 ADD MSTORE PUSH1 0x20 DUP2 ADD SWAP1 POP PUSH2 0x2290 JUMP JUMPDEST DUP4 DUP2 GT ISZERO PUSH2 0x22BA JUMPI PUSH1 0x0 DUP5 DUP5 ADD MSTORE JUMPDEST POP POP POP POP JUMP JUMPDEST PUSH1 0x0 PUSH1 0x2 DUP3 DIV SWAP1 POP PUSH1 0x1 DUP3 AND DUP1 PUSH2 0x22D8 JUMPI PUSH1 0x7F DUP3 AND SWAP2 POP JUMPDEST PUSH1 0x20 DUP3 LT DUP2 EQ ISZERO PUSH2 0x22EC JUMPI PUSH2 0x22EB PUSH2 0x2323 JUMP JUMPDEST JUMPDEST POP SWAP2 SWAP1 POP JUMP JUMPDEST PUSH2 0x22FB DUP3 PUSH2 0x23C9 JUMP JUMPDEST DUP2 ADD DUP2 DUP2 LT PUSH8 0xFFFFFFFFFFFFFFFF DUP3 GT OR ISZERO PUSH2 0x231A JUMPI PUSH2 0x2319 PUSH2 0x2381 JUMP JUMPDEST JUMPDEST DUP1 PUSH1 0x40 MSTORE POP POP POP JUMP JUMPDEST PUSH32 0x4E487B7100000000000000000000000000000000000000000000000000000000 PUSH1 0x0 MSTORE PUSH1 0x22 PUSH1 0x4 MSTORE PUSH1 0x24 PUSH1 0x0 REVERT JUMPDEST PUSH32 0x4E487B7100000000000000000000000000000000000000000000000000000000 PUSH1 0x0 MSTORE PUSH1 0x32 PUSH1 0x4 MSTORE PUSH1 0x24 PUSH1 0x0 REVERT JUMPDEST PUSH32 0x4E487B7100000000000000000000000000000000000000000000000000000000 PUSH1 0x0 MSTORE PUSH1 0x41 PUSH1 0x4 MSTORE PUSH1 0x24 PUSH1 0x0 REVERT JUMPDEST PUSH1 0x0 DUP1 REVERT JUMPDEST PUSH1 0x0 DUP1 REVERT JUMPDEST PUSH1 0x0 DUP1 REVERT JUMPDEST PUSH1 0x0 DUP1 REVERT JUMPDEST PUSH1 0x0 DUP1 REVERT JUMPDEST PUSH1 0x0 PUSH1 0x1F NOT PUSH1 0x1F DUP4 ADD AND SWAP1 POP SWAP2 SWAP1 POP JUMP JUMPDEST PUSH2 0x23E3 DUP2 PUSH2 0x2242 JUMP JUMPDEST DUP2 EQ PUSH2 0x23EE JUMPI PUSH1 0x0 DUP1 REVERT JUMPDEST POP JUMP JUMPDEST PUSH2 0x23FA DUP2 PUSH2 0x2274 JUMP JUMPDEST DUP2 EQ PUSH2 0x2405 JUMPI PUSH1 0x0 DUP1 REVERT JUMPDEST POP JUMP INVALID LOG2 PUSH5 0x6970667358 0x22 SLT KECCAK256 MSIZE 0xC1 0x4C DUP11 REVERT PUSH2 0xD21E 0xBB GASLIMIT 0xE8 0xFB ADDRESS SHL ORIGIN ADD SWAP9 PUSH27 0x8E68639DBA0B503D8C5E241E9A3864736F6C634300080700330000 "
				},
				"gasEstimates": {
					"creation": {
						"codeDepositCost": "1855600",
						"executionCost": "1955",
						"totalCost": "1857555"
					},
					"external": {
						"createBio(string,string,string,string)": "infinite",
						"createContract(string,string,string,string,string,string)": "infinite",
						"createSkill(string[],string[],string[])": "infinite",
						"createUnivercity(string,string,string,string)": "infinite",
						"delAllEducation()": "infinite",
						"delProfile()": "infinite",
						"getEducation(uint256)": "infinite",
						"getEducationCount()": "2563",
						"profile(address)": "infinite"
					}
				},
				"methodIdentifiers": {
					"createBio(string,string,string,string)": "8c241fc4",
					"createContract(string,string,string,string,string,string)": "7d64e0e4",
					"createSkill(string[],string[],string[])": "3d984d0e",
					"createUnivercity(string,string,string,string)": "9d983a01",
					"delAllEducation()": "ed2217ef",
					"delProfile()": "fabce08f",
					"getEducation(uint256)": "f96e32f8",
					"getEducationCount()": "6212fa02",
					"profile(address)": "9dd9d0fd"
				}
			},
			"storageLayout": {
				"storage": [
					{
						"astId": 29,
						"contract": "contracts/Profile.sol:Profile",
						"label": "profile",
						"offset": 0,
						"slot": "0",
						"type": "t_mapping(t_address,t_struct(Bio)24_storage)"
					}
				],
				"types": {
					"t_address": {
						"encoding": "inplace",
						"label": "address",
						"numberOfBytes": "20"
					},
					"t_array(t_string_storage)dyn_storage": {
						"base": "t_string_storage",
						"encoding": "dynamic_array",
						"label": "string[]",
						"numberOfBytes": "32"
					},
					"t_array(t_struct(Education)61_storage)dyn_storage": {
						"base": "t_struct(Education)61_storage",
						"encoding": "dynamic_array",
						"label": "struct Profile.Education[]",
						"numberOfBytes": "32"
					},
					"t_mapping(t_address,t_struct(Bio)24_storage)": {
						"encoding": "mapping",
						"key": "t_address",
						"label": "mapping(address => struct Profile.Bio)",
						"numberOfBytes": "32",
						"value": "t_struct(Bio)24_storage"
					},
					"t_string_storage": {
						"encoding": "bytes",
						"label": "string",
						"numberOfBytes": "32"
					},
					"t_struct(Bio)24_storage": {
						"encoding": "inplace",
						"label": "struct Profile.Bio",
						"members": [
							{
								"astId": 3,
								"contract": "contracts/Profile.sol:Profile",
								"label": "userAddress",
								"offset": 0,
								"slot": "0",
								"type": "t_address"
							},
							{
								"astId": 5,
								"contract": "contracts/Profile.sol:Profile",
								"label": "firstName",
								"offset": 0,
								"slot": "1",
								"type": "t_string_storage"
							},
							{
								"astId": 7,
								"contract": "contracts/Profile.sol:Profile",
								"label": "middleName",
								"offset": 0,
								"slot": "2",
								"type": "t_string_storage"
							},
							{
								"astId": 9,
								"contract": "contracts/Profile.sol:Profile",
								"label": "lastName",
								"offset": 0,
								"slot": "3",
								"type": "t_string_storage"
							},
							{
								"astId": 11,
								"contract": "contracts/Profile.sol:Profile",
								"label": "profileImage",
								"offset": 0,
								"slot": "4",
								"type": "t_string_storage"
							},
							{
								"astId": 13,
								"contract": "contracts/Profile.sol:Profile",
								"label": "createDate",
								"offset": 0,
								"slot": "5",
								"type": "t_uint256"
							},
							{
								"astId": 16,
								"contract": "contracts/Profile.sol:Profile",
								"label": "privateContract",
								"offset": 0,
								"slot": "6",
								"type": "t_struct(Contract)42_storage"
							},
							{
								"astId": 19,
								"contract": "contracts/Profile.sol:Profile",
								"label": "skill",
								"offset": 0,
								"slot": "12",
								"type": "t_struct(Skill)52_storage"
							},
							{
								"astId": 23,
								"contract": "contracts/Profile.sol:Profile",
								"label": "education",
								"offset": 0,
								"slot": "15",
								"type": "t_array(t_struct(Education)61_storage)dyn_storage"
							}
						],
						"numberOfBytes": "512"
					},
					"t_struct(Contract)42_storage": {
						"encoding": "inplace",
						"label": "struct Profile.Contract",
						"members": [
							{
								"astId": 31,
								"contract": "contracts/Profile.sol:Profile",
								"label": "aboutMe",
								"offset": 0,
								"slot": "0",
								"type": "t_string_storage"
							},
							{
								"astId": 33,
								"contract": "contracts/Profile.sol:Profile",
								"label": "email",
								"offset": 0,
								"slot": "1",
								"type": "t_string_storage"
							},
							{
								"astId": 35,
								"contract": "contracts/Profile.sol:Profile",
								"label": "phone",
								"offset": 0,
								"slot": "2",
								"type": "t_string_storage"
							},
							{
								"astId": 37,
								"contract": "contracts/Profile.sol:Profile",
								"label": "github",
								"offset": 0,
								"slot": "3",
								"type": "t_string_storage"
							},
							{
								"astId": 39,
								"contract": "contracts/Profile.sol:Profile",
								"label": "gitlab",
								"offset": 0,
								"slot": "4",
								"type": "t_string_storage"
							},
							{
								"astId": 41,
								"contract": "contracts/Profile.sol:Profile",
								"label": "linkin",
								"offset": 0,
								"slot": "5",
								"type": "t_string_storage"
							}
						],
						"numberOfBytes": "192"
					},
					"t_struct(Education)61_storage": {
						"encoding": "inplace",
						"label": "struct Profile.Education",
						"members": [
							{
								"astId": 54,
								"contract": "contracts/Profile.sol:Profile",
								"label": "startDate",
								"offset": 0,
								"slot": "0",
								"type": "t_string_storage"
							},
							{
								"astId": 56,
								"contract": "contracts/Profile.sol:Profile",
								"label": "endDate",
								"offset": 0,
								"slot": "1",
								"type": "t_string_storage"
							},
							{
								"astId": 58,
								"contract": "contracts/Profile.sol:Profile",
								"label": "univercity",
								"offset": 0,
								"slot": "2",
								"type": "t_string_storage"
							},
							{
								"astId": 60,
								"contract": "contracts/Profile.sol:Profile",
								"label": "major",
								"offset": 0,
								"slot": "3",
								"type": "t_string_storage"
							}
						],
						"numberOfBytes": "128"
					},
					"t_struct(Skill)52_storage": {
						"encoding": "inplace",
						"label": "struct Profile.Skill",
						"members": [
							{
								"astId": 45,
								"contract": "contracts/Profile.sol:Profile",
								"label": "programmingLanguages",
								"offset": 0,
								"slot": "0",
								"type": "t_array(t_string_storage)dyn_storage"
							},
							{
								"astId": 48,
								"contract": "contracts/Profile.sol:Profile",
								"label": "framework",
								"offset": 0,
								"slot": "1",
								"type": "t_array(t_string_storage)dyn_storage"
							},
							{
								"astId": 51,
								"contract": "contracts/Profile.sol:Profile",
								"label": "databaseAndOther",
								"offset": 0,
								"slot": "2",
								"type": "t_array(t_string_storage)dyn_storage"
							}
						],
						"numberOfBytes": "96"
					},
					"t_uint256": {
						"encoding": "inplace",
						"label": "uint256",
						"numberOfBytes": "32"
					}
				}
			},
			"userdoc": {
				"kind": "user",
				"methods": {},
				"version": 1
			}
		}
	}
}