{
	"contracts/Profile.sol": {
		"Profile": {
			"abi": [
				{
					"inputs": [
						{
							"internalType": "string",
							"name": "firstName",
							"type": "string"
						},
						{
							"internalType": "string",
							"name": "middleName",
							"type": "string"
						},
						{
							"internalType": "string",
							"name": "lastName",
							"type": "string"
						},
						{
							"internalType": "string",
							"name": "email",
							"type": "string"
						},
						{
							"internalType": "string",
							"name": "phone",
							"type": "string"
						}
					],
					"name": "addBio",
					"outputs": [],
					"stateMutability": "nonpayable",
					"type": "function"
				},
				{
					"inputs": [],
					"name": "getBio",
					"outputs": [
						{
							"components": [
								{
									"internalType": "string",
									"name": "firstName",
									"type": "string"
								},
								{
									"internalType": "string",
									"name": "middleName",
									"type": "string"
								},
								{
									"internalType": "string",
									"name": "lastName",
									"type": "string"
								},
								{
									"internalType": "string",
									"name": "email",
									"type": "string"
								},
								{
									"internalType": "string",
									"name": "phone",
									"type": "string"
								}
							],
							"internalType": "struct Profile.Bio",
							"name": "",
							"type": "tuple"
						}
					],
					"stateMutability": "view",
					"type": "function"
				}
			],
			"devdoc": {
				"kind": "dev",
				"methods": {},
				"version": 1
			},
			"evm": {
				"assembly": "    /* \"contracts/Profile.sol\":64:799  contract Profile {\r... */\n  mstore(0x40, 0x80)\n  callvalue\n  dup1\n  iszero\n  tag_1\n  jumpi\n  0x00\n  dup1\n  revert\ntag_1:\n  pop\n  dataSize(sub_0)\n  dup1\n  dataOffset(sub_0)\n  0x00\n  codecopy\n  0x00\n  return\nstop\n\nsub_0: assembly {\n        /* \"contracts/Profile.sol\":64:799  contract Profile {\r... */\n      mstore(0x40, 0x80)\n      callvalue\n      dup1\n      iszero\n      tag_1\n      jumpi\n      0x00\n      dup1\n      revert\n    tag_1:\n      pop\n      jumpi(tag_2, lt(calldatasize, 0x04))\n      shr(0xe0, calldataload(0x00))\n      dup1\n      0x3e0eb060\n      eq\n      tag_3\n      jumpi\n      dup1\n      0xfa165e8f\n      eq\n      tag_4\n      jumpi\n    tag_2:\n      0x00\n      dup1\n      revert\n        /* \"contracts/Profile.sol\":292:684  function addBio(string memory firstName, string memory middleName, string memory lastName, string memory email, string memory phone) public {\r... */\n    tag_3:\n      tag_5\n      0x04\n      dup1\n      calldatasize\n      sub\n      dup2\n      add\n      swap1\n      tag_6\n      swap2\n      swap1\n      tag_7\n      jump\t// in\n    tag_6:\n      tag_8\n      jump\t// in\n    tag_5:\n      stop\n        /* \"contracts/Profile.sol\":693:790  function getBio() public view returns(Bio memory ) {\r... */\n    tag_4:\n      tag_9\n      tag_10\n      jump\t// in\n    tag_9:\n      mload(0x40)\n      tag_11\n      swap2\n      swap1\n      tag_12\n      jump\t// in\n    tag_11:\n      mload(0x40)\n      dup1\n      swap2\n      sub\n      swap1\n      return\n        /* \"contracts/Profile.sol\":292:684  function addBio(string memory firstName, string memory middleName, string memory lastName, string memory email, string memory phone) public {\r... */\n    tag_8:\n        /* \"contracts/Profile.sol\":475:484  firstName */\n      dup5\n        /* \"contracts/Profile.sol\":443:450  profile */\n      0x00\n        /* \"contracts/Profile.sol\":443:462  profile[msg.sender] */\n      dup1\n        /* \"contracts/Profile.sol\":451:461  msg.sender */\n      caller\n        /* \"contracts/Profile.sol\":443:462  profile[msg.sender] */\n      0xffffffffffffffffffffffffffffffffffffffff\n      and\n      0xffffffffffffffffffffffffffffffffffffffff\n      and\n      dup2\n      mstore\n      0x20\n      add\n      swap1\n      dup2\n      mstore\n      0x20\n      add\n      0x00\n      keccak256\n        /* \"contracts/Profile.sol\":443:472  profile[msg.sender].firstName */\n      0x00\n      add\n        /* \"contracts/Profile.sol\":443:484  profile[msg.sender].firstName = firstName */\n      swap1\n      dup1\n      mload\n      swap1\n      0x20\n      add\n      swap1\n      tag_14\n      swap3\n      swap2\n      swap1\n      tag_15\n      jump\t// in\n    tag_14:\n      pop\n        /* \"contracts/Profile.sol\":528:538  middleName */\n      dup4\n        /* \"contracts/Profile.sol\":495:502  profile */\n      0x00\n        /* \"contracts/Profile.sol\":495:514  profile[msg.sender] */\n      dup1\n        /* \"contracts/Profile.sol\":503:513  msg.sender */\n      caller\n        /* \"contracts/Profile.sol\":495:514  profile[msg.sender] */\n      0xffffffffffffffffffffffffffffffffffffffff\n      and\n      0xffffffffffffffffffffffffffffffffffffffff\n      and\n      dup2\n      mstore\n      0x20\n      add\n      swap1\n      dup2\n      mstore\n      0x20\n      add\n      0x00\n      keccak256\n        /* \"contracts/Profile.sol\":495:525  profile[msg.sender].middleName */\n      0x01\n      add\n        /* \"contracts/Profile.sol\":495:538  profile[msg.sender].middleName = middleName */\n      swap1\n      dup1\n      mload\n      swap1\n      0x20\n      add\n      swap1\n      tag_16\n      swap3\n      swap2\n      swap1\n      tag_15\n      jump\t// in\n    tag_16:\n      pop\n        /* \"contracts/Profile.sol\":580:588  lastName */\n      dup3\n        /* \"contracts/Profile.sol\":549:556  profile */\n      0x00\n        /* \"contracts/Profile.sol\":549:568  profile[msg.sender] */\n      dup1\n        /* \"contracts/Profile.sol\":557:567  msg.sender */\n      caller\n        /* \"contracts/Profile.sol\":549:568  profile[msg.sender] */\n      0xffffffffffffffffffffffffffffffffffffffff\n      and\n      0xffffffffffffffffffffffffffffffffffffffff\n      and\n      dup2\n      mstore\n      0x20\n      add\n      swap1\n      dup2\n      mstore\n      0x20\n      add\n      0x00\n      keccak256\n        /* \"contracts/Profile.sol\":549:577  profile[msg.sender].lastName */\n      0x02\n      add\n        /* \"contracts/Profile.sol\":549:588  profile[msg.sender].lastName = lastName */\n      swap1\n      dup1\n      mload\n      swap1\n      0x20\n      add\n      swap1\n      tag_17\n      swap3\n      swap2\n      swap1\n      tag_15\n      jump\t// in\n    tag_17:\n      pop\n        /* \"contracts/Profile.sol\":627:632  email */\n      dup2\n        /* \"contracts/Profile.sol\":599:606  profile */\n      0x00\n        /* \"contracts/Profile.sol\":599:618  profile[msg.sender] */\n      dup1\n        /* \"contracts/Profile.sol\":607:617  msg.sender */\n      caller\n        /* \"contracts/Profile.sol\":599:618  profile[msg.sender] */\n      0xffffffffffffffffffffffffffffffffffffffff\n      and\n      0xffffffffffffffffffffffffffffffffffffffff\n      and\n      dup2\n      mstore\n      0x20\n      add\n      swap1\n      dup2\n      mstore\n      0x20\n      add\n      0x00\n      keccak256\n        /* \"contracts/Profile.sol\":599:624  profile[msg.sender].email */\n      0x03\n      add\n        /* \"contracts/Profile.sol\":599:632  profile[msg.sender].email = email */\n      swap1\n      dup1\n      mload\n      swap1\n      0x20\n      add\n      swap1\n      tag_18\n      swap3\n      swap2\n      swap1\n      tag_15\n      jump\t// in\n    tag_18:\n      pop\n        /* \"contracts/Profile.sol\":671:676  phone */\n      dup1\n        /* \"contracts/Profile.sol\":643:650  profile */\n      0x00\n        /* \"contracts/Profile.sol\":643:662  profile[msg.sender] */\n      dup1\n        /* \"contracts/Profile.sol\":651:661  msg.sender */\n      caller\n        /* \"contracts/Profile.sol\":643:662  profile[msg.sender] */\n      0xffffffffffffffffffffffffffffffffffffffff\n      and\n      0xffffffffffffffffffffffffffffffffffffffff\n      and\n      dup2\n      mstore\n      0x20\n      add\n      swap1\n      dup2\n      mstore\n      0x20\n      add\n      0x00\n      keccak256\n        /* \"contracts/Profile.sol\":643:668  profile[msg.sender].phone */\n      0x04\n      add\n        /* \"contracts/Profile.sol\":643:676  profile[msg.sender].phone = phone */\n      swap1\n      dup1\n      mload\n      swap1\n      0x20\n      add\n      swap1\n      tag_19\n      swap3\n      swap2\n      swap1\n      tag_15\n      jump\t// in\n    tag_19:\n      pop\n        /* \"contracts/Profile.sol\":292:684  function addBio(string memory firstName, string memory middleName, string memory lastName, string memory email, string memory phone) public {\r... */\n      pop\n      pop\n      pop\n      pop\n      pop\n      jump\t// out\n        /* \"contracts/Profile.sol\":693:790  function getBio() public view returns(Bio memory ) {\r... */\n    tag_10:\n        /* \"contracts/Profile.sol\":731:741  Bio memory */\n      tag_20\n      tag_21\n      jump\t// in\n    tag_20:\n        /* \"contracts/Profile.sol\":763:770  profile */\n      0x00\n        /* \"contracts/Profile.sol\":763:782  profile[msg.sender] */\n      dup1\n        /* \"contracts/Profile.sol\":771:781  msg.sender */\n      caller\n        /* \"contracts/Profile.sol\":763:782  profile[msg.sender] */\n      0xffffffffffffffffffffffffffffffffffffffff\n      and\n      0xffffffffffffffffffffffffffffffffffffffff\n      and\n      dup2\n      mstore\n      0x20\n      add\n      swap1\n      dup2\n      mstore\n      0x20\n      add\n      0x00\n      keccak256\n        /* \"contracts/Profile.sol\":755:782  return  profile[msg.sender] */\n      mload(0x40)\n      dup1\n      0xa0\n      add\n      0x40\n      mstore\n      swap1\n      dup2\n      0x00\n      dup3\n      add\n      dup1\n      sload\n      tag_23\n      swap1\n      tag_24\n      jump\t// in\n    tag_23:\n      dup1\n      0x1f\n      add\n      0x20\n      dup1\n      swap2\n      div\n      mul\n      0x20\n      add\n      mload(0x40)\n      swap1\n      dup2\n      add\n      0x40\n      mstore\n      dup1\n      swap3\n      swap2\n      swap1\n      dup2\n      dup2\n      mstore\n      0x20\n      add\n      dup3\n      dup1\n      sload\n      tag_25\n      swap1\n      tag_24\n      jump\t// in\n    tag_25:\n      dup1\n      iszero\n      tag_26\n      jumpi\n      dup1\n      0x1f\n      lt\n      tag_27\n      jumpi\n      0x0100\n      dup1\n      dup4\n      sload\n      div\n      mul\n      dup4\n      mstore\n      swap2\n      0x20\n      add\n      swap2\n      jump(tag_26)\n    tag_27:\n      dup3\n      add\n      swap2\n      swap1\n      0x00\n      mstore\n      keccak256(0x00, 0x20)\n      swap1\n    tag_28:\n      dup2\n      sload\n      dup2\n      mstore\n      swap1\n      0x01\n      add\n      swap1\n      0x20\n      add\n      dup1\n      dup4\n      gt\n      tag_28\n      jumpi\n      dup3\n      swap1\n      sub\n      0x1f\n      and\n      dup3\n      add\n      swap2\n    tag_26:\n      pop\n      pop\n      pop\n      pop\n      pop\n      dup2\n      mstore\n      0x20\n      add\n      0x01\n      dup3\n      add\n      dup1\n      sload\n      tag_29\n      swap1\n      tag_24\n      jump\t// in\n    tag_29:\n      dup1\n      0x1f\n      add\n      0x20\n      dup1\n      swap2\n      div\n      mul\n      0x20\n      add\n      mload(0x40)\n      swap1\n      dup2\n      add\n      0x40\n      mstore\n      dup1\n      swap3\n      swap2\n      swap1\n      dup2\n      dup2\n      mstore\n      0x20\n      add\n      dup3\n      dup1\n      sload\n      tag_30\n      swap1\n      tag_24\n      jump\t// in\n    tag_30:\n      dup1\n      iszero\n      tag_31\n      jumpi\n      dup1\n      0x1f\n      lt\n      tag_32\n      jumpi\n      0x0100\n      dup1\n      dup4\n      sload\n      div\n      mul\n      dup4\n      mstore\n      swap2\n      0x20\n      add\n      swap2\n      jump(tag_31)\n    tag_32:\n      dup3\n      add\n      swap2\n      swap1\n      0x00\n      mstore\n      keccak256(0x00, 0x20)\n      swap1\n    tag_33:\n      dup2\n      sload\n      dup2\n      mstore\n      swap1\n      0x01\n      add\n      swap1\n      0x20\n      add\n      dup1\n      dup4\n      gt\n      tag_33\n      jumpi\n      dup3\n      swap1\n      sub\n      0x1f\n      and\n      dup3\n      add\n      swap2\n    tag_31:\n      pop\n      pop\n      pop\n      pop\n      pop\n      dup2\n      mstore\n      0x20\n      add\n      0x02\n      dup3\n      add\n      dup1\n      sload\n      tag_34\n      swap1\n      tag_24\n      jump\t// in\n    tag_34:\n      dup1\n      0x1f\n      add\n      0x20\n      dup1\n      swap2\n      div\n      mul\n      0x20\n      add\n      mload(0x40)\n      swap1\n      dup2\n      add\n      0x40\n      mstore\n      dup1\n      swap3\n      swap2\n      swap1\n      dup2\n      dup2\n      mstore\n      0x20\n      add\n      dup3\n      dup1\n      sload\n      tag_35\n      swap1\n      tag_24\n      jump\t// in\n    tag_35:\n      dup1\n      iszero\n      tag_36\n      jumpi\n      dup1\n      0x1f\n      lt\n      tag_37\n      jumpi\n      0x0100\n      dup1\n      dup4\n      sload\n      div\n      mul\n      dup4\n      mstore\n      swap2\n      0x20\n      add\n      swap2\n      jump(tag_36)\n    tag_37:\n      dup3\n      add\n      swap2\n      swap1\n      0x00\n      mstore\n      keccak256(0x00, 0x20)\n      swap1\n    tag_38:\n      dup2\n      sload\n      dup2\n      mstore\n      swap1\n      0x01\n      add\n      swap1\n      0x20\n      add\n      dup1\n      dup4\n      gt\n      tag_38\n      jumpi\n      dup3\n      swap1\n      sub\n      0x1f\n      and\n      dup3\n      add\n      swap2\n    tag_36:\n      pop\n      pop\n      pop\n      pop\n      pop\n      dup2\n      mstore\n      0x20\n      add\n      0x03\n      dup3\n      add\n      dup1\n      sload\n      tag_39\n      swap1\n      tag_24\n      jump\t// in\n    tag_39:\n      dup1\n      0x1f\n      add\n      0x20\n      dup1\n      swap2\n      div\n      mul\n      0x20\n      add\n      mload(0x40)\n      swap1\n      dup2\n      add\n      0x40\n      mstore\n      dup1\n      swap3\n      swap2\n      swap1\n      dup2\n      dup2\n      mstore\n      0x20\n      add\n      dup3\n      dup1\n      sload\n      tag_40\n      swap1\n      tag_24\n      jump\t// in\n    tag_40:\n      dup1\n      iszero\n      tag_41\n      jumpi\n      dup1\n      0x1f\n      lt\n      tag_42\n      jumpi\n      0x0100\n      dup1\n      dup4\n      sload\n      div\n      mul\n      dup4\n      mstore\n      swap2\n      0x20\n      add\n      swap2\n      jump(tag_41)\n    tag_42:\n      dup3\n      add\n      swap2\n      swap1\n      0x00\n      mstore\n      keccak256(0x00, 0x20)\n      swap1\n    tag_43:\n      dup2\n      sload\n      dup2\n      mstore\n      swap1\n      0x01\n      add\n      swap1\n      0x20\n      add\n      dup1\n      dup4\n      gt\n      tag_43\n      jumpi\n      dup3\n      swap1\n      sub\n      0x1f\n      and\n      dup3\n      add\n      swap2\n    tag_41:\n      pop\n      pop\n      pop\n      pop\n      pop\n      dup2\n      mstore\n      0x20\n      add\n      0x04\n      dup3\n      add\n      dup1\n      sload\n      tag_44\n      swap1\n      tag_24\n      jump\t// in\n    tag_44:\n      dup1\n      0x1f\n      add\n      0x20\n      dup1\n      swap2\n      div\n      mul\n      0x20\n      add\n      mload(0x40)\n      swap1\n      dup2\n      add\n      0x40\n      mstore\n      dup1\n      swap3\n      swap2\n      swap1\n      dup2\n      dup2\n      mstore\n      0x20\n      add\n      dup3\n      dup1\n      sload\n      tag_45\n      swap1\n      tag_24\n      jump\t// in\n    tag_45:\n      dup1\n      iszero\n      tag_46\n      jumpi\n      dup1\n      0x1f\n      lt\n      tag_47\n      jumpi\n      0x0100\n      dup1\n      dup4\n      sload\n      div\n      mul\n      dup4\n      mstore\n      swap2\n      0x20\n      add\n      swap2\n      jump(tag_46)\n    tag_47:\n      dup3\n      add\n      swap2\n      swap1\n      0x00\n      mstore\n      keccak256(0x00, 0x20)\n      swap1\n    tag_48:\n      dup2\n      sload\n      dup2\n      mstore\n      swap1\n      0x01\n      add\n      swap1\n      0x20\n      add\n      dup1\n      dup4\n      gt\n      tag_48\n      jumpi\n      dup3\n      swap1\n      sub\n      0x1f\n      and\n      dup3\n      add\n      swap2\n    tag_46:\n      pop\n      pop\n      pop\n      pop\n      pop\n      dup2\n      mstore\n      pop\n      pop\n      swap1\n      pop\n        /* \"contracts/Profile.sol\":693:790  function getBio() public view returns(Bio memory ) {\r... */\n      swap1\n      jump\t// out\n    tag_15:\n      dup3\n      dup1\n      sload\n      tag_49\n      swap1\n      tag_24\n      jump\t// in\n    tag_49:\n      swap1\n      0x00\n      mstore\n      keccak256(0x00, 0x20)\n      swap1\n      0x1f\n      add\n      0x20\n      swap1\n      div\n      dup2\n      add\n      swap3\n      dup3\n      tag_51\n      jumpi\n      0x00\n      dup6\n      sstore\n      jump(tag_50)\n    tag_51:\n      dup3\n      0x1f\n      lt\n      tag_52\n      jumpi\n      dup1\n      mload\n      not(0xff)\n      and\n      dup4\n      dup1\n      add\n      or\n      dup6\n      sstore\n      jump(tag_50)\n    tag_52:\n      dup3\n      dup1\n      add\n      0x01\n      add\n      dup6\n      sstore\n      dup3\n      iszero\n      tag_50\n      jumpi\n      swap2\n      dup3\n      add\n    tag_53:\n      dup3\n      dup2\n      gt\n      iszero\n      tag_54\n      jumpi\n      dup3\n      mload\n      dup3\n      sstore\n      swap2\n      0x20\n      add\n      swap2\n      swap1\n      0x01\n      add\n      swap1\n      jump(tag_53)\n    tag_54:\n    tag_50:\n      pop\n      swap1\n      pop\n      tag_55\n      swap2\n      swap1\n      tag_56\n      jump\t// in\n    tag_55:\n      pop\n      swap1\n      jump\t// out\n    tag_21:\n      mload(0x40)\n      dup1\n      0xa0\n      add\n      0x40\n      mstore\n      dup1\n      0x60\n      dup2\n      mstore\n      0x20\n      add\n      0x60\n      dup2\n      mstore\n      0x20\n      add\n      0x60\n      dup2\n      mstore\n      0x20\n      add\n      0x60\n      dup2\n      mstore\n      0x20\n      add\n      0x60\n      dup2\n      mstore\n      pop\n      swap1\n      jump\t// out\n    tag_56:\n    tag_57:\n      dup1\n      dup3\n      gt\n      iszero\n      tag_58\n      jumpi\n      0x00\n      dup2\n      0x00\n      swap1\n      sstore\n      pop\n      0x01\n      add\n      jump(tag_57)\n    tag_58:\n      pop\n      swap1\n      jump\t// out\n        /* \"#utility.yul\":7:419   */\n    tag_60:\n        /* \"#utility.yul\":85:90   */\n      0x00\n        /* \"#utility.yul\":110:176   */\n      tag_62\n        /* \"#utility.yul\":126:175   */\n      tag_63\n        /* \"#utility.yul\":168:174   */\n      dup5\n        /* \"#utility.yul\":126:175   */\n      tag_64\n      jump\t// in\n    tag_63:\n        /* \"#utility.yul\":110:176   */\n      tag_65\n      jump\t// in\n    tag_62:\n        /* \"#utility.yul\":101:176   */\n      swap1\n      pop\n        /* \"#utility.yul\":199:205   */\n      dup3\n        /* \"#utility.yul\":192:197   */\n      dup2\n        /* \"#utility.yul\":185:206   */\n      mstore\n        /* \"#utility.yul\":237:241   */\n      0x20\n        /* \"#utility.yul\":230:235   */\n      dup2\n        /* \"#utility.yul\":226:242   */\n      add\n        /* \"#utility.yul\":275:278   */\n      dup5\n        /* \"#utility.yul\":266:272   */\n      dup5\n        /* \"#utility.yul\":261:264   */\n      dup5\n        /* \"#utility.yul\":257:273   */\n      add\n        /* \"#utility.yul\":254:279   */\n      gt\n        /* \"#utility.yul\":251:363   */\n      iszero\n      tag_66\n      jumpi\n        /* \"#utility.yul\":282:361   */\n      tag_67\n      tag_68\n      jump\t// in\n    tag_67:\n        /* \"#utility.yul\":251:363   */\n    tag_66:\n        /* \"#utility.yul\":372:413   */\n      tag_69\n        /* \"#utility.yul\":406:412   */\n      dup5\n        /* \"#utility.yul\":401:404   */\n      dup3\n        /* \"#utility.yul\":396:399   */\n      dup6\n        /* \"#utility.yul\":372:413   */\n      tag_70\n      jump\t// in\n    tag_69:\n        /* \"#utility.yul\":91:419   */\n      pop\n        /* \"#utility.yul\":7:419   */\n      swap4\n      swap3\n      pop\n      pop\n      pop\n      jump\t// out\n        /* \"#utility.yul\":439:779   */\n    tag_71:\n        /* \"#utility.yul\":495:500   */\n      0x00\n        /* \"#utility.yul\":544:547   */\n      dup3\n        /* \"#utility.yul\":537:541   */\n      0x1f\n        /* \"#utility.yul\":529:535   */\n      dup4\n        /* \"#utility.yul\":525:542   */\n      add\n        /* \"#utility.yul\":521:548   */\n      slt\n        /* \"#utility.yul\":511:633   */\n      tag_73\n      jumpi\n        /* \"#utility.yul\":552:631   */\n      tag_74\n      tag_75\n      jump\t// in\n    tag_74:\n        /* \"#utility.yul\":511:633   */\n    tag_73:\n        /* \"#utility.yul\":669:675   */\n      dup2\n        /* \"#utility.yul\":656:676   */\n      calldataload\n        /* \"#utility.yul\":694:773   */\n      tag_76\n        /* \"#utility.yul\":769:772   */\n      dup5\n        /* \"#utility.yul\":761:767   */\n      dup3\n        /* \"#utility.yul\":754:758   */\n      0x20\n        /* \"#utility.yul\":746:752   */\n      dup7\n        /* \"#utility.yul\":742:759   */\n      add\n        /* \"#utility.yul\":694:773   */\n      tag_60\n      jump\t// in\n    tag_76:\n        /* \"#utility.yul\":685:773   */\n      swap2\n      pop\n        /* \"#utility.yul\":501:779   */\n      pop\n        /* \"#utility.yul\":439:779   */\n      swap3\n      swap2\n      pop\n      pop\n      jump\t// out\n        /* \"#utility.yul\":785:2596   */\n    tag_7:\n        /* \"#utility.yul\":930:936   */\n      0x00\n        /* \"#utility.yul\":938:944   */\n      dup1\n        /* \"#utility.yul\":946:952   */\n      0x00\n        /* \"#utility.yul\":954:960   */\n      dup1\n        /* \"#utility.yul\":962:968   */\n      0x00\n        /* \"#utility.yul\":1011:1014   */\n      0xa0\n        /* \"#utility.yul\":999:1008   */\n      dup7\n        /* \"#utility.yul\":990:997   */\n      dup9\n        /* \"#utility.yul\":986:1009   */\n      sub\n        /* \"#utility.yul\":982:1015   */\n      slt\n        /* \"#utility.yul\":979:1099   */\n      iszero\n      tag_78\n      jumpi\n        /* \"#utility.yul\":1018:1097   */\n      tag_79\n      tag_80\n      jump\t// in\n    tag_79:\n        /* \"#utility.yul\":979:1099   */\n    tag_78:\n        /* \"#utility.yul\":1166:1167   */\n      0x00\n        /* \"#utility.yul\":1155:1164   */\n      dup7\n        /* \"#utility.yul\":1151:1168   */\n      add\n        /* \"#utility.yul\":1138:1169   */\n      calldataload\n        /* \"#utility.yul\":1196:1214   */\n      0xffffffffffffffff\n        /* \"#utility.yul\":1188:1194   */\n      dup2\n        /* \"#utility.yul\":1185:1215   */\n      gt\n        /* \"#utility.yul\":1182:1299   */\n      iszero\n      tag_81\n      jumpi\n        /* \"#utility.yul\":1218:1297   */\n      tag_82\n      tag_83\n      jump\t// in\n    tag_82:\n        /* \"#utility.yul\":1182:1299   */\n    tag_81:\n        /* \"#utility.yul\":1323:1386   */\n      tag_84\n        /* \"#utility.yul\":1378:1385   */\n      dup9\n        /* \"#utility.yul\":1369:1375   */\n      dup3\n        /* \"#utility.yul\":1358:1367   */\n      dup10\n        /* \"#utility.yul\":1354:1376   */\n      add\n        /* \"#utility.yul\":1323:1386   */\n      tag_71\n      jump\t// in\n    tag_84:\n        /* \"#utility.yul\":1313:1386   */\n      swap6\n      pop\n        /* \"#utility.yul\":1109:1396   */\n      pop\n        /* \"#utility.yul\":1463:1465   */\n      0x20\n        /* \"#utility.yul\":1452:1461   */\n      dup7\n        /* \"#utility.yul\":1448:1466   */\n      add\n        /* \"#utility.yul\":1435:1467   */\n      calldataload\n        /* \"#utility.yul\":1494:1512   */\n      0xffffffffffffffff\n        /* \"#utility.yul\":1486:1492   */\n      dup2\n        /* \"#utility.yul\":1483:1513   */\n      gt\n        /* \"#utility.yul\":1480:1597   */\n      iszero\n      tag_85\n      jumpi\n        /* \"#utility.yul\":1516:1595   */\n      tag_86\n      tag_83\n      jump\t// in\n    tag_86:\n        /* \"#utility.yul\":1480:1597   */\n    tag_85:\n        /* \"#utility.yul\":1621:1684   */\n      tag_87\n        /* \"#utility.yul\":1676:1683   */\n      dup9\n        /* \"#utility.yul\":1667:1673   */\n      dup3\n        /* \"#utility.yul\":1656:1665   */\n      dup10\n        /* \"#utility.yul\":1652:1674   */\n      add\n        /* \"#utility.yul\":1621:1684   */\n      tag_71\n      jump\t// in\n    tag_87:\n        /* \"#utility.yul\":1611:1684   */\n      swap5\n      pop\n        /* \"#utility.yul\":1406:1694   */\n      pop\n        /* \"#utility.yul\":1761:1763   */\n      0x40\n        /* \"#utility.yul\":1750:1759   */\n      dup7\n        /* \"#utility.yul\":1746:1764   */\n      add\n        /* \"#utility.yul\":1733:1765   */\n      calldataload\n        /* \"#utility.yul\":1792:1810   */\n      0xffffffffffffffff\n        /* \"#utility.yul\":1784:1790   */\n      dup2\n        /* \"#utility.yul\":1781:1811   */\n      gt\n        /* \"#utility.yul\":1778:1895   */\n      iszero\n      tag_88\n      jumpi\n        /* \"#utility.yul\":1814:1893   */\n      tag_89\n      tag_83\n      jump\t// in\n    tag_89:\n        /* \"#utility.yul\":1778:1895   */\n    tag_88:\n        /* \"#utility.yul\":1919:1982   */\n      tag_90\n        /* \"#utility.yul\":1974:1981   */\n      dup9\n        /* \"#utility.yul\":1965:1971   */\n      dup3\n        /* \"#utility.yul\":1954:1963   */\n      dup10\n        /* \"#utility.yul\":1950:1972   */\n      add\n        /* \"#utility.yul\":1919:1982   */\n      tag_71\n      jump\t// in\n    tag_90:\n        /* \"#utility.yul\":1909:1982   */\n      swap4\n      pop\n        /* \"#utility.yul\":1704:1992   */\n      pop\n        /* \"#utility.yul\":2059:2061   */\n      0x60\n        /* \"#utility.yul\":2048:2057   */\n      dup7\n        /* \"#utility.yul\":2044:2062   */\n      add\n        /* \"#utility.yul\":2031:2063   */\n      calldataload\n        /* \"#utility.yul\":2090:2108   */\n      0xffffffffffffffff\n        /* \"#utility.yul\":2082:2088   */\n      dup2\n        /* \"#utility.yul\":2079:2109   */\n      gt\n        /* \"#utility.yul\":2076:2193   */\n      iszero\n      tag_91\n      jumpi\n        /* \"#utility.yul\":2112:2191   */\n      tag_92\n      tag_83\n      jump\t// in\n    tag_92:\n        /* \"#utility.yul\":2076:2193   */\n    tag_91:\n        /* \"#utility.yul\":2217:2280   */\n      tag_93\n        /* \"#utility.yul\":2272:2279   */\n      dup9\n        /* \"#utility.yul\":2263:2269   */\n      dup3\n        /* \"#utility.yul\":2252:2261   */\n      dup10\n        /* \"#utility.yul\":2248:2270   */\n      add\n        /* \"#utility.yul\":2217:2280   */\n      tag_71\n      jump\t// in\n    tag_93:\n        /* \"#utility.yul\":2207:2280   */\n      swap3\n      pop\n        /* \"#utility.yul\":2002:2290   */\n      pop\n        /* \"#utility.yul\":2357:2360   */\n      0x80\n        /* \"#utility.yul\":2346:2355   */\n      dup7\n        /* \"#utility.yul\":2342:2361   */\n      add\n        /* \"#utility.yul\":2329:2362   */\n      calldataload\n        /* \"#utility.yul\":2389:2407   */\n      0xffffffffffffffff\n        /* \"#utility.yul\":2381:2387   */\n      dup2\n        /* \"#utility.yul\":2378:2408   */\n      gt\n        /* \"#utility.yul\":2375:2492   */\n      iszero\n      tag_94\n      jumpi\n        /* \"#utility.yul\":2411:2490   */\n      tag_95\n      tag_83\n      jump\t// in\n    tag_95:\n        /* \"#utility.yul\":2375:2492   */\n    tag_94:\n        /* \"#utility.yul\":2516:2579   */\n      tag_96\n        /* \"#utility.yul\":2571:2578   */\n      dup9\n        /* \"#utility.yul\":2562:2568   */\n      dup3\n        /* \"#utility.yul\":2551:2560   */\n      dup10\n        /* \"#utility.yul\":2547:2569   */\n      add\n        /* \"#utility.yul\":2516:2579   */\n      tag_71\n      jump\t// in\n    tag_96:\n        /* \"#utility.yul\":2506:2579   */\n      swap2\n      pop\n        /* \"#utility.yul\":2300:2589   */\n      pop\n        /* \"#utility.yul\":785:2596   */\n      swap3\n      swap6\n      pop\n      swap3\n      swap6\n      swap1\n      swap4\n      pop\n      jump\t// out\n        /* \"#utility.yul\":2602:2946   */\n    tag_97:\n        /* \"#utility.yul\":2680:2683   */\n      0x00\n        /* \"#utility.yul\":2708:2747   */\n      tag_99\n        /* \"#utility.yul\":2741:2746   */\n      dup3\n        /* \"#utility.yul\":2708:2747   */\n      tag_100\n      jump\t// in\n    tag_99:\n        /* \"#utility.yul\":2763:2824   */\n      tag_101\n        /* \"#utility.yul\":2817:2823   */\n      dup2\n        /* \"#utility.yul\":2812:2815   */\n      dup6\n        /* \"#utility.yul\":2763:2824   */\n      tag_102\n      jump\t// in\n    tag_101:\n        /* \"#utility.yul\":2756:2824   */\n      swap4\n      pop\n        /* \"#utility.yul\":2833:2885   */\n      tag_103\n        /* \"#utility.yul\":2878:2884   */\n      dup2\n        /* \"#utility.yul\":2873:2876   */\n      dup6\n        /* \"#utility.yul\":2866:2870   */\n      0x20\n        /* \"#utility.yul\":2859:2864   */\n      dup7\n        /* \"#utility.yul\":2855:2871   */\n      add\n        /* \"#utility.yul\":2833:2885   */\n      tag_104\n      jump\t// in\n    tag_103:\n        /* \"#utility.yul\":2910:2939   */\n      tag_105\n        /* \"#utility.yul\":2932:2938   */\n      dup2\n        /* \"#utility.yul\":2910:2939   */\n      tag_106\n      jump\t// in\n    tag_105:\n        /* \"#utility.yul\":2905:2908   */\n      dup5\n        /* \"#utility.yul\":2901:2940   */\n      add\n        /* \"#utility.yul\":2894:2940   */\n      swap2\n      pop\n        /* \"#utility.yul\":2684:2946   */\n      pop\n        /* \"#utility.yul\":2602:2946   */\n      swap3\n      swap2\n      pop\n      pop\n      jump\t// out\n        /* \"#utility.yul\":3000:4417   */\n    tag_107:\n        /* \"#utility.yul\":3107:3110   */\n      0x00\n        /* \"#utility.yul\":3143:3147   */\n      0xa0\n        /* \"#utility.yul\":3138:3141   */\n      dup4\n        /* \"#utility.yul\":3134:3148   */\n      add\n        /* \"#utility.yul\":3235:3239   */\n      0x00\n        /* \"#utility.yul\":3228:3233   */\n      dup4\n        /* \"#utility.yul\":3224:3240   */\n      add\n        /* \"#utility.yul\":3218:3241   */\n      mload\n        /* \"#utility.yul\":3288:3291   */\n      dup5\n        /* \"#utility.yul\":3282:3286   */\n      dup3\n        /* \"#utility.yul\":3278:3292   */\n      sub\n        /* \"#utility.yul\":3271:3275   */\n      0x00\n        /* \"#utility.yul\":3266:3269   */\n      dup7\n        /* \"#utility.yul\":3262:3276   */\n      add\n        /* \"#utility.yul\":3255:3293   */\n      mstore\n        /* \"#utility.yul\":3314:3387   */\n      tag_109\n        /* \"#utility.yul\":3382:3386   */\n      dup3\n        /* \"#utility.yul\":3368:3380   */\n      dup3\n        /* \"#utility.yul\":3314:3387   */\n      tag_97\n      jump\t// in\n    tag_109:\n        /* \"#utility.yul\":3306:3387   */\n      swap2\n      pop\n        /* \"#utility.yul\":3158:3398   */\n      pop\n        /* \"#utility.yul\":3486:3490   */\n      0x20\n        /* \"#utility.yul\":3479:3484   */\n      dup4\n        /* \"#utility.yul\":3475:3491   */\n      add\n        /* \"#utility.yul\":3469:3492   */\n      mload\n        /* \"#utility.yul\":3539:3542   */\n      dup5\n        /* \"#utility.yul\":3533:3537   */\n      dup3\n        /* \"#utility.yul\":3529:3543   */\n      sub\n        /* \"#utility.yul\":3522:3526   */\n      0x20\n        /* \"#utility.yul\":3517:3520   */\n      dup7\n        /* \"#utility.yul\":3513:3527   */\n      add\n        /* \"#utility.yul\":3506:3544   */\n      mstore\n        /* \"#utility.yul\":3565:3638   */\n      tag_110\n        /* \"#utility.yul\":3633:3637   */\n      dup3\n        /* \"#utility.yul\":3619:3631   */\n      dup3\n        /* \"#utility.yul\":3565:3638   */\n      tag_97\n      jump\t// in\n    tag_110:\n        /* \"#utility.yul\":3557:3638   */\n      swap2\n      pop\n        /* \"#utility.yul\":3408:3649   */\n      pop\n        /* \"#utility.yul\":3735:3739   */\n      0x40\n        /* \"#utility.yul\":3728:3733   */\n      dup4\n        /* \"#utility.yul\":3724:3740   */\n      add\n        /* \"#utility.yul\":3718:3741   */\n      mload\n        /* \"#utility.yul\":3788:3791   */\n      dup5\n        /* \"#utility.yul\":3782:3786   */\n      dup3\n        /* \"#utility.yul\":3778:3792   */\n      sub\n        /* \"#utility.yul\":3771:3775   */\n      0x40\n        /* \"#utility.yul\":3766:3769   */\n      dup7\n        /* \"#utility.yul\":3762:3776   */\n      add\n        /* \"#utility.yul\":3755:3793   */\n      mstore\n        /* \"#utility.yul\":3814:3887   */\n      tag_111\n        /* \"#utility.yul\":3882:3886   */\n      dup3\n        /* \"#utility.yul\":3868:3880   */\n      dup3\n        /* \"#utility.yul\":3814:3887   */\n      tag_97\n      jump\t// in\n    tag_111:\n        /* \"#utility.yul\":3806:3887   */\n      swap2\n      pop\n        /* \"#utility.yul\":3659:3898   */\n      pop\n        /* \"#utility.yul\":3981:3985   */\n      0x60\n        /* \"#utility.yul\":3974:3979   */\n      dup4\n        /* \"#utility.yul\":3970:3986   */\n      add\n        /* \"#utility.yul\":3964:3987   */\n      mload\n        /* \"#utility.yul\":4034:4037   */\n      dup5\n        /* \"#utility.yul\":4028:4032   */\n      dup3\n        /* \"#utility.yul\":4024:4038   */\n      sub\n        /* \"#utility.yul\":4017:4021   */\n      0x60\n        /* \"#utility.yul\":4012:4015   */\n      dup7\n        /* \"#utility.yul\":4008:4022   */\n      add\n        /* \"#utility.yul\":4001:4039   */\n      mstore\n        /* \"#utility.yul\":4060:4133   */\n      tag_112\n        /* \"#utility.yul\":4128:4132   */\n      dup3\n        /* \"#utility.yul\":4114:4126   */\n      dup3\n        /* \"#utility.yul\":4060:4133   */\n      tag_97\n      jump\t// in\n    tag_112:\n        /* \"#utility.yul\":4052:4133   */\n      swap2\n      pop\n        /* \"#utility.yul\":3908:4144   */\n      pop\n        /* \"#utility.yul\":4227:4231   */\n      0x80\n        /* \"#utility.yul\":4220:4225   */\n      dup4\n        /* \"#utility.yul\":4216:4232   */\n      add\n        /* \"#utility.yul\":4210:4233   */\n      mload\n        /* \"#utility.yul\":4280:4283   */\n      dup5\n        /* \"#utility.yul\":4274:4278   */\n      dup3\n        /* \"#utility.yul\":4270:4284   */\n      sub\n        /* \"#utility.yul\":4263:4267   */\n      0x80\n        /* \"#utility.yul\":4258:4261   */\n      dup7\n        /* \"#utility.yul\":4254:4268   */\n      add\n        /* \"#utility.yul\":4247:4285   */\n      mstore\n        /* \"#utility.yul\":4306:4379   */\n      tag_113\n        /* \"#utility.yul\":4374:4378   */\n      dup3\n        /* \"#utility.yul\":4360:4372   */\n      dup3\n        /* \"#utility.yul\":4306:4379   */\n      tag_97\n      jump\t// in\n    tag_113:\n        /* \"#utility.yul\":4298:4379   */\n      swap2\n      pop\n        /* \"#utility.yul\":4154:4390   */\n      pop\n        /* \"#utility.yul\":4407:4411   */\n      dup1\n        /* \"#utility.yul\":4400:4411   */\n      swap2\n      pop\n        /* \"#utility.yul\":3112:4417   */\n      pop\n        /* \"#utility.yul\":3000:4417   */\n      swap3\n      swap2\n      pop\n      pop\n      jump\t// out\n        /* \"#utility.yul\":4423:4772   */\n    tag_12:\n        /* \"#utility.yul\":4554:4558   */\n      0x00\n        /* \"#utility.yul\":4592:4594   */\n      0x20\n        /* \"#utility.yul\":4581:4590   */\n      dup3\n        /* \"#utility.yul\":4577:4595   */\n      add\n        /* \"#utility.yul\":4569:4595   */\n      swap1\n      pop\n        /* \"#utility.yul\":4641:4650   */\n      dup2\n        /* \"#utility.yul\":4635:4639   */\n      dup2\n        /* \"#utility.yul\":4631:4651   */\n      sub\n        /* \"#utility.yul\":4627:4628   */\n      0x00\n        /* \"#utility.yul\":4616:4625   */\n      dup4\n        /* \"#utility.yul\":4612:4629   */\n      add\n        /* \"#utility.yul\":4605:4652   */\n      mstore\n        /* \"#utility.yul\":4669:4765   */\n      tag_115\n        /* \"#utility.yul\":4760:4764   */\n      dup2\n        /* \"#utility.yul\":4751:4757   */\n      dup5\n        /* \"#utility.yul\":4669:4765   */\n      tag_107\n      jump\t// in\n    tag_115:\n        /* \"#utility.yul\":4661:4765   */\n      swap1\n      pop\n        /* \"#utility.yul\":4423:4772   */\n      swap3\n      swap2\n      pop\n      pop\n      jump\t// out\n        /* \"#utility.yul\":4778:4907   */\n    tag_65:\n        /* \"#utility.yul\":4812:4818   */\n      0x00\n        /* \"#utility.yul\":4839:4859   */\n      tag_117\n      tag_118\n      jump\t// in\n    tag_117:\n        /* \"#utility.yul\":4829:4859   */\n      swap1\n      pop\n        /* \"#utility.yul\":4868:4901   */\n      tag_119\n        /* \"#utility.yul\":4896:4900   */\n      dup3\n        /* \"#utility.yul\":4888:4894   */\n      dup3\n        /* \"#utility.yul\":4868:4901   */\n      tag_120\n      jump\t// in\n    tag_119:\n        /* \"#utility.yul\":4778:4907   */\n      swap2\n      swap1\n      pop\n      jump\t// out\n        /* \"#utility.yul\":4913:4988   */\n    tag_118:\n        /* \"#utility.yul\":4946:4952   */\n      0x00\n        /* \"#utility.yul\":4979:4981   */\n      0x40\n        /* \"#utility.yul\":4973:4982   */\n      mload\n        /* \"#utility.yul\":4963:4982   */\n      swap1\n      pop\n        /* \"#utility.yul\":4913:4988   */\n      swap1\n      jump\t// out\n        /* \"#utility.yul\":4994:5302   */\n    tag_64:\n        /* \"#utility.yul\":5056:5060   */\n      0x00\n        /* \"#utility.yul\":5146:5164   */\n      0xffffffffffffffff\n        /* \"#utility.yul\":5138:5144   */\n      dup3\n        /* \"#utility.yul\":5135:5165   */\n      gt\n        /* \"#utility.yul\":5132:5188   */\n      iszero\n      tag_123\n      jumpi\n        /* \"#utility.yul\":5168:5186   */\n      tag_124\n      tag_125\n      jump\t// in\n    tag_124:\n        /* \"#utility.yul\":5132:5188   */\n    tag_123:\n        /* \"#utility.yul\":5206:5235   */\n      tag_126\n        /* \"#utility.yul\":5228:5234   */\n      dup3\n        /* \"#utility.yul\":5206:5235   */\n      tag_106\n      jump\t// in\n    tag_126:\n        /* \"#utility.yul\":5198:5235   */\n      swap1\n      pop\n        /* \"#utility.yul\":5290:5294   */\n      0x20\n        /* \"#utility.yul\":5284:5288   */\n      dup2\n        /* \"#utility.yul\":5280:5295   */\n      add\n        /* \"#utility.yul\":5272:5295   */\n      swap1\n      pop\n        /* \"#utility.yul\":4994:5302   */\n      swap2\n      swap1\n      pop\n      jump\t// out\n        /* \"#utility.yul\":5308:5407   */\n    tag_100:\n        /* \"#utility.yul\":5360:5366   */\n      0x00\n        /* \"#utility.yul\":5394:5399   */\n      dup2\n        /* \"#utility.yul\":5388:5400   */\n      mload\n        /* \"#utility.yul\":5378:5400   */\n      swap1\n      pop\n        /* \"#utility.yul\":5308:5407   */\n      swap2\n      swap1\n      pop\n      jump\t// out\n        /* \"#utility.yul\":5413:5572   */\n    tag_102:\n        /* \"#utility.yul\":5487:5498   */\n      0x00\n        /* \"#utility.yul\":5521:5527   */\n      dup3\n        /* \"#utility.yul\":5516:5519   */\n      dup3\n        /* \"#utility.yul\":5509:5528   */\n      mstore\n        /* \"#utility.yul\":5561:5565   */\n      0x20\n        /* \"#utility.yul\":5556:5559   */\n      dup3\n        /* \"#utility.yul\":5552:5566   */\n      add\n        /* \"#utility.yul\":5537:5566   */\n      swap1\n      pop\n        /* \"#utility.yul\":5413:5572   */\n      swap3\n      swap2\n      pop\n      pop\n      jump\t// out\n        /* \"#utility.yul\":5578:5732   */\n    tag_70:\n        /* \"#utility.yul\":5662:5668   */\n      dup3\n        /* \"#utility.yul\":5657:5660   */\n      dup2\n        /* \"#utility.yul\":5652:5655   */\n      dup4\n        /* \"#utility.yul\":5639:5669   */\n      calldatacopy\n        /* \"#utility.yul\":5724:5725   */\n      0x00\n        /* \"#utility.yul\":5715:5721   */\n      dup4\n        /* \"#utility.yul\":5710:5713   */\n      dup4\n        /* \"#utility.yul\":5706:5722   */\n      add\n        /* \"#utility.yul\":5699:5726   */\n      mstore\n        /* \"#utility.yul\":5578:5732   */\n      pop\n      pop\n      pop\n      jump\t// out\n        /* \"#utility.yul\":5738:6045   */\n    tag_104:\n        /* \"#utility.yul\":5806:5807   */\n      0x00\n        /* \"#utility.yul\":5816:5929   */\n    tag_131:\n        /* \"#utility.yul\":5830:5836   */\n      dup4\n        /* \"#utility.yul\":5827:5828   */\n      dup2\n        /* \"#utility.yul\":5824:5837   */\n      lt\n        /* \"#utility.yul\":5816:5929   */\n      iszero\n      tag_133\n      jumpi\n        /* \"#utility.yul\":5915:5916   */\n      dup1\n        /* \"#utility.yul\":5910:5913   */\n      dup3\n        /* \"#utility.yul\":5906:5917   */\n      add\n        /* \"#utility.yul\":5900:5918   */\n      mload\n        /* \"#utility.yul\":5896:5897   */\n      dup2\n        /* \"#utility.yul\":5891:5894   */\n      dup5\n        /* \"#utility.yul\":5887:5898   */\n      add\n        /* \"#utility.yul\":5880:5919   */\n      mstore\n        /* \"#utility.yul\":5852:5854   */\n      0x20\n        /* \"#utility.yul\":5849:5850   */\n      dup2\n        /* \"#utility.yul\":5845:5855   */\n      add\n        /* \"#utility.yul\":5840:5855   */\n      swap1\n      pop\n        /* \"#utility.yul\":5816:5929   */\n      jump(tag_131)\n    tag_133:\n        /* \"#utility.yul\":5947:5953   */\n      dup4\n        /* \"#utility.yul\":5944:5945   */\n      dup2\n        /* \"#utility.yul\":5941:5954   */\n      gt\n        /* \"#utility.yul\":5938:6039   */\n      iszero\n      tag_134\n      jumpi\n        /* \"#utility.yul\":6027:6028   */\n      0x00\n        /* \"#utility.yul\":6018:6024   */\n      dup5\n        /* \"#utility.yul\":6013:6016   */\n      dup5\n        /* \"#utility.yul\":6009:6025   */\n      add\n        /* \"#utility.yul\":6002:6029   */\n      mstore\n        /* \"#utility.yul\":5938:6039   */\n    tag_134:\n        /* \"#utility.yul\":5787:6045   */\n      pop\n        /* \"#utility.yul\":5738:6045   */\n      pop\n      pop\n      pop\n      jump\t// out\n        /* \"#utility.yul\":6051:6371   */\n    tag_24:\n        /* \"#utility.yul\":6095:6101   */\n      0x00\n        /* \"#utility.yul\":6132:6133   */\n      0x02\n        /* \"#utility.yul\":6126:6130   */\n      dup3\n        /* \"#utility.yul\":6122:6134   */\n      div\n        /* \"#utility.yul\":6112:6134   */\n      swap1\n      pop\n        /* \"#utility.yul\":6179:6180   */\n      0x01\n        /* \"#utility.yul\":6173:6177   */\n      dup3\n        /* \"#utility.yul\":6169:6181   */\n      and\n        /* \"#utility.yul\":6200:6218   */\n      dup1\n        /* \"#utility.yul\":6190:6271   */\n      tag_136\n      jumpi\n        /* \"#utility.yul\":6256:6260   */\n      0x7f\n        /* \"#utility.yul\":6248:6254   */\n      dup3\n        /* \"#utility.yul\":6244:6261   */\n      and\n        /* \"#utility.yul\":6234:6261   */\n      swap2\n      pop\n        /* \"#utility.yul\":6190:6271   */\n    tag_136:\n        /* \"#utility.yul\":6318:6320   */\n      0x20\n        /* \"#utility.yul\":6310:6316   */\n      dup3\n        /* \"#utility.yul\":6307:6321   */\n      lt\n        /* \"#utility.yul\":6287:6305   */\n      dup2\n        /* \"#utility.yul\":6284:6322   */\n      eq\n        /* \"#utility.yul\":6281:6365   */\n      iszero\n      tag_137\n      jumpi\n        /* \"#utility.yul\":6337:6355   */\n      tag_138\n      tag_139\n      jump\t// in\n    tag_138:\n        /* \"#utility.yul\":6281:6365   */\n    tag_137:\n        /* \"#utility.yul\":6102:6371   */\n      pop\n        /* \"#utility.yul\":6051:6371   */\n      swap2\n      swap1\n      pop\n      jump\t// out\n        /* \"#utility.yul\":6377:6658   */\n    tag_120:\n        /* \"#utility.yul\":6460:6487   */\n      tag_141\n        /* \"#utility.yul\":6482:6486   */\n      dup3\n        /* \"#utility.yul\":6460:6487   */\n      tag_106\n      jump\t// in\n    tag_141:\n        /* \"#utility.yul\":6452:6458   */\n      dup2\n        /* \"#utility.yul\":6448:6488   */\n      add\n        /* \"#utility.yul\":6590:6596   */\n      dup2\n        /* \"#utility.yul\":6578:6588   */\n      dup2\n        /* \"#utility.yul\":6575:6597   */\n      lt\n        /* \"#utility.yul\":6554:6572   */\n      0xffffffffffffffff\n        /* \"#utility.yul\":6542:6552   */\n      dup3\n        /* \"#utility.yul\":6539:6573   */\n      gt\n        /* \"#utility.yul\":6536:6598   */\n      or\n        /* \"#utility.yul\":6533:6621   */\n      iszero\n      tag_142\n      jumpi\n        /* \"#utility.yul\":6601:6619   */\n      tag_143\n      tag_125\n      jump\t// in\n    tag_143:\n        /* \"#utility.yul\":6533:6621   */\n    tag_142:\n        /* \"#utility.yul\":6641:6651   */\n      dup1\n        /* \"#utility.yul\":6637:6639   */\n      0x40\n        /* \"#utility.yul\":6630:6652   */\n      mstore\n        /* \"#utility.yul\":6420:6658   */\n      pop\n        /* \"#utility.yul\":6377:6658   */\n      pop\n      pop\n      jump\t// out\n        /* \"#utility.yul\":6664:6844   */\n    tag_139:\n        /* \"#utility.yul\":6712:6789   */\n      0x4e487b7100000000000000000000000000000000000000000000000000000000\n        /* \"#utility.yul\":6709:6710   */\n      0x00\n        /* \"#utility.yul\":6702:6790   */\n      mstore\n        /* \"#utility.yul\":6809:6813   */\n      0x22\n        /* \"#utility.yul\":6806:6807   */\n      0x04\n        /* \"#utility.yul\":6799:6814   */\n      mstore\n        /* \"#utility.yul\":6833:6837   */\n      0x24\n        /* \"#utility.yul\":6830:6831   */\n      0x00\n        /* \"#utility.yul\":6823:6838   */\n      revert\n        /* \"#utility.yul\":6850:7030   */\n    tag_125:\n        /* \"#utility.yul\":6898:6975   */\n      0x4e487b7100000000000000000000000000000000000000000000000000000000\n        /* \"#utility.yul\":6895:6896   */\n      0x00\n        /* \"#utility.yul\":6888:6976   */\n      mstore\n        /* \"#utility.yul\":6995:6999   */\n      0x41\n        /* \"#utility.yul\":6992:6993   */\n      0x04\n        /* \"#utility.yul\":6985:7000   */\n      mstore\n        /* \"#utility.yul\":7019:7023   */\n      0x24\n        /* \"#utility.yul\":7016:7017   */\n      0x00\n        /* \"#utility.yul\":7009:7024   */\n      revert\n        /* \"#utility.yul\":7036:7153   */\n    tag_75:\n        /* \"#utility.yul\":7145:7146   */\n      0x00\n        /* \"#utility.yul\":7142:7143   */\n      dup1\n        /* \"#utility.yul\":7135:7147   */\n      revert\n        /* \"#utility.yul\":7159:7276   */\n    tag_68:\n        /* \"#utility.yul\":7268:7269   */\n      0x00\n        /* \"#utility.yul\":7265:7266   */\n      dup1\n        /* \"#utility.yul\":7258:7270   */\n      revert\n        /* \"#utility.yul\":7282:7399   */\n    tag_83:\n        /* \"#utility.yul\":7391:7392   */\n      0x00\n        /* \"#utility.yul\":7388:7389   */\n      dup1\n        /* \"#utility.yul\":7381:7393   */\n      revert\n        /* \"#utility.yul\":7405:7522   */\n    tag_80:\n        /* \"#utility.yul\":7514:7515   */\n      0x00\n        /* \"#utility.yul\":7511:7512   */\n      dup1\n        /* \"#utility.yul\":7504:7516   */\n      revert\n        /* \"#utility.yul\":7528:7630   */\n    tag_106:\n        /* \"#utility.yul\":7569:7575   */\n      0x00\n        /* \"#utility.yul\":7620:7622   */\n      0x1f\n        /* \"#utility.yul\":7616:7623   */\n      not\n        /* \"#utility.yul\":7611:7613   */\n      0x1f\n        /* \"#utility.yul\":7604:7609   */\n      dup4\n        /* \"#utility.yul\":7600:7614   */\n      add\n        /* \"#utility.yul\":7596:7624   */\n      and\n        /* \"#utility.yul\":7586:7624   */\n      swap1\n      pop\n        /* \"#utility.yul\":7528:7630   */\n      swap2\n      swap1\n      pop\n      jump\t// out\n\n    auxdata: 0xa2646970667358221220cada2bf58d15a949d8820957fc9ba22b998d07748f27e229f99e50243eeb3bd664736f6c63430008070033\n}\n",
				"bytecode": {
					"linkReferences": {},
					"object": "608060405234801561001057600080fd5b50610a60806100206000396000f3fe608060405234801561001057600080fd5b50600436106100365760003560e01c80633e0eb0601461003b578063fa165e8f14610057575b600080fd5b6100556004803603810190610050919061069c565b610075565b005b61005f61022a565b60405161006c919061086e565b60405180910390f35b846000803373ffffffffffffffffffffffffffffffffffffffff1673ffffffffffffffffffffffffffffffffffffffff16815260200190815260200160002060000190805190602001906100ca92919061055a565b50836000803373ffffffffffffffffffffffffffffffffffffffff1673ffffffffffffffffffffffffffffffffffffffff168152602001908152602001600020600101908051906020019061012092919061055a565b50826000803373ffffffffffffffffffffffffffffffffffffffff1673ffffffffffffffffffffffffffffffffffffffff168152602001908152602001600020600201908051906020019061017692919061055a565b50816000803373ffffffffffffffffffffffffffffffffffffffff1673ffffffffffffffffffffffffffffffffffffffff16815260200190815260200160002060030190805190602001906101cc92919061055a565b50806000803373ffffffffffffffffffffffffffffffffffffffff1673ffffffffffffffffffffffffffffffffffffffff168152602001908152602001600020600401908051906020019061022292919061055a565b505050505050565b6102326105e0565b6000803373ffffffffffffffffffffffffffffffffffffffff1673ffffffffffffffffffffffffffffffffffffffff1681526020019081526020016000206040518060a001604052908160008201805461028b90610944565b80601f01602080910402602001604051908101604052809291908181526020018280546102b790610944565b80156103045780601f106102d957610100808354040283529160200191610304565b820191906000526020600020905b8154815290600101906020018083116102e757829003601f168201915b5050505050815260200160018201805461031d90610944565b80601f016020809104026020016040519081016040528092919081815260200182805461034990610944565b80156103965780601f1061036b57610100808354040283529160200191610396565b820191906000526020600020905b81548152906001019060200180831161037957829003601f168201915b505050505081526020016002820180546103af90610944565b80601f01602080910402602001604051908101604052809291908181526020018280546103db90610944565b80156104285780601f106103fd57610100808354040283529160200191610428565b820191906000526020600020905b81548152906001019060200180831161040b57829003601f168201915b5050505050815260200160038201805461044190610944565b80601f016020809104026020016040519081016040528092919081815260200182805461046d90610944565b80156104ba5780601f1061048f576101008083540402835291602001916104ba565b820191906000526020600020905b81548152906001019060200180831161049d57829003601f168201915b505050505081526020016004820180546104d390610944565b80601f01602080910402602001604051908101604052809291908181526020018280546104ff90610944565b801561054c5780601f106105215761010080835404028352916020019161054c565b820191906000526020600020905b81548152906001019060200180831161052f57829003601f168201915b505050505081525050905090565b82805461056690610944565b90600052602060002090601f01602090048101928261058857600085556105cf565b82601f106105a157805160ff19168380011785556105cf565b828001600101855582156105cf579182015b828111156105ce5782518255916020019190600101906105b3565b5b5090506105dc919061060f565b5090565b6040518060a0016040528060608152602001606081526020016060815260200160608152602001606081525090565b5b80821115610628576000816000905550600101610610565b5090565b600061063f61063a846108b5565b610890565b90508281526020810184848401111561065b5761065a610a0a565b5b610666848285610902565b509392505050565b600082601f83011261068357610682610a05565b5b813561069384826020860161062c565b91505092915050565b600080600080600060a086880312156106b8576106b7610a14565b5b600086013567ffffffffffffffff8111156106d6576106d5610a0f565b5b6106e28882890161066e565b955050602086013567ffffffffffffffff81111561070357610702610a0f565b5b61070f8882890161066e565b945050604086013567ffffffffffffffff8111156107305761072f610a0f565b5b61073c8882890161066e565b935050606086013567ffffffffffffffff81111561075d5761075c610a0f565b5b6107698882890161066e565b925050608086013567ffffffffffffffff81111561078a57610789610a0f565b5b6107968882890161066e565b9150509295509295909350565b60006107ae826108e6565b6107b881856108f1565b93506107c8818560208601610911565b6107d181610a19565b840191505092915050565b600060a08301600083015184820360008601526107f982826107a3565b9150506020830151848203602086015261081382826107a3565b9150506040830151848203604086015261082d82826107a3565b9150506060830151848203606086015261084782826107a3565b9150506080830151848203608086015261086182826107a3565b9150508091505092915050565b6000602082019050818103600083015261088881846107dc565b905092915050565b600061089a6108ab565b90506108a68282610976565b919050565b6000604051905090565b600067ffffffffffffffff8211156108d0576108cf6109d6565b5b6108d982610a19565b9050602081019050919050565b600081519050919050565b600082825260208201905092915050565b82818337600083830152505050565b60005b8381101561092f578082015181840152602081019050610914565b8381111561093e576000848401525b50505050565b6000600282049050600182168061095c57607f821691505b602082108114156109705761096f6109a7565b5b50919050565b61097f82610a19565b810181811067ffffffffffffffff8211171561099e5761099d6109d6565b5b80604052505050565b7f4e487b7100000000000000000000000000000000000000000000000000000000600052602260045260246000fd5b7f4e487b7100000000000000000000000000000000000000000000000000000000600052604160045260246000fd5b600080fd5b600080fd5b600080fd5b600080fd5b6000601f19601f830116905091905056fea2646970667358221220cada2bf58d15a949d8820957fc9ba22b998d07748f27e229f99e50243eeb3bd664736f6c63430008070033",
					"opcodes": "PUSH1 0x80 PUSH1 0x40 MSTORE CALLVALUE DUP1 ISZERO PUSH2 0x10 JUMPI PUSH1 0x0 DUP1 REVERT JUMPDEST POP PUSH2 0xA60 DUP1 PUSH2 0x20 PUSH1 0x0 CODECOPY PUSH1 0x0 RETURN INVALID PUSH1 0x80 PUSH1 0x40 MSTORE CALLVALUE DUP1 ISZERO PUSH2 0x10 JUMPI PUSH1 0x0 DUP1 REVERT JUMPDEST POP PUSH1 0x4 CALLDATASIZE LT PUSH2 0x36 JUMPI PUSH1 0x0 CALLDATALOAD PUSH1 0xE0 SHR DUP1 PUSH4 0x3E0EB060 EQ PUSH2 0x3B JUMPI DUP1 PUSH4 0xFA165E8F EQ PUSH2 0x57 JUMPI JUMPDEST PUSH1 0x0 DUP1 REVERT JUMPDEST PUSH2 0x55 PUSH1 0x4 DUP1 CALLDATASIZE SUB DUP2 ADD SWAP1 PUSH2 0x50 SWAP2 SWAP1 PUSH2 0x69C JUMP JUMPDEST PUSH2 0x75 JUMP JUMPDEST STOP JUMPDEST PUSH2 0x5F PUSH2 0x22A JUMP JUMPDEST PUSH1 0x40 MLOAD PUSH2 0x6C SWAP2 SWAP1 PUSH2 0x86E JUMP JUMPDEST PUSH1 0x40 MLOAD DUP1 SWAP2 SUB SWAP1 RETURN JUMPDEST DUP5 PUSH1 0x0 DUP1 CALLER PUSH20 0xFFFFFFFFFFFFFFFFFFFFFFFFFFFFFFFFFFFFFFFF AND PUSH20 0xFFFFFFFFFFFFFFFFFFFFFFFFFFFFFFFFFFFFFFFF AND DUP2 MSTORE PUSH1 0x20 ADD SWAP1 DUP2 MSTORE PUSH1 0x20 ADD PUSH1 0x0 KECCAK256 PUSH1 0x0 ADD SWAP1 DUP1 MLOAD SWAP1 PUSH1 0x20 ADD SWAP1 PUSH2 0xCA SWAP3 SWAP2 SWAP1 PUSH2 0x55A JUMP JUMPDEST POP DUP4 PUSH1 0x0 DUP1 CALLER PUSH20 0xFFFFFFFFFFFFFFFFFFFFFFFFFFFFFFFFFFFFFFFF AND PUSH20 0xFFFFFFFFFFFFFFFFFFFFFFFFFFFFFFFFFFFFFFFF AND DUP2 MSTORE PUSH1 0x20 ADD SWAP1 DUP2 MSTORE PUSH1 0x20 ADD PUSH1 0x0 KECCAK256 PUSH1 0x1 ADD SWAP1 DUP1 MLOAD SWAP1 PUSH1 0x20 ADD SWAP1 PUSH2 0x120 SWAP3 SWAP2 SWAP1 PUSH2 0x55A JUMP JUMPDEST POP DUP3 PUSH1 0x0 DUP1 CALLER PUSH20 0xFFFFFFFFFFFFFFFFFFFFFFFFFFFFFFFFFFFFFFFF AND PUSH20 0xFFFFFFFFFFFFFFFFFFFFFFFFFFFFFFFFFFFFFFFF AND DUP2 MSTORE PUSH1 0x20 ADD SWAP1 DUP2 MSTORE PUSH1 0x20 ADD PUSH1 0x0 KECCAK256 PUSH1 0x2 ADD SWAP1 DUP1 MLOAD SWAP1 PUSH1 0x20 ADD SWAP1 PUSH2 0x176 SWAP3 SWAP2 SWAP1 PUSH2 0x55A JUMP JUMPDEST POP DUP2 PUSH1 0x0 DUP1 CALLER PUSH20 0xFFFFFFFFFFFFFFFFFFFFFFFFFFFFFFFFFFFFFFFF AND PUSH20 0xFFFFFFFFFFFFFFFFFFFFFFFFFFFFFFFFFFFFFFFF AND DUP2 MSTORE PUSH1 0x20 ADD SWAP1 DUP2 MSTORE PUSH1 0x20 ADD PUSH1 0x0 KECCAK256 PUSH1 0x3 ADD SWAP1 DUP1 MLOAD SWAP1 PUSH1 0x20 ADD SWAP1 PUSH2 0x1CC SWAP3 SWAP2 SWAP1 PUSH2 0x55A JUMP JUMPDEST POP DUP1 PUSH1 0x0 DUP1 CALLER PUSH20 0xFFFFFFFFFFFFFFFFFFFFFFFFFFFFFFFFFFFFFFFF AND PUSH20 0xFFFFFFFFFFFFFFFFFFFFFFFFFFFFFFFFFFFFFFFF AND DUP2 MSTORE PUSH1 0x20 ADD SWAP1 DUP2 MSTORE PUSH1 0x20 ADD PUSH1 0x0 KECCAK256 PUSH1 0x4 ADD SWAP1 DUP1 MLOAD SWAP1 PUSH1 0x20 ADD SWAP1 PUSH2 0x222 SWAP3 SWAP2 SWAP1 PUSH2 0x55A JUMP JUMPDEST POP POP POP POP POP POP JUMP JUMPDEST PUSH2 0x232 PUSH2 0x5E0 JUMP JUMPDEST PUSH1 0x0 DUP1 CALLER PUSH20 0xFFFFFFFFFFFFFFFFFFFFFFFFFFFFFFFFFFFFFFFF AND PUSH20 0xFFFFFFFFFFFFFFFFFFFFFFFFFFFFFFFFFFFFFFFF AND DUP2 MSTORE PUSH1 0x20 ADD SWAP1 DUP2 MSTORE PUSH1 0x20 ADD PUSH1 0x0 KECCAK256 PUSH1 0x40 MLOAD DUP1 PUSH1 0xA0 ADD PUSH1 0x40 MSTORE SWAP1 DUP2 PUSH1 0x0 DUP3 ADD DUP1 SLOAD PUSH2 0x28B SWAP1 PUSH2 0x944 JUMP JUMPDEST DUP1 PUSH1 0x1F ADD PUSH1 0x20 DUP1 SWAP2 DIV MUL PUSH1 0x20 ADD PUSH1 0x40 MLOAD SWAP1 DUP2 ADD PUSH1 0x40 MSTORE DUP1 SWAP3 SWAP2 SWAP1 DUP2 DUP2 MSTORE PUSH1 0x20 ADD DUP3 DUP1 SLOAD PUSH2 0x2B7 SWAP1 PUSH2 0x944 JUMP JUMPDEST DUP1 ISZERO PUSH2 0x304 JUMPI DUP1 PUSH1 0x1F LT PUSH2 0x2D9 JUMPI PUSH2 0x100 DUP1 DUP4 SLOAD DIV MUL DUP4 MSTORE SWAP2 PUSH1 0x20 ADD SWAP2 PUSH2 0x304 JUMP JUMPDEST DUP3 ADD SWAP2 SWAP1 PUSH1 0x0 MSTORE PUSH1 0x20 PUSH1 0x0 KECCAK256 SWAP1 JUMPDEST DUP2 SLOAD DUP2 MSTORE SWAP1 PUSH1 0x1 ADD SWAP1 PUSH1 0x20 ADD DUP1 DUP4 GT PUSH2 0x2E7 JUMPI DUP3 SWAP1 SUB PUSH1 0x1F AND DUP3 ADD SWAP2 JUMPDEST POP POP POP POP POP DUP2 MSTORE PUSH1 0x20 ADD PUSH1 0x1 DUP3 ADD DUP1 SLOAD PUSH2 0x31D SWAP1 PUSH2 0x944 JUMP JUMPDEST DUP1 PUSH1 0x1F ADD PUSH1 0x20 DUP1 SWAP2 DIV MUL PUSH1 0x20 ADD PUSH1 0x40 MLOAD SWAP1 DUP2 ADD PUSH1 0x40 MSTORE DUP1 SWAP3 SWAP2 SWAP1 DUP2 DUP2 MSTORE PUSH1 0x20 ADD DUP3 DUP1 SLOAD PUSH2 0x349 SWAP1 PUSH2 0x944 JUMP JUMPDEST DUP1 ISZERO PUSH2 0x396 JUMPI DUP1 PUSH1 0x1F LT PUSH2 0x36B JUMPI PUSH2 0x100 DUP1 DUP4 SLOAD DIV MUL DUP4 MSTORE SWAP2 PUSH1 0x20 ADD SWAP2 PUSH2 0x396 JUMP JUMPDEST DUP3 ADD SWAP2 SWAP1 PUSH1 0x0 MSTORE PUSH1 0x20 PUSH1 0x0 KECCAK256 SWAP1 JUMPDEST DUP2 SLOAD DUP2 MSTORE SWAP1 PUSH1 0x1 ADD SWAP1 PUSH1 0x20 ADD DUP1 DUP4 GT PUSH2 0x379 JUMPI DUP3 SWAP1 SUB PUSH1 0x1F AND DUP3 ADD SWAP2 JUMPDEST POP POP POP POP POP DUP2 MSTORE PUSH1 0x20 ADD PUSH1 0x2 DUP3 ADD DUP1 SLOAD PUSH2 0x3AF SWAP1 PUSH2 0x944 JUMP JUMPDEST DUP1 PUSH1 0x1F ADD PUSH1 0x20 DUP1 SWAP2 DIV MUL PUSH1 0x20 ADD PUSH1 0x40 MLOAD SWAP1 DUP2 ADD PUSH1 0x40 MSTORE DUP1 SWAP3 SWAP2 SWAP1 DUP2 DUP2 MSTORE PUSH1 0x20 ADD DUP3 DUP1 SLOAD PUSH2 0x3DB SWAP1 PUSH2 0x944 JUMP JUMPDEST DUP1 ISZERO PUSH2 0x428 JUMPI DUP1 PUSH1 0x1F LT PUSH2 0x3FD JUMPI PUSH2 0x100 DUP1 DUP4 SLOAD DIV MUL DUP4 MSTORE SWAP2 PUSH1 0x20 ADD SWAP2 PUSH2 0x428 JUMP JUMPDEST DUP3 ADD SWAP2 SWAP1 PUSH1 0x0 MSTORE PUSH1 0x20 PUSH1 0x0 KECCAK256 SWAP1 JUMPDEST DUP2 SLOAD DUP2 MSTORE SWAP1 PUSH1 0x1 ADD SWAP1 PUSH1 0x20 ADD DUP1 DUP4 GT PUSH2 0x40B JUMPI DUP3 SWAP1 SUB PUSH1 0x1F AND DUP3 ADD SWAP2 JUMPDEST POP POP POP POP POP DUP2 MSTORE PUSH1 0x20 ADD PUSH1 0x3 DUP3 ADD DUP1 SLOAD PUSH2 0x441 SWAP1 PUSH2 0x944 JUMP JUMPDEST DUP1 PUSH1 0x1F ADD PUSH1 0x20 DUP1 SWAP2 DIV MUL PUSH1 0x20 ADD PUSH1 0x40 MLOAD SWAP1 DUP2 ADD PUSH1 0x40 MSTORE DUP1 SWAP3 SWAP2 SWAP1 DUP2 DUP2 MSTORE PUSH1 0x20 ADD DUP3 DUP1 SLOAD PUSH2 0x46D SWAP1 PUSH2 0x944 JUMP JUMPDEST DUP1 ISZERO PUSH2 0x4BA JUMPI DUP1 PUSH1 0x1F LT PUSH2 0x48F JUMPI PUSH2 0x100 DUP1 DUP4 SLOAD DIV MUL DUP4 MSTORE SWAP2 PUSH1 0x20 ADD SWAP2 PUSH2 0x4BA JUMP JUMPDEST DUP3 ADD SWAP2 SWAP1 PUSH1 0x0 MSTORE PUSH1 0x20 PUSH1 0x0 KECCAK256 SWAP1 JUMPDEST DUP2 SLOAD DUP2 MSTORE SWAP1 PUSH1 0x1 ADD SWAP1 PUSH1 0x20 ADD DUP1 DUP4 GT PUSH2 0x49D JUMPI DUP3 SWAP1 SUB PUSH1 0x1F AND DUP3 ADD SWAP2 JUMPDEST POP POP POP POP POP DUP2 MSTORE PUSH1 0x20 ADD PUSH1 0x4 DUP3 ADD DUP1 SLOAD PUSH2 0x4D3 SWAP1 PUSH2 0x944 JUMP JUMPDEST DUP1 PUSH1 0x1F ADD PUSH1 0x20 DUP1 SWAP2 DIV MUL PUSH1 0x20 ADD PUSH1 0x40 MLOAD SWAP1 DUP2 ADD PUSH1 0x40 MSTORE DUP1 SWAP3 SWAP2 SWAP1 DUP2 DUP2 MSTORE PUSH1 0x20 ADD DUP3 DUP1 SLOAD PUSH2 0x4FF SWAP1 PUSH2 0x944 JUMP JUMPDEST DUP1 ISZERO PUSH2 0x54C JUMPI DUP1 PUSH1 0x1F LT PUSH2 0x521 JUMPI PUSH2 0x100 DUP1 DUP4 SLOAD DIV MUL DUP4 MSTORE SWAP2 PUSH1 0x20 ADD SWAP2 PUSH2 0x54C JUMP JUMPDEST DUP3 ADD SWAP2 SWAP1 PUSH1 0x0 MSTORE PUSH1 0x20 PUSH1 0x0 KECCAK256 SWAP1 JUMPDEST DUP2 SLOAD DUP2 MSTORE SWAP1 PUSH1 0x1 ADD SWAP1 PUSH1 0x20 ADD DUP1 DUP4 GT PUSH2 0x52F JUMPI DUP3 SWAP1 SUB PUSH1 0x1F AND DUP3 ADD SWAP2 JUMPDEST POP POP POP POP POP DUP2 MSTORE POP POP SWAP1 POP SWAP1 JUMP JUMPDEST DUP3 DUP1 SLOAD PUSH2 0x566 SWAP1 PUSH2 0x944 JUMP JUMPDEST SWAP1 PUSH1 0x0 MSTORE PUSH1 0x20 PUSH1 0x0 KECCAK256 SWAP1 PUSH1 0x1F ADD PUSH1 0x20 SWAP1 DIV DUP2 ADD SWAP3 DUP3 PUSH2 0x588 JUMPI PUSH1 0x0 DUP6 SSTORE PUSH2 0x5CF JUMP JUMPDEST DUP3 PUSH1 0x1F LT PUSH2 0x5A1 JUMPI DUP1 MLOAD PUSH1 0xFF NOT AND DUP4 DUP1 ADD OR DUP6 SSTORE PUSH2 0x5CF JUMP JUMPDEST DUP3 DUP1 ADD PUSH1 0x1 ADD DUP6 SSTORE DUP3 ISZERO PUSH2 0x5CF JUMPI SWAP2 DUP3 ADD JUMPDEST DUP3 DUP2 GT ISZERO PUSH2 0x5CE JUMPI DUP3 MLOAD DUP3 SSTORE SWAP2 PUSH1 0x20 ADD SWAP2 SWAP1 PUSH1 0x1 ADD SWAP1 PUSH2 0x5B3 JUMP JUMPDEST JUMPDEST POP SWAP1 POP PUSH2 0x5DC SWAP2 SWAP1 PUSH2 0x60F JUMP JUMPDEST POP SWAP1 JUMP JUMPDEST PUSH1 0x40 MLOAD DUP1 PUSH1 0xA0 ADD PUSH1 0x40 MSTORE DUP1 PUSH1 0x60 DUP2 MSTORE PUSH1 0x20 ADD PUSH1 0x60 DUP2 MSTORE PUSH1 0x20 ADD PUSH1 0x60 DUP2 MSTORE PUSH1 0x20 ADD PUSH1 0x60 DUP2 MSTORE PUSH1 0x20 ADD PUSH1 0x60 DUP2 MSTORE POP SWAP1 JUMP JUMPDEST JUMPDEST DUP1 DUP3 GT ISZERO PUSH2 0x628 JUMPI PUSH1 0x0 DUP2 PUSH1 0x0 SWAP1 SSTORE POP PUSH1 0x1 ADD PUSH2 0x610 JUMP JUMPDEST POP SWAP1 JUMP JUMPDEST PUSH1 0x0 PUSH2 0x63F PUSH2 0x63A DUP5 PUSH2 0x8B5 JUMP JUMPDEST PUSH2 0x890 JUMP JUMPDEST SWAP1 POP DUP3 DUP2 MSTORE PUSH1 0x20 DUP2 ADD DUP5 DUP5 DUP5 ADD GT ISZERO PUSH2 0x65B JUMPI PUSH2 0x65A PUSH2 0xA0A JUMP JUMPDEST JUMPDEST PUSH2 0x666 DUP5 DUP3 DUP6 PUSH2 0x902 JUMP JUMPDEST POP SWAP4 SWAP3 POP POP POP JUMP JUMPDEST PUSH1 0x0 DUP3 PUSH1 0x1F DUP4 ADD SLT PUSH2 0x683 JUMPI PUSH2 0x682 PUSH2 0xA05 JUMP JUMPDEST JUMPDEST DUP2 CALLDATALOAD PUSH2 0x693 DUP5 DUP3 PUSH1 0x20 DUP7 ADD PUSH2 0x62C JUMP JUMPDEST SWAP2 POP POP SWAP3 SWAP2 POP POP JUMP JUMPDEST PUSH1 0x0 DUP1 PUSH1 0x0 DUP1 PUSH1 0x0 PUSH1 0xA0 DUP7 DUP9 SUB SLT ISZERO PUSH2 0x6B8 JUMPI PUSH2 0x6B7 PUSH2 0xA14 JUMP JUMPDEST JUMPDEST PUSH1 0x0 DUP7 ADD CALLDATALOAD PUSH8 0xFFFFFFFFFFFFFFFF DUP2 GT ISZERO PUSH2 0x6D6 JUMPI PUSH2 0x6D5 PUSH2 0xA0F JUMP JUMPDEST JUMPDEST PUSH2 0x6E2 DUP9 DUP3 DUP10 ADD PUSH2 0x66E JUMP JUMPDEST SWAP6 POP POP PUSH1 0x20 DUP7 ADD CALLDATALOAD PUSH8 0xFFFFFFFFFFFFFFFF DUP2 GT ISZERO PUSH2 0x703 JUMPI PUSH2 0x702 PUSH2 0xA0F JUMP JUMPDEST JUMPDEST PUSH2 0x70F DUP9 DUP3 DUP10 ADD PUSH2 0x66E JUMP JUMPDEST SWAP5 POP POP PUSH1 0x40 DUP7 ADD CALLDATALOAD PUSH8 0xFFFFFFFFFFFFFFFF DUP2 GT ISZERO PUSH2 0x730 JUMPI PUSH2 0x72F PUSH2 0xA0F JUMP JUMPDEST JUMPDEST PUSH2 0x73C DUP9 DUP3 DUP10 ADD PUSH2 0x66E JUMP JUMPDEST SWAP4 POP POP PUSH1 0x60 DUP7 ADD CALLDATALOAD PUSH8 0xFFFFFFFFFFFFFFFF DUP2 GT ISZERO PUSH2 0x75D JUMPI PUSH2 0x75C PUSH2 0xA0F JUMP JUMPDEST JUMPDEST PUSH2 0x769 DUP9 DUP3 DUP10 ADD PUSH2 0x66E JUMP JUMPDEST SWAP3 POP POP PUSH1 0x80 DUP7 ADD CALLDATALOAD PUSH8 0xFFFFFFFFFFFFFFFF DUP2 GT ISZERO PUSH2 0x78A JUMPI PUSH2 0x789 PUSH2 0xA0F JUMP JUMPDEST JUMPDEST PUSH2 0x796 DUP9 DUP3 DUP10 ADD PUSH2 0x66E JUMP JUMPDEST SWAP2 POP POP SWAP3 SWAP6 POP SWAP3 SWAP6 SWAP1 SWAP4 POP JUMP JUMPDEST PUSH1 0x0 PUSH2 0x7AE DUP3 PUSH2 0x8E6 JUMP JUMPDEST PUSH2 0x7B8 DUP2 DUP6 PUSH2 0x8F1 JUMP JUMPDEST SWAP4 POP PUSH2 0x7C8 DUP2 DUP6 PUSH1 0x20 DUP7 ADD PUSH2 0x911 JUMP JUMPDEST PUSH2 0x7D1 DUP2 PUSH2 0xA19 JUMP JUMPDEST DUP5 ADD SWAP2 POP POP SWAP3 SWAP2 POP POP JUMP JUMPDEST PUSH1 0x0 PUSH1 0xA0 DUP4 ADD PUSH1 0x0 DUP4 ADD MLOAD DUP5 DUP3 SUB PUSH1 0x0 DUP7 ADD MSTORE PUSH2 0x7F9 DUP3 DUP3 PUSH2 0x7A3 JUMP JUMPDEST SWAP2 POP POP PUSH1 0x20 DUP4 ADD MLOAD DUP5 DUP3 SUB PUSH1 0x20 DUP7 ADD MSTORE PUSH2 0x813 DUP3 DUP3 PUSH2 0x7A3 JUMP JUMPDEST SWAP2 POP POP PUSH1 0x40 DUP4 ADD MLOAD DUP5 DUP3 SUB PUSH1 0x40 DUP7 ADD MSTORE PUSH2 0x82D DUP3 DUP3 PUSH2 0x7A3 JUMP JUMPDEST SWAP2 POP POP PUSH1 0x60 DUP4 ADD MLOAD DUP5 DUP3 SUB PUSH1 0x60 DUP7 ADD MSTORE PUSH2 0x847 DUP3 DUP3 PUSH2 0x7A3 JUMP JUMPDEST SWAP2 POP POP PUSH1 0x80 DUP4 ADD MLOAD DUP5 DUP3 SUB PUSH1 0x80 DUP7 ADD MSTORE PUSH2 0x861 DUP3 DUP3 PUSH2 0x7A3 JUMP JUMPDEST SWAP2 POP POP DUP1 SWAP2 POP POP SWAP3 SWAP2 POP POP JUMP JUMPDEST PUSH1 0x0 PUSH1 0x20 DUP3 ADD SWAP1 POP DUP2 DUP2 SUB PUSH1 0x0 DUP4 ADD MSTORE PUSH2 0x888 DUP2 DUP5 PUSH2 0x7DC JUMP JUMPDEST SWAP1 POP SWAP3 SWAP2 POP POP JUMP JUMPDEST PUSH1 0x0 PUSH2 0x89A PUSH2 0x8AB JUMP JUMPDEST SWAP1 POP PUSH2 0x8A6 DUP3 DUP3 PUSH2 0x976 JUMP JUMPDEST SWAP2 SWAP1 POP JUMP JUMPDEST PUSH1 0x0 PUSH1 0x40 MLOAD SWAP1 POP SWAP1 JUMP JUMPDEST PUSH1 0x0 PUSH8 0xFFFFFFFFFFFFFFFF DUP3 GT ISZERO PUSH2 0x8D0 JUMPI PUSH2 0x8CF PUSH2 0x9D6 JUMP JUMPDEST JUMPDEST PUSH2 0x8D9 DUP3 PUSH2 0xA19 JUMP JUMPDEST SWAP1 POP PUSH1 0x20 DUP2 ADD SWAP1 POP SWAP2 SWAP1 POP JUMP JUMPDEST PUSH1 0x0 DUP2 MLOAD SWAP1 POP SWAP2 SWAP1 POP JUMP JUMPDEST PUSH1 0x0 DUP3 DUP3 MSTORE PUSH1 0x20 DUP3 ADD SWAP1 POP SWAP3 SWAP2 POP POP JUMP JUMPDEST DUP3 DUP2 DUP4 CALLDATACOPY PUSH1 0x0 DUP4 DUP4 ADD MSTORE POP POP POP JUMP JUMPDEST PUSH1 0x0 JUMPDEST DUP4 DUP2 LT ISZERO PUSH2 0x92F JUMPI DUP1 DUP3 ADD MLOAD DUP2 DUP5 ADD MSTORE PUSH1 0x20 DUP2 ADD SWAP1 POP PUSH2 0x914 JUMP JUMPDEST DUP4 DUP2 GT ISZERO PUSH2 0x93E JUMPI PUSH1 0x0 DUP5 DUP5 ADD MSTORE JUMPDEST POP POP POP POP JUMP JUMPDEST PUSH1 0x0 PUSH1 0x2 DUP3 DIV SWAP1 POP PUSH1 0x1 DUP3 AND DUP1 PUSH2 0x95C JUMPI PUSH1 0x7F DUP3 AND SWAP2 POP JUMPDEST PUSH1 0x20 DUP3 LT DUP2 EQ ISZERO PUSH2 0x970 JUMPI PUSH2 0x96F PUSH2 0x9A7 JUMP JUMPDEST JUMPDEST POP SWAP2 SWAP1 POP JUMP JUMPDEST PUSH2 0x97F DUP3 PUSH2 0xA19 JUMP JUMPDEST DUP2 ADD DUP2 DUP2 LT PUSH8 0xFFFFFFFFFFFFFFFF DUP3 GT OR ISZERO PUSH2 0x99E JUMPI PUSH2 0x99D PUSH2 0x9D6 JUMP JUMPDEST JUMPDEST DUP1 PUSH1 0x40 MSTORE POP POP POP JUMP JUMPDEST PUSH32 0x4E487B7100000000000000000000000000000000000000000000000000000000 PUSH1 0x0 MSTORE PUSH1 0x22 PUSH1 0x4 MSTORE PUSH1 0x24 PUSH1 0x0 REVERT JUMPDEST PUSH32 0x4E487B7100000000000000000000000000000000000000000000000000000000 PUSH1 0x0 MSTORE PUSH1 0x41 PUSH1 0x4 MSTORE PUSH1 0x24 PUSH1 0x0 REVERT JUMPDEST PUSH1 0x0 DUP1 REVERT JUMPDEST PUSH1 0x0 DUP1 REVERT JUMPDEST PUSH1 0x0 DUP1 REVERT JUMPDEST PUSH1 0x0 DUP1 REVERT JUMPDEST PUSH1 0x0 PUSH1 0x1F NOT PUSH1 0x1F DUP4 ADD AND SWAP1 POP SWAP2 SWAP1 POP JUMP INVALID LOG2 PUSH5 0x6970667358 0x22 SLT KECCAK256 0xCA 0xDA 0x2B CREATE2 DUP14 ISZERO 0xA9 0x49 0xD8 DUP3 MULMOD JUMPI 0xFC SWAP12 LOG2 0x2B SWAP10 DUP14 SMOD PUSH21 0x8F27E229F99E50243EEB3BD664736F6C6343000807 STOP CALLER "
				},
				"gasEstimates": {
					"creation": {
						"codeDepositCost": "531200",
						"executionCost": "562",
						"totalCost": "531762"
					},
					"external": {
						"addBio(string,string,string,string,string)": "infinite",
						"getBio()": "infinite"
					}
				},
				"methodIdentifiers": {
					"addBio(string,string,string,string,string)": "3e0eb060",
					"getBio()": "fa165e8f"
				}
			},
			"storageLayout": {
				"storage": [
					{
						"astId": 17,
						"contract": "contracts/Profile.sol:Profile",
						"label": "profile",
						"offset": 0,
						"slot": "0",
						"type": "t_mapping(t_address,t_struct(Bio)12_storage)"
					}
				],
				"types": {
					"t_address": {
						"encoding": "inplace",
						"label": "address",
						"numberOfBytes": "20"
					},
					"t_mapping(t_address,t_struct(Bio)12_storage)": {
						"encoding": "mapping",
						"key": "t_address",
						"label": "mapping(address => struct Profile.Bio)",
						"numberOfBytes": "32",
						"value": "t_struct(Bio)12_storage"
					},
					"t_string_storage": {
						"encoding": "bytes",
						"label": "string",
						"numberOfBytes": "32"
					},
					"t_struct(Bio)12_storage": {
						"encoding": "inplace",
						"label": "struct Profile.Bio",
						"members": [
							{
								"astId": 3,
								"contract": "contracts/Profile.sol:Profile",
								"label": "firstName",
								"offset": 0,
								"slot": "0",
								"type": "t_string_storage"
							},
							{
								"astId": 5,
								"contract": "contracts/Profile.sol:Profile",
								"label": "middleName",
								"offset": 0,
								"slot": "1",
								"type": "t_string_storage"
							},
							{
								"astId": 7,
								"contract": "contracts/Profile.sol:Profile",
								"label": "lastName",
								"offset": 0,
								"slot": "2",
								"type": "t_string_storage"
							},
							{
								"astId": 9,
								"contract": "contracts/Profile.sol:Profile",
								"label": "email",
								"offset": 0,
								"slot": "3",
								"type": "t_string_storage"
							},
							{
								"astId": 11,
								"contract": "contracts/Profile.sol:Profile",
								"label": "phone",
								"offset": 0,
								"slot": "4",
								"type": "t_string_storage"
							}
						],
						"numberOfBytes": "160"
					}
				}
			},
			"userdoc": {
				"kind": "user",
				"methods": {},
				"version": 1
			}
		}
	}
}