{
	"contracts/Profile.sol": {
		"Profile": {
			"abi": [
				{
					"inputs": [
						{
							"internalType": "string",
							"name": "firstName",
							"type": "string"
						},
						{
							"internalType": "string",
							"name": "middleName",
							"type": "string"
						},
						{
							"internalType": "string",
							"name": "lastName",
							"type": "string"
						},
						{
							"internalType": "string",
							"name": "profileImage",
							"type": "string"
						},
						{
							"internalType": "string[]",
							"name": "education",
							"type": "string[]"
						}
					],
					"name": "addBio",
					"outputs": [],
					"stateMutability": "nonpayable",
					"type": "function"
				},
				{
					"inputs": [
						{
							"internalType": "string",
							"name": "email",
							"type": "string"
						},
						{
							"internalType": "string",
							"name": "phone",
							"type": "string"
						},
						{
							"internalType": "string",
							"name": "github",
							"type": "string"
						},
						{
							"internalType": "string",
							"name": "gitlab",
							"type": "string"
						},
						{
							"internalType": "string",
							"name": "linkin",
							"type": "string"
						}
					],
					"name": "addContract",
					"outputs": [],
					"stateMutability": "nonpayable",
					"type": "function"
				},
				{
					"inputs": [
						{
							"internalType": "string[]",
							"name": "frontend",
							"type": "string[]"
						},
						{
							"internalType": "string[]",
							"name": "backend",
							"type": "string[]"
						},
						{
							"internalType": "string[]",
							"name": "framework",
							"type": "string[]"
						}
					],
					"name": "addSkill",
					"outputs": [],
					"stateMutability": "nonpayable",
					"type": "function"
				},
				{
					"inputs": [],
					"name": "delProfile",
					"outputs": [],
					"stateMutability": "nonpayable",
					"type": "function"
				},
				{
					"inputs": [
						{
							"internalType": "address",
							"name": "",
							"type": "address"
						}
					],
					"name": "profile",
					"outputs": [
						{
							"internalType": "address",
							"name": "userAddress",
							"type": "address"
						},
						{
							"internalType": "string",
							"name": "firstName",
							"type": "string"
						},
						{
							"internalType": "string",
							"name": "middleName",
							"type": "string"
						},
						{
							"internalType": "string",
							"name": "lastName",
							"type": "string"
						},
						{
							"internalType": "string",
							"name": "profileImage",
							"type": "string"
						},
						{
							"internalType": "uint256",
							"name": "createDate",
							"type": "uint256"
						},
						{
							"components": [
								{
									"internalType": "string",
									"name": "email",
									"type": "string"
								},
								{
									"internalType": "string",
									"name": "phone",
									"type": "string"
								},
								{
									"internalType": "string",
									"name": "github",
									"type": "string"
								},
								{
									"internalType": "string",
									"name": "gitlab",
									"type": "string"
								},
								{
									"internalType": "string",
									"name": "linkin",
									"type": "string"
								}
							],
							"internalType": "struct Profile.Contract",
							"name": "privateContract",
							"type": "tuple"
						},
						{
							"components": [
								{
									"internalType": "string[]",
									"name": "frontend",
									"type": "string[]"
								},
								{
									"internalType": "string[]",
									"name": "backend",
									"type": "string[]"
								},
								{
									"internalType": "string[]",
									"name": "framework",
									"type": "string[]"
								}
							],
							"internalType": "struct Profile.Skill",
							"name": "skill",
							"type": "tuple"
						}
					],
					"stateMutability": "view",
					"type": "function"
				}
			],
			"devdoc": {
				"kind": "dev",
				"methods": {},
				"version": 1
			},
			"evm": {
				"assembly": "    /* \"contracts/Profile.sol\":60:2195  contract Profile {\r... */\n  mstore(0x40, 0x80)\n  callvalue\n  dup1\n  iszero\n  tag_1\n  jumpi\n  0x00\n  dup1\n  revert\ntag_1:\n  pop\n  dataSize(sub_0)\n  dup1\n  dataOffset(sub_0)\n  0x00\n  codecopy\n  0x00\n  return\nstop\n\nsub_0: assembly {\n        /* \"contracts/Profile.sol\":60:2195  contract Profile {\r... */\n      mstore(0x40, 0x80)\n      callvalue\n      dup1\n      iszero\n      tag_1\n      jumpi\n      0x00\n      dup1\n      revert\n    tag_1:\n      pop\n      jumpi(tag_2, lt(calldatasize, 0x04))\n      shr(0xe0, calldataload(0x00))\n      dup1\n      0x902a1fd2\n      eq\n      tag_3\n      jumpi\n      dup1\n      0x91f2cb9d\n      eq\n      tag_4\n      jumpi\n      dup1\n      0x9dd9d0fd\n      eq\n      tag_5\n      jumpi\n      dup1\n      0xd52246d7\n      eq\n      tag_6\n      jumpi\n      dup1\n      0xfabce08f\n      eq\n      tag_7\n      jumpi\n    tag_2:\n      0x00\n      dup1\n      revert\n        /* \"contracts/Profile.sol\":741:1284  function addBio(string memory firstName, string memory middleName, string memory lastName,  string memory profileImage, string[] memory education) public {\r... */\n    tag_3:\n      tag_8\n      0x04\n      dup1\n      calldatasize\n      sub\n      dup2\n      add\n      swap1\n      tag_9\n      swap2\n      swap1\n      tag_10\n      jump\t// in\n    tag_9:\n      tag_11\n      jump\t// in\n    tag_8:\n      stop\n        /* \"contracts/Profile.sol\":1292:1738  function addContract(string memory email, string memory phone, string memory github, string memory gitlab, string memory linkin) public{\r... */\n    tag_4:\n      tag_12\n      0x04\n      dup1\n      calldatasize\n      sub\n      dup2\n      add\n      swap1\n      tag_13\n      swap2\n      swap1\n      tag_14\n      jump\t// in\n    tag_13:\n      tag_15\n      jump\t// in\n    tag_12:\n      stop\n        /* \"contracts/Profile.sol\":367:407  mapping (address => Bio) public  profile */\n    tag_5:\n      tag_16\n      0x04\n      dup1\n      calldatasize\n      sub\n      dup2\n      add\n      swap1\n      tag_17\n      swap2\n      swap1\n      tag_18\n      jump\t// in\n    tag_17:\n      tag_19\n      jump\t// in\n    tag_16:\n      mload(0x40)\n      tag_20\n      swap9\n      swap8\n      swap7\n      swap6\n      swap5\n      swap4\n      swap3\n      swap2\n      swap1\n      tag_21\n      jump\t// in\n    tag_20:\n      mload(0x40)\n      dup1\n      swap2\n      sub\n      swap1\n      return\n        /* \"contracts/Profile.sol\":1823:2101  function addSkill(string[] memory frontend, string[] memory backend, string[] memory framework) public{\r... */\n    tag_6:\n      tag_22\n      0x04\n      dup1\n      calldatasize\n      sub\n      dup2\n      add\n      swap1\n      tag_23\n      swap2\n      swap1\n      tag_24\n      jump\t// in\n    tag_23:\n      tag_25\n      jump\t// in\n    tag_22:\n      stop\n        /* \"contracts/Profile.sol\":2114:2188  function delProfile() public {\r... */\n    tag_7:\n      tag_26\n      tag_27\n      jump\t// in\n    tag_26:\n      stop\n        /* \"contracts/Profile.sol\":741:1284  function addBio(string memory firstName, string memory middleName, string memory lastName,  string memory profileImage, string[] memory education) public {\r... */\n    tag_11:\n        /* \"contracts/Profile.sol\":938:947  firstName */\n      dup5\n        /* \"contracts/Profile.sol\":906:913  profile */\n      0x00\n        /* \"contracts/Profile.sol\":906:925  profile[msg.sender] */\n      dup1\n        /* \"contracts/Profile.sol\":914:924  msg.sender */\n      caller\n        /* \"contracts/Profile.sol\":906:925  profile[msg.sender] */\n      0xffffffffffffffffffffffffffffffffffffffff\n      and\n      0xffffffffffffffffffffffffffffffffffffffff\n      and\n      dup2\n      mstore\n      0x20\n      add\n      swap1\n      dup2\n      mstore\n      0x20\n      add\n      0x00\n      keccak256\n        /* \"contracts/Profile.sol\":906:935  profile[msg.sender].firstName */\n      0x01\n      add\n        /* \"contracts/Profile.sol\":906:947  profile[msg.sender].firstName = firstName */\n      swap1\n      dup1\n      mload\n      swap1\n      0x20\n      add\n      swap1\n      tag_29\n      swap3\n      swap2\n      swap1\n      tag_30\n      jump\t// in\n    tag_29:\n      pop\n        /* \"contracts/Profile.sol\":991:1001  middleName */\n      dup4\n        /* \"contracts/Profile.sol\":958:965  profile */\n      0x00\n        /* \"contracts/Profile.sol\":958:977  profile[msg.sender] */\n      dup1\n        /* \"contracts/Profile.sol\":966:976  msg.sender */\n      caller\n        /* \"contracts/Profile.sol\":958:977  profile[msg.sender] */\n      0xffffffffffffffffffffffffffffffffffffffff\n      and\n      0xffffffffffffffffffffffffffffffffffffffff\n      and\n      dup2\n      mstore\n      0x20\n      add\n      swap1\n      dup2\n      mstore\n      0x20\n      add\n      0x00\n      keccak256\n        /* \"contracts/Profile.sol\":958:988  profile[msg.sender].middleName */\n      0x02\n      add\n        /* \"contracts/Profile.sol\":958:1001  profile[msg.sender].middleName = middleName */\n      swap1\n      dup1\n      mload\n      swap1\n      0x20\n      add\n      swap1\n      tag_31\n      swap3\n      swap2\n      swap1\n      tag_30\n      jump\t// in\n    tag_31:\n      pop\n        /* \"contracts/Profile.sol\":1043:1051  lastName */\n      dup3\n        /* \"contracts/Profile.sol\":1012:1019  profile */\n      0x00\n        /* \"contracts/Profile.sol\":1012:1031  profile[msg.sender] */\n      dup1\n        /* \"contracts/Profile.sol\":1020:1030  msg.sender */\n      caller\n        /* \"contracts/Profile.sol\":1012:1031  profile[msg.sender] */\n      0xffffffffffffffffffffffffffffffffffffffff\n      and\n      0xffffffffffffffffffffffffffffffffffffffff\n      and\n      dup2\n      mstore\n      0x20\n      add\n      swap1\n      dup2\n      mstore\n      0x20\n      add\n      0x00\n      keccak256\n        /* \"contracts/Profile.sol\":1012:1040  profile[msg.sender].lastName */\n      0x03\n      add\n        /* \"contracts/Profile.sol\":1012:1051  profile[msg.sender].lastName = lastName */\n      swap1\n      dup1\n      mload\n      swap1\n      0x20\n      add\n      swap1\n      tag_32\n      swap3\n      swap2\n      swap1\n      tag_30\n      jump\t// in\n    tag_32:\n      pop\n        /* \"contracts/Profile.sol\":1097:1109  profileImage */\n      dup2\n        /* \"contracts/Profile.sol\":1062:1069  profile */\n      0x00\n        /* \"contracts/Profile.sol\":1062:1081  profile[msg.sender] */\n      dup1\n        /* \"contracts/Profile.sol\":1070:1080  msg.sender */\n      caller\n        /* \"contracts/Profile.sol\":1062:1081  profile[msg.sender] */\n      0xffffffffffffffffffffffffffffffffffffffff\n      and\n      0xffffffffffffffffffffffffffffffffffffffff\n      and\n      dup2\n      mstore\n      0x20\n      add\n      swap1\n      dup2\n      mstore\n      0x20\n      add\n      0x00\n      keccak256\n        /* \"contracts/Profile.sol\":1062:1094  profile[msg.sender].profileImage */\n      0x04\n      add\n        /* \"contracts/Profile.sol\":1062:1109  profile[msg.sender].profileImage = profileImage */\n      swap1\n      dup1\n      mload\n      swap1\n      0x20\n      add\n      swap1\n      tag_33\n      swap3\n      swap2\n      swap1\n      tag_30\n      jump\t// in\n    tag_33:\n      pop\n        /* \"contracts/Profile.sol\":1152:1161  education */\n      dup1\n        /* \"contracts/Profile.sol\":1120:1127  profile */\n      0x00\n        /* \"contracts/Profile.sol\":1120:1139  profile[msg.sender] */\n      dup1\n        /* \"contracts/Profile.sol\":1128:1138  msg.sender */\n      caller\n        /* \"contracts/Profile.sol\":1120:1139  profile[msg.sender] */\n      0xffffffffffffffffffffffffffffffffffffffff\n      and\n      0xffffffffffffffffffffffffffffffffffffffff\n      and\n      dup2\n      mstore\n      0x20\n      add\n      swap1\n      dup2\n      mstore\n      0x20\n      add\n      0x00\n      keccak256\n        /* \"contracts/Profile.sol\":1120:1149  profile[msg.sender].education */\n      0x06\n      add\n        /* \"contracts/Profile.sol\":1120:1161  profile[msg.sender].education = education */\n      swap1\n      dup1\n      mload\n      swap1\n      0x20\n      add\n      swap1\n      tag_34\n      swap3\n      swap2\n      swap1\n      tag_35\n      jump\t// in\n    tag_34:\n      pop\n        /* \"contracts/Profile.sol\":1206:1216  msg.sender */\n      caller\n        /* \"contracts/Profile.sol\":1172:1179  profile */\n      0x00\n        /* \"contracts/Profile.sol\":1172:1191  profile[msg.sender] */\n      dup1\n        /* \"contracts/Profile.sol\":1180:1190  msg.sender */\n      caller\n        /* \"contracts/Profile.sol\":1172:1191  profile[msg.sender] */\n      0xffffffffffffffffffffffffffffffffffffffff\n      and\n      0xffffffffffffffffffffffffffffffffffffffff\n      and\n      dup2\n      mstore\n      0x20\n      add\n      swap1\n      dup2\n      mstore\n      0x20\n      add\n      0x00\n      keccak256\n        /* \"contracts/Profile.sol\":1172:1203  profile[msg.sender].userAddress */\n      0x00\n      add\n      0x00\n        /* \"contracts/Profile.sol\":1172:1216  profile[msg.sender].userAddress = msg.sender */\n      0x0100\n      exp\n      dup2\n      sload\n      dup2\n      0xffffffffffffffffffffffffffffffffffffffff\n      mul\n      not\n      and\n      swap1\n      dup4\n      0xffffffffffffffffffffffffffffffffffffffff\n      and\n      mul\n      or\n      swap1\n      sstore\n      pop\n        /* \"contracts/Profile.sol\":1261:1276  block.timestamp */\n      timestamp\n        /* \"contracts/Profile.sol\":1228:1235  profile */\n      0x00\n        /* \"contracts/Profile.sol\":1228:1247  profile[msg.sender] */\n      dup1\n        /* \"contracts/Profile.sol\":1236:1246  msg.sender */\n      caller\n        /* \"contracts/Profile.sol\":1228:1247  profile[msg.sender] */\n      0xffffffffffffffffffffffffffffffffffffffff\n      and\n      0xffffffffffffffffffffffffffffffffffffffff\n      and\n      dup2\n      mstore\n      0x20\n      add\n      swap1\n      dup2\n      mstore\n      0x20\n      add\n      0x00\n      keccak256\n        /* \"contracts/Profile.sol\":1228:1258  profile[msg.sender].createDate */\n      0x05\n      add\n        /* \"contracts/Profile.sol\":1228:1276  profile[msg.sender].createDate = block.timestamp */\n      dup2\n      swap1\n      sstore\n      pop\n        /* \"contracts/Profile.sol\":741:1284  function addBio(string memory firstName, string memory middleName, string memory lastName,  string memory profileImage, string[] memory education) public {\r... */\n      pop\n      pop\n      pop\n      pop\n      pop\n      jump\t// out\n        /* \"contracts/Profile.sol\":1292:1738  function addContract(string memory email, string memory phone, string memory github, string memory gitlab, string memory linkin) public{\r... */\n    tag_15:\n        /* \"contracts/Profile.sol\":1482:1487  email */\n      dup5\n        /* \"contracts/Profile.sol\":1438:1445  profile */\n      0x00\n        /* \"contracts/Profile.sol\":1438:1457  profile[msg.sender] */\n      dup1\n        /* \"contracts/Profile.sol\":1446:1456  msg.sender */\n      caller\n        /* \"contracts/Profile.sol\":1438:1457  profile[msg.sender] */\n      0xffffffffffffffffffffffffffffffffffffffff\n      and\n      0xffffffffffffffffffffffffffffffffffffffff\n      and\n      dup2\n      mstore\n      0x20\n      add\n      swap1\n      dup2\n      mstore\n      0x20\n      add\n      0x00\n      keccak256\n        /* \"contracts/Profile.sol\":1438:1473  profile[msg.sender].privateContract */\n      0x07\n      add\n        /* \"contracts/Profile.sol\":1438:1479  profile[msg.sender].privateContract.email */\n      0x00\n      add\n        /* \"contracts/Profile.sol\":1438:1487  profile[msg.sender].privateContract.email = email */\n      swap1\n      dup1\n      mload\n      swap1\n      0x20\n      add\n      swap1\n      tag_37\n      swap3\n      swap2\n      swap1\n      tag_30\n      jump\t// in\n    tag_37:\n      pop\n        /* \"contracts/Profile.sol\":1542:1547  phone */\n      dup4\n        /* \"contracts/Profile.sol\":1498:1505  profile */\n      0x00\n        /* \"contracts/Profile.sol\":1498:1517  profile[msg.sender] */\n      dup1\n        /* \"contracts/Profile.sol\":1506:1516  msg.sender */\n      caller\n        /* \"contracts/Profile.sol\":1498:1517  profile[msg.sender] */\n      0xffffffffffffffffffffffffffffffffffffffff\n      and\n      0xffffffffffffffffffffffffffffffffffffffff\n      and\n      dup2\n      mstore\n      0x20\n      add\n      swap1\n      dup2\n      mstore\n      0x20\n      add\n      0x00\n      keccak256\n        /* \"contracts/Profile.sol\":1498:1533  profile[msg.sender].privateContract */\n      0x07\n      add\n        /* \"contracts/Profile.sol\":1498:1539  profile[msg.sender].privateContract.phone */\n      0x01\n      add\n        /* \"contracts/Profile.sol\":1498:1547  profile[msg.sender].privateContract.phone = phone */\n      swap1\n      dup1\n      mload\n      swap1\n      0x20\n      add\n      swap1\n      tag_38\n      swap3\n      swap2\n      swap1\n      tag_30\n      jump\t// in\n    tag_38:\n      pop\n        /* \"contracts/Profile.sol\":1602:1608  github */\n      dup3\n        /* \"contracts/Profile.sol\":1558:1565  profile */\n      0x00\n        /* \"contracts/Profile.sol\":1558:1577  profile[msg.sender] */\n      dup1\n        /* \"contracts/Profile.sol\":1566:1576  msg.sender */\n      caller\n        /* \"contracts/Profile.sol\":1558:1577  profile[msg.sender] */\n      0xffffffffffffffffffffffffffffffffffffffff\n      and\n      0xffffffffffffffffffffffffffffffffffffffff\n      and\n      dup2\n      mstore\n      0x20\n      add\n      swap1\n      dup2\n      mstore\n      0x20\n      add\n      0x00\n      keccak256\n        /* \"contracts/Profile.sol\":1558:1593  profile[msg.sender].privateContract */\n      0x07\n      add\n        /* \"contracts/Profile.sol\":1558:1599  profile[msg.sender].privateContract.email */\n      0x00\n      add\n        /* \"contracts/Profile.sol\":1558:1608  profile[msg.sender].privateContract.email = github */\n      swap1\n      dup1\n      mload\n      swap1\n      0x20\n      add\n      swap1\n      tag_39\n      swap3\n      swap2\n      swap1\n      tag_30\n      jump\t// in\n    tag_39:\n      pop\n        /* \"contracts/Profile.sol\":1663:1669  gitlab */\n      dup2\n        /* \"contracts/Profile.sol\":1619:1626  profile */\n      0x00\n        /* \"contracts/Profile.sol\":1619:1638  profile[msg.sender] */\n      dup1\n        /* \"contracts/Profile.sol\":1627:1637  msg.sender */\n      caller\n        /* \"contracts/Profile.sol\":1619:1638  profile[msg.sender] */\n      0xffffffffffffffffffffffffffffffffffffffff\n      and\n      0xffffffffffffffffffffffffffffffffffffffff\n      and\n      dup2\n      mstore\n      0x20\n      add\n      swap1\n      dup2\n      mstore\n      0x20\n      add\n      0x00\n      keccak256\n        /* \"contracts/Profile.sol\":1619:1654  profile[msg.sender].privateContract */\n      0x07\n      add\n        /* \"contracts/Profile.sol\":1619:1660  profile[msg.sender].privateContract.phone */\n      0x01\n      add\n        /* \"contracts/Profile.sol\":1619:1669  profile[msg.sender].privateContract.phone = gitlab */\n      swap1\n      dup1\n      mload\n      swap1\n      0x20\n      add\n      swap1\n      tag_40\n      swap3\n      swap2\n      swap1\n      tag_30\n      jump\t// in\n    tag_40:\n      pop\n        /* \"contracts/Profile.sol\":1724:1730  linkin */\n      dup1\n        /* \"contracts/Profile.sol\":1680:1687  profile */\n      0x00\n        /* \"contracts/Profile.sol\":1680:1699  profile[msg.sender] */\n      dup1\n        /* \"contracts/Profile.sol\":1688:1698  msg.sender */\n      caller\n        /* \"contracts/Profile.sol\":1680:1699  profile[msg.sender] */\n      0xffffffffffffffffffffffffffffffffffffffff\n      and\n      0xffffffffffffffffffffffffffffffffffffffff\n      and\n      dup2\n      mstore\n      0x20\n      add\n      swap1\n      dup2\n      mstore\n      0x20\n      add\n      0x00\n      keccak256\n        /* \"contracts/Profile.sol\":1680:1715  profile[msg.sender].privateContract */\n      0x07\n      add\n        /* \"contracts/Profile.sol\":1680:1721  profile[msg.sender].privateContract.email */\n      0x00\n      add\n        /* \"contracts/Profile.sol\":1680:1730  profile[msg.sender].privateContract.email = linkin */\n      swap1\n      dup1\n      mload\n      swap1\n      0x20\n      add\n      swap1\n      tag_41\n      swap3\n      swap2\n      swap1\n      tag_30\n      jump\t// in\n    tag_41:\n      pop\n        /* \"contracts/Profile.sol\":1292:1738  function addContract(string memory email, string memory phone, string memory github, string memory gitlab, string memory linkin) public{\r... */\n      pop\n      pop\n      pop\n      pop\n      pop\n      jump\t// out\n        /* \"contracts/Profile.sol\":367:407  mapping (address => Bio) public  profile */\n    tag_19:\n      mstore(0x20, 0x00)\n      dup1\n      0x00\n      mstore\n      keccak256(0x00, 0x40)\n      0x00\n      swap2\n      pop\n      swap1\n      pop\n      dup1\n      0x00\n      add\n      0x00\n      swap1\n      sload\n      swap1\n      0x0100\n      exp\n      swap1\n      div\n      0xffffffffffffffffffffffffffffffffffffffff\n      and\n      swap1\n      dup1\n      0x01\n      add\n      dup1\n      sload\n      tag_42\n      swap1\n      tag_43\n      jump\t// in\n    tag_42:\n      dup1\n      0x1f\n      add\n      0x20\n      dup1\n      swap2\n      div\n      mul\n      0x20\n      add\n      mload(0x40)\n      swap1\n      dup2\n      add\n      0x40\n      mstore\n      dup1\n      swap3\n      swap2\n      swap1\n      dup2\n      dup2\n      mstore\n      0x20\n      add\n      dup3\n      dup1\n      sload\n      tag_44\n      swap1\n      tag_43\n      jump\t// in\n    tag_44:\n      dup1\n      iszero\n      tag_45\n      jumpi\n      dup1\n      0x1f\n      lt\n      tag_46\n      jumpi\n      0x0100\n      dup1\n      dup4\n      sload\n      div\n      mul\n      dup4\n      mstore\n      swap2\n      0x20\n      add\n      swap2\n      jump(tag_45)\n    tag_46:\n      dup3\n      add\n      swap2\n      swap1\n      0x00\n      mstore\n      keccak256(0x00, 0x20)\n      swap1\n    tag_47:\n      dup2\n      sload\n      dup2\n      mstore\n      swap1\n      0x01\n      add\n      swap1\n      0x20\n      add\n      dup1\n      dup4\n      gt\n      tag_47\n      jumpi\n      dup3\n      swap1\n      sub\n      0x1f\n      and\n      dup3\n      add\n      swap2\n    tag_45:\n      pop\n      pop\n      pop\n      pop\n      pop\n      swap1\n      dup1\n      0x02\n      add\n      dup1\n      sload\n      tag_48\n      swap1\n      tag_43\n      jump\t// in\n    tag_48:\n      dup1\n      0x1f\n      add\n      0x20\n      dup1\n      swap2\n      div\n      mul\n      0x20\n      add\n      mload(0x40)\n      swap1\n      dup2\n      add\n      0x40\n      mstore\n      dup1\n      swap3\n      swap2\n      swap1\n      dup2\n      dup2\n      mstore\n      0x20\n      add\n      dup3\n      dup1\n      sload\n      tag_49\n      swap1\n      tag_43\n      jump\t// in\n    tag_49:\n      dup1\n      iszero\n      tag_50\n      jumpi\n      dup1\n      0x1f\n      lt\n      tag_51\n      jumpi\n      0x0100\n      dup1\n      dup4\n      sload\n      div\n      mul\n      dup4\n      mstore\n      swap2\n      0x20\n      add\n      swap2\n      jump(tag_50)\n    tag_51:\n      dup3\n      add\n      swap2\n      swap1\n      0x00\n      mstore\n      keccak256(0x00, 0x20)\n      swap1\n    tag_52:\n      dup2\n      sload\n      dup2\n      mstore\n      swap1\n      0x01\n      add\n      swap1\n      0x20\n      add\n      dup1\n      dup4\n      gt\n      tag_52\n      jumpi\n      dup3\n      swap1\n      sub\n      0x1f\n      and\n      dup3\n      add\n      swap2\n    tag_50:\n      pop\n      pop\n      pop\n      pop\n      pop\n      swap1\n      dup1\n      0x03\n      add\n      dup1\n      sload\n      tag_53\n      swap1\n      tag_43\n      jump\t// in\n    tag_53:\n      dup1\n      0x1f\n      add\n      0x20\n      dup1\n      swap2\n      div\n      mul\n      0x20\n      add\n      mload(0x40)\n      swap1\n      dup2\n      add\n      0x40\n      mstore\n      dup1\n      swap3\n      swap2\n      swap1\n      dup2\n      dup2\n      mstore\n      0x20\n      add\n      dup3\n      dup1\n      sload\n      tag_54\n      swap1\n      tag_43\n      jump\t// in\n    tag_54:\n      dup1\n      iszero\n      tag_55\n      jumpi\n      dup1\n      0x1f\n      lt\n      tag_56\n      jumpi\n      0x0100\n      dup1\n      dup4\n      sload\n      div\n      mul\n      dup4\n      mstore\n      swap2\n      0x20\n      add\n      swap2\n      jump(tag_55)\n    tag_56:\n      dup3\n      add\n      swap2\n      swap1\n      0x00\n      mstore\n      keccak256(0x00, 0x20)\n      swap1\n    tag_57:\n      dup2\n      sload\n      dup2\n      mstore\n      swap1\n      0x01\n      add\n      swap1\n      0x20\n      add\n      dup1\n      dup4\n      gt\n      tag_57\n      jumpi\n      dup3\n      swap1\n      sub\n      0x1f\n      and\n      dup3\n      add\n      swap2\n    tag_55:\n      pop\n      pop\n      pop\n      pop\n      pop\n      swap1\n      dup1\n      0x04\n      add\n      dup1\n      sload\n      tag_58\n      swap1\n      tag_43\n      jump\t// in\n    tag_58:\n      dup1\n      0x1f\n      add\n      0x20\n      dup1\n      swap2\n      div\n      mul\n      0x20\n      add\n      mload(0x40)\n      swap1\n      dup2\n      add\n      0x40\n      mstore\n      dup1\n      swap3\n      swap2\n      swap1\n      dup2\n      dup2\n      mstore\n      0x20\n      add\n      dup3\n      dup1\n      sload\n      tag_59\n      swap1\n      tag_43\n      jump\t// in\n    tag_59:\n      dup1\n      iszero\n      tag_60\n      jumpi\n      dup1\n      0x1f\n      lt\n      tag_61\n      jumpi\n      0x0100\n      dup1\n      dup4\n      sload\n      div\n      mul\n      dup4\n      mstore\n      swap2\n      0x20\n      add\n      swap2\n      jump(tag_60)\n    tag_61:\n      dup3\n      add\n      swap2\n      swap1\n      0x00\n      mstore\n      keccak256(0x00, 0x20)\n      swap1\n    tag_62:\n      dup2\n      sload\n      dup2\n      mstore\n      swap1\n      0x01\n      add\n      swap1\n      0x20\n      add\n      dup1\n      dup4\n      gt\n      tag_62\n      jumpi\n      dup3\n      swap1\n      sub\n      0x1f\n      and\n      dup3\n      add\n      swap2\n    tag_60:\n      pop\n      pop\n      pop\n      pop\n      pop\n      swap1\n      dup1\n      0x05\n      add\n      sload\n      swap1\n      dup1\n      0x07\n      add\n      mload(0x40)\n      dup1\n      0xa0\n      add\n      0x40\n      mstore\n      swap1\n      dup2\n      0x00\n      dup3\n      add\n      dup1\n      sload\n      tag_63\n      swap1\n      tag_43\n      jump\t// in\n    tag_63:\n      dup1\n      0x1f\n      add\n      0x20\n      dup1\n      swap2\n      div\n      mul\n      0x20\n      add\n      mload(0x40)\n      swap1\n      dup2\n      add\n      0x40\n      mstore\n      dup1\n      swap3\n      swap2\n      swap1\n      dup2\n      dup2\n      mstore\n      0x20\n      add\n      dup3\n      dup1\n      sload\n      tag_64\n      swap1\n      tag_43\n      jump\t// in\n    tag_64:\n      dup1\n      iszero\n      tag_65\n      jumpi\n      dup1\n      0x1f\n      lt\n      tag_66\n      jumpi\n      0x0100\n      dup1\n      dup4\n      sload\n      div\n      mul\n      dup4\n      mstore\n      swap2\n      0x20\n      add\n      swap2\n      jump(tag_65)\n    tag_66:\n      dup3\n      add\n      swap2\n      swap1\n      0x00\n      mstore\n      keccak256(0x00, 0x20)\n      swap1\n    tag_67:\n      dup2\n      sload\n      dup2\n      mstore\n      swap1\n      0x01\n      add\n      swap1\n      0x20\n      add\n      dup1\n      dup4\n      gt\n      tag_67\n      jumpi\n      dup3\n      swap1\n      sub\n      0x1f\n      and\n      dup3\n      add\n      swap2\n    tag_65:\n      pop\n      pop\n      pop\n      pop\n      pop\n      dup2\n      mstore\n      0x20\n      add\n      0x01\n      dup3\n      add\n      dup1\n      sload\n      tag_68\n      swap1\n      tag_43\n      jump\t// in\n    tag_68:\n      dup1\n      0x1f\n      add\n      0x20\n      dup1\n      swap2\n      div\n      mul\n      0x20\n      add\n      mload(0x40)\n      swap1\n      dup2\n      add\n      0x40\n      mstore\n      dup1\n      swap3\n      swap2\n      swap1\n      dup2\n      dup2\n      mstore\n      0x20\n      add\n      dup3\n      dup1\n      sload\n      tag_69\n      swap1\n      tag_43\n      jump\t// in\n    tag_69:\n      dup1\n      iszero\n      tag_70\n      jumpi\n      dup1\n      0x1f\n      lt\n      tag_71\n      jumpi\n      0x0100\n      dup1\n      dup4\n      sload\n      div\n      mul\n      dup4\n      mstore\n      swap2\n      0x20\n      add\n      swap2\n      jump(tag_70)\n    tag_71:\n      dup3\n      add\n      swap2\n      swap1\n      0x00\n      mstore\n      keccak256(0x00, 0x20)\n      swap1\n    tag_72:\n      dup2\n      sload\n      dup2\n      mstore\n      swap1\n      0x01\n      add\n      swap1\n      0x20\n      add\n      dup1\n      dup4\n      gt\n      tag_72\n      jumpi\n      dup3\n      swap1\n      sub\n      0x1f\n      and\n      dup3\n      add\n      swap2\n    tag_70:\n      pop\n      pop\n      pop\n      pop\n      pop\n      dup2\n      mstore\n      0x20\n      add\n      0x02\n      dup3\n      add\n      dup1\n      sload\n      tag_73\n      swap1\n      tag_43\n      jump\t// in\n    tag_73:\n      dup1\n      0x1f\n      add\n      0x20\n      dup1\n      swap2\n      div\n      mul\n      0x20\n      add\n      mload(0x40)\n      swap1\n      dup2\n      add\n      0x40\n      mstore\n      dup1\n      swap3\n      swap2\n      swap1\n      dup2\n      dup2\n      mstore\n      0x20\n      add\n      dup3\n      dup1\n      sload\n      tag_74\n      swap1\n      tag_43\n      jump\t// in\n    tag_74:\n      dup1\n      iszero\n      tag_75\n      jumpi\n      dup1\n      0x1f\n      lt\n      tag_76\n      jumpi\n      0x0100\n      dup1\n      dup4\n      sload\n      div\n      mul\n      dup4\n      mstore\n      swap2\n      0x20\n      add\n      swap2\n      jump(tag_75)\n    tag_76:\n      dup3\n      add\n      swap2\n      swap1\n      0x00\n      mstore\n      keccak256(0x00, 0x20)\n      swap1\n    tag_77:\n      dup2\n      sload\n      dup2\n      mstore\n      swap1\n      0x01\n      add\n      swap1\n      0x20\n      add\n      dup1\n      dup4\n      gt\n      tag_77\n      jumpi\n      dup3\n      swap1\n      sub\n      0x1f\n      and\n      dup3\n      add\n      swap2\n    tag_75:\n      pop\n      pop\n      pop\n      pop\n      pop\n      dup2\n      mstore\n      0x20\n      add\n      0x03\n      dup3\n      add\n      dup1\n      sload\n      tag_78\n      swap1\n      tag_43\n      jump\t// in\n    tag_78:\n      dup1\n      0x1f\n      add\n      0x20\n      dup1\n      swap2\n      div\n      mul\n      0x20\n      add\n      mload(0x40)\n      swap1\n      dup2\n      add\n      0x40\n      mstore\n      dup1\n      swap3\n      swap2\n      swap1\n      dup2\n      dup2\n      mstore\n      0x20\n      add\n      dup3\n      dup1\n      sload\n      tag_79\n      swap1\n      tag_43\n      jump\t// in\n    tag_79:\n      dup1\n      iszero\n      tag_80\n      jumpi\n      dup1\n      0x1f\n      lt\n      tag_81\n      jumpi\n      0x0100\n      dup1\n      dup4\n      sload\n      div\n      mul\n      dup4\n      mstore\n      swap2\n      0x20\n      add\n      swap2\n      jump(tag_80)\n    tag_81:\n      dup3\n      add\n      swap2\n      swap1\n      0x00\n      mstore\n      keccak256(0x00, 0x20)\n      swap1\n    tag_82:\n      dup2\n      sload\n      dup2\n      mstore\n      swap1\n      0x01\n      add\n      swap1\n      0x20\n      add\n      dup1\n      dup4\n      gt\n      tag_82\n      jumpi\n      dup3\n      swap1\n      sub\n      0x1f\n      and\n      dup3\n      add\n      swap2\n    tag_80:\n      pop\n      pop\n      pop\n      pop\n      pop\n      dup2\n      mstore\n      0x20\n      add\n      0x04\n      dup3\n      add\n      dup1\n      sload\n      tag_83\n      swap1\n      tag_43\n      jump\t// in\n    tag_83:\n      dup1\n      0x1f\n      add\n      0x20\n      dup1\n      swap2\n      div\n      mul\n      0x20\n      add\n      mload(0x40)\n      swap1\n      dup2\n      add\n      0x40\n      mstore\n      dup1\n      swap3\n      swap2\n      swap1\n      dup2\n      dup2\n      mstore\n      0x20\n      add\n      dup3\n      dup1\n      sload\n      tag_84\n      swap1\n      tag_43\n      jump\t// in\n    tag_84:\n      dup1\n      iszero\n      tag_85\n      jumpi\n      dup1\n      0x1f\n      lt\n      tag_86\n      jumpi\n      0x0100\n      dup1\n      dup4\n      sload\n      div\n      mul\n      dup4\n      mstore\n      swap2\n      0x20\n      add\n      swap2\n      jump(tag_85)\n    tag_86:\n      dup3\n      add\n      swap2\n      swap1\n      0x00\n      mstore\n      keccak256(0x00, 0x20)\n      swap1\n    tag_87:\n      dup2\n      sload\n      dup2\n      mstore\n      swap1\n      0x01\n      add\n      swap1\n      0x20\n      add\n      dup1\n      dup4\n      gt\n      tag_87\n      jumpi\n      dup3\n      swap1\n      sub\n      0x1f\n      and\n      dup3\n      add\n      swap2\n    tag_85:\n      pop\n      pop\n      pop\n      pop\n      pop\n      dup2\n      mstore\n      pop\n      pop\n      swap1\n      dup1\n      0x0c\n      add\n      mload(0x40)\n      dup1\n      0x60\n      add\n      0x40\n      mstore\n      swap1\n      dup2\n      0x00\n      dup3\n      add\n      dup1\n      sload\n      dup1\n      0x20\n      mul\n      0x20\n      add\n      mload(0x40)\n      swap1\n      dup2\n      add\n      0x40\n      mstore\n      dup1\n      swap3\n      swap2\n      swap1\n      dup2\n      dup2\n      mstore\n      0x20\n      add\n      0x00\n      swap1\n    tag_88:\n      dup3\n      dup3\n      lt\n      iszero\n      tag_89\n      jumpi\n      dup4\n      dup3\n      swap1\n      0x00\n      mstore\n      keccak256(0x00, 0x20)\n      add\n      dup1\n      sload\n      tag_91\n      swap1\n      tag_43\n      jump\t// in\n    tag_91:\n      dup1\n      0x1f\n      add\n      0x20\n      dup1\n      swap2\n      div\n      mul\n      0x20\n      add\n      mload(0x40)\n      swap1\n      dup2\n      add\n      0x40\n      mstore\n      dup1\n      swap3\n      swap2\n      swap1\n      dup2\n      dup2\n      mstore\n      0x20\n      add\n      dup3\n      dup1\n      sload\n      tag_92\n      swap1\n      tag_43\n      jump\t// in\n    tag_92:\n      dup1\n      iszero\n      tag_93\n      jumpi\n      dup1\n      0x1f\n      lt\n      tag_94\n      jumpi\n      0x0100\n      dup1\n      dup4\n      sload\n      div\n      mul\n      dup4\n      mstore\n      swap2\n      0x20\n      add\n      swap2\n      jump(tag_93)\n    tag_94:\n      dup3\n      add\n      swap2\n      swap1\n      0x00\n      mstore\n      keccak256(0x00, 0x20)\n      swap1\n    tag_95:\n      dup2\n      sload\n      dup2\n      mstore\n      swap1\n      0x01\n      add\n      swap1\n      0x20\n      add\n      dup1\n      dup4\n      gt\n      tag_95\n      jumpi\n      dup3\n      swap1\n      sub\n      0x1f\n      and\n      dup3\n      add\n      swap2\n    tag_93:\n      pop\n      pop\n      pop\n      pop\n      pop\n      dup2\n      mstore\n      0x20\n      add\n      swap1\n      0x01\n      add\n      swap1\n      jump(tag_88)\n    tag_89:\n      pop\n      pop\n      pop\n      pop\n      dup2\n      mstore\n      0x20\n      add\n      0x01\n      dup3\n      add\n      dup1\n      sload\n      dup1\n      0x20\n      mul\n      0x20\n      add\n      mload(0x40)\n      swap1\n      dup2\n      add\n      0x40\n      mstore\n      dup1\n      swap3\n      swap2\n      swap1\n      dup2\n      dup2\n      mstore\n      0x20\n      add\n      0x00\n      swap1\n    tag_96:\n      dup3\n      dup3\n      lt\n      iszero\n      tag_97\n      jumpi\n      dup4\n      dup3\n      swap1\n      0x00\n      mstore\n      keccak256(0x00, 0x20)\n      add\n      dup1\n      sload\n      tag_99\n      swap1\n      tag_43\n      jump\t// in\n    tag_99:\n      dup1\n      0x1f\n      add\n      0x20\n      dup1\n      swap2\n      div\n      mul\n      0x20\n      add\n      mload(0x40)\n      swap1\n      dup2\n      add\n      0x40\n      mstore\n      dup1\n      swap3\n      swap2\n      swap1\n      dup2\n      dup2\n      mstore\n      0x20\n      add\n      dup3\n      dup1\n      sload\n      tag_100\n      swap1\n      tag_43\n      jump\t// in\n    tag_100:\n      dup1\n      iszero\n      tag_101\n      jumpi\n      dup1\n      0x1f\n      lt\n      tag_102\n      jumpi\n      0x0100\n      dup1\n      dup4\n      sload\n      div\n      mul\n      dup4\n      mstore\n      swap2\n      0x20\n      add\n      swap2\n      jump(tag_101)\n    tag_102:\n      dup3\n      add\n      swap2\n      swap1\n      0x00\n      mstore\n      keccak256(0x00, 0x20)\n      swap1\n    tag_103:\n      dup2\n      sload\n      dup2\n      mstore\n      swap1\n      0x01\n      add\n      swap1\n      0x20\n      add\n      dup1\n      dup4\n      gt\n      tag_103\n      jumpi\n      dup3\n      swap1\n      sub\n      0x1f\n      and\n      dup3\n      add\n      swap2\n    tag_101:\n      pop\n      pop\n      pop\n      pop\n      pop\n      dup2\n      mstore\n      0x20\n      add\n      swap1\n      0x01\n      add\n      swap1\n      jump(tag_96)\n    tag_97:\n      pop\n      pop\n      pop\n      pop\n      dup2\n      mstore\n      0x20\n      add\n      0x02\n      dup3\n      add\n      dup1\n      sload\n      dup1\n      0x20\n      mul\n      0x20\n      add\n      mload(0x40)\n      swap1\n      dup2\n      add\n      0x40\n      mstore\n      dup1\n      swap3\n      swap2\n      swap1\n      dup2\n      dup2\n      mstore\n      0x20\n      add\n      0x00\n      swap1\n    tag_104:\n      dup3\n      dup3\n      lt\n      iszero\n      tag_105\n      jumpi\n      dup4\n      dup3\n      swap1\n      0x00\n      mstore\n      keccak256(0x00, 0x20)\n      add\n      dup1\n      sload\n      tag_107\n      swap1\n      tag_43\n      jump\t// in\n    tag_107:\n      dup1\n      0x1f\n      add\n      0x20\n      dup1\n      swap2\n      div\n      mul\n      0x20\n      add\n      mload(0x40)\n      swap1\n      dup2\n      add\n      0x40\n      mstore\n      dup1\n      swap3\n      swap2\n      swap1\n      dup2\n      dup2\n      mstore\n      0x20\n      add\n      dup3\n      dup1\n      sload\n      tag_108\n      swap1\n      tag_43\n      jump\t// in\n    tag_108:\n      dup1\n      iszero\n      tag_109\n      jumpi\n      dup1\n      0x1f\n      lt\n      tag_110\n      jumpi\n      0x0100\n      dup1\n      dup4\n      sload\n      div\n      mul\n      dup4\n      mstore\n      swap2\n      0x20\n      add\n      swap2\n      jump(tag_109)\n    tag_110:\n      dup3\n      add\n      swap2\n      swap1\n      0x00\n      mstore\n      keccak256(0x00, 0x20)\n      swap1\n    tag_111:\n      dup2\n      sload\n      dup2\n      mstore\n      swap1\n      0x01\n      add\n      swap1\n      0x20\n      add\n      dup1\n      dup4\n      gt\n      tag_111\n      jumpi\n      dup3\n      swap1\n      sub\n      0x1f\n      and\n      dup3\n      add\n      swap2\n    tag_109:\n      pop\n      pop\n      pop\n      pop\n      pop\n      dup2\n      mstore\n      0x20\n      add\n      swap1\n      0x01\n      add\n      swap1\n      jump(tag_104)\n    tag_105:\n      pop\n      pop\n      pop\n      pop\n      dup2\n      mstore\n      pop\n      pop\n      swap1\n      pop\n      dup9\n      jump\t// out\n        /* \"contracts/Profile.sol\":1823:2101  function addSkill(string[] memory frontend, string[] memory backend, string[] memory framework) public{\r... */\n    tag_25:\n        /* \"contracts/Profile.sol\":1973:1981  frontend */\n      dup3\n        /* \"contracts/Profile.sol\":1936:1943  profile */\n      0x00\n        /* \"contracts/Profile.sol\":1936:1955  profile[msg.sender] */\n      dup1\n        /* \"contracts/Profile.sol\":1944:1954  msg.sender */\n      caller\n        /* \"contracts/Profile.sol\":1936:1955  profile[msg.sender] */\n      0xffffffffffffffffffffffffffffffffffffffff\n      and\n      0xffffffffffffffffffffffffffffffffffffffff\n      and\n      dup2\n      mstore\n      0x20\n      add\n      swap1\n      dup2\n      mstore\n      0x20\n      add\n      0x00\n      keccak256\n        /* \"contracts/Profile.sol\":1936:1961  profile[msg.sender].skill */\n      0x0c\n      add\n        /* \"contracts/Profile.sol\":1936:1970  profile[msg.sender].skill.frontend */\n      0x00\n      add\n        /* \"contracts/Profile.sol\":1936:1981  profile[msg.sender].skill.frontend = frontend */\n      swap1\n      dup1\n      mload\n      swap1\n      0x20\n      add\n      swap1\n      tag_113\n      swap3\n      swap2\n      swap1\n      tag_35\n      jump\t// in\n    tag_113:\n      pop\n        /* \"contracts/Profile.sol\":2028:2035  backend */\n      dup2\n        /* \"contracts/Profile.sol\":1992:1999  profile */\n      0x00\n        /* \"contracts/Profile.sol\":1992:2011  profile[msg.sender] */\n      dup1\n        /* \"contracts/Profile.sol\":2000:2010  msg.sender */\n      caller\n        /* \"contracts/Profile.sol\":1992:2011  profile[msg.sender] */\n      0xffffffffffffffffffffffffffffffffffffffff\n      and\n      0xffffffffffffffffffffffffffffffffffffffff\n      and\n      dup2\n      mstore\n      0x20\n      add\n      swap1\n      dup2\n      mstore\n      0x20\n      add\n      0x00\n      keccak256\n        /* \"contracts/Profile.sol\":1992:2017  profile[msg.sender].skill */\n      0x0c\n      add\n        /* \"contracts/Profile.sol\":1992:2025  profile[msg.sender].skill.backend */\n      0x01\n      add\n        /* \"contracts/Profile.sol\":1992:2035  profile[msg.sender].skill.backend = backend */\n      swap1\n      dup1\n      mload\n      swap1\n      0x20\n      add\n      swap1\n      tag_114\n      swap3\n      swap2\n      swap1\n      tag_35\n      jump\t// in\n    tag_114:\n      pop\n        /* \"contracts/Profile.sol\":2084:2093  framework */\n      dup1\n        /* \"contracts/Profile.sol\":2046:2053  profile */\n      0x00\n        /* \"contracts/Profile.sol\":2046:2065  profile[msg.sender] */\n      dup1\n        /* \"contracts/Profile.sol\":2054:2064  msg.sender */\n      caller\n        /* \"contracts/Profile.sol\":2046:2065  profile[msg.sender] */\n      0xffffffffffffffffffffffffffffffffffffffff\n      and\n      0xffffffffffffffffffffffffffffffffffffffff\n      and\n      dup2\n      mstore\n      0x20\n      add\n      swap1\n      dup2\n      mstore\n      0x20\n      add\n      0x00\n      keccak256\n        /* \"contracts/Profile.sol\":2046:2071  profile[msg.sender].skill */\n      0x0c\n      add\n        /* \"contracts/Profile.sol\":2046:2081  profile[msg.sender].skill.framework */\n      0x02\n      add\n        /* \"contracts/Profile.sol\":2046:2093  profile[msg.sender].skill.framework = framework */\n      swap1\n      dup1\n      mload\n      swap1\n      0x20\n      add\n      swap1\n      tag_115\n      swap3\n      swap2\n      swap1\n      tag_35\n      jump\t// in\n    tag_115:\n      pop\n        /* \"contracts/Profile.sol\":1823:2101  function addSkill(string[] memory frontend, string[] memory backend, string[] memory framework) public{\r... */\n      pop\n      pop\n      pop\n      jump\t// out\n        /* \"contracts/Profile.sol\":2114:2188  function delProfile() public {\r... */\n    tag_27:\n        /* \"contracts/Profile.sol\":2161:2168  profile */\n      0x00\n        /* \"contracts/Profile.sol\":2161:2180  profile[msg.sender] */\n      dup1\n        /* \"contracts/Profile.sol\":2169:2179  msg.sender */\n      caller\n        /* \"contracts/Profile.sol\":2161:2180  profile[msg.sender] */\n      0xffffffffffffffffffffffffffffffffffffffff\n      and\n      0xffffffffffffffffffffffffffffffffffffffff\n      and\n      dup2\n      mstore\n      0x20\n      add\n      swap1\n      dup2\n      mstore\n      0x20\n      add\n      0x00\n      keccak256\n      0x00\n        /* \"contracts/Profile.sol\":2154:2180  delete profile[msg.sender] */\n      dup1\n      dup3\n      add\n      exp(0x0100, 0x00)\n      dup2\n      sload\n      swap1\n      0xffffffffffffffffffffffffffffffffffffffff\n      mul\n      not\n      and\n      swap1\n      sstore\n      0x01\n      dup3\n      add\n      0x00\n      tag_117\n      swap2\n      swap1\n      tag_118\n      jump\t// in\n    tag_117:\n      0x02\n      dup3\n      add\n      0x00\n      tag_119\n      swap2\n      swap1\n      tag_118\n      jump\t// in\n    tag_119:\n      0x03\n      dup3\n      add\n      0x00\n      tag_120\n      swap2\n      swap1\n      tag_118\n      jump\t// in\n    tag_120:\n      0x04\n      dup3\n      add\n      0x00\n      tag_121\n      swap2\n      swap1\n      tag_118\n      jump\t// in\n    tag_121:\n      0x05\n      dup3\n      add\n      0x00\n      swap1\n      sstore\n      0x06\n      dup3\n      add\n      0x00\n      tag_122\n      swap2\n      swap1\n      tag_123\n      jump\t// in\n    tag_122:\n      0x07\n      dup3\n      add\n      0x00\n      dup1\n      dup3\n      add\n      0x00\n      tag_124\n      swap2\n      swap1\n      tag_118\n      jump\t// in\n    tag_124:\n      0x01\n      dup3\n      add\n      0x00\n      tag_125\n      swap2\n      swap1\n      tag_118\n      jump\t// in\n    tag_125:\n      0x02\n      dup3\n      add\n      0x00\n      tag_126\n      swap2\n      swap1\n      tag_118\n      jump\t// in\n    tag_126:\n      0x03\n      dup3\n      add\n      0x00\n      tag_127\n      swap2\n      swap1\n      tag_118\n      jump\t// in\n    tag_127:\n      0x04\n      dup3\n      add\n      0x00\n      tag_128\n      swap2\n      swap1\n      tag_118\n      jump\t// in\n    tag_128:\n      pop\n      pop\n      0x0c\n      dup3\n      add\n      0x00\n      dup1\n      dup3\n      add\n      0x00\n      tag_129\n      swap2\n      swap1\n      tag_123\n      jump\t// in\n    tag_129:\n      0x01\n      dup3\n      add\n      0x00\n      tag_130\n      swap2\n      swap1\n      tag_123\n      jump\t// in\n    tag_130:\n      0x02\n      dup3\n      add\n      0x00\n      tag_131\n      swap2\n      swap1\n      tag_123\n      jump\t// in\n    tag_131:\n      pop\n      pop\n      pop\n      pop\n        /* \"contracts/Profile.sol\":2114:2188  function delProfile() public {\r... */\n      jump\t// out\n    tag_30:\n      dup3\n      dup1\n      sload\n      tag_132\n      swap1\n      tag_43\n      jump\t// in\n    tag_132:\n      swap1\n      0x00\n      mstore\n      keccak256(0x00, 0x20)\n      swap1\n      0x1f\n      add\n      0x20\n      swap1\n      div\n      dup2\n      add\n      swap3\n      dup3\n      tag_134\n      jumpi\n      0x00\n      dup6\n      sstore\n      jump(tag_133)\n    tag_134:\n      dup3\n      0x1f\n      lt\n      tag_135\n      jumpi\n      dup1\n      mload\n      not(0xff)\n      and\n      dup4\n      dup1\n      add\n      or\n      dup6\n      sstore\n      jump(tag_133)\n    tag_135:\n      dup3\n      dup1\n      add\n      0x01\n      add\n      dup6\n      sstore\n      dup3\n      iszero\n      tag_133\n      jumpi\n      swap2\n      dup3\n      add\n    tag_136:\n      dup3\n      dup2\n      gt\n      iszero\n      tag_137\n      jumpi\n      dup3\n      mload\n      dup3\n      sstore\n      swap2\n      0x20\n      add\n      swap2\n      swap1\n      0x01\n      add\n      swap1\n      jump(tag_136)\n    tag_137:\n    tag_133:\n      pop\n      swap1\n      pop\n      tag_138\n      swap2\n      swap1\n      tag_139\n      jump\t// in\n    tag_138:\n      pop\n      swap1\n      jump\t// out\n    tag_35:\n      dup3\n      dup1\n      sload\n      dup3\n      dup3\n      sstore\n      swap1\n      0x00\n      mstore\n      keccak256(0x00, 0x20)\n      swap1\n      dup2\n      add\n      swap3\n      dup3\n      iszero\n      tag_140\n      jumpi\n      swap2\n      0x20\n      mul\n      dup3\n      add\n    tag_141:\n      dup3\n      dup2\n      gt\n      iszero\n      tag_142\n      jumpi\n      dup3\n      mload\n      dup3\n      swap1\n      dup1\n      mload\n      swap1\n      0x20\n      add\n      swap1\n      tag_143\n      swap3\n      swap2\n      swap1\n      tag_30\n      jump\t// in\n    tag_143:\n      pop\n      swap2\n      0x20\n      add\n      swap2\n      swap1\n      0x01\n      add\n      swap1\n      jump(tag_141)\n    tag_142:\n    tag_140:\n      pop\n      swap1\n      pop\n      tag_144\n      swap2\n      swap1\n      tag_145\n      jump\t// in\n    tag_144:\n      pop\n      swap1\n      jump\t// out\n    tag_118:\n      pop\n      dup1\n      sload\n      tag_146\n      swap1\n      tag_43\n      jump\t// in\n    tag_146:\n      0x00\n      dup3\n      sstore\n      dup1\n      0x1f\n      lt\n      tag_148\n      jumpi\n      pop\n      jump(tag_147)\n    tag_148:\n      0x1f\n      add\n      0x20\n      swap1\n      div\n      swap1\n      0x00\n      mstore\n      keccak256(0x00, 0x20)\n      swap1\n      dup2\n      add\n      swap1\n      tag_149\n      swap2\n      swap1\n      tag_139\n      jump\t// in\n    tag_149:\n    tag_147:\n      pop\n      jump\t// out\n    tag_123:\n      pop\n      dup1\n      sload\n      0x00\n      dup3\n      sstore\n      swap1\n      0x00\n      mstore\n      keccak256(0x00, 0x20)\n      swap1\n      dup2\n      add\n      swap1\n      tag_151\n      swap2\n      swap1\n      tag_145\n      jump\t// in\n    tag_151:\n      pop\n      jump\t// out\n    tag_139:\n    tag_152:\n      dup1\n      dup3\n      gt\n      iszero\n      tag_153\n      jumpi\n      0x00\n      dup2\n      0x00\n      swap1\n      sstore\n      pop\n      0x01\n      add\n      jump(tag_152)\n    tag_153:\n      pop\n      swap1\n      jump\t// out\n    tag_145:\n    tag_154:\n      dup1\n      dup3\n      gt\n      iszero\n      tag_155\n      jumpi\n      0x00\n      dup2\n      dup2\n      tag_156\n      swap2\n      swap1\n      tag_118\n      jump\t// in\n    tag_156:\n      pop\n      0x01\n      add\n      jump(tag_154)\n    tag_155:\n      pop\n      swap1\n      jump\t// out\n        /* \"#utility.yul\":23:980   */\n    tag_158:\n        /* \"#utility.yul\":129:134   */\n      0x00\n        /* \"#utility.yul\":154:245   */\n      tag_160\n        /* \"#utility.yul\":170:244   */\n      tag_161\n        /* \"#utility.yul\":237:243   */\n      dup5\n        /* \"#utility.yul\":170:244   */\n      tag_162\n      jump\t// in\n    tag_161:\n        /* \"#utility.yul\":154:245   */\n      tag_163\n      jump\t// in\n    tag_160:\n        /* \"#utility.yul\":145:245   */\n      swap1\n      pop\n        /* \"#utility.yul\":265:270   */\n      dup1\n        /* \"#utility.yul\":294:300   */\n      dup4\n        /* \"#utility.yul\":287:292   */\n      dup3\n        /* \"#utility.yul\":280:301   */\n      mstore\n        /* \"#utility.yul\":328:332   */\n      0x20\n        /* \"#utility.yul\":321:326   */\n      dup3\n        /* \"#utility.yul\":317:333   */\n      add\n        /* \"#utility.yul\":310:333   */\n      swap1\n      pop\n        /* \"#utility.yul\":354:360   */\n      dup3\n        /* \"#utility.yul\":404:407   */\n      dup6\n        /* \"#utility.yul\":396:400   */\n      0x20\n        /* \"#utility.yul\":388:394   */\n      dup7\n        /* \"#utility.yul\":384:401   */\n      mul\n        /* \"#utility.yul\":379:382   */\n      dup3\n        /* \"#utility.yul\":375:402   */\n      add\n        /* \"#utility.yul\":372:408   */\n      gt\n        /* \"#utility.yul\":369:512   */\n      iszero\n      tag_164\n      jumpi\n        /* \"#utility.yul\":423:502   */\n      tag_165\n      tag_166\n      jump\t// in\n    tag_165:\n        /* \"#utility.yul\":369:512   */\n    tag_164:\n        /* \"#utility.yul\":536:537   */\n      0x00\n        /* \"#utility.yul\":521:974   */\n    tag_167:\n        /* \"#utility.yul\":546:552   */\n      dup6\n        /* \"#utility.yul\":543:544   */\n      dup2\n        /* \"#utility.yul\":540:553   */\n      lt\n        /* \"#utility.yul\":521:974   */\n      iszero\n      tag_169\n      jumpi\n        /* \"#utility.yul\":628:631   */\n      dup2\n        /* \"#utility.yul\":615:632   */\n      calldataload\n        /* \"#utility.yul\":664:682   */\n      0xffffffffffffffff\n        /* \"#utility.yul\":651:662   */\n      dup2\n        /* \"#utility.yul\":648:683   */\n      gt\n        /* \"#utility.yul\":645:767   */\n      iszero\n      tag_170\n      jumpi\n        /* \"#utility.yul\":686:765   */\n      tag_171\n      tag_172\n      jump\t// in\n    tag_171:\n        /* \"#utility.yul\":645:767   */\n    tag_170:\n        /* \"#utility.yul\":810:821   */\n      dup1\n        /* \"#utility.yul\":802:808   */\n      dup7\n        /* \"#utility.yul\":798:822   */\n      add\n        /* \"#utility.yul\":848:895   */\n      tag_173\n        /* \"#utility.yul\":891:894   */\n      dup10\n        /* \"#utility.yul\":879:889   */\n      dup3\n        /* \"#utility.yul\":848:895   */\n      tag_174\n      jump\t// in\n    tag_173:\n        /* \"#utility.yul\":843:846   */\n      dup6\n        /* \"#utility.yul\":836:896   */\n      mstore\n        /* \"#utility.yul\":925:929   */\n      0x20\n        /* \"#utility.yul\":920:923   */\n      dup6\n        /* \"#utility.yul\":916:930   */\n      add\n        /* \"#utility.yul\":909:930   */\n      swap5\n      pop\n        /* \"#utility.yul\":959:963   */\n      0x20\n        /* \"#utility.yul\":954:957   */\n      dup5\n        /* \"#utility.yul\":950:964   */\n      add\n        /* \"#utility.yul\":943:964   */\n      swap4\n      pop\n        /* \"#utility.yul\":581:974   */\n      pop\n      pop\n        /* \"#utility.yul\":568:569   */\n      0x01\n        /* \"#utility.yul\":565:566   */\n      dup2\n        /* \"#utility.yul\":561:570   */\n      add\n        /* \"#utility.yul\":556:570   */\n      swap1\n      pop\n        /* \"#utility.yul\":521:974   */\n      jump(tag_167)\n    tag_169:\n        /* \"#utility.yul\":525:539   */\n      pop\n        /* \"#utility.yul\":135:980   */\n      pop\n      pop\n        /* \"#utility.yul\":23:980   */\n      swap4\n      swap3\n      pop\n      pop\n      pop\n      jump\t// out\n        /* \"#utility.yul\":986:1398   */\n    tag_175:\n        /* \"#utility.yul\":1064:1069   */\n      0x00\n        /* \"#utility.yul\":1089:1155   */\n      tag_177\n        /* \"#utility.yul\":1105:1154   */\n      tag_178\n        /* \"#utility.yul\":1147:1153   */\n      dup5\n        /* \"#utility.yul\":1105:1154   */\n      tag_179\n      jump\t// in\n    tag_178:\n        /* \"#utility.yul\":1089:1155   */\n      tag_163\n      jump\t// in\n    tag_177:\n        /* \"#utility.yul\":1080:1155   */\n      swap1\n      pop\n        /* \"#utility.yul\":1178:1184   */\n      dup3\n        /* \"#utility.yul\":1171:1176   */\n      dup2\n        /* \"#utility.yul\":1164:1185   */\n      mstore\n        /* \"#utility.yul\":1216:1220   */\n      0x20\n        /* \"#utility.yul\":1209:1214   */\n      dup2\n        /* \"#utility.yul\":1205:1221   */\n      add\n        /* \"#utility.yul\":1254:1257   */\n      dup5\n        /* \"#utility.yul\":1245:1251   */\n      dup5\n        /* \"#utility.yul\":1240:1243   */\n      dup5\n        /* \"#utility.yul\":1236:1252   */\n      add\n        /* \"#utility.yul\":1233:1258   */\n      gt\n        /* \"#utility.yul\":1230:1342   */\n      iszero\n      tag_180\n      jumpi\n        /* \"#utility.yul\":1261:1340   */\n      tag_181\n      tag_182\n      jump\t// in\n    tag_181:\n        /* \"#utility.yul\":1230:1342   */\n    tag_180:\n        /* \"#utility.yul\":1351:1392   */\n      tag_183\n        /* \"#utility.yul\":1385:1391   */\n      dup5\n        /* \"#utility.yul\":1380:1383   */\n      dup3\n        /* \"#utility.yul\":1375:1378   */\n      dup6\n        /* \"#utility.yul\":1351:1392   */\n      tag_184\n      jump\t// in\n    tag_183:\n        /* \"#utility.yul\":1070:1398   */\n      pop\n        /* \"#utility.yul\":986:1398   */\n      swap4\n      swap3\n      pop\n      pop\n      pop\n      jump\t// out\n        /* \"#utility.yul\":1404:1543   */\n    tag_185:\n        /* \"#utility.yul\":1450:1455   */\n      0x00\n        /* \"#utility.yul\":1488:1494   */\n      dup2\n        /* \"#utility.yul\":1475:1495   */\n      calldataload\n        /* \"#utility.yul\":1466:1495   */\n      swap1\n      pop\n        /* \"#utility.yul\":1504:1537   */\n      tag_187\n        /* \"#utility.yul\":1531:1536   */\n      dup2\n        /* \"#utility.yul\":1504:1537   */\n      tag_188\n      jump\t// in\n    tag_187:\n        /* \"#utility.yul\":1404:1543   */\n      swap3\n      swap2\n      pop\n      pop\n      jump\t// out\n        /* \"#utility.yul\":1565:1955   */\n    tag_189:\n        /* \"#utility.yul\":1646:1651   */\n      0x00\n        /* \"#utility.yul\":1695:1698   */\n      dup3\n        /* \"#utility.yul\":1688:1692   */\n      0x1f\n        /* \"#utility.yul\":1680:1686   */\n      dup4\n        /* \"#utility.yul\":1676:1693   */\n      add\n        /* \"#utility.yul\":1672:1699   */\n      slt\n        /* \"#utility.yul\":1662:1784   */\n      tag_191\n      jumpi\n        /* \"#utility.yul\":1703:1782   */\n      tag_192\n      tag_172\n      jump\t// in\n    tag_192:\n        /* \"#utility.yul\":1662:1784   */\n    tag_191:\n        /* \"#utility.yul\":1820:1826   */\n      dup2\n        /* \"#utility.yul\":1807:1827   */\n      calldataload\n        /* \"#utility.yul\":1845:1949   */\n      tag_193\n        /* \"#utility.yul\":1945:1948   */\n      dup5\n        /* \"#utility.yul\":1937:1943   */\n      dup3\n        /* \"#utility.yul\":1930:1934   */\n      0x20\n        /* \"#utility.yul\":1922:1928   */\n      dup7\n        /* \"#utility.yul\":1918:1935   */\n      add\n        /* \"#utility.yul\":1845:1949   */\n      tag_158\n      jump\t// in\n    tag_193:\n        /* \"#utility.yul\":1836:1949   */\n      swap2\n      pop\n        /* \"#utility.yul\":1652:1955   */\n      pop\n        /* \"#utility.yul\":1565:1955   */\n      swap3\n      swap2\n      pop\n      pop\n      jump\t// out\n        /* \"#utility.yul\":1975:2315   */\n    tag_174:\n        /* \"#utility.yul\":2031:2036   */\n      0x00\n        /* \"#utility.yul\":2080:2083   */\n      dup3\n        /* \"#utility.yul\":2073:2077   */\n      0x1f\n        /* \"#utility.yul\":2065:2071   */\n      dup4\n        /* \"#utility.yul\":2061:2078   */\n      add\n        /* \"#utility.yul\":2057:2084   */\n      slt\n        /* \"#utility.yul\":2047:2169   */\n      tag_195\n      jumpi\n        /* \"#utility.yul\":2088:2167   */\n      tag_196\n      tag_172\n      jump\t// in\n    tag_196:\n        /* \"#utility.yul\":2047:2169   */\n    tag_195:\n        /* \"#utility.yul\":2205:2211   */\n      dup2\n        /* \"#utility.yul\":2192:2212   */\n      calldataload\n        /* \"#utility.yul\":2230:2309   */\n      tag_197\n        /* \"#utility.yul\":2305:2308   */\n      dup5\n        /* \"#utility.yul\":2297:2303   */\n      dup3\n        /* \"#utility.yul\":2290:2294   */\n      0x20\n        /* \"#utility.yul\":2282:2288   */\n      dup7\n        /* \"#utility.yul\":2278:2295   */\n      add\n        /* \"#utility.yul\":2230:2309   */\n      tag_175\n      jump\t// in\n    tag_197:\n        /* \"#utility.yul\":2221:2309   */\n      swap2\n      pop\n        /* \"#utility.yul\":2037:2315   */\n      pop\n        /* \"#utility.yul\":1975:2315   */\n      swap3\n      swap2\n      pop\n      pop\n      jump\t// out\n        /* \"#utility.yul\":2321:2650   */\n    tag_18:\n        /* \"#utility.yul\":2380:2386   */\n      0x00\n        /* \"#utility.yul\":2429:2431   */\n      0x20\n        /* \"#utility.yul\":2417:2426   */\n      dup3\n        /* \"#utility.yul\":2408:2415   */\n      dup5\n        /* \"#utility.yul\":2404:2427   */\n      sub\n        /* \"#utility.yul\":2400:2432   */\n      slt\n        /* \"#utility.yul\":2397:2516   */\n      iszero\n      tag_199\n      jumpi\n        /* \"#utility.yul\":2435:2514   */\n      tag_200\n      tag_201\n      jump\t// in\n    tag_200:\n        /* \"#utility.yul\":2397:2516   */\n    tag_199:\n        /* \"#utility.yul\":2555:2556   */\n      0x00\n        /* \"#utility.yul\":2580:2633   */\n      tag_202\n        /* \"#utility.yul\":2625:2632   */\n      dup5\n        /* \"#utility.yul\":2616:2622   */\n      dup3\n        /* \"#utility.yul\":2605:2614   */\n      dup6\n        /* \"#utility.yul\":2601:2623   */\n      add\n        /* \"#utility.yul\":2580:2633   */\n      tag_185\n      jump\t// in\n    tag_202:\n        /* \"#utility.yul\":2570:2633   */\n      swap2\n      pop\n        /* \"#utility.yul\":2526:2643   */\n      pop\n        /* \"#utility.yul\":2321:2650   */\n      swap3\n      swap2\n      pop\n      pop\n      jump\t// out\n        /* \"#utility.yul\":2656:3965   */\n    tag_24:\n        /* \"#utility.yul\":2838:2844   */\n      0x00\n        /* \"#utility.yul\":2846:2852   */\n      dup1\n        /* \"#utility.yul\":2854:2860   */\n      0x00\n        /* \"#utility.yul\":2903:2905   */\n      0x60\n        /* \"#utility.yul\":2891:2900   */\n      dup5\n        /* \"#utility.yul\":2882:2889   */\n      dup7\n        /* \"#utility.yul\":2878:2901   */\n      sub\n        /* \"#utility.yul\":2874:2906   */\n      slt\n        /* \"#utility.yul\":2871:2990   */\n      iszero\n      tag_204\n      jumpi\n        /* \"#utility.yul\":2909:2988   */\n      tag_205\n      tag_201\n      jump\t// in\n    tag_205:\n        /* \"#utility.yul\":2871:2990   */\n    tag_204:\n        /* \"#utility.yul\":3057:3058   */\n      0x00\n        /* \"#utility.yul\":3046:3055   */\n      dup5\n        /* \"#utility.yul\":3042:3059   */\n      add\n        /* \"#utility.yul\":3029:3060   */\n      calldataload\n        /* \"#utility.yul\":3087:3105   */\n      0xffffffffffffffff\n        /* \"#utility.yul\":3079:3085   */\n      dup2\n        /* \"#utility.yul\":3076:3106   */\n      gt\n        /* \"#utility.yul\":3073:3190   */\n      iszero\n      tag_206\n      jumpi\n        /* \"#utility.yul\":3109:3188   */\n      tag_207\n      tag_208\n      jump\t// in\n    tag_207:\n        /* \"#utility.yul\":3073:3190   */\n    tag_206:\n        /* \"#utility.yul\":3214:3302   */\n      tag_209\n        /* \"#utility.yul\":3294:3301   */\n      dup7\n        /* \"#utility.yul\":3285:3291   */\n      dup3\n        /* \"#utility.yul\":3274:3283   */\n      dup8\n        /* \"#utility.yul\":3270:3292   */\n      add\n        /* \"#utility.yul\":3214:3302   */\n      tag_189\n      jump\t// in\n    tag_209:\n        /* \"#utility.yul\":3204:3302   */\n      swap4\n      pop\n        /* \"#utility.yul\":3000:3312   */\n      pop\n        /* \"#utility.yul\":3379:3381   */\n      0x20\n        /* \"#utility.yul\":3368:3377   */\n      dup5\n        /* \"#utility.yul\":3364:3382   */\n      add\n        /* \"#utility.yul\":3351:3383   */\n      calldataload\n        /* \"#utility.yul\":3410:3428   */\n      0xffffffffffffffff\n        /* \"#utility.yul\":3402:3408   */\n      dup2\n        /* \"#utility.yul\":3399:3429   */\n      gt\n        /* \"#utility.yul\":3396:3513   */\n      iszero\n      tag_210\n      jumpi\n        /* \"#utility.yul\":3432:3511   */\n      tag_211\n      tag_208\n      jump\t// in\n    tag_211:\n        /* \"#utility.yul\":3396:3513   */\n    tag_210:\n        /* \"#utility.yul\":3537:3625   */\n      tag_212\n        /* \"#utility.yul\":3617:3624   */\n      dup7\n        /* \"#utility.yul\":3608:3614   */\n      dup3\n        /* \"#utility.yul\":3597:3606   */\n      dup8\n        /* \"#utility.yul\":3593:3615   */\n      add\n        /* \"#utility.yul\":3537:3625   */\n      tag_189\n      jump\t// in\n    tag_212:\n        /* \"#utility.yul\":3527:3625   */\n      swap3\n      pop\n        /* \"#utility.yul\":3322:3635   */\n      pop\n        /* \"#utility.yul\":3702:3704   */\n      0x40\n        /* \"#utility.yul\":3691:3700   */\n      dup5\n        /* \"#utility.yul\":3687:3705   */\n      add\n        /* \"#utility.yul\":3674:3706   */\n      calldataload\n        /* \"#utility.yul\":3733:3751   */\n      0xffffffffffffffff\n        /* \"#utility.yul\":3725:3731   */\n      dup2\n        /* \"#utility.yul\":3722:3752   */\n      gt\n        /* \"#utility.yul\":3719:3836   */\n      iszero\n      tag_213\n      jumpi\n        /* \"#utility.yul\":3755:3834   */\n      tag_214\n      tag_208\n      jump\t// in\n    tag_214:\n        /* \"#utility.yul\":3719:3836   */\n    tag_213:\n        /* \"#utility.yul\":3860:3948   */\n      tag_215\n        /* \"#utility.yul\":3940:3947   */\n      dup7\n        /* \"#utility.yul\":3931:3937   */\n      dup3\n        /* \"#utility.yul\":3920:3929   */\n      dup8\n        /* \"#utility.yul\":3916:3938   */\n      add\n        /* \"#utility.yul\":3860:3948   */\n      tag_189\n      jump\t// in\n    tag_215:\n        /* \"#utility.yul\":3850:3948   */\n      swap2\n      pop\n        /* \"#utility.yul\":3645:3958   */\n      pop\n        /* \"#utility.yul\":2656:3965   */\n      swap3\n      pop\n      swap3\n      pop\n      swap3\n      jump\t// out\n        /* \"#utility.yul\":3971:5832   */\n    tag_10:\n        /* \"#utility.yul\":4141:4147   */\n      0x00\n        /* \"#utility.yul\":4149:4155   */\n      dup1\n        /* \"#utility.yul\":4157:4163   */\n      0x00\n        /* \"#utility.yul\":4165:4171   */\n      dup1\n        /* \"#utility.yul\":4173:4179   */\n      0x00\n        /* \"#utility.yul\":4222:4225   */\n      0xa0\n        /* \"#utility.yul\":4210:4219   */\n      dup7\n        /* \"#utility.yul\":4201:4208   */\n      dup9\n        /* \"#utility.yul\":4197:4220   */\n      sub\n        /* \"#utility.yul\":4193:4226   */\n      slt\n        /* \"#utility.yul\":4190:4310   */\n      iszero\n      tag_217\n      jumpi\n        /* \"#utility.yul\":4229:4308   */\n      tag_218\n      tag_201\n      jump\t// in\n    tag_218:\n        /* \"#utility.yul\":4190:4310   */\n    tag_217:\n        /* \"#utility.yul\":4377:4378   */\n      0x00\n        /* \"#utility.yul\":4366:4375   */\n      dup7\n        /* \"#utility.yul\":4362:4379   */\n      add\n        /* \"#utility.yul\":4349:4380   */\n      calldataload\n        /* \"#utility.yul\":4407:4425   */\n      0xffffffffffffffff\n        /* \"#utility.yul\":4399:4405   */\n      dup2\n        /* \"#utility.yul\":4396:4426   */\n      gt\n        /* \"#utility.yul\":4393:4510   */\n      iszero\n      tag_219\n      jumpi\n        /* \"#utility.yul\":4429:4508   */\n      tag_220\n      tag_208\n      jump\t// in\n    tag_220:\n        /* \"#utility.yul\":4393:4510   */\n    tag_219:\n        /* \"#utility.yul\":4534:4597   */\n      tag_221\n        /* \"#utility.yul\":4589:4596   */\n      dup9\n        /* \"#utility.yul\":4580:4586   */\n      dup3\n        /* \"#utility.yul\":4569:4578   */\n      dup10\n        /* \"#utility.yul\":4565:4587   */\n      add\n        /* \"#utility.yul\":4534:4597   */\n      tag_174\n      jump\t// in\n    tag_221:\n        /* \"#utility.yul\":4524:4597   */\n      swap6\n      pop\n        /* \"#utility.yul\":4320:4607   */\n      pop\n        /* \"#utility.yul\":4674:4676   */\n      0x20\n        /* \"#utility.yul\":4663:4672   */\n      dup7\n        /* \"#utility.yul\":4659:4677   */\n      add\n        /* \"#utility.yul\":4646:4678   */\n      calldataload\n        /* \"#utility.yul\":4705:4723   */\n      0xffffffffffffffff\n        /* \"#utility.yul\":4697:4703   */\n      dup2\n        /* \"#utility.yul\":4694:4724   */\n      gt\n        /* \"#utility.yul\":4691:4808   */\n      iszero\n      tag_222\n      jumpi\n        /* \"#utility.yul\":4727:4806   */\n      tag_223\n      tag_208\n      jump\t// in\n    tag_223:\n        /* \"#utility.yul\":4691:4808   */\n    tag_222:\n        /* \"#utility.yul\":4832:4895   */\n      tag_224\n        /* \"#utility.yul\":4887:4894   */\n      dup9\n        /* \"#utility.yul\":4878:4884   */\n      dup3\n        /* \"#utility.yul\":4867:4876   */\n      dup10\n        /* \"#utility.yul\":4863:4885   */\n      add\n        /* \"#utility.yul\":4832:4895   */\n      tag_174\n      jump\t// in\n    tag_224:\n        /* \"#utility.yul\":4822:4895   */\n      swap5\n      pop\n        /* \"#utility.yul\":4617:4905   */\n      pop\n        /* \"#utility.yul\":4972:4974   */\n      0x40\n        /* \"#utility.yul\":4961:4970   */\n      dup7\n        /* \"#utility.yul\":4957:4975   */\n      add\n        /* \"#utility.yul\":4944:4976   */\n      calldataload\n        /* \"#utility.yul\":5003:5021   */\n      0xffffffffffffffff\n        /* \"#utility.yul\":4995:5001   */\n      dup2\n        /* \"#utility.yul\":4992:5022   */\n      gt\n        /* \"#utility.yul\":4989:5106   */\n      iszero\n      tag_225\n      jumpi\n        /* \"#utility.yul\":5025:5104   */\n      tag_226\n      tag_208\n      jump\t// in\n    tag_226:\n        /* \"#utility.yul\":4989:5106   */\n    tag_225:\n        /* \"#utility.yul\":5130:5193   */\n      tag_227\n        /* \"#utility.yul\":5185:5192   */\n      dup9\n        /* \"#utility.yul\":5176:5182   */\n      dup3\n        /* \"#utility.yul\":5165:5174   */\n      dup10\n        /* \"#utility.yul\":5161:5183   */\n      add\n        /* \"#utility.yul\":5130:5193   */\n      tag_174\n      jump\t// in\n    tag_227:\n        /* \"#utility.yul\":5120:5193   */\n      swap4\n      pop\n        /* \"#utility.yul\":4915:5203   */\n      pop\n        /* \"#utility.yul\":5270:5272   */\n      0x60\n        /* \"#utility.yul\":5259:5268   */\n      dup7\n        /* \"#utility.yul\":5255:5273   */\n      add\n        /* \"#utility.yul\":5242:5274   */\n      calldataload\n        /* \"#utility.yul\":5301:5319   */\n      0xffffffffffffffff\n        /* \"#utility.yul\":5293:5299   */\n      dup2\n        /* \"#utility.yul\":5290:5320   */\n      gt\n        /* \"#utility.yul\":5287:5404   */\n      iszero\n      tag_228\n      jumpi\n        /* \"#utility.yul\":5323:5402   */\n      tag_229\n      tag_208\n      jump\t// in\n    tag_229:\n        /* \"#utility.yul\":5287:5404   */\n    tag_228:\n        /* \"#utility.yul\":5428:5491   */\n      tag_230\n        /* \"#utility.yul\":5483:5490   */\n      dup9\n        /* \"#utility.yul\":5474:5480   */\n      dup3\n        /* \"#utility.yul\":5463:5472   */\n      dup10\n        /* \"#utility.yul\":5459:5481   */\n      add\n        /* \"#utility.yul\":5428:5491   */\n      tag_174\n      jump\t// in\n    tag_230:\n        /* \"#utility.yul\":5418:5491   */\n      swap3\n      pop\n        /* \"#utility.yul\":5213:5501   */\n      pop\n        /* \"#utility.yul\":5568:5571   */\n      0x80\n        /* \"#utility.yul\":5557:5566   */\n      dup7\n        /* \"#utility.yul\":5553:5572   */\n      add\n        /* \"#utility.yul\":5540:5573   */\n      calldataload\n        /* \"#utility.yul\":5600:5618   */\n      0xffffffffffffffff\n        /* \"#utility.yul\":5592:5598   */\n      dup2\n        /* \"#utility.yul\":5589:5619   */\n      gt\n        /* \"#utility.yul\":5586:5703   */\n      iszero\n      tag_231\n      jumpi\n        /* \"#utility.yul\":5622:5701   */\n      tag_232\n      tag_208\n      jump\t// in\n    tag_232:\n        /* \"#utility.yul\":5586:5703   */\n    tag_231:\n        /* \"#utility.yul\":5727:5815   */\n      tag_233\n        /* \"#utility.yul\":5807:5814   */\n      dup9\n        /* \"#utility.yul\":5798:5804   */\n      dup3\n        /* \"#utility.yul\":5787:5796   */\n      dup10\n        /* \"#utility.yul\":5783:5805   */\n      add\n        /* \"#utility.yul\":5727:5815   */\n      tag_189\n      jump\t// in\n    tag_233:\n        /* \"#utility.yul\":5717:5815   */\n      swap2\n      pop\n        /* \"#utility.yul\":5511:5825   */\n      pop\n        /* \"#utility.yul\":3971:5832   */\n      swap3\n      swap6\n      pop\n      swap3\n      swap6\n      swap1\n      swap4\n      pop\n      jump\t// out\n        /* \"#utility.yul\":5838:7649   */\n    tag_14:\n        /* \"#utility.yul\":5983:5989   */\n      0x00\n        /* \"#utility.yul\":5991:5997   */\n      dup1\n        /* \"#utility.yul\":5999:6005   */\n      0x00\n        /* \"#utility.yul\":6007:6013   */\n      dup1\n        /* \"#utility.yul\":6015:6021   */\n      0x00\n        /* \"#utility.yul\":6064:6067   */\n      0xa0\n        /* \"#utility.yul\":6052:6061   */\n      dup7\n        /* \"#utility.yul\":6043:6050   */\n      dup9\n        /* \"#utility.yul\":6039:6062   */\n      sub\n        /* \"#utility.yul\":6035:6068   */\n      slt\n        /* \"#utility.yul\":6032:6152   */\n      iszero\n      tag_235\n      jumpi\n        /* \"#utility.yul\":6071:6150   */\n      tag_236\n      tag_201\n      jump\t// in\n    tag_236:\n        /* \"#utility.yul\":6032:6152   */\n    tag_235:\n        /* \"#utility.yul\":6219:6220   */\n      0x00\n        /* \"#utility.yul\":6208:6217   */\n      dup7\n        /* \"#utility.yul\":6204:6221   */\n      add\n        /* \"#utility.yul\":6191:6222   */\n      calldataload\n        /* \"#utility.yul\":6249:6267   */\n      0xffffffffffffffff\n        /* \"#utility.yul\":6241:6247   */\n      dup2\n        /* \"#utility.yul\":6238:6268   */\n      gt\n        /* \"#utility.yul\":6235:6352   */\n      iszero\n      tag_237\n      jumpi\n        /* \"#utility.yul\":6271:6350   */\n      tag_238\n      tag_208\n      jump\t// in\n    tag_238:\n        /* \"#utility.yul\":6235:6352   */\n    tag_237:\n        /* \"#utility.yul\":6376:6439   */\n      tag_239\n        /* \"#utility.yul\":6431:6438   */\n      dup9\n        /* \"#utility.yul\":6422:6428   */\n      dup3\n        /* \"#utility.yul\":6411:6420   */\n      dup10\n        /* \"#utility.yul\":6407:6429   */\n      add\n        /* \"#utility.yul\":6376:6439   */\n      tag_174\n      jump\t// in\n    tag_239:\n        /* \"#utility.yul\":6366:6439   */\n      swap6\n      pop\n        /* \"#utility.yul\":6162:6449   */\n      pop\n        /* \"#utility.yul\":6516:6518   */\n      0x20\n        /* \"#utility.yul\":6505:6514   */\n      dup7\n        /* \"#utility.yul\":6501:6519   */\n      add\n        /* \"#utility.yul\":6488:6520   */\n      calldataload\n        /* \"#utility.yul\":6547:6565   */\n      0xffffffffffffffff\n        /* \"#utility.yul\":6539:6545   */\n      dup2\n        /* \"#utility.yul\":6536:6566   */\n      gt\n        /* \"#utility.yul\":6533:6650   */\n      iszero\n      tag_240\n      jumpi\n        /* \"#utility.yul\":6569:6648   */\n      tag_241\n      tag_208\n      jump\t// in\n    tag_241:\n        /* \"#utility.yul\":6533:6650   */\n    tag_240:\n        /* \"#utility.yul\":6674:6737   */\n      tag_242\n        /* \"#utility.yul\":6729:6736   */\n      dup9\n        /* \"#utility.yul\":6720:6726   */\n      dup3\n        /* \"#utility.yul\":6709:6718   */\n      dup10\n        /* \"#utility.yul\":6705:6727   */\n      add\n        /* \"#utility.yul\":6674:6737   */\n      tag_174\n      jump\t// in\n    tag_242:\n        /* \"#utility.yul\":6664:6737   */\n      swap5\n      pop\n        /* \"#utility.yul\":6459:6747   */\n      pop\n        /* \"#utility.yul\":6814:6816   */\n      0x40\n        /* \"#utility.yul\":6803:6812   */\n      dup7\n        /* \"#utility.yul\":6799:6817   */\n      add\n        /* \"#utility.yul\":6786:6818   */\n      calldataload\n        /* \"#utility.yul\":6845:6863   */\n      0xffffffffffffffff\n        /* \"#utility.yul\":6837:6843   */\n      dup2\n        /* \"#utility.yul\":6834:6864   */\n      gt\n        /* \"#utility.yul\":6831:6948   */\n      iszero\n      tag_243\n      jumpi\n        /* \"#utility.yul\":6867:6946   */\n      tag_244\n      tag_208\n      jump\t// in\n    tag_244:\n        /* \"#utility.yul\":6831:6948   */\n    tag_243:\n        /* \"#utility.yul\":6972:7035   */\n      tag_245\n        /* \"#utility.yul\":7027:7034   */\n      dup9\n        /* \"#utility.yul\":7018:7024   */\n      dup3\n        /* \"#utility.yul\":7007:7016   */\n      dup10\n        /* \"#utility.yul\":7003:7025   */\n      add\n        /* \"#utility.yul\":6972:7035   */\n      tag_174\n      jump\t// in\n    tag_245:\n        /* \"#utility.yul\":6962:7035   */\n      swap4\n      pop\n        /* \"#utility.yul\":6757:7045   */\n      pop\n        /* \"#utility.yul\":7112:7114   */\n      0x60\n        /* \"#utility.yul\":7101:7110   */\n      dup7\n        /* \"#utility.yul\":7097:7115   */\n      add\n        /* \"#utility.yul\":7084:7116   */\n      calldataload\n        /* \"#utility.yul\":7143:7161   */\n      0xffffffffffffffff\n        /* \"#utility.yul\":7135:7141   */\n      dup2\n        /* \"#utility.yul\":7132:7162   */\n      gt\n        /* \"#utility.yul\":7129:7246   */\n      iszero\n      tag_246\n      jumpi\n        /* \"#utility.yul\":7165:7244   */\n      tag_247\n      tag_208\n      jump\t// in\n    tag_247:\n        /* \"#utility.yul\":7129:7246   */\n    tag_246:\n        /* \"#utility.yul\":7270:7333   */\n      tag_248\n        /* \"#utility.yul\":7325:7332   */\n      dup9\n        /* \"#utility.yul\":7316:7322   */\n      dup3\n        /* \"#utility.yul\":7305:7314   */\n      dup10\n        /* \"#utility.yul\":7301:7323   */\n      add\n        /* \"#utility.yul\":7270:7333   */\n      tag_174\n      jump\t// in\n    tag_248:\n        /* \"#utility.yul\":7260:7333   */\n      swap3\n      pop\n        /* \"#utility.yul\":7055:7343   */\n      pop\n        /* \"#utility.yul\":7410:7413   */\n      0x80\n        /* \"#utility.yul\":7399:7408   */\n      dup7\n        /* \"#utility.yul\":7395:7414   */\n      add\n        /* \"#utility.yul\":7382:7415   */\n      calldataload\n        /* \"#utility.yul\":7442:7460   */\n      0xffffffffffffffff\n        /* \"#utility.yul\":7434:7440   */\n      dup2\n        /* \"#utility.yul\":7431:7461   */\n      gt\n        /* \"#utility.yul\":7428:7545   */\n      iszero\n      tag_249\n      jumpi\n        /* \"#utility.yul\":7464:7543   */\n      tag_250\n      tag_208\n      jump\t// in\n    tag_250:\n        /* \"#utility.yul\":7428:7545   */\n    tag_249:\n        /* \"#utility.yul\":7569:7632   */\n      tag_251\n        /* \"#utility.yul\":7624:7631   */\n      dup9\n        /* \"#utility.yul\":7615:7621   */\n      dup3\n        /* \"#utility.yul\":7604:7613   */\n      dup10\n        /* \"#utility.yul\":7600:7622   */\n      add\n        /* \"#utility.yul\":7569:7632   */\n      tag_174\n      jump\t// in\n    tag_251:\n        /* \"#utility.yul\":7559:7632   */\n      swap2\n      pop\n        /* \"#utility.yul\":7353:7642   */\n      pop\n        /* \"#utility.yul\":5838:7649   */\n      swap3\n      swap6\n      pop\n      swap3\n      swap6\n      swap1\n      swap4\n      pop\n      jump\t// out\n        /* \"#utility.yul\":7655:7851   */\n    tag_252:\n        /* \"#utility.yul\":7744:7754   */\n      0x00\n        /* \"#utility.yul\":7779:7845   */\n      tag_254\n        /* \"#utility.yul\":7841:7844   */\n      dup4\n        /* \"#utility.yul\":7833:7839   */\n      dup4\n        /* \"#utility.yul\":7779:7845   */\n      tag_255\n      jump\t// in\n    tag_254:\n        /* \"#utility.yul\":7765:7845   */\n      swap1\n      pop\n        /* \"#utility.yul\":7655:7851   */\n      swap3\n      swap2\n      pop\n      pop\n      jump\t// out\n        /* \"#utility.yul\":7857:7975   */\n    tag_256:\n        /* \"#utility.yul\":7944:7968   */\n      tag_258\n        /* \"#utility.yul\":7962:7967   */\n      dup2\n        /* \"#utility.yul\":7944:7968   */\n      tag_259\n      jump\t// in\n    tag_258:\n        /* \"#utility.yul\":7939:7942   */\n      dup3\n        /* \"#utility.yul\":7932:7969   */\n      mstore\n        /* \"#utility.yul\":7857:7975   */\n      pop\n      pop\n      jump\t// out\n        /* \"#utility.yul\":8009:8980   */\n    tag_260:\n        /* \"#utility.yul\":8138:8141   */\n      0x00\n        /* \"#utility.yul\":8167:8231   */\n      tag_262\n        /* \"#utility.yul\":8225:8230   */\n      dup3\n        /* \"#utility.yul\":8167:8231   */\n      tag_263\n      jump\t// in\n    tag_262:\n        /* \"#utility.yul\":8247:8333   */\n      tag_264\n        /* \"#utility.yul\":8326:8332   */\n      dup2\n        /* \"#utility.yul\":8321:8324   */\n      dup6\n        /* \"#utility.yul\":8247:8333   */\n      tag_265\n      jump\t// in\n    tag_264:\n        /* \"#utility.yul\":8240:8333   */\n      swap4\n      pop\n        /* \"#utility.yul\":8359:8362   */\n      dup4\n        /* \"#utility.yul\":8404:8408   */\n      0x20\n        /* \"#utility.yul\":8396:8402   */\n      dup3\n        /* \"#utility.yul\":8392:8409   */\n      mul\n        /* \"#utility.yul\":8387:8390   */\n      dup6\n        /* \"#utility.yul\":8383:8410   */\n      add\n        /* \"#utility.yul\":8434:8500   */\n      tag_266\n        /* \"#utility.yul\":8494:8499   */\n      dup6\n        /* \"#utility.yul\":8434:8500   */\n      tag_267\n      jump\t// in\n    tag_266:\n        /* \"#utility.yul\":8523:8530   */\n      dup1\n        /* \"#utility.yul\":8554:8555   */\n      0x00\n        /* \"#utility.yul\":8539:8935   */\n    tag_268:\n        /* \"#utility.yul\":8564:8570   */\n      dup6\n        /* \"#utility.yul\":8561:8562   */\n      dup2\n        /* \"#utility.yul\":8558:8571   */\n      lt\n        /* \"#utility.yul\":8539:8935   */\n      iszero\n      tag_270\n      jumpi\n        /* \"#utility.yul\":8635:8644   */\n      dup5\n        /* \"#utility.yul\":8629:8633   */\n      dup5\n        /* \"#utility.yul\":8625:8645   */\n      sub\n        /* \"#utility.yul\":8620:8623   */\n      dup10\n        /* \"#utility.yul\":8613:8646   */\n      mstore\n        /* \"#utility.yul\":8686:8692   */\n      dup2\n        /* \"#utility.yul\":8680:8693   */\n      mload\n        /* \"#utility.yul\":8714:8798   */\n      tag_271\n        /* \"#utility.yul\":8793:8797   */\n      dup6\n        /* \"#utility.yul\":8778:8791   */\n      dup3\n        /* \"#utility.yul\":8714:8798   */\n      tag_252\n      jump\t// in\n    tag_271:\n        /* \"#utility.yul\":8706:8798   */\n      swap5\n      pop\n        /* \"#utility.yul\":8821:8891   */\n      tag_272\n        /* \"#utility.yul\":8884:8890   */\n      dup4\n        /* \"#utility.yul\":8821:8891   */\n      tag_273\n      jump\t// in\n    tag_272:\n        /* \"#utility.yul\":8811:8891   */\n      swap3\n      pop\n        /* \"#utility.yul\":8920:8924   */\n      0x20\n        /* \"#utility.yul\":8915:8918   */\n      dup11\n        /* \"#utility.yul\":8911:8925   */\n      add\n        /* \"#utility.yul\":8904:8925   */\n      swap10\n      pop\n        /* \"#utility.yul\":8599:8935   */\n      pop\n        /* \"#utility.yul\":8586:8587   */\n      0x01\n        /* \"#utility.yul\":8583:8584   */\n      dup2\n        /* \"#utility.yul\":8579:8588   */\n      add\n        /* \"#utility.yul\":8574:8588   */\n      swap1\n      pop\n        /* \"#utility.yul\":8539:8935   */\n      jump(tag_268)\n    tag_270:\n        /* \"#utility.yul\":8543:8557   */\n      pop\n        /* \"#utility.yul\":8951:8955   */\n      dup3\n        /* \"#utility.yul\":8944:8955   */\n      swap8\n      pop\n        /* \"#utility.yul\":8971:8974   */\n      dup8\n        /* \"#utility.yul\":8964:8974   */\n      swap6\n      pop\n        /* \"#utility.yul\":8143:8980   */\n      pop\n      pop\n      pop\n      pop\n      pop\n        /* \"#utility.yul\":8009:8980   */\n      swap3\n      swap2\n      pop\n      pop\n      jump\t// out\n        /* \"#utility.yul\":8986:9330   */\n    tag_255:\n        /* \"#utility.yul\":9064:9067   */\n      0x00\n        /* \"#utility.yul\":9092:9131   */\n      tag_275\n        /* \"#utility.yul\":9125:9130   */\n      dup3\n        /* \"#utility.yul\":9092:9131   */\n      tag_276\n      jump\t// in\n    tag_275:\n        /* \"#utility.yul\":9147:9208   */\n      tag_277\n        /* \"#utility.yul\":9201:9207   */\n      dup2\n        /* \"#utility.yul\":9196:9199   */\n      dup6\n        /* \"#utility.yul\":9147:9208   */\n      tag_278\n      jump\t// in\n    tag_277:\n        /* \"#utility.yul\":9140:9208   */\n      swap4\n      pop\n        /* \"#utility.yul\":9217:9269   */\n      tag_279\n        /* \"#utility.yul\":9262:9268   */\n      dup2\n        /* \"#utility.yul\":9257:9260   */\n      dup6\n        /* \"#utility.yul\":9250:9254   */\n      0x20\n        /* \"#utility.yul\":9243:9248   */\n      dup7\n        /* \"#utility.yul\":9239:9255   */\n      add\n        /* \"#utility.yul\":9217:9269   */\n      tag_280\n      jump\t// in\n    tag_279:\n        /* \"#utility.yul\":9294:9323   */\n      tag_281\n        /* \"#utility.yul\":9316:9322   */\n      dup2\n        /* \"#utility.yul\":9294:9323   */\n      tag_282\n      jump\t// in\n    tag_281:\n        /* \"#utility.yul\":9289:9292   */\n      dup5\n        /* \"#utility.yul\":9285:9324   */\n      add\n        /* \"#utility.yul\":9278:9324   */\n      swap2\n      pop\n        /* \"#utility.yul\":9068:9330   */\n      pop\n        /* \"#utility.yul\":8986:9330   */\n      swap3\n      swap2\n      pop\n      pop\n      jump\t// out\n        /* \"#utility.yul\":9336:9700   */\n    tag_283:\n        /* \"#utility.yul\":9424:9427   */\n      0x00\n        /* \"#utility.yul\":9452:9491   */\n      tag_285\n        /* \"#utility.yul\":9485:9490   */\n      dup3\n        /* \"#utility.yul\":9452:9491   */\n      tag_276\n      jump\t// in\n    tag_285:\n        /* \"#utility.yul\":9507:9578   */\n      tag_286\n        /* \"#utility.yul\":9571:9577   */\n      dup2\n        /* \"#utility.yul\":9566:9569   */\n      dup6\n        /* \"#utility.yul\":9507:9578   */\n      tag_287\n      jump\t// in\n    tag_286:\n        /* \"#utility.yul\":9500:9578   */\n      swap4\n      pop\n        /* \"#utility.yul\":9587:9639   */\n      tag_288\n        /* \"#utility.yul\":9632:9638   */\n      dup2\n        /* \"#utility.yul\":9627:9630   */\n      dup6\n        /* \"#utility.yul\":9620:9624   */\n      0x20\n        /* \"#utility.yul\":9613:9618   */\n      dup7\n        /* \"#utility.yul\":9609:9625   */\n      add\n        /* \"#utility.yul\":9587:9639   */\n      tag_280\n      jump\t// in\n    tag_288:\n        /* \"#utility.yul\":9664:9693   */\n      tag_289\n        /* \"#utility.yul\":9686:9692   */\n      dup2\n        /* \"#utility.yul\":9664:9693   */\n      tag_282\n      jump\t// in\n    tag_289:\n        /* \"#utility.yul\":9659:9662   */\n      dup5\n        /* \"#utility.yul\":9655:9694   */\n      add\n        /* \"#utility.yul\":9648:9694   */\n      swap2\n      pop\n        /* \"#utility.yul\":9428:9700   */\n      pop\n        /* \"#utility.yul\":9336:9700   */\n      swap3\n      swap2\n      pop\n      pop\n      jump\t// out\n        /* \"#utility.yul\":9764:11182   */\n    tag_290:\n        /* \"#utility.yul\":9881:9884   */\n      0x00\n        /* \"#utility.yul\":9917:9921   */\n      0xa0\n        /* \"#utility.yul\":9912:9915   */\n      dup4\n        /* \"#utility.yul\":9908:9922   */\n      add\n        /* \"#utility.yul\":10005:10009   */\n      0x00\n        /* \"#utility.yul\":9998:10003   */\n      dup4\n        /* \"#utility.yul\":9994:10010   */\n      add\n        /* \"#utility.yul\":9988:10011   */\n      mload\n        /* \"#utility.yul\":10058:10061   */\n      dup5\n        /* \"#utility.yul\":10052:10056   */\n      dup3\n        /* \"#utility.yul\":10048:10062   */\n      sub\n        /* \"#utility.yul\":10041:10045   */\n      0x00\n        /* \"#utility.yul\":10036:10039   */\n      dup7\n        /* \"#utility.yul\":10032:10046   */\n      add\n        /* \"#utility.yul\":10025:10063   */\n      mstore\n        /* \"#utility.yul\":10084:10157   */\n      tag_292\n        /* \"#utility.yul\":10152:10156   */\n      dup3\n        /* \"#utility.yul\":10138:10150   */\n      dup3\n        /* \"#utility.yul\":10084:10157   */\n      tag_255\n      jump\t// in\n    tag_292:\n        /* \"#utility.yul\":10076:10157   */\n      swap2\n      pop\n        /* \"#utility.yul\":9932:10168   */\n      pop\n        /* \"#utility.yul\":10251:10255   */\n      0x20\n        /* \"#utility.yul\":10244:10249   */\n      dup4\n        /* \"#utility.yul\":10240:10256   */\n      add\n        /* \"#utility.yul\":10234:10257   */\n      mload\n        /* \"#utility.yul\":10304:10307   */\n      dup5\n        /* \"#utility.yul\":10298:10302   */\n      dup3\n        /* \"#utility.yul\":10294:10308   */\n      sub\n        /* \"#utility.yul\":10287:10291   */\n      0x20\n        /* \"#utility.yul\":10282:10285   */\n      dup7\n        /* \"#utility.yul\":10278:10292   */\n      add\n        /* \"#utility.yul\":10271:10309   */\n      mstore\n        /* \"#utility.yul\":10330:10403   */\n      tag_293\n        /* \"#utility.yul\":10398:10402   */\n      dup3\n        /* \"#utility.yul\":10384:10396   */\n      dup3\n        /* \"#utility.yul\":10330:10403   */\n      tag_255\n      jump\t// in\n    tag_293:\n        /* \"#utility.yul\":10322:10403   */\n      swap2\n      pop\n        /* \"#utility.yul\":10178:10414   */\n      pop\n        /* \"#utility.yul\":10498:10502   */\n      0x40\n        /* \"#utility.yul\":10491:10496   */\n      dup4\n        /* \"#utility.yul\":10487:10503   */\n      add\n        /* \"#utility.yul\":10481:10504   */\n      mload\n        /* \"#utility.yul\":10551:10554   */\n      dup5\n        /* \"#utility.yul\":10545:10549   */\n      dup3\n        /* \"#utility.yul\":10541:10555   */\n      sub\n        /* \"#utility.yul\":10534:10538   */\n      0x40\n        /* \"#utility.yul\":10529:10532   */\n      dup7\n        /* \"#utility.yul\":10525:10539   */\n      add\n        /* \"#utility.yul\":10518:10556   */\n      mstore\n        /* \"#utility.yul\":10577:10650   */\n      tag_294\n        /* \"#utility.yul\":10645:10649   */\n      dup3\n        /* \"#utility.yul\":10631:10643   */\n      dup3\n        /* \"#utility.yul\":10577:10650   */\n      tag_255\n      jump\t// in\n    tag_294:\n        /* \"#utility.yul\":10569:10650   */\n      swap2\n      pop\n        /* \"#utility.yul\":10424:10661   */\n      pop\n        /* \"#utility.yul\":10745:10749   */\n      0x60\n        /* \"#utility.yul\":10738:10743   */\n      dup4\n        /* \"#utility.yul\":10734:10750   */\n      add\n        /* \"#utility.yul\":10728:10751   */\n      mload\n        /* \"#utility.yul\":10798:10801   */\n      dup5\n        /* \"#utility.yul\":10792:10796   */\n      dup3\n        /* \"#utility.yul\":10788:10802   */\n      sub\n        /* \"#utility.yul\":10781:10785   */\n      0x60\n        /* \"#utility.yul\":10776:10779   */\n      dup7\n        /* \"#utility.yul\":10772:10786   */\n      add\n        /* \"#utility.yul\":10765:10803   */\n      mstore\n        /* \"#utility.yul\":10824:10897   */\n      tag_295\n        /* \"#utility.yul\":10892:10896   */\n      dup3\n        /* \"#utility.yul\":10878:10890   */\n      dup3\n        /* \"#utility.yul\":10824:10897   */\n      tag_255\n      jump\t// in\n    tag_295:\n        /* \"#utility.yul\":10816:10897   */\n      swap2\n      pop\n        /* \"#utility.yul\":10671:10908   */\n      pop\n        /* \"#utility.yul\":10992:10996   */\n      0x80\n        /* \"#utility.yul\":10985:10990   */\n      dup4\n        /* \"#utility.yul\":10981:10997   */\n      add\n        /* \"#utility.yul\":10975:10998   */\n      mload\n        /* \"#utility.yul\":11045:11048   */\n      dup5\n        /* \"#utility.yul\":11039:11043   */\n      dup3\n        /* \"#utility.yul\":11035:11049   */\n      sub\n        /* \"#utility.yul\":11028:11032   */\n      0x80\n        /* \"#utility.yul\":11023:11026   */\n      dup7\n        /* \"#utility.yul\":11019:11033   */\n      add\n        /* \"#utility.yul\":11012:11050   */\n      mstore\n        /* \"#utility.yul\":11071:11144   */\n      tag_296\n        /* \"#utility.yul\":11139:11143   */\n      dup3\n        /* \"#utility.yul\":11125:11137   */\n      dup3\n        /* \"#utility.yul\":11071:11144   */\n      tag_255\n      jump\t// in\n    tag_296:\n        /* \"#utility.yul\":11063:11144   */\n      swap2\n      pop\n        /* \"#utility.yul\":10918:11155   */\n      pop\n        /* \"#utility.yul\":11172:11176   */\n      dup1\n        /* \"#utility.yul\":11165:11176   */\n      swap2\n      pop\n        /* \"#utility.yul\":9886:11182   */\n      pop\n        /* \"#utility.yul\":9764:11182   */\n      swap3\n      swap2\n      pop\n      pop\n      jump\t// out\n        /* \"#utility.yul\":11240:12316   */\n    tag_297:\n        /* \"#utility.yul\":11351:11354   */\n      0x00\n        /* \"#utility.yul\":11387:11391   */\n      0x60\n        /* \"#utility.yul\":11382:11385   */\n      dup4\n        /* \"#utility.yul\":11378:11392   */\n      add\n        /* \"#utility.yul\":11478:11482   */\n      0x00\n        /* \"#utility.yul\":11471:11476   */\n      dup4\n        /* \"#utility.yul\":11467:11483   */\n      add\n        /* \"#utility.yul\":11461:11484   */\n      mload\n        /* \"#utility.yul\":11531:11534   */\n      dup5\n        /* \"#utility.yul\":11525:11529   */\n      dup3\n        /* \"#utility.yul\":11521:11535   */\n      sub\n        /* \"#utility.yul\":11514:11518   */\n      0x00\n        /* \"#utility.yul\":11509:11512   */\n      dup7\n        /* \"#utility.yul\":11505:11519   */\n      add\n        /* \"#utility.yul\":11498:11536   */\n      mstore\n        /* \"#utility.yul\":11557:11680   */\n      tag_299\n        /* \"#utility.yul\":11675:11679   */\n      dup3\n        /* \"#utility.yul\":11661:11673   */\n      dup3\n        /* \"#utility.yul\":11557:11680   */\n      tag_260\n      jump\t// in\n    tag_299:\n        /* \"#utility.yul\":11549:11680   */\n      swap2\n      pop\n        /* \"#utility.yul\":11402:11691   */\n      pop\n        /* \"#utility.yul\":11776:11780   */\n      0x20\n        /* \"#utility.yul\":11769:11774   */\n      dup4\n        /* \"#utility.yul\":11765:11781   */\n      add\n        /* \"#utility.yul\":11759:11782   */\n      mload\n        /* \"#utility.yul\":11829:11832   */\n      dup5\n        /* \"#utility.yul\":11823:11827   */\n      dup3\n        /* \"#utility.yul\":11819:11833   */\n      sub\n        /* \"#utility.yul\":11812:11816   */\n      0x20\n        /* \"#utility.yul\":11807:11810   */\n      dup7\n        /* \"#utility.yul\":11803:11817   */\n      add\n        /* \"#utility.yul\":11796:11834   */\n      mstore\n        /* \"#utility.yul\":11855:11978   */\n      tag_300\n        /* \"#utility.yul\":11973:11977   */\n      dup3\n        /* \"#utility.yul\":11959:11971   */\n      dup3\n        /* \"#utility.yul\":11855:11978   */\n      tag_260\n      jump\t// in\n    tag_300:\n        /* \"#utility.yul\":11847:11978   */\n      swap2\n      pop\n        /* \"#utility.yul\":11701:11989   */\n      pop\n        /* \"#utility.yul\":12076:12080   */\n      0x40\n        /* \"#utility.yul\":12069:12074   */\n      dup4\n        /* \"#utility.yul\":12065:12081   */\n      add\n        /* \"#utility.yul\":12059:12082   */\n      mload\n        /* \"#utility.yul\":12129:12132   */\n      dup5\n        /* \"#utility.yul\":12123:12127   */\n      dup3\n        /* \"#utility.yul\":12119:12133   */\n      sub\n        /* \"#utility.yul\":12112:12116   */\n      0x40\n        /* \"#utility.yul\":12107:12110   */\n      dup7\n        /* \"#utility.yul\":12103:12117   */\n      add\n        /* \"#utility.yul\":12096:12134   */\n      mstore\n        /* \"#utility.yul\":12155:12278   */\n      tag_301\n        /* \"#utility.yul\":12273:12277   */\n      dup3\n        /* \"#utility.yul\":12259:12271   */\n      dup3\n        /* \"#utility.yul\":12155:12278   */\n      tag_260\n      jump\t// in\n    tag_301:\n        /* \"#utility.yul\":12147:12278   */\n      swap2\n      pop\n        /* \"#utility.yul\":11999:12289   */\n      pop\n        /* \"#utility.yul\":12306:12310   */\n      dup1\n        /* \"#utility.yul\":12299:12310   */\n      swap2\n      pop\n        /* \"#utility.yul\":11356:12316   */\n      pop\n        /* \"#utility.yul\":11240:12316   */\n      swap3\n      swap2\n      pop\n      pop\n      jump\t// out\n        /* \"#utility.yul\":12322:12440   */\n    tag_302:\n        /* \"#utility.yul\":12409:12433   */\n      tag_304\n        /* \"#utility.yul\":12427:12432   */\n      dup2\n        /* \"#utility.yul\":12409:12433   */\n      tag_305\n      jump\t// in\n    tag_304:\n        /* \"#utility.yul\":12404:12407   */\n      dup3\n        /* \"#utility.yul\":12397:12434   */\n      mstore\n        /* \"#utility.yul\":12322:12440   */\n      pop\n      pop\n      jump\t// out\n        /* \"#utility.yul\":12446:14089   */\n    tag_21:\n        /* \"#utility.yul\":12905:12909   */\n      0x00\n        /* \"#utility.yul\":12943:12946   */\n      0x0100\n        /* \"#utility.yul\":12932:12941   */\n      dup3\n        /* \"#utility.yul\":12928:12947   */\n      add\n        /* \"#utility.yul\":12920:12947   */\n      swap1\n      pop\n        /* \"#utility.yul\":12957:13028   */\n      tag_307\n        /* \"#utility.yul\":13025:13026   */\n      0x00\n        /* \"#utility.yul\":13014:13023   */\n      dup4\n        /* \"#utility.yul\":13010:13027   */\n      add\n        /* \"#utility.yul\":13001:13007   */\n      dup12\n        /* \"#utility.yul\":12957:13028   */\n      tag_256\n      jump\t// in\n    tag_307:\n        /* \"#utility.yul\":13075:13084   */\n      dup2\n        /* \"#utility.yul\":13069:13073   */\n      dup2\n        /* \"#utility.yul\":13065:13085   */\n      sub\n        /* \"#utility.yul\":13060:13062   */\n      0x20\n        /* \"#utility.yul\":13049:13058   */\n      dup4\n        /* \"#utility.yul\":13045:13063   */\n      add\n        /* \"#utility.yul\":13038:13086   */\n      mstore\n        /* \"#utility.yul\":13103:13181   */\n      tag_308\n        /* \"#utility.yul\":13176:13180   */\n      dup2\n        /* \"#utility.yul\":13167:13173   */\n      dup11\n        /* \"#utility.yul\":13103:13181   */\n      tag_283\n      jump\t// in\n    tag_308:\n        /* \"#utility.yul\":13095:13181   */\n      swap1\n      pop\n        /* \"#utility.yul\":13228:13237   */\n      dup2\n        /* \"#utility.yul\":13222:13226   */\n      dup2\n        /* \"#utility.yul\":13218:13238   */\n      sub\n        /* \"#utility.yul\":13213:13215   */\n      0x40\n        /* \"#utility.yul\":13202:13211   */\n      dup4\n        /* \"#utility.yul\":13198:13216   */\n      add\n        /* \"#utility.yul\":13191:13239   */\n      mstore\n        /* \"#utility.yul\":13256:13334   */\n      tag_309\n        /* \"#utility.yul\":13329:13333   */\n      dup2\n        /* \"#utility.yul\":13320:13326   */\n      dup10\n        /* \"#utility.yul\":13256:13334   */\n      tag_283\n      jump\t// in\n    tag_309:\n        /* \"#utility.yul\":13248:13334   */\n      swap1\n      pop\n        /* \"#utility.yul\":13381:13390   */\n      dup2\n        /* \"#utility.yul\":13375:13379   */\n      dup2\n        /* \"#utility.yul\":13371:13391   */\n      sub\n        /* \"#utility.yul\":13366:13368   */\n      0x60\n        /* \"#utility.yul\":13355:13364   */\n      dup4\n        /* \"#utility.yul\":13351:13369   */\n      add\n        /* \"#utility.yul\":13344:13392   */\n      mstore\n        /* \"#utility.yul\":13409:13487   */\n      tag_310\n        /* \"#utility.yul\":13482:13486   */\n      dup2\n        /* \"#utility.yul\":13473:13479   */\n      dup9\n        /* \"#utility.yul\":13409:13487   */\n      tag_283\n      jump\t// in\n    tag_310:\n        /* \"#utility.yul\":13401:13487   */\n      swap1\n      pop\n        /* \"#utility.yul\":13535:13544   */\n      dup2\n        /* \"#utility.yul\":13529:13533   */\n      dup2\n        /* \"#utility.yul\":13525:13545   */\n      sub\n        /* \"#utility.yul\":13519:13522   */\n      0x80\n        /* \"#utility.yul\":13508:13517   */\n      dup4\n        /* \"#utility.yul\":13504:13523   */\n      add\n        /* \"#utility.yul\":13497:13546   */\n      mstore\n        /* \"#utility.yul\":13563:13641   */\n      tag_311\n        /* \"#utility.yul\":13636:13640   */\n      dup2\n        /* \"#utility.yul\":13627:13633   */\n      dup8\n        /* \"#utility.yul\":13563:13641   */\n      tag_283\n      jump\t// in\n    tag_311:\n        /* \"#utility.yul\":13555:13641   */\n      swap1\n      pop\n        /* \"#utility.yul\":13651:13724   */\n      tag_312\n        /* \"#utility.yul\":13719:13722   */\n      0xa0\n        /* \"#utility.yul\":13708:13717   */\n      dup4\n        /* \"#utility.yul\":13704:13723   */\n      add\n        /* \"#utility.yul\":13695:13701   */\n      dup7\n        /* \"#utility.yul\":13651:13724   */\n      tag_302\n      jump\t// in\n    tag_312:\n        /* \"#utility.yul\":13772:13781   */\n      dup2\n        /* \"#utility.yul\":13766:13770   */\n      dup2\n        /* \"#utility.yul\":13762:13782   */\n      sub\n        /* \"#utility.yul\":13756:13759   */\n      0xc0\n        /* \"#utility.yul\":13745:13754   */\n      dup4\n        /* \"#utility.yul\":13741:13760   */\n      add\n        /* \"#utility.yul\":13734:13783   */\n      mstore\n        /* \"#utility.yul\":13800:13906   */\n      tag_313\n        /* \"#utility.yul\":13901:13905   */\n      dup2\n        /* \"#utility.yul\":13892:13898   */\n      dup6\n        /* \"#utility.yul\":13800:13906   */\n      tag_290\n      jump\t// in\n    tag_313:\n        /* \"#utility.yul\":13792:13906   */\n      swap1\n      pop\n        /* \"#utility.yul\":13954:13963   */\n      dup2\n        /* \"#utility.yul\":13948:13952   */\n      dup2\n        /* \"#utility.yul\":13944:13964   */\n      sub\n        /* \"#utility.yul\":13938:13941   */\n      0xe0\n        /* \"#utility.yul\":13927:13936   */\n      dup4\n        /* \"#utility.yul\":13923:13942   */\n      add\n        /* \"#utility.yul\":13916:13965   */\n      mstore\n        /* \"#utility.yul\":13982:14082   */\n      tag_314\n        /* \"#utility.yul\":14077:14081   */\n      dup2\n        /* \"#utility.yul\":14068:14074   */\n      dup5\n        /* \"#utility.yul\":13982:14082   */\n      tag_297\n      jump\t// in\n    tag_314:\n        /* \"#utility.yul\":13974:14082   */\n      swap1\n      pop\n        /* \"#utility.yul\":12446:14089   */\n      swap10\n      swap9\n      pop\n      pop\n      pop\n      pop\n      pop\n      pop\n      pop\n      pop\n      pop\n      jump\t// out\n        /* \"#utility.yul\":14095:14224   */\n    tag_163:\n        /* \"#utility.yul\":14129:14135   */\n      0x00\n        /* \"#utility.yul\":14156:14176   */\n      tag_316\n      tag_317\n      jump\t// in\n    tag_316:\n        /* \"#utility.yul\":14146:14176   */\n      swap1\n      pop\n        /* \"#utility.yul\":14185:14218   */\n      tag_318\n        /* \"#utility.yul\":14213:14217   */\n      dup3\n        /* \"#utility.yul\":14205:14211   */\n      dup3\n        /* \"#utility.yul\":14185:14218   */\n      tag_319\n      jump\t// in\n    tag_318:\n        /* \"#utility.yul\":14095:14224   */\n      swap2\n      swap1\n      pop\n      jump\t// out\n        /* \"#utility.yul\":14230:14305   */\n    tag_317:\n        /* \"#utility.yul\":14263:14269   */\n      0x00\n        /* \"#utility.yul\":14296:14298   */\n      0x40\n        /* \"#utility.yul\":14290:14299   */\n      mload\n        /* \"#utility.yul\":14280:14299   */\n      swap1\n      pop\n        /* \"#utility.yul\":14230:14305   */\n      swap1\n      jump\t// out\n        /* \"#utility.yul\":14311:14632   */\n    tag_162:\n        /* \"#utility.yul\":14398:14402   */\n      0x00\n        /* \"#utility.yul\":14488:14506   */\n      0xffffffffffffffff\n        /* \"#utility.yul\":14480:14486   */\n      dup3\n        /* \"#utility.yul\":14477:14507   */\n      gt\n        /* \"#utility.yul\":14474:14530   */\n      iszero\n      tag_322\n      jumpi\n        /* \"#utility.yul\":14510:14528   */\n      tag_323\n      tag_324\n      jump\t// in\n    tag_323:\n        /* \"#utility.yul\":14474:14530   */\n    tag_322:\n        /* \"#utility.yul\":14560:14564   */\n      0x20\n        /* \"#utility.yul\":14552:14558   */\n      dup3\n        /* \"#utility.yul\":14548:14565   */\n      mul\n        /* \"#utility.yul\":14540:14565   */\n      swap1\n      pop\n        /* \"#utility.yul\":14620:14624   */\n      0x20\n        /* \"#utility.yul\":14614:14618   */\n      dup2\n        /* \"#utility.yul\":14610:14625   */\n      add\n        /* \"#utility.yul\":14602:14625   */\n      swap1\n      pop\n        /* \"#utility.yul\":14311:14632   */\n      swap2\n      swap1\n      pop\n      jump\t// out\n        /* \"#utility.yul\":14638:14946   */\n    tag_179:\n        /* \"#utility.yul\":14700:14704   */\n      0x00\n        /* \"#utility.yul\":14790:14808   */\n      0xffffffffffffffff\n        /* \"#utility.yul\":14782:14788   */\n      dup3\n        /* \"#utility.yul\":14779:14809   */\n      gt\n        /* \"#utility.yul\":14776:14832   */\n      iszero\n      tag_326\n      jumpi\n        /* \"#utility.yul\":14812:14830   */\n      tag_327\n      tag_324\n      jump\t// in\n    tag_327:\n        /* \"#utility.yul\":14776:14832   */\n    tag_326:\n        /* \"#utility.yul\":14850:14879   */\n      tag_328\n        /* \"#utility.yul\":14872:14878   */\n      dup3\n        /* \"#utility.yul\":14850:14879   */\n      tag_282\n      jump\t// in\n    tag_328:\n        /* \"#utility.yul\":14842:14879   */\n      swap1\n      pop\n        /* \"#utility.yul\":14934:14938   */\n      0x20\n        /* \"#utility.yul\":14928:14932   */\n      dup2\n        /* \"#utility.yul\":14924:14939   */\n      add\n        /* \"#utility.yul\":14916:14939   */\n      swap1\n      pop\n        /* \"#utility.yul\":14638:14946   */\n      swap2\n      swap1\n      pop\n      jump\t// out\n        /* \"#utility.yul\":14952:15094   */\n    tag_267:\n        /* \"#utility.yul\":15029:15033   */\n      0x00\n        /* \"#utility.yul\":15052:15055   */\n      dup2\n        /* \"#utility.yul\":15044:15055   */\n      swap1\n      pop\n        /* \"#utility.yul\":15082:15086   */\n      0x20\n        /* \"#utility.yul\":15077:15080   */\n      dup3\n        /* \"#utility.yul\":15073:15087   */\n      add\n        /* \"#utility.yul\":15065:15087   */\n      swap1\n      pop\n        /* \"#utility.yul\":14952:15094   */\n      swap2\n      swap1\n      pop\n      jump\t// out\n        /* \"#utility.yul\":15100:15224   */\n    tag_263:\n        /* \"#utility.yul\":15177:15183   */\n      0x00\n        /* \"#utility.yul\":15211:15216   */\n      dup2\n        /* \"#utility.yul\":15205:15217   */\n      mload\n        /* \"#utility.yul\":15195:15217   */\n      swap1\n      pop\n        /* \"#utility.yul\":15100:15224   */\n      swap2\n      swap1\n      pop\n      jump\t// out\n        /* \"#utility.yul\":15230:15329   */\n    tag_276:\n        /* \"#utility.yul\":15282:15288   */\n      0x00\n        /* \"#utility.yul\":15316:15321   */\n      dup2\n        /* \"#utility.yul\":15310:15322   */\n      mload\n        /* \"#utility.yul\":15300:15322   */\n      swap1\n      pop\n        /* \"#utility.yul\":15230:15329   */\n      swap2\n      swap1\n      pop\n      jump\t// out\n        /* \"#utility.yul\":15335:15458   */\n    tag_273:\n        /* \"#utility.yul\":15415:15419   */\n      0x00\n        /* \"#utility.yul\":15447:15451   */\n      0x20\n        /* \"#utility.yul\":15442:15445   */\n      dup3\n        /* \"#utility.yul\":15438:15452   */\n      add\n        /* \"#utility.yul\":15430:15452   */\n      swap1\n      pop\n        /* \"#utility.yul\":15335:15458   */\n      swap2\n      swap1\n      pop\n      jump\t// out\n        /* \"#utility.yul\":15464:15648   */\n    tag_265:\n        /* \"#utility.yul\":15563:15574   */\n      0x00\n        /* \"#utility.yul\":15597:15603   */\n      dup3\n        /* \"#utility.yul\":15592:15595   */\n      dup3\n        /* \"#utility.yul\":15585:15604   */\n      mstore\n        /* \"#utility.yul\":15637:15641   */\n      0x20\n        /* \"#utility.yul\":15632:15635   */\n      dup3\n        /* \"#utility.yul\":15628:15642   */\n      add\n        /* \"#utility.yul\":15613:15642   */\n      swap1\n      pop\n        /* \"#utility.yul\":15464:15648   */\n      swap3\n      swap2\n      pop\n      pop\n      jump\t// out\n        /* \"#utility.yul\":15654:15813   */\n    tag_278:\n        /* \"#utility.yul\":15728:15739   */\n      0x00\n        /* \"#utility.yul\":15762:15768   */\n      dup3\n        /* \"#utility.yul\":15757:15760   */\n      dup3\n        /* \"#utility.yul\":15750:15769   */\n      mstore\n        /* \"#utility.yul\":15802:15806   */\n      0x20\n        /* \"#utility.yul\":15797:15800   */\n      dup3\n        /* \"#utility.yul\":15793:15807   */\n      add\n        /* \"#utility.yul\":15778:15807   */\n      swap1\n      pop\n        /* \"#utility.yul\":15654:15813   */\n      swap3\n      swap2\n      pop\n      pop\n      jump\t// out\n        /* \"#utility.yul\":15819:15988   */\n    tag_287:\n        /* \"#utility.yul\":15903:15914   */\n      0x00\n        /* \"#utility.yul\":15937:15943   */\n      dup3\n        /* \"#utility.yul\":15932:15935   */\n      dup3\n        /* \"#utility.yul\":15925:15944   */\n      mstore\n        /* \"#utility.yul\":15977:15981   */\n      0x20\n        /* \"#utility.yul\":15972:15975   */\n      dup3\n        /* \"#utility.yul\":15968:15982   */\n      add\n        /* \"#utility.yul\":15953:15982   */\n      swap1\n      pop\n        /* \"#utility.yul\":15819:15988   */\n      swap3\n      swap2\n      pop\n      pop\n      jump\t// out\n        /* \"#utility.yul\":15994:16090   */\n    tag_259:\n        /* \"#utility.yul\":16031:16038   */\n      0x00\n        /* \"#utility.yul\":16060:16084   */\n      tag_337\n        /* \"#utility.yul\":16078:16083   */\n      dup3\n        /* \"#utility.yul\":16060:16084   */\n      tag_338\n      jump\t// in\n    tag_337:\n        /* \"#utility.yul\":16049:16084   */\n      swap1\n      pop\n        /* \"#utility.yul\":15994:16090   */\n      swap2\n      swap1\n      pop\n      jump\t// out\n        /* \"#utility.yul\":16096:16222   */\n    tag_338:\n        /* \"#utility.yul\":16133:16140   */\n      0x00\n        /* \"#utility.yul\":16173:16215   */\n      0xffffffffffffffffffffffffffffffffffffffff\n        /* \"#utility.yul\":16166:16171   */\n      dup3\n        /* \"#utility.yul\":16162:16216   */\n      and\n        /* \"#utility.yul\":16151:16216   */\n      swap1\n      pop\n        /* \"#utility.yul\":16096:16222   */\n      swap2\n      swap1\n      pop\n      jump\t// out\n        /* \"#utility.yul\":16228:16305   */\n    tag_305:\n        /* \"#utility.yul\":16265:16272   */\n      0x00\n        /* \"#utility.yul\":16294:16299   */\n      dup2\n        /* \"#utility.yul\":16283:16299   */\n      swap1\n      pop\n        /* \"#utility.yul\":16228:16305   */\n      swap2\n      swap1\n      pop\n      jump\t// out\n        /* \"#utility.yul\":16311:16465   */\n    tag_184:\n        /* \"#utility.yul\":16395:16401   */\n      dup3\n        /* \"#utility.yul\":16390:16393   */\n      dup2\n        /* \"#utility.yul\":16385:16388   */\n      dup4\n        /* \"#utility.yul\":16372:16402   */\n      calldatacopy\n        /* \"#utility.yul\":16457:16458   */\n      0x00\n        /* \"#utility.yul\":16448:16454   */\n      dup4\n        /* \"#utility.yul\":16443:16446   */\n      dup4\n        /* \"#utility.yul\":16439:16455   */\n      add\n        /* \"#utility.yul\":16432:16459   */\n      mstore\n        /* \"#utility.yul\":16311:16465   */\n      pop\n      pop\n      pop\n      jump\t// out\n        /* \"#utility.yul\":16471:16778   */\n    tag_280:\n        /* \"#utility.yul\":16539:16540   */\n      0x00\n        /* \"#utility.yul\":16549:16662   */\n    tag_343:\n        /* \"#utility.yul\":16563:16569   */\n      dup4\n        /* \"#utility.yul\":16560:16561   */\n      dup2\n        /* \"#utility.yul\":16557:16570   */\n      lt\n        /* \"#utility.yul\":16549:16662   */\n      iszero\n      tag_345\n      jumpi\n        /* \"#utility.yul\":16648:16649   */\n      dup1\n        /* \"#utility.yul\":16643:16646   */\n      dup3\n        /* \"#utility.yul\":16639:16650   */\n      add\n        /* \"#utility.yul\":16633:16651   */\n      mload\n        /* \"#utility.yul\":16629:16630   */\n      dup2\n        /* \"#utility.yul\":16624:16627   */\n      dup5\n        /* \"#utility.yul\":16620:16631   */\n      add\n        /* \"#utility.yul\":16613:16652   */\n      mstore\n        /* \"#utility.yul\":16585:16587   */\n      0x20\n        /* \"#utility.yul\":16582:16583   */\n      dup2\n        /* \"#utility.yul\":16578:16588   */\n      add\n        /* \"#utility.yul\":16573:16588   */\n      swap1\n      pop\n        /* \"#utility.yul\":16549:16662   */\n      jump(tag_343)\n    tag_345:\n        /* \"#utility.yul\":16680:16686   */\n      dup4\n        /* \"#utility.yul\":16677:16678   */\n      dup2\n        /* \"#utility.yul\":16674:16687   */\n      gt\n        /* \"#utility.yul\":16671:16772   */\n      iszero\n      tag_346\n      jumpi\n        /* \"#utility.yul\":16760:16761   */\n      0x00\n        /* \"#utility.yul\":16751:16757   */\n      dup5\n        /* \"#utility.yul\":16746:16749   */\n      dup5\n        /* \"#utility.yul\":16742:16758   */\n      add\n        /* \"#utility.yul\":16735:16762   */\n      mstore\n        /* \"#utility.yul\":16671:16772   */\n    tag_346:\n        /* \"#utility.yul\":16520:16778   */\n      pop\n        /* \"#utility.yul\":16471:16778   */\n      pop\n      pop\n      pop\n      jump\t// out\n        /* \"#utility.yul\":16784:17104   */\n    tag_43:\n        /* \"#utility.yul\":16828:16834   */\n      0x00\n        /* \"#utility.yul\":16865:16866   */\n      0x02\n        /* \"#utility.yul\":16859:16863   */\n      dup3\n        /* \"#utility.yul\":16855:16867   */\n      div\n        /* \"#utility.yul\":16845:16867   */\n      swap1\n      pop\n        /* \"#utility.yul\":16912:16913   */\n      0x01\n        /* \"#utility.yul\":16906:16910   */\n      dup3\n        /* \"#utility.yul\":16902:16914   */\n      and\n        /* \"#utility.yul\":16933:16951   */\n      dup1\n        /* \"#utility.yul\":16923:17004   */\n      tag_348\n      jumpi\n        /* \"#utility.yul\":16989:16993   */\n      0x7f\n        /* \"#utility.yul\":16981:16987   */\n      dup3\n        /* \"#utility.yul\":16977:16994   */\n      and\n        /* \"#utility.yul\":16967:16994   */\n      swap2\n      pop\n        /* \"#utility.yul\":16923:17004   */\n    tag_348:\n        /* \"#utility.yul\":17051:17053   */\n      0x20\n        /* \"#utility.yul\":17043:17049   */\n      dup3\n        /* \"#utility.yul\":17040:17054   */\n      lt\n        /* \"#utility.yul\":17020:17038   */\n      dup2\n        /* \"#utility.yul\":17017:17055   */\n      eq\n        /* \"#utility.yul\":17014:17098   */\n      iszero\n      tag_349\n      jumpi\n        /* \"#utility.yul\":17070:17088   */\n      tag_350\n      tag_351\n      jump\t// in\n    tag_350:\n        /* \"#utility.yul\":17014:17098   */\n    tag_349:\n        /* \"#utility.yul\":16835:17104   */\n      pop\n        /* \"#utility.yul\":16784:17104   */\n      swap2\n      swap1\n      pop\n      jump\t// out\n        /* \"#utility.yul\":17110:17391   */\n    tag_319:\n        /* \"#utility.yul\":17193:17220   */\n      tag_353\n        /* \"#utility.yul\":17215:17219   */\n      dup3\n        /* \"#utility.yul\":17193:17220   */\n      tag_282\n      jump\t// in\n    tag_353:\n        /* \"#utility.yul\":17185:17191   */\n      dup2\n        /* \"#utility.yul\":17181:17221   */\n      add\n        /* \"#utility.yul\":17323:17329   */\n      dup2\n        /* \"#utility.yul\":17311:17321   */\n      dup2\n        /* \"#utility.yul\":17308:17330   */\n      lt\n        /* \"#utility.yul\":17287:17305   */\n      0xffffffffffffffff\n        /* \"#utility.yul\":17275:17285   */\n      dup3\n        /* \"#utility.yul\":17272:17306   */\n      gt\n        /* \"#utility.yul\":17269:17331   */\n      or\n        /* \"#utility.yul\":17266:17354   */\n      iszero\n      tag_354\n      jumpi\n        /* \"#utility.yul\":17334:17352   */\n      tag_355\n      tag_324\n      jump\t// in\n    tag_355:\n        /* \"#utility.yul\":17266:17354   */\n    tag_354:\n        /* \"#utility.yul\":17374:17384   */\n      dup1\n        /* \"#utility.yul\":17370:17372   */\n      0x40\n        /* \"#utility.yul\":17363:17385   */\n      mstore\n        /* \"#utility.yul\":17153:17391   */\n      pop\n        /* \"#utility.yul\":17110:17391   */\n      pop\n      pop\n      jump\t// out\n        /* \"#utility.yul\":17397:17577   */\n    tag_351:\n        /* \"#utility.yul\":17445:17522   */\n      0x4e487b7100000000000000000000000000000000000000000000000000000000\n        /* \"#utility.yul\":17442:17443   */\n      0x00\n        /* \"#utility.yul\":17435:17523   */\n      mstore\n        /* \"#utility.yul\":17542:17546   */\n      0x22\n        /* \"#utility.yul\":17539:17540   */\n      0x04\n        /* \"#utility.yul\":17532:17547   */\n      mstore\n        /* \"#utility.yul\":17566:17570   */\n      0x24\n        /* \"#utility.yul\":17563:17564   */\n      0x00\n        /* \"#utility.yul\":17556:17571   */\n      revert\n        /* \"#utility.yul\":17583:17763   */\n    tag_324:\n        /* \"#utility.yul\":17631:17708   */\n      0x4e487b7100000000000000000000000000000000000000000000000000000000\n        /* \"#utility.yul\":17628:17629   */\n      0x00\n        /* \"#utility.yul\":17621:17709   */\n      mstore\n        /* \"#utility.yul\":17728:17732   */\n      0x41\n        /* \"#utility.yul\":17725:17726   */\n      0x04\n        /* \"#utility.yul\":17718:17733   */\n      mstore\n        /* \"#utility.yul\":17752:17756   */\n      0x24\n        /* \"#utility.yul\":17749:17750   */\n      0x00\n        /* \"#utility.yul\":17742:17757   */\n      revert\n        /* \"#utility.yul\":17769:17886   */\n    tag_172:\n        /* \"#utility.yul\":17878:17879   */\n      0x00\n        /* \"#utility.yul\":17875:17876   */\n      dup1\n        /* \"#utility.yul\":17868:17880   */\n      revert\n        /* \"#utility.yul\":17892:18009   */\n    tag_166:\n        /* \"#utility.yul\":18001:18002   */\n      0x00\n        /* \"#utility.yul\":17998:17999   */\n      dup1\n        /* \"#utility.yul\":17991:18003   */\n      revert\n        /* \"#utility.yul\":18015:18132   */\n    tag_182:\n        /* \"#utility.yul\":18124:18125   */\n      0x00\n        /* \"#utility.yul\":18121:18122   */\n      dup1\n        /* \"#utility.yul\":18114:18126   */\n      revert\n        /* \"#utility.yul\":18138:18255   */\n    tag_208:\n        /* \"#utility.yul\":18247:18248   */\n      0x00\n        /* \"#utility.yul\":18244:18245   */\n      dup1\n        /* \"#utility.yul\":18237:18249   */\n      revert\n        /* \"#utility.yul\":18261:18378   */\n    tag_201:\n        /* \"#utility.yul\":18370:18371   */\n      0x00\n        /* \"#utility.yul\":18367:18368   */\n      dup1\n        /* \"#utility.yul\":18360:18372   */\n      revert\n        /* \"#utility.yul\":18384:18486   */\n    tag_282:\n        /* \"#utility.yul\":18425:18431   */\n      0x00\n        /* \"#utility.yul\":18476:18478   */\n      0x1f\n        /* \"#utility.yul\":18472:18479   */\n      not\n        /* \"#utility.yul\":18467:18469   */\n      0x1f\n        /* \"#utility.yul\":18460:18465   */\n      dup4\n        /* \"#utility.yul\":18456:18470   */\n      add\n        /* \"#utility.yul\":18452:18480   */\n      and\n        /* \"#utility.yul\":18442:18480   */\n      swap1\n      pop\n        /* \"#utility.yul\":18384:18486   */\n      swap2\n      swap1\n      pop\n      jump\t// out\n        /* \"#utility.yul\":18492:18614   */\n    tag_188:\n        /* \"#utility.yul\":18565:18589   */\n      tag_365\n        /* \"#utility.yul\":18583:18588   */\n      dup2\n        /* \"#utility.yul\":18565:18589   */\n      tag_259\n      jump\t// in\n    tag_365:\n        /* \"#utility.yul\":18558:18563   */\n      dup2\n        /* \"#utility.yul\":18555:18590   */\n      eq\n        /* \"#utility.yul\":18545:18608   */\n      tag_366\n      jumpi\n        /* \"#utility.yul\":18604:18605   */\n      0x00\n        /* \"#utility.yul\":18601:18602   */\n      dup1\n        /* \"#utility.yul\":18594:18606   */\n      revert\n        /* \"#utility.yul\":18545:18608   */\n    tag_366:\n        /* \"#utility.yul\":18492:18614   */\n      pop\n      jump\t// out\n\n    auxdata: 0xa2646970667358221220d39d383b3240f8b4fcf4ee2a335508cd818b9dff0f1c02027679bb6e442bd7fd64736f6c63430008070033\n}\n",
				"bytecode": {
					"linkReferences": {},
					"object": "608060405234801561001057600080fd5b50611a8b806100206000396000f3fe608060405234801561001057600080fd5b50600436106100575760003560e01c8063902a1fd21461005c57806391f2cb9d146100785780639dd9d0fd14610094578063d52246d7146100cb578063fabce08f146100e7575b600080fd5b6100766004803603810190610071919061132e565b6100f1565b005b610092600480360381019061008d9190611435565b61036c565b005b6100ae60048036038101906100a9919061125a565b610530565b6040516100c2989796959493929190611745565b60405180910390f35b6100e560048036038101906100e09190611287565b610d31565b005b6100ef610e41565b005b846000803373ffffffffffffffffffffffffffffffffffffffff1673ffffffffffffffffffffffffffffffffffffffff1681526020019081526020016000206001019080519060200190610146929190610f91565b50836000803373ffffffffffffffffffffffffffffffffffffffff1673ffffffffffffffffffffffffffffffffffffffff168152602001908152602001600020600201908051906020019061019c929190610f91565b50826000803373ffffffffffffffffffffffffffffffffffffffff1673ffffffffffffffffffffffffffffffffffffffff16815260200190815260200160002060030190805190602001906101f2929190610f91565b50816000803373ffffffffffffffffffffffffffffffffffffffff1673ffffffffffffffffffffffffffffffffffffffff1681526020019081526020016000206004019080519060200190610248929190610f91565b50806000803373ffffffffffffffffffffffffffffffffffffffff1673ffffffffffffffffffffffffffffffffffffffff168152602001908152602001600020600601908051906020019061029e929190611017565b50336000803373ffffffffffffffffffffffffffffffffffffffff1673ffffffffffffffffffffffffffffffffffffffff16815260200190815260200160002060000160006101000a81548173ffffffffffffffffffffffffffffffffffffffff021916908373ffffffffffffffffffffffffffffffffffffffff160217905550426000803373ffffffffffffffffffffffffffffffffffffffff1673ffffffffffffffffffffffffffffffffffffffff168152602001908152602001600020600501819055505050505050565b846000803373ffffffffffffffffffffffffffffffffffffffff1673ffffffffffffffffffffffffffffffffffffffff16815260200190815260200160002060070160000190805190602001906103c4929190610f91565b50836000803373ffffffffffffffffffffffffffffffffffffffff1673ffffffffffffffffffffffffffffffffffffffff168152602001908152602001600020600701600101908051906020019061041d929190610f91565b50826000803373ffffffffffffffffffffffffffffffffffffffff1673ffffffffffffffffffffffffffffffffffffffff1681526020019081526020016000206007016000019080519060200190610476929190610f91565b50816000803373ffffffffffffffffffffffffffffffffffffffff1673ffffffffffffffffffffffffffffffffffffffff16815260200190815260200160002060070160010190805190602001906104cf929190610f91565b50806000803373ffffffffffffffffffffffffffffffffffffffff1673ffffffffffffffffffffffffffffffffffffffff1681526020019081526020016000206007016000019080519060200190610528929190610f91565b505050505050565b60006020528060005260406000206000915090508060000160009054906101000a900473ffffffffffffffffffffffffffffffffffffffff169080600101805461057990611953565b80601f01602080910402602001604051908101604052809291908181526020018280546105a590611953565b80156105f25780601f106105c7576101008083540402835291602001916105f2565b820191906000526020600020905b8154815290600101906020018083116105d557829003601f168201915b50505050509080600201805461060790611953565b80601f016020809104026020016040519081016040528092919081815260200182805461063390611953565b80156106805780601f1061065557610100808354040283529160200191610680565b820191906000526020600020905b81548152906001019060200180831161066357829003601f168201915b50505050509080600301805461069590611953565b80601f01602080910402602001604051908101604052809291908181526020018280546106c190611953565b801561070e5780601f106106e35761010080835404028352916020019161070e565b820191906000526020600020905b8154815290600101906020018083116106f157829003601f168201915b50505050509080600401805461072390611953565b80601f016020809104026020016040519081016040528092919081815260200182805461074f90611953565b801561079c5780601f106107715761010080835404028352916020019161079c565b820191906000526020600020905b81548152906001019060200180831161077f57829003601f168201915b505050505090806005015490806007016040518060a00160405290816000820180546107c790611953565b80601f01602080910402602001604051908101604052809291908181526020018280546107f390611953565b80156108405780601f1061081557610100808354040283529160200191610840565b820191906000526020600020905b81548152906001019060200180831161082357829003601f168201915b5050505050815260200160018201805461085990611953565b80601f016020809104026020016040519081016040528092919081815260200182805461088590611953565b80156108d25780601f106108a7576101008083540402835291602001916108d2565b820191906000526020600020905b8154815290600101906020018083116108b557829003601f168201915b505050505081526020016002820180546108eb90611953565b80601f016020809104026020016040519081016040528092919081815260200182805461091790611953565b80156109645780601f1061093957610100808354040283529160200191610964565b820191906000526020600020905b81548152906001019060200180831161094757829003601f168201915b5050505050815260200160038201805461097d90611953565b80601f01602080910402602001604051908101604052809291908181526020018280546109a990611953565b80156109f65780601f106109cb576101008083540402835291602001916109f6565b820191906000526020600020905b8154815290600101906020018083116109d957829003601f168201915b50505050508152602001600482018054610a0f90611953565b80601f0160208091040260200160405190810160405280929190818152602001828054610a3b90611953565b8015610a885780601f10610a5d57610100808354040283529160200191610a88565b820191906000526020600020905b815481529060010190602001808311610a6b57829003601f168201915b5050505050815250509080600c0160405180606001604052908160008201805480602002602001604051908101604052809291908181526020016000905b82821015610b72578382906000526020600020018054610ae590611953565b80601f0160208091040260200160405190810160405280929190818152602001828054610b1190611953565b8015610b5e5780601f10610b3357610100808354040283529160200191610b5e565b820191906000526020600020905b815481529060010190602001808311610b4157829003601f168201915b505050505081526020019060010190610ac6565b50505050815260200160018201805480602002602001604051908101604052809291908181526020016000905b82821015610c4b578382906000526020600020018054610bbe90611953565b80601f0160208091040260200160405190810160405280929190818152602001828054610bea90611953565b8015610c375780601f10610c0c57610100808354040283529160200191610c37565b820191906000526020600020905b815481529060010190602001808311610c1a57829003601f168201915b505050505081526020019060010190610b9f565b50505050815260200160028201805480602002602001604051908101604052809291908181526020016000905b82821015610d24578382906000526020600020018054610c9790611953565b80601f0160208091040260200160405190810160405280929190818152602001828054610cc390611953565b8015610d105780601f10610ce557610100808354040283529160200191610d10565b820191906000526020600020905b815481529060010190602001808311610cf357829003601f168201915b505050505081526020019060010190610c78565b5050505081525050905088565b826000803373ffffffffffffffffffffffffffffffffffffffff1673ffffffffffffffffffffffffffffffffffffffff168152602001908152602001600020600c016000019080519060200190610d89929190611017565b50816000803373ffffffffffffffffffffffffffffffffffffffff1673ffffffffffffffffffffffffffffffffffffffff168152602001908152602001600020600c016001019080519060200190610de2929190611017565b50806000803373ffffffffffffffffffffffffffffffffffffffff1673ffffffffffffffffffffffffffffffffffffffff168152602001908152602001600020600c016002019080519060200190610e3b929190611017565b50505050565b6000803373ffffffffffffffffffffffffffffffffffffffff1673ffffffffffffffffffffffffffffffffffffffff168152602001908152602001600020600080820160006101000a81549073ffffffffffffffffffffffffffffffffffffffff0219169055600182016000610eb79190611077565b600282016000610ec79190611077565b600382016000610ed79190611077565b600482016000610ee79190611077565b6005820160009055600682016000610eff91906110b7565b6007820160008082016000610f149190611077565b600182016000610f249190611077565b600282016000610f349190611077565b600382016000610f449190611077565b600482016000610f549190611077565b5050600c820160008082016000610f6b91906110b7565b600182016000610f7b91906110b7565b600282016000610f8b91906110b7565b50505050565b828054610f9d90611953565b90600052602060002090601f016020900481019282610fbf5760008555611006565b82601f10610fd857805160ff1916838001178555611006565b82800160010185558215611006579182015b82811115611005578251825591602001919060010190610fea565b5b50905061101391906110d8565b5090565b828054828255906000526020600020908101928215611066579160200282015b82811115611065578251829080519060200190611055929190610f91565b5091602001919060010190611037565b5b50905061107391906110f5565b5090565b50805461108390611953565b6000825580601f1061109557506110b4565b601f0160209004906000526020600020908101906110b391906110d8565b5b50565b50805460008255906000526020600020908101906110d591906110f5565b50565b5b808211156110f15760008160009055506001016110d9565b5090565b5b80821115611115576000818161110c9190611077565b506001016110f6565b5090565b600061112c61112784611812565b6117ed565b9050808382526020820190508285602086028201111561114f5761114e611a19565b5b60005b8581101561119d57813567ffffffffffffffff81111561117557611174611a14565b5b808601611182898261122c565b85526020850194506020840193505050600181019050611152565b5050509392505050565b60006111ba6111b58461183e565b6117ed565b9050828152602081018484840111156111d6576111d5611a1e565b5b6111e1848285611911565b509392505050565b6000813590506111f881611a3e565b92915050565b600082601f83011261121357611212611a14565b5b8135611223848260208601611119565b91505092915050565b600082601f83011261124157611240611a14565b5b81356112518482602086016111a7565b91505092915050565b6000602082840312156112705761126f611a28565b5b600061127e848285016111e9565b91505092915050565b6000806000606084860312156112a05761129f611a28565b5b600084013567ffffffffffffffff8111156112be576112bd611a23565b5b6112ca868287016111fe565b935050602084013567ffffffffffffffff8111156112eb576112ea611a23565b5b6112f7868287016111fe565b925050604084013567ffffffffffffffff81111561131857611317611a23565b5b611324868287016111fe565b9150509250925092565b600080600080600060a0868803121561134a57611349611a28565b5b600086013567ffffffffffffffff81111561136857611367611a23565b5b6113748882890161122c565b955050602086013567ffffffffffffffff81111561139557611394611a23565b5b6113a18882890161122c565b945050604086013567ffffffffffffffff8111156113c2576113c1611a23565b5b6113ce8882890161122c565b935050606086013567ffffffffffffffff8111156113ef576113ee611a23565b5b6113fb8882890161122c565b925050608086013567ffffffffffffffff81111561141c5761141b611a23565b5b611428888289016111fe565b9150509295509295909350565b600080600080600060a0868803121561145157611450611a28565b5b600086013567ffffffffffffffff81111561146f5761146e611a23565b5b61147b8882890161122c565b955050602086013567ffffffffffffffff81111561149c5761149b611a23565b5b6114a88882890161122c565b945050604086013567ffffffffffffffff8111156114c9576114c8611a23565b5b6114d58882890161122c565b935050606086013567ffffffffffffffff8111156114f6576114f5611a23565b5b6115028882890161122c565b925050608086013567ffffffffffffffff81111561152357611522611a23565b5b61152f8882890161122c565b9150509295509295909350565b600061154883836115d4565b905092915050565b611559816118d5565b82525050565b600061156a8261187f565b61157481856118a2565b9350836020820285016115868561186f565b8060005b858110156115c257848403895281516115a3858261153c565b94506115ae83611895565b925060208a0199505060018101905061158a565b50829750879550505050505092915050565b60006115df8261188a565b6115e981856118b3565b93506115f9818560208601611920565b61160281611a2d565b840191505092915050565b60006116188261188a565b61162281856118c4565b9350611632818560208601611920565b61163b81611a2d565b840191505092915050565b600060a083016000830151848203600086015261166382826115d4565b9150506020830151848203602086015261167d82826115d4565b9150506040830151848203604086015261169782826115d4565b915050606083015184820360608601526116b182826115d4565b915050608083015184820360808601526116cb82826115d4565b9150508091505092915050565b600060608301600083015184820360008601526116f5828261155f565b9150506020830151848203602086015261170f828261155f565b91505060408301518482036040860152611729828261155f565b9150508091505092915050565b61173f81611907565b82525050565b60006101008201905061175b600083018b611550565b818103602083015261176d818a61160d565b90508181036040830152611781818961160d565b90508181036060830152611795818861160d565b905081810360808301526117a9818761160d565b90506117b860a0830186611736565b81810360c08301526117ca8185611646565b905081810360e08301526117de81846116d8565b90509998505050505050505050565b60006117f7611808565b90506118038282611985565b919050565b6000604051905090565b600067ffffffffffffffff82111561182d5761182c6119e5565b5b602082029050602081019050919050565b600067ffffffffffffffff821115611859576118586119e5565b5b61186282611a2d565b9050602081019050919050565b6000819050602082019050919050565b600081519050919050565b600081519050919050565b6000602082019050919050565b600082825260208201905092915050565b600082825260208201905092915050565b600082825260208201905092915050565b60006118e0826118e7565b9050919050565b600073ffffffffffffffffffffffffffffffffffffffff82169050919050565b6000819050919050565b82818337600083830152505050565b60005b8381101561193e578082015181840152602081019050611923565b8381111561194d576000848401525b50505050565b6000600282049050600182168061196b57607f821691505b6020821081141561197f5761197e6119b6565b5b50919050565b61198e82611a2d565b810181811067ffffffffffffffff821117156119ad576119ac6119e5565b5b80604052505050565b7f4e487b7100000000000000000000000000000000000000000000000000000000600052602260045260246000fd5b7f4e487b7100000000000000000000000000000000000000000000000000000000600052604160045260246000fd5b600080fd5b600080fd5b600080fd5b600080fd5b600080fd5b6000601f19601f8301169050919050565b611a47816118d5565b8114611a5257600080fd5b5056fea2646970667358221220d39d383b3240f8b4fcf4ee2a335508cd818b9dff0f1c02027679bb6e442bd7fd64736f6c63430008070033",
					"opcodes": "PUSH1 0x80 PUSH1 0x40 MSTORE CALLVALUE DUP1 ISZERO PUSH2 0x10 JUMPI PUSH1 0x0 DUP1 REVERT JUMPDEST POP PUSH2 0x1A8B DUP1 PUSH2 0x20 PUSH1 0x0 CODECOPY PUSH1 0x0 RETURN INVALID PUSH1 0x80 PUSH1 0x40 MSTORE CALLVALUE DUP1 ISZERO PUSH2 0x10 JUMPI PUSH1 0x0 DUP1 REVERT JUMPDEST POP PUSH1 0x4 CALLDATASIZE LT PUSH2 0x57 JUMPI PUSH1 0x0 CALLDATALOAD PUSH1 0xE0 SHR DUP1 PUSH4 0x902A1FD2 EQ PUSH2 0x5C JUMPI DUP1 PUSH4 0x91F2CB9D EQ PUSH2 0x78 JUMPI DUP1 PUSH4 0x9DD9D0FD EQ PUSH2 0x94 JUMPI DUP1 PUSH4 0xD52246D7 EQ PUSH2 0xCB JUMPI DUP1 PUSH4 0xFABCE08F EQ PUSH2 0xE7 JUMPI JUMPDEST PUSH1 0x0 DUP1 REVERT JUMPDEST PUSH2 0x76 PUSH1 0x4 DUP1 CALLDATASIZE SUB DUP2 ADD SWAP1 PUSH2 0x71 SWAP2 SWAP1 PUSH2 0x132E JUMP JUMPDEST PUSH2 0xF1 JUMP JUMPDEST STOP JUMPDEST PUSH2 0x92 PUSH1 0x4 DUP1 CALLDATASIZE SUB DUP2 ADD SWAP1 PUSH2 0x8D SWAP2 SWAP1 PUSH2 0x1435 JUMP JUMPDEST PUSH2 0x36C JUMP JUMPDEST STOP JUMPDEST PUSH2 0xAE PUSH1 0x4 DUP1 CALLDATASIZE SUB DUP2 ADD SWAP1 PUSH2 0xA9 SWAP2 SWAP1 PUSH2 0x125A JUMP JUMPDEST PUSH2 0x530 JUMP JUMPDEST PUSH1 0x40 MLOAD PUSH2 0xC2 SWAP9 SWAP8 SWAP7 SWAP6 SWAP5 SWAP4 SWAP3 SWAP2 SWAP1 PUSH2 0x1745 JUMP JUMPDEST PUSH1 0x40 MLOAD DUP1 SWAP2 SUB SWAP1 RETURN JUMPDEST PUSH2 0xE5 PUSH1 0x4 DUP1 CALLDATASIZE SUB DUP2 ADD SWAP1 PUSH2 0xE0 SWAP2 SWAP1 PUSH2 0x1287 JUMP JUMPDEST PUSH2 0xD31 JUMP JUMPDEST STOP JUMPDEST PUSH2 0xEF PUSH2 0xE41 JUMP JUMPDEST STOP JUMPDEST DUP5 PUSH1 0x0 DUP1 CALLER PUSH20 0xFFFFFFFFFFFFFFFFFFFFFFFFFFFFFFFFFFFFFFFF AND PUSH20 0xFFFFFFFFFFFFFFFFFFFFFFFFFFFFFFFFFFFFFFFF AND DUP2 MSTORE PUSH1 0x20 ADD SWAP1 DUP2 MSTORE PUSH1 0x20 ADD PUSH1 0x0 KECCAK256 PUSH1 0x1 ADD SWAP1 DUP1 MLOAD SWAP1 PUSH1 0x20 ADD SWAP1 PUSH2 0x146 SWAP3 SWAP2 SWAP1 PUSH2 0xF91 JUMP JUMPDEST POP DUP4 PUSH1 0x0 DUP1 CALLER PUSH20 0xFFFFFFFFFFFFFFFFFFFFFFFFFFFFFFFFFFFFFFFF AND PUSH20 0xFFFFFFFFFFFFFFFFFFFFFFFFFFFFFFFFFFFFFFFF AND DUP2 MSTORE PUSH1 0x20 ADD SWAP1 DUP2 MSTORE PUSH1 0x20 ADD PUSH1 0x0 KECCAK256 PUSH1 0x2 ADD SWAP1 DUP1 MLOAD SWAP1 PUSH1 0x20 ADD SWAP1 PUSH2 0x19C SWAP3 SWAP2 SWAP1 PUSH2 0xF91 JUMP JUMPDEST POP DUP3 PUSH1 0x0 DUP1 CALLER PUSH20 0xFFFFFFFFFFFFFFFFFFFFFFFFFFFFFFFFFFFFFFFF AND PUSH20 0xFFFFFFFFFFFFFFFFFFFFFFFFFFFFFFFFFFFFFFFF AND DUP2 MSTORE PUSH1 0x20 ADD SWAP1 DUP2 MSTORE PUSH1 0x20 ADD PUSH1 0x0 KECCAK256 PUSH1 0x3 ADD SWAP1 DUP1 MLOAD SWAP1 PUSH1 0x20 ADD SWAP1 PUSH2 0x1F2 SWAP3 SWAP2 SWAP1 PUSH2 0xF91 JUMP JUMPDEST POP DUP2 PUSH1 0x0 DUP1 CALLER PUSH20 0xFFFFFFFFFFFFFFFFFFFFFFFFFFFFFFFFFFFFFFFF AND PUSH20 0xFFFFFFFFFFFFFFFFFFFFFFFFFFFFFFFFFFFFFFFF AND DUP2 MSTORE PUSH1 0x20 ADD SWAP1 DUP2 MSTORE PUSH1 0x20 ADD PUSH1 0x0 KECCAK256 PUSH1 0x4 ADD SWAP1 DUP1 MLOAD SWAP1 PUSH1 0x20 ADD SWAP1 PUSH2 0x248 SWAP3 SWAP2 SWAP1 PUSH2 0xF91 JUMP JUMPDEST POP DUP1 PUSH1 0x0 DUP1 CALLER PUSH20 0xFFFFFFFFFFFFFFFFFFFFFFFFFFFFFFFFFFFFFFFF AND PUSH20 0xFFFFFFFFFFFFFFFFFFFFFFFFFFFFFFFFFFFFFFFF AND DUP2 MSTORE PUSH1 0x20 ADD SWAP1 DUP2 MSTORE PUSH1 0x20 ADD PUSH1 0x0 KECCAK256 PUSH1 0x6 ADD SWAP1 DUP1 MLOAD SWAP1 PUSH1 0x20 ADD SWAP1 PUSH2 0x29E SWAP3 SWAP2 SWAP1 PUSH2 0x1017 JUMP JUMPDEST POP CALLER PUSH1 0x0 DUP1 CALLER PUSH20 0xFFFFFFFFFFFFFFFFFFFFFFFFFFFFFFFFFFFFFFFF AND PUSH20 0xFFFFFFFFFFFFFFFFFFFFFFFFFFFFFFFFFFFFFFFF AND DUP2 MSTORE PUSH1 0x20 ADD SWAP1 DUP2 MSTORE PUSH1 0x20 ADD PUSH1 0x0 KECCAK256 PUSH1 0x0 ADD PUSH1 0x0 PUSH2 0x100 EXP DUP2 SLOAD DUP2 PUSH20 0xFFFFFFFFFFFFFFFFFFFFFFFFFFFFFFFFFFFFFFFF MUL NOT AND SWAP1 DUP4 PUSH20 0xFFFFFFFFFFFFFFFFFFFFFFFFFFFFFFFFFFFFFFFF AND MUL OR SWAP1 SSTORE POP TIMESTAMP PUSH1 0x0 DUP1 CALLER PUSH20 0xFFFFFFFFFFFFFFFFFFFFFFFFFFFFFFFFFFFFFFFF AND PUSH20 0xFFFFFFFFFFFFFFFFFFFFFFFFFFFFFFFFFFFFFFFF AND DUP2 MSTORE PUSH1 0x20 ADD SWAP1 DUP2 MSTORE PUSH1 0x20 ADD PUSH1 0x0 KECCAK256 PUSH1 0x5 ADD DUP2 SWAP1 SSTORE POP POP POP POP POP POP JUMP JUMPDEST DUP5 PUSH1 0x0 DUP1 CALLER PUSH20 0xFFFFFFFFFFFFFFFFFFFFFFFFFFFFFFFFFFFFFFFF AND PUSH20 0xFFFFFFFFFFFFFFFFFFFFFFFFFFFFFFFFFFFFFFFF AND DUP2 MSTORE PUSH1 0x20 ADD SWAP1 DUP2 MSTORE PUSH1 0x20 ADD PUSH1 0x0 KECCAK256 PUSH1 0x7 ADD PUSH1 0x0 ADD SWAP1 DUP1 MLOAD SWAP1 PUSH1 0x20 ADD SWAP1 PUSH2 0x3C4 SWAP3 SWAP2 SWAP1 PUSH2 0xF91 JUMP JUMPDEST POP DUP4 PUSH1 0x0 DUP1 CALLER PUSH20 0xFFFFFFFFFFFFFFFFFFFFFFFFFFFFFFFFFFFFFFFF AND PUSH20 0xFFFFFFFFFFFFFFFFFFFFFFFFFFFFFFFFFFFFFFFF AND DUP2 MSTORE PUSH1 0x20 ADD SWAP1 DUP2 MSTORE PUSH1 0x20 ADD PUSH1 0x0 KECCAK256 PUSH1 0x7 ADD PUSH1 0x1 ADD SWAP1 DUP1 MLOAD SWAP1 PUSH1 0x20 ADD SWAP1 PUSH2 0x41D SWAP3 SWAP2 SWAP1 PUSH2 0xF91 JUMP JUMPDEST POP DUP3 PUSH1 0x0 DUP1 CALLER PUSH20 0xFFFFFFFFFFFFFFFFFFFFFFFFFFFFFFFFFFFFFFFF AND PUSH20 0xFFFFFFFFFFFFFFFFFFFFFFFFFFFFFFFFFFFFFFFF AND DUP2 MSTORE PUSH1 0x20 ADD SWAP1 DUP2 MSTORE PUSH1 0x20 ADD PUSH1 0x0 KECCAK256 PUSH1 0x7 ADD PUSH1 0x0 ADD SWAP1 DUP1 MLOAD SWAP1 PUSH1 0x20 ADD SWAP1 PUSH2 0x476 SWAP3 SWAP2 SWAP1 PUSH2 0xF91 JUMP JUMPDEST POP DUP2 PUSH1 0x0 DUP1 CALLER PUSH20 0xFFFFFFFFFFFFFFFFFFFFFFFFFFFFFFFFFFFFFFFF AND PUSH20 0xFFFFFFFFFFFFFFFFFFFFFFFFFFFFFFFFFFFFFFFF AND DUP2 MSTORE PUSH1 0x20 ADD SWAP1 DUP2 MSTORE PUSH1 0x20 ADD PUSH1 0x0 KECCAK256 PUSH1 0x7 ADD PUSH1 0x1 ADD SWAP1 DUP1 MLOAD SWAP1 PUSH1 0x20 ADD SWAP1 PUSH2 0x4CF SWAP3 SWAP2 SWAP1 PUSH2 0xF91 JUMP JUMPDEST POP DUP1 PUSH1 0x0 DUP1 CALLER PUSH20 0xFFFFFFFFFFFFFFFFFFFFFFFFFFFFFFFFFFFFFFFF AND PUSH20 0xFFFFFFFFFFFFFFFFFFFFFFFFFFFFFFFFFFFFFFFF AND DUP2 MSTORE PUSH1 0x20 ADD SWAP1 DUP2 MSTORE PUSH1 0x20 ADD PUSH1 0x0 KECCAK256 PUSH1 0x7 ADD PUSH1 0x0 ADD SWAP1 DUP1 MLOAD SWAP1 PUSH1 0x20 ADD SWAP1 PUSH2 0x528 SWAP3 SWAP2 SWAP1 PUSH2 0xF91 JUMP JUMPDEST POP POP POP POP POP POP JUMP JUMPDEST PUSH1 0x0 PUSH1 0x20 MSTORE DUP1 PUSH1 0x0 MSTORE PUSH1 0x40 PUSH1 0x0 KECCAK256 PUSH1 0x0 SWAP2 POP SWAP1 POP DUP1 PUSH1 0x0 ADD PUSH1 0x0 SWAP1 SLOAD SWAP1 PUSH2 0x100 EXP SWAP1 DIV PUSH20 0xFFFFFFFFFFFFFFFFFFFFFFFFFFFFFFFFFFFFFFFF AND SWAP1 DUP1 PUSH1 0x1 ADD DUP1 SLOAD PUSH2 0x579 SWAP1 PUSH2 0x1953 JUMP JUMPDEST DUP1 PUSH1 0x1F ADD PUSH1 0x20 DUP1 SWAP2 DIV MUL PUSH1 0x20 ADD PUSH1 0x40 MLOAD SWAP1 DUP2 ADD PUSH1 0x40 MSTORE DUP1 SWAP3 SWAP2 SWAP1 DUP2 DUP2 MSTORE PUSH1 0x20 ADD DUP3 DUP1 SLOAD PUSH2 0x5A5 SWAP1 PUSH2 0x1953 JUMP JUMPDEST DUP1 ISZERO PUSH2 0x5F2 JUMPI DUP1 PUSH1 0x1F LT PUSH2 0x5C7 JUMPI PUSH2 0x100 DUP1 DUP4 SLOAD DIV MUL DUP4 MSTORE SWAP2 PUSH1 0x20 ADD SWAP2 PUSH2 0x5F2 JUMP JUMPDEST DUP3 ADD SWAP2 SWAP1 PUSH1 0x0 MSTORE PUSH1 0x20 PUSH1 0x0 KECCAK256 SWAP1 JUMPDEST DUP2 SLOAD DUP2 MSTORE SWAP1 PUSH1 0x1 ADD SWAP1 PUSH1 0x20 ADD DUP1 DUP4 GT PUSH2 0x5D5 JUMPI DUP3 SWAP1 SUB PUSH1 0x1F AND DUP3 ADD SWAP2 JUMPDEST POP POP POP POP POP SWAP1 DUP1 PUSH1 0x2 ADD DUP1 SLOAD PUSH2 0x607 SWAP1 PUSH2 0x1953 JUMP JUMPDEST DUP1 PUSH1 0x1F ADD PUSH1 0x20 DUP1 SWAP2 DIV MUL PUSH1 0x20 ADD PUSH1 0x40 MLOAD SWAP1 DUP2 ADD PUSH1 0x40 MSTORE DUP1 SWAP3 SWAP2 SWAP1 DUP2 DUP2 MSTORE PUSH1 0x20 ADD DUP3 DUP1 SLOAD PUSH2 0x633 SWAP1 PUSH2 0x1953 JUMP JUMPDEST DUP1 ISZERO PUSH2 0x680 JUMPI DUP1 PUSH1 0x1F LT PUSH2 0x655 JUMPI PUSH2 0x100 DUP1 DUP4 SLOAD DIV MUL DUP4 MSTORE SWAP2 PUSH1 0x20 ADD SWAP2 PUSH2 0x680 JUMP JUMPDEST DUP3 ADD SWAP2 SWAP1 PUSH1 0x0 MSTORE PUSH1 0x20 PUSH1 0x0 KECCAK256 SWAP1 JUMPDEST DUP2 SLOAD DUP2 MSTORE SWAP1 PUSH1 0x1 ADD SWAP1 PUSH1 0x20 ADD DUP1 DUP4 GT PUSH2 0x663 JUMPI DUP3 SWAP1 SUB PUSH1 0x1F AND DUP3 ADD SWAP2 JUMPDEST POP POP POP POP POP SWAP1 DUP1 PUSH1 0x3 ADD DUP1 SLOAD PUSH2 0x695 SWAP1 PUSH2 0x1953 JUMP JUMPDEST DUP1 PUSH1 0x1F ADD PUSH1 0x20 DUP1 SWAP2 DIV MUL PUSH1 0x20 ADD PUSH1 0x40 MLOAD SWAP1 DUP2 ADD PUSH1 0x40 MSTORE DUP1 SWAP3 SWAP2 SWAP1 DUP2 DUP2 MSTORE PUSH1 0x20 ADD DUP3 DUP1 SLOAD PUSH2 0x6C1 SWAP1 PUSH2 0x1953 JUMP JUMPDEST DUP1 ISZERO PUSH2 0x70E JUMPI DUP1 PUSH1 0x1F LT PUSH2 0x6E3 JUMPI PUSH2 0x100 DUP1 DUP4 SLOAD DIV MUL DUP4 MSTORE SWAP2 PUSH1 0x20 ADD SWAP2 PUSH2 0x70E JUMP JUMPDEST DUP3 ADD SWAP2 SWAP1 PUSH1 0x0 MSTORE PUSH1 0x20 PUSH1 0x0 KECCAK256 SWAP1 JUMPDEST DUP2 SLOAD DUP2 MSTORE SWAP1 PUSH1 0x1 ADD SWAP1 PUSH1 0x20 ADD DUP1 DUP4 GT PUSH2 0x6F1 JUMPI DUP3 SWAP1 SUB PUSH1 0x1F AND DUP3 ADD SWAP2 JUMPDEST POP POP POP POP POP SWAP1 DUP1 PUSH1 0x4 ADD DUP1 SLOAD PUSH2 0x723 SWAP1 PUSH2 0x1953 JUMP JUMPDEST DUP1 PUSH1 0x1F ADD PUSH1 0x20 DUP1 SWAP2 DIV MUL PUSH1 0x20 ADD PUSH1 0x40 MLOAD SWAP1 DUP2 ADD PUSH1 0x40 MSTORE DUP1 SWAP3 SWAP2 SWAP1 DUP2 DUP2 MSTORE PUSH1 0x20 ADD DUP3 DUP1 SLOAD PUSH2 0x74F SWAP1 PUSH2 0x1953 JUMP JUMPDEST DUP1 ISZERO PUSH2 0x79C JUMPI DUP1 PUSH1 0x1F LT PUSH2 0x771 JUMPI PUSH2 0x100 DUP1 DUP4 SLOAD DIV MUL DUP4 MSTORE SWAP2 PUSH1 0x20 ADD SWAP2 PUSH2 0x79C JUMP JUMPDEST DUP3 ADD SWAP2 SWAP1 PUSH1 0x0 MSTORE PUSH1 0x20 PUSH1 0x0 KECCAK256 SWAP1 JUMPDEST DUP2 SLOAD DUP2 MSTORE SWAP1 PUSH1 0x1 ADD SWAP1 PUSH1 0x20 ADD DUP1 DUP4 GT PUSH2 0x77F JUMPI DUP3 SWAP1 SUB PUSH1 0x1F AND DUP3 ADD SWAP2 JUMPDEST POP POP POP POP POP SWAP1 DUP1 PUSH1 0x5 ADD SLOAD SWAP1 DUP1 PUSH1 0x7 ADD PUSH1 0x40 MLOAD DUP1 PUSH1 0xA0 ADD PUSH1 0x40 MSTORE SWAP1 DUP2 PUSH1 0x0 DUP3 ADD DUP1 SLOAD PUSH2 0x7C7 SWAP1 PUSH2 0x1953 JUMP JUMPDEST DUP1 PUSH1 0x1F ADD PUSH1 0x20 DUP1 SWAP2 DIV MUL PUSH1 0x20 ADD PUSH1 0x40 MLOAD SWAP1 DUP2 ADD PUSH1 0x40 MSTORE DUP1 SWAP3 SWAP2 SWAP1 DUP2 DUP2 MSTORE PUSH1 0x20 ADD DUP3 DUP1 SLOAD PUSH2 0x7F3 SWAP1 PUSH2 0x1953 JUMP JUMPDEST DUP1 ISZERO PUSH2 0x840 JUMPI DUP1 PUSH1 0x1F LT PUSH2 0x815 JUMPI PUSH2 0x100 DUP1 DUP4 SLOAD DIV MUL DUP4 MSTORE SWAP2 PUSH1 0x20 ADD SWAP2 PUSH2 0x840 JUMP JUMPDEST DUP3 ADD SWAP2 SWAP1 PUSH1 0x0 MSTORE PUSH1 0x20 PUSH1 0x0 KECCAK256 SWAP1 JUMPDEST DUP2 SLOAD DUP2 MSTORE SWAP1 PUSH1 0x1 ADD SWAP1 PUSH1 0x20 ADD DUP1 DUP4 GT PUSH2 0x823 JUMPI DUP3 SWAP1 SUB PUSH1 0x1F AND DUP3 ADD SWAP2 JUMPDEST POP POP POP POP POP DUP2 MSTORE PUSH1 0x20 ADD PUSH1 0x1 DUP3 ADD DUP1 SLOAD PUSH2 0x859 SWAP1 PUSH2 0x1953 JUMP JUMPDEST DUP1 PUSH1 0x1F ADD PUSH1 0x20 DUP1 SWAP2 DIV MUL PUSH1 0x20 ADD PUSH1 0x40 MLOAD SWAP1 DUP2 ADD PUSH1 0x40 MSTORE DUP1 SWAP3 SWAP2 SWAP1 DUP2 DUP2 MSTORE PUSH1 0x20 ADD DUP3 DUP1 SLOAD PUSH2 0x885 SWAP1 PUSH2 0x1953 JUMP JUMPDEST DUP1 ISZERO PUSH2 0x8D2 JUMPI DUP1 PUSH1 0x1F LT PUSH2 0x8A7 JUMPI PUSH2 0x100 DUP1 DUP4 SLOAD DIV MUL DUP4 MSTORE SWAP2 PUSH1 0x20 ADD SWAP2 PUSH2 0x8D2 JUMP JUMPDEST DUP3 ADD SWAP2 SWAP1 PUSH1 0x0 MSTORE PUSH1 0x20 PUSH1 0x0 KECCAK256 SWAP1 JUMPDEST DUP2 SLOAD DUP2 MSTORE SWAP1 PUSH1 0x1 ADD SWAP1 PUSH1 0x20 ADD DUP1 DUP4 GT PUSH2 0x8B5 JUMPI DUP3 SWAP1 SUB PUSH1 0x1F AND DUP3 ADD SWAP2 JUMPDEST POP POP POP POP POP DUP2 MSTORE PUSH1 0x20 ADD PUSH1 0x2 DUP3 ADD DUP1 SLOAD PUSH2 0x8EB SWAP1 PUSH2 0x1953 JUMP JUMPDEST DUP1 PUSH1 0x1F ADD PUSH1 0x20 DUP1 SWAP2 DIV MUL PUSH1 0x20 ADD PUSH1 0x40 MLOAD SWAP1 DUP2 ADD PUSH1 0x40 MSTORE DUP1 SWAP3 SWAP2 SWAP1 DUP2 DUP2 MSTORE PUSH1 0x20 ADD DUP3 DUP1 SLOAD PUSH2 0x917 SWAP1 PUSH2 0x1953 JUMP JUMPDEST DUP1 ISZERO PUSH2 0x964 JUMPI DUP1 PUSH1 0x1F LT PUSH2 0x939 JUMPI PUSH2 0x100 DUP1 DUP4 SLOAD DIV MUL DUP4 MSTORE SWAP2 PUSH1 0x20 ADD SWAP2 PUSH2 0x964 JUMP JUMPDEST DUP3 ADD SWAP2 SWAP1 PUSH1 0x0 MSTORE PUSH1 0x20 PUSH1 0x0 KECCAK256 SWAP1 JUMPDEST DUP2 SLOAD DUP2 MSTORE SWAP1 PUSH1 0x1 ADD SWAP1 PUSH1 0x20 ADD DUP1 DUP4 GT PUSH2 0x947 JUMPI DUP3 SWAP1 SUB PUSH1 0x1F AND DUP3 ADD SWAP2 JUMPDEST POP POP POP POP POP DUP2 MSTORE PUSH1 0x20 ADD PUSH1 0x3 DUP3 ADD DUP1 SLOAD PUSH2 0x97D SWAP1 PUSH2 0x1953 JUMP JUMPDEST DUP1 PUSH1 0x1F ADD PUSH1 0x20 DUP1 SWAP2 DIV MUL PUSH1 0x20 ADD PUSH1 0x40 MLOAD SWAP1 DUP2 ADD PUSH1 0x40 MSTORE DUP1 SWAP3 SWAP2 SWAP1 DUP2 DUP2 MSTORE PUSH1 0x20 ADD DUP3 DUP1 SLOAD PUSH2 0x9A9 SWAP1 PUSH2 0x1953 JUMP JUMPDEST DUP1 ISZERO PUSH2 0x9F6 JUMPI DUP1 PUSH1 0x1F LT PUSH2 0x9CB JUMPI PUSH2 0x100 DUP1 DUP4 SLOAD DIV MUL DUP4 MSTORE SWAP2 PUSH1 0x20 ADD SWAP2 PUSH2 0x9F6 JUMP JUMPDEST DUP3 ADD SWAP2 SWAP1 PUSH1 0x0 MSTORE PUSH1 0x20 PUSH1 0x0 KECCAK256 SWAP1 JUMPDEST DUP2 SLOAD DUP2 MSTORE SWAP1 PUSH1 0x1 ADD SWAP1 PUSH1 0x20 ADD DUP1 DUP4 GT PUSH2 0x9D9 JUMPI DUP3 SWAP1 SUB PUSH1 0x1F AND DUP3 ADD SWAP2 JUMPDEST POP POP POP POP POP DUP2 MSTORE PUSH1 0x20 ADD PUSH1 0x4 DUP3 ADD DUP1 SLOAD PUSH2 0xA0F SWAP1 PUSH2 0x1953 JUMP JUMPDEST DUP1 PUSH1 0x1F ADD PUSH1 0x20 DUP1 SWAP2 DIV MUL PUSH1 0x20 ADD PUSH1 0x40 MLOAD SWAP1 DUP2 ADD PUSH1 0x40 MSTORE DUP1 SWAP3 SWAP2 SWAP1 DUP2 DUP2 MSTORE PUSH1 0x20 ADD DUP3 DUP1 SLOAD PUSH2 0xA3B SWAP1 PUSH2 0x1953 JUMP JUMPDEST DUP1 ISZERO PUSH2 0xA88 JUMPI DUP1 PUSH1 0x1F LT PUSH2 0xA5D JUMPI PUSH2 0x100 DUP1 DUP4 SLOAD DIV MUL DUP4 MSTORE SWAP2 PUSH1 0x20 ADD SWAP2 PUSH2 0xA88 JUMP JUMPDEST DUP3 ADD SWAP2 SWAP1 PUSH1 0x0 MSTORE PUSH1 0x20 PUSH1 0x0 KECCAK256 SWAP1 JUMPDEST DUP2 SLOAD DUP2 MSTORE SWAP1 PUSH1 0x1 ADD SWAP1 PUSH1 0x20 ADD DUP1 DUP4 GT PUSH2 0xA6B JUMPI DUP3 SWAP1 SUB PUSH1 0x1F AND DUP3 ADD SWAP2 JUMPDEST POP POP POP POP POP DUP2 MSTORE POP POP SWAP1 DUP1 PUSH1 0xC ADD PUSH1 0x40 MLOAD DUP1 PUSH1 0x60 ADD PUSH1 0x40 MSTORE SWAP1 DUP2 PUSH1 0x0 DUP3 ADD DUP1 SLOAD DUP1 PUSH1 0x20 MUL PUSH1 0x20 ADD PUSH1 0x40 MLOAD SWAP1 DUP2 ADD PUSH1 0x40 MSTORE DUP1 SWAP3 SWAP2 SWAP1 DUP2 DUP2 MSTORE PUSH1 0x20 ADD PUSH1 0x0 SWAP1 JUMPDEST DUP3 DUP3 LT ISZERO PUSH2 0xB72 JUMPI DUP4 DUP3 SWAP1 PUSH1 0x0 MSTORE PUSH1 0x20 PUSH1 0x0 KECCAK256 ADD DUP1 SLOAD PUSH2 0xAE5 SWAP1 PUSH2 0x1953 JUMP JUMPDEST DUP1 PUSH1 0x1F ADD PUSH1 0x20 DUP1 SWAP2 DIV MUL PUSH1 0x20 ADD PUSH1 0x40 MLOAD SWAP1 DUP2 ADD PUSH1 0x40 MSTORE DUP1 SWAP3 SWAP2 SWAP1 DUP2 DUP2 MSTORE PUSH1 0x20 ADD DUP3 DUP1 SLOAD PUSH2 0xB11 SWAP1 PUSH2 0x1953 JUMP JUMPDEST DUP1 ISZERO PUSH2 0xB5E JUMPI DUP1 PUSH1 0x1F LT PUSH2 0xB33 JUMPI PUSH2 0x100 DUP1 DUP4 SLOAD DIV MUL DUP4 MSTORE SWAP2 PUSH1 0x20 ADD SWAP2 PUSH2 0xB5E JUMP JUMPDEST DUP3 ADD SWAP2 SWAP1 PUSH1 0x0 MSTORE PUSH1 0x20 PUSH1 0x0 KECCAK256 SWAP1 JUMPDEST DUP2 SLOAD DUP2 MSTORE SWAP1 PUSH1 0x1 ADD SWAP1 PUSH1 0x20 ADD DUP1 DUP4 GT PUSH2 0xB41 JUMPI DUP3 SWAP1 SUB PUSH1 0x1F AND DUP3 ADD SWAP2 JUMPDEST POP POP POP POP POP DUP2 MSTORE PUSH1 0x20 ADD SWAP1 PUSH1 0x1 ADD SWAP1 PUSH2 0xAC6 JUMP JUMPDEST POP POP POP POP DUP2 MSTORE PUSH1 0x20 ADD PUSH1 0x1 DUP3 ADD DUP1 SLOAD DUP1 PUSH1 0x20 MUL PUSH1 0x20 ADD PUSH1 0x40 MLOAD SWAP1 DUP2 ADD PUSH1 0x40 MSTORE DUP1 SWAP3 SWAP2 SWAP1 DUP2 DUP2 MSTORE PUSH1 0x20 ADD PUSH1 0x0 SWAP1 JUMPDEST DUP3 DUP3 LT ISZERO PUSH2 0xC4B JUMPI DUP4 DUP3 SWAP1 PUSH1 0x0 MSTORE PUSH1 0x20 PUSH1 0x0 KECCAK256 ADD DUP1 SLOAD PUSH2 0xBBE SWAP1 PUSH2 0x1953 JUMP JUMPDEST DUP1 PUSH1 0x1F ADD PUSH1 0x20 DUP1 SWAP2 DIV MUL PUSH1 0x20 ADD PUSH1 0x40 MLOAD SWAP1 DUP2 ADD PUSH1 0x40 MSTORE DUP1 SWAP3 SWAP2 SWAP1 DUP2 DUP2 MSTORE PUSH1 0x20 ADD DUP3 DUP1 SLOAD PUSH2 0xBEA SWAP1 PUSH2 0x1953 JUMP JUMPDEST DUP1 ISZERO PUSH2 0xC37 JUMPI DUP1 PUSH1 0x1F LT PUSH2 0xC0C JUMPI PUSH2 0x100 DUP1 DUP4 SLOAD DIV MUL DUP4 MSTORE SWAP2 PUSH1 0x20 ADD SWAP2 PUSH2 0xC37 JUMP JUMPDEST DUP3 ADD SWAP2 SWAP1 PUSH1 0x0 MSTORE PUSH1 0x20 PUSH1 0x0 KECCAK256 SWAP1 JUMPDEST DUP2 SLOAD DUP2 MSTORE SWAP1 PUSH1 0x1 ADD SWAP1 PUSH1 0x20 ADD DUP1 DUP4 GT PUSH2 0xC1A JUMPI DUP3 SWAP1 SUB PUSH1 0x1F AND DUP3 ADD SWAP2 JUMPDEST POP POP POP POP POP DUP2 MSTORE PUSH1 0x20 ADD SWAP1 PUSH1 0x1 ADD SWAP1 PUSH2 0xB9F JUMP JUMPDEST POP POP POP POP DUP2 MSTORE PUSH1 0x20 ADD PUSH1 0x2 DUP3 ADD DUP1 SLOAD DUP1 PUSH1 0x20 MUL PUSH1 0x20 ADD PUSH1 0x40 MLOAD SWAP1 DUP2 ADD PUSH1 0x40 MSTORE DUP1 SWAP3 SWAP2 SWAP1 DUP2 DUP2 MSTORE PUSH1 0x20 ADD PUSH1 0x0 SWAP1 JUMPDEST DUP3 DUP3 LT ISZERO PUSH2 0xD24 JUMPI DUP4 DUP3 SWAP1 PUSH1 0x0 MSTORE PUSH1 0x20 PUSH1 0x0 KECCAK256 ADD DUP1 SLOAD PUSH2 0xC97 SWAP1 PUSH2 0x1953 JUMP JUMPDEST DUP1 PUSH1 0x1F ADD PUSH1 0x20 DUP1 SWAP2 DIV MUL PUSH1 0x20 ADD PUSH1 0x40 MLOAD SWAP1 DUP2 ADD PUSH1 0x40 MSTORE DUP1 SWAP3 SWAP2 SWAP1 DUP2 DUP2 MSTORE PUSH1 0x20 ADD DUP3 DUP1 SLOAD PUSH2 0xCC3 SWAP1 PUSH2 0x1953 JUMP JUMPDEST DUP1 ISZERO PUSH2 0xD10 JUMPI DUP1 PUSH1 0x1F LT PUSH2 0xCE5 JUMPI PUSH2 0x100 DUP1 DUP4 SLOAD DIV MUL DUP4 MSTORE SWAP2 PUSH1 0x20 ADD SWAP2 PUSH2 0xD10 JUMP JUMPDEST DUP3 ADD SWAP2 SWAP1 PUSH1 0x0 MSTORE PUSH1 0x20 PUSH1 0x0 KECCAK256 SWAP1 JUMPDEST DUP2 SLOAD DUP2 MSTORE SWAP1 PUSH1 0x1 ADD SWAP1 PUSH1 0x20 ADD DUP1 DUP4 GT PUSH2 0xCF3 JUMPI DUP3 SWAP1 SUB PUSH1 0x1F AND DUP3 ADD SWAP2 JUMPDEST POP POP POP POP POP DUP2 MSTORE PUSH1 0x20 ADD SWAP1 PUSH1 0x1 ADD SWAP1 PUSH2 0xC78 JUMP JUMPDEST POP POP POP POP DUP2 MSTORE POP POP SWAP1 POP DUP9 JUMP JUMPDEST DUP3 PUSH1 0x0 DUP1 CALLER PUSH20 0xFFFFFFFFFFFFFFFFFFFFFFFFFFFFFFFFFFFFFFFF AND PUSH20 0xFFFFFFFFFFFFFFFFFFFFFFFFFFFFFFFFFFFFFFFF AND DUP2 MSTORE PUSH1 0x20 ADD SWAP1 DUP2 MSTORE PUSH1 0x20 ADD PUSH1 0x0 KECCAK256 PUSH1 0xC ADD PUSH1 0x0 ADD SWAP1 DUP1 MLOAD SWAP1 PUSH1 0x20 ADD SWAP1 PUSH2 0xD89 SWAP3 SWAP2 SWAP1 PUSH2 0x1017 JUMP JUMPDEST POP DUP2 PUSH1 0x0 DUP1 CALLER PUSH20 0xFFFFFFFFFFFFFFFFFFFFFFFFFFFFFFFFFFFFFFFF AND PUSH20 0xFFFFFFFFFFFFFFFFFFFFFFFFFFFFFFFFFFFFFFFF AND DUP2 MSTORE PUSH1 0x20 ADD SWAP1 DUP2 MSTORE PUSH1 0x20 ADD PUSH1 0x0 KECCAK256 PUSH1 0xC ADD PUSH1 0x1 ADD SWAP1 DUP1 MLOAD SWAP1 PUSH1 0x20 ADD SWAP1 PUSH2 0xDE2 SWAP3 SWAP2 SWAP1 PUSH2 0x1017 JUMP JUMPDEST POP DUP1 PUSH1 0x0 DUP1 CALLER PUSH20 0xFFFFFFFFFFFFFFFFFFFFFFFFFFFFFFFFFFFFFFFF AND PUSH20 0xFFFFFFFFFFFFFFFFFFFFFFFFFFFFFFFFFFFFFFFF AND DUP2 MSTORE PUSH1 0x20 ADD SWAP1 DUP2 MSTORE PUSH1 0x20 ADD PUSH1 0x0 KECCAK256 PUSH1 0xC ADD PUSH1 0x2 ADD SWAP1 DUP1 MLOAD SWAP1 PUSH1 0x20 ADD SWAP1 PUSH2 0xE3B SWAP3 SWAP2 SWAP1 PUSH2 0x1017 JUMP JUMPDEST POP POP POP POP JUMP JUMPDEST PUSH1 0x0 DUP1 CALLER PUSH20 0xFFFFFFFFFFFFFFFFFFFFFFFFFFFFFFFFFFFFFFFF AND PUSH20 0xFFFFFFFFFFFFFFFFFFFFFFFFFFFFFFFFFFFFFFFF AND DUP2 MSTORE PUSH1 0x20 ADD SWAP1 DUP2 MSTORE PUSH1 0x20 ADD PUSH1 0x0 KECCAK256 PUSH1 0x0 DUP1 DUP3 ADD PUSH1 0x0 PUSH2 0x100 EXP DUP2 SLOAD SWAP1 PUSH20 0xFFFFFFFFFFFFFFFFFFFFFFFFFFFFFFFFFFFFFFFF MUL NOT AND SWAP1 SSTORE PUSH1 0x1 DUP3 ADD PUSH1 0x0 PUSH2 0xEB7 SWAP2 SWAP1 PUSH2 0x1077 JUMP JUMPDEST PUSH1 0x2 DUP3 ADD PUSH1 0x0 PUSH2 0xEC7 SWAP2 SWAP1 PUSH2 0x1077 JUMP JUMPDEST PUSH1 0x3 DUP3 ADD PUSH1 0x0 PUSH2 0xED7 SWAP2 SWAP1 PUSH2 0x1077 JUMP JUMPDEST PUSH1 0x4 DUP3 ADD PUSH1 0x0 PUSH2 0xEE7 SWAP2 SWAP1 PUSH2 0x1077 JUMP JUMPDEST PUSH1 0x5 DUP3 ADD PUSH1 0x0 SWAP1 SSTORE PUSH1 0x6 DUP3 ADD PUSH1 0x0 PUSH2 0xEFF SWAP2 SWAP1 PUSH2 0x10B7 JUMP JUMPDEST PUSH1 0x7 DUP3 ADD PUSH1 0x0 DUP1 DUP3 ADD PUSH1 0x0 PUSH2 0xF14 SWAP2 SWAP1 PUSH2 0x1077 JUMP JUMPDEST PUSH1 0x1 DUP3 ADD PUSH1 0x0 PUSH2 0xF24 SWAP2 SWAP1 PUSH2 0x1077 JUMP JUMPDEST PUSH1 0x2 DUP3 ADD PUSH1 0x0 PUSH2 0xF34 SWAP2 SWAP1 PUSH2 0x1077 JUMP JUMPDEST PUSH1 0x3 DUP3 ADD PUSH1 0x0 PUSH2 0xF44 SWAP2 SWAP1 PUSH2 0x1077 JUMP JUMPDEST PUSH1 0x4 DUP3 ADD PUSH1 0x0 PUSH2 0xF54 SWAP2 SWAP1 PUSH2 0x1077 JUMP JUMPDEST POP POP PUSH1 0xC DUP3 ADD PUSH1 0x0 DUP1 DUP3 ADD PUSH1 0x0 PUSH2 0xF6B SWAP2 SWAP1 PUSH2 0x10B7 JUMP JUMPDEST PUSH1 0x1 DUP3 ADD PUSH1 0x0 PUSH2 0xF7B SWAP2 SWAP1 PUSH2 0x10B7 JUMP JUMPDEST PUSH1 0x2 DUP3 ADD PUSH1 0x0 PUSH2 0xF8B SWAP2 SWAP1 PUSH2 0x10B7 JUMP JUMPDEST POP POP POP POP JUMP JUMPDEST DUP3 DUP1 SLOAD PUSH2 0xF9D SWAP1 PUSH2 0x1953 JUMP JUMPDEST SWAP1 PUSH1 0x0 MSTORE PUSH1 0x20 PUSH1 0x0 KECCAK256 SWAP1 PUSH1 0x1F ADD PUSH1 0x20 SWAP1 DIV DUP2 ADD SWAP3 DUP3 PUSH2 0xFBF JUMPI PUSH1 0x0 DUP6 SSTORE PUSH2 0x1006 JUMP JUMPDEST DUP3 PUSH1 0x1F LT PUSH2 0xFD8 JUMPI DUP1 MLOAD PUSH1 0xFF NOT AND DUP4 DUP1 ADD OR DUP6 SSTORE PUSH2 0x1006 JUMP JUMPDEST DUP3 DUP1 ADD PUSH1 0x1 ADD DUP6 SSTORE DUP3 ISZERO PUSH2 0x1006 JUMPI SWAP2 DUP3 ADD JUMPDEST DUP3 DUP2 GT ISZERO PUSH2 0x1005 JUMPI DUP3 MLOAD DUP3 SSTORE SWAP2 PUSH1 0x20 ADD SWAP2 SWAP1 PUSH1 0x1 ADD SWAP1 PUSH2 0xFEA JUMP JUMPDEST JUMPDEST POP SWAP1 POP PUSH2 0x1013 SWAP2 SWAP1 PUSH2 0x10D8 JUMP JUMPDEST POP SWAP1 JUMP JUMPDEST DUP3 DUP1 SLOAD DUP3 DUP3 SSTORE SWAP1 PUSH1 0x0 MSTORE PUSH1 0x20 PUSH1 0x0 KECCAK256 SWAP1 DUP2 ADD SWAP3 DUP3 ISZERO PUSH2 0x1066 JUMPI SWAP2 PUSH1 0x20 MUL DUP3 ADD JUMPDEST DUP3 DUP2 GT ISZERO PUSH2 0x1065 JUMPI DUP3 MLOAD DUP3 SWAP1 DUP1 MLOAD SWAP1 PUSH1 0x20 ADD SWAP1 PUSH2 0x1055 SWAP3 SWAP2 SWAP1 PUSH2 0xF91 JUMP JUMPDEST POP SWAP2 PUSH1 0x20 ADD SWAP2 SWAP1 PUSH1 0x1 ADD SWAP1 PUSH2 0x1037 JUMP JUMPDEST JUMPDEST POP SWAP1 POP PUSH2 0x1073 SWAP2 SWAP1 PUSH2 0x10F5 JUMP JUMPDEST POP SWAP1 JUMP JUMPDEST POP DUP1 SLOAD PUSH2 0x1083 SWAP1 PUSH2 0x1953 JUMP JUMPDEST PUSH1 0x0 DUP3 SSTORE DUP1 PUSH1 0x1F LT PUSH2 0x1095 JUMPI POP PUSH2 0x10B4 JUMP JUMPDEST PUSH1 0x1F ADD PUSH1 0x20 SWAP1 DIV SWAP1 PUSH1 0x0 MSTORE PUSH1 0x20 PUSH1 0x0 KECCAK256 SWAP1 DUP2 ADD SWAP1 PUSH2 0x10B3 SWAP2 SWAP1 PUSH2 0x10D8 JUMP JUMPDEST JUMPDEST POP JUMP JUMPDEST POP DUP1 SLOAD PUSH1 0x0 DUP3 SSTORE SWAP1 PUSH1 0x0 MSTORE PUSH1 0x20 PUSH1 0x0 KECCAK256 SWAP1 DUP2 ADD SWAP1 PUSH2 0x10D5 SWAP2 SWAP1 PUSH2 0x10F5 JUMP JUMPDEST POP JUMP JUMPDEST JUMPDEST DUP1 DUP3 GT ISZERO PUSH2 0x10F1 JUMPI PUSH1 0x0 DUP2 PUSH1 0x0 SWAP1 SSTORE POP PUSH1 0x1 ADD PUSH2 0x10D9 JUMP JUMPDEST POP SWAP1 JUMP JUMPDEST JUMPDEST DUP1 DUP3 GT ISZERO PUSH2 0x1115 JUMPI PUSH1 0x0 DUP2 DUP2 PUSH2 0x110C SWAP2 SWAP1 PUSH2 0x1077 JUMP JUMPDEST POP PUSH1 0x1 ADD PUSH2 0x10F6 JUMP JUMPDEST POP SWAP1 JUMP JUMPDEST PUSH1 0x0 PUSH2 0x112C PUSH2 0x1127 DUP5 PUSH2 0x1812 JUMP JUMPDEST PUSH2 0x17ED JUMP JUMPDEST SWAP1 POP DUP1 DUP4 DUP3 MSTORE PUSH1 0x20 DUP3 ADD SWAP1 POP DUP3 DUP6 PUSH1 0x20 DUP7 MUL DUP3 ADD GT ISZERO PUSH2 0x114F JUMPI PUSH2 0x114E PUSH2 0x1A19 JUMP JUMPDEST JUMPDEST PUSH1 0x0 JUMPDEST DUP6 DUP2 LT ISZERO PUSH2 0x119D JUMPI DUP2 CALLDATALOAD PUSH8 0xFFFFFFFFFFFFFFFF DUP2 GT ISZERO PUSH2 0x1175 JUMPI PUSH2 0x1174 PUSH2 0x1A14 JUMP JUMPDEST JUMPDEST DUP1 DUP7 ADD PUSH2 0x1182 DUP10 DUP3 PUSH2 0x122C JUMP JUMPDEST DUP6 MSTORE PUSH1 0x20 DUP6 ADD SWAP5 POP PUSH1 0x20 DUP5 ADD SWAP4 POP POP POP PUSH1 0x1 DUP2 ADD SWAP1 POP PUSH2 0x1152 JUMP JUMPDEST POP POP POP SWAP4 SWAP3 POP POP POP JUMP JUMPDEST PUSH1 0x0 PUSH2 0x11BA PUSH2 0x11B5 DUP5 PUSH2 0x183E JUMP JUMPDEST PUSH2 0x17ED JUMP JUMPDEST SWAP1 POP DUP3 DUP2 MSTORE PUSH1 0x20 DUP2 ADD DUP5 DUP5 DUP5 ADD GT ISZERO PUSH2 0x11D6 JUMPI PUSH2 0x11D5 PUSH2 0x1A1E JUMP JUMPDEST JUMPDEST PUSH2 0x11E1 DUP5 DUP3 DUP6 PUSH2 0x1911 JUMP JUMPDEST POP SWAP4 SWAP3 POP POP POP JUMP JUMPDEST PUSH1 0x0 DUP2 CALLDATALOAD SWAP1 POP PUSH2 0x11F8 DUP2 PUSH2 0x1A3E JUMP JUMPDEST SWAP3 SWAP2 POP POP JUMP JUMPDEST PUSH1 0x0 DUP3 PUSH1 0x1F DUP4 ADD SLT PUSH2 0x1213 JUMPI PUSH2 0x1212 PUSH2 0x1A14 JUMP JUMPDEST JUMPDEST DUP2 CALLDATALOAD PUSH2 0x1223 DUP5 DUP3 PUSH1 0x20 DUP7 ADD PUSH2 0x1119 JUMP JUMPDEST SWAP2 POP POP SWAP3 SWAP2 POP POP JUMP JUMPDEST PUSH1 0x0 DUP3 PUSH1 0x1F DUP4 ADD SLT PUSH2 0x1241 JUMPI PUSH2 0x1240 PUSH2 0x1A14 JUMP JUMPDEST JUMPDEST DUP2 CALLDATALOAD PUSH2 0x1251 DUP5 DUP3 PUSH1 0x20 DUP7 ADD PUSH2 0x11A7 JUMP JUMPDEST SWAP2 POP POP SWAP3 SWAP2 POP POP JUMP JUMPDEST PUSH1 0x0 PUSH1 0x20 DUP3 DUP5 SUB SLT ISZERO PUSH2 0x1270 JUMPI PUSH2 0x126F PUSH2 0x1A28 JUMP JUMPDEST JUMPDEST PUSH1 0x0 PUSH2 0x127E DUP5 DUP3 DUP6 ADD PUSH2 0x11E9 JUMP JUMPDEST SWAP2 POP POP SWAP3 SWAP2 POP POP JUMP JUMPDEST PUSH1 0x0 DUP1 PUSH1 0x0 PUSH1 0x60 DUP5 DUP7 SUB SLT ISZERO PUSH2 0x12A0 JUMPI PUSH2 0x129F PUSH2 0x1A28 JUMP JUMPDEST JUMPDEST PUSH1 0x0 DUP5 ADD CALLDATALOAD PUSH8 0xFFFFFFFFFFFFFFFF DUP2 GT ISZERO PUSH2 0x12BE JUMPI PUSH2 0x12BD PUSH2 0x1A23 JUMP JUMPDEST JUMPDEST PUSH2 0x12CA DUP7 DUP3 DUP8 ADD PUSH2 0x11FE JUMP JUMPDEST SWAP4 POP POP PUSH1 0x20 DUP5 ADD CALLDATALOAD PUSH8 0xFFFFFFFFFFFFFFFF DUP2 GT ISZERO PUSH2 0x12EB JUMPI PUSH2 0x12EA PUSH2 0x1A23 JUMP JUMPDEST JUMPDEST PUSH2 0x12F7 DUP7 DUP3 DUP8 ADD PUSH2 0x11FE JUMP JUMPDEST SWAP3 POP POP PUSH1 0x40 DUP5 ADD CALLDATALOAD PUSH8 0xFFFFFFFFFFFFFFFF DUP2 GT ISZERO PUSH2 0x1318 JUMPI PUSH2 0x1317 PUSH2 0x1A23 JUMP JUMPDEST JUMPDEST PUSH2 0x1324 DUP7 DUP3 DUP8 ADD PUSH2 0x11FE JUMP JUMPDEST SWAP2 POP POP SWAP3 POP SWAP3 POP SWAP3 JUMP JUMPDEST PUSH1 0x0 DUP1 PUSH1 0x0 DUP1 PUSH1 0x0 PUSH1 0xA0 DUP7 DUP9 SUB SLT ISZERO PUSH2 0x134A JUMPI PUSH2 0x1349 PUSH2 0x1A28 JUMP JUMPDEST JUMPDEST PUSH1 0x0 DUP7 ADD CALLDATALOAD PUSH8 0xFFFFFFFFFFFFFFFF DUP2 GT ISZERO PUSH2 0x1368 JUMPI PUSH2 0x1367 PUSH2 0x1A23 JUMP JUMPDEST JUMPDEST PUSH2 0x1374 DUP9 DUP3 DUP10 ADD PUSH2 0x122C JUMP JUMPDEST SWAP6 POP POP PUSH1 0x20 DUP7 ADD CALLDATALOAD PUSH8 0xFFFFFFFFFFFFFFFF DUP2 GT ISZERO PUSH2 0x1395 JUMPI PUSH2 0x1394 PUSH2 0x1A23 JUMP JUMPDEST JUMPDEST PUSH2 0x13A1 DUP9 DUP3 DUP10 ADD PUSH2 0x122C JUMP JUMPDEST SWAP5 POP POP PUSH1 0x40 DUP7 ADD CALLDATALOAD PUSH8 0xFFFFFFFFFFFFFFFF DUP2 GT ISZERO PUSH2 0x13C2 JUMPI PUSH2 0x13C1 PUSH2 0x1A23 JUMP JUMPDEST JUMPDEST PUSH2 0x13CE DUP9 DUP3 DUP10 ADD PUSH2 0x122C JUMP JUMPDEST SWAP4 POP POP PUSH1 0x60 DUP7 ADD CALLDATALOAD PUSH8 0xFFFFFFFFFFFFFFFF DUP2 GT ISZERO PUSH2 0x13EF JUMPI PUSH2 0x13EE PUSH2 0x1A23 JUMP JUMPDEST JUMPDEST PUSH2 0x13FB DUP9 DUP3 DUP10 ADD PUSH2 0x122C JUMP JUMPDEST SWAP3 POP POP PUSH1 0x80 DUP7 ADD CALLDATALOAD PUSH8 0xFFFFFFFFFFFFFFFF DUP2 GT ISZERO PUSH2 0x141C JUMPI PUSH2 0x141B PUSH2 0x1A23 JUMP JUMPDEST JUMPDEST PUSH2 0x1428 DUP9 DUP3 DUP10 ADD PUSH2 0x11FE JUMP JUMPDEST SWAP2 POP POP SWAP3 SWAP6 POP SWAP3 SWAP6 SWAP1 SWAP4 POP JUMP JUMPDEST PUSH1 0x0 DUP1 PUSH1 0x0 DUP1 PUSH1 0x0 PUSH1 0xA0 DUP7 DUP9 SUB SLT ISZERO PUSH2 0x1451 JUMPI PUSH2 0x1450 PUSH2 0x1A28 JUMP JUMPDEST JUMPDEST PUSH1 0x0 DUP7 ADD CALLDATALOAD PUSH8 0xFFFFFFFFFFFFFFFF DUP2 GT ISZERO PUSH2 0x146F JUMPI PUSH2 0x146E PUSH2 0x1A23 JUMP JUMPDEST JUMPDEST PUSH2 0x147B DUP9 DUP3 DUP10 ADD PUSH2 0x122C JUMP JUMPDEST SWAP6 POP POP PUSH1 0x20 DUP7 ADD CALLDATALOAD PUSH8 0xFFFFFFFFFFFFFFFF DUP2 GT ISZERO PUSH2 0x149C JUMPI PUSH2 0x149B PUSH2 0x1A23 JUMP JUMPDEST JUMPDEST PUSH2 0x14A8 DUP9 DUP3 DUP10 ADD PUSH2 0x122C JUMP JUMPDEST SWAP5 POP POP PUSH1 0x40 DUP7 ADD CALLDATALOAD PUSH8 0xFFFFFFFFFFFFFFFF DUP2 GT ISZERO PUSH2 0x14C9 JUMPI PUSH2 0x14C8 PUSH2 0x1A23 JUMP JUMPDEST JUMPDEST PUSH2 0x14D5 DUP9 DUP3 DUP10 ADD PUSH2 0x122C JUMP JUMPDEST SWAP4 POP POP PUSH1 0x60 DUP7 ADD CALLDATALOAD PUSH8 0xFFFFFFFFFFFFFFFF DUP2 GT ISZERO PUSH2 0x14F6 JUMPI PUSH2 0x14F5 PUSH2 0x1A23 JUMP JUMPDEST JUMPDEST PUSH2 0x1502 DUP9 DUP3 DUP10 ADD PUSH2 0x122C JUMP JUMPDEST SWAP3 POP POP PUSH1 0x80 DUP7 ADD CALLDATALOAD PUSH8 0xFFFFFFFFFFFFFFFF DUP2 GT ISZERO PUSH2 0x1523 JUMPI PUSH2 0x1522 PUSH2 0x1A23 JUMP JUMPDEST JUMPDEST PUSH2 0x152F DUP9 DUP3 DUP10 ADD PUSH2 0x122C JUMP JUMPDEST SWAP2 POP POP SWAP3 SWAP6 POP SWAP3 SWAP6 SWAP1 SWAP4 POP JUMP JUMPDEST PUSH1 0x0 PUSH2 0x1548 DUP4 DUP4 PUSH2 0x15D4 JUMP JUMPDEST SWAP1 POP SWAP3 SWAP2 POP POP JUMP JUMPDEST PUSH2 0x1559 DUP2 PUSH2 0x18D5 JUMP JUMPDEST DUP3 MSTORE POP POP JUMP JUMPDEST PUSH1 0x0 PUSH2 0x156A DUP3 PUSH2 0x187F JUMP JUMPDEST PUSH2 0x1574 DUP2 DUP6 PUSH2 0x18A2 JUMP JUMPDEST SWAP4 POP DUP4 PUSH1 0x20 DUP3 MUL DUP6 ADD PUSH2 0x1586 DUP6 PUSH2 0x186F JUMP JUMPDEST DUP1 PUSH1 0x0 JUMPDEST DUP6 DUP2 LT ISZERO PUSH2 0x15C2 JUMPI DUP5 DUP5 SUB DUP10 MSTORE DUP2 MLOAD PUSH2 0x15A3 DUP6 DUP3 PUSH2 0x153C JUMP JUMPDEST SWAP5 POP PUSH2 0x15AE DUP4 PUSH2 0x1895 JUMP JUMPDEST SWAP3 POP PUSH1 0x20 DUP11 ADD SWAP10 POP POP PUSH1 0x1 DUP2 ADD SWAP1 POP PUSH2 0x158A JUMP JUMPDEST POP DUP3 SWAP8 POP DUP8 SWAP6 POP POP POP POP POP POP SWAP3 SWAP2 POP POP JUMP JUMPDEST PUSH1 0x0 PUSH2 0x15DF DUP3 PUSH2 0x188A JUMP JUMPDEST PUSH2 0x15E9 DUP2 DUP6 PUSH2 0x18B3 JUMP JUMPDEST SWAP4 POP PUSH2 0x15F9 DUP2 DUP6 PUSH1 0x20 DUP7 ADD PUSH2 0x1920 JUMP JUMPDEST PUSH2 0x1602 DUP2 PUSH2 0x1A2D JUMP JUMPDEST DUP5 ADD SWAP2 POP POP SWAP3 SWAP2 POP POP JUMP JUMPDEST PUSH1 0x0 PUSH2 0x1618 DUP3 PUSH2 0x188A JUMP JUMPDEST PUSH2 0x1622 DUP2 DUP6 PUSH2 0x18C4 JUMP JUMPDEST SWAP4 POP PUSH2 0x1632 DUP2 DUP6 PUSH1 0x20 DUP7 ADD PUSH2 0x1920 JUMP JUMPDEST PUSH2 0x163B DUP2 PUSH2 0x1A2D JUMP JUMPDEST DUP5 ADD SWAP2 POP POP SWAP3 SWAP2 POP POP JUMP JUMPDEST PUSH1 0x0 PUSH1 0xA0 DUP4 ADD PUSH1 0x0 DUP4 ADD MLOAD DUP5 DUP3 SUB PUSH1 0x0 DUP7 ADD MSTORE PUSH2 0x1663 DUP3 DUP3 PUSH2 0x15D4 JUMP JUMPDEST SWAP2 POP POP PUSH1 0x20 DUP4 ADD MLOAD DUP5 DUP3 SUB PUSH1 0x20 DUP7 ADD MSTORE PUSH2 0x167D DUP3 DUP3 PUSH2 0x15D4 JUMP JUMPDEST SWAP2 POP POP PUSH1 0x40 DUP4 ADD MLOAD DUP5 DUP3 SUB PUSH1 0x40 DUP7 ADD MSTORE PUSH2 0x1697 DUP3 DUP3 PUSH2 0x15D4 JUMP JUMPDEST SWAP2 POP POP PUSH1 0x60 DUP4 ADD MLOAD DUP5 DUP3 SUB PUSH1 0x60 DUP7 ADD MSTORE PUSH2 0x16B1 DUP3 DUP3 PUSH2 0x15D4 JUMP JUMPDEST SWAP2 POP POP PUSH1 0x80 DUP4 ADD MLOAD DUP5 DUP3 SUB PUSH1 0x80 DUP7 ADD MSTORE PUSH2 0x16CB DUP3 DUP3 PUSH2 0x15D4 JUMP JUMPDEST SWAP2 POP POP DUP1 SWAP2 POP POP SWAP3 SWAP2 POP POP JUMP JUMPDEST PUSH1 0x0 PUSH1 0x60 DUP4 ADD PUSH1 0x0 DUP4 ADD MLOAD DUP5 DUP3 SUB PUSH1 0x0 DUP7 ADD MSTORE PUSH2 0x16F5 DUP3 DUP3 PUSH2 0x155F JUMP JUMPDEST SWAP2 POP POP PUSH1 0x20 DUP4 ADD MLOAD DUP5 DUP3 SUB PUSH1 0x20 DUP7 ADD MSTORE PUSH2 0x170F DUP3 DUP3 PUSH2 0x155F JUMP JUMPDEST SWAP2 POP POP PUSH1 0x40 DUP4 ADD MLOAD DUP5 DUP3 SUB PUSH1 0x40 DUP7 ADD MSTORE PUSH2 0x1729 DUP3 DUP3 PUSH2 0x155F JUMP JUMPDEST SWAP2 POP POP DUP1 SWAP2 POP POP SWAP3 SWAP2 POP POP JUMP JUMPDEST PUSH2 0x173F DUP2 PUSH2 0x1907 JUMP JUMPDEST DUP3 MSTORE POP POP JUMP JUMPDEST PUSH1 0x0 PUSH2 0x100 DUP3 ADD SWAP1 POP PUSH2 0x175B PUSH1 0x0 DUP4 ADD DUP12 PUSH2 0x1550 JUMP JUMPDEST DUP2 DUP2 SUB PUSH1 0x20 DUP4 ADD MSTORE PUSH2 0x176D DUP2 DUP11 PUSH2 0x160D JUMP JUMPDEST SWAP1 POP DUP2 DUP2 SUB PUSH1 0x40 DUP4 ADD MSTORE PUSH2 0x1781 DUP2 DUP10 PUSH2 0x160D JUMP JUMPDEST SWAP1 POP DUP2 DUP2 SUB PUSH1 0x60 DUP4 ADD MSTORE PUSH2 0x1795 DUP2 DUP9 PUSH2 0x160D JUMP JUMPDEST SWAP1 POP DUP2 DUP2 SUB PUSH1 0x80 DUP4 ADD MSTORE PUSH2 0x17A9 DUP2 DUP8 PUSH2 0x160D JUMP JUMPDEST SWAP1 POP PUSH2 0x17B8 PUSH1 0xA0 DUP4 ADD DUP7 PUSH2 0x1736 JUMP JUMPDEST DUP2 DUP2 SUB PUSH1 0xC0 DUP4 ADD MSTORE PUSH2 0x17CA DUP2 DUP6 PUSH2 0x1646 JUMP JUMPDEST SWAP1 POP DUP2 DUP2 SUB PUSH1 0xE0 DUP4 ADD MSTORE PUSH2 0x17DE DUP2 DUP5 PUSH2 0x16D8 JUMP JUMPDEST SWAP1 POP SWAP10 SWAP9 POP POP POP POP POP POP POP POP POP JUMP JUMPDEST PUSH1 0x0 PUSH2 0x17F7 PUSH2 0x1808 JUMP JUMPDEST SWAP1 POP PUSH2 0x1803 DUP3 DUP3 PUSH2 0x1985 JUMP JUMPDEST SWAP2 SWAP1 POP JUMP JUMPDEST PUSH1 0x0 PUSH1 0x40 MLOAD SWAP1 POP SWAP1 JUMP JUMPDEST PUSH1 0x0 PUSH8 0xFFFFFFFFFFFFFFFF DUP3 GT ISZERO PUSH2 0x182D JUMPI PUSH2 0x182C PUSH2 0x19E5 JUMP JUMPDEST JUMPDEST PUSH1 0x20 DUP3 MUL SWAP1 POP PUSH1 0x20 DUP2 ADD SWAP1 POP SWAP2 SWAP1 POP JUMP JUMPDEST PUSH1 0x0 PUSH8 0xFFFFFFFFFFFFFFFF DUP3 GT ISZERO PUSH2 0x1859 JUMPI PUSH2 0x1858 PUSH2 0x19E5 JUMP JUMPDEST JUMPDEST PUSH2 0x1862 DUP3 PUSH2 0x1A2D JUMP JUMPDEST SWAP1 POP PUSH1 0x20 DUP2 ADD SWAP1 POP SWAP2 SWAP1 POP JUMP JUMPDEST PUSH1 0x0 DUP2 SWAP1 POP PUSH1 0x20 DUP3 ADD SWAP1 POP SWAP2 SWAP1 POP JUMP JUMPDEST PUSH1 0x0 DUP2 MLOAD SWAP1 POP SWAP2 SWAP1 POP JUMP JUMPDEST PUSH1 0x0 DUP2 MLOAD SWAP1 POP SWAP2 SWAP1 POP JUMP JUMPDEST PUSH1 0x0 PUSH1 0x20 DUP3 ADD SWAP1 POP SWAP2 SWAP1 POP JUMP JUMPDEST PUSH1 0x0 DUP3 DUP3 MSTORE PUSH1 0x20 DUP3 ADD SWAP1 POP SWAP3 SWAP2 POP POP JUMP JUMPDEST PUSH1 0x0 DUP3 DUP3 MSTORE PUSH1 0x20 DUP3 ADD SWAP1 POP SWAP3 SWAP2 POP POP JUMP JUMPDEST PUSH1 0x0 DUP3 DUP3 MSTORE PUSH1 0x20 DUP3 ADD SWAP1 POP SWAP3 SWAP2 POP POP JUMP JUMPDEST PUSH1 0x0 PUSH2 0x18E0 DUP3 PUSH2 0x18E7 JUMP JUMPDEST SWAP1 POP SWAP2 SWAP1 POP JUMP JUMPDEST PUSH1 0x0 PUSH20 0xFFFFFFFFFFFFFFFFFFFFFFFFFFFFFFFFFFFFFFFF DUP3 AND SWAP1 POP SWAP2 SWAP1 POP JUMP JUMPDEST PUSH1 0x0 DUP2 SWAP1 POP SWAP2 SWAP1 POP JUMP JUMPDEST DUP3 DUP2 DUP4 CALLDATACOPY PUSH1 0x0 DUP4 DUP4 ADD MSTORE POP POP POP JUMP JUMPDEST PUSH1 0x0 JUMPDEST DUP4 DUP2 LT ISZERO PUSH2 0x193E JUMPI DUP1 DUP3 ADD MLOAD DUP2 DUP5 ADD MSTORE PUSH1 0x20 DUP2 ADD SWAP1 POP PUSH2 0x1923 JUMP JUMPDEST DUP4 DUP2 GT ISZERO PUSH2 0x194D JUMPI PUSH1 0x0 DUP5 DUP5 ADD MSTORE JUMPDEST POP POP POP POP JUMP JUMPDEST PUSH1 0x0 PUSH1 0x2 DUP3 DIV SWAP1 POP PUSH1 0x1 DUP3 AND DUP1 PUSH2 0x196B JUMPI PUSH1 0x7F DUP3 AND SWAP2 POP JUMPDEST PUSH1 0x20 DUP3 LT DUP2 EQ ISZERO PUSH2 0x197F JUMPI PUSH2 0x197E PUSH2 0x19B6 JUMP JUMPDEST JUMPDEST POP SWAP2 SWAP1 POP JUMP JUMPDEST PUSH2 0x198E DUP3 PUSH2 0x1A2D JUMP JUMPDEST DUP2 ADD DUP2 DUP2 LT PUSH8 0xFFFFFFFFFFFFFFFF DUP3 GT OR ISZERO PUSH2 0x19AD JUMPI PUSH2 0x19AC PUSH2 0x19E5 JUMP JUMPDEST JUMPDEST DUP1 PUSH1 0x40 MSTORE POP POP POP JUMP JUMPDEST PUSH32 0x4E487B7100000000000000000000000000000000000000000000000000000000 PUSH1 0x0 MSTORE PUSH1 0x22 PUSH1 0x4 MSTORE PUSH1 0x24 PUSH1 0x0 REVERT JUMPDEST PUSH32 0x4E487B7100000000000000000000000000000000000000000000000000000000 PUSH1 0x0 MSTORE PUSH1 0x41 PUSH1 0x4 MSTORE PUSH1 0x24 PUSH1 0x0 REVERT JUMPDEST PUSH1 0x0 DUP1 REVERT JUMPDEST PUSH1 0x0 DUP1 REVERT JUMPDEST PUSH1 0x0 DUP1 REVERT JUMPDEST PUSH1 0x0 DUP1 REVERT JUMPDEST PUSH1 0x0 DUP1 REVERT JUMPDEST PUSH1 0x0 PUSH1 0x1F NOT PUSH1 0x1F DUP4 ADD AND SWAP1 POP SWAP2 SWAP1 POP JUMP JUMPDEST PUSH2 0x1A47 DUP2 PUSH2 0x18D5 JUMP JUMPDEST DUP2 EQ PUSH2 0x1A52 JUMPI PUSH1 0x0 DUP1 REVERT JUMPDEST POP JUMP INVALID LOG2 PUSH5 0x6970667358 0x22 SLT KECCAK256 0xD3 SWAP14 CODESIZE EXTCODESIZE ORIGIN BLOCKHASH 0xF8 0xB4 0xFC DELEGATECALL 0xEE 0x2A CALLER SSTORE ADDMOD 0xCD DUP2 DUP12 SWAP14 SELFDESTRUCT 0xF SHR MUL MUL PUSH23 0x79BB6E442BD7FD64736F6C634300080700330000000000 "
				},
				"gasEstimates": {
					"creation": {
						"codeDepositCost": "1359000",
						"executionCost": "1417",
						"totalCost": "1360417"
					},
					"external": {
						"addBio(string,string,string,string,string[])": "infinite",
						"addContract(string,string,string,string,string)": "infinite",
						"addSkill(string[],string[],string[])": "infinite",
						"delProfile()": "infinite",
						"profile(address)": "infinite"
					}
				},
				"methodIdentifiers": {
					"addBio(string,string,string,string,string[])": "902a1fd2",
					"addContract(string,string,string,string,string)": "91f2cb9d",
					"addSkill(string[],string[],string[])": "d52246d7",
					"delProfile()": "fabce08f",
					"profile(address)": "9dd9d0fd"
				}
			},
			"storageLayout": {
				"storage": [
					{
						"astId": 28,
						"contract": "contracts/Profile.sol:Profile",
						"label": "profile",
						"offset": 0,
						"slot": "0",
						"type": "t_mapping(t_address,t_struct(Bio)23_storage)"
					}
				],
				"types": {
					"t_address": {
						"encoding": "inplace",
						"label": "address",
						"numberOfBytes": "20"
					},
					"t_array(t_string_storage)dyn_storage": {
						"base": "t_string_storage",
						"encoding": "dynamic_array",
						"label": "string[]",
						"numberOfBytes": "32"
					},
					"t_mapping(t_address,t_struct(Bio)23_storage)": {
						"encoding": "mapping",
						"key": "t_address",
						"label": "mapping(address => struct Profile.Bio)",
						"numberOfBytes": "32",
						"value": "t_struct(Bio)23_storage"
					},
					"t_string_storage": {
						"encoding": "bytes",
						"label": "string",
						"numberOfBytes": "32"
					},
					"t_struct(Bio)23_storage": {
						"encoding": "inplace",
						"label": "struct Profile.Bio",
						"members": [
							{
								"astId": 3,
								"contract": "contracts/Profile.sol:Profile",
								"label": "userAddress",
								"offset": 0,
								"slot": "0",
								"type": "t_address"
							},
							{
								"astId": 5,
								"contract": "contracts/Profile.sol:Profile",
								"label": "firstName",
								"offset": 0,
								"slot": "1",
								"type": "t_string_storage"
							},
							{
								"astId": 7,
								"contract": "contracts/Profile.sol:Profile",
								"label": "middleName",
								"offset": 0,
								"slot": "2",
								"type": "t_string_storage"
							},
							{
								"astId": 9,
								"contract": "contracts/Profile.sol:Profile",
								"label": "lastName",
								"offset": 0,
								"slot": "3",
								"type": "t_string_storage"
							},
							{
								"astId": 11,
								"contract": "contracts/Profile.sol:Profile",
								"label": "profileImage",
								"offset": 0,
								"slot": "4",
								"type": "t_string_storage"
							},
							{
								"astId": 13,
								"contract": "contracts/Profile.sol:Profile",
								"label": "createDate",
								"offset": 0,
								"slot": "5",
								"type": "t_uint256"
							},
							{
								"astId": 16,
								"contract": "contracts/Profile.sol:Profile",
								"label": "education",
								"offset": 0,
								"slot": "6",
								"type": "t_array(t_string_storage)dyn_storage"
							},
							{
								"astId": 19,
								"contract": "contracts/Profile.sol:Profile",
								"label": "privateContract",
								"offset": 0,
								"slot": "7",
								"type": "t_struct(Contract)39_storage"
							},
							{
								"astId": 22,
								"contract": "contracts/Profile.sol:Profile",
								"label": "skill",
								"offset": 0,
								"slot": "12",
								"type": "t_struct(Skill)49_storage"
							}
						],
						"numberOfBytes": "480"
					},
					"t_struct(Contract)39_storage": {
						"encoding": "inplace",
						"label": "struct Profile.Contract",
						"members": [
							{
								"astId": 30,
								"contract": "contracts/Profile.sol:Profile",
								"label": "email",
								"offset": 0,
								"slot": "0",
								"type": "t_string_storage"
							},
							{
								"astId": 32,
								"contract": "contracts/Profile.sol:Profile",
								"label": "phone",
								"offset": 0,
								"slot": "1",
								"type": "t_string_storage"
							},
							{
								"astId": 34,
								"contract": "contracts/Profile.sol:Profile",
								"label": "github",
								"offset": 0,
								"slot": "2",
								"type": "t_string_storage"
							},
							{
								"astId": 36,
								"contract": "contracts/Profile.sol:Profile",
								"label": "gitlab",
								"offset": 0,
								"slot": "3",
								"type": "t_string_storage"
							},
							{
								"astId": 38,
								"contract": "contracts/Profile.sol:Profile",
								"label": "linkin",
								"offset": 0,
								"slot": "4",
								"type": "t_string_storage"
							}
						],
						"numberOfBytes": "160"
					},
					"t_struct(Skill)49_storage": {
						"encoding": "inplace",
						"label": "struct Profile.Skill",
						"members": [
							{
								"astId": 42,
								"contract": "contracts/Profile.sol:Profile",
								"label": "frontend",
								"offset": 0,
								"slot": "0",
								"type": "t_array(t_string_storage)dyn_storage"
							},
							{
								"astId": 45,
								"contract": "contracts/Profile.sol:Profile",
								"label": "backend",
								"offset": 0,
								"slot": "1",
								"type": "t_array(t_string_storage)dyn_storage"
							},
							{
								"astId": 48,
								"contract": "contracts/Profile.sol:Profile",
								"label": "framework",
								"offset": 0,
								"slot": "2",
								"type": "t_array(t_string_storage)dyn_storage"
							}
						],
						"numberOfBytes": "96"
					},
					"t_uint256": {
						"encoding": "inplace",
						"label": "uint256",
						"numberOfBytes": "32"
					}
				}
			},
			"userdoc": {
				"kind": "user",
				"methods": {},
				"version": 1
			}
		}
	}
}