{
	"contracts/Profile.sol": {
		"Profile": {
			"abi": [
				{
					"inputs": [
						{
							"internalType": "string",
							"name": "firstName",
							"type": "string"
						},
						{
							"internalType": "string",
							"name": "middleName",
							"type": "string"
						},
						{
							"internalType": "string",
							"name": "lastName",
							"type": "string"
						},
						{
							"internalType": "string",
							"name": "profileImage",
							"type": "string"
						}
					],
					"name": "createBio",
					"outputs": [],
					"stateMutability": "nonpayable",
					"type": "function"
				},
				{
					"inputs": [
						{
							"internalType": "string",
							"name": "email",
							"type": "string"
						},
						{
							"internalType": "string",
							"name": "phone",
							"type": "string"
						},
						{
							"internalType": "string",
							"name": "github",
							"type": "string"
						},
						{
							"internalType": "string",
							"name": "gitlab",
							"type": "string"
						},
						{
							"internalType": "string",
							"name": "linkin",
							"type": "string"
						}
					],
					"name": "createContract",
					"outputs": [],
					"stateMutability": "nonpayable",
					"type": "function"
				},
				{
					"inputs": [
						{
							"internalType": "string[]",
							"name": "programmingLanguages",
							"type": "string[]"
						},
						{
							"internalType": "string[]",
							"name": "framework",
							"type": "string[]"
						},
						{
							"internalType": "string[]",
							"name": "databaseAndOther",
							"type": "string[]"
						}
					],
					"name": "createSkill",
					"outputs": [],
					"stateMutability": "nonpayable",
					"type": "function"
				},
				{
					"inputs": [
						{
							"internalType": "string",
							"name": "startDate",
							"type": "string"
						},
						{
							"internalType": "string",
							"name": "endDate",
							"type": "string"
						},
						{
							"internalType": "string",
							"name": "univercity",
							"type": "string"
						},
						{
							"internalType": "string",
							"name": "major",
							"type": "string"
						}
					],
					"name": "createUnivercity",
					"outputs": [],
					"stateMutability": "nonpayable",
					"type": "function"
				},
				{
					"inputs": [],
					"name": "delAllEducation",
					"outputs": [],
					"stateMutability": "nonpayable",
					"type": "function"
				},
				{
					"inputs": [],
					"name": "delProfile",
					"outputs": [],
					"stateMutability": "nonpayable",
					"type": "function"
				},
				{
					"inputs": [
						{
							"internalType": "uint256",
							"name": "index",
							"type": "uint256"
						}
					],
					"name": "getEducation",
					"outputs": [
						{
							"internalType": "string",
							"name": "",
							"type": "string"
						},
						{
							"internalType": "string",
							"name": "",
							"type": "string"
						},
						{
							"internalType": "string",
							"name": "",
							"type": "string"
						},
						{
							"internalType": "string",
							"name": "",
							"type": "string"
						}
					],
					"stateMutability": "view",
					"type": "function"
				},
				{
					"inputs": [],
					"name": "getEducationCount",
					"outputs": [
						{
							"internalType": "uint256",
							"name": "",
							"type": "uint256"
						}
					],
					"stateMutability": "view",
					"type": "function"
				},
				{
					"inputs": [
						{
							"internalType": "address",
							"name": "",
							"type": "address"
						}
					],
					"name": "profile",
					"outputs": [
						{
							"internalType": "address",
							"name": "userAddress",
							"type": "address"
						},
						{
							"internalType": "string",
							"name": "firstName",
							"type": "string"
						},
						{
							"internalType": "string",
							"name": "middleName",
							"type": "string"
						},
						{
							"internalType": "string",
							"name": "lastName",
							"type": "string"
						},
						{
							"internalType": "string",
							"name": "profileImage",
							"type": "string"
						},
						{
							"internalType": "uint256",
							"name": "createDate",
							"type": "uint256"
						},
						{
							"components": [
								{
									"internalType": "string",
									"name": "email",
									"type": "string"
								},
								{
									"internalType": "string",
									"name": "phone",
									"type": "string"
								},
								{
									"internalType": "string",
									"name": "github",
									"type": "string"
								},
								{
									"internalType": "string",
									"name": "gitlab",
									"type": "string"
								},
								{
									"internalType": "string",
									"name": "linkin",
									"type": "string"
								}
							],
							"internalType": "struct Profile.Contract",
							"name": "privateContract",
							"type": "tuple"
						},
						{
							"components": [
								{
									"internalType": "string[]",
									"name": "programmingLanguages",
									"type": "string[]"
								},
								{
									"internalType": "string[]",
									"name": "framework",
									"type": "string[]"
								},
								{
									"internalType": "string[]",
									"name": "databaseAndOther",
									"type": "string[]"
								}
							],
							"internalType": "struct Profile.Skill",
							"name": "skill",
							"type": "tuple"
						}
					],
					"stateMutability": "view",
					"type": "function"
				}
			],
			"devdoc": {
				"kind": "dev",
				"methods": {},
				"version": 1
			},
			"evm": {
				"assembly": "    /* \"contracts/Profile.sol\":60:3507  contract Profile {\r... */\n  mstore(0x40, 0x80)\n  callvalue\n  dup1\n  iszero\n  tag_1\n  jumpi\n  0x00\n  dup1\n  revert\ntag_1:\n  pop\n  dataSize(sub_0)\n  dup1\n  dataOffset(sub_0)\n  0x00\n  codecopy\n  0x00\n  return\nstop\n\nsub_0: assembly {\n        /* \"contracts/Profile.sol\":60:3507  contract Profile {\r... */\n      mstore(0x40, 0x80)\n      callvalue\n      dup1\n      iszero\n      tag_1\n      jumpi\n      0x00\n      dup1\n      revert\n    tag_1:\n      pop\n      jumpi(tag_2, lt(calldatasize, 0x04))\n      shr(0xe0, calldataload(0x00))\n      dup1\n      0x9d983a01\n      gt\n      tag_12\n      jumpi\n      dup1\n      0x9d983a01\n      eq\n      tag_7\n      jumpi\n      dup1\n      0x9dd9d0fd\n      eq\n      tag_8\n      jumpi\n      dup1\n      0xed2217ef\n      eq\n      tag_9\n      jumpi\n      dup1\n      0xf96e32f8\n      eq\n      tag_10\n      jumpi\n      dup1\n      0xfabce08f\n      eq\n      tag_11\n      jumpi\n      jump(tag_2)\n    tag_12:\n      dup1\n      0x3d984d0e\n      eq\n      tag_3\n      jumpi\n      dup1\n      0x6212fa02\n      eq\n      tag_4\n      jumpi\n      dup1\n      0x72828388\n      eq\n      tag_5\n      jumpi\n      dup1\n      0x8c241fc4\n      eq\n      tag_6\n      jumpi\n    tag_2:\n      0x00\n      dup1\n      revert\n        /* \"contracts/Profile.sol\":1996:2384  function createSkill(string[] memory programmingLanguages, string[] memory framework, string[] memory databaseAndOther) public {\r... */\n    tag_3:\n      tag_13\n      0x04\n      dup1\n      calldatasize\n      sub\n      dup2\n      add\n      swap1\n      tag_14\n      swap2\n      swap1\n      tag_15\n      jump\t// in\n    tag_14:\n      tag_16\n      jump\t// in\n    tag_13:\n      stop\n        /* \"contracts/Profile.sol\":3202:3320  function getEducationCount() public view returns (uint) {\r... */\n    tag_4:\n      tag_17\n      tag_18\n      jump\t// in\n    tag_17:\n      mload(0x40)\n      tag_19\n      swap2\n      swap1\n      tag_20\n      jump\t// in\n    tag_19:\n      mload(0x40)\n      dup1\n      swap2\n      sub\n      swap1\n      return\n        /* \"contracts/Profile.sol\":1406:1909  function createContract(string memory email, string memory phone, string memory github, string memory gitlab, string memory linkin) public {\r... */\n    tag_5:\n      tag_21\n      0x04\n      dup1\n      calldatasize\n      sub\n      dup2\n      add\n      swap1\n      tag_22\n      swap2\n      swap1\n      tag_23\n      jump\t// in\n    tag_22:\n      tag_24\n      jump\t// in\n    tag_21:\n      stop\n        /* \"contracts/Profile.sol\":884:1351  function createBio(string memory firstName, string memory middleName, string memory lastName,  string memory profileImage) public {\r... */\n    tag_6:\n      tag_25\n      0x04\n      dup1\n      calldatasize\n      sub\n      dup2\n      add\n      swap1\n      tag_26\n      swap2\n      swap1\n      tag_27\n      jump\t// in\n    tag_26:\n      tag_28\n      jump\t// in\n    tag_25:\n      stop\n        /* \"contracts/Profile.sol\":2451:2858  function createUnivercity(string memory startDate, string memory endDate, string memory univercity, string memory major) public {\r... */\n    tag_7:\n      tag_29\n      0x04\n      dup1\n      calldatasize\n      sub\n      dup2\n      add\n      swap1\n      tag_30\n      swap2\n      swap1\n      tag_27\n      jump\t// in\n    tag_30:\n      tag_31\n      jump\t// in\n    tag_29:\n      stop\n        /* \"contracts/Profile.sol\":370:410  mapping (address => Bio) public  profile */\n    tag_8:\n      tag_32\n      0x04\n      dup1\n      calldatasize\n      sub\n      dup2\n      add\n      swap1\n      tag_33\n      swap2\n      swap1\n      tag_34\n      jump\t// in\n    tag_33:\n      tag_35\n      jump\t// in\n    tag_32:\n      mload(0x40)\n      tag_36\n      swap9\n      swap8\n      swap7\n      swap6\n      swap5\n      swap4\n      swap3\n      swap2\n      swap1\n      tag_37\n      jump\t// in\n    tag_36:\n      mload(0x40)\n      dup1\n      swap2\n      sub\n      swap1\n      return\n        /* \"contracts/Profile.sol\":3328:3420  function delAllEducation() external  {\r... */\n    tag_9:\n      tag_38\n      tag_39\n      jump\t// in\n    tag_38:\n      stop\n        /* \"contracts/Profile.sol\":2867:3194  function getEducation(uint index) public view returns(string memory, string memory, string memory, string memory) {\r... */\n    tag_10:\n      tag_40\n      0x04\n      dup1\n      calldatasize\n      sub\n      dup2\n      add\n      swap1\n      tag_41\n      swap2\n      swap1\n      tag_42\n      jump\t// in\n    tag_41:\n      tag_43\n      jump\t// in\n    tag_40:\n      mload(0x40)\n      tag_44\n      swap5\n      swap4\n      swap3\n      swap2\n      swap1\n      tag_45\n      jump\t// in\n    tag_44:\n      mload(0x40)\n      dup1\n      swap2\n      sub\n      swap1\n      return\n        /* \"contracts/Profile.sol\":3428:3504  function delProfile() external {\r... */\n    tag_11:\n      tag_46\n      tag_47\n      jump\t// in\n    tag_46:\n      stop\n        /* \"contracts/Profile.sol\":1996:2384  function createSkill(string[] memory programmingLanguages, string[] memory framework, string[] memory databaseAndOther) public {\r... */\n    tag_16:\n        /* \"contracts/Profile.sol\":2141:2148  profile */\n      0x00\n        /* \"contracts/Profile.sol\":2141:2160  profile[msg.sender] */\n      dup1\n        /* \"contracts/Profile.sol\":2149:2159  msg.sender */\n      caller\n        /* \"contracts/Profile.sol\":2141:2160  profile[msg.sender] */\n      0xffffffffffffffffffffffffffffffffffffffff\n      and\n      0xffffffffffffffffffffffffffffffffffffffff\n      and\n      dup2\n      mstore\n      0x20\n      add\n      swap1\n      dup2\n      mstore\n      0x20\n      add\n      0x00\n      keccak256\n        /* \"contracts/Profile.sol\":2141:2166  profile[msg.sender].skill */\n      0x0b\n      add\n      0x00\n        /* \"contracts/Profile.sol\":2134:2166  delete profile[msg.sender].skill */\n      dup1\n      dup3\n      add\n      0x00\n      tag_49\n      swap2\n      swap1\n      tag_50\n      jump\t// in\n    tag_49:\n      0x01\n      dup3\n      add\n      0x00\n      tag_51\n      swap2\n      swap1\n      tag_50\n      jump\t// in\n    tag_51:\n      0x02\n      dup3\n      add\n      0x00\n      tag_52\n      swap2\n      swap1\n      tag_50\n      jump\t// in\n    tag_52:\n      pop\n      pop\n        /* \"contracts/Profile.sol\":2226:2246  programmingLanguages */\n      dup3\n        /* \"contracts/Profile.sol\":2177:2184  profile */\n      0x00\n        /* \"contracts/Profile.sol\":2177:2196  profile[msg.sender] */\n      dup1\n        /* \"contracts/Profile.sol\":2185:2195  msg.sender */\n      caller\n        /* \"contracts/Profile.sol\":2177:2196  profile[msg.sender] */\n      0xffffffffffffffffffffffffffffffffffffffff\n      and\n      0xffffffffffffffffffffffffffffffffffffffff\n      and\n      dup2\n      mstore\n      0x20\n      add\n      swap1\n      dup2\n      mstore\n      0x20\n      add\n      0x00\n      keccak256\n        /* \"contracts/Profile.sol\":2177:2202  profile[msg.sender].skill */\n      0x0b\n      add\n        /* \"contracts/Profile.sol\":2177:2223  profile[msg.sender].skill.programmingLanguages */\n      0x00\n      add\n        /* \"contracts/Profile.sol\":2177:2246  profile[msg.sender].skill.programmingLanguages = programmingLanguages */\n      swap1\n      dup1\n      mload\n      swap1\n      0x20\n      add\n      swap1\n      tag_53\n      swap3\n      swap2\n      swap1\n      tag_54\n      jump\t// in\n    tag_53:\n      pop\n        /* \"contracts/Profile.sol\":2295:2304  framework */\n      dup2\n        /* \"contracts/Profile.sol\":2257:2264  profile */\n      0x00\n        /* \"contracts/Profile.sol\":2257:2276  profile[msg.sender] */\n      dup1\n        /* \"contracts/Profile.sol\":2265:2275  msg.sender */\n      caller\n        /* \"contracts/Profile.sol\":2257:2276  profile[msg.sender] */\n      0xffffffffffffffffffffffffffffffffffffffff\n      and\n      0xffffffffffffffffffffffffffffffffffffffff\n      and\n      dup2\n      mstore\n      0x20\n      add\n      swap1\n      dup2\n      mstore\n      0x20\n      add\n      0x00\n      keccak256\n        /* \"contracts/Profile.sol\":2257:2282  profile[msg.sender].skill */\n      0x0b\n      add\n        /* \"contracts/Profile.sol\":2257:2292  profile[msg.sender].skill.framework */\n      0x01\n      add\n        /* \"contracts/Profile.sol\":2257:2304  profile[msg.sender].skill.framework = framework */\n      swap1\n      dup1\n      mload\n      swap1\n      0x20\n      add\n      swap1\n      tag_55\n      swap3\n      swap2\n      swap1\n      tag_54\n      jump\t// in\n    tag_55:\n      pop\n        /* \"contracts/Profile.sol\":2360:2376  databaseAndOther */\n      dup1\n        /* \"contracts/Profile.sol\":2315:2322  profile */\n      0x00\n        /* \"contracts/Profile.sol\":2315:2334  profile[msg.sender] */\n      dup1\n        /* \"contracts/Profile.sol\":2323:2333  msg.sender */\n      caller\n        /* \"contracts/Profile.sol\":2315:2334  profile[msg.sender] */\n      0xffffffffffffffffffffffffffffffffffffffff\n      and\n      0xffffffffffffffffffffffffffffffffffffffff\n      and\n      dup2\n      mstore\n      0x20\n      add\n      swap1\n      dup2\n      mstore\n      0x20\n      add\n      0x00\n      keccak256\n        /* \"contracts/Profile.sol\":2315:2340  profile[msg.sender].skill */\n      0x0b\n      add\n        /* \"contracts/Profile.sol\":2315:2357  profile[msg.sender].skill.databaseAndOther */\n      0x02\n      add\n        /* \"contracts/Profile.sol\":2315:2376  profile[msg.sender].skill.databaseAndOther = databaseAndOther */\n      swap1\n      dup1\n      mload\n      swap1\n      0x20\n      add\n      swap1\n      tag_56\n      swap3\n      swap2\n      swap1\n      tag_54\n      jump\t// in\n    tag_56:\n      pop\n        /* \"contracts/Profile.sol\":1996:2384  function createSkill(string[] memory programmingLanguages, string[] memory framework, string[] memory databaseAndOther) public {\r... */\n      pop\n      pop\n      pop\n      jump\t// out\n        /* \"contracts/Profile.sol\":3202:3320  function getEducationCount() public view returns (uint) {\r... */\n    tag_18:\n        /* \"contracts/Profile.sol\":3252:3256  uint */\n      0x00\n        /* \"contracts/Profile.sol\":3276:3283  profile */\n      dup1\n        /* \"contracts/Profile.sol\":3276:3295  profile[msg.sender] */\n      0x00\n        /* \"contracts/Profile.sol\":3284:3294  msg.sender */\n      caller\n        /* \"contracts/Profile.sol\":3276:3295  profile[msg.sender] */\n      0xffffffffffffffffffffffffffffffffffffffff\n      and\n      0xffffffffffffffffffffffffffffffffffffffff\n      and\n      dup2\n      mstore\n      0x20\n      add\n      swap1\n      dup2\n      mstore\n      0x20\n      add\n      0x00\n      keccak256\n        /* \"contracts/Profile.sol\":3276:3305  profile[msg.sender].education */\n      0x0e\n      add\n        /* \"contracts/Profile.sol\":3276:3312  profile[msg.sender].education.length */\n      dup1\n      sload\n      swap1\n      pop\n        /* \"contracts/Profile.sol\":3269:3312  return profile[msg.sender].education.length */\n      swap1\n      pop\n        /* \"contracts/Profile.sol\":3202:3320  function getEducationCount() public view returns (uint) {\r... */\n      swap1\n      jump\t// out\n        /* \"contracts/Profile.sol\":1406:1909  function createContract(string memory email, string memory phone, string memory github, string memory gitlab, string memory linkin) public {\r... */\n    tag_24:\n        /* \"contracts/Profile.sol\":1563:1570  profile */\n      0x00\n        /* \"contracts/Profile.sol\":1563:1582  profile[msg.sender] */\n      dup1\n        /* \"contracts/Profile.sol\":1571:1581  msg.sender */\n      caller\n        /* \"contracts/Profile.sol\":1563:1582  profile[msg.sender] */\n      0xffffffffffffffffffffffffffffffffffffffff\n      and\n      0xffffffffffffffffffffffffffffffffffffffff\n      and\n      dup2\n      mstore\n      0x20\n      add\n      swap1\n      dup2\n      mstore\n      0x20\n      add\n      0x00\n      keccak256\n        /* \"contracts/Profile.sol\":1563:1598  profile[msg.sender].privateContract */\n      0x06\n      add\n      0x00\n        /* \"contracts/Profile.sol\":1556:1598  delete profile[msg.sender].privateContract */\n      dup1\n      dup3\n      add\n      0x00\n      tag_59\n      swap2\n      swap1\n      tag_60\n      jump\t// in\n    tag_59:\n      0x01\n      dup3\n      add\n      0x00\n      tag_61\n      swap2\n      swap1\n      tag_60\n      jump\t// in\n    tag_61:\n      0x02\n      dup3\n      add\n      0x00\n      tag_62\n      swap2\n      swap1\n      tag_60\n      jump\t// in\n    tag_62:\n      0x03\n      dup3\n      add\n      0x00\n      tag_63\n      swap2\n      swap1\n      tag_60\n      jump\t// in\n    tag_63:\n      0x04\n      dup3\n      add\n      0x00\n      tag_64\n      swap2\n      swap1\n      tag_60\n      jump\t// in\n    tag_64:\n      pop\n      pop\n        /* \"contracts/Profile.sol\":1653:1658  email */\n      dup5\n        /* \"contracts/Profile.sol\":1609:1616  profile */\n      0x00\n        /* \"contracts/Profile.sol\":1609:1628  profile[msg.sender] */\n      dup1\n        /* \"contracts/Profile.sol\":1617:1627  msg.sender */\n      caller\n        /* \"contracts/Profile.sol\":1609:1628  profile[msg.sender] */\n      0xffffffffffffffffffffffffffffffffffffffff\n      and\n      0xffffffffffffffffffffffffffffffffffffffff\n      and\n      dup2\n      mstore\n      0x20\n      add\n      swap1\n      dup2\n      mstore\n      0x20\n      add\n      0x00\n      keccak256\n        /* \"contracts/Profile.sol\":1609:1644  profile[msg.sender].privateContract */\n      0x06\n      add\n        /* \"contracts/Profile.sol\":1609:1650  profile[msg.sender].privateContract.email */\n      0x00\n      add\n        /* \"contracts/Profile.sol\":1609:1658  profile[msg.sender].privateContract.email = email */\n      swap1\n      dup1\n      mload\n      swap1\n      0x20\n      add\n      swap1\n      tag_65\n      swap3\n      swap2\n      swap1\n      tag_66\n      jump\t// in\n    tag_65:\n      pop\n        /* \"contracts/Profile.sol\":1713:1718  phone */\n      dup4\n        /* \"contracts/Profile.sol\":1669:1676  profile */\n      0x00\n        /* \"contracts/Profile.sol\":1669:1688  profile[msg.sender] */\n      dup1\n        /* \"contracts/Profile.sol\":1677:1687  msg.sender */\n      caller\n        /* \"contracts/Profile.sol\":1669:1688  profile[msg.sender] */\n      0xffffffffffffffffffffffffffffffffffffffff\n      and\n      0xffffffffffffffffffffffffffffffffffffffff\n      and\n      dup2\n      mstore\n      0x20\n      add\n      swap1\n      dup2\n      mstore\n      0x20\n      add\n      0x00\n      keccak256\n        /* \"contracts/Profile.sol\":1669:1704  profile[msg.sender].privateContract */\n      0x06\n      add\n        /* \"contracts/Profile.sol\":1669:1710  profile[msg.sender].privateContract.phone */\n      0x01\n      add\n        /* \"contracts/Profile.sol\":1669:1718  profile[msg.sender].privateContract.phone = phone */\n      swap1\n      dup1\n      mload\n      swap1\n      0x20\n      add\n      swap1\n      tag_67\n      swap3\n      swap2\n      swap1\n      tag_66\n      jump\t// in\n    tag_67:\n      pop\n        /* \"contracts/Profile.sol\":1773:1779  github */\n      dup3\n        /* \"contracts/Profile.sol\":1729:1736  profile */\n      0x00\n        /* \"contracts/Profile.sol\":1729:1748  profile[msg.sender] */\n      dup1\n        /* \"contracts/Profile.sol\":1737:1747  msg.sender */\n      caller\n        /* \"contracts/Profile.sol\":1729:1748  profile[msg.sender] */\n      0xffffffffffffffffffffffffffffffffffffffff\n      and\n      0xffffffffffffffffffffffffffffffffffffffff\n      and\n      dup2\n      mstore\n      0x20\n      add\n      swap1\n      dup2\n      mstore\n      0x20\n      add\n      0x00\n      keccak256\n        /* \"contracts/Profile.sol\":1729:1764  profile[msg.sender].privateContract */\n      0x06\n      add\n        /* \"contracts/Profile.sol\":1729:1770  profile[msg.sender].privateContract.email */\n      0x00\n      add\n        /* \"contracts/Profile.sol\":1729:1779  profile[msg.sender].privateContract.email = github */\n      swap1\n      dup1\n      mload\n      swap1\n      0x20\n      add\n      swap1\n      tag_68\n      swap3\n      swap2\n      swap1\n      tag_66\n      jump\t// in\n    tag_68:\n      pop\n        /* \"contracts/Profile.sol\":1834:1840  gitlab */\n      dup2\n        /* \"contracts/Profile.sol\":1790:1797  profile */\n      0x00\n        /* \"contracts/Profile.sol\":1790:1809  profile[msg.sender] */\n      dup1\n        /* \"contracts/Profile.sol\":1798:1808  msg.sender */\n      caller\n        /* \"contracts/Profile.sol\":1790:1809  profile[msg.sender] */\n      0xffffffffffffffffffffffffffffffffffffffff\n      and\n      0xffffffffffffffffffffffffffffffffffffffff\n      and\n      dup2\n      mstore\n      0x20\n      add\n      swap1\n      dup2\n      mstore\n      0x20\n      add\n      0x00\n      keccak256\n        /* \"contracts/Profile.sol\":1790:1825  profile[msg.sender].privateContract */\n      0x06\n      add\n        /* \"contracts/Profile.sol\":1790:1831  profile[msg.sender].privateContract.phone */\n      0x01\n      add\n        /* \"contracts/Profile.sol\":1790:1840  profile[msg.sender].privateContract.phone = gitlab */\n      swap1\n      dup1\n      mload\n      swap1\n      0x20\n      add\n      swap1\n      tag_69\n      swap3\n      swap2\n      swap1\n      tag_66\n      jump\t// in\n    tag_69:\n      pop\n        /* \"contracts/Profile.sol\":1895:1901  linkin */\n      dup1\n        /* \"contracts/Profile.sol\":1851:1858  profile */\n      0x00\n        /* \"contracts/Profile.sol\":1851:1870  profile[msg.sender] */\n      dup1\n        /* \"contracts/Profile.sol\":1859:1869  msg.sender */\n      caller\n        /* \"contracts/Profile.sol\":1851:1870  profile[msg.sender] */\n      0xffffffffffffffffffffffffffffffffffffffff\n      and\n      0xffffffffffffffffffffffffffffffffffffffff\n      and\n      dup2\n      mstore\n      0x20\n      add\n      swap1\n      dup2\n      mstore\n      0x20\n      add\n      0x00\n      keccak256\n        /* \"contracts/Profile.sol\":1851:1886  profile[msg.sender].privateContract */\n      0x06\n      add\n        /* \"contracts/Profile.sol\":1851:1892  profile[msg.sender].privateContract.email */\n      0x00\n      add\n        /* \"contracts/Profile.sol\":1851:1901  profile[msg.sender].privateContract.email = linkin */\n      swap1\n      dup1\n      mload\n      swap1\n      0x20\n      add\n      swap1\n      tag_70\n      swap3\n      swap2\n      swap1\n      tag_66\n      jump\t// in\n    tag_70:\n      pop\n        /* \"contracts/Profile.sol\":1406:1909  function createContract(string memory email, string memory phone, string memory github, string memory gitlab, string memory linkin) public {\r... */\n      pop\n      pop\n      pop\n      pop\n      pop\n      jump\t// out\n        /* \"contracts/Profile.sol\":884:1351  function createBio(string memory firstName, string memory middleName, string memory lastName,  string memory profileImage) public {\r... */\n    tag_28:\n        /* \"contracts/Profile.sol\":1057:1066  firstName */\n      dup4\n        /* \"contracts/Profile.sol\":1025:1032  profile */\n      0x00\n        /* \"contracts/Profile.sol\":1025:1044  profile[msg.sender] */\n      dup1\n        /* \"contracts/Profile.sol\":1033:1043  msg.sender */\n      caller\n        /* \"contracts/Profile.sol\":1025:1044  profile[msg.sender] */\n      0xffffffffffffffffffffffffffffffffffffffff\n      and\n      0xffffffffffffffffffffffffffffffffffffffff\n      and\n      dup2\n      mstore\n      0x20\n      add\n      swap1\n      dup2\n      mstore\n      0x20\n      add\n      0x00\n      keccak256\n        /* \"contracts/Profile.sol\":1025:1054  profile[msg.sender].firstName */\n      0x01\n      add\n        /* \"contracts/Profile.sol\":1025:1066  profile[msg.sender].firstName = firstName */\n      swap1\n      dup1\n      mload\n      swap1\n      0x20\n      add\n      swap1\n      tag_72\n      swap3\n      swap2\n      swap1\n      tag_66\n      jump\t// in\n    tag_72:\n      pop\n        /* \"contracts/Profile.sol\":1110:1120  middleName */\n      dup3\n        /* \"contracts/Profile.sol\":1077:1084  profile */\n      0x00\n        /* \"contracts/Profile.sol\":1077:1096  profile[msg.sender] */\n      dup1\n        /* \"contracts/Profile.sol\":1085:1095  msg.sender */\n      caller\n        /* \"contracts/Profile.sol\":1077:1096  profile[msg.sender] */\n      0xffffffffffffffffffffffffffffffffffffffff\n      and\n      0xffffffffffffffffffffffffffffffffffffffff\n      and\n      dup2\n      mstore\n      0x20\n      add\n      swap1\n      dup2\n      mstore\n      0x20\n      add\n      0x00\n      keccak256\n        /* \"contracts/Profile.sol\":1077:1107  profile[msg.sender].middleName */\n      0x02\n      add\n        /* \"contracts/Profile.sol\":1077:1120  profile[msg.sender].middleName = middleName */\n      swap1\n      dup1\n      mload\n      swap1\n      0x20\n      add\n      swap1\n      tag_73\n      swap3\n      swap2\n      swap1\n      tag_66\n      jump\t// in\n    tag_73:\n      pop\n        /* \"contracts/Profile.sol\":1162:1170  lastName */\n      dup2\n        /* \"contracts/Profile.sol\":1131:1138  profile */\n      0x00\n        /* \"contracts/Profile.sol\":1131:1150  profile[msg.sender] */\n      dup1\n        /* \"contracts/Profile.sol\":1139:1149  msg.sender */\n      caller\n        /* \"contracts/Profile.sol\":1131:1150  profile[msg.sender] */\n      0xffffffffffffffffffffffffffffffffffffffff\n      and\n      0xffffffffffffffffffffffffffffffffffffffff\n      and\n      dup2\n      mstore\n      0x20\n      add\n      swap1\n      dup2\n      mstore\n      0x20\n      add\n      0x00\n      keccak256\n        /* \"contracts/Profile.sol\":1131:1159  profile[msg.sender].lastName */\n      0x03\n      add\n        /* \"contracts/Profile.sol\":1131:1170  profile[msg.sender].lastName = lastName */\n      swap1\n      dup1\n      mload\n      swap1\n      0x20\n      add\n      swap1\n      tag_74\n      swap3\n      swap2\n      swap1\n      tag_66\n      jump\t// in\n    tag_74:\n      pop\n        /* \"contracts/Profile.sol\":1216:1228  profileImage */\n      dup1\n        /* \"contracts/Profile.sol\":1181:1188  profile */\n      0x00\n        /* \"contracts/Profile.sol\":1181:1200  profile[msg.sender] */\n      dup1\n        /* \"contracts/Profile.sol\":1189:1199  msg.sender */\n      caller\n        /* \"contracts/Profile.sol\":1181:1200  profile[msg.sender] */\n      0xffffffffffffffffffffffffffffffffffffffff\n      and\n      0xffffffffffffffffffffffffffffffffffffffff\n      and\n      dup2\n      mstore\n      0x20\n      add\n      swap1\n      dup2\n      mstore\n      0x20\n      add\n      0x00\n      keccak256\n        /* \"contracts/Profile.sol\":1181:1213  profile[msg.sender].profileImage */\n      0x04\n      add\n        /* \"contracts/Profile.sol\":1181:1228  profile[msg.sender].profileImage = profileImage */\n      swap1\n      dup1\n      mload\n      swap1\n      0x20\n      add\n      swap1\n      tag_75\n      swap3\n      swap2\n      swap1\n      tag_66\n      jump\t// in\n    tag_75:\n      pop\n        /* \"contracts/Profile.sol\":1273:1283  msg.sender */\n      caller\n        /* \"contracts/Profile.sol\":1239:1246  profile */\n      0x00\n        /* \"contracts/Profile.sol\":1239:1258  profile[msg.sender] */\n      dup1\n        /* \"contracts/Profile.sol\":1247:1257  msg.sender */\n      caller\n        /* \"contracts/Profile.sol\":1239:1258  profile[msg.sender] */\n      0xffffffffffffffffffffffffffffffffffffffff\n      and\n      0xffffffffffffffffffffffffffffffffffffffff\n      and\n      dup2\n      mstore\n      0x20\n      add\n      swap1\n      dup2\n      mstore\n      0x20\n      add\n      0x00\n      keccak256\n        /* \"contracts/Profile.sol\":1239:1270  profile[msg.sender].userAddress */\n      0x00\n      add\n      0x00\n        /* \"contracts/Profile.sol\":1239:1283  profile[msg.sender].userAddress = msg.sender */\n      0x0100\n      exp\n      dup2\n      sload\n      dup2\n      0xffffffffffffffffffffffffffffffffffffffff\n      mul\n      not\n      and\n      swap1\n      dup4\n      0xffffffffffffffffffffffffffffffffffffffff\n      and\n      mul\n      or\n      swap1\n      sstore\n      pop\n        /* \"contracts/Profile.sol\":1328:1343  block.timestamp */\n      timestamp\n        /* \"contracts/Profile.sol\":1295:1302  profile */\n      0x00\n        /* \"contracts/Profile.sol\":1295:1314  profile[msg.sender] */\n      dup1\n        /* \"contracts/Profile.sol\":1303:1313  msg.sender */\n      caller\n        /* \"contracts/Profile.sol\":1295:1314  profile[msg.sender] */\n      0xffffffffffffffffffffffffffffffffffffffff\n      and\n      0xffffffffffffffffffffffffffffffffffffffff\n      and\n      dup2\n      mstore\n      0x20\n      add\n      swap1\n      dup2\n      mstore\n      0x20\n      add\n      0x00\n      keccak256\n        /* \"contracts/Profile.sol\":1295:1325  profile[msg.sender].createDate */\n      0x05\n      add\n        /* \"contracts/Profile.sol\":1295:1343  profile[msg.sender].createDate = block.timestamp */\n      dup2\n      swap1\n      sstore\n      pop\n        /* \"contracts/Profile.sol\":884:1351  function createBio(string memory firstName, string memory middleName, string memory lastName,  string memory profileImage) public {\r... */\n      pop\n      pop\n      pop\n      pop\n      jump\t// out\n        /* \"contracts/Profile.sol\":2451:2858  function createUnivercity(string memory startDate, string memory endDate, string memory univercity, string memory major) public {\r... */\n    tag_31:\n        /* \"contracts/Profile.sol\":2590:2617  Education memory _education */\n      tag_77\n      tag_78\n      jump\t// in\n    tag_77:\n        /* \"contracts/Profile.sol\":2651:2660  startDate */\n      dup5\n        /* \"contracts/Profile.sol\":2628:2638  _education */\n      dup2\n        /* \"contracts/Profile.sol\":2628:2648  _education.startDate */\n      0x00\n      add\n        /* \"contracts/Profile.sol\":2628:2660  _education.startDate = startDate */\n      dup2\n      swap1\n      mstore\n      pop\n        /* \"contracts/Profile.sol\":2692:2699  endDate */\n      dup4\n        /* \"contracts/Profile.sol\":2671:2681  _education */\n      dup2\n        /* \"contracts/Profile.sol\":2671:2689  _education.endDate */\n      0x20\n      add\n        /* \"contracts/Profile.sol\":2671:2699  _education.endDate = endDate */\n      dup2\n      swap1\n      mstore\n      pop\n        /* \"contracts/Profile.sol\":2734:2744  univercity */\n      dup3\n        /* \"contracts/Profile.sol\":2710:2720  _education */\n      dup2\n        /* \"contracts/Profile.sol\":2710:2731  _education.univercity */\n      0x40\n      add\n        /* \"contracts/Profile.sol\":2710:2744  _education.univercity = univercity */\n      dup2\n      swap1\n      mstore\n      pop\n        /* \"contracts/Profile.sol\":2774:2779  major */\n      dup2\n        /* \"contracts/Profile.sol\":2755:2765  _education */\n      dup2\n        /* \"contracts/Profile.sol\":2755:2771  _education.major */\n      0x60\n      add\n        /* \"contracts/Profile.sol\":2755:2779  _education.major = major */\n      dup2\n      swap1\n      mstore\n      pop\n        /* \"contracts/Profile.sol\":2804:2811  profile */\n      0x00\n        /* \"contracts/Profile.sol\":2804:2823  profile[msg.sender] */\n      dup1\n        /* \"contracts/Profile.sol\":2812:2822  msg.sender */\n      caller\n        /* \"contracts/Profile.sol\":2804:2823  profile[msg.sender] */\n      0xffffffffffffffffffffffffffffffffffffffff\n      and\n      0xffffffffffffffffffffffffffffffffffffffff\n      and\n      dup2\n      mstore\n      0x20\n      add\n      swap1\n      dup2\n      mstore\n      0x20\n      add\n      0x00\n      keccak256\n        /* \"contracts/Profile.sol\":2804:2833  profile[msg.sender].education */\n      0x0e\n      add\n        /* \"contracts/Profile.sol\":2839:2849  _education */\n      dup2\n        /* \"contracts/Profile.sol\":2804:2850  profile[msg.sender].education.push(_education) */\n      swap1\n      dup1\n      0x01\n      dup2\n      sload\n      add\n      dup1\n      dup3\n      sstore\n      dup1\n      swap2\n      pop\n      pop\n      0x01\n      swap1\n      sub\n      swap1\n      0x00\n      mstore\n      keccak256(0x00, 0x20)\n      swap1\n      0x04\n      mul\n      add\n      0x00\n      swap1\n      swap2\n      swap1\n      swap2\n      swap1\n      swap2\n      pop\n      0x00\n      dup3\n      add\n      mload\n      dup2\n      0x00\n      add\n      swap1\n      dup1\n      mload\n      swap1\n      0x20\n      add\n      swap1\n      tag_80\n      swap3\n      swap2\n      swap1\n      tag_66\n      jump\t// in\n    tag_80:\n      pop\n      0x20\n      dup3\n      add\n      mload\n      dup2\n      0x01\n      add\n      swap1\n      dup1\n      mload\n      swap1\n      0x20\n      add\n      swap1\n      tag_81\n      swap3\n      swap2\n      swap1\n      tag_66\n      jump\t// in\n    tag_81:\n      pop\n      0x40\n      dup3\n      add\n      mload\n      dup2\n      0x02\n      add\n      swap1\n      dup1\n      mload\n      swap1\n      0x20\n      add\n      swap1\n      tag_82\n      swap3\n      swap2\n      swap1\n      tag_66\n      jump\t// in\n    tag_82:\n      pop\n      0x60\n      dup3\n      add\n      mload\n      dup2\n      0x03\n      add\n      swap1\n      dup1\n      mload\n      swap1\n      0x20\n      add\n      swap1\n      tag_83\n      swap3\n      swap2\n      swap1\n      tag_66\n      jump\t// in\n    tag_83:\n      pop\n      pop\n      pop\n        /* \"contracts/Profile.sol\":2579:2858  {\r... */\n      pop\n        /* \"contracts/Profile.sol\":2451:2858  function createUnivercity(string memory startDate, string memory endDate, string memory univercity, string memory major) public {\r... */\n      pop\n      pop\n      pop\n      pop\n      jump\t// out\n        /* \"contracts/Profile.sol\":370:410  mapping (address => Bio) public  profile */\n    tag_35:\n      mstore(0x20, 0x00)\n      dup1\n      0x00\n      mstore\n      keccak256(0x00, 0x40)\n      0x00\n      swap2\n      pop\n      swap1\n      pop\n      dup1\n      0x00\n      add\n      0x00\n      swap1\n      sload\n      swap1\n      0x0100\n      exp\n      swap1\n      div\n      0xffffffffffffffffffffffffffffffffffffffff\n      and\n      swap1\n      dup1\n      0x01\n      add\n      dup1\n      sload\n      tag_84\n      swap1\n      tag_85\n      jump\t// in\n    tag_84:\n      dup1\n      0x1f\n      add\n      0x20\n      dup1\n      swap2\n      div\n      mul\n      0x20\n      add\n      mload(0x40)\n      swap1\n      dup2\n      add\n      0x40\n      mstore\n      dup1\n      swap3\n      swap2\n      swap1\n      dup2\n      dup2\n      mstore\n      0x20\n      add\n      dup3\n      dup1\n      sload\n      tag_86\n      swap1\n      tag_85\n      jump\t// in\n    tag_86:\n      dup1\n      iszero\n      tag_87\n      jumpi\n      dup1\n      0x1f\n      lt\n      tag_88\n      jumpi\n      0x0100\n      dup1\n      dup4\n      sload\n      div\n      mul\n      dup4\n      mstore\n      swap2\n      0x20\n      add\n      swap2\n      jump(tag_87)\n    tag_88:\n      dup3\n      add\n      swap2\n      swap1\n      0x00\n      mstore\n      keccak256(0x00, 0x20)\n      swap1\n    tag_89:\n      dup2\n      sload\n      dup2\n      mstore\n      swap1\n      0x01\n      add\n      swap1\n      0x20\n      add\n      dup1\n      dup4\n      gt\n      tag_89\n      jumpi\n      dup3\n      swap1\n      sub\n      0x1f\n      and\n      dup3\n      add\n      swap2\n    tag_87:\n      pop\n      pop\n      pop\n      pop\n      pop\n      swap1\n      dup1\n      0x02\n      add\n      dup1\n      sload\n      tag_90\n      swap1\n      tag_85\n      jump\t// in\n    tag_90:\n      dup1\n      0x1f\n      add\n      0x20\n      dup1\n      swap2\n      div\n      mul\n      0x20\n      add\n      mload(0x40)\n      swap1\n      dup2\n      add\n      0x40\n      mstore\n      dup1\n      swap3\n      swap2\n      swap1\n      dup2\n      dup2\n      mstore\n      0x20\n      add\n      dup3\n      dup1\n      sload\n      tag_91\n      swap1\n      tag_85\n      jump\t// in\n    tag_91:\n      dup1\n      iszero\n      tag_92\n      jumpi\n      dup1\n      0x1f\n      lt\n      tag_93\n      jumpi\n      0x0100\n      dup1\n      dup4\n      sload\n      div\n      mul\n      dup4\n      mstore\n      swap2\n      0x20\n      add\n      swap2\n      jump(tag_92)\n    tag_93:\n      dup3\n      add\n      swap2\n      swap1\n      0x00\n      mstore\n      keccak256(0x00, 0x20)\n      swap1\n    tag_94:\n      dup2\n      sload\n      dup2\n      mstore\n      swap1\n      0x01\n      add\n      swap1\n      0x20\n      add\n      dup1\n      dup4\n      gt\n      tag_94\n      jumpi\n      dup3\n      swap1\n      sub\n      0x1f\n      and\n      dup3\n      add\n      swap2\n    tag_92:\n      pop\n      pop\n      pop\n      pop\n      pop\n      swap1\n      dup1\n      0x03\n      add\n      dup1\n      sload\n      tag_95\n      swap1\n      tag_85\n      jump\t// in\n    tag_95:\n      dup1\n      0x1f\n      add\n      0x20\n      dup1\n      swap2\n      div\n      mul\n      0x20\n      add\n      mload(0x40)\n      swap1\n      dup2\n      add\n      0x40\n      mstore\n      dup1\n      swap3\n      swap2\n      swap1\n      dup2\n      dup2\n      mstore\n      0x20\n      add\n      dup3\n      dup1\n      sload\n      tag_96\n      swap1\n      tag_85\n      jump\t// in\n    tag_96:\n      dup1\n      iszero\n      tag_97\n      jumpi\n      dup1\n      0x1f\n      lt\n      tag_98\n      jumpi\n      0x0100\n      dup1\n      dup4\n      sload\n      div\n      mul\n      dup4\n      mstore\n      swap2\n      0x20\n      add\n      swap2\n      jump(tag_97)\n    tag_98:\n      dup3\n      add\n      swap2\n      swap1\n      0x00\n      mstore\n      keccak256(0x00, 0x20)\n      swap1\n    tag_99:\n      dup2\n      sload\n      dup2\n      mstore\n      swap1\n      0x01\n      add\n      swap1\n      0x20\n      add\n      dup1\n      dup4\n      gt\n      tag_99\n      jumpi\n      dup3\n      swap1\n      sub\n      0x1f\n      and\n      dup3\n      add\n      swap2\n    tag_97:\n      pop\n      pop\n      pop\n      pop\n      pop\n      swap1\n      dup1\n      0x04\n      add\n      dup1\n      sload\n      tag_100\n      swap1\n      tag_85\n      jump\t// in\n    tag_100:\n      dup1\n      0x1f\n      add\n      0x20\n      dup1\n      swap2\n      div\n      mul\n      0x20\n      add\n      mload(0x40)\n      swap1\n      dup2\n      add\n      0x40\n      mstore\n      dup1\n      swap3\n      swap2\n      swap1\n      dup2\n      dup2\n      mstore\n      0x20\n      add\n      dup3\n      dup1\n      sload\n      tag_101\n      swap1\n      tag_85\n      jump\t// in\n    tag_101:\n      dup1\n      iszero\n      tag_102\n      jumpi\n      dup1\n      0x1f\n      lt\n      tag_103\n      jumpi\n      0x0100\n      dup1\n      dup4\n      sload\n      div\n      mul\n      dup4\n      mstore\n      swap2\n      0x20\n      add\n      swap2\n      jump(tag_102)\n    tag_103:\n      dup3\n      add\n      swap2\n      swap1\n      0x00\n      mstore\n      keccak256(0x00, 0x20)\n      swap1\n    tag_104:\n      dup2\n      sload\n      dup2\n      mstore\n      swap1\n      0x01\n      add\n      swap1\n      0x20\n      add\n      dup1\n      dup4\n      gt\n      tag_104\n      jumpi\n      dup3\n      swap1\n      sub\n      0x1f\n      and\n      dup3\n      add\n      swap2\n    tag_102:\n      pop\n      pop\n      pop\n      pop\n      pop\n      swap1\n      dup1\n      0x05\n      add\n      sload\n      swap1\n      dup1\n      0x06\n      add\n      mload(0x40)\n      dup1\n      0xa0\n      add\n      0x40\n      mstore\n      swap1\n      dup2\n      0x00\n      dup3\n      add\n      dup1\n      sload\n      tag_105\n      swap1\n      tag_85\n      jump\t// in\n    tag_105:\n      dup1\n      0x1f\n      add\n      0x20\n      dup1\n      swap2\n      div\n      mul\n      0x20\n      add\n      mload(0x40)\n      swap1\n      dup2\n      add\n      0x40\n      mstore\n      dup1\n      swap3\n      swap2\n      swap1\n      dup2\n      dup2\n      mstore\n      0x20\n      add\n      dup3\n      dup1\n      sload\n      tag_106\n      swap1\n      tag_85\n      jump\t// in\n    tag_106:\n      dup1\n      iszero\n      tag_107\n      jumpi\n      dup1\n      0x1f\n      lt\n      tag_108\n      jumpi\n      0x0100\n      dup1\n      dup4\n      sload\n      div\n      mul\n      dup4\n      mstore\n      swap2\n      0x20\n      add\n      swap2\n      jump(tag_107)\n    tag_108:\n      dup3\n      add\n      swap2\n      swap1\n      0x00\n      mstore\n      keccak256(0x00, 0x20)\n      swap1\n    tag_109:\n      dup2\n      sload\n      dup2\n      mstore\n      swap1\n      0x01\n      add\n      swap1\n      0x20\n      add\n      dup1\n      dup4\n      gt\n      tag_109\n      jumpi\n      dup3\n      swap1\n      sub\n      0x1f\n      and\n      dup3\n      add\n      swap2\n    tag_107:\n      pop\n      pop\n      pop\n      pop\n      pop\n      dup2\n      mstore\n      0x20\n      add\n      0x01\n      dup3\n      add\n      dup1\n      sload\n      tag_110\n      swap1\n      tag_85\n      jump\t// in\n    tag_110:\n      dup1\n      0x1f\n      add\n      0x20\n      dup1\n      swap2\n      div\n      mul\n      0x20\n      add\n      mload(0x40)\n      swap1\n      dup2\n      add\n      0x40\n      mstore\n      dup1\n      swap3\n      swap2\n      swap1\n      dup2\n      dup2\n      mstore\n      0x20\n      add\n      dup3\n      dup1\n      sload\n      tag_111\n      swap1\n      tag_85\n      jump\t// in\n    tag_111:\n      dup1\n      iszero\n      tag_112\n      jumpi\n      dup1\n      0x1f\n      lt\n      tag_113\n      jumpi\n      0x0100\n      dup1\n      dup4\n      sload\n      div\n      mul\n      dup4\n      mstore\n      swap2\n      0x20\n      add\n      swap2\n      jump(tag_112)\n    tag_113:\n      dup3\n      add\n      swap2\n      swap1\n      0x00\n      mstore\n      keccak256(0x00, 0x20)\n      swap1\n    tag_114:\n      dup2\n      sload\n      dup2\n      mstore\n      swap1\n      0x01\n      add\n      swap1\n      0x20\n      add\n      dup1\n      dup4\n      gt\n      tag_114\n      jumpi\n      dup3\n      swap1\n      sub\n      0x1f\n      and\n      dup3\n      add\n      swap2\n    tag_112:\n      pop\n      pop\n      pop\n      pop\n      pop\n      dup2\n      mstore\n      0x20\n      add\n      0x02\n      dup3\n      add\n      dup1\n      sload\n      tag_115\n      swap1\n      tag_85\n      jump\t// in\n    tag_115:\n      dup1\n      0x1f\n      add\n      0x20\n      dup1\n      swap2\n      div\n      mul\n      0x20\n      add\n      mload(0x40)\n      swap1\n      dup2\n      add\n      0x40\n      mstore\n      dup1\n      swap3\n      swap2\n      swap1\n      dup2\n      dup2\n      mstore\n      0x20\n      add\n      dup3\n      dup1\n      sload\n      tag_116\n      swap1\n      tag_85\n      jump\t// in\n    tag_116:\n      dup1\n      iszero\n      tag_117\n      jumpi\n      dup1\n      0x1f\n      lt\n      tag_118\n      jumpi\n      0x0100\n      dup1\n      dup4\n      sload\n      div\n      mul\n      dup4\n      mstore\n      swap2\n      0x20\n      add\n      swap2\n      jump(tag_117)\n    tag_118:\n      dup3\n      add\n      swap2\n      swap1\n      0x00\n      mstore\n      keccak256(0x00, 0x20)\n      swap1\n    tag_119:\n      dup2\n      sload\n      dup2\n      mstore\n      swap1\n      0x01\n      add\n      swap1\n      0x20\n      add\n      dup1\n      dup4\n      gt\n      tag_119\n      jumpi\n      dup3\n      swap1\n      sub\n      0x1f\n      and\n      dup3\n      add\n      swap2\n    tag_117:\n      pop\n      pop\n      pop\n      pop\n      pop\n      dup2\n      mstore\n      0x20\n      add\n      0x03\n      dup3\n      add\n      dup1\n      sload\n      tag_120\n      swap1\n      tag_85\n      jump\t// in\n    tag_120:\n      dup1\n      0x1f\n      add\n      0x20\n      dup1\n      swap2\n      div\n      mul\n      0x20\n      add\n      mload(0x40)\n      swap1\n      dup2\n      add\n      0x40\n      mstore\n      dup1\n      swap3\n      swap2\n      swap1\n      dup2\n      dup2\n      mstore\n      0x20\n      add\n      dup3\n      dup1\n      sload\n      tag_121\n      swap1\n      tag_85\n      jump\t// in\n    tag_121:\n      dup1\n      iszero\n      tag_122\n      jumpi\n      dup1\n      0x1f\n      lt\n      tag_123\n      jumpi\n      0x0100\n      dup1\n      dup4\n      sload\n      div\n      mul\n      dup4\n      mstore\n      swap2\n      0x20\n      add\n      swap2\n      jump(tag_122)\n    tag_123:\n      dup3\n      add\n      swap2\n      swap1\n      0x00\n      mstore\n      keccak256(0x00, 0x20)\n      swap1\n    tag_124:\n      dup2\n      sload\n      dup2\n      mstore\n      swap1\n      0x01\n      add\n      swap1\n      0x20\n      add\n      dup1\n      dup4\n      gt\n      tag_124\n      jumpi\n      dup3\n      swap1\n      sub\n      0x1f\n      and\n      dup3\n      add\n      swap2\n    tag_122:\n      pop\n      pop\n      pop\n      pop\n      pop\n      dup2\n      mstore\n      0x20\n      add\n      0x04\n      dup3\n      add\n      dup1\n      sload\n      tag_125\n      swap1\n      tag_85\n      jump\t// in\n    tag_125:\n      dup1\n      0x1f\n      add\n      0x20\n      dup1\n      swap2\n      div\n      mul\n      0x20\n      add\n      mload(0x40)\n      swap1\n      dup2\n      add\n      0x40\n      mstore\n      dup1\n      swap3\n      swap2\n      swap1\n      dup2\n      dup2\n      mstore\n      0x20\n      add\n      dup3\n      dup1\n      sload\n      tag_126\n      swap1\n      tag_85\n      jump\t// in\n    tag_126:\n      dup1\n      iszero\n      tag_127\n      jumpi\n      dup1\n      0x1f\n      lt\n      tag_128\n      jumpi\n      0x0100\n      dup1\n      dup4\n      sload\n      div\n      mul\n      dup4\n      mstore\n      swap2\n      0x20\n      add\n      swap2\n      jump(tag_127)\n    tag_128:\n      dup3\n      add\n      swap2\n      swap1\n      0x00\n      mstore\n      keccak256(0x00, 0x20)\n      swap1\n    tag_129:\n      dup2\n      sload\n      dup2\n      mstore\n      swap1\n      0x01\n      add\n      swap1\n      0x20\n      add\n      dup1\n      dup4\n      gt\n      tag_129\n      jumpi\n      dup3\n      swap1\n      sub\n      0x1f\n      and\n      dup3\n      add\n      swap2\n    tag_127:\n      pop\n      pop\n      pop\n      pop\n      pop\n      dup2\n      mstore\n      pop\n      pop\n      swap1\n      dup1\n      0x0b\n      add\n      mload(0x40)\n      dup1\n      0x60\n      add\n      0x40\n      mstore\n      swap1\n      dup2\n      0x00\n      dup3\n      add\n      dup1\n      sload\n      dup1\n      0x20\n      mul\n      0x20\n      add\n      mload(0x40)\n      swap1\n      dup2\n      add\n      0x40\n      mstore\n      dup1\n      swap3\n      swap2\n      swap1\n      dup2\n      dup2\n      mstore\n      0x20\n      add\n      0x00\n      swap1\n    tag_130:\n      dup3\n      dup3\n      lt\n      iszero\n      tag_131\n      jumpi\n      dup4\n      dup3\n      swap1\n      0x00\n      mstore\n      keccak256(0x00, 0x20)\n      add\n      dup1\n      sload\n      tag_133\n      swap1\n      tag_85\n      jump\t// in\n    tag_133:\n      dup1\n      0x1f\n      add\n      0x20\n      dup1\n      swap2\n      div\n      mul\n      0x20\n      add\n      mload(0x40)\n      swap1\n      dup2\n      add\n      0x40\n      mstore\n      dup1\n      swap3\n      swap2\n      swap1\n      dup2\n      dup2\n      mstore\n      0x20\n      add\n      dup3\n      dup1\n      sload\n      tag_134\n      swap1\n      tag_85\n      jump\t// in\n    tag_134:\n      dup1\n      iszero\n      tag_135\n      jumpi\n      dup1\n      0x1f\n      lt\n      tag_136\n      jumpi\n      0x0100\n      dup1\n      dup4\n      sload\n      div\n      mul\n      dup4\n      mstore\n      swap2\n      0x20\n      add\n      swap2\n      jump(tag_135)\n    tag_136:\n      dup3\n      add\n      swap2\n      swap1\n      0x00\n      mstore\n      keccak256(0x00, 0x20)\n      swap1\n    tag_137:\n      dup2\n      sload\n      dup2\n      mstore\n      swap1\n      0x01\n      add\n      swap1\n      0x20\n      add\n      dup1\n      dup4\n      gt\n      tag_137\n      jumpi\n      dup3\n      swap1\n      sub\n      0x1f\n      and\n      dup3\n      add\n      swap2\n    tag_135:\n      pop\n      pop\n      pop\n      pop\n      pop\n      dup2\n      mstore\n      0x20\n      add\n      swap1\n      0x01\n      add\n      swap1\n      jump(tag_130)\n    tag_131:\n      pop\n      pop\n      pop\n      pop\n      dup2\n      mstore\n      0x20\n      add\n      0x01\n      dup3\n      add\n      dup1\n      sload\n      dup1\n      0x20\n      mul\n      0x20\n      add\n      mload(0x40)\n      swap1\n      dup2\n      add\n      0x40\n      mstore\n      dup1\n      swap3\n      swap2\n      swap1\n      dup2\n      dup2\n      mstore\n      0x20\n      add\n      0x00\n      swap1\n    tag_138:\n      dup3\n      dup3\n      lt\n      iszero\n      tag_139\n      jumpi\n      dup4\n      dup3\n      swap1\n      0x00\n      mstore\n      keccak256(0x00, 0x20)\n      add\n      dup1\n      sload\n      tag_141\n      swap1\n      tag_85\n      jump\t// in\n    tag_141:\n      dup1\n      0x1f\n      add\n      0x20\n      dup1\n      swap2\n      div\n      mul\n      0x20\n      add\n      mload(0x40)\n      swap1\n      dup2\n      add\n      0x40\n      mstore\n      dup1\n      swap3\n      swap2\n      swap1\n      dup2\n      dup2\n      mstore\n      0x20\n      add\n      dup3\n      dup1\n      sload\n      tag_142\n      swap1\n      tag_85\n      jump\t// in\n    tag_142:\n      dup1\n      iszero\n      tag_143\n      jumpi\n      dup1\n      0x1f\n      lt\n      tag_144\n      jumpi\n      0x0100\n      dup1\n      dup4\n      sload\n      div\n      mul\n      dup4\n      mstore\n      swap2\n      0x20\n      add\n      swap2\n      jump(tag_143)\n    tag_144:\n      dup3\n      add\n      swap2\n      swap1\n      0x00\n      mstore\n      keccak256(0x00, 0x20)\n      swap1\n    tag_145:\n      dup2\n      sload\n      dup2\n      mstore\n      swap1\n      0x01\n      add\n      swap1\n      0x20\n      add\n      dup1\n      dup4\n      gt\n      tag_145\n      jumpi\n      dup3\n      swap1\n      sub\n      0x1f\n      and\n      dup3\n      add\n      swap2\n    tag_143:\n      pop\n      pop\n      pop\n      pop\n      pop\n      dup2\n      mstore\n      0x20\n      add\n      swap1\n      0x01\n      add\n      swap1\n      jump(tag_138)\n    tag_139:\n      pop\n      pop\n      pop\n      pop\n      dup2\n      mstore\n      0x20\n      add\n      0x02\n      dup3\n      add\n      dup1\n      sload\n      dup1\n      0x20\n      mul\n      0x20\n      add\n      mload(0x40)\n      swap1\n      dup2\n      add\n      0x40\n      mstore\n      dup1\n      swap3\n      swap2\n      swap1\n      dup2\n      dup2\n      mstore\n      0x20\n      add\n      0x00\n      swap1\n    tag_146:\n      dup3\n      dup3\n      lt\n      iszero\n      tag_147\n      jumpi\n      dup4\n      dup3\n      swap1\n      0x00\n      mstore\n      keccak256(0x00, 0x20)\n      add\n      dup1\n      sload\n      tag_149\n      swap1\n      tag_85\n      jump\t// in\n    tag_149:\n      dup1\n      0x1f\n      add\n      0x20\n      dup1\n      swap2\n      div\n      mul\n      0x20\n      add\n      mload(0x40)\n      swap1\n      dup2\n      add\n      0x40\n      mstore\n      dup1\n      swap3\n      swap2\n      swap1\n      dup2\n      dup2\n      mstore\n      0x20\n      add\n      dup3\n      dup1\n      sload\n      tag_150\n      swap1\n      tag_85\n      jump\t// in\n    tag_150:\n      dup1\n      iszero\n      tag_151\n      jumpi\n      dup1\n      0x1f\n      lt\n      tag_152\n      jumpi\n      0x0100\n      dup1\n      dup4\n      sload\n      div\n      mul\n      dup4\n      mstore\n      swap2\n      0x20\n      add\n      swap2\n      jump(tag_151)\n    tag_152:\n      dup3\n      add\n      swap2\n      swap1\n      0x00\n      mstore\n      keccak256(0x00, 0x20)\n      swap1\n    tag_153:\n      dup2\n      sload\n      dup2\n      mstore\n      swap1\n      0x01\n      add\n      swap1\n      0x20\n      add\n      dup1\n      dup4\n      gt\n      tag_153\n      jumpi\n      dup3\n      swap1\n      sub\n      0x1f\n      and\n      dup3\n      add\n      swap2\n    tag_151:\n      pop\n      pop\n      pop\n      pop\n      pop\n      dup2\n      mstore\n      0x20\n      add\n      swap1\n      0x01\n      add\n      swap1\n      jump(tag_146)\n    tag_147:\n      pop\n      pop\n      pop\n      pop\n      dup2\n      mstore\n      pop\n      pop\n      swap1\n      pop\n      dup9\n      jump\t// out\n        /* \"contracts/Profile.sol\":3328:3420  function delAllEducation() external  {\r... */\n    tag_39:\n        /* \"contracts/Profile.sol\":3383:3390  profile */\n      0x00\n        /* \"contracts/Profile.sol\":3383:3402  profile[msg.sender] */\n      dup1\n        /* \"contracts/Profile.sol\":3391:3401  msg.sender */\n      caller\n        /* \"contracts/Profile.sol\":3383:3402  profile[msg.sender] */\n      0xffffffffffffffffffffffffffffffffffffffff\n      and\n      0xffffffffffffffffffffffffffffffffffffffff\n      and\n      dup2\n      mstore\n      0x20\n      add\n      swap1\n      dup2\n      mstore\n      0x20\n      add\n      0x00\n      keccak256\n        /* \"contracts/Profile.sol\":3383:3412  profile[msg.sender].education */\n      0x0e\n      add\n      0x00\n        /* \"contracts/Profile.sol\":3376:3412  delete profile[msg.sender].education */\n      tag_155\n      swap2\n      swap1\n      tag_156\n      jump\t// in\n    tag_155:\n        /* \"contracts/Profile.sol\":3328:3420  function delAllEducation() external  {\r... */\n      jump\t// out\n        /* \"contracts/Profile.sol\":2867:3194  function getEducation(uint index) public view returns(string memory, string memory, string memory, string memory) {\r... */\n    tag_43:\n        /* \"contracts/Profile.sol\":2921:2934  string memory */\n      0x60\n        /* \"contracts/Profile.sol\":2936:2949  string memory */\n      dup1\n        /* \"contracts/Profile.sol\":2951:2964  string memory */\n      0x60\n        /* \"contracts/Profile.sol\":2966:2979  string memory */\n      dup1\n        /* \"contracts/Profile.sol\":3000:3007  profile */\n      0x00\n        /* \"contracts/Profile.sol\":3000:3019  profile[msg.sender] */\n      dup1\n        /* \"contracts/Profile.sol\":3008:3018  msg.sender */\n      caller\n        /* \"contracts/Profile.sol\":3000:3019  profile[msg.sender] */\n      0xffffffffffffffffffffffffffffffffffffffff\n      and\n      0xffffffffffffffffffffffffffffffffffffffff\n      and\n      dup2\n      mstore\n      0x20\n      add\n      swap1\n      dup2\n      mstore\n      0x20\n      add\n      0x00\n      keccak256\n        /* \"contracts/Profile.sol\":3000:3029  profile[msg.sender].education */\n      0x0e\n      add\n        /* \"contracts/Profile.sol\":3030:3035  index */\n      dup6\n        /* \"contracts/Profile.sol\":3000:3036  profile[msg.sender].education[index] */\n      dup2\n      sload\n      dup2\n      lt\n      tag_158\n      jumpi\n      tag_159\n      tag_160\n      jump\t// in\n    tag_159:\n    tag_158:\n      swap1\n      0x00\n      mstore\n      keccak256(0x00, 0x20)\n      swap1\n      0x04\n      mul\n      add\n        /* \"contracts/Profile.sol\":3000:3046  profile[msg.sender].education[index].startDate */\n      0x00\n      add\n        /* \"contracts/Profile.sol\":3048:3055  profile */\n      0x00\n        /* \"contracts/Profile.sol\":3048:3067  profile[msg.sender] */\n      dup1\n        /* \"contracts/Profile.sol\":3056:3066  msg.sender */\n      caller\n        /* \"contracts/Profile.sol\":3048:3067  profile[msg.sender] */\n      0xffffffffffffffffffffffffffffffffffffffff\n      and\n      0xffffffffffffffffffffffffffffffffffffffff\n      and\n      dup2\n      mstore\n      0x20\n      add\n      swap1\n      dup2\n      mstore\n      0x20\n      add\n      0x00\n      keccak256\n        /* \"contracts/Profile.sol\":3048:3077  profile[msg.sender].education */\n      0x0e\n      add\n        /* \"contracts/Profile.sol\":3078:3083  index */\n      dup7\n        /* \"contracts/Profile.sol\":3048:3084  profile[msg.sender].education[index] */\n      dup2\n      sload\n      dup2\n      lt\n      tag_162\n      jumpi\n      tag_163\n      tag_160\n      jump\t// in\n    tag_163:\n    tag_162:\n      swap1\n      0x00\n      mstore\n      keccak256(0x00, 0x20)\n      swap1\n      0x04\n      mul\n      add\n        /* \"contracts/Profile.sol\":3048:3092  profile[msg.sender].education[index].endDate */\n      0x01\n      add\n        /* \"contracts/Profile.sol\":3094:3101  profile */\n      0x00\n        /* \"contracts/Profile.sol\":3094:3113  profile[msg.sender] */\n      dup1\n        /* \"contracts/Profile.sol\":3102:3112  msg.sender */\n      caller\n        /* \"contracts/Profile.sol\":3094:3113  profile[msg.sender] */\n      0xffffffffffffffffffffffffffffffffffffffff\n      and\n      0xffffffffffffffffffffffffffffffffffffffff\n      and\n      dup2\n      mstore\n      0x20\n      add\n      swap1\n      dup2\n      mstore\n      0x20\n      add\n      0x00\n      keccak256\n        /* \"contracts/Profile.sol\":3094:3123  profile[msg.sender].education */\n      0x0e\n      add\n        /* \"contracts/Profile.sol\":3124:3129  index */\n      dup8\n        /* \"contracts/Profile.sol\":3094:3130  profile[msg.sender].education[index] */\n      dup2\n      sload\n      dup2\n      lt\n      tag_165\n      jumpi\n      tag_166\n      tag_160\n      jump\t// in\n    tag_166:\n    tag_165:\n      swap1\n      0x00\n      mstore\n      keccak256(0x00, 0x20)\n      swap1\n      0x04\n      mul\n      add\n        /* \"contracts/Profile.sol\":3094:3141  profile[msg.sender].education[index].univercity */\n      0x02\n      add\n        /* \"contracts/Profile.sol\":3143:3150  profile */\n      0x00\n        /* \"contracts/Profile.sol\":3143:3162  profile[msg.sender] */\n      dup1\n        /* \"contracts/Profile.sol\":3151:3161  msg.sender */\n      caller\n        /* \"contracts/Profile.sol\":3143:3162  profile[msg.sender] */\n      0xffffffffffffffffffffffffffffffffffffffff\n      and\n      0xffffffffffffffffffffffffffffffffffffffff\n      and\n      dup2\n      mstore\n      0x20\n      add\n      swap1\n      dup2\n      mstore\n      0x20\n      add\n      0x00\n      keccak256\n        /* \"contracts/Profile.sol\":3143:3172  profile[msg.sender].education */\n      0x0e\n      add\n        /* \"contracts/Profile.sol\":3173:3178  index */\n      dup9\n        /* \"contracts/Profile.sol\":3143:3179  profile[msg.sender].education[index] */\n      dup2\n      sload\n      dup2\n      lt\n      tag_168\n      jumpi\n      tag_169\n      tag_160\n      jump\t// in\n    tag_169:\n    tag_168:\n      swap1\n      0x00\n      mstore\n      keccak256(0x00, 0x20)\n      swap1\n      0x04\n      mul\n      add\n        /* \"contracts/Profile.sol\":3143:3185  profile[msg.sender].education[index].major */\n      0x03\n      add\n        /* \"contracts/Profile.sol\":2992:3186  return (profile[msg.sender].education[index].startDate, profile[msg.sender].education[index].endDate, profile[msg.sender].education[index].univercity, profile[msg.sender].education[index].major) */\n      dup4\n      dup1\n      sload\n      tag_171\n      swap1\n      tag_85\n      jump\t// in\n    tag_171:\n      dup1\n      0x1f\n      add\n      0x20\n      dup1\n      swap2\n      div\n      mul\n      0x20\n      add\n      mload(0x40)\n      swap1\n      dup2\n      add\n      0x40\n      mstore\n      dup1\n      swap3\n      swap2\n      swap1\n      dup2\n      dup2\n      mstore\n      0x20\n      add\n      dup3\n      dup1\n      sload\n      tag_172\n      swap1\n      tag_85\n      jump\t// in\n    tag_172:\n      dup1\n      iszero\n      tag_173\n      jumpi\n      dup1\n      0x1f\n      lt\n      tag_174\n      jumpi\n      0x0100\n      dup1\n      dup4\n      sload\n      div\n      mul\n      dup4\n      mstore\n      swap2\n      0x20\n      add\n      swap2\n      jump(tag_173)\n    tag_174:\n      dup3\n      add\n      swap2\n      swap1\n      0x00\n      mstore\n      keccak256(0x00, 0x20)\n      swap1\n    tag_175:\n      dup2\n      sload\n      dup2\n      mstore\n      swap1\n      0x01\n      add\n      swap1\n      0x20\n      add\n      dup1\n      dup4\n      gt\n      tag_175\n      jumpi\n      dup3\n      swap1\n      sub\n      0x1f\n      and\n      dup3\n      add\n      swap2\n    tag_173:\n      pop\n      pop\n      pop\n      pop\n      pop\n      swap4\n      pop\n      dup3\n      dup1\n      sload\n      tag_176\n      swap1\n      tag_85\n      jump\t// in\n    tag_176:\n      dup1\n      0x1f\n      add\n      0x20\n      dup1\n      swap2\n      div\n      mul\n      0x20\n      add\n      mload(0x40)\n      swap1\n      dup2\n      add\n      0x40\n      mstore\n      dup1\n      swap3\n      swap2\n      swap1\n      dup2\n      dup2\n      mstore\n      0x20\n      add\n      dup3\n      dup1\n      sload\n      tag_177\n      swap1\n      tag_85\n      jump\t// in\n    tag_177:\n      dup1\n      iszero\n      tag_178\n      jumpi\n      dup1\n      0x1f\n      lt\n      tag_179\n      jumpi\n      0x0100\n      dup1\n      dup4\n      sload\n      div\n      mul\n      dup4\n      mstore\n      swap2\n      0x20\n      add\n      swap2\n      jump(tag_178)\n    tag_179:\n      dup3\n      add\n      swap2\n      swap1\n      0x00\n      mstore\n      keccak256(0x00, 0x20)\n      swap1\n    tag_180:\n      dup2\n      sload\n      dup2\n      mstore\n      swap1\n      0x01\n      add\n      swap1\n      0x20\n      add\n      dup1\n      dup4\n      gt\n      tag_180\n      jumpi\n      dup3\n      swap1\n      sub\n      0x1f\n      and\n      dup3\n      add\n      swap2\n    tag_178:\n      pop\n      pop\n      pop\n      pop\n      pop\n      swap3\n      pop\n      dup2\n      dup1\n      sload\n      tag_181\n      swap1\n      tag_85\n      jump\t// in\n    tag_181:\n      dup1\n      0x1f\n      add\n      0x20\n      dup1\n      swap2\n      div\n      mul\n      0x20\n      add\n      mload(0x40)\n      swap1\n      dup2\n      add\n      0x40\n      mstore\n      dup1\n      swap3\n      swap2\n      swap1\n      dup2\n      dup2\n      mstore\n      0x20\n      add\n      dup3\n      dup1\n      sload\n      tag_182\n      swap1\n      tag_85\n      jump\t// in\n    tag_182:\n      dup1\n      iszero\n      tag_183\n      jumpi\n      dup1\n      0x1f\n      lt\n      tag_184\n      jumpi\n      0x0100\n      dup1\n      dup4\n      sload\n      div\n      mul\n      dup4\n      mstore\n      swap2\n      0x20\n      add\n      swap2\n      jump(tag_183)\n    tag_184:\n      dup3\n      add\n      swap2\n      swap1\n      0x00\n      mstore\n      keccak256(0x00, 0x20)\n      swap1\n    tag_185:\n      dup2\n      sload\n      dup2\n      mstore\n      swap1\n      0x01\n      add\n      swap1\n      0x20\n      add\n      dup1\n      dup4\n      gt\n      tag_185\n      jumpi\n      dup3\n      swap1\n      sub\n      0x1f\n      and\n      dup3\n      add\n      swap2\n    tag_183:\n      pop\n      pop\n      pop\n      pop\n      pop\n      swap2\n      pop\n      dup1\n      dup1\n      sload\n      tag_186\n      swap1\n      tag_85\n      jump\t// in\n    tag_186:\n      dup1\n      0x1f\n      add\n      0x20\n      dup1\n      swap2\n      div\n      mul\n      0x20\n      add\n      mload(0x40)\n      swap1\n      dup2\n      add\n      0x40\n      mstore\n      dup1\n      swap3\n      swap2\n      swap1\n      dup2\n      dup2\n      mstore\n      0x20\n      add\n      dup3\n      dup1\n      sload\n      tag_187\n      swap1\n      tag_85\n      jump\t// in\n    tag_187:\n      dup1\n      iszero\n      tag_188\n      jumpi\n      dup1\n      0x1f\n      lt\n      tag_189\n      jumpi\n      0x0100\n      dup1\n      dup4\n      sload\n      div\n      mul\n      dup4\n      mstore\n      swap2\n      0x20\n      add\n      swap2\n      jump(tag_188)\n    tag_189:\n      dup3\n      add\n      swap2\n      swap1\n      0x00\n      mstore\n      keccak256(0x00, 0x20)\n      swap1\n    tag_190:\n      dup2\n      sload\n      dup2\n      mstore\n      swap1\n      0x01\n      add\n      swap1\n      0x20\n      add\n      dup1\n      dup4\n      gt\n      tag_190\n      jumpi\n      dup3\n      swap1\n      sub\n      0x1f\n      and\n      dup3\n      add\n      swap2\n    tag_188:\n      pop\n      pop\n      pop\n      pop\n      pop\n      swap1\n      pop\n      swap4\n      pop\n      swap4\n      pop\n      swap4\n      pop\n      swap4\n      pop\n        /* \"contracts/Profile.sol\":2867:3194  function getEducation(uint index) public view returns(string memory, string memory, string memory, string memory) {\r... */\n      swap2\n      swap4\n      pop\n      swap2\n      swap4\n      jump\t// out\n        /* \"contracts/Profile.sol\":3428:3504  function delProfile() external {\r... */\n    tag_47:\n        /* \"contracts/Profile.sol\":3477:3484  profile */\n      0x00\n        /* \"contracts/Profile.sol\":3477:3496  profile[msg.sender] */\n      dup1\n        /* \"contracts/Profile.sol\":3485:3495  msg.sender */\n      caller\n        /* \"contracts/Profile.sol\":3477:3496  profile[msg.sender] */\n      0xffffffffffffffffffffffffffffffffffffffff\n      and\n      0xffffffffffffffffffffffffffffffffffffffff\n      and\n      dup2\n      mstore\n      0x20\n      add\n      swap1\n      dup2\n      mstore\n      0x20\n      add\n      0x00\n      keccak256\n      0x00\n        /* \"contracts/Profile.sol\":3470:3496  delete profile[msg.sender] */\n      dup1\n      dup3\n      add\n      exp(0x0100, 0x00)\n      dup2\n      sload\n      swap1\n      0xffffffffffffffffffffffffffffffffffffffff\n      mul\n      not\n      and\n      swap1\n      sstore\n      0x01\n      dup3\n      add\n      0x00\n      tag_192\n      swap2\n      swap1\n      tag_60\n      jump\t// in\n    tag_192:\n      0x02\n      dup3\n      add\n      0x00\n      tag_193\n      swap2\n      swap1\n      tag_60\n      jump\t// in\n    tag_193:\n      0x03\n      dup3\n      add\n      0x00\n      tag_194\n      swap2\n      swap1\n      tag_60\n      jump\t// in\n    tag_194:\n      0x04\n      dup3\n      add\n      0x00\n      tag_195\n      swap2\n      swap1\n      tag_60\n      jump\t// in\n    tag_195:\n      0x05\n      dup3\n      add\n      0x00\n      swap1\n      sstore\n      0x06\n      dup3\n      add\n      0x00\n      dup1\n      dup3\n      add\n      0x00\n      tag_196\n      swap2\n      swap1\n      tag_60\n      jump\t// in\n    tag_196:\n      0x01\n      dup3\n      add\n      0x00\n      tag_197\n      swap2\n      swap1\n      tag_60\n      jump\t// in\n    tag_197:\n      0x02\n      dup3\n      add\n      0x00\n      tag_198\n      swap2\n      swap1\n      tag_60\n      jump\t// in\n    tag_198:\n      0x03\n      dup3\n      add\n      0x00\n      tag_199\n      swap2\n      swap1\n      tag_60\n      jump\t// in\n    tag_199:\n      0x04\n      dup3\n      add\n      0x00\n      tag_200\n      swap2\n      swap1\n      tag_60\n      jump\t// in\n    tag_200:\n      pop\n      pop\n      0x0b\n      dup3\n      add\n      0x00\n      dup1\n      dup3\n      add\n      0x00\n      tag_201\n      swap2\n      swap1\n      tag_50\n      jump\t// in\n    tag_201:\n      0x01\n      dup3\n      add\n      0x00\n      tag_202\n      swap2\n      swap1\n      tag_50\n      jump\t// in\n    tag_202:\n      0x02\n      dup3\n      add\n      0x00\n      tag_203\n      swap2\n      swap1\n      tag_50\n      jump\t// in\n    tag_203:\n      pop\n      pop\n      0x0e\n      dup3\n      add\n      0x00\n      tag_204\n      swap2\n      swap1\n      tag_156\n      jump\t// in\n    tag_204:\n      pop\n      pop\n        /* \"contracts/Profile.sol\":3428:3504  function delProfile() external {\r... */\n      jump\t// out\n    tag_50:\n      pop\n      dup1\n      sload\n      0x00\n      dup3\n      sstore\n      swap1\n      0x00\n      mstore\n      keccak256(0x00, 0x20)\n      swap1\n      dup2\n      add\n      swap1\n      tag_206\n      swap2\n      swap1\n      tag_207\n      jump\t// in\n    tag_206:\n      pop\n      jump\t// out\n    tag_54:\n      dup3\n      dup1\n      sload\n      dup3\n      dup3\n      sstore\n      swap1\n      0x00\n      mstore\n      keccak256(0x00, 0x20)\n      swap1\n      dup2\n      add\n      swap3\n      dup3\n      iszero\n      tag_208\n      jumpi\n      swap2\n      0x20\n      mul\n      dup3\n      add\n    tag_209:\n      dup3\n      dup2\n      gt\n      iszero\n      tag_210\n      jumpi\n      dup3\n      mload\n      dup3\n      swap1\n      dup1\n      mload\n      swap1\n      0x20\n      add\n      swap1\n      tag_211\n      swap3\n      swap2\n      swap1\n      tag_66\n      jump\t// in\n    tag_211:\n      pop\n      swap2\n      0x20\n      add\n      swap2\n      swap1\n      0x01\n      add\n      swap1\n      jump(tag_209)\n    tag_210:\n    tag_208:\n      pop\n      swap1\n      pop\n      tag_212\n      swap2\n      swap1\n      tag_207\n      jump\t// in\n    tag_212:\n      pop\n      swap1\n      jump\t// out\n    tag_60:\n      pop\n      dup1\n      sload\n      tag_213\n      swap1\n      tag_85\n      jump\t// in\n    tag_213:\n      0x00\n      dup3\n      sstore\n      dup1\n      0x1f\n      lt\n      tag_215\n      jumpi\n      pop\n      jump(tag_214)\n    tag_215:\n      0x1f\n      add\n      0x20\n      swap1\n      div\n      swap1\n      0x00\n      mstore\n      keccak256(0x00, 0x20)\n      swap1\n      dup2\n      add\n      swap1\n      tag_216\n      swap2\n      swap1\n      tag_217\n      jump\t// in\n    tag_216:\n    tag_214:\n      pop\n      jump\t// out\n    tag_66:\n      dup3\n      dup1\n      sload\n      tag_218\n      swap1\n      tag_85\n      jump\t// in\n    tag_218:\n      swap1\n      0x00\n      mstore\n      keccak256(0x00, 0x20)\n      swap1\n      0x1f\n      add\n      0x20\n      swap1\n      div\n      dup2\n      add\n      swap3\n      dup3\n      tag_220\n      jumpi\n      0x00\n      dup6\n      sstore\n      jump(tag_219)\n    tag_220:\n      dup3\n      0x1f\n      lt\n      tag_221\n      jumpi\n      dup1\n      mload\n      not(0xff)\n      and\n      dup4\n      dup1\n      add\n      or\n      dup6\n      sstore\n      jump(tag_219)\n    tag_221:\n      dup3\n      dup1\n      add\n      0x01\n      add\n      dup6\n      sstore\n      dup3\n      iszero\n      tag_219\n      jumpi\n      swap2\n      dup3\n      add\n    tag_222:\n      dup3\n      dup2\n      gt\n      iszero\n      tag_223\n      jumpi\n      dup3\n      mload\n      dup3\n      sstore\n      swap2\n      0x20\n      add\n      swap2\n      swap1\n      0x01\n      add\n      swap1\n      jump(tag_222)\n    tag_223:\n    tag_219:\n      pop\n      swap1\n      pop\n      tag_224\n      swap2\n      swap1\n      tag_217\n      jump\t// in\n    tag_224:\n      pop\n      swap1\n      jump\t// out\n    tag_78:\n      mload(0x40)\n      dup1\n      0x80\n      add\n      0x40\n      mstore\n      dup1\n      0x60\n      dup2\n      mstore\n      0x20\n      add\n      0x60\n      dup2\n      mstore\n      0x20\n      add\n      0x60\n      dup2\n      mstore\n      0x20\n      add\n      0x60\n      dup2\n      mstore\n      pop\n      swap1\n      jump\t// out\n    tag_156:\n      pop\n      dup1\n      sload\n      0x00\n      dup3\n      sstore\n      0x04\n      mul\n      swap1\n      0x00\n      mstore\n      keccak256(0x00, 0x20)\n      swap1\n      dup2\n      add\n      swap1\n      tag_226\n      swap2\n      swap1\n      tag_227\n      jump\t// in\n    tag_226:\n      pop\n      jump\t// out\n    tag_207:\n    tag_228:\n      dup1\n      dup3\n      gt\n      iszero\n      tag_229\n      jumpi\n      0x00\n      dup2\n      dup2\n      tag_230\n      swap2\n      swap1\n      tag_60\n      jump\t// in\n    tag_230:\n      pop\n      0x01\n      add\n      jump(tag_228)\n    tag_229:\n      pop\n      swap1\n      jump\t// out\n    tag_217:\n    tag_231:\n      dup1\n      dup3\n      gt\n      iszero\n      tag_232\n      jumpi\n      0x00\n      dup2\n      0x00\n      swap1\n      sstore\n      pop\n      0x01\n      add\n      jump(tag_231)\n    tag_232:\n      pop\n      swap1\n      jump\t// out\n    tag_227:\n    tag_233:\n      dup1\n      dup3\n      gt\n      iszero\n      tag_234\n      jumpi\n      0x00\n      dup1\n      dup3\n      add\n      0x00\n      tag_235\n      swap2\n      swap1\n      tag_60\n      jump\t// in\n    tag_235:\n      0x01\n      dup3\n      add\n      0x00\n      tag_236\n      swap2\n      swap1\n      tag_60\n      jump\t// in\n    tag_236:\n      0x02\n      dup3\n      add\n      0x00\n      tag_237\n      swap2\n      swap1\n      tag_60\n      jump\t// in\n    tag_237:\n      0x03\n      dup3\n      add\n      0x00\n      tag_238\n      swap2\n      swap1\n      tag_60\n      jump\t// in\n    tag_238:\n      pop\n      0x04\n      add\n      jump(tag_233)\n    tag_234:\n      pop\n      swap1\n      jump\t// out\n        /* \"#utility.yul\":23:980   */\n    tag_240:\n        /* \"#utility.yul\":129:134   */\n      0x00\n        /* \"#utility.yul\":154:245   */\n      tag_242\n        /* \"#utility.yul\":170:244   */\n      tag_243\n        /* \"#utility.yul\":237:243   */\n      dup5\n        /* \"#utility.yul\":170:244   */\n      tag_244\n      jump\t// in\n    tag_243:\n        /* \"#utility.yul\":154:245   */\n      tag_245\n      jump\t// in\n    tag_242:\n        /* \"#utility.yul\":145:245   */\n      swap1\n      pop\n        /* \"#utility.yul\":265:270   */\n      dup1\n        /* \"#utility.yul\":294:300   */\n      dup4\n        /* \"#utility.yul\":287:292   */\n      dup3\n        /* \"#utility.yul\":280:301   */\n      mstore\n        /* \"#utility.yul\":328:332   */\n      0x20\n        /* \"#utility.yul\":321:326   */\n      dup3\n        /* \"#utility.yul\":317:333   */\n      add\n        /* \"#utility.yul\":310:333   */\n      swap1\n      pop\n        /* \"#utility.yul\":354:360   */\n      dup3\n        /* \"#utility.yul\":404:407   */\n      dup6\n        /* \"#utility.yul\":396:400   */\n      0x20\n        /* \"#utility.yul\":388:394   */\n      dup7\n        /* \"#utility.yul\":384:401   */\n      mul\n        /* \"#utility.yul\":379:382   */\n      dup3\n        /* \"#utility.yul\":375:402   */\n      add\n        /* \"#utility.yul\":372:408   */\n      gt\n        /* \"#utility.yul\":369:512   */\n      iszero\n      tag_246\n      jumpi\n        /* \"#utility.yul\":423:502   */\n      tag_247\n      tag_248\n      jump\t// in\n    tag_247:\n        /* \"#utility.yul\":369:512   */\n    tag_246:\n        /* \"#utility.yul\":536:537   */\n      0x00\n        /* \"#utility.yul\":521:974   */\n    tag_249:\n        /* \"#utility.yul\":546:552   */\n      dup6\n        /* \"#utility.yul\":543:544   */\n      dup2\n        /* \"#utility.yul\":540:553   */\n      lt\n        /* \"#utility.yul\":521:974   */\n      iszero\n      tag_251\n      jumpi\n        /* \"#utility.yul\":628:631   */\n      dup2\n        /* \"#utility.yul\":615:632   */\n      calldataload\n        /* \"#utility.yul\":664:682   */\n      0xffffffffffffffff\n        /* \"#utility.yul\":651:662   */\n      dup2\n        /* \"#utility.yul\":648:683   */\n      gt\n        /* \"#utility.yul\":645:767   */\n      iszero\n      tag_252\n      jumpi\n        /* \"#utility.yul\":686:765   */\n      tag_253\n      tag_254\n      jump\t// in\n    tag_253:\n        /* \"#utility.yul\":645:767   */\n    tag_252:\n        /* \"#utility.yul\":810:821   */\n      dup1\n        /* \"#utility.yul\":802:808   */\n      dup7\n        /* \"#utility.yul\":798:822   */\n      add\n        /* \"#utility.yul\":848:895   */\n      tag_255\n        /* \"#utility.yul\":891:894   */\n      dup10\n        /* \"#utility.yul\":879:889   */\n      dup3\n        /* \"#utility.yul\":848:895   */\n      tag_256\n      jump\t// in\n    tag_255:\n        /* \"#utility.yul\":843:846   */\n      dup6\n        /* \"#utility.yul\":836:896   */\n      mstore\n        /* \"#utility.yul\":925:929   */\n      0x20\n        /* \"#utility.yul\":920:923   */\n      dup6\n        /* \"#utility.yul\":916:930   */\n      add\n        /* \"#utility.yul\":909:930   */\n      swap5\n      pop\n        /* \"#utility.yul\":959:963   */\n      0x20\n        /* \"#utility.yul\":954:957   */\n      dup5\n        /* \"#utility.yul\":950:964   */\n      add\n        /* \"#utility.yul\":943:964   */\n      swap4\n      pop\n        /* \"#utility.yul\":581:974   */\n      pop\n      pop\n        /* \"#utility.yul\":568:569   */\n      0x01\n        /* \"#utility.yul\":565:566   */\n      dup2\n        /* \"#utility.yul\":561:570   */\n      add\n        /* \"#utility.yul\":556:570   */\n      swap1\n      pop\n        /* \"#utility.yul\":521:974   */\n      jump(tag_249)\n    tag_251:\n        /* \"#utility.yul\":525:539   */\n      pop\n        /* \"#utility.yul\":135:980   */\n      pop\n      pop\n        /* \"#utility.yul\":23:980   */\n      swap4\n      swap3\n      pop\n      pop\n      pop\n      jump\t// out\n        /* \"#utility.yul\":986:1398   */\n    tag_257:\n        /* \"#utility.yul\":1064:1069   */\n      0x00\n        /* \"#utility.yul\":1089:1155   */\n      tag_259\n        /* \"#utility.yul\":1105:1154   */\n      tag_260\n        /* \"#utility.yul\":1147:1153   */\n      dup5\n        /* \"#utility.yul\":1105:1154   */\n      tag_261\n      jump\t// in\n    tag_260:\n        /* \"#utility.yul\":1089:1155   */\n      tag_245\n      jump\t// in\n    tag_259:\n        /* \"#utility.yul\":1080:1155   */\n      swap1\n      pop\n        /* \"#utility.yul\":1178:1184   */\n      dup3\n        /* \"#utility.yul\":1171:1176   */\n      dup2\n        /* \"#utility.yul\":1164:1185   */\n      mstore\n        /* \"#utility.yul\":1216:1220   */\n      0x20\n        /* \"#utility.yul\":1209:1214   */\n      dup2\n        /* \"#utility.yul\":1205:1221   */\n      add\n        /* \"#utility.yul\":1254:1257   */\n      dup5\n        /* \"#utility.yul\":1245:1251   */\n      dup5\n        /* \"#utility.yul\":1240:1243   */\n      dup5\n        /* \"#utility.yul\":1236:1252   */\n      add\n        /* \"#utility.yul\":1233:1258   */\n      gt\n        /* \"#utility.yul\":1230:1342   */\n      iszero\n      tag_262\n      jumpi\n        /* \"#utility.yul\":1261:1340   */\n      tag_263\n      tag_264\n      jump\t// in\n    tag_263:\n        /* \"#utility.yul\":1230:1342   */\n    tag_262:\n        /* \"#utility.yul\":1351:1392   */\n      tag_265\n        /* \"#utility.yul\":1385:1391   */\n      dup5\n        /* \"#utility.yul\":1380:1383   */\n      dup3\n        /* \"#utility.yul\":1375:1378   */\n      dup6\n        /* \"#utility.yul\":1351:1392   */\n      tag_266\n      jump\t// in\n    tag_265:\n        /* \"#utility.yul\":1070:1398   */\n      pop\n        /* \"#utility.yul\":986:1398   */\n      swap4\n      swap3\n      pop\n      pop\n      pop\n      jump\t// out\n        /* \"#utility.yul\":1404:1543   */\n    tag_267:\n        /* \"#utility.yul\":1450:1455   */\n      0x00\n        /* \"#utility.yul\":1488:1494   */\n      dup2\n        /* \"#utility.yul\":1475:1495   */\n      calldataload\n        /* \"#utility.yul\":1466:1495   */\n      swap1\n      pop\n        /* \"#utility.yul\":1504:1537   */\n      tag_269\n        /* \"#utility.yul\":1531:1536   */\n      dup2\n        /* \"#utility.yul\":1504:1537   */\n      tag_270\n      jump\t// in\n    tag_269:\n        /* \"#utility.yul\":1404:1543   */\n      swap3\n      swap2\n      pop\n      pop\n      jump\t// out\n        /* \"#utility.yul\":1565:1955   */\n    tag_271:\n        /* \"#utility.yul\":1646:1651   */\n      0x00\n        /* \"#utility.yul\":1695:1698   */\n      dup3\n        /* \"#utility.yul\":1688:1692   */\n      0x1f\n        /* \"#utility.yul\":1680:1686   */\n      dup4\n        /* \"#utility.yul\":1676:1693   */\n      add\n        /* \"#utility.yul\":1672:1699   */\n      slt\n        /* \"#utility.yul\":1662:1784   */\n      tag_273\n      jumpi\n        /* \"#utility.yul\":1703:1782   */\n      tag_274\n      tag_254\n      jump\t// in\n    tag_274:\n        /* \"#utility.yul\":1662:1784   */\n    tag_273:\n        /* \"#utility.yul\":1820:1826   */\n      dup2\n        /* \"#utility.yul\":1807:1827   */\n      calldataload\n        /* \"#utility.yul\":1845:1949   */\n      tag_275\n        /* \"#utility.yul\":1945:1948   */\n      dup5\n        /* \"#utility.yul\":1937:1943   */\n      dup3\n        /* \"#utility.yul\":1930:1934   */\n      0x20\n        /* \"#utility.yul\":1922:1928   */\n      dup7\n        /* \"#utility.yul\":1918:1935   */\n      add\n        /* \"#utility.yul\":1845:1949   */\n      tag_240\n      jump\t// in\n    tag_275:\n        /* \"#utility.yul\":1836:1949   */\n      swap2\n      pop\n        /* \"#utility.yul\":1652:1955   */\n      pop\n        /* \"#utility.yul\":1565:1955   */\n      swap3\n      swap2\n      pop\n      pop\n      jump\t// out\n        /* \"#utility.yul\":1975:2315   */\n    tag_256:\n        /* \"#utility.yul\":2031:2036   */\n      0x00\n        /* \"#utility.yul\":2080:2083   */\n      dup3\n        /* \"#utility.yul\":2073:2077   */\n      0x1f\n        /* \"#utility.yul\":2065:2071   */\n      dup4\n        /* \"#utility.yul\":2061:2078   */\n      add\n        /* \"#utility.yul\":2057:2084   */\n      slt\n        /* \"#utility.yul\":2047:2169   */\n      tag_277\n      jumpi\n        /* \"#utility.yul\":2088:2167   */\n      tag_278\n      tag_254\n      jump\t// in\n    tag_278:\n        /* \"#utility.yul\":2047:2169   */\n    tag_277:\n        /* \"#utility.yul\":2205:2211   */\n      dup2\n        /* \"#utility.yul\":2192:2212   */\n      calldataload\n        /* \"#utility.yul\":2230:2309   */\n      tag_279\n        /* \"#utility.yul\":2305:2308   */\n      dup5\n        /* \"#utility.yul\":2297:2303   */\n      dup3\n        /* \"#utility.yul\":2290:2294   */\n      0x20\n        /* \"#utility.yul\":2282:2288   */\n      dup7\n        /* \"#utility.yul\":2278:2295   */\n      add\n        /* \"#utility.yul\":2230:2309   */\n      tag_257\n      jump\t// in\n    tag_279:\n        /* \"#utility.yul\":2221:2309   */\n      swap2\n      pop\n        /* \"#utility.yul\":2037:2315   */\n      pop\n        /* \"#utility.yul\":1975:2315   */\n      swap3\n      swap2\n      pop\n      pop\n      jump\t// out\n        /* \"#utility.yul\":2321:2460   */\n    tag_280:\n        /* \"#utility.yul\":2367:2372   */\n      0x00\n        /* \"#utility.yul\":2405:2411   */\n      dup2\n        /* \"#utility.yul\":2392:2412   */\n      calldataload\n        /* \"#utility.yul\":2383:2412   */\n      swap1\n      pop\n        /* \"#utility.yul\":2421:2454   */\n      tag_282\n        /* \"#utility.yul\":2448:2453   */\n      dup2\n        /* \"#utility.yul\":2421:2454   */\n      tag_283\n      jump\t// in\n    tag_282:\n        /* \"#utility.yul\":2321:2460   */\n      swap3\n      swap2\n      pop\n      pop\n      jump\t// out\n        /* \"#utility.yul\":2466:2795   */\n    tag_34:\n        /* \"#utility.yul\":2525:2531   */\n      0x00\n        /* \"#utility.yul\":2574:2576   */\n      0x20\n        /* \"#utility.yul\":2562:2571   */\n      dup3\n        /* \"#utility.yul\":2553:2560   */\n      dup5\n        /* \"#utility.yul\":2549:2572   */\n      sub\n        /* \"#utility.yul\":2545:2577   */\n      slt\n        /* \"#utility.yul\":2542:2661   */\n      iszero\n      tag_285\n      jumpi\n        /* \"#utility.yul\":2580:2659   */\n      tag_286\n      tag_287\n      jump\t// in\n    tag_286:\n        /* \"#utility.yul\":2542:2661   */\n    tag_285:\n        /* \"#utility.yul\":2700:2701   */\n      0x00\n        /* \"#utility.yul\":2725:2778   */\n      tag_288\n        /* \"#utility.yul\":2770:2777   */\n      dup5\n        /* \"#utility.yul\":2761:2767   */\n      dup3\n        /* \"#utility.yul\":2750:2759   */\n      dup6\n        /* \"#utility.yul\":2746:2768   */\n      add\n        /* \"#utility.yul\":2725:2778   */\n      tag_267\n      jump\t// in\n    tag_288:\n        /* \"#utility.yul\":2715:2778   */\n      swap2\n      pop\n        /* \"#utility.yul\":2671:2788   */\n      pop\n        /* \"#utility.yul\":2466:2795   */\n      swap3\n      swap2\n      pop\n      pop\n      jump\t// out\n        /* \"#utility.yul\":2801:4110   */\n    tag_15:\n        /* \"#utility.yul\":2983:2989   */\n      0x00\n        /* \"#utility.yul\":2991:2997   */\n      dup1\n        /* \"#utility.yul\":2999:3005   */\n      0x00\n        /* \"#utility.yul\":3048:3050   */\n      0x60\n        /* \"#utility.yul\":3036:3045   */\n      dup5\n        /* \"#utility.yul\":3027:3034   */\n      dup7\n        /* \"#utility.yul\":3023:3046   */\n      sub\n        /* \"#utility.yul\":3019:3051   */\n      slt\n        /* \"#utility.yul\":3016:3135   */\n      iszero\n      tag_290\n      jumpi\n        /* \"#utility.yul\":3054:3133   */\n      tag_291\n      tag_287\n      jump\t// in\n    tag_291:\n        /* \"#utility.yul\":3016:3135   */\n    tag_290:\n        /* \"#utility.yul\":3202:3203   */\n      0x00\n        /* \"#utility.yul\":3191:3200   */\n      dup5\n        /* \"#utility.yul\":3187:3204   */\n      add\n        /* \"#utility.yul\":3174:3205   */\n      calldataload\n        /* \"#utility.yul\":3232:3250   */\n      0xffffffffffffffff\n        /* \"#utility.yul\":3224:3230   */\n      dup2\n        /* \"#utility.yul\":3221:3251   */\n      gt\n        /* \"#utility.yul\":3218:3335   */\n      iszero\n      tag_292\n      jumpi\n        /* \"#utility.yul\":3254:3333   */\n      tag_293\n      tag_294\n      jump\t// in\n    tag_293:\n        /* \"#utility.yul\":3218:3335   */\n    tag_292:\n        /* \"#utility.yul\":3359:3447   */\n      tag_295\n        /* \"#utility.yul\":3439:3446   */\n      dup7\n        /* \"#utility.yul\":3430:3436   */\n      dup3\n        /* \"#utility.yul\":3419:3428   */\n      dup8\n        /* \"#utility.yul\":3415:3437   */\n      add\n        /* \"#utility.yul\":3359:3447   */\n      tag_271\n      jump\t// in\n    tag_295:\n        /* \"#utility.yul\":3349:3447   */\n      swap4\n      pop\n        /* \"#utility.yul\":3145:3457   */\n      pop\n        /* \"#utility.yul\":3524:3526   */\n      0x20\n        /* \"#utility.yul\":3513:3522   */\n      dup5\n        /* \"#utility.yul\":3509:3527   */\n      add\n        /* \"#utility.yul\":3496:3528   */\n      calldataload\n        /* \"#utility.yul\":3555:3573   */\n      0xffffffffffffffff\n        /* \"#utility.yul\":3547:3553   */\n      dup2\n        /* \"#utility.yul\":3544:3574   */\n      gt\n        /* \"#utility.yul\":3541:3658   */\n      iszero\n      tag_296\n      jumpi\n        /* \"#utility.yul\":3577:3656   */\n      tag_297\n      tag_294\n      jump\t// in\n    tag_297:\n        /* \"#utility.yul\":3541:3658   */\n    tag_296:\n        /* \"#utility.yul\":3682:3770   */\n      tag_298\n        /* \"#utility.yul\":3762:3769   */\n      dup7\n        /* \"#utility.yul\":3753:3759   */\n      dup3\n        /* \"#utility.yul\":3742:3751   */\n      dup8\n        /* \"#utility.yul\":3738:3760   */\n      add\n        /* \"#utility.yul\":3682:3770   */\n      tag_271\n      jump\t// in\n    tag_298:\n        /* \"#utility.yul\":3672:3770   */\n      swap3\n      pop\n        /* \"#utility.yul\":3467:3780   */\n      pop\n        /* \"#utility.yul\":3847:3849   */\n      0x40\n        /* \"#utility.yul\":3836:3845   */\n      dup5\n        /* \"#utility.yul\":3832:3850   */\n      add\n        /* \"#utility.yul\":3819:3851   */\n      calldataload\n        /* \"#utility.yul\":3878:3896   */\n      0xffffffffffffffff\n        /* \"#utility.yul\":3870:3876   */\n      dup2\n        /* \"#utility.yul\":3867:3897   */\n      gt\n        /* \"#utility.yul\":3864:3981   */\n      iszero\n      tag_299\n      jumpi\n        /* \"#utility.yul\":3900:3979   */\n      tag_300\n      tag_294\n      jump\t// in\n    tag_300:\n        /* \"#utility.yul\":3864:3981   */\n    tag_299:\n        /* \"#utility.yul\":4005:4093   */\n      tag_301\n        /* \"#utility.yul\":4085:4092   */\n      dup7\n        /* \"#utility.yul\":4076:4082   */\n      dup3\n        /* \"#utility.yul\":4065:4074   */\n      dup8\n        /* \"#utility.yul\":4061:4083   */\n      add\n        /* \"#utility.yul\":4005:4093   */\n      tag_271\n      jump\t// in\n    tag_301:\n        /* \"#utility.yul\":3995:4093   */\n      swap2\n      pop\n        /* \"#utility.yul\":3790:4103   */\n      pop\n        /* \"#utility.yul\":2801:4110   */\n      swap3\n      pop\n      swap3\n      pop\n      swap3\n      jump\t// out\n        /* \"#utility.yul\":4116:5601   */\n    tag_27:\n        /* \"#utility.yul\":4242:4248   */\n      0x00\n        /* \"#utility.yul\":4250:4256   */\n      dup1\n        /* \"#utility.yul\":4258:4264   */\n      0x00\n        /* \"#utility.yul\":4266:4272   */\n      dup1\n        /* \"#utility.yul\":4315:4318   */\n      0x80\n        /* \"#utility.yul\":4303:4312   */\n      dup6\n        /* \"#utility.yul\":4294:4301   */\n      dup8\n        /* \"#utility.yul\":4290:4313   */\n      sub\n        /* \"#utility.yul\":4286:4319   */\n      slt\n        /* \"#utility.yul\":4283:4403   */\n      iszero\n      tag_303\n      jumpi\n        /* \"#utility.yul\":4322:4401   */\n      tag_304\n      tag_287\n      jump\t// in\n    tag_304:\n        /* \"#utility.yul\":4283:4403   */\n    tag_303:\n        /* \"#utility.yul\":4470:4471   */\n      0x00\n        /* \"#utility.yul\":4459:4468   */\n      dup6\n        /* \"#utility.yul\":4455:4472   */\n      add\n        /* \"#utility.yul\":4442:4473   */\n      calldataload\n        /* \"#utility.yul\":4500:4518   */\n      0xffffffffffffffff\n        /* \"#utility.yul\":4492:4498   */\n      dup2\n        /* \"#utility.yul\":4489:4519   */\n      gt\n        /* \"#utility.yul\":4486:4603   */\n      iszero\n      tag_305\n      jumpi\n        /* \"#utility.yul\":4522:4601   */\n      tag_306\n      tag_294\n      jump\t// in\n    tag_306:\n        /* \"#utility.yul\":4486:4603   */\n    tag_305:\n        /* \"#utility.yul\":4627:4690   */\n      tag_307\n        /* \"#utility.yul\":4682:4689   */\n      dup8\n        /* \"#utility.yul\":4673:4679   */\n      dup3\n        /* \"#utility.yul\":4662:4671   */\n      dup9\n        /* \"#utility.yul\":4658:4680   */\n      add\n        /* \"#utility.yul\":4627:4690   */\n      tag_256\n      jump\t// in\n    tag_307:\n        /* \"#utility.yul\":4617:4690   */\n      swap5\n      pop\n        /* \"#utility.yul\":4413:4700   */\n      pop\n        /* \"#utility.yul\":4767:4769   */\n      0x20\n        /* \"#utility.yul\":4756:4765   */\n      dup6\n        /* \"#utility.yul\":4752:4770   */\n      add\n        /* \"#utility.yul\":4739:4771   */\n      calldataload\n        /* \"#utility.yul\":4798:4816   */\n      0xffffffffffffffff\n        /* \"#utility.yul\":4790:4796   */\n      dup2\n        /* \"#utility.yul\":4787:4817   */\n      gt\n        /* \"#utility.yul\":4784:4901   */\n      iszero\n      tag_308\n      jumpi\n        /* \"#utility.yul\":4820:4899   */\n      tag_309\n      tag_294\n      jump\t// in\n    tag_309:\n        /* \"#utility.yul\":4784:4901   */\n    tag_308:\n        /* \"#utility.yul\":4925:4988   */\n      tag_310\n        /* \"#utility.yul\":4980:4987   */\n      dup8\n        /* \"#utility.yul\":4971:4977   */\n      dup3\n        /* \"#utility.yul\":4960:4969   */\n      dup9\n        /* \"#utility.yul\":4956:4978   */\n      add\n        /* \"#utility.yul\":4925:4988   */\n      tag_256\n      jump\t// in\n    tag_310:\n        /* \"#utility.yul\":4915:4988   */\n      swap4\n      pop\n        /* \"#utility.yul\":4710:4998   */\n      pop\n        /* \"#utility.yul\":5065:5067   */\n      0x40\n        /* \"#utility.yul\":5054:5063   */\n      dup6\n        /* \"#utility.yul\":5050:5068   */\n      add\n        /* \"#utility.yul\":5037:5069   */\n      calldataload\n        /* \"#utility.yul\":5096:5114   */\n      0xffffffffffffffff\n        /* \"#utility.yul\":5088:5094   */\n      dup2\n        /* \"#utility.yul\":5085:5115   */\n      gt\n        /* \"#utility.yul\":5082:5199   */\n      iszero\n      tag_311\n      jumpi\n        /* \"#utility.yul\":5118:5197   */\n      tag_312\n      tag_294\n      jump\t// in\n    tag_312:\n        /* \"#utility.yul\":5082:5199   */\n    tag_311:\n        /* \"#utility.yul\":5223:5286   */\n      tag_313\n        /* \"#utility.yul\":5278:5285   */\n      dup8\n        /* \"#utility.yul\":5269:5275   */\n      dup3\n        /* \"#utility.yul\":5258:5267   */\n      dup9\n        /* \"#utility.yul\":5254:5276   */\n      add\n        /* \"#utility.yul\":5223:5286   */\n      tag_256\n      jump\t// in\n    tag_313:\n        /* \"#utility.yul\":5213:5286   */\n      swap3\n      pop\n        /* \"#utility.yul\":5008:5296   */\n      pop\n        /* \"#utility.yul\":5363:5365   */\n      0x60\n        /* \"#utility.yul\":5352:5361   */\n      dup6\n        /* \"#utility.yul\":5348:5366   */\n      add\n        /* \"#utility.yul\":5335:5367   */\n      calldataload\n        /* \"#utility.yul\":5394:5412   */\n      0xffffffffffffffff\n        /* \"#utility.yul\":5386:5392   */\n      dup2\n        /* \"#utility.yul\":5383:5413   */\n      gt\n        /* \"#utility.yul\":5380:5497   */\n      iszero\n      tag_314\n      jumpi\n        /* \"#utility.yul\":5416:5495   */\n      tag_315\n      tag_294\n      jump\t// in\n    tag_315:\n        /* \"#utility.yul\":5380:5497   */\n    tag_314:\n        /* \"#utility.yul\":5521:5584   */\n      tag_316\n        /* \"#utility.yul\":5576:5583   */\n      dup8\n        /* \"#utility.yul\":5567:5573   */\n      dup3\n        /* \"#utility.yul\":5556:5565   */\n      dup9\n        /* \"#utility.yul\":5552:5574   */\n      add\n        /* \"#utility.yul\":5521:5584   */\n      tag_256\n      jump\t// in\n    tag_316:\n        /* \"#utility.yul\":5511:5584   */\n      swap2\n      pop\n        /* \"#utility.yul\":5306:5594   */\n      pop\n        /* \"#utility.yul\":4116:5601   */\n      swap3\n      swap6\n      swap2\n      swap5\n      pop\n      swap3\n      pop\n      jump\t// out\n        /* \"#utility.yul\":5607:7418   */\n    tag_23:\n        /* \"#utility.yul\":5752:5758   */\n      0x00\n        /* \"#utility.yul\":5760:5766   */\n      dup1\n        /* \"#utility.yul\":5768:5774   */\n      0x00\n        /* \"#utility.yul\":5776:5782   */\n      dup1\n        /* \"#utility.yul\":5784:5790   */\n      0x00\n        /* \"#utility.yul\":5833:5836   */\n      0xa0\n        /* \"#utility.yul\":5821:5830   */\n      dup7\n        /* \"#utility.yul\":5812:5819   */\n      dup9\n        /* \"#utility.yul\":5808:5831   */\n      sub\n        /* \"#utility.yul\":5804:5837   */\n      slt\n        /* \"#utility.yul\":5801:5921   */\n      iszero\n      tag_318\n      jumpi\n        /* \"#utility.yul\":5840:5919   */\n      tag_319\n      tag_287\n      jump\t// in\n    tag_319:\n        /* \"#utility.yul\":5801:5921   */\n    tag_318:\n        /* \"#utility.yul\":5988:5989   */\n      0x00\n        /* \"#utility.yul\":5977:5986   */\n      dup7\n        /* \"#utility.yul\":5973:5990   */\n      add\n        /* \"#utility.yul\":5960:5991   */\n      calldataload\n        /* \"#utility.yul\":6018:6036   */\n      0xffffffffffffffff\n        /* \"#utility.yul\":6010:6016   */\n      dup2\n        /* \"#utility.yul\":6007:6037   */\n      gt\n        /* \"#utility.yul\":6004:6121   */\n      iszero\n      tag_320\n      jumpi\n        /* \"#utility.yul\":6040:6119   */\n      tag_321\n      tag_294\n      jump\t// in\n    tag_321:\n        /* \"#utility.yul\":6004:6121   */\n    tag_320:\n        /* \"#utility.yul\":6145:6208   */\n      tag_322\n        /* \"#utility.yul\":6200:6207   */\n      dup9\n        /* \"#utility.yul\":6191:6197   */\n      dup3\n        /* \"#utility.yul\":6180:6189   */\n      dup10\n        /* \"#utility.yul\":6176:6198   */\n      add\n        /* \"#utility.yul\":6145:6208   */\n      tag_256\n      jump\t// in\n    tag_322:\n        /* \"#utility.yul\":6135:6208   */\n      swap6\n      pop\n        /* \"#utility.yul\":5931:6218   */\n      pop\n        /* \"#utility.yul\":6285:6287   */\n      0x20\n        /* \"#utility.yul\":6274:6283   */\n      dup7\n        /* \"#utility.yul\":6270:6288   */\n      add\n        /* \"#utility.yul\":6257:6289   */\n      calldataload\n        /* \"#utility.yul\":6316:6334   */\n      0xffffffffffffffff\n        /* \"#utility.yul\":6308:6314   */\n      dup2\n        /* \"#utility.yul\":6305:6335   */\n      gt\n        /* \"#utility.yul\":6302:6419   */\n      iszero\n      tag_323\n      jumpi\n        /* \"#utility.yul\":6338:6417   */\n      tag_324\n      tag_294\n      jump\t// in\n    tag_324:\n        /* \"#utility.yul\":6302:6419   */\n    tag_323:\n        /* \"#utility.yul\":6443:6506   */\n      tag_325\n        /* \"#utility.yul\":6498:6505   */\n      dup9\n        /* \"#utility.yul\":6489:6495   */\n      dup3\n        /* \"#utility.yul\":6478:6487   */\n      dup10\n        /* \"#utility.yul\":6474:6496   */\n      add\n        /* \"#utility.yul\":6443:6506   */\n      tag_256\n      jump\t// in\n    tag_325:\n        /* \"#utility.yul\":6433:6506   */\n      swap5\n      pop\n        /* \"#utility.yul\":6228:6516   */\n      pop\n        /* \"#utility.yul\":6583:6585   */\n      0x40\n        /* \"#utility.yul\":6572:6581   */\n      dup7\n        /* \"#utility.yul\":6568:6586   */\n      add\n        /* \"#utility.yul\":6555:6587   */\n      calldataload\n        /* \"#utility.yul\":6614:6632   */\n      0xffffffffffffffff\n        /* \"#utility.yul\":6606:6612   */\n      dup2\n        /* \"#utility.yul\":6603:6633   */\n      gt\n        /* \"#utility.yul\":6600:6717   */\n      iszero\n      tag_326\n      jumpi\n        /* \"#utility.yul\":6636:6715   */\n      tag_327\n      tag_294\n      jump\t// in\n    tag_327:\n        /* \"#utility.yul\":6600:6717   */\n    tag_326:\n        /* \"#utility.yul\":6741:6804   */\n      tag_328\n        /* \"#utility.yul\":6796:6803   */\n      dup9\n        /* \"#utility.yul\":6787:6793   */\n      dup3\n        /* \"#utility.yul\":6776:6785   */\n      dup10\n        /* \"#utility.yul\":6772:6794   */\n      add\n        /* \"#utility.yul\":6741:6804   */\n      tag_256\n      jump\t// in\n    tag_328:\n        /* \"#utility.yul\":6731:6804   */\n      swap4\n      pop\n        /* \"#utility.yul\":6526:6814   */\n      pop\n        /* \"#utility.yul\":6881:6883   */\n      0x60\n        /* \"#utility.yul\":6870:6879   */\n      dup7\n        /* \"#utility.yul\":6866:6884   */\n      add\n        /* \"#utility.yul\":6853:6885   */\n      calldataload\n        /* \"#utility.yul\":6912:6930   */\n      0xffffffffffffffff\n        /* \"#utility.yul\":6904:6910   */\n      dup2\n        /* \"#utility.yul\":6901:6931   */\n      gt\n        /* \"#utility.yul\":6898:7015   */\n      iszero\n      tag_329\n      jumpi\n        /* \"#utility.yul\":6934:7013   */\n      tag_330\n      tag_294\n      jump\t// in\n    tag_330:\n        /* \"#utility.yul\":6898:7015   */\n    tag_329:\n        /* \"#utility.yul\":7039:7102   */\n      tag_331\n        /* \"#utility.yul\":7094:7101   */\n      dup9\n        /* \"#utility.yul\":7085:7091   */\n      dup3\n        /* \"#utility.yul\":7074:7083   */\n      dup10\n        /* \"#utility.yul\":7070:7092   */\n      add\n        /* \"#utility.yul\":7039:7102   */\n      tag_256\n      jump\t// in\n    tag_331:\n        /* \"#utility.yul\":7029:7102   */\n      swap3\n      pop\n        /* \"#utility.yul\":6824:7112   */\n      pop\n        /* \"#utility.yul\":7179:7182   */\n      0x80\n        /* \"#utility.yul\":7168:7177   */\n      dup7\n        /* \"#utility.yul\":7164:7183   */\n      add\n        /* \"#utility.yul\":7151:7184   */\n      calldataload\n        /* \"#utility.yul\":7211:7229   */\n      0xffffffffffffffff\n        /* \"#utility.yul\":7203:7209   */\n      dup2\n        /* \"#utility.yul\":7200:7230   */\n      gt\n        /* \"#utility.yul\":7197:7314   */\n      iszero\n      tag_332\n      jumpi\n        /* \"#utility.yul\":7233:7312   */\n      tag_333\n      tag_294\n      jump\t// in\n    tag_333:\n        /* \"#utility.yul\":7197:7314   */\n    tag_332:\n        /* \"#utility.yul\":7338:7401   */\n      tag_334\n        /* \"#utility.yul\":7393:7400   */\n      dup9\n        /* \"#utility.yul\":7384:7390   */\n      dup3\n        /* \"#utility.yul\":7373:7382   */\n      dup10\n        /* \"#utility.yul\":7369:7391   */\n      add\n        /* \"#utility.yul\":7338:7401   */\n      tag_256\n      jump\t// in\n    tag_334:\n        /* \"#utility.yul\":7328:7401   */\n      swap2\n      pop\n        /* \"#utility.yul\":7122:7411   */\n      pop\n        /* \"#utility.yul\":5607:7418   */\n      swap3\n      swap6\n      pop\n      swap3\n      swap6\n      swap1\n      swap4\n      pop\n      jump\t// out\n        /* \"#utility.yul\":7424:7753   */\n    tag_42:\n        /* \"#utility.yul\":7483:7489   */\n      0x00\n        /* \"#utility.yul\":7532:7534   */\n      0x20\n        /* \"#utility.yul\":7520:7529   */\n      dup3\n        /* \"#utility.yul\":7511:7518   */\n      dup5\n        /* \"#utility.yul\":7507:7530   */\n      sub\n        /* \"#utility.yul\":7503:7535   */\n      slt\n        /* \"#utility.yul\":7500:7619   */\n      iszero\n      tag_336\n      jumpi\n        /* \"#utility.yul\":7538:7617   */\n      tag_337\n      tag_287\n      jump\t// in\n    tag_337:\n        /* \"#utility.yul\":7500:7619   */\n    tag_336:\n        /* \"#utility.yul\":7658:7659   */\n      0x00\n        /* \"#utility.yul\":7683:7736   */\n      tag_338\n        /* \"#utility.yul\":7728:7735   */\n      dup5\n        /* \"#utility.yul\":7719:7725   */\n      dup3\n        /* \"#utility.yul\":7708:7717   */\n      dup6\n        /* \"#utility.yul\":7704:7726   */\n      add\n        /* \"#utility.yul\":7683:7736   */\n      tag_280\n      jump\t// in\n    tag_338:\n        /* \"#utility.yul\":7673:7736   */\n      swap2\n      pop\n        /* \"#utility.yul\":7629:7746   */\n      pop\n        /* \"#utility.yul\":7424:7753   */\n      swap3\n      swap2\n      pop\n      pop\n      jump\t// out\n        /* \"#utility.yul\":7759:7955   */\n    tag_339:\n        /* \"#utility.yul\":7848:7858   */\n      0x00\n        /* \"#utility.yul\":7883:7949   */\n      tag_341\n        /* \"#utility.yul\":7945:7948   */\n      dup4\n        /* \"#utility.yul\":7937:7943   */\n      dup4\n        /* \"#utility.yul\":7883:7949   */\n      tag_342\n      jump\t// in\n    tag_341:\n        /* \"#utility.yul\":7869:7949   */\n      swap1\n      pop\n        /* \"#utility.yul\":7759:7955   */\n      swap3\n      swap2\n      pop\n      pop\n      jump\t// out\n        /* \"#utility.yul\":7961:8079   */\n    tag_343:\n        /* \"#utility.yul\":8048:8072   */\n      tag_345\n        /* \"#utility.yul\":8066:8071   */\n      dup2\n        /* \"#utility.yul\":8048:8072   */\n      tag_346\n      jump\t// in\n    tag_345:\n        /* \"#utility.yul\":8043:8046   */\n      dup3\n        /* \"#utility.yul\":8036:8073   */\n      mstore\n        /* \"#utility.yul\":7961:8079   */\n      pop\n      pop\n      jump\t// out\n        /* \"#utility.yul\":8113:9084   */\n    tag_347:\n        /* \"#utility.yul\":8242:8245   */\n      0x00\n        /* \"#utility.yul\":8271:8335   */\n      tag_349\n        /* \"#utility.yul\":8329:8334   */\n      dup3\n        /* \"#utility.yul\":8271:8335   */\n      tag_350\n      jump\t// in\n    tag_349:\n        /* \"#utility.yul\":8351:8437   */\n      tag_351\n        /* \"#utility.yul\":8430:8436   */\n      dup2\n        /* \"#utility.yul\":8425:8428   */\n      dup6\n        /* \"#utility.yul\":8351:8437   */\n      tag_352\n      jump\t// in\n    tag_351:\n        /* \"#utility.yul\":8344:8437   */\n      swap4\n      pop\n        /* \"#utility.yul\":8463:8466   */\n      dup4\n        /* \"#utility.yul\":8508:8512   */\n      0x20\n        /* \"#utility.yul\":8500:8506   */\n      dup3\n        /* \"#utility.yul\":8496:8513   */\n      mul\n        /* \"#utility.yul\":8491:8494   */\n      dup6\n        /* \"#utility.yul\":8487:8514   */\n      add\n        /* \"#utility.yul\":8538:8604   */\n      tag_353\n        /* \"#utility.yul\":8598:8603   */\n      dup6\n        /* \"#utility.yul\":8538:8604   */\n      tag_354\n      jump\t// in\n    tag_353:\n        /* \"#utility.yul\":8627:8634   */\n      dup1\n        /* \"#utility.yul\":8658:8659   */\n      0x00\n        /* \"#utility.yul\":8643:9039   */\n    tag_355:\n        /* \"#utility.yul\":8668:8674   */\n      dup6\n        /* \"#utility.yul\":8665:8666   */\n      dup2\n        /* \"#utility.yul\":8662:8675   */\n      lt\n        /* \"#utility.yul\":8643:9039   */\n      iszero\n      tag_357\n      jumpi\n        /* \"#utility.yul\":8739:8748   */\n      dup5\n        /* \"#utility.yul\":8733:8737   */\n      dup5\n        /* \"#utility.yul\":8729:8749   */\n      sub\n        /* \"#utility.yul\":8724:8727   */\n      dup10\n        /* \"#utility.yul\":8717:8750   */\n      mstore\n        /* \"#utility.yul\":8790:8796   */\n      dup2\n        /* \"#utility.yul\":8784:8797   */\n      mload\n        /* \"#utility.yul\":8818:8902   */\n      tag_358\n        /* \"#utility.yul\":8897:8901   */\n      dup6\n        /* \"#utility.yul\":8882:8895   */\n      dup3\n        /* \"#utility.yul\":8818:8902   */\n      tag_339\n      jump\t// in\n    tag_358:\n        /* \"#utility.yul\":8810:8902   */\n      swap5\n      pop\n        /* \"#utility.yul\":8925:8995   */\n      tag_359\n        /* \"#utility.yul\":8988:8994   */\n      dup4\n        /* \"#utility.yul\":8925:8995   */\n      tag_360\n      jump\t// in\n    tag_359:\n        /* \"#utility.yul\":8915:8995   */\n      swap3\n      pop\n        /* \"#utility.yul\":9024:9028   */\n      0x20\n        /* \"#utility.yul\":9019:9022   */\n      dup11\n        /* \"#utility.yul\":9015:9029   */\n      add\n        /* \"#utility.yul\":9008:9029   */\n      swap10\n      pop\n        /* \"#utility.yul\":8703:9039   */\n      pop\n        /* \"#utility.yul\":8690:8691   */\n      0x01\n        /* \"#utility.yul\":8687:8688   */\n      dup2\n        /* \"#utility.yul\":8683:8692   */\n      add\n        /* \"#utility.yul\":8678:8692   */\n      swap1\n      pop\n        /* \"#utility.yul\":8643:9039   */\n      jump(tag_355)\n    tag_357:\n        /* \"#utility.yul\":8647:8661   */\n      pop\n        /* \"#utility.yul\":9055:9059   */\n      dup3\n        /* \"#utility.yul\":9048:9059   */\n      swap8\n      pop\n        /* \"#utility.yul\":9075:9078   */\n      dup8\n        /* \"#utility.yul\":9068:9078   */\n      swap6\n      pop\n        /* \"#utility.yul\":8247:9084   */\n      pop\n      pop\n      pop\n      pop\n      pop\n        /* \"#utility.yul\":8113:9084   */\n      swap3\n      swap2\n      pop\n      pop\n      jump\t// out\n        /* \"#utility.yul\":9090:9434   */\n    tag_342:\n        /* \"#utility.yul\":9168:9171   */\n      0x00\n        /* \"#utility.yul\":9196:9235   */\n      tag_362\n        /* \"#utility.yul\":9229:9234   */\n      dup3\n        /* \"#utility.yul\":9196:9235   */\n      tag_363\n      jump\t// in\n    tag_362:\n        /* \"#utility.yul\":9251:9312   */\n      tag_364\n        /* \"#utility.yul\":9305:9311   */\n      dup2\n        /* \"#utility.yul\":9300:9303   */\n      dup6\n        /* \"#utility.yul\":9251:9312   */\n      tag_365\n      jump\t// in\n    tag_364:\n        /* \"#utility.yul\":9244:9312   */\n      swap4\n      pop\n        /* \"#utility.yul\":9321:9373   */\n      tag_366\n        /* \"#utility.yul\":9366:9372   */\n      dup2\n        /* \"#utility.yul\":9361:9364   */\n      dup6\n        /* \"#utility.yul\":9354:9358   */\n      0x20\n        /* \"#utility.yul\":9347:9352   */\n      dup7\n        /* \"#utility.yul\":9343:9359   */\n      add\n        /* \"#utility.yul\":9321:9373   */\n      tag_367\n      jump\t// in\n    tag_366:\n        /* \"#utility.yul\":9398:9427   */\n      tag_368\n        /* \"#utility.yul\":9420:9426   */\n      dup2\n        /* \"#utility.yul\":9398:9427   */\n      tag_369\n      jump\t// in\n    tag_368:\n        /* \"#utility.yul\":9393:9396   */\n      dup5\n        /* \"#utility.yul\":9389:9428   */\n      add\n        /* \"#utility.yul\":9382:9428   */\n      swap2\n      pop\n        /* \"#utility.yul\":9172:9434   */\n      pop\n        /* \"#utility.yul\":9090:9434   */\n      swap3\n      swap2\n      pop\n      pop\n      jump\t// out\n        /* \"#utility.yul\":9440:9804   */\n    tag_370:\n        /* \"#utility.yul\":9528:9531   */\n      0x00\n        /* \"#utility.yul\":9556:9595   */\n      tag_372\n        /* \"#utility.yul\":9589:9594   */\n      dup3\n        /* \"#utility.yul\":9556:9595   */\n      tag_363\n      jump\t// in\n    tag_372:\n        /* \"#utility.yul\":9611:9682   */\n      tag_373\n        /* \"#utility.yul\":9675:9681   */\n      dup2\n        /* \"#utility.yul\":9670:9673   */\n      dup6\n        /* \"#utility.yul\":9611:9682   */\n      tag_374\n      jump\t// in\n    tag_373:\n        /* \"#utility.yul\":9604:9682   */\n      swap4\n      pop\n        /* \"#utility.yul\":9691:9743   */\n      tag_375\n        /* \"#utility.yul\":9736:9742   */\n      dup2\n        /* \"#utility.yul\":9731:9734   */\n      dup6\n        /* \"#utility.yul\":9724:9728   */\n      0x20\n        /* \"#utility.yul\":9717:9722   */\n      dup7\n        /* \"#utility.yul\":9713:9729   */\n      add\n        /* \"#utility.yul\":9691:9743   */\n      tag_367\n      jump\t// in\n    tag_375:\n        /* \"#utility.yul\":9768:9797   */\n      tag_376\n        /* \"#utility.yul\":9790:9796   */\n      dup2\n        /* \"#utility.yul\":9768:9797   */\n      tag_369\n      jump\t// in\n    tag_376:\n        /* \"#utility.yul\":9763:9766   */\n      dup5\n        /* \"#utility.yul\":9759:9798   */\n      add\n        /* \"#utility.yul\":9752:9798   */\n      swap2\n      pop\n        /* \"#utility.yul\":9532:9804   */\n      pop\n        /* \"#utility.yul\":9440:9804   */\n      swap3\n      swap2\n      pop\n      pop\n      jump\t// out\n        /* \"#utility.yul\":9868:11286   */\n    tag_377:\n        /* \"#utility.yul\":9985:9988   */\n      0x00\n        /* \"#utility.yul\":10021:10025   */\n      0xa0\n        /* \"#utility.yul\":10016:10019   */\n      dup4\n        /* \"#utility.yul\":10012:10026   */\n      add\n        /* \"#utility.yul\":10109:10113   */\n      0x00\n        /* \"#utility.yul\":10102:10107   */\n      dup4\n        /* \"#utility.yul\":10098:10114   */\n      add\n        /* \"#utility.yul\":10092:10115   */\n      mload\n        /* \"#utility.yul\":10162:10165   */\n      dup5\n        /* \"#utility.yul\":10156:10160   */\n      dup3\n        /* \"#utility.yul\":10152:10166   */\n      sub\n        /* \"#utility.yul\":10145:10149   */\n      0x00\n        /* \"#utility.yul\":10140:10143   */\n      dup7\n        /* \"#utility.yul\":10136:10150   */\n      add\n        /* \"#utility.yul\":10129:10167   */\n      mstore\n        /* \"#utility.yul\":10188:10261   */\n      tag_379\n        /* \"#utility.yul\":10256:10260   */\n      dup3\n        /* \"#utility.yul\":10242:10254   */\n      dup3\n        /* \"#utility.yul\":10188:10261   */\n      tag_342\n      jump\t// in\n    tag_379:\n        /* \"#utility.yul\":10180:10261   */\n      swap2\n      pop\n        /* \"#utility.yul\":10036:10272   */\n      pop\n        /* \"#utility.yul\":10355:10359   */\n      0x20\n        /* \"#utility.yul\":10348:10353   */\n      dup4\n        /* \"#utility.yul\":10344:10360   */\n      add\n        /* \"#utility.yul\":10338:10361   */\n      mload\n        /* \"#utility.yul\":10408:10411   */\n      dup5\n        /* \"#utility.yul\":10402:10406   */\n      dup3\n        /* \"#utility.yul\":10398:10412   */\n      sub\n        /* \"#utility.yul\":10391:10395   */\n      0x20\n        /* \"#utility.yul\":10386:10389   */\n      dup7\n        /* \"#utility.yul\":10382:10396   */\n      add\n        /* \"#utility.yul\":10375:10413   */\n      mstore\n        /* \"#utility.yul\":10434:10507   */\n      tag_380\n        /* \"#utility.yul\":10502:10506   */\n      dup3\n        /* \"#utility.yul\":10488:10500   */\n      dup3\n        /* \"#utility.yul\":10434:10507   */\n      tag_342\n      jump\t// in\n    tag_380:\n        /* \"#utility.yul\":10426:10507   */\n      swap2\n      pop\n        /* \"#utility.yul\":10282:10518   */\n      pop\n        /* \"#utility.yul\":10602:10606   */\n      0x40\n        /* \"#utility.yul\":10595:10600   */\n      dup4\n        /* \"#utility.yul\":10591:10607   */\n      add\n        /* \"#utility.yul\":10585:10608   */\n      mload\n        /* \"#utility.yul\":10655:10658   */\n      dup5\n        /* \"#utility.yul\":10649:10653   */\n      dup3\n        /* \"#utility.yul\":10645:10659   */\n      sub\n        /* \"#utility.yul\":10638:10642   */\n      0x40\n        /* \"#utility.yul\":10633:10636   */\n      dup7\n        /* \"#utility.yul\":10629:10643   */\n      add\n        /* \"#utility.yul\":10622:10660   */\n      mstore\n        /* \"#utility.yul\":10681:10754   */\n      tag_381\n        /* \"#utility.yul\":10749:10753   */\n      dup3\n        /* \"#utility.yul\":10735:10747   */\n      dup3\n        /* \"#utility.yul\":10681:10754   */\n      tag_342\n      jump\t// in\n    tag_381:\n        /* \"#utility.yul\":10673:10754   */\n      swap2\n      pop\n        /* \"#utility.yul\":10528:10765   */\n      pop\n        /* \"#utility.yul\":10849:10853   */\n      0x60\n        /* \"#utility.yul\":10842:10847   */\n      dup4\n        /* \"#utility.yul\":10838:10854   */\n      add\n        /* \"#utility.yul\":10832:10855   */\n      mload\n        /* \"#utility.yul\":10902:10905   */\n      dup5\n        /* \"#utility.yul\":10896:10900   */\n      dup3\n        /* \"#utility.yul\":10892:10906   */\n      sub\n        /* \"#utility.yul\":10885:10889   */\n      0x60\n        /* \"#utility.yul\":10880:10883   */\n      dup7\n        /* \"#utility.yul\":10876:10890   */\n      add\n        /* \"#utility.yul\":10869:10907   */\n      mstore\n        /* \"#utility.yul\":10928:11001   */\n      tag_382\n        /* \"#utility.yul\":10996:11000   */\n      dup3\n        /* \"#utility.yul\":10982:10994   */\n      dup3\n        /* \"#utility.yul\":10928:11001   */\n      tag_342\n      jump\t// in\n    tag_382:\n        /* \"#utility.yul\":10920:11001   */\n      swap2\n      pop\n        /* \"#utility.yul\":10775:11012   */\n      pop\n        /* \"#utility.yul\":11096:11100   */\n      0x80\n        /* \"#utility.yul\":11089:11094   */\n      dup4\n        /* \"#utility.yul\":11085:11101   */\n      add\n        /* \"#utility.yul\":11079:11102   */\n      mload\n        /* \"#utility.yul\":11149:11152   */\n      dup5\n        /* \"#utility.yul\":11143:11147   */\n      dup3\n        /* \"#utility.yul\":11139:11153   */\n      sub\n        /* \"#utility.yul\":11132:11136   */\n      0x80\n        /* \"#utility.yul\":11127:11130   */\n      dup7\n        /* \"#utility.yul\":11123:11137   */\n      add\n        /* \"#utility.yul\":11116:11154   */\n      mstore\n        /* \"#utility.yul\":11175:11248   */\n      tag_383\n        /* \"#utility.yul\":11243:11247   */\n      dup3\n        /* \"#utility.yul\":11229:11241   */\n      dup3\n        /* \"#utility.yul\":11175:11248   */\n      tag_342\n      jump\t// in\n    tag_383:\n        /* \"#utility.yul\":11167:11248   */\n      swap2\n      pop\n        /* \"#utility.yul\":11022:11259   */\n      pop\n        /* \"#utility.yul\":11276:11280   */\n      dup1\n        /* \"#utility.yul\":11269:11280   */\n      swap2\n      pop\n        /* \"#utility.yul\":9990:11286   */\n      pop\n        /* \"#utility.yul\":9868:11286   */\n      swap3\n      swap2\n      pop\n      pop\n      jump\t// out\n        /* \"#utility.yul\":11344:12441   */\n    tag_384:\n        /* \"#utility.yul\":11455:11458   */\n      0x00\n        /* \"#utility.yul\":11491:11495   */\n      0x60\n        /* \"#utility.yul\":11486:11489   */\n      dup4\n        /* \"#utility.yul\":11482:11496   */\n      add\n        /* \"#utility.yul\":11594:11598   */\n      0x00\n        /* \"#utility.yul\":11587:11592   */\n      dup4\n        /* \"#utility.yul\":11583:11599   */\n      add\n        /* \"#utility.yul\":11577:11600   */\n      mload\n        /* \"#utility.yul\":11647:11650   */\n      dup5\n        /* \"#utility.yul\":11641:11645   */\n      dup3\n        /* \"#utility.yul\":11637:11651   */\n      sub\n        /* \"#utility.yul\":11630:11634   */\n      0x00\n        /* \"#utility.yul\":11625:11628   */\n      dup7\n        /* \"#utility.yul\":11621:11635   */\n      add\n        /* \"#utility.yul\":11614:11652   */\n      mstore\n        /* \"#utility.yul\":11673:11796   */\n      tag_386\n        /* \"#utility.yul\":11791:11795   */\n      dup3\n        /* \"#utility.yul\":11777:11789   */\n      dup3\n        /* \"#utility.yul\":11673:11796   */\n      tag_347\n      jump\t// in\n    tag_386:\n        /* \"#utility.yul\":11665:11796   */\n      swap2\n      pop\n        /* \"#utility.yul\":11506:11807   */\n      pop\n        /* \"#utility.yul\":11894:11898   */\n      0x20\n        /* \"#utility.yul\":11887:11892   */\n      dup4\n        /* \"#utility.yul\":11883:11899   */\n      add\n        /* \"#utility.yul\":11877:11900   */\n      mload\n        /* \"#utility.yul\":11947:11950   */\n      dup5\n        /* \"#utility.yul\":11941:11945   */\n      dup3\n        /* \"#utility.yul\":11937:11951   */\n      sub\n        /* \"#utility.yul\":11930:11934   */\n      0x20\n        /* \"#utility.yul\":11925:11928   */\n      dup7\n        /* \"#utility.yul\":11921:11935   */\n      add\n        /* \"#utility.yul\":11914:11952   */\n      mstore\n        /* \"#utility.yul\":11973:12096   */\n      tag_387\n        /* \"#utility.yul\":12091:12095   */\n      dup3\n        /* \"#utility.yul\":12077:12089   */\n      dup3\n        /* \"#utility.yul\":11973:12096   */\n      tag_347\n      jump\t// in\n    tag_387:\n        /* \"#utility.yul\":11965:12096   */\n      swap2\n      pop\n        /* \"#utility.yul\":11817:12107   */\n      pop\n        /* \"#utility.yul\":12201:12205   */\n      0x40\n        /* \"#utility.yul\":12194:12199   */\n      dup4\n        /* \"#utility.yul\":12190:12206   */\n      add\n        /* \"#utility.yul\":12184:12207   */\n      mload\n        /* \"#utility.yul\":12254:12257   */\n      dup5\n        /* \"#utility.yul\":12248:12252   */\n      dup3\n        /* \"#utility.yul\":12244:12258   */\n      sub\n        /* \"#utility.yul\":12237:12241   */\n      0x40\n        /* \"#utility.yul\":12232:12235   */\n      dup7\n        /* \"#utility.yul\":12228:12242   */\n      add\n        /* \"#utility.yul\":12221:12259   */\n      mstore\n        /* \"#utility.yul\":12280:12403   */\n      tag_388\n        /* \"#utility.yul\":12398:12402   */\n      dup3\n        /* \"#utility.yul\":12384:12396   */\n      dup3\n        /* \"#utility.yul\":12280:12403   */\n      tag_347\n      jump\t// in\n    tag_388:\n        /* \"#utility.yul\":12272:12403   */\n      swap2\n      pop\n        /* \"#utility.yul\":12117:12414   */\n      pop\n        /* \"#utility.yul\":12431:12435   */\n      dup1\n        /* \"#utility.yul\":12424:12435   */\n      swap2\n      pop\n        /* \"#utility.yul\":11460:12441   */\n      pop\n        /* \"#utility.yul\":11344:12441   */\n      swap3\n      swap2\n      pop\n      pop\n      jump\t// out\n        /* \"#utility.yul\":12447:12565   */\n    tag_389:\n        /* \"#utility.yul\":12534:12558   */\n      tag_391\n        /* \"#utility.yul\":12552:12557   */\n      dup2\n        /* \"#utility.yul\":12534:12558   */\n      tag_392\n      jump\t// in\n    tag_391:\n        /* \"#utility.yul\":12529:12532   */\n      dup3\n        /* \"#utility.yul\":12522:12559   */\n      mstore\n        /* \"#utility.yul\":12447:12565   */\n      pop\n      pop\n      jump\t// out\n        /* \"#utility.yul\":12571:14214   */\n    tag_37:\n        /* \"#utility.yul\":13030:13034   */\n      0x00\n        /* \"#utility.yul\":13068:13071   */\n      0x0100\n        /* \"#utility.yul\":13057:13066   */\n      dup3\n        /* \"#utility.yul\":13053:13072   */\n      add\n        /* \"#utility.yul\":13045:13072   */\n      swap1\n      pop\n        /* \"#utility.yul\":13082:13153   */\n      tag_394\n        /* \"#utility.yul\":13150:13151   */\n      0x00\n        /* \"#utility.yul\":13139:13148   */\n      dup4\n        /* \"#utility.yul\":13135:13152   */\n      add\n        /* \"#utility.yul\":13126:13132   */\n      dup12\n        /* \"#utility.yul\":13082:13153   */\n      tag_343\n      jump\t// in\n    tag_394:\n        /* \"#utility.yul\":13200:13209   */\n      dup2\n        /* \"#utility.yul\":13194:13198   */\n      dup2\n        /* \"#utility.yul\":13190:13210   */\n      sub\n        /* \"#utility.yul\":13185:13187   */\n      0x20\n        /* \"#utility.yul\":13174:13183   */\n      dup4\n        /* \"#utility.yul\":13170:13188   */\n      add\n        /* \"#utility.yul\":13163:13211   */\n      mstore\n        /* \"#utility.yul\":13228:13306   */\n      tag_395\n        /* \"#utility.yul\":13301:13305   */\n      dup2\n        /* \"#utility.yul\":13292:13298   */\n      dup11\n        /* \"#utility.yul\":13228:13306   */\n      tag_370\n      jump\t// in\n    tag_395:\n        /* \"#utility.yul\":13220:13306   */\n      swap1\n      pop\n        /* \"#utility.yul\":13353:13362   */\n      dup2\n        /* \"#utility.yul\":13347:13351   */\n      dup2\n        /* \"#utility.yul\":13343:13363   */\n      sub\n        /* \"#utility.yul\":13338:13340   */\n      0x40\n        /* \"#utility.yul\":13327:13336   */\n      dup4\n        /* \"#utility.yul\":13323:13341   */\n      add\n        /* \"#utility.yul\":13316:13364   */\n      mstore\n        /* \"#utility.yul\":13381:13459   */\n      tag_396\n        /* \"#utility.yul\":13454:13458   */\n      dup2\n        /* \"#utility.yul\":13445:13451   */\n      dup10\n        /* \"#utility.yul\":13381:13459   */\n      tag_370\n      jump\t// in\n    tag_396:\n        /* \"#utility.yul\":13373:13459   */\n      swap1\n      pop\n        /* \"#utility.yul\":13506:13515   */\n      dup2\n        /* \"#utility.yul\":13500:13504   */\n      dup2\n        /* \"#utility.yul\":13496:13516   */\n      sub\n        /* \"#utility.yul\":13491:13493   */\n      0x60\n        /* \"#utility.yul\":13480:13489   */\n      dup4\n        /* \"#utility.yul\":13476:13494   */\n      add\n        /* \"#utility.yul\":13469:13517   */\n      mstore\n        /* \"#utility.yul\":13534:13612   */\n      tag_397\n        /* \"#utility.yul\":13607:13611   */\n      dup2\n        /* \"#utility.yul\":13598:13604   */\n      dup9\n        /* \"#utility.yul\":13534:13612   */\n      tag_370\n      jump\t// in\n    tag_397:\n        /* \"#utility.yul\":13526:13612   */\n      swap1\n      pop\n        /* \"#utility.yul\":13660:13669   */\n      dup2\n        /* \"#utility.yul\":13654:13658   */\n      dup2\n        /* \"#utility.yul\":13650:13670   */\n      sub\n        /* \"#utility.yul\":13644:13647   */\n      0x80\n        /* \"#utility.yul\":13633:13642   */\n      dup4\n        /* \"#utility.yul\":13629:13648   */\n      add\n        /* \"#utility.yul\":13622:13671   */\n      mstore\n        /* \"#utility.yul\":13688:13766   */\n      tag_398\n        /* \"#utility.yul\":13761:13765   */\n      dup2\n        /* \"#utility.yul\":13752:13758   */\n      dup8\n        /* \"#utility.yul\":13688:13766   */\n      tag_370\n      jump\t// in\n    tag_398:\n        /* \"#utility.yul\":13680:13766   */\n      swap1\n      pop\n        /* \"#utility.yul\":13776:13849   */\n      tag_399\n        /* \"#utility.yul\":13844:13847   */\n      0xa0\n        /* \"#utility.yul\":13833:13842   */\n      dup4\n        /* \"#utility.yul\":13829:13848   */\n      add\n        /* \"#utility.yul\":13820:13826   */\n      dup7\n        /* \"#utility.yul\":13776:13849   */\n      tag_389\n      jump\t// in\n    tag_399:\n        /* \"#utility.yul\":13897:13906   */\n      dup2\n        /* \"#utility.yul\":13891:13895   */\n      dup2\n        /* \"#utility.yul\":13887:13907   */\n      sub\n        /* \"#utility.yul\":13881:13884   */\n      0xc0\n        /* \"#utility.yul\":13870:13879   */\n      dup4\n        /* \"#utility.yul\":13866:13885   */\n      add\n        /* \"#utility.yul\":13859:13908   */\n      mstore\n        /* \"#utility.yul\":13925:14031   */\n      tag_400\n        /* \"#utility.yul\":14026:14030   */\n      dup2\n        /* \"#utility.yul\":14017:14023   */\n      dup6\n        /* \"#utility.yul\":13925:14031   */\n      tag_377\n      jump\t// in\n    tag_400:\n        /* \"#utility.yul\":13917:14031   */\n      swap1\n      pop\n        /* \"#utility.yul\":14079:14088   */\n      dup2\n        /* \"#utility.yul\":14073:14077   */\n      dup2\n        /* \"#utility.yul\":14069:14089   */\n      sub\n        /* \"#utility.yul\":14063:14066   */\n      0xe0\n        /* \"#utility.yul\":14052:14061   */\n      dup4\n        /* \"#utility.yul\":14048:14067   */\n      add\n        /* \"#utility.yul\":14041:14090   */\n      mstore\n        /* \"#utility.yul\":14107:14207   */\n      tag_401\n        /* \"#utility.yul\":14202:14206   */\n      dup2\n        /* \"#utility.yul\":14193:14199   */\n      dup5\n        /* \"#utility.yul\":14107:14207   */\n      tag_384\n      jump\t// in\n    tag_401:\n        /* \"#utility.yul\":14099:14207   */\n      swap1\n      pop\n        /* \"#utility.yul\":12571:14214   */\n      swap10\n      swap9\n      pop\n      pop\n      pop\n      pop\n      pop\n      pop\n      pop\n      pop\n      pop\n      jump\t// out\n        /* \"#utility.yul\":14220:15137   */\n    tag_45:\n        /* \"#utility.yul\":14477:14481   */\n      0x00\n        /* \"#utility.yul\":14515:14518   */\n      0x80\n        /* \"#utility.yul\":14504:14513   */\n      dup3\n        /* \"#utility.yul\":14500:14519   */\n      add\n        /* \"#utility.yul\":14492:14519   */\n      swap1\n      pop\n        /* \"#utility.yul\":14565:14574   */\n      dup2\n        /* \"#utility.yul\":14559:14563   */\n      dup2\n        /* \"#utility.yul\":14555:14575   */\n      sub\n        /* \"#utility.yul\":14551:14552   */\n      0x00\n        /* \"#utility.yul\":14540:14549   */\n      dup4\n        /* \"#utility.yul\":14536:14553   */\n      add\n        /* \"#utility.yul\":14529:14576   */\n      mstore\n        /* \"#utility.yul\":14593:14671   */\n      tag_403\n        /* \"#utility.yul\":14666:14670   */\n      dup2\n        /* \"#utility.yul\":14657:14663   */\n      dup8\n        /* \"#utility.yul\":14593:14671   */\n      tag_370\n      jump\t// in\n    tag_403:\n        /* \"#utility.yul\":14585:14671   */\n      swap1\n      pop\n        /* \"#utility.yul\":14718:14727   */\n      dup2\n        /* \"#utility.yul\":14712:14716   */\n      dup2\n        /* \"#utility.yul\":14708:14728   */\n      sub\n        /* \"#utility.yul\":14703:14705   */\n      0x20\n        /* \"#utility.yul\":14692:14701   */\n      dup4\n        /* \"#utility.yul\":14688:14706   */\n      add\n        /* \"#utility.yul\":14681:14729   */\n      mstore\n        /* \"#utility.yul\":14746:14824   */\n      tag_404\n        /* \"#utility.yul\":14819:14823   */\n      dup2\n        /* \"#utility.yul\":14810:14816   */\n      dup7\n        /* \"#utility.yul\":14746:14824   */\n      tag_370\n      jump\t// in\n    tag_404:\n        /* \"#utility.yul\":14738:14824   */\n      swap1\n      pop\n        /* \"#utility.yul\":14871:14880   */\n      dup2\n        /* \"#utility.yul\":14865:14869   */\n      dup2\n        /* \"#utility.yul\":14861:14881   */\n      sub\n        /* \"#utility.yul\":14856:14858   */\n      0x40\n        /* \"#utility.yul\":14845:14854   */\n      dup4\n        /* \"#utility.yul\":14841:14859   */\n      add\n        /* \"#utility.yul\":14834:14882   */\n      mstore\n        /* \"#utility.yul\":14899:14977   */\n      tag_405\n        /* \"#utility.yul\":14972:14976   */\n      dup2\n        /* \"#utility.yul\":14963:14969   */\n      dup6\n        /* \"#utility.yul\":14899:14977   */\n      tag_370\n      jump\t// in\n    tag_405:\n        /* \"#utility.yul\":14891:14977   */\n      swap1\n      pop\n        /* \"#utility.yul\":15024:15033   */\n      dup2\n        /* \"#utility.yul\":15018:15022   */\n      dup2\n        /* \"#utility.yul\":15014:15034   */\n      sub\n        /* \"#utility.yul\":15009:15011   */\n      0x60\n        /* \"#utility.yul\":14998:15007   */\n      dup4\n        /* \"#utility.yul\":14994:15012   */\n      add\n        /* \"#utility.yul\":14987:15035   */\n      mstore\n        /* \"#utility.yul\":15052:15130   */\n      tag_406\n        /* \"#utility.yul\":15125:15129   */\n      dup2\n        /* \"#utility.yul\":15116:15122   */\n      dup5\n        /* \"#utility.yul\":15052:15130   */\n      tag_370\n      jump\t// in\n    tag_406:\n        /* \"#utility.yul\":15044:15130   */\n      swap1\n      pop\n        /* \"#utility.yul\":14220:15137   */\n      swap6\n      swap5\n      pop\n      pop\n      pop\n      pop\n      pop\n      jump\t// out\n        /* \"#utility.yul\":15143:15365   */\n    tag_20:\n        /* \"#utility.yul\":15236:15240   */\n      0x00\n        /* \"#utility.yul\":15274:15276   */\n      0x20\n        /* \"#utility.yul\":15263:15272   */\n      dup3\n        /* \"#utility.yul\":15259:15277   */\n      add\n        /* \"#utility.yul\":15251:15277   */\n      swap1\n      pop\n        /* \"#utility.yul\":15287:15358   */\n      tag_408\n        /* \"#utility.yul\":15355:15356   */\n      0x00\n        /* \"#utility.yul\":15344:15353   */\n      dup4\n        /* \"#utility.yul\":15340:15357   */\n      add\n        /* \"#utility.yul\":15331:15337   */\n      dup5\n        /* \"#utility.yul\":15287:15358   */\n      tag_389\n      jump\t// in\n    tag_408:\n        /* \"#utility.yul\":15143:15365   */\n      swap3\n      swap2\n      pop\n      pop\n      jump\t// out\n        /* \"#utility.yul\":15371:15500   */\n    tag_245:\n        /* \"#utility.yul\":15405:15411   */\n      0x00\n        /* \"#utility.yul\":15432:15452   */\n      tag_410\n      tag_411\n      jump\t// in\n    tag_410:\n        /* \"#utility.yul\":15422:15452   */\n      swap1\n      pop\n        /* \"#utility.yul\":15461:15494   */\n      tag_412\n        /* \"#utility.yul\":15489:15493   */\n      dup3\n        /* \"#utility.yul\":15481:15487   */\n      dup3\n        /* \"#utility.yul\":15461:15494   */\n      tag_413\n      jump\t// in\n    tag_412:\n        /* \"#utility.yul\":15371:15500   */\n      swap2\n      swap1\n      pop\n      jump\t// out\n        /* \"#utility.yul\":15506:15581   */\n    tag_411:\n        /* \"#utility.yul\":15539:15545   */\n      0x00\n        /* \"#utility.yul\":15572:15574   */\n      0x40\n        /* \"#utility.yul\":15566:15575   */\n      mload\n        /* \"#utility.yul\":15556:15575   */\n      swap1\n      pop\n        /* \"#utility.yul\":15506:15581   */\n      swap1\n      jump\t// out\n        /* \"#utility.yul\":15587:15908   */\n    tag_244:\n        /* \"#utility.yul\":15674:15678   */\n      0x00\n        /* \"#utility.yul\":15764:15782   */\n      0xffffffffffffffff\n        /* \"#utility.yul\":15756:15762   */\n      dup3\n        /* \"#utility.yul\":15753:15783   */\n      gt\n        /* \"#utility.yul\":15750:15806   */\n      iszero\n      tag_416\n      jumpi\n        /* \"#utility.yul\":15786:15804   */\n      tag_417\n      tag_418\n      jump\t// in\n    tag_417:\n        /* \"#utility.yul\":15750:15806   */\n    tag_416:\n        /* \"#utility.yul\":15836:15840   */\n      0x20\n        /* \"#utility.yul\":15828:15834   */\n      dup3\n        /* \"#utility.yul\":15824:15841   */\n      mul\n        /* \"#utility.yul\":15816:15841   */\n      swap1\n      pop\n        /* \"#utility.yul\":15896:15900   */\n      0x20\n        /* \"#utility.yul\":15890:15894   */\n      dup2\n        /* \"#utility.yul\":15886:15901   */\n      add\n        /* \"#utility.yul\":15878:15901   */\n      swap1\n      pop\n        /* \"#utility.yul\":15587:15908   */\n      swap2\n      swap1\n      pop\n      jump\t// out\n        /* \"#utility.yul\":15914:16222   */\n    tag_261:\n        /* \"#utility.yul\":15976:15980   */\n      0x00\n        /* \"#utility.yul\":16066:16084   */\n      0xffffffffffffffff\n        /* \"#utility.yul\":16058:16064   */\n      dup3\n        /* \"#utility.yul\":16055:16085   */\n      gt\n        /* \"#utility.yul\":16052:16108   */\n      iszero\n      tag_420\n      jumpi\n        /* \"#utility.yul\":16088:16106   */\n      tag_421\n      tag_418\n      jump\t// in\n    tag_421:\n        /* \"#utility.yul\":16052:16108   */\n    tag_420:\n        /* \"#utility.yul\":16126:16155   */\n      tag_422\n        /* \"#utility.yul\":16148:16154   */\n      dup3\n        /* \"#utility.yul\":16126:16155   */\n      tag_369\n      jump\t// in\n    tag_422:\n        /* \"#utility.yul\":16118:16155   */\n      swap1\n      pop\n        /* \"#utility.yul\":16210:16214   */\n      0x20\n        /* \"#utility.yul\":16204:16208   */\n      dup2\n        /* \"#utility.yul\":16200:16215   */\n      add\n        /* \"#utility.yul\":16192:16215   */\n      swap1\n      pop\n        /* \"#utility.yul\":15914:16222   */\n      swap2\n      swap1\n      pop\n      jump\t// out\n        /* \"#utility.yul\":16228:16370   */\n    tag_354:\n        /* \"#utility.yul\":16305:16309   */\n      0x00\n        /* \"#utility.yul\":16328:16331   */\n      dup2\n        /* \"#utility.yul\":16320:16331   */\n      swap1\n      pop\n        /* \"#utility.yul\":16358:16362   */\n      0x20\n        /* \"#utility.yul\":16353:16356   */\n      dup3\n        /* \"#utility.yul\":16349:16363   */\n      add\n        /* \"#utility.yul\":16341:16363   */\n      swap1\n      pop\n        /* \"#utility.yul\":16228:16370   */\n      swap2\n      swap1\n      pop\n      jump\t// out\n        /* \"#utility.yul\":16376:16500   */\n    tag_350:\n        /* \"#utility.yul\":16453:16459   */\n      0x00\n        /* \"#utility.yul\":16487:16492   */\n      dup2\n        /* \"#utility.yul\":16481:16493   */\n      mload\n        /* \"#utility.yul\":16471:16493   */\n      swap1\n      pop\n        /* \"#utility.yul\":16376:16500   */\n      swap2\n      swap1\n      pop\n      jump\t// out\n        /* \"#utility.yul\":16506:16605   */\n    tag_363:\n        /* \"#utility.yul\":16558:16564   */\n      0x00\n        /* \"#utility.yul\":16592:16597   */\n      dup2\n        /* \"#utility.yul\":16586:16598   */\n      mload\n        /* \"#utility.yul\":16576:16598   */\n      swap1\n      pop\n        /* \"#utility.yul\":16506:16605   */\n      swap2\n      swap1\n      pop\n      jump\t// out\n        /* \"#utility.yul\":16611:16734   */\n    tag_360:\n        /* \"#utility.yul\":16691:16695   */\n      0x00\n        /* \"#utility.yul\":16723:16727   */\n      0x20\n        /* \"#utility.yul\":16718:16721   */\n      dup3\n        /* \"#utility.yul\":16714:16728   */\n      add\n        /* \"#utility.yul\":16706:16728   */\n      swap1\n      pop\n        /* \"#utility.yul\":16611:16734   */\n      swap2\n      swap1\n      pop\n      jump\t// out\n        /* \"#utility.yul\":16740:16924   */\n    tag_352:\n        /* \"#utility.yul\":16839:16850   */\n      0x00\n        /* \"#utility.yul\":16873:16879   */\n      dup3\n        /* \"#utility.yul\":16868:16871   */\n      dup3\n        /* \"#utility.yul\":16861:16880   */\n      mstore\n        /* \"#utility.yul\":16913:16917   */\n      0x20\n        /* \"#utility.yul\":16908:16911   */\n      dup3\n        /* \"#utility.yul\":16904:16918   */\n      add\n        /* \"#utility.yul\":16889:16918   */\n      swap1\n      pop\n        /* \"#utility.yul\":16740:16924   */\n      swap3\n      swap2\n      pop\n      pop\n      jump\t// out\n        /* \"#utility.yul\":16930:17089   */\n    tag_365:\n        /* \"#utility.yul\":17004:17015   */\n      0x00\n        /* \"#utility.yul\":17038:17044   */\n      dup3\n        /* \"#utility.yul\":17033:17036   */\n      dup3\n        /* \"#utility.yul\":17026:17045   */\n      mstore\n        /* \"#utility.yul\":17078:17082   */\n      0x20\n        /* \"#utility.yul\":17073:17076   */\n      dup3\n        /* \"#utility.yul\":17069:17083   */\n      add\n        /* \"#utility.yul\":17054:17083   */\n      swap1\n      pop\n        /* \"#utility.yul\":16930:17089   */\n      swap3\n      swap2\n      pop\n      pop\n      jump\t// out\n        /* \"#utility.yul\":17095:17264   */\n    tag_374:\n        /* \"#utility.yul\":17179:17190   */\n      0x00\n        /* \"#utility.yul\":17213:17219   */\n      dup3\n        /* \"#utility.yul\":17208:17211   */\n      dup3\n        /* \"#utility.yul\":17201:17220   */\n      mstore\n        /* \"#utility.yul\":17253:17257   */\n      0x20\n        /* \"#utility.yul\":17248:17251   */\n      dup3\n        /* \"#utility.yul\":17244:17258   */\n      add\n        /* \"#utility.yul\":17229:17258   */\n      swap1\n      pop\n        /* \"#utility.yul\":17095:17264   */\n      swap3\n      swap2\n      pop\n      pop\n      jump\t// out\n        /* \"#utility.yul\":17270:17366   */\n    tag_346:\n        /* \"#utility.yul\":17307:17314   */\n      0x00\n        /* \"#utility.yul\":17336:17360   */\n      tag_431\n        /* \"#utility.yul\":17354:17359   */\n      dup3\n        /* \"#utility.yul\":17336:17360   */\n      tag_432\n      jump\t// in\n    tag_431:\n        /* \"#utility.yul\":17325:17360   */\n      swap1\n      pop\n        /* \"#utility.yul\":17270:17366   */\n      swap2\n      swap1\n      pop\n      jump\t// out\n        /* \"#utility.yul\":17372:17498   */\n    tag_432:\n        /* \"#utility.yul\":17409:17416   */\n      0x00\n        /* \"#utility.yul\":17449:17491   */\n      0xffffffffffffffffffffffffffffffffffffffff\n        /* \"#utility.yul\":17442:17447   */\n      dup3\n        /* \"#utility.yul\":17438:17492   */\n      and\n        /* \"#utility.yul\":17427:17492   */\n      swap1\n      pop\n        /* \"#utility.yul\":17372:17498   */\n      swap2\n      swap1\n      pop\n      jump\t// out\n        /* \"#utility.yul\":17504:17581   */\n    tag_392:\n        /* \"#utility.yul\":17541:17548   */\n      0x00\n        /* \"#utility.yul\":17570:17575   */\n      dup2\n        /* \"#utility.yul\":17559:17575   */\n      swap1\n      pop\n        /* \"#utility.yul\":17504:17581   */\n      swap2\n      swap1\n      pop\n      jump\t// out\n        /* \"#utility.yul\":17587:17741   */\n    tag_266:\n        /* \"#utility.yul\":17671:17677   */\n      dup3\n        /* \"#utility.yul\":17666:17669   */\n      dup2\n        /* \"#utility.yul\":17661:17664   */\n      dup4\n        /* \"#utility.yul\":17648:17678   */\n      calldatacopy\n        /* \"#utility.yul\":17733:17734   */\n      0x00\n        /* \"#utility.yul\":17724:17730   */\n      dup4\n        /* \"#utility.yul\":17719:17722   */\n      dup4\n        /* \"#utility.yul\":17715:17731   */\n      add\n        /* \"#utility.yul\":17708:17735   */\n      mstore\n        /* \"#utility.yul\":17587:17741   */\n      pop\n      pop\n      pop\n      jump\t// out\n        /* \"#utility.yul\":17747:18054   */\n    tag_367:\n        /* \"#utility.yul\":17815:17816   */\n      0x00\n        /* \"#utility.yul\":17825:17938   */\n    tag_437:\n        /* \"#utility.yul\":17839:17845   */\n      dup4\n        /* \"#utility.yul\":17836:17837   */\n      dup2\n        /* \"#utility.yul\":17833:17846   */\n      lt\n        /* \"#utility.yul\":17825:17938   */\n      iszero\n      tag_439\n      jumpi\n        /* \"#utility.yul\":17924:17925   */\n      dup1\n        /* \"#utility.yul\":17919:17922   */\n      dup3\n        /* \"#utility.yul\":17915:17926   */\n      add\n        /* \"#utility.yul\":17909:17927   */\n      mload\n        /* \"#utility.yul\":17905:17906   */\n      dup2\n        /* \"#utility.yul\":17900:17903   */\n      dup5\n        /* \"#utility.yul\":17896:17907   */\n      add\n        /* \"#utility.yul\":17889:17928   */\n      mstore\n        /* \"#utility.yul\":17861:17863   */\n      0x20\n        /* \"#utility.yul\":17858:17859   */\n      dup2\n        /* \"#utility.yul\":17854:17864   */\n      add\n        /* \"#utility.yul\":17849:17864   */\n      swap1\n      pop\n        /* \"#utility.yul\":17825:17938   */\n      jump(tag_437)\n    tag_439:\n        /* \"#utility.yul\":17956:17962   */\n      dup4\n        /* \"#utility.yul\":17953:17954   */\n      dup2\n        /* \"#utility.yul\":17950:17963   */\n      gt\n        /* \"#utility.yul\":17947:18048   */\n      iszero\n      tag_440\n      jumpi\n        /* \"#utility.yul\":18036:18037   */\n      0x00\n        /* \"#utility.yul\":18027:18033   */\n      dup5\n        /* \"#utility.yul\":18022:18025   */\n      dup5\n        /* \"#utility.yul\":18018:18034   */\n      add\n        /* \"#utility.yul\":18011:18038   */\n      mstore\n        /* \"#utility.yul\":17947:18048   */\n    tag_440:\n        /* \"#utility.yul\":17796:18054   */\n      pop\n        /* \"#utility.yul\":17747:18054   */\n      pop\n      pop\n      pop\n      jump\t// out\n        /* \"#utility.yul\":18060:18380   */\n    tag_85:\n        /* \"#utility.yul\":18104:18110   */\n      0x00\n        /* \"#utility.yul\":18141:18142   */\n      0x02\n        /* \"#utility.yul\":18135:18139   */\n      dup3\n        /* \"#utility.yul\":18131:18143   */\n      div\n        /* \"#utility.yul\":18121:18143   */\n      swap1\n      pop\n        /* \"#utility.yul\":18188:18189   */\n      0x01\n        /* \"#utility.yul\":18182:18186   */\n      dup3\n        /* \"#utility.yul\":18178:18190   */\n      and\n        /* \"#utility.yul\":18209:18227   */\n      dup1\n        /* \"#utility.yul\":18199:18280   */\n      tag_442\n      jumpi\n        /* \"#utility.yul\":18265:18269   */\n      0x7f\n        /* \"#utility.yul\":18257:18263   */\n      dup3\n        /* \"#utility.yul\":18253:18270   */\n      and\n        /* \"#utility.yul\":18243:18270   */\n      swap2\n      pop\n        /* \"#utility.yul\":18199:18280   */\n    tag_442:\n        /* \"#utility.yul\":18327:18329   */\n      0x20\n        /* \"#utility.yul\":18319:18325   */\n      dup3\n        /* \"#utility.yul\":18316:18330   */\n      lt\n        /* \"#utility.yul\":18296:18314   */\n      dup2\n        /* \"#utility.yul\":18293:18331   */\n      eq\n        /* \"#utility.yul\":18290:18374   */\n      iszero\n      tag_443\n      jumpi\n        /* \"#utility.yul\":18346:18364   */\n      tag_444\n      tag_445\n      jump\t// in\n    tag_444:\n        /* \"#utility.yul\":18290:18374   */\n    tag_443:\n        /* \"#utility.yul\":18111:18380   */\n      pop\n        /* \"#utility.yul\":18060:18380   */\n      swap2\n      swap1\n      pop\n      jump\t// out\n        /* \"#utility.yul\":18386:18667   */\n    tag_413:\n        /* \"#utility.yul\":18469:18496   */\n      tag_447\n        /* \"#utility.yul\":18491:18495   */\n      dup3\n        /* \"#utility.yul\":18469:18496   */\n      tag_369\n      jump\t// in\n    tag_447:\n        /* \"#utility.yul\":18461:18467   */\n      dup2\n        /* \"#utility.yul\":18457:18497   */\n      add\n        /* \"#utility.yul\":18599:18605   */\n      dup2\n        /* \"#utility.yul\":18587:18597   */\n      dup2\n        /* \"#utility.yul\":18584:18606   */\n      lt\n        /* \"#utility.yul\":18563:18581   */\n      0xffffffffffffffff\n        /* \"#utility.yul\":18551:18561   */\n      dup3\n        /* \"#utility.yul\":18548:18582   */\n      gt\n        /* \"#utility.yul\":18545:18607   */\n      or\n        /* \"#utility.yul\":18542:18630   */\n      iszero\n      tag_448\n      jumpi\n        /* \"#utility.yul\":18610:18628   */\n      tag_449\n      tag_418\n      jump\t// in\n    tag_449:\n        /* \"#utility.yul\":18542:18630   */\n    tag_448:\n        /* \"#utility.yul\":18650:18660   */\n      dup1\n        /* \"#utility.yul\":18646:18648   */\n      0x40\n        /* \"#utility.yul\":18639:18661   */\n      mstore\n        /* \"#utility.yul\":18429:18667   */\n      pop\n        /* \"#utility.yul\":18386:18667   */\n      pop\n      pop\n      jump\t// out\n        /* \"#utility.yul\":18673:18853   */\n    tag_445:\n        /* \"#utility.yul\":18721:18798   */\n      0x4e487b7100000000000000000000000000000000000000000000000000000000\n        /* \"#utility.yul\":18718:18719   */\n      0x00\n        /* \"#utility.yul\":18711:18799   */\n      mstore\n        /* \"#utility.yul\":18818:18822   */\n      0x22\n        /* \"#utility.yul\":18815:18816   */\n      0x04\n        /* \"#utility.yul\":18808:18823   */\n      mstore\n        /* \"#utility.yul\":18842:18846   */\n      0x24\n        /* \"#utility.yul\":18839:18840   */\n      0x00\n        /* \"#utility.yul\":18832:18847   */\n      revert\n        /* \"#utility.yul\":18859:19039   */\n    tag_160:\n        /* \"#utility.yul\":18907:18984   */\n      0x4e487b7100000000000000000000000000000000000000000000000000000000\n        /* \"#utility.yul\":18904:18905   */\n      0x00\n        /* \"#utility.yul\":18897:18985   */\n      mstore\n        /* \"#utility.yul\":19004:19008   */\n      0x32\n        /* \"#utility.yul\":19001:19002   */\n      0x04\n        /* \"#utility.yul\":18994:19009   */\n      mstore\n        /* \"#utility.yul\":19028:19032   */\n      0x24\n        /* \"#utility.yul\":19025:19026   */\n      0x00\n        /* \"#utility.yul\":19018:19033   */\n      revert\n        /* \"#utility.yul\":19045:19225   */\n    tag_418:\n        /* \"#utility.yul\":19093:19170   */\n      0x4e487b7100000000000000000000000000000000000000000000000000000000\n        /* \"#utility.yul\":19090:19091   */\n      0x00\n        /* \"#utility.yul\":19083:19171   */\n      mstore\n        /* \"#utility.yul\":19190:19194   */\n      0x41\n        /* \"#utility.yul\":19187:19188   */\n      0x04\n        /* \"#utility.yul\":19180:19195   */\n      mstore\n        /* \"#utility.yul\":19214:19218   */\n      0x24\n        /* \"#utility.yul\":19211:19212   */\n      0x00\n        /* \"#utility.yul\":19204:19219   */\n      revert\n        /* \"#utility.yul\":19231:19348   */\n    tag_254:\n        /* \"#utility.yul\":19340:19341   */\n      0x00\n        /* \"#utility.yul\":19337:19338   */\n      dup1\n        /* \"#utility.yul\":19330:19342   */\n      revert\n        /* \"#utility.yul\":19354:19471   */\n    tag_248:\n        /* \"#utility.yul\":19463:19464   */\n      0x00\n        /* \"#utility.yul\":19460:19461   */\n      dup1\n        /* \"#utility.yul\":19453:19465   */\n      revert\n        /* \"#utility.yul\":19477:19594   */\n    tag_264:\n        /* \"#utility.yul\":19586:19587   */\n      0x00\n        /* \"#utility.yul\":19583:19584   */\n      dup1\n        /* \"#utility.yul\":19576:19588   */\n      revert\n        /* \"#utility.yul\":19600:19717   */\n    tag_294:\n        /* \"#utility.yul\":19709:19710   */\n      0x00\n        /* \"#utility.yul\":19706:19707   */\n      dup1\n        /* \"#utility.yul\":19699:19711   */\n      revert\n        /* \"#utility.yul\":19723:19840   */\n    tag_287:\n        /* \"#utility.yul\":19832:19833   */\n      0x00\n        /* \"#utility.yul\":19829:19830   */\n      dup1\n        /* \"#utility.yul\":19822:19834   */\n      revert\n        /* \"#utility.yul\":19846:19948   */\n    tag_369:\n        /* \"#utility.yul\":19887:19893   */\n      0x00\n        /* \"#utility.yul\":19938:19940   */\n      0x1f\n        /* \"#utility.yul\":19934:19941   */\n      not\n        /* \"#utility.yul\":19929:19931   */\n      0x1f\n        /* \"#utility.yul\":19922:19927   */\n      dup4\n        /* \"#utility.yul\":19918:19932   */\n      add\n        /* \"#utility.yul\":19914:19942   */\n      and\n        /* \"#utility.yul\":19904:19942   */\n      swap1\n      pop\n        /* \"#utility.yul\":19846:19948   */\n      swap2\n      swap1\n      pop\n      jump\t// out\n        /* \"#utility.yul\":19954:20076   */\n    tag_270:\n        /* \"#utility.yul\":20027:20051   */\n      tag_460\n        /* \"#utility.yul\":20045:20050   */\n      dup2\n        /* \"#utility.yul\":20027:20051   */\n      tag_346\n      jump\t// in\n    tag_460:\n        /* \"#utility.yul\":20020:20025   */\n      dup2\n        /* \"#utility.yul\":20017:20052   */\n      eq\n        /* \"#utility.yul\":20007:20070   */\n      tag_461\n      jumpi\n        /* \"#utility.yul\":20066:20067   */\n      0x00\n        /* \"#utility.yul\":20063:20064   */\n      dup1\n        /* \"#utility.yul\":20056:20068   */\n      revert\n        /* \"#utility.yul\":20007:20070   */\n    tag_461:\n        /* \"#utility.yul\":19954:20076   */\n      pop\n      jump\t// out\n        /* \"#utility.yul\":20082:20204   */\n    tag_283:\n        /* \"#utility.yul\":20155:20179   */\n      tag_463\n        /* \"#utility.yul\":20173:20178   */\n      dup2\n        /* \"#utility.yul\":20155:20179   */\n      tag_392\n      jump\t// in\n    tag_463:\n        /* \"#utility.yul\":20148:20153   */\n      dup2\n        /* \"#utility.yul\":20145:20180   */\n      eq\n        /* \"#utility.yul\":20135:20198   */\n      tag_464\n      jumpi\n        /* \"#utility.yul\":20194:20195   */\n      0x00\n        /* \"#utility.yul\":20191:20192   */\n      dup1\n        /* \"#utility.yul\":20184:20196   */\n      revert\n        /* \"#utility.yul\":20135:20198   */\n    tag_464:\n        /* \"#utility.yul\":20082:20204   */\n      pop\n      jump\t// out\n\n    auxdata: 0xa264697066735822122006065a5be4cf8595365677c88d8dd2a76457bc77c280830ca1ef6a8a8a10706664736f6c63430008070033\n}\n",
				"bytecode": {
					"linkReferences": {},
					"object": "608060405234801561001057600080fd5b506122ea806100206000396000f3fe608060405234801561001057600080fd5b50600436106100935760003560e01c80639d983a01116100665780639d983a011461010a5780639dd9d0fd14610126578063ed2217ef1461015d578063f96e32f814610167578063fabce08f1461019a57610093565b80633d984d0e146100985780636212fa02146100b457806372828388146100d25780638c241fc4146100ee575b600080fd5b6100b260048036038101906100ad9190611a27565b6101a4565b005b6100bc610328565b6040516100c99190611feb565b60405180910390f35b6100ec60048036038101906100e79190611ba5565b610374565b005b61010860048036038101906101039190611ace565b6105cc565b005b610124600480360381019061011f9190611ace565b6107f0565b005b610140600480360381019061013b91906119fa565b610904565b604051610154989796959493929190611ee2565b60405180910390f35b610165611105565b005b610181600480360381019061017c9190611cac565b611154565b6040516101919493929190611f8a565b60405180910390f35b6101a2611529565b005b6000803373ffffffffffffffffffffffffffffffffffffffff1673ffffffffffffffffffffffffffffffffffffffff168152602001908152602001600020600b01600080820160006101f69190611679565b6001820160006102069190611679565b6002820160006102169190611679565b5050826000803373ffffffffffffffffffffffffffffffffffffffff1673ffffffffffffffffffffffffffffffffffffffff168152602001908152602001600020600b01600001908051906020019061027092919061169a565b50816000803373ffffffffffffffffffffffffffffffffffffffff1673ffffffffffffffffffffffffffffffffffffffff168152602001908152602001600020600b0160010190805190602001906102c992919061169a565b50806000803373ffffffffffffffffffffffffffffffffffffffff1673ffffffffffffffffffffffffffffffffffffffff168152602001908152602001600020600b01600201908051906020019061032292919061169a565b50505050565b60008060003373ffffffffffffffffffffffffffffffffffffffff1673ffffffffffffffffffffffffffffffffffffffff168152602001908152602001600020600e0180549050905090565b6000803373ffffffffffffffffffffffffffffffffffffffff1673ffffffffffffffffffffffffffffffffffffffff168152602001908152602001600020600601600080820160006103c691906116fa565b6001820160006103d691906116fa565b6002820160006103e691906116fa565b6003820160006103f691906116fa565b60048201600061040691906116fa565b5050846000803373ffffffffffffffffffffffffffffffffffffffff1673ffffffffffffffffffffffffffffffffffffffff168152602001908152602001600020600601600001908051906020019061046092919061173a565b50836000803373ffffffffffffffffffffffffffffffffffffffff1673ffffffffffffffffffffffffffffffffffffffff16815260200190815260200160002060060160010190805190602001906104b992919061173a565b50826000803373ffffffffffffffffffffffffffffffffffffffff1673ffffffffffffffffffffffffffffffffffffffff168152602001908152602001600020600601600001908051906020019061051292919061173a565b50816000803373ffffffffffffffffffffffffffffffffffffffff1673ffffffffffffffffffffffffffffffffffffffff168152602001908152602001600020600601600101908051906020019061056b92919061173a565b50806000803373ffffffffffffffffffffffffffffffffffffffff1673ffffffffffffffffffffffffffffffffffffffff16815260200190815260200160002060060160000190805190602001906105c492919061173a565b505050505050565b836000803373ffffffffffffffffffffffffffffffffffffffff1673ffffffffffffffffffffffffffffffffffffffff168152602001908152602001600020600101908051906020019061062192919061173a565b50826000803373ffffffffffffffffffffffffffffffffffffffff1673ffffffffffffffffffffffffffffffffffffffff168152602001908152602001600020600201908051906020019061067792919061173a565b50816000803373ffffffffffffffffffffffffffffffffffffffff1673ffffffffffffffffffffffffffffffffffffffff16815260200190815260200160002060030190805190602001906106cd92919061173a565b50806000803373ffffffffffffffffffffffffffffffffffffffff1673ffffffffffffffffffffffffffffffffffffffff168152602001908152602001600020600401908051906020019061072392919061173a565b50336000803373ffffffffffffffffffffffffffffffffffffffff1673ffffffffffffffffffffffffffffffffffffffff16815260200190815260200160002060000160006101000a81548173ffffffffffffffffffffffffffffffffffffffff021916908373ffffffffffffffffffffffffffffffffffffffff160217905550426000803373ffffffffffffffffffffffffffffffffffffffff1673ffffffffffffffffffffffffffffffffffffffff1681526020019081526020016000206005018190555050505050565b6107f86117c0565b8481600001819052508381602001819052508281604001819052508181606001819052506000803373ffffffffffffffffffffffffffffffffffffffff1673ffffffffffffffffffffffffffffffffffffffff168152602001908152602001600020600e0181908060018154018082558091505060019003906000526020600020906004020160009091909190915060008201518160000190805190602001906108a392919061173a565b5060208201518160010190805190602001906108c092919061173a565b5060408201518160020190805190602001906108dd92919061173a565b5060608201518160030190805190602001906108fa92919061173a565b5050505050505050565b60006020528060005260406000206000915090508060000160009054906101000a900473ffffffffffffffffffffffffffffffffffffffff169080600101805461094d9061216c565b80601f01602080910402602001604051908101604052809291908181526020018280546109799061216c565b80156109c65780601f1061099b576101008083540402835291602001916109c6565b820191906000526020600020905b8154815290600101906020018083116109a957829003601f168201915b5050505050908060020180546109db9061216c565b80601f0160208091040260200160405190810160405280929190818152602001828054610a079061216c565b8015610a545780601f10610a2957610100808354040283529160200191610a54565b820191906000526020600020905b815481529060010190602001808311610a3757829003601f168201915b505050505090806003018054610a699061216c565b80601f0160208091040260200160405190810160405280929190818152602001828054610a959061216c565b8015610ae25780601f10610ab757610100808354040283529160200191610ae2565b820191906000526020600020905b815481529060010190602001808311610ac557829003601f168201915b505050505090806004018054610af79061216c565b80601f0160208091040260200160405190810160405280929190818152602001828054610b239061216c565b8015610b705780601f10610b4557610100808354040283529160200191610b70565b820191906000526020600020905b815481529060010190602001808311610b5357829003601f168201915b505050505090806005015490806006016040518060a0016040529081600082018054610b9b9061216c565b80601f0160208091040260200160405190810160405280929190818152602001828054610bc79061216c565b8015610c145780601f10610be957610100808354040283529160200191610c14565b820191906000526020600020905b815481529060010190602001808311610bf757829003601f168201915b50505050508152602001600182018054610c2d9061216c565b80601f0160208091040260200160405190810160405280929190818152602001828054610c599061216c565b8015610ca65780601f10610c7b57610100808354040283529160200191610ca6565b820191906000526020600020905b815481529060010190602001808311610c8957829003601f168201915b50505050508152602001600282018054610cbf9061216c565b80601f0160208091040260200160405190810160405280929190818152602001828054610ceb9061216c565b8015610d385780601f10610d0d57610100808354040283529160200191610d38565b820191906000526020600020905b815481529060010190602001808311610d1b57829003601f168201915b50505050508152602001600382018054610d519061216c565b80601f0160208091040260200160405190810160405280929190818152602001828054610d7d9061216c565b8015610dca5780601f10610d9f57610100808354040283529160200191610dca565b820191906000526020600020905b815481529060010190602001808311610dad57829003601f168201915b50505050508152602001600482018054610de39061216c565b80601f0160208091040260200160405190810160405280929190818152602001828054610e0f9061216c565b8015610e5c5780601f10610e3157610100808354040283529160200191610e5c565b820191906000526020600020905b815481529060010190602001808311610e3f57829003601f168201915b5050505050815250509080600b0160405180606001604052908160008201805480602002602001604051908101604052809291908181526020016000905b82821015610f46578382906000526020600020018054610eb99061216c565b80601f0160208091040260200160405190810160405280929190818152602001828054610ee59061216c565b8015610f325780601f10610f0757610100808354040283529160200191610f32565b820191906000526020600020905b815481529060010190602001808311610f1557829003601f168201915b505050505081526020019060010190610e9a565b50505050815260200160018201805480602002602001604051908101604052809291908181526020016000905b8282101561101f578382906000526020600020018054610f929061216c565b80601f0160208091040260200160405190810160405280929190818152602001828054610fbe9061216c565b801561100b5780601f10610fe05761010080835404028352916020019161100b565b820191906000526020600020905b815481529060010190602001808311610fee57829003601f168201915b505050505081526020019060010190610f73565b50505050815260200160028201805480602002602001604051908101604052809291908181526020016000905b828210156110f857838290600052602060002001805461106b9061216c565b80601f01602080910402602001604051908101604052809291908181526020018280546110979061216c565b80156110e45780601f106110b9576101008083540402835291602001916110e4565b820191906000526020600020905b8154815290600101906020018083116110c757829003601f168201915b50505050508152602001906001019061104c565b5050505081525050905088565b6000803373ffffffffffffffffffffffffffffffffffffffff1673ffffffffffffffffffffffffffffffffffffffff168152602001908152602001600020600e01600061115291906117e8565b565b6060806060806000803373ffffffffffffffffffffffffffffffffffffffff1673ffffffffffffffffffffffffffffffffffffffff168152602001908152602001600020600e0185815481106111ad576111ac6121fe565b5b90600052602060002090600402016000016000803373ffffffffffffffffffffffffffffffffffffffff1673ffffffffffffffffffffffffffffffffffffffff168152602001908152602001600020600e018681548110611211576112106121fe565b5b90600052602060002090600402016001016000803373ffffffffffffffffffffffffffffffffffffffff1673ffffffffffffffffffffffffffffffffffffffff168152602001908152602001600020600e018781548110611275576112746121fe565b5b90600052602060002090600402016002016000803373ffffffffffffffffffffffffffffffffffffffff1673ffffffffffffffffffffffffffffffffffffffff168152602001908152602001600020600e0188815481106112d9576112d86121fe565b5b90600052602060002090600402016003018380546112f69061216c565b80601f01602080910402602001604051908101604052809291908181526020018280546113229061216c565b801561136f5780601f106113445761010080835404028352916020019161136f565b820191906000526020600020905b81548152906001019060200180831161135257829003601f168201915b505050505093508280546113829061216c565b80601f01602080910402602001604051908101604052809291908181526020018280546113ae9061216c565b80156113fb5780601f106113d0576101008083540402835291602001916113fb565b820191906000526020600020905b8154815290600101906020018083116113de57829003601f168201915b5050505050925081805461140e9061216c565b80601f016020809104026020016040519081016040528092919081815260200182805461143a9061216c565b80156114875780601f1061145c57610100808354040283529160200191611487565b820191906000526020600020905b81548152906001019060200180831161146a57829003601f168201915b5050505050915080805461149a9061216c565b80601f01602080910402602001604051908101604052809291908181526020018280546114c69061216c565b80156115135780601f106114e857610100808354040283529160200191611513565b820191906000526020600020905b8154815290600101906020018083116114f657829003601f168201915b5050505050905093509350935093509193509193565b6000803373ffffffffffffffffffffffffffffffffffffffff1673ffffffffffffffffffffffffffffffffffffffff168152602001908152602001600020600080820160006101000a81549073ffffffffffffffffffffffffffffffffffffffff021916905560018201600061159f91906116fa565b6002820160006115af91906116fa565b6003820160006115bf91906116fa565b6004820160006115cf91906116fa565b600582016000905560068201600080820160006115ec91906116fa565b6001820160006115fc91906116fa565b60028201600061160c91906116fa565b60038201600061161c91906116fa565b60048201600061162c91906116fa565b5050600b8201600080820160006116439190611679565b6001820160006116539190611679565b6002820160006116639190611679565b5050600e8201600061167591906117e8565b5050565b5080546000825590600052602060002090810190611697919061180c565b50565b8280548282559060005260206000209081019282156116e9579160200282015b828111156116e85782518290805190602001906116d892919061173a565b50916020019190600101906116ba565b5b5090506116f6919061180c565b5090565b5080546117069061216c565b6000825580601f106117185750611737565b601f0160209004906000526020600020908101906117369190611830565b5b50565b8280546117469061216c565b90600052602060002090601f01602090048101928261176857600085556117af565b82601f1061178157805160ff19168380011785556117af565b828001600101855582156117af579182015b828111156117ae578251825591602001919060010190611793565b5b5090506117bc9190611830565b5090565b6040518060800160405280606081526020016060815260200160608152602001606081525090565b5080546000825560040290600052602060002090810190611809919061184d565b50565b5b8082111561182c576000818161182391906116fa565b5060010161180d565b5090565b5b80821115611849576000816000905550600101611831565b5090565b5b808211156118a0576000808201600061186791906116fa565b60018201600061187791906116fa565b60028201600061188791906116fa565b60038201600061189791906116fa565b5060040161184e565b5090565b60006118b76118b28461202b565b612006565b905080838252602082019050828560208602820111156118da576118d9612261565b5b60005b8581101561192857813567ffffffffffffffff811115611900576118ff61225c565b5b80860161190d89826119b7565b855260208501945060208401935050506001810190506118dd565b5050509392505050565b600061194561194084612057565b612006565b90508281526020810184848401111561196157611960612266565b5b61196c84828561212a565b509392505050565b60008135905061198381612286565b92915050565b600082601f83011261199e5761199d61225c565b5b81356119ae8482602086016118a4565b91505092915050565b600082601f8301126119cc576119cb61225c565b5b81356119dc848260208601611932565b91505092915050565b6000813590506119f48161229d565b92915050565b600060208284031215611a1057611a0f612270565b5b6000611a1e84828501611974565b91505092915050565b600080600060608486031215611a4057611a3f612270565b5b600084013567ffffffffffffffff811115611a5e57611a5d61226b565b5b611a6a86828701611989565b935050602084013567ffffffffffffffff811115611a8b57611a8a61226b565b5b611a9786828701611989565b925050604084013567ffffffffffffffff811115611ab857611ab761226b565b5b611ac486828701611989565b9150509250925092565b60008060008060808587031215611ae857611ae7612270565b5b600085013567ffffffffffffffff811115611b0657611b0561226b565b5b611b12878288016119b7565b945050602085013567ffffffffffffffff811115611b3357611b3261226b565b5b611b3f878288016119b7565b935050604085013567ffffffffffffffff811115611b6057611b5f61226b565b5b611b6c878288016119b7565b925050606085013567ffffffffffffffff811115611b8d57611b8c61226b565b5b611b99878288016119b7565b91505092959194509250565b600080600080600060a08688031215611bc157611bc0612270565b5b600086013567ffffffffffffffff811115611bdf57611bde61226b565b5b611beb888289016119b7565b955050602086013567ffffffffffffffff811115611c0c57611c0b61226b565b5b611c18888289016119b7565b945050604086013567ffffffffffffffff811115611c3957611c3861226b565b5b611c45888289016119b7565b935050606086013567ffffffffffffffff811115611c6657611c6561226b565b5b611c72888289016119b7565b925050608086013567ffffffffffffffff811115611c9357611c9261226b565b5b611c9f888289016119b7565b9150509295509295909350565b600060208284031215611cc257611cc1612270565b5b6000611cd0848285016119e5565b91505092915050565b6000611ce58383611d71565b905092915050565b611cf6816120ee565b82525050565b6000611d0782612098565b611d1181856120bb565b935083602082028501611d2385612088565b8060005b85811015611d5f5784840389528151611d408582611cd9565b9450611d4b836120ae565b925060208a01995050600181019050611d27565b50829750879550505050505092915050565b6000611d7c826120a3565b611d8681856120cc565b9350611d96818560208601612139565b611d9f81612275565b840191505092915050565b6000611db5826120a3565b611dbf81856120dd565b9350611dcf818560208601612139565b611dd881612275565b840191505092915050565b600060a0830160008301518482036000860152611e008282611d71565b91505060208301518482036020860152611e1a8282611d71565b91505060408301518482036040860152611e348282611d71565b91505060608301518482036060860152611e4e8282611d71565b91505060808301518482036080860152611e688282611d71565b9150508091505092915050565b60006060830160008301518482036000860152611e928282611cfc565b91505060208301518482036020860152611eac8282611cfc565b91505060408301518482036040860152611ec68282611cfc565b9150508091505092915050565b611edc81612120565b82525050565b600061010082019050611ef8600083018b611ced565b8181036020830152611f0a818a611daa565b90508181036040830152611f1e8189611daa565b90508181036060830152611f328188611daa565b90508181036080830152611f468187611daa565b9050611f5560a0830186611ed3565b81810360c0830152611f678185611de3565b905081810360e0830152611f7b8184611e75565b90509998505050505050505050565b60006080820190508181036000830152611fa48187611daa565b90508181036020830152611fb88186611daa565b90508181036040830152611fcc8185611daa565b90508181036060830152611fe08184611daa565b905095945050505050565b60006020820190506120006000830184611ed3565b92915050565b6000612010612021565b905061201c828261219e565b919050565b6000604051905090565b600067ffffffffffffffff8211156120465761204561222d565b5b602082029050602081019050919050565b600067ffffffffffffffff8211156120725761207161222d565b5b61207b82612275565b9050602081019050919050565b6000819050602082019050919050565b600081519050919050565b600081519050919050565b6000602082019050919050565b600082825260208201905092915050565b600082825260208201905092915050565b600082825260208201905092915050565b60006120f982612100565b9050919050565b600073ffffffffffffffffffffffffffffffffffffffff82169050919050565b6000819050919050565b82818337600083830152505050565b60005b8381101561215757808201518184015260208101905061213c565b83811115612166576000848401525b50505050565b6000600282049050600182168061218457607f821691505b60208210811415612198576121976121cf565b5b50919050565b6121a782612275565b810181811067ffffffffffffffff821117156121c6576121c561222d565b5b80604052505050565b7f4e487b7100000000000000000000000000000000000000000000000000000000600052602260045260246000fd5b7f4e487b7100000000000000000000000000000000000000000000000000000000600052603260045260246000fd5b7f4e487b7100000000000000000000000000000000000000000000000000000000600052604160045260246000fd5b600080fd5b600080fd5b600080fd5b600080fd5b600080fd5b6000601f19601f8301169050919050565b61228f816120ee565b811461229a57600080fd5b50565b6122a681612120565b81146122b157600080fd5b5056fea264697066735822122006065a5be4cf8595365677c88d8dd2a76457bc77c280830ca1ef6a8a8a10706664736f6c63430008070033",
					"opcodes": "PUSH1 0x80 PUSH1 0x40 MSTORE CALLVALUE DUP1 ISZERO PUSH2 0x10 JUMPI PUSH1 0x0 DUP1 REVERT JUMPDEST POP PUSH2 0x22EA DUP1 PUSH2 0x20 PUSH1 0x0 CODECOPY PUSH1 0x0 RETURN INVALID PUSH1 0x80 PUSH1 0x40 MSTORE CALLVALUE DUP1 ISZERO PUSH2 0x10 JUMPI PUSH1 0x0 DUP1 REVERT JUMPDEST POP PUSH1 0x4 CALLDATASIZE LT PUSH2 0x93 JUMPI PUSH1 0x0 CALLDATALOAD PUSH1 0xE0 SHR DUP1 PUSH4 0x9D983A01 GT PUSH2 0x66 JUMPI DUP1 PUSH4 0x9D983A01 EQ PUSH2 0x10A JUMPI DUP1 PUSH4 0x9DD9D0FD EQ PUSH2 0x126 JUMPI DUP1 PUSH4 0xED2217EF EQ PUSH2 0x15D JUMPI DUP1 PUSH4 0xF96E32F8 EQ PUSH2 0x167 JUMPI DUP1 PUSH4 0xFABCE08F EQ PUSH2 0x19A JUMPI PUSH2 0x93 JUMP JUMPDEST DUP1 PUSH4 0x3D984D0E EQ PUSH2 0x98 JUMPI DUP1 PUSH4 0x6212FA02 EQ PUSH2 0xB4 JUMPI DUP1 PUSH4 0x72828388 EQ PUSH2 0xD2 JUMPI DUP1 PUSH4 0x8C241FC4 EQ PUSH2 0xEE JUMPI JUMPDEST PUSH1 0x0 DUP1 REVERT JUMPDEST PUSH2 0xB2 PUSH1 0x4 DUP1 CALLDATASIZE SUB DUP2 ADD SWAP1 PUSH2 0xAD SWAP2 SWAP1 PUSH2 0x1A27 JUMP JUMPDEST PUSH2 0x1A4 JUMP JUMPDEST STOP JUMPDEST PUSH2 0xBC PUSH2 0x328 JUMP JUMPDEST PUSH1 0x40 MLOAD PUSH2 0xC9 SWAP2 SWAP1 PUSH2 0x1FEB JUMP JUMPDEST PUSH1 0x40 MLOAD DUP1 SWAP2 SUB SWAP1 RETURN JUMPDEST PUSH2 0xEC PUSH1 0x4 DUP1 CALLDATASIZE SUB DUP2 ADD SWAP1 PUSH2 0xE7 SWAP2 SWAP1 PUSH2 0x1BA5 JUMP JUMPDEST PUSH2 0x374 JUMP JUMPDEST STOP JUMPDEST PUSH2 0x108 PUSH1 0x4 DUP1 CALLDATASIZE SUB DUP2 ADD SWAP1 PUSH2 0x103 SWAP2 SWAP1 PUSH2 0x1ACE JUMP JUMPDEST PUSH2 0x5CC JUMP JUMPDEST STOP JUMPDEST PUSH2 0x124 PUSH1 0x4 DUP1 CALLDATASIZE SUB DUP2 ADD SWAP1 PUSH2 0x11F SWAP2 SWAP1 PUSH2 0x1ACE JUMP JUMPDEST PUSH2 0x7F0 JUMP JUMPDEST STOP JUMPDEST PUSH2 0x140 PUSH1 0x4 DUP1 CALLDATASIZE SUB DUP2 ADD SWAP1 PUSH2 0x13B SWAP2 SWAP1 PUSH2 0x19FA JUMP JUMPDEST PUSH2 0x904 JUMP JUMPDEST PUSH1 0x40 MLOAD PUSH2 0x154 SWAP9 SWAP8 SWAP7 SWAP6 SWAP5 SWAP4 SWAP3 SWAP2 SWAP1 PUSH2 0x1EE2 JUMP JUMPDEST PUSH1 0x40 MLOAD DUP1 SWAP2 SUB SWAP1 RETURN JUMPDEST PUSH2 0x165 PUSH2 0x1105 JUMP JUMPDEST STOP JUMPDEST PUSH2 0x181 PUSH1 0x4 DUP1 CALLDATASIZE SUB DUP2 ADD SWAP1 PUSH2 0x17C SWAP2 SWAP1 PUSH2 0x1CAC JUMP JUMPDEST PUSH2 0x1154 JUMP JUMPDEST PUSH1 0x40 MLOAD PUSH2 0x191 SWAP5 SWAP4 SWAP3 SWAP2 SWAP1 PUSH2 0x1F8A JUMP JUMPDEST PUSH1 0x40 MLOAD DUP1 SWAP2 SUB SWAP1 RETURN JUMPDEST PUSH2 0x1A2 PUSH2 0x1529 JUMP JUMPDEST STOP JUMPDEST PUSH1 0x0 DUP1 CALLER PUSH20 0xFFFFFFFFFFFFFFFFFFFFFFFFFFFFFFFFFFFFFFFF AND PUSH20 0xFFFFFFFFFFFFFFFFFFFFFFFFFFFFFFFFFFFFFFFF AND DUP2 MSTORE PUSH1 0x20 ADD SWAP1 DUP2 MSTORE PUSH1 0x20 ADD PUSH1 0x0 KECCAK256 PUSH1 0xB ADD PUSH1 0x0 DUP1 DUP3 ADD PUSH1 0x0 PUSH2 0x1F6 SWAP2 SWAP1 PUSH2 0x1679 JUMP JUMPDEST PUSH1 0x1 DUP3 ADD PUSH1 0x0 PUSH2 0x206 SWAP2 SWAP1 PUSH2 0x1679 JUMP JUMPDEST PUSH1 0x2 DUP3 ADD PUSH1 0x0 PUSH2 0x216 SWAP2 SWAP1 PUSH2 0x1679 JUMP JUMPDEST POP POP DUP3 PUSH1 0x0 DUP1 CALLER PUSH20 0xFFFFFFFFFFFFFFFFFFFFFFFFFFFFFFFFFFFFFFFF AND PUSH20 0xFFFFFFFFFFFFFFFFFFFFFFFFFFFFFFFFFFFFFFFF AND DUP2 MSTORE PUSH1 0x20 ADD SWAP1 DUP2 MSTORE PUSH1 0x20 ADD PUSH1 0x0 KECCAK256 PUSH1 0xB ADD PUSH1 0x0 ADD SWAP1 DUP1 MLOAD SWAP1 PUSH1 0x20 ADD SWAP1 PUSH2 0x270 SWAP3 SWAP2 SWAP1 PUSH2 0x169A JUMP JUMPDEST POP DUP2 PUSH1 0x0 DUP1 CALLER PUSH20 0xFFFFFFFFFFFFFFFFFFFFFFFFFFFFFFFFFFFFFFFF AND PUSH20 0xFFFFFFFFFFFFFFFFFFFFFFFFFFFFFFFFFFFFFFFF AND DUP2 MSTORE PUSH1 0x20 ADD SWAP1 DUP2 MSTORE PUSH1 0x20 ADD PUSH1 0x0 KECCAK256 PUSH1 0xB ADD PUSH1 0x1 ADD SWAP1 DUP1 MLOAD SWAP1 PUSH1 0x20 ADD SWAP1 PUSH2 0x2C9 SWAP3 SWAP2 SWAP1 PUSH2 0x169A JUMP JUMPDEST POP DUP1 PUSH1 0x0 DUP1 CALLER PUSH20 0xFFFFFFFFFFFFFFFFFFFFFFFFFFFFFFFFFFFFFFFF AND PUSH20 0xFFFFFFFFFFFFFFFFFFFFFFFFFFFFFFFFFFFFFFFF AND DUP2 MSTORE PUSH1 0x20 ADD SWAP1 DUP2 MSTORE PUSH1 0x20 ADD PUSH1 0x0 KECCAK256 PUSH1 0xB ADD PUSH1 0x2 ADD SWAP1 DUP1 MLOAD SWAP1 PUSH1 0x20 ADD SWAP1 PUSH2 0x322 SWAP3 SWAP2 SWAP1 PUSH2 0x169A JUMP JUMPDEST POP POP POP POP JUMP JUMPDEST PUSH1 0x0 DUP1 PUSH1 0x0 CALLER PUSH20 0xFFFFFFFFFFFFFFFFFFFFFFFFFFFFFFFFFFFFFFFF AND PUSH20 0xFFFFFFFFFFFFFFFFFFFFFFFFFFFFFFFFFFFFFFFF AND DUP2 MSTORE PUSH1 0x20 ADD SWAP1 DUP2 MSTORE PUSH1 0x20 ADD PUSH1 0x0 KECCAK256 PUSH1 0xE ADD DUP1 SLOAD SWAP1 POP SWAP1 POP SWAP1 JUMP JUMPDEST PUSH1 0x0 DUP1 CALLER PUSH20 0xFFFFFFFFFFFFFFFFFFFFFFFFFFFFFFFFFFFFFFFF AND PUSH20 0xFFFFFFFFFFFFFFFFFFFFFFFFFFFFFFFFFFFFFFFF AND DUP2 MSTORE PUSH1 0x20 ADD SWAP1 DUP2 MSTORE PUSH1 0x20 ADD PUSH1 0x0 KECCAK256 PUSH1 0x6 ADD PUSH1 0x0 DUP1 DUP3 ADD PUSH1 0x0 PUSH2 0x3C6 SWAP2 SWAP1 PUSH2 0x16FA JUMP JUMPDEST PUSH1 0x1 DUP3 ADD PUSH1 0x0 PUSH2 0x3D6 SWAP2 SWAP1 PUSH2 0x16FA JUMP JUMPDEST PUSH1 0x2 DUP3 ADD PUSH1 0x0 PUSH2 0x3E6 SWAP2 SWAP1 PUSH2 0x16FA JUMP JUMPDEST PUSH1 0x3 DUP3 ADD PUSH1 0x0 PUSH2 0x3F6 SWAP2 SWAP1 PUSH2 0x16FA JUMP JUMPDEST PUSH1 0x4 DUP3 ADD PUSH1 0x0 PUSH2 0x406 SWAP2 SWAP1 PUSH2 0x16FA JUMP JUMPDEST POP POP DUP5 PUSH1 0x0 DUP1 CALLER PUSH20 0xFFFFFFFFFFFFFFFFFFFFFFFFFFFFFFFFFFFFFFFF AND PUSH20 0xFFFFFFFFFFFFFFFFFFFFFFFFFFFFFFFFFFFFFFFF AND DUP2 MSTORE PUSH1 0x20 ADD SWAP1 DUP2 MSTORE PUSH1 0x20 ADD PUSH1 0x0 KECCAK256 PUSH1 0x6 ADD PUSH1 0x0 ADD SWAP1 DUP1 MLOAD SWAP1 PUSH1 0x20 ADD SWAP1 PUSH2 0x460 SWAP3 SWAP2 SWAP1 PUSH2 0x173A JUMP JUMPDEST POP DUP4 PUSH1 0x0 DUP1 CALLER PUSH20 0xFFFFFFFFFFFFFFFFFFFFFFFFFFFFFFFFFFFFFFFF AND PUSH20 0xFFFFFFFFFFFFFFFFFFFFFFFFFFFFFFFFFFFFFFFF AND DUP2 MSTORE PUSH1 0x20 ADD SWAP1 DUP2 MSTORE PUSH1 0x20 ADD PUSH1 0x0 KECCAK256 PUSH1 0x6 ADD PUSH1 0x1 ADD SWAP1 DUP1 MLOAD SWAP1 PUSH1 0x20 ADD SWAP1 PUSH2 0x4B9 SWAP3 SWAP2 SWAP1 PUSH2 0x173A JUMP JUMPDEST POP DUP3 PUSH1 0x0 DUP1 CALLER PUSH20 0xFFFFFFFFFFFFFFFFFFFFFFFFFFFFFFFFFFFFFFFF AND PUSH20 0xFFFFFFFFFFFFFFFFFFFFFFFFFFFFFFFFFFFFFFFF AND DUP2 MSTORE PUSH1 0x20 ADD SWAP1 DUP2 MSTORE PUSH1 0x20 ADD PUSH1 0x0 KECCAK256 PUSH1 0x6 ADD PUSH1 0x0 ADD SWAP1 DUP1 MLOAD SWAP1 PUSH1 0x20 ADD SWAP1 PUSH2 0x512 SWAP3 SWAP2 SWAP1 PUSH2 0x173A JUMP JUMPDEST POP DUP2 PUSH1 0x0 DUP1 CALLER PUSH20 0xFFFFFFFFFFFFFFFFFFFFFFFFFFFFFFFFFFFFFFFF AND PUSH20 0xFFFFFFFFFFFFFFFFFFFFFFFFFFFFFFFFFFFFFFFF AND DUP2 MSTORE PUSH1 0x20 ADD SWAP1 DUP2 MSTORE PUSH1 0x20 ADD PUSH1 0x0 KECCAK256 PUSH1 0x6 ADD PUSH1 0x1 ADD SWAP1 DUP1 MLOAD SWAP1 PUSH1 0x20 ADD SWAP1 PUSH2 0x56B SWAP3 SWAP2 SWAP1 PUSH2 0x173A JUMP JUMPDEST POP DUP1 PUSH1 0x0 DUP1 CALLER PUSH20 0xFFFFFFFFFFFFFFFFFFFFFFFFFFFFFFFFFFFFFFFF AND PUSH20 0xFFFFFFFFFFFFFFFFFFFFFFFFFFFFFFFFFFFFFFFF AND DUP2 MSTORE PUSH1 0x20 ADD SWAP1 DUP2 MSTORE PUSH1 0x20 ADD PUSH1 0x0 KECCAK256 PUSH1 0x6 ADD PUSH1 0x0 ADD SWAP1 DUP1 MLOAD SWAP1 PUSH1 0x20 ADD SWAP1 PUSH2 0x5C4 SWAP3 SWAP2 SWAP1 PUSH2 0x173A JUMP JUMPDEST POP POP POP POP POP POP JUMP JUMPDEST DUP4 PUSH1 0x0 DUP1 CALLER PUSH20 0xFFFFFFFFFFFFFFFFFFFFFFFFFFFFFFFFFFFFFFFF AND PUSH20 0xFFFFFFFFFFFFFFFFFFFFFFFFFFFFFFFFFFFFFFFF AND DUP2 MSTORE PUSH1 0x20 ADD SWAP1 DUP2 MSTORE PUSH1 0x20 ADD PUSH1 0x0 KECCAK256 PUSH1 0x1 ADD SWAP1 DUP1 MLOAD SWAP1 PUSH1 0x20 ADD SWAP1 PUSH2 0x621 SWAP3 SWAP2 SWAP1 PUSH2 0x173A JUMP JUMPDEST POP DUP3 PUSH1 0x0 DUP1 CALLER PUSH20 0xFFFFFFFFFFFFFFFFFFFFFFFFFFFFFFFFFFFFFFFF AND PUSH20 0xFFFFFFFFFFFFFFFFFFFFFFFFFFFFFFFFFFFFFFFF AND DUP2 MSTORE PUSH1 0x20 ADD SWAP1 DUP2 MSTORE PUSH1 0x20 ADD PUSH1 0x0 KECCAK256 PUSH1 0x2 ADD SWAP1 DUP1 MLOAD SWAP1 PUSH1 0x20 ADD SWAP1 PUSH2 0x677 SWAP3 SWAP2 SWAP1 PUSH2 0x173A JUMP JUMPDEST POP DUP2 PUSH1 0x0 DUP1 CALLER PUSH20 0xFFFFFFFFFFFFFFFFFFFFFFFFFFFFFFFFFFFFFFFF AND PUSH20 0xFFFFFFFFFFFFFFFFFFFFFFFFFFFFFFFFFFFFFFFF AND DUP2 MSTORE PUSH1 0x20 ADD SWAP1 DUP2 MSTORE PUSH1 0x20 ADD PUSH1 0x0 KECCAK256 PUSH1 0x3 ADD SWAP1 DUP1 MLOAD SWAP1 PUSH1 0x20 ADD SWAP1 PUSH2 0x6CD SWAP3 SWAP2 SWAP1 PUSH2 0x173A JUMP JUMPDEST POP DUP1 PUSH1 0x0 DUP1 CALLER PUSH20 0xFFFFFFFFFFFFFFFFFFFFFFFFFFFFFFFFFFFFFFFF AND PUSH20 0xFFFFFFFFFFFFFFFFFFFFFFFFFFFFFFFFFFFFFFFF AND DUP2 MSTORE PUSH1 0x20 ADD SWAP1 DUP2 MSTORE PUSH1 0x20 ADD PUSH1 0x0 KECCAK256 PUSH1 0x4 ADD SWAP1 DUP1 MLOAD SWAP1 PUSH1 0x20 ADD SWAP1 PUSH2 0x723 SWAP3 SWAP2 SWAP1 PUSH2 0x173A JUMP JUMPDEST POP CALLER PUSH1 0x0 DUP1 CALLER PUSH20 0xFFFFFFFFFFFFFFFFFFFFFFFFFFFFFFFFFFFFFFFF AND PUSH20 0xFFFFFFFFFFFFFFFFFFFFFFFFFFFFFFFFFFFFFFFF AND DUP2 MSTORE PUSH1 0x20 ADD SWAP1 DUP2 MSTORE PUSH1 0x20 ADD PUSH1 0x0 KECCAK256 PUSH1 0x0 ADD PUSH1 0x0 PUSH2 0x100 EXP DUP2 SLOAD DUP2 PUSH20 0xFFFFFFFFFFFFFFFFFFFFFFFFFFFFFFFFFFFFFFFF MUL NOT AND SWAP1 DUP4 PUSH20 0xFFFFFFFFFFFFFFFFFFFFFFFFFFFFFFFFFFFFFFFF AND MUL OR SWAP1 SSTORE POP TIMESTAMP PUSH1 0x0 DUP1 CALLER PUSH20 0xFFFFFFFFFFFFFFFFFFFFFFFFFFFFFFFFFFFFFFFF AND PUSH20 0xFFFFFFFFFFFFFFFFFFFFFFFFFFFFFFFFFFFFFFFF AND DUP2 MSTORE PUSH1 0x20 ADD SWAP1 DUP2 MSTORE PUSH1 0x20 ADD PUSH1 0x0 KECCAK256 PUSH1 0x5 ADD DUP2 SWAP1 SSTORE POP POP POP POP POP JUMP JUMPDEST PUSH2 0x7F8 PUSH2 0x17C0 JUMP JUMPDEST DUP5 DUP2 PUSH1 0x0 ADD DUP2 SWAP1 MSTORE POP DUP4 DUP2 PUSH1 0x20 ADD DUP2 SWAP1 MSTORE POP DUP3 DUP2 PUSH1 0x40 ADD DUP2 SWAP1 MSTORE POP DUP2 DUP2 PUSH1 0x60 ADD DUP2 SWAP1 MSTORE POP PUSH1 0x0 DUP1 CALLER PUSH20 0xFFFFFFFFFFFFFFFFFFFFFFFFFFFFFFFFFFFFFFFF AND PUSH20 0xFFFFFFFFFFFFFFFFFFFFFFFFFFFFFFFFFFFFFFFF AND DUP2 MSTORE PUSH1 0x20 ADD SWAP1 DUP2 MSTORE PUSH1 0x20 ADD PUSH1 0x0 KECCAK256 PUSH1 0xE ADD DUP2 SWAP1 DUP1 PUSH1 0x1 DUP2 SLOAD ADD DUP1 DUP3 SSTORE DUP1 SWAP2 POP POP PUSH1 0x1 SWAP1 SUB SWAP1 PUSH1 0x0 MSTORE PUSH1 0x20 PUSH1 0x0 KECCAK256 SWAP1 PUSH1 0x4 MUL ADD PUSH1 0x0 SWAP1 SWAP2 SWAP1 SWAP2 SWAP1 SWAP2 POP PUSH1 0x0 DUP3 ADD MLOAD DUP2 PUSH1 0x0 ADD SWAP1 DUP1 MLOAD SWAP1 PUSH1 0x20 ADD SWAP1 PUSH2 0x8A3 SWAP3 SWAP2 SWAP1 PUSH2 0x173A JUMP JUMPDEST POP PUSH1 0x20 DUP3 ADD MLOAD DUP2 PUSH1 0x1 ADD SWAP1 DUP1 MLOAD SWAP1 PUSH1 0x20 ADD SWAP1 PUSH2 0x8C0 SWAP3 SWAP2 SWAP1 PUSH2 0x173A JUMP JUMPDEST POP PUSH1 0x40 DUP3 ADD MLOAD DUP2 PUSH1 0x2 ADD SWAP1 DUP1 MLOAD SWAP1 PUSH1 0x20 ADD SWAP1 PUSH2 0x8DD SWAP3 SWAP2 SWAP1 PUSH2 0x173A JUMP JUMPDEST POP PUSH1 0x60 DUP3 ADD MLOAD DUP2 PUSH1 0x3 ADD SWAP1 DUP1 MLOAD SWAP1 PUSH1 0x20 ADD SWAP1 PUSH2 0x8FA SWAP3 SWAP2 SWAP1 PUSH2 0x173A JUMP JUMPDEST POP POP POP POP POP POP POP POP JUMP JUMPDEST PUSH1 0x0 PUSH1 0x20 MSTORE DUP1 PUSH1 0x0 MSTORE PUSH1 0x40 PUSH1 0x0 KECCAK256 PUSH1 0x0 SWAP2 POP SWAP1 POP DUP1 PUSH1 0x0 ADD PUSH1 0x0 SWAP1 SLOAD SWAP1 PUSH2 0x100 EXP SWAP1 DIV PUSH20 0xFFFFFFFFFFFFFFFFFFFFFFFFFFFFFFFFFFFFFFFF AND SWAP1 DUP1 PUSH1 0x1 ADD DUP1 SLOAD PUSH2 0x94D SWAP1 PUSH2 0x216C JUMP JUMPDEST DUP1 PUSH1 0x1F ADD PUSH1 0x20 DUP1 SWAP2 DIV MUL PUSH1 0x20 ADD PUSH1 0x40 MLOAD SWAP1 DUP2 ADD PUSH1 0x40 MSTORE DUP1 SWAP3 SWAP2 SWAP1 DUP2 DUP2 MSTORE PUSH1 0x20 ADD DUP3 DUP1 SLOAD PUSH2 0x979 SWAP1 PUSH2 0x216C JUMP JUMPDEST DUP1 ISZERO PUSH2 0x9C6 JUMPI DUP1 PUSH1 0x1F LT PUSH2 0x99B JUMPI PUSH2 0x100 DUP1 DUP4 SLOAD DIV MUL DUP4 MSTORE SWAP2 PUSH1 0x20 ADD SWAP2 PUSH2 0x9C6 JUMP JUMPDEST DUP3 ADD SWAP2 SWAP1 PUSH1 0x0 MSTORE PUSH1 0x20 PUSH1 0x0 KECCAK256 SWAP1 JUMPDEST DUP2 SLOAD DUP2 MSTORE SWAP1 PUSH1 0x1 ADD SWAP1 PUSH1 0x20 ADD DUP1 DUP4 GT PUSH2 0x9A9 JUMPI DUP3 SWAP1 SUB PUSH1 0x1F AND DUP3 ADD SWAP2 JUMPDEST POP POP POP POP POP SWAP1 DUP1 PUSH1 0x2 ADD DUP1 SLOAD PUSH2 0x9DB SWAP1 PUSH2 0x216C JUMP JUMPDEST DUP1 PUSH1 0x1F ADD PUSH1 0x20 DUP1 SWAP2 DIV MUL PUSH1 0x20 ADD PUSH1 0x40 MLOAD SWAP1 DUP2 ADD PUSH1 0x40 MSTORE DUP1 SWAP3 SWAP2 SWAP1 DUP2 DUP2 MSTORE PUSH1 0x20 ADD DUP3 DUP1 SLOAD PUSH2 0xA07 SWAP1 PUSH2 0x216C JUMP JUMPDEST DUP1 ISZERO PUSH2 0xA54 JUMPI DUP1 PUSH1 0x1F LT PUSH2 0xA29 JUMPI PUSH2 0x100 DUP1 DUP4 SLOAD DIV MUL DUP4 MSTORE SWAP2 PUSH1 0x20 ADD SWAP2 PUSH2 0xA54 JUMP JUMPDEST DUP3 ADD SWAP2 SWAP1 PUSH1 0x0 MSTORE PUSH1 0x20 PUSH1 0x0 KECCAK256 SWAP1 JUMPDEST DUP2 SLOAD DUP2 MSTORE SWAP1 PUSH1 0x1 ADD SWAP1 PUSH1 0x20 ADD DUP1 DUP4 GT PUSH2 0xA37 JUMPI DUP3 SWAP1 SUB PUSH1 0x1F AND DUP3 ADD SWAP2 JUMPDEST POP POP POP POP POP SWAP1 DUP1 PUSH1 0x3 ADD DUP1 SLOAD PUSH2 0xA69 SWAP1 PUSH2 0x216C JUMP JUMPDEST DUP1 PUSH1 0x1F ADD PUSH1 0x20 DUP1 SWAP2 DIV MUL PUSH1 0x20 ADD PUSH1 0x40 MLOAD SWAP1 DUP2 ADD PUSH1 0x40 MSTORE DUP1 SWAP3 SWAP2 SWAP1 DUP2 DUP2 MSTORE PUSH1 0x20 ADD DUP3 DUP1 SLOAD PUSH2 0xA95 SWAP1 PUSH2 0x216C JUMP JUMPDEST DUP1 ISZERO PUSH2 0xAE2 JUMPI DUP1 PUSH1 0x1F LT PUSH2 0xAB7 JUMPI PUSH2 0x100 DUP1 DUP4 SLOAD DIV MUL DUP4 MSTORE SWAP2 PUSH1 0x20 ADD SWAP2 PUSH2 0xAE2 JUMP JUMPDEST DUP3 ADD SWAP2 SWAP1 PUSH1 0x0 MSTORE PUSH1 0x20 PUSH1 0x0 KECCAK256 SWAP1 JUMPDEST DUP2 SLOAD DUP2 MSTORE SWAP1 PUSH1 0x1 ADD SWAP1 PUSH1 0x20 ADD DUP1 DUP4 GT PUSH2 0xAC5 JUMPI DUP3 SWAP1 SUB PUSH1 0x1F AND DUP3 ADD SWAP2 JUMPDEST POP POP POP POP POP SWAP1 DUP1 PUSH1 0x4 ADD DUP1 SLOAD PUSH2 0xAF7 SWAP1 PUSH2 0x216C JUMP JUMPDEST DUP1 PUSH1 0x1F ADD PUSH1 0x20 DUP1 SWAP2 DIV MUL PUSH1 0x20 ADD PUSH1 0x40 MLOAD SWAP1 DUP2 ADD PUSH1 0x40 MSTORE DUP1 SWAP3 SWAP2 SWAP1 DUP2 DUP2 MSTORE PUSH1 0x20 ADD DUP3 DUP1 SLOAD PUSH2 0xB23 SWAP1 PUSH2 0x216C JUMP JUMPDEST DUP1 ISZERO PUSH2 0xB70 JUMPI DUP1 PUSH1 0x1F LT PUSH2 0xB45 JUMPI PUSH2 0x100 DUP1 DUP4 SLOAD DIV MUL DUP4 MSTORE SWAP2 PUSH1 0x20 ADD SWAP2 PUSH2 0xB70 JUMP JUMPDEST DUP3 ADD SWAP2 SWAP1 PUSH1 0x0 MSTORE PUSH1 0x20 PUSH1 0x0 KECCAK256 SWAP1 JUMPDEST DUP2 SLOAD DUP2 MSTORE SWAP1 PUSH1 0x1 ADD SWAP1 PUSH1 0x20 ADD DUP1 DUP4 GT PUSH2 0xB53 JUMPI DUP3 SWAP1 SUB PUSH1 0x1F AND DUP3 ADD SWAP2 JUMPDEST POP POP POP POP POP SWAP1 DUP1 PUSH1 0x5 ADD SLOAD SWAP1 DUP1 PUSH1 0x6 ADD PUSH1 0x40 MLOAD DUP1 PUSH1 0xA0 ADD PUSH1 0x40 MSTORE SWAP1 DUP2 PUSH1 0x0 DUP3 ADD DUP1 SLOAD PUSH2 0xB9B SWAP1 PUSH2 0x216C JUMP JUMPDEST DUP1 PUSH1 0x1F ADD PUSH1 0x20 DUP1 SWAP2 DIV MUL PUSH1 0x20 ADD PUSH1 0x40 MLOAD SWAP1 DUP2 ADD PUSH1 0x40 MSTORE DUP1 SWAP3 SWAP2 SWAP1 DUP2 DUP2 MSTORE PUSH1 0x20 ADD DUP3 DUP1 SLOAD PUSH2 0xBC7 SWAP1 PUSH2 0x216C JUMP JUMPDEST DUP1 ISZERO PUSH2 0xC14 JUMPI DUP1 PUSH1 0x1F LT PUSH2 0xBE9 JUMPI PUSH2 0x100 DUP1 DUP4 SLOAD DIV MUL DUP4 MSTORE SWAP2 PUSH1 0x20 ADD SWAP2 PUSH2 0xC14 JUMP JUMPDEST DUP3 ADD SWAP2 SWAP1 PUSH1 0x0 MSTORE PUSH1 0x20 PUSH1 0x0 KECCAK256 SWAP1 JUMPDEST DUP2 SLOAD DUP2 MSTORE SWAP1 PUSH1 0x1 ADD SWAP1 PUSH1 0x20 ADD DUP1 DUP4 GT PUSH2 0xBF7 JUMPI DUP3 SWAP1 SUB PUSH1 0x1F AND DUP3 ADD SWAP2 JUMPDEST POP POP POP POP POP DUP2 MSTORE PUSH1 0x20 ADD PUSH1 0x1 DUP3 ADD DUP1 SLOAD PUSH2 0xC2D SWAP1 PUSH2 0x216C JUMP JUMPDEST DUP1 PUSH1 0x1F ADD PUSH1 0x20 DUP1 SWAP2 DIV MUL PUSH1 0x20 ADD PUSH1 0x40 MLOAD SWAP1 DUP2 ADD PUSH1 0x40 MSTORE DUP1 SWAP3 SWAP2 SWAP1 DUP2 DUP2 MSTORE PUSH1 0x20 ADD DUP3 DUP1 SLOAD PUSH2 0xC59 SWAP1 PUSH2 0x216C JUMP JUMPDEST DUP1 ISZERO PUSH2 0xCA6 JUMPI DUP1 PUSH1 0x1F LT PUSH2 0xC7B JUMPI PUSH2 0x100 DUP1 DUP4 SLOAD DIV MUL DUP4 MSTORE SWAP2 PUSH1 0x20 ADD SWAP2 PUSH2 0xCA6 JUMP JUMPDEST DUP3 ADD SWAP2 SWAP1 PUSH1 0x0 MSTORE PUSH1 0x20 PUSH1 0x0 KECCAK256 SWAP1 JUMPDEST DUP2 SLOAD DUP2 MSTORE SWAP1 PUSH1 0x1 ADD SWAP1 PUSH1 0x20 ADD DUP1 DUP4 GT PUSH2 0xC89 JUMPI DUP3 SWAP1 SUB PUSH1 0x1F AND DUP3 ADD SWAP2 JUMPDEST POP POP POP POP POP DUP2 MSTORE PUSH1 0x20 ADD PUSH1 0x2 DUP3 ADD DUP1 SLOAD PUSH2 0xCBF SWAP1 PUSH2 0x216C JUMP JUMPDEST DUP1 PUSH1 0x1F ADD PUSH1 0x20 DUP1 SWAP2 DIV MUL PUSH1 0x20 ADD PUSH1 0x40 MLOAD SWAP1 DUP2 ADD PUSH1 0x40 MSTORE DUP1 SWAP3 SWAP2 SWAP1 DUP2 DUP2 MSTORE PUSH1 0x20 ADD DUP3 DUP1 SLOAD PUSH2 0xCEB SWAP1 PUSH2 0x216C JUMP JUMPDEST DUP1 ISZERO PUSH2 0xD38 JUMPI DUP1 PUSH1 0x1F LT PUSH2 0xD0D JUMPI PUSH2 0x100 DUP1 DUP4 SLOAD DIV MUL DUP4 MSTORE SWAP2 PUSH1 0x20 ADD SWAP2 PUSH2 0xD38 JUMP JUMPDEST DUP3 ADD SWAP2 SWAP1 PUSH1 0x0 MSTORE PUSH1 0x20 PUSH1 0x0 KECCAK256 SWAP1 JUMPDEST DUP2 SLOAD DUP2 MSTORE SWAP1 PUSH1 0x1 ADD SWAP1 PUSH1 0x20 ADD DUP1 DUP4 GT PUSH2 0xD1B JUMPI DUP3 SWAP1 SUB PUSH1 0x1F AND DUP3 ADD SWAP2 JUMPDEST POP POP POP POP POP DUP2 MSTORE PUSH1 0x20 ADD PUSH1 0x3 DUP3 ADD DUP1 SLOAD PUSH2 0xD51 SWAP1 PUSH2 0x216C JUMP JUMPDEST DUP1 PUSH1 0x1F ADD PUSH1 0x20 DUP1 SWAP2 DIV MUL PUSH1 0x20 ADD PUSH1 0x40 MLOAD SWAP1 DUP2 ADD PUSH1 0x40 MSTORE DUP1 SWAP3 SWAP2 SWAP1 DUP2 DUP2 MSTORE PUSH1 0x20 ADD DUP3 DUP1 SLOAD PUSH2 0xD7D SWAP1 PUSH2 0x216C JUMP JUMPDEST DUP1 ISZERO PUSH2 0xDCA JUMPI DUP1 PUSH1 0x1F LT PUSH2 0xD9F JUMPI PUSH2 0x100 DUP1 DUP4 SLOAD DIV MUL DUP4 MSTORE SWAP2 PUSH1 0x20 ADD SWAP2 PUSH2 0xDCA JUMP JUMPDEST DUP3 ADD SWAP2 SWAP1 PUSH1 0x0 MSTORE PUSH1 0x20 PUSH1 0x0 KECCAK256 SWAP1 JUMPDEST DUP2 SLOAD DUP2 MSTORE SWAP1 PUSH1 0x1 ADD SWAP1 PUSH1 0x20 ADD DUP1 DUP4 GT PUSH2 0xDAD JUMPI DUP3 SWAP1 SUB PUSH1 0x1F AND DUP3 ADD SWAP2 JUMPDEST POP POP POP POP POP DUP2 MSTORE PUSH1 0x20 ADD PUSH1 0x4 DUP3 ADD DUP1 SLOAD PUSH2 0xDE3 SWAP1 PUSH2 0x216C JUMP JUMPDEST DUP1 PUSH1 0x1F ADD PUSH1 0x20 DUP1 SWAP2 DIV MUL PUSH1 0x20 ADD PUSH1 0x40 MLOAD SWAP1 DUP2 ADD PUSH1 0x40 MSTORE DUP1 SWAP3 SWAP2 SWAP1 DUP2 DUP2 MSTORE PUSH1 0x20 ADD DUP3 DUP1 SLOAD PUSH2 0xE0F SWAP1 PUSH2 0x216C JUMP JUMPDEST DUP1 ISZERO PUSH2 0xE5C JUMPI DUP1 PUSH1 0x1F LT PUSH2 0xE31 JUMPI PUSH2 0x100 DUP1 DUP4 SLOAD DIV MUL DUP4 MSTORE SWAP2 PUSH1 0x20 ADD SWAP2 PUSH2 0xE5C JUMP JUMPDEST DUP3 ADD SWAP2 SWAP1 PUSH1 0x0 MSTORE PUSH1 0x20 PUSH1 0x0 KECCAK256 SWAP1 JUMPDEST DUP2 SLOAD DUP2 MSTORE SWAP1 PUSH1 0x1 ADD SWAP1 PUSH1 0x20 ADD DUP1 DUP4 GT PUSH2 0xE3F JUMPI DUP3 SWAP1 SUB PUSH1 0x1F AND DUP3 ADD SWAP2 JUMPDEST POP POP POP POP POP DUP2 MSTORE POP POP SWAP1 DUP1 PUSH1 0xB ADD PUSH1 0x40 MLOAD DUP1 PUSH1 0x60 ADD PUSH1 0x40 MSTORE SWAP1 DUP2 PUSH1 0x0 DUP3 ADD DUP1 SLOAD DUP1 PUSH1 0x20 MUL PUSH1 0x20 ADD PUSH1 0x40 MLOAD SWAP1 DUP2 ADD PUSH1 0x40 MSTORE DUP1 SWAP3 SWAP2 SWAP1 DUP2 DUP2 MSTORE PUSH1 0x20 ADD PUSH1 0x0 SWAP1 JUMPDEST DUP3 DUP3 LT ISZERO PUSH2 0xF46 JUMPI DUP4 DUP3 SWAP1 PUSH1 0x0 MSTORE PUSH1 0x20 PUSH1 0x0 KECCAK256 ADD DUP1 SLOAD PUSH2 0xEB9 SWAP1 PUSH2 0x216C JUMP JUMPDEST DUP1 PUSH1 0x1F ADD PUSH1 0x20 DUP1 SWAP2 DIV MUL PUSH1 0x20 ADD PUSH1 0x40 MLOAD SWAP1 DUP2 ADD PUSH1 0x40 MSTORE DUP1 SWAP3 SWAP2 SWAP1 DUP2 DUP2 MSTORE PUSH1 0x20 ADD DUP3 DUP1 SLOAD PUSH2 0xEE5 SWAP1 PUSH2 0x216C JUMP JUMPDEST DUP1 ISZERO PUSH2 0xF32 JUMPI DUP1 PUSH1 0x1F LT PUSH2 0xF07 JUMPI PUSH2 0x100 DUP1 DUP4 SLOAD DIV MUL DUP4 MSTORE SWAP2 PUSH1 0x20 ADD SWAP2 PUSH2 0xF32 JUMP JUMPDEST DUP3 ADD SWAP2 SWAP1 PUSH1 0x0 MSTORE PUSH1 0x20 PUSH1 0x0 KECCAK256 SWAP1 JUMPDEST DUP2 SLOAD DUP2 MSTORE SWAP1 PUSH1 0x1 ADD SWAP1 PUSH1 0x20 ADD DUP1 DUP4 GT PUSH2 0xF15 JUMPI DUP3 SWAP1 SUB PUSH1 0x1F AND DUP3 ADD SWAP2 JUMPDEST POP POP POP POP POP DUP2 MSTORE PUSH1 0x20 ADD SWAP1 PUSH1 0x1 ADD SWAP1 PUSH2 0xE9A JUMP JUMPDEST POP POP POP POP DUP2 MSTORE PUSH1 0x20 ADD PUSH1 0x1 DUP3 ADD DUP1 SLOAD DUP1 PUSH1 0x20 MUL PUSH1 0x20 ADD PUSH1 0x40 MLOAD SWAP1 DUP2 ADD PUSH1 0x40 MSTORE DUP1 SWAP3 SWAP2 SWAP1 DUP2 DUP2 MSTORE PUSH1 0x20 ADD PUSH1 0x0 SWAP1 JUMPDEST DUP3 DUP3 LT ISZERO PUSH2 0x101F JUMPI DUP4 DUP3 SWAP1 PUSH1 0x0 MSTORE PUSH1 0x20 PUSH1 0x0 KECCAK256 ADD DUP1 SLOAD PUSH2 0xF92 SWAP1 PUSH2 0x216C JUMP JUMPDEST DUP1 PUSH1 0x1F ADD PUSH1 0x20 DUP1 SWAP2 DIV MUL PUSH1 0x20 ADD PUSH1 0x40 MLOAD SWAP1 DUP2 ADD PUSH1 0x40 MSTORE DUP1 SWAP3 SWAP2 SWAP1 DUP2 DUP2 MSTORE PUSH1 0x20 ADD DUP3 DUP1 SLOAD PUSH2 0xFBE SWAP1 PUSH2 0x216C JUMP JUMPDEST DUP1 ISZERO PUSH2 0x100B JUMPI DUP1 PUSH1 0x1F LT PUSH2 0xFE0 JUMPI PUSH2 0x100 DUP1 DUP4 SLOAD DIV MUL DUP4 MSTORE SWAP2 PUSH1 0x20 ADD SWAP2 PUSH2 0x100B JUMP JUMPDEST DUP3 ADD SWAP2 SWAP1 PUSH1 0x0 MSTORE PUSH1 0x20 PUSH1 0x0 KECCAK256 SWAP1 JUMPDEST DUP2 SLOAD DUP2 MSTORE SWAP1 PUSH1 0x1 ADD SWAP1 PUSH1 0x20 ADD DUP1 DUP4 GT PUSH2 0xFEE JUMPI DUP3 SWAP1 SUB PUSH1 0x1F AND DUP3 ADD SWAP2 JUMPDEST POP POP POP POP POP DUP2 MSTORE PUSH1 0x20 ADD SWAP1 PUSH1 0x1 ADD SWAP1 PUSH2 0xF73 JUMP JUMPDEST POP POP POP POP DUP2 MSTORE PUSH1 0x20 ADD PUSH1 0x2 DUP3 ADD DUP1 SLOAD DUP1 PUSH1 0x20 MUL PUSH1 0x20 ADD PUSH1 0x40 MLOAD SWAP1 DUP2 ADD PUSH1 0x40 MSTORE DUP1 SWAP3 SWAP2 SWAP1 DUP2 DUP2 MSTORE PUSH1 0x20 ADD PUSH1 0x0 SWAP1 JUMPDEST DUP3 DUP3 LT ISZERO PUSH2 0x10F8 JUMPI DUP4 DUP3 SWAP1 PUSH1 0x0 MSTORE PUSH1 0x20 PUSH1 0x0 KECCAK256 ADD DUP1 SLOAD PUSH2 0x106B SWAP1 PUSH2 0x216C JUMP JUMPDEST DUP1 PUSH1 0x1F ADD PUSH1 0x20 DUP1 SWAP2 DIV MUL PUSH1 0x20 ADD PUSH1 0x40 MLOAD SWAP1 DUP2 ADD PUSH1 0x40 MSTORE DUP1 SWAP3 SWAP2 SWAP1 DUP2 DUP2 MSTORE PUSH1 0x20 ADD DUP3 DUP1 SLOAD PUSH2 0x1097 SWAP1 PUSH2 0x216C JUMP JUMPDEST DUP1 ISZERO PUSH2 0x10E4 JUMPI DUP1 PUSH1 0x1F LT PUSH2 0x10B9 JUMPI PUSH2 0x100 DUP1 DUP4 SLOAD DIV MUL DUP4 MSTORE SWAP2 PUSH1 0x20 ADD SWAP2 PUSH2 0x10E4 JUMP JUMPDEST DUP3 ADD SWAP2 SWAP1 PUSH1 0x0 MSTORE PUSH1 0x20 PUSH1 0x0 KECCAK256 SWAP1 JUMPDEST DUP2 SLOAD DUP2 MSTORE SWAP1 PUSH1 0x1 ADD SWAP1 PUSH1 0x20 ADD DUP1 DUP4 GT PUSH2 0x10C7 JUMPI DUP3 SWAP1 SUB PUSH1 0x1F AND DUP3 ADD SWAP2 JUMPDEST POP POP POP POP POP DUP2 MSTORE PUSH1 0x20 ADD SWAP1 PUSH1 0x1 ADD SWAP1 PUSH2 0x104C JUMP JUMPDEST POP POP POP POP DUP2 MSTORE POP POP SWAP1 POP DUP9 JUMP JUMPDEST PUSH1 0x0 DUP1 CALLER PUSH20 0xFFFFFFFFFFFFFFFFFFFFFFFFFFFFFFFFFFFFFFFF AND PUSH20 0xFFFFFFFFFFFFFFFFFFFFFFFFFFFFFFFFFFFFFFFF AND DUP2 MSTORE PUSH1 0x20 ADD SWAP1 DUP2 MSTORE PUSH1 0x20 ADD PUSH1 0x0 KECCAK256 PUSH1 0xE ADD PUSH1 0x0 PUSH2 0x1152 SWAP2 SWAP1 PUSH2 0x17E8 JUMP JUMPDEST JUMP JUMPDEST PUSH1 0x60 DUP1 PUSH1 0x60 DUP1 PUSH1 0x0 DUP1 CALLER PUSH20 0xFFFFFFFFFFFFFFFFFFFFFFFFFFFFFFFFFFFFFFFF AND PUSH20 0xFFFFFFFFFFFFFFFFFFFFFFFFFFFFFFFFFFFFFFFF AND DUP2 MSTORE PUSH1 0x20 ADD SWAP1 DUP2 MSTORE PUSH1 0x20 ADD PUSH1 0x0 KECCAK256 PUSH1 0xE ADD DUP6 DUP2 SLOAD DUP2 LT PUSH2 0x11AD JUMPI PUSH2 0x11AC PUSH2 0x21FE JUMP JUMPDEST JUMPDEST SWAP1 PUSH1 0x0 MSTORE PUSH1 0x20 PUSH1 0x0 KECCAK256 SWAP1 PUSH1 0x4 MUL ADD PUSH1 0x0 ADD PUSH1 0x0 DUP1 CALLER PUSH20 0xFFFFFFFFFFFFFFFFFFFFFFFFFFFFFFFFFFFFFFFF AND PUSH20 0xFFFFFFFFFFFFFFFFFFFFFFFFFFFFFFFFFFFFFFFF AND DUP2 MSTORE PUSH1 0x20 ADD SWAP1 DUP2 MSTORE PUSH1 0x20 ADD PUSH1 0x0 KECCAK256 PUSH1 0xE ADD DUP7 DUP2 SLOAD DUP2 LT PUSH2 0x1211 JUMPI PUSH2 0x1210 PUSH2 0x21FE JUMP JUMPDEST JUMPDEST SWAP1 PUSH1 0x0 MSTORE PUSH1 0x20 PUSH1 0x0 KECCAK256 SWAP1 PUSH1 0x4 MUL ADD PUSH1 0x1 ADD PUSH1 0x0 DUP1 CALLER PUSH20 0xFFFFFFFFFFFFFFFFFFFFFFFFFFFFFFFFFFFFFFFF AND PUSH20 0xFFFFFFFFFFFFFFFFFFFFFFFFFFFFFFFFFFFFFFFF AND DUP2 MSTORE PUSH1 0x20 ADD SWAP1 DUP2 MSTORE PUSH1 0x20 ADD PUSH1 0x0 KECCAK256 PUSH1 0xE ADD DUP8 DUP2 SLOAD DUP2 LT PUSH2 0x1275 JUMPI PUSH2 0x1274 PUSH2 0x21FE JUMP JUMPDEST JUMPDEST SWAP1 PUSH1 0x0 MSTORE PUSH1 0x20 PUSH1 0x0 KECCAK256 SWAP1 PUSH1 0x4 MUL ADD PUSH1 0x2 ADD PUSH1 0x0 DUP1 CALLER PUSH20 0xFFFFFFFFFFFFFFFFFFFFFFFFFFFFFFFFFFFFFFFF AND PUSH20 0xFFFFFFFFFFFFFFFFFFFFFFFFFFFFFFFFFFFFFFFF AND DUP2 MSTORE PUSH1 0x20 ADD SWAP1 DUP2 MSTORE PUSH1 0x20 ADD PUSH1 0x0 KECCAK256 PUSH1 0xE ADD DUP9 DUP2 SLOAD DUP2 LT PUSH2 0x12D9 JUMPI PUSH2 0x12D8 PUSH2 0x21FE JUMP JUMPDEST JUMPDEST SWAP1 PUSH1 0x0 MSTORE PUSH1 0x20 PUSH1 0x0 KECCAK256 SWAP1 PUSH1 0x4 MUL ADD PUSH1 0x3 ADD DUP4 DUP1 SLOAD PUSH2 0x12F6 SWAP1 PUSH2 0x216C JUMP JUMPDEST DUP1 PUSH1 0x1F ADD PUSH1 0x20 DUP1 SWAP2 DIV MUL PUSH1 0x20 ADD PUSH1 0x40 MLOAD SWAP1 DUP2 ADD PUSH1 0x40 MSTORE DUP1 SWAP3 SWAP2 SWAP1 DUP2 DUP2 MSTORE PUSH1 0x20 ADD DUP3 DUP1 SLOAD PUSH2 0x1322 SWAP1 PUSH2 0x216C JUMP JUMPDEST DUP1 ISZERO PUSH2 0x136F JUMPI DUP1 PUSH1 0x1F LT PUSH2 0x1344 JUMPI PUSH2 0x100 DUP1 DUP4 SLOAD DIV MUL DUP4 MSTORE SWAP2 PUSH1 0x20 ADD SWAP2 PUSH2 0x136F JUMP JUMPDEST DUP3 ADD SWAP2 SWAP1 PUSH1 0x0 MSTORE PUSH1 0x20 PUSH1 0x0 KECCAK256 SWAP1 JUMPDEST DUP2 SLOAD DUP2 MSTORE SWAP1 PUSH1 0x1 ADD SWAP1 PUSH1 0x20 ADD DUP1 DUP4 GT PUSH2 0x1352 JUMPI DUP3 SWAP1 SUB PUSH1 0x1F AND DUP3 ADD SWAP2 JUMPDEST POP POP POP POP POP SWAP4 POP DUP3 DUP1 SLOAD PUSH2 0x1382 SWAP1 PUSH2 0x216C JUMP JUMPDEST DUP1 PUSH1 0x1F ADD PUSH1 0x20 DUP1 SWAP2 DIV MUL PUSH1 0x20 ADD PUSH1 0x40 MLOAD SWAP1 DUP2 ADD PUSH1 0x40 MSTORE DUP1 SWAP3 SWAP2 SWAP1 DUP2 DUP2 MSTORE PUSH1 0x20 ADD DUP3 DUP1 SLOAD PUSH2 0x13AE SWAP1 PUSH2 0x216C JUMP JUMPDEST DUP1 ISZERO PUSH2 0x13FB JUMPI DUP1 PUSH1 0x1F LT PUSH2 0x13D0 JUMPI PUSH2 0x100 DUP1 DUP4 SLOAD DIV MUL DUP4 MSTORE SWAP2 PUSH1 0x20 ADD SWAP2 PUSH2 0x13FB JUMP JUMPDEST DUP3 ADD SWAP2 SWAP1 PUSH1 0x0 MSTORE PUSH1 0x20 PUSH1 0x0 KECCAK256 SWAP1 JUMPDEST DUP2 SLOAD DUP2 MSTORE SWAP1 PUSH1 0x1 ADD SWAP1 PUSH1 0x20 ADD DUP1 DUP4 GT PUSH2 0x13DE JUMPI DUP3 SWAP1 SUB PUSH1 0x1F AND DUP3 ADD SWAP2 JUMPDEST POP POP POP POP POP SWAP3 POP DUP2 DUP1 SLOAD PUSH2 0x140E SWAP1 PUSH2 0x216C JUMP JUMPDEST DUP1 PUSH1 0x1F ADD PUSH1 0x20 DUP1 SWAP2 DIV MUL PUSH1 0x20 ADD PUSH1 0x40 MLOAD SWAP1 DUP2 ADD PUSH1 0x40 MSTORE DUP1 SWAP3 SWAP2 SWAP1 DUP2 DUP2 MSTORE PUSH1 0x20 ADD DUP3 DUP1 SLOAD PUSH2 0x143A SWAP1 PUSH2 0x216C JUMP JUMPDEST DUP1 ISZERO PUSH2 0x1487 JUMPI DUP1 PUSH1 0x1F LT PUSH2 0x145C JUMPI PUSH2 0x100 DUP1 DUP4 SLOAD DIV MUL DUP4 MSTORE SWAP2 PUSH1 0x20 ADD SWAP2 PUSH2 0x1487 JUMP JUMPDEST DUP3 ADD SWAP2 SWAP1 PUSH1 0x0 MSTORE PUSH1 0x20 PUSH1 0x0 KECCAK256 SWAP1 JUMPDEST DUP2 SLOAD DUP2 MSTORE SWAP1 PUSH1 0x1 ADD SWAP1 PUSH1 0x20 ADD DUP1 DUP4 GT PUSH2 0x146A JUMPI DUP3 SWAP1 SUB PUSH1 0x1F AND DUP3 ADD SWAP2 JUMPDEST POP POP POP POP POP SWAP2 POP DUP1 DUP1 SLOAD PUSH2 0x149A SWAP1 PUSH2 0x216C JUMP JUMPDEST DUP1 PUSH1 0x1F ADD PUSH1 0x20 DUP1 SWAP2 DIV MUL PUSH1 0x20 ADD PUSH1 0x40 MLOAD SWAP1 DUP2 ADD PUSH1 0x40 MSTORE DUP1 SWAP3 SWAP2 SWAP1 DUP2 DUP2 MSTORE PUSH1 0x20 ADD DUP3 DUP1 SLOAD PUSH2 0x14C6 SWAP1 PUSH2 0x216C JUMP JUMPDEST DUP1 ISZERO PUSH2 0x1513 JUMPI DUP1 PUSH1 0x1F LT PUSH2 0x14E8 JUMPI PUSH2 0x100 DUP1 DUP4 SLOAD DIV MUL DUP4 MSTORE SWAP2 PUSH1 0x20 ADD SWAP2 PUSH2 0x1513 JUMP JUMPDEST DUP3 ADD SWAP2 SWAP1 PUSH1 0x0 MSTORE PUSH1 0x20 PUSH1 0x0 KECCAK256 SWAP1 JUMPDEST DUP2 SLOAD DUP2 MSTORE SWAP1 PUSH1 0x1 ADD SWAP1 PUSH1 0x20 ADD DUP1 DUP4 GT PUSH2 0x14F6 JUMPI DUP3 SWAP1 SUB PUSH1 0x1F AND DUP3 ADD SWAP2 JUMPDEST POP POP POP POP POP SWAP1 POP SWAP4 POP SWAP4 POP SWAP4 POP SWAP4 POP SWAP2 SWAP4 POP SWAP2 SWAP4 JUMP JUMPDEST PUSH1 0x0 DUP1 CALLER PUSH20 0xFFFFFFFFFFFFFFFFFFFFFFFFFFFFFFFFFFFFFFFF AND PUSH20 0xFFFFFFFFFFFFFFFFFFFFFFFFFFFFFFFFFFFFFFFF AND DUP2 MSTORE PUSH1 0x20 ADD SWAP1 DUP2 MSTORE PUSH1 0x20 ADD PUSH1 0x0 KECCAK256 PUSH1 0x0 DUP1 DUP3 ADD PUSH1 0x0 PUSH2 0x100 EXP DUP2 SLOAD SWAP1 PUSH20 0xFFFFFFFFFFFFFFFFFFFFFFFFFFFFFFFFFFFFFFFF MUL NOT AND SWAP1 SSTORE PUSH1 0x1 DUP3 ADD PUSH1 0x0 PUSH2 0x159F SWAP2 SWAP1 PUSH2 0x16FA JUMP JUMPDEST PUSH1 0x2 DUP3 ADD PUSH1 0x0 PUSH2 0x15AF SWAP2 SWAP1 PUSH2 0x16FA JUMP JUMPDEST PUSH1 0x3 DUP3 ADD PUSH1 0x0 PUSH2 0x15BF SWAP2 SWAP1 PUSH2 0x16FA JUMP JUMPDEST PUSH1 0x4 DUP3 ADD PUSH1 0x0 PUSH2 0x15CF SWAP2 SWAP1 PUSH2 0x16FA JUMP JUMPDEST PUSH1 0x5 DUP3 ADD PUSH1 0x0 SWAP1 SSTORE PUSH1 0x6 DUP3 ADD PUSH1 0x0 DUP1 DUP3 ADD PUSH1 0x0 PUSH2 0x15EC SWAP2 SWAP1 PUSH2 0x16FA JUMP JUMPDEST PUSH1 0x1 DUP3 ADD PUSH1 0x0 PUSH2 0x15FC SWAP2 SWAP1 PUSH2 0x16FA JUMP JUMPDEST PUSH1 0x2 DUP3 ADD PUSH1 0x0 PUSH2 0x160C SWAP2 SWAP1 PUSH2 0x16FA JUMP JUMPDEST PUSH1 0x3 DUP3 ADD PUSH1 0x0 PUSH2 0x161C SWAP2 SWAP1 PUSH2 0x16FA JUMP JUMPDEST PUSH1 0x4 DUP3 ADD PUSH1 0x0 PUSH2 0x162C SWAP2 SWAP1 PUSH2 0x16FA JUMP JUMPDEST POP POP PUSH1 0xB DUP3 ADD PUSH1 0x0 DUP1 DUP3 ADD PUSH1 0x0 PUSH2 0x1643 SWAP2 SWAP1 PUSH2 0x1679 JUMP JUMPDEST PUSH1 0x1 DUP3 ADD PUSH1 0x0 PUSH2 0x1653 SWAP2 SWAP1 PUSH2 0x1679 JUMP JUMPDEST PUSH1 0x2 DUP3 ADD PUSH1 0x0 PUSH2 0x1663 SWAP2 SWAP1 PUSH2 0x1679 JUMP JUMPDEST POP POP PUSH1 0xE DUP3 ADD PUSH1 0x0 PUSH2 0x1675 SWAP2 SWAP1 PUSH2 0x17E8 JUMP JUMPDEST POP POP JUMP JUMPDEST POP DUP1 SLOAD PUSH1 0x0 DUP3 SSTORE SWAP1 PUSH1 0x0 MSTORE PUSH1 0x20 PUSH1 0x0 KECCAK256 SWAP1 DUP2 ADD SWAP1 PUSH2 0x1697 SWAP2 SWAP1 PUSH2 0x180C JUMP JUMPDEST POP JUMP JUMPDEST DUP3 DUP1 SLOAD DUP3 DUP3 SSTORE SWAP1 PUSH1 0x0 MSTORE PUSH1 0x20 PUSH1 0x0 KECCAK256 SWAP1 DUP2 ADD SWAP3 DUP3 ISZERO PUSH2 0x16E9 JUMPI SWAP2 PUSH1 0x20 MUL DUP3 ADD JUMPDEST DUP3 DUP2 GT ISZERO PUSH2 0x16E8 JUMPI DUP3 MLOAD DUP3 SWAP1 DUP1 MLOAD SWAP1 PUSH1 0x20 ADD SWAP1 PUSH2 0x16D8 SWAP3 SWAP2 SWAP1 PUSH2 0x173A JUMP JUMPDEST POP SWAP2 PUSH1 0x20 ADD SWAP2 SWAP1 PUSH1 0x1 ADD SWAP1 PUSH2 0x16BA JUMP JUMPDEST JUMPDEST POP SWAP1 POP PUSH2 0x16F6 SWAP2 SWAP1 PUSH2 0x180C JUMP JUMPDEST POP SWAP1 JUMP JUMPDEST POP DUP1 SLOAD PUSH2 0x1706 SWAP1 PUSH2 0x216C JUMP JUMPDEST PUSH1 0x0 DUP3 SSTORE DUP1 PUSH1 0x1F LT PUSH2 0x1718 JUMPI POP PUSH2 0x1737 JUMP JUMPDEST PUSH1 0x1F ADD PUSH1 0x20 SWAP1 DIV SWAP1 PUSH1 0x0 MSTORE PUSH1 0x20 PUSH1 0x0 KECCAK256 SWAP1 DUP2 ADD SWAP1 PUSH2 0x1736 SWAP2 SWAP1 PUSH2 0x1830 JUMP JUMPDEST JUMPDEST POP JUMP JUMPDEST DUP3 DUP1 SLOAD PUSH2 0x1746 SWAP1 PUSH2 0x216C JUMP JUMPDEST SWAP1 PUSH1 0x0 MSTORE PUSH1 0x20 PUSH1 0x0 KECCAK256 SWAP1 PUSH1 0x1F ADD PUSH1 0x20 SWAP1 DIV DUP2 ADD SWAP3 DUP3 PUSH2 0x1768 JUMPI PUSH1 0x0 DUP6 SSTORE PUSH2 0x17AF JUMP JUMPDEST DUP3 PUSH1 0x1F LT PUSH2 0x1781 JUMPI DUP1 MLOAD PUSH1 0xFF NOT AND DUP4 DUP1 ADD OR DUP6 SSTORE PUSH2 0x17AF JUMP JUMPDEST DUP3 DUP1 ADD PUSH1 0x1 ADD DUP6 SSTORE DUP3 ISZERO PUSH2 0x17AF JUMPI SWAP2 DUP3 ADD JUMPDEST DUP3 DUP2 GT ISZERO PUSH2 0x17AE JUMPI DUP3 MLOAD DUP3 SSTORE SWAP2 PUSH1 0x20 ADD SWAP2 SWAP1 PUSH1 0x1 ADD SWAP1 PUSH2 0x1793 JUMP JUMPDEST JUMPDEST POP SWAP1 POP PUSH2 0x17BC SWAP2 SWAP1 PUSH2 0x1830 JUMP JUMPDEST POP SWAP1 JUMP JUMPDEST PUSH1 0x40 MLOAD DUP1 PUSH1 0x80 ADD PUSH1 0x40 MSTORE DUP1 PUSH1 0x60 DUP2 MSTORE PUSH1 0x20 ADD PUSH1 0x60 DUP2 MSTORE PUSH1 0x20 ADD PUSH1 0x60 DUP2 MSTORE PUSH1 0x20 ADD PUSH1 0x60 DUP2 MSTORE POP SWAP1 JUMP JUMPDEST POP DUP1 SLOAD PUSH1 0x0 DUP3 SSTORE PUSH1 0x4 MUL SWAP1 PUSH1 0x0 MSTORE PUSH1 0x20 PUSH1 0x0 KECCAK256 SWAP1 DUP2 ADD SWAP1 PUSH2 0x1809 SWAP2 SWAP1 PUSH2 0x184D JUMP JUMPDEST POP JUMP JUMPDEST JUMPDEST DUP1 DUP3 GT ISZERO PUSH2 0x182C JUMPI PUSH1 0x0 DUP2 DUP2 PUSH2 0x1823 SWAP2 SWAP1 PUSH2 0x16FA JUMP JUMPDEST POP PUSH1 0x1 ADD PUSH2 0x180D JUMP JUMPDEST POP SWAP1 JUMP JUMPDEST JUMPDEST DUP1 DUP3 GT ISZERO PUSH2 0x1849 JUMPI PUSH1 0x0 DUP2 PUSH1 0x0 SWAP1 SSTORE POP PUSH1 0x1 ADD PUSH2 0x1831 JUMP JUMPDEST POP SWAP1 JUMP JUMPDEST JUMPDEST DUP1 DUP3 GT ISZERO PUSH2 0x18A0 JUMPI PUSH1 0x0 DUP1 DUP3 ADD PUSH1 0x0 PUSH2 0x1867 SWAP2 SWAP1 PUSH2 0x16FA JUMP JUMPDEST PUSH1 0x1 DUP3 ADD PUSH1 0x0 PUSH2 0x1877 SWAP2 SWAP1 PUSH2 0x16FA JUMP JUMPDEST PUSH1 0x2 DUP3 ADD PUSH1 0x0 PUSH2 0x1887 SWAP2 SWAP1 PUSH2 0x16FA JUMP JUMPDEST PUSH1 0x3 DUP3 ADD PUSH1 0x0 PUSH2 0x1897 SWAP2 SWAP1 PUSH2 0x16FA JUMP JUMPDEST POP PUSH1 0x4 ADD PUSH2 0x184E JUMP JUMPDEST POP SWAP1 JUMP JUMPDEST PUSH1 0x0 PUSH2 0x18B7 PUSH2 0x18B2 DUP5 PUSH2 0x202B JUMP JUMPDEST PUSH2 0x2006 JUMP JUMPDEST SWAP1 POP DUP1 DUP4 DUP3 MSTORE PUSH1 0x20 DUP3 ADD SWAP1 POP DUP3 DUP6 PUSH1 0x20 DUP7 MUL DUP3 ADD GT ISZERO PUSH2 0x18DA JUMPI PUSH2 0x18D9 PUSH2 0x2261 JUMP JUMPDEST JUMPDEST PUSH1 0x0 JUMPDEST DUP6 DUP2 LT ISZERO PUSH2 0x1928 JUMPI DUP2 CALLDATALOAD PUSH8 0xFFFFFFFFFFFFFFFF DUP2 GT ISZERO PUSH2 0x1900 JUMPI PUSH2 0x18FF PUSH2 0x225C JUMP JUMPDEST JUMPDEST DUP1 DUP7 ADD PUSH2 0x190D DUP10 DUP3 PUSH2 0x19B7 JUMP JUMPDEST DUP6 MSTORE PUSH1 0x20 DUP6 ADD SWAP5 POP PUSH1 0x20 DUP5 ADD SWAP4 POP POP POP PUSH1 0x1 DUP2 ADD SWAP1 POP PUSH2 0x18DD JUMP JUMPDEST POP POP POP SWAP4 SWAP3 POP POP POP JUMP JUMPDEST PUSH1 0x0 PUSH2 0x1945 PUSH2 0x1940 DUP5 PUSH2 0x2057 JUMP JUMPDEST PUSH2 0x2006 JUMP JUMPDEST SWAP1 POP DUP3 DUP2 MSTORE PUSH1 0x20 DUP2 ADD DUP5 DUP5 DUP5 ADD GT ISZERO PUSH2 0x1961 JUMPI PUSH2 0x1960 PUSH2 0x2266 JUMP JUMPDEST JUMPDEST PUSH2 0x196C DUP5 DUP3 DUP6 PUSH2 0x212A JUMP JUMPDEST POP SWAP4 SWAP3 POP POP POP JUMP JUMPDEST PUSH1 0x0 DUP2 CALLDATALOAD SWAP1 POP PUSH2 0x1983 DUP2 PUSH2 0x2286 JUMP JUMPDEST SWAP3 SWAP2 POP POP JUMP JUMPDEST PUSH1 0x0 DUP3 PUSH1 0x1F DUP4 ADD SLT PUSH2 0x199E JUMPI PUSH2 0x199D PUSH2 0x225C JUMP JUMPDEST JUMPDEST DUP2 CALLDATALOAD PUSH2 0x19AE DUP5 DUP3 PUSH1 0x20 DUP7 ADD PUSH2 0x18A4 JUMP JUMPDEST SWAP2 POP POP SWAP3 SWAP2 POP POP JUMP JUMPDEST PUSH1 0x0 DUP3 PUSH1 0x1F DUP4 ADD SLT PUSH2 0x19CC JUMPI PUSH2 0x19CB PUSH2 0x225C JUMP JUMPDEST JUMPDEST DUP2 CALLDATALOAD PUSH2 0x19DC DUP5 DUP3 PUSH1 0x20 DUP7 ADD PUSH2 0x1932 JUMP JUMPDEST SWAP2 POP POP SWAP3 SWAP2 POP POP JUMP JUMPDEST PUSH1 0x0 DUP2 CALLDATALOAD SWAP1 POP PUSH2 0x19F4 DUP2 PUSH2 0x229D JUMP JUMPDEST SWAP3 SWAP2 POP POP JUMP JUMPDEST PUSH1 0x0 PUSH1 0x20 DUP3 DUP5 SUB SLT ISZERO PUSH2 0x1A10 JUMPI PUSH2 0x1A0F PUSH2 0x2270 JUMP JUMPDEST JUMPDEST PUSH1 0x0 PUSH2 0x1A1E DUP5 DUP3 DUP6 ADD PUSH2 0x1974 JUMP JUMPDEST SWAP2 POP POP SWAP3 SWAP2 POP POP JUMP JUMPDEST PUSH1 0x0 DUP1 PUSH1 0x0 PUSH1 0x60 DUP5 DUP7 SUB SLT ISZERO PUSH2 0x1A40 JUMPI PUSH2 0x1A3F PUSH2 0x2270 JUMP JUMPDEST JUMPDEST PUSH1 0x0 DUP5 ADD CALLDATALOAD PUSH8 0xFFFFFFFFFFFFFFFF DUP2 GT ISZERO PUSH2 0x1A5E JUMPI PUSH2 0x1A5D PUSH2 0x226B JUMP JUMPDEST JUMPDEST PUSH2 0x1A6A DUP7 DUP3 DUP8 ADD PUSH2 0x1989 JUMP JUMPDEST SWAP4 POP POP PUSH1 0x20 DUP5 ADD CALLDATALOAD PUSH8 0xFFFFFFFFFFFFFFFF DUP2 GT ISZERO PUSH2 0x1A8B JUMPI PUSH2 0x1A8A PUSH2 0x226B JUMP JUMPDEST JUMPDEST PUSH2 0x1A97 DUP7 DUP3 DUP8 ADD PUSH2 0x1989 JUMP JUMPDEST SWAP3 POP POP PUSH1 0x40 DUP5 ADD CALLDATALOAD PUSH8 0xFFFFFFFFFFFFFFFF DUP2 GT ISZERO PUSH2 0x1AB8 JUMPI PUSH2 0x1AB7 PUSH2 0x226B JUMP JUMPDEST JUMPDEST PUSH2 0x1AC4 DUP7 DUP3 DUP8 ADD PUSH2 0x1989 JUMP JUMPDEST SWAP2 POP POP SWAP3 POP SWAP3 POP SWAP3 JUMP JUMPDEST PUSH1 0x0 DUP1 PUSH1 0x0 DUP1 PUSH1 0x80 DUP6 DUP8 SUB SLT ISZERO PUSH2 0x1AE8 JUMPI PUSH2 0x1AE7 PUSH2 0x2270 JUMP JUMPDEST JUMPDEST PUSH1 0x0 DUP6 ADD CALLDATALOAD PUSH8 0xFFFFFFFFFFFFFFFF DUP2 GT ISZERO PUSH2 0x1B06 JUMPI PUSH2 0x1B05 PUSH2 0x226B JUMP JUMPDEST JUMPDEST PUSH2 0x1B12 DUP8 DUP3 DUP9 ADD PUSH2 0x19B7 JUMP JUMPDEST SWAP5 POP POP PUSH1 0x20 DUP6 ADD CALLDATALOAD PUSH8 0xFFFFFFFFFFFFFFFF DUP2 GT ISZERO PUSH2 0x1B33 JUMPI PUSH2 0x1B32 PUSH2 0x226B JUMP JUMPDEST JUMPDEST PUSH2 0x1B3F DUP8 DUP3 DUP9 ADD PUSH2 0x19B7 JUMP JUMPDEST SWAP4 POP POP PUSH1 0x40 DUP6 ADD CALLDATALOAD PUSH8 0xFFFFFFFFFFFFFFFF DUP2 GT ISZERO PUSH2 0x1B60 JUMPI PUSH2 0x1B5F PUSH2 0x226B JUMP JUMPDEST JUMPDEST PUSH2 0x1B6C DUP8 DUP3 DUP9 ADD PUSH2 0x19B7 JUMP JUMPDEST SWAP3 POP POP PUSH1 0x60 DUP6 ADD CALLDATALOAD PUSH8 0xFFFFFFFFFFFFFFFF DUP2 GT ISZERO PUSH2 0x1B8D JUMPI PUSH2 0x1B8C PUSH2 0x226B JUMP JUMPDEST JUMPDEST PUSH2 0x1B99 DUP8 DUP3 DUP9 ADD PUSH2 0x19B7 JUMP JUMPDEST SWAP2 POP POP SWAP3 SWAP6 SWAP2 SWAP5 POP SWAP3 POP JUMP JUMPDEST PUSH1 0x0 DUP1 PUSH1 0x0 DUP1 PUSH1 0x0 PUSH1 0xA0 DUP7 DUP9 SUB SLT ISZERO PUSH2 0x1BC1 JUMPI PUSH2 0x1BC0 PUSH2 0x2270 JUMP JUMPDEST JUMPDEST PUSH1 0x0 DUP7 ADD CALLDATALOAD PUSH8 0xFFFFFFFFFFFFFFFF DUP2 GT ISZERO PUSH2 0x1BDF JUMPI PUSH2 0x1BDE PUSH2 0x226B JUMP JUMPDEST JUMPDEST PUSH2 0x1BEB DUP9 DUP3 DUP10 ADD PUSH2 0x19B7 JUMP JUMPDEST SWAP6 POP POP PUSH1 0x20 DUP7 ADD CALLDATALOAD PUSH8 0xFFFFFFFFFFFFFFFF DUP2 GT ISZERO PUSH2 0x1C0C JUMPI PUSH2 0x1C0B PUSH2 0x226B JUMP JUMPDEST JUMPDEST PUSH2 0x1C18 DUP9 DUP3 DUP10 ADD PUSH2 0x19B7 JUMP JUMPDEST SWAP5 POP POP PUSH1 0x40 DUP7 ADD CALLDATALOAD PUSH8 0xFFFFFFFFFFFFFFFF DUP2 GT ISZERO PUSH2 0x1C39 JUMPI PUSH2 0x1C38 PUSH2 0x226B JUMP JUMPDEST JUMPDEST PUSH2 0x1C45 DUP9 DUP3 DUP10 ADD PUSH2 0x19B7 JUMP JUMPDEST SWAP4 POP POP PUSH1 0x60 DUP7 ADD CALLDATALOAD PUSH8 0xFFFFFFFFFFFFFFFF DUP2 GT ISZERO PUSH2 0x1C66 JUMPI PUSH2 0x1C65 PUSH2 0x226B JUMP JUMPDEST JUMPDEST PUSH2 0x1C72 DUP9 DUP3 DUP10 ADD PUSH2 0x19B7 JUMP JUMPDEST SWAP3 POP POP PUSH1 0x80 DUP7 ADD CALLDATALOAD PUSH8 0xFFFFFFFFFFFFFFFF DUP2 GT ISZERO PUSH2 0x1C93 JUMPI PUSH2 0x1C92 PUSH2 0x226B JUMP JUMPDEST JUMPDEST PUSH2 0x1C9F DUP9 DUP3 DUP10 ADD PUSH2 0x19B7 JUMP JUMPDEST SWAP2 POP POP SWAP3 SWAP6 POP SWAP3 SWAP6 SWAP1 SWAP4 POP JUMP JUMPDEST PUSH1 0x0 PUSH1 0x20 DUP3 DUP5 SUB SLT ISZERO PUSH2 0x1CC2 JUMPI PUSH2 0x1CC1 PUSH2 0x2270 JUMP JUMPDEST JUMPDEST PUSH1 0x0 PUSH2 0x1CD0 DUP5 DUP3 DUP6 ADD PUSH2 0x19E5 JUMP JUMPDEST SWAP2 POP POP SWAP3 SWAP2 POP POP JUMP JUMPDEST PUSH1 0x0 PUSH2 0x1CE5 DUP4 DUP4 PUSH2 0x1D71 JUMP JUMPDEST SWAP1 POP SWAP3 SWAP2 POP POP JUMP JUMPDEST PUSH2 0x1CF6 DUP2 PUSH2 0x20EE JUMP JUMPDEST DUP3 MSTORE POP POP JUMP JUMPDEST PUSH1 0x0 PUSH2 0x1D07 DUP3 PUSH2 0x2098 JUMP JUMPDEST PUSH2 0x1D11 DUP2 DUP6 PUSH2 0x20BB JUMP JUMPDEST SWAP4 POP DUP4 PUSH1 0x20 DUP3 MUL DUP6 ADD PUSH2 0x1D23 DUP6 PUSH2 0x2088 JUMP JUMPDEST DUP1 PUSH1 0x0 JUMPDEST DUP6 DUP2 LT ISZERO PUSH2 0x1D5F JUMPI DUP5 DUP5 SUB DUP10 MSTORE DUP2 MLOAD PUSH2 0x1D40 DUP6 DUP3 PUSH2 0x1CD9 JUMP JUMPDEST SWAP5 POP PUSH2 0x1D4B DUP4 PUSH2 0x20AE JUMP JUMPDEST SWAP3 POP PUSH1 0x20 DUP11 ADD SWAP10 POP POP PUSH1 0x1 DUP2 ADD SWAP1 POP PUSH2 0x1D27 JUMP JUMPDEST POP DUP3 SWAP8 POP DUP8 SWAP6 POP POP POP POP POP POP SWAP3 SWAP2 POP POP JUMP JUMPDEST PUSH1 0x0 PUSH2 0x1D7C DUP3 PUSH2 0x20A3 JUMP JUMPDEST PUSH2 0x1D86 DUP2 DUP6 PUSH2 0x20CC JUMP JUMPDEST SWAP4 POP PUSH2 0x1D96 DUP2 DUP6 PUSH1 0x20 DUP7 ADD PUSH2 0x2139 JUMP JUMPDEST PUSH2 0x1D9F DUP2 PUSH2 0x2275 JUMP JUMPDEST DUP5 ADD SWAP2 POP POP SWAP3 SWAP2 POP POP JUMP JUMPDEST PUSH1 0x0 PUSH2 0x1DB5 DUP3 PUSH2 0x20A3 JUMP JUMPDEST PUSH2 0x1DBF DUP2 DUP6 PUSH2 0x20DD JUMP JUMPDEST SWAP4 POP PUSH2 0x1DCF DUP2 DUP6 PUSH1 0x20 DUP7 ADD PUSH2 0x2139 JUMP JUMPDEST PUSH2 0x1DD8 DUP2 PUSH2 0x2275 JUMP JUMPDEST DUP5 ADD SWAP2 POP POP SWAP3 SWAP2 POP POP JUMP JUMPDEST PUSH1 0x0 PUSH1 0xA0 DUP4 ADD PUSH1 0x0 DUP4 ADD MLOAD DUP5 DUP3 SUB PUSH1 0x0 DUP7 ADD MSTORE PUSH2 0x1E00 DUP3 DUP3 PUSH2 0x1D71 JUMP JUMPDEST SWAP2 POP POP PUSH1 0x20 DUP4 ADD MLOAD DUP5 DUP3 SUB PUSH1 0x20 DUP7 ADD MSTORE PUSH2 0x1E1A DUP3 DUP3 PUSH2 0x1D71 JUMP JUMPDEST SWAP2 POP POP PUSH1 0x40 DUP4 ADD MLOAD DUP5 DUP3 SUB PUSH1 0x40 DUP7 ADD MSTORE PUSH2 0x1E34 DUP3 DUP3 PUSH2 0x1D71 JUMP JUMPDEST SWAP2 POP POP PUSH1 0x60 DUP4 ADD MLOAD DUP5 DUP3 SUB PUSH1 0x60 DUP7 ADD MSTORE PUSH2 0x1E4E DUP3 DUP3 PUSH2 0x1D71 JUMP JUMPDEST SWAP2 POP POP PUSH1 0x80 DUP4 ADD MLOAD DUP5 DUP3 SUB PUSH1 0x80 DUP7 ADD MSTORE PUSH2 0x1E68 DUP3 DUP3 PUSH2 0x1D71 JUMP JUMPDEST SWAP2 POP POP DUP1 SWAP2 POP POP SWAP3 SWAP2 POP POP JUMP JUMPDEST PUSH1 0x0 PUSH1 0x60 DUP4 ADD PUSH1 0x0 DUP4 ADD MLOAD DUP5 DUP3 SUB PUSH1 0x0 DUP7 ADD MSTORE PUSH2 0x1E92 DUP3 DUP3 PUSH2 0x1CFC JUMP JUMPDEST SWAP2 POP POP PUSH1 0x20 DUP4 ADD MLOAD DUP5 DUP3 SUB PUSH1 0x20 DUP7 ADD MSTORE PUSH2 0x1EAC DUP3 DUP3 PUSH2 0x1CFC JUMP JUMPDEST SWAP2 POP POP PUSH1 0x40 DUP4 ADD MLOAD DUP5 DUP3 SUB PUSH1 0x40 DUP7 ADD MSTORE PUSH2 0x1EC6 DUP3 DUP3 PUSH2 0x1CFC JUMP JUMPDEST SWAP2 POP POP DUP1 SWAP2 POP POP SWAP3 SWAP2 POP POP JUMP JUMPDEST PUSH2 0x1EDC DUP2 PUSH2 0x2120 JUMP JUMPDEST DUP3 MSTORE POP POP JUMP JUMPDEST PUSH1 0x0 PUSH2 0x100 DUP3 ADD SWAP1 POP PUSH2 0x1EF8 PUSH1 0x0 DUP4 ADD DUP12 PUSH2 0x1CED JUMP JUMPDEST DUP2 DUP2 SUB PUSH1 0x20 DUP4 ADD MSTORE PUSH2 0x1F0A DUP2 DUP11 PUSH2 0x1DAA JUMP JUMPDEST SWAP1 POP DUP2 DUP2 SUB PUSH1 0x40 DUP4 ADD MSTORE PUSH2 0x1F1E DUP2 DUP10 PUSH2 0x1DAA JUMP JUMPDEST SWAP1 POP DUP2 DUP2 SUB PUSH1 0x60 DUP4 ADD MSTORE PUSH2 0x1F32 DUP2 DUP9 PUSH2 0x1DAA JUMP JUMPDEST SWAP1 POP DUP2 DUP2 SUB PUSH1 0x80 DUP4 ADD MSTORE PUSH2 0x1F46 DUP2 DUP8 PUSH2 0x1DAA JUMP JUMPDEST SWAP1 POP PUSH2 0x1F55 PUSH1 0xA0 DUP4 ADD DUP7 PUSH2 0x1ED3 JUMP JUMPDEST DUP2 DUP2 SUB PUSH1 0xC0 DUP4 ADD MSTORE PUSH2 0x1F67 DUP2 DUP6 PUSH2 0x1DE3 JUMP JUMPDEST SWAP1 POP DUP2 DUP2 SUB PUSH1 0xE0 DUP4 ADD MSTORE PUSH2 0x1F7B DUP2 DUP5 PUSH2 0x1E75 JUMP JUMPDEST SWAP1 POP SWAP10 SWAP9 POP POP POP POP POP POP POP POP POP JUMP JUMPDEST PUSH1 0x0 PUSH1 0x80 DUP3 ADD SWAP1 POP DUP2 DUP2 SUB PUSH1 0x0 DUP4 ADD MSTORE PUSH2 0x1FA4 DUP2 DUP8 PUSH2 0x1DAA JUMP JUMPDEST SWAP1 POP DUP2 DUP2 SUB PUSH1 0x20 DUP4 ADD MSTORE PUSH2 0x1FB8 DUP2 DUP7 PUSH2 0x1DAA JUMP JUMPDEST SWAP1 POP DUP2 DUP2 SUB PUSH1 0x40 DUP4 ADD MSTORE PUSH2 0x1FCC DUP2 DUP6 PUSH2 0x1DAA JUMP JUMPDEST SWAP1 POP DUP2 DUP2 SUB PUSH1 0x60 DUP4 ADD MSTORE PUSH2 0x1FE0 DUP2 DUP5 PUSH2 0x1DAA JUMP JUMPDEST SWAP1 POP SWAP6 SWAP5 POP POP POP POP POP JUMP JUMPDEST PUSH1 0x0 PUSH1 0x20 DUP3 ADD SWAP1 POP PUSH2 0x2000 PUSH1 0x0 DUP4 ADD DUP5 PUSH2 0x1ED3 JUMP JUMPDEST SWAP3 SWAP2 POP POP JUMP JUMPDEST PUSH1 0x0 PUSH2 0x2010 PUSH2 0x2021 JUMP JUMPDEST SWAP1 POP PUSH2 0x201C DUP3 DUP3 PUSH2 0x219E JUMP JUMPDEST SWAP2 SWAP1 POP JUMP JUMPDEST PUSH1 0x0 PUSH1 0x40 MLOAD SWAP1 POP SWAP1 JUMP JUMPDEST PUSH1 0x0 PUSH8 0xFFFFFFFFFFFFFFFF DUP3 GT ISZERO PUSH2 0x2046 JUMPI PUSH2 0x2045 PUSH2 0x222D JUMP JUMPDEST JUMPDEST PUSH1 0x20 DUP3 MUL SWAP1 POP PUSH1 0x20 DUP2 ADD SWAP1 POP SWAP2 SWAP1 POP JUMP JUMPDEST PUSH1 0x0 PUSH8 0xFFFFFFFFFFFFFFFF DUP3 GT ISZERO PUSH2 0x2072 JUMPI PUSH2 0x2071 PUSH2 0x222D JUMP JUMPDEST JUMPDEST PUSH2 0x207B DUP3 PUSH2 0x2275 JUMP JUMPDEST SWAP1 POP PUSH1 0x20 DUP2 ADD SWAP1 POP SWAP2 SWAP1 POP JUMP JUMPDEST PUSH1 0x0 DUP2 SWAP1 POP PUSH1 0x20 DUP3 ADD SWAP1 POP SWAP2 SWAP1 POP JUMP JUMPDEST PUSH1 0x0 DUP2 MLOAD SWAP1 POP SWAP2 SWAP1 POP JUMP JUMPDEST PUSH1 0x0 DUP2 MLOAD SWAP1 POP SWAP2 SWAP1 POP JUMP JUMPDEST PUSH1 0x0 PUSH1 0x20 DUP3 ADD SWAP1 POP SWAP2 SWAP1 POP JUMP JUMPDEST PUSH1 0x0 DUP3 DUP3 MSTORE PUSH1 0x20 DUP3 ADD SWAP1 POP SWAP3 SWAP2 POP POP JUMP JUMPDEST PUSH1 0x0 DUP3 DUP3 MSTORE PUSH1 0x20 DUP3 ADD SWAP1 POP SWAP3 SWAP2 POP POP JUMP JUMPDEST PUSH1 0x0 DUP3 DUP3 MSTORE PUSH1 0x20 DUP3 ADD SWAP1 POP SWAP3 SWAP2 POP POP JUMP JUMPDEST PUSH1 0x0 PUSH2 0x20F9 DUP3 PUSH2 0x2100 JUMP JUMPDEST SWAP1 POP SWAP2 SWAP1 POP JUMP JUMPDEST PUSH1 0x0 PUSH20 0xFFFFFFFFFFFFFFFFFFFFFFFFFFFFFFFFFFFFFFFF DUP3 AND SWAP1 POP SWAP2 SWAP1 POP JUMP JUMPDEST PUSH1 0x0 DUP2 SWAP1 POP SWAP2 SWAP1 POP JUMP JUMPDEST DUP3 DUP2 DUP4 CALLDATACOPY PUSH1 0x0 DUP4 DUP4 ADD MSTORE POP POP POP JUMP JUMPDEST PUSH1 0x0 JUMPDEST DUP4 DUP2 LT ISZERO PUSH2 0x2157 JUMPI DUP1 DUP3 ADD MLOAD DUP2 DUP5 ADD MSTORE PUSH1 0x20 DUP2 ADD SWAP1 POP PUSH2 0x213C JUMP JUMPDEST DUP4 DUP2 GT ISZERO PUSH2 0x2166 JUMPI PUSH1 0x0 DUP5 DUP5 ADD MSTORE JUMPDEST POP POP POP POP JUMP JUMPDEST PUSH1 0x0 PUSH1 0x2 DUP3 DIV SWAP1 POP PUSH1 0x1 DUP3 AND DUP1 PUSH2 0x2184 JUMPI PUSH1 0x7F DUP3 AND SWAP2 POP JUMPDEST PUSH1 0x20 DUP3 LT DUP2 EQ ISZERO PUSH2 0x2198 JUMPI PUSH2 0x2197 PUSH2 0x21CF JUMP JUMPDEST JUMPDEST POP SWAP2 SWAP1 POP JUMP JUMPDEST PUSH2 0x21A7 DUP3 PUSH2 0x2275 JUMP JUMPDEST DUP2 ADD DUP2 DUP2 LT PUSH8 0xFFFFFFFFFFFFFFFF DUP3 GT OR ISZERO PUSH2 0x21C6 JUMPI PUSH2 0x21C5 PUSH2 0x222D JUMP JUMPDEST JUMPDEST DUP1 PUSH1 0x40 MSTORE POP POP POP JUMP JUMPDEST PUSH32 0x4E487B7100000000000000000000000000000000000000000000000000000000 PUSH1 0x0 MSTORE PUSH1 0x22 PUSH1 0x4 MSTORE PUSH1 0x24 PUSH1 0x0 REVERT JUMPDEST PUSH32 0x4E487B7100000000000000000000000000000000000000000000000000000000 PUSH1 0x0 MSTORE PUSH1 0x32 PUSH1 0x4 MSTORE PUSH1 0x24 PUSH1 0x0 REVERT JUMPDEST PUSH32 0x4E487B7100000000000000000000000000000000000000000000000000000000 PUSH1 0x0 MSTORE PUSH1 0x41 PUSH1 0x4 MSTORE PUSH1 0x24 PUSH1 0x0 REVERT JUMPDEST PUSH1 0x0 DUP1 REVERT JUMPDEST PUSH1 0x0 DUP1 REVERT JUMPDEST PUSH1 0x0 DUP1 REVERT JUMPDEST PUSH1 0x0 DUP1 REVERT JUMPDEST PUSH1 0x0 DUP1 REVERT JUMPDEST PUSH1 0x0 PUSH1 0x1F NOT PUSH1 0x1F DUP4 ADD AND SWAP1 POP SWAP2 SWAP1 POP JUMP JUMPDEST PUSH2 0x228F DUP2 PUSH2 0x20EE JUMP JUMPDEST DUP2 EQ PUSH2 0x229A JUMPI PUSH1 0x0 DUP1 REVERT JUMPDEST POP JUMP JUMPDEST PUSH2 0x22A6 DUP2 PUSH2 0x2120 JUMP JUMPDEST DUP2 EQ PUSH2 0x22B1 JUMPI PUSH1 0x0 DUP1 REVERT JUMPDEST POP JUMP INVALID LOG2 PUSH5 0x6970667358 0x22 SLT KECCAK256 MOD MOD GAS JUMPDEST 0xE4 0xCF DUP6 SWAP6 CALLDATASIZE JUMP PUSH24 0xC88D8DD2A76457BC77C280830CA1EF6A8A8A10706664736F PUSH13 0x63430008070033000000000000 "
				},
				"gasEstimates": {
					"creation": {
						"codeDepositCost": "1787600",
						"executionCost": "1884",
						"totalCost": "1789484"
					},
					"external": {
						"createBio(string,string,string,string)": "infinite",
						"createContract(string,string,string,string,string)": "infinite",
						"createSkill(string[],string[],string[])": "infinite",
						"createUnivercity(string,string,string,string)": "infinite",
						"delAllEducation()": "infinite",
						"delProfile()": "infinite",
						"getEducation(uint256)": "infinite",
						"getEducationCount()": "2563",
						"profile(address)": "infinite"
					}
				},
				"methodIdentifiers": {
					"createBio(string,string,string,string)": "8c241fc4",
					"createContract(string,string,string,string,string)": "72828388",
					"createSkill(string[],string[],string[])": "3d984d0e",
					"createUnivercity(string,string,string,string)": "9d983a01",
					"delAllEducation()": "ed2217ef",
					"delProfile()": "fabce08f",
					"getEducation(uint256)": "f96e32f8",
					"getEducationCount()": "6212fa02",
					"profile(address)": "9dd9d0fd"
				}
			},
			"storageLayout": {
				"storage": [
					{
						"astId": 29,
						"contract": "contracts/Profile.sol:Profile",
						"label": "profile",
						"offset": 0,
						"slot": "0",
						"type": "t_mapping(t_address,t_struct(Bio)24_storage)"
					}
				],
				"types": {
					"t_address": {
						"encoding": "inplace",
						"label": "address",
						"numberOfBytes": "20"
					},
					"t_array(t_string_storage)dyn_storage": {
						"base": "t_string_storage",
						"encoding": "dynamic_array",
						"label": "string[]",
						"numberOfBytes": "32"
					},
					"t_array(t_struct(Education)59_storage)dyn_storage": {
						"base": "t_struct(Education)59_storage",
						"encoding": "dynamic_array",
						"label": "struct Profile.Education[]",
						"numberOfBytes": "32"
					},
					"t_mapping(t_address,t_struct(Bio)24_storage)": {
						"encoding": "mapping",
						"key": "t_address",
						"label": "mapping(address => struct Profile.Bio)",
						"numberOfBytes": "32",
						"value": "t_struct(Bio)24_storage"
					},
					"t_string_storage": {
						"encoding": "bytes",
						"label": "string",
						"numberOfBytes": "32"
					},
					"t_struct(Bio)24_storage": {
						"encoding": "inplace",
						"label": "struct Profile.Bio",
						"members": [
							{
								"astId": 3,
								"contract": "contracts/Profile.sol:Profile",
								"label": "userAddress",
								"offset": 0,
								"slot": "0",
								"type": "t_address"
							},
							{
								"astId": 5,
								"contract": "contracts/Profile.sol:Profile",
								"label": "firstName",
								"offset": 0,
								"slot": "1",
								"type": "t_string_storage"
							},
							{
								"astId": 7,
								"contract": "contracts/Profile.sol:Profile",
								"label": "middleName",
								"offset": 0,
								"slot": "2",
								"type": "t_string_storage"
							},
							{
								"astId": 9,
								"contract": "contracts/Profile.sol:Profile",
								"label": "lastName",
								"offset": 0,
								"slot": "3",
								"type": "t_string_storage"
							},
							{
								"astId": 11,
								"contract": "contracts/Profile.sol:Profile",
								"label": "profileImage",
								"offset": 0,
								"slot": "4",
								"type": "t_string_storage"
							},
							{
								"astId": 13,
								"contract": "contracts/Profile.sol:Profile",
								"label": "createDate",
								"offset": 0,
								"slot": "5",
								"type": "t_uint256"
							},
							{
								"astId": 16,
								"contract": "contracts/Profile.sol:Profile",
								"label": "privateContract",
								"offset": 0,
								"slot": "6",
								"type": "t_struct(Contract)40_storage"
							},
							{
								"astId": 19,
								"contract": "contracts/Profile.sol:Profile",
								"label": "skill",
								"offset": 0,
								"slot": "11",
								"type": "t_struct(Skill)50_storage"
							},
							{
								"astId": 23,
								"contract": "contracts/Profile.sol:Profile",
								"label": "education",
								"offset": 0,
								"slot": "14",
								"type": "t_array(t_struct(Education)59_storage)dyn_storage"
							}
						],
						"numberOfBytes": "480"
					},
					"t_struct(Contract)40_storage": {
						"encoding": "inplace",
						"label": "struct Profile.Contract",
						"members": [
							{
								"astId": 31,
								"contract": "contracts/Profile.sol:Profile",
								"label": "email",
								"offset": 0,
								"slot": "0",
								"type": "t_string_storage"
							},
							{
								"astId": 33,
								"contract": "contracts/Profile.sol:Profile",
								"label": "phone",
								"offset": 0,
								"slot": "1",
								"type": "t_string_storage"
							},
							{
								"astId": 35,
								"contract": "contracts/Profile.sol:Profile",
								"label": "github",
								"offset": 0,
								"slot": "2",
								"type": "t_string_storage"
							},
							{
								"astId": 37,
								"contract": "contracts/Profile.sol:Profile",
								"label": "gitlab",
								"offset": 0,
								"slot": "3",
								"type": "t_string_storage"
							},
							{
								"astId": 39,
								"contract": "contracts/Profile.sol:Profile",
								"label": "linkin",
								"offset": 0,
								"slot": "4",
								"type": "t_string_storage"
							}
						],
						"numberOfBytes": "160"
					},
					"t_struct(Education)59_storage": {
						"encoding": "inplace",
						"label": "struct Profile.Education",
						"members": [
							{
								"astId": 52,
								"contract": "contracts/Profile.sol:Profile",
								"label": "startDate",
								"offset": 0,
								"slot": "0",
								"type": "t_string_storage"
							},
							{
								"astId": 54,
								"contract": "contracts/Profile.sol:Profile",
								"label": "endDate",
								"offset": 0,
								"slot": "1",
								"type": "t_string_storage"
							},
							{
								"astId": 56,
								"contract": "contracts/Profile.sol:Profile",
								"label": "univercity",
								"offset": 0,
								"slot": "2",
								"type": "t_string_storage"
							},
							{
								"astId": 58,
								"contract": "contracts/Profile.sol:Profile",
								"label": "major",
								"offset": 0,
								"slot": "3",
								"type": "t_string_storage"
							}
						],
						"numberOfBytes": "128"
					},
					"t_struct(Skill)50_storage": {
						"encoding": "inplace",
						"label": "struct Profile.Skill",
						"members": [
							{
								"astId": 43,
								"contract": "contracts/Profile.sol:Profile",
								"label": "programmingLanguages",
								"offset": 0,
								"slot": "0",
								"type": "t_array(t_string_storage)dyn_storage"
							},
							{
								"astId": 46,
								"contract": "contracts/Profile.sol:Profile",
								"label": "framework",
								"offset": 0,
								"slot": "1",
								"type": "t_array(t_string_storage)dyn_storage"
							},
							{
								"astId": 49,
								"contract": "contracts/Profile.sol:Profile",
								"label": "databaseAndOther",
								"offset": 0,
								"slot": "2",
								"type": "t_array(t_string_storage)dyn_storage"
							}
						],
						"numberOfBytes": "96"
					},
					"t_uint256": {
						"encoding": "inplace",
						"label": "uint256",
						"numberOfBytes": "32"
					}
				}
			},
			"userdoc": {
				"kind": "user",
				"methods": {},
				"version": 1
			}
		}
	}
}