{
	"contracts/Profile.sol": {
		"Profile": {
			"abi": [
				{
					"inputs": [
						{
							"internalType": "string[]",
							"name": "award",
							"type": "string[]"
						},
						{
							"internalType": "string[]",
							"name": "certificate",
							"type": "string[]"
						}
					],
					"name": "createAward",
					"outputs": [],
					"stateMutability": "nonpayable",
					"type": "function"
				},
				{
					"inputs": [
						{
							"internalType": "string",
							"name": "email",
							"type": "string"
						},
						{
							"internalType": "string",
							"name": "phone",
							"type": "string"
						},
						{
							"internalType": "string",
							"name": "github",
							"type": "string"
						},
						{
							"internalType": "string",
							"name": "gitlab",
							"type": "string"
						},
						{
							"internalType": "string",
							"name": "linkin",
							"type": "string"
						}
					],
					"name": "createContract",
					"outputs": [],
					"stateMutability": "nonpayable",
					"type": "function"
				},
				{
					"inputs": [
						{
							"internalType": "string",
							"name": "projectName",
							"type": "string"
						},
						{
							"internalType": "string",
							"name": "Detail",
							"type": "string"
						}
					],
					"name": "createFreelanceExperience",
					"outputs": [],
					"stateMutability": "nonpayable",
					"type": "function"
				},
				{
					"inputs": [
						{
							"internalType": "string",
							"name": "firstName",
							"type": "string"
						},
						{
							"internalType": "string",
							"name": "middleName",
							"type": "string"
						},
						{
							"internalType": "string",
							"name": "lastName",
							"type": "string"
						},
						{
							"internalType": "string",
							"name": "profileImage",
							"type": "string"
						},
						{
							"internalType": "string",
							"name": "aboutMe",
							"type": "string"
						},
						{
							"internalType": "string",
							"name": "position",
							"type": "string"
						}
					],
					"name": "createInformation",
					"outputs": [],
					"stateMutability": "nonpayable",
					"type": "function"
				},
				{
					"inputs": [
						{
							"internalType": "string[]",
							"name": "programmingLanguages",
							"type": "string[]"
						},
						{
							"internalType": "string[]",
							"name": "framework",
							"type": "string[]"
						},
						{
							"internalType": "string[]",
							"name": "databaseAndOther",
							"type": "string[]"
						}
					],
					"name": "createSkill",
					"outputs": [],
					"stateMutability": "nonpayable",
					"type": "function"
				},
				{
					"inputs": [
						{
							"internalType": "string",
							"name": "startDate",
							"type": "string"
						},
						{
							"internalType": "string",
							"name": "endDate",
							"type": "string"
						},
						{
							"internalType": "string",
							"name": "univercity",
							"type": "string"
						},
						{
							"internalType": "string",
							"name": "major",
							"type": "string"
						},
						{
							"internalType": "string",
							"name": "finalProject",
							"type": "string"
						}
					],
					"name": "createUnivercity",
					"outputs": [],
					"stateMutability": "nonpayable",
					"type": "function"
				},
				{
					"inputs": [],
					"name": "delAllEducation",
					"outputs": [],
					"stateMutability": "nonpayable",
					"type": "function"
				},
				{
					"inputs": [],
					"name": "delCertificateAndAward",
					"outputs": [],
					"stateMutability": "nonpayable",
					"type": "function"
				},
				{
					"inputs": [],
					"name": "delFreelanceExperience",
					"outputs": [],
					"stateMutability": "nonpayable",
					"type": "function"
				},
				{
					"inputs": [],
					"name": "delInformaion",
					"outputs": [],
					"stateMutability": "nonpayable",
					"type": "function"
				},
				{
					"inputs": [],
					"name": "delProfile",
					"outputs": [],
					"stateMutability": "nonpayable",
					"type": "function"
				},
				{
					"inputs": [
						{
							"internalType": "uint256",
							"name": "index",
							"type": "uint256"
						}
					],
					"name": "getEducation",
					"outputs": [
						{
							"internalType": "string",
							"name": "",
							"type": "string"
						},
						{
							"internalType": "string",
							"name": "",
							"type": "string"
						},
						{
							"internalType": "string",
							"name": "",
							"type": "string"
						},
						{
							"internalType": "string",
							"name": "",
							"type": "string"
						},
						{
							"internalType": "string",
							"name": "",
							"type": "string"
						}
					],
					"stateMutability": "view",
					"type": "function"
				},
				{
					"inputs": [],
					"name": "getEducationCount",
					"outputs": [
						{
							"internalType": "uint256",
							"name": "",
							"type": "uint256"
						}
					],
					"stateMutability": "view",
					"type": "function"
				},
				{
					"inputs": [
						{
							"internalType": "address",
							"name": "",
							"type": "address"
						}
					],
					"name": "profile",
					"outputs": [
						{
							"components": [
								{
									"internalType": "string",
									"name": "aboutMe",
									"type": "string"
								},
								{
									"internalType": "string",
									"name": "position",
									"type": "string"
								},
								{
									"internalType": "address",
									"name": "userAddress",
									"type": "address"
								},
								{
									"internalType": "string",
									"name": "firstName",
									"type": "string"
								},
								{
									"internalType": "string",
									"name": "middleName",
									"type": "string"
								},
								{
									"internalType": "string",
									"name": "lastName",
									"type": "string"
								},
								{
									"internalType": "string",
									"name": "profileImage",
									"type": "string"
								},
								{
									"internalType": "uint256",
									"name": "createDate",
									"type": "uint256"
								}
							],
							"internalType": "struct Profile.Information",
							"name": "information",
							"type": "tuple"
						},
						{
							"components": [
								{
									"internalType": "string",
									"name": "aboutMe",
									"type": "string"
								},
								{
									"internalType": "string",
									"name": "email",
									"type": "string"
								},
								{
									"internalType": "string",
									"name": "phone",
									"type": "string"
								},
								{
									"internalType": "string",
									"name": "github",
									"type": "string"
								},
								{
									"internalType": "string",
									"name": "gitlab",
									"type": "string"
								},
								{
									"internalType": "string",
									"name": "linkin",
									"type": "string"
								}
							],
							"internalType": "struct Profile.Contract",
							"name": "privateContract",
							"type": "tuple"
						},
						{
							"components": [
								{
									"internalType": "string[]",
									"name": "programmingLanguages",
									"type": "string[]"
								},
								{
									"internalType": "string[]",
									"name": "framework",
									"type": "string[]"
								},
								{
									"internalType": "string[]",
									"name": "databaseAndOther",
									"type": "string[]"
								}
							],
							"internalType": "struct Profile.Skill",
							"name": "skill",
							"type": "tuple"
						},
						{
							"components": [
								{
									"internalType": "string[]",
									"name": "certificate",
									"type": "string[]"
								},
								{
									"internalType": "string[]",
									"name": "award",
									"type": "string[]"
								}
							],
							"internalType": "struct Profile.CertificateAndAward",
							"name": "certificateAndAward",
							"type": "tuple"
						},
						{
							"components": [
								{
									"internalType": "string",
									"name": "companyName",
									"type": "string"
								},
								{
									"internalType": "string",
									"name": "position",
									"type": "string"
								},
								{
									"internalType": "string",
									"name": "startDate",
									"type": "string"
								},
								{
									"internalType": "string",
									"name": "endDate",
									"type": "string"
								},
								{
									"internalType": "string[]",
									"name": "project",
									"type": "string[]"
								}
							],
							"internalType": "struct Profile.CompanyExperience",
							"name": "companyExperience",
							"type": "tuple"
						},
						{
							"components": [
								{
									"internalType": "string",
									"name": "projectName",
									"type": "string"
								},
								{
									"internalType": "string",
									"name": "Detail",
									"type": "string"
								}
							],
							"internalType": "struct Profile.FreelanceExperience",
							"name": "freelanceExperience",
							"type": "tuple"
						}
					],
					"stateMutability": "view",
					"type": "function"
				}
			],
			"devdoc": {
				"kind": "dev",
				"methods": {},
				"version": 1
			},
			"evm": {
				"assembly": "    /* \"contracts/Profile.sol\":60:5432  contract Profile {\r... */\n  mstore(0x40, 0x80)\n  callvalue\n  dup1\n  iszero\n  tag_1\n  jumpi\n  0x00\n  dup1\n  revert\ntag_1:\n  pop\n  dataSize(sub_0)\n  dup1\n  dataOffset(sub_0)\n  0x00\n  codecopy\n  0x00\n  return\nstop\n\nsub_0: assembly {\n        /* \"contracts/Profile.sol\":60:5432  contract Profile {\r... */\n      mstore(0x40, 0x80)\n      callvalue\n      dup1\n      iszero\n      tag_1\n      jumpi\n      0x00\n      dup1\n      revert\n    tag_1:\n      pop\n      jumpi(tag_2, lt(calldatasize, 0x04))\n      shr(0xe0, calldataload(0x00))\n      dup1\n      0x72828388\n      gt\n      tag_17\n      jumpi\n      dup1\n      0x9dd9d0fd\n      gt\n      tag_18\n      jumpi\n      dup1\n      0x9dd9d0fd\n      eq\n      tag_13\n      jumpi\n      dup1\n      0xed2217ef\n      eq\n      tag_14\n      jumpi\n      dup1\n      0xf96e32f8\n      eq\n      tag_15\n      jumpi\n      dup1\n      0xfabce08f\n      eq\n      tag_16\n      jumpi\n      jump(tag_2)\n    tag_18:\n      dup1\n      0x72828388\n      eq\n      tag_10\n      jumpi\n      dup1\n      0x958791ae\n      eq\n      tag_11\n      jumpi\n      dup1\n      0x95ea3757\n      eq\n      tag_12\n      jumpi\n      jump(tag_2)\n    tag_17:\n      dup1\n      0x4ed74067\n      gt\n      tag_19\n      jumpi\n      dup1\n      0x4ed74067\n      eq\n      tag_6\n      jumpi\n      dup1\n      0x6212fa02\n      eq\n      tag_7\n      jumpi\n      dup1\n      0x66244dfb\n      eq\n      tag_8\n      jumpi\n      dup1\n      0x6c2cc774\n      eq\n      tag_9\n      jumpi\n      jump(tag_2)\n    tag_19:\n      dup1\n      0x119d4cac\n      eq\n      tag_3\n      jumpi\n      dup1\n      0x322a9849\n      eq\n      tag_4\n      jumpi\n      dup1\n      0x3d984d0e\n      eq\n      tag_5\n      jumpi\n    tag_2:\n      0x00\n      dup1\n      revert\n        /* \"contracts/Profile.sol\":5319:5427  function delFreelanceExperience() external {\r... */\n    tag_3:\n      tag_20\n      tag_21\n      jump\t// in\n    tag_20:\n      stop\n        /* \"contracts/Profile.sol\":4656:4897  function createFreelanceExperience(string memory projectName, string memory Detail) public {\r... */\n    tag_4:\n      tag_22\n      0x04\n      dup1\n      calldatasize\n      sub\n      dup2\n      add\n      swap1\n      tag_23\n      swap2\n      swap1\n      tag_24\n      jump\t// in\n    tag_23:\n      tag_25\n      jump\t// in\n    tag_22:\n      stop\n        /* \"contracts/Profile.sol\":2959:3347  function createSkill(string[] memory programmingLanguages, string[] memory framework, string[] memory databaseAndOther) public {\r... */\n    tag_5:\n      tag_26\n      0x04\n      dup1\n      calldatasize\n      sub\n      dup2\n      add\n      swap1\n      tag_27\n      swap2\n      swap1\n      tag_28\n      jump\t// in\n    tag_27:\n      tag_29\n      jump\t// in\n    tag_26:\n      stop\n        /* \"contracts/Profile.sol\":5202:5310  function delCertificateAndAward() external {\r... */\n    tag_6:\n      tag_30\n      tag_31\n      jump\t// in\n    tag_30:\n      stop\n        /* \"contracts/Profile.sol\":4294:4412  function getEducationCount() public view returns (uint) {\r... */\n    tag_7:\n      tag_32\n      tag_33\n      jump\t// in\n    tag_32:\n      mload(0x40)\n      tag_34\n      swap2\n      swap1\n      tag_35\n      jump\t// in\n    tag_34:\n      mload(0x40)\n      dup1\n      swap2\n      sub\n      swap1\n      return\n        /* \"contracts/Profile.sol\":3414:3884  function createUnivercity(string memory startDate, string memory endDate, string memory univercity, string memory major, string memory finalProject) public {\r... */\n    tag_8:\n      tag_36\n      0x04\n      dup1\n      calldatasize\n      sub\n      dup2\n      add\n      swap1\n      tag_37\n      swap2\n      swap1\n      tag_38\n      jump\t// in\n    tag_37:\n      tag_39\n      jump\t// in\n    tag_36:\n      stop\n        /* \"contracts/Profile.sol\":4420:4648  function createAward(string[] memory award, string[] memory certificate) public {\r... */\n    tag_9:\n      tag_40\n      0x04\n      dup1\n      calldatasize\n      sub\n      dup2\n      add\n      swap1\n      tag_41\n      swap2\n      swap1\n      tag_42\n      jump\t// in\n    tag_41:\n      tag_43\n      jump\t// in\n    tag_40:\n      stop\n        /* \"contracts/Profile.sol\":2368:2872  function createContract(string memory email, string memory phone, string memory github, string memory gitlab, string memory linkin) public {\r... */\n    tag_10:\n      tag_44\n      0x04\n      dup1\n      calldatasize\n      sub\n      dup2\n      add\n      swap1\n      tag_45\n      swap2\n      swap1\n      tag_38\n      jump\t// in\n    tag_45:\n      tag_46\n      jump\t// in\n    tag_44:\n      stop\n        /* \"contracts/Profile.sol\":1597:2313  function createInformation(string memory firstName, string memory middleName, string memory lastName,  string memory profileImage, string memory aboutMe, string memory position) public {\r... */\n    tag_11:\n      tag_47\n      0x04\n      dup1\n      calldatasize\n      sub\n      dup2\n      add\n      swap1\n      tag_48\n      swap2\n      swap1\n      tag_49\n      jump\t// in\n    tag_48:\n      tag_50\n      jump\t// in\n    tag_47:\n      stop\n        /* \"contracts/Profile.sol\":5018:5110  function delInformaion() external  {\r... */\n    tag_12:\n      tag_51\n      tag_52\n      jump\t// in\n    tag_51:\n      stop\n        /* \"contracts/Profile.sol\":380:420  mapping (address => Bio) public  profile */\n    tag_13:\n      tag_53\n      0x04\n      dup1\n      calldatasize\n      sub\n      dup2\n      add\n      swap1\n      tag_54\n      swap2\n      swap1\n      tag_55\n      jump\t// in\n    tag_54:\n      tag_56\n      jump\t// in\n    tag_53:\n      mload(0x40)\n      tag_57\n      swap7\n      swap6\n      swap5\n      swap4\n      swap3\n      swap2\n      swap1\n      tag_58\n      jump\t// in\n    tag_57:\n      mload(0x40)\n      dup1\n      swap2\n      sub\n      swap1\n      return\n        /* \"contracts/Profile.sol\":4918:5010  function delAllEducation() external  {\r... */\n    tag_14:\n      tag_59\n      tag_60\n      jump\t// in\n    tag_59:\n      stop\n        /* \"contracts/Profile.sol\":3893:4286  function getEducation(uint index) public view returns(string memory, string memory, string memory, string memory, string memory) {\r... */\n    tag_15:\n      tag_61\n      0x04\n      dup1\n      calldatasize\n      sub\n      dup2\n      add\n      swap1\n      tag_62\n      swap2\n      swap1\n      tag_63\n      jump\t// in\n    tag_62:\n      tag_64\n      jump\t// in\n    tag_61:\n      mload(0x40)\n      tag_65\n      swap6\n      swap5\n      swap4\n      swap3\n      swap2\n      swap1\n      tag_66\n      jump\t// in\n    tag_65:\n      mload(0x40)\n      dup1\n      swap2\n      sub\n      swap1\n      return\n        /* \"contracts/Profile.sol\":5118:5194  function delProfile() external {\r... */\n    tag_16:\n      tag_67\n      tag_68\n      jump\t// in\n    tag_67:\n      stop\n        /* \"contracts/Profile.sol\":5319:5427  function delFreelanceExperience() external {\r... */\n    tag_21:\n        /* \"contracts/Profile.sol\":5380:5387  profile */\n      0x00\n        /* \"contracts/Profile.sol\":5380:5399  profile[msg.sender] */\n      dup1\n        /* \"contracts/Profile.sol\":5388:5398  msg.sender */\n      caller\n        /* \"contracts/Profile.sol\":5380:5399  profile[msg.sender] */\n      0xffffffffffffffffffffffffffffffffffffffff\n      and\n      0xffffffffffffffffffffffffffffffffffffffff\n      and\n      dup2\n      mstore\n      0x20\n      add\n      swap1\n      dup2\n      mstore\n      0x20\n      add\n      0x00\n      keccak256\n        /* \"contracts/Profile.sol\":5380:5419  profile[msg.sender].freelanceExperience */\n      0x19\n      add\n      0x00\n        /* \"contracts/Profile.sol\":5373:5419  delete profile[msg.sender].freelanceExperience */\n      dup1\n      dup3\n      add\n      0x00\n      tag_70\n      swap2\n      swap1\n      tag_71\n      jump\t// in\n    tag_70:\n      0x01\n      dup3\n      add\n      0x00\n      tag_72\n      swap2\n      swap1\n      tag_71\n      jump\t// in\n    tag_72:\n      pop\n      pop\n        /* \"contracts/Profile.sol\":5319:5427  function delFreelanceExperience() external {\r... */\n      jump\t// out\n        /* \"contracts/Profile.sol\":4656:4897  function createFreelanceExperience(string memory projectName, string memory Detail) public {\r... */\n    tag_25:\n        /* \"contracts/Profile.sol\":4812:4823  projectName */\n      dup2\n        /* \"contracts/Profile.sol\":4758:4765  profile */\n      0x00\n        /* \"contracts/Profile.sol\":4758:4777  profile[msg.sender] */\n      dup1\n        /* \"contracts/Profile.sol\":4766:4776  msg.sender */\n      caller\n        /* \"contracts/Profile.sol\":4758:4777  profile[msg.sender] */\n      0xffffffffffffffffffffffffffffffffffffffff\n      and\n      0xffffffffffffffffffffffffffffffffffffffff\n      and\n      dup2\n      mstore\n      0x20\n      add\n      swap1\n      dup2\n      mstore\n      0x20\n      add\n      0x00\n      keccak256\n        /* \"contracts/Profile.sol\":4758:4797  profile[msg.sender].freelanceExperience */\n      0x19\n      add\n        /* \"contracts/Profile.sol\":4758:4809  profile[msg.sender].freelanceExperience.projectName */\n      0x00\n      add\n        /* \"contracts/Profile.sol\":4758:4823  profile[msg.sender].freelanceExperience.projectName = projectName */\n      swap1\n      dup1\n      mload\n      swap1\n      0x20\n      add\n      swap1\n      tag_74\n      swap3\n      swap2\n      swap1\n      tag_75\n      jump\t// in\n    tag_74:\n      pop\n        /* \"contracts/Profile.sol\":4883:4889  Detail */\n      dup1\n        /* \"contracts/Profile.sol\":4834:4841  profile */\n      0x00\n        /* \"contracts/Profile.sol\":4834:4853  profile[msg.sender] */\n      dup1\n        /* \"contracts/Profile.sol\":4842:4852  msg.sender */\n      caller\n        /* \"contracts/Profile.sol\":4834:4853  profile[msg.sender] */\n      0xffffffffffffffffffffffffffffffffffffffff\n      and\n      0xffffffffffffffffffffffffffffffffffffffff\n      and\n      dup2\n      mstore\n      0x20\n      add\n      swap1\n      dup2\n      mstore\n      0x20\n      add\n      0x00\n      keccak256\n        /* \"contracts/Profile.sol\":4834:4873  profile[msg.sender].freelanceExperience */\n      0x19\n      add\n        /* \"contracts/Profile.sol\":4834:4880  profile[msg.sender].freelanceExperience.Detail */\n      0x01\n      add\n        /* \"contracts/Profile.sol\":4834:4889  profile[msg.sender].freelanceExperience.Detail = Detail */\n      swap1\n      dup1\n      mload\n      swap1\n      0x20\n      add\n      swap1\n      tag_76\n      swap3\n      swap2\n      swap1\n      tag_75\n      jump\t// in\n    tag_76:\n      pop\n        /* \"contracts/Profile.sol\":4656:4897  function createFreelanceExperience(string memory projectName, string memory Detail) public {\r... */\n      pop\n      pop\n      jump\t// out\n        /* \"contracts/Profile.sol\":2959:3347  function createSkill(string[] memory programmingLanguages, string[] memory framework, string[] memory databaseAndOther) public {\r... */\n    tag_29:\n        /* \"contracts/Profile.sol\":3104:3111  profile */\n      0x00\n        /* \"contracts/Profile.sol\":3104:3123  profile[msg.sender] */\n      dup1\n        /* \"contracts/Profile.sol\":3112:3122  msg.sender */\n      caller\n        /* \"contracts/Profile.sol\":3104:3123  profile[msg.sender] */\n      0xffffffffffffffffffffffffffffffffffffffff\n      and\n      0xffffffffffffffffffffffffffffffffffffffff\n      and\n      dup2\n      mstore\n      0x20\n      add\n      swap1\n      dup2\n      mstore\n      0x20\n      add\n      0x00\n      keccak256\n        /* \"contracts/Profile.sol\":3104:3129  profile[msg.sender].skill */\n      0x0e\n      add\n      0x00\n        /* \"contracts/Profile.sol\":3097:3129  delete profile[msg.sender].skill */\n      dup1\n      dup3\n      add\n      0x00\n      tag_78\n      swap2\n      swap1\n      tag_79\n      jump\t// in\n    tag_78:\n      0x01\n      dup3\n      add\n      0x00\n      tag_80\n      swap2\n      swap1\n      tag_79\n      jump\t// in\n    tag_80:\n      0x02\n      dup3\n      add\n      0x00\n      tag_81\n      swap2\n      swap1\n      tag_79\n      jump\t// in\n    tag_81:\n      pop\n      pop\n        /* \"contracts/Profile.sol\":3189:3209  programmingLanguages */\n      dup3\n        /* \"contracts/Profile.sol\":3140:3147  profile */\n      0x00\n        /* \"contracts/Profile.sol\":3140:3159  profile[msg.sender] */\n      dup1\n        /* \"contracts/Profile.sol\":3148:3158  msg.sender */\n      caller\n        /* \"contracts/Profile.sol\":3140:3159  profile[msg.sender] */\n      0xffffffffffffffffffffffffffffffffffffffff\n      and\n      0xffffffffffffffffffffffffffffffffffffffff\n      and\n      dup2\n      mstore\n      0x20\n      add\n      swap1\n      dup2\n      mstore\n      0x20\n      add\n      0x00\n      keccak256\n        /* \"contracts/Profile.sol\":3140:3165  profile[msg.sender].skill */\n      0x0e\n      add\n        /* \"contracts/Profile.sol\":3140:3186  profile[msg.sender].skill.programmingLanguages */\n      0x00\n      add\n        /* \"contracts/Profile.sol\":3140:3209  profile[msg.sender].skill.programmingLanguages = programmingLanguages */\n      swap1\n      dup1\n      mload\n      swap1\n      0x20\n      add\n      swap1\n      tag_82\n      swap3\n      swap2\n      swap1\n      tag_83\n      jump\t// in\n    tag_82:\n      pop\n        /* \"contracts/Profile.sol\":3258:3267  framework */\n      dup2\n        /* \"contracts/Profile.sol\":3220:3227  profile */\n      0x00\n        /* \"contracts/Profile.sol\":3220:3239  profile[msg.sender] */\n      dup1\n        /* \"contracts/Profile.sol\":3228:3238  msg.sender */\n      caller\n        /* \"contracts/Profile.sol\":3220:3239  profile[msg.sender] */\n      0xffffffffffffffffffffffffffffffffffffffff\n      and\n      0xffffffffffffffffffffffffffffffffffffffff\n      and\n      dup2\n      mstore\n      0x20\n      add\n      swap1\n      dup2\n      mstore\n      0x20\n      add\n      0x00\n      keccak256\n        /* \"contracts/Profile.sol\":3220:3245  profile[msg.sender].skill */\n      0x0e\n      add\n        /* \"contracts/Profile.sol\":3220:3255  profile[msg.sender].skill.framework */\n      0x01\n      add\n        /* \"contracts/Profile.sol\":3220:3267  profile[msg.sender].skill.framework = framework */\n      swap1\n      dup1\n      mload\n      swap1\n      0x20\n      add\n      swap1\n      tag_84\n      swap3\n      swap2\n      swap1\n      tag_83\n      jump\t// in\n    tag_84:\n      pop\n        /* \"contracts/Profile.sol\":3323:3339  databaseAndOther */\n      dup1\n        /* \"contracts/Profile.sol\":3278:3285  profile */\n      0x00\n        /* \"contracts/Profile.sol\":3278:3297  profile[msg.sender] */\n      dup1\n        /* \"contracts/Profile.sol\":3286:3296  msg.sender */\n      caller\n        /* \"contracts/Profile.sol\":3278:3297  profile[msg.sender] */\n      0xffffffffffffffffffffffffffffffffffffffff\n      and\n      0xffffffffffffffffffffffffffffffffffffffff\n      and\n      dup2\n      mstore\n      0x20\n      add\n      swap1\n      dup2\n      mstore\n      0x20\n      add\n      0x00\n      keccak256\n        /* \"contracts/Profile.sol\":3278:3303  profile[msg.sender].skill */\n      0x0e\n      add\n        /* \"contracts/Profile.sol\":3278:3320  profile[msg.sender].skill.databaseAndOther */\n      0x02\n      add\n        /* \"contracts/Profile.sol\":3278:3339  profile[msg.sender].skill.databaseAndOther = databaseAndOther */\n      swap1\n      dup1\n      mload\n      swap1\n      0x20\n      add\n      swap1\n      tag_85\n      swap3\n      swap2\n      swap1\n      tag_83\n      jump\t// in\n    tag_85:\n      pop\n        /* \"contracts/Profile.sol\":2959:3347  function createSkill(string[] memory programmingLanguages, string[] memory framework, string[] memory databaseAndOther) public {\r... */\n      pop\n      pop\n      pop\n      jump\t// out\n        /* \"contracts/Profile.sol\":5202:5310  function delCertificateAndAward() external {\r... */\n    tag_31:\n        /* \"contracts/Profile.sol\":5263:5270  profile */\n      0x00\n        /* \"contracts/Profile.sol\":5263:5282  profile[msg.sender] */\n      dup1\n        /* \"contracts/Profile.sol\":5271:5281  msg.sender */\n      caller\n        /* \"contracts/Profile.sol\":5263:5282  profile[msg.sender] */\n      0xffffffffffffffffffffffffffffffffffffffff\n      and\n      0xffffffffffffffffffffffffffffffffffffffff\n      and\n      dup2\n      mstore\n      0x20\n      add\n      swap1\n      dup2\n      mstore\n      0x20\n      add\n      0x00\n      keccak256\n        /* \"contracts/Profile.sol\":5263:5302  profile[msg.sender].certificateAndAward */\n      0x12\n      add\n      0x00\n        /* \"contracts/Profile.sol\":5256:5302  delete profile[msg.sender].certificateAndAward */\n      dup1\n      dup3\n      add\n      0x00\n      tag_87\n      swap2\n      swap1\n      tag_79\n      jump\t// in\n    tag_87:\n      0x01\n      dup3\n      add\n      0x00\n      tag_88\n      swap2\n      swap1\n      tag_79\n      jump\t// in\n    tag_88:\n      pop\n      pop\n        /* \"contracts/Profile.sol\":5202:5310  function delCertificateAndAward() external {\r... */\n      jump\t// out\n        /* \"contracts/Profile.sol\":4294:4412  function getEducationCount() public view returns (uint) {\r... */\n    tag_33:\n        /* \"contracts/Profile.sol\":4344:4348  uint */\n      0x00\n        /* \"contracts/Profile.sol\":4368:4375  profile */\n      dup1\n        /* \"contracts/Profile.sol\":4368:4387  profile[msg.sender] */\n      0x00\n        /* \"contracts/Profile.sol\":4376:4386  msg.sender */\n      caller\n        /* \"contracts/Profile.sol\":4368:4387  profile[msg.sender] */\n      0xffffffffffffffffffffffffffffffffffffffff\n      and\n      0xffffffffffffffffffffffffffffffffffffffff\n      and\n      dup2\n      mstore\n      0x20\n      add\n      swap1\n      dup2\n      mstore\n      0x20\n      add\n      0x00\n      keccak256\n        /* \"contracts/Profile.sol\":4368:4397  profile[msg.sender].education */\n      0x11\n      add\n        /* \"contracts/Profile.sol\":4368:4404  profile[msg.sender].education.length */\n      dup1\n      sload\n      swap1\n      pop\n        /* \"contracts/Profile.sol\":4361:4404  return profile[msg.sender].education.length */\n      swap1\n      pop\n        /* \"contracts/Profile.sol\":4294:4412  function getEducationCount() public view returns (uint) {\r... */\n      swap1\n      jump\t// out\n        /* \"contracts/Profile.sol\":3414:3884  function createUnivercity(string memory startDate, string memory endDate, string memory univercity, string memory major, string memory finalProject) public {\r... */\n    tag_39:\n        /* \"contracts/Profile.sol\":3581:3608  Education memory _education */\n      tag_91\n      tag_92\n      jump\t// in\n    tag_91:\n        /* \"contracts/Profile.sol\":3642:3651  startDate */\n      dup6\n        /* \"contracts/Profile.sol\":3619:3629  _education */\n      dup2\n        /* \"contracts/Profile.sol\":3619:3639  _education.startDate */\n      0x00\n      add\n        /* \"contracts/Profile.sol\":3619:3651  _education.startDate = startDate */\n      dup2\n      swap1\n      mstore\n      pop\n        /* \"contracts/Profile.sol\":3683:3690  endDate */\n      dup5\n        /* \"contracts/Profile.sol\":3662:3672  _education */\n      dup2\n        /* \"contracts/Profile.sol\":3662:3680  _education.endDate */\n      0x20\n      add\n        /* \"contracts/Profile.sol\":3662:3690  _education.endDate = endDate */\n      dup2\n      swap1\n      mstore\n      pop\n        /* \"contracts/Profile.sol\":3725:3735  univercity */\n      dup4\n        /* \"contracts/Profile.sol\":3701:3711  _education */\n      dup2\n        /* \"contracts/Profile.sol\":3701:3722  _education.univercity */\n      0x40\n      add\n        /* \"contracts/Profile.sol\":3701:3735  _education.univercity = univercity */\n      dup2\n      swap1\n      mstore\n      pop\n        /* \"contracts/Profile.sol\":3765:3770  major */\n      dup3\n        /* \"contracts/Profile.sol\":3746:3756  _education */\n      dup2\n        /* \"contracts/Profile.sol\":3746:3762  _education.major */\n      0x60\n      add\n        /* \"contracts/Profile.sol\":3746:3770  _education.major = major */\n      dup2\n      swap1\n      mstore\n      pop\n        /* \"contracts/Profile.sol\":3807:3819  finalProject */\n      dup2\n        /* \"contracts/Profile.sol\":3781:3791  _education */\n      dup2\n        /* \"contracts/Profile.sol\":3781:3804  _education.finalProject */\n      0x80\n      add\n        /* \"contracts/Profile.sol\":3781:3819  _education.finalProject = finalProject */\n      dup2\n      swap1\n      mstore\n      pop\n        /* \"contracts/Profile.sol\":3830:3837  profile */\n      0x00\n        /* \"contracts/Profile.sol\":3830:3849  profile[msg.sender] */\n      dup1\n        /* \"contracts/Profile.sol\":3838:3848  msg.sender */\n      caller\n        /* \"contracts/Profile.sol\":3830:3849  profile[msg.sender] */\n      0xffffffffffffffffffffffffffffffffffffffff\n      and\n      0xffffffffffffffffffffffffffffffffffffffff\n      and\n      dup2\n      mstore\n      0x20\n      add\n      swap1\n      dup2\n      mstore\n      0x20\n      add\n      0x00\n      keccak256\n        /* \"contracts/Profile.sol\":3830:3859  profile[msg.sender].education */\n      0x11\n      add\n        /* \"contracts/Profile.sol\":3865:3875  _education */\n      dup2\n        /* \"contracts/Profile.sol\":3830:3876  profile[msg.sender].education.push(_education) */\n      swap1\n      dup1\n      0x01\n      dup2\n      sload\n      add\n      dup1\n      dup3\n      sstore\n      dup1\n      swap2\n      pop\n      pop\n      0x01\n      swap1\n      sub\n      swap1\n      0x00\n      mstore\n      keccak256(0x00, 0x20)\n      swap1\n      0x05\n      mul\n      add\n      0x00\n      swap1\n      swap2\n      swap1\n      swap2\n      swap1\n      swap2\n      pop\n      0x00\n      dup3\n      add\n      mload\n      dup2\n      0x00\n      add\n      swap1\n      dup1\n      mload\n      swap1\n      0x20\n      add\n      swap1\n      tag_94\n      swap3\n      swap2\n      swap1\n      tag_75\n      jump\t// in\n    tag_94:\n      pop\n      0x20\n      dup3\n      add\n      mload\n      dup2\n      0x01\n      add\n      swap1\n      dup1\n      mload\n      swap1\n      0x20\n      add\n      swap1\n      tag_95\n      swap3\n      swap2\n      swap1\n      tag_75\n      jump\t// in\n    tag_95:\n      pop\n      0x40\n      dup3\n      add\n      mload\n      dup2\n      0x02\n      add\n      swap1\n      dup1\n      mload\n      swap1\n      0x20\n      add\n      swap1\n      tag_96\n      swap3\n      swap2\n      swap1\n      tag_75\n      jump\t// in\n    tag_96:\n      pop\n      0x60\n      dup3\n      add\n      mload\n      dup2\n      0x03\n      add\n      swap1\n      dup1\n      mload\n      swap1\n      0x20\n      add\n      swap1\n      tag_97\n      swap3\n      swap2\n      swap1\n      tag_75\n      jump\t// in\n    tag_97:\n      pop\n      0x80\n      dup3\n      add\n      mload\n      dup2\n      0x04\n      add\n      swap1\n      dup1\n      mload\n      swap1\n      0x20\n      add\n      swap1\n      tag_98\n      swap3\n      swap2\n      swap1\n      tag_75\n      jump\t// in\n    tag_98:\n      pop\n      pop\n      pop\n        /* \"contracts/Profile.sol\":3570:3884  {\r... */\n      pop\n        /* \"contracts/Profile.sol\":3414:3884  function createUnivercity(string memory startDate, string memory endDate, string memory univercity, string memory major, string memory finalProject) public {\r... */\n      pop\n      pop\n      pop\n      pop\n      pop\n      jump\t// out\n        /* \"contracts/Profile.sol\":4420:4648  function createAward(string[] memory award, string[] memory certificate) public {\r... */\n    tag_43:\n        /* \"contracts/Profile.sol\":4559:4564  award */\n      dup2\n        /* \"contracts/Profile.sol\":4511:4518  profile */\n      0x00\n        /* \"contracts/Profile.sol\":4511:4530  profile[msg.sender] */\n      dup1\n        /* \"contracts/Profile.sol\":4519:4529  msg.sender */\n      caller\n        /* \"contracts/Profile.sol\":4511:4530  profile[msg.sender] */\n      0xffffffffffffffffffffffffffffffffffffffff\n      and\n      0xffffffffffffffffffffffffffffffffffffffff\n      and\n      dup2\n      mstore\n      0x20\n      add\n      swap1\n      dup2\n      mstore\n      0x20\n      add\n      0x00\n      keccak256\n        /* \"contracts/Profile.sol\":4511:4550  profile[msg.sender].certificateAndAward */\n      0x12\n      add\n        /* \"contracts/Profile.sol\":4511:4556  profile[msg.sender].certificateAndAward.award */\n      0x01\n      add\n        /* \"contracts/Profile.sol\":4511:4564  profile[msg.sender].certificateAndAward.award = award */\n      swap1\n      dup1\n      mload\n      swap1\n      0x20\n      add\n      swap1\n      tag_100\n      swap3\n      swap2\n      swap1\n      tag_83\n      jump\t// in\n    tag_100:\n      pop\n        /* \"contracts/Profile.sol\":4629:4640  certificate */\n      dup1\n        /* \"contracts/Profile.sol\":4575:4582  profile */\n      0x00\n        /* \"contracts/Profile.sol\":4575:4594  profile[msg.sender] */\n      dup1\n        /* \"contracts/Profile.sol\":4583:4593  msg.sender */\n      caller\n        /* \"contracts/Profile.sol\":4575:4594  profile[msg.sender] */\n      0xffffffffffffffffffffffffffffffffffffffff\n      and\n      0xffffffffffffffffffffffffffffffffffffffff\n      and\n      dup2\n      mstore\n      0x20\n      add\n      swap1\n      dup2\n      mstore\n      0x20\n      add\n      0x00\n      keccak256\n        /* \"contracts/Profile.sol\":4575:4614  profile[msg.sender].certificateAndAward */\n      0x12\n      add\n        /* \"contracts/Profile.sol\":4575:4626  profile[msg.sender].certificateAndAward.certificate */\n      0x00\n      add\n        /* \"contracts/Profile.sol\":4575:4640  profile[msg.sender].certificateAndAward.certificate = certificate */\n      swap1\n      dup1\n      mload\n      swap1\n      0x20\n      add\n      swap1\n      tag_101\n      swap3\n      swap2\n      swap1\n      tag_83\n      jump\t// in\n    tag_101:\n      pop\n        /* \"contracts/Profile.sol\":4420:4648  function createAward(string[] memory award, string[] memory certificate) public {\r... */\n      pop\n      pop\n      jump\t// out\n        /* \"contracts/Profile.sol\":2368:2872  function createContract(string memory email, string memory phone, string memory github, string memory gitlab, string memory linkin) public {\r... */\n    tag_46:\n        /* \"contracts/Profile.sol\":2525:2532  profile */\n      0x00\n        /* \"contracts/Profile.sol\":2525:2544  profile[msg.sender] */\n      dup1\n        /* \"contracts/Profile.sol\":2533:2543  msg.sender */\n      caller\n        /* \"contracts/Profile.sol\":2525:2544  profile[msg.sender] */\n      0xffffffffffffffffffffffffffffffffffffffff\n      and\n      0xffffffffffffffffffffffffffffffffffffffff\n      and\n      dup2\n      mstore\n      0x20\n      add\n      swap1\n      dup2\n      mstore\n      0x20\n      add\n      0x00\n      keccak256\n        /* \"contracts/Profile.sol\":2525:2560  profile[msg.sender].privateContract */\n      0x08\n      add\n      0x00\n        /* \"contracts/Profile.sol\":2518:2560  delete profile[msg.sender].privateContract */\n      dup1\n      dup3\n      add\n      0x00\n      tag_103\n      swap2\n      swap1\n      tag_71\n      jump\t// in\n    tag_103:\n      0x01\n      dup3\n      add\n      0x00\n      tag_104\n      swap2\n      swap1\n      tag_71\n      jump\t// in\n    tag_104:\n      0x02\n      dup3\n      add\n      0x00\n      tag_105\n      swap2\n      swap1\n      tag_71\n      jump\t// in\n    tag_105:\n      0x03\n      dup3\n      add\n      0x00\n      tag_106\n      swap2\n      swap1\n      tag_71\n      jump\t// in\n    tag_106:\n      0x04\n      dup3\n      add\n      0x00\n      tag_107\n      swap2\n      swap1\n      tag_71\n      jump\t// in\n    tag_107:\n      0x05\n      dup3\n      add\n      0x00\n      tag_108\n      swap2\n      swap1\n      tag_71\n      jump\t// in\n    tag_108:\n      pop\n      pop\n        /* \"contracts/Profile.sol\":2615:2620  email */\n      dup5\n        /* \"contracts/Profile.sol\":2571:2578  profile */\n      0x00\n        /* \"contracts/Profile.sol\":2571:2590  profile[msg.sender] */\n      dup1\n        /* \"contracts/Profile.sol\":2579:2589  msg.sender */\n      caller\n        /* \"contracts/Profile.sol\":2571:2590  profile[msg.sender] */\n      0xffffffffffffffffffffffffffffffffffffffff\n      and\n      0xffffffffffffffffffffffffffffffffffffffff\n      and\n      dup2\n      mstore\n      0x20\n      add\n      swap1\n      dup2\n      mstore\n      0x20\n      add\n      0x00\n      keccak256\n        /* \"contracts/Profile.sol\":2571:2606  profile[msg.sender].privateContract */\n      0x08\n      add\n        /* \"contracts/Profile.sol\":2571:2612  profile[msg.sender].privateContract.email */\n      0x01\n      add\n        /* \"contracts/Profile.sol\":2571:2620  profile[msg.sender].privateContract.email = email */\n      swap1\n      dup1\n      mload\n      swap1\n      0x20\n      add\n      swap1\n      tag_109\n      swap3\n      swap2\n      swap1\n      tag_75\n      jump\t// in\n    tag_109:\n      pop\n        /* \"contracts/Profile.sol\":2675:2680  phone */\n      dup4\n        /* \"contracts/Profile.sol\":2631:2638  profile */\n      0x00\n        /* \"contracts/Profile.sol\":2631:2650  profile[msg.sender] */\n      dup1\n        /* \"contracts/Profile.sol\":2639:2649  msg.sender */\n      caller\n        /* \"contracts/Profile.sol\":2631:2650  profile[msg.sender] */\n      0xffffffffffffffffffffffffffffffffffffffff\n      and\n      0xffffffffffffffffffffffffffffffffffffffff\n      and\n      dup2\n      mstore\n      0x20\n      add\n      swap1\n      dup2\n      mstore\n      0x20\n      add\n      0x00\n      keccak256\n        /* \"contracts/Profile.sol\":2631:2666  profile[msg.sender].privateContract */\n      0x08\n      add\n        /* \"contracts/Profile.sol\":2631:2672  profile[msg.sender].privateContract.phone */\n      0x02\n      add\n        /* \"contracts/Profile.sol\":2631:2680  profile[msg.sender].privateContract.phone = phone */\n      swap1\n      dup1\n      mload\n      swap1\n      0x20\n      add\n      swap1\n      tag_110\n      swap3\n      swap2\n      swap1\n      tag_75\n      jump\t// in\n    tag_110:\n      pop\n        /* \"contracts/Profile.sol\":2736:2742  github */\n      dup3\n        /* \"contracts/Profile.sol\":2691:2698  profile */\n      0x00\n        /* \"contracts/Profile.sol\":2691:2710  profile[msg.sender] */\n      dup1\n        /* \"contracts/Profile.sol\":2699:2709  msg.sender */\n      caller\n        /* \"contracts/Profile.sol\":2691:2710  profile[msg.sender] */\n      0xffffffffffffffffffffffffffffffffffffffff\n      and\n      0xffffffffffffffffffffffffffffffffffffffff\n      and\n      dup2\n      mstore\n      0x20\n      add\n      swap1\n      dup2\n      mstore\n      0x20\n      add\n      0x00\n      keccak256\n        /* \"contracts/Profile.sol\":2691:2726  profile[msg.sender].privateContract */\n      0x08\n      add\n        /* \"contracts/Profile.sol\":2691:2733  profile[msg.sender].privateContract.github */\n      0x03\n      add\n        /* \"contracts/Profile.sol\":2691:2742  profile[msg.sender].privateContract.github = github */\n      swap1\n      dup1\n      mload\n      swap1\n      0x20\n      add\n      swap1\n      tag_111\n      swap3\n      swap2\n      swap1\n      tag_75\n      jump\t// in\n    tag_111:\n      pop\n        /* \"contracts/Profile.sol\":2797:2803  gitlab */\n      dup2\n        /* \"contracts/Profile.sol\":2753:2760  profile */\n      0x00\n        /* \"contracts/Profile.sol\":2753:2772  profile[msg.sender] */\n      dup1\n        /* \"contracts/Profile.sol\":2761:2771  msg.sender */\n      caller\n        /* \"contracts/Profile.sol\":2753:2772  profile[msg.sender] */\n      0xffffffffffffffffffffffffffffffffffffffff\n      and\n      0xffffffffffffffffffffffffffffffffffffffff\n      and\n      dup2\n      mstore\n      0x20\n      add\n      swap1\n      dup2\n      mstore\n      0x20\n      add\n      0x00\n      keccak256\n        /* \"contracts/Profile.sol\":2753:2788  profile[msg.sender].privateContract */\n      0x08\n      add\n        /* \"contracts/Profile.sol\":2753:2794  profile[msg.sender].privateContract.phone */\n      0x02\n      add\n        /* \"contracts/Profile.sol\":2753:2803  profile[msg.sender].privateContract.phone = gitlab */\n      swap1\n      dup1\n      mload\n      swap1\n      0x20\n      add\n      swap1\n      tag_112\n      swap3\n      swap2\n      swap1\n      tag_75\n      jump\t// in\n    tag_112:\n      pop\n        /* \"contracts/Profile.sol\":2858:2864  linkin */\n      dup1\n        /* \"contracts/Profile.sol\":2814:2821  profile */\n      0x00\n        /* \"contracts/Profile.sol\":2814:2833  profile[msg.sender] */\n      dup1\n        /* \"contracts/Profile.sol\":2822:2832  msg.sender */\n      caller\n        /* \"contracts/Profile.sol\":2814:2833  profile[msg.sender] */\n      0xffffffffffffffffffffffffffffffffffffffff\n      and\n      0xffffffffffffffffffffffffffffffffffffffff\n      and\n      dup2\n      mstore\n      0x20\n      add\n      swap1\n      dup2\n      mstore\n      0x20\n      add\n      0x00\n      keccak256\n        /* \"contracts/Profile.sol\":2814:2849  profile[msg.sender].privateContract */\n      0x08\n      add\n        /* \"contracts/Profile.sol\":2814:2855  profile[msg.sender].privateContract.email */\n      0x01\n      add\n        /* \"contracts/Profile.sol\":2814:2864  profile[msg.sender].privateContract.email = linkin */\n      swap1\n      dup1\n      mload\n      swap1\n      0x20\n      add\n      swap1\n      tag_113\n      swap3\n      swap2\n      swap1\n      tag_75\n      jump\t// in\n    tag_113:\n      pop\n        /* \"contracts/Profile.sol\":2368:2872  function createContract(string memory email, string memory phone, string memory github, string memory gitlab, string memory linkin) public {\r... */\n      pop\n      pop\n      pop\n      pop\n      pop\n      jump\t// out\n        /* \"contracts/Profile.sol\":1597:2313  function createInformation(string memory firstName, string memory middleName, string memory lastName,  string memory profileImage, string memory aboutMe, string memory position) public {\r... */\n    tag_50:\n        /* \"contracts/Profile.sol\":1837:1846  firstName */\n      dup6\n        /* \"contracts/Profile.sol\":1793:1800  profile */\n      0x00\n        /* \"contracts/Profile.sol\":1793:1812  profile[msg.sender] */\n      dup1\n        /* \"contracts/Profile.sol\":1801:1811  msg.sender */\n      caller\n        /* \"contracts/Profile.sol\":1793:1812  profile[msg.sender] */\n      0xffffffffffffffffffffffffffffffffffffffff\n      and\n      0xffffffffffffffffffffffffffffffffffffffff\n      and\n      dup2\n      mstore\n      0x20\n      add\n      swap1\n      dup2\n      mstore\n      0x20\n      add\n      0x00\n      keccak256\n        /* \"contracts/Profile.sol\":1793:1824  profile[msg.sender].information */\n      0x00\n      add\n        /* \"contracts/Profile.sol\":1793:1834  profile[msg.sender].information.firstName */\n      0x03\n      add\n        /* \"contracts/Profile.sol\":1793:1846  profile[msg.sender].information.firstName = firstName */\n      swap1\n      dup1\n      mload\n      swap1\n      0x20\n      add\n      swap1\n      tag_115\n      swap3\n      swap2\n      swap1\n      tag_75\n      jump\t// in\n    tag_115:\n      pop\n        /* \"contracts/Profile.sol\":1902:1912  middleName */\n      dup5\n        /* \"contracts/Profile.sol\":1857:1864  profile */\n      0x00\n        /* \"contracts/Profile.sol\":1857:1876  profile[msg.sender] */\n      dup1\n        /* \"contracts/Profile.sol\":1865:1875  msg.sender */\n      caller\n        /* \"contracts/Profile.sol\":1857:1876  profile[msg.sender] */\n      0xffffffffffffffffffffffffffffffffffffffff\n      and\n      0xffffffffffffffffffffffffffffffffffffffff\n      and\n      dup2\n      mstore\n      0x20\n      add\n      swap1\n      dup2\n      mstore\n      0x20\n      add\n      0x00\n      keccak256\n        /* \"contracts/Profile.sol\":1857:1888  profile[msg.sender].information */\n      0x00\n      add\n        /* \"contracts/Profile.sol\":1857:1899  profile[msg.sender].information.middleName */\n      0x04\n      add\n        /* \"contracts/Profile.sol\":1857:1912  profile[msg.sender].information.middleName = middleName */\n      swap1\n      dup1\n      mload\n      swap1\n      0x20\n      add\n      swap1\n      tag_116\n      swap3\n      swap2\n      swap1\n      tag_75\n      jump\t// in\n    tag_116:\n      pop\n        /* \"contracts/Profile.sol\":1966:1974  lastName */\n      dup4\n        /* \"contracts/Profile.sol\":1923:1930  profile */\n      0x00\n        /* \"contracts/Profile.sol\":1923:1942  profile[msg.sender] */\n      dup1\n        /* \"contracts/Profile.sol\":1931:1941  msg.sender */\n      caller\n        /* \"contracts/Profile.sol\":1923:1942  profile[msg.sender] */\n      0xffffffffffffffffffffffffffffffffffffffff\n      and\n      0xffffffffffffffffffffffffffffffffffffffff\n      and\n      dup2\n      mstore\n      0x20\n      add\n      swap1\n      dup2\n      mstore\n      0x20\n      add\n      0x00\n      keccak256\n        /* \"contracts/Profile.sol\":1923:1954  profile[msg.sender].information */\n      0x00\n      add\n        /* \"contracts/Profile.sol\":1923:1963  profile[msg.sender].information.lastName */\n      0x05\n      add\n        /* \"contracts/Profile.sol\":1923:1974  profile[msg.sender].information.lastName = lastName */\n      swap1\n      dup1\n      mload\n      swap1\n      0x20\n      add\n      swap1\n      tag_117\n      swap3\n      swap2\n      swap1\n      tag_75\n      jump\t// in\n    tag_117:\n      pop\n        /* \"contracts/Profile.sol\":2032:2044  profileImage */\n      dup3\n        /* \"contracts/Profile.sol\":1985:1992  profile */\n      0x00\n        /* \"contracts/Profile.sol\":1985:2004  profile[msg.sender] */\n      dup1\n        /* \"contracts/Profile.sol\":1993:2003  msg.sender */\n      caller\n        /* \"contracts/Profile.sol\":1985:2004  profile[msg.sender] */\n      0xffffffffffffffffffffffffffffffffffffffff\n      and\n      0xffffffffffffffffffffffffffffffffffffffff\n      and\n      dup2\n      mstore\n      0x20\n      add\n      swap1\n      dup2\n      mstore\n      0x20\n      add\n      0x00\n      keccak256\n        /* \"contracts/Profile.sol\":1985:2016  profile[msg.sender].information */\n      0x00\n      add\n        /* \"contracts/Profile.sol\":1985:2029  profile[msg.sender].information.profileImage */\n      0x06\n      add\n        /* \"contracts/Profile.sol\":1985:2044  profile[msg.sender].information.profileImage = profileImage */\n      swap1\n      dup1\n      mload\n      swap1\n      0x20\n      add\n      swap1\n      tag_118\n      swap3\n      swap2\n      swap1\n      tag_75\n      jump\t// in\n    tag_118:\n      pop\n        /* \"contracts/Profile.sol\":2097:2104  aboutMe */\n      dup2\n        /* \"contracts/Profile.sol\":2055:2062  profile */\n      0x00\n        /* \"contracts/Profile.sol\":2055:2074  profile[msg.sender] */\n      dup1\n        /* \"contracts/Profile.sol\":2063:2073  msg.sender */\n      caller\n        /* \"contracts/Profile.sol\":2055:2074  profile[msg.sender] */\n      0xffffffffffffffffffffffffffffffffffffffff\n      and\n      0xffffffffffffffffffffffffffffffffffffffff\n      and\n      dup2\n      mstore\n      0x20\n      add\n      swap1\n      dup2\n      mstore\n      0x20\n      add\n      0x00\n      keccak256\n        /* \"contracts/Profile.sol\":2055:2086  profile[msg.sender].information */\n      0x00\n      add\n        /* \"contracts/Profile.sol\":2055:2094  profile[msg.sender].information.aboutMe */\n      0x00\n      add\n        /* \"contracts/Profile.sol\":2055:2104  profile[msg.sender].information.aboutMe = aboutMe */\n      swap1\n      dup1\n      mload\n      swap1\n      0x20\n      add\n      swap1\n      tag_119\n      swap3\n      swap2\n      swap1\n      tag_75\n      jump\t// in\n    tag_119:\n      pop\n        /* \"contracts/Profile.sol\":2158:2166  position */\n      dup1\n        /* \"contracts/Profile.sol\":2115:2122  profile */\n      0x00\n        /* \"contracts/Profile.sol\":2115:2134  profile[msg.sender] */\n      dup1\n        /* \"contracts/Profile.sol\":2123:2133  msg.sender */\n      caller\n        /* \"contracts/Profile.sol\":2115:2134  profile[msg.sender] */\n      0xffffffffffffffffffffffffffffffffffffffff\n      and\n      0xffffffffffffffffffffffffffffffffffffffff\n      and\n      dup2\n      mstore\n      0x20\n      add\n      swap1\n      dup2\n      mstore\n      0x20\n      add\n      0x00\n      keccak256\n        /* \"contracts/Profile.sol\":2115:2146  profile[msg.sender].information */\n      0x00\n      add\n        /* \"contracts/Profile.sol\":2115:2155  profile[msg.sender].information.position */\n      0x01\n      add\n        /* \"contracts/Profile.sol\":2115:2166  profile[msg.sender].information.position = position */\n      swap1\n      dup1\n      mload\n      swap1\n      0x20\n      add\n      swap1\n      tag_120\n      swap3\n      swap2\n      swap1\n      tag_75\n      jump\t// in\n    tag_120:\n      pop\n        /* \"contracts/Profile.sol\":2223:2233  msg.sender */\n      caller\n        /* \"contracts/Profile.sol\":2177:2184  profile */\n      0x00\n        /* \"contracts/Profile.sol\":2177:2196  profile[msg.sender] */\n      dup1\n        /* \"contracts/Profile.sol\":2185:2195  msg.sender */\n      caller\n        /* \"contracts/Profile.sol\":2177:2196  profile[msg.sender] */\n      0xffffffffffffffffffffffffffffffffffffffff\n      and\n      0xffffffffffffffffffffffffffffffffffffffff\n      and\n      dup2\n      mstore\n      0x20\n      add\n      swap1\n      dup2\n      mstore\n      0x20\n      add\n      0x00\n      keccak256\n        /* \"contracts/Profile.sol\":2177:2208  profile[msg.sender].information */\n      0x00\n      add\n        /* \"contracts/Profile.sol\":2177:2220  profile[msg.sender].information.userAddress */\n      0x02\n      add\n      0x00\n        /* \"contracts/Profile.sol\":2177:2233  profile[msg.sender].information.userAddress = msg.sender */\n      0x0100\n      exp\n      dup2\n      sload\n      dup2\n      0xffffffffffffffffffffffffffffffffffffffff\n      mul\n      not\n      and\n      swap1\n      dup4\n      0xffffffffffffffffffffffffffffffffffffffff\n      and\n      mul\n      or\n      swap1\n      sstore\n      pop\n        /* \"contracts/Profile.sol\":2290:2305  block.timestamp */\n      timestamp\n        /* \"contracts/Profile.sol\":2245:2252  profile */\n      0x00\n        /* \"contracts/Profile.sol\":2245:2264  profile[msg.sender] */\n      dup1\n        /* \"contracts/Profile.sol\":2253:2263  msg.sender */\n      caller\n        /* \"contracts/Profile.sol\":2245:2264  profile[msg.sender] */\n      0xffffffffffffffffffffffffffffffffffffffff\n      and\n      0xffffffffffffffffffffffffffffffffffffffff\n      and\n      dup2\n      mstore\n      0x20\n      add\n      swap1\n      dup2\n      mstore\n      0x20\n      add\n      0x00\n      keccak256\n        /* \"contracts/Profile.sol\":2245:2276  profile[msg.sender].information */\n      0x00\n      add\n        /* \"contracts/Profile.sol\":2245:2287  profile[msg.sender].information.createDate */\n      0x07\n      add\n        /* \"contracts/Profile.sol\":2245:2305  profile[msg.sender].information.createDate = block.timestamp */\n      dup2\n      swap1\n      sstore\n      pop\n        /* \"contracts/Profile.sol\":1597:2313  function createInformation(string memory firstName, string memory middleName, string memory lastName,  string memory profileImage, string memory aboutMe, string memory position) public {\r... */\n      pop\n      pop\n      pop\n      pop\n      pop\n      pop\n      jump\t// out\n        /* \"contracts/Profile.sol\":5018:5110  function delInformaion() external  {\r... */\n    tag_52:\n        /* \"contracts/Profile.sol\":5071:5078  profile */\n      0x00\n        /* \"contracts/Profile.sol\":5071:5090  profile[msg.sender] */\n      dup1\n        /* \"contracts/Profile.sol\":5079:5089  msg.sender */\n      caller\n        /* \"contracts/Profile.sol\":5071:5090  profile[msg.sender] */\n      0xffffffffffffffffffffffffffffffffffffffff\n      and\n      0xffffffffffffffffffffffffffffffffffffffff\n      and\n      dup2\n      mstore\n      0x20\n      add\n      swap1\n      dup2\n      mstore\n      0x20\n      add\n      0x00\n      keccak256\n        /* \"contracts/Profile.sol\":5071:5102  profile[msg.sender].information */\n      0x00\n      add\n      0x00\n        /* \"contracts/Profile.sol\":5064:5102  delete profile[msg.sender].information */\n      dup1\n      dup3\n      add\n      0x00\n      tag_122\n      swap2\n      swap1\n      tag_71\n      jump\t// in\n    tag_122:\n      0x01\n      dup3\n      add\n      0x00\n      tag_123\n      swap2\n      swap1\n      tag_71\n      jump\t// in\n    tag_123:\n      0x02\n      dup3\n      add\n      exp(0x0100, 0x00)\n      dup2\n      sload\n      swap1\n      0xffffffffffffffffffffffffffffffffffffffff\n      mul\n      not\n      and\n      swap1\n      sstore\n      0x03\n      dup3\n      add\n      0x00\n      tag_124\n      swap2\n      swap1\n      tag_71\n      jump\t// in\n    tag_124:\n      0x04\n      dup3\n      add\n      0x00\n      tag_125\n      swap2\n      swap1\n      tag_71\n      jump\t// in\n    tag_125:\n      0x05\n      dup3\n      add\n      0x00\n      tag_126\n      swap2\n      swap1\n      tag_71\n      jump\t// in\n    tag_126:\n      0x06\n      dup3\n      add\n      0x00\n      tag_127\n      swap2\n      swap1\n      tag_71\n      jump\t// in\n    tag_127:\n      0x07\n      dup3\n      add\n      0x00\n      swap1\n      sstore\n      pop\n      pop\n        /* \"contracts/Profile.sol\":5018:5110  function delInformaion() external  {\r... */\n      jump\t// out\n        /* \"contracts/Profile.sol\":380:420  mapping (address => Bio) public  profile */\n    tag_56:\n      mstore(0x20, 0x00)\n      dup1\n      0x00\n      mstore\n      keccak256(0x00, 0x40)\n      0x00\n      swap2\n      pop\n      swap1\n      pop\n      dup1\n      0x00\n      add\n      mload(0x40)\n      dup1\n      0x0100\n      add\n      0x40\n      mstore\n      swap1\n      dup2\n      0x00\n      dup3\n      add\n      dup1\n      sload\n      tag_128\n      swap1\n      tag_129\n      jump\t// in\n    tag_128:\n      dup1\n      0x1f\n      add\n      0x20\n      dup1\n      swap2\n      div\n      mul\n      0x20\n      add\n      mload(0x40)\n      swap1\n      dup2\n      add\n      0x40\n      mstore\n      dup1\n      swap3\n      swap2\n      swap1\n      dup2\n      dup2\n      mstore\n      0x20\n      add\n      dup3\n      dup1\n      sload\n      tag_130\n      swap1\n      tag_129\n      jump\t// in\n    tag_130:\n      dup1\n      iszero\n      tag_131\n      jumpi\n      dup1\n      0x1f\n      lt\n      tag_132\n      jumpi\n      0x0100\n      dup1\n      dup4\n      sload\n      div\n      mul\n      dup4\n      mstore\n      swap2\n      0x20\n      add\n      swap2\n      jump(tag_131)\n    tag_132:\n      dup3\n      add\n      swap2\n      swap1\n      0x00\n      mstore\n      keccak256(0x00, 0x20)\n      swap1\n    tag_133:\n      dup2\n      sload\n      dup2\n      mstore\n      swap1\n      0x01\n      add\n      swap1\n      0x20\n      add\n      dup1\n      dup4\n      gt\n      tag_133\n      jumpi\n      dup3\n      swap1\n      sub\n      0x1f\n      and\n      dup3\n      add\n      swap2\n    tag_131:\n      pop\n      pop\n      pop\n      pop\n      pop\n      dup2\n      mstore\n      0x20\n      add\n      0x01\n      dup3\n      add\n      dup1\n      sload\n      tag_134\n      swap1\n      tag_129\n      jump\t// in\n    tag_134:\n      dup1\n      0x1f\n      add\n      0x20\n      dup1\n      swap2\n      div\n      mul\n      0x20\n      add\n      mload(0x40)\n      swap1\n      dup2\n      add\n      0x40\n      mstore\n      dup1\n      swap3\n      swap2\n      swap1\n      dup2\n      dup2\n      mstore\n      0x20\n      add\n      dup3\n      dup1\n      sload\n      tag_135\n      swap1\n      tag_129\n      jump\t// in\n    tag_135:\n      dup1\n      iszero\n      tag_136\n      jumpi\n      dup1\n      0x1f\n      lt\n      tag_137\n      jumpi\n      0x0100\n      dup1\n      dup4\n      sload\n      div\n      mul\n      dup4\n      mstore\n      swap2\n      0x20\n      add\n      swap2\n      jump(tag_136)\n    tag_137:\n      dup3\n      add\n      swap2\n      swap1\n      0x00\n      mstore\n      keccak256(0x00, 0x20)\n      swap1\n    tag_138:\n      dup2\n      sload\n      dup2\n      mstore\n      swap1\n      0x01\n      add\n      swap1\n      0x20\n      add\n      dup1\n      dup4\n      gt\n      tag_138\n      jumpi\n      dup3\n      swap1\n      sub\n      0x1f\n      and\n      dup3\n      add\n      swap2\n    tag_136:\n      pop\n      pop\n      pop\n      pop\n      pop\n      dup2\n      mstore\n      0x20\n      add\n      0x02\n      dup3\n      add\n      0x00\n      swap1\n      sload\n      swap1\n      0x0100\n      exp\n      swap1\n      div\n      0xffffffffffffffffffffffffffffffffffffffff\n      and\n      0xffffffffffffffffffffffffffffffffffffffff\n      and\n      0xffffffffffffffffffffffffffffffffffffffff\n      and\n      dup2\n      mstore\n      0x20\n      add\n      0x03\n      dup3\n      add\n      dup1\n      sload\n      tag_139\n      swap1\n      tag_129\n      jump\t// in\n    tag_139:\n      dup1\n      0x1f\n      add\n      0x20\n      dup1\n      swap2\n      div\n      mul\n      0x20\n      add\n      mload(0x40)\n      swap1\n      dup2\n      add\n      0x40\n      mstore\n      dup1\n      swap3\n      swap2\n      swap1\n      dup2\n      dup2\n      mstore\n      0x20\n      add\n      dup3\n      dup1\n      sload\n      tag_140\n      swap1\n      tag_129\n      jump\t// in\n    tag_140:\n      dup1\n      iszero\n      tag_141\n      jumpi\n      dup1\n      0x1f\n      lt\n      tag_142\n      jumpi\n      0x0100\n      dup1\n      dup4\n      sload\n      div\n      mul\n      dup4\n      mstore\n      swap2\n      0x20\n      add\n      swap2\n      jump(tag_141)\n    tag_142:\n      dup3\n      add\n      swap2\n      swap1\n      0x00\n      mstore\n      keccak256(0x00, 0x20)\n      swap1\n    tag_143:\n      dup2\n      sload\n      dup2\n      mstore\n      swap1\n      0x01\n      add\n      swap1\n      0x20\n      add\n      dup1\n      dup4\n      gt\n      tag_143\n      jumpi\n      dup3\n      swap1\n      sub\n      0x1f\n      and\n      dup3\n      add\n      swap2\n    tag_141:\n      pop\n      pop\n      pop\n      pop\n      pop\n      dup2\n      mstore\n      0x20\n      add\n      0x04\n      dup3\n      add\n      dup1\n      sload\n      tag_144\n      swap1\n      tag_129\n      jump\t// in\n    tag_144:\n      dup1\n      0x1f\n      add\n      0x20\n      dup1\n      swap2\n      div\n      mul\n      0x20\n      add\n      mload(0x40)\n      swap1\n      dup2\n      add\n      0x40\n      mstore\n      dup1\n      swap3\n      swap2\n      swap1\n      dup2\n      dup2\n      mstore\n      0x20\n      add\n      dup3\n      dup1\n      sload\n      tag_145\n      swap1\n      tag_129\n      jump\t// in\n    tag_145:\n      dup1\n      iszero\n      tag_146\n      jumpi\n      dup1\n      0x1f\n      lt\n      tag_147\n      jumpi\n      0x0100\n      dup1\n      dup4\n      sload\n      div\n      mul\n      dup4\n      mstore\n      swap2\n      0x20\n      add\n      swap2\n      jump(tag_146)\n    tag_147:\n      dup3\n      add\n      swap2\n      swap1\n      0x00\n      mstore\n      keccak256(0x00, 0x20)\n      swap1\n    tag_148:\n      dup2\n      sload\n      dup2\n      mstore\n      swap1\n      0x01\n      add\n      swap1\n      0x20\n      add\n      dup1\n      dup4\n      gt\n      tag_148\n      jumpi\n      dup3\n      swap1\n      sub\n      0x1f\n      and\n      dup3\n      add\n      swap2\n    tag_146:\n      pop\n      pop\n      pop\n      pop\n      pop\n      dup2\n      mstore\n      0x20\n      add\n      0x05\n      dup3\n      add\n      dup1\n      sload\n      tag_149\n      swap1\n      tag_129\n      jump\t// in\n    tag_149:\n      dup1\n      0x1f\n      add\n      0x20\n      dup1\n      swap2\n      div\n      mul\n      0x20\n      add\n      mload(0x40)\n      swap1\n      dup2\n      add\n      0x40\n      mstore\n      dup1\n      swap3\n      swap2\n      swap1\n      dup2\n      dup2\n      mstore\n      0x20\n      add\n      dup3\n      dup1\n      sload\n      tag_150\n      swap1\n      tag_129\n      jump\t// in\n    tag_150:\n      dup1\n      iszero\n      tag_151\n      jumpi\n      dup1\n      0x1f\n      lt\n      tag_152\n      jumpi\n      0x0100\n      dup1\n      dup4\n      sload\n      div\n      mul\n      dup4\n      mstore\n      swap2\n      0x20\n      add\n      swap2\n      jump(tag_151)\n    tag_152:\n      dup3\n      add\n      swap2\n      swap1\n      0x00\n      mstore\n      keccak256(0x00, 0x20)\n      swap1\n    tag_153:\n      dup2\n      sload\n      dup2\n      mstore\n      swap1\n      0x01\n      add\n      swap1\n      0x20\n      add\n      dup1\n      dup4\n      gt\n      tag_153\n      jumpi\n      dup3\n      swap1\n      sub\n      0x1f\n      and\n      dup3\n      add\n      swap2\n    tag_151:\n      pop\n      pop\n      pop\n      pop\n      pop\n      dup2\n      mstore\n      0x20\n      add\n      0x06\n      dup3\n      add\n      dup1\n      sload\n      tag_154\n      swap1\n      tag_129\n      jump\t// in\n    tag_154:\n      dup1\n      0x1f\n      add\n      0x20\n      dup1\n      swap2\n      div\n      mul\n      0x20\n      add\n      mload(0x40)\n      swap1\n      dup2\n      add\n      0x40\n      mstore\n      dup1\n      swap3\n      swap2\n      swap1\n      dup2\n      dup2\n      mstore\n      0x20\n      add\n      dup3\n      dup1\n      sload\n      tag_155\n      swap1\n      tag_129\n      jump\t// in\n    tag_155:\n      dup1\n      iszero\n      tag_156\n      jumpi\n      dup1\n      0x1f\n      lt\n      tag_157\n      jumpi\n      0x0100\n      dup1\n      dup4\n      sload\n      div\n      mul\n      dup4\n      mstore\n      swap2\n      0x20\n      add\n      swap2\n      jump(tag_156)\n    tag_157:\n      dup3\n      add\n      swap2\n      swap1\n      0x00\n      mstore\n      keccak256(0x00, 0x20)\n      swap1\n    tag_158:\n      dup2\n      sload\n      dup2\n      mstore\n      swap1\n      0x01\n      add\n      swap1\n      0x20\n      add\n      dup1\n      dup4\n      gt\n      tag_158\n      jumpi\n      dup3\n      swap1\n      sub\n      0x1f\n      and\n      dup3\n      add\n      swap2\n    tag_156:\n      pop\n      pop\n      pop\n      pop\n      pop\n      dup2\n      mstore\n      0x20\n      add\n      0x07\n      dup3\n      add\n      sload\n      dup2\n      mstore\n      pop\n      pop\n      swap1\n      dup1\n      0x08\n      add\n      mload(0x40)\n      dup1\n      0xc0\n      add\n      0x40\n      mstore\n      swap1\n      dup2\n      0x00\n      dup3\n      add\n      dup1\n      sload\n      tag_159\n      swap1\n      tag_129\n      jump\t// in\n    tag_159:\n      dup1\n      0x1f\n      add\n      0x20\n      dup1\n      swap2\n      div\n      mul\n      0x20\n      add\n      mload(0x40)\n      swap1\n      dup2\n      add\n      0x40\n      mstore\n      dup1\n      swap3\n      swap2\n      swap1\n      dup2\n      dup2\n      mstore\n      0x20\n      add\n      dup3\n      dup1\n      sload\n      tag_160\n      swap1\n      tag_129\n      jump\t// in\n    tag_160:\n      dup1\n      iszero\n      tag_161\n      jumpi\n      dup1\n      0x1f\n      lt\n      tag_162\n      jumpi\n      0x0100\n      dup1\n      dup4\n      sload\n      div\n      mul\n      dup4\n      mstore\n      swap2\n      0x20\n      add\n      swap2\n      jump(tag_161)\n    tag_162:\n      dup3\n      add\n      swap2\n      swap1\n      0x00\n      mstore\n      keccak256(0x00, 0x20)\n      swap1\n    tag_163:\n      dup2\n      sload\n      dup2\n      mstore\n      swap1\n      0x01\n      add\n      swap1\n      0x20\n      add\n      dup1\n      dup4\n      gt\n      tag_163\n      jumpi\n      dup3\n      swap1\n      sub\n      0x1f\n      and\n      dup3\n      add\n      swap2\n    tag_161:\n      pop\n      pop\n      pop\n      pop\n      pop\n      dup2\n      mstore\n      0x20\n      add\n      0x01\n      dup3\n      add\n      dup1\n      sload\n      tag_164\n      swap1\n      tag_129\n      jump\t// in\n    tag_164:\n      dup1\n      0x1f\n      add\n      0x20\n      dup1\n      swap2\n      div\n      mul\n      0x20\n      add\n      mload(0x40)\n      swap1\n      dup2\n      add\n      0x40\n      mstore\n      dup1\n      swap3\n      swap2\n      swap1\n      dup2\n      dup2\n      mstore\n      0x20\n      add\n      dup3\n      dup1\n      sload\n      tag_165\n      swap1\n      tag_129\n      jump\t// in\n    tag_165:\n      dup1\n      iszero\n      tag_166\n      jumpi\n      dup1\n      0x1f\n      lt\n      tag_167\n      jumpi\n      0x0100\n      dup1\n      dup4\n      sload\n      div\n      mul\n      dup4\n      mstore\n      swap2\n      0x20\n      add\n      swap2\n      jump(tag_166)\n    tag_167:\n      dup3\n      add\n      swap2\n      swap1\n      0x00\n      mstore\n      keccak256(0x00, 0x20)\n      swap1\n    tag_168:\n      dup2\n      sload\n      dup2\n      mstore\n      swap1\n      0x01\n      add\n      swap1\n      0x20\n      add\n      dup1\n      dup4\n      gt\n      tag_168\n      jumpi\n      dup3\n      swap1\n      sub\n      0x1f\n      and\n      dup3\n      add\n      swap2\n    tag_166:\n      pop\n      pop\n      pop\n      pop\n      pop\n      dup2\n      mstore\n      0x20\n      add\n      0x02\n      dup3\n      add\n      dup1\n      sload\n      tag_169\n      swap1\n      tag_129\n      jump\t// in\n    tag_169:\n      dup1\n      0x1f\n      add\n      0x20\n      dup1\n      swap2\n      div\n      mul\n      0x20\n      add\n      mload(0x40)\n      swap1\n      dup2\n      add\n      0x40\n      mstore\n      dup1\n      swap3\n      swap2\n      swap1\n      dup2\n      dup2\n      mstore\n      0x20\n      add\n      dup3\n      dup1\n      sload\n      tag_170\n      swap1\n      tag_129\n      jump\t// in\n    tag_170:\n      dup1\n      iszero\n      tag_171\n      jumpi\n      dup1\n      0x1f\n      lt\n      tag_172\n      jumpi\n      0x0100\n      dup1\n      dup4\n      sload\n      div\n      mul\n      dup4\n      mstore\n      swap2\n      0x20\n      add\n      swap2\n      jump(tag_171)\n    tag_172:\n      dup3\n      add\n      swap2\n      swap1\n      0x00\n      mstore\n      keccak256(0x00, 0x20)\n      swap1\n    tag_173:\n      dup2\n      sload\n      dup2\n      mstore\n      swap1\n      0x01\n      add\n      swap1\n      0x20\n      add\n      dup1\n      dup4\n      gt\n      tag_173\n      jumpi\n      dup3\n      swap1\n      sub\n      0x1f\n      and\n      dup3\n      add\n      swap2\n    tag_171:\n      pop\n      pop\n      pop\n      pop\n      pop\n      dup2\n      mstore\n      0x20\n      add\n      0x03\n      dup3\n      add\n      dup1\n      sload\n      tag_174\n      swap1\n      tag_129\n      jump\t// in\n    tag_174:\n      dup1\n      0x1f\n      add\n      0x20\n      dup1\n      swap2\n      div\n      mul\n      0x20\n      add\n      mload(0x40)\n      swap1\n      dup2\n      add\n      0x40\n      mstore\n      dup1\n      swap3\n      swap2\n      swap1\n      dup2\n      dup2\n      mstore\n      0x20\n      add\n      dup3\n      dup1\n      sload\n      tag_175\n      swap1\n      tag_129\n      jump\t// in\n    tag_175:\n      dup1\n      iszero\n      tag_176\n      jumpi\n      dup1\n      0x1f\n      lt\n      tag_177\n      jumpi\n      0x0100\n      dup1\n      dup4\n      sload\n      div\n      mul\n      dup4\n      mstore\n      swap2\n      0x20\n      add\n      swap2\n      jump(tag_176)\n    tag_177:\n      dup3\n      add\n      swap2\n      swap1\n      0x00\n      mstore\n      keccak256(0x00, 0x20)\n      swap1\n    tag_178:\n      dup2\n      sload\n      dup2\n      mstore\n      swap1\n      0x01\n      add\n      swap1\n      0x20\n      add\n      dup1\n      dup4\n      gt\n      tag_178\n      jumpi\n      dup3\n      swap1\n      sub\n      0x1f\n      and\n      dup3\n      add\n      swap2\n    tag_176:\n      pop\n      pop\n      pop\n      pop\n      pop\n      dup2\n      mstore\n      0x20\n      add\n      0x04\n      dup3\n      add\n      dup1\n      sload\n      tag_179\n      swap1\n      tag_129\n      jump\t// in\n    tag_179:\n      dup1\n      0x1f\n      add\n      0x20\n      dup1\n      swap2\n      div\n      mul\n      0x20\n      add\n      mload(0x40)\n      swap1\n      dup2\n      add\n      0x40\n      mstore\n      dup1\n      swap3\n      swap2\n      swap1\n      dup2\n      dup2\n      mstore\n      0x20\n      add\n      dup3\n      dup1\n      sload\n      tag_180\n      swap1\n      tag_129\n      jump\t// in\n    tag_180:\n      dup1\n      iszero\n      tag_181\n      jumpi\n      dup1\n      0x1f\n      lt\n      tag_182\n      jumpi\n      0x0100\n      dup1\n      dup4\n      sload\n      div\n      mul\n      dup4\n      mstore\n      swap2\n      0x20\n      add\n      swap2\n      jump(tag_181)\n    tag_182:\n      dup3\n      add\n      swap2\n      swap1\n      0x00\n      mstore\n      keccak256(0x00, 0x20)\n      swap1\n    tag_183:\n      dup2\n      sload\n      dup2\n      mstore\n      swap1\n      0x01\n      add\n      swap1\n      0x20\n      add\n      dup1\n      dup4\n      gt\n      tag_183\n      jumpi\n      dup3\n      swap1\n      sub\n      0x1f\n      and\n      dup3\n      add\n      swap2\n    tag_181:\n      pop\n      pop\n      pop\n      pop\n      pop\n      dup2\n      mstore\n      0x20\n      add\n      0x05\n      dup3\n      add\n      dup1\n      sload\n      tag_184\n      swap1\n      tag_129\n      jump\t// in\n    tag_184:\n      dup1\n      0x1f\n      add\n      0x20\n      dup1\n      swap2\n      div\n      mul\n      0x20\n      add\n      mload(0x40)\n      swap1\n      dup2\n      add\n      0x40\n      mstore\n      dup1\n      swap3\n      swap2\n      swap1\n      dup2\n      dup2\n      mstore\n      0x20\n      add\n      dup3\n      dup1\n      sload\n      tag_185\n      swap1\n      tag_129\n      jump\t// in\n    tag_185:\n      dup1\n      iszero\n      tag_186\n      jumpi\n      dup1\n      0x1f\n      lt\n      tag_187\n      jumpi\n      0x0100\n      dup1\n      dup4\n      sload\n      div\n      mul\n      dup4\n      mstore\n      swap2\n      0x20\n      add\n      swap2\n      jump(tag_186)\n    tag_187:\n      dup3\n      add\n      swap2\n      swap1\n      0x00\n      mstore\n      keccak256(0x00, 0x20)\n      swap1\n    tag_188:\n      dup2\n      sload\n      dup2\n      mstore\n      swap1\n      0x01\n      add\n      swap1\n      0x20\n      add\n      dup1\n      dup4\n      gt\n      tag_188\n      jumpi\n      dup3\n      swap1\n      sub\n      0x1f\n      and\n      dup3\n      add\n      swap2\n    tag_186:\n      pop\n      pop\n      pop\n      pop\n      pop\n      dup2\n      mstore\n      pop\n      pop\n      swap1\n      dup1\n      0x0e\n      add\n      mload(0x40)\n      dup1\n      0x60\n      add\n      0x40\n      mstore\n      swap1\n      dup2\n      0x00\n      dup3\n      add\n      dup1\n      sload\n      dup1\n      0x20\n      mul\n      0x20\n      add\n      mload(0x40)\n      swap1\n      dup2\n      add\n      0x40\n      mstore\n      dup1\n      swap3\n      swap2\n      swap1\n      dup2\n      dup2\n      mstore\n      0x20\n      add\n      0x00\n      swap1\n    tag_189:\n      dup3\n      dup3\n      lt\n      iszero\n      tag_190\n      jumpi\n      dup4\n      dup3\n      swap1\n      0x00\n      mstore\n      keccak256(0x00, 0x20)\n      add\n      dup1\n      sload\n      tag_192\n      swap1\n      tag_129\n      jump\t// in\n    tag_192:\n      dup1\n      0x1f\n      add\n      0x20\n      dup1\n      swap2\n      div\n      mul\n      0x20\n      add\n      mload(0x40)\n      swap1\n      dup2\n      add\n      0x40\n      mstore\n      dup1\n      swap3\n      swap2\n      swap1\n      dup2\n      dup2\n      mstore\n      0x20\n      add\n      dup3\n      dup1\n      sload\n      tag_193\n      swap1\n      tag_129\n      jump\t// in\n    tag_193:\n      dup1\n      iszero\n      tag_194\n      jumpi\n      dup1\n      0x1f\n      lt\n      tag_195\n      jumpi\n      0x0100\n      dup1\n      dup4\n      sload\n      div\n      mul\n      dup4\n      mstore\n      swap2\n      0x20\n      add\n      swap2\n      jump(tag_194)\n    tag_195:\n      dup3\n      add\n      swap2\n      swap1\n      0x00\n      mstore\n      keccak256(0x00, 0x20)\n      swap1\n    tag_196:\n      dup2\n      sload\n      dup2\n      mstore\n      swap1\n      0x01\n      add\n      swap1\n      0x20\n      add\n      dup1\n      dup4\n      gt\n      tag_196\n      jumpi\n      dup3\n      swap1\n      sub\n      0x1f\n      and\n      dup3\n      add\n      swap2\n    tag_194:\n      pop\n      pop\n      pop\n      pop\n      pop\n      dup2\n      mstore\n      0x20\n      add\n      swap1\n      0x01\n      add\n      swap1\n      jump(tag_189)\n    tag_190:\n      pop\n      pop\n      pop\n      pop\n      dup2\n      mstore\n      0x20\n      add\n      0x01\n      dup3\n      add\n      dup1\n      sload\n      dup1\n      0x20\n      mul\n      0x20\n      add\n      mload(0x40)\n      swap1\n      dup2\n      add\n      0x40\n      mstore\n      dup1\n      swap3\n      swap2\n      swap1\n      dup2\n      dup2\n      mstore\n      0x20\n      add\n      0x00\n      swap1\n    tag_197:\n      dup3\n      dup3\n      lt\n      iszero\n      tag_198\n      jumpi\n      dup4\n      dup3\n      swap1\n      0x00\n      mstore\n      keccak256(0x00, 0x20)\n      add\n      dup1\n      sload\n      tag_200\n      swap1\n      tag_129\n      jump\t// in\n    tag_200:\n      dup1\n      0x1f\n      add\n      0x20\n      dup1\n      swap2\n      div\n      mul\n      0x20\n      add\n      mload(0x40)\n      swap1\n      dup2\n      add\n      0x40\n      mstore\n      dup1\n      swap3\n      swap2\n      swap1\n      dup2\n      dup2\n      mstore\n      0x20\n      add\n      dup3\n      dup1\n      sload\n      tag_201\n      swap1\n      tag_129\n      jump\t// in\n    tag_201:\n      dup1\n      iszero\n      tag_202\n      jumpi\n      dup1\n      0x1f\n      lt\n      tag_203\n      jumpi\n      0x0100\n      dup1\n      dup4\n      sload\n      div\n      mul\n      dup4\n      mstore\n      swap2\n      0x20\n      add\n      swap2\n      jump(tag_202)\n    tag_203:\n      dup3\n      add\n      swap2\n      swap1\n      0x00\n      mstore\n      keccak256(0x00, 0x20)\n      swap1\n    tag_204:\n      dup2\n      sload\n      dup2\n      mstore\n      swap1\n      0x01\n      add\n      swap1\n      0x20\n      add\n      dup1\n      dup4\n      gt\n      tag_204\n      jumpi\n      dup3\n      swap1\n      sub\n      0x1f\n      and\n      dup3\n      add\n      swap2\n    tag_202:\n      pop\n      pop\n      pop\n      pop\n      pop\n      dup2\n      mstore\n      0x20\n      add\n      swap1\n      0x01\n      add\n      swap1\n      jump(tag_197)\n    tag_198:\n      pop\n      pop\n      pop\n      pop\n      dup2\n      mstore\n      0x20\n      add\n      0x02\n      dup3\n      add\n      dup1\n      sload\n      dup1\n      0x20\n      mul\n      0x20\n      add\n      mload(0x40)\n      swap1\n      dup2\n      add\n      0x40\n      mstore\n      dup1\n      swap3\n      swap2\n      swap1\n      dup2\n      dup2\n      mstore\n      0x20\n      add\n      0x00\n      swap1\n    tag_205:\n      dup3\n      dup3\n      lt\n      iszero\n      tag_206\n      jumpi\n      dup4\n      dup3\n      swap1\n      0x00\n      mstore\n      keccak256(0x00, 0x20)\n      add\n      dup1\n      sload\n      tag_208\n      swap1\n      tag_129\n      jump\t// in\n    tag_208:\n      dup1\n      0x1f\n      add\n      0x20\n      dup1\n      swap2\n      div\n      mul\n      0x20\n      add\n      mload(0x40)\n      swap1\n      dup2\n      add\n      0x40\n      mstore\n      dup1\n      swap3\n      swap2\n      swap1\n      dup2\n      dup2\n      mstore\n      0x20\n      add\n      dup3\n      dup1\n      sload\n      tag_209\n      swap1\n      tag_129\n      jump\t// in\n    tag_209:\n      dup1\n      iszero\n      tag_210\n      jumpi\n      dup1\n      0x1f\n      lt\n      tag_211\n      jumpi\n      0x0100\n      dup1\n      dup4\n      sload\n      div\n      mul\n      dup4\n      mstore\n      swap2\n      0x20\n      add\n      swap2\n      jump(tag_210)\n    tag_211:\n      dup3\n      add\n      swap2\n      swap1\n      0x00\n      mstore\n      keccak256(0x00, 0x20)\n      swap1\n    tag_212:\n      dup2\n      sload\n      dup2\n      mstore\n      swap1\n      0x01\n      add\n      swap1\n      0x20\n      add\n      dup1\n      dup4\n      gt\n      tag_212\n      jumpi\n      dup3\n      swap1\n      sub\n      0x1f\n      and\n      dup3\n      add\n      swap2\n    tag_210:\n      pop\n      pop\n      pop\n      pop\n      pop\n      dup2\n      mstore\n      0x20\n      add\n      swap1\n      0x01\n      add\n      swap1\n      jump(tag_205)\n    tag_206:\n      pop\n      pop\n      pop\n      pop\n      dup2\n      mstore\n      pop\n      pop\n      swap1\n      dup1\n      0x12\n      add\n      mload(0x40)\n      dup1\n      0x40\n      add\n      0x40\n      mstore\n      swap1\n      dup2\n      0x00\n      dup3\n      add\n      dup1\n      sload\n      dup1\n      0x20\n      mul\n      0x20\n      add\n      mload(0x40)\n      swap1\n      dup2\n      add\n      0x40\n      mstore\n      dup1\n      swap3\n      swap2\n      swap1\n      dup2\n      dup2\n      mstore\n      0x20\n      add\n      0x00\n      swap1\n    tag_213:\n      dup3\n      dup3\n      lt\n      iszero\n      tag_214\n      jumpi\n      dup4\n      dup3\n      swap1\n      0x00\n      mstore\n      keccak256(0x00, 0x20)\n      add\n      dup1\n      sload\n      tag_216\n      swap1\n      tag_129\n      jump\t// in\n    tag_216:\n      dup1\n      0x1f\n      add\n      0x20\n      dup1\n      swap2\n      div\n      mul\n      0x20\n      add\n      mload(0x40)\n      swap1\n      dup2\n      add\n      0x40\n      mstore\n      dup1\n      swap3\n      swap2\n      swap1\n      dup2\n      dup2\n      mstore\n      0x20\n      add\n      dup3\n      dup1\n      sload\n      tag_217\n      swap1\n      tag_129\n      jump\t// in\n    tag_217:\n      dup1\n      iszero\n      tag_218\n      jumpi\n      dup1\n      0x1f\n      lt\n      tag_219\n      jumpi\n      0x0100\n      dup1\n      dup4\n      sload\n      div\n      mul\n      dup4\n      mstore\n      swap2\n      0x20\n      add\n      swap2\n      jump(tag_218)\n    tag_219:\n      dup3\n      add\n      swap2\n      swap1\n      0x00\n      mstore\n      keccak256(0x00, 0x20)\n      swap1\n    tag_220:\n      dup2\n      sload\n      dup2\n      mstore\n      swap1\n      0x01\n      add\n      swap1\n      0x20\n      add\n      dup1\n      dup4\n      gt\n      tag_220\n      jumpi\n      dup3\n      swap1\n      sub\n      0x1f\n      and\n      dup3\n      add\n      swap2\n    tag_218:\n      pop\n      pop\n      pop\n      pop\n      pop\n      dup2\n      mstore\n      0x20\n      add\n      swap1\n      0x01\n      add\n      swap1\n      jump(tag_213)\n    tag_214:\n      pop\n      pop\n      pop\n      pop\n      dup2\n      mstore\n      0x20\n      add\n      0x01\n      dup3\n      add\n      dup1\n      sload\n      dup1\n      0x20\n      mul\n      0x20\n      add\n      mload(0x40)\n      swap1\n      dup2\n      add\n      0x40\n      mstore\n      dup1\n      swap3\n      swap2\n      swap1\n      dup2\n      dup2\n      mstore\n      0x20\n      add\n      0x00\n      swap1\n    tag_221:\n      dup3\n      dup3\n      lt\n      iszero\n      tag_222\n      jumpi\n      dup4\n      dup3\n      swap1\n      0x00\n      mstore\n      keccak256(0x00, 0x20)\n      add\n      dup1\n      sload\n      tag_224\n      swap1\n      tag_129\n      jump\t// in\n    tag_224:\n      dup1\n      0x1f\n      add\n      0x20\n      dup1\n      swap2\n      div\n      mul\n      0x20\n      add\n      mload(0x40)\n      swap1\n      dup2\n      add\n      0x40\n      mstore\n      dup1\n      swap3\n      swap2\n      swap1\n      dup2\n      dup2\n      mstore\n      0x20\n      add\n      dup3\n      dup1\n      sload\n      tag_225\n      swap1\n      tag_129\n      jump\t// in\n    tag_225:\n      dup1\n      iszero\n      tag_226\n      jumpi\n      dup1\n      0x1f\n      lt\n      tag_227\n      jumpi\n      0x0100\n      dup1\n      dup4\n      sload\n      div\n      mul\n      dup4\n      mstore\n      swap2\n      0x20\n      add\n      swap2\n      jump(tag_226)\n    tag_227:\n      dup3\n      add\n      swap2\n      swap1\n      0x00\n      mstore\n      keccak256(0x00, 0x20)\n      swap1\n    tag_228:\n      dup2\n      sload\n      dup2\n      mstore\n      swap1\n      0x01\n      add\n      swap1\n      0x20\n      add\n      dup1\n      dup4\n      gt\n      tag_228\n      jumpi\n      dup3\n      swap1\n      sub\n      0x1f\n      and\n      dup3\n      add\n      swap2\n    tag_226:\n      pop\n      pop\n      pop\n      pop\n      pop\n      dup2\n      mstore\n      0x20\n      add\n      swap1\n      0x01\n      add\n      swap1\n      jump(tag_221)\n    tag_222:\n      pop\n      pop\n      pop\n      pop\n      dup2\n      mstore\n      pop\n      pop\n      swap1\n      dup1\n      0x14\n      add\n      mload(0x40)\n      dup1\n      0xa0\n      add\n      0x40\n      mstore\n      swap1\n      dup2\n      0x00\n      dup3\n      add\n      dup1\n      sload\n      tag_229\n      swap1\n      tag_129\n      jump\t// in\n    tag_229:\n      dup1\n      0x1f\n      add\n      0x20\n      dup1\n      swap2\n      div\n      mul\n      0x20\n      add\n      mload(0x40)\n      swap1\n      dup2\n      add\n      0x40\n      mstore\n      dup1\n      swap3\n      swap2\n      swap1\n      dup2\n      dup2\n      mstore\n      0x20\n      add\n      dup3\n      dup1\n      sload\n      tag_230\n      swap1\n      tag_129\n      jump\t// in\n    tag_230:\n      dup1\n      iszero\n      tag_231\n      jumpi\n      dup1\n      0x1f\n      lt\n      tag_232\n      jumpi\n      0x0100\n      dup1\n      dup4\n      sload\n      div\n      mul\n      dup4\n      mstore\n      swap2\n      0x20\n      add\n      swap2\n      jump(tag_231)\n    tag_232:\n      dup3\n      add\n      swap2\n      swap1\n      0x00\n      mstore\n      keccak256(0x00, 0x20)\n      swap1\n    tag_233:\n      dup2\n      sload\n      dup2\n      mstore\n      swap1\n      0x01\n      add\n      swap1\n      0x20\n      add\n      dup1\n      dup4\n      gt\n      tag_233\n      jumpi\n      dup3\n      swap1\n      sub\n      0x1f\n      and\n      dup3\n      add\n      swap2\n    tag_231:\n      pop\n      pop\n      pop\n      pop\n      pop\n      dup2\n      mstore\n      0x20\n      add\n      0x01\n      dup3\n      add\n      dup1\n      sload\n      tag_234\n      swap1\n      tag_129\n      jump\t// in\n    tag_234:\n      dup1\n      0x1f\n      add\n      0x20\n      dup1\n      swap2\n      div\n      mul\n      0x20\n      add\n      mload(0x40)\n      swap1\n      dup2\n      add\n      0x40\n      mstore\n      dup1\n      swap3\n      swap2\n      swap1\n      dup2\n      dup2\n      mstore\n      0x20\n      add\n      dup3\n      dup1\n      sload\n      tag_235\n      swap1\n      tag_129\n      jump\t// in\n    tag_235:\n      dup1\n      iszero\n      tag_236\n      jumpi\n      dup1\n      0x1f\n      lt\n      tag_237\n      jumpi\n      0x0100\n      dup1\n      dup4\n      sload\n      div\n      mul\n      dup4\n      mstore\n      swap2\n      0x20\n      add\n      swap2\n      jump(tag_236)\n    tag_237:\n      dup3\n      add\n      swap2\n      swap1\n      0x00\n      mstore\n      keccak256(0x00, 0x20)\n      swap1\n    tag_238:\n      dup2\n      sload\n      dup2\n      mstore\n      swap1\n      0x01\n      add\n      swap1\n      0x20\n      add\n      dup1\n      dup4\n      gt\n      tag_238\n      jumpi\n      dup3\n      swap1\n      sub\n      0x1f\n      and\n      dup3\n      add\n      swap2\n    tag_236:\n      pop\n      pop\n      pop\n      pop\n      pop\n      dup2\n      mstore\n      0x20\n      add\n      0x02\n      dup3\n      add\n      dup1\n      sload\n      tag_239\n      swap1\n      tag_129\n      jump\t// in\n    tag_239:\n      dup1\n      0x1f\n      add\n      0x20\n      dup1\n      swap2\n      div\n      mul\n      0x20\n      add\n      mload(0x40)\n      swap1\n      dup2\n      add\n      0x40\n      mstore\n      dup1\n      swap3\n      swap2\n      swap1\n      dup2\n      dup2\n      mstore\n      0x20\n      add\n      dup3\n      dup1\n      sload\n      tag_240\n      swap1\n      tag_129\n      jump\t// in\n    tag_240:\n      dup1\n      iszero\n      tag_241\n      jumpi\n      dup1\n      0x1f\n      lt\n      tag_242\n      jumpi\n      0x0100\n      dup1\n      dup4\n      sload\n      div\n      mul\n      dup4\n      mstore\n      swap2\n      0x20\n      add\n      swap2\n      jump(tag_241)\n    tag_242:\n      dup3\n      add\n      swap2\n      swap1\n      0x00\n      mstore\n      keccak256(0x00, 0x20)\n      swap1\n    tag_243:\n      dup2\n      sload\n      dup2\n      mstore\n      swap1\n      0x01\n      add\n      swap1\n      0x20\n      add\n      dup1\n      dup4\n      gt\n      tag_243\n      jumpi\n      dup3\n      swap1\n      sub\n      0x1f\n      and\n      dup3\n      add\n      swap2\n    tag_241:\n      pop\n      pop\n      pop\n      pop\n      pop\n      dup2\n      mstore\n      0x20\n      add\n      0x03\n      dup3\n      add\n      dup1\n      sload\n      tag_244\n      swap1\n      tag_129\n      jump\t// in\n    tag_244:\n      dup1\n      0x1f\n      add\n      0x20\n      dup1\n      swap2\n      div\n      mul\n      0x20\n      add\n      mload(0x40)\n      swap1\n      dup2\n      add\n      0x40\n      mstore\n      dup1\n      swap3\n      swap2\n      swap1\n      dup2\n      dup2\n      mstore\n      0x20\n      add\n      dup3\n      dup1\n      sload\n      tag_245\n      swap1\n      tag_129\n      jump\t// in\n    tag_245:\n      dup1\n      iszero\n      tag_246\n      jumpi\n      dup1\n      0x1f\n      lt\n      tag_247\n      jumpi\n      0x0100\n      dup1\n      dup4\n      sload\n      div\n      mul\n      dup4\n      mstore\n      swap2\n      0x20\n      add\n      swap2\n      jump(tag_246)\n    tag_247:\n      dup3\n      add\n      swap2\n      swap1\n      0x00\n      mstore\n      keccak256(0x00, 0x20)\n      swap1\n    tag_248:\n      dup2\n      sload\n      dup2\n      mstore\n      swap1\n      0x01\n      add\n      swap1\n      0x20\n      add\n      dup1\n      dup4\n      gt\n      tag_248\n      jumpi\n      dup3\n      swap1\n      sub\n      0x1f\n      and\n      dup3\n      add\n      swap2\n    tag_246:\n      pop\n      pop\n      pop\n      pop\n      pop\n      dup2\n      mstore\n      0x20\n      add\n      0x04\n      dup3\n      add\n      dup1\n      sload\n      dup1\n      0x20\n      mul\n      0x20\n      add\n      mload(0x40)\n      swap1\n      dup2\n      add\n      0x40\n      mstore\n      dup1\n      swap3\n      swap2\n      swap1\n      dup2\n      dup2\n      mstore\n      0x20\n      add\n      0x00\n      swap1\n    tag_249:\n      dup3\n      dup3\n      lt\n      iszero\n      tag_250\n      jumpi\n      dup4\n      dup3\n      swap1\n      0x00\n      mstore\n      keccak256(0x00, 0x20)\n      add\n      dup1\n      sload\n      tag_252\n      swap1\n      tag_129\n      jump\t// in\n    tag_252:\n      dup1\n      0x1f\n      add\n      0x20\n      dup1\n      swap2\n      div\n      mul\n      0x20\n      add\n      mload(0x40)\n      swap1\n      dup2\n      add\n      0x40\n      mstore\n      dup1\n      swap3\n      swap2\n      swap1\n      dup2\n      dup2\n      mstore\n      0x20\n      add\n      dup3\n      dup1\n      sload\n      tag_253\n      swap1\n      tag_129\n      jump\t// in\n    tag_253:\n      dup1\n      iszero\n      tag_254\n      jumpi\n      dup1\n      0x1f\n      lt\n      tag_255\n      jumpi\n      0x0100\n      dup1\n      dup4\n      sload\n      div\n      mul\n      dup4\n      mstore\n      swap2\n      0x20\n      add\n      swap2\n      jump(tag_254)\n    tag_255:\n      dup3\n      add\n      swap2\n      swap1\n      0x00\n      mstore\n      keccak256(0x00, 0x20)\n      swap1\n    tag_256:\n      dup2\n      sload\n      dup2\n      mstore\n      swap1\n      0x01\n      add\n      swap1\n      0x20\n      add\n      dup1\n      dup4\n      gt\n      tag_256\n      jumpi\n      dup3\n      swap1\n      sub\n      0x1f\n      and\n      dup3\n      add\n      swap2\n    tag_254:\n      pop\n      pop\n      pop\n      pop\n      pop\n      dup2\n      mstore\n      0x20\n      add\n      swap1\n      0x01\n      add\n      swap1\n      jump(tag_249)\n    tag_250:\n      pop\n      pop\n      pop\n      pop\n      dup2\n      mstore\n      pop\n      pop\n      swap1\n      dup1\n      0x19\n      add\n      mload(0x40)\n      dup1\n      0x40\n      add\n      0x40\n      mstore\n      swap1\n      dup2\n      0x00\n      dup3\n      add\n      dup1\n      sload\n      tag_257\n      swap1\n      tag_129\n      jump\t// in\n    tag_257:\n      dup1\n      0x1f\n      add\n      0x20\n      dup1\n      swap2\n      div\n      mul\n      0x20\n      add\n      mload(0x40)\n      swap1\n      dup2\n      add\n      0x40\n      mstore\n      dup1\n      swap3\n      swap2\n      swap1\n      dup2\n      dup2\n      mstore\n      0x20\n      add\n      dup3\n      dup1\n      sload\n      tag_258\n      swap1\n      tag_129\n      jump\t// in\n    tag_258:\n      dup1\n      iszero\n      tag_259\n      jumpi\n      dup1\n      0x1f\n      lt\n      tag_260\n      jumpi\n      0x0100\n      dup1\n      dup4\n      sload\n      div\n      mul\n      dup4\n      mstore\n      swap2\n      0x20\n      add\n      swap2\n      jump(tag_259)\n    tag_260:\n      dup3\n      add\n      swap2\n      swap1\n      0x00\n      mstore\n      keccak256(0x00, 0x20)\n      swap1\n    tag_261:\n      dup2\n      sload\n      dup2\n      mstore\n      swap1\n      0x01\n      add\n      swap1\n      0x20\n      add\n      dup1\n      dup4\n      gt\n      tag_261\n      jumpi\n      dup3\n      swap1\n      sub\n      0x1f\n      and\n      dup3\n      add\n      swap2\n    tag_259:\n      pop\n      pop\n      pop\n      pop\n      pop\n      dup2\n      mstore\n      0x20\n      add\n      0x01\n      dup3\n      add\n      dup1\n      sload\n      tag_262\n      swap1\n      tag_129\n      jump\t// in\n    tag_262:\n      dup1\n      0x1f\n      add\n      0x20\n      dup1\n      swap2\n      div\n      mul\n      0x20\n      add\n      mload(0x40)\n      swap1\n      dup2\n      add\n      0x40\n      mstore\n      dup1\n      swap3\n      swap2\n      swap1\n      dup2\n      dup2\n      mstore\n      0x20\n      add\n      dup3\n      dup1\n      sload\n      tag_263\n      swap1\n      tag_129\n      jump\t// in\n    tag_263:\n      dup1\n      iszero\n      tag_264\n      jumpi\n      dup1\n      0x1f\n      lt\n      tag_265\n      jumpi\n      0x0100\n      dup1\n      dup4\n      sload\n      div\n      mul\n      dup4\n      mstore\n      swap2\n      0x20\n      add\n      swap2\n      jump(tag_264)\n    tag_265:\n      dup3\n      add\n      swap2\n      swap1\n      0x00\n      mstore\n      keccak256(0x00, 0x20)\n      swap1\n    tag_266:\n      dup2\n      sload\n      dup2\n      mstore\n      swap1\n      0x01\n      add\n      swap1\n      0x20\n      add\n      dup1\n      dup4\n      gt\n      tag_266\n      jumpi\n      dup3\n      swap1\n      sub\n      0x1f\n      and\n      dup3\n      add\n      swap2\n    tag_264:\n      pop\n      pop\n      pop\n      pop\n      pop\n      dup2\n      mstore\n      pop\n      pop\n      swap1\n      pop\n      dup7\n      jump\t// out\n        /* \"contracts/Profile.sol\":4918:5010  function delAllEducation() external  {\r... */\n    tag_60:\n        /* \"contracts/Profile.sol\":4973:4980  profile */\n      0x00\n        /* \"contracts/Profile.sol\":4973:4992  profile[msg.sender] */\n      dup1\n        /* \"contracts/Profile.sol\":4981:4991  msg.sender */\n      caller\n        /* \"contracts/Profile.sol\":4973:4992  profile[msg.sender] */\n      0xffffffffffffffffffffffffffffffffffffffff\n      and\n      0xffffffffffffffffffffffffffffffffffffffff\n      and\n      dup2\n      mstore\n      0x20\n      add\n      swap1\n      dup2\n      mstore\n      0x20\n      add\n      0x00\n      keccak256\n        /* \"contracts/Profile.sol\":4973:5002  profile[msg.sender].education */\n      0x11\n      add\n      0x00\n        /* \"contracts/Profile.sol\":4966:5002  delete profile[msg.sender].education */\n      tag_268\n      swap2\n      swap1\n      tag_269\n      jump\t// in\n    tag_268:\n        /* \"contracts/Profile.sol\":4918:5010  function delAllEducation() external  {\r... */\n      jump\t// out\n        /* \"contracts/Profile.sol\":3893:4286  function getEducation(uint index) public view returns(string memory, string memory, string memory, string memory, string memory) {\r... */\n    tag_64:\n        /* \"contracts/Profile.sol\":3947:3960  string memory */\n      0x60\n        /* \"contracts/Profile.sol\":3962:3975  string memory */\n      dup1\n        /* \"contracts/Profile.sol\":3977:3990  string memory */\n      0x60\n        /* \"contracts/Profile.sol\":3992:4005  string memory */\n      dup1\n        /* \"contracts/Profile.sol\":4007:4020  string memory */\n      0x60\n        /* \"contracts/Profile.sol\":4041:4048  profile */\n      0x00\n        /* \"contracts/Profile.sol\":4041:4060  profile[msg.sender] */\n      dup1\n        /* \"contracts/Profile.sol\":4049:4059  msg.sender */\n      caller\n        /* \"contracts/Profile.sol\":4041:4060  profile[msg.sender] */\n      0xffffffffffffffffffffffffffffffffffffffff\n      and\n      0xffffffffffffffffffffffffffffffffffffffff\n      and\n      dup2\n      mstore\n      0x20\n      add\n      swap1\n      dup2\n      mstore\n      0x20\n      add\n      0x00\n      keccak256\n        /* \"contracts/Profile.sol\":4041:4070  profile[msg.sender].education */\n      0x11\n      add\n        /* \"contracts/Profile.sol\":4071:4076  index */\n      dup7\n        /* \"contracts/Profile.sol\":4041:4077  profile[msg.sender].education[index] */\n      dup2\n      sload\n      dup2\n      lt\n      tag_271\n      jumpi\n      tag_272\n      tag_273\n      jump\t// in\n    tag_272:\n    tag_271:\n      swap1\n      0x00\n      mstore\n      keccak256(0x00, 0x20)\n      swap1\n      0x05\n      mul\n      add\n        /* \"contracts/Profile.sol\":4041:4087  profile[msg.sender].education[index].startDate */\n      0x00\n      add\n        /* \"contracts/Profile.sol\":4089:4096  profile */\n      0x00\n        /* \"contracts/Profile.sol\":4089:4108  profile[msg.sender] */\n      dup1\n        /* \"contracts/Profile.sol\":4097:4107  msg.sender */\n      caller\n        /* \"contracts/Profile.sol\":4089:4108  profile[msg.sender] */\n      0xffffffffffffffffffffffffffffffffffffffff\n      and\n      0xffffffffffffffffffffffffffffffffffffffff\n      and\n      dup2\n      mstore\n      0x20\n      add\n      swap1\n      dup2\n      mstore\n      0x20\n      add\n      0x00\n      keccak256\n        /* \"contracts/Profile.sol\":4089:4118  profile[msg.sender].education */\n      0x11\n      add\n        /* \"contracts/Profile.sol\":4119:4124  index */\n      dup8\n        /* \"contracts/Profile.sol\":4089:4125  profile[msg.sender].education[index] */\n      dup2\n      sload\n      dup2\n      lt\n      tag_275\n      jumpi\n      tag_276\n      tag_273\n      jump\t// in\n    tag_276:\n    tag_275:\n      swap1\n      0x00\n      mstore\n      keccak256(0x00, 0x20)\n      swap1\n      0x05\n      mul\n      add\n        /* \"contracts/Profile.sol\":4089:4133  profile[msg.sender].education[index].endDate */\n      0x01\n      add\n        /* \"contracts/Profile.sol\":4135:4142  profile */\n      0x00\n        /* \"contracts/Profile.sol\":4135:4154  profile[msg.sender] */\n      dup1\n        /* \"contracts/Profile.sol\":4143:4153  msg.sender */\n      caller\n        /* \"contracts/Profile.sol\":4135:4154  profile[msg.sender] */\n      0xffffffffffffffffffffffffffffffffffffffff\n      and\n      0xffffffffffffffffffffffffffffffffffffffff\n      and\n      dup2\n      mstore\n      0x20\n      add\n      swap1\n      dup2\n      mstore\n      0x20\n      add\n      0x00\n      keccak256\n        /* \"contracts/Profile.sol\":4135:4164  profile[msg.sender].education */\n      0x11\n      add\n        /* \"contracts/Profile.sol\":4165:4170  index */\n      dup9\n        /* \"contracts/Profile.sol\":4135:4171  profile[msg.sender].education[index] */\n      dup2\n      sload\n      dup2\n      lt\n      tag_278\n      jumpi\n      tag_279\n      tag_273\n      jump\t// in\n    tag_279:\n    tag_278:\n      swap1\n      0x00\n      mstore\n      keccak256(0x00, 0x20)\n      swap1\n      0x05\n      mul\n      add\n        /* \"contracts/Profile.sol\":4135:4182  profile[msg.sender].education[index].univercity */\n      0x02\n      add\n        /* \"contracts/Profile.sol\":4184:4191  profile */\n      0x00\n        /* \"contracts/Profile.sol\":4184:4203  profile[msg.sender] */\n      dup1\n        /* \"contracts/Profile.sol\":4192:4202  msg.sender */\n      caller\n        /* \"contracts/Profile.sol\":4184:4203  profile[msg.sender] */\n      0xffffffffffffffffffffffffffffffffffffffff\n      and\n      0xffffffffffffffffffffffffffffffffffffffff\n      and\n      dup2\n      mstore\n      0x20\n      add\n      swap1\n      dup2\n      mstore\n      0x20\n      add\n      0x00\n      keccak256\n        /* \"contracts/Profile.sol\":4184:4213  profile[msg.sender].education */\n      0x11\n      add\n        /* \"contracts/Profile.sol\":4214:4219  index */\n      dup10\n        /* \"contracts/Profile.sol\":4184:4220  profile[msg.sender].education[index] */\n      dup2\n      sload\n      dup2\n      lt\n      tag_281\n      jumpi\n      tag_282\n      tag_273\n      jump\t// in\n    tag_282:\n    tag_281:\n      swap1\n      0x00\n      mstore\n      keccak256(0x00, 0x20)\n      swap1\n      0x05\n      mul\n      add\n        /* \"contracts/Profile.sol\":4184:4226  profile[msg.sender].education[index].major */\n      0x03\n      add\n        /* \"contracts/Profile.sol\":4228:4235  profile */\n      0x00\n        /* \"contracts/Profile.sol\":4228:4247  profile[msg.sender] */\n      dup1\n        /* \"contracts/Profile.sol\":4236:4246  msg.sender */\n      caller\n        /* \"contracts/Profile.sol\":4228:4247  profile[msg.sender] */\n      0xffffffffffffffffffffffffffffffffffffffff\n      and\n      0xffffffffffffffffffffffffffffffffffffffff\n      and\n      dup2\n      mstore\n      0x20\n      add\n      swap1\n      dup2\n      mstore\n      0x20\n      add\n      0x00\n      keccak256\n        /* \"contracts/Profile.sol\":4228:4257  profile[msg.sender].education */\n      0x11\n      add\n        /* \"contracts/Profile.sol\":4258:4263  index */\n      dup11\n        /* \"contracts/Profile.sol\":4228:4264  profile[msg.sender].education[index] */\n      dup2\n      sload\n      dup2\n      lt\n      tag_284\n      jumpi\n      tag_285\n      tag_273\n      jump\t// in\n    tag_285:\n    tag_284:\n      swap1\n      0x00\n      mstore\n      keccak256(0x00, 0x20)\n      swap1\n      0x05\n      mul\n      add\n        /* \"contracts/Profile.sol\":4228:4277  profile[msg.sender].education[index].finalProject */\n      0x04\n      add\n        /* \"contracts/Profile.sol\":4033:4278  return (profile[msg.sender].education[index].startDate, profile[msg.sender].education[index].endDate, profile[msg.sender].education[index].univercity, profile[msg.sender].education[index].major, profile[msg.sender].education[index].finalProject) */\n      dup5\n      dup1\n      sload\n      tag_287\n      swap1\n      tag_129\n      jump\t// in\n    tag_287:\n      dup1\n      0x1f\n      add\n      0x20\n      dup1\n      swap2\n      div\n      mul\n      0x20\n      add\n      mload(0x40)\n      swap1\n      dup2\n      add\n      0x40\n      mstore\n      dup1\n      swap3\n      swap2\n      swap1\n      dup2\n      dup2\n      mstore\n      0x20\n      add\n      dup3\n      dup1\n      sload\n      tag_288\n      swap1\n      tag_129\n      jump\t// in\n    tag_288:\n      dup1\n      iszero\n      tag_289\n      jumpi\n      dup1\n      0x1f\n      lt\n      tag_290\n      jumpi\n      0x0100\n      dup1\n      dup4\n      sload\n      div\n      mul\n      dup4\n      mstore\n      swap2\n      0x20\n      add\n      swap2\n      jump(tag_289)\n    tag_290:\n      dup3\n      add\n      swap2\n      swap1\n      0x00\n      mstore\n      keccak256(0x00, 0x20)\n      swap1\n    tag_291:\n      dup2\n      sload\n      dup2\n      mstore\n      swap1\n      0x01\n      add\n      swap1\n      0x20\n      add\n      dup1\n      dup4\n      gt\n      tag_291\n      jumpi\n      dup3\n      swap1\n      sub\n      0x1f\n      and\n      dup3\n      add\n      swap2\n    tag_289:\n      pop\n      pop\n      pop\n      pop\n      pop\n      swap5\n      pop\n      dup4\n      dup1\n      sload\n      tag_292\n      swap1\n      tag_129\n      jump\t// in\n    tag_292:\n      dup1\n      0x1f\n      add\n      0x20\n      dup1\n      swap2\n      div\n      mul\n      0x20\n      add\n      mload(0x40)\n      swap1\n      dup2\n      add\n      0x40\n      mstore\n      dup1\n      swap3\n      swap2\n      swap1\n      dup2\n      dup2\n      mstore\n      0x20\n      add\n      dup3\n      dup1\n      sload\n      tag_293\n      swap1\n      tag_129\n      jump\t// in\n    tag_293:\n      dup1\n      iszero\n      tag_294\n      jumpi\n      dup1\n      0x1f\n      lt\n      tag_295\n      jumpi\n      0x0100\n      dup1\n      dup4\n      sload\n      div\n      mul\n      dup4\n      mstore\n      swap2\n      0x20\n      add\n      swap2\n      jump(tag_294)\n    tag_295:\n      dup3\n      add\n      swap2\n      swap1\n      0x00\n      mstore\n      keccak256(0x00, 0x20)\n      swap1\n    tag_296:\n      dup2\n      sload\n      dup2\n      mstore\n      swap1\n      0x01\n      add\n      swap1\n      0x20\n      add\n      dup1\n      dup4\n      gt\n      tag_296\n      jumpi\n      dup3\n      swap1\n      sub\n      0x1f\n      and\n      dup3\n      add\n      swap2\n    tag_294:\n      pop\n      pop\n      pop\n      pop\n      pop\n      swap4\n      pop\n      dup3\n      dup1\n      sload\n      tag_297\n      swap1\n      tag_129\n      jump\t// in\n    tag_297:\n      dup1\n      0x1f\n      add\n      0x20\n      dup1\n      swap2\n      div\n      mul\n      0x20\n      add\n      mload(0x40)\n      swap1\n      dup2\n      add\n      0x40\n      mstore\n      dup1\n      swap3\n      swap2\n      swap1\n      dup2\n      dup2\n      mstore\n      0x20\n      add\n      dup3\n      dup1\n      sload\n      tag_298\n      swap1\n      tag_129\n      jump\t// in\n    tag_298:\n      dup1\n      iszero\n      tag_299\n      jumpi\n      dup1\n      0x1f\n      lt\n      tag_300\n      jumpi\n      0x0100\n      dup1\n      dup4\n      sload\n      div\n      mul\n      dup4\n      mstore\n      swap2\n      0x20\n      add\n      swap2\n      jump(tag_299)\n    tag_300:\n      dup3\n      add\n      swap2\n      swap1\n      0x00\n      mstore\n      keccak256(0x00, 0x20)\n      swap1\n    tag_301:\n      dup2\n      sload\n      dup2\n      mstore\n      swap1\n      0x01\n      add\n      swap1\n      0x20\n      add\n      dup1\n      dup4\n      gt\n      tag_301\n      jumpi\n      dup3\n      swap1\n      sub\n      0x1f\n      and\n      dup3\n      add\n      swap2\n    tag_299:\n      pop\n      pop\n      pop\n      pop\n      pop\n      swap3\n      pop\n      dup2\n      dup1\n      sload\n      tag_302\n      swap1\n      tag_129\n      jump\t// in\n    tag_302:\n      dup1\n      0x1f\n      add\n      0x20\n      dup1\n      swap2\n      div\n      mul\n      0x20\n      add\n      mload(0x40)\n      swap1\n      dup2\n      add\n      0x40\n      mstore\n      dup1\n      swap3\n      swap2\n      swap1\n      dup2\n      dup2\n      mstore\n      0x20\n      add\n      dup3\n      dup1\n      sload\n      tag_303\n      swap1\n      tag_129\n      jump\t// in\n    tag_303:\n      dup1\n      iszero\n      tag_304\n      jumpi\n      dup1\n      0x1f\n      lt\n      tag_305\n      jumpi\n      0x0100\n      dup1\n      dup4\n      sload\n      div\n      mul\n      dup4\n      mstore\n      swap2\n      0x20\n      add\n      swap2\n      jump(tag_304)\n    tag_305:\n      dup3\n      add\n      swap2\n      swap1\n      0x00\n      mstore\n      keccak256(0x00, 0x20)\n      swap1\n    tag_306:\n      dup2\n      sload\n      dup2\n      mstore\n      swap1\n      0x01\n      add\n      swap1\n      0x20\n      add\n      dup1\n      dup4\n      gt\n      tag_306\n      jumpi\n      dup3\n      swap1\n      sub\n      0x1f\n      and\n      dup3\n      add\n      swap2\n    tag_304:\n      pop\n      pop\n      pop\n      pop\n      pop\n      swap2\n      pop\n      dup1\n      dup1\n      sload\n      tag_307\n      swap1\n      tag_129\n      jump\t// in\n    tag_307:\n      dup1\n      0x1f\n      add\n      0x20\n      dup1\n      swap2\n      div\n      mul\n      0x20\n      add\n      mload(0x40)\n      swap1\n      dup2\n      add\n      0x40\n      mstore\n      dup1\n      swap3\n      swap2\n      swap1\n      dup2\n      dup2\n      mstore\n      0x20\n      add\n      dup3\n      dup1\n      sload\n      tag_308\n      swap1\n      tag_129\n      jump\t// in\n    tag_308:\n      dup1\n      iszero\n      tag_309\n      jumpi\n      dup1\n      0x1f\n      lt\n      tag_310\n      jumpi\n      0x0100\n      dup1\n      dup4\n      sload\n      div\n      mul\n      dup4\n      mstore\n      swap2\n      0x20\n      add\n      swap2\n      jump(tag_309)\n    tag_310:\n      dup3\n      add\n      swap2\n      swap1\n      0x00\n      mstore\n      keccak256(0x00, 0x20)\n      swap1\n    tag_311:\n      dup2\n      sload\n      dup2\n      mstore\n      swap1\n      0x01\n      add\n      swap1\n      0x20\n      add\n      dup1\n      dup4\n      gt\n      tag_311\n      jumpi\n      dup3\n      swap1\n      sub\n      0x1f\n      and\n      dup3\n      add\n      swap2\n    tag_309:\n      pop\n      pop\n      pop\n      pop\n      pop\n      swap1\n      pop\n      swap5\n      pop\n      swap5\n      pop\n      swap5\n      pop\n      swap5\n      pop\n      swap5\n      pop\n        /* \"contracts/Profile.sol\":3893:4286  function getEducation(uint index) public view returns(string memory, string memory, string memory, string memory, string memory) {\r... */\n      swap2\n      swap4\n      swap6\n      swap1\n      swap3\n      swap5\n      pop\n      jump\t// out\n        /* \"contracts/Profile.sol\":5118:5194  function delProfile() external {\r... */\n    tag_68:\n        /* \"contracts/Profile.sol\":5167:5174  profile */\n      0x00\n        /* \"contracts/Profile.sol\":5167:5186  profile[msg.sender] */\n      dup1\n        /* \"contracts/Profile.sol\":5175:5185  msg.sender */\n      caller\n        /* \"contracts/Profile.sol\":5167:5186  profile[msg.sender] */\n      0xffffffffffffffffffffffffffffffffffffffff\n      and\n      0xffffffffffffffffffffffffffffffffffffffff\n      and\n      dup2\n      mstore\n      0x20\n      add\n      swap1\n      dup2\n      mstore\n      0x20\n      add\n      0x00\n      keccak256\n      0x00\n        /* \"contracts/Profile.sol\":5160:5186  delete profile[msg.sender] */\n      dup1\n      dup3\n      add\n      0x00\n      dup1\n      dup3\n      add\n      0x00\n      tag_313\n      swap2\n      swap1\n      tag_71\n      jump\t// in\n    tag_313:\n      0x01\n      dup3\n      add\n      0x00\n      tag_314\n      swap2\n      swap1\n      tag_71\n      jump\t// in\n    tag_314:\n      0x02\n      dup3\n      add\n      exp(0x0100, 0x00)\n      dup2\n      sload\n      swap1\n      0xffffffffffffffffffffffffffffffffffffffff\n      mul\n      not\n      and\n      swap1\n      sstore\n      0x03\n      dup3\n      add\n      0x00\n      tag_315\n      swap2\n      swap1\n      tag_71\n      jump\t// in\n    tag_315:\n      0x04\n      dup3\n      add\n      0x00\n      tag_316\n      swap2\n      swap1\n      tag_71\n      jump\t// in\n    tag_316:\n      0x05\n      dup3\n      add\n      0x00\n      tag_317\n      swap2\n      swap1\n      tag_71\n      jump\t// in\n    tag_317:\n      0x06\n      dup3\n      add\n      0x00\n      tag_318\n      swap2\n      swap1\n      tag_71\n      jump\t// in\n    tag_318:\n      0x07\n      dup3\n      add\n      0x00\n      swap1\n      sstore\n      pop\n      pop\n      0x08\n      dup3\n      add\n      0x00\n      dup1\n      dup3\n      add\n      0x00\n      tag_319\n      swap2\n      swap1\n      tag_71\n      jump\t// in\n    tag_319:\n      0x01\n      dup3\n      add\n      0x00\n      tag_320\n      swap2\n      swap1\n      tag_71\n      jump\t// in\n    tag_320:\n      0x02\n      dup3\n      add\n      0x00\n      tag_321\n      swap2\n      swap1\n      tag_71\n      jump\t// in\n    tag_321:\n      0x03\n      dup3\n      add\n      0x00\n      tag_322\n      swap2\n      swap1\n      tag_71\n      jump\t// in\n    tag_322:\n      0x04\n      dup3\n      add\n      0x00\n      tag_323\n      swap2\n      swap1\n      tag_71\n      jump\t// in\n    tag_323:\n      0x05\n      dup3\n      add\n      0x00\n      tag_324\n      swap2\n      swap1\n      tag_71\n      jump\t// in\n    tag_324:\n      pop\n      pop\n      0x0e\n      dup3\n      add\n      0x00\n      dup1\n      dup3\n      add\n      0x00\n      tag_325\n      swap2\n      swap1\n      tag_79\n      jump\t// in\n    tag_325:\n      0x01\n      dup3\n      add\n      0x00\n      tag_326\n      swap2\n      swap1\n      tag_79\n      jump\t// in\n    tag_326:\n      0x02\n      dup3\n      add\n      0x00\n      tag_327\n      swap2\n      swap1\n      tag_79\n      jump\t// in\n    tag_327:\n      pop\n      pop\n      0x11\n      dup3\n      add\n      0x00\n      tag_328\n      swap2\n      swap1\n      tag_269\n      jump\t// in\n    tag_328:\n      0x12\n      dup3\n      add\n      0x00\n      dup1\n      dup3\n      add\n      0x00\n      tag_329\n      swap2\n      swap1\n      tag_79\n      jump\t// in\n    tag_329:\n      0x01\n      dup3\n      add\n      0x00\n      tag_330\n      swap2\n      swap1\n      tag_79\n      jump\t// in\n    tag_330:\n      pop\n      pop\n      0x14\n      dup3\n      add\n      0x00\n      dup1\n      dup3\n      add\n      0x00\n      tag_331\n      swap2\n      swap1\n      tag_71\n      jump\t// in\n    tag_331:\n      0x01\n      dup3\n      add\n      0x00\n      tag_332\n      swap2\n      swap1\n      tag_71\n      jump\t// in\n    tag_332:\n      0x02\n      dup3\n      add\n      0x00\n      tag_333\n      swap2\n      swap1\n      tag_71\n      jump\t// in\n    tag_333:\n      0x03\n      dup3\n      add\n      0x00\n      tag_334\n      swap2\n      swap1\n      tag_71\n      jump\t// in\n    tag_334:\n      0x04\n      dup3\n      add\n      0x00\n      tag_335\n      swap2\n      swap1\n      tag_79\n      jump\t// in\n    tag_335:\n      pop\n      pop\n      0x19\n      dup3\n      add\n      0x00\n      dup1\n      dup3\n      add\n      0x00\n      tag_336\n      swap2\n      swap1\n      tag_71\n      jump\t// in\n    tag_336:\n      0x01\n      dup3\n      add\n      0x00\n      tag_337\n      swap2\n      swap1\n      tag_71\n      jump\t// in\n    tag_337:\n      pop\n      pop\n      pop\n      pop\n        /* \"contracts/Profile.sol\":5118:5194  function delProfile() external {\r... */\n      jump\t// out\n    tag_71:\n      pop\n      dup1\n      sload\n      tag_338\n      swap1\n      tag_129\n      jump\t// in\n    tag_338:\n      0x00\n      dup3\n      sstore\n      dup1\n      0x1f\n      lt\n      tag_340\n      jumpi\n      pop\n      jump(tag_339)\n    tag_340:\n      0x1f\n      add\n      0x20\n      swap1\n      div\n      swap1\n      0x00\n      mstore\n      keccak256(0x00, 0x20)\n      swap1\n      dup2\n      add\n      swap1\n      tag_341\n      swap2\n      swap1\n      tag_342\n      jump\t// in\n    tag_341:\n    tag_339:\n      pop\n      jump\t// out\n    tag_75:\n      dup3\n      dup1\n      sload\n      tag_343\n      swap1\n      tag_129\n      jump\t// in\n    tag_343:\n      swap1\n      0x00\n      mstore\n      keccak256(0x00, 0x20)\n      swap1\n      0x1f\n      add\n      0x20\n      swap1\n      div\n      dup2\n      add\n      swap3\n      dup3\n      tag_345\n      jumpi\n      0x00\n      dup6\n      sstore\n      jump(tag_344)\n    tag_345:\n      dup3\n      0x1f\n      lt\n      tag_346\n      jumpi\n      dup1\n      mload\n      not(0xff)\n      and\n      dup4\n      dup1\n      add\n      or\n      dup6\n      sstore\n      jump(tag_344)\n    tag_346:\n      dup3\n      dup1\n      add\n      0x01\n      add\n      dup6\n      sstore\n      dup3\n      iszero\n      tag_344\n      jumpi\n      swap2\n      dup3\n      add\n    tag_347:\n      dup3\n      dup2\n      gt\n      iszero\n      tag_348\n      jumpi\n      dup3\n      mload\n      dup3\n      sstore\n      swap2\n      0x20\n      add\n      swap2\n      swap1\n      0x01\n      add\n      swap1\n      jump(tag_347)\n    tag_348:\n    tag_344:\n      pop\n      swap1\n      pop\n      tag_349\n      swap2\n      swap1\n      tag_342\n      jump\t// in\n    tag_349:\n      pop\n      swap1\n      jump\t// out\n    tag_79:\n      pop\n      dup1\n      sload\n      0x00\n      dup3\n      sstore\n      swap1\n      0x00\n      mstore\n      keccak256(0x00, 0x20)\n      swap1\n      dup2\n      add\n      swap1\n      tag_351\n      swap2\n      swap1\n      tag_352\n      jump\t// in\n    tag_351:\n      pop\n      jump\t// out\n    tag_83:\n      dup3\n      dup1\n      sload\n      dup3\n      dup3\n      sstore\n      swap1\n      0x00\n      mstore\n      keccak256(0x00, 0x20)\n      swap1\n      dup2\n      add\n      swap3\n      dup3\n      iszero\n      tag_353\n      jumpi\n      swap2\n      0x20\n      mul\n      dup3\n      add\n    tag_354:\n      dup3\n      dup2\n      gt\n      iszero\n      tag_355\n      jumpi\n      dup3\n      mload\n      dup3\n      swap1\n      dup1\n      mload\n      swap1\n      0x20\n      add\n      swap1\n      tag_356\n      swap3\n      swap2\n      swap1\n      tag_75\n      jump\t// in\n    tag_356:\n      pop\n      swap2\n      0x20\n      add\n      swap2\n      swap1\n      0x01\n      add\n      swap1\n      jump(tag_354)\n    tag_355:\n    tag_353:\n      pop\n      swap1\n      pop\n      tag_357\n      swap2\n      swap1\n      tag_352\n      jump\t// in\n    tag_357:\n      pop\n      swap1\n      jump\t// out\n    tag_92:\n      mload(0x40)\n      dup1\n      0xa0\n      add\n      0x40\n      mstore\n      dup1\n      0x60\n      dup2\n      mstore\n      0x20\n      add\n      0x60\n      dup2\n      mstore\n      0x20\n      add\n      0x60\n      dup2\n      mstore\n      0x20\n      add\n      0x60\n      dup2\n      mstore\n      0x20\n      add\n      0x60\n      dup2\n      mstore\n      pop\n      swap1\n      jump\t// out\n    tag_269:\n      pop\n      dup1\n      sload\n      0x00\n      dup3\n      sstore\n      0x05\n      mul\n      swap1\n      0x00\n      mstore\n      keccak256(0x00, 0x20)\n      swap1\n      dup2\n      add\n      swap1\n      tag_359\n      swap2\n      swap1\n      tag_360\n      jump\t// in\n    tag_359:\n      pop\n      jump\t// out\n    tag_342:\n    tag_361:\n      dup1\n      dup3\n      gt\n      iszero\n      tag_362\n      jumpi\n      0x00\n      dup2\n      0x00\n      swap1\n      sstore\n      pop\n      0x01\n      add\n      jump(tag_361)\n    tag_362:\n      pop\n      swap1\n      jump\t// out\n    tag_352:\n    tag_363:\n      dup1\n      dup3\n      gt\n      iszero\n      tag_364\n      jumpi\n      0x00\n      dup2\n      dup2\n      tag_365\n      swap2\n      swap1\n      tag_71\n      jump\t// in\n    tag_365:\n      pop\n      0x01\n      add\n      jump(tag_363)\n    tag_364:\n      pop\n      swap1\n      jump\t// out\n    tag_360:\n    tag_366:\n      dup1\n      dup3\n      gt\n      iszero\n      tag_367\n      jumpi\n      0x00\n      dup1\n      dup3\n      add\n      0x00\n      tag_368\n      swap2\n      swap1\n      tag_71\n      jump\t// in\n    tag_368:\n      0x01\n      dup3\n      add\n      0x00\n      tag_369\n      swap2\n      swap1\n      tag_71\n      jump\t// in\n    tag_369:\n      0x02\n      dup3\n      add\n      0x00\n      tag_370\n      swap2\n      swap1\n      tag_71\n      jump\t// in\n    tag_370:\n      0x03\n      dup3\n      add\n      0x00\n      tag_371\n      swap2\n      swap1\n      tag_71\n      jump\t// in\n    tag_371:\n      0x04\n      dup3\n      add\n      0x00\n      tag_372\n      swap2\n      swap1\n      tag_71\n      jump\t// in\n    tag_372:\n      pop\n      0x05\n      add\n      jump(tag_366)\n    tag_367:\n      pop\n      swap1\n      jump\t// out\n        /* \"#utility.yul\":23:980   */\n    tag_374:\n        /* \"#utility.yul\":129:134   */\n      0x00\n        /* \"#utility.yul\":154:245   */\n      tag_376\n        /* \"#utility.yul\":170:244   */\n      tag_377\n        /* \"#utility.yul\":237:243   */\n      dup5\n        /* \"#utility.yul\":170:244   */\n      tag_378\n      jump\t// in\n    tag_377:\n        /* \"#utility.yul\":154:245   */\n      tag_379\n      jump\t// in\n    tag_376:\n        /* \"#utility.yul\":145:245   */\n      swap1\n      pop\n        /* \"#utility.yul\":265:270   */\n      dup1\n        /* \"#utility.yul\":294:300   */\n      dup4\n        /* \"#utility.yul\":287:292   */\n      dup3\n        /* \"#utility.yul\":280:301   */\n      mstore\n        /* \"#utility.yul\":328:332   */\n      0x20\n        /* \"#utility.yul\":321:326   */\n      dup3\n        /* \"#utility.yul\":317:333   */\n      add\n        /* \"#utility.yul\":310:333   */\n      swap1\n      pop\n        /* \"#utility.yul\":354:360   */\n      dup3\n        /* \"#utility.yul\":404:407   */\n      dup6\n        /* \"#utility.yul\":396:400   */\n      0x20\n        /* \"#utility.yul\":388:394   */\n      dup7\n        /* \"#utility.yul\":384:401   */\n      mul\n        /* \"#utility.yul\":379:382   */\n      dup3\n        /* \"#utility.yul\":375:402   */\n      add\n        /* \"#utility.yul\":372:408   */\n      gt\n        /* \"#utility.yul\":369:512   */\n      iszero\n      tag_380\n      jumpi\n        /* \"#utility.yul\":423:502   */\n      tag_381\n      tag_382\n      jump\t// in\n    tag_381:\n        /* \"#utility.yul\":369:512   */\n    tag_380:\n        /* \"#utility.yul\":536:537   */\n      0x00\n        /* \"#utility.yul\":521:974   */\n    tag_383:\n        /* \"#utility.yul\":546:552   */\n      dup6\n        /* \"#utility.yul\":543:544   */\n      dup2\n        /* \"#utility.yul\":540:553   */\n      lt\n        /* \"#utility.yul\":521:974   */\n      iszero\n      tag_385\n      jumpi\n        /* \"#utility.yul\":628:631   */\n      dup2\n        /* \"#utility.yul\":615:632   */\n      calldataload\n        /* \"#utility.yul\":664:682   */\n      0xffffffffffffffff\n        /* \"#utility.yul\":651:662   */\n      dup2\n        /* \"#utility.yul\":648:683   */\n      gt\n        /* \"#utility.yul\":645:767   */\n      iszero\n      tag_386\n      jumpi\n        /* \"#utility.yul\":686:765   */\n      tag_387\n      tag_388\n      jump\t// in\n    tag_387:\n        /* \"#utility.yul\":645:767   */\n    tag_386:\n        /* \"#utility.yul\":810:821   */\n      dup1\n        /* \"#utility.yul\":802:808   */\n      dup7\n        /* \"#utility.yul\":798:822   */\n      add\n        /* \"#utility.yul\":848:895   */\n      tag_389\n        /* \"#utility.yul\":891:894   */\n      dup10\n        /* \"#utility.yul\":879:889   */\n      dup3\n        /* \"#utility.yul\":848:895   */\n      tag_390\n      jump\t// in\n    tag_389:\n        /* \"#utility.yul\":843:846   */\n      dup6\n        /* \"#utility.yul\":836:896   */\n      mstore\n        /* \"#utility.yul\":925:929   */\n      0x20\n        /* \"#utility.yul\":920:923   */\n      dup6\n        /* \"#utility.yul\":916:930   */\n      add\n        /* \"#utility.yul\":909:930   */\n      swap5\n      pop\n        /* \"#utility.yul\":959:963   */\n      0x20\n        /* \"#utility.yul\":954:957   */\n      dup5\n        /* \"#utility.yul\":950:964   */\n      add\n        /* \"#utility.yul\":943:964   */\n      swap4\n      pop\n        /* \"#utility.yul\":581:974   */\n      pop\n      pop\n        /* \"#utility.yul\":568:569   */\n      0x01\n        /* \"#utility.yul\":565:566   */\n      dup2\n        /* \"#utility.yul\":561:570   */\n      add\n        /* \"#utility.yul\":556:570   */\n      swap1\n      pop\n        /* \"#utility.yul\":521:974   */\n      jump(tag_383)\n    tag_385:\n        /* \"#utility.yul\":525:539   */\n      pop\n        /* \"#utility.yul\":135:980   */\n      pop\n      pop\n        /* \"#utility.yul\":23:980   */\n      swap4\n      swap3\n      pop\n      pop\n      pop\n      jump\t// out\n        /* \"#utility.yul\":986:1398   */\n    tag_391:\n        /* \"#utility.yul\":1064:1069   */\n      0x00\n        /* \"#utility.yul\":1089:1155   */\n      tag_393\n        /* \"#utility.yul\":1105:1154   */\n      tag_394\n        /* \"#utility.yul\":1147:1153   */\n      dup5\n        /* \"#utility.yul\":1105:1154   */\n      tag_395\n      jump\t// in\n    tag_394:\n        /* \"#utility.yul\":1089:1155   */\n      tag_379\n      jump\t// in\n    tag_393:\n        /* \"#utility.yul\":1080:1155   */\n      swap1\n      pop\n        /* \"#utility.yul\":1178:1184   */\n      dup3\n        /* \"#utility.yul\":1171:1176   */\n      dup2\n        /* \"#utility.yul\":1164:1185   */\n      mstore\n        /* \"#utility.yul\":1216:1220   */\n      0x20\n        /* \"#utility.yul\":1209:1214   */\n      dup2\n        /* \"#utility.yul\":1205:1221   */\n      add\n        /* \"#utility.yul\":1254:1257   */\n      dup5\n        /* \"#utility.yul\":1245:1251   */\n      dup5\n        /* \"#utility.yul\":1240:1243   */\n      dup5\n        /* \"#utility.yul\":1236:1252   */\n      add\n        /* \"#utility.yul\":1233:1258   */\n      gt\n        /* \"#utility.yul\":1230:1342   */\n      iszero\n      tag_396\n      jumpi\n        /* \"#utility.yul\":1261:1340   */\n      tag_397\n      tag_398\n      jump\t// in\n    tag_397:\n        /* \"#utility.yul\":1230:1342   */\n    tag_396:\n        /* \"#utility.yul\":1351:1392   */\n      tag_399\n        /* \"#utility.yul\":1385:1391   */\n      dup5\n        /* \"#utility.yul\":1380:1383   */\n      dup3\n        /* \"#utility.yul\":1375:1378   */\n      dup6\n        /* \"#utility.yul\":1351:1392   */\n      tag_400\n      jump\t// in\n    tag_399:\n        /* \"#utility.yul\":1070:1398   */\n      pop\n        /* \"#utility.yul\":986:1398   */\n      swap4\n      swap3\n      pop\n      pop\n      pop\n      jump\t// out\n        /* \"#utility.yul\":1404:1543   */\n    tag_401:\n        /* \"#utility.yul\":1450:1455   */\n      0x00\n        /* \"#utility.yul\":1488:1494   */\n      dup2\n        /* \"#utility.yul\":1475:1495   */\n      calldataload\n        /* \"#utility.yul\":1466:1495   */\n      swap1\n      pop\n        /* \"#utility.yul\":1504:1537   */\n      tag_403\n        /* \"#utility.yul\":1531:1536   */\n      dup2\n        /* \"#utility.yul\":1504:1537   */\n      tag_404\n      jump\t// in\n    tag_403:\n        /* \"#utility.yul\":1404:1543   */\n      swap3\n      swap2\n      pop\n      pop\n      jump\t// out\n        /* \"#utility.yul\":1565:1955   */\n    tag_405:\n        /* \"#utility.yul\":1646:1651   */\n      0x00\n        /* \"#utility.yul\":1695:1698   */\n      dup3\n        /* \"#utility.yul\":1688:1692   */\n      0x1f\n        /* \"#utility.yul\":1680:1686   */\n      dup4\n        /* \"#utility.yul\":1676:1693   */\n      add\n        /* \"#utility.yul\":1672:1699   */\n      slt\n        /* \"#utility.yul\":1662:1784   */\n      tag_407\n      jumpi\n        /* \"#utility.yul\":1703:1782   */\n      tag_408\n      tag_388\n      jump\t// in\n    tag_408:\n        /* \"#utility.yul\":1662:1784   */\n    tag_407:\n        /* \"#utility.yul\":1820:1826   */\n      dup2\n        /* \"#utility.yul\":1807:1827   */\n      calldataload\n        /* \"#utility.yul\":1845:1949   */\n      tag_409\n        /* \"#utility.yul\":1945:1948   */\n      dup5\n        /* \"#utility.yul\":1937:1943   */\n      dup3\n        /* \"#utility.yul\":1930:1934   */\n      0x20\n        /* \"#utility.yul\":1922:1928   */\n      dup7\n        /* \"#utility.yul\":1918:1935   */\n      add\n        /* \"#utility.yul\":1845:1949   */\n      tag_374\n      jump\t// in\n    tag_409:\n        /* \"#utility.yul\":1836:1949   */\n      swap2\n      pop\n        /* \"#utility.yul\":1652:1955   */\n      pop\n        /* \"#utility.yul\":1565:1955   */\n      swap3\n      swap2\n      pop\n      pop\n      jump\t// out\n        /* \"#utility.yul\":1975:2315   */\n    tag_390:\n        /* \"#utility.yul\":2031:2036   */\n      0x00\n        /* \"#utility.yul\":2080:2083   */\n      dup3\n        /* \"#utility.yul\":2073:2077   */\n      0x1f\n        /* \"#utility.yul\":2065:2071   */\n      dup4\n        /* \"#utility.yul\":2061:2078   */\n      add\n        /* \"#utility.yul\":2057:2084   */\n      slt\n        /* \"#utility.yul\":2047:2169   */\n      tag_411\n      jumpi\n        /* \"#utility.yul\":2088:2167   */\n      tag_412\n      tag_388\n      jump\t// in\n    tag_412:\n        /* \"#utility.yul\":2047:2169   */\n    tag_411:\n        /* \"#utility.yul\":2205:2211   */\n      dup2\n        /* \"#utility.yul\":2192:2212   */\n      calldataload\n        /* \"#utility.yul\":2230:2309   */\n      tag_413\n        /* \"#utility.yul\":2305:2308   */\n      dup5\n        /* \"#utility.yul\":2297:2303   */\n      dup3\n        /* \"#utility.yul\":2290:2294   */\n      0x20\n        /* \"#utility.yul\":2282:2288   */\n      dup7\n        /* \"#utility.yul\":2278:2295   */\n      add\n        /* \"#utility.yul\":2230:2309   */\n      tag_391\n      jump\t// in\n    tag_413:\n        /* \"#utility.yul\":2221:2309   */\n      swap2\n      pop\n        /* \"#utility.yul\":2037:2315   */\n      pop\n        /* \"#utility.yul\":1975:2315   */\n      swap3\n      swap2\n      pop\n      pop\n      jump\t// out\n        /* \"#utility.yul\":2321:2460   */\n    tag_414:\n        /* \"#utility.yul\":2367:2372   */\n      0x00\n        /* \"#utility.yul\":2405:2411   */\n      dup2\n        /* \"#utility.yul\":2392:2412   */\n      calldataload\n        /* \"#utility.yul\":2383:2412   */\n      swap1\n      pop\n        /* \"#utility.yul\":2421:2454   */\n      tag_416\n        /* \"#utility.yul\":2448:2453   */\n      dup2\n        /* \"#utility.yul\":2421:2454   */\n      tag_417\n      jump\t// in\n    tag_416:\n        /* \"#utility.yul\":2321:2460   */\n      swap3\n      swap2\n      pop\n      pop\n      jump\t// out\n        /* \"#utility.yul\":2466:2795   */\n    tag_55:\n        /* \"#utility.yul\":2525:2531   */\n      0x00\n        /* \"#utility.yul\":2574:2576   */\n      0x20\n        /* \"#utility.yul\":2562:2571   */\n      dup3\n        /* \"#utility.yul\":2553:2560   */\n      dup5\n        /* \"#utility.yul\":2549:2572   */\n      sub\n        /* \"#utility.yul\":2545:2577   */\n      slt\n        /* \"#utility.yul\":2542:2661   */\n      iszero\n      tag_419\n      jumpi\n        /* \"#utility.yul\":2580:2659   */\n      tag_420\n      tag_421\n      jump\t// in\n    tag_420:\n        /* \"#utility.yul\":2542:2661   */\n    tag_419:\n        /* \"#utility.yul\":2700:2701   */\n      0x00\n        /* \"#utility.yul\":2725:2778   */\n      tag_422\n        /* \"#utility.yul\":2770:2777   */\n      dup5\n        /* \"#utility.yul\":2761:2767   */\n      dup3\n        /* \"#utility.yul\":2750:2759   */\n      dup6\n        /* \"#utility.yul\":2746:2768   */\n      add\n        /* \"#utility.yul\":2725:2778   */\n      tag_401\n      jump\t// in\n    tag_422:\n        /* \"#utility.yul\":2715:2778   */\n      swap2\n      pop\n        /* \"#utility.yul\":2671:2788   */\n      pop\n        /* \"#utility.yul\":2466:2795   */\n      swap3\n      swap2\n      pop\n      pop\n      jump\t// out\n        /* \"#utility.yul\":2801:3735   */\n    tag_42:\n        /* \"#utility.yul\":2939:2945   */\n      0x00\n        /* \"#utility.yul\":2947:2953   */\n      dup1\n        /* \"#utility.yul\":2996:2998   */\n      0x40\n        /* \"#utility.yul\":2984:2993   */\n      dup4\n        /* \"#utility.yul\":2975:2982   */\n      dup6\n        /* \"#utility.yul\":2971:2994   */\n      sub\n        /* \"#utility.yul\":2967:2999   */\n      slt\n        /* \"#utility.yul\":2964:3083   */\n      iszero\n      tag_424\n      jumpi\n        /* \"#utility.yul\":3002:3081   */\n      tag_425\n      tag_421\n      jump\t// in\n    tag_425:\n        /* \"#utility.yul\":2964:3083   */\n    tag_424:\n        /* \"#utility.yul\":3150:3151   */\n      0x00\n        /* \"#utility.yul\":3139:3148   */\n      dup4\n        /* \"#utility.yul\":3135:3152   */\n      add\n        /* \"#utility.yul\":3122:3153   */\n      calldataload\n        /* \"#utility.yul\":3180:3198   */\n      0xffffffffffffffff\n        /* \"#utility.yul\":3172:3178   */\n      dup2\n        /* \"#utility.yul\":3169:3199   */\n      gt\n        /* \"#utility.yul\":3166:3283   */\n      iszero\n      tag_426\n      jumpi\n        /* \"#utility.yul\":3202:3281   */\n      tag_427\n      tag_428\n      jump\t// in\n    tag_427:\n        /* \"#utility.yul\":3166:3283   */\n    tag_426:\n        /* \"#utility.yul\":3307:3395   */\n      tag_429\n        /* \"#utility.yul\":3387:3394   */\n      dup6\n        /* \"#utility.yul\":3378:3384   */\n      dup3\n        /* \"#utility.yul\":3367:3376   */\n      dup7\n        /* \"#utility.yul\":3363:3385   */\n      add\n        /* \"#utility.yul\":3307:3395   */\n      tag_405\n      jump\t// in\n    tag_429:\n        /* \"#utility.yul\":3297:3395   */\n      swap3\n      pop\n        /* \"#utility.yul\":3093:3405   */\n      pop\n        /* \"#utility.yul\":3472:3474   */\n      0x20\n        /* \"#utility.yul\":3461:3470   */\n      dup4\n        /* \"#utility.yul\":3457:3475   */\n      add\n        /* \"#utility.yul\":3444:3476   */\n      calldataload\n        /* \"#utility.yul\":3503:3521   */\n      0xffffffffffffffff\n        /* \"#utility.yul\":3495:3501   */\n      dup2\n        /* \"#utility.yul\":3492:3522   */\n      gt\n        /* \"#utility.yul\":3489:3606   */\n      iszero\n      tag_430\n      jumpi\n        /* \"#utility.yul\":3525:3604   */\n      tag_431\n      tag_428\n      jump\t// in\n    tag_431:\n        /* \"#utility.yul\":3489:3606   */\n    tag_430:\n        /* \"#utility.yul\":3630:3718   */\n      tag_432\n        /* \"#utility.yul\":3710:3717   */\n      dup6\n        /* \"#utility.yul\":3701:3707   */\n      dup3\n        /* \"#utility.yul\":3690:3699   */\n      dup7\n        /* \"#utility.yul\":3686:3708   */\n      add\n        /* \"#utility.yul\":3630:3718   */\n      tag_405\n      jump\t// in\n    tag_432:\n        /* \"#utility.yul\":3620:3718   */\n      swap2\n      pop\n        /* \"#utility.yul\":3415:3728   */\n      pop\n        /* \"#utility.yul\":2801:3735   */\n      swap3\n      pop\n      swap3\n      swap1\n      pop\n      jump\t// out\n        /* \"#utility.yul\":3741:5050   */\n    tag_28:\n        /* \"#utility.yul\":3923:3929   */\n      0x00\n        /* \"#utility.yul\":3931:3937   */\n      dup1\n        /* \"#utility.yul\":3939:3945   */\n      0x00\n        /* \"#utility.yul\":3988:3990   */\n      0x60\n        /* \"#utility.yul\":3976:3985   */\n      dup5\n        /* \"#utility.yul\":3967:3974   */\n      dup7\n        /* \"#utility.yul\":3963:3986   */\n      sub\n        /* \"#utility.yul\":3959:3991   */\n      slt\n        /* \"#utility.yul\":3956:4075   */\n      iszero\n      tag_434\n      jumpi\n        /* \"#utility.yul\":3994:4073   */\n      tag_435\n      tag_421\n      jump\t// in\n    tag_435:\n        /* \"#utility.yul\":3956:4075   */\n    tag_434:\n        /* \"#utility.yul\":4142:4143   */\n      0x00\n        /* \"#utility.yul\":4131:4140   */\n      dup5\n        /* \"#utility.yul\":4127:4144   */\n      add\n        /* \"#utility.yul\":4114:4145   */\n      calldataload\n        /* \"#utility.yul\":4172:4190   */\n      0xffffffffffffffff\n        /* \"#utility.yul\":4164:4170   */\n      dup2\n        /* \"#utility.yul\":4161:4191   */\n      gt\n        /* \"#utility.yul\":4158:4275   */\n      iszero\n      tag_436\n      jumpi\n        /* \"#utility.yul\":4194:4273   */\n      tag_437\n      tag_428\n      jump\t// in\n    tag_437:\n        /* \"#utility.yul\":4158:4275   */\n    tag_436:\n        /* \"#utility.yul\":4299:4387   */\n      tag_438\n        /* \"#utility.yul\":4379:4386   */\n      dup7\n        /* \"#utility.yul\":4370:4376   */\n      dup3\n        /* \"#utility.yul\":4359:4368   */\n      dup8\n        /* \"#utility.yul\":4355:4377   */\n      add\n        /* \"#utility.yul\":4299:4387   */\n      tag_405\n      jump\t// in\n    tag_438:\n        /* \"#utility.yul\":4289:4387   */\n      swap4\n      pop\n        /* \"#utility.yul\":4085:4397   */\n      pop\n        /* \"#utility.yul\":4464:4466   */\n      0x20\n        /* \"#utility.yul\":4453:4462   */\n      dup5\n        /* \"#utility.yul\":4449:4467   */\n      add\n        /* \"#utility.yul\":4436:4468   */\n      calldataload\n        /* \"#utility.yul\":4495:4513   */\n      0xffffffffffffffff\n        /* \"#utility.yul\":4487:4493   */\n      dup2\n        /* \"#utility.yul\":4484:4514   */\n      gt\n        /* \"#utility.yul\":4481:4598   */\n      iszero\n      tag_439\n      jumpi\n        /* \"#utility.yul\":4517:4596   */\n      tag_440\n      tag_428\n      jump\t// in\n    tag_440:\n        /* \"#utility.yul\":4481:4598   */\n    tag_439:\n        /* \"#utility.yul\":4622:4710   */\n      tag_441\n        /* \"#utility.yul\":4702:4709   */\n      dup7\n        /* \"#utility.yul\":4693:4699   */\n      dup3\n        /* \"#utility.yul\":4682:4691   */\n      dup8\n        /* \"#utility.yul\":4678:4700   */\n      add\n        /* \"#utility.yul\":4622:4710   */\n      tag_405\n      jump\t// in\n    tag_441:\n        /* \"#utility.yul\":4612:4710   */\n      swap3\n      pop\n        /* \"#utility.yul\":4407:4720   */\n      pop\n        /* \"#utility.yul\":4787:4789   */\n      0x40\n        /* \"#utility.yul\":4776:4785   */\n      dup5\n        /* \"#utility.yul\":4772:4790   */\n      add\n        /* \"#utility.yul\":4759:4791   */\n      calldataload\n        /* \"#utility.yul\":4818:4836   */\n      0xffffffffffffffff\n        /* \"#utility.yul\":4810:4816   */\n      dup2\n        /* \"#utility.yul\":4807:4837   */\n      gt\n        /* \"#utility.yul\":4804:4921   */\n      iszero\n      tag_442\n      jumpi\n        /* \"#utility.yul\":4840:4919   */\n      tag_443\n      tag_428\n      jump\t// in\n    tag_443:\n        /* \"#utility.yul\":4804:4921   */\n    tag_442:\n        /* \"#utility.yul\":4945:5033   */\n      tag_444\n        /* \"#utility.yul\":5025:5032   */\n      dup7\n        /* \"#utility.yul\":5016:5022   */\n      dup3\n        /* \"#utility.yul\":5005:5014   */\n      dup8\n        /* \"#utility.yul\":5001:5023   */\n      add\n        /* \"#utility.yul\":4945:5033   */\n      tag_405\n      jump\t// in\n    tag_444:\n        /* \"#utility.yul\":4935:5033   */\n      swap2\n      pop\n        /* \"#utility.yul\":4730:5043   */\n      pop\n        /* \"#utility.yul\":3741:5050   */\n      swap3\n      pop\n      swap3\n      pop\n      swap3\n      jump\t// out\n        /* \"#utility.yul\":5056:5890   */\n    tag_24:\n        /* \"#utility.yul\":5144:5150   */\n      0x00\n        /* \"#utility.yul\":5152:5158   */\n      dup1\n        /* \"#utility.yul\":5201:5203   */\n      0x40\n        /* \"#utility.yul\":5189:5198   */\n      dup4\n        /* \"#utility.yul\":5180:5187   */\n      dup6\n        /* \"#utility.yul\":5176:5199   */\n      sub\n        /* \"#utility.yul\":5172:5204   */\n      slt\n        /* \"#utility.yul\":5169:5288   */\n      iszero\n      tag_446\n      jumpi\n        /* \"#utility.yul\":5207:5286   */\n      tag_447\n      tag_421\n      jump\t// in\n    tag_447:\n        /* \"#utility.yul\":5169:5288   */\n    tag_446:\n        /* \"#utility.yul\":5355:5356   */\n      0x00\n        /* \"#utility.yul\":5344:5353   */\n      dup4\n        /* \"#utility.yul\":5340:5357   */\n      add\n        /* \"#utility.yul\":5327:5358   */\n      calldataload\n        /* \"#utility.yul\":5385:5403   */\n      0xffffffffffffffff\n        /* \"#utility.yul\":5377:5383   */\n      dup2\n        /* \"#utility.yul\":5374:5404   */\n      gt\n        /* \"#utility.yul\":5371:5488   */\n      iszero\n      tag_448\n      jumpi\n        /* \"#utility.yul\":5407:5486   */\n      tag_449\n      tag_428\n      jump\t// in\n    tag_449:\n        /* \"#utility.yul\":5371:5488   */\n    tag_448:\n        /* \"#utility.yul\":5512:5575   */\n      tag_450\n        /* \"#utility.yul\":5567:5574   */\n      dup6\n        /* \"#utility.yul\":5558:5564   */\n      dup3\n        /* \"#utility.yul\":5547:5556   */\n      dup7\n        /* \"#utility.yul\":5543:5565   */\n      add\n        /* \"#utility.yul\":5512:5575   */\n      tag_390\n      jump\t// in\n    tag_450:\n        /* \"#utility.yul\":5502:5575   */\n      swap3\n      pop\n        /* \"#utility.yul\":5298:5585   */\n      pop\n        /* \"#utility.yul\":5652:5654   */\n      0x20\n        /* \"#utility.yul\":5641:5650   */\n      dup4\n        /* \"#utility.yul\":5637:5655   */\n      add\n        /* \"#utility.yul\":5624:5656   */\n      calldataload\n        /* \"#utility.yul\":5683:5701   */\n      0xffffffffffffffff\n        /* \"#utility.yul\":5675:5681   */\n      dup2\n        /* \"#utility.yul\":5672:5702   */\n      gt\n        /* \"#utility.yul\":5669:5786   */\n      iszero\n      tag_451\n      jumpi\n        /* \"#utility.yul\":5705:5784   */\n      tag_452\n      tag_428\n      jump\t// in\n    tag_452:\n        /* \"#utility.yul\":5669:5786   */\n    tag_451:\n        /* \"#utility.yul\":5810:5873   */\n      tag_453\n        /* \"#utility.yul\":5865:5872   */\n      dup6\n        /* \"#utility.yul\":5856:5862   */\n      dup3\n        /* \"#utility.yul\":5845:5854   */\n      dup7\n        /* \"#utility.yul\":5841:5863   */\n      add\n        /* \"#utility.yul\":5810:5873   */\n      tag_390\n      jump\t// in\n    tag_453:\n        /* \"#utility.yul\":5800:5873   */\n      swap2\n      pop\n        /* \"#utility.yul\":5595:5883   */\n      pop\n        /* \"#utility.yul\":5056:5890   */\n      swap3\n      pop\n      swap3\n      swap1\n      pop\n      jump\t// out\n        /* \"#utility.yul\":5896:7707   */\n    tag_38:\n        /* \"#utility.yul\":6041:6047   */\n      0x00\n        /* \"#utility.yul\":6049:6055   */\n      dup1\n        /* \"#utility.yul\":6057:6063   */\n      0x00\n        /* \"#utility.yul\":6065:6071   */\n      dup1\n        /* \"#utility.yul\":6073:6079   */\n      0x00\n        /* \"#utility.yul\":6122:6125   */\n      0xa0\n        /* \"#utility.yul\":6110:6119   */\n      dup7\n        /* \"#utility.yul\":6101:6108   */\n      dup9\n        /* \"#utility.yul\":6097:6120   */\n      sub\n        /* \"#utility.yul\":6093:6126   */\n      slt\n        /* \"#utility.yul\":6090:6210   */\n      iszero\n      tag_455\n      jumpi\n        /* \"#utility.yul\":6129:6208   */\n      tag_456\n      tag_421\n      jump\t// in\n    tag_456:\n        /* \"#utility.yul\":6090:6210   */\n    tag_455:\n        /* \"#utility.yul\":6277:6278   */\n      0x00\n        /* \"#utility.yul\":6266:6275   */\n      dup7\n        /* \"#utility.yul\":6262:6279   */\n      add\n        /* \"#utility.yul\":6249:6280   */\n      calldataload\n        /* \"#utility.yul\":6307:6325   */\n      0xffffffffffffffff\n        /* \"#utility.yul\":6299:6305   */\n      dup2\n        /* \"#utility.yul\":6296:6326   */\n      gt\n        /* \"#utility.yul\":6293:6410   */\n      iszero\n      tag_457\n      jumpi\n        /* \"#utility.yul\":6329:6408   */\n      tag_458\n      tag_428\n      jump\t// in\n    tag_458:\n        /* \"#utility.yul\":6293:6410   */\n    tag_457:\n        /* \"#utility.yul\":6434:6497   */\n      tag_459\n        /* \"#utility.yul\":6489:6496   */\n      dup9\n        /* \"#utility.yul\":6480:6486   */\n      dup3\n        /* \"#utility.yul\":6469:6478   */\n      dup10\n        /* \"#utility.yul\":6465:6487   */\n      add\n        /* \"#utility.yul\":6434:6497   */\n      tag_390\n      jump\t// in\n    tag_459:\n        /* \"#utility.yul\":6424:6497   */\n      swap6\n      pop\n        /* \"#utility.yul\":6220:6507   */\n      pop\n        /* \"#utility.yul\":6574:6576   */\n      0x20\n        /* \"#utility.yul\":6563:6572   */\n      dup7\n        /* \"#utility.yul\":6559:6577   */\n      add\n        /* \"#utility.yul\":6546:6578   */\n      calldataload\n        /* \"#utility.yul\":6605:6623   */\n      0xffffffffffffffff\n        /* \"#utility.yul\":6597:6603   */\n      dup2\n        /* \"#utility.yul\":6594:6624   */\n      gt\n        /* \"#utility.yul\":6591:6708   */\n      iszero\n      tag_460\n      jumpi\n        /* \"#utility.yul\":6627:6706   */\n      tag_461\n      tag_428\n      jump\t// in\n    tag_461:\n        /* \"#utility.yul\":6591:6708   */\n    tag_460:\n        /* \"#utility.yul\":6732:6795   */\n      tag_462\n        /* \"#utility.yul\":6787:6794   */\n      dup9\n        /* \"#utility.yul\":6778:6784   */\n      dup3\n        /* \"#utility.yul\":6767:6776   */\n      dup10\n        /* \"#utility.yul\":6763:6785   */\n      add\n        /* \"#utility.yul\":6732:6795   */\n      tag_390\n      jump\t// in\n    tag_462:\n        /* \"#utility.yul\":6722:6795   */\n      swap5\n      pop\n        /* \"#utility.yul\":6517:6805   */\n      pop\n        /* \"#utility.yul\":6872:6874   */\n      0x40\n        /* \"#utility.yul\":6861:6870   */\n      dup7\n        /* \"#utility.yul\":6857:6875   */\n      add\n        /* \"#utility.yul\":6844:6876   */\n      calldataload\n        /* \"#utility.yul\":6903:6921   */\n      0xffffffffffffffff\n        /* \"#utility.yul\":6895:6901   */\n      dup2\n        /* \"#utility.yul\":6892:6922   */\n      gt\n        /* \"#utility.yul\":6889:7006   */\n      iszero\n      tag_463\n      jumpi\n        /* \"#utility.yul\":6925:7004   */\n      tag_464\n      tag_428\n      jump\t// in\n    tag_464:\n        /* \"#utility.yul\":6889:7006   */\n    tag_463:\n        /* \"#utility.yul\":7030:7093   */\n      tag_465\n        /* \"#utility.yul\":7085:7092   */\n      dup9\n        /* \"#utility.yul\":7076:7082   */\n      dup3\n        /* \"#utility.yul\":7065:7074   */\n      dup10\n        /* \"#utility.yul\":7061:7083   */\n      add\n        /* \"#utility.yul\":7030:7093   */\n      tag_390\n      jump\t// in\n    tag_465:\n        /* \"#utility.yul\":7020:7093   */\n      swap4\n      pop\n        /* \"#utility.yul\":6815:7103   */\n      pop\n        /* \"#utility.yul\":7170:7172   */\n      0x60\n        /* \"#utility.yul\":7159:7168   */\n      dup7\n        /* \"#utility.yul\":7155:7173   */\n      add\n        /* \"#utility.yul\":7142:7174   */\n      calldataload\n        /* \"#utility.yul\":7201:7219   */\n      0xffffffffffffffff\n        /* \"#utility.yul\":7193:7199   */\n      dup2\n        /* \"#utility.yul\":7190:7220   */\n      gt\n        /* \"#utility.yul\":7187:7304   */\n      iszero\n      tag_466\n      jumpi\n        /* \"#utility.yul\":7223:7302   */\n      tag_467\n      tag_428\n      jump\t// in\n    tag_467:\n        /* \"#utility.yul\":7187:7304   */\n    tag_466:\n        /* \"#utility.yul\":7328:7391   */\n      tag_468\n        /* \"#utility.yul\":7383:7390   */\n      dup9\n        /* \"#utility.yul\":7374:7380   */\n      dup3\n        /* \"#utility.yul\":7363:7372   */\n      dup10\n        /* \"#utility.yul\":7359:7381   */\n      add\n        /* \"#utility.yul\":7328:7391   */\n      tag_390\n      jump\t// in\n    tag_468:\n        /* \"#utility.yul\":7318:7391   */\n      swap3\n      pop\n        /* \"#utility.yul\":7113:7401   */\n      pop\n        /* \"#utility.yul\":7468:7471   */\n      0x80\n        /* \"#utility.yul\":7457:7466   */\n      dup7\n        /* \"#utility.yul\":7453:7472   */\n      add\n        /* \"#utility.yul\":7440:7473   */\n      calldataload\n        /* \"#utility.yul\":7500:7518   */\n      0xffffffffffffffff\n        /* \"#utility.yul\":7492:7498   */\n      dup2\n        /* \"#utility.yul\":7489:7519   */\n      gt\n        /* \"#utility.yul\":7486:7603   */\n      iszero\n      tag_469\n      jumpi\n        /* \"#utility.yul\":7522:7601   */\n      tag_470\n      tag_428\n      jump\t// in\n    tag_470:\n        /* \"#utility.yul\":7486:7603   */\n    tag_469:\n        /* \"#utility.yul\":7627:7690   */\n      tag_471\n        /* \"#utility.yul\":7682:7689   */\n      dup9\n        /* \"#utility.yul\":7673:7679   */\n      dup3\n        /* \"#utility.yul\":7662:7671   */\n      dup10\n        /* \"#utility.yul\":7658:7680   */\n      add\n        /* \"#utility.yul\":7627:7690   */\n      tag_390\n      jump\t// in\n    tag_471:\n        /* \"#utility.yul\":7617:7690   */\n      swap2\n      pop\n        /* \"#utility.yul\":7411:7700   */\n      pop\n        /* \"#utility.yul\":5896:7707   */\n      swap3\n      swap6\n      pop\n      swap3\n      swap6\n      swap1\n      swap4\n      pop\n      jump\t// out\n        /* \"#utility.yul\":7713:9850   */\n    tag_49:\n        /* \"#utility.yul\":7877:7883   */\n      0x00\n        /* \"#utility.yul\":7885:7891   */\n      dup1\n        /* \"#utility.yul\":7893:7899   */\n      0x00\n        /* \"#utility.yul\":7901:7907   */\n      dup1\n        /* \"#utility.yul\":7909:7915   */\n      0x00\n        /* \"#utility.yul\":7917:7923   */\n      dup1\n        /* \"#utility.yul\":7966:7969   */\n      0xc0\n        /* \"#utility.yul\":7954:7963   */\n      dup8\n        /* \"#utility.yul\":7945:7952   */\n      dup10\n        /* \"#utility.yul\":7941:7964   */\n      sub\n        /* \"#utility.yul\":7937:7970   */\n      slt\n        /* \"#utility.yul\":7934:8054   */\n      iszero\n      tag_473\n      jumpi\n        /* \"#utility.yul\":7973:8052   */\n      tag_474\n      tag_421\n      jump\t// in\n    tag_474:\n        /* \"#utility.yul\":7934:8054   */\n    tag_473:\n        /* \"#utility.yul\":8121:8122   */\n      0x00\n        /* \"#utility.yul\":8110:8119   */\n      dup8\n        /* \"#utility.yul\":8106:8123   */\n      add\n        /* \"#utility.yul\":8093:8124   */\n      calldataload\n        /* \"#utility.yul\":8151:8169   */\n      0xffffffffffffffff\n        /* \"#utility.yul\":8143:8149   */\n      dup2\n        /* \"#utility.yul\":8140:8170   */\n      gt\n        /* \"#utility.yul\":8137:8254   */\n      iszero\n      tag_475\n      jumpi\n        /* \"#utility.yul\":8173:8252   */\n      tag_476\n      tag_428\n      jump\t// in\n    tag_476:\n        /* \"#utility.yul\":8137:8254   */\n    tag_475:\n        /* \"#utility.yul\":8278:8341   */\n      tag_477\n        /* \"#utility.yul\":8333:8340   */\n      dup10\n        /* \"#utility.yul\":8324:8330   */\n      dup3\n        /* \"#utility.yul\":8313:8322   */\n      dup11\n        /* \"#utility.yul\":8309:8331   */\n      add\n        /* \"#utility.yul\":8278:8341   */\n      tag_390\n      jump\t// in\n    tag_477:\n        /* \"#utility.yul\":8268:8341   */\n      swap7\n      pop\n        /* \"#utility.yul\":8064:8351   */\n      pop\n        /* \"#utility.yul\":8418:8420   */\n      0x20\n        /* \"#utility.yul\":8407:8416   */\n      dup8\n        /* \"#utility.yul\":8403:8421   */\n      add\n        /* \"#utility.yul\":8390:8422   */\n      calldataload\n        /* \"#utility.yul\":8449:8467   */\n      0xffffffffffffffff\n        /* \"#utility.yul\":8441:8447   */\n      dup2\n        /* \"#utility.yul\":8438:8468   */\n      gt\n        /* \"#utility.yul\":8435:8552   */\n      iszero\n      tag_478\n      jumpi\n        /* \"#utility.yul\":8471:8550   */\n      tag_479\n      tag_428\n      jump\t// in\n    tag_479:\n        /* \"#utility.yul\":8435:8552   */\n    tag_478:\n        /* \"#utility.yul\":8576:8639   */\n      tag_480\n        /* \"#utility.yul\":8631:8638   */\n      dup10\n        /* \"#utility.yul\":8622:8628   */\n      dup3\n        /* \"#utility.yul\":8611:8620   */\n      dup11\n        /* \"#utility.yul\":8607:8629   */\n      add\n        /* \"#utility.yul\":8576:8639   */\n      tag_390\n      jump\t// in\n    tag_480:\n        /* \"#utility.yul\":8566:8639   */\n      swap6\n      pop\n        /* \"#utility.yul\":8361:8649   */\n      pop\n        /* \"#utility.yul\":8716:8718   */\n      0x40\n        /* \"#utility.yul\":8705:8714   */\n      dup8\n        /* \"#utility.yul\":8701:8719   */\n      add\n        /* \"#utility.yul\":8688:8720   */\n      calldataload\n        /* \"#utility.yul\":8747:8765   */\n      0xffffffffffffffff\n        /* \"#utility.yul\":8739:8745   */\n      dup2\n        /* \"#utility.yul\":8736:8766   */\n      gt\n        /* \"#utility.yul\":8733:8850   */\n      iszero\n      tag_481\n      jumpi\n        /* \"#utility.yul\":8769:8848   */\n      tag_482\n      tag_428\n      jump\t// in\n    tag_482:\n        /* \"#utility.yul\":8733:8850   */\n    tag_481:\n        /* \"#utility.yul\":8874:8937   */\n      tag_483\n        /* \"#utility.yul\":8929:8936   */\n      dup10\n        /* \"#utility.yul\":8920:8926   */\n      dup3\n        /* \"#utility.yul\":8909:8918   */\n      dup11\n        /* \"#utility.yul\":8905:8927   */\n      add\n        /* \"#utility.yul\":8874:8937   */\n      tag_390\n      jump\t// in\n    tag_483:\n        /* \"#utility.yul\":8864:8937   */\n      swap5\n      pop\n        /* \"#utility.yul\":8659:8947   */\n      pop\n        /* \"#utility.yul\":9014:9016   */\n      0x60\n        /* \"#utility.yul\":9003:9012   */\n      dup8\n        /* \"#utility.yul\":8999:9017   */\n      add\n        /* \"#utility.yul\":8986:9018   */\n      calldataload\n        /* \"#utility.yul\":9045:9063   */\n      0xffffffffffffffff\n        /* \"#utility.yul\":9037:9043   */\n      dup2\n        /* \"#utility.yul\":9034:9064   */\n      gt\n        /* \"#utility.yul\":9031:9148   */\n      iszero\n      tag_484\n      jumpi\n        /* \"#utility.yul\":9067:9146   */\n      tag_485\n      tag_428\n      jump\t// in\n    tag_485:\n        /* \"#utility.yul\":9031:9148   */\n    tag_484:\n        /* \"#utility.yul\":9172:9235   */\n      tag_486\n        /* \"#utility.yul\":9227:9234   */\n      dup10\n        /* \"#utility.yul\":9218:9224   */\n      dup3\n        /* \"#utility.yul\":9207:9216   */\n      dup11\n        /* \"#utility.yul\":9203:9225   */\n      add\n        /* \"#utility.yul\":9172:9235   */\n      tag_390\n      jump\t// in\n    tag_486:\n        /* \"#utility.yul\":9162:9235   */\n      swap4\n      pop\n        /* \"#utility.yul\":8957:9245   */\n      pop\n        /* \"#utility.yul\":9312:9315   */\n      0x80\n        /* \"#utility.yul\":9301:9310   */\n      dup8\n        /* \"#utility.yul\":9297:9316   */\n      add\n        /* \"#utility.yul\":9284:9317   */\n      calldataload\n        /* \"#utility.yul\":9344:9362   */\n      0xffffffffffffffff\n        /* \"#utility.yul\":9336:9342   */\n      dup2\n        /* \"#utility.yul\":9333:9363   */\n      gt\n        /* \"#utility.yul\":9330:9447   */\n      iszero\n      tag_487\n      jumpi\n        /* \"#utility.yul\":9366:9445   */\n      tag_488\n      tag_428\n      jump\t// in\n    tag_488:\n        /* \"#utility.yul\":9330:9447   */\n    tag_487:\n        /* \"#utility.yul\":9471:9534   */\n      tag_489\n        /* \"#utility.yul\":9526:9533   */\n      dup10\n        /* \"#utility.yul\":9517:9523   */\n      dup3\n        /* \"#utility.yul\":9506:9515   */\n      dup11\n        /* \"#utility.yul\":9502:9524   */\n      add\n        /* \"#utility.yul\":9471:9534   */\n      tag_390\n      jump\t// in\n    tag_489:\n        /* \"#utility.yul\":9461:9534   */\n      swap3\n      pop\n        /* \"#utility.yul\":9255:9544   */\n      pop\n        /* \"#utility.yul\":9611:9614   */\n      0xa0\n        /* \"#utility.yul\":9600:9609   */\n      dup8\n        /* \"#utility.yul\":9596:9615   */\n      add\n        /* \"#utility.yul\":9583:9616   */\n      calldataload\n        /* \"#utility.yul\":9643:9661   */\n      0xffffffffffffffff\n        /* \"#utility.yul\":9635:9641   */\n      dup2\n        /* \"#utility.yul\":9632:9662   */\n      gt\n        /* \"#utility.yul\":9629:9746   */\n      iszero\n      tag_490\n      jumpi\n        /* \"#utility.yul\":9665:9744   */\n      tag_491\n      tag_428\n      jump\t// in\n    tag_491:\n        /* \"#utility.yul\":9629:9746   */\n    tag_490:\n        /* \"#utility.yul\":9770:9833   */\n      tag_492\n        /* \"#utility.yul\":9825:9832   */\n      dup10\n        /* \"#utility.yul\":9816:9822   */\n      dup3\n        /* \"#utility.yul\":9805:9814   */\n      dup11\n        /* \"#utility.yul\":9801:9823   */\n      add\n        /* \"#utility.yul\":9770:9833   */\n      tag_390\n      jump\t// in\n    tag_492:\n        /* \"#utility.yul\":9760:9833   */\n      swap2\n      pop\n        /* \"#utility.yul\":9554:9843   */\n      pop\n        /* \"#utility.yul\":7713:9850   */\n      swap3\n      swap6\n      pop\n      swap3\n      swap6\n      pop\n      swap3\n      swap6\n      jump\t// out\n        /* \"#utility.yul\":9856:10185   */\n    tag_63:\n        /* \"#utility.yul\":9915:9921   */\n      0x00\n        /* \"#utility.yul\":9964:9966   */\n      0x20\n        /* \"#utility.yul\":9952:9961   */\n      dup3\n        /* \"#utility.yul\":9943:9950   */\n      dup5\n        /* \"#utility.yul\":9939:9962   */\n      sub\n        /* \"#utility.yul\":9935:9967   */\n      slt\n        /* \"#utility.yul\":9932:10051   */\n      iszero\n      tag_494\n      jumpi\n        /* \"#utility.yul\":9970:10049   */\n      tag_495\n      tag_421\n      jump\t// in\n    tag_495:\n        /* \"#utility.yul\":9932:10051   */\n    tag_494:\n        /* \"#utility.yul\":10090:10091   */\n      0x00\n        /* \"#utility.yul\":10115:10168   */\n      tag_496\n        /* \"#utility.yul\":10160:10167   */\n      dup5\n        /* \"#utility.yul\":10151:10157   */\n      dup3\n        /* \"#utility.yul\":10140:10149   */\n      dup6\n        /* \"#utility.yul\":10136:10158   */\n      add\n        /* \"#utility.yul\":10115:10168   */\n      tag_414\n      jump\t// in\n    tag_496:\n        /* \"#utility.yul\":10105:10168   */\n      swap2\n      pop\n        /* \"#utility.yul\":10061:10178   */\n      pop\n        /* \"#utility.yul\":9856:10185   */\n      swap3\n      swap2\n      pop\n      pop\n      jump\t// out\n        /* \"#utility.yul\":10191:10387   */\n    tag_497:\n        /* \"#utility.yul\":10280:10290   */\n      0x00\n        /* \"#utility.yul\":10315:10381   */\n      tag_499\n        /* \"#utility.yul\":10377:10380   */\n      dup4\n        /* \"#utility.yul\":10369:10375   */\n      dup4\n        /* \"#utility.yul\":10315:10381   */\n      tag_500\n      jump\t// in\n    tag_499:\n        /* \"#utility.yul\":10301:10381   */\n      swap1\n      pop\n        /* \"#utility.yul\":10191:10387   */\n      swap3\n      swap2\n      pop\n      pop\n      jump\t// out\n        /* \"#utility.yul\":10393:10501   */\n    tag_501:\n        /* \"#utility.yul\":10470:10494   */\n      tag_503\n        /* \"#utility.yul\":10488:10493   */\n      dup2\n        /* \"#utility.yul\":10470:10494   */\n      tag_504\n      jump\t// in\n    tag_503:\n        /* \"#utility.yul\":10465:10468   */\n      dup3\n        /* \"#utility.yul\":10458:10495   */\n      mstore\n        /* \"#utility.yul\":10393:10501   */\n      pop\n      pop\n      jump\t// out\n        /* \"#utility.yul\":10535:11506   */\n    tag_505:\n        /* \"#utility.yul\":10664:10667   */\n      0x00\n        /* \"#utility.yul\":10693:10757   */\n      tag_507\n        /* \"#utility.yul\":10751:10756   */\n      dup3\n        /* \"#utility.yul\":10693:10757   */\n      tag_508\n      jump\t// in\n    tag_507:\n        /* \"#utility.yul\":10773:10859   */\n      tag_509\n        /* \"#utility.yul\":10852:10858   */\n      dup2\n        /* \"#utility.yul\":10847:10850   */\n      dup6\n        /* \"#utility.yul\":10773:10859   */\n      tag_510\n      jump\t// in\n    tag_509:\n        /* \"#utility.yul\":10766:10859   */\n      swap4\n      pop\n        /* \"#utility.yul\":10885:10888   */\n      dup4\n        /* \"#utility.yul\":10930:10934   */\n      0x20\n        /* \"#utility.yul\":10922:10928   */\n      dup3\n        /* \"#utility.yul\":10918:10935   */\n      mul\n        /* \"#utility.yul\":10913:10916   */\n      dup6\n        /* \"#utility.yul\":10909:10936   */\n      add\n        /* \"#utility.yul\":10960:11026   */\n      tag_511\n        /* \"#utility.yul\":11020:11025   */\n      dup6\n        /* \"#utility.yul\":10960:11026   */\n      tag_512\n      jump\t// in\n    tag_511:\n        /* \"#utility.yul\":11049:11056   */\n      dup1\n        /* \"#utility.yul\":11080:11081   */\n      0x00\n        /* \"#utility.yul\":11065:11461   */\n    tag_513:\n        /* \"#utility.yul\":11090:11096   */\n      dup6\n        /* \"#utility.yul\":11087:11088   */\n      dup2\n        /* \"#utility.yul\":11084:11097   */\n      lt\n        /* \"#utility.yul\":11065:11461   */\n      iszero\n      tag_515\n      jumpi\n        /* \"#utility.yul\":11161:11170   */\n      dup5\n        /* \"#utility.yul\":11155:11159   */\n      dup5\n        /* \"#utility.yul\":11151:11171   */\n      sub\n        /* \"#utility.yul\":11146:11149   */\n      dup10\n        /* \"#utility.yul\":11139:11172   */\n      mstore\n        /* \"#utility.yul\":11212:11218   */\n      dup2\n        /* \"#utility.yul\":11206:11219   */\n      mload\n        /* \"#utility.yul\":11240:11324   */\n      tag_516\n        /* \"#utility.yul\":11319:11323   */\n      dup6\n        /* \"#utility.yul\":11304:11317   */\n      dup3\n        /* \"#utility.yul\":11240:11324   */\n      tag_497\n      jump\t// in\n    tag_516:\n        /* \"#utility.yul\":11232:11324   */\n      swap5\n      pop\n        /* \"#utility.yul\":11347:11417   */\n      tag_517\n        /* \"#utility.yul\":11410:11416   */\n      dup4\n        /* \"#utility.yul\":11347:11417   */\n      tag_518\n      jump\t// in\n    tag_517:\n        /* \"#utility.yul\":11337:11417   */\n      swap3\n      pop\n        /* \"#utility.yul\":11446:11450   */\n      0x20\n        /* \"#utility.yul\":11441:11444   */\n      dup11\n        /* \"#utility.yul\":11437:11451   */\n      add\n        /* \"#utility.yul\":11430:11451   */\n      swap10\n      pop\n        /* \"#utility.yul\":11125:11461   */\n      pop\n        /* \"#utility.yul\":11112:11113   */\n      0x01\n        /* \"#utility.yul\":11109:11110   */\n      dup2\n        /* \"#utility.yul\":11105:11114   */\n      add\n        /* \"#utility.yul\":11100:11114   */\n      swap1\n      pop\n        /* \"#utility.yul\":11065:11461   */\n      jump(tag_513)\n    tag_515:\n        /* \"#utility.yul\":11069:11083   */\n      pop\n        /* \"#utility.yul\":11477:11481   */\n      dup3\n        /* \"#utility.yul\":11470:11481   */\n      swap8\n      pop\n        /* \"#utility.yul\":11497:11500   */\n      dup8\n        /* \"#utility.yul\":11490:11500   */\n      swap6\n      pop\n        /* \"#utility.yul\":10669:11506   */\n      pop\n      pop\n      pop\n      pop\n      pop\n        /* \"#utility.yul\":10535:11506   */\n      swap3\n      swap2\n      pop\n      pop\n      jump\t// out\n        /* \"#utility.yul\":11512:11856   */\n    tag_500:\n        /* \"#utility.yul\":11590:11593   */\n      0x00\n        /* \"#utility.yul\":11618:11657   */\n      tag_520\n        /* \"#utility.yul\":11651:11656   */\n      dup3\n        /* \"#utility.yul\":11618:11657   */\n      tag_521\n      jump\t// in\n    tag_520:\n        /* \"#utility.yul\":11673:11734   */\n      tag_522\n        /* \"#utility.yul\":11727:11733   */\n      dup2\n        /* \"#utility.yul\":11722:11725   */\n      dup6\n        /* \"#utility.yul\":11673:11734   */\n      tag_523\n      jump\t// in\n    tag_522:\n        /* \"#utility.yul\":11666:11734   */\n      swap4\n      pop\n        /* \"#utility.yul\":11743:11795   */\n      tag_524\n        /* \"#utility.yul\":11788:11794   */\n      dup2\n        /* \"#utility.yul\":11783:11786   */\n      dup6\n        /* \"#utility.yul\":11776:11780   */\n      0x20\n        /* \"#utility.yul\":11769:11774   */\n      dup7\n        /* \"#utility.yul\":11765:11781   */\n      add\n        /* \"#utility.yul\":11743:11795   */\n      tag_525\n      jump\t// in\n    tag_524:\n        /* \"#utility.yul\":11820:11849   */\n      tag_526\n        /* \"#utility.yul\":11842:11848   */\n      dup2\n        /* \"#utility.yul\":11820:11849   */\n      tag_527\n      jump\t// in\n    tag_526:\n        /* \"#utility.yul\":11815:11818   */\n      dup5\n        /* \"#utility.yul\":11811:11850   */\n      add\n        /* \"#utility.yul\":11804:11850   */\n      swap2\n      pop\n        /* \"#utility.yul\":11594:11856   */\n      pop\n        /* \"#utility.yul\":11512:11856   */\n      swap3\n      swap2\n      pop\n      pop\n      jump\t// out\n        /* \"#utility.yul\":11862:12226   */\n    tag_528:\n        /* \"#utility.yul\":11950:11953   */\n      0x00\n        /* \"#utility.yul\":11978:12017   */\n      tag_530\n        /* \"#utility.yul\":12011:12016   */\n      dup3\n        /* \"#utility.yul\":11978:12017   */\n      tag_521\n      jump\t// in\n    tag_530:\n        /* \"#utility.yul\":12033:12104   */\n      tag_531\n        /* \"#utility.yul\":12097:12103   */\n      dup2\n        /* \"#utility.yul\":12092:12095   */\n      dup6\n        /* \"#utility.yul\":12033:12104   */\n      tag_532\n      jump\t// in\n    tag_531:\n        /* \"#utility.yul\":12026:12104   */\n      swap4\n      pop\n        /* \"#utility.yul\":12113:12165   */\n      tag_533\n        /* \"#utility.yul\":12158:12164   */\n      dup2\n        /* \"#utility.yul\":12153:12156   */\n      dup6\n        /* \"#utility.yul\":12146:12150   */\n      0x20\n        /* \"#utility.yul\":12139:12144   */\n      dup7\n        /* \"#utility.yul\":12135:12151   */\n      add\n        /* \"#utility.yul\":12113:12165   */\n      tag_525\n      jump\t// in\n    tag_533:\n        /* \"#utility.yul\":12190:12219   */\n      tag_534\n        /* \"#utility.yul\":12212:12218   */\n      dup2\n        /* \"#utility.yul\":12190:12219   */\n      tag_527\n      jump\t// in\n    tag_534:\n        /* \"#utility.yul\":12185:12188   */\n      dup5\n        /* \"#utility.yul\":12181:12220   */\n      add\n        /* \"#utility.yul\":12174:12220   */\n      swap2\n      pop\n        /* \"#utility.yul\":11954:12226   */\n      pop\n        /* \"#utility.yul\":11862:12226   */\n      swap3\n      swap2\n      pop\n      pop\n      jump\t// out\n        /* \"#utility.yul\":12312:13119   */\n    tag_535:\n        /* \"#utility.yul\":12453:12456   */\n      0x00\n        /* \"#utility.yul\":12489:12493   */\n      0x40\n        /* \"#utility.yul\":12484:12487   */\n      dup4\n        /* \"#utility.yul\":12480:12494   */\n      add\n        /* \"#utility.yul\":12583:12587   */\n      0x00\n        /* \"#utility.yul\":12576:12581   */\n      dup4\n        /* \"#utility.yul\":12572:12588   */\n      add\n        /* \"#utility.yul\":12566:12589   */\n      mload\n        /* \"#utility.yul\":12636:12639   */\n      dup5\n        /* \"#utility.yul\":12630:12634   */\n      dup3\n        /* \"#utility.yul\":12626:12640   */\n      sub\n        /* \"#utility.yul\":12619:12623   */\n      0x00\n        /* \"#utility.yul\":12614:12617   */\n      dup7\n        /* \"#utility.yul\":12610:12624   */\n      add\n        /* \"#utility.yul\":12603:12641   */\n      mstore\n        /* \"#utility.yul\":12662:12785   */\n      tag_537\n        /* \"#utility.yul\":12780:12784   */\n      dup3\n        /* \"#utility.yul\":12766:12778   */\n      dup3\n        /* \"#utility.yul\":12662:12785   */\n      tag_505\n      jump\t// in\n    tag_537:\n        /* \"#utility.yul\":12654:12785   */\n      swap2\n      pop\n        /* \"#utility.yul\":12504:12796   */\n      pop\n        /* \"#utility.yul\":12879:12883   */\n      0x20\n        /* \"#utility.yul\":12872:12877   */\n      dup4\n        /* \"#utility.yul\":12868:12884   */\n      add\n        /* \"#utility.yul\":12862:12885   */\n      mload\n        /* \"#utility.yul\":12932:12935   */\n      dup5\n        /* \"#utility.yul\":12926:12930   */\n      dup3\n        /* \"#utility.yul\":12922:12936   */\n      sub\n        /* \"#utility.yul\":12915:12919   */\n      0x20\n        /* \"#utility.yul\":12910:12913   */\n      dup7\n        /* \"#utility.yul\":12906:12920   */\n      add\n        /* \"#utility.yul\":12899:12937   */\n      mstore\n        /* \"#utility.yul\":12958:13081   */\n      tag_538\n        /* \"#utility.yul\":13076:13080   */\n      dup3\n        /* \"#utility.yul\":13062:13074   */\n      dup3\n        /* \"#utility.yul\":12958:13081   */\n      tag_505\n      jump\t// in\n    tag_538:\n        /* \"#utility.yul\":12950:13081   */\n      swap2\n      pop\n        /* \"#utility.yul\":12806:13092   */\n      pop\n        /* \"#utility.yul\":13109:13113   */\n      dup1\n        /* \"#utility.yul\":13102:13113   */\n      swap2\n      pop\n        /* \"#utility.yul\":12458:13119   */\n      pop\n        /* \"#utility.yul\":12312:13119   */\n      swap3\n      swap2\n      pop\n      pop\n      jump\t// out\n        /* \"#utility.yul\":13201:14701   */\n    tag_539:\n        /* \"#utility.yul\":13336:13339   */\n      0x00\n        /* \"#utility.yul\":13372:13376   */\n      0xa0\n        /* \"#utility.yul\":13367:13370   */\n      dup4\n        /* \"#utility.yul\":13363:13377   */\n      add\n        /* \"#utility.yul\":13466:13470   */\n      0x00\n        /* \"#utility.yul\":13459:13464   */\n      dup4\n        /* \"#utility.yul\":13455:13471   */\n      add\n        /* \"#utility.yul\":13449:13472   */\n      mload\n        /* \"#utility.yul\":13519:13522   */\n      dup5\n        /* \"#utility.yul\":13513:13517   */\n      dup3\n        /* \"#utility.yul\":13509:13523   */\n      sub\n        /* \"#utility.yul\":13502:13506   */\n      0x00\n        /* \"#utility.yul\":13497:13500   */\n      dup7\n        /* \"#utility.yul\":13493:13507   */\n      add\n        /* \"#utility.yul\":13486:13524   */\n      mstore\n        /* \"#utility.yul\":13545:13618   */\n      tag_541\n        /* \"#utility.yul\":13613:13617   */\n      dup3\n        /* \"#utility.yul\":13599:13611   */\n      dup3\n        /* \"#utility.yul\":13545:13618   */\n      tag_500\n      jump\t// in\n    tag_541:\n        /* \"#utility.yul\":13537:13618   */\n      swap2\n      pop\n        /* \"#utility.yul\":13387:13629   */\n      pop\n        /* \"#utility.yul\":13715:13719   */\n      0x20\n        /* \"#utility.yul\":13708:13713   */\n      dup4\n        /* \"#utility.yul\":13704:13720   */\n      add\n        /* \"#utility.yul\":13698:13721   */\n      mload\n        /* \"#utility.yul\":13768:13771   */\n      dup5\n        /* \"#utility.yul\":13762:13766   */\n      dup3\n        /* \"#utility.yul\":13758:13772   */\n      sub\n        /* \"#utility.yul\":13751:13755   */\n      0x20\n        /* \"#utility.yul\":13746:13749   */\n      dup7\n        /* \"#utility.yul\":13742:13756   */\n      add\n        /* \"#utility.yul\":13735:13773   */\n      mstore\n        /* \"#utility.yul\":13794:13867   */\n      tag_542\n        /* \"#utility.yul\":13862:13866   */\n      dup3\n        /* \"#utility.yul\":13848:13860   */\n      dup3\n        /* \"#utility.yul\":13794:13867   */\n      tag_500\n      jump\t// in\n    tag_542:\n        /* \"#utility.yul\":13786:13867   */\n      swap2\n      pop\n        /* \"#utility.yul\":13639:13878   */\n      pop\n        /* \"#utility.yul\":13965:13969   */\n      0x40\n        /* \"#utility.yul\":13958:13963   */\n      dup4\n        /* \"#utility.yul\":13954:13970   */\n      add\n        /* \"#utility.yul\":13948:13971   */\n      mload\n        /* \"#utility.yul\":14018:14021   */\n      dup5\n        /* \"#utility.yul\":14012:14016   */\n      dup3\n        /* \"#utility.yul\":14008:14022   */\n      sub\n        /* \"#utility.yul\":14001:14005   */\n      0x40\n        /* \"#utility.yul\":13996:13999   */\n      dup7\n        /* \"#utility.yul\":13992:14006   */\n      add\n        /* \"#utility.yul\":13985:14023   */\n      mstore\n        /* \"#utility.yul\":14044:14117   */\n      tag_543\n        /* \"#utility.yul\":14112:14116   */\n      dup3\n        /* \"#utility.yul\":14098:14110   */\n      dup3\n        /* \"#utility.yul\":14044:14117   */\n      tag_500\n      jump\t// in\n    tag_543:\n        /* \"#utility.yul\":14036:14117   */\n      swap2\n      pop\n        /* \"#utility.yul\":13888:14128   */\n      pop\n        /* \"#utility.yul\":14213:14217   */\n      0x60\n        /* \"#utility.yul\":14206:14211   */\n      dup4\n        /* \"#utility.yul\":14202:14218   */\n      add\n        /* \"#utility.yul\":14196:14219   */\n      mload\n        /* \"#utility.yul\":14266:14269   */\n      dup5\n        /* \"#utility.yul\":14260:14264   */\n      dup3\n        /* \"#utility.yul\":14256:14270   */\n      sub\n        /* \"#utility.yul\":14249:14253   */\n      0x60\n        /* \"#utility.yul\":14244:14247   */\n      dup7\n        /* \"#utility.yul\":14240:14254   */\n      add\n        /* \"#utility.yul\":14233:14271   */\n      mstore\n        /* \"#utility.yul\":14292:14365   */\n      tag_544\n        /* \"#utility.yul\":14360:14364   */\n      dup3\n        /* \"#utility.yul\":14346:14358   */\n      dup3\n        /* \"#utility.yul\":14292:14365   */\n      tag_500\n      jump\t// in\n    tag_544:\n        /* \"#utility.yul\":14284:14365   */\n      swap2\n      pop\n        /* \"#utility.yul\":14138:14376   */\n      pop\n        /* \"#utility.yul\":14461:14465   */\n      0x80\n        /* \"#utility.yul\":14454:14459   */\n      dup4\n        /* \"#utility.yul\":14450:14466   */\n      add\n        /* \"#utility.yul\":14444:14467   */\n      mload\n        /* \"#utility.yul\":14514:14517   */\n      dup5\n        /* \"#utility.yul\":14508:14512   */\n      dup3\n        /* \"#utility.yul\":14504:14518   */\n      sub\n        /* \"#utility.yul\":14497:14501   */\n      0x80\n        /* \"#utility.yul\":14492:14495   */\n      dup7\n        /* \"#utility.yul\":14488:14502   */\n      add\n        /* \"#utility.yul\":14481:14519   */\n      mstore\n        /* \"#utility.yul\":14540:14663   */\n      tag_545\n        /* \"#utility.yul\":14658:14662   */\n      dup3\n        /* \"#utility.yul\":14644:14656   */\n      dup3\n        /* \"#utility.yul\":14540:14663   */\n      tag_505\n      jump\t// in\n    tag_545:\n        /* \"#utility.yul\":14532:14663   */\n      swap2\n      pop\n        /* \"#utility.yul\":14386:14674   */\n      pop\n        /* \"#utility.yul\":14691:14695   */\n      dup1\n        /* \"#utility.yul\":14684:14695   */\n      swap2\n      pop\n        /* \"#utility.yul\":13341:14701   */\n      pop\n        /* \"#utility.yul\":13201:14701   */\n      swap3\n      swap2\n      pop\n      pop\n      jump\t// out\n        /* \"#utility.yul\":14765:16431   */\n    tag_546:\n        /* \"#utility.yul\":14882:14885   */\n      0x00\n        /* \"#utility.yul\":14918:14922   */\n      0xc0\n        /* \"#utility.yul\":14913:14916   */\n      dup4\n        /* \"#utility.yul\":14909:14923   */\n      add\n        /* \"#utility.yul\":15008:15012   */\n      0x00\n        /* \"#utility.yul\":15001:15006   */\n      dup4\n        /* \"#utility.yul\":14997:15013   */\n      add\n        /* \"#utility.yul\":14991:15014   */\n      mload\n        /* \"#utility.yul\":15061:15064   */\n      dup5\n        /* \"#utility.yul\":15055:15059   */\n      dup3\n        /* \"#utility.yul\":15051:15065   */\n      sub\n        /* \"#utility.yul\":15044:15048   */\n      0x00\n        /* \"#utility.yul\":15039:15042   */\n      dup7\n        /* \"#utility.yul\":15035:15049   */\n      add\n        /* \"#utility.yul\":15028:15066   */\n      mstore\n        /* \"#utility.yul\":15087:15160   */\n      tag_548\n        /* \"#utility.yul\":15155:15159   */\n      dup3\n        /* \"#utility.yul\":15141:15153   */\n      dup3\n        /* \"#utility.yul\":15087:15160   */\n      tag_500\n      jump\t// in\n    tag_548:\n        /* \"#utility.yul\":15079:15160   */\n      swap2\n      pop\n        /* \"#utility.yul\":14933:15171   */\n      pop\n        /* \"#utility.yul\":15254:15258   */\n      0x20\n        /* \"#utility.yul\":15247:15252   */\n      dup4\n        /* \"#utility.yul\":15243:15259   */\n      add\n        /* \"#utility.yul\":15237:15260   */\n      mload\n        /* \"#utility.yul\":15307:15310   */\n      dup5\n        /* \"#utility.yul\":15301:15305   */\n      dup3\n        /* \"#utility.yul\":15297:15311   */\n      sub\n        /* \"#utility.yul\":15290:15294   */\n      0x20\n        /* \"#utility.yul\":15285:15288   */\n      dup7\n        /* \"#utility.yul\":15281:15295   */\n      add\n        /* \"#utility.yul\":15274:15312   */\n      mstore\n        /* \"#utility.yul\":15333:15406   */\n      tag_549\n        /* \"#utility.yul\":15401:15405   */\n      dup3\n        /* \"#utility.yul\":15387:15399   */\n      dup3\n        /* \"#utility.yul\":15333:15406   */\n      tag_500\n      jump\t// in\n    tag_549:\n        /* \"#utility.yul\":15325:15406   */\n      swap2\n      pop\n        /* \"#utility.yul\":15181:15417   */\n      pop\n        /* \"#utility.yul\":15500:15504   */\n      0x40\n        /* \"#utility.yul\":15493:15498   */\n      dup4\n        /* \"#utility.yul\":15489:15505   */\n      add\n        /* \"#utility.yul\":15483:15506   */\n      mload\n        /* \"#utility.yul\":15553:15556   */\n      dup5\n        /* \"#utility.yul\":15547:15551   */\n      dup3\n        /* \"#utility.yul\":15543:15557   */\n      sub\n        /* \"#utility.yul\":15536:15540   */\n      0x40\n        /* \"#utility.yul\":15531:15534   */\n      dup7\n        /* \"#utility.yul\":15527:15541   */\n      add\n        /* \"#utility.yul\":15520:15558   */\n      mstore\n        /* \"#utility.yul\":15579:15652   */\n      tag_550\n        /* \"#utility.yul\":15647:15651   */\n      dup3\n        /* \"#utility.yul\":15633:15645   */\n      dup3\n        /* \"#utility.yul\":15579:15652   */\n      tag_500\n      jump\t// in\n    tag_550:\n        /* \"#utility.yul\":15571:15652   */\n      swap2\n      pop\n        /* \"#utility.yul\":15427:15663   */\n      pop\n        /* \"#utility.yul\":15747:15751   */\n      0x60\n        /* \"#utility.yul\":15740:15745   */\n      dup4\n        /* \"#utility.yul\":15736:15752   */\n      add\n        /* \"#utility.yul\":15730:15753   */\n      mload\n        /* \"#utility.yul\":15800:15803   */\n      dup5\n        /* \"#utility.yul\":15794:15798   */\n      dup3\n        /* \"#utility.yul\":15790:15804   */\n      sub\n        /* \"#utility.yul\":15783:15787   */\n      0x60\n        /* \"#utility.yul\":15778:15781   */\n      dup7\n        /* \"#utility.yul\":15774:15788   */\n      add\n        /* \"#utility.yul\":15767:15805   */\n      mstore\n        /* \"#utility.yul\":15826:15899   */\n      tag_551\n        /* \"#utility.yul\":15894:15898   */\n      dup3\n        /* \"#utility.yul\":15880:15892   */\n      dup3\n        /* \"#utility.yul\":15826:15899   */\n      tag_500\n      jump\t// in\n    tag_551:\n        /* \"#utility.yul\":15818:15899   */\n      swap2\n      pop\n        /* \"#utility.yul\":15673:15910   */\n      pop\n        /* \"#utility.yul\":15994:15998   */\n      0x80\n        /* \"#utility.yul\":15987:15992   */\n      dup4\n        /* \"#utility.yul\":15983:15999   */\n      add\n        /* \"#utility.yul\":15977:16000   */\n      mload\n        /* \"#utility.yul\":16047:16050   */\n      dup5\n        /* \"#utility.yul\":16041:16045   */\n      dup3\n        /* \"#utility.yul\":16037:16051   */\n      sub\n        /* \"#utility.yul\":16030:16034   */\n      0x80\n        /* \"#utility.yul\":16025:16028   */\n      dup7\n        /* \"#utility.yul\":16021:16035   */\n      add\n        /* \"#utility.yul\":16014:16052   */\n      mstore\n        /* \"#utility.yul\":16073:16146   */\n      tag_552\n        /* \"#utility.yul\":16141:16145   */\n      dup3\n        /* \"#utility.yul\":16127:16139   */\n      dup3\n        /* \"#utility.yul\":16073:16146   */\n      tag_500\n      jump\t// in\n    tag_552:\n        /* \"#utility.yul\":16065:16146   */\n      swap2\n      pop\n        /* \"#utility.yul\":15920:16157   */\n      pop\n        /* \"#utility.yul\":16241:16245   */\n      0xa0\n        /* \"#utility.yul\":16234:16239   */\n      dup4\n        /* \"#utility.yul\":16230:16246   */\n      add\n        /* \"#utility.yul\":16224:16247   */\n      mload\n        /* \"#utility.yul\":16294:16297   */\n      dup5\n        /* \"#utility.yul\":16288:16292   */\n      dup3\n        /* \"#utility.yul\":16284:16298   */\n      sub\n        /* \"#utility.yul\":16277:16281   */\n      0xa0\n        /* \"#utility.yul\":16272:16275   */\n      dup7\n        /* \"#utility.yul\":16268:16282   */\n      add\n        /* \"#utility.yul\":16261:16299   */\n      mstore\n        /* \"#utility.yul\":16320:16393   */\n      tag_553\n        /* \"#utility.yul\":16388:16392   */\n      dup3\n        /* \"#utility.yul\":16374:16386   */\n      dup3\n        /* \"#utility.yul\":16320:16393   */\n      tag_500\n      jump\t// in\n    tag_553:\n        /* \"#utility.yul\":16312:16393   */\n      swap2\n      pop\n        /* \"#utility.yul\":16167:16404   */\n      pop\n        /* \"#utility.yul\":16421:16425   */\n      dup1\n        /* \"#utility.yul\":16414:16425   */\n      swap2\n      pop\n        /* \"#utility.yul\":14887:16431   */\n      pop\n        /* \"#utility.yul\":14765:16431   */\n      swap3\n      swap2\n      pop\n      pop\n      jump\t// out\n        /* \"#utility.yul\":16517:17223   */\n    tag_554:\n        /* \"#utility.yul\":16656:16659   */\n      0x00\n        /* \"#utility.yul\":16692:16696   */\n      0x40\n        /* \"#utility.yul\":16687:16690   */\n      dup4\n        /* \"#utility.yul\":16683:16697   */\n      add\n        /* \"#utility.yul\":16786:16790   */\n      0x00\n        /* \"#utility.yul\":16779:16784   */\n      dup4\n        /* \"#utility.yul\":16775:16791   */\n      add\n        /* \"#utility.yul\":16769:16792   */\n      mload\n        /* \"#utility.yul\":16839:16842   */\n      dup5\n        /* \"#utility.yul\":16833:16837   */\n      dup3\n        /* \"#utility.yul\":16829:16843   */\n      sub\n        /* \"#utility.yul\":16822:16826   */\n      0x00\n        /* \"#utility.yul\":16817:16820   */\n      dup7\n        /* \"#utility.yul\":16813:16827   */\n      add\n        /* \"#utility.yul\":16806:16844   */\n      mstore\n        /* \"#utility.yul\":16865:16938   */\n      tag_556\n        /* \"#utility.yul\":16933:16937   */\n      dup3\n        /* \"#utility.yul\":16919:16931   */\n      dup3\n        /* \"#utility.yul\":16865:16938   */\n      tag_500\n      jump\t// in\n    tag_556:\n        /* \"#utility.yul\":16857:16938   */\n      swap2\n      pop\n        /* \"#utility.yul\":16707:16949   */\n      pop\n        /* \"#utility.yul\":17033:17037   */\n      0x20\n        /* \"#utility.yul\":17026:17031   */\n      dup4\n        /* \"#utility.yul\":17022:17038   */\n      add\n        /* \"#utility.yul\":17016:17039   */\n      mload\n        /* \"#utility.yul\":17086:17089   */\n      dup5\n        /* \"#utility.yul\":17080:17084   */\n      dup3\n        /* \"#utility.yul\":17076:17090   */\n      sub\n        /* \"#utility.yul\":17069:17073   */\n      0x20\n        /* \"#utility.yul\":17064:17067   */\n      dup7\n        /* \"#utility.yul\":17060:17074   */\n      add\n        /* \"#utility.yul\":17053:17091   */\n      mstore\n        /* \"#utility.yul\":17112:17185   */\n      tag_557\n        /* \"#utility.yul\":17180:17184   */\n      dup3\n        /* \"#utility.yul\":17166:17178   */\n      dup3\n        /* \"#utility.yul\":17112:17185   */\n      tag_500\n      jump\t// in\n    tag_557:\n        /* \"#utility.yul\":17104:17185   */\n      swap2\n      pop\n        /* \"#utility.yul\":16959:17196   */\n      pop\n        /* \"#utility.yul\":17213:17217   */\n      dup1\n        /* \"#utility.yul\":17206:17217   */\n      swap2\n      pop\n        /* \"#utility.yul\":16661:17223   */\n      pop\n        /* \"#utility.yul\":16517:17223   */\n      swap3\n      swap2\n      pop\n      pop\n      jump\t// out\n        /* \"#utility.yul\":17293:19347   */\n    tag_558:\n        /* \"#utility.yul\":17416:17419   */\n      0x00\n        /* \"#utility.yul\":17452:17458   */\n      0x0100\n        /* \"#utility.yul\":17447:17450   */\n      dup4\n        /* \"#utility.yul\":17443:17459   */\n      add\n        /* \"#utility.yul\":17544:17548   */\n      0x00\n        /* \"#utility.yul\":17537:17542   */\n      dup4\n        /* \"#utility.yul\":17533:17549   */\n      add\n        /* \"#utility.yul\":17527:17550   */\n      mload\n        /* \"#utility.yul\":17597:17600   */\n      dup5\n        /* \"#utility.yul\":17591:17595   */\n      dup3\n        /* \"#utility.yul\":17587:17601   */\n      sub\n        /* \"#utility.yul\":17580:17584   */\n      0x00\n        /* \"#utility.yul\":17575:17578   */\n      dup7\n        /* \"#utility.yul\":17571:17585   */\n      add\n        /* \"#utility.yul\":17564:17602   */\n      mstore\n        /* \"#utility.yul\":17623:17696   */\n      tag_560\n        /* \"#utility.yul\":17691:17695   */\n      dup3\n        /* \"#utility.yul\":17677:17689   */\n      dup3\n        /* \"#utility.yul\":17623:17696   */\n      tag_500\n      jump\t// in\n    tag_560:\n        /* \"#utility.yul\":17615:17696   */\n      swap2\n      pop\n        /* \"#utility.yul\":17469:17707   */\n      pop\n        /* \"#utility.yul\":17793:17797   */\n      0x20\n        /* \"#utility.yul\":17786:17791   */\n      dup4\n        /* \"#utility.yul\":17782:17798   */\n      add\n        /* \"#utility.yul\":17776:17799   */\n      mload\n        /* \"#utility.yul\":17846:17849   */\n      dup5\n        /* \"#utility.yul\":17840:17844   */\n      dup3\n        /* \"#utility.yul\":17836:17850   */\n      sub\n        /* \"#utility.yul\":17829:17833   */\n      0x20\n        /* \"#utility.yul\":17824:17827   */\n      dup7\n        /* \"#utility.yul\":17820:17834   */\n      add\n        /* \"#utility.yul\":17813:17851   */\n      mstore\n        /* \"#utility.yul\":17872:17945   */\n      tag_561\n        /* \"#utility.yul\":17940:17944   */\n      dup3\n        /* \"#utility.yul\":17926:17938   */\n      dup3\n        /* \"#utility.yul\":17872:17945   */\n      tag_500\n      jump\t// in\n    tag_561:\n        /* \"#utility.yul\":17864:17945   */\n      swap2\n      pop\n        /* \"#utility.yul\":17717:17956   */\n      pop\n        /* \"#utility.yul\":18045:18049   */\n      0x40\n        /* \"#utility.yul\":18038:18043   */\n      dup4\n        /* \"#utility.yul\":18034:18050   */\n      add\n        /* \"#utility.yul\":18028:18051   */\n      mload\n        /* \"#utility.yul\":18064:18127   */\n      tag_562\n        /* \"#utility.yul\":18121:18125   */\n      0x40\n        /* \"#utility.yul\":18116:18119   */\n      dup7\n        /* \"#utility.yul\":18112:18126   */\n      add\n        /* \"#utility.yul\":18098:18110   */\n      dup3\n        /* \"#utility.yul\":18064:18127   */\n      tag_501\n      jump\t// in\n    tag_562:\n        /* \"#utility.yul\":17966:18137   */\n      pop\n        /* \"#utility.yul\":18224:18228   */\n      0x60\n        /* \"#utility.yul\":18217:18222   */\n      dup4\n        /* \"#utility.yul\":18213:18229   */\n      add\n        /* \"#utility.yul\":18207:18230   */\n      mload\n        /* \"#utility.yul\":18277:18280   */\n      dup5\n        /* \"#utility.yul\":18271:18275   */\n      dup3\n        /* \"#utility.yul\":18267:18281   */\n      sub\n        /* \"#utility.yul\":18260:18264   */\n      0x60\n        /* \"#utility.yul\":18255:18258   */\n      dup7\n        /* \"#utility.yul\":18251:18265   */\n      add\n        /* \"#utility.yul\":18244:18282   */\n      mstore\n        /* \"#utility.yul\":18303:18376   */\n      tag_563\n        /* \"#utility.yul\":18371:18375   */\n      dup3\n        /* \"#utility.yul\":18357:18369   */\n      dup3\n        /* \"#utility.yul\":18303:18376   */\n      tag_500\n      jump\t// in\n    tag_563:\n        /* \"#utility.yul\":18295:18376   */\n      swap2\n      pop\n        /* \"#utility.yul\":18147:18387   */\n      pop\n        /* \"#utility.yul\":18475:18479   */\n      0x80\n        /* \"#utility.yul\":18468:18473   */\n      dup4\n        /* \"#utility.yul\":18464:18480   */\n      add\n        /* \"#utility.yul\":18458:18481   */\n      mload\n        /* \"#utility.yul\":18528:18531   */\n      dup5\n        /* \"#utility.yul\":18522:18526   */\n      dup3\n        /* \"#utility.yul\":18518:18532   */\n      sub\n        /* \"#utility.yul\":18511:18515   */\n      0x80\n        /* \"#utility.yul\":18506:18509   */\n      dup7\n        /* \"#utility.yul\":18502:18516   */\n      add\n        /* \"#utility.yul\":18495:18533   */\n      mstore\n        /* \"#utility.yul\":18554:18627   */\n      tag_564\n        /* \"#utility.yul\":18622:18626   */\n      dup3\n        /* \"#utility.yul\":18608:18620   */\n      dup3\n        /* \"#utility.yul\":18554:18627   */\n      tag_500\n      jump\t// in\n    tag_564:\n        /* \"#utility.yul\":18546:18627   */\n      swap2\n      pop\n        /* \"#utility.yul\":18397:18638   */\n      pop\n        /* \"#utility.yul\":18724:18728   */\n      0xa0\n        /* \"#utility.yul\":18717:18722   */\n      dup4\n        /* \"#utility.yul\":18713:18729   */\n      add\n        /* \"#utility.yul\":18707:18730   */\n      mload\n        /* \"#utility.yul\":18777:18780   */\n      dup5\n        /* \"#utility.yul\":18771:18775   */\n      dup3\n        /* \"#utility.yul\":18767:18781   */\n      sub\n        /* \"#utility.yul\":18760:18764   */\n      0xa0\n        /* \"#utility.yul\":18755:18758   */\n      dup7\n        /* \"#utility.yul\":18751:18765   */\n      add\n        /* \"#utility.yul\":18744:18782   */\n      mstore\n        /* \"#utility.yul\":18803:18876   */\n      tag_565\n        /* \"#utility.yul\":18871:18875   */\n      dup3\n        /* \"#utility.yul\":18857:18869   */\n      dup3\n        /* \"#utility.yul\":18803:18876   */\n      tag_500\n      jump\t// in\n    tag_565:\n        /* \"#utility.yul\":18795:18876   */\n      swap2\n      pop\n        /* \"#utility.yul\":18648:18887   */\n      pop\n        /* \"#utility.yul\":18977:18981   */\n      0xc0\n        /* \"#utility.yul\":18970:18975   */\n      dup4\n        /* \"#utility.yul\":18966:18982   */\n      add\n        /* \"#utility.yul\":18960:18983   */\n      mload\n        /* \"#utility.yul\":19030:19033   */\n      dup5\n        /* \"#utility.yul\":19024:19028   */\n      dup3\n        /* \"#utility.yul\":19020:19034   */\n      sub\n        /* \"#utility.yul\":19013:19017   */\n      0xc0\n        /* \"#utility.yul\":19008:19011   */\n      dup7\n        /* \"#utility.yul\":19004:19018   */\n      add\n        /* \"#utility.yul\":18997:19035   */\n      mstore\n        /* \"#utility.yul\":19056:19129   */\n      tag_566\n        /* \"#utility.yul\":19124:19128   */\n      dup3\n        /* \"#utility.yul\":19110:19122   */\n      dup3\n        /* \"#utility.yul\":19056:19129   */\n      tag_500\n      jump\t// in\n    tag_566:\n        /* \"#utility.yul\":19048:19129   */\n      swap2\n      pop\n        /* \"#utility.yul\":18897:19140   */\n      pop\n        /* \"#utility.yul\":19228:19232   */\n      0xe0\n        /* \"#utility.yul\":19221:19226   */\n      dup4\n        /* \"#utility.yul\":19217:19233   */\n      add\n        /* \"#utility.yul\":19211:19234   */\n      mload\n        /* \"#utility.yul\":19247:19310   */\n      tag_567\n        /* \"#utility.yul\":19304:19308   */\n      0xe0\n        /* \"#utility.yul\":19299:19302   */\n      dup7\n        /* \"#utility.yul\":19295:19309   */\n      add\n        /* \"#utility.yul\":19281:19293   */\n      dup3\n        /* \"#utility.yul\":19247:19310   */\n      tag_568\n      jump\t// in\n    tag_567:\n        /* \"#utility.yul\":19150:19320   */\n      pop\n        /* \"#utility.yul\":19337:19341   */\n      dup1\n        /* \"#utility.yul\":19330:19341   */\n      swap2\n      pop\n        /* \"#utility.yul\":17421:19347   */\n      pop\n        /* \"#utility.yul\":17293:19347   */\n      swap3\n      swap2\n      pop\n      pop\n      jump\t// out\n        /* \"#utility.yul\":19405:20502   */\n    tag_569:\n        /* \"#utility.yul\":19516:19519   */\n      0x00\n        /* \"#utility.yul\":19552:19556   */\n      0x60\n        /* \"#utility.yul\":19547:19550   */\n      dup4\n        /* \"#utility.yul\":19543:19557   */\n      add\n        /* \"#utility.yul\":19655:19659   */\n      0x00\n        /* \"#utility.yul\":19648:19653   */\n      dup4\n        /* \"#utility.yul\":19644:19660   */\n      add\n        /* \"#utility.yul\":19638:19661   */\n      mload\n        /* \"#utility.yul\":19708:19711   */\n      dup5\n        /* \"#utility.yul\":19702:19706   */\n      dup3\n        /* \"#utility.yul\":19698:19712   */\n      sub\n        /* \"#utility.yul\":19691:19695   */\n      0x00\n        /* \"#utility.yul\":19686:19689   */\n      dup7\n        /* \"#utility.yul\":19682:19696   */\n      add\n        /* \"#utility.yul\":19675:19713   */\n      mstore\n        /* \"#utility.yul\":19734:19857   */\n      tag_571\n        /* \"#utility.yul\":19852:19856   */\n      dup3\n        /* \"#utility.yul\":19838:19850   */\n      dup3\n        /* \"#utility.yul\":19734:19857   */\n      tag_505\n      jump\t// in\n    tag_571:\n        /* \"#utility.yul\":19726:19857   */\n      swap2\n      pop\n        /* \"#utility.yul\":19567:19868   */\n      pop\n        /* \"#utility.yul\":19955:19959   */\n      0x20\n        /* \"#utility.yul\":19948:19953   */\n      dup4\n        /* \"#utility.yul\":19944:19960   */\n      add\n        /* \"#utility.yul\":19938:19961   */\n      mload\n        /* \"#utility.yul\":20008:20011   */\n      dup5\n        /* \"#utility.yul\":20002:20006   */\n      dup3\n        /* \"#utility.yul\":19998:20012   */\n      sub\n        /* \"#utility.yul\":19991:19995   */\n      0x20\n        /* \"#utility.yul\":19986:19989   */\n      dup7\n        /* \"#utility.yul\":19982:19996   */\n      add\n        /* \"#utility.yul\":19975:20013   */\n      mstore\n        /* \"#utility.yul\":20034:20157   */\n      tag_572\n        /* \"#utility.yul\":20152:20156   */\n      dup3\n        /* \"#utility.yul\":20138:20150   */\n      dup3\n        /* \"#utility.yul\":20034:20157   */\n      tag_505\n      jump\t// in\n    tag_572:\n        /* \"#utility.yul\":20026:20157   */\n      swap2\n      pop\n        /* \"#utility.yul\":19878:20168   */\n      pop\n        /* \"#utility.yul\":20262:20266   */\n      0x40\n        /* \"#utility.yul\":20255:20260   */\n      dup4\n        /* \"#utility.yul\":20251:20267   */\n      add\n        /* \"#utility.yul\":20245:20268   */\n      mload\n        /* \"#utility.yul\":20315:20318   */\n      dup5\n        /* \"#utility.yul\":20309:20313   */\n      dup3\n        /* \"#utility.yul\":20305:20319   */\n      sub\n        /* \"#utility.yul\":20298:20302   */\n      0x40\n        /* \"#utility.yul\":20293:20296   */\n      dup7\n        /* \"#utility.yul\":20289:20303   */\n      add\n        /* \"#utility.yul\":20282:20320   */\n      mstore\n        /* \"#utility.yul\":20341:20464   */\n      tag_573\n        /* \"#utility.yul\":20459:20463   */\n      dup3\n        /* \"#utility.yul\":20445:20457   */\n      dup3\n        /* \"#utility.yul\":20341:20464   */\n      tag_505\n      jump\t// in\n    tag_573:\n        /* \"#utility.yul\":20333:20464   */\n      swap2\n      pop\n        /* \"#utility.yul\":20178:20475   */\n      pop\n        /* \"#utility.yul\":20492:20496   */\n      dup1\n        /* \"#utility.yul\":20485:20496   */\n      swap2\n      pop\n        /* \"#utility.yul\":19521:20502   */\n      pop\n        /* \"#utility.yul\":19405:20502   */\n      swap3\n      swap2\n      pop\n      pop\n      jump\t// out\n        /* \"#utility.yul\":20508:20616   */\n    tag_568:\n        /* \"#utility.yul\":20585:20609   */\n      tag_575\n        /* \"#utility.yul\":20603:20608   */\n      dup2\n        /* \"#utility.yul\":20585:20609   */\n      tag_576\n      jump\t// in\n    tag_575:\n        /* \"#utility.yul\":20580:20583   */\n      dup3\n        /* \"#utility.yul\":20573:20610   */\n      mstore\n        /* \"#utility.yul\":20508:20616   */\n      pop\n      pop\n      jump\t// out\n        /* \"#utility.yul\":20622:20740   */\n    tag_577:\n        /* \"#utility.yul\":20709:20733   */\n      tag_579\n        /* \"#utility.yul\":20727:20732   */\n      dup2\n        /* \"#utility.yul\":20709:20733   */\n      tag_576\n      jump\t// in\n    tag_579:\n        /* \"#utility.yul\":20704:20707   */\n      dup3\n        /* \"#utility.yul\":20697:20734   */\n      mstore\n        /* \"#utility.yul\":20622:20740   */\n      pop\n      pop\n      jump\t// out\n        /* \"#utility.yul\":20746:21865   */\n    tag_66:\n        /* \"#utility.yul\":21051:21055   */\n      0x00\n        /* \"#utility.yul\":21089:21092   */\n      0xa0\n        /* \"#utility.yul\":21078:21087   */\n      dup3\n        /* \"#utility.yul\":21074:21093   */\n      add\n        /* \"#utility.yul\":21066:21093   */\n      swap1\n      pop\n        /* \"#utility.yul\":21139:21148   */\n      dup2\n        /* \"#utility.yul\":21133:21137   */\n      dup2\n        /* \"#utility.yul\":21129:21149   */\n      sub\n        /* \"#utility.yul\":21125:21126   */\n      0x00\n        /* \"#utility.yul\":21114:21123   */\n      dup4\n        /* \"#utility.yul\":21110:21127   */\n      add\n        /* \"#utility.yul\":21103:21150   */\n      mstore\n        /* \"#utility.yul\":21167:21245   */\n      tag_581\n        /* \"#utility.yul\":21240:21244   */\n      dup2\n        /* \"#utility.yul\":21231:21237   */\n      dup9\n        /* \"#utility.yul\":21167:21245   */\n      tag_528\n      jump\t// in\n    tag_581:\n        /* \"#utility.yul\":21159:21245   */\n      swap1\n      pop\n        /* \"#utility.yul\":21292:21301   */\n      dup2\n        /* \"#utility.yul\":21286:21290   */\n      dup2\n        /* \"#utility.yul\":21282:21302   */\n      sub\n        /* \"#utility.yul\":21277:21279   */\n      0x20\n        /* \"#utility.yul\":21266:21275   */\n      dup4\n        /* \"#utility.yul\":21262:21280   */\n      add\n        /* \"#utility.yul\":21255:21303   */\n      mstore\n        /* \"#utility.yul\":21320:21398   */\n      tag_582\n        /* \"#utility.yul\":21393:21397   */\n      dup2\n        /* \"#utility.yul\":21384:21390   */\n      dup8\n        /* \"#utility.yul\":21320:21398   */\n      tag_528\n      jump\t// in\n    tag_582:\n        /* \"#utility.yul\":21312:21398   */\n      swap1\n      pop\n        /* \"#utility.yul\":21445:21454   */\n      dup2\n        /* \"#utility.yul\":21439:21443   */\n      dup2\n        /* \"#utility.yul\":21435:21455   */\n      sub\n        /* \"#utility.yul\":21430:21432   */\n      0x40\n        /* \"#utility.yul\":21419:21428   */\n      dup4\n        /* \"#utility.yul\":21415:21433   */\n      add\n        /* \"#utility.yul\":21408:21456   */\n      mstore\n        /* \"#utility.yul\":21473:21551   */\n      tag_583\n        /* \"#utility.yul\":21546:21550   */\n      dup2\n        /* \"#utility.yul\":21537:21543   */\n      dup7\n        /* \"#utility.yul\":21473:21551   */\n      tag_528\n      jump\t// in\n    tag_583:\n        /* \"#utility.yul\":21465:21551   */\n      swap1\n      pop\n        /* \"#utility.yul\":21598:21607   */\n      dup2\n        /* \"#utility.yul\":21592:21596   */\n      dup2\n        /* \"#utility.yul\":21588:21608   */\n      sub\n        /* \"#utility.yul\":21583:21585   */\n      0x60\n        /* \"#utility.yul\":21572:21581   */\n      dup4\n        /* \"#utility.yul\":21568:21586   */\n      add\n        /* \"#utility.yul\":21561:21609   */\n      mstore\n        /* \"#utility.yul\":21626:21704   */\n      tag_584\n        /* \"#utility.yul\":21699:21703   */\n      dup2\n        /* \"#utility.yul\":21690:21696   */\n      dup6\n        /* \"#utility.yul\":21626:21704   */\n      tag_528\n      jump\t// in\n    tag_584:\n        /* \"#utility.yul\":21618:21704   */\n      swap1\n      pop\n        /* \"#utility.yul\":21752:21761   */\n      dup2\n        /* \"#utility.yul\":21746:21750   */\n      dup2\n        /* \"#utility.yul\":21742:21762   */\n      sub\n        /* \"#utility.yul\":21736:21739   */\n      0x80\n        /* \"#utility.yul\":21725:21734   */\n      dup4\n        /* \"#utility.yul\":21721:21740   */\n      add\n        /* \"#utility.yul\":21714:21763   */\n      mstore\n        /* \"#utility.yul\":21780:21858   */\n      tag_585\n        /* \"#utility.yul\":21853:21857   */\n      dup2\n        /* \"#utility.yul\":21844:21850   */\n      dup5\n        /* \"#utility.yul\":21780:21858   */\n      tag_528\n      jump\t// in\n    tag_585:\n        /* \"#utility.yul\":21772:21858   */\n      swap1\n      pop\n        /* \"#utility.yul\":20746:21865   */\n      swap7\n      swap6\n      pop\n      pop\n      pop\n      pop\n      pop\n      pop\n      jump\t// out\n        /* \"#utility.yul\":21871:23656   */\n    tag_58:\n        /* \"#utility.yul\":22456:22460   */\n      0x00\n        /* \"#utility.yul\":22494:22497   */\n      0xc0\n        /* \"#utility.yul\":22483:22492   */\n      dup3\n        /* \"#utility.yul\":22479:22498   */\n      add\n        /* \"#utility.yul\":22471:22498   */\n      swap1\n      pop\n        /* \"#utility.yul\":22544:22553   */\n      dup2\n        /* \"#utility.yul\":22538:22542   */\n      dup2\n        /* \"#utility.yul\":22534:22554   */\n      sub\n        /* \"#utility.yul\":22530:22531   */\n      0x00\n        /* \"#utility.yul\":22519:22528   */\n      dup4\n        /* \"#utility.yul\":22515:22532   */\n      add\n        /* \"#utility.yul\":22508:22555   */\n      mstore\n        /* \"#utility.yul\":22572:22684   */\n      tag_587\n        /* \"#utility.yul\":22679:22683   */\n      dup2\n        /* \"#utility.yul\":22670:22676   */\n      dup10\n        /* \"#utility.yul\":22572:22684   */\n      tag_558\n      jump\t// in\n    tag_587:\n        /* \"#utility.yul\":22564:22684   */\n      swap1\n      pop\n        /* \"#utility.yul\":22731:22740   */\n      dup2\n        /* \"#utility.yul\":22725:22729   */\n      dup2\n        /* \"#utility.yul\":22721:22741   */\n      sub\n        /* \"#utility.yul\":22716:22718   */\n      0x20\n        /* \"#utility.yul\":22705:22714   */\n      dup4\n        /* \"#utility.yul\":22701:22719   */\n      add\n        /* \"#utility.yul\":22694:22742   */\n      mstore\n        /* \"#utility.yul\":22759:22865   */\n      tag_588\n        /* \"#utility.yul\":22860:22864   */\n      dup2\n        /* \"#utility.yul\":22851:22857   */\n      dup9\n        /* \"#utility.yul\":22759:22865   */\n      tag_546\n      jump\t// in\n    tag_588:\n        /* \"#utility.yul\":22751:22865   */\n      swap1\n      pop\n        /* \"#utility.yul\":22912:22921   */\n      dup2\n        /* \"#utility.yul\":22906:22910   */\n      dup2\n        /* \"#utility.yul\":22902:22922   */\n      sub\n        /* \"#utility.yul\":22897:22899   */\n      0x40\n        /* \"#utility.yul\":22886:22895   */\n      dup4\n        /* \"#utility.yul\":22882:22900   */\n      add\n        /* \"#utility.yul\":22875:22923   */\n      mstore\n        /* \"#utility.yul\":22940:23040   */\n      tag_589\n        /* \"#utility.yul\":23035:23039   */\n      dup2\n        /* \"#utility.yul\":23026:23032   */\n      dup8\n        /* \"#utility.yul\":22940:23040   */\n      tag_569\n      jump\t// in\n    tag_589:\n        /* \"#utility.yul\":22932:23040   */\n      swap1\n      pop\n        /* \"#utility.yul\":23087:23096   */\n      dup2\n        /* \"#utility.yul\":23081:23085   */\n      dup2\n        /* \"#utility.yul\":23077:23097   */\n      sub\n        /* \"#utility.yul\":23072:23074   */\n      0x60\n        /* \"#utility.yul\":23061:23070   */\n      dup4\n        /* \"#utility.yul\":23057:23075   */\n      add\n        /* \"#utility.yul\":23050:23098   */\n      mstore\n        /* \"#utility.yul\":23115:23245   */\n      tag_590\n        /* \"#utility.yul\":23240:23244   */\n      dup2\n        /* \"#utility.yul\":23231:23237   */\n      dup7\n        /* \"#utility.yul\":23115:23245   */\n      tag_535\n      jump\t// in\n    tag_590:\n        /* \"#utility.yul\":23107:23245   */\n      swap1\n      pop\n        /* \"#utility.yul\":23293:23302   */\n      dup2\n        /* \"#utility.yul\":23287:23291   */\n      dup2\n        /* \"#utility.yul\":23283:23303   */\n      sub\n        /* \"#utility.yul\":23277:23280   */\n      0x80\n        /* \"#utility.yul\":23266:23275   */\n      dup4\n        /* \"#utility.yul\":23262:23281   */\n      add\n        /* \"#utility.yul\":23255:23304   */\n      mstore\n        /* \"#utility.yul\":23321:23445   */\n      tag_591\n        /* \"#utility.yul\":23440:23444   */\n      dup2\n        /* \"#utility.yul\":23431:23437   */\n      dup6\n        /* \"#utility.yul\":23321:23445   */\n      tag_539\n      jump\t// in\n    tag_591:\n        /* \"#utility.yul\":23313:23445   */\n      swap1\n      pop\n        /* \"#utility.yul\":23493:23502   */\n      dup2\n        /* \"#utility.yul\":23487:23491   */\n      dup2\n        /* \"#utility.yul\":23483:23503   */\n      sub\n        /* \"#utility.yul\":23477:23480   */\n      0xa0\n        /* \"#utility.yul\":23466:23475   */\n      dup4\n        /* \"#utility.yul\":23462:23481   */\n      add\n        /* \"#utility.yul\":23455:23504   */\n      mstore\n        /* \"#utility.yul\":23521:23649   */\n      tag_592\n        /* \"#utility.yul\":23644:23648   */\n      dup2\n        /* \"#utility.yul\":23635:23641   */\n      dup5\n        /* \"#utility.yul\":23521:23649   */\n      tag_554\n      jump\t// in\n    tag_592:\n        /* \"#utility.yul\":23513:23649   */\n      swap1\n      pop\n        /* \"#utility.yul\":21871:23656   */\n      swap8\n      swap7\n      pop\n      pop\n      pop\n      pop\n      pop\n      pop\n      pop\n      jump\t// out\n        /* \"#utility.yul\":23662:23884   */\n    tag_35:\n        /* \"#utility.yul\":23755:23759   */\n      0x00\n        /* \"#utility.yul\":23793:23795   */\n      0x20\n        /* \"#utility.yul\":23782:23791   */\n      dup3\n        /* \"#utility.yul\":23778:23796   */\n      add\n        /* \"#utility.yul\":23770:23796   */\n      swap1\n      pop\n        /* \"#utility.yul\":23806:23877   */\n      tag_594\n        /* \"#utility.yul\":23874:23875   */\n      0x00\n        /* \"#utility.yul\":23863:23872   */\n      dup4\n        /* \"#utility.yul\":23859:23876   */\n      add\n        /* \"#utility.yul\":23850:23856   */\n      dup5\n        /* \"#utility.yul\":23806:23877   */\n      tag_577\n      jump\t// in\n    tag_594:\n        /* \"#utility.yul\":23662:23884   */\n      swap3\n      swap2\n      pop\n      pop\n      jump\t// out\n        /* \"#utility.yul\":23890:24019   */\n    tag_379:\n        /* \"#utility.yul\":23924:23930   */\n      0x00\n        /* \"#utility.yul\":23951:23971   */\n      tag_596\n      tag_597\n      jump\t// in\n    tag_596:\n        /* \"#utility.yul\":23941:23971   */\n      swap1\n      pop\n        /* \"#utility.yul\":23980:24013   */\n      tag_598\n        /* \"#utility.yul\":24008:24012   */\n      dup3\n        /* \"#utility.yul\":24000:24006   */\n      dup3\n        /* \"#utility.yul\":23980:24013   */\n      tag_599\n      jump\t// in\n    tag_598:\n        /* \"#utility.yul\":23890:24019   */\n      swap2\n      swap1\n      pop\n      jump\t// out\n        /* \"#utility.yul\":24025:24100   */\n    tag_597:\n        /* \"#utility.yul\":24058:24064   */\n      0x00\n        /* \"#utility.yul\":24091:24093   */\n      0x40\n        /* \"#utility.yul\":24085:24094   */\n      mload\n        /* \"#utility.yul\":24075:24094   */\n      swap1\n      pop\n        /* \"#utility.yul\":24025:24100   */\n      swap1\n      jump\t// out\n        /* \"#utility.yul\":24106:24427   */\n    tag_378:\n        /* \"#utility.yul\":24193:24197   */\n      0x00\n        /* \"#utility.yul\":24283:24301   */\n      0xffffffffffffffff\n        /* \"#utility.yul\":24275:24281   */\n      dup3\n        /* \"#utility.yul\":24272:24302   */\n      gt\n        /* \"#utility.yul\":24269:24325   */\n      iszero\n      tag_602\n      jumpi\n        /* \"#utility.yul\":24305:24323   */\n      tag_603\n      tag_604\n      jump\t// in\n    tag_603:\n        /* \"#utility.yul\":24269:24325   */\n    tag_602:\n        /* \"#utility.yul\":24355:24359   */\n      0x20\n        /* \"#utility.yul\":24347:24353   */\n      dup3\n        /* \"#utility.yul\":24343:24360   */\n      mul\n        /* \"#utility.yul\":24335:24360   */\n      swap1\n      pop\n        /* \"#utility.yul\":24415:24419   */\n      0x20\n        /* \"#utility.yul\":24409:24413   */\n      dup2\n        /* \"#utility.yul\":24405:24420   */\n      add\n        /* \"#utility.yul\":24397:24420   */\n      swap1\n      pop\n        /* \"#utility.yul\":24106:24427   */\n      swap2\n      swap1\n      pop\n      jump\t// out\n        /* \"#utility.yul\":24433:24741   */\n    tag_395:\n        /* \"#utility.yul\":24495:24499   */\n      0x00\n        /* \"#utility.yul\":24585:24603   */\n      0xffffffffffffffff\n        /* \"#utility.yul\":24577:24583   */\n      dup3\n        /* \"#utility.yul\":24574:24604   */\n      gt\n        /* \"#utility.yul\":24571:24627   */\n      iszero\n      tag_606\n      jumpi\n        /* \"#utility.yul\":24607:24625   */\n      tag_607\n      tag_604\n      jump\t// in\n    tag_607:\n        /* \"#utility.yul\":24571:24627   */\n    tag_606:\n        /* \"#utility.yul\":24645:24674   */\n      tag_608\n        /* \"#utility.yul\":24667:24673   */\n      dup3\n        /* \"#utility.yul\":24645:24674   */\n      tag_527\n      jump\t// in\n    tag_608:\n        /* \"#utility.yul\":24637:24674   */\n      swap1\n      pop\n        /* \"#utility.yul\":24729:24733   */\n      0x20\n        /* \"#utility.yul\":24723:24727   */\n      dup2\n        /* \"#utility.yul\":24719:24734   */\n      add\n        /* \"#utility.yul\":24711:24734   */\n      swap1\n      pop\n        /* \"#utility.yul\":24433:24741   */\n      swap2\n      swap1\n      pop\n      jump\t// out\n        /* \"#utility.yul\":24747:24889   */\n    tag_512:\n        /* \"#utility.yul\":24824:24828   */\n      0x00\n        /* \"#utility.yul\":24847:24850   */\n      dup2\n        /* \"#utility.yul\":24839:24850   */\n      swap1\n      pop\n        /* \"#utility.yul\":24877:24881   */\n      0x20\n        /* \"#utility.yul\":24872:24875   */\n      dup3\n        /* \"#utility.yul\":24868:24882   */\n      add\n        /* \"#utility.yul\":24860:24882   */\n      swap1\n      pop\n        /* \"#utility.yul\":24747:24889   */\n      swap2\n      swap1\n      pop\n      jump\t// out\n        /* \"#utility.yul\":24895:25019   */\n    tag_508:\n        /* \"#utility.yul\":24972:24978   */\n      0x00\n        /* \"#utility.yul\":25006:25011   */\n      dup2\n        /* \"#utility.yul\":25000:25012   */\n      mload\n        /* \"#utility.yul\":24990:25012   */\n      swap1\n      pop\n        /* \"#utility.yul\":24895:25019   */\n      swap2\n      swap1\n      pop\n      jump\t// out\n        /* \"#utility.yul\":25025:25124   */\n    tag_521:\n        /* \"#utility.yul\":25077:25083   */\n      0x00\n        /* \"#utility.yul\":25111:25116   */\n      dup2\n        /* \"#utility.yul\":25105:25117   */\n      mload\n        /* \"#utility.yul\":25095:25117   */\n      swap1\n      pop\n        /* \"#utility.yul\":25025:25124   */\n      swap2\n      swap1\n      pop\n      jump\t// out\n        /* \"#utility.yul\":25130:25253   */\n    tag_518:\n        /* \"#utility.yul\":25210:25214   */\n      0x00\n        /* \"#utility.yul\":25242:25246   */\n      0x20\n        /* \"#utility.yul\":25237:25240   */\n      dup3\n        /* \"#utility.yul\":25233:25247   */\n      add\n        /* \"#utility.yul\":25225:25247   */\n      swap1\n      pop\n        /* \"#utility.yul\":25130:25253   */\n      swap2\n      swap1\n      pop\n      jump\t// out\n        /* \"#utility.yul\":25259:25443   */\n    tag_510:\n        /* \"#utility.yul\":25358:25369   */\n      0x00\n        /* \"#utility.yul\":25392:25398   */\n      dup3\n        /* \"#utility.yul\":25387:25390   */\n      dup3\n        /* \"#utility.yul\":25380:25399   */\n      mstore\n        /* \"#utility.yul\":25432:25436   */\n      0x20\n        /* \"#utility.yul\":25427:25430   */\n      dup3\n        /* \"#utility.yul\":25423:25437   */\n      add\n        /* \"#utility.yul\":25408:25437   */\n      swap1\n      pop\n        /* \"#utility.yul\":25259:25443   */\n      swap3\n      swap2\n      pop\n      pop\n      jump\t// out\n        /* \"#utility.yul\":25449:25608   */\n    tag_523:\n        /* \"#utility.yul\":25523:25534   */\n      0x00\n        /* \"#utility.yul\":25557:25563   */\n      dup3\n        /* \"#utility.yul\":25552:25555   */\n      dup3\n        /* \"#utility.yul\":25545:25564   */\n      mstore\n        /* \"#utility.yul\":25597:25601   */\n      0x20\n        /* \"#utility.yul\":25592:25595   */\n      dup3\n        /* \"#utility.yul\":25588:25602   */\n      add\n        /* \"#utility.yul\":25573:25602   */\n      swap1\n      pop\n        /* \"#utility.yul\":25449:25608   */\n      swap3\n      swap2\n      pop\n      pop\n      jump\t// out\n        /* \"#utility.yul\":25614:25783   */\n    tag_532:\n        /* \"#utility.yul\":25698:25709   */\n      0x00\n        /* \"#utility.yul\":25732:25738   */\n      dup3\n        /* \"#utility.yul\":25727:25730   */\n      dup3\n        /* \"#utility.yul\":25720:25739   */\n      mstore\n        /* \"#utility.yul\":25772:25776   */\n      0x20\n        /* \"#utility.yul\":25767:25770   */\n      dup3\n        /* \"#utility.yul\":25763:25777   */\n      add\n        /* \"#utility.yul\":25748:25777   */\n      swap1\n      pop\n        /* \"#utility.yul\":25614:25783   */\n      swap3\n      swap2\n      pop\n      pop\n      jump\t// out\n        /* \"#utility.yul\":25789:25885   */\n    tag_504:\n        /* \"#utility.yul\":25826:25833   */\n      0x00\n        /* \"#utility.yul\":25855:25879   */\n      tag_617\n        /* \"#utility.yul\":25873:25878   */\n      dup3\n        /* \"#utility.yul\":25855:25879   */\n      tag_618\n      jump\t// in\n    tag_617:\n        /* \"#utility.yul\":25844:25879   */\n      swap1\n      pop\n        /* \"#utility.yul\":25789:25885   */\n      swap2\n      swap1\n      pop\n      jump\t// out\n        /* \"#utility.yul\":25891:26017   */\n    tag_618:\n        /* \"#utility.yul\":25928:25935   */\n      0x00\n        /* \"#utility.yul\":25968:26010   */\n      0xffffffffffffffffffffffffffffffffffffffff\n        /* \"#utility.yul\":25961:25966   */\n      dup3\n        /* \"#utility.yul\":25957:26011   */\n      and\n        /* \"#utility.yul\":25946:26011   */\n      swap1\n      pop\n        /* \"#utility.yul\":25891:26017   */\n      swap2\n      swap1\n      pop\n      jump\t// out\n        /* \"#utility.yul\":26023:26100   */\n    tag_576:\n        /* \"#utility.yul\":26060:26067   */\n      0x00\n        /* \"#utility.yul\":26089:26094   */\n      dup2\n        /* \"#utility.yul\":26078:26094   */\n      swap1\n      pop\n        /* \"#utility.yul\":26023:26100   */\n      swap2\n      swap1\n      pop\n      jump\t// out\n        /* \"#utility.yul\":26106:26260   */\n    tag_400:\n        /* \"#utility.yul\":26190:26196   */\n      dup3\n        /* \"#utility.yul\":26185:26188   */\n      dup2\n        /* \"#utility.yul\":26180:26183   */\n      dup4\n        /* \"#utility.yul\":26167:26197   */\n      calldatacopy\n        /* \"#utility.yul\":26252:26253   */\n      0x00\n        /* \"#utility.yul\":26243:26249   */\n      dup4\n        /* \"#utility.yul\":26238:26241   */\n      dup4\n        /* \"#utility.yul\":26234:26250   */\n      add\n        /* \"#utility.yul\":26227:26254   */\n      mstore\n        /* \"#utility.yul\":26106:26260   */\n      pop\n      pop\n      pop\n      jump\t// out\n        /* \"#utility.yul\":26266:26573   */\n    tag_525:\n        /* \"#utility.yul\":26334:26335   */\n      0x00\n        /* \"#utility.yul\":26344:26457   */\n    tag_623:\n        /* \"#utility.yul\":26358:26364   */\n      dup4\n        /* \"#utility.yul\":26355:26356   */\n      dup2\n        /* \"#utility.yul\":26352:26365   */\n      lt\n        /* \"#utility.yul\":26344:26457   */\n      iszero\n      tag_625\n      jumpi\n        /* \"#utility.yul\":26443:26444   */\n      dup1\n        /* \"#utility.yul\":26438:26441   */\n      dup3\n        /* \"#utility.yul\":26434:26445   */\n      add\n        /* \"#utility.yul\":26428:26446   */\n      mload\n        /* \"#utility.yul\":26424:26425   */\n      dup2\n        /* \"#utility.yul\":26419:26422   */\n      dup5\n        /* \"#utility.yul\":26415:26426   */\n      add\n        /* \"#utility.yul\":26408:26447   */\n      mstore\n        /* \"#utility.yul\":26380:26382   */\n      0x20\n        /* \"#utility.yul\":26377:26378   */\n      dup2\n        /* \"#utility.yul\":26373:26383   */\n      add\n        /* \"#utility.yul\":26368:26383   */\n      swap1\n      pop\n        /* \"#utility.yul\":26344:26457   */\n      jump(tag_623)\n    tag_625:\n        /* \"#utility.yul\":26475:26481   */\n      dup4\n        /* \"#utility.yul\":26472:26473   */\n      dup2\n        /* \"#utility.yul\":26469:26482   */\n      gt\n        /* \"#utility.yul\":26466:26567   */\n      iszero\n      tag_626\n      jumpi\n        /* \"#utility.yul\":26555:26556   */\n      0x00\n        /* \"#utility.yul\":26546:26552   */\n      dup5\n        /* \"#utility.yul\":26541:26544   */\n      dup5\n        /* \"#utility.yul\":26537:26553   */\n      add\n        /* \"#utility.yul\":26530:26557   */\n      mstore\n        /* \"#utility.yul\":26466:26567   */\n    tag_626:\n        /* \"#utility.yul\":26315:26573   */\n      pop\n        /* \"#utility.yul\":26266:26573   */\n      pop\n      pop\n      pop\n      jump\t// out\n        /* \"#utility.yul\":26579:26899   */\n    tag_129:\n        /* \"#utility.yul\":26623:26629   */\n      0x00\n        /* \"#utility.yul\":26660:26661   */\n      0x02\n        /* \"#utility.yul\":26654:26658   */\n      dup3\n        /* \"#utility.yul\":26650:26662   */\n      div\n        /* \"#utility.yul\":26640:26662   */\n      swap1\n      pop\n        /* \"#utility.yul\":26707:26708   */\n      0x01\n        /* \"#utility.yul\":26701:26705   */\n      dup3\n        /* \"#utility.yul\":26697:26709   */\n      and\n        /* \"#utility.yul\":26728:26746   */\n      dup1\n        /* \"#utility.yul\":26718:26799   */\n      tag_628\n      jumpi\n        /* \"#utility.yul\":26784:26788   */\n      0x7f\n        /* \"#utility.yul\":26776:26782   */\n      dup3\n        /* \"#utility.yul\":26772:26789   */\n      and\n        /* \"#utility.yul\":26762:26789   */\n      swap2\n      pop\n        /* \"#utility.yul\":26718:26799   */\n    tag_628:\n        /* \"#utility.yul\":26846:26848   */\n      0x20\n        /* \"#utility.yul\":26838:26844   */\n      dup3\n        /* \"#utility.yul\":26835:26849   */\n      lt\n        /* \"#utility.yul\":26815:26833   */\n      dup2\n        /* \"#utility.yul\":26812:26850   */\n      eq\n        /* \"#utility.yul\":26809:26893   */\n      iszero\n      tag_629\n      jumpi\n        /* \"#utility.yul\":26865:26883   */\n      tag_630\n      tag_631\n      jump\t// in\n    tag_630:\n        /* \"#utility.yul\":26809:26893   */\n    tag_629:\n        /* \"#utility.yul\":26630:26899   */\n      pop\n        /* \"#utility.yul\":26579:26899   */\n      swap2\n      swap1\n      pop\n      jump\t// out\n        /* \"#utility.yul\":26905:27186   */\n    tag_599:\n        /* \"#utility.yul\":26988:27015   */\n      tag_633\n        /* \"#utility.yul\":27010:27014   */\n      dup3\n        /* \"#utility.yul\":26988:27015   */\n      tag_527\n      jump\t// in\n    tag_633:\n        /* \"#utility.yul\":26980:26986   */\n      dup2\n        /* \"#utility.yul\":26976:27016   */\n      add\n        /* \"#utility.yul\":27118:27124   */\n      dup2\n        /* \"#utility.yul\":27106:27116   */\n      dup2\n        /* \"#utility.yul\":27103:27125   */\n      lt\n        /* \"#utility.yul\":27082:27100   */\n      0xffffffffffffffff\n        /* \"#utility.yul\":27070:27080   */\n      dup3\n        /* \"#utility.yul\":27067:27101   */\n      gt\n        /* \"#utility.yul\":27064:27126   */\n      or\n        /* \"#utility.yul\":27061:27149   */\n      iszero\n      tag_634\n      jumpi\n        /* \"#utility.yul\":27129:27147   */\n      tag_635\n      tag_604\n      jump\t// in\n    tag_635:\n        /* \"#utility.yul\":27061:27149   */\n    tag_634:\n        /* \"#utility.yul\":27169:27179   */\n      dup1\n        /* \"#utility.yul\":27165:27167   */\n      0x40\n        /* \"#utility.yul\":27158:27180   */\n      mstore\n        /* \"#utility.yul\":26948:27186   */\n      pop\n        /* \"#utility.yul\":26905:27186   */\n      pop\n      pop\n      jump\t// out\n        /* \"#utility.yul\":27192:27372   */\n    tag_631:\n        /* \"#utility.yul\":27240:27317   */\n      0x4e487b7100000000000000000000000000000000000000000000000000000000\n        /* \"#utility.yul\":27237:27238   */\n      0x00\n        /* \"#utility.yul\":27230:27318   */\n      mstore\n        /* \"#utility.yul\":27337:27341   */\n      0x22\n        /* \"#utility.yul\":27334:27335   */\n      0x04\n        /* \"#utility.yul\":27327:27342   */\n      mstore\n        /* \"#utility.yul\":27361:27365   */\n      0x24\n        /* \"#utility.yul\":27358:27359   */\n      0x00\n        /* \"#utility.yul\":27351:27366   */\n      revert\n        /* \"#utility.yul\":27378:27558   */\n    tag_273:\n        /* \"#utility.yul\":27426:27503   */\n      0x4e487b7100000000000000000000000000000000000000000000000000000000\n        /* \"#utility.yul\":27423:27424   */\n      0x00\n        /* \"#utility.yul\":27416:27504   */\n      mstore\n        /* \"#utility.yul\":27523:27527   */\n      0x32\n        /* \"#utility.yul\":27520:27521   */\n      0x04\n        /* \"#utility.yul\":27513:27528   */\n      mstore\n        /* \"#utility.yul\":27547:27551   */\n      0x24\n        /* \"#utility.yul\":27544:27545   */\n      0x00\n        /* \"#utility.yul\":27537:27552   */\n      revert\n        /* \"#utility.yul\":27564:27744   */\n    tag_604:\n        /* \"#utility.yul\":27612:27689   */\n      0x4e487b7100000000000000000000000000000000000000000000000000000000\n        /* \"#utility.yul\":27609:27610   */\n      0x00\n        /* \"#utility.yul\":27602:27690   */\n      mstore\n        /* \"#utility.yul\":27709:27713   */\n      0x41\n        /* \"#utility.yul\":27706:27707   */\n      0x04\n        /* \"#utility.yul\":27699:27714   */\n      mstore\n        /* \"#utility.yul\":27733:27737   */\n      0x24\n        /* \"#utility.yul\":27730:27731   */\n      0x00\n        /* \"#utility.yul\":27723:27738   */\n      revert\n        /* \"#utility.yul\":27750:27867   */\n    tag_388:\n        /* \"#utility.yul\":27859:27860   */\n      0x00\n        /* \"#utility.yul\":27856:27857   */\n      dup1\n        /* \"#utility.yul\":27849:27861   */\n      revert\n        /* \"#utility.yul\":27873:27990   */\n    tag_382:\n        /* \"#utility.yul\":27982:27983   */\n      0x00\n        /* \"#utility.yul\":27979:27980   */\n      dup1\n        /* \"#utility.yul\":27972:27984   */\n      revert\n        /* \"#utility.yul\":27996:28113   */\n    tag_398:\n        /* \"#utility.yul\":28105:28106   */\n      0x00\n        /* \"#utility.yul\":28102:28103   */\n      dup1\n        /* \"#utility.yul\":28095:28107   */\n      revert\n        /* \"#utility.yul\":28119:28236   */\n    tag_428:\n        /* \"#utility.yul\":28228:28229   */\n      0x00\n        /* \"#utility.yul\":28225:28226   */\n      dup1\n        /* \"#utility.yul\":28218:28230   */\n      revert\n        /* \"#utility.yul\":28242:28359   */\n    tag_421:\n        /* \"#utility.yul\":28351:28352   */\n      0x00\n        /* \"#utility.yul\":28348:28349   */\n      dup1\n        /* \"#utility.yul\":28341:28353   */\n      revert\n        /* \"#utility.yul\":28365:28467   */\n    tag_527:\n        /* \"#utility.yul\":28406:28412   */\n      0x00\n        /* \"#utility.yul\":28457:28459   */\n      0x1f\n        /* \"#utility.yul\":28453:28460   */\n      not\n        /* \"#utility.yul\":28448:28450   */\n      0x1f\n        /* \"#utility.yul\":28441:28446   */\n      dup4\n        /* \"#utility.yul\":28437:28451   */\n      add\n        /* \"#utility.yul\":28433:28461   */\n      and\n        /* \"#utility.yul\":28423:28461   */\n      swap1\n      pop\n        /* \"#utility.yul\":28365:28467   */\n      swap2\n      swap1\n      pop\n      jump\t// out\n        /* \"#utility.yul\":28473:28595   */\n    tag_404:\n        /* \"#utility.yul\":28546:28570   */\n      tag_646\n        /* \"#utility.yul\":28564:28569   */\n      dup2\n        /* \"#utility.yul\":28546:28570   */\n      tag_504\n      jump\t// in\n    tag_646:\n        /* \"#utility.yul\":28539:28544   */\n      dup2\n        /* \"#utility.yul\":28536:28571   */\n      eq\n        /* \"#utility.yul\":28526:28589   */\n      tag_647\n      jumpi\n        /* \"#utility.yul\":28585:28586   */\n      0x00\n        /* \"#utility.yul\":28582:28583   */\n      dup1\n        /* \"#utility.yul\":28575:28587   */\n      revert\n        /* \"#utility.yul\":28526:28589   */\n    tag_647:\n        /* \"#utility.yul\":28473:28595   */\n      pop\n      jump\t// out\n        /* \"#utility.yul\":28601:28723   */\n    tag_417:\n        /* \"#utility.yul\":28674:28698   */\n      tag_649\n        /* \"#utility.yul\":28692:28697   */\n      dup2\n        /* \"#utility.yul\":28674:28698   */\n      tag_576\n      jump\t// in\n    tag_649:\n        /* \"#utility.yul\":28667:28672   */\n      dup2\n        /* \"#utility.yul\":28664:28699   */\n      eq\n        /* \"#utility.yul\":28654:28717   */\n      tag_650\n      jumpi\n        /* \"#utility.yul\":28713:28714   */\n      0x00\n        /* \"#utility.yul\":28710:28711   */\n      dup1\n        /* \"#utility.yul\":28703:28715   */\n      revert\n        /* \"#utility.yul\":28654:28717   */\n    tag_650:\n        /* \"#utility.yul\":28601:28723   */\n      pop\n      jump\t// out\n\n    auxdata: 0xa2646970667358221220b2147079d271693d4585ea513a91bb738648c8b018eb0e393670029fc799994a64736f6c63430008070033\n}\n",
				"bytecode": {
					"linkReferences": {},
					"object": "608060405234801561001057600080fd5b50613517806100206000396000f3fe608060405234801561001057600080fd5b50600436106100ea5760003560e01c8063728283881161008c5780639dd9d0fd116100665780639dd9d0fd146101d3578063ed2217ef14610208578063f96e32f814610212578063fabce08f14610246576100ea565b80637282838814610191578063958791ae146101ad57806395ea3757146101c9576100ea565b80634ed74067116100c85780634ed74067146101315780636212fa021461013b57806366244dfb146101595780636c2cc77414610175576100ea565b8063119d4cac146100ef578063322a9849146100f95780633d984d0e14610115575b600080fd5b6100f7610250565b005b610113600480360381019061010e9190612a17565b6102b6565b005b61012f600480360381019061012a9190612970565b61036c565b005b6101396104f0565b005b610143610556565b6040516101509190613218565b60405180910390f35b610173600480360381019061016e9190612a8f565b6105a2565b005b61018f600480360381019061018a91906128f8565b6106dd565b005b6101ab60048036038101906101a69190612a8f565b610793565b005b6101c760048036038101906101c29190612b96565b6109fb565b005b6101d1610ce5565b005b6101ed60048036038101906101e891906128cb565b610dba565b6040516101ff9695949392919061318d565b60405180910390f35b610210611ded565b005b61022c60048036038101906102279190612ccb565b611e3c565b60405161023d959493929190613117565b60405180910390f35b61024e612307565b005b6000803373ffffffffffffffffffffffffffffffffffffffff1673ffffffffffffffffffffffffffffffffffffffff168152602001908152602001600020601901600080820160006102a29190612533565b6001820160006102b29190612533565b5050565b816000803373ffffffffffffffffffffffffffffffffffffffff1673ffffffffffffffffffffffffffffffffffffffff168152602001908152602001600020601901600001908051906020019061030e929190612573565b50806000803373ffffffffffffffffffffffffffffffffffffffff1673ffffffffffffffffffffffffffffffffffffffff1681526020019081526020016000206019016001019080519060200190610367929190612573565b505050565b6000803373ffffffffffffffffffffffffffffffffffffffff1673ffffffffffffffffffffffffffffffffffffffff168152602001908152602001600020600e01600080820160006103be91906125f9565b6001820160006103ce91906125f9565b6002820160006103de91906125f9565b5050826000803373ffffffffffffffffffffffffffffffffffffffff1673ffffffffffffffffffffffffffffffffffffffff168152602001908152602001600020600e01600001908051906020019061043892919061261a565b50816000803373ffffffffffffffffffffffffffffffffffffffff1673ffffffffffffffffffffffffffffffffffffffff168152602001908152602001600020600e01600101908051906020019061049192919061261a565b50806000803373ffffffffffffffffffffffffffffffffffffffff1673ffffffffffffffffffffffffffffffffffffffff168152602001908152602001600020600e0160020190805190602001906104ea92919061261a565b50505050565b6000803373ffffffffffffffffffffffffffffffffffffffff1673ffffffffffffffffffffffffffffffffffffffff1681526020019081526020016000206012016000808201600061054291906125f9565b60018201600061055291906125f9565b5050565b60008060003373ffffffffffffffffffffffffffffffffffffffff1673ffffffffffffffffffffffffffffffffffffffff16815260200190815260200160002060110180549050905090565b6105aa61267a565b8581600001819052508481602001819052508381604001819052508281606001819052508181608001819052506000803373ffffffffffffffffffffffffffffffffffffffff1673ffffffffffffffffffffffffffffffffffffffff168152602001908152602001600020601101819080600181540180825580915050600190039060005260206000209060050201600090919091909150600082015181600001908051906020019061065e929190612573565b50602082015181600101908051906020019061067b929190612573565b506040820151816002019080519060200190610698929190612573565b5060608201518160030190805190602001906106b5929190612573565b5060808201518160040190805190602001906106d2929190612573565b505050505050505050565b816000803373ffffffffffffffffffffffffffffffffffffffff1673ffffffffffffffffffffffffffffffffffffffff168152602001908152602001600020601201600101908051906020019061073592919061261a565b50806000803373ffffffffffffffffffffffffffffffffffffffff1673ffffffffffffffffffffffffffffffffffffffff168152602001908152602001600020601201600001908051906020019061078e92919061261a565b505050565b6000803373ffffffffffffffffffffffffffffffffffffffff1673ffffffffffffffffffffffffffffffffffffffff168152602001908152602001600020600801600080820160006107e59190612533565b6001820160006107f59190612533565b6002820160006108059190612533565b6003820160006108159190612533565b6004820160006108259190612533565b6005820160006108359190612533565b5050846000803373ffffffffffffffffffffffffffffffffffffffff1673ffffffffffffffffffffffffffffffffffffffff168152602001908152602001600020600801600101908051906020019061088f929190612573565b50836000803373ffffffffffffffffffffffffffffffffffffffff1673ffffffffffffffffffffffffffffffffffffffff16815260200190815260200160002060080160020190805190602001906108e8929190612573565b50826000803373ffffffffffffffffffffffffffffffffffffffff1673ffffffffffffffffffffffffffffffffffffffff1681526020019081526020016000206008016003019080519060200190610941929190612573565b50816000803373ffffffffffffffffffffffffffffffffffffffff1673ffffffffffffffffffffffffffffffffffffffff168152602001908152602001600020600801600201908051906020019061099a929190612573565b50806000803373ffffffffffffffffffffffffffffffffffffffff1673ffffffffffffffffffffffffffffffffffffffff16815260200190815260200160002060080160010190805190602001906109f3929190612573565b505050505050565b856000803373ffffffffffffffffffffffffffffffffffffffff1673ffffffffffffffffffffffffffffffffffffffff1681526020019081526020016000206000016003019080519060200190610a53929190612573565b50846000803373ffffffffffffffffffffffffffffffffffffffff1673ffffffffffffffffffffffffffffffffffffffff1681526020019081526020016000206000016004019080519060200190610aac929190612573565b50836000803373ffffffffffffffffffffffffffffffffffffffff1673ffffffffffffffffffffffffffffffffffffffff1681526020019081526020016000206000016005019080519060200190610b05929190612573565b50826000803373ffffffffffffffffffffffffffffffffffffffff1673ffffffffffffffffffffffffffffffffffffffff1681526020019081526020016000206000016006019080519060200190610b5e929190612573565b50816000803373ffffffffffffffffffffffffffffffffffffffff1673ffffffffffffffffffffffffffffffffffffffff1681526020019081526020016000206000016000019080519060200190610bb7929190612573565b50806000803373ffffffffffffffffffffffffffffffffffffffff1673ffffffffffffffffffffffffffffffffffffffff1681526020019081526020016000206000016001019080519060200190610c10929190612573565b50336000803373ffffffffffffffffffffffffffffffffffffffff1673ffffffffffffffffffffffffffffffffffffffff16815260200190815260200160002060000160020160006101000a81548173ffffffffffffffffffffffffffffffffffffffff021916908373ffffffffffffffffffffffffffffffffffffffff160217905550426000803373ffffffffffffffffffffffffffffffffffffffff1673ffffffffffffffffffffffffffffffffffffffff16815260200190815260200160002060000160070181905550505050505050565b6000803373ffffffffffffffffffffffffffffffffffffffff1673ffffffffffffffffffffffffffffffffffffffff16815260200190815260200160002060000160008082016000610d379190612533565b600182016000610d479190612533565b6002820160006101000a81549073ffffffffffffffffffffffffffffffffffffffff0219169055600382016000610d7e9190612533565b600482016000610d8e9190612533565b600582016000610d9e9190612533565b600682016000610dae9190612533565b60078201600090555050565b60006020528060005260406000206000915090508060000160405180610100016040529081600082018054610dee90613399565b80601f0160208091040260200160405190810160405280929190818152602001828054610e1a90613399565b8015610e675780601f10610e3c57610100808354040283529160200191610e67565b820191906000526020600020905b815481529060010190602001808311610e4a57829003601f168201915b50505050508152602001600182018054610e8090613399565b80601f0160208091040260200160405190810160405280929190818152602001828054610eac90613399565b8015610ef95780601f10610ece57610100808354040283529160200191610ef9565b820191906000526020600020905b815481529060010190602001808311610edc57829003601f168201915b505050505081526020016002820160009054906101000a900473ffffffffffffffffffffffffffffffffffffffff1673ffffffffffffffffffffffffffffffffffffffff1673ffffffffffffffffffffffffffffffffffffffff168152602001600382018054610f6890613399565b80601f0160208091040260200160405190810160405280929190818152602001828054610f9490613399565b8015610fe15780601f10610fb657610100808354040283529160200191610fe1565b820191906000526020600020905b815481529060010190602001808311610fc457829003601f168201915b50505050508152602001600482018054610ffa90613399565b80601f016020809104026020016040519081016040528092919081815260200182805461102690613399565b80156110735780601f1061104857610100808354040283529160200191611073565b820191906000526020600020905b81548152906001019060200180831161105657829003601f168201915b5050505050815260200160058201805461108c90613399565b80601f01602080910402602001604051908101604052809291908181526020018280546110b890613399565b80156111055780601f106110da57610100808354040283529160200191611105565b820191906000526020600020905b8154815290600101906020018083116110e857829003601f168201915b5050505050815260200160068201805461111e90613399565b80601f016020809104026020016040519081016040528092919081815260200182805461114a90613399565b80156111975780601f1061116c57610100808354040283529160200191611197565b820191906000526020600020905b81548152906001019060200180831161117a57829003601f168201915b5050505050815260200160078201548152505090806008016040518060c00160405290816000820180546111ca90613399565b80601f01602080910402602001604051908101604052809291908181526020018280546111f690613399565b80156112435780601f1061121857610100808354040283529160200191611243565b820191906000526020600020905b81548152906001019060200180831161122657829003601f168201915b5050505050815260200160018201805461125c90613399565b80601f016020809104026020016040519081016040528092919081815260200182805461128890613399565b80156112d55780601f106112aa576101008083540402835291602001916112d5565b820191906000526020600020905b8154815290600101906020018083116112b857829003601f168201915b505050505081526020016002820180546112ee90613399565b80601f016020809104026020016040519081016040528092919081815260200182805461131a90613399565b80156113675780601f1061133c57610100808354040283529160200191611367565b820191906000526020600020905b81548152906001019060200180831161134a57829003601f168201915b5050505050815260200160038201805461138090613399565b80601f01602080910402602001604051908101604052809291908181526020018280546113ac90613399565b80156113f95780601f106113ce576101008083540402835291602001916113f9565b820191906000526020600020905b8154815290600101906020018083116113dc57829003601f168201915b5050505050815260200160048201805461141290613399565b80601f016020809104026020016040519081016040528092919081815260200182805461143e90613399565b801561148b5780601f106114605761010080835404028352916020019161148b565b820191906000526020600020905b81548152906001019060200180831161146e57829003601f168201915b505050505081526020016005820180546114a490613399565b80601f01602080910402602001604051908101604052809291908181526020018280546114d090613399565b801561151d5780601f106114f25761010080835404028352916020019161151d565b820191906000526020600020905b81548152906001019060200180831161150057829003601f168201915b5050505050815250509080600e0160405180606001604052908160008201805480602002602001604051908101604052809291908181526020016000905b8282101561160757838290600052602060002001805461157a90613399565b80601f01602080910402602001604051908101604052809291908181526020018280546115a690613399565b80156115f35780601f106115c8576101008083540402835291602001916115f3565b820191906000526020600020905b8154815290600101906020018083116115d657829003601f168201915b50505050508152602001906001019061155b565b50505050815260200160018201805480602002602001604051908101604052809291908181526020016000905b828210156116e057838290600052602060002001805461165390613399565b80601f016020809104026020016040519081016040528092919081815260200182805461167f90613399565b80156116cc5780601f106116a1576101008083540402835291602001916116cc565b820191906000526020600020905b8154815290600101906020018083116116af57829003601f168201915b505050505081526020019060010190611634565b50505050815260200160028201805480602002602001604051908101604052809291908181526020016000905b828210156117b957838290600052602060002001805461172c90613399565b80601f016020809104026020016040519081016040528092919081815260200182805461175890613399565b80156117a55780601f1061177a576101008083540402835291602001916117a5565b820191906000526020600020905b81548152906001019060200180831161178857829003601f168201915b50505050508152602001906001019061170d565b5050505081525050908060120160405180604001604052908160008201805480602002602001604051908101604052809291908181526020016000905b828210156118a257838290600052602060002001805461181590613399565b80601f016020809104026020016040519081016040528092919081815260200182805461184190613399565b801561188e5780601f106118635761010080835404028352916020019161188e565b820191906000526020600020905b81548152906001019060200180831161187157829003601f168201915b5050505050815260200190600101906117f6565b50505050815260200160018201805480602002602001604051908101604052809291908181526020016000905b8282101561197b5783829060005260206000200180546118ee90613399565b80601f016020809104026020016040519081016040528092919081815260200182805461191a90613399565b80156119675780601f1061193c57610100808354040283529160200191611967565b820191906000526020600020905b81548152906001019060200180831161194a57829003601f168201915b5050505050815260200190600101906118cf565b505050508152505090806014016040518060a00160405290816000820180546119a390613399565b80601f01602080910402602001604051908101604052809291908181526020018280546119cf90613399565b8015611a1c5780601f106119f157610100808354040283529160200191611a1c565b820191906000526020600020905b8154815290600101906020018083116119ff57829003601f168201915b50505050508152602001600182018054611a3590613399565b80601f0160208091040260200160405190810160405280929190818152602001828054611a6190613399565b8015611aae5780601f10611a8357610100808354040283529160200191611aae565b820191906000526020600020905b815481529060010190602001808311611a9157829003601f168201915b50505050508152602001600282018054611ac790613399565b80601f0160208091040260200160405190810160405280929190818152602001828054611af390613399565b8015611b405780601f10611b1557610100808354040283529160200191611b40565b820191906000526020600020905b815481529060010190602001808311611b2357829003601f168201915b50505050508152602001600382018054611b5990613399565b80601f0160208091040260200160405190810160405280929190818152602001828054611b8590613399565b8015611bd25780601f10611ba757610100808354040283529160200191611bd2565b820191906000526020600020905b815481529060010190602001808311611bb557829003601f168201915b5050505050815260200160048201805480602002602001604051908101604052809291908181526020016000905b82821015611cac578382906000526020600020018054611c1f90613399565b80601f0160208091040260200160405190810160405280929190818152602001828054611c4b90613399565b8015611c985780601f10611c6d57610100808354040283529160200191611c98565b820191906000526020600020905b815481529060010190602001808311611c7b57829003601f168201915b505050505081526020019060010190611c00565b50505050815250509080601901604051806040016040529081600082018054611cd490613399565b80601f0160208091040260200160405190810160405280929190818152602001828054611d0090613399565b8015611d4d5780601f10611d2257610100808354040283529160200191611d4d565b820191906000526020600020905b815481529060010190602001808311611d3057829003601f168201915b50505050508152602001600182018054611d6690613399565b80601f0160208091040260200160405190810160405280929190818152602001828054611d9290613399565b8015611ddf5780601f10611db457610100808354040283529160200191611ddf565b820191906000526020600020905b815481529060010190602001808311611dc257829003601f168201915b505050505081525050905086565b6000803373ffffffffffffffffffffffffffffffffffffffff1673ffffffffffffffffffffffffffffffffffffffff1681526020019081526020016000206011016000611e3a91906126a9565b565b60608060608060606000803373ffffffffffffffffffffffffffffffffffffffff1673ffffffffffffffffffffffffffffffffffffffff1681526020019081526020016000206011018681548110611e9757611e9661342b565b5b90600052602060002090600502016000016000803373ffffffffffffffffffffffffffffffffffffffff1673ffffffffffffffffffffffffffffffffffffffff1681526020019081526020016000206011018781548110611efb57611efa61342b565b5b90600052602060002090600502016001016000803373ffffffffffffffffffffffffffffffffffffffff1673ffffffffffffffffffffffffffffffffffffffff1681526020019081526020016000206011018881548110611f5f57611f5e61342b565b5b90600052602060002090600502016002016000803373ffffffffffffffffffffffffffffffffffffffff1673ffffffffffffffffffffffffffffffffffffffff1681526020019081526020016000206011018981548110611fc357611fc261342b565b5b90600052602060002090600502016003016000803373ffffffffffffffffffffffffffffffffffffffff1673ffffffffffffffffffffffffffffffffffffffff1681526020019081526020016000206011018a815481106120275761202661342b565b5b906000526020600020906005020160040184805461204490613399565b80601f016020809104026020016040519081016040528092919081815260200182805461207090613399565b80156120bd5780601f10612092576101008083540402835291602001916120bd565b820191906000526020600020905b8154815290600101906020018083116120a057829003601f168201915b505050505094508380546120d090613399565b80601f01602080910402602001604051908101604052809291908181526020018280546120fc90613399565b80156121495780601f1061211e57610100808354040283529160200191612149565b820191906000526020600020905b81548152906001019060200180831161212c57829003601f168201915b5050505050935082805461215c90613399565b80601f016020809104026020016040519081016040528092919081815260200182805461218890613399565b80156121d55780601f106121aa576101008083540402835291602001916121d5565b820191906000526020600020905b8154815290600101906020018083116121b857829003601f168201915b505050505092508180546121e890613399565b80601f016020809104026020016040519081016040528092919081815260200182805461221490613399565b80156122615780601f1061223657610100808354040283529160200191612261565b820191906000526020600020905b81548152906001019060200180831161224457829003601f168201915b5050505050915080805461227490613399565b80601f01602080910402602001604051908101604052809291908181526020018280546122a090613399565b80156122ed5780601f106122c2576101008083540402835291602001916122ed565b820191906000526020600020905b8154815290600101906020018083116122d057829003601f168201915b505050505090509450945094509450945091939590929450565b6000803373ffffffffffffffffffffffffffffffffffffffff1673ffffffffffffffffffffffffffffffffffffffff16815260200190815260200160002060008082016000808201600061235b9190612533565b60018201600061236b9190612533565b6002820160006101000a81549073ffffffffffffffffffffffffffffffffffffffff02191690556003820160006123a29190612533565b6004820160006123b29190612533565b6005820160006123c29190612533565b6006820160006123d29190612533565b6007820160009055505060088201600080820160006123f19190612533565b6001820160006124019190612533565b6002820160006124119190612533565b6003820160006124219190612533565b6004820160006124319190612533565b6005820160006124419190612533565b5050600e82016000808201600061245891906125f9565b60018201600061246891906125f9565b60028201600061247891906125f9565b505060118201600061248a91906126a9565b601282016000808201600061249f91906125f9565b6001820160006124af91906125f9565b505060148201600080820160006124c69190612533565b6001820160006124d69190612533565b6002820160006124e69190612533565b6003820160006124f69190612533565b60048201600061250691906125f9565b5050601982016000808201600061251d9190612533565b60018201600061252d9190612533565b50505050565b50805461253f90613399565b6000825580601f106125515750612570565b601f01602090049060005260206000209081019061256f91906126cd565b5b50565b82805461257f90613399565b90600052602060002090601f0160209004810192826125a157600085556125e8565b82601f106125ba57805160ff19168380011785556125e8565b828001600101855582156125e8579182015b828111156125e75782518255916020019190600101906125cc565b5b5090506125f591906126cd565b5090565b508054600082559060005260206000209081019061261791906126ea565b50565b828054828255906000526020600020908101928215612669579160200282015b82811115612668578251829080519060200190612658929190612573565b509160200191906001019061263a565b5b50905061267691906126ea565b5090565b6040518060a0016040528060608152602001606081526020016060815260200160608152602001606081525090565b50805460008255600502906000526020600020908101906126ca919061270e565b50565b5b808211156126e65760008160009055506001016126ce565b5090565b5b8082111561270a57600081816127019190612533565b506001016126eb565b5090565b5b8082111561277157600080820160006127289190612533565b6001820160006127389190612533565b6002820160006127489190612533565b6003820160006127589190612533565b6004820160006127689190612533565b5060050161270f565b5090565b600061278861278384613258565b613233565b905080838252602082019050828560208602820111156127ab576127aa61348e565b5b60005b858110156127f957813567ffffffffffffffff8111156127d1576127d0613489565b5b8086016127de8982612888565b855260208501945060208401935050506001810190506127ae565b5050509392505050565b600061281661281184613284565b613233565b90508281526020810184848401111561283257612831613493565b5b61283d848285613357565b509392505050565b600081359050612854816134b3565b92915050565b600082601f83011261286f5761286e613489565b5b813561287f848260208601612775565b91505092915050565b600082601f83011261289d5761289c613489565b5b81356128ad848260208601612803565b91505092915050565b6000813590506128c5816134ca565b92915050565b6000602082840312156128e1576128e061349d565b5b60006128ef84828501612845565b91505092915050565b6000806040838503121561290f5761290e61349d565b5b600083013567ffffffffffffffff81111561292d5761292c613498565b5b6129398582860161285a565b925050602083013567ffffffffffffffff81111561295a57612959613498565b5b6129668582860161285a565b9150509250929050565b6000806000606084860312156129895761298861349d565b5b600084013567ffffffffffffffff8111156129a7576129a6613498565b5b6129b38682870161285a565b935050602084013567ffffffffffffffff8111156129d4576129d3613498565b5b6129e08682870161285a565b925050604084013567ffffffffffffffff811115612a0157612a00613498565b5b612a0d8682870161285a565b9150509250925092565b60008060408385031215612a2e57612a2d61349d565b5b600083013567ffffffffffffffff811115612a4c57612a4b613498565b5b612a5885828601612888565b925050602083013567ffffffffffffffff811115612a7957612a78613498565b5b612a8585828601612888565b9150509250929050565b600080600080600060a08688031215612aab57612aaa61349d565b5b600086013567ffffffffffffffff811115612ac957612ac8613498565b5b612ad588828901612888565b955050602086013567ffffffffffffffff811115612af657612af5613498565b5b612b0288828901612888565b945050604086013567ffffffffffffffff811115612b2357612b22613498565b5b612b2f88828901612888565b935050606086013567ffffffffffffffff811115612b5057612b4f613498565b5b612b5c88828901612888565b925050608086013567ffffffffffffffff811115612b7d57612b7c613498565b5b612b8988828901612888565b9150509295509295909350565b60008060008060008060c08789031215612bb357612bb261349d565b5b600087013567ffffffffffffffff811115612bd157612bd0613498565b5b612bdd89828a01612888565b965050602087013567ffffffffffffffff811115612bfe57612bfd613498565b5b612c0a89828a01612888565b955050604087013567ffffffffffffffff811115612c2b57612c2a613498565b5b612c3789828a01612888565b945050606087013567ffffffffffffffff811115612c5857612c57613498565b5b612c6489828a01612888565b935050608087013567ffffffffffffffff811115612c8557612c84613498565b5b612c9189828a01612888565b92505060a087013567ffffffffffffffff811115612cb257612cb1613498565b5b612cbe89828a01612888565b9150509295509295509295565b600060208284031215612ce157612ce061349d565b5b6000612cef848285016128b6565b91505092915050565b6000612d048383612d90565b905092915050565b612d158161331b565b82525050565b6000612d26826132c5565b612d3081856132e8565b935083602082028501612d42856132b5565b8060005b85811015612d7e5784840389528151612d5f8582612cf8565b9450612d6a836132db565b925060208a01995050600181019050612d46565b50829750879550505050505092915050565b6000612d9b826132d0565b612da581856132f9565b9350612db5818560208601613366565b612dbe816134a2565b840191505092915050565b6000612dd4826132d0565b612dde818561330a565b9350612dee818560208601613366565b612df7816134a2565b840191505092915050565b60006040830160008301518482036000860152612e1f8282612d1b565b91505060208301518482036020860152612e398282612d1b565b9150508091505092915050565b600060a0830160008301518482036000860152612e638282612d90565b91505060208301518482036020860152612e7d8282612d90565b91505060408301518482036040860152612e978282612d90565b91505060608301518482036060860152612eb18282612d90565b91505060808301518482036080860152612ecb8282612d1b565b9150508091505092915050565b600060c0830160008301518482036000860152612ef58282612d90565b91505060208301518482036020860152612f0f8282612d90565b91505060408301518482036040860152612f298282612d90565b91505060608301518482036060860152612f438282612d90565b91505060808301518482036080860152612f5d8282612d90565b91505060a083015184820360a0860152612f778282612d90565b9150508091505092915050565b60006040830160008301518482036000860152612fa18282612d90565b91505060208301518482036020860152612fbb8282612d90565b9150508091505092915050565b6000610100830160008301518482036000860152612fe68282612d90565b915050602083015184820360208601526130008282612d90565b91505060408301516130156040860182612d0c565b506060830151848203606086015261302d8282612d90565b915050608083015184820360808601526130478282612d90565b91505060a083015184820360a08601526130618282612d90565b91505060c083015184820360c086015261307b8282612d90565b91505060e083015161309060e08601826130f9565b508091505092915050565b600060608301600083015184820360008601526130b88282612d1b565b915050602083015184820360208601526130d28282612d1b565b915050604083015184820360408601526130ec8282612d1b565b9150508091505092915050565b6131028161334d565b82525050565b6131118161334d565b82525050565b600060a08201905081810360008301526131318188612dc9565b905081810360208301526131458187612dc9565b905081810360408301526131598186612dc9565b9050818103606083015261316d8185612dc9565b905081810360808301526131818184612dc9565b90509695505050505050565b600060c08201905081810360008301526131a78189612fc8565b905081810360208301526131bb8188612ed8565b905081810360408301526131cf818761309b565b905081810360608301526131e38186612e02565b905081810360808301526131f78185612e46565b905081810360a083015261320b8184612f84565b9050979650505050505050565b600060208201905061322d6000830184613108565b92915050565b600061323d61324e565b905061324982826133cb565b919050565b6000604051905090565b600067ffffffffffffffff8211156132735761327261345a565b5b602082029050602081019050919050565b600067ffffffffffffffff82111561329f5761329e61345a565b5b6132a8826134a2565b9050602081019050919050565b6000819050602082019050919050565b600081519050919050565b600081519050919050565b6000602082019050919050565b600082825260208201905092915050565b600082825260208201905092915050565b600082825260208201905092915050565b60006133268261332d565b9050919050565b600073ffffffffffffffffffffffffffffffffffffffff82169050919050565b6000819050919050565b82818337600083830152505050565b60005b83811015613384578082015181840152602081019050613369565b83811115613393576000848401525b50505050565b600060028204905060018216806133b157607f821691505b602082108114156133c5576133c46133fc565b5b50919050565b6133d4826134a2565b810181811067ffffffffffffffff821117156133f3576133f261345a565b5b80604052505050565b7f4e487b7100000000000000000000000000000000000000000000000000000000600052602260045260246000fd5b7f4e487b7100000000000000000000000000000000000000000000000000000000600052603260045260246000fd5b7f4e487b7100000000000000000000000000000000000000000000000000000000600052604160045260246000fd5b600080fd5b600080fd5b600080fd5b600080fd5b600080fd5b6000601f19601f8301169050919050565b6134bc8161331b565b81146134c757600080fd5b50565b6134d38161334d565b81146134de57600080fd5b5056fea2646970667358221220b2147079d271693d4585ea513a91bb738648c8b018eb0e393670029fc799994a64736f6c63430008070033",
					"opcodes": "PUSH1 0x80 PUSH1 0x40 MSTORE CALLVALUE DUP1 ISZERO PUSH2 0x10 JUMPI PUSH1 0x0 DUP1 REVERT JUMPDEST POP PUSH2 0x3517 DUP1 PUSH2 0x20 PUSH1 0x0 CODECOPY PUSH1 0x0 RETURN INVALID PUSH1 0x80 PUSH1 0x40 MSTORE CALLVALUE DUP1 ISZERO PUSH2 0x10 JUMPI PUSH1 0x0 DUP1 REVERT JUMPDEST POP PUSH1 0x4 CALLDATASIZE LT PUSH2 0xEA JUMPI PUSH1 0x0 CALLDATALOAD PUSH1 0xE0 SHR DUP1 PUSH4 0x72828388 GT PUSH2 0x8C JUMPI DUP1 PUSH4 0x9DD9D0FD GT PUSH2 0x66 JUMPI DUP1 PUSH4 0x9DD9D0FD EQ PUSH2 0x1D3 JUMPI DUP1 PUSH4 0xED2217EF EQ PUSH2 0x208 JUMPI DUP1 PUSH4 0xF96E32F8 EQ PUSH2 0x212 JUMPI DUP1 PUSH4 0xFABCE08F EQ PUSH2 0x246 JUMPI PUSH2 0xEA JUMP JUMPDEST DUP1 PUSH4 0x72828388 EQ PUSH2 0x191 JUMPI DUP1 PUSH4 0x958791AE EQ PUSH2 0x1AD JUMPI DUP1 PUSH4 0x95EA3757 EQ PUSH2 0x1C9 JUMPI PUSH2 0xEA JUMP JUMPDEST DUP1 PUSH4 0x4ED74067 GT PUSH2 0xC8 JUMPI DUP1 PUSH4 0x4ED74067 EQ PUSH2 0x131 JUMPI DUP1 PUSH4 0x6212FA02 EQ PUSH2 0x13B JUMPI DUP1 PUSH4 0x66244DFB EQ PUSH2 0x159 JUMPI DUP1 PUSH4 0x6C2CC774 EQ PUSH2 0x175 JUMPI PUSH2 0xEA JUMP JUMPDEST DUP1 PUSH4 0x119D4CAC EQ PUSH2 0xEF JUMPI DUP1 PUSH4 0x322A9849 EQ PUSH2 0xF9 JUMPI DUP1 PUSH4 0x3D984D0E EQ PUSH2 0x115 JUMPI JUMPDEST PUSH1 0x0 DUP1 REVERT JUMPDEST PUSH2 0xF7 PUSH2 0x250 JUMP JUMPDEST STOP JUMPDEST PUSH2 0x113 PUSH1 0x4 DUP1 CALLDATASIZE SUB DUP2 ADD SWAP1 PUSH2 0x10E SWAP2 SWAP1 PUSH2 0x2A17 JUMP JUMPDEST PUSH2 0x2B6 JUMP JUMPDEST STOP JUMPDEST PUSH2 0x12F PUSH1 0x4 DUP1 CALLDATASIZE SUB DUP2 ADD SWAP1 PUSH2 0x12A SWAP2 SWAP1 PUSH2 0x2970 JUMP JUMPDEST PUSH2 0x36C JUMP JUMPDEST STOP JUMPDEST PUSH2 0x139 PUSH2 0x4F0 JUMP JUMPDEST STOP JUMPDEST PUSH2 0x143 PUSH2 0x556 JUMP JUMPDEST PUSH1 0x40 MLOAD PUSH2 0x150 SWAP2 SWAP1 PUSH2 0x3218 JUMP JUMPDEST PUSH1 0x40 MLOAD DUP1 SWAP2 SUB SWAP1 RETURN JUMPDEST PUSH2 0x173 PUSH1 0x4 DUP1 CALLDATASIZE SUB DUP2 ADD SWAP1 PUSH2 0x16E SWAP2 SWAP1 PUSH2 0x2A8F JUMP JUMPDEST PUSH2 0x5A2 JUMP JUMPDEST STOP JUMPDEST PUSH2 0x18F PUSH1 0x4 DUP1 CALLDATASIZE SUB DUP2 ADD SWAP1 PUSH2 0x18A SWAP2 SWAP1 PUSH2 0x28F8 JUMP JUMPDEST PUSH2 0x6DD JUMP JUMPDEST STOP JUMPDEST PUSH2 0x1AB PUSH1 0x4 DUP1 CALLDATASIZE SUB DUP2 ADD SWAP1 PUSH2 0x1A6 SWAP2 SWAP1 PUSH2 0x2A8F JUMP JUMPDEST PUSH2 0x793 JUMP JUMPDEST STOP JUMPDEST PUSH2 0x1C7 PUSH1 0x4 DUP1 CALLDATASIZE SUB DUP2 ADD SWAP1 PUSH2 0x1C2 SWAP2 SWAP1 PUSH2 0x2B96 JUMP JUMPDEST PUSH2 0x9FB JUMP JUMPDEST STOP JUMPDEST PUSH2 0x1D1 PUSH2 0xCE5 JUMP JUMPDEST STOP JUMPDEST PUSH2 0x1ED PUSH1 0x4 DUP1 CALLDATASIZE SUB DUP2 ADD SWAP1 PUSH2 0x1E8 SWAP2 SWAP1 PUSH2 0x28CB JUMP JUMPDEST PUSH2 0xDBA JUMP JUMPDEST PUSH1 0x40 MLOAD PUSH2 0x1FF SWAP7 SWAP6 SWAP5 SWAP4 SWAP3 SWAP2 SWAP1 PUSH2 0x318D JUMP JUMPDEST PUSH1 0x40 MLOAD DUP1 SWAP2 SUB SWAP1 RETURN JUMPDEST PUSH2 0x210 PUSH2 0x1DED JUMP JUMPDEST STOP JUMPDEST PUSH2 0x22C PUSH1 0x4 DUP1 CALLDATASIZE SUB DUP2 ADD SWAP1 PUSH2 0x227 SWAP2 SWAP1 PUSH2 0x2CCB JUMP JUMPDEST PUSH2 0x1E3C JUMP JUMPDEST PUSH1 0x40 MLOAD PUSH2 0x23D SWAP6 SWAP5 SWAP4 SWAP3 SWAP2 SWAP1 PUSH2 0x3117 JUMP JUMPDEST PUSH1 0x40 MLOAD DUP1 SWAP2 SUB SWAP1 RETURN JUMPDEST PUSH2 0x24E PUSH2 0x2307 JUMP JUMPDEST STOP JUMPDEST PUSH1 0x0 DUP1 CALLER PUSH20 0xFFFFFFFFFFFFFFFFFFFFFFFFFFFFFFFFFFFFFFFF AND PUSH20 0xFFFFFFFFFFFFFFFFFFFFFFFFFFFFFFFFFFFFFFFF AND DUP2 MSTORE PUSH1 0x20 ADD SWAP1 DUP2 MSTORE PUSH1 0x20 ADD PUSH1 0x0 KECCAK256 PUSH1 0x19 ADD PUSH1 0x0 DUP1 DUP3 ADD PUSH1 0x0 PUSH2 0x2A2 SWAP2 SWAP1 PUSH2 0x2533 JUMP JUMPDEST PUSH1 0x1 DUP3 ADD PUSH1 0x0 PUSH2 0x2B2 SWAP2 SWAP1 PUSH2 0x2533 JUMP JUMPDEST POP POP JUMP JUMPDEST DUP2 PUSH1 0x0 DUP1 CALLER PUSH20 0xFFFFFFFFFFFFFFFFFFFFFFFFFFFFFFFFFFFFFFFF AND PUSH20 0xFFFFFFFFFFFFFFFFFFFFFFFFFFFFFFFFFFFFFFFF AND DUP2 MSTORE PUSH1 0x20 ADD SWAP1 DUP2 MSTORE PUSH1 0x20 ADD PUSH1 0x0 KECCAK256 PUSH1 0x19 ADD PUSH1 0x0 ADD SWAP1 DUP1 MLOAD SWAP1 PUSH1 0x20 ADD SWAP1 PUSH2 0x30E SWAP3 SWAP2 SWAP1 PUSH2 0x2573 JUMP JUMPDEST POP DUP1 PUSH1 0x0 DUP1 CALLER PUSH20 0xFFFFFFFFFFFFFFFFFFFFFFFFFFFFFFFFFFFFFFFF AND PUSH20 0xFFFFFFFFFFFFFFFFFFFFFFFFFFFFFFFFFFFFFFFF AND DUP2 MSTORE PUSH1 0x20 ADD SWAP1 DUP2 MSTORE PUSH1 0x20 ADD PUSH1 0x0 KECCAK256 PUSH1 0x19 ADD PUSH1 0x1 ADD SWAP1 DUP1 MLOAD SWAP1 PUSH1 0x20 ADD SWAP1 PUSH2 0x367 SWAP3 SWAP2 SWAP1 PUSH2 0x2573 JUMP JUMPDEST POP POP POP JUMP JUMPDEST PUSH1 0x0 DUP1 CALLER PUSH20 0xFFFFFFFFFFFFFFFFFFFFFFFFFFFFFFFFFFFFFFFF AND PUSH20 0xFFFFFFFFFFFFFFFFFFFFFFFFFFFFFFFFFFFFFFFF AND DUP2 MSTORE PUSH1 0x20 ADD SWAP1 DUP2 MSTORE PUSH1 0x20 ADD PUSH1 0x0 KECCAK256 PUSH1 0xE ADD PUSH1 0x0 DUP1 DUP3 ADD PUSH1 0x0 PUSH2 0x3BE SWAP2 SWAP1 PUSH2 0x25F9 JUMP JUMPDEST PUSH1 0x1 DUP3 ADD PUSH1 0x0 PUSH2 0x3CE SWAP2 SWAP1 PUSH2 0x25F9 JUMP JUMPDEST PUSH1 0x2 DUP3 ADD PUSH1 0x0 PUSH2 0x3DE SWAP2 SWAP1 PUSH2 0x25F9 JUMP JUMPDEST POP POP DUP3 PUSH1 0x0 DUP1 CALLER PUSH20 0xFFFFFFFFFFFFFFFFFFFFFFFFFFFFFFFFFFFFFFFF AND PUSH20 0xFFFFFFFFFFFFFFFFFFFFFFFFFFFFFFFFFFFFFFFF AND DUP2 MSTORE PUSH1 0x20 ADD SWAP1 DUP2 MSTORE PUSH1 0x20 ADD PUSH1 0x0 KECCAK256 PUSH1 0xE ADD PUSH1 0x0 ADD SWAP1 DUP1 MLOAD SWAP1 PUSH1 0x20 ADD SWAP1 PUSH2 0x438 SWAP3 SWAP2 SWAP1 PUSH2 0x261A JUMP JUMPDEST POP DUP2 PUSH1 0x0 DUP1 CALLER PUSH20 0xFFFFFFFFFFFFFFFFFFFFFFFFFFFFFFFFFFFFFFFF AND PUSH20 0xFFFFFFFFFFFFFFFFFFFFFFFFFFFFFFFFFFFFFFFF AND DUP2 MSTORE PUSH1 0x20 ADD SWAP1 DUP2 MSTORE PUSH1 0x20 ADD PUSH1 0x0 KECCAK256 PUSH1 0xE ADD PUSH1 0x1 ADD SWAP1 DUP1 MLOAD SWAP1 PUSH1 0x20 ADD SWAP1 PUSH2 0x491 SWAP3 SWAP2 SWAP1 PUSH2 0x261A JUMP JUMPDEST POP DUP1 PUSH1 0x0 DUP1 CALLER PUSH20 0xFFFFFFFFFFFFFFFFFFFFFFFFFFFFFFFFFFFFFFFF AND PUSH20 0xFFFFFFFFFFFFFFFFFFFFFFFFFFFFFFFFFFFFFFFF AND DUP2 MSTORE PUSH1 0x20 ADD SWAP1 DUP2 MSTORE PUSH1 0x20 ADD PUSH1 0x0 KECCAK256 PUSH1 0xE ADD PUSH1 0x2 ADD SWAP1 DUP1 MLOAD SWAP1 PUSH1 0x20 ADD SWAP1 PUSH2 0x4EA SWAP3 SWAP2 SWAP1 PUSH2 0x261A JUMP JUMPDEST POP POP POP POP JUMP JUMPDEST PUSH1 0x0 DUP1 CALLER PUSH20 0xFFFFFFFFFFFFFFFFFFFFFFFFFFFFFFFFFFFFFFFF AND PUSH20 0xFFFFFFFFFFFFFFFFFFFFFFFFFFFFFFFFFFFFFFFF AND DUP2 MSTORE PUSH1 0x20 ADD SWAP1 DUP2 MSTORE PUSH1 0x20 ADD PUSH1 0x0 KECCAK256 PUSH1 0x12 ADD PUSH1 0x0 DUP1 DUP3 ADD PUSH1 0x0 PUSH2 0x542 SWAP2 SWAP1 PUSH2 0x25F9 JUMP JUMPDEST PUSH1 0x1 DUP3 ADD PUSH1 0x0 PUSH2 0x552 SWAP2 SWAP1 PUSH2 0x25F9 JUMP JUMPDEST POP POP JUMP JUMPDEST PUSH1 0x0 DUP1 PUSH1 0x0 CALLER PUSH20 0xFFFFFFFFFFFFFFFFFFFFFFFFFFFFFFFFFFFFFFFF AND PUSH20 0xFFFFFFFFFFFFFFFFFFFFFFFFFFFFFFFFFFFFFFFF AND DUP2 MSTORE PUSH1 0x20 ADD SWAP1 DUP2 MSTORE PUSH1 0x20 ADD PUSH1 0x0 KECCAK256 PUSH1 0x11 ADD DUP1 SLOAD SWAP1 POP SWAP1 POP SWAP1 JUMP JUMPDEST PUSH2 0x5AA PUSH2 0x267A JUMP JUMPDEST DUP6 DUP2 PUSH1 0x0 ADD DUP2 SWAP1 MSTORE POP DUP5 DUP2 PUSH1 0x20 ADD DUP2 SWAP1 MSTORE POP DUP4 DUP2 PUSH1 0x40 ADD DUP2 SWAP1 MSTORE POP DUP3 DUP2 PUSH1 0x60 ADD DUP2 SWAP1 MSTORE POP DUP2 DUP2 PUSH1 0x80 ADD DUP2 SWAP1 MSTORE POP PUSH1 0x0 DUP1 CALLER PUSH20 0xFFFFFFFFFFFFFFFFFFFFFFFFFFFFFFFFFFFFFFFF AND PUSH20 0xFFFFFFFFFFFFFFFFFFFFFFFFFFFFFFFFFFFFFFFF AND DUP2 MSTORE PUSH1 0x20 ADD SWAP1 DUP2 MSTORE PUSH1 0x20 ADD PUSH1 0x0 KECCAK256 PUSH1 0x11 ADD DUP2 SWAP1 DUP1 PUSH1 0x1 DUP2 SLOAD ADD DUP1 DUP3 SSTORE DUP1 SWAP2 POP POP PUSH1 0x1 SWAP1 SUB SWAP1 PUSH1 0x0 MSTORE PUSH1 0x20 PUSH1 0x0 KECCAK256 SWAP1 PUSH1 0x5 MUL ADD PUSH1 0x0 SWAP1 SWAP2 SWAP1 SWAP2 SWAP1 SWAP2 POP PUSH1 0x0 DUP3 ADD MLOAD DUP2 PUSH1 0x0 ADD SWAP1 DUP1 MLOAD SWAP1 PUSH1 0x20 ADD SWAP1 PUSH2 0x65E SWAP3 SWAP2 SWAP1 PUSH2 0x2573 JUMP JUMPDEST POP PUSH1 0x20 DUP3 ADD MLOAD DUP2 PUSH1 0x1 ADD SWAP1 DUP1 MLOAD SWAP1 PUSH1 0x20 ADD SWAP1 PUSH2 0x67B SWAP3 SWAP2 SWAP1 PUSH2 0x2573 JUMP JUMPDEST POP PUSH1 0x40 DUP3 ADD MLOAD DUP2 PUSH1 0x2 ADD SWAP1 DUP1 MLOAD SWAP1 PUSH1 0x20 ADD SWAP1 PUSH2 0x698 SWAP3 SWAP2 SWAP1 PUSH2 0x2573 JUMP JUMPDEST POP PUSH1 0x60 DUP3 ADD MLOAD DUP2 PUSH1 0x3 ADD SWAP1 DUP1 MLOAD SWAP1 PUSH1 0x20 ADD SWAP1 PUSH2 0x6B5 SWAP3 SWAP2 SWAP1 PUSH2 0x2573 JUMP JUMPDEST POP PUSH1 0x80 DUP3 ADD MLOAD DUP2 PUSH1 0x4 ADD SWAP1 DUP1 MLOAD SWAP1 PUSH1 0x20 ADD SWAP1 PUSH2 0x6D2 SWAP3 SWAP2 SWAP1 PUSH2 0x2573 JUMP JUMPDEST POP POP POP POP POP POP POP POP POP JUMP JUMPDEST DUP2 PUSH1 0x0 DUP1 CALLER PUSH20 0xFFFFFFFFFFFFFFFFFFFFFFFFFFFFFFFFFFFFFFFF AND PUSH20 0xFFFFFFFFFFFFFFFFFFFFFFFFFFFFFFFFFFFFFFFF AND DUP2 MSTORE PUSH1 0x20 ADD SWAP1 DUP2 MSTORE PUSH1 0x20 ADD PUSH1 0x0 KECCAK256 PUSH1 0x12 ADD PUSH1 0x1 ADD SWAP1 DUP1 MLOAD SWAP1 PUSH1 0x20 ADD SWAP1 PUSH2 0x735 SWAP3 SWAP2 SWAP1 PUSH2 0x261A JUMP JUMPDEST POP DUP1 PUSH1 0x0 DUP1 CALLER PUSH20 0xFFFFFFFFFFFFFFFFFFFFFFFFFFFFFFFFFFFFFFFF AND PUSH20 0xFFFFFFFFFFFFFFFFFFFFFFFFFFFFFFFFFFFFFFFF AND DUP2 MSTORE PUSH1 0x20 ADD SWAP1 DUP2 MSTORE PUSH1 0x20 ADD PUSH1 0x0 KECCAK256 PUSH1 0x12 ADD PUSH1 0x0 ADD SWAP1 DUP1 MLOAD SWAP1 PUSH1 0x20 ADD SWAP1 PUSH2 0x78E SWAP3 SWAP2 SWAP1 PUSH2 0x261A JUMP JUMPDEST POP POP POP JUMP JUMPDEST PUSH1 0x0 DUP1 CALLER PUSH20 0xFFFFFFFFFFFFFFFFFFFFFFFFFFFFFFFFFFFFFFFF AND PUSH20 0xFFFFFFFFFFFFFFFFFFFFFFFFFFFFFFFFFFFFFFFF AND DUP2 MSTORE PUSH1 0x20 ADD SWAP1 DUP2 MSTORE PUSH1 0x20 ADD PUSH1 0x0 KECCAK256 PUSH1 0x8 ADD PUSH1 0x0 DUP1 DUP3 ADD PUSH1 0x0 PUSH2 0x7E5 SWAP2 SWAP1 PUSH2 0x2533 JUMP JUMPDEST PUSH1 0x1 DUP3 ADD PUSH1 0x0 PUSH2 0x7F5 SWAP2 SWAP1 PUSH2 0x2533 JUMP JUMPDEST PUSH1 0x2 DUP3 ADD PUSH1 0x0 PUSH2 0x805 SWAP2 SWAP1 PUSH2 0x2533 JUMP JUMPDEST PUSH1 0x3 DUP3 ADD PUSH1 0x0 PUSH2 0x815 SWAP2 SWAP1 PUSH2 0x2533 JUMP JUMPDEST PUSH1 0x4 DUP3 ADD PUSH1 0x0 PUSH2 0x825 SWAP2 SWAP1 PUSH2 0x2533 JUMP JUMPDEST PUSH1 0x5 DUP3 ADD PUSH1 0x0 PUSH2 0x835 SWAP2 SWAP1 PUSH2 0x2533 JUMP JUMPDEST POP POP DUP5 PUSH1 0x0 DUP1 CALLER PUSH20 0xFFFFFFFFFFFFFFFFFFFFFFFFFFFFFFFFFFFFFFFF AND PUSH20 0xFFFFFFFFFFFFFFFFFFFFFFFFFFFFFFFFFFFFFFFF AND DUP2 MSTORE PUSH1 0x20 ADD SWAP1 DUP2 MSTORE PUSH1 0x20 ADD PUSH1 0x0 KECCAK256 PUSH1 0x8 ADD PUSH1 0x1 ADD SWAP1 DUP1 MLOAD SWAP1 PUSH1 0x20 ADD SWAP1 PUSH2 0x88F SWAP3 SWAP2 SWAP1 PUSH2 0x2573 JUMP JUMPDEST POP DUP4 PUSH1 0x0 DUP1 CALLER PUSH20 0xFFFFFFFFFFFFFFFFFFFFFFFFFFFFFFFFFFFFFFFF AND PUSH20 0xFFFFFFFFFFFFFFFFFFFFFFFFFFFFFFFFFFFFFFFF AND DUP2 MSTORE PUSH1 0x20 ADD SWAP1 DUP2 MSTORE PUSH1 0x20 ADD PUSH1 0x0 KECCAK256 PUSH1 0x8 ADD PUSH1 0x2 ADD SWAP1 DUP1 MLOAD SWAP1 PUSH1 0x20 ADD SWAP1 PUSH2 0x8E8 SWAP3 SWAP2 SWAP1 PUSH2 0x2573 JUMP JUMPDEST POP DUP3 PUSH1 0x0 DUP1 CALLER PUSH20 0xFFFFFFFFFFFFFFFFFFFFFFFFFFFFFFFFFFFFFFFF AND PUSH20 0xFFFFFFFFFFFFFFFFFFFFFFFFFFFFFFFFFFFFFFFF AND DUP2 MSTORE PUSH1 0x20 ADD SWAP1 DUP2 MSTORE PUSH1 0x20 ADD PUSH1 0x0 KECCAK256 PUSH1 0x8 ADD PUSH1 0x3 ADD SWAP1 DUP1 MLOAD SWAP1 PUSH1 0x20 ADD SWAP1 PUSH2 0x941 SWAP3 SWAP2 SWAP1 PUSH2 0x2573 JUMP JUMPDEST POP DUP2 PUSH1 0x0 DUP1 CALLER PUSH20 0xFFFFFFFFFFFFFFFFFFFFFFFFFFFFFFFFFFFFFFFF AND PUSH20 0xFFFFFFFFFFFFFFFFFFFFFFFFFFFFFFFFFFFFFFFF AND DUP2 MSTORE PUSH1 0x20 ADD SWAP1 DUP2 MSTORE PUSH1 0x20 ADD PUSH1 0x0 KECCAK256 PUSH1 0x8 ADD PUSH1 0x2 ADD SWAP1 DUP1 MLOAD SWAP1 PUSH1 0x20 ADD SWAP1 PUSH2 0x99A SWAP3 SWAP2 SWAP1 PUSH2 0x2573 JUMP JUMPDEST POP DUP1 PUSH1 0x0 DUP1 CALLER PUSH20 0xFFFFFFFFFFFFFFFFFFFFFFFFFFFFFFFFFFFFFFFF AND PUSH20 0xFFFFFFFFFFFFFFFFFFFFFFFFFFFFFFFFFFFFFFFF AND DUP2 MSTORE PUSH1 0x20 ADD SWAP1 DUP2 MSTORE PUSH1 0x20 ADD PUSH1 0x0 KECCAK256 PUSH1 0x8 ADD PUSH1 0x1 ADD SWAP1 DUP1 MLOAD SWAP1 PUSH1 0x20 ADD SWAP1 PUSH2 0x9F3 SWAP3 SWAP2 SWAP1 PUSH2 0x2573 JUMP JUMPDEST POP POP POP POP POP POP JUMP JUMPDEST DUP6 PUSH1 0x0 DUP1 CALLER PUSH20 0xFFFFFFFFFFFFFFFFFFFFFFFFFFFFFFFFFFFFFFFF AND PUSH20 0xFFFFFFFFFFFFFFFFFFFFFFFFFFFFFFFFFFFFFFFF AND DUP2 MSTORE PUSH1 0x20 ADD SWAP1 DUP2 MSTORE PUSH1 0x20 ADD PUSH1 0x0 KECCAK256 PUSH1 0x0 ADD PUSH1 0x3 ADD SWAP1 DUP1 MLOAD SWAP1 PUSH1 0x20 ADD SWAP1 PUSH2 0xA53 SWAP3 SWAP2 SWAP1 PUSH2 0x2573 JUMP JUMPDEST POP DUP5 PUSH1 0x0 DUP1 CALLER PUSH20 0xFFFFFFFFFFFFFFFFFFFFFFFFFFFFFFFFFFFFFFFF AND PUSH20 0xFFFFFFFFFFFFFFFFFFFFFFFFFFFFFFFFFFFFFFFF AND DUP2 MSTORE PUSH1 0x20 ADD SWAP1 DUP2 MSTORE PUSH1 0x20 ADD PUSH1 0x0 KECCAK256 PUSH1 0x0 ADD PUSH1 0x4 ADD SWAP1 DUP1 MLOAD SWAP1 PUSH1 0x20 ADD SWAP1 PUSH2 0xAAC SWAP3 SWAP2 SWAP1 PUSH2 0x2573 JUMP JUMPDEST POP DUP4 PUSH1 0x0 DUP1 CALLER PUSH20 0xFFFFFFFFFFFFFFFFFFFFFFFFFFFFFFFFFFFFFFFF AND PUSH20 0xFFFFFFFFFFFFFFFFFFFFFFFFFFFFFFFFFFFFFFFF AND DUP2 MSTORE PUSH1 0x20 ADD SWAP1 DUP2 MSTORE PUSH1 0x20 ADD PUSH1 0x0 KECCAK256 PUSH1 0x0 ADD PUSH1 0x5 ADD SWAP1 DUP1 MLOAD SWAP1 PUSH1 0x20 ADD SWAP1 PUSH2 0xB05 SWAP3 SWAP2 SWAP1 PUSH2 0x2573 JUMP JUMPDEST POP DUP3 PUSH1 0x0 DUP1 CALLER PUSH20 0xFFFFFFFFFFFFFFFFFFFFFFFFFFFFFFFFFFFFFFFF AND PUSH20 0xFFFFFFFFFFFFFFFFFFFFFFFFFFFFFFFFFFFFFFFF AND DUP2 MSTORE PUSH1 0x20 ADD SWAP1 DUP2 MSTORE PUSH1 0x20 ADD PUSH1 0x0 KECCAK256 PUSH1 0x0 ADD PUSH1 0x6 ADD SWAP1 DUP1 MLOAD SWAP1 PUSH1 0x20 ADD SWAP1 PUSH2 0xB5E SWAP3 SWAP2 SWAP1 PUSH2 0x2573 JUMP JUMPDEST POP DUP2 PUSH1 0x0 DUP1 CALLER PUSH20 0xFFFFFFFFFFFFFFFFFFFFFFFFFFFFFFFFFFFFFFFF AND PUSH20 0xFFFFFFFFFFFFFFFFFFFFFFFFFFFFFFFFFFFFFFFF AND DUP2 MSTORE PUSH1 0x20 ADD SWAP1 DUP2 MSTORE PUSH1 0x20 ADD PUSH1 0x0 KECCAK256 PUSH1 0x0 ADD PUSH1 0x0 ADD SWAP1 DUP1 MLOAD SWAP1 PUSH1 0x20 ADD SWAP1 PUSH2 0xBB7 SWAP3 SWAP2 SWAP1 PUSH2 0x2573 JUMP JUMPDEST POP DUP1 PUSH1 0x0 DUP1 CALLER PUSH20 0xFFFFFFFFFFFFFFFFFFFFFFFFFFFFFFFFFFFFFFFF AND PUSH20 0xFFFFFFFFFFFFFFFFFFFFFFFFFFFFFFFFFFFFFFFF AND DUP2 MSTORE PUSH1 0x20 ADD SWAP1 DUP2 MSTORE PUSH1 0x20 ADD PUSH1 0x0 KECCAK256 PUSH1 0x0 ADD PUSH1 0x1 ADD SWAP1 DUP1 MLOAD SWAP1 PUSH1 0x20 ADD SWAP1 PUSH2 0xC10 SWAP3 SWAP2 SWAP1 PUSH2 0x2573 JUMP JUMPDEST POP CALLER PUSH1 0x0 DUP1 CALLER PUSH20 0xFFFFFFFFFFFFFFFFFFFFFFFFFFFFFFFFFFFFFFFF AND PUSH20 0xFFFFFFFFFFFFFFFFFFFFFFFFFFFFFFFFFFFFFFFF AND DUP2 MSTORE PUSH1 0x20 ADD SWAP1 DUP2 MSTORE PUSH1 0x20 ADD PUSH1 0x0 KECCAK256 PUSH1 0x0 ADD PUSH1 0x2 ADD PUSH1 0x0 PUSH2 0x100 EXP DUP2 SLOAD DUP2 PUSH20 0xFFFFFFFFFFFFFFFFFFFFFFFFFFFFFFFFFFFFFFFF MUL NOT AND SWAP1 DUP4 PUSH20 0xFFFFFFFFFFFFFFFFFFFFFFFFFFFFFFFFFFFFFFFF AND MUL OR SWAP1 SSTORE POP TIMESTAMP PUSH1 0x0 DUP1 CALLER PUSH20 0xFFFFFFFFFFFFFFFFFFFFFFFFFFFFFFFFFFFFFFFF AND PUSH20 0xFFFFFFFFFFFFFFFFFFFFFFFFFFFFFFFFFFFFFFFF AND DUP2 MSTORE PUSH1 0x20 ADD SWAP1 DUP2 MSTORE PUSH1 0x20 ADD PUSH1 0x0 KECCAK256 PUSH1 0x0 ADD PUSH1 0x7 ADD DUP2 SWAP1 SSTORE POP POP POP POP POP POP POP JUMP JUMPDEST PUSH1 0x0 DUP1 CALLER PUSH20 0xFFFFFFFFFFFFFFFFFFFFFFFFFFFFFFFFFFFFFFFF AND PUSH20 0xFFFFFFFFFFFFFFFFFFFFFFFFFFFFFFFFFFFFFFFF AND DUP2 MSTORE PUSH1 0x20 ADD SWAP1 DUP2 MSTORE PUSH1 0x20 ADD PUSH1 0x0 KECCAK256 PUSH1 0x0 ADD PUSH1 0x0 DUP1 DUP3 ADD PUSH1 0x0 PUSH2 0xD37 SWAP2 SWAP1 PUSH2 0x2533 JUMP JUMPDEST PUSH1 0x1 DUP3 ADD PUSH1 0x0 PUSH2 0xD47 SWAP2 SWAP1 PUSH2 0x2533 JUMP JUMPDEST PUSH1 0x2 DUP3 ADD PUSH1 0x0 PUSH2 0x100 EXP DUP2 SLOAD SWAP1 PUSH20 0xFFFFFFFFFFFFFFFFFFFFFFFFFFFFFFFFFFFFFFFF MUL NOT AND SWAP1 SSTORE PUSH1 0x3 DUP3 ADD PUSH1 0x0 PUSH2 0xD7E SWAP2 SWAP1 PUSH2 0x2533 JUMP JUMPDEST PUSH1 0x4 DUP3 ADD PUSH1 0x0 PUSH2 0xD8E SWAP2 SWAP1 PUSH2 0x2533 JUMP JUMPDEST PUSH1 0x5 DUP3 ADD PUSH1 0x0 PUSH2 0xD9E SWAP2 SWAP1 PUSH2 0x2533 JUMP JUMPDEST PUSH1 0x6 DUP3 ADD PUSH1 0x0 PUSH2 0xDAE SWAP2 SWAP1 PUSH2 0x2533 JUMP JUMPDEST PUSH1 0x7 DUP3 ADD PUSH1 0x0 SWAP1 SSTORE POP POP JUMP JUMPDEST PUSH1 0x0 PUSH1 0x20 MSTORE DUP1 PUSH1 0x0 MSTORE PUSH1 0x40 PUSH1 0x0 KECCAK256 PUSH1 0x0 SWAP2 POP SWAP1 POP DUP1 PUSH1 0x0 ADD PUSH1 0x40 MLOAD DUP1 PUSH2 0x100 ADD PUSH1 0x40 MSTORE SWAP1 DUP2 PUSH1 0x0 DUP3 ADD DUP1 SLOAD PUSH2 0xDEE SWAP1 PUSH2 0x3399 JUMP JUMPDEST DUP1 PUSH1 0x1F ADD PUSH1 0x20 DUP1 SWAP2 DIV MUL PUSH1 0x20 ADD PUSH1 0x40 MLOAD SWAP1 DUP2 ADD PUSH1 0x40 MSTORE DUP1 SWAP3 SWAP2 SWAP1 DUP2 DUP2 MSTORE PUSH1 0x20 ADD DUP3 DUP1 SLOAD PUSH2 0xE1A SWAP1 PUSH2 0x3399 JUMP JUMPDEST DUP1 ISZERO PUSH2 0xE67 JUMPI DUP1 PUSH1 0x1F LT PUSH2 0xE3C JUMPI PUSH2 0x100 DUP1 DUP4 SLOAD DIV MUL DUP4 MSTORE SWAP2 PUSH1 0x20 ADD SWAP2 PUSH2 0xE67 JUMP JUMPDEST DUP3 ADD SWAP2 SWAP1 PUSH1 0x0 MSTORE PUSH1 0x20 PUSH1 0x0 KECCAK256 SWAP1 JUMPDEST DUP2 SLOAD DUP2 MSTORE SWAP1 PUSH1 0x1 ADD SWAP1 PUSH1 0x20 ADD DUP1 DUP4 GT PUSH2 0xE4A JUMPI DUP3 SWAP1 SUB PUSH1 0x1F AND DUP3 ADD SWAP2 JUMPDEST POP POP POP POP POP DUP2 MSTORE PUSH1 0x20 ADD PUSH1 0x1 DUP3 ADD DUP1 SLOAD PUSH2 0xE80 SWAP1 PUSH2 0x3399 JUMP JUMPDEST DUP1 PUSH1 0x1F ADD PUSH1 0x20 DUP1 SWAP2 DIV MUL PUSH1 0x20 ADD PUSH1 0x40 MLOAD SWAP1 DUP2 ADD PUSH1 0x40 MSTORE DUP1 SWAP3 SWAP2 SWAP1 DUP2 DUP2 MSTORE PUSH1 0x20 ADD DUP3 DUP1 SLOAD PUSH2 0xEAC SWAP1 PUSH2 0x3399 JUMP JUMPDEST DUP1 ISZERO PUSH2 0xEF9 JUMPI DUP1 PUSH1 0x1F LT PUSH2 0xECE JUMPI PUSH2 0x100 DUP1 DUP4 SLOAD DIV MUL DUP4 MSTORE SWAP2 PUSH1 0x20 ADD SWAP2 PUSH2 0xEF9 JUMP JUMPDEST DUP3 ADD SWAP2 SWAP1 PUSH1 0x0 MSTORE PUSH1 0x20 PUSH1 0x0 KECCAK256 SWAP1 JUMPDEST DUP2 SLOAD DUP2 MSTORE SWAP1 PUSH1 0x1 ADD SWAP1 PUSH1 0x20 ADD DUP1 DUP4 GT PUSH2 0xEDC JUMPI DUP3 SWAP1 SUB PUSH1 0x1F AND DUP3 ADD SWAP2 JUMPDEST POP POP POP POP POP DUP2 MSTORE PUSH1 0x20 ADD PUSH1 0x2 DUP3 ADD PUSH1 0x0 SWAP1 SLOAD SWAP1 PUSH2 0x100 EXP SWAP1 DIV PUSH20 0xFFFFFFFFFFFFFFFFFFFFFFFFFFFFFFFFFFFFFFFF AND PUSH20 0xFFFFFFFFFFFFFFFFFFFFFFFFFFFFFFFFFFFFFFFF AND PUSH20 0xFFFFFFFFFFFFFFFFFFFFFFFFFFFFFFFFFFFFFFFF AND DUP2 MSTORE PUSH1 0x20 ADD PUSH1 0x3 DUP3 ADD DUP1 SLOAD PUSH2 0xF68 SWAP1 PUSH2 0x3399 JUMP JUMPDEST DUP1 PUSH1 0x1F ADD PUSH1 0x20 DUP1 SWAP2 DIV MUL PUSH1 0x20 ADD PUSH1 0x40 MLOAD SWAP1 DUP2 ADD PUSH1 0x40 MSTORE DUP1 SWAP3 SWAP2 SWAP1 DUP2 DUP2 MSTORE PUSH1 0x20 ADD DUP3 DUP1 SLOAD PUSH2 0xF94 SWAP1 PUSH2 0x3399 JUMP JUMPDEST DUP1 ISZERO PUSH2 0xFE1 JUMPI DUP1 PUSH1 0x1F LT PUSH2 0xFB6 JUMPI PUSH2 0x100 DUP1 DUP4 SLOAD DIV MUL DUP4 MSTORE SWAP2 PUSH1 0x20 ADD SWAP2 PUSH2 0xFE1 JUMP JUMPDEST DUP3 ADD SWAP2 SWAP1 PUSH1 0x0 MSTORE PUSH1 0x20 PUSH1 0x0 KECCAK256 SWAP1 JUMPDEST DUP2 SLOAD DUP2 MSTORE SWAP1 PUSH1 0x1 ADD SWAP1 PUSH1 0x20 ADD DUP1 DUP4 GT PUSH2 0xFC4 JUMPI DUP3 SWAP1 SUB PUSH1 0x1F AND DUP3 ADD SWAP2 JUMPDEST POP POP POP POP POP DUP2 MSTORE PUSH1 0x20 ADD PUSH1 0x4 DUP3 ADD DUP1 SLOAD PUSH2 0xFFA SWAP1 PUSH2 0x3399 JUMP JUMPDEST DUP1 PUSH1 0x1F ADD PUSH1 0x20 DUP1 SWAP2 DIV MUL PUSH1 0x20 ADD PUSH1 0x40 MLOAD SWAP1 DUP2 ADD PUSH1 0x40 MSTORE DUP1 SWAP3 SWAP2 SWAP1 DUP2 DUP2 MSTORE PUSH1 0x20 ADD DUP3 DUP1 SLOAD PUSH2 0x1026 SWAP1 PUSH2 0x3399 JUMP JUMPDEST DUP1 ISZERO PUSH2 0x1073 JUMPI DUP1 PUSH1 0x1F LT PUSH2 0x1048 JUMPI PUSH2 0x100 DUP1 DUP4 SLOAD DIV MUL DUP4 MSTORE SWAP2 PUSH1 0x20 ADD SWAP2 PUSH2 0x1073 JUMP JUMPDEST DUP3 ADD SWAP2 SWAP1 PUSH1 0x0 MSTORE PUSH1 0x20 PUSH1 0x0 KECCAK256 SWAP1 JUMPDEST DUP2 SLOAD DUP2 MSTORE SWAP1 PUSH1 0x1 ADD SWAP1 PUSH1 0x20 ADD DUP1 DUP4 GT PUSH2 0x1056 JUMPI DUP3 SWAP1 SUB PUSH1 0x1F AND DUP3 ADD SWAP2 JUMPDEST POP POP POP POP POP DUP2 MSTORE PUSH1 0x20 ADD PUSH1 0x5 DUP3 ADD DUP1 SLOAD PUSH2 0x108C SWAP1 PUSH2 0x3399 JUMP JUMPDEST DUP1 PUSH1 0x1F ADD PUSH1 0x20 DUP1 SWAP2 DIV MUL PUSH1 0x20 ADD PUSH1 0x40 MLOAD SWAP1 DUP2 ADD PUSH1 0x40 MSTORE DUP1 SWAP3 SWAP2 SWAP1 DUP2 DUP2 MSTORE PUSH1 0x20 ADD DUP3 DUP1 SLOAD PUSH2 0x10B8 SWAP1 PUSH2 0x3399 JUMP JUMPDEST DUP1 ISZERO PUSH2 0x1105 JUMPI DUP1 PUSH1 0x1F LT PUSH2 0x10DA JUMPI PUSH2 0x100 DUP1 DUP4 SLOAD DIV MUL DUP4 MSTORE SWAP2 PUSH1 0x20 ADD SWAP2 PUSH2 0x1105 JUMP JUMPDEST DUP3 ADD SWAP2 SWAP1 PUSH1 0x0 MSTORE PUSH1 0x20 PUSH1 0x0 KECCAK256 SWAP1 JUMPDEST DUP2 SLOAD DUP2 MSTORE SWAP1 PUSH1 0x1 ADD SWAP1 PUSH1 0x20 ADD DUP1 DUP4 GT PUSH2 0x10E8 JUMPI DUP3 SWAP1 SUB PUSH1 0x1F AND DUP3 ADD SWAP2 JUMPDEST POP POP POP POP POP DUP2 MSTORE PUSH1 0x20 ADD PUSH1 0x6 DUP3 ADD DUP1 SLOAD PUSH2 0x111E SWAP1 PUSH2 0x3399 JUMP JUMPDEST DUP1 PUSH1 0x1F ADD PUSH1 0x20 DUP1 SWAP2 DIV MUL PUSH1 0x20 ADD PUSH1 0x40 MLOAD SWAP1 DUP2 ADD PUSH1 0x40 MSTORE DUP1 SWAP3 SWAP2 SWAP1 DUP2 DUP2 MSTORE PUSH1 0x20 ADD DUP3 DUP1 SLOAD PUSH2 0x114A SWAP1 PUSH2 0x3399 JUMP JUMPDEST DUP1 ISZERO PUSH2 0x1197 JUMPI DUP1 PUSH1 0x1F LT PUSH2 0x116C JUMPI PUSH2 0x100 DUP1 DUP4 SLOAD DIV MUL DUP4 MSTORE SWAP2 PUSH1 0x20 ADD SWAP2 PUSH2 0x1197 JUMP JUMPDEST DUP3 ADD SWAP2 SWAP1 PUSH1 0x0 MSTORE PUSH1 0x20 PUSH1 0x0 KECCAK256 SWAP1 JUMPDEST DUP2 SLOAD DUP2 MSTORE SWAP1 PUSH1 0x1 ADD SWAP1 PUSH1 0x20 ADD DUP1 DUP4 GT PUSH2 0x117A JUMPI DUP3 SWAP1 SUB PUSH1 0x1F AND DUP3 ADD SWAP2 JUMPDEST POP POP POP POP POP DUP2 MSTORE PUSH1 0x20 ADD PUSH1 0x7 DUP3 ADD SLOAD DUP2 MSTORE POP POP SWAP1 DUP1 PUSH1 0x8 ADD PUSH1 0x40 MLOAD DUP1 PUSH1 0xC0 ADD PUSH1 0x40 MSTORE SWAP1 DUP2 PUSH1 0x0 DUP3 ADD DUP1 SLOAD PUSH2 0x11CA SWAP1 PUSH2 0x3399 JUMP JUMPDEST DUP1 PUSH1 0x1F ADD PUSH1 0x20 DUP1 SWAP2 DIV MUL PUSH1 0x20 ADD PUSH1 0x40 MLOAD SWAP1 DUP2 ADD PUSH1 0x40 MSTORE DUP1 SWAP3 SWAP2 SWAP1 DUP2 DUP2 MSTORE PUSH1 0x20 ADD DUP3 DUP1 SLOAD PUSH2 0x11F6 SWAP1 PUSH2 0x3399 JUMP JUMPDEST DUP1 ISZERO PUSH2 0x1243 JUMPI DUP1 PUSH1 0x1F LT PUSH2 0x1218 JUMPI PUSH2 0x100 DUP1 DUP4 SLOAD DIV MUL DUP4 MSTORE SWAP2 PUSH1 0x20 ADD SWAP2 PUSH2 0x1243 JUMP JUMPDEST DUP3 ADD SWAP2 SWAP1 PUSH1 0x0 MSTORE PUSH1 0x20 PUSH1 0x0 KECCAK256 SWAP1 JUMPDEST DUP2 SLOAD DUP2 MSTORE SWAP1 PUSH1 0x1 ADD SWAP1 PUSH1 0x20 ADD DUP1 DUP4 GT PUSH2 0x1226 JUMPI DUP3 SWAP1 SUB PUSH1 0x1F AND DUP3 ADD SWAP2 JUMPDEST POP POP POP POP POP DUP2 MSTORE PUSH1 0x20 ADD PUSH1 0x1 DUP3 ADD DUP1 SLOAD PUSH2 0x125C SWAP1 PUSH2 0x3399 JUMP JUMPDEST DUP1 PUSH1 0x1F ADD PUSH1 0x20 DUP1 SWAP2 DIV MUL PUSH1 0x20 ADD PUSH1 0x40 MLOAD SWAP1 DUP2 ADD PUSH1 0x40 MSTORE DUP1 SWAP3 SWAP2 SWAP1 DUP2 DUP2 MSTORE PUSH1 0x20 ADD DUP3 DUP1 SLOAD PUSH2 0x1288 SWAP1 PUSH2 0x3399 JUMP JUMPDEST DUP1 ISZERO PUSH2 0x12D5 JUMPI DUP1 PUSH1 0x1F LT PUSH2 0x12AA JUMPI PUSH2 0x100 DUP1 DUP4 SLOAD DIV MUL DUP4 MSTORE SWAP2 PUSH1 0x20 ADD SWAP2 PUSH2 0x12D5 JUMP JUMPDEST DUP3 ADD SWAP2 SWAP1 PUSH1 0x0 MSTORE PUSH1 0x20 PUSH1 0x0 KECCAK256 SWAP1 JUMPDEST DUP2 SLOAD DUP2 MSTORE SWAP1 PUSH1 0x1 ADD SWAP1 PUSH1 0x20 ADD DUP1 DUP4 GT PUSH2 0x12B8 JUMPI DUP3 SWAP1 SUB PUSH1 0x1F AND DUP3 ADD SWAP2 JUMPDEST POP POP POP POP POP DUP2 MSTORE PUSH1 0x20 ADD PUSH1 0x2 DUP3 ADD DUP1 SLOAD PUSH2 0x12EE SWAP1 PUSH2 0x3399 JUMP JUMPDEST DUP1 PUSH1 0x1F ADD PUSH1 0x20 DUP1 SWAP2 DIV MUL PUSH1 0x20 ADD PUSH1 0x40 MLOAD SWAP1 DUP2 ADD PUSH1 0x40 MSTORE DUP1 SWAP3 SWAP2 SWAP1 DUP2 DUP2 MSTORE PUSH1 0x20 ADD DUP3 DUP1 SLOAD PUSH2 0x131A SWAP1 PUSH2 0x3399 JUMP JUMPDEST DUP1 ISZERO PUSH2 0x1367 JUMPI DUP1 PUSH1 0x1F LT PUSH2 0x133C JUMPI PUSH2 0x100 DUP1 DUP4 SLOAD DIV MUL DUP4 MSTORE SWAP2 PUSH1 0x20 ADD SWAP2 PUSH2 0x1367 JUMP JUMPDEST DUP3 ADD SWAP2 SWAP1 PUSH1 0x0 MSTORE PUSH1 0x20 PUSH1 0x0 KECCAK256 SWAP1 JUMPDEST DUP2 SLOAD DUP2 MSTORE SWAP1 PUSH1 0x1 ADD SWAP1 PUSH1 0x20 ADD DUP1 DUP4 GT PUSH2 0x134A JUMPI DUP3 SWAP1 SUB PUSH1 0x1F AND DUP3 ADD SWAP2 JUMPDEST POP POP POP POP POP DUP2 MSTORE PUSH1 0x20 ADD PUSH1 0x3 DUP3 ADD DUP1 SLOAD PUSH2 0x1380 SWAP1 PUSH2 0x3399 JUMP JUMPDEST DUP1 PUSH1 0x1F ADD PUSH1 0x20 DUP1 SWAP2 DIV MUL PUSH1 0x20 ADD PUSH1 0x40 MLOAD SWAP1 DUP2 ADD PUSH1 0x40 MSTORE DUP1 SWAP3 SWAP2 SWAP1 DUP2 DUP2 MSTORE PUSH1 0x20 ADD DUP3 DUP1 SLOAD PUSH2 0x13AC SWAP1 PUSH2 0x3399 JUMP JUMPDEST DUP1 ISZERO PUSH2 0x13F9 JUMPI DUP1 PUSH1 0x1F LT PUSH2 0x13CE JUMPI PUSH2 0x100 DUP1 DUP4 SLOAD DIV MUL DUP4 MSTORE SWAP2 PUSH1 0x20 ADD SWAP2 PUSH2 0x13F9 JUMP JUMPDEST DUP3 ADD SWAP2 SWAP1 PUSH1 0x0 MSTORE PUSH1 0x20 PUSH1 0x0 KECCAK256 SWAP1 JUMPDEST DUP2 SLOAD DUP2 MSTORE SWAP1 PUSH1 0x1 ADD SWAP1 PUSH1 0x20 ADD DUP1 DUP4 GT PUSH2 0x13DC JUMPI DUP3 SWAP1 SUB PUSH1 0x1F AND DUP3 ADD SWAP2 JUMPDEST POP POP POP POP POP DUP2 MSTORE PUSH1 0x20 ADD PUSH1 0x4 DUP3 ADD DUP1 SLOAD PUSH2 0x1412 SWAP1 PUSH2 0x3399 JUMP JUMPDEST DUP1 PUSH1 0x1F ADD PUSH1 0x20 DUP1 SWAP2 DIV MUL PUSH1 0x20 ADD PUSH1 0x40 MLOAD SWAP1 DUP2 ADD PUSH1 0x40 MSTORE DUP1 SWAP3 SWAP2 SWAP1 DUP2 DUP2 MSTORE PUSH1 0x20 ADD DUP3 DUP1 SLOAD PUSH2 0x143E SWAP1 PUSH2 0x3399 JUMP JUMPDEST DUP1 ISZERO PUSH2 0x148B JUMPI DUP1 PUSH1 0x1F LT PUSH2 0x1460 JUMPI PUSH2 0x100 DUP1 DUP4 SLOAD DIV MUL DUP4 MSTORE SWAP2 PUSH1 0x20 ADD SWAP2 PUSH2 0x148B JUMP JUMPDEST DUP3 ADD SWAP2 SWAP1 PUSH1 0x0 MSTORE PUSH1 0x20 PUSH1 0x0 KECCAK256 SWAP1 JUMPDEST DUP2 SLOAD DUP2 MSTORE SWAP1 PUSH1 0x1 ADD SWAP1 PUSH1 0x20 ADD DUP1 DUP4 GT PUSH2 0x146E JUMPI DUP3 SWAP1 SUB PUSH1 0x1F AND DUP3 ADD SWAP2 JUMPDEST POP POP POP POP POP DUP2 MSTORE PUSH1 0x20 ADD PUSH1 0x5 DUP3 ADD DUP1 SLOAD PUSH2 0x14A4 SWAP1 PUSH2 0x3399 JUMP JUMPDEST DUP1 PUSH1 0x1F ADD PUSH1 0x20 DUP1 SWAP2 DIV MUL PUSH1 0x20 ADD PUSH1 0x40 MLOAD SWAP1 DUP2 ADD PUSH1 0x40 MSTORE DUP1 SWAP3 SWAP2 SWAP1 DUP2 DUP2 MSTORE PUSH1 0x20 ADD DUP3 DUP1 SLOAD PUSH2 0x14D0 SWAP1 PUSH2 0x3399 JUMP JUMPDEST DUP1 ISZERO PUSH2 0x151D JUMPI DUP1 PUSH1 0x1F LT PUSH2 0x14F2 JUMPI PUSH2 0x100 DUP1 DUP4 SLOAD DIV MUL DUP4 MSTORE SWAP2 PUSH1 0x20 ADD SWAP2 PUSH2 0x151D JUMP JUMPDEST DUP3 ADD SWAP2 SWAP1 PUSH1 0x0 MSTORE PUSH1 0x20 PUSH1 0x0 KECCAK256 SWAP1 JUMPDEST DUP2 SLOAD DUP2 MSTORE SWAP1 PUSH1 0x1 ADD SWAP1 PUSH1 0x20 ADD DUP1 DUP4 GT PUSH2 0x1500 JUMPI DUP3 SWAP1 SUB PUSH1 0x1F AND DUP3 ADD SWAP2 JUMPDEST POP POP POP POP POP DUP2 MSTORE POP POP SWAP1 DUP1 PUSH1 0xE ADD PUSH1 0x40 MLOAD DUP1 PUSH1 0x60 ADD PUSH1 0x40 MSTORE SWAP1 DUP2 PUSH1 0x0 DUP3 ADD DUP1 SLOAD DUP1 PUSH1 0x20 MUL PUSH1 0x20 ADD PUSH1 0x40 MLOAD SWAP1 DUP2 ADD PUSH1 0x40 MSTORE DUP1 SWAP3 SWAP2 SWAP1 DUP2 DUP2 MSTORE PUSH1 0x20 ADD PUSH1 0x0 SWAP1 JUMPDEST DUP3 DUP3 LT ISZERO PUSH2 0x1607 JUMPI DUP4 DUP3 SWAP1 PUSH1 0x0 MSTORE PUSH1 0x20 PUSH1 0x0 KECCAK256 ADD DUP1 SLOAD PUSH2 0x157A SWAP1 PUSH2 0x3399 JUMP JUMPDEST DUP1 PUSH1 0x1F ADD PUSH1 0x20 DUP1 SWAP2 DIV MUL PUSH1 0x20 ADD PUSH1 0x40 MLOAD SWAP1 DUP2 ADD PUSH1 0x40 MSTORE DUP1 SWAP3 SWAP2 SWAP1 DUP2 DUP2 MSTORE PUSH1 0x20 ADD DUP3 DUP1 SLOAD PUSH2 0x15A6 SWAP1 PUSH2 0x3399 JUMP JUMPDEST DUP1 ISZERO PUSH2 0x15F3 JUMPI DUP1 PUSH1 0x1F LT PUSH2 0x15C8 JUMPI PUSH2 0x100 DUP1 DUP4 SLOAD DIV MUL DUP4 MSTORE SWAP2 PUSH1 0x20 ADD SWAP2 PUSH2 0x15F3 JUMP JUMPDEST DUP3 ADD SWAP2 SWAP1 PUSH1 0x0 MSTORE PUSH1 0x20 PUSH1 0x0 KECCAK256 SWAP1 JUMPDEST DUP2 SLOAD DUP2 MSTORE SWAP1 PUSH1 0x1 ADD SWAP1 PUSH1 0x20 ADD DUP1 DUP4 GT PUSH2 0x15D6 JUMPI DUP3 SWAP1 SUB PUSH1 0x1F AND DUP3 ADD SWAP2 JUMPDEST POP POP POP POP POP DUP2 MSTORE PUSH1 0x20 ADD SWAP1 PUSH1 0x1 ADD SWAP1 PUSH2 0x155B JUMP JUMPDEST POP POP POP POP DUP2 MSTORE PUSH1 0x20 ADD PUSH1 0x1 DUP3 ADD DUP1 SLOAD DUP1 PUSH1 0x20 MUL PUSH1 0x20 ADD PUSH1 0x40 MLOAD SWAP1 DUP2 ADD PUSH1 0x40 MSTORE DUP1 SWAP3 SWAP2 SWAP1 DUP2 DUP2 MSTORE PUSH1 0x20 ADD PUSH1 0x0 SWAP1 JUMPDEST DUP3 DUP3 LT ISZERO PUSH2 0x16E0 JUMPI DUP4 DUP3 SWAP1 PUSH1 0x0 MSTORE PUSH1 0x20 PUSH1 0x0 KECCAK256 ADD DUP1 SLOAD PUSH2 0x1653 SWAP1 PUSH2 0x3399 JUMP JUMPDEST DUP1 PUSH1 0x1F ADD PUSH1 0x20 DUP1 SWAP2 DIV MUL PUSH1 0x20 ADD PUSH1 0x40 MLOAD SWAP1 DUP2 ADD PUSH1 0x40 MSTORE DUP1 SWAP3 SWAP2 SWAP1 DUP2 DUP2 MSTORE PUSH1 0x20 ADD DUP3 DUP1 SLOAD PUSH2 0x167F SWAP1 PUSH2 0x3399 JUMP JUMPDEST DUP1 ISZERO PUSH2 0x16CC JUMPI DUP1 PUSH1 0x1F LT PUSH2 0x16A1 JUMPI PUSH2 0x100 DUP1 DUP4 SLOAD DIV MUL DUP4 MSTORE SWAP2 PUSH1 0x20 ADD SWAP2 PUSH2 0x16CC JUMP JUMPDEST DUP3 ADD SWAP2 SWAP1 PUSH1 0x0 MSTORE PUSH1 0x20 PUSH1 0x0 KECCAK256 SWAP1 JUMPDEST DUP2 SLOAD DUP2 MSTORE SWAP1 PUSH1 0x1 ADD SWAP1 PUSH1 0x20 ADD DUP1 DUP4 GT PUSH2 0x16AF JUMPI DUP3 SWAP1 SUB PUSH1 0x1F AND DUP3 ADD SWAP2 JUMPDEST POP POP POP POP POP DUP2 MSTORE PUSH1 0x20 ADD SWAP1 PUSH1 0x1 ADD SWAP1 PUSH2 0x1634 JUMP JUMPDEST POP POP POP POP DUP2 MSTORE PUSH1 0x20 ADD PUSH1 0x2 DUP3 ADD DUP1 SLOAD DUP1 PUSH1 0x20 MUL PUSH1 0x20 ADD PUSH1 0x40 MLOAD SWAP1 DUP2 ADD PUSH1 0x40 MSTORE DUP1 SWAP3 SWAP2 SWAP1 DUP2 DUP2 MSTORE PUSH1 0x20 ADD PUSH1 0x0 SWAP1 JUMPDEST DUP3 DUP3 LT ISZERO PUSH2 0x17B9 JUMPI DUP4 DUP3 SWAP1 PUSH1 0x0 MSTORE PUSH1 0x20 PUSH1 0x0 KECCAK256 ADD DUP1 SLOAD PUSH2 0x172C SWAP1 PUSH2 0x3399 JUMP JUMPDEST DUP1 PUSH1 0x1F ADD PUSH1 0x20 DUP1 SWAP2 DIV MUL PUSH1 0x20 ADD PUSH1 0x40 MLOAD SWAP1 DUP2 ADD PUSH1 0x40 MSTORE DUP1 SWAP3 SWAP2 SWAP1 DUP2 DUP2 MSTORE PUSH1 0x20 ADD DUP3 DUP1 SLOAD PUSH2 0x1758 SWAP1 PUSH2 0x3399 JUMP JUMPDEST DUP1 ISZERO PUSH2 0x17A5 JUMPI DUP1 PUSH1 0x1F LT PUSH2 0x177A JUMPI PUSH2 0x100 DUP1 DUP4 SLOAD DIV MUL DUP4 MSTORE SWAP2 PUSH1 0x20 ADD SWAP2 PUSH2 0x17A5 JUMP JUMPDEST DUP3 ADD SWAP2 SWAP1 PUSH1 0x0 MSTORE PUSH1 0x20 PUSH1 0x0 KECCAK256 SWAP1 JUMPDEST DUP2 SLOAD DUP2 MSTORE SWAP1 PUSH1 0x1 ADD SWAP1 PUSH1 0x20 ADD DUP1 DUP4 GT PUSH2 0x1788 JUMPI DUP3 SWAP1 SUB PUSH1 0x1F AND DUP3 ADD SWAP2 JUMPDEST POP POP POP POP POP DUP2 MSTORE PUSH1 0x20 ADD SWAP1 PUSH1 0x1 ADD SWAP1 PUSH2 0x170D JUMP JUMPDEST POP POP POP POP DUP2 MSTORE POP POP SWAP1 DUP1 PUSH1 0x12 ADD PUSH1 0x40 MLOAD DUP1 PUSH1 0x40 ADD PUSH1 0x40 MSTORE SWAP1 DUP2 PUSH1 0x0 DUP3 ADD DUP1 SLOAD DUP1 PUSH1 0x20 MUL PUSH1 0x20 ADD PUSH1 0x40 MLOAD SWAP1 DUP2 ADD PUSH1 0x40 MSTORE DUP1 SWAP3 SWAP2 SWAP1 DUP2 DUP2 MSTORE PUSH1 0x20 ADD PUSH1 0x0 SWAP1 JUMPDEST DUP3 DUP3 LT ISZERO PUSH2 0x18A2 JUMPI DUP4 DUP3 SWAP1 PUSH1 0x0 MSTORE PUSH1 0x20 PUSH1 0x0 KECCAK256 ADD DUP1 SLOAD PUSH2 0x1815 SWAP1 PUSH2 0x3399 JUMP JUMPDEST DUP1 PUSH1 0x1F ADD PUSH1 0x20 DUP1 SWAP2 DIV MUL PUSH1 0x20 ADD PUSH1 0x40 MLOAD SWAP1 DUP2 ADD PUSH1 0x40 MSTORE DUP1 SWAP3 SWAP2 SWAP1 DUP2 DUP2 MSTORE PUSH1 0x20 ADD DUP3 DUP1 SLOAD PUSH2 0x1841 SWAP1 PUSH2 0x3399 JUMP JUMPDEST DUP1 ISZERO PUSH2 0x188E JUMPI DUP1 PUSH1 0x1F LT PUSH2 0x1863 JUMPI PUSH2 0x100 DUP1 DUP4 SLOAD DIV MUL DUP4 MSTORE SWAP2 PUSH1 0x20 ADD SWAP2 PUSH2 0x188E JUMP JUMPDEST DUP3 ADD SWAP2 SWAP1 PUSH1 0x0 MSTORE PUSH1 0x20 PUSH1 0x0 KECCAK256 SWAP1 JUMPDEST DUP2 SLOAD DUP2 MSTORE SWAP1 PUSH1 0x1 ADD SWAP1 PUSH1 0x20 ADD DUP1 DUP4 GT PUSH2 0x1871 JUMPI DUP3 SWAP1 SUB PUSH1 0x1F AND DUP3 ADD SWAP2 JUMPDEST POP POP POP POP POP DUP2 MSTORE PUSH1 0x20 ADD SWAP1 PUSH1 0x1 ADD SWAP1 PUSH2 0x17F6 JUMP JUMPDEST POP POP POP POP DUP2 MSTORE PUSH1 0x20 ADD PUSH1 0x1 DUP3 ADD DUP1 SLOAD DUP1 PUSH1 0x20 MUL PUSH1 0x20 ADD PUSH1 0x40 MLOAD SWAP1 DUP2 ADD PUSH1 0x40 MSTORE DUP1 SWAP3 SWAP2 SWAP1 DUP2 DUP2 MSTORE PUSH1 0x20 ADD PUSH1 0x0 SWAP1 JUMPDEST DUP3 DUP3 LT ISZERO PUSH2 0x197B JUMPI DUP4 DUP3 SWAP1 PUSH1 0x0 MSTORE PUSH1 0x20 PUSH1 0x0 KECCAK256 ADD DUP1 SLOAD PUSH2 0x18EE SWAP1 PUSH2 0x3399 JUMP JUMPDEST DUP1 PUSH1 0x1F ADD PUSH1 0x20 DUP1 SWAP2 DIV MUL PUSH1 0x20 ADD PUSH1 0x40 MLOAD SWAP1 DUP2 ADD PUSH1 0x40 MSTORE DUP1 SWAP3 SWAP2 SWAP1 DUP2 DUP2 MSTORE PUSH1 0x20 ADD DUP3 DUP1 SLOAD PUSH2 0x191A SWAP1 PUSH2 0x3399 JUMP JUMPDEST DUP1 ISZERO PUSH2 0x1967 JUMPI DUP1 PUSH1 0x1F LT PUSH2 0x193C JUMPI PUSH2 0x100 DUP1 DUP4 SLOAD DIV MUL DUP4 MSTORE SWAP2 PUSH1 0x20 ADD SWAP2 PUSH2 0x1967 JUMP JUMPDEST DUP3 ADD SWAP2 SWAP1 PUSH1 0x0 MSTORE PUSH1 0x20 PUSH1 0x0 KECCAK256 SWAP1 JUMPDEST DUP2 SLOAD DUP2 MSTORE SWAP1 PUSH1 0x1 ADD SWAP1 PUSH1 0x20 ADD DUP1 DUP4 GT PUSH2 0x194A JUMPI DUP3 SWAP1 SUB PUSH1 0x1F AND DUP3 ADD SWAP2 JUMPDEST POP POP POP POP POP DUP2 MSTORE PUSH1 0x20 ADD SWAP1 PUSH1 0x1 ADD SWAP1 PUSH2 0x18CF JUMP JUMPDEST POP POP POP POP DUP2 MSTORE POP POP SWAP1 DUP1 PUSH1 0x14 ADD PUSH1 0x40 MLOAD DUP1 PUSH1 0xA0 ADD PUSH1 0x40 MSTORE SWAP1 DUP2 PUSH1 0x0 DUP3 ADD DUP1 SLOAD PUSH2 0x19A3 SWAP1 PUSH2 0x3399 JUMP JUMPDEST DUP1 PUSH1 0x1F ADD PUSH1 0x20 DUP1 SWAP2 DIV MUL PUSH1 0x20 ADD PUSH1 0x40 MLOAD SWAP1 DUP2 ADD PUSH1 0x40 MSTORE DUP1 SWAP3 SWAP2 SWAP1 DUP2 DUP2 MSTORE PUSH1 0x20 ADD DUP3 DUP1 SLOAD PUSH2 0x19CF SWAP1 PUSH2 0x3399 JUMP JUMPDEST DUP1 ISZERO PUSH2 0x1A1C JUMPI DUP1 PUSH1 0x1F LT PUSH2 0x19F1 JUMPI PUSH2 0x100 DUP1 DUP4 SLOAD DIV MUL DUP4 MSTORE SWAP2 PUSH1 0x20 ADD SWAP2 PUSH2 0x1A1C JUMP JUMPDEST DUP3 ADD SWAP2 SWAP1 PUSH1 0x0 MSTORE PUSH1 0x20 PUSH1 0x0 KECCAK256 SWAP1 JUMPDEST DUP2 SLOAD DUP2 MSTORE SWAP1 PUSH1 0x1 ADD SWAP1 PUSH1 0x20 ADD DUP1 DUP4 GT PUSH2 0x19FF JUMPI DUP3 SWAP1 SUB PUSH1 0x1F AND DUP3 ADD SWAP2 JUMPDEST POP POP POP POP POP DUP2 MSTORE PUSH1 0x20 ADD PUSH1 0x1 DUP3 ADD DUP1 SLOAD PUSH2 0x1A35 SWAP1 PUSH2 0x3399 JUMP JUMPDEST DUP1 PUSH1 0x1F ADD PUSH1 0x20 DUP1 SWAP2 DIV MUL PUSH1 0x20 ADD PUSH1 0x40 MLOAD SWAP1 DUP2 ADD PUSH1 0x40 MSTORE DUP1 SWAP3 SWAP2 SWAP1 DUP2 DUP2 MSTORE PUSH1 0x20 ADD DUP3 DUP1 SLOAD PUSH2 0x1A61 SWAP1 PUSH2 0x3399 JUMP JUMPDEST DUP1 ISZERO PUSH2 0x1AAE JUMPI DUP1 PUSH1 0x1F LT PUSH2 0x1A83 JUMPI PUSH2 0x100 DUP1 DUP4 SLOAD DIV MUL DUP4 MSTORE SWAP2 PUSH1 0x20 ADD SWAP2 PUSH2 0x1AAE JUMP JUMPDEST DUP3 ADD SWAP2 SWAP1 PUSH1 0x0 MSTORE PUSH1 0x20 PUSH1 0x0 KECCAK256 SWAP1 JUMPDEST DUP2 SLOAD DUP2 MSTORE SWAP1 PUSH1 0x1 ADD SWAP1 PUSH1 0x20 ADD DUP1 DUP4 GT PUSH2 0x1A91 JUMPI DUP3 SWAP1 SUB PUSH1 0x1F AND DUP3 ADD SWAP2 JUMPDEST POP POP POP POP POP DUP2 MSTORE PUSH1 0x20 ADD PUSH1 0x2 DUP3 ADD DUP1 SLOAD PUSH2 0x1AC7 SWAP1 PUSH2 0x3399 JUMP JUMPDEST DUP1 PUSH1 0x1F ADD PUSH1 0x20 DUP1 SWAP2 DIV MUL PUSH1 0x20 ADD PUSH1 0x40 MLOAD SWAP1 DUP2 ADD PUSH1 0x40 MSTORE DUP1 SWAP3 SWAP2 SWAP1 DUP2 DUP2 MSTORE PUSH1 0x20 ADD DUP3 DUP1 SLOAD PUSH2 0x1AF3 SWAP1 PUSH2 0x3399 JUMP JUMPDEST DUP1 ISZERO PUSH2 0x1B40 JUMPI DUP1 PUSH1 0x1F LT PUSH2 0x1B15 JUMPI PUSH2 0x100 DUP1 DUP4 SLOAD DIV MUL DUP4 MSTORE SWAP2 PUSH1 0x20 ADD SWAP2 PUSH2 0x1B40 JUMP JUMPDEST DUP3 ADD SWAP2 SWAP1 PUSH1 0x0 MSTORE PUSH1 0x20 PUSH1 0x0 KECCAK256 SWAP1 JUMPDEST DUP2 SLOAD DUP2 MSTORE SWAP1 PUSH1 0x1 ADD SWAP1 PUSH1 0x20 ADD DUP1 DUP4 GT PUSH2 0x1B23 JUMPI DUP3 SWAP1 SUB PUSH1 0x1F AND DUP3 ADD SWAP2 JUMPDEST POP POP POP POP POP DUP2 MSTORE PUSH1 0x20 ADD PUSH1 0x3 DUP3 ADD DUP1 SLOAD PUSH2 0x1B59 SWAP1 PUSH2 0x3399 JUMP JUMPDEST DUP1 PUSH1 0x1F ADD PUSH1 0x20 DUP1 SWAP2 DIV MUL PUSH1 0x20 ADD PUSH1 0x40 MLOAD SWAP1 DUP2 ADD PUSH1 0x40 MSTORE DUP1 SWAP3 SWAP2 SWAP1 DUP2 DUP2 MSTORE PUSH1 0x20 ADD DUP3 DUP1 SLOAD PUSH2 0x1B85 SWAP1 PUSH2 0x3399 JUMP JUMPDEST DUP1 ISZERO PUSH2 0x1BD2 JUMPI DUP1 PUSH1 0x1F LT PUSH2 0x1BA7 JUMPI PUSH2 0x100 DUP1 DUP4 SLOAD DIV MUL DUP4 MSTORE SWAP2 PUSH1 0x20 ADD SWAP2 PUSH2 0x1BD2 JUMP JUMPDEST DUP3 ADD SWAP2 SWAP1 PUSH1 0x0 MSTORE PUSH1 0x20 PUSH1 0x0 KECCAK256 SWAP1 JUMPDEST DUP2 SLOAD DUP2 MSTORE SWAP1 PUSH1 0x1 ADD SWAP1 PUSH1 0x20 ADD DUP1 DUP4 GT PUSH2 0x1BB5 JUMPI DUP3 SWAP1 SUB PUSH1 0x1F AND DUP3 ADD SWAP2 JUMPDEST POP POP POP POP POP DUP2 MSTORE PUSH1 0x20 ADD PUSH1 0x4 DUP3 ADD DUP1 SLOAD DUP1 PUSH1 0x20 MUL PUSH1 0x20 ADD PUSH1 0x40 MLOAD SWAP1 DUP2 ADD PUSH1 0x40 MSTORE DUP1 SWAP3 SWAP2 SWAP1 DUP2 DUP2 MSTORE PUSH1 0x20 ADD PUSH1 0x0 SWAP1 JUMPDEST DUP3 DUP3 LT ISZERO PUSH2 0x1CAC JUMPI DUP4 DUP3 SWAP1 PUSH1 0x0 MSTORE PUSH1 0x20 PUSH1 0x0 KECCAK256 ADD DUP1 SLOAD PUSH2 0x1C1F SWAP1 PUSH2 0x3399 JUMP JUMPDEST DUP1 PUSH1 0x1F ADD PUSH1 0x20 DUP1 SWAP2 DIV MUL PUSH1 0x20 ADD PUSH1 0x40 MLOAD SWAP1 DUP2 ADD PUSH1 0x40 MSTORE DUP1 SWAP3 SWAP2 SWAP1 DUP2 DUP2 MSTORE PUSH1 0x20 ADD DUP3 DUP1 SLOAD PUSH2 0x1C4B SWAP1 PUSH2 0x3399 JUMP JUMPDEST DUP1 ISZERO PUSH2 0x1C98 JUMPI DUP1 PUSH1 0x1F LT PUSH2 0x1C6D JUMPI PUSH2 0x100 DUP1 DUP4 SLOAD DIV MUL DUP4 MSTORE SWAP2 PUSH1 0x20 ADD SWAP2 PUSH2 0x1C98 JUMP JUMPDEST DUP3 ADD SWAP2 SWAP1 PUSH1 0x0 MSTORE PUSH1 0x20 PUSH1 0x0 KECCAK256 SWAP1 JUMPDEST DUP2 SLOAD DUP2 MSTORE SWAP1 PUSH1 0x1 ADD SWAP1 PUSH1 0x20 ADD DUP1 DUP4 GT PUSH2 0x1C7B JUMPI DUP3 SWAP1 SUB PUSH1 0x1F AND DUP3 ADD SWAP2 JUMPDEST POP POP POP POP POP DUP2 MSTORE PUSH1 0x20 ADD SWAP1 PUSH1 0x1 ADD SWAP1 PUSH2 0x1C00 JUMP JUMPDEST POP POP POP POP DUP2 MSTORE POP POP SWAP1 DUP1 PUSH1 0x19 ADD PUSH1 0x40 MLOAD DUP1 PUSH1 0x40 ADD PUSH1 0x40 MSTORE SWAP1 DUP2 PUSH1 0x0 DUP3 ADD DUP1 SLOAD PUSH2 0x1CD4 SWAP1 PUSH2 0x3399 JUMP JUMPDEST DUP1 PUSH1 0x1F ADD PUSH1 0x20 DUP1 SWAP2 DIV MUL PUSH1 0x20 ADD PUSH1 0x40 MLOAD SWAP1 DUP2 ADD PUSH1 0x40 MSTORE DUP1 SWAP3 SWAP2 SWAP1 DUP2 DUP2 MSTORE PUSH1 0x20 ADD DUP3 DUP1 SLOAD PUSH2 0x1D00 SWAP1 PUSH2 0x3399 JUMP JUMPDEST DUP1 ISZERO PUSH2 0x1D4D JUMPI DUP1 PUSH1 0x1F LT PUSH2 0x1D22 JUMPI PUSH2 0x100 DUP1 DUP4 SLOAD DIV MUL DUP4 MSTORE SWAP2 PUSH1 0x20 ADD SWAP2 PUSH2 0x1D4D JUMP JUMPDEST DUP3 ADD SWAP2 SWAP1 PUSH1 0x0 MSTORE PUSH1 0x20 PUSH1 0x0 KECCAK256 SWAP1 JUMPDEST DUP2 SLOAD DUP2 MSTORE SWAP1 PUSH1 0x1 ADD SWAP1 PUSH1 0x20 ADD DUP1 DUP4 GT PUSH2 0x1D30 JUMPI DUP3 SWAP1 SUB PUSH1 0x1F AND DUP3 ADD SWAP2 JUMPDEST POP POP POP POP POP DUP2 MSTORE PUSH1 0x20 ADD PUSH1 0x1 DUP3 ADD DUP1 SLOAD PUSH2 0x1D66 SWAP1 PUSH2 0x3399 JUMP JUMPDEST DUP1 PUSH1 0x1F ADD PUSH1 0x20 DUP1 SWAP2 DIV MUL PUSH1 0x20 ADD PUSH1 0x40 MLOAD SWAP1 DUP2 ADD PUSH1 0x40 MSTORE DUP1 SWAP3 SWAP2 SWAP1 DUP2 DUP2 MSTORE PUSH1 0x20 ADD DUP3 DUP1 SLOAD PUSH2 0x1D92 SWAP1 PUSH2 0x3399 JUMP JUMPDEST DUP1 ISZERO PUSH2 0x1DDF JUMPI DUP1 PUSH1 0x1F LT PUSH2 0x1DB4 JUMPI PUSH2 0x100 DUP1 DUP4 SLOAD DIV MUL DUP4 MSTORE SWAP2 PUSH1 0x20 ADD SWAP2 PUSH2 0x1DDF JUMP JUMPDEST DUP3 ADD SWAP2 SWAP1 PUSH1 0x0 MSTORE PUSH1 0x20 PUSH1 0x0 KECCAK256 SWAP1 JUMPDEST DUP2 SLOAD DUP2 MSTORE SWAP1 PUSH1 0x1 ADD SWAP1 PUSH1 0x20 ADD DUP1 DUP4 GT PUSH2 0x1DC2 JUMPI DUP3 SWAP1 SUB PUSH1 0x1F AND DUP3 ADD SWAP2 JUMPDEST POP POP POP POP POP DUP2 MSTORE POP POP SWAP1 POP DUP7 JUMP JUMPDEST PUSH1 0x0 DUP1 CALLER PUSH20 0xFFFFFFFFFFFFFFFFFFFFFFFFFFFFFFFFFFFFFFFF AND PUSH20 0xFFFFFFFFFFFFFFFFFFFFFFFFFFFFFFFFFFFFFFFF AND DUP2 MSTORE PUSH1 0x20 ADD SWAP1 DUP2 MSTORE PUSH1 0x20 ADD PUSH1 0x0 KECCAK256 PUSH1 0x11 ADD PUSH1 0x0 PUSH2 0x1E3A SWAP2 SWAP1 PUSH2 0x26A9 JUMP JUMPDEST JUMP JUMPDEST PUSH1 0x60 DUP1 PUSH1 0x60 DUP1 PUSH1 0x60 PUSH1 0x0 DUP1 CALLER PUSH20 0xFFFFFFFFFFFFFFFFFFFFFFFFFFFFFFFFFFFFFFFF AND PUSH20 0xFFFFFFFFFFFFFFFFFFFFFFFFFFFFFFFFFFFFFFFF AND DUP2 MSTORE PUSH1 0x20 ADD SWAP1 DUP2 MSTORE PUSH1 0x20 ADD PUSH1 0x0 KECCAK256 PUSH1 0x11 ADD DUP7 DUP2 SLOAD DUP2 LT PUSH2 0x1E97 JUMPI PUSH2 0x1E96 PUSH2 0x342B JUMP JUMPDEST JUMPDEST SWAP1 PUSH1 0x0 MSTORE PUSH1 0x20 PUSH1 0x0 KECCAK256 SWAP1 PUSH1 0x5 MUL ADD PUSH1 0x0 ADD PUSH1 0x0 DUP1 CALLER PUSH20 0xFFFFFFFFFFFFFFFFFFFFFFFFFFFFFFFFFFFFFFFF AND PUSH20 0xFFFFFFFFFFFFFFFFFFFFFFFFFFFFFFFFFFFFFFFF AND DUP2 MSTORE PUSH1 0x20 ADD SWAP1 DUP2 MSTORE PUSH1 0x20 ADD PUSH1 0x0 KECCAK256 PUSH1 0x11 ADD DUP8 DUP2 SLOAD DUP2 LT PUSH2 0x1EFB JUMPI PUSH2 0x1EFA PUSH2 0x342B JUMP JUMPDEST JUMPDEST SWAP1 PUSH1 0x0 MSTORE PUSH1 0x20 PUSH1 0x0 KECCAK256 SWAP1 PUSH1 0x5 MUL ADD PUSH1 0x1 ADD PUSH1 0x0 DUP1 CALLER PUSH20 0xFFFFFFFFFFFFFFFFFFFFFFFFFFFFFFFFFFFFFFFF AND PUSH20 0xFFFFFFFFFFFFFFFFFFFFFFFFFFFFFFFFFFFFFFFF AND DUP2 MSTORE PUSH1 0x20 ADD SWAP1 DUP2 MSTORE PUSH1 0x20 ADD PUSH1 0x0 KECCAK256 PUSH1 0x11 ADD DUP9 DUP2 SLOAD DUP2 LT PUSH2 0x1F5F JUMPI PUSH2 0x1F5E PUSH2 0x342B JUMP JUMPDEST JUMPDEST SWAP1 PUSH1 0x0 MSTORE PUSH1 0x20 PUSH1 0x0 KECCAK256 SWAP1 PUSH1 0x5 MUL ADD PUSH1 0x2 ADD PUSH1 0x0 DUP1 CALLER PUSH20 0xFFFFFFFFFFFFFFFFFFFFFFFFFFFFFFFFFFFFFFFF AND PUSH20 0xFFFFFFFFFFFFFFFFFFFFFFFFFFFFFFFFFFFFFFFF AND DUP2 MSTORE PUSH1 0x20 ADD SWAP1 DUP2 MSTORE PUSH1 0x20 ADD PUSH1 0x0 KECCAK256 PUSH1 0x11 ADD DUP10 DUP2 SLOAD DUP2 LT PUSH2 0x1FC3 JUMPI PUSH2 0x1FC2 PUSH2 0x342B JUMP JUMPDEST JUMPDEST SWAP1 PUSH1 0x0 MSTORE PUSH1 0x20 PUSH1 0x0 KECCAK256 SWAP1 PUSH1 0x5 MUL ADD PUSH1 0x3 ADD PUSH1 0x0 DUP1 CALLER PUSH20 0xFFFFFFFFFFFFFFFFFFFFFFFFFFFFFFFFFFFFFFFF AND PUSH20 0xFFFFFFFFFFFFFFFFFFFFFFFFFFFFFFFFFFFFFFFF AND DUP2 MSTORE PUSH1 0x20 ADD SWAP1 DUP2 MSTORE PUSH1 0x20 ADD PUSH1 0x0 KECCAK256 PUSH1 0x11 ADD DUP11 DUP2 SLOAD DUP2 LT PUSH2 0x2027 JUMPI PUSH2 0x2026 PUSH2 0x342B JUMP JUMPDEST JUMPDEST SWAP1 PUSH1 0x0 MSTORE PUSH1 0x20 PUSH1 0x0 KECCAK256 SWAP1 PUSH1 0x5 MUL ADD PUSH1 0x4 ADD DUP5 DUP1 SLOAD PUSH2 0x2044 SWAP1 PUSH2 0x3399 JUMP JUMPDEST DUP1 PUSH1 0x1F ADD PUSH1 0x20 DUP1 SWAP2 DIV MUL PUSH1 0x20 ADD PUSH1 0x40 MLOAD SWAP1 DUP2 ADD PUSH1 0x40 MSTORE DUP1 SWAP3 SWAP2 SWAP1 DUP2 DUP2 MSTORE PUSH1 0x20 ADD DUP3 DUP1 SLOAD PUSH2 0x2070 SWAP1 PUSH2 0x3399 JUMP JUMPDEST DUP1 ISZERO PUSH2 0x20BD JUMPI DUP1 PUSH1 0x1F LT PUSH2 0x2092 JUMPI PUSH2 0x100 DUP1 DUP4 SLOAD DIV MUL DUP4 MSTORE SWAP2 PUSH1 0x20 ADD SWAP2 PUSH2 0x20BD JUMP JUMPDEST DUP3 ADD SWAP2 SWAP1 PUSH1 0x0 MSTORE PUSH1 0x20 PUSH1 0x0 KECCAK256 SWAP1 JUMPDEST DUP2 SLOAD DUP2 MSTORE SWAP1 PUSH1 0x1 ADD SWAP1 PUSH1 0x20 ADD DUP1 DUP4 GT PUSH2 0x20A0 JUMPI DUP3 SWAP1 SUB PUSH1 0x1F AND DUP3 ADD SWAP2 JUMPDEST POP POP POP POP POP SWAP5 POP DUP4 DUP1 SLOAD PUSH2 0x20D0 SWAP1 PUSH2 0x3399 JUMP JUMPDEST DUP1 PUSH1 0x1F ADD PUSH1 0x20 DUP1 SWAP2 DIV MUL PUSH1 0x20 ADD PUSH1 0x40 MLOAD SWAP1 DUP2 ADD PUSH1 0x40 MSTORE DUP1 SWAP3 SWAP2 SWAP1 DUP2 DUP2 MSTORE PUSH1 0x20 ADD DUP3 DUP1 SLOAD PUSH2 0x20FC SWAP1 PUSH2 0x3399 JUMP JUMPDEST DUP1 ISZERO PUSH2 0x2149 JUMPI DUP1 PUSH1 0x1F LT PUSH2 0x211E JUMPI PUSH2 0x100 DUP1 DUP4 SLOAD DIV MUL DUP4 MSTORE SWAP2 PUSH1 0x20 ADD SWAP2 PUSH2 0x2149 JUMP JUMPDEST DUP3 ADD SWAP2 SWAP1 PUSH1 0x0 MSTORE PUSH1 0x20 PUSH1 0x0 KECCAK256 SWAP1 JUMPDEST DUP2 SLOAD DUP2 MSTORE SWAP1 PUSH1 0x1 ADD SWAP1 PUSH1 0x20 ADD DUP1 DUP4 GT PUSH2 0x212C JUMPI DUP3 SWAP1 SUB PUSH1 0x1F AND DUP3 ADD SWAP2 JUMPDEST POP POP POP POP POP SWAP4 POP DUP3 DUP1 SLOAD PUSH2 0x215C SWAP1 PUSH2 0x3399 JUMP JUMPDEST DUP1 PUSH1 0x1F ADD PUSH1 0x20 DUP1 SWAP2 DIV MUL PUSH1 0x20 ADD PUSH1 0x40 MLOAD SWAP1 DUP2 ADD PUSH1 0x40 MSTORE DUP1 SWAP3 SWAP2 SWAP1 DUP2 DUP2 MSTORE PUSH1 0x20 ADD DUP3 DUP1 SLOAD PUSH2 0x2188 SWAP1 PUSH2 0x3399 JUMP JUMPDEST DUP1 ISZERO PUSH2 0x21D5 JUMPI DUP1 PUSH1 0x1F LT PUSH2 0x21AA JUMPI PUSH2 0x100 DUP1 DUP4 SLOAD DIV MUL DUP4 MSTORE SWAP2 PUSH1 0x20 ADD SWAP2 PUSH2 0x21D5 JUMP JUMPDEST DUP3 ADD SWAP2 SWAP1 PUSH1 0x0 MSTORE PUSH1 0x20 PUSH1 0x0 KECCAK256 SWAP1 JUMPDEST DUP2 SLOAD DUP2 MSTORE SWAP1 PUSH1 0x1 ADD SWAP1 PUSH1 0x20 ADD DUP1 DUP4 GT PUSH2 0x21B8 JUMPI DUP3 SWAP1 SUB PUSH1 0x1F AND DUP3 ADD SWAP2 JUMPDEST POP POP POP POP POP SWAP3 POP DUP2 DUP1 SLOAD PUSH2 0x21E8 SWAP1 PUSH2 0x3399 JUMP JUMPDEST DUP1 PUSH1 0x1F ADD PUSH1 0x20 DUP1 SWAP2 DIV MUL PUSH1 0x20 ADD PUSH1 0x40 MLOAD SWAP1 DUP2 ADD PUSH1 0x40 MSTORE DUP1 SWAP3 SWAP2 SWAP1 DUP2 DUP2 MSTORE PUSH1 0x20 ADD DUP3 DUP1 SLOAD PUSH2 0x2214 SWAP1 PUSH2 0x3399 JUMP JUMPDEST DUP1 ISZERO PUSH2 0x2261 JUMPI DUP1 PUSH1 0x1F LT PUSH2 0x2236 JUMPI PUSH2 0x100 DUP1 DUP4 SLOAD DIV MUL DUP4 MSTORE SWAP2 PUSH1 0x20 ADD SWAP2 PUSH2 0x2261 JUMP JUMPDEST DUP3 ADD SWAP2 SWAP1 PUSH1 0x0 MSTORE PUSH1 0x20 PUSH1 0x0 KECCAK256 SWAP1 JUMPDEST DUP2 SLOAD DUP2 MSTORE SWAP1 PUSH1 0x1 ADD SWAP1 PUSH1 0x20 ADD DUP1 DUP4 GT PUSH2 0x2244 JUMPI DUP3 SWAP1 SUB PUSH1 0x1F AND DUP3 ADD SWAP2 JUMPDEST POP POP POP POP POP SWAP2 POP DUP1 DUP1 SLOAD PUSH2 0x2274 SWAP1 PUSH2 0x3399 JUMP JUMPDEST DUP1 PUSH1 0x1F ADD PUSH1 0x20 DUP1 SWAP2 DIV MUL PUSH1 0x20 ADD PUSH1 0x40 MLOAD SWAP1 DUP2 ADD PUSH1 0x40 MSTORE DUP1 SWAP3 SWAP2 SWAP1 DUP2 DUP2 MSTORE PUSH1 0x20 ADD DUP3 DUP1 SLOAD PUSH2 0x22A0 SWAP1 PUSH2 0x3399 JUMP JUMPDEST DUP1 ISZERO PUSH2 0x22ED JUMPI DUP1 PUSH1 0x1F LT PUSH2 0x22C2 JUMPI PUSH2 0x100 DUP1 DUP4 SLOAD DIV MUL DUP4 MSTORE SWAP2 PUSH1 0x20 ADD SWAP2 PUSH2 0x22ED JUMP JUMPDEST DUP3 ADD SWAP2 SWAP1 PUSH1 0x0 MSTORE PUSH1 0x20 PUSH1 0x0 KECCAK256 SWAP1 JUMPDEST DUP2 SLOAD DUP2 MSTORE SWAP1 PUSH1 0x1 ADD SWAP1 PUSH1 0x20 ADD DUP1 DUP4 GT PUSH2 0x22D0 JUMPI DUP3 SWAP1 SUB PUSH1 0x1F AND DUP3 ADD SWAP2 JUMPDEST POP POP POP POP POP SWAP1 POP SWAP5 POP SWAP5 POP SWAP5 POP SWAP5 POP SWAP5 POP SWAP2 SWAP4 SWAP6 SWAP1 SWAP3 SWAP5 POP JUMP JUMPDEST PUSH1 0x0 DUP1 CALLER PUSH20 0xFFFFFFFFFFFFFFFFFFFFFFFFFFFFFFFFFFFFFFFF AND PUSH20 0xFFFFFFFFFFFFFFFFFFFFFFFFFFFFFFFFFFFFFFFF AND DUP2 MSTORE PUSH1 0x20 ADD SWAP1 DUP2 MSTORE PUSH1 0x20 ADD PUSH1 0x0 KECCAK256 PUSH1 0x0 DUP1 DUP3 ADD PUSH1 0x0 DUP1 DUP3 ADD PUSH1 0x0 PUSH2 0x235B SWAP2 SWAP1 PUSH2 0x2533 JUMP JUMPDEST PUSH1 0x1 DUP3 ADD PUSH1 0x0 PUSH2 0x236B SWAP2 SWAP1 PUSH2 0x2533 JUMP JUMPDEST PUSH1 0x2 DUP3 ADD PUSH1 0x0 PUSH2 0x100 EXP DUP2 SLOAD SWAP1 PUSH20 0xFFFFFFFFFFFFFFFFFFFFFFFFFFFFFFFFFFFFFFFF MUL NOT AND SWAP1 SSTORE PUSH1 0x3 DUP3 ADD PUSH1 0x0 PUSH2 0x23A2 SWAP2 SWAP1 PUSH2 0x2533 JUMP JUMPDEST PUSH1 0x4 DUP3 ADD PUSH1 0x0 PUSH2 0x23B2 SWAP2 SWAP1 PUSH2 0x2533 JUMP JUMPDEST PUSH1 0x5 DUP3 ADD PUSH1 0x0 PUSH2 0x23C2 SWAP2 SWAP1 PUSH2 0x2533 JUMP JUMPDEST PUSH1 0x6 DUP3 ADD PUSH1 0x0 PUSH2 0x23D2 SWAP2 SWAP1 PUSH2 0x2533 JUMP JUMPDEST PUSH1 0x7 DUP3 ADD PUSH1 0x0 SWAP1 SSTORE POP POP PUSH1 0x8 DUP3 ADD PUSH1 0x0 DUP1 DUP3 ADD PUSH1 0x0 PUSH2 0x23F1 SWAP2 SWAP1 PUSH2 0x2533 JUMP JUMPDEST PUSH1 0x1 DUP3 ADD PUSH1 0x0 PUSH2 0x2401 SWAP2 SWAP1 PUSH2 0x2533 JUMP JUMPDEST PUSH1 0x2 DUP3 ADD PUSH1 0x0 PUSH2 0x2411 SWAP2 SWAP1 PUSH2 0x2533 JUMP JUMPDEST PUSH1 0x3 DUP3 ADD PUSH1 0x0 PUSH2 0x2421 SWAP2 SWAP1 PUSH2 0x2533 JUMP JUMPDEST PUSH1 0x4 DUP3 ADD PUSH1 0x0 PUSH2 0x2431 SWAP2 SWAP1 PUSH2 0x2533 JUMP JUMPDEST PUSH1 0x5 DUP3 ADD PUSH1 0x0 PUSH2 0x2441 SWAP2 SWAP1 PUSH2 0x2533 JUMP JUMPDEST POP POP PUSH1 0xE DUP3 ADD PUSH1 0x0 DUP1 DUP3 ADD PUSH1 0x0 PUSH2 0x2458 SWAP2 SWAP1 PUSH2 0x25F9 JUMP JUMPDEST PUSH1 0x1 DUP3 ADD PUSH1 0x0 PUSH2 0x2468 SWAP2 SWAP1 PUSH2 0x25F9 JUMP JUMPDEST PUSH1 0x2 DUP3 ADD PUSH1 0x0 PUSH2 0x2478 SWAP2 SWAP1 PUSH2 0x25F9 JUMP JUMPDEST POP POP PUSH1 0x11 DUP3 ADD PUSH1 0x0 PUSH2 0x248A SWAP2 SWAP1 PUSH2 0x26A9 JUMP JUMPDEST PUSH1 0x12 DUP3 ADD PUSH1 0x0 DUP1 DUP3 ADD PUSH1 0x0 PUSH2 0x249F SWAP2 SWAP1 PUSH2 0x25F9 JUMP JUMPDEST PUSH1 0x1 DUP3 ADD PUSH1 0x0 PUSH2 0x24AF SWAP2 SWAP1 PUSH2 0x25F9 JUMP JUMPDEST POP POP PUSH1 0x14 DUP3 ADD PUSH1 0x0 DUP1 DUP3 ADD PUSH1 0x0 PUSH2 0x24C6 SWAP2 SWAP1 PUSH2 0x2533 JUMP JUMPDEST PUSH1 0x1 DUP3 ADD PUSH1 0x0 PUSH2 0x24D6 SWAP2 SWAP1 PUSH2 0x2533 JUMP JUMPDEST PUSH1 0x2 DUP3 ADD PUSH1 0x0 PUSH2 0x24E6 SWAP2 SWAP1 PUSH2 0x2533 JUMP JUMPDEST PUSH1 0x3 DUP3 ADD PUSH1 0x0 PUSH2 0x24F6 SWAP2 SWAP1 PUSH2 0x2533 JUMP JUMPDEST PUSH1 0x4 DUP3 ADD PUSH1 0x0 PUSH2 0x2506 SWAP2 SWAP1 PUSH2 0x25F9 JUMP JUMPDEST POP POP PUSH1 0x19 DUP3 ADD PUSH1 0x0 DUP1 DUP3 ADD PUSH1 0x0 PUSH2 0x251D SWAP2 SWAP1 PUSH2 0x2533 JUMP JUMPDEST PUSH1 0x1 DUP3 ADD PUSH1 0x0 PUSH2 0x252D SWAP2 SWAP1 PUSH2 0x2533 JUMP JUMPDEST POP POP POP POP JUMP JUMPDEST POP DUP1 SLOAD PUSH2 0x253F SWAP1 PUSH2 0x3399 JUMP JUMPDEST PUSH1 0x0 DUP3 SSTORE DUP1 PUSH1 0x1F LT PUSH2 0x2551 JUMPI POP PUSH2 0x2570 JUMP JUMPDEST PUSH1 0x1F ADD PUSH1 0x20 SWAP1 DIV SWAP1 PUSH1 0x0 MSTORE PUSH1 0x20 PUSH1 0x0 KECCAK256 SWAP1 DUP2 ADD SWAP1 PUSH2 0x256F SWAP2 SWAP1 PUSH2 0x26CD JUMP JUMPDEST JUMPDEST POP JUMP JUMPDEST DUP3 DUP1 SLOAD PUSH2 0x257F SWAP1 PUSH2 0x3399 JUMP JUMPDEST SWAP1 PUSH1 0x0 MSTORE PUSH1 0x20 PUSH1 0x0 KECCAK256 SWAP1 PUSH1 0x1F ADD PUSH1 0x20 SWAP1 DIV DUP2 ADD SWAP3 DUP3 PUSH2 0x25A1 JUMPI PUSH1 0x0 DUP6 SSTORE PUSH2 0x25E8 JUMP JUMPDEST DUP3 PUSH1 0x1F LT PUSH2 0x25BA JUMPI DUP1 MLOAD PUSH1 0xFF NOT AND DUP4 DUP1 ADD OR DUP6 SSTORE PUSH2 0x25E8 JUMP JUMPDEST DUP3 DUP1 ADD PUSH1 0x1 ADD DUP6 SSTORE DUP3 ISZERO PUSH2 0x25E8 JUMPI SWAP2 DUP3 ADD JUMPDEST DUP3 DUP2 GT ISZERO PUSH2 0x25E7 JUMPI DUP3 MLOAD DUP3 SSTORE SWAP2 PUSH1 0x20 ADD SWAP2 SWAP1 PUSH1 0x1 ADD SWAP1 PUSH2 0x25CC JUMP JUMPDEST JUMPDEST POP SWAP1 POP PUSH2 0x25F5 SWAP2 SWAP1 PUSH2 0x26CD JUMP JUMPDEST POP SWAP1 JUMP JUMPDEST POP DUP1 SLOAD PUSH1 0x0 DUP3 SSTORE SWAP1 PUSH1 0x0 MSTORE PUSH1 0x20 PUSH1 0x0 KECCAK256 SWAP1 DUP2 ADD SWAP1 PUSH2 0x2617 SWAP2 SWAP1 PUSH2 0x26EA JUMP JUMPDEST POP JUMP JUMPDEST DUP3 DUP1 SLOAD DUP3 DUP3 SSTORE SWAP1 PUSH1 0x0 MSTORE PUSH1 0x20 PUSH1 0x0 KECCAK256 SWAP1 DUP2 ADD SWAP3 DUP3 ISZERO PUSH2 0x2669 JUMPI SWAP2 PUSH1 0x20 MUL DUP3 ADD JUMPDEST DUP3 DUP2 GT ISZERO PUSH2 0x2668 JUMPI DUP3 MLOAD DUP3 SWAP1 DUP1 MLOAD SWAP1 PUSH1 0x20 ADD SWAP1 PUSH2 0x2658 SWAP3 SWAP2 SWAP1 PUSH2 0x2573 JUMP JUMPDEST POP SWAP2 PUSH1 0x20 ADD SWAP2 SWAP1 PUSH1 0x1 ADD SWAP1 PUSH2 0x263A JUMP JUMPDEST JUMPDEST POP SWAP1 POP PUSH2 0x2676 SWAP2 SWAP1 PUSH2 0x26EA JUMP JUMPDEST POP SWAP1 JUMP JUMPDEST PUSH1 0x40 MLOAD DUP1 PUSH1 0xA0 ADD PUSH1 0x40 MSTORE DUP1 PUSH1 0x60 DUP2 MSTORE PUSH1 0x20 ADD PUSH1 0x60 DUP2 MSTORE PUSH1 0x20 ADD PUSH1 0x60 DUP2 MSTORE PUSH1 0x20 ADD PUSH1 0x60 DUP2 MSTORE PUSH1 0x20 ADD PUSH1 0x60 DUP2 MSTORE POP SWAP1 JUMP JUMPDEST POP DUP1 SLOAD PUSH1 0x0 DUP3 SSTORE PUSH1 0x5 MUL SWAP1 PUSH1 0x0 MSTORE PUSH1 0x20 PUSH1 0x0 KECCAK256 SWAP1 DUP2 ADD SWAP1 PUSH2 0x26CA SWAP2 SWAP1 PUSH2 0x270E JUMP JUMPDEST POP JUMP JUMPDEST JUMPDEST DUP1 DUP3 GT ISZERO PUSH2 0x26E6 JUMPI PUSH1 0x0 DUP2 PUSH1 0x0 SWAP1 SSTORE POP PUSH1 0x1 ADD PUSH2 0x26CE JUMP JUMPDEST POP SWAP1 JUMP JUMPDEST JUMPDEST DUP1 DUP3 GT ISZERO PUSH2 0x270A JUMPI PUSH1 0x0 DUP2 DUP2 PUSH2 0x2701 SWAP2 SWAP1 PUSH2 0x2533 JUMP JUMPDEST POP PUSH1 0x1 ADD PUSH2 0x26EB JUMP JUMPDEST POP SWAP1 JUMP JUMPDEST JUMPDEST DUP1 DUP3 GT ISZERO PUSH2 0x2771 JUMPI PUSH1 0x0 DUP1 DUP3 ADD PUSH1 0x0 PUSH2 0x2728 SWAP2 SWAP1 PUSH2 0x2533 JUMP JUMPDEST PUSH1 0x1 DUP3 ADD PUSH1 0x0 PUSH2 0x2738 SWAP2 SWAP1 PUSH2 0x2533 JUMP JUMPDEST PUSH1 0x2 DUP3 ADD PUSH1 0x0 PUSH2 0x2748 SWAP2 SWAP1 PUSH2 0x2533 JUMP JUMPDEST PUSH1 0x3 DUP3 ADD PUSH1 0x0 PUSH2 0x2758 SWAP2 SWAP1 PUSH2 0x2533 JUMP JUMPDEST PUSH1 0x4 DUP3 ADD PUSH1 0x0 PUSH2 0x2768 SWAP2 SWAP1 PUSH2 0x2533 JUMP JUMPDEST POP PUSH1 0x5 ADD PUSH2 0x270F JUMP JUMPDEST POP SWAP1 JUMP JUMPDEST PUSH1 0x0 PUSH2 0x2788 PUSH2 0x2783 DUP5 PUSH2 0x3258 JUMP JUMPDEST PUSH2 0x3233 JUMP JUMPDEST SWAP1 POP DUP1 DUP4 DUP3 MSTORE PUSH1 0x20 DUP3 ADD SWAP1 POP DUP3 DUP6 PUSH1 0x20 DUP7 MUL DUP3 ADD GT ISZERO PUSH2 0x27AB JUMPI PUSH2 0x27AA PUSH2 0x348E JUMP JUMPDEST JUMPDEST PUSH1 0x0 JUMPDEST DUP6 DUP2 LT ISZERO PUSH2 0x27F9 JUMPI DUP2 CALLDATALOAD PUSH8 0xFFFFFFFFFFFFFFFF DUP2 GT ISZERO PUSH2 0x27D1 JUMPI PUSH2 0x27D0 PUSH2 0x3489 JUMP JUMPDEST JUMPDEST DUP1 DUP7 ADD PUSH2 0x27DE DUP10 DUP3 PUSH2 0x2888 JUMP JUMPDEST DUP6 MSTORE PUSH1 0x20 DUP6 ADD SWAP5 POP PUSH1 0x20 DUP5 ADD SWAP4 POP POP POP PUSH1 0x1 DUP2 ADD SWAP1 POP PUSH2 0x27AE JUMP JUMPDEST POP POP POP SWAP4 SWAP3 POP POP POP JUMP JUMPDEST PUSH1 0x0 PUSH2 0x2816 PUSH2 0x2811 DUP5 PUSH2 0x3284 JUMP JUMPDEST PUSH2 0x3233 JUMP JUMPDEST SWAP1 POP DUP3 DUP2 MSTORE PUSH1 0x20 DUP2 ADD DUP5 DUP5 DUP5 ADD GT ISZERO PUSH2 0x2832 JUMPI PUSH2 0x2831 PUSH2 0x3493 JUMP JUMPDEST JUMPDEST PUSH2 0x283D DUP5 DUP3 DUP6 PUSH2 0x3357 JUMP JUMPDEST POP SWAP4 SWAP3 POP POP POP JUMP JUMPDEST PUSH1 0x0 DUP2 CALLDATALOAD SWAP1 POP PUSH2 0x2854 DUP2 PUSH2 0x34B3 JUMP JUMPDEST SWAP3 SWAP2 POP POP JUMP JUMPDEST PUSH1 0x0 DUP3 PUSH1 0x1F DUP4 ADD SLT PUSH2 0x286F JUMPI PUSH2 0x286E PUSH2 0x3489 JUMP JUMPDEST JUMPDEST DUP2 CALLDATALOAD PUSH2 0x287F DUP5 DUP3 PUSH1 0x20 DUP7 ADD PUSH2 0x2775 JUMP JUMPDEST SWAP2 POP POP SWAP3 SWAP2 POP POP JUMP JUMPDEST PUSH1 0x0 DUP3 PUSH1 0x1F DUP4 ADD SLT PUSH2 0x289D JUMPI PUSH2 0x289C PUSH2 0x3489 JUMP JUMPDEST JUMPDEST DUP2 CALLDATALOAD PUSH2 0x28AD DUP5 DUP3 PUSH1 0x20 DUP7 ADD PUSH2 0x2803 JUMP JUMPDEST SWAP2 POP POP SWAP3 SWAP2 POP POP JUMP JUMPDEST PUSH1 0x0 DUP2 CALLDATALOAD SWAP1 POP PUSH2 0x28C5 DUP2 PUSH2 0x34CA JUMP JUMPDEST SWAP3 SWAP2 POP POP JUMP JUMPDEST PUSH1 0x0 PUSH1 0x20 DUP3 DUP5 SUB SLT ISZERO PUSH2 0x28E1 JUMPI PUSH2 0x28E0 PUSH2 0x349D JUMP JUMPDEST JUMPDEST PUSH1 0x0 PUSH2 0x28EF DUP5 DUP3 DUP6 ADD PUSH2 0x2845 JUMP JUMPDEST SWAP2 POP POP SWAP3 SWAP2 POP POP JUMP JUMPDEST PUSH1 0x0 DUP1 PUSH1 0x40 DUP4 DUP6 SUB SLT ISZERO PUSH2 0x290F JUMPI PUSH2 0x290E PUSH2 0x349D JUMP JUMPDEST JUMPDEST PUSH1 0x0 DUP4 ADD CALLDATALOAD PUSH8 0xFFFFFFFFFFFFFFFF DUP2 GT ISZERO PUSH2 0x292D JUMPI PUSH2 0x292C PUSH2 0x3498 JUMP JUMPDEST JUMPDEST PUSH2 0x2939 DUP6 DUP3 DUP7 ADD PUSH2 0x285A JUMP JUMPDEST SWAP3 POP POP PUSH1 0x20 DUP4 ADD CALLDATALOAD PUSH8 0xFFFFFFFFFFFFFFFF DUP2 GT ISZERO PUSH2 0x295A JUMPI PUSH2 0x2959 PUSH2 0x3498 JUMP JUMPDEST JUMPDEST PUSH2 0x2966 DUP6 DUP3 DUP7 ADD PUSH2 0x285A JUMP JUMPDEST SWAP2 POP POP SWAP3 POP SWAP3 SWAP1 POP JUMP JUMPDEST PUSH1 0x0 DUP1 PUSH1 0x0 PUSH1 0x60 DUP5 DUP7 SUB SLT ISZERO PUSH2 0x2989 JUMPI PUSH2 0x2988 PUSH2 0x349D JUMP JUMPDEST JUMPDEST PUSH1 0x0 DUP5 ADD CALLDATALOAD PUSH8 0xFFFFFFFFFFFFFFFF DUP2 GT ISZERO PUSH2 0x29A7 JUMPI PUSH2 0x29A6 PUSH2 0x3498 JUMP JUMPDEST JUMPDEST PUSH2 0x29B3 DUP7 DUP3 DUP8 ADD PUSH2 0x285A JUMP JUMPDEST SWAP4 POP POP PUSH1 0x20 DUP5 ADD CALLDATALOAD PUSH8 0xFFFFFFFFFFFFFFFF DUP2 GT ISZERO PUSH2 0x29D4 JUMPI PUSH2 0x29D3 PUSH2 0x3498 JUMP JUMPDEST JUMPDEST PUSH2 0x29E0 DUP7 DUP3 DUP8 ADD PUSH2 0x285A JUMP JUMPDEST SWAP3 POP POP PUSH1 0x40 DUP5 ADD CALLDATALOAD PUSH8 0xFFFFFFFFFFFFFFFF DUP2 GT ISZERO PUSH2 0x2A01 JUMPI PUSH2 0x2A00 PUSH2 0x3498 JUMP JUMPDEST JUMPDEST PUSH2 0x2A0D DUP7 DUP3 DUP8 ADD PUSH2 0x285A JUMP JUMPDEST SWAP2 POP POP SWAP3 POP SWAP3 POP SWAP3 JUMP JUMPDEST PUSH1 0x0 DUP1 PUSH1 0x40 DUP4 DUP6 SUB SLT ISZERO PUSH2 0x2A2E JUMPI PUSH2 0x2A2D PUSH2 0x349D JUMP JUMPDEST JUMPDEST PUSH1 0x0 DUP4 ADD CALLDATALOAD PUSH8 0xFFFFFFFFFFFFFFFF DUP2 GT ISZERO PUSH2 0x2A4C JUMPI PUSH2 0x2A4B PUSH2 0x3498 JUMP JUMPDEST JUMPDEST PUSH2 0x2A58 DUP6 DUP3 DUP7 ADD PUSH2 0x2888 JUMP JUMPDEST SWAP3 POP POP PUSH1 0x20 DUP4 ADD CALLDATALOAD PUSH8 0xFFFFFFFFFFFFFFFF DUP2 GT ISZERO PUSH2 0x2A79 JUMPI PUSH2 0x2A78 PUSH2 0x3498 JUMP JUMPDEST JUMPDEST PUSH2 0x2A85 DUP6 DUP3 DUP7 ADD PUSH2 0x2888 JUMP JUMPDEST SWAP2 POP POP SWAP3 POP SWAP3 SWAP1 POP JUMP JUMPDEST PUSH1 0x0 DUP1 PUSH1 0x0 DUP1 PUSH1 0x0 PUSH1 0xA0 DUP7 DUP9 SUB SLT ISZERO PUSH2 0x2AAB JUMPI PUSH2 0x2AAA PUSH2 0x349D JUMP JUMPDEST JUMPDEST PUSH1 0x0 DUP7 ADD CALLDATALOAD PUSH8 0xFFFFFFFFFFFFFFFF DUP2 GT ISZERO PUSH2 0x2AC9 JUMPI PUSH2 0x2AC8 PUSH2 0x3498 JUMP JUMPDEST JUMPDEST PUSH2 0x2AD5 DUP9 DUP3 DUP10 ADD PUSH2 0x2888 JUMP JUMPDEST SWAP6 POP POP PUSH1 0x20 DUP7 ADD CALLDATALOAD PUSH8 0xFFFFFFFFFFFFFFFF DUP2 GT ISZERO PUSH2 0x2AF6 JUMPI PUSH2 0x2AF5 PUSH2 0x3498 JUMP JUMPDEST JUMPDEST PUSH2 0x2B02 DUP9 DUP3 DUP10 ADD PUSH2 0x2888 JUMP JUMPDEST SWAP5 POP POP PUSH1 0x40 DUP7 ADD CALLDATALOAD PUSH8 0xFFFFFFFFFFFFFFFF DUP2 GT ISZERO PUSH2 0x2B23 JUMPI PUSH2 0x2B22 PUSH2 0x3498 JUMP JUMPDEST JUMPDEST PUSH2 0x2B2F DUP9 DUP3 DUP10 ADD PUSH2 0x2888 JUMP JUMPDEST SWAP4 POP POP PUSH1 0x60 DUP7 ADD CALLDATALOAD PUSH8 0xFFFFFFFFFFFFFFFF DUP2 GT ISZERO PUSH2 0x2B50 JUMPI PUSH2 0x2B4F PUSH2 0x3498 JUMP JUMPDEST JUMPDEST PUSH2 0x2B5C DUP9 DUP3 DUP10 ADD PUSH2 0x2888 JUMP JUMPDEST SWAP3 POP POP PUSH1 0x80 DUP7 ADD CALLDATALOAD PUSH8 0xFFFFFFFFFFFFFFFF DUP2 GT ISZERO PUSH2 0x2B7D JUMPI PUSH2 0x2B7C PUSH2 0x3498 JUMP JUMPDEST JUMPDEST PUSH2 0x2B89 DUP9 DUP3 DUP10 ADD PUSH2 0x2888 JUMP JUMPDEST SWAP2 POP POP SWAP3 SWAP6 POP SWAP3 SWAP6 SWAP1 SWAP4 POP JUMP JUMPDEST PUSH1 0x0 DUP1 PUSH1 0x0 DUP1 PUSH1 0x0 DUP1 PUSH1 0xC0 DUP8 DUP10 SUB SLT ISZERO PUSH2 0x2BB3 JUMPI PUSH2 0x2BB2 PUSH2 0x349D JUMP JUMPDEST JUMPDEST PUSH1 0x0 DUP8 ADD CALLDATALOAD PUSH8 0xFFFFFFFFFFFFFFFF DUP2 GT ISZERO PUSH2 0x2BD1 JUMPI PUSH2 0x2BD0 PUSH2 0x3498 JUMP JUMPDEST JUMPDEST PUSH2 0x2BDD DUP10 DUP3 DUP11 ADD PUSH2 0x2888 JUMP JUMPDEST SWAP7 POP POP PUSH1 0x20 DUP8 ADD CALLDATALOAD PUSH8 0xFFFFFFFFFFFFFFFF DUP2 GT ISZERO PUSH2 0x2BFE JUMPI PUSH2 0x2BFD PUSH2 0x3498 JUMP JUMPDEST JUMPDEST PUSH2 0x2C0A DUP10 DUP3 DUP11 ADD PUSH2 0x2888 JUMP JUMPDEST SWAP6 POP POP PUSH1 0x40 DUP8 ADD CALLDATALOAD PUSH8 0xFFFFFFFFFFFFFFFF DUP2 GT ISZERO PUSH2 0x2C2B JUMPI PUSH2 0x2C2A PUSH2 0x3498 JUMP JUMPDEST JUMPDEST PUSH2 0x2C37 DUP10 DUP3 DUP11 ADD PUSH2 0x2888 JUMP JUMPDEST SWAP5 POP POP PUSH1 0x60 DUP8 ADD CALLDATALOAD PUSH8 0xFFFFFFFFFFFFFFFF DUP2 GT ISZERO PUSH2 0x2C58 JUMPI PUSH2 0x2C57 PUSH2 0x3498 JUMP JUMPDEST JUMPDEST PUSH2 0x2C64 DUP10 DUP3 DUP11 ADD PUSH2 0x2888 JUMP JUMPDEST SWAP4 POP POP PUSH1 0x80 DUP8 ADD CALLDATALOAD PUSH8 0xFFFFFFFFFFFFFFFF DUP2 GT ISZERO PUSH2 0x2C85 JUMPI PUSH2 0x2C84 PUSH2 0x3498 JUMP JUMPDEST JUMPDEST PUSH2 0x2C91 DUP10 DUP3 DUP11 ADD PUSH2 0x2888 JUMP JUMPDEST SWAP3 POP POP PUSH1 0xA0 DUP8 ADD CALLDATALOAD PUSH8 0xFFFFFFFFFFFFFFFF DUP2 GT ISZERO PUSH2 0x2CB2 JUMPI PUSH2 0x2CB1 PUSH2 0x3498 JUMP JUMPDEST JUMPDEST PUSH2 0x2CBE DUP10 DUP3 DUP11 ADD PUSH2 0x2888 JUMP JUMPDEST SWAP2 POP POP SWAP3 SWAP6 POP SWAP3 SWAP6 POP SWAP3 SWAP6 JUMP JUMPDEST PUSH1 0x0 PUSH1 0x20 DUP3 DUP5 SUB SLT ISZERO PUSH2 0x2CE1 JUMPI PUSH2 0x2CE0 PUSH2 0x349D JUMP JUMPDEST JUMPDEST PUSH1 0x0 PUSH2 0x2CEF DUP5 DUP3 DUP6 ADD PUSH2 0x28B6 JUMP JUMPDEST SWAP2 POP POP SWAP3 SWAP2 POP POP JUMP JUMPDEST PUSH1 0x0 PUSH2 0x2D04 DUP4 DUP4 PUSH2 0x2D90 JUMP JUMPDEST SWAP1 POP SWAP3 SWAP2 POP POP JUMP JUMPDEST PUSH2 0x2D15 DUP2 PUSH2 0x331B JUMP JUMPDEST DUP3 MSTORE POP POP JUMP JUMPDEST PUSH1 0x0 PUSH2 0x2D26 DUP3 PUSH2 0x32C5 JUMP JUMPDEST PUSH2 0x2D30 DUP2 DUP6 PUSH2 0x32E8 JUMP JUMPDEST SWAP4 POP DUP4 PUSH1 0x20 DUP3 MUL DUP6 ADD PUSH2 0x2D42 DUP6 PUSH2 0x32B5 JUMP JUMPDEST DUP1 PUSH1 0x0 JUMPDEST DUP6 DUP2 LT ISZERO PUSH2 0x2D7E JUMPI DUP5 DUP5 SUB DUP10 MSTORE DUP2 MLOAD PUSH2 0x2D5F DUP6 DUP3 PUSH2 0x2CF8 JUMP JUMPDEST SWAP5 POP PUSH2 0x2D6A DUP4 PUSH2 0x32DB JUMP JUMPDEST SWAP3 POP PUSH1 0x20 DUP11 ADD SWAP10 POP POP PUSH1 0x1 DUP2 ADD SWAP1 POP PUSH2 0x2D46 JUMP JUMPDEST POP DUP3 SWAP8 POP DUP8 SWAP6 POP POP POP POP POP POP SWAP3 SWAP2 POP POP JUMP JUMPDEST PUSH1 0x0 PUSH2 0x2D9B DUP3 PUSH2 0x32D0 JUMP JUMPDEST PUSH2 0x2DA5 DUP2 DUP6 PUSH2 0x32F9 JUMP JUMPDEST SWAP4 POP PUSH2 0x2DB5 DUP2 DUP6 PUSH1 0x20 DUP7 ADD PUSH2 0x3366 JUMP JUMPDEST PUSH2 0x2DBE DUP2 PUSH2 0x34A2 JUMP JUMPDEST DUP5 ADD SWAP2 POP POP SWAP3 SWAP2 POP POP JUMP JUMPDEST PUSH1 0x0 PUSH2 0x2DD4 DUP3 PUSH2 0x32D0 JUMP JUMPDEST PUSH2 0x2DDE DUP2 DUP6 PUSH2 0x330A JUMP JUMPDEST SWAP4 POP PUSH2 0x2DEE DUP2 DUP6 PUSH1 0x20 DUP7 ADD PUSH2 0x3366 JUMP JUMPDEST PUSH2 0x2DF7 DUP2 PUSH2 0x34A2 JUMP JUMPDEST DUP5 ADD SWAP2 POP POP SWAP3 SWAP2 POP POP JUMP JUMPDEST PUSH1 0x0 PUSH1 0x40 DUP4 ADD PUSH1 0x0 DUP4 ADD MLOAD DUP5 DUP3 SUB PUSH1 0x0 DUP7 ADD MSTORE PUSH2 0x2E1F DUP3 DUP3 PUSH2 0x2D1B JUMP JUMPDEST SWAP2 POP POP PUSH1 0x20 DUP4 ADD MLOAD DUP5 DUP3 SUB PUSH1 0x20 DUP7 ADD MSTORE PUSH2 0x2E39 DUP3 DUP3 PUSH2 0x2D1B JUMP JUMPDEST SWAP2 POP POP DUP1 SWAP2 POP POP SWAP3 SWAP2 POP POP JUMP JUMPDEST PUSH1 0x0 PUSH1 0xA0 DUP4 ADD PUSH1 0x0 DUP4 ADD MLOAD DUP5 DUP3 SUB PUSH1 0x0 DUP7 ADD MSTORE PUSH2 0x2E63 DUP3 DUP3 PUSH2 0x2D90 JUMP JUMPDEST SWAP2 POP POP PUSH1 0x20 DUP4 ADD MLOAD DUP5 DUP3 SUB PUSH1 0x20 DUP7 ADD MSTORE PUSH2 0x2E7D DUP3 DUP3 PUSH2 0x2D90 JUMP JUMPDEST SWAP2 POP POP PUSH1 0x40 DUP4 ADD MLOAD DUP5 DUP3 SUB PUSH1 0x40 DUP7 ADD MSTORE PUSH2 0x2E97 DUP3 DUP3 PUSH2 0x2D90 JUMP JUMPDEST SWAP2 POP POP PUSH1 0x60 DUP4 ADD MLOAD DUP5 DUP3 SUB PUSH1 0x60 DUP7 ADD MSTORE PUSH2 0x2EB1 DUP3 DUP3 PUSH2 0x2D90 JUMP JUMPDEST SWAP2 POP POP PUSH1 0x80 DUP4 ADD MLOAD DUP5 DUP3 SUB PUSH1 0x80 DUP7 ADD MSTORE PUSH2 0x2ECB DUP3 DUP3 PUSH2 0x2D1B JUMP JUMPDEST SWAP2 POP POP DUP1 SWAP2 POP POP SWAP3 SWAP2 POP POP JUMP JUMPDEST PUSH1 0x0 PUSH1 0xC0 DUP4 ADD PUSH1 0x0 DUP4 ADD MLOAD DUP5 DUP3 SUB PUSH1 0x0 DUP7 ADD MSTORE PUSH2 0x2EF5 DUP3 DUP3 PUSH2 0x2D90 JUMP JUMPDEST SWAP2 POP POP PUSH1 0x20 DUP4 ADD MLOAD DUP5 DUP3 SUB PUSH1 0x20 DUP7 ADD MSTORE PUSH2 0x2F0F DUP3 DUP3 PUSH2 0x2D90 JUMP JUMPDEST SWAP2 POP POP PUSH1 0x40 DUP4 ADD MLOAD DUP5 DUP3 SUB PUSH1 0x40 DUP7 ADD MSTORE PUSH2 0x2F29 DUP3 DUP3 PUSH2 0x2D90 JUMP JUMPDEST SWAP2 POP POP PUSH1 0x60 DUP4 ADD MLOAD DUP5 DUP3 SUB PUSH1 0x60 DUP7 ADD MSTORE PUSH2 0x2F43 DUP3 DUP3 PUSH2 0x2D90 JUMP JUMPDEST SWAP2 POP POP PUSH1 0x80 DUP4 ADD MLOAD DUP5 DUP3 SUB PUSH1 0x80 DUP7 ADD MSTORE PUSH2 0x2F5D DUP3 DUP3 PUSH2 0x2D90 JUMP JUMPDEST SWAP2 POP POP PUSH1 0xA0 DUP4 ADD MLOAD DUP5 DUP3 SUB PUSH1 0xA0 DUP7 ADD MSTORE PUSH2 0x2F77 DUP3 DUP3 PUSH2 0x2D90 JUMP JUMPDEST SWAP2 POP POP DUP1 SWAP2 POP POP SWAP3 SWAP2 POP POP JUMP JUMPDEST PUSH1 0x0 PUSH1 0x40 DUP4 ADD PUSH1 0x0 DUP4 ADD MLOAD DUP5 DUP3 SUB PUSH1 0x0 DUP7 ADD MSTORE PUSH2 0x2FA1 DUP3 DUP3 PUSH2 0x2D90 JUMP JUMPDEST SWAP2 POP POP PUSH1 0x20 DUP4 ADD MLOAD DUP5 DUP3 SUB PUSH1 0x20 DUP7 ADD MSTORE PUSH2 0x2FBB DUP3 DUP3 PUSH2 0x2D90 JUMP JUMPDEST SWAP2 POP POP DUP1 SWAP2 POP POP SWAP3 SWAP2 POP POP JUMP JUMPDEST PUSH1 0x0 PUSH2 0x100 DUP4 ADD PUSH1 0x0 DUP4 ADD MLOAD DUP5 DUP3 SUB PUSH1 0x0 DUP7 ADD MSTORE PUSH2 0x2FE6 DUP3 DUP3 PUSH2 0x2D90 JUMP JUMPDEST SWAP2 POP POP PUSH1 0x20 DUP4 ADD MLOAD DUP5 DUP3 SUB PUSH1 0x20 DUP7 ADD MSTORE PUSH2 0x3000 DUP3 DUP3 PUSH2 0x2D90 JUMP JUMPDEST SWAP2 POP POP PUSH1 0x40 DUP4 ADD MLOAD PUSH2 0x3015 PUSH1 0x40 DUP7 ADD DUP3 PUSH2 0x2D0C JUMP JUMPDEST POP PUSH1 0x60 DUP4 ADD MLOAD DUP5 DUP3 SUB PUSH1 0x60 DUP7 ADD MSTORE PUSH2 0x302D DUP3 DUP3 PUSH2 0x2D90 JUMP JUMPDEST SWAP2 POP POP PUSH1 0x80 DUP4 ADD MLOAD DUP5 DUP3 SUB PUSH1 0x80 DUP7 ADD MSTORE PUSH2 0x3047 DUP3 DUP3 PUSH2 0x2D90 JUMP JUMPDEST SWAP2 POP POP PUSH1 0xA0 DUP4 ADD MLOAD DUP5 DUP3 SUB PUSH1 0xA0 DUP7 ADD MSTORE PUSH2 0x3061 DUP3 DUP3 PUSH2 0x2D90 JUMP JUMPDEST SWAP2 POP POP PUSH1 0xC0 DUP4 ADD MLOAD DUP5 DUP3 SUB PUSH1 0xC0 DUP7 ADD MSTORE PUSH2 0x307B DUP3 DUP3 PUSH2 0x2D90 JUMP JUMPDEST SWAP2 POP POP PUSH1 0xE0 DUP4 ADD MLOAD PUSH2 0x3090 PUSH1 0xE0 DUP7 ADD DUP3 PUSH2 0x30F9 JUMP JUMPDEST POP DUP1 SWAP2 POP POP SWAP3 SWAP2 POP POP JUMP JUMPDEST PUSH1 0x0 PUSH1 0x60 DUP4 ADD PUSH1 0x0 DUP4 ADD MLOAD DUP5 DUP3 SUB PUSH1 0x0 DUP7 ADD MSTORE PUSH2 0x30B8 DUP3 DUP3 PUSH2 0x2D1B JUMP JUMPDEST SWAP2 POP POP PUSH1 0x20 DUP4 ADD MLOAD DUP5 DUP3 SUB PUSH1 0x20 DUP7 ADD MSTORE PUSH2 0x30D2 DUP3 DUP3 PUSH2 0x2D1B JUMP JUMPDEST SWAP2 POP POP PUSH1 0x40 DUP4 ADD MLOAD DUP5 DUP3 SUB PUSH1 0x40 DUP7 ADD MSTORE PUSH2 0x30EC DUP3 DUP3 PUSH2 0x2D1B JUMP JUMPDEST SWAP2 POP POP DUP1 SWAP2 POP POP SWAP3 SWAP2 POP POP JUMP JUMPDEST PUSH2 0x3102 DUP2 PUSH2 0x334D JUMP JUMPDEST DUP3 MSTORE POP POP JUMP JUMPDEST PUSH2 0x3111 DUP2 PUSH2 0x334D JUMP JUMPDEST DUP3 MSTORE POP POP JUMP JUMPDEST PUSH1 0x0 PUSH1 0xA0 DUP3 ADD SWAP1 POP DUP2 DUP2 SUB PUSH1 0x0 DUP4 ADD MSTORE PUSH2 0x3131 DUP2 DUP9 PUSH2 0x2DC9 JUMP JUMPDEST SWAP1 POP DUP2 DUP2 SUB PUSH1 0x20 DUP4 ADD MSTORE PUSH2 0x3145 DUP2 DUP8 PUSH2 0x2DC9 JUMP JUMPDEST SWAP1 POP DUP2 DUP2 SUB PUSH1 0x40 DUP4 ADD MSTORE PUSH2 0x3159 DUP2 DUP7 PUSH2 0x2DC9 JUMP JUMPDEST SWAP1 POP DUP2 DUP2 SUB PUSH1 0x60 DUP4 ADD MSTORE PUSH2 0x316D DUP2 DUP6 PUSH2 0x2DC9 JUMP JUMPDEST SWAP1 POP DUP2 DUP2 SUB PUSH1 0x80 DUP4 ADD MSTORE PUSH2 0x3181 DUP2 DUP5 PUSH2 0x2DC9 JUMP JUMPDEST SWAP1 POP SWAP7 SWAP6 POP POP POP POP POP POP JUMP JUMPDEST PUSH1 0x0 PUSH1 0xC0 DUP3 ADD SWAP1 POP DUP2 DUP2 SUB PUSH1 0x0 DUP4 ADD MSTORE PUSH2 0x31A7 DUP2 DUP10 PUSH2 0x2FC8 JUMP JUMPDEST SWAP1 POP DUP2 DUP2 SUB PUSH1 0x20 DUP4 ADD MSTORE PUSH2 0x31BB DUP2 DUP9 PUSH2 0x2ED8 JUMP JUMPDEST SWAP1 POP DUP2 DUP2 SUB PUSH1 0x40 DUP4 ADD MSTORE PUSH2 0x31CF DUP2 DUP8 PUSH2 0x309B JUMP JUMPDEST SWAP1 POP DUP2 DUP2 SUB PUSH1 0x60 DUP4 ADD MSTORE PUSH2 0x31E3 DUP2 DUP7 PUSH2 0x2E02 JUMP JUMPDEST SWAP1 POP DUP2 DUP2 SUB PUSH1 0x80 DUP4 ADD MSTORE PUSH2 0x31F7 DUP2 DUP6 PUSH2 0x2E46 JUMP JUMPDEST SWAP1 POP DUP2 DUP2 SUB PUSH1 0xA0 DUP4 ADD MSTORE PUSH2 0x320B DUP2 DUP5 PUSH2 0x2F84 JUMP JUMPDEST SWAP1 POP SWAP8 SWAP7 POP POP POP POP POP POP POP JUMP JUMPDEST PUSH1 0x0 PUSH1 0x20 DUP3 ADD SWAP1 POP PUSH2 0x322D PUSH1 0x0 DUP4 ADD DUP5 PUSH2 0x3108 JUMP JUMPDEST SWAP3 SWAP2 POP POP JUMP JUMPDEST PUSH1 0x0 PUSH2 0x323D PUSH2 0x324E JUMP JUMPDEST SWAP1 POP PUSH2 0x3249 DUP3 DUP3 PUSH2 0x33CB JUMP JUMPDEST SWAP2 SWAP1 POP JUMP JUMPDEST PUSH1 0x0 PUSH1 0x40 MLOAD SWAP1 POP SWAP1 JUMP JUMPDEST PUSH1 0x0 PUSH8 0xFFFFFFFFFFFFFFFF DUP3 GT ISZERO PUSH2 0x3273 JUMPI PUSH2 0x3272 PUSH2 0x345A JUMP JUMPDEST JUMPDEST PUSH1 0x20 DUP3 MUL SWAP1 POP PUSH1 0x20 DUP2 ADD SWAP1 POP SWAP2 SWAP1 POP JUMP JUMPDEST PUSH1 0x0 PUSH8 0xFFFFFFFFFFFFFFFF DUP3 GT ISZERO PUSH2 0x329F JUMPI PUSH2 0x329E PUSH2 0x345A JUMP JUMPDEST JUMPDEST PUSH2 0x32A8 DUP3 PUSH2 0x34A2 JUMP JUMPDEST SWAP1 POP PUSH1 0x20 DUP2 ADD SWAP1 POP SWAP2 SWAP1 POP JUMP JUMPDEST PUSH1 0x0 DUP2 SWAP1 POP PUSH1 0x20 DUP3 ADD SWAP1 POP SWAP2 SWAP1 POP JUMP JUMPDEST PUSH1 0x0 DUP2 MLOAD SWAP1 POP SWAP2 SWAP1 POP JUMP JUMPDEST PUSH1 0x0 DUP2 MLOAD SWAP1 POP SWAP2 SWAP1 POP JUMP JUMPDEST PUSH1 0x0 PUSH1 0x20 DUP3 ADD SWAP1 POP SWAP2 SWAP1 POP JUMP JUMPDEST PUSH1 0x0 DUP3 DUP3 MSTORE PUSH1 0x20 DUP3 ADD SWAP1 POP SWAP3 SWAP2 POP POP JUMP JUMPDEST PUSH1 0x0 DUP3 DUP3 MSTORE PUSH1 0x20 DUP3 ADD SWAP1 POP SWAP3 SWAP2 POP POP JUMP JUMPDEST PUSH1 0x0 DUP3 DUP3 MSTORE PUSH1 0x20 DUP3 ADD SWAP1 POP SWAP3 SWAP2 POP POP JUMP JUMPDEST PUSH1 0x0 PUSH2 0x3326 DUP3 PUSH2 0x332D JUMP JUMPDEST SWAP1 POP SWAP2 SWAP1 POP JUMP JUMPDEST PUSH1 0x0 PUSH20 0xFFFFFFFFFFFFFFFFFFFFFFFFFFFFFFFFFFFFFFFF DUP3 AND SWAP1 POP SWAP2 SWAP1 POP JUMP JUMPDEST PUSH1 0x0 DUP2 SWAP1 POP SWAP2 SWAP1 POP JUMP JUMPDEST DUP3 DUP2 DUP4 CALLDATACOPY PUSH1 0x0 DUP4 DUP4 ADD MSTORE POP POP POP JUMP JUMPDEST PUSH1 0x0 JUMPDEST DUP4 DUP2 LT ISZERO PUSH2 0x3384 JUMPI DUP1 DUP3 ADD MLOAD DUP2 DUP5 ADD MSTORE PUSH1 0x20 DUP2 ADD SWAP1 POP PUSH2 0x3369 JUMP JUMPDEST DUP4 DUP2 GT ISZERO PUSH2 0x3393 JUMPI PUSH1 0x0 DUP5 DUP5 ADD MSTORE JUMPDEST POP POP POP POP JUMP JUMPDEST PUSH1 0x0 PUSH1 0x2 DUP3 DIV SWAP1 POP PUSH1 0x1 DUP3 AND DUP1 PUSH2 0x33B1 JUMPI PUSH1 0x7F DUP3 AND SWAP2 POP JUMPDEST PUSH1 0x20 DUP3 LT DUP2 EQ ISZERO PUSH2 0x33C5 JUMPI PUSH2 0x33C4 PUSH2 0x33FC JUMP JUMPDEST JUMPDEST POP SWAP2 SWAP1 POP JUMP JUMPDEST PUSH2 0x33D4 DUP3 PUSH2 0x34A2 JUMP JUMPDEST DUP2 ADD DUP2 DUP2 LT PUSH8 0xFFFFFFFFFFFFFFFF DUP3 GT OR ISZERO PUSH2 0x33F3 JUMPI PUSH2 0x33F2 PUSH2 0x345A JUMP JUMPDEST JUMPDEST DUP1 PUSH1 0x40 MSTORE POP POP POP JUMP JUMPDEST PUSH32 0x4E487B7100000000000000000000000000000000000000000000000000000000 PUSH1 0x0 MSTORE PUSH1 0x22 PUSH1 0x4 MSTORE PUSH1 0x24 PUSH1 0x0 REVERT JUMPDEST PUSH32 0x4E487B7100000000000000000000000000000000000000000000000000000000 PUSH1 0x0 MSTORE PUSH1 0x32 PUSH1 0x4 MSTORE PUSH1 0x24 PUSH1 0x0 REVERT JUMPDEST PUSH32 0x4E487B7100000000000000000000000000000000000000000000000000000000 PUSH1 0x0 MSTORE PUSH1 0x41 PUSH1 0x4 MSTORE PUSH1 0x24 PUSH1 0x0 REVERT JUMPDEST PUSH1 0x0 DUP1 REVERT JUMPDEST PUSH1 0x0 DUP1 REVERT JUMPDEST PUSH1 0x0 DUP1 REVERT JUMPDEST PUSH1 0x0 DUP1 REVERT JUMPDEST PUSH1 0x0 DUP1 REVERT JUMPDEST PUSH1 0x0 PUSH1 0x1F NOT PUSH1 0x1F DUP4 ADD AND SWAP1 POP SWAP2 SWAP1 POP JUMP JUMPDEST PUSH2 0x34BC DUP2 PUSH2 0x331B JUMP JUMPDEST DUP2 EQ PUSH2 0x34C7 JUMPI PUSH1 0x0 DUP1 REVERT JUMPDEST POP JUMP JUMPDEST PUSH2 0x34D3 DUP2 PUSH2 0x334D JUMP JUMPDEST DUP2 EQ PUSH2 0x34DE JUMPI PUSH1 0x0 DUP1 REVERT JUMPDEST POP JUMP INVALID LOG2 PUSH5 0x6970667358 0x22 SLT KECCAK256 0xB2 EQ PUSH17 0x79D271693D4585EA513A91BB738648C8B0 XOR 0xEB 0xE CODECOPY CALLDATASIZE PUSH17 0x29FC799994A64736F6C63430008070033 "
				},
				"gasEstimates": {
					"creation": {
						"codeDepositCost": "2718200",
						"executionCost": "2953",
						"totalCost": "2721153"
					},
					"external": {
						"createAward(string[],string[])": "infinite",
						"createContract(string,string,string,string,string)": "infinite",
						"createFreelanceExperience(string,string)": "infinite",
						"createInformation(string,string,string,string,string,string)": "infinite",
						"createSkill(string[],string[],string[])": "infinite",
						"createUnivercity(string,string,string,string,string)": "infinite",
						"delAllEducation()": "infinite",
						"delCertificateAndAward()": "infinite",
						"delFreelanceExperience()": "infinite",
						"delInformaion()": "infinite",
						"delProfile()": "infinite",
						"getEducation(uint256)": "infinite",
						"getEducationCount()": "2585",
						"profile(address)": "infinite"
					}
				},
				"methodIdentifiers": {
					"createAward(string[],string[])": "6c2cc774",
					"createContract(string,string,string,string,string)": "72828388",
					"createFreelanceExperience(string,string)": "322a9849",
					"createInformation(string,string,string,string,string,string)": "958791ae",
					"createSkill(string[],string[],string[])": "3d984d0e",
					"createUnivercity(string,string,string,string,string)": "66244dfb",
					"delAllEducation()": "ed2217ef",
					"delCertificateAndAward()": "4ed74067",
					"delFreelanceExperience()": "119d4cac",
					"delInformaion()": "95ea3757",
					"delProfile()": "fabce08f",
					"getEducation(uint256)": "f96e32f8",
					"getEducationCount()": "6212fa02",
					"profile(address)": "9dd9d0fd"
				}
			},
			"storageLayout": {
				"storage": [
					{
						"astId": 29,
						"contract": "contracts/Profile.sol:Profile",
						"label": "profile",
						"offset": 0,
						"slot": "0",
						"type": "t_mapping(t_address,t_struct(Bio)24_storage)"
					}
				],
				"types": {
					"t_address": {
						"encoding": "inplace",
						"label": "address",
						"numberOfBytes": "20"
					},
					"t_array(t_string_storage)dyn_storage": {
						"base": "t_string_storage",
						"encoding": "dynamic_array",
						"label": "string[]",
						"numberOfBytes": "32"
					},
					"t_array(t_struct(Education)97_storage)dyn_storage": {
						"base": "t_struct(Education)97_storage",
						"encoding": "dynamic_array",
						"label": "struct Profile.Education[]",
						"numberOfBytes": "32"
					},
					"t_mapping(t_address,t_struct(Bio)24_storage)": {
						"encoding": "mapping",
						"key": "t_address",
						"label": "mapping(address => struct Profile.Bio)",
						"numberOfBytes": "32",
						"value": "t_struct(Bio)24_storage"
					},
					"t_string_storage": {
						"encoding": "bytes",
						"label": "string",
						"numberOfBytes": "32"
					},
					"t_struct(Bio)24_storage": {
						"encoding": "inplace",
						"label": "struct Profile.Bio",
						"members": [
							{
								"astId": 4,
								"contract": "contracts/Profile.sol:Profile",
								"label": "information",
								"offset": 0,
								"slot": "0",
								"type": "t_struct(Information)46_storage"
							},
							{
								"astId": 7,
								"contract": "contracts/Profile.sol:Profile",
								"label": "privateContract",
								"offset": 0,
								"slot": "8",
								"type": "t_struct(Contract)59_storage"
							},
							{
								"astId": 10,
								"contract": "contracts/Profile.sol:Profile",
								"label": "skill",
								"offset": 0,
								"slot": "14",
								"type": "t_struct(Skill)69_storage"
							},
							{
								"astId": 14,
								"contract": "contracts/Profile.sol:Profile",
								"label": "education",
								"offset": 0,
								"slot": "17",
								"type": "t_array(t_struct(Education)97_storage)dyn_storage"
							},
							{
								"astId": 17,
								"contract": "contracts/Profile.sol:Profile",
								"label": "certificateAndAward",
								"offset": 0,
								"slot": "18",
								"type": "t_struct(CertificateAndAward)104_storage"
							},
							{
								"astId": 20,
								"contract": "contracts/Profile.sol:Profile",
								"label": "companyExperience",
								"offset": 0,
								"slot": "20",
								"type": "t_struct(CompanyExperience)81_storage"
							},
							{
								"astId": 23,
								"contract": "contracts/Profile.sol:Profile",
								"label": "freelanceExperience",
								"offset": 0,
								"slot": "25",
								"type": "t_struct(FreelanceExperience)86_storage"
							}
						],
						"numberOfBytes": "864"
					},
					"t_struct(CertificateAndAward)104_storage": {
						"encoding": "inplace",
						"label": "struct Profile.CertificateAndAward",
						"members": [
							{
								"astId": 100,
								"contract": "contracts/Profile.sol:Profile",
								"label": "certificate",
								"offset": 0,
								"slot": "0",
								"type": "t_array(t_string_storage)dyn_storage"
							},
							{
								"astId": 103,
								"contract": "contracts/Profile.sol:Profile",
								"label": "award",
								"offset": 0,
								"slot": "1",
								"type": "t_array(t_string_storage)dyn_storage"
							}
						],
						"numberOfBytes": "64"
					},
					"t_struct(CompanyExperience)81_storage": {
						"encoding": "inplace",
						"label": "struct Profile.CompanyExperience",
						"members": [
							{
								"astId": 71,
								"contract": "contracts/Profile.sol:Profile",
								"label": "companyName",
								"offset": 0,
								"slot": "0",
								"type": "t_string_storage"
							},
							{
								"astId": 73,
								"contract": "contracts/Profile.sol:Profile",
								"label": "position",
								"offset": 0,
								"slot": "1",
								"type": "t_string_storage"
							},
							{
								"astId": 75,
								"contract": "contracts/Profile.sol:Profile",
								"label": "startDate",
								"offset": 0,
								"slot": "2",
								"type": "t_string_storage"
							},
							{
								"astId": 77,
								"contract": "contracts/Profile.sol:Profile",
								"label": "endDate",
								"offset": 0,
								"slot": "3",
								"type": "t_string_storage"
							},
							{
								"astId": 80,
								"contract": "contracts/Profile.sol:Profile",
								"label": "project",
								"offset": 0,
								"slot": "4",
								"type": "t_array(t_string_storage)dyn_storage"
							}
						],
						"numberOfBytes": "160"
					},
					"t_struct(Contract)59_storage": {
						"encoding": "inplace",
						"label": "struct Profile.Contract",
						"members": [
							{
								"astId": 48,
								"contract": "contracts/Profile.sol:Profile",
								"label": "aboutMe",
								"offset": 0,
								"slot": "0",
								"type": "t_string_storage"
							},
							{
								"astId": 50,
								"contract": "contracts/Profile.sol:Profile",
								"label": "email",
								"offset": 0,
								"slot": "1",
								"type": "t_string_storage"
							},
							{
								"astId": 52,
								"contract": "contracts/Profile.sol:Profile",
								"label": "phone",
								"offset": 0,
								"slot": "2",
								"type": "t_string_storage"
							},
							{
								"astId": 54,
								"contract": "contracts/Profile.sol:Profile",
								"label": "github",
								"offset": 0,
								"slot": "3",
								"type": "t_string_storage"
							},
							{
								"astId": 56,
								"contract": "contracts/Profile.sol:Profile",
								"label": "gitlab",
								"offset": 0,
								"slot": "4",
								"type": "t_string_storage"
							},
							{
								"astId": 58,
								"contract": "contracts/Profile.sol:Profile",
								"label": "linkin",
								"offset": 0,
								"slot": "5",
								"type": "t_string_storage"
							}
						],
						"numberOfBytes": "192"
					},
					"t_struct(Education)97_storage": {
						"encoding": "inplace",
						"label": "struct Profile.Education",
						"members": [
							{
								"astId": 88,
								"contract": "contracts/Profile.sol:Profile",
								"label": "startDate",
								"offset": 0,
								"slot": "0",
								"type": "t_string_storage"
							},
							{
								"astId": 90,
								"contract": "contracts/Profile.sol:Profile",
								"label": "endDate",
								"offset": 0,
								"slot": "1",
								"type": "t_string_storage"
							},
							{
								"astId": 92,
								"contract": "contracts/Profile.sol:Profile",
								"label": "univercity",
								"offset": 0,
								"slot": "2",
								"type": "t_string_storage"
							},
							{
								"astId": 94,
								"contract": "contracts/Profile.sol:Profile",
								"label": "major",
								"offset": 0,
								"slot": "3",
								"type": "t_string_storage"
							},
							{
								"astId": 96,
								"contract": "contracts/Profile.sol:Profile",
								"label": "finalProject",
								"offset": 0,
								"slot": "4",
								"type": "t_string_storage"
							}
						],
						"numberOfBytes": "160"
					},
					"t_struct(FreelanceExperience)86_storage": {
						"encoding": "inplace",
						"label": "struct Profile.FreelanceExperience",
						"members": [
							{
								"astId": 83,
								"contract": "contracts/Profile.sol:Profile",
								"label": "projectName",
								"offset": 0,
								"slot": "0",
								"type": "t_string_storage"
							},
							{
								"astId": 85,
								"contract": "contracts/Profile.sol:Profile",
								"label": "Detail",
								"offset": 0,
								"slot": "1",
								"type": "t_string_storage"
							}
						],
						"numberOfBytes": "64"
					},
					"t_struct(Information)46_storage": {
						"encoding": "inplace",
						"label": "struct Profile.Information",
						"members": [
							{
								"astId": 31,
								"contract": "contracts/Profile.sol:Profile",
								"label": "aboutMe",
								"offset": 0,
								"slot": "0",
								"type": "t_string_storage"
							},
							{
								"astId": 33,
								"contract": "contracts/Profile.sol:Profile",
								"label": "position",
								"offset": 0,
								"slot": "1",
								"type": "t_string_storage"
							},
							{
								"astId": 35,
								"contract": "contracts/Profile.sol:Profile",
								"label": "userAddress",
								"offset": 0,
								"slot": "2",
								"type": "t_address"
							},
							{
								"astId": 37,
								"contract": "contracts/Profile.sol:Profile",
								"label": "firstName",
								"offset": 0,
								"slot": "3",
								"type": "t_string_storage"
							},
							{
								"astId": 39,
								"contract": "contracts/Profile.sol:Profile",
								"label": "middleName",
								"offset": 0,
								"slot": "4",
								"type": "t_string_storage"
							},
							{
								"astId": 41,
								"contract": "contracts/Profile.sol:Profile",
								"label": "lastName",
								"offset": 0,
								"slot": "5",
								"type": "t_string_storage"
							},
							{
								"astId": 43,
								"contract": "contracts/Profile.sol:Profile",
								"label": "profileImage",
								"offset": 0,
								"slot": "6",
								"type": "t_string_storage"
							},
							{
								"astId": 45,
								"contract": "contracts/Profile.sol:Profile",
								"label": "createDate",
								"offset": 0,
								"slot": "7",
								"type": "t_uint256"
							}
						],
						"numberOfBytes": "256"
					},
					"t_struct(Skill)69_storage": {
						"encoding": "inplace",
						"label": "struct Profile.Skill",
						"members": [
							{
								"astId": 62,
								"contract": "contracts/Profile.sol:Profile",
								"label": "programmingLanguages",
								"offset": 0,
								"slot": "0",
								"type": "t_array(t_string_storage)dyn_storage"
							},
							{
								"astId": 65,
								"contract": "contracts/Profile.sol:Profile",
								"label": "framework",
								"offset": 0,
								"slot": "1",
								"type": "t_array(t_string_storage)dyn_storage"
							},
							{
								"astId": 68,
								"contract": "contracts/Profile.sol:Profile",
								"label": "databaseAndOther",
								"offset": 0,
								"slot": "2",
								"type": "t_array(t_string_storage)dyn_storage"
							}
						],
						"numberOfBytes": "96"
					},
					"t_uint256": {
						"encoding": "inplace",
						"label": "uint256",
						"numberOfBytes": "32"
					}
				}
			},
			"userdoc": {
				"kind": "user",
				"methods": {},
				"version": 1
			}
		}
	}
}