{
	"contracts/Profile.sol": {
		"Profile": {
			"abi": [
				{
					"inputs": [
						{
							"internalType": "string",
							"name": "email",
							"type": "string"
						},
						{
							"internalType": "string",
							"name": "phone",
							"type": "string"
						},
						{
							"internalType": "string",
							"name": "github",
							"type": "string"
						},
						{
							"internalType": "string",
							"name": "gitlab",
							"type": "string"
						},
						{
							"internalType": "string",
							"name": "linkin",
							"type": "string"
						}
					],
					"name": "createContract",
					"outputs": [],
					"stateMutability": "nonpayable",
					"type": "function"
				},
				{
					"inputs": [
						{
							"internalType": "string",
							"name": "firstName",
							"type": "string"
						},
						{
							"internalType": "string",
							"name": "middleName",
							"type": "string"
						},
						{
							"internalType": "string",
							"name": "lastName",
							"type": "string"
						},
						{
							"internalType": "string",
							"name": "profileImage",
							"type": "string"
						},
						{
							"internalType": "string",
							"name": "aboutMe",
							"type": "string"
						},
						{
							"internalType": "string",
							"name": "position",
							"type": "string"
						}
					],
					"name": "createInformation",
					"outputs": [],
					"stateMutability": "nonpayable",
					"type": "function"
				},
				{
					"inputs": [
						{
							"internalType": "string[]",
							"name": "programmingLanguages",
							"type": "string[]"
						},
						{
							"internalType": "string[]",
							"name": "framework",
							"type": "string[]"
						},
						{
							"internalType": "string[]",
							"name": "databaseAndOther",
							"type": "string[]"
						}
					],
					"name": "createSkill",
					"outputs": [],
					"stateMutability": "nonpayable",
					"type": "function"
				},
				{
					"inputs": [
						{
							"internalType": "string",
							"name": "startDate",
							"type": "string"
						},
						{
							"internalType": "string",
							"name": "endDate",
							"type": "string"
						},
						{
							"internalType": "string",
							"name": "univercity",
							"type": "string"
						},
						{
							"internalType": "string",
							"name": "major",
							"type": "string"
						},
						{
							"internalType": "string",
							"name": "finalProject",
							"type": "string"
						}
					],
					"name": "createUnivercity",
					"outputs": [],
					"stateMutability": "nonpayable",
					"type": "function"
				},
				{
					"inputs": [],
					"name": "delAllEducation",
					"outputs": [],
					"stateMutability": "nonpayable",
					"type": "function"
				},
				{
					"inputs": [],
					"name": "delInformaion",
					"outputs": [],
					"stateMutability": "nonpayable",
					"type": "function"
				},
				{
					"inputs": [],
					"name": "delProfile",
					"outputs": [],
					"stateMutability": "nonpayable",
					"type": "function"
				},
				{
					"inputs": [
						{
							"internalType": "uint256",
							"name": "index",
							"type": "uint256"
						}
					],
					"name": "getEducation",
					"outputs": [
						{
							"internalType": "string",
							"name": "",
							"type": "string"
						},
						{
							"internalType": "string",
							"name": "",
							"type": "string"
						},
						{
							"internalType": "string",
							"name": "",
							"type": "string"
						},
						{
							"internalType": "string",
							"name": "",
							"type": "string"
						}
					],
					"stateMutability": "view",
					"type": "function"
				},
				{
					"inputs": [],
					"name": "getEducationCount",
					"outputs": [
						{
							"internalType": "uint256",
							"name": "",
							"type": "uint256"
						}
					],
					"stateMutability": "view",
					"type": "function"
				},
				{
					"inputs": [
						{
							"internalType": "address",
							"name": "",
							"type": "address"
						}
					],
					"name": "profile",
					"outputs": [
						{
							"components": [
								{
									"internalType": "string",
									"name": "aboutMe",
									"type": "string"
								},
								{
									"internalType": "string",
									"name": "position",
									"type": "string"
								},
								{
									"internalType": "address",
									"name": "userAddress",
									"type": "address"
								},
								{
									"internalType": "string",
									"name": "firstName",
									"type": "string"
								},
								{
									"internalType": "string",
									"name": "middleName",
									"type": "string"
								},
								{
									"internalType": "string",
									"name": "lastName",
									"type": "string"
								},
								{
									"internalType": "string",
									"name": "profileImage",
									"type": "string"
								},
								{
									"internalType": "uint256",
									"name": "createDate",
									"type": "uint256"
								}
							],
							"internalType": "struct Profile.Information",
							"name": "information",
							"type": "tuple"
						},
						{
							"components": [
								{
									"internalType": "string",
									"name": "aboutMe",
									"type": "string"
								},
								{
									"internalType": "string",
									"name": "email",
									"type": "string"
								},
								{
									"internalType": "string",
									"name": "phone",
									"type": "string"
								},
								{
									"internalType": "string",
									"name": "github",
									"type": "string"
								},
								{
									"internalType": "string",
									"name": "gitlab",
									"type": "string"
								},
								{
									"internalType": "string",
									"name": "linkin",
									"type": "string"
								}
							],
							"internalType": "struct Profile.Contract",
							"name": "privateContract",
							"type": "tuple"
						},
						{
							"components": [
								{
									"internalType": "string[]",
									"name": "programmingLanguages",
									"type": "string[]"
								},
								{
									"internalType": "string[]",
									"name": "framework",
									"type": "string[]"
								},
								{
									"internalType": "string[]",
									"name": "databaseAndOther",
									"type": "string[]"
								}
							],
							"internalType": "struct Profile.Skill",
							"name": "skill",
							"type": "tuple"
						}
					],
					"stateMutability": "view",
					"type": "function"
				}
			],
			"devdoc": {
				"kind": "dev",
				"methods": {},
				"version": 1
			},
			"evm": {
				"assembly": "    /* \"contracts/Profile.sol\":60:4103  contract Profile {\r... */\n  mstore(0x40, 0x80)\n  callvalue\n  dup1\n  iszero\n  tag_1\n  jumpi\n  0x00\n  dup1\n  revert\ntag_1:\n  pop\n  dataSize(sub_0)\n  dup1\n  dataOffset(sub_0)\n  0x00\n  codecopy\n  0x00\n  return\nstop\n\nsub_0: assembly {\n        /* \"contracts/Profile.sol\":60:4103  contract Profile {\r... */\n      mstore(0x40, 0x80)\n      callvalue\n      dup1\n      iszero\n      tag_1\n      jumpi\n      0x00\n      dup1\n      revert\n    tag_1:\n      pop\n      jumpi(tag_2, lt(calldatasize, 0x04))\n      shr(0xe0, calldataload(0x00))\n      dup1\n      0x95ea3757\n      gt\n      tag_13\n      jumpi\n      dup1\n      0x95ea3757\n      eq\n      tag_8\n      jumpi\n      dup1\n      0x9dd9d0fd\n      eq\n      tag_9\n      jumpi\n      dup1\n      0xed2217ef\n      eq\n      tag_10\n      jumpi\n      dup1\n      0xf96e32f8\n      eq\n      tag_11\n      jumpi\n      dup1\n      0xfabce08f\n      eq\n      tag_12\n      jumpi\n      jump(tag_2)\n    tag_13:\n      dup1\n      0x3d984d0e\n      eq\n      tag_3\n      jumpi\n      dup1\n      0x6212fa02\n      eq\n      tag_4\n      jumpi\n      dup1\n      0x66244dfb\n      eq\n      tag_5\n      jumpi\n      dup1\n      0x72828388\n      eq\n      tag_6\n      jumpi\n      dup1\n      0x958791ae\n      eq\n      tag_7\n      jumpi\n    tag_2:\n      0x00\n      dup1\n      revert\n        /* \"contracts/Profile.sol\":2427:2815  function createSkill(string[] memory programmingLanguages, string[] memory framework, string[] memory databaseAndOther) public {\r... */\n    tag_3:\n      tag_14\n      0x04\n      dup1\n      calldatasize\n      sub\n      dup2\n      add\n      swap1\n      tag_15\n      swap2\n      swap1\n      tag_16\n      jump\t// in\n    tag_15:\n      tag_17\n      jump\t// in\n    tag_14:\n      stop\n        /* \"contracts/Profile.sol\":3696:3814  function getEducationCount() public view returns (uint) {\r... */\n    tag_4:\n      tag_18\n      tag_19\n      jump\t// in\n    tag_18:\n      mload(0x40)\n      tag_20\n      swap2\n      swap1\n      tag_21\n      jump\t// in\n    tag_20:\n      mload(0x40)\n      dup1\n      swap2\n      sub\n      swap1\n      return\n        /* \"contracts/Profile.sol\":2882:3352  function createUnivercity(string memory startDate, string memory endDate, string memory univercity, string memory major, string memory finalProject) public {\r... */\n    tag_5:\n      tag_22\n      0x04\n      dup1\n      calldatasize\n      sub\n      dup2\n      add\n      swap1\n      tag_23\n      swap2\n      swap1\n      tag_24\n      jump\t// in\n    tag_23:\n      tag_25\n      jump\t// in\n    tag_22:\n      stop\n        /* \"contracts/Profile.sol\":1836:2340  function createContract(string memory email, string memory phone, string memory github, string memory gitlab, string memory linkin) public {\r... */\n    tag_6:\n      tag_26\n      0x04\n      dup1\n      calldatasize\n      sub\n      dup2\n      add\n      swap1\n      tag_27\n      swap2\n      swap1\n      tag_24\n      jump\t// in\n    tag_27:\n      tag_28\n      jump\t// in\n    tag_26:\n      stop\n        /* \"contracts/Profile.sol\":1065:1781  function createInformation(string memory firstName, string memory middleName, string memory lastName,  string memory profileImage, string memory aboutMe, string memory position) public {\r... */\n    tag_7:\n      tag_29\n      0x04\n      dup1\n      calldatasize\n      sub\n      dup2\n      add\n      swap1\n      tag_30\n      swap2\n      swap1\n      tag_31\n      jump\t// in\n    tag_30:\n      tag_32\n      jump\t// in\n    tag_29:\n      stop\n        /* \"contracts/Profile.sol\":3924:4016  function delInformaion() external  {\r... */\n    tag_8:\n      tag_33\n      tag_34\n      jump\t// in\n    tag_33:\n      stop\n        /* \"contracts/Profile.sol\":234:274  mapping (address => Bio) public  profile */\n    tag_9:\n      tag_35\n      0x04\n      dup1\n      calldatasize\n      sub\n      dup2\n      add\n      swap1\n      tag_36\n      swap2\n      swap1\n      tag_37\n      jump\t// in\n    tag_36:\n      tag_38\n      jump\t// in\n    tag_35:\n      mload(0x40)\n      tag_39\n      swap4\n      swap3\n      swap2\n      swap1\n      tag_40\n      jump\t// in\n    tag_39:\n      mload(0x40)\n      dup1\n      swap2\n      sub\n      swap1\n      return\n        /* \"contracts/Profile.sol\":3824:3916  function delAllEducation() external  {\r... */\n    tag_10:\n      tag_41\n      tag_42\n      jump\t// in\n    tag_41:\n      stop\n        /* \"contracts/Profile.sol\":3361:3688  function getEducation(uint index) public view returns(string memory, string memory, string memory, string memory) {\r... */\n    tag_11:\n      tag_43\n      0x04\n      dup1\n      calldatasize\n      sub\n      dup2\n      add\n      swap1\n      tag_44\n      swap2\n      swap1\n      tag_45\n      jump\t// in\n    tag_44:\n      tag_46\n      jump\t// in\n    tag_43:\n      mload(0x40)\n      tag_47\n      swap5\n      swap4\n      swap3\n      swap2\n      swap1\n      tag_48\n      jump\t// in\n    tag_47:\n      mload(0x40)\n      dup1\n      swap2\n      sub\n      swap1\n      return\n        /* \"contracts/Profile.sol\":4024:4100  function delProfile() external {\r... */\n    tag_12:\n      tag_49\n      tag_50\n      jump\t// in\n    tag_49:\n      stop\n        /* \"contracts/Profile.sol\":2427:2815  function createSkill(string[] memory programmingLanguages, string[] memory framework, string[] memory databaseAndOther) public {\r... */\n    tag_17:\n        /* \"contracts/Profile.sol\":2572:2579  profile */\n      0x00\n        /* \"contracts/Profile.sol\":2572:2591  profile[msg.sender] */\n      dup1\n        /* \"contracts/Profile.sol\":2580:2590  msg.sender */\n      caller\n        /* \"contracts/Profile.sol\":2572:2591  profile[msg.sender] */\n      0xffffffffffffffffffffffffffffffffffffffff\n      and\n      0xffffffffffffffffffffffffffffffffffffffff\n      and\n      dup2\n      mstore\n      0x20\n      add\n      swap1\n      dup2\n      mstore\n      0x20\n      add\n      0x00\n      keccak256\n        /* \"contracts/Profile.sol\":2572:2597  profile[msg.sender].skill */\n      0x0e\n      add\n      0x00\n        /* \"contracts/Profile.sol\":2565:2597  delete profile[msg.sender].skill */\n      dup1\n      dup3\n      add\n      0x00\n      tag_52\n      swap2\n      swap1\n      tag_53\n      jump\t// in\n    tag_52:\n      0x01\n      dup3\n      add\n      0x00\n      tag_54\n      swap2\n      swap1\n      tag_53\n      jump\t// in\n    tag_54:\n      0x02\n      dup3\n      add\n      0x00\n      tag_55\n      swap2\n      swap1\n      tag_53\n      jump\t// in\n    tag_55:\n      pop\n      pop\n        /* \"contracts/Profile.sol\":2657:2677  programmingLanguages */\n      dup3\n        /* \"contracts/Profile.sol\":2608:2615  profile */\n      0x00\n        /* \"contracts/Profile.sol\":2608:2627  profile[msg.sender] */\n      dup1\n        /* \"contracts/Profile.sol\":2616:2626  msg.sender */\n      caller\n        /* \"contracts/Profile.sol\":2608:2627  profile[msg.sender] */\n      0xffffffffffffffffffffffffffffffffffffffff\n      and\n      0xffffffffffffffffffffffffffffffffffffffff\n      and\n      dup2\n      mstore\n      0x20\n      add\n      swap1\n      dup2\n      mstore\n      0x20\n      add\n      0x00\n      keccak256\n        /* \"contracts/Profile.sol\":2608:2633  profile[msg.sender].skill */\n      0x0e\n      add\n        /* \"contracts/Profile.sol\":2608:2654  profile[msg.sender].skill.programmingLanguages */\n      0x00\n      add\n        /* \"contracts/Profile.sol\":2608:2677  profile[msg.sender].skill.programmingLanguages = programmingLanguages */\n      swap1\n      dup1\n      mload\n      swap1\n      0x20\n      add\n      swap1\n      tag_56\n      swap3\n      swap2\n      swap1\n      tag_57\n      jump\t// in\n    tag_56:\n      pop\n        /* \"contracts/Profile.sol\":2726:2735  framework */\n      dup2\n        /* \"contracts/Profile.sol\":2688:2695  profile */\n      0x00\n        /* \"contracts/Profile.sol\":2688:2707  profile[msg.sender] */\n      dup1\n        /* \"contracts/Profile.sol\":2696:2706  msg.sender */\n      caller\n        /* \"contracts/Profile.sol\":2688:2707  profile[msg.sender] */\n      0xffffffffffffffffffffffffffffffffffffffff\n      and\n      0xffffffffffffffffffffffffffffffffffffffff\n      and\n      dup2\n      mstore\n      0x20\n      add\n      swap1\n      dup2\n      mstore\n      0x20\n      add\n      0x00\n      keccak256\n        /* \"contracts/Profile.sol\":2688:2713  profile[msg.sender].skill */\n      0x0e\n      add\n        /* \"contracts/Profile.sol\":2688:2723  profile[msg.sender].skill.framework */\n      0x01\n      add\n        /* \"contracts/Profile.sol\":2688:2735  profile[msg.sender].skill.framework = framework */\n      swap1\n      dup1\n      mload\n      swap1\n      0x20\n      add\n      swap1\n      tag_58\n      swap3\n      swap2\n      swap1\n      tag_57\n      jump\t// in\n    tag_58:\n      pop\n        /* \"contracts/Profile.sol\":2791:2807  databaseAndOther */\n      dup1\n        /* \"contracts/Profile.sol\":2746:2753  profile */\n      0x00\n        /* \"contracts/Profile.sol\":2746:2765  profile[msg.sender] */\n      dup1\n        /* \"contracts/Profile.sol\":2754:2764  msg.sender */\n      caller\n        /* \"contracts/Profile.sol\":2746:2765  profile[msg.sender] */\n      0xffffffffffffffffffffffffffffffffffffffff\n      and\n      0xffffffffffffffffffffffffffffffffffffffff\n      and\n      dup2\n      mstore\n      0x20\n      add\n      swap1\n      dup2\n      mstore\n      0x20\n      add\n      0x00\n      keccak256\n        /* \"contracts/Profile.sol\":2746:2771  profile[msg.sender].skill */\n      0x0e\n      add\n        /* \"contracts/Profile.sol\":2746:2788  profile[msg.sender].skill.databaseAndOther */\n      0x02\n      add\n        /* \"contracts/Profile.sol\":2746:2807  profile[msg.sender].skill.databaseAndOther = databaseAndOther */\n      swap1\n      dup1\n      mload\n      swap1\n      0x20\n      add\n      swap1\n      tag_59\n      swap3\n      swap2\n      swap1\n      tag_57\n      jump\t// in\n    tag_59:\n      pop\n        /* \"contracts/Profile.sol\":2427:2815  function createSkill(string[] memory programmingLanguages, string[] memory framework, string[] memory databaseAndOther) public {\r... */\n      pop\n      pop\n      pop\n      jump\t// out\n        /* \"contracts/Profile.sol\":3696:3814  function getEducationCount() public view returns (uint) {\r... */\n    tag_19:\n        /* \"contracts/Profile.sol\":3746:3750  uint */\n      0x00\n        /* \"contracts/Profile.sol\":3770:3777  profile */\n      dup1\n        /* \"contracts/Profile.sol\":3770:3789  profile[msg.sender] */\n      0x00\n        /* \"contracts/Profile.sol\":3778:3788  msg.sender */\n      caller\n        /* \"contracts/Profile.sol\":3770:3789  profile[msg.sender] */\n      0xffffffffffffffffffffffffffffffffffffffff\n      and\n      0xffffffffffffffffffffffffffffffffffffffff\n      and\n      dup2\n      mstore\n      0x20\n      add\n      swap1\n      dup2\n      mstore\n      0x20\n      add\n      0x00\n      keccak256\n        /* \"contracts/Profile.sol\":3770:3799  profile[msg.sender].education */\n      0x11\n      add\n        /* \"contracts/Profile.sol\":3770:3806  profile[msg.sender].education.length */\n      dup1\n      sload\n      swap1\n      pop\n        /* \"contracts/Profile.sol\":3763:3806  return profile[msg.sender].education.length */\n      swap1\n      pop\n        /* \"contracts/Profile.sol\":3696:3814  function getEducationCount() public view returns (uint) {\r... */\n      swap1\n      jump\t// out\n        /* \"contracts/Profile.sol\":2882:3352  function createUnivercity(string memory startDate, string memory endDate, string memory univercity, string memory major, string memory finalProject) public {\r... */\n    tag_25:\n        /* \"contracts/Profile.sol\":3049:3076  Education memory _education */\n      tag_62\n      tag_63\n      jump\t// in\n    tag_62:\n        /* \"contracts/Profile.sol\":3110:3119  startDate */\n      dup6\n        /* \"contracts/Profile.sol\":3087:3097  _education */\n      dup2\n        /* \"contracts/Profile.sol\":3087:3107  _education.startDate */\n      0x00\n      add\n        /* \"contracts/Profile.sol\":3087:3119  _education.startDate = startDate */\n      dup2\n      swap1\n      mstore\n      pop\n        /* \"contracts/Profile.sol\":3151:3158  endDate */\n      dup5\n        /* \"contracts/Profile.sol\":3130:3140  _education */\n      dup2\n        /* \"contracts/Profile.sol\":3130:3148  _education.endDate */\n      0x20\n      add\n        /* \"contracts/Profile.sol\":3130:3158  _education.endDate = endDate */\n      dup2\n      swap1\n      mstore\n      pop\n        /* \"contracts/Profile.sol\":3193:3203  univercity */\n      dup4\n        /* \"contracts/Profile.sol\":3169:3179  _education */\n      dup2\n        /* \"contracts/Profile.sol\":3169:3190  _education.univercity */\n      0x40\n      add\n        /* \"contracts/Profile.sol\":3169:3203  _education.univercity = univercity */\n      dup2\n      swap1\n      mstore\n      pop\n        /* \"contracts/Profile.sol\":3233:3238  major */\n      dup3\n        /* \"contracts/Profile.sol\":3214:3224  _education */\n      dup2\n        /* \"contracts/Profile.sol\":3214:3230  _education.major */\n      0x60\n      add\n        /* \"contracts/Profile.sol\":3214:3238  _education.major = major */\n      dup2\n      swap1\n      mstore\n      pop\n        /* \"contracts/Profile.sol\":3275:3287  finalProject */\n      dup2\n        /* \"contracts/Profile.sol\":3249:3259  _education */\n      dup2\n        /* \"contracts/Profile.sol\":3249:3272  _education.finalProject */\n      0x80\n      add\n        /* \"contracts/Profile.sol\":3249:3287  _education.finalProject = finalProject */\n      dup2\n      swap1\n      mstore\n      pop\n        /* \"contracts/Profile.sol\":3298:3305  profile */\n      0x00\n        /* \"contracts/Profile.sol\":3298:3317  profile[msg.sender] */\n      dup1\n        /* \"contracts/Profile.sol\":3306:3316  msg.sender */\n      caller\n        /* \"contracts/Profile.sol\":3298:3317  profile[msg.sender] */\n      0xffffffffffffffffffffffffffffffffffffffff\n      and\n      0xffffffffffffffffffffffffffffffffffffffff\n      and\n      dup2\n      mstore\n      0x20\n      add\n      swap1\n      dup2\n      mstore\n      0x20\n      add\n      0x00\n      keccak256\n        /* \"contracts/Profile.sol\":3298:3327  profile[msg.sender].education */\n      0x11\n      add\n        /* \"contracts/Profile.sol\":3333:3343  _education */\n      dup2\n        /* \"contracts/Profile.sol\":3298:3344  profile[msg.sender].education.push(_education) */\n      swap1\n      dup1\n      0x01\n      dup2\n      sload\n      add\n      dup1\n      dup3\n      sstore\n      dup1\n      swap2\n      pop\n      pop\n      0x01\n      swap1\n      sub\n      swap1\n      0x00\n      mstore\n      keccak256(0x00, 0x20)\n      swap1\n      0x05\n      mul\n      add\n      0x00\n      swap1\n      swap2\n      swap1\n      swap2\n      swap1\n      swap2\n      pop\n      0x00\n      dup3\n      add\n      mload\n      dup2\n      0x00\n      add\n      swap1\n      dup1\n      mload\n      swap1\n      0x20\n      add\n      swap1\n      tag_65\n      swap3\n      swap2\n      swap1\n      tag_66\n      jump\t// in\n    tag_65:\n      pop\n      0x20\n      dup3\n      add\n      mload\n      dup2\n      0x01\n      add\n      swap1\n      dup1\n      mload\n      swap1\n      0x20\n      add\n      swap1\n      tag_67\n      swap3\n      swap2\n      swap1\n      tag_66\n      jump\t// in\n    tag_67:\n      pop\n      0x40\n      dup3\n      add\n      mload\n      dup2\n      0x02\n      add\n      swap1\n      dup1\n      mload\n      swap1\n      0x20\n      add\n      swap1\n      tag_68\n      swap3\n      swap2\n      swap1\n      tag_66\n      jump\t// in\n    tag_68:\n      pop\n      0x60\n      dup3\n      add\n      mload\n      dup2\n      0x03\n      add\n      swap1\n      dup1\n      mload\n      swap1\n      0x20\n      add\n      swap1\n      tag_69\n      swap3\n      swap2\n      swap1\n      tag_66\n      jump\t// in\n    tag_69:\n      pop\n      0x80\n      dup3\n      add\n      mload\n      dup2\n      0x04\n      add\n      swap1\n      dup1\n      mload\n      swap1\n      0x20\n      add\n      swap1\n      tag_70\n      swap3\n      swap2\n      swap1\n      tag_66\n      jump\t// in\n    tag_70:\n      pop\n      pop\n      pop\n        /* \"contracts/Profile.sol\":3038:3352  {\r... */\n      pop\n        /* \"contracts/Profile.sol\":2882:3352  function createUnivercity(string memory startDate, string memory endDate, string memory univercity, string memory major, string memory finalProject) public {\r... */\n      pop\n      pop\n      pop\n      pop\n      pop\n      jump\t// out\n        /* \"contracts/Profile.sol\":1836:2340  function createContract(string memory email, string memory phone, string memory github, string memory gitlab, string memory linkin) public {\r... */\n    tag_28:\n        /* \"contracts/Profile.sol\":1993:2000  profile */\n      0x00\n        /* \"contracts/Profile.sol\":1993:2012  profile[msg.sender] */\n      dup1\n        /* \"contracts/Profile.sol\":2001:2011  msg.sender */\n      caller\n        /* \"contracts/Profile.sol\":1993:2012  profile[msg.sender] */\n      0xffffffffffffffffffffffffffffffffffffffff\n      and\n      0xffffffffffffffffffffffffffffffffffffffff\n      and\n      dup2\n      mstore\n      0x20\n      add\n      swap1\n      dup2\n      mstore\n      0x20\n      add\n      0x00\n      keccak256\n        /* \"contracts/Profile.sol\":1993:2028  profile[msg.sender].privateContract */\n      0x08\n      add\n      0x00\n        /* \"contracts/Profile.sol\":1986:2028  delete profile[msg.sender].privateContract */\n      dup1\n      dup3\n      add\n      0x00\n      tag_72\n      swap2\n      swap1\n      tag_73\n      jump\t// in\n    tag_72:\n      0x01\n      dup3\n      add\n      0x00\n      tag_74\n      swap2\n      swap1\n      tag_73\n      jump\t// in\n    tag_74:\n      0x02\n      dup3\n      add\n      0x00\n      tag_75\n      swap2\n      swap1\n      tag_73\n      jump\t// in\n    tag_75:\n      0x03\n      dup3\n      add\n      0x00\n      tag_76\n      swap2\n      swap1\n      tag_73\n      jump\t// in\n    tag_76:\n      0x04\n      dup3\n      add\n      0x00\n      tag_77\n      swap2\n      swap1\n      tag_73\n      jump\t// in\n    tag_77:\n      0x05\n      dup3\n      add\n      0x00\n      tag_78\n      swap2\n      swap1\n      tag_73\n      jump\t// in\n    tag_78:\n      pop\n      pop\n        /* \"contracts/Profile.sol\":2083:2088  email */\n      dup5\n        /* \"contracts/Profile.sol\":2039:2046  profile */\n      0x00\n        /* \"contracts/Profile.sol\":2039:2058  profile[msg.sender] */\n      dup1\n        /* \"contracts/Profile.sol\":2047:2057  msg.sender */\n      caller\n        /* \"contracts/Profile.sol\":2039:2058  profile[msg.sender] */\n      0xffffffffffffffffffffffffffffffffffffffff\n      and\n      0xffffffffffffffffffffffffffffffffffffffff\n      and\n      dup2\n      mstore\n      0x20\n      add\n      swap1\n      dup2\n      mstore\n      0x20\n      add\n      0x00\n      keccak256\n        /* \"contracts/Profile.sol\":2039:2074  profile[msg.sender].privateContract */\n      0x08\n      add\n        /* \"contracts/Profile.sol\":2039:2080  profile[msg.sender].privateContract.email */\n      0x01\n      add\n        /* \"contracts/Profile.sol\":2039:2088  profile[msg.sender].privateContract.email = email */\n      swap1\n      dup1\n      mload\n      swap1\n      0x20\n      add\n      swap1\n      tag_79\n      swap3\n      swap2\n      swap1\n      tag_66\n      jump\t// in\n    tag_79:\n      pop\n        /* \"contracts/Profile.sol\":2143:2148  phone */\n      dup4\n        /* \"contracts/Profile.sol\":2099:2106  profile */\n      0x00\n        /* \"contracts/Profile.sol\":2099:2118  profile[msg.sender] */\n      dup1\n        /* \"contracts/Profile.sol\":2107:2117  msg.sender */\n      caller\n        /* \"contracts/Profile.sol\":2099:2118  profile[msg.sender] */\n      0xffffffffffffffffffffffffffffffffffffffff\n      and\n      0xffffffffffffffffffffffffffffffffffffffff\n      and\n      dup2\n      mstore\n      0x20\n      add\n      swap1\n      dup2\n      mstore\n      0x20\n      add\n      0x00\n      keccak256\n        /* \"contracts/Profile.sol\":2099:2134  profile[msg.sender].privateContract */\n      0x08\n      add\n        /* \"contracts/Profile.sol\":2099:2140  profile[msg.sender].privateContract.phone */\n      0x02\n      add\n        /* \"contracts/Profile.sol\":2099:2148  profile[msg.sender].privateContract.phone = phone */\n      swap1\n      dup1\n      mload\n      swap1\n      0x20\n      add\n      swap1\n      tag_80\n      swap3\n      swap2\n      swap1\n      tag_66\n      jump\t// in\n    tag_80:\n      pop\n        /* \"contracts/Profile.sol\":2204:2210  github */\n      dup3\n        /* \"contracts/Profile.sol\":2159:2166  profile */\n      0x00\n        /* \"contracts/Profile.sol\":2159:2178  profile[msg.sender] */\n      dup1\n        /* \"contracts/Profile.sol\":2167:2177  msg.sender */\n      caller\n        /* \"contracts/Profile.sol\":2159:2178  profile[msg.sender] */\n      0xffffffffffffffffffffffffffffffffffffffff\n      and\n      0xffffffffffffffffffffffffffffffffffffffff\n      and\n      dup2\n      mstore\n      0x20\n      add\n      swap1\n      dup2\n      mstore\n      0x20\n      add\n      0x00\n      keccak256\n        /* \"contracts/Profile.sol\":2159:2194  profile[msg.sender].privateContract */\n      0x08\n      add\n        /* \"contracts/Profile.sol\":2159:2201  profile[msg.sender].privateContract.github */\n      0x03\n      add\n        /* \"contracts/Profile.sol\":2159:2210  profile[msg.sender].privateContract.github = github */\n      swap1\n      dup1\n      mload\n      swap1\n      0x20\n      add\n      swap1\n      tag_81\n      swap3\n      swap2\n      swap1\n      tag_66\n      jump\t// in\n    tag_81:\n      pop\n        /* \"contracts/Profile.sol\":2265:2271  gitlab */\n      dup2\n        /* \"contracts/Profile.sol\":2221:2228  profile */\n      0x00\n        /* \"contracts/Profile.sol\":2221:2240  profile[msg.sender] */\n      dup1\n        /* \"contracts/Profile.sol\":2229:2239  msg.sender */\n      caller\n        /* \"contracts/Profile.sol\":2221:2240  profile[msg.sender] */\n      0xffffffffffffffffffffffffffffffffffffffff\n      and\n      0xffffffffffffffffffffffffffffffffffffffff\n      and\n      dup2\n      mstore\n      0x20\n      add\n      swap1\n      dup2\n      mstore\n      0x20\n      add\n      0x00\n      keccak256\n        /* \"contracts/Profile.sol\":2221:2256  profile[msg.sender].privateContract */\n      0x08\n      add\n        /* \"contracts/Profile.sol\":2221:2262  profile[msg.sender].privateContract.phone */\n      0x02\n      add\n        /* \"contracts/Profile.sol\":2221:2271  profile[msg.sender].privateContract.phone = gitlab */\n      swap1\n      dup1\n      mload\n      swap1\n      0x20\n      add\n      swap1\n      tag_82\n      swap3\n      swap2\n      swap1\n      tag_66\n      jump\t// in\n    tag_82:\n      pop\n        /* \"contracts/Profile.sol\":2326:2332  linkin */\n      dup1\n        /* \"contracts/Profile.sol\":2282:2289  profile */\n      0x00\n        /* \"contracts/Profile.sol\":2282:2301  profile[msg.sender] */\n      dup1\n        /* \"contracts/Profile.sol\":2290:2300  msg.sender */\n      caller\n        /* \"contracts/Profile.sol\":2282:2301  profile[msg.sender] */\n      0xffffffffffffffffffffffffffffffffffffffff\n      and\n      0xffffffffffffffffffffffffffffffffffffffff\n      and\n      dup2\n      mstore\n      0x20\n      add\n      swap1\n      dup2\n      mstore\n      0x20\n      add\n      0x00\n      keccak256\n        /* \"contracts/Profile.sol\":2282:2317  profile[msg.sender].privateContract */\n      0x08\n      add\n        /* \"contracts/Profile.sol\":2282:2323  profile[msg.sender].privateContract.email */\n      0x01\n      add\n        /* \"contracts/Profile.sol\":2282:2332  profile[msg.sender].privateContract.email = linkin */\n      swap1\n      dup1\n      mload\n      swap1\n      0x20\n      add\n      swap1\n      tag_83\n      swap3\n      swap2\n      swap1\n      tag_66\n      jump\t// in\n    tag_83:\n      pop\n        /* \"contracts/Profile.sol\":1836:2340  function createContract(string memory email, string memory phone, string memory github, string memory gitlab, string memory linkin) public {\r... */\n      pop\n      pop\n      pop\n      pop\n      pop\n      jump\t// out\n        /* \"contracts/Profile.sol\":1065:1781  function createInformation(string memory firstName, string memory middleName, string memory lastName,  string memory profileImage, string memory aboutMe, string memory position) public {\r... */\n    tag_32:\n        /* \"contracts/Profile.sol\":1305:1314  firstName */\n      dup6\n        /* \"contracts/Profile.sol\":1261:1268  profile */\n      0x00\n        /* \"contracts/Profile.sol\":1261:1280  profile[msg.sender] */\n      dup1\n        /* \"contracts/Profile.sol\":1269:1279  msg.sender */\n      caller\n        /* \"contracts/Profile.sol\":1261:1280  profile[msg.sender] */\n      0xffffffffffffffffffffffffffffffffffffffff\n      and\n      0xffffffffffffffffffffffffffffffffffffffff\n      and\n      dup2\n      mstore\n      0x20\n      add\n      swap1\n      dup2\n      mstore\n      0x20\n      add\n      0x00\n      keccak256\n        /* \"contracts/Profile.sol\":1261:1292  profile[msg.sender].information */\n      0x00\n      add\n        /* \"contracts/Profile.sol\":1261:1302  profile[msg.sender].information.firstName */\n      0x03\n      add\n        /* \"contracts/Profile.sol\":1261:1314  profile[msg.sender].information.firstName = firstName */\n      swap1\n      dup1\n      mload\n      swap1\n      0x20\n      add\n      swap1\n      tag_85\n      swap3\n      swap2\n      swap1\n      tag_66\n      jump\t// in\n    tag_85:\n      pop\n        /* \"contracts/Profile.sol\":1370:1380  middleName */\n      dup5\n        /* \"contracts/Profile.sol\":1325:1332  profile */\n      0x00\n        /* \"contracts/Profile.sol\":1325:1344  profile[msg.sender] */\n      dup1\n        /* \"contracts/Profile.sol\":1333:1343  msg.sender */\n      caller\n        /* \"contracts/Profile.sol\":1325:1344  profile[msg.sender] */\n      0xffffffffffffffffffffffffffffffffffffffff\n      and\n      0xffffffffffffffffffffffffffffffffffffffff\n      and\n      dup2\n      mstore\n      0x20\n      add\n      swap1\n      dup2\n      mstore\n      0x20\n      add\n      0x00\n      keccak256\n        /* \"contracts/Profile.sol\":1325:1356  profile[msg.sender].information */\n      0x00\n      add\n        /* \"contracts/Profile.sol\":1325:1367  profile[msg.sender].information.middleName */\n      0x04\n      add\n        /* \"contracts/Profile.sol\":1325:1380  profile[msg.sender].information.middleName = middleName */\n      swap1\n      dup1\n      mload\n      swap1\n      0x20\n      add\n      swap1\n      tag_86\n      swap3\n      swap2\n      swap1\n      tag_66\n      jump\t// in\n    tag_86:\n      pop\n        /* \"contracts/Profile.sol\":1434:1442  lastName */\n      dup4\n        /* \"contracts/Profile.sol\":1391:1398  profile */\n      0x00\n        /* \"contracts/Profile.sol\":1391:1410  profile[msg.sender] */\n      dup1\n        /* \"contracts/Profile.sol\":1399:1409  msg.sender */\n      caller\n        /* \"contracts/Profile.sol\":1391:1410  profile[msg.sender] */\n      0xffffffffffffffffffffffffffffffffffffffff\n      and\n      0xffffffffffffffffffffffffffffffffffffffff\n      and\n      dup2\n      mstore\n      0x20\n      add\n      swap1\n      dup2\n      mstore\n      0x20\n      add\n      0x00\n      keccak256\n        /* \"contracts/Profile.sol\":1391:1422  profile[msg.sender].information */\n      0x00\n      add\n        /* \"contracts/Profile.sol\":1391:1431  profile[msg.sender].information.lastName */\n      0x05\n      add\n        /* \"contracts/Profile.sol\":1391:1442  profile[msg.sender].information.lastName = lastName */\n      swap1\n      dup1\n      mload\n      swap1\n      0x20\n      add\n      swap1\n      tag_87\n      swap3\n      swap2\n      swap1\n      tag_66\n      jump\t// in\n    tag_87:\n      pop\n        /* \"contracts/Profile.sol\":1500:1512  profileImage */\n      dup3\n        /* \"contracts/Profile.sol\":1453:1460  profile */\n      0x00\n        /* \"contracts/Profile.sol\":1453:1472  profile[msg.sender] */\n      dup1\n        /* \"contracts/Profile.sol\":1461:1471  msg.sender */\n      caller\n        /* \"contracts/Profile.sol\":1453:1472  profile[msg.sender] */\n      0xffffffffffffffffffffffffffffffffffffffff\n      and\n      0xffffffffffffffffffffffffffffffffffffffff\n      and\n      dup2\n      mstore\n      0x20\n      add\n      swap1\n      dup2\n      mstore\n      0x20\n      add\n      0x00\n      keccak256\n        /* \"contracts/Profile.sol\":1453:1484  profile[msg.sender].information */\n      0x00\n      add\n        /* \"contracts/Profile.sol\":1453:1497  profile[msg.sender].information.profileImage */\n      0x06\n      add\n        /* \"contracts/Profile.sol\":1453:1512  profile[msg.sender].information.profileImage = profileImage */\n      swap1\n      dup1\n      mload\n      swap1\n      0x20\n      add\n      swap1\n      tag_88\n      swap3\n      swap2\n      swap1\n      tag_66\n      jump\t// in\n    tag_88:\n      pop\n        /* \"contracts/Profile.sol\":1565:1572  aboutMe */\n      dup2\n        /* \"contracts/Profile.sol\":1523:1530  profile */\n      0x00\n        /* \"contracts/Profile.sol\":1523:1542  profile[msg.sender] */\n      dup1\n        /* \"contracts/Profile.sol\":1531:1541  msg.sender */\n      caller\n        /* \"contracts/Profile.sol\":1523:1542  profile[msg.sender] */\n      0xffffffffffffffffffffffffffffffffffffffff\n      and\n      0xffffffffffffffffffffffffffffffffffffffff\n      and\n      dup2\n      mstore\n      0x20\n      add\n      swap1\n      dup2\n      mstore\n      0x20\n      add\n      0x00\n      keccak256\n        /* \"contracts/Profile.sol\":1523:1554  profile[msg.sender].information */\n      0x00\n      add\n        /* \"contracts/Profile.sol\":1523:1562  profile[msg.sender].information.aboutMe */\n      0x00\n      add\n        /* \"contracts/Profile.sol\":1523:1572  profile[msg.sender].information.aboutMe = aboutMe */\n      swap1\n      dup1\n      mload\n      swap1\n      0x20\n      add\n      swap1\n      tag_89\n      swap3\n      swap2\n      swap1\n      tag_66\n      jump\t// in\n    tag_89:\n      pop\n        /* \"contracts/Profile.sol\":1626:1634  position */\n      dup1\n        /* \"contracts/Profile.sol\":1583:1590  profile */\n      0x00\n        /* \"contracts/Profile.sol\":1583:1602  profile[msg.sender] */\n      dup1\n        /* \"contracts/Profile.sol\":1591:1601  msg.sender */\n      caller\n        /* \"contracts/Profile.sol\":1583:1602  profile[msg.sender] */\n      0xffffffffffffffffffffffffffffffffffffffff\n      and\n      0xffffffffffffffffffffffffffffffffffffffff\n      and\n      dup2\n      mstore\n      0x20\n      add\n      swap1\n      dup2\n      mstore\n      0x20\n      add\n      0x00\n      keccak256\n        /* \"contracts/Profile.sol\":1583:1614  profile[msg.sender].information */\n      0x00\n      add\n        /* \"contracts/Profile.sol\":1583:1623  profile[msg.sender].information.position */\n      0x01\n      add\n        /* \"contracts/Profile.sol\":1583:1634  profile[msg.sender].information.position = position */\n      swap1\n      dup1\n      mload\n      swap1\n      0x20\n      add\n      swap1\n      tag_90\n      swap3\n      swap2\n      swap1\n      tag_66\n      jump\t// in\n    tag_90:\n      pop\n        /* \"contracts/Profile.sol\":1691:1701  msg.sender */\n      caller\n        /* \"contracts/Profile.sol\":1645:1652  profile */\n      0x00\n        /* \"contracts/Profile.sol\":1645:1664  profile[msg.sender] */\n      dup1\n        /* \"contracts/Profile.sol\":1653:1663  msg.sender */\n      caller\n        /* \"contracts/Profile.sol\":1645:1664  profile[msg.sender] */\n      0xffffffffffffffffffffffffffffffffffffffff\n      and\n      0xffffffffffffffffffffffffffffffffffffffff\n      and\n      dup2\n      mstore\n      0x20\n      add\n      swap1\n      dup2\n      mstore\n      0x20\n      add\n      0x00\n      keccak256\n        /* \"contracts/Profile.sol\":1645:1676  profile[msg.sender].information */\n      0x00\n      add\n        /* \"contracts/Profile.sol\":1645:1688  profile[msg.sender].information.userAddress */\n      0x02\n      add\n      0x00\n        /* \"contracts/Profile.sol\":1645:1701  profile[msg.sender].information.userAddress = msg.sender */\n      0x0100\n      exp\n      dup2\n      sload\n      dup2\n      0xffffffffffffffffffffffffffffffffffffffff\n      mul\n      not\n      and\n      swap1\n      dup4\n      0xffffffffffffffffffffffffffffffffffffffff\n      and\n      mul\n      or\n      swap1\n      sstore\n      pop\n        /* \"contracts/Profile.sol\":1758:1773  block.timestamp */\n      timestamp\n        /* \"contracts/Profile.sol\":1713:1720  profile */\n      0x00\n        /* \"contracts/Profile.sol\":1713:1732  profile[msg.sender] */\n      dup1\n        /* \"contracts/Profile.sol\":1721:1731  msg.sender */\n      caller\n        /* \"contracts/Profile.sol\":1713:1732  profile[msg.sender] */\n      0xffffffffffffffffffffffffffffffffffffffff\n      and\n      0xffffffffffffffffffffffffffffffffffffffff\n      and\n      dup2\n      mstore\n      0x20\n      add\n      swap1\n      dup2\n      mstore\n      0x20\n      add\n      0x00\n      keccak256\n        /* \"contracts/Profile.sol\":1713:1744  profile[msg.sender].information */\n      0x00\n      add\n        /* \"contracts/Profile.sol\":1713:1755  profile[msg.sender].information.createDate */\n      0x07\n      add\n        /* \"contracts/Profile.sol\":1713:1773  profile[msg.sender].information.createDate = block.timestamp */\n      dup2\n      swap1\n      sstore\n      pop\n        /* \"contracts/Profile.sol\":1065:1781  function createInformation(string memory firstName, string memory middleName, string memory lastName,  string memory profileImage, string memory aboutMe, string memory position) public {\r... */\n      pop\n      pop\n      pop\n      pop\n      pop\n      pop\n      jump\t// out\n        /* \"contracts/Profile.sol\":3924:4016  function delInformaion() external  {\r... */\n    tag_34:\n        /* \"contracts/Profile.sol\":3977:3984  profile */\n      0x00\n        /* \"contracts/Profile.sol\":3977:3996  profile[msg.sender] */\n      dup1\n        /* \"contracts/Profile.sol\":3985:3995  msg.sender */\n      caller\n        /* \"contracts/Profile.sol\":3977:3996  profile[msg.sender] */\n      0xffffffffffffffffffffffffffffffffffffffff\n      and\n      0xffffffffffffffffffffffffffffffffffffffff\n      and\n      dup2\n      mstore\n      0x20\n      add\n      swap1\n      dup2\n      mstore\n      0x20\n      add\n      0x00\n      keccak256\n        /* \"contracts/Profile.sol\":3977:4008  profile[msg.sender].information */\n      0x00\n      add\n      0x00\n        /* \"contracts/Profile.sol\":3970:4008  delete profile[msg.sender].information */\n      dup1\n      dup3\n      add\n      0x00\n      tag_92\n      swap2\n      swap1\n      tag_73\n      jump\t// in\n    tag_92:\n      0x01\n      dup3\n      add\n      0x00\n      tag_93\n      swap2\n      swap1\n      tag_73\n      jump\t// in\n    tag_93:\n      0x02\n      dup3\n      add\n      exp(0x0100, 0x00)\n      dup2\n      sload\n      swap1\n      0xffffffffffffffffffffffffffffffffffffffff\n      mul\n      not\n      and\n      swap1\n      sstore\n      0x03\n      dup3\n      add\n      0x00\n      tag_94\n      swap2\n      swap1\n      tag_73\n      jump\t// in\n    tag_94:\n      0x04\n      dup3\n      add\n      0x00\n      tag_95\n      swap2\n      swap1\n      tag_73\n      jump\t// in\n    tag_95:\n      0x05\n      dup3\n      add\n      0x00\n      tag_96\n      swap2\n      swap1\n      tag_73\n      jump\t// in\n    tag_96:\n      0x06\n      dup3\n      add\n      0x00\n      tag_97\n      swap2\n      swap1\n      tag_73\n      jump\t// in\n    tag_97:\n      0x07\n      dup3\n      add\n      0x00\n      swap1\n      sstore\n      pop\n      pop\n        /* \"contracts/Profile.sol\":3924:4016  function delInformaion() external  {\r... */\n      jump\t// out\n        /* \"contracts/Profile.sol\":234:274  mapping (address => Bio) public  profile */\n    tag_38:\n      mstore(0x20, 0x00)\n      dup1\n      0x00\n      mstore\n      keccak256(0x00, 0x40)\n      0x00\n      swap2\n      pop\n      swap1\n      pop\n      dup1\n      0x00\n      add\n      mload(0x40)\n      dup1\n      0x0100\n      add\n      0x40\n      mstore\n      swap1\n      dup2\n      0x00\n      dup3\n      add\n      dup1\n      sload\n      tag_98\n      swap1\n      tag_99\n      jump\t// in\n    tag_98:\n      dup1\n      0x1f\n      add\n      0x20\n      dup1\n      swap2\n      div\n      mul\n      0x20\n      add\n      mload(0x40)\n      swap1\n      dup2\n      add\n      0x40\n      mstore\n      dup1\n      swap3\n      swap2\n      swap1\n      dup2\n      dup2\n      mstore\n      0x20\n      add\n      dup3\n      dup1\n      sload\n      tag_100\n      swap1\n      tag_99\n      jump\t// in\n    tag_100:\n      dup1\n      iszero\n      tag_101\n      jumpi\n      dup1\n      0x1f\n      lt\n      tag_102\n      jumpi\n      0x0100\n      dup1\n      dup4\n      sload\n      div\n      mul\n      dup4\n      mstore\n      swap2\n      0x20\n      add\n      swap2\n      jump(tag_101)\n    tag_102:\n      dup3\n      add\n      swap2\n      swap1\n      0x00\n      mstore\n      keccak256(0x00, 0x20)\n      swap1\n    tag_103:\n      dup2\n      sload\n      dup2\n      mstore\n      swap1\n      0x01\n      add\n      swap1\n      0x20\n      add\n      dup1\n      dup4\n      gt\n      tag_103\n      jumpi\n      dup3\n      swap1\n      sub\n      0x1f\n      and\n      dup3\n      add\n      swap2\n    tag_101:\n      pop\n      pop\n      pop\n      pop\n      pop\n      dup2\n      mstore\n      0x20\n      add\n      0x01\n      dup3\n      add\n      dup1\n      sload\n      tag_104\n      swap1\n      tag_99\n      jump\t// in\n    tag_104:\n      dup1\n      0x1f\n      add\n      0x20\n      dup1\n      swap2\n      div\n      mul\n      0x20\n      add\n      mload(0x40)\n      swap1\n      dup2\n      add\n      0x40\n      mstore\n      dup1\n      swap3\n      swap2\n      swap1\n      dup2\n      dup2\n      mstore\n      0x20\n      add\n      dup3\n      dup1\n      sload\n      tag_105\n      swap1\n      tag_99\n      jump\t// in\n    tag_105:\n      dup1\n      iszero\n      tag_106\n      jumpi\n      dup1\n      0x1f\n      lt\n      tag_107\n      jumpi\n      0x0100\n      dup1\n      dup4\n      sload\n      div\n      mul\n      dup4\n      mstore\n      swap2\n      0x20\n      add\n      swap2\n      jump(tag_106)\n    tag_107:\n      dup3\n      add\n      swap2\n      swap1\n      0x00\n      mstore\n      keccak256(0x00, 0x20)\n      swap1\n    tag_108:\n      dup2\n      sload\n      dup2\n      mstore\n      swap1\n      0x01\n      add\n      swap1\n      0x20\n      add\n      dup1\n      dup4\n      gt\n      tag_108\n      jumpi\n      dup3\n      swap1\n      sub\n      0x1f\n      and\n      dup3\n      add\n      swap2\n    tag_106:\n      pop\n      pop\n      pop\n      pop\n      pop\n      dup2\n      mstore\n      0x20\n      add\n      0x02\n      dup3\n      add\n      0x00\n      swap1\n      sload\n      swap1\n      0x0100\n      exp\n      swap1\n      div\n      0xffffffffffffffffffffffffffffffffffffffff\n      and\n      0xffffffffffffffffffffffffffffffffffffffff\n      and\n      0xffffffffffffffffffffffffffffffffffffffff\n      and\n      dup2\n      mstore\n      0x20\n      add\n      0x03\n      dup3\n      add\n      dup1\n      sload\n      tag_109\n      swap1\n      tag_99\n      jump\t// in\n    tag_109:\n      dup1\n      0x1f\n      add\n      0x20\n      dup1\n      swap2\n      div\n      mul\n      0x20\n      add\n      mload(0x40)\n      swap1\n      dup2\n      add\n      0x40\n      mstore\n      dup1\n      swap3\n      swap2\n      swap1\n      dup2\n      dup2\n      mstore\n      0x20\n      add\n      dup3\n      dup1\n      sload\n      tag_110\n      swap1\n      tag_99\n      jump\t// in\n    tag_110:\n      dup1\n      iszero\n      tag_111\n      jumpi\n      dup1\n      0x1f\n      lt\n      tag_112\n      jumpi\n      0x0100\n      dup1\n      dup4\n      sload\n      div\n      mul\n      dup4\n      mstore\n      swap2\n      0x20\n      add\n      swap2\n      jump(tag_111)\n    tag_112:\n      dup3\n      add\n      swap2\n      swap1\n      0x00\n      mstore\n      keccak256(0x00, 0x20)\n      swap1\n    tag_113:\n      dup2\n      sload\n      dup2\n      mstore\n      swap1\n      0x01\n      add\n      swap1\n      0x20\n      add\n      dup1\n      dup4\n      gt\n      tag_113\n      jumpi\n      dup3\n      swap1\n      sub\n      0x1f\n      and\n      dup3\n      add\n      swap2\n    tag_111:\n      pop\n      pop\n      pop\n      pop\n      pop\n      dup2\n      mstore\n      0x20\n      add\n      0x04\n      dup3\n      add\n      dup1\n      sload\n      tag_114\n      swap1\n      tag_99\n      jump\t// in\n    tag_114:\n      dup1\n      0x1f\n      add\n      0x20\n      dup1\n      swap2\n      div\n      mul\n      0x20\n      add\n      mload(0x40)\n      swap1\n      dup2\n      add\n      0x40\n      mstore\n      dup1\n      swap3\n      swap2\n      swap1\n      dup2\n      dup2\n      mstore\n      0x20\n      add\n      dup3\n      dup1\n      sload\n      tag_115\n      swap1\n      tag_99\n      jump\t// in\n    tag_115:\n      dup1\n      iszero\n      tag_116\n      jumpi\n      dup1\n      0x1f\n      lt\n      tag_117\n      jumpi\n      0x0100\n      dup1\n      dup4\n      sload\n      div\n      mul\n      dup4\n      mstore\n      swap2\n      0x20\n      add\n      swap2\n      jump(tag_116)\n    tag_117:\n      dup3\n      add\n      swap2\n      swap1\n      0x00\n      mstore\n      keccak256(0x00, 0x20)\n      swap1\n    tag_118:\n      dup2\n      sload\n      dup2\n      mstore\n      swap1\n      0x01\n      add\n      swap1\n      0x20\n      add\n      dup1\n      dup4\n      gt\n      tag_118\n      jumpi\n      dup3\n      swap1\n      sub\n      0x1f\n      and\n      dup3\n      add\n      swap2\n    tag_116:\n      pop\n      pop\n      pop\n      pop\n      pop\n      dup2\n      mstore\n      0x20\n      add\n      0x05\n      dup3\n      add\n      dup1\n      sload\n      tag_119\n      swap1\n      tag_99\n      jump\t// in\n    tag_119:\n      dup1\n      0x1f\n      add\n      0x20\n      dup1\n      swap2\n      div\n      mul\n      0x20\n      add\n      mload(0x40)\n      swap1\n      dup2\n      add\n      0x40\n      mstore\n      dup1\n      swap3\n      swap2\n      swap1\n      dup2\n      dup2\n      mstore\n      0x20\n      add\n      dup3\n      dup1\n      sload\n      tag_120\n      swap1\n      tag_99\n      jump\t// in\n    tag_120:\n      dup1\n      iszero\n      tag_121\n      jumpi\n      dup1\n      0x1f\n      lt\n      tag_122\n      jumpi\n      0x0100\n      dup1\n      dup4\n      sload\n      div\n      mul\n      dup4\n      mstore\n      swap2\n      0x20\n      add\n      swap2\n      jump(tag_121)\n    tag_122:\n      dup3\n      add\n      swap2\n      swap1\n      0x00\n      mstore\n      keccak256(0x00, 0x20)\n      swap1\n    tag_123:\n      dup2\n      sload\n      dup2\n      mstore\n      swap1\n      0x01\n      add\n      swap1\n      0x20\n      add\n      dup1\n      dup4\n      gt\n      tag_123\n      jumpi\n      dup3\n      swap1\n      sub\n      0x1f\n      and\n      dup3\n      add\n      swap2\n    tag_121:\n      pop\n      pop\n      pop\n      pop\n      pop\n      dup2\n      mstore\n      0x20\n      add\n      0x06\n      dup3\n      add\n      dup1\n      sload\n      tag_124\n      swap1\n      tag_99\n      jump\t// in\n    tag_124:\n      dup1\n      0x1f\n      add\n      0x20\n      dup1\n      swap2\n      div\n      mul\n      0x20\n      add\n      mload(0x40)\n      swap1\n      dup2\n      add\n      0x40\n      mstore\n      dup1\n      swap3\n      swap2\n      swap1\n      dup2\n      dup2\n      mstore\n      0x20\n      add\n      dup3\n      dup1\n      sload\n      tag_125\n      swap1\n      tag_99\n      jump\t// in\n    tag_125:\n      dup1\n      iszero\n      tag_126\n      jumpi\n      dup1\n      0x1f\n      lt\n      tag_127\n      jumpi\n      0x0100\n      dup1\n      dup4\n      sload\n      div\n      mul\n      dup4\n      mstore\n      swap2\n      0x20\n      add\n      swap2\n      jump(tag_126)\n    tag_127:\n      dup3\n      add\n      swap2\n      swap1\n      0x00\n      mstore\n      keccak256(0x00, 0x20)\n      swap1\n    tag_128:\n      dup2\n      sload\n      dup2\n      mstore\n      swap1\n      0x01\n      add\n      swap1\n      0x20\n      add\n      dup1\n      dup4\n      gt\n      tag_128\n      jumpi\n      dup3\n      swap1\n      sub\n      0x1f\n      and\n      dup3\n      add\n      swap2\n    tag_126:\n      pop\n      pop\n      pop\n      pop\n      pop\n      dup2\n      mstore\n      0x20\n      add\n      0x07\n      dup3\n      add\n      sload\n      dup2\n      mstore\n      pop\n      pop\n      swap1\n      dup1\n      0x08\n      add\n      mload(0x40)\n      dup1\n      0xc0\n      add\n      0x40\n      mstore\n      swap1\n      dup2\n      0x00\n      dup3\n      add\n      dup1\n      sload\n      tag_129\n      swap1\n      tag_99\n      jump\t// in\n    tag_129:\n      dup1\n      0x1f\n      add\n      0x20\n      dup1\n      swap2\n      div\n      mul\n      0x20\n      add\n      mload(0x40)\n      swap1\n      dup2\n      add\n      0x40\n      mstore\n      dup1\n      swap3\n      swap2\n      swap1\n      dup2\n      dup2\n      mstore\n      0x20\n      add\n      dup3\n      dup1\n      sload\n      tag_130\n      swap1\n      tag_99\n      jump\t// in\n    tag_130:\n      dup1\n      iszero\n      tag_131\n      jumpi\n      dup1\n      0x1f\n      lt\n      tag_132\n      jumpi\n      0x0100\n      dup1\n      dup4\n      sload\n      div\n      mul\n      dup4\n      mstore\n      swap2\n      0x20\n      add\n      swap2\n      jump(tag_131)\n    tag_132:\n      dup3\n      add\n      swap2\n      swap1\n      0x00\n      mstore\n      keccak256(0x00, 0x20)\n      swap1\n    tag_133:\n      dup2\n      sload\n      dup2\n      mstore\n      swap1\n      0x01\n      add\n      swap1\n      0x20\n      add\n      dup1\n      dup4\n      gt\n      tag_133\n      jumpi\n      dup3\n      swap1\n      sub\n      0x1f\n      and\n      dup3\n      add\n      swap2\n    tag_131:\n      pop\n      pop\n      pop\n      pop\n      pop\n      dup2\n      mstore\n      0x20\n      add\n      0x01\n      dup3\n      add\n      dup1\n      sload\n      tag_134\n      swap1\n      tag_99\n      jump\t// in\n    tag_134:\n      dup1\n      0x1f\n      add\n      0x20\n      dup1\n      swap2\n      div\n      mul\n      0x20\n      add\n      mload(0x40)\n      swap1\n      dup2\n      add\n      0x40\n      mstore\n      dup1\n      swap3\n      swap2\n      swap1\n      dup2\n      dup2\n      mstore\n      0x20\n      add\n      dup3\n      dup1\n      sload\n      tag_135\n      swap1\n      tag_99\n      jump\t// in\n    tag_135:\n      dup1\n      iszero\n      tag_136\n      jumpi\n      dup1\n      0x1f\n      lt\n      tag_137\n      jumpi\n      0x0100\n      dup1\n      dup4\n      sload\n      div\n      mul\n      dup4\n      mstore\n      swap2\n      0x20\n      add\n      swap2\n      jump(tag_136)\n    tag_137:\n      dup3\n      add\n      swap2\n      swap1\n      0x00\n      mstore\n      keccak256(0x00, 0x20)\n      swap1\n    tag_138:\n      dup2\n      sload\n      dup2\n      mstore\n      swap1\n      0x01\n      add\n      swap1\n      0x20\n      add\n      dup1\n      dup4\n      gt\n      tag_138\n      jumpi\n      dup3\n      swap1\n      sub\n      0x1f\n      and\n      dup3\n      add\n      swap2\n    tag_136:\n      pop\n      pop\n      pop\n      pop\n      pop\n      dup2\n      mstore\n      0x20\n      add\n      0x02\n      dup3\n      add\n      dup1\n      sload\n      tag_139\n      swap1\n      tag_99\n      jump\t// in\n    tag_139:\n      dup1\n      0x1f\n      add\n      0x20\n      dup1\n      swap2\n      div\n      mul\n      0x20\n      add\n      mload(0x40)\n      swap1\n      dup2\n      add\n      0x40\n      mstore\n      dup1\n      swap3\n      swap2\n      swap1\n      dup2\n      dup2\n      mstore\n      0x20\n      add\n      dup3\n      dup1\n      sload\n      tag_140\n      swap1\n      tag_99\n      jump\t// in\n    tag_140:\n      dup1\n      iszero\n      tag_141\n      jumpi\n      dup1\n      0x1f\n      lt\n      tag_142\n      jumpi\n      0x0100\n      dup1\n      dup4\n      sload\n      div\n      mul\n      dup4\n      mstore\n      swap2\n      0x20\n      add\n      swap2\n      jump(tag_141)\n    tag_142:\n      dup3\n      add\n      swap2\n      swap1\n      0x00\n      mstore\n      keccak256(0x00, 0x20)\n      swap1\n    tag_143:\n      dup2\n      sload\n      dup2\n      mstore\n      swap1\n      0x01\n      add\n      swap1\n      0x20\n      add\n      dup1\n      dup4\n      gt\n      tag_143\n      jumpi\n      dup3\n      swap1\n      sub\n      0x1f\n      and\n      dup3\n      add\n      swap2\n    tag_141:\n      pop\n      pop\n      pop\n      pop\n      pop\n      dup2\n      mstore\n      0x20\n      add\n      0x03\n      dup3\n      add\n      dup1\n      sload\n      tag_144\n      swap1\n      tag_99\n      jump\t// in\n    tag_144:\n      dup1\n      0x1f\n      add\n      0x20\n      dup1\n      swap2\n      div\n      mul\n      0x20\n      add\n      mload(0x40)\n      swap1\n      dup2\n      add\n      0x40\n      mstore\n      dup1\n      swap3\n      swap2\n      swap1\n      dup2\n      dup2\n      mstore\n      0x20\n      add\n      dup3\n      dup1\n      sload\n      tag_145\n      swap1\n      tag_99\n      jump\t// in\n    tag_145:\n      dup1\n      iszero\n      tag_146\n      jumpi\n      dup1\n      0x1f\n      lt\n      tag_147\n      jumpi\n      0x0100\n      dup1\n      dup4\n      sload\n      div\n      mul\n      dup4\n      mstore\n      swap2\n      0x20\n      add\n      swap2\n      jump(tag_146)\n    tag_147:\n      dup3\n      add\n      swap2\n      swap1\n      0x00\n      mstore\n      keccak256(0x00, 0x20)\n      swap1\n    tag_148:\n      dup2\n      sload\n      dup2\n      mstore\n      swap1\n      0x01\n      add\n      swap1\n      0x20\n      add\n      dup1\n      dup4\n      gt\n      tag_148\n      jumpi\n      dup3\n      swap1\n      sub\n      0x1f\n      and\n      dup3\n      add\n      swap2\n    tag_146:\n      pop\n      pop\n      pop\n      pop\n      pop\n      dup2\n      mstore\n      0x20\n      add\n      0x04\n      dup3\n      add\n      dup1\n      sload\n      tag_149\n      swap1\n      tag_99\n      jump\t// in\n    tag_149:\n      dup1\n      0x1f\n      add\n      0x20\n      dup1\n      swap2\n      div\n      mul\n      0x20\n      add\n      mload(0x40)\n      swap1\n      dup2\n      add\n      0x40\n      mstore\n      dup1\n      swap3\n      swap2\n      swap1\n      dup2\n      dup2\n      mstore\n      0x20\n      add\n      dup3\n      dup1\n      sload\n      tag_150\n      swap1\n      tag_99\n      jump\t// in\n    tag_150:\n      dup1\n      iszero\n      tag_151\n      jumpi\n      dup1\n      0x1f\n      lt\n      tag_152\n      jumpi\n      0x0100\n      dup1\n      dup4\n      sload\n      div\n      mul\n      dup4\n      mstore\n      swap2\n      0x20\n      add\n      swap2\n      jump(tag_151)\n    tag_152:\n      dup3\n      add\n      swap2\n      swap1\n      0x00\n      mstore\n      keccak256(0x00, 0x20)\n      swap1\n    tag_153:\n      dup2\n      sload\n      dup2\n      mstore\n      swap1\n      0x01\n      add\n      swap1\n      0x20\n      add\n      dup1\n      dup4\n      gt\n      tag_153\n      jumpi\n      dup3\n      swap1\n      sub\n      0x1f\n      and\n      dup3\n      add\n      swap2\n    tag_151:\n      pop\n      pop\n      pop\n      pop\n      pop\n      dup2\n      mstore\n      0x20\n      add\n      0x05\n      dup3\n      add\n      dup1\n      sload\n      tag_154\n      swap1\n      tag_99\n      jump\t// in\n    tag_154:\n      dup1\n      0x1f\n      add\n      0x20\n      dup1\n      swap2\n      div\n      mul\n      0x20\n      add\n      mload(0x40)\n      swap1\n      dup2\n      add\n      0x40\n      mstore\n      dup1\n      swap3\n      swap2\n      swap1\n      dup2\n      dup2\n      mstore\n      0x20\n      add\n      dup3\n      dup1\n      sload\n      tag_155\n      swap1\n      tag_99\n      jump\t// in\n    tag_155:\n      dup1\n      iszero\n      tag_156\n      jumpi\n      dup1\n      0x1f\n      lt\n      tag_157\n      jumpi\n      0x0100\n      dup1\n      dup4\n      sload\n      div\n      mul\n      dup4\n      mstore\n      swap2\n      0x20\n      add\n      swap2\n      jump(tag_156)\n    tag_157:\n      dup3\n      add\n      swap2\n      swap1\n      0x00\n      mstore\n      keccak256(0x00, 0x20)\n      swap1\n    tag_158:\n      dup2\n      sload\n      dup2\n      mstore\n      swap1\n      0x01\n      add\n      swap1\n      0x20\n      add\n      dup1\n      dup4\n      gt\n      tag_158\n      jumpi\n      dup3\n      swap1\n      sub\n      0x1f\n      and\n      dup3\n      add\n      swap2\n    tag_156:\n      pop\n      pop\n      pop\n      pop\n      pop\n      dup2\n      mstore\n      pop\n      pop\n      swap1\n      dup1\n      0x0e\n      add\n      mload(0x40)\n      dup1\n      0x60\n      add\n      0x40\n      mstore\n      swap1\n      dup2\n      0x00\n      dup3\n      add\n      dup1\n      sload\n      dup1\n      0x20\n      mul\n      0x20\n      add\n      mload(0x40)\n      swap1\n      dup2\n      add\n      0x40\n      mstore\n      dup1\n      swap3\n      swap2\n      swap1\n      dup2\n      dup2\n      mstore\n      0x20\n      add\n      0x00\n      swap1\n    tag_159:\n      dup3\n      dup3\n      lt\n      iszero\n      tag_160\n      jumpi\n      dup4\n      dup3\n      swap1\n      0x00\n      mstore\n      keccak256(0x00, 0x20)\n      add\n      dup1\n      sload\n      tag_162\n      swap1\n      tag_99\n      jump\t// in\n    tag_162:\n      dup1\n      0x1f\n      add\n      0x20\n      dup1\n      swap2\n      div\n      mul\n      0x20\n      add\n      mload(0x40)\n      swap1\n      dup2\n      add\n      0x40\n      mstore\n      dup1\n      swap3\n      swap2\n      swap1\n      dup2\n      dup2\n      mstore\n      0x20\n      add\n      dup3\n      dup1\n      sload\n      tag_163\n      swap1\n      tag_99\n      jump\t// in\n    tag_163:\n      dup1\n      iszero\n      tag_164\n      jumpi\n      dup1\n      0x1f\n      lt\n      tag_165\n      jumpi\n      0x0100\n      dup1\n      dup4\n      sload\n      div\n      mul\n      dup4\n      mstore\n      swap2\n      0x20\n      add\n      swap2\n      jump(tag_164)\n    tag_165:\n      dup3\n      add\n      swap2\n      swap1\n      0x00\n      mstore\n      keccak256(0x00, 0x20)\n      swap1\n    tag_166:\n      dup2\n      sload\n      dup2\n      mstore\n      swap1\n      0x01\n      add\n      swap1\n      0x20\n      add\n      dup1\n      dup4\n      gt\n      tag_166\n      jumpi\n      dup3\n      swap1\n      sub\n      0x1f\n      and\n      dup3\n      add\n      swap2\n    tag_164:\n      pop\n      pop\n      pop\n      pop\n      pop\n      dup2\n      mstore\n      0x20\n      add\n      swap1\n      0x01\n      add\n      swap1\n      jump(tag_159)\n    tag_160:\n      pop\n      pop\n      pop\n      pop\n      dup2\n      mstore\n      0x20\n      add\n      0x01\n      dup3\n      add\n      dup1\n      sload\n      dup1\n      0x20\n      mul\n      0x20\n      add\n      mload(0x40)\n      swap1\n      dup2\n      add\n      0x40\n      mstore\n      dup1\n      swap3\n      swap2\n      swap1\n      dup2\n      dup2\n      mstore\n      0x20\n      add\n      0x00\n      swap1\n    tag_167:\n      dup3\n      dup3\n      lt\n      iszero\n      tag_168\n      jumpi\n      dup4\n      dup3\n      swap1\n      0x00\n      mstore\n      keccak256(0x00, 0x20)\n      add\n      dup1\n      sload\n      tag_170\n      swap1\n      tag_99\n      jump\t// in\n    tag_170:\n      dup1\n      0x1f\n      add\n      0x20\n      dup1\n      swap2\n      div\n      mul\n      0x20\n      add\n      mload(0x40)\n      swap1\n      dup2\n      add\n      0x40\n      mstore\n      dup1\n      swap3\n      swap2\n      swap1\n      dup2\n      dup2\n      mstore\n      0x20\n      add\n      dup3\n      dup1\n      sload\n      tag_171\n      swap1\n      tag_99\n      jump\t// in\n    tag_171:\n      dup1\n      iszero\n      tag_172\n      jumpi\n      dup1\n      0x1f\n      lt\n      tag_173\n      jumpi\n      0x0100\n      dup1\n      dup4\n      sload\n      div\n      mul\n      dup4\n      mstore\n      swap2\n      0x20\n      add\n      swap2\n      jump(tag_172)\n    tag_173:\n      dup3\n      add\n      swap2\n      swap1\n      0x00\n      mstore\n      keccak256(0x00, 0x20)\n      swap1\n    tag_174:\n      dup2\n      sload\n      dup2\n      mstore\n      swap1\n      0x01\n      add\n      swap1\n      0x20\n      add\n      dup1\n      dup4\n      gt\n      tag_174\n      jumpi\n      dup3\n      swap1\n      sub\n      0x1f\n      and\n      dup3\n      add\n      swap2\n    tag_172:\n      pop\n      pop\n      pop\n      pop\n      pop\n      dup2\n      mstore\n      0x20\n      add\n      swap1\n      0x01\n      add\n      swap1\n      jump(tag_167)\n    tag_168:\n      pop\n      pop\n      pop\n      pop\n      dup2\n      mstore\n      0x20\n      add\n      0x02\n      dup3\n      add\n      dup1\n      sload\n      dup1\n      0x20\n      mul\n      0x20\n      add\n      mload(0x40)\n      swap1\n      dup2\n      add\n      0x40\n      mstore\n      dup1\n      swap3\n      swap2\n      swap1\n      dup2\n      dup2\n      mstore\n      0x20\n      add\n      0x00\n      swap1\n    tag_175:\n      dup3\n      dup3\n      lt\n      iszero\n      tag_176\n      jumpi\n      dup4\n      dup3\n      swap1\n      0x00\n      mstore\n      keccak256(0x00, 0x20)\n      add\n      dup1\n      sload\n      tag_178\n      swap1\n      tag_99\n      jump\t// in\n    tag_178:\n      dup1\n      0x1f\n      add\n      0x20\n      dup1\n      swap2\n      div\n      mul\n      0x20\n      add\n      mload(0x40)\n      swap1\n      dup2\n      add\n      0x40\n      mstore\n      dup1\n      swap3\n      swap2\n      swap1\n      dup2\n      dup2\n      mstore\n      0x20\n      add\n      dup3\n      dup1\n      sload\n      tag_179\n      swap1\n      tag_99\n      jump\t// in\n    tag_179:\n      dup1\n      iszero\n      tag_180\n      jumpi\n      dup1\n      0x1f\n      lt\n      tag_181\n      jumpi\n      0x0100\n      dup1\n      dup4\n      sload\n      div\n      mul\n      dup4\n      mstore\n      swap2\n      0x20\n      add\n      swap2\n      jump(tag_180)\n    tag_181:\n      dup3\n      add\n      swap2\n      swap1\n      0x00\n      mstore\n      keccak256(0x00, 0x20)\n      swap1\n    tag_182:\n      dup2\n      sload\n      dup2\n      mstore\n      swap1\n      0x01\n      add\n      swap1\n      0x20\n      add\n      dup1\n      dup4\n      gt\n      tag_182\n      jumpi\n      dup3\n      swap1\n      sub\n      0x1f\n      and\n      dup3\n      add\n      swap2\n    tag_180:\n      pop\n      pop\n      pop\n      pop\n      pop\n      dup2\n      mstore\n      0x20\n      add\n      swap1\n      0x01\n      add\n      swap1\n      jump(tag_175)\n    tag_176:\n      pop\n      pop\n      pop\n      pop\n      dup2\n      mstore\n      pop\n      pop\n      swap1\n      pop\n      dup4\n      jump\t// out\n        /* \"contracts/Profile.sol\":3824:3916  function delAllEducation() external  {\r... */\n    tag_42:\n        /* \"contracts/Profile.sol\":3879:3886  profile */\n      0x00\n        /* \"contracts/Profile.sol\":3879:3898  profile[msg.sender] */\n      dup1\n        /* \"contracts/Profile.sol\":3887:3897  msg.sender */\n      caller\n        /* \"contracts/Profile.sol\":3879:3898  profile[msg.sender] */\n      0xffffffffffffffffffffffffffffffffffffffff\n      and\n      0xffffffffffffffffffffffffffffffffffffffff\n      and\n      dup2\n      mstore\n      0x20\n      add\n      swap1\n      dup2\n      mstore\n      0x20\n      add\n      0x00\n      keccak256\n        /* \"contracts/Profile.sol\":3879:3908  profile[msg.sender].education */\n      0x11\n      add\n      0x00\n        /* \"contracts/Profile.sol\":3872:3908  delete profile[msg.sender].education */\n      tag_184\n      swap2\n      swap1\n      tag_185\n      jump\t// in\n    tag_184:\n        /* \"contracts/Profile.sol\":3824:3916  function delAllEducation() external  {\r... */\n      jump\t// out\n        /* \"contracts/Profile.sol\":3361:3688  function getEducation(uint index) public view returns(string memory, string memory, string memory, string memory) {\r... */\n    tag_46:\n        /* \"contracts/Profile.sol\":3415:3428  string memory */\n      0x60\n        /* \"contracts/Profile.sol\":3430:3443  string memory */\n      dup1\n        /* \"contracts/Profile.sol\":3445:3458  string memory */\n      0x60\n        /* \"contracts/Profile.sol\":3460:3473  string memory */\n      dup1\n        /* \"contracts/Profile.sol\":3494:3501  profile */\n      0x00\n        /* \"contracts/Profile.sol\":3494:3513  profile[msg.sender] */\n      dup1\n        /* \"contracts/Profile.sol\":3502:3512  msg.sender */\n      caller\n        /* \"contracts/Profile.sol\":3494:3513  profile[msg.sender] */\n      0xffffffffffffffffffffffffffffffffffffffff\n      and\n      0xffffffffffffffffffffffffffffffffffffffff\n      and\n      dup2\n      mstore\n      0x20\n      add\n      swap1\n      dup2\n      mstore\n      0x20\n      add\n      0x00\n      keccak256\n        /* \"contracts/Profile.sol\":3494:3523  profile[msg.sender].education */\n      0x11\n      add\n        /* \"contracts/Profile.sol\":3524:3529  index */\n      dup6\n        /* \"contracts/Profile.sol\":3494:3530  profile[msg.sender].education[index] */\n      dup2\n      sload\n      dup2\n      lt\n      tag_187\n      jumpi\n      tag_188\n      tag_189\n      jump\t// in\n    tag_188:\n    tag_187:\n      swap1\n      0x00\n      mstore\n      keccak256(0x00, 0x20)\n      swap1\n      0x05\n      mul\n      add\n        /* \"contracts/Profile.sol\":3494:3540  profile[msg.sender].education[index].startDate */\n      0x00\n      add\n        /* \"contracts/Profile.sol\":3542:3549  profile */\n      0x00\n        /* \"contracts/Profile.sol\":3542:3561  profile[msg.sender] */\n      dup1\n        /* \"contracts/Profile.sol\":3550:3560  msg.sender */\n      caller\n        /* \"contracts/Profile.sol\":3542:3561  profile[msg.sender] */\n      0xffffffffffffffffffffffffffffffffffffffff\n      and\n      0xffffffffffffffffffffffffffffffffffffffff\n      and\n      dup2\n      mstore\n      0x20\n      add\n      swap1\n      dup2\n      mstore\n      0x20\n      add\n      0x00\n      keccak256\n        /* \"contracts/Profile.sol\":3542:3571  profile[msg.sender].education */\n      0x11\n      add\n        /* \"contracts/Profile.sol\":3572:3577  index */\n      dup7\n        /* \"contracts/Profile.sol\":3542:3578  profile[msg.sender].education[index] */\n      dup2\n      sload\n      dup2\n      lt\n      tag_191\n      jumpi\n      tag_192\n      tag_189\n      jump\t// in\n    tag_192:\n    tag_191:\n      swap1\n      0x00\n      mstore\n      keccak256(0x00, 0x20)\n      swap1\n      0x05\n      mul\n      add\n        /* \"contracts/Profile.sol\":3542:3586  profile[msg.sender].education[index].endDate */\n      0x01\n      add\n        /* \"contracts/Profile.sol\":3588:3595  profile */\n      0x00\n        /* \"contracts/Profile.sol\":3588:3607  profile[msg.sender] */\n      dup1\n        /* \"contracts/Profile.sol\":3596:3606  msg.sender */\n      caller\n        /* \"contracts/Profile.sol\":3588:3607  profile[msg.sender] */\n      0xffffffffffffffffffffffffffffffffffffffff\n      and\n      0xffffffffffffffffffffffffffffffffffffffff\n      and\n      dup2\n      mstore\n      0x20\n      add\n      swap1\n      dup2\n      mstore\n      0x20\n      add\n      0x00\n      keccak256\n        /* \"contracts/Profile.sol\":3588:3617  profile[msg.sender].education */\n      0x11\n      add\n        /* \"contracts/Profile.sol\":3618:3623  index */\n      dup8\n        /* \"contracts/Profile.sol\":3588:3624  profile[msg.sender].education[index] */\n      dup2\n      sload\n      dup2\n      lt\n      tag_194\n      jumpi\n      tag_195\n      tag_189\n      jump\t// in\n    tag_195:\n    tag_194:\n      swap1\n      0x00\n      mstore\n      keccak256(0x00, 0x20)\n      swap1\n      0x05\n      mul\n      add\n        /* \"contracts/Profile.sol\":3588:3635  profile[msg.sender].education[index].univercity */\n      0x02\n      add\n        /* \"contracts/Profile.sol\":3637:3644  profile */\n      0x00\n        /* \"contracts/Profile.sol\":3637:3656  profile[msg.sender] */\n      dup1\n        /* \"contracts/Profile.sol\":3645:3655  msg.sender */\n      caller\n        /* \"contracts/Profile.sol\":3637:3656  profile[msg.sender] */\n      0xffffffffffffffffffffffffffffffffffffffff\n      and\n      0xffffffffffffffffffffffffffffffffffffffff\n      and\n      dup2\n      mstore\n      0x20\n      add\n      swap1\n      dup2\n      mstore\n      0x20\n      add\n      0x00\n      keccak256\n        /* \"contracts/Profile.sol\":3637:3666  profile[msg.sender].education */\n      0x11\n      add\n        /* \"contracts/Profile.sol\":3667:3672  index */\n      dup9\n        /* \"contracts/Profile.sol\":3637:3673  profile[msg.sender].education[index] */\n      dup2\n      sload\n      dup2\n      lt\n      tag_197\n      jumpi\n      tag_198\n      tag_189\n      jump\t// in\n    tag_198:\n    tag_197:\n      swap1\n      0x00\n      mstore\n      keccak256(0x00, 0x20)\n      swap1\n      0x05\n      mul\n      add\n        /* \"contracts/Profile.sol\":3637:3679  profile[msg.sender].education[index].major */\n      0x03\n      add\n        /* \"contracts/Profile.sol\":3486:3680  return (profile[msg.sender].education[index].startDate, profile[msg.sender].education[index].endDate, profile[msg.sender].education[index].univercity, profile[msg.sender].education[index].major) */\n      dup4\n      dup1\n      sload\n      tag_200\n      swap1\n      tag_99\n      jump\t// in\n    tag_200:\n      dup1\n      0x1f\n      add\n      0x20\n      dup1\n      swap2\n      div\n      mul\n      0x20\n      add\n      mload(0x40)\n      swap1\n      dup2\n      add\n      0x40\n      mstore\n      dup1\n      swap3\n      swap2\n      swap1\n      dup2\n      dup2\n      mstore\n      0x20\n      add\n      dup3\n      dup1\n      sload\n      tag_201\n      swap1\n      tag_99\n      jump\t// in\n    tag_201:\n      dup1\n      iszero\n      tag_202\n      jumpi\n      dup1\n      0x1f\n      lt\n      tag_203\n      jumpi\n      0x0100\n      dup1\n      dup4\n      sload\n      div\n      mul\n      dup4\n      mstore\n      swap2\n      0x20\n      add\n      swap2\n      jump(tag_202)\n    tag_203:\n      dup3\n      add\n      swap2\n      swap1\n      0x00\n      mstore\n      keccak256(0x00, 0x20)\n      swap1\n    tag_204:\n      dup2\n      sload\n      dup2\n      mstore\n      swap1\n      0x01\n      add\n      swap1\n      0x20\n      add\n      dup1\n      dup4\n      gt\n      tag_204\n      jumpi\n      dup3\n      swap1\n      sub\n      0x1f\n      and\n      dup3\n      add\n      swap2\n    tag_202:\n      pop\n      pop\n      pop\n      pop\n      pop\n      swap4\n      pop\n      dup3\n      dup1\n      sload\n      tag_205\n      swap1\n      tag_99\n      jump\t// in\n    tag_205:\n      dup1\n      0x1f\n      add\n      0x20\n      dup1\n      swap2\n      div\n      mul\n      0x20\n      add\n      mload(0x40)\n      swap1\n      dup2\n      add\n      0x40\n      mstore\n      dup1\n      swap3\n      swap2\n      swap1\n      dup2\n      dup2\n      mstore\n      0x20\n      add\n      dup3\n      dup1\n      sload\n      tag_206\n      swap1\n      tag_99\n      jump\t// in\n    tag_206:\n      dup1\n      iszero\n      tag_207\n      jumpi\n      dup1\n      0x1f\n      lt\n      tag_208\n      jumpi\n      0x0100\n      dup1\n      dup4\n      sload\n      div\n      mul\n      dup4\n      mstore\n      swap2\n      0x20\n      add\n      swap2\n      jump(tag_207)\n    tag_208:\n      dup3\n      add\n      swap2\n      swap1\n      0x00\n      mstore\n      keccak256(0x00, 0x20)\n      swap1\n    tag_209:\n      dup2\n      sload\n      dup2\n      mstore\n      swap1\n      0x01\n      add\n      swap1\n      0x20\n      add\n      dup1\n      dup4\n      gt\n      tag_209\n      jumpi\n      dup3\n      swap1\n      sub\n      0x1f\n      and\n      dup3\n      add\n      swap2\n    tag_207:\n      pop\n      pop\n      pop\n      pop\n      pop\n      swap3\n      pop\n      dup2\n      dup1\n      sload\n      tag_210\n      swap1\n      tag_99\n      jump\t// in\n    tag_210:\n      dup1\n      0x1f\n      add\n      0x20\n      dup1\n      swap2\n      div\n      mul\n      0x20\n      add\n      mload(0x40)\n      swap1\n      dup2\n      add\n      0x40\n      mstore\n      dup1\n      swap3\n      swap2\n      swap1\n      dup2\n      dup2\n      mstore\n      0x20\n      add\n      dup3\n      dup1\n      sload\n      tag_211\n      swap1\n      tag_99\n      jump\t// in\n    tag_211:\n      dup1\n      iszero\n      tag_212\n      jumpi\n      dup1\n      0x1f\n      lt\n      tag_213\n      jumpi\n      0x0100\n      dup1\n      dup4\n      sload\n      div\n      mul\n      dup4\n      mstore\n      swap2\n      0x20\n      add\n      swap2\n      jump(tag_212)\n    tag_213:\n      dup3\n      add\n      swap2\n      swap1\n      0x00\n      mstore\n      keccak256(0x00, 0x20)\n      swap1\n    tag_214:\n      dup2\n      sload\n      dup2\n      mstore\n      swap1\n      0x01\n      add\n      swap1\n      0x20\n      add\n      dup1\n      dup4\n      gt\n      tag_214\n      jumpi\n      dup3\n      swap1\n      sub\n      0x1f\n      and\n      dup3\n      add\n      swap2\n    tag_212:\n      pop\n      pop\n      pop\n      pop\n      pop\n      swap2\n      pop\n      dup1\n      dup1\n      sload\n      tag_215\n      swap1\n      tag_99\n      jump\t// in\n    tag_215:\n      dup1\n      0x1f\n      add\n      0x20\n      dup1\n      swap2\n      div\n      mul\n      0x20\n      add\n      mload(0x40)\n      swap1\n      dup2\n      add\n      0x40\n      mstore\n      dup1\n      swap3\n      swap2\n      swap1\n      dup2\n      dup2\n      mstore\n      0x20\n      add\n      dup3\n      dup1\n      sload\n      tag_216\n      swap1\n      tag_99\n      jump\t// in\n    tag_216:\n      dup1\n      iszero\n      tag_217\n      jumpi\n      dup1\n      0x1f\n      lt\n      tag_218\n      jumpi\n      0x0100\n      dup1\n      dup4\n      sload\n      div\n      mul\n      dup4\n      mstore\n      swap2\n      0x20\n      add\n      swap2\n      jump(tag_217)\n    tag_218:\n      dup3\n      add\n      swap2\n      swap1\n      0x00\n      mstore\n      keccak256(0x00, 0x20)\n      swap1\n    tag_219:\n      dup2\n      sload\n      dup2\n      mstore\n      swap1\n      0x01\n      add\n      swap1\n      0x20\n      add\n      dup1\n      dup4\n      gt\n      tag_219\n      jumpi\n      dup3\n      swap1\n      sub\n      0x1f\n      and\n      dup3\n      add\n      swap2\n    tag_217:\n      pop\n      pop\n      pop\n      pop\n      pop\n      swap1\n      pop\n      swap4\n      pop\n      swap4\n      pop\n      swap4\n      pop\n      swap4\n      pop\n        /* \"contracts/Profile.sol\":3361:3688  function getEducation(uint index) public view returns(string memory, string memory, string memory, string memory) {\r... */\n      swap2\n      swap4\n      pop\n      swap2\n      swap4\n      jump\t// out\n        /* \"contracts/Profile.sol\":4024:4100  function delProfile() external {\r... */\n    tag_50:\n        /* \"contracts/Profile.sol\":4073:4080  profile */\n      0x00\n        /* \"contracts/Profile.sol\":4073:4092  profile[msg.sender] */\n      dup1\n        /* \"contracts/Profile.sol\":4081:4091  msg.sender */\n      caller\n        /* \"contracts/Profile.sol\":4073:4092  profile[msg.sender] */\n      0xffffffffffffffffffffffffffffffffffffffff\n      and\n      0xffffffffffffffffffffffffffffffffffffffff\n      and\n      dup2\n      mstore\n      0x20\n      add\n      swap1\n      dup2\n      mstore\n      0x20\n      add\n      0x00\n      keccak256\n      0x00\n        /* \"contracts/Profile.sol\":4066:4092  delete profile[msg.sender] */\n      dup1\n      dup3\n      add\n      0x00\n      dup1\n      dup3\n      add\n      0x00\n      tag_221\n      swap2\n      swap1\n      tag_73\n      jump\t// in\n    tag_221:\n      0x01\n      dup3\n      add\n      0x00\n      tag_222\n      swap2\n      swap1\n      tag_73\n      jump\t// in\n    tag_222:\n      0x02\n      dup3\n      add\n      exp(0x0100, 0x00)\n      dup2\n      sload\n      swap1\n      0xffffffffffffffffffffffffffffffffffffffff\n      mul\n      not\n      and\n      swap1\n      sstore\n      0x03\n      dup3\n      add\n      0x00\n      tag_223\n      swap2\n      swap1\n      tag_73\n      jump\t// in\n    tag_223:\n      0x04\n      dup3\n      add\n      0x00\n      tag_224\n      swap2\n      swap1\n      tag_73\n      jump\t// in\n    tag_224:\n      0x05\n      dup3\n      add\n      0x00\n      tag_225\n      swap2\n      swap1\n      tag_73\n      jump\t// in\n    tag_225:\n      0x06\n      dup3\n      add\n      0x00\n      tag_226\n      swap2\n      swap1\n      tag_73\n      jump\t// in\n    tag_226:\n      0x07\n      dup3\n      add\n      0x00\n      swap1\n      sstore\n      pop\n      pop\n      0x08\n      dup3\n      add\n      0x00\n      dup1\n      dup3\n      add\n      0x00\n      tag_227\n      swap2\n      swap1\n      tag_73\n      jump\t// in\n    tag_227:\n      0x01\n      dup3\n      add\n      0x00\n      tag_228\n      swap2\n      swap1\n      tag_73\n      jump\t// in\n    tag_228:\n      0x02\n      dup3\n      add\n      0x00\n      tag_229\n      swap2\n      swap1\n      tag_73\n      jump\t// in\n    tag_229:\n      0x03\n      dup3\n      add\n      0x00\n      tag_230\n      swap2\n      swap1\n      tag_73\n      jump\t// in\n    tag_230:\n      0x04\n      dup3\n      add\n      0x00\n      tag_231\n      swap2\n      swap1\n      tag_73\n      jump\t// in\n    tag_231:\n      0x05\n      dup3\n      add\n      0x00\n      tag_232\n      swap2\n      swap1\n      tag_73\n      jump\t// in\n    tag_232:\n      pop\n      pop\n      0x0e\n      dup3\n      add\n      0x00\n      dup1\n      dup3\n      add\n      0x00\n      tag_233\n      swap2\n      swap1\n      tag_53\n      jump\t// in\n    tag_233:\n      0x01\n      dup3\n      add\n      0x00\n      tag_234\n      swap2\n      swap1\n      tag_53\n      jump\t// in\n    tag_234:\n      0x02\n      dup3\n      add\n      0x00\n      tag_235\n      swap2\n      swap1\n      tag_53\n      jump\t// in\n    tag_235:\n      pop\n      pop\n      0x11\n      dup3\n      add\n      0x00\n      tag_236\n      swap2\n      swap1\n      tag_185\n      jump\t// in\n    tag_236:\n      pop\n      pop\n        /* \"contracts/Profile.sol\":4024:4100  function delProfile() external {\r... */\n      jump\t// out\n    tag_53:\n      pop\n      dup1\n      sload\n      0x00\n      dup3\n      sstore\n      swap1\n      0x00\n      mstore\n      keccak256(0x00, 0x20)\n      swap1\n      dup2\n      add\n      swap1\n      tag_238\n      swap2\n      swap1\n      tag_239\n      jump\t// in\n    tag_238:\n      pop\n      jump\t// out\n    tag_57:\n      dup3\n      dup1\n      sload\n      dup3\n      dup3\n      sstore\n      swap1\n      0x00\n      mstore\n      keccak256(0x00, 0x20)\n      swap1\n      dup2\n      add\n      swap3\n      dup3\n      iszero\n      tag_240\n      jumpi\n      swap2\n      0x20\n      mul\n      dup3\n      add\n    tag_241:\n      dup3\n      dup2\n      gt\n      iszero\n      tag_242\n      jumpi\n      dup3\n      mload\n      dup3\n      swap1\n      dup1\n      mload\n      swap1\n      0x20\n      add\n      swap1\n      tag_243\n      swap3\n      swap2\n      swap1\n      tag_66\n      jump\t// in\n    tag_243:\n      pop\n      swap2\n      0x20\n      add\n      swap2\n      swap1\n      0x01\n      add\n      swap1\n      jump(tag_241)\n    tag_242:\n    tag_240:\n      pop\n      swap1\n      pop\n      tag_244\n      swap2\n      swap1\n      tag_239\n      jump\t// in\n    tag_244:\n      pop\n      swap1\n      jump\t// out\n    tag_63:\n      mload(0x40)\n      dup1\n      0xa0\n      add\n      0x40\n      mstore\n      dup1\n      0x60\n      dup2\n      mstore\n      0x20\n      add\n      0x60\n      dup2\n      mstore\n      0x20\n      add\n      0x60\n      dup2\n      mstore\n      0x20\n      add\n      0x60\n      dup2\n      mstore\n      0x20\n      add\n      0x60\n      dup2\n      mstore\n      pop\n      swap1\n      jump\t// out\n    tag_66:\n      dup3\n      dup1\n      sload\n      tag_245\n      swap1\n      tag_99\n      jump\t// in\n    tag_245:\n      swap1\n      0x00\n      mstore\n      keccak256(0x00, 0x20)\n      swap1\n      0x1f\n      add\n      0x20\n      swap1\n      div\n      dup2\n      add\n      swap3\n      dup3\n      tag_247\n      jumpi\n      0x00\n      dup6\n      sstore\n      jump(tag_246)\n    tag_247:\n      dup3\n      0x1f\n      lt\n      tag_248\n      jumpi\n      dup1\n      mload\n      not(0xff)\n      and\n      dup4\n      dup1\n      add\n      or\n      dup6\n      sstore\n      jump(tag_246)\n    tag_248:\n      dup3\n      dup1\n      add\n      0x01\n      add\n      dup6\n      sstore\n      dup3\n      iszero\n      tag_246\n      jumpi\n      swap2\n      dup3\n      add\n    tag_249:\n      dup3\n      dup2\n      gt\n      iszero\n      tag_250\n      jumpi\n      dup3\n      mload\n      dup3\n      sstore\n      swap2\n      0x20\n      add\n      swap2\n      swap1\n      0x01\n      add\n      swap1\n      jump(tag_249)\n    tag_250:\n    tag_246:\n      pop\n      swap1\n      pop\n      tag_251\n      swap2\n      swap1\n      tag_252\n      jump\t// in\n    tag_251:\n      pop\n      swap1\n      jump\t// out\n    tag_73:\n      pop\n      dup1\n      sload\n      tag_253\n      swap1\n      tag_99\n      jump\t// in\n    tag_253:\n      0x00\n      dup3\n      sstore\n      dup1\n      0x1f\n      lt\n      tag_255\n      jumpi\n      pop\n      jump(tag_254)\n    tag_255:\n      0x1f\n      add\n      0x20\n      swap1\n      div\n      swap1\n      0x00\n      mstore\n      keccak256(0x00, 0x20)\n      swap1\n      dup2\n      add\n      swap1\n      tag_256\n      swap2\n      swap1\n      tag_252\n      jump\t// in\n    tag_256:\n    tag_254:\n      pop\n      jump\t// out\n    tag_185:\n      pop\n      dup1\n      sload\n      0x00\n      dup3\n      sstore\n      0x05\n      mul\n      swap1\n      0x00\n      mstore\n      keccak256(0x00, 0x20)\n      swap1\n      dup2\n      add\n      swap1\n      tag_258\n      swap2\n      swap1\n      tag_259\n      jump\t// in\n    tag_258:\n      pop\n      jump\t// out\n    tag_239:\n    tag_260:\n      dup1\n      dup3\n      gt\n      iszero\n      tag_261\n      jumpi\n      0x00\n      dup2\n      dup2\n      tag_262\n      swap2\n      swap1\n      tag_73\n      jump\t// in\n    tag_262:\n      pop\n      0x01\n      add\n      jump(tag_260)\n    tag_261:\n      pop\n      swap1\n      jump\t// out\n    tag_252:\n    tag_263:\n      dup1\n      dup3\n      gt\n      iszero\n      tag_264\n      jumpi\n      0x00\n      dup2\n      0x00\n      swap1\n      sstore\n      pop\n      0x01\n      add\n      jump(tag_263)\n    tag_264:\n      pop\n      swap1\n      jump\t// out\n    tag_259:\n    tag_265:\n      dup1\n      dup3\n      gt\n      iszero\n      tag_266\n      jumpi\n      0x00\n      dup1\n      dup3\n      add\n      0x00\n      tag_267\n      swap2\n      swap1\n      tag_73\n      jump\t// in\n    tag_267:\n      0x01\n      dup3\n      add\n      0x00\n      tag_268\n      swap2\n      swap1\n      tag_73\n      jump\t// in\n    tag_268:\n      0x02\n      dup3\n      add\n      0x00\n      tag_269\n      swap2\n      swap1\n      tag_73\n      jump\t// in\n    tag_269:\n      0x03\n      dup3\n      add\n      0x00\n      tag_270\n      swap2\n      swap1\n      tag_73\n      jump\t// in\n    tag_270:\n      0x04\n      dup3\n      add\n      0x00\n      tag_271\n      swap2\n      swap1\n      tag_73\n      jump\t// in\n    tag_271:\n      pop\n      0x05\n      add\n      jump(tag_265)\n    tag_266:\n      pop\n      swap1\n      jump\t// out\n        /* \"#utility.yul\":23:980   */\n    tag_273:\n        /* \"#utility.yul\":129:134   */\n      0x00\n        /* \"#utility.yul\":154:245   */\n      tag_275\n        /* \"#utility.yul\":170:244   */\n      tag_276\n        /* \"#utility.yul\":237:243   */\n      dup5\n        /* \"#utility.yul\":170:244   */\n      tag_277\n      jump\t// in\n    tag_276:\n        /* \"#utility.yul\":154:245   */\n      tag_278\n      jump\t// in\n    tag_275:\n        /* \"#utility.yul\":145:245   */\n      swap1\n      pop\n        /* \"#utility.yul\":265:270   */\n      dup1\n        /* \"#utility.yul\":294:300   */\n      dup4\n        /* \"#utility.yul\":287:292   */\n      dup3\n        /* \"#utility.yul\":280:301   */\n      mstore\n        /* \"#utility.yul\":328:332   */\n      0x20\n        /* \"#utility.yul\":321:326   */\n      dup3\n        /* \"#utility.yul\":317:333   */\n      add\n        /* \"#utility.yul\":310:333   */\n      swap1\n      pop\n        /* \"#utility.yul\":354:360   */\n      dup3\n        /* \"#utility.yul\":404:407   */\n      dup6\n        /* \"#utility.yul\":396:400   */\n      0x20\n        /* \"#utility.yul\":388:394   */\n      dup7\n        /* \"#utility.yul\":384:401   */\n      mul\n        /* \"#utility.yul\":379:382   */\n      dup3\n        /* \"#utility.yul\":375:402   */\n      add\n        /* \"#utility.yul\":372:408   */\n      gt\n        /* \"#utility.yul\":369:512   */\n      iszero\n      tag_279\n      jumpi\n        /* \"#utility.yul\":423:502   */\n      tag_280\n      tag_281\n      jump\t// in\n    tag_280:\n        /* \"#utility.yul\":369:512   */\n    tag_279:\n        /* \"#utility.yul\":536:537   */\n      0x00\n        /* \"#utility.yul\":521:974   */\n    tag_282:\n        /* \"#utility.yul\":546:552   */\n      dup6\n        /* \"#utility.yul\":543:544   */\n      dup2\n        /* \"#utility.yul\":540:553   */\n      lt\n        /* \"#utility.yul\":521:974   */\n      iszero\n      tag_284\n      jumpi\n        /* \"#utility.yul\":628:631   */\n      dup2\n        /* \"#utility.yul\":615:632   */\n      calldataload\n        /* \"#utility.yul\":664:682   */\n      0xffffffffffffffff\n        /* \"#utility.yul\":651:662   */\n      dup2\n        /* \"#utility.yul\":648:683   */\n      gt\n        /* \"#utility.yul\":645:767   */\n      iszero\n      tag_285\n      jumpi\n        /* \"#utility.yul\":686:765   */\n      tag_286\n      tag_287\n      jump\t// in\n    tag_286:\n        /* \"#utility.yul\":645:767   */\n    tag_285:\n        /* \"#utility.yul\":810:821   */\n      dup1\n        /* \"#utility.yul\":802:808   */\n      dup7\n        /* \"#utility.yul\":798:822   */\n      add\n        /* \"#utility.yul\":848:895   */\n      tag_288\n        /* \"#utility.yul\":891:894   */\n      dup10\n        /* \"#utility.yul\":879:889   */\n      dup3\n        /* \"#utility.yul\":848:895   */\n      tag_289\n      jump\t// in\n    tag_288:\n        /* \"#utility.yul\":843:846   */\n      dup6\n        /* \"#utility.yul\":836:896   */\n      mstore\n        /* \"#utility.yul\":925:929   */\n      0x20\n        /* \"#utility.yul\":920:923   */\n      dup6\n        /* \"#utility.yul\":916:930   */\n      add\n        /* \"#utility.yul\":909:930   */\n      swap5\n      pop\n        /* \"#utility.yul\":959:963   */\n      0x20\n        /* \"#utility.yul\":954:957   */\n      dup5\n        /* \"#utility.yul\":950:964   */\n      add\n        /* \"#utility.yul\":943:964   */\n      swap4\n      pop\n        /* \"#utility.yul\":581:974   */\n      pop\n      pop\n        /* \"#utility.yul\":568:569   */\n      0x01\n        /* \"#utility.yul\":565:566   */\n      dup2\n        /* \"#utility.yul\":561:570   */\n      add\n        /* \"#utility.yul\":556:570   */\n      swap1\n      pop\n        /* \"#utility.yul\":521:974   */\n      jump(tag_282)\n    tag_284:\n        /* \"#utility.yul\":525:539   */\n      pop\n        /* \"#utility.yul\":135:980   */\n      pop\n      pop\n        /* \"#utility.yul\":23:980   */\n      swap4\n      swap3\n      pop\n      pop\n      pop\n      jump\t// out\n        /* \"#utility.yul\":986:1398   */\n    tag_290:\n        /* \"#utility.yul\":1064:1069   */\n      0x00\n        /* \"#utility.yul\":1089:1155   */\n      tag_292\n        /* \"#utility.yul\":1105:1154   */\n      tag_293\n        /* \"#utility.yul\":1147:1153   */\n      dup5\n        /* \"#utility.yul\":1105:1154   */\n      tag_294\n      jump\t// in\n    tag_293:\n        /* \"#utility.yul\":1089:1155   */\n      tag_278\n      jump\t// in\n    tag_292:\n        /* \"#utility.yul\":1080:1155   */\n      swap1\n      pop\n        /* \"#utility.yul\":1178:1184   */\n      dup3\n        /* \"#utility.yul\":1171:1176   */\n      dup2\n        /* \"#utility.yul\":1164:1185   */\n      mstore\n        /* \"#utility.yul\":1216:1220   */\n      0x20\n        /* \"#utility.yul\":1209:1214   */\n      dup2\n        /* \"#utility.yul\":1205:1221   */\n      add\n        /* \"#utility.yul\":1254:1257   */\n      dup5\n        /* \"#utility.yul\":1245:1251   */\n      dup5\n        /* \"#utility.yul\":1240:1243   */\n      dup5\n        /* \"#utility.yul\":1236:1252   */\n      add\n        /* \"#utility.yul\":1233:1258   */\n      gt\n        /* \"#utility.yul\":1230:1342   */\n      iszero\n      tag_295\n      jumpi\n        /* \"#utility.yul\":1261:1340   */\n      tag_296\n      tag_297\n      jump\t// in\n    tag_296:\n        /* \"#utility.yul\":1230:1342   */\n    tag_295:\n        /* \"#utility.yul\":1351:1392   */\n      tag_298\n        /* \"#utility.yul\":1385:1391   */\n      dup5\n        /* \"#utility.yul\":1380:1383   */\n      dup3\n        /* \"#utility.yul\":1375:1378   */\n      dup6\n        /* \"#utility.yul\":1351:1392   */\n      tag_299\n      jump\t// in\n    tag_298:\n        /* \"#utility.yul\":1070:1398   */\n      pop\n        /* \"#utility.yul\":986:1398   */\n      swap4\n      swap3\n      pop\n      pop\n      pop\n      jump\t// out\n        /* \"#utility.yul\":1404:1543   */\n    tag_300:\n        /* \"#utility.yul\":1450:1455   */\n      0x00\n        /* \"#utility.yul\":1488:1494   */\n      dup2\n        /* \"#utility.yul\":1475:1495   */\n      calldataload\n        /* \"#utility.yul\":1466:1495   */\n      swap1\n      pop\n        /* \"#utility.yul\":1504:1537   */\n      tag_302\n        /* \"#utility.yul\":1531:1536   */\n      dup2\n        /* \"#utility.yul\":1504:1537   */\n      tag_303\n      jump\t// in\n    tag_302:\n        /* \"#utility.yul\":1404:1543   */\n      swap3\n      swap2\n      pop\n      pop\n      jump\t// out\n        /* \"#utility.yul\":1565:1955   */\n    tag_304:\n        /* \"#utility.yul\":1646:1651   */\n      0x00\n        /* \"#utility.yul\":1695:1698   */\n      dup3\n        /* \"#utility.yul\":1688:1692   */\n      0x1f\n        /* \"#utility.yul\":1680:1686   */\n      dup4\n        /* \"#utility.yul\":1676:1693   */\n      add\n        /* \"#utility.yul\":1672:1699   */\n      slt\n        /* \"#utility.yul\":1662:1784   */\n      tag_306\n      jumpi\n        /* \"#utility.yul\":1703:1782   */\n      tag_307\n      tag_287\n      jump\t// in\n    tag_307:\n        /* \"#utility.yul\":1662:1784   */\n    tag_306:\n        /* \"#utility.yul\":1820:1826   */\n      dup2\n        /* \"#utility.yul\":1807:1827   */\n      calldataload\n        /* \"#utility.yul\":1845:1949   */\n      tag_308\n        /* \"#utility.yul\":1945:1948   */\n      dup5\n        /* \"#utility.yul\":1937:1943   */\n      dup3\n        /* \"#utility.yul\":1930:1934   */\n      0x20\n        /* \"#utility.yul\":1922:1928   */\n      dup7\n        /* \"#utility.yul\":1918:1935   */\n      add\n        /* \"#utility.yul\":1845:1949   */\n      tag_273\n      jump\t// in\n    tag_308:\n        /* \"#utility.yul\":1836:1949   */\n      swap2\n      pop\n        /* \"#utility.yul\":1652:1955   */\n      pop\n        /* \"#utility.yul\":1565:1955   */\n      swap3\n      swap2\n      pop\n      pop\n      jump\t// out\n        /* \"#utility.yul\":1975:2315   */\n    tag_289:\n        /* \"#utility.yul\":2031:2036   */\n      0x00\n        /* \"#utility.yul\":2080:2083   */\n      dup3\n        /* \"#utility.yul\":2073:2077   */\n      0x1f\n        /* \"#utility.yul\":2065:2071   */\n      dup4\n        /* \"#utility.yul\":2061:2078   */\n      add\n        /* \"#utility.yul\":2057:2084   */\n      slt\n        /* \"#utility.yul\":2047:2169   */\n      tag_310\n      jumpi\n        /* \"#utility.yul\":2088:2167   */\n      tag_311\n      tag_287\n      jump\t// in\n    tag_311:\n        /* \"#utility.yul\":2047:2169   */\n    tag_310:\n        /* \"#utility.yul\":2205:2211   */\n      dup2\n        /* \"#utility.yul\":2192:2212   */\n      calldataload\n        /* \"#utility.yul\":2230:2309   */\n      tag_312\n        /* \"#utility.yul\":2305:2308   */\n      dup5\n        /* \"#utility.yul\":2297:2303   */\n      dup3\n        /* \"#utility.yul\":2290:2294   */\n      0x20\n        /* \"#utility.yul\":2282:2288   */\n      dup7\n        /* \"#utility.yul\":2278:2295   */\n      add\n        /* \"#utility.yul\":2230:2309   */\n      tag_290\n      jump\t// in\n    tag_312:\n        /* \"#utility.yul\":2221:2309   */\n      swap2\n      pop\n        /* \"#utility.yul\":2037:2315   */\n      pop\n        /* \"#utility.yul\":1975:2315   */\n      swap3\n      swap2\n      pop\n      pop\n      jump\t// out\n        /* \"#utility.yul\":2321:2460   */\n    tag_313:\n        /* \"#utility.yul\":2367:2372   */\n      0x00\n        /* \"#utility.yul\":2405:2411   */\n      dup2\n        /* \"#utility.yul\":2392:2412   */\n      calldataload\n        /* \"#utility.yul\":2383:2412   */\n      swap1\n      pop\n        /* \"#utility.yul\":2421:2454   */\n      tag_315\n        /* \"#utility.yul\":2448:2453   */\n      dup2\n        /* \"#utility.yul\":2421:2454   */\n      tag_316\n      jump\t// in\n    tag_315:\n        /* \"#utility.yul\":2321:2460   */\n      swap3\n      swap2\n      pop\n      pop\n      jump\t// out\n        /* \"#utility.yul\":2466:2795   */\n    tag_37:\n        /* \"#utility.yul\":2525:2531   */\n      0x00\n        /* \"#utility.yul\":2574:2576   */\n      0x20\n        /* \"#utility.yul\":2562:2571   */\n      dup3\n        /* \"#utility.yul\":2553:2560   */\n      dup5\n        /* \"#utility.yul\":2549:2572   */\n      sub\n        /* \"#utility.yul\":2545:2577   */\n      slt\n        /* \"#utility.yul\":2542:2661   */\n      iszero\n      tag_318\n      jumpi\n        /* \"#utility.yul\":2580:2659   */\n      tag_319\n      tag_320\n      jump\t// in\n    tag_319:\n        /* \"#utility.yul\":2542:2661   */\n    tag_318:\n        /* \"#utility.yul\":2700:2701   */\n      0x00\n        /* \"#utility.yul\":2725:2778   */\n      tag_321\n        /* \"#utility.yul\":2770:2777   */\n      dup5\n        /* \"#utility.yul\":2761:2767   */\n      dup3\n        /* \"#utility.yul\":2750:2759   */\n      dup6\n        /* \"#utility.yul\":2746:2768   */\n      add\n        /* \"#utility.yul\":2725:2778   */\n      tag_300\n      jump\t// in\n    tag_321:\n        /* \"#utility.yul\":2715:2778   */\n      swap2\n      pop\n        /* \"#utility.yul\":2671:2788   */\n      pop\n        /* \"#utility.yul\":2466:2795   */\n      swap3\n      swap2\n      pop\n      pop\n      jump\t// out\n        /* \"#utility.yul\":2801:4110   */\n    tag_16:\n        /* \"#utility.yul\":2983:2989   */\n      0x00\n        /* \"#utility.yul\":2991:2997   */\n      dup1\n        /* \"#utility.yul\":2999:3005   */\n      0x00\n        /* \"#utility.yul\":3048:3050   */\n      0x60\n        /* \"#utility.yul\":3036:3045   */\n      dup5\n        /* \"#utility.yul\":3027:3034   */\n      dup7\n        /* \"#utility.yul\":3023:3046   */\n      sub\n        /* \"#utility.yul\":3019:3051   */\n      slt\n        /* \"#utility.yul\":3016:3135   */\n      iszero\n      tag_323\n      jumpi\n        /* \"#utility.yul\":3054:3133   */\n      tag_324\n      tag_320\n      jump\t// in\n    tag_324:\n        /* \"#utility.yul\":3016:3135   */\n    tag_323:\n        /* \"#utility.yul\":3202:3203   */\n      0x00\n        /* \"#utility.yul\":3191:3200   */\n      dup5\n        /* \"#utility.yul\":3187:3204   */\n      add\n        /* \"#utility.yul\":3174:3205   */\n      calldataload\n        /* \"#utility.yul\":3232:3250   */\n      0xffffffffffffffff\n        /* \"#utility.yul\":3224:3230   */\n      dup2\n        /* \"#utility.yul\":3221:3251   */\n      gt\n        /* \"#utility.yul\":3218:3335   */\n      iszero\n      tag_325\n      jumpi\n        /* \"#utility.yul\":3254:3333   */\n      tag_326\n      tag_327\n      jump\t// in\n    tag_326:\n        /* \"#utility.yul\":3218:3335   */\n    tag_325:\n        /* \"#utility.yul\":3359:3447   */\n      tag_328\n        /* \"#utility.yul\":3439:3446   */\n      dup7\n        /* \"#utility.yul\":3430:3436   */\n      dup3\n        /* \"#utility.yul\":3419:3428   */\n      dup8\n        /* \"#utility.yul\":3415:3437   */\n      add\n        /* \"#utility.yul\":3359:3447   */\n      tag_304\n      jump\t// in\n    tag_328:\n        /* \"#utility.yul\":3349:3447   */\n      swap4\n      pop\n        /* \"#utility.yul\":3145:3457   */\n      pop\n        /* \"#utility.yul\":3524:3526   */\n      0x20\n        /* \"#utility.yul\":3513:3522   */\n      dup5\n        /* \"#utility.yul\":3509:3527   */\n      add\n        /* \"#utility.yul\":3496:3528   */\n      calldataload\n        /* \"#utility.yul\":3555:3573   */\n      0xffffffffffffffff\n        /* \"#utility.yul\":3547:3553   */\n      dup2\n        /* \"#utility.yul\":3544:3574   */\n      gt\n        /* \"#utility.yul\":3541:3658   */\n      iszero\n      tag_329\n      jumpi\n        /* \"#utility.yul\":3577:3656   */\n      tag_330\n      tag_327\n      jump\t// in\n    tag_330:\n        /* \"#utility.yul\":3541:3658   */\n    tag_329:\n        /* \"#utility.yul\":3682:3770   */\n      tag_331\n        /* \"#utility.yul\":3762:3769   */\n      dup7\n        /* \"#utility.yul\":3753:3759   */\n      dup3\n        /* \"#utility.yul\":3742:3751   */\n      dup8\n        /* \"#utility.yul\":3738:3760   */\n      add\n        /* \"#utility.yul\":3682:3770   */\n      tag_304\n      jump\t// in\n    tag_331:\n        /* \"#utility.yul\":3672:3770   */\n      swap3\n      pop\n        /* \"#utility.yul\":3467:3780   */\n      pop\n        /* \"#utility.yul\":3847:3849   */\n      0x40\n        /* \"#utility.yul\":3836:3845   */\n      dup5\n        /* \"#utility.yul\":3832:3850   */\n      add\n        /* \"#utility.yul\":3819:3851   */\n      calldataload\n        /* \"#utility.yul\":3878:3896   */\n      0xffffffffffffffff\n        /* \"#utility.yul\":3870:3876   */\n      dup2\n        /* \"#utility.yul\":3867:3897   */\n      gt\n        /* \"#utility.yul\":3864:3981   */\n      iszero\n      tag_332\n      jumpi\n        /* \"#utility.yul\":3900:3979   */\n      tag_333\n      tag_327\n      jump\t// in\n    tag_333:\n        /* \"#utility.yul\":3864:3981   */\n    tag_332:\n        /* \"#utility.yul\":4005:4093   */\n      tag_334\n        /* \"#utility.yul\":4085:4092   */\n      dup7\n        /* \"#utility.yul\":4076:4082   */\n      dup3\n        /* \"#utility.yul\":4065:4074   */\n      dup8\n        /* \"#utility.yul\":4061:4083   */\n      add\n        /* \"#utility.yul\":4005:4093   */\n      tag_304\n      jump\t// in\n    tag_334:\n        /* \"#utility.yul\":3995:4093   */\n      swap2\n      pop\n        /* \"#utility.yul\":3790:4103   */\n      pop\n        /* \"#utility.yul\":2801:4110   */\n      swap3\n      pop\n      swap3\n      pop\n      swap3\n      jump\t// out\n        /* \"#utility.yul\":4116:5927   */\n    tag_24:\n        /* \"#utility.yul\":4261:4267   */\n      0x00\n        /* \"#utility.yul\":4269:4275   */\n      dup1\n        /* \"#utility.yul\":4277:4283   */\n      0x00\n        /* \"#utility.yul\":4285:4291   */\n      dup1\n        /* \"#utility.yul\":4293:4299   */\n      0x00\n        /* \"#utility.yul\":4342:4345   */\n      0xa0\n        /* \"#utility.yul\":4330:4339   */\n      dup7\n        /* \"#utility.yul\":4321:4328   */\n      dup9\n        /* \"#utility.yul\":4317:4340   */\n      sub\n        /* \"#utility.yul\":4313:4346   */\n      slt\n        /* \"#utility.yul\":4310:4430   */\n      iszero\n      tag_336\n      jumpi\n        /* \"#utility.yul\":4349:4428   */\n      tag_337\n      tag_320\n      jump\t// in\n    tag_337:\n        /* \"#utility.yul\":4310:4430   */\n    tag_336:\n        /* \"#utility.yul\":4497:4498   */\n      0x00\n        /* \"#utility.yul\":4486:4495   */\n      dup7\n        /* \"#utility.yul\":4482:4499   */\n      add\n        /* \"#utility.yul\":4469:4500   */\n      calldataload\n        /* \"#utility.yul\":4527:4545   */\n      0xffffffffffffffff\n        /* \"#utility.yul\":4519:4525   */\n      dup2\n        /* \"#utility.yul\":4516:4546   */\n      gt\n        /* \"#utility.yul\":4513:4630   */\n      iszero\n      tag_338\n      jumpi\n        /* \"#utility.yul\":4549:4628   */\n      tag_339\n      tag_327\n      jump\t// in\n    tag_339:\n        /* \"#utility.yul\":4513:4630   */\n    tag_338:\n        /* \"#utility.yul\":4654:4717   */\n      tag_340\n        /* \"#utility.yul\":4709:4716   */\n      dup9\n        /* \"#utility.yul\":4700:4706   */\n      dup3\n        /* \"#utility.yul\":4689:4698   */\n      dup10\n        /* \"#utility.yul\":4685:4707   */\n      add\n        /* \"#utility.yul\":4654:4717   */\n      tag_289\n      jump\t// in\n    tag_340:\n        /* \"#utility.yul\":4644:4717   */\n      swap6\n      pop\n        /* \"#utility.yul\":4440:4727   */\n      pop\n        /* \"#utility.yul\":4794:4796   */\n      0x20\n        /* \"#utility.yul\":4783:4792   */\n      dup7\n        /* \"#utility.yul\":4779:4797   */\n      add\n        /* \"#utility.yul\":4766:4798   */\n      calldataload\n        /* \"#utility.yul\":4825:4843   */\n      0xffffffffffffffff\n        /* \"#utility.yul\":4817:4823   */\n      dup2\n        /* \"#utility.yul\":4814:4844   */\n      gt\n        /* \"#utility.yul\":4811:4928   */\n      iszero\n      tag_341\n      jumpi\n        /* \"#utility.yul\":4847:4926   */\n      tag_342\n      tag_327\n      jump\t// in\n    tag_342:\n        /* \"#utility.yul\":4811:4928   */\n    tag_341:\n        /* \"#utility.yul\":4952:5015   */\n      tag_343\n        /* \"#utility.yul\":5007:5014   */\n      dup9\n        /* \"#utility.yul\":4998:5004   */\n      dup3\n        /* \"#utility.yul\":4987:4996   */\n      dup10\n        /* \"#utility.yul\":4983:5005   */\n      add\n        /* \"#utility.yul\":4952:5015   */\n      tag_289\n      jump\t// in\n    tag_343:\n        /* \"#utility.yul\":4942:5015   */\n      swap5\n      pop\n        /* \"#utility.yul\":4737:5025   */\n      pop\n        /* \"#utility.yul\":5092:5094   */\n      0x40\n        /* \"#utility.yul\":5081:5090   */\n      dup7\n        /* \"#utility.yul\":5077:5095   */\n      add\n        /* \"#utility.yul\":5064:5096   */\n      calldataload\n        /* \"#utility.yul\":5123:5141   */\n      0xffffffffffffffff\n        /* \"#utility.yul\":5115:5121   */\n      dup2\n        /* \"#utility.yul\":5112:5142   */\n      gt\n        /* \"#utility.yul\":5109:5226   */\n      iszero\n      tag_344\n      jumpi\n        /* \"#utility.yul\":5145:5224   */\n      tag_345\n      tag_327\n      jump\t// in\n    tag_345:\n        /* \"#utility.yul\":5109:5226   */\n    tag_344:\n        /* \"#utility.yul\":5250:5313   */\n      tag_346\n        /* \"#utility.yul\":5305:5312   */\n      dup9\n        /* \"#utility.yul\":5296:5302   */\n      dup3\n        /* \"#utility.yul\":5285:5294   */\n      dup10\n        /* \"#utility.yul\":5281:5303   */\n      add\n        /* \"#utility.yul\":5250:5313   */\n      tag_289\n      jump\t// in\n    tag_346:\n        /* \"#utility.yul\":5240:5313   */\n      swap4\n      pop\n        /* \"#utility.yul\":5035:5323   */\n      pop\n        /* \"#utility.yul\":5390:5392   */\n      0x60\n        /* \"#utility.yul\":5379:5388   */\n      dup7\n        /* \"#utility.yul\":5375:5393   */\n      add\n        /* \"#utility.yul\":5362:5394   */\n      calldataload\n        /* \"#utility.yul\":5421:5439   */\n      0xffffffffffffffff\n        /* \"#utility.yul\":5413:5419   */\n      dup2\n        /* \"#utility.yul\":5410:5440   */\n      gt\n        /* \"#utility.yul\":5407:5524   */\n      iszero\n      tag_347\n      jumpi\n        /* \"#utility.yul\":5443:5522   */\n      tag_348\n      tag_327\n      jump\t// in\n    tag_348:\n        /* \"#utility.yul\":5407:5524   */\n    tag_347:\n        /* \"#utility.yul\":5548:5611   */\n      tag_349\n        /* \"#utility.yul\":5603:5610   */\n      dup9\n        /* \"#utility.yul\":5594:5600   */\n      dup3\n        /* \"#utility.yul\":5583:5592   */\n      dup10\n        /* \"#utility.yul\":5579:5601   */\n      add\n        /* \"#utility.yul\":5548:5611   */\n      tag_289\n      jump\t// in\n    tag_349:\n        /* \"#utility.yul\":5538:5611   */\n      swap3\n      pop\n        /* \"#utility.yul\":5333:5621   */\n      pop\n        /* \"#utility.yul\":5688:5691   */\n      0x80\n        /* \"#utility.yul\":5677:5686   */\n      dup7\n        /* \"#utility.yul\":5673:5692   */\n      add\n        /* \"#utility.yul\":5660:5693   */\n      calldataload\n        /* \"#utility.yul\":5720:5738   */\n      0xffffffffffffffff\n        /* \"#utility.yul\":5712:5718   */\n      dup2\n        /* \"#utility.yul\":5709:5739   */\n      gt\n        /* \"#utility.yul\":5706:5823   */\n      iszero\n      tag_350\n      jumpi\n        /* \"#utility.yul\":5742:5821   */\n      tag_351\n      tag_327\n      jump\t// in\n    tag_351:\n        /* \"#utility.yul\":5706:5823   */\n    tag_350:\n        /* \"#utility.yul\":5847:5910   */\n      tag_352\n        /* \"#utility.yul\":5902:5909   */\n      dup9\n        /* \"#utility.yul\":5893:5899   */\n      dup3\n        /* \"#utility.yul\":5882:5891   */\n      dup10\n        /* \"#utility.yul\":5878:5900   */\n      add\n        /* \"#utility.yul\":5847:5910   */\n      tag_289\n      jump\t// in\n    tag_352:\n        /* \"#utility.yul\":5837:5910   */\n      swap2\n      pop\n        /* \"#utility.yul\":5631:5920   */\n      pop\n        /* \"#utility.yul\":4116:5927   */\n      swap3\n      swap6\n      pop\n      swap3\n      swap6\n      swap1\n      swap4\n      pop\n      jump\t// out\n        /* \"#utility.yul\":5933:8070   */\n    tag_31:\n        /* \"#utility.yul\":6097:6103   */\n      0x00\n        /* \"#utility.yul\":6105:6111   */\n      dup1\n        /* \"#utility.yul\":6113:6119   */\n      0x00\n        /* \"#utility.yul\":6121:6127   */\n      dup1\n        /* \"#utility.yul\":6129:6135   */\n      0x00\n        /* \"#utility.yul\":6137:6143   */\n      dup1\n        /* \"#utility.yul\":6186:6189   */\n      0xc0\n        /* \"#utility.yul\":6174:6183   */\n      dup8\n        /* \"#utility.yul\":6165:6172   */\n      dup10\n        /* \"#utility.yul\":6161:6184   */\n      sub\n        /* \"#utility.yul\":6157:6190   */\n      slt\n        /* \"#utility.yul\":6154:6274   */\n      iszero\n      tag_354\n      jumpi\n        /* \"#utility.yul\":6193:6272   */\n      tag_355\n      tag_320\n      jump\t// in\n    tag_355:\n        /* \"#utility.yul\":6154:6274   */\n    tag_354:\n        /* \"#utility.yul\":6341:6342   */\n      0x00\n        /* \"#utility.yul\":6330:6339   */\n      dup8\n        /* \"#utility.yul\":6326:6343   */\n      add\n        /* \"#utility.yul\":6313:6344   */\n      calldataload\n        /* \"#utility.yul\":6371:6389   */\n      0xffffffffffffffff\n        /* \"#utility.yul\":6363:6369   */\n      dup2\n        /* \"#utility.yul\":6360:6390   */\n      gt\n        /* \"#utility.yul\":6357:6474   */\n      iszero\n      tag_356\n      jumpi\n        /* \"#utility.yul\":6393:6472   */\n      tag_357\n      tag_327\n      jump\t// in\n    tag_357:\n        /* \"#utility.yul\":6357:6474   */\n    tag_356:\n        /* \"#utility.yul\":6498:6561   */\n      tag_358\n        /* \"#utility.yul\":6553:6560   */\n      dup10\n        /* \"#utility.yul\":6544:6550   */\n      dup3\n        /* \"#utility.yul\":6533:6542   */\n      dup11\n        /* \"#utility.yul\":6529:6551   */\n      add\n        /* \"#utility.yul\":6498:6561   */\n      tag_289\n      jump\t// in\n    tag_358:\n        /* \"#utility.yul\":6488:6561   */\n      swap7\n      pop\n        /* \"#utility.yul\":6284:6571   */\n      pop\n        /* \"#utility.yul\":6638:6640   */\n      0x20\n        /* \"#utility.yul\":6627:6636   */\n      dup8\n        /* \"#utility.yul\":6623:6641   */\n      add\n        /* \"#utility.yul\":6610:6642   */\n      calldataload\n        /* \"#utility.yul\":6669:6687   */\n      0xffffffffffffffff\n        /* \"#utility.yul\":6661:6667   */\n      dup2\n        /* \"#utility.yul\":6658:6688   */\n      gt\n        /* \"#utility.yul\":6655:6772   */\n      iszero\n      tag_359\n      jumpi\n        /* \"#utility.yul\":6691:6770   */\n      tag_360\n      tag_327\n      jump\t// in\n    tag_360:\n        /* \"#utility.yul\":6655:6772   */\n    tag_359:\n        /* \"#utility.yul\":6796:6859   */\n      tag_361\n        /* \"#utility.yul\":6851:6858   */\n      dup10\n        /* \"#utility.yul\":6842:6848   */\n      dup3\n        /* \"#utility.yul\":6831:6840   */\n      dup11\n        /* \"#utility.yul\":6827:6849   */\n      add\n        /* \"#utility.yul\":6796:6859   */\n      tag_289\n      jump\t// in\n    tag_361:\n        /* \"#utility.yul\":6786:6859   */\n      swap6\n      pop\n        /* \"#utility.yul\":6581:6869   */\n      pop\n        /* \"#utility.yul\":6936:6938   */\n      0x40\n        /* \"#utility.yul\":6925:6934   */\n      dup8\n        /* \"#utility.yul\":6921:6939   */\n      add\n        /* \"#utility.yul\":6908:6940   */\n      calldataload\n        /* \"#utility.yul\":6967:6985   */\n      0xffffffffffffffff\n        /* \"#utility.yul\":6959:6965   */\n      dup2\n        /* \"#utility.yul\":6956:6986   */\n      gt\n        /* \"#utility.yul\":6953:7070   */\n      iszero\n      tag_362\n      jumpi\n        /* \"#utility.yul\":6989:7068   */\n      tag_363\n      tag_327\n      jump\t// in\n    tag_363:\n        /* \"#utility.yul\":6953:7070   */\n    tag_362:\n        /* \"#utility.yul\":7094:7157   */\n      tag_364\n        /* \"#utility.yul\":7149:7156   */\n      dup10\n        /* \"#utility.yul\":7140:7146   */\n      dup3\n        /* \"#utility.yul\":7129:7138   */\n      dup11\n        /* \"#utility.yul\":7125:7147   */\n      add\n        /* \"#utility.yul\":7094:7157   */\n      tag_289\n      jump\t// in\n    tag_364:\n        /* \"#utility.yul\":7084:7157   */\n      swap5\n      pop\n        /* \"#utility.yul\":6879:7167   */\n      pop\n        /* \"#utility.yul\":7234:7236   */\n      0x60\n        /* \"#utility.yul\":7223:7232   */\n      dup8\n        /* \"#utility.yul\":7219:7237   */\n      add\n        /* \"#utility.yul\":7206:7238   */\n      calldataload\n        /* \"#utility.yul\":7265:7283   */\n      0xffffffffffffffff\n        /* \"#utility.yul\":7257:7263   */\n      dup2\n        /* \"#utility.yul\":7254:7284   */\n      gt\n        /* \"#utility.yul\":7251:7368   */\n      iszero\n      tag_365\n      jumpi\n        /* \"#utility.yul\":7287:7366   */\n      tag_366\n      tag_327\n      jump\t// in\n    tag_366:\n        /* \"#utility.yul\":7251:7368   */\n    tag_365:\n        /* \"#utility.yul\":7392:7455   */\n      tag_367\n        /* \"#utility.yul\":7447:7454   */\n      dup10\n        /* \"#utility.yul\":7438:7444   */\n      dup3\n        /* \"#utility.yul\":7427:7436   */\n      dup11\n        /* \"#utility.yul\":7423:7445   */\n      add\n        /* \"#utility.yul\":7392:7455   */\n      tag_289\n      jump\t// in\n    tag_367:\n        /* \"#utility.yul\":7382:7455   */\n      swap4\n      pop\n        /* \"#utility.yul\":7177:7465   */\n      pop\n        /* \"#utility.yul\":7532:7535   */\n      0x80\n        /* \"#utility.yul\":7521:7530   */\n      dup8\n        /* \"#utility.yul\":7517:7536   */\n      add\n        /* \"#utility.yul\":7504:7537   */\n      calldataload\n        /* \"#utility.yul\":7564:7582   */\n      0xffffffffffffffff\n        /* \"#utility.yul\":7556:7562   */\n      dup2\n        /* \"#utility.yul\":7553:7583   */\n      gt\n        /* \"#utility.yul\":7550:7667   */\n      iszero\n      tag_368\n      jumpi\n        /* \"#utility.yul\":7586:7665   */\n      tag_369\n      tag_327\n      jump\t// in\n    tag_369:\n        /* \"#utility.yul\":7550:7667   */\n    tag_368:\n        /* \"#utility.yul\":7691:7754   */\n      tag_370\n        /* \"#utility.yul\":7746:7753   */\n      dup10\n        /* \"#utility.yul\":7737:7743   */\n      dup3\n        /* \"#utility.yul\":7726:7735   */\n      dup11\n        /* \"#utility.yul\":7722:7744   */\n      add\n        /* \"#utility.yul\":7691:7754   */\n      tag_289\n      jump\t// in\n    tag_370:\n        /* \"#utility.yul\":7681:7754   */\n      swap3\n      pop\n        /* \"#utility.yul\":7475:7764   */\n      pop\n        /* \"#utility.yul\":7831:7834   */\n      0xa0\n        /* \"#utility.yul\":7820:7829   */\n      dup8\n        /* \"#utility.yul\":7816:7835   */\n      add\n        /* \"#utility.yul\":7803:7836   */\n      calldataload\n        /* \"#utility.yul\":7863:7881   */\n      0xffffffffffffffff\n        /* \"#utility.yul\":7855:7861   */\n      dup2\n        /* \"#utility.yul\":7852:7882   */\n      gt\n        /* \"#utility.yul\":7849:7966   */\n      iszero\n      tag_371\n      jumpi\n        /* \"#utility.yul\":7885:7964   */\n      tag_372\n      tag_327\n      jump\t// in\n    tag_372:\n        /* \"#utility.yul\":7849:7966   */\n    tag_371:\n        /* \"#utility.yul\":7990:8053   */\n      tag_373\n        /* \"#utility.yul\":8045:8052   */\n      dup10\n        /* \"#utility.yul\":8036:8042   */\n      dup3\n        /* \"#utility.yul\":8025:8034   */\n      dup11\n        /* \"#utility.yul\":8021:8043   */\n      add\n        /* \"#utility.yul\":7990:8053   */\n      tag_289\n      jump\t// in\n    tag_373:\n        /* \"#utility.yul\":7980:8053   */\n      swap2\n      pop\n        /* \"#utility.yul\":7774:8063   */\n      pop\n        /* \"#utility.yul\":5933:8070   */\n      swap3\n      swap6\n      pop\n      swap3\n      swap6\n      pop\n      swap3\n      swap6\n      jump\t// out\n        /* \"#utility.yul\":8076:8405   */\n    tag_45:\n        /* \"#utility.yul\":8135:8141   */\n      0x00\n        /* \"#utility.yul\":8184:8186   */\n      0x20\n        /* \"#utility.yul\":8172:8181   */\n      dup3\n        /* \"#utility.yul\":8163:8170   */\n      dup5\n        /* \"#utility.yul\":8159:8182   */\n      sub\n        /* \"#utility.yul\":8155:8187   */\n      slt\n        /* \"#utility.yul\":8152:8271   */\n      iszero\n      tag_375\n      jumpi\n        /* \"#utility.yul\":8190:8269   */\n      tag_376\n      tag_320\n      jump\t// in\n    tag_376:\n        /* \"#utility.yul\":8152:8271   */\n    tag_375:\n        /* \"#utility.yul\":8310:8311   */\n      0x00\n        /* \"#utility.yul\":8335:8388   */\n      tag_377\n        /* \"#utility.yul\":8380:8387   */\n      dup5\n        /* \"#utility.yul\":8371:8377   */\n      dup3\n        /* \"#utility.yul\":8360:8369   */\n      dup6\n        /* \"#utility.yul\":8356:8378   */\n      add\n        /* \"#utility.yul\":8335:8388   */\n      tag_313\n      jump\t// in\n    tag_377:\n        /* \"#utility.yul\":8325:8388   */\n      swap2\n      pop\n        /* \"#utility.yul\":8281:8398   */\n      pop\n        /* \"#utility.yul\":8076:8405   */\n      swap3\n      swap2\n      pop\n      pop\n      jump\t// out\n        /* \"#utility.yul\":8411:8607   */\n    tag_378:\n        /* \"#utility.yul\":8500:8510   */\n      0x00\n        /* \"#utility.yul\":8535:8601   */\n      tag_380\n        /* \"#utility.yul\":8597:8600   */\n      dup4\n        /* \"#utility.yul\":8589:8595   */\n      dup4\n        /* \"#utility.yul\":8535:8601   */\n      tag_381\n      jump\t// in\n    tag_380:\n        /* \"#utility.yul\":8521:8601   */\n      swap1\n      pop\n        /* \"#utility.yul\":8411:8607   */\n      swap3\n      swap2\n      pop\n      pop\n      jump\t// out\n        /* \"#utility.yul\":8613:8721   */\n    tag_382:\n        /* \"#utility.yul\":8690:8714   */\n      tag_384\n        /* \"#utility.yul\":8708:8713   */\n      dup2\n        /* \"#utility.yul\":8690:8714   */\n      tag_385\n      jump\t// in\n    tag_384:\n        /* \"#utility.yul\":8685:8688   */\n      dup3\n        /* \"#utility.yul\":8678:8715   */\n      mstore\n        /* \"#utility.yul\":8613:8721   */\n      pop\n      pop\n      jump\t// out\n        /* \"#utility.yul\":8755:9726   */\n    tag_386:\n        /* \"#utility.yul\":8884:8887   */\n      0x00\n        /* \"#utility.yul\":8913:8977   */\n      tag_388\n        /* \"#utility.yul\":8971:8976   */\n      dup3\n        /* \"#utility.yul\":8913:8977   */\n      tag_389\n      jump\t// in\n    tag_388:\n        /* \"#utility.yul\":8993:9079   */\n      tag_390\n        /* \"#utility.yul\":9072:9078   */\n      dup2\n        /* \"#utility.yul\":9067:9070   */\n      dup6\n        /* \"#utility.yul\":8993:9079   */\n      tag_391\n      jump\t// in\n    tag_390:\n        /* \"#utility.yul\":8986:9079   */\n      swap4\n      pop\n        /* \"#utility.yul\":9105:9108   */\n      dup4\n        /* \"#utility.yul\":9150:9154   */\n      0x20\n        /* \"#utility.yul\":9142:9148   */\n      dup3\n        /* \"#utility.yul\":9138:9155   */\n      mul\n        /* \"#utility.yul\":9133:9136   */\n      dup6\n        /* \"#utility.yul\":9129:9156   */\n      add\n        /* \"#utility.yul\":9180:9246   */\n      tag_392\n        /* \"#utility.yul\":9240:9245   */\n      dup6\n        /* \"#utility.yul\":9180:9246   */\n      tag_393\n      jump\t// in\n    tag_392:\n        /* \"#utility.yul\":9269:9276   */\n      dup1\n        /* \"#utility.yul\":9300:9301   */\n      0x00\n        /* \"#utility.yul\":9285:9681   */\n    tag_394:\n        /* \"#utility.yul\":9310:9316   */\n      dup6\n        /* \"#utility.yul\":9307:9308   */\n      dup2\n        /* \"#utility.yul\":9304:9317   */\n      lt\n        /* \"#utility.yul\":9285:9681   */\n      iszero\n      tag_396\n      jumpi\n        /* \"#utility.yul\":9381:9390   */\n      dup5\n        /* \"#utility.yul\":9375:9379   */\n      dup5\n        /* \"#utility.yul\":9371:9391   */\n      sub\n        /* \"#utility.yul\":9366:9369   */\n      dup10\n        /* \"#utility.yul\":9359:9392   */\n      mstore\n        /* \"#utility.yul\":9432:9438   */\n      dup2\n        /* \"#utility.yul\":9426:9439   */\n      mload\n        /* \"#utility.yul\":9460:9544   */\n      tag_397\n        /* \"#utility.yul\":9539:9543   */\n      dup6\n        /* \"#utility.yul\":9524:9537   */\n      dup3\n        /* \"#utility.yul\":9460:9544   */\n      tag_378\n      jump\t// in\n    tag_397:\n        /* \"#utility.yul\":9452:9544   */\n      swap5\n      pop\n        /* \"#utility.yul\":9567:9637   */\n      tag_398\n        /* \"#utility.yul\":9630:9636   */\n      dup4\n        /* \"#utility.yul\":9567:9637   */\n      tag_399\n      jump\t// in\n    tag_398:\n        /* \"#utility.yul\":9557:9637   */\n      swap3\n      pop\n        /* \"#utility.yul\":9666:9670   */\n      0x20\n        /* \"#utility.yul\":9661:9664   */\n      dup11\n        /* \"#utility.yul\":9657:9671   */\n      add\n        /* \"#utility.yul\":9650:9671   */\n      swap10\n      pop\n        /* \"#utility.yul\":9345:9681   */\n      pop\n        /* \"#utility.yul\":9332:9333   */\n      0x01\n        /* \"#utility.yul\":9329:9330   */\n      dup2\n        /* \"#utility.yul\":9325:9334   */\n      add\n        /* \"#utility.yul\":9320:9334   */\n      swap1\n      pop\n        /* \"#utility.yul\":9285:9681   */\n      jump(tag_394)\n    tag_396:\n        /* \"#utility.yul\":9289:9303   */\n      pop\n        /* \"#utility.yul\":9697:9701   */\n      dup3\n        /* \"#utility.yul\":9690:9701   */\n      swap8\n      pop\n        /* \"#utility.yul\":9717:9720   */\n      dup8\n        /* \"#utility.yul\":9710:9720   */\n      swap6\n      pop\n        /* \"#utility.yul\":8889:9726   */\n      pop\n      pop\n      pop\n      pop\n      pop\n        /* \"#utility.yul\":8755:9726   */\n      swap3\n      swap2\n      pop\n      pop\n      jump\t// out\n        /* \"#utility.yul\":9732:10076   */\n    tag_381:\n        /* \"#utility.yul\":9810:9813   */\n      0x00\n        /* \"#utility.yul\":9838:9877   */\n      tag_401\n        /* \"#utility.yul\":9871:9876   */\n      dup3\n        /* \"#utility.yul\":9838:9877   */\n      tag_402\n      jump\t// in\n    tag_401:\n        /* \"#utility.yul\":9893:9954   */\n      tag_403\n        /* \"#utility.yul\":9947:9953   */\n      dup2\n        /* \"#utility.yul\":9942:9945   */\n      dup6\n        /* \"#utility.yul\":9893:9954   */\n      tag_404\n      jump\t// in\n    tag_403:\n        /* \"#utility.yul\":9886:9954   */\n      swap4\n      pop\n        /* \"#utility.yul\":9963:10015   */\n      tag_405\n        /* \"#utility.yul\":10008:10014   */\n      dup2\n        /* \"#utility.yul\":10003:10006   */\n      dup6\n        /* \"#utility.yul\":9996:10000   */\n      0x20\n        /* \"#utility.yul\":9989:9994   */\n      dup7\n        /* \"#utility.yul\":9985:10001   */\n      add\n        /* \"#utility.yul\":9963:10015   */\n      tag_406\n      jump\t// in\n    tag_405:\n        /* \"#utility.yul\":10040:10069   */\n      tag_407\n        /* \"#utility.yul\":10062:10068   */\n      dup2\n        /* \"#utility.yul\":10040:10069   */\n      tag_408\n      jump\t// in\n    tag_407:\n        /* \"#utility.yul\":10035:10038   */\n      dup5\n        /* \"#utility.yul\":10031:10070   */\n      add\n        /* \"#utility.yul\":10024:10070   */\n      swap2\n      pop\n        /* \"#utility.yul\":9814:10076   */\n      pop\n        /* \"#utility.yul\":9732:10076   */\n      swap3\n      swap2\n      pop\n      pop\n      jump\t// out\n        /* \"#utility.yul\":10082:10446   */\n    tag_409:\n        /* \"#utility.yul\":10170:10173   */\n      0x00\n        /* \"#utility.yul\":10198:10237   */\n      tag_411\n        /* \"#utility.yul\":10231:10236   */\n      dup3\n        /* \"#utility.yul\":10198:10237   */\n      tag_402\n      jump\t// in\n    tag_411:\n        /* \"#utility.yul\":10253:10324   */\n      tag_412\n        /* \"#utility.yul\":10317:10323   */\n      dup2\n        /* \"#utility.yul\":10312:10315   */\n      dup6\n        /* \"#utility.yul\":10253:10324   */\n      tag_413\n      jump\t// in\n    tag_412:\n        /* \"#utility.yul\":10246:10324   */\n      swap4\n      pop\n        /* \"#utility.yul\":10333:10385   */\n      tag_414\n        /* \"#utility.yul\":10378:10384   */\n      dup2\n        /* \"#utility.yul\":10373:10376   */\n      dup6\n        /* \"#utility.yul\":10366:10370   */\n      0x20\n        /* \"#utility.yul\":10359:10364   */\n      dup7\n        /* \"#utility.yul\":10355:10371   */\n      add\n        /* \"#utility.yul\":10333:10385   */\n      tag_406\n      jump\t// in\n    tag_414:\n        /* \"#utility.yul\":10410:10439   */\n      tag_415\n        /* \"#utility.yul\":10432:10438   */\n      dup2\n        /* \"#utility.yul\":10410:10439   */\n      tag_408\n      jump\t// in\n    tag_415:\n        /* \"#utility.yul\":10405:10408   */\n      dup5\n        /* \"#utility.yul\":10401:10440   */\n      add\n        /* \"#utility.yul\":10394:10440   */\n      swap2\n      pop\n        /* \"#utility.yul\":10174:10446   */\n      pop\n        /* \"#utility.yul\":10082:10446   */\n      swap3\n      swap2\n      pop\n      pop\n      jump\t// out\n        /* \"#utility.yul\":10510:12176   */\n    tag_416:\n        /* \"#utility.yul\":10627:10630   */\n      0x00\n        /* \"#utility.yul\":10663:10667   */\n      0xc0\n        /* \"#utility.yul\":10658:10661   */\n      dup4\n        /* \"#utility.yul\":10654:10668   */\n      add\n        /* \"#utility.yul\":10753:10757   */\n      0x00\n        /* \"#utility.yul\":10746:10751   */\n      dup4\n        /* \"#utility.yul\":10742:10758   */\n      add\n        /* \"#utility.yul\":10736:10759   */\n      mload\n        /* \"#utility.yul\":10806:10809   */\n      dup5\n        /* \"#utility.yul\":10800:10804   */\n      dup3\n        /* \"#utility.yul\":10796:10810   */\n      sub\n        /* \"#utility.yul\":10789:10793   */\n      0x00\n        /* \"#utility.yul\":10784:10787   */\n      dup7\n        /* \"#utility.yul\":10780:10794   */\n      add\n        /* \"#utility.yul\":10773:10811   */\n      mstore\n        /* \"#utility.yul\":10832:10905   */\n      tag_418\n        /* \"#utility.yul\":10900:10904   */\n      dup3\n        /* \"#utility.yul\":10886:10898   */\n      dup3\n        /* \"#utility.yul\":10832:10905   */\n      tag_381\n      jump\t// in\n    tag_418:\n        /* \"#utility.yul\":10824:10905   */\n      swap2\n      pop\n        /* \"#utility.yul\":10678:10916   */\n      pop\n        /* \"#utility.yul\":10999:11003   */\n      0x20\n        /* \"#utility.yul\":10992:10997   */\n      dup4\n        /* \"#utility.yul\":10988:11004   */\n      add\n        /* \"#utility.yul\":10982:11005   */\n      mload\n        /* \"#utility.yul\":11052:11055   */\n      dup5\n        /* \"#utility.yul\":11046:11050   */\n      dup3\n        /* \"#utility.yul\":11042:11056   */\n      sub\n        /* \"#utility.yul\":11035:11039   */\n      0x20\n        /* \"#utility.yul\":11030:11033   */\n      dup7\n        /* \"#utility.yul\":11026:11040   */\n      add\n        /* \"#utility.yul\":11019:11057   */\n      mstore\n        /* \"#utility.yul\":11078:11151   */\n      tag_419\n        /* \"#utility.yul\":11146:11150   */\n      dup3\n        /* \"#utility.yul\":11132:11144   */\n      dup3\n        /* \"#utility.yul\":11078:11151   */\n      tag_381\n      jump\t// in\n    tag_419:\n        /* \"#utility.yul\":11070:11151   */\n      swap2\n      pop\n        /* \"#utility.yul\":10926:11162   */\n      pop\n        /* \"#utility.yul\":11245:11249   */\n      0x40\n        /* \"#utility.yul\":11238:11243   */\n      dup4\n        /* \"#utility.yul\":11234:11250   */\n      add\n        /* \"#utility.yul\":11228:11251   */\n      mload\n        /* \"#utility.yul\":11298:11301   */\n      dup5\n        /* \"#utility.yul\":11292:11296   */\n      dup3\n        /* \"#utility.yul\":11288:11302   */\n      sub\n        /* \"#utility.yul\":11281:11285   */\n      0x40\n        /* \"#utility.yul\":11276:11279   */\n      dup7\n        /* \"#utility.yul\":11272:11286   */\n      add\n        /* \"#utility.yul\":11265:11303   */\n      mstore\n        /* \"#utility.yul\":11324:11397   */\n      tag_420\n        /* \"#utility.yul\":11392:11396   */\n      dup3\n        /* \"#utility.yul\":11378:11390   */\n      dup3\n        /* \"#utility.yul\":11324:11397   */\n      tag_381\n      jump\t// in\n    tag_420:\n        /* \"#utility.yul\":11316:11397   */\n      swap2\n      pop\n        /* \"#utility.yul\":11172:11408   */\n      pop\n        /* \"#utility.yul\":11492:11496   */\n      0x60\n        /* \"#utility.yul\":11485:11490   */\n      dup4\n        /* \"#utility.yul\":11481:11497   */\n      add\n        /* \"#utility.yul\":11475:11498   */\n      mload\n        /* \"#utility.yul\":11545:11548   */\n      dup5\n        /* \"#utility.yul\":11539:11543   */\n      dup3\n        /* \"#utility.yul\":11535:11549   */\n      sub\n        /* \"#utility.yul\":11528:11532   */\n      0x60\n        /* \"#utility.yul\":11523:11526   */\n      dup7\n        /* \"#utility.yul\":11519:11533   */\n      add\n        /* \"#utility.yul\":11512:11550   */\n      mstore\n        /* \"#utility.yul\":11571:11644   */\n      tag_421\n        /* \"#utility.yul\":11639:11643   */\n      dup3\n        /* \"#utility.yul\":11625:11637   */\n      dup3\n        /* \"#utility.yul\":11571:11644   */\n      tag_381\n      jump\t// in\n    tag_421:\n        /* \"#utility.yul\":11563:11644   */\n      swap2\n      pop\n        /* \"#utility.yul\":11418:11655   */\n      pop\n        /* \"#utility.yul\":11739:11743   */\n      0x80\n        /* \"#utility.yul\":11732:11737   */\n      dup4\n        /* \"#utility.yul\":11728:11744   */\n      add\n        /* \"#utility.yul\":11722:11745   */\n      mload\n        /* \"#utility.yul\":11792:11795   */\n      dup5\n        /* \"#utility.yul\":11786:11790   */\n      dup3\n        /* \"#utility.yul\":11782:11796   */\n      sub\n        /* \"#utility.yul\":11775:11779   */\n      0x80\n        /* \"#utility.yul\":11770:11773   */\n      dup7\n        /* \"#utility.yul\":11766:11780   */\n      add\n        /* \"#utility.yul\":11759:11797   */\n      mstore\n        /* \"#utility.yul\":11818:11891   */\n      tag_422\n        /* \"#utility.yul\":11886:11890   */\n      dup3\n        /* \"#utility.yul\":11872:11884   */\n      dup3\n        /* \"#utility.yul\":11818:11891   */\n      tag_381\n      jump\t// in\n    tag_422:\n        /* \"#utility.yul\":11810:11891   */\n      swap2\n      pop\n        /* \"#utility.yul\":11665:11902   */\n      pop\n        /* \"#utility.yul\":11986:11990   */\n      0xa0\n        /* \"#utility.yul\":11979:11984   */\n      dup4\n        /* \"#utility.yul\":11975:11991   */\n      add\n        /* \"#utility.yul\":11969:11992   */\n      mload\n        /* \"#utility.yul\":12039:12042   */\n      dup5\n        /* \"#utility.yul\":12033:12037   */\n      dup3\n        /* \"#utility.yul\":12029:12043   */\n      sub\n        /* \"#utility.yul\":12022:12026   */\n      0xa0\n        /* \"#utility.yul\":12017:12020   */\n      dup7\n        /* \"#utility.yul\":12013:12027   */\n      add\n        /* \"#utility.yul\":12006:12044   */\n      mstore\n        /* \"#utility.yul\":12065:12138   */\n      tag_423\n        /* \"#utility.yul\":12133:12137   */\n      dup3\n        /* \"#utility.yul\":12119:12131   */\n      dup3\n        /* \"#utility.yul\":12065:12138   */\n      tag_381\n      jump\t// in\n    tag_423:\n        /* \"#utility.yul\":12057:12138   */\n      swap2\n      pop\n        /* \"#utility.yul\":11912:12149   */\n      pop\n        /* \"#utility.yul\":12166:12170   */\n      dup1\n        /* \"#utility.yul\":12159:12170   */\n      swap2\n      pop\n        /* \"#utility.yul\":10632:12176   */\n      pop\n        /* \"#utility.yul\":10510:12176   */\n      swap3\n      swap2\n      pop\n      pop\n      jump\t// out\n        /* \"#utility.yul\":12246:14300   */\n    tag_424:\n        /* \"#utility.yul\":12369:12372   */\n      0x00\n        /* \"#utility.yul\":12405:12411   */\n      0x0100\n        /* \"#utility.yul\":12400:12403   */\n      dup4\n        /* \"#utility.yul\":12396:12412   */\n      add\n        /* \"#utility.yul\":12497:12501   */\n      0x00\n        /* \"#utility.yul\":12490:12495   */\n      dup4\n        /* \"#utility.yul\":12486:12502   */\n      add\n        /* \"#utility.yul\":12480:12503   */\n      mload\n        /* \"#utility.yul\":12550:12553   */\n      dup5\n        /* \"#utility.yul\":12544:12548   */\n      dup3\n        /* \"#utility.yul\":12540:12554   */\n      sub\n        /* \"#utility.yul\":12533:12537   */\n      0x00\n        /* \"#utility.yul\":12528:12531   */\n      dup7\n        /* \"#utility.yul\":12524:12538   */\n      add\n        /* \"#utility.yul\":12517:12555   */\n      mstore\n        /* \"#utility.yul\":12576:12649   */\n      tag_426\n        /* \"#utility.yul\":12644:12648   */\n      dup3\n        /* \"#utility.yul\":12630:12642   */\n      dup3\n        /* \"#utility.yul\":12576:12649   */\n      tag_381\n      jump\t// in\n    tag_426:\n        /* \"#utility.yul\":12568:12649   */\n      swap2\n      pop\n        /* \"#utility.yul\":12422:12660   */\n      pop\n        /* \"#utility.yul\":12746:12750   */\n      0x20\n        /* \"#utility.yul\":12739:12744   */\n      dup4\n        /* \"#utility.yul\":12735:12751   */\n      add\n        /* \"#utility.yul\":12729:12752   */\n      mload\n        /* \"#utility.yul\":12799:12802   */\n      dup5\n        /* \"#utility.yul\":12793:12797   */\n      dup3\n        /* \"#utility.yul\":12789:12803   */\n      sub\n        /* \"#utility.yul\":12782:12786   */\n      0x20\n        /* \"#utility.yul\":12777:12780   */\n      dup7\n        /* \"#utility.yul\":12773:12787   */\n      add\n        /* \"#utility.yul\":12766:12804   */\n      mstore\n        /* \"#utility.yul\":12825:12898   */\n      tag_427\n        /* \"#utility.yul\":12893:12897   */\n      dup3\n        /* \"#utility.yul\":12879:12891   */\n      dup3\n        /* \"#utility.yul\":12825:12898   */\n      tag_381\n      jump\t// in\n    tag_427:\n        /* \"#utility.yul\":12817:12898   */\n      swap2\n      pop\n        /* \"#utility.yul\":12670:12909   */\n      pop\n        /* \"#utility.yul\":12998:13002   */\n      0x40\n        /* \"#utility.yul\":12991:12996   */\n      dup4\n        /* \"#utility.yul\":12987:13003   */\n      add\n        /* \"#utility.yul\":12981:13004   */\n      mload\n        /* \"#utility.yul\":13017:13080   */\n      tag_428\n        /* \"#utility.yul\":13074:13078   */\n      0x40\n        /* \"#utility.yul\":13069:13072   */\n      dup7\n        /* \"#utility.yul\":13065:13079   */\n      add\n        /* \"#utility.yul\":13051:13063   */\n      dup3\n        /* \"#utility.yul\":13017:13080   */\n      tag_382\n      jump\t// in\n    tag_428:\n        /* \"#utility.yul\":12919:13090   */\n      pop\n        /* \"#utility.yul\":13177:13181   */\n      0x60\n        /* \"#utility.yul\":13170:13175   */\n      dup4\n        /* \"#utility.yul\":13166:13182   */\n      add\n        /* \"#utility.yul\":13160:13183   */\n      mload\n        /* \"#utility.yul\":13230:13233   */\n      dup5\n        /* \"#utility.yul\":13224:13228   */\n      dup3\n        /* \"#utility.yul\":13220:13234   */\n      sub\n        /* \"#utility.yul\":13213:13217   */\n      0x60\n        /* \"#utility.yul\":13208:13211   */\n      dup7\n        /* \"#utility.yul\":13204:13218   */\n      add\n        /* \"#utility.yul\":13197:13235   */\n      mstore\n        /* \"#utility.yul\":13256:13329   */\n      tag_429\n        /* \"#utility.yul\":13324:13328   */\n      dup3\n        /* \"#utility.yul\":13310:13322   */\n      dup3\n        /* \"#utility.yul\":13256:13329   */\n      tag_381\n      jump\t// in\n    tag_429:\n        /* \"#utility.yul\":13248:13329   */\n      swap2\n      pop\n        /* \"#utility.yul\":13100:13340   */\n      pop\n        /* \"#utility.yul\":13428:13432   */\n      0x80\n        /* \"#utility.yul\":13421:13426   */\n      dup4\n        /* \"#utility.yul\":13417:13433   */\n      add\n        /* \"#utility.yul\":13411:13434   */\n      mload\n        /* \"#utility.yul\":13481:13484   */\n      dup5\n        /* \"#utility.yul\":13475:13479   */\n      dup3\n        /* \"#utility.yul\":13471:13485   */\n      sub\n        /* \"#utility.yul\":13464:13468   */\n      0x80\n        /* \"#utility.yul\":13459:13462   */\n      dup7\n        /* \"#utility.yul\":13455:13469   */\n      add\n        /* \"#utility.yul\":13448:13486   */\n      mstore\n        /* \"#utility.yul\":13507:13580   */\n      tag_430\n        /* \"#utility.yul\":13575:13579   */\n      dup3\n        /* \"#utility.yul\":13561:13573   */\n      dup3\n        /* \"#utility.yul\":13507:13580   */\n      tag_381\n      jump\t// in\n    tag_430:\n        /* \"#utility.yul\":13499:13580   */\n      swap2\n      pop\n        /* \"#utility.yul\":13350:13591   */\n      pop\n        /* \"#utility.yul\":13677:13681   */\n      0xa0\n        /* \"#utility.yul\":13670:13675   */\n      dup4\n        /* \"#utility.yul\":13666:13682   */\n      add\n        /* \"#utility.yul\":13660:13683   */\n      mload\n        /* \"#utility.yul\":13730:13733   */\n      dup5\n        /* \"#utility.yul\":13724:13728   */\n      dup3\n        /* \"#utility.yul\":13720:13734   */\n      sub\n        /* \"#utility.yul\":13713:13717   */\n      0xa0\n        /* \"#utility.yul\":13708:13711   */\n      dup7\n        /* \"#utility.yul\":13704:13718   */\n      add\n        /* \"#utility.yul\":13697:13735   */\n      mstore\n        /* \"#utility.yul\":13756:13829   */\n      tag_431\n        /* \"#utility.yul\":13824:13828   */\n      dup3\n        /* \"#utility.yul\":13810:13822   */\n      dup3\n        /* \"#utility.yul\":13756:13829   */\n      tag_381\n      jump\t// in\n    tag_431:\n        /* \"#utility.yul\":13748:13829   */\n      swap2\n      pop\n        /* \"#utility.yul\":13601:13840   */\n      pop\n        /* \"#utility.yul\":13930:13934   */\n      0xc0\n        /* \"#utility.yul\":13923:13928   */\n      dup4\n        /* \"#utility.yul\":13919:13935   */\n      add\n        /* \"#utility.yul\":13913:13936   */\n      mload\n        /* \"#utility.yul\":13983:13986   */\n      dup5\n        /* \"#utility.yul\":13977:13981   */\n      dup3\n        /* \"#utility.yul\":13973:13987   */\n      sub\n        /* \"#utility.yul\":13966:13970   */\n      0xc0\n        /* \"#utility.yul\":13961:13964   */\n      dup7\n        /* \"#utility.yul\":13957:13971   */\n      add\n        /* \"#utility.yul\":13950:13988   */\n      mstore\n        /* \"#utility.yul\":14009:14082   */\n      tag_432\n        /* \"#utility.yul\":14077:14081   */\n      dup3\n        /* \"#utility.yul\":14063:14075   */\n      dup3\n        /* \"#utility.yul\":14009:14082   */\n      tag_381\n      jump\t// in\n    tag_432:\n        /* \"#utility.yul\":14001:14082   */\n      swap2\n      pop\n        /* \"#utility.yul\":13850:14093   */\n      pop\n        /* \"#utility.yul\":14181:14185   */\n      0xe0\n        /* \"#utility.yul\":14174:14179   */\n      dup4\n        /* \"#utility.yul\":14170:14186   */\n      add\n        /* \"#utility.yul\":14164:14187   */\n      mload\n        /* \"#utility.yul\":14200:14263   */\n      tag_433\n        /* \"#utility.yul\":14257:14261   */\n      0xe0\n        /* \"#utility.yul\":14252:14255   */\n      dup7\n        /* \"#utility.yul\":14248:14262   */\n      add\n        /* \"#utility.yul\":14234:14246   */\n      dup3\n        /* \"#utility.yul\":14200:14263   */\n      tag_434\n      jump\t// in\n    tag_433:\n        /* \"#utility.yul\":14103:14273   */\n      pop\n        /* \"#utility.yul\":14290:14294   */\n      dup1\n        /* \"#utility.yul\":14283:14294   */\n      swap2\n      pop\n        /* \"#utility.yul\":12374:14300   */\n      pop\n        /* \"#utility.yul\":12246:14300   */\n      swap3\n      swap2\n      pop\n      pop\n      jump\t// out\n        /* \"#utility.yul\":14358:15455   */\n    tag_435:\n        /* \"#utility.yul\":14469:14472   */\n      0x00\n        /* \"#utility.yul\":14505:14509   */\n      0x60\n        /* \"#utility.yul\":14500:14503   */\n      dup4\n        /* \"#utility.yul\":14496:14510   */\n      add\n        /* \"#utility.yul\":14608:14612   */\n      0x00\n        /* \"#utility.yul\":14601:14606   */\n      dup4\n        /* \"#utility.yul\":14597:14613   */\n      add\n        /* \"#utility.yul\":14591:14614   */\n      mload\n        /* \"#utility.yul\":14661:14664   */\n      dup5\n        /* \"#utility.yul\":14655:14659   */\n      dup3\n        /* \"#utility.yul\":14651:14665   */\n      sub\n        /* \"#utility.yul\":14644:14648   */\n      0x00\n        /* \"#utility.yul\":14639:14642   */\n      dup7\n        /* \"#utility.yul\":14635:14649   */\n      add\n        /* \"#utility.yul\":14628:14666   */\n      mstore\n        /* \"#utility.yul\":14687:14810   */\n      tag_437\n        /* \"#utility.yul\":14805:14809   */\n      dup3\n        /* \"#utility.yul\":14791:14803   */\n      dup3\n        /* \"#utility.yul\":14687:14810   */\n      tag_386\n      jump\t// in\n    tag_437:\n        /* \"#utility.yul\":14679:14810   */\n      swap2\n      pop\n        /* \"#utility.yul\":14520:14821   */\n      pop\n        /* \"#utility.yul\":14908:14912   */\n      0x20\n        /* \"#utility.yul\":14901:14906   */\n      dup4\n        /* \"#utility.yul\":14897:14913   */\n      add\n        /* \"#utility.yul\":14891:14914   */\n      mload\n        /* \"#utility.yul\":14961:14964   */\n      dup5\n        /* \"#utility.yul\":14955:14959   */\n      dup3\n        /* \"#utility.yul\":14951:14965   */\n      sub\n        /* \"#utility.yul\":14944:14948   */\n      0x20\n        /* \"#utility.yul\":14939:14942   */\n      dup7\n        /* \"#utility.yul\":14935:14949   */\n      add\n        /* \"#utility.yul\":14928:14966   */\n      mstore\n        /* \"#utility.yul\":14987:15110   */\n      tag_438\n        /* \"#utility.yul\":15105:15109   */\n      dup3\n        /* \"#utility.yul\":15091:15103   */\n      dup3\n        /* \"#utility.yul\":14987:15110   */\n      tag_386\n      jump\t// in\n    tag_438:\n        /* \"#utility.yul\":14979:15110   */\n      swap2\n      pop\n        /* \"#utility.yul\":14831:15121   */\n      pop\n        /* \"#utility.yul\":15215:15219   */\n      0x40\n        /* \"#utility.yul\":15208:15213   */\n      dup4\n        /* \"#utility.yul\":15204:15220   */\n      add\n        /* \"#utility.yul\":15198:15221   */\n      mload\n        /* \"#utility.yul\":15268:15271   */\n      dup5\n        /* \"#utility.yul\":15262:15266   */\n      dup3\n        /* \"#utility.yul\":15258:15272   */\n      sub\n        /* \"#utility.yul\":15251:15255   */\n      0x40\n        /* \"#utility.yul\":15246:15249   */\n      dup7\n        /* \"#utility.yul\":15242:15256   */\n      add\n        /* \"#utility.yul\":15235:15273   */\n      mstore\n        /* \"#utility.yul\":15294:15417   */\n      tag_439\n        /* \"#utility.yul\":15412:15416   */\n      dup3\n        /* \"#utility.yul\":15398:15410   */\n      dup3\n        /* \"#utility.yul\":15294:15417   */\n      tag_386\n      jump\t// in\n    tag_439:\n        /* \"#utility.yul\":15286:15417   */\n      swap2\n      pop\n        /* \"#utility.yul\":15131:15428   */\n      pop\n        /* \"#utility.yul\":15445:15449   */\n      dup1\n        /* \"#utility.yul\":15438:15449   */\n      swap2\n      pop\n        /* \"#utility.yul\":14474:15455   */\n      pop\n        /* \"#utility.yul\":14358:15455   */\n      swap3\n      swap2\n      pop\n      pop\n      jump\t// out\n        /* \"#utility.yul\":15461:15569   */\n    tag_434:\n        /* \"#utility.yul\":15538:15562   */\n      tag_441\n        /* \"#utility.yul\":15556:15561   */\n      dup2\n        /* \"#utility.yul\":15538:15562   */\n      tag_442\n      jump\t// in\n    tag_441:\n        /* \"#utility.yul\":15533:15536   */\n      dup3\n        /* \"#utility.yul\":15526:15563   */\n      mstore\n        /* \"#utility.yul\":15461:15569   */\n      pop\n      pop\n      jump\t// out\n        /* \"#utility.yul\":15575:15693   */\n    tag_443:\n        /* \"#utility.yul\":15662:15686   */\n      tag_445\n        /* \"#utility.yul\":15680:15685   */\n      dup2\n        /* \"#utility.yul\":15662:15686   */\n      tag_442\n      jump\t// in\n    tag_445:\n        /* \"#utility.yul\":15657:15660   */\n      dup3\n        /* \"#utility.yul\":15650:15687   */\n      mstore\n        /* \"#utility.yul\":15575:15693   */\n      pop\n      pop\n      jump\t// out\n        /* \"#utility.yul\":15699:16616   */\n    tag_48:\n        /* \"#utility.yul\":15956:15960   */\n      0x00\n        /* \"#utility.yul\":15994:15997   */\n      0x80\n        /* \"#utility.yul\":15983:15992   */\n      dup3\n        /* \"#utility.yul\":15979:15998   */\n      add\n        /* \"#utility.yul\":15971:15998   */\n      swap1\n      pop\n        /* \"#utility.yul\":16044:16053   */\n      dup2\n        /* \"#utility.yul\":16038:16042   */\n      dup2\n        /* \"#utility.yul\":16034:16054   */\n      sub\n        /* \"#utility.yul\":16030:16031   */\n      0x00\n        /* \"#utility.yul\":16019:16028   */\n      dup4\n        /* \"#utility.yul\":16015:16032   */\n      add\n        /* \"#utility.yul\":16008:16055   */\n      mstore\n        /* \"#utility.yul\":16072:16150   */\n      tag_447\n        /* \"#utility.yul\":16145:16149   */\n      dup2\n        /* \"#utility.yul\":16136:16142   */\n      dup8\n        /* \"#utility.yul\":16072:16150   */\n      tag_409\n      jump\t// in\n    tag_447:\n        /* \"#utility.yul\":16064:16150   */\n      swap1\n      pop\n        /* \"#utility.yul\":16197:16206   */\n      dup2\n        /* \"#utility.yul\":16191:16195   */\n      dup2\n        /* \"#utility.yul\":16187:16207   */\n      sub\n        /* \"#utility.yul\":16182:16184   */\n      0x20\n        /* \"#utility.yul\":16171:16180   */\n      dup4\n        /* \"#utility.yul\":16167:16185   */\n      add\n        /* \"#utility.yul\":16160:16208   */\n      mstore\n        /* \"#utility.yul\":16225:16303   */\n      tag_448\n        /* \"#utility.yul\":16298:16302   */\n      dup2\n        /* \"#utility.yul\":16289:16295   */\n      dup7\n        /* \"#utility.yul\":16225:16303   */\n      tag_409\n      jump\t// in\n    tag_448:\n        /* \"#utility.yul\":16217:16303   */\n      swap1\n      pop\n        /* \"#utility.yul\":16350:16359   */\n      dup2\n        /* \"#utility.yul\":16344:16348   */\n      dup2\n        /* \"#utility.yul\":16340:16360   */\n      sub\n        /* \"#utility.yul\":16335:16337   */\n      0x40\n        /* \"#utility.yul\":16324:16333   */\n      dup4\n        /* \"#utility.yul\":16320:16338   */\n      add\n        /* \"#utility.yul\":16313:16361   */\n      mstore\n        /* \"#utility.yul\":16378:16456   */\n      tag_449\n        /* \"#utility.yul\":16451:16455   */\n      dup2\n        /* \"#utility.yul\":16442:16448   */\n      dup6\n        /* \"#utility.yul\":16378:16456   */\n      tag_409\n      jump\t// in\n    tag_449:\n        /* \"#utility.yul\":16370:16456   */\n      swap1\n      pop\n        /* \"#utility.yul\":16503:16512   */\n      dup2\n        /* \"#utility.yul\":16497:16501   */\n      dup2\n        /* \"#utility.yul\":16493:16513   */\n      sub\n        /* \"#utility.yul\":16488:16490   */\n      0x60\n        /* \"#utility.yul\":16477:16486   */\n      dup4\n        /* \"#utility.yul\":16473:16491   */\n      add\n        /* \"#utility.yul\":16466:16514   */\n      mstore\n        /* \"#utility.yul\":16531:16609   */\n      tag_450\n        /* \"#utility.yul\":16604:16608   */\n      dup2\n        /* \"#utility.yul\":16595:16601   */\n      dup5\n        /* \"#utility.yul\":16531:16609   */\n      tag_409\n      jump\t// in\n    tag_450:\n        /* \"#utility.yul\":16523:16609   */\n      swap1\n      pop\n        /* \"#utility.yul\":15699:16616   */\n      swap6\n      swap5\n      pop\n      pop\n      pop\n      pop\n      pop\n      jump\t// out\n        /* \"#utility.yul\":16622:17505   */\n    tag_40:\n        /* \"#utility.yul\":16915:16919   */\n      0x00\n        /* \"#utility.yul\":16953:16955   */\n      0x60\n        /* \"#utility.yul\":16942:16951   */\n      dup3\n        /* \"#utility.yul\":16938:16956   */\n      add\n        /* \"#utility.yul\":16930:16956   */\n      swap1\n      pop\n        /* \"#utility.yul\":17002:17011   */\n      dup2\n        /* \"#utility.yul\":16996:17000   */\n      dup2\n        /* \"#utility.yul\":16992:17012   */\n      sub\n        /* \"#utility.yul\":16988:16989   */\n      0x00\n        /* \"#utility.yul\":16977:16986   */\n      dup4\n        /* \"#utility.yul\":16973:16990   */\n      add\n        /* \"#utility.yul\":16966:17013   */\n      mstore\n        /* \"#utility.yul\":17030:17142   */\n      tag_452\n        /* \"#utility.yul\":17137:17141   */\n      dup2\n        /* \"#utility.yul\":17128:17134   */\n      dup7\n        /* \"#utility.yul\":17030:17142   */\n      tag_424\n      jump\t// in\n    tag_452:\n        /* \"#utility.yul\":17022:17142   */\n      swap1\n      pop\n        /* \"#utility.yul\":17189:17198   */\n      dup2\n        /* \"#utility.yul\":17183:17187   */\n      dup2\n        /* \"#utility.yul\":17179:17199   */\n      sub\n        /* \"#utility.yul\":17174:17176   */\n      0x20\n        /* \"#utility.yul\":17163:17172   */\n      dup4\n        /* \"#utility.yul\":17159:17177   */\n      add\n        /* \"#utility.yul\":17152:17200   */\n      mstore\n        /* \"#utility.yul\":17217:17323   */\n      tag_453\n        /* \"#utility.yul\":17318:17322   */\n      dup2\n        /* \"#utility.yul\":17309:17315   */\n      dup6\n        /* \"#utility.yul\":17217:17323   */\n      tag_416\n      jump\t// in\n    tag_453:\n        /* \"#utility.yul\":17209:17323   */\n      swap1\n      pop\n        /* \"#utility.yul\":17370:17379   */\n      dup2\n        /* \"#utility.yul\":17364:17368   */\n      dup2\n        /* \"#utility.yul\":17360:17380   */\n      sub\n        /* \"#utility.yul\":17355:17357   */\n      0x40\n        /* \"#utility.yul\":17344:17353   */\n      dup4\n        /* \"#utility.yul\":17340:17358   */\n      add\n        /* \"#utility.yul\":17333:17381   */\n      mstore\n        /* \"#utility.yul\":17398:17498   */\n      tag_454\n        /* \"#utility.yul\":17493:17497   */\n      dup2\n        /* \"#utility.yul\":17484:17490   */\n      dup5\n        /* \"#utility.yul\":17398:17498   */\n      tag_435\n      jump\t// in\n    tag_454:\n        /* \"#utility.yul\":17390:17498   */\n      swap1\n      pop\n        /* \"#utility.yul\":16622:17505   */\n      swap5\n      swap4\n      pop\n      pop\n      pop\n      pop\n      jump\t// out\n        /* \"#utility.yul\":17511:17733   */\n    tag_21:\n        /* \"#utility.yul\":17604:17608   */\n      0x00\n        /* \"#utility.yul\":17642:17644   */\n      0x20\n        /* \"#utility.yul\":17631:17640   */\n      dup3\n        /* \"#utility.yul\":17627:17645   */\n      add\n        /* \"#utility.yul\":17619:17645   */\n      swap1\n      pop\n        /* \"#utility.yul\":17655:17726   */\n      tag_456\n        /* \"#utility.yul\":17723:17724   */\n      0x00\n        /* \"#utility.yul\":17712:17721   */\n      dup4\n        /* \"#utility.yul\":17708:17725   */\n      add\n        /* \"#utility.yul\":17699:17705   */\n      dup5\n        /* \"#utility.yul\":17655:17726   */\n      tag_443\n      jump\t// in\n    tag_456:\n        /* \"#utility.yul\":17511:17733   */\n      swap3\n      swap2\n      pop\n      pop\n      jump\t// out\n        /* \"#utility.yul\":17739:17868   */\n    tag_278:\n        /* \"#utility.yul\":17773:17779   */\n      0x00\n        /* \"#utility.yul\":17800:17820   */\n      tag_458\n      tag_459\n      jump\t// in\n    tag_458:\n        /* \"#utility.yul\":17790:17820   */\n      swap1\n      pop\n        /* \"#utility.yul\":17829:17862   */\n      tag_460\n        /* \"#utility.yul\":17857:17861   */\n      dup3\n        /* \"#utility.yul\":17849:17855   */\n      dup3\n        /* \"#utility.yul\":17829:17862   */\n      tag_461\n      jump\t// in\n    tag_460:\n        /* \"#utility.yul\":17739:17868   */\n      swap2\n      swap1\n      pop\n      jump\t// out\n        /* \"#utility.yul\":17874:17949   */\n    tag_459:\n        /* \"#utility.yul\":17907:17913   */\n      0x00\n        /* \"#utility.yul\":17940:17942   */\n      0x40\n        /* \"#utility.yul\":17934:17943   */\n      mload\n        /* \"#utility.yul\":17924:17943   */\n      swap1\n      pop\n        /* \"#utility.yul\":17874:17949   */\n      swap1\n      jump\t// out\n        /* \"#utility.yul\":17955:18276   */\n    tag_277:\n        /* \"#utility.yul\":18042:18046   */\n      0x00\n        /* \"#utility.yul\":18132:18150   */\n      0xffffffffffffffff\n        /* \"#utility.yul\":18124:18130   */\n      dup3\n        /* \"#utility.yul\":18121:18151   */\n      gt\n        /* \"#utility.yul\":18118:18174   */\n      iszero\n      tag_464\n      jumpi\n        /* \"#utility.yul\":18154:18172   */\n      tag_465\n      tag_466\n      jump\t// in\n    tag_465:\n        /* \"#utility.yul\":18118:18174   */\n    tag_464:\n        /* \"#utility.yul\":18204:18208   */\n      0x20\n        /* \"#utility.yul\":18196:18202   */\n      dup3\n        /* \"#utility.yul\":18192:18209   */\n      mul\n        /* \"#utility.yul\":18184:18209   */\n      swap1\n      pop\n        /* \"#utility.yul\":18264:18268   */\n      0x20\n        /* \"#utility.yul\":18258:18262   */\n      dup2\n        /* \"#utility.yul\":18254:18269   */\n      add\n        /* \"#utility.yul\":18246:18269   */\n      swap1\n      pop\n        /* \"#utility.yul\":17955:18276   */\n      swap2\n      swap1\n      pop\n      jump\t// out\n        /* \"#utility.yul\":18282:18590   */\n    tag_294:\n        /* \"#utility.yul\":18344:18348   */\n      0x00\n        /* \"#utility.yul\":18434:18452   */\n      0xffffffffffffffff\n        /* \"#utility.yul\":18426:18432   */\n      dup3\n        /* \"#utility.yul\":18423:18453   */\n      gt\n        /* \"#utility.yul\":18420:18476   */\n      iszero\n      tag_468\n      jumpi\n        /* \"#utility.yul\":18456:18474   */\n      tag_469\n      tag_466\n      jump\t// in\n    tag_469:\n        /* \"#utility.yul\":18420:18476   */\n    tag_468:\n        /* \"#utility.yul\":18494:18523   */\n      tag_470\n        /* \"#utility.yul\":18516:18522   */\n      dup3\n        /* \"#utility.yul\":18494:18523   */\n      tag_408\n      jump\t// in\n    tag_470:\n        /* \"#utility.yul\":18486:18523   */\n      swap1\n      pop\n        /* \"#utility.yul\":18578:18582   */\n      0x20\n        /* \"#utility.yul\":18572:18576   */\n      dup2\n        /* \"#utility.yul\":18568:18583   */\n      add\n        /* \"#utility.yul\":18560:18583   */\n      swap1\n      pop\n        /* \"#utility.yul\":18282:18590   */\n      swap2\n      swap1\n      pop\n      jump\t// out\n        /* \"#utility.yul\":18596:18738   */\n    tag_393:\n        /* \"#utility.yul\":18673:18677   */\n      0x00\n        /* \"#utility.yul\":18696:18699   */\n      dup2\n        /* \"#utility.yul\":18688:18699   */\n      swap1\n      pop\n        /* \"#utility.yul\":18726:18730   */\n      0x20\n        /* \"#utility.yul\":18721:18724   */\n      dup3\n        /* \"#utility.yul\":18717:18731   */\n      add\n        /* \"#utility.yul\":18709:18731   */\n      swap1\n      pop\n        /* \"#utility.yul\":18596:18738   */\n      swap2\n      swap1\n      pop\n      jump\t// out\n        /* \"#utility.yul\":18744:18868   */\n    tag_389:\n        /* \"#utility.yul\":18821:18827   */\n      0x00\n        /* \"#utility.yul\":18855:18860   */\n      dup2\n        /* \"#utility.yul\":18849:18861   */\n      mload\n        /* \"#utility.yul\":18839:18861   */\n      swap1\n      pop\n        /* \"#utility.yul\":18744:18868   */\n      swap2\n      swap1\n      pop\n      jump\t// out\n        /* \"#utility.yul\":18874:18973   */\n    tag_402:\n        /* \"#utility.yul\":18926:18932   */\n      0x00\n        /* \"#utility.yul\":18960:18965   */\n      dup2\n        /* \"#utility.yul\":18954:18966   */\n      mload\n        /* \"#utility.yul\":18944:18966   */\n      swap1\n      pop\n        /* \"#utility.yul\":18874:18973   */\n      swap2\n      swap1\n      pop\n      jump\t// out\n        /* \"#utility.yul\":18979:19102   */\n    tag_399:\n        /* \"#utility.yul\":19059:19063   */\n      0x00\n        /* \"#utility.yul\":19091:19095   */\n      0x20\n        /* \"#utility.yul\":19086:19089   */\n      dup3\n        /* \"#utility.yul\":19082:19096   */\n      add\n        /* \"#utility.yul\":19074:19096   */\n      swap1\n      pop\n        /* \"#utility.yul\":18979:19102   */\n      swap2\n      swap1\n      pop\n      jump\t// out\n        /* \"#utility.yul\":19108:19292   */\n    tag_391:\n        /* \"#utility.yul\":19207:19218   */\n      0x00\n        /* \"#utility.yul\":19241:19247   */\n      dup3\n        /* \"#utility.yul\":19236:19239   */\n      dup3\n        /* \"#utility.yul\":19229:19248   */\n      mstore\n        /* \"#utility.yul\":19281:19285   */\n      0x20\n        /* \"#utility.yul\":19276:19279   */\n      dup3\n        /* \"#utility.yul\":19272:19286   */\n      add\n        /* \"#utility.yul\":19257:19286   */\n      swap1\n      pop\n        /* \"#utility.yul\":19108:19292   */\n      swap3\n      swap2\n      pop\n      pop\n      jump\t// out\n        /* \"#utility.yul\":19298:19457   */\n    tag_404:\n        /* \"#utility.yul\":19372:19383   */\n      0x00\n        /* \"#utility.yul\":19406:19412   */\n      dup3\n        /* \"#utility.yul\":19401:19404   */\n      dup3\n        /* \"#utility.yul\":19394:19413   */\n      mstore\n        /* \"#utility.yul\":19446:19450   */\n      0x20\n        /* \"#utility.yul\":19441:19444   */\n      dup3\n        /* \"#utility.yul\":19437:19451   */\n      add\n        /* \"#utility.yul\":19422:19451   */\n      swap1\n      pop\n        /* \"#utility.yul\":19298:19457   */\n      swap3\n      swap2\n      pop\n      pop\n      jump\t// out\n        /* \"#utility.yul\":19463:19632   */\n    tag_413:\n        /* \"#utility.yul\":19547:19558   */\n      0x00\n        /* \"#utility.yul\":19581:19587   */\n      dup3\n        /* \"#utility.yul\":19576:19579   */\n      dup3\n        /* \"#utility.yul\":19569:19588   */\n      mstore\n        /* \"#utility.yul\":19621:19625   */\n      0x20\n        /* \"#utility.yul\":19616:19619   */\n      dup3\n        /* \"#utility.yul\":19612:19626   */\n      add\n        /* \"#utility.yul\":19597:19626   */\n      swap1\n      pop\n        /* \"#utility.yul\":19463:19632   */\n      swap3\n      swap2\n      pop\n      pop\n      jump\t// out\n        /* \"#utility.yul\":19638:19734   */\n    tag_385:\n        /* \"#utility.yul\":19675:19682   */\n      0x00\n        /* \"#utility.yul\":19704:19728   */\n      tag_479\n        /* \"#utility.yul\":19722:19727   */\n      dup3\n        /* \"#utility.yul\":19704:19728   */\n      tag_480\n      jump\t// in\n    tag_479:\n        /* \"#utility.yul\":19693:19728   */\n      swap1\n      pop\n        /* \"#utility.yul\":19638:19734   */\n      swap2\n      swap1\n      pop\n      jump\t// out\n        /* \"#utility.yul\":19740:19866   */\n    tag_480:\n        /* \"#utility.yul\":19777:19784   */\n      0x00\n        /* \"#utility.yul\":19817:19859   */\n      0xffffffffffffffffffffffffffffffffffffffff\n        /* \"#utility.yul\":19810:19815   */\n      dup3\n        /* \"#utility.yul\":19806:19860   */\n      and\n        /* \"#utility.yul\":19795:19860   */\n      swap1\n      pop\n        /* \"#utility.yul\":19740:19866   */\n      swap2\n      swap1\n      pop\n      jump\t// out\n        /* \"#utility.yul\":19872:19949   */\n    tag_442:\n        /* \"#utility.yul\":19909:19916   */\n      0x00\n        /* \"#utility.yul\":19938:19943   */\n      dup2\n        /* \"#utility.yul\":19927:19943   */\n      swap1\n      pop\n        /* \"#utility.yul\":19872:19949   */\n      swap2\n      swap1\n      pop\n      jump\t// out\n        /* \"#utility.yul\":19955:20109   */\n    tag_299:\n        /* \"#utility.yul\":20039:20045   */\n      dup3\n        /* \"#utility.yul\":20034:20037   */\n      dup2\n        /* \"#utility.yul\":20029:20032   */\n      dup4\n        /* \"#utility.yul\":20016:20046   */\n      calldatacopy\n        /* \"#utility.yul\":20101:20102   */\n      0x00\n        /* \"#utility.yul\":20092:20098   */\n      dup4\n        /* \"#utility.yul\":20087:20090   */\n      dup4\n        /* \"#utility.yul\":20083:20099   */\n      add\n        /* \"#utility.yul\":20076:20103   */\n      mstore\n        /* \"#utility.yul\":19955:20109   */\n      pop\n      pop\n      pop\n      jump\t// out\n        /* \"#utility.yul\":20115:20422   */\n    tag_406:\n        /* \"#utility.yul\":20183:20184   */\n      0x00\n        /* \"#utility.yul\":20193:20306   */\n    tag_485:\n        /* \"#utility.yul\":20207:20213   */\n      dup4\n        /* \"#utility.yul\":20204:20205   */\n      dup2\n        /* \"#utility.yul\":20201:20214   */\n      lt\n        /* \"#utility.yul\":20193:20306   */\n      iszero\n      tag_487\n      jumpi\n        /* \"#utility.yul\":20292:20293   */\n      dup1\n        /* \"#utility.yul\":20287:20290   */\n      dup3\n        /* \"#utility.yul\":20283:20294   */\n      add\n        /* \"#utility.yul\":20277:20295   */\n      mload\n        /* \"#utility.yul\":20273:20274   */\n      dup2\n        /* \"#utility.yul\":20268:20271   */\n      dup5\n        /* \"#utility.yul\":20264:20275   */\n      add\n        /* \"#utility.yul\":20257:20296   */\n      mstore\n        /* \"#utility.yul\":20229:20231   */\n      0x20\n        /* \"#utility.yul\":20226:20227   */\n      dup2\n        /* \"#utility.yul\":20222:20232   */\n      add\n        /* \"#utility.yul\":20217:20232   */\n      swap1\n      pop\n        /* \"#utility.yul\":20193:20306   */\n      jump(tag_485)\n    tag_487:\n        /* \"#utility.yul\":20324:20330   */\n      dup4\n        /* \"#utility.yul\":20321:20322   */\n      dup2\n        /* \"#utility.yul\":20318:20331   */\n      gt\n        /* \"#utility.yul\":20315:20416   */\n      iszero\n      tag_488\n      jumpi\n        /* \"#utility.yul\":20404:20405   */\n      0x00\n        /* \"#utility.yul\":20395:20401   */\n      dup5\n        /* \"#utility.yul\":20390:20393   */\n      dup5\n        /* \"#utility.yul\":20386:20402   */\n      add\n        /* \"#utility.yul\":20379:20406   */\n      mstore\n        /* \"#utility.yul\":20315:20416   */\n    tag_488:\n        /* \"#utility.yul\":20164:20422   */\n      pop\n        /* \"#utility.yul\":20115:20422   */\n      pop\n      pop\n      pop\n      jump\t// out\n        /* \"#utility.yul\":20428:20748   */\n    tag_99:\n        /* \"#utility.yul\":20472:20478   */\n      0x00\n        /* \"#utility.yul\":20509:20510   */\n      0x02\n        /* \"#utility.yul\":20503:20507   */\n      dup3\n        /* \"#utility.yul\":20499:20511   */\n      div\n        /* \"#utility.yul\":20489:20511   */\n      swap1\n      pop\n        /* \"#utility.yul\":20556:20557   */\n      0x01\n        /* \"#utility.yul\":20550:20554   */\n      dup3\n        /* \"#utility.yul\":20546:20558   */\n      and\n        /* \"#utility.yul\":20577:20595   */\n      dup1\n        /* \"#utility.yul\":20567:20648   */\n      tag_490\n      jumpi\n        /* \"#utility.yul\":20633:20637   */\n      0x7f\n        /* \"#utility.yul\":20625:20631   */\n      dup3\n        /* \"#utility.yul\":20621:20638   */\n      and\n        /* \"#utility.yul\":20611:20638   */\n      swap2\n      pop\n        /* \"#utility.yul\":20567:20648   */\n    tag_490:\n        /* \"#utility.yul\":20695:20697   */\n      0x20\n        /* \"#utility.yul\":20687:20693   */\n      dup3\n        /* \"#utility.yul\":20684:20698   */\n      lt\n        /* \"#utility.yul\":20664:20682   */\n      dup2\n        /* \"#utility.yul\":20661:20699   */\n      eq\n        /* \"#utility.yul\":20658:20742   */\n      iszero\n      tag_491\n      jumpi\n        /* \"#utility.yul\":20714:20732   */\n      tag_492\n      tag_493\n      jump\t// in\n    tag_492:\n        /* \"#utility.yul\":20658:20742   */\n    tag_491:\n        /* \"#utility.yul\":20479:20748   */\n      pop\n        /* \"#utility.yul\":20428:20748   */\n      swap2\n      swap1\n      pop\n      jump\t// out\n        /* \"#utility.yul\":20754:21035   */\n    tag_461:\n        /* \"#utility.yul\":20837:20864   */\n      tag_495\n        /* \"#utility.yul\":20859:20863   */\n      dup3\n        /* \"#utility.yul\":20837:20864   */\n      tag_408\n      jump\t// in\n    tag_495:\n        /* \"#utility.yul\":20829:20835   */\n      dup2\n        /* \"#utility.yul\":20825:20865   */\n      add\n        /* \"#utility.yul\":20967:20973   */\n      dup2\n        /* \"#utility.yul\":20955:20965   */\n      dup2\n        /* \"#utility.yul\":20952:20974   */\n      lt\n        /* \"#utility.yul\":20931:20949   */\n      0xffffffffffffffff\n        /* \"#utility.yul\":20919:20929   */\n      dup3\n        /* \"#utility.yul\":20916:20950   */\n      gt\n        /* \"#utility.yul\":20913:20975   */\n      or\n        /* \"#utility.yul\":20910:20998   */\n      iszero\n      tag_496\n      jumpi\n        /* \"#utility.yul\":20978:20996   */\n      tag_497\n      tag_466\n      jump\t// in\n    tag_497:\n        /* \"#utility.yul\":20910:20998   */\n    tag_496:\n        /* \"#utility.yul\":21018:21028   */\n      dup1\n        /* \"#utility.yul\":21014:21016   */\n      0x40\n        /* \"#utility.yul\":21007:21029   */\n      mstore\n        /* \"#utility.yul\":20797:21035   */\n      pop\n        /* \"#utility.yul\":20754:21035   */\n      pop\n      pop\n      jump\t// out\n        /* \"#utility.yul\":21041:21221   */\n    tag_493:\n        /* \"#utility.yul\":21089:21166   */\n      0x4e487b7100000000000000000000000000000000000000000000000000000000\n        /* \"#utility.yul\":21086:21087   */\n      0x00\n        /* \"#utility.yul\":21079:21167   */\n      mstore\n        /* \"#utility.yul\":21186:21190   */\n      0x22\n        /* \"#utility.yul\":21183:21184   */\n      0x04\n        /* \"#utility.yul\":21176:21191   */\n      mstore\n        /* \"#utility.yul\":21210:21214   */\n      0x24\n        /* \"#utility.yul\":21207:21208   */\n      0x00\n        /* \"#utility.yul\":21200:21215   */\n      revert\n        /* \"#utility.yul\":21227:21407   */\n    tag_189:\n        /* \"#utility.yul\":21275:21352   */\n      0x4e487b7100000000000000000000000000000000000000000000000000000000\n        /* \"#utility.yul\":21272:21273   */\n      0x00\n        /* \"#utility.yul\":21265:21353   */\n      mstore\n        /* \"#utility.yul\":21372:21376   */\n      0x32\n        /* \"#utility.yul\":21369:21370   */\n      0x04\n        /* \"#utility.yul\":21362:21377   */\n      mstore\n        /* \"#utility.yul\":21396:21400   */\n      0x24\n        /* \"#utility.yul\":21393:21394   */\n      0x00\n        /* \"#utility.yul\":21386:21401   */\n      revert\n        /* \"#utility.yul\":21413:21593   */\n    tag_466:\n        /* \"#utility.yul\":21461:21538   */\n      0x4e487b7100000000000000000000000000000000000000000000000000000000\n        /* \"#utility.yul\":21458:21459   */\n      0x00\n        /* \"#utility.yul\":21451:21539   */\n      mstore\n        /* \"#utility.yul\":21558:21562   */\n      0x41\n        /* \"#utility.yul\":21555:21556   */\n      0x04\n        /* \"#utility.yul\":21548:21563   */\n      mstore\n        /* \"#utility.yul\":21582:21586   */\n      0x24\n        /* \"#utility.yul\":21579:21580   */\n      0x00\n        /* \"#utility.yul\":21572:21587   */\n      revert\n        /* \"#utility.yul\":21599:21716   */\n    tag_287:\n        /* \"#utility.yul\":21708:21709   */\n      0x00\n        /* \"#utility.yul\":21705:21706   */\n      dup1\n        /* \"#utility.yul\":21698:21710   */\n      revert\n        /* \"#utility.yul\":21722:21839   */\n    tag_281:\n        /* \"#utility.yul\":21831:21832   */\n      0x00\n        /* \"#utility.yul\":21828:21829   */\n      dup1\n        /* \"#utility.yul\":21821:21833   */\n      revert\n        /* \"#utility.yul\":21845:21962   */\n    tag_297:\n        /* \"#utility.yul\":21954:21955   */\n      0x00\n        /* \"#utility.yul\":21951:21952   */\n      dup1\n        /* \"#utility.yul\":21944:21956   */\n      revert\n        /* \"#utility.yul\":21968:22085   */\n    tag_327:\n        /* \"#utility.yul\":22077:22078   */\n      0x00\n        /* \"#utility.yul\":22074:22075   */\n      dup1\n        /* \"#utility.yul\":22067:22079   */\n      revert\n        /* \"#utility.yul\":22091:22208   */\n    tag_320:\n        /* \"#utility.yul\":22200:22201   */\n      0x00\n        /* \"#utility.yul\":22197:22198   */\n      dup1\n        /* \"#utility.yul\":22190:22202   */\n      revert\n        /* \"#utility.yul\":22214:22316   */\n    tag_408:\n        /* \"#utility.yul\":22255:22261   */\n      0x00\n        /* \"#utility.yul\":22306:22308   */\n      0x1f\n        /* \"#utility.yul\":22302:22309   */\n      not\n        /* \"#utility.yul\":22297:22299   */\n      0x1f\n        /* \"#utility.yul\":22290:22295   */\n      dup4\n        /* \"#utility.yul\":22286:22300   */\n      add\n        /* \"#utility.yul\":22282:22310   */\n      and\n        /* \"#utility.yul\":22272:22310   */\n      swap1\n      pop\n        /* \"#utility.yul\":22214:22316   */\n      swap2\n      swap1\n      pop\n      jump\t// out\n        /* \"#utility.yul\":22322:22444   */\n    tag_303:\n        /* \"#utility.yul\":22395:22419   */\n      tag_508\n        /* \"#utility.yul\":22413:22418   */\n      dup2\n        /* \"#utility.yul\":22395:22419   */\n      tag_385\n      jump\t// in\n    tag_508:\n        /* \"#utility.yul\":22388:22393   */\n      dup2\n        /* \"#utility.yul\":22385:22420   */\n      eq\n        /* \"#utility.yul\":22375:22438   */\n      tag_509\n      jumpi\n        /* \"#utility.yul\":22434:22435   */\n      0x00\n        /* \"#utility.yul\":22431:22432   */\n      dup1\n        /* \"#utility.yul\":22424:22436   */\n      revert\n        /* \"#utility.yul\":22375:22438   */\n    tag_509:\n        /* \"#utility.yul\":22322:22444   */\n      pop\n      jump\t// out\n        /* \"#utility.yul\":22450:22572   */\n    tag_316:\n        /* \"#utility.yul\":22523:22547   */\n      tag_511\n        /* \"#utility.yul\":22541:22546   */\n      dup2\n        /* \"#utility.yul\":22523:22547   */\n      tag_442\n      jump\t// in\n    tag_511:\n        /* \"#utility.yul\":22516:22521   */\n      dup2\n        /* \"#utility.yul\":22513:22548   */\n      eq\n        /* \"#utility.yul\":22503:22566   */\n      tag_512\n      jumpi\n        /* \"#utility.yul\":22562:22563   */\n      0x00\n        /* \"#utility.yul\":22559:22560   */\n      dup1\n        /* \"#utility.yul\":22552:22564   */\n      revert\n        /* \"#utility.yul\":22503:22566   */\n    tag_512:\n        /* \"#utility.yul\":22450:22572   */\n      pop\n      jump\t// out\n\n    auxdata: 0xa2646970667358221220962f981293377d4cd9df6eb7526bba9674644fa2adedc6e3b21ce72ffd3ace0164736f6c63430008070033\n}\n",
				"bytecode": {
					"linkReferences": {},
					"object": "608060405234801561001057600080fd5b50612823806100206000396000f3fe608060405234801561001057600080fd5b506004361061009e5760003560e01c806395ea37571161006657806395ea3757146101315780639dd9d0fd1461013b578063ed2217ef1461016d578063f96e32f814610177578063fabce08f146101aa5761009e565b80633d984d0e146100a35780636212fa02146100bf57806366244dfb146100dd57806372828388146100f9578063958791ae14610115575b600080fd5b6100bd60048036038101906100b89190611e62565b6101b4565b005b6100c7610338565b6040516100d49190612524565b60405180910390f35b6100f760048036038101906100f29190611f09565b610384565b005b610113600480360381019061010e9190611f09565b6104bf565b005b61012f600480360381019061012a9190612010565b610727565b005b610139610a11565b005b61015560048036038101906101509190611e35565b610ae6565b604051610164939291906124d8565b60405180910390f35b6101756114f2565b005b610191600480360381019061018c9190612145565b611541565b6040516101a19493929190612477565b60405180910390f35b6101b2611916565b005b6000803373ffffffffffffffffffffffffffffffffffffffff1673ffffffffffffffffffffffffffffffffffffffff168152602001908152602001600020600e01600080820160006102069190611a9d565b6001820160006102169190611a9d565b6002820160006102269190611a9d565b5050826000803373ffffffffffffffffffffffffffffffffffffffff1673ffffffffffffffffffffffffffffffffffffffff168152602001908152602001600020600e016000019080519060200190610280929190611abe565b50816000803373ffffffffffffffffffffffffffffffffffffffff1673ffffffffffffffffffffffffffffffffffffffff168152602001908152602001600020600e0160010190805190602001906102d9929190611abe565b50806000803373ffffffffffffffffffffffffffffffffffffffff1673ffffffffffffffffffffffffffffffffffffffff168152602001908152602001600020600e016002019080519060200190610332929190611abe565b50505050565b60008060003373ffffffffffffffffffffffffffffffffffffffff1673ffffffffffffffffffffffffffffffffffffffff16815260200190815260200160002060110180549050905090565b61038c611b1e565b8581600001819052508481602001819052508381604001819052508281606001819052508181608001819052506000803373ffffffffffffffffffffffffffffffffffffffff1673ffffffffffffffffffffffffffffffffffffffff1681526020019081526020016000206011018190806001815401808255809150506001900390600052602060002090600502016000909190919091506000820151816000019080519060200190610440929190611b4d565b50602082015181600101908051906020019061045d929190611b4d565b50604082015181600201908051906020019061047a929190611b4d565b506060820151816003019080519060200190610497929190611b4d565b5060808201518160040190805190602001906104b4929190611b4d565b505050505050505050565b6000803373ffffffffffffffffffffffffffffffffffffffff1673ffffffffffffffffffffffffffffffffffffffff168152602001908152602001600020600801600080820160006105119190611bd3565b6001820160006105219190611bd3565b6002820160006105319190611bd3565b6003820160006105419190611bd3565b6004820160006105519190611bd3565b6005820160006105619190611bd3565b5050846000803373ffffffffffffffffffffffffffffffffffffffff1673ffffffffffffffffffffffffffffffffffffffff16815260200190815260200160002060080160010190805190602001906105bb929190611b4d565b50836000803373ffffffffffffffffffffffffffffffffffffffff1673ffffffffffffffffffffffffffffffffffffffff1681526020019081526020016000206008016002019080519060200190610614929190611b4d565b50826000803373ffffffffffffffffffffffffffffffffffffffff1673ffffffffffffffffffffffffffffffffffffffff168152602001908152602001600020600801600301908051906020019061066d929190611b4d565b50816000803373ffffffffffffffffffffffffffffffffffffffff1673ffffffffffffffffffffffffffffffffffffffff16815260200190815260200160002060080160020190805190602001906106c6929190611b4d565b50806000803373ffffffffffffffffffffffffffffffffffffffff1673ffffffffffffffffffffffffffffffffffffffff168152602001908152602001600020600801600101908051906020019061071f929190611b4d565b505050505050565b856000803373ffffffffffffffffffffffffffffffffffffffff1673ffffffffffffffffffffffffffffffffffffffff168152602001908152602001600020600001600301908051906020019061077f929190611b4d565b50846000803373ffffffffffffffffffffffffffffffffffffffff1673ffffffffffffffffffffffffffffffffffffffff16815260200190815260200160002060000160040190805190602001906107d8929190611b4d565b50836000803373ffffffffffffffffffffffffffffffffffffffff1673ffffffffffffffffffffffffffffffffffffffff1681526020019081526020016000206000016005019080519060200190610831929190611b4d565b50826000803373ffffffffffffffffffffffffffffffffffffffff1673ffffffffffffffffffffffffffffffffffffffff168152602001908152602001600020600001600601908051906020019061088a929190611b4d565b50816000803373ffffffffffffffffffffffffffffffffffffffff1673ffffffffffffffffffffffffffffffffffffffff16815260200190815260200160002060000160000190805190602001906108e3929190611b4d565b50806000803373ffffffffffffffffffffffffffffffffffffffff1673ffffffffffffffffffffffffffffffffffffffff168152602001908152602001600020600001600101908051906020019061093c929190611b4d565b50336000803373ffffffffffffffffffffffffffffffffffffffff1673ffffffffffffffffffffffffffffffffffffffff16815260200190815260200160002060000160020160006101000a81548173ffffffffffffffffffffffffffffffffffffffff021916908373ffffffffffffffffffffffffffffffffffffffff160217905550426000803373ffffffffffffffffffffffffffffffffffffffff1673ffffffffffffffffffffffffffffffffffffffff16815260200190815260200160002060000160070181905550505050505050565b6000803373ffffffffffffffffffffffffffffffffffffffff1673ffffffffffffffffffffffffffffffffffffffff16815260200190815260200160002060000160008082016000610a639190611bd3565b600182016000610a739190611bd3565b6002820160006101000a81549073ffffffffffffffffffffffffffffffffffffffff0219169055600382016000610aaa9190611bd3565b600482016000610aba9190611bd3565b600582016000610aca9190611bd3565b600682016000610ada9190611bd3565b60078201600090555050565b60006020528060005260406000206000915090508060000160405180610100016040529081600082018054610b1a906126a5565b80601f0160208091040260200160405190810160405280929190818152602001828054610b46906126a5565b8015610b935780601f10610b6857610100808354040283529160200191610b93565b820191906000526020600020905b815481529060010190602001808311610b7657829003601f168201915b50505050508152602001600182018054610bac906126a5565b80601f0160208091040260200160405190810160405280929190818152602001828054610bd8906126a5565b8015610c255780601f10610bfa57610100808354040283529160200191610c25565b820191906000526020600020905b815481529060010190602001808311610c0857829003601f168201915b505050505081526020016002820160009054906101000a900473ffffffffffffffffffffffffffffffffffffffff1673ffffffffffffffffffffffffffffffffffffffff1673ffffffffffffffffffffffffffffffffffffffff168152602001600382018054610c94906126a5565b80601f0160208091040260200160405190810160405280929190818152602001828054610cc0906126a5565b8015610d0d5780601f10610ce257610100808354040283529160200191610d0d565b820191906000526020600020905b815481529060010190602001808311610cf057829003601f168201915b50505050508152602001600482018054610d26906126a5565b80601f0160208091040260200160405190810160405280929190818152602001828054610d52906126a5565b8015610d9f5780601f10610d7457610100808354040283529160200191610d9f565b820191906000526020600020905b815481529060010190602001808311610d8257829003601f168201915b50505050508152602001600582018054610db8906126a5565b80601f0160208091040260200160405190810160405280929190818152602001828054610de4906126a5565b8015610e315780601f10610e0657610100808354040283529160200191610e31565b820191906000526020600020905b815481529060010190602001808311610e1457829003601f168201915b50505050508152602001600682018054610e4a906126a5565b80601f0160208091040260200160405190810160405280929190818152602001828054610e76906126a5565b8015610ec35780601f10610e9857610100808354040283529160200191610ec3565b820191906000526020600020905b815481529060010190602001808311610ea657829003601f168201915b5050505050815260200160078201548152505090806008016040518060c0016040529081600082018054610ef6906126a5565b80601f0160208091040260200160405190810160405280929190818152602001828054610f22906126a5565b8015610f6f5780601f10610f4457610100808354040283529160200191610f6f565b820191906000526020600020905b815481529060010190602001808311610f5257829003601f168201915b50505050508152602001600182018054610f88906126a5565b80601f0160208091040260200160405190810160405280929190818152602001828054610fb4906126a5565b80156110015780601f10610fd657610100808354040283529160200191611001565b820191906000526020600020905b815481529060010190602001808311610fe457829003601f168201915b5050505050815260200160028201805461101a906126a5565b80601f0160208091040260200160405190810160405280929190818152602001828054611046906126a5565b80156110935780601f1061106857610100808354040283529160200191611093565b820191906000526020600020905b81548152906001019060200180831161107657829003601f168201915b505050505081526020016003820180546110ac906126a5565b80601f01602080910402602001604051908101604052809291908181526020018280546110d8906126a5565b80156111255780601f106110fa57610100808354040283529160200191611125565b820191906000526020600020905b81548152906001019060200180831161110857829003601f168201915b5050505050815260200160048201805461113e906126a5565b80601f016020809104026020016040519081016040528092919081815260200182805461116a906126a5565b80156111b75780601f1061118c576101008083540402835291602001916111b7565b820191906000526020600020905b81548152906001019060200180831161119a57829003601f168201915b505050505081526020016005820180546111d0906126a5565b80601f01602080910402602001604051908101604052809291908181526020018280546111fc906126a5565b80156112495780601f1061121e57610100808354040283529160200191611249565b820191906000526020600020905b81548152906001019060200180831161122c57829003601f168201915b5050505050815250509080600e0160405180606001604052908160008201805480602002602001604051908101604052809291908181526020016000905b828210156113335783829060005260206000200180546112a6906126a5565b80601f01602080910402602001604051908101604052809291908181526020018280546112d2906126a5565b801561131f5780601f106112f45761010080835404028352916020019161131f565b820191906000526020600020905b81548152906001019060200180831161130257829003601f168201915b505050505081526020019060010190611287565b50505050815260200160018201805480602002602001604051908101604052809291908181526020016000905b8282101561140c57838290600052602060002001805461137f906126a5565b80601f01602080910402602001604051908101604052809291908181526020018280546113ab906126a5565b80156113f85780601f106113cd576101008083540402835291602001916113f8565b820191906000526020600020905b8154815290600101906020018083116113db57829003601f168201915b505050505081526020019060010190611360565b50505050815260200160028201805480602002602001604051908101604052809291908181526020016000905b828210156114e5578382906000526020600020018054611458906126a5565b80601f0160208091040260200160405190810160405280929190818152602001828054611484906126a5565b80156114d15780601f106114a6576101008083540402835291602001916114d1565b820191906000526020600020905b8154815290600101906020018083116114b457829003601f168201915b505050505081526020019060010190611439565b5050505081525050905083565b6000803373ffffffffffffffffffffffffffffffffffffffff1673ffffffffffffffffffffffffffffffffffffffff168152602001908152602001600020601101600061153f9190611c13565b565b6060806060806000803373ffffffffffffffffffffffffffffffffffffffff1673ffffffffffffffffffffffffffffffffffffffff168152602001908152602001600020601101858154811061159a57611599612737565b5b90600052602060002090600502016000016000803373ffffffffffffffffffffffffffffffffffffffff1673ffffffffffffffffffffffffffffffffffffffff16815260200190815260200160002060110186815481106115fe576115fd612737565b5b90600052602060002090600502016001016000803373ffffffffffffffffffffffffffffffffffffffff1673ffffffffffffffffffffffffffffffffffffffff168152602001908152602001600020601101878154811061166257611661612737565b5b90600052602060002090600502016002016000803373ffffffffffffffffffffffffffffffffffffffff1673ffffffffffffffffffffffffffffffffffffffff16815260200190815260200160002060110188815481106116c6576116c5612737565b5b90600052602060002090600502016003018380546116e3906126a5565b80601f016020809104026020016040519081016040528092919081815260200182805461170f906126a5565b801561175c5780601f106117315761010080835404028352916020019161175c565b820191906000526020600020905b81548152906001019060200180831161173f57829003601f168201915b5050505050935082805461176f906126a5565b80601f016020809104026020016040519081016040528092919081815260200182805461179b906126a5565b80156117e85780601f106117bd576101008083540402835291602001916117e8565b820191906000526020600020905b8154815290600101906020018083116117cb57829003601f168201915b505050505092508180546117fb906126a5565b80601f0160208091040260200160405190810160405280929190818152602001828054611827906126a5565b80156118745780601f1061184957610100808354040283529160200191611874565b820191906000526020600020905b81548152906001019060200180831161185757829003601f168201915b50505050509150808054611887906126a5565b80601f01602080910402602001604051908101604052809291908181526020018280546118b3906126a5565b80156119005780601f106118d557610100808354040283529160200191611900565b820191906000526020600020905b8154815290600101906020018083116118e357829003601f168201915b5050505050905093509350935093509193509193565b6000803373ffffffffffffffffffffffffffffffffffffffff1673ffffffffffffffffffffffffffffffffffffffff16815260200190815260200160002060008082016000808201600061196a9190611bd3565b60018201600061197a9190611bd3565b6002820160006101000a81549073ffffffffffffffffffffffffffffffffffffffff02191690556003820160006119b19190611bd3565b6004820160006119c19190611bd3565b6005820160006119d19190611bd3565b6006820160006119e19190611bd3565b600782016000905550506008820160008082016000611a009190611bd3565b600182016000611a109190611bd3565b600282016000611a209190611bd3565b600382016000611a309190611bd3565b600482016000611a409190611bd3565b600582016000611a509190611bd3565b5050600e820160008082016000611a679190611a9d565b600182016000611a779190611a9d565b600282016000611a879190611a9d565b5050601182016000611a999190611c13565b5050565b5080546000825590600052602060002090810190611abb9190611c37565b50565b828054828255906000526020600020908101928215611b0d579160200282015b82811115611b0c578251829080519060200190611afc929190611b4d565b5091602001919060010190611ade565b5b509050611b1a9190611c37565b5090565b6040518060a0016040528060608152602001606081526020016060815260200160608152602001606081525090565b828054611b59906126a5565b90600052602060002090601f016020900481019282611b7b5760008555611bc2565b82601f10611b9457805160ff1916838001178555611bc2565b82800160010185558215611bc2579182015b82811115611bc1578251825591602001919060010190611ba6565b5b509050611bcf9190611c5b565b5090565b508054611bdf906126a5565b6000825580601f10611bf15750611c10565b601f016020900490600052602060002090810190611c0f9190611c5b565b5b50565b5080546000825560050290600052602060002090810190611c349190611c78565b50565b5b80821115611c575760008181611c4e9190611bd3565b50600101611c38565b5090565b5b80821115611c74576000816000905550600101611c5c565b5090565b5b80821115611cdb5760008082016000611c929190611bd3565b600182016000611ca29190611bd3565b600282016000611cb29190611bd3565b600382016000611cc29190611bd3565b600482016000611cd29190611bd3565b50600501611c79565b5090565b6000611cf2611ced84612564565b61253f565b90508083825260208201905082856020860282011115611d1557611d1461279a565b5b60005b85811015611d6357813567ffffffffffffffff811115611d3b57611d3a612795565b5b808601611d488982611df2565b85526020850194506020840193505050600181019050611d18565b5050509392505050565b6000611d80611d7b84612590565b61253f565b905082815260208101848484011115611d9c57611d9b61279f565b5b611da7848285612663565b509392505050565b600081359050611dbe816127bf565b92915050565b600082601f830112611dd957611dd8612795565b5b8135611de9848260208601611cdf565b91505092915050565b600082601f830112611e0757611e06612795565b5b8135611e17848260208601611d6d565b91505092915050565b600081359050611e2f816127d6565b92915050565b600060208284031215611e4b57611e4a6127a9565b5b6000611e5984828501611daf565b91505092915050565b600080600060608486031215611e7b57611e7a6127a9565b5b600084013567ffffffffffffffff811115611e9957611e986127a4565b5b611ea586828701611dc4565b935050602084013567ffffffffffffffff811115611ec657611ec56127a4565b5b611ed286828701611dc4565b925050604084013567ffffffffffffffff811115611ef357611ef26127a4565b5b611eff86828701611dc4565b9150509250925092565b600080600080600060a08688031215611f2557611f246127a9565b5b600086013567ffffffffffffffff811115611f4357611f426127a4565b5b611f4f88828901611df2565b955050602086013567ffffffffffffffff811115611f7057611f6f6127a4565b5b611f7c88828901611df2565b945050604086013567ffffffffffffffff811115611f9d57611f9c6127a4565b5b611fa988828901611df2565b935050606086013567ffffffffffffffff811115611fca57611fc96127a4565b5b611fd688828901611df2565b925050608086013567ffffffffffffffff811115611ff757611ff66127a4565b5b61200388828901611df2565b9150509295509295909350565b60008060008060008060c0878903121561202d5761202c6127a9565b5b600087013567ffffffffffffffff81111561204b5761204a6127a4565b5b61205789828a01611df2565b965050602087013567ffffffffffffffff811115612078576120776127a4565b5b61208489828a01611df2565b955050604087013567ffffffffffffffff8111156120a5576120a46127a4565b5b6120b189828a01611df2565b945050606087013567ffffffffffffffff8111156120d2576120d16127a4565b5b6120de89828a01611df2565b935050608087013567ffffffffffffffff8111156120ff576120fe6127a4565b5b61210b89828a01611df2565b92505060a087013567ffffffffffffffff81111561212c5761212b6127a4565b5b61213889828a01611df2565b9150509295509295509295565b60006020828403121561215b5761215a6127a9565b5b600061216984828501611e20565b91505092915050565b600061217e838361220a565b905092915050565b61218f81612627565b82525050565b60006121a0826125d1565b6121aa81856125f4565b9350836020820285016121bc856125c1565b8060005b858110156121f857848403895281516121d98582612172565b94506121e4836125e7565b925060208a019950506001810190506121c0565b50829750879550505050505092915050565b6000612215826125dc565b61221f8185612605565b935061222f818560208601612672565b612238816127ae565b840191505092915050565b600061224e826125dc565b6122588185612616565b9350612268818560208601612672565b612271816127ae565b840191505092915050565b600060c0830160008301518482036000860152612299828261220a565b915050602083015184820360208601526122b3828261220a565b915050604083015184820360408601526122cd828261220a565b915050606083015184820360608601526122e7828261220a565b91505060808301518482036080860152612301828261220a565b91505060a083015184820360a086015261231b828261220a565b9150508091505092915050565b6000610100830160008301518482036000860152612346828261220a565b91505060208301518482036020860152612360828261220a565b91505060408301516123756040860182612186565b506060830151848203606086015261238d828261220a565b915050608083015184820360808601526123a7828261220a565b91505060a083015184820360a08601526123c1828261220a565b91505060c083015184820360c08601526123db828261220a565b91505060e08301516123f060e0860182612459565b508091505092915050565b600060608301600083015184820360008601526124188282612195565b915050602083015184820360208601526124328282612195565b9150506040830151848203604086015261244c8282612195565b9150508091505092915050565b61246281612659565b82525050565b61247181612659565b82525050565b600060808201905081810360008301526124918187612243565b905081810360208301526124a58186612243565b905081810360408301526124b98185612243565b905081810360608301526124cd8184612243565b905095945050505050565b600060608201905081810360008301526124f28186612328565b90508181036020830152612506818561227c565b9050818103604083015261251a81846123fb565b9050949350505050565b60006020820190506125396000830184612468565b92915050565b600061254961255a565b905061255582826126d7565b919050565b6000604051905090565b600067ffffffffffffffff82111561257f5761257e612766565b5b602082029050602081019050919050565b600067ffffffffffffffff8211156125ab576125aa612766565b5b6125b4826127ae565b9050602081019050919050565b6000819050602082019050919050565b600081519050919050565b600081519050919050565b6000602082019050919050565b600082825260208201905092915050565b600082825260208201905092915050565b600082825260208201905092915050565b600061263282612639565b9050919050565b600073ffffffffffffffffffffffffffffffffffffffff82169050919050565b6000819050919050565b82818337600083830152505050565b60005b83811015612690578082015181840152602081019050612675565b8381111561269f576000848401525b50505050565b600060028204905060018216806126bd57607f821691505b602082108114156126d1576126d0612708565b5b50919050565b6126e0826127ae565b810181811067ffffffffffffffff821117156126ff576126fe612766565b5b80604052505050565b7f4e487b7100000000000000000000000000000000000000000000000000000000600052602260045260246000fd5b7f4e487b7100000000000000000000000000000000000000000000000000000000600052603260045260246000fd5b7f4e487b7100000000000000000000000000000000000000000000000000000000600052604160045260246000fd5b600080fd5b600080fd5b600080fd5b600080fd5b600080fd5b6000601f19601f8301169050919050565b6127c881612627565b81146127d357600080fd5b50565b6127df81612659565b81146127ea57600080fd5b5056fea2646970667358221220962f981293377d4cd9df6eb7526bba9674644fa2adedc6e3b21ce72ffd3ace0164736f6c63430008070033",
					"opcodes": "PUSH1 0x80 PUSH1 0x40 MSTORE CALLVALUE DUP1 ISZERO PUSH2 0x10 JUMPI PUSH1 0x0 DUP1 REVERT JUMPDEST POP PUSH2 0x2823 DUP1 PUSH2 0x20 PUSH1 0x0 CODECOPY PUSH1 0x0 RETURN INVALID PUSH1 0x80 PUSH1 0x40 MSTORE CALLVALUE DUP1 ISZERO PUSH2 0x10 JUMPI PUSH1 0x0 DUP1 REVERT JUMPDEST POP PUSH1 0x4 CALLDATASIZE LT PUSH2 0x9E JUMPI PUSH1 0x0 CALLDATALOAD PUSH1 0xE0 SHR DUP1 PUSH4 0x95EA3757 GT PUSH2 0x66 JUMPI DUP1 PUSH4 0x95EA3757 EQ PUSH2 0x131 JUMPI DUP1 PUSH4 0x9DD9D0FD EQ PUSH2 0x13B JUMPI DUP1 PUSH4 0xED2217EF EQ PUSH2 0x16D JUMPI DUP1 PUSH4 0xF96E32F8 EQ PUSH2 0x177 JUMPI DUP1 PUSH4 0xFABCE08F EQ PUSH2 0x1AA JUMPI PUSH2 0x9E JUMP JUMPDEST DUP1 PUSH4 0x3D984D0E EQ PUSH2 0xA3 JUMPI DUP1 PUSH4 0x6212FA02 EQ PUSH2 0xBF JUMPI DUP1 PUSH4 0x66244DFB EQ PUSH2 0xDD JUMPI DUP1 PUSH4 0x72828388 EQ PUSH2 0xF9 JUMPI DUP1 PUSH4 0x958791AE EQ PUSH2 0x115 JUMPI JUMPDEST PUSH1 0x0 DUP1 REVERT JUMPDEST PUSH2 0xBD PUSH1 0x4 DUP1 CALLDATASIZE SUB DUP2 ADD SWAP1 PUSH2 0xB8 SWAP2 SWAP1 PUSH2 0x1E62 JUMP JUMPDEST PUSH2 0x1B4 JUMP JUMPDEST STOP JUMPDEST PUSH2 0xC7 PUSH2 0x338 JUMP JUMPDEST PUSH1 0x40 MLOAD PUSH2 0xD4 SWAP2 SWAP1 PUSH2 0x2524 JUMP JUMPDEST PUSH1 0x40 MLOAD DUP1 SWAP2 SUB SWAP1 RETURN JUMPDEST PUSH2 0xF7 PUSH1 0x4 DUP1 CALLDATASIZE SUB DUP2 ADD SWAP1 PUSH2 0xF2 SWAP2 SWAP1 PUSH2 0x1F09 JUMP JUMPDEST PUSH2 0x384 JUMP JUMPDEST STOP JUMPDEST PUSH2 0x113 PUSH1 0x4 DUP1 CALLDATASIZE SUB DUP2 ADD SWAP1 PUSH2 0x10E SWAP2 SWAP1 PUSH2 0x1F09 JUMP JUMPDEST PUSH2 0x4BF JUMP JUMPDEST STOP JUMPDEST PUSH2 0x12F PUSH1 0x4 DUP1 CALLDATASIZE SUB DUP2 ADD SWAP1 PUSH2 0x12A SWAP2 SWAP1 PUSH2 0x2010 JUMP JUMPDEST PUSH2 0x727 JUMP JUMPDEST STOP JUMPDEST PUSH2 0x139 PUSH2 0xA11 JUMP JUMPDEST STOP JUMPDEST PUSH2 0x155 PUSH1 0x4 DUP1 CALLDATASIZE SUB DUP2 ADD SWAP1 PUSH2 0x150 SWAP2 SWAP1 PUSH2 0x1E35 JUMP JUMPDEST PUSH2 0xAE6 JUMP JUMPDEST PUSH1 0x40 MLOAD PUSH2 0x164 SWAP4 SWAP3 SWAP2 SWAP1 PUSH2 0x24D8 JUMP JUMPDEST PUSH1 0x40 MLOAD DUP1 SWAP2 SUB SWAP1 RETURN JUMPDEST PUSH2 0x175 PUSH2 0x14F2 JUMP JUMPDEST STOP JUMPDEST PUSH2 0x191 PUSH1 0x4 DUP1 CALLDATASIZE SUB DUP2 ADD SWAP1 PUSH2 0x18C SWAP2 SWAP1 PUSH2 0x2145 JUMP JUMPDEST PUSH2 0x1541 JUMP JUMPDEST PUSH1 0x40 MLOAD PUSH2 0x1A1 SWAP5 SWAP4 SWAP3 SWAP2 SWAP1 PUSH2 0x2477 JUMP JUMPDEST PUSH1 0x40 MLOAD DUP1 SWAP2 SUB SWAP1 RETURN JUMPDEST PUSH2 0x1B2 PUSH2 0x1916 JUMP JUMPDEST STOP JUMPDEST PUSH1 0x0 DUP1 CALLER PUSH20 0xFFFFFFFFFFFFFFFFFFFFFFFFFFFFFFFFFFFFFFFF AND PUSH20 0xFFFFFFFFFFFFFFFFFFFFFFFFFFFFFFFFFFFFFFFF AND DUP2 MSTORE PUSH1 0x20 ADD SWAP1 DUP2 MSTORE PUSH1 0x20 ADD PUSH1 0x0 KECCAK256 PUSH1 0xE ADD PUSH1 0x0 DUP1 DUP3 ADD PUSH1 0x0 PUSH2 0x206 SWAP2 SWAP1 PUSH2 0x1A9D JUMP JUMPDEST PUSH1 0x1 DUP3 ADD PUSH1 0x0 PUSH2 0x216 SWAP2 SWAP1 PUSH2 0x1A9D JUMP JUMPDEST PUSH1 0x2 DUP3 ADD PUSH1 0x0 PUSH2 0x226 SWAP2 SWAP1 PUSH2 0x1A9D JUMP JUMPDEST POP POP DUP3 PUSH1 0x0 DUP1 CALLER PUSH20 0xFFFFFFFFFFFFFFFFFFFFFFFFFFFFFFFFFFFFFFFF AND PUSH20 0xFFFFFFFFFFFFFFFFFFFFFFFFFFFFFFFFFFFFFFFF AND DUP2 MSTORE PUSH1 0x20 ADD SWAP1 DUP2 MSTORE PUSH1 0x20 ADD PUSH1 0x0 KECCAK256 PUSH1 0xE ADD PUSH1 0x0 ADD SWAP1 DUP1 MLOAD SWAP1 PUSH1 0x20 ADD SWAP1 PUSH2 0x280 SWAP3 SWAP2 SWAP1 PUSH2 0x1ABE JUMP JUMPDEST POP DUP2 PUSH1 0x0 DUP1 CALLER PUSH20 0xFFFFFFFFFFFFFFFFFFFFFFFFFFFFFFFFFFFFFFFF AND PUSH20 0xFFFFFFFFFFFFFFFFFFFFFFFFFFFFFFFFFFFFFFFF AND DUP2 MSTORE PUSH1 0x20 ADD SWAP1 DUP2 MSTORE PUSH1 0x20 ADD PUSH1 0x0 KECCAK256 PUSH1 0xE ADD PUSH1 0x1 ADD SWAP1 DUP1 MLOAD SWAP1 PUSH1 0x20 ADD SWAP1 PUSH2 0x2D9 SWAP3 SWAP2 SWAP1 PUSH2 0x1ABE JUMP JUMPDEST POP DUP1 PUSH1 0x0 DUP1 CALLER PUSH20 0xFFFFFFFFFFFFFFFFFFFFFFFFFFFFFFFFFFFFFFFF AND PUSH20 0xFFFFFFFFFFFFFFFFFFFFFFFFFFFFFFFFFFFFFFFF AND DUP2 MSTORE PUSH1 0x20 ADD SWAP1 DUP2 MSTORE PUSH1 0x20 ADD PUSH1 0x0 KECCAK256 PUSH1 0xE ADD PUSH1 0x2 ADD SWAP1 DUP1 MLOAD SWAP1 PUSH1 0x20 ADD SWAP1 PUSH2 0x332 SWAP3 SWAP2 SWAP1 PUSH2 0x1ABE JUMP JUMPDEST POP POP POP POP JUMP JUMPDEST PUSH1 0x0 DUP1 PUSH1 0x0 CALLER PUSH20 0xFFFFFFFFFFFFFFFFFFFFFFFFFFFFFFFFFFFFFFFF AND PUSH20 0xFFFFFFFFFFFFFFFFFFFFFFFFFFFFFFFFFFFFFFFF AND DUP2 MSTORE PUSH1 0x20 ADD SWAP1 DUP2 MSTORE PUSH1 0x20 ADD PUSH1 0x0 KECCAK256 PUSH1 0x11 ADD DUP1 SLOAD SWAP1 POP SWAP1 POP SWAP1 JUMP JUMPDEST PUSH2 0x38C PUSH2 0x1B1E JUMP JUMPDEST DUP6 DUP2 PUSH1 0x0 ADD DUP2 SWAP1 MSTORE POP DUP5 DUP2 PUSH1 0x20 ADD DUP2 SWAP1 MSTORE POP DUP4 DUP2 PUSH1 0x40 ADD DUP2 SWAP1 MSTORE POP DUP3 DUP2 PUSH1 0x60 ADD DUP2 SWAP1 MSTORE POP DUP2 DUP2 PUSH1 0x80 ADD DUP2 SWAP1 MSTORE POP PUSH1 0x0 DUP1 CALLER PUSH20 0xFFFFFFFFFFFFFFFFFFFFFFFFFFFFFFFFFFFFFFFF AND PUSH20 0xFFFFFFFFFFFFFFFFFFFFFFFFFFFFFFFFFFFFFFFF AND DUP2 MSTORE PUSH1 0x20 ADD SWAP1 DUP2 MSTORE PUSH1 0x20 ADD PUSH1 0x0 KECCAK256 PUSH1 0x11 ADD DUP2 SWAP1 DUP1 PUSH1 0x1 DUP2 SLOAD ADD DUP1 DUP3 SSTORE DUP1 SWAP2 POP POP PUSH1 0x1 SWAP1 SUB SWAP1 PUSH1 0x0 MSTORE PUSH1 0x20 PUSH1 0x0 KECCAK256 SWAP1 PUSH1 0x5 MUL ADD PUSH1 0x0 SWAP1 SWAP2 SWAP1 SWAP2 SWAP1 SWAP2 POP PUSH1 0x0 DUP3 ADD MLOAD DUP2 PUSH1 0x0 ADD SWAP1 DUP1 MLOAD SWAP1 PUSH1 0x20 ADD SWAP1 PUSH2 0x440 SWAP3 SWAP2 SWAP1 PUSH2 0x1B4D JUMP JUMPDEST POP PUSH1 0x20 DUP3 ADD MLOAD DUP2 PUSH1 0x1 ADD SWAP1 DUP1 MLOAD SWAP1 PUSH1 0x20 ADD SWAP1 PUSH2 0x45D SWAP3 SWAP2 SWAP1 PUSH2 0x1B4D JUMP JUMPDEST POP PUSH1 0x40 DUP3 ADD MLOAD DUP2 PUSH1 0x2 ADD SWAP1 DUP1 MLOAD SWAP1 PUSH1 0x20 ADD SWAP1 PUSH2 0x47A SWAP3 SWAP2 SWAP1 PUSH2 0x1B4D JUMP JUMPDEST POP PUSH1 0x60 DUP3 ADD MLOAD DUP2 PUSH1 0x3 ADD SWAP1 DUP1 MLOAD SWAP1 PUSH1 0x20 ADD SWAP1 PUSH2 0x497 SWAP3 SWAP2 SWAP1 PUSH2 0x1B4D JUMP JUMPDEST POP PUSH1 0x80 DUP3 ADD MLOAD DUP2 PUSH1 0x4 ADD SWAP1 DUP1 MLOAD SWAP1 PUSH1 0x20 ADD SWAP1 PUSH2 0x4B4 SWAP3 SWAP2 SWAP1 PUSH2 0x1B4D JUMP JUMPDEST POP POP POP POP POP POP POP POP POP JUMP JUMPDEST PUSH1 0x0 DUP1 CALLER PUSH20 0xFFFFFFFFFFFFFFFFFFFFFFFFFFFFFFFFFFFFFFFF AND PUSH20 0xFFFFFFFFFFFFFFFFFFFFFFFFFFFFFFFFFFFFFFFF AND DUP2 MSTORE PUSH1 0x20 ADD SWAP1 DUP2 MSTORE PUSH1 0x20 ADD PUSH1 0x0 KECCAK256 PUSH1 0x8 ADD PUSH1 0x0 DUP1 DUP3 ADD PUSH1 0x0 PUSH2 0x511 SWAP2 SWAP1 PUSH2 0x1BD3 JUMP JUMPDEST PUSH1 0x1 DUP3 ADD PUSH1 0x0 PUSH2 0x521 SWAP2 SWAP1 PUSH2 0x1BD3 JUMP JUMPDEST PUSH1 0x2 DUP3 ADD PUSH1 0x0 PUSH2 0x531 SWAP2 SWAP1 PUSH2 0x1BD3 JUMP JUMPDEST PUSH1 0x3 DUP3 ADD PUSH1 0x0 PUSH2 0x541 SWAP2 SWAP1 PUSH2 0x1BD3 JUMP JUMPDEST PUSH1 0x4 DUP3 ADD PUSH1 0x0 PUSH2 0x551 SWAP2 SWAP1 PUSH2 0x1BD3 JUMP JUMPDEST PUSH1 0x5 DUP3 ADD PUSH1 0x0 PUSH2 0x561 SWAP2 SWAP1 PUSH2 0x1BD3 JUMP JUMPDEST POP POP DUP5 PUSH1 0x0 DUP1 CALLER PUSH20 0xFFFFFFFFFFFFFFFFFFFFFFFFFFFFFFFFFFFFFFFF AND PUSH20 0xFFFFFFFFFFFFFFFFFFFFFFFFFFFFFFFFFFFFFFFF AND DUP2 MSTORE PUSH1 0x20 ADD SWAP1 DUP2 MSTORE PUSH1 0x20 ADD PUSH1 0x0 KECCAK256 PUSH1 0x8 ADD PUSH1 0x1 ADD SWAP1 DUP1 MLOAD SWAP1 PUSH1 0x20 ADD SWAP1 PUSH2 0x5BB SWAP3 SWAP2 SWAP1 PUSH2 0x1B4D JUMP JUMPDEST POP DUP4 PUSH1 0x0 DUP1 CALLER PUSH20 0xFFFFFFFFFFFFFFFFFFFFFFFFFFFFFFFFFFFFFFFF AND PUSH20 0xFFFFFFFFFFFFFFFFFFFFFFFFFFFFFFFFFFFFFFFF AND DUP2 MSTORE PUSH1 0x20 ADD SWAP1 DUP2 MSTORE PUSH1 0x20 ADD PUSH1 0x0 KECCAK256 PUSH1 0x8 ADD PUSH1 0x2 ADD SWAP1 DUP1 MLOAD SWAP1 PUSH1 0x20 ADD SWAP1 PUSH2 0x614 SWAP3 SWAP2 SWAP1 PUSH2 0x1B4D JUMP JUMPDEST POP DUP3 PUSH1 0x0 DUP1 CALLER PUSH20 0xFFFFFFFFFFFFFFFFFFFFFFFFFFFFFFFFFFFFFFFF AND PUSH20 0xFFFFFFFFFFFFFFFFFFFFFFFFFFFFFFFFFFFFFFFF AND DUP2 MSTORE PUSH1 0x20 ADD SWAP1 DUP2 MSTORE PUSH1 0x20 ADD PUSH1 0x0 KECCAK256 PUSH1 0x8 ADD PUSH1 0x3 ADD SWAP1 DUP1 MLOAD SWAP1 PUSH1 0x20 ADD SWAP1 PUSH2 0x66D SWAP3 SWAP2 SWAP1 PUSH2 0x1B4D JUMP JUMPDEST POP DUP2 PUSH1 0x0 DUP1 CALLER PUSH20 0xFFFFFFFFFFFFFFFFFFFFFFFFFFFFFFFFFFFFFFFF AND PUSH20 0xFFFFFFFFFFFFFFFFFFFFFFFFFFFFFFFFFFFFFFFF AND DUP2 MSTORE PUSH1 0x20 ADD SWAP1 DUP2 MSTORE PUSH1 0x20 ADD PUSH1 0x0 KECCAK256 PUSH1 0x8 ADD PUSH1 0x2 ADD SWAP1 DUP1 MLOAD SWAP1 PUSH1 0x20 ADD SWAP1 PUSH2 0x6C6 SWAP3 SWAP2 SWAP1 PUSH2 0x1B4D JUMP JUMPDEST POP DUP1 PUSH1 0x0 DUP1 CALLER PUSH20 0xFFFFFFFFFFFFFFFFFFFFFFFFFFFFFFFFFFFFFFFF AND PUSH20 0xFFFFFFFFFFFFFFFFFFFFFFFFFFFFFFFFFFFFFFFF AND DUP2 MSTORE PUSH1 0x20 ADD SWAP1 DUP2 MSTORE PUSH1 0x20 ADD PUSH1 0x0 KECCAK256 PUSH1 0x8 ADD PUSH1 0x1 ADD SWAP1 DUP1 MLOAD SWAP1 PUSH1 0x20 ADD SWAP1 PUSH2 0x71F SWAP3 SWAP2 SWAP1 PUSH2 0x1B4D JUMP JUMPDEST POP POP POP POP POP POP JUMP JUMPDEST DUP6 PUSH1 0x0 DUP1 CALLER PUSH20 0xFFFFFFFFFFFFFFFFFFFFFFFFFFFFFFFFFFFFFFFF AND PUSH20 0xFFFFFFFFFFFFFFFFFFFFFFFFFFFFFFFFFFFFFFFF AND DUP2 MSTORE PUSH1 0x20 ADD SWAP1 DUP2 MSTORE PUSH1 0x20 ADD PUSH1 0x0 KECCAK256 PUSH1 0x0 ADD PUSH1 0x3 ADD SWAP1 DUP1 MLOAD SWAP1 PUSH1 0x20 ADD SWAP1 PUSH2 0x77F SWAP3 SWAP2 SWAP1 PUSH2 0x1B4D JUMP JUMPDEST POP DUP5 PUSH1 0x0 DUP1 CALLER PUSH20 0xFFFFFFFFFFFFFFFFFFFFFFFFFFFFFFFFFFFFFFFF AND PUSH20 0xFFFFFFFFFFFFFFFFFFFFFFFFFFFFFFFFFFFFFFFF AND DUP2 MSTORE PUSH1 0x20 ADD SWAP1 DUP2 MSTORE PUSH1 0x20 ADD PUSH1 0x0 KECCAK256 PUSH1 0x0 ADD PUSH1 0x4 ADD SWAP1 DUP1 MLOAD SWAP1 PUSH1 0x20 ADD SWAP1 PUSH2 0x7D8 SWAP3 SWAP2 SWAP1 PUSH2 0x1B4D JUMP JUMPDEST POP DUP4 PUSH1 0x0 DUP1 CALLER PUSH20 0xFFFFFFFFFFFFFFFFFFFFFFFFFFFFFFFFFFFFFFFF AND PUSH20 0xFFFFFFFFFFFFFFFFFFFFFFFFFFFFFFFFFFFFFFFF AND DUP2 MSTORE PUSH1 0x20 ADD SWAP1 DUP2 MSTORE PUSH1 0x20 ADD PUSH1 0x0 KECCAK256 PUSH1 0x0 ADD PUSH1 0x5 ADD SWAP1 DUP1 MLOAD SWAP1 PUSH1 0x20 ADD SWAP1 PUSH2 0x831 SWAP3 SWAP2 SWAP1 PUSH2 0x1B4D JUMP JUMPDEST POP DUP3 PUSH1 0x0 DUP1 CALLER PUSH20 0xFFFFFFFFFFFFFFFFFFFFFFFFFFFFFFFFFFFFFFFF AND PUSH20 0xFFFFFFFFFFFFFFFFFFFFFFFFFFFFFFFFFFFFFFFF AND DUP2 MSTORE PUSH1 0x20 ADD SWAP1 DUP2 MSTORE PUSH1 0x20 ADD PUSH1 0x0 KECCAK256 PUSH1 0x0 ADD PUSH1 0x6 ADD SWAP1 DUP1 MLOAD SWAP1 PUSH1 0x20 ADD SWAP1 PUSH2 0x88A SWAP3 SWAP2 SWAP1 PUSH2 0x1B4D JUMP JUMPDEST POP DUP2 PUSH1 0x0 DUP1 CALLER PUSH20 0xFFFFFFFFFFFFFFFFFFFFFFFFFFFFFFFFFFFFFFFF AND PUSH20 0xFFFFFFFFFFFFFFFFFFFFFFFFFFFFFFFFFFFFFFFF AND DUP2 MSTORE PUSH1 0x20 ADD SWAP1 DUP2 MSTORE PUSH1 0x20 ADD PUSH1 0x0 KECCAK256 PUSH1 0x0 ADD PUSH1 0x0 ADD SWAP1 DUP1 MLOAD SWAP1 PUSH1 0x20 ADD SWAP1 PUSH2 0x8E3 SWAP3 SWAP2 SWAP1 PUSH2 0x1B4D JUMP JUMPDEST POP DUP1 PUSH1 0x0 DUP1 CALLER PUSH20 0xFFFFFFFFFFFFFFFFFFFFFFFFFFFFFFFFFFFFFFFF AND PUSH20 0xFFFFFFFFFFFFFFFFFFFFFFFFFFFFFFFFFFFFFFFF AND DUP2 MSTORE PUSH1 0x20 ADD SWAP1 DUP2 MSTORE PUSH1 0x20 ADD PUSH1 0x0 KECCAK256 PUSH1 0x0 ADD PUSH1 0x1 ADD SWAP1 DUP1 MLOAD SWAP1 PUSH1 0x20 ADD SWAP1 PUSH2 0x93C SWAP3 SWAP2 SWAP1 PUSH2 0x1B4D JUMP JUMPDEST POP CALLER PUSH1 0x0 DUP1 CALLER PUSH20 0xFFFFFFFFFFFFFFFFFFFFFFFFFFFFFFFFFFFFFFFF AND PUSH20 0xFFFFFFFFFFFFFFFFFFFFFFFFFFFFFFFFFFFFFFFF AND DUP2 MSTORE PUSH1 0x20 ADD SWAP1 DUP2 MSTORE PUSH1 0x20 ADD PUSH1 0x0 KECCAK256 PUSH1 0x0 ADD PUSH1 0x2 ADD PUSH1 0x0 PUSH2 0x100 EXP DUP2 SLOAD DUP2 PUSH20 0xFFFFFFFFFFFFFFFFFFFFFFFFFFFFFFFFFFFFFFFF MUL NOT AND SWAP1 DUP4 PUSH20 0xFFFFFFFFFFFFFFFFFFFFFFFFFFFFFFFFFFFFFFFF AND MUL OR SWAP1 SSTORE POP TIMESTAMP PUSH1 0x0 DUP1 CALLER PUSH20 0xFFFFFFFFFFFFFFFFFFFFFFFFFFFFFFFFFFFFFFFF AND PUSH20 0xFFFFFFFFFFFFFFFFFFFFFFFFFFFFFFFFFFFFFFFF AND DUP2 MSTORE PUSH1 0x20 ADD SWAP1 DUP2 MSTORE PUSH1 0x20 ADD PUSH1 0x0 KECCAK256 PUSH1 0x0 ADD PUSH1 0x7 ADD DUP2 SWAP1 SSTORE POP POP POP POP POP POP POP JUMP JUMPDEST PUSH1 0x0 DUP1 CALLER PUSH20 0xFFFFFFFFFFFFFFFFFFFFFFFFFFFFFFFFFFFFFFFF AND PUSH20 0xFFFFFFFFFFFFFFFFFFFFFFFFFFFFFFFFFFFFFFFF AND DUP2 MSTORE PUSH1 0x20 ADD SWAP1 DUP2 MSTORE PUSH1 0x20 ADD PUSH1 0x0 KECCAK256 PUSH1 0x0 ADD PUSH1 0x0 DUP1 DUP3 ADD PUSH1 0x0 PUSH2 0xA63 SWAP2 SWAP1 PUSH2 0x1BD3 JUMP JUMPDEST PUSH1 0x1 DUP3 ADD PUSH1 0x0 PUSH2 0xA73 SWAP2 SWAP1 PUSH2 0x1BD3 JUMP JUMPDEST PUSH1 0x2 DUP3 ADD PUSH1 0x0 PUSH2 0x100 EXP DUP2 SLOAD SWAP1 PUSH20 0xFFFFFFFFFFFFFFFFFFFFFFFFFFFFFFFFFFFFFFFF MUL NOT AND SWAP1 SSTORE PUSH1 0x3 DUP3 ADD PUSH1 0x0 PUSH2 0xAAA SWAP2 SWAP1 PUSH2 0x1BD3 JUMP JUMPDEST PUSH1 0x4 DUP3 ADD PUSH1 0x0 PUSH2 0xABA SWAP2 SWAP1 PUSH2 0x1BD3 JUMP JUMPDEST PUSH1 0x5 DUP3 ADD PUSH1 0x0 PUSH2 0xACA SWAP2 SWAP1 PUSH2 0x1BD3 JUMP JUMPDEST PUSH1 0x6 DUP3 ADD PUSH1 0x0 PUSH2 0xADA SWAP2 SWAP1 PUSH2 0x1BD3 JUMP JUMPDEST PUSH1 0x7 DUP3 ADD PUSH1 0x0 SWAP1 SSTORE POP POP JUMP JUMPDEST PUSH1 0x0 PUSH1 0x20 MSTORE DUP1 PUSH1 0x0 MSTORE PUSH1 0x40 PUSH1 0x0 KECCAK256 PUSH1 0x0 SWAP2 POP SWAP1 POP DUP1 PUSH1 0x0 ADD PUSH1 0x40 MLOAD DUP1 PUSH2 0x100 ADD PUSH1 0x40 MSTORE SWAP1 DUP2 PUSH1 0x0 DUP3 ADD DUP1 SLOAD PUSH2 0xB1A SWAP1 PUSH2 0x26A5 JUMP JUMPDEST DUP1 PUSH1 0x1F ADD PUSH1 0x20 DUP1 SWAP2 DIV MUL PUSH1 0x20 ADD PUSH1 0x40 MLOAD SWAP1 DUP2 ADD PUSH1 0x40 MSTORE DUP1 SWAP3 SWAP2 SWAP1 DUP2 DUP2 MSTORE PUSH1 0x20 ADD DUP3 DUP1 SLOAD PUSH2 0xB46 SWAP1 PUSH2 0x26A5 JUMP JUMPDEST DUP1 ISZERO PUSH2 0xB93 JUMPI DUP1 PUSH1 0x1F LT PUSH2 0xB68 JUMPI PUSH2 0x100 DUP1 DUP4 SLOAD DIV MUL DUP4 MSTORE SWAP2 PUSH1 0x20 ADD SWAP2 PUSH2 0xB93 JUMP JUMPDEST DUP3 ADD SWAP2 SWAP1 PUSH1 0x0 MSTORE PUSH1 0x20 PUSH1 0x0 KECCAK256 SWAP1 JUMPDEST DUP2 SLOAD DUP2 MSTORE SWAP1 PUSH1 0x1 ADD SWAP1 PUSH1 0x20 ADD DUP1 DUP4 GT PUSH2 0xB76 JUMPI DUP3 SWAP1 SUB PUSH1 0x1F AND DUP3 ADD SWAP2 JUMPDEST POP POP POP POP POP DUP2 MSTORE PUSH1 0x20 ADD PUSH1 0x1 DUP3 ADD DUP1 SLOAD PUSH2 0xBAC SWAP1 PUSH2 0x26A5 JUMP JUMPDEST DUP1 PUSH1 0x1F ADD PUSH1 0x20 DUP1 SWAP2 DIV MUL PUSH1 0x20 ADD PUSH1 0x40 MLOAD SWAP1 DUP2 ADD PUSH1 0x40 MSTORE DUP1 SWAP3 SWAP2 SWAP1 DUP2 DUP2 MSTORE PUSH1 0x20 ADD DUP3 DUP1 SLOAD PUSH2 0xBD8 SWAP1 PUSH2 0x26A5 JUMP JUMPDEST DUP1 ISZERO PUSH2 0xC25 JUMPI DUP1 PUSH1 0x1F LT PUSH2 0xBFA JUMPI PUSH2 0x100 DUP1 DUP4 SLOAD DIV MUL DUP4 MSTORE SWAP2 PUSH1 0x20 ADD SWAP2 PUSH2 0xC25 JUMP JUMPDEST DUP3 ADD SWAP2 SWAP1 PUSH1 0x0 MSTORE PUSH1 0x20 PUSH1 0x0 KECCAK256 SWAP1 JUMPDEST DUP2 SLOAD DUP2 MSTORE SWAP1 PUSH1 0x1 ADD SWAP1 PUSH1 0x20 ADD DUP1 DUP4 GT PUSH2 0xC08 JUMPI DUP3 SWAP1 SUB PUSH1 0x1F AND DUP3 ADD SWAP2 JUMPDEST POP POP POP POP POP DUP2 MSTORE PUSH1 0x20 ADD PUSH1 0x2 DUP3 ADD PUSH1 0x0 SWAP1 SLOAD SWAP1 PUSH2 0x100 EXP SWAP1 DIV PUSH20 0xFFFFFFFFFFFFFFFFFFFFFFFFFFFFFFFFFFFFFFFF AND PUSH20 0xFFFFFFFFFFFFFFFFFFFFFFFFFFFFFFFFFFFFFFFF AND PUSH20 0xFFFFFFFFFFFFFFFFFFFFFFFFFFFFFFFFFFFFFFFF AND DUP2 MSTORE PUSH1 0x20 ADD PUSH1 0x3 DUP3 ADD DUP1 SLOAD PUSH2 0xC94 SWAP1 PUSH2 0x26A5 JUMP JUMPDEST DUP1 PUSH1 0x1F ADD PUSH1 0x20 DUP1 SWAP2 DIV MUL PUSH1 0x20 ADD PUSH1 0x40 MLOAD SWAP1 DUP2 ADD PUSH1 0x40 MSTORE DUP1 SWAP3 SWAP2 SWAP1 DUP2 DUP2 MSTORE PUSH1 0x20 ADD DUP3 DUP1 SLOAD PUSH2 0xCC0 SWAP1 PUSH2 0x26A5 JUMP JUMPDEST DUP1 ISZERO PUSH2 0xD0D JUMPI DUP1 PUSH1 0x1F LT PUSH2 0xCE2 JUMPI PUSH2 0x100 DUP1 DUP4 SLOAD DIV MUL DUP4 MSTORE SWAP2 PUSH1 0x20 ADD SWAP2 PUSH2 0xD0D JUMP JUMPDEST DUP3 ADD SWAP2 SWAP1 PUSH1 0x0 MSTORE PUSH1 0x20 PUSH1 0x0 KECCAK256 SWAP1 JUMPDEST DUP2 SLOAD DUP2 MSTORE SWAP1 PUSH1 0x1 ADD SWAP1 PUSH1 0x20 ADD DUP1 DUP4 GT PUSH2 0xCF0 JUMPI DUP3 SWAP1 SUB PUSH1 0x1F AND DUP3 ADD SWAP2 JUMPDEST POP POP POP POP POP DUP2 MSTORE PUSH1 0x20 ADD PUSH1 0x4 DUP3 ADD DUP1 SLOAD PUSH2 0xD26 SWAP1 PUSH2 0x26A5 JUMP JUMPDEST DUP1 PUSH1 0x1F ADD PUSH1 0x20 DUP1 SWAP2 DIV MUL PUSH1 0x20 ADD PUSH1 0x40 MLOAD SWAP1 DUP2 ADD PUSH1 0x40 MSTORE DUP1 SWAP3 SWAP2 SWAP1 DUP2 DUP2 MSTORE PUSH1 0x20 ADD DUP3 DUP1 SLOAD PUSH2 0xD52 SWAP1 PUSH2 0x26A5 JUMP JUMPDEST DUP1 ISZERO PUSH2 0xD9F JUMPI DUP1 PUSH1 0x1F LT PUSH2 0xD74 JUMPI PUSH2 0x100 DUP1 DUP4 SLOAD DIV MUL DUP4 MSTORE SWAP2 PUSH1 0x20 ADD SWAP2 PUSH2 0xD9F JUMP JUMPDEST DUP3 ADD SWAP2 SWAP1 PUSH1 0x0 MSTORE PUSH1 0x20 PUSH1 0x0 KECCAK256 SWAP1 JUMPDEST DUP2 SLOAD DUP2 MSTORE SWAP1 PUSH1 0x1 ADD SWAP1 PUSH1 0x20 ADD DUP1 DUP4 GT PUSH2 0xD82 JUMPI DUP3 SWAP1 SUB PUSH1 0x1F AND DUP3 ADD SWAP2 JUMPDEST POP POP POP POP POP DUP2 MSTORE PUSH1 0x20 ADD PUSH1 0x5 DUP3 ADD DUP1 SLOAD PUSH2 0xDB8 SWAP1 PUSH2 0x26A5 JUMP JUMPDEST DUP1 PUSH1 0x1F ADD PUSH1 0x20 DUP1 SWAP2 DIV MUL PUSH1 0x20 ADD PUSH1 0x40 MLOAD SWAP1 DUP2 ADD PUSH1 0x40 MSTORE DUP1 SWAP3 SWAP2 SWAP1 DUP2 DUP2 MSTORE PUSH1 0x20 ADD DUP3 DUP1 SLOAD PUSH2 0xDE4 SWAP1 PUSH2 0x26A5 JUMP JUMPDEST DUP1 ISZERO PUSH2 0xE31 JUMPI DUP1 PUSH1 0x1F LT PUSH2 0xE06 JUMPI PUSH2 0x100 DUP1 DUP4 SLOAD DIV MUL DUP4 MSTORE SWAP2 PUSH1 0x20 ADD SWAP2 PUSH2 0xE31 JUMP JUMPDEST DUP3 ADD SWAP2 SWAP1 PUSH1 0x0 MSTORE PUSH1 0x20 PUSH1 0x0 KECCAK256 SWAP1 JUMPDEST DUP2 SLOAD DUP2 MSTORE SWAP1 PUSH1 0x1 ADD SWAP1 PUSH1 0x20 ADD DUP1 DUP4 GT PUSH2 0xE14 JUMPI DUP3 SWAP1 SUB PUSH1 0x1F AND DUP3 ADD SWAP2 JUMPDEST POP POP POP POP POP DUP2 MSTORE PUSH1 0x20 ADD PUSH1 0x6 DUP3 ADD DUP1 SLOAD PUSH2 0xE4A SWAP1 PUSH2 0x26A5 JUMP JUMPDEST DUP1 PUSH1 0x1F ADD PUSH1 0x20 DUP1 SWAP2 DIV MUL PUSH1 0x20 ADD PUSH1 0x40 MLOAD SWAP1 DUP2 ADD PUSH1 0x40 MSTORE DUP1 SWAP3 SWAP2 SWAP1 DUP2 DUP2 MSTORE PUSH1 0x20 ADD DUP3 DUP1 SLOAD PUSH2 0xE76 SWAP1 PUSH2 0x26A5 JUMP JUMPDEST DUP1 ISZERO PUSH2 0xEC3 JUMPI DUP1 PUSH1 0x1F LT PUSH2 0xE98 JUMPI PUSH2 0x100 DUP1 DUP4 SLOAD DIV MUL DUP4 MSTORE SWAP2 PUSH1 0x20 ADD SWAP2 PUSH2 0xEC3 JUMP JUMPDEST DUP3 ADD SWAP2 SWAP1 PUSH1 0x0 MSTORE PUSH1 0x20 PUSH1 0x0 KECCAK256 SWAP1 JUMPDEST DUP2 SLOAD DUP2 MSTORE SWAP1 PUSH1 0x1 ADD SWAP1 PUSH1 0x20 ADD DUP1 DUP4 GT PUSH2 0xEA6 JUMPI DUP3 SWAP1 SUB PUSH1 0x1F AND DUP3 ADD SWAP2 JUMPDEST POP POP POP POP POP DUP2 MSTORE PUSH1 0x20 ADD PUSH1 0x7 DUP3 ADD SLOAD DUP2 MSTORE POP POP SWAP1 DUP1 PUSH1 0x8 ADD PUSH1 0x40 MLOAD DUP1 PUSH1 0xC0 ADD PUSH1 0x40 MSTORE SWAP1 DUP2 PUSH1 0x0 DUP3 ADD DUP1 SLOAD PUSH2 0xEF6 SWAP1 PUSH2 0x26A5 JUMP JUMPDEST DUP1 PUSH1 0x1F ADD PUSH1 0x20 DUP1 SWAP2 DIV MUL PUSH1 0x20 ADD PUSH1 0x40 MLOAD SWAP1 DUP2 ADD PUSH1 0x40 MSTORE DUP1 SWAP3 SWAP2 SWAP1 DUP2 DUP2 MSTORE PUSH1 0x20 ADD DUP3 DUP1 SLOAD PUSH2 0xF22 SWAP1 PUSH2 0x26A5 JUMP JUMPDEST DUP1 ISZERO PUSH2 0xF6F JUMPI DUP1 PUSH1 0x1F LT PUSH2 0xF44 JUMPI PUSH2 0x100 DUP1 DUP4 SLOAD DIV MUL DUP4 MSTORE SWAP2 PUSH1 0x20 ADD SWAP2 PUSH2 0xF6F JUMP JUMPDEST DUP3 ADD SWAP2 SWAP1 PUSH1 0x0 MSTORE PUSH1 0x20 PUSH1 0x0 KECCAK256 SWAP1 JUMPDEST DUP2 SLOAD DUP2 MSTORE SWAP1 PUSH1 0x1 ADD SWAP1 PUSH1 0x20 ADD DUP1 DUP4 GT PUSH2 0xF52 JUMPI DUP3 SWAP1 SUB PUSH1 0x1F AND DUP3 ADD SWAP2 JUMPDEST POP POP POP POP POP DUP2 MSTORE PUSH1 0x20 ADD PUSH1 0x1 DUP3 ADD DUP1 SLOAD PUSH2 0xF88 SWAP1 PUSH2 0x26A5 JUMP JUMPDEST DUP1 PUSH1 0x1F ADD PUSH1 0x20 DUP1 SWAP2 DIV MUL PUSH1 0x20 ADD PUSH1 0x40 MLOAD SWAP1 DUP2 ADD PUSH1 0x40 MSTORE DUP1 SWAP3 SWAP2 SWAP1 DUP2 DUP2 MSTORE PUSH1 0x20 ADD DUP3 DUP1 SLOAD PUSH2 0xFB4 SWAP1 PUSH2 0x26A5 JUMP JUMPDEST DUP1 ISZERO PUSH2 0x1001 JUMPI DUP1 PUSH1 0x1F LT PUSH2 0xFD6 JUMPI PUSH2 0x100 DUP1 DUP4 SLOAD DIV MUL DUP4 MSTORE SWAP2 PUSH1 0x20 ADD SWAP2 PUSH2 0x1001 JUMP JUMPDEST DUP3 ADD SWAP2 SWAP1 PUSH1 0x0 MSTORE PUSH1 0x20 PUSH1 0x0 KECCAK256 SWAP1 JUMPDEST DUP2 SLOAD DUP2 MSTORE SWAP1 PUSH1 0x1 ADD SWAP1 PUSH1 0x20 ADD DUP1 DUP4 GT PUSH2 0xFE4 JUMPI DUP3 SWAP1 SUB PUSH1 0x1F AND DUP3 ADD SWAP2 JUMPDEST POP POP POP POP POP DUP2 MSTORE PUSH1 0x20 ADD PUSH1 0x2 DUP3 ADD DUP1 SLOAD PUSH2 0x101A SWAP1 PUSH2 0x26A5 JUMP JUMPDEST DUP1 PUSH1 0x1F ADD PUSH1 0x20 DUP1 SWAP2 DIV MUL PUSH1 0x20 ADD PUSH1 0x40 MLOAD SWAP1 DUP2 ADD PUSH1 0x40 MSTORE DUP1 SWAP3 SWAP2 SWAP1 DUP2 DUP2 MSTORE PUSH1 0x20 ADD DUP3 DUP1 SLOAD PUSH2 0x1046 SWAP1 PUSH2 0x26A5 JUMP JUMPDEST DUP1 ISZERO PUSH2 0x1093 JUMPI DUP1 PUSH1 0x1F LT PUSH2 0x1068 JUMPI PUSH2 0x100 DUP1 DUP4 SLOAD DIV MUL DUP4 MSTORE SWAP2 PUSH1 0x20 ADD SWAP2 PUSH2 0x1093 JUMP JUMPDEST DUP3 ADD SWAP2 SWAP1 PUSH1 0x0 MSTORE PUSH1 0x20 PUSH1 0x0 KECCAK256 SWAP1 JUMPDEST DUP2 SLOAD DUP2 MSTORE SWAP1 PUSH1 0x1 ADD SWAP1 PUSH1 0x20 ADD DUP1 DUP4 GT PUSH2 0x1076 JUMPI DUP3 SWAP1 SUB PUSH1 0x1F AND DUP3 ADD SWAP2 JUMPDEST POP POP POP POP POP DUP2 MSTORE PUSH1 0x20 ADD PUSH1 0x3 DUP3 ADD DUP1 SLOAD PUSH2 0x10AC SWAP1 PUSH2 0x26A5 JUMP JUMPDEST DUP1 PUSH1 0x1F ADD PUSH1 0x20 DUP1 SWAP2 DIV MUL PUSH1 0x20 ADD PUSH1 0x40 MLOAD SWAP1 DUP2 ADD PUSH1 0x40 MSTORE DUP1 SWAP3 SWAP2 SWAP1 DUP2 DUP2 MSTORE PUSH1 0x20 ADD DUP3 DUP1 SLOAD PUSH2 0x10D8 SWAP1 PUSH2 0x26A5 JUMP JUMPDEST DUP1 ISZERO PUSH2 0x1125 JUMPI DUP1 PUSH1 0x1F LT PUSH2 0x10FA JUMPI PUSH2 0x100 DUP1 DUP4 SLOAD DIV MUL DUP4 MSTORE SWAP2 PUSH1 0x20 ADD SWAP2 PUSH2 0x1125 JUMP JUMPDEST DUP3 ADD SWAP2 SWAP1 PUSH1 0x0 MSTORE PUSH1 0x20 PUSH1 0x0 KECCAK256 SWAP1 JUMPDEST DUP2 SLOAD DUP2 MSTORE SWAP1 PUSH1 0x1 ADD SWAP1 PUSH1 0x20 ADD DUP1 DUP4 GT PUSH2 0x1108 JUMPI DUP3 SWAP1 SUB PUSH1 0x1F AND DUP3 ADD SWAP2 JUMPDEST POP POP POP POP POP DUP2 MSTORE PUSH1 0x20 ADD PUSH1 0x4 DUP3 ADD DUP1 SLOAD PUSH2 0x113E SWAP1 PUSH2 0x26A5 JUMP JUMPDEST DUP1 PUSH1 0x1F ADD PUSH1 0x20 DUP1 SWAP2 DIV MUL PUSH1 0x20 ADD PUSH1 0x40 MLOAD SWAP1 DUP2 ADD PUSH1 0x40 MSTORE DUP1 SWAP3 SWAP2 SWAP1 DUP2 DUP2 MSTORE PUSH1 0x20 ADD DUP3 DUP1 SLOAD PUSH2 0x116A SWAP1 PUSH2 0x26A5 JUMP JUMPDEST DUP1 ISZERO PUSH2 0x11B7 JUMPI DUP1 PUSH1 0x1F LT PUSH2 0x118C JUMPI PUSH2 0x100 DUP1 DUP4 SLOAD DIV MUL DUP4 MSTORE SWAP2 PUSH1 0x20 ADD SWAP2 PUSH2 0x11B7 JUMP JUMPDEST DUP3 ADD SWAP2 SWAP1 PUSH1 0x0 MSTORE PUSH1 0x20 PUSH1 0x0 KECCAK256 SWAP1 JUMPDEST DUP2 SLOAD DUP2 MSTORE SWAP1 PUSH1 0x1 ADD SWAP1 PUSH1 0x20 ADD DUP1 DUP4 GT PUSH2 0x119A JUMPI DUP3 SWAP1 SUB PUSH1 0x1F AND DUP3 ADD SWAP2 JUMPDEST POP POP POP POP POP DUP2 MSTORE PUSH1 0x20 ADD PUSH1 0x5 DUP3 ADD DUP1 SLOAD PUSH2 0x11D0 SWAP1 PUSH2 0x26A5 JUMP JUMPDEST DUP1 PUSH1 0x1F ADD PUSH1 0x20 DUP1 SWAP2 DIV MUL PUSH1 0x20 ADD PUSH1 0x40 MLOAD SWAP1 DUP2 ADD PUSH1 0x40 MSTORE DUP1 SWAP3 SWAP2 SWAP1 DUP2 DUP2 MSTORE PUSH1 0x20 ADD DUP3 DUP1 SLOAD PUSH2 0x11FC SWAP1 PUSH2 0x26A5 JUMP JUMPDEST DUP1 ISZERO PUSH2 0x1249 JUMPI DUP1 PUSH1 0x1F LT PUSH2 0x121E JUMPI PUSH2 0x100 DUP1 DUP4 SLOAD DIV MUL DUP4 MSTORE SWAP2 PUSH1 0x20 ADD SWAP2 PUSH2 0x1249 JUMP JUMPDEST DUP3 ADD SWAP2 SWAP1 PUSH1 0x0 MSTORE PUSH1 0x20 PUSH1 0x0 KECCAK256 SWAP1 JUMPDEST DUP2 SLOAD DUP2 MSTORE SWAP1 PUSH1 0x1 ADD SWAP1 PUSH1 0x20 ADD DUP1 DUP4 GT PUSH2 0x122C JUMPI DUP3 SWAP1 SUB PUSH1 0x1F AND DUP3 ADD SWAP2 JUMPDEST POP POP POP POP POP DUP2 MSTORE POP POP SWAP1 DUP1 PUSH1 0xE ADD PUSH1 0x40 MLOAD DUP1 PUSH1 0x60 ADD PUSH1 0x40 MSTORE SWAP1 DUP2 PUSH1 0x0 DUP3 ADD DUP1 SLOAD DUP1 PUSH1 0x20 MUL PUSH1 0x20 ADD PUSH1 0x40 MLOAD SWAP1 DUP2 ADD PUSH1 0x40 MSTORE DUP1 SWAP3 SWAP2 SWAP1 DUP2 DUP2 MSTORE PUSH1 0x20 ADD PUSH1 0x0 SWAP1 JUMPDEST DUP3 DUP3 LT ISZERO PUSH2 0x1333 JUMPI DUP4 DUP3 SWAP1 PUSH1 0x0 MSTORE PUSH1 0x20 PUSH1 0x0 KECCAK256 ADD DUP1 SLOAD PUSH2 0x12A6 SWAP1 PUSH2 0x26A5 JUMP JUMPDEST DUP1 PUSH1 0x1F ADD PUSH1 0x20 DUP1 SWAP2 DIV MUL PUSH1 0x20 ADD PUSH1 0x40 MLOAD SWAP1 DUP2 ADD PUSH1 0x40 MSTORE DUP1 SWAP3 SWAP2 SWAP1 DUP2 DUP2 MSTORE PUSH1 0x20 ADD DUP3 DUP1 SLOAD PUSH2 0x12D2 SWAP1 PUSH2 0x26A5 JUMP JUMPDEST DUP1 ISZERO PUSH2 0x131F JUMPI DUP1 PUSH1 0x1F LT PUSH2 0x12F4 JUMPI PUSH2 0x100 DUP1 DUP4 SLOAD DIV MUL DUP4 MSTORE SWAP2 PUSH1 0x20 ADD SWAP2 PUSH2 0x131F JUMP JUMPDEST DUP3 ADD SWAP2 SWAP1 PUSH1 0x0 MSTORE PUSH1 0x20 PUSH1 0x0 KECCAK256 SWAP1 JUMPDEST DUP2 SLOAD DUP2 MSTORE SWAP1 PUSH1 0x1 ADD SWAP1 PUSH1 0x20 ADD DUP1 DUP4 GT PUSH2 0x1302 JUMPI DUP3 SWAP1 SUB PUSH1 0x1F AND DUP3 ADD SWAP2 JUMPDEST POP POP POP POP POP DUP2 MSTORE PUSH1 0x20 ADD SWAP1 PUSH1 0x1 ADD SWAP1 PUSH2 0x1287 JUMP JUMPDEST POP POP POP POP DUP2 MSTORE PUSH1 0x20 ADD PUSH1 0x1 DUP3 ADD DUP1 SLOAD DUP1 PUSH1 0x20 MUL PUSH1 0x20 ADD PUSH1 0x40 MLOAD SWAP1 DUP2 ADD PUSH1 0x40 MSTORE DUP1 SWAP3 SWAP2 SWAP1 DUP2 DUP2 MSTORE PUSH1 0x20 ADD PUSH1 0x0 SWAP1 JUMPDEST DUP3 DUP3 LT ISZERO PUSH2 0x140C JUMPI DUP4 DUP3 SWAP1 PUSH1 0x0 MSTORE PUSH1 0x20 PUSH1 0x0 KECCAK256 ADD DUP1 SLOAD PUSH2 0x137F SWAP1 PUSH2 0x26A5 JUMP JUMPDEST DUP1 PUSH1 0x1F ADD PUSH1 0x20 DUP1 SWAP2 DIV MUL PUSH1 0x20 ADD PUSH1 0x40 MLOAD SWAP1 DUP2 ADD PUSH1 0x40 MSTORE DUP1 SWAP3 SWAP2 SWAP1 DUP2 DUP2 MSTORE PUSH1 0x20 ADD DUP3 DUP1 SLOAD PUSH2 0x13AB SWAP1 PUSH2 0x26A5 JUMP JUMPDEST DUP1 ISZERO PUSH2 0x13F8 JUMPI DUP1 PUSH1 0x1F LT PUSH2 0x13CD JUMPI PUSH2 0x100 DUP1 DUP4 SLOAD DIV MUL DUP4 MSTORE SWAP2 PUSH1 0x20 ADD SWAP2 PUSH2 0x13F8 JUMP JUMPDEST DUP3 ADD SWAP2 SWAP1 PUSH1 0x0 MSTORE PUSH1 0x20 PUSH1 0x0 KECCAK256 SWAP1 JUMPDEST DUP2 SLOAD DUP2 MSTORE SWAP1 PUSH1 0x1 ADD SWAP1 PUSH1 0x20 ADD DUP1 DUP4 GT PUSH2 0x13DB JUMPI DUP3 SWAP1 SUB PUSH1 0x1F AND DUP3 ADD SWAP2 JUMPDEST POP POP POP POP POP DUP2 MSTORE PUSH1 0x20 ADD SWAP1 PUSH1 0x1 ADD SWAP1 PUSH2 0x1360 JUMP JUMPDEST POP POP POP POP DUP2 MSTORE PUSH1 0x20 ADD PUSH1 0x2 DUP3 ADD DUP1 SLOAD DUP1 PUSH1 0x20 MUL PUSH1 0x20 ADD PUSH1 0x40 MLOAD SWAP1 DUP2 ADD PUSH1 0x40 MSTORE DUP1 SWAP3 SWAP2 SWAP1 DUP2 DUP2 MSTORE PUSH1 0x20 ADD PUSH1 0x0 SWAP1 JUMPDEST DUP3 DUP3 LT ISZERO PUSH2 0x14E5 JUMPI DUP4 DUP3 SWAP1 PUSH1 0x0 MSTORE PUSH1 0x20 PUSH1 0x0 KECCAK256 ADD DUP1 SLOAD PUSH2 0x1458 SWAP1 PUSH2 0x26A5 JUMP JUMPDEST DUP1 PUSH1 0x1F ADD PUSH1 0x20 DUP1 SWAP2 DIV MUL PUSH1 0x20 ADD PUSH1 0x40 MLOAD SWAP1 DUP2 ADD PUSH1 0x40 MSTORE DUP1 SWAP3 SWAP2 SWAP1 DUP2 DUP2 MSTORE PUSH1 0x20 ADD DUP3 DUP1 SLOAD PUSH2 0x1484 SWAP1 PUSH2 0x26A5 JUMP JUMPDEST DUP1 ISZERO PUSH2 0x14D1 JUMPI DUP1 PUSH1 0x1F LT PUSH2 0x14A6 JUMPI PUSH2 0x100 DUP1 DUP4 SLOAD DIV MUL DUP4 MSTORE SWAP2 PUSH1 0x20 ADD SWAP2 PUSH2 0x14D1 JUMP JUMPDEST DUP3 ADD SWAP2 SWAP1 PUSH1 0x0 MSTORE PUSH1 0x20 PUSH1 0x0 KECCAK256 SWAP1 JUMPDEST DUP2 SLOAD DUP2 MSTORE SWAP1 PUSH1 0x1 ADD SWAP1 PUSH1 0x20 ADD DUP1 DUP4 GT PUSH2 0x14B4 JUMPI DUP3 SWAP1 SUB PUSH1 0x1F AND DUP3 ADD SWAP2 JUMPDEST POP POP POP POP POP DUP2 MSTORE PUSH1 0x20 ADD SWAP1 PUSH1 0x1 ADD SWAP1 PUSH2 0x1439 JUMP JUMPDEST POP POP POP POP DUP2 MSTORE POP POP SWAP1 POP DUP4 JUMP JUMPDEST PUSH1 0x0 DUP1 CALLER PUSH20 0xFFFFFFFFFFFFFFFFFFFFFFFFFFFFFFFFFFFFFFFF AND PUSH20 0xFFFFFFFFFFFFFFFFFFFFFFFFFFFFFFFFFFFFFFFF AND DUP2 MSTORE PUSH1 0x20 ADD SWAP1 DUP2 MSTORE PUSH1 0x20 ADD PUSH1 0x0 KECCAK256 PUSH1 0x11 ADD PUSH1 0x0 PUSH2 0x153F SWAP2 SWAP1 PUSH2 0x1C13 JUMP JUMPDEST JUMP JUMPDEST PUSH1 0x60 DUP1 PUSH1 0x60 DUP1 PUSH1 0x0 DUP1 CALLER PUSH20 0xFFFFFFFFFFFFFFFFFFFFFFFFFFFFFFFFFFFFFFFF AND PUSH20 0xFFFFFFFFFFFFFFFFFFFFFFFFFFFFFFFFFFFFFFFF AND DUP2 MSTORE PUSH1 0x20 ADD SWAP1 DUP2 MSTORE PUSH1 0x20 ADD PUSH1 0x0 KECCAK256 PUSH1 0x11 ADD DUP6 DUP2 SLOAD DUP2 LT PUSH2 0x159A JUMPI PUSH2 0x1599 PUSH2 0x2737 JUMP JUMPDEST JUMPDEST SWAP1 PUSH1 0x0 MSTORE PUSH1 0x20 PUSH1 0x0 KECCAK256 SWAP1 PUSH1 0x5 MUL ADD PUSH1 0x0 ADD PUSH1 0x0 DUP1 CALLER PUSH20 0xFFFFFFFFFFFFFFFFFFFFFFFFFFFFFFFFFFFFFFFF AND PUSH20 0xFFFFFFFFFFFFFFFFFFFFFFFFFFFFFFFFFFFFFFFF AND DUP2 MSTORE PUSH1 0x20 ADD SWAP1 DUP2 MSTORE PUSH1 0x20 ADD PUSH1 0x0 KECCAK256 PUSH1 0x11 ADD DUP7 DUP2 SLOAD DUP2 LT PUSH2 0x15FE JUMPI PUSH2 0x15FD PUSH2 0x2737 JUMP JUMPDEST JUMPDEST SWAP1 PUSH1 0x0 MSTORE PUSH1 0x20 PUSH1 0x0 KECCAK256 SWAP1 PUSH1 0x5 MUL ADD PUSH1 0x1 ADD PUSH1 0x0 DUP1 CALLER PUSH20 0xFFFFFFFFFFFFFFFFFFFFFFFFFFFFFFFFFFFFFFFF AND PUSH20 0xFFFFFFFFFFFFFFFFFFFFFFFFFFFFFFFFFFFFFFFF AND DUP2 MSTORE PUSH1 0x20 ADD SWAP1 DUP2 MSTORE PUSH1 0x20 ADD PUSH1 0x0 KECCAK256 PUSH1 0x11 ADD DUP8 DUP2 SLOAD DUP2 LT PUSH2 0x1662 JUMPI PUSH2 0x1661 PUSH2 0x2737 JUMP JUMPDEST JUMPDEST SWAP1 PUSH1 0x0 MSTORE PUSH1 0x20 PUSH1 0x0 KECCAK256 SWAP1 PUSH1 0x5 MUL ADD PUSH1 0x2 ADD PUSH1 0x0 DUP1 CALLER PUSH20 0xFFFFFFFFFFFFFFFFFFFFFFFFFFFFFFFFFFFFFFFF AND PUSH20 0xFFFFFFFFFFFFFFFFFFFFFFFFFFFFFFFFFFFFFFFF AND DUP2 MSTORE PUSH1 0x20 ADD SWAP1 DUP2 MSTORE PUSH1 0x20 ADD PUSH1 0x0 KECCAK256 PUSH1 0x11 ADD DUP9 DUP2 SLOAD DUP2 LT PUSH2 0x16C6 JUMPI PUSH2 0x16C5 PUSH2 0x2737 JUMP JUMPDEST JUMPDEST SWAP1 PUSH1 0x0 MSTORE PUSH1 0x20 PUSH1 0x0 KECCAK256 SWAP1 PUSH1 0x5 MUL ADD PUSH1 0x3 ADD DUP4 DUP1 SLOAD PUSH2 0x16E3 SWAP1 PUSH2 0x26A5 JUMP JUMPDEST DUP1 PUSH1 0x1F ADD PUSH1 0x20 DUP1 SWAP2 DIV MUL PUSH1 0x20 ADD PUSH1 0x40 MLOAD SWAP1 DUP2 ADD PUSH1 0x40 MSTORE DUP1 SWAP3 SWAP2 SWAP1 DUP2 DUP2 MSTORE PUSH1 0x20 ADD DUP3 DUP1 SLOAD PUSH2 0x170F SWAP1 PUSH2 0x26A5 JUMP JUMPDEST DUP1 ISZERO PUSH2 0x175C JUMPI DUP1 PUSH1 0x1F LT PUSH2 0x1731 JUMPI PUSH2 0x100 DUP1 DUP4 SLOAD DIV MUL DUP4 MSTORE SWAP2 PUSH1 0x20 ADD SWAP2 PUSH2 0x175C JUMP JUMPDEST DUP3 ADD SWAP2 SWAP1 PUSH1 0x0 MSTORE PUSH1 0x20 PUSH1 0x0 KECCAK256 SWAP1 JUMPDEST DUP2 SLOAD DUP2 MSTORE SWAP1 PUSH1 0x1 ADD SWAP1 PUSH1 0x20 ADD DUP1 DUP4 GT PUSH2 0x173F JUMPI DUP3 SWAP1 SUB PUSH1 0x1F AND DUP3 ADD SWAP2 JUMPDEST POP POP POP POP POP SWAP4 POP DUP3 DUP1 SLOAD PUSH2 0x176F SWAP1 PUSH2 0x26A5 JUMP JUMPDEST DUP1 PUSH1 0x1F ADD PUSH1 0x20 DUP1 SWAP2 DIV MUL PUSH1 0x20 ADD PUSH1 0x40 MLOAD SWAP1 DUP2 ADD PUSH1 0x40 MSTORE DUP1 SWAP3 SWAP2 SWAP1 DUP2 DUP2 MSTORE PUSH1 0x20 ADD DUP3 DUP1 SLOAD PUSH2 0x179B SWAP1 PUSH2 0x26A5 JUMP JUMPDEST DUP1 ISZERO PUSH2 0x17E8 JUMPI DUP1 PUSH1 0x1F LT PUSH2 0x17BD JUMPI PUSH2 0x100 DUP1 DUP4 SLOAD DIV MUL DUP4 MSTORE SWAP2 PUSH1 0x20 ADD SWAP2 PUSH2 0x17E8 JUMP JUMPDEST DUP3 ADD SWAP2 SWAP1 PUSH1 0x0 MSTORE PUSH1 0x20 PUSH1 0x0 KECCAK256 SWAP1 JUMPDEST DUP2 SLOAD DUP2 MSTORE SWAP1 PUSH1 0x1 ADD SWAP1 PUSH1 0x20 ADD DUP1 DUP4 GT PUSH2 0x17CB JUMPI DUP3 SWAP1 SUB PUSH1 0x1F AND DUP3 ADD SWAP2 JUMPDEST POP POP POP POP POP SWAP3 POP DUP2 DUP1 SLOAD PUSH2 0x17FB SWAP1 PUSH2 0x26A5 JUMP JUMPDEST DUP1 PUSH1 0x1F ADD PUSH1 0x20 DUP1 SWAP2 DIV MUL PUSH1 0x20 ADD PUSH1 0x40 MLOAD SWAP1 DUP2 ADD PUSH1 0x40 MSTORE DUP1 SWAP3 SWAP2 SWAP1 DUP2 DUP2 MSTORE PUSH1 0x20 ADD DUP3 DUP1 SLOAD PUSH2 0x1827 SWAP1 PUSH2 0x26A5 JUMP JUMPDEST DUP1 ISZERO PUSH2 0x1874 JUMPI DUP1 PUSH1 0x1F LT PUSH2 0x1849 JUMPI PUSH2 0x100 DUP1 DUP4 SLOAD DIV MUL DUP4 MSTORE SWAP2 PUSH1 0x20 ADD SWAP2 PUSH2 0x1874 JUMP JUMPDEST DUP3 ADD SWAP2 SWAP1 PUSH1 0x0 MSTORE PUSH1 0x20 PUSH1 0x0 KECCAK256 SWAP1 JUMPDEST DUP2 SLOAD DUP2 MSTORE SWAP1 PUSH1 0x1 ADD SWAP1 PUSH1 0x20 ADD DUP1 DUP4 GT PUSH2 0x1857 JUMPI DUP3 SWAP1 SUB PUSH1 0x1F AND DUP3 ADD SWAP2 JUMPDEST POP POP POP POP POP SWAP2 POP DUP1 DUP1 SLOAD PUSH2 0x1887 SWAP1 PUSH2 0x26A5 JUMP JUMPDEST DUP1 PUSH1 0x1F ADD PUSH1 0x20 DUP1 SWAP2 DIV MUL PUSH1 0x20 ADD PUSH1 0x40 MLOAD SWAP1 DUP2 ADD PUSH1 0x40 MSTORE DUP1 SWAP3 SWAP2 SWAP1 DUP2 DUP2 MSTORE PUSH1 0x20 ADD DUP3 DUP1 SLOAD PUSH2 0x18B3 SWAP1 PUSH2 0x26A5 JUMP JUMPDEST DUP1 ISZERO PUSH2 0x1900 JUMPI DUP1 PUSH1 0x1F LT PUSH2 0x18D5 JUMPI PUSH2 0x100 DUP1 DUP4 SLOAD DIV MUL DUP4 MSTORE SWAP2 PUSH1 0x20 ADD SWAP2 PUSH2 0x1900 JUMP JUMPDEST DUP3 ADD SWAP2 SWAP1 PUSH1 0x0 MSTORE PUSH1 0x20 PUSH1 0x0 KECCAK256 SWAP1 JUMPDEST DUP2 SLOAD DUP2 MSTORE SWAP1 PUSH1 0x1 ADD SWAP1 PUSH1 0x20 ADD DUP1 DUP4 GT PUSH2 0x18E3 JUMPI DUP3 SWAP1 SUB PUSH1 0x1F AND DUP3 ADD SWAP2 JUMPDEST POP POP POP POP POP SWAP1 POP SWAP4 POP SWAP4 POP SWAP4 POP SWAP4 POP SWAP2 SWAP4 POP SWAP2 SWAP4 JUMP JUMPDEST PUSH1 0x0 DUP1 CALLER PUSH20 0xFFFFFFFFFFFFFFFFFFFFFFFFFFFFFFFFFFFFFFFF AND PUSH20 0xFFFFFFFFFFFFFFFFFFFFFFFFFFFFFFFFFFFFFFFF AND DUP2 MSTORE PUSH1 0x20 ADD SWAP1 DUP2 MSTORE PUSH1 0x20 ADD PUSH1 0x0 KECCAK256 PUSH1 0x0 DUP1 DUP3 ADD PUSH1 0x0 DUP1 DUP3 ADD PUSH1 0x0 PUSH2 0x196A SWAP2 SWAP1 PUSH2 0x1BD3 JUMP JUMPDEST PUSH1 0x1 DUP3 ADD PUSH1 0x0 PUSH2 0x197A SWAP2 SWAP1 PUSH2 0x1BD3 JUMP JUMPDEST PUSH1 0x2 DUP3 ADD PUSH1 0x0 PUSH2 0x100 EXP DUP2 SLOAD SWAP1 PUSH20 0xFFFFFFFFFFFFFFFFFFFFFFFFFFFFFFFFFFFFFFFF MUL NOT AND SWAP1 SSTORE PUSH1 0x3 DUP3 ADD PUSH1 0x0 PUSH2 0x19B1 SWAP2 SWAP1 PUSH2 0x1BD3 JUMP JUMPDEST PUSH1 0x4 DUP3 ADD PUSH1 0x0 PUSH2 0x19C1 SWAP2 SWAP1 PUSH2 0x1BD3 JUMP JUMPDEST PUSH1 0x5 DUP3 ADD PUSH1 0x0 PUSH2 0x19D1 SWAP2 SWAP1 PUSH2 0x1BD3 JUMP JUMPDEST PUSH1 0x6 DUP3 ADD PUSH1 0x0 PUSH2 0x19E1 SWAP2 SWAP1 PUSH2 0x1BD3 JUMP JUMPDEST PUSH1 0x7 DUP3 ADD PUSH1 0x0 SWAP1 SSTORE POP POP PUSH1 0x8 DUP3 ADD PUSH1 0x0 DUP1 DUP3 ADD PUSH1 0x0 PUSH2 0x1A00 SWAP2 SWAP1 PUSH2 0x1BD3 JUMP JUMPDEST PUSH1 0x1 DUP3 ADD PUSH1 0x0 PUSH2 0x1A10 SWAP2 SWAP1 PUSH2 0x1BD3 JUMP JUMPDEST PUSH1 0x2 DUP3 ADD PUSH1 0x0 PUSH2 0x1A20 SWAP2 SWAP1 PUSH2 0x1BD3 JUMP JUMPDEST PUSH1 0x3 DUP3 ADD PUSH1 0x0 PUSH2 0x1A30 SWAP2 SWAP1 PUSH2 0x1BD3 JUMP JUMPDEST PUSH1 0x4 DUP3 ADD PUSH1 0x0 PUSH2 0x1A40 SWAP2 SWAP1 PUSH2 0x1BD3 JUMP JUMPDEST PUSH1 0x5 DUP3 ADD PUSH1 0x0 PUSH2 0x1A50 SWAP2 SWAP1 PUSH2 0x1BD3 JUMP JUMPDEST POP POP PUSH1 0xE DUP3 ADD PUSH1 0x0 DUP1 DUP3 ADD PUSH1 0x0 PUSH2 0x1A67 SWAP2 SWAP1 PUSH2 0x1A9D JUMP JUMPDEST PUSH1 0x1 DUP3 ADD PUSH1 0x0 PUSH2 0x1A77 SWAP2 SWAP1 PUSH2 0x1A9D JUMP JUMPDEST PUSH1 0x2 DUP3 ADD PUSH1 0x0 PUSH2 0x1A87 SWAP2 SWAP1 PUSH2 0x1A9D JUMP JUMPDEST POP POP PUSH1 0x11 DUP3 ADD PUSH1 0x0 PUSH2 0x1A99 SWAP2 SWAP1 PUSH2 0x1C13 JUMP JUMPDEST POP POP JUMP JUMPDEST POP DUP1 SLOAD PUSH1 0x0 DUP3 SSTORE SWAP1 PUSH1 0x0 MSTORE PUSH1 0x20 PUSH1 0x0 KECCAK256 SWAP1 DUP2 ADD SWAP1 PUSH2 0x1ABB SWAP2 SWAP1 PUSH2 0x1C37 JUMP JUMPDEST POP JUMP JUMPDEST DUP3 DUP1 SLOAD DUP3 DUP3 SSTORE SWAP1 PUSH1 0x0 MSTORE PUSH1 0x20 PUSH1 0x0 KECCAK256 SWAP1 DUP2 ADD SWAP3 DUP3 ISZERO PUSH2 0x1B0D JUMPI SWAP2 PUSH1 0x20 MUL DUP3 ADD JUMPDEST DUP3 DUP2 GT ISZERO PUSH2 0x1B0C JUMPI DUP3 MLOAD DUP3 SWAP1 DUP1 MLOAD SWAP1 PUSH1 0x20 ADD SWAP1 PUSH2 0x1AFC SWAP3 SWAP2 SWAP1 PUSH2 0x1B4D JUMP JUMPDEST POP SWAP2 PUSH1 0x20 ADD SWAP2 SWAP1 PUSH1 0x1 ADD SWAP1 PUSH2 0x1ADE JUMP JUMPDEST JUMPDEST POP SWAP1 POP PUSH2 0x1B1A SWAP2 SWAP1 PUSH2 0x1C37 JUMP JUMPDEST POP SWAP1 JUMP JUMPDEST PUSH1 0x40 MLOAD DUP1 PUSH1 0xA0 ADD PUSH1 0x40 MSTORE DUP1 PUSH1 0x60 DUP2 MSTORE PUSH1 0x20 ADD PUSH1 0x60 DUP2 MSTORE PUSH1 0x20 ADD PUSH1 0x60 DUP2 MSTORE PUSH1 0x20 ADD PUSH1 0x60 DUP2 MSTORE PUSH1 0x20 ADD PUSH1 0x60 DUP2 MSTORE POP SWAP1 JUMP JUMPDEST DUP3 DUP1 SLOAD PUSH2 0x1B59 SWAP1 PUSH2 0x26A5 JUMP JUMPDEST SWAP1 PUSH1 0x0 MSTORE PUSH1 0x20 PUSH1 0x0 KECCAK256 SWAP1 PUSH1 0x1F ADD PUSH1 0x20 SWAP1 DIV DUP2 ADD SWAP3 DUP3 PUSH2 0x1B7B JUMPI PUSH1 0x0 DUP6 SSTORE PUSH2 0x1BC2 JUMP JUMPDEST DUP3 PUSH1 0x1F LT PUSH2 0x1B94 JUMPI DUP1 MLOAD PUSH1 0xFF NOT AND DUP4 DUP1 ADD OR DUP6 SSTORE PUSH2 0x1BC2 JUMP JUMPDEST DUP3 DUP1 ADD PUSH1 0x1 ADD DUP6 SSTORE DUP3 ISZERO PUSH2 0x1BC2 JUMPI SWAP2 DUP3 ADD JUMPDEST DUP3 DUP2 GT ISZERO PUSH2 0x1BC1 JUMPI DUP3 MLOAD DUP3 SSTORE SWAP2 PUSH1 0x20 ADD SWAP2 SWAP1 PUSH1 0x1 ADD SWAP1 PUSH2 0x1BA6 JUMP JUMPDEST JUMPDEST POP SWAP1 POP PUSH2 0x1BCF SWAP2 SWAP1 PUSH2 0x1C5B JUMP JUMPDEST POP SWAP1 JUMP JUMPDEST POP DUP1 SLOAD PUSH2 0x1BDF SWAP1 PUSH2 0x26A5 JUMP JUMPDEST PUSH1 0x0 DUP3 SSTORE DUP1 PUSH1 0x1F LT PUSH2 0x1BF1 JUMPI POP PUSH2 0x1C10 JUMP JUMPDEST PUSH1 0x1F ADD PUSH1 0x20 SWAP1 DIV SWAP1 PUSH1 0x0 MSTORE PUSH1 0x20 PUSH1 0x0 KECCAK256 SWAP1 DUP2 ADD SWAP1 PUSH2 0x1C0F SWAP2 SWAP1 PUSH2 0x1C5B JUMP JUMPDEST JUMPDEST POP JUMP JUMPDEST POP DUP1 SLOAD PUSH1 0x0 DUP3 SSTORE PUSH1 0x5 MUL SWAP1 PUSH1 0x0 MSTORE PUSH1 0x20 PUSH1 0x0 KECCAK256 SWAP1 DUP2 ADD SWAP1 PUSH2 0x1C34 SWAP2 SWAP1 PUSH2 0x1C78 JUMP JUMPDEST POP JUMP JUMPDEST JUMPDEST DUP1 DUP3 GT ISZERO PUSH2 0x1C57 JUMPI PUSH1 0x0 DUP2 DUP2 PUSH2 0x1C4E SWAP2 SWAP1 PUSH2 0x1BD3 JUMP JUMPDEST POP PUSH1 0x1 ADD PUSH2 0x1C38 JUMP JUMPDEST POP SWAP1 JUMP JUMPDEST JUMPDEST DUP1 DUP3 GT ISZERO PUSH2 0x1C74 JUMPI PUSH1 0x0 DUP2 PUSH1 0x0 SWAP1 SSTORE POP PUSH1 0x1 ADD PUSH2 0x1C5C JUMP JUMPDEST POP SWAP1 JUMP JUMPDEST JUMPDEST DUP1 DUP3 GT ISZERO PUSH2 0x1CDB JUMPI PUSH1 0x0 DUP1 DUP3 ADD PUSH1 0x0 PUSH2 0x1C92 SWAP2 SWAP1 PUSH2 0x1BD3 JUMP JUMPDEST PUSH1 0x1 DUP3 ADD PUSH1 0x0 PUSH2 0x1CA2 SWAP2 SWAP1 PUSH2 0x1BD3 JUMP JUMPDEST PUSH1 0x2 DUP3 ADD PUSH1 0x0 PUSH2 0x1CB2 SWAP2 SWAP1 PUSH2 0x1BD3 JUMP JUMPDEST PUSH1 0x3 DUP3 ADD PUSH1 0x0 PUSH2 0x1CC2 SWAP2 SWAP1 PUSH2 0x1BD3 JUMP JUMPDEST PUSH1 0x4 DUP3 ADD PUSH1 0x0 PUSH2 0x1CD2 SWAP2 SWAP1 PUSH2 0x1BD3 JUMP JUMPDEST POP PUSH1 0x5 ADD PUSH2 0x1C79 JUMP JUMPDEST POP SWAP1 JUMP JUMPDEST PUSH1 0x0 PUSH2 0x1CF2 PUSH2 0x1CED DUP5 PUSH2 0x2564 JUMP JUMPDEST PUSH2 0x253F JUMP JUMPDEST SWAP1 POP DUP1 DUP4 DUP3 MSTORE PUSH1 0x20 DUP3 ADD SWAP1 POP DUP3 DUP6 PUSH1 0x20 DUP7 MUL DUP3 ADD GT ISZERO PUSH2 0x1D15 JUMPI PUSH2 0x1D14 PUSH2 0x279A JUMP JUMPDEST JUMPDEST PUSH1 0x0 JUMPDEST DUP6 DUP2 LT ISZERO PUSH2 0x1D63 JUMPI DUP2 CALLDATALOAD PUSH8 0xFFFFFFFFFFFFFFFF DUP2 GT ISZERO PUSH2 0x1D3B JUMPI PUSH2 0x1D3A PUSH2 0x2795 JUMP JUMPDEST JUMPDEST DUP1 DUP7 ADD PUSH2 0x1D48 DUP10 DUP3 PUSH2 0x1DF2 JUMP JUMPDEST DUP6 MSTORE PUSH1 0x20 DUP6 ADD SWAP5 POP PUSH1 0x20 DUP5 ADD SWAP4 POP POP POP PUSH1 0x1 DUP2 ADD SWAP1 POP PUSH2 0x1D18 JUMP JUMPDEST POP POP POP SWAP4 SWAP3 POP POP POP JUMP JUMPDEST PUSH1 0x0 PUSH2 0x1D80 PUSH2 0x1D7B DUP5 PUSH2 0x2590 JUMP JUMPDEST PUSH2 0x253F JUMP JUMPDEST SWAP1 POP DUP3 DUP2 MSTORE PUSH1 0x20 DUP2 ADD DUP5 DUP5 DUP5 ADD GT ISZERO PUSH2 0x1D9C JUMPI PUSH2 0x1D9B PUSH2 0x279F JUMP JUMPDEST JUMPDEST PUSH2 0x1DA7 DUP5 DUP3 DUP6 PUSH2 0x2663 JUMP JUMPDEST POP SWAP4 SWAP3 POP POP POP JUMP JUMPDEST PUSH1 0x0 DUP2 CALLDATALOAD SWAP1 POP PUSH2 0x1DBE DUP2 PUSH2 0x27BF JUMP JUMPDEST SWAP3 SWAP2 POP POP JUMP JUMPDEST PUSH1 0x0 DUP3 PUSH1 0x1F DUP4 ADD SLT PUSH2 0x1DD9 JUMPI PUSH2 0x1DD8 PUSH2 0x2795 JUMP JUMPDEST JUMPDEST DUP2 CALLDATALOAD PUSH2 0x1DE9 DUP5 DUP3 PUSH1 0x20 DUP7 ADD PUSH2 0x1CDF JUMP JUMPDEST SWAP2 POP POP SWAP3 SWAP2 POP POP JUMP JUMPDEST PUSH1 0x0 DUP3 PUSH1 0x1F DUP4 ADD SLT PUSH2 0x1E07 JUMPI PUSH2 0x1E06 PUSH2 0x2795 JUMP JUMPDEST JUMPDEST DUP2 CALLDATALOAD PUSH2 0x1E17 DUP5 DUP3 PUSH1 0x20 DUP7 ADD PUSH2 0x1D6D JUMP JUMPDEST SWAP2 POP POP SWAP3 SWAP2 POP POP JUMP JUMPDEST PUSH1 0x0 DUP2 CALLDATALOAD SWAP1 POP PUSH2 0x1E2F DUP2 PUSH2 0x27D6 JUMP JUMPDEST SWAP3 SWAP2 POP POP JUMP JUMPDEST PUSH1 0x0 PUSH1 0x20 DUP3 DUP5 SUB SLT ISZERO PUSH2 0x1E4B JUMPI PUSH2 0x1E4A PUSH2 0x27A9 JUMP JUMPDEST JUMPDEST PUSH1 0x0 PUSH2 0x1E59 DUP5 DUP3 DUP6 ADD PUSH2 0x1DAF JUMP JUMPDEST SWAP2 POP POP SWAP3 SWAP2 POP POP JUMP JUMPDEST PUSH1 0x0 DUP1 PUSH1 0x0 PUSH1 0x60 DUP5 DUP7 SUB SLT ISZERO PUSH2 0x1E7B JUMPI PUSH2 0x1E7A PUSH2 0x27A9 JUMP JUMPDEST JUMPDEST PUSH1 0x0 DUP5 ADD CALLDATALOAD PUSH8 0xFFFFFFFFFFFFFFFF DUP2 GT ISZERO PUSH2 0x1E99 JUMPI PUSH2 0x1E98 PUSH2 0x27A4 JUMP JUMPDEST JUMPDEST PUSH2 0x1EA5 DUP7 DUP3 DUP8 ADD PUSH2 0x1DC4 JUMP JUMPDEST SWAP4 POP POP PUSH1 0x20 DUP5 ADD CALLDATALOAD PUSH8 0xFFFFFFFFFFFFFFFF DUP2 GT ISZERO PUSH2 0x1EC6 JUMPI PUSH2 0x1EC5 PUSH2 0x27A4 JUMP JUMPDEST JUMPDEST PUSH2 0x1ED2 DUP7 DUP3 DUP8 ADD PUSH2 0x1DC4 JUMP JUMPDEST SWAP3 POP POP PUSH1 0x40 DUP5 ADD CALLDATALOAD PUSH8 0xFFFFFFFFFFFFFFFF DUP2 GT ISZERO PUSH2 0x1EF3 JUMPI PUSH2 0x1EF2 PUSH2 0x27A4 JUMP JUMPDEST JUMPDEST PUSH2 0x1EFF DUP7 DUP3 DUP8 ADD PUSH2 0x1DC4 JUMP JUMPDEST SWAP2 POP POP SWAP3 POP SWAP3 POP SWAP3 JUMP JUMPDEST PUSH1 0x0 DUP1 PUSH1 0x0 DUP1 PUSH1 0x0 PUSH1 0xA0 DUP7 DUP9 SUB SLT ISZERO PUSH2 0x1F25 JUMPI PUSH2 0x1F24 PUSH2 0x27A9 JUMP JUMPDEST JUMPDEST PUSH1 0x0 DUP7 ADD CALLDATALOAD PUSH8 0xFFFFFFFFFFFFFFFF DUP2 GT ISZERO PUSH2 0x1F43 JUMPI PUSH2 0x1F42 PUSH2 0x27A4 JUMP JUMPDEST JUMPDEST PUSH2 0x1F4F DUP9 DUP3 DUP10 ADD PUSH2 0x1DF2 JUMP JUMPDEST SWAP6 POP POP PUSH1 0x20 DUP7 ADD CALLDATALOAD PUSH8 0xFFFFFFFFFFFFFFFF DUP2 GT ISZERO PUSH2 0x1F70 JUMPI PUSH2 0x1F6F PUSH2 0x27A4 JUMP JUMPDEST JUMPDEST PUSH2 0x1F7C DUP9 DUP3 DUP10 ADD PUSH2 0x1DF2 JUMP JUMPDEST SWAP5 POP POP PUSH1 0x40 DUP7 ADD CALLDATALOAD PUSH8 0xFFFFFFFFFFFFFFFF DUP2 GT ISZERO PUSH2 0x1F9D JUMPI PUSH2 0x1F9C PUSH2 0x27A4 JUMP JUMPDEST JUMPDEST PUSH2 0x1FA9 DUP9 DUP3 DUP10 ADD PUSH2 0x1DF2 JUMP JUMPDEST SWAP4 POP POP PUSH1 0x60 DUP7 ADD CALLDATALOAD PUSH8 0xFFFFFFFFFFFFFFFF DUP2 GT ISZERO PUSH2 0x1FCA JUMPI PUSH2 0x1FC9 PUSH2 0x27A4 JUMP JUMPDEST JUMPDEST PUSH2 0x1FD6 DUP9 DUP3 DUP10 ADD PUSH2 0x1DF2 JUMP JUMPDEST SWAP3 POP POP PUSH1 0x80 DUP7 ADD CALLDATALOAD PUSH8 0xFFFFFFFFFFFFFFFF DUP2 GT ISZERO PUSH2 0x1FF7 JUMPI PUSH2 0x1FF6 PUSH2 0x27A4 JUMP JUMPDEST JUMPDEST PUSH2 0x2003 DUP9 DUP3 DUP10 ADD PUSH2 0x1DF2 JUMP JUMPDEST SWAP2 POP POP SWAP3 SWAP6 POP SWAP3 SWAP6 SWAP1 SWAP4 POP JUMP JUMPDEST PUSH1 0x0 DUP1 PUSH1 0x0 DUP1 PUSH1 0x0 DUP1 PUSH1 0xC0 DUP8 DUP10 SUB SLT ISZERO PUSH2 0x202D JUMPI PUSH2 0x202C PUSH2 0x27A9 JUMP JUMPDEST JUMPDEST PUSH1 0x0 DUP8 ADD CALLDATALOAD PUSH8 0xFFFFFFFFFFFFFFFF DUP2 GT ISZERO PUSH2 0x204B JUMPI PUSH2 0x204A PUSH2 0x27A4 JUMP JUMPDEST JUMPDEST PUSH2 0x2057 DUP10 DUP3 DUP11 ADD PUSH2 0x1DF2 JUMP JUMPDEST SWAP7 POP POP PUSH1 0x20 DUP8 ADD CALLDATALOAD PUSH8 0xFFFFFFFFFFFFFFFF DUP2 GT ISZERO PUSH2 0x2078 JUMPI PUSH2 0x2077 PUSH2 0x27A4 JUMP JUMPDEST JUMPDEST PUSH2 0x2084 DUP10 DUP3 DUP11 ADD PUSH2 0x1DF2 JUMP JUMPDEST SWAP6 POP POP PUSH1 0x40 DUP8 ADD CALLDATALOAD PUSH8 0xFFFFFFFFFFFFFFFF DUP2 GT ISZERO PUSH2 0x20A5 JUMPI PUSH2 0x20A4 PUSH2 0x27A4 JUMP JUMPDEST JUMPDEST PUSH2 0x20B1 DUP10 DUP3 DUP11 ADD PUSH2 0x1DF2 JUMP JUMPDEST SWAP5 POP POP PUSH1 0x60 DUP8 ADD CALLDATALOAD PUSH8 0xFFFFFFFFFFFFFFFF DUP2 GT ISZERO PUSH2 0x20D2 JUMPI PUSH2 0x20D1 PUSH2 0x27A4 JUMP JUMPDEST JUMPDEST PUSH2 0x20DE DUP10 DUP3 DUP11 ADD PUSH2 0x1DF2 JUMP JUMPDEST SWAP4 POP POP PUSH1 0x80 DUP8 ADD CALLDATALOAD PUSH8 0xFFFFFFFFFFFFFFFF DUP2 GT ISZERO PUSH2 0x20FF JUMPI PUSH2 0x20FE PUSH2 0x27A4 JUMP JUMPDEST JUMPDEST PUSH2 0x210B DUP10 DUP3 DUP11 ADD PUSH2 0x1DF2 JUMP JUMPDEST SWAP3 POP POP PUSH1 0xA0 DUP8 ADD CALLDATALOAD PUSH8 0xFFFFFFFFFFFFFFFF DUP2 GT ISZERO PUSH2 0x212C JUMPI PUSH2 0x212B PUSH2 0x27A4 JUMP JUMPDEST JUMPDEST PUSH2 0x2138 DUP10 DUP3 DUP11 ADD PUSH2 0x1DF2 JUMP JUMPDEST SWAP2 POP POP SWAP3 SWAP6 POP SWAP3 SWAP6 POP SWAP3 SWAP6 JUMP JUMPDEST PUSH1 0x0 PUSH1 0x20 DUP3 DUP5 SUB SLT ISZERO PUSH2 0x215B JUMPI PUSH2 0x215A PUSH2 0x27A9 JUMP JUMPDEST JUMPDEST PUSH1 0x0 PUSH2 0x2169 DUP5 DUP3 DUP6 ADD PUSH2 0x1E20 JUMP JUMPDEST SWAP2 POP POP SWAP3 SWAP2 POP POP JUMP JUMPDEST PUSH1 0x0 PUSH2 0x217E DUP4 DUP4 PUSH2 0x220A JUMP JUMPDEST SWAP1 POP SWAP3 SWAP2 POP POP JUMP JUMPDEST PUSH2 0x218F DUP2 PUSH2 0x2627 JUMP JUMPDEST DUP3 MSTORE POP POP JUMP JUMPDEST PUSH1 0x0 PUSH2 0x21A0 DUP3 PUSH2 0x25D1 JUMP JUMPDEST PUSH2 0x21AA DUP2 DUP6 PUSH2 0x25F4 JUMP JUMPDEST SWAP4 POP DUP4 PUSH1 0x20 DUP3 MUL DUP6 ADD PUSH2 0x21BC DUP6 PUSH2 0x25C1 JUMP JUMPDEST DUP1 PUSH1 0x0 JUMPDEST DUP6 DUP2 LT ISZERO PUSH2 0x21F8 JUMPI DUP5 DUP5 SUB DUP10 MSTORE DUP2 MLOAD PUSH2 0x21D9 DUP6 DUP3 PUSH2 0x2172 JUMP JUMPDEST SWAP5 POP PUSH2 0x21E4 DUP4 PUSH2 0x25E7 JUMP JUMPDEST SWAP3 POP PUSH1 0x20 DUP11 ADD SWAP10 POP POP PUSH1 0x1 DUP2 ADD SWAP1 POP PUSH2 0x21C0 JUMP JUMPDEST POP DUP3 SWAP8 POP DUP8 SWAP6 POP POP POP POP POP POP SWAP3 SWAP2 POP POP JUMP JUMPDEST PUSH1 0x0 PUSH2 0x2215 DUP3 PUSH2 0x25DC JUMP JUMPDEST PUSH2 0x221F DUP2 DUP6 PUSH2 0x2605 JUMP JUMPDEST SWAP4 POP PUSH2 0x222F DUP2 DUP6 PUSH1 0x20 DUP7 ADD PUSH2 0x2672 JUMP JUMPDEST PUSH2 0x2238 DUP2 PUSH2 0x27AE JUMP JUMPDEST DUP5 ADD SWAP2 POP POP SWAP3 SWAP2 POP POP JUMP JUMPDEST PUSH1 0x0 PUSH2 0x224E DUP3 PUSH2 0x25DC JUMP JUMPDEST PUSH2 0x2258 DUP2 DUP6 PUSH2 0x2616 JUMP JUMPDEST SWAP4 POP PUSH2 0x2268 DUP2 DUP6 PUSH1 0x20 DUP7 ADD PUSH2 0x2672 JUMP JUMPDEST PUSH2 0x2271 DUP2 PUSH2 0x27AE JUMP JUMPDEST DUP5 ADD SWAP2 POP POP SWAP3 SWAP2 POP POP JUMP JUMPDEST PUSH1 0x0 PUSH1 0xC0 DUP4 ADD PUSH1 0x0 DUP4 ADD MLOAD DUP5 DUP3 SUB PUSH1 0x0 DUP7 ADD MSTORE PUSH2 0x2299 DUP3 DUP3 PUSH2 0x220A JUMP JUMPDEST SWAP2 POP POP PUSH1 0x20 DUP4 ADD MLOAD DUP5 DUP3 SUB PUSH1 0x20 DUP7 ADD MSTORE PUSH2 0x22B3 DUP3 DUP3 PUSH2 0x220A JUMP JUMPDEST SWAP2 POP POP PUSH1 0x40 DUP4 ADD MLOAD DUP5 DUP3 SUB PUSH1 0x40 DUP7 ADD MSTORE PUSH2 0x22CD DUP3 DUP3 PUSH2 0x220A JUMP JUMPDEST SWAP2 POP POP PUSH1 0x60 DUP4 ADD MLOAD DUP5 DUP3 SUB PUSH1 0x60 DUP7 ADD MSTORE PUSH2 0x22E7 DUP3 DUP3 PUSH2 0x220A JUMP JUMPDEST SWAP2 POP POP PUSH1 0x80 DUP4 ADD MLOAD DUP5 DUP3 SUB PUSH1 0x80 DUP7 ADD MSTORE PUSH2 0x2301 DUP3 DUP3 PUSH2 0x220A JUMP JUMPDEST SWAP2 POP POP PUSH1 0xA0 DUP4 ADD MLOAD DUP5 DUP3 SUB PUSH1 0xA0 DUP7 ADD MSTORE PUSH2 0x231B DUP3 DUP3 PUSH2 0x220A JUMP JUMPDEST SWAP2 POP POP DUP1 SWAP2 POP POP SWAP3 SWAP2 POP POP JUMP JUMPDEST PUSH1 0x0 PUSH2 0x100 DUP4 ADD PUSH1 0x0 DUP4 ADD MLOAD DUP5 DUP3 SUB PUSH1 0x0 DUP7 ADD MSTORE PUSH2 0x2346 DUP3 DUP3 PUSH2 0x220A JUMP JUMPDEST SWAP2 POP POP PUSH1 0x20 DUP4 ADD MLOAD DUP5 DUP3 SUB PUSH1 0x20 DUP7 ADD MSTORE PUSH2 0x2360 DUP3 DUP3 PUSH2 0x220A JUMP JUMPDEST SWAP2 POP POP PUSH1 0x40 DUP4 ADD MLOAD PUSH2 0x2375 PUSH1 0x40 DUP7 ADD DUP3 PUSH2 0x2186 JUMP JUMPDEST POP PUSH1 0x60 DUP4 ADD MLOAD DUP5 DUP3 SUB PUSH1 0x60 DUP7 ADD MSTORE PUSH2 0x238D DUP3 DUP3 PUSH2 0x220A JUMP JUMPDEST SWAP2 POP POP PUSH1 0x80 DUP4 ADD MLOAD DUP5 DUP3 SUB PUSH1 0x80 DUP7 ADD MSTORE PUSH2 0x23A7 DUP3 DUP3 PUSH2 0x220A JUMP JUMPDEST SWAP2 POP POP PUSH1 0xA0 DUP4 ADD MLOAD DUP5 DUP3 SUB PUSH1 0xA0 DUP7 ADD MSTORE PUSH2 0x23C1 DUP3 DUP3 PUSH2 0x220A JUMP JUMPDEST SWAP2 POP POP PUSH1 0xC0 DUP4 ADD MLOAD DUP5 DUP3 SUB PUSH1 0xC0 DUP7 ADD MSTORE PUSH2 0x23DB DUP3 DUP3 PUSH2 0x220A JUMP JUMPDEST SWAP2 POP POP PUSH1 0xE0 DUP4 ADD MLOAD PUSH2 0x23F0 PUSH1 0xE0 DUP7 ADD DUP3 PUSH2 0x2459 JUMP JUMPDEST POP DUP1 SWAP2 POP POP SWAP3 SWAP2 POP POP JUMP JUMPDEST PUSH1 0x0 PUSH1 0x60 DUP4 ADD PUSH1 0x0 DUP4 ADD MLOAD DUP5 DUP3 SUB PUSH1 0x0 DUP7 ADD MSTORE PUSH2 0x2418 DUP3 DUP3 PUSH2 0x2195 JUMP JUMPDEST SWAP2 POP POP PUSH1 0x20 DUP4 ADD MLOAD DUP5 DUP3 SUB PUSH1 0x20 DUP7 ADD MSTORE PUSH2 0x2432 DUP3 DUP3 PUSH2 0x2195 JUMP JUMPDEST SWAP2 POP POP PUSH1 0x40 DUP4 ADD MLOAD DUP5 DUP3 SUB PUSH1 0x40 DUP7 ADD MSTORE PUSH2 0x244C DUP3 DUP3 PUSH2 0x2195 JUMP JUMPDEST SWAP2 POP POP DUP1 SWAP2 POP POP SWAP3 SWAP2 POP POP JUMP JUMPDEST PUSH2 0x2462 DUP2 PUSH2 0x2659 JUMP JUMPDEST DUP3 MSTORE POP POP JUMP JUMPDEST PUSH2 0x2471 DUP2 PUSH2 0x2659 JUMP JUMPDEST DUP3 MSTORE POP POP JUMP JUMPDEST PUSH1 0x0 PUSH1 0x80 DUP3 ADD SWAP1 POP DUP2 DUP2 SUB PUSH1 0x0 DUP4 ADD MSTORE PUSH2 0x2491 DUP2 DUP8 PUSH2 0x2243 JUMP JUMPDEST SWAP1 POP DUP2 DUP2 SUB PUSH1 0x20 DUP4 ADD MSTORE PUSH2 0x24A5 DUP2 DUP7 PUSH2 0x2243 JUMP JUMPDEST SWAP1 POP DUP2 DUP2 SUB PUSH1 0x40 DUP4 ADD MSTORE PUSH2 0x24B9 DUP2 DUP6 PUSH2 0x2243 JUMP JUMPDEST SWAP1 POP DUP2 DUP2 SUB PUSH1 0x60 DUP4 ADD MSTORE PUSH2 0x24CD DUP2 DUP5 PUSH2 0x2243 JUMP JUMPDEST SWAP1 POP SWAP6 SWAP5 POP POP POP POP POP JUMP JUMPDEST PUSH1 0x0 PUSH1 0x60 DUP3 ADD SWAP1 POP DUP2 DUP2 SUB PUSH1 0x0 DUP4 ADD MSTORE PUSH2 0x24F2 DUP2 DUP7 PUSH2 0x2328 JUMP JUMPDEST SWAP1 POP DUP2 DUP2 SUB PUSH1 0x20 DUP4 ADD MSTORE PUSH2 0x2506 DUP2 DUP6 PUSH2 0x227C JUMP JUMPDEST SWAP1 POP DUP2 DUP2 SUB PUSH1 0x40 DUP4 ADD MSTORE PUSH2 0x251A DUP2 DUP5 PUSH2 0x23FB JUMP JUMPDEST SWAP1 POP SWAP5 SWAP4 POP POP POP POP JUMP JUMPDEST PUSH1 0x0 PUSH1 0x20 DUP3 ADD SWAP1 POP PUSH2 0x2539 PUSH1 0x0 DUP4 ADD DUP5 PUSH2 0x2468 JUMP JUMPDEST SWAP3 SWAP2 POP POP JUMP JUMPDEST PUSH1 0x0 PUSH2 0x2549 PUSH2 0x255A JUMP JUMPDEST SWAP1 POP PUSH2 0x2555 DUP3 DUP3 PUSH2 0x26D7 JUMP JUMPDEST SWAP2 SWAP1 POP JUMP JUMPDEST PUSH1 0x0 PUSH1 0x40 MLOAD SWAP1 POP SWAP1 JUMP JUMPDEST PUSH1 0x0 PUSH8 0xFFFFFFFFFFFFFFFF DUP3 GT ISZERO PUSH2 0x257F JUMPI PUSH2 0x257E PUSH2 0x2766 JUMP JUMPDEST JUMPDEST PUSH1 0x20 DUP3 MUL SWAP1 POP PUSH1 0x20 DUP2 ADD SWAP1 POP SWAP2 SWAP1 POP JUMP JUMPDEST PUSH1 0x0 PUSH8 0xFFFFFFFFFFFFFFFF DUP3 GT ISZERO PUSH2 0x25AB JUMPI PUSH2 0x25AA PUSH2 0x2766 JUMP JUMPDEST JUMPDEST PUSH2 0x25B4 DUP3 PUSH2 0x27AE JUMP JUMPDEST SWAP1 POP PUSH1 0x20 DUP2 ADD SWAP1 POP SWAP2 SWAP1 POP JUMP JUMPDEST PUSH1 0x0 DUP2 SWAP1 POP PUSH1 0x20 DUP3 ADD SWAP1 POP SWAP2 SWAP1 POP JUMP JUMPDEST PUSH1 0x0 DUP2 MLOAD SWAP1 POP SWAP2 SWAP1 POP JUMP JUMPDEST PUSH1 0x0 DUP2 MLOAD SWAP1 POP SWAP2 SWAP1 POP JUMP JUMPDEST PUSH1 0x0 PUSH1 0x20 DUP3 ADD SWAP1 POP SWAP2 SWAP1 POP JUMP JUMPDEST PUSH1 0x0 DUP3 DUP3 MSTORE PUSH1 0x20 DUP3 ADD SWAP1 POP SWAP3 SWAP2 POP POP JUMP JUMPDEST PUSH1 0x0 DUP3 DUP3 MSTORE PUSH1 0x20 DUP3 ADD SWAP1 POP SWAP3 SWAP2 POP POP JUMP JUMPDEST PUSH1 0x0 DUP3 DUP3 MSTORE PUSH1 0x20 DUP3 ADD SWAP1 POP SWAP3 SWAP2 POP POP JUMP JUMPDEST PUSH1 0x0 PUSH2 0x2632 DUP3 PUSH2 0x2639 JUMP JUMPDEST SWAP1 POP SWAP2 SWAP1 POP JUMP JUMPDEST PUSH1 0x0 PUSH20 0xFFFFFFFFFFFFFFFFFFFFFFFFFFFFFFFFFFFFFFFF DUP3 AND SWAP1 POP SWAP2 SWAP1 POP JUMP JUMPDEST PUSH1 0x0 DUP2 SWAP1 POP SWAP2 SWAP1 POP JUMP JUMPDEST DUP3 DUP2 DUP4 CALLDATACOPY PUSH1 0x0 DUP4 DUP4 ADD MSTORE POP POP POP JUMP JUMPDEST PUSH1 0x0 JUMPDEST DUP4 DUP2 LT ISZERO PUSH2 0x2690 JUMPI DUP1 DUP3 ADD MLOAD DUP2 DUP5 ADD MSTORE PUSH1 0x20 DUP2 ADD SWAP1 POP PUSH2 0x2675 JUMP JUMPDEST DUP4 DUP2 GT ISZERO PUSH2 0x269F JUMPI PUSH1 0x0 DUP5 DUP5 ADD MSTORE JUMPDEST POP POP POP POP JUMP JUMPDEST PUSH1 0x0 PUSH1 0x2 DUP3 DIV SWAP1 POP PUSH1 0x1 DUP3 AND DUP1 PUSH2 0x26BD JUMPI PUSH1 0x7F DUP3 AND SWAP2 POP JUMPDEST PUSH1 0x20 DUP3 LT DUP2 EQ ISZERO PUSH2 0x26D1 JUMPI PUSH2 0x26D0 PUSH2 0x2708 JUMP JUMPDEST JUMPDEST POP SWAP2 SWAP1 POP JUMP JUMPDEST PUSH2 0x26E0 DUP3 PUSH2 0x27AE JUMP JUMPDEST DUP2 ADD DUP2 DUP2 LT PUSH8 0xFFFFFFFFFFFFFFFF DUP3 GT OR ISZERO PUSH2 0x26FF JUMPI PUSH2 0x26FE PUSH2 0x2766 JUMP JUMPDEST JUMPDEST DUP1 PUSH1 0x40 MSTORE POP POP POP JUMP JUMPDEST PUSH32 0x4E487B7100000000000000000000000000000000000000000000000000000000 PUSH1 0x0 MSTORE PUSH1 0x22 PUSH1 0x4 MSTORE PUSH1 0x24 PUSH1 0x0 REVERT JUMPDEST PUSH32 0x4E487B7100000000000000000000000000000000000000000000000000000000 PUSH1 0x0 MSTORE PUSH1 0x32 PUSH1 0x4 MSTORE PUSH1 0x24 PUSH1 0x0 REVERT JUMPDEST PUSH32 0x4E487B7100000000000000000000000000000000000000000000000000000000 PUSH1 0x0 MSTORE PUSH1 0x41 PUSH1 0x4 MSTORE PUSH1 0x24 PUSH1 0x0 REVERT JUMPDEST PUSH1 0x0 DUP1 REVERT JUMPDEST PUSH1 0x0 DUP1 REVERT JUMPDEST PUSH1 0x0 DUP1 REVERT JUMPDEST PUSH1 0x0 DUP1 REVERT JUMPDEST PUSH1 0x0 DUP1 REVERT JUMPDEST PUSH1 0x0 PUSH1 0x1F NOT PUSH1 0x1F DUP4 ADD AND SWAP1 POP SWAP2 SWAP1 POP JUMP JUMPDEST PUSH2 0x27C8 DUP2 PUSH2 0x2627 JUMP JUMPDEST DUP2 EQ PUSH2 0x27D3 JUMPI PUSH1 0x0 DUP1 REVERT JUMPDEST POP JUMP JUMPDEST PUSH2 0x27DF DUP2 PUSH2 0x2659 JUMP JUMPDEST DUP2 EQ PUSH2 0x27EA JUMPI PUSH1 0x0 DUP1 REVERT JUMPDEST POP JUMP INVALID LOG2 PUSH5 0x6970667358 0x22 SLT KECCAK256 SWAP7 0x2F SWAP9 SLT SWAP4 CALLDATACOPY PUSH30 0x4CD9DF6EB7526BBA9674644FA2ADEDC6E3B21CE72FFD3ACE0164736F6C63 NUMBER STOP ADDMOD SMOD STOP CALLER "
				},
				"gasEstimates": {
					"creation": {
						"codeDepositCost": "2055000",
						"executionCost": "2185",
						"totalCost": "2057185"
					},
					"external": {
						"createContract(string,string,string,string,string)": "infinite",
						"createInformation(string,string,string,string,string,string)": "infinite",
						"createSkill(string[],string[],string[])": "infinite",
						"createUnivercity(string,string,string,string,string)": "infinite",
						"delAllEducation()": "infinite",
						"delInformaion()": "infinite",
						"delProfile()": "infinite",
						"getEducation(uint256)": "infinite",
						"getEducationCount()": "2563",
						"profile(address)": "infinite"
					}
				},
				"methodIdentifiers": {
					"createContract(string,string,string,string,string)": "72828388",
					"createInformation(string,string,string,string,string,string)": "958791ae",
					"createSkill(string[],string[],string[])": "3d984d0e",
					"createUnivercity(string,string,string,string,string)": "66244dfb",
					"delAllEducation()": "ed2217ef",
					"delInformaion()": "95ea3757",
					"delProfile()": "fabce08f",
					"getEducation(uint256)": "f96e32f8",
					"getEducationCount()": "6212fa02",
					"profile(address)": "9dd9d0fd"
				}
			},
			"storageLayout": {
				"storage": [
					{
						"astId": 20,
						"contract": "contracts/Profile.sol:Profile",
						"label": "profile",
						"offset": 0,
						"slot": "0",
						"type": "t_mapping(t_address,t_struct(Bio)15_storage)"
					}
				],
				"types": {
					"t_address": {
						"encoding": "inplace",
						"label": "address",
						"numberOfBytes": "20"
					},
					"t_array(t_string_storage)dyn_storage": {
						"base": "t_string_storage",
						"encoding": "dynamic_array",
						"label": "string[]",
						"numberOfBytes": "32"
					},
					"t_array(t_struct(Education)71_storage)dyn_storage": {
						"base": "t_struct(Education)71_storage",
						"encoding": "dynamic_array",
						"label": "struct Profile.Education[]",
						"numberOfBytes": "32"
					},
					"t_mapping(t_address,t_struct(Bio)15_storage)": {
						"encoding": "mapping",
						"key": "t_address",
						"label": "mapping(address => struct Profile.Bio)",
						"numberOfBytes": "32",
						"value": "t_struct(Bio)15_storage"
					},
					"t_string_storage": {
						"encoding": "bytes",
						"label": "string",
						"numberOfBytes": "32"
					},
					"t_struct(Bio)15_storage": {
						"encoding": "inplace",
						"label": "struct Profile.Bio",
						"members": [
							{
								"astId": 4,
								"contract": "contracts/Profile.sol:Profile",
								"label": "information",
								"offset": 0,
								"slot": "0",
								"type": "t_struct(Information)37_storage"
							},
							{
								"astId": 7,
								"contract": "contracts/Profile.sol:Profile",
								"label": "privateContract",
								"offset": 0,
								"slot": "8",
								"type": "t_struct(Contract)50_storage"
							},
							{
								"astId": 10,
								"contract": "contracts/Profile.sol:Profile",
								"label": "skill",
								"offset": 0,
								"slot": "14",
								"type": "t_struct(Skill)60_storage"
							},
							{
								"astId": 14,
								"contract": "contracts/Profile.sol:Profile",
								"label": "education",
								"offset": 0,
								"slot": "17",
								"type": "t_array(t_struct(Education)71_storage)dyn_storage"
							}
						],
						"numberOfBytes": "576"
					},
					"t_struct(Contract)50_storage": {
						"encoding": "inplace",
						"label": "struct Profile.Contract",
						"members": [
							{
								"astId": 39,
								"contract": "contracts/Profile.sol:Profile",
								"label": "aboutMe",
								"offset": 0,
								"slot": "0",
								"type": "t_string_storage"
							},
							{
								"astId": 41,
								"contract": "contracts/Profile.sol:Profile",
								"label": "email",
								"offset": 0,
								"slot": "1",
								"type": "t_string_storage"
							},
							{
								"astId": 43,
								"contract": "contracts/Profile.sol:Profile",
								"label": "phone",
								"offset": 0,
								"slot": "2",
								"type": "t_string_storage"
							},
							{
								"astId": 45,
								"contract": "contracts/Profile.sol:Profile",
								"label": "github",
								"offset": 0,
								"slot": "3",
								"type": "t_string_storage"
							},
							{
								"astId": 47,
								"contract": "contracts/Profile.sol:Profile",
								"label": "gitlab",
								"offset": 0,
								"slot": "4",
								"type": "t_string_storage"
							},
							{
								"astId": 49,
								"contract": "contracts/Profile.sol:Profile",
								"label": "linkin",
								"offset": 0,
								"slot": "5",
								"type": "t_string_storage"
							}
						],
						"numberOfBytes": "192"
					},
					"t_struct(Education)71_storage": {
						"encoding": "inplace",
						"label": "struct Profile.Education",
						"members": [
							{
								"astId": 62,
								"contract": "contracts/Profile.sol:Profile",
								"label": "startDate",
								"offset": 0,
								"slot": "0",
								"type": "t_string_storage"
							},
							{
								"astId": 64,
								"contract": "contracts/Profile.sol:Profile",
								"label": "endDate",
								"offset": 0,
								"slot": "1",
								"type": "t_string_storage"
							},
							{
								"astId": 66,
								"contract": "contracts/Profile.sol:Profile",
								"label": "univercity",
								"offset": 0,
								"slot": "2",
								"type": "t_string_storage"
							},
							{
								"astId": 68,
								"contract": "contracts/Profile.sol:Profile",
								"label": "major",
								"offset": 0,
								"slot": "3",
								"type": "t_string_storage"
							},
							{
								"astId": 70,
								"contract": "contracts/Profile.sol:Profile",
								"label": "finalProject",
								"offset": 0,
								"slot": "4",
								"type": "t_string_storage"
							}
						],
						"numberOfBytes": "160"
					},
					"t_struct(Information)37_storage": {
						"encoding": "inplace",
						"label": "struct Profile.Information",
						"members": [
							{
								"astId": 22,
								"contract": "contracts/Profile.sol:Profile",
								"label": "aboutMe",
								"offset": 0,
								"slot": "0",
								"type": "t_string_storage"
							},
							{
								"astId": 24,
								"contract": "contracts/Profile.sol:Profile",
								"label": "position",
								"offset": 0,
								"slot": "1",
								"type": "t_string_storage"
							},
							{
								"astId": 26,
								"contract": "contracts/Profile.sol:Profile",
								"label": "userAddress",
								"offset": 0,
								"slot": "2",
								"type": "t_address"
							},
							{
								"astId": 28,
								"contract": "contracts/Profile.sol:Profile",
								"label": "firstName",
								"offset": 0,
								"slot": "3",
								"type": "t_string_storage"
							},
							{
								"astId": 30,
								"contract": "contracts/Profile.sol:Profile",
								"label": "middleName",
								"offset": 0,
								"slot": "4",
								"type": "t_string_storage"
							},
							{
								"astId": 32,
								"contract": "contracts/Profile.sol:Profile",
								"label": "lastName",
								"offset": 0,
								"slot": "5",
								"type": "t_string_storage"
							},
							{
								"astId": 34,
								"contract": "contracts/Profile.sol:Profile",
								"label": "profileImage",
								"offset": 0,
								"slot": "6",
								"type": "t_string_storage"
							},
							{
								"astId": 36,
								"contract": "contracts/Profile.sol:Profile",
								"label": "createDate",
								"offset": 0,
								"slot": "7",
								"type": "t_uint256"
							}
						],
						"numberOfBytes": "256"
					},
					"t_struct(Skill)60_storage": {
						"encoding": "inplace",
						"label": "struct Profile.Skill",
						"members": [
							{
								"astId": 53,
								"contract": "contracts/Profile.sol:Profile",
								"label": "programmingLanguages",
								"offset": 0,
								"slot": "0",
								"type": "t_array(t_string_storage)dyn_storage"
							},
							{
								"astId": 56,
								"contract": "contracts/Profile.sol:Profile",
								"label": "framework",
								"offset": 0,
								"slot": "1",
								"type": "t_array(t_string_storage)dyn_storage"
							},
							{
								"astId": 59,
								"contract": "contracts/Profile.sol:Profile",
								"label": "databaseAndOther",
								"offset": 0,
								"slot": "2",
								"type": "t_array(t_string_storage)dyn_storage"
							}
						],
						"numberOfBytes": "96"
					},
					"t_uint256": {
						"encoding": "inplace",
						"label": "uint256",
						"numberOfBytes": "32"
					}
				}
			},
			"userdoc": {
				"kind": "user",
				"methods": {},
				"version": 1
			}
		}
	}
}