{
	"contracts/Profile.sol": {
		"Profile": {
			"abi": [
				{
					"inputs": [
						{
							"internalType": "string[]",
							"name": "award",
							"type": "string[]"
						},
						{
							"internalType": "string[]",
							"name": "certificate",
							"type": "string[]"
						}
					],
					"name": "createAward",
					"outputs": [],
					"stateMutability": "nonpayable",
					"type": "function"
				},
				{
					"inputs": [
						{
							"internalType": "string",
							"name": "companyName",
							"type": "string"
						},
						{
							"internalType": "string",
							"name": "position",
							"type": "string"
						},
						{
							"internalType": "string",
							"name": "startDate",
							"type": "string"
						},
						{
							"internalType": "string",
							"name": "endDate",
							"type": "string"
						},
						{
							"internalType": "string[]",
							"name": "project",
							"type": "string[]"
						}
					],
					"name": "createCompanyExperience",
					"outputs": [],
					"stateMutability": "nonpayable",
					"type": "function"
				},
				{
					"inputs": [
						{
							"internalType": "string",
							"name": "email",
							"type": "string"
						},
						{
							"internalType": "string",
							"name": "phone",
							"type": "string"
						},
						{
							"internalType": "string",
							"name": "github",
							"type": "string"
						},
						{
							"internalType": "string",
							"name": "gitlab",
							"type": "string"
						},
						{
							"internalType": "string",
							"name": "linkin",
							"type": "string"
						}
					],
					"name": "createContract",
					"outputs": [],
					"stateMutability": "nonpayable",
					"type": "function"
				},
				{
					"inputs": [
						{
							"internalType": "string",
							"name": "projectName",
							"type": "string"
						},
						{
							"internalType": "string",
							"name": "Detail",
							"type": "string"
						}
					],
					"name": "createFreelanceExperience",
					"outputs": [],
					"stateMutability": "nonpayable",
					"type": "function"
				},
				{
					"inputs": [
						{
							"internalType": "string",
							"name": "firstName",
							"type": "string"
						},
						{
							"internalType": "string",
							"name": "middleName",
							"type": "string"
						},
						{
							"internalType": "string",
							"name": "lastName",
							"type": "string"
						},
						{
							"internalType": "string",
							"name": "profileImage",
							"type": "string"
						},
						{
							"internalType": "string",
							"name": "aboutMe",
							"type": "string"
						},
						{
							"internalType": "string",
							"name": "position",
							"type": "string"
						}
					],
					"name": "createInformation",
					"outputs": [],
					"stateMutability": "nonpayable",
					"type": "function"
				},
				{
					"inputs": [
						{
							"internalType": "string[]",
							"name": "programmingLanguages",
							"type": "string[]"
						},
						{
							"internalType": "string[]",
							"name": "framework",
							"type": "string[]"
						},
						{
							"internalType": "string[]",
							"name": "databaseAndOther",
							"type": "string[]"
						}
					],
					"name": "createSkill",
					"outputs": [],
					"stateMutability": "nonpayable",
					"type": "function"
				},
				{
					"inputs": [
						{
							"internalType": "string",
							"name": "startDate",
							"type": "string"
						},
						{
							"internalType": "string",
							"name": "endDate",
							"type": "string"
						},
						{
							"internalType": "string",
							"name": "univercity",
							"type": "string"
						},
						{
							"internalType": "string",
							"name": "major",
							"type": "string"
						},
						{
							"internalType": "string",
							"name": "finalProject",
							"type": "string"
						}
					],
					"name": "createUnivercity",
					"outputs": [],
					"stateMutability": "nonpayable",
					"type": "function"
				},
				{
					"inputs": [],
					"name": "delAllEducation",
					"outputs": [],
					"stateMutability": "nonpayable",
					"type": "function"
				},
				{
					"inputs": [],
					"name": "delCertificateAndAward",
					"outputs": [],
					"stateMutability": "nonpayable",
					"type": "function"
				},
				{
					"inputs": [],
					"name": "delCompanyExperience",
					"outputs": [],
					"stateMutability": "nonpayable",
					"type": "function"
				},
				{
					"inputs": [],
					"name": "delFreelanceExperience",
					"outputs": [],
					"stateMutability": "nonpayable",
					"type": "function"
				},
				{
					"inputs": [],
					"name": "delInformaion",
					"outputs": [],
					"stateMutability": "nonpayable",
					"type": "function"
				},
				{
					"inputs": [],
					"name": "delProfile",
					"outputs": [],
					"stateMutability": "nonpayable",
					"type": "function"
				},
				{
					"inputs": [
						{
							"internalType": "uint256",
							"name": "index",
							"type": "uint256"
						}
					],
					"name": "getEducation",
					"outputs": [
						{
							"internalType": "string",
							"name": "",
							"type": "string"
						},
						{
							"internalType": "string",
							"name": "",
							"type": "string"
						},
						{
							"internalType": "string",
							"name": "",
							"type": "string"
						},
						{
							"internalType": "string",
							"name": "",
							"type": "string"
						},
						{
							"internalType": "string",
							"name": "",
							"type": "string"
						}
					],
					"stateMutability": "view",
					"type": "function"
				},
				{
					"inputs": [],
					"name": "getEducationCount",
					"outputs": [
						{
							"internalType": "uint256",
							"name": "",
							"type": "uint256"
						}
					],
					"stateMutability": "view",
					"type": "function"
				},
				{
					"inputs": [],
					"name": "myBalance",
					"outputs": [
						{
							"internalType": "uint256",
							"name": "",
							"type": "uint256"
						}
					],
					"stateMutability": "view",
					"type": "function"
				},
				{
					"inputs": [
						{
							"internalType": "address",
							"name": "",
							"type": "address"
						}
					],
					"name": "profile",
					"outputs": [
						{
							"components": [
								{
									"internalType": "string",
									"name": "aboutMe",
									"type": "string"
								},
								{
									"internalType": "string",
									"name": "position",
									"type": "string"
								},
								{
									"internalType": "address",
									"name": "userAddress",
									"type": "address"
								},
								{
									"internalType": "string",
									"name": "firstName",
									"type": "string"
								},
								{
									"internalType": "string",
									"name": "middleName",
									"type": "string"
								},
								{
									"internalType": "string",
									"name": "lastName",
									"type": "string"
								},
								{
									"internalType": "string",
									"name": "profileImage",
									"type": "string"
								},
								{
									"internalType": "uint256",
									"name": "createDate",
									"type": "uint256"
								}
							],
							"internalType": "struct Profile.Information",
							"name": "information",
							"type": "tuple"
						},
						{
							"components": [
								{
									"internalType": "string",
									"name": "aboutMe",
									"type": "string"
								},
								{
									"internalType": "string",
									"name": "email",
									"type": "string"
								},
								{
									"internalType": "string",
									"name": "phone",
									"type": "string"
								},
								{
									"internalType": "string",
									"name": "github",
									"type": "string"
								},
								{
									"internalType": "string",
									"name": "gitlab",
									"type": "string"
								},
								{
									"internalType": "string",
									"name": "linkin",
									"type": "string"
								}
							],
							"internalType": "struct Profile.Contract",
							"name": "privateContract",
							"type": "tuple"
						},
						{
							"components": [
								{
									"internalType": "string[]",
									"name": "programmingLanguages",
									"type": "string[]"
								},
								{
									"internalType": "string[]",
									"name": "framework",
									"type": "string[]"
								},
								{
									"internalType": "string[]",
									"name": "databaseAndOther",
									"type": "string[]"
								}
							],
							"internalType": "struct Profile.Skill",
							"name": "skill",
							"type": "tuple"
						},
						{
							"components": [
								{
									"internalType": "string[]",
									"name": "certificate",
									"type": "string[]"
								},
								{
									"internalType": "string[]",
									"name": "award",
									"type": "string[]"
								}
							],
							"internalType": "struct Profile.CertificateAndAward",
							"name": "certificateAndAward",
							"type": "tuple"
						},
						{
							"components": [
								{
									"internalType": "string",
									"name": "companyName",
									"type": "string"
								},
								{
									"internalType": "string",
									"name": "position",
									"type": "string"
								},
								{
									"internalType": "string",
									"name": "startDate",
									"type": "string"
								},
								{
									"internalType": "string",
									"name": "endDate",
									"type": "string"
								},
								{
									"internalType": "string[]",
									"name": "project",
									"type": "string[]"
								}
							],
							"internalType": "struct Profile.CompanyExperience",
							"name": "companyExperience",
							"type": "tuple"
						},
						{
							"components": [
								{
									"internalType": "string",
									"name": "projectName",
									"type": "string"
								},
								{
									"internalType": "string",
									"name": "Detail",
									"type": "string"
								}
							],
							"internalType": "struct Profile.FreelanceExperience",
							"name": "freelanceExperience",
							"type": "tuple"
						}
					],
					"stateMutability": "view",
					"type": "function"
				}
			],
			"devdoc": {
				"kind": "dev",
				"methods": {},
				"version": 1
			},
			"evm": {
				"assembly": "    /* \"contracts/Profile.sol\":60:5914  contract Profile {... */\n  mstore(0x40, 0x80)\n  callvalue\n  dup1\n  iszero\n  tag_1\n  jumpi\n  0x00\n  dup1\n  revert\ntag_1:\n  pop\n  dataSize(sub_0)\n  dup1\n  dataOffset(sub_0)\n  0x00\n  codecopy\n  0x00\n  return\nstop\n\nsub_0: assembly {\n        /* \"contracts/Profile.sol\":60:5914  contract Profile {... */\n      mstore(0x40, 0x80)\n      callvalue\n      dup1\n      iszero\n      tag_1\n      jumpi\n      0x00\n      dup1\n      revert\n    tag_1:\n      pop\n      jumpi(tag_2, lt(calldatasize, 0x04))\n      shr(0xe0, calldataload(0x00))\n      dup1\n      0x72828388\n      gt\n      tag_20\n      jumpi\n      dup1\n      0xb240c619\n      gt\n      tag_21\n      jumpi\n      dup1\n      0xb240c619\n      eq\n      tag_15\n      jumpi\n      dup1\n      0xc9116b69\n      eq\n      tag_16\n      jumpi\n      dup1\n      0xed2217ef\n      eq\n      tag_17\n      jumpi\n      dup1\n      0xf96e32f8\n      eq\n      tag_18\n      jumpi\n      dup1\n      0xfabce08f\n      eq\n      tag_19\n      jumpi\n      jump(tag_2)\n    tag_21:\n      dup1\n      0x72828388\n      eq\n      tag_11\n      jumpi\n      dup1\n      0x958791ae\n      eq\n      tag_12\n      jumpi\n      dup1\n      0x95ea3757\n      eq\n      tag_13\n      jumpi\n      dup1\n      0x9dd9d0fd\n      eq\n      tag_14\n      jumpi\n      jump(tag_2)\n    tag_20:\n      dup1\n      0x4ed74067\n      gt\n      tag_22\n      jumpi\n      dup1\n      0x4ed74067\n      eq\n      tag_7\n      jumpi\n      dup1\n      0x6212fa02\n      eq\n      tag_8\n      jumpi\n      dup1\n      0x66244dfb\n      eq\n      tag_9\n      jumpi\n      dup1\n      0x6c2cc774\n      eq\n      tag_10\n      jumpi\n      jump(tag_2)\n    tag_22:\n      dup1\n      0x119d4cac\n      eq\n      tag_3\n      jumpi\n      dup1\n      0x2a70da29\n      eq\n      tag_4\n      jumpi\n      dup1\n      0x322a9849\n      eq\n      tag_5\n      jumpi\n      dup1\n      0x3d984d0e\n      eq\n      tag_6\n      jumpi\n    tag_2:\n      0x00\n      dup1\n      revert\n        /* \"contracts/Profile.sol\":5691:5799  function delFreelanceExperience() external {... */\n    tag_3:\n      tag_23\n      tag_24\n      jump\t// in\n    tag_23:\n      stop\n        /* \"contracts/Profile.sol\":4767:5283  function createCompanyExperience(string memory companyName, string memory position, string memory startDate, string memory endDate, string[] memory project) public {... */\n    tag_4:\n      tag_25\n      0x04\n      dup1\n      calldatasize\n      sub\n      dup2\n      add\n      swap1\n      tag_26\n      swap2\n      swap1\n      tag_27\n      jump\t// in\n    tag_26:\n      tag_28\n      jump\t// in\n    tag_25:\n      stop\n        /* \"contracts/Profile.sol\":4518:4759  function createFreelanceExperience(string memory projectName, string memory Detail) public {... */\n    tag_5:\n      tag_29\n      0x04\n      dup1\n      calldatasize\n      sub\n      dup2\n      add\n      swap1\n      tag_30\n      swap2\n      swap1\n      tag_31\n      jump\t// in\n    tag_30:\n      tag_32\n      jump\t// in\n    tag_29:\n      stop\n        /* \"contracts/Profile.sol\":2880:3268  function createSkill(string[] memory programmingLanguages, string[] memory framework, string[] memory databaseAndOther) public {... */\n    tag_6:\n      tag_33\n      0x04\n      dup1\n      calldatasize\n      sub\n      dup2\n      add\n      swap1\n      tag_34\n      swap2\n      swap1\n      tag_35\n      jump\t// in\n    tag_34:\n      tag_36\n      jump\t// in\n    tag_33:\n      stop\n        /* \"contracts/Profile.sol\":5575:5683  function delCertificateAndAward() external {... */\n    tag_7:\n      tag_37\n      tag_38\n      jump\t// in\n    tag_37:\n      stop\n        /* \"contracts/Profile.sol\":4156:4274  function getEducationCount() public view returns (uint) {... */\n    tag_8:\n      tag_39\n      tag_40\n      jump\t// in\n    tag_39:\n      mload(0x40)\n      tag_41\n      swap2\n      swap1\n      tag_42\n      jump\t// in\n    tag_41:\n      mload(0x40)\n      dup1\n      swap2\n      sub\n      swap1\n      return\n        /* \"contracts/Profile.sol\":3276:3746  function createUnivercity(string memory startDate, string memory endDate, string memory univercity, string memory major, string memory finalProject) public {... */\n    tag_9:\n      tag_43\n      0x04\n      dup1\n      calldatasize\n      sub\n      dup2\n      add\n      swap1\n      tag_44\n      swap2\n      swap1\n      tag_45\n      jump\t// in\n    tag_44:\n      tag_46\n      jump\t// in\n    tag_43:\n      stop\n        /* \"contracts/Profile.sol\":4282:4510  function createAward(string[] memory award, string[] memory certificate) public {... */\n    tag_10:\n      tag_47\n      0x04\n      dup1\n      calldatasize\n      sub\n      dup2\n      add\n      swap1\n      tag_48\n      swap2\n      swap1\n      tag_49\n      jump\t// in\n    tag_48:\n      tag_50\n      jump\t// in\n    tag_47:\n      stop\n        /* \"contracts/Profile.sol\":2368:2872  function createContract(string memory email, string memory phone, string memory github, string memory gitlab, string memory linkin) public {... */\n    tag_11:\n      tag_51\n      0x04\n      dup1\n      calldatasize\n      sub\n      dup2\n      add\n      swap1\n      tag_52\n      swap2\n      swap1\n      tag_45\n      jump\t// in\n    tag_52:\n      tag_53\n      jump\t// in\n    tag_51:\n      stop\n        /* \"contracts/Profile.sol\":1644:2360  function createInformation(string memory firstName, string memory middleName, string memory lastName,  string memory profileImage, string memory aboutMe, string memory position) public {... */\n    tag_12:\n      tag_54\n      0x04\n      dup1\n      calldatasize\n      sub\n      dup2\n      add\n      swap1\n      tag_55\n      swap2\n      swap1\n      tag_56\n      jump\t// in\n    tag_55:\n      tag_57\n      jump\t// in\n    tag_54:\n      stop\n        /* \"contracts/Profile.sol\":5391:5483  function delInformaion() external  {... */\n    tag_13:\n      tag_58\n      tag_59\n      jump\t// in\n    tag_58:\n      stop\n        /* \"contracts/Profile.sol\":380:420  mapping (address => Bio) public  profile */\n    tag_14:\n      tag_60\n      0x04\n      dup1\n      calldatasize\n      sub\n      dup2\n      add\n      swap1\n      tag_61\n      swap2\n      swap1\n      tag_62\n      jump\t// in\n    tag_61:\n      tag_63\n      jump\t// in\n    tag_60:\n      mload(0x40)\n      tag_64\n      swap7\n      swap6\n      swap5\n      swap4\n      swap3\n      swap2\n      swap1\n      tag_65\n      jump\t// in\n    tag_64:\n      mload(0x40)\n      dup1\n      swap2\n      sub\n      swap1\n      return\n        /* \"contracts/Profile.sol\":5807:5911  function delCompanyExperience() external {... */\n    tag_15:\n      tag_66\n      tag_67\n      jump\t// in\n    tag_66:\n      stop\n        /* \"contracts/Profile.sol\":1530:1632  function myBalance() public view returns(uint256){... */\n    tag_16:\n      tag_68\n      tag_69\n      jump\t// in\n    tag_68:\n      mload(0x40)\n      tag_70\n      swap2\n      swap1\n      tag_42\n      jump\t// in\n    tag_70:\n      mload(0x40)\n      dup1\n      swap2\n      sub\n      swap1\n      return\n        /* \"contracts/Profile.sol\":5291:5383  function delAllEducation() external  {... */\n    tag_17:\n      tag_71\n      tag_72\n      jump\t// in\n    tag_71:\n      stop\n        /* \"contracts/Profile.sol\":3755:4148  function getEducation(uint index) public view returns(string memory, string memory, string memory, string memory, string memory) {... */\n    tag_18:\n      tag_73\n      0x04\n      dup1\n      calldatasize\n      sub\n      dup2\n      add\n      swap1\n      tag_74\n      swap2\n      swap1\n      tag_75\n      jump\t// in\n    tag_74:\n      tag_76\n      jump\t// in\n    tag_73:\n      mload(0x40)\n      tag_77\n      swap6\n      swap5\n      swap4\n      swap3\n      swap2\n      swap1\n      tag_78\n      jump\t// in\n    tag_77:\n      mload(0x40)\n      dup1\n      swap2\n      sub\n      swap1\n      return\n        /* \"contracts/Profile.sol\":5491:5567  function delProfile() external {... */\n    tag_19:\n      tag_79\n      tag_80\n      jump\t// in\n    tag_79:\n      stop\n        /* \"contracts/Profile.sol\":5691:5799  function delFreelanceExperience() external {... */\n    tag_24:\n        /* \"contracts/Profile.sol\":5752:5759  profile */\n      0x00\n        /* \"contracts/Profile.sol\":5752:5771  profile[msg.sender] */\n      dup1\n        /* \"contracts/Profile.sol\":5760:5770  msg.sender */\n      caller\n        /* \"contracts/Profile.sol\":5752:5771  profile[msg.sender] */\n      0xffffffffffffffffffffffffffffffffffffffff\n      and\n      0xffffffffffffffffffffffffffffffffffffffff\n      and\n      dup2\n      mstore\n      0x20\n      add\n      swap1\n      dup2\n      mstore\n      0x20\n      add\n      0x00\n      keccak256\n        /* \"contracts/Profile.sol\":5752:5791  profile[msg.sender].freelanceExperience */\n      0x19\n      add\n      0x00\n        /* \"contracts/Profile.sol\":5745:5791  delete profile[msg.sender].freelanceExperience */\n      dup1\n      dup3\n      add\n      0x00\n      tag_82\n      swap2\n      swap1\n      tag_83\n      jump\t// in\n    tag_82:\n      0x01\n      dup3\n      add\n      0x00\n      tag_84\n      swap2\n      swap1\n      tag_83\n      jump\t// in\n    tag_84:\n      pop\n      pop\n        /* \"contracts/Profile.sol\":5691:5799  function delFreelanceExperience() external {... */\n      jump\t// out\n        /* \"contracts/Profile.sol\":4767:5283  function createCompanyExperience(string memory companyName, string memory position, string memory startDate, string memory endDate, string[] memory project) public {... */\n    tag_28:\n        /* \"contracts/Profile.sol\":4994:5005  companyName */\n      dup5\n        /* \"contracts/Profile.sol\":4942:4949  profile */\n      0x00\n        /* \"contracts/Profile.sol\":4942:4961  profile[msg.sender] */\n      dup1\n        /* \"contracts/Profile.sol\":4950:4960  msg.sender */\n      caller\n        /* \"contracts/Profile.sol\":4942:4961  profile[msg.sender] */\n      0xffffffffffffffffffffffffffffffffffffffff\n      and\n      0xffffffffffffffffffffffffffffffffffffffff\n      and\n      dup2\n      mstore\n      0x20\n      add\n      swap1\n      dup2\n      mstore\n      0x20\n      add\n      0x00\n      keccak256\n        /* \"contracts/Profile.sol\":4942:4979  profile[msg.sender].companyExperience */\n      0x14\n      add\n        /* \"contracts/Profile.sol\":4942:4991  profile[msg.sender].companyExperience.companyName */\n      0x00\n      add\n        /* \"contracts/Profile.sol\":4942:5005  profile[msg.sender].companyExperience.companyName = companyName */\n      swap1\n      dup2\n      tag_86\n      swap2\n      swap1\n      tag_87\n      jump\t// in\n    tag_86:\n      pop\n        /* \"contracts/Profile.sol\":5065:5073  position */\n      dup4\n        /* \"contracts/Profile.sol\":5016:5023  profile */\n      0x00\n        /* \"contracts/Profile.sol\":5016:5035  profile[msg.sender] */\n      dup1\n        /* \"contracts/Profile.sol\":5024:5034  msg.sender */\n      caller\n        /* \"contracts/Profile.sol\":5016:5035  profile[msg.sender] */\n      0xffffffffffffffffffffffffffffffffffffffff\n      and\n      0xffffffffffffffffffffffffffffffffffffffff\n      and\n      dup2\n      mstore\n      0x20\n      add\n      swap1\n      dup2\n      mstore\n      0x20\n      add\n      0x00\n      keccak256\n        /* \"contracts/Profile.sol\":5016:5053  profile[msg.sender].companyExperience */\n      0x14\n      add\n        /* \"contracts/Profile.sol\":5016:5062  profile[msg.sender].companyExperience.position */\n      0x01\n      add\n        /* \"contracts/Profile.sol\":5016:5073  profile[msg.sender].companyExperience.position = position */\n      swap1\n      dup2\n      tag_88\n      swap2\n      swap1\n      tag_87\n      jump\t// in\n    tag_88:\n      pop\n        /* \"contracts/Profile.sol\":5134:5143  startDate */\n      dup3\n        /* \"contracts/Profile.sol\":5084:5091  profile */\n      0x00\n        /* \"contracts/Profile.sol\":5084:5103  profile[msg.sender] */\n      dup1\n        /* \"contracts/Profile.sol\":5092:5102  msg.sender */\n      caller\n        /* \"contracts/Profile.sol\":5084:5103  profile[msg.sender] */\n      0xffffffffffffffffffffffffffffffffffffffff\n      and\n      0xffffffffffffffffffffffffffffffffffffffff\n      and\n      dup2\n      mstore\n      0x20\n      add\n      swap1\n      dup2\n      mstore\n      0x20\n      add\n      0x00\n      keccak256\n        /* \"contracts/Profile.sol\":5084:5121  profile[msg.sender].companyExperience */\n      0x14\n      add\n        /* \"contracts/Profile.sol\":5084:5131  profile[msg.sender].companyExperience.startDate */\n      0x02\n      add\n        /* \"contracts/Profile.sol\":5084:5143  profile[msg.sender].companyExperience.startDate = startDate */\n      swap1\n      dup2\n      tag_89\n      swap2\n      swap1\n      tag_87\n      jump\t// in\n    tag_89:\n      pop\n        /* \"contracts/Profile.sol\":5202:5209  endDate */\n      dup2\n        /* \"contracts/Profile.sol\":5154:5161  profile */\n      0x00\n        /* \"contracts/Profile.sol\":5154:5173  profile[msg.sender] */\n      dup1\n        /* \"contracts/Profile.sol\":5162:5172  msg.sender */\n      caller\n        /* \"contracts/Profile.sol\":5154:5173  profile[msg.sender] */\n      0xffffffffffffffffffffffffffffffffffffffff\n      and\n      0xffffffffffffffffffffffffffffffffffffffff\n      and\n      dup2\n      mstore\n      0x20\n      add\n      swap1\n      dup2\n      mstore\n      0x20\n      add\n      0x00\n      keccak256\n        /* \"contracts/Profile.sol\":5154:5191  profile[msg.sender].companyExperience */\n      0x14\n      add\n        /* \"contracts/Profile.sol\":5154:5199  profile[msg.sender].companyExperience.endDate */\n      0x03\n      add\n        /* \"contracts/Profile.sol\":5154:5209  profile[msg.sender].companyExperience.endDate = endDate */\n      swap1\n      dup2\n      tag_90\n      swap2\n      swap1\n      tag_87\n      jump\t// in\n    tag_90:\n      pop\n        /* \"contracts/Profile.sol\":5268:5275  project */\n      dup1\n        /* \"contracts/Profile.sol\":5220:5227  profile */\n      0x00\n        /* \"contracts/Profile.sol\":5220:5239  profile[msg.sender] */\n      dup1\n        /* \"contracts/Profile.sol\":5228:5238  msg.sender */\n      caller\n        /* \"contracts/Profile.sol\":5220:5239  profile[msg.sender] */\n      0xffffffffffffffffffffffffffffffffffffffff\n      and\n      0xffffffffffffffffffffffffffffffffffffffff\n      and\n      dup2\n      mstore\n      0x20\n      add\n      swap1\n      dup2\n      mstore\n      0x20\n      add\n      0x00\n      keccak256\n        /* \"contracts/Profile.sol\":5220:5257  profile[msg.sender].companyExperience */\n      0x14\n      add\n        /* \"contracts/Profile.sol\":5220:5265  profile[msg.sender].companyExperience.project */\n      0x04\n      add\n        /* \"contracts/Profile.sol\":5220:5275  profile[msg.sender].companyExperience.project = project */\n      swap1\n      dup1\n      mload\n      swap1\n      0x20\n      add\n      swap1\n      tag_91\n      swap3\n      swap2\n      swap1\n      tag_92\n      jump\t// in\n    tag_91:\n      pop\n        /* \"contracts/Profile.sol\":4767:5283  function createCompanyExperience(string memory companyName, string memory position, string memory startDate, string memory endDate, string[] memory project) public {... */\n      pop\n      pop\n      pop\n      pop\n      pop\n      jump\t// out\n        /* \"contracts/Profile.sol\":4518:4759  function createFreelanceExperience(string memory projectName, string memory Detail) public {... */\n    tag_32:\n        /* \"contracts/Profile.sol\":4674:4685  projectName */\n      dup2\n        /* \"contracts/Profile.sol\":4620:4627  profile */\n      0x00\n        /* \"contracts/Profile.sol\":4620:4639  profile[msg.sender] */\n      dup1\n        /* \"contracts/Profile.sol\":4628:4638  msg.sender */\n      caller\n        /* \"contracts/Profile.sol\":4620:4639  profile[msg.sender] */\n      0xffffffffffffffffffffffffffffffffffffffff\n      and\n      0xffffffffffffffffffffffffffffffffffffffff\n      and\n      dup2\n      mstore\n      0x20\n      add\n      swap1\n      dup2\n      mstore\n      0x20\n      add\n      0x00\n      keccak256\n        /* \"contracts/Profile.sol\":4620:4659  profile[msg.sender].freelanceExperience */\n      0x19\n      add\n        /* \"contracts/Profile.sol\":4620:4671  profile[msg.sender].freelanceExperience.projectName */\n      0x00\n      add\n        /* \"contracts/Profile.sol\":4620:4685  profile[msg.sender].freelanceExperience.projectName = projectName */\n      swap1\n      dup2\n      tag_94\n      swap2\n      swap1\n      tag_87\n      jump\t// in\n    tag_94:\n      pop\n        /* \"contracts/Profile.sol\":4745:4751  Detail */\n      dup1\n        /* \"contracts/Profile.sol\":4696:4703  profile */\n      0x00\n        /* \"contracts/Profile.sol\":4696:4715  profile[msg.sender] */\n      dup1\n        /* \"contracts/Profile.sol\":4704:4714  msg.sender */\n      caller\n        /* \"contracts/Profile.sol\":4696:4715  profile[msg.sender] */\n      0xffffffffffffffffffffffffffffffffffffffff\n      and\n      0xffffffffffffffffffffffffffffffffffffffff\n      and\n      dup2\n      mstore\n      0x20\n      add\n      swap1\n      dup2\n      mstore\n      0x20\n      add\n      0x00\n      keccak256\n        /* \"contracts/Profile.sol\":4696:4735  profile[msg.sender].freelanceExperience */\n      0x19\n      add\n        /* \"contracts/Profile.sol\":4696:4742  profile[msg.sender].freelanceExperience.Detail */\n      0x01\n      add\n        /* \"contracts/Profile.sol\":4696:4751  profile[msg.sender].freelanceExperience.Detail = Detail */\n      swap1\n      dup2\n      tag_95\n      swap2\n      swap1\n      tag_87\n      jump\t// in\n    tag_95:\n      pop\n        /* \"contracts/Profile.sol\":4518:4759  function createFreelanceExperience(string memory projectName, string memory Detail) public {... */\n      pop\n      pop\n      jump\t// out\n        /* \"contracts/Profile.sol\":2880:3268  function createSkill(string[] memory programmingLanguages, string[] memory framework, string[] memory databaseAndOther) public {... */\n    tag_36:\n        /* \"contracts/Profile.sol\":3025:3032  profile */\n      0x00\n        /* \"contracts/Profile.sol\":3025:3044  profile[msg.sender] */\n      dup1\n        /* \"contracts/Profile.sol\":3033:3043  msg.sender */\n      caller\n        /* \"contracts/Profile.sol\":3025:3044  profile[msg.sender] */\n      0xffffffffffffffffffffffffffffffffffffffff\n      and\n      0xffffffffffffffffffffffffffffffffffffffff\n      and\n      dup2\n      mstore\n      0x20\n      add\n      swap1\n      dup2\n      mstore\n      0x20\n      add\n      0x00\n      keccak256\n        /* \"contracts/Profile.sol\":3025:3050  profile[msg.sender].skill */\n      0x0e\n      add\n      0x00\n        /* \"contracts/Profile.sol\":3018:3050  delete profile[msg.sender].skill */\n      dup1\n      dup3\n      add\n      0x00\n      tag_97\n      swap2\n      swap1\n      tag_98\n      jump\t// in\n    tag_97:\n      0x01\n      dup3\n      add\n      0x00\n      tag_99\n      swap2\n      swap1\n      tag_98\n      jump\t// in\n    tag_99:\n      0x02\n      dup3\n      add\n      0x00\n      tag_100\n      swap2\n      swap1\n      tag_98\n      jump\t// in\n    tag_100:\n      pop\n      pop\n        /* \"contracts/Profile.sol\":3110:3130  programmingLanguages */\n      dup3\n        /* \"contracts/Profile.sol\":3061:3068  profile */\n      0x00\n        /* \"contracts/Profile.sol\":3061:3080  profile[msg.sender] */\n      dup1\n        /* \"contracts/Profile.sol\":3069:3079  msg.sender */\n      caller\n        /* \"contracts/Profile.sol\":3061:3080  profile[msg.sender] */\n      0xffffffffffffffffffffffffffffffffffffffff\n      and\n      0xffffffffffffffffffffffffffffffffffffffff\n      and\n      dup2\n      mstore\n      0x20\n      add\n      swap1\n      dup2\n      mstore\n      0x20\n      add\n      0x00\n      keccak256\n        /* \"contracts/Profile.sol\":3061:3086  profile[msg.sender].skill */\n      0x0e\n      add\n        /* \"contracts/Profile.sol\":3061:3107  profile[msg.sender].skill.programmingLanguages */\n      0x00\n      add\n        /* \"contracts/Profile.sol\":3061:3130  profile[msg.sender].skill.programmingLanguages = programmingLanguages */\n      swap1\n      dup1\n      mload\n      swap1\n      0x20\n      add\n      swap1\n      tag_101\n      swap3\n      swap2\n      swap1\n      tag_92\n      jump\t// in\n    tag_101:\n      pop\n        /* \"contracts/Profile.sol\":3179:3188  framework */\n      dup2\n        /* \"contracts/Profile.sol\":3141:3148  profile */\n      0x00\n        /* \"contracts/Profile.sol\":3141:3160  profile[msg.sender] */\n      dup1\n        /* \"contracts/Profile.sol\":3149:3159  msg.sender */\n      caller\n        /* \"contracts/Profile.sol\":3141:3160  profile[msg.sender] */\n      0xffffffffffffffffffffffffffffffffffffffff\n      and\n      0xffffffffffffffffffffffffffffffffffffffff\n      and\n      dup2\n      mstore\n      0x20\n      add\n      swap1\n      dup2\n      mstore\n      0x20\n      add\n      0x00\n      keccak256\n        /* \"contracts/Profile.sol\":3141:3166  profile[msg.sender].skill */\n      0x0e\n      add\n        /* \"contracts/Profile.sol\":3141:3176  profile[msg.sender].skill.framework */\n      0x01\n      add\n        /* \"contracts/Profile.sol\":3141:3188  profile[msg.sender].skill.framework = framework */\n      swap1\n      dup1\n      mload\n      swap1\n      0x20\n      add\n      swap1\n      tag_102\n      swap3\n      swap2\n      swap1\n      tag_92\n      jump\t// in\n    tag_102:\n      pop\n        /* \"contracts/Profile.sol\":3244:3260  databaseAndOther */\n      dup1\n        /* \"contracts/Profile.sol\":3199:3206  profile */\n      0x00\n        /* \"contracts/Profile.sol\":3199:3218  profile[msg.sender] */\n      dup1\n        /* \"contracts/Profile.sol\":3207:3217  msg.sender */\n      caller\n        /* \"contracts/Profile.sol\":3199:3218  profile[msg.sender] */\n      0xffffffffffffffffffffffffffffffffffffffff\n      and\n      0xffffffffffffffffffffffffffffffffffffffff\n      and\n      dup2\n      mstore\n      0x20\n      add\n      swap1\n      dup2\n      mstore\n      0x20\n      add\n      0x00\n      keccak256\n        /* \"contracts/Profile.sol\":3199:3224  profile[msg.sender].skill */\n      0x0e\n      add\n        /* \"contracts/Profile.sol\":3199:3241  profile[msg.sender].skill.databaseAndOther */\n      0x02\n      add\n        /* \"contracts/Profile.sol\":3199:3260  profile[msg.sender].skill.databaseAndOther = databaseAndOther */\n      swap1\n      dup1\n      mload\n      swap1\n      0x20\n      add\n      swap1\n      tag_103\n      swap3\n      swap2\n      swap1\n      tag_92\n      jump\t// in\n    tag_103:\n      pop\n        /* \"contracts/Profile.sol\":2880:3268  function createSkill(string[] memory programmingLanguages, string[] memory framework, string[] memory databaseAndOther) public {... */\n      pop\n      pop\n      pop\n      jump\t// out\n        /* \"contracts/Profile.sol\":5575:5683  function delCertificateAndAward() external {... */\n    tag_38:\n        /* \"contracts/Profile.sol\":5636:5643  profile */\n      0x00\n        /* \"contracts/Profile.sol\":5636:5655  profile[msg.sender] */\n      dup1\n        /* \"contracts/Profile.sol\":5644:5654  msg.sender */\n      caller\n        /* \"contracts/Profile.sol\":5636:5655  profile[msg.sender] */\n      0xffffffffffffffffffffffffffffffffffffffff\n      and\n      0xffffffffffffffffffffffffffffffffffffffff\n      and\n      dup2\n      mstore\n      0x20\n      add\n      swap1\n      dup2\n      mstore\n      0x20\n      add\n      0x00\n      keccak256\n        /* \"contracts/Profile.sol\":5636:5675  profile[msg.sender].certificateAndAward */\n      0x12\n      add\n      0x00\n        /* \"contracts/Profile.sol\":5629:5675  delete profile[msg.sender].certificateAndAward */\n      dup1\n      dup3\n      add\n      0x00\n      tag_105\n      swap2\n      swap1\n      tag_98\n      jump\t// in\n    tag_105:\n      0x01\n      dup3\n      add\n      0x00\n      tag_106\n      swap2\n      swap1\n      tag_98\n      jump\t// in\n    tag_106:\n      pop\n      pop\n        /* \"contracts/Profile.sol\":5575:5683  function delCertificateAndAward() external {... */\n      jump\t// out\n        /* \"contracts/Profile.sol\":4156:4274  function getEducationCount() public view returns (uint) {... */\n    tag_40:\n        /* \"contracts/Profile.sol\":4206:4210  uint */\n      0x00\n        /* \"contracts/Profile.sol\":4230:4237  profile */\n      dup1\n        /* \"contracts/Profile.sol\":4230:4249  profile[msg.sender] */\n      0x00\n        /* \"contracts/Profile.sol\":4238:4248  msg.sender */\n      caller\n        /* \"contracts/Profile.sol\":4230:4249  profile[msg.sender] */\n      0xffffffffffffffffffffffffffffffffffffffff\n      and\n      0xffffffffffffffffffffffffffffffffffffffff\n      and\n      dup2\n      mstore\n      0x20\n      add\n      swap1\n      dup2\n      mstore\n      0x20\n      add\n      0x00\n      keccak256\n        /* \"contracts/Profile.sol\":4230:4259  profile[msg.sender].education */\n      0x11\n      add\n        /* \"contracts/Profile.sol\":4230:4266  profile[msg.sender].education.length */\n      dup1\n      sload\n      swap1\n      pop\n        /* \"contracts/Profile.sol\":4223:4266  return profile[msg.sender].education.length */\n      swap1\n      pop\n        /* \"contracts/Profile.sol\":4156:4274  function getEducationCount() public view returns (uint) {... */\n      swap1\n      jump\t// out\n        /* \"contracts/Profile.sol\":3276:3746  function createUnivercity(string memory startDate, string memory endDate, string memory univercity, string memory major, string memory finalProject) public {... */\n    tag_46:\n        /* \"contracts/Profile.sol\":3443:3470  Education memory _education */\n      tag_109\n      tag_110\n      jump\t// in\n    tag_109:\n        /* \"contracts/Profile.sol\":3504:3513  startDate */\n      dup6\n        /* \"contracts/Profile.sol\":3481:3491  _education */\n      dup2\n        /* \"contracts/Profile.sol\":3481:3501  _education.startDate */\n      0x00\n      add\n        /* \"contracts/Profile.sol\":3481:3513  _education.startDate = startDate */\n      dup2\n      swap1\n      mstore\n      pop\n        /* \"contracts/Profile.sol\":3545:3552  endDate */\n      dup5\n        /* \"contracts/Profile.sol\":3524:3534  _education */\n      dup2\n        /* \"contracts/Profile.sol\":3524:3542  _education.endDate */\n      0x20\n      add\n        /* \"contracts/Profile.sol\":3524:3552  _education.endDate = endDate */\n      dup2\n      swap1\n      mstore\n      pop\n        /* \"contracts/Profile.sol\":3587:3597  univercity */\n      dup4\n        /* \"contracts/Profile.sol\":3563:3573  _education */\n      dup2\n        /* \"contracts/Profile.sol\":3563:3584  _education.univercity */\n      0x40\n      add\n        /* \"contracts/Profile.sol\":3563:3597  _education.univercity = univercity */\n      dup2\n      swap1\n      mstore\n      pop\n        /* \"contracts/Profile.sol\":3627:3632  major */\n      dup3\n        /* \"contracts/Profile.sol\":3608:3618  _education */\n      dup2\n        /* \"contracts/Profile.sol\":3608:3624  _education.major */\n      0x60\n      add\n        /* \"contracts/Profile.sol\":3608:3632  _education.major = major */\n      dup2\n      swap1\n      mstore\n      pop\n        /* \"contracts/Profile.sol\":3669:3681  finalProject */\n      dup2\n        /* \"contracts/Profile.sol\":3643:3653  _education */\n      dup2\n        /* \"contracts/Profile.sol\":3643:3666  _education.finalProject */\n      0x80\n      add\n        /* \"contracts/Profile.sol\":3643:3681  _education.finalProject = finalProject */\n      dup2\n      swap1\n      mstore\n      pop\n        /* \"contracts/Profile.sol\":3692:3699  profile */\n      0x00\n        /* \"contracts/Profile.sol\":3692:3711  profile[msg.sender] */\n      dup1\n        /* \"contracts/Profile.sol\":3700:3710  msg.sender */\n      caller\n        /* \"contracts/Profile.sol\":3692:3711  profile[msg.sender] */\n      0xffffffffffffffffffffffffffffffffffffffff\n      and\n      0xffffffffffffffffffffffffffffffffffffffff\n      and\n      dup2\n      mstore\n      0x20\n      add\n      swap1\n      dup2\n      mstore\n      0x20\n      add\n      0x00\n      keccak256\n        /* \"contracts/Profile.sol\":3692:3721  profile[msg.sender].education */\n      0x11\n      add\n        /* \"contracts/Profile.sol\":3727:3737  _education */\n      dup2\n        /* \"contracts/Profile.sol\":3692:3738  profile[msg.sender].education.push(_education) */\n      swap1\n      dup1\n      0x01\n      dup2\n      sload\n      add\n      dup1\n      dup3\n      sstore\n      dup1\n      swap2\n      pop\n      pop\n      0x01\n      swap1\n      sub\n      swap1\n      0x00\n      mstore\n      keccak256(0x00, 0x20)\n      swap1\n      0x05\n      mul\n      add\n      0x00\n      swap1\n      swap2\n      swap1\n      swap2\n      swap1\n      swap2\n      pop\n      0x00\n      dup3\n      add\n      mload\n      dup2\n      0x00\n      add\n      swap1\n      dup2\n      tag_112\n      swap2\n      swap1\n      tag_87\n      jump\t// in\n    tag_112:\n      pop\n      0x20\n      dup3\n      add\n      mload\n      dup2\n      0x01\n      add\n      swap1\n      dup2\n      tag_113\n      swap2\n      swap1\n      tag_87\n      jump\t// in\n    tag_113:\n      pop\n      0x40\n      dup3\n      add\n      mload\n      dup2\n      0x02\n      add\n      swap1\n      dup2\n      tag_114\n      swap2\n      swap1\n      tag_87\n      jump\t// in\n    tag_114:\n      pop\n      0x60\n      dup3\n      add\n      mload\n      dup2\n      0x03\n      add\n      swap1\n      dup2\n      tag_115\n      swap2\n      swap1\n      tag_87\n      jump\t// in\n    tag_115:\n      pop\n      0x80\n      dup3\n      add\n      mload\n      dup2\n      0x04\n      add\n      swap1\n      dup2\n      tag_116\n      swap2\n      swap1\n      tag_87\n      jump\t// in\n    tag_116:\n      pop\n      pop\n      pop\n        /* \"contracts/Profile.sol\":3432:3746  {... */\n      pop\n        /* \"contracts/Profile.sol\":3276:3746  function createUnivercity(string memory startDate, string memory endDate, string memory univercity, string memory major, string memory finalProject) public {... */\n      pop\n      pop\n      pop\n      pop\n      pop\n      jump\t// out\n        /* \"contracts/Profile.sol\":4282:4510  function createAward(string[] memory award, string[] memory certificate) public {... */\n    tag_50:\n        /* \"contracts/Profile.sol\":4421:4426  award */\n      dup2\n        /* \"contracts/Profile.sol\":4373:4380  profile */\n      0x00\n        /* \"contracts/Profile.sol\":4373:4392  profile[msg.sender] */\n      dup1\n        /* \"contracts/Profile.sol\":4381:4391  msg.sender */\n      caller\n        /* \"contracts/Profile.sol\":4373:4392  profile[msg.sender] */\n      0xffffffffffffffffffffffffffffffffffffffff\n      and\n      0xffffffffffffffffffffffffffffffffffffffff\n      and\n      dup2\n      mstore\n      0x20\n      add\n      swap1\n      dup2\n      mstore\n      0x20\n      add\n      0x00\n      keccak256\n        /* \"contracts/Profile.sol\":4373:4412  profile[msg.sender].certificateAndAward */\n      0x12\n      add\n        /* \"contracts/Profile.sol\":4373:4418  profile[msg.sender].certificateAndAward.award */\n      0x01\n      add\n        /* \"contracts/Profile.sol\":4373:4426  profile[msg.sender].certificateAndAward.award = award */\n      swap1\n      dup1\n      mload\n      swap1\n      0x20\n      add\n      swap1\n      tag_118\n      swap3\n      swap2\n      swap1\n      tag_92\n      jump\t// in\n    tag_118:\n      pop\n        /* \"contracts/Profile.sol\":4491:4502  certificate */\n      dup1\n        /* \"contracts/Profile.sol\":4437:4444  profile */\n      0x00\n        /* \"contracts/Profile.sol\":4437:4456  profile[msg.sender] */\n      dup1\n        /* \"contracts/Profile.sol\":4445:4455  msg.sender */\n      caller\n        /* \"contracts/Profile.sol\":4437:4456  profile[msg.sender] */\n      0xffffffffffffffffffffffffffffffffffffffff\n      and\n      0xffffffffffffffffffffffffffffffffffffffff\n      and\n      dup2\n      mstore\n      0x20\n      add\n      swap1\n      dup2\n      mstore\n      0x20\n      add\n      0x00\n      keccak256\n        /* \"contracts/Profile.sol\":4437:4476  profile[msg.sender].certificateAndAward */\n      0x12\n      add\n        /* \"contracts/Profile.sol\":4437:4488  profile[msg.sender].certificateAndAward.certificate */\n      0x00\n      add\n        /* \"contracts/Profile.sol\":4437:4502  profile[msg.sender].certificateAndAward.certificate = certificate */\n      swap1\n      dup1\n      mload\n      swap1\n      0x20\n      add\n      swap1\n      tag_119\n      swap3\n      swap2\n      swap1\n      tag_92\n      jump\t// in\n    tag_119:\n      pop\n        /* \"contracts/Profile.sol\":4282:4510  function createAward(string[] memory award, string[] memory certificate) public {... */\n      pop\n      pop\n      jump\t// out\n        /* \"contracts/Profile.sol\":2368:2872  function createContract(string memory email, string memory phone, string memory github, string memory gitlab, string memory linkin) public {... */\n    tag_53:\n        /* \"contracts/Profile.sol\":2525:2532  profile */\n      0x00\n        /* \"contracts/Profile.sol\":2525:2544  profile[msg.sender] */\n      dup1\n        /* \"contracts/Profile.sol\":2533:2543  msg.sender */\n      caller\n        /* \"contracts/Profile.sol\":2525:2544  profile[msg.sender] */\n      0xffffffffffffffffffffffffffffffffffffffff\n      and\n      0xffffffffffffffffffffffffffffffffffffffff\n      and\n      dup2\n      mstore\n      0x20\n      add\n      swap1\n      dup2\n      mstore\n      0x20\n      add\n      0x00\n      keccak256\n        /* \"contracts/Profile.sol\":2525:2560  profile[msg.sender].privateContract */\n      0x08\n      add\n      0x00\n        /* \"contracts/Profile.sol\":2518:2560  delete profile[msg.sender].privateContract */\n      dup1\n      dup3\n      add\n      0x00\n      tag_121\n      swap2\n      swap1\n      tag_83\n      jump\t// in\n    tag_121:\n      0x01\n      dup3\n      add\n      0x00\n      tag_122\n      swap2\n      swap1\n      tag_83\n      jump\t// in\n    tag_122:\n      0x02\n      dup3\n      add\n      0x00\n      tag_123\n      swap2\n      swap1\n      tag_83\n      jump\t// in\n    tag_123:\n      0x03\n      dup3\n      add\n      0x00\n      tag_124\n      swap2\n      swap1\n      tag_83\n      jump\t// in\n    tag_124:\n      0x04\n      dup3\n      add\n      0x00\n      tag_125\n      swap2\n      swap1\n      tag_83\n      jump\t// in\n    tag_125:\n      0x05\n      dup3\n      add\n      0x00\n      tag_126\n      swap2\n      swap1\n      tag_83\n      jump\t// in\n    tag_126:\n      pop\n      pop\n        /* \"contracts/Profile.sol\":2615:2620  email */\n      dup5\n        /* \"contracts/Profile.sol\":2571:2578  profile */\n      0x00\n        /* \"contracts/Profile.sol\":2571:2590  profile[msg.sender] */\n      dup1\n        /* \"contracts/Profile.sol\":2579:2589  msg.sender */\n      caller\n        /* \"contracts/Profile.sol\":2571:2590  profile[msg.sender] */\n      0xffffffffffffffffffffffffffffffffffffffff\n      and\n      0xffffffffffffffffffffffffffffffffffffffff\n      and\n      dup2\n      mstore\n      0x20\n      add\n      swap1\n      dup2\n      mstore\n      0x20\n      add\n      0x00\n      keccak256\n        /* \"contracts/Profile.sol\":2571:2606  profile[msg.sender].privateContract */\n      0x08\n      add\n        /* \"contracts/Profile.sol\":2571:2612  profile[msg.sender].privateContract.email */\n      0x01\n      add\n        /* \"contracts/Profile.sol\":2571:2620  profile[msg.sender].privateContract.email = email */\n      swap1\n      dup2\n      tag_127\n      swap2\n      swap1\n      tag_87\n      jump\t// in\n    tag_127:\n      pop\n        /* \"contracts/Profile.sol\":2675:2680  phone */\n      dup4\n        /* \"contracts/Profile.sol\":2631:2638  profile */\n      0x00\n        /* \"contracts/Profile.sol\":2631:2650  profile[msg.sender] */\n      dup1\n        /* \"contracts/Profile.sol\":2639:2649  msg.sender */\n      caller\n        /* \"contracts/Profile.sol\":2631:2650  profile[msg.sender] */\n      0xffffffffffffffffffffffffffffffffffffffff\n      and\n      0xffffffffffffffffffffffffffffffffffffffff\n      and\n      dup2\n      mstore\n      0x20\n      add\n      swap1\n      dup2\n      mstore\n      0x20\n      add\n      0x00\n      keccak256\n        /* \"contracts/Profile.sol\":2631:2666  profile[msg.sender].privateContract */\n      0x08\n      add\n        /* \"contracts/Profile.sol\":2631:2672  profile[msg.sender].privateContract.phone */\n      0x02\n      add\n        /* \"contracts/Profile.sol\":2631:2680  profile[msg.sender].privateContract.phone = phone */\n      swap1\n      dup2\n      tag_128\n      swap2\n      swap1\n      tag_87\n      jump\t// in\n    tag_128:\n      pop\n        /* \"contracts/Profile.sol\":2736:2742  github */\n      dup3\n        /* \"contracts/Profile.sol\":2691:2698  profile */\n      0x00\n        /* \"contracts/Profile.sol\":2691:2710  profile[msg.sender] */\n      dup1\n        /* \"contracts/Profile.sol\":2699:2709  msg.sender */\n      caller\n        /* \"contracts/Profile.sol\":2691:2710  profile[msg.sender] */\n      0xffffffffffffffffffffffffffffffffffffffff\n      and\n      0xffffffffffffffffffffffffffffffffffffffff\n      and\n      dup2\n      mstore\n      0x20\n      add\n      swap1\n      dup2\n      mstore\n      0x20\n      add\n      0x00\n      keccak256\n        /* \"contracts/Profile.sol\":2691:2726  profile[msg.sender].privateContract */\n      0x08\n      add\n        /* \"contracts/Profile.sol\":2691:2733  profile[msg.sender].privateContract.github */\n      0x03\n      add\n        /* \"contracts/Profile.sol\":2691:2742  profile[msg.sender].privateContract.github = github */\n      swap1\n      dup2\n      tag_129\n      swap2\n      swap1\n      tag_87\n      jump\t// in\n    tag_129:\n      pop\n        /* \"contracts/Profile.sol\":2797:2803  gitlab */\n      dup2\n        /* \"contracts/Profile.sol\":2753:2760  profile */\n      0x00\n        /* \"contracts/Profile.sol\":2753:2772  profile[msg.sender] */\n      dup1\n        /* \"contracts/Profile.sol\":2761:2771  msg.sender */\n      caller\n        /* \"contracts/Profile.sol\":2753:2772  profile[msg.sender] */\n      0xffffffffffffffffffffffffffffffffffffffff\n      and\n      0xffffffffffffffffffffffffffffffffffffffff\n      and\n      dup2\n      mstore\n      0x20\n      add\n      swap1\n      dup2\n      mstore\n      0x20\n      add\n      0x00\n      keccak256\n        /* \"contracts/Profile.sol\":2753:2788  profile[msg.sender].privateContract */\n      0x08\n      add\n        /* \"contracts/Profile.sol\":2753:2794  profile[msg.sender].privateContract.phone */\n      0x02\n      add\n        /* \"contracts/Profile.sol\":2753:2803  profile[msg.sender].privateContract.phone = gitlab */\n      swap1\n      dup2\n      tag_130\n      swap2\n      swap1\n      tag_87\n      jump\t// in\n    tag_130:\n      pop\n        /* \"contracts/Profile.sol\":2858:2864  linkin */\n      dup1\n        /* \"contracts/Profile.sol\":2814:2821  profile */\n      0x00\n        /* \"contracts/Profile.sol\":2814:2833  profile[msg.sender] */\n      dup1\n        /* \"contracts/Profile.sol\":2822:2832  msg.sender */\n      caller\n        /* \"contracts/Profile.sol\":2814:2833  profile[msg.sender] */\n      0xffffffffffffffffffffffffffffffffffffffff\n      and\n      0xffffffffffffffffffffffffffffffffffffffff\n      and\n      dup2\n      mstore\n      0x20\n      add\n      swap1\n      dup2\n      mstore\n      0x20\n      add\n      0x00\n      keccak256\n        /* \"contracts/Profile.sol\":2814:2849  profile[msg.sender].privateContract */\n      0x08\n      add\n        /* \"contracts/Profile.sol\":2814:2855  profile[msg.sender].privateContract.email */\n      0x01\n      add\n        /* \"contracts/Profile.sol\":2814:2864  profile[msg.sender].privateContract.email = linkin */\n      swap1\n      dup2\n      tag_131\n      swap2\n      swap1\n      tag_87\n      jump\t// in\n    tag_131:\n      pop\n        /* \"contracts/Profile.sol\":2368:2872  function createContract(string memory email, string memory phone, string memory github, string memory gitlab, string memory linkin) public {... */\n      pop\n      pop\n      pop\n      pop\n      pop\n      jump\t// out\n        /* \"contracts/Profile.sol\":1644:2360  function createInformation(string memory firstName, string memory middleName, string memory lastName,  string memory profileImage, string memory aboutMe, string memory position) public {... */\n    tag_57:\n        /* \"contracts/Profile.sol\":1884:1893  firstName */\n      dup6\n        /* \"contracts/Profile.sol\":1840:1847  profile */\n      0x00\n        /* \"contracts/Profile.sol\":1840:1859  profile[msg.sender] */\n      dup1\n        /* \"contracts/Profile.sol\":1848:1858  msg.sender */\n      caller\n        /* \"contracts/Profile.sol\":1840:1859  profile[msg.sender] */\n      0xffffffffffffffffffffffffffffffffffffffff\n      and\n      0xffffffffffffffffffffffffffffffffffffffff\n      and\n      dup2\n      mstore\n      0x20\n      add\n      swap1\n      dup2\n      mstore\n      0x20\n      add\n      0x00\n      keccak256\n        /* \"contracts/Profile.sol\":1840:1871  profile[msg.sender].information */\n      0x00\n      add\n        /* \"contracts/Profile.sol\":1840:1881  profile[msg.sender].information.firstName */\n      0x03\n      add\n        /* \"contracts/Profile.sol\":1840:1893  profile[msg.sender].information.firstName = firstName */\n      swap1\n      dup2\n      tag_133\n      swap2\n      swap1\n      tag_87\n      jump\t// in\n    tag_133:\n      pop\n        /* \"contracts/Profile.sol\":1949:1959  middleName */\n      dup5\n        /* \"contracts/Profile.sol\":1904:1911  profile */\n      0x00\n        /* \"contracts/Profile.sol\":1904:1923  profile[msg.sender] */\n      dup1\n        /* \"contracts/Profile.sol\":1912:1922  msg.sender */\n      caller\n        /* \"contracts/Profile.sol\":1904:1923  profile[msg.sender] */\n      0xffffffffffffffffffffffffffffffffffffffff\n      and\n      0xffffffffffffffffffffffffffffffffffffffff\n      and\n      dup2\n      mstore\n      0x20\n      add\n      swap1\n      dup2\n      mstore\n      0x20\n      add\n      0x00\n      keccak256\n        /* \"contracts/Profile.sol\":1904:1935  profile[msg.sender].information */\n      0x00\n      add\n        /* \"contracts/Profile.sol\":1904:1946  profile[msg.sender].information.middleName */\n      0x04\n      add\n        /* \"contracts/Profile.sol\":1904:1959  profile[msg.sender].information.middleName = middleName */\n      swap1\n      dup2\n      tag_134\n      swap2\n      swap1\n      tag_87\n      jump\t// in\n    tag_134:\n      pop\n        /* \"contracts/Profile.sol\":2013:2021  lastName */\n      dup4\n        /* \"contracts/Profile.sol\":1970:1977  profile */\n      0x00\n        /* \"contracts/Profile.sol\":1970:1989  profile[msg.sender] */\n      dup1\n        /* \"contracts/Profile.sol\":1978:1988  msg.sender */\n      caller\n        /* \"contracts/Profile.sol\":1970:1989  profile[msg.sender] */\n      0xffffffffffffffffffffffffffffffffffffffff\n      and\n      0xffffffffffffffffffffffffffffffffffffffff\n      and\n      dup2\n      mstore\n      0x20\n      add\n      swap1\n      dup2\n      mstore\n      0x20\n      add\n      0x00\n      keccak256\n        /* \"contracts/Profile.sol\":1970:2001  profile[msg.sender].information */\n      0x00\n      add\n        /* \"contracts/Profile.sol\":1970:2010  profile[msg.sender].information.lastName */\n      0x05\n      add\n        /* \"contracts/Profile.sol\":1970:2021  profile[msg.sender].information.lastName = lastName */\n      swap1\n      dup2\n      tag_135\n      swap2\n      swap1\n      tag_87\n      jump\t// in\n    tag_135:\n      pop\n        /* \"contracts/Profile.sol\":2079:2091  profileImage */\n      dup3\n        /* \"contracts/Profile.sol\":2032:2039  profile */\n      0x00\n        /* \"contracts/Profile.sol\":2032:2051  profile[msg.sender] */\n      dup1\n        /* \"contracts/Profile.sol\":2040:2050  msg.sender */\n      caller\n        /* \"contracts/Profile.sol\":2032:2051  profile[msg.sender] */\n      0xffffffffffffffffffffffffffffffffffffffff\n      and\n      0xffffffffffffffffffffffffffffffffffffffff\n      and\n      dup2\n      mstore\n      0x20\n      add\n      swap1\n      dup2\n      mstore\n      0x20\n      add\n      0x00\n      keccak256\n        /* \"contracts/Profile.sol\":2032:2063  profile[msg.sender].information */\n      0x00\n      add\n        /* \"contracts/Profile.sol\":2032:2076  profile[msg.sender].information.profileImage */\n      0x06\n      add\n        /* \"contracts/Profile.sol\":2032:2091  profile[msg.sender].information.profileImage = profileImage */\n      swap1\n      dup2\n      tag_136\n      swap2\n      swap1\n      tag_87\n      jump\t// in\n    tag_136:\n      pop\n        /* \"contracts/Profile.sol\":2144:2151  aboutMe */\n      dup2\n        /* \"contracts/Profile.sol\":2102:2109  profile */\n      0x00\n        /* \"contracts/Profile.sol\":2102:2121  profile[msg.sender] */\n      dup1\n        /* \"contracts/Profile.sol\":2110:2120  msg.sender */\n      caller\n        /* \"contracts/Profile.sol\":2102:2121  profile[msg.sender] */\n      0xffffffffffffffffffffffffffffffffffffffff\n      and\n      0xffffffffffffffffffffffffffffffffffffffff\n      and\n      dup2\n      mstore\n      0x20\n      add\n      swap1\n      dup2\n      mstore\n      0x20\n      add\n      0x00\n      keccak256\n        /* \"contracts/Profile.sol\":2102:2133  profile[msg.sender].information */\n      0x00\n      add\n        /* \"contracts/Profile.sol\":2102:2141  profile[msg.sender].information.aboutMe */\n      0x00\n      add\n        /* \"contracts/Profile.sol\":2102:2151  profile[msg.sender].information.aboutMe = aboutMe */\n      swap1\n      dup2\n      tag_137\n      swap2\n      swap1\n      tag_87\n      jump\t// in\n    tag_137:\n      pop\n        /* \"contracts/Profile.sol\":2205:2213  position */\n      dup1\n        /* \"contracts/Profile.sol\":2162:2169  profile */\n      0x00\n        /* \"contracts/Profile.sol\":2162:2181  profile[msg.sender] */\n      dup1\n        /* \"contracts/Profile.sol\":2170:2180  msg.sender */\n      caller\n        /* \"contracts/Profile.sol\":2162:2181  profile[msg.sender] */\n      0xffffffffffffffffffffffffffffffffffffffff\n      and\n      0xffffffffffffffffffffffffffffffffffffffff\n      and\n      dup2\n      mstore\n      0x20\n      add\n      swap1\n      dup2\n      mstore\n      0x20\n      add\n      0x00\n      keccak256\n        /* \"contracts/Profile.sol\":2162:2193  profile[msg.sender].information */\n      0x00\n      add\n        /* \"contracts/Profile.sol\":2162:2202  profile[msg.sender].information.position */\n      0x01\n      add\n        /* \"contracts/Profile.sol\":2162:2213  profile[msg.sender].information.position = position */\n      swap1\n      dup2\n      tag_138\n      swap2\n      swap1\n      tag_87\n      jump\t// in\n    tag_138:\n      pop\n        /* \"contracts/Profile.sol\":2270:2280  msg.sender */\n      caller\n        /* \"contracts/Profile.sol\":2224:2231  profile */\n      0x00\n        /* \"contracts/Profile.sol\":2224:2243  profile[msg.sender] */\n      dup1\n        /* \"contracts/Profile.sol\":2232:2242  msg.sender */\n      caller\n        /* \"contracts/Profile.sol\":2224:2243  profile[msg.sender] */\n      0xffffffffffffffffffffffffffffffffffffffff\n      and\n      0xffffffffffffffffffffffffffffffffffffffff\n      and\n      dup2\n      mstore\n      0x20\n      add\n      swap1\n      dup2\n      mstore\n      0x20\n      add\n      0x00\n      keccak256\n        /* \"contracts/Profile.sol\":2224:2255  profile[msg.sender].information */\n      0x00\n      add\n        /* \"contracts/Profile.sol\":2224:2267  profile[msg.sender].information.userAddress */\n      0x02\n      add\n      0x00\n        /* \"contracts/Profile.sol\":2224:2280  profile[msg.sender].information.userAddress = msg.sender */\n      0x0100\n      exp\n      dup2\n      sload\n      dup2\n      0xffffffffffffffffffffffffffffffffffffffff\n      mul\n      not\n      and\n      swap1\n      dup4\n      0xffffffffffffffffffffffffffffffffffffffff\n      and\n      mul\n      or\n      swap1\n      sstore\n      pop\n        /* \"contracts/Profile.sol\":2337:2352  block.timestamp */\n      timestamp\n        /* \"contracts/Profile.sol\":2292:2299  profile */\n      0x00\n        /* \"contracts/Profile.sol\":2292:2311  profile[msg.sender] */\n      dup1\n        /* \"contracts/Profile.sol\":2300:2310  msg.sender */\n      caller\n        /* \"contracts/Profile.sol\":2292:2311  profile[msg.sender] */\n      0xffffffffffffffffffffffffffffffffffffffff\n      and\n      0xffffffffffffffffffffffffffffffffffffffff\n      and\n      dup2\n      mstore\n      0x20\n      add\n      swap1\n      dup2\n      mstore\n      0x20\n      add\n      0x00\n      keccak256\n        /* \"contracts/Profile.sol\":2292:2323  profile[msg.sender].information */\n      0x00\n      add\n        /* \"contracts/Profile.sol\":2292:2334  profile[msg.sender].information.createDate */\n      0x07\n      add\n        /* \"contracts/Profile.sol\":2292:2352  profile[msg.sender].information.createDate = block.timestamp */\n      dup2\n      swap1\n      sstore\n      pop\n        /* \"contracts/Profile.sol\":1644:2360  function createInformation(string memory firstName, string memory middleName, string memory lastName,  string memory profileImage, string memory aboutMe, string memory position) public {... */\n      pop\n      pop\n      pop\n      pop\n      pop\n      pop\n      jump\t// out\n        /* \"contracts/Profile.sol\":5391:5483  function delInformaion() external  {... */\n    tag_59:\n        /* \"contracts/Profile.sol\":5444:5451  profile */\n      0x00\n        /* \"contracts/Profile.sol\":5444:5463  profile[msg.sender] */\n      dup1\n        /* \"contracts/Profile.sol\":5452:5462  msg.sender */\n      caller\n        /* \"contracts/Profile.sol\":5444:5463  profile[msg.sender] */\n      0xffffffffffffffffffffffffffffffffffffffff\n      and\n      0xffffffffffffffffffffffffffffffffffffffff\n      and\n      dup2\n      mstore\n      0x20\n      add\n      swap1\n      dup2\n      mstore\n      0x20\n      add\n      0x00\n      keccak256\n        /* \"contracts/Profile.sol\":5444:5475  profile[msg.sender].information */\n      0x00\n      add\n      0x00\n        /* \"contracts/Profile.sol\":5437:5475  delete profile[msg.sender].information */\n      dup1\n      dup3\n      add\n      0x00\n      tag_140\n      swap2\n      swap1\n      tag_83\n      jump\t// in\n    tag_140:\n      0x01\n      dup3\n      add\n      0x00\n      tag_141\n      swap2\n      swap1\n      tag_83\n      jump\t// in\n    tag_141:\n      0x02\n      dup3\n      add\n      exp(0x0100, 0x00)\n      dup2\n      sload\n      swap1\n      0xffffffffffffffffffffffffffffffffffffffff\n      mul\n      not\n      and\n      swap1\n      sstore\n      0x03\n      dup3\n      add\n      0x00\n      tag_142\n      swap2\n      swap1\n      tag_83\n      jump\t// in\n    tag_142:\n      0x04\n      dup3\n      add\n      0x00\n      tag_143\n      swap2\n      swap1\n      tag_83\n      jump\t// in\n    tag_143:\n      0x05\n      dup3\n      add\n      0x00\n      tag_144\n      swap2\n      swap1\n      tag_83\n      jump\t// in\n    tag_144:\n      0x06\n      dup3\n      add\n      0x00\n      tag_145\n      swap2\n      swap1\n      tag_83\n      jump\t// in\n    tag_145:\n      0x07\n      dup3\n      add\n      0x00\n      swap1\n      sstore\n      pop\n      pop\n        /* \"contracts/Profile.sol\":5391:5483  function delInformaion() external  {... */\n      jump\t// out\n        /* \"contracts/Profile.sol\":380:420  mapping (address => Bio) public  profile */\n    tag_63:\n      mstore(0x20, 0x00)\n      dup1\n      0x00\n      mstore\n      keccak256(0x00, 0x40)\n      0x00\n      swap2\n      pop\n      swap1\n      pop\n      dup1\n      0x00\n      add\n      mload(0x40)\n      dup1\n      0x0100\n      add\n      0x40\n      mstore\n      swap1\n      dup2\n      0x00\n      dup3\n      add\n      dup1\n      sload\n      tag_146\n      swap1\n      tag_147\n      jump\t// in\n    tag_146:\n      dup1\n      0x1f\n      add\n      0x20\n      dup1\n      swap2\n      div\n      mul\n      0x20\n      add\n      mload(0x40)\n      swap1\n      dup2\n      add\n      0x40\n      mstore\n      dup1\n      swap3\n      swap2\n      swap1\n      dup2\n      dup2\n      mstore\n      0x20\n      add\n      dup3\n      dup1\n      sload\n      tag_148\n      swap1\n      tag_147\n      jump\t// in\n    tag_148:\n      dup1\n      iszero\n      tag_149\n      jumpi\n      dup1\n      0x1f\n      lt\n      tag_150\n      jumpi\n      0x0100\n      dup1\n      dup4\n      sload\n      div\n      mul\n      dup4\n      mstore\n      swap2\n      0x20\n      add\n      swap2\n      jump(tag_149)\n    tag_150:\n      dup3\n      add\n      swap2\n      swap1\n      0x00\n      mstore\n      keccak256(0x00, 0x20)\n      swap1\n    tag_151:\n      dup2\n      sload\n      dup2\n      mstore\n      swap1\n      0x01\n      add\n      swap1\n      0x20\n      add\n      dup1\n      dup4\n      gt\n      tag_151\n      jumpi\n      dup3\n      swap1\n      sub\n      0x1f\n      and\n      dup3\n      add\n      swap2\n    tag_149:\n      pop\n      pop\n      pop\n      pop\n      pop\n      dup2\n      mstore\n      0x20\n      add\n      0x01\n      dup3\n      add\n      dup1\n      sload\n      tag_152\n      swap1\n      tag_147\n      jump\t// in\n    tag_152:\n      dup1\n      0x1f\n      add\n      0x20\n      dup1\n      swap2\n      div\n      mul\n      0x20\n      add\n      mload(0x40)\n      swap1\n      dup2\n      add\n      0x40\n      mstore\n      dup1\n      swap3\n      swap2\n      swap1\n      dup2\n      dup2\n      mstore\n      0x20\n      add\n      dup3\n      dup1\n      sload\n      tag_153\n      swap1\n      tag_147\n      jump\t// in\n    tag_153:\n      dup1\n      iszero\n      tag_154\n      jumpi\n      dup1\n      0x1f\n      lt\n      tag_155\n      jumpi\n      0x0100\n      dup1\n      dup4\n      sload\n      div\n      mul\n      dup4\n      mstore\n      swap2\n      0x20\n      add\n      swap2\n      jump(tag_154)\n    tag_155:\n      dup3\n      add\n      swap2\n      swap1\n      0x00\n      mstore\n      keccak256(0x00, 0x20)\n      swap1\n    tag_156:\n      dup2\n      sload\n      dup2\n      mstore\n      swap1\n      0x01\n      add\n      swap1\n      0x20\n      add\n      dup1\n      dup4\n      gt\n      tag_156\n      jumpi\n      dup3\n      swap1\n      sub\n      0x1f\n      and\n      dup3\n      add\n      swap2\n    tag_154:\n      pop\n      pop\n      pop\n      pop\n      pop\n      dup2\n      mstore\n      0x20\n      add\n      0x02\n      dup3\n      add\n      0x00\n      swap1\n      sload\n      swap1\n      0x0100\n      exp\n      swap1\n      div\n      0xffffffffffffffffffffffffffffffffffffffff\n      and\n      0xffffffffffffffffffffffffffffffffffffffff\n      and\n      0xffffffffffffffffffffffffffffffffffffffff\n      and\n      dup2\n      mstore\n      0x20\n      add\n      0x03\n      dup3\n      add\n      dup1\n      sload\n      tag_157\n      swap1\n      tag_147\n      jump\t// in\n    tag_157:\n      dup1\n      0x1f\n      add\n      0x20\n      dup1\n      swap2\n      div\n      mul\n      0x20\n      add\n      mload(0x40)\n      swap1\n      dup2\n      add\n      0x40\n      mstore\n      dup1\n      swap3\n      swap2\n      swap1\n      dup2\n      dup2\n      mstore\n      0x20\n      add\n      dup3\n      dup1\n      sload\n      tag_158\n      swap1\n      tag_147\n      jump\t// in\n    tag_158:\n      dup1\n      iszero\n      tag_159\n      jumpi\n      dup1\n      0x1f\n      lt\n      tag_160\n      jumpi\n      0x0100\n      dup1\n      dup4\n      sload\n      div\n      mul\n      dup4\n      mstore\n      swap2\n      0x20\n      add\n      swap2\n      jump(tag_159)\n    tag_160:\n      dup3\n      add\n      swap2\n      swap1\n      0x00\n      mstore\n      keccak256(0x00, 0x20)\n      swap1\n    tag_161:\n      dup2\n      sload\n      dup2\n      mstore\n      swap1\n      0x01\n      add\n      swap1\n      0x20\n      add\n      dup1\n      dup4\n      gt\n      tag_161\n      jumpi\n      dup3\n      swap1\n      sub\n      0x1f\n      and\n      dup3\n      add\n      swap2\n    tag_159:\n      pop\n      pop\n      pop\n      pop\n      pop\n      dup2\n      mstore\n      0x20\n      add\n      0x04\n      dup3\n      add\n      dup1\n      sload\n      tag_162\n      swap1\n      tag_147\n      jump\t// in\n    tag_162:\n      dup1\n      0x1f\n      add\n      0x20\n      dup1\n      swap2\n      div\n      mul\n      0x20\n      add\n      mload(0x40)\n      swap1\n      dup2\n      add\n      0x40\n      mstore\n      dup1\n      swap3\n      swap2\n      swap1\n      dup2\n      dup2\n      mstore\n      0x20\n      add\n      dup3\n      dup1\n      sload\n      tag_163\n      swap1\n      tag_147\n      jump\t// in\n    tag_163:\n      dup1\n      iszero\n      tag_164\n      jumpi\n      dup1\n      0x1f\n      lt\n      tag_165\n      jumpi\n      0x0100\n      dup1\n      dup4\n      sload\n      div\n      mul\n      dup4\n      mstore\n      swap2\n      0x20\n      add\n      swap2\n      jump(tag_164)\n    tag_165:\n      dup3\n      add\n      swap2\n      swap1\n      0x00\n      mstore\n      keccak256(0x00, 0x20)\n      swap1\n    tag_166:\n      dup2\n      sload\n      dup2\n      mstore\n      swap1\n      0x01\n      add\n      swap1\n      0x20\n      add\n      dup1\n      dup4\n      gt\n      tag_166\n      jumpi\n      dup3\n      swap1\n      sub\n      0x1f\n      and\n      dup3\n      add\n      swap2\n    tag_164:\n      pop\n      pop\n      pop\n      pop\n      pop\n      dup2\n      mstore\n      0x20\n      add\n      0x05\n      dup3\n      add\n      dup1\n      sload\n      tag_167\n      swap1\n      tag_147\n      jump\t// in\n    tag_167:\n      dup1\n      0x1f\n      add\n      0x20\n      dup1\n      swap2\n      div\n      mul\n      0x20\n      add\n      mload(0x40)\n      swap1\n      dup2\n      add\n      0x40\n      mstore\n      dup1\n      swap3\n      swap2\n      swap1\n      dup2\n      dup2\n      mstore\n      0x20\n      add\n      dup3\n      dup1\n      sload\n      tag_168\n      swap1\n      tag_147\n      jump\t// in\n    tag_168:\n      dup1\n      iszero\n      tag_169\n      jumpi\n      dup1\n      0x1f\n      lt\n      tag_170\n      jumpi\n      0x0100\n      dup1\n      dup4\n      sload\n      div\n      mul\n      dup4\n      mstore\n      swap2\n      0x20\n      add\n      swap2\n      jump(tag_169)\n    tag_170:\n      dup3\n      add\n      swap2\n      swap1\n      0x00\n      mstore\n      keccak256(0x00, 0x20)\n      swap1\n    tag_171:\n      dup2\n      sload\n      dup2\n      mstore\n      swap1\n      0x01\n      add\n      swap1\n      0x20\n      add\n      dup1\n      dup4\n      gt\n      tag_171\n      jumpi\n      dup3\n      swap1\n      sub\n      0x1f\n      and\n      dup3\n      add\n      swap2\n    tag_169:\n      pop\n      pop\n      pop\n      pop\n      pop\n      dup2\n      mstore\n      0x20\n      add\n      0x06\n      dup3\n      add\n      dup1\n      sload\n      tag_172\n      swap1\n      tag_147\n      jump\t// in\n    tag_172:\n      dup1\n      0x1f\n      add\n      0x20\n      dup1\n      swap2\n      div\n      mul\n      0x20\n      add\n      mload(0x40)\n      swap1\n      dup2\n      add\n      0x40\n      mstore\n      dup1\n      swap3\n      swap2\n      swap1\n      dup2\n      dup2\n      mstore\n      0x20\n      add\n      dup3\n      dup1\n      sload\n      tag_173\n      swap1\n      tag_147\n      jump\t// in\n    tag_173:\n      dup1\n      iszero\n      tag_174\n      jumpi\n      dup1\n      0x1f\n      lt\n      tag_175\n      jumpi\n      0x0100\n      dup1\n      dup4\n      sload\n      div\n      mul\n      dup4\n      mstore\n      swap2\n      0x20\n      add\n      swap2\n      jump(tag_174)\n    tag_175:\n      dup3\n      add\n      swap2\n      swap1\n      0x00\n      mstore\n      keccak256(0x00, 0x20)\n      swap1\n    tag_176:\n      dup2\n      sload\n      dup2\n      mstore\n      swap1\n      0x01\n      add\n      swap1\n      0x20\n      add\n      dup1\n      dup4\n      gt\n      tag_176\n      jumpi\n      dup3\n      swap1\n      sub\n      0x1f\n      and\n      dup3\n      add\n      swap2\n    tag_174:\n      pop\n      pop\n      pop\n      pop\n      pop\n      dup2\n      mstore\n      0x20\n      add\n      0x07\n      dup3\n      add\n      sload\n      dup2\n      mstore\n      pop\n      pop\n      swap1\n      dup1\n      0x08\n      add\n      mload(0x40)\n      dup1\n      0xc0\n      add\n      0x40\n      mstore\n      swap1\n      dup2\n      0x00\n      dup3\n      add\n      dup1\n      sload\n      tag_177\n      swap1\n      tag_147\n      jump\t// in\n    tag_177:\n      dup1\n      0x1f\n      add\n      0x20\n      dup1\n      swap2\n      div\n      mul\n      0x20\n      add\n      mload(0x40)\n      swap1\n      dup2\n      add\n      0x40\n      mstore\n      dup1\n      swap3\n      swap2\n      swap1\n      dup2\n      dup2\n      mstore\n      0x20\n      add\n      dup3\n      dup1\n      sload\n      tag_178\n      swap1\n      tag_147\n      jump\t// in\n    tag_178:\n      dup1\n      iszero\n      tag_179\n      jumpi\n      dup1\n      0x1f\n      lt\n      tag_180\n      jumpi\n      0x0100\n      dup1\n      dup4\n      sload\n      div\n      mul\n      dup4\n      mstore\n      swap2\n      0x20\n      add\n      swap2\n      jump(tag_179)\n    tag_180:\n      dup3\n      add\n      swap2\n      swap1\n      0x00\n      mstore\n      keccak256(0x00, 0x20)\n      swap1\n    tag_181:\n      dup2\n      sload\n      dup2\n      mstore\n      swap1\n      0x01\n      add\n      swap1\n      0x20\n      add\n      dup1\n      dup4\n      gt\n      tag_181\n      jumpi\n      dup3\n      swap1\n      sub\n      0x1f\n      and\n      dup3\n      add\n      swap2\n    tag_179:\n      pop\n      pop\n      pop\n      pop\n      pop\n      dup2\n      mstore\n      0x20\n      add\n      0x01\n      dup3\n      add\n      dup1\n      sload\n      tag_182\n      swap1\n      tag_147\n      jump\t// in\n    tag_182:\n      dup1\n      0x1f\n      add\n      0x20\n      dup1\n      swap2\n      div\n      mul\n      0x20\n      add\n      mload(0x40)\n      swap1\n      dup2\n      add\n      0x40\n      mstore\n      dup1\n      swap3\n      swap2\n      swap1\n      dup2\n      dup2\n      mstore\n      0x20\n      add\n      dup3\n      dup1\n      sload\n      tag_183\n      swap1\n      tag_147\n      jump\t// in\n    tag_183:\n      dup1\n      iszero\n      tag_184\n      jumpi\n      dup1\n      0x1f\n      lt\n      tag_185\n      jumpi\n      0x0100\n      dup1\n      dup4\n      sload\n      div\n      mul\n      dup4\n      mstore\n      swap2\n      0x20\n      add\n      swap2\n      jump(tag_184)\n    tag_185:\n      dup3\n      add\n      swap2\n      swap1\n      0x00\n      mstore\n      keccak256(0x00, 0x20)\n      swap1\n    tag_186:\n      dup2\n      sload\n      dup2\n      mstore\n      swap1\n      0x01\n      add\n      swap1\n      0x20\n      add\n      dup1\n      dup4\n      gt\n      tag_186\n      jumpi\n      dup3\n      swap1\n      sub\n      0x1f\n      and\n      dup3\n      add\n      swap2\n    tag_184:\n      pop\n      pop\n      pop\n      pop\n      pop\n      dup2\n      mstore\n      0x20\n      add\n      0x02\n      dup3\n      add\n      dup1\n      sload\n      tag_187\n      swap1\n      tag_147\n      jump\t// in\n    tag_187:\n      dup1\n      0x1f\n      add\n      0x20\n      dup1\n      swap2\n      div\n      mul\n      0x20\n      add\n      mload(0x40)\n      swap1\n      dup2\n      add\n      0x40\n      mstore\n      dup1\n      swap3\n      swap2\n      swap1\n      dup2\n      dup2\n      mstore\n      0x20\n      add\n      dup3\n      dup1\n      sload\n      tag_188\n      swap1\n      tag_147\n      jump\t// in\n    tag_188:\n      dup1\n      iszero\n      tag_189\n      jumpi\n      dup1\n      0x1f\n      lt\n      tag_190\n      jumpi\n      0x0100\n      dup1\n      dup4\n      sload\n      div\n      mul\n      dup4\n      mstore\n      swap2\n      0x20\n      add\n      swap2\n      jump(tag_189)\n    tag_190:\n      dup3\n      add\n      swap2\n      swap1\n      0x00\n      mstore\n      keccak256(0x00, 0x20)\n      swap1\n    tag_191:\n      dup2\n      sload\n      dup2\n      mstore\n      swap1\n      0x01\n      add\n      swap1\n      0x20\n      add\n      dup1\n      dup4\n      gt\n      tag_191\n      jumpi\n      dup3\n      swap1\n      sub\n      0x1f\n      and\n      dup3\n      add\n      swap2\n    tag_189:\n      pop\n      pop\n      pop\n      pop\n      pop\n      dup2\n      mstore\n      0x20\n      add\n      0x03\n      dup3\n      add\n      dup1\n      sload\n      tag_192\n      swap1\n      tag_147\n      jump\t// in\n    tag_192:\n      dup1\n      0x1f\n      add\n      0x20\n      dup1\n      swap2\n      div\n      mul\n      0x20\n      add\n      mload(0x40)\n      swap1\n      dup2\n      add\n      0x40\n      mstore\n      dup1\n      swap3\n      swap2\n      swap1\n      dup2\n      dup2\n      mstore\n      0x20\n      add\n      dup3\n      dup1\n      sload\n      tag_193\n      swap1\n      tag_147\n      jump\t// in\n    tag_193:\n      dup1\n      iszero\n      tag_194\n      jumpi\n      dup1\n      0x1f\n      lt\n      tag_195\n      jumpi\n      0x0100\n      dup1\n      dup4\n      sload\n      div\n      mul\n      dup4\n      mstore\n      swap2\n      0x20\n      add\n      swap2\n      jump(tag_194)\n    tag_195:\n      dup3\n      add\n      swap2\n      swap1\n      0x00\n      mstore\n      keccak256(0x00, 0x20)\n      swap1\n    tag_196:\n      dup2\n      sload\n      dup2\n      mstore\n      swap1\n      0x01\n      add\n      swap1\n      0x20\n      add\n      dup1\n      dup4\n      gt\n      tag_196\n      jumpi\n      dup3\n      swap1\n      sub\n      0x1f\n      and\n      dup3\n      add\n      swap2\n    tag_194:\n      pop\n      pop\n      pop\n      pop\n      pop\n      dup2\n      mstore\n      0x20\n      add\n      0x04\n      dup3\n      add\n      dup1\n      sload\n      tag_197\n      swap1\n      tag_147\n      jump\t// in\n    tag_197:\n      dup1\n      0x1f\n      add\n      0x20\n      dup1\n      swap2\n      div\n      mul\n      0x20\n      add\n      mload(0x40)\n      swap1\n      dup2\n      add\n      0x40\n      mstore\n      dup1\n      swap3\n      swap2\n      swap1\n      dup2\n      dup2\n      mstore\n      0x20\n      add\n      dup3\n      dup1\n      sload\n      tag_198\n      swap1\n      tag_147\n      jump\t// in\n    tag_198:\n      dup1\n      iszero\n      tag_199\n      jumpi\n      dup1\n      0x1f\n      lt\n      tag_200\n      jumpi\n      0x0100\n      dup1\n      dup4\n      sload\n      div\n      mul\n      dup4\n      mstore\n      swap2\n      0x20\n      add\n      swap2\n      jump(tag_199)\n    tag_200:\n      dup3\n      add\n      swap2\n      swap1\n      0x00\n      mstore\n      keccak256(0x00, 0x20)\n      swap1\n    tag_201:\n      dup2\n      sload\n      dup2\n      mstore\n      swap1\n      0x01\n      add\n      swap1\n      0x20\n      add\n      dup1\n      dup4\n      gt\n      tag_201\n      jumpi\n      dup3\n      swap1\n      sub\n      0x1f\n      and\n      dup3\n      add\n      swap2\n    tag_199:\n      pop\n      pop\n      pop\n      pop\n      pop\n      dup2\n      mstore\n      0x20\n      add\n      0x05\n      dup3\n      add\n      dup1\n      sload\n      tag_202\n      swap1\n      tag_147\n      jump\t// in\n    tag_202:\n      dup1\n      0x1f\n      add\n      0x20\n      dup1\n      swap2\n      div\n      mul\n      0x20\n      add\n      mload(0x40)\n      swap1\n      dup2\n      add\n      0x40\n      mstore\n      dup1\n      swap3\n      swap2\n      swap1\n      dup2\n      dup2\n      mstore\n      0x20\n      add\n      dup3\n      dup1\n      sload\n      tag_203\n      swap1\n      tag_147\n      jump\t// in\n    tag_203:\n      dup1\n      iszero\n      tag_204\n      jumpi\n      dup1\n      0x1f\n      lt\n      tag_205\n      jumpi\n      0x0100\n      dup1\n      dup4\n      sload\n      div\n      mul\n      dup4\n      mstore\n      swap2\n      0x20\n      add\n      swap2\n      jump(tag_204)\n    tag_205:\n      dup3\n      add\n      swap2\n      swap1\n      0x00\n      mstore\n      keccak256(0x00, 0x20)\n      swap1\n    tag_206:\n      dup2\n      sload\n      dup2\n      mstore\n      swap1\n      0x01\n      add\n      swap1\n      0x20\n      add\n      dup1\n      dup4\n      gt\n      tag_206\n      jumpi\n      dup3\n      swap1\n      sub\n      0x1f\n      and\n      dup3\n      add\n      swap2\n    tag_204:\n      pop\n      pop\n      pop\n      pop\n      pop\n      dup2\n      mstore\n      pop\n      pop\n      swap1\n      dup1\n      0x0e\n      add\n      mload(0x40)\n      dup1\n      0x60\n      add\n      0x40\n      mstore\n      swap1\n      dup2\n      0x00\n      dup3\n      add\n      dup1\n      sload\n      dup1\n      0x20\n      mul\n      0x20\n      add\n      mload(0x40)\n      swap1\n      dup2\n      add\n      0x40\n      mstore\n      dup1\n      swap3\n      swap2\n      swap1\n      dup2\n      dup2\n      mstore\n      0x20\n      add\n      0x00\n      swap1\n    tag_207:\n      dup3\n      dup3\n      lt\n      iszero\n      tag_208\n      jumpi\n      dup4\n      dup3\n      swap1\n      0x00\n      mstore\n      keccak256(0x00, 0x20)\n      add\n      dup1\n      sload\n      tag_210\n      swap1\n      tag_147\n      jump\t// in\n    tag_210:\n      dup1\n      0x1f\n      add\n      0x20\n      dup1\n      swap2\n      div\n      mul\n      0x20\n      add\n      mload(0x40)\n      swap1\n      dup2\n      add\n      0x40\n      mstore\n      dup1\n      swap3\n      swap2\n      swap1\n      dup2\n      dup2\n      mstore\n      0x20\n      add\n      dup3\n      dup1\n      sload\n      tag_211\n      swap1\n      tag_147\n      jump\t// in\n    tag_211:\n      dup1\n      iszero\n      tag_212\n      jumpi\n      dup1\n      0x1f\n      lt\n      tag_213\n      jumpi\n      0x0100\n      dup1\n      dup4\n      sload\n      div\n      mul\n      dup4\n      mstore\n      swap2\n      0x20\n      add\n      swap2\n      jump(tag_212)\n    tag_213:\n      dup3\n      add\n      swap2\n      swap1\n      0x00\n      mstore\n      keccak256(0x00, 0x20)\n      swap1\n    tag_214:\n      dup2\n      sload\n      dup2\n      mstore\n      swap1\n      0x01\n      add\n      swap1\n      0x20\n      add\n      dup1\n      dup4\n      gt\n      tag_214\n      jumpi\n      dup3\n      swap1\n      sub\n      0x1f\n      and\n      dup3\n      add\n      swap2\n    tag_212:\n      pop\n      pop\n      pop\n      pop\n      pop\n      dup2\n      mstore\n      0x20\n      add\n      swap1\n      0x01\n      add\n      swap1\n      jump(tag_207)\n    tag_208:\n      pop\n      pop\n      pop\n      pop\n      dup2\n      mstore\n      0x20\n      add\n      0x01\n      dup3\n      add\n      dup1\n      sload\n      dup1\n      0x20\n      mul\n      0x20\n      add\n      mload(0x40)\n      swap1\n      dup2\n      add\n      0x40\n      mstore\n      dup1\n      swap3\n      swap2\n      swap1\n      dup2\n      dup2\n      mstore\n      0x20\n      add\n      0x00\n      swap1\n    tag_215:\n      dup3\n      dup3\n      lt\n      iszero\n      tag_216\n      jumpi\n      dup4\n      dup3\n      swap1\n      0x00\n      mstore\n      keccak256(0x00, 0x20)\n      add\n      dup1\n      sload\n      tag_218\n      swap1\n      tag_147\n      jump\t// in\n    tag_218:\n      dup1\n      0x1f\n      add\n      0x20\n      dup1\n      swap2\n      div\n      mul\n      0x20\n      add\n      mload(0x40)\n      swap1\n      dup2\n      add\n      0x40\n      mstore\n      dup1\n      swap3\n      swap2\n      swap1\n      dup2\n      dup2\n      mstore\n      0x20\n      add\n      dup3\n      dup1\n      sload\n      tag_219\n      swap1\n      tag_147\n      jump\t// in\n    tag_219:\n      dup1\n      iszero\n      tag_220\n      jumpi\n      dup1\n      0x1f\n      lt\n      tag_221\n      jumpi\n      0x0100\n      dup1\n      dup4\n      sload\n      div\n      mul\n      dup4\n      mstore\n      swap2\n      0x20\n      add\n      swap2\n      jump(tag_220)\n    tag_221:\n      dup3\n      add\n      swap2\n      swap1\n      0x00\n      mstore\n      keccak256(0x00, 0x20)\n      swap1\n    tag_222:\n      dup2\n      sload\n      dup2\n      mstore\n      swap1\n      0x01\n      add\n      swap1\n      0x20\n      add\n      dup1\n      dup4\n      gt\n      tag_222\n      jumpi\n      dup3\n      swap1\n      sub\n      0x1f\n      and\n      dup3\n      add\n      swap2\n    tag_220:\n      pop\n      pop\n      pop\n      pop\n      pop\n      dup2\n      mstore\n      0x20\n      add\n      swap1\n      0x01\n      add\n      swap1\n      jump(tag_215)\n    tag_216:\n      pop\n      pop\n      pop\n      pop\n      dup2\n      mstore\n      0x20\n      add\n      0x02\n      dup3\n      add\n      dup1\n      sload\n      dup1\n      0x20\n      mul\n      0x20\n      add\n      mload(0x40)\n      swap1\n      dup2\n      add\n      0x40\n      mstore\n      dup1\n      swap3\n      swap2\n      swap1\n      dup2\n      dup2\n      mstore\n      0x20\n      add\n      0x00\n      swap1\n    tag_223:\n      dup3\n      dup3\n      lt\n      iszero\n      tag_224\n      jumpi\n      dup4\n      dup3\n      swap1\n      0x00\n      mstore\n      keccak256(0x00, 0x20)\n      add\n      dup1\n      sload\n      tag_226\n      swap1\n      tag_147\n      jump\t// in\n    tag_226:\n      dup1\n      0x1f\n      add\n      0x20\n      dup1\n      swap2\n      div\n      mul\n      0x20\n      add\n      mload(0x40)\n      swap1\n      dup2\n      add\n      0x40\n      mstore\n      dup1\n      swap3\n      swap2\n      swap1\n      dup2\n      dup2\n      mstore\n      0x20\n      add\n      dup3\n      dup1\n      sload\n      tag_227\n      swap1\n      tag_147\n      jump\t// in\n    tag_227:\n      dup1\n      iszero\n      tag_228\n      jumpi\n      dup1\n      0x1f\n      lt\n      tag_229\n      jumpi\n      0x0100\n      dup1\n      dup4\n      sload\n      div\n      mul\n      dup4\n      mstore\n      swap2\n      0x20\n      add\n      swap2\n      jump(tag_228)\n    tag_229:\n      dup3\n      add\n      swap2\n      swap1\n      0x00\n      mstore\n      keccak256(0x00, 0x20)\n      swap1\n    tag_230:\n      dup2\n      sload\n      dup2\n      mstore\n      swap1\n      0x01\n      add\n      swap1\n      0x20\n      add\n      dup1\n      dup4\n      gt\n      tag_230\n      jumpi\n      dup3\n      swap1\n      sub\n      0x1f\n      and\n      dup3\n      add\n      swap2\n    tag_228:\n      pop\n      pop\n      pop\n      pop\n      pop\n      dup2\n      mstore\n      0x20\n      add\n      swap1\n      0x01\n      add\n      swap1\n      jump(tag_223)\n    tag_224:\n      pop\n      pop\n      pop\n      pop\n      dup2\n      mstore\n      pop\n      pop\n      swap1\n      dup1\n      0x12\n      add\n      mload(0x40)\n      dup1\n      0x40\n      add\n      0x40\n      mstore\n      swap1\n      dup2\n      0x00\n      dup3\n      add\n      dup1\n      sload\n      dup1\n      0x20\n      mul\n      0x20\n      add\n      mload(0x40)\n      swap1\n      dup2\n      add\n      0x40\n      mstore\n      dup1\n      swap3\n      swap2\n      swap1\n      dup2\n      dup2\n      mstore\n      0x20\n      add\n      0x00\n      swap1\n    tag_231:\n      dup3\n      dup3\n      lt\n      iszero\n      tag_232\n      jumpi\n      dup4\n      dup3\n      swap1\n      0x00\n      mstore\n      keccak256(0x00, 0x20)\n      add\n      dup1\n      sload\n      tag_234\n      swap1\n      tag_147\n      jump\t// in\n    tag_234:\n      dup1\n      0x1f\n      add\n      0x20\n      dup1\n      swap2\n      div\n      mul\n      0x20\n      add\n      mload(0x40)\n      swap1\n      dup2\n      add\n      0x40\n      mstore\n      dup1\n      swap3\n      swap2\n      swap1\n      dup2\n      dup2\n      mstore\n      0x20\n      add\n      dup3\n      dup1\n      sload\n      tag_235\n      swap1\n      tag_147\n      jump\t// in\n    tag_235:\n      dup1\n      iszero\n      tag_236\n      jumpi\n      dup1\n      0x1f\n      lt\n      tag_237\n      jumpi\n      0x0100\n      dup1\n      dup4\n      sload\n      div\n      mul\n      dup4\n      mstore\n      swap2\n      0x20\n      add\n      swap2\n      jump(tag_236)\n    tag_237:\n      dup3\n      add\n      swap2\n      swap1\n      0x00\n      mstore\n      keccak256(0x00, 0x20)\n      swap1\n    tag_238:\n      dup2\n      sload\n      dup2\n      mstore\n      swap1\n      0x01\n      add\n      swap1\n      0x20\n      add\n      dup1\n      dup4\n      gt\n      tag_238\n      jumpi\n      dup3\n      swap1\n      sub\n      0x1f\n      and\n      dup3\n      add\n      swap2\n    tag_236:\n      pop\n      pop\n      pop\n      pop\n      pop\n      dup2\n      mstore\n      0x20\n      add\n      swap1\n      0x01\n      add\n      swap1\n      jump(tag_231)\n    tag_232:\n      pop\n      pop\n      pop\n      pop\n      dup2\n      mstore\n      0x20\n      add\n      0x01\n      dup3\n      add\n      dup1\n      sload\n      dup1\n      0x20\n      mul\n      0x20\n      add\n      mload(0x40)\n      swap1\n      dup2\n      add\n      0x40\n      mstore\n      dup1\n      swap3\n      swap2\n      swap1\n      dup2\n      dup2\n      mstore\n      0x20\n      add\n      0x00\n      swap1\n    tag_239:\n      dup3\n      dup3\n      lt\n      iszero\n      tag_240\n      jumpi\n      dup4\n      dup3\n      swap1\n      0x00\n      mstore\n      keccak256(0x00, 0x20)\n      add\n      dup1\n      sload\n      tag_242\n      swap1\n      tag_147\n      jump\t// in\n    tag_242:\n      dup1\n      0x1f\n      add\n      0x20\n      dup1\n      swap2\n      div\n      mul\n      0x20\n      add\n      mload(0x40)\n      swap1\n      dup2\n      add\n      0x40\n      mstore\n      dup1\n      swap3\n      swap2\n      swap1\n      dup2\n      dup2\n      mstore\n      0x20\n      add\n      dup3\n      dup1\n      sload\n      tag_243\n      swap1\n      tag_147\n      jump\t// in\n    tag_243:\n      dup1\n      iszero\n      tag_244\n      jumpi\n      dup1\n      0x1f\n      lt\n      tag_245\n      jumpi\n      0x0100\n      dup1\n      dup4\n      sload\n      div\n      mul\n      dup4\n      mstore\n      swap2\n      0x20\n      add\n      swap2\n      jump(tag_244)\n    tag_245:\n      dup3\n      add\n      swap2\n      swap1\n      0x00\n      mstore\n      keccak256(0x00, 0x20)\n      swap1\n    tag_246:\n      dup2\n      sload\n      dup2\n      mstore\n      swap1\n      0x01\n      add\n      swap1\n      0x20\n      add\n      dup1\n      dup4\n      gt\n      tag_246\n      jumpi\n      dup3\n      swap1\n      sub\n      0x1f\n      and\n      dup3\n      add\n      swap2\n    tag_244:\n      pop\n      pop\n      pop\n      pop\n      pop\n      dup2\n      mstore\n      0x20\n      add\n      swap1\n      0x01\n      add\n      swap1\n      jump(tag_239)\n    tag_240:\n      pop\n      pop\n      pop\n      pop\n      dup2\n      mstore\n      pop\n      pop\n      swap1\n      dup1\n      0x14\n      add\n      mload(0x40)\n      dup1\n      0xa0\n      add\n      0x40\n      mstore\n      swap1\n      dup2\n      0x00\n      dup3\n      add\n      dup1\n      sload\n      tag_247\n      swap1\n      tag_147\n      jump\t// in\n    tag_247:\n      dup1\n      0x1f\n      add\n      0x20\n      dup1\n      swap2\n      div\n      mul\n      0x20\n      add\n      mload(0x40)\n      swap1\n      dup2\n      add\n      0x40\n      mstore\n      dup1\n      swap3\n      swap2\n      swap1\n      dup2\n      dup2\n      mstore\n      0x20\n      add\n      dup3\n      dup1\n      sload\n      tag_248\n      swap1\n      tag_147\n      jump\t// in\n    tag_248:\n      dup1\n      iszero\n      tag_249\n      jumpi\n      dup1\n      0x1f\n      lt\n      tag_250\n      jumpi\n      0x0100\n      dup1\n      dup4\n      sload\n      div\n      mul\n      dup4\n      mstore\n      swap2\n      0x20\n      add\n      swap2\n      jump(tag_249)\n    tag_250:\n      dup3\n      add\n      swap2\n      swap1\n      0x00\n      mstore\n      keccak256(0x00, 0x20)\n      swap1\n    tag_251:\n      dup2\n      sload\n      dup2\n      mstore\n      swap1\n      0x01\n      add\n      swap1\n      0x20\n      add\n      dup1\n      dup4\n      gt\n      tag_251\n      jumpi\n      dup3\n      swap1\n      sub\n      0x1f\n      and\n      dup3\n      add\n      swap2\n    tag_249:\n      pop\n      pop\n      pop\n      pop\n      pop\n      dup2\n      mstore\n      0x20\n      add\n      0x01\n      dup3\n      add\n      dup1\n      sload\n      tag_252\n      swap1\n      tag_147\n      jump\t// in\n    tag_252:\n      dup1\n      0x1f\n      add\n      0x20\n      dup1\n      swap2\n      div\n      mul\n      0x20\n      add\n      mload(0x40)\n      swap1\n      dup2\n      add\n      0x40\n      mstore\n      dup1\n      swap3\n      swap2\n      swap1\n      dup2\n      dup2\n      mstore\n      0x20\n      add\n      dup3\n      dup1\n      sload\n      tag_253\n      swap1\n      tag_147\n      jump\t// in\n    tag_253:\n      dup1\n      iszero\n      tag_254\n      jumpi\n      dup1\n      0x1f\n      lt\n      tag_255\n      jumpi\n      0x0100\n      dup1\n      dup4\n      sload\n      div\n      mul\n      dup4\n      mstore\n      swap2\n      0x20\n      add\n      swap2\n      jump(tag_254)\n    tag_255:\n      dup3\n      add\n      swap2\n      swap1\n      0x00\n      mstore\n      keccak256(0x00, 0x20)\n      swap1\n    tag_256:\n      dup2\n      sload\n      dup2\n      mstore\n      swap1\n      0x01\n      add\n      swap1\n      0x20\n      add\n      dup1\n      dup4\n      gt\n      tag_256\n      jumpi\n      dup3\n      swap1\n      sub\n      0x1f\n      and\n      dup3\n      add\n      swap2\n    tag_254:\n      pop\n      pop\n      pop\n      pop\n      pop\n      dup2\n      mstore\n      0x20\n      add\n      0x02\n      dup3\n      add\n      dup1\n      sload\n      tag_257\n      swap1\n      tag_147\n      jump\t// in\n    tag_257:\n      dup1\n      0x1f\n      add\n      0x20\n      dup1\n      swap2\n      div\n      mul\n      0x20\n      add\n      mload(0x40)\n      swap1\n      dup2\n      add\n      0x40\n      mstore\n      dup1\n      swap3\n      swap2\n      swap1\n      dup2\n      dup2\n      mstore\n      0x20\n      add\n      dup3\n      dup1\n      sload\n      tag_258\n      swap1\n      tag_147\n      jump\t// in\n    tag_258:\n      dup1\n      iszero\n      tag_259\n      jumpi\n      dup1\n      0x1f\n      lt\n      tag_260\n      jumpi\n      0x0100\n      dup1\n      dup4\n      sload\n      div\n      mul\n      dup4\n      mstore\n      swap2\n      0x20\n      add\n      swap2\n      jump(tag_259)\n    tag_260:\n      dup3\n      add\n      swap2\n      swap1\n      0x00\n      mstore\n      keccak256(0x00, 0x20)\n      swap1\n    tag_261:\n      dup2\n      sload\n      dup2\n      mstore\n      swap1\n      0x01\n      add\n      swap1\n      0x20\n      add\n      dup1\n      dup4\n      gt\n      tag_261\n      jumpi\n      dup3\n      swap1\n      sub\n      0x1f\n      and\n      dup3\n      add\n      swap2\n    tag_259:\n      pop\n      pop\n      pop\n      pop\n      pop\n      dup2\n      mstore\n      0x20\n      add\n      0x03\n      dup3\n      add\n      dup1\n      sload\n      tag_262\n      swap1\n      tag_147\n      jump\t// in\n    tag_262:\n      dup1\n      0x1f\n      add\n      0x20\n      dup1\n      swap2\n      div\n      mul\n      0x20\n      add\n      mload(0x40)\n      swap1\n      dup2\n      add\n      0x40\n      mstore\n      dup1\n      swap3\n      swap2\n      swap1\n      dup2\n      dup2\n      mstore\n      0x20\n      add\n      dup3\n      dup1\n      sload\n      tag_263\n      swap1\n      tag_147\n      jump\t// in\n    tag_263:\n      dup1\n      iszero\n      tag_264\n      jumpi\n      dup1\n      0x1f\n      lt\n      tag_265\n      jumpi\n      0x0100\n      dup1\n      dup4\n      sload\n      div\n      mul\n      dup4\n      mstore\n      swap2\n      0x20\n      add\n      swap2\n      jump(tag_264)\n    tag_265:\n      dup3\n      add\n      swap2\n      swap1\n      0x00\n      mstore\n      keccak256(0x00, 0x20)\n      swap1\n    tag_266:\n      dup2\n      sload\n      dup2\n      mstore\n      swap1\n      0x01\n      add\n      swap1\n      0x20\n      add\n      dup1\n      dup4\n      gt\n      tag_266\n      jumpi\n      dup3\n      swap1\n      sub\n      0x1f\n      and\n      dup3\n      add\n      swap2\n    tag_264:\n      pop\n      pop\n      pop\n      pop\n      pop\n      dup2\n      mstore\n      0x20\n      add\n      0x04\n      dup3\n      add\n      dup1\n      sload\n      dup1\n      0x20\n      mul\n      0x20\n      add\n      mload(0x40)\n      swap1\n      dup2\n      add\n      0x40\n      mstore\n      dup1\n      swap3\n      swap2\n      swap1\n      dup2\n      dup2\n      mstore\n      0x20\n      add\n      0x00\n      swap1\n    tag_267:\n      dup3\n      dup3\n      lt\n      iszero\n      tag_268\n      jumpi\n      dup4\n      dup3\n      swap1\n      0x00\n      mstore\n      keccak256(0x00, 0x20)\n      add\n      dup1\n      sload\n      tag_270\n      swap1\n      tag_147\n      jump\t// in\n    tag_270:\n      dup1\n      0x1f\n      add\n      0x20\n      dup1\n      swap2\n      div\n      mul\n      0x20\n      add\n      mload(0x40)\n      swap1\n      dup2\n      add\n      0x40\n      mstore\n      dup1\n      swap3\n      swap2\n      swap1\n      dup2\n      dup2\n      mstore\n      0x20\n      add\n      dup3\n      dup1\n      sload\n      tag_271\n      swap1\n      tag_147\n      jump\t// in\n    tag_271:\n      dup1\n      iszero\n      tag_272\n      jumpi\n      dup1\n      0x1f\n      lt\n      tag_273\n      jumpi\n      0x0100\n      dup1\n      dup4\n      sload\n      div\n      mul\n      dup4\n      mstore\n      swap2\n      0x20\n      add\n      swap2\n      jump(tag_272)\n    tag_273:\n      dup3\n      add\n      swap2\n      swap1\n      0x00\n      mstore\n      keccak256(0x00, 0x20)\n      swap1\n    tag_274:\n      dup2\n      sload\n      dup2\n      mstore\n      swap1\n      0x01\n      add\n      swap1\n      0x20\n      add\n      dup1\n      dup4\n      gt\n      tag_274\n      jumpi\n      dup3\n      swap1\n      sub\n      0x1f\n      and\n      dup3\n      add\n      swap2\n    tag_272:\n      pop\n      pop\n      pop\n      pop\n      pop\n      dup2\n      mstore\n      0x20\n      add\n      swap1\n      0x01\n      add\n      swap1\n      jump(tag_267)\n    tag_268:\n      pop\n      pop\n      pop\n      pop\n      dup2\n      mstore\n      pop\n      pop\n      swap1\n      dup1\n      0x19\n      add\n      mload(0x40)\n      dup1\n      0x40\n      add\n      0x40\n      mstore\n      swap1\n      dup2\n      0x00\n      dup3\n      add\n      dup1\n      sload\n      tag_275\n      swap1\n      tag_147\n      jump\t// in\n    tag_275:\n      dup1\n      0x1f\n      add\n      0x20\n      dup1\n      swap2\n      div\n      mul\n      0x20\n      add\n      mload(0x40)\n      swap1\n      dup2\n      add\n      0x40\n      mstore\n      dup1\n      swap3\n      swap2\n      swap1\n      dup2\n      dup2\n      mstore\n      0x20\n      add\n      dup3\n      dup1\n      sload\n      tag_276\n      swap1\n      tag_147\n      jump\t// in\n    tag_276:\n      dup1\n      iszero\n      tag_277\n      jumpi\n      dup1\n      0x1f\n      lt\n      tag_278\n      jumpi\n      0x0100\n      dup1\n      dup4\n      sload\n      div\n      mul\n      dup4\n      mstore\n      swap2\n      0x20\n      add\n      swap2\n      jump(tag_277)\n    tag_278:\n      dup3\n      add\n      swap2\n      swap1\n      0x00\n      mstore\n      keccak256(0x00, 0x20)\n      swap1\n    tag_279:\n      dup2\n      sload\n      dup2\n      mstore\n      swap1\n      0x01\n      add\n      swap1\n      0x20\n      add\n      dup1\n      dup4\n      gt\n      tag_279\n      jumpi\n      dup3\n      swap1\n      sub\n      0x1f\n      and\n      dup3\n      add\n      swap2\n    tag_277:\n      pop\n      pop\n      pop\n      pop\n      pop\n      dup2\n      mstore\n      0x20\n      add\n      0x01\n      dup3\n      add\n      dup1\n      sload\n      tag_280\n      swap1\n      tag_147\n      jump\t// in\n    tag_280:\n      dup1\n      0x1f\n      add\n      0x20\n      dup1\n      swap2\n      div\n      mul\n      0x20\n      add\n      mload(0x40)\n      swap1\n      dup2\n      add\n      0x40\n      mstore\n      dup1\n      swap3\n      swap2\n      swap1\n      dup2\n      dup2\n      mstore\n      0x20\n      add\n      dup3\n      dup1\n      sload\n      tag_281\n      swap1\n      tag_147\n      jump\t// in\n    tag_281:\n      dup1\n      iszero\n      tag_282\n      jumpi\n      dup1\n      0x1f\n      lt\n      tag_283\n      jumpi\n      0x0100\n      dup1\n      dup4\n      sload\n      div\n      mul\n      dup4\n      mstore\n      swap2\n      0x20\n      add\n      swap2\n      jump(tag_282)\n    tag_283:\n      dup3\n      add\n      swap2\n      swap1\n      0x00\n      mstore\n      keccak256(0x00, 0x20)\n      swap1\n    tag_284:\n      dup2\n      sload\n      dup2\n      mstore\n      swap1\n      0x01\n      add\n      swap1\n      0x20\n      add\n      dup1\n      dup4\n      gt\n      tag_284\n      jumpi\n      dup3\n      swap1\n      sub\n      0x1f\n      and\n      dup3\n      add\n      swap2\n    tag_282:\n      pop\n      pop\n      pop\n      pop\n      pop\n      dup2\n      mstore\n      pop\n      pop\n      swap1\n      pop\n      dup7\n      jump\t// out\n        /* \"contracts/Profile.sol\":5807:5911  function delCompanyExperience() external {... */\n    tag_67:\n        /* \"contracts/Profile.sol\":5866:5873  profile */\n      0x00\n        /* \"contracts/Profile.sol\":5866:5885  profile[msg.sender] */\n      dup1\n        /* \"contracts/Profile.sol\":5874:5884  msg.sender */\n      caller\n        /* \"contracts/Profile.sol\":5866:5885  profile[msg.sender] */\n      0xffffffffffffffffffffffffffffffffffffffff\n      and\n      0xffffffffffffffffffffffffffffffffffffffff\n      and\n      dup2\n      mstore\n      0x20\n      add\n      swap1\n      dup2\n      mstore\n      0x20\n      add\n      0x00\n      keccak256\n        /* \"contracts/Profile.sol\":5866:5903  profile[msg.sender].companyExperience */\n      0x14\n      add\n      0x00\n        /* \"contracts/Profile.sol\":5859:5903  delete profile[msg.sender].companyExperience */\n      dup1\n      dup3\n      add\n      0x00\n      tag_286\n      swap2\n      swap1\n      tag_83\n      jump\t// in\n    tag_286:\n      0x01\n      dup3\n      add\n      0x00\n      tag_287\n      swap2\n      swap1\n      tag_83\n      jump\t// in\n    tag_287:\n      0x02\n      dup3\n      add\n      0x00\n      tag_288\n      swap2\n      swap1\n      tag_83\n      jump\t// in\n    tag_288:\n      0x03\n      dup3\n      add\n      0x00\n      tag_289\n      swap2\n      swap1\n      tag_83\n      jump\t// in\n    tag_289:\n      0x04\n      dup3\n      add\n      0x00\n      tag_290\n      swap2\n      swap1\n      tag_98\n      jump\t// in\n    tag_290:\n      pop\n      pop\n        /* \"contracts/Profile.sol\":5807:5911  function delCompanyExperience() external {... */\n      jump\t// out\n        /* \"contracts/Profile.sol\":1530:1632  function myBalance() public view returns(uint256){... */\n    tag_69:\n        /* \"contracts/Profile.sol\":1571:1578  uint256 */\n      0x00\n        /* \"contracts/Profile.sol\":1605:1615  msg.sender */\n      caller\n        /* \"contracts/Profile.sol\":1597:1624  address(msg.sender).balance */\n      0xffffffffffffffffffffffffffffffffffffffff\n      and\n      balance\n        /* \"contracts/Profile.sol\":1590:1624  return address(msg.sender).balance */\n      swap1\n      pop\n        /* \"contracts/Profile.sol\":1530:1632  function myBalance() public view returns(uint256){... */\n      swap1\n      jump\t// out\n        /* \"contracts/Profile.sol\":5291:5383  function delAllEducation() external  {... */\n    tag_72:\n        /* \"contracts/Profile.sol\":5346:5353  profile */\n      0x00\n        /* \"contracts/Profile.sol\":5346:5365  profile[msg.sender] */\n      dup1\n        /* \"contracts/Profile.sol\":5354:5364  msg.sender */\n      caller\n        /* \"contracts/Profile.sol\":5346:5365  profile[msg.sender] */\n      0xffffffffffffffffffffffffffffffffffffffff\n      and\n      0xffffffffffffffffffffffffffffffffffffffff\n      and\n      dup2\n      mstore\n      0x20\n      add\n      swap1\n      dup2\n      mstore\n      0x20\n      add\n      0x00\n      keccak256\n        /* \"contracts/Profile.sol\":5346:5375  profile[msg.sender].education */\n      0x11\n      add\n      0x00\n        /* \"contracts/Profile.sol\":5339:5375  delete profile[msg.sender].education */\n      tag_293\n      swap2\n      swap1\n      tag_294\n      jump\t// in\n    tag_293:\n        /* \"contracts/Profile.sol\":5291:5383  function delAllEducation() external  {... */\n      jump\t// out\n        /* \"contracts/Profile.sol\":3755:4148  function getEducation(uint index) public view returns(string memory, string memory, string memory, string memory, string memory) {... */\n    tag_76:\n        /* \"contracts/Profile.sol\":3809:3822  string memory */\n      0x60\n        /* \"contracts/Profile.sol\":3824:3837  string memory */\n      dup1\n        /* \"contracts/Profile.sol\":3839:3852  string memory */\n      0x60\n        /* \"contracts/Profile.sol\":3854:3867  string memory */\n      dup1\n        /* \"contracts/Profile.sol\":3869:3882  string memory */\n      0x60\n        /* \"contracts/Profile.sol\":3903:3910  profile */\n      0x00\n        /* \"contracts/Profile.sol\":3903:3922  profile[msg.sender] */\n      dup1\n        /* \"contracts/Profile.sol\":3911:3921  msg.sender */\n      caller\n        /* \"contracts/Profile.sol\":3903:3922  profile[msg.sender] */\n      0xffffffffffffffffffffffffffffffffffffffff\n      and\n      0xffffffffffffffffffffffffffffffffffffffff\n      and\n      dup2\n      mstore\n      0x20\n      add\n      swap1\n      dup2\n      mstore\n      0x20\n      add\n      0x00\n      keccak256\n        /* \"contracts/Profile.sol\":3903:3932  profile[msg.sender].education */\n      0x11\n      add\n        /* \"contracts/Profile.sol\":3933:3938  index */\n      dup7\n        /* \"contracts/Profile.sol\":3903:3939  profile[msg.sender].education[index] */\n      dup2\n      sload\n      dup2\n      lt\n      tag_296\n      jumpi\n      tag_297\n      tag_298\n      jump\t// in\n    tag_297:\n    tag_296:\n      swap1\n      0x00\n      mstore\n      keccak256(0x00, 0x20)\n      swap1\n      0x05\n      mul\n      add\n        /* \"contracts/Profile.sol\":3903:3949  profile[msg.sender].education[index].startDate */\n      0x00\n      add\n        /* \"contracts/Profile.sol\":3951:3958  profile */\n      0x00\n        /* \"contracts/Profile.sol\":3951:3970  profile[msg.sender] */\n      dup1\n        /* \"contracts/Profile.sol\":3959:3969  msg.sender */\n      caller\n        /* \"contracts/Profile.sol\":3951:3970  profile[msg.sender] */\n      0xffffffffffffffffffffffffffffffffffffffff\n      and\n      0xffffffffffffffffffffffffffffffffffffffff\n      and\n      dup2\n      mstore\n      0x20\n      add\n      swap1\n      dup2\n      mstore\n      0x20\n      add\n      0x00\n      keccak256\n        /* \"contracts/Profile.sol\":3951:3980  profile[msg.sender].education */\n      0x11\n      add\n        /* \"contracts/Profile.sol\":3981:3986  index */\n      dup8\n        /* \"contracts/Profile.sol\":3951:3987  profile[msg.sender].education[index] */\n      dup2\n      sload\n      dup2\n      lt\n      tag_300\n      jumpi\n      tag_301\n      tag_298\n      jump\t// in\n    tag_301:\n    tag_300:\n      swap1\n      0x00\n      mstore\n      keccak256(0x00, 0x20)\n      swap1\n      0x05\n      mul\n      add\n        /* \"contracts/Profile.sol\":3951:3995  profile[msg.sender].education[index].endDate */\n      0x01\n      add\n        /* \"contracts/Profile.sol\":3997:4004  profile */\n      0x00\n        /* \"contracts/Profile.sol\":3997:4016  profile[msg.sender] */\n      dup1\n        /* \"contracts/Profile.sol\":4005:4015  msg.sender */\n      caller\n        /* \"contracts/Profile.sol\":3997:4016  profile[msg.sender] */\n      0xffffffffffffffffffffffffffffffffffffffff\n      and\n      0xffffffffffffffffffffffffffffffffffffffff\n      and\n      dup2\n      mstore\n      0x20\n      add\n      swap1\n      dup2\n      mstore\n      0x20\n      add\n      0x00\n      keccak256\n        /* \"contracts/Profile.sol\":3997:4026  profile[msg.sender].education */\n      0x11\n      add\n        /* \"contracts/Profile.sol\":4027:4032  index */\n      dup9\n        /* \"contracts/Profile.sol\":3997:4033  profile[msg.sender].education[index] */\n      dup2\n      sload\n      dup2\n      lt\n      tag_303\n      jumpi\n      tag_304\n      tag_298\n      jump\t// in\n    tag_304:\n    tag_303:\n      swap1\n      0x00\n      mstore\n      keccak256(0x00, 0x20)\n      swap1\n      0x05\n      mul\n      add\n        /* \"contracts/Profile.sol\":3997:4044  profile[msg.sender].education[index].univercity */\n      0x02\n      add\n        /* \"contracts/Profile.sol\":4046:4053  profile */\n      0x00\n        /* \"contracts/Profile.sol\":4046:4065  profile[msg.sender] */\n      dup1\n        /* \"contracts/Profile.sol\":4054:4064  msg.sender */\n      caller\n        /* \"contracts/Profile.sol\":4046:4065  profile[msg.sender] */\n      0xffffffffffffffffffffffffffffffffffffffff\n      and\n      0xffffffffffffffffffffffffffffffffffffffff\n      and\n      dup2\n      mstore\n      0x20\n      add\n      swap1\n      dup2\n      mstore\n      0x20\n      add\n      0x00\n      keccak256\n        /* \"contracts/Profile.sol\":4046:4075  profile[msg.sender].education */\n      0x11\n      add\n        /* \"contracts/Profile.sol\":4076:4081  index */\n      dup10\n        /* \"contracts/Profile.sol\":4046:4082  profile[msg.sender].education[index] */\n      dup2\n      sload\n      dup2\n      lt\n      tag_306\n      jumpi\n      tag_307\n      tag_298\n      jump\t// in\n    tag_307:\n    tag_306:\n      swap1\n      0x00\n      mstore\n      keccak256(0x00, 0x20)\n      swap1\n      0x05\n      mul\n      add\n        /* \"contracts/Profile.sol\":4046:4088  profile[msg.sender].education[index].major */\n      0x03\n      add\n        /* \"contracts/Profile.sol\":4090:4097  profile */\n      0x00\n        /* \"contracts/Profile.sol\":4090:4109  profile[msg.sender] */\n      dup1\n        /* \"contracts/Profile.sol\":4098:4108  msg.sender */\n      caller\n        /* \"contracts/Profile.sol\":4090:4109  profile[msg.sender] */\n      0xffffffffffffffffffffffffffffffffffffffff\n      and\n      0xffffffffffffffffffffffffffffffffffffffff\n      and\n      dup2\n      mstore\n      0x20\n      add\n      swap1\n      dup2\n      mstore\n      0x20\n      add\n      0x00\n      keccak256\n        /* \"contracts/Profile.sol\":4090:4119  profile[msg.sender].education */\n      0x11\n      add\n        /* \"contracts/Profile.sol\":4120:4125  index */\n      dup11\n        /* \"contracts/Profile.sol\":4090:4126  profile[msg.sender].education[index] */\n      dup2\n      sload\n      dup2\n      lt\n      tag_309\n      jumpi\n      tag_310\n      tag_298\n      jump\t// in\n    tag_310:\n    tag_309:\n      swap1\n      0x00\n      mstore\n      keccak256(0x00, 0x20)\n      swap1\n      0x05\n      mul\n      add\n        /* \"contracts/Profile.sol\":4090:4139  profile[msg.sender].education[index].finalProject */\n      0x04\n      add\n        /* \"contracts/Profile.sol\":3895:4140  return (profile[msg.sender].education[index].startDate, profile[msg.sender].education[index].endDate, profile[msg.sender].education[index].univercity, profile[msg.sender].education[index].major, profile[msg.sender].education[index].finalProject) */\n      dup5\n      dup1\n      sload\n      tag_312\n      swap1\n      tag_147\n      jump\t// in\n    tag_312:\n      dup1\n      0x1f\n      add\n      0x20\n      dup1\n      swap2\n      div\n      mul\n      0x20\n      add\n      mload(0x40)\n      swap1\n      dup2\n      add\n      0x40\n      mstore\n      dup1\n      swap3\n      swap2\n      swap1\n      dup2\n      dup2\n      mstore\n      0x20\n      add\n      dup3\n      dup1\n      sload\n      tag_313\n      swap1\n      tag_147\n      jump\t// in\n    tag_313:\n      dup1\n      iszero\n      tag_314\n      jumpi\n      dup1\n      0x1f\n      lt\n      tag_315\n      jumpi\n      0x0100\n      dup1\n      dup4\n      sload\n      div\n      mul\n      dup4\n      mstore\n      swap2\n      0x20\n      add\n      swap2\n      jump(tag_314)\n    tag_315:\n      dup3\n      add\n      swap2\n      swap1\n      0x00\n      mstore\n      keccak256(0x00, 0x20)\n      swap1\n    tag_316:\n      dup2\n      sload\n      dup2\n      mstore\n      swap1\n      0x01\n      add\n      swap1\n      0x20\n      add\n      dup1\n      dup4\n      gt\n      tag_316\n      jumpi\n      dup3\n      swap1\n      sub\n      0x1f\n      and\n      dup3\n      add\n      swap2\n    tag_314:\n      pop\n      pop\n      pop\n      pop\n      pop\n      swap5\n      pop\n      dup4\n      dup1\n      sload\n      tag_317\n      swap1\n      tag_147\n      jump\t// in\n    tag_317:\n      dup1\n      0x1f\n      add\n      0x20\n      dup1\n      swap2\n      div\n      mul\n      0x20\n      add\n      mload(0x40)\n      swap1\n      dup2\n      add\n      0x40\n      mstore\n      dup1\n      swap3\n      swap2\n      swap1\n      dup2\n      dup2\n      mstore\n      0x20\n      add\n      dup3\n      dup1\n      sload\n      tag_318\n      swap1\n      tag_147\n      jump\t// in\n    tag_318:\n      dup1\n      iszero\n      tag_319\n      jumpi\n      dup1\n      0x1f\n      lt\n      tag_320\n      jumpi\n      0x0100\n      dup1\n      dup4\n      sload\n      div\n      mul\n      dup4\n      mstore\n      swap2\n      0x20\n      add\n      swap2\n      jump(tag_319)\n    tag_320:\n      dup3\n      add\n      swap2\n      swap1\n      0x00\n      mstore\n      keccak256(0x00, 0x20)\n      swap1\n    tag_321:\n      dup2\n      sload\n      dup2\n      mstore\n      swap1\n      0x01\n      add\n      swap1\n      0x20\n      add\n      dup1\n      dup4\n      gt\n      tag_321\n      jumpi\n      dup3\n      swap1\n      sub\n      0x1f\n      and\n      dup3\n      add\n      swap2\n    tag_319:\n      pop\n      pop\n      pop\n      pop\n      pop\n      swap4\n      pop\n      dup3\n      dup1\n      sload\n      tag_322\n      swap1\n      tag_147\n      jump\t// in\n    tag_322:\n      dup1\n      0x1f\n      add\n      0x20\n      dup1\n      swap2\n      div\n      mul\n      0x20\n      add\n      mload(0x40)\n      swap1\n      dup2\n      add\n      0x40\n      mstore\n      dup1\n      swap3\n      swap2\n      swap1\n      dup2\n      dup2\n      mstore\n      0x20\n      add\n      dup3\n      dup1\n      sload\n      tag_323\n      swap1\n      tag_147\n      jump\t// in\n    tag_323:\n      dup1\n      iszero\n      tag_324\n      jumpi\n      dup1\n      0x1f\n      lt\n      tag_325\n      jumpi\n      0x0100\n      dup1\n      dup4\n      sload\n      div\n      mul\n      dup4\n      mstore\n      swap2\n      0x20\n      add\n      swap2\n      jump(tag_324)\n    tag_325:\n      dup3\n      add\n      swap2\n      swap1\n      0x00\n      mstore\n      keccak256(0x00, 0x20)\n      swap1\n    tag_326:\n      dup2\n      sload\n      dup2\n      mstore\n      swap1\n      0x01\n      add\n      swap1\n      0x20\n      add\n      dup1\n      dup4\n      gt\n      tag_326\n      jumpi\n      dup3\n      swap1\n      sub\n      0x1f\n      and\n      dup3\n      add\n      swap2\n    tag_324:\n      pop\n      pop\n      pop\n      pop\n      pop\n      swap3\n      pop\n      dup2\n      dup1\n      sload\n      tag_327\n      swap1\n      tag_147\n      jump\t// in\n    tag_327:\n      dup1\n      0x1f\n      add\n      0x20\n      dup1\n      swap2\n      div\n      mul\n      0x20\n      add\n      mload(0x40)\n      swap1\n      dup2\n      add\n      0x40\n      mstore\n      dup1\n      swap3\n      swap2\n      swap1\n      dup2\n      dup2\n      mstore\n      0x20\n      add\n      dup3\n      dup1\n      sload\n      tag_328\n      swap1\n      tag_147\n      jump\t// in\n    tag_328:\n      dup1\n      iszero\n      tag_329\n      jumpi\n      dup1\n      0x1f\n      lt\n      tag_330\n      jumpi\n      0x0100\n      dup1\n      dup4\n      sload\n      div\n      mul\n      dup4\n      mstore\n      swap2\n      0x20\n      add\n      swap2\n      jump(tag_329)\n    tag_330:\n      dup3\n      add\n      swap2\n      swap1\n      0x00\n      mstore\n      keccak256(0x00, 0x20)\n      swap1\n    tag_331:\n      dup2\n      sload\n      dup2\n      mstore\n      swap1\n      0x01\n      add\n      swap1\n      0x20\n      add\n      dup1\n      dup4\n      gt\n      tag_331\n      jumpi\n      dup3\n      swap1\n      sub\n      0x1f\n      and\n      dup3\n      add\n      swap2\n    tag_329:\n      pop\n      pop\n      pop\n      pop\n      pop\n      swap2\n      pop\n      dup1\n      dup1\n      sload\n      tag_332\n      swap1\n      tag_147\n      jump\t// in\n    tag_332:\n      dup1\n      0x1f\n      add\n      0x20\n      dup1\n      swap2\n      div\n      mul\n      0x20\n      add\n      mload(0x40)\n      swap1\n      dup2\n      add\n      0x40\n      mstore\n      dup1\n      swap3\n      swap2\n      swap1\n      dup2\n      dup2\n      mstore\n      0x20\n      add\n      dup3\n      dup1\n      sload\n      tag_333\n      swap1\n      tag_147\n      jump\t// in\n    tag_333:\n      dup1\n      iszero\n      tag_334\n      jumpi\n      dup1\n      0x1f\n      lt\n      tag_335\n      jumpi\n      0x0100\n      dup1\n      dup4\n      sload\n      div\n      mul\n      dup4\n      mstore\n      swap2\n      0x20\n      add\n      swap2\n      jump(tag_334)\n    tag_335:\n      dup3\n      add\n      swap2\n      swap1\n      0x00\n      mstore\n      keccak256(0x00, 0x20)\n      swap1\n    tag_336:\n      dup2\n      sload\n      dup2\n      mstore\n      swap1\n      0x01\n      add\n      swap1\n      0x20\n      add\n      dup1\n      dup4\n      gt\n      tag_336\n      jumpi\n      dup3\n      swap1\n      sub\n      0x1f\n      and\n      dup3\n      add\n      swap2\n    tag_334:\n      pop\n      pop\n      pop\n      pop\n      pop\n      swap1\n      pop\n      swap5\n      pop\n      swap5\n      pop\n      swap5\n      pop\n      swap5\n      pop\n      swap5\n      pop\n        /* \"contracts/Profile.sol\":3755:4148  function getEducation(uint index) public view returns(string memory, string memory, string memory, string memory, string memory) {... */\n      swap2\n      swap4\n      swap6\n      swap1\n      swap3\n      swap5\n      pop\n      jump\t// out\n        /* \"contracts/Profile.sol\":5491:5567  function delProfile() external {... */\n    tag_80:\n        /* \"contracts/Profile.sol\":5540:5547  profile */\n      0x00\n        /* \"contracts/Profile.sol\":5540:5559  profile[msg.sender] */\n      dup1\n        /* \"contracts/Profile.sol\":5548:5558  msg.sender */\n      caller\n        /* \"contracts/Profile.sol\":5540:5559  profile[msg.sender] */\n      0xffffffffffffffffffffffffffffffffffffffff\n      and\n      0xffffffffffffffffffffffffffffffffffffffff\n      and\n      dup2\n      mstore\n      0x20\n      add\n      swap1\n      dup2\n      mstore\n      0x20\n      add\n      0x00\n      keccak256\n      0x00\n        /* \"contracts/Profile.sol\":5533:5559  delete profile[msg.sender] */\n      dup1\n      dup3\n      add\n      0x00\n      dup1\n      dup3\n      add\n      0x00\n      tag_338\n      swap2\n      swap1\n      tag_83\n      jump\t// in\n    tag_338:\n      0x01\n      dup3\n      add\n      0x00\n      tag_339\n      swap2\n      swap1\n      tag_83\n      jump\t// in\n    tag_339:\n      0x02\n      dup3\n      add\n      exp(0x0100, 0x00)\n      dup2\n      sload\n      swap1\n      0xffffffffffffffffffffffffffffffffffffffff\n      mul\n      not\n      and\n      swap1\n      sstore\n      0x03\n      dup3\n      add\n      0x00\n      tag_340\n      swap2\n      swap1\n      tag_83\n      jump\t// in\n    tag_340:\n      0x04\n      dup3\n      add\n      0x00\n      tag_341\n      swap2\n      swap1\n      tag_83\n      jump\t// in\n    tag_341:\n      0x05\n      dup3\n      add\n      0x00\n      tag_342\n      swap2\n      swap1\n      tag_83\n      jump\t// in\n    tag_342:\n      0x06\n      dup3\n      add\n      0x00\n      tag_343\n      swap2\n      swap1\n      tag_83\n      jump\t// in\n    tag_343:\n      0x07\n      dup3\n      add\n      0x00\n      swap1\n      sstore\n      pop\n      pop\n      0x08\n      dup3\n      add\n      0x00\n      dup1\n      dup3\n      add\n      0x00\n      tag_344\n      swap2\n      swap1\n      tag_83\n      jump\t// in\n    tag_344:\n      0x01\n      dup3\n      add\n      0x00\n      tag_345\n      swap2\n      swap1\n      tag_83\n      jump\t// in\n    tag_345:\n      0x02\n      dup3\n      add\n      0x00\n      tag_346\n      swap2\n      swap1\n      tag_83\n      jump\t// in\n    tag_346:\n      0x03\n      dup3\n      add\n      0x00\n      tag_347\n      swap2\n      swap1\n      tag_83\n      jump\t// in\n    tag_347:\n      0x04\n      dup3\n      add\n      0x00\n      tag_348\n      swap2\n      swap1\n      tag_83\n      jump\t// in\n    tag_348:\n      0x05\n      dup3\n      add\n      0x00\n      tag_349\n      swap2\n      swap1\n      tag_83\n      jump\t// in\n    tag_349:\n      pop\n      pop\n      0x0e\n      dup3\n      add\n      0x00\n      dup1\n      dup3\n      add\n      0x00\n      tag_350\n      swap2\n      swap1\n      tag_98\n      jump\t// in\n    tag_350:\n      0x01\n      dup3\n      add\n      0x00\n      tag_351\n      swap2\n      swap1\n      tag_98\n      jump\t// in\n    tag_351:\n      0x02\n      dup3\n      add\n      0x00\n      tag_352\n      swap2\n      swap1\n      tag_98\n      jump\t// in\n    tag_352:\n      pop\n      pop\n      0x11\n      dup3\n      add\n      0x00\n      tag_353\n      swap2\n      swap1\n      tag_294\n      jump\t// in\n    tag_353:\n      0x12\n      dup3\n      add\n      0x00\n      dup1\n      dup3\n      add\n      0x00\n      tag_354\n      swap2\n      swap1\n      tag_98\n      jump\t// in\n    tag_354:\n      0x01\n      dup3\n      add\n      0x00\n      tag_355\n      swap2\n      swap1\n      tag_98\n      jump\t// in\n    tag_355:\n      pop\n      pop\n      0x14\n      dup3\n      add\n      0x00\n      dup1\n      dup3\n      add\n      0x00\n      tag_356\n      swap2\n      swap1\n      tag_83\n      jump\t// in\n    tag_356:\n      0x01\n      dup3\n      add\n      0x00\n      tag_357\n      swap2\n      swap1\n      tag_83\n      jump\t// in\n    tag_357:\n      0x02\n      dup3\n      add\n      0x00\n      tag_358\n      swap2\n      swap1\n      tag_83\n      jump\t// in\n    tag_358:\n      0x03\n      dup3\n      add\n      0x00\n      tag_359\n      swap2\n      swap1\n      tag_83\n      jump\t// in\n    tag_359:\n      0x04\n      dup3\n      add\n      0x00\n      tag_360\n      swap2\n      swap1\n      tag_98\n      jump\t// in\n    tag_360:\n      pop\n      pop\n      0x19\n      dup3\n      add\n      0x00\n      dup1\n      dup3\n      add\n      0x00\n      tag_361\n      swap2\n      swap1\n      tag_83\n      jump\t// in\n    tag_361:\n      0x01\n      dup3\n      add\n      0x00\n      tag_362\n      swap2\n      swap1\n      tag_83\n      jump\t// in\n    tag_362:\n      pop\n      pop\n      pop\n      pop\n        /* \"contracts/Profile.sol\":5491:5567  function delProfile() external {... */\n      jump\t// out\n    tag_83:\n      pop\n      dup1\n      sload\n      tag_363\n      swap1\n      tag_147\n      jump\t// in\n    tag_363:\n      0x00\n      dup3\n      sstore\n      dup1\n      0x1f\n      lt\n      tag_365\n      jumpi\n      pop\n      jump(tag_364)\n    tag_365:\n      0x1f\n      add\n      0x20\n      swap1\n      div\n      swap1\n      0x00\n      mstore\n      keccak256(0x00, 0x20)\n      swap1\n      dup2\n      add\n      swap1\n      tag_366\n      swap2\n      swap1\n      tag_367\n      jump\t// in\n    tag_366:\n    tag_364:\n      pop\n      jump\t// out\n    tag_92:\n      dup3\n      dup1\n      sload\n      dup3\n      dup3\n      sstore\n      swap1\n      0x00\n      mstore\n      keccak256(0x00, 0x20)\n      swap1\n      dup2\n      add\n      swap3\n      dup3\n      iszero\n      tag_368\n      jumpi\n      swap2\n      0x20\n      mul\n      dup3\n      add\n    tag_369:\n      dup3\n      dup2\n      gt\n      iszero\n      tag_370\n      jumpi\n      dup3\n      mload\n      dup3\n      swap1\n      dup2\n      tag_371\n      swap2\n      swap1\n      tag_87\n      jump\t// in\n    tag_371:\n      pop\n      swap2\n      0x20\n      add\n      swap2\n      swap1\n      0x01\n      add\n      swap1\n      jump(tag_369)\n    tag_370:\n    tag_368:\n      pop\n      swap1\n      pop\n      tag_372\n      swap2\n      swap1\n      tag_373\n      jump\t// in\n    tag_372:\n      pop\n      swap1\n      jump\t// out\n    tag_98:\n      pop\n      dup1\n      sload\n      0x00\n      dup3\n      sstore\n      swap1\n      0x00\n      mstore\n      keccak256(0x00, 0x20)\n      swap1\n      dup2\n      add\n      swap1\n      tag_375\n      swap2\n      swap1\n      tag_373\n      jump\t// in\n    tag_375:\n      pop\n      jump\t// out\n    tag_110:\n      mload(0x40)\n      dup1\n      0xa0\n      add\n      0x40\n      mstore\n      dup1\n      0x60\n      dup2\n      mstore\n      0x20\n      add\n      0x60\n      dup2\n      mstore\n      0x20\n      add\n      0x60\n      dup2\n      mstore\n      0x20\n      add\n      0x60\n      dup2\n      mstore\n      0x20\n      add\n      0x60\n      dup2\n      mstore\n      pop\n      swap1\n      jump\t// out\n    tag_294:\n      pop\n      dup1\n      sload\n      0x00\n      dup3\n      sstore\n      0x05\n      mul\n      swap1\n      0x00\n      mstore\n      keccak256(0x00, 0x20)\n      swap1\n      dup2\n      add\n      swap1\n      tag_377\n      swap2\n      swap1\n      tag_378\n      jump\t// in\n    tag_377:\n      pop\n      jump\t// out\n    tag_367:\n    tag_379:\n      dup1\n      dup3\n      gt\n      iszero\n      tag_380\n      jumpi\n      0x00\n      dup2\n      0x00\n      swap1\n      sstore\n      pop\n      0x01\n      add\n      jump(tag_379)\n    tag_380:\n      pop\n      swap1\n      jump\t// out\n    tag_373:\n    tag_381:\n      dup1\n      dup3\n      gt\n      iszero\n      tag_382\n      jumpi\n      0x00\n      dup2\n      dup2\n      tag_383\n      swap2\n      swap1\n      tag_83\n      jump\t// in\n    tag_383:\n      pop\n      0x01\n      add\n      jump(tag_381)\n    tag_382:\n      pop\n      swap1\n      jump\t// out\n    tag_378:\n    tag_384:\n      dup1\n      dup3\n      gt\n      iszero\n      tag_385\n      jumpi\n      0x00\n      dup1\n      dup3\n      add\n      0x00\n      tag_386\n      swap2\n      swap1\n      tag_83\n      jump\t// in\n    tag_386:\n      0x01\n      dup3\n      add\n      0x00\n      tag_387\n      swap2\n      swap1\n      tag_83\n      jump\t// in\n    tag_387:\n      0x02\n      dup3\n      add\n      0x00\n      tag_388\n      swap2\n      swap1\n      tag_83\n      jump\t// in\n    tag_388:\n      0x03\n      dup3\n      add\n      0x00\n      tag_389\n      swap2\n      swap1\n      tag_83\n      jump\t// in\n    tag_389:\n      0x04\n      dup3\n      add\n      0x00\n      tag_390\n      swap2\n      swap1\n      tag_83\n      jump\t// in\n    tag_390:\n      pop\n      0x05\n      add\n      jump(tag_384)\n    tag_385:\n      pop\n      swap1\n      jump\t// out\n        /* \"#utility.yul\":7:82   */\n    tag_391:\n        /* \"#utility.yul\":40:46   */\n      0x00\n        /* \"#utility.yul\":73:75   */\n      0x40\n        /* \"#utility.yul\":67:76   */\n      mload\n        /* \"#utility.yul\":57:76   */\n      swap1\n      pop\n        /* \"#utility.yul\":7:82   */\n      swap1\n      jump\t// out\n        /* \"#utility.yul\":88:205   */\n    tag_392:\n        /* \"#utility.yul\":197:198   */\n      0x00\n        /* \"#utility.yul\":194:195   */\n      dup1\n        /* \"#utility.yul\":187:199   */\n      revert\n        /* \"#utility.yul\":211:328   */\n    tag_393:\n        /* \"#utility.yul\":320:321   */\n      0x00\n        /* \"#utility.yul\":317:318   */\n      dup1\n        /* \"#utility.yul\":310:322   */\n      revert\n        /* \"#utility.yul\":334:451   */\n    tag_394:\n        /* \"#utility.yul\":443:444   */\n      0x00\n        /* \"#utility.yul\":440:441   */\n      dup1\n        /* \"#utility.yul\":433:445   */\n      revert\n        /* \"#utility.yul\":457:574   */\n    tag_395:\n        /* \"#utility.yul\":566:567   */\n      0x00\n        /* \"#utility.yul\":563:564   */\n      dup1\n        /* \"#utility.yul\":556:568   */\n      revert\n        /* \"#utility.yul\":580:682   */\n    tag_396:\n        /* \"#utility.yul\":621:627   */\n      0x00\n        /* \"#utility.yul\":672:674   */\n      0x1f\n        /* \"#utility.yul\":668:675   */\n      not\n        /* \"#utility.yul\":663:665   */\n      0x1f\n        /* \"#utility.yul\":656:661   */\n      dup4\n        /* \"#utility.yul\":652:666   */\n      add\n        /* \"#utility.yul\":648:676   */\n      and\n        /* \"#utility.yul\":638:676   */\n      swap1\n      pop\n        /* \"#utility.yul\":580:682   */\n      swap2\n      swap1\n      pop\n      jump\t// out\n        /* \"#utility.yul\":688:868   */\n    tag_397:\n        /* \"#utility.yul\":736:813   */\n      0x4e487b7100000000000000000000000000000000000000000000000000000000\n        /* \"#utility.yul\":733:734   */\n      0x00\n        /* \"#utility.yul\":726:814   */\n      mstore\n        /* \"#utility.yul\":833:837   */\n      0x41\n        /* \"#utility.yul\":830:831   */\n      0x04\n        /* \"#utility.yul\":823:838   */\n      mstore\n        /* \"#utility.yul\":857:861   */\n      0x24\n        /* \"#utility.yul\":854:855   */\n      0x00\n        /* \"#utility.yul\":847:862   */\n      revert\n        /* \"#utility.yul\":874:1155   */\n    tag_398:\n        /* \"#utility.yul\":957:984   */\n      tag_461\n        /* \"#utility.yul\":979:983   */\n      dup3\n        /* \"#utility.yul\":957:984   */\n      tag_396\n      jump\t// in\n    tag_461:\n        /* \"#utility.yul\":949:955   */\n      dup2\n        /* \"#utility.yul\":945:985   */\n      add\n        /* \"#utility.yul\":1087:1093   */\n      dup2\n        /* \"#utility.yul\":1075:1085   */\n      dup2\n        /* \"#utility.yul\":1072:1094   */\n      lt\n        /* \"#utility.yul\":1051:1069   */\n      0xffffffffffffffff\n        /* \"#utility.yul\":1039:1049   */\n      dup3\n        /* \"#utility.yul\":1036:1070   */\n      gt\n        /* \"#utility.yul\":1033:1095   */\n      or\n        /* \"#utility.yul\":1030:1118   */\n      iszero\n      tag_462\n      jumpi\n        /* \"#utility.yul\":1098:1116   */\n      tag_463\n      tag_397\n      jump\t// in\n    tag_463:\n        /* \"#utility.yul\":1030:1118   */\n    tag_462:\n        /* \"#utility.yul\":1138:1148   */\n      dup1\n        /* \"#utility.yul\":1134:1136   */\n      0x40\n        /* \"#utility.yul\":1127:1149   */\n      mstore\n        /* \"#utility.yul\":917:1155   */\n      pop\n        /* \"#utility.yul\":874:1155   */\n      pop\n      pop\n      jump\t// out\n        /* \"#utility.yul\":1161:1290   */\n    tag_399:\n        /* \"#utility.yul\":1195:1201   */\n      0x00\n        /* \"#utility.yul\":1222:1242   */\n      tag_465\n      tag_391\n      jump\t// in\n    tag_465:\n        /* \"#utility.yul\":1212:1242   */\n      swap1\n      pop\n        /* \"#utility.yul\":1251:1284   */\n      tag_466\n        /* \"#utility.yul\":1279:1283   */\n      dup3\n        /* \"#utility.yul\":1271:1277   */\n      dup3\n        /* \"#utility.yul\":1251:1284   */\n      tag_398\n      jump\t// in\n    tag_466:\n        /* \"#utility.yul\":1161:1290   */\n      swap2\n      swap1\n      pop\n      jump\t// out\n        /* \"#utility.yul\":1296:1604   */\n    tag_400:\n        /* \"#utility.yul\":1358:1362   */\n      0x00\n        /* \"#utility.yul\":1448:1466   */\n      0xffffffffffffffff\n        /* \"#utility.yul\":1440:1446   */\n      dup3\n        /* \"#utility.yul\":1437:1467   */\n      gt\n        /* \"#utility.yul\":1434:1490   */\n      iszero\n      tag_468\n      jumpi\n        /* \"#utility.yul\":1470:1488   */\n      tag_469\n      tag_397\n      jump\t// in\n    tag_469:\n        /* \"#utility.yul\":1434:1490   */\n    tag_468:\n        /* \"#utility.yul\":1508:1537   */\n      tag_470\n        /* \"#utility.yul\":1530:1536   */\n      dup3\n        /* \"#utility.yul\":1508:1537   */\n      tag_396\n      jump\t// in\n    tag_470:\n        /* \"#utility.yul\":1500:1537   */\n      swap1\n      pop\n        /* \"#utility.yul\":1592:1596   */\n      0x20\n        /* \"#utility.yul\":1586:1590   */\n      dup2\n        /* \"#utility.yul\":1582:1597   */\n      add\n        /* \"#utility.yul\":1574:1597   */\n      swap1\n      pop\n        /* \"#utility.yul\":1296:1604   */\n      swap2\n      swap1\n      pop\n      jump\t// out\n        /* \"#utility.yul\":1610:1756   */\n    tag_401:\n        /* \"#utility.yul\":1707:1713   */\n      dup3\n        /* \"#utility.yul\":1702:1705   */\n      dup2\n        /* \"#utility.yul\":1697:1700   */\n      dup4\n        /* \"#utility.yul\":1684:1714   */\n      calldatacopy\n        /* \"#utility.yul\":1748:1749   */\n      0x00\n        /* \"#utility.yul\":1739:1745   */\n      dup4\n        /* \"#utility.yul\":1734:1737   */\n      dup4\n        /* \"#utility.yul\":1730:1746   */\n      add\n        /* \"#utility.yul\":1723:1750   */\n      mstore\n        /* \"#utility.yul\":1610:1756   */\n      pop\n      pop\n      pop\n      jump\t// out\n        /* \"#utility.yul\":1762:2187   */\n    tag_402:\n        /* \"#utility.yul\":1840:1845   */\n      0x00\n        /* \"#utility.yul\":1865:1931   */\n      tag_473\n        /* \"#utility.yul\":1881:1930   */\n      tag_474\n        /* \"#utility.yul\":1923:1929   */\n      dup5\n        /* \"#utility.yul\":1881:1930   */\n      tag_400\n      jump\t// in\n    tag_474:\n        /* \"#utility.yul\":1865:1931   */\n      tag_399\n      jump\t// in\n    tag_473:\n        /* \"#utility.yul\":1856:1931   */\n      swap1\n      pop\n        /* \"#utility.yul\":1954:1960   */\n      dup3\n        /* \"#utility.yul\":1947:1952   */\n      dup2\n        /* \"#utility.yul\":1940:1961   */\n      mstore\n        /* \"#utility.yul\":1992:1996   */\n      0x20\n        /* \"#utility.yul\":1985:1990   */\n      dup2\n        /* \"#utility.yul\":1981:1997   */\n      add\n        /* \"#utility.yul\":2030:2033   */\n      dup5\n        /* \"#utility.yul\":2021:2027   */\n      dup5\n        /* \"#utility.yul\":2016:2019   */\n      dup5\n        /* \"#utility.yul\":2012:2028   */\n      add\n        /* \"#utility.yul\":2009:2034   */\n      gt\n        /* \"#utility.yul\":2006:2118   */\n      iszero\n      tag_475\n      jumpi\n        /* \"#utility.yul\":2037:2116   */\n      tag_476\n      tag_395\n      jump\t// in\n    tag_476:\n        /* \"#utility.yul\":2006:2118   */\n    tag_475:\n        /* \"#utility.yul\":2127:2181   */\n      tag_477\n        /* \"#utility.yul\":2174:2180   */\n      dup5\n        /* \"#utility.yul\":2169:2172   */\n      dup3\n        /* \"#utility.yul\":2164:2167   */\n      dup6\n        /* \"#utility.yul\":2127:2181   */\n      tag_401\n      jump\t// in\n    tag_477:\n        /* \"#utility.yul\":1846:2187   */\n      pop\n        /* \"#utility.yul\":1762:2187   */\n      swap4\n      swap3\n      pop\n      pop\n      pop\n      jump\t// out\n        /* \"#utility.yul\":2207:2547   */\n    tag_403:\n        /* \"#utility.yul\":2263:2268   */\n      0x00\n        /* \"#utility.yul\":2312:2315   */\n      dup3\n        /* \"#utility.yul\":2305:2309   */\n      0x1f\n        /* \"#utility.yul\":2297:2303   */\n      dup4\n        /* \"#utility.yul\":2293:2310   */\n      add\n        /* \"#utility.yul\":2289:2316   */\n      slt\n        /* \"#utility.yul\":2279:2401   */\n      tag_479\n      jumpi\n        /* \"#utility.yul\":2320:2399   */\n      tag_480\n      tag_394\n      jump\t// in\n    tag_480:\n        /* \"#utility.yul\":2279:2401   */\n    tag_479:\n        /* \"#utility.yul\":2437:2443   */\n      dup2\n        /* \"#utility.yul\":2424:2444   */\n      calldataload\n        /* \"#utility.yul\":2462:2541   */\n      tag_481\n        /* \"#utility.yul\":2537:2540   */\n      dup5\n        /* \"#utility.yul\":2529:2535   */\n      dup3\n        /* \"#utility.yul\":2522:2526   */\n      0x20\n        /* \"#utility.yul\":2514:2520   */\n      dup7\n        /* \"#utility.yul\":2510:2527   */\n      add\n        /* \"#utility.yul\":2462:2541   */\n      tag_402\n      jump\t// in\n    tag_481:\n        /* \"#utility.yul\":2453:2541   */\n      swap2\n      pop\n        /* \"#utility.yul\":2269:2547   */\n      pop\n        /* \"#utility.yul\":2207:2547   */\n      swap3\n      swap2\n      pop\n      pop\n      jump\t// out\n        /* \"#utility.yul\":2553:2874   */\n    tag_404:\n        /* \"#utility.yul\":2640:2644   */\n      0x00\n        /* \"#utility.yul\":2730:2748   */\n      0xffffffffffffffff\n        /* \"#utility.yul\":2722:2728   */\n      dup3\n        /* \"#utility.yul\":2719:2749   */\n      gt\n        /* \"#utility.yul\":2716:2772   */\n      iszero\n      tag_483\n      jumpi\n        /* \"#utility.yul\":2752:2770   */\n      tag_484\n      tag_397\n      jump\t// in\n    tag_484:\n        /* \"#utility.yul\":2716:2772   */\n    tag_483:\n        /* \"#utility.yul\":2802:2806   */\n      0x20\n        /* \"#utility.yul\":2794:2800   */\n      dup3\n        /* \"#utility.yul\":2790:2807   */\n      mul\n        /* \"#utility.yul\":2782:2807   */\n      swap1\n      pop\n        /* \"#utility.yul\":2862:2866   */\n      0x20\n        /* \"#utility.yul\":2856:2860   */\n      dup2\n        /* \"#utility.yul\":2852:2867   */\n      add\n        /* \"#utility.yul\":2844:2867   */\n      swap1\n      pop\n        /* \"#utility.yul\":2553:2874   */\n      swap2\n      swap1\n      pop\n      jump\t// out\n        /* \"#utility.yul\":2880:2997   */\n    tag_405:\n        /* \"#utility.yul\":2989:2990   */\n      0x00\n        /* \"#utility.yul\":2986:2987   */\n      dup1\n        /* \"#utility.yul\":2979:2991   */\n      revert\n        /* \"#utility.yul\":3019:3964   */\n    tag_406:\n        /* \"#utility.yul\":3125:3130   */\n      0x00\n        /* \"#utility.yul\":3150:3241   */\n      tag_487\n        /* \"#utility.yul\":3166:3240   */\n      tag_488\n        /* \"#utility.yul\":3233:3239   */\n      dup5\n        /* \"#utility.yul\":3166:3240   */\n      tag_404\n      jump\t// in\n    tag_488:\n        /* \"#utility.yul\":3150:3241   */\n      tag_399\n      jump\t// in\n    tag_487:\n        /* \"#utility.yul\":3141:3241   */\n      swap1\n      pop\n        /* \"#utility.yul\":3261:3266   */\n      dup1\n        /* \"#utility.yul\":3290:3296   */\n      dup4\n        /* \"#utility.yul\":3283:3288   */\n      dup3\n        /* \"#utility.yul\":3276:3297   */\n      mstore\n        /* \"#utility.yul\":3324:3328   */\n      0x20\n        /* \"#utility.yul\":3317:3322   */\n      dup3\n        /* \"#utility.yul\":3313:3329   */\n      add\n        /* \"#utility.yul\":3306:3329   */\n      swap1\n      pop\n        /* \"#utility.yul\":3377:3381   */\n      0x20\n        /* \"#utility.yul\":3369:3375   */\n      dup5\n        /* \"#utility.yul\":3365:3382   */\n      mul\n        /* \"#utility.yul\":3357:3363   */\n      dup4\n        /* \"#utility.yul\":3353:3383   */\n      add\n        /* \"#utility.yul\":3406:3409   */\n      dup6\n        /* \"#utility.yul\":3398:3404   */\n      dup2\n        /* \"#utility.yul\":3395:3410   */\n      gt\n        /* \"#utility.yul\":3392:3514   */\n      iszero\n      tag_489\n      jumpi\n        /* \"#utility.yul\":3425:3504   */\n      tag_490\n      tag_405\n      jump\t// in\n    tag_490:\n        /* \"#utility.yul\":3392:3514   */\n    tag_489:\n        /* \"#utility.yul\":3540:3546   */\n      dup4\n        /* \"#utility.yul\":3523:3958   */\n    tag_491:\n        /* \"#utility.yul\":3557:3563   */\n      dup2\n        /* \"#utility.yul\":3552:3555   */\n      dup2\n        /* \"#utility.yul\":3549:3564   */\n      lt\n        /* \"#utility.yul\":3523:3958   */\n      iszero\n      tag_493\n      jumpi\n        /* \"#utility.yul\":3646:3649   */\n      dup1\n        /* \"#utility.yul\":3633:3650   */\n      calldataload\n        /* \"#utility.yul\":3682:3700   */\n      0xffffffffffffffff\n        /* \"#utility.yul\":3669:3680   */\n      dup2\n        /* \"#utility.yul\":3666:3701   */\n      gt\n        /* \"#utility.yul\":3663:3785   */\n      iszero\n      tag_494\n      jumpi\n        /* \"#utility.yul\":3704:3783   */\n      tag_495\n      tag_394\n      jump\t// in\n    tag_495:\n        /* \"#utility.yul\":3663:3785   */\n    tag_494:\n        /* \"#utility.yul\":3828:3839   */\n      dup1\n        /* \"#utility.yul\":3820:3826   */\n      dup7\n        /* \"#utility.yul\":3816:3840   */\n      add\n        /* \"#utility.yul\":3866:3913   */\n      tag_496\n        /* \"#utility.yul\":3909:3912   */\n      dup10\n        /* \"#utility.yul\":3897:3907   */\n      dup3\n        /* \"#utility.yul\":3866:3913   */\n      tag_403\n      jump\t// in\n    tag_496:\n        /* \"#utility.yul\":3861:3864   */\n      dup6\n        /* \"#utility.yul\":3854:3914   */\n      mstore\n        /* \"#utility.yul\":3943:3947   */\n      0x20\n        /* \"#utility.yul\":3938:3941   */\n      dup6\n        /* \"#utility.yul\":3934:3948   */\n      add\n        /* \"#utility.yul\":3927:3948   */\n      swap5\n      pop\n        /* \"#utility.yul\":3599:3958   */\n      pop\n      pop\n        /* \"#utility.yul\":3583:3587   */\n      0x20\n        /* \"#utility.yul\":3578:3581   */\n      dup2\n        /* \"#utility.yul\":3574:3588   */\n      add\n        /* \"#utility.yul\":3567:3588   */\n      swap1\n      pop\n        /* \"#utility.yul\":3523:3958   */\n      jump(tag_491)\n    tag_493:\n        /* \"#utility.yul\":3527:3548   */\n      pop\n        /* \"#utility.yul\":3131:3964   */\n      pop\n      pop\n        /* \"#utility.yul\":3019:3964   */\n      swap4\n      swap3\n      pop\n      pop\n      pop\n      jump\t// out\n        /* \"#utility.yul\":3986:4376   */\n    tag_407:\n        /* \"#utility.yul\":4067:4072   */\n      0x00\n        /* \"#utility.yul\":4116:4119   */\n      dup3\n        /* \"#utility.yul\":4109:4113   */\n      0x1f\n        /* \"#utility.yul\":4101:4107   */\n      dup4\n        /* \"#utility.yul\":4097:4114   */\n      add\n        /* \"#utility.yul\":4093:4120   */\n      slt\n        /* \"#utility.yul\":4083:4205   */\n      tag_498\n      jumpi\n        /* \"#utility.yul\":4124:4203   */\n      tag_499\n      tag_394\n      jump\t// in\n    tag_499:\n        /* \"#utility.yul\":4083:4205   */\n    tag_498:\n        /* \"#utility.yul\":4241:4247   */\n      dup2\n        /* \"#utility.yul\":4228:4248   */\n      calldataload\n        /* \"#utility.yul\":4266:4370   */\n      tag_500\n        /* \"#utility.yul\":4366:4369   */\n      dup5\n        /* \"#utility.yul\":4358:4364   */\n      dup3\n        /* \"#utility.yul\":4351:4355   */\n      0x20\n        /* \"#utility.yul\":4343:4349   */\n      dup7\n        /* \"#utility.yul\":4339:4356   */\n      add\n        /* \"#utility.yul\":4266:4370   */\n      tag_406\n      jump\t// in\n    tag_500:\n        /* \"#utility.yul\":4257:4370   */\n      swap2\n      pop\n        /* \"#utility.yul\":4073:4376   */\n      pop\n        /* \"#utility.yul\":3986:4376   */\n      swap3\n      swap2\n      pop\n      pop\n      jump\t// out\n        /* \"#utility.yul\":4382:6243   */\n    tag_27:\n        /* \"#utility.yul\":4552:4558   */\n      0x00\n        /* \"#utility.yul\":4560:4566   */\n      dup1\n        /* \"#utility.yul\":4568:4574   */\n      0x00\n        /* \"#utility.yul\":4576:4582   */\n      dup1\n        /* \"#utility.yul\":4584:4590   */\n      0x00\n        /* \"#utility.yul\":4633:4636   */\n      0xa0\n        /* \"#utility.yul\":4621:4630   */\n      dup7\n        /* \"#utility.yul\":4612:4619   */\n      dup9\n        /* \"#utility.yul\":4608:4631   */\n      sub\n        /* \"#utility.yul\":4604:4637   */\n      slt\n        /* \"#utility.yul\":4601:4721   */\n      iszero\n      tag_502\n      jumpi\n        /* \"#utility.yul\":4640:4719   */\n      tag_503\n      tag_392\n      jump\t// in\n    tag_503:\n        /* \"#utility.yul\":4601:4721   */\n    tag_502:\n        /* \"#utility.yul\":4788:4789   */\n      0x00\n        /* \"#utility.yul\":4777:4786   */\n      dup7\n        /* \"#utility.yul\":4773:4790   */\n      add\n        /* \"#utility.yul\":4760:4791   */\n      calldataload\n        /* \"#utility.yul\":4818:4836   */\n      0xffffffffffffffff\n        /* \"#utility.yul\":4810:4816   */\n      dup2\n        /* \"#utility.yul\":4807:4837   */\n      gt\n        /* \"#utility.yul\":4804:4921   */\n      iszero\n      tag_504\n      jumpi\n        /* \"#utility.yul\":4840:4919   */\n      tag_505\n      tag_393\n      jump\t// in\n    tag_505:\n        /* \"#utility.yul\":4804:4921   */\n    tag_504:\n        /* \"#utility.yul\":4945:5008   */\n      tag_506\n        /* \"#utility.yul\":5000:5007   */\n      dup9\n        /* \"#utility.yul\":4991:4997   */\n      dup3\n        /* \"#utility.yul\":4980:4989   */\n      dup10\n        /* \"#utility.yul\":4976:4998   */\n      add\n        /* \"#utility.yul\":4945:5008   */\n      tag_403\n      jump\t// in\n    tag_506:\n        /* \"#utility.yul\":4935:5008   */\n      swap6\n      pop\n        /* \"#utility.yul\":4731:5018   */\n      pop\n        /* \"#utility.yul\":5085:5087   */\n      0x20\n        /* \"#utility.yul\":5074:5083   */\n      dup7\n        /* \"#utility.yul\":5070:5088   */\n      add\n        /* \"#utility.yul\":5057:5089   */\n      calldataload\n        /* \"#utility.yul\":5116:5134   */\n      0xffffffffffffffff\n        /* \"#utility.yul\":5108:5114   */\n      dup2\n        /* \"#utility.yul\":5105:5135   */\n      gt\n        /* \"#utility.yul\":5102:5219   */\n      iszero\n      tag_507\n      jumpi\n        /* \"#utility.yul\":5138:5217   */\n      tag_508\n      tag_393\n      jump\t// in\n    tag_508:\n        /* \"#utility.yul\":5102:5219   */\n    tag_507:\n        /* \"#utility.yul\":5243:5306   */\n      tag_509\n        /* \"#utility.yul\":5298:5305   */\n      dup9\n        /* \"#utility.yul\":5289:5295   */\n      dup3\n        /* \"#utility.yul\":5278:5287   */\n      dup10\n        /* \"#utility.yul\":5274:5296   */\n      add\n        /* \"#utility.yul\":5243:5306   */\n      tag_403\n      jump\t// in\n    tag_509:\n        /* \"#utility.yul\":5233:5306   */\n      swap5\n      pop\n        /* \"#utility.yul\":5028:5316   */\n      pop\n        /* \"#utility.yul\":5383:5385   */\n      0x40\n        /* \"#utility.yul\":5372:5381   */\n      dup7\n        /* \"#utility.yul\":5368:5386   */\n      add\n        /* \"#utility.yul\":5355:5387   */\n      calldataload\n        /* \"#utility.yul\":5414:5432   */\n      0xffffffffffffffff\n        /* \"#utility.yul\":5406:5412   */\n      dup2\n        /* \"#utility.yul\":5403:5433   */\n      gt\n        /* \"#utility.yul\":5400:5517   */\n      iszero\n      tag_510\n      jumpi\n        /* \"#utility.yul\":5436:5515   */\n      tag_511\n      tag_393\n      jump\t// in\n    tag_511:\n        /* \"#utility.yul\":5400:5517   */\n    tag_510:\n        /* \"#utility.yul\":5541:5604   */\n      tag_512\n        /* \"#utility.yul\":5596:5603   */\n      dup9\n        /* \"#utility.yul\":5587:5593   */\n      dup3\n        /* \"#utility.yul\":5576:5585   */\n      dup10\n        /* \"#utility.yul\":5572:5594   */\n      add\n        /* \"#utility.yul\":5541:5604   */\n      tag_403\n      jump\t// in\n    tag_512:\n        /* \"#utility.yul\":5531:5604   */\n      swap4\n      pop\n        /* \"#utility.yul\":5326:5614   */\n      pop\n        /* \"#utility.yul\":5681:5683   */\n      0x60\n        /* \"#utility.yul\":5670:5679   */\n      dup7\n        /* \"#utility.yul\":5666:5684   */\n      add\n        /* \"#utility.yul\":5653:5685   */\n      calldataload\n        /* \"#utility.yul\":5712:5730   */\n      0xffffffffffffffff\n        /* \"#utility.yul\":5704:5710   */\n      dup2\n        /* \"#utility.yul\":5701:5731   */\n      gt\n        /* \"#utility.yul\":5698:5815   */\n      iszero\n      tag_513\n      jumpi\n        /* \"#utility.yul\":5734:5813   */\n      tag_514\n      tag_393\n      jump\t// in\n    tag_514:\n        /* \"#utility.yul\":5698:5815   */\n    tag_513:\n        /* \"#utility.yul\":5839:5902   */\n      tag_515\n        /* \"#utility.yul\":5894:5901   */\n      dup9\n        /* \"#utility.yul\":5885:5891   */\n      dup3\n        /* \"#utility.yul\":5874:5883   */\n      dup10\n        /* \"#utility.yul\":5870:5892   */\n      add\n        /* \"#utility.yul\":5839:5902   */\n      tag_403\n      jump\t// in\n    tag_515:\n        /* \"#utility.yul\":5829:5902   */\n      swap3\n      pop\n        /* \"#utility.yul\":5624:5912   */\n      pop\n        /* \"#utility.yul\":5979:5982   */\n      0x80\n        /* \"#utility.yul\":5968:5977   */\n      dup7\n        /* \"#utility.yul\":5964:5983   */\n      add\n        /* \"#utility.yul\":5951:5984   */\n      calldataload\n        /* \"#utility.yul\":6011:6029   */\n      0xffffffffffffffff\n        /* \"#utility.yul\":6003:6009   */\n      dup2\n        /* \"#utility.yul\":6000:6030   */\n      gt\n        /* \"#utility.yul\":5997:6114   */\n      iszero\n      tag_516\n      jumpi\n        /* \"#utility.yul\":6033:6112   */\n      tag_517\n      tag_393\n      jump\t// in\n    tag_517:\n        /* \"#utility.yul\":5997:6114   */\n    tag_516:\n        /* \"#utility.yul\":6138:6226   */\n      tag_518\n        /* \"#utility.yul\":6218:6225   */\n      dup9\n        /* \"#utility.yul\":6209:6215   */\n      dup3\n        /* \"#utility.yul\":6198:6207   */\n      dup10\n        /* \"#utility.yul\":6194:6216   */\n      add\n        /* \"#utility.yul\":6138:6226   */\n      tag_407\n      jump\t// in\n    tag_518:\n        /* \"#utility.yul\":6128:6226   */\n      swap2\n      pop\n        /* \"#utility.yul\":5922:6236   */\n      pop\n        /* \"#utility.yul\":4382:6243   */\n      swap3\n      swap6\n      pop\n      swap3\n      swap6\n      swap1\n      swap4\n      pop\n      jump\t// out\n        /* \"#utility.yul\":6249:7083   */\n    tag_31:\n        /* \"#utility.yul\":6337:6343   */\n      0x00\n        /* \"#utility.yul\":6345:6351   */\n      dup1\n        /* \"#utility.yul\":6394:6396   */\n      0x40\n        /* \"#utility.yul\":6382:6391   */\n      dup4\n        /* \"#utility.yul\":6373:6380   */\n      dup6\n        /* \"#utility.yul\":6369:6392   */\n      sub\n        /* \"#utility.yul\":6365:6397   */\n      slt\n        /* \"#utility.yul\":6362:6481   */\n      iszero\n      tag_520\n      jumpi\n        /* \"#utility.yul\":6400:6479   */\n      tag_521\n      tag_392\n      jump\t// in\n    tag_521:\n        /* \"#utility.yul\":6362:6481   */\n    tag_520:\n        /* \"#utility.yul\":6548:6549   */\n      0x00\n        /* \"#utility.yul\":6537:6546   */\n      dup4\n        /* \"#utility.yul\":6533:6550   */\n      add\n        /* \"#utility.yul\":6520:6551   */\n      calldataload\n        /* \"#utility.yul\":6578:6596   */\n      0xffffffffffffffff\n        /* \"#utility.yul\":6570:6576   */\n      dup2\n        /* \"#utility.yul\":6567:6597   */\n      gt\n        /* \"#utility.yul\":6564:6681   */\n      iszero\n      tag_522\n      jumpi\n        /* \"#utility.yul\":6600:6679   */\n      tag_523\n      tag_393\n      jump\t// in\n    tag_523:\n        /* \"#utility.yul\":6564:6681   */\n    tag_522:\n        /* \"#utility.yul\":6705:6768   */\n      tag_524\n        /* \"#utility.yul\":6760:6767   */\n      dup6\n        /* \"#utility.yul\":6751:6757   */\n      dup3\n        /* \"#utility.yul\":6740:6749   */\n      dup7\n        /* \"#utility.yul\":6736:6758   */\n      add\n        /* \"#utility.yul\":6705:6768   */\n      tag_403\n      jump\t// in\n    tag_524:\n        /* \"#utility.yul\":6695:6768   */\n      swap3\n      pop\n        /* \"#utility.yul\":6491:6778   */\n      pop\n        /* \"#utility.yul\":6845:6847   */\n      0x20\n        /* \"#utility.yul\":6834:6843   */\n      dup4\n        /* \"#utility.yul\":6830:6848   */\n      add\n        /* \"#utility.yul\":6817:6849   */\n      calldataload\n        /* \"#utility.yul\":6876:6894   */\n      0xffffffffffffffff\n        /* \"#utility.yul\":6868:6874   */\n      dup2\n        /* \"#utility.yul\":6865:6895   */\n      gt\n        /* \"#utility.yul\":6862:6979   */\n      iszero\n      tag_525\n      jumpi\n        /* \"#utility.yul\":6898:6977   */\n      tag_526\n      tag_393\n      jump\t// in\n    tag_526:\n        /* \"#utility.yul\":6862:6979   */\n    tag_525:\n        /* \"#utility.yul\":7003:7066   */\n      tag_527\n        /* \"#utility.yul\":7058:7065   */\n      dup6\n        /* \"#utility.yul\":7049:7055   */\n      dup3\n        /* \"#utility.yul\":7038:7047   */\n      dup7\n        /* \"#utility.yul\":7034:7056   */\n      add\n        /* \"#utility.yul\":7003:7066   */\n      tag_403\n      jump\t// in\n    tag_527:\n        /* \"#utility.yul\":6993:7066   */\n      swap2\n      pop\n        /* \"#utility.yul\":6788:7076   */\n      pop\n        /* \"#utility.yul\":6249:7083   */\n      swap3\n      pop\n      swap3\n      swap1\n      pop\n      jump\t// out\n        /* \"#utility.yul\":7089:8398   */\n    tag_35:\n        /* \"#utility.yul\":7271:7277   */\n      0x00\n        /* \"#utility.yul\":7279:7285   */\n      dup1\n        /* \"#utility.yul\":7287:7293   */\n      0x00\n        /* \"#utility.yul\":7336:7338   */\n      0x60\n        /* \"#utility.yul\":7324:7333   */\n      dup5\n        /* \"#utility.yul\":7315:7322   */\n      dup7\n        /* \"#utility.yul\":7311:7334   */\n      sub\n        /* \"#utility.yul\":7307:7339   */\n      slt\n        /* \"#utility.yul\":7304:7423   */\n      iszero\n      tag_529\n      jumpi\n        /* \"#utility.yul\":7342:7421   */\n      tag_530\n      tag_392\n      jump\t// in\n    tag_530:\n        /* \"#utility.yul\":7304:7423   */\n    tag_529:\n        /* \"#utility.yul\":7490:7491   */\n      0x00\n        /* \"#utility.yul\":7479:7488   */\n      dup5\n        /* \"#utility.yul\":7475:7492   */\n      add\n        /* \"#utility.yul\":7462:7493   */\n      calldataload\n        /* \"#utility.yul\":7520:7538   */\n      0xffffffffffffffff\n        /* \"#utility.yul\":7512:7518   */\n      dup2\n        /* \"#utility.yul\":7509:7539   */\n      gt\n        /* \"#utility.yul\":7506:7623   */\n      iszero\n      tag_531\n      jumpi\n        /* \"#utility.yul\":7542:7621   */\n      tag_532\n      tag_393\n      jump\t// in\n    tag_532:\n        /* \"#utility.yul\":7506:7623   */\n    tag_531:\n        /* \"#utility.yul\":7647:7735   */\n      tag_533\n        /* \"#utility.yul\":7727:7734   */\n      dup7\n        /* \"#utility.yul\":7718:7724   */\n      dup3\n        /* \"#utility.yul\":7707:7716   */\n      dup8\n        /* \"#utility.yul\":7703:7725   */\n      add\n        /* \"#utility.yul\":7647:7735   */\n      tag_407\n      jump\t// in\n    tag_533:\n        /* \"#utility.yul\":7637:7735   */\n      swap4\n      pop\n        /* \"#utility.yul\":7433:7745   */\n      pop\n        /* \"#utility.yul\":7812:7814   */\n      0x20\n        /* \"#utility.yul\":7801:7810   */\n      dup5\n        /* \"#utility.yul\":7797:7815   */\n      add\n        /* \"#utility.yul\":7784:7816   */\n      calldataload\n        /* \"#utility.yul\":7843:7861   */\n      0xffffffffffffffff\n        /* \"#utility.yul\":7835:7841   */\n      dup2\n        /* \"#utility.yul\":7832:7862   */\n      gt\n        /* \"#utility.yul\":7829:7946   */\n      iszero\n      tag_534\n      jumpi\n        /* \"#utility.yul\":7865:7944   */\n      tag_535\n      tag_393\n      jump\t// in\n    tag_535:\n        /* \"#utility.yul\":7829:7946   */\n    tag_534:\n        /* \"#utility.yul\":7970:8058   */\n      tag_536\n        /* \"#utility.yul\":8050:8057   */\n      dup7\n        /* \"#utility.yul\":8041:8047   */\n      dup3\n        /* \"#utility.yul\":8030:8039   */\n      dup8\n        /* \"#utility.yul\":8026:8048   */\n      add\n        /* \"#utility.yul\":7970:8058   */\n      tag_407\n      jump\t// in\n    tag_536:\n        /* \"#utility.yul\":7960:8058   */\n      swap3\n      pop\n        /* \"#utility.yul\":7755:8068   */\n      pop\n        /* \"#utility.yul\":8135:8137   */\n      0x40\n        /* \"#utility.yul\":8124:8133   */\n      dup5\n        /* \"#utility.yul\":8120:8138   */\n      add\n        /* \"#utility.yul\":8107:8139   */\n      calldataload\n        /* \"#utility.yul\":8166:8184   */\n      0xffffffffffffffff\n        /* \"#utility.yul\":8158:8164   */\n      dup2\n        /* \"#utility.yul\":8155:8185   */\n      gt\n        /* \"#utility.yul\":8152:8269   */\n      iszero\n      tag_537\n      jumpi\n        /* \"#utility.yul\":8188:8267   */\n      tag_538\n      tag_393\n      jump\t// in\n    tag_538:\n        /* \"#utility.yul\":8152:8269   */\n    tag_537:\n        /* \"#utility.yul\":8293:8381   */\n      tag_539\n        /* \"#utility.yul\":8373:8380   */\n      dup7\n        /* \"#utility.yul\":8364:8370   */\n      dup3\n        /* \"#utility.yul\":8353:8362   */\n      dup8\n        /* \"#utility.yul\":8349:8371   */\n      add\n        /* \"#utility.yul\":8293:8381   */\n      tag_407\n      jump\t// in\n    tag_539:\n        /* \"#utility.yul\":8283:8381   */\n      swap2\n      pop\n        /* \"#utility.yul\":8078:8391   */\n      pop\n        /* \"#utility.yul\":7089:8398   */\n      swap3\n      pop\n      swap3\n      pop\n      swap3\n      jump\t// out\n        /* \"#utility.yul\":8404:8481   */\n    tag_408:\n        /* \"#utility.yul\":8441:8448   */\n      0x00\n        /* \"#utility.yul\":8470:8475   */\n      dup2\n        /* \"#utility.yul\":8459:8475   */\n      swap1\n      pop\n        /* \"#utility.yul\":8404:8481   */\n      swap2\n      swap1\n      pop\n      jump\t// out\n        /* \"#utility.yul\":8487:8605   */\n    tag_409:\n        /* \"#utility.yul\":8574:8598   */\n      tag_542\n        /* \"#utility.yul\":8592:8597   */\n      dup2\n        /* \"#utility.yul\":8574:8598   */\n      tag_408\n      jump\t// in\n    tag_542:\n        /* \"#utility.yul\":8569:8572   */\n      dup3\n        /* \"#utility.yul\":8562:8599   */\n      mstore\n        /* \"#utility.yul\":8487:8605   */\n      pop\n      pop\n      jump\t// out\n        /* \"#utility.yul\":8611:8833   */\n    tag_42:\n        /* \"#utility.yul\":8704:8708   */\n      0x00\n        /* \"#utility.yul\":8742:8744   */\n      0x20\n        /* \"#utility.yul\":8731:8740   */\n      dup3\n        /* \"#utility.yul\":8727:8745   */\n      add\n        /* \"#utility.yul\":8719:8745   */\n      swap1\n      pop\n        /* \"#utility.yul\":8755:8826   */\n      tag_544\n        /* \"#utility.yul\":8823:8824   */\n      0x00\n        /* \"#utility.yul\":8812:8821   */\n      dup4\n        /* \"#utility.yul\":8808:8825   */\n      add\n        /* \"#utility.yul\":8799:8805   */\n      dup5\n        /* \"#utility.yul\":8755:8826   */\n      tag_409\n      jump\t// in\n    tag_544:\n        /* \"#utility.yul\":8611:8833   */\n      swap3\n      swap2\n      pop\n      pop\n      jump\t// out\n        /* \"#utility.yul\":8839:10650   */\n    tag_45:\n        /* \"#utility.yul\":8984:8990   */\n      0x00\n        /* \"#utility.yul\":8992:8998   */\n      dup1\n        /* \"#utility.yul\":9000:9006   */\n      0x00\n        /* \"#utility.yul\":9008:9014   */\n      dup1\n        /* \"#utility.yul\":9016:9022   */\n      0x00\n        /* \"#utility.yul\":9065:9068   */\n      0xa0\n        /* \"#utility.yul\":9053:9062   */\n      dup7\n        /* \"#utility.yul\":9044:9051   */\n      dup9\n        /* \"#utility.yul\":9040:9063   */\n      sub\n        /* \"#utility.yul\":9036:9069   */\n      slt\n        /* \"#utility.yul\":9033:9153   */\n      iszero\n      tag_546\n      jumpi\n        /* \"#utility.yul\":9072:9151   */\n      tag_547\n      tag_392\n      jump\t// in\n    tag_547:\n        /* \"#utility.yul\":9033:9153   */\n    tag_546:\n        /* \"#utility.yul\":9220:9221   */\n      0x00\n        /* \"#utility.yul\":9209:9218   */\n      dup7\n        /* \"#utility.yul\":9205:9222   */\n      add\n        /* \"#utility.yul\":9192:9223   */\n      calldataload\n        /* \"#utility.yul\":9250:9268   */\n      0xffffffffffffffff\n        /* \"#utility.yul\":9242:9248   */\n      dup2\n        /* \"#utility.yul\":9239:9269   */\n      gt\n        /* \"#utility.yul\":9236:9353   */\n      iszero\n      tag_548\n      jumpi\n        /* \"#utility.yul\":9272:9351   */\n      tag_549\n      tag_393\n      jump\t// in\n    tag_549:\n        /* \"#utility.yul\":9236:9353   */\n    tag_548:\n        /* \"#utility.yul\":9377:9440   */\n      tag_550\n        /* \"#utility.yul\":9432:9439   */\n      dup9\n        /* \"#utility.yul\":9423:9429   */\n      dup3\n        /* \"#utility.yul\":9412:9421   */\n      dup10\n        /* \"#utility.yul\":9408:9430   */\n      add\n        /* \"#utility.yul\":9377:9440   */\n      tag_403\n      jump\t// in\n    tag_550:\n        /* \"#utility.yul\":9367:9440   */\n      swap6\n      pop\n        /* \"#utility.yul\":9163:9450   */\n      pop\n        /* \"#utility.yul\":9517:9519   */\n      0x20\n        /* \"#utility.yul\":9506:9515   */\n      dup7\n        /* \"#utility.yul\":9502:9520   */\n      add\n        /* \"#utility.yul\":9489:9521   */\n      calldataload\n        /* \"#utility.yul\":9548:9566   */\n      0xffffffffffffffff\n        /* \"#utility.yul\":9540:9546   */\n      dup2\n        /* \"#utility.yul\":9537:9567   */\n      gt\n        /* \"#utility.yul\":9534:9651   */\n      iszero\n      tag_551\n      jumpi\n        /* \"#utility.yul\":9570:9649   */\n      tag_552\n      tag_393\n      jump\t// in\n    tag_552:\n        /* \"#utility.yul\":9534:9651   */\n    tag_551:\n        /* \"#utility.yul\":9675:9738   */\n      tag_553\n        /* \"#utility.yul\":9730:9737   */\n      dup9\n        /* \"#utility.yul\":9721:9727   */\n      dup3\n        /* \"#utility.yul\":9710:9719   */\n      dup10\n        /* \"#utility.yul\":9706:9728   */\n      add\n        /* \"#utility.yul\":9675:9738   */\n      tag_403\n      jump\t// in\n    tag_553:\n        /* \"#utility.yul\":9665:9738   */\n      swap5\n      pop\n        /* \"#utility.yul\":9460:9748   */\n      pop\n        /* \"#utility.yul\":9815:9817   */\n      0x40\n        /* \"#utility.yul\":9804:9813   */\n      dup7\n        /* \"#utility.yul\":9800:9818   */\n      add\n        /* \"#utility.yul\":9787:9819   */\n      calldataload\n        /* \"#utility.yul\":9846:9864   */\n      0xffffffffffffffff\n        /* \"#utility.yul\":9838:9844   */\n      dup2\n        /* \"#utility.yul\":9835:9865   */\n      gt\n        /* \"#utility.yul\":9832:9949   */\n      iszero\n      tag_554\n      jumpi\n        /* \"#utility.yul\":9868:9947   */\n      tag_555\n      tag_393\n      jump\t// in\n    tag_555:\n        /* \"#utility.yul\":9832:9949   */\n    tag_554:\n        /* \"#utility.yul\":9973:10036   */\n      tag_556\n        /* \"#utility.yul\":10028:10035   */\n      dup9\n        /* \"#utility.yul\":10019:10025   */\n      dup3\n        /* \"#utility.yul\":10008:10017   */\n      dup10\n        /* \"#utility.yul\":10004:10026   */\n      add\n        /* \"#utility.yul\":9973:10036   */\n      tag_403\n      jump\t// in\n    tag_556:\n        /* \"#utility.yul\":9963:10036   */\n      swap4\n      pop\n        /* \"#utility.yul\":9758:10046   */\n      pop\n        /* \"#utility.yul\":10113:10115   */\n      0x60\n        /* \"#utility.yul\":10102:10111   */\n      dup7\n        /* \"#utility.yul\":10098:10116   */\n      add\n        /* \"#utility.yul\":10085:10117   */\n      calldataload\n        /* \"#utility.yul\":10144:10162   */\n      0xffffffffffffffff\n        /* \"#utility.yul\":10136:10142   */\n      dup2\n        /* \"#utility.yul\":10133:10163   */\n      gt\n        /* \"#utility.yul\":10130:10247   */\n      iszero\n      tag_557\n      jumpi\n        /* \"#utility.yul\":10166:10245   */\n      tag_558\n      tag_393\n      jump\t// in\n    tag_558:\n        /* \"#utility.yul\":10130:10247   */\n    tag_557:\n        /* \"#utility.yul\":10271:10334   */\n      tag_559\n        /* \"#utility.yul\":10326:10333   */\n      dup9\n        /* \"#utility.yul\":10317:10323   */\n      dup3\n        /* \"#utility.yul\":10306:10315   */\n      dup10\n        /* \"#utility.yul\":10302:10324   */\n      add\n        /* \"#utility.yul\":10271:10334   */\n      tag_403\n      jump\t// in\n    tag_559:\n        /* \"#utility.yul\":10261:10334   */\n      swap3\n      pop\n        /* \"#utility.yul\":10056:10344   */\n      pop\n        /* \"#utility.yul\":10411:10414   */\n      0x80\n        /* \"#utility.yul\":10400:10409   */\n      dup7\n        /* \"#utility.yul\":10396:10415   */\n      add\n        /* \"#utility.yul\":10383:10416   */\n      calldataload\n        /* \"#utility.yul\":10443:10461   */\n      0xffffffffffffffff\n        /* \"#utility.yul\":10435:10441   */\n      dup2\n        /* \"#utility.yul\":10432:10462   */\n      gt\n        /* \"#utility.yul\":10429:10546   */\n      iszero\n      tag_560\n      jumpi\n        /* \"#utility.yul\":10465:10544   */\n      tag_561\n      tag_393\n      jump\t// in\n    tag_561:\n        /* \"#utility.yul\":10429:10546   */\n    tag_560:\n        /* \"#utility.yul\":10570:10633   */\n      tag_562\n        /* \"#utility.yul\":10625:10632   */\n      dup9\n        /* \"#utility.yul\":10616:10622   */\n      dup3\n        /* \"#utility.yul\":10605:10614   */\n      dup10\n        /* \"#utility.yul\":10601:10623   */\n      add\n        /* \"#utility.yul\":10570:10633   */\n      tag_403\n      jump\t// in\n    tag_562:\n        /* \"#utility.yul\":10560:10633   */\n      swap2\n      pop\n        /* \"#utility.yul\":10354:10643   */\n      pop\n        /* \"#utility.yul\":8839:10650   */\n      swap3\n      swap6\n      pop\n      swap3\n      swap6\n      swap1\n      swap4\n      pop\n      jump\t// out\n        /* \"#utility.yul\":10656:11590   */\n    tag_49:\n        /* \"#utility.yul\":10794:10800   */\n      0x00\n        /* \"#utility.yul\":10802:10808   */\n      dup1\n        /* \"#utility.yul\":10851:10853   */\n      0x40\n        /* \"#utility.yul\":10839:10848   */\n      dup4\n        /* \"#utility.yul\":10830:10837   */\n      dup6\n        /* \"#utility.yul\":10826:10849   */\n      sub\n        /* \"#utility.yul\":10822:10854   */\n      slt\n        /* \"#utility.yul\":10819:10938   */\n      iszero\n      tag_564\n      jumpi\n        /* \"#utility.yul\":10857:10936   */\n      tag_565\n      tag_392\n      jump\t// in\n    tag_565:\n        /* \"#utility.yul\":10819:10938   */\n    tag_564:\n        /* \"#utility.yul\":11005:11006   */\n      0x00\n        /* \"#utility.yul\":10994:11003   */\n      dup4\n        /* \"#utility.yul\":10990:11007   */\n      add\n        /* \"#utility.yul\":10977:11008   */\n      calldataload\n        /* \"#utility.yul\":11035:11053   */\n      0xffffffffffffffff\n        /* \"#utility.yul\":11027:11033   */\n      dup2\n        /* \"#utility.yul\":11024:11054   */\n      gt\n        /* \"#utility.yul\":11021:11138   */\n      iszero\n      tag_566\n      jumpi\n        /* \"#utility.yul\":11057:11136   */\n      tag_567\n      tag_393\n      jump\t// in\n    tag_567:\n        /* \"#utility.yul\":11021:11138   */\n    tag_566:\n        /* \"#utility.yul\":11162:11250   */\n      tag_568\n        /* \"#utility.yul\":11242:11249   */\n      dup6\n        /* \"#utility.yul\":11233:11239   */\n      dup3\n        /* \"#utility.yul\":11222:11231   */\n      dup7\n        /* \"#utility.yul\":11218:11240   */\n      add\n        /* \"#utility.yul\":11162:11250   */\n      tag_407\n      jump\t// in\n    tag_568:\n        /* \"#utility.yul\":11152:11250   */\n      swap3\n      pop\n        /* \"#utility.yul\":10948:11260   */\n      pop\n        /* \"#utility.yul\":11327:11329   */\n      0x20\n        /* \"#utility.yul\":11316:11325   */\n      dup4\n        /* \"#utility.yul\":11312:11330   */\n      add\n        /* \"#utility.yul\":11299:11331   */\n      calldataload\n        /* \"#utility.yul\":11358:11376   */\n      0xffffffffffffffff\n        /* \"#utility.yul\":11350:11356   */\n      dup2\n        /* \"#utility.yul\":11347:11377   */\n      gt\n        /* \"#utility.yul\":11344:11461   */\n      iszero\n      tag_569\n      jumpi\n        /* \"#utility.yul\":11380:11459   */\n      tag_570\n      tag_393\n      jump\t// in\n    tag_570:\n        /* \"#utility.yul\":11344:11461   */\n    tag_569:\n        /* \"#utility.yul\":11485:11573   */\n      tag_571\n        /* \"#utility.yul\":11565:11572   */\n      dup6\n        /* \"#utility.yul\":11556:11562   */\n      dup3\n        /* \"#utility.yul\":11545:11554   */\n      dup7\n        /* \"#utility.yul\":11541:11563   */\n      add\n        /* \"#utility.yul\":11485:11573   */\n      tag_407\n      jump\t// in\n    tag_571:\n        /* \"#utility.yul\":11475:11573   */\n      swap2\n      pop\n        /* \"#utility.yul\":11270:11583   */\n      pop\n        /* \"#utility.yul\":10656:11590   */\n      swap3\n      pop\n      swap3\n      swap1\n      pop\n      jump\t// out\n        /* \"#utility.yul\":11596:13733   */\n    tag_56:\n        /* \"#utility.yul\":11760:11766   */\n      0x00\n        /* \"#utility.yul\":11768:11774   */\n      dup1\n        /* \"#utility.yul\":11776:11782   */\n      0x00\n        /* \"#utility.yul\":11784:11790   */\n      dup1\n        /* \"#utility.yul\":11792:11798   */\n      0x00\n        /* \"#utility.yul\":11800:11806   */\n      dup1\n        /* \"#utility.yul\":11849:11852   */\n      0xc0\n        /* \"#utility.yul\":11837:11846   */\n      dup8\n        /* \"#utility.yul\":11828:11835   */\n      dup10\n        /* \"#utility.yul\":11824:11847   */\n      sub\n        /* \"#utility.yul\":11820:11853   */\n      slt\n        /* \"#utility.yul\":11817:11937   */\n      iszero\n      tag_573\n      jumpi\n        /* \"#utility.yul\":11856:11935   */\n      tag_574\n      tag_392\n      jump\t// in\n    tag_574:\n        /* \"#utility.yul\":11817:11937   */\n    tag_573:\n        /* \"#utility.yul\":12004:12005   */\n      0x00\n        /* \"#utility.yul\":11993:12002   */\n      dup8\n        /* \"#utility.yul\":11989:12006   */\n      add\n        /* \"#utility.yul\":11976:12007   */\n      calldataload\n        /* \"#utility.yul\":12034:12052   */\n      0xffffffffffffffff\n        /* \"#utility.yul\":12026:12032   */\n      dup2\n        /* \"#utility.yul\":12023:12053   */\n      gt\n        /* \"#utility.yul\":12020:12137   */\n      iszero\n      tag_575\n      jumpi\n        /* \"#utility.yul\":12056:12135   */\n      tag_576\n      tag_393\n      jump\t// in\n    tag_576:\n        /* \"#utility.yul\":12020:12137   */\n    tag_575:\n        /* \"#utility.yul\":12161:12224   */\n      tag_577\n        /* \"#utility.yul\":12216:12223   */\n      dup10\n        /* \"#utility.yul\":12207:12213   */\n      dup3\n        /* \"#utility.yul\":12196:12205   */\n      dup11\n        /* \"#utility.yul\":12192:12214   */\n      add\n        /* \"#utility.yul\":12161:12224   */\n      tag_403\n      jump\t// in\n    tag_577:\n        /* \"#utility.yul\":12151:12224   */\n      swap7\n      pop\n        /* \"#utility.yul\":11947:12234   */\n      pop\n        /* \"#utility.yul\":12301:12303   */\n      0x20\n        /* \"#utility.yul\":12290:12299   */\n      dup8\n        /* \"#utility.yul\":12286:12304   */\n      add\n        /* \"#utility.yul\":12273:12305   */\n      calldataload\n        /* \"#utility.yul\":12332:12350   */\n      0xffffffffffffffff\n        /* \"#utility.yul\":12324:12330   */\n      dup2\n        /* \"#utility.yul\":12321:12351   */\n      gt\n        /* \"#utility.yul\":12318:12435   */\n      iszero\n      tag_578\n      jumpi\n        /* \"#utility.yul\":12354:12433   */\n      tag_579\n      tag_393\n      jump\t// in\n    tag_579:\n        /* \"#utility.yul\":12318:12435   */\n    tag_578:\n        /* \"#utility.yul\":12459:12522   */\n      tag_580\n        /* \"#utility.yul\":12514:12521   */\n      dup10\n        /* \"#utility.yul\":12505:12511   */\n      dup3\n        /* \"#utility.yul\":12494:12503   */\n      dup11\n        /* \"#utility.yul\":12490:12512   */\n      add\n        /* \"#utility.yul\":12459:12522   */\n      tag_403\n      jump\t// in\n    tag_580:\n        /* \"#utility.yul\":12449:12522   */\n      swap6\n      pop\n        /* \"#utility.yul\":12244:12532   */\n      pop\n        /* \"#utility.yul\":12599:12601   */\n      0x40\n        /* \"#utility.yul\":12588:12597   */\n      dup8\n        /* \"#utility.yul\":12584:12602   */\n      add\n        /* \"#utility.yul\":12571:12603   */\n      calldataload\n        /* \"#utility.yul\":12630:12648   */\n      0xffffffffffffffff\n        /* \"#utility.yul\":12622:12628   */\n      dup2\n        /* \"#utility.yul\":12619:12649   */\n      gt\n        /* \"#utility.yul\":12616:12733   */\n      iszero\n      tag_581\n      jumpi\n        /* \"#utility.yul\":12652:12731   */\n      tag_582\n      tag_393\n      jump\t// in\n    tag_582:\n        /* \"#utility.yul\":12616:12733   */\n    tag_581:\n        /* \"#utility.yul\":12757:12820   */\n      tag_583\n        /* \"#utility.yul\":12812:12819   */\n      dup10\n        /* \"#utility.yul\":12803:12809   */\n      dup3\n        /* \"#utility.yul\":12792:12801   */\n      dup11\n        /* \"#utility.yul\":12788:12810   */\n      add\n        /* \"#utility.yul\":12757:12820   */\n      tag_403\n      jump\t// in\n    tag_583:\n        /* \"#utility.yul\":12747:12820   */\n      swap5\n      pop\n        /* \"#utility.yul\":12542:12830   */\n      pop\n        /* \"#utility.yul\":12897:12899   */\n      0x60\n        /* \"#utility.yul\":12886:12895   */\n      dup8\n        /* \"#utility.yul\":12882:12900   */\n      add\n        /* \"#utility.yul\":12869:12901   */\n      calldataload\n        /* \"#utility.yul\":12928:12946   */\n      0xffffffffffffffff\n        /* \"#utility.yul\":12920:12926   */\n      dup2\n        /* \"#utility.yul\":12917:12947   */\n      gt\n        /* \"#utility.yul\":12914:13031   */\n      iszero\n      tag_584\n      jumpi\n        /* \"#utility.yul\":12950:13029   */\n      tag_585\n      tag_393\n      jump\t// in\n    tag_585:\n        /* \"#utility.yul\":12914:13031   */\n    tag_584:\n        /* \"#utility.yul\":13055:13118   */\n      tag_586\n        /* \"#utility.yul\":13110:13117   */\n      dup10\n        /* \"#utility.yul\":13101:13107   */\n      dup3\n        /* \"#utility.yul\":13090:13099   */\n      dup11\n        /* \"#utility.yul\":13086:13108   */\n      add\n        /* \"#utility.yul\":13055:13118   */\n      tag_403\n      jump\t// in\n    tag_586:\n        /* \"#utility.yul\":13045:13118   */\n      swap4\n      pop\n        /* \"#utility.yul\":12840:13128   */\n      pop\n        /* \"#utility.yul\":13195:13198   */\n      0x80\n        /* \"#utility.yul\":13184:13193   */\n      dup8\n        /* \"#utility.yul\":13180:13199   */\n      add\n        /* \"#utility.yul\":13167:13200   */\n      calldataload\n        /* \"#utility.yul\":13227:13245   */\n      0xffffffffffffffff\n        /* \"#utility.yul\":13219:13225   */\n      dup2\n        /* \"#utility.yul\":13216:13246   */\n      gt\n        /* \"#utility.yul\":13213:13330   */\n      iszero\n      tag_587\n      jumpi\n        /* \"#utility.yul\":13249:13328   */\n      tag_588\n      tag_393\n      jump\t// in\n    tag_588:\n        /* \"#utility.yul\":13213:13330   */\n    tag_587:\n        /* \"#utility.yul\":13354:13417   */\n      tag_589\n        /* \"#utility.yul\":13409:13416   */\n      dup10\n        /* \"#utility.yul\":13400:13406   */\n      dup3\n        /* \"#utility.yul\":13389:13398   */\n      dup11\n        /* \"#utility.yul\":13385:13407   */\n      add\n        /* \"#utility.yul\":13354:13417   */\n      tag_403\n      jump\t// in\n    tag_589:\n        /* \"#utility.yul\":13344:13417   */\n      swap3\n      pop\n        /* \"#utility.yul\":13138:13427   */\n      pop\n        /* \"#utility.yul\":13494:13497   */\n      0xa0\n        /* \"#utility.yul\":13483:13492   */\n      dup8\n        /* \"#utility.yul\":13479:13498   */\n      add\n        /* \"#utility.yul\":13466:13499   */\n      calldataload\n        /* \"#utility.yul\":13526:13544   */\n      0xffffffffffffffff\n        /* \"#utility.yul\":13518:13524   */\n      dup2\n        /* \"#utility.yul\":13515:13545   */\n      gt\n        /* \"#utility.yul\":13512:13629   */\n      iszero\n      tag_590\n      jumpi\n        /* \"#utility.yul\":13548:13627   */\n      tag_591\n      tag_393\n      jump\t// in\n    tag_591:\n        /* \"#utility.yul\":13512:13629   */\n    tag_590:\n        /* \"#utility.yul\":13653:13716   */\n      tag_592\n        /* \"#utility.yul\":13708:13715   */\n      dup10\n        /* \"#utility.yul\":13699:13705   */\n      dup3\n        /* \"#utility.yul\":13688:13697   */\n      dup11\n        /* \"#utility.yul\":13684:13706   */\n      add\n        /* \"#utility.yul\":13653:13716   */\n      tag_403\n      jump\t// in\n    tag_592:\n        /* \"#utility.yul\":13643:13716   */\n      swap2\n      pop\n        /* \"#utility.yul\":13437:13726   */\n      pop\n        /* \"#utility.yul\":11596:13733   */\n      swap3\n      swap6\n      pop\n      swap3\n      swap6\n      pop\n      swap3\n      swap6\n      jump\t// out\n        /* \"#utility.yul\":13739:13865   */\n    tag_410:\n        /* \"#utility.yul\":13776:13783   */\n      0x00\n        /* \"#utility.yul\":13816:13858   */\n      0xffffffffffffffffffffffffffffffffffffffff\n        /* \"#utility.yul\":13809:13814   */\n      dup3\n        /* \"#utility.yul\":13805:13859   */\n      and\n        /* \"#utility.yul\":13794:13859   */\n      swap1\n      pop\n        /* \"#utility.yul\":13739:13865   */\n      swap2\n      swap1\n      pop\n      jump\t// out\n        /* \"#utility.yul\":13871:13967   */\n    tag_411:\n        /* \"#utility.yul\":13908:13915   */\n      0x00\n        /* \"#utility.yul\":13937:13961   */\n      tag_595\n        /* \"#utility.yul\":13955:13960   */\n      dup3\n        /* \"#utility.yul\":13937:13961   */\n      tag_410\n      jump\t// in\n    tag_595:\n        /* \"#utility.yul\":13926:13961   */\n      swap1\n      pop\n        /* \"#utility.yul\":13871:13967   */\n      swap2\n      swap1\n      pop\n      jump\t// out\n        /* \"#utility.yul\":13973:14095   */\n    tag_412:\n        /* \"#utility.yul\":14046:14070   */\n      tag_597\n        /* \"#utility.yul\":14064:14069   */\n      dup2\n        /* \"#utility.yul\":14046:14070   */\n      tag_411\n      jump\t// in\n    tag_597:\n        /* \"#utility.yul\":14039:14044   */\n      dup2\n        /* \"#utility.yul\":14036:14071   */\n      eq\n        /* \"#utility.yul\":14026:14089   */\n      tag_598\n      jumpi\n        /* \"#utility.yul\":14085:14086   */\n      0x00\n        /* \"#utility.yul\":14082:14083   */\n      dup1\n        /* \"#utility.yul\":14075:14087   */\n      revert\n        /* \"#utility.yul\":14026:14089   */\n    tag_598:\n        /* \"#utility.yul\":13973:14095   */\n      pop\n      jump\t// out\n        /* \"#utility.yul\":14101:14240   */\n    tag_413:\n        /* \"#utility.yul\":14147:14152   */\n      0x00\n        /* \"#utility.yul\":14185:14191   */\n      dup2\n        /* \"#utility.yul\":14172:14192   */\n      calldataload\n        /* \"#utility.yul\":14163:14192   */\n      swap1\n      pop\n        /* \"#utility.yul\":14201:14234   */\n      tag_600\n        /* \"#utility.yul\":14228:14233   */\n      dup2\n        /* \"#utility.yul\":14201:14234   */\n      tag_412\n      jump\t// in\n    tag_600:\n        /* \"#utility.yul\":14101:14240   */\n      swap3\n      swap2\n      pop\n      pop\n      jump\t// out\n        /* \"#utility.yul\":14246:14575   */\n    tag_62:\n        /* \"#utility.yul\":14305:14311   */\n      0x00\n        /* \"#utility.yul\":14354:14356   */\n      0x20\n        /* \"#utility.yul\":14342:14351   */\n      dup3\n        /* \"#utility.yul\":14333:14340   */\n      dup5\n        /* \"#utility.yul\":14329:14352   */\n      sub\n        /* \"#utility.yul\":14325:14357   */\n      slt\n        /* \"#utility.yul\":14322:14441   */\n      iszero\n      tag_602\n      jumpi\n        /* \"#utility.yul\":14360:14439   */\n      tag_603\n      tag_392\n      jump\t// in\n    tag_603:\n        /* \"#utility.yul\":14322:14441   */\n    tag_602:\n        /* \"#utility.yul\":14480:14481   */\n      0x00\n        /* \"#utility.yul\":14505:14558   */\n      tag_604\n        /* \"#utility.yul\":14550:14557   */\n      dup5\n        /* \"#utility.yul\":14541:14547   */\n      dup3\n        /* \"#utility.yul\":14530:14539   */\n      dup6\n        /* \"#utility.yul\":14526:14548   */\n      add\n        /* \"#utility.yul\":14505:14558   */\n      tag_413\n      jump\t// in\n    tag_604:\n        /* \"#utility.yul\":14495:14558   */\n      swap2\n      pop\n        /* \"#utility.yul\":14451:14568   */\n      pop\n        /* \"#utility.yul\":14246:14575   */\n      swap3\n      swap2\n      pop\n      pop\n      jump\t// out\n        /* \"#utility.yul\":14581:14680   */\n    tag_414:\n        /* \"#utility.yul\":14633:14639   */\n      0x00\n        /* \"#utility.yul\":14667:14672   */\n      dup2\n        /* \"#utility.yul\":14661:14673   */\n      mload\n        /* \"#utility.yul\":14651:14673   */\n      swap1\n      pop\n        /* \"#utility.yul\":14581:14680   */\n      swap2\n      swap1\n      pop\n      jump\t// out\n        /* \"#utility.yul\":14686:14845   */\n    tag_415:\n        /* \"#utility.yul\":14760:14771   */\n      0x00\n        /* \"#utility.yul\":14794:14800   */\n      dup3\n        /* \"#utility.yul\":14789:14792   */\n      dup3\n        /* \"#utility.yul\":14782:14801   */\n      mstore\n        /* \"#utility.yul\":14834:14838   */\n      0x20\n        /* \"#utility.yul\":14829:14832   */\n      dup3\n        /* \"#utility.yul\":14825:14839   */\n      add\n        /* \"#utility.yul\":14810:14839   */\n      swap1\n      pop\n        /* \"#utility.yul\":14686:14845   */\n      swap3\n      swap2\n      pop\n      pop\n      jump\t// out\n        /* \"#utility.yul\":14851:15097   */\n    tag_416:\n        /* \"#utility.yul\":14932:14933   */\n      0x00\n        /* \"#utility.yul\":14942:15055   */\n    tag_608:\n        /* \"#utility.yul\":14956:14962   */\n      dup4\n        /* \"#utility.yul\":14953:14954   */\n      dup2\n        /* \"#utility.yul\":14950:14963   */\n      lt\n        /* \"#utility.yul\":14942:15055   */\n      iszero\n      tag_610\n      jumpi\n        /* \"#utility.yul\":15041:15042   */\n      dup1\n        /* \"#utility.yul\":15036:15039   */\n      dup3\n        /* \"#utility.yul\":15032:15043   */\n      add\n        /* \"#utility.yul\":15026:15044   */\n      mload\n        /* \"#utility.yul\":15022:15023   */\n      dup2\n        /* \"#utility.yul\":15017:15020   */\n      dup5\n        /* \"#utility.yul\":15013:15024   */\n      add\n        /* \"#utility.yul\":15006:15045   */\n      mstore\n        /* \"#utility.yul\":14978:14980   */\n      0x20\n        /* \"#utility.yul\":14975:14976   */\n      dup2\n        /* \"#utility.yul\":14971:14981   */\n      add\n        /* \"#utility.yul\":14966:14981   */\n      swap1\n      pop\n        /* \"#utility.yul\":14942:15055   */\n      jump(tag_608)\n    tag_610:\n        /* \"#utility.yul\":15089:15090   */\n      0x00\n        /* \"#utility.yul\":15080:15086   */\n      dup5\n        /* \"#utility.yul\":15075:15078   */\n      dup5\n        /* \"#utility.yul\":15071:15087   */\n      add\n        /* \"#utility.yul\":15064:15091   */\n      mstore\n        /* \"#utility.yul\":14913:15097   */\n      pop\n        /* \"#utility.yul\":14851:15097   */\n      pop\n      pop\n      pop\n      jump\t// out\n        /* \"#utility.yul\":15103:15460   */\n    tag_417:\n        /* \"#utility.yul\":15181:15184   */\n      0x00\n        /* \"#utility.yul\":15209:15248   */\n      tag_612\n        /* \"#utility.yul\":15242:15247   */\n      dup3\n        /* \"#utility.yul\":15209:15248   */\n      tag_414\n      jump\t// in\n    tag_612:\n        /* \"#utility.yul\":15264:15325   */\n      tag_613\n        /* \"#utility.yul\":15318:15324   */\n      dup2\n        /* \"#utility.yul\":15313:15316   */\n      dup6\n        /* \"#utility.yul\":15264:15325   */\n      tag_415\n      jump\t// in\n    tag_613:\n        /* \"#utility.yul\":15257:15325   */\n      swap4\n      pop\n        /* \"#utility.yul\":15334:15399   */\n      tag_614\n        /* \"#utility.yul\":15392:15398   */\n      dup2\n        /* \"#utility.yul\":15387:15390   */\n      dup6\n        /* \"#utility.yul\":15380:15384   */\n      0x20\n        /* \"#utility.yul\":15373:15378   */\n      dup7\n        /* \"#utility.yul\":15369:15385   */\n      add\n        /* \"#utility.yul\":15334:15399   */\n      tag_416\n      jump\t// in\n    tag_614:\n        /* \"#utility.yul\":15424:15453   */\n      tag_615\n        /* \"#utility.yul\":15446:15452   */\n      dup2\n        /* \"#utility.yul\":15424:15453   */\n      tag_396\n      jump\t// in\n    tag_615:\n        /* \"#utility.yul\":15419:15422   */\n      dup5\n        /* \"#utility.yul\":15415:15454   */\n      add\n        /* \"#utility.yul\":15408:15454   */\n      swap2\n      pop\n        /* \"#utility.yul\":15185:15460   */\n      pop\n        /* \"#utility.yul\":15103:15460   */\n      swap3\n      swap2\n      pop\n      pop\n      jump\t// out\n        /* \"#utility.yul\":15466:15574   */\n    tag_418:\n        /* \"#utility.yul\":15543:15567   */\n      tag_617\n        /* \"#utility.yul\":15561:15566   */\n      dup2\n        /* \"#utility.yul\":15543:15567   */\n      tag_411\n      jump\t// in\n    tag_617:\n        /* \"#utility.yul\":15538:15541   */\n      dup3\n        /* \"#utility.yul\":15531:15568   */\n      mstore\n        /* \"#utility.yul\":15466:15574   */\n      pop\n      pop\n      jump\t// out\n        /* \"#utility.yul\":15580:15688   */\n    tag_419:\n        /* \"#utility.yul\":15657:15681   */\n      tag_619\n        /* \"#utility.yul\":15675:15680   */\n      dup2\n        /* \"#utility.yul\":15657:15681   */\n      tag_408\n      jump\t// in\n    tag_619:\n        /* \"#utility.yul\":15652:15655   */\n      dup3\n        /* \"#utility.yul\":15645:15682   */\n      mstore\n        /* \"#utility.yul\":15580:15688   */\n      pop\n      pop\n      jump\t// out\n        /* \"#utility.yul\":15758:17812   */\n    tag_420:\n        /* \"#utility.yul\":15881:15884   */\n      0x00\n        /* \"#utility.yul\":15917:15923   */\n      0x0100\n        /* \"#utility.yul\":15912:15915   */\n      dup4\n        /* \"#utility.yul\":15908:15924   */\n      add\n        /* \"#utility.yul\":16009:16013   */\n      0x00\n        /* \"#utility.yul\":16002:16007   */\n      dup4\n        /* \"#utility.yul\":15998:16014   */\n      add\n        /* \"#utility.yul\":15992:16015   */\n      mload\n        /* \"#utility.yul\":16062:16065   */\n      dup5\n        /* \"#utility.yul\":16056:16060   */\n      dup3\n        /* \"#utility.yul\":16052:16066   */\n      sub\n        /* \"#utility.yul\":16045:16049   */\n      0x00\n        /* \"#utility.yul\":16040:16043   */\n      dup7\n        /* \"#utility.yul\":16036:16050   */\n      add\n        /* \"#utility.yul\":16029:16067   */\n      mstore\n        /* \"#utility.yul\":16088:16161   */\n      tag_621\n        /* \"#utility.yul\":16156:16160   */\n      dup3\n        /* \"#utility.yul\":16142:16154   */\n      dup3\n        /* \"#utility.yul\":16088:16161   */\n      tag_417\n      jump\t// in\n    tag_621:\n        /* \"#utility.yul\":16080:16161   */\n      swap2\n      pop\n        /* \"#utility.yul\":15934:16172   */\n      pop\n        /* \"#utility.yul\":16258:16262   */\n      0x20\n        /* \"#utility.yul\":16251:16256   */\n      dup4\n        /* \"#utility.yul\":16247:16263   */\n      add\n        /* \"#utility.yul\":16241:16264   */\n      mload\n        /* \"#utility.yul\":16311:16314   */\n      dup5\n        /* \"#utility.yul\":16305:16309   */\n      dup3\n        /* \"#utility.yul\":16301:16315   */\n      sub\n        /* \"#utility.yul\":16294:16298   */\n      0x20\n        /* \"#utility.yul\":16289:16292   */\n      dup7\n        /* \"#utility.yul\":16285:16299   */\n      add\n        /* \"#utility.yul\":16278:16316   */\n      mstore\n        /* \"#utility.yul\":16337:16410   */\n      tag_622\n        /* \"#utility.yul\":16405:16409   */\n      dup3\n        /* \"#utility.yul\":16391:16403   */\n      dup3\n        /* \"#utility.yul\":16337:16410   */\n      tag_417\n      jump\t// in\n    tag_622:\n        /* \"#utility.yul\":16329:16410   */\n      swap2\n      pop\n        /* \"#utility.yul\":16182:16421   */\n      pop\n        /* \"#utility.yul\":16510:16514   */\n      0x40\n        /* \"#utility.yul\":16503:16508   */\n      dup4\n        /* \"#utility.yul\":16499:16515   */\n      add\n        /* \"#utility.yul\":16493:16516   */\n      mload\n        /* \"#utility.yul\":16529:16592   */\n      tag_623\n        /* \"#utility.yul\":16586:16590   */\n      0x40\n        /* \"#utility.yul\":16581:16584   */\n      dup7\n        /* \"#utility.yul\":16577:16591   */\n      add\n        /* \"#utility.yul\":16563:16575   */\n      dup3\n        /* \"#utility.yul\":16529:16592   */\n      tag_418\n      jump\t// in\n    tag_623:\n        /* \"#utility.yul\":16431:16602   */\n      pop\n        /* \"#utility.yul\":16689:16693   */\n      0x60\n        /* \"#utility.yul\":16682:16687   */\n      dup4\n        /* \"#utility.yul\":16678:16694   */\n      add\n        /* \"#utility.yul\":16672:16695   */\n      mload\n        /* \"#utility.yul\":16742:16745   */\n      dup5\n        /* \"#utility.yul\":16736:16740   */\n      dup3\n        /* \"#utility.yul\":16732:16746   */\n      sub\n        /* \"#utility.yul\":16725:16729   */\n      0x60\n        /* \"#utility.yul\":16720:16723   */\n      dup7\n        /* \"#utility.yul\":16716:16730   */\n      add\n        /* \"#utility.yul\":16709:16747   */\n      mstore\n        /* \"#utility.yul\":16768:16841   */\n      tag_624\n        /* \"#utility.yul\":16836:16840   */\n      dup3\n        /* \"#utility.yul\":16822:16834   */\n      dup3\n        /* \"#utility.yul\":16768:16841   */\n      tag_417\n      jump\t// in\n    tag_624:\n        /* \"#utility.yul\":16760:16841   */\n      swap2\n      pop\n        /* \"#utility.yul\":16612:16852   */\n      pop\n        /* \"#utility.yul\":16940:16944   */\n      0x80\n        /* \"#utility.yul\":16933:16938   */\n      dup4\n        /* \"#utility.yul\":16929:16945   */\n      add\n        /* \"#utility.yul\":16923:16946   */\n      mload\n        /* \"#utility.yul\":16993:16996   */\n      dup5\n        /* \"#utility.yul\":16987:16991   */\n      dup3\n        /* \"#utility.yul\":16983:16997   */\n      sub\n        /* \"#utility.yul\":16976:16980   */\n      0x80\n        /* \"#utility.yul\":16971:16974   */\n      dup7\n        /* \"#utility.yul\":16967:16981   */\n      add\n        /* \"#utility.yul\":16960:16998   */\n      mstore\n        /* \"#utility.yul\":17019:17092   */\n      tag_625\n        /* \"#utility.yul\":17087:17091   */\n      dup3\n        /* \"#utility.yul\":17073:17085   */\n      dup3\n        /* \"#utility.yul\":17019:17092   */\n      tag_417\n      jump\t// in\n    tag_625:\n        /* \"#utility.yul\":17011:17092   */\n      swap2\n      pop\n        /* \"#utility.yul\":16862:17103   */\n      pop\n        /* \"#utility.yul\":17189:17193   */\n      0xa0\n        /* \"#utility.yul\":17182:17187   */\n      dup4\n        /* \"#utility.yul\":17178:17194   */\n      add\n        /* \"#utility.yul\":17172:17195   */\n      mload\n        /* \"#utility.yul\":17242:17245   */\n      dup5\n        /* \"#utility.yul\":17236:17240   */\n      dup3\n        /* \"#utility.yul\":17232:17246   */\n      sub\n        /* \"#utility.yul\":17225:17229   */\n      0xa0\n        /* \"#utility.yul\":17220:17223   */\n      dup7\n        /* \"#utility.yul\":17216:17230   */\n      add\n        /* \"#utility.yul\":17209:17247   */\n      mstore\n        /* \"#utility.yul\":17268:17341   */\n      tag_626\n        /* \"#utility.yul\":17336:17340   */\n      dup3\n        /* \"#utility.yul\":17322:17334   */\n      dup3\n        /* \"#utility.yul\":17268:17341   */\n      tag_417\n      jump\t// in\n    tag_626:\n        /* \"#utility.yul\":17260:17341   */\n      swap2\n      pop\n        /* \"#utility.yul\":17113:17352   */\n      pop\n        /* \"#utility.yul\":17442:17446   */\n      0xc0\n        /* \"#utility.yul\":17435:17440   */\n      dup4\n        /* \"#utility.yul\":17431:17447   */\n      add\n        /* \"#utility.yul\":17425:17448   */\n      mload\n        /* \"#utility.yul\":17495:17498   */\n      dup5\n        /* \"#utility.yul\":17489:17493   */\n      dup3\n        /* \"#utility.yul\":17485:17499   */\n      sub\n        /* \"#utility.yul\":17478:17482   */\n      0xc0\n        /* \"#utility.yul\":17473:17476   */\n      dup7\n        /* \"#utility.yul\":17469:17483   */\n      add\n        /* \"#utility.yul\":17462:17500   */\n      mstore\n        /* \"#utility.yul\":17521:17594   */\n      tag_627\n        /* \"#utility.yul\":17589:17593   */\n      dup3\n        /* \"#utility.yul\":17575:17587   */\n      dup3\n        /* \"#utility.yul\":17521:17594   */\n      tag_417\n      jump\t// in\n    tag_627:\n        /* \"#utility.yul\":17513:17594   */\n      swap2\n      pop\n        /* \"#utility.yul\":17362:17605   */\n      pop\n        /* \"#utility.yul\":17693:17697   */\n      0xe0\n        /* \"#utility.yul\":17686:17691   */\n      dup4\n        /* \"#utility.yul\":17682:17698   */\n      add\n        /* \"#utility.yul\":17676:17699   */\n      mload\n        /* \"#utility.yul\":17712:17775   */\n      tag_628\n        /* \"#utility.yul\":17769:17773   */\n      0xe0\n        /* \"#utility.yul\":17764:17767   */\n      dup7\n        /* \"#utility.yul\":17760:17774   */\n      add\n        /* \"#utility.yul\":17746:17758   */\n      dup3\n        /* \"#utility.yul\":17712:17775   */\n      tag_419\n      jump\t// in\n    tag_628:\n        /* \"#utility.yul\":17615:17785   */\n      pop\n        /* \"#utility.yul\":17802:17806   */\n      dup1\n        /* \"#utility.yul\":17795:17806   */\n      swap2\n      pop\n        /* \"#utility.yul\":15886:17812   */\n      pop\n        /* \"#utility.yul\":15758:17812   */\n      swap3\n      swap2\n      pop\n      pop\n      jump\t// out\n        /* \"#utility.yul\":17876:19542   */\n    tag_421:\n        /* \"#utility.yul\":17993:17996   */\n      0x00\n        /* \"#utility.yul\":18029:18033   */\n      0xc0\n        /* \"#utility.yul\":18024:18027   */\n      dup4\n        /* \"#utility.yul\":18020:18034   */\n      add\n        /* \"#utility.yul\":18119:18123   */\n      0x00\n        /* \"#utility.yul\":18112:18117   */\n      dup4\n        /* \"#utility.yul\":18108:18124   */\n      add\n        /* \"#utility.yul\":18102:18125   */\n      mload\n        /* \"#utility.yul\":18172:18175   */\n      dup5\n        /* \"#utility.yul\":18166:18170   */\n      dup3\n        /* \"#utility.yul\":18162:18176   */\n      sub\n        /* \"#utility.yul\":18155:18159   */\n      0x00\n        /* \"#utility.yul\":18150:18153   */\n      dup7\n        /* \"#utility.yul\":18146:18160   */\n      add\n        /* \"#utility.yul\":18139:18177   */\n      mstore\n        /* \"#utility.yul\":18198:18271   */\n      tag_630\n        /* \"#utility.yul\":18266:18270   */\n      dup3\n        /* \"#utility.yul\":18252:18264   */\n      dup3\n        /* \"#utility.yul\":18198:18271   */\n      tag_417\n      jump\t// in\n    tag_630:\n        /* \"#utility.yul\":18190:18271   */\n      swap2\n      pop\n        /* \"#utility.yul\":18044:18282   */\n      pop\n        /* \"#utility.yul\":18365:18369   */\n      0x20\n        /* \"#utility.yul\":18358:18363   */\n      dup4\n        /* \"#utility.yul\":18354:18370   */\n      add\n        /* \"#utility.yul\":18348:18371   */\n      mload\n        /* \"#utility.yul\":18418:18421   */\n      dup5\n        /* \"#utility.yul\":18412:18416   */\n      dup3\n        /* \"#utility.yul\":18408:18422   */\n      sub\n        /* \"#utility.yul\":18401:18405   */\n      0x20\n        /* \"#utility.yul\":18396:18399   */\n      dup7\n        /* \"#utility.yul\":18392:18406   */\n      add\n        /* \"#utility.yul\":18385:18423   */\n      mstore\n        /* \"#utility.yul\":18444:18517   */\n      tag_631\n        /* \"#utility.yul\":18512:18516   */\n      dup3\n        /* \"#utility.yul\":18498:18510   */\n      dup3\n        /* \"#utility.yul\":18444:18517   */\n      tag_417\n      jump\t// in\n    tag_631:\n        /* \"#utility.yul\":18436:18517   */\n      swap2\n      pop\n        /* \"#utility.yul\":18292:18528   */\n      pop\n        /* \"#utility.yul\":18611:18615   */\n      0x40\n        /* \"#utility.yul\":18604:18609   */\n      dup4\n        /* \"#utility.yul\":18600:18616   */\n      add\n        /* \"#utility.yul\":18594:18617   */\n      mload\n        /* \"#utility.yul\":18664:18667   */\n      dup5\n        /* \"#utility.yul\":18658:18662   */\n      dup3\n        /* \"#utility.yul\":18654:18668   */\n      sub\n        /* \"#utility.yul\":18647:18651   */\n      0x40\n        /* \"#utility.yul\":18642:18645   */\n      dup7\n        /* \"#utility.yul\":18638:18652   */\n      add\n        /* \"#utility.yul\":18631:18669   */\n      mstore\n        /* \"#utility.yul\":18690:18763   */\n      tag_632\n        /* \"#utility.yul\":18758:18762   */\n      dup3\n        /* \"#utility.yul\":18744:18756   */\n      dup3\n        /* \"#utility.yul\":18690:18763   */\n      tag_417\n      jump\t// in\n    tag_632:\n        /* \"#utility.yul\":18682:18763   */\n      swap2\n      pop\n        /* \"#utility.yul\":18538:18774   */\n      pop\n        /* \"#utility.yul\":18858:18862   */\n      0x60\n        /* \"#utility.yul\":18851:18856   */\n      dup4\n        /* \"#utility.yul\":18847:18863   */\n      add\n        /* \"#utility.yul\":18841:18864   */\n      mload\n        /* \"#utility.yul\":18911:18914   */\n      dup5\n        /* \"#utility.yul\":18905:18909   */\n      dup3\n        /* \"#utility.yul\":18901:18915   */\n      sub\n        /* \"#utility.yul\":18894:18898   */\n      0x60\n        /* \"#utility.yul\":18889:18892   */\n      dup7\n        /* \"#utility.yul\":18885:18899   */\n      add\n        /* \"#utility.yul\":18878:18916   */\n      mstore\n        /* \"#utility.yul\":18937:19010   */\n      tag_633\n        /* \"#utility.yul\":19005:19009   */\n      dup3\n        /* \"#utility.yul\":18991:19003   */\n      dup3\n        /* \"#utility.yul\":18937:19010   */\n      tag_417\n      jump\t// in\n    tag_633:\n        /* \"#utility.yul\":18929:19010   */\n      swap2\n      pop\n        /* \"#utility.yul\":18784:19021   */\n      pop\n        /* \"#utility.yul\":19105:19109   */\n      0x80\n        /* \"#utility.yul\":19098:19103   */\n      dup4\n        /* \"#utility.yul\":19094:19110   */\n      add\n        /* \"#utility.yul\":19088:19111   */\n      mload\n        /* \"#utility.yul\":19158:19161   */\n      dup5\n        /* \"#utility.yul\":19152:19156   */\n      dup3\n        /* \"#utility.yul\":19148:19162   */\n      sub\n        /* \"#utility.yul\":19141:19145   */\n      0x80\n        /* \"#utility.yul\":19136:19139   */\n      dup7\n        /* \"#utility.yul\":19132:19146   */\n      add\n        /* \"#utility.yul\":19125:19163   */\n      mstore\n        /* \"#utility.yul\":19184:19257   */\n      tag_634\n        /* \"#utility.yul\":19252:19256   */\n      dup3\n        /* \"#utility.yul\":19238:19250   */\n      dup3\n        /* \"#utility.yul\":19184:19257   */\n      tag_417\n      jump\t// in\n    tag_634:\n        /* \"#utility.yul\":19176:19257   */\n      swap2\n      pop\n        /* \"#utility.yul\":19031:19268   */\n      pop\n        /* \"#utility.yul\":19352:19356   */\n      0xa0\n        /* \"#utility.yul\":19345:19350   */\n      dup4\n        /* \"#utility.yul\":19341:19357   */\n      add\n        /* \"#utility.yul\":19335:19358   */\n      mload\n        /* \"#utility.yul\":19405:19408   */\n      dup5\n        /* \"#utility.yul\":19399:19403   */\n      dup3\n        /* \"#utility.yul\":19395:19409   */\n      sub\n        /* \"#utility.yul\":19388:19392   */\n      0xa0\n        /* \"#utility.yul\":19383:19386   */\n      dup7\n        /* \"#utility.yul\":19379:19393   */\n      add\n        /* \"#utility.yul\":19372:19410   */\n      mstore\n        /* \"#utility.yul\":19431:19504   */\n      tag_635\n        /* \"#utility.yul\":19499:19503   */\n      dup3\n        /* \"#utility.yul\":19485:19497   */\n      dup3\n        /* \"#utility.yul\":19431:19504   */\n      tag_417\n      jump\t// in\n    tag_635:\n        /* \"#utility.yul\":19423:19504   */\n      swap2\n      pop\n        /* \"#utility.yul\":19278:19515   */\n      pop\n        /* \"#utility.yul\":19532:19536   */\n      dup1\n        /* \"#utility.yul\":19525:19536   */\n      swap2\n      pop\n        /* \"#utility.yul\":17998:19542   */\n      pop\n        /* \"#utility.yul\":17876:19542   */\n      swap3\n      swap2\n      pop\n      pop\n      jump\t// out\n        /* \"#utility.yul\":19548:19672   */\n    tag_422:\n        /* \"#utility.yul\":19625:19631   */\n      0x00\n        /* \"#utility.yul\":19659:19664   */\n      dup2\n        /* \"#utility.yul\":19653:19665   */\n      mload\n        /* \"#utility.yul\":19643:19665   */\n      swap1\n      pop\n        /* \"#utility.yul\":19548:19672   */\n      swap2\n      swap1\n      pop\n      jump\t// out\n        /* \"#utility.yul\":19678:19862   */\n    tag_423:\n        /* \"#utility.yul\":19777:19788   */\n      0x00\n        /* \"#utility.yul\":19811:19817   */\n      dup3\n        /* \"#utility.yul\":19806:19809   */\n      dup3\n        /* \"#utility.yul\":19799:19818   */\n      mstore\n        /* \"#utility.yul\":19851:19855   */\n      0x20\n        /* \"#utility.yul\":19846:19849   */\n      dup3\n        /* \"#utility.yul\":19842:19856   */\n      add\n        /* \"#utility.yul\":19827:19856   */\n      swap1\n      pop\n        /* \"#utility.yul\":19678:19862   */\n      swap3\n      swap2\n      pop\n      pop\n      jump\t// out\n        /* \"#utility.yul\":19868:20010   */\n    tag_424:\n        /* \"#utility.yul\":19945:19949   */\n      0x00\n        /* \"#utility.yul\":19968:19971   */\n      dup2\n        /* \"#utility.yul\":19960:19971   */\n      swap1\n      pop\n        /* \"#utility.yul\":19998:20002   */\n      0x20\n        /* \"#utility.yul\":19993:19996   */\n      dup3\n        /* \"#utility.yul\":19989:20003   */\n      add\n        /* \"#utility.yul\":19981:20003   */\n      swap1\n      pop\n        /* \"#utility.yul\":19868:20010   */\n      swap2\n      swap1\n      pop\n      jump\t// out\n        /* \"#utility.yul\":20016:20212   */\n    tag_425:\n        /* \"#utility.yul\":20105:20115   */\n      0x00\n        /* \"#utility.yul\":20140:20206   */\n      tag_640\n        /* \"#utility.yul\":20202:20205   */\n      dup4\n        /* \"#utility.yul\":20194:20200   */\n      dup4\n        /* \"#utility.yul\":20140:20206   */\n      tag_417\n      jump\t// in\n    tag_640:\n        /* \"#utility.yul\":20126:20206   */\n      swap1\n      pop\n        /* \"#utility.yul\":20016:20212   */\n      swap3\n      swap2\n      pop\n      pop\n      jump\t// out\n        /* \"#utility.yul\":20218:20341   */\n    tag_426:\n        /* \"#utility.yul\":20298:20302   */\n      0x00\n        /* \"#utility.yul\":20330:20334   */\n      0x20\n        /* \"#utility.yul\":20325:20328   */\n      dup3\n        /* \"#utility.yul\":20321:20335   */\n      add\n        /* \"#utility.yul\":20313:20335   */\n      swap1\n      pop\n        /* \"#utility.yul\":20218:20341   */\n      swap2\n      swap1\n      pop\n      jump\t// out\n        /* \"#utility.yul\":20375:21346   */\n    tag_427:\n        /* \"#utility.yul\":20504:20507   */\n      0x00\n        /* \"#utility.yul\":20533:20597   */\n      tag_643\n        /* \"#utility.yul\":20591:20596   */\n      dup3\n        /* \"#utility.yul\":20533:20597   */\n      tag_422\n      jump\t// in\n    tag_643:\n        /* \"#utility.yul\":20613:20699   */\n      tag_644\n        /* \"#utility.yul\":20692:20698   */\n      dup2\n        /* \"#utility.yul\":20687:20690   */\n      dup6\n        /* \"#utility.yul\":20613:20699   */\n      tag_423\n      jump\t// in\n    tag_644:\n        /* \"#utility.yul\":20606:20699   */\n      swap4\n      pop\n        /* \"#utility.yul\":20725:20728   */\n      dup4\n        /* \"#utility.yul\":20770:20774   */\n      0x20\n        /* \"#utility.yul\":20762:20768   */\n      dup3\n        /* \"#utility.yul\":20758:20775   */\n      mul\n        /* \"#utility.yul\":20753:20756   */\n      dup6\n        /* \"#utility.yul\":20749:20776   */\n      add\n        /* \"#utility.yul\":20800:20866   */\n      tag_645\n        /* \"#utility.yul\":20860:20865   */\n      dup6\n        /* \"#utility.yul\":20800:20866   */\n      tag_424\n      jump\t// in\n    tag_645:\n        /* \"#utility.yul\":20889:20896   */\n      dup1\n        /* \"#utility.yul\":20920:20921   */\n      0x00\n        /* \"#utility.yul\":20905:21301   */\n    tag_646:\n        /* \"#utility.yul\":20930:20936   */\n      dup6\n        /* \"#utility.yul\":20927:20928   */\n      dup2\n        /* \"#utility.yul\":20924:20937   */\n      lt\n        /* \"#utility.yul\":20905:21301   */\n      iszero\n      tag_648\n      jumpi\n        /* \"#utility.yul\":21001:21010   */\n      dup5\n        /* \"#utility.yul\":20995:20999   */\n      dup5\n        /* \"#utility.yul\":20991:21011   */\n      sub\n        /* \"#utility.yul\":20986:20989   */\n      dup10\n        /* \"#utility.yul\":20979:21012   */\n      mstore\n        /* \"#utility.yul\":21052:21058   */\n      dup2\n        /* \"#utility.yul\":21046:21059   */\n      mload\n        /* \"#utility.yul\":21080:21164   */\n      tag_649\n        /* \"#utility.yul\":21159:21163   */\n      dup6\n        /* \"#utility.yul\":21144:21157   */\n      dup3\n        /* \"#utility.yul\":21080:21164   */\n      tag_425\n      jump\t// in\n    tag_649:\n        /* \"#utility.yul\":21072:21164   */\n      swap5\n      pop\n        /* \"#utility.yul\":21187:21257   */\n      tag_650\n        /* \"#utility.yul\":21250:21256   */\n      dup4\n        /* \"#utility.yul\":21187:21257   */\n      tag_426\n      jump\t// in\n    tag_650:\n        /* \"#utility.yul\":21177:21257   */\n      swap3\n      pop\n        /* \"#utility.yul\":21286:21290   */\n      0x20\n        /* \"#utility.yul\":21281:21284   */\n      dup11\n        /* \"#utility.yul\":21277:21291   */\n      add\n        /* \"#utility.yul\":21270:21291   */\n      swap10\n      pop\n        /* \"#utility.yul\":20965:21301   */\n      pop\n        /* \"#utility.yul\":20952:20953   */\n      0x01\n        /* \"#utility.yul\":20949:20950   */\n      dup2\n        /* \"#utility.yul\":20945:20954   */\n      add\n        /* \"#utility.yul\":20940:20954   */\n      swap1\n      pop\n        /* \"#utility.yul\":20905:21301   */\n      jump(tag_646)\n    tag_648:\n        /* \"#utility.yul\":20909:20923   */\n      pop\n        /* \"#utility.yul\":21317:21321   */\n      dup3\n        /* \"#utility.yul\":21310:21321   */\n      swap8\n      pop\n        /* \"#utility.yul\":21337:21340   */\n      dup8\n        /* \"#utility.yul\":21330:21340   */\n      swap6\n      pop\n        /* \"#utility.yul\":20509:21346   */\n      pop\n      pop\n      pop\n      pop\n      pop\n        /* \"#utility.yul\":20375:21346   */\n      swap3\n      swap2\n      pop\n      pop\n      jump\t// out\n        /* \"#utility.yul\":21404:22501   */\n    tag_428:\n        /* \"#utility.yul\":21515:21518   */\n      0x00\n        /* \"#utility.yul\":21551:21555   */\n      0x60\n        /* \"#utility.yul\":21546:21549   */\n      dup4\n        /* \"#utility.yul\":21542:21556   */\n      add\n        /* \"#utility.yul\":21654:21658   */\n      0x00\n        /* \"#utility.yul\":21647:21652   */\n      dup4\n        /* \"#utility.yul\":21643:21659   */\n      add\n        /* \"#utility.yul\":21637:21660   */\n      mload\n        /* \"#utility.yul\":21707:21710   */\n      dup5\n        /* \"#utility.yul\":21701:21705   */\n      dup3\n        /* \"#utility.yul\":21697:21711   */\n      sub\n        /* \"#utility.yul\":21690:21694   */\n      0x00\n        /* \"#utility.yul\":21685:21688   */\n      dup7\n        /* \"#utility.yul\":21681:21695   */\n      add\n        /* \"#utility.yul\":21674:21712   */\n      mstore\n        /* \"#utility.yul\":21733:21856   */\n      tag_652\n        /* \"#utility.yul\":21851:21855   */\n      dup3\n        /* \"#utility.yul\":21837:21849   */\n      dup3\n        /* \"#utility.yul\":21733:21856   */\n      tag_427\n      jump\t// in\n    tag_652:\n        /* \"#utility.yul\":21725:21856   */\n      swap2\n      pop\n        /* \"#utility.yul\":21566:21867   */\n      pop\n        /* \"#utility.yul\":21954:21958   */\n      0x20\n        /* \"#utility.yul\":21947:21952   */\n      dup4\n        /* \"#utility.yul\":21943:21959   */\n      add\n        /* \"#utility.yul\":21937:21960   */\n      mload\n        /* \"#utility.yul\":22007:22010   */\n      dup5\n        /* \"#utility.yul\":22001:22005   */\n      dup3\n        /* \"#utility.yul\":21997:22011   */\n      sub\n        /* \"#utility.yul\":21990:21994   */\n      0x20\n        /* \"#utility.yul\":21985:21988   */\n      dup7\n        /* \"#utility.yul\":21981:21995   */\n      add\n        /* \"#utility.yul\":21974:22012   */\n      mstore\n        /* \"#utility.yul\":22033:22156   */\n      tag_653\n        /* \"#utility.yul\":22151:22155   */\n      dup3\n        /* \"#utility.yul\":22137:22149   */\n      dup3\n        /* \"#utility.yul\":22033:22156   */\n      tag_427\n      jump\t// in\n    tag_653:\n        /* \"#utility.yul\":22025:22156   */\n      swap2\n      pop\n        /* \"#utility.yul\":21877:22167   */\n      pop\n        /* \"#utility.yul\":22261:22265   */\n      0x40\n        /* \"#utility.yul\":22254:22259   */\n      dup4\n        /* \"#utility.yul\":22250:22266   */\n      add\n        /* \"#utility.yul\":22244:22267   */\n      mload\n        /* \"#utility.yul\":22314:22317   */\n      dup5\n        /* \"#utility.yul\":22308:22312   */\n      dup3\n        /* \"#utility.yul\":22304:22318   */\n      sub\n        /* \"#utility.yul\":22297:22301   */\n      0x40\n        /* \"#utility.yul\":22292:22295   */\n      dup7\n        /* \"#utility.yul\":22288:22302   */\n      add\n        /* \"#utility.yul\":22281:22319   */\n      mstore\n        /* \"#utility.yul\":22340:22463   */\n      tag_654\n        /* \"#utility.yul\":22458:22462   */\n      dup3\n        /* \"#utility.yul\":22444:22456   */\n      dup3\n        /* \"#utility.yul\":22340:22463   */\n      tag_427\n      jump\t// in\n    tag_654:\n        /* \"#utility.yul\":22332:22463   */\n      swap2\n      pop\n        /* \"#utility.yul\":22177:22474   */\n      pop\n        /* \"#utility.yul\":22491:22495   */\n      dup1\n        /* \"#utility.yul\":22484:22495   */\n      swap2\n      pop\n        /* \"#utility.yul\":21520:22501   */\n      pop\n        /* \"#utility.yul\":21404:22501   */\n      swap3\n      swap2\n      pop\n      pop\n      jump\t// out\n        /* \"#utility.yul\":22587:23394   */\n    tag_429:\n        /* \"#utility.yul\":22728:22731   */\n      0x00\n        /* \"#utility.yul\":22764:22768   */\n      0x40\n        /* \"#utility.yul\":22759:22762   */\n      dup4\n        /* \"#utility.yul\":22755:22769   */\n      add\n        /* \"#utility.yul\":22858:22862   */\n      0x00\n        /* \"#utility.yul\":22851:22856   */\n      dup4\n        /* \"#utility.yul\":22847:22863   */\n      add\n        /* \"#utility.yul\":22841:22864   */\n      mload\n        /* \"#utility.yul\":22911:22914   */\n      dup5\n        /* \"#utility.yul\":22905:22909   */\n      dup3\n        /* \"#utility.yul\":22901:22915   */\n      sub\n        /* \"#utility.yul\":22894:22898   */\n      0x00\n        /* \"#utility.yul\":22889:22892   */\n      dup7\n        /* \"#utility.yul\":22885:22899   */\n      add\n        /* \"#utility.yul\":22878:22916   */\n      mstore\n        /* \"#utility.yul\":22937:23060   */\n      tag_656\n        /* \"#utility.yul\":23055:23059   */\n      dup3\n        /* \"#utility.yul\":23041:23053   */\n      dup3\n        /* \"#utility.yul\":22937:23060   */\n      tag_427\n      jump\t// in\n    tag_656:\n        /* \"#utility.yul\":22929:23060   */\n      swap2\n      pop\n        /* \"#utility.yul\":22779:23071   */\n      pop\n        /* \"#utility.yul\":23154:23158   */\n      0x20\n        /* \"#utility.yul\":23147:23152   */\n      dup4\n        /* \"#utility.yul\":23143:23159   */\n      add\n        /* \"#utility.yul\":23137:23160   */\n      mload\n        /* \"#utility.yul\":23207:23210   */\n      dup5\n        /* \"#utility.yul\":23201:23205   */\n      dup3\n        /* \"#utility.yul\":23197:23211   */\n      sub\n        /* \"#utility.yul\":23190:23194   */\n      0x20\n        /* \"#utility.yul\":23185:23188   */\n      dup7\n        /* \"#utility.yul\":23181:23195   */\n      add\n        /* \"#utility.yul\":23174:23212   */\n      mstore\n        /* \"#utility.yul\":23233:23356   */\n      tag_657\n        /* \"#utility.yul\":23351:23355   */\n      dup3\n        /* \"#utility.yul\":23337:23349   */\n      dup3\n        /* \"#utility.yul\":23233:23356   */\n      tag_427\n      jump\t// in\n    tag_657:\n        /* \"#utility.yul\":23225:23356   */\n      swap2\n      pop\n        /* \"#utility.yul\":23081:23367   */\n      pop\n        /* \"#utility.yul\":23384:23388   */\n      dup1\n        /* \"#utility.yul\":23377:23388   */\n      swap2\n      pop\n        /* \"#utility.yul\":22733:23394   */\n      pop\n        /* \"#utility.yul\":22587:23394   */\n      swap3\n      swap2\n      pop\n      pop\n      jump\t// out\n        /* \"#utility.yul\":23476:24976   */\n    tag_430:\n        /* \"#utility.yul\":23611:23614   */\n      0x00\n        /* \"#utility.yul\":23647:23651   */\n      0xa0\n        /* \"#utility.yul\":23642:23645   */\n      dup4\n        /* \"#utility.yul\":23638:23652   */\n      add\n        /* \"#utility.yul\":23741:23745   */\n      0x00\n        /* \"#utility.yul\":23734:23739   */\n      dup4\n        /* \"#utility.yul\":23730:23746   */\n      add\n        /* \"#utility.yul\":23724:23747   */\n      mload\n        /* \"#utility.yul\":23794:23797   */\n      dup5\n        /* \"#utility.yul\":23788:23792   */\n      dup3\n        /* \"#utility.yul\":23784:23798   */\n      sub\n        /* \"#utility.yul\":23777:23781   */\n      0x00\n        /* \"#utility.yul\":23772:23775   */\n      dup7\n        /* \"#utility.yul\":23768:23782   */\n      add\n        /* \"#utility.yul\":23761:23799   */\n      mstore\n        /* \"#utility.yul\":23820:23893   */\n      tag_659\n        /* \"#utility.yul\":23888:23892   */\n      dup3\n        /* \"#utility.yul\":23874:23886   */\n      dup3\n        /* \"#utility.yul\":23820:23893   */\n      tag_417\n      jump\t// in\n    tag_659:\n        /* \"#utility.yul\":23812:23893   */\n      swap2\n      pop\n        /* \"#utility.yul\":23662:23904   */\n      pop\n        /* \"#utility.yul\":23990:23994   */\n      0x20\n        /* \"#utility.yul\":23983:23988   */\n      dup4\n        /* \"#utility.yul\":23979:23995   */\n      add\n        /* \"#utility.yul\":23973:23996   */\n      mload\n        /* \"#utility.yul\":24043:24046   */\n      dup5\n        /* \"#utility.yul\":24037:24041   */\n      dup3\n        /* \"#utility.yul\":24033:24047   */\n      sub\n        /* \"#utility.yul\":24026:24030   */\n      0x20\n        /* \"#utility.yul\":24021:24024   */\n      dup7\n        /* \"#utility.yul\":24017:24031   */\n      add\n        /* \"#utility.yul\":24010:24048   */\n      mstore\n        /* \"#utility.yul\":24069:24142   */\n      tag_660\n        /* \"#utility.yul\":24137:24141   */\n      dup3\n        /* \"#utility.yul\":24123:24135   */\n      dup3\n        /* \"#utility.yul\":24069:24142   */\n      tag_417\n      jump\t// in\n    tag_660:\n        /* \"#utility.yul\":24061:24142   */\n      swap2\n      pop\n        /* \"#utility.yul\":23914:24153   */\n      pop\n        /* \"#utility.yul\":24240:24244   */\n      0x40\n        /* \"#utility.yul\":24233:24238   */\n      dup4\n        /* \"#utility.yul\":24229:24245   */\n      add\n        /* \"#utility.yul\":24223:24246   */\n      mload\n        /* \"#utility.yul\":24293:24296   */\n      dup5\n        /* \"#utility.yul\":24287:24291   */\n      dup3\n        /* \"#utility.yul\":24283:24297   */\n      sub\n        /* \"#utility.yul\":24276:24280   */\n      0x40\n        /* \"#utility.yul\":24271:24274   */\n      dup7\n        /* \"#utility.yul\":24267:24281   */\n      add\n        /* \"#utility.yul\":24260:24298   */\n      mstore\n        /* \"#utility.yul\":24319:24392   */\n      tag_661\n        /* \"#utility.yul\":24387:24391   */\n      dup3\n        /* \"#utility.yul\":24373:24385   */\n      dup3\n        /* \"#utility.yul\":24319:24392   */\n      tag_417\n      jump\t// in\n    tag_661:\n        /* \"#utility.yul\":24311:24392   */\n      swap2\n      pop\n        /* \"#utility.yul\":24163:24403   */\n      pop\n        /* \"#utility.yul\":24488:24492   */\n      0x60\n        /* \"#utility.yul\":24481:24486   */\n      dup4\n        /* \"#utility.yul\":24477:24493   */\n      add\n        /* \"#utility.yul\":24471:24494   */\n      mload\n        /* \"#utility.yul\":24541:24544   */\n      dup5\n        /* \"#utility.yul\":24535:24539   */\n      dup3\n        /* \"#utility.yul\":24531:24545   */\n      sub\n        /* \"#utility.yul\":24524:24528   */\n      0x60\n        /* \"#utility.yul\":24519:24522   */\n      dup7\n        /* \"#utility.yul\":24515:24529   */\n      add\n        /* \"#utility.yul\":24508:24546   */\n      mstore\n        /* \"#utility.yul\":24567:24640   */\n      tag_662\n        /* \"#utility.yul\":24635:24639   */\n      dup3\n        /* \"#utility.yul\":24621:24633   */\n      dup3\n        /* \"#utility.yul\":24567:24640   */\n      tag_417\n      jump\t// in\n    tag_662:\n        /* \"#utility.yul\":24559:24640   */\n      swap2\n      pop\n        /* \"#utility.yul\":24413:24651   */\n      pop\n        /* \"#utility.yul\":24736:24740   */\n      0x80\n        /* \"#utility.yul\":24729:24734   */\n      dup4\n        /* \"#utility.yul\":24725:24741   */\n      add\n        /* \"#utility.yul\":24719:24742   */\n      mload\n        /* \"#utility.yul\":24789:24792   */\n      dup5\n        /* \"#utility.yul\":24783:24787   */\n      dup3\n        /* \"#utility.yul\":24779:24793   */\n      sub\n        /* \"#utility.yul\":24772:24776   */\n      0x80\n        /* \"#utility.yul\":24767:24770   */\n      dup7\n        /* \"#utility.yul\":24763:24777   */\n      add\n        /* \"#utility.yul\":24756:24794   */\n      mstore\n        /* \"#utility.yul\":24815:24938   */\n      tag_663\n        /* \"#utility.yul\":24933:24937   */\n      dup3\n        /* \"#utility.yul\":24919:24931   */\n      dup3\n        /* \"#utility.yul\":24815:24938   */\n      tag_427\n      jump\t// in\n    tag_663:\n        /* \"#utility.yul\":24807:24938   */\n      swap2\n      pop\n        /* \"#utility.yul\":24661:24949   */\n      pop\n        /* \"#utility.yul\":24966:24970   */\n      dup1\n        /* \"#utility.yul\":24959:24970   */\n      swap2\n      pop\n        /* \"#utility.yul\":23616:24976   */\n      pop\n        /* \"#utility.yul\":23476:24976   */\n      swap3\n      swap2\n      pop\n      pop\n      jump\t// out\n        /* \"#utility.yul\":25062:25768   */\n    tag_431:\n        /* \"#utility.yul\":25201:25204   */\n      0x00\n        /* \"#utility.yul\":25237:25241   */\n      0x40\n        /* \"#utility.yul\":25232:25235   */\n      dup4\n        /* \"#utility.yul\":25228:25242   */\n      add\n        /* \"#utility.yul\":25331:25335   */\n      0x00\n        /* \"#utility.yul\":25324:25329   */\n      dup4\n        /* \"#utility.yul\":25320:25336   */\n      add\n        /* \"#utility.yul\":25314:25337   */\n      mload\n        /* \"#utility.yul\":25384:25387   */\n      dup5\n        /* \"#utility.yul\":25378:25382   */\n      dup3\n        /* \"#utility.yul\":25374:25388   */\n      sub\n        /* \"#utility.yul\":25367:25371   */\n      0x00\n        /* \"#utility.yul\":25362:25365   */\n      dup7\n        /* \"#utility.yul\":25358:25372   */\n      add\n        /* \"#utility.yul\":25351:25389   */\n      mstore\n        /* \"#utility.yul\":25410:25483   */\n      tag_665\n        /* \"#utility.yul\":25478:25482   */\n      dup3\n        /* \"#utility.yul\":25464:25476   */\n      dup3\n        /* \"#utility.yul\":25410:25483   */\n      tag_417\n      jump\t// in\n    tag_665:\n        /* \"#utility.yul\":25402:25483   */\n      swap2\n      pop\n        /* \"#utility.yul\":25252:25494   */\n      pop\n        /* \"#utility.yul\":25578:25582   */\n      0x20\n        /* \"#utility.yul\":25571:25576   */\n      dup4\n        /* \"#utility.yul\":25567:25583   */\n      add\n        /* \"#utility.yul\":25561:25584   */\n      mload\n        /* \"#utility.yul\":25631:25634   */\n      dup5\n        /* \"#utility.yul\":25625:25629   */\n      dup3\n        /* \"#utility.yul\":25621:25635   */\n      sub\n        /* \"#utility.yul\":25614:25618   */\n      0x20\n        /* \"#utility.yul\":25609:25612   */\n      dup7\n        /* \"#utility.yul\":25605:25619   */\n      add\n        /* \"#utility.yul\":25598:25636   */\n      mstore\n        /* \"#utility.yul\":25657:25730   */\n      tag_666\n        /* \"#utility.yul\":25725:25729   */\n      dup3\n        /* \"#utility.yul\":25711:25723   */\n      dup3\n        /* \"#utility.yul\":25657:25730   */\n      tag_417\n      jump\t// in\n    tag_666:\n        /* \"#utility.yul\":25649:25730   */\n      swap2\n      pop\n        /* \"#utility.yul\":25504:25741   */\n      pop\n        /* \"#utility.yul\":25758:25762   */\n      dup1\n        /* \"#utility.yul\":25751:25762   */\n      swap2\n      pop\n        /* \"#utility.yul\":25206:25768   */\n      pop\n        /* \"#utility.yul\":25062:25768   */\n      swap3\n      swap2\n      pop\n      pop\n      jump\t// out\n        /* \"#utility.yul\":25774:27559   */\n    tag_65:\n        /* \"#utility.yul\":26359:26363   */\n      0x00\n        /* \"#utility.yul\":26397:26400   */\n      0xc0\n        /* \"#utility.yul\":26386:26395   */\n      dup3\n        /* \"#utility.yul\":26382:26401   */\n      add\n        /* \"#utility.yul\":26374:26401   */\n      swap1\n      pop\n        /* \"#utility.yul\":26447:26456   */\n      dup2\n        /* \"#utility.yul\":26441:26445   */\n      dup2\n        /* \"#utility.yul\":26437:26457   */\n      sub\n        /* \"#utility.yul\":26433:26434   */\n      0x00\n        /* \"#utility.yul\":26422:26431   */\n      dup4\n        /* \"#utility.yul\":26418:26435   */\n      add\n        /* \"#utility.yul\":26411:26458   */\n      mstore\n        /* \"#utility.yul\":26475:26587   */\n      tag_668\n        /* \"#utility.yul\":26582:26586   */\n      dup2\n        /* \"#utility.yul\":26573:26579   */\n      dup10\n        /* \"#utility.yul\":26475:26587   */\n      tag_420\n      jump\t// in\n    tag_668:\n        /* \"#utility.yul\":26467:26587   */\n      swap1\n      pop\n        /* \"#utility.yul\":26634:26643   */\n      dup2\n        /* \"#utility.yul\":26628:26632   */\n      dup2\n        /* \"#utility.yul\":26624:26644   */\n      sub\n        /* \"#utility.yul\":26619:26621   */\n      0x20\n        /* \"#utility.yul\":26608:26617   */\n      dup4\n        /* \"#utility.yul\":26604:26622   */\n      add\n        /* \"#utility.yul\":26597:26645   */\n      mstore\n        /* \"#utility.yul\":26662:26768   */\n      tag_669\n        /* \"#utility.yul\":26763:26767   */\n      dup2\n        /* \"#utility.yul\":26754:26760   */\n      dup9\n        /* \"#utility.yul\":26662:26768   */\n      tag_421\n      jump\t// in\n    tag_669:\n        /* \"#utility.yul\":26654:26768   */\n      swap1\n      pop\n        /* \"#utility.yul\":26815:26824   */\n      dup2\n        /* \"#utility.yul\":26809:26813   */\n      dup2\n        /* \"#utility.yul\":26805:26825   */\n      sub\n        /* \"#utility.yul\":26800:26802   */\n      0x40\n        /* \"#utility.yul\":26789:26798   */\n      dup4\n        /* \"#utility.yul\":26785:26803   */\n      add\n        /* \"#utility.yul\":26778:26826   */\n      mstore\n        /* \"#utility.yul\":26843:26943   */\n      tag_670\n        /* \"#utility.yul\":26938:26942   */\n      dup2\n        /* \"#utility.yul\":26929:26935   */\n      dup8\n        /* \"#utility.yul\":26843:26943   */\n      tag_428\n      jump\t// in\n    tag_670:\n        /* \"#utility.yul\":26835:26943   */\n      swap1\n      pop\n        /* \"#utility.yul\":26990:26999   */\n      dup2\n        /* \"#utility.yul\":26984:26988   */\n      dup2\n        /* \"#utility.yul\":26980:27000   */\n      sub\n        /* \"#utility.yul\":26975:26977   */\n      0x60\n        /* \"#utility.yul\":26964:26973   */\n      dup4\n        /* \"#utility.yul\":26960:26978   */\n      add\n        /* \"#utility.yul\":26953:27001   */\n      mstore\n        /* \"#utility.yul\":27018:27148   */\n      tag_671\n        /* \"#utility.yul\":27143:27147   */\n      dup2\n        /* \"#utility.yul\":27134:27140   */\n      dup7\n        /* \"#utility.yul\":27018:27148   */\n      tag_429\n      jump\t// in\n    tag_671:\n        /* \"#utility.yul\":27010:27148   */\n      swap1\n      pop\n        /* \"#utility.yul\":27196:27205   */\n      dup2\n        /* \"#utility.yul\":27190:27194   */\n      dup2\n        /* \"#utility.yul\":27186:27206   */\n      sub\n        /* \"#utility.yul\":27180:27183   */\n      0x80\n        /* \"#utility.yul\":27169:27178   */\n      dup4\n        /* \"#utility.yul\":27165:27184   */\n      add\n        /* \"#utility.yul\":27158:27207   */\n      mstore\n        /* \"#utility.yul\":27224:27348   */\n      tag_672\n        /* \"#utility.yul\":27343:27347   */\n      dup2\n        /* \"#utility.yul\":27334:27340   */\n      dup6\n        /* \"#utility.yul\":27224:27348   */\n      tag_430\n      jump\t// in\n    tag_672:\n        /* \"#utility.yul\":27216:27348   */\n      swap1\n      pop\n        /* \"#utility.yul\":27396:27405   */\n      dup2\n        /* \"#utility.yul\":27390:27394   */\n      dup2\n        /* \"#utility.yul\":27386:27406   */\n      sub\n        /* \"#utility.yul\":27380:27383   */\n      0xa0\n        /* \"#utility.yul\":27369:27378   */\n      dup4\n        /* \"#utility.yul\":27365:27384   */\n      add\n        /* \"#utility.yul\":27358:27407   */\n      mstore\n        /* \"#utility.yul\":27424:27552   */\n      tag_673\n        /* \"#utility.yul\":27547:27551   */\n      dup2\n        /* \"#utility.yul\":27538:27544   */\n      dup5\n        /* \"#utility.yul\":27424:27552   */\n      tag_431\n      jump\t// in\n    tag_673:\n        /* \"#utility.yul\":27416:27552   */\n      swap1\n      pop\n        /* \"#utility.yul\":25774:27559   */\n      swap8\n      swap7\n      pop\n      pop\n      pop\n      pop\n      pop\n      pop\n      pop\n      jump\t// out\n        /* \"#utility.yul\":27565:27687   */\n    tag_432:\n        /* \"#utility.yul\":27638:27662   */\n      tag_675\n        /* \"#utility.yul\":27656:27661   */\n      dup2\n        /* \"#utility.yul\":27638:27662   */\n      tag_408\n      jump\t// in\n    tag_675:\n        /* \"#utility.yul\":27631:27636   */\n      dup2\n        /* \"#utility.yul\":27628:27663   */\n      eq\n        /* \"#utility.yul\":27618:27681   */\n      tag_676\n      jumpi\n        /* \"#utility.yul\":27677:27678   */\n      0x00\n        /* \"#utility.yul\":27674:27675   */\n      dup1\n        /* \"#utility.yul\":27667:27679   */\n      revert\n        /* \"#utility.yul\":27618:27681   */\n    tag_676:\n        /* \"#utility.yul\":27565:27687   */\n      pop\n      jump\t// out\n        /* \"#utility.yul\":27693:27832   */\n    tag_433:\n        /* \"#utility.yul\":27739:27744   */\n      0x00\n        /* \"#utility.yul\":27777:27783   */\n      dup2\n        /* \"#utility.yul\":27764:27784   */\n      calldataload\n        /* \"#utility.yul\":27755:27784   */\n      swap1\n      pop\n        /* \"#utility.yul\":27793:27826   */\n      tag_678\n        /* \"#utility.yul\":27820:27825   */\n      dup2\n        /* \"#utility.yul\":27793:27826   */\n      tag_432\n      jump\t// in\n    tag_678:\n        /* \"#utility.yul\":27693:27832   */\n      swap3\n      swap2\n      pop\n      pop\n      jump\t// out\n        /* \"#utility.yul\":27838:28167   */\n    tag_75:\n        /* \"#utility.yul\":27897:27903   */\n      0x00\n        /* \"#utility.yul\":27946:27948   */\n      0x20\n        /* \"#utility.yul\":27934:27943   */\n      dup3\n        /* \"#utility.yul\":27925:27932   */\n      dup5\n        /* \"#utility.yul\":27921:27944   */\n      sub\n        /* \"#utility.yul\":27917:27949   */\n      slt\n        /* \"#utility.yul\":27914:28033   */\n      iszero\n      tag_680\n      jumpi\n        /* \"#utility.yul\":27952:28031   */\n      tag_681\n      tag_392\n      jump\t// in\n    tag_681:\n        /* \"#utility.yul\":27914:28033   */\n    tag_680:\n        /* \"#utility.yul\":28072:28073   */\n      0x00\n        /* \"#utility.yul\":28097:28150   */\n      tag_682\n        /* \"#utility.yul\":28142:28149   */\n      dup5\n        /* \"#utility.yul\":28133:28139   */\n      dup3\n        /* \"#utility.yul\":28122:28131   */\n      dup6\n        /* \"#utility.yul\":28118:28140   */\n      add\n        /* \"#utility.yul\":28097:28150   */\n      tag_433\n      jump\t// in\n    tag_682:\n        /* \"#utility.yul\":28087:28150   */\n      swap2\n      pop\n        /* \"#utility.yul\":28043:28160   */\n      pop\n        /* \"#utility.yul\":27838:28167   */\n      swap3\n      swap2\n      pop\n      pop\n      jump\t// out\n        /* \"#utility.yul\":28173:28342   */\n    tag_434:\n        /* \"#utility.yul\":28257:28268   */\n      0x00\n        /* \"#utility.yul\":28291:28297   */\n      dup3\n        /* \"#utility.yul\":28286:28289   */\n      dup3\n        /* \"#utility.yul\":28279:28298   */\n      mstore\n        /* \"#utility.yul\":28331:28335   */\n      0x20\n        /* \"#utility.yul\":28326:28329   */\n      dup3\n        /* \"#utility.yul\":28322:28336   */\n      add\n        /* \"#utility.yul\":28307:28336   */\n      swap1\n      pop\n        /* \"#utility.yul\":28173:28342   */\n      swap3\n      swap2\n      pop\n      pop\n      jump\t// out\n        /* \"#utility.yul\":28348:28725   */\n    tag_435:\n        /* \"#utility.yul\":28436:28439   */\n      0x00\n        /* \"#utility.yul\":28464:28503   */\n      tag_685\n        /* \"#utility.yul\":28497:28502   */\n      dup3\n        /* \"#utility.yul\":28464:28503   */\n      tag_414\n      jump\t// in\n    tag_685:\n        /* \"#utility.yul\":28519:28590   */\n      tag_686\n        /* \"#utility.yul\":28583:28589   */\n      dup2\n        /* \"#utility.yul\":28578:28581   */\n      dup6\n        /* \"#utility.yul\":28519:28590   */\n      tag_434\n      jump\t// in\n    tag_686:\n        /* \"#utility.yul\":28512:28590   */\n      swap4\n      pop\n        /* \"#utility.yul\":28599:28664   */\n      tag_687\n        /* \"#utility.yul\":28657:28663   */\n      dup2\n        /* \"#utility.yul\":28652:28655   */\n      dup6\n        /* \"#utility.yul\":28645:28649   */\n      0x20\n        /* \"#utility.yul\":28638:28643   */\n      dup7\n        /* \"#utility.yul\":28634:28650   */\n      add\n        /* \"#utility.yul\":28599:28664   */\n      tag_416\n      jump\t// in\n    tag_687:\n        /* \"#utility.yul\":28689:28718   */\n      tag_688\n        /* \"#utility.yul\":28711:28717   */\n      dup2\n        /* \"#utility.yul\":28689:28718   */\n      tag_396\n      jump\t// in\n    tag_688:\n        /* \"#utility.yul\":28684:28687   */\n      dup5\n        /* \"#utility.yul\":28680:28719   */\n      add\n        /* \"#utility.yul\":28673:28719   */\n      swap2\n      pop\n        /* \"#utility.yul\":28440:28725   */\n      pop\n        /* \"#utility.yul\":28348:28725   */\n      swap3\n      swap2\n      pop\n      pop\n      jump\t// out\n        /* \"#utility.yul\":28731:29850   */\n    tag_78:\n        /* \"#utility.yul\":29036:29040   */\n      0x00\n        /* \"#utility.yul\":29074:29077   */\n      0xa0\n        /* \"#utility.yul\":29063:29072   */\n      dup3\n        /* \"#utility.yul\":29059:29078   */\n      add\n        /* \"#utility.yul\":29051:29078   */\n      swap1\n      pop\n        /* \"#utility.yul\":29124:29133   */\n      dup2\n        /* \"#utility.yul\":29118:29122   */\n      dup2\n        /* \"#utility.yul\":29114:29134   */\n      sub\n        /* \"#utility.yul\":29110:29111   */\n      0x00\n        /* \"#utility.yul\":29099:29108   */\n      dup4\n        /* \"#utility.yul\":29095:29112   */\n      add\n        /* \"#utility.yul\":29088:29135   */\n      mstore\n        /* \"#utility.yul\":29152:29230   */\n      tag_690\n        /* \"#utility.yul\":29225:29229   */\n      dup2\n        /* \"#utility.yul\":29216:29222   */\n      dup9\n        /* \"#utility.yul\":29152:29230   */\n      tag_435\n      jump\t// in\n    tag_690:\n        /* \"#utility.yul\":29144:29230   */\n      swap1\n      pop\n        /* \"#utility.yul\":29277:29286   */\n      dup2\n        /* \"#utility.yul\":29271:29275   */\n      dup2\n        /* \"#utility.yul\":29267:29287   */\n      sub\n        /* \"#utility.yul\":29262:29264   */\n      0x20\n        /* \"#utility.yul\":29251:29260   */\n      dup4\n        /* \"#utility.yul\":29247:29265   */\n      add\n        /* \"#utility.yul\":29240:29288   */\n      mstore\n        /* \"#utility.yul\":29305:29383   */\n      tag_691\n        /* \"#utility.yul\":29378:29382   */\n      dup2\n        /* \"#utility.yul\":29369:29375   */\n      dup8\n        /* \"#utility.yul\":29305:29383   */\n      tag_435\n      jump\t// in\n    tag_691:\n        /* \"#utility.yul\":29297:29383   */\n      swap1\n      pop\n        /* \"#utility.yul\":29430:29439   */\n      dup2\n        /* \"#utility.yul\":29424:29428   */\n      dup2\n        /* \"#utility.yul\":29420:29440   */\n      sub\n        /* \"#utility.yul\":29415:29417   */\n      0x40\n        /* \"#utility.yul\":29404:29413   */\n      dup4\n        /* \"#utility.yul\":29400:29418   */\n      add\n        /* \"#utility.yul\":29393:29441   */\n      mstore\n        /* \"#utility.yul\":29458:29536   */\n      tag_692\n        /* \"#utility.yul\":29531:29535   */\n      dup2\n        /* \"#utility.yul\":29522:29528   */\n      dup7\n        /* \"#utility.yul\":29458:29536   */\n      tag_435\n      jump\t// in\n    tag_692:\n        /* \"#utility.yul\":29450:29536   */\n      swap1\n      pop\n        /* \"#utility.yul\":29583:29592   */\n      dup2\n        /* \"#utility.yul\":29577:29581   */\n      dup2\n        /* \"#utility.yul\":29573:29593   */\n      sub\n        /* \"#utility.yul\":29568:29570   */\n      0x60\n        /* \"#utility.yul\":29557:29566   */\n      dup4\n        /* \"#utility.yul\":29553:29571   */\n      add\n        /* \"#utility.yul\":29546:29594   */\n      mstore\n        /* \"#utility.yul\":29611:29689   */\n      tag_693\n        /* \"#utility.yul\":29684:29688   */\n      dup2\n        /* \"#utility.yul\":29675:29681   */\n      dup6\n        /* \"#utility.yul\":29611:29689   */\n      tag_435\n      jump\t// in\n    tag_693:\n        /* \"#utility.yul\":29603:29689   */\n      swap1\n      pop\n        /* \"#utility.yul\":29737:29746   */\n      dup2\n        /* \"#utility.yul\":29731:29735   */\n      dup2\n        /* \"#utility.yul\":29727:29747   */\n      sub\n        /* \"#utility.yul\":29721:29724   */\n      0x80\n        /* \"#utility.yul\":29710:29719   */\n      dup4\n        /* \"#utility.yul\":29706:29725   */\n      add\n        /* \"#utility.yul\":29699:29748   */\n      mstore\n        /* \"#utility.yul\":29765:29843   */\n      tag_694\n        /* \"#utility.yul\":29838:29842   */\n      dup2\n        /* \"#utility.yul\":29829:29835   */\n      dup5\n        /* \"#utility.yul\":29765:29843   */\n      tag_435\n      jump\t// in\n    tag_694:\n        /* \"#utility.yul\":29757:29843   */\n      swap1\n      pop\n        /* \"#utility.yul\":28731:29850   */\n      swap7\n      swap6\n      pop\n      pop\n      pop\n      pop\n      pop\n      pop\n      jump\t// out\n        /* \"#utility.yul\":29856:30036   */\n    tag_436:\n        /* \"#utility.yul\":29904:29981   */\n      0x4e487b7100000000000000000000000000000000000000000000000000000000\n        /* \"#utility.yul\":29901:29902   */\n      0x00\n        /* \"#utility.yul\":29894:29982   */\n      mstore\n        /* \"#utility.yul\":30001:30005   */\n      0x22\n        /* \"#utility.yul\":29998:29999   */\n      0x04\n        /* \"#utility.yul\":29991:30006   */\n      mstore\n        /* \"#utility.yul\":30025:30029   */\n      0x24\n        /* \"#utility.yul\":30022:30023   */\n      0x00\n        /* \"#utility.yul\":30015:30030   */\n      revert\n        /* \"#utility.yul\":30042:30362   */\n    tag_147:\n        /* \"#utility.yul\":30086:30092   */\n      0x00\n        /* \"#utility.yul\":30123:30124   */\n      0x02\n        /* \"#utility.yul\":30117:30121   */\n      dup3\n        /* \"#utility.yul\":30113:30125   */\n      div\n        /* \"#utility.yul\":30103:30125   */\n      swap1\n      pop\n        /* \"#utility.yul\":30170:30171   */\n      0x01\n        /* \"#utility.yul\":30164:30168   */\n      dup3\n        /* \"#utility.yul\":30160:30172   */\n      and\n        /* \"#utility.yul\":30191:30209   */\n      dup1\n        /* \"#utility.yul\":30181:30262   */\n      tag_697\n      jumpi\n        /* \"#utility.yul\":30247:30251   */\n      0x7f\n        /* \"#utility.yul\":30239:30245   */\n      dup3\n        /* \"#utility.yul\":30235:30252   */\n      and\n        /* \"#utility.yul\":30225:30252   */\n      swap2\n      pop\n        /* \"#utility.yul\":30181:30262   */\n    tag_697:\n        /* \"#utility.yul\":30309:30311   */\n      0x20\n        /* \"#utility.yul\":30301:30307   */\n      dup3\n        /* \"#utility.yul\":30298:30312   */\n      lt\n        /* \"#utility.yul\":30278:30296   */\n      dup2\n        /* \"#utility.yul\":30275:30313   */\n      sub\n        /* \"#utility.yul\":30272:30356   */\n      tag_698\n      jumpi\n        /* \"#utility.yul\":30328:30346   */\n      tag_699\n      tag_436\n      jump\t// in\n    tag_699:\n        /* \"#utility.yul\":30272:30356   */\n    tag_698:\n        /* \"#utility.yul\":30093:30362   */\n      pop\n        /* \"#utility.yul\":30042:30362   */\n      swap2\n      swap1\n      pop\n      jump\t// out\n        /* \"#utility.yul\":30368:30509   */\n    tag_437:\n        /* \"#utility.yul\":30417:30421   */\n      0x00\n        /* \"#utility.yul\":30440:30443   */\n      dup2\n        /* \"#utility.yul\":30432:30443   */\n      swap1\n      pop\n        /* \"#utility.yul\":30463:30466   */\n      dup2\n        /* \"#utility.yul\":30460:30461   */\n      0x00\n        /* \"#utility.yul\":30453:30467   */\n      mstore\n        /* \"#utility.yul\":30497:30501   */\n      0x20\n        /* \"#utility.yul\":30494:30495   */\n      0x00\n        /* \"#utility.yul\":30484:30502   */\n      keccak256\n        /* \"#utility.yul\":30476:30502   */\n      swap1\n      pop\n        /* \"#utility.yul\":30368:30509   */\n      swap2\n      swap1\n      pop\n      jump\t// out\n        /* \"#utility.yul\":30515:30608   */\n    tag_438:\n        /* \"#utility.yul\":30552:30558   */\n      0x00\n        /* \"#utility.yul\":30599:30601   */\n      0x20\n        /* \"#utility.yul\":30594:30596   */\n      0x1f\n        /* \"#utility.yul\":30587:30592   */\n      dup4\n        /* \"#utility.yul\":30583:30597   */\n      add\n        /* \"#utility.yul\":30579:30602   */\n      div\n        /* \"#utility.yul\":30569:30602   */\n      swap1\n      pop\n        /* \"#utility.yul\":30515:30608   */\n      swap2\n      swap1\n      pop\n      jump\t// out\n        /* \"#utility.yul\":30614:30721   */\n    tag_439:\n        /* \"#utility.yul\":30658:30666   */\n      0x00\n        /* \"#utility.yul\":30708:30713   */\n      dup3\n        /* \"#utility.yul\":30702:30706   */\n      dup3\n        /* \"#utility.yul\":30698:30714   */\n      shl\n        /* \"#utility.yul\":30677:30714   */\n      swap1\n      pop\n        /* \"#utility.yul\":30614:30721   */\n      swap3\n      swap2\n      pop\n      pop\n      jump\t// out\n        /* \"#utility.yul\":30727:31120   */\n    tag_440:\n        /* \"#utility.yul\":30796:30802   */\n      0x00\n        /* \"#utility.yul\":30846:30847   */\n      0x08\n        /* \"#utility.yul\":30834:30844   */\n      dup4\n        /* \"#utility.yul\":30830:30848   */\n      mul\n        /* \"#utility.yul\":30869:30966   */\n      tag_704\n        /* \"#utility.yul\":30899:30965   */\n      0xffffffffffffffffffffffffffffffffffffffffffffffffffffffffffffffff\n        /* \"#utility.yul\":30888:30897   */\n      dup3\n        /* \"#utility.yul\":30869:30966   */\n      tag_439\n      jump\t// in\n    tag_704:\n        /* \"#utility.yul\":30987:31026   */\n      tag_705\n        /* \"#utility.yul\":31017:31025   */\n      dup7\n        /* \"#utility.yul\":31006:31015   */\n      dup4\n        /* \"#utility.yul\":30987:31026   */\n      tag_439\n      jump\t// in\n    tag_705:\n        /* \"#utility.yul\":30975:31026   */\n      swap6\n      pop\n        /* \"#utility.yul\":31059:31063   */\n      dup1\n        /* \"#utility.yul\":31055:31064   */\n      not\n        /* \"#utility.yul\":31048:31053   */\n      dup5\n        /* \"#utility.yul\":31044:31065   */\n      and\n        /* \"#utility.yul\":31035:31065   */\n      swap4\n      pop\n        /* \"#utility.yul\":31108:31112   */\n      dup1\n        /* \"#utility.yul\":31098:31106   */\n      dup7\n        /* \"#utility.yul\":31094:31113   */\n      and\n        /* \"#utility.yul\":31087:31092   */\n      dup5\n        /* \"#utility.yul\":31084:31114   */\n      or\n        /* \"#utility.yul\":31074:31114   */\n      swap3\n      pop\n        /* \"#utility.yul\":30803:31120   */\n      pop\n      pop\n        /* \"#utility.yul\":30727:31120   */\n      swap4\n      swap3\n      pop\n      pop\n      pop\n      jump\t// out\n        /* \"#utility.yul\":31126:31186   */\n    tag_441:\n        /* \"#utility.yul\":31154:31157   */\n      0x00\n        /* \"#utility.yul\":31175:31180   */\n      dup2\n        /* \"#utility.yul\":31168:31180   */\n      swap1\n      pop\n        /* \"#utility.yul\":31126:31186   */\n      swap2\n      swap1\n      pop\n      jump\t// out\n        /* \"#utility.yul\":31192:31334   */\n    tag_442:\n        /* \"#utility.yul\":31242:31251   */\n      0x00\n        /* \"#utility.yul\":31275:31328   */\n      tag_708\n        /* \"#utility.yul\":31293:31327   */\n      tag_709\n        /* \"#utility.yul\":31302:31326   */\n      tag_710\n        /* \"#utility.yul\":31320:31325   */\n      dup5\n        /* \"#utility.yul\":31302:31326   */\n      tag_408\n      jump\t// in\n    tag_710:\n        /* \"#utility.yul\":31293:31327   */\n      tag_441\n      jump\t// in\n    tag_709:\n        /* \"#utility.yul\":31275:31328   */\n      tag_408\n      jump\t// in\n    tag_708:\n        /* \"#utility.yul\":31262:31328   */\n      swap1\n      pop\n        /* \"#utility.yul\":31192:31334   */\n      swap2\n      swap1\n      pop\n      jump\t// out\n        /* \"#utility.yul\":31340:31415   */\n    tag_443:\n        /* \"#utility.yul\":31383:31386   */\n      0x00\n        /* \"#utility.yul\":31404:31409   */\n      dup2\n        /* \"#utility.yul\":31397:31409   */\n      swap1\n      pop\n        /* \"#utility.yul\":31340:31415   */\n      swap2\n      swap1\n      pop\n      jump\t// out\n        /* \"#utility.yul\":31421:31690   */\n    tag_444:\n        /* \"#utility.yul\":31531:31570   */\n      tag_713\n        /* \"#utility.yul\":31562:31569   */\n      dup4\n        /* \"#utility.yul\":31531:31570   */\n      tag_442\n      jump\t// in\n    tag_713:\n        /* \"#utility.yul\":31592:31683   */\n      tag_714\n        /* \"#utility.yul\":31641:31682   */\n      tag_715\n        /* \"#utility.yul\":31665:31681   */\n      dup3\n        /* \"#utility.yul\":31641:31682   */\n      tag_443\n      jump\t// in\n    tag_715:\n        /* \"#utility.yul\":31633:31639   */\n      dup5\n        /* \"#utility.yul\":31626:31630   */\n      dup5\n        /* \"#utility.yul\":31620:31631   */\n      sload\n        /* \"#utility.yul\":31592:31683   */\n      tag_440\n      jump\t// in\n    tag_714:\n        /* \"#utility.yul\":31586:31590   */\n      dup3\n        /* \"#utility.yul\":31579:31684   */\n      sstore\n        /* \"#utility.yul\":31497:31690   */\n      pop\n        /* \"#utility.yul\":31421:31690   */\n      pop\n      pop\n      pop\n      jump\t// out\n        /* \"#utility.yul\":31696:31769   */\n    tag_445:\n        /* \"#utility.yul\":31741:31744   */\n      0x00\n        /* \"#utility.yul\":31696:31769   */\n      swap1\n      jump\t// out\n        /* \"#utility.yul\":31775:31964   */\n    tag_446:\n        /* \"#utility.yul\":31852:31884   */\n      tag_718\n      tag_445\n      jump\t// in\n    tag_718:\n        /* \"#utility.yul\":31893:31958   */\n      tag_719\n        /* \"#utility.yul\":31951:31957   */\n      dup2\n        /* \"#utility.yul\":31943:31949   */\n      dup5\n        /* \"#utility.yul\":31937:31941   */\n      dup5\n        /* \"#utility.yul\":31893:31958   */\n      tag_444\n      jump\t// in\n    tag_719:\n        /* \"#utility.yul\":31828:31964   */\n      pop\n        /* \"#utility.yul\":31775:31964   */\n      pop\n      pop\n      jump\t// out\n        /* \"#utility.yul\":31970:32156   */\n    tag_447:\n        /* \"#utility.yul\":32030:32150   */\n    tag_721:\n        /* \"#utility.yul\":32047:32050   */\n      dup2\n        /* \"#utility.yul\":32040:32045   */\n      dup2\n        /* \"#utility.yul\":32037:32051   */\n      lt\n        /* \"#utility.yul\":32030:32150   */\n      iszero\n      tag_723\n      jumpi\n        /* \"#utility.yul\":32101:32140   */\n      tag_724\n        /* \"#utility.yul\":32138:32139   */\n      0x00\n        /* \"#utility.yul\":32131:32136   */\n      dup3\n        /* \"#utility.yul\":32101:32140   */\n      tag_446\n      jump\t// in\n    tag_724:\n        /* \"#utility.yul\":32074:32075   */\n      0x01\n        /* \"#utility.yul\":32067:32072   */\n      dup2\n        /* \"#utility.yul\":32063:32076   */\n      add\n        /* \"#utility.yul\":32054:32076   */\n      swap1\n      pop\n        /* \"#utility.yul\":32030:32150   */\n      jump(tag_721)\n    tag_723:\n        /* \"#utility.yul\":31970:32156   */\n      pop\n      pop\n      jump\t// out\n        /* \"#utility.yul\":32162:32705   */\n    tag_448:\n        /* \"#utility.yul\":32263:32265   */\n      0x1f\n        /* \"#utility.yul\":32258:32261   */\n      dup3\n        /* \"#utility.yul\":32255:32266   */\n      gt\n        /* \"#utility.yul\":32252:32698   */\n      iszero\n      tag_726\n      jumpi\n        /* \"#utility.yul\":32297:32335   */\n      tag_727\n        /* \"#utility.yul\":32329:32334   */\n      dup2\n        /* \"#utility.yul\":32297:32335   */\n      tag_437\n      jump\t// in\n    tag_727:\n        /* \"#utility.yul\":32381:32410   */\n      tag_728\n        /* \"#utility.yul\":32399:32409   */\n      dup5\n        /* \"#utility.yul\":32381:32410   */\n      tag_438\n      jump\t// in\n    tag_728:\n        /* \"#utility.yul\":32371:32379   */\n      dup2\n        /* \"#utility.yul\":32367:32411   */\n      add\n        /* \"#utility.yul\":32564:32566   */\n      0x20\n        /* \"#utility.yul\":32552:32562   */\n      dup6\n        /* \"#utility.yul\":32549:32567   */\n      lt\n        /* \"#utility.yul\":32546:32595   */\n      iszero\n      tag_729\n      jumpi\n        /* \"#utility.yul\":32585:32593   */\n      dup2\n        /* \"#utility.yul\":32570:32593   */\n      swap1\n      pop\n        /* \"#utility.yul\":32546:32595   */\n    tag_729:\n        /* \"#utility.yul\":32608:32688   */\n      tag_730\n        /* \"#utility.yul\":32664:32686   */\n      tag_731\n        /* \"#utility.yul\":32682:32685   */\n      dup6\n        /* \"#utility.yul\":32664:32686   */\n      tag_438\n      jump\t// in\n    tag_731:\n        /* \"#utility.yul\":32654:32662   */\n      dup4\n        /* \"#utility.yul\":32650:32687   */\n      add\n        /* \"#utility.yul\":32637:32648   */\n      dup3\n        /* \"#utility.yul\":32608:32688   */\n      tag_447\n      jump\t// in\n    tag_730:\n        /* \"#utility.yul\":32267:32698   */\n      pop\n      pop\n        /* \"#utility.yul\":32252:32698   */\n    tag_726:\n        /* \"#utility.yul\":32162:32705   */\n      pop\n      pop\n      pop\n      jump\t// out\n        /* \"#utility.yul\":32711:32828   */\n    tag_449:\n        /* \"#utility.yul\":32765:32773   */\n      0x00\n        /* \"#utility.yul\":32815:32820   */\n      dup3\n        /* \"#utility.yul\":32809:32813   */\n      dup3\n        /* \"#utility.yul\":32805:32821   */\n      shr\n        /* \"#utility.yul\":32784:32821   */\n      swap1\n      pop\n        /* \"#utility.yul\":32711:32828   */\n      swap3\n      swap2\n      pop\n      pop\n      jump\t// out\n        /* \"#utility.yul\":32834:33003   */\n    tag_450:\n        /* \"#utility.yul\":32878:32884   */\n      0x00\n        /* \"#utility.yul\":32911:32962   */\n      tag_734\n        /* \"#utility.yul\":32959:32960   */\n      0x00\n        /* \"#utility.yul\":32955:32961   */\n      not\n        /* \"#utility.yul\":32947:32952   */\n      dup5\n        /* \"#utility.yul\":32944:32945   */\n      0x08\n        /* \"#utility.yul\":32940:32953   */\n      mul\n        /* \"#utility.yul\":32911:32962   */\n      tag_449\n      jump\t// in\n    tag_734:\n        /* \"#utility.yul\":32907:32963   */\n      not\n        /* \"#utility.yul\":32992:32996   */\n      dup1\n        /* \"#utility.yul\":32986:32990   */\n      dup4\n        /* \"#utility.yul\":32982:32997   */\n      and\n        /* \"#utility.yul\":32972:32997   */\n      swap2\n      pop\n        /* \"#utility.yul\":32885:33003   */\n      pop\n        /* \"#utility.yul\":32834:33003   */\n      swap3\n      swap2\n      pop\n      pop\n      jump\t// out\n        /* \"#utility.yul\":33008:33303   */\n    tag_451:\n        /* \"#utility.yul\":33084:33088   */\n      0x00\n        /* \"#utility.yul\":33230:33259   */\n      tag_736\n        /* \"#utility.yul\":33255:33258   */\n      dup4\n        /* \"#utility.yul\":33249:33253   */\n      dup4\n        /* \"#utility.yul\":33230:33259   */\n      tag_450\n      jump\t// in\n    tag_736:\n        /* \"#utility.yul\":33222:33259   */\n      swap2\n      pop\n        /* \"#utility.yul\":33292:33295   */\n      dup3\n        /* \"#utility.yul\":33289:33290   */\n      0x02\n        /* \"#utility.yul\":33285:33296   */\n      mul\n        /* \"#utility.yul\":33279:33283   */\n      dup3\n        /* \"#utility.yul\":33276:33297   */\n      or\n        /* \"#utility.yul\":33268:33297   */\n      swap1\n      pop\n        /* \"#utility.yul\":33008:33303   */\n      swap3\n      swap2\n      pop\n      pop\n      jump\t// out\n        /* \"#utility.yul\":33308:34703   */\n    tag_87:\n        /* \"#utility.yul\":33425:33462   */\n      tag_738\n        /* \"#utility.yul\":33458:33461   */\n      dup3\n        /* \"#utility.yul\":33425:33462   */\n      tag_414\n      jump\t// in\n    tag_738:\n        /* \"#utility.yul\":33527:33545   */\n      0xffffffffffffffff\n        /* \"#utility.yul\":33519:33525   */\n      dup2\n        /* \"#utility.yul\":33516:33546   */\n      gt\n        /* \"#utility.yul\":33513:33569   */\n      iszero\n      tag_739\n      jumpi\n        /* \"#utility.yul\":33549:33567   */\n      tag_740\n      tag_397\n      jump\t// in\n    tag_740:\n        /* \"#utility.yul\":33513:33569   */\n    tag_739:\n        /* \"#utility.yul\":33593:33631   */\n      tag_741\n        /* \"#utility.yul\":33625:33629   */\n      dup3\n        /* \"#utility.yul\":33619:33630   */\n      sload\n        /* \"#utility.yul\":33593:33631   */\n      tag_147\n      jump\t// in\n    tag_741:\n        /* \"#utility.yul\":33678:33745   */\n      tag_742\n        /* \"#utility.yul\":33738:33744   */\n      dup3\n        /* \"#utility.yul\":33730:33736   */\n      dup3\n        /* \"#utility.yul\":33724:33728   */\n      dup6\n        /* \"#utility.yul\":33678:33745   */\n      tag_448\n      jump\t// in\n    tag_742:\n        /* \"#utility.yul\":33772:33773   */\n      0x00\n        /* \"#utility.yul\":33796:33800   */\n      0x20\n        /* \"#utility.yul\":33783:33800   */\n      swap1\n      pop\n        /* \"#utility.yul\":33828:33830   */\n      0x1f\n        /* \"#utility.yul\":33820:33826   */\n      dup4\n        /* \"#utility.yul\":33817:33831   */\n      gt\n        /* \"#utility.yul\":33845:33846   */\n      0x01\n        /* \"#utility.yul\":33840:34458   */\n      dup2\n      eq\n      tag_744\n      jumpi\n        /* \"#utility.yul\":34502:34503   */\n      0x00\n        /* \"#utility.yul\":34519:34525   */\n      dup5\n        /* \"#utility.yul\":34516:34593   */\n      iszero\n      tag_745\n      jumpi\n        /* \"#utility.yul\":34568:34577   */\n      dup3\n        /* \"#utility.yul\":34563:34566   */\n      dup8\n        /* \"#utility.yul\":34559:34578   */\n      add\n        /* \"#utility.yul\":34553:34579   */\n      mload\n        /* \"#utility.yul\":34544:34579   */\n      swap1\n      pop\n        /* \"#utility.yul\":34516:34593   */\n    tag_745:\n        /* \"#utility.yul\":34619:34686   */\n      tag_746\n        /* \"#utility.yul\":34679:34685   */\n      dup6\n        /* \"#utility.yul\":34672:34677   */\n      dup3\n        /* \"#utility.yul\":34619:34686   */\n      tag_451\n      jump\t// in\n    tag_746:\n        /* \"#utility.yul\":34613:34617   */\n      dup7\n        /* \"#utility.yul\":34606:34687   */\n      sstore\n        /* \"#utility.yul\":34475:34697   */\n      pop\n        /* \"#utility.yul\":33810:34697   */\n      jump(tag_743)\n        /* \"#utility.yul\":33840:34458   */\n    tag_744:\n        /* \"#utility.yul\":33892:33896   */\n      0x1f\n        /* \"#utility.yul\":33888:33897   */\n      not\n        /* \"#utility.yul\":33880:33886   */\n      dup5\n        /* \"#utility.yul\":33876:33898   */\n      and\n        /* \"#utility.yul\":33926:33963   */\n      tag_747\n        /* \"#utility.yul\":33958:33962   */\n      dup7\n        /* \"#utility.yul\":33926:33963   */\n      tag_437\n      jump\t// in\n    tag_747:\n        /* \"#utility.yul\":33985:33986   */\n      0x00\n        /* \"#utility.yul\":33999:34207   */\n    tag_748:\n        /* \"#utility.yul\":34013:34020   */\n      dup3\n        /* \"#utility.yul\":34010:34011   */\n      dup2\n        /* \"#utility.yul\":34007:34021   */\n      lt\n        /* \"#utility.yul\":33999:34207   */\n      iszero\n      tag_750\n      jumpi\n        /* \"#utility.yul\":34092:34101   */\n      dup5\n        /* \"#utility.yul\":34087:34090   */\n      dup10\n        /* \"#utility.yul\":34083:34102   */\n      add\n        /* \"#utility.yul\":34077:34103   */\n      mload\n        /* \"#utility.yul\":34069:34075   */\n      dup3\n        /* \"#utility.yul\":34062:34104   */\n      sstore\n        /* \"#utility.yul\":34143:34144   */\n      0x01\n        /* \"#utility.yul\":34135:34141   */\n      dup3\n        /* \"#utility.yul\":34131:34145   */\n      add\n        /* \"#utility.yul\":34121:34145   */\n      swap2\n      pop\n        /* \"#utility.yul\":34190:34192   */\n      0x20\n        /* \"#utility.yul\":34179:34188   */\n      dup6\n        /* \"#utility.yul\":34175:34193   */\n      add\n        /* \"#utility.yul\":34162:34193   */\n      swap5\n      pop\n        /* \"#utility.yul\":34036:34040   */\n      0x20\n        /* \"#utility.yul\":34033:34034   */\n      dup2\n        /* \"#utility.yul\":34029:34041   */\n      add\n        /* \"#utility.yul\":34024:34041   */\n      swap1\n      pop\n        /* \"#utility.yul\":33999:34207   */\n      jump(tag_748)\n    tag_750:\n        /* \"#utility.yul\":34235:34241   */\n      dup7\n        /* \"#utility.yul\":34226:34233   */\n      dup4\n        /* \"#utility.yul\":34223:34242   */\n      lt\n        /* \"#utility.yul\":34220:34399   */\n      iszero\n      tag_751\n      jumpi\n        /* \"#utility.yul\":34293:34302   */\n      dup5\n        /* \"#utility.yul\":34288:34291   */\n      dup10\n        /* \"#utility.yul\":34284:34303   */\n      add\n        /* \"#utility.yul\":34278:34304   */\n      mload\n        /* \"#utility.yul\":34336:34384   */\n      tag_752\n        /* \"#utility.yul\":34378:34382   */\n      0x1f\n        /* \"#utility.yul\":34370:34376   */\n      dup10\n        /* \"#utility.yul\":34366:34383   */\n      and\n        /* \"#utility.yul\":34355:34364   */\n      dup3\n        /* \"#utility.yul\":34336:34384   */\n      tag_450\n      jump\t// in\n    tag_752:\n        /* \"#utility.yul\":34328:34334   */\n      dup4\n        /* \"#utility.yul\":34321:34385   */\n      sstore\n        /* \"#utility.yul\":34243:34399   */\n      pop\n        /* \"#utility.yul\":34220:34399   */\n    tag_751:\n        /* \"#utility.yul\":34445:34446   */\n      0x01\n        /* \"#utility.yul\":34441:34442   */\n      0x02\n        /* \"#utility.yul\":34433:34439   */\n      dup9\n        /* \"#utility.yul\":34429:34443   */\n      mul\n        /* \"#utility.yul\":34425:34447   */\n      add\n        /* \"#utility.yul\":34419:34423   */\n      dup9\n        /* \"#utility.yul\":34412:34448   */\n      sstore\n        /* \"#utility.yul\":33847:34458   */\n      pop\n      pop\n      pop\n        /* \"#utility.yul\":33810:34697   */\n    tag_743:\n      pop\n        /* \"#utility.yul\":33400:34703   */\n      pop\n      pop\n      pop\n        /* \"#utility.yul\":33308:34703   */\n      pop\n      pop\n      jump\t// out\n        /* \"#utility.yul\":34709:34889   */\n    tag_298:\n        /* \"#utility.yul\":34757:34834   */\n      0x4e487b7100000000000000000000000000000000000000000000000000000000\n        /* \"#utility.yul\":34754:34755   */\n      0x00\n        /* \"#utility.yul\":34747:34835   */\n      mstore\n        /* \"#utility.yul\":34854:34858   */\n      0x32\n        /* \"#utility.yul\":34851:34852   */\n      0x04\n        /* \"#utility.yul\":34844:34859   */\n      mstore\n        /* \"#utility.yul\":34878:34882   */\n      0x24\n        /* \"#utility.yul\":34875:34876   */\n      0x00\n        /* \"#utility.yul\":34868:34883   */\n      revert\n\n    auxdata: 0xa26469706673582212200ad9504a05c5ed8054a13b24feb77ca091aa64162c87c63eda39b9cb255c88c964736f6c63430008100033\n}\n",
				"bytecode": {
					"linkReferences": {},
					"object": "608060405234801561001057600080fd5b50613a42806100206000396000f3fe608060405234801561001057600080fd5b506004361061010b5760003560e01c806372828388116100a2578063b240c61911610071578063b240c61914610245578063c9116b691461024f578063ed2217ef1461026d578063f96e32f814610277578063fabce08f146102ab5761010b565b806372828388146101ce578063958791ae146101ea57806395ea3757146102065780639dd9d0fd146102105761010b565b80634ed74067116100de5780634ed740671461016e5780636212fa021461017857806366244dfb146101965780636c2cc774146101b25761010b565b8063119d4cac146101105780632a70da291461011a578063322a9849146101365780633d984d0e14610152575b600080fd5b6101186102b5565b005b610134600480360381019061012f9190612b6c565b61031b565b005b610150600480360381019061014b9190612c73565b6104c3565b005b61016c60048036038101906101679190612ceb565b61056b565b005b6101766106ef565b005b610180610755565b60405161018d9190612dab565b60405180910390f35b6101b060048036038101906101ab9190612dc6565b6107a1565b005b6101cc60048036038101906101c79190612ecd565b6108b9565b005b6101e860048036038101906101e39190612dc6565b61096f565b005b61020460048036038101906101ff9190612f45565b610bb4565b005b61020e610e74565b005b61022a600480360381019061022591906130d8565b610f49565b60405161023c9695949392919061355b565b60405180910390f35b61024d611f7c565b005b610257612012565b6040516102649190612dab565b60405180910390f35b610275612031565b005b610291600480360381019061028c9190613612565b612080565b6040516102a2959493929190613689565b60405180910390f35b6102b361254b565b005b6000803373ffffffffffffffffffffffffffffffffffffffff1673ffffffffffffffffffffffffffffffffffffffff168152602001908152602001600020601901600080820160006103079190612777565b6001820160006103179190612777565b5050565b846000803373ffffffffffffffffffffffffffffffffffffffff1673ffffffffffffffffffffffffffffffffffffffff168152602001908152602001600020601401600001908161036c919061390b565b50836000803373ffffffffffffffffffffffffffffffffffffffff1673ffffffffffffffffffffffffffffffffffffffff16815260200190815260200160002060140160010190816103be919061390b565b50826000803373ffffffffffffffffffffffffffffffffffffffff1673ffffffffffffffffffffffffffffffffffffffff1681526020019081526020016000206014016002019081610410919061390b565b50816000803373ffffffffffffffffffffffffffffffffffffffff1673ffffffffffffffffffffffffffffffffffffffff1681526020019081526020016000206014016003019081610462919061390b565b50806000803373ffffffffffffffffffffffffffffffffffffffff1673ffffffffffffffffffffffffffffffffffffffff16815260200190815260200160002060140160040190805190602001906104bb9291906127b7565b505050505050565b816000803373ffffffffffffffffffffffffffffffffffffffff1673ffffffffffffffffffffffffffffffffffffffff1681526020019081526020016000206019016000019081610514919061390b565b50806000803373ffffffffffffffffffffffffffffffffffffffff1673ffffffffffffffffffffffffffffffffffffffff1681526020019081526020016000206019016001019081610566919061390b565b505050565b6000803373ffffffffffffffffffffffffffffffffffffffff1673ffffffffffffffffffffffffffffffffffffffff168152602001908152602001600020600e01600080820160006105bd9190612810565b6001820160006105cd9190612810565b6002820160006105dd9190612810565b5050826000803373ffffffffffffffffffffffffffffffffffffffff1673ffffffffffffffffffffffffffffffffffffffff168152602001908152602001600020600e0160000190805190602001906106379291906127b7565b50816000803373ffffffffffffffffffffffffffffffffffffffff1673ffffffffffffffffffffffffffffffffffffffff168152602001908152602001600020600e0160010190805190602001906106909291906127b7565b50806000803373ffffffffffffffffffffffffffffffffffffffff1673ffffffffffffffffffffffffffffffffffffffff168152602001908152602001600020600e0160020190805190602001906106e99291906127b7565b50505050565b6000803373ffffffffffffffffffffffffffffffffffffffff1673ffffffffffffffffffffffffffffffffffffffff168152602001908152602001600020601201600080820160006107419190612810565b6001820160006107519190612810565b5050565b60008060003373ffffffffffffffffffffffffffffffffffffffff1673ffffffffffffffffffffffffffffffffffffffff16815260200190815260200160002060110180549050905090565b6107a9612831565b8581600001819052508481602001819052508381604001819052508281606001819052508181608001819052506000803373ffffffffffffffffffffffffffffffffffffffff1673ffffffffffffffffffffffffffffffffffffffff1681526020019081526020016000206011018190806001815401808255809150506001900390600052602060002090600502016000909190919091506000820151816000019081610856919061390b565b50602082015181600101908161086c919061390b565b506040820151816002019081610882919061390b565b506060820151816003019081610898919061390b565b5060808201518160040190816108ae919061390b565b505050505050505050565b816000803373ffffffffffffffffffffffffffffffffffffffff1673ffffffffffffffffffffffffffffffffffffffff16815260200190815260200160002060120160010190805190602001906109119291906127b7565b50806000803373ffffffffffffffffffffffffffffffffffffffff1673ffffffffffffffffffffffffffffffffffffffff168152602001908152602001600020601201600001908051906020019061096a9291906127b7565b505050565b6000803373ffffffffffffffffffffffffffffffffffffffff1673ffffffffffffffffffffffffffffffffffffffff168152602001908152602001600020600801600080820160006109c19190612777565b6001820160006109d19190612777565b6002820160006109e19190612777565b6003820160006109f19190612777565b600482016000610a019190612777565b600582016000610a119190612777565b5050846000803373ffffffffffffffffffffffffffffffffffffffff1673ffffffffffffffffffffffffffffffffffffffff1681526020019081526020016000206008016001019081610a64919061390b565b50836000803373ffffffffffffffffffffffffffffffffffffffff1673ffffffffffffffffffffffffffffffffffffffff1681526020019081526020016000206008016002019081610ab6919061390b565b50826000803373ffffffffffffffffffffffffffffffffffffffff1673ffffffffffffffffffffffffffffffffffffffff1681526020019081526020016000206008016003019081610b08919061390b565b50816000803373ffffffffffffffffffffffffffffffffffffffff1673ffffffffffffffffffffffffffffffffffffffff1681526020019081526020016000206008016002019081610b5a919061390b565b50806000803373ffffffffffffffffffffffffffffffffffffffff1673ffffffffffffffffffffffffffffffffffffffff1681526020019081526020016000206008016001019081610bac919061390b565b505050505050565b856000803373ffffffffffffffffffffffffffffffffffffffff1673ffffffffffffffffffffffffffffffffffffffff1681526020019081526020016000206000016003019081610c05919061390b565b50846000803373ffffffffffffffffffffffffffffffffffffffff1673ffffffffffffffffffffffffffffffffffffffff1681526020019081526020016000206000016004019081610c57919061390b565b50836000803373ffffffffffffffffffffffffffffffffffffffff1673ffffffffffffffffffffffffffffffffffffffff1681526020019081526020016000206000016005019081610ca9919061390b565b50826000803373ffffffffffffffffffffffffffffffffffffffff1673ffffffffffffffffffffffffffffffffffffffff1681526020019081526020016000206000016006019081610cfb919061390b565b50816000803373ffffffffffffffffffffffffffffffffffffffff1673ffffffffffffffffffffffffffffffffffffffff1681526020019081526020016000206000016000019081610d4d919061390b565b50806000803373ffffffffffffffffffffffffffffffffffffffff1673ffffffffffffffffffffffffffffffffffffffff1681526020019081526020016000206000016001019081610d9f919061390b565b50336000803373ffffffffffffffffffffffffffffffffffffffff1673ffffffffffffffffffffffffffffffffffffffff16815260200190815260200160002060000160020160006101000a81548173ffffffffffffffffffffffffffffffffffffffff021916908373ffffffffffffffffffffffffffffffffffffffff160217905550426000803373ffffffffffffffffffffffffffffffffffffffff1673ffffffffffffffffffffffffffffffffffffffff16815260200190815260200160002060000160070181905550505050505050565b6000803373ffffffffffffffffffffffffffffffffffffffff1673ffffffffffffffffffffffffffffffffffffffff16815260200190815260200160002060000160008082016000610ec69190612777565b600182016000610ed69190612777565b6002820160006101000a81549073ffffffffffffffffffffffffffffffffffffffff0219169055600382016000610f0d9190612777565b600482016000610f1d9190612777565b600582016000610f2d9190612777565b600682016000610f3d9190612777565b60078201600090555050565b60006020528060005260406000206000915090508060000160405180610100016040529081600082018054610f7d9061372e565b80601f0160208091040260200160405190810160405280929190818152602001828054610fa99061372e565b8015610ff65780601f10610fcb57610100808354040283529160200191610ff6565b820191906000526020600020905b815481529060010190602001808311610fd957829003601f168201915b5050505050815260200160018201805461100f9061372e565b80601f016020809104026020016040519081016040528092919081815260200182805461103b9061372e565b80156110885780601f1061105d57610100808354040283529160200191611088565b820191906000526020600020905b81548152906001019060200180831161106b57829003601f168201915b505050505081526020016002820160009054906101000a900473ffffffffffffffffffffffffffffffffffffffff1673ffffffffffffffffffffffffffffffffffffffff1673ffffffffffffffffffffffffffffffffffffffff1681526020016003820180546110f79061372e565b80601f01602080910402602001604051908101604052809291908181526020018280546111239061372e565b80156111705780601f1061114557610100808354040283529160200191611170565b820191906000526020600020905b81548152906001019060200180831161115357829003601f168201915b505050505081526020016004820180546111899061372e565b80601f01602080910402602001604051908101604052809291908181526020018280546111b59061372e565b80156112025780601f106111d757610100808354040283529160200191611202565b820191906000526020600020905b8154815290600101906020018083116111e557829003601f168201915b5050505050815260200160058201805461121b9061372e565b80601f01602080910402602001604051908101604052809291908181526020018280546112479061372e565b80156112945780601f1061126957610100808354040283529160200191611294565b820191906000526020600020905b81548152906001019060200180831161127757829003601f168201915b505050505081526020016006820180546112ad9061372e565b80601f01602080910402602001604051908101604052809291908181526020018280546112d99061372e565b80156113265780601f106112fb57610100808354040283529160200191611326565b820191906000526020600020905b81548152906001019060200180831161130957829003601f168201915b5050505050815260200160078201548152505090806008016040518060c00160405290816000820180546113599061372e565b80601f01602080910402602001604051908101604052809291908181526020018280546113859061372e565b80156113d25780601f106113a7576101008083540402835291602001916113d2565b820191906000526020600020905b8154815290600101906020018083116113b557829003601f168201915b505050505081526020016001820180546113eb9061372e565b80601f01602080910402602001604051908101604052809291908181526020018280546114179061372e565b80156114645780601f1061143957610100808354040283529160200191611464565b820191906000526020600020905b81548152906001019060200180831161144757829003601f168201915b5050505050815260200160028201805461147d9061372e565b80601f01602080910402602001604051908101604052809291908181526020018280546114a99061372e565b80156114f65780601f106114cb576101008083540402835291602001916114f6565b820191906000526020600020905b8154815290600101906020018083116114d957829003601f168201915b5050505050815260200160038201805461150f9061372e565b80601f016020809104026020016040519081016040528092919081815260200182805461153b9061372e565b80156115885780601f1061155d57610100808354040283529160200191611588565b820191906000526020600020905b81548152906001019060200180831161156b57829003601f168201915b505050505081526020016004820180546115a19061372e565b80601f01602080910402602001604051908101604052809291908181526020018280546115cd9061372e565b801561161a5780601f106115ef5761010080835404028352916020019161161a565b820191906000526020600020905b8154815290600101906020018083116115fd57829003601f168201915b505050505081526020016005820180546116339061372e565b80601f016020809104026020016040519081016040528092919081815260200182805461165f9061372e565b80156116ac5780601f10611681576101008083540402835291602001916116ac565b820191906000526020600020905b81548152906001019060200180831161168f57829003601f168201915b5050505050815250509080600e0160405180606001604052908160008201805480602002602001604051908101604052809291908181526020016000905b828210156117965783829060005260206000200180546117099061372e565b80601f01602080910402602001604051908101604052809291908181526020018280546117359061372e565b80156117825780601f1061175757610100808354040283529160200191611782565b820191906000526020600020905b81548152906001019060200180831161176557829003601f168201915b5050505050815260200190600101906116ea565b50505050815260200160018201805480602002602001604051908101604052809291908181526020016000905b8282101561186f5783829060005260206000200180546117e29061372e565b80601f016020809104026020016040519081016040528092919081815260200182805461180e9061372e565b801561185b5780601f106118305761010080835404028352916020019161185b565b820191906000526020600020905b81548152906001019060200180831161183e57829003601f168201915b5050505050815260200190600101906117c3565b50505050815260200160028201805480602002602001604051908101604052809291908181526020016000905b828210156119485783829060005260206000200180546118bb9061372e565b80601f01602080910402602001604051908101604052809291908181526020018280546118e79061372e565b80156119345780601f1061190957610100808354040283529160200191611934565b820191906000526020600020905b81548152906001019060200180831161191757829003601f168201915b50505050508152602001906001019061189c565b5050505081525050908060120160405180604001604052908160008201805480602002602001604051908101604052809291908181526020016000905b82821015611a315783829060005260206000200180546119a49061372e565b80601f01602080910402602001604051908101604052809291908181526020018280546119d09061372e565b8015611a1d5780601f106119f257610100808354040283529160200191611a1d565b820191906000526020600020905b815481529060010190602001808311611a0057829003601f168201915b505050505081526020019060010190611985565b50505050815260200160018201805480602002602001604051908101604052809291908181526020016000905b82821015611b0a578382906000526020600020018054611a7d9061372e565b80601f0160208091040260200160405190810160405280929190818152602001828054611aa99061372e565b8015611af65780601f10611acb57610100808354040283529160200191611af6565b820191906000526020600020905b815481529060010190602001808311611ad957829003601f168201915b505050505081526020019060010190611a5e565b505050508152505090806014016040518060a0016040529081600082018054611b329061372e565b80601f0160208091040260200160405190810160405280929190818152602001828054611b5e9061372e565b8015611bab5780601f10611b8057610100808354040283529160200191611bab565b820191906000526020600020905b815481529060010190602001808311611b8e57829003601f168201915b50505050508152602001600182018054611bc49061372e565b80601f0160208091040260200160405190810160405280929190818152602001828054611bf09061372e565b8015611c3d5780601f10611c1257610100808354040283529160200191611c3d565b820191906000526020600020905b815481529060010190602001808311611c2057829003601f168201915b50505050508152602001600282018054611c569061372e565b80601f0160208091040260200160405190810160405280929190818152602001828054611c829061372e565b8015611ccf5780601f10611ca457610100808354040283529160200191611ccf565b820191906000526020600020905b815481529060010190602001808311611cb257829003601f168201915b50505050508152602001600382018054611ce89061372e565b80601f0160208091040260200160405190810160405280929190818152602001828054611d149061372e565b8015611d615780601f10611d3657610100808354040283529160200191611d61565b820191906000526020600020905b815481529060010190602001808311611d4457829003601f168201915b5050505050815260200160048201805480602002602001604051908101604052809291908181526020016000905b82821015611e3b578382906000526020600020018054611dae9061372e565b80601f0160208091040260200160405190810160405280929190818152602001828054611dda9061372e565b8015611e275780601f10611dfc57610100808354040283529160200191611e27565b820191906000526020600020905b815481529060010190602001808311611e0a57829003601f168201915b505050505081526020019060010190611d8f565b50505050815250509080601901604051806040016040529081600082018054611e639061372e565b80601f0160208091040260200160405190810160405280929190818152602001828054611e8f9061372e565b8015611edc5780601f10611eb157610100808354040283529160200191611edc565b820191906000526020600020905b815481529060010190602001808311611ebf57829003601f168201915b50505050508152602001600182018054611ef59061372e565b80601f0160208091040260200160405190810160405280929190818152602001828054611f219061372e565b8015611f6e5780601f10611f4357610100808354040283529160200191611f6e565b820191906000526020600020905b815481529060010190602001808311611f5157829003601f168201915b505050505081525050905086565b6000803373ffffffffffffffffffffffffffffffffffffffff1673ffffffffffffffffffffffffffffffffffffffff16815260200190815260200160002060140160008082016000611fce9190612777565b600182016000611fde9190612777565b600282016000611fee9190612777565b600382016000611ffe9190612777565b60048201600061200e9190612810565b5050565b60003373ffffffffffffffffffffffffffffffffffffffff1631905090565b6000803373ffffffffffffffffffffffffffffffffffffffff1673ffffffffffffffffffffffffffffffffffffffff168152602001908152602001600020601101600061207e9190612860565b565b60608060608060606000803373ffffffffffffffffffffffffffffffffffffffff1673ffffffffffffffffffffffffffffffffffffffff16815260200190815260200160002060110186815481106120db576120da6139dd565b5b90600052602060002090600502016000016000803373ffffffffffffffffffffffffffffffffffffffff1673ffffffffffffffffffffffffffffffffffffffff168152602001908152602001600020601101878154811061213f5761213e6139dd565b5b90600052602060002090600502016001016000803373ffffffffffffffffffffffffffffffffffffffff1673ffffffffffffffffffffffffffffffffffffffff16815260200190815260200160002060110188815481106121a3576121a26139dd565b5b90600052602060002090600502016002016000803373ffffffffffffffffffffffffffffffffffffffff1673ffffffffffffffffffffffffffffffffffffffff1681526020019081526020016000206011018981548110612207576122066139dd565b5b90600052602060002090600502016003016000803373ffffffffffffffffffffffffffffffffffffffff1673ffffffffffffffffffffffffffffffffffffffff1681526020019081526020016000206011018a8154811061226b5761226a6139dd565b5b90600052602060002090600502016004018480546122889061372e565b80601f01602080910402602001604051908101604052809291908181526020018280546122b49061372e565b80156123015780601f106122d657610100808354040283529160200191612301565b820191906000526020600020905b8154815290600101906020018083116122e457829003601f168201915b505050505094508380546123149061372e565b80601f01602080910402602001604051908101604052809291908181526020018280546123409061372e565b801561238d5780601f106123625761010080835404028352916020019161238d565b820191906000526020600020905b81548152906001019060200180831161237057829003601f168201915b505050505093508280546123a09061372e565b80601f01602080910402602001604051908101604052809291908181526020018280546123cc9061372e565b80156124195780601f106123ee57610100808354040283529160200191612419565b820191906000526020600020905b8154815290600101906020018083116123fc57829003601f168201915b5050505050925081805461242c9061372e565b80601f01602080910402602001604051908101604052809291908181526020018280546124589061372e565b80156124a55780601f1061247a576101008083540402835291602001916124a5565b820191906000526020600020905b81548152906001019060200180831161248857829003601f168201915b505050505091508080546124b89061372e565b80601f01602080910402602001604051908101604052809291908181526020018280546124e49061372e565b80156125315780601f1061250657610100808354040283529160200191612531565b820191906000526020600020905b81548152906001019060200180831161251457829003601f168201915b505050505090509450945094509450945091939590929450565b6000803373ffffffffffffffffffffffffffffffffffffffff1673ffffffffffffffffffffffffffffffffffffffff16815260200190815260200160002060008082016000808201600061259f9190612777565b6001820160006125af9190612777565b6002820160006101000a81549073ffffffffffffffffffffffffffffffffffffffff02191690556003820160006125e69190612777565b6004820160006125f69190612777565b6005820160006126069190612777565b6006820160006126169190612777565b6007820160009055505060088201600080820160006126359190612777565b6001820160006126459190612777565b6002820160006126559190612777565b6003820160006126659190612777565b6004820160006126759190612777565b6005820160006126859190612777565b5050600e82016000808201600061269c9190612810565b6001820160006126ac9190612810565b6002820160006126bc9190612810565b50506011820160006126ce9190612860565b60128201600080820160006126e39190612810565b6001820160006126f39190612810565b5050601482016000808201600061270a9190612777565b60018201600061271a9190612777565b60028201600061272a9190612777565b60038201600061273a9190612777565b60048201600061274a9190612810565b505060198201600080820160006127619190612777565b6001820160006127719190612777565b50505050565b5080546127839061372e565b6000825580601f1061279557506127b4565b601f0160209004906000526020600020908101906127b39190612884565b5b50565b8280548282559060005260206000209081019282156127ff579160200282015b828111156127fe5782518290816127ee919061390b565b50916020019190600101906127d7565b5b50905061280c91906128a1565b5090565b508054600082559060005260206000209081019061282e91906128a1565b50565b6040518060a0016040528060608152602001606081526020016060815260200160608152602001606081525090565b508054600082556005029060005260206000209081019061288191906128c5565b50565b5b8082111561289d576000816000905550600101612885565b5090565b5b808211156128c157600081816128b89190612777565b506001016128a2565b5090565b5b8082111561292857600080820160006128df9190612777565b6001820160006128ef9190612777565b6002820160006128ff9190612777565b60038201600061290f9190612777565b60048201600061291f9190612777565b506005016128c6565b5090565b6000604051905090565b600080fd5b600080fd5b600080fd5b600080fd5b6000601f19601f8301169050919050565b7f4e487b7100000000000000000000000000000000000000000000000000000000600052604160045260246000fd5b6129938261294a565b810181811067ffffffffffffffff821117156129b2576129b161295b565b5b80604052505050565b60006129c561292c565b90506129d1828261298a565b919050565b600067ffffffffffffffff8211156129f1576129f061295b565b5b6129fa8261294a565b9050602081019050919050565b82818337600083830152505050565b6000612a29612a24846129d6565b6129bb565b905082815260208101848484011115612a4557612a44612945565b5b612a50848285612a07565b509392505050565b600082601f830112612a6d57612a6c612940565b5b8135612a7d848260208601612a16565b91505092915050565b600067ffffffffffffffff821115612aa157612aa061295b565b5b602082029050602081019050919050565b600080fd5b6000612aca612ac584612a86565b6129bb565b90508083825260208201905060208402830185811115612aed57612aec612ab2565b5b835b81811015612b3457803567ffffffffffffffff811115612b1257612b11612940565b5b808601612b1f8982612a58565b85526020850194505050602081019050612aef565b5050509392505050565b600082601f830112612b5357612b52612940565b5b8135612b63848260208601612ab7565b91505092915050565b600080600080600060a08688031215612b8857612b87612936565b5b600086013567ffffffffffffffff811115612ba657612ba561293b565b5b612bb288828901612a58565b955050602086013567ffffffffffffffff811115612bd357612bd261293b565b5b612bdf88828901612a58565b945050604086013567ffffffffffffffff811115612c0057612bff61293b565b5b612c0c88828901612a58565b935050606086013567ffffffffffffffff811115612c2d57612c2c61293b565b5b612c3988828901612a58565b925050608086013567ffffffffffffffff811115612c5a57612c5961293b565b5b612c6688828901612b3e565b9150509295509295909350565b60008060408385031215612c8a57612c89612936565b5b600083013567ffffffffffffffff811115612ca857612ca761293b565b5b612cb485828601612a58565b925050602083013567ffffffffffffffff811115612cd557612cd461293b565b5b612ce185828601612a58565b9150509250929050565b600080600060608486031215612d0457612d03612936565b5b600084013567ffffffffffffffff811115612d2257612d2161293b565b5b612d2e86828701612b3e565b935050602084013567ffffffffffffffff811115612d4f57612d4e61293b565b5b612d5b86828701612b3e565b925050604084013567ffffffffffffffff811115612d7c57612d7b61293b565b5b612d8886828701612b3e565b9150509250925092565b6000819050919050565b612da581612d92565b82525050565b6000602082019050612dc06000830184612d9c565b92915050565b600080600080600060a08688031215612de257612de1612936565b5b600086013567ffffffffffffffff811115612e0057612dff61293b565b5b612e0c88828901612a58565b955050602086013567ffffffffffffffff811115612e2d57612e2c61293b565b5b612e3988828901612a58565b945050604086013567ffffffffffffffff811115612e5a57612e5961293b565b5b612e6688828901612a58565b935050606086013567ffffffffffffffff811115612e8757612e8661293b565b5b612e9388828901612a58565b925050608086013567ffffffffffffffff811115612eb457612eb361293b565b5b612ec088828901612a58565b9150509295509295909350565b60008060408385031215612ee457612ee3612936565b5b600083013567ffffffffffffffff811115612f0257612f0161293b565b5b612f0e85828601612b3e565b925050602083013567ffffffffffffffff811115612f2f57612f2e61293b565b5b612f3b85828601612b3e565b9150509250929050565b60008060008060008060c08789031215612f6257612f61612936565b5b600087013567ffffffffffffffff811115612f8057612f7f61293b565b5b612f8c89828a01612a58565b965050602087013567ffffffffffffffff811115612fad57612fac61293b565b5b612fb989828a01612a58565b955050604087013567ffffffffffffffff811115612fda57612fd961293b565b5b612fe689828a01612a58565b945050606087013567ffffffffffffffff8111156130075761300661293b565b5b61301389828a01612a58565b935050608087013567ffffffffffffffff8111156130345761303361293b565b5b61304089828a01612a58565b92505060a087013567ffffffffffffffff8111156130615761306061293b565b5b61306d89828a01612a58565b9150509295509295509295565b600073ffffffffffffffffffffffffffffffffffffffff82169050919050565b60006130a58261307a565b9050919050565b6130b58161309a565b81146130c057600080fd5b50565b6000813590506130d2816130ac565b92915050565b6000602082840312156130ee576130ed612936565b5b60006130fc848285016130c3565b91505092915050565b600081519050919050565b600082825260208201905092915050565b60005b8381101561313f578082015181840152602081019050613124565b60008484015250505050565b600061315682613105565b6131608185613110565b9350613170818560208601613121565b6131798161294a565b840191505092915050565b61318d8161309a565b82525050565b61319c81612d92565b82525050565b60006101008301600083015184820360008601526131c0828261314b565b915050602083015184820360208601526131da828261314b565b91505060408301516131ef6040860182613184565b5060608301518482036060860152613207828261314b565b91505060808301518482036080860152613221828261314b565b91505060a083015184820360a086015261323b828261314b565b91505060c083015184820360c0860152613255828261314b565b91505060e083015161326a60e0860182613193565b508091505092915050565b600060c0830160008301518482036000860152613292828261314b565b915050602083015184820360208601526132ac828261314b565b915050604083015184820360408601526132c6828261314b565b915050606083015184820360608601526132e0828261314b565b915050608083015184820360808601526132fa828261314b565b91505060a083015184820360a0860152613314828261314b565b9150508091505092915050565b600081519050919050565b600082825260208201905092915050565b6000819050602082019050919050565b6000613359838361314b565b905092915050565b6000602082019050919050565b600061337982613321565b613383818561332c565b9350836020820285016133958561333d565b8060005b858110156133d157848403895281516133b2858261334d565b94506133bd83613361565b925060208a01995050600181019050613399565b50829750879550505050505092915050565b60006060830160008301518482036000860152613400828261336e565b9150506020830151848203602086015261341a828261336e565b91505060408301518482036040860152613434828261336e565b9150508091505092915050565b6000604083016000830151848203600086015261345e828261336e565b91505060208301518482036020860152613478828261336e565b9150508091505092915050565b600060a08301600083015184820360008601526134a2828261314b565b915050602083015184820360208601526134bc828261314b565b915050604083015184820360408601526134d6828261314b565b915050606083015184820360608601526134f0828261314b565b9150506080830151848203608086015261350a828261336e565b9150508091505092915050565b60006040830160008301518482036000860152613534828261314b565b9150506020830151848203602086015261354e828261314b565b9150508091505092915050565b600060c082019050818103600083015261357581896131a2565b905081810360208301526135898188613275565b9050818103604083015261359d81876133e3565b905081810360608301526135b18186613441565b905081810360808301526135c58185613485565b905081810360a08301526135d98184613517565b9050979650505050505050565b6135ef81612d92565b81146135fa57600080fd5b50565b60008135905061360c816135e6565b92915050565b60006020828403121561362857613627612936565b5b6000613636848285016135fd565b91505092915050565b600082825260208201905092915050565b600061365b82613105565b613665818561363f565b9350613675818560208601613121565b61367e8161294a565b840191505092915050565b600060a08201905081810360008301526136a38188613650565b905081810360208301526136b78187613650565b905081810360408301526136cb8186613650565b905081810360608301526136df8185613650565b905081810360808301526136f38184613650565b90509695505050505050565b7f4e487b7100000000000000000000000000000000000000000000000000000000600052602260045260246000fd5b6000600282049050600182168061374657607f821691505b602082108103613759576137586136ff565b5b50919050565b60008190508160005260206000209050919050565b60006020601f8301049050919050565b600082821b905092915050565b6000600883026137c17fffffffffffffffffffffffffffffffffffffffffffffffffffffffffffffffff82613784565b6137cb8683613784565b95508019841693508086168417925050509392505050565b6000819050919050565b60006138086138036137fe84612d92565b6137e3565b612d92565b9050919050565b6000819050919050565b613822836137ed565b61383661382e8261380f565b848454613791565b825550505050565b600090565b61384b61383e565b613856818484613819565b505050565b5b8181101561387a5761386f600082613843565b60018101905061385c565b5050565b601f8211156138bf576138908161375f565b61389984613774565b810160208510156138a8578190505b6138bc6138b485613774565b83018261385b565b50505b505050565b600082821c905092915050565b60006138e2600019846008026138c4565b1980831691505092915050565b60006138fb83836138d1565b9150826002028217905092915050565b61391482613105565b67ffffffffffffffff81111561392d5761392c61295b565b5b613937825461372e565b61394282828561387e565b600060209050601f8311600181146139755760008415613963578287015190505b61396d85826138ef565b8655506139d5565b601f1984166139838661375f565b60005b828110156139ab57848901518255600182019150602085019450602081019050613986565b868310156139c857848901516139c4601f8916826138d1565b8355505b6001600288020188555050505b505050505050565b7f4e487b7100000000000000000000000000000000000000000000000000000000600052603260045260246000fdfea26469706673582212200ad9504a05c5ed8054a13b24feb77ca091aa64162c87c63eda39b9cb255c88c964736f6c63430008100033",
					"opcodes": "PUSH1 0x80 PUSH1 0x40 MSTORE CALLVALUE DUP1 ISZERO PUSH2 0x10 JUMPI PUSH1 0x0 DUP1 REVERT JUMPDEST POP PUSH2 0x3A42 DUP1 PUSH2 0x20 PUSH1 0x0 CODECOPY PUSH1 0x0 RETURN INVALID PUSH1 0x80 PUSH1 0x40 MSTORE CALLVALUE DUP1 ISZERO PUSH2 0x10 JUMPI PUSH1 0x0 DUP1 REVERT JUMPDEST POP PUSH1 0x4 CALLDATASIZE LT PUSH2 0x10B JUMPI PUSH1 0x0 CALLDATALOAD PUSH1 0xE0 SHR DUP1 PUSH4 0x72828388 GT PUSH2 0xA2 JUMPI DUP1 PUSH4 0xB240C619 GT PUSH2 0x71 JUMPI DUP1 PUSH4 0xB240C619 EQ PUSH2 0x245 JUMPI DUP1 PUSH4 0xC9116B69 EQ PUSH2 0x24F JUMPI DUP1 PUSH4 0xED2217EF EQ PUSH2 0x26D JUMPI DUP1 PUSH4 0xF96E32F8 EQ PUSH2 0x277 JUMPI DUP1 PUSH4 0xFABCE08F EQ PUSH2 0x2AB JUMPI PUSH2 0x10B JUMP JUMPDEST DUP1 PUSH4 0x72828388 EQ PUSH2 0x1CE JUMPI DUP1 PUSH4 0x958791AE EQ PUSH2 0x1EA JUMPI DUP1 PUSH4 0x95EA3757 EQ PUSH2 0x206 JUMPI DUP1 PUSH4 0x9DD9D0FD EQ PUSH2 0x210 JUMPI PUSH2 0x10B JUMP JUMPDEST DUP1 PUSH4 0x4ED74067 GT PUSH2 0xDE JUMPI DUP1 PUSH4 0x4ED74067 EQ PUSH2 0x16E JUMPI DUP1 PUSH4 0x6212FA02 EQ PUSH2 0x178 JUMPI DUP1 PUSH4 0x66244DFB EQ PUSH2 0x196 JUMPI DUP1 PUSH4 0x6C2CC774 EQ PUSH2 0x1B2 JUMPI PUSH2 0x10B JUMP JUMPDEST DUP1 PUSH4 0x119D4CAC EQ PUSH2 0x110 JUMPI DUP1 PUSH4 0x2A70DA29 EQ PUSH2 0x11A JUMPI DUP1 PUSH4 0x322A9849 EQ PUSH2 0x136 JUMPI DUP1 PUSH4 0x3D984D0E EQ PUSH2 0x152 JUMPI JUMPDEST PUSH1 0x0 DUP1 REVERT JUMPDEST PUSH2 0x118 PUSH2 0x2B5 JUMP JUMPDEST STOP JUMPDEST PUSH2 0x134 PUSH1 0x4 DUP1 CALLDATASIZE SUB DUP2 ADD SWAP1 PUSH2 0x12F SWAP2 SWAP1 PUSH2 0x2B6C JUMP JUMPDEST PUSH2 0x31B JUMP JUMPDEST STOP JUMPDEST PUSH2 0x150 PUSH1 0x4 DUP1 CALLDATASIZE SUB DUP2 ADD SWAP1 PUSH2 0x14B SWAP2 SWAP1 PUSH2 0x2C73 JUMP JUMPDEST PUSH2 0x4C3 JUMP JUMPDEST STOP JUMPDEST PUSH2 0x16C PUSH1 0x4 DUP1 CALLDATASIZE SUB DUP2 ADD SWAP1 PUSH2 0x167 SWAP2 SWAP1 PUSH2 0x2CEB JUMP JUMPDEST PUSH2 0x56B JUMP JUMPDEST STOP JUMPDEST PUSH2 0x176 PUSH2 0x6EF JUMP JUMPDEST STOP JUMPDEST PUSH2 0x180 PUSH2 0x755 JUMP JUMPDEST PUSH1 0x40 MLOAD PUSH2 0x18D SWAP2 SWAP1 PUSH2 0x2DAB JUMP JUMPDEST PUSH1 0x40 MLOAD DUP1 SWAP2 SUB SWAP1 RETURN JUMPDEST PUSH2 0x1B0 PUSH1 0x4 DUP1 CALLDATASIZE SUB DUP2 ADD SWAP1 PUSH2 0x1AB SWAP2 SWAP1 PUSH2 0x2DC6 JUMP JUMPDEST PUSH2 0x7A1 JUMP JUMPDEST STOP JUMPDEST PUSH2 0x1CC PUSH1 0x4 DUP1 CALLDATASIZE SUB DUP2 ADD SWAP1 PUSH2 0x1C7 SWAP2 SWAP1 PUSH2 0x2ECD JUMP JUMPDEST PUSH2 0x8B9 JUMP JUMPDEST STOP JUMPDEST PUSH2 0x1E8 PUSH1 0x4 DUP1 CALLDATASIZE SUB DUP2 ADD SWAP1 PUSH2 0x1E3 SWAP2 SWAP1 PUSH2 0x2DC6 JUMP JUMPDEST PUSH2 0x96F JUMP JUMPDEST STOP JUMPDEST PUSH2 0x204 PUSH1 0x4 DUP1 CALLDATASIZE SUB DUP2 ADD SWAP1 PUSH2 0x1FF SWAP2 SWAP1 PUSH2 0x2F45 JUMP JUMPDEST PUSH2 0xBB4 JUMP JUMPDEST STOP JUMPDEST PUSH2 0x20E PUSH2 0xE74 JUMP JUMPDEST STOP JUMPDEST PUSH2 0x22A PUSH1 0x4 DUP1 CALLDATASIZE SUB DUP2 ADD SWAP1 PUSH2 0x225 SWAP2 SWAP1 PUSH2 0x30D8 JUMP JUMPDEST PUSH2 0xF49 JUMP JUMPDEST PUSH1 0x40 MLOAD PUSH2 0x23C SWAP7 SWAP6 SWAP5 SWAP4 SWAP3 SWAP2 SWAP1 PUSH2 0x355B JUMP JUMPDEST PUSH1 0x40 MLOAD DUP1 SWAP2 SUB SWAP1 RETURN JUMPDEST PUSH2 0x24D PUSH2 0x1F7C JUMP JUMPDEST STOP JUMPDEST PUSH2 0x257 PUSH2 0x2012 JUMP JUMPDEST PUSH1 0x40 MLOAD PUSH2 0x264 SWAP2 SWAP1 PUSH2 0x2DAB JUMP JUMPDEST PUSH1 0x40 MLOAD DUP1 SWAP2 SUB SWAP1 RETURN JUMPDEST PUSH2 0x275 PUSH2 0x2031 JUMP JUMPDEST STOP JUMPDEST PUSH2 0x291 PUSH1 0x4 DUP1 CALLDATASIZE SUB DUP2 ADD SWAP1 PUSH2 0x28C SWAP2 SWAP1 PUSH2 0x3612 JUMP JUMPDEST PUSH2 0x2080 JUMP JUMPDEST PUSH1 0x40 MLOAD PUSH2 0x2A2 SWAP6 SWAP5 SWAP4 SWAP3 SWAP2 SWAP1 PUSH2 0x3689 JUMP JUMPDEST PUSH1 0x40 MLOAD DUP1 SWAP2 SUB SWAP1 RETURN JUMPDEST PUSH2 0x2B3 PUSH2 0x254B JUMP JUMPDEST STOP JUMPDEST PUSH1 0x0 DUP1 CALLER PUSH20 0xFFFFFFFFFFFFFFFFFFFFFFFFFFFFFFFFFFFFFFFF AND PUSH20 0xFFFFFFFFFFFFFFFFFFFFFFFFFFFFFFFFFFFFFFFF AND DUP2 MSTORE PUSH1 0x20 ADD SWAP1 DUP2 MSTORE PUSH1 0x20 ADD PUSH1 0x0 KECCAK256 PUSH1 0x19 ADD PUSH1 0x0 DUP1 DUP3 ADD PUSH1 0x0 PUSH2 0x307 SWAP2 SWAP1 PUSH2 0x2777 JUMP JUMPDEST PUSH1 0x1 DUP3 ADD PUSH1 0x0 PUSH2 0x317 SWAP2 SWAP1 PUSH2 0x2777 JUMP JUMPDEST POP POP JUMP JUMPDEST DUP5 PUSH1 0x0 DUP1 CALLER PUSH20 0xFFFFFFFFFFFFFFFFFFFFFFFFFFFFFFFFFFFFFFFF AND PUSH20 0xFFFFFFFFFFFFFFFFFFFFFFFFFFFFFFFFFFFFFFFF AND DUP2 MSTORE PUSH1 0x20 ADD SWAP1 DUP2 MSTORE PUSH1 0x20 ADD PUSH1 0x0 KECCAK256 PUSH1 0x14 ADD PUSH1 0x0 ADD SWAP1 DUP2 PUSH2 0x36C SWAP2 SWAP1 PUSH2 0x390B JUMP JUMPDEST POP DUP4 PUSH1 0x0 DUP1 CALLER PUSH20 0xFFFFFFFFFFFFFFFFFFFFFFFFFFFFFFFFFFFFFFFF AND PUSH20 0xFFFFFFFFFFFFFFFFFFFFFFFFFFFFFFFFFFFFFFFF AND DUP2 MSTORE PUSH1 0x20 ADD SWAP1 DUP2 MSTORE PUSH1 0x20 ADD PUSH1 0x0 KECCAK256 PUSH1 0x14 ADD PUSH1 0x1 ADD SWAP1 DUP2 PUSH2 0x3BE SWAP2 SWAP1 PUSH2 0x390B JUMP JUMPDEST POP DUP3 PUSH1 0x0 DUP1 CALLER PUSH20 0xFFFFFFFFFFFFFFFFFFFFFFFFFFFFFFFFFFFFFFFF AND PUSH20 0xFFFFFFFFFFFFFFFFFFFFFFFFFFFFFFFFFFFFFFFF AND DUP2 MSTORE PUSH1 0x20 ADD SWAP1 DUP2 MSTORE PUSH1 0x20 ADD PUSH1 0x0 KECCAK256 PUSH1 0x14 ADD PUSH1 0x2 ADD SWAP1 DUP2 PUSH2 0x410 SWAP2 SWAP1 PUSH2 0x390B JUMP JUMPDEST POP DUP2 PUSH1 0x0 DUP1 CALLER PUSH20 0xFFFFFFFFFFFFFFFFFFFFFFFFFFFFFFFFFFFFFFFF AND PUSH20 0xFFFFFFFFFFFFFFFFFFFFFFFFFFFFFFFFFFFFFFFF AND DUP2 MSTORE PUSH1 0x20 ADD SWAP1 DUP2 MSTORE PUSH1 0x20 ADD PUSH1 0x0 KECCAK256 PUSH1 0x14 ADD PUSH1 0x3 ADD SWAP1 DUP2 PUSH2 0x462 SWAP2 SWAP1 PUSH2 0x390B JUMP JUMPDEST POP DUP1 PUSH1 0x0 DUP1 CALLER PUSH20 0xFFFFFFFFFFFFFFFFFFFFFFFFFFFFFFFFFFFFFFFF AND PUSH20 0xFFFFFFFFFFFFFFFFFFFFFFFFFFFFFFFFFFFFFFFF AND DUP2 MSTORE PUSH1 0x20 ADD SWAP1 DUP2 MSTORE PUSH1 0x20 ADD PUSH1 0x0 KECCAK256 PUSH1 0x14 ADD PUSH1 0x4 ADD SWAP1 DUP1 MLOAD SWAP1 PUSH1 0x20 ADD SWAP1 PUSH2 0x4BB SWAP3 SWAP2 SWAP1 PUSH2 0x27B7 JUMP JUMPDEST POP POP POP POP POP POP JUMP JUMPDEST DUP2 PUSH1 0x0 DUP1 CALLER PUSH20 0xFFFFFFFFFFFFFFFFFFFFFFFFFFFFFFFFFFFFFFFF AND PUSH20 0xFFFFFFFFFFFFFFFFFFFFFFFFFFFFFFFFFFFFFFFF AND DUP2 MSTORE PUSH1 0x20 ADD SWAP1 DUP2 MSTORE PUSH1 0x20 ADD PUSH1 0x0 KECCAK256 PUSH1 0x19 ADD PUSH1 0x0 ADD SWAP1 DUP2 PUSH2 0x514 SWAP2 SWAP1 PUSH2 0x390B JUMP JUMPDEST POP DUP1 PUSH1 0x0 DUP1 CALLER PUSH20 0xFFFFFFFFFFFFFFFFFFFFFFFFFFFFFFFFFFFFFFFF AND PUSH20 0xFFFFFFFFFFFFFFFFFFFFFFFFFFFFFFFFFFFFFFFF AND DUP2 MSTORE PUSH1 0x20 ADD SWAP1 DUP2 MSTORE PUSH1 0x20 ADD PUSH1 0x0 KECCAK256 PUSH1 0x19 ADD PUSH1 0x1 ADD SWAP1 DUP2 PUSH2 0x566 SWAP2 SWAP1 PUSH2 0x390B JUMP JUMPDEST POP POP POP JUMP JUMPDEST PUSH1 0x0 DUP1 CALLER PUSH20 0xFFFFFFFFFFFFFFFFFFFFFFFFFFFFFFFFFFFFFFFF AND PUSH20 0xFFFFFFFFFFFFFFFFFFFFFFFFFFFFFFFFFFFFFFFF AND DUP2 MSTORE PUSH1 0x20 ADD SWAP1 DUP2 MSTORE PUSH1 0x20 ADD PUSH1 0x0 KECCAK256 PUSH1 0xE ADD PUSH1 0x0 DUP1 DUP3 ADD PUSH1 0x0 PUSH2 0x5BD SWAP2 SWAP1 PUSH2 0x2810 JUMP JUMPDEST PUSH1 0x1 DUP3 ADD PUSH1 0x0 PUSH2 0x5CD SWAP2 SWAP1 PUSH2 0x2810 JUMP JUMPDEST PUSH1 0x2 DUP3 ADD PUSH1 0x0 PUSH2 0x5DD SWAP2 SWAP1 PUSH2 0x2810 JUMP JUMPDEST POP POP DUP3 PUSH1 0x0 DUP1 CALLER PUSH20 0xFFFFFFFFFFFFFFFFFFFFFFFFFFFFFFFFFFFFFFFF AND PUSH20 0xFFFFFFFFFFFFFFFFFFFFFFFFFFFFFFFFFFFFFFFF AND DUP2 MSTORE PUSH1 0x20 ADD SWAP1 DUP2 MSTORE PUSH1 0x20 ADD PUSH1 0x0 KECCAK256 PUSH1 0xE ADD PUSH1 0x0 ADD SWAP1 DUP1 MLOAD SWAP1 PUSH1 0x20 ADD SWAP1 PUSH2 0x637 SWAP3 SWAP2 SWAP1 PUSH2 0x27B7 JUMP JUMPDEST POP DUP2 PUSH1 0x0 DUP1 CALLER PUSH20 0xFFFFFFFFFFFFFFFFFFFFFFFFFFFFFFFFFFFFFFFF AND PUSH20 0xFFFFFFFFFFFFFFFFFFFFFFFFFFFFFFFFFFFFFFFF AND DUP2 MSTORE PUSH1 0x20 ADD SWAP1 DUP2 MSTORE PUSH1 0x20 ADD PUSH1 0x0 KECCAK256 PUSH1 0xE ADD PUSH1 0x1 ADD SWAP1 DUP1 MLOAD SWAP1 PUSH1 0x20 ADD SWAP1 PUSH2 0x690 SWAP3 SWAP2 SWAP1 PUSH2 0x27B7 JUMP JUMPDEST POP DUP1 PUSH1 0x0 DUP1 CALLER PUSH20 0xFFFFFFFFFFFFFFFFFFFFFFFFFFFFFFFFFFFFFFFF AND PUSH20 0xFFFFFFFFFFFFFFFFFFFFFFFFFFFFFFFFFFFFFFFF AND DUP2 MSTORE PUSH1 0x20 ADD SWAP1 DUP2 MSTORE PUSH1 0x20 ADD PUSH1 0x0 KECCAK256 PUSH1 0xE ADD PUSH1 0x2 ADD SWAP1 DUP1 MLOAD SWAP1 PUSH1 0x20 ADD SWAP1 PUSH2 0x6E9 SWAP3 SWAP2 SWAP1 PUSH2 0x27B7 JUMP JUMPDEST POP POP POP POP JUMP JUMPDEST PUSH1 0x0 DUP1 CALLER PUSH20 0xFFFFFFFFFFFFFFFFFFFFFFFFFFFFFFFFFFFFFFFF AND PUSH20 0xFFFFFFFFFFFFFFFFFFFFFFFFFFFFFFFFFFFFFFFF AND DUP2 MSTORE PUSH1 0x20 ADD SWAP1 DUP2 MSTORE PUSH1 0x20 ADD PUSH1 0x0 KECCAK256 PUSH1 0x12 ADD PUSH1 0x0 DUP1 DUP3 ADD PUSH1 0x0 PUSH2 0x741 SWAP2 SWAP1 PUSH2 0x2810 JUMP JUMPDEST PUSH1 0x1 DUP3 ADD PUSH1 0x0 PUSH2 0x751 SWAP2 SWAP1 PUSH2 0x2810 JUMP JUMPDEST POP POP JUMP JUMPDEST PUSH1 0x0 DUP1 PUSH1 0x0 CALLER PUSH20 0xFFFFFFFFFFFFFFFFFFFFFFFFFFFFFFFFFFFFFFFF AND PUSH20 0xFFFFFFFFFFFFFFFFFFFFFFFFFFFFFFFFFFFFFFFF AND DUP2 MSTORE PUSH1 0x20 ADD SWAP1 DUP2 MSTORE PUSH1 0x20 ADD PUSH1 0x0 KECCAK256 PUSH1 0x11 ADD DUP1 SLOAD SWAP1 POP SWAP1 POP SWAP1 JUMP JUMPDEST PUSH2 0x7A9 PUSH2 0x2831 JUMP JUMPDEST DUP6 DUP2 PUSH1 0x0 ADD DUP2 SWAP1 MSTORE POP DUP5 DUP2 PUSH1 0x20 ADD DUP2 SWAP1 MSTORE POP DUP4 DUP2 PUSH1 0x40 ADD DUP2 SWAP1 MSTORE POP DUP3 DUP2 PUSH1 0x60 ADD DUP2 SWAP1 MSTORE POP DUP2 DUP2 PUSH1 0x80 ADD DUP2 SWAP1 MSTORE POP PUSH1 0x0 DUP1 CALLER PUSH20 0xFFFFFFFFFFFFFFFFFFFFFFFFFFFFFFFFFFFFFFFF AND PUSH20 0xFFFFFFFFFFFFFFFFFFFFFFFFFFFFFFFFFFFFFFFF AND DUP2 MSTORE PUSH1 0x20 ADD SWAP1 DUP2 MSTORE PUSH1 0x20 ADD PUSH1 0x0 KECCAK256 PUSH1 0x11 ADD DUP2 SWAP1 DUP1 PUSH1 0x1 DUP2 SLOAD ADD DUP1 DUP3 SSTORE DUP1 SWAP2 POP POP PUSH1 0x1 SWAP1 SUB SWAP1 PUSH1 0x0 MSTORE PUSH1 0x20 PUSH1 0x0 KECCAK256 SWAP1 PUSH1 0x5 MUL ADD PUSH1 0x0 SWAP1 SWAP2 SWAP1 SWAP2 SWAP1 SWAP2 POP PUSH1 0x0 DUP3 ADD MLOAD DUP2 PUSH1 0x0 ADD SWAP1 DUP2 PUSH2 0x856 SWAP2 SWAP1 PUSH2 0x390B JUMP JUMPDEST POP PUSH1 0x20 DUP3 ADD MLOAD DUP2 PUSH1 0x1 ADD SWAP1 DUP2 PUSH2 0x86C SWAP2 SWAP1 PUSH2 0x390B JUMP JUMPDEST POP PUSH1 0x40 DUP3 ADD MLOAD DUP2 PUSH1 0x2 ADD SWAP1 DUP2 PUSH2 0x882 SWAP2 SWAP1 PUSH2 0x390B JUMP JUMPDEST POP PUSH1 0x60 DUP3 ADD MLOAD DUP2 PUSH1 0x3 ADD SWAP1 DUP2 PUSH2 0x898 SWAP2 SWAP1 PUSH2 0x390B JUMP JUMPDEST POP PUSH1 0x80 DUP3 ADD MLOAD DUP2 PUSH1 0x4 ADD SWAP1 DUP2 PUSH2 0x8AE SWAP2 SWAP1 PUSH2 0x390B JUMP JUMPDEST POP POP POP POP POP POP POP POP POP JUMP JUMPDEST DUP2 PUSH1 0x0 DUP1 CALLER PUSH20 0xFFFFFFFFFFFFFFFFFFFFFFFFFFFFFFFFFFFFFFFF AND PUSH20 0xFFFFFFFFFFFFFFFFFFFFFFFFFFFFFFFFFFFFFFFF AND DUP2 MSTORE PUSH1 0x20 ADD SWAP1 DUP2 MSTORE PUSH1 0x20 ADD PUSH1 0x0 KECCAK256 PUSH1 0x12 ADD PUSH1 0x1 ADD SWAP1 DUP1 MLOAD SWAP1 PUSH1 0x20 ADD SWAP1 PUSH2 0x911 SWAP3 SWAP2 SWAP1 PUSH2 0x27B7 JUMP JUMPDEST POP DUP1 PUSH1 0x0 DUP1 CALLER PUSH20 0xFFFFFFFFFFFFFFFFFFFFFFFFFFFFFFFFFFFFFFFF AND PUSH20 0xFFFFFFFFFFFFFFFFFFFFFFFFFFFFFFFFFFFFFFFF AND DUP2 MSTORE PUSH1 0x20 ADD SWAP1 DUP2 MSTORE PUSH1 0x20 ADD PUSH1 0x0 KECCAK256 PUSH1 0x12 ADD PUSH1 0x0 ADD SWAP1 DUP1 MLOAD SWAP1 PUSH1 0x20 ADD SWAP1 PUSH2 0x96A SWAP3 SWAP2 SWAP1 PUSH2 0x27B7 JUMP JUMPDEST POP POP POP JUMP JUMPDEST PUSH1 0x0 DUP1 CALLER PUSH20 0xFFFFFFFFFFFFFFFFFFFFFFFFFFFFFFFFFFFFFFFF AND PUSH20 0xFFFFFFFFFFFFFFFFFFFFFFFFFFFFFFFFFFFFFFFF AND DUP2 MSTORE PUSH1 0x20 ADD SWAP1 DUP2 MSTORE PUSH1 0x20 ADD PUSH1 0x0 KECCAK256 PUSH1 0x8 ADD PUSH1 0x0 DUP1 DUP3 ADD PUSH1 0x0 PUSH2 0x9C1 SWAP2 SWAP1 PUSH2 0x2777 JUMP JUMPDEST PUSH1 0x1 DUP3 ADD PUSH1 0x0 PUSH2 0x9D1 SWAP2 SWAP1 PUSH2 0x2777 JUMP JUMPDEST PUSH1 0x2 DUP3 ADD PUSH1 0x0 PUSH2 0x9E1 SWAP2 SWAP1 PUSH2 0x2777 JUMP JUMPDEST PUSH1 0x3 DUP3 ADD PUSH1 0x0 PUSH2 0x9F1 SWAP2 SWAP1 PUSH2 0x2777 JUMP JUMPDEST PUSH1 0x4 DUP3 ADD PUSH1 0x0 PUSH2 0xA01 SWAP2 SWAP1 PUSH2 0x2777 JUMP JUMPDEST PUSH1 0x5 DUP3 ADD PUSH1 0x0 PUSH2 0xA11 SWAP2 SWAP1 PUSH2 0x2777 JUMP JUMPDEST POP POP DUP5 PUSH1 0x0 DUP1 CALLER PUSH20 0xFFFFFFFFFFFFFFFFFFFFFFFFFFFFFFFFFFFFFFFF AND PUSH20 0xFFFFFFFFFFFFFFFFFFFFFFFFFFFFFFFFFFFFFFFF AND DUP2 MSTORE PUSH1 0x20 ADD SWAP1 DUP2 MSTORE PUSH1 0x20 ADD PUSH1 0x0 KECCAK256 PUSH1 0x8 ADD PUSH1 0x1 ADD SWAP1 DUP2 PUSH2 0xA64 SWAP2 SWAP1 PUSH2 0x390B JUMP JUMPDEST POP DUP4 PUSH1 0x0 DUP1 CALLER PUSH20 0xFFFFFFFFFFFFFFFFFFFFFFFFFFFFFFFFFFFFFFFF AND PUSH20 0xFFFFFFFFFFFFFFFFFFFFFFFFFFFFFFFFFFFFFFFF AND DUP2 MSTORE PUSH1 0x20 ADD SWAP1 DUP2 MSTORE PUSH1 0x20 ADD PUSH1 0x0 KECCAK256 PUSH1 0x8 ADD PUSH1 0x2 ADD SWAP1 DUP2 PUSH2 0xAB6 SWAP2 SWAP1 PUSH2 0x390B JUMP JUMPDEST POP DUP3 PUSH1 0x0 DUP1 CALLER PUSH20 0xFFFFFFFFFFFFFFFFFFFFFFFFFFFFFFFFFFFFFFFF AND PUSH20 0xFFFFFFFFFFFFFFFFFFFFFFFFFFFFFFFFFFFFFFFF AND DUP2 MSTORE PUSH1 0x20 ADD SWAP1 DUP2 MSTORE PUSH1 0x20 ADD PUSH1 0x0 KECCAK256 PUSH1 0x8 ADD PUSH1 0x3 ADD SWAP1 DUP2 PUSH2 0xB08 SWAP2 SWAP1 PUSH2 0x390B JUMP JUMPDEST POP DUP2 PUSH1 0x0 DUP1 CALLER PUSH20 0xFFFFFFFFFFFFFFFFFFFFFFFFFFFFFFFFFFFFFFFF AND PUSH20 0xFFFFFFFFFFFFFFFFFFFFFFFFFFFFFFFFFFFFFFFF AND DUP2 MSTORE PUSH1 0x20 ADD SWAP1 DUP2 MSTORE PUSH1 0x20 ADD PUSH1 0x0 KECCAK256 PUSH1 0x8 ADD PUSH1 0x2 ADD SWAP1 DUP2 PUSH2 0xB5A SWAP2 SWAP1 PUSH2 0x390B JUMP JUMPDEST POP DUP1 PUSH1 0x0 DUP1 CALLER PUSH20 0xFFFFFFFFFFFFFFFFFFFFFFFFFFFFFFFFFFFFFFFF AND PUSH20 0xFFFFFFFFFFFFFFFFFFFFFFFFFFFFFFFFFFFFFFFF AND DUP2 MSTORE PUSH1 0x20 ADD SWAP1 DUP2 MSTORE PUSH1 0x20 ADD PUSH1 0x0 KECCAK256 PUSH1 0x8 ADD PUSH1 0x1 ADD SWAP1 DUP2 PUSH2 0xBAC SWAP2 SWAP1 PUSH2 0x390B JUMP JUMPDEST POP POP POP POP POP POP JUMP JUMPDEST DUP6 PUSH1 0x0 DUP1 CALLER PUSH20 0xFFFFFFFFFFFFFFFFFFFFFFFFFFFFFFFFFFFFFFFF AND PUSH20 0xFFFFFFFFFFFFFFFFFFFFFFFFFFFFFFFFFFFFFFFF AND DUP2 MSTORE PUSH1 0x20 ADD SWAP1 DUP2 MSTORE PUSH1 0x20 ADD PUSH1 0x0 KECCAK256 PUSH1 0x0 ADD PUSH1 0x3 ADD SWAP1 DUP2 PUSH2 0xC05 SWAP2 SWAP1 PUSH2 0x390B JUMP JUMPDEST POP DUP5 PUSH1 0x0 DUP1 CALLER PUSH20 0xFFFFFFFFFFFFFFFFFFFFFFFFFFFFFFFFFFFFFFFF AND PUSH20 0xFFFFFFFFFFFFFFFFFFFFFFFFFFFFFFFFFFFFFFFF AND DUP2 MSTORE PUSH1 0x20 ADD SWAP1 DUP2 MSTORE PUSH1 0x20 ADD PUSH1 0x0 KECCAK256 PUSH1 0x0 ADD PUSH1 0x4 ADD SWAP1 DUP2 PUSH2 0xC57 SWAP2 SWAP1 PUSH2 0x390B JUMP JUMPDEST POP DUP4 PUSH1 0x0 DUP1 CALLER PUSH20 0xFFFFFFFFFFFFFFFFFFFFFFFFFFFFFFFFFFFFFFFF AND PUSH20 0xFFFFFFFFFFFFFFFFFFFFFFFFFFFFFFFFFFFFFFFF AND DUP2 MSTORE PUSH1 0x20 ADD SWAP1 DUP2 MSTORE PUSH1 0x20 ADD PUSH1 0x0 KECCAK256 PUSH1 0x0 ADD PUSH1 0x5 ADD SWAP1 DUP2 PUSH2 0xCA9 SWAP2 SWAP1 PUSH2 0x390B JUMP JUMPDEST POP DUP3 PUSH1 0x0 DUP1 CALLER PUSH20 0xFFFFFFFFFFFFFFFFFFFFFFFFFFFFFFFFFFFFFFFF AND PUSH20 0xFFFFFFFFFFFFFFFFFFFFFFFFFFFFFFFFFFFFFFFF AND DUP2 MSTORE PUSH1 0x20 ADD SWAP1 DUP2 MSTORE PUSH1 0x20 ADD PUSH1 0x0 KECCAK256 PUSH1 0x0 ADD PUSH1 0x6 ADD SWAP1 DUP2 PUSH2 0xCFB SWAP2 SWAP1 PUSH2 0x390B JUMP JUMPDEST POP DUP2 PUSH1 0x0 DUP1 CALLER PUSH20 0xFFFFFFFFFFFFFFFFFFFFFFFFFFFFFFFFFFFFFFFF AND PUSH20 0xFFFFFFFFFFFFFFFFFFFFFFFFFFFFFFFFFFFFFFFF AND DUP2 MSTORE PUSH1 0x20 ADD SWAP1 DUP2 MSTORE PUSH1 0x20 ADD PUSH1 0x0 KECCAK256 PUSH1 0x0 ADD PUSH1 0x0 ADD SWAP1 DUP2 PUSH2 0xD4D SWAP2 SWAP1 PUSH2 0x390B JUMP JUMPDEST POP DUP1 PUSH1 0x0 DUP1 CALLER PUSH20 0xFFFFFFFFFFFFFFFFFFFFFFFFFFFFFFFFFFFFFFFF AND PUSH20 0xFFFFFFFFFFFFFFFFFFFFFFFFFFFFFFFFFFFFFFFF AND DUP2 MSTORE PUSH1 0x20 ADD SWAP1 DUP2 MSTORE PUSH1 0x20 ADD PUSH1 0x0 KECCAK256 PUSH1 0x0 ADD PUSH1 0x1 ADD SWAP1 DUP2 PUSH2 0xD9F SWAP2 SWAP1 PUSH2 0x390B JUMP JUMPDEST POP CALLER PUSH1 0x0 DUP1 CALLER PUSH20 0xFFFFFFFFFFFFFFFFFFFFFFFFFFFFFFFFFFFFFFFF AND PUSH20 0xFFFFFFFFFFFFFFFFFFFFFFFFFFFFFFFFFFFFFFFF AND DUP2 MSTORE PUSH1 0x20 ADD SWAP1 DUP2 MSTORE PUSH1 0x20 ADD PUSH1 0x0 KECCAK256 PUSH1 0x0 ADD PUSH1 0x2 ADD PUSH1 0x0 PUSH2 0x100 EXP DUP2 SLOAD DUP2 PUSH20 0xFFFFFFFFFFFFFFFFFFFFFFFFFFFFFFFFFFFFFFFF MUL NOT AND SWAP1 DUP4 PUSH20 0xFFFFFFFFFFFFFFFFFFFFFFFFFFFFFFFFFFFFFFFF AND MUL OR SWAP1 SSTORE POP TIMESTAMP PUSH1 0x0 DUP1 CALLER PUSH20 0xFFFFFFFFFFFFFFFFFFFFFFFFFFFFFFFFFFFFFFFF AND PUSH20 0xFFFFFFFFFFFFFFFFFFFFFFFFFFFFFFFFFFFFFFFF AND DUP2 MSTORE PUSH1 0x20 ADD SWAP1 DUP2 MSTORE PUSH1 0x20 ADD PUSH1 0x0 KECCAK256 PUSH1 0x0 ADD PUSH1 0x7 ADD DUP2 SWAP1 SSTORE POP POP POP POP POP POP POP JUMP JUMPDEST PUSH1 0x0 DUP1 CALLER PUSH20 0xFFFFFFFFFFFFFFFFFFFFFFFFFFFFFFFFFFFFFFFF AND PUSH20 0xFFFFFFFFFFFFFFFFFFFFFFFFFFFFFFFFFFFFFFFF AND DUP2 MSTORE PUSH1 0x20 ADD SWAP1 DUP2 MSTORE PUSH1 0x20 ADD PUSH1 0x0 KECCAK256 PUSH1 0x0 ADD PUSH1 0x0 DUP1 DUP3 ADD PUSH1 0x0 PUSH2 0xEC6 SWAP2 SWAP1 PUSH2 0x2777 JUMP JUMPDEST PUSH1 0x1 DUP3 ADD PUSH1 0x0 PUSH2 0xED6 SWAP2 SWAP1 PUSH2 0x2777 JUMP JUMPDEST PUSH1 0x2 DUP3 ADD PUSH1 0x0 PUSH2 0x100 EXP DUP2 SLOAD SWAP1 PUSH20 0xFFFFFFFFFFFFFFFFFFFFFFFFFFFFFFFFFFFFFFFF MUL NOT AND SWAP1 SSTORE PUSH1 0x3 DUP3 ADD PUSH1 0x0 PUSH2 0xF0D SWAP2 SWAP1 PUSH2 0x2777 JUMP JUMPDEST PUSH1 0x4 DUP3 ADD PUSH1 0x0 PUSH2 0xF1D SWAP2 SWAP1 PUSH2 0x2777 JUMP JUMPDEST PUSH1 0x5 DUP3 ADD PUSH1 0x0 PUSH2 0xF2D SWAP2 SWAP1 PUSH2 0x2777 JUMP JUMPDEST PUSH1 0x6 DUP3 ADD PUSH1 0x0 PUSH2 0xF3D SWAP2 SWAP1 PUSH2 0x2777 JUMP JUMPDEST PUSH1 0x7 DUP3 ADD PUSH1 0x0 SWAP1 SSTORE POP POP JUMP JUMPDEST PUSH1 0x0 PUSH1 0x20 MSTORE DUP1 PUSH1 0x0 MSTORE PUSH1 0x40 PUSH1 0x0 KECCAK256 PUSH1 0x0 SWAP2 POP SWAP1 POP DUP1 PUSH1 0x0 ADD PUSH1 0x40 MLOAD DUP1 PUSH2 0x100 ADD PUSH1 0x40 MSTORE SWAP1 DUP2 PUSH1 0x0 DUP3 ADD DUP1 SLOAD PUSH2 0xF7D SWAP1 PUSH2 0x372E JUMP JUMPDEST DUP1 PUSH1 0x1F ADD PUSH1 0x20 DUP1 SWAP2 DIV MUL PUSH1 0x20 ADD PUSH1 0x40 MLOAD SWAP1 DUP2 ADD PUSH1 0x40 MSTORE DUP1 SWAP3 SWAP2 SWAP1 DUP2 DUP2 MSTORE PUSH1 0x20 ADD DUP3 DUP1 SLOAD PUSH2 0xFA9 SWAP1 PUSH2 0x372E JUMP JUMPDEST DUP1 ISZERO PUSH2 0xFF6 JUMPI DUP1 PUSH1 0x1F LT PUSH2 0xFCB JUMPI PUSH2 0x100 DUP1 DUP4 SLOAD DIV MUL DUP4 MSTORE SWAP2 PUSH1 0x20 ADD SWAP2 PUSH2 0xFF6 JUMP JUMPDEST DUP3 ADD SWAP2 SWAP1 PUSH1 0x0 MSTORE PUSH1 0x20 PUSH1 0x0 KECCAK256 SWAP1 JUMPDEST DUP2 SLOAD DUP2 MSTORE SWAP1 PUSH1 0x1 ADD SWAP1 PUSH1 0x20 ADD DUP1 DUP4 GT PUSH2 0xFD9 JUMPI DUP3 SWAP1 SUB PUSH1 0x1F AND DUP3 ADD SWAP2 JUMPDEST POP POP POP POP POP DUP2 MSTORE PUSH1 0x20 ADD PUSH1 0x1 DUP3 ADD DUP1 SLOAD PUSH2 0x100F SWAP1 PUSH2 0x372E JUMP JUMPDEST DUP1 PUSH1 0x1F ADD PUSH1 0x20 DUP1 SWAP2 DIV MUL PUSH1 0x20 ADD PUSH1 0x40 MLOAD SWAP1 DUP2 ADD PUSH1 0x40 MSTORE DUP1 SWAP3 SWAP2 SWAP1 DUP2 DUP2 MSTORE PUSH1 0x20 ADD DUP3 DUP1 SLOAD PUSH2 0x103B SWAP1 PUSH2 0x372E JUMP JUMPDEST DUP1 ISZERO PUSH2 0x1088 JUMPI DUP1 PUSH1 0x1F LT PUSH2 0x105D JUMPI PUSH2 0x100 DUP1 DUP4 SLOAD DIV MUL DUP4 MSTORE SWAP2 PUSH1 0x20 ADD SWAP2 PUSH2 0x1088 JUMP JUMPDEST DUP3 ADD SWAP2 SWAP1 PUSH1 0x0 MSTORE PUSH1 0x20 PUSH1 0x0 KECCAK256 SWAP1 JUMPDEST DUP2 SLOAD DUP2 MSTORE SWAP1 PUSH1 0x1 ADD SWAP1 PUSH1 0x20 ADD DUP1 DUP4 GT PUSH2 0x106B JUMPI DUP3 SWAP1 SUB PUSH1 0x1F AND DUP3 ADD SWAP2 JUMPDEST POP POP POP POP POP DUP2 MSTORE PUSH1 0x20 ADD PUSH1 0x2 DUP3 ADD PUSH1 0x0 SWAP1 SLOAD SWAP1 PUSH2 0x100 EXP SWAP1 DIV PUSH20 0xFFFFFFFFFFFFFFFFFFFFFFFFFFFFFFFFFFFFFFFF AND PUSH20 0xFFFFFFFFFFFFFFFFFFFFFFFFFFFFFFFFFFFFFFFF AND PUSH20 0xFFFFFFFFFFFFFFFFFFFFFFFFFFFFFFFFFFFFFFFF AND DUP2 MSTORE PUSH1 0x20 ADD PUSH1 0x3 DUP3 ADD DUP1 SLOAD PUSH2 0x10F7 SWAP1 PUSH2 0x372E JUMP JUMPDEST DUP1 PUSH1 0x1F ADD PUSH1 0x20 DUP1 SWAP2 DIV MUL PUSH1 0x20 ADD PUSH1 0x40 MLOAD SWAP1 DUP2 ADD PUSH1 0x40 MSTORE DUP1 SWAP3 SWAP2 SWAP1 DUP2 DUP2 MSTORE PUSH1 0x20 ADD DUP3 DUP1 SLOAD PUSH2 0x1123 SWAP1 PUSH2 0x372E JUMP JUMPDEST DUP1 ISZERO PUSH2 0x1170 JUMPI DUP1 PUSH1 0x1F LT PUSH2 0x1145 JUMPI PUSH2 0x100 DUP1 DUP4 SLOAD DIV MUL DUP4 MSTORE SWAP2 PUSH1 0x20 ADD SWAP2 PUSH2 0x1170 JUMP JUMPDEST DUP3 ADD SWAP2 SWAP1 PUSH1 0x0 MSTORE PUSH1 0x20 PUSH1 0x0 KECCAK256 SWAP1 JUMPDEST DUP2 SLOAD DUP2 MSTORE SWAP1 PUSH1 0x1 ADD SWAP1 PUSH1 0x20 ADD DUP1 DUP4 GT PUSH2 0x1153 JUMPI DUP3 SWAP1 SUB PUSH1 0x1F AND DUP3 ADD SWAP2 JUMPDEST POP POP POP POP POP DUP2 MSTORE PUSH1 0x20 ADD PUSH1 0x4 DUP3 ADD DUP1 SLOAD PUSH2 0x1189 SWAP1 PUSH2 0x372E JUMP JUMPDEST DUP1 PUSH1 0x1F ADD PUSH1 0x20 DUP1 SWAP2 DIV MUL PUSH1 0x20 ADD PUSH1 0x40 MLOAD SWAP1 DUP2 ADD PUSH1 0x40 MSTORE DUP1 SWAP3 SWAP2 SWAP1 DUP2 DUP2 MSTORE PUSH1 0x20 ADD DUP3 DUP1 SLOAD PUSH2 0x11B5 SWAP1 PUSH2 0x372E JUMP JUMPDEST DUP1 ISZERO PUSH2 0x1202 JUMPI DUP1 PUSH1 0x1F LT PUSH2 0x11D7 JUMPI PUSH2 0x100 DUP1 DUP4 SLOAD DIV MUL DUP4 MSTORE SWAP2 PUSH1 0x20 ADD SWAP2 PUSH2 0x1202 JUMP JUMPDEST DUP3 ADD SWAP2 SWAP1 PUSH1 0x0 MSTORE PUSH1 0x20 PUSH1 0x0 KECCAK256 SWAP1 JUMPDEST DUP2 SLOAD DUP2 MSTORE SWAP1 PUSH1 0x1 ADD SWAP1 PUSH1 0x20 ADD DUP1 DUP4 GT PUSH2 0x11E5 JUMPI DUP3 SWAP1 SUB PUSH1 0x1F AND DUP3 ADD SWAP2 JUMPDEST POP POP POP POP POP DUP2 MSTORE PUSH1 0x20 ADD PUSH1 0x5 DUP3 ADD DUP1 SLOAD PUSH2 0x121B SWAP1 PUSH2 0x372E JUMP JUMPDEST DUP1 PUSH1 0x1F ADD PUSH1 0x20 DUP1 SWAP2 DIV MUL PUSH1 0x20 ADD PUSH1 0x40 MLOAD SWAP1 DUP2 ADD PUSH1 0x40 MSTORE DUP1 SWAP3 SWAP2 SWAP1 DUP2 DUP2 MSTORE PUSH1 0x20 ADD DUP3 DUP1 SLOAD PUSH2 0x1247 SWAP1 PUSH2 0x372E JUMP JUMPDEST DUP1 ISZERO PUSH2 0x1294 JUMPI DUP1 PUSH1 0x1F LT PUSH2 0x1269 JUMPI PUSH2 0x100 DUP1 DUP4 SLOAD DIV MUL DUP4 MSTORE SWAP2 PUSH1 0x20 ADD SWAP2 PUSH2 0x1294 JUMP JUMPDEST DUP3 ADD SWAP2 SWAP1 PUSH1 0x0 MSTORE PUSH1 0x20 PUSH1 0x0 KECCAK256 SWAP1 JUMPDEST DUP2 SLOAD DUP2 MSTORE SWAP1 PUSH1 0x1 ADD SWAP1 PUSH1 0x20 ADD DUP1 DUP4 GT PUSH2 0x1277 JUMPI DUP3 SWAP1 SUB PUSH1 0x1F AND DUP3 ADD SWAP2 JUMPDEST POP POP POP POP POP DUP2 MSTORE PUSH1 0x20 ADD PUSH1 0x6 DUP3 ADD DUP1 SLOAD PUSH2 0x12AD SWAP1 PUSH2 0x372E JUMP JUMPDEST DUP1 PUSH1 0x1F ADD PUSH1 0x20 DUP1 SWAP2 DIV MUL PUSH1 0x20 ADD PUSH1 0x40 MLOAD SWAP1 DUP2 ADD PUSH1 0x40 MSTORE DUP1 SWAP3 SWAP2 SWAP1 DUP2 DUP2 MSTORE PUSH1 0x20 ADD DUP3 DUP1 SLOAD PUSH2 0x12D9 SWAP1 PUSH2 0x372E JUMP JUMPDEST DUP1 ISZERO PUSH2 0x1326 JUMPI DUP1 PUSH1 0x1F LT PUSH2 0x12FB JUMPI PUSH2 0x100 DUP1 DUP4 SLOAD DIV MUL DUP4 MSTORE SWAP2 PUSH1 0x20 ADD SWAP2 PUSH2 0x1326 JUMP JUMPDEST DUP3 ADD SWAP2 SWAP1 PUSH1 0x0 MSTORE PUSH1 0x20 PUSH1 0x0 KECCAK256 SWAP1 JUMPDEST DUP2 SLOAD DUP2 MSTORE SWAP1 PUSH1 0x1 ADD SWAP1 PUSH1 0x20 ADD DUP1 DUP4 GT PUSH2 0x1309 JUMPI DUP3 SWAP1 SUB PUSH1 0x1F AND DUP3 ADD SWAP2 JUMPDEST POP POP POP POP POP DUP2 MSTORE PUSH1 0x20 ADD PUSH1 0x7 DUP3 ADD SLOAD DUP2 MSTORE POP POP SWAP1 DUP1 PUSH1 0x8 ADD PUSH1 0x40 MLOAD DUP1 PUSH1 0xC0 ADD PUSH1 0x40 MSTORE SWAP1 DUP2 PUSH1 0x0 DUP3 ADD DUP1 SLOAD PUSH2 0x1359 SWAP1 PUSH2 0x372E JUMP JUMPDEST DUP1 PUSH1 0x1F ADD PUSH1 0x20 DUP1 SWAP2 DIV MUL PUSH1 0x20 ADD PUSH1 0x40 MLOAD SWAP1 DUP2 ADD PUSH1 0x40 MSTORE DUP1 SWAP3 SWAP2 SWAP1 DUP2 DUP2 MSTORE PUSH1 0x20 ADD DUP3 DUP1 SLOAD PUSH2 0x1385 SWAP1 PUSH2 0x372E JUMP JUMPDEST DUP1 ISZERO PUSH2 0x13D2 JUMPI DUP1 PUSH1 0x1F LT PUSH2 0x13A7 JUMPI PUSH2 0x100 DUP1 DUP4 SLOAD DIV MUL DUP4 MSTORE SWAP2 PUSH1 0x20 ADD SWAP2 PUSH2 0x13D2 JUMP JUMPDEST DUP3 ADD SWAP2 SWAP1 PUSH1 0x0 MSTORE PUSH1 0x20 PUSH1 0x0 KECCAK256 SWAP1 JUMPDEST DUP2 SLOAD DUP2 MSTORE SWAP1 PUSH1 0x1 ADD SWAP1 PUSH1 0x20 ADD DUP1 DUP4 GT PUSH2 0x13B5 JUMPI DUP3 SWAP1 SUB PUSH1 0x1F AND DUP3 ADD SWAP2 JUMPDEST POP POP POP POP POP DUP2 MSTORE PUSH1 0x20 ADD PUSH1 0x1 DUP3 ADD DUP1 SLOAD PUSH2 0x13EB SWAP1 PUSH2 0x372E JUMP JUMPDEST DUP1 PUSH1 0x1F ADD PUSH1 0x20 DUP1 SWAP2 DIV MUL PUSH1 0x20 ADD PUSH1 0x40 MLOAD SWAP1 DUP2 ADD PUSH1 0x40 MSTORE DUP1 SWAP3 SWAP2 SWAP1 DUP2 DUP2 MSTORE PUSH1 0x20 ADD DUP3 DUP1 SLOAD PUSH2 0x1417 SWAP1 PUSH2 0x372E JUMP JUMPDEST DUP1 ISZERO PUSH2 0x1464 JUMPI DUP1 PUSH1 0x1F LT PUSH2 0x1439 JUMPI PUSH2 0x100 DUP1 DUP4 SLOAD DIV MUL DUP4 MSTORE SWAP2 PUSH1 0x20 ADD SWAP2 PUSH2 0x1464 JUMP JUMPDEST DUP3 ADD SWAP2 SWAP1 PUSH1 0x0 MSTORE PUSH1 0x20 PUSH1 0x0 KECCAK256 SWAP1 JUMPDEST DUP2 SLOAD DUP2 MSTORE SWAP1 PUSH1 0x1 ADD SWAP1 PUSH1 0x20 ADD DUP1 DUP4 GT PUSH2 0x1447 JUMPI DUP3 SWAP1 SUB PUSH1 0x1F AND DUP3 ADD SWAP2 JUMPDEST POP POP POP POP POP DUP2 MSTORE PUSH1 0x20 ADD PUSH1 0x2 DUP3 ADD DUP1 SLOAD PUSH2 0x147D SWAP1 PUSH2 0x372E JUMP JUMPDEST DUP1 PUSH1 0x1F ADD PUSH1 0x20 DUP1 SWAP2 DIV MUL PUSH1 0x20 ADD PUSH1 0x40 MLOAD SWAP1 DUP2 ADD PUSH1 0x40 MSTORE DUP1 SWAP3 SWAP2 SWAP1 DUP2 DUP2 MSTORE PUSH1 0x20 ADD DUP3 DUP1 SLOAD PUSH2 0x14A9 SWAP1 PUSH2 0x372E JUMP JUMPDEST DUP1 ISZERO PUSH2 0x14F6 JUMPI DUP1 PUSH1 0x1F LT PUSH2 0x14CB JUMPI PUSH2 0x100 DUP1 DUP4 SLOAD DIV MUL DUP4 MSTORE SWAP2 PUSH1 0x20 ADD SWAP2 PUSH2 0x14F6 JUMP JUMPDEST DUP3 ADD SWAP2 SWAP1 PUSH1 0x0 MSTORE PUSH1 0x20 PUSH1 0x0 KECCAK256 SWAP1 JUMPDEST DUP2 SLOAD DUP2 MSTORE SWAP1 PUSH1 0x1 ADD SWAP1 PUSH1 0x20 ADD DUP1 DUP4 GT PUSH2 0x14D9 JUMPI DUP3 SWAP1 SUB PUSH1 0x1F AND DUP3 ADD SWAP2 JUMPDEST POP POP POP POP POP DUP2 MSTORE PUSH1 0x20 ADD PUSH1 0x3 DUP3 ADD DUP1 SLOAD PUSH2 0x150F SWAP1 PUSH2 0x372E JUMP JUMPDEST DUP1 PUSH1 0x1F ADD PUSH1 0x20 DUP1 SWAP2 DIV MUL PUSH1 0x20 ADD PUSH1 0x40 MLOAD SWAP1 DUP2 ADD PUSH1 0x40 MSTORE DUP1 SWAP3 SWAP2 SWAP1 DUP2 DUP2 MSTORE PUSH1 0x20 ADD DUP3 DUP1 SLOAD PUSH2 0x153B SWAP1 PUSH2 0x372E JUMP JUMPDEST DUP1 ISZERO PUSH2 0x1588 JUMPI DUP1 PUSH1 0x1F LT PUSH2 0x155D JUMPI PUSH2 0x100 DUP1 DUP4 SLOAD DIV MUL DUP4 MSTORE SWAP2 PUSH1 0x20 ADD SWAP2 PUSH2 0x1588 JUMP JUMPDEST DUP3 ADD SWAP2 SWAP1 PUSH1 0x0 MSTORE PUSH1 0x20 PUSH1 0x0 KECCAK256 SWAP1 JUMPDEST DUP2 SLOAD DUP2 MSTORE SWAP1 PUSH1 0x1 ADD SWAP1 PUSH1 0x20 ADD DUP1 DUP4 GT PUSH2 0x156B JUMPI DUP3 SWAP1 SUB PUSH1 0x1F AND DUP3 ADD SWAP2 JUMPDEST POP POP POP POP POP DUP2 MSTORE PUSH1 0x20 ADD PUSH1 0x4 DUP3 ADD DUP1 SLOAD PUSH2 0x15A1 SWAP1 PUSH2 0x372E JUMP JUMPDEST DUP1 PUSH1 0x1F ADD PUSH1 0x20 DUP1 SWAP2 DIV MUL PUSH1 0x20 ADD PUSH1 0x40 MLOAD SWAP1 DUP2 ADD PUSH1 0x40 MSTORE DUP1 SWAP3 SWAP2 SWAP1 DUP2 DUP2 MSTORE PUSH1 0x20 ADD DUP3 DUP1 SLOAD PUSH2 0x15CD SWAP1 PUSH2 0x372E JUMP JUMPDEST DUP1 ISZERO PUSH2 0x161A JUMPI DUP1 PUSH1 0x1F LT PUSH2 0x15EF JUMPI PUSH2 0x100 DUP1 DUP4 SLOAD DIV MUL DUP4 MSTORE SWAP2 PUSH1 0x20 ADD SWAP2 PUSH2 0x161A JUMP JUMPDEST DUP3 ADD SWAP2 SWAP1 PUSH1 0x0 MSTORE PUSH1 0x20 PUSH1 0x0 KECCAK256 SWAP1 JUMPDEST DUP2 SLOAD DUP2 MSTORE SWAP1 PUSH1 0x1 ADD SWAP1 PUSH1 0x20 ADD DUP1 DUP4 GT PUSH2 0x15FD JUMPI DUP3 SWAP1 SUB PUSH1 0x1F AND DUP3 ADD SWAP2 JUMPDEST POP POP POP POP POP DUP2 MSTORE PUSH1 0x20 ADD PUSH1 0x5 DUP3 ADD DUP1 SLOAD PUSH2 0x1633 SWAP1 PUSH2 0x372E JUMP JUMPDEST DUP1 PUSH1 0x1F ADD PUSH1 0x20 DUP1 SWAP2 DIV MUL PUSH1 0x20 ADD PUSH1 0x40 MLOAD SWAP1 DUP2 ADD PUSH1 0x40 MSTORE DUP1 SWAP3 SWAP2 SWAP1 DUP2 DUP2 MSTORE PUSH1 0x20 ADD DUP3 DUP1 SLOAD PUSH2 0x165F SWAP1 PUSH2 0x372E JUMP JUMPDEST DUP1 ISZERO PUSH2 0x16AC JUMPI DUP1 PUSH1 0x1F LT PUSH2 0x1681 JUMPI PUSH2 0x100 DUP1 DUP4 SLOAD DIV MUL DUP4 MSTORE SWAP2 PUSH1 0x20 ADD SWAP2 PUSH2 0x16AC JUMP JUMPDEST DUP3 ADD SWAP2 SWAP1 PUSH1 0x0 MSTORE PUSH1 0x20 PUSH1 0x0 KECCAK256 SWAP1 JUMPDEST DUP2 SLOAD DUP2 MSTORE SWAP1 PUSH1 0x1 ADD SWAP1 PUSH1 0x20 ADD DUP1 DUP4 GT PUSH2 0x168F JUMPI DUP3 SWAP1 SUB PUSH1 0x1F AND DUP3 ADD SWAP2 JUMPDEST POP POP POP POP POP DUP2 MSTORE POP POP SWAP1 DUP1 PUSH1 0xE ADD PUSH1 0x40 MLOAD DUP1 PUSH1 0x60 ADD PUSH1 0x40 MSTORE SWAP1 DUP2 PUSH1 0x0 DUP3 ADD DUP1 SLOAD DUP1 PUSH1 0x20 MUL PUSH1 0x20 ADD PUSH1 0x40 MLOAD SWAP1 DUP2 ADD PUSH1 0x40 MSTORE DUP1 SWAP3 SWAP2 SWAP1 DUP2 DUP2 MSTORE PUSH1 0x20 ADD PUSH1 0x0 SWAP1 JUMPDEST DUP3 DUP3 LT ISZERO PUSH2 0x1796 JUMPI DUP4 DUP3 SWAP1 PUSH1 0x0 MSTORE PUSH1 0x20 PUSH1 0x0 KECCAK256 ADD DUP1 SLOAD PUSH2 0x1709 SWAP1 PUSH2 0x372E JUMP JUMPDEST DUP1 PUSH1 0x1F ADD PUSH1 0x20 DUP1 SWAP2 DIV MUL PUSH1 0x20 ADD PUSH1 0x40 MLOAD SWAP1 DUP2 ADD PUSH1 0x40 MSTORE DUP1 SWAP3 SWAP2 SWAP1 DUP2 DUP2 MSTORE PUSH1 0x20 ADD DUP3 DUP1 SLOAD PUSH2 0x1735 SWAP1 PUSH2 0x372E JUMP JUMPDEST DUP1 ISZERO PUSH2 0x1782 JUMPI DUP1 PUSH1 0x1F LT PUSH2 0x1757 JUMPI PUSH2 0x100 DUP1 DUP4 SLOAD DIV MUL DUP4 MSTORE SWAP2 PUSH1 0x20 ADD SWAP2 PUSH2 0x1782 JUMP JUMPDEST DUP3 ADD SWAP2 SWAP1 PUSH1 0x0 MSTORE PUSH1 0x20 PUSH1 0x0 KECCAK256 SWAP1 JUMPDEST DUP2 SLOAD DUP2 MSTORE SWAP1 PUSH1 0x1 ADD SWAP1 PUSH1 0x20 ADD DUP1 DUP4 GT PUSH2 0x1765 JUMPI DUP3 SWAP1 SUB PUSH1 0x1F AND DUP3 ADD SWAP2 JUMPDEST POP POP POP POP POP DUP2 MSTORE PUSH1 0x20 ADD SWAP1 PUSH1 0x1 ADD SWAP1 PUSH2 0x16EA JUMP JUMPDEST POP POP POP POP DUP2 MSTORE PUSH1 0x20 ADD PUSH1 0x1 DUP3 ADD DUP1 SLOAD DUP1 PUSH1 0x20 MUL PUSH1 0x20 ADD PUSH1 0x40 MLOAD SWAP1 DUP2 ADD PUSH1 0x40 MSTORE DUP1 SWAP3 SWAP2 SWAP1 DUP2 DUP2 MSTORE PUSH1 0x20 ADD PUSH1 0x0 SWAP1 JUMPDEST DUP3 DUP3 LT ISZERO PUSH2 0x186F JUMPI DUP4 DUP3 SWAP1 PUSH1 0x0 MSTORE PUSH1 0x20 PUSH1 0x0 KECCAK256 ADD DUP1 SLOAD PUSH2 0x17E2 SWAP1 PUSH2 0x372E JUMP JUMPDEST DUP1 PUSH1 0x1F ADD PUSH1 0x20 DUP1 SWAP2 DIV MUL PUSH1 0x20 ADD PUSH1 0x40 MLOAD SWAP1 DUP2 ADD PUSH1 0x40 MSTORE DUP1 SWAP3 SWAP2 SWAP1 DUP2 DUP2 MSTORE PUSH1 0x20 ADD DUP3 DUP1 SLOAD PUSH2 0x180E SWAP1 PUSH2 0x372E JUMP JUMPDEST DUP1 ISZERO PUSH2 0x185B JUMPI DUP1 PUSH1 0x1F LT PUSH2 0x1830 JUMPI PUSH2 0x100 DUP1 DUP4 SLOAD DIV MUL DUP4 MSTORE SWAP2 PUSH1 0x20 ADD SWAP2 PUSH2 0x185B JUMP JUMPDEST DUP3 ADD SWAP2 SWAP1 PUSH1 0x0 MSTORE PUSH1 0x20 PUSH1 0x0 KECCAK256 SWAP1 JUMPDEST DUP2 SLOAD DUP2 MSTORE SWAP1 PUSH1 0x1 ADD SWAP1 PUSH1 0x20 ADD DUP1 DUP4 GT PUSH2 0x183E JUMPI DUP3 SWAP1 SUB PUSH1 0x1F AND DUP3 ADD SWAP2 JUMPDEST POP POP POP POP POP DUP2 MSTORE PUSH1 0x20 ADD SWAP1 PUSH1 0x1 ADD SWAP1 PUSH2 0x17C3 JUMP JUMPDEST POP POP POP POP DUP2 MSTORE PUSH1 0x20 ADD PUSH1 0x2 DUP3 ADD DUP1 SLOAD DUP1 PUSH1 0x20 MUL PUSH1 0x20 ADD PUSH1 0x40 MLOAD SWAP1 DUP2 ADD PUSH1 0x40 MSTORE DUP1 SWAP3 SWAP2 SWAP1 DUP2 DUP2 MSTORE PUSH1 0x20 ADD PUSH1 0x0 SWAP1 JUMPDEST DUP3 DUP3 LT ISZERO PUSH2 0x1948 JUMPI DUP4 DUP3 SWAP1 PUSH1 0x0 MSTORE PUSH1 0x20 PUSH1 0x0 KECCAK256 ADD DUP1 SLOAD PUSH2 0x18BB SWAP1 PUSH2 0x372E JUMP JUMPDEST DUP1 PUSH1 0x1F ADD PUSH1 0x20 DUP1 SWAP2 DIV MUL PUSH1 0x20 ADD PUSH1 0x40 MLOAD SWAP1 DUP2 ADD PUSH1 0x40 MSTORE DUP1 SWAP3 SWAP2 SWAP1 DUP2 DUP2 MSTORE PUSH1 0x20 ADD DUP3 DUP1 SLOAD PUSH2 0x18E7 SWAP1 PUSH2 0x372E JUMP JUMPDEST DUP1 ISZERO PUSH2 0x1934 JUMPI DUP1 PUSH1 0x1F LT PUSH2 0x1909 JUMPI PUSH2 0x100 DUP1 DUP4 SLOAD DIV MUL DUP4 MSTORE SWAP2 PUSH1 0x20 ADD SWAP2 PUSH2 0x1934 JUMP JUMPDEST DUP3 ADD SWAP2 SWAP1 PUSH1 0x0 MSTORE PUSH1 0x20 PUSH1 0x0 KECCAK256 SWAP1 JUMPDEST DUP2 SLOAD DUP2 MSTORE SWAP1 PUSH1 0x1 ADD SWAP1 PUSH1 0x20 ADD DUP1 DUP4 GT PUSH2 0x1917 JUMPI DUP3 SWAP1 SUB PUSH1 0x1F AND DUP3 ADD SWAP2 JUMPDEST POP POP POP POP POP DUP2 MSTORE PUSH1 0x20 ADD SWAP1 PUSH1 0x1 ADD SWAP1 PUSH2 0x189C JUMP JUMPDEST POP POP POP POP DUP2 MSTORE POP POP SWAP1 DUP1 PUSH1 0x12 ADD PUSH1 0x40 MLOAD DUP1 PUSH1 0x40 ADD PUSH1 0x40 MSTORE SWAP1 DUP2 PUSH1 0x0 DUP3 ADD DUP1 SLOAD DUP1 PUSH1 0x20 MUL PUSH1 0x20 ADD PUSH1 0x40 MLOAD SWAP1 DUP2 ADD PUSH1 0x40 MSTORE DUP1 SWAP3 SWAP2 SWAP1 DUP2 DUP2 MSTORE PUSH1 0x20 ADD PUSH1 0x0 SWAP1 JUMPDEST DUP3 DUP3 LT ISZERO PUSH2 0x1A31 JUMPI DUP4 DUP3 SWAP1 PUSH1 0x0 MSTORE PUSH1 0x20 PUSH1 0x0 KECCAK256 ADD DUP1 SLOAD PUSH2 0x19A4 SWAP1 PUSH2 0x372E JUMP JUMPDEST DUP1 PUSH1 0x1F ADD PUSH1 0x20 DUP1 SWAP2 DIV MUL PUSH1 0x20 ADD PUSH1 0x40 MLOAD SWAP1 DUP2 ADD PUSH1 0x40 MSTORE DUP1 SWAP3 SWAP2 SWAP1 DUP2 DUP2 MSTORE PUSH1 0x20 ADD DUP3 DUP1 SLOAD PUSH2 0x19D0 SWAP1 PUSH2 0x372E JUMP JUMPDEST DUP1 ISZERO PUSH2 0x1A1D JUMPI DUP1 PUSH1 0x1F LT PUSH2 0x19F2 JUMPI PUSH2 0x100 DUP1 DUP4 SLOAD DIV MUL DUP4 MSTORE SWAP2 PUSH1 0x20 ADD SWAP2 PUSH2 0x1A1D JUMP JUMPDEST DUP3 ADD SWAP2 SWAP1 PUSH1 0x0 MSTORE PUSH1 0x20 PUSH1 0x0 KECCAK256 SWAP1 JUMPDEST DUP2 SLOAD DUP2 MSTORE SWAP1 PUSH1 0x1 ADD SWAP1 PUSH1 0x20 ADD DUP1 DUP4 GT PUSH2 0x1A00 JUMPI DUP3 SWAP1 SUB PUSH1 0x1F AND DUP3 ADD SWAP2 JUMPDEST POP POP POP POP POP DUP2 MSTORE PUSH1 0x20 ADD SWAP1 PUSH1 0x1 ADD SWAP1 PUSH2 0x1985 JUMP JUMPDEST POP POP POP POP DUP2 MSTORE PUSH1 0x20 ADD PUSH1 0x1 DUP3 ADD DUP1 SLOAD DUP1 PUSH1 0x20 MUL PUSH1 0x20 ADD PUSH1 0x40 MLOAD SWAP1 DUP2 ADD PUSH1 0x40 MSTORE DUP1 SWAP3 SWAP2 SWAP1 DUP2 DUP2 MSTORE PUSH1 0x20 ADD PUSH1 0x0 SWAP1 JUMPDEST DUP3 DUP3 LT ISZERO PUSH2 0x1B0A JUMPI DUP4 DUP3 SWAP1 PUSH1 0x0 MSTORE PUSH1 0x20 PUSH1 0x0 KECCAK256 ADD DUP1 SLOAD PUSH2 0x1A7D SWAP1 PUSH2 0x372E JUMP JUMPDEST DUP1 PUSH1 0x1F ADD PUSH1 0x20 DUP1 SWAP2 DIV MUL PUSH1 0x20 ADD PUSH1 0x40 MLOAD SWAP1 DUP2 ADD PUSH1 0x40 MSTORE DUP1 SWAP3 SWAP2 SWAP1 DUP2 DUP2 MSTORE PUSH1 0x20 ADD DUP3 DUP1 SLOAD PUSH2 0x1AA9 SWAP1 PUSH2 0x372E JUMP JUMPDEST DUP1 ISZERO PUSH2 0x1AF6 JUMPI DUP1 PUSH1 0x1F LT PUSH2 0x1ACB JUMPI PUSH2 0x100 DUP1 DUP4 SLOAD DIV MUL DUP4 MSTORE SWAP2 PUSH1 0x20 ADD SWAP2 PUSH2 0x1AF6 JUMP JUMPDEST DUP3 ADD SWAP2 SWAP1 PUSH1 0x0 MSTORE PUSH1 0x20 PUSH1 0x0 KECCAK256 SWAP1 JUMPDEST DUP2 SLOAD DUP2 MSTORE SWAP1 PUSH1 0x1 ADD SWAP1 PUSH1 0x20 ADD DUP1 DUP4 GT PUSH2 0x1AD9 JUMPI DUP3 SWAP1 SUB PUSH1 0x1F AND DUP3 ADD SWAP2 JUMPDEST POP POP POP POP POP DUP2 MSTORE PUSH1 0x20 ADD SWAP1 PUSH1 0x1 ADD SWAP1 PUSH2 0x1A5E JUMP JUMPDEST POP POP POP POP DUP2 MSTORE POP POP SWAP1 DUP1 PUSH1 0x14 ADD PUSH1 0x40 MLOAD DUP1 PUSH1 0xA0 ADD PUSH1 0x40 MSTORE SWAP1 DUP2 PUSH1 0x0 DUP3 ADD DUP1 SLOAD PUSH2 0x1B32 SWAP1 PUSH2 0x372E JUMP JUMPDEST DUP1 PUSH1 0x1F ADD PUSH1 0x20 DUP1 SWAP2 DIV MUL PUSH1 0x20 ADD PUSH1 0x40 MLOAD SWAP1 DUP2 ADD PUSH1 0x40 MSTORE DUP1 SWAP3 SWAP2 SWAP1 DUP2 DUP2 MSTORE PUSH1 0x20 ADD DUP3 DUP1 SLOAD PUSH2 0x1B5E SWAP1 PUSH2 0x372E JUMP JUMPDEST DUP1 ISZERO PUSH2 0x1BAB JUMPI DUP1 PUSH1 0x1F LT PUSH2 0x1B80 JUMPI PUSH2 0x100 DUP1 DUP4 SLOAD DIV MUL DUP4 MSTORE SWAP2 PUSH1 0x20 ADD SWAP2 PUSH2 0x1BAB JUMP JUMPDEST DUP3 ADD SWAP2 SWAP1 PUSH1 0x0 MSTORE PUSH1 0x20 PUSH1 0x0 KECCAK256 SWAP1 JUMPDEST DUP2 SLOAD DUP2 MSTORE SWAP1 PUSH1 0x1 ADD SWAP1 PUSH1 0x20 ADD DUP1 DUP4 GT PUSH2 0x1B8E JUMPI DUP3 SWAP1 SUB PUSH1 0x1F AND DUP3 ADD SWAP2 JUMPDEST POP POP POP POP POP DUP2 MSTORE PUSH1 0x20 ADD PUSH1 0x1 DUP3 ADD DUP1 SLOAD PUSH2 0x1BC4 SWAP1 PUSH2 0x372E JUMP JUMPDEST DUP1 PUSH1 0x1F ADD PUSH1 0x20 DUP1 SWAP2 DIV MUL PUSH1 0x20 ADD PUSH1 0x40 MLOAD SWAP1 DUP2 ADD PUSH1 0x40 MSTORE DUP1 SWAP3 SWAP2 SWAP1 DUP2 DUP2 MSTORE PUSH1 0x20 ADD DUP3 DUP1 SLOAD PUSH2 0x1BF0 SWAP1 PUSH2 0x372E JUMP JUMPDEST DUP1 ISZERO PUSH2 0x1C3D JUMPI DUP1 PUSH1 0x1F LT PUSH2 0x1C12 JUMPI PUSH2 0x100 DUP1 DUP4 SLOAD DIV MUL DUP4 MSTORE SWAP2 PUSH1 0x20 ADD SWAP2 PUSH2 0x1C3D JUMP JUMPDEST DUP3 ADD SWAP2 SWAP1 PUSH1 0x0 MSTORE PUSH1 0x20 PUSH1 0x0 KECCAK256 SWAP1 JUMPDEST DUP2 SLOAD DUP2 MSTORE SWAP1 PUSH1 0x1 ADD SWAP1 PUSH1 0x20 ADD DUP1 DUP4 GT PUSH2 0x1C20 JUMPI DUP3 SWAP1 SUB PUSH1 0x1F AND DUP3 ADD SWAP2 JUMPDEST POP POP POP POP POP DUP2 MSTORE PUSH1 0x20 ADD PUSH1 0x2 DUP3 ADD DUP1 SLOAD PUSH2 0x1C56 SWAP1 PUSH2 0x372E JUMP JUMPDEST DUP1 PUSH1 0x1F ADD PUSH1 0x20 DUP1 SWAP2 DIV MUL PUSH1 0x20 ADD PUSH1 0x40 MLOAD SWAP1 DUP2 ADD PUSH1 0x40 MSTORE DUP1 SWAP3 SWAP2 SWAP1 DUP2 DUP2 MSTORE PUSH1 0x20 ADD DUP3 DUP1 SLOAD PUSH2 0x1C82 SWAP1 PUSH2 0x372E JUMP JUMPDEST DUP1 ISZERO PUSH2 0x1CCF JUMPI DUP1 PUSH1 0x1F LT PUSH2 0x1CA4 JUMPI PUSH2 0x100 DUP1 DUP4 SLOAD DIV MUL DUP4 MSTORE SWAP2 PUSH1 0x20 ADD SWAP2 PUSH2 0x1CCF JUMP JUMPDEST DUP3 ADD SWAP2 SWAP1 PUSH1 0x0 MSTORE PUSH1 0x20 PUSH1 0x0 KECCAK256 SWAP1 JUMPDEST DUP2 SLOAD DUP2 MSTORE SWAP1 PUSH1 0x1 ADD SWAP1 PUSH1 0x20 ADD DUP1 DUP4 GT PUSH2 0x1CB2 JUMPI DUP3 SWAP1 SUB PUSH1 0x1F AND DUP3 ADD SWAP2 JUMPDEST POP POP POP POP POP DUP2 MSTORE PUSH1 0x20 ADD PUSH1 0x3 DUP3 ADD DUP1 SLOAD PUSH2 0x1CE8 SWAP1 PUSH2 0x372E JUMP JUMPDEST DUP1 PUSH1 0x1F ADD PUSH1 0x20 DUP1 SWAP2 DIV MUL PUSH1 0x20 ADD PUSH1 0x40 MLOAD SWAP1 DUP2 ADD PUSH1 0x40 MSTORE DUP1 SWAP3 SWAP2 SWAP1 DUP2 DUP2 MSTORE PUSH1 0x20 ADD DUP3 DUP1 SLOAD PUSH2 0x1D14 SWAP1 PUSH2 0x372E JUMP JUMPDEST DUP1 ISZERO PUSH2 0x1D61 JUMPI DUP1 PUSH1 0x1F LT PUSH2 0x1D36 JUMPI PUSH2 0x100 DUP1 DUP4 SLOAD DIV MUL DUP4 MSTORE SWAP2 PUSH1 0x20 ADD SWAP2 PUSH2 0x1D61 JUMP JUMPDEST DUP3 ADD SWAP2 SWAP1 PUSH1 0x0 MSTORE PUSH1 0x20 PUSH1 0x0 KECCAK256 SWAP1 JUMPDEST DUP2 SLOAD DUP2 MSTORE SWAP1 PUSH1 0x1 ADD SWAP1 PUSH1 0x20 ADD DUP1 DUP4 GT PUSH2 0x1D44 JUMPI DUP3 SWAP1 SUB PUSH1 0x1F AND DUP3 ADD SWAP2 JUMPDEST POP POP POP POP POP DUP2 MSTORE PUSH1 0x20 ADD PUSH1 0x4 DUP3 ADD DUP1 SLOAD DUP1 PUSH1 0x20 MUL PUSH1 0x20 ADD PUSH1 0x40 MLOAD SWAP1 DUP2 ADD PUSH1 0x40 MSTORE DUP1 SWAP3 SWAP2 SWAP1 DUP2 DUP2 MSTORE PUSH1 0x20 ADD PUSH1 0x0 SWAP1 JUMPDEST DUP3 DUP3 LT ISZERO PUSH2 0x1E3B JUMPI DUP4 DUP3 SWAP1 PUSH1 0x0 MSTORE PUSH1 0x20 PUSH1 0x0 KECCAK256 ADD DUP1 SLOAD PUSH2 0x1DAE SWAP1 PUSH2 0x372E JUMP JUMPDEST DUP1 PUSH1 0x1F ADD PUSH1 0x20 DUP1 SWAP2 DIV MUL PUSH1 0x20 ADD PUSH1 0x40 MLOAD SWAP1 DUP2 ADD PUSH1 0x40 MSTORE DUP1 SWAP3 SWAP2 SWAP1 DUP2 DUP2 MSTORE PUSH1 0x20 ADD DUP3 DUP1 SLOAD PUSH2 0x1DDA SWAP1 PUSH2 0x372E JUMP JUMPDEST DUP1 ISZERO PUSH2 0x1E27 JUMPI DUP1 PUSH1 0x1F LT PUSH2 0x1DFC JUMPI PUSH2 0x100 DUP1 DUP4 SLOAD DIV MUL DUP4 MSTORE SWAP2 PUSH1 0x20 ADD SWAP2 PUSH2 0x1E27 JUMP JUMPDEST DUP3 ADD SWAP2 SWAP1 PUSH1 0x0 MSTORE PUSH1 0x20 PUSH1 0x0 KECCAK256 SWAP1 JUMPDEST DUP2 SLOAD DUP2 MSTORE SWAP1 PUSH1 0x1 ADD SWAP1 PUSH1 0x20 ADD DUP1 DUP4 GT PUSH2 0x1E0A JUMPI DUP3 SWAP1 SUB PUSH1 0x1F AND DUP3 ADD SWAP2 JUMPDEST POP POP POP POP POP DUP2 MSTORE PUSH1 0x20 ADD SWAP1 PUSH1 0x1 ADD SWAP1 PUSH2 0x1D8F JUMP JUMPDEST POP POP POP POP DUP2 MSTORE POP POP SWAP1 DUP1 PUSH1 0x19 ADD PUSH1 0x40 MLOAD DUP1 PUSH1 0x40 ADD PUSH1 0x40 MSTORE SWAP1 DUP2 PUSH1 0x0 DUP3 ADD DUP1 SLOAD PUSH2 0x1E63 SWAP1 PUSH2 0x372E JUMP JUMPDEST DUP1 PUSH1 0x1F ADD PUSH1 0x20 DUP1 SWAP2 DIV MUL PUSH1 0x20 ADD PUSH1 0x40 MLOAD SWAP1 DUP2 ADD PUSH1 0x40 MSTORE DUP1 SWAP3 SWAP2 SWAP1 DUP2 DUP2 MSTORE PUSH1 0x20 ADD DUP3 DUP1 SLOAD PUSH2 0x1E8F SWAP1 PUSH2 0x372E JUMP JUMPDEST DUP1 ISZERO PUSH2 0x1EDC JUMPI DUP1 PUSH1 0x1F LT PUSH2 0x1EB1 JUMPI PUSH2 0x100 DUP1 DUP4 SLOAD DIV MUL DUP4 MSTORE SWAP2 PUSH1 0x20 ADD SWAP2 PUSH2 0x1EDC JUMP JUMPDEST DUP3 ADD SWAP2 SWAP1 PUSH1 0x0 MSTORE PUSH1 0x20 PUSH1 0x0 KECCAK256 SWAP1 JUMPDEST DUP2 SLOAD DUP2 MSTORE SWAP1 PUSH1 0x1 ADD SWAP1 PUSH1 0x20 ADD DUP1 DUP4 GT PUSH2 0x1EBF JUMPI DUP3 SWAP1 SUB PUSH1 0x1F AND DUP3 ADD SWAP2 JUMPDEST POP POP POP POP POP DUP2 MSTORE PUSH1 0x20 ADD PUSH1 0x1 DUP3 ADD DUP1 SLOAD PUSH2 0x1EF5 SWAP1 PUSH2 0x372E JUMP JUMPDEST DUP1 PUSH1 0x1F ADD PUSH1 0x20 DUP1 SWAP2 DIV MUL PUSH1 0x20 ADD PUSH1 0x40 MLOAD SWAP1 DUP2 ADD PUSH1 0x40 MSTORE DUP1 SWAP3 SWAP2 SWAP1 DUP2 DUP2 MSTORE PUSH1 0x20 ADD DUP3 DUP1 SLOAD PUSH2 0x1F21 SWAP1 PUSH2 0x372E JUMP JUMPDEST DUP1 ISZERO PUSH2 0x1F6E JUMPI DUP1 PUSH1 0x1F LT PUSH2 0x1F43 JUMPI PUSH2 0x100 DUP1 DUP4 SLOAD DIV MUL DUP4 MSTORE SWAP2 PUSH1 0x20 ADD SWAP2 PUSH2 0x1F6E JUMP JUMPDEST DUP3 ADD SWAP2 SWAP1 PUSH1 0x0 MSTORE PUSH1 0x20 PUSH1 0x0 KECCAK256 SWAP1 JUMPDEST DUP2 SLOAD DUP2 MSTORE SWAP1 PUSH1 0x1 ADD SWAP1 PUSH1 0x20 ADD DUP1 DUP4 GT PUSH2 0x1F51 JUMPI DUP3 SWAP1 SUB PUSH1 0x1F AND DUP3 ADD SWAP2 JUMPDEST POP POP POP POP POP DUP2 MSTORE POP POP SWAP1 POP DUP7 JUMP JUMPDEST PUSH1 0x0 DUP1 CALLER PUSH20 0xFFFFFFFFFFFFFFFFFFFFFFFFFFFFFFFFFFFFFFFF AND PUSH20 0xFFFFFFFFFFFFFFFFFFFFFFFFFFFFFFFFFFFFFFFF AND DUP2 MSTORE PUSH1 0x20 ADD SWAP1 DUP2 MSTORE PUSH1 0x20 ADD PUSH1 0x0 KECCAK256 PUSH1 0x14 ADD PUSH1 0x0 DUP1 DUP3 ADD PUSH1 0x0 PUSH2 0x1FCE SWAP2 SWAP1 PUSH2 0x2777 JUMP JUMPDEST PUSH1 0x1 DUP3 ADD PUSH1 0x0 PUSH2 0x1FDE SWAP2 SWAP1 PUSH2 0x2777 JUMP JUMPDEST PUSH1 0x2 DUP3 ADD PUSH1 0x0 PUSH2 0x1FEE SWAP2 SWAP1 PUSH2 0x2777 JUMP JUMPDEST PUSH1 0x3 DUP3 ADD PUSH1 0x0 PUSH2 0x1FFE SWAP2 SWAP1 PUSH2 0x2777 JUMP JUMPDEST PUSH1 0x4 DUP3 ADD PUSH1 0x0 PUSH2 0x200E SWAP2 SWAP1 PUSH2 0x2810 JUMP JUMPDEST POP POP JUMP JUMPDEST PUSH1 0x0 CALLER PUSH20 0xFFFFFFFFFFFFFFFFFFFFFFFFFFFFFFFFFFFFFFFF AND BALANCE SWAP1 POP SWAP1 JUMP JUMPDEST PUSH1 0x0 DUP1 CALLER PUSH20 0xFFFFFFFFFFFFFFFFFFFFFFFFFFFFFFFFFFFFFFFF AND PUSH20 0xFFFFFFFFFFFFFFFFFFFFFFFFFFFFFFFFFFFFFFFF AND DUP2 MSTORE PUSH1 0x20 ADD SWAP1 DUP2 MSTORE PUSH1 0x20 ADD PUSH1 0x0 KECCAK256 PUSH1 0x11 ADD PUSH1 0x0 PUSH2 0x207E SWAP2 SWAP1 PUSH2 0x2860 JUMP JUMPDEST JUMP JUMPDEST PUSH1 0x60 DUP1 PUSH1 0x60 DUP1 PUSH1 0x60 PUSH1 0x0 DUP1 CALLER PUSH20 0xFFFFFFFFFFFFFFFFFFFFFFFFFFFFFFFFFFFFFFFF AND PUSH20 0xFFFFFFFFFFFFFFFFFFFFFFFFFFFFFFFFFFFFFFFF AND DUP2 MSTORE PUSH1 0x20 ADD SWAP1 DUP2 MSTORE PUSH1 0x20 ADD PUSH1 0x0 KECCAK256 PUSH1 0x11 ADD DUP7 DUP2 SLOAD DUP2 LT PUSH2 0x20DB JUMPI PUSH2 0x20DA PUSH2 0x39DD JUMP JUMPDEST JUMPDEST SWAP1 PUSH1 0x0 MSTORE PUSH1 0x20 PUSH1 0x0 KECCAK256 SWAP1 PUSH1 0x5 MUL ADD PUSH1 0x0 ADD PUSH1 0x0 DUP1 CALLER PUSH20 0xFFFFFFFFFFFFFFFFFFFFFFFFFFFFFFFFFFFFFFFF AND PUSH20 0xFFFFFFFFFFFFFFFFFFFFFFFFFFFFFFFFFFFFFFFF AND DUP2 MSTORE PUSH1 0x20 ADD SWAP1 DUP2 MSTORE PUSH1 0x20 ADD PUSH1 0x0 KECCAK256 PUSH1 0x11 ADD DUP8 DUP2 SLOAD DUP2 LT PUSH2 0x213F JUMPI PUSH2 0x213E PUSH2 0x39DD JUMP JUMPDEST JUMPDEST SWAP1 PUSH1 0x0 MSTORE PUSH1 0x20 PUSH1 0x0 KECCAK256 SWAP1 PUSH1 0x5 MUL ADD PUSH1 0x1 ADD PUSH1 0x0 DUP1 CALLER PUSH20 0xFFFFFFFFFFFFFFFFFFFFFFFFFFFFFFFFFFFFFFFF AND PUSH20 0xFFFFFFFFFFFFFFFFFFFFFFFFFFFFFFFFFFFFFFFF AND DUP2 MSTORE PUSH1 0x20 ADD SWAP1 DUP2 MSTORE PUSH1 0x20 ADD PUSH1 0x0 KECCAK256 PUSH1 0x11 ADD DUP9 DUP2 SLOAD DUP2 LT PUSH2 0x21A3 JUMPI PUSH2 0x21A2 PUSH2 0x39DD JUMP JUMPDEST JUMPDEST SWAP1 PUSH1 0x0 MSTORE PUSH1 0x20 PUSH1 0x0 KECCAK256 SWAP1 PUSH1 0x5 MUL ADD PUSH1 0x2 ADD PUSH1 0x0 DUP1 CALLER PUSH20 0xFFFFFFFFFFFFFFFFFFFFFFFFFFFFFFFFFFFFFFFF AND PUSH20 0xFFFFFFFFFFFFFFFFFFFFFFFFFFFFFFFFFFFFFFFF AND DUP2 MSTORE PUSH1 0x20 ADD SWAP1 DUP2 MSTORE PUSH1 0x20 ADD PUSH1 0x0 KECCAK256 PUSH1 0x11 ADD DUP10 DUP2 SLOAD DUP2 LT PUSH2 0x2207 JUMPI PUSH2 0x2206 PUSH2 0x39DD JUMP JUMPDEST JUMPDEST SWAP1 PUSH1 0x0 MSTORE PUSH1 0x20 PUSH1 0x0 KECCAK256 SWAP1 PUSH1 0x5 MUL ADD PUSH1 0x3 ADD PUSH1 0x0 DUP1 CALLER PUSH20 0xFFFFFFFFFFFFFFFFFFFFFFFFFFFFFFFFFFFFFFFF AND PUSH20 0xFFFFFFFFFFFFFFFFFFFFFFFFFFFFFFFFFFFFFFFF AND DUP2 MSTORE PUSH1 0x20 ADD SWAP1 DUP2 MSTORE PUSH1 0x20 ADD PUSH1 0x0 KECCAK256 PUSH1 0x11 ADD DUP11 DUP2 SLOAD DUP2 LT PUSH2 0x226B JUMPI PUSH2 0x226A PUSH2 0x39DD JUMP JUMPDEST JUMPDEST SWAP1 PUSH1 0x0 MSTORE PUSH1 0x20 PUSH1 0x0 KECCAK256 SWAP1 PUSH1 0x5 MUL ADD PUSH1 0x4 ADD DUP5 DUP1 SLOAD PUSH2 0x2288 SWAP1 PUSH2 0x372E JUMP JUMPDEST DUP1 PUSH1 0x1F ADD PUSH1 0x20 DUP1 SWAP2 DIV MUL PUSH1 0x20 ADD PUSH1 0x40 MLOAD SWAP1 DUP2 ADD PUSH1 0x40 MSTORE DUP1 SWAP3 SWAP2 SWAP1 DUP2 DUP2 MSTORE PUSH1 0x20 ADD DUP3 DUP1 SLOAD PUSH2 0x22B4 SWAP1 PUSH2 0x372E JUMP JUMPDEST DUP1 ISZERO PUSH2 0x2301 JUMPI DUP1 PUSH1 0x1F LT PUSH2 0x22D6 JUMPI PUSH2 0x100 DUP1 DUP4 SLOAD DIV MUL DUP4 MSTORE SWAP2 PUSH1 0x20 ADD SWAP2 PUSH2 0x2301 JUMP JUMPDEST DUP3 ADD SWAP2 SWAP1 PUSH1 0x0 MSTORE PUSH1 0x20 PUSH1 0x0 KECCAK256 SWAP1 JUMPDEST DUP2 SLOAD DUP2 MSTORE SWAP1 PUSH1 0x1 ADD SWAP1 PUSH1 0x20 ADD DUP1 DUP4 GT PUSH2 0x22E4 JUMPI DUP3 SWAP1 SUB PUSH1 0x1F AND DUP3 ADD SWAP2 JUMPDEST POP POP POP POP POP SWAP5 POP DUP4 DUP1 SLOAD PUSH2 0x2314 SWAP1 PUSH2 0x372E JUMP JUMPDEST DUP1 PUSH1 0x1F ADD PUSH1 0x20 DUP1 SWAP2 DIV MUL PUSH1 0x20 ADD PUSH1 0x40 MLOAD SWAP1 DUP2 ADD PUSH1 0x40 MSTORE DUP1 SWAP3 SWAP2 SWAP1 DUP2 DUP2 MSTORE PUSH1 0x20 ADD DUP3 DUP1 SLOAD PUSH2 0x2340 SWAP1 PUSH2 0x372E JUMP JUMPDEST DUP1 ISZERO PUSH2 0x238D JUMPI DUP1 PUSH1 0x1F LT PUSH2 0x2362 JUMPI PUSH2 0x100 DUP1 DUP4 SLOAD DIV MUL DUP4 MSTORE SWAP2 PUSH1 0x20 ADD SWAP2 PUSH2 0x238D JUMP JUMPDEST DUP3 ADD SWAP2 SWAP1 PUSH1 0x0 MSTORE PUSH1 0x20 PUSH1 0x0 KECCAK256 SWAP1 JUMPDEST DUP2 SLOAD DUP2 MSTORE SWAP1 PUSH1 0x1 ADD SWAP1 PUSH1 0x20 ADD DUP1 DUP4 GT PUSH2 0x2370 JUMPI DUP3 SWAP1 SUB PUSH1 0x1F AND DUP3 ADD SWAP2 JUMPDEST POP POP POP POP POP SWAP4 POP DUP3 DUP1 SLOAD PUSH2 0x23A0 SWAP1 PUSH2 0x372E JUMP JUMPDEST DUP1 PUSH1 0x1F ADD PUSH1 0x20 DUP1 SWAP2 DIV MUL PUSH1 0x20 ADD PUSH1 0x40 MLOAD SWAP1 DUP2 ADD PUSH1 0x40 MSTORE DUP1 SWAP3 SWAP2 SWAP1 DUP2 DUP2 MSTORE PUSH1 0x20 ADD DUP3 DUP1 SLOAD PUSH2 0x23CC SWAP1 PUSH2 0x372E JUMP JUMPDEST DUP1 ISZERO PUSH2 0x2419 JUMPI DUP1 PUSH1 0x1F LT PUSH2 0x23EE JUMPI PUSH2 0x100 DUP1 DUP4 SLOAD DIV MUL DUP4 MSTORE SWAP2 PUSH1 0x20 ADD SWAP2 PUSH2 0x2419 JUMP JUMPDEST DUP3 ADD SWAP2 SWAP1 PUSH1 0x0 MSTORE PUSH1 0x20 PUSH1 0x0 KECCAK256 SWAP1 JUMPDEST DUP2 SLOAD DUP2 MSTORE SWAP1 PUSH1 0x1 ADD SWAP1 PUSH1 0x20 ADD DUP1 DUP4 GT PUSH2 0x23FC JUMPI DUP3 SWAP1 SUB PUSH1 0x1F AND DUP3 ADD SWAP2 JUMPDEST POP POP POP POP POP SWAP3 POP DUP2 DUP1 SLOAD PUSH2 0x242C SWAP1 PUSH2 0x372E JUMP JUMPDEST DUP1 PUSH1 0x1F ADD PUSH1 0x20 DUP1 SWAP2 DIV MUL PUSH1 0x20 ADD PUSH1 0x40 MLOAD SWAP1 DUP2 ADD PUSH1 0x40 MSTORE DUP1 SWAP3 SWAP2 SWAP1 DUP2 DUP2 MSTORE PUSH1 0x20 ADD DUP3 DUP1 SLOAD PUSH2 0x2458 SWAP1 PUSH2 0x372E JUMP JUMPDEST DUP1 ISZERO PUSH2 0x24A5 JUMPI DUP1 PUSH1 0x1F LT PUSH2 0x247A JUMPI PUSH2 0x100 DUP1 DUP4 SLOAD DIV MUL DUP4 MSTORE SWAP2 PUSH1 0x20 ADD SWAP2 PUSH2 0x24A5 JUMP JUMPDEST DUP3 ADD SWAP2 SWAP1 PUSH1 0x0 MSTORE PUSH1 0x20 PUSH1 0x0 KECCAK256 SWAP1 JUMPDEST DUP2 SLOAD DUP2 MSTORE SWAP1 PUSH1 0x1 ADD SWAP1 PUSH1 0x20 ADD DUP1 DUP4 GT PUSH2 0x2488 JUMPI DUP3 SWAP1 SUB PUSH1 0x1F AND DUP3 ADD SWAP2 JUMPDEST POP POP POP POP POP SWAP2 POP DUP1 DUP1 SLOAD PUSH2 0x24B8 SWAP1 PUSH2 0x372E JUMP JUMPDEST DUP1 PUSH1 0x1F ADD PUSH1 0x20 DUP1 SWAP2 DIV MUL PUSH1 0x20 ADD PUSH1 0x40 MLOAD SWAP1 DUP2 ADD PUSH1 0x40 MSTORE DUP1 SWAP3 SWAP2 SWAP1 DUP2 DUP2 MSTORE PUSH1 0x20 ADD DUP3 DUP1 SLOAD PUSH2 0x24E4 SWAP1 PUSH2 0x372E JUMP JUMPDEST DUP1 ISZERO PUSH2 0x2531 JUMPI DUP1 PUSH1 0x1F LT PUSH2 0x2506 JUMPI PUSH2 0x100 DUP1 DUP4 SLOAD DIV MUL DUP4 MSTORE SWAP2 PUSH1 0x20 ADD SWAP2 PUSH2 0x2531 JUMP JUMPDEST DUP3 ADD SWAP2 SWAP1 PUSH1 0x0 MSTORE PUSH1 0x20 PUSH1 0x0 KECCAK256 SWAP1 JUMPDEST DUP2 SLOAD DUP2 MSTORE SWAP1 PUSH1 0x1 ADD SWAP1 PUSH1 0x20 ADD DUP1 DUP4 GT PUSH2 0x2514 JUMPI DUP3 SWAP1 SUB PUSH1 0x1F AND DUP3 ADD SWAP2 JUMPDEST POP POP POP POP POP SWAP1 POP SWAP5 POP SWAP5 POP SWAP5 POP SWAP5 POP SWAP5 POP SWAP2 SWAP4 SWAP6 SWAP1 SWAP3 SWAP5 POP JUMP JUMPDEST PUSH1 0x0 DUP1 CALLER PUSH20 0xFFFFFFFFFFFFFFFFFFFFFFFFFFFFFFFFFFFFFFFF AND PUSH20 0xFFFFFFFFFFFFFFFFFFFFFFFFFFFFFFFFFFFFFFFF AND DUP2 MSTORE PUSH1 0x20 ADD SWAP1 DUP2 MSTORE PUSH1 0x20 ADD PUSH1 0x0 KECCAK256 PUSH1 0x0 DUP1 DUP3 ADD PUSH1 0x0 DUP1 DUP3 ADD PUSH1 0x0 PUSH2 0x259F SWAP2 SWAP1 PUSH2 0x2777 JUMP JUMPDEST PUSH1 0x1 DUP3 ADD PUSH1 0x0 PUSH2 0x25AF SWAP2 SWAP1 PUSH2 0x2777 JUMP JUMPDEST PUSH1 0x2 DUP3 ADD PUSH1 0x0 PUSH2 0x100 EXP DUP2 SLOAD SWAP1 PUSH20 0xFFFFFFFFFFFFFFFFFFFFFFFFFFFFFFFFFFFFFFFF MUL NOT AND SWAP1 SSTORE PUSH1 0x3 DUP3 ADD PUSH1 0x0 PUSH2 0x25E6 SWAP2 SWAP1 PUSH2 0x2777 JUMP JUMPDEST PUSH1 0x4 DUP3 ADD PUSH1 0x0 PUSH2 0x25F6 SWAP2 SWAP1 PUSH2 0x2777 JUMP JUMPDEST PUSH1 0x5 DUP3 ADD PUSH1 0x0 PUSH2 0x2606 SWAP2 SWAP1 PUSH2 0x2777 JUMP JUMPDEST PUSH1 0x6 DUP3 ADD PUSH1 0x0 PUSH2 0x2616 SWAP2 SWAP1 PUSH2 0x2777 JUMP JUMPDEST PUSH1 0x7 DUP3 ADD PUSH1 0x0 SWAP1 SSTORE POP POP PUSH1 0x8 DUP3 ADD PUSH1 0x0 DUP1 DUP3 ADD PUSH1 0x0 PUSH2 0x2635 SWAP2 SWAP1 PUSH2 0x2777 JUMP JUMPDEST PUSH1 0x1 DUP3 ADD PUSH1 0x0 PUSH2 0x2645 SWAP2 SWAP1 PUSH2 0x2777 JUMP JUMPDEST PUSH1 0x2 DUP3 ADD PUSH1 0x0 PUSH2 0x2655 SWAP2 SWAP1 PUSH2 0x2777 JUMP JUMPDEST PUSH1 0x3 DUP3 ADD PUSH1 0x0 PUSH2 0x2665 SWAP2 SWAP1 PUSH2 0x2777 JUMP JUMPDEST PUSH1 0x4 DUP3 ADD PUSH1 0x0 PUSH2 0x2675 SWAP2 SWAP1 PUSH2 0x2777 JUMP JUMPDEST PUSH1 0x5 DUP3 ADD PUSH1 0x0 PUSH2 0x2685 SWAP2 SWAP1 PUSH2 0x2777 JUMP JUMPDEST POP POP PUSH1 0xE DUP3 ADD PUSH1 0x0 DUP1 DUP3 ADD PUSH1 0x0 PUSH2 0x269C SWAP2 SWAP1 PUSH2 0x2810 JUMP JUMPDEST PUSH1 0x1 DUP3 ADD PUSH1 0x0 PUSH2 0x26AC SWAP2 SWAP1 PUSH2 0x2810 JUMP JUMPDEST PUSH1 0x2 DUP3 ADD PUSH1 0x0 PUSH2 0x26BC SWAP2 SWAP1 PUSH2 0x2810 JUMP JUMPDEST POP POP PUSH1 0x11 DUP3 ADD PUSH1 0x0 PUSH2 0x26CE SWAP2 SWAP1 PUSH2 0x2860 JUMP JUMPDEST PUSH1 0x12 DUP3 ADD PUSH1 0x0 DUP1 DUP3 ADD PUSH1 0x0 PUSH2 0x26E3 SWAP2 SWAP1 PUSH2 0x2810 JUMP JUMPDEST PUSH1 0x1 DUP3 ADD PUSH1 0x0 PUSH2 0x26F3 SWAP2 SWAP1 PUSH2 0x2810 JUMP JUMPDEST POP POP PUSH1 0x14 DUP3 ADD PUSH1 0x0 DUP1 DUP3 ADD PUSH1 0x0 PUSH2 0x270A SWAP2 SWAP1 PUSH2 0x2777 JUMP JUMPDEST PUSH1 0x1 DUP3 ADD PUSH1 0x0 PUSH2 0x271A SWAP2 SWAP1 PUSH2 0x2777 JUMP JUMPDEST PUSH1 0x2 DUP3 ADD PUSH1 0x0 PUSH2 0x272A SWAP2 SWAP1 PUSH2 0x2777 JUMP JUMPDEST PUSH1 0x3 DUP3 ADD PUSH1 0x0 PUSH2 0x273A SWAP2 SWAP1 PUSH2 0x2777 JUMP JUMPDEST PUSH1 0x4 DUP3 ADD PUSH1 0x0 PUSH2 0x274A SWAP2 SWAP1 PUSH2 0x2810 JUMP JUMPDEST POP POP PUSH1 0x19 DUP3 ADD PUSH1 0x0 DUP1 DUP3 ADD PUSH1 0x0 PUSH2 0x2761 SWAP2 SWAP1 PUSH2 0x2777 JUMP JUMPDEST PUSH1 0x1 DUP3 ADD PUSH1 0x0 PUSH2 0x2771 SWAP2 SWAP1 PUSH2 0x2777 JUMP JUMPDEST POP POP POP POP JUMP JUMPDEST POP DUP1 SLOAD PUSH2 0x2783 SWAP1 PUSH2 0x372E JUMP JUMPDEST PUSH1 0x0 DUP3 SSTORE DUP1 PUSH1 0x1F LT PUSH2 0x2795 JUMPI POP PUSH2 0x27B4 JUMP JUMPDEST PUSH1 0x1F ADD PUSH1 0x20 SWAP1 DIV SWAP1 PUSH1 0x0 MSTORE PUSH1 0x20 PUSH1 0x0 KECCAK256 SWAP1 DUP2 ADD SWAP1 PUSH2 0x27B3 SWAP2 SWAP1 PUSH2 0x2884 JUMP JUMPDEST JUMPDEST POP JUMP JUMPDEST DUP3 DUP1 SLOAD DUP3 DUP3 SSTORE SWAP1 PUSH1 0x0 MSTORE PUSH1 0x20 PUSH1 0x0 KECCAK256 SWAP1 DUP2 ADD SWAP3 DUP3 ISZERO PUSH2 0x27FF JUMPI SWAP2 PUSH1 0x20 MUL DUP3 ADD JUMPDEST DUP3 DUP2 GT ISZERO PUSH2 0x27FE JUMPI DUP3 MLOAD DUP3 SWAP1 DUP2 PUSH2 0x27EE SWAP2 SWAP1 PUSH2 0x390B JUMP JUMPDEST POP SWAP2 PUSH1 0x20 ADD SWAP2 SWAP1 PUSH1 0x1 ADD SWAP1 PUSH2 0x27D7 JUMP JUMPDEST JUMPDEST POP SWAP1 POP PUSH2 0x280C SWAP2 SWAP1 PUSH2 0x28A1 JUMP JUMPDEST POP SWAP1 JUMP JUMPDEST POP DUP1 SLOAD PUSH1 0x0 DUP3 SSTORE SWAP1 PUSH1 0x0 MSTORE PUSH1 0x20 PUSH1 0x0 KECCAK256 SWAP1 DUP2 ADD SWAP1 PUSH2 0x282E SWAP2 SWAP1 PUSH2 0x28A1 JUMP JUMPDEST POP JUMP JUMPDEST PUSH1 0x40 MLOAD DUP1 PUSH1 0xA0 ADD PUSH1 0x40 MSTORE DUP1 PUSH1 0x60 DUP2 MSTORE PUSH1 0x20 ADD PUSH1 0x60 DUP2 MSTORE PUSH1 0x20 ADD PUSH1 0x60 DUP2 MSTORE PUSH1 0x20 ADD PUSH1 0x60 DUP2 MSTORE PUSH1 0x20 ADD PUSH1 0x60 DUP2 MSTORE POP SWAP1 JUMP JUMPDEST POP DUP1 SLOAD PUSH1 0x0 DUP3 SSTORE PUSH1 0x5 MUL SWAP1 PUSH1 0x0 MSTORE PUSH1 0x20 PUSH1 0x0 KECCAK256 SWAP1 DUP2 ADD SWAP1 PUSH2 0x2881 SWAP2 SWAP1 PUSH2 0x28C5 JUMP JUMPDEST POP JUMP JUMPDEST JUMPDEST DUP1 DUP3 GT ISZERO PUSH2 0x289D JUMPI PUSH1 0x0 DUP2 PUSH1 0x0 SWAP1 SSTORE POP PUSH1 0x1 ADD PUSH2 0x2885 JUMP JUMPDEST POP SWAP1 JUMP JUMPDEST JUMPDEST DUP1 DUP3 GT ISZERO PUSH2 0x28C1 JUMPI PUSH1 0x0 DUP2 DUP2 PUSH2 0x28B8 SWAP2 SWAP1 PUSH2 0x2777 JUMP JUMPDEST POP PUSH1 0x1 ADD PUSH2 0x28A2 JUMP JUMPDEST POP SWAP1 JUMP JUMPDEST JUMPDEST DUP1 DUP3 GT ISZERO PUSH2 0x2928 JUMPI PUSH1 0x0 DUP1 DUP3 ADD PUSH1 0x0 PUSH2 0x28DF SWAP2 SWAP1 PUSH2 0x2777 JUMP JUMPDEST PUSH1 0x1 DUP3 ADD PUSH1 0x0 PUSH2 0x28EF SWAP2 SWAP1 PUSH2 0x2777 JUMP JUMPDEST PUSH1 0x2 DUP3 ADD PUSH1 0x0 PUSH2 0x28FF SWAP2 SWAP1 PUSH2 0x2777 JUMP JUMPDEST PUSH1 0x3 DUP3 ADD PUSH1 0x0 PUSH2 0x290F SWAP2 SWAP1 PUSH2 0x2777 JUMP JUMPDEST PUSH1 0x4 DUP3 ADD PUSH1 0x0 PUSH2 0x291F SWAP2 SWAP1 PUSH2 0x2777 JUMP JUMPDEST POP PUSH1 0x5 ADD PUSH2 0x28C6 JUMP JUMPDEST POP SWAP1 JUMP JUMPDEST PUSH1 0x0 PUSH1 0x40 MLOAD SWAP1 POP SWAP1 JUMP JUMPDEST PUSH1 0x0 DUP1 REVERT JUMPDEST PUSH1 0x0 DUP1 REVERT JUMPDEST PUSH1 0x0 DUP1 REVERT JUMPDEST PUSH1 0x0 DUP1 REVERT JUMPDEST PUSH1 0x0 PUSH1 0x1F NOT PUSH1 0x1F DUP4 ADD AND SWAP1 POP SWAP2 SWAP1 POP JUMP JUMPDEST PUSH32 0x4E487B7100000000000000000000000000000000000000000000000000000000 PUSH1 0x0 MSTORE PUSH1 0x41 PUSH1 0x4 MSTORE PUSH1 0x24 PUSH1 0x0 REVERT JUMPDEST PUSH2 0x2993 DUP3 PUSH2 0x294A JUMP JUMPDEST DUP2 ADD DUP2 DUP2 LT PUSH8 0xFFFFFFFFFFFFFFFF DUP3 GT OR ISZERO PUSH2 0x29B2 JUMPI PUSH2 0x29B1 PUSH2 0x295B JUMP JUMPDEST JUMPDEST DUP1 PUSH1 0x40 MSTORE POP POP POP JUMP JUMPDEST PUSH1 0x0 PUSH2 0x29C5 PUSH2 0x292C JUMP JUMPDEST SWAP1 POP PUSH2 0x29D1 DUP3 DUP3 PUSH2 0x298A JUMP JUMPDEST SWAP2 SWAP1 POP JUMP JUMPDEST PUSH1 0x0 PUSH8 0xFFFFFFFFFFFFFFFF DUP3 GT ISZERO PUSH2 0x29F1 JUMPI PUSH2 0x29F0 PUSH2 0x295B JUMP JUMPDEST JUMPDEST PUSH2 0x29FA DUP3 PUSH2 0x294A JUMP JUMPDEST SWAP1 POP PUSH1 0x20 DUP2 ADD SWAP1 POP SWAP2 SWAP1 POP JUMP JUMPDEST DUP3 DUP2 DUP4 CALLDATACOPY PUSH1 0x0 DUP4 DUP4 ADD MSTORE POP POP POP JUMP JUMPDEST PUSH1 0x0 PUSH2 0x2A29 PUSH2 0x2A24 DUP5 PUSH2 0x29D6 JUMP JUMPDEST PUSH2 0x29BB JUMP JUMPDEST SWAP1 POP DUP3 DUP2 MSTORE PUSH1 0x20 DUP2 ADD DUP5 DUP5 DUP5 ADD GT ISZERO PUSH2 0x2A45 JUMPI PUSH2 0x2A44 PUSH2 0x2945 JUMP JUMPDEST JUMPDEST PUSH2 0x2A50 DUP5 DUP3 DUP6 PUSH2 0x2A07 JUMP JUMPDEST POP SWAP4 SWAP3 POP POP POP JUMP JUMPDEST PUSH1 0x0 DUP3 PUSH1 0x1F DUP4 ADD SLT PUSH2 0x2A6D JUMPI PUSH2 0x2A6C PUSH2 0x2940 JUMP JUMPDEST JUMPDEST DUP2 CALLDATALOAD PUSH2 0x2A7D DUP5 DUP3 PUSH1 0x20 DUP7 ADD PUSH2 0x2A16 JUMP JUMPDEST SWAP2 POP POP SWAP3 SWAP2 POP POP JUMP JUMPDEST PUSH1 0x0 PUSH8 0xFFFFFFFFFFFFFFFF DUP3 GT ISZERO PUSH2 0x2AA1 JUMPI PUSH2 0x2AA0 PUSH2 0x295B JUMP JUMPDEST JUMPDEST PUSH1 0x20 DUP3 MUL SWAP1 POP PUSH1 0x20 DUP2 ADD SWAP1 POP SWAP2 SWAP1 POP JUMP JUMPDEST PUSH1 0x0 DUP1 REVERT JUMPDEST PUSH1 0x0 PUSH2 0x2ACA PUSH2 0x2AC5 DUP5 PUSH2 0x2A86 JUMP JUMPDEST PUSH2 0x29BB JUMP JUMPDEST SWAP1 POP DUP1 DUP4 DUP3 MSTORE PUSH1 0x20 DUP3 ADD SWAP1 POP PUSH1 0x20 DUP5 MUL DUP4 ADD DUP6 DUP2 GT ISZERO PUSH2 0x2AED JUMPI PUSH2 0x2AEC PUSH2 0x2AB2 JUMP JUMPDEST JUMPDEST DUP4 JUMPDEST DUP2 DUP2 LT ISZERO PUSH2 0x2B34 JUMPI DUP1 CALLDATALOAD PUSH8 0xFFFFFFFFFFFFFFFF DUP2 GT ISZERO PUSH2 0x2B12 JUMPI PUSH2 0x2B11 PUSH2 0x2940 JUMP JUMPDEST JUMPDEST DUP1 DUP7 ADD PUSH2 0x2B1F DUP10 DUP3 PUSH2 0x2A58 JUMP JUMPDEST DUP6 MSTORE PUSH1 0x20 DUP6 ADD SWAP5 POP POP POP PUSH1 0x20 DUP2 ADD SWAP1 POP PUSH2 0x2AEF JUMP JUMPDEST POP POP POP SWAP4 SWAP3 POP POP POP JUMP JUMPDEST PUSH1 0x0 DUP3 PUSH1 0x1F DUP4 ADD SLT PUSH2 0x2B53 JUMPI PUSH2 0x2B52 PUSH2 0x2940 JUMP JUMPDEST JUMPDEST DUP2 CALLDATALOAD PUSH2 0x2B63 DUP5 DUP3 PUSH1 0x20 DUP7 ADD PUSH2 0x2AB7 JUMP JUMPDEST SWAP2 POP POP SWAP3 SWAP2 POP POP JUMP JUMPDEST PUSH1 0x0 DUP1 PUSH1 0x0 DUP1 PUSH1 0x0 PUSH1 0xA0 DUP7 DUP9 SUB SLT ISZERO PUSH2 0x2B88 JUMPI PUSH2 0x2B87 PUSH2 0x2936 JUMP JUMPDEST JUMPDEST PUSH1 0x0 DUP7 ADD CALLDATALOAD PUSH8 0xFFFFFFFFFFFFFFFF DUP2 GT ISZERO PUSH2 0x2BA6 JUMPI PUSH2 0x2BA5 PUSH2 0x293B JUMP JUMPDEST JUMPDEST PUSH2 0x2BB2 DUP9 DUP3 DUP10 ADD PUSH2 0x2A58 JUMP JUMPDEST SWAP6 POP POP PUSH1 0x20 DUP7 ADD CALLDATALOAD PUSH8 0xFFFFFFFFFFFFFFFF DUP2 GT ISZERO PUSH2 0x2BD3 JUMPI PUSH2 0x2BD2 PUSH2 0x293B JUMP JUMPDEST JUMPDEST PUSH2 0x2BDF DUP9 DUP3 DUP10 ADD PUSH2 0x2A58 JUMP JUMPDEST SWAP5 POP POP PUSH1 0x40 DUP7 ADD CALLDATALOAD PUSH8 0xFFFFFFFFFFFFFFFF DUP2 GT ISZERO PUSH2 0x2C00 JUMPI PUSH2 0x2BFF PUSH2 0x293B JUMP JUMPDEST JUMPDEST PUSH2 0x2C0C DUP9 DUP3 DUP10 ADD PUSH2 0x2A58 JUMP JUMPDEST SWAP4 POP POP PUSH1 0x60 DUP7 ADD CALLDATALOAD PUSH8 0xFFFFFFFFFFFFFFFF DUP2 GT ISZERO PUSH2 0x2C2D JUMPI PUSH2 0x2C2C PUSH2 0x293B JUMP JUMPDEST JUMPDEST PUSH2 0x2C39 DUP9 DUP3 DUP10 ADD PUSH2 0x2A58 JUMP JUMPDEST SWAP3 POP POP PUSH1 0x80 DUP7 ADD CALLDATALOAD PUSH8 0xFFFFFFFFFFFFFFFF DUP2 GT ISZERO PUSH2 0x2C5A JUMPI PUSH2 0x2C59 PUSH2 0x293B JUMP JUMPDEST JUMPDEST PUSH2 0x2C66 DUP9 DUP3 DUP10 ADD PUSH2 0x2B3E JUMP JUMPDEST SWAP2 POP POP SWAP3 SWAP6 POP SWAP3 SWAP6 SWAP1 SWAP4 POP JUMP JUMPDEST PUSH1 0x0 DUP1 PUSH1 0x40 DUP4 DUP6 SUB SLT ISZERO PUSH2 0x2C8A JUMPI PUSH2 0x2C89 PUSH2 0x2936 JUMP JUMPDEST JUMPDEST PUSH1 0x0 DUP4 ADD CALLDATALOAD PUSH8 0xFFFFFFFFFFFFFFFF DUP2 GT ISZERO PUSH2 0x2CA8 JUMPI PUSH2 0x2CA7 PUSH2 0x293B JUMP JUMPDEST JUMPDEST PUSH2 0x2CB4 DUP6 DUP3 DUP7 ADD PUSH2 0x2A58 JUMP JUMPDEST SWAP3 POP POP PUSH1 0x20 DUP4 ADD CALLDATALOAD PUSH8 0xFFFFFFFFFFFFFFFF DUP2 GT ISZERO PUSH2 0x2CD5 JUMPI PUSH2 0x2CD4 PUSH2 0x293B JUMP JUMPDEST JUMPDEST PUSH2 0x2CE1 DUP6 DUP3 DUP7 ADD PUSH2 0x2A58 JUMP JUMPDEST SWAP2 POP POP SWAP3 POP SWAP3 SWAP1 POP JUMP JUMPDEST PUSH1 0x0 DUP1 PUSH1 0x0 PUSH1 0x60 DUP5 DUP7 SUB SLT ISZERO PUSH2 0x2D04 JUMPI PUSH2 0x2D03 PUSH2 0x2936 JUMP JUMPDEST JUMPDEST PUSH1 0x0 DUP5 ADD CALLDATALOAD PUSH8 0xFFFFFFFFFFFFFFFF DUP2 GT ISZERO PUSH2 0x2D22 JUMPI PUSH2 0x2D21 PUSH2 0x293B JUMP JUMPDEST JUMPDEST PUSH2 0x2D2E DUP7 DUP3 DUP8 ADD PUSH2 0x2B3E JUMP JUMPDEST SWAP4 POP POP PUSH1 0x20 DUP5 ADD CALLDATALOAD PUSH8 0xFFFFFFFFFFFFFFFF DUP2 GT ISZERO PUSH2 0x2D4F JUMPI PUSH2 0x2D4E PUSH2 0x293B JUMP JUMPDEST JUMPDEST PUSH2 0x2D5B DUP7 DUP3 DUP8 ADD PUSH2 0x2B3E JUMP JUMPDEST SWAP3 POP POP PUSH1 0x40 DUP5 ADD CALLDATALOAD PUSH8 0xFFFFFFFFFFFFFFFF DUP2 GT ISZERO PUSH2 0x2D7C JUMPI PUSH2 0x2D7B PUSH2 0x293B JUMP JUMPDEST JUMPDEST PUSH2 0x2D88 DUP7 DUP3 DUP8 ADD PUSH2 0x2B3E JUMP JUMPDEST SWAP2 POP POP SWAP3 POP SWAP3 POP SWAP3 JUMP JUMPDEST PUSH1 0x0 DUP2 SWAP1 POP SWAP2 SWAP1 POP JUMP JUMPDEST PUSH2 0x2DA5 DUP2 PUSH2 0x2D92 JUMP JUMPDEST DUP3 MSTORE POP POP JUMP JUMPDEST PUSH1 0x0 PUSH1 0x20 DUP3 ADD SWAP1 POP PUSH2 0x2DC0 PUSH1 0x0 DUP4 ADD DUP5 PUSH2 0x2D9C JUMP JUMPDEST SWAP3 SWAP2 POP POP JUMP JUMPDEST PUSH1 0x0 DUP1 PUSH1 0x0 DUP1 PUSH1 0x0 PUSH1 0xA0 DUP7 DUP9 SUB SLT ISZERO PUSH2 0x2DE2 JUMPI PUSH2 0x2DE1 PUSH2 0x2936 JUMP JUMPDEST JUMPDEST PUSH1 0x0 DUP7 ADD CALLDATALOAD PUSH8 0xFFFFFFFFFFFFFFFF DUP2 GT ISZERO PUSH2 0x2E00 JUMPI PUSH2 0x2DFF PUSH2 0x293B JUMP JUMPDEST JUMPDEST PUSH2 0x2E0C DUP9 DUP3 DUP10 ADD PUSH2 0x2A58 JUMP JUMPDEST SWAP6 POP POP PUSH1 0x20 DUP7 ADD CALLDATALOAD PUSH8 0xFFFFFFFFFFFFFFFF DUP2 GT ISZERO PUSH2 0x2E2D JUMPI PUSH2 0x2E2C PUSH2 0x293B JUMP JUMPDEST JUMPDEST PUSH2 0x2E39 DUP9 DUP3 DUP10 ADD PUSH2 0x2A58 JUMP JUMPDEST SWAP5 POP POP PUSH1 0x40 DUP7 ADD CALLDATALOAD PUSH8 0xFFFFFFFFFFFFFFFF DUP2 GT ISZERO PUSH2 0x2E5A JUMPI PUSH2 0x2E59 PUSH2 0x293B JUMP JUMPDEST JUMPDEST PUSH2 0x2E66 DUP9 DUP3 DUP10 ADD PUSH2 0x2A58 JUMP JUMPDEST SWAP4 POP POP PUSH1 0x60 DUP7 ADD CALLDATALOAD PUSH8 0xFFFFFFFFFFFFFFFF DUP2 GT ISZERO PUSH2 0x2E87 JUMPI PUSH2 0x2E86 PUSH2 0x293B JUMP JUMPDEST JUMPDEST PUSH2 0x2E93 DUP9 DUP3 DUP10 ADD PUSH2 0x2A58 JUMP JUMPDEST SWAP3 POP POP PUSH1 0x80 DUP7 ADD CALLDATALOAD PUSH8 0xFFFFFFFFFFFFFFFF DUP2 GT ISZERO PUSH2 0x2EB4 JUMPI PUSH2 0x2EB3 PUSH2 0x293B JUMP JUMPDEST JUMPDEST PUSH2 0x2EC0 DUP9 DUP3 DUP10 ADD PUSH2 0x2A58 JUMP JUMPDEST SWAP2 POP POP SWAP3 SWAP6 POP SWAP3 SWAP6 SWAP1 SWAP4 POP JUMP JUMPDEST PUSH1 0x0 DUP1 PUSH1 0x40 DUP4 DUP6 SUB SLT ISZERO PUSH2 0x2EE4 JUMPI PUSH2 0x2EE3 PUSH2 0x2936 JUMP JUMPDEST JUMPDEST PUSH1 0x0 DUP4 ADD CALLDATALOAD PUSH8 0xFFFFFFFFFFFFFFFF DUP2 GT ISZERO PUSH2 0x2F02 JUMPI PUSH2 0x2F01 PUSH2 0x293B JUMP JUMPDEST JUMPDEST PUSH2 0x2F0E DUP6 DUP3 DUP7 ADD PUSH2 0x2B3E JUMP JUMPDEST SWAP3 POP POP PUSH1 0x20 DUP4 ADD CALLDATALOAD PUSH8 0xFFFFFFFFFFFFFFFF DUP2 GT ISZERO PUSH2 0x2F2F JUMPI PUSH2 0x2F2E PUSH2 0x293B JUMP JUMPDEST JUMPDEST PUSH2 0x2F3B DUP6 DUP3 DUP7 ADD PUSH2 0x2B3E JUMP JUMPDEST SWAP2 POP POP SWAP3 POP SWAP3 SWAP1 POP JUMP JUMPDEST PUSH1 0x0 DUP1 PUSH1 0x0 DUP1 PUSH1 0x0 DUP1 PUSH1 0xC0 DUP8 DUP10 SUB SLT ISZERO PUSH2 0x2F62 JUMPI PUSH2 0x2F61 PUSH2 0x2936 JUMP JUMPDEST JUMPDEST PUSH1 0x0 DUP8 ADD CALLDATALOAD PUSH8 0xFFFFFFFFFFFFFFFF DUP2 GT ISZERO PUSH2 0x2F80 JUMPI PUSH2 0x2F7F PUSH2 0x293B JUMP JUMPDEST JUMPDEST PUSH2 0x2F8C DUP10 DUP3 DUP11 ADD PUSH2 0x2A58 JUMP JUMPDEST SWAP7 POP POP PUSH1 0x20 DUP8 ADD CALLDATALOAD PUSH8 0xFFFFFFFFFFFFFFFF DUP2 GT ISZERO PUSH2 0x2FAD JUMPI PUSH2 0x2FAC PUSH2 0x293B JUMP JUMPDEST JUMPDEST PUSH2 0x2FB9 DUP10 DUP3 DUP11 ADD PUSH2 0x2A58 JUMP JUMPDEST SWAP6 POP POP PUSH1 0x40 DUP8 ADD CALLDATALOAD PUSH8 0xFFFFFFFFFFFFFFFF DUP2 GT ISZERO PUSH2 0x2FDA JUMPI PUSH2 0x2FD9 PUSH2 0x293B JUMP JUMPDEST JUMPDEST PUSH2 0x2FE6 DUP10 DUP3 DUP11 ADD PUSH2 0x2A58 JUMP JUMPDEST SWAP5 POP POP PUSH1 0x60 DUP8 ADD CALLDATALOAD PUSH8 0xFFFFFFFFFFFFFFFF DUP2 GT ISZERO PUSH2 0x3007 JUMPI PUSH2 0x3006 PUSH2 0x293B JUMP JUMPDEST JUMPDEST PUSH2 0x3013 DUP10 DUP3 DUP11 ADD PUSH2 0x2A58 JUMP JUMPDEST SWAP4 POP POP PUSH1 0x80 DUP8 ADD CALLDATALOAD PUSH8 0xFFFFFFFFFFFFFFFF DUP2 GT ISZERO PUSH2 0x3034 JUMPI PUSH2 0x3033 PUSH2 0x293B JUMP JUMPDEST JUMPDEST PUSH2 0x3040 DUP10 DUP3 DUP11 ADD PUSH2 0x2A58 JUMP JUMPDEST SWAP3 POP POP PUSH1 0xA0 DUP8 ADD CALLDATALOAD PUSH8 0xFFFFFFFFFFFFFFFF DUP2 GT ISZERO PUSH2 0x3061 JUMPI PUSH2 0x3060 PUSH2 0x293B JUMP JUMPDEST JUMPDEST PUSH2 0x306D DUP10 DUP3 DUP11 ADD PUSH2 0x2A58 JUMP JUMPDEST SWAP2 POP POP SWAP3 SWAP6 POP SWAP3 SWAP6 POP SWAP3 SWAP6 JUMP JUMPDEST PUSH1 0x0 PUSH20 0xFFFFFFFFFFFFFFFFFFFFFFFFFFFFFFFFFFFFFFFF DUP3 AND SWAP1 POP SWAP2 SWAP1 POP JUMP JUMPDEST PUSH1 0x0 PUSH2 0x30A5 DUP3 PUSH2 0x307A JUMP JUMPDEST SWAP1 POP SWAP2 SWAP1 POP JUMP JUMPDEST PUSH2 0x30B5 DUP2 PUSH2 0x309A JUMP JUMPDEST DUP2 EQ PUSH2 0x30C0 JUMPI PUSH1 0x0 DUP1 REVERT JUMPDEST POP JUMP JUMPDEST PUSH1 0x0 DUP2 CALLDATALOAD SWAP1 POP PUSH2 0x30D2 DUP2 PUSH2 0x30AC JUMP JUMPDEST SWAP3 SWAP2 POP POP JUMP JUMPDEST PUSH1 0x0 PUSH1 0x20 DUP3 DUP5 SUB SLT ISZERO PUSH2 0x30EE JUMPI PUSH2 0x30ED PUSH2 0x2936 JUMP JUMPDEST JUMPDEST PUSH1 0x0 PUSH2 0x30FC DUP5 DUP3 DUP6 ADD PUSH2 0x30C3 JUMP JUMPDEST SWAP2 POP POP SWAP3 SWAP2 POP POP JUMP JUMPDEST PUSH1 0x0 DUP2 MLOAD SWAP1 POP SWAP2 SWAP1 POP JUMP JUMPDEST PUSH1 0x0 DUP3 DUP3 MSTORE PUSH1 0x20 DUP3 ADD SWAP1 POP SWAP3 SWAP2 POP POP JUMP JUMPDEST PUSH1 0x0 JUMPDEST DUP4 DUP2 LT ISZERO PUSH2 0x313F JUMPI DUP1 DUP3 ADD MLOAD DUP2 DUP5 ADD MSTORE PUSH1 0x20 DUP2 ADD SWAP1 POP PUSH2 0x3124 JUMP JUMPDEST PUSH1 0x0 DUP5 DUP5 ADD MSTORE POP POP POP POP JUMP JUMPDEST PUSH1 0x0 PUSH2 0x3156 DUP3 PUSH2 0x3105 JUMP JUMPDEST PUSH2 0x3160 DUP2 DUP6 PUSH2 0x3110 JUMP JUMPDEST SWAP4 POP PUSH2 0x3170 DUP2 DUP6 PUSH1 0x20 DUP7 ADD PUSH2 0x3121 JUMP JUMPDEST PUSH2 0x3179 DUP2 PUSH2 0x294A JUMP JUMPDEST DUP5 ADD SWAP2 POP POP SWAP3 SWAP2 POP POP JUMP JUMPDEST PUSH2 0x318D DUP2 PUSH2 0x309A JUMP JUMPDEST DUP3 MSTORE POP POP JUMP JUMPDEST PUSH2 0x319C DUP2 PUSH2 0x2D92 JUMP JUMPDEST DUP3 MSTORE POP POP JUMP JUMPDEST PUSH1 0x0 PUSH2 0x100 DUP4 ADD PUSH1 0x0 DUP4 ADD MLOAD DUP5 DUP3 SUB PUSH1 0x0 DUP7 ADD MSTORE PUSH2 0x31C0 DUP3 DUP3 PUSH2 0x314B JUMP JUMPDEST SWAP2 POP POP PUSH1 0x20 DUP4 ADD MLOAD DUP5 DUP3 SUB PUSH1 0x20 DUP7 ADD MSTORE PUSH2 0x31DA DUP3 DUP3 PUSH2 0x314B JUMP JUMPDEST SWAP2 POP POP PUSH1 0x40 DUP4 ADD MLOAD PUSH2 0x31EF PUSH1 0x40 DUP7 ADD DUP3 PUSH2 0x3184 JUMP JUMPDEST POP PUSH1 0x60 DUP4 ADD MLOAD DUP5 DUP3 SUB PUSH1 0x60 DUP7 ADD MSTORE PUSH2 0x3207 DUP3 DUP3 PUSH2 0x314B JUMP JUMPDEST SWAP2 POP POP PUSH1 0x80 DUP4 ADD MLOAD DUP5 DUP3 SUB PUSH1 0x80 DUP7 ADD MSTORE PUSH2 0x3221 DUP3 DUP3 PUSH2 0x314B JUMP JUMPDEST SWAP2 POP POP PUSH1 0xA0 DUP4 ADD MLOAD DUP5 DUP3 SUB PUSH1 0xA0 DUP7 ADD MSTORE PUSH2 0x323B DUP3 DUP3 PUSH2 0x314B JUMP JUMPDEST SWAP2 POP POP PUSH1 0xC0 DUP4 ADD MLOAD DUP5 DUP3 SUB PUSH1 0xC0 DUP7 ADD MSTORE PUSH2 0x3255 DUP3 DUP3 PUSH2 0x314B JUMP JUMPDEST SWAP2 POP POP PUSH1 0xE0 DUP4 ADD MLOAD PUSH2 0x326A PUSH1 0xE0 DUP7 ADD DUP3 PUSH2 0x3193 JUMP JUMPDEST POP DUP1 SWAP2 POP POP SWAP3 SWAP2 POP POP JUMP JUMPDEST PUSH1 0x0 PUSH1 0xC0 DUP4 ADD PUSH1 0x0 DUP4 ADD MLOAD DUP5 DUP3 SUB PUSH1 0x0 DUP7 ADD MSTORE PUSH2 0x3292 DUP3 DUP3 PUSH2 0x314B JUMP JUMPDEST SWAP2 POP POP PUSH1 0x20 DUP4 ADD MLOAD DUP5 DUP3 SUB PUSH1 0x20 DUP7 ADD MSTORE PUSH2 0x32AC DUP3 DUP3 PUSH2 0x314B JUMP JUMPDEST SWAP2 POP POP PUSH1 0x40 DUP4 ADD MLOAD DUP5 DUP3 SUB PUSH1 0x40 DUP7 ADD MSTORE PUSH2 0x32C6 DUP3 DUP3 PUSH2 0x314B JUMP JUMPDEST SWAP2 POP POP PUSH1 0x60 DUP4 ADD MLOAD DUP5 DUP3 SUB PUSH1 0x60 DUP7 ADD MSTORE PUSH2 0x32E0 DUP3 DUP3 PUSH2 0x314B JUMP JUMPDEST SWAP2 POP POP PUSH1 0x80 DUP4 ADD MLOAD DUP5 DUP3 SUB PUSH1 0x80 DUP7 ADD MSTORE PUSH2 0x32FA DUP3 DUP3 PUSH2 0x314B JUMP JUMPDEST SWAP2 POP POP PUSH1 0xA0 DUP4 ADD MLOAD DUP5 DUP3 SUB PUSH1 0xA0 DUP7 ADD MSTORE PUSH2 0x3314 DUP3 DUP3 PUSH2 0x314B JUMP JUMPDEST SWAP2 POP POP DUP1 SWAP2 POP POP SWAP3 SWAP2 POP POP JUMP JUMPDEST PUSH1 0x0 DUP2 MLOAD SWAP1 POP SWAP2 SWAP1 POP JUMP JUMPDEST PUSH1 0x0 DUP3 DUP3 MSTORE PUSH1 0x20 DUP3 ADD SWAP1 POP SWAP3 SWAP2 POP POP JUMP JUMPDEST PUSH1 0x0 DUP2 SWAP1 POP PUSH1 0x20 DUP3 ADD SWAP1 POP SWAP2 SWAP1 POP JUMP JUMPDEST PUSH1 0x0 PUSH2 0x3359 DUP4 DUP4 PUSH2 0x314B JUMP JUMPDEST SWAP1 POP SWAP3 SWAP2 POP POP JUMP JUMPDEST PUSH1 0x0 PUSH1 0x20 DUP3 ADD SWAP1 POP SWAP2 SWAP1 POP JUMP JUMPDEST PUSH1 0x0 PUSH2 0x3379 DUP3 PUSH2 0x3321 JUMP JUMPDEST PUSH2 0x3383 DUP2 DUP6 PUSH2 0x332C JUMP JUMPDEST SWAP4 POP DUP4 PUSH1 0x20 DUP3 MUL DUP6 ADD PUSH2 0x3395 DUP6 PUSH2 0x333D JUMP JUMPDEST DUP1 PUSH1 0x0 JUMPDEST DUP6 DUP2 LT ISZERO PUSH2 0x33D1 JUMPI DUP5 DUP5 SUB DUP10 MSTORE DUP2 MLOAD PUSH2 0x33B2 DUP6 DUP3 PUSH2 0x334D JUMP JUMPDEST SWAP5 POP PUSH2 0x33BD DUP4 PUSH2 0x3361 JUMP JUMPDEST SWAP3 POP PUSH1 0x20 DUP11 ADD SWAP10 POP POP PUSH1 0x1 DUP2 ADD SWAP1 POP PUSH2 0x3399 JUMP JUMPDEST POP DUP3 SWAP8 POP DUP8 SWAP6 POP POP POP POP POP POP SWAP3 SWAP2 POP POP JUMP JUMPDEST PUSH1 0x0 PUSH1 0x60 DUP4 ADD PUSH1 0x0 DUP4 ADD MLOAD DUP5 DUP3 SUB PUSH1 0x0 DUP7 ADD MSTORE PUSH2 0x3400 DUP3 DUP3 PUSH2 0x336E JUMP JUMPDEST SWAP2 POP POP PUSH1 0x20 DUP4 ADD MLOAD DUP5 DUP3 SUB PUSH1 0x20 DUP7 ADD MSTORE PUSH2 0x341A DUP3 DUP3 PUSH2 0x336E JUMP JUMPDEST SWAP2 POP POP PUSH1 0x40 DUP4 ADD MLOAD DUP5 DUP3 SUB PUSH1 0x40 DUP7 ADD MSTORE PUSH2 0x3434 DUP3 DUP3 PUSH2 0x336E JUMP JUMPDEST SWAP2 POP POP DUP1 SWAP2 POP POP SWAP3 SWAP2 POP POP JUMP JUMPDEST PUSH1 0x0 PUSH1 0x40 DUP4 ADD PUSH1 0x0 DUP4 ADD MLOAD DUP5 DUP3 SUB PUSH1 0x0 DUP7 ADD MSTORE PUSH2 0x345E DUP3 DUP3 PUSH2 0x336E JUMP JUMPDEST SWAP2 POP POP PUSH1 0x20 DUP4 ADD MLOAD DUP5 DUP3 SUB PUSH1 0x20 DUP7 ADD MSTORE PUSH2 0x3478 DUP3 DUP3 PUSH2 0x336E JUMP JUMPDEST SWAP2 POP POP DUP1 SWAP2 POP POP SWAP3 SWAP2 POP POP JUMP JUMPDEST PUSH1 0x0 PUSH1 0xA0 DUP4 ADD PUSH1 0x0 DUP4 ADD MLOAD DUP5 DUP3 SUB PUSH1 0x0 DUP7 ADD MSTORE PUSH2 0x34A2 DUP3 DUP3 PUSH2 0x314B JUMP JUMPDEST SWAP2 POP POP PUSH1 0x20 DUP4 ADD MLOAD DUP5 DUP3 SUB PUSH1 0x20 DUP7 ADD MSTORE PUSH2 0x34BC DUP3 DUP3 PUSH2 0x314B JUMP JUMPDEST SWAP2 POP POP PUSH1 0x40 DUP4 ADD MLOAD DUP5 DUP3 SUB PUSH1 0x40 DUP7 ADD MSTORE PUSH2 0x34D6 DUP3 DUP3 PUSH2 0x314B JUMP JUMPDEST SWAP2 POP POP PUSH1 0x60 DUP4 ADD MLOAD DUP5 DUP3 SUB PUSH1 0x60 DUP7 ADD MSTORE PUSH2 0x34F0 DUP3 DUP3 PUSH2 0x314B JUMP JUMPDEST SWAP2 POP POP PUSH1 0x80 DUP4 ADD MLOAD DUP5 DUP3 SUB PUSH1 0x80 DUP7 ADD MSTORE PUSH2 0x350A DUP3 DUP3 PUSH2 0x336E JUMP JUMPDEST SWAP2 POP POP DUP1 SWAP2 POP POP SWAP3 SWAP2 POP POP JUMP JUMPDEST PUSH1 0x0 PUSH1 0x40 DUP4 ADD PUSH1 0x0 DUP4 ADD MLOAD DUP5 DUP3 SUB PUSH1 0x0 DUP7 ADD MSTORE PUSH2 0x3534 DUP3 DUP3 PUSH2 0x314B JUMP JUMPDEST SWAP2 POP POP PUSH1 0x20 DUP4 ADD MLOAD DUP5 DUP3 SUB PUSH1 0x20 DUP7 ADD MSTORE PUSH2 0x354E DUP3 DUP3 PUSH2 0x314B JUMP JUMPDEST SWAP2 POP POP DUP1 SWAP2 POP POP SWAP3 SWAP2 POP POP JUMP JUMPDEST PUSH1 0x0 PUSH1 0xC0 DUP3 ADD SWAP1 POP DUP2 DUP2 SUB PUSH1 0x0 DUP4 ADD MSTORE PUSH2 0x3575 DUP2 DUP10 PUSH2 0x31A2 JUMP JUMPDEST SWAP1 POP DUP2 DUP2 SUB PUSH1 0x20 DUP4 ADD MSTORE PUSH2 0x3589 DUP2 DUP9 PUSH2 0x3275 JUMP JUMPDEST SWAP1 POP DUP2 DUP2 SUB PUSH1 0x40 DUP4 ADD MSTORE PUSH2 0x359D DUP2 DUP8 PUSH2 0x33E3 JUMP JUMPDEST SWAP1 POP DUP2 DUP2 SUB PUSH1 0x60 DUP4 ADD MSTORE PUSH2 0x35B1 DUP2 DUP7 PUSH2 0x3441 JUMP JUMPDEST SWAP1 POP DUP2 DUP2 SUB PUSH1 0x80 DUP4 ADD MSTORE PUSH2 0x35C5 DUP2 DUP6 PUSH2 0x3485 JUMP JUMPDEST SWAP1 POP DUP2 DUP2 SUB PUSH1 0xA0 DUP4 ADD MSTORE PUSH2 0x35D9 DUP2 DUP5 PUSH2 0x3517 JUMP JUMPDEST SWAP1 POP SWAP8 SWAP7 POP POP POP POP POP POP POP JUMP JUMPDEST PUSH2 0x35EF DUP2 PUSH2 0x2D92 JUMP JUMPDEST DUP2 EQ PUSH2 0x35FA JUMPI PUSH1 0x0 DUP1 REVERT JUMPDEST POP JUMP JUMPDEST PUSH1 0x0 DUP2 CALLDATALOAD SWAP1 POP PUSH2 0x360C DUP2 PUSH2 0x35E6 JUMP JUMPDEST SWAP3 SWAP2 POP POP JUMP JUMPDEST PUSH1 0x0 PUSH1 0x20 DUP3 DUP5 SUB SLT ISZERO PUSH2 0x3628 JUMPI PUSH2 0x3627 PUSH2 0x2936 JUMP JUMPDEST JUMPDEST PUSH1 0x0 PUSH2 0x3636 DUP5 DUP3 DUP6 ADD PUSH2 0x35FD JUMP JUMPDEST SWAP2 POP POP SWAP3 SWAP2 POP POP JUMP JUMPDEST PUSH1 0x0 DUP3 DUP3 MSTORE PUSH1 0x20 DUP3 ADD SWAP1 POP SWAP3 SWAP2 POP POP JUMP JUMPDEST PUSH1 0x0 PUSH2 0x365B DUP3 PUSH2 0x3105 JUMP JUMPDEST PUSH2 0x3665 DUP2 DUP6 PUSH2 0x363F JUMP JUMPDEST SWAP4 POP PUSH2 0x3675 DUP2 DUP6 PUSH1 0x20 DUP7 ADD PUSH2 0x3121 JUMP JUMPDEST PUSH2 0x367E DUP2 PUSH2 0x294A JUMP JUMPDEST DUP5 ADD SWAP2 POP POP SWAP3 SWAP2 POP POP JUMP JUMPDEST PUSH1 0x0 PUSH1 0xA0 DUP3 ADD SWAP1 POP DUP2 DUP2 SUB PUSH1 0x0 DUP4 ADD MSTORE PUSH2 0x36A3 DUP2 DUP9 PUSH2 0x3650 JUMP JUMPDEST SWAP1 POP DUP2 DUP2 SUB PUSH1 0x20 DUP4 ADD MSTORE PUSH2 0x36B7 DUP2 DUP8 PUSH2 0x3650 JUMP JUMPDEST SWAP1 POP DUP2 DUP2 SUB PUSH1 0x40 DUP4 ADD MSTORE PUSH2 0x36CB DUP2 DUP7 PUSH2 0x3650 JUMP JUMPDEST SWAP1 POP DUP2 DUP2 SUB PUSH1 0x60 DUP4 ADD MSTORE PUSH2 0x36DF DUP2 DUP6 PUSH2 0x3650 JUMP JUMPDEST SWAP1 POP DUP2 DUP2 SUB PUSH1 0x80 DUP4 ADD MSTORE PUSH2 0x36F3 DUP2 DUP5 PUSH2 0x3650 JUMP JUMPDEST SWAP1 POP SWAP7 SWAP6 POP POP POP POP POP POP JUMP JUMPDEST PUSH32 0x4E487B7100000000000000000000000000000000000000000000000000000000 PUSH1 0x0 MSTORE PUSH1 0x22 PUSH1 0x4 MSTORE PUSH1 0x24 PUSH1 0x0 REVERT JUMPDEST PUSH1 0x0 PUSH1 0x2 DUP3 DIV SWAP1 POP PUSH1 0x1 DUP3 AND DUP1 PUSH2 0x3746 JUMPI PUSH1 0x7F DUP3 AND SWAP2 POP JUMPDEST PUSH1 0x20 DUP3 LT DUP2 SUB PUSH2 0x3759 JUMPI PUSH2 0x3758 PUSH2 0x36FF JUMP JUMPDEST JUMPDEST POP SWAP2 SWAP1 POP JUMP JUMPDEST PUSH1 0x0 DUP2 SWAP1 POP DUP2 PUSH1 0x0 MSTORE PUSH1 0x20 PUSH1 0x0 KECCAK256 SWAP1 POP SWAP2 SWAP1 POP JUMP JUMPDEST PUSH1 0x0 PUSH1 0x20 PUSH1 0x1F DUP4 ADD DIV SWAP1 POP SWAP2 SWAP1 POP JUMP JUMPDEST PUSH1 0x0 DUP3 DUP3 SHL SWAP1 POP SWAP3 SWAP2 POP POP JUMP JUMPDEST PUSH1 0x0 PUSH1 0x8 DUP4 MUL PUSH2 0x37C1 PUSH32 0xFFFFFFFFFFFFFFFFFFFFFFFFFFFFFFFFFFFFFFFFFFFFFFFFFFFFFFFFFFFFFFFF DUP3 PUSH2 0x3784 JUMP JUMPDEST PUSH2 0x37CB DUP7 DUP4 PUSH2 0x3784 JUMP JUMPDEST SWAP6 POP DUP1 NOT DUP5 AND SWAP4 POP DUP1 DUP7 AND DUP5 OR SWAP3 POP POP POP SWAP4 SWAP3 POP POP POP JUMP JUMPDEST PUSH1 0x0 DUP2 SWAP1 POP SWAP2 SWAP1 POP JUMP JUMPDEST PUSH1 0x0 PUSH2 0x3808 PUSH2 0x3803 PUSH2 0x37FE DUP5 PUSH2 0x2D92 JUMP JUMPDEST PUSH2 0x37E3 JUMP JUMPDEST PUSH2 0x2D92 JUMP JUMPDEST SWAP1 POP SWAP2 SWAP1 POP JUMP JUMPDEST PUSH1 0x0 DUP2 SWAP1 POP SWAP2 SWAP1 POP JUMP JUMPDEST PUSH2 0x3822 DUP4 PUSH2 0x37ED JUMP JUMPDEST PUSH2 0x3836 PUSH2 0x382E DUP3 PUSH2 0x380F JUMP JUMPDEST DUP5 DUP5 SLOAD PUSH2 0x3791 JUMP JUMPDEST DUP3 SSTORE POP POP POP POP JUMP JUMPDEST PUSH1 0x0 SWAP1 JUMP JUMPDEST PUSH2 0x384B PUSH2 0x383E JUMP JUMPDEST PUSH2 0x3856 DUP2 DUP5 DUP5 PUSH2 0x3819 JUMP JUMPDEST POP POP POP JUMP JUMPDEST JUMPDEST DUP2 DUP2 LT ISZERO PUSH2 0x387A JUMPI PUSH2 0x386F PUSH1 0x0 DUP3 PUSH2 0x3843 JUMP JUMPDEST PUSH1 0x1 DUP2 ADD SWAP1 POP PUSH2 0x385C JUMP JUMPDEST POP POP JUMP JUMPDEST PUSH1 0x1F DUP3 GT ISZERO PUSH2 0x38BF JUMPI PUSH2 0x3890 DUP2 PUSH2 0x375F JUMP JUMPDEST PUSH2 0x3899 DUP5 PUSH2 0x3774 JUMP JUMPDEST DUP2 ADD PUSH1 0x20 DUP6 LT ISZERO PUSH2 0x38A8 JUMPI DUP2 SWAP1 POP JUMPDEST PUSH2 0x38BC PUSH2 0x38B4 DUP6 PUSH2 0x3774 JUMP JUMPDEST DUP4 ADD DUP3 PUSH2 0x385B JUMP JUMPDEST POP POP JUMPDEST POP POP POP JUMP JUMPDEST PUSH1 0x0 DUP3 DUP3 SHR SWAP1 POP SWAP3 SWAP2 POP POP JUMP JUMPDEST PUSH1 0x0 PUSH2 0x38E2 PUSH1 0x0 NOT DUP5 PUSH1 0x8 MUL PUSH2 0x38C4 JUMP JUMPDEST NOT DUP1 DUP4 AND SWAP2 POP POP SWAP3 SWAP2 POP POP JUMP JUMPDEST PUSH1 0x0 PUSH2 0x38FB DUP4 DUP4 PUSH2 0x38D1 JUMP JUMPDEST SWAP2 POP DUP3 PUSH1 0x2 MUL DUP3 OR SWAP1 POP SWAP3 SWAP2 POP POP JUMP JUMPDEST PUSH2 0x3914 DUP3 PUSH2 0x3105 JUMP JUMPDEST PUSH8 0xFFFFFFFFFFFFFFFF DUP2 GT ISZERO PUSH2 0x392D JUMPI PUSH2 0x392C PUSH2 0x295B JUMP JUMPDEST JUMPDEST PUSH2 0x3937 DUP3 SLOAD PUSH2 0x372E JUMP JUMPDEST PUSH2 0x3942 DUP3 DUP3 DUP6 PUSH2 0x387E JUMP JUMPDEST PUSH1 0x0 PUSH1 0x20 SWAP1 POP PUSH1 0x1F DUP4 GT PUSH1 0x1 DUP2 EQ PUSH2 0x3975 JUMPI PUSH1 0x0 DUP5 ISZERO PUSH2 0x3963 JUMPI DUP3 DUP8 ADD MLOAD SWAP1 POP JUMPDEST PUSH2 0x396D DUP6 DUP3 PUSH2 0x38EF JUMP JUMPDEST DUP7 SSTORE POP PUSH2 0x39D5 JUMP JUMPDEST PUSH1 0x1F NOT DUP5 AND PUSH2 0x3983 DUP7 PUSH2 0x375F JUMP JUMPDEST PUSH1 0x0 JUMPDEST DUP3 DUP2 LT ISZERO PUSH2 0x39AB JUMPI DUP5 DUP10 ADD MLOAD DUP3 SSTORE PUSH1 0x1 DUP3 ADD SWAP2 POP PUSH1 0x20 DUP6 ADD SWAP5 POP PUSH1 0x20 DUP2 ADD SWAP1 POP PUSH2 0x3986 JUMP JUMPDEST DUP7 DUP4 LT ISZERO PUSH2 0x39C8 JUMPI DUP5 DUP10 ADD MLOAD PUSH2 0x39C4 PUSH1 0x1F DUP10 AND DUP3 PUSH2 0x38D1 JUMP JUMPDEST DUP4 SSTORE POP JUMPDEST PUSH1 0x1 PUSH1 0x2 DUP9 MUL ADD DUP9 SSTORE POP POP POP JUMPDEST POP POP POP POP POP POP JUMP JUMPDEST PUSH32 0x4E487B7100000000000000000000000000000000000000000000000000000000 PUSH1 0x0 MSTORE PUSH1 0x32 PUSH1 0x4 MSTORE PUSH1 0x24 PUSH1 0x0 REVERT INVALID LOG2 PUSH5 0x6970667358 0x22 SLT KECCAK256 EXP 0xD9 POP 0x4A SDIV 0xC5 0xED DUP1 SLOAD LOG1 EXTCODESIZE 0x24 INVALID 0xB7 PUSH29 0xA091AA64162C87C63EDA39B9CB255C88C964736F6C6343000810003300 "
				},
				"gasEstimates": {
					"creation": {
						"codeDepositCost": "2982800",
						"executionCost": "3278",
						"totalCost": "2986078"
					},
					"external": {
						"createAward(string[],string[])": "infinite",
						"createCompanyExperience(string,string,string,string,string[])": "infinite",
						"createContract(string,string,string,string,string)": "infinite",
						"createFreelanceExperience(string,string)": "infinite",
						"createInformation(string,string,string,string,string,string)": "infinite",
						"createSkill(string[],string[],string[])": "infinite",
						"createUnivercity(string,string,string,string,string)": "infinite",
						"delAllEducation()": "infinite",
						"delCertificateAndAward()": "infinite",
						"delCompanyExperience()": "infinite",
						"delFreelanceExperience()": "infinite",
						"delInformaion()": "infinite",
						"delProfile()": "infinite",
						"getEducation(uint256)": "infinite",
						"getEducationCount()": "2585",
						"myBalance()": "2986",
						"profile(address)": "infinite"
					}
				},
				"methodIdentifiers": {
					"createAward(string[],string[])": "6c2cc774",
					"createCompanyExperience(string,string,string,string,string[])": "2a70da29",
					"createContract(string,string,string,string,string)": "72828388",
					"createFreelanceExperience(string,string)": "322a9849",
					"createInformation(string,string,string,string,string,string)": "958791ae",
					"createSkill(string[],string[],string[])": "3d984d0e",
					"createUnivercity(string,string,string,string,string)": "66244dfb",
					"delAllEducation()": "ed2217ef",
					"delCertificateAndAward()": "4ed74067",
					"delCompanyExperience()": "b240c619",
					"delFreelanceExperience()": "119d4cac",
					"delInformaion()": "95ea3757",
					"delProfile()": "fabce08f",
					"getEducation(uint256)": "f96e32f8",
					"getEducationCount()": "6212fa02",
					"myBalance()": "c9116b69",
					"profile(address)": "9dd9d0fd"
				}
			},
			"storageLayout": {
				"storage": [
					{
						"astId": 29,
						"contract": "contracts/Profile.sol:Profile",
						"label": "profile",
						"offset": 0,
						"slot": "0",
						"type": "t_mapping(t_address,t_struct(Bio)24_storage)"
					}
				],
				"types": {
					"t_address": {
						"encoding": "inplace",
						"label": "address",
						"numberOfBytes": "20"
					},
					"t_array(t_string_storage)dyn_storage": {
						"base": "t_string_storage",
						"encoding": "dynamic_array",
						"label": "string[]",
						"numberOfBytes": "32"
					},
					"t_array(t_struct(Education)97_storage)dyn_storage": {
						"base": "t_struct(Education)97_storage",
						"encoding": "dynamic_array",
						"label": "struct Profile.Education[]",
						"numberOfBytes": "32"
					},
					"t_mapping(t_address,t_struct(Bio)24_storage)": {
						"encoding": "mapping",
						"key": "t_address",
						"label": "mapping(address => struct Profile.Bio)",
						"numberOfBytes": "32",
						"value": "t_struct(Bio)24_storage"
					},
					"t_string_storage": {
						"encoding": "bytes",
						"label": "string",
						"numberOfBytes": "32"
					},
					"t_struct(Bio)24_storage": {
						"encoding": "inplace",
						"label": "struct Profile.Bio",
						"members": [
							{
								"astId": 4,
								"contract": "contracts/Profile.sol:Profile",
								"label": "information",
								"offset": 0,
								"slot": "0",
								"type": "t_struct(Information)46_storage"
							},
							{
								"astId": 7,
								"contract": "contracts/Profile.sol:Profile",
								"label": "privateContract",
								"offset": 0,
								"slot": "8",
								"type": "t_struct(Contract)59_storage"
							},
							{
								"astId": 10,
								"contract": "contracts/Profile.sol:Profile",
								"label": "skill",
								"offset": 0,
								"slot": "14",
								"type": "t_struct(Skill)69_storage"
							},
							{
								"astId": 14,
								"contract": "contracts/Profile.sol:Profile",
								"label": "education",
								"offset": 0,
								"slot": "17",
								"type": "t_array(t_struct(Education)97_storage)dyn_storage"
							},
							{
								"astId": 17,
								"contract": "contracts/Profile.sol:Profile",
								"label": "certificateAndAward",
								"offset": 0,
								"slot": "18",
								"type": "t_struct(CertificateAndAward)104_storage"
							},
							{
								"astId": 20,
								"contract": "contracts/Profile.sol:Profile",
								"label": "companyExperience",
								"offset": 0,
								"slot": "20",
								"type": "t_struct(CompanyExperience)81_storage"
							},
							{
								"astId": 23,
								"contract": "contracts/Profile.sol:Profile",
								"label": "freelanceExperience",
								"offset": 0,
								"slot": "25",
								"type": "t_struct(FreelanceExperience)86_storage"
							}
						],
						"numberOfBytes": "864"
					},
					"t_struct(CertificateAndAward)104_storage": {
						"encoding": "inplace",
						"label": "struct Profile.CertificateAndAward",
						"members": [
							{
								"astId": 100,
								"contract": "contracts/Profile.sol:Profile",
								"label": "certificate",
								"offset": 0,
								"slot": "0",
								"type": "t_array(t_string_storage)dyn_storage"
							},
							{
								"astId": 103,
								"contract": "contracts/Profile.sol:Profile",
								"label": "award",
								"offset": 0,
								"slot": "1",
								"type": "t_array(t_string_storage)dyn_storage"
							}
						],
						"numberOfBytes": "64"
					},
					"t_struct(CompanyExperience)81_storage": {
						"encoding": "inplace",
						"label": "struct Profile.CompanyExperience",
						"members": [
							{
								"astId": 71,
								"contract": "contracts/Profile.sol:Profile",
								"label": "companyName",
								"offset": 0,
								"slot": "0",
								"type": "t_string_storage"
							},
							{
								"astId": 73,
								"contract": "contracts/Profile.sol:Profile",
								"label": "position",
								"offset": 0,
								"slot": "1",
								"type": "t_string_storage"
							},
							{
								"astId": 75,
								"contract": "contracts/Profile.sol:Profile",
								"label": "startDate",
								"offset": 0,
								"slot": "2",
								"type": "t_string_storage"
							},
							{
								"astId": 77,
								"contract": "contracts/Profile.sol:Profile",
								"label": "endDate",
								"offset": 0,
								"slot": "3",
								"type": "t_string_storage"
							},
							{
								"astId": 80,
								"contract": "contracts/Profile.sol:Profile",
								"label": "project",
								"offset": 0,
								"slot": "4",
								"type": "t_array(t_string_storage)dyn_storage"
							}
						],
						"numberOfBytes": "160"
					},
					"t_struct(Contract)59_storage": {
						"encoding": "inplace",
						"label": "struct Profile.Contract",
						"members": [
							{
								"astId": 48,
								"contract": "contracts/Profile.sol:Profile",
								"label": "aboutMe",
								"offset": 0,
								"slot": "0",
								"type": "t_string_storage"
							},
							{
								"astId": 50,
								"contract": "contracts/Profile.sol:Profile",
								"label": "email",
								"offset": 0,
								"slot": "1",
								"type": "t_string_storage"
							},
							{
								"astId": 52,
								"contract": "contracts/Profile.sol:Profile",
								"label": "phone",
								"offset": 0,
								"slot": "2",
								"type": "t_string_storage"
							},
							{
								"astId": 54,
								"contract": "contracts/Profile.sol:Profile",
								"label": "github",
								"offset": 0,
								"slot": "3",
								"type": "t_string_storage"
							},
							{
								"astId": 56,
								"contract": "contracts/Profile.sol:Profile",
								"label": "gitlab",
								"offset": 0,
								"slot": "4",
								"type": "t_string_storage"
							},
							{
								"astId": 58,
								"contract": "contracts/Profile.sol:Profile",
								"label": "linkin",
								"offset": 0,
								"slot": "5",
								"type": "t_string_storage"
							}
						],
						"numberOfBytes": "192"
					},
					"t_struct(Education)97_storage": {
						"encoding": "inplace",
						"label": "struct Profile.Education",
						"members": [
							{
								"astId": 88,
								"contract": "contracts/Profile.sol:Profile",
								"label": "startDate",
								"offset": 0,
								"slot": "0",
								"type": "t_string_storage"
							},
							{
								"astId": 90,
								"contract": "contracts/Profile.sol:Profile",
								"label": "endDate",
								"offset": 0,
								"slot": "1",
								"type": "t_string_storage"
							},
							{
								"astId": 92,
								"contract": "contracts/Profile.sol:Profile",
								"label": "univercity",
								"offset": 0,
								"slot": "2",
								"type": "t_string_storage"
							},
							{
								"astId": 94,
								"contract": "contracts/Profile.sol:Profile",
								"label": "major",
								"offset": 0,
								"slot": "3",
								"type": "t_string_storage"
							},
							{
								"astId": 96,
								"contract": "contracts/Profile.sol:Profile",
								"label": "finalProject",
								"offset": 0,
								"slot": "4",
								"type": "t_string_storage"
							}
						],
						"numberOfBytes": "160"
					},
					"t_struct(FreelanceExperience)86_storage": {
						"encoding": "inplace",
						"label": "struct Profile.FreelanceExperience",
						"members": [
							{
								"astId": 83,
								"contract": "contracts/Profile.sol:Profile",
								"label": "projectName",
								"offset": 0,
								"slot": "0",
								"type": "t_string_storage"
							},
							{
								"astId": 85,
								"contract": "contracts/Profile.sol:Profile",
								"label": "Detail",
								"offset": 0,
								"slot": "1",
								"type": "t_string_storage"
							}
						],
						"numberOfBytes": "64"
					},
					"t_struct(Information)46_storage": {
						"encoding": "inplace",
						"label": "struct Profile.Information",
						"members": [
							{
								"astId": 31,
								"contract": "contracts/Profile.sol:Profile",
								"label": "aboutMe",
								"offset": 0,
								"slot": "0",
								"type": "t_string_storage"
							},
							{
								"astId": 33,
								"contract": "contracts/Profile.sol:Profile",
								"label": "position",
								"offset": 0,
								"slot": "1",
								"type": "t_string_storage"
							},
							{
								"astId": 35,
								"contract": "contracts/Profile.sol:Profile",
								"label": "userAddress",
								"offset": 0,
								"slot": "2",
								"type": "t_address"
							},
							{
								"astId": 37,
								"contract": "contracts/Profile.sol:Profile",
								"label": "firstName",
								"offset": 0,
								"slot": "3",
								"type": "t_string_storage"
							},
							{
								"astId": 39,
								"contract": "contracts/Profile.sol:Profile",
								"label": "middleName",
								"offset": 0,
								"slot": "4",
								"type": "t_string_storage"
							},
							{
								"astId": 41,
								"contract": "contracts/Profile.sol:Profile",
								"label": "lastName",
								"offset": 0,
								"slot": "5",
								"type": "t_string_storage"
							},
							{
								"astId": 43,
								"contract": "contracts/Profile.sol:Profile",
								"label": "profileImage",
								"offset": 0,
								"slot": "6",
								"type": "t_string_storage"
							},
							{
								"astId": 45,
								"contract": "contracts/Profile.sol:Profile",
								"label": "createDate",
								"offset": 0,
								"slot": "7",
								"type": "t_uint256"
							}
						],
						"numberOfBytes": "256"
					},
					"t_struct(Skill)69_storage": {
						"encoding": "inplace",
						"label": "struct Profile.Skill",
						"members": [
							{
								"astId": 62,
								"contract": "contracts/Profile.sol:Profile",
								"label": "programmingLanguages",
								"offset": 0,
								"slot": "0",
								"type": "t_array(t_string_storage)dyn_storage"
							},
							{
								"astId": 65,
								"contract": "contracts/Profile.sol:Profile",
								"label": "framework",
								"offset": 0,
								"slot": "1",
								"type": "t_array(t_string_storage)dyn_storage"
							},
							{
								"astId": 68,
								"contract": "contracts/Profile.sol:Profile",
								"label": "databaseAndOther",
								"offset": 0,
								"slot": "2",
								"type": "t_array(t_string_storage)dyn_storage"
							}
						],
						"numberOfBytes": "96"
					},
					"t_uint256": {
						"encoding": "inplace",
						"label": "uint256",
						"numberOfBytes": "32"
					}
				}
			},
			"userdoc": {
				"kind": "user",
				"methods": {},
				"version": 1
			}
		}
	}
}