{
	"contracts/Profile.sol": {
		"Profile": {
			"abi": [
				{
					"inputs": [
						{
							"internalType": "string[]",
							"name": "award",
							"type": "string[]"
						},
						{
							"internalType": "string[]",
							"name": "certificate",
							"type": "string[]"
						}
					],
					"name": "createAward",
					"outputs": [],
					"stateMutability": "nonpayable",
					"type": "function"
				},
				{
					"inputs": [
						{
							"internalType": "string",
							"name": "companyName",
							"type": "string"
						},
						{
							"internalType": "string",
							"name": "position",
							"type": "string"
						},
						{
							"internalType": "string",
							"name": "startDate",
							"type": "string"
						},
						{
							"internalType": "string",
							"name": "endDate",
							"type": "string"
						},
						{
							"internalType": "string[]",
							"name": "project",
							"type": "string[]"
						}
					],
					"name": "createCompanyExperience",
					"outputs": [],
					"stateMutability": "nonpayable",
					"type": "function"
				},
				{
					"inputs": [
						{
							"internalType": "string",
							"name": "email",
							"type": "string"
						},
						{
							"internalType": "string",
							"name": "phone",
							"type": "string"
						},
						{
							"internalType": "string",
							"name": "github",
							"type": "string"
						},
						{
							"internalType": "string",
							"name": "gitlab",
							"type": "string"
						},
						{
							"internalType": "string",
							"name": "linkedin",
							"type": "string"
						}
					],
					"name": "createContract",
					"outputs": [],
					"stateMutability": "nonpayable",
					"type": "function"
				},
				{
					"inputs": [
						{
							"internalType": "string",
							"name": "startDate",
							"type": "string"
						},
						{
							"internalType": "string",
							"name": "endDate",
							"type": "string"
						},
						{
							"internalType": "string",
							"name": "university",
							"type": "string"
						},
						{
							"internalType": "string",
							"name": "major",
							"type": "string"
						},
						{
							"internalType": "string",
							"name": "finalProject",
							"type": "string"
						}
					],
					"name": "createEducation",
					"outputs": [],
					"stateMutability": "nonpayable",
					"type": "function"
				},
				{
					"inputs": [
						{
							"internalType": "string",
							"name": "projectName",
							"type": "string"
						},
						{
							"internalType": "string",
							"name": "Detail",
							"type": "string"
						}
					],
					"name": "createFreelanceExperience",
					"outputs": [],
					"stateMutability": "nonpayable",
					"type": "function"
				},
				{
					"inputs": [
						{
							"internalType": "string",
							"name": "firstName",
							"type": "string"
						},
						{
							"internalType": "string",
							"name": "middleName",
							"type": "string"
						},
						{
							"internalType": "string",
							"name": "lastName",
							"type": "string"
						},
						{
							"internalType": "string",
							"name": "profileImage",
							"type": "string"
						},
						{
							"internalType": "string",
							"name": "aboutMe",
							"type": "string"
						},
						{
							"internalType": "string",
							"name": "position",
							"type": "string"
						}
					],
					"name": "createInformation",
					"outputs": [],
					"stateMutability": "nonpayable",
					"type": "function"
				},
				{
					"inputs": [
						{
							"internalType": "string[]",
							"name": "programmingLanguages",
							"type": "string[]"
						},
						{
							"internalType": "string[]",
							"name": "framework",
							"type": "string[]"
						},
						{
							"internalType": "string[]",
							"name": "databaseAndOther",
							"type": "string[]"
						}
					],
					"name": "createSkill",
					"outputs": [],
					"stateMutability": "nonpayable",
					"type": "function"
				},
				{
					"inputs": [],
					"name": "delAllEducation",
					"outputs": [],
					"stateMutability": "nonpayable",
					"type": "function"
				},
				{
					"inputs": [],
					"name": "delCertificateAndAward",
					"outputs": [],
					"stateMutability": "nonpayable",
					"type": "function"
				},
				{
					"inputs": [],
					"name": "delCompanyExperience",
					"outputs": [],
					"stateMutability": "nonpayable",
					"type": "function"
				},
				{
					"inputs": [],
					"name": "delFreelanceExperience",
					"outputs": [],
					"stateMutability": "nonpayable",
					"type": "function"
				},
				{
					"inputs": [],
					"name": "delInformaion",
					"outputs": [],
					"stateMutability": "nonpayable",
					"type": "function"
				},
				{
					"inputs": [],
					"name": "delProfile",
					"outputs": [],
					"stateMutability": "nonpayable",
					"type": "function"
				},
				{
					"inputs": [
						{
							"internalType": "uint256",
							"name": "index",
							"type": "uint256"
						}
					],
					"name": "getCompanyExperience",
					"outputs": [
						{
							"internalType": "string",
							"name": "",
							"type": "string"
						},
						{
							"internalType": "string",
							"name": "",
							"type": "string"
						}
					],
					"stateMutability": "view",
					"type": "function"
				},
				{
					"inputs": [],
					"name": "getCompanyExperienceCount",
					"outputs": [
						{
							"internalType": "uint256",
							"name": "",
							"type": "uint256"
						}
					],
					"stateMutability": "view",
					"type": "function"
				},
				{
					"inputs": [
						{
							"internalType": "uint256",
							"name": "index",
							"type": "uint256"
						}
					],
					"name": "getEducation",
					"outputs": [
						{
							"internalType": "string",
							"name": "",
							"type": "string"
						},
						{
							"internalType": "string",
							"name": "",
							"type": "string"
						},
						{
							"internalType": "string",
							"name": "",
							"type": "string"
						},
						{
							"internalType": "string",
							"name": "",
							"type": "string"
						},
						{
							"internalType": "string",
							"name": "",
							"type": "string"
						}
					],
					"stateMutability": "view",
					"type": "function"
				},
				{
					"inputs": [],
					"name": "getEducationCount",
					"outputs": [
						{
							"internalType": "uint256",
							"name": "",
							"type": "uint256"
						}
					],
					"stateMutability": "view",
					"type": "function"
				},
				{
					"inputs": [
						{
							"internalType": "uint256",
							"name": "index",
							"type": "uint256"
						}
					],
					"name": "getFreelanceExperience",
					"outputs": [
						{
							"internalType": "string",
							"name": "",
							"type": "string"
						},
						{
							"internalType": "string",
							"name": "",
							"type": "string"
						}
					],
					"stateMutability": "view",
					"type": "function"
				},
				{
					"inputs": [],
					"name": "getFreelanceExperienceCount",
					"outputs": [
						{
							"internalType": "uint256",
							"name": "",
							"type": "uint256"
						}
					],
					"stateMutability": "view",
					"type": "function"
				},
				{
					"inputs": [],
					"name": "myBalance",
					"outputs": [
						{
							"internalType": "uint256",
							"name": "",
							"type": "uint256"
						}
					],
					"stateMutability": "view",
					"type": "function"
				},
				{
					"inputs": [
						{
							"internalType": "address",
							"name": "",
							"type": "address"
						}
					],
					"name": "profile",
					"outputs": [
						{
							"components": [
								{
									"internalType": "string",
									"name": "aboutMe",
									"type": "string"
								},
								{
									"internalType": "string",
									"name": "position",
									"type": "string"
								},
								{
									"internalType": "address",
									"name": "userAddress",
									"type": "address"
								},
								{
									"internalType": "string",
									"name": "firstName",
									"type": "string"
								},
								{
									"internalType": "string",
									"name": "middleName",
									"type": "string"
								},
								{
									"internalType": "string",
									"name": "lastName",
									"type": "string"
								},
								{
									"internalType": "string",
									"name": "profileImage",
									"type": "string"
								},
								{
									"internalType": "uint256",
									"name": "createDate",
									"type": "uint256"
								}
							],
							"internalType": "struct Profile.Information",
							"name": "information",
							"type": "tuple"
						},
						{
							"components": [
								{
									"internalType": "string",
									"name": "aboutMe",
									"type": "string"
								},
								{
									"internalType": "string",
									"name": "email",
									"type": "string"
								},
								{
									"internalType": "string",
									"name": "phone",
									"type": "string"
								},
								{
									"internalType": "string",
									"name": "github",
									"type": "string"
								},
								{
									"internalType": "string",
									"name": "gitlab",
									"type": "string"
								},
								{
									"internalType": "string",
									"name": "linkedin",
									"type": "string"
								}
							],
							"internalType": "struct Profile.Contract",
							"name": "privateContract",
							"type": "tuple"
						},
						{
							"components": [
								{
									"internalType": "string[]",
									"name": "programmingLanguages",
									"type": "string[]"
								},
								{
									"internalType": "string[]",
									"name": "framework",
									"type": "string[]"
								},
								{
									"internalType": "string[]",
									"name": "databaseAndOther",
									"type": "string[]"
								}
							],
							"internalType": "struct Profile.Skill",
							"name": "skill",
							"type": "tuple"
						},
						{
							"components": [
								{
									"internalType": "string[]",
									"name": "certificate",
									"type": "string[]"
								},
								{
									"internalType": "string[]",
									"name": "award",
									"type": "string[]"
								}
							],
							"internalType": "struct Profile.CertificateAndAward",
							"name": "certificateAndAward",
							"type": "tuple"
						}
					],
					"stateMutability": "view",
					"type": "function"
				}
			],
			"devdoc": {
				"kind": "dev",
				"methods": {},
				"version": 1
			},
			"evm": {
				"assembly": "    /* \"contracts/Profile.sol\":60:6830  contract Profile {\r... */\n  mstore(0x40, 0x80)\n  callvalue\n  dup1\n  iszero\n  tag_1\n  jumpi\n  0x00\n  dup1\n  revert\ntag_1:\n  pop\n  dataSize(sub_0)\n  dup1\n  dataOffset(sub_0)\n  0x00\n  codecopy\n  0x00\n  return\nstop\n\nsub_0: assembly {\n        /* \"contracts/Profile.sol\":60:6830  contract Profile {\r... */\n      mstore(0x40, 0x80)\n      callvalue\n      dup1\n      iszero\n      tag_1\n      jumpi\n      0x00\n      dup1\n      revert\n    tag_1:\n      pop\n      jumpi(tag_2, lt(calldatasize, 0x04))\n      shr(0xe0, calldataload(0x00))\n      dup1\n      0x72828388\n      gt\n      tag_24\n      jumpi\n      dup1\n      0xc8ae20ff\n      gt\n      tag_25\n      jumpi\n      dup1\n      0xc8ae20ff\n      eq\n      tag_18\n      jumpi\n      dup1\n      0xc9116b69\n      eq\n      tag_19\n      jumpi\n      dup1\n      0xeb409730\n      eq\n      tag_20\n      jumpi\n      dup1\n      0xed2217ef\n      eq\n      tag_21\n      jumpi\n      dup1\n      0xf96e32f8\n      eq\n      tag_22\n      jumpi\n      dup1\n      0xfabce08f\n      eq\n      tag_23\n      jumpi\n      jump(tag_2)\n    tag_25:\n      dup1\n      0x72828388\n      eq\n      tag_13\n      jumpi\n      dup1\n      0x958791ae\n      eq\n      tag_14\n      jumpi\n      dup1\n      0x95ea3757\n      eq\n      tag_15\n      jumpi\n      dup1\n      0x9dd9d0fd\n      eq\n      tag_16\n      jumpi\n      dup1\n      0xb240c619\n      eq\n      tag_17\n      jumpi\n      jump(tag_2)\n    tag_24:\n      dup1\n      0x420d8667\n      gt\n      tag_26\n      jumpi\n      dup1\n      0x420d8667\n      eq\n      tag_8\n      jumpi\n      dup1\n      0x47282f47\n      eq\n      tag_9\n      jumpi\n      dup1\n      0x4ed74067\n      eq\n      tag_10\n      jumpi\n      dup1\n      0x6212fa02\n      eq\n      tag_11\n      jumpi\n      dup1\n      0x6c2cc774\n      eq\n      tag_12\n      jumpi\n      jump(tag_2)\n    tag_26:\n      dup1\n      0x10301638\n      eq\n      tag_3\n      jumpi\n      dup1\n      0x119d4cac\n      eq\n      tag_4\n      jumpi\n      dup1\n      0x2a70da29\n      eq\n      tag_5\n      jumpi\n      dup1\n      0x322a9849\n      eq\n      tag_6\n      jumpi\n      dup1\n      0x3d984d0e\n      eq\n      tag_7\n      jumpi\n    tag_2:\n      0x00\n      dup1\n      revert\n        /* \"contracts/Profile.sol\":5120:5258  function getFreelanceExperienceCount() public view returns (uint) {\r... */\n    tag_3:\n      tag_27\n      tag_28\n      jump\t// in\n    tag_27:\n      mload(0x40)\n      tag_29\n      swap2\n      swap1\n      tag_30\n      jump\t// in\n    tag_29:\n      mload(0x40)\n      dup1\n      swap2\n      sub\n      swap1\n      return\n        /* \"contracts/Profile.sol\":6607:6715  function delFreelanceExperience() external {\r... */\n    tag_4:\n      tag_31\n      tag_32\n      jump\t// in\n    tag_31:\n      stop\n        /* \"contracts/Profile.sol\":5266:5814  function createCompanyExperience(string memory companyName, string memory position, string memory startDate, string memory endDate, string[] memory project) public {\r... */\n    tag_5:\n      tag_33\n      0x04\n      dup1\n      calldatasize\n      sub\n      dup2\n      add\n      swap1\n      tag_34\n      swap2\n      swap1\n      tag_35\n      jump\t// in\n    tag_34:\n      tag_36\n      jump\t// in\n    tag_33:\n      stop\n        /* \"contracts/Profile.sol\":4531:4869  function createFreelanceExperience(string memory projectName, string memory Detail) public {\r... */\n    tag_6:\n      tag_37\n      0x04\n      dup1\n      calldatasize\n      sub\n      dup2\n      add\n      swap1\n      tag_38\n      swap2\n      swap1\n      tag_39\n      jump\t// in\n    tag_38:\n      tag_40\n      jump\t// in\n    tag_37:\n      stop\n        /* \"contracts/Profile.sol\":2894:3282  function createSkill(string[] memory programmingLanguages, string[] memory framework, string[] memory databaseAndOther) public {\r... */\n    tag_7:\n      tag_41\n      0x04\n      dup1\n      calldatasize\n      sub\n      dup2\n      add\n      swap1\n      tag_42\n      swap2\n      swap1\n      tag_43\n      jump\t// in\n    tag_42:\n      tag_44\n      jump\t// in\n    tag_41:\n      stop\n        /* \"contracts/Profile.sol\":6063:6199  function getCompanyExperienceCount() public view returns (uint) {\r... */\n    tag_8:\n      tag_45\n      tag_46\n      jump\t// in\n    tag_45:\n      mload(0x40)\n      tag_47\n      swap2\n      swap1\n      tag_30\n      jump\t// in\n    tag_47:\n      mload(0x40)\n      dup1\n      swap2\n      sub\n      swap1\n      return\n        /* \"contracts/Profile.sol\":5822:6055  function getCompanyExperience(uint index) public view returns(string memory, string memory) {\r... */\n    tag_9:\n      tag_48\n      0x04\n      dup1\n      calldatasize\n      sub\n      dup2\n      add\n      swap1\n      tag_49\n      swap2\n      swap1\n      tag_50\n      jump\t// in\n    tag_49:\n      tag_51\n      jump\t// in\n    tag_48:\n      mload(0x40)\n      tag_52\n      swap3\n      swap2\n      swap1\n      tag_53\n      jump\t// in\n    tag_52:\n      mload(0x40)\n      dup1\n      swap2\n      sub\n      swap1\n      return\n        /* \"contracts/Profile.sol\":6491:6599  function delCertificateAndAward() external {\r... */\n    tag_10:\n      tag_54\n      tag_55\n      jump\t// in\n    tag_54:\n      stop\n        /* \"contracts/Profile.sol\":4169:4287  function getEducationCount() public view returns (uint) {\r... */\n    tag_11:\n      tag_56\n      tag_57\n      jump\t// in\n    tag_56:\n      mload(0x40)\n      tag_58\n      swap2\n      swap1\n      tag_30\n      jump\t// in\n    tag_58:\n      mload(0x40)\n      dup1\n      swap2\n      sub\n      swap1\n      return\n        /* \"contracts/Profile.sol\":4295:4523  function createAward(string[] memory award, string[] memory certificate) public {\r... */\n    tag_12:\n      tag_59\n      0x04\n      dup1\n      calldatasize\n      sub\n      dup2\n      add\n      swap1\n      tag_60\n      swap2\n      swap1\n      tag_61\n      jump\t// in\n    tag_60:\n      tag_62\n      jump\t// in\n    tag_59:\n      stop\n        /* \"contracts/Profile.sol\":2374:2886  function createContract(string memory email, string memory phone, string memory github, string memory gitlab, string memory linkedin) public {\r... */\n    tag_13:\n      tag_63\n      0x04\n      dup1\n      calldatasize\n      sub\n      dup2\n      add\n      swap1\n      tag_64\n      swap2\n      swap1\n      tag_65\n      jump\t// in\n    tag_64:\n      tag_66\n      jump\t// in\n    tag_63:\n      stop\n        /* \"contracts/Profile.sol\":1650:2366  function createInformation(string memory firstName, string memory middleName, string memory lastName,  string memory profileImage, string memory aboutMe, string memory position) public {\r... */\n    tag_14:\n      tag_67\n      0x04\n      dup1\n      calldatasize\n      sub\n      dup2\n      add\n      swap1\n      tag_68\n      swap2\n      swap1\n      tag_69\n      jump\t// in\n    tag_68:\n      tag_70\n      jump\t// in\n    tag_67:\n      stop\n        /* \"contracts/Profile.sol\":6307:6399  function delInformaion() external  {\r... */\n    tag_15:\n      tag_71\n      tag_72\n      jump\t// in\n    tag_71:\n      stop\n        /* \"contracts/Profile.sol\":384:424  mapping (address => Bio) public  profile */\n    tag_16:\n      tag_73\n      0x04\n      dup1\n      calldatasize\n      sub\n      dup2\n      add\n      swap1\n      tag_74\n      swap2\n      swap1\n      tag_75\n      jump\t// in\n    tag_74:\n      tag_76\n      jump\t// in\n    tag_73:\n      mload(0x40)\n      tag_77\n      swap5\n      swap4\n      swap3\n      swap2\n      swap1\n      tag_78\n      jump\t// in\n    tag_77:\n      mload(0x40)\n      dup1\n      swap2\n      sub\n      swap1\n      return\n        /* \"contracts/Profile.sol\":6723:6827  function delCompanyExperience() external {\r... */\n    tag_17:\n      tag_79\n      tag_80\n      jump\t// in\n    tag_79:\n      stop\n        /* \"contracts/Profile.sol\":3290:3759  function createEducation(string memory startDate, string memory endDate, string memory university, string memory major, string memory finalProject) public {\r... */\n    tag_18:\n      tag_81\n      0x04\n      dup1\n      calldatasize\n      sub\n      dup2\n      add\n      swap1\n      tag_82\n      swap2\n      swap1\n      tag_65\n      jump\t// in\n    tag_82:\n      tag_83\n      jump\t// in\n    tag_81:\n      stop\n        /* \"contracts/Profile.sol\":1536:1638  function myBalance() public view returns(uint256){\r... */\n    tag_19:\n      tag_84\n      tag_85\n      jump\t// in\n    tag_84:\n      mload(0x40)\n      tag_86\n      swap2\n      swap1\n      tag_30\n      jump\t// in\n    tag_86:\n      mload(0x40)\n      dup1\n      swap2\n      sub\n      swap1\n      return\n        /* \"contracts/Profile.sol\":4877:5112  function getFreelanceExperience(uint index) public view returns(string memory, string memory) {\r... */\n    tag_20:\n      tag_87\n      0x04\n      dup1\n      calldatasize\n      sub\n      dup2\n      add\n      swap1\n      tag_88\n      swap2\n      swap1\n      tag_50\n      jump\t// in\n    tag_88:\n      tag_89\n      jump\t// in\n    tag_87:\n      mload(0x40)\n      tag_90\n      swap3\n      swap2\n      swap1\n      tag_53\n      jump\t// in\n    tag_90:\n      mload(0x40)\n      dup1\n      swap2\n      sub\n      swap1\n      return\n        /* \"contracts/Profile.sol\":6207:6299  function delAllEducation() external  {\r... */\n    tag_21:\n      tag_91\n      tag_92\n      jump\t// in\n    tag_91:\n      stop\n        /* \"contracts/Profile.sol\":3768:4161  function getEducation(uint index) public view returns(string memory, string memory, string memory, string memory, string memory) {\r... */\n    tag_22:\n      tag_93\n      0x04\n      dup1\n      calldatasize\n      sub\n      dup2\n      add\n      swap1\n      tag_94\n      swap2\n      swap1\n      tag_50\n      jump\t// in\n    tag_94:\n      tag_95\n      jump\t// in\n    tag_93:\n      mload(0x40)\n      tag_96\n      swap6\n      swap5\n      swap4\n      swap3\n      swap2\n      swap1\n      tag_97\n      jump\t// in\n    tag_96:\n      mload(0x40)\n      dup1\n      swap2\n      sub\n      swap1\n      return\n        /* \"contracts/Profile.sol\":6407:6483  function delProfile() external {\r... */\n    tag_23:\n      tag_98\n      tag_99\n      jump\t// in\n    tag_98:\n      stop\n        /* \"contracts/Profile.sol\":5120:5258  function getFreelanceExperienceCount() public view returns (uint) {\r... */\n    tag_28:\n        /* \"contracts/Profile.sol\":5180:5184  uint */\n      0x00\n        /* \"contracts/Profile.sol\":5204:5211  profile */\n      dup1\n        /* \"contracts/Profile.sol\":5204:5223  profile[msg.sender] */\n      0x00\n        /* \"contracts/Profile.sol\":5212:5222  msg.sender */\n      caller\n        /* \"contracts/Profile.sol\":5204:5223  profile[msg.sender] */\n      0xffffffffffffffffffffffffffffffffffffffff\n      and\n      0xffffffffffffffffffffffffffffffffffffffff\n      and\n      dup2\n      mstore\n      0x20\n      add\n      swap1\n      dup2\n      mstore\n      0x20\n      add\n      0x00\n      keccak256\n        /* \"contracts/Profile.sol\":5204:5243  profile[msg.sender].freelanceExperience */\n      0x15\n      add\n        /* \"contracts/Profile.sol\":5204:5250  profile[msg.sender].freelanceExperience.length */\n      dup1\n      sload\n      swap1\n      pop\n        /* \"contracts/Profile.sol\":5197:5250  return profile[msg.sender].freelanceExperience.length */\n      swap1\n      pop\n        /* \"contracts/Profile.sol\":5120:5258  function getFreelanceExperienceCount() public view returns (uint) {\r... */\n      swap1\n      jump\t// out\n        /* \"contracts/Profile.sol\":6607:6715  function delFreelanceExperience() external {\r... */\n    tag_32:\n        /* \"contracts/Profile.sol\":6668:6675  profile */\n      0x00\n        /* \"contracts/Profile.sol\":6668:6687  profile[msg.sender] */\n      dup1\n        /* \"contracts/Profile.sol\":6676:6686  msg.sender */\n      caller\n        /* \"contracts/Profile.sol\":6668:6687  profile[msg.sender] */\n      0xffffffffffffffffffffffffffffffffffffffff\n      and\n      0xffffffffffffffffffffffffffffffffffffffff\n      and\n      dup2\n      mstore\n      0x20\n      add\n      swap1\n      dup2\n      mstore\n      0x20\n      add\n      0x00\n      keccak256\n        /* \"contracts/Profile.sol\":6668:6707  profile[msg.sender].freelanceExperience */\n      0x15\n      add\n      0x00\n        /* \"contracts/Profile.sol\":6661:6707  delete profile[msg.sender].freelanceExperience */\n      tag_102\n      swap2\n      swap1\n      tag_103\n      jump\t// in\n    tag_102:\n        /* \"contracts/Profile.sol\":6607:6715  function delFreelanceExperience() external {\r... */\n      jump\t// out\n        /* \"contracts/Profile.sol\":5266:5814  function createCompanyExperience(string memory companyName, string memory position, string memory startDate, string memory endDate, string[] memory project) public {\r... */\n    tag_36:\n        /* \"contracts/Profile.sol\":5441:5484  CompanyExperience memory _companyExperience */\n      tag_105\n      tag_106\n      jump\t// in\n    tag_105:\n        /* \"contracts/Profile.sol\":5528:5539  companyName */\n      dup6\n        /* \"contracts/Profile.sol\":5495:5513  _companyExperience */\n      dup2\n        /* \"contracts/Profile.sol\":5495:5525  _companyExperience.companyName */\n      0x00\n      add\n        /* \"contracts/Profile.sol\":5495:5539  _companyExperience.companyName = companyName */\n      dup2\n      swap1\n      mstore\n      pop\n        /* \"contracts/Profile.sol\":5580:5588  position */\n      dup5\n        /* \"contracts/Profile.sol\":5550:5568  _companyExperience */\n      dup2\n        /* \"contracts/Profile.sol\":5550:5577  _companyExperience.position */\n      0x20\n      add\n        /* \"contracts/Profile.sol\":5550:5588  _companyExperience.position = position */\n      dup2\n      swap1\n      mstore\n      pop\n        /* \"contracts/Profile.sol\":5630:5639  startDate */\n      dup4\n        /* \"contracts/Profile.sol\":5599:5617  _companyExperience */\n      dup2\n        /* \"contracts/Profile.sol\":5599:5627  _companyExperience.startDate */\n      0x40\n      add\n        /* \"contracts/Profile.sol\":5599:5639  _companyExperience.startDate = startDate */\n      dup2\n      swap1\n      mstore\n      pop\n        /* \"contracts/Profile.sol\":5679:5686  endDate */\n      dup3\n        /* \"contracts/Profile.sol\":5650:5668  _companyExperience */\n      dup2\n        /* \"contracts/Profile.sol\":5650:5676  _companyExperience.endDate */\n      0x60\n      add\n        /* \"contracts/Profile.sol\":5650:5686  _companyExperience.endDate = endDate */\n      dup2\n      swap1\n      mstore\n      pop\n        /* \"contracts/Profile.sol\":5726:5733  project */\n      dup2\n        /* \"contracts/Profile.sol\":5697:5715  _companyExperience */\n      dup2\n        /* \"contracts/Profile.sol\":5697:5723  _companyExperience.project */\n      0x80\n      add\n        /* \"contracts/Profile.sol\":5697:5733  _companyExperience.project = project */\n      dup2\n      swap1\n      mstore\n      pop\n        /* \"contracts/Profile.sol\":5744:5751  profile */\n      0x00\n        /* \"contracts/Profile.sol\":5744:5763  profile[msg.sender] */\n      dup1\n        /* \"contracts/Profile.sol\":5752:5762  msg.sender */\n      caller\n        /* \"contracts/Profile.sol\":5744:5763  profile[msg.sender] */\n      0xffffffffffffffffffffffffffffffffffffffff\n      and\n      0xffffffffffffffffffffffffffffffffffffffff\n      and\n      dup2\n      mstore\n      0x20\n      add\n      swap1\n      dup2\n      mstore\n      0x20\n      add\n      0x00\n      keccak256\n        /* \"contracts/Profile.sol\":5744:5781  profile[msg.sender].companyExperience */\n      0x14\n      add\n        /* \"contracts/Profile.sol\":5787:5805  _companyExperience */\n      dup2\n        /* \"contracts/Profile.sol\":5744:5806  profile[msg.sender].companyExperience.push(_companyExperience) */\n      swap1\n      dup1\n      0x01\n      dup2\n      sload\n      add\n      dup1\n      dup3\n      sstore\n      dup1\n      swap2\n      pop\n      pop\n      0x01\n      swap1\n      sub\n      swap1\n      0x00\n      mstore\n      keccak256(0x00, 0x20)\n      swap1\n      0x05\n      mul\n      add\n      0x00\n      swap1\n      swap2\n      swap1\n      swap2\n      swap1\n      swap2\n      pop\n      0x00\n      dup3\n      add\n      mload\n      dup2\n      0x00\n      add\n      swap1\n      dup1\n      mload\n      swap1\n      0x20\n      add\n      swap1\n      tag_108\n      swap3\n      swap2\n      swap1\n      tag_109\n      jump\t// in\n    tag_108:\n      pop\n      0x20\n      dup3\n      add\n      mload\n      dup2\n      0x01\n      add\n      swap1\n      dup1\n      mload\n      swap1\n      0x20\n      add\n      swap1\n      tag_110\n      swap3\n      swap2\n      swap1\n      tag_109\n      jump\t// in\n    tag_110:\n      pop\n      0x40\n      dup3\n      add\n      mload\n      dup2\n      0x02\n      add\n      swap1\n      dup1\n      mload\n      swap1\n      0x20\n      add\n      swap1\n      tag_111\n      swap3\n      swap2\n      swap1\n      tag_109\n      jump\t// in\n    tag_111:\n      pop\n      0x60\n      dup3\n      add\n      mload\n      dup2\n      0x03\n      add\n      swap1\n      dup1\n      mload\n      swap1\n      0x20\n      add\n      swap1\n      tag_112\n      swap3\n      swap2\n      swap1\n      tag_109\n      jump\t// in\n    tag_112:\n      pop\n      0x80\n      dup3\n      add\n      mload\n      dup2\n      0x04\n      add\n      swap1\n      dup1\n      mload\n      swap1\n      0x20\n      add\n      swap1\n      tag_113\n      swap3\n      swap2\n      swap1\n      tag_114\n      jump\t// in\n    tag_113:\n      pop\n      pop\n      pop\n        /* \"contracts/Profile.sol\":5430:5814  {\r... */\n      pop\n        /* \"contracts/Profile.sol\":5266:5814  function createCompanyExperience(string memory companyName, string memory position, string memory startDate, string memory endDate, string[] memory project) public {\r... */\n      pop\n      pop\n      pop\n      pop\n      pop\n      jump\t// out\n        /* \"contracts/Profile.sol\":4531:4869  function createFreelanceExperience(string memory projectName, string memory Detail) public {\r... */\n    tag_40:\n        /* \"contracts/Profile.sol\":4633:4680  FreelanceExperience memory _freelanceExperience */\n      tag_116\n      tag_117\n      jump\t// in\n    tag_116:\n        /* \"contracts/Profile.sol\":4726:4737  projectName */\n      dup3\n        /* \"contracts/Profile.sol\":4691:4711  _freelanceExperience */\n      dup2\n        /* \"contracts/Profile.sol\":4691:4723  _freelanceExperience.projectName */\n      0x00\n      add\n        /* \"contracts/Profile.sol\":4691:4737  _freelanceExperience.projectName = projectName */\n      dup2\n      swap1\n      mstore\n      pop\n        /* \"contracts/Profile.sol\":4778:4784  Detail */\n      dup2\n        /* \"contracts/Profile.sol\":4748:4768  _freelanceExperience */\n      dup2\n        /* \"contracts/Profile.sol\":4748:4775  _freelanceExperience.Detail */\n      0x20\n      add\n        /* \"contracts/Profile.sol\":4748:4784  _freelanceExperience.Detail = Detail */\n      dup2\n      swap1\n      mstore\n      pop\n        /* \"contracts/Profile.sol\":4795:4802  profile */\n      0x00\n        /* \"contracts/Profile.sol\":4795:4814  profile[msg.sender] */\n      dup1\n        /* \"contracts/Profile.sol\":4803:4813  msg.sender */\n      caller\n        /* \"contracts/Profile.sol\":4795:4814  profile[msg.sender] */\n      0xffffffffffffffffffffffffffffffffffffffff\n      and\n      0xffffffffffffffffffffffffffffffffffffffff\n      and\n      dup2\n      mstore\n      0x20\n      add\n      swap1\n      dup2\n      mstore\n      0x20\n      add\n      0x00\n      keccak256\n        /* \"contracts/Profile.sol\":4795:4834  profile[msg.sender].freelanceExperience */\n      0x15\n      add\n        /* \"contracts/Profile.sol\":4840:4860  _freelanceExperience */\n      dup2\n        /* \"contracts/Profile.sol\":4795:4861  profile[msg.sender].freelanceExperience.push(_freelanceExperience) */\n      swap1\n      dup1\n      0x01\n      dup2\n      sload\n      add\n      dup1\n      dup3\n      sstore\n      dup1\n      swap2\n      pop\n      pop\n      0x01\n      swap1\n      sub\n      swap1\n      0x00\n      mstore\n      keccak256(0x00, 0x20)\n      swap1\n      0x02\n      mul\n      add\n      0x00\n      swap1\n      swap2\n      swap1\n      swap2\n      swap1\n      swap2\n      pop\n      0x00\n      dup3\n      add\n      mload\n      dup2\n      0x00\n      add\n      swap1\n      dup1\n      mload\n      swap1\n      0x20\n      add\n      swap1\n      tag_119\n      swap3\n      swap2\n      swap1\n      tag_109\n      jump\t// in\n    tag_119:\n      pop\n      0x20\n      dup3\n      add\n      mload\n      dup2\n      0x01\n      add\n      swap1\n      dup1\n      mload\n      swap1\n      0x20\n      add\n      swap1\n      tag_120\n      swap3\n      swap2\n      swap1\n      tag_109\n      jump\t// in\n    tag_120:\n      pop\n      pop\n      pop\n        /* \"contracts/Profile.sol\":4622:4869  {\r... */\n      pop\n        /* \"contracts/Profile.sol\":4531:4869  function createFreelanceExperience(string memory projectName, string memory Detail) public {\r... */\n      pop\n      pop\n      jump\t// out\n        /* \"contracts/Profile.sol\":2894:3282  function createSkill(string[] memory programmingLanguages, string[] memory framework, string[] memory databaseAndOther) public {\r... */\n    tag_44:\n        /* \"contracts/Profile.sol\":3039:3046  profile */\n      0x00\n        /* \"contracts/Profile.sol\":3039:3058  profile[msg.sender] */\n      dup1\n        /* \"contracts/Profile.sol\":3047:3057  msg.sender */\n      caller\n        /* \"contracts/Profile.sol\":3039:3058  profile[msg.sender] */\n      0xffffffffffffffffffffffffffffffffffffffff\n      and\n      0xffffffffffffffffffffffffffffffffffffffff\n      and\n      dup2\n      mstore\n      0x20\n      add\n      swap1\n      dup2\n      mstore\n      0x20\n      add\n      0x00\n      keccak256\n        /* \"contracts/Profile.sol\":3039:3064  profile[msg.sender].skill */\n      0x0e\n      add\n      0x00\n        /* \"contracts/Profile.sol\":3032:3064  delete profile[msg.sender].skill */\n      dup1\n      dup3\n      add\n      0x00\n      tag_122\n      swap2\n      swap1\n      tag_123\n      jump\t// in\n    tag_122:\n      0x01\n      dup3\n      add\n      0x00\n      tag_124\n      swap2\n      swap1\n      tag_123\n      jump\t// in\n    tag_124:\n      0x02\n      dup3\n      add\n      0x00\n      tag_125\n      swap2\n      swap1\n      tag_123\n      jump\t// in\n    tag_125:\n      pop\n      pop\n        /* \"contracts/Profile.sol\":3124:3144  programmingLanguages */\n      dup3\n        /* \"contracts/Profile.sol\":3075:3082  profile */\n      0x00\n        /* \"contracts/Profile.sol\":3075:3094  profile[msg.sender] */\n      dup1\n        /* \"contracts/Profile.sol\":3083:3093  msg.sender */\n      caller\n        /* \"contracts/Profile.sol\":3075:3094  profile[msg.sender] */\n      0xffffffffffffffffffffffffffffffffffffffff\n      and\n      0xffffffffffffffffffffffffffffffffffffffff\n      and\n      dup2\n      mstore\n      0x20\n      add\n      swap1\n      dup2\n      mstore\n      0x20\n      add\n      0x00\n      keccak256\n        /* \"contracts/Profile.sol\":3075:3100  profile[msg.sender].skill */\n      0x0e\n      add\n        /* \"contracts/Profile.sol\":3075:3121  profile[msg.sender].skill.programmingLanguages */\n      0x00\n      add\n        /* \"contracts/Profile.sol\":3075:3144  profile[msg.sender].skill.programmingLanguages = programmingLanguages */\n      swap1\n      dup1\n      mload\n      swap1\n      0x20\n      add\n      swap1\n      tag_126\n      swap3\n      swap2\n      swap1\n      tag_114\n      jump\t// in\n    tag_126:\n      pop\n        /* \"contracts/Profile.sol\":3193:3202  framework */\n      dup2\n        /* \"contracts/Profile.sol\":3155:3162  profile */\n      0x00\n        /* \"contracts/Profile.sol\":3155:3174  profile[msg.sender] */\n      dup1\n        /* \"contracts/Profile.sol\":3163:3173  msg.sender */\n      caller\n        /* \"contracts/Profile.sol\":3155:3174  profile[msg.sender] */\n      0xffffffffffffffffffffffffffffffffffffffff\n      and\n      0xffffffffffffffffffffffffffffffffffffffff\n      and\n      dup2\n      mstore\n      0x20\n      add\n      swap1\n      dup2\n      mstore\n      0x20\n      add\n      0x00\n      keccak256\n        /* \"contracts/Profile.sol\":3155:3180  profile[msg.sender].skill */\n      0x0e\n      add\n        /* \"contracts/Profile.sol\":3155:3190  profile[msg.sender].skill.framework */\n      0x01\n      add\n        /* \"contracts/Profile.sol\":3155:3202  profile[msg.sender].skill.framework = framework */\n      swap1\n      dup1\n      mload\n      swap1\n      0x20\n      add\n      swap1\n      tag_127\n      swap3\n      swap2\n      swap1\n      tag_114\n      jump\t// in\n    tag_127:\n      pop\n        /* \"contracts/Profile.sol\":3258:3274  databaseAndOther */\n      dup1\n        /* \"contracts/Profile.sol\":3213:3220  profile */\n      0x00\n        /* \"contracts/Profile.sol\":3213:3232  profile[msg.sender] */\n      dup1\n        /* \"contracts/Profile.sol\":3221:3231  msg.sender */\n      caller\n        /* \"contracts/Profile.sol\":3213:3232  profile[msg.sender] */\n      0xffffffffffffffffffffffffffffffffffffffff\n      and\n      0xffffffffffffffffffffffffffffffffffffffff\n      and\n      dup2\n      mstore\n      0x20\n      add\n      swap1\n      dup2\n      mstore\n      0x20\n      add\n      0x00\n      keccak256\n        /* \"contracts/Profile.sol\":3213:3238  profile[msg.sender].skill */\n      0x0e\n      add\n        /* \"contracts/Profile.sol\":3213:3255  profile[msg.sender].skill.databaseAndOther */\n      0x02\n      add\n        /* \"contracts/Profile.sol\":3213:3274  profile[msg.sender].skill.databaseAndOther = databaseAndOther */\n      swap1\n      dup1\n      mload\n      swap1\n      0x20\n      add\n      swap1\n      tag_128\n      swap3\n      swap2\n      swap1\n      tag_114\n      jump\t// in\n    tag_128:\n      pop\n        /* \"contracts/Profile.sol\":2894:3282  function createSkill(string[] memory programmingLanguages, string[] memory framework, string[] memory databaseAndOther) public {\r... */\n      pop\n      pop\n      pop\n      jump\t// out\n        /* \"contracts/Profile.sol\":6063:6199  function getCompanyExperienceCount() public view returns (uint) {\r... */\n    tag_46:\n        /* \"contracts/Profile.sol\":6121:6125  uint */\n      0x00\n        /* \"contracts/Profile.sol\":6145:6152  profile */\n      dup1\n        /* \"contracts/Profile.sol\":6145:6164  profile[msg.sender] */\n      0x00\n        /* \"contracts/Profile.sol\":6153:6163  msg.sender */\n      caller\n        /* \"contracts/Profile.sol\":6145:6164  profile[msg.sender] */\n      0xffffffffffffffffffffffffffffffffffffffff\n      and\n      0xffffffffffffffffffffffffffffffffffffffff\n      and\n      dup2\n      mstore\n      0x20\n      add\n      swap1\n      dup2\n      mstore\n      0x20\n      add\n      0x00\n      keccak256\n        /* \"contracts/Profile.sol\":6145:6184  profile[msg.sender].freelanceExperience */\n      0x15\n      add\n        /* \"contracts/Profile.sol\":6145:6191  profile[msg.sender].freelanceExperience.length */\n      dup1\n      sload\n      swap1\n      pop\n        /* \"contracts/Profile.sol\":6138:6191  return profile[msg.sender].freelanceExperience.length */\n      swap1\n      pop\n        /* \"contracts/Profile.sol\":6063:6199  function getCompanyExperienceCount() public view returns (uint) {\r... */\n      swap1\n      jump\t// out\n        /* \"contracts/Profile.sol\":5822:6055  function getCompanyExperience(uint index) public view returns(string memory, string memory) {\r... */\n    tag_51:\n        /* \"contracts/Profile.sol\":5884:5897  string memory */\n      0x60\n        /* \"contracts/Profile.sol\":5899:5912  string memory */\n      dup1\n        /* \"contracts/Profile.sol\":5933:5940  profile */\n      0x00\n        /* \"contracts/Profile.sol\":5933:5952  profile[msg.sender] */\n      dup1\n        /* \"contracts/Profile.sol\":5941:5951  msg.sender */\n      caller\n        /* \"contracts/Profile.sol\":5933:5952  profile[msg.sender] */\n      0xffffffffffffffffffffffffffffffffffffffff\n      and\n      0xffffffffffffffffffffffffffffffffffffffff\n      and\n      dup2\n      mstore\n      0x20\n      add\n      swap1\n      dup2\n      mstore\n      0x20\n      add\n      0x00\n      keccak256\n        /* \"contracts/Profile.sol\":5933:5972  profile[msg.sender].freelanceExperience */\n      0x15\n      add\n        /* \"contracts/Profile.sol\":5973:5978  index */\n      dup4\n        /* \"contracts/Profile.sol\":5933:5979  profile[msg.sender].freelanceExperience[index] */\n      dup2\n      sload\n      dup2\n      lt\n      tag_131\n      jumpi\n      tag_132\n      tag_133\n      jump\t// in\n    tag_132:\n    tag_131:\n      swap1\n      0x00\n      mstore\n      keccak256(0x00, 0x20)\n      swap1\n      0x02\n      mul\n      add\n        /* \"contracts/Profile.sol\":5933:5991  profile[msg.sender].freelanceExperience[index].projectName */\n      0x00\n      add\n        /* \"contracts/Profile.sol\":5993:6000  profile */\n      0x00\n        /* \"contracts/Profile.sol\":5993:6012  profile[msg.sender] */\n      dup1\n        /* \"contracts/Profile.sol\":6001:6011  msg.sender */\n      caller\n        /* \"contracts/Profile.sol\":5993:6012  profile[msg.sender] */\n      0xffffffffffffffffffffffffffffffffffffffff\n      and\n      0xffffffffffffffffffffffffffffffffffffffff\n      and\n      dup2\n      mstore\n      0x20\n      add\n      swap1\n      dup2\n      mstore\n      0x20\n      add\n      0x00\n      keccak256\n        /* \"contracts/Profile.sol\":5993:6032  profile[msg.sender].freelanceExperience */\n      0x15\n      add\n        /* \"contracts/Profile.sol\":6033:6038  index */\n      dup5\n        /* \"contracts/Profile.sol\":5993:6039  profile[msg.sender].freelanceExperience[index] */\n      dup2\n      sload\n      dup2\n      lt\n      tag_135\n      jumpi\n      tag_136\n      tag_133\n      jump\t// in\n    tag_136:\n    tag_135:\n      swap1\n      0x00\n      mstore\n      keccak256(0x00, 0x20)\n      swap1\n      0x02\n      mul\n      add\n        /* \"contracts/Profile.sol\":5993:6046  profile[msg.sender].freelanceExperience[index].Detail */\n      0x01\n      add\n        /* \"contracts/Profile.sol\":5925:6047  return (profile[msg.sender].freelanceExperience[index].projectName, profile[msg.sender].freelanceExperience[index].Detail) */\n      dup2\n      dup1\n      sload\n      tag_138\n      swap1\n      tag_139\n      jump\t// in\n    tag_138:\n      dup1\n      0x1f\n      add\n      0x20\n      dup1\n      swap2\n      div\n      mul\n      0x20\n      add\n      mload(0x40)\n      swap1\n      dup2\n      add\n      0x40\n      mstore\n      dup1\n      swap3\n      swap2\n      swap1\n      dup2\n      dup2\n      mstore\n      0x20\n      add\n      dup3\n      dup1\n      sload\n      tag_140\n      swap1\n      tag_139\n      jump\t// in\n    tag_140:\n      dup1\n      iszero\n      tag_141\n      jumpi\n      dup1\n      0x1f\n      lt\n      tag_142\n      jumpi\n      0x0100\n      dup1\n      dup4\n      sload\n      div\n      mul\n      dup4\n      mstore\n      swap2\n      0x20\n      add\n      swap2\n      jump(tag_141)\n    tag_142:\n      dup3\n      add\n      swap2\n      swap1\n      0x00\n      mstore\n      keccak256(0x00, 0x20)\n      swap1\n    tag_143:\n      dup2\n      sload\n      dup2\n      mstore\n      swap1\n      0x01\n      add\n      swap1\n      0x20\n      add\n      dup1\n      dup4\n      gt\n      tag_143\n      jumpi\n      dup3\n      swap1\n      sub\n      0x1f\n      and\n      dup3\n      add\n      swap2\n    tag_141:\n      pop\n      pop\n      pop\n      pop\n      pop\n      swap2\n      pop\n      dup1\n      dup1\n      sload\n      tag_144\n      swap1\n      tag_139\n      jump\t// in\n    tag_144:\n      dup1\n      0x1f\n      add\n      0x20\n      dup1\n      swap2\n      div\n      mul\n      0x20\n      add\n      mload(0x40)\n      swap1\n      dup2\n      add\n      0x40\n      mstore\n      dup1\n      swap3\n      swap2\n      swap1\n      dup2\n      dup2\n      mstore\n      0x20\n      add\n      dup3\n      dup1\n      sload\n      tag_145\n      swap1\n      tag_139\n      jump\t// in\n    tag_145:\n      dup1\n      iszero\n      tag_146\n      jumpi\n      dup1\n      0x1f\n      lt\n      tag_147\n      jumpi\n      0x0100\n      dup1\n      dup4\n      sload\n      div\n      mul\n      dup4\n      mstore\n      swap2\n      0x20\n      add\n      swap2\n      jump(tag_146)\n    tag_147:\n      dup3\n      add\n      swap2\n      swap1\n      0x00\n      mstore\n      keccak256(0x00, 0x20)\n      swap1\n    tag_148:\n      dup2\n      sload\n      dup2\n      mstore\n      swap1\n      0x01\n      add\n      swap1\n      0x20\n      add\n      dup1\n      dup4\n      gt\n      tag_148\n      jumpi\n      dup3\n      swap1\n      sub\n      0x1f\n      and\n      dup3\n      add\n      swap2\n    tag_146:\n      pop\n      pop\n      pop\n      pop\n      pop\n      swap1\n      pop\n      swap2\n      pop\n      swap2\n      pop\n        /* \"contracts/Profile.sol\":5822:6055  function getCompanyExperience(uint index) public view returns(string memory, string memory) {\r... */\n      swap2\n      pop\n      swap2\n      jump\t// out\n        /* \"contracts/Profile.sol\":6491:6599  function delCertificateAndAward() external {\r... */\n    tag_55:\n        /* \"contracts/Profile.sol\":6552:6559  profile */\n      0x00\n        /* \"contracts/Profile.sol\":6552:6571  profile[msg.sender] */\n      dup1\n        /* \"contracts/Profile.sol\":6560:6570  msg.sender */\n      caller\n        /* \"contracts/Profile.sol\":6552:6571  profile[msg.sender] */\n      0xffffffffffffffffffffffffffffffffffffffff\n      and\n      0xffffffffffffffffffffffffffffffffffffffff\n      and\n      dup2\n      mstore\n      0x20\n      add\n      swap1\n      dup2\n      mstore\n      0x20\n      add\n      0x00\n      keccak256\n        /* \"contracts/Profile.sol\":6552:6591  profile[msg.sender].certificateAndAward */\n      0x12\n      add\n      0x00\n        /* \"contracts/Profile.sol\":6545:6591  delete profile[msg.sender].certificateAndAward */\n      dup1\n      dup3\n      add\n      0x00\n      tag_150\n      swap2\n      swap1\n      tag_123\n      jump\t// in\n    tag_150:\n      0x01\n      dup3\n      add\n      0x00\n      tag_151\n      swap2\n      swap1\n      tag_123\n      jump\t// in\n    tag_151:\n      pop\n      pop\n        /* \"contracts/Profile.sol\":6491:6599  function delCertificateAndAward() external {\r... */\n      jump\t// out\n        /* \"contracts/Profile.sol\":4169:4287  function getEducationCount() public view returns (uint) {\r... */\n    tag_57:\n        /* \"contracts/Profile.sol\":4219:4223  uint */\n      0x00\n        /* \"contracts/Profile.sol\":4243:4250  profile */\n      dup1\n        /* \"contracts/Profile.sol\":4243:4262  profile[msg.sender] */\n      0x00\n        /* \"contracts/Profile.sol\":4251:4261  msg.sender */\n      caller\n        /* \"contracts/Profile.sol\":4243:4262  profile[msg.sender] */\n      0xffffffffffffffffffffffffffffffffffffffff\n      and\n      0xffffffffffffffffffffffffffffffffffffffff\n      and\n      dup2\n      mstore\n      0x20\n      add\n      swap1\n      dup2\n      mstore\n      0x20\n      add\n      0x00\n      keccak256\n        /* \"contracts/Profile.sol\":4243:4272  profile[msg.sender].education */\n      0x11\n      add\n        /* \"contracts/Profile.sol\":4243:4279  profile[msg.sender].education.length */\n      dup1\n      sload\n      swap1\n      pop\n        /* \"contracts/Profile.sol\":4236:4279  return profile[msg.sender].education.length */\n      swap1\n      pop\n        /* \"contracts/Profile.sol\":4169:4287  function getEducationCount() public view returns (uint) {\r... */\n      swap1\n      jump\t// out\n        /* \"contracts/Profile.sol\":4295:4523  function createAward(string[] memory award, string[] memory certificate) public {\r... */\n    tag_62:\n        /* \"contracts/Profile.sol\":4434:4439  award */\n      dup2\n        /* \"contracts/Profile.sol\":4386:4393  profile */\n      0x00\n        /* \"contracts/Profile.sol\":4386:4405  profile[msg.sender] */\n      dup1\n        /* \"contracts/Profile.sol\":4394:4404  msg.sender */\n      caller\n        /* \"contracts/Profile.sol\":4386:4405  profile[msg.sender] */\n      0xffffffffffffffffffffffffffffffffffffffff\n      and\n      0xffffffffffffffffffffffffffffffffffffffff\n      and\n      dup2\n      mstore\n      0x20\n      add\n      swap1\n      dup2\n      mstore\n      0x20\n      add\n      0x00\n      keccak256\n        /* \"contracts/Profile.sol\":4386:4425  profile[msg.sender].certificateAndAward */\n      0x12\n      add\n        /* \"contracts/Profile.sol\":4386:4431  profile[msg.sender].certificateAndAward.award */\n      0x01\n      add\n        /* \"contracts/Profile.sol\":4386:4439  profile[msg.sender].certificateAndAward.award = award */\n      swap1\n      dup1\n      mload\n      swap1\n      0x20\n      add\n      swap1\n      tag_154\n      swap3\n      swap2\n      swap1\n      tag_114\n      jump\t// in\n    tag_154:\n      pop\n        /* \"contracts/Profile.sol\":4504:4515  certificate */\n      dup1\n        /* \"contracts/Profile.sol\":4450:4457  profile */\n      0x00\n        /* \"contracts/Profile.sol\":4450:4469  profile[msg.sender] */\n      dup1\n        /* \"contracts/Profile.sol\":4458:4468  msg.sender */\n      caller\n        /* \"contracts/Profile.sol\":4450:4469  profile[msg.sender] */\n      0xffffffffffffffffffffffffffffffffffffffff\n      and\n      0xffffffffffffffffffffffffffffffffffffffff\n      and\n      dup2\n      mstore\n      0x20\n      add\n      swap1\n      dup2\n      mstore\n      0x20\n      add\n      0x00\n      keccak256\n        /* \"contracts/Profile.sol\":4450:4489  profile[msg.sender].certificateAndAward */\n      0x12\n      add\n        /* \"contracts/Profile.sol\":4450:4501  profile[msg.sender].certificateAndAward.certificate */\n      0x00\n      add\n        /* \"contracts/Profile.sol\":4450:4515  profile[msg.sender].certificateAndAward.certificate = certificate */\n      swap1\n      dup1\n      mload\n      swap1\n      0x20\n      add\n      swap1\n      tag_155\n      swap3\n      swap2\n      swap1\n      tag_114\n      jump\t// in\n    tag_155:\n      pop\n        /* \"contracts/Profile.sol\":4295:4523  function createAward(string[] memory award, string[] memory certificate) public {\r... */\n      pop\n      pop\n      jump\t// out\n        /* \"contracts/Profile.sol\":2374:2886  function createContract(string memory email, string memory phone, string memory github, string memory gitlab, string memory linkedin) public {\r... */\n    tag_66:\n        /* \"contracts/Profile.sol\":2533:2540  profile */\n      0x00\n        /* \"contracts/Profile.sol\":2533:2552  profile[msg.sender] */\n      dup1\n        /* \"contracts/Profile.sol\":2541:2551  msg.sender */\n      caller\n        /* \"contracts/Profile.sol\":2533:2552  profile[msg.sender] */\n      0xffffffffffffffffffffffffffffffffffffffff\n      and\n      0xffffffffffffffffffffffffffffffffffffffff\n      and\n      dup2\n      mstore\n      0x20\n      add\n      swap1\n      dup2\n      mstore\n      0x20\n      add\n      0x00\n      keccak256\n        /* \"contracts/Profile.sol\":2533:2568  profile[msg.sender].privateContract */\n      0x08\n      add\n      0x00\n        /* \"contracts/Profile.sol\":2526:2568  delete profile[msg.sender].privateContract */\n      dup1\n      dup3\n      add\n      0x00\n      tag_157\n      swap2\n      swap1\n      tag_158\n      jump\t// in\n    tag_157:\n      0x01\n      dup3\n      add\n      0x00\n      tag_159\n      swap2\n      swap1\n      tag_158\n      jump\t// in\n    tag_159:\n      0x02\n      dup3\n      add\n      0x00\n      tag_160\n      swap2\n      swap1\n      tag_158\n      jump\t// in\n    tag_160:\n      0x03\n      dup3\n      add\n      0x00\n      tag_161\n      swap2\n      swap1\n      tag_158\n      jump\t// in\n    tag_161:\n      0x04\n      dup3\n      add\n      0x00\n      tag_162\n      swap2\n      swap1\n      tag_158\n      jump\t// in\n    tag_162:\n      0x05\n      dup3\n      add\n      0x00\n      tag_163\n      swap2\n      swap1\n      tag_158\n      jump\t// in\n    tag_163:\n      pop\n      pop\n        /* \"contracts/Profile.sol\":2623:2628  email */\n      dup5\n        /* \"contracts/Profile.sol\":2579:2586  profile */\n      0x00\n        /* \"contracts/Profile.sol\":2579:2598  profile[msg.sender] */\n      dup1\n        /* \"contracts/Profile.sol\":2587:2597  msg.sender */\n      caller\n        /* \"contracts/Profile.sol\":2579:2598  profile[msg.sender] */\n      0xffffffffffffffffffffffffffffffffffffffff\n      and\n      0xffffffffffffffffffffffffffffffffffffffff\n      and\n      dup2\n      mstore\n      0x20\n      add\n      swap1\n      dup2\n      mstore\n      0x20\n      add\n      0x00\n      keccak256\n        /* \"contracts/Profile.sol\":2579:2614  profile[msg.sender].privateContract */\n      0x08\n      add\n        /* \"contracts/Profile.sol\":2579:2620  profile[msg.sender].privateContract.email */\n      0x01\n      add\n        /* \"contracts/Profile.sol\":2579:2628  profile[msg.sender].privateContract.email = email */\n      swap1\n      dup1\n      mload\n      swap1\n      0x20\n      add\n      swap1\n      tag_164\n      swap3\n      swap2\n      swap1\n      tag_109\n      jump\t// in\n    tag_164:\n      pop\n        /* \"contracts/Profile.sol\":2683:2688  phone */\n      dup4\n        /* \"contracts/Profile.sol\":2639:2646  profile */\n      0x00\n        /* \"contracts/Profile.sol\":2639:2658  profile[msg.sender] */\n      dup1\n        /* \"contracts/Profile.sol\":2647:2657  msg.sender */\n      caller\n        /* \"contracts/Profile.sol\":2639:2658  profile[msg.sender] */\n      0xffffffffffffffffffffffffffffffffffffffff\n      and\n      0xffffffffffffffffffffffffffffffffffffffff\n      and\n      dup2\n      mstore\n      0x20\n      add\n      swap1\n      dup2\n      mstore\n      0x20\n      add\n      0x00\n      keccak256\n        /* \"contracts/Profile.sol\":2639:2674  profile[msg.sender].privateContract */\n      0x08\n      add\n        /* \"contracts/Profile.sol\":2639:2680  profile[msg.sender].privateContract.phone */\n      0x02\n      add\n        /* \"contracts/Profile.sol\":2639:2688  profile[msg.sender].privateContract.phone = phone */\n      swap1\n      dup1\n      mload\n      swap1\n      0x20\n      add\n      swap1\n      tag_165\n      swap3\n      swap2\n      swap1\n      tag_109\n      jump\t// in\n    tag_165:\n      pop\n        /* \"contracts/Profile.sol\":2744:2750  github */\n      dup3\n        /* \"contracts/Profile.sol\":2699:2706  profile */\n      0x00\n        /* \"contracts/Profile.sol\":2699:2718  profile[msg.sender] */\n      dup1\n        /* \"contracts/Profile.sol\":2707:2717  msg.sender */\n      caller\n        /* \"contracts/Profile.sol\":2699:2718  profile[msg.sender] */\n      0xffffffffffffffffffffffffffffffffffffffff\n      and\n      0xffffffffffffffffffffffffffffffffffffffff\n      and\n      dup2\n      mstore\n      0x20\n      add\n      swap1\n      dup2\n      mstore\n      0x20\n      add\n      0x00\n      keccak256\n        /* \"contracts/Profile.sol\":2699:2734  profile[msg.sender].privateContract */\n      0x08\n      add\n        /* \"contracts/Profile.sol\":2699:2741  profile[msg.sender].privateContract.github */\n      0x03\n      add\n        /* \"contracts/Profile.sol\":2699:2750  profile[msg.sender].privateContract.github = github */\n      swap1\n      dup1\n      mload\n      swap1\n      0x20\n      add\n      swap1\n      tag_166\n      swap3\n      swap2\n      swap1\n      tag_109\n      jump\t// in\n    tag_166:\n      pop\n        /* \"contracts/Profile.sol\":2806:2812  gitlab */\n      dup2\n        /* \"contracts/Profile.sol\":2761:2768  profile */\n      0x00\n        /* \"contracts/Profile.sol\":2761:2780  profile[msg.sender] */\n      dup1\n        /* \"contracts/Profile.sol\":2769:2779  msg.sender */\n      caller\n        /* \"contracts/Profile.sol\":2761:2780  profile[msg.sender] */\n      0xffffffffffffffffffffffffffffffffffffffff\n      and\n      0xffffffffffffffffffffffffffffffffffffffff\n      and\n      dup2\n      mstore\n      0x20\n      add\n      swap1\n      dup2\n      mstore\n      0x20\n      add\n      0x00\n      keccak256\n        /* \"contracts/Profile.sol\":2761:2796  profile[msg.sender].privateContract */\n      0x08\n      add\n        /* \"contracts/Profile.sol\":2761:2803  profile[msg.sender].privateContract.gitlab */\n      0x04\n      add\n        /* \"contracts/Profile.sol\":2761:2812  profile[msg.sender].privateContract.gitlab = gitlab */\n      swap1\n      dup1\n      mload\n      swap1\n      0x20\n      add\n      swap1\n      tag_167\n      swap3\n      swap2\n      swap1\n      tag_109\n      jump\t// in\n    tag_167:\n      pop\n        /* \"contracts/Profile.sol\":2870:2878  linkedin */\n      dup1\n        /* \"contracts/Profile.sol\":2823:2830  profile */\n      0x00\n        /* \"contracts/Profile.sol\":2823:2842  profile[msg.sender] */\n      dup1\n        /* \"contracts/Profile.sol\":2831:2841  msg.sender */\n      caller\n        /* \"contracts/Profile.sol\":2823:2842  profile[msg.sender] */\n      0xffffffffffffffffffffffffffffffffffffffff\n      and\n      0xffffffffffffffffffffffffffffffffffffffff\n      and\n      dup2\n      mstore\n      0x20\n      add\n      swap1\n      dup2\n      mstore\n      0x20\n      add\n      0x00\n      keccak256\n        /* \"contracts/Profile.sol\":2823:2858  profile[msg.sender].privateContract */\n      0x08\n      add\n        /* \"contracts/Profile.sol\":2823:2867  profile[msg.sender].privateContract.linkedin */\n      0x05\n      add\n        /* \"contracts/Profile.sol\":2823:2878  profile[msg.sender].privateContract.linkedin = linkedin */\n      swap1\n      dup1\n      mload\n      swap1\n      0x20\n      add\n      swap1\n      tag_168\n      swap3\n      swap2\n      swap1\n      tag_109\n      jump\t// in\n    tag_168:\n      pop\n        /* \"contracts/Profile.sol\":2374:2886  function createContract(string memory email, string memory phone, string memory github, string memory gitlab, string memory linkedin) public {\r... */\n      pop\n      pop\n      pop\n      pop\n      pop\n      jump\t// out\n        /* \"contracts/Profile.sol\":1650:2366  function createInformation(string memory firstName, string memory middleName, string memory lastName,  string memory profileImage, string memory aboutMe, string memory position) public {\r... */\n    tag_70:\n        /* \"contracts/Profile.sol\":1890:1899  firstName */\n      dup6\n        /* \"contracts/Profile.sol\":1846:1853  profile */\n      0x00\n        /* \"contracts/Profile.sol\":1846:1865  profile[msg.sender] */\n      dup1\n        /* \"contracts/Profile.sol\":1854:1864  msg.sender */\n      caller\n        /* \"contracts/Profile.sol\":1846:1865  profile[msg.sender] */\n      0xffffffffffffffffffffffffffffffffffffffff\n      and\n      0xffffffffffffffffffffffffffffffffffffffff\n      and\n      dup2\n      mstore\n      0x20\n      add\n      swap1\n      dup2\n      mstore\n      0x20\n      add\n      0x00\n      keccak256\n        /* \"contracts/Profile.sol\":1846:1877  profile[msg.sender].information */\n      0x00\n      add\n        /* \"contracts/Profile.sol\":1846:1887  profile[msg.sender].information.firstName */\n      0x03\n      add\n        /* \"contracts/Profile.sol\":1846:1899  profile[msg.sender].information.firstName = firstName */\n      swap1\n      dup1\n      mload\n      swap1\n      0x20\n      add\n      swap1\n      tag_170\n      swap3\n      swap2\n      swap1\n      tag_109\n      jump\t// in\n    tag_170:\n      pop\n        /* \"contracts/Profile.sol\":1955:1965  middleName */\n      dup5\n        /* \"contracts/Profile.sol\":1910:1917  profile */\n      0x00\n        /* \"contracts/Profile.sol\":1910:1929  profile[msg.sender] */\n      dup1\n        /* \"contracts/Profile.sol\":1918:1928  msg.sender */\n      caller\n        /* \"contracts/Profile.sol\":1910:1929  profile[msg.sender] */\n      0xffffffffffffffffffffffffffffffffffffffff\n      and\n      0xffffffffffffffffffffffffffffffffffffffff\n      and\n      dup2\n      mstore\n      0x20\n      add\n      swap1\n      dup2\n      mstore\n      0x20\n      add\n      0x00\n      keccak256\n        /* \"contracts/Profile.sol\":1910:1941  profile[msg.sender].information */\n      0x00\n      add\n        /* \"contracts/Profile.sol\":1910:1952  profile[msg.sender].information.middleName */\n      0x04\n      add\n        /* \"contracts/Profile.sol\":1910:1965  profile[msg.sender].information.middleName = middleName */\n      swap1\n      dup1\n      mload\n      swap1\n      0x20\n      add\n      swap1\n      tag_171\n      swap3\n      swap2\n      swap1\n      tag_109\n      jump\t// in\n    tag_171:\n      pop\n        /* \"contracts/Profile.sol\":2019:2027  lastName */\n      dup4\n        /* \"contracts/Profile.sol\":1976:1983  profile */\n      0x00\n        /* \"contracts/Profile.sol\":1976:1995  profile[msg.sender] */\n      dup1\n        /* \"contracts/Profile.sol\":1984:1994  msg.sender */\n      caller\n        /* \"contracts/Profile.sol\":1976:1995  profile[msg.sender] */\n      0xffffffffffffffffffffffffffffffffffffffff\n      and\n      0xffffffffffffffffffffffffffffffffffffffff\n      and\n      dup2\n      mstore\n      0x20\n      add\n      swap1\n      dup2\n      mstore\n      0x20\n      add\n      0x00\n      keccak256\n        /* \"contracts/Profile.sol\":1976:2007  profile[msg.sender].information */\n      0x00\n      add\n        /* \"contracts/Profile.sol\":1976:2016  profile[msg.sender].information.lastName */\n      0x05\n      add\n        /* \"contracts/Profile.sol\":1976:2027  profile[msg.sender].information.lastName = lastName */\n      swap1\n      dup1\n      mload\n      swap1\n      0x20\n      add\n      swap1\n      tag_172\n      swap3\n      swap2\n      swap1\n      tag_109\n      jump\t// in\n    tag_172:\n      pop\n        /* \"contracts/Profile.sol\":2085:2097  profileImage */\n      dup3\n        /* \"contracts/Profile.sol\":2038:2045  profile */\n      0x00\n        /* \"contracts/Profile.sol\":2038:2057  profile[msg.sender] */\n      dup1\n        /* \"contracts/Profile.sol\":2046:2056  msg.sender */\n      caller\n        /* \"contracts/Profile.sol\":2038:2057  profile[msg.sender] */\n      0xffffffffffffffffffffffffffffffffffffffff\n      and\n      0xffffffffffffffffffffffffffffffffffffffff\n      and\n      dup2\n      mstore\n      0x20\n      add\n      swap1\n      dup2\n      mstore\n      0x20\n      add\n      0x00\n      keccak256\n        /* \"contracts/Profile.sol\":2038:2069  profile[msg.sender].information */\n      0x00\n      add\n        /* \"contracts/Profile.sol\":2038:2082  profile[msg.sender].information.profileImage */\n      0x06\n      add\n        /* \"contracts/Profile.sol\":2038:2097  profile[msg.sender].information.profileImage = profileImage */\n      swap1\n      dup1\n      mload\n      swap1\n      0x20\n      add\n      swap1\n      tag_173\n      swap3\n      swap2\n      swap1\n      tag_109\n      jump\t// in\n    tag_173:\n      pop\n        /* \"contracts/Profile.sol\":2150:2157  aboutMe */\n      dup2\n        /* \"contracts/Profile.sol\":2108:2115  profile */\n      0x00\n        /* \"contracts/Profile.sol\":2108:2127  profile[msg.sender] */\n      dup1\n        /* \"contracts/Profile.sol\":2116:2126  msg.sender */\n      caller\n        /* \"contracts/Profile.sol\":2108:2127  profile[msg.sender] */\n      0xffffffffffffffffffffffffffffffffffffffff\n      and\n      0xffffffffffffffffffffffffffffffffffffffff\n      and\n      dup2\n      mstore\n      0x20\n      add\n      swap1\n      dup2\n      mstore\n      0x20\n      add\n      0x00\n      keccak256\n        /* \"contracts/Profile.sol\":2108:2139  profile[msg.sender].information */\n      0x00\n      add\n        /* \"contracts/Profile.sol\":2108:2147  profile[msg.sender].information.aboutMe */\n      0x00\n      add\n        /* \"contracts/Profile.sol\":2108:2157  profile[msg.sender].information.aboutMe = aboutMe */\n      swap1\n      dup1\n      mload\n      swap1\n      0x20\n      add\n      swap1\n      tag_174\n      swap3\n      swap2\n      swap1\n      tag_109\n      jump\t// in\n    tag_174:\n      pop\n        /* \"contracts/Profile.sol\":2211:2219  position */\n      dup1\n        /* \"contracts/Profile.sol\":2168:2175  profile */\n      0x00\n        /* \"contracts/Profile.sol\":2168:2187  profile[msg.sender] */\n      dup1\n        /* \"contracts/Profile.sol\":2176:2186  msg.sender */\n      caller\n        /* \"contracts/Profile.sol\":2168:2187  profile[msg.sender] */\n      0xffffffffffffffffffffffffffffffffffffffff\n      and\n      0xffffffffffffffffffffffffffffffffffffffff\n      and\n      dup2\n      mstore\n      0x20\n      add\n      swap1\n      dup2\n      mstore\n      0x20\n      add\n      0x00\n      keccak256\n        /* \"contracts/Profile.sol\":2168:2199  profile[msg.sender].information */\n      0x00\n      add\n        /* \"contracts/Profile.sol\":2168:2208  profile[msg.sender].information.position */\n      0x01\n      add\n        /* \"contracts/Profile.sol\":2168:2219  profile[msg.sender].information.position = position */\n      swap1\n      dup1\n      mload\n      swap1\n      0x20\n      add\n      swap1\n      tag_175\n      swap3\n      swap2\n      swap1\n      tag_109\n      jump\t// in\n    tag_175:\n      pop\n        /* \"contracts/Profile.sol\":2276:2286  msg.sender */\n      caller\n        /* \"contracts/Profile.sol\":2230:2237  profile */\n      0x00\n        /* \"contracts/Profile.sol\":2230:2249  profile[msg.sender] */\n      dup1\n        /* \"contracts/Profile.sol\":2238:2248  msg.sender */\n      caller\n        /* \"contracts/Profile.sol\":2230:2249  profile[msg.sender] */\n      0xffffffffffffffffffffffffffffffffffffffff\n      and\n      0xffffffffffffffffffffffffffffffffffffffff\n      and\n      dup2\n      mstore\n      0x20\n      add\n      swap1\n      dup2\n      mstore\n      0x20\n      add\n      0x00\n      keccak256\n        /* \"contracts/Profile.sol\":2230:2261  profile[msg.sender].information */\n      0x00\n      add\n        /* \"contracts/Profile.sol\":2230:2273  profile[msg.sender].information.userAddress */\n      0x02\n      add\n      0x00\n        /* \"contracts/Profile.sol\":2230:2286  profile[msg.sender].information.userAddress = msg.sender */\n      0x0100\n      exp\n      dup2\n      sload\n      dup2\n      0xffffffffffffffffffffffffffffffffffffffff\n      mul\n      not\n      and\n      swap1\n      dup4\n      0xffffffffffffffffffffffffffffffffffffffff\n      and\n      mul\n      or\n      swap1\n      sstore\n      pop\n        /* \"contracts/Profile.sol\":2343:2358  block.timestamp */\n      timestamp\n        /* \"contracts/Profile.sol\":2298:2305  profile */\n      0x00\n        /* \"contracts/Profile.sol\":2298:2317  profile[msg.sender] */\n      dup1\n        /* \"contracts/Profile.sol\":2306:2316  msg.sender */\n      caller\n        /* \"contracts/Profile.sol\":2298:2317  profile[msg.sender] */\n      0xffffffffffffffffffffffffffffffffffffffff\n      and\n      0xffffffffffffffffffffffffffffffffffffffff\n      and\n      dup2\n      mstore\n      0x20\n      add\n      swap1\n      dup2\n      mstore\n      0x20\n      add\n      0x00\n      keccak256\n        /* \"contracts/Profile.sol\":2298:2329  profile[msg.sender].information */\n      0x00\n      add\n        /* \"contracts/Profile.sol\":2298:2340  profile[msg.sender].information.createDate */\n      0x07\n      add\n        /* \"contracts/Profile.sol\":2298:2358  profile[msg.sender].information.createDate = block.timestamp */\n      dup2\n      swap1\n      sstore\n      pop\n        /* \"contracts/Profile.sol\":1650:2366  function createInformation(string memory firstName, string memory middleName, string memory lastName,  string memory profileImage, string memory aboutMe, string memory position) public {\r... */\n      pop\n      pop\n      pop\n      pop\n      pop\n      pop\n      jump\t// out\n        /* \"contracts/Profile.sol\":6307:6399  function delInformaion() external  {\r... */\n    tag_72:\n        /* \"contracts/Profile.sol\":6360:6367  profile */\n      0x00\n        /* \"contracts/Profile.sol\":6360:6379  profile[msg.sender] */\n      dup1\n        /* \"contracts/Profile.sol\":6368:6378  msg.sender */\n      caller\n        /* \"contracts/Profile.sol\":6360:6379  profile[msg.sender] */\n      0xffffffffffffffffffffffffffffffffffffffff\n      and\n      0xffffffffffffffffffffffffffffffffffffffff\n      and\n      dup2\n      mstore\n      0x20\n      add\n      swap1\n      dup2\n      mstore\n      0x20\n      add\n      0x00\n      keccak256\n        /* \"contracts/Profile.sol\":6360:6391  profile[msg.sender].information */\n      0x00\n      add\n      0x00\n        /* \"contracts/Profile.sol\":6353:6391  delete profile[msg.sender].information */\n      dup1\n      dup3\n      add\n      0x00\n      tag_177\n      swap2\n      swap1\n      tag_158\n      jump\t// in\n    tag_177:\n      0x01\n      dup3\n      add\n      0x00\n      tag_178\n      swap2\n      swap1\n      tag_158\n      jump\t// in\n    tag_178:\n      0x02\n      dup3\n      add\n      exp(0x0100, 0x00)\n      dup2\n      sload\n      swap1\n      0xffffffffffffffffffffffffffffffffffffffff\n      mul\n      not\n      and\n      swap1\n      sstore\n      0x03\n      dup3\n      add\n      0x00\n      tag_179\n      swap2\n      swap1\n      tag_158\n      jump\t// in\n    tag_179:\n      0x04\n      dup3\n      add\n      0x00\n      tag_180\n      swap2\n      swap1\n      tag_158\n      jump\t// in\n    tag_180:\n      0x05\n      dup3\n      add\n      0x00\n      tag_181\n      swap2\n      swap1\n      tag_158\n      jump\t// in\n    tag_181:\n      0x06\n      dup3\n      add\n      0x00\n      tag_182\n      swap2\n      swap1\n      tag_158\n      jump\t// in\n    tag_182:\n      0x07\n      dup3\n      add\n      0x00\n      swap1\n      sstore\n      pop\n      pop\n        /* \"contracts/Profile.sol\":6307:6399  function delInformaion() external  {\r... */\n      jump\t// out\n        /* \"contracts/Profile.sol\":384:424  mapping (address => Bio) public  profile */\n    tag_76:\n      mstore(0x20, 0x00)\n      dup1\n      0x00\n      mstore\n      keccak256(0x00, 0x40)\n      0x00\n      swap2\n      pop\n      swap1\n      pop\n      dup1\n      0x00\n      add\n      mload(0x40)\n      dup1\n      0x0100\n      add\n      0x40\n      mstore\n      swap1\n      dup2\n      0x00\n      dup3\n      add\n      dup1\n      sload\n      tag_183\n      swap1\n      tag_139\n      jump\t// in\n    tag_183:\n      dup1\n      0x1f\n      add\n      0x20\n      dup1\n      swap2\n      div\n      mul\n      0x20\n      add\n      mload(0x40)\n      swap1\n      dup2\n      add\n      0x40\n      mstore\n      dup1\n      swap3\n      swap2\n      swap1\n      dup2\n      dup2\n      mstore\n      0x20\n      add\n      dup3\n      dup1\n      sload\n      tag_184\n      swap1\n      tag_139\n      jump\t// in\n    tag_184:\n      dup1\n      iszero\n      tag_185\n      jumpi\n      dup1\n      0x1f\n      lt\n      tag_186\n      jumpi\n      0x0100\n      dup1\n      dup4\n      sload\n      div\n      mul\n      dup4\n      mstore\n      swap2\n      0x20\n      add\n      swap2\n      jump(tag_185)\n    tag_186:\n      dup3\n      add\n      swap2\n      swap1\n      0x00\n      mstore\n      keccak256(0x00, 0x20)\n      swap1\n    tag_187:\n      dup2\n      sload\n      dup2\n      mstore\n      swap1\n      0x01\n      add\n      swap1\n      0x20\n      add\n      dup1\n      dup4\n      gt\n      tag_187\n      jumpi\n      dup3\n      swap1\n      sub\n      0x1f\n      and\n      dup3\n      add\n      swap2\n    tag_185:\n      pop\n      pop\n      pop\n      pop\n      pop\n      dup2\n      mstore\n      0x20\n      add\n      0x01\n      dup3\n      add\n      dup1\n      sload\n      tag_188\n      swap1\n      tag_139\n      jump\t// in\n    tag_188:\n      dup1\n      0x1f\n      add\n      0x20\n      dup1\n      swap2\n      div\n      mul\n      0x20\n      add\n      mload(0x40)\n      swap1\n      dup2\n      add\n      0x40\n      mstore\n      dup1\n      swap3\n      swap2\n      swap1\n      dup2\n      dup2\n      mstore\n      0x20\n      add\n      dup3\n      dup1\n      sload\n      tag_189\n      swap1\n      tag_139\n      jump\t// in\n    tag_189:\n      dup1\n      iszero\n      tag_190\n      jumpi\n      dup1\n      0x1f\n      lt\n      tag_191\n      jumpi\n      0x0100\n      dup1\n      dup4\n      sload\n      div\n      mul\n      dup4\n      mstore\n      swap2\n      0x20\n      add\n      swap2\n      jump(tag_190)\n    tag_191:\n      dup3\n      add\n      swap2\n      swap1\n      0x00\n      mstore\n      keccak256(0x00, 0x20)\n      swap1\n    tag_192:\n      dup2\n      sload\n      dup2\n      mstore\n      swap1\n      0x01\n      add\n      swap1\n      0x20\n      add\n      dup1\n      dup4\n      gt\n      tag_192\n      jumpi\n      dup3\n      swap1\n      sub\n      0x1f\n      and\n      dup3\n      add\n      swap2\n    tag_190:\n      pop\n      pop\n      pop\n      pop\n      pop\n      dup2\n      mstore\n      0x20\n      add\n      0x02\n      dup3\n      add\n      0x00\n      swap1\n      sload\n      swap1\n      0x0100\n      exp\n      swap1\n      div\n      0xffffffffffffffffffffffffffffffffffffffff\n      and\n      0xffffffffffffffffffffffffffffffffffffffff\n      and\n      0xffffffffffffffffffffffffffffffffffffffff\n      and\n      dup2\n      mstore\n      0x20\n      add\n      0x03\n      dup3\n      add\n      dup1\n      sload\n      tag_193\n      swap1\n      tag_139\n      jump\t// in\n    tag_193:\n      dup1\n      0x1f\n      add\n      0x20\n      dup1\n      swap2\n      div\n      mul\n      0x20\n      add\n      mload(0x40)\n      swap1\n      dup2\n      add\n      0x40\n      mstore\n      dup1\n      swap3\n      swap2\n      swap1\n      dup2\n      dup2\n      mstore\n      0x20\n      add\n      dup3\n      dup1\n      sload\n      tag_194\n      swap1\n      tag_139\n      jump\t// in\n    tag_194:\n      dup1\n      iszero\n      tag_195\n      jumpi\n      dup1\n      0x1f\n      lt\n      tag_196\n      jumpi\n      0x0100\n      dup1\n      dup4\n      sload\n      div\n      mul\n      dup4\n      mstore\n      swap2\n      0x20\n      add\n      swap2\n      jump(tag_195)\n    tag_196:\n      dup3\n      add\n      swap2\n      swap1\n      0x00\n      mstore\n      keccak256(0x00, 0x20)\n      swap1\n    tag_197:\n      dup2\n      sload\n      dup2\n      mstore\n      swap1\n      0x01\n      add\n      swap1\n      0x20\n      add\n      dup1\n      dup4\n      gt\n      tag_197\n      jumpi\n      dup3\n      swap1\n      sub\n      0x1f\n      and\n      dup3\n      add\n      swap2\n    tag_195:\n      pop\n      pop\n      pop\n      pop\n      pop\n      dup2\n      mstore\n      0x20\n      add\n      0x04\n      dup3\n      add\n      dup1\n      sload\n      tag_198\n      swap1\n      tag_139\n      jump\t// in\n    tag_198:\n      dup1\n      0x1f\n      add\n      0x20\n      dup1\n      swap2\n      div\n      mul\n      0x20\n      add\n      mload(0x40)\n      swap1\n      dup2\n      add\n      0x40\n      mstore\n      dup1\n      swap3\n      swap2\n      swap1\n      dup2\n      dup2\n      mstore\n      0x20\n      add\n      dup3\n      dup1\n      sload\n      tag_199\n      swap1\n      tag_139\n      jump\t// in\n    tag_199:\n      dup1\n      iszero\n      tag_200\n      jumpi\n      dup1\n      0x1f\n      lt\n      tag_201\n      jumpi\n      0x0100\n      dup1\n      dup4\n      sload\n      div\n      mul\n      dup4\n      mstore\n      swap2\n      0x20\n      add\n      swap2\n      jump(tag_200)\n    tag_201:\n      dup3\n      add\n      swap2\n      swap1\n      0x00\n      mstore\n      keccak256(0x00, 0x20)\n      swap1\n    tag_202:\n      dup2\n      sload\n      dup2\n      mstore\n      swap1\n      0x01\n      add\n      swap1\n      0x20\n      add\n      dup1\n      dup4\n      gt\n      tag_202\n      jumpi\n      dup3\n      swap1\n      sub\n      0x1f\n      and\n      dup3\n      add\n      swap2\n    tag_200:\n      pop\n      pop\n      pop\n      pop\n      pop\n      dup2\n      mstore\n      0x20\n      add\n      0x05\n      dup3\n      add\n      dup1\n      sload\n      tag_203\n      swap1\n      tag_139\n      jump\t// in\n    tag_203:\n      dup1\n      0x1f\n      add\n      0x20\n      dup1\n      swap2\n      div\n      mul\n      0x20\n      add\n      mload(0x40)\n      swap1\n      dup2\n      add\n      0x40\n      mstore\n      dup1\n      swap3\n      swap2\n      swap1\n      dup2\n      dup2\n      mstore\n      0x20\n      add\n      dup3\n      dup1\n      sload\n      tag_204\n      swap1\n      tag_139\n      jump\t// in\n    tag_204:\n      dup1\n      iszero\n      tag_205\n      jumpi\n      dup1\n      0x1f\n      lt\n      tag_206\n      jumpi\n      0x0100\n      dup1\n      dup4\n      sload\n      div\n      mul\n      dup4\n      mstore\n      swap2\n      0x20\n      add\n      swap2\n      jump(tag_205)\n    tag_206:\n      dup3\n      add\n      swap2\n      swap1\n      0x00\n      mstore\n      keccak256(0x00, 0x20)\n      swap1\n    tag_207:\n      dup2\n      sload\n      dup2\n      mstore\n      swap1\n      0x01\n      add\n      swap1\n      0x20\n      add\n      dup1\n      dup4\n      gt\n      tag_207\n      jumpi\n      dup3\n      swap1\n      sub\n      0x1f\n      and\n      dup3\n      add\n      swap2\n    tag_205:\n      pop\n      pop\n      pop\n      pop\n      pop\n      dup2\n      mstore\n      0x20\n      add\n      0x06\n      dup3\n      add\n      dup1\n      sload\n      tag_208\n      swap1\n      tag_139\n      jump\t// in\n    tag_208:\n      dup1\n      0x1f\n      add\n      0x20\n      dup1\n      swap2\n      div\n      mul\n      0x20\n      add\n      mload(0x40)\n      swap1\n      dup2\n      add\n      0x40\n      mstore\n      dup1\n      swap3\n      swap2\n      swap1\n      dup2\n      dup2\n      mstore\n      0x20\n      add\n      dup3\n      dup1\n      sload\n      tag_209\n      swap1\n      tag_139\n      jump\t// in\n    tag_209:\n      dup1\n      iszero\n      tag_210\n      jumpi\n      dup1\n      0x1f\n      lt\n      tag_211\n      jumpi\n      0x0100\n      dup1\n      dup4\n      sload\n      div\n      mul\n      dup4\n      mstore\n      swap2\n      0x20\n      add\n      swap2\n      jump(tag_210)\n    tag_211:\n      dup3\n      add\n      swap2\n      swap1\n      0x00\n      mstore\n      keccak256(0x00, 0x20)\n      swap1\n    tag_212:\n      dup2\n      sload\n      dup2\n      mstore\n      swap1\n      0x01\n      add\n      swap1\n      0x20\n      add\n      dup1\n      dup4\n      gt\n      tag_212\n      jumpi\n      dup3\n      swap1\n      sub\n      0x1f\n      and\n      dup3\n      add\n      swap2\n    tag_210:\n      pop\n      pop\n      pop\n      pop\n      pop\n      dup2\n      mstore\n      0x20\n      add\n      0x07\n      dup3\n      add\n      sload\n      dup2\n      mstore\n      pop\n      pop\n      swap1\n      dup1\n      0x08\n      add\n      mload(0x40)\n      dup1\n      0xc0\n      add\n      0x40\n      mstore\n      swap1\n      dup2\n      0x00\n      dup3\n      add\n      dup1\n      sload\n      tag_213\n      swap1\n      tag_139\n      jump\t// in\n    tag_213:\n      dup1\n      0x1f\n      add\n      0x20\n      dup1\n      swap2\n      div\n      mul\n      0x20\n      add\n      mload(0x40)\n      swap1\n      dup2\n      add\n      0x40\n      mstore\n      dup1\n      swap3\n      swap2\n      swap1\n      dup2\n      dup2\n      mstore\n      0x20\n      add\n      dup3\n      dup1\n      sload\n      tag_214\n      swap1\n      tag_139\n      jump\t// in\n    tag_214:\n      dup1\n      iszero\n      tag_215\n      jumpi\n      dup1\n      0x1f\n      lt\n      tag_216\n      jumpi\n      0x0100\n      dup1\n      dup4\n      sload\n      div\n      mul\n      dup4\n      mstore\n      swap2\n      0x20\n      add\n      swap2\n      jump(tag_215)\n    tag_216:\n      dup3\n      add\n      swap2\n      swap1\n      0x00\n      mstore\n      keccak256(0x00, 0x20)\n      swap1\n    tag_217:\n      dup2\n      sload\n      dup2\n      mstore\n      swap1\n      0x01\n      add\n      swap1\n      0x20\n      add\n      dup1\n      dup4\n      gt\n      tag_217\n      jumpi\n      dup3\n      swap1\n      sub\n      0x1f\n      and\n      dup3\n      add\n      swap2\n    tag_215:\n      pop\n      pop\n      pop\n      pop\n      pop\n      dup2\n      mstore\n      0x20\n      add\n      0x01\n      dup3\n      add\n      dup1\n      sload\n      tag_218\n      swap1\n      tag_139\n      jump\t// in\n    tag_218:\n      dup1\n      0x1f\n      add\n      0x20\n      dup1\n      swap2\n      div\n      mul\n      0x20\n      add\n      mload(0x40)\n      swap1\n      dup2\n      add\n      0x40\n      mstore\n      dup1\n      swap3\n      swap2\n      swap1\n      dup2\n      dup2\n      mstore\n      0x20\n      add\n      dup3\n      dup1\n      sload\n      tag_219\n      swap1\n      tag_139\n      jump\t// in\n    tag_219:\n      dup1\n      iszero\n      tag_220\n      jumpi\n      dup1\n      0x1f\n      lt\n      tag_221\n      jumpi\n      0x0100\n      dup1\n      dup4\n      sload\n      div\n      mul\n      dup4\n      mstore\n      swap2\n      0x20\n      add\n      swap2\n      jump(tag_220)\n    tag_221:\n      dup3\n      add\n      swap2\n      swap1\n      0x00\n      mstore\n      keccak256(0x00, 0x20)\n      swap1\n    tag_222:\n      dup2\n      sload\n      dup2\n      mstore\n      swap1\n      0x01\n      add\n      swap1\n      0x20\n      add\n      dup1\n      dup4\n      gt\n      tag_222\n      jumpi\n      dup3\n      swap1\n      sub\n      0x1f\n      and\n      dup3\n      add\n      swap2\n    tag_220:\n      pop\n      pop\n      pop\n      pop\n      pop\n      dup2\n      mstore\n      0x20\n      add\n      0x02\n      dup3\n      add\n      dup1\n      sload\n      tag_223\n      swap1\n      tag_139\n      jump\t// in\n    tag_223:\n      dup1\n      0x1f\n      add\n      0x20\n      dup1\n      swap2\n      div\n      mul\n      0x20\n      add\n      mload(0x40)\n      swap1\n      dup2\n      add\n      0x40\n      mstore\n      dup1\n      swap3\n      swap2\n      swap1\n      dup2\n      dup2\n      mstore\n      0x20\n      add\n      dup3\n      dup1\n      sload\n      tag_224\n      swap1\n      tag_139\n      jump\t// in\n    tag_224:\n      dup1\n      iszero\n      tag_225\n      jumpi\n      dup1\n      0x1f\n      lt\n      tag_226\n      jumpi\n      0x0100\n      dup1\n      dup4\n      sload\n      div\n      mul\n      dup4\n      mstore\n      swap2\n      0x20\n      add\n      swap2\n      jump(tag_225)\n    tag_226:\n      dup3\n      add\n      swap2\n      swap1\n      0x00\n      mstore\n      keccak256(0x00, 0x20)\n      swap1\n    tag_227:\n      dup2\n      sload\n      dup2\n      mstore\n      swap1\n      0x01\n      add\n      swap1\n      0x20\n      add\n      dup1\n      dup4\n      gt\n      tag_227\n      jumpi\n      dup3\n      swap1\n      sub\n      0x1f\n      and\n      dup3\n      add\n      swap2\n    tag_225:\n      pop\n      pop\n      pop\n      pop\n      pop\n      dup2\n      mstore\n      0x20\n      add\n      0x03\n      dup3\n      add\n      dup1\n      sload\n      tag_228\n      swap1\n      tag_139\n      jump\t// in\n    tag_228:\n      dup1\n      0x1f\n      add\n      0x20\n      dup1\n      swap2\n      div\n      mul\n      0x20\n      add\n      mload(0x40)\n      swap1\n      dup2\n      add\n      0x40\n      mstore\n      dup1\n      swap3\n      swap2\n      swap1\n      dup2\n      dup2\n      mstore\n      0x20\n      add\n      dup3\n      dup1\n      sload\n      tag_229\n      swap1\n      tag_139\n      jump\t// in\n    tag_229:\n      dup1\n      iszero\n      tag_230\n      jumpi\n      dup1\n      0x1f\n      lt\n      tag_231\n      jumpi\n      0x0100\n      dup1\n      dup4\n      sload\n      div\n      mul\n      dup4\n      mstore\n      swap2\n      0x20\n      add\n      swap2\n      jump(tag_230)\n    tag_231:\n      dup3\n      add\n      swap2\n      swap1\n      0x00\n      mstore\n      keccak256(0x00, 0x20)\n      swap1\n    tag_232:\n      dup2\n      sload\n      dup2\n      mstore\n      swap1\n      0x01\n      add\n      swap1\n      0x20\n      add\n      dup1\n      dup4\n      gt\n      tag_232\n      jumpi\n      dup3\n      swap1\n      sub\n      0x1f\n      and\n      dup3\n      add\n      swap2\n    tag_230:\n      pop\n      pop\n      pop\n      pop\n      pop\n      dup2\n      mstore\n      0x20\n      add\n      0x04\n      dup3\n      add\n      dup1\n      sload\n      tag_233\n      swap1\n      tag_139\n      jump\t// in\n    tag_233:\n      dup1\n      0x1f\n      add\n      0x20\n      dup1\n      swap2\n      div\n      mul\n      0x20\n      add\n      mload(0x40)\n      swap1\n      dup2\n      add\n      0x40\n      mstore\n      dup1\n      swap3\n      swap2\n      swap1\n      dup2\n      dup2\n      mstore\n      0x20\n      add\n      dup3\n      dup1\n      sload\n      tag_234\n      swap1\n      tag_139\n      jump\t// in\n    tag_234:\n      dup1\n      iszero\n      tag_235\n      jumpi\n      dup1\n      0x1f\n      lt\n      tag_236\n      jumpi\n      0x0100\n      dup1\n      dup4\n      sload\n      div\n      mul\n      dup4\n      mstore\n      swap2\n      0x20\n      add\n      swap2\n      jump(tag_235)\n    tag_236:\n      dup3\n      add\n      swap2\n      swap1\n      0x00\n      mstore\n      keccak256(0x00, 0x20)\n      swap1\n    tag_237:\n      dup2\n      sload\n      dup2\n      mstore\n      swap1\n      0x01\n      add\n      swap1\n      0x20\n      add\n      dup1\n      dup4\n      gt\n      tag_237\n      jumpi\n      dup3\n      swap1\n      sub\n      0x1f\n      and\n      dup3\n      add\n      swap2\n    tag_235:\n      pop\n      pop\n      pop\n      pop\n      pop\n      dup2\n      mstore\n      0x20\n      add\n      0x05\n      dup3\n      add\n      dup1\n      sload\n      tag_238\n      swap1\n      tag_139\n      jump\t// in\n    tag_238:\n      dup1\n      0x1f\n      add\n      0x20\n      dup1\n      swap2\n      div\n      mul\n      0x20\n      add\n      mload(0x40)\n      swap1\n      dup2\n      add\n      0x40\n      mstore\n      dup1\n      swap3\n      swap2\n      swap1\n      dup2\n      dup2\n      mstore\n      0x20\n      add\n      dup3\n      dup1\n      sload\n      tag_239\n      swap1\n      tag_139\n      jump\t// in\n    tag_239:\n      dup1\n      iszero\n      tag_240\n      jumpi\n      dup1\n      0x1f\n      lt\n      tag_241\n      jumpi\n      0x0100\n      dup1\n      dup4\n      sload\n      div\n      mul\n      dup4\n      mstore\n      swap2\n      0x20\n      add\n      swap2\n      jump(tag_240)\n    tag_241:\n      dup3\n      add\n      swap2\n      swap1\n      0x00\n      mstore\n      keccak256(0x00, 0x20)\n      swap1\n    tag_242:\n      dup2\n      sload\n      dup2\n      mstore\n      swap1\n      0x01\n      add\n      swap1\n      0x20\n      add\n      dup1\n      dup4\n      gt\n      tag_242\n      jumpi\n      dup3\n      swap1\n      sub\n      0x1f\n      and\n      dup3\n      add\n      swap2\n    tag_240:\n      pop\n      pop\n      pop\n      pop\n      pop\n      dup2\n      mstore\n      pop\n      pop\n      swap1\n      dup1\n      0x0e\n      add\n      mload(0x40)\n      dup1\n      0x60\n      add\n      0x40\n      mstore\n      swap1\n      dup2\n      0x00\n      dup3\n      add\n      dup1\n      sload\n      dup1\n      0x20\n      mul\n      0x20\n      add\n      mload(0x40)\n      swap1\n      dup2\n      add\n      0x40\n      mstore\n      dup1\n      swap3\n      swap2\n      swap1\n      dup2\n      dup2\n      mstore\n      0x20\n      add\n      0x00\n      swap1\n    tag_243:\n      dup3\n      dup3\n      lt\n      iszero\n      tag_244\n      jumpi\n      dup4\n      dup3\n      swap1\n      0x00\n      mstore\n      keccak256(0x00, 0x20)\n      add\n      dup1\n      sload\n      tag_246\n      swap1\n      tag_139\n      jump\t// in\n    tag_246:\n      dup1\n      0x1f\n      add\n      0x20\n      dup1\n      swap2\n      div\n      mul\n      0x20\n      add\n      mload(0x40)\n      swap1\n      dup2\n      add\n      0x40\n      mstore\n      dup1\n      swap3\n      swap2\n      swap1\n      dup2\n      dup2\n      mstore\n      0x20\n      add\n      dup3\n      dup1\n      sload\n      tag_247\n      swap1\n      tag_139\n      jump\t// in\n    tag_247:\n      dup1\n      iszero\n      tag_248\n      jumpi\n      dup1\n      0x1f\n      lt\n      tag_249\n      jumpi\n      0x0100\n      dup1\n      dup4\n      sload\n      div\n      mul\n      dup4\n      mstore\n      swap2\n      0x20\n      add\n      swap2\n      jump(tag_248)\n    tag_249:\n      dup3\n      add\n      swap2\n      swap1\n      0x00\n      mstore\n      keccak256(0x00, 0x20)\n      swap1\n    tag_250:\n      dup2\n      sload\n      dup2\n      mstore\n      swap1\n      0x01\n      add\n      swap1\n      0x20\n      add\n      dup1\n      dup4\n      gt\n      tag_250\n      jumpi\n      dup3\n      swap1\n      sub\n      0x1f\n      and\n      dup3\n      add\n      swap2\n    tag_248:\n      pop\n      pop\n      pop\n      pop\n      pop\n      dup2\n      mstore\n      0x20\n      add\n      swap1\n      0x01\n      add\n      swap1\n      jump(tag_243)\n    tag_244:\n      pop\n      pop\n      pop\n      pop\n      dup2\n      mstore\n      0x20\n      add\n      0x01\n      dup3\n      add\n      dup1\n      sload\n      dup1\n      0x20\n      mul\n      0x20\n      add\n      mload(0x40)\n      swap1\n      dup2\n      add\n      0x40\n      mstore\n      dup1\n      swap3\n      swap2\n      swap1\n      dup2\n      dup2\n      mstore\n      0x20\n      add\n      0x00\n      swap1\n    tag_251:\n      dup3\n      dup3\n      lt\n      iszero\n      tag_252\n      jumpi\n      dup4\n      dup3\n      swap1\n      0x00\n      mstore\n      keccak256(0x00, 0x20)\n      add\n      dup1\n      sload\n      tag_254\n      swap1\n      tag_139\n      jump\t// in\n    tag_254:\n      dup1\n      0x1f\n      add\n      0x20\n      dup1\n      swap2\n      div\n      mul\n      0x20\n      add\n      mload(0x40)\n      swap1\n      dup2\n      add\n      0x40\n      mstore\n      dup1\n      swap3\n      swap2\n      swap1\n      dup2\n      dup2\n      mstore\n      0x20\n      add\n      dup3\n      dup1\n      sload\n      tag_255\n      swap1\n      tag_139\n      jump\t// in\n    tag_255:\n      dup1\n      iszero\n      tag_256\n      jumpi\n      dup1\n      0x1f\n      lt\n      tag_257\n      jumpi\n      0x0100\n      dup1\n      dup4\n      sload\n      div\n      mul\n      dup4\n      mstore\n      swap2\n      0x20\n      add\n      swap2\n      jump(tag_256)\n    tag_257:\n      dup3\n      add\n      swap2\n      swap1\n      0x00\n      mstore\n      keccak256(0x00, 0x20)\n      swap1\n    tag_258:\n      dup2\n      sload\n      dup2\n      mstore\n      swap1\n      0x01\n      add\n      swap1\n      0x20\n      add\n      dup1\n      dup4\n      gt\n      tag_258\n      jumpi\n      dup3\n      swap1\n      sub\n      0x1f\n      and\n      dup3\n      add\n      swap2\n    tag_256:\n      pop\n      pop\n      pop\n      pop\n      pop\n      dup2\n      mstore\n      0x20\n      add\n      swap1\n      0x01\n      add\n      swap1\n      jump(tag_251)\n    tag_252:\n      pop\n      pop\n      pop\n      pop\n      dup2\n      mstore\n      0x20\n      add\n      0x02\n      dup3\n      add\n      dup1\n      sload\n      dup1\n      0x20\n      mul\n      0x20\n      add\n      mload(0x40)\n      swap1\n      dup2\n      add\n      0x40\n      mstore\n      dup1\n      swap3\n      swap2\n      swap1\n      dup2\n      dup2\n      mstore\n      0x20\n      add\n      0x00\n      swap1\n    tag_259:\n      dup3\n      dup3\n      lt\n      iszero\n      tag_260\n      jumpi\n      dup4\n      dup3\n      swap1\n      0x00\n      mstore\n      keccak256(0x00, 0x20)\n      add\n      dup1\n      sload\n      tag_262\n      swap1\n      tag_139\n      jump\t// in\n    tag_262:\n      dup1\n      0x1f\n      add\n      0x20\n      dup1\n      swap2\n      div\n      mul\n      0x20\n      add\n      mload(0x40)\n      swap1\n      dup2\n      add\n      0x40\n      mstore\n      dup1\n      swap3\n      swap2\n      swap1\n      dup2\n      dup2\n      mstore\n      0x20\n      add\n      dup3\n      dup1\n      sload\n      tag_263\n      swap1\n      tag_139\n      jump\t// in\n    tag_263:\n      dup1\n      iszero\n      tag_264\n      jumpi\n      dup1\n      0x1f\n      lt\n      tag_265\n      jumpi\n      0x0100\n      dup1\n      dup4\n      sload\n      div\n      mul\n      dup4\n      mstore\n      swap2\n      0x20\n      add\n      swap2\n      jump(tag_264)\n    tag_265:\n      dup3\n      add\n      swap2\n      swap1\n      0x00\n      mstore\n      keccak256(0x00, 0x20)\n      swap1\n    tag_266:\n      dup2\n      sload\n      dup2\n      mstore\n      swap1\n      0x01\n      add\n      swap1\n      0x20\n      add\n      dup1\n      dup4\n      gt\n      tag_266\n      jumpi\n      dup3\n      swap1\n      sub\n      0x1f\n      and\n      dup3\n      add\n      swap2\n    tag_264:\n      pop\n      pop\n      pop\n      pop\n      pop\n      dup2\n      mstore\n      0x20\n      add\n      swap1\n      0x01\n      add\n      swap1\n      jump(tag_259)\n    tag_260:\n      pop\n      pop\n      pop\n      pop\n      dup2\n      mstore\n      pop\n      pop\n      swap1\n      dup1\n      0x12\n      add\n      mload(0x40)\n      dup1\n      0x40\n      add\n      0x40\n      mstore\n      swap1\n      dup2\n      0x00\n      dup3\n      add\n      dup1\n      sload\n      dup1\n      0x20\n      mul\n      0x20\n      add\n      mload(0x40)\n      swap1\n      dup2\n      add\n      0x40\n      mstore\n      dup1\n      swap3\n      swap2\n      swap1\n      dup2\n      dup2\n      mstore\n      0x20\n      add\n      0x00\n      swap1\n    tag_267:\n      dup3\n      dup3\n      lt\n      iszero\n      tag_268\n      jumpi\n      dup4\n      dup3\n      swap1\n      0x00\n      mstore\n      keccak256(0x00, 0x20)\n      add\n      dup1\n      sload\n      tag_270\n      swap1\n      tag_139\n      jump\t// in\n    tag_270:\n      dup1\n      0x1f\n      add\n      0x20\n      dup1\n      swap2\n      div\n      mul\n      0x20\n      add\n      mload(0x40)\n      swap1\n      dup2\n      add\n      0x40\n      mstore\n      dup1\n      swap3\n      swap2\n      swap1\n      dup2\n      dup2\n      mstore\n      0x20\n      add\n      dup3\n      dup1\n      sload\n      tag_271\n      swap1\n      tag_139\n      jump\t// in\n    tag_271:\n      dup1\n      iszero\n      tag_272\n      jumpi\n      dup1\n      0x1f\n      lt\n      tag_273\n      jumpi\n      0x0100\n      dup1\n      dup4\n      sload\n      div\n      mul\n      dup4\n      mstore\n      swap2\n      0x20\n      add\n      swap2\n      jump(tag_272)\n    tag_273:\n      dup3\n      add\n      swap2\n      swap1\n      0x00\n      mstore\n      keccak256(0x00, 0x20)\n      swap1\n    tag_274:\n      dup2\n      sload\n      dup2\n      mstore\n      swap1\n      0x01\n      add\n      swap1\n      0x20\n      add\n      dup1\n      dup4\n      gt\n      tag_274\n      jumpi\n      dup3\n      swap1\n      sub\n      0x1f\n      and\n      dup3\n      add\n      swap2\n    tag_272:\n      pop\n      pop\n      pop\n      pop\n      pop\n      dup2\n      mstore\n      0x20\n      add\n      swap1\n      0x01\n      add\n      swap1\n      jump(tag_267)\n    tag_268:\n      pop\n      pop\n      pop\n      pop\n      dup2\n      mstore\n      0x20\n      add\n      0x01\n      dup3\n      add\n      dup1\n      sload\n      dup1\n      0x20\n      mul\n      0x20\n      add\n      mload(0x40)\n      swap1\n      dup2\n      add\n      0x40\n      mstore\n      dup1\n      swap3\n      swap2\n      swap1\n      dup2\n      dup2\n      mstore\n      0x20\n      add\n      0x00\n      swap1\n    tag_275:\n      dup3\n      dup3\n      lt\n      iszero\n      tag_276\n      jumpi\n      dup4\n      dup3\n      swap1\n      0x00\n      mstore\n      keccak256(0x00, 0x20)\n      add\n      dup1\n      sload\n      tag_278\n      swap1\n      tag_139\n      jump\t// in\n    tag_278:\n      dup1\n      0x1f\n      add\n      0x20\n      dup1\n      swap2\n      div\n      mul\n      0x20\n      add\n      mload(0x40)\n      swap1\n      dup2\n      add\n      0x40\n      mstore\n      dup1\n      swap3\n      swap2\n      swap1\n      dup2\n      dup2\n      mstore\n      0x20\n      add\n      dup3\n      dup1\n      sload\n      tag_279\n      swap1\n      tag_139\n      jump\t// in\n    tag_279:\n      dup1\n      iszero\n      tag_280\n      jumpi\n      dup1\n      0x1f\n      lt\n      tag_281\n      jumpi\n      0x0100\n      dup1\n      dup4\n      sload\n      div\n      mul\n      dup4\n      mstore\n      swap2\n      0x20\n      add\n      swap2\n      jump(tag_280)\n    tag_281:\n      dup3\n      add\n      swap2\n      swap1\n      0x00\n      mstore\n      keccak256(0x00, 0x20)\n      swap1\n    tag_282:\n      dup2\n      sload\n      dup2\n      mstore\n      swap1\n      0x01\n      add\n      swap1\n      0x20\n      add\n      dup1\n      dup4\n      gt\n      tag_282\n      jumpi\n      dup3\n      swap1\n      sub\n      0x1f\n      and\n      dup3\n      add\n      swap2\n    tag_280:\n      pop\n      pop\n      pop\n      pop\n      pop\n      dup2\n      mstore\n      0x20\n      add\n      swap1\n      0x01\n      add\n      swap1\n      jump(tag_275)\n    tag_276:\n      pop\n      pop\n      pop\n      pop\n      dup2\n      mstore\n      pop\n      pop\n      swap1\n      pop\n      dup5\n      jump\t// out\n        /* \"contracts/Profile.sol\":6723:6827  function delCompanyExperience() external {\r... */\n    tag_80:\n        /* \"contracts/Profile.sol\":6782:6789  profile */\n      0x00\n        /* \"contracts/Profile.sol\":6782:6801  profile[msg.sender] */\n      dup1\n        /* \"contracts/Profile.sol\":6790:6800  msg.sender */\n      caller\n        /* \"contracts/Profile.sol\":6782:6801  profile[msg.sender] */\n      0xffffffffffffffffffffffffffffffffffffffff\n      and\n      0xffffffffffffffffffffffffffffffffffffffff\n      and\n      dup2\n      mstore\n      0x20\n      add\n      swap1\n      dup2\n      mstore\n      0x20\n      add\n      0x00\n      keccak256\n        /* \"contracts/Profile.sol\":6782:6819  profile[msg.sender].companyExperience */\n      0x14\n      add\n      0x00\n        /* \"contracts/Profile.sol\":6775:6819  delete profile[msg.sender].companyExperience */\n      tag_284\n      swap2\n      swap1\n      tag_285\n      jump\t// in\n    tag_284:\n        /* \"contracts/Profile.sol\":6723:6827  function delCompanyExperience() external {\r... */\n      jump\t// out\n        /* \"contracts/Profile.sol\":3290:3759  function createEducation(string memory startDate, string memory endDate, string memory university, string memory major, string memory finalProject) public {\r... */\n    tag_83:\n        /* \"contracts/Profile.sol\":3456:3483  Education memory _education */\n      tag_287\n      tag_288\n      jump\t// in\n    tag_287:\n        /* \"contracts/Profile.sol\":3517:3526  startDate */\n      dup6\n        /* \"contracts/Profile.sol\":3494:3504  _education */\n      dup2\n        /* \"contracts/Profile.sol\":3494:3514  _education.startDate */\n      0x00\n      add\n        /* \"contracts/Profile.sol\":3494:3526  _education.startDate = startDate */\n      dup2\n      swap1\n      mstore\n      pop\n        /* \"contracts/Profile.sol\":3558:3565  endDate */\n      dup5\n        /* \"contracts/Profile.sol\":3537:3547  _education */\n      dup2\n        /* \"contracts/Profile.sol\":3537:3555  _education.endDate */\n      0x20\n      add\n        /* \"contracts/Profile.sol\":3537:3565  _education.endDate = endDate */\n      dup2\n      swap1\n      mstore\n      pop\n        /* \"contracts/Profile.sol\":3600:3610  university */\n      dup4\n        /* \"contracts/Profile.sol\":3576:3586  _education */\n      dup2\n        /* \"contracts/Profile.sol\":3576:3597  _education.university */\n      0x40\n      add\n        /* \"contracts/Profile.sol\":3576:3610  _education.university = university */\n      dup2\n      swap1\n      mstore\n      pop\n        /* \"contracts/Profile.sol\":3640:3645  major */\n      dup3\n        /* \"contracts/Profile.sol\":3621:3631  _education */\n      dup2\n        /* \"contracts/Profile.sol\":3621:3637  _education.major */\n      0x60\n      add\n        /* \"contracts/Profile.sol\":3621:3645  _education.major = major */\n      dup2\n      swap1\n      mstore\n      pop\n        /* \"contracts/Profile.sol\":3682:3694  finalProject */\n      dup2\n        /* \"contracts/Profile.sol\":3656:3666  _education */\n      dup2\n        /* \"contracts/Profile.sol\":3656:3679  _education.finalProject */\n      0x80\n      add\n        /* \"contracts/Profile.sol\":3656:3694  _education.finalProject = finalProject */\n      dup2\n      swap1\n      mstore\n      pop\n        /* \"contracts/Profile.sol\":3705:3712  profile */\n      0x00\n        /* \"contracts/Profile.sol\":3705:3724  profile[msg.sender] */\n      dup1\n        /* \"contracts/Profile.sol\":3713:3723  msg.sender */\n      caller\n        /* \"contracts/Profile.sol\":3705:3724  profile[msg.sender] */\n      0xffffffffffffffffffffffffffffffffffffffff\n      and\n      0xffffffffffffffffffffffffffffffffffffffff\n      and\n      dup2\n      mstore\n      0x20\n      add\n      swap1\n      dup2\n      mstore\n      0x20\n      add\n      0x00\n      keccak256\n        /* \"contracts/Profile.sol\":3705:3734  profile[msg.sender].education */\n      0x11\n      add\n        /* \"contracts/Profile.sol\":3740:3750  _education */\n      dup2\n        /* \"contracts/Profile.sol\":3705:3751  profile[msg.sender].education.push(_education) */\n      swap1\n      dup1\n      0x01\n      dup2\n      sload\n      add\n      dup1\n      dup3\n      sstore\n      dup1\n      swap2\n      pop\n      pop\n      0x01\n      swap1\n      sub\n      swap1\n      0x00\n      mstore\n      keccak256(0x00, 0x20)\n      swap1\n      0x05\n      mul\n      add\n      0x00\n      swap1\n      swap2\n      swap1\n      swap2\n      swap1\n      swap2\n      pop\n      0x00\n      dup3\n      add\n      mload\n      dup2\n      0x00\n      add\n      swap1\n      dup1\n      mload\n      swap1\n      0x20\n      add\n      swap1\n      tag_290\n      swap3\n      swap2\n      swap1\n      tag_109\n      jump\t// in\n    tag_290:\n      pop\n      0x20\n      dup3\n      add\n      mload\n      dup2\n      0x01\n      add\n      swap1\n      dup1\n      mload\n      swap1\n      0x20\n      add\n      swap1\n      tag_291\n      swap3\n      swap2\n      swap1\n      tag_109\n      jump\t// in\n    tag_291:\n      pop\n      0x40\n      dup3\n      add\n      mload\n      dup2\n      0x02\n      add\n      swap1\n      dup1\n      mload\n      swap1\n      0x20\n      add\n      swap1\n      tag_292\n      swap3\n      swap2\n      swap1\n      tag_109\n      jump\t// in\n    tag_292:\n      pop\n      0x60\n      dup3\n      add\n      mload\n      dup2\n      0x03\n      add\n      swap1\n      dup1\n      mload\n      swap1\n      0x20\n      add\n      swap1\n      tag_293\n      swap3\n      swap2\n      swap1\n      tag_109\n      jump\t// in\n    tag_293:\n      pop\n      0x80\n      dup3\n      add\n      mload\n      dup2\n      0x04\n      add\n      swap1\n      dup1\n      mload\n      swap1\n      0x20\n      add\n      swap1\n      tag_294\n      swap3\n      swap2\n      swap1\n      tag_109\n      jump\t// in\n    tag_294:\n      pop\n      pop\n      pop\n        /* \"contracts/Profile.sol\":3445:3759  {\r... */\n      pop\n        /* \"contracts/Profile.sol\":3290:3759  function createEducation(string memory startDate, string memory endDate, string memory university, string memory major, string memory finalProject) public {\r... */\n      pop\n      pop\n      pop\n      pop\n      pop\n      jump\t// out\n        /* \"contracts/Profile.sol\":1536:1638  function myBalance() public view returns(uint256){\r... */\n    tag_85:\n        /* \"contracts/Profile.sol\":1577:1584  uint256 */\n      0x00\n        /* \"contracts/Profile.sol\":1611:1621  msg.sender */\n      caller\n        /* \"contracts/Profile.sol\":1603:1630  address(msg.sender).balance */\n      0xffffffffffffffffffffffffffffffffffffffff\n      and\n      balance\n        /* \"contracts/Profile.sol\":1596:1630  return address(msg.sender).balance */\n      swap1\n      pop\n        /* \"contracts/Profile.sol\":1536:1638  function myBalance() public view returns(uint256){\r... */\n      swap1\n      jump\t// out\n        /* \"contracts/Profile.sol\":4877:5112  function getFreelanceExperience(uint index) public view returns(string memory, string memory) {\r... */\n    tag_89:\n        /* \"contracts/Profile.sol\":4941:4954  string memory */\n      0x60\n        /* \"contracts/Profile.sol\":4956:4969  string memory */\n      dup1\n        /* \"contracts/Profile.sol\":4990:4997  profile */\n      0x00\n        /* \"contracts/Profile.sol\":4990:5009  profile[msg.sender] */\n      dup1\n        /* \"contracts/Profile.sol\":4998:5008  msg.sender */\n      caller\n        /* \"contracts/Profile.sol\":4990:5009  profile[msg.sender] */\n      0xffffffffffffffffffffffffffffffffffffffff\n      and\n      0xffffffffffffffffffffffffffffffffffffffff\n      and\n      dup2\n      mstore\n      0x20\n      add\n      swap1\n      dup2\n      mstore\n      0x20\n      add\n      0x00\n      keccak256\n        /* \"contracts/Profile.sol\":4990:5029  profile[msg.sender].freelanceExperience */\n      0x15\n      add\n        /* \"contracts/Profile.sol\":5030:5035  index */\n      dup4\n        /* \"contracts/Profile.sol\":4990:5036  profile[msg.sender].freelanceExperience[index] */\n      dup2\n      sload\n      dup2\n      lt\n      tag_297\n      jumpi\n      tag_298\n      tag_133\n      jump\t// in\n    tag_298:\n    tag_297:\n      swap1\n      0x00\n      mstore\n      keccak256(0x00, 0x20)\n      swap1\n      0x02\n      mul\n      add\n        /* \"contracts/Profile.sol\":4990:5048  profile[msg.sender].freelanceExperience[index].projectName */\n      0x00\n      add\n        /* \"contracts/Profile.sol\":5050:5057  profile */\n      0x00\n        /* \"contracts/Profile.sol\":5050:5069  profile[msg.sender] */\n      dup1\n        /* \"contracts/Profile.sol\":5058:5068  msg.sender */\n      caller\n        /* \"contracts/Profile.sol\":5050:5069  profile[msg.sender] */\n      0xffffffffffffffffffffffffffffffffffffffff\n      and\n      0xffffffffffffffffffffffffffffffffffffffff\n      and\n      dup2\n      mstore\n      0x20\n      add\n      swap1\n      dup2\n      mstore\n      0x20\n      add\n      0x00\n      keccak256\n        /* \"contracts/Profile.sol\":5050:5089  profile[msg.sender].freelanceExperience */\n      0x15\n      add\n        /* \"contracts/Profile.sol\":5090:5095  index */\n      dup5\n        /* \"contracts/Profile.sol\":5050:5096  profile[msg.sender].freelanceExperience[index] */\n      dup2\n      sload\n      dup2\n      lt\n      tag_300\n      jumpi\n      tag_301\n      tag_133\n      jump\t// in\n    tag_301:\n    tag_300:\n      swap1\n      0x00\n      mstore\n      keccak256(0x00, 0x20)\n      swap1\n      0x02\n      mul\n      add\n        /* \"contracts/Profile.sol\":5050:5103  profile[msg.sender].freelanceExperience[index].Detail */\n      0x01\n      add\n        /* \"contracts/Profile.sol\":4982:5104  return (profile[msg.sender].freelanceExperience[index].projectName, profile[msg.sender].freelanceExperience[index].Detail) */\n      dup2\n      dup1\n      sload\n      tag_303\n      swap1\n      tag_139\n      jump\t// in\n    tag_303:\n      dup1\n      0x1f\n      add\n      0x20\n      dup1\n      swap2\n      div\n      mul\n      0x20\n      add\n      mload(0x40)\n      swap1\n      dup2\n      add\n      0x40\n      mstore\n      dup1\n      swap3\n      swap2\n      swap1\n      dup2\n      dup2\n      mstore\n      0x20\n      add\n      dup3\n      dup1\n      sload\n      tag_304\n      swap1\n      tag_139\n      jump\t// in\n    tag_304:\n      dup1\n      iszero\n      tag_305\n      jumpi\n      dup1\n      0x1f\n      lt\n      tag_306\n      jumpi\n      0x0100\n      dup1\n      dup4\n      sload\n      div\n      mul\n      dup4\n      mstore\n      swap2\n      0x20\n      add\n      swap2\n      jump(tag_305)\n    tag_306:\n      dup3\n      add\n      swap2\n      swap1\n      0x00\n      mstore\n      keccak256(0x00, 0x20)\n      swap1\n    tag_307:\n      dup2\n      sload\n      dup2\n      mstore\n      swap1\n      0x01\n      add\n      swap1\n      0x20\n      add\n      dup1\n      dup4\n      gt\n      tag_307\n      jumpi\n      dup3\n      swap1\n      sub\n      0x1f\n      and\n      dup3\n      add\n      swap2\n    tag_305:\n      pop\n      pop\n      pop\n      pop\n      pop\n      swap2\n      pop\n      dup1\n      dup1\n      sload\n      tag_308\n      swap1\n      tag_139\n      jump\t// in\n    tag_308:\n      dup1\n      0x1f\n      add\n      0x20\n      dup1\n      swap2\n      div\n      mul\n      0x20\n      add\n      mload(0x40)\n      swap1\n      dup2\n      add\n      0x40\n      mstore\n      dup1\n      swap3\n      swap2\n      swap1\n      dup2\n      dup2\n      mstore\n      0x20\n      add\n      dup3\n      dup1\n      sload\n      tag_309\n      swap1\n      tag_139\n      jump\t// in\n    tag_309:\n      dup1\n      iszero\n      tag_310\n      jumpi\n      dup1\n      0x1f\n      lt\n      tag_311\n      jumpi\n      0x0100\n      dup1\n      dup4\n      sload\n      div\n      mul\n      dup4\n      mstore\n      swap2\n      0x20\n      add\n      swap2\n      jump(tag_310)\n    tag_311:\n      dup3\n      add\n      swap2\n      swap1\n      0x00\n      mstore\n      keccak256(0x00, 0x20)\n      swap1\n    tag_312:\n      dup2\n      sload\n      dup2\n      mstore\n      swap1\n      0x01\n      add\n      swap1\n      0x20\n      add\n      dup1\n      dup4\n      gt\n      tag_312\n      jumpi\n      dup3\n      swap1\n      sub\n      0x1f\n      and\n      dup3\n      add\n      swap2\n    tag_310:\n      pop\n      pop\n      pop\n      pop\n      pop\n      swap1\n      pop\n      swap2\n      pop\n      swap2\n      pop\n        /* \"contracts/Profile.sol\":4877:5112  function getFreelanceExperience(uint index) public view returns(string memory, string memory) {\r... */\n      swap2\n      pop\n      swap2\n      jump\t// out\n        /* \"contracts/Profile.sol\":6207:6299  function delAllEducation() external  {\r... */\n    tag_92:\n        /* \"contracts/Profile.sol\":6262:6269  profile */\n      0x00\n        /* \"contracts/Profile.sol\":6262:6281  profile[msg.sender] */\n      dup1\n        /* \"contracts/Profile.sol\":6270:6280  msg.sender */\n      caller\n        /* \"contracts/Profile.sol\":6262:6281  profile[msg.sender] */\n      0xffffffffffffffffffffffffffffffffffffffff\n      and\n      0xffffffffffffffffffffffffffffffffffffffff\n      and\n      dup2\n      mstore\n      0x20\n      add\n      swap1\n      dup2\n      mstore\n      0x20\n      add\n      0x00\n      keccak256\n        /* \"contracts/Profile.sol\":6262:6291  profile[msg.sender].education */\n      0x11\n      add\n      0x00\n        /* \"contracts/Profile.sol\":6255:6291  delete profile[msg.sender].education */\n      tag_314\n      swap2\n      swap1\n      tag_315\n      jump\t// in\n    tag_314:\n        /* \"contracts/Profile.sol\":6207:6299  function delAllEducation() external  {\r... */\n      jump\t// out\n        /* \"contracts/Profile.sol\":3768:4161  function getEducation(uint index) public view returns(string memory, string memory, string memory, string memory, string memory) {\r... */\n    tag_95:\n        /* \"contracts/Profile.sol\":3822:3835  string memory */\n      0x60\n        /* \"contracts/Profile.sol\":3837:3850  string memory */\n      dup1\n        /* \"contracts/Profile.sol\":3852:3865  string memory */\n      0x60\n        /* \"contracts/Profile.sol\":3867:3880  string memory */\n      dup1\n        /* \"contracts/Profile.sol\":3882:3895  string memory */\n      0x60\n        /* \"contracts/Profile.sol\":3916:3923  profile */\n      0x00\n        /* \"contracts/Profile.sol\":3916:3935  profile[msg.sender] */\n      dup1\n        /* \"contracts/Profile.sol\":3924:3934  msg.sender */\n      caller\n        /* \"contracts/Profile.sol\":3916:3935  profile[msg.sender] */\n      0xffffffffffffffffffffffffffffffffffffffff\n      and\n      0xffffffffffffffffffffffffffffffffffffffff\n      and\n      dup2\n      mstore\n      0x20\n      add\n      swap1\n      dup2\n      mstore\n      0x20\n      add\n      0x00\n      keccak256\n        /* \"contracts/Profile.sol\":3916:3945  profile[msg.sender].education */\n      0x11\n      add\n        /* \"contracts/Profile.sol\":3946:3951  index */\n      dup7\n        /* \"contracts/Profile.sol\":3916:3952  profile[msg.sender].education[index] */\n      dup2\n      sload\n      dup2\n      lt\n      tag_317\n      jumpi\n      tag_318\n      tag_133\n      jump\t// in\n    tag_318:\n    tag_317:\n      swap1\n      0x00\n      mstore\n      keccak256(0x00, 0x20)\n      swap1\n      0x05\n      mul\n      add\n        /* \"contracts/Profile.sol\":3916:3962  profile[msg.sender].education[index].startDate */\n      0x00\n      add\n        /* \"contracts/Profile.sol\":3964:3971  profile */\n      0x00\n        /* \"contracts/Profile.sol\":3964:3983  profile[msg.sender] */\n      dup1\n        /* \"contracts/Profile.sol\":3972:3982  msg.sender */\n      caller\n        /* \"contracts/Profile.sol\":3964:3983  profile[msg.sender] */\n      0xffffffffffffffffffffffffffffffffffffffff\n      and\n      0xffffffffffffffffffffffffffffffffffffffff\n      and\n      dup2\n      mstore\n      0x20\n      add\n      swap1\n      dup2\n      mstore\n      0x20\n      add\n      0x00\n      keccak256\n        /* \"contracts/Profile.sol\":3964:3993  profile[msg.sender].education */\n      0x11\n      add\n        /* \"contracts/Profile.sol\":3994:3999  index */\n      dup8\n        /* \"contracts/Profile.sol\":3964:4000  profile[msg.sender].education[index] */\n      dup2\n      sload\n      dup2\n      lt\n      tag_320\n      jumpi\n      tag_321\n      tag_133\n      jump\t// in\n    tag_321:\n    tag_320:\n      swap1\n      0x00\n      mstore\n      keccak256(0x00, 0x20)\n      swap1\n      0x05\n      mul\n      add\n        /* \"contracts/Profile.sol\":3964:4008  profile[msg.sender].education[index].endDate */\n      0x01\n      add\n        /* \"contracts/Profile.sol\":4010:4017  profile */\n      0x00\n        /* \"contracts/Profile.sol\":4010:4029  profile[msg.sender] */\n      dup1\n        /* \"contracts/Profile.sol\":4018:4028  msg.sender */\n      caller\n        /* \"contracts/Profile.sol\":4010:4029  profile[msg.sender] */\n      0xffffffffffffffffffffffffffffffffffffffff\n      and\n      0xffffffffffffffffffffffffffffffffffffffff\n      and\n      dup2\n      mstore\n      0x20\n      add\n      swap1\n      dup2\n      mstore\n      0x20\n      add\n      0x00\n      keccak256\n        /* \"contracts/Profile.sol\":4010:4039  profile[msg.sender].education */\n      0x11\n      add\n        /* \"contracts/Profile.sol\":4040:4045  index */\n      dup9\n        /* \"contracts/Profile.sol\":4010:4046  profile[msg.sender].education[index] */\n      dup2\n      sload\n      dup2\n      lt\n      tag_323\n      jumpi\n      tag_324\n      tag_133\n      jump\t// in\n    tag_324:\n    tag_323:\n      swap1\n      0x00\n      mstore\n      keccak256(0x00, 0x20)\n      swap1\n      0x05\n      mul\n      add\n        /* \"contracts/Profile.sol\":4010:4057  profile[msg.sender].education[index].university */\n      0x02\n      add\n        /* \"contracts/Profile.sol\":4059:4066  profile */\n      0x00\n        /* \"contracts/Profile.sol\":4059:4078  profile[msg.sender] */\n      dup1\n        /* \"contracts/Profile.sol\":4067:4077  msg.sender */\n      caller\n        /* \"contracts/Profile.sol\":4059:4078  profile[msg.sender] */\n      0xffffffffffffffffffffffffffffffffffffffff\n      and\n      0xffffffffffffffffffffffffffffffffffffffff\n      and\n      dup2\n      mstore\n      0x20\n      add\n      swap1\n      dup2\n      mstore\n      0x20\n      add\n      0x00\n      keccak256\n        /* \"contracts/Profile.sol\":4059:4088  profile[msg.sender].education */\n      0x11\n      add\n        /* \"contracts/Profile.sol\":4089:4094  index */\n      dup10\n        /* \"contracts/Profile.sol\":4059:4095  profile[msg.sender].education[index] */\n      dup2\n      sload\n      dup2\n      lt\n      tag_326\n      jumpi\n      tag_327\n      tag_133\n      jump\t// in\n    tag_327:\n    tag_326:\n      swap1\n      0x00\n      mstore\n      keccak256(0x00, 0x20)\n      swap1\n      0x05\n      mul\n      add\n        /* \"contracts/Profile.sol\":4059:4101  profile[msg.sender].education[index].major */\n      0x03\n      add\n        /* \"contracts/Profile.sol\":4103:4110  profile */\n      0x00\n        /* \"contracts/Profile.sol\":4103:4122  profile[msg.sender] */\n      dup1\n        /* \"contracts/Profile.sol\":4111:4121  msg.sender */\n      caller\n        /* \"contracts/Profile.sol\":4103:4122  profile[msg.sender] */\n      0xffffffffffffffffffffffffffffffffffffffff\n      and\n      0xffffffffffffffffffffffffffffffffffffffff\n      and\n      dup2\n      mstore\n      0x20\n      add\n      swap1\n      dup2\n      mstore\n      0x20\n      add\n      0x00\n      keccak256\n        /* \"contracts/Profile.sol\":4103:4132  profile[msg.sender].education */\n      0x11\n      add\n        /* \"contracts/Profile.sol\":4133:4138  index */\n      dup11\n        /* \"contracts/Profile.sol\":4103:4139  profile[msg.sender].education[index] */\n      dup2\n      sload\n      dup2\n      lt\n      tag_329\n      jumpi\n      tag_330\n      tag_133\n      jump\t// in\n    tag_330:\n    tag_329:\n      swap1\n      0x00\n      mstore\n      keccak256(0x00, 0x20)\n      swap1\n      0x05\n      mul\n      add\n        /* \"contracts/Profile.sol\":4103:4152  profile[msg.sender].education[index].finalProject */\n      0x04\n      add\n        /* \"contracts/Profile.sol\":3908:4153  return (profile[msg.sender].education[index].startDate, profile[msg.sender].education[index].endDate, profile[msg.sender].education[index].university, profile[msg.sender].education[index].major, profile[msg.sender].education[index].finalProject) */\n      dup5\n      dup1\n      sload\n      tag_332\n      swap1\n      tag_139\n      jump\t// in\n    tag_332:\n      dup1\n      0x1f\n      add\n      0x20\n      dup1\n      swap2\n      div\n      mul\n      0x20\n      add\n      mload(0x40)\n      swap1\n      dup2\n      add\n      0x40\n      mstore\n      dup1\n      swap3\n      swap2\n      swap1\n      dup2\n      dup2\n      mstore\n      0x20\n      add\n      dup3\n      dup1\n      sload\n      tag_333\n      swap1\n      tag_139\n      jump\t// in\n    tag_333:\n      dup1\n      iszero\n      tag_334\n      jumpi\n      dup1\n      0x1f\n      lt\n      tag_335\n      jumpi\n      0x0100\n      dup1\n      dup4\n      sload\n      div\n      mul\n      dup4\n      mstore\n      swap2\n      0x20\n      add\n      swap2\n      jump(tag_334)\n    tag_335:\n      dup3\n      add\n      swap2\n      swap1\n      0x00\n      mstore\n      keccak256(0x00, 0x20)\n      swap1\n    tag_336:\n      dup2\n      sload\n      dup2\n      mstore\n      swap1\n      0x01\n      add\n      swap1\n      0x20\n      add\n      dup1\n      dup4\n      gt\n      tag_336\n      jumpi\n      dup3\n      swap1\n      sub\n      0x1f\n      and\n      dup3\n      add\n      swap2\n    tag_334:\n      pop\n      pop\n      pop\n      pop\n      pop\n      swap5\n      pop\n      dup4\n      dup1\n      sload\n      tag_337\n      swap1\n      tag_139\n      jump\t// in\n    tag_337:\n      dup1\n      0x1f\n      add\n      0x20\n      dup1\n      swap2\n      div\n      mul\n      0x20\n      add\n      mload(0x40)\n      swap1\n      dup2\n      add\n      0x40\n      mstore\n      dup1\n      swap3\n      swap2\n      swap1\n      dup2\n      dup2\n      mstore\n      0x20\n      add\n      dup3\n      dup1\n      sload\n      tag_338\n      swap1\n      tag_139\n      jump\t// in\n    tag_338:\n      dup1\n      iszero\n      tag_339\n      jumpi\n      dup1\n      0x1f\n      lt\n      tag_340\n      jumpi\n      0x0100\n      dup1\n      dup4\n      sload\n      div\n      mul\n      dup4\n      mstore\n      swap2\n      0x20\n      add\n      swap2\n      jump(tag_339)\n    tag_340:\n      dup3\n      add\n      swap2\n      swap1\n      0x00\n      mstore\n      keccak256(0x00, 0x20)\n      swap1\n    tag_341:\n      dup2\n      sload\n      dup2\n      mstore\n      swap1\n      0x01\n      add\n      swap1\n      0x20\n      add\n      dup1\n      dup4\n      gt\n      tag_341\n      jumpi\n      dup3\n      swap1\n      sub\n      0x1f\n      and\n      dup3\n      add\n      swap2\n    tag_339:\n      pop\n      pop\n      pop\n      pop\n      pop\n      swap4\n      pop\n      dup3\n      dup1\n      sload\n      tag_342\n      swap1\n      tag_139\n      jump\t// in\n    tag_342:\n      dup1\n      0x1f\n      add\n      0x20\n      dup1\n      swap2\n      div\n      mul\n      0x20\n      add\n      mload(0x40)\n      swap1\n      dup2\n      add\n      0x40\n      mstore\n      dup1\n      swap3\n      swap2\n      swap1\n      dup2\n      dup2\n      mstore\n      0x20\n      add\n      dup3\n      dup1\n      sload\n      tag_343\n      swap1\n      tag_139\n      jump\t// in\n    tag_343:\n      dup1\n      iszero\n      tag_344\n      jumpi\n      dup1\n      0x1f\n      lt\n      tag_345\n      jumpi\n      0x0100\n      dup1\n      dup4\n      sload\n      div\n      mul\n      dup4\n      mstore\n      swap2\n      0x20\n      add\n      swap2\n      jump(tag_344)\n    tag_345:\n      dup3\n      add\n      swap2\n      swap1\n      0x00\n      mstore\n      keccak256(0x00, 0x20)\n      swap1\n    tag_346:\n      dup2\n      sload\n      dup2\n      mstore\n      swap1\n      0x01\n      add\n      swap1\n      0x20\n      add\n      dup1\n      dup4\n      gt\n      tag_346\n      jumpi\n      dup3\n      swap1\n      sub\n      0x1f\n      and\n      dup3\n      add\n      swap2\n    tag_344:\n      pop\n      pop\n      pop\n      pop\n      pop\n      swap3\n      pop\n      dup2\n      dup1\n      sload\n      tag_347\n      swap1\n      tag_139\n      jump\t// in\n    tag_347:\n      dup1\n      0x1f\n      add\n      0x20\n      dup1\n      swap2\n      div\n      mul\n      0x20\n      add\n      mload(0x40)\n      swap1\n      dup2\n      add\n      0x40\n      mstore\n      dup1\n      swap3\n      swap2\n      swap1\n      dup2\n      dup2\n      mstore\n      0x20\n      add\n      dup3\n      dup1\n      sload\n      tag_348\n      swap1\n      tag_139\n      jump\t// in\n    tag_348:\n      dup1\n      iszero\n      tag_349\n      jumpi\n      dup1\n      0x1f\n      lt\n      tag_350\n      jumpi\n      0x0100\n      dup1\n      dup4\n      sload\n      div\n      mul\n      dup4\n      mstore\n      swap2\n      0x20\n      add\n      swap2\n      jump(tag_349)\n    tag_350:\n      dup3\n      add\n      swap2\n      swap1\n      0x00\n      mstore\n      keccak256(0x00, 0x20)\n      swap1\n    tag_351:\n      dup2\n      sload\n      dup2\n      mstore\n      swap1\n      0x01\n      add\n      swap1\n      0x20\n      add\n      dup1\n      dup4\n      gt\n      tag_351\n      jumpi\n      dup3\n      swap1\n      sub\n      0x1f\n      and\n      dup3\n      add\n      swap2\n    tag_349:\n      pop\n      pop\n      pop\n      pop\n      pop\n      swap2\n      pop\n      dup1\n      dup1\n      sload\n      tag_352\n      swap1\n      tag_139\n      jump\t// in\n    tag_352:\n      dup1\n      0x1f\n      add\n      0x20\n      dup1\n      swap2\n      div\n      mul\n      0x20\n      add\n      mload(0x40)\n      swap1\n      dup2\n      add\n      0x40\n      mstore\n      dup1\n      swap3\n      swap2\n      swap1\n      dup2\n      dup2\n      mstore\n      0x20\n      add\n      dup3\n      dup1\n      sload\n      tag_353\n      swap1\n      tag_139\n      jump\t// in\n    tag_353:\n      dup1\n      iszero\n      tag_354\n      jumpi\n      dup1\n      0x1f\n      lt\n      tag_355\n      jumpi\n      0x0100\n      dup1\n      dup4\n      sload\n      div\n      mul\n      dup4\n      mstore\n      swap2\n      0x20\n      add\n      swap2\n      jump(tag_354)\n    tag_355:\n      dup3\n      add\n      swap2\n      swap1\n      0x00\n      mstore\n      keccak256(0x00, 0x20)\n      swap1\n    tag_356:\n      dup2\n      sload\n      dup2\n      mstore\n      swap1\n      0x01\n      add\n      swap1\n      0x20\n      add\n      dup1\n      dup4\n      gt\n      tag_356\n      jumpi\n      dup3\n      swap1\n      sub\n      0x1f\n      and\n      dup3\n      add\n      swap2\n    tag_354:\n      pop\n      pop\n      pop\n      pop\n      pop\n      swap1\n      pop\n      swap5\n      pop\n      swap5\n      pop\n      swap5\n      pop\n      swap5\n      pop\n      swap5\n      pop\n        /* \"contracts/Profile.sol\":3768:4161  function getEducation(uint index) public view returns(string memory, string memory, string memory, string memory, string memory) {\r... */\n      swap2\n      swap4\n      swap6\n      swap1\n      swap3\n      swap5\n      pop\n      jump\t// out\n        /* \"contracts/Profile.sol\":6407:6483  function delProfile() external {\r... */\n    tag_99:\n        /* \"contracts/Profile.sol\":6456:6463  profile */\n      0x00\n        /* \"contracts/Profile.sol\":6456:6475  profile[msg.sender] */\n      dup1\n        /* \"contracts/Profile.sol\":6464:6474  msg.sender */\n      caller\n        /* \"contracts/Profile.sol\":6456:6475  profile[msg.sender] */\n      0xffffffffffffffffffffffffffffffffffffffff\n      and\n      0xffffffffffffffffffffffffffffffffffffffff\n      and\n      dup2\n      mstore\n      0x20\n      add\n      swap1\n      dup2\n      mstore\n      0x20\n      add\n      0x00\n      keccak256\n      0x00\n        /* \"contracts/Profile.sol\":6449:6475  delete profile[msg.sender] */\n      dup1\n      dup3\n      add\n      0x00\n      dup1\n      dup3\n      add\n      0x00\n      tag_358\n      swap2\n      swap1\n      tag_158\n      jump\t// in\n    tag_358:\n      0x01\n      dup3\n      add\n      0x00\n      tag_359\n      swap2\n      swap1\n      tag_158\n      jump\t// in\n    tag_359:\n      0x02\n      dup3\n      add\n      exp(0x0100, 0x00)\n      dup2\n      sload\n      swap1\n      0xffffffffffffffffffffffffffffffffffffffff\n      mul\n      not\n      and\n      swap1\n      sstore\n      0x03\n      dup3\n      add\n      0x00\n      tag_360\n      swap2\n      swap1\n      tag_158\n      jump\t// in\n    tag_360:\n      0x04\n      dup3\n      add\n      0x00\n      tag_361\n      swap2\n      swap1\n      tag_158\n      jump\t// in\n    tag_361:\n      0x05\n      dup3\n      add\n      0x00\n      tag_362\n      swap2\n      swap1\n      tag_158\n      jump\t// in\n    tag_362:\n      0x06\n      dup3\n      add\n      0x00\n      tag_363\n      swap2\n      swap1\n      tag_158\n      jump\t// in\n    tag_363:\n      0x07\n      dup3\n      add\n      0x00\n      swap1\n      sstore\n      pop\n      pop\n      0x08\n      dup3\n      add\n      0x00\n      dup1\n      dup3\n      add\n      0x00\n      tag_364\n      swap2\n      swap1\n      tag_158\n      jump\t// in\n    tag_364:\n      0x01\n      dup3\n      add\n      0x00\n      tag_365\n      swap2\n      swap1\n      tag_158\n      jump\t// in\n    tag_365:\n      0x02\n      dup3\n      add\n      0x00\n      tag_366\n      swap2\n      swap1\n      tag_158\n      jump\t// in\n    tag_366:\n      0x03\n      dup3\n      add\n      0x00\n      tag_367\n      swap2\n      swap1\n      tag_158\n      jump\t// in\n    tag_367:\n      0x04\n      dup3\n      add\n      0x00\n      tag_368\n      swap2\n      swap1\n      tag_158\n      jump\t// in\n    tag_368:\n      0x05\n      dup3\n      add\n      0x00\n      tag_369\n      swap2\n      swap1\n      tag_158\n      jump\t// in\n    tag_369:\n      pop\n      pop\n      0x0e\n      dup3\n      add\n      0x00\n      dup1\n      dup3\n      add\n      0x00\n      tag_370\n      swap2\n      swap1\n      tag_123\n      jump\t// in\n    tag_370:\n      0x01\n      dup3\n      add\n      0x00\n      tag_371\n      swap2\n      swap1\n      tag_123\n      jump\t// in\n    tag_371:\n      0x02\n      dup3\n      add\n      0x00\n      tag_372\n      swap2\n      swap1\n      tag_123\n      jump\t// in\n    tag_372:\n      pop\n      pop\n      0x11\n      dup3\n      add\n      0x00\n      tag_373\n      swap2\n      swap1\n      tag_315\n      jump\t// in\n    tag_373:\n      0x12\n      dup3\n      add\n      0x00\n      dup1\n      dup3\n      add\n      0x00\n      tag_374\n      swap2\n      swap1\n      tag_123\n      jump\t// in\n    tag_374:\n      0x01\n      dup3\n      add\n      0x00\n      tag_375\n      swap2\n      swap1\n      tag_123\n      jump\t// in\n    tag_375:\n      pop\n      pop\n      0x14\n      dup3\n      add\n      0x00\n      tag_376\n      swap2\n      swap1\n      tag_285\n      jump\t// in\n    tag_376:\n      0x15\n      dup3\n      add\n      0x00\n      tag_377\n      swap2\n      swap1\n      tag_103\n      jump\t// in\n    tag_377:\n      pop\n      pop\n        /* \"contracts/Profile.sol\":6407:6483  function delProfile() external {\r... */\n      jump\t// out\n    tag_103:\n      pop\n      dup1\n      sload\n      0x00\n      dup3\n      sstore\n      0x02\n      mul\n      swap1\n      0x00\n      mstore\n      keccak256(0x00, 0x20)\n      swap1\n      dup2\n      add\n      swap1\n      tag_379\n      swap2\n      swap1\n      tag_380\n      jump\t// in\n    tag_379:\n      pop\n      jump\t// out\n    tag_106:\n      mload(0x40)\n      dup1\n      0xa0\n      add\n      0x40\n      mstore\n      dup1\n      0x60\n      dup2\n      mstore\n      0x20\n      add\n      0x60\n      dup2\n      mstore\n      0x20\n      add\n      0x60\n      dup2\n      mstore\n      0x20\n      add\n      0x60\n      dup2\n      mstore\n      0x20\n      add\n      0x60\n      dup2\n      mstore\n      pop\n      swap1\n      jump\t// out\n    tag_109:\n      dup3\n      dup1\n      sload\n      tag_381\n      swap1\n      tag_139\n      jump\t// in\n    tag_381:\n      swap1\n      0x00\n      mstore\n      keccak256(0x00, 0x20)\n      swap1\n      0x1f\n      add\n      0x20\n      swap1\n      div\n      dup2\n      add\n      swap3\n      dup3\n      tag_383\n      jumpi\n      0x00\n      dup6\n      sstore\n      jump(tag_382)\n    tag_383:\n      dup3\n      0x1f\n      lt\n      tag_384\n      jumpi\n      dup1\n      mload\n      not(0xff)\n      and\n      dup4\n      dup1\n      add\n      or\n      dup6\n      sstore\n      jump(tag_382)\n    tag_384:\n      dup3\n      dup1\n      add\n      0x01\n      add\n      dup6\n      sstore\n      dup3\n      iszero\n      tag_382\n      jumpi\n      swap2\n      dup3\n      add\n    tag_385:\n      dup3\n      dup2\n      gt\n      iszero\n      tag_386\n      jumpi\n      dup3\n      mload\n      dup3\n      sstore\n      swap2\n      0x20\n      add\n      swap2\n      swap1\n      0x01\n      add\n      swap1\n      jump(tag_385)\n    tag_386:\n    tag_382:\n      pop\n      swap1\n      pop\n      tag_387\n      swap2\n      swap1\n      tag_388\n      jump\t// in\n    tag_387:\n      pop\n      swap1\n      jump\t// out\n    tag_114:\n      dup3\n      dup1\n      sload\n      dup3\n      dup3\n      sstore\n      swap1\n      0x00\n      mstore\n      keccak256(0x00, 0x20)\n      swap1\n      dup2\n      add\n      swap3\n      dup3\n      iszero\n      tag_389\n      jumpi\n      swap2\n      0x20\n      mul\n      dup3\n      add\n    tag_390:\n      dup3\n      dup2\n      gt\n      iszero\n      tag_391\n      jumpi\n      dup3\n      mload\n      dup3\n      swap1\n      dup1\n      mload\n      swap1\n      0x20\n      add\n      swap1\n      tag_392\n      swap3\n      swap2\n      swap1\n      tag_109\n      jump\t// in\n    tag_392:\n      pop\n      swap2\n      0x20\n      add\n      swap2\n      swap1\n      0x01\n      add\n      swap1\n      jump(tag_390)\n    tag_391:\n    tag_389:\n      pop\n      swap1\n      pop\n      tag_393\n      swap2\n      swap1\n      tag_394\n      jump\t// in\n    tag_393:\n      pop\n      swap1\n      jump\t// out\n    tag_117:\n      mload(0x40)\n      dup1\n      0x40\n      add\n      0x40\n      mstore\n      dup1\n      0x60\n      dup2\n      mstore\n      0x20\n      add\n      0x60\n      dup2\n      mstore\n      pop\n      swap1\n      jump\t// out\n    tag_123:\n      pop\n      dup1\n      sload\n      0x00\n      dup3\n      sstore\n      swap1\n      0x00\n      mstore\n      keccak256(0x00, 0x20)\n      swap1\n      dup2\n      add\n      swap1\n      tag_396\n      swap2\n      swap1\n      tag_394\n      jump\t// in\n    tag_396:\n      pop\n      jump\t// out\n    tag_158:\n      pop\n      dup1\n      sload\n      tag_397\n      swap1\n      tag_139\n      jump\t// in\n    tag_397:\n      0x00\n      dup3\n      sstore\n      dup1\n      0x1f\n      lt\n      tag_399\n      jumpi\n      pop\n      jump(tag_398)\n    tag_399:\n      0x1f\n      add\n      0x20\n      swap1\n      div\n      swap1\n      0x00\n      mstore\n      keccak256(0x00, 0x20)\n      swap1\n      dup2\n      add\n      swap1\n      tag_400\n      swap2\n      swap1\n      tag_388\n      jump\t// in\n    tag_400:\n    tag_398:\n      pop\n      jump\t// out\n    tag_285:\n      pop\n      dup1\n      sload\n      0x00\n      dup3\n      sstore\n      0x05\n      mul\n      swap1\n      0x00\n      mstore\n      keccak256(0x00, 0x20)\n      swap1\n      dup2\n      add\n      swap1\n      tag_402\n      swap2\n      swap1\n      tag_403\n      jump\t// in\n    tag_402:\n      pop\n      jump\t// out\n    tag_288:\n      mload(0x40)\n      dup1\n      0xa0\n      add\n      0x40\n      mstore\n      dup1\n      0x60\n      dup2\n      mstore\n      0x20\n      add\n      0x60\n      dup2\n      mstore\n      0x20\n      add\n      0x60\n      dup2\n      mstore\n      0x20\n      add\n      0x60\n      dup2\n      mstore\n      0x20\n      add\n      0x60\n      dup2\n      mstore\n      pop\n      swap1\n      jump\t// out\n    tag_315:\n      pop\n      dup1\n      sload\n      0x00\n      dup3\n      sstore\n      0x05\n      mul\n      swap1\n      0x00\n      mstore\n      keccak256(0x00, 0x20)\n      swap1\n      dup2\n      add\n      swap1\n      tag_405\n      swap2\n      swap1\n      tag_406\n      jump\t// in\n    tag_405:\n      pop\n      jump\t// out\n    tag_380:\n    tag_407:\n      dup1\n      dup3\n      gt\n      iszero\n      tag_408\n      jumpi\n      0x00\n      dup1\n      dup3\n      add\n      0x00\n      tag_409\n      swap2\n      swap1\n      tag_158\n      jump\t// in\n    tag_409:\n      0x01\n      dup3\n      add\n      0x00\n      tag_410\n      swap2\n      swap1\n      tag_158\n      jump\t// in\n    tag_410:\n      pop\n      0x02\n      add\n      jump(tag_407)\n    tag_408:\n      pop\n      swap1\n      jump\t// out\n    tag_388:\n    tag_411:\n      dup1\n      dup3\n      gt\n      iszero\n      tag_412\n      jumpi\n      0x00\n      dup2\n      0x00\n      swap1\n      sstore\n      pop\n      0x01\n      add\n      jump(tag_411)\n    tag_412:\n      pop\n      swap1\n      jump\t// out\n    tag_394:\n    tag_413:\n      dup1\n      dup3\n      gt\n      iszero\n      tag_414\n      jumpi\n      0x00\n      dup2\n      dup2\n      tag_415\n      swap2\n      swap1\n      tag_158\n      jump\t// in\n    tag_415:\n      pop\n      0x01\n      add\n      jump(tag_413)\n    tag_414:\n      pop\n      swap1\n      jump\t// out\n    tag_403:\n    tag_416:\n      dup1\n      dup3\n      gt\n      iszero\n      tag_417\n      jumpi\n      0x00\n      dup1\n      dup3\n      add\n      0x00\n      tag_418\n      swap2\n      swap1\n      tag_158\n      jump\t// in\n    tag_418:\n      0x01\n      dup3\n      add\n      0x00\n      tag_419\n      swap2\n      swap1\n      tag_158\n      jump\t// in\n    tag_419:\n      0x02\n      dup3\n      add\n      0x00\n      tag_420\n      swap2\n      swap1\n      tag_158\n      jump\t// in\n    tag_420:\n      0x03\n      dup3\n      add\n      0x00\n      tag_421\n      swap2\n      swap1\n      tag_158\n      jump\t// in\n    tag_421:\n      0x04\n      dup3\n      add\n      0x00\n      tag_422\n      swap2\n      swap1\n      tag_123\n      jump\t// in\n    tag_422:\n      pop\n      0x05\n      add\n      jump(tag_416)\n    tag_417:\n      pop\n      swap1\n      jump\t// out\n    tag_406:\n    tag_423:\n      dup1\n      dup3\n      gt\n      iszero\n      tag_424\n      jumpi\n      0x00\n      dup1\n      dup3\n      add\n      0x00\n      tag_425\n      swap2\n      swap1\n      tag_158\n      jump\t// in\n    tag_425:\n      0x01\n      dup3\n      add\n      0x00\n      tag_426\n      swap2\n      swap1\n      tag_158\n      jump\t// in\n    tag_426:\n      0x02\n      dup3\n      add\n      0x00\n      tag_427\n      swap2\n      swap1\n      tag_158\n      jump\t// in\n    tag_427:\n      0x03\n      dup3\n      add\n      0x00\n      tag_428\n      swap2\n      swap1\n      tag_158\n      jump\t// in\n    tag_428:\n      0x04\n      dup3\n      add\n      0x00\n      tag_429\n      swap2\n      swap1\n      tag_158\n      jump\t// in\n    tag_429:\n      pop\n      0x05\n      add\n      jump(tag_423)\n    tag_424:\n      pop\n      swap1\n      jump\t// out\n        /* \"#utility.yul\":23:980   */\n    tag_431:\n        /* \"#utility.yul\":129:134   */\n      0x00\n        /* \"#utility.yul\":154:245   */\n      tag_433\n        /* \"#utility.yul\":170:244   */\n      tag_434\n        /* \"#utility.yul\":237:243   */\n      dup5\n        /* \"#utility.yul\":170:244   */\n      tag_435\n      jump\t// in\n    tag_434:\n        /* \"#utility.yul\":154:245   */\n      tag_436\n      jump\t// in\n    tag_433:\n        /* \"#utility.yul\":145:245   */\n      swap1\n      pop\n        /* \"#utility.yul\":265:270   */\n      dup1\n        /* \"#utility.yul\":294:300   */\n      dup4\n        /* \"#utility.yul\":287:292   */\n      dup3\n        /* \"#utility.yul\":280:301   */\n      mstore\n        /* \"#utility.yul\":328:332   */\n      0x20\n        /* \"#utility.yul\":321:326   */\n      dup3\n        /* \"#utility.yul\":317:333   */\n      add\n        /* \"#utility.yul\":310:333   */\n      swap1\n      pop\n        /* \"#utility.yul\":354:360   */\n      dup3\n        /* \"#utility.yul\":404:407   */\n      dup6\n        /* \"#utility.yul\":396:400   */\n      0x20\n        /* \"#utility.yul\":388:394   */\n      dup7\n        /* \"#utility.yul\":384:401   */\n      mul\n        /* \"#utility.yul\":379:382   */\n      dup3\n        /* \"#utility.yul\":375:402   */\n      add\n        /* \"#utility.yul\":372:408   */\n      gt\n        /* \"#utility.yul\":369:512   */\n      iszero\n      tag_437\n      jumpi\n        /* \"#utility.yul\":423:502   */\n      tag_438\n      tag_439\n      jump\t// in\n    tag_438:\n        /* \"#utility.yul\":369:512   */\n    tag_437:\n        /* \"#utility.yul\":536:537   */\n      0x00\n        /* \"#utility.yul\":521:974   */\n    tag_440:\n        /* \"#utility.yul\":546:552   */\n      dup6\n        /* \"#utility.yul\":543:544   */\n      dup2\n        /* \"#utility.yul\":540:553   */\n      lt\n        /* \"#utility.yul\":521:974   */\n      iszero\n      tag_442\n      jumpi\n        /* \"#utility.yul\":628:631   */\n      dup2\n        /* \"#utility.yul\":615:632   */\n      calldataload\n        /* \"#utility.yul\":664:682   */\n      0xffffffffffffffff\n        /* \"#utility.yul\":651:662   */\n      dup2\n        /* \"#utility.yul\":648:683   */\n      gt\n        /* \"#utility.yul\":645:767   */\n      iszero\n      tag_443\n      jumpi\n        /* \"#utility.yul\":686:765   */\n      tag_444\n      tag_445\n      jump\t// in\n    tag_444:\n        /* \"#utility.yul\":645:767   */\n    tag_443:\n        /* \"#utility.yul\":810:821   */\n      dup1\n        /* \"#utility.yul\":802:808   */\n      dup7\n        /* \"#utility.yul\":798:822   */\n      add\n        /* \"#utility.yul\":848:895   */\n      tag_446\n        /* \"#utility.yul\":891:894   */\n      dup10\n        /* \"#utility.yul\":879:889   */\n      dup3\n        /* \"#utility.yul\":848:895   */\n      tag_447\n      jump\t// in\n    tag_446:\n        /* \"#utility.yul\":843:846   */\n      dup6\n        /* \"#utility.yul\":836:896   */\n      mstore\n        /* \"#utility.yul\":925:929   */\n      0x20\n        /* \"#utility.yul\":920:923   */\n      dup6\n        /* \"#utility.yul\":916:930   */\n      add\n        /* \"#utility.yul\":909:930   */\n      swap5\n      pop\n        /* \"#utility.yul\":959:963   */\n      0x20\n        /* \"#utility.yul\":954:957   */\n      dup5\n        /* \"#utility.yul\":950:964   */\n      add\n        /* \"#utility.yul\":943:964   */\n      swap4\n      pop\n        /* \"#utility.yul\":581:974   */\n      pop\n      pop\n        /* \"#utility.yul\":568:569   */\n      0x01\n        /* \"#utility.yul\":565:566   */\n      dup2\n        /* \"#utility.yul\":561:570   */\n      add\n        /* \"#utility.yul\":556:570   */\n      swap1\n      pop\n        /* \"#utility.yul\":521:974   */\n      jump(tag_440)\n    tag_442:\n        /* \"#utility.yul\":525:539   */\n      pop\n        /* \"#utility.yul\":135:980   */\n      pop\n      pop\n        /* \"#utility.yul\":23:980   */\n      swap4\n      swap3\n      pop\n      pop\n      pop\n      jump\t// out\n        /* \"#utility.yul\":986:1398   */\n    tag_448:\n        /* \"#utility.yul\":1064:1069   */\n      0x00\n        /* \"#utility.yul\":1089:1155   */\n      tag_450\n        /* \"#utility.yul\":1105:1154   */\n      tag_451\n        /* \"#utility.yul\":1147:1153   */\n      dup5\n        /* \"#utility.yul\":1105:1154   */\n      tag_452\n      jump\t// in\n    tag_451:\n        /* \"#utility.yul\":1089:1155   */\n      tag_436\n      jump\t// in\n    tag_450:\n        /* \"#utility.yul\":1080:1155   */\n      swap1\n      pop\n        /* \"#utility.yul\":1178:1184   */\n      dup3\n        /* \"#utility.yul\":1171:1176   */\n      dup2\n        /* \"#utility.yul\":1164:1185   */\n      mstore\n        /* \"#utility.yul\":1216:1220   */\n      0x20\n        /* \"#utility.yul\":1209:1214   */\n      dup2\n        /* \"#utility.yul\":1205:1221   */\n      add\n        /* \"#utility.yul\":1254:1257   */\n      dup5\n        /* \"#utility.yul\":1245:1251   */\n      dup5\n        /* \"#utility.yul\":1240:1243   */\n      dup5\n        /* \"#utility.yul\":1236:1252   */\n      add\n        /* \"#utility.yul\":1233:1258   */\n      gt\n        /* \"#utility.yul\":1230:1342   */\n      iszero\n      tag_453\n      jumpi\n        /* \"#utility.yul\":1261:1340   */\n      tag_454\n      tag_455\n      jump\t// in\n    tag_454:\n        /* \"#utility.yul\":1230:1342   */\n    tag_453:\n        /* \"#utility.yul\":1351:1392   */\n      tag_456\n        /* \"#utility.yul\":1385:1391   */\n      dup5\n        /* \"#utility.yul\":1380:1383   */\n      dup3\n        /* \"#utility.yul\":1375:1378   */\n      dup6\n        /* \"#utility.yul\":1351:1392   */\n      tag_457\n      jump\t// in\n    tag_456:\n        /* \"#utility.yul\":1070:1398   */\n      pop\n        /* \"#utility.yul\":986:1398   */\n      swap4\n      swap3\n      pop\n      pop\n      pop\n      jump\t// out\n        /* \"#utility.yul\":1404:1543   */\n    tag_458:\n        /* \"#utility.yul\":1450:1455   */\n      0x00\n        /* \"#utility.yul\":1488:1494   */\n      dup2\n        /* \"#utility.yul\":1475:1495   */\n      calldataload\n        /* \"#utility.yul\":1466:1495   */\n      swap1\n      pop\n        /* \"#utility.yul\":1504:1537   */\n      tag_460\n        /* \"#utility.yul\":1531:1536   */\n      dup2\n        /* \"#utility.yul\":1504:1537   */\n      tag_461\n      jump\t// in\n    tag_460:\n        /* \"#utility.yul\":1404:1543   */\n      swap3\n      swap2\n      pop\n      pop\n      jump\t// out\n        /* \"#utility.yul\":1565:1955   */\n    tag_462:\n        /* \"#utility.yul\":1646:1651   */\n      0x00\n        /* \"#utility.yul\":1695:1698   */\n      dup3\n        /* \"#utility.yul\":1688:1692   */\n      0x1f\n        /* \"#utility.yul\":1680:1686   */\n      dup4\n        /* \"#utility.yul\":1676:1693   */\n      add\n        /* \"#utility.yul\":1672:1699   */\n      slt\n        /* \"#utility.yul\":1662:1784   */\n      tag_464\n      jumpi\n        /* \"#utility.yul\":1703:1782   */\n      tag_465\n      tag_445\n      jump\t// in\n    tag_465:\n        /* \"#utility.yul\":1662:1784   */\n    tag_464:\n        /* \"#utility.yul\":1820:1826   */\n      dup2\n        /* \"#utility.yul\":1807:1827   */\n      calldataload\n        /* \"#utility.yul\":1845:1949   */\n      tag_466\n        /* \"#utility.yul\":1945:1948   */\n      dup5\n        /* \"#utility.yul\":1937:1943   */\n      dup3\n        /* \"#utility.yul\":1930:1934   */\n      0x20\n        /* \"#utility.yul\":1922:1928   */\n      dup7\n        /* \"#utility.yul\":1918:1935   */\n      add\n        /* \"#utility.yul\":1845:1949   */\n      tag_431\n      jump\t// in\n    tag_466:\n        /* \"#utility.yul\":1836:1949   */\n      swap2\n      pop\n        /* \"#utility.yul\":1652:1955   */\n      pop\n        /* \"#utility.yul\":1565:1955   */\n      swap3\n      swap2\n      pop\n      pop\n      jump\t// out\n        /* \"#utility.yul\":1975:2315   */\n    tag_447:\n        /* \"#utility.yul\":2031:2036   */\n      0x00\n        /* \"#utility.yul\":2080:2083   */\n      dup3\n        /* \"#utility.yul\":2073:2077   */\n      0x1f\n        /* \"#utility.yul\":2065:2071   */\n      dup4\n        /* \"#utility.yul\":2061:2078   */\n      add\n        /* \"#utility.yul\":2057:2084   */\n      slt\n        /* \"#utility.yul\":2047:2169   */\n      tag_468\n      jumpi\n        /* \"#utility.yul\":2088:2167   */\n      tag_469\n      tag_445\n      jump\t// in\n    tag_469:\n        /* \"#utility.yul\":2047:2169   */\n    tag_468:\n        /* \"#utility.yul\":2205:2211   */\n      dup2\n        /* \"#utility.yul\":2192:2212   */\n      calldataload\n        /* \"#utility.yul\":2230:2309   */\n      tag_470\n        /* \"#utility.yul\":2305:2308   */\n      dup5\n        /* \"#utility.yul\":2297:2303   */\n      dup3\n        /* \"#utility.yul\":2290:2294   */\n      0x20\n        /* \"#utility.yul\":2282:2288   */\n      dup7\n        /* \"#utility.yul\":2278:2295   */\n      add\n        /* \"#utility.yul\":2230:2309   */\n      tag_448\n      jump\t// in\n    tag_470:\n        /* \"#utility.yul\":2221:2309   */\n      swap2\n      pop\n        /* \"#utility.yul\":2037:2315   */\n      pop\n        /* \"#utility.yul\":1975:2315   */\n      swap3\n      swap2\n      pop\n      pop\n      jump\t// out\n        /* \"#utility.yul\":2321:2460   */\n    tag_471:\n        /* \"#utility.yul\":2367:2372   */\n      0x00\n        /* \"#utility.yul\":2405:2411   */\n      dup2\n        /* \"#utility.yul\":2392:2412   */\n      calldataload\n        /* \"#utility.yul\":2383:2412   */\n      swap1\n      pop\n        /* \"#utility.yul\":2421:2454   */\n      tag_473\n        /* \"#utility.yul\":2448:2453   */\n      dup2\n        /* \"#utility.yul\":2421:2454   */\n      tag_474\n      jump\t// in\n    tag_473:\n        /* \"#utility.yul\":2321:2460   */\n      swap3\n      swap2\n      pop\n      pop\n      jump\t// out\n        /* \"#utility.yul\":2466:2795   */\n    tag_75:\n        /* \"#utility.yul\":2525:2531   */\n      0x00\n        /* \"#utility.yul\":2574:2576   */\n      0x20\n        /* \"#utility.yul\":2562:2571   */\n      dup3\n        /* \"#utility.yul\":2553:2560   */\n      dup5\n        /* \"#utility.yul\":2549:2572   */\n      sub\n        /* \"#utility.yul\":2545:2577   */\n      slt\n        /* \"#utility.yul\":2542:2661   */\n      iszero\n      tag_476\n      jumpi\n        /* \"#utility.yul\":2580:2659   */\n      tag_477\n      tag_478\n      jump\t// in\n    tag_477:\n        /* \"#utility.yul\":2542:2661   */\n    tag_476:\n        /* \"#utility.yul\":2700:2701   */\n      0x00\n        /* \"#utility.yul\":2725:2778   */\n      tag_479\n        /* \"#utility.yul\":2770:2777   */\n      dup5\n        /* \"#utility.yul\":2761:2767   */\n      dup3\n        /* \"#utility.yul\":2750:2759   */\n      dup6\n        /* \"#utility.yul\":2746:2768   */\n      add\n        /* \"#utility.yul\":2725:2778   */\n      tag_458\n      jump\t// in\n    tag_479:\n        /* \"#utility.yul\":2715:2778   */\n      swap2\n      pop\n        /* \"#utility.yul\":2671:2788   */\n      pop\n        /* \"#utility.yul\":2466:2795   */\n      swap3\n      swap2\n      pop\n      pop\n      jump\t// out\n        /* \"#utility.yul\":2801:3735   */\n    tag_61:\n        /* \"#utility.yul\":2939:2945   */\n      0x00\n        /* \"#utility.yul\":2947:2953   */\n      dup1\n        /* \"#utility.yul\":2996:2998   */\n      0x40\n        /* \"#utility.yul\":2984:2993   */\n      dup4\n        /* \"#utility.yul\":2975:2982   */\n      dup6\n        /* \"#utility.yul\":2971:2994   */\n      sub\n        /* \"#utility.yul\":2967:2999   */\n      slt\n        /* \"#utility.yul\":2964:3083   */\n      iszero\n      tag_481\n      jumpi\n        /* \"#utility.yul\":3002:3081   */\n      tag_482\n      tag_478\n      jump\t// in\n    tag_482:\n        /* \"#utility.yul\":2964:3083   */\n    tag_481:\n        /* \"#utility.yul\":3150:3151   */\n      0x00\n        /* \"#utility.yul\":3139:3148   */\n      dup4\n        /* \"#utility.yul\":3135:3152   */\n      add\n        /* \"#utility.yul\":3122:3153   */\n      calldataload\n        /* \"#utility.yul\":3180:3198   */\n      0xffffffffffffffff\n        /* \"#utility.yul\":3172:3178   */\n      dup2\n        /* \"#utility.yul\":3169:3199   */\n      gt\n        /* \"#utility.yul\":3166:3283   */\n      iszero\n      tag_483\n      jumpi\n        /* \"#utility.yul\":3202:3281   */\n      tag_484\n      tag_485\n      jump\t// in\n    tag_484:\n        /* \"#utility.yul\":3166:3283   */\n    tag_483:\n        /* \"#utility.yul\":3307:3395   */\n      tag_486\n        /* \"#utility.yul\":3387:3394   */\n      dup6\n        /* \"#utility.yul\":3378:3384   */\n      dup3\n        /* \"#utility.yul\":3367:3376   */\n      dup7\n        /* \"#utility.yul\":3363:3385   */\n      add\n        /* \"#utility.yul\":3307:3395   */\n      tag_462\n      jump\t// in\n    tag_486:\n        /* \"#utility.yul\":3297:3395   */\n      swap3\n      pop\n        /* \"#utility.yul\":3093:3405   */\n      pop\n        /* \"#utility.yul\":3472:3474   */\n      0x20\n        /* \"#utility.yul\":3461:3470   */\n      dup4\n        /* \"#utility.yul\":3457:3475   */\n      add\n        /* \"#utility.yul\":3444:3476   */\n      calldataload\n        /* \"#utility.yul\":3503:3521   */\n      0xffffffffffffffff\n        /* \"#utility.yul\":3495:3501   */\n      dup2\n        /* \"#utility.yul\":3492:3522   */\n      gt\n        /* \"#utility.yul\":3489:3606   */\n      iszero\n      tag_487\n      jumpi\n        /* \"#utility.yul\":3525:3604   */\n      tag_488\n      tag_485\n      jump\t// in\n    tag_488:\n        /* \"#utility.yul\":3489:3606   */\n    tag_487:\n        /* \"#utility.yul\":3630:3718   */\n      tag_489\n        /* \"#utility.yul\":3710:3717   */\n      dup6\n        /* \"#utility.yul\":3701:3707   */\n      dup3\n        /* \"#utility.yul\":3690:3699   */\n      dup7\n        /* \"#utility.yul\":3686:3708   */\n      add\n        /* \"#utility.yul\":3630:3718   */\n      tag_462\n      jump\t// in\n    tag_489:\n        /* \"#utility.yul\":3620:3718   */\n      swap2\n      pop\n        /* \"#utility.yul\":3415:3728   */\n      pop\n        /* \"#utility.yul\":2801:3735   */\n      swap3\n      pop\n      swap3\n      swap1\n      pop\n      jump\t// out\n        /* \"#utility.yul\":3741:5050   */\n    tag_43:\n        /* \"#utility.yul\":3923:3929   */\n      0x00\n        /* \"#utility.yul\":3931:3937   */\n      dup1\n        /* \"#utility.yul\":3939:3945   */\n      0x00\n        /* \"#utility.yul\":3988:3990   */\n      0x60\n        /* \"#utility.yul\":3976:3985   */\n      dup5\n        /* \"#utility.yul\":3967:3974   */\n      dup7\n        /* \"#utility.yul\":3963:3986   */\n      sub\n        /* \"#utility.yul\":3959:3991   */\n      slt\n        /* \"#utility.yul\":3956:4075   */\n      iszero\n      tag_491\n      jumpi\n        /* \"#utility.yul\":3994:4073   */\n      tag_492\n      tag_478\n      jump\t// in\n    tag_492:\n        /* \"#utility.yul\":3956:4075   */\n    tag_491:\n        /* \"#utility.yul\":4142:4143   */\n      0x00\n        /* \"#utility.yul\":4131:4140   */\n      dup5\n        /* \"#utility.yul\":4127:4144   */\n      add\n        /* \"#utility.yul\":4114:4145   */\n      calldataload\n        /* \"#utility.yul\":4172:4190   */\n      0xffffffffffffffff\n        /* \"#utility.yul\":4164:4170   */\n      dup2\n        /* \"#utility.yul\":4161:4191   */\n      gt\n        /* \"#utility.yul\":4158:4275   */\n      iszero\n      tag_493\n      jumpi\n        /* \"#utility.yul\":4194:4273   */\n      tag_494\n      tag_485\n      jump\t// in\n    tag_494:\n        /* \"#utility.yul\":4158:4275   */\n    tag_493:\n        /* \"#utility.yul\":4299:4387   */\n      tag_495\n        /* \"#utility.yul\":4379:4386   */\n      dup7\n        /* \"#utility.yul\":4370:4376   */\n      dup3\n        /* \"#utility.yul\":4359:4368   */\n      dup8\n        /* \"#utility.yul\":4355:4377   */\n      add\n        /* \"#utility.yul\":4299:4387   */\n      tag_462\n      jump\t// in\n    tag_495:\n        /* \"#utility.yul\":4289:4387   */\n      swap4\n      pop\n        /* \"#utility.yul\":4085:4397   */\n      pop\n        /* \"#utility.yul\":4464:4466   */\n      0x20\n        /* \"#utility.yul\":4453:4462   */\n      dup5\n        /* \"#utility.yul\":4449:4467   */\n      add\n        /* \"#utility.yul\":4436:4468   */\n      calldataload\n        /* \"#utility.yul\":4495:4513   */\n      0xffffffffffffffff\n        /* \"#utility.yul\":4487:4493   */\n      dup2\n        /* \"#utility.yul\":4484:4514   */\n      gt\n        /* \"#utility.yul\":4481:4598   */\n      iszero\n      tag_496\n      jumpi\n        /* \"#utility.yul\":4517:4596   */\n      tag_497\n      tag_485\n      jump\t// in\n    tag_497:\n        /* \"#utility.yul\":4481:4598   */\n    tag_496:\n        /* \"#utility.yul\":4622:4710   */\n      tag_498\n        /* \"#utility.yul\":4702:4709   */\n      dup7\n        /* \"#utility.yul\":4693:4699   */\n      dup3\n        /* \"#utility.yul\":4682:4691   */\n      dup8\n        /* \"#utility.yul\":4678:4700   */\n      add\n        /* \"#utility.yul\":4622:4710   */\n      tag_462\n      jump\t// in\n    tag_498:\n        /* \"#utility.yul\":4612:4710   */\n      swap3\n      pop\n        /* \"#utility.yul\":4407:4720   */\n      pop\n        /* \"#utility.yul\":4787:4789   */\n      0x40\n        /* \"#utility.yul\":4776:4785   */\n      dup5\n        /* \"#utility.yul\":4772:4790   */\n      add\n        /* \"#utility.yul\":4759:4791   */\n      calldataload\n        /* \"#utility.yul\":4818:4836   */\n      0xffffffffffffffff\n        /* \"#utility.yul\":4810:4816   */\n      dup2\n        /* \"#utility.yul\":4807:4837   */\n      gt\n        /* \"#utility.yul\":4804:4921   */\n      iszero\n      tag_499\n      jumpi\n        /* \"#utility.yul\":4840:4919   */\n      tag_500\n      tag_485\n      jump\t// in\n    tag_500:\n        /* \"#utility.yul\":4804:4921   */\n    tag_499:\n        /* \"#utility.yul\":4945:5033   */\n      tag_501\n        /* \"#utility.yul\":5025:5032   */\n      dup7\n        /* \"#utility.yul\":5016:5022   */\n      dup3\n        /* \"#utility.yul\":5005:5014   */\n      dup8\n        /* \"#utility.yul\":5001:5023   */\n      add\n        /* \"#utility.yul\":4945:5033   */\n      tag_462\n      jump\t// in\n    tag_501:\n        /* \"#utility.yul\":4935:5033   */\n      swap2\n      pop\n        /* \"#utility.yul\":4730:5043   */\n      pop\n        /* \"#utility.yul\":3741:5050   */\n      swap3\n      pop\n      swap3\n      pop\n      swap3\n      jump\t// out\n        /* \"#utility.yul\":5056:5890   */\n    tag_39:\n        /* \"#utility.yul\":5144:5150   */\n      0x00\n        /* \"#utility.yul\":5152:5158   */\n      dup1\n        /* \"#utility.yul\":5201:5203   */\n      0x40\n        /* \"#utility.yul\":5189:5198   */\n      dup4\n        /* \"#utility.yul\":5180:5187   */\n      dup6\n        /* \"#utility.yul\":5176:5199   */\n      sub\n        /* \"#utility.yul\":5172:5204   */\n      slt\n        /* \"#utility.yul\":5169:5288   */\n      iszero\n      tag_503\n      jumpi\n        /* \"#utility.yul\":5207:5286   */\n      tag_504\n      tag_478\n      jump\t// in\n    tag_504:\n        /* \"#utility.yul\":5169:5288   */\n    tag_503:\n        /* \"#utility.yul\":5355:5356   */\n      0x00\n        /* \"#utility.yul\":5344:5353   */\n      dup4\n        /* \"#utility.yul\":5340:5357   */\n      add\n        /* \"#utility.yul\":5327:5358   */\n      calldataload\n        /* \"#utility.yul\":5385:5403   */\n      0xffffffffffffffff\n        /* \"#utility.yul\":5377:5383   */\n      dup2\n        /* \"#utility.yul\":5374:5404   */\n      gt\n        /* \"#utility.yul\":5371:5488   */\n      iszero\n      tag_505\n      jumpi\n        /* \"#utility.yul\":5407:5486   */\n      tag_506\n      tag_485\n      jump\t// in\n    tag_506:\n        /* \"#utility.yul\":5371:5488   */\n    tag_505:\n        /* \"#utility.yul\":5512:5575   */\n      tag_507\n        /* \"#utility.yul\":5567:5574   */\n      dup6\n        /* \"#utility.yul\":5558:5564   */\n      dup3\n        /* \"#utility.yul\":5547:5556   */\n      dup7\n        /* \"#utility.yul\":5543:5565   */\n      add\n        /* \"#utility.yul\":5512:5575   */\n      tag_447\n      jump\t// in\n    tag_507:\n        /* \"#utility.yul\":5502:5575   */\n      swap3\n      pop\n        /* \"#utility.yul\":5298:5585   */\n      pop\n        /* \"#utility.yul\":5652:5654   */\n      0x20\n        /* \"#utility.yul\":5641:5650   */\n      dup4\n        /* \"#utility.yul\":5637:5655   */\n      add\n        /* \"#utility.yul\":5624:5656   */\n      calldataload\n        /* \"#utility.yul\":5683:5701   */\n      0xffffffffffffffff\n        /* \"#utility.yul\":5675:5681   */\n      dup2\n        /* \"#utility.yul\":5672:5702   */\n      gt\n        /* \"#utility.yul\":5669:5786   */\n      iszero\n      tag_508\n      jumpi\n        /* \"#utility.yul\":5705:5784   */\n      tag_509\n      tag_485\n      jump\t// in\n    tag_509:\n        /* \"#utility.yul\":5669:5786   */\n    tag_508:\n        /* \"#utility.yul\":5810:5873   */\n      tag_510\n        /* \"#utility.yul\":5865:5872   */\n      dup6\n        /* \"#utility.yul\":5856:5862   */\n      dup3\n        /* \"#utility.yul\":5845:5854   */\n      dup7\n        /* \"#utility.yul\":5841:5863   */\n      add\n        /* \"#utility.yul\":5810:5873   */\n      tag_447\n      jump\t// in\n    tag_510:\n        /* \"#utility.yul\":5800:5873   */\n      swap2\n      pop\n        /* \"#utility.yul\":5595:5883   */\n      pop\n        /* \"#utility.yul\":5056:5890   */\n      swap3\n      pop\n      swap3\n      swap1\n      pop\n      jump\t// out\n        /* \"#utility.yul\":5896:7757   */\n    tag_35:\n        /* \"#utility.yul\":6066:6072   */\n      0x00\n        /* \"#utility.yul\":6074:6080   */\n      dup1\n        /* \"#utility.yul\":6082:6088   */\n      0x00\n        /* \"#utility.yul\":6090:6096   */\n      dup1\n        /* \"#utility.yul\":6098:6104   */\n      0x00\n        /* \"#utility.yul\":6147:6150   */\n      0xa0\n        /* \"#utility.yul\":6135:6144   */\n      dup7\n        /* \"#utility.yul\":6126:6133   */\n      dup9\n        /* \"#utility.yul\":6122:6145   */\n      sub\n        /* \"#utility.yul\":6118:6151   */\n      slt\n        /* \"#utility.yul\":6115:6235   */\n      iszero\n      tag_512\n      jumpi\n        /* \"#utility.yul\":6154:6233   */\n      tag_513\n      tag_478\n      jump\t// in\n    tag_513:\n        /* \"#utility.yul\":6115:6235   */\n    tag_512:\n        /* \"#utility.yul\":6302:6303   */\n      0x00\n        /* \"#utility.yul\":6291:6300   */\n      dup7\n        /* \"#utility.yul\":6287:6304   */\n      add\n        /* \"#utility.yul\":6274:6305   */\n      calldataload\n        /* \"#utility.yul\":6332:6350   */\n      0xffffffffffffffff\n        /* \"#utility.yul\":6324:6330   */\n      dup2\n        /* \"#utility.yul\":6321:6351   */\n      gt\n        /* \"#utility.yul\":6318:6435   */\n      iszero\n      tag_514\n      jumpi\n        /* \"#utility.yul\":6354:6433   */\n      tag_515\n      tag_485\n      jump\t// in\n    tag_515:\n        /* \"#utility.yul\":6318:6435   */\n    tag_514:\n        /* \"#utility.yul\":6459:6522   */\n      tag_516\n        /* \"#utility.yul\":6514:6521   */\n      dup9\n        /* \"#utility.yul\":6505:6511   */\n      dup3\n        /* \"#utility.yul\":6494:6503   */\n      dup10\n        /* \"#utility.yul\":6490:6512   */\n      add\n        /* \"#utility.yul\":6459:6522   */\n      tag_447\n      jump\t// in\n    tag_516:\n        /* \"#utility.yul\":6449:6522   */\n      swap6\n      pop\n        /* \"#utility.yul\":6245:6532   */\n      pop\n        /* \"#utility.yul\":6599:6601   */\n      0x20\n        /* \"#utility.yul\":6588:6597   */\n      dup7\n        /* \"#utility.yul\":6584:6602   */\n      add\n        /* \"#utility.yul\":6571:6603   */\n      calldataload\n        /* \"#utility.yul\":6630:6648   */\n      0xffffffffffffffff\n        /* \"#utility.yul\":6622:6628   */\n      dup2\n        /* \"#utility.yul\":6619:6649   */\n      gt\n        /* \"#utility.yul\":6616:6733   */\n      iszero\n      tag_517\n      jumpi\n        /* \"#utility.yul\":6652:6731   */\n      tag_518\n      tag_485\n      jump\t// in\n    tag_518:\n        /* \"#utility.yul\":6616:6733   */\n    tag_517:\n        /* \"#utility.yul\":6757:6820   */\n      tag_519\n        /* \"#utility.yul\":6812:6819   */\n      dup9\n        /* \"#utility.yul\":6803:6809   */\n      dup3\n        /* \"#utility.yul\":6792:6801   */\n      dup10\n        /* \"#utility.yul\":6788:6810   */\n      add\n        /* \"#utility.yul\":6757:6820   */\n      tag_447\n      jump\t// in\n    tag_519:\n        /* \"#utility.yul\":6747:6820   */\n      swap5\n      pop\n        /* \"#utility.yul\":6542:6830   */\n      pop\n        /* \"#utility.yul\":6897:6899   */\n      0x40\n        /* \"#utility.yul\":6886:6895   */\n      dup7\n        /* \"#utility.yul\":6882:6900   */\n      add\n        /* \"#utility.yul\":6869:6901   */\n      calldataload\n        /* \"#utility.yul\":6928:6946   */\n      0xffffffffffffffff\n        /* \"#utility.yul\":6920:6926   */\n      dup2\n        /* \"#utility.yul\":6917:6947   */\n      gt\n        /* \"#utility.yul\":6914:7031   */\n      iszero\n      tag_520\n      jumpi\n        /* \"#utility.yul\":6950:7029   */\n      tag_521\n      tag_485\n      jump\t// in\n    tag_521:\n        /* \"#utility.yul\":6914:7031   */\n    tag_520:\n        /* \"#utility.yul\":7055:7118   */\n      tag_522\n        /* \"#utility.yul\":7110:7117   */\n      dup9\n        /* \"#utility.yul\":7101:7107   */\n      dup3\n        /* \"#utility.yul\":7090:7099   */\n      dup10\n        /* \"#utility.yul\":7086:7108   */\n      add\n        /* \"#utility.yul\":7055:7118   */\n      tag_447\n      jump\t// in\n    tag_522:\n        /* \"#utility.yul\":7045:7118   */\n      swap4\n      pop\n        /* \"#utility.yul\":6840:7128   */\n      pop\n        /* \"#utility.yul\":7195:7197   */\n      0x60\n        /* \"#utility.yul\":7184:7193   */\n      dup7\n        /* \"#utility.yul\":7180:7198   */\n      add\n        /* \"#utility.yul\":7167:7199   */\n      calldataload\n        /* \"#utility.yul\":7226:7244   */\n      0xffffffffffffffff\n        /* \"#utility.yul\":7218:7224   */\n      dup2\n        /* \"#utility.yul\":7215:7245   */\n      gt\n        /* \"#utility.yul\":7212:7329   */\n      iszero\n      tag_523\n      jumpi\n        /* \"#utility.yul\":7248:7327   */\n      tag_524\n      tag_485\n      jump\t// in\n    tag_524:\n        /* \"#utility.yul\":7212:7329   */\n    tag_523:\n        /* \"#utility.yul\":7353:7416   */\n      tag_525\n        /* \"#utility.yul\":7408:7415   */\n      dup9\n        /* \"#utility.yul\":7399:7405   */\n      dup3\n        /* \"#utility.yul\":7388:7397   */\n      dup10\n        /* \"#utility.yul\":7384:7406   */\n      add\n        /* \"#utility.yul\":7353:7416   */\n      tag_447\n      jump\t// in\n    tag_525:\n        /* \"#utility.yul\":7343:7416   */\n      swap3\n      pop\n        /* \"#utility.yul\":7138:7426   */\n      pop\n        /* \"#utility.yul\":7493:7496   */\n      0x80\n        /* \"#utility.yul\":7482:7491   */\n      dup7\n        /* \"#utility.yul\":7478:7497   */\n      add\n        /* \"#utility.yul\":7465:7498   */\n      calldataload\n        /* \"#utility.yul\":7525:7543   */\n      0xffffffffffffffff\n        /* \"#utility.yul\":7517:7523   */\n      dup2\n        /* \"#utility.yul\":7514:7544   */\n      gt\n        /* \"#utility.yul\":7511:7628   */\n      iszero\n      tag_526\n      jumpi\n        /* \"#utility.yul\":7547:7626   */\n      tag_527\n      tag_485\n      jump\t// in\n    tag_527:\n        /* \"#utility.yul\":7511:7628   */\n    tag_526:\n        /* \"#utility.yul\":7652:7740   */\n      tag_528\n        /* \"#utility.yul\":7732:7739   */\n      dup9\n        /* \"#utility.yul\":7723:7729   */\n      dup3\n        /* \"#utility.yul\":7712:7721   */\n      dup10\n        /* \"#utility.yul\":7708:7730   */\n      add\n        /* \"#utility.yul\":7652:7740   */\n      tag_462\n      jump\t// in\n    tag_528:\n        /* \"#utility.yul\":7642:7740   */\n      swap2\n      pop\n        /* \"#utility.yul\":7436:7750   */\n      pop\n        /* \"#utility.yul\":5896:7757   */\n      swap3\n      swap6\n      pop\n      swap3\n      swap6\n      swap1\n      swap4\n      pop\n      jump\t// out\n        /* \"#utility.yul\":7763:9574   */\n    tag_65:\n        /* \"#utility.yul\":7908:7914   */\n      0x00\n        /* \"#utility.yul\":7916:7922   */\n      dup1\n        /* \"#utility.yul\":7924:7930   */\n      0x00\n        /* \"#utility.yul\":7932:7938   */\n      dup1\n        /* \"#utility.yul\":7940:7946   */\n      0x00\n        /* \"#utility.yul\":7989:7992   */\n      0xa0\n        /* \"#utility.yul\":7977:7986   */\n      dup7\n        /* \"#utility.yul\":7968:7975   */\n      dup9\n        /* \"#utility.yul\":7964:7987   */\n      sub\n        /* \"#utility.yul\":7960:7993   */\n      slt\n        /* \"#utility.yul\":7957:8077   */\n      iszero\n      tag_530\n      jumpi\n        /* \"#utility.yul\":7996:8075   */\n      tag_531\n      tag_478\n      jump\t// in\n    tag_531:\n        /* \"#utility.yul\":7957:8077   */\n    tag_530:\n        /* \"#utility.yul\":8144:8145   */\n      0x00\n        /* \"#utility.yul\":8133:8142   */\n      dup7\n        /* \"#utility.yul\":8129:8146   */\n      add\n        /* \"#utility.yul\":8116:8147   */\n      calldataload\n        /* \"#utility.yul\":8174:8192   */\n      0xffffffffffffffff\n        /* \"#utility.yul\":8166:8172   */\n      dup2\n        /* \"#utility.yul\":8163:8193   */\n      gt\n        /* \"#utility.yul\":8160:8277   */\n      iszero\n      tag_532\n      jumpi\n        /* \"#utility.yul\":8196:8275   */\n      tag_533\n      tag_485\n      jump\t// in\n    tag_533:\n        /* \"#utility.yul\":8160:8277   */\n    tag_532:\n        /* \"#utility.yul\":8301:8364   */\n      tag_534\n        /* \"#utility.yul\":8356:8363   */\n      dup9\n        /* \"#utility.yul\":8347:8353   */\n      dup3\n        /* \"#utility.yul\":8336:8345   */\n      dup10\n        /* \"#utility.yul\":8332:8354   */\n      add\n        /* \"#utility.yul\":8301:8364   */\n      tag_447\n      jump\t// in\n    tag_534:\n        /* \"#utility.yul\":8291:8364   */\n      swap6\n      pop\n        /* \"#utility.yul\":8087:8374   */\n      pop\n        /* \"#utility.yul\":8441:8443   */\n      0x20\n        /* \"#utility.yul\":8430:8439   */\n      dup7\n        /* \"#utility.yul\":8426:8444   */\n      add\n        /* \"#utility.yul\":8413:8445   */\n      calldataload\n        /* \"#utility.yul\":8472:8490   */\n      0xffffffffffffffff\n        /* \"#utility.yul\":8464:8470   */\n      dup2\n        /* \"#utility.yul\":8461:8491   */\n      gt\n        /* \"#utility.yul\":8458:8575   */\n      iszero\n      tag_535\n      jumpi\n        /* \"#utility.yul\":8494:8573   */\n      tag_536\n      tag_485\n      jump\t// in\n    tag_536:\n        /* \"#utility.yul\":8458:8575   */\n    tag_535:\n        /* \"#utility.yul\":8599:8662   */\n      tag_537\n        /* \"#utility.yul\":8654:8661   */\n      dup9\n        /* \"#utility.yul\":8645:8651   */\n      dup3\n        /* \"#utility.yul\":8634:8643   */\n      dup10\n        /* \"#utility.yul\":8630:8652   */\n      add\n        /* \"#utility.yul\":8599:8662   */\n      tag_447\n      jump\t// in\n    tag_537:\n        /* \"#utility.yul\":8589:8662   */\n      swap5\n      pop\n        /* \"#utility.yul\":8384:8672   */\n      pop\n        /* \"#utility.yul\":8739:8741   */\n      0x40\n        /* \"#utility.yul\":8728:8737   */\n      dup7\n        /* \"#utility.yul\":8724:8742   */\n      add\n        /* \"#utility.yul\":8711:8743   */\n      calldataload\n        /* \"#utility.yul\":8770:8788   */\n      0xffffffffffffffff\n        /* \"#utility.yul\":8762:8768   */\n      dup2\n        /* \"#utility.yul\":8759:8789   */\n      gt\n        /* \"#utility.yul\":8756:8873   */\n      iszero\n      tag_538\n      jumpi\n        /* \"#utility.yul\":8792:8871   */\n      tag_539\n      tag_485\n      jump\t// in\n    tag_539:\n        /* \"#utility.yul\":8756:8873   */\n    tag_538:\n        /* \"#utility.yul\":8897:8960   */\n      tag_540\n        /* \"#utility.yul\":8952:8959   */\n      dup9\n        /* \"#utility.yul\":8943:8949   */\n      dup3\n        /* \"#utility.yul\":8932:8941   */\n      dup10\n        /* \"#utility.yul\":8928:8950   */\n      add\n        /* \"#utility.yul\":8897:8960   */\n      tag_447\n      jump\t// in\n    tag_540:\n        /* \"#utility.yul\":8887:8960   */\n      swap4\n      pop\n        /* \"#utility.yul\":8682:8970   */\n      pop\n        /* \"#utility.yul\":9037:9039   */\n      0x60\n        /* \"#utility.yul\":9026:9035   */\n      dup7\n        /* \"#utility.yul\":9022:9040   */\n      add\n        /* \"#utility.yul\":9009:9041   */\n      calldataload\n        /* \"#utility.yul\":9068:9086   */\n      0xffffffffffffffff\n        /* \"#utility.yul\":9060:9066   */\n      dup2\n        /* \"#utility.yul\":9057:9087   */\n      gt\n        /* \"#utility.yul\":9054:9171   */\n      iszero\n      tag_541\n      jumpi\n        /* \"#utility.yul\":9090:9169   */\n      tag_542\n      tag_485\n      jump\t// in\n    tag_542:\n        /* \"#utility.yul\":9054:9171   */\n    tag_541:\n        /* \"#utility.yul\":9195:9258   */\n      tag_543\n        /* \"#utility.yul\":9250:9257   */\n      dup9\n        /* \"#utility.yul\":9241:9247   */\n      dup3\n        /* \"#utility.yul\":9230:9239   */\n      dup10\n        /* \"#utility.yul\":9226:9248   */\n      add\n        /* \"#utility.yul\":9195:9258   */\n      tag_447\n      jump\t// in\n    tag_543:\n        /* \"#utility.yul\":9185:9258   */\n      swap3\n      pop\n        /* \"#utility.yul\":8980:9268   */\n      pop\n        /* \"#utility.yul\":9335:9338   */\n      0x80\n        /* \"#utility.yul\":9324:9333   */\n      dup7\n        /* \"#utility.yul\":9320:9339   */\n      add\n        /* \"#utility.yul\":9307:9340   */\n      calldataload\n        /* \"#utility.yul\":9367:9385   */\n      0xffffffffffffffff\n        /* \"#utility.yul\":9359:9365   */\n      dup2\n        /* \"#utility.yul\":9356:9386   */\n      gt\n        /* \"#utility.yul\":9353:9470   */\n      iszero\n      tag_544\n      jumpi\n        /* \"#utility.yul\":9389:9468   */\n      tag_545\n      tag_485\n      jump\t// in\n    tag_545:\n        /* \"#utility.yul\":9353:9470   */\n    tag_544:\n        /* \"#utility.yul\":9494:9557   */\n      tag_546\n        /* \"#utility.yul\":9549:9556   */\n      dup9\n        /* \"#utility.yul\":9540:9546   */\n      dup3\n        /* \"#utility.yul\":9529:9538   */\n      dup10\n        /* \"#utility.yul\":9525:9547   */\n      add\n        /* \"#utility.yul\":9494:9557   */\n      tag_447\n      jump\t// in\n    tag_546:\n        /* \"#utility.yul\":9484:9557   */\n      swap2\n      pop\n        /* \"#utility.yul\":9278:9567   */\n      pop\n        /* \"#utility.yul\":7763:9574   */\n      swap3\n      swap6\n      pop\n      swap3\n      swap6\n      swap1\n      swap4\n      pop\n      jump\t// out\n        /* \"#utility.yul\":9580:11717   */\n    tag_69:\n        /* \"#utility.yul\":9744:9750   */\n      0x00\n        /* \"#utility.yul\":9752:9758   */\n      dup1\n        /* \"#utility.yul\":9760:9766   */\n      0x00\n        /* \"#utility.yul\":9768:9774   */\n      dup1\n        /* \"#utility.yul\":9776:9782   */\n      0x00\n        /* \"#utility.yul\":9784:9790   */\n      dup1\n        /* \"#utility.yul\":9833:9836   */\n      0xc0\n        /* \"#utility.yul\":9821:9830   */\n      dup8\n        /* \"#utility.yul\":9812:9819   */\n      dup10\n        /* \"#utility.yul\":9808:9831   */\n      sub\n        /* \"#utility.yul\":9804:9837   */\n      slt\n        /* \"#utility.yul\":9801:9921   */\n      iszero\n      tag_548\n      jumpi\n        /* \"#utility.yul\":9840:9919   */\n      tag_549\n      tag_478\n      jump\t// in\n    tag_549:\n        /* \"#utility.yul\":9801:9921   */\n    tag_548:\n        /* \"#utility.yul\":9988:9989   */\n      0x00\n        /* \"#utility.yul\":9977:9986   */\n      dup8\n        /* \"#utility.yul\":9973:9990   */\n      add\n        /* \"#utility.yul\":9960:9991   */\n      calldataload\n        /* \"#utility.yul\":10018:10036   */\n      0xffffffffffffffff\n        /* \"#utility.yul\":10010:10016   */\n      dup2\n        /* \"#utility.yul\":10007:10037   */\n      gt\n        /* \"#utility.yul\":10004:10121   */\n      iszero\n      tag_550\n      jumpi\n        /* \"#utility.yul\":10040:10119   */\n      tag_551\n      tag_485\n      jump\t// in\n    tag_551:\n        /* \"#utility.yul\":10004:10121   */\n    tag_550:\n        /* \"#utility.yul\":10145:10208   */\n      tag_552\n        /* \"#utility.yul\":10200:10207   */\n      dup10\n        /* \"#utility.yul\":10191:10197   */\n      dup3\n        /* \"#utility.yul\":10180:10189   */\n      dup11\n        /* \"#utility.yul\":10176:10198   */\n      add\n        /* \"#utility.yul\":10145:10208   */\n      tag_447\n      jump\t// in\n    tag_552:\n        /* \"#utility.yul\":10135:10208   */\n      swap7\n      pop\n        /* \"#utility.yul\":9931:10218   */\n      pop\n        /* \"#utility.yul\":10285:10287   */\n      0x20\n        /* \"#utility.yul\":10274:10283   */\n      dup8\n        /* \"#utility.yul\":10270:10288   */\n      add\n        /* \"#utility.yul\":10257:10289   */\n      calldataload\n        /* \"#utility.yul\":10316:10334   */\n      0xffffffffffffffff\n        /* \"#utility.yul\":10308:10314   */\n      dup2\n        /* \"#utility.yul\":10305:10335   */\n      gt\n        /* \"#utility.yul\":10302:10419   */\n      iszero\n      tag_553\n      jumpi\n        /* \"#utility.yul\":10338:10417   */\n      tag_554\n      tag_485\n      jump\t// in\n    tag_554:\n        /* \"#utility.yul\":10302:10419   */\n    tag_553:\n        /* \"#utility.yul\":10443:10506   */\n      tag_555\n        /* \"#utility.yul\":10498:10505   */\n      dup10\n        /* \"#utility.yul\":10489:10495   */\n      dup3\n        /* \"#utility.yul\":10478:10487   */\n      dup11\n        /* \"#utility.yul\":10474:10496   */\n      add\n        /* \"#utility.yul\":10443:10506   */\n      tag_447\n      jump\t// in\n    tag_555:\n        /* \"#utility.yul\":10433:10506   */\n      swap6\n      pop\n        /* \"#utility.yul\":10228:10516   */\n      pop\n        /* \"#utility.yul\":10583:10585   */\n      0x40\n        /* \"#utility.yul\":10572:10581   */\n      dup8\n        /* \"#utility.yul\":10568:10586   */\n      add\n        /* \"#utility.yul\":10555:10587   */\n      calldataload\n        /* \"#utility.yul\":10614:10632   */\n      0xffffffffffffffff\n        /* \"#utility.yul\":10606:10612   */\n      dup2\n        /* \"#utility.yul\":10603:10633   */\n      gt\n        /* \"#utility.yul\":10600:10717   */\n      iszero\n      tag_556\n      jumpi\n        /* \"#utility.yul\":10636:10715   */\n      tag_557\n      tag_485\n      jump\t// in\n    tag_557:\n        /* \"#utility.yul\":10600:10717   */\n    tag_556:\n        /* \"#utility.yul\":10741:10804   */\n      tag_558\n        /* \"#utility.yul\":10796:10803   */\n      dup10\n        /* \"#utility.yul\":10787:10793   */\n      dup3\n        /* \"#utility.yul\":10776:10785   */\n      dup11\n        /* \"#utility.yul\":10772:10794   */\n      add\n        /* \"#utility.yul\":10741:10804   */\n      tag_447\n      jump\t// in\n    tag_558:\n        /* \"#utility.yul\":10731:10804   */\n      swap5\n      pop\n        /* \"#utility.yul\":10526:10814   */\n      pop\n        /* \"#utility.yul\":10881:10883   */\n      0x60\n        /* \"#utility.yul\":10870:10879   */\n      dup8\n        /* \"#utility.yul\":10866:10884   */\n      add\n        /* \"#utility.yul\":10853:10885   */\n      calldataload\n        /* \"#utility.yul\":10912:10930   */\n      0xffffffffffffffff\n        /* \"#utility.yul\":10904:10910   */\n      dup2\n        /* \"#utility.yul\":10901:10931   */\n      gt\n        /* \"#utility.yul\":10898:11015   */\n      iszero\n      tag_559\n      jumpi\n        /* \"#utility.yul\":10934:11013   */\n      tag_560\n      tag_485\n      jump\t// in\n    tag_560:\n        /* \"#utility.yul\":10898:11015   */\n    tag_559:\n        /* \"#utility.yul\":11039:11102   */\n      tag_561\n        /* \"#utility.yul\":11094:11101   */\n      dup10\n        /* \"#utility.yul\":11085:11091   */\n      dup3\n        /* \"#utility.yul\":11074:11083   */\n      dup11\n        /* \"#utility.yul\":11070:11092   */\n      add\n        /* \"#utility.yul\":11039:11102   */\n      tag_447\n      jump\t// in\n    tag_561:\n        /* \"#utility.yul\":11029:11102   */\n      swap4\n      pop\n        /* \"#utility.yul\":10824:11112   */\n      pop\n        /* \"#utility.yul\":11179:11182   */\n      0x80\n        /* \"#utility.yul\":11168:11177   */\n      dup8\n        /* \"#utility.yul\":11164:11183   */\n      add\n        /* \"#utility.yul\":11151:11184   */\n      calldataload\n        /* \"#utility.yul\":11211:11229   */\n      0xffffffffffffffff\n        /* \"#utility.yul\":11203:11209   */\n      dup2\n        /* \"#utility.yul\":11200:11230   */\n      gt\n        /* \"#utility.yul\":11197:11314   */\n      iszero\n      tag_562\n      jumpi\n        /* \"#utility.yul\":11233:11312   */\n      tag_563\n      tag_485\n      jump\t// in\n    tag_563:\n        /* \"#utility.yul\":11197:11314   */\n    tag_562:\n        /* \"#utility.yul\":11338:11401   */\n      tag_564\n        /* \"#utility.yul\":11393:11400   */\n      dup10\n        /* \"#utility.yul\":11384:11390   */\n      dup3\n        /* \"#utility.yul\":11373:11382   */\n      dup11\n        /* \"#utility.yul\":11369:11391   */\n      add\n        /* \"#utility.yul\":11338:11401   */\n      tag_447\n      jump\t// in\n    tag_564:\n        /* \"#utility.yul\":11328:11401   */\n      swap3\n      pop\n        /* \"#utility.yul\":11122:11411   */\n      pop\n        /* \"#utility.yul\":11478:11481   */\n      0xa0\n        /* \"#utility.yul\":11467:11476   */\n      dup8\n        /* \"#utility.yul\":11463:11482   */\n      add\n        /* \"#utility.yul\":11450:11483   */\n      calldataload\n        /* \"#utility.yul\":11510:11528   */\n      0xffffffffffffffff\n        /* \"#utility.yul\":11502:11508   */\n      dup2\n        /* \"#utility.yul\":11499:11529   */\n      gt\n        /* \"#utility.yul\":11496:11613   */\n      iszero\n      tag_565\n      jumpi\n        /* \"#utility.yul\":11532:11611   */\n      tag_566\n      tag_485\n      jump\t// in\n    tag_566:\n        /* \"#utility.yul\":11496:11613   */\n    tag_565:\n        /* \"#utility.yul\":11637:11700   */\n      tag_567\n        /* \"#utility.yul\":11692:11699   */\n      dup10\n        /* \"#utility.yul\":11683:11689   */\n      dup3\n        /* \"#utility.yul\":11672:11681   */\n      dup11\n        /* \"#utility.yul\":11668:11690   */\n      add\n        /* \"#utility.yul\":11637:11700   */\n      tag_447\n      jump\t// in\n    tag_567:\n        /* \"#utility.yul\":11627:11700   */\n      swap2\n      pop\n        /* \"#utility.yul\":11421:11710   */\n      pop\n        /* \"#utility.yul\":9580:11717   */\n      swap3\n      swap6\n      pop\n      swap3\n      swap6\n      pop\n      swap3\n      swap6\n      jump\t// out\n        /* \"#utility.yul\":11723:12052   */\n    tag_50:\n        /* \"#utility.yul\":11782:11788   */\n      0x00\n        /* \"#utility.yul\":11831:11833   */\n      0x20\n        /* \"#utility.yul\":11819:11828   */\n      dup3\n        /* \"#utility.yul\":11810:11817   */\n      dup5\n        /* \"#utility.yul\":11806:11829   */\n      sub\n        /* \"#utility.yul\":11802:11834   */\n      slt\n        /* \"#utility.yul\":11799:11918   */\n      iszero\n      tag_569\n      jumpi\n        /* \"#utility.yul\":11837:11916   */\n      tag_570\n      tag_478\n      jump\t// in\n    tag_570:\n        /* \"#utility.yul\":11799:11918   */\n    tag_569:\n        /* \"#utility.yul\":11957:11958   */\n      0x00\n        /* \"#utility.yul\":11982:12035   */\n      tag_571\n        /* \"#utility.yul\":12027:12034   */\n      dup5\n        /* \"#utility.yul\":12018:12024   */\n      dup3\n        /* \"#utility.yul\":12007:12016   */\n      dup6\n        /* \"#utility.yul\":12003:12025   */\n      add\n        /* \"#utility.yul\":11982:12035   */\n      tag_471\n      jump\t// in\n    tag_571:\n        /* \"#utility.yul\":11972:12035   */\n      swap2\n      pop\n        /* \"#utility.yul\":11928:12045   */\n      pop\n        /* \"#utility.yul\":11723:12052   */\n      swap3\n      swap2\n      pop\n      pop\n      jump\t// out\n        /* \"#utility.yul\":12058:12254   */\n    tag_572:\n        /* \"#utility.yul\":12147:12157   */\n      0x00\n        /* \"#utility.yul\":12182:12248   */\n      tag_574\n        /* \"#utility.yul\":12244:12247   */\n      dup4\n        /* \"#utility.yul\":12236:12242   */\n      dup4\n        /* \"#utility.yul\":12182:12248   */\n      tag_575\n      jump\t// in\n    tag_574:\n        /* \"#utility.yul\":12168:12248   */\n      swap1\n      pop\n        /* \"#utility.yul\":12058:12254   */\n      swap3\n      swap2\n      pop\n      pop\n      jump\t// out\n        /* \"#utility.yul\":12260:12368   */\n    tag_576:\n        /* \"#utility.yul\":12337:12361   */\n      tag_578\n        /* \"#utility.yul\":12355:12360   */\n      dup2\n        /* \"#utility.yul\":12337:12361   */\n      tag_579\n      jump\t// in\n    tag_578:\n        /* \"#utility.yul\":12332:12335   */\n      dup3\n        /* \"#utility.yul\":12325:12362   */\n      mstore\n        /* \"#utility.yul\":12260:12368   */\n      pop\n      pop\n      jump\t// out\n        /* \"#utility.yul\":12402:13373   */\n    tag_580:\n        /* \"#utility.yul\":12531:12534   */\n      0x00\n        /* \"#utility.yul\":12560:12624   */\n      tag_582\n        /* \"#utility.yul\":12618:12623   */\n      dup3\n        /* \"#utility.yul\":12560:12624   */\n      tag_583\n      jump\t// in\n    tag_582:\n        /* \"#utility.yul\":12640:12726   */\n      tag_584\n        /* \"#utility.yul\":12719:12725   */\n      dup2\n        /* \"#utility.yul\":12714:12717   */\n      dup6\n        /* \"#utility.yul\":12640:12726   */\n      tag_585\n      jump\t// in\n    tag_584:\n        /* \"#utility.yul\":12633:12726   */\n      swap4\n      pop\n        /* \"#utility.yul\":12752:12755   */\n      dup4\n        /* \"#utility.yul\":12797:12801   */\n      0x20\n        /* \"#utility.yul\":12789:12795   */\n      dup3\n        /* \"#utility.yul\":12785:12802   */\n      mul\n        /* \"#utility.yul\":12780:12783   */\n      dup6\n        /* \"#utility.yul\":12776:12803   */\n      add\n        /* \"#utility.yul\":12827:12893   */\n      tag_586\n        /* \"#utility.yul\":12887:12892   */\n      dup6\n        /* \"#utility.yul\":12827:12893   */\n      tag_587\n      jump\t// in\n    tag_586:\n        /* \"#utility.yul\":12916:12923   */\n      dup1\n        /* \"#utility.yul\":12947:12948   */\n      0x00\n        /* \"#utility.yul\":12932:13328   */\n    tag_588:\n        /* \"#utility.yul\":12957:12963   */\n      dup6\n        /* \"#utility.yul\":12954:12955   */\n      dup2\n        /* \"#utility.yul\":12951:12964   */\n      lt\n        /* \"#utility.yul\":12932:13328   */\n      iszero\n      tag_590\n      jumpi\n        /* \"#utility.yul\":13028:13037   */\n      dup5\n        /* \"#utility.yul\":13022:13026   */\n      dup5\n        /* \"#utility.yul\":13018:13038   */\n      sub\n        /* \"#utility.yul\":13013:13016   */\n      dup10\n        /* \"#utility.yul\":13006:13039   */\n      mstore\n        /* \"#utility.yul\":13079:13085   */\n      dup2\n        /* \"#utility.yul\":13073:13086   */\n      mload\n        /* \"#utility.yul\":13107:13191   */\n      tag_591\n        /* \"#utility.yul\":13186:13190   */\n      dup6\n        /* \"#utility.yul\":13171:13184   */\n      dup3\n        /* \"#utility.yul\":13107:13191   */\n      tag_572\n      jump\t// in\n    tag_591:\n        /* \"#utility.yul\":13099:13191   */\n      swap5\n      pop\n        /* \"#utility.yul\":13214:13284   */\n      tag_592\n        /* \"#utility.yul\":13277:13283   */\n      dup4\n        /* \"#utility.yul\":13214:13284   */\n      tag_593\n      jump\t// in\n    tag_592:\n        /* \"#utility.yul\":13204:13284   */\n      swap3\n      pop\n        /* \"#utility.yul\":13313:13317   */\n      0x20\n        /* \"#utility.yul\":13308:13311   */\n      dup11\n        /* \"#utility.yul\":13304:13318   */\n      add\n        /* \"#utility.yul\":13297:13318   */\n      swap10\n      pop\n        /* \"#utility.yul\":12992:13328   */\n      pop\n        /* \"#utility.yul\":12979:12980   */\n      0x01\n        /* \"#utility.yul\":12976:12977   */\n      dup2\n        /* \"#utility.yul\":12972:12981   */\n      add\n        /* \"#utility.yul\":12967:12981   */\n      swap1\n      pop\n        /* \"#utility.yul\":12932:13328   */\n      jump(tag_588)\n    tag_590:\n        /* \"#utility.yul\":12936:12950   */\n      pop\n        /* \"#utility.yul\":13344:13348   */\n      dup3\n        /* \"#utility.yul\":13337:13348   */\n      swap8\n      pop\n        /* \"#utility.yul\":13364:13367   */\n      dup8\n        /* \"#utility.yul\":13357:13367   */\n      swap6\n      pop\n        /* \"#utility.yul\":12536:13373   */\n      pop\n      pop\n      pop\n      pop\n      pop\n        /* \"#utility.yul\":12402:13373   */\n      swap3\n      swap2\n      pop\n      pop\n      jump\t// out\n        /* \"#utility.yul\":13379:13723   */\n    tag_575:\n        /* \"#utility.yul\":13457:13460   */\n      0x00\n        /* \"#utility.yul\":13485:13524   */\n      tag_595\n        /* \"#utility.yul\":13518:13523   */\n      dup3\n        /* \"#utility.yul\":13485:13524   */\n      tag_596\n      jump\t// in\n    tag_595:\n        /* \"#utility.yul\":13540:13601   */\n      tag_597\n        /* \"#utility.yul\":13594:13600   */\n      dup2\n        /* \"#utility.yul\":13589:13592   */\n      dup6\n        /* \"#utility.yul\":13540:13601   */\n      tag_598\n      jump\t// in\n    tag_597:\n        /* \"#utility.yul\":13533:13601   */\n      swap4\n      pop\n        /* \"#utility.yul\":13610:13662   */\n      tag_599\n        /* \"#utility.yul\":13655:13661   */\n      dup2\n        /* \"#utility.yul\":13650:13653   */\n      dup6\n        /* \"#utility.yul\":13643:13647   */\n      0x20\n        /* \"#utility.yul\":13636:13641   */\n      dup7\n        /* \"#utility.yul\":13632:13648   */\n      add\n        /* \"#utility.yul\":13610:13662   */\n      tag_600\n      jump\t// in\n    tag_599:\n        /* \"#utility.yul\":13687:13716   */\n      tag_601\n        /* \"#utility.yul\":13709:13715   */\n      dup2\n        /* \"#utility.yul\":13687:13716   */\n      tag_602\n      jump\t// in\n    tag_601:\n        /* \"#utility.yul\":13682:13685   */\n      dup5\n        /* \"#utility.yul\":13678:13717   */\n      add\n        /* \"#utility.yul\":13671:13717   */\n      swap2\n      pop\n        /* \"#utility.yul\":13461:13723   */\n      pop\n        /* \"#utility.yul\":13379:13723   */\n      swap3\n      swap2\n      pop\n      pop\n      jump\t// out\n        /* \"#utility.yul\":13729:14093   */\n    tag_603:\n        /* \"#utility.yul\":13817:13820   */\n      0x00\n        /* \"#utility.yul\":13845:13884   */\n      tag_605\n        /* \"#utility.yul\":13878:13883   */\n      dup3\n        /* \"#utility.yul\":13845:13884   */\n      tag_596\n      jump\t// in\n    tag_605:\n        /* \"#utility.yul\":13900:13971   */\n      tag_606\n        /* \"#utility.yul\":13964:13970   */\n      dup2\n        /* \"#utility.yul\":13959:13962   */\n      dup6\n        /* \"#utility.yul\":13900:13971   */\n      tag_607\n      jump\t// in\n    tag_606:\n        /* \"#utility.yul\":13893:13971   */\n      swap4\n      pop\n        /* \"#utility.yul\":13980:14032   */\n      tag_608\n        /* \"#utility.yul\":14025:14031   */\n      dup2\n        /* \"#utility.yul\":14020:14023   */\n      dup6\n        /* \"#utility.yul\":14013:14017   */\n      0x20\n        /* \"#utility.yul\":14006:14011   */\n      dup7\n        /* \"#utility.yul\":14002:14018   */\n      add\n        /* \"#utility.yul\":13980:14032   */\n      tag_600\n      jump\t// in\n    tag_608:\n        /* \"#utility.yul\":14057:14086   */\n      tag_609\n        /* \"#utility.yul\":14079:14085   */\n      dup2\n        /* \"#utility.yul\":14057:14086   */\n      tag_602\n      jump\t// in\n    tag_609:\n        /* \"#utility.yul\":14052:14055   */\n      dup5\n        /* \"#utility.yul\":14048:14087   */\n      add\n        /* \"#utility.yul\":14041:14087   */\n      swap2\n      pop\n        /* \"#utility.yul\":13821:14093   */\n      pop\n        /* \"#utility.yul\":13729:14093   */\n      swap3\n      swap2\n      pop\n      pop\n      jump\t// out\n        /* \"#utility.yul\":14179:14986   */\n    tag_610:\n        /* \"#utility.yul\":14320:14323   */\n      0x00\n        /* \"#utility.yul\":14356:14360   */\n      0x40\n        /* \"#utility.yul\":14351:14354   */\n      dup4\n        /* \"#utility.yul\":14347:14361   */\n      add\n        /* \"#utility.yul\":14450:14454   */\n      0x00\n        /* \"#utility.yul\":14443:14448   */\n      dup4\n        /* \"#utility.yul\":14439:14455   */\n      add\n        /* \"#utility.yul\":14433:14456   */\n      mload\n        /* \"#utility.yul\":14503:14506   */\n      dup5\n        /* \"#utility.yul\":14497:14501   */\n      dup3\n        /* \"#utility.yul\":14493:14507   */\n      sub\n        /* \"#utility.yul\":14486:14490   */\n      0x00\n        /* \"#utility.yul\":14481:14484   */\n      dup7\n        /* \"#utility.yul\":14477:14491   */\n      add\n        /* \"#utility.yul\":14470:14508   */\n      mstore\n        /* \"#utility.yul\":14529:14652   */\n      tag_612\n        /* \"#utility.yul\":14647:14651   */\n      dup3\n        /* \"#utility.yul\":14633:14645   */\n      dup3\n        /* \"#utility.yul\":14529:14652   */\n      tag_580\n      jump\t// in\n    tag_612:\n        /* \"#utility.yul\":14521:14652   */\n      swap2\n      pop\n        /* \"#utility.yul\":14371:14663   */\n      pop\n        /* \"#utility.yul\":14746:14750   */\n      0x20\n        /* \"#utility.yul\":14739:14744   */\n      dup4\n        /* \"#utility.yul\":14735:14751   */\n      add\n        /* \"#utility.yul\":14729:14752   */\n      mload\n        /* \"#utility.yul\":14799:14802   */\n      dup5\n        /* \"#utility.yul\":14793:14797   */\n      dup3\n        /* \"#utility.yul\":14789:14803   */\n      sub\n        /* \"#utility.yul\":14782:14786   */\n      0x20\n        /* \"#utility.yul\":14777:14780   */\n      dup7\n        /* \"#utility.yul\":14773:14787   */\n      add\n        /* \"#utility.yul\":14766:14804   */\n      mstore\n        /* \"#utility.yul\":14825:14948   */\n      tag_613\n        /* \"#utility.yul\":14943:14947   */\n      dup3\n        /* \"#utility.yul\":14929:14941   */\n      dup3\n        /* \"#utility.yul\":14825:14948   */\n      tag_580\n      jump\t// in\n    tag_613:\n        /* \"#utility.yul\":14817:14948   */\n      swap2\n      pop\n        /* \"#utility.yul\":14673:14959   */\n      pop\n        /* \"#utility.yul\":14976:14980   */\n      dup1\n        /* \"#utility.yul\":14969:14980   */\n      swap2\n      pop\n        /* \"#utility.yul\":14325:14986   */\n      pop\n        /* \"#utility.yul\":14179:14986   */\n      swap3\n      swap2\n      pop\n      pop\n      jump\t// out\n        /* \"#utility.yul\":15050:16718   */\n    tag_614:\n        /* \"#utility.yul\":15167:15170   */\n      0x00\n        /* \"#utility.yul\":15203:15207   */\n      0xc0\n        /* \"#utility.yul\":15198:15201   */\n      dup4\n        /* \"#utility.yul\":15194:15208   */\n      add\n        /* \"#utility.yul\":15293:15297   */\n      0x00\n        /* \"#utility.yul\":15286:15291   */\n      dup4\n        /* \"#utility.yul\":15282:15298   */\n      add\n        /* \"#utility.yul\":15276:15299   */\n      mload\n        /* \"#utility.yul\":15346:15349   */\n      dup5\n        /* \"#utility.yul\":15340:15344   */\n      dup3\n        /* \"#utility.yul\":15336:15350   */\n      sub\n        /* \"#utility.yul\":15329:15333   */\n      0x00\n        /* \"#utility.yul\":15324:15327   */\n      dup7\n        /* \"#utility.yul\":15320:15334   */\n      add\n        /* \"#utility.yul\":15313:15351   */\n      mstore\n        /* \"#utility.yul\":15372:15445   */\n      tag_616\n        /* \"#utility.yul\":15440:15444   */\n      dup3\n        /* \"#utility.yul\":15426:15438   */\n      dup3\n        /* \"#utility.yul\":15372:15445   */\n      tag_575\n      jump\t// in\n    tag_616:\n        /* \"#utility.yul\":15364:15445   */\n      swap2\n      pop\n        /* \"#utility.yul\":15218:15456   */\n      pop\n        /* \"#utility.yul\":15539:15543   */\n      0x20\n        /* \"#utility.yul\":15532:15537   */\n      dup4\n        /* \"#utility.yul\":15528:15544   */\n      add\n        /* \"#utility.yul\":15522:15545   */\n      mload\n        /* \"#utility.yul\":15592:15595   */\n      dup5\n        /* \"#utility.yul\":15586:15590   */\n      dup3\n        /* \"#utility.yul\":15582:15596   */\n      sub\n        /* \"#utility.yul\":15575:15579   */\n      0x20\n        /* \"#utility.yul\":15570:15573   */\n      dup7\n        /* \"#utility.yul\":15566:15580   */\n      add\n        /* \"#utility.yul\":15559:15597   */\n      mstore\n        /* \"#utility.yul\":15618:15691   */\n      tag_617\n        /* \"#utility.yul\":15686:15690   */\n      dup3\n        /* \"#utility.yul\":15672:15684   */\n      dup3\n        /* \"#utility.yul\":15618:15691   */\n      tag_575\n      jump\t// in\n    tag_617:\n        /* \"#utility.yul\":15610:15691   */\n      swap2\n      pop\n        /* \"#utility.yul\":15466:15702   */\n      pop\n        /* \"#utility.yul\":15785:15789   */\n      0x40\n        /* \"#utility.yul\":15778:15783   */\n      dup4\n        /* \"#utility.yul\":15774:15790   */\n      add\n        /* \"#utility.yul\":15768:15791   */\n      mload\n        /* \"#utility.yul\":15838:15841   */\n      dup5\n        /* \"#utility.yul\":15832:15836   */\n      dup3\n        /* \"#utility.yul\":15828:15842   */\n      sub\n        /* \"#utility.yul\":15821:15825   */\n      0x40\n        /* \"#utility.yul\":15816:15819   */\n      dup7\n        /* \"#utility.yul\":15812:15826   */\n      add\n        /* \"#utility.yul\":15805:15843   */\n      mstore\n        /* \"#utility.yul\":15864:15937   */\n      tag_618\n        /* \"#utility.yul\":15932:15936   */\n      dup3\n        /* \"#utility.yul\":15918:15930   */\n      dup3\n        /* \"#utility.yul\":15864:15937   */\n      tag_575\n      jump\t// in\n    tag_618:\n        /* \"#utility.yul\":15856:15937   */\n      swap2\n      pop\n        /* \"#utility.yul\":15712:15948   */\n      pop\n        /* \"#utility.yul\":16032:16036   */\n      0x60\n        /* \"#utility.yul\":16025:16030   */\n      dup4\n        /* \"#utility.yul\":16021:16037   */\n      add\n        /* \"#utility.yul\":16015:16038   */\n      mload\n        /* \"#utility.yul\":16085:16088   */\n      dup5\n        /* \"#utility.yul\":16079:16083   */\n      dup3\n        /* \"#utility.yul\":16075:16089   */\n      sub\n        /* \"#utility.yul\":16068:16072   */\n      0x60\n        /* \"#utility.yul\":16063:16066   */\n      dup7\n        /* \"#utility.yul\":16059:16073   */\n      add\n        /* \"#utility.yul\":16052:16090   */\n      mstore\n        /* \"#utility.yul\":16111:16184   */\n      tag_619\n        /* \"#utility.yul\":16179:16183   */\n      dup3\n        /* \"#utility.yul\":16165:16177   */\n      dup3\n        /* \"#utility.yul\":16111:16184   */\n      tag_575\n      jump\t// in\n    tag_619:\n        /* \"#utility.yul\":16103:16184   */\n      swap2\n      pop\n        /* \"#utility.yul\":15958:16195   */\n      pop\n        /* \"#utility.yul\":16279:16283   */\n      0x80\n        /* \"#utility.yul\":16272:16277   */\n      dup4\n        /* \"#utility.yul\":16268:16284   */\n      add\n        /* \"#utility.yul\":16262:16285   */\n      mload\n        /* \"#utility.yul\":16332:16335   */\n      dup5\n        /* \"#utility.yul\":16326:16330   */\n      dup3\n        /* \"#utility.yul\":16322:16336   */\n      sub\n        /* \"#utility.yul\":16315:16319   */\n      0x80\n        /* \"#utility.yul\":16310:16313   */\n      dup7\n        /* \"#utility.yul\":16306:16320   */\n      add\n        /* \"#utility.yul\":16299:16337   */\n      mstore\n        /* \"#utility.yul\":16358:16431   */\n      tag_620\n        /* \"#utility.yul\":16426:16430   */\n      dup3\n        /* \"#utility.yul\":16412:16424   */\n      dup3\n        /* \"#utility.yul\":16358:16431   */\n      tag_575\n      jump\t// in\n    tag_620:\n        /* \"#utility.yul\":16350:16431   */\n      swap2\n      pop\n        /* \"#utility.yul\":16205:16442   */\n      pop\n        /* \"#utility.yul\":16528:16532   */\n      0xa0\n        /* \"#utility.yul\":16521:16526   */\n      dup4\n        /* \"#utility.yul\":16517:16533   */\n      add\n        /* \"#utility.yul\":16511:16534   */\n      mload\n        /* \"#utility.yul\":16581:16584   */\n      dup5\n        /* \"#utility.yul\":16575:16579   */\n      dup3\n        /* \"#utility.yul\":16571:16585   */\n      sub\n        /* \"#utility.yul\":16564:16568   */\n      0xa0\n        /* \"#utility.yul\":16559:16562   */\n      dup7\n        /* \"#utility.yul\":16555:16569   */\n      add\n        /* \"#utility.yul\":16548:16586   */\n      mstore\n        /* \"#utility.yul\":16607:16680   */\n      tag_621\n        /* \"#utility.yul\":16675:16679   */\n      dup3\n        /* \"#utility.yul\":16661:16673   */\n      dup3\n        /* \"#utility.yul\":16607:16680   */\n      tag_575\n      jump\t// in\n    tag_621:\n        /* \"#utility.yul\":16599:16680   */\n      swap2\n      pop\n        /* \"#utility.yul\":16452:16691   */\n      pop\n        /* \"#utility.yul\":16708:16712   */\n      dup1\n        /* \"#utility.yul\":16701:16712   */\n      swap2\n      pop\n        /* \"#utility.yul\":15172:16718   */\n      pop\n        /* \"#utility.yul\":15050:16718   */\n      swap3\n      swap2\n      pop\n      pop\n      jump\t// out\n        /* \"#utility.yul\":16788:18842   */\n    tag_622:\n        /* \"#utility.yul\":16911:16914   */\n      0x00\n        /* \"#utility.yul\":16947:16953   */\n      0x0100\n        /* \"#utility.yul\":16942:16945   */\n      dup4\n        /* \"#utility.yul\":16938:16954   */\n      add\n        /* \"#utility.yul\":17039:17043   */\n      0x00\n        /* \"#utility.yul\":17032:17037   */\n      dup4\n        /* \"#utility.yul\":17028:17044   */\n      add\n        /* \"#utility.yul\":17022:17045   */\n      mload\n        /* \"#utility.yul\":17092:17095   */\n      dup5\n        /* \"#utility.yul\":17086:17090   */\n      dup3\n        /* \"#utility.yul\":17082:17096   */\n      sub\n        /* \"#utility.yul\":17075:17079   */\n      0x00\n        /* \"#utility.yul\":17070:17073   */\n      dup7\n        /* \"#utility.yul\":17066:17080   */\n      add\n        /* \"#utility.yul\":17059:17097   */\n      mstore\n        /* \"#utility.yul\":17118:17191   */\n      tag_624\n        /* \"#utility.yul\":17186:17190   */\n      dup3\n        /* \"#utility.yul\":17172:17184   */\n      dup3\n        /* \"#utility.yul\":17118:17191   */\n      tag_575\n      jump\t// in\n    tag_624:\n        /* \"#utility.yul\":17110:17191   */\n      swap2\n      pop\n        /* \"#utility.yul\":16964:17202   */\n      pop\n        /* \"#utility.yul\":17288:17292   */\n      0x20\n        /* \"#utility.yul\":17281:17286   */\n      dup4\n        /* \"#utility.yul\":17277:17293   */\n      add\n        /* \"#utility.yul\":17271:17294   */\n      mload\n        /* \"#utility.yul\":17341:17344   */\n      dup5\n        /* \"#utility.yul\":17335:17339   */\n      dup3\n        /* \"#utility.yul\":17331:17345   */\n      sub\n        /* \"#utility.yul\":17324:17328   */\n      0x20\n        /* \"#utility.yul\":17319:17322   */\n      dup7\n        /* \"#utility.yul\":17315:17329   */\n      add\n        /* \"#utility.yul\":17308:17346   */\n      mstore\n        /* \"#utility.yul\":17367:17440   */\n      tag_625\n        /* \"#utility.yul\":17435:17439   */\n      dup3\n        /* \"#utility.yul\":17421:17433   */\n      dup3\n        /* \"#utility.yul\":17367:17440   */\n      tag_575\n      jump\t// in\n    tag_625:\n        /* \"#utility.yul\":17359:17440   */\n      swap2\n      pop\n        /* \"#utility.yul\":17212:17451   */\n      pop\n        /* \"#utility.yul\":17540:17544   */\n      0x40\n        /* \"#utility.yul\":17533:17538   */\n      dup4\n        /* \"#utility.yul\":17529:17545   */\n      add\n        /* \"#utility.yul\":17523:17546   */\n      mload\n        /* \"#utility.yul\":17559:17622   */\n      tag_626\n        /* \"#utility.yul\":17616:17620   */\n      0x40\n        /* \"#utility.yul\":17611:17614   */\n      dup7\n        /* \"#utility.yul\":17607:17621   */\n      add\n        /* \"#utility.yul\":17593:17605   */\n      dup3\n        /* \"#utility.yul\":17559:17622   */\n      tag_576\n      jump\t// in\n    tag_626:\n        /* \"#utility.yul\":17461:17632   */\n      pop\n        /* \"#utility.yul\":17719:17723   */\n      0x60\n        /* \"#utility.yul\":17712:17717   */\n      dup4\n        /* \"#utility.yul\":17708:17724   */\n      add\n        /* \"#utility.yul\":17702:17725   */\n      mload\n        /* \"#utility.yul\":17772:17775   */\n      dup5\n        /* \"#utility.yul\":17766:17770   */\n      dup3\n        /* \"#utility.yul\":17762:17776   */\n      sub\n        /* \"#utility.yul\":17755:17759   */\n      0x60\n        /* \"#utility.yul\":17750:17753   */\n      dup7\n        /* \"#utility.yul\":17746:17760   */\n      add\n        /* \"#utility.yul\":17739:17777   */\n      mstore\n        /* \"#utility.yul\":17798:17871   */\n      tag_627\n        /* \"#utility.yul\":17866:17870   */\n      dup3\n        /* \"#utility.yul\":17852:17864   */\n      dup3\n        /* \"#utility.yul\":17798:17871   */\n      tag_575\n      jump\t// in\n    tag_627:\n        /* \"#utility.yul\":17790:17871   */\n      swap2\n      pop\n        /* \"#utility.yul\":17642:17882   */\n      pop\n        /* \"#utility.yul\":17970:17974   */\n      0x80\n        /* \"#utility.yul\":17963:17968   */\n      dup4\n        /* \"#utility.yul\":17959:17975   */\n      add\n        /* \"#utility.yul\":17953:17976   */\n      mload\n        /* \"#utility.yul\":18023:18026   */\n      dup5\n        /* \"#utility.yul\":18017:18021   */\n      dup3\n        /* \"#utility.yul\":18013:18027   */\n      sub\n        /* \"#utility.yul\":18006:18010   */\n      0x80\n        /* \"#utility.yul\":18001:18004   */\n      dup7\n        /* \"#utility.yul\":17997:18011   */\n      add\n        /* \"#utility.yul\":17990:18028   */\n      mstore\n        /* \"#utility.yul\":18049:18122   */\n      tag_628\n        /* \"#utility.yul\":18117:18121   */\n      dup3\n        /* \"#utility.yul\":18103:18115   */\n      dup3\n        /* \"#utility.yul\":18049:18122   */\n      tag_575\n      jump\t// in\n    tag_628:\n        /* \"#utility.yul\":18041:18122   */\n      swap2\n      pop\n        /* \"#utility.yul\":17892:18133   */\n      pop\n        /* \"#utility.yul\":18219:18223   */\n      0xa0\n        /* \"#utility.yul\":18212:18217   */\n      dup4\n        /* \"#utility.yul\":18208:18224   */\n      add\n        /* \"#utility.yul\":18202:18225   */\n      mload\n        /* \"#utility.yul\":18272:18275   */\n      dup5\n        /* \"#utility.yul\":18266:18270   */\n      dup3\n        /* \"#utility.yul\":18262:18276   */\n      sub\n        /* \"#utility.yul\":18255:18259   */\n      0xa0\n        /* \"#utility.yul\":18250:18253   */\n      dup7\n        /* \"#utility.yul\":18246:18260   */\n      add\n        /* \"#utility.yul\":18239:18277   */\n      mstore\n        /* \"#utility.yul\":18298:18371   */\n      tag_629\n        /* \"#utility.yul\":18366:18370   */\n      dup3\n        /* \"#utility.yul\":18352:18364   */\n      dup3\n        /* \"#utility.yul\":18298:18371   */\n      tag_575\n      jump\t// in\n    tag_629:\n        /* \"#utility.yul\":18290:18371   */\n      swap2\n      pop\n        /* \"#utility.yul\":18143:18382   */\n      pop\n        /* \"#utility.yul\":18472:18476   */\n      0xc0\n        /* \"#utility.yul\":18465:18470   */\n      dup4\n        /* \"#utility.yul\":18461:18477   */\n      add\n        /* \"#utility.yul\":18455:18478   */\n      mload\n        /* \"#utility.yul\":18525:18528   */\n      dup5\n        /* \"#utility.yul\":18519:18523   */\n      dup3\n        /* \"#utility.yul\":18515:18529   */\n      sub\n        /* \"#utility.yul\":18508:18512   */\n      0xc0\n        /* \"#utility.yul\":18503:18506   */\n      dup7\n        /* \"#utility.yul\":18499:18513   */\n      add\n        /* \"#utility.yul\":18492:18530   */\n      mstore\n        /* \"#utility.yul\":18551:18624   */\n      tag_630\n        /* \"#utility.yul\":18619:18623   */\n      dup3\n        /* \"#utility.yul\":18605:18617   */\n      dup3\n        /* \"#utility.yul\":18551:18624   */\n      tag_575\n      jump\t// in\n    tag_630:\n        /* \"#utility.yul\":18543:18624   */\n      swap2\n      pop\n        /* \"#utility.yul\":18392:18635   */\n      pop\n        /* \"#utility.yul\":18723:18727   */\n      0xe0\n        /* \"#utility.yul\":18716:18721   */\n      dup4\n        /* \"#utility.yul\":18712:18728   */\n      add\n        /* \"#utility.yul\":18706:18729   */\n      mload\n        /* \"#utility.yul\":18742:18805   */\n      tag_631\n        /* \"#utility.yul\":18799:18803   */\n      0xe0\n        /* \"#utility.yul\":18794:18797   */\n      dup7\n        /* \"#utility.yul\":18790:18804   */\n      add\n        /* \"#utility.yul\":18776:18788   */\n      dup3\n        /* \"#utility.yul\":18742:18805   */\n      tag_632\n      jump\t// in\n    tag_631:\n        /* \"#utility.yul\":18645:18815   */\n      pop\n        /* \"#utility.yul\":18832:18836   */\n      dup1\n        /* \"#utility.yul\":18825:18836   */\n      swap2\n      pop\n        /* \"#utility.yul\":16916:18842   */\n      pop\n        /* \"#utility.yul\":16788:18842   */\n      swap3\n      swap2\n      pop\n      pop\n      jump\t// out\n        /* \"#utility.yul\":18900:19997   */\n    tag_633:\n        /* \"#utility.yul\":19011:19014   */\n      0x00\n        /* \"#utility.yul\":19047:19051   */\n      0x60\n        /* \"#utility.yul\":19042:19045   */\n      dup4\n        /* \"#utility.yul\":19038:19052   */\n      add\n        /* \"#utility.yul\":19150:19154   */\n      0x00\n        /* \"#utility.yul\":19143:19148   */\n      dup4\n        /* \"#utility.yul\":19139:19155   */\n      add\n        /* \"#utility.yul\":19133:19156   */\n      mload\n        /* \"#utility.yul\":19203:19206   */\n      dup5\n        /* \"#utility.yul\":19197:19201   */\n      dup3\n        /* \"#utility.yul\":19193:19207   */\n      sub\n        /* \"#utility.yul\":19186:19190   */\n      0x00\n        /* \"#utility.yul\":19181:19184   */\n      dup7\n        /* \"#utility.yul\":19177:19191   */\n      add\n        /* \"#utility.yul\":19170:19208   */\n      mstore\n        /* \"#utility.yul\":19229:19352   */\n      tag_635\n        /* \"#utility.yul\":19347:19351   */\n      dup3\n        /* \"#utility.yul\":19333:19345   */\n      dup3\n        /* \"#utility.yul\":19229:19352   */\n      tag_580\n      jump\t// in\n    tag_635:\n        /* \"#utility.yul\":19221:19352   */\n      swap2\n      pop\n        /* \"#utility.yul\":19062:19363   */\n      pop\n        /* \"#utility.yul\":19450:19454   */\n      0x20\n        /* \"#utility.yul\":19443:19448   */\n      dup4\n        /* \"#utility.yul\":19439:19455   */\n      add\n        /* \"#utility.yul\":19433:19456   */\n      mload\n        /* \"#utility.yul\":19503:19506   */\n      dup5\n        /* \"#utility.yul\":19497:19501   */\n      dup3\n        /* \"#utility.yul\":19493:19507   */\n      sub\n        /* \"#utility.yul\":19486:19490   */\n      0x20\n        /* \"#utility.yul\":19481:19484   */\n      dup7\n        /* \"#utility.yul\":19477:19491   */\n      add\n        /* \"#utility.yul\":19470:19508   */\n      mstore\n        /* \"#utility.yul\":19529:19652   */\n      tag_636\n        /* \"#utility.yul\":19647:19651   */\n      dup3\n        /* \"#utility.yul\":19633:19645   */\n      dup3\n        /* \"#utility.yul\":19529:19652   */\n      tag_580\n      jump\t// in\n    tag_636:\n        /* \"#utility.yul\":19521:19652   */\n      swap2\n      pop\n        /* \"#utility.yul\":19373:19663   */\n      pop\n        /* \"#utility.yul\":19757:19761   */\n      0x40\n        /* \"#utility.yul\":19750:19755   */\n      dup4\n        /* \"#utility.yul\":19746:19762   */\n      add\n        /* \"#utility.yul\":19740:19763   */\n      mload\n        /* \"#utility.yul\":19810:19813   */\n      dup5\n        /* \"#utility.yul\":19804:19808   */\n      dup3\n        /* \"#utility.yul\":19800:19814   */\n      sub\n        /* \"#utility.yul\":19793:19797   */\n      0x40\n        /* \"#utility.yul\":19788:19791   */\n      dup7\n        /* \"#utility.yul\":19784:19798   */\n      add\n        /* \"#utility.yul\":19777:19815   */\n      mstore\n        /* \"#utility.yul\":19836:19959   */\n      tag_637\n        /* \"#utility.yul\":19954:19958   */\n      dup3\n        /* \"#utility.yul\":19940:19952   */\n      dup3\n        /* \"#utility.yul\":19836:19959   */\n      tag_580\n      jump\t// in\n    tag_637:\n        /* \"#utility.yul\":19828:19959   */\n      swap2\n      pop\n        /* \"#utility.yul\":19673:19970   */\n      pop\n        /* \"#utility.yul\":19987:19991   */\n      dup1\n        /* \"#utility.yul\":19980:19991   */\n      swap2\n      pop\n        /* \"#utility.yul\":19016:19997   */\n      pop\n        /* \"#utility.yul\":18900:19997   */\n      swap3\n      swap2\n      pop\n      pop\n      jump\t// out\n        /* \"#utility.yul\":20003:20111   */\n    tag_632:\n        /* \"#utility.yul\":20080:20104   */\n      tag_639\n        /* \"#utility.yul\":20098:20103   */\n      dup2\n        /* \"#utility.yul\":20080:20104   */\n      tag_640\n      jump\t// in\n    tag_639:\n        /* \"#utility.yul\":20075:20078   */\n      dup3\n        /* \"#utility.yul\":20068:20105   */\n      mstore\n        /* \"#utility.yul\":20003:20111   */\n      pop\n      pop\n      jump\t// out\n        /* \"#utility.yul\":20117:20235   */\n    tag_641:\n        /* \"#utility.yul\":20204:20228   */\n      tag_643\n        /* \"#utility.yul\":20222:20227   */\n      dup2\n        /* \"#utility.yul\":20204:20228   */\n      tag_640\n      jump\t// in\n    tag_643:\n        /* \"#utility.yul\":20199:20202   */\n      dup3\n        /* \"#utility.yul\":20192:20229   */\n      mstore\n        /* \"#utility.yul\":20117:20235   */\n      pop\n      pop\n      jump\t// out\n        /* \"#utility.yul\":20241:20755   */\n    tag_53:\n        /* \"#utility.yul\":20402:20406   */\n      0x00\n        /* \"#utility.yul\":20440:20442   */\n      0x40\n        /* \"#utility.yul\":20429:20438   */\n      dup3\n        /* \"#utility.yul\":20425:20443   */\n      add\n        /* \"#utility.yul\":20417:20443   */\n      swap1\n      pop\n        /* \"#utility.yul\":20489:20498   */\n      dup2\n        /* \"#utility.yul\":20483:20487   */\n      dup2\n        /* \"#utility.yul\":20479:20499   */\n      sub\n        /* \"#utility.yul\":20475:20476   */\n      0x00\n        /* \"#utility.yul\":20464:20473   */\n      dup4\n        /* \"#utility.yul\":20460:20477   */\n      add\n        /* \"#utility.yul\":20453:20500   */\n      mstore\n        /* \"#utility.yul\":20517:20595   */\n      tag_645\n        /* \"#utility.yul\":20590:20594   */\n      dup2\n        /* \"#utility.yul\":20581:20587   */\n      dup6\n        /* \"#utility.yul\":20517:20595   */\n      tag_603\n      jump\t// in\n    tag_645:\n        /* \"#utility.yul\":20509:20595   */\n      swap1\n      pop\n        /* \"#utility.yul\":20642:20651   */\n      dup2\n        /* \"#utility.yul\":20636:20640   */\n      dup2\n        /* \"#utility.yul\":20632:20652   */\n      sub\n        /* \"#utility.yul\":20627:20629   */\n      0x20\n        /* \"#utility.yul\":20616:20625   */\n      dup4\n        /* \"#utility.yul\":20612:20630   */\n      add\n        /* \"#utility.yul\":20605:20653   */\n      mstore\n        /* \"#utility.yul\":20670:20748   */\n      tag_646\n        /* \"#utility.yul\":20743:20747   */\n      dup2\n        /* \"#utility.yul\":20734:20740   */\n      dup5\n        /* \"#utility.yul\":20670:20748   */\n      tag_603\n      jump\t// in\n    tag_646:\n        /* \"#utility.yul\":20662:20748   */\n      swap1\n      pop\n        /* \"#utility.yul\":20241:20755   */\n      swap4\n      swap3\n      pop\n      pop\n      pop\n      jump\t// out\n        /* \"#utility.yul\":20761:21880   */\n    tag_97:\n        /* \"#utility.yul\":21066:21070   */\n      0x00\n        /* \"#utility.yul\":21104:21107   */\n      0xa0\n        /* \"#utility.yul\":21093:21102   */\n      dup3\n        /* \"#utility.yul\":21089:21108   */\n      add\n        /* \"#utility.yul\":21081:21108   */\n      swap1\n      pop\n        /* \"#utility.yul\":21154:21163   */\n      dup2\n        /* \"#utility.yul\":21148:21152   */\n      dup2\n        /* \"#utility.yul\":21144:21164   */\n      sub\n        /* \"#utility.yul\":21140:21141   */\n      0x00\n        /* \"#utility.yul\":21129:21138   */\n      dup4\n        /* \"#utility.yul\":21125:21142   */\n      add\n        /* \"#utility.yul\":21118:21165   */\n      mstore\n        /* \"#utility.yul\":21182:21260   */\n      tag_648\n        /* \"#utility.yul\":21255:21259   */\n      dup2\n        /* \"#utility.yul\":21246:21252   */\n      dup9\n        /* \"#utility.yul\":21182:21260   */\n      tag_603\n      jump\t// in\n    tag_648:\n        /* \"#utility.yul\":21174:21260   */\n      swap1\n      pop\n        /* \"#utility.yul\":21307:21316   */\n      dup2\n        /* \"#utility.yul\":21301:21305   */\n      dup2\n        /* \"#utility.yul\":21297:21317   */\n      sub\n        /* \"#utility.yul\":21292:21294   */\n      0x20\n        /* \"#utility.yul\":21281:21290   */\n      dup4\n        /* \"#utility.yul\":21277:21295   */\n      add\n        /* \"#utility.yul\":21270:21318   */\n      mstore\n        /* \"#utility.yul\":21335:21413   */\n      tag_649\n        /* \"#utility.yul\":21408:21412   */\n      dup2\n        /* \"#utility.yul\":21399:21405   */\n      dup8\n        /* \"#utility.yul\":21335:21413   */\n      tag_603\n      jump\t// in\n    tag_649:\n        /* \"#utility.yul\":21327:21413   */\n      swap1\n      pop\n        /* \"#utility.yul\":21460:21469   */\n      dup2\n        /* \"#utility.yul\":21454:21458   */\n      dup2\n        /* \"#utility.yul\":21450:21470   */\n      sub\n        /* \"#utility.yul\":21445:21447   */\n      0x40\n        /* \"#utility.yul\":21434:21443   */\n      dup4\n        /* \"#utility.yul\":21430:21448   */\n      add\n        /* \"#utility.yul\":21423:21471   */\n      mstore\n        /* \"#utility.yul\":21488:21566   */\n      tag_650\n        /* \"#utility.yul\":21561:21565   */\n      dup2\n        /* \"#utility.yul\":21552:21558   */\n      dup7\n        /* \"#utility.yul\":21488:21566   */\n      tag_603\n      jump\t// in\n    tag_650:\n        /* \"#utility.yul\":21480:21566   */\n      swap1\n      pop\n        /* \"#utility.yul\":21613:21622   */\n      dup2\n        /* \"#utility.yul\":21607:21611   */\n      dup2\n        /* \"#utility.yul\":21603:21623   */\n      sub\n        /* \"#utility.yul\":21598:21600   */\n      0x60\n        /* \"#utility.yul\":21587:21596   */\n      dup4\n        /* \"#utility.yul\":21583:21601   */\n      add\n        /* \"#utility.yul\":21576:21624   */\n      mstore\n        /* \"#utility.yul\":21641:21719   */\n      tag_651\n        /* \"#utility.yul\":21714:21718   */\n      dup2\n        /* \"#utility.yul\":21705:21711   */\n      dup6\n        /* \"#utility.yul\":21641:21719   */\n      tag_603\n      jump\t// in\n    tag_651:\n        /* \"#utility.yul\":21633:21719   */\n      swap1\n      pop\n        /* \"#utility.yul\":21767:21776   */\n      dup2\n        /* \"#utility.yul\":21761:21765   */\n      dup2\n        /* \"#utility.yul\":21757:21777   */\n      sub\n        /* \"#utility.yul\":21751:21754   */\n      0x80\n        /* \"#utility.yul\":21740:21749   */\n      dup4\n        /* \"#utility.yul\":21736:21755   */\n      add\n        /* \"#utility.yul\":21729:21778   */\n      mstore\n        /* \"#utility.yul\":21795:21873   */\n      tag_652\n        /* \"#utility.yul\":21868:21872   */\n      dup2\n        /* \"#utility.yul\":21859:21865   */\n      dup5\n        /* \"#utility.yul\":21795:21873   */\n      tag_603\n      jump\t// in\n    tag_652:\n        /* \"#utility.yul\":21787:21873   */\n      swap1\n      pop\n        /* \"#utility.yul\":20761:21880   */\n      swap7\n      swap6\n      pop\n      pop\n      pop\n      pop\n      pop\n      pop\n      jump\t// out\n        /* \"#utility.yul\":21886:23075   */\n    tag_78:\n        /* \"#utility.yul\":22279:22283   */\n      0x00\n        /* \"#utility.yul\":22317:22320   */\n      0x80\n        /* \"#utility.yul\":22306:22315   */\n      dup3\n        /* \"#utility.yul\":22302:22321   */\n      add\n        /* \"#utility.yul\":22294:22321   */\n      swap1\n      pop\n        /* \"#utility.yul\":22367:22376   */\n      dup2\n        /* \"#utility.yul\":22361:22365   */\n      dup2\n        /* \"#utility.yul\":22357:22377   */\n      sub\n        /* \"#utility.yul\":22353:22354   */\n      0x00\n        /* \"#utility.yul\":22342:22351   */\n      dup4\n        /* \"#utility.yul\":22338:22355   */\n      add\n        /* \"#utility.yul\":22331:22378   */\n      mstore\n        /* \"#utility.yul\":22395:22507   */\n      tag_654\n        /* \"#utility.yul\":22502:22506   */\n      dup2\n        /* \"#utility.yul\":22493:22499   */\n      dup8\n        /* \"#utility.yul\":22395:22507   */\n      tag_622\n      jump\t// in\n    tag_654:\n        /* \"#utility.yul\":22387:22507   */\n      swap1\n      pop\n        /* \"#utility.yul\":22554:22563   */\n      dup2\n        /* \"#utility.yul\":22548:22552   */\n      dup2\n        /* \"#utility.yul\":22544:22564   */\n      sub\n        /* \"#utility.yul\":22539:22541   */\n      0x20\n        /* \"#utility.yul\":22528:22537   */\n      dup4\n        /* \"#utility.yul\":22524:22542   */\n      add\n        /* \"#utility.yul\":22517:22565   */\n      mstore\n        /* \"#utility.yul\":22582:22688   */\n      tag_655\n        /* \"#utility.yul\":22683:22687   */\n      dup2\n        /* \"#utility.yul\":22674:22680   */\n      dup7\n        /* \"#utility.yul\":22582:22688   */\n      tag_614\n      jump\t// in\n    tag_655:\n        /* \"#utility.yul\":22574:22688   */\n      swap1\n      pop\n        /* \"#utility.yul\":22735:22744   */\n      dup2\n        /* \"#utility.yul\":22729:22733   */\n      dup2\n        /* \"#utility.yul\":22725:22745   */\n      sub\n        /* \"#utility.yul\":22720:22722   */\n      0x40\n        /* \"#utility.yul\":22709:22718   */\n      dup4\n        /* \"#utility.yul\":22705:22723   */\n      add\n        /* \"#utility.yul\":22698:22746   */\n      mstore\n        /* \"#utility.yul\":22763:22863   */\n      tag_656\n        /* \"#utility.yul\":22858:22862   */\n      dup2\n        /* \"#utility.yul\":22849:22855   */\n      dup6\n        /* \"#utility.yul\":22763:22863   */\n      tag_633\n      jump\t// in\n    tag_656:\n        /* \"#utility.yul\":22755:22863   */\n      swap1\n      pop\n        /* \"#utility.yul\":22910:22919   */\n      dup2\n        /* \"#utility.yul\":22904:22908   */\n      dup2\n        /* \"#utility.yul\":22900:22920   */\n      sub\n        /* \"#utility.yul\":22895:22897   */\n      0x60\n        /* \"#utility.yul\":22884:22893   */\n      dup4\n        /* \"#utility.yul\":22880:22898   */\n      add\n        /* \"#utility.yul\":22873:22921   */\n      mstore\n        /* \"#utility.yul\":22938:23068   */\n      tag_657\n        /* \"#utility.yul\":23063:23067   */\n      dup2\n        /* \"#utility.yul\":23054:23060   */\n      dup5\n        /* \"#utility.yul\":22938:23068   */\n      tag_610\n      jump\t// in\n    tag_657:\n        /* \"#utility.yul\":22930:23068   */\n      swap1\n      pop\n        /* \"#utility.yul\":21886:23075   */\n      swap6\n      swap5\n      pop\n      pop\n      pop\n      pop\n      pop\n      jump\t// out\n        /* \"#utility.yul\":23081:23303   */\n    tag_30:\n        /* \"#utility.yul\":23174:23178   */\n      0x00\n        /* \"#utility.yul\":23212:23214   */\n      0x20\n        /* \"#utility.yul\":23201:23210   */\n      dup3\n        /* \"#utility.yul\":23197:23215   */\n      add\n        /* \"#utility.yul\":23189:23215   */\n      swap1\n      pop\n        /* \"#utility.yul\":23225:23296   */\n      tag_659\n        /* \"#utility.yul\":23293:23294   */\n      0x00\n        /* \"#utility.yul\":23282:23291   */\n      dup4\n        /* \"#utility.yul\":23278:23295   */\n      add\n        /* \"#utility.yul\":23269:23275   */\n      dup5\n        /* \"#utility.yul\":23225:23296   */\n      tag_641\n      jump\t// in\n    tag_659:\n        /* \"#utility.yul\":23081:23303   */\n      swap3\n      swap2\n      pop\n      pop\n      jump\t// out\n        /* \"#utility.yul\":23309:23438   */\n    tag_436:\n        /* \"#utility.yul\":23343:23349   */\n      0x00\n        /* \"#utility.yul\":23370:23390   */\n      tag_661\n      tag_662\n      jump\t// in\n    tag_661:\n        /* \"#utility.yul\":23360:23390   */\n      swap1\n      pop\n        /* \"#utility.yul\":23399:23432   */\n      tag_663\n        /* \"#utility.yul\":23427:23431   */\n      dup3\n        /* \"#utility.yul\":23419:23425   */\n      dup3\n        /* \"#utility.yul\":23399:23432   */\n      tag_664\n      jump\t// in\n    tag_663:\n        /* \"#utility.yul\":23309:23438   */\n      swap2\n      swap1\n      pop\n      jump\t// out\n        /* \"#utility.yul\":23444:23519   */\n    tag_662:\n        /* \"#utility.yul\":23477:23483   */\n      0x00\n        /* \"#utility.yul\":23510:23512   */\n      0x40\n        /* \"#utility.yul\":23504:23513   */\n      mload\n        /* \"#utility.yul\":23494:23513   */\n      swap1\n      pop\n        /* \"#utility.yul\":23444:23519   */\n      swap1\n      jump\t// out\n        /* \"#utility.yul\":23525:23846   */\n    tag_435:\n        /* \"#utility.yul\":23612:23616   */\n      0x00\n        /* \"#utility.yul\":23702:23720   */\n      0xffffffffffffffff\n        /* \"#utility.yul\":23694:23700   */\n      dup3\n        /* \"#utility.yul\":23691:23721   */\n      gt\n        /* \"#utility.yul\":23688:23744   */\n      iszero\n      tag_667\n      jumpi\n        /* \"#utility.yul\":23724:23742   */\n      tag_668\n      tag_669\n      jump\t// in\n    tag_668:\n        /* \"#utility.yul\":23688:23744   */\n    tag_667:\n        /* \"#utility.yul\":23774:23778   */\n      0x20\n        /* \"#utility.yul\":23766:23772   */\n      dup3\n        /* \"#utility.yul\":23762:23779   */\n      mul\n        /* \"#utility.yul\":23754:23779   */\n      swap1\n      pop\n        /* \"#utility.yul\":23834:23838   */\n      0x20\n        /* \"#utility.yul\":23828:23832   */\n      dup2\n        /* \"#utility.yul\":23824:23839   */\n      add\n        /* \"#utility.yul\":23816:23839   */\n      swap1\n      pop\n        /* \"#utility.yul\":23525:23846   */\n      swap2\n      swap1\n      pop\n      jump\t// out\n        /* \"#utility.yul\":23852:24160   */\n    tag_452:\n        /* \"#utility.yul\":23914:23918   */\n      0x00\n        /* \"#utility.yul\":24004:24022   */\n      0xffffffffffffffff\n        /* \"#utility.yul\":23996:24002   */\n      dup3\n        /* \"#utility.yul\":23993:24023   */\n      gt\n        /* \"#utility.yul\":23990:24046   */\n      iszero\n      tag_671\n      jumpi\n        /* \"#utility.yul\":24026:24044   */\n      tag_672\n      tag_669\n      jump\t// in\n    tag_672:\n        /* \"#utility.yul\":23990:24046   */\n    tag_671:\n        /* \"#utility.yul\":24064:24093   */\n      tag_673\n        /* \"#utility.yul\":24086:24092   */\n      dup3\n        /* \"#utility.yul\":24064:24093   */\n      tag_602\n      jump\t// in\n    tag_673:\n        /* \"#utility.yul\":24056:24093   */\n      swap1\n      pop\n        /* \"#utility.yul\":24148:24152   */\n      0x20\n        /* \"#utility.yul\":24142:24146   */\n      dup2\n        /* \"#utility.yul\":24138:24153   */\n      add\n        /* \"#utility.yul\":24130:24153   */\n      swap1\n      pop\n        /* \"#utility.yul\":23852:24160   */\n      swap2\n      swap1\n      pop\n      jump\t// out\n        /* \"#utility.yul\":24166:24308   */\n    tag_587:\n        /* \"#utility.yul\":24243:24247   */\n      0x00\n        /* \"#utility.yul\":24266:24269   */\n      dup2\n        /* \"#utility.yul\":24258:24269   */\n      swap1\n      pop\n        /* \"#utility.yul\":24296:24300   */\n      0x20\n        /* \"#utility.yul\":24291:24294   */\n      dup3\n        /* \"#utility.yul\":24287:24301   */\n      add\n        /* \"#utility.yul\":24279:24301   */\n      swap1\n      pop\n        /* \"#utility.yul\":24166:24308   */\n      swap2\n      swap1\n      pop\n      jump\t// out\n        /* \"#utility.yul\":24314:24438   */\n    tag_583:\n        /* \"#utility.yul\":24391:24397   */\n      0x00\n        /* \"#utility.yul\":24425:24430   */\n      dup2\n        /* \"#utility.yul\":24419:24431   */\n      mload\n        /* \"#utility.yul\":24409:24431   */\n      swap1\n      pop\n        /* \"#utility.yul\":24314:24438   */\n      swap2\n      swap1\n      pop\n      jump\t// out\n        /* \"#utility.yul\":24444:24543   */\n    tag_596:\n        /* \"#utility.yul\":24496:24502   */\n      0x00\n        /* \"#utility.yul\":24530:24535   */\n      dup2\n        /* \"#utility.yul\":24524:24536   */\n      mload\n        /* \"#utility.yul\":24514:24536   */\n      swap1\n      pop\n        /* \"#utility.yul\":24444:24543   */\n      swap2\n      swap1\n      pop\n      jump\t// out\n        /* \"#utility.yul\":24549:24672   */\n    tag_593:\n        /* \"#utility.yul\":24629:24633   */\n      0x00\n        /* \"#utility.yul\":24661:24665   */\n      0x20\n        /* \"#utility.yul\":24656:24659   */\n      dup3\n        /* \"#utility.yul\":24652:24666   */\n      add\n        /* \"#utility.yul\":24644:24666   */\n      swap1\n      pop\n        /* \"#utility.yul\":24549:24672   */\n      swap2\n      swap1\n      pop\n      jump\t// out\n        /* \"#utility.yul\":24678:24862   */\n    tag_585:\n        /* \"#utility.yul\":24777:24788   */\n      0x00\n        /* \"#utility.yul\":24811:24817   */\n      dup3\n        /* \"#utility.yul\":24806:24809   */\n      dup3\n        /* \"#utility.yul\":24799:24818   */\n      mstore\n        /* \"#utility.yul\":24851:24855   */\n      0x20\n        /* \"#utility.yul\":24846:24849   */\n      dup3\n        /* \"#utility.yul\":24842:24856   */\n      add\n        /* \"#utility.yul\":24827:24856   */\n      swap1\n      pop\n        /* \"#utility.yul\":24678:24862   */\n      swap3\n      swap2\n      pop\n      pop\n      jump\t// out\n        /* \"#utility.yul\":24868:25027   */\n    tag_598:\n        /* \"#utility.yul\":24942:24953   */\n      0x00\n        /* \"#utility.yul\":24976:24982   */\n      dup3\n        /* \"#utility.yul\":24971:24974   */\n      dup3\n        /* \"#utility.yul\":24964:24983   */\n      mstore\n        /* \"#utility.yul\":25016:25020   */\n      0x20\n        /* \"#utility.yul\":25011:25014   */\n      dup3\n        /* \"#utility.yul\":25007:25021   */\n      add\n        /* \"#utility.yul\":24992:25021   */\n      swap1\n      pop\n        /* \"#utility.yul\":24868:25027   */\n      swap3\n      swap2\n      pop\n      pop\n      jump\t// out\n        /* \"#utility.yul\":25033:25202   */\n    tag_607:\n        /* \"#utility.yul\":25117:25128   */\n      0x00\n        /* \"#utility.yul\":25151:25157   */\n      dup3\n        /* \"#utility.yul\":25146:25149   */\n      dup3\n        /* \"#utility.yul\":25139:25158   */\n      mstore\n        /* \"#utility.yul\":25191:25195   */\n      0x20\n        /* \"#utility.yul\":25186:25189   */\n      dup3\n        /* \"#utility.yul\":25182:25196   */\n      add\n        /* \"#utility.yul\":25167:25196   */\n      swap1\n      pop\n        /* \"#utility.yul\":25033:25202   */\n      swap3\n      swap2\n      pop\n      pop\n      jump\t// out\n        /* \"#utility.yul\":25208:25304   */\n    tag_579:\n        /* \"#utility.yul\":25245:25252   */\n      0x00\n        /* \"#utility.yul\":25274:25298   */\n      tag_682\n        /* \"#utility.yul\":25292:25297   */\n      dup3\n        /* \"#utility.yul\":25274:25298   */\n      tag_683\n      jump\t// in\n    tag_682:\n        /* \"#utility.yul\":25263:25298   */\n      swap1\n      pop\n        /* \"#utility.yul\":25208:25304   */\n      swap2\n      swap1\n      pop\n      jump\t// out\n        /* \"#utility.yul\":25310:25436   */\n    tag_683:\n        /* \"#utility.yul\":25347:25354   */\n      0x00\n        /* \"#utility.yul\":25387:25429   */\n      0xffffffffffffffffffffffffffffffffffffffff\n        /* \"#utility.yul\":25380:25385   */\n      dup3\n        /* \"#utility.yul\":25376:25430   */\n      and\n        /* \"#utility.yul\":25365:25430   */\n      swap1\n      pop\n        /* \"#utility.yul\":25310:25436   */\n      swap2\n      swap1\n      pop\n      jump\t// out\n        /* \"#utility.yul\":25442:25519   */\n    tag_640:\n        /* \"#utility.yul\":25479:25486   */\n      0x00\n        /* \"#utility.yul\":25508:25513   */\n      dup2\n        /* \"#utility.yul\":25497:25513   */\n      swap1\n      pop\n        /* \"#utility.yul\":25442:25519   */\n      swap2\n      swap1\n      pop\n      jump\t// out\n        /* \"#utility.yul\":25525:25679   */\n    tag_457:\n        /* \"#utility.yul\":25609:25615   */\n      dup3\n        /* \"#utility.yul\":25604:25607   */\n      dup2\n        /* \"#utility.yul\":25599:25602   */\n      dup4\n        /* \"#utility.yul\":25586:25616   */\n      calldatacopy\n        /* \"#utility.yul\":25671:25672   */\n      0x00\n        /* \"#utility.yul\":25662:25668   */\n      dup4\n        /* \"#utility.yul\":25657:25660   */\n      dup4\n        /* \"#utility.yul\":25653:25669   */\n      add\n        /* \"#utility.yul\":25646:25673   */\n      mstore\n        /* \"#utility.yul\":25525:25679   */\n      pop\n      pop\n      pop\n      jump\t// out\n        /* \"#utility.yul\":25685:25992   */\n    tag_600:\n        /* \"#utility.yul\":25753:25754   */\n      0x00\n        /* \"#utility.yul\":25763:25876   */\n    tag_688:\n        /* \"#utility.yul\":25777:25783   */\n      dup4\n        /* \"#utility.yul\":25774:25775   */\n      dup2\n        /* \"#utility.yul\":25771:25784   */\n      lt\n        /* \"#utility.yul\":25763:25876   */\n      iszero\n      tag_690\n      jumpi\n        /* \"#utility.yul\":25862:25863   */\n      dup1\n        /* \"#utility.yul\":25857:25860   */\n      dup3\n        /* \"#utility.yul\":25853:25864   */\n      add\n        /* \"#utility.yul\":25847:25865   */\n      mload\n        /* \"#utility.yul\":25843:25844   */\n      dup2\n        /* \"#utility.yul\":25838:25841   */\n      dup5\n        /* \"#utility.yul\":25834:25845   */\n      add\n        /* \"#utility.yul\":25827:25866   */\n      mstore\n        /* \"#utility.yul\":25799:25801   */\n      0x20\n        /* \"#utility.yul\":25796:25797   */\n      dup2\n        /* \"#utility.yul\":25792:25802   */\n      add\n        /* \"#utility.yul\":25787:25802   */\n      swap1\n      pop\n        /* \"#utility.yul\":25763:25876   */\n      jump(tag_688)\n    tag_690:\n        /* \"#utility.yul\":25894:25900   */\n      dup4\n        /* \"#utility.yul\":25891:25892   */\n      dup2\n        /* \"#utility.yul\":25888:25901   */\n      gt\n        /* \"#utility.yul\":25885:25986   */\n      iszero\n      tag_691\n      jumpi\n        /* \"#utility.yul\":25974:25975   */\n      0x00\n        /* \"#utility.yul\":25965:25971   */\n      dup5\n        /* \"#utility.yul\":25960:25963   */\n      dup5\n        /* \"#utility.yul\":25956:25972   */\n      add\n        /* \"#utility.yul\":25949:25976   */\n      mstore\n        /* \"#utility.yul\":25885:25986   */\n    tag_691:\n        /* \"#utility.yul\":25734:25992   */\n      pop\n        /* \"#utility.yul\":25685:25992   */\n      pop\n      pop\n      pop\n      jump\t// out\n        /* \"#utility.yul\":25998:26318   */\n    tag_139:\n        /* \"#utility.yul\":26042:26048   */\n      0x00\n        /* \"#utility.yul\":26079:26080   */\n      0x02\n        /* \"#utility.yul\":26073:26077   */\n      dup3\n        /* \"#utility.yul\":26069:26081   */\n      div\n        /* \"#utility.yul\":26059:26081   */\n      swap1\n      pop\n        /* \"#utility.yul\":26126:26127   */\n      0x01\n        /* \"#utility.yul\":26120:26124   */\n      dup3\n        /* \"#utility.yul\":26116:26128   */\n      and\n        /* \"#utility.yul\":26147:26165   */\n      dup1\n        /* \"#utility.yul\":26137:26218   */\n      tag_693\n      jumpi\n        /* \"#utility.yul\":26203:26207   */\n      0x7f\n        /* \"#utility.yul\":26195:26201   */\n      dup3\n        /* \"#utility.yul\":26191:26208   */\n      and\n        /* \"#utility.yul\":26181:26208   */\n      swap2\n      pop\n        /* \"#utility.yul\":26137:26218   */\n    tag_693:\n        /* \"#utility.yul\":26265:26267   */\n      0x20\n        /* \"#utility.yul\":26257:26263   */\n      dup3\n        /* \"#utility.yul\":26254:26268   */\n      lt\n        /* \"#utility.yul\":26234:26252   */\n      dup2\n        /* \"#utility.yul\":26231:26269   */\n      eq\n        /* \"#utility.yul\":26228:26312   */\n      iszero\n      tag_694\n      jumpi\n        /* \"#utility.yul\":26284:26302   */\n      tag_695\n      tag_696\n      jump\t// in\n    tag_695:\n        /* \"#utility.yul\":26228:26312   */\n    tag_694:\n        /* \"#utility.yul\":26049:26318   */\n      pop\n        /* \"#utility.yul\":25998:26318   */\n      swap2\n      swap1\n      pop\n      jump\t// out\n        /* \"#utility.yul\":26324:26605   */\n    tag_664:\n        /* \"#utility.yul\":26407:26434   */\n      tag_698\n        /* \"#utility.yul\":26429:26433   */\n      dup3\n        /* \"#utility.yul\":26407:26434   */\n      tag_602\n      jump\t// in\n    tag_698:\n        /* \"#utility.yul\":26399:26405   */\n      dup2\n        /* \"#utility.yul\":26395:26435   */\n      add\n        /* \"#utility.yul\":26537:26543   */\n      dup2\n        /* \"#utility.yul\":26525:26535   */\n      dup2\n        /* \"#utility.yul\":26522:26544   */\n      lt\n        /* \"#utility.yul\":26501:26519   */\n      0xffffffffffffffff\n        /* \"#utility.yul\":26489:26499   */\n      dup3\n        /* \"#utility.yul\":26486:26520   */\n      gt\n        /* \"#utility.yul\":26483:26545   */\n      or\n        /* \"#utility.yul\":26480:26568   */\n      iszero\n      tag_699\n      jumpi\n        /* \"#utility.yul\":26548:26566   */\n      tag_700\n      tag_669\n      jump\t// in\n    tag_700:\n        /* \"#utility.yul\":26480:26568   */\n    tag_699:\n        /* \"#utility.yul\":26588:26598   */\n      dup1\n        /* \"#utility.yul\":26584:26586   */\n      0x40\n        /* \"#utility.yul\":26577:26599   */\n      mstore\n        /* \"#utility.yul\":26367:26605   */\n      pop\n        /* \"#utility.yul\":26324:26605   */\n      pop\n      pop\n      jump\t// out\n        /* \"#utility.yul\":26611:26791   */\n    tag_696:\n        /* \"#utility.yul\":26659:26736   */\n      0x4e487b7100000000000000000000000000000000000000000000000000000000\n        /* \"#utility.yul\":26656:26657   */\n      0x00\n        /* \"#utility.yul\":26649:26737   */\n      mstore\n        /* \"#utility.yul\":26756:26760   */\n      0x22\n        /* \"#utility.yul\":26753:26754   */\n      0x04\n        /* \"#utility.yul\":26746:26761   */\n      mstore\n        /* \"#utility.yul\":26780:26784   */\n      0x24\n        /* \"#utility.yul\":26777:26778   */\n      0x00\n        /* \"#utility.yul\":26770:26785   */\n      revert\n        /* \"#utility.yul\":26797:26977   */\n    tag_133:\n        /* \"#utility.yul\":26845:26922   */\n      0x4e487b7100000000000000000000000000000000000000000000000000000000\n        /* \"#utility.yul\":26842:26843   */\n      0x00\n        /* \"#utility.yul\":26835:26923   */\n      mstore\n        /* \"#utility.yul\":26942:26946   */\n      0x32\n        /* \"#utility.yul\":26939:26940   */\n      0x04\n        /* \"#utility.yul\":26932:26947   */\n      mstore\n        /* \"#utility.yul\":26966:26970   */\n      0x24\n        /* \"#utility.yul\":26963:26964   */\n      0x00\n        /* \"#utility.yul\":26956:26971   */\n      revert\n        /* \"#utility.yul\":26983:27163   */\n    tag_669:\n        /* \"#utility.yul\":27031:27108   */\n      0x4e487b7100000000000000000000000000000000000000000000000000000000\n        /* \"#utility.yul\":27028:27029   */\n      0x00\n        /* \"#utility.yul\":27021:27109   */\n      mstore\n        /* \"#utility.yul\":27128:27132   */\n      0x41\n        /* \"#utility.yul\":27125:27126   */\n      0x04\n        /* \"#utility.yul\":27118:27133   */\n      mstore\n        /* \"#utility.yul\":27152:27156   */\n      0x24\n        /* \"#utility.yul\":27149:27150   */\n      0x00\n        /* \"#utility.yul\":27142:27157   */\n      revert\n        /* \"#utility.yul\":27169:27286   */\n    tag_445:\n        /* \"#utility.yul\":27278:27279   */\n      0x00\n        /* \"#utility.yul\":27275:27276   */\n      dup1\n        /* \"#utility.yul\":27268:27280   */\n      revert\n        /* \"#utility.yul\":27292:27409   */\n    tag_439:\n        /* \"#utility.yul\":27401:27402   */\n      0x00\n        /* \"#utility.yul\":27398:27399   */\n      dup1\n        /* \"#utility.yul\":27391:27403   */\n      revert\n        /* \"#utility.yul\":27415:27532   */\n    tag_455:\n        /* \"#utility.yul\":27524:27525   */\n      0x00\n        /* \"#utility.yul\":27521:27522   */\n      dup1\n        /* \"#utility.yul\":27514:27526   */\n      revert\n        /* \"#utility.yul\":27538:27655   */\n    tag_485:\n        /* \"#utility.yul\":27647:27648   */\n      0x00\n        /* \"#utility.yul\":27644:27645   */\n      dup1\n        /* \"#utility.yul\":27637:27649   */\n      revert\n        /* \"#utility.yul\":27661:27778   */\n    tag_478:\n        /* \"#utility.yul\":27770:27771   */\n      0x00\n        /* \"#utility.yul\":27767:27768   */\n      dup1\n        /* \"#utility.yul\":27760:27772   */\n      revert\n        /* \"#utility.yul\":27784:27886   */\n    tag_602:\n        /* \"#utility.yul\":27825:27831   */\n      0x00\n        /* \"#utility.yul\":27876:27878   */\n      0x1f\n        /* \"#utility.yul\":27872:27879   */\n      not\n        /* \"#utility.yul\":27867:27869   */\n      0x1f\n        /* \"#utility.yul\":27860:27865   */\n      dup4\n        /* \"#utility.yul\":27856:27870   */\n      add\n        /* \"#utility.yul\":27852:27880   */\n      and\n        /* \"#utility.yul\":27842:27880   */\n      swap1\n      pop\n        /* \"#utility.yul\":27784:27886   */\n      swap2\n      swap1\n      pop\n      jump\t// out\n        /* \"#utility.yul\":27892:28014   */\n    tag_461:\n        /* \"#utility.yul\":27965:27989   */\n      tag_711\n        /* \"#utility.yul\":27983:27988   */\n      dup2\n        /* \"#utility.yul\":27965:27989   */\n      tag_579\n      jump\t// in\n    tag_711:\n        /* \"#utility.yul\":27958:27963   */\n      dup2\n        /* \"#utility.yul\":27955:27990   */\n      eq\n        /* \"#utility.yul\":27945:28008   */\n      tag_712\n      jumpi\n        /* \"#utility.yul\":28004:28005   */\n      0x00\n        /* \"#utility.yul\":28001:28002   */\n      dup1\n        /* \"#utility.yul\":27994:28006   */\n      revert\n        /* \"#utility.yul\":27945:28008   */\n    tag_712:\n        /* \"#utility.yul\":27892:28014   */\n      pop\n      jump\t// out\n        /* \"#utility.yul\":28020:28142   */\n    tag_474:\n        /* \"#utility.yul\":28093:28117   */\n      tag_714\n        /* \"#utility.yul\":28111:28116   */\n      dup2\n        /* \"#utility.yul\":28093:28117   */\n      tag_640\n      jump\t// in\n    tag_714:\n        /* \"#utility.yul\":28086:28091   */\n      dup2\n        /* \"#utility.yul\":28083:28118   */\n      eq\n        /* \"#utility.yul\":28073:28136   */\n      tag_715\n      jumpi\n        /* \"#utility.yul\":28132:28133   */\n      0x00\n        /* \"#utility.yul\":28129:28130   */\n      dup1\n        /* \"#utility.yul\":28122:28134   */\n      revert\n        /* \"#utility.yul\":28073:28136   */\n    tag_715:\n        /* \"#utility.yul\":28020:28142   */\n      pop\n      jump\t// out\n\n    auxdata: 0xa264697066735822122038e9f1df265351b9a18ffc51ae758308dcb427b0a11840840a24bf6adc3c1dea64736f6c63430008070033\n}\n",
				"bytecode": {
					"linkReferences": {},
					"object": "608060405234801561001057600080fd5b50613900806100206000396000f3fe608060405234801561001057600080fd5b50600436106101375760003560e01c806372828388116100b8578063c8ae20ff1161007c578063c8ae20ff146102ca578063c9116b69146102e6578063eb40973014610304578063ed2217ef14610335578063f96e32f81461033f578063fabce08f1461037357610137565b8063728283881461024b578063958791ae1461026757806395ea3757146102835780639dd9d0fd1461028d578063b240c619146102c057610137565b8063420d8667116100ff578063420d8667146101b857806347282f47146101d65780634ed74067146102075780636212fa02146102115780636c2cc7741461022f57610137565b8063103016381461013c578063119d4cac1461015a5780632a70da2914610164578063322a9849146101805780633d984d0e1461019c575b600080fd5b61014461037d565b6040516101519190613601565b60405180910390f35b6101626103c9565b005b61017e60048036038101906101799190612e3a565b610418565b005b61019a60048036038101906101959190612dc2565b610553565b005b6101b660048036038101906101b19190612d1b565b610619565b005b6101c061079d565b6040516101cd9190613601565b60405180910390f35b6101f060048036038101906101eb919061317d565b6107e9565b6040516101fe9291906134f3565b60405180910390f35b61020f6109d5565b005b610219610a3b565b6040516102269190613601565b60405180910390f35b61024960048036038101906102449190612ca3565b610a87565b005b61026560048036038101906102609190612f41565b610b3d565b005b610281600480360381019061027c9190613048565b610da5565b005b61028b61108f565b005b6102a760048036038101906102a29190612c76565b611164565b6040516102b794939291906135a0565b60405180910390f35b6102c8611d32565b005b6102e460048036038101906102df9190612f41565b611d81565b005b6102ee611ebc565b6040516102fb9190613601565b60405180910390f35b61031e6004803603810190610319919061317d565b611edb565b60405161032c9291906134f3565b60405180910390f35b61033d6120c7565b005b6103596004803603810190610354919061317d565b612116565b60405161036a95949392919061352a565b60405180910390f35b61037b6125e1565b005b60008060003373ffffffffffffffffffffffffffffffffffffffff1673ffffffffffffffffffffffffffffffffffffffff16815260200190815260200160002060150180549050905090565b6000803373ffffffffffffffffffffffffffffffffffffffff1673ffffffffffffffffffffffffffffffffffffffff168152602001908152602001600020601501600061041691906127af565b565b6104206127d3565b8581600001819052508481602001819052508381604001819052508281606001819052508181608001819052506000803373ffffffffffffffffffffffffffffffffffffffff1673ffffffffffffffffffffffffffffffffffffffff16815260200190815260200160002060140181908060018154018082558091505060019003906000526020600020906005020160009091909190915060008201518160000190805190602001906104d4929190612802565b5060208201518160010190805190602001906104f1929190612802565b50604082015181600201908051906020019061050e929190612802565b50606082015181600301908051906020019061052b929190612802565b506080820151816004019080519060200190610548929190612888565b505050505050505050565b61055b6128e8565b8281600001819052508181602001819052506000803373ffffffffffffffffffffffffffffffffffffffff1673ffffffffffffffffffffffffffffffffffffffff16815260200190815260200160002060150181908060018154018082558091505060019003906000526020600020906002020160009091909190915060008201518160000190805190602001906105f4929190612802565b506020820151816001019080519060200190610611929190612802565b505050505050565b6000803373ffffffffffffffffffffffffffffffffffffffff1673ffffffffffffffffffffffffffffffffffffffff168152602001908152602001600020600e016000808201600061066b9190612902565b60018201600061067b9190612902565b60028201600061068b9190612902565b5050826000803373ffffffffffffffffffffffffffffffffffffffff1673ffffffffffffffffffffffffffffffffffffffff168152602001908152602001600020600e0160000190805190602001906106e5929190612888565b50816000803373ffffffffffffffffffffffffffffffffffffffff1673ffffffffffffffffffffffffffffffffffffffff168152602001908152602001600020600e01600101908051906020019061073e929190612888565b50806000803373ffffffffffffffffffffffffffffffffffffffff1673ffffffffffffffffffffffffffffffffffffffff168152602001908152602001600020600e016002019080519060200190610797929190612888565b50505050565b60008060003373ffffffffffffffffffffffffffffffffffffffff1673ffffffffffffffffffffffffffffffffffffffff16815260200190815260200160002060150180549050905090565b6060806000803373ffffffffffffffffffffffffffffffffffffffff1673ffffffffffffffffffffffffffffffffffffffff168152602001908152602001600020601501838154811061083f5761083e613814565b5b90600052602060002090600202016000016000803373ffffffffffffffffffffffffffffffffffffffff1673ffffffffffffffffffffffffffffffffffffffff16815260200190815260200160002060150184815481106108a3576108a2613814565b5b90600052602060002090600202016001018180546108c090613782565b80601f01602080910402602001604051908101604052809291908181526020018280546108ec90613782565b80156109395780601f1061090e57610100808354040283529160200191610939565b820191906000526020600020905b81548152906001019060200180831161091c57829003601f168201915b5050505050915080805461094c90613782565b80601f016020809104026020016040519081016040528092919081815260200182805461097890613782565b80156109c55780601f1061099a576101008083540402835291602001916109c5565b820191906000526020600020905b8154815290600101906020018083116109a857829003601f168201915b5050505050905091509150915091565b6000803373ffffffffffffffffffffffffffffffffffffffff1673ffffffffffffffffffffffffffffffffffffffff16815260200190815260200160002060120160008082016000610a279190612902565b600182016000610a379190612902565b5050565b60008060003373ffffffffffffffffffffffffffffffffffffffff1673ffffffffffffffffffffffffffffffffffffffff16815260200190815260200160002060110180549050905090565b816000803373ffffffffffffffffffffffffffffffffffffffff1673ffffffffffffffffffffffffffffffffffffffff1681526020019081526020016000206012016001019080519060200190610adf929190612888565b50806000803373ffffffffffffffffffffffffffffffffffffffff1673ffffffffffffffffffffffffffffffffffffffff1681526020019081526020016000206012016000019080519060200190610b38929190612888565b505050565b6000803373ffffffffffffffffffffffffffffffffffffffff1673ffffffffffffffffffffffffffffffffffffffff16815260200190815260200160002060080160008082016000610b8f9190612923565b600182016000610b9f9190612923565b600282016000610baf9190612923565b600382016000610bbf9190612923565b600482016000610bcf9190612923565b600582016000610bdf9190612923565b5050846000803373ffffffffffffffffffffffffffffffffffffffff1673ffffffffffffffffffffffffffffffffffffffff1681526020019081526020016000206008016001019080519060200190610c39929190612802565b50836000803373ffffffffffffffffffffffffffffffffffffffff1673ffffffffffffffffffffffffffffffffffffffff1681526020019081526020016000206008016002019080519060200190610c92929190612802565b50826000803373ffffffffffffffffffffffffffffffffffffffff1673ffffffffffffffffffffffffffffffffffffffff1681526020019081526020016000206008016003019080519060200190610ceb929190612802565b50816000803373ffffffffffffffffffffffffffffffffffffffff1673ffffffffffffffffffffffffffffffffffffffff1681526020019081526020016000206008016004019080519060200190610d44929190612802565b50806000803373ffffffffffffffffffffffffffffffffffffffff1673ffffffffffffffffffffffffffffffffffffffff1681526020019081526020016000206008016005019080519060200190610d9d929190612802565b505050505050565b856000803373ffffffffffffffffffffffffffffffffffffffff1673ffffffffffffffffffffffffffffffffffffffff1681526020019081526020016000206000016003019080519060200190610dfd929190612802565b50846000803373ffffffffffffffffffffffffffffffffffffffff1673ffffffffffffffffffffffffffffffffffffffff1681526020019081526020016000206000016004019080519060200190610e56929190612802565b50836000803373ffffffffffffffffffffffffffffffffffffffff1673ffffffffffffffffffffffffffffffffffffffff1681526020019081526020016000206000016005019080519060200190610eaf929190612802565b50826000803373ffffffffffffffffffffffffffffffffffffffff1673ffffffffffffffffffffffffffffffffffffffff1681526020019081526020016000206000016006019080519060200190610f08929190612802565b50816000803373ffffffffffffffffffffffffffffffffffffffff1673ffffffffffffffffffffffffffffffffffffffff1681526020019081526020016000206000016000019080519060200190610f61929190612802565b50806000803373ffffffffffffffffffffffffffffffffffffffff1673ffffffffffffffffffffffffffffffffffffffff1681526020019081526020016000206000016001019080519060200190610fba929190612802565b50336000803373ffffffffffffffffffffffffffffffffffffffff1673ffffffffffffffffffffffffffffffffffffffff16815260200190815260200160002060000160020160006101000a81548173ffffffffffffffffffffffffffffffffffffffff021916908373ffffffffffffffffffffffffffffffffffffffff160217905550426000803373ffffffffffffffffffffffffffffffffffffffff1673ffffffffffffffffffffffffffffffffffffffff16815260200190815260200160002060000160070181905550505050505050565b6000803373ffffffffffffffffffffffffffffffffffffffff1673ffffffffffffffffffffffffffffffffffffffff168152602001908152602001600020600001600080820160006110e19190612923565b6001820160006110f19190612923565b6002820160006101000a81549073ffffffffffffffffffffffffffffffffffffffff02191690556003820160006111289190612923565b6004820160006111389190612923565b6005820160006111489190612923565b6006820160006111589190612923565b60078201600090555050565b6000602052806000526040600020600091509050806000016040518061010001604052908160008201805461119890613782565b80601f01602080910402602001604051908101604052809291908181526020018280546111c490613782565b80156112115780601f106111e657610100808354040283529160200191611211565b820191906000526020600020905b8154815290600101906020018083116111f457829003601f168201915b5050505050815260200160018201805461122a90613782565b80601f016020809104026020016040519081016040528092919081815260200182805461125690613782565b80156112a35780601f10611278576101008083540402835291602001916112a3565b820191906000526020600020905b81548152906001019060200180831161128657829003601f168201915b505050505081526020016002820160009054906101000a900473ffffffffffffffffffffffffffffffffffffffff1673ffffffffffffffffffffffffffffffffffffffff1673ffffffffffffffffffffffffffffffffffffffff16815260200160038201805461131290613782565b80601f016020809104026020016040519081016040528092919081815260200182805461133e90613782565b801561138b5780601f106113605761010080835404028352916020019161138b565b820191906000526020600020905b81548152906001019060200180831161136e57829003601f168201915b505050505081526020016004820180546113a490613782565b80601f01602080910402602001604051908101604052809291908181526020018280546113d090613782565b801561141d5780601f106113f25761010080835404028352916020019161141d565b820191906000526020600020905b81548152906001019060200180831161140057829003601f168201915b5050505050815260200160058201805461143690613782565b80601f016020809104026020016040519081016040528092919081815260200182805461146290613782565b80156114af5780601f10611484576101008083540402835291602001916114af565b820191906000526020600020905b81548152906001019060200180831161149257829003601f168201915b505050505081526020016006820180546114c890613782565b80601f01602080910402602001604051908101604052809291908181526020018280546114f490613782565b80156115415780601f1061151657610100808354040283529160200191611541565b820191906000526020600020905b81548152906001019060200180831161152457829003601f168201915b5050505050815260200160078201548152505090806008016040518060c001604052908160008201805461157490613782565b80601f01602080910402602001604051908101604052809291908181526020018280546115a090613782565b80156115ed5780601f106115c2576101008083540402835291602001916115ed565b820191906000526020600020905b8154815290600101906020018083116115d057829003601f168201915b5050505050815260200160018201805461160690613782565b80601f016020809104026020016040519081016040528092919081815260200182805461163290613782565b801561167f5780601f106116545761010080835404028352916020019161167f565b820191906000526020600020905b81548152906001019060200180831161166257829003601f168201915b5050505050815260200160028201805461169890613782565b80601f01602080910402602001604051908101604052809291908181526020018280546116c490613782565b80156117115780601f106116e657610100808354040283529160200191611711565b820191906000526020600020905b8154815290600101906020018083116116f457829003601f168201915b5050505050815260200160038201805461172a90613782565b80601f016020809104026020016040519081016040528092919081815260200182805461175690613782565b80156117a35780601f10611778576101008083540402835291602001916117a3565b820191906000526020600020905b81548152906001019060200180831161178657829003601f168201915b505050505081526020016004820180546117bc90613782565b80601f01602080910402602001604051908101604052809291908181526020018280546117e890613782565b80156118355780601f1061180a57610100808354040283529160200191611835565b820191906000526020600020905b81548152906001019060200180831161181857829003601f168201915b5050505050815260200160058201805461184e90613782565b80601f016020809104026020016040519081016040528092919081815260200182805461187a90613782565b80156118c75780601f1061189c576101008083540402835291602001916118c7565b820191906000526020600020905b8154815290600101906020018083116118aa57829003601f168201915b5050505050815250509080600e0160405180606001604052908160008201805480602002602001604051908101604052809291908181526020016000905b828210156119b157838290600052602060002001805461192490613782565b80601f016020809104026020016040519081016040528092919081815260200182805461195090613782565b801561199d5780601f106119725761010080835404028352916020019161199d565b820191906000526020600020905b81548152906001019060200180831161198057829003601f168201915b505050505081526020019060010190611905565b50505050815260200160018201805480602002602001604051908101604052809291908181526020016000905b82821015611a8a5783829060005260206000200180546119fd90613782565b80601f0160208091040260200160405190810160405280929190818152602001828054611a2990613782565b8015611a765780601f10611a4b57610100808354040283529160200191611a76565b820191906000526020600020905b815481529060010190602001808311611a5957829003601f168201915b5050505050815260200190600101906119de565b50505050815260200160028201805480602002602001604051908101604052809291908181526020016000905b82821015611b63578382906000526020600020018054611ad690613782565b80601f0160208091040260200160405190810160405280929190818152602001828054611b0290613782565b8015611b4f5780601f10611b2457610100808354040283529160200191611b4f565b820191906000526020600020905b815481529060010190602001808311611b3257829003601f168201915b505050505081526020019060010190611ab7565b5050505081525050908060120160405180604001604052908160008201805480602002602001604051908101604052809291908181526020016000905b82821015611c4c578382906000526020600020018054611bbf90613782565b80601f0160208091040260200160405190810160405280929190818152602001828054611beb90613782565b8015611c385780601f10611c0d57610100808354040283529160200191611c38565b820191906000526020600020905b815481529060010190602001808311611c1b57829003601f168201915b505050505081526020019060010190611ba0565b50505050815260200160018201805480602002602001604051908101604052809291908181526020016000905b82821015611d25578382906000526020600020018054611c9890613782565b80601f0160208091040260200160405190810160405280929190818152602001828054611cc490613782565b8015611d115780601f10611ce657610100808354040283529160200191611d11565b820191906000526020600020905b815481529060010190602001808311611cf457829003601f168201915b505050505081526020019060010190611c79565b5050505081525050905084565b6000803373ffffffffffffffffffffffffffffffffffffffff1673ffffffffffffffffffffffffffffffffffffffff1681526020019081526020016000206014016000611d7f9190612963565b565b611d89612987565b8581600001819052508481602001819052508381604001819052508281606001819052508181608001819052506000803373ffffffffffffffffffffffffffffffffffffffff1673ffffffffffffffffffffffffffffffffffffffff1681526020019081526020016000206011018190806001815401808255809150506001900390600052602060002090600502016000909190919091506000820151816000019080519060200190611e3d929190612802565b506020820151816001019080519060200190611e5a929190612802565b506040820151816002019080519060200190611e77929190612802565b506060820151816003019080519060200190611e94929190612802565b506080820151816004019080519060200190611eb1929190612802565b505050505050505050565b60003373ffffffffffffffffffffffffffffffffffffffff1631905090565b6060806000803373ffffffffffffffffffffffffffffffffffffffff1673ffffffffffffffffffffffffffffffffffffffff1681526020019081526020016000206015018381548110611f3157611f30613814565b5b90600052602060002090600202016000016000803373ffffffffffffffffffffffffffffffffffffffff1673ffffffffffffffffffffffffffffffffffffffff1681526020019081526020016000206015018481548110611f9557611f94613814565b5b9060005260206000209060020201600101818054611fb290613782565b80601f0160208091040260200160405190810160405280929190818152602001828054611fde90613782565b801561202b5780601f106120005761010080835404028352916020019161202b565b820191906000526020600020905b81548152906001019060200180831161200e57829003601f168201915b5050505050915080805461203e90613782565b80601f016020809104026020016040519081016040528092919081815260200182805461206a90613782565b80156120b75780601f1061208c576101008083540402835291602001916120b7565b820191906000526020600020905b81548152906001019060200180831161209a57829003601f168201915b5050505050905091509150915091565b6000803373ffffffffffffffffffffffffffffffffffffffff1673ffffffffffffffffffffffffffffffffffffffff168152602001908152602001600020601101600061211491906129b6565b565b60608060608060606000803373ffffffffffffffffffffffffffffffffffffffff1673ffffffffffffffffffffffffffffffffffffffff168152602001908152602001600020601101868154811061217157612170613814565b5b90600052602060002090600502016000016000803373ffffffffffffffffffffffffffffffffffffffff1673ffffffffffffffffffffffffffffffffffffffff16815260200190815260200160002060110187815481106121d5576121d4613814565b5b90600052602060002090600502016001016000803373ffffffffffffffffffffffffffffffffffffffff1673ffffffffffffffffffffffffffffffffffffffff168152602001908152602001600020601101888154811061223957612238613814565b5b90600052602060002090600502016002016000803373ffffffffffffffffffffffffffffffffffffffff1673ffffffffffffffffffffffffffffffffffffffff168152602001908152602001600020601101898154811061229d5761229c613814565b5b90600052602060002090600502016003016000803373ffffffffffffffffffffffffffffffffffffffff1673ffffffffffffffffffffffffffffffffffffffff1681526020019081526020016000206011018a8154811061230157612300613814565b5b906000526020600020906005020160040184805461231e90613782565b80601f016020809104026020016040519081016040528092919081815260200182805461234a90613782565b80156123975780601f1061236c57610100808354040283529160200191612397565b820191906000526020600020905b81548152906001019060200180831161237a57829003601f168201915b505050505094508380546123aa90613782565b80601f01602080910402602001604051908101604052809291908181526020018280546123d690613782565b80156124235780601f106123f857610100808354040283529160200191612423565b820191906000526020600020905b81548152906001019060200180831161240657829003601f168201915b5050505050935082805461243690613782565b80601f016020809104026020016040519081016040528092919081815260200182805461246290613782565b80156124af5780601f10612484576101008083540402835291602001916124af565b820191906000526020600020905b81548152906001019060200180831161249257829003601f168201915b505050505092508180546124c290613782565b80601f01602080910402602001604051908101604052809291908181526020018280546124ee90613782565b801561253b5780601f106125105761010080835404028352916020019161253b565b820191906000526020600020905b81548152906001019060200180831161251e57829003601f168201915b5050505050915080805461254e90613782565b80601f016020809104026020016040519081016040528092919081815260200182805461257a90613782565b80156125c75780601f1061259c576101008083540402835291602001916125c7565b820191906000526020600020905b8154815290600101906020018083116125aa57829003601f168201915b505050505090509450945094509450945091939590929450565b6000803373ffffffffffffffffffffffffffffffffffffffff1673ffffffffffffffffffffffffffffffffffffffff1681526020019081526020016000206000808201600080820160006126359190612923565b6001820160006126459190612923565b6002820160006101000a81549073ffffffffffffffffffffffffffffffffffffffff021916905560038201600061267c9190612923565b60048201600061268c9190612923565b60058201600061269c9190612923565b6006820160006126ac9190612923565b6007820160009055505060088201600080820160006126cb9190612923565b6001820160006126db9190612923565b6002820160006126eb9190612923565b6003820160006126fb9190612923565b60048201600061270b9190612923565b60058201600061271b9190612923565b5050600e8201600080820160006127329190612902565b6001820160006127429190612902565b6002820160006127529190612902565b505060118201600061276491906129b6565b60128201600080820160006127799190612902565b6001820160006127899190612902565b505060148201600061279b9190612963565b6015820160006127ab91906127af565b5050565b50805460008255600202906000526020600020908101906127d091906129da565b50565b6040518060a0016040528060608152602001606081526020016060815260200160608152602001606081525090565b82805461280e90613782565b90600052602060002090601f0160209004810192826128305760008555612877565b82601f1061284957805160ff1916838001178555612877565b82800160010185558215612877579182015b8281111561287657825182559160200191906001019061285b565b5b5090506128849190612a11565b5090565b8280548282559060005260206000209081019282156128d7579160200282015b828111156128d65782518290805190602001906128c6929190612802565b50916020019190600101906128a8565b5b5090506128e49190612a2e565b5090565b604051806040016040528060608152602001606081525090565b50805460008255906000526020600020908101906129209190612a2e565b50565b50805461292f90613782565b6000825580601f106129415750612960565b601f01602090049060005260206000209081019061295f9190612a11565b5b50565b50805460008255600502906000526020600020908101906129849190612a52565b50565b6040518060a0016040528060608152602001606081526020016060815260200160608152602001606081525090565b50805460008255600502906000526020600020908101906129d79190612ab9565b50565b5b80821115612a0d57600080820160006129f49190612923565b600182016000612a049190612923565b506002016129db565b5090565b5b80821115612a2a576000816000905550600101612a12565b5090565b5b80821115612a4e5760008181612a459190612923565b50600101612a2f565b5090565b5b80821115612ab55760008082016000612a6c9190612923565b600182016000612a7c9190612923565b600282016000612a8c9190612923565b600382016000612a9c9190612923565b600482016000612aac9190612902565b50600501612a53565b5090565b5b80821115612b1c5760008082016000612ad39190612923565b600182016000612ae39190612923565b600282016000612af39190612923565b600382016000612b039190612923565b600482016000612b139190612923565b50600501612aba565b5090565b6000612b33612b2e84613641565b61361c565b90508083825260208201905082856020860282011115612b5657612b55613877565b5b60005b85811015612ba457813567ffffffffffffffff811115612b7c57612b7b613872565b5b808601612b898982612c33565b85526020850194506020840193505050600181019050612b59565b5050509392505050565b6000612bc1612bbc8461366d565b61361c565b905082815260208101848484011115612bdd57612bdc61387c565b5b612be8848285613740565b509392505050565b600081359050612bff8161389c565b92915050565b600082601f830112612c1a57612c19613872565b5b8135612c2a848260208601612b20565b91505092915050565b600082601f830112612c4857612c47613872565b5b8135612c58848260208601612bae565b91505092915050565b600081359050612c70816138b3565b92915050565b600060208284031215612c8c57612c8b613886565b5b6000612c9a84828501612bf0565b91505092915050565b60008060408385031215612cba57612cb9613886565b5b600083013567ffffffffffffffff811115612cd857612cd7613881565b5b612ce485828601612c05565b925050602083013567ffffffffffffffff811115612d0557612d04613881565b5b612d1185828601612c05565b9150509250929050565b600080600060608486031215612d3457612d33613886565b5b600084013567ffffffffffffffff811115612d5257612d51613881565b5b612d5e86828701612c05565b935050602084013567ffffffffffffffff811115612d7f57612d7e613881565b5b612d8b86828701612c05565b925050604084013567ffffffffffffffff811115612dac57612dab613881565b5b612db886828701612c05565b9150509250925092565b60008060408385031215612dd957612dd8613886565b5b600083013567ffffffffffffffff811115612df757612df6613881565b5b612e0385828601612c33565b925050602083013567ffffffffffffffff811115612e2457612e23613881565b5b612e3085828601612c33565b9150509250929050565b600080600080600060a08688031215612e5657612e55613886565b5b600086013567ffffffffffffffff811115612e7457612e73613881565b5b612e8088828901612c33565b955050602086013567ffffffffffffffff811115612ea157612ea0613881565b5b612ead88828901612c33565b945050604086013567ffffffffffffffff811115612ece57612ecd613881565b5b612eda88828901612c33565b935050606086013567ffffffffffffffff811115612efb57612efa613881565b5b612f0788828901612c33565b925050608086013567ffffffffffffffff811115612f2857612f27613881565b5b612f3488828901612c05565b9150509295509295909350565b600080600080600060a08688031215612f5d57612f5c613886565b5b600086013567ffffffffffffffff811115612f7b57612f7a613881565b5b612f8788828901612c33565b955050602086013567ffffffffffffffff811115612fa857612fa7613881565b5b612fb488828901612c33565b945050604086013567ffffffffffffffff811115612fd557612fd4613881565b5b612fe188828901612c33565b935050606086013567ffffffffffffffff81111561300257613001613881565b5b61300e88828901612c33565b925050608086013567ffffffffffffffff81111561302f5761302e613881565b5b61303b88828901612c33565b9150509295509295909350565b60008060008060008060c0878903121561306557613064613886565b5b600087013567ffffffffffffffff81111561308357613082613881565b5b61308f89828a01612c33565b965050602087013567ffffffffffffffff8111156130b0576130af613881565b5b6130bc89828a01612c33565b955050604087013567ffffffffffffffff8111156130dd576130dc613881565b5b6130e989828a01612c33565b945050606087013567ffffffffffffffff81111561310a57613109613881565b5b61311689828a01612c33565b935050608087013567ffffffffffffffff81111561313757613136613881565b5b61314389828a01612c33565b92505060a087013567ffffffffffffffff81111561316457613163613881565b5b61317089828a01612c33565b9150509295509295509295565b60006020828403121561319357613192613886565b5b60006131a184828501612c61565b91505092915050565b60006131b68383613242565b905092915050565b6131c781613704565b82525050565b60006131d8826136ae565b6131e281856136d1565b9350836020820285016131f48561369e565b8060005b85811015613230578484038952815161321185826131aa565b945061321c836136c4565b925060208a019950506001810190506131f8565b50829750879550505050505092915050565b600061324d826136b9565b61325781856136e2565b935061326781856020860161374f565b6132708161388b565b840191505092915050565b6000613286826136b9565b61329081856136f3565b93506132a081856020860161374f565b6132a98161388b565b840191505092915050565b600060408301600083015184820360008601526132d182826131cd565b915050602083015184820360208601526132eb82826131cd565b9150508091505092915050565b600060c08301600083015184820360008601526133158282613242565b9150506020830151848203602086015261332f8282613242565b915050604083015184820360408601526133498282613242565b915050606083015184820360608601526133638282613242565b9150506080830151848203608086015261337d8282613242565b91505060a083015184820360a08601526133978282613242565b9150508091505092915050565b60006101008301600083015184820360008601526133c28282613242565b915050602083015184820360208601526133dc8282613242565b91505060408301516133f160408601826131be565b50606083015184820360608601526134098282613242565b915050608083015184820360808601526134238282613242565b91505060a083015184820360a086015261343d8282613242565b91505060c083015184820360c08601526134578282613242565b91505060e083015161346c60e08601826134d5565b508091505092915050565b6000606083016000830151848203600086015261349482826131cd565b915050602083015184820360208601526134ae82826131cd565b915050604083015184820360408601526134c882826131cd565b9150508091505092915050565b6134de81613736565b82525050565b6134ed81613736565b82525050565b6000604082019050818103600083015261350d818561327b565b90508181036020830152613521818461327b565b90509392505050565b600060a0820190508181036000830152613544818861327b565b90508181036020830152613558818761327b565b9050818103604083015261356c818661327b565b90508181036060830152613580818561327b565b90508181036080830152613594818461327b565b90509695505050505050565b600060808201905081810360008301526135ba81876133a4565b905081810360208301526135ce81866132f8565b905081810360408301526135e28185613477565b905081810360608301526135f681846132b4565b905095945050505050565b600060208201905061361660008301846134e4565b92915050565b6000613626613637565b905061363282826137b4565b919050565b6000604051905090565b600067ffffffffffffffff82111561365c5761365b613843565b5b602082029050602081019050919050565b600067ffffffffffffffff82111561368857613687613843565b5b6136918261388b565b9050602081019050919050565b6000819050602082019050919050565b600081519050919050565b600081519050919050565b6000602082019050919050565b600082825260208201905092915050565b600082825260208201905092915050565b600082825260208201905092915050565b600061370f82613716565b9050919050565b600073ffffffffffffffffffffffffffffffffffffffff82169050919050565b6000819050919050565b82818337600083830152505050565b60005b8381101561376d578082015181840152602081019050613752565b8381111561377c576000848401525b50505050565b6000600282049050600182168061379a57607f821691505b602082108114156137ae576137ad6137e5565b5b50919050565b6137bd8261388b565b810181811067ffffffffffffffff821117156137dc576137db613843565b5b80604052505050565b7f4e487b7100000000000000000000000000000000000000000000000000000000600052602260045260246000fd5b7f4e487b7100000000000000000000000000000000000000000000000000000000600052603260045260246000fd5b7f4e487b7100000000000000000000000000000000000000000000000000000000600052604160045260246000fd5b600080fd5b600080fd5b600080fd5b600080fd5b600080fd5b6000601f19601f8301169050919050565b6138a581613704565b81146138b057600080fd5b50565b6138bc81613736565b81146138c757600080fd5b5056fea264697066735822122038e9f1df265351b9a18ffc51ae758308dcb427b0a11840840a24bf6adc3c1dea64736f6c63430008070033",
					"opcodes": "PUSH1 0x80 PUSH1 0x40 MSTORE CALLVALUE DUP1 ISZERO PUSH2 0x10 JUMPI PUSH1 0x0 DUP1 REVERT JUMPDEST POP PUSH2 0x3900 DUP1 PUSH2 0x20 PUSH1 0x0 CODECOPY PUSH1 0x0 RETURN INVALID PUSH1 0x80 PUSH1 0x40 MSTORE CALLVALUE DUP1 ISZERO PUSH2 0x10 JUMPI PUSH1 0x0 DUP1 REVERT JUMPDEST POP PUSH1 0x4 CALLDATASIZE LT PUSH2 0x137 JUMPI PUSH1 0x0 CALLDATALOAD PUSH1 0xE0 SHR DUP1 PUSH4 0x72828388 GT PUSH2 0xB8 JUMPI DUP1 PUSH4 0xC8AE20FF GT PUSH2 0x7C JUMPI DUP1 PUSH4 0xC8AE20FF EQ PUSH2 0x2CA JUMPI DUP1 PUSH4 0xC9116B69 EQ PUSH2 0x2E6 JUMPI DUP1 PUSH4 0xEB409730 EQ PUSH2 0x304 JUMPI DUP1 PUSH4 0xED2217EF EQ PUSH2 0x335 JUMPI DUP1 PUSH4 0xF96E32F8 EQ PUSH2 0x33F JUMPI DUP1 PUSH4 0xFABCE08F EQ PUSH2 0x373 JUMPI PUSH2 0x137 JUMP JUMPDEST DUP1 PUSH4 0x72828388 EQ PUSH2 0x24B JUMPI DUP1 PUSH4 0x958791AE EQ PUSH2 0x267 JUMPI DUP1 PUSH4 0x95EA3757 EQ PUSH2 0x283 JUMPI DUP1 PUSH4 0x9DD9D0FD EQ PUSH2 0x28D JUMPI DUP1 PUSH4 0xB240C619 EQ PUSH2 0x2C0 JUMPI PUSH2 0x137 JUMP JUMPDEST DUP1 PUSH4 0x420D8667 GT PUSH2 0xFF JUMPI DUP1 PUSH4 0x420D8667 EQ PUSH2 0x1B8 JUMPI DUP1 PUSH4 0x47282F47 EQ PUSH2 0x1D6 JUMPI DUP1 PUSH4 0x4ED74067 EQ PUSH2 0x207 JUMPI DUP1 PUSH4 0x6212FA02 EQ PUSH2 0x211 JUMPI DUP1 PUSH4 0x6C2CC774 EQ PUSH2 0x22F JUMPI PUSH2 0x137 JUMP JUMPDEST DUP1 PUSH4 0x10301638 EQ PUSH2 0x13C JUMPI DUP1 PUSH4 0x119D4CAC EQ PUSH2 0x15A JUMPI DUP1 PUSH4 0x2A70DA29 EQ PUSH2 0x164 JUMPI DUP1 PUSH4 0x322A9849 EQ PUSH2 0x180 JUMPI DUP1 PUSH4 0x3D984D0E EQ PUSH2 0x19C JUMPI JUMPDEST PUSH1 0x0 DUP1 REVERT JUMPDEST PUSH2 0x144 PUSH2 0x37D JUMP JUMPDEST PUSH1 0x40 MLOAD PUSH2 0x151 SWAP2 SWAP1 PUSH2 0x3601 JUMP JUMPDEST PUSH1 0x40 MLOAD DUP1 SWAP2 SUB SWAP1 RETURN JUMPDEST PUSH2 0x162 PUSH2 0x3C9 JUMP JUMPDEST STOP JUMPDEST PUSH2 0x17E PUSH1 0x4 DUP1 CALLDATASIZE SUB DUP2 ADD SWAP1 PUSH2 0x179 SWAP2 SWAP1 PUSH2 0x2E3A JUMP JUMPDEST PUSH2 0x418 JUMP JUMPDEST STOP JUMPDEST PUSH2 0x19A PUSH1 0x4 DUP1 CALLDATASIZE SUB DUP2 ADD SWAP1 PUSH2 0x195 SWAP2 SWAP1 PUSH2 0x2DC2 JUMP JUMPDEST PUSH2 0x553 JUMP JUMPDEST STOP JUMPDEST PUSH2 0x1B6 PUSH1 0x4 DUP1 CALLDATASIZE SUB DUP2 ADD SWAP1 PUSH2 0x1B1 SWAP2 SWAP1 PUSH2 0x2D1B JUMP JUMPDEST PUSH2 0x619 JUMP JUMPDEST STOP JUMPDEST PUSH2 0x1C0 PUSH2 0x79D JUMP JUMPDEST PUSH1 0x40 MLOAD PUSH2 0x1CD SWAP2 SWAP1 PUSH2 0x3601 JUMP JUMPDEST PUSH1 0x40 MLOAD DUP1 SWAP2 SUB SWAP1 RETURN JUMPDEST PUSH2 0x1F0 PUSH1 0x4 DUP1 CALLDATASIZE SUB DUP2 ADD SWAP1 PUSH2 0x1EB SWAP2 SWAP1 PUSH2 0x317D JUMP JUMPDEST PUSH2 0x7E9 JUMP JUMPDEST PUSH1 0x40 MLOAD PUSH2 0x1FE SWAP3 SWAP2 SWAP1 PUSH2 0x34F3 JUMP JUMPDEST PUSH1 0x40 MLOAD DUP1 SWAP2 SUB SWAP1 RETURN JUMPDEST PUSH2 0x20F PUSH2 0x9D5 JUMP JUMPDEST STOP JUMPDEST PUSH2 0x219 PUSH2 0xA3B JUMP JUMPDEST PUSH1 0x40 MLOAD PUSH2 0x226 SWAP2 SWAP1 PUSH2 0x3601 JUMP JUMPDEST PUSH1 0x40 MLOAD DUP1 SWAP2 SUB SWAP1 RETURN JUMPDEST PUSH2 0x249 PUSH1 0x4 DUP1 CALLDATASIZE SUB DUP2 ADD SWAP1 PUSH2 0x244 SWAP2 SWAP1 PUSH2 0x2CA3 JUMP JUMPDEST PUSH2 0xA87 JUMP JUMPDEST STOP JUMPDEST PUSH2 0x265 PUSH1 0x4 DUP1 CALLDATASIZE SUB DUP2 ADD SWAP1 PUSH2 0x260 SWAP2 SWAP1 PUSH2 0x2F41 JUMP JUMPDEST PUSH2 0xB3D JUMP JUMPDEST STOP JUMPDEST PUSH2 0x281 PUSH1 0x4 DUP1 CALLDATASIZE SUB DUP2 ADD SWAP1 PUSH2 0x27C SWAP2 SWAP1 PUSH2 0x3048 JUMP JUMPDEST PUSH2 0xDA5 JUMP JUMPDEST STOP JUMPDEST PUSH2 0x28B PUSH2 0x108F JUMP JUMPDEST STOP JUMPDEST PUSH2 0x2A7 PUSH1 0x4 DUP1 CALLDATASIZE SUB DUP2 ADD SWAP1 PUSH2 0x2A2 SWAP2 SWAP1 PUSH2 0x2C76 JUMP JUMPDEST PUSH2 0x1164 JUMP JUMPDEST PUSH1 0x40 MLOAD PUSH2 0x2B7 SWAP5 SWAP4 SWAP3 SWAP2 SWAP1 PUSH2 0x35A0 JUMP JUMPDEST PUSH1 0x40 MLOAD DUP1 SWAP2 SUB SWAP1 RETURN JUMPDEST PUSH2 0x2C8 PUSH2 0x1D32 JUMP JUMPDEST STOP JUMPDEST PUSH2 0x2E4 PUSH1 0x4 DUP1 CALLDATASIZE SUB DUP2 ADD SWAP1 PUSH2 0x2DF SWAP2 SWAP1 PUSH2 0x2F41 JUMP JUMPDEST PUSH2 0x1D81 JUMP JUMPDEST STOP JUMPDEST PUSH2 0x2EE PUSH2 0x1EBC JUMP JUMPDEST PUSH1 0x40 MLOAD PUSH2 0x2FB SWAP2 SWAP1 PUSH2 0x3601 JUMP JUMPDEST PUSH1 0x40 MLOAD DUP1 SWAP2 SUB SWAP1 RETURN JUMPDEST PUSH2 0x31E PUSH1 0x4 DUP1 CALLDATASIZE SUB DUP2 ADD SWAP1 PUSH2 0x319 SWAP2 SWAP1 PUSH2 0x317D JUMP JUMPDEST PUSH2 0x1EDB JUMP JUMPDEST PUSH1 0x40 MLOAD PUSH2 0x32C SWAP3 SWAP2 SWAP1 PUSH2 0x34F3 JUMP JUMPDEST PUSH1 0x40 MLOAD DUP1 SWAP2 SUB SWAP1 RETURN JUMPDEST PUSH2 0x33D PUSH2 0x20C7 JUMP JUMPDEST STOP JUMPDEST PUSH2 0x359 PUSH1 0x4 DUP1 CALLDATASIZE SUB DUP2 ADD SWAP1 PUSH2 0x354 SWAP2 SWAP1 PUSH2 0x317D JUMP JUMPDEST PUSH2 0x2116 JUMP JUMPDEST PUSH1 0x40 MLOAD PUSH2 0x36A SWAP6 SWAP5 SWAP4 SWAP3 SWAP2 SWAP1 PUSH2 0x352A JUMP JUMPDEST PUSH1 0x40 MLOAD DUP1 SWAP2 SUB SWAP1 RETURN JUMPDEST PUSH2 0x37B PUSH2 0x25E1 JUMP JUMPDEST STOP JUMPDEST PUSH1 0x0 DUP1 PUSH1 0x0 CALLER PUSH20 0xFFFFFFFFFFFFFFFFFFFFFFFFFFFFFFFFFFFFFFFF AND PUSH20 0xFFFFFFFFFFFFFFFFFFFFFFFFFFFFFFFFFFFFFFFF AND DUP2 MSTORE PUSH1 0x20 ADD SWAP1 DUP2 MSTORE PUSH1 0x20 ADD PUSH1 0x0 KECCAK256 PUSH1 0x15 ADD DUP1 SLOAD SWAP1 POP SWAP1 POP SWAP1 JUMP JUMPDEST PUSH1 0x0 DUP1 CALLER PUSH20 0xFFFFFFFFFFFFFFFFFFFFFFFFFFFFFFFFFFFFFFFF AND PUSH20 0xFFFFFFFFFFFFFFFFFFFFFFFFFFFFFFFFFFFFFFFF AND DUP2 MSTORE PUSH1 0x20 ADD SWAP1 DUP2 MSTORE PUSH1 0x20 ADD PUSH1 0x0 KECCAK256 PUSH1 0x15 ADD PUSH1 0x0 PUSH2 0x416 SWAP2 SWAP1 PUSH2 0x27AF JUMP JUMPDEST JUMP JUMPDEST PUSH2 0x420 PUSH2 0x27D3 JUMP JUMPDEST DUP6 DUP2 PUSH1 0x0 ADD DUP2 SWAP1 MSTORE POP DUP5 DUP2 PUSH1 0x20 ADD DUP2 SWAP1 MSTORE POP DUP4 DUP2 PUSH1 0x40 ADD DUP2 SWAP1 MSTORE POP DUP3 DUP2 PUSH1 0x60 ADD DUP2 SWAP1 MSTORE POP DUP2 DUP2 PUSH1 0x80 ADD DUP2 SWAP1 MSTORE POP PUSH1 0x0 DUP1 CALLER PUSH20 0xFFFFFFFFFFFFFFFFFFFFFFFFFFFFFFFFFFFFFFFF AND PUSH20 0xFFFFFFFFFFFFFFFFFFFFFFFFFFFFFFFFFFFFFFFF AND DUP2 MSTORE PUSH1 0x20 ADD SWAP1 DUP2 MSTORE PUSH1 0x20 ADD PUSH1 0x0 KECCAK256 PUSH1 0x14 ADD DUP2 SWAP1 DUP1 PUSH1 0x1 DUP2 SLOAD ADD DUP1 DUP3 SSTORE DUP1 SWAP2 POP POP PUSH1 0x1 SWAP1 SUB SWAP1 PUSH1 0x0 MSTORE PUSH1 0x20 PUSH1 0x0 KECCAK256 SWAP1 PUSH1 0x5 MUL ADD PUSH1 0x0 SWAP1 SWAP2 SWAP1 SWAP2 SWAP1 SWAP2 POP PUSH1 0x0 DUP3 ADD MLOAD DUP2 PUSH1 0x0 ADD SWAP1 DUP1 MLOAD SWAP1 PUSH1 0x20 ADD SWAP1 PUSH2 0x4D4 SWAP3 SWAP2 SWAP1 PUSH2 0x2802 JUMP JUMPDEST POP PUSH1 0x20 DUP3 ADD MLOAD DUP2 PUSH1 0x1 ADD SWAP1 DUP1 MLOAD SWAP1 PUSH1 0x20 ADD SWAP1 PUSH2 0x4F1 SWAP3 SWAP2 SWAP1 PUSH2 0x2802 JUMP JUMPDEST POP PUSH1 0x40 DUP3 ADD MLOAD DUP2 PUSH1 0x2 ADD SWAP1 DUP1 MLOAD SWAP1 PUSH1 0x20 ADD SWAP1 PUSH2 0x50E SWAP3 SWAP2 SWAP1 PUSH2 0x2802 JUMP JUMPDEST POP PUSH1 0x60 DUP3 ADD MLOAD DUP2 PUSH1 0x3 ADD SWAP1 DUP1 MLOAD SWAP1 PUSH1 0x20 ADD SWAP1 PUSH2 0x52B SWAP3 SWAP2 SWAP1 PUSH2 0x2802 JUMP JUMPDEST POP PUSH1 0x80 DUP3 ADD MLOAD DUP2 PUSH1 0x4 ADD SWAP1 DUP1 MLOAD SWAP1 PUSH1 0x20 ADD SWAP1 PUSH2 0x548 SWAP3 SWAP2 SWAP1 PUSH2 0x2888 JUMP JUMPDEST POP POP POP POP POP POP POP POP POP JUMP JUMPDEST PUSH2 0x55B PUSH2 0x28E8 JUMP JUMPDEST DUP3 DUP2 PUSH1 0x0 ADD DUP2 SWAP1 MSTORE POP DUP2 DUP2 PUSH1 0x20 ADD DUP2 SWAP1 MSTORE POP PUSH1 0x0 DUP1 CALLER PUSH20 0xFFFFFFFFFFFFFFFFFFFFFFFFFFFFFFFFFFFFFFFF AND PUSH20 0xFFFFFFFFFFFFFFFFFFFFFFFFFFFFFFFFFFFFFFFF AND DUP2 MSTORE PUSH1 0x20 ADD SWAP1 DUP2 MSTORE PUSH1 0x20 ADD PUSH1 0x0 KECCAK256 PUSH1 0x15 ADD DUP2 SWAP1 DUP1 PUSH1 0x1 DUP2 SLOAD ADD DUP1 DUP3 SSTORE DUP1 SWAP2 POP POP PUSH1 0x1 SWAP1 SUB SWAP1 PUSH1 0x0 MSTORE PUSH1 0x20 PUSH1 0x0 KECCAK256 SWAP1 PUSH1 0x2 MUL ADD PUSH1 0x0 SWAP1 SWAP2 SWAP1 SWAP2 SWAP1 SWAP2 POP PUSH1 0x0 DUP3 ADD MLOAD DUP2 PUSH1 0x0 ADD SWAP1 DUP1 MLOAD SWAP1 PUSH1 0x20 ADD SWAP1 PUSH2 0x5F4 SWAP3 SWAP2 SWAP1 PUSH2 0x2802 JUMP JUMPDEST POP PUSH1 0x20 DUP3 ADD MLOAD DUP2 PUSH1 0x1 ADD SWAP1 DUP1 MLOAD SWAP1 PUSH1 0x20 ADD SWAP1 PUSH2 0x611 SWAP3 SWAP2 SWAP1 PUSH2 0x2802 JUMP JUMPDEST POP POP POP POP POP POP JUMP JUMPDEST PUSH1 0x0 DUP1 CALLER PUSH20 0xFFFFFFFFFFFFFFFFFFFFFFFFFFFFFFFFFFFFFFFF AND PUSH20 0xFFFFFFFFFFFFFFFFFFFFFFFFFFFFFFFFFFFFFFFF AND DUP2 MSTORE PUSH1 0x20 ADD SWAP1 DUP2 MSTORE PUSH1 0x20 ADD PUSH1 0x0 KECCAK256 PUSH1 0xE ADD PUSH1 0x0 DUP1 DUP3 ADD PUSH1 0x0 PUSH2 0x66B SWAP2 SWAP1 PUSH2 0x2902 JUMP JUMPDEST PUSH1 0x1 DUP3 ADD PUSH1 0x0 PUSH2 0x67B SWAP2 SWAP1 PUSH2 0x2902 JUMP JUMPDEST PUSH1 0x2 DUP3 ADD PUSH1 0x0 PUSH2 0x68B SWAP2 SWAP1 PUSH2 0x2902 JUMP JUMPDEST POP POP DUP3 PUSH1 0x0 DUP1 CALLER PUSH20 0xFFFFFFFFFFFFFFFFFFFFFFFFFFFFFFFFFFFFFFFF AND PUSH20 0xFFFFFFFFFFFFFFFFFFFFFFFFFFFFFFFFFFFFFFFF AND DUP2 MSTORE PUSH1 0x20 ADD SWAP1 DUP2 MSTORE PUSH1 0x20 ADD PUSH1 0x0 KECCAK256 PUSH1 0xE ADD PUSH1 0x0 ADD SWAP1 DUP1 MLOAD SWAP1 PUSH1 0x20 ADD SWAP1 PUSH2 0x6E5 SWAP3 SWAP2 SWAP1 PUSH2 0x2888 JUMP JUMPDEST POP DUP2 PUSH1 0x0 DUP1 CALLER PUSH20 0xFFFFFFFFFFFFFFFFFFFFFFFFFFFFFFFFFFFFFFFF AND PUSH20 0xFFFFFFFFFFFFFFFFFFFFFFFFFFFFFFFFFFFFFFFF AND DUP2 MSTORE PUSH1 0x20 ADD SWAP1 DUP2 MSTORE PUSH1 0x20 ADD PUSH1 0x0 KECCAK256 PUSH1 0xE ADD PUSH1 0x1 ADD SWAP1 DUP1 MLOAD SWAP1 PUSH1 0x20 ADD SWAP1 PUSH2 0x73E SWAP3 SWAP2 SWAP1 PUSH2 0x2888 JUMP JUMPDEST POP DUP1 PUSH1 0x0 DUP1 CALLER PUSH20 0xFFFFFFFFFFFFFFFFFFFFFFFFFFFFFFFFFFFFFFFF AND PUSH20 0xFFFFFFFFFFFFFFFFFFFFFFFFFFFFFFFFFFFFFFFF AND DUP2 MSTORE PUSH1 0x20 ADD SWAP1 DUP2 MSTORE PUSH1 0x20 ADD PUSH1 0x0 KECCAK256 PUSH1 0xE ADD PUSH1 0x2 ADD SWAP1 DUP1 MLOAD SWAP1 PUSH1 0x20 ADD SWAP1 PUSH2 0x797 SWAP3 SWAP2 SWAP1 PUSH2 0x2888 JUMP JUMPDEST POP POP POP POP JUMP JUMPDEST PUSH1 0x0 DUP1 PUSH1 0x0 CALLER PUSH20 0xFFFFFFFFFFFFFFFFFFFFFFFFFFFFFFFFFFFFFFFF AND PUSH20 0xFFFFFFFFFFFFFFFFFFFFFFFFFFFFFFFFFFFFFFFF AND DUP2 MSTORE PUSH1 0x20 ADD SWAP1 DUP2 MSTORE PUSH1 0x20 ADD PUSH1 0x0 KECCAK256 PUSH1 0x15 ADD DUP1 SLOAD SWAP1 POP SWAP1 POP SWAP1 JUMP JUMPDEST PUSH1 0x60 DUP1 PUSH1 0x0 DUP1 CALLER PUSH20 0xFFFFFFFFFFFFFFFFFFFFFFFFFFFFFFFFFFFFFFFF AND PUSH20 0xFFFFFFFFFFFFFFFFFFFFFFFFFFFFFFFFFFFFFFFF AND DUP2 MSTORE PUSH1 0x20 ADD SWAP1 DUP2 MSTORE PUSH1 0x20 ADD PUSH1 0x0 KECCAK256 PUSH1 0x15 ADD DUP4 DUP2 SLOAD DUP2 LT PUSH2 0x83F JUMPI PUSH2 0x83E PUSH2 0x3814 JUMP JUMPDEST JUMPDEST SWAP1 PUSH1 0x0 MSTORE PUSH1 0x20 PUSH1 0x0 KECCAK256 SWAP1 PUSH1 0x2 MUL ADD PUSH1 0x0 ADD PUSH1 0x0 DUP1 CALLER PUSH20 0xFFFFFFFFFFFFFFFFFFFFFFFFFFFFFFFFFFFFFFFF AND PUSH20 0xFFFFFFFFFFFFFFFFFFFFFFFFFFFFFFFFFFFFFFFF AND DUP2 MSTORE PUSH1 0x20 ADD SWAP1 DUP2 MSTORE PUSH1 0x20 ADD PUSH1 0x0 KECCAK256 PUSH1 0x15 ADD DUP5 DUP2 SLOAD DUP2 LT PUSH2 0x8A3 JUMPI PUSH2 0x8A2 PUSH2 0x3814 JUMP JUMPDEST JUMPDEST SWAP1 PUSH1 0x0 MSTORE PUSH1 0x20 PUSH1 0x0 KECCAK256 SWAP1 PUSH1 0x2 MUL ADD PUSH1 0x1 ADD DUP2 DUP1 SLOAD PUSH2 0x8C0 SWAP1 PUSH2 0x3782 JUMP JUMPDEST DUP1 PUSH1 0x1F ADD PUSH1 0x20 DUP1 SWAP2 DIV MUL PUSH1 0x20 ADD PUSH1 0x40 MLOAD SWAP1 DUP2 ADD PUSH1 0x40 MSTORE DUP1 SWAP3 SWAP2 SWAP1 DUP2 DUP2 MSTORE PUSH1 0x20 ADD DUP3 DUP1 SLOAD PUSH2 0x8EC SWAP1 PUSH2 0x3782 JUMP JUMPDEST DUP1 ISZERO PUSH2 0x939 JUMPI DUP1 PUSH1 0x1F LT PUSH2 0x90E JUMPI PUSH2 0x100 DUP1 DUP4 SLOAD DIV MUL DUP4 MSTORE SWAP2 PUSH1 0x20 ADD SWAP2 PUSH2 0x939 JUMP JUMPDEST DUP3 ADD SWAP2 SWAP1 PUSH1 0x0 MSTORE PUSH1 0x20 PUSH1 0x0 KECCAK256 SWAP1 JUMPDEST DUP2 SLOAD DUP2 MSTORE SWAP1 PUSH1 0x1 ADD SWAP1 PUSH1 0x20 ADD DUP1 DUP4 GT PUSH2 0x91C JUMPI DUP3 SWAP1 SUB PUSH1 0x1F AND DUP3 ADD SWAP2 JUMPDEST POP POP POP POP POP SWAP2 POP DUP1 DUP1 SLOAD PUSH2 0x94C SWAP1 PUSH2 0x3782 JUMP JUMPDEST DUP1 PUSH1 0x1F ADD PUSH1 0x20 DUP1 SWAP2 DIV MUL PUSH1 0x20 ADD PUSH1 0x40 MLOAD SWAP1 DUP2 ADD PUSH1 0x40 MSTORE DUP1 SWAP3 SWAP2 SWAP1 DUP2 DUP2 MSTORE PUSH1 0x20 ADD DUP3 DUP1 SLOAD PUSH2 0x978 SWAP1 PUSH2 0x3782 JUMP JUMPDEST DUP1 ISZERO PUSH2 0x9C5 JUMPI DUP1 PUSH1 0x1F LT PUSH2 0x99A JUMPI PUSH2 0x100 DUP1 DUP4 SLOAD DIV MUL DUP4 MSTORE SWAP2 PUSH1 0x20 ADD SWAP2 PUSH2 0x9C5 JUMP JUMPDEST DUP3 ADD SWAP2 SWAP1 PUSH1 0x0 MSTORE PUSH1 0x20 PUSH1 0x0 KECCAK256 SWAP1 JUMPDEST DUP2 SLOAD DUP2 MSTORE SWAP1 PUSH1 0x1 ADD SWAP1 PUSH1 0x20 ADD DUP1 DUP4 GT PUSH2 0x9A8 JUMPI DUP3 SWAP1 SUB PUSH1 0x1F AND DUP3 ADD SWAP2 JUMPDEST POP POP POP POP POP SWAP1 POP SWAP2 POP SWAP2 POP SWAP2 POP SWAP2 JUMP JUMPDEST PUSH1 0x0 DUP1 CALLER PUSH20 0xFFFFFFFFFFFFFFFFFFFFFFFFFFFFFFFFFFFFFFFF AND PUSH20 0xFFFFFFFFFFFFFFFFFFFFFFFFFFFFFFFFFFFFFFFF AND DUP2 MSTORE PUSH1 0x20 ADD SWAP1 DUP2 MSTORE PUSH1 0x20 ADD PUSH1 0x0 KECCAK256 PUSH1 0x12 ADD PUSH1 0x0 DUP1 DUP3 ADD PUSH1 0x0 PUSH2 0xA27 SWAP2 SWAP1 PUSH2 0x2902 JUMP JUMPDEST PUSH1 0x1 DUP3 ADD PUSH1 0x0 PUSH2 0xA37 SWAP2 SWAP1 PUSH2 0x2902 JUMP JUMPDEST POP POP JUMP JUMPDEST PUSH1 0x0 DUP1 PUSH1 0x0 CALLER PUSH20 0xFFFFFFFFFFFFFFFFFFFFFFFFFFFFFFFFFFFFFFFF AND PUSH20 0xFFFFFFFFFFFFFFFFFFFFFFFFFFFFFFFFFFFFFFFF AND DUP2 MSTORE PUSH1 0x20 ADD SWAP1 DUP2 MSTORE PUSH1 0x20 ADD PUSH1 0x0 KECCAK256 PUSH1 0x11 ADD DUP1 SLOAD SWAP1 POP SWAP1 POP SWAP1 JUMP JUMPDEST DUP2 PUSH1 0x0 DUP1 CALLER PUSH20 0xFFFFFFFFFFFFFFFFFFFFFFFFFFFFFFFFFFFFFFFF AND PUSH20 0xFFFFFFFFFFFFFFFFFFFFFFFFFFFFFFFFFFFFFFFF AND DUP2 MSTORE PUSH1 0x20 ADD SWAP1 DUP2 MSTORE PUSH1 0x20 ADD PUSH1 0x0 KECCAK256 PUSH1 0x12 ADD PUSH1 0x1 ADD SWAP1 DUP1 MLOAD SWAP1 PUSH1 0x20 ADD SWAP1 PUSH2 0xADF SWAP3 SWAP2 SWAP1 PUSH2 0x2888 JUMP JUMPDEST POP DUP1 PUSH1 0x0 DUP1 CALLER PUSH20 0xFFFFFFFFFFFFFFFFFFFFFFFFFFFFFFFFFFFFFFFF AND PUSH20 0xFFFFFFFFFFFFFFFFFFFFFFFFFFFFFFFFFFFFFFFF AND DUP2 MSTORE PUSH1 0x20 ADD SWAP1 DUP2 MSTORE PUSH1 0x20 ADD PUSH1 0x0 KECCAK256 PUSH1 0x12 ADD PUSH1 0x0 ADD SWAP1 DUP1 MLOAD SWAP1 PUSH1 0x20 ADD SWAP1 PUSH2 0xB38 SWAP3 SWAP2 SWAP1 PUSH2 0x2888 JUMP JUMPDEST POP POP POP JUMP JUMPDEST PUSH1 0x0 DUP1 CALLER PUSH20 0xFFFFFFFFFFFFFFFFFFFFFFFFFFFFFFFFFFFFFFFF AND PUSH20 0xFFFFFFFFFFFFFFFFFFFFFFFFFFFFFFFFFFFFFFFF AND DUP2 MSTORE PUSH1 0x20 ADD SWAP1 DUP2 MSTORE PUSH1 0x20 ADD PUSH1 0x0 KECCAK256 PUSH1 0x8 ADD PUSH1 0x0 DUP1 DUP3 ADD PUSH1 0x0 PUSH2 0xB8F SWAP2 SWAP1 PUSH2 0x2923 JUMP JUMPDEST PUSH1 0x1 DUP3 ADD PUSH1 0x0 PUSH2 0xB9F SWAP2 SWAP1 PUSH2 0x2923 JUMP JUMPDEST PUSH1 0x2 DUP3 ADD PUSH1 0x0 PUSH2 0xBAF SWAP2 SWAP1 PUSH2 0x2923 JUMP JUMPDEST PUSH1 0x3 DUP3 ADD PUSH1 0x0 PUSH2 0xBBF SWAP2 SWAP1 PUSH2 0x2923 JUMP JUMPDEST PUSH1 0x4 DUP3 ADD PUSH1 0x0 PUSH2 0xBCF SWAP2 SWAP1 PUSH2 0x2923 JUMP JUMPDEST PUSH1 0x5 DUP3 ADD PUSH1 0x0 PUSH2 0xBDF SWAP2 SWAP1 PUSH2 0x2923 JUMP JUMPDEST POP POP DUP5 PUSH1 0x0 DUP1 CALLER PUSH20 0xFFFFFFFFFFFFFFFFFFFFFFFFFFFFFFFFFFFFFFFF AND PUSH20 0xFFFFFFFFFFFFFFFFFFFFFFFFFFFFFFFFFFFFFFFF AND DUP2 MSTORE PUSH1 0x20 ADD SWAP1 DUP2 MSTORE PUSH1 0x20 ADD PUSH1 0x0 KECCAK256 PUSH1 0x8 ADD PUSH1 0x1 ADD SWAP1 DUP1 MLOAD SWAP1 PUSH1 0x20 ADD SWAP1 PUSH2 0xC39 SWAP3 SWAP2 SWAP1 PUSH2 0x2802 JUMP JUMPDEST POP DUP4 PUSH1 0x0 DUP1 CALLER PUSH20 0xFFFFFFFFFFFFFFFFFFFFFFFFFFFFFFFFFFFFFFFF AND PUSH20 0xFFFFFFFFFFFFFFFFFFFFFFFFFFFFFFFFFFFFFFFF AND DUP2 MSTORE PUSH1 0x20 ADD SWAP1 DUP2 MSTORE PUSH1 0x20 ADD PUSH1 0x0 KECCAK256 PUSH1 0x8 ADD PUSH1 0x2 ADD SWAP1 DUP1 MLOAD SWAP1 PUSH1 0x20 ADD SWAP1 PUSH2 0xC92 SWAP3 SWAP2 SWAP1 PUSH2 0x2802 JUMP JUMPDEST POP DUP3 PUSH1 0x0 DUP1 CALLER PUSH20 0xFFFFFFFFFFFFFFFFFFFFFFFFFFFFFFFFFFFFFFFF AND PUSH20 0xFFFFFFFFFFFFFFFFFFFFFFFFFFFFFFFFFFFFFFFF AND DUP2 MSTORE PUSH1 0x20 ADD SWAP1 DUP2 MSTORE PUSH1 0x20 ADD PUSH1 0x0 KECCAK256 PUSH1 0x8 ADD PUSH1 0x3 ADD SWAP1 DUP1 MLOAD SWAP1 PUSH1 0x20 ADD SWAP1 PUSH2 0xCEB SWAP3 SWAP2 SWAP1 PUSH2 0x2802 JUMP JUMPDEST POP DUP2 PUSH1 0x0 DUP1 CALLER PUSH20 0xFFFFFFFFFFFFFFFFFFFFFFFFFFFFFFFFFFFFFFFF AND PUSH20 0xFFFFFFFFFFFFFFFFFFFFFFFFFFFFFFFFFFFFFFFF AND DUP2 MSTORE PUSH1 0x20 ADD SWAP1 DUP2 MSTORE PUSH1 0x20 ADD PUSH1 0x0 KECCAK256 PUSH1 0x8 ADD PUSH1 0x4 ADD SWAP1 DUP1 MLOAD SWAP1 PUSH1 0x20 ADD SWAP1 PUSH2 0xD44 SWAP3 SWAP2 SWAP1 PUSH2 0x2802 JUMP JUMPDEST POP DUP1 PUSH1 0x0 DUP1 CALLER PUSH20 0xFFFFFFFFFFFFFFFFFFFFFFFFFFFFFFFFFFFFFFFF AND PUSH20 0xFFFFFFFFFFFFFFFFFFFFFFFFFFFFFFFFFFFFFFFF AND DUP2 MSTORE PUSH1 0x20 ADD SWAP1 DUP2 MSTORE PUSH1 0x20 ADD PUSH1 0x0 KECCAK256 PUSH1 0x8 ADD PUSH1 0x5 ADD SWAP1 DUP1 MLOAD SWAP1 PUSH1 0x20 ADD SWAP1 PUSH2 0xD9D SWAP3 SWAP2 SWAP1 PUSH2 0x2802 JUMP JUMPDEST POP POP POP POP POP POP JUMP JUMPDEST DUP6 PUSH1 0x0 DUP1 CALLER PUSH20 0xFFFFFFFFFFFFFFFFFFFFFFFFFFFFFFFFFFFFFFFF AND PUSH20 0xFFFFFFFFFFFFFFFFFFFFFFFFFFFFFFFFFFFFFFFF AND DUP2 MSTORE PUSH1 0x20 ADD SWAP1 DUP2 MSTORE PUSH1 0x20 ADD PUSH1 0x0 KECCAK256 PUSH1 0x0 ADD PUSH1 0x3 ADD SWAP1 DUP1 MLOAD SWAP1 PUSH1 0x20 ADD SWAP1 PUSH2 0xDFD SWAP3 SWAP2 SWAP1 PUSH2 0x2802 JUMP JUMPDEST POP DUP5 PUSH1 0x0 DUP1 CALLER PUSH20 0xFFFFFFFFFFFFFFFFFFFFFFFFFFFFFFFFFFFFFFFF AND PUSH20 0xFFFFFFFFFFFFFFFFFFFFFFFFFFFFFFFFFFFFFFFF AND DUP2 MSTORE PUSH1 0x20 ADD SWAP1 DUP2 MSTORE PUSH1 0x20 ADD PUSH1 0x0 KECCAK256 PUSH1 0x0 ADD PUSH1 0x4 ADD SWAP1 DUP1 MLOAD SWAP1 PUSH1 0x20 ADD SWAP1 PUSH2 0xE56 SWAP3 SWAP2 SWAP1 PUSH2 0x2802 JUMP JUMPDEST POP DUP4 PUSH1 0x0 DUP1 CALLER PUSH20 0xFFFFFFFFFFFFFFFFFFFFFFFFFFFFFFFFFFFFFFFF AND PUSH20 0xFFFFFFFFFFFFFFFFFFFFFFFFFFFFFFFFFFFFFFFF AND DUP2 MSTORE PUSH1 0x20 ADD SWAP1 DUP2 MSTORE PUSH1 0x20 ADD PUSH1 0x0 KECCAK256 PUSH1 0x0 ADD PUSH1 0x5 ADD SWAP1 DUP1 MLOAD SWAP1 PUSH1 0x20 ADD SWAP1 PUSH2 0xEAF SWAP3 SWAP2 SWAP1 PUSH2 0x2802 JUMP JUMPDEST POP DUP3 PUSH1 0x0 DUP1 CALLER PUSH20 0xFFFFFFFFFFFFFFFFFFFFFFFFFFFFFFFFFFFFFFFF AND PUSH20 0xFFFFFFFFFFFFFFFFFFFFFFFFFFFFFFFFFFFFFFFF AND DUP2 MSTORE PUSH1 0x20 ADD SWAP1 DUP2 MSTORE PUSH1 0x20 ADD PUSH1 0x0 KECCAK256 PUSH1 0x0 ADD PUSH1 0x6 ADD SWAP1 DUP1 MLOAD SWAP1 PUSH1 0x20 ADD SWAP1 PUSH2 0xF08 SWAP3 SWAP2 SWAP1 PUSH2 0x2802 JUMP JUMPDEST POP DUP2 PUSH1 0x0 DUP1 CALLER PUSH20 0xFFFFFFFFFFFFFFFFFFFFFFFFFFFFFFFFFFFFFFFF AND PUSH20 0xFFFFFFFFFFFFFFFFFFFFFFFFFFFFFFFFFFFFFFFF AND DUP2 MSTORE PUSH1 0x20 ADD SWAP1 DUP2 MSTORE PUSH1 0x20 ADD PUSH1 0x0 KECCAK256 PUSH1 0x0 ADD PUSH1 0x0 ADD SWAP1 DUP1 MLOAD SWAP1 PUSH1 0x20 ADD SWAP1 PUSH2 0xF61 SWAP3 SWAP2 SWAP1 PUSH2 0x2802 JUMP JUMPDEST POP DUP1 PUSH1 0x0 DUP1 CALLER PUSH20 0xFFFFFFFFFFFFFFFFFFFFFFFFFFFFFFFFFFFFFFFF AND PUSH20 0xFFFFFFFFFFFFFFFFFFFFFFFFFFFFFFFFFFFFFFFF AND DUP2 MSTORE PUSH1 0x20 ADD SWAP1 DUP2 MSTORE PUSH1 0x20 ADD PUSH1 0x0 KECCAK256 PUSH1 0x0 ADD PUSH1 0x1 ADD SWAP1 DUP1 MLOAD SWAP1 PUSH1 0x20 ADD SWAP1 PUSH2 0xFBA SWAP3 SWAP2 SWAP1 PUSH2 0x2802 JUMP JUMPDEST POP CALLER PUSH1 0x0 DUP1 CALLER PUSH20 0xFFFFFFFFFFFFFFFFFFFFFFFFFFFFFFFFFFFFFFFF AND PUSH20 0xFFFFFFFFFFFFFFFFFFFFFFFFFFFFFFFFFFFFFFFF AND DUP2 MSTORE PUSH1 0x20 ADD SWAP1 DUP2 MSTORE PUSH1 0x20 ADD PUSH1 0x0 KECCAK256 PUSH1 0x0 ADD PUSH1 0x2 ADD PUSH1 0x0 PUSH2 0x100 EXP DUP2 SLOAD DUP2 PUSH20 0xFFFFFFFFFFFFFFFFFFFFFFFFFFFFFFFFFFFFFFFF MUL NOT AND SWAP1 DUP4 PUSH20 0xFFFFFFFFFFFFFFFFFFFFFFFFFFFFFFFFFFFFFFFF AND MUL OR SWAP1 SSTORE POP TIMESTAMP PUSH1 0x0 DUP1 CALLER PUSH20 0xFFFFFFFFFFFFFFFFFFFFFFFFFFFFFFFFFFFFFFFF AND PUSH20 0xFFFFFFFFFFFFFFFFFFFFFFFFFFFFFFFFFFFFFFFF AND DUP2 MSTORE PUSH1 0x20 ADD SWAP1 DUP2 MSTORE PUSH1 0x20 ADD PUSH1 0x0 KECCAK256 PUSH1 0x0 ADD PUSH1 0x7 ADD DUP2 SWAP1 SSTORE POP POP POP POP POP POP POP JUMP JUMPDEST PUSH1 0x0 DUP1 CALLER PUSH20 0xFFFFFFFFFFFFFFFFFFFFFFFFFFFFFFFFFFFFFFFF AND PUSH20 0xFFFFFFFFFFFFFFFFFFFFFFFFFFFFFFFFFFFFFFFF AND DUP2 MSTORE PUSH1 0x20 ADD SWAP1 DUP2 MSTORE PUSH1 0x20 ADD PUSH1 0x0 KECCAK256 PUSH1 0x0 ADD PUSH1 0x0 DUP1 DUP3 ADD PUSH1 0x0 PUSH2 0x10E1 SWAP2 SWAP1 PUSH2 0x2923 JUMP JUMPDEST PUSH1 0x1 DUP3 ADD PUSH1 0x0 PUSH2 0x10F1 SWAP2 SWAP1 PUSH2 0x2923 JUMP JUMPDEST PUSH1 0x2 DUP3 ADD PUSH1 0x0 PUSH2 0x100 EXP DUP2 SLOAD SWAP1 PUSH20 0xFFFFFFFFFFFFFFFFFFFFFFFFFFFFFFFFFFFFFFFF MUL NOT AND SWAP1 SSTORE PUSH1 0x3 DUP3 ADD PUSH1 0x0 PUSH2 0x1128 SWAP2 SWAP1 PUSH2 0x2923 JUMP JUMPDEST PUSH1 0x4 DUP3 ADD PUSH1 0x0 PUSH2 0x1138 SWAP2 SWAP1 PUSH2 0x2923 JUMP JUMPDEST PUSH1 0x5 DUP3 ADD PUSH1 0x0 PUSH2 0x1148 SWAP2 SWAP1 PUSH2 0x2923 JUMP JUMPDEST PUSH1 0x6 DUP3 ADD PUSH1 0x0 PUSH2 0x1158 SWAP2 SWAP1 PUSH2 0x2923 JUMP JUMPDEST PUSH1 0x7 DUP3 ADD PUSH1 0x0 SWAP1 SSTORE POP POP JUMP JUMPDEST PUSH1 0x0 PUSH1 0x20 MSTORE DUP1 PUSH1 0x0 MSTORE PUSH1 0x40 PUSH1 0x0 KECCAK256 PUSH1 0x0 SWAP2 POP SWAP1 POP DUP1 PUSH1 0x0 ADD PUSH1 0x40 MLOAD DUP1 PUSH2 0x100 ADD PUSH1 0x40 MSTORE SWAP1 DUP2 PUSH1 0x0 DUP3 ADD DUP1 SLOAD PUSH2 0x1198 SWAP1 PUSH2 0x3782 JUMP JUMPDEST DUP1 PUSH1 0x1F ADD PUSH1 0x20 DUP1 SWAP2 DIV MUL PUSH1 0x20 ADD PUSH1 0x40 MLOAD SWAP1 DUP2 ADD PUSH1 0x40 MSTORE DUP1 SWAP3 SWAP2 SWAP1 DUP2 DUP2 MSTORE PUSH1 0x20 ADD DUP3 DUP1 SLOAD PUSH2 0x11C4 SWAP1 PUSH2 0x3782 JUMP JUMPDEST DUP1 ISZERO PUSH2 0x1211 JUMPI DUP1 PUSH1 0x1F LT PUSH2 0x11E6 JUMPI PUSH2 0x100 DUP1 DUP4 SLOAD DIV MUL DUP4 MSTORE SWAP2 PUSH1 0x20 ADD SWAP2 PUSH2 0x1211 JUMP JUMPDEST DUP3 ADD SWAP2 SWAP1 PUSH1 0x0 MSTORE PUSH1 0x20 PUSH1 0x0 KECCAK256 SWAP1 JUMPDEST DUP2 SLOAD DUP2 MSTORE SWAP1 PUSH1 0x1 ADD SWAP1 PUSH1 0x20 ADD DUP1 DUP4 GT PUSH2 0x11F4 JUMPI DUP3 SWAP1 SUB PUSH1 0x1F AND DUP3 ADD SWAP2 JUMPDEST POP POP POP POP POP DUP2 MSTORE PUSH1 0x20 ADD PUSH1 0x1 DUP3 ADD DUP1 SLOAD PUSH2 0x122A SWAP1 PUSH2 0x3782 JUMP JUMPDEST DUP1 PUSH1 0x1F ADD PUSH1 0x20 DUP1 SWAP2 DIV MUL PUSH1 0x20 ADD PUSH1 0x40 MLOAD SWAP1 DUP2 ADD PUSH1 0x40 MSTORE DUP1 SWAP3 SWAP2 SWAP1 DUP2 DUP2 MSTORE PUSH1 0x20 ADD DUP3 DUP1 SLOAD PUSH2 0x1256 SWAP1 PUSH2 0x3782 JUMP JUMPDEST DUP1 ISZERO PUSH2 0x12A3 JUMPI DUP1 PUSH1 0x1F LT PUSH2 0x1278 JUMPI PUSH2 0x100 DUP1 DUP4 SLOAD DIV MUL DUP4 MSTORE SWAP2 PUSH1 0x20 ADD SWAP2 PUSH2 0x12A3 JUMP JUMPDEST DUP3 ADD SWAP2 SWAP1 PUSH1 0x0 MSTORE PUSH1 0x20 PUSH1 0x0 KECCAK256 SWAP1 JUMPDEST DUP2 SLOAD DUP2 MSTORE SWAP1 PUSH1 0x1 ADD SWAP1 PUSH1 0x20 ADD DUP1 DUP4 GT PUSH2 0x1286 JUMPI DUP3 SWAP1 SUB PUSH1 0x1F AND DUP3 ADD SWAP2 JUMPDEST POP POP POP POP POP DUP2 MSTORE PUSH1 0x20 ADD PUSH1 0x2 DUP3 ADD PUSH1 0x0 SWAP1 SLOAD SWAP1 PUSH2 0x100 EXP SWAP1 DIV PUSH20 0xFFFFFFFFFFFFFFFFFFFFFFFFFFFFFFFFFFFFFFFF AND PUSH20 0xFFFFFFFFFFFFFFFFFFFFFFFFFFFFFFFFFFFFFFFF AND PUSH20 0xFFFFFFFFFFFFFFFFFFFFFFFFFFFFFFFFFFFFFFFF AND DUP2 MSTORE PUSH1 0x20 ADD PUSH1 0x3 DUP3 ADD DUP1 SLOAD PUSH2 0x1312 SWAP1 PUSH2 0x3782 JUMP JUMPDEST DUP1 PUSH1 0x1F ADD PUSH1 0x20 DUP1 SWAP2 DIV MUL PUSH1 0x20 ADD PUSH1 0x40 MLOAD SWAP1 DUP2 ADD PUSH1 0x40 MSTORE DUP1 SWAP3 SWAP2 SWAP1 DUP2 DUP2 MSTORE PUSH1 0x20 ADD DUP3 DUP1 SLOAD PUSH2 0x133E SWAP1 PUSH2 0x3782 JUMP JUMPDEST DUP1 ISZERO PUSH2 0x138B JUMPI DUP1 PUSH1 0x1F LT PUSH2 0x1360 JUMPI PUSH2 0x100 DUP1 DUP4 SLOAD DIV MUL DUP4 MSTORE SWAP2 PUSH1 0x20 ADD SWAP2 PUSH2 0x138B JUMP JUMPDEST DUP3 ADD SWAP2 SWAP1 PUSH1 0x0 MSTORE PUSH1 0x20 PUSH1 0x0 KECCAK256 SWAP1 JUMPDEST DUP2 SLOAD DUP2 MSTORE SWAP1 PUSH1 0x1 ADD SWAP1 PUSH1 0x20 ADD DUP1 DUP4 GT PUSH2 0x136E JUMPI DUP3 SWAP1 SUB PUSH1 0x1F AND DUP3 ADD SWAP2 JUMPDEST POP POP POP POP POP DUP2 MSTORE PUSH1 0x20 ADD PUSH1 0x4 DUP3 ADD DUP1 SLOAD PUSH2 0x13A4 SWAP1 PUSH2 0x3782 JUMP JUMPDEST DUP1 PUSH1 0x1F ADD PUSH1 0x20 DUP1 SWAP2 DIV MUL PUSH1 0x20 ADD PUSH1 0x40 MLOAD SWAP1 DUP2 ADD PUSH1 0x40 MSTORE DUP1 SWAP3 SWAP2 SWAP1 DUP2 DUP2 MSTORE PUSH1 0x20 ADD DUP3 DUP1 SLOAD PUSH2 0x13D0 SWAP1 PUSH2 0x3782 JUMP JUMPDEST DUP1 ISZERO PUSH2 0x141D JUMPI DUP1 PUSH1 0x1F LT PUSH2 0x13F2 JUMPI PUSH2 0x100 DUP1 DUP4 SLOAD DIV MUL DUP4 MSTORE SWAP2 PUSH1 0x20 ADD SWAP2 PUSH2 0x141D JUMP JUMPDEST DUP3 ADD SWAP2 SWAP1 PUSH1 0x0 MSTORE PUSH1 0x20 PUSH1 0x0 KECCAK256 SWAP1 JUMPDEST DUP2 SLOAD DUP2 MSTORE SWAP1 PUSH1 0x1 ADD SWAP1 PUSH1 0x20 ADD DUP1 DUP4 GT PUSH2 0x1400 JUMPI DUP3 SWAP1 SUB PUSH1 0x1F AND DUP3 ADD SWAP2 JUMPDEST POP POP POP POP POP DUP2 MSTORE PUSH1 0x20 ADD PUSH1 0x5 DUP3 ADD DUP1 SLOAD PUSH2 0x1436 SWAP1 PUSH2 0x3782 JUMP JUMPDEST DUP1 PUSH1 0x1F ADD PUSH1 0x20 DUP1 SWAP2 DIV MUL PUSH1 0x20 ADD PUSH1 0x40 MLOAD SWAP1 DUP2 ADD PUSH1 0x40 MSTORE DUP1 SWAP3 SWAP2 SWAP1 DUP2 DUP2 MSTORE PUSH1 0x20 ADD DUP3 DUP1 SLOAD PUSH2 0x1462 SWAP1 PUSH2 0x3782 JUMP JUMPDEST DUP1 ISZERO PUSH2 0x14AF JUMPI DUP1 PUSH1 0x1F LT PUSH2 0x1484 JUMPI PUSH2 0x100 DUP1 DUP4 SLOAD DIV MUL DUP4 MSTORE SWAP2 PUSH1 0x20 ADD SWAP2 PUSH2 0x14AF JUMP JUMPDEST DUP3 ADD SWAP2 SWAP1 PUSH1 0x0 MSTORE PUSH1 0x20 PUSH1 0x0 KECCAK256 SWAP1 JUMPDEST DUP2 SLOAD DUP2 MSTORE SWAP1 PUSH1 0x1 ADD SWAP1 PUSH1 0x20 ADD DUP1 DUP4 GT PUSH2 0x1492 JUMPI DUP3 SWAP1 SUB PUSH1 0x1F AND DUP3 ADD SWAP2 JUMPDEST POP POP POP POP POP DUP2 MSTORE PUSH1 0x20 ADD PUSH1 0x6 DUP3 ADD DUP1 SLOAD PUSH2 0x14C8 SWAP1 PUSH2 0x3782 JUMP JUMPDEST DUP1 PUSH1 0x1F ADD PUSH1 0x20 DUP1 SWAP2 DIV MUL PUSH1 0x20 ADD PUSH1 0x40 MLOAD SWAP1 DUP2 ADD PUSH1 0x40 MSTORE DUP1 SWAP3 SWAP2 SWAP1 DUP2 DUP2 MSTORE PUSH1 0x20 ADD DUP3 DUP1 SLOAD PUSH2 0x14F4 SWAP1 PUSH2 0x3782 JUMP JUMPDEST DUP1 ISZERO PUSH2 0x1541 JUMPI DUP1 PUSH1 0x1F LT PUSH2 0x1516 JUMPI PUSH2 0x100 DUP1 DUP4 SLOAD DIV MUL DUP4 MSTORE SWAP2 PUSH1 0x20 ADD SWAP2 PUSH2 0x1541 JUMP JUMPDEST DUP3 ADD SWAP2 SWAP1 PUSH1 0x0 MSTORE PUSH1 0x20 PUSH1 0x0 KECCAK256 SWAP1 JUMPDEST DUP2 SLOAD DUP2 MSTORE SWAP1 PUSH1 0x1 ADD SWAP1 PUSH1 0x20 ADD DUP1 DUP4 GT PUSH2 0x1524 JUMPI DUP3 SWAP1 SUB PUSH1 0x1F AND DUP3 ADD SWAP2 JUMPDEST POP POP POP POP POP DUP2 MSTORE PUSH1 0x20 ADD PUSH1 0x7 DUP3 ADD SLOAD DUP2 MSTORE POP POP SWAP1 DUP1 PUSH1 0x8 ADD PUSH1 0x40 MLOAD DUP1 PUSH1 0xC0 ADD PUSH1 0x40 MSTORE SWAP1 DUP2 PUSH1 0x0 DUP3 ADD DUP1 SLOAD PUSH2 0x1574 SWAP1 PUSH2 0x3782 JUMP JUMPDEST DUP1 PUSH1 0x1F ADD PUSH1 0x20 DUP1 SWAP2 DIV MUL PUSH1 0x20 ADD PUSH1 0x40 MLOAD SWAP1 DUP2 ADD PUSH1 0x40 MSTORE DUP1 SWAP3 SWAP2 SWAP1 DUP2 DUP2 MSTORE PUSH1 0x20 ADD DUP3 DUP1 SLOAD PUSH2 0x15A0 SWAP1 PUSH2 0x3782 JUMP JUMPDEST DUP1 ISZERO PUSH2 0x15ED JUMPI DUP1 PUSH1 0x1F LT PUSH2 0x15C2 JUMPI PUSH2 0x100 DUP1 DUP4 SLOAD DIV MUL DUP4 MSTORE SWAP2 PUSH1 0x20 ADD SWAP2 PUSH2 0x15ED JUMP JUMPDEST DUP3 ADD SWAP2 SWAP1 PUSH1 0x0 MSTORE PUSH1 0x20 PUSH1 0x0 KECCAK256 SWAP1 JUMPDEST DUP2 SLOAD DUP2 MSTORE SWAP1 PUSH1 0x1 ADD SWAP1 PUSH1 0x20 ADD DUP1 DUP4 GT PUSH2 0x15D0 JUMPI DUP3 SWAP1 SUB PUSH1 0x1F AND DUP3 ADD SWAP2 JUMPDEST POP POP POP POP POP DUP2 MSTORE PUSH1 0x20 ADD PUSH1 0x1 DUP3 ADD DUP1 SLOAD PUSH2 0x1606 SWAP1 PUSH2 0x3782 JUMP JUMPDEST DUP1 PUSH1 0x1F ADD PUSH1 0x20 DUP1 SWAP2 DIV MUL PUSH1 0x20 ADD PUSH1 0x40 MLOAD SWAP1 DUP2 ADD PUSH1 0x40 MSTORE DUP1 SWAP3 SWAP2 SWAP1 DUP2 DUP2 MSTORE PUSH1 0x20 ADD DUP3 DUP1 SLOAD PUSH2 0x1632 SWAP1 PUSH2 0x3782 JUMP JUMPDEST DUP1 ISZERO PUSH2 0x167F JUMPI DUP1 PUSH1 0x1F LT PUSH2 0x1654 JUMPI PUSH2 0x100 DUP1 DUP4 SLOAD DIV MUL DUP4 MSTORE SWAP2 PUSH1 0x20 ADD SWAP2 PUSH2 0x167F JUMP JUMPDEST DUP3 ADD SWAP2 SWAP1 PUSH1 0x0 MSTORE PUSH1 0x20 PUSH1 0x0 KECCAK256 SWAP1 JUMPDEST DUP2 SLOAD DUP2 MSTORE SWAP1 PUSH1 0x1 ADD SWAP1 PUSH1 0x20 ADD DUP1 DUP4 GT PUSH2 0x1662 JUMPI DUP3 SWAP1 SUB PUSH1 0x1F AND DUP3 ADD SWAP2 JUMPDEST POP POP POP POP POP DUP2 MSTORE PUSH1 0x20 ADD PUSH1 0x2 DUP3 ADD DUP1 SLOAD PUSH2 0x1698 SWAP1 PUSH2 0x3782 JUMP JUMPDEST DUP1 PUSH1 0x1F ADD PUSH1 0x20 DUP1 SWAP2 DIV MUL PUSH1 0x20 ADD PUSH1 0x40 MLOAD SWAP1 DUP2 ADD PUSH1 0x40 MSTORE DUP1 SWAP3 SWAP2 SWAP1 DUP2 DUP2 MSTORE PUSH1 0x20 ADD DUP3 DUP1 SLOAD PUSH2 0x16C4 SWAP1 PUSH2 0x3782 JUMP JUMPDEST DUP1 ISZERO PUSH2 0x1711 JUMPI DUP1 PUSH1 0x1F LT PUSH2 0x16E6 JUMPI PUSH2 0x100 DUP1 DUP4 SLOAD DIV MUL DUP4 MSTORE SWAP2 PUSH1 0x20 ADD SWAP2 PUSH2 0x1711 JUMP JUMPDEST DUP3 ADD SWAP2 SWAP1 PUSH1 0x0 MSTORE PUSH1 0x20 PUSH1 0x0 KECCAK256 SWAP1 JUMPDEST DUP2 SLOAD DUP2 MSTORE SWAP1 PUSH1 0x1 ADD SWAP1 PUSH1 0x20 ADD DUP1 DUP4 GT PUSH2 0x16F4 JUMPI DUP3 SWAP1 SUB PUSH1 0x1F AND DUP3 ADD SWAP2 JUMPDEST POP POP POP POP POP DUP2 MSTORE PUSH1 0x20 ADD PUSH1 0x3 DUP3 ADD DUP1 SLOAD PUSH2 0x172A SWAP1 PUSH2 0x3782 JUMP JUMPDEST DUP1 PUSH1 0x1F ADD PUSH1 0x20 DUP1 SWAP2 DIV MUL PUSH1 0x20 ADD PUSH1 0x40 MLOAD SWAP1 DUP2 ADD PUSH1 0x40 MSTORE DUP1 SWAP3 SWAP2 SWAP1 DUP2 DUP2 MSTORE PUSH1 0x20 ADD DUP3 DUP1 SLOAD PUSH2 0x1756 SWAP1 PUSH2 0x3782 JUMP JUMPDEST DUP1 ISZERO PUSH2 0x17A3 JUMPI DUP1 PUSH1 0x1F LT PUSH2 0x1778 JUMPI PUSH2 0x100 DUP1 DUP4 SLOAD DIV MUL DUP4 MSTORE SWAP2 PUSH1 0x20 ADD SWAP2 PUSH2 0x17A3 JUMP JUMPDEST DUP3 ADD SWAP2 SWAP1 PUSH1 0x0 MSTORE PUSH1 0x20 PUSH1 0x0 KECCAK256 SWAP1 JUMPDEST DUP2 SLOAD DUP2 MSTORE SWAP1 PUSH1 0x1 ADD SWAP1 PUSH1 0x20 ADD DUP1 DUP4 GT PUSH2 0x1786 JUMPI DUP3 SWAP1 SUB PUSH1 0x1F AND DUP3 ADD SWAP2 JUMPDEST POP POP POP POP POP DUP2 MSTORE PUSH1 0x20 ADD PUSH1 0x4 DUP3 ADD DUP1 SLOAD PUSH2 0x17BC SWAP1 PUSH2 0x3782 JUMP JUMPDEST DUP1 PUSH1 0x1F ADD PUSH1 0x20 DUP1 SWAP2 DIV MUL PUSH1 0x20 ADD PUSH1 0x40 MLOAD SWAP1 DUP2 ADD PUSH1 0x40 MSTORE DUP1 SWAP3 SWAP2 SWAP1 DUP2 DUP2 MSTORE PUSH1 0x20 ADD DUP3 DUP1 SLOAD PUSH2 0x17E8 SWAP1 PUSH2 0x3782 JUMP JUMPDEST DUP1 ISZERO PUSH2 0x1835 JUMPI DUP1 PUSH1 0x1F LT PUSH2 0x180A JUMPI PUSH2 0x100 DUP1 DUP4 SLOAD DIV MUL DUP4 MSTORE SWAP2 PUSH1 0x20 ADD SWAP2 PUSH2 0x1835 JUMP JUMPDEST DUP3 ADD SWAP2 SWAP1 PUSH1 0x0 MSTORE PUSH1 0x20 PUSH1 0x0 KECCAK256 SWAP1 JUMPDEST DUP2 SLOAD DUP2 MSTORE SWAP1 PUSH1 0x1 ADD SWAP1 PUSH1 0x20 ADD DUP1 DUP4 GT PUSH2 0x1818 JUMPI DUP3 SWAP1 SUB PUSH1 0x1F AND DUP3 ADD SWAP2 JUMPDEST POP POP POP POP POP DUP2 MSTORE PUSH1 0x20 ADD PUSH1 0x5 DUP3 ADD DUP1 SLOAD PUSH2 0x184E SWAP1 PUSH2 0x3782 JUMP JUMPDEST DUP1 PUSH1 0x1F ADD PUSH1 0x20 DUP1 SWAP2 DIV MUL PUSH1 0x20 ADD PUSH1 0x40 MLOAD SWAP1 DUP2 ADD PUSH1 0x40 MSTORE DUP1 SWAP3 SWAP2 SWAP1 DUP2 DUP2 MSTORE PUSH1 0x20 ADD DUP3 DUP1 SLOAD PUSH2 0x187A SWAP1 PUSH2 0x3782 JUMP JUMPDEST DUP1 ISZERO PUSH2 0x18C7 JUMPI DUP1 PUSH1 0x1F LT PUSH2 0x189C JUMPI PUSH2 0x100 DUP1 DUP4 SLOAD DIV MUL DUP4 MSTORE SWAP2 PUSH1 0x20 ADD SWAP2 PUSH2 0x18C7 JUMP JUMPDEST DUP3 ADD SWAP2 SWAP1 PUSH1 0x0 MSTORE PUSH1 0x20 PUSH1 0x0 KECCAK256 SWAP1 JUMPDEST DUP2 SLOAD DUP2 MSTORE SWAP1 PUSH1 0x1 ADD SWAP1 PUSH1 0x20 ADD DUP1 DUP4 GT PUSH2 0x18AA JUMPI DUP3 SWAP1 SUB PUSH1 0x1F AND DUP3 ADD SWAP2 JUMPDEST POP POP POP POP POP DUP2 MSTORE POP POP SWAP1 DUP1 PUSH1 0xE ADD PUSH1 0x40 MLOAD DUP1 PUSH1 0x60 ADD PUSH1 0x40 MSTORE SWAP1 DUP2 PUSH1 0x0 DUP3 ADD DUP1 SLOAD DUP1 PUSH1 0x20 MUL PUSH1 0x20 ADD PUSH1 0x40 MLOAD SWAP1 DUP2 ADD PUSH1 0x40 MSTORE DUP1 SWAP3 SWAP2 SWAP1 DUP2 DUP2 MSTORE PUSH1 0x20 ADD PUSH1 0x0 SWAP1 JUMPDEST DUP3 DUP3 LT ISZERO PUSH2 0x19B1 JUMPI DUP4 DUP3 SWAP1 PUSH1 0x0 MSTORE PUSH1 0x20 PUSH1 0x0 KECCAK256 ADD DUP1 SLOAD PUSH2 0x1924 SWAP1 PUSH2 0x3782 JUMP JUMPDEST DUP1 PUSH1 0x1F ADD PUSH1 0x20 DUP1 SWAP2 DIV MUL PUSH1 0x20 ADD PUSH1 0x40 MLOAD SWAP1 DUP2 ADD PUSH1 0x40 MSTORE DUP1 SWAP3 SWAP2 SWAP1 DUP2 DUP2 MSTORE PUSH1 0x20 ADD DUP3 DUP1 SLOAD PUSH2 0x1950 SWAP1 PUSH2 0x3782 JUMP JUMPDEST DUP1 ISZERO PUSH2 0x199D JUMPI DUP1 PUSH1 0x1F LT PUSH2 0x1972 JUMPI PUSH2 0x100 DUP1 DUP4 SLOAD DIV MUL DUP4 MSTORE SWAP2 PUSH1 0x20 ADD SWAP2 PUSH2 0x199D JUMP JUMPDEST DUP3 ADD SWAP2 SWAP1 PUSH1 0x0 MSTORE PUSH1 0x20 PUSH1 0x0 KECCAK256 SWAP1 JUMPDEST DUP2 SLOAD DUP2 MSTORE SWAP1 PUSH1 0x1 ADD SWAP1 PUSH1 0x20 ADD DUP1 DUP4 GT PUSH2 0x1980 JUMPI DUP3 SWAP1 SUB PUSH1 0x1F AND DUP3 ADD SWAP2 JUMPDEST POP POP POP POP POP DUP2 MSTORE PUSH1 0x20 ADD SWAP1 PUSH1 0x1 ADD SWAP1 PUSH2 0x1905 JUMP JUMPDEST POP POP POP POP DUP2 MSTORE PUSH1 0x20 ADD PUSH1 0x1 DUP3 ADD DUP1 SLOAD DUP1 PUSH1 0x20 MUL PUSH1 0x20 ADD PUSH1 0x40 MLOAD SWAP1 DUP2 ADD PUSH1 0x40 MSTORE DUP1 SWAP3 SWAP2 SWAP1 DUP2 DUP2 MSTORE PUSH1 0x20 ADD PUSH1 0x0 SWAP1 JUMPDEST DUP3 DUP3 LT ISZERO PUSH2 0x1A8A JUMPI DUP4 DUP3 SWAP1 PUSH1 0x0 MSTORE PUSH1 0x20 PUSH1 0x0 KECCAK256 ADD DUP1 SLOAD PUSH2 0x19FD SWAP1 PUSH2 0x3782 JUMP JUMPDEST DUP1 PUSH1 0x1F ADD PUSH1 0x20 DUP1 SWAP2 DIV MUL PUSH1 0x20 ADD PUSH1 0x40 MLOAD SWAP1 DUP2 ADD PUSH1 0x40 MSTORE DUP1 SWAP3 SWAP2 SWAP1 DUP2 DUP2 MSTORE PUSH1 0x20 ADD DUP3 DUP1 SLOAD PUSH2 0x1A29 SWAP1 PUSH2 0x3782 JUMP JUMPDEST DUP1 ISZERO PUSH2 0x1A76 JUMPI DUP1 PUSH1 0x1F LT PUSH2 0x1A4B JUMPI PUSH2 0x100 DUP1 DUP4 SLOAD DIV MUL DUP4 MSTORE SWAP2 PUSH1 0x20 ADD SWAP2 PUSH2 0x1A76 JUMP JUMPDEST DUP3 ADD SWAP2 SWAP1 PUSH1 0x0 MSTORE PUSH1 0x20 PUSH1 0x0 KECCAK256 SWAP1 JUMPDEST DUP2 SLOAD DUP2 MSTORE SWAP1 PUSH1 0x1 ADD SWAP1 PUSH1 0x20 ADD DUP1 DUP4 GT PUSH2 0x1A59 JUMPI DUP3 SWAP1 SUB PUSH1 0x1F AND DUP3 ADD SWAP2 JUMPDEST POP POP POP POP POP DUP2 MSTORE PUSH1 0x20 ADD SWAP1 PUSH1 0x1 ADD SWAP1 PUSH2 0x19DE JUMP JUMPDEST POP POP POP POP DUP2 MSTORE PUSH1 0x20 ADD PUSH1 0x2 DUP3 ADD DUP1 SLOAD DUP1 PUSH1 0x20 MUL PUSH1 0x20 ADD PUSH1 0x40 MLOAD SWAP1 DUP2 ADD PUSH1 0x40 MSTORE DUP1 SWAP3 SWAP2 SWAP1 DUP2 DUP2 MSTORE PUSH1 0x20 ADD PUSH1 0x0 SWAP1 JUMPDEST DUP3 DUP3 LT ISZERO PUSH2 0x1B63 JUMPI DUP4 DUP3 SWAP1 PUSH1 0x0 MSTORE PUSH1 0x20 PUSH1 0x0 KECCAK256 ADD DUP1 SLOAD PUSH2 0x1AD6 SWAP1 PUSH2 0x3782 JUMP JUMPDEST DUP1 PUSH1 0x1F ADD PUSH1 0x20 DUP1 SWAP2 DIV MUL PUSH1 0x20 ADD PUSH1 0x40 MLOAD SWAP1 DUP2 ADD PUSH1 0x40 MSTORE DUP1 SWAP3 SWAP2 SWAP1 DUP2 DUP2 MSTORE PUSH1 0x20 ADD DUP3 DUP1 SLOAD PUSH2 0x1B02 SWAP1 PUSH2 0x3782 JUMP JUMPDEST DUP1 ISZERO PUSH2 0x1B4F JUMPI DUP1 PUSH1 0x1F LT PUSH2 0x1B24 JUMPI PUSH2 0x100 DUP1 DUP4 SLOAD DIV MUL DUP4 MSTORE SWAP2 PUSH1 0x20 ADD SWAP2 PUSH2 0x1B4F JUMP JUMPDEST DUP3 ADD SWAP2 SWAP1 PUSH1 0x0 MSTORE PUSH1 0x20 PUSH1 0x0 KECCAK256 SWAP1 JUMPDEST DUP2 SLOAD DUP2 MSTORE SWAP1 PUSH1 0x1 ADD SWAP1 PUSH1 0x20 ADD DUP1 DUP4 GT PUSH2 0x1B32 JUMPI DUP3 SWAP1 SUB PUSH1 0x1F AND DUP3 ADD SWAP2 JUMPDEST POP POP POP POP POP DUP2 MSTORE PUSH1 0x20 ADD SWAP1 PUSH1 0x1 ADD SWAP1 PUSH2 0x1AB7 JUMP JUMPDEST POP POP POP POP DUP2 MSTORE POP POP SWAP1 DUP1 PUSH1 0x12 ADD PUSH1 0x40 MLOAD DUP1 PUSH1 0x40 ADD PUSH1 0x40 MSTORE SWAP1 DUP2 PUSH1 0x0 DUP3 ADD DUP1 SLOAD DUP1 PUSH1 0x20 MUL PUSH1 0x20 ADD PUSH1 0x40 MLOAD SWAP1 DUP2 ADD PUSH1 0x40 MSTORE DUP1 SWAP3 SWAP2 SWAP1 DUP2 DUP2 MSTORE PUSH1 0x20 ADD PUSH1 0x0 SWAP1 JUMPDEST DUP3 DUP3 LT ISZERO PUSH2 0x1C4C JUMPI DUP4 DUP3 SWAP1 PUSH1 0x0 MSTORE PUSH1 0x20 PUSH1 0x0 KECCAK256 ADD DUP1 SLOAD PUSH2 0x1BBF SWAP1 PUSH2 0x3782 JUMP JUMPDEST DUP1 PUSH1 0x1F ADD PUSH1 0x20 DUP1 SWAP2 DIV MUL PUSH1 0x20 ADD PUSH1 0x40 MLOAD SWAP1 DUP2 ADD PUSH1 0x40 MSTORE DUP1 SWAP3 SWAP2 SWAP1 DUP2 DUP2 MSTORE PUSH1 0x20 ADD DUP3 DUP1 SLOAD PUSH2 0x1BEB SWAP1 PUSH2 0x3782 JUMP JUMPDEST DUP1 ISZERO PUSH2 0x1C38 JUMPI DUP1 PUSH1 0x1F LT PUSH2 0x1C0D JUMPI PUSH2 0x100 DUP1 DUP4 SLOAD DIV MUL DUP4 MSTORE SWAP2 PUSH1 0x20 ADD SWAP2 PUSH2 0x1C38 JUMP JUMPDEST DUP3 ADD SWAP2 SWAP1 PUSH1 0x0 MSTORE PUSH1 0x20 PUSH1 0x0 KECCAK256 SWAP1 JUMPDEST DUP2 SLOAD DUP2 MSTORE SWAP1 PUSH1 0x1 ADD SWAP1 PUSH1 0x20 ADD DUP1 DUP4 GT PUSH2 0x1C1B JUMPI DUP3 SWAP1 SUB PUSH1 0x1F AND DUP3 ADD SWAP2 JUMPDEST POP POP POP POP POP DUP2 MSTORE PUSH1 0x20 ADD SWAP1 PUSH1 0x1 ADD SWAP1 PUSH2 0x1BA0 JUMP JUMPDEST POP POP POP POP DUP2 MSTORE PUSH1 0x20 ADD PUSH1 0x1 DUP3 ADD DUP1 SLOAD DUP1 PUSH1 0x20 MUL PUSH1 0x20 ADD PUSH1 0x40 MLOAD SWAP1 DUP2 ADD PUSH1 0x40 MSTORE DUP1 SWAP3 SWAP2 SWAP1 DUP2 DUP2 MSTORE PUSH1 0x20 ADD PUSH1 0x0 SWAP1 JUMPDEST DUP3 DUP3 LT ISZERO PUSH2 0x1D25 JUMPI DUP4 DUP3 SWAP1 PUSH1 0x0 MSTORE PUSH1 0x20 PUSH1 0x0 KECCAK256 ADD DUP1 SLOAD PUSH2 0x1C98 SWAP1 PUSH2 0x3782 JUMP JUMPDEST DUP1 PUSH1 0x1F ADD PUSH1 0x20 DUP1 SWAP2 DIV MUL PUSH1 0x20 ADD PUSH1 0x40 MLOAD SWAP1 DUP2 ADD PUSH1 0x40 MSTORE DUP1 SWAP3 SWAP2 SWAP1 DUP2 DUP2 MSTORE PUSH1 0x20 ADD DUP3 DUP1 SLOAD PUSH2 0x1CC4 SWAP1 PUSH2 0x3782 JUMP JUMPDEST DUP1 ISZERO PUSH2 0x1D11 JUMPI DUP1 PUSH1 0x1F LT PUSH2 0x1CE6 JUMPI PUSH2 0x100 DUP1 DUP4 SLOAD DIV MUL DUP4 MSTORE SWAP2 PUSH1 0x20 ADD SWAP2 PUSH2 0x1D11 JUMP JUMPDEST DUP3 ADD SWAP2 SWAP1 PUSH1 0x0 MSTORE PUSH1 0x20 PUSH1 0x0 KECCAK256 SWAP1 JUMPDEST DUP2 SLOAD DUP2 MSTORE SWAP1 PUSH1 0x1 ADD SWAP1 PUSH1 0x20 ADD DUP1 DUP4 GT PUSH2 0x1CF4 JUMPI DUP3 SWAP1 SUB PUSH1 0x1F AND DUP3 ADD SWAP2 JUMPDEST POP POP POP POP POP DUP2 MSTORE PUSH1 0x20 ADD SWAP1 PUSH1 0x1 ADD SWAP1 PUSH2 0x1C79 JUMP JUMPDEST POP POP POP POP DUP2 MSTORE POP POP SWAP1 POP DUP5 JUMP JUMPDEST PUSH1 0x0 DUP1 CALLER PUSH20 0xFFFFFFFFFFFFFFFFFFFFFFFFFFFFFFFFFFFFFFFF AND PUSH20 0xFFFFFFFFFFFFFFFFFFFFFFFFFFFFFFFFFFFFFFFF AND DUP2 MSTORE PUSH1 0x20 ADD SWAP1 DUP2 MSTORE PUSH1 0x20 ADD PUSH1 0x0 KECCAK256 PUSH1 0x14 ADD PUSH1 0x0 PUSH2 0x1D7F SWAP2 SWAP1 PUSH2 0x2963 JUMP JUMPDEST JUMP JUMPDEST PUSH2 0x1D89 PUSH2 0x2987 JUMP JUMPDEST DUP6 DUP2 PUSH1 0x0 ADD DUP2 SWAP1 MSTORE POP DUP5 DUP2 PUSH1 0x20 ADD DUP2 SWAP1 MSTORE POP DUP4 DUP2 PUSH1 0x40 ADD DUP2 SWAP1 MSTORE POP DUP3 DUP2 PUSH1 0x60 ADD DUP2 SWAP1 MSTORE POP DUP2 DUP2 PUSH1 0x80 ADD DUP2 SWAP1 MSTORE POP PUSH1 0x0 DUP1 CALLER PUSH20 0xFFFFFFFFFFFFFFFFFFFFFFFFFFFFFFFFFFFFFFFF AND PUSH20 0xFFFFFFFFFFFFFFFFFFFFFFFFFFFFFFFFFFFFFFFF AND DUP2 MSTORE PUSH1 0x20 ADD SWAP1 DUP2 MSTORE PUSH1 0x20 ADD PUSH1 0x0 KECCAK256 PUSH1 0x11 ADD DUP2 SWAP1 DUP1 PUSH1 0x1 DUP2 SLOAD ADD DUP1 DUP3 SSTORE DUP1 SWAP2 POP POP PUSH1 0x1 SWAP1 SUB SWAP1 PUSH1 0x0 MSTORE PUSH1 0x20 PUSH1 0x0 KECCAK256 SWAP1 PUSH1 0x5 MUL ADD PUSH1 0x0 SWAP1 SWAP2 SWAP1 SWAP2 SWAP1 SWAP2 POP PUSH1 0x0 DUP3 ADD MLOAD DUP2 PUSH1 0x0 ADD SWAP1 DUP1 MLOAD SWAP1 PUSH1 0x20 ADD SWAP1 PUSH2 0x1E3D SWAP3 SWAP2 SWAP1 PUSH2 0x2802 JUMP JUMPDEST POP PUSH1 0x20 DUP3 ADD MLOAD DUP2 PUSH1 0x1 ADD SWAP1 DUP1 MLOAD SWAP1 PUSH1 0x20 ADD SWAP1 PUSH2 0x1E5A SWAP3 SWAP2 SWAP1 PUSH2 0x2802 JUMP JUMPDEST POP PUSH1 0x40 DUP3 ADD MLOAD DUP2 PUSH1 0x2 ADD SWAP1 DUP1 MLOAD SWAP1 PUSH1 0x20 ADD SWAP1 PUSH2 0x1E77 SWAP3 SWAP2 SWAP1 PUSH2 0x2802 JUMP JUMPDEST POP PUSH1 0x60 DUP3 ADD MLOAD DUP2 PUSH1 0x3 ADD SWAP1 DUP1 MLOAD SWAP1 PUSH1 0x20 ADD SWAP1 PUSH2 0x1E94 SWAP3 SWAP2 SWAP1 PUSH2 0x2802 JUMP JUMPDEST POP PUSH1 0x80 DUP3 ADD MLOAD DUP2 PUSH1 0x4 ADD SWAP1 DUP1 MLOAD SWAP1 PUSH1 0x20 ADD SWAP1 PUSH2 0x1EB1 SWAP3 SWAP2 SWAP1 PUSH2 0x2802 JUMP JUMPDEST POP POP POP POP POP POP POP POP POP JUMP JUMPDEST PUSH1 0x0 CALLER PUSH20 0xFFFFFFFFFFFFFFFFFFFFFFFFFFFFFFFFFFFFFFFF AND BALANCE SWAP1 POP SWAP1 JUMP JUMPDEST PUSH1 0x60 DUP1 PUSH1 0x0 DUP1 CALLER PUSH20 0xFFFFFFFFFFFFFFFFFFFFFFFFFFFFFFFFFFFFFFFF AND PUSH20 0xFFFFFFFFFFFFFFFFFFFFFFFFFFFFFFFFFFFFFFFF AND DUP2 MSTORE PUSH1 0x20 ADD SWAP1 DUP2 MSTORE PUSH1 0x20 ADD PUSH1 0x0 KECCAK256 PUSH1 0x15 ADD DUP4 DUP2 SLOAD DUP2 LT PUSH2 0x1F31 JUMPI PUSH2 0x1F30 PUSH2 0x3814 JUMP JUMPDEST JUMPDEST SWAP1 PUSH1 0x0 MSTORE PUSH1 0x20 PUSH1 0x0 KECCAK256 SWAP1 PUSH1 0x2 MUL ADD PUSH1 0x0 ADD PUSH1 0x0 DUP1 CALLER PUSH20 0xFFFFFFFFFFFFFFFFFFFFFFFFFFFFFFFFFFFFFFFF AND PUSH20 0xFFFFFFFFFFFFFFFFFFFFFFFFFFFFFFFFFFFFFFFF AND DUP2 MSTORE PUSH1 0x20 ADD SWAP1 DUP2 MSTORE PUSH1 0x20 ADD PUSH1 0x0 KECCAK256 PUSH1 0x15 ADD DUP5 DUP2 SLOAD DUP2 LT PUSH2 0x1F95 JUMPI PUSH2 0x1F94 PUSH2 0x3814 JUMP JUMPDEST JUMPDEST SWAP1 PUSH1 0x0 MSTORE PUSH1 0x20 PUSH1 0x0 KECCAK256 SWAP1 PUSH1 0x2 MUL ADD PUSH1 0x1 ADD DUP2 DUP1 SLOAD PUSH2 0x1FB2 SWAP1 PUSH2 0x3782 JUMP JUMPDEST DUP1 PUSH1 0x1F ADD PUSH1 0x20 DUP1 SWAP2 DIV MUL PUSH1 0x20 ADD PUSH1 0x40 MLOAD SWAP1 DUP2 ADD PUSH1 0x40 MSTORE DUP1 SWAP3 SWAP2 SWAP1 DUP2 DUP2 MSTORE PUSH1 0x20 ADD DUP3 DUP1 SLOAD PUSH2 0x1FDE SWAP1 PUSH2 0x3782 JUMP JUMPDEST DUP1 ISZERO PUSH2 0x202B JUMPI DUP1 PUSH1 0x1F LT PUSH2 0x2000 JUMPI PUSH2 0x100 DUP1 DUP4 SLOAD DIV MUL DUP4 MSTORE SWAP2 PUSH1 0x20 ADD SWAP2 PUSH2 0x202B JUMP JUMPDEST DUP3 ADD SWAP2 SWAP1 PUSH1 0x0 MSTORE PUSH1 0x20 PUSH1 0x0 KECCAK256 SWAP1 JUMPDEST DUP2 SLOAD DUP2 MSTORE SWAP1 PUSH1 0x1 ADD SWAP1 PUSH1 0x20 ADD DUP1 DUP4 GT PUSH2 0x200E JUMPI DUP3 SWAP1 SUB PUSH1 0x1F AND DUP3 ADD SWAP2 JUMPDEST POP POP POP POP POP SWAP2 POP DUP1 DUP1 SLOAD PUSH2 0x203E SWAP1 PUSH2 0x3782 JUMP JUMPDEST DUP1 PUSH1 0x1F ADD PUSH1 0x20 DUP1 SWAP2 DIV MUL PUSH1 0x20 ADD PUSH1 0x40 MLOAD SWAP1 DUP2 ADD PUSH1 0x40 MSTORE DUP1 SWAP3 SWAP2 SWAP1 DUP2 DUP2 MSTORE PUSH1 0x20 ADD DUP3 DUP1 SLOAD PUSH2 0x206A SWAP1 PUSH2 0x3782 JUMP JUMPDEST DUP1 ISZERO PUSH2 0x20B7 JUMPI DUP1 PUSH1 0x1F LT PUSH2 0x208C JUMPI PUSH2 0x100 DUP1 DUP4 SLOAD DIV MUL DUP4 MSTORE SWAP2 PUSH1 0x20 ADD SWAP2 PUSH2 0x20B7 JUMP JUMPDEST DUP3 ADD SWAP2 SWAP1 PUSH1 0x0 MSTORE PUSH1 0x20 PUSH1 0x0 KECCAK256 SWAP1 JUMPDEST DUP2 SLOAD DUP2 MSTORE SWAP1 PUSH1 0x1 ADD SWAP1 PUSH1 0x20 ADD DUP1 DUP4 GT PUSH2 0x209A JUMPI DUP3 SWAP1 SUB PUSH1 0x1F AND DUP3 ADD SWAP2 JUMPDEST POP POP POP POP POP SWAP1 POP SWAP2 POP SWAP2 POP SWAP2 POP SWAP2 JUMP JUMPDEST PUSH1 0x0 DUP1 CALLER PUSH20 0xFFFFFFFFFFFFFFFFFFFFFFFFFFFFFFFFFFFFFFFF AND PUSH20 0xFFFFFFFFFFFFFFFFFFFFFFFFFFFFFFFFFFFFFFFF AND DUP2 MSTORE PUSH1 0x20 ADD SWAP1 DUP2 MSTORE PUSH1 0x20 ADD PUSH1 0x0 KECCAK256 PUSH1 0x11 ADD PUSH1 0x0 PUSH2 0x2114 SWAP2 SWAP1 PUSH2 0x29B6 JUMP JUMPDEST JUMP JUMPDEST PUSH1 0x60 DUP1 PUSH1 0x60 DUP1 PUSH1 0x60 PUSH1 0x0 DUP1 CALLER PUSH20 0xFFFFFFFFFFFFFFFFFFFFFFFFFFFFFFFFFFFFFFFF AND PUSH20 0xFFFFFFFFFFFFFFFFFFFFFFFFFFFFFFFFFFFFFFFF AND DUP2 MSTORE PUSH1 0x20 ADD SWAP1 DUP2 MSTORE PUSH1 0x20 ADD PUSH1 0x0 KECCAK256 PUSH1 0x11 ADD DUP7 DUP2 SLOAD DUP2 LT PUSH2 0x2171 JUMPI PUSH2 0x2170 PUSH2 0x3814 JUMP JUMPDEST JUMPDEST SWAP1 PUSH1 0x0 MSTORE PUSH1 0x20 PUSH1 0x0 KECCAK256 SWAP1 PUSH1 0x5 MUL ADD PUSH1 0x0 ADD PUSH1 0x0 DUP1 CALLER PUSH20 0xFFFFFFFFFFFFFFFFFFFFFFFFFFFFFFFFFFFFFFFF AND PUSH20 0xFFFFFFFFFFFFFFFFFFFFFFFFFFFFFFFFFFFFFFFF AND DUP2 MSTORE PUSH1 0x20 ADD SWAP1 DUP2 MSTORE PUSH1 0x20 ADD PUSH1 0x0 KECCAK256 PUSH1 0x11 ADD DUP8 DUP2 SLOAD DUP2 LT PUSH2 0x21D5 JUMPI PUSH2 0x21D4 PUSH2 0x3814 JUMP JUMPDEST JUMPDEST SWAP1 PUSH1 0x0 MSTORE PUSH1 0x20 PUSH1 0x0 KECCAK256 SWAP1 PUSH1 0x5 MUL ADD PUSH1 0x1 ADD PUSH1 0x0 DUP1 CALLER PUSH20 0xFFFFFFFFFFFFFFFFFFFFFFFFFFFFFFFFFFFFFFFF AND PUSH20 0xFFFFFFFFFFFFFFFFFFFFFFFFFFFFFFFFFFFFFFFF AND DUP2 MSTORE PUSH1 0x20 ADD SWAP1 DUP2 MSTORE PUSH1 0x20 ADD PUSH1 0x0 KECCAK256 PUSH1 0x11 ADD DUP9 DUP2 SLOAD DUP2 LT PUSH2 0x2239 JUMPI PUSH2 0x2238 PUSH2 0x3814 JUMP JUMPDEST JUMPDEST SWAP1 PUSH1 0x0 MSTORE PUSH1 0x20 PUSH1 0x0 KECCAK256 SWAP1 PUSH1 0x5 MUL ADD PUSH1 0x2 ADD PUSH1 0x0 DUP1 CALLER PUSH20 0xFFFFFFFFFFFFFFFFFFFFFFFFFFFFFFFFFFFFFFFF AND PUSH20 0xFFFFFFFFFFFFFFFFFFFFFFFFFFFFFFFFFFFFFFFF AND DUP2 MSTORE PUSH1 0x20 ADD SWAP1 DUP2 MSTORE PUSH1 0x20 ADD PUSH1 0x0 KECCAK256 PUSH1 0x11 ADD DUP10 DUP2 SLOAD DUP2 LT PUSH2 0x229D JUMPI PUSH2 0x229C PUSH2 0x3814 JUMP JUMPDEST JUMPDEST SWAP1 PUSH1 0x0 MSTORE PUSH1 0x20 PUSH1 0x0 KECCAK256 SWAP1 PUSH1 0x5 MUL ADD PUSH1 0x3 ADD PUSH1 0x0 DUP1 CALLER PUSH20 0xFFFFFFFFFFFFFFFFFFFFFFFFFFFFFFFFFFFFFFFF AND PUSH20 0xFFFFFFFFFFFFFFFFFFFFFFFFFFFFFFFFFFFFFFFF AND DUP2 MSTORE PUSH1 0x20 ADD SWAP1 DUP2 MSTORE PUSH1 0x20 ADD PUSH1 0x0 KECCAK256 PUSH1 0x11 ADD DUP11 DUP2 SLOAD DUP2 LT PUSH2 0x2301 JUMPI PUSH2 0x2300 PUSH2 0x3814 JUMP JUMPDEST JUMPDEST SWAP1 PUSH1 0x0 MSTORE PUSH1 0x20 PUSH1 0x0 KECCAK256 SWAP1 PUSH1 0x5 MUL ADD PUSH1 0x4 ADD DUP5 DUP1 SLOAD PUSH2 0x231E SWAP1 PUSH2 0x3782 JUMP JUMPDEST DUP1 PUSH1 0x1F ADD PUSH1 0x20 DUP1 SWAP2 DIV MUL PUSH1 0x20 ADD PUSH1 0x40 MLOAD SWAP1 DUP2 ADD PUSH1 0x40 MSTORE DUP1 SWAP3 SWAP2 SWAP1 DUP2 DUP2 MSTORE PUSH1 0x20 ADD DUP3 DUP1 SLOAD PUSH2 0x234A SWAP1 PUSH2 0x3782 JUMP JUMPDEST DUP1 ISZERO PUSH2 0x2397 JUMPI DUP1 PUSH1 0x1F LT PUSH2 0x236C JUMPI PUSH2 0x100 DUP1 DUP4 SLOAD DIV MUL DUP4 MSTORE SWAP2 PUSH1 0x20 ADD SWAP2 PUSH2 0x2397 JUMP JUMPDEST DUP3 ADD SWAP2 SWAP1 PUSH1 0x0 MSTORE PUSH1 0x20 PUSH1 0x0 KECCAK256 SWAP1 JUMPDEST DUP2 SLOAD DUP2 MSTORE SWAP1 PUSH1 0x1 ADD SWAP1 PUSH1 0x20 ADD DUP1 DUP4 GT PUSH2 0x237A JUMPI DUP3 SWAP1 SUB PUSH1 0x1F AND DUP3 ADD SWAP2 JUMPDEST POP POP POP POP POP SWAP5 POP DUP4 DUP1 SLOAD PUSH2 0x23AA SWAP1 PUSH2 0x3782 JUMP JUMPDEST DUP1 PUSH1 0x1F ADD PUSH1 0x20 DUP1 SWAP2 DIV MUL PUSH1 0x20 ADD PUSH1 0x40 MLOAD SWAP1 DUP2 ADD PUSH1 0x40 MSTORE DUP1 SWAP3 SWAP2 SWAP1 DUP2 DUP2 MSTORE PUSH1 0x20 ADD DUP3 DUP1 SLOAD PUSH2 0x23D6 SWAP1 PUSH2 0x3782 JUMP JUMPDEST DUP1 ISZERO PUSH2 0x2423 JUMPI DUP1 PUSH1 0x1F LT PUSH2 0x23F8 JUMPI PUSH2 0x100 DUP1 DUP4 SLOAD DIV MUL DUP4 MSTORE SWAP2 PUSH1 0x20 ADD SWAP2 PUSH2 0x2423 JUMP JUMPDEST DUP3 ADD SWAP2 SWAP1 PUSH1 0x0 MSTORE PUSH1 0x20 PUSH1 0x0 KECCAK256 SWAP1 JUMPDEST DUP2 SLOAD DUP2 MSTORE SWAP1 PUSH1 0x1 ADD SWAP1 PUSH1 0x20 ADD DUP1 DUP4 GT PUSH2 0x2406 JUMPI DUP3 SWAP1 SUB PUSH1 0x1F AND DUP3 ADD SWAP2 JUMPDEST POP POP POP POP POP SWAP4 POP DUP3 DUP1 SLOAD PUSH2 0x2436 SWAP1 PUSH2 0x3782 JUMP JUMPDEST DUP1 PUSH1 0x1F ADD PUSH1 0x20 DUP1 SWAP2 DIV MUL PUSH1 0x20 ADD PUSH1 0x40 MLOAD SWAP1 DUP2 ADD PUSH1 0x40 MSTORE DUP1 SWAP3 SWAP2 SWAP1 DUP2 DUP2 MSTORE PUSH1 0x20 ADD DUP3 DUP1 SLOAD PUSH2 0x2462 SWAP1 PUSH2 0x3782 JUMP JUMPDEST DUP1 ISZERO PUSH2 0x24AF JUMPI DUP1 PUSH1 0x1F LT PUSH2 0x2484 JUMPI PUSH2 0x100 DUP1 DUP4 SLOAD DIV MUL DUP4 MSTORE SWAP2 PUSH1 0x20 ADD SWAP2 PUSH2 0x24AF JUMP JUMPDEST DUP3 ADD SWAP2 SWAP1 PUSH1 0x0 MSTORE PUSH1 0x20 PUSH1 0x0 KECCAK256 SWAP1 JUMPDEST DUP2 SLOAD DUP2 MSTORE SWAP1 PUSH1 0x1 ADD SWAP1 PUSH1 0x20 ADD DUP1 DUP4 GT PUSH2 0x2492 JUMPI DUP3 SWAP1 SUB PUSH1 0x1F AND DUP3 ADD SWAP2 JUMPDEST POP POP POP POP POP SWAP3 POP DUP2 DUP1 SLOAD PUSH2 0x24C2 SWAP1 PUSH2 0x3782 JUMP JUMPDEST DUP1 PUSH1 0x1F ADD PUSH1 0x20 DUP1 SWAP2 DIV MUL PUSH1 0x20 ADD PUSH1 0x40 MLOAD SWAP1 DUP2 ADD PUSH1 0x40 MSTORE DUP1 SWAP3 SWAP2 SWAP1 DUP2 DUP2 MSTORE PUSH1 0x20 ADD DUP3 DUP1 SLOAD PUSH2 0x24EE SWAP1 PUSH2 0x3782 JUMP JUMPDEST DUP1 ISZERO PUSH2 0x253B JUMPI DUP1 PUSH1 0x1F LT PUSH2 0x2510 JUMPI PUSH2 0x100 DUP1 DUP4 SLOAD DIV MUL DUP4 MSTORE SWAP2 PUSH1 0x20 ADD SWAP2 PUSH2 0x253B JUMP JUMPDEST DUP3 ADD SWAP2 SWAP1 PUSH1 0x0 MSTORE PUSH1 0x20 PUSH1 0x0 KECCAK256 SWAP1 JUMPDEST DUP2 SLOAD DUP2 MSTORE SWAP1 PUSH1 0x1 ADD SWAP1 PUSH1 0x20 ADD DUP1 DUP4 GT PUSH2 0x251E JUMPI DUP3 SWAP1 SUB PUSH1 0x1F AND DUP3 ADD SWAP2 JUMPDEST POP POP POP POP POP SWAP2 POP DUP1 DUP1 SLOAD PUSH2 0x254E SWAP1 PUSH2 0x3782 JUMP JUMPDEST DUP1 PUSH1 0x1F ADD PUSH1 0x20 DUP1 SWAP2 DIV MUL PUSH1 0x20 ADD PUSH1 0x40 MLOAD SWAP1 DUP2 ADD PUSH1 0x40 MSTORE DUP1 SWAP3 SWAP2 SWAP1 DUP2 DUP2 MSTORE PUSH1 0x20 ADD DUP3 DUP1 SLOAD PUSH2 0x257A SWAP1 PUSH2 0x3782 JUMP JUMPDEST DUP1 ISZERO PUSH2 0x25C7 JUMPI DUP1 PUSH1 0x1F LT PUSH2 0x259C JUMPI PUSH2 0x100 DUP1 DUP4 SLOAD DIV MUL DUP4 MSTORE SWAP2 PUSH1 0x20 ADD SWAP2 PUSH2 0x25C7 JUMP JUMPDEST DUP3 ADD SWAP2 SWAP1 PUSH1 0x0 MSTORE PUSH1 0x20 PUSH1 0x0 KECCAK256 SWAP1 JUMPDEST DUP2 SLOAD DUP2 MSTORE SWAP1 PUSH1 0x1 ADD SWAP1 PUSH1 0x20 ADD DUP1 DUP4 GT PUSH2 0x25AA JUMPI DUP3 SWAP1 SUB PUSH1 0x1F AND DUP3 ADD SWAP2 JUMPDEST POP POP POP POP POP SWAP1 POP SWAP5 POP SWAP5 POP SWAP5 POP SWAP5 POP SWAP5 POP SWAP2 SWAP4 SWAP6 SWAP1 SWAP3 SWAP5 POP JUMP JUMPDEST PUSH1 0x0 DUP1 CALLER PUSH20 0xFFFFFFFFFFFFFFFFFFFFFFFFFFFFFFFFFFFFFFFF AND PUSH20 0xFFFFFFFFFFFFFFFFFFFFFFFFFFFFFFFFFFFFFFFF AND DUP2 MSTORE PUSH1 0x20 ADD SWAP1 DUP2 MSTORE PUSH1 0x20 ADD PUSH1 0x0 KECCAK256 PUSH1 0x0 DUP1 DUP3 ADD PUSH1 0x0 DUP1 DUP3 ADD PUSH1 0x0 PUSH2 0x2635 SWAP2 SWAP1 PUSH2 0x2923 JUMP JUMPDEST PUSH1 0x1 DUP3 ADD PUSH1 0x0 PUSH2 0x2645 SWAP2 SWAP1 PUSH2 0x2923 JUMP JUMPDEST PUSH1 0x2 DUP3 ADD PUSH1 0x0 PUSH2 0x100 EXP DUP2 SLOAD SWAP1 PUSH20 0xFFFFFFFFFFFFFFFFFFFFFFFFFFFFFFFFFFFFFFFF MUL NOT AND SWAP1 SSTORE PUSH1 0x3 DUP3 ADD PUSH1 0x0 PUSH2 0x267C SWAP2 SWAP1 PUSH2 0x2923 JUMP JUMPDEST PUSH1 0x4 DUP3 ADD PUSH1 0x0 PUSH2 0x268C SWAP2 SWAP1 PUSH2 0x2923 JUMP JUMPDEST PUSH1 0x5 DUP3 ADD PUSH1 0x0 PUSH2 0x269C SWAP2 SWAP1 PUSH2 0x2923 JUMP JUMPDEST PUSH1 0x6 DUP3 ADD PUSH1 0x0 PUSH2 0x26AC SWAP2 SWAP1 PUSH2 0x2923 JUMP JUMPDEST PUSH1 0x7 DUP3 ADD PUSH1 0x0 SWAP1 SSTORE POP POP PUSH1 0x8 DUP3 ADD PUSH1 0x0 DUP1 DUP3 ADD PUSH1 0x0 PUSH2 0x26CB SWAP2 SWAP1 PUSH2 0x2923 JUMP JUMPDEST PUSH1 0x1 DUP3 ADD PUSH1 0x0 PUSH2 0x26DB SWAP2 SWAP1 PUSH2 0x2923 JUMP JUMPDEST PUSH1 0x2 DUP3 ADD PUSH1 0x0 PUSH2 0x26EB SWAP2 SWAP1 PUSH2 0x2923 JUMP JUMPDEST PUSH1 0x3 DUP3 ADD PUSH1 0x0 PUSH2 0x26FB SWAP2 SWAP1 PUSH2 0x2923 JUMP JUMPDEST PUSH1 0x4 DUP3 ADD PUSH1 0x0 PUSH2 0x270B SWAP2 SWAP1 PUSH2 0x2923 JUMP JUMPDEST PUSH1 0x5 DUP3 ADD PUSH1 0x0 PUSH2 0x271B SWAP2 SWAP1 PUSH2 0x2923 JUMP JUMPDEST POP POP PUSH1 0xE DUP3 ADD PUSH1 0x0 DUP1 DUP3 ADD PUSH1 0x0 PUSH2 0x2732 SWAP2 SWAP1 PUSH2 0x2902 JUMP JUMPDEST PUSH1 0x1 DUP3 ADD PUSH1 0x0 PUSH2 0x2742 SWAP2 SWAP1 PUSH2 0x2902 JUMP JUMPDEST PUSH1 0x2 DUP3 ADD PUSH1 0x0 PUSH2 0x2752 SWAP2 SWAP1 PUSH2 0x2902 JUMP JUMPDEST POP POP PUSH1 0x11 DUP3 ADD PUSH1 0x0 PUSH2 0x2764 SWAP2 SWAP1 PUSH2 0x29B6 JUMP JUMPDEST PUSH1 0x12 DUP3 ADD PUSH1 0x0 DUP1 DUP3 ADD PUSH1 0x0 PUSH2 0x2779 SWAP2 SWAP1 PUSH2 0x2902 JUMP JUMPDEST PUSH1 0x1 DUP3 ADD PUSH1 0x0 PUSH2 0x2789 SWAP2 SWAP1 PUSH2 0x2902 JUMP JUMPDEST POP POP PUSH1 0x14 DUP3 ADD PUSH1 0x0 PUSH2 0x279B SWAP2 SWAP1 PUSH2 0x2963 JUMP JUMPDEST PUSH1 0x15 DUP3 ADD PUSH1 0x0 PUSH2 0x27AB SWAP2 SWAP1 PUSH2 0x27AF JUMP JUMPDEST POP POP JUMP JUMPDEST POP DUP1 SLOAD PUSH1 0x0 DUP3 SSTORE PUSH1 0x2 MUL SWAP1 PUSH1 0x0 MSTORE PUSH1 0x20 PUSH1 0x0 KECCAK256 SWAP1 DUP2 ADD SWAP1 PUSH2 0x27D0 SWAP2 SWAP1 PUSH2 0x29DA JUMP JUMPDEST POP JUMP JUMPDEST PUSH1 0x40 MLOAD DUP1 PUSH1 0xA0 ADD PUSH1 0x40 MSTORE DUP1 PUSH1 0x60 DUP2 MSTORE PUSH1 0x20 ADD PUSH1 0x60 DUP2 MSTORE PUSH1 0x20 ADD PUSH1 0x60 DUP2 MSTORE PUSH1 0x20 ADD PUSH1 0x60 DUP2 MSTORE PUSH1 0x20 ADD PUSH1 0x60 DUP2 MSTORE POP SWAP1 JUMP JUMPDEST DUP3 DUP1 SLOAD PUSH2 0x280E SWAP1 PUSH2 0x3782 JUMP JUMPDEST SWAP1 PUSH1 0x0 MSTORE PUSH1 0x20 PUSH1 0x0 KECCAK256 SWAP1 PUSH1 0x1F ADD PUSH1 0x20 SWAP1 DIV DUP2 ADD SWAP3 DUP3 PUSH2 0x2830 JUMPI PUSH1 0x0 DUP6 SSTORE PUSH2 0x2877 JUMP JUMPDEST DUP3 PUSH1 0x1F LT PUSH2 0x2849 JUMPI DUP1 MLOAD PUSH1 0xFF NOT AND DUP4 DUP1 ADD OR DUP6 SSTORE PUSH2 0x2877 JUMP JUMPDEST DUP3 DUP1 ADD PUSH1 0x1 ADD DUP6 SSTORE DUP3 ISZERO PUSH2 0x2877 JUMPI SWAP2 DUP3 ADD JUMPDEST DUP3 DUP2 GT ISZERO PUSH2 0x2876 JUMPI DUP3 MLOAD DUP3 SSTORE SWAP2 PUSH1 0x20 ADD SWAP2 SWAP1 PUSH1 0x1 ADD SWAP1 PUSH2 0x285B JUMP JUMPDEST JUMPDEST POP SWAP1 POP PUSH2 0x2884 SWAP2 SWAP1 PUSH2 0x2A11 JUMP JUMPDEST POP SWAP1 JUMP JUMPDEST DUP3 DUP1 SLOAD DUP3 DUP3 SSTORE SWAP1 PUSH1 0x0 MSTORE PUSH1 0x20 PUSH1 0x0 KECCAK256 SWAP1 DUP2 ADD SWAP3 DUP3 ISZERO PUSH2 0x28D7 JUMPI SWAP2 PUSH1 0x20 MUL DUP3 ADD JUMPDEST DUP3 DUP2 GT ISZERO PUSH2 0x28D6 JUMPI DUP3 MLOAD DUP3 SWAP1 DUP1 MLOAD SWAP1 PUSH1 0x20 ADD SWAP1 PUSH2 0x28C6 SWAP3 SWAP2 SWAP1 PUSH2 0x2802 JUMP JUMPDEST POP SWAP2 PUSH1 0x20 ADD SWAP2 SWAP1 PUSH1 0x1 ADD SWAP1 PUSH2 0x28A8 JUMP JUMPDEST JUMPDEST POP SWAP1 POP PUSH2 0x28E4 SWAP2 SWAP1 PUSH2 0x2A2E JUMP JUMPDEST POP SWAP1 JUMP JUMPDEST PUSH1 0x40 MLOAD DUP1 PUSH1 0x40 ADD PUSH1 0x40 MSTORE DUP1 PUSH1 0x60 DUP2 MSTORE PUSH1 0x20 ADD PUSH1 0x60 DUP2 MSTORE POP SWAP1 JUMP JUMPDEST POP DUP1 SLOAD PUSH1 0x0 DUP3 SSTORE SWAP1 PUSH1 0x0 MSTORE PUSH1 0x20 PUSH1 0x0 KECCAK256 SWAP1 DUP2 ADD SWAP1 PUSH2 0x2920 SWAP2 SWAP1 PUSH2 0x2A2E JUMP JUMPDEST POP JUMP JUMPDEST POP DUP1 SLOAD PUSH2 0x292F SWAP1 PUSH2 0x3782 JUMP JUMPDEST PUSH1 0x0 DUP3 SSTORE DUP1 PUSH1 0x1F LT PUSH2 0x2941 JUMPI POP PUSH2 0x2960 JUMP JUMPDEST PUSH1 0x1F ADD PUSH1 0x20 SWAP1 DIV SWAP1 PUSH1 0x0 MSTORE PUSH1 0x20 PUSH1 0x0 KECCAK256 SWAP1 DUP2 ADD SWAP1 PUSH2 0x295F SWAP2 SWAP1 PUSH2 0x2A11 JUMP JUMPDEST JUMPDEST POP JUMP JUMPDEST POP DUP1 SLOAD PUSH1 0x0 DUP3 SSTORE PUSH1 0x5 MUL SWAP1 PUSH1 0x0 MSTORE PUSH1 0x20 PUSH1 0x0 KECCAK256 SWAP1 DUP2 ADD SWAP1 PUSH2 0x2984 SWAP2 SWAP1 PUSH2 0x2A52 JUMP JUMPDEST POP JUMP JUMPDEST PUSH1 0x40 MLOAD DUP1 PUSH1 0xA0 ADD PUSH1 0x40 MSTORE DUP1 PUSH1 0x60 DUP2 MSTORE PUSH1 0x20 ADD PUSH1 0x60 DUP2 MSTORE PUSH1 0x20 ADD PUSH1 0x60 DUP2 MSTORE PUSH1 0x20 ADD PUSH1 0x60 DUP2 MSTORE PUSH1 0x20 ADD PUSH1 0x60 DUP2 MSTORE POP SWAP1 JUMP JUMPDEST POP DUP1 SLOAD PUSH1 0x0 DUP3 SSTORE PUSH1 0x5 MUL SWAP1 PUSH1 0x0 MSTORE PUSH1 0x20 PUSH1 0x0 KECCAK256 SWAP1 DUP2 ADD SWAP1 PUSH2 0x29D7 SWAP2 SWAP1 PUSH2 0x2AB9 JUMP JUMPDEST POP JUMP JUMPDEST JUMPDEST DUP1 DUP3 GT ISZERO PUSH2 0x2A0D JUMPI PUSH1 0x0 DUP1 DUP3 ADD PUSH1 0x0 PUSH2 0x29F4 SWAP2 SWAP1 PUSH2 0x2923 JUMP JUMPDEST PUSH1 0x1 DUP3 ADD PUSH1 0x0 PUSH2 0x2A04 SWAP2 SWAP1 PUSH2 0x2923 JUMP JUMPDEST POP PUSH1 0x2 ADD PUSH2 0x29DB JUMP JUMPDEST POP SWAP1 JUMP JUMPDEST JUMPDEST DUP1 DUP3 GT ISZERO PUSH2 0x2A2A JUMPI PUSH1 0x0 DUP2 PUSH1 0x0 SWAP1 SSTORE POP PUSH1 0x1 ADD PUSH2 0x2A12 JUMP JUMPDEST POP SWAP1 JUMP JUMPDEST JUMPDEST DUP1 DUP3 GT ISZERO PUSH2 0x2A4E JUMPI PUSH1 0x0 DUP2 DUP2 PUSH2 0x2A45 SWAP2 SWAP1 PUSH2 0x2923 JUMP JUMPDEST POP PUSH1 0x1 ADD PUSH2 0x2A2F JUMP JUMPDEST POP SWAP1 JUMP JUMPDEST JUMPDEST DUP1 DUP3 GT ISZERO PUSH2 0x2AB5 JUMPI PUSH1 0x0 DUP1 DUP3 ADD PUSH1 0x0 PUSH2 0x2A6C SWAP2 SWAP1 PUSH2 0x2923 JUMP JUMPDEST PUSH1 0x1 DUP3 ADD PUSH1 0x0 PUSH2 0x2A7C SWAP2 SWAP1 PUSH2 0x2923 JUMP JUMPDEST PUSH1 0x2 DUP3 ADD PUSH1 0x0 PUSH2 0x2A8C SWAP2 SWAP1 PUSH2 0x2923 JUMP JUMPDEST PUSH1 0x3 DUP3 ADD PUSH1 0x0 PUSH2 0x2A9C SWAP2 SWAP1 PUSH2 0x2923 JUMP JUMPDEST PUSH1 0x4 DUP3 ADD PUSH1 0x0 PUSH2 0x2AAC SWAP2 SWAP1 PUSH2 0x2902 JUMP JUMPDEST POP PUSH1 0x5 ADD PUSH2 0x2A53 JUMP JUMPDEST POP SWAP1 JUMP JUMPDEST JUMPDEST DUP1 DUP3 GT ISZERO PUSH2 0x2B1C JUMPI PUSH1 0x0 DUP1 DUP3 ADD PUSH1 0x0 PUSH2 0x2AD3 SWAP2 SWAP1 PUSH2 0x2923 JUMP JUMPDEST PUSH1 0x1 DUP3 ADD PUSH1 0x0 PUSH2 0x2AE3 SWAP2 SWAP1 PUSH2 0x2923 JUMP JUMPDEST PUSH1 0x2 DUP3 ADD PUSH1 0x0 PUSH2 0x2AF3 SWAP2 SWAP1 PUSH2 0x2923 JUMP JUMPDEST PUSH1 0x3 DUP3 ADD PUSH1 0x0 PUSH2 0x2B03 SWAP2 SWAP1 PUSH2 0x2923 JUMP JUMPDEST PUSH1 0x4 DUP3 ADD PUSH1 0x0 PUSH2 0x2B13 SWAP2 SWAP1 PUSH2 0x2923 JUMP JUMPDEST POP PUSH1 0x5 ADD PUSH2 0x2ABA JUMP JUMPDEST POP SWAP1 JUMP JUMPDEST PUSH1 0x0 PUSH2 0x2B33 PUSH2 0x2B2E DUP5 PUSH2 0x3641 JUMP JUMPDEST PUSH2 0x361C JUMP JUMPDEST SWAP1 POP DUP1 DUP4 DUP3 MSTORE PUSH1 0x20 DUP3 ADD SWAP1 POP DUP3 DUP6 PUSH1 0x20 DUP7 MUL DUP3 ADD GT ISZERO PUSH2 0x2B56 JUMPI PUSH2 0x2B55 PUSH2 0x3877 JUMP JUMPDEST JUMPDEST PUSH1 0x0 JUMPDEST DUP6 DUP2 LT ISZERO PUSH2 0x2BA4 JUMPI DUP2 CALLDATALOAD PUSH8 0xFFFFFFFFFFFFFFFF DUP2 GT ISZERO PUSH2 0x2B7C JUMPI PUSH2 0x2B7B PUSH2 0x3872 JUMP JUMPDEST JUMPDEST DUP1 DUP7 ADD PUSH2 0x2B89 DUP10 DUP3 PUSH2 0x2C33 JUMP JUMPDEST DUP6 MSTORE PUSH1 0x20 DUP6 ADD SWAP5 POP PUSH1 0x20 DUP5 ADD SWAP4 POP POP POP PUSH1 0x1 DUP2 ADD SWAP1 POP PUSH2 0x2B59 JUMP JUMPDEST POP POP POP SWAP4 SWAP3 POP POP POP JUMP JUMPDEST PUSH1 0x0 PUSH2 0x2BC1 PUSH2 0x2BBC DUP5 PUSH2 0x366D JUMP JUMPDEST PUSH2 0x361C JUMP JUMPDEST SWAP1 POP DUP3 DUP2 MSTORE PUSH1 0x20 DUP2 ADD DUP5 DUP5 DUP5 ADD GT ISZERO PUSH2 0x2BDD JUMPI PUSH2 0x2BDC PUSH2 0x387C JUMP JUMPDEST JUMPDEST PUSH2 0x2BE8 DUP5 DUP3 DUP6 PUSH2 0x3740 JUMP JUMPDEST POP SWAP4 SWAP3 POP POP POP JUMP JUMPDEST PUSH1 0x0 DUP2 CALLDATALOAD SWAP1 POP PUSH2 0x2BFF DUP2 PUSH2 0x389C JUMP JUMPDEST SWAP3 SWAP2 POP POP JUMP JUMPDEST PUSH1 0x0 DUP3 PUSH1 0x1F DUP4 ADD SLT PUSH2 0x2C1A JUMPI PUSH2 0x2C19 PUSH2 0x3872 JUMP JUMPDEST JUMPDEST DUP2 CALLDATALOAD PUSH2 0x2C2A DUP5 DUP3 PUSH1 0x20 DUP7 ADD PUSH2 0x2B20 JUMP JUMPDEST SWAP2 POP POP SWAP3 SWAP2 POP POP JUMP JUMPDEST PUSH1 0x0 DUP3 PUSH1 0x1F DUP4 ADD SLT PUSH2 0x2C48 JUMPI PUSH2 0x2C47 PUSH2 0x3872 JUMP JUMPDEST JUMPDEST DUP2 CALLDATALOAD PUSH2 0x2C58 DUP5 DUP3 PUSH1 0x20 DUP7 ADD PUSH2 0x2BAE JUMP JUMPDEST SWAP2 POP POP SWAP3 SWAP2 POP POP JUMP JUMPDEST PUSH1 0x0 DUP2 CALLDATALOAD SWAP1 POP PUSH2 0x2C70 DUP2 PUSH2 0x38B3 JUMP JUMPDEST SWAP3 SWAP2 POP POP JUMP JUMPDEST PUSH1 0x0 PUSH1 0x20 DUP3 DUP5 SUB SLT ISZERO PUSH2 0x2C8C JUMPI PUSH2 0x2C8B PUSH2 0x3886 JUMP JUMPDEST JUMPDEST PUSH1 0x0 PUSH2 0x2C9A DUP5 DUP3 DUP6 ADD PUSH2 0x2BF0 JUMP JUMPDEST SWAP2 POP POP SWAP3 SWAP2 POP POP JUMP JUMPDEST PUSH1 0x0 DUP1 PUSH1 0x40 DUP4 DUP6 SUB SLT ISZERO PUSH2 0x2CBA JUMPI PUSH2 0x2CB9 PUSH2 0x3886 JUMP JUMPDEST JUMPDEST PUSH1 0x0 DUP4 ADD CALLDATALOAD PUSH8 0xFFFFFFFFFFFFFFFF DUP2 GT ISZERO PUSH2 0x2CD8 JUMPI PUSH2 0x2CD7 PUSH2 0x3881 JUMP JUMPDEST JUMPDEST PUSH2 0x2CE4 DUP6 DUP3 DUP7 ADD PUSH2 0x2C05 JUMP JUMPDEST SWAP3 POP POP PUSH1 0x20 DUP4 ADD CALLDATALOAD PUSH8 0xFFFFFFFFFFFFFFFF DUP2 GT ISZERO PUSH2 0x2D05 JUMPI PUSH2 0x2D04 PUSH2 0x3881 JUMP JUMPDEST JUMPDEST PUSH2 0x2D11 DUP6 DUP3 DUP7 ADD PUSH2 0x2C05 JUMP JUMPDEST SWAP2 POP POP SWAP3 POP SWAP3 SWAP1 POP JUMP JUMPDEST PUSH1 0x0 DUP1 PUSH1 0x0 PUSH1 0x60 DUP5 DUP7 SUB SLT ISZERO PUSH2 0x2D34 JUMPI PUSH2 0x2D33 PUSH2 0x3886 JUMP JUMPDEST JUMPDEST PUSH1 0x0 DUP5 ADD CALLDATALOAD PUSH8 0xFFFFFFFFFFFFFFFF DUP2 GT ISZERO PUSH2 0x2D52 JUMPI PUSH2 0x2D51 PUSH2 0x3881 JUMP JUMPDEST JUMPDEST PUSH2 0x2D5E DUP7 DUP3 DUP8 ADD PUSH2 0x2C05 JUMP JUMPDEST SWAP4 POP POP PUSH1 0x20 DUP5 ADD CALLDATALOAD PUSH8 0xFFFFFFFFFFFFFFFF DUP2 GT ISZERO PUSH2 0x2D7F JUMPI PUSH2 0x2D7E PUSH2 0x3881 JUMP JUMPDEST JUMPDEST PUSH2 0x2D8B DUP7 DUP3 DUP8 ADD PUSH2 0x2C05 JUMP JUMPDEST SWAP3 POP POP PUSH1 0x40 DUP5 ADD CALLDATALOAD PUSH8 0xFFFFFFFFFFFFFFFF DUP2 GT ISZERO PUSH2 0x2DAC JUMPI PUSH2 0x2DAB PUSH2 0x3881 JUMP JUMPDEST JUMPDEST PUSH2 0x2DB8 DUP7 DUP3 DUP8 ADD PUSH2 0x2C05 JUMP JUMPDEST SWAP2 POP POP SWAP3 POP SWAP3 POP SWAP3 JUMP JUMPDEST PUSH1 0x0 DUP1 PUSH1 0x40 DUP4 DUP6 SUB SLT ISZERO PUSH2 0x2DD9 JUMPI PUSH2 0x2DD8 PUSH2 0x3886 JUMP JUMPDEST JUMPDEST PUSH1 0x0 DUP4 ADD CALLDATALOAD PUSH8 0xFFFFFFFFFFFFFFFF DUP2 GT ISZERO PUSH2 0x2DF7 JUMPI PUSH2 0x2DF6 PUSH2 0x3881 JUMP JUMPDEST JUMPDEST PUSH2 0x2E03 DUP6 DUP3 DUP7 ADD PUSH2 0x2C33 JUMP JUMPDEST SWAP3 POP POP PUSH1 0x20 DUP4 ADD CALLDATALOAD PUSH8 0xFFFFFFFFFFFFFFFF DUP2 GT ISZERO PUSH2 0x2E24 JUMPI PUSH2 0x2E23 PUSH2 0x3881 JUMP JUMPDEST JUMPDEST PUSH2 0x2E30 DUP6 DUP3 DUP7 ADD PUSH2 0x2C33 JUMP JUMPDEST SWAP2 POP POP SWAP3 POP SWAP3 SWAP1 POP JUMP JUMPDEST PUSH1 0x0 DUP1 PUSH1 0x0 DUP1 PUSH1 0x0 PUSH1 0xA0 DUP7 DUP9 SUB SLT ISZERO PUSH2 0x2E56 JUMPI PUSH2 0x2E55 PUSH2 0x3886 JUMP JUMPDEST JUMPDEST PUSH1 0x0 DUP7 ADD CALLDATALOAD PUSH8 0xFFFFFFFFFFFFFFFF DUP2 GT ISZERO PUSH2 0x2E74 JUMPI PUSH2 0x2E73 PUSH2 0x3881 JUMP JUMPDEST JUMPDEST PUSH2 0x2E80 DUP9 DUP3 DUP10 ADD PUSH2 0x2C33 JUMP JUMPDEST SWAP6 POP POP PUSH1 0x20 DUP7 ADD CALLDATALOAD PUSH8 0xFFFFFFFFFFFFFFFF DUP2 GT ISZERO PUSH2 0x2EA1 JUMPI PUSH2 0x2EA0 PUSH2 0x3881 JUMP JUMPDEST JUMPDEST PUSH2 0x2EAD DUP9 DUP3 DUP10 ADD PUSH2 0x2C33 JUMP JUMPDEST SWAP5 POP POP PUSH1 0x40 DUP7 ADD CALLDATALOAD PUSH8 0xFFFFFFFFFFFFFFFF DUP2 GT ISZERO PUSH2 0x2ECE JUMPI PUSH2 0x2ECD PUSH2 0x3881 JUMP JUMPDEST JUMPDEST PUSH2 0x2EDA DUP9 DUP3 DUP10 ADD PUSH2 0x2C33 JUMP JUMPDEST SWAP4 POP POP PUSH1 0x60 DUP7 ADD CALLDATALOAD PUSH8 0xFFFFFFFFFFFFFFFF DUP2 GT ISZERO PUSH2 0x2EFB JUMPI PUSH2 0x2EFA PUSH2 0x3881 JUMP JUMPDEST JUMPDEST PUSH2 0x2F07 DUP9 DUP3 DUP10 ADD PUSH2 0x2C33 JUMP JUMPDEST SWAP3 POP POP PUSH1 0x80 DUP7 ADD CALLDATALOAD PUSH8 0xFFFFFFFFFFFFFFFF DUP2 GT ISZERO PUSH2 0x2F28 JUMPI PUSH2 0x2F27 PUSH2 0x3881 JUMP JUMPDEST JUMPDEST PUSH2 0x2F34 DUP9 DUP3 DUP10 ADD PUSH2 0x2C05 JUMP JUMPDEST SWAP2 POP POP SWAP3 SWAP6 POP SWAP3 SWAP6 SWAP1 SWAP4 POP JUMP JUMPDEST PUSH1 0x0 DUP1 PUSH1 0x0 DUP1 PUSH1 0x0 PUSH1 0xA0 DUP7 DUP9 SUB SLT ISZERO PUSH2 0x2F5D JUMPI PUSH2 0x2F5C PUSH2 0x3886 JUMP JUMPDEST JUMPDEST PUSH1 0x0 DUP7 ADD CALLDATALOAD PUSH8 0xFFFFFFFFFFFFFFFF DUP2 GT ISZERO PUSH2 0x2F7B JUMPI PUSH2 0x2F7A PUSH2 0x3881 JUMP JUMPDEST JUMPDEST PUSH2 0x2F87 DUP9 DUP3 DUP10 ADD PUSH2 0x2C33 JUMP JUMPDEST SWAP6 POP POP PUSH1 0x20 DUP7 ADD CALLDATALOAD PUSH8 0xFFFFFFFFFFFFFFFF DUP2 GT ISZERO PUSH2 0x2FA8 JUMPI PUSH2 0x2FA7 PUSH2 0x3881 JUMP JUMPDEST JUMPDEST PUSH2 0x2FB4 DUP9 DUP3 DUP10 ADD PUSH2 0x2C33 JUMP JUMPDEST SWAP5 POP POP PUSH1 0x40 DUP7 ADD CALLDATALOAD PUSH8 0xFFFFFFFFFFFFFFFF DUP2 GT ISZERO PUSH2 0x2FD5 JUMPI PUSH2 0x2FD4 PUSH2 0x3881 JUMP JUMPDEST JUMPDEST PUSH2 0x2FE1 DUP9 DUP3 DUP10 ADD PUSH2 0x2C33 JUMP JUMPDEST SWAP4 POP POP PUSH1 0x60 DUP7 ADD CALLDATALOAD PUSH8 0xFFFFFFFFFFFFFFFF DUP2 GT ISZERO PUSH2 0x3002 JUMPI PUSH2 0x3001 PUSH2 0x3881 JUMP JUMPDEST JUMPDEST PUSH2 0x300E DUP9 DUP3 DUP10 ADD PUSH2 0x2C33 JUMP JUMPDEST SWAP3 POP POP PUSH1 0x80 DUP7 ADD CALLDATALOAD PUSH8 0xFFFFFFFFFFFFFFFF DUP2 GT ISZERO PUSH2 0x302F JUMPI PUSH2 0x302E PUSH2 0x3881 JUMP JUMPDEST JUMPDEST PUSH2 0x303B DUP9 DUP3 DUP10 ADD PUSH2 0x2C33 JUMP JUMPDEST SWAP2 POP POP SWAP3 SWAP6 POP SWAP3 SWAP6 SWAP1 SWAP4 POP JUMP JUMPDEST PUSH1 0x0 DUP1 PUSH1 0x0 DUP1 PUSH1 0x0 DUP1 PUSH1 0xC0 DUP8 DUP10 SUB SLT ISZERO PUSH2 0x3065 JUMPI PUSH2 0x3064 PUSH2 0x3886 JUMP JUMPDEST JUMPDEST PUSH1 0x0 DUP8 ADD CALLDATALOAD PUSH8 0xFFFFFFFFFFFFFFFF DUP2 GT ISZERO PUSH2 0x3083 JUMPI PUSH2 0x3082 PUSH2 0x3881 JUMP JUMPDEST JUMPDEST PUSH2 0x308F DUP10 DUP3 DUP11 ADD PUSH2 0x2C33 JUMP JUMPDEST SWAP7 POP POP PUSH1 0x20 DUP8 ADD CALLDATALOAD PUSH8 0xFFFFFFFFFFFFFFFF DUP2 GT ISZERO PUSH2 0x30B0 JUMPI PUSH2 0x30AF PUSH2 0x3881 JUMP JUMPDEST JUMPDEST PUSH2 0x30BC DUP10 DUP3 DUP11 ADD PUSH2 0x2C33 JUMP JUMPDEST SWAP6 POP POP PUSH1 0x40 DUP8 ADD CALLDATALOAD PUSH8 0xFFFFFFFFFFFFFFFF DUP2 GT ISZERO PUSH2 0x30DD JUMPI PUSH2 0x30DC PUSH2 0x3881 JUMP JUMPDEST JUMPDEST PUSH2 0x30E9 DUP10 DUP3 DUP11 ADD PUSH2 0x2C33 JUMP JUMPDEST SWAP5 POP POP PUSH1 0x60 DUP8 ADD CALLDATALOAD PUSH8 0xFFFFFFFFFFFFFFFF DUP2 GT ISZERO PUSH2 0x310A JUMPI PUSH2 0x3109 PUSH2 0x3881 JUMP JUMPDEST JUMPDEST PUSH2 0x3116 DUP10 DUP3 DUP11 ADD PUSH2 0x2C33 JUMP JUMPDEST SWAP4 POP POP PUSH1 0x80 DUP8 ADD CALLDATALOAD PUSH8 0xFFFFFFFFFFFFFFFF DUP2 GT ISZERO PUSH2 0x3137 JUMPI PUSH2 0x3136 PUSH2 0x3881 JUMP JUMPDEST JUMPDEST PUSH2 0x3143 DUP10 DUP3 DUP11 ADD PUSH2 0x2C33 JUMP JUMPDEST SWAP3 POP POP PUSH1 0xA0 DUP8 ADD CALLDATALOAD PUSH8 0xFFFFFFFFFFFFFFFF DUP2 GT ISZERO PUSH2 0x3164 JUMPI PUSH2 0x3163 PUSH2 0x3881 JUMP JUMPDEST JUMPDEST PUSH2 0x3170 DUP10 DUP3 DUP11 ADD PUSH2 0x2C33 JUMP JUMPDEST SWAP2 POP POP SWAP3 SWAP6 POP SWAP3 SWAP6 POP SWAP3 SWAP6 JUMP JUMPDEST PUSH1 0x0 PUSH1 0x20 DUP3 DUP5 SUB SLT ISZERO PUSH2 0x3193 JUMPI PUSH2 0x3192 PUSH2 0x3886 JUMP JUMPDEST JUMPDEST PUSH1 0x0 PUSH2 0x31A1 DUP5 DUP3 DUP6 ADD PUSH2 0x2C61 JUMP JUMPDEST SWAP2 POP POP SWAP3 SWAP2 POP POP JUMP JUMPDEST PUSH1 0x0 PUSH2 0x31B6 DUP4 DUP4 PUSH2 0x3242 JUMP JUMPDEST SWAP1 POP SWAP3 SWAP2 POP POP JUMP JUMPDEST PUSH2 0x31C7 DUP2 PUSH2 0x3704 JUMP JUMPDEST DUP3 MSTORE POP POP JUMP JUMPDEST PUSH1 0x0 PUSH2 0x31D8 DUP3 PUSH2 0x36AE JUMP JUMPDEST PUSH2 0x31E2 DUP2 DUP6 PUSH2 0x36D1 JUMP JUMPDEST SWAP4 POP DUP4 PUSH1 0x20 DUP3 MUL DUP6 ADD PUSH2 0x31F4 DUP6 PUSH2 0x369E JUMP JUMPDEST DUP1 PUSH1 0x0 JUMPDEST DUP6 DUP2 LT ISZERO PUSH2 0x3230 JUMPI DUP5 DUP5 SUB DUP10 MSTORE DUP2 MLOAD PUSH2 0x3211 DUP6 DUP3 PUSH2 0x31AA JUMP JUMPDEST SWAP5 POP PUSH2 0x321C DUP4 PUSH2 0x36C4 JUMP JUMPDEST SWAP3 POP PUSH1 0x20 DUP11 ADD SWAP10 POP POP PUSH1 0x1 DUP2 ADD SWAP1 POP PUSH2 0x31F8 JUMP JUMPDEST POP DUP3 SWAP8 POP DUP8 SWAP6 POP POP POP POP POP POP SWAP3 SWAP2 POP POP JUMP JUMPDEST PUSH1 0x0 PUSH2 0x324D DUP3 PUSH2 0x36B9 JUMP JUMPDEST PUSH2 0x3257 DUP2 DUP6 PUSH2 0x36E2 JUMP JUMPDEST SWAP4 POP PUSH2 0x3267 DUP2 DUP6 PUSH1 0x20 DUP7 ADD PUSH2 0x374F JUMP JUMPDEST PUSH2 0x3270 DUP2 PUSH2 0x388B JUMP JUMPDEST DUP5 ADD SWAP2 POP POP SWAP3 SWAP2 POP POP JUMP JUMPDEST PUSH1 0x0 PUSH2 0x3286 DUP3 PUSH2 0x36B9 JUMP JUMPDEST PUSH2 0x3290 DUP2 DUP6 PUSH2 0x36F3 JUMP JUMPDEST SWAP4 POP PUSH2 0x32A0 DUP2 DUP6 PUSH1 0x20 DUP7 ADD PUSH2 0x374F JUMP JUMPDEST PUSH2 0x32A9 DUP2 PUSH2 0x388B JUMP JUMPDEST DUP5 ADD SWAP2 POP POP SWAP3 SWAP2 POP POP JUMP JUMPDEST PUSH1 0x0 PUSH1 0x40 DUP4 ADD PUSH1 0x0 DUP4 ADD MLOAD DUP5 DUP3 SUB PUSH1 0x0 DUP7 ADD MSTORE PUSH2 0x32D1 DUP3 DUP3 PUSH2 0x31CD JUMP JUMPDEST SWAP2 POP POP PUSH1 0x20 DUP4 ADD MLOAD DUP5 DUP3 SUB PUSH1 0x20 DUP7 ADD MSTORE PUSH2 0x32EB DUP3 DUP3 PUSH2 0x31CD JUMP JUMPDEST SWAP2 POP POP DUP1 SWAP2 POP POP SWAP3 SWAP2 POP POP JUMP JUMPDEST PUSH1 0x0 PUSH1 0xC0 DUP4 ADD PUSH1 0x0 DUP4 ADD MLOAD DUP5 DUP3 SUB PUSH1 0x0 DUP7 ADD MSTORE PUSH2 0x3315 DUP3 DUP3 PUSH2 0x3242 JUMP JUMPDEST SWAP2 POP POP PUSH1 0x20 DUP4 ADD MLOAD DUP5 DUP3 SUB PUSH1 0x20 DUP7 ADD MSTORE PUSH2 0x332F DUP3 DUP3 PUSH2 0x3242 JUMP JUMPDEST SWAP2 POP POP PUSH1 0x40 DUP4 ADD MLOAD DUP5 DUP3 SUB PUSH1 0x40 DUP7 ADD MSTORE PUSH2 0x3349 DUP3 DUP3 PUSH2 0x3242 JUMP JUMPDEST SWAP2 POP POP PUSH1 0x60 DUP4 ADD MLOAD DUP5 DUP3 SUB PUSH1 0x60 DUP7 ADD MSTORE PUSH2 0x3363 DUP3 DUP3 PUSH2 0x3242 JUMP JUMPDEST SWAP2 POP POP PUSH1 0x80 DUP4 ADD MLOAD DUP5 DUP3 SUB PUSH1 0x80 DUP7 ADD MSTORE PUSH2 0x337D DUP3 DUP3 PUSH2 0x3242 JUMP JUMPDEST SWAP2 POP POP PUSH1 0xA0 DUP4 ADD MLOAD DUP5 DUP3 SUB PUSH1 0xA0 DUP7 ADD MSTORE PUSH2 0x3397 DUP3 DUP3 PUSH2 0x3242 JUMP JUMPDEST SWAP2 POP POP DUP1 SWAP2 POP POP SWAP3 SWAP2 POP POP JUMP JUMPDEST PUSH1 0x0 PUSH2 0x100 DUP4 ADD PUSH1 0x0 DUP4 ADD MLOAD DUP5 DUP3 SUB PUSH1 0x0 DUP7 ADD MSTORE PUSH2 0x33C2 DUP3 DUP3 PUSH2 0x3242 JUMP JUMPDEST SWAP2 POP POP PUSH1 0x20 DUP4 ADD MLOAD DUP5 DUP3 SUB PUSH1 0x20 DUP7 ADD MSTORE PUSH2 0x33DC DUP3 DUP3 PUSH2 0x3242 JUMP JUMPDEST SWAP2 POP POP PUSH1 0x40 DUP4 ADD MLOAD PUSH2 0x33F1 PUSH1 0x40 DUP7 ADD DUP3 PUSH2 0x31BE JUMP JUMPDEST POP PUSH1 0x60 DUP4 ADD MLOAD DUP5 DUP3 SUB PUSH1 0x60 DUP7 ADD MSTORE PUSH2 0x3409 DUP3 DUP3 PUSH2 0x3242 JUMP JUMPDEST SWAP2 POP POP PUSH1 0x80 DUP4 ADD MLOAD DUP5 DUP3 SUB PUSH1 0x80 DUP7 ADD MSTORE PUSH2 0x3423 DUP3 DUP3 PUSH2 0x3242 JUMP JUMPDEST SWAP2 POP POP PUSH1 0xA0 DUP4 ADD MLOAD DUP5 DUP3 SUB PUSH1 0xA0 DUP7 ADD MSTORE PUSH2 0x343D DUP3 DUP3 PUSH2 0x3242 JUMP JUMPDEST SWAP2 POP POP PUSH1 0xC0 DUP4 ADD MLOAD DUP5 DUP3 SUB PUSH1 0xC0 DUP7 ADD MSTORE PUSH2 0x3457 DUP3 DUP3 PUSH2 0x3242 JUMP JUMPDEST SWAP2 POP POP PUSH1 0xE0 DUP4 ADD MLOAD PUSH2 0x346C PUSH1 0xE0 DUP7 ADD DUP3 PUSH2 0x34D5 JUMP JUMPDEST POP DUP1 SWAP2 POP POP SWAP3 SWAP2 POP POP JUMP JUMPDEST PUSH1 0x0 PUSH1 0x60 DUP4 ADD PUSH1 0x0 DUP4 ADD MLOAD DUP5 DUP3 SUB PUSH1 0x0 DUP7 ADD MSTORE PUSH2 0x3494 DUP3 DUP3 PUSH2 0x31CD JUMP JUMPDEST SWAP2 POP POP PUSH1 0x20 DUP4 ADD MLOAD DUP5 DUP3 SUB PUSH1 0x20 DUP7 ADD MSTORE PUSH2 0x34AE DUP3 DUP3 PUSH2 0x31CD JUMP JUMPDEST SWAP2 POP POP PUSH1 0x40 DUP4 ADD MLOAD DUP5 DUP3 SUB PUSH1 0x40 DUP7 ADD MSTORE PUSH2 0x34C8 DUP3 DUP3 PUSH2 0x31CD JUMP JUMPDEST SWAP2 POP POP DUP1 SWAP2 POP POP SWAP3 SWAP2 POP POP JUMP JUMPDEST PUSH2 0x34DE DUP2 PUSH2 0x3736 JUMP JUMPDEST DUP3 MSTORE POP POP JUMP JUMPDEST PUSH2 0x34ED DUP2 PUSH2 0x3736 JUMP JUMPDEST DUP3 MSTORE POP POP JUMP JUMPDEST PUSH1 0x0 PUSH1 0x40 DUP3 ADD SWAP1 POP DUP2 DUP2 SUB PUSH1 0x0 DUP4 ADD MSTORE PUSH2 0x350D DUP2 DUP6 PUSH2 0x327B JUMP JUMPDEST SWAP1 POP DUP2 DUP2 SUB PUSH1 0x20 DUP4 ADD MSTORE PUSH2 0x3521 DUP2 DUP5 PUSH2 0x327B JUMP JUMPDEST SWAP1 POP SWAP4 SWAP3 POP POP POP JUMP JUMPDEST PUSH1 0x0 PUSH1 0xA0 DUP3 ADD SWAP1 POP DUP2 DUP2 SUB PUSH1 0x0 DUP4 ADD MSTORE PUSH2 0x3544 DUP2 DUP9 PUSH2 0x327B JUMP JUMPDEST SWAP1 POP DUP2 DUP2 SUB PUSH1 0x20 DUP4 ADD MSTORE PUSH2 0x3558 DUP2 DUP8 PUSH2 0x327B JUMP JUMPDEST SWAP1 POP DUP2 DUP2 SUB PUSH1 0x40 DUP4 ADD MSTORE PUSH2 0x356C DUP2 DUP7 PUSH2 0x327B JUMP JUMPDEST SWAP1 POP DUP2 DUP2 SUB PUSH1 0x60 DUP4 ADD MSTORE PUSH2 0x3580 DUP2 DUP6 PUSH2 0x327B JUMP JUMPDEST SWAP1 POP DUP2 DUP2 SUB PUSH1 0x80 DUP4 ADD MSTORE PUSH2 0x3594 DUP2 DUP5 PUSH2 0x327B JUMP JUMPDEST SWAP1 POP SWAP7 SWAP6 POP POP POP POP POP POP JUMP JUMPDEST PUSH1 0x0 PUSH1 0x80 DUP3 ADD SWAP1 POP DUP2 DUP2 SUB PUSH1 0x0 DUP4 ADD MSTORE PUSH2 0x35BA DUP2 DUP8 PUSH2 0x33A4 JUMP JUMPDEST SWAP1 POP DUP2 DUP2 SUB PUSH1 0x20 DUP4 ADD MSTORE PUSH2 0x35CE DUP2 DUP7 PUSH2 0x32F8 JUMP JUMPDEST SWAP1 POP DUP2 DUP2 SUB PUSH1 0x40 DUP4 ADD MSTORE PUSH2 0x35E2 DUP2 DUP6 PUSH2 0x3477 JUMP JUMPDEST SWAP1 POP DUP2 DUP2 SUB PUSH1 0x60 DUP4 ADD MSTORE PUSH2 0x35F6 DUP2 DUP5 PUSH2 0x32B4 JUMP JUMPDEST SWAP1 POP SWAP6 SWAP5 POP POP POP POP POP JUMP JUMPDEST PUSH1 0x0 PUSH1 0x20 DUP3 ADD SWAP1 POP PUSH2 0x3616 PUSH1 0x0 DUP4 ADD DUP5 PUSH2 0x34E4 JUMP JUMPDEST SWAP3 SWAP2 POP POP JUMP JUMPDEST PUSH1 0x0 PUSH2 0x3626 PUSH2 0x3637 JUMP JUMPDEST SWAP1 POP PUSH2 0x3632 DUP3 DUP3 PUSH2 0x37B4 JUMP JUMPDEST SWAP2 SWAP1 POP JUMP JUMPDEST PUSH1 0x0 PUSH1 0x40 MLOAD SWAP1 POP SWAP1 JUMP JUMPDEST PUSH1 0x0 PUSH8 0xFFFFFFFFFFFFFFFF DUP3 GT ISZERO PUSH2 0x365C JUMPI PUSH2 0x365B PUSH2 0x3843 JUMP JUMPDEST JUMPDEST PUSH1 0x20 DUP3 MUL SWAP1 POP PUSH1 0x20 DUP2 ADD SWAP1 POP SWAP2 SWAP1 POP JUMP JUMPDEST PUSH1 0x0 PUSH8 0xFFFFFFFFFFFFFFFF DUP3 GT ISZERO PUSH2 0x3688 JUMPI PUSH2 0x3687 PUSH2 0x3843 JUMP JUMPDEST JUMPDEST PUSH2 0x3691 DUP3 PUSH2 0x388B JUMP JUMPDEST SWAP1 POP PUSH1 0x20 DUP2 ADD SWAP1 POP SWAP2 SWAP1 POP JUMP JUMPDEST PUSH1 0x0 DUP2 SWAP1 POP PUSH1 0x20 DUP3 ADD SWAP1 POP SWAP2 SWAP1 POP JUMP JUMPDEST PUSH1 0x0 DUP2 MLOAD SWAP1 POP SWAP2 SWAP1 POP JUMP JUMPDEST PUSH1 0x0 DUP2 MLOAD SWAP1 POP SWAP2 SWAP1 POP JUMP JUMPDEST PUSH1 0x0 PUSH1 0x20 DUP3 ADD SWAP1 POP SWAP2 SWAP1 POP JUMP JUMPDEST PUSH1 0x0 DUP3 DUP3 MSTORE PUSH1 0x20 DUP3 ADD SWAP1 POP SWAP3 SWAP2 POP POP JUMP JUMPDEST PUSH1 0x0 DUP3 DUP3 MSTORE PUSH1 0x20 DUP3 ADD SWAP1 POP SWAP3 SWAP2 POP POP JUMP JUMPDEST PUSH1 0x0 DUP3 DUP3 MSTORE PUSH1 0x20 DUP3 ADD SWAP1 POP SWAP3 SWAP2 POP POP JUMP JUMPDEST PUSH1 0x0 PUSH2 0x370F DUP3 PUSH2 0x3716 JUMP JUMPDEST SWAP1 POP SWAP2 SWAP1 POP JUMP JUMPDEST PUSH1 0x0 PUSH20 0xFFFFFFFFFFFFFFFFFFFFFFFFFFFFFFFFFFFFFFFF DUP3 AND SWAP1 POP SWAP2 SWAP1 POP JUMP JUMPDEST PUSH1 0x0 DUP2 SWAP1 POP SWAP2 SWAP1 POP JUMP JUMPDEST DUP3 DUP2 DUP4 CALLDATACOPY PUSH1 0x0 DUP4 DUP4 ADD MSTORE POP POP POP JUMP JUMPDEST PUSH1 0x0 JUMPDEST DUP4 DUP2 LT ISZERO PUSH2 0x376D JUMPI DUP1 DUP3 ADD MLOAD DUP2 DUP5 ADD MSTORE PUSH1 0x20 DUP2 ADD SWAP1 POP PUSH2 0x3752 JUMP JUMPDEST DUP4 DUP2 GT ISZERO PUSH2 0x377C JUMPI PUSH1 0x0 DUP5 DUP5 ADD MSTORE JUMPDEST POP POP POP POP JUMP JUMPDEST PUSH1 0x0 PUSH1 0x2 DUP3 DIV SWAP1 POP PUSH1 0x1 DUP3 AND DUP1 PUSH2 0x379A JUMPI PUSH1 0x7F DUP3 AND SWAP2 POP JUMPDEST PUSH1 0x20 DUP3 LT DUP2 EQ ISZERO PUSH2 0x37AE JUMPI PUSH2 0x37AD PUSH2 0x37E5 JUMP JUMPDEST JUMPDEST POP SWAP2 SWAP1 POP JUMP JUMPDEST PUSH2 0x37BD DUP3 PUSH2 0x388B JUMP JUMPDEST DUP2 ADD DUP2 DUP2 LT PUSH8 0xFFFFFFFFFFFFFFFF DUP3 GT OR ISZERO PUSH2 0x37DC JUMPI PUSH2 0x37DB PUSH2 0x3843 JUMP JUMPDEST JUMPDEST DUP1 PUSH1 0x40 MSTORE POP POP POP JUMP JUMPDEST PUSH32 0x4E487B7100000000000000000000000000000000000000000000000000000000 PUSH1 0x0 MSTORE PUSH1 0x22 PUSH1 0x4 MSTORE PUSH1 0x24 PUSH1 0x0 REVERT JUMPDEST PUSH32 0x4E487B7100000000000000000000000000000000000000000000000000000000 PUSH1 0x0 MSTORE PUSH1 0x32 PUSH1 0x4 MSTORE PUSH1 0x24 PUSH1 0x0 REVERT JUMPDEST PUSH32 0x4E487B7100000000000000000000000000000000000000000000000000000000 PUSH1 0x0 MSTORE PUSH1 0x41 PUSH1 0x4 MSTORE PUSH1 0x24 PUSH1 0x0 REVERT JUMPDEST PUSH1 0x0 DUP1 REVERT JUMPDEST PUSH1 0x0 DUP1 REVERT JUMPDEST PUSH1 0x0 DUP1 REVERT JUMPDEST PUSH1 0x0 DUP1 REVERT JUMPDEST PUSH1 0x0 DUP1 REVERT JUMPDEST PUSH1 0x0 PUSH1 0x1F NOT PUSH1 0x1F DUP4 ADD AND SWAP1 POP SWAP2 SWAP1 POP JUMP JUMPDEST PUSH2 0x38A5 DUP2 PUSH2 0x3704 JUMP JUMPDEST DUP2 EQ PUSH2 0x38B0 JUMPI PUSH1 0x0 DUP1 REVERT JUMPDEST POP JUMP JUMPDEST PUSH2 0x38BC DUP2 PUSH2 0x3736 JUMP JUMPDEST DUP2 EQ PUSH2 0x38C7 JUMPI PUSH1 0x0 DUP1 REVERT JUMPDEST POP JUMP INVALID LOG2 PUSH5 0x6970667358 0x22 SLT KECCAK256 CODESIZE 0xE9 CALL 0xDF 0x26 MSTORE8 MLOAD 0xB9 LOG1 DUP16 0xFC MLOAD 0xAE PUSH22 0x8308DCB427B0A11840840A24BF6ADC3C1DEA64736F6C PUSH4 0x43000807 STOP CALLER "
				},
				"gasEstimates": {
					"creation": {
						"codeDepositCost": "2918400",
						"executionCost": "3193",
						"totalCost": "2921593"
					},
					"external": {
						"createAward(string[],string[])": "infinite",
						"createCompanyExperience(string,string,string,string,string[])": "infinite",
						"createContract(string,string,string,string,string)": "infinite",
						"createEducation(string,string,string,string,string)": "infinite",
						"createFreelanceExperience(string,string)": "infinite",
						"createInformation(string,string,string,string,string,string)": "infinite",
						"createSkill(string[],string[],string[])": "infinite",
						"delAllEducation()": "infinite",
						"delCertificateAndAward()": "infinite",
						"delCompanyExperience()": "infinite",
						"delFreelanceExperience()": "infinite",
						"delInformaion()": "infinite",
						"delProfile()": "infinite",
						"getCompanyExperience(uint256)": "infinite",
						"getCompanyExperienceCount()": "2563",
						"getEducation(uint256)": "infinite",
						"getEducationCount()": "2629",
						"getFreelanceExperience(uint256)": "infinite",
						"getFreelanceExperienceCount()": "2564",
						"myBalance()": "2986",
						"profile(address)": "infinite"
					}
				},
				"methodIdentifiers": {
					"createAward(string[],string[])": "6c2cc774",
					"createCompanyExperience(string,string,string,string,string[])": "2a70da29",
					"createContract(string,string,string,string,string)": "72828388",
					"createEducation(string,string,string,string,string)": "c8ae20ff",
					"createFreelanceExperience(string,string)": "322a9849",
					"createInformation(string,string,string,string,string,string)": "958791ae",
					"createSkill(string[],string[],string[])": "3d984d0e",
					"delAllEducation()": "ed2217ef",
					"delCertificateAndAward()": "4ed74067",
					"delCompanyExperience()": "b240c619",
					"delFreelanceExperience()": "119d4cac",
					"delInformaion()": "95ea3757",
					"delProfile()": "fabce08f",
					"getCompanyExperience(uint256)": "47282f47",
					"getCompanyExperienceCount()": "420d8667",
					"getEducation(uint256)": "f96e32f8",
					"getEducationCount()": "6212fa02",
					"getFreelanceExperience(uint256)": "eb409730",
					"getFreelanceExperienceCount()": "10301638",
					"myBalance()": "c9116b69",
					"profile(address)": "9dd9d0fd"
				}
			},
			"storageLayout": {
				"storage": [
					{
						"astId": 31,
						"contract": "contracts/Profile.sol:Profile",
						"label": "profile",
						"offset": 0,
						"slot": "0",
						"type": "t_mapping(t_address,t_struct(Bio)26_storage)"
					}
				],
				"types": {
					"t_address": {
						"encoding": "inplace",
						"label": "address",
						"numberOfBytes": "20"
					},
					"t_array(t_string_storage)dyn_storage": {
						"base": "t_string_storage",
						"encoding": "dynamic_array",
						"label": "string[]",
						"numberOfBytes": "32"
					},
					"t_array(t_struct(CompanyExperience)83_storage)dyn_storage": {
						"base": "t_struct(CompanyExperience)83_storage",
						"encoding": "dynamic_array",
						"label": "struct Profile.CompanyExperience[]",
						"numberOfBytes": "32"
					},
					"t_array(t_struct(Education)99_storage)dyn_storage": {
						"base": "t_struct(Education)99_storage",
						"encoding": "dynamic_array",
						"label": "struct Profile.Education[]",
						"numberOfBytes": "32"
					},
					"t_array(t_struct(FreelanceExperience)88_storage)dyn_storage": {
						"base": "t_struct(FreelanceExperience)88_storage",
						"encoding": "dynamic_array",
						"label": "struct Profile.FreelanceExperience[]",
						"numberOfBytes": "32"
					},
					"t_mapping(t_address,t_struct(Bio)26_storage)": {
						"encoding": "mapping",
						"key": "t_address",
						"label": "mapping(address => struct Profile.Bio)",
						"numberOfBytes": "32",
						"value": "t_struct(Bio)26_storage"
					},
					"t_string_storage": {
						"encoding": "bytes",
						"label": "string",
						"numberOfBytes": "32"
					},
					"t_struct(Bio)26_storage": {
						"encoding": "inplace",
						"label": "struct Profile.Bio",
						"members": [
							{
								"astId": 4,
								"contract": "contracts/Profile.sol:Profile",
								"label": "information",
								"offset": 0,
								"slot": "0",
								"type": "t_struct(Information)48_storage"
							},
							{
								"astId": 7,
								"contract": "contracts/Profile.sol:Profile",
								"label": "privateContract",
								"offset": 0,
								"slot": "8",
								"type": "t_struct(Contract)61_storage"
							},
							{
								"astId": 10,
								"contract": "contracts/Profile.sol:Profile",
								"label": "skill",
								"offset": 0,
								"slot": "14",
								"type": "t_struct(Skill)71_storage"
							},
							{
								"astId": 14,
								"contract": "contracts/Profile.sol:Profile",
								"label": "education",
								"offset": 0,
								"slot": "17",
								"type": "t_array(t_struct(Education)99_storage)dyn_storage"
							},
							{
								"astId": 17,
								"contract": "contracts/Profile.sol:Profile",
								"label": "certificateAndAward",
								"offset": 0,
								"slot": "18",
								"type": "t_struct(CertificateAndAward)106_storage"
							},
							{
								"astId": 21,
								"contract": "contracts/Profile.sol:Profile",
								"label": "companyExperience",
								"offset": 0,
								"slot": "20",
								"type": "t_array(t_struct(CompanyExperience)83_storage)dyn_storage"
							},
							{
								"astId": 25,
								"contract": "contracts/Profile.sol:Profile",
								"label": "freelanceExperience",
								"offset": 0,
								"slot": "21",
								"type": "t_array(t_struct(FreelanceExperience)88_storage)dyn_storage"
							}
						],
						"numberOfBytes": "704"
					},
					"t_struct(CertificateAndAward)106_storage": {
						"encoding": "inplace",
						"label": "struct Profile.CertificateAndAward",
						"members": [
							{
								"astId": 102,
								"contract": "contracts/Profile.sol:Profile",
								"label": "certificate",
								"offset": 0,
								"slot": "0",
								"type": "t_array(t_string_storage)dyn_storage"
							},
							{
								"astId": 105,
								"contract": "contracts/Profile.sol:Profile",
								"label": "award",
								"offset": 0,
								"slot": "1",
								"type": "t_array(t_string_storage)dyn_storage"
							}
						],
						"numberOfBytes": "64"
					},
					"t_struct(CompanyExperience)83_storage": {
						"encoding": "inplace",
						"label": "struct Profile.CompanyExperience",
						"members": [
							{
								"astId": 73,
								"contract": "contracts/Profile.sol:Profile",
								"label": "companyName",
								"offset": 0,
								"slot": "0",
								"type": "t_string_storage"
							},
							{
								"astId": 75,
								"contract": "contracts/Profile.sol:Profile",
								"label": "position",
								"offset": 0,
								"slot": "1",
								"type": "t_string_storage"
							},
							{
								"astId": 77,
								"contract": "contracts/Profile.sol:Profile",
								"label": "startDate",
								"offset": 0,
								"slot": "2",
								"type": "t_string_storage"
							},
							{
								"astId": 79,
								"contract": "contracts/Profile.sol:Profile",
								"label": "endDate",
								"offset": 0,
								"slot": "3",
								"type": "t_string_storage"
							},
							{
								"astId": 82,
								"contract": "contracts/Profile.sol:Profile",
								"label": "project",
								"offset": 0,
								"slot": "4",
								"type": "t_array(t_string_storage)dyn_storage"
							}
						],
						"numberOfBytes": "160"
					},
					"t_struct(Contract)61_storage": {
						"encoding": "inplace",
						"label": "struct Profile.Contract",
						"members": [
							{
								"astId": 50,
								"contract": "contracts/Profile.sol:Profile",
								"label": "aboutMe",
								"offset": 0,
								"slot": "0",
								"type": "t_string_storage"
							},
							{
								"astId": 52,
								"contract": "contracts/Profile.sol:Profile",
								"label": "email",
								"offset": 0,
								"slot": "1",
								"type": "t_string_storage"
							},
							{
								"astId": 54,
								"contract": "contracts/Profile.sol:Profile",
								"label": "phone",
								"offset": 0,
								"slot": "2",
								"type": "t_string_storage"
							},
							{
								"astId": 56,
								"contract": "contracts/Profile.sol:Profile",
								"label": "github",
								"offset": 0,
								"slot": "3",
								"type": "t_string_storage"
							},
							{
								"astId": 58,
								"contract": "contracts/Profile.sol:Profile",
								"label": "gitlab",
								"offset": 0,
								"slot": "4",
								"type": "t_string_storage"
							},
							{
								"astId": 60,
								"contract": "contracts/Profile.sol:Profile",
								"label": "linkedin",
								"offset": 0,
								"slot": "5",
								"type": "t_string_storage"
							}
						],
						"numberOfBytes": "192"
					},
					"t_struct(Education)99_storage": {
						"encoding": "inplace",
						"label": "struct Profile.Education",
						"members": [
							{
								"astId": 90,
								"contract": "contracts/Profile.sol:Profile",
								"label": "startDate",
								"offset": 0,
								"slot": "0",
								"type": "t_string_storage"
							},
							{
								"astId": 92,
								"contract": "contracts/Profile.sol:Profile",
								"label": "endDate",
								"offset": 0,
								"slot": "1",
								"type": "t_string_storage"
							},
							{
								"astId": 94,
								"contract": "contracts/Profile.sol:Profile",
								"label": "university",
								"offset": 0,
								"slot": "2",
								"type": "t_string_storage"
							},
							{
								"astId": 96,
								"contract": "contracts/Profile.sol:Profile",
								"label": "major",
								"offset": 0,
								"slot": "3",
								"type": "t_string_storage"
							},
							{
								"astId": 98,
								"contract": "contracts/Profile.sol:Profile",
								"label": "finalProject",
								"offset": 0,
								"slot": "4",
								"type": "t_string_storage"
							}
						],
						"numberOfBytes": "160"
					},
					"t_struct(FreelanceExperience)88_storage": {
						"encoding": "inplace",
						"label": "struct Profile.FreelanceExperience",
						"members": [
							{
								"astId": 85,
								"contract": "contracts/Profile.sol:Profile",
								"label": "projectName",
								"offset": 0,
								"slot": "0",
								"type": "t_string_storage"
							},
							{
								"astId": 87,
								"contract": "contracts/Profile.sol:Profile",
								"label": "Detail",
								"offset": 0,
								"slot": "1",
								"type": "t_string_storage"
							}
						],
						"numberOfBytes": "64"
					},
					"t_struct(Information)48_storage": {
						"encoding": "inplace",
						"label": "struct Profile.Information",
						"members": [
							{
								"astId": 33,
								"contract": "contracts/Profile.sol:Profile",
								"label": "aboutMe",
								"offset": 0,
								"slot": "0",
								"type": "t_string_storage"
							},
							{
								"astId": 35,
								"contract": "contracts/Profile.sol:Profile",
								"label": "position",
								"offset": 0,
								"slot": "1",
								"type": "t_string_storage"
							},
							{
								"astId": 37,
								"contract": "contracts/Profile.sol:Profile",
								"label": "userAddress",
								"offset": 0,
								"slot": "2",
								"type": "t_address"
							},
							{
								"astId": 39,
								"contract": "contracts/Profile.sol:Profile",
								"label": "firstName",
								"offset": 0,
								"slot": "3",
								"type": "t_string_storage"
							},
							{
								"astId": 41,
								"contract": "contracts/Profile.sol:Profile",
								"label": "middleName",
								"offset": 0,
								"slot": "4",
								"type": "t_string_storage"
							},
							{
								"astId": 43,
								"contract": "contracts/Profile.sol:Profile",
								"label": "lastName",
								"offset": 0,
								"slot": "5",
								"type": "t_string_storage"
							},
							{
								"astId": 45,
								"contract": "contracts/Profile.sol:Profile",
								"label": "profileImage",
								"offset": 0,
								"slot": "6",
								"type": "t_string_storage"
							},
							{
								"astId": 47,
								"contract": "contracts/Profile.sol:Profile",
								"label": "createDate",
								"offset": 0,
								"slot": "7",
								"type": "t_uint256"
							}
						],
						"numberOfBytes": "256"
					},
					"t_struct(Skill)71_storage": {
						"encoding": "inplace",
						"label": "struct Profile.Skill",
						"members": [
							{
								"astId": 64,
								"contract": "contracts/Profile.sol:Profile",
								"label": "programmingLanguages",
								"offset": 0,
								"slot": "0",
								"type": "t_array(t_string_storage)dyn_storage"
							},
							{
								"astId": 67,
								"contract": "contracts/Profile.sol:Profile",
								"label": "framework",
								"offset": 0,
								"slot": "1",
								"type": "t_array(t_string_storage)dyn_storage"
							},
							{
								"astId": 70,
								"contract": "contracts/Profile.sol:Profile",
								"label": "databaseAndOther",
								"offset": 0,
								"slot": "2",
								"type": "t_array(t_string_storage)dyn_storage"
							}
						],
						"numberOfBytes": "96"
					},
					"t_uint256": {
						"encoding": "inplace",
						"label": "uint256",
						"numberOfBytes": "32"
					}
				}
			},
			"userdoc": {
				"kind": "user",
				"methods": {},
				"version": 1
			}
		}
	}
}