{
	"contracts/Profile.sol": {
		"Profile": {
			"abi": [
				{
					"inputs": [
						{
							"internalType": "string",
							"name": "firstName",
							"type": "string"
						},
						{
							"internalType": "string",
							"name": "middleName",
							"type": "string"
						},
						{
							"internalType": "string",
							"name": "lastName",
							"type": "string"
						},
						{
							"internalType": "string",
							"name": "profileImage",
							"type": "string"
						}
					],
					"name": "createBio",
					"outputs": [],
					"stateMutability": "nonpayable",
					"type": "function"
				},
				{
					"inputs": [
						{
							"internalType": "string",
							"name": "email",
							"type": "string"
						},
						{
							"internalType": "string",
							"name": "phone",
							"type": "string"
						},
						{
							"internalType": "string",
							"name": "github",
							"type": "string"
						},
						{
							"internalType": "string",
							"name": "gitlab",
							"type": "string"
						},
						{
							"internalType": "string",
							"name": "linkin",
							"type": "string"
						}
					],
					"name": "createContract",
					"outputs": [],
					"stateMutability": "nonpayable",
					"type": "function"
				},
				{
					"inputs": [
						{
							"internalType": "string[]",
							"name": "frontend",
							"type": "string[]"
						},
						{
							"internalType": "string[]",
							"name": "backend",
							"type": "string[]"
						},
						{
							"internalType": "string[]",
							"name": "framework",
							"type": "string[]"
						}
					],
					"name": "createSkill",
					"outputs": [],
					"stateMutability": "nonpayable",
					"type": "function"
				},
				{
					"inputs": [
						{
							"internalType": "string",
							"name": "startDate",
							"type": "string"
						},
						{
							"internalType": "string",
							"name": "endDate",
							"type": "string"
						},
						{
							"internalType": "string",
							"name": "univercity",
							"type": "string"
						}
					],
					"name": "createUnivercity",
					"outputs": [],
					"stateMutability": "nonpayable",
					"type": "function"
				},
				{
					"inputs": [],
					"name": "delProfile",
					"outputs": [],
					"stateMutability": "nonpayable",
					"type": "function"
				},
				{
					"inputs": [],
					"name": "getEducation",
					"outputs": [
						{
							"components": [
								{
									"internalType": "string",
									"name": "startDate",
									"type": "string"
								},
								{
									"internalType": "string",
									"name": "endDate",
									"type": "string"
								},
								{
									"internalType": "string",
									"name": "univercity",
									"type": "string"
								}
							],
							"internalType": "struct Profile.Education",
							"name": "",
							"type": "tuple"
						}
					],
					"stateMutability": "view",
					"type": "function"
				},
				{
					"inputs": [
						{
							"internalType": "address",
							"name": "",
							"type": "address"
						}
					],
					"name": "profile",
					"outputs": [
						{
							"internalType": "address",
							"name": "userAddress",
							"type": "address"
						},
						{
							"internalType": "string",
							"name": "firstName",
							"type": "string"
						},
						{
							"internalType": "string",
							"name": "middleName",
							"type": "string"
						},
						{
							"internalType": "string",
							"name": "lastName",
							"type": "string"
						},
						{
							"internalType": "string",
							"name": "profileImage",
							"type": "string"
						},
						{
							"internalType": "uint256",
							"name": "createDate",
							"type": "uint256"
						},
						{
							"components": [
								{
									"internalType": "string",
									"name": "email",
									"type": "string"
								},
								{
									"internalType": "string",
									"name": "phone",
									"type": "string"
								},
								{
									"internalType": "string",
									"name": "github",
									"type": "string"
								},
								{
									"internalType": "string",
									"name": "gitlab",
									"type": "string"
								},
								{
									"internalType": "string",
									"name": "linkin",
									"type": "string"
								}
							],
							"internalType": "struct Profile.Contract",
							"name": "privateContract",
							"type": "tuple"
						},
						{
							"components": [
								{
									"internalType": "string[]",
									"name": "frontend",
									"type": "string[]"
								},
								{
									"internalType": "string[]",
									"name": "backend",
									"type": "string[]"
								},
								{
									"internalType": "string[]",
									"name": "framework",
									"type": "string[]"
								}
							],
							"internalType": "struct Profile.Skill",
							"name": "skill",
							"type": "tuple"
						}
					],
					"stateMutability": "view",
					"type": "function"
				}
			],
			"devdoc": {
				"kind": "dev",
				"methods": {},
				"version": 1
			},
			"evm": {
				"assembly": "    /* \"contracts/Profile.sol\":60:2873  contract Profile {\r... */\n  mstore(0x40, 0x80)\n  callvalue\n  dup1\n  iszero\n  tag_1\n  jumpi\n  0x00\n  dup1\n  revert\ntag_1:\n  pop\n  dataSize(sub_0)\n  dup1\n  dataOffset(sub_0)\n  0x00\n  codecopy\n  0x00\n  return\nstop\n\nsub_0: assembly {\n        /* \"contracts/Profile.sol\":60:2873  contract Profile {\r... */\n      mstore(0x40, 0x80)\n      callvalue\n      dup1\n      iszero\n      tag_1\n      jumpi\n      0x00\n      dup1\n      revert\n    tag_1:\n      pop\n      jumpi(tag_2, lt(calldatasize, 0x04))\n      shr(0xe0, calldataload(0x00))\n      dup1\n      0x8c241fc4\n      gt\n      tag_10\n      jumpi\n      dup1\n      0x8c241fc4\n      eq\n      tag_6\n      jumpi\n      dup1\n      0x9dd9d0fd\n      eq\n      tag_7\n      jumpi\n      dup1\n      0xdc6d6a83\n      eq\n      tag_8\n      jumpi\n      dup1\n      0xfabce08f\n      eq\n      tag_9\n      jumpi\n      jump(tag_2)\n    tag_10:\n      dup1\n      0x1c41e2db\n      eq\n      tag_3\n      jumpi\n      dup1\n      0x3d984d0e\n      eq\n      tag_4\n      jumpi\n      dup1\n      0x72828388\n      eq\n      tag_5\n      jumpi\n    tag_2:\n      0x00\n      dup1\n      revert\n        /* \"contracts/Profile.sol\":2662:2783  function getEducation() public view returns(Education memory) {\r... */\n    tag_3:\n      tag_11\n      tag_12\n      jump\t// in\n    tag_11:\n      mload(0x40)\n      tag_13\n      swap2\n      swap1\n      tag_14\n      jump\t// in\n    tag_13:\n      mload(0x40)\n      dup1\n      swap2\n      sub\n      swap1\n      return\n        /* \"contracts/Profile.sol\":1950:2275  function createSkill(string[] memory frontend, string[] memory backend, string[] memory framework) public {\r... */\n    tag_4:\n      tag_15\n      0x04\n      dup1\n      calldatasize\n      sub\n      dup2\n      add\n      swap1\n      tag_16\n      swap2\n      swap1\n      tag_17\n      jump\t// in\n    tag_16:\n      tag_18\n      jump\t// in\n    tag_15:\n      stop\n        /* \"contracts/Profile.sol\":1360:1863  function createContract(string memory email, string memory phone, string memory github, string memory gitlab, string memory linkin) public {\r... */\n    tag_5:\n      tag_19\n      0x04\n      dup1\n      calldatasize\n      sub\n      dup2\n      add\n      swap1\n      tag_20\n      swap2\n      swap1\n      tag_21\n      jump\t// in\n    tag_20:\n      tag_22\n      jump\t// in\n    tag_19:\n      stop\n        /* \"contracts/Profile.sol\":838:1305  function createBio(string memory firstName, string memory middleName, string memory lastName,  string memory profileImage) public {\r... */\n    tag_6:\n      tag_23\n      0x04\n      dup1\n      calldatasize\n      sub\n      dup2\n      add\n      swap1\n      tag_24\n      swap2\n      swap1\n      tag_25\n      jump\t// in\n    tag_24:\n      tag_26\n      jump\t// in\n    tag_23:\n      stop\n        /* \"contracts/Profile.sol\":370:410  mapping (address => Bio) public  profile */\n    tag_7:\n      tag_27\n      0x04\n      dup1\n      calldatasize\n      sub\n      dup2\n      add\n      swap1\n      tag_28\n      swap2\n      swap1\n      tag_29\n      jump\t// in\n    tag_28:\n      tag_30\n      jump\t// in\n    tag_27:\n      mload(0x40)\n      tag_31\n      swap9\n      swap8\n      swap7\n      swap6\n      swap5\n      swap4\n      swap3\n      swap2\n      swap1\n      tag_32\n      jump\t// in\n    tag_31:\n      mload(0x40)\n      dup1\n      swap2\n      sub\n      swap1\n      return\n        /* \"contracts/Profile.sol\":2314:2651  function createUnivercity(string memory startDate, string memory endDate, string memory univercity) public {\r... */\n    tag_8:\n      tag_33\n      0x04\n      dup1\n      calldatasize\n      sub\n      dup2\n      add\n      swap1\n      tag_34\n      swap2\n      swap1\n      tag_35\n      jump\t// in\n    tag_34:\n      tag_36\n      jump\t// in\n    tag_33:\n      stop\n        /* \"contracts/Profile.sol\":2794:2870  function delProfile() external {\r... */\n    tag_9:\n      tag_37\n      tag_38\n      jump\t// in\n    tag_37:\n      stop\n        /* \"contracts/Profile.sol\":2662:2783  function getEducation() public view returns(Education memory) {\r... */\n    tag_12:\n        /* \"contracts/Profile.sol\":2706:2722  Education memory */\n      tag_39\n      tag_40\n      jump\t// in\n    tag_39:\n        /* \"contracts/Profile.sol\":2743:2750  profile */\n      0x00\n        /* \"contracts/Profile.sol\":2743:2762  profile[msg.sender] */\n      dup1\n        /* \"contracts/Profile.sol\":2751:2761  msg.sender */\n      caller\n        /* \"contracts/Profile.sol\":2743:2762  profile[msg.sender] */\n      0xffffffffffffffffffffffffffffffffffffffff\n      and\n      0xffffffffffffffffffffffffffffffffffffffff\n      and\n      dup2\n      mstore\n      0x20\n      add\n      swap1\n      dup2\n      mstore\n      0x20\n      add\n      0x00\n      keccak256\n        /* \"contracts/Profile.sol\":2743:2772  profile[msg.sender].education */\n      0x0e\n      add\n        /* \"contracts/Profile.sol\":2773:2774  0 */\n      0x00\n        /* \"contracts/Profile.sol\":2743:2775  profile[msg.sender].education[0] */\n      dup2\n      sload\n      dup2\n      lt\n      tag_42\n      jumpi\n      tag_43\n      tag_44\n      jump\t// in\n    tag_43:\n    tag_42:\n      swap1\n      0x00\n      mstore\n      keccak256(0x00, 0x20)\n      swap1\n      0x03\n      mul\n      add\n        /* \"contracts/Profile.sol\":2735:2775  return  profile[msg.sender].education[0] */\n      mload(0x40)\n      dup1\n      0x60\n      add\n      0x40\n      mstore\n      swap1\n      dup2\n      0x00\n      dup3\n      add\n      dup1\n      sload\n      tag_46\n      swap1\n      tag_47\n      jump\t// in\n    tag_46:\n      dup1\n      0x1f\n      add\n      0x20\n      dup1\n      swap2\n      div\n      mul\n      0x20\n      add\n      mload(0x40)\n      swap1\n      dup2\n      add\n      0x40\n      mstore\n      dup1\n      swap3\n      swap2\n      swap1\n      dup2\n      dup2\n      mstore\n      0x20\n      add\n      dup3\n      dup1\n      sload\n      tag_48\n      swap1\n      tag_47\n      jump\t// in\n    tag_48:\n      dup1\n      iszero\n      tag_49\n      jumpi\n      dup1\n      0x1f\n      lt\n      tag_50\n      jumpi\n      0x0100\n      dup1\n      dup4\n      sload\n      div\n      mul\n      dup4\n      mstore\n      swap2\n      0x20\n      add\n      swap2\n      jump(tag_49)\n    tag_50:\n      dup3\n      add\n      swap2\n      swap1\n      0x00\n      mstore\n      keccak256(0x00, 0x20)\n      swap1\n    tag_51:\n      dup2\n      sload\n      dup2\n      mstore\n      swap1\n      0x01\n      add\n      swap1\n      0x20\n      add\n      dup1\n      dup4\n      gt\n      tag_51\n      jumpi\n      dup3\n      swap1\n      sub\n      0x1f\n      and\n      dup3\n      add\n      swap2\n    tag_49:\n      pop\n      pop\n      pop\n      pop\n      pop\n      dup2\n      mstore\n      0x20\n      add\n      0x01\n      dup3\n      add\n      dup1\n      sload\n      tag_52\n      swap1\n      tag_47\n      jump\t// in\n    tag_52:\n      dup1\n      0x1f\n      add\n      0x20\n      dup1\n      swap2\n      div\n      mul\n      0x20\n      add\n      mload(0x40)\n      swap1\n      dup2\n      add\n      0x40\n      mstore\n      dup1\n      swap3\n      swap2\n      swap1\n      dup2\n      dup2\n      mstore\n      0x20\n      add\n      dup3\n      dup1\n      sload\n      tag_53\n      swap1\n      tag_47\n      jump\t// in\n    tag_53:\n      dup1\n      iszero\n      tag_54\n      jumpi\n      dup1\n      0x1f\n      lt\n      tag_55\n      jumpi\n      0x0100\n      dup1\n      dup4\n      sload\n      div\n      mul\n      dup4\n      mstore\n      swap2\n      0x20\n      add\n      swap2\n      jump(tag_54)\n    tag_55:\n      dup3\n      add\n      swap2\n      swap1\n      0x00\n      mstore\n      keccak256(0x00, 0x20)\n      swap1\n    tag_56:\n      dup2\n      sload\n      dup2\n      mstore\n      swap1\n      0x01\n      add\n      swap1\n      0x20\n      add\n      dup1\n      dup4\n      gt\n      tag_56\n      jumpi\n      dup3\n      swap1\n      sub\n      0x1f\n      and\n      dup3\n      add\n      swap2\n    tag_54:\n      pop\n      pop\n      pop\n      pop\n      pop\n      dup2\n      mstore\n      0x20\n      add\n      0x02\n      dup3\n      add\n      dup1\n      sload\n      tag_57\n      swap1\n      tag_47\n      jump\t// in\n    tag_57:\n      dup1\n      0x1f\n      add\n      0x20\n      dup1\n      swap2\n      div\n      mul\n      0x20\n      add\n      mload(0x40)\n      swap1\n      dup2\n      add\n      0x40\n      mstore\n      dup1\n      swap3\n      swap2\n      swap1\n      dup2\n      dup2\n      mstore\n      0x20\n      add\n      dup3\n      dup1\n      sload\n      tag_58\n      swap1\n      tag_47\n      jump\t// in\n    tag_58:\n      dup1\n      iszero\n      tag_59\n      jumpi\n      dup1\n      0x1f\n      lt\n      tag_60\n      jumpi\n      0x0100\n      dup1\n      dup4\n      sload\n      div\n      mul\n      dup4\n      mstore\n      swap2\n      0x20\n      add\n      swap2\n      jump(tag_59)\n    tag_60:\n      dup3\n      add\n      swap2\n      swap1\n      0x00\n      mstore\n      keccak256(0x00, 0x20)\n      swap1\n    tag_61:\n      dup2\n      sload\n      dup2\n      mstore\n      swap1\n      0x01\n      add\n      swap1\n      0x20\n      add\n      dup1\n      dup4\n      gt\n      tag_61\n      jumpi\n      dup3\n      swap1\n      sub\n      0x1f\n      and\n      dup3\n      add\n      swap2\n    tag_59:\n      pop\n      pop\n      pop\n      pop\n      pop\n      dup2\n      mstore\n      pop\n      pop\n      swap1\n      pop\n        /* \"contracts/Profile.sol\":2662:2783  function getEducation() public view returns(Education memory) {\r... */\n      swap1\n      jump\t// out\n        /* \"contracts/Profile.sol\":1950:2275  function createSkill(string[] memory frontend, string[] memory backend, string[] memory framework) public {\r... */\n    tag_18:\n        /* \"contracts/Profile.sol\":2074:2081  profile */\n      0x00\n        /* \"contracts/Profile.sol\":2074:2093  profile[msg.sender] */\n      dup1\n        /* \"contracts/Profile.sol\":2082:2092  msg.sender */\n      caller\n        /* \"contracts/Profile.sol\":2074:2093  profile[msg.sender] */\n      0xffffffffffffffffffffffffffffffffffffffff\n      and\n      0xffffffffffffffffffffffffffffffffffffffff\n      and\n      dup2\n      mstore\n      0x20\n      add\n      swap1\n      dup2\n      mstore\n      0x20\n      add\n      0x00\n      keccak256\n        /* \"contracts/Profile.sol\":2074:2099  profile[msg.sender].skill */\n      0x0b\n      add\n      0x00\n        /* \"contracts/Profile.sol\":2067:2099  delete profile[msg.sender].skill */\n      dup1\n      dup3\n      add\n      0x00\n      tag_63\n      swap2\n      swap1\n      tag_64\n      jump\t// in\n    tag_63:\n      0x01\n      dup3\n      add\n      0x00\n      tag_65\n      swap2\n      swap1\n      tag_64\n      jump\t// in\n    tag_65:\n      0x02\n      dup3\n      add\n      0x00\n      tag_66\n      swap2\n      swap1\n      tag_64\n      jump\t// in\n    tag_66:\n      pop\n      pop\n        /* \"contracts/Profile.sol\":2147:2155  frontend */\n      dup3\n        /* \"contracts/Profile.sol\":2110:2117  profile */\n      0x00\n        /* \"contracts/Profile.sol\":2110:2129  profile[msg.sender] */\n      dup1\n        /* \"contracts/Profile.sol\":2118:2128  msg.sender */\n      caller\n        /* \"contracts/Profile.sol\":2110:2129  profile[msg.sender] */\n      0xffffffffffffffffffffffffffffffffffffffff\n      and\n      0xffffffffffffffffffffffffffffffffffffffff\n      and\n      dup2\n      mstore\n      0x20\n      add\n      swap1\n      dup2\n      mstore\n      0x20\n      add\n      0x00\n      keccak256\n        /* \"contracts/Profile.sol\":2110:2135  profile[msg.sender].skill */\n      0x0b\n      add\n        /* \"contracts/Profile.sol\":2110:2144  profile[msg.sender].skill.frontend */\n      0x00\n      add\n        /* \"contracts/Profile.sol\":2110:2155  profile[msg.sender].skill.frontend = frontend */\n      swap1\n      dup1\n      mload\n      swap1\n      0x20\n      add\n      swap1\n      tag_67\n      swap3\n      swap2\n      swap1\n      tag_68\n      jump\t// in\n    tag_67:\n      pop\n        /* \"contracts/Profile.sol\":2202:2209  backend */\n      dup2\n        /* \"contracts/Profile.sol\":2166:2173  profile */\n      0x00\n        /* \"contracts/Profile.sol\":2166:2185  profile[msg.sender] */\n      dup1\n        /* \"contracts/Profile.sol\":2174:2184  msg.sender */\n      caller\n        /* \"contracts/Profile.sol\":2166:2185  profile[msg.sender] */\n      0xffffffffffffffffffffffffffffffffffffffff\n      and\n      0xffffffffffffffffffffffffffffffffffffffff\n      and\n      dup2\n      mstore\n      0x20\n      add\n      swap1\n      dup2\n      mstore\n      0x20\n      add\n      0x00\n      keccak256\n        /* \"contracts/Profile.sol\":2166:2191  profile[msg.sender].skill */\n      0x0b\n      add\n        /* \"contracts/Profile.sol\":2166:2199  profile[msg.sender].skill.backend */\n      0x01\n      add\n        /* \"contracts/Profile.sol\":2166:2209  profile[msg.sender].skill.backend = backend */\n      swap1\n      dup1\n      mload\n      swap1\n      0x20\n      add\n      swap1\n      tag_69\n      swap3\n      swap2\n      swap1\n      tag_68\n      jump\t// in\n    tag_69:\n      pop\n        /* \"contracts/Profile.sol\":2258:2267  framework */\n      dup1\n        /* \"contracts/Profile.sol\":2220:2227  profile */\n      0x00\n        /* \"contracts/Profile.sol\":2220:2239  profile[msg.sender] */\n      dup1\n        /* \"contracts/Profile.sol\":2228:2238  msg.sender */\n      caller\n        /* \"contracts/Profile.sol\":2220:2239  profile[msg.sender] */\n      0xffffffffffffffffffffffffffffffffffffffff\n      and\n      0xffffffffffffffffffffffffffffffffffffffff\n      and\n      dup2\n      mstore\n      0x20\n      add\n      swap1\n      dup2\n      mstore\n      0x20\n      add\n      0x00\n      keccak256\n        /* \"contracts/Profile.sol\":2220:2245  profile[msg.sender].skill */\n      0x0b\n      add\n        /* \"contracts/Profile.sol\":2220:2255  profile[msg.sender].skill.framework */\n      0x02\n      add\n        /* \"contracts/Profile.sol\":2220:2267  profile[msg.sender].skill.framework = framework */\n      swap1\n      dup1\n      mload\n      swap1\n      0x20\n      add\n      swap1\n      tag_70\n      swap3\n      swap2\n      swap1\n      tag_68\n      jump\t// in\n    tag_70:\n      pop\n        /* \"contracts/Profile.sol\":1950:2275  function createSkill(string[] memory frontend, string[] memory backend, string[] memory framework) public {\r... */\n      pop\n      pop\n      pop\n      jump\t// out\n        /* \"contracts/Profile.sol\":1360:1863  function createContract(string memory email, string memory phone, string memory github, string memory gitlab, string memory linkin) public {\r... */\n    tag_22:\n        /* \"contracts/Profile.sol\":1517:1524  profile */\n      0x00\n        /* \"contracts/Profile.sol\":1517:1536  profile[msg.sender] */\n      dup1\n        /* \"contracts/Profile.sol\":1525:1535  msg.sender */\n      caller\n        /* \"contracts/Profile.sol\":1517:1536  profile[msg.sender] */\n      0xffffffffffffffffffffffffffffffffffffffff\n      and\n      0xffffffffffffffffffffffffffffffffffffffff\n      and\n      dup2\n      mstore\n      0x20\n      add\n      swap1\n      dup2\n      mstore\n      0x20\n      add\n      0x00\n      keccak256\n        /* \"contracts/Profile.sol\":1517:1552  profile[msg.sender].privateContract */\n      0x06\n      add\n      0x00\n        /* \"contracts/Profile.sol\":1510:1552  delete profile[msg.sender].privateContract */\n      dup1\n      dup3\n      add\n      0x00\n      tag_72\n      swap2\n      swap1\n      tag_73\n      jump\t// in\n    tag_72:\n      0x01\n      dup3\n      add\n      0x00\n      tag_74\n      swap2\n      swap1\n      tag_73\n      jump\t// in\n    tag_74:\n      0x02\n      dup3\n      add\n      0x00\n      tag_75\n      swap2\n      swap1\n      tag_73\n      jump\t// in\n    tag_75:\n      0x03\n      dup3\n      add\n      0x00\n      tag_76\n      swap2\n      swap1\n      tag_73\n      jump\t// in\n    tag_76:\n      0x04\n      dup3\n      add\n      0x00\n      tag_77\n      swap2\n      swap1\n      tag_73\n      jump\t// in\n    tag_77:\n      pop\n      pop\n        /* \"contracts/Profile.sol\":1607:1612  email */\n      dup5\n        /* \"contracts/Profile.sol\":1563:1570  profile */\n      0x00\n        /* \"contracts/Profile.sol\":1563:1582  profile[msg.sender] */\n      dup1\n        /* \"contracts/Profile.sol\":1571:1581  msg.sender */\n      caller\n        /* \"contracts/Profile.sol\":1563:1582  profile[msg.sender] */\n      0xffffffffffffffffffffffffffffffffffffffff\n      and\n      0xffffffffffffffffffffffffffffffffffffffff\n      and\n      dup2\n      mstore\n      0x20\n      add\n      swap1\n      dup2\n      mstore\n      0x20\n      add\n      0x00\n      keccak256\n        /* \"contracts/Profile.sol\":1563:1598  profile[msg.sender].privateContract */\n      0x06\n      add\n        /* \"contracts/Profile.sol\":1563:1604  profile[msg.sender].privateContract.email */\n      0x00\n      add\n        /* \"contracts/Profile.sol\":1563:1612  profile[msg.sender].privateContract.email = email */\n      swap1\n      dup1\n      mload\n      swap1\n      0x20\n      add\n      swap1\n      tag_78\n      swap3\n      swap2\n      swap1\n      tag_79\n      jump\t// in\n    tag_78:\n      pop\n        /* \"contracts/Profile.sol\":1667:1672  phone */\n      dup4\n        /* \"contracts/Profile.sol\":1623:1630  profile */\n      0x00\n        /* \"contracts/Profile.sol\":1623:1642  profile[msg.sender] */\n      dup1\n        /* \"contracts/Profile.sol\":1631:1641  msg.sender */\n      caller\n        /* \"contracts/Profile.sol\":1623:1642  profile[msg.sender] */\n      0xffffffffffffffffffffffffffffffffffffffff\n      and\n      0xffffffffffffffffffffffffffffffffffffffff\n      and\n      dup2\n      mstore\n      0x20\n      add\n      swap1\n      dup2\n      mstore\n      0x20\n      add\n      0x00\n      keccak256\n        /* \"contracts/Profile.sol\":1623:1658  profile[msg.sender].privateContract */\n      0x06\n      add\n        /* \"contracts/Profile.sol\":1623:1664  profile[msg.sender].privateContract.phone */\n      0x01\n      add\n        /* \"contracts/Profile.sol\":1623:1672  profile[msg.sender].privateContract.phone = phone */\n      swap1\n      dup1\n      mload\n      swap1\n      0x20\n      add\n      swap1\n      tag_80\n      swap3\n      swap2\n      swap1\n      tag_79\n      jump\t// in\n    tag_80:\n      pop\n        /* \"contracts/Profile.sol\":1727:1733  github */\n      dup3\n        /* \"contracts/Profile.sol\":1683:1690  profile */\n      0x00\n        /* \"contracts/Profile.sol\":1683:1702  profile[msg.sender] */\n      dup1\n        /* \"contracts/Profile.sol\":1691:1701  msg.sender */\n      caller\n        /* \"contracts/Profile.sol\":1683:1702  profile[msg.sender] */\n      0xffffffffffffffffffffffffffffffffffffffff\n      and\n      0xffffffffffffffffffffffffffffffffffffffff\n      and\n      dup2\n      mstore\n      0x20\n      add\n      swap1\n      dup2\n      mstore\n      0x20\n      add\n      0x00\n      keccak256\n        /* \"contracts/Profile.sol\":1683:1718  profile[msg.sender].privateContract */\n      0x06\n      add\n        /* \"contracts/Profile.sol\":1683:1724  profile[msg.sender].privateContract.email */\n      0x00\n      add\n        /* \"contracts/Profile.sol\":1683:1733  profile[msg.sender].privateContract.email = github */\n      swap1\n      dup1\n      mload\n      swap1\n      0x20\n      add\n      swap1\n      tag_81\n      swap3\n      swap2\n      swap1\n      tag_79\n      jump\t// in\n    tag_81:\n      pop\n        /* \"contracts/Profile.sol\":1788:1794  gitlab */\n      dup2\n        /* \"contracts/Profile.sol\":1744:1751  profile */\n      0x00\n        /* \"contracts/Profile.sol\":1744:1763  profile[msg.sender] */\n      dup1\n        /* \"contracts/Profile.sol\":1752:1762  msg.sender */\n      caller\n        /* \"contracts/Profile.sol\":1744:1763  profile[msg.sender] */\n      0xffffffffffffffffffffffffffffffffffffffff\n      and\n      0xffffffffffffffffffffffffffffffffffffffff\n      and\n      dup2\n      mstore\n      0x20\n      add\n      swap1\n      dup2\n      mstore\n      0x20\n      add\n      0x00\n      keccak256\n        /* \"contracts/Profile.sol\":1744:1779  profile[msg.sender].privateContract */\n      0x06\n      add\n        /* \"contracts/Profile.sol\":1744:1785  profile[msg.sender].privateContract.phone */\n      0x01\n      add\n        /* \"contracts/Profile.sol\":1744:1794  profile[msg.sender].privateContract.phone = gitlab */\n      swap1\n      dup1\n      mload\n      swap1\n      0x20\n      add\n      swap1\n      tag_82\n      swap3\n      swap2\n      swap1\n      tag_79\n      jump\t// in\n    tag_82:\n      pop\n        /* \"contracts/Profile.sol\":1849:1855  linkin */\n      dup1\n        /* \"contracts/Profile.sol\":1805:1812  profile */\n      0x00\n        /* \"contracts/Profile.sol\":1805:1824  profile[msg.sender] */\n      dup1\n        /* \"contracts/Profile.sol\":1813:1823  msg.sender */\n      caller\n        /* \"contracts/Profile.sol\":1805:1824  profile[msg.sender] */\n      0xffffffffffffffffffffffffffffffffffffffff\n      and\n      0xffffffffffffffffffffffffffffffffffffffff\n      and\n      dup2\n      mstore\n      0x20\n      add\n      swap1\n      dup2\n      mstore\n      0x20\n      add\n      0x00\n      keccak256\n        /* \"contracts/Profile.sol\":1805:1840  profile[msg.sender].privateContract */\n      0x06\n      add\n        /* \"contracts/Profile.sol\":1805:1846  profile[msg.sender].privateContract.email */\n      0x00\n      add\n        /* \"contracts/Profile.sol\":1805:1855  profile[msg.sender].privateContract.email = linkin */\n      swap1\n      dup1\n      mload\n      swap1\n      0x20\n      add\n      swap1\n      tag_83\n      swap3\n      swap2\n      swap1\n      tag_79\n      jump\t// in\n    tag_83:\n      pop\n        /* \"contracts/Profile.sol\":1360:1863  function createContract(string memory email, string memory phone, string memory github, string memory gitlab, string memory linkin) public {\r... */\n      pop\n      pop\n      pop\n      pop\n      pop\n      jump\t// out\n        /* \"contracts/Profile.sol\":838:1305  function createBio(string memory firstName, string memory middleName, string memory lastName,  string memory profileImage) public {\r... */\n    tag_26:\n        /* \"contracts/Profile.sol\":1011:1020  firstName */\n      dup4\n        /* \"contracts/Profile.sol\":979:986  profile */\n      0x00\n        /* \"contracts/Profile.sol\":979:998  profile[msg.sender] */\n      dup1\n        /* \"contracts/Profile.sol\":987:997  msg.sender */\n      caller\n        /* \"contracts/Profile.sol\":979:998  profile[msg.sender] */\n      0xffffffffffffffffffffffffffffffffffffffff\n      and\n      0xffffffffffffffffffffffffffffffffffffffff\n      and\n      dup2\n      mstore\n      0x20\n      add\n      swap1\n      dup2\n      mstore\n      0x20\n      add\n      0x00\n      keccak256\n        /* \"contracts/Profile.sol\":979:1008  profile[msg.sender].firstName */\n      0x01\n      add\n        /* \"contracts/Profile.sol\":979:1020  profile[msg.sender].firstName = firstName */\n      swap1\n      dup1\n      mload\n      swap1\n      0x20\n      add\n      swap1\n      tag_85\n      swap3\n      swap2\n      swap1\n      tag_79\n      jump\t// in\n    tag_85:\n      pop\n        /* \"contracts/Profile.sol\":1064:1074  middleName */\n      dup3\n        /* \"contracts/Profile.sol\":1031:1038  profile */\n      0x00\n        /* \"contracts/Profile.sol\":1031:1050  profile[msg.sender] */\n      dup1\n        /* \"contracts/Profile.sol\":1039:1049  msg.sender */\n      caller\n        /* \"contracts/Profile.sol\":1031:1050  profile[msg.sender] */\n      0xffffffffffffffffffffffffffffffffffffffff\n      and\n      0xffffffffffffffffffffffffffffffffffffffff\n      and\n      dup2\n      mstore\n      0x20\n      add\n      swap1\n      dup2\n      mstore\n      0x20\n      add\n      0x00\n      keccak256\n        /* \"contracts/Profile.sol\":1031:1061  profile[msg.sender].middleName */\n      0x02\n      add\n        /* \"contracts/Profile.sol\":1031:1074  profile[msg.sender].middleName = middleName */\n      swap1\n      dup1\n      mload\n      swap1\n      0x20\n      add\n      swap1\n      tag_86\n      swap3\n      swap2\n      swap1\n      tag_79\n      jump\t// in\n    tag_86:\n      pop\n        /* \"contracts/Profile.sol\":1116:1124  lastName */\n      dup2\n        /* \"contracts/Profile.sol\":1085:1092  profile */\n      0x00\n        /* \"contracts/Profile.sol\":1085:1104  profile[msg.sender] */\n      dup1\n        /* \"contracts/Profile.sol\":1093:1103  msg.sender */\n      caller\n        /* \"contracts/Profile.sol\":1085:1104  profile[msg.sender] */\n      0xffffffffffffffffffffffffffffffffffffffff\n      and\n      0xffffffffffffffffffffffffffffffffffffffff\n      and\n      dup2\n      mstore\n      0x20\n      add\n      swap1\n      dup2\n      mstore\n      0x20\n      add\n      0x00\n      keccak256\n        /* \"contracts/Profile.sol\":1085:1113  profile[msg.sender].lastName */\n      0x03\n      add\n        /* \"contracts/Profile.sol\":1085:1124  profile[msg.sender].lastName = lastName */\n      swap1\n      dup1\n      mload\n      swap1\n      0x20\n      add\n      swap1\n      tag_87\n      swap3\n      swap2\n      swap1\n      tag_79\n      jump\t// in\n    tag_87:\n      pop\n        /* \"contracts/Profile.sol\":1170:1182  profileImage */\n      dup1\n        /* \"contracts/Profile.sol\":1135:1142  profile */\n      0x00\n        /* \"contracts/Profile.sol\":1135:1154  profile[msg.sender] */\n      dup1\n        /* \"contracts/Profile.sol\":1143:1153  msg.sender */\n      caller\n        /* \"contracts/Profile.sol\":1135:1154  profile[msg.sender] */\n      0xffffffffffffffffffffffffffffffffffffffff\n      and\n      0xffffffffffffffffffffffffffffffffffffffff\n      and\n      dup2\n      mstore\n      0x20\n      add\n      swap1\n      dup2\n      mstore\n      0x20\n      add\n      0x00\n      keccak256\n        /* \"contracts/Profile.sol\":1135:1167  profile[msg.sender].profileImage */\n      0x04\n      add\n        /* \"contracts/Profile.sol\":1135:1182  profile[msg.sender].profileImage = profileImage */\n      swap1\n      dup1\n      mload\n      swap1\n      0x20\n      add\n      swap1\n      tag_88\n      swap3\n      swap2\n      swap1\n      tag_79\n      jump\t// in\n    tag_88:\n      pop\n        /* \"contracts/Profile.sol\":1227:1237  msg.sender */\n      caller\n        /* \"contracts/Profile.sol\":1193:1200  profile */\n      0x00\n        /* \"contracts/Profile.sol\":1193:1212  profile[msg.sender] */\n      dup1\n        /* \"contracts/Profile.sol\":1201:1211  msg.sender */\n      caller\n        /* \"contracts/Profile.sol\":1193:1212  profile[msg.sender] */\n      0xffffffffffffffffffffffffffffffffffffffff\n      and\n      0xffffffffffffffffffffffffffffffffffffffff\n      and\n      dup2\n      mstore\n      0x20\n      add\n      swap1\n      dup2\n      mstore\n      0x20\n      add\n      0x00\n      keccak256\n        /* \"contracts/Profile.sol\":1193:1224  profile[msg.sender].userAddress */\n      0x00\n      add\n      0x00\n        /* \"contracts/Profile.sol\":1193:1237  profile[msg.sender].userAddress = msg.sender */\n      0x0100\n      exp\n      dup2\n      sload\n      dup2\n      0xffffffffffffffffffffffffffffffffffffffff\n      mul\n      not\n      and\n      swap1\n      dup4\n      0xffffffffffffffffffffffffffffffffffffffff\n      and\n      mul\n      or\n      swap1\n      sstore\n      pop\n        /* \"contracts/Profile.sol\":1282:1297  block.timestamp */\n      timestamp\n        /* \"contracts/Profile.sol\":1249:1256  profile */\n      0x00\n        /* \"contracts/Profile.sol\":1249:1268  profile[msg.sender] */\n      dup1\n        /* \"contracts/Profile.sol\":1257:1267  msg.sender */\n      caller\n        /* \"contracts/Profile.sol\":1249:1268  profile[msg.sender] */\n      0xffffffffffffffffffffffffffffffffffffffff\n      and\n      0xffffffffffffffffffffffffffffffffffffffff\n      and\n      dup2\n      mstore\n      0x20\n      add\n      swap1\n      dup2\n      mstore\n      0x20\n      add\n      0x00\n      keccak256\n        /* \"contracts/Profile.sol\":1249:1279  profile[msg.sender].createDate */\n      0x05\n      add\n        /* \"contracts/Profile.sol\":1249:1297  profile[msg.sender].createDate = block.timestamp */\n      dup2\n      swap1\n      sstore\n      pop\n        /* \"contracts/Profile.sol\":838:1305  function createBio(string memory firstName, string memory middleName, string memory lastName,  string memory profileImage) public {\r... */\n      pop\n      pop\n      pop\n      pop\n      jump\t// out\n        /* \"contracts/Profile.sol\":370:410  mapping (address => Bio) public  profile */\n    tag_30:\n      mstore(0x20, 0x00)\n      dup1\n      0x00\n      mstore\n      keccak256(0x00, 0x40)\n      0x00\n      swap2\n      pop\n      swap1\n      pop\n      dup1\n      0x00\n      add\n      0x00\n      swap1\n      sload\n      swap1\n      0x0100\n      exp\n      swap1\n      div\n      0xffffffffffffffffffffffffffffffffffffffff\n      and\n      swap1\n      dup1\n      0x01\n      add\n      dup1\n      sload\n      tag_89\n      swap1\n      tag_47\n      jump\t// in\n    tag_89:\n      dup1\n      0x1f\n      add\n      0x20\n      dup1\n      swap2\n      div\n      mul\n      0x20\n      add\n      mload(0x40)\n      swap1\n      dup2\n      add\n      0x40\n      mstore\n      dup1\n      swap3\n      swap2\n      swap1\n      dup2\n      dup2\n      mstore\n      0x20\n      add\n      dup3\n      dup1\n      sload\n      tag_90\n      swap1\n      tag_47\n      jump\t// in\n    tag_90:\n      dup1\n      iszero\n      tag_91\n      jumpi\n      dup1\n      0x1f\n      lt\n      tag_92\n      jumpi\n      0x0100\n      dup1\n      dup4\n      sload\n      div\n      mul\n      dup4\n      mstore\n      swap2\n      0x20\n      add\n      swap2\n      jump(tag_91)\n    tag_92:\n      dup3\n      add\n      swap2\n      swap1\n      0x00\n      mstore\n      keccak256(0x00, 0x20)\n      swap1\n    tag_93:\n      dup2\n      sload\n      dup2\n      mstore\n      swap1\n      0x01\n      add\n      swap1\n      0x20\n      add\n      dup1\n      dup4\n      gt\n      tag_93\n      jumpi\n      dup3\n      swap1\n      sub\n      0x1f\n      and\n      dup3\n      add\n      swap2\n    tag_91:\n      pop\n      pop\n      pop\n      pop\n      pop\n      swap1\n      dup1\n      0x02\n      add\n      dup1\n      sload\n      tag_94\n      swap1\n      tag_47\n      jump\t// in\n    tag_94:\n      dup1\n      0x1f\n      add\n      0x20\n      dup1\n      swap2\n      div\n      mul\n      0x20\n      add\n      mload(0x40)\n      swap1\n      dup2\n      add\n      0x40\n      mstore\n      dup1\n      swap3\n      swap2\n      swap1\n      dup2\n      dup2\n      mstore\n      0x20\n      add\n      dup3\n      dup1\n      sload\n      tag_95\n      swap1\n      tag_47\n      jump\t// in\n    tag_95:\n      dup1\n      iszero\n      tag_96\n      jumpi\n      dup1\n      0x1f\n      lt\n      tag_97\n      jumpi\n      0x0100\n      dup1\n      dup4\n      sload\n      div\n      mul\n      dup4\n      mstore\n      swap2\n      0x20\n      add\n      swap2\n      jump(tag_96)\n    tag_97:\n      dup3\n      add\n      swap2\n      swap1\n      0x00\n      mstore\n      keccak256(0x00, 0x20)\n      swap1\n    tag_98:\n      dup2\n      sload\n      dup2\n      mstore\n      swap1\n      0x01\n      add\n      swap1\n      0x20\n      add\n      dup1\n      dup4\n      gt\n      tag_98\n      jumpi\n      dup3\n      swap1\n      sub\n      0x1f\n      and\n      dup3\n      add\n      swap2\n    tag_96:\n      pop\n      pop\n      pop\n      pop\n      pop\n      swap1\n      dup1\n      0x03\n      add\n      dup1\n      sload\n      tag_99\n      swap1\n      tag_47\n      jump\t// in\n    tag_99:\n      dup1\n      0x1f\n      add\n      0x20\n      dup1\n      swap2\n      div\n      mul\n      0x20\n      add\n      mload(0x40)\n      swap1\n      dup2\n      add\n      0x40\n      mstore\n      dup1\n      swap3\n      swap2\n      swap1\n      dup2\n      dup2\n      mstore\n      0x20\n      add\n      dup3\n      dup1\n      sload\n      tag_100\n      swap1\n      tag_47\n      jump\t// in\n    tag_100:\n      dup1\n      iszero\n      tag_101\n      jumpi\n      dup1\n      0x1f\n      lt\n      tag_102\n      jumpi\n      0x0100\n      dup1\n      dup4\n      sload\n      div\n      mul\n      dup4\n      mstore\n      swap2\n      0x20\n      add\n      swap2\n      jump(tag_101)\n    tag_102:\n      dup3\n      add\n      swap2\n      swap1\n      0x00\n      mstore\n      keccak256(0x00, 0x20)\n      swap1\n    tag_103:\n      dup2\n      sload\n      dup2\n      mstore\n      swap1\n      0x01\n      add\n      swap1\n      0x20\n      add\n      dup1\n      dup4\n      gt\n      tag_103\n      jumpi\n      dup3\n      swap1\n      sub\n      0x1f\n      and\n      dup3\n      add\n      swap2\n    tag_101:\n      pop\n      pop\n      pop\n      pop\n      pop\n      swap1\n      dup1\n      0x04\n      add\n      dup1\n      sload\n      tag_104\n      swap1\n      tag_47\n      jump\t// in\n    tag_104:\n      dup1\n      0x1f\n      add\n      0x20\n      dup1\n      swap2\n      div\n      mul\n      0x20\n      add\n      mload(0x40)\n      swap1\n      dup2\n      add\n      0x40\n      mstore\n      dup1\n      swap3\n      swap2\n      swap1\n      dup2\n      dup2\n      mstore\n      0x20\n      add\n      dup3\n      dup1\n      sload\n      tag_105\n      swap1\n      tag_47\n      jump\t// in\n    tag_105:\n      dup1\n      iszero\n      tag_106\n      jumpi\n      dup1\n      0x1f\n      lt\n      tag_107\n      jumpi\n      0x0100\n      dup1\n      dup4\n      sload\n      div\n      mul\n      dup4\n      mstore\n      swap2\n      0x20\n      add\n      swap2\n      jump(tag_106)\n    tag_107:\n      dup3\n      add\n      swap2\n      swap1\n      0x00\n      mstore\n      keccak256(0x00, 0x20)\n      swap1\n    tag_108:\n      dup2\n      sload\n      dup2\n      mstore\n      swap1\n      0x01\n      add\n      swap1\n      0x20\n      add\n      dup1\n      dup4\n      gt\n      tag_108\n      jumpi\n      dup3\n      swap1\n      sub\n      0x1f\n      and\n      dup3\n      add\n      swap2\n    tag_106:\n      pop\n      pop\n      pop\n      pop\n      pop\n      swap1\n      dup1\n      0x05\n      add\n      sload\n      swap1\n      dup1\n      0x06\n      add\n      mload(0x40)\n      dup1\n      0xa0\n      add\n      0x40\n      mstore\n      swap1\n      dup2\n      0x00\n      dup3\n      add\n      dup1\n      sload\n      tag_109\n      swap1\n      tag_47\n      jump\t// in\n    tag_109:\n      dup1\n      0x1f\n      add\n      0x20\n      dup1\n      swap2\n      div\n      mul\n      0x20\n      add\n      mload(0x40)\n      swap1\n      dup2\n      add\n      0x40\n      mstore\n      dup1\n      swap3\n      swap2\n      swap1\n      dup2\n      dup2\n      mstore\n      0x20\n      add\n      dup3\n      dup1\n      sload\n      tag_110\n      swap1\n      tag_47\n      jump\t// in\n    tag_110:\n      dup1\n      iszero\n      tag_111\n      jumpi\n      dup1\n      0x1f\n      lt\n      tag_112\n      jumpi\n      0x0100\n      dup1\n      dup4\n      sload\n      div\n      mul\n      dup4\n      mstore\n      swap2\n      0x20\n      add\n      swap2\n      jump(tag_111)\n    tag_112:\n      dup3\n      add\n      swap2\n      swap1\n      0x00\n      mstore\n      keccak256(0x00, 0x20)\n      swap1\n    tag_113:\n      dup2\n      sload\n      dup2\n      mstore\n      swap1\n      0x01\n      add\n      swap1\n      0x20\n      add\n      dup1\n      dup4\n      gt\n      tag_113\n      jumpi\n      dup3\n      swap1\n      sub\n      0x1f\n      and\n      dup3\n      add\n      swap2\n    tag_111:\n      pop\n      pop\n      pop\n      pop\n      pop\n      dup2\n      mstore\n      0x20\n      add\n      0x01\n      dup3\n      add\n      dup1\n      sload\n      tag_114\n      swap1\n      tag_47\n      jump\t// in\n    tag_114:\n      dup1\n      0x1f\n      add\n      0x20\n      dup1\n      swap2\n      div\n      mul\n      0x20\n      add\n      mload(0x40)\n      swap1\n      dup2\n      add\n      0x40\n      mstore\n      dup1\n      swap3\n      swap2\n      swap1\n      dup2\n      dup2\n      mstore\n      0x20\n      add\n      dup3\n      dup1\n      sload\n      tag_115\n      swap1\n      tag_47\n      jump\t// in\n    tag_115:\n      dup1\n      iszero\n      tag_116\n      jumpi\n      dup1\n      0x1f\n      lt\n      tag_117\n      jumpi\n      0x0100\n      dup1\n      dup4\n      sload\n      div\n      mul\n      dup4\n      mstore\n      swap2\n      0x20\n      add\n      swap2\n      jump(tag_116)\n    tag_117:\n      dup3\n      add\n      swap2\n      swap1\n      0x00\n      mstore\n      keccak256(0x00, 0x20)\n      swap1\n    tag_118:\n      dup2\n      sload\n      dup2\n      mstore\n      swap1\n      0x01\n      add\n      swap1\n      0x20\n      add\n      dup1\n      dup4\n      gt\n      tag_118\n      jumpi\n      dup3\n      swap1\n      sub\n      0x1f\n      and\n      dup3\n      add\n      swap2\n    tag_116:\n      pop\n      pop\n      pop\n      pop\n      pop\n      dup2\n      mstore\n      0x20\n      add\n      0x02\n      dup3\n      add\n      dup1\n      sload\n      tag_119\n      swap1\n      tag_47\n      jump\t// in\n    tag_119:\n      dup1\n      0x1f\n      add\n      0x20\n      dup1\n      swap2\n      div\n      mul\n      0x20\n      add\n      mload(0x40)\n      swap1\n      dup2\n      add\n      0x40\n      mstore\n      dup1\n      swap3\n      swap2\n      swap1\n      dup2\n      dup2\n      mstore\n      0x20\n      add\n      dup3\n      dup1\n      sload\n      tag_120\n      swap1\n      tag_47\n      jump\t// in\n    tag_120:\n      dup1\n      iszero\n      tag_121\n      jumpi\n      dup1\n      0x1f\n      lt\n      tag_122\n      jumpi\n      0x0100\n      dup1\n      dup4\n      sload\n      div\n      mul\n      dup4\n      mstore\n      swap2\n      0x20\n      add\n      swap2\n      jump(tag_121)\n    tag_122:\n      dup3\n      add\n      swap2\n      swap1\n      0x00\n      mstore\n      keccak256(0x00, 0x20)\n      swap1\n    tag_123:\n      dup2\n      sload\n      dup2\n      mstore\n      swap1\n      0x01\n      add\n      swap1\n      0x20\n      add\n      dup1\n      dup4\n      gt\n      tag_123\n      jumpi\n      dup3\n      swap1\n      sub\n      0x1f\n      and\n      dup3\n      add\n      swap2\n    tag_121:\n      pop\n      pop\n      pop\n      pop\n      pop\n      dup2\n      mstore\n      0x20\n      add\n      0x03\n      dup3\n      add\n      dup1\n      sload\n      tag_124\n      swap1\n      tag_47\n      jump\t// in\n    tag_124:\n      dup1\n      0x1f\n      add\n      0x20\n      dup1\n      swap2\n      div\n      mul\n      0x20\n      add\n      mload(0x40)\n      swap1\n      dup2\n      add\n      0x40\n      mstore\n      dup1\n      swap3\n      swap2\n      swap1\n      dup2\n      dup2\n      mstore\n      0x20\n      add\n      dup3\n      dup1\n      sload\n      tag_125\n      swap1\n      tag_47\n      jump\t// in\n    tag_125:\n      dup1\n      iszero\n      tag_126\n      jumpi\n      dup1\n      0x1f\n      lt\n      tag_127\n      jumpi\n      0x0100\n      dup1\n      dup4\n      sload\n      div\n      mul\n      dup4\n      mstore\n      swap2\n      0x20\n      add\n      swap2\n      jump(tag_126)\n    tag_127:\n      dup3\n      add\n      swap2\n      swap1\n      0x00\n      mstore\n      keccak256(0x00, 0x20)\n      swap1\n    tag_128:\n      dup2\n      sload\n      dup2\n      mstore\n      swap1\n      0x01\n      add\n      swap1\n      0x20\n      add\n      dup1\n      dup4\n      gt\n      tag_128\n      jumpi\n      dup3\n      swap1\n      sub\n      0x1f\n      and\n      dup3\n      add\n      swap2\n    tag_126:\n      pop\n      pop\n      pop\n      pop\n      pop\n      dup2\n      mstore\n      0x20\n      add\n      0x04\n      dup3\n      add\n      dup1\n      sload\n      tag_129\n      swap1\n      tag_47\n      jump\t// in\n    tag_129:\n      dup1\n      0x1f\n      add\n      0x20\n      dup1\n      swap2\n      div\n      mul\n      0x20\n      add\n      mload(0x40)\n      swap1\n      dup2\n      add\n      0x40\n      mstore\n      dup1\n      swap3\n      swap2\n      swap1\n      dup2\n      dup2\n      mstore\n      0x20\n      add\n      dup3\n      dup1\n      sload\n      tag_130\n      swap1\n      tag_47\n      jump\t// in\n    tag_130:\n      dup1\n      iszero\n      tag_131\n      jumpi\n      dup1\n      0x1f\n      lt\n      tag_132\n      jumpi\n      0x0100\n      dup1\n      dup4\n      sload\n      div\n      mul\n      dup4\n      mstore\n      swap2\n      0x20\n      add\n      swap2\n      jump(tag_131)\n    tag_132:\n      dup3\n      add\n      swap2\n      swap1\n      0x00\n      mstore\n      keccak256(0x00, 0x20)\n      swap1\n    tag_133:\n      dup2\n      sload\n      dup2\n      mstore\n      swap1\n      0x01\n      add\n      swap1\n      0x20\n      add\n      dup1\n      dup4\n      gt\n      tag_133\n      jumpi\n      dup3\n      swap1\n      sub\n      0x1f\n      and\n      dup3\n      add\n      swap2\n    tag_131:\n      pop\n      pop\n      pop\n      pop\n      pop\n      dup2\n      mstore\n      pop\n      pop\n      swap1\n      dup1\n      0x0b\n      add\n      mload(0x40)\n      dup1\n      0x60\n      add\n      0x40\n      mstore\n      swap1\n      dup2\n      0x00\n      dup3\n      add\n      dup1\n      sload\n      dup1\n      0x20\n      mul\n      0x20\n      add\n      mload(0x40)\n      swap1\n      dup2\n      add\n      0x40\n      mstore\n      dup1\n      swap3\n      swap2\n      swap1\n      dup2\n      dup2\n      mstore\n      0x20\n      add\n      0x00\n      swap1\n    tag_134:\n      dup3\n      dup3\n      lt\n      iszero\n      tag_135\n      jumpi\n      dup4\n      dup3\n      swap1\n      0x00\n      mstore\n      keccak256(0x00, 0x20)\n      add\n      dup1\n      sload\n      tag_137\n      swap1\n      tag_47\n      jump\t// in\n    tag_137:\n      dup1\n      0x1f\n      add\n      0x20\n      dup1\n      swap2\n      div\n      mul\n      0x20\n      add\n      mload(0x40)\n      swap1\n      dup2\n      add\n      0x40\n      mstore\n      dup1\n      swap3\n      swap2\n      swap1\n      dup2\n      dup2\n      mstore\n      0x20\n      add\n      dup3\n      dup1\n      sload\n      tag_138\n      swap1\n      tag_47\n      jump\t// in\n    tag_138:\n      dup1\n      iszero\n      tag_139\n      jumpi\n      dup1\n      0x1f\n      lt\n      tag_140\n      jumpi\n      0x0100\n      dup1\n      dup4\n      sload\n      div\n      mul\n      dup4\n      mstore\n      swap2\n      0x20\n      add\n      swap2\n      jump(tag_139)\n    tag_140:\n      dup3\n      add\n      swap2\n      swap1\n      0x00\n      mstore\n      keccak256(0x00, 0x20)\n      swap1\n    tag_141:\n      dup2\n      sload\n      dup2\n      mstore\n      swap1\n      0x01\n      add\n      swap1\n      0x20\n      add\n      dup1\n      dup4\n      gt\n      tag_141\n      jumpi\n      dup3\n      swap1\n      sub\n      0x1f\n      and\n      dup3\n      add\n      swap2\n    tag_139:\n      pop\n      pop\n      pop\n      pop\n      pop\n      dup2\n      mstore\n      0x20\n      add\n      swap1\n      0x01\n      add\n      swap1\n      jump(tag_134)\n    tag_135:\n      pop\n      pop\n      pop\n      pop\n      dup2\n      mstore\n      0x20\n      add\n      0x01\n      dup3\n      add\n      dup1\n      sload\n      dup1\n      0x20\n      mul\n      0x20\n      add\n      mload(0x40)\n      swap1\n      dup2\n      add\n      0x40\n      mstore\n      dup1\n      swap3\n      swap2\n      swap1\n      dup2\n      dup2\n      mstore\n      0x20\n      add\n      0x00\n      swap1\n    tag_142:\n      dup3\n      dup3\n      lt\n      iszero\n      tag_143\n      jumpi\n      dup4\n      dup3\n      swap1\n      0x00\n      mstore\n      keccak256(0x00, 0x20)\n      add\n      dup1\n      sload\n      tag_145\n      swap1\n      tag_47\n      jump\t// in\n    tag_145:\n      dup1\n      0x1f\n      add\n      0x20\n      dup1\n      swap2\n      div\n      mul\n      0x20\n      add\n      mload(0x40)\n      swap1\n      dup2\n      add\n      0x40\n      mstore\n      dup1\n      swap3\n      swap2\n      swap1\n      dup2\n      dup2\n      mstore\n      0x20\n      add\n      dup3\n      dup1\n      sload\n      tag_146\n      swap1\n      tag_47\n      jump\t// in\n    tag_146:\n      dup1\n      iszero\n      tag_147\n      jumpi\n      dup1\n      0x1f\n      lt\n      tag_148\n      jumpi\n      0x0100\n      dup1\n      dup4\n      sload\n      div\n      mul\n      dup4\n      mstore\n      swap2\n      0x20\n      add\n      swap2\n      jump(tag_147)\n    tag_148:\n      dup3\n      add\n      swap2\n      swap1\n      0x00\n      mstore\n      keccak256(0x00, 0x20)\n      swap1\n    tag_149:\n      dup2\n      sload\n      dup2\n      mstore\n      swap1\n      0x01\n      add\n      swap1\n      0x20\n      add\n      dup1\n      dup4\n      gt\n      tag_149\n      jumpi\n      dup3\n      swap1\n      sub\n      0x1f\n      and\n      dup3\n      add\n      swap2\n    tag_147:\n      pop\n      pop\n      pop\n      pop\n      pop\n      dup2\n      mstore\n      0x20\n      add\n      swap1\n      0x01\n      add\n      swap1\n      jump(tag_142)\n    tag_143:\n      pop\n      pop\n      pop\n      pop\n      dup2\n      mstore\n      0x20\n      add\n      0x02\n      dup3\n      add\n      dup1\n      sload\n      dup1\n      0x20\n      mul\n      0x20\n      add\n      mload(0x40)\n      swap1\n      dup2\n      add\n      0x40\n      mstore\n      dup1\n      swap3\n      swap2\n      swap1\n      dup2\n      dup2\n      mstore\n      0x20\n      add\n      0x00\n      swap1\n    tag_150:\n      dup3\n      dup3\n      lt\n      iszero\n      tag_151\n      jumpi\n      dup4\n      dup3\n      swap1\n      0x00\n      mstore\n      keccak256(0x00, 0x20)\n      add\n      dup1\n      sload\n      tag_153\n      swap1\n      tag_47\n      jump\t// in\n    tag_153:\n      dup1\n      0x1f\n      add\n      0x20\n      dup1\n      swap2\n      div\n      mul\n      0x20\n      add\n      mload(0x40)\n      swap1\n      dup2\n      add\n      0x40\n      mstore\n      dup1\n      swap3\n      swap2\n      swap1\n      dup2\n      dup2\n      mstore\n      0x20\n      add\n      dup3\n      dup1\n      sload\n      tag_154\n      swap1\n      tag_47\n      jump\t// in\n    tag_154:\n      dup1\n      iszero\n      tag_155\n      jumpi\n      dup1\n      0x1f\n      lt\n      tag_156\n      jumpi\n      0x0100\n      dup1\n      dup4\n      sload\n      div\n      mul\n      dup4\n      mstore\n      swap2\n      0x20\n      add\n      swap2\n      jump(tag_155)\n    tag_156:\n      dup3\n      add\n      swap2\n      swap1\n      0x00\n      mstore\n      keccak256(0x00, 0x20)\n      swap1\n    tag_157:\n      dup2\n      sload\n      dup2\n      mstore\n      swap1\n      0x01\n      add\n      swap1\n      0x20\n      add\n      dup1\n      dup4\n      gt\n      tag_157\n      jumpi\n      dup3\n      swap1\n      sub\n      0x1f\n      and\n      dup3\n      add\n      swap2\n    tag_155:\n      pop\n      pop\n      pop\n      pop\n      pop\n      dup2\n      mstore\n      0x20\n      add\n      swap1\n      0x01\n      add\n      swap1\n      jump(tag_150)\n    tag_151:\n      pop\n      pop\n      pop\n      pop\n      dup2\n      mstore\n      pop\n      pop\n      swap1\n      pop\n      dup9\n      jump\t// out\n        /* \"contracts/Profile.sol\":2314:2651  function createUnivercity(string memory startDate, string memory endDate, string memory univercity) public {\r... */\n    tag_36:\n        /* \"contracts/Profile.sol\":2432:2459  Education memory _education */\n      tag_159\n      tag_40\n      jump\t// in\n    tag_159:\n        /* \"contracts/Profile.sol\":2493:2502  startDate */\n      dup4\n        /* \"contracts/Profile.sol\":2470:2480  _education */\n      dup2\n        /* \"contracts/Profile.sol\":2470:2490  _education.startDate */\n      0x00\n      add\n        /* \"contracts/Profile.sol\":2470:2502  _education.startDate = startDate */\n      dup2\n      swap1\n      mstore\n      pop\n        /* \"contracts/Profile.sol\":2534:2541  endDate */\n      dup3\n        /* \"contracts/Profile.sol\":2513:2523  _education */\n      dup2\n        /* \"contracts/Profile.sol\":2513:2531  _education.endDate */\n      0x20\n      add\n        /* \"contracts/Profile.sol\":2513:2541  _education.endDate = endDate */\n      dup2\n      swap1\n      mstore\n      pop\n        /* \"contracts/Profile.sol\":2576:2586  univercity */\n      dup2\n        /* \"contracts/Profile.sol\":2552:2562  _education */\n      dup2\n        /* \"contracts/Profile.sol\":2552:2573  _education.univercity */\n      0x40\n      add\n        /* \"contracts/Profile.sol\":2552:2586  _education.univercity = univercity */\n      dup2\n      swap1\n      mstore\n      pop\n        /* \"contracts/Profile.sol\":2597:2604  profile */\n      0x00\n        /* \"contracts/Profile.sol\":2597:2616  profile[msg.sender] */\n      dup1\n        /* \"contracts/Profile.sol\":2605:2615  msg.sender */\n      caller\n        /* \"contracts/Profile.sol\":2597:2616  profile[msg.sender] */\n      0xffffffffffffffffffffffffffffffffffffffff\n      and\n      0xffffffffffffffffffffffffffffffffffffffff\n      and\n      dup2\n      mstore\n      0x20\n      add\n      swap1\n      dup2\n      mstore\n      0x20\n      add\n      0x00\n      keccak256\n        /* \"contracts/Profile.sol\":2597:2626  profile[msg.sender].education */\n      0x0e\n      add\n        /* \"contracts/Profile.sol\":2632:2642  _education */\n      dup2\n        /* \"contracts/Profile.sol\":2597:2643  profile[msg.sender].education.push(_education) */\n      swap1\n      dup1\n      0x01\n      dup2\n      sload\n      add\n      dup1\n      dup3\n      sstore\n      dup1\n      swap2\n      pop\n      pop\n      0x01\n      swap1\n      sub\n      swap1\n      0x00\n      mstore\n      keccak256(0x00, 0x20)\n      swap1\n      0x03\n      mul\n      add\n      0x00\n      swap1\n      swap2\n      swap1\n      swap2\n      swap1\n      swap2\n      pop\n      0x00\n      dup3\n      add\n      mload\n      dup2\n      0x00\n      add\n      swap1\n      dup1\n      mload\n      swap1\n      0x20\n      add\n      swap1\n      tag_161\n      swap3\n      swap2\n      swap1\n      tag_79\n      jump\t// in\n    tag_161:\n      pop\n      0x20\n      dup3\n      add\n      mload\n      dup2\n      0x01\n      add\n      swap1\n      dup1\n      mload\n      swap1\n      0x20\n      add\n      swap1\n      tag_162\n      swap3\n      swap2\n      swap1\n      tag_79\n      jump\t// in\n    tag_162:\n      pop\n      0x40\n      dup3\n      add\n      mload\n      dup2\n      0x02\n      add\n      swap1\n      dup1\n      mload\n      swap1\n      0x20\n      add\n      swap1\n      tag_163\n      swap3\n      swap2\n      swap1\n      tag_79\n      jump\t// in\n    tag_163:\n      pop\n      pop\n      pop\n        /* \"contracts/Profile.sol\":2421:2651  {\r... */\n      pop\n        /* \"contracts/Profile.sol\":2314:2651  function createUnivercity(string memory startDate, string memory endDate, string memory univercity) public {\r... */\n      pop\n      pop\n      pop\n      jump\t// out\n        /* \"contracts/Profile.sol\":2794:2870  function delProfile() external {\r... */\n    tag_38:\n        /* \"contracts/Profile.sol\":2843:2850  profile */\n      0x00\n        /* \"contracts/Profile.sol\":2843:2862  profile[msg.sender] */\n      dup1\n        /* \"contracts/Profile.sol\":2851:2861  msg.sender */\n      caller\n        /* \"contracts/Profile.sol\":2843:2862  profile[msg.sender] */\n      0xffffffffffffffffffffffffffffffffffffffff\n      and\n      0xffffffffffffffffffffffffffffffffffffffff\n      and\n      dup2\n      mstore\n      0x20\n      add\n      swap1\n      dup2\n      mstore\n      0x20\n      add\n      0x00\n      keccak256\n      0x00\n        /* \"contracts/Profile.sol\":2836:2862  delete profile[msg.sender] */\n      dup1\n      dup3\n      add\n      exp(0x0100, 0x00)\n      dup2\n      sload\n      swap1\n      0xffffffffffffffffffffffffffffffffffffffff\n      mul\n      not\n      and\n      swap1\n      sstore\n      0x01\n      dup3\n      add\n      0x00\n      tag_165\n      swap2\n      swap1\n      tag_73\n      jump\t// in\n    tag_165:\n      0x02\n      dup3\n      add\n      0x00\n      tag_166\n      swap2\n      swap1\n      tag_73\n      jump\t// in\n    tag_166:\n      0x03\n      dup3\n      add\n      0x00\n      tag_167\n      swap2\n      swap1\n      tag_73\n      jump\t// in\n    tag_167:\n      0x04\n      dup3\n      add\n      0x00\n      tag_168\n      swap2\n      swap1\n      tag_73\n      jump\t// in\n    tag_168:\n      0x05\n      dup3\n      add\n      0x00\n      swap1\n      sstore\n      0x06\n      dup3\n      add\n      0x00\n      dup1\n      dup3\n      add\n      0x00\n      tag_169\n      swap2\n      swap1\n      tag_73\n      jump\t// in\n    tag_169:\n      0x01\n      dup3\n      add\n      0x00\n      tag_170\n      swap2\n      swap1\n      tag_73\n      jump\t// in\n    tag_170:\n      0x02\n      dup3\n      add\n      0x00\n      tag_171\n      swap2\n      swap1\n      tag_73\n      jump\t// in\n    tag_171:\n      0x03\n      dup3\n      add\n      0x00\n      tag_172\n      swap2\n      swap1\n      tag_73\n      jump\t// in\n    tag_172:\n      0x04\n      dup3\n      add\n      0x00\n      tag_173\n      swap2\n      swap1\n      tag_73\n      jump\t// in\n    tag_173:\n      pop\n      pop\n      0x0b\n      dup3\n      add\n      0x00\n      dup1\n      dup3\n      add\n      0x00\n      tag_174\n      swap2\n      swap1\n      tag_64\n      jump\t// in\n    tag_174:\n      0x01\n      dup3\n      add\n      0x00\n      tag_175\n      swap2\n      swap1\n      tag_64\n      jump\t// in\n    tag_175:\n      0x02\n      dup3\n      add\n      0x00\n      tag_176\n      swap2\n      swap1\n      tag_64\n      jump\t// in\n    tag_176:\n      pop\n      pop\n      0x0e\n      dup3\n      add\n      0x00\n      tag_177\n      swap2\n      swap1\n      tag_178\n      jump\t// in\n    tag_177:\n      pop\n      pop\n        /* \"contracts/Profile.sol\":2794:2870  function delProfile() external {\r... */\n      jump\t// out\n    tag_40:\n      mload(0x40)\n      dup1\n      0x60\n      add\n      0x40\n      mstore\n      dup1\n      0x60\n      dup2\n      mstore\n      0x20\n      add\n      0x60\n      dup2\n      mstore\n      0x20\n      add\n      0x60\n      dup2\n      mstore\n      pop\n      swap1\n      jump\t// out\n    tag_64:\n      pop\n      dup1\n      sload\n      0x00\n      dup3\n      sstore\n      swap1\n      0x00\n      mstore\n      keccak256(0x00, 0x20)\n      swap1\n      dup2\n      add\n      swap1\n      tag_180\n      swap2\n      swap1\n      tag_181\n      jump\t// in\n    tag_180:\n      pop\n      jump\t// out\n    tag_68:\n      dup3\n      dup1\n      sload\n      dup3\n      dup3\n      sstore\n      swap1\n      0x00\n      mstore\n      keccak256(0x00, 0x20)\n      swap1\n      dup2\n      add\n      swap3\n      dup3\n      iszero\n      tag_182\n      jumpi\n      swap2\n      0x20\n      mul\n      dup3\n      add\n    tag_183:\n      dup3\n      dup2\n      gt\n      iszero\n      tag_184\n      jumpi\n      dup3\n      mload\n      dup3\n      swap1\n      dup1\n      mload\n      swap1\n      0x20\n      add\n      swap1\n      tag_185\n      swap3\n      swap2\n      swap1\n      tag_79\n      jump\t// in\n    tag_185:\n      pop\n      swap2\n      0x20\n      add\n      swap2\n      swap1\n      0x01\n      add\n      swap1\n      jump(tag_183)\n    tag_184:\n    tag_182:\n      pop\n      swap1\n      pop\n      tag_186\n      swap2\n      swap1\n      tag_181\n      jump\t// in\n    tag_186:\n      pop\n      swap1\n      jump\t// out\n    tag_73:\n      pop\n      dup1\n      sload\n      tag_187\n      swap1\n      tag_47\n      jump\t// in\n    tag_187:\n      0x00\n      dup3\n      sstore\n      dup1\n      0x1f\n      lt\n      tag_189\n      jumpi\n      pop\n      jump(tag_188)\n    tag_189:\n      0x1f\n      add\n      0x20\n      swap1\n      div\n      swap1\n      0x00\n      mstore\n      keccak256(0x00, 0x20)\n      swap1\n      dup2\n      add\n      swap1\n      tag_190\n      swap2\n      swap1\n      tag_191\n      jump\t// in\n    tag_190:\n    tag_188:\n      pop\n      jump\t// out\n    tag_79:\n      dup3\n      dup1\n      sload\n      tag_192\n      swap1\n      tag_47\n      jump\t// in\n    tag_192:\n      swap1\n      0x00\n      mstore\n      keccak256(0x00, 0x20)\n      swap1\n      0x1f\n      add\n      0x20\n      swap1\n      div\n      dup2\n      add\n      swap3\n      dup3\n      tag_194\n      jumpi\n      0x00\n      dup6\n      sstore\n      jump(tag_193)\n    tag_194:\n      dup3\n      0x1f\n      lt\n      tag_195\n      jumpi\n      dup1\n      mload\n      not(0xff)\n      and\n      dup4\n      dup1\n      add\n      or\n      dup6\n      sstore\n      jump(tag_193)\n    tag_195:\n      dup3\n      dup1\n      add\n      0x01\n      add\n      dup6\n      sstore\n      dup3\n      iszero\n      tag_193\n      jumpi\n      swap2\n      dup3\n      add\n    tag_196:\n      dup3\n      dup2\n      gt\n      iszero\n      tag_197\n      jumpi\n      dup3\n      mload\n      dup3\n      sstore\n      swap2\n      0x20\n      add\n      swap2\n      swap1\n      0x01\n      add\n      swap1\n      jump(tag_196)\n    tag_197:\n    tag_193:\n      pop\n      swap1\n      pop\n      tag_198\n      swap2\n      swap1\n      tag_191\n      jump\t// in\n    tag_198:\n      pop\n      swap1\n      jump\t// out\n    tag_178:\n      pop\n      dup1\n      sload\n      0x00\n      dup3\n      sstore\n      0x03\n      mul\n      swap1\n      0x00\n      mstore\n      keccak256(0x00, 0x20)\n      swap1\n      dup2\n      add\n      swap1\n      tag_200\n      swap2\n      swap1\n      tag_201\n      jump\t// in\n    tag_200:\n      pop\n      jump\t// out\n    tag_181:\n    tag_202:\n      dup1\n      dup3\n      gt\n      iszero\n      tag_203\n      jumpi\n      0x00\n      dup2\n      dup2\n      tag_204\n      swap2\n      swap1\n      tag_73\n      jump\t// in\n    tag_204:\n      pop\n      0x01\n      add\n      jump(tag_202)\n    tag_203:\n      pop\n      swap1\n      jump\t// out\n    tag_191:\n    tag_205:\n      dup1\n      dup3\n      gt\n      iszero\n      tag_206\n      jumpi\n      0x00\n      dup2\n      0x00\n      swap1\n      sstore\n      pop\n      0x01\n      add\n      jump(tag_205)\n    tag_206:\n      pop\n      swap1\n      jump\t// out\n    tag_201:\n    tag_207:\n      dup1\n      dup3\n      gt\n      iszero\n      tag_208\n      jumpi\n      0x00\n      dup1\n      dup3\n      add\n      0x00\n      tag_209\n      swap2\n      swap1\n      tag_73\n      jump\t// in\n    tag_209:\n      0x01\n      dup3\n      add\n      0x00\n      tag_210\n      swap2\n      swap1\n      tag_73\n      jump\t// in\n    tag_210:\n      0x02\n      dup3\n      add\n      0x00\n      tag_211\n      swap2\n      swap1\n      tag_73\n      jump\t// in\n    tag_211:\n      pop\n      0x03\n      add\n      jump(tag_207)\n    tag_208:\n      pop\n      swap1\n      jump\t// out\n        /* \"#utility.yul\":23:980   */\n    tag_213:\n        /* \"#utility.yul\":129:134   */\n      0x00\n        /* \"#utility.yul\":154:245   */\n      tag_215\n        /* \"#utility.yul\":170:244   */\n      tag_216\n        /* \"#utility.yul\":237:243   */\n      dup5\n        /* \"#utility.yul\":170:244   */\n      tag_217\n      jump\t// in\n    tag_216:\n        /* \"#utility.yul\":154:245   */\n      tag_218\n      jump\t// in\n    tag_215:\n        /* \"#utility.yul\":145:245   */\n      swap1\n      pop\n        /* \"#utility.yul\":265:270   */\n      dup1\n        /* \"#utility.yul\":294:300   */\n      dup4\n        /* \"#utility.yul\":287:292   */\n      dup3\n        /* \"#utility.yul\":280:301   */\n      mstore\n        /* \"#utility.yul\":328:332   */\n      0x20\n        /* \"#utility.yul\":321:326   */\n      dup3\n        /* \"#utility.yul\":317:333   */\n      add\n        /* \"#utility.yul\":310:333   */\n      swap1\n      pop\n        /* \"#utility.yul\":354:360   */\n      dup3\n        /* \"#utility.yul\":404:407   */\n      dup6\n        /* \"#utility.yul\":396:400   */\n      0x20\n        /* \"#utility.yul\":388:394   */\n      dup7\n        /* \"#utility.yul\":384:401   */\n      mul\n        /* \"#utility.yul\":379:382   */\n      dup3\n        /* \"#utility.yul\":375:402   */\n      add\n        /* \"#utility.yul\":372:408   */\n      gt\n        /* \"#utility.yul\":369:512   */\n      iszero\n      tag_219\n      jumpi\n        /* \"#utility.yul\":423:502   */\n      tag_220\n      tag_221\n      jump\t// in\n    tag_220:\n        /* \"#utility.yul\":369:512   */\n    tag_219:\n        /* \"#utility.yul\":536:537   */\n      0x00\n        /* \"#utility.yul\":521:974   */\n    tag_222:\n        /* \"#utility.yul\":546:552   */\n      dup6\n        /* \"#utility.yul\":543:544   */\n      dup2\n        /* \"#utility.yul\":540:553   */\n      lt\n        /* \"#utility.yul\":521:974   */\n      iszero\n      tag_224\n      jumpi\n        /* \"#utility.yul\":628:631   */\n      dup2\n        /* \"#utility.yul\":615:632   */\n      calldataload\n        /* \"#utility.yul\":664:682   */\n      0xffffffffffffffff\n        /* \"#utility.yul\":651:662   */\n      dup2\n        /* \"#utility.yul\":648:683   */\n      gt\n        /* \"#utility.yul\":645:767   */\n      iszero\n      tag_225\n      jumpi\n        /* \"#utility.yul\":686:765   */\n      tag_226\n      tag_227\n      jump\t// in\n    tag_226:\n        /* \"#utility.yul\":645:767   */\n    tag_225:\n        /* \"#utility.yul\":810:821   */\n      dup1\n        /* \"#utility.yul\":802:808   */\n      dup7\n        /* \"#utility.yul\":798:822   */\n      add\n        /* \"#utility.yul\":848:895   */\n      tag_228\n        /* \"#utility.yul\":891:894   */\n      dup10\n        /* \"#utility.yul\":879:889   */\n      dup3\n        /* \"#utility.yul\":848:895   */\n      tag_229\n      jump\t// in\n    tag_228:\n        /* \"#utility.yul\":843:846   */\n      dup6\n        /* \"#utility.yul\":836:896   */\n      mstore\n        /* \"#utility.yul\":925:929   */\n      0x20\n        /* \"#utility.yul\":920:923   */\n      dup6\n        /* \"#utility.yul\":916:930   */\n      add\n        /* \"#utility.yul\":909:930   */\n      swap5\n      pop\n        /* \"#utility.yul\":959:963   */\n      0x20\n        /* \"#utility.yul\":954:957   */\n      dup5\n        /* \"#utility.yul\":950:964   */\n      add\n        /* \"#utility.yul\":943:964   */\n      swap4\n      pop\n        /* \"#utility.yul\":581:974   */\n      pop\n      pop\n        /* \"#utility.yul\":568:569   */\n      0x01\n        /* \"#utility.yul\":565:566   */\n      dup2\n        /* \"#utility.yul\":561:570   */\n      add\n        /* \"#utility.yul\":556:570   */\n      swap1\n      pop\n        /* \"#utility.yul\":521:974   */\n      jump(tag_222)\n    tag_224:\n        /* \"#utility.yul\":525:539   */\n      pop\n        /* \"#utility.yul\":135:980   */\n      pop\n      pop\n        /* \"#utility.yul\":23:980   */\n      swap4\n      swap3\n      pop\n      pop\n      pop\n      jump\t// out\n        /* \"#utility.yul\":986:1398   */\n    tag_230:\n        /* \"#utility.yul\":1064:1069   */\n      0x00\n        /* \"#utility.yul\":1089:1155   */\n      tag_232\n        /* \"#utility.yul\":1105:1154   */\n      tag_233\n        /* \"#utility.yul\":1147:1153   */\n      dup5\n        /* \"#utility.yul\":1105:1154   */\n      tag_234\n      jump\t// in\n    tag_233:\n        /* \"#utility.yul\":1089:1155   */\n      tag_218\n      jump\t// in\n    tag_232:\n        /* \"#utility.yul\":1080:1155   */\n      swap1\n      pop\n        /* \"#utility.yul\":1178:1184   */\n      dup3\n        /* \"#utility.yul\":1171:1176   */\n      dup2\n        /* \"#utility.yul\":1164:1185   */\n      mstore\n        /* \"#utility.yul\":1216:1220   */\n      0x20\n        /* \"#utility.yul\":1209:1214   */\n      dup2\n        /* \"#utility.yul\":1205:1221   */\n      add\n        /* \"#utility.yul\":1254:1257   */\n      dup5\n        /* \"#utility.yul\":1245:1251   */\n      dup5\n        /* \"#utility.yul\":1240:1243   */\n      dup5\n        /* \"#utility.yul\":1236:1252   */\n      add\n        /* \"#utility.yul\":1233:1258   */\n      gt\n        /* \"#utility.yul\":1230:1342   */\n      iszero\n      tag_235\n      jumpi\n        /* \"#utility.yul\":1261:1340   */\n      tag_236\n      tag_237\n      jump\t// in\n    tag_236:\n        /* \"#utility.yul\":1230:1342   */\n    tag_235:\n        /* \"#utility.yul\":1351:1392   */\n      tag_238\n        /* \"#utility.yul\":1385:1391   */\n      dup5\n        /* \"#utility.yul\":1380:1383   */\n      dup3\n        /* \"#utility.yul\":1375:1378   */\n      dup6\n        /* \"#utility.yul\":1351:1392   */\n      tag_239\n      jump\t// in\n    tag_238:\n        /* \"#utility.yul\":1070:1398   */\n      pop\n        /* \"#utility.yul\":986:1398   */\n      swap4\n      swap3\n      pop\n      pop\n      pop\n      jump\t// out\n        /* \"#utility.yul\":1404:1543   */\n    tag_240:\n        /* \"#utility.yul\":1450:1455   */\n      0x00\n        /* \"#utility.yul\":1488:1494   */\n      dup2\n        /* \"#utility.yul\":1475:1495   */\n      calldataload\n        /* \"#utility.yul\":1466:1495   */\n      swap1\n      pop\n        /* \"#utility.yul\":1504:1537   */\n      tag_242\n        /* \"#utility.yul\":1531:1536   */\n      dup2\n        /* \"#utility.yul\":1504:1537   */\n      tag_243\n      jump\t// in\n    tag_242:\n        /* \"#utility.yul\":1404:1543   */\n      swap3\n      swap2\n      pop\n      pop\n      jump\t// out\n        /* \"#utility.yul\":1565:1955   */\n    tag_244:\n        /* \"#utility.yul\":1646:1651   */\n      0x00\n        /* \"#utility.yul\":1695:1698   */\n      dup3\n        /* \"#utility.yul\":1688:1692   */\n      0x1f\n        /* \"#utility.yul\":1680:1686   */\n      dup4\n        /* \"#utility.yul\":1676:1693   */\n      add\n        /* \"#utility.yul\":1672:1699   */\n      slt\n        /* \"#utility.yul\":1662:1784   */\n      tag_246\n      jumpi\n        /* \"#utility.yul\":1703:1782   */\n      tag_247\n      tag_227\n      jump\t// in\n    tag_247:\n        /* \"#utility.yul\":1662:1784   */\n    tag_246:\n        /* \"#utility.yul\":1820:1826   */\n      dup2\n        /* \"#utility.yul\":1807:1827   */\n      calldataload\n        /* \"#utility.yul\":1845:1949   */\n      tag_248\n        /* \"#utility.yul\":1945:1948   */\n      dup5\n        /* \"#utility.yul\":1937:1943   */\n      dup3\n        /* \"#utility.yul\":1930:1934   */\n      0x20\n        /* \"#utility.yul\":1922:1928   */\n      dup7\n        /* \"#utility.yul\":1918:1935   */\n      add\n        /* \"#utility.yul\":1845:1949   */\n      tag_213\n      jump\t// in\n    tag_248:\n        /* \"#utility.yul\":1836:1949   */\n      swap2\n      pop\n        /* \"#utility.yul\":1652:1955   */\n      pop\n        /* \"#utility.yul\":1565:1955   */\n      swap3\n      swap2\n      pop\n      pop\n      jump\t// out\n        /* \"#utility.yul\":1975:2315   */\n    tag_229:\n        /* \"#utility.yul\":2031:2036   */\n      0x00\n        /* \"#utility.yul\":2080:2083   */\n      dup3\n        /* \"#utility.yul\":2073:2077   */\n      0x1f\n        /* \"#utility.yul\":2065:2071   */\n      dup4\n        /* \"#utility.yul\":2061:2078   */\n      add\n        /* \"#utility.yul\":2057:2084   */\n      slt\n        /* \"#utility.yul\":2047:2169   */\n      tag_250\n      jumpi\n        /* \"#utility.yul\":2088:2167   */\n      tag_251\n      tag_227\n      jump\t// in\n    tag_251:\n        /* \"#utility.yul\":2047:2169   */\n    tag_250:\n        /* \"#utility.yul\":2205:2211   */\n      dup2\n        /* \"#utility.yul\":2192:2212   */\n      calldataload\n        /* \"#utility.yul\":2230:2309   */\n      tag_252\n        /* \"#utility.yul\":2305:2308   */\n      dup5\n        /* \"#utility.yul\":2297:2303   */\n      dup3\n        /* \"#utility.yul\":2290:2294   */\n      0x20\n        /* \"#utility.yul\":2282:2288   */\n      dup7\n        /* \"#utility.yul\":2278:2295   */\n      add\n        /* \"#utility.yul\":2230:2309   */\n      tag_230\n      jump\t// in\n    tag_252:\n        /* \"#utility.yul\":2221:2309   */\n      swap2\n      pop\n        /* \"#utility.yul\":2037:2315   */\n      pop\n        /* \"#utility.yul\":1975:2315   */\n      swap3\n      swap2\n      pop\n      pop\n      jump\t// out\n        /* \"#utility.yul\":2321:2650   */\n    tag_29:\n        /* \"#utility.yul\":2380:2386   */\n      0x00\n        /* \"#utility.yul\":2429:2431   */\n      0x20\n        /* \"#utility.yul\":2417:2426   */\n      dup3\n        /* \"#utility.yul\":2408:2415   */\n      dup5\n        /* \"#utility.yul\":2404:2427   */\n      sub\n        /* \"#utility.yul\":2400:2432   */\n      slt\n        /* \"#utility.yul\":2397:2516   */\n      iszero\n      tag_254\n      jumpi\n        /* \"#utility.yul\":2435:2514   */\n      tag_255\n      tag_256\n      jump\t// in\n    tag_255:\n        /* \"#utility.yul\":2397:2516   */\n    tag_254:\n        /* \"#utility.yul\":2555:2556   */\n      0x00\n        /* \"#utility.yul\":2580:2633   */\n      tag_257\n        /* \"#utility.yul\":2625:2632   */\n      dup5\n        /* \"#utility.yul\":2616:2622   */\n      dup3\n        /* \"#utility.yul\":2605:2614   */\n      dup6\n        /* \"#utility.yul\":2601:2623   */\n      add\n        /* \"#utility.yul\":2580:2633   */\n      tag_240\n      jump\t// in\n    tag_257:\n        /* \"#utility.yul\":2570:2633   */\n      swap2\n      pop\n        /* \"#utility.yul\":2526:2643   */\n      pop\n        /* \"#utility.yul\":2321:2650   */\n      swap3\n      swap2\n      pop\n      pop\n      jump\t// out\n        /* \"#utility.yul\":2656:3965   */\n    tag_17:\n        /* \"#utility.yul\":2838:2844   */\n      0x00\n        /* \"#utility.yul\":2846:2852   */\n      dup1\n        /* \"#utility.yul\":2854:2860   */\n      0x00\n        /* \"#utility.yul\":2903:2905   */\n      0x60\n        /* \"#utility.yul\":2891:2900   */\n      dup5\n        /* \"#utility.yul\":2882:2889   */\n      dup7\n        /* \"#utility.yul\":2878:2901   */\n      sub\n        /* \"#utility.yul\":2874:2906   */\n      slt\n        /* \"#utility.yul\":2871:2990   */\n      iszero\n      tag_259\n      jumpi\n        /* \"#utility.yul\":2909:2988   */\n      tag_260\n      tag_256\n      jump\t// in\n    tag_260:\n        /* \"#utility.yul\":2871:2990   */\n    tag_259:\n        /* \"#utility.yul\":3057:3058   */\n      0x00\n        /* \"#utility.yul\":3046:3055   */\n      dup5\n        /* \"#utility.yul\":3042:3059   */\n      add\n        /* \"#utility.yul\":3029:3060   */\n      calldataload\n        /* \"#utility.yul\":3087:3105   */\n      0xffffffffffffffff\n        /* \"#utility.yul\":3079:3085   */\n      dup2\n        /* \"#utility.yul\":3076:3106   */\n      gt\n        /* \"#utility.yul\":3073:3190   */\n      iszero\n      tag_261\n      jumpi\n        /* \"#utility.yul\":3109:3188   */\n      tag_262\n      tag_263\n      jump\t// in\n    tag_262:\n        /* \"#utility.yul\":3073:3190   */\n    tag_261:\n        /* \"#utility.yul\":3214:3302   */\n      tag_264\n        /* \"#utility.yul\":3294:3301   */\n      dup7\n        /* \"#utility.yul\":3285:3291   */\n      dup3\n        /* \"#utility.yul\":3274:3283   */\n      dup8\n        /* \"#utility.yul\":3270:3292   */\n      add\n        /* \"#utility.yul\":3214:3302   */\n      tag_244\n      jump\t// in\n    tag_264:\n        /* \"#utility.yul\":3204:3302   */\n      swap4\n      pop\n        /* \"#utility.yul\":3000:3312   */\n      pop\n        /* \"#utility.yul\":3379:3381   */\n      0x20\n        /* \"#utility.yul\":3368:3377   */\n      dup5\n        /* \"#utility.yul\":3364:3382   */\n      add\n        /* \"#utility.yul\":3351:3383   */\n      calldataload\n        /* \"#utility.yul\":3410:3428   */\n      0xffffffffffffffff\n        /* \"#utility.yul\":3402:3408   */\n      dup2\n        /* \"#utility.yul\":3399:3429   */\n      gt\n        /* \"#utility.yul\":3396:3513   */\n      iszero\n      tag_265\n      jumpi\n        /* \"#utility.yul\":3432:3511   */\n      tag_266\n      tag_263\n      jump\t// in\n    tag_266:\n        /* \"#utility.yul\":3396:3513   */\n    tag_265:\n        /* \"#utility.yul\":3537:3625   */\n      tag_267\n        /* \"#utility.yul\":3617:3624   */\n      dup7\n        /* \"#utility.yul\":3608:3614   */\n      dup3\n        /* \"#utility.yul\":3597:3606   */\n      dup8\n        /* \"#utility.yul\":3593:3615   */\n      add\n        /* \"#utility.yul\":3537:3625   */\n      tag_244\n      jump\t// in\n    tag_267:\n        /* \"#utility.yul\":3527:3625   */\n      swap3\n      pop\n        /* \"#utility.yul\":3322:3635   */\n      pop\n        /* \"#utility.yul\":3702:3704   */\n      0x40\n        /* \"#utility.yul\":3691:3700   */\n      dup5\n        /* \"#utility.yul\":3687:3705   */\n      add\n        /* \"#utility.yul\":3674:3706   */\n      calldataload\n        /* \"#utility.yul\":3733:3751   */\n      0xffffffffffffffff\n        /* \"#utility.yul\":3725:3731   */\n      dup2\n        /* \"#utility.yul\":3722:3752   */\n      gt\n        /* \"#utility.yul\":3719:3836   */\n      iszero\n      tag_268\n      jumpi\n        /* \"#utility.yul\":3755:3834   */\n      tag_269\n      tag_263\n      jump\t// in\n    tag_269:\n        /* \"#utility.yul\":3719:3836   */\n    tag_268:\n        /* \"#utility.yul\":3860:3948   */\n      tag_270\n        /* \"#utility.yul\":3940:3947   */\n      dup7\n        /* \"#utility.yul\":3931:3937   */\n      dup3\n        /* \"#utility.yul\":3920:3929   */\n      dup8\n        /* \"#utility.yul\":3916:3938   */\n      add\n        /* \"#utility.yul\":3860:3948   */\n      tag_244\n      jump\t// in\n    tag_270:\n        /* \"#utility.yul\":3850:3948   */\n      swap2\n      pop\n        /* \"#utility.yul\":3645:3958   */\n      pop\n        /* \"#utility.yul\":2656:3965   */\n      swap3\n      pop\n      swap3\n      pop\n      swap3\n      jump\t// out\n        /* \"#utility.yul\":3971:5130   */\n    tag_35:\n        /* \"#utility.yul\":4078:4084   */\n      0x00\n        /* \"#utility.yul\":4086:4092   */\n      dup1\n        /* \"#utility.yul\":4094:4100   */\n      0x00\n        /* \"#utility.yul\":4143:4145   */\n      0x60\n        /* \"#utility.yul\":4131:4140   */\n      dup5\n        /* \"#utility.yul\":4122:4129   */\n      dup7\n        /* \"#utility.yul\":4118:4141   */\n      sub\n        /* \"#utility.yul\":4114:4146   */\n      slt\n        /* \"#utility.yul\":4111:4230   */\n      iszero\n      tag_272\n      jumpi\n        /* \"#utility.yul\":4149:4228   */\n      tag_273\n      tag_256\n      jump\t// in\n    tag_273:\n        /* \"#utility.yul\":4111:4230   */\n    tag_272:\n        /* \"#utility.yul\":4297:4298   */\n      0x00\n        /* \"#utility.yul\":4286:4295   */\n      dup5\n        /* \"#utility.yul\":4282:4299   */\n      add\n        /* \"#utility.yul\":4269:4300   */\n      calldataload\n        /* \"#utility.yul\":4327:4345   */\n      0xffffffffffffffff\n        /* \"#utility.yul\":4319:4325   */\n      dup2\n        /* \"#utility.yul\":4316:4346   */\n      gt\n        /* \"#utility.yul\":4313:4430   */\n      iszero\n      tag_274\n      jumpi\n        /* \"#utility.yul\":4349:4428   */\n      tag_275\n      tag_263\n      jump\t// in\n    tag_275:\n        /* \"#utility.yul\":4313:4430   */\n    tag_274:\n        /* \"#utility.yul\":4454:4517   */\n      tag_276\n        /* \"#utility.yul\":4509:4516   */\n      dup7\n        /* \"#utility.yul\":4500:4506   */\n      dup3\n        /* \"#utility.yul\":4489:4498   */\n      dup8\n        /* \"#utility.yul\":4485:4507   */\n      add\n        /* \"#utility.yul\":4454:4517   */\n      tag_229\n      jump\t// in\n    tag_276:\n        /* \"#utility.yul\":4444:4517   */\n      swap4\n      pop\n        /* \"#utility.yul\":4240:4527   */\n      pop\n        /* \"#utility.yul\":4594:4596   */\n      0x20\n        /* \"#utility.yul\":4583:4592   */\n      dup5\n        /* \"#utility.yul\":4579:4597   */\n      add\n        /* \"#utility.yul\":4566:4598   */\n      calldataload\n        /* \"#utility.yul\":4625:4643   */\n      0xffffffffffffffff\n        /* \"#utility.yul\":4617:4623   */\n      dup2\n        /* \"#utility.yul\":4614:4644   */\n      gt\n        /* \"#utility.yul\":4611:4728   */\n      iszero\n      tag_277\n      jumpi\n        /* \"#utility.yul\":4647:4726   */\n      tag_278\n      tag_263\n      jump\t// in\n    tag_278:\n        /* \"#utility.yul\":4611:4728   */\n    tag_277:\n        /* \"#utility.yul\":4752:4815   */\n      tag_279\n        /* \"#utility.yul\":4807:4814   */\n      dup7\n        /* \"#utility.yul\":4798:4804   */\n      dup3\n        /* \"#utility.yul\":4787:4796   */\n      dup8\n        /* \"#utility.yul\":4783:4805   */\n      add\n        /* \"#utility.yul\":4752:4815   */\n      tag_229\n      jump\t// in\n    tag_279:\n        /* \"#utility.yul\":4742:4815   */\n      swap3\n      pop\n        /* \"#utility.yul\":4537:4825   */\n      pop\n        /* \"#utility.yul\":4892:4894   */\n      0x40\n        /* \"#utility.yul\":4881:4890   */\n      dup5\n        /* \"#utility.yul\":4877:4895   */\n      add\n        /* \"#utility.yul\":4864:4896   */\n      calldataload\n        /* \"#utility.yul\":4923:4941   */\n      0xffffffffffffffff\n        /* \"#utility.yul\":4915:4921   */\n      dup2\n        /* \"#utility.yul\":4912:4942   */\n      gt\n        /* \"#utility.yul\":4909:5026   */\n      iszero\n      tag_280\n      jumpi\n        /* \"#utility.yul\":4945:5024   */\n      tag_281\n      tag_263\n      jump\t// in\n    tag_281:\n        /* \"#utility.yul\":4909:5026   */\n    tag_280:\n        /* \"#utility.yul\":5050:5113   */\n      tag_282\n        /* \"#utility.yul\":5105:5112   */\n      dup7\n        /* \"#utility.yul\":5096:5102   */\n      dup3\n        /* \"#utility.yul\":5085:5094   */\n      dup8\n        /* \"#utility.yul\":5081:5103   */\n      add\n        /* \"#utility.yul\":5050:5113   */\n      tag_229\n      jump\t// in\n    tag_282:\n        /* \"#utility.yul\":5040:5113   */\n      swap2\n      pop\n        /* \"#utility.yul\":4835:5123   */\n      pop\n        /* \"#utility.yul\":3971:5130   */\n      swap3\n      pop\n      swap3\n      pop\n      swap3\n      jump\t// out\n        /* \"#utility.yul\":5136:6621   */\n    tag_25:\n        /* \"#utility.yul\":5262:5268   */\n      0x00\n        /* \"#utility.yul\":5270:5276   */\n      dup1\n        /* \"#utility.yul\":5278:5284   */\n      0x00\n        /* \"#utility.yul\":5286:5292   */\n      dup1\n        /* \"#utility.yul\":5335:5338   */\n      0x80\n        /* \"#utility.yul\":5323:5332   */\n      dup6\n        /* \"#utility.yul\":5314:5321   */\n      dup8\n        /* \"#utility.yul\":5310:5333   */\n      sub\n        /* \"#utility.yul\":5306:5339   */\n      slt\n        /* \"#utility.yul\":5303:5423   */\n      iszero\n      tag_284\n      jumpi\n        /* \"#utility.yul\":5342:5421   */\n      tag_285\n      tag_256\n      jump\t// in\n    tag_285:\n        /* \"#utility.yul\":5303:5423   */\n    tag_284:\n        /* \"#utility.yul\":5490:5491   */\n      0x00\n        /* \"#utility.yul\":5479:5488   */\n      dup6\n        /* \"#utility.yul\":5475:5492   */\n      add\n        /* \"#utility.yul\":5462:5493   */\n      calldataload\n        /* \"#utility.yul\":5520:5538   */\n      0xffffffffffffffff\n        /* \"#utility.yul\":5512:5518   */\n      dup2\n        /* \"#utility.yul\":5509:5539   */\n      gt\n        /* \"#utility.yul\":5506:5623   */\n      iszero\n      tag_286\n      jumpi\n        /* \"#utility.yul\":5542:5621   */\n      tag_287\n      tag_263\n      jump\t// in\n    tag_287:\n        /* \"#utility.yul\":5506:5623   */\n    tag_286:\n        /* \"#utility.yul\":5647:5710   */\n      tag_288\n        /* \"#utility.yul\":5702:5709   */\n      dup8\n        /* \"#utility.yul\":5693:5699   */\n      dup3\n        /* \"#utility.yul\":5682:5691   */\n      dup9\n        /* \"#utility.yul\":5678:5700   */\n      add\n        /* \"#utility.yul\":5647:5710   */\n      tag_229\n      jump\t// in\n    tag_288:\n        /* \"#utility.yul\":5637:5710   */\n      swap5\n      pop\n        /* \"#utility.yul\":5433:5720   */\n      pop\n        /* \"#utility.yul\":5787:5789   */\n      0x20\n        /* \"#utility.yul\":5776:5785   */\n      dup6\n        /* \"#utility.yul\":5772:5790   */\n      add\n        /* \"#utility.yul\":5759:5791   */\n      calldataload\n        /* \"#utility.yul\":5818:5836   */\n      0xffffffffffffffff\n        /* \"#utility.yul\":5810:5816   */\n      dup2\n        /* \"#utility.yul\":5807:5837   */\n      gt\n        /* \"#utility.yul\":5804:5921   */\n      iszero\n      tag_289\n      jumpi\n        /* \"#utility.yul\":5840:5919   */\n      tag_290\n      tag_263\n      jump\t// in\n    tag_290:\n        /* \"#utility.yul\":5804:5921   */\n    tag_289:\n        /* \"#utility.yul\":5945:6008   */\n      tag_291\n        /* \"#utility.yul\":6000:6007   */\n      dup8\n        /* \"#utility.yul\":5991:5997   */\n      dup3\n        /* \"#utility.yul\":5980:5989   */\n      dup9\n        /* \"#utility.yul\":5976:5998   */\n      add\n        /* \"#utility.yul\":5945:6008   */\n      tag_229\n      jump\t// in\n    tag_291:\n        /* \"#utility.yul\":5935:6008   */\n      swap4\n      pop\n        /* \"#utility.yul\":5730:6018   */\n      pop\n        /* \"#utility.yul\":6085:6087   */\n      0x40\n        /* \"#utility.yul\":6074:6083   */\n      dup6\n        /* \"#utility.yul\":6070:6088   */\n      add\n        /* \"#utility.yul\":6057:6089   */\n      calldataload\n        /* \"#utility.yul\":6116:6134   */\n      0xffffffffffffffff\n        /* \"#utility.yul\":6108:6114   */\n      dup2\n        /* \"#utility.yul\":6105:6135   */\n      gt\n        /* \"#utility.yul\":6102:6219   */\n      iszero\n      tag_292\n      jumpi\n        /* \"#utility.yul\":6138:6217   */\n      tag_293\n      tag_263\n      jump\t// in\n    tag_293:\n        /* \"#utility.yul\":6102:6219   */\n    tag_292:\n        /* \"#utility.yul\":6243:6306   */\n      tag_294\n        /* \"#utility.yul\":6298:6305   */\n      dup8\n        /* \"#utility.yul\":6289:6295   */\n      dup3\n        /* \"#utility.yul\":6278:6287   */\n      dup9\n        /* \"#utility.yul\":6274:6296   */\n      add\n        /* \"#utility.yul\":6243:6306   */\n      tag_229\n      jump\t// in\n    tag_294:\n        /* \"#utility.yul\":6233:6306   */\n      swap3\n      pop\n        /* \"#utility.yul\":6028:6316   */\n      pop\n        /* \"#utility.yul\":6383:6385   */\n      0x60\n        /* \"#utility.yul\":6372:6381   */\n      dup6\n        /* \"#utility.yul\":6368:6386   */\n      add\n        /* \"#utility.yul\":6355:6387   */\n      calldataload\n        /* \"#utility.yul\":6414:6432   */\n      0xffffffffffffffff\n        /* \"#utility.yul\":6406:6412   */\n      dup2\n        /* \"#utility.yul\":6403:6433   */\n      gt\n        /* \"#utility.yul\":6400:6517   */\n      iszero\n      tag_295\n      jumpi\n        /* \"#utility.yul\":6436:6515   */\n      tag_296\n      tag_263\n      jump\t// in\n    tag_296:\n        /* \"#utility.yul\":6400:6517   */\n    tag_295:\n        /* \"#utility.yul\":6541:6604   */\n      tag_297\n        /* \"#utility.yul\":6596:6603   */\n      dup8\n        /* \"#utility.yul\":6587:6593   */\n      dup3\n        /* \"#utility.yul\":6576:6585   */\n      dup9\n        /* \"#utility.yul\":6572:6594   */\n      add\n        /* \"#utility.yul\":6541:6604   */\n      tag_229\n      jump\t// in\n    tag_297:\n        /* \"#utility.yul\":6531:6604   */\n      swap2\n      pop\n        /* \"#utility.yul\":6326:6614   */\n      pop\n        /* \"#utility.yul\":5136:6621   */\n      swap3\n      swap6\n      swap2\n      swap5\n      pop\n      swap3\n      pop\n      jump\t// out\n        /* \"#utility.yul\":6627:8438   */\n    tag_21:\n        /* \"#utility.yul\":6772:6778   */\n      0x00\n        /* \"#utility.yul\":6780:6786   */\n      dup1\n        /* \"#utility.yul\":6788:6794   */\n      0x00\n        /* \"#utility.yul\":6796:6802   */\n      dup1\n        /* \"#utility.yul\":6804:6810   */\n      0x00\n        /* \"#utility.yul\":6853:6856   */\n      0xa0\n        /* \"#utility.yul\":6841:6850   */\n      dup7\n        /* \"#utility.yul\":6832:6839   */\n      dup9\n        /* \"#utility.yul\":6828:6851   */\n      sub\n        /* \"#utility.yul\":6824:6857   */\n      slt\n        /* \"#utility.yul\":6821:6941   */\n      iszero\n      tag_299\n      jumpi\n        /* \"#utility.yul\":6860:6939   */\n      tag_300\n      tag_256\n      jump\t// in\n    tag_300:\n        /* \"#utility.yul\":6821:6941   */\n    tag_299:\n        /* \"#utility.yul\":7008:7009   */\n      0x00\n        /* \"#utility.yul\":6997:7006   */\n      dup7\n        /* \"#utility.yul\":6993:7010   */\n      add\n        /* \"#utility.yul\":6980:7011   */\n      calldataload\n        /* \"#utility.yul\":7038:7056   */\n      0xffffffffffffffff\n        /* \"#utility.yul\":7030:7036   */\n      dup2\n        /* \"#utility.yul\":7027:7057   */\n      gt\n        /* \"#utility.yul\":7024:7141   */\n      iszero\n      tag_301\n      jumpi\n        /* \"#utility.yul\":7060:7139   */\n      tag_302\n      tag_263\n      jump\t// in\n    tag_302:\n        /* \"#utility.yul\":7024:7141   */\n    tag_301:\n        /* \"#utility.yul\":7165:7228   */\n      tag_303\n        /* \"#utility.yul\":7220:7227   */\n      dup9\n        /* \"#utility.yul\":7211:7217   */\n      dup3\n        /* \"#utility.yul\":7200:7209   */\n      dup10\n        /* \"#utility.yul\":7196:7218   */\n      add\n        /* \"#utility.yul\":7165:7228   */\n      tag_229\n      jump\t// in\n    tag_303:\n        /* \"#utility.yul\":7155:7228   */\n      swap6\n      pop\n        /* \"#utility.yul\":6951:7238   */\n      pop\n        /* \"#utility.yul\":7305:7307   */\n      0x20\n        /* \"#utility.yul\":7294:7303   */\n      dup7\n        /* \"#utility.yul\":7290:7308   */\n      add\n        /* \"#utility.yul\":7277:7309   */\n      calldataload\n        /* \"#utility.yul\":7336:7354   */\n      0xffffffffffffffff\n        /* \"#utility.yul\":7328:7334   */\n      dup2\n        /* \"#utility.yul\":7325:7355   */\n      gt\n        /* \"#utility.yul\":7322:7439   */\n      iszero\n      tag_304\n      jumpi\n        /* \"#utility.yul\":7358:7437   */\n      tag_305\n      tag_263\n      jump\t// in\n    tag_305:\n        /* \"#utility.yul\":7322:7439   */\n    tag_304:\n        /* \"#utility.yul\":7463:7526   */\n      tag_306\n        /* \"#utility.yul\":7518:7525   */\n      dup9\n        /* \"#utility.yul\":7509:7515   */\n      dup3\n        /* \"#utility.yul\":7498:7507   */\n      dup10\n        /* \"#utility.yul\":7494:7516   */\n      add\n        /* \"#utility.yul\":7463:7526   */\n      tag_229\n      jump\t// in\n    tag_306:\n        /* \"#utility.yul\":7453:7526   */\n      swap5\n      pop\n        /* \"#utility.yul\":7248:7536   */\n      pop\n        /* \"#utility.yul\":7603:7605   */\n      0x40\n        /* \"#utility.yul\":7592:7601   */\n      dup7\n        /* \"#utility.yul\":7588:7606   */\n      add\n        /* \"#utility.yul\":7575:7607   */\n      calldataload\n        /* \"#utility.yul\":7634:7652   */\n      0xffffffffffffffff\n        /* \"#utility.yul\":7626:7632   */\n      dup2\n        /* \"#utility.yul\":7623:7653   */\n      gt\n        /* \"#utility.yul\":7620:7737   */\n      iszero\n      tag_307\n      jumpi\n        /* \"#utility.yul\":7656:7735   */\n      tag_308\n      tag_263\n      jump\t// in\n    tag_308:\n        /* \"#utility.yul\":7620:7737   */\n    tag_307:\n        /* \"#utility.yul\":7761:7824   */\n      tag_309\n        /* \"#utility.yul\":7816:7823   */\n      dup9\n        /* \"#utility.yul\":7807:7813   */\n      dup3\n        /* \"#utility.yul\":7796:7805   */\n      dup10\n        /* \"#utility.yul\":7792:7814   */\n      add\n        /* \"#utility.yul\":7761:7824   */\n      tag_229\n      jump\t// in\n    tag_309:\n        /* \"#utility.yul\":7751:7824   */\n      swap4\n      pop\n        /* \"#utility.yul\":7546:7834   */\n      pop\n        /* \"#utility.yul\":7901:7903   */\n      0x60\n        /* \"#utility.yul\":7890:7899   */\n      dup7\n        /* \"#utility.yul\":7886:7904   */\n      add\n        /* \"#utility.yul\":7873:7905   */\n      calldataload\n        /* \"#utility.yul\":7932:7950   */\n      0xffffffffffffffff\n        /* \"#utility.yul\":7924:7930   */\n      dup2\n        /* \"#utility.yul\":7921:7951   */\n      gt\n        /* \"#utility.yul\":7918:8035   */\n      iszero\n      tag_310\n      jumpi\n        /* \"#utility.yul\":7954:8033   */\n      tag_311\n      tag_263\n      jump\t// in\n    tag_311:\n        /* \"#utility.yul\":7918:8035   */\n    tag_310:\n        /* \"#utility.yul\":8059:8122   */\n      tag_312\n        /* \"#utility.yul\":8114:8121   */\n      dup9\n        /* \"#utility.yul\":8105:8111   */\n      dup3\n        /* \"#utility.yul\":8094:8103   */\n      dup10\n        /* \"#utility.yul\":8090:8112   */\n      add\n        /* \"#utility.yul\":8059:8122   */\n      tag_229\n      jump\t// in\n    tag_312:\n        /* \"#utility.yul\":8049:8122   */\n      swap3\n      pop\n        /* \"#utility.yul\":7844:8132   */\n      pop\n        /* \"#utility.yul\":8199:8202   */\n      0x80\n        /* \"#utility.yul\":8188:8197   */\n      dup7\n        /* \"#utility.yul\":8184:8203   */\n      add\n        /* \"#utility.yul\":8171:8204   */\n      calldataload\n        /* \"#utility.yul\":8231:8249   */\n      0xffffffffffffffff\n        /* \"#utility.yul\":8223:8229   */\n      dup2\n        /* \"#utility.yul\":8220:8250   */\n      gt\n        /* \"#utility.yul\":8217:8334   */\n      iszero\n      tag_313\n      jumpi\n        /* \"#utility.yul\":8253:8332   */\n      tag_314\n      tag_263\n      jump\t// in\n    tag_314:\n        /* \"#utility.yul\":8217:8334   */\n    tag_313:\n        /* \"#utility.yul\":8358:8421   */\n      tag_315\n        /* \"#utility.yul\":8413:8420   */\n      dup9\n        /* \"#utility.yul\":8404:8410   */\n      dup3\n        /* \"#utility.yul\":8393:8402   */\n      dup10\n        /* \"#utility.yul\":8389:8411   */\n      add\n        /* \"#utility.yul\":8358:8421   */\n      tag_229\n      jump\t// in\n    tag_315:\n        /* \"#utility.yul\":8348:8421   */\n      swap2\n      pop\n        /* \"#utility.yul\":8142:8431   */\n      pop\n        /* \"#utility.yul\":6627:8438   */\n      swap3\n      swap6\n      pop\n      swap3\n      swap6\n      swap1\n      swap4\n      pop\n      jump\t// out\n        /* \"#utility.yul\":8444:8640   */\n    tag_316:\n        /* \"#utility.yul\":8533:8543   */\n      0x00\n        /* \"#utility.yul\":8568:8634   */\n      tag_318\n        /* \"#utility.yul\":8630:8633   */\n      dup4\n        /* \"#utility.yul\":8622:8628   */\n      dup4\n        /* \"#utility.yul\":8568:8634   */\n      tag_319\n      jump\t// in\n    tag_318:\n        /* \"#utility.yul\":8554:8634   */\n      swap1\n      pop\n        /* \"#utility.yul\":8444:8640   */\n      swap3\n      swap2\n      pop\n      pop\n      jump\t// out\n        /* \"#utility.yul\":8646:8764   */\n    tag_320:\n        /* \"#utility.yul\":8733:8757   */\n      tag_322\n        /* \"#utility.yul\":8751:8756   */\n      dup2\n        /* \"#utility.yul\":8733:8757   */\n      tag_323\n      jump\t// in\n    tag_322:\n        /* \"#utility.yul\":8728:8731   */\n      dup3\n        /* \"#utility.yul\":8721:8758   */\n      mstore\n        /* \"#utility.yul\":8646:8764   */\n      pop\n      pop\n      jump\t// out\n        /* \"#utility.yul\":8798:9769   */\n    tag_324:\n        /* \"#utility.yul\":8927:8930   */\n      0x00\n        /* \"#utility.yul\":8956:9020   */\n      tag_326\n        /* \"#utility.yul\":9014:9019   */\n      dup3\n        /* \"#utility.yul\":8956:9020   */\n      tag_327\n      jump\t// in\n    tag_326:\n        /* \"#utility.yul\":9036:9122   */\n      tag_328\n        /* \"#utility.yul\":9115:9121   */\n      dup2\n        /* \"#utility.yul\":9110:9113   */\n      dup6\n        /* \"#utility.yul\":9036:9122   */\n      tag_329\n      jump\t// in\n    tag_328:\n        /* \"#utility.yul\":9029:9122   */\n      swap4\n      pop\n        /* \"#utility.yul\":9148:9151   */\n      dup4\n        /* \"#utility.yul\":9193:9197   */\n      0x20\n        /* \"#utility.yul\":9185:9191   */\n      dup3\n        /* \"#utility.yul\":9181:9198   */\n      mul\n        /* \"#utility.yul\":9176:9179   */\n      dup6\n        /* \"#utility.yul\":9172:9199   */\n      add\n        /* \"#utility.yul\":9223:9289   */\n      tag_330\n        /* \"#utility.yul\":9283:9288   */\n      dup6\n        /* \"#utility.yul\":9223:9289   */\n      tag_331\n      jump\t// in\n    tag_330:\n        /* \"#utility.yul\":9312:9319   */\n      dup1\n        /* \"#utility.yul\":9343:9344   */\n      0x00\n        /* \"#utility.yul\":9328:9724   */\n    tag_332:\n        /* \"#utility.yul\":9353:9359   */\n      dup6\n        /* \"#utility.yul\":9350:9351   */\n      dup2\n        /* \"#utility.yul\":9347:9360   */\n      lt\n        /* \"#utility.yul\":9328:9724   */\n      iszero\n      tag_334\n      jumpi\n        /* \"#utility.yul\":9424:9433   */\n      dup5\n        /* \"#utility.yul\":9418:9422   */\n      dup5\n        /* \"#utility.yul\":9414:9434   */\n      sub\n        /* \"#utility.yul\":9409:9412   */\n      dup10\n        /* \"#utility.yul\":9402:9435   */\n      mstore\n        /* \"#utility.yul\":9475:9481   */\n      dup2\n        /* \"#utility.yul\":9469:9482   */\n      mload\n        /* \"#utility.yul\":9503:9587   */\n      tag_335\n        /* \"#utility.yul\":9582:9586   */\n      dup6\n        /* \"#utility.yul\":9567:9580   */\n      dup3\n        /* \"#utility.yul\":9503:9587   */\n      tag_316\n      jump\t// in\n    tag_335:\n        /* \"#utility.yul\":9495:9587   */\n      swap5\n      pop\n        /* \"#utility.yul\":9610:9680   */\n      tag_336\n        /* \"#utility.yul\":9673:9679   */\n      dup4\n        /* \"#utility.yul\":9610:9680   */\n      tag_337\n      jump\t// in\n    tag_336:\n        /* \"#utility.yul\":9600:9680   */\n      swap3\n      pop\n        /* \"#utility.yul\":9709:9713   */\n      0x20\n        /* \"#utility.yul\":9704:9707   */\n      dup11\n        /* \"#utility.yul\":9700:9714   */\n      add\n        /* \"#utility.yul\":9693:9714   */\n      swap10\n      pop\n        /* \"#utility.yul\":9388:9724   */\n      pop\n        /* \"#utility.yul\":9375:9376   */\n      0x01\n        /* \"#utility.yul\":9372:9373   */\n      dup2\n        /* \"#utility.yul\":9368:9377   */\n      add\n        /* \"#utility.yul\":9363:9377   */\n      swap1\n      pop\n        /* \"#utility.yul\":9328:9724   */\n      jump(tag_332)\n    tag_334:\n        /* \"#utility.yul\":9332:9346   */\n      pop\n        /* \"#utility.yul\":9740:9744   */\n      dup3\n        /* \"#utility.yul\":9733:9744   */\n      swap8\n      pop\n        /* \"#utility.yul\":9760:9763   */\n      dup8\n        /* \"#utility.yul\":9753:9763   */\n      swap6\n      pop\n        /* \"#utility.yul\":8932:9769   */\n      pop\n      pop\n      pop\n      pop\n      pop\n        /* \"#utility.yul\":8798:9769   */\n      swap3\n      swap2\n      pop\n      pop\n      jump\t// out\n        /* \"#utility.yul\":9775:10119   */\n    tag_319:\n        /* \"#utility.yul\":9853:9856   */\n      0x00\n        /* \"#utility.yul\":9881:9920   */\n      tag_339\n        /* \"#utility.yul\":9914:9919   */\n      dup3\n        /* \"#utility.yul\":9881:9920   */\n      tag_340\n      jump\t// in\n    tag_339:\n        /* \"#utility.yul\":9936:9997   */\n      tag_341\n        /* \"#utility.yul\":9990:9996   */\n      dup2\n        /* \"#utility.yul\":9985:9988   */\n      dup6\n        /* \"#utility.yul\":9936:9997   */\n      tag_342\n      jump\t// in\n    tag_341:\n        /* \"#utility.yul\":9929:9997   */\n      swap4\n      pop\n        /* \"#utility.yul\":10006:10058   */\n      tag_343\n        /* \"#utility.yul\":10051:10057   */\n      dup2\n        /* \"#utility.yul\":10046:10049   */\n      dup6\n        /* \"#utility.yul\":10039:10043   */\n      0x20\n        /* \"#utility.yul\":10032:10037   */\n      dup7\n        /* \"#utility.yul\":10028:10044   */\n      add\n        /* \"#utility.yul\":10006:10058   */\n      tag_344\n      jump\t// in\n    tag_343:\n        /* \"#utility.yul\":10083:10112   */\n      tag_345\n        /* \"#utility.yul\":10105:10111   */\n      dup2\n        /* \"#utility.yul\":10083:10112   */\n      tag_346\n      jump\t// in\n    tag_345:\n        /* \"#utility.yul\":10078:10081   */\n      dup5\n        /* \"#utility.yul\":10074:10113   */\n      add\n        /* \"#utility.yul\":10067:10113   */\n      swap2\n      pop\n        /* \"#utility.yul\":9857:10119   */\n      pop\n        /* \"#utility.yul\":9775:10119   */\n      swap3\n      swap2\n      pop\n      pop\n      jump\t// out\n        /* \"#utility.yul\":10125:10489   */\n    tag_347:\n        /* \"#utility.yul\":10213:10216   */\n      0x00\n        /* \"#utility.yul\":10241:10280   */\n      tag_349\n        /* \"#utility.yul\":10274:10279   */\n      dup3\n        /* \"#utility.yul\":10241:10280   */\n      tag_340\n      jump\t// in\n    tag_349:\n        /* \"#utility.yul\":10296:10367   */\n      tag_350\n        /* \"#utility.yul\":10360:10366   */\n      dup2\n        /* \"#utility.yul\":10355:10358   */\n      dup6\n        /* \"#utility.yul\":10296:10367   */\n      tag_351\n      jump\t// in\n    tag_350:\n        /* \"#utility.yul\":10289:10367   */\n      swap4\n      pop\n        /* \"#utility.yul\":10376:10428   */\n      tag_352\n        /* \"#utility.yul\":10421:10427   */\n      dup2\n        /* \"#utility.yul\":10416:10419   */\n      dup6\n        /* \"#utility.yul\":10409:10413   */\n      0x20\n        /* \"#utility.yul\":10402:10407   */\n      dup7\n        /* \"#utility.yul\":10398:10414   */\n      add\n        /* \"#utility.yul\":10376:10428   */\n      tag_344\n      jump\t// in\n    tag_352:\n        /* \"#utility.yul\":10453:10482   */\n      tag_353\n        /* \"#utility.yul\":10475:10481   */\n      dup2\n        /* \"#utility.yul\":10453:10482   */\n      tag_346\n      jump\t// in\n    tag_353:\n        /* \"#utility.yul\":10448:10451   */\n      dup5\n        /* \"#utility.yul\":10444:10483   */\n      add\n        /* \"#utility.yul\":10437:10483   */\n      swap2\n      pop\n        /* \"#utility.yul\":10217:10489   */\n      pop\n        /* \"#utility.yul\":10125:10489   */\n      swap3\n      swap2\n      pop\n      pop\n      jump\t// out\n        /* \"#utility.yul\":10553:11971   */\n    tag_354:\n        /* \"#utility.yul\":10670:10673   */\n      0x00\n        /* \"#utility.yul\":10706:10710   */\n      0xa0\n        /* \"#utility.yul\":10701:10704   */\n      dup4\n        /* \"#utility.yul\":10697:10711   */\n      add\n        /* \"#utility.yul\":10794:10798   */\n      0x00\n        /* \"#utility.yul\":10787:10792   */\n      dup4\n        /* \"#utility.yul\":10783:10799   */\n      add\n        /* \"#utility.yul\":10777:10800   */\n      mload\n        /* \"#utility.yul\":10847:10850   */\n      dup5\n        /* \"#utility.yul\":10841:10845   */\n      dup3\n        /* \"#utility.yul\":10837:10851   */\n      sub\n        /* \"#utility.yul\":10830:10834   */\n      0x00\n        /* \"#utility.yul\":10825:10828   */\n      dup7\n        /* \"#utility.yul\":10821:10835   */\n      add\n        /* \"#utility.yul\":10814:10852   */\n      mstore\n        /* \"#utility.yul\":10873:10946   */\n      tag_356\n        /* \"#utility.yul\":10941:10945   */\n      dup3\n        /* \"#utility.yul\":10927:10939   */\n      dup3\n        /* \"#utility.yul\":10873:10946   */\n      tag_319\n      jump\t// in\n    tag_356:\n        /* \"#utility.yul\":10865:10946   */\n      swap2\n      pop\n        /* \"#utility.yul\":10721:10957   */\n      pop\n        /* \"#utility.yul\":11040:11044   */\n      0x20\n        /* \"#utility.yul\":11033:11038   */\n      dup4\n        /* \"#utility.yul\":11029:11045   */\n      add\n        /* \"#utility.yul\":11023:11046   */\n      mload\n        /* \"#utility.yul\":11093:11096   */\n      dup5\n        /* \"#utility.yul\":11087:11091   */\n      dup3\n        /* \"#utility.yul\":11083:11097   */\n      sub\n        /* \"#utility.yul\":11076:11080   */\n      0x20\n        /* \"#utility.yul\":11071:11074   */\n      dup7\n        /* \"#utility.yul\":11067:11081   */\n      add\n        /* \"#utility.yul\":11060:11098   */\n      mstore\n        /* \"#utility.yul\":11119:11192   */\n      tag_357\n        /* \"#utility.yul\":11187:11191   */\n      dup3\n        /* \"#utility.yul\":11173:11185   */\n      dup3\n        /* \"#utility.yul\":11119:11192   */\n      tag_319\n      jump\t// in\n    tag_357:\n        /* \"#utility.yul\":11111:11192   */\n      swap2\n      pop\n        /* \"#utility.yul\":10967:11203   */\n      pop\n        /* \"#utility.yul\":11287:11291   */\n      0x40\n        /* \"#utility.yul\":11280:11285   */\n      dup4\n        /* \"#utility.yul\":11276:11292   */\n      add\n        /* \"#utility.yul\":11270:11293   */\n      mload\n        /* \"#utility.yul\":11340:11343   */\n      dup5\n        /* \"#utility.yul\":11334:11338   */\n      dup3\n        /* \"#utility.yul\":11330:11344   */\n      sub\n        /* \"#utility.yul\":11323:11327   */\n      0x40\n        /* \"#utility.yul\":11318:11321   */\n      dup7\n        /* \"#utility.yul\":11314:11328   */\n      add\n        /* \"#utility.yul\":11307:11345   */\n      mstore\n        /* \"#utility.yul\":11366:11439   */\n      tag_358\n        /* \"#utility.yul\":11434:11438   */\n      dup3\n        /* \"#utility.yul\":11420:11432   */\n      dup3\n        /* \"#utility.yul\":11366:11439   */\n      tag_319\n      jump\t// in\n    tag_358:\n        /* \"#utility.yul\":11358:11439   */\n      swap2\n      pop\n        /* \"#utility.yul\":11213:11450   */\n      pop\n        /* \"#utility.yul\":11534:11538   */\n      0x60\n        /* \"#utility.yul\":11527:11532   */\n      dup4\n        /* \"#utility.yul\":11523:11539   */\n      add\n        /* \"#utility.yul\":11517:11540   */\n      mload\n        /* \"#utility.yul\":11587:11590   */\n      dup5\n        /* \"#utility.yul\":11581:11585   */\n      dup3\n        /* \"#utility.yul\":11577:11591   */\n      sub\n        /* \"#utility.yul\":11570:11574   */\n      0x60\n        /* \"#utility.yul\":11565:11568   */\n      dup7\n        /* \"#utility.yul\":11561:11575   */\n      add\n        /* \"#utility.yul\":11554:11592   */\n      mstore\n        /* \"#utility.yul\":11613:11686   */\n      tag_359\n        /* \"#utility.yul\":11681:11685   */\n      dup3\n        /* \"#utility.yul\":11667:11679   */\n      dup3\n        /* \"#utility.yul\":11613:11686   */\n      tag_319\n      jump\t// in\n    tag_359:\n        /* \"#utility.yul\":11605:11686   */\n      swap2\n      pop\n        /* \"#utility.yul\":11460:11697   */\n      pop\n        /* \"#utility.yul\":11781:11785   */\n      0x80\n        /* \"#utility.yul\":11774:11779   */\n      dup4\n        /* \"#utility.yul\":11770:11786   */\n      add\n        /* \"#utility.yul\":11764:11787   */\n      mload\n        /* \"#utility.yul\":11834:11837   */\n      dup5\n        /* \"#utility.yul\":11828:11832   */\n      dup3\n        /* \"#utility.yul\":11824:11838   */\n      sub\n        /* \"#utility.yul\":11817:11821   */\n      0x80\n        /* \"#utility.yul\":11812:11815   */\n      dup7\n        /* \"#utility.yul\":11808:11822   */\n      add\n        /* \"#utility.yul\":11801:11839   */\n      mstore\n        /* \"#utility.yul\":11860:11933   */\n      tag_360\n        /* \"#utility.yul\":11928:11932   */\n      dup3\n        /* \"#utility.yul\":11914:11926   */\n      dup3\n        /* \"#utility.yul\":11860:11933   */\n      tag_319\n      jump\t// in\n    tag_360:\n        /* \"#utility.yul\":11852:11933   */\n      swap2\n      pop\n        /* \"#utility.yul\":11707:11944   */\n      pop\n        /* \"#utility.yul\":11961:11965   */\n      dup1\n        /* \"#utility.yul\":11954:11965   */\n      swap2\n      pop\n        /* \"#utility.yul\":10675:11971   */\n      pop\n        /* \"#utility.yul\":10553:11971   */\n      swap3\n      swap2\n      pop\n      pop\n      jump\t// out\n        /* \"#utility.yul\":12037:12973   */\n    tag_361:\n        /* \"#utility.yul\":12156:12159   */\n      0x00\n        /* \"#utility.yul\":12192:12196   */\n      0x60\n        /* \"#utility.yul\":12187:12190   */\n      dup4\n        /* \"#utility.yul\":12183:12197   */\n      add\n        /* \"#utility.yul\":12284:12288   */\n      0x00\n        /* \"#utility.yul\":12277:12282   */\n      dup4\n        /* \"#utility.yul\":12273:12289   */\n      add\n        /* \"#utility.yul\":12267:12290   */\n      mload\n        /* \"#utility.yul\":12337:12340   */\n      dup5\n        /* \"#utility.yul\":12331:12335   */\n      dup3\n        /* \"#utility.yul\":12327:12341   */\n      sub\n        /* \"#utility.yul\":12320:12324   */\n      0x00\n        /* \"#utility.yul\":12315:12318   */\n      dup7\n        /* \"#utility.yul\":12311:12325   */\n      add\n        /* \"#utility.yul\":12304:12342   */\n      mstore\n        /* \"#utility.yul\":12363:12436   */\n      tag_363\n        /* \"#utility.yul\":12431:12435   */\n      dup3\n        /* \"#utility.yul\":12417:12429   */\n      dup3\n        /* \"#utility.yul\":12363:12436   */\n      tag_319\n      jump\t// in\n    tag_363:\n        /* \"#utility.yul\":12355:12436   */\n      swap2\n      pop\n        /* \"#utility.yul\":12207:12447   */\n      pop\n        /* \"#utility.yul\":12532:12536   */\n      0x20\n        /* \"#utility.yul\":12525:12530   */\n      dup4\n        /* \"#utility.yul\":12521:12537   */\n      add\n        /* \"#utility.yul\":12515:12538   */\n      mload\n        /* \"#utility.yul\":12585:12588   */\n      dup5\n        /* \"#utility.yul\":12579:12583   */\n      dup3\n        /* \"#utility.yul\":12575:12589   */\n      sub\n        /* \"#utility.yul\":12568:12572   */\n      0x20\n        /* \"#utility.yul\":12563:12566   */\n      dup7\n        /* \"#utility.yul\":12559:12573   */\n      add\n        /* \"#utility.yul\":12552:12590   */\n      mstore\n        /* \"#utility.yul\":12611:12684   */\n      tag_364\n        /* \"#utility.yul\":12679:12683   */\n      dup3\n        /* \"#utility.yul\":12665:12677   */\n      dup3\n        /* \"#utility.yul\":12611:12684   */\n      tag_319\n      jump\t// in\n    tag_364:\n        /* \"#utility.yul\":12603:12684   */\n      swap2\n      pop\n        /* \"#utility.yul\":12457:12695   */\n      pop\n        /* \"#utility.yul\":12783:12787   */\n      0x40\n        /* \"#utility.yul\":12776:12781   */\n      dup4\n        /* \"#utility.yul\":12772:12788   */\n      add\n        /* \"#utility.yul\":12766:12789   */\n      mload\n        /* \"#utility.yul\":12836:12839   */\n      dup5\n        /* \"#utility.yul\":12830:12834   */\n      dup3\n        /* \"#utility.yul\":12826:12840   */\n      sub\n        /* \"#utility.yul\":12819:12823   */\n      0x40\n        /* \"#utility.yul\":12814:12817   */\n      dup7\n        /* \"#utility.yul\":12810:12824   */\n      add\n        /* \"#utility.yul\":12803:12841   */\n      mstore\n        /* \"#utility.yul\":12862:12935   */\n      tag_365\n        /* \"#utility.yul\":12930:12934   */\n      dup3\n        /* \"#utility.yul\":12916:12928   */\n      dup3\n        /* \"#utility.yul\":12862:12935   */\n      tag_319\n      jump\t// in\n    tag_365:\n        /* \"#utility.yul\":12854:12935   */\n      swap2\n      pop\n        /* \"#utility.yul\":12705:12946   */\n      pop\n        /* \"#utility.yul\":12963:12967   */\n      dup1\n        /* \"#utility.yul\":12956:12967   */\n      swap2\n      pop\n        /* \"#utility.yul\":12161:12973   */\n      pop\n        /* \"#utility.yul\":12037:12973   */\n      swap3\n      swap2\n      pop\n      pop\n      jump\t// out\n        /* \"#utility.yul\":13031:14107   */\n    tag_366:\n        /* \"#utility.yul\":13142:13145   */\n      0x00\n        /* \"#utility.yul\":13178:13182   */\n      0x60\n        /* \"#utility.yul\":13173:13176   */\n      dup4\n        /* \"#utility.yul\":13169:13183   */\n      add\n        /* \"#utility.yul\":13269:13273   */\n      0x00\n        /* \"#utility.yul\":13262:13267   */\n      dup4\n        /* \"#utility.yul\":13258:13274   */\n      add\n        /* \"#utility.yul\":13252:13275   */\n      mload\n        /* \"#utility.yul\":13322:13325   */\n      dup5\n        /* \"#utility.yul\":13316:13320   */\n      dup3\n        /* \"#utility.yul\":13312:13326   */\n      sub\n        /* \"#utility.yul\":13305:13309   */\n      0x00\n        /* \"#utility.yul\":13300:13303   */\n      dup7\n        /* \"#utility.yul\":13296:13310   */\n      add\n        /* \"#utility.yul\":13289:13327   */\n      mstore\n        /* \"#utility.yul\":13348:13471   */\n      tag_368\n        /* \"#utility.yul\":13466:13470   */\n      dup3\n        /* \"#utility.yul\":13452:13464   */\n      dup3\n        /* \"#utility.yul\":13348:13471   */\n      tag_324\n      jump\t// in\n    tag_368:\n        /* \"#utility.yul\":13340:13471   */\n      swap2\n      pop\n        /* \"#utility.yul\":13193:13482   */\n      pop\n        /* \"#utility.yul\":13567:13571   */\n      0x20\n        /* \"#utility.yul\":13560:13565   */\n      dup4\n        /* \"#utility.yul\":13556:13572   */\n      add\n        /* \"#utility.yul\":13550:13573   */\n      mload\n        /* \"#utility.yul\":13620:13623   */\n      dup5\n        /* \"#utility.yul\":13614:13618   */\n      dup3\n        /* \"#utility.yul\":13610:13624   */\n      sub\n        /* \"#utility.yul\":13603:13607   */\n      0x20\n        /* \"#utility.yul\":13598:13601   */\n      dup7\n        /* \"#utility.yul\":13594:13608   */\n      add\n        /* \"#utility.yul\":13587:13625   */\n      mstore\n        /* \"#utility.yul\":13646:13769   */\n      tag_369\n        /* \"#utility.yul\":13764:13768   */\n      dup3\n        /* \"#utility.yul\":13750:13762   */\n      dup3\n        /* \"#utility.yul\":13646:13769   */\n      tag_324\n      jump\t// in\n    tag_369:\n        /* \"#utility.yul\":13638:13769   */\n      swap2\n      pop\n        /* \"#utility.yul\":13492:13780   */\n      pop\n        /* \"#utility.yul\":13867:13871   */\n      0x40\n        /* \"#utility.yul\":13860:13865   */\n      dup4\n        /* \"#utility.yul\":13856:13872   */\n      add\n        /* \"#utility.yul\":13850:13873   */\n      mload\n        /* \"#utility.yul\":13920:13923   */\n      dup5\n        /* \"#utility.yul\":13914:13918   */\n      dup3\n        /* \"#utility.yul\":13910:13924   */\n      sub\n        /* \"#utility.yul\":13903:13907   */\n      0x40\n        /* \"#utility.yul\":13898:13901   */\n      dup7\n        /* \"#utility.yul\":13894:13908   */\n      add\n        /* \"#utility.yul\":13887:13925   */\n      mstore\n        /* \"#utility.yul\":13946:14069   */\n      tag_370\n        /* \"#utility.yul\":14064:14068   */\n      dup3\n        /* \"#utility.yul\":14050:14062   */\n      dup3\n        /* \"#utility.yul\":13946:14069   */\n      tag_324\n      jump\t// in\n    tag_370:\n        /* \"#utility.yul\":13938:14069   */\n      swap2\n      pop\n        /* \"#utility.yul\":13790:14080   */\n      pop\n        /* \"#utility.yul\":14097:14101   */\n      dup1\n        /* \"#utility.yul\":14090:14101   */\n      swap2\n      pop\n        /* \"#utility.yul\":13147:14107   */\n      pop\n        /* \"#utility.yul\":13031:14107   */\n      swap3\n      swap2\n      pop\n      pop\n      jump\t// out\n        /* \"#utility.yul\":14113:14231   */\n    tag_371:\n        /* \"#utility.yul\":14200:14224   */\n      tag_373\n        /* \"#utility.yul\":14218:14223   */\n      dup2\n        /* \"#utility.yul\":14200:14224   */\n      tag_374\n      jump\t// in\n    tag_373:\n        /* \"#utility.yul\":14195:14198   */\n      dup3\n        /* \"#utility.yul\":14188:14225   */\n      mstore\n        /* \"#utility.yul\":14113:14231   */\n      pop\n      pop\n      jump\t// out\n        /* \"#utility.yul\":14237:15880   */\n    tag_32:\n        /* \"#utility.yul\":14696:14700   */\n      0x00\n        /* \"#utility.yul\":14734:14737   */\n      0x0100\n        /* \"#utility.yul\":14723:14732   */\n      dup3\n        /* \"#utility.yul\":14719:14738   */\n      add\n        /* \"#utility.yul\":14711:14738   */\n      swap1\n      pop\n        /* \"#utility.yul\":14748:14819   */\n      tag_376\n        /* \"#utility.yul\":14816:14817   */\n      0x00\n        /* \"#utility.yul\":14805:14814   */\n      dup4\n        /* \"#utility.yul\":14801:14818   */\n      add\n        /* \"#utility.yul\":14792:14798   */\n      dup12\n        /* \"#utility.yul\":14748:14819   */\n      tag_320\n      jump\t// in\n    tag_376:\n        /* \"#utility.yul\":14866:14875   */\n      dup2\n        /* \"#utility.yul\":14860:14864   */\n      dup2\n        /* \"#utility.yul\":14856:14876   */\n      sub\n        /* \"#utility.yul\":14851:14853   */\n      0x20\n        /* \"#utility.yul\":14840:14849   */\n      dup4\n        /* \"#utility.yul\":14836:14854   */\n      add\n        /* \"#utility.yul\":14829:14877   */\n      mstore\n        /* \"#utility.yul\":14894:14972   */\n      tag_377\n        /* \"#utility.yul\":14967:14971   */\n      dup2\n        /* \"#utility.yul\":14958:14964   */\n      dup11\n        /* \"#utility.yul\":14894:14972   */\n      tag_347\n      jump\t// in\n    tag_377:\n        /* \"#utility.yul\":14886:14972   */\n      swap1\n      pop\n        /* \"#utility.yul\":15019:15028   */\n      dup2\n        /* \"#utility.yul\":15013:15017   */\n      dup2\n        /* \"#utility.yul\":15009:15029   */\n      sub\n        /* \"#utility.yul\":15004:15006   */\n      0x40\n        /* \"#utility.yul\":14993:15002   */\n      dup4\n        /* \"#utility.yul\":14989:15007   */\n      add\n        /* \"#utility.yul\":14982:15030   */\n      mstore\n        /* \"#utility.yul\":15047:15125   */\n      tag_378\n        /* \"#utility.yul\":15120:15124   */\n      dup2\n        /* \"#utility.yul\":15111:15117   */\n      dup10\n        /* \"#utility.yul\":15047:15125   */\n      tag_347\n      jump\t// in\n    tag_378:\n        /* \"#utility.yul\":15039:15125   */\n      swap1\n      pop\n        /* \"#utility.yul\":15172:15181   */\n      dup2\n        /* \"#utility.yul\":15166:15170   */\n      dup2\n        /* \"#utility.yul\":15162:15182   */\n      sub\n        /* \"#utility.yul\":15157:15159   */\n      0x60\n        /* \"#utility.yul\":15146:15155   */\n      dup4\n        /* \"#utility.yul\":15142:15160   */\n      add\n        /* \"#utility.yul\":15135:15183   */\n      mstore\n        /* \"#utility.yul\":15200:15278   */\n      tag_379\n        /* \"#utility.yul\":15273:15277   */\n      dup2\n        /* \"#utility.yul\":15264:15270   */\n      dup9\n        /* \"#utility.yul\":15200:15278   */\n      tag_347\n      jump\t// in\n    tag_379:\n        /* \"#utility.yul\":15192:15278   */\n      swap1\n      pop\n        /* \"#utility.yul\":15326:15335   */\n      dup2\n        /* \"#utility.yul\":15320:15324   */\n      dup2\n        /* \"#utility.yul\":15316:15336   */\n      sub\n        /* \"#utility.yul\":15310:15313   */\n      0x80\n        /* \"#utility.yul\":15299:15308   */\n      dup4\n        /* \"#utility.yul\":15295:15314   */\n      add\n        /* \"#utility.yul\":15288:15337   */\n      mstore\n        /* \"#utility.yul\":15354:15432   */\n      tag_380\n        /* \"#utility.yul\":15427:15431   */\n      dup2\n        /* \"#utility.yul\":15418:15424   */\n      dup8\n        /* \"#utility.yul\":15354:15432   */\n      tag_347\n      jump\t// in\n    tag_380:\n        /* \"#utility.yul\":15346:15432   */\n      swap1\n      pop\n        /* \"#utility.yul\":15442:15515   */\n      tag_381\n        /* \"#utility.yul\":15510:15513   */\n      0xa0\n        /* \"#utility.yul\":15499:15508   */\n      dup4\n        /* \"#utility.yul\":15495:15514   */\n      add\n        /* \"#utility.yul\":15486:15492   */\n      dup7\n        /* \"#utility.yul\":15442:15515   */\n      tag_371\n      jump\t// in\n    tag_381:\n        /* \"#utility.yul\":15563:15572   */\n      dup2\n        /* \"#utility.yul\":15557:15561   */\n      dup2\n        /* \"#utility.yul\":15553:15573   */\n      sub\n        /* \"#utility.yul\":15547:15550   */\n      0xc0\n        /* \"#utility.yul\":15536:15545   */\n      dup4\n        /* \"#utility.yul\":15532:15551   */\n      add\n        /* \"#utility.yul\":15525:15574   */\n      mstore\n        /* \"#utility.yul\":15591:15697   */\n      tag_382\n        /* \"#utility.yul\":15692:15696   */\n      dup2\n        /* \"#utility.yul\":15683:15689   */\n      dup6\n        /* \"#utility.yul\":15591:15697   */\n      tag_354\n      jump\t// in\n    tag_382:\n        /* \"#utility.yul\":15583:15697   */\n      swap1\n      pop\n        /* \"#utility.yul\":15745:15754   */\n      dup2\n        /* \"#utility.yul\":15739:15743   */\n      dup2\n        /* \"#utility.yul\":15735:15755   */\n      sub\n        /* \"#utility.yul\":15729:15732   */\n      0xe0\n        /* \"#utility.yul\":15718:15727   */\n      dup4\n        /* \"#utility.yul\":15714:15733   */\n      add\n        /* \"#utility.yul\":15707:15756   */\n      mstore\n        /* \"#utility.yul\":15773:15873   */\n      tag_383\n        /* \"#utility.yul\":15868:15872   */\n      dup2\n        /* \"#utility.yul\":15859:15865   */\n      dup5\n        /* \"#utility.yul\":15773:15873   */\n      tag_366\n      jump\t// in\n    tag_383:\n        /* \"#utility.yul\":15765:15873   */\n      swap1\n      pop\n        /* \"#utility.yul\":14237:15880   */\n      swap10\n      swap9\n      pop\n      pop\n      pop\n      pop\n      pop\n      pop\n      pop\n      pop\n      pop\n      jump\t// out\n        /* \"#utility.yul\":15886:16259   */\n    tag_14:\n        /* \"#utility.yul\":16029:16033   */\n      0x00\n        /* \"#utility.yul\":16067:16069   */\n      0x20\n        /* \"#utility.yul\":16056:16065   */\n      dup3\n        /* \"#utility.yul\":16052:16070   */\n      add\n        /* \"#utility.yul\":16044:16070   */\n      swap1\n      pop\n        /* \"#utility.yul\":16116:16125   */\n      dup2\n        /* \"#utility.yul\":16110:16114   */\n      dup2\n        /* \"#utility.yul\":16106:16126   */\n      sub\n        /* \"#utility.yul\":16102:16103   */\n      0x00\n        /* \"#utility.yul\":16091:16100   */\n      dup4\n        /* \"#utility.yul\":16087:16104   */\n      add\n        /* \"#utility.yul\":16080:16127   */\n      mstore\n        /* \"#utility.yul\":16144:16252   */\n      tag_385\n        /* \"#utility.yul\":16247:16251   */\n      dup2\n        /* \"#utility.yul\":16238:16244   */\n      dup5\n        /* \"#utility.yul\":16144:16252   */\n      tag_361\n      jump\t// in\n    tag_385:\n        /* \"#utility.yul\":16136:16252   */\n      swap1\n      pop\n        /* \"#utility.yul\":15886:16259   */\n      swap3\n      swap2\n      pop\n      pop\n      jump\t// out\n        /* \"#utility.yul\":16265:16394   */\n    tag_218:\n        /* \"#utility.yul\":16299:16305   */\n      0x00\n        /* \"#utility.yul\":16326:16346   */\n      tag_387\n      tag_388\n      jump\t// in\n    tag_387:\n        /* \"#utility.yul\":16316:16346   */\n      swap1\n      pop\n        /* \"#utility.yul\":16355:16388   */\n      tag_389\n        /* \"#utility.yul\":16383:16387   */\n      dup3\n        /* \"#utility.yul\":16375:16381   */\n      dup3\n        /* \"#utility.yul\":16355:16388   */\n      tag_390\n      jump\t// in\n    tag_389:\n        /* \"#utility.yul\":16265:16394   */\n      swap2\n      swap1\n      pop\n      jump\t// out\n        /* \"#utility.yul\":16400:16475   */\n    tag_388:\n        /* \"#utility.yul\":16433:16439   */\n      0x00\n        /* \"#utility.yul\":16466:16468   */\n      0x40\n        /* \"#utility.yul\":16460:16469   */\n      mload\n        /* \"#utility.yul\":16450:16469   */\n      swap1\n      pop\n        /* \"#utility.yul\":16400:16475   */\n      swap1\n      jump\t// out\n        /* \"#utility.yul\":16481:16802   */\n    tag_217:\n        /* \"#utility.yul\":16568:16572   */\n      0x00\n        /* \"#utility.yul\":16658:16676   */\n      0xffffffffffffffff\n        /* \"#utility.yul\":16650:16656   */\n      dup3\n        /* \"#utility.yul\":16647:16677   */\n      gt\n        /* \"#utility.yul\":16644:16700   */\n      iszero\n      tag_393\n      jumpi\n        /* \"#utility.yul\":16680:16698   */\n      tag_394\n      tag_395\n      jump\t// in\n    tag_394:\n        /* \"#utility.yul\":16644:16700   */\n    tag_393:\n        /* \"#utility.yul\":16730:16734   */\n      0x20\n        /* \"#utility.yul\":16722:16728   */\n      dup3\n        /* \"#utility.yul\":16718:16735   */\n      mul\n        /* \"#utility.yul\":16710:16735   */\n      swap1\n      pop\n        /* \"#utility.yul\":16790:16794   */\n      0x20\n        /* \"#utility.yul\":16784:16788   */\n      dup2\n        /* \"#utility.yul\":16780:16795   */\n      add\n        /* \"#utility.yul\":16772:16795   */\n      swap1\n      pop\n        /* \"#utility.yul\":16481:16802   */\n      swap2\n      swap1\n      pop\n      jump\t// out\n        /* \"#utility.yul\":16808:17116   */\n    tag_234:\n        /* \"#utility.yul\":16870:16874   */\n      0x00\n        /* \"#utility.yul\":16960:16978   */\n      0xffffffffffffffff\n        /* \"#utility.yul\":16952:16958   */\n      dup3\n        /* \"#utility.yul\":16949:16979   */\n      gt\n        /* \"#utility.yul\":16946:17002   */\n      iszero\n      tag_397\n      jumpi\n        /* \"#utility.yul\":16982:17000   */\n      tag_398\n      tag_395\n      jump\t// in\n    tag_398:\n        /* \"#utility.yul\":16946:17002   */\n    tag_397:\n        /* \"#utility.yul\":17020:17049   */\n      tag_399\n        /* \"#utility.yul\":17042:17048   */\n      dup3\n        /* \"#utility.yul\":17020:17049   */\n      tag_346\n      jump\t// in\n    tag_399:\n        /* \"#utility.yul\":17012:17049   */\n      swap1\n      pop\n        /* \"#utility.yul\":17104:17108   */\n      0x20\n        /* \"#utility.yul\":17098:17102   */\n      dup2\n        /* \"#utility.yul\":17094:17109   */\n      add\n        /* \"#utility.yul\":17086:17109   */\n      swap1\n      pop\n        /* \"#utility.yul\":16808:17116   */\n      swap2\n      swap1\n      pop\n      jump\t// out\n        /* \"#utility.yul\":17122:17264   */\n    tag_331:\n        /* \"#utility.yul\":17199:17203   */\n      0x00\n        /* \"#utility.yul\":17222:17225   */\n      dup2\n        /* \"#utility.yul\":17214:17225   */\n      swap1\n      pop\n        /* \"#utility.yul\":17252:17256   */\n      0x20\n        /* \"#utility.yul\":17247:17250   */\n      dup3\n        /* \"#utility.yul\":17243:17257   */\n      add\n        /* \"#utility.yul\":17235:17257   */\n      swap1\n      pop\n        /* \"#utility.yul\":17122:17264   */\n      swap2\n      swap1\n      pop\n      jump\t// out\n        /* \"#utility.yul\":17270:17394   */\n    tag_327:\n        /* \"#utility.yul\":17347:17353   */\n      0x00\n        /* \"#utility.yul\":17381:17386   */\n      dup2\n        /* \"#utility.yul\":17375:17387   */\n      mload\n        /* \"#utility.yul\":17365:17387   */\n      swap1\n      pop\n        /* \"#utility.yul\":17270:17394   */\n      swap2\n      swap1\n      pop\n      jump\t// out\n        /* \"#utility.yul\":17400:17499   */\n    tag_340:\n        /* \"#utility.yul\":17452:17458   */\n      0x00\n        /* \"#utility.yul\":17486:17491   */\n      dup2\n        /* \"#utility.yul\":17480:17492   */\n      mload\n        /* \"#utility.yul\":17470:17492   */\n      swap1\n      pop\n        /* \"#utility.yul\":17400:17499   */\n      swap2\n      swap1\n      pop\n      jump\t// out\n        /* \"#utility.yul\":17505:17628   */\n    tag_337:\n        /* \"#utility.yul\":17585:17589   */\n      0x00\n        /* \"#utility.yul\":17617:17621   */\n      0x20\n        /* \"#utility.yul\":17612:17615   */\n      dup3\n        /* \"#utility.yul\":17608:17622   */\n      add\n        /* \"#utility.yul\":17600:17622   */\n      swap1\n      pop\n        /* \"#utility.yul\":17505:17628   */\n      swap2\n      swap1\n      pop\n      jump\t// out\n        /* \"#utility.yul\":17634:17818   */\n    tag_329:\n        /* \"#utility.yul\":17733:17744   */\n      0x00\n        /* \"#utility.yul\":17767:17773   */\n      dup3\n        /* \"#utility.yul\":17762:17765   */\n      dup3\n        /* \"#utility.yul\":17755:17774   */\n      mstore\n        /* \"#utility.yul\":17807:17811   */\n      0x20\n        /* \"#utility.yul\":17802:17805   */\n      dup3\n        /* \"#utility.yul\":17798:17812   */\n      add\n        /* \"#utility.yul\":17783:17812   */\n      swap1\n      pop\n        /* \"#utility.yul\":17634:17818   */\n      swap3\n      swap2\n      pop\n      pop\n      jump\t// out\n        /* \"#utility.yul\":17824:17983   */\n    tag_342:\n        /* \"#utility.yul\":17898:17909   */\n      0x00\n        /* \"#utility.yul\":17932:17938   */\n      dup3\n        /* \"#utility.yul\":17927:17930   */\n      dup3\n        /* \"#utility.yul\":17920:17939   */\n      mstore\n        /* \"#utility.yul\":17972:17976   */\n      0x20\n        /* \"#utility.yul\":17967:17970   */\n      dup3\n        /* \"#utility.yul\":17963:17977   */\n      add\n        /* \"#utility.yul\":17948:17977   */\n      swap1\n      pop\n        /* \"#utility.yul\":17824:17983   */\n      swap3\n      swap2\n      pop\n      pop\n      jump\t// out\n        /* \"#utility.yul\":17989:18158   */\n    tag_351:\n        /* \"#utility.yul\":18073:18084   */\n      0x00\n        /* \"#utility.yul\":18107:18113   */\n      dup3\n        /* \"#utility.yul\":18102:18105   */\n      dup3\n        /* \"#utility.yul\":18095:18114   */\n      mstore\n        /* \"#utility.yul\":18147:18151   */\n      0x20\n        /* \"#utility.yul\":18142:18145   */\n      dup3\n        /* \"#utility.yul\":18138:18152   */\n      add\n        /* \"#utility.yul\":18123:18152   */\n      swap1\n      pop\n        /* \"#utility.yul\":17989:18158   */\n      swap3\n      swap2\n      pop\n      pop\n      jump\t// out\n        /* \"#utility.yul\":18164:18260   */\n    tag_323:\n        /* \"#utility.yul\":18201:18208   */\n      0x00\n        /* \"#utility.yul\":18230:18254   */\n      tag_408\n        /* \"#utility.yul\":18248:18253   */\n      dup3\n        /* \"#utility.yul\":18230:18254   */\n      tag_409\n      jump\t// in\n    tag_408:\n        /* \"#utility.yul\":18219:18254   */\n      swap1\n      pop\n        /* \"#utility.yul\":18164:18260   */\n      swap2\n      swap1\n      pop\n      jump\t// out\n        /* \"#utility.yul\":18266:18392   */\n    tag_409:\n        /* \"#utility.yul\":18303:18310   */\n      0x00\n        /* \"#utility.yul\":18343:18385   */\n      0xffffffffffffffffffffffffffffffffffffffff\n        /* \"#utility.yul\":18336:18341   */\n      dup3\n        /* \"#utility.yul\":18332:18386   */\n      and\n        /* \"#utility.yul\":18321:18386   */\n      swap1\n      pop\n        /* \"#utility.yul\":18266:18392   */\n      swap2\n      swap1\n      pop\n      jump\t// out\n        /* \"#utility.yul\":18398:18475   */\n    tag_374:\n        /* \"#utility.yul\":18435:18442   */\n      0x00\n        /* \"#utility.yul\":18464:18469   */\n      dup2\n        /* \"#utility.yul\":18453:18469   */\n      swap1\n      pop\n        /* \"#utility.yul\":18398:18475   */\n      swap2\n      swap1\n      pop\n      jump\t// out\n        /* \"#utility.yul\":18481:18635   */\n    tag_239:\n        /* \"#utility.yul\":18565:18571   */\n      dup3\n        /* \"#utility.yul\":18560:18563   */\n      dup2\n        /* \"#utility.yul\":18555:18558   */\n      dup4\n        /* \"#utility.yul\":18542:18572   */\n      calldatacopy\n        /* \"#utility.yul\":18627:18628   */\n      0x00\n        /* \"#utility.yul\":18618:18624   */\n      dup4\n        /* \"#utility.yul\":18613:18616   */\n      dup4\n        /* \"#utility.yul\":18609:18625   */\n      add\n        /* \"#utility.yul\":18602:18629   */\n      mstore\n        /* \"#utility.yul\":18481:18635   */\n      pop\n      pop\n      pop\n      jump\t// out\n        /* \"#utility.yul\":18641:18948   */\n    tag_344:\n        /* \"#utility.yul\":18709:18710   */\n      0x00\n        /* \"#utility.yul\":18719:18832   */\n    tag_414:\n        /* \"#utility.yul\":18733:18739   */\n      dup4\n        /* \"#utility.yul\":18730:18731   */\n      dup2\n        /* \"#utility.yul\":18727:18740   */\n      lt\n        /* \"#utility.yul\":18719:18832   */\n      iszero\n      tag_416\n      jumpi\n        /* \"#utility.yul\":18818:18819   */\n      dup1\n        /* \"#utility.yul\":18813:18816   */\n      dup3\n        /* \"#utility.yul\":18809:18820   */\n      add\n        /* \"#utility.yul\":18803:18821   */\n      mload\n        /* \"#utility.yul\":18799:18800   */\n      dup2\n        /* \"#utility.yul\":18794:18797   */\n      dup5\n        /* \"#utility.yul\":18790:18801   */\n      add\n        /* \"#utility.yul\":18783:18822   */\n      mstore\n        /* \"#utility.yul\":18755:18757   */\n      0x20\n        /* \"#utility.yul\":18752:18753   */\n      dup2\n        /* \"#utility.yul\":18748:18758   */\n      add\n        /* \"#utility.yul\":18743:18758   */\n      swap1\n      pop\n        /* \"#utility.yul\":18719:18832   */\n      jump(tag_414)\n    tag_416:\n        /* \"#utility.yul\":18850:18856   */\n      dup4\n        /* \"#utility.yul\":18847:18848   */\n      dup2\n        /* \"#utility.yul\":18844:18857   */\n      gt\n        /* \"#utility.yul\":18841:18942   */\n      iszero\n      tag_417\n      jumpi\n        /* \"#utility.yul\":18930:18931   */\n      0x00\n        /* \"#utility.yul\":18921:18927   */\n      dup5\n        /* \"#utility.yul\":18916:18919   */\n      dup5\n        /* \"#utility.yul\":18912:18928   */\n      add\n        /* \"#utility.yul\":18905:18932   */\n      mstore\n        /* \"#utility.yul\":18841:18942   */\n    tag_417:\n        /* \"#utility.yul\":18690:18948   */\n      pop\n        /* \"#utility.yul\":18641:18948   */\n      pop\n      pop\n      pop\n      jump\t// out\n        /* \"#utility.yul\":18954:19274   */\n    tag_47:\n        /* \"#utility.yul\":18998:19004   */\n      0x00\n        /* \"#utility.yul\":19035:19036   */\n      0x02\n        /* \"#utility.yul\":19029:19033   */\n      dup3\n        /* \"#utility.yul\":19025:19037   */\n      div\n        /* \"#utility.yul\":19015:19037   */\n      swap1\n      pop\n        /* \"#utility.yul\":19082:19083   */\n      0x01\n        /* \"#utility.yul\":19076:19080   */\n      dup3\n        /* \"#utility.yul\":19072:19084   */\n      and\n        /* \"#utility.yul\":19103:19121   */\n      dup1\n        /* \"#utility.yul\":19093:19174   */\n      tag_419\n      jumpi\n        /* \"#utility.yul\":19159:19163   */\n      0x7f\n        /* \"#utility.yul\":19151:19157   */\n      dup3\n        /* \"#utility.yul\":19147:19164   */\n      and\n        /* \"#utility.yul\":19137:19164   */\n      swap2\n      pop\n        /* \"#utility.yul\":19093:19174   */\n    tag_419:\n        /* \"#utility.yul\":19221:19223   */\n      0x20\n        /* \"#utility.yul\":19213:19219   */\n      dup3\n        /* \"#utility.yul\":19210:19224   */\n      lt\n        /* \"#utility.yul\":19190:19208   */\n      dup2\n        /* \"#utility.yul\":19187:19225   */\n      eq\n        /* \"#utility.yul\":19184:19268   */\n      iszero\n      tag_420\n      jumpi\n        /* \"#utility.yul\":19240:19258   */\n      tag_421\n      tag_422\n      jump\t// in\n    tag_421:\n        /* \"#utility.yul\":19184:19268   */\n    tag_420:\n        /* \"#utility.yul\":19005:19274   */\n      pop\n        /* \"#utility.yul\":18954:19274   */\n      swap2\n      swap1\n      pop\n      jump\t// out\n        /* \"#utility.yul\":19280:19561   */\n    tag_390:\n        /* \"#utility.yul\":19363:19390   */\n      tag_424\n        /* \"#utility.yul\":19385:19389   */\n      dup3\n        /* \"#utility.yul\":19363:19390   */\n      tag_346\n      jump\t// in\n    tag_424:\n        /* \"#utility.yul\":19355:19361   */\n      dup2\n        /* \"#utility.yul\":19351:19391   */\n      add\n        /* \"#utility.yul\":19493:19499   */\n      dup2\n        /* \"#utility.yul\":19481:19491   */\n      dup2\n        /* \"#utility.yul\":19478:19500   */\n      lt\n        /* \"#utility.yul\":19457:19475   */\n      0xffffffffffffffff\n        /* \"#utility.yul\":19445:19455   */\n      dup3\n        /* \"#utility.yul\":19442:19476   */\n      gt\n        /* \"#utility.yul\":19439:19501   */\n      or\n        /* \"#utility.yul\":19436:19524   */\n      iszero\n      tag_425\n      jumpi\n        /* \"#utility.yul\":19504:19522   */\n      tag_426\n      tag_395\n      jump\t// in\n    tag_426:\n        /* \"#utility.yul\":19436:19524   */\n    tag_425:\n        /* \"#utility.yul\":19544:19554   */\n      dup1\n        /* \"#utility.yul\":19540:19542   */\n      0x40\n        /* \"#utility.yul\":19533:19555   */\n      mstore\n        /* \"#utility.yul\":19323:19561   */\n      pop\n        /* \"#utility.yul\":19280:19561   */\n      pop\n      pop\n      jump\t// out\n        /* \"#utility.yul\":19567:19747   */\n    tag_422:\n        /* \"#utility.yul\":19615:19692   */\n      0x4e487b7100000000000000000000000000000000000000000000000000000000\n        /* \"#utility.yul\":19612:19613   */\n      0x00\n        /* \"#utility.yul\":19605:19693   */\n      mstore\n        /* \"#utility.yul\":19712:19716   */\n      0x22\n        /* \"#utility.yul\":19709:19710   */\n      0x04\n        /* \"#utility.yul\":19702:19717   */\n      mstore\n        /* \"#utility.yul\":19736:19740   */\n      0x24\n        /* \"#utility.yul\":19733:19734   */\n      0x00\n        /* \"#utility.yul\":19726:19741   */\n      revert\n        /* \"#utility.yul\":19753:19933   */\n    tag_44:\n        /* \"#utility.yul\":19801:19878   */\n      0x4e487b7100000000000000000000000000000000000000000000000000000000\n        /* \"#utility.yul\":19798:19799   */\n      0x00\n        /* \"#utility.yul\":19791:19879   */\n      mstore\n        /* \"#utility.yul\":19898:19902   */\n      0x32\n        /* \"#utility.yul\":19895:19896   */\n      0x04\n        /* \"#utility.yul\":19888:19903   */\n      mstore\n        /* \"#utility.yul\":19922:19926   */\n      0x24\n        /* \"#utility.yul\":19919:19920   */\n      0x00\n        /* \"#utility.yul\":19912:19927   */\n      revert\n        /* \"#utility.yul\":19939:20119   */\n    tag_395:\n        /* \"#utility.yul\":19987:20064   */\n      0x4e487b7100000000000000000000000000000000000000000000000000000000\n        /* \"#utility.yul\":19984:19985   */\n      0x00\n        /* \"#utility.yul\":19977:20065   */\n      mstore\n        /* \"#utility.yul\":20084:20088   */\n      0x41\n        /* \"#utility.yul\":20081:20082   */\n      0x04\n        /* \"#utility.yul\":20074:20089   */\n      mstore\n        /* \"#utility.yul\":20108:20112   */\n      0x24\n        /* \"#utility.yul\":20105:20106   */\n      0x00\n        /* \"#utility.yul\":20098:20113   */\n      revert\n        /* \"#utility.yul\":20125:20242   */\n    tag_227:\n        /* \"#utility.yul\":20234:20235   */\n      0x00\n        /* \"#utility.yul\":20231:20232   */\n      dup1\n        /* \"#utility.yul\":20224:20236   */\n      revert\n        /* \"#utility.yul\":20248:20365   */\n    tag_221:\n        /* \"#utility.yul\":20357:20358   */\n      0x00\n        /* \"#utility.yul\":20354:20355   */\n      dup1\n        /* \"#utility.yul\":20347:20359   */\n      revert\n        /* \"#utility.yul\":20371:20488   */\n    tag_237:\n        /* \"#utility.yul\":20480:20481   */\n      0x00\n        /* \"#utility.yul\":20477:20478   */\n      dup1\n        /* \"#utility.yul\":20470:20482   */\n      revert\n        /* \"#utility.yul\":20494:20611   */\n    tag_263:\n        /* \"#utility.yul\":20603:20604   */\n      0x00\n        /* \"#utility.yul\":20600:20601   */\n      dup1\n        /* \"#utility.yul\":20593:20605   */\n      revert\n        /* \"#utility.yul\":20617:20734   */\n    tag_256:\n        /* \"#utility.yul\":20726:20727   */\n      0x00\n        /* \"#utility.yul\":20723:20724   */\n      dup1\n        /* \"#utility.yul\":20716:20728   */\n      revert\n        /* \"#utility.yul\":20740:20842   */\n    tag_346:\n        /* \"#utility.yul\":20781:20787   */\n      0x00\n        /* \"#utility.yul\":20832:20834   */\n      0x1f\n        /* \"#utility.yul\":20828:20835   */\n      not\n        /* \"#utility.yul\":20823:20825   */\n      0x1f\n        /* \"#utility.yul\":20816:20821   */\n      dup4\n        /* \"#utility.yul\":20812:20826   */\n      add\n        /* \"#utility.yul\":20808:20836   */\n      and\n        /* \"#utility.yul\":20798:20836   */\n      swap1\n      pop\n        /* \"#utility.yul\":20740:20842   */\n      swap2\n      swap1\n      pop\n      jump\t// out\n        /* \"#utility.yul\":20848:20970   */\n    tag_243:\n        /* \"#utility.yul\":20921:20945   */\n      tag_437\n        /* \"#utility.yul\":20939:20944   */\n      dup2\n        /* \"#utility.yul\":20921:20945   */\n      tag_323\n      jump\t// in\n    tag_437:\n        /* \"#utility.yul\":20914:20919   */\n      dup2\n        /* \"#utility.yul\":20911:20946   */\n      eq\n        /* \"#utility.yul\":20901:20964   */\n      tag_438\n      jumpi\n        /* \"#utility.yul\":20960:20961   */\n      0x00\n        /* \"#utility.yul\":20957:20958   */\n      dup1\n        /* \"#utility.yul\":20950:20962   */\n      revert\n        /* \"#utility.yul\":20901:20964   */\n    tag_438:\n        /* \"#utility.yul\":20848:20970   */\n      pop\n      jump\t// out\n\n    auxdata: 0xa26469706673582212205a0ddd9985e8881b92620e190a9972210fa53ac4a7e34a7696a10fe1867901c264736f6c63430008070033\n}\n",
				"bytecode": {
					"linkReferences": {},
					"object": "608060405234801561001057600080fd5b5061206b806100206000396000f3fe608060405234801561001057600080fd5b506004361061007d5760003560e01c80638c241fc41161005b5780638c241fc4146100d85780639dd9d0fd146100f4578063dc6d6a831461012b578063fabce08f146101475761007d565b80631c41e2db146100825780633d984d0e146100a057806372828388146100bc575b600080fd5b61008a610151565b6040516100979190611d7c565b60405180910390f35b6100ba60048036038101906100b59190611741565b610381565b005b6100d660048036038101906100d19190611966565b610505565b005b6100f260048036038101906100ed919061188f565b61075d565b005b61010e60048036038101906101099190611714565b610981565b604051610122989796959493929190611cd4565b60405180910390f35b610145600480360381019061014091906117e8565b611182565b005b61014f61126f565b005b6101596113bf565b6000803373ffffffffffffffffffffffffffffffffffffffff1673ffffffffffffffffffffffffffffffffffffffff168152602001908152602001600020600e016000815481106101ad576101ac611f96565b5b90600052602060002090600302016040518060600160405290816000820180546101d690611f04565b80601f016020809104026020016040519081016040528092919081815260200182805461020290611f04565b801561024f5780601f106102245761010080835404028352916020019161024f565b820191906000526020600020905b81548152906001019060200180831161023257829003601f168201915b5050505050815260200160018201805461026890611f04565b80601f016020809104026020016040519081016040528092919081815260200182805461029490611f04565b80156102e15780601f106102b6576101008083540402835291602001916102e1565b820191906000526020600020905b8154815290600101906020018083116102c457829003601f168201915b505050505081526020016002820180546102fa90611f04565b80601f016020809104026020016040519081016040528092919081815260200182805461032690611f04565b80156103735780601f1061034857610100808354040283529160200191610373565b820191906000526020600020905b81548152906001019060200180831161035657829003601f168201915b505050505081525050905090565b6000803373ffffffffffffffffffffffffffffffffffffffff1673ffffffffffffffffffffffffffffffffffffffff168152602001908152602001600020600b01600080820160006103d391906113e0565b6001820160006103e391906113e0565b6002820160006103f391906113e0565b5050826000803373ffffffffffffffffffffffffffffffffffffffff1673ffffffffffffffffffffffffffffffffffffffff168152602001908152602001600020600b01600001908051906020019061044d929190611401565b50816000803373ffffffffffffffffffffffffffffffffffffffff1673ffffffffffffffffffffffffffffffffffffffff168152602001908152602001600020600b0160010190805190602001906104a6929190611401565b50806000803373ffffffffffffffffffffffffffffffffffffffff1673ffffffffffffffffffffffffffffffffffffffff168152602001908152602001600020600b0160020190805190602001906104ff929190611401565b50505050565b6000803373ffffffffffffffffffffffffffffffffffffffff1673ffffffffffffffffffffffffffffffffffffffff168152602001908152602001600020600601600080820160006105579190611461565b6001820160006105679190611461565b6002820160006105779190611461565b6003820160006105879190611461565b6004820160006105979190611461565b5050846000803373ffffffffffffffffffffffffffffffffffffffff1673ffffffffffffffffffffffffffffffffffffffff16815260200190815260200160002060060160000190805190602001906105f19291906114a1565b50836000803373ffffffffffffffffffffffffffffffffffffffff1673ffffffffffffffffffffffffffffffffffffffff168152602001908152602001600020600601600101908051906020019061064a9291906114a1565b50826000803373ffffffffffffffffffffffffffffffffffffffff1673ffffffffffffffffffffffffffffffffffffffff16815260200190815260200160002060060160000190805190602001906106a39291906114a1565b50816000803373ffffffffffffffffffffffffffffffffffffffff1673ffffffffffffffffffffffffffffffffffffffff16815260200190815260200160002060060160010190805190602001906106fc9291906114a1565b50806000803373ffffffffffffffffffffffffffffffffffffffff1673ffffffffffffffffffffffffffffffffffffffff16815260200190815260200160002060060160000190805190602001906107559291906114a1565b505050505050565b836000803373ffffffffffffffffffffffffffffffffffffffff1673ffffffffffffffffffffffffffffffffffffffff16815260200190815260200160002060010190805190602001906107b29291906114a1565b50826000803373ffffffffffffffffffffffffffffffffffffffff1673ffffffffffffffffffffffffffffffffffffffff16815260200190815260200160002060020190805190602001906108089291906114a1565b50816000803373ffffffffffffffffffffffffffffffffffffffff1673ffffffffffffffffffffffffffffffffffffffff168152602001908152602001600020600301908051906020019061085e9291906114a1565b50806000803373ffffffffffffffffffffffffffffffffffffffff1673ffffffffffffffffffffffffffffffffffffffff16815260200190815260200160002060040190805190602001906108b49291906114a1565b50336000803373ffffffffffffffffffffffffffffffffffffffff1673ffffffffffffffffffffffffffffffffffffffff16815260200190815260200160002060000160006101000a81548173ffffffffffffffffffffffffffffffffffffffff021916908373ffffffffffffffffffffffffffffffffffffffff160217905550426000803373ffffffffffffffffffffffffffffffffffffffff1673ffffffffffffffffffffffffffffffffffffffff1681526020019081526020016000206005018190555050505050565b60006020528060005260406000206000915090508060000160009054906101000a900473ffffffffffffffffffffffffffffffffffffffff16908060010180546109ca90611f04565b80601f01602080910402602001604051908101604052809291908181526020018280546109f690611f04565b8015610a435780601f10610a1857610100808354040283529160200191610a43565b820191906000526020600020905b815481529060010190602001808311610a2657829003601f168201915b505050505090806002018054610a5890611f04565b80601f0160208091040260200160405190810160405280929190818152602001828054610a8490611f04565b8015610ad15780601f10610aa657610100808354040283529160200191610ad1565b820191906000526020600020905b815481529060010190602001808311610ab457829003601f168201915b505050505090806003018054610ae690611f04565b80601f0160208091040260200160405190810160405280929190818152602001828054610b1290611f04565b8015610b5f5780601f10610b3457610100808354040283529160200191610b5f565b820191906000526020600020905b815481529060010190602001808311610b4257829003601f168201915b505050505090806004018054610b7490611f04565b80601f0160208091040260200160405190810160405280929190818152602001828054610ba090611f04565b8015610bed5780601f10610bc257610100808354040283529160200191610bed565b820191906000526020600020905b815481529060010190602001808311610bd057829003601f168201915b505050505090806005015490806006016040518060a0016040529081600082018054610c1890611f04565b80601f0160208091040260200160405190810160405280929190818152602001828054610c4490611f04565b8015610c915780601f10610c6657610100808354040283529160200191610c91565b820191906000526020600020905b815481529060010190602001808311610c7457829003601f168201915b50505050508152602001600182018054610caa90611f04565b80601f0160208091040260200160405190810160405280929190818152602001828054610cd690611f04565b8015610d235780601f10610cf857610100808354040283529160200191610d23565b820191906000526020600020905b815481529060010190602001808311610d0657829003601f168201915b50505050508152602001600282018054610d3c90611f04565b80601f0160208091040260200160405190810160405280929190818152602001828054610d6890611f04565b8015610db55780601f10610d8a57610100808354040283529160200191610db5565b820191906000526020600020905b815481529060010190602001808311610d9857829003601f168201915b50505050508152602001600382018054610dce90611f04565b80601f0160208091040260200160405190810160405280929190818152602001828054610dfa90611f04565b8015610e475780601f10610e1c57610100808354040283529160200191610e47565b820191906000526020600020905b815481529060010190602001808311610e2a57829003601f168201915b50505050508152602001600482018054610e6090611f04565b80601f0160208091040260200160405190810160405280929190818152602001828054610e8c90611f04565b8015610ed95780601f10610eae57610100808354040283529160200191610ed9565b820191906000526020600020905b815481529060010190602001808311610ebc57829003601f168201915b5050505050815250509080600b0160405180606001604052908160008201805480602002602001604051908101604052809291908181526020016000905b82821015610fc3578382906000526020600020018054610f3690611f04565b80601f0160208091040260200160405190810160405280929190818152602001828054610f6290611f04565b8015610faf5780601f10610f8457610100808354040283529160200191610faf565b820191906000526020600020905b815481529060010190602001808311610f9257829003601f168201915b505050505081526020019060010190610f17565b50505050815260200160018201805480602002602001604051908101604052809291908181526020016000905b8282101561109c57838290600052602060002001805461100f90611f04565b80601f016020809104026020016040519081016040528092919081815260200182805461103b90611f04565b80156110885780601f1061105d57610100808354040283529160200191611088565b820191906000526020600020905b81548152906001019060200180831161106b57829003601f168201915b505050505081526020019060010190610ff0565b50505050815260200160028201805480602002602001604051908101604052809291908181526020016000905b828210156111755783829060005260206000200180546110e890611f04565b80601f016020809104026020016040519081016040528092919081815260200182805461111490611f04565b80156111615780601f1061113657610100808354040283529160200191611161565b820191906000526020600020905b81548152906001019060200180831161114457829003601f168201915b5050505050815260200190600101906110c9565b5050505081525050905088565b61118a6113bf565b8381600001819052508281602001819052508181604001819052506000803373ffffffffffffffffffffffffffffffffffffffff1673ffffffffffffffffffffffffffffffffffffffff168152602001908152602001600020600e01819080600181540180825580915050600190039060005260206000209060030201600090919091909150600082015181600001908051906020019061122c9291906114a1565b5060208201518160010190805190602001906112499291906114a1565b5060408201518160020190805190602001906112669291906114a1565b50505050505050565b6000803373ffffffffffffffffffffffffffffffffffffffff1673ffffffffffffffffffffffffffffffffffffffff168152602001908152602001600020600080820160006101000a81549073ffffffffffffffffffffffffffffffffffffffff02191690556001820160006112e59190611461565b6002820160006112f59190611461565b6003820160006113059190611461565b6004820160006113159190611461565b600582016000905560068201600080820160006113329190611461565b6001820160006113429190611461565b6002820160006113529190611461565b6003820160006113629190611461565b6004820160006113729190611461565b5050600b82016000808201600061138991906113e0565b60018201600061139991906113e0565b6002820160006113a991906113e0565b5050600e820160006113bb9190611527565b5050565b60405180606001604052806060815260200160608152602001606081525090565b50805460008255906000526020600020908101906113fe919061154b565b50565b828054828255906000526020600020908101928215611450579160200282015b8281111561144f57825182908051906020019061143f9291906114a1565b5091602001919060010190611421565b5b50905061145d919061154b565b5090565b50805461146d90611f04565b6000825580601f1061147f575061149e565b601f01602090049060005260206000209081019061149d919061156f565b5b50565b8280546114ad90611f04565b90600052602060002090601f0160209004810192826114cf5760008555611516565b82601f106114e857805160ff1916838001178555611516565b82800160010185558215611516579182015b828111156115155782518255916020019190600101906114fa565b5b509050611523919061156f565b5090565b5080546000825560030290600052602060002090810190611548919061158c565b50565b5b8082111561156b57600081816115629190611461565b5060010161154c565b5090565b5b80821115611588576000816000905550600101611570565b5090565b5b808211156115cf57600080820160006115a69190611461565b6001820160006115b69190611461565b6002820160006115c69190611461565b5060030161158d565b5090565b60006115e66115e184611dc3565b611d9e565b9050808382526020820190508285602086028201111561160957611608611ff9565b5b60005b8581101561165757813567ffffffffffffffff81111561162f5761162e611ff4565b5b80860161163c89826116e6565b8552602085019450602084019350505060018101905061160c565b5050509392505050565b600061167461166f84611def565b611d9e565b9050828152602081018484840111156116905761168f611ffe565b5b61169b848285611ec2565b509392505050565b6000813590506116b28161201e565b92915050565b600082601f8301126116cd576116cc611ff4565b5b81356116dd8482602086016115d3565b91505092915050565b600082601f8301126116fb576116fa611ff4565b5b813561170b848260208601611661565b91505092915050565b60006020828403121561172a57611729612008565b5b6000611738848285016116a3565b91505092915050565b60008060006060848603121561175a57611759612008565b5b600084013567ffffffffffffffff81111561177857611777612003565b5b611784868287016116b8565b935050602084013567ffffffffffffffff8111156117a5576117a4612003565b5b6117b1868287016116b8565b925050604084013567ffffffffffffffff8111156117d2576117d1612003565b5b6117de868287016116b8565b9150509250925092565b60008060006060848603121561180157611800612008565b5b600084013567ffffffffffffffff81111561181f5761181e612003565b5b61182b868287016116e6565b935050602084013567ffffffffffffffff81111561184c5761184b612003565b5b611858868287016116e6565b925050604084013567ffffffffffffffff81111561187957611878612003565b5b611885868287016116e6565b9150509250925092565b600080600080608085870312156118a9576118a8612008565b5b600085013567ffffffffffffffff8111156118c7576118c6612003565b5b6118d3878288016116e6565b945050602085013567ffffffffffffffff8111156118f4576118f3612003565b5b611900878288016116e6565b935050604085013567ffffffffffffffff81111561192157611920612003565b5b61192d878288016116e6565b925050606085013567ffffffffffffffff81111561194e5761194d612003565b5b61195a878288016116e6565b91505092959194509250565b600080600080600060a0868803121561198257611981612008565b5b600086013567ffffffffffffffff8111156119a05761199f612003565b5b6119ac888289016116e6565b955050602086013567ffffffffffffffff8111156119cd576119cc612003565b5b6119d9888289016116e6565b945050604086013567ffffffffffffffff8111156119fa576119f9612003565b5b611a06888289016116e6565b935050606086013567ffffffffffffffff811115611a2757611a26612003565b5b611a33888289016116e6565b925050608086013567ffffffffffffffff811115611a5457611a53612003565b5b611a60888289016116e6565b9150509295509295909350565b6000611a798383611b05565b905092915050565b611a8a81611e86565b82525050565b6000611a9b82611e30565b611aa58185611e53565b935083602082028501611ab785611e20565b8060005b85811015611af35784840389528151611ad48582611a6d565b9450611adf83611e46565b925060208a01995050600181019050611abb565b50829750879550505050505092915050565b6000611b1082611e3b565b611b1a8185611e64565b9350611b2a818560208601611ed1565b611b338161200d565b840191505092915050565b6000611b4982611e3b565b611b538185611e75565b9350611b63818560208601611ed1565b611b6c8161200d565b840191505092915050565b600060a0830160008301518482036000860152611b948282611b05565b91505060208301518482036020860152611bae8282611b05565b91505060408301518482036040860152611bc88282611b05565b91505060608301518482036060860152611be28282611b05565b91505060808301518482036080860152611bfc8282611b05565b9150508091505092915050565b60006060830160008301518482036000860152611c268282611b05565b91505060208301518482036020860152611c408282611b05565b91505060408301518482036040860152611c5a8282611b05565b9150508091505092915050565b60006060830160008301518482036000860152611c848282611a90565b91505060208301518482036020860152611c9e8282611a90565b91505060408301518482036040860152611cb88282611a90565b9150508091505092915050565b611cce81611eb8565b82525050565b600061010082019050611cea600083018b611a81565b8181036020830152611cfc818a611b3e565b90508181036040830152611d108189611b3e565b90508181036060830152611d248188611b3e565b90508181036080830152611d388187611b3e565b9050611d4760a0830186611cc5565b81810360c0830152611d598185611b77565b905081810360e0830152611d6d8184611c67565b90509998505050505050505050565b60006020820190508181036000830152611d968184611c09565b905092915050565b6000611da8611db9565b9050611db48282611f36565b919050565b6000604051905090565b600067ffffffffffffffff821115611dde57611ddd611fc5565b5b602082029050602081019050919050565b600067ffffffffffffffff821115611e0a57611e09611fc5565b5b611e138261200d565b9050602081019050919050565b6000819050602082019050919050565b600081519050919050565b600081519050919050565b6000602082019050919050565b600082825260208201905092915050565b600082825260208201905092915050565b600082825260208201905092915050565b6000611e9182611e98565b9050919050565b600073ffffffffffffffffffffffffffffffffffffffff82169050919050565b6000819050919050565b82818337600083830152505050565b60005b83811015611eef578082015181840152602081019050611ed4565b83811115611efe576000848401525b50505050565b60006002820490506001821680611f1c57607f821691505b60208210811415611f3057611f2f611f67565b5b50919050565b611f3f8261200d565b810181811067ffffffffffffffff82111715611f5e57611f5d611fc5565b5b80604052505050565b7f4e487b7100000000000000000000000000000000000000000000000000000000600052602260045260246000fd5b7f4e487b7100000000000000000000000000000000000000000000000000000000600052603260045260246000fd5b7f4e487b7100000000000000000000000000000000000000000000000000000000600052604160045260246000fd5b600080fd5b600080fd5b600080fd5b600080fd5b600080fd5b6000601f19601f8301169050919050565b61202781611e86565b811461203257600080fd5b5056fea26469706673582212205a0ddd9985e8881b92620e190a9972210fa53ac4a7e34a7696a10fe1867901c264736f6c63430008070033",
					"opcodes": "PUSH1 0x80 PUSH1 0x40 MSTORE CALLVALUE DUP1 ISZERO PUSH2 0x10 JUMPI PUSH1 0x0 DUP1 REVERT JUMPDEST POP PUSH2 0x206B DUP1 PUSH2 0x20 PUSH1 0x0 CODECOPY PUSH1 0x0 RETURN INVALID PUSH1 0x80 PUSH1 0x40 MSTORE CALLVALUE DUP1 ISZERO PUSH2 0x10 JUMPI PUSH1 0x0 DUP1 REVERT JUMPDEST POP PUSH1 0x4 CALLDATASIZE LT PUSH2 0x7D JUMPI PUSH1 0x0 CALLDATALOAD PUSH1 0xE0 SHR DUP1 PUSH4 0x8C241FC4 GT PUSH2 0x5B JUMPI DUP1 PUSH4 0x8C241FC4 EQ PUSH2 0xD8 JUMPI DUP1 PUSH4 0x9DD9D0FD EQ PUSH2 0xF4 JUMPI DUP1 PUSH4 0xDC6D6A83 EQ PUSH2 0x12B JUMPI DUP1 PUSH4 0xFABCE08F EQ PUSH2 0x147 JUMPI PUSH2 0x7D JUMP JUMPDEST DUP1 PUSH4 0x1C41E2DB EQ PUSH2 0x82 JUMPI DUP1 PUSH4 0x3D984D0E EQ PUSH2 0xA0 JUMPI DUP1 PUSH4 0x72828388 EQ PUSH2 0xBC JUMPI JUMPDEST PUSH1 0x0 DUP1 REVERT JUMPDEST PUSH2 0x8A PUSH2 0x151 JUMP JUMPDEST PUSH1 0x40 MLOAD PUSH2 0x97 SWAP2 SWAP1 PUSH2 0x1D7C JUMP JUMPDEST PUSH1 0x40 MLOAD DUP1 SWAP2 SUB SWAP1 RETURN JUMPDEST PUSH2 0xBA PUSH1 0x4 DUP1 CALLDATASIZE SUB DUP2 ADD SWAP1 PUSH2 0xB5 SWAP2 SWAP1 PUSH2 0x1741 JUMP JUMPDEST PUSH2 0x381 JUMP JUMPDEST STOP JUMPDEST PUSH2 0xD6 PUSH1 0x4 DUP1 CALLDATASIZE SUB DUP2 ADD SWAP1 PUSH2 0xD1 SWAP2 SWAP1 PUSH2 0x1966 JUMP JUMPDEST PUSH2 0x505 JUMP JUMPDEST STOP JUMPDEST PUSH2 0xF2 PUSH1 0x4 DUP1 CALLDATASIZE SUB DUP2 ADD SWAP1 PUSH2 0xED SWAP2 SWAP1 PUSH2 0x188F JUMP JUMPDEST PUSH2 0x75D JUMP JUMPDEST STOP JUMPDEST PUSH2 0x10E PUSH1 0x4 DUP1 CALLDATASIZE SUB DUP2 ADD SWAP1 PUSH2 0x109 SWAP2 SWAP1 PUSH2 0x1714 JUMP JUMPDEST PUSH2 0x981 JUMP JUMPDEST PUSH1 0x40 MLOAD PUSH2 0x122 SWAP9 SWAP8 SWAP7 SWAP6 SWAP5 SWAP4 SWAP3 SWAP2 SWAP1 PUSH2 0x1CD4 JUMP JUMPDEST PUSH1 0x40 MLOAD DUP1 SWAP2 SUB SWAP1 RETURN JUMPDEST PUSH2 0x145 PUSH1 0x4 DUP1 CALLDATASIZE SUB DUP2 ADD SWAP1 PUSH2 0x140 SWAP2 SWAP1 PUSH2 0x17E8 JUMP JUMPDEST PUSH2 0x1182 JUMP JUMPDEST STOP JUMPDEST PUSH2 0x14F PUSH2 0x126F JUMP JUMPDEST STOP JUMPDEST PUSH2 0x159 PUSH2 0x13BF JUMP JUMPDEST PUSH1 0x0 DUP1 CALLER PUSH20 0xFFFFFFFFFFFFFFFFFFFFFFFFFFFFFFFFFFFFFFFF AND PUSH20 0xFFFFFFFFFFFFFFFFFFFFFFFFFFFFFFFFFFFFFFFF AND DUP2 MSTORE PUSH1 0x20 ADD SWAP1 DUP2 MSTORE PUSH1 0x20 ADD PUSH1 0x0 KECCAK256 PUSH1 0xE ADD PUSH1 0x0 DUP2 SLOAD DUP2 LT PUSH2 0x1AD JUMPI PUSH2 0x1AC PUSH2 0x1F96 JUMP JUMPDEST JUMPDEST SWAP1 PUSH1 0x0 MSTORE PUSH1 0x20 PUSH1 0x0 KECCAK256 SWAP1 PUSH1 0x3 MUL ADD PUSH1 0x40 MLOAD DUP1 PUSH1 0x60 ADD PUSH1 0x40 MSTORE SWAP1 DUP2 PUSH1 0x0 DUP3 ADD DUP1 SLOAD PUSH2 0x1D6 SWAP1 PUSH2 0x1F04 JUMP JUMPDEST DUP1 PUSH1 0x1F ADD PUSH1 0x20 DUP1 SWAP2 DIV MUL PUSH1 0x20 ADD PUSH1 0x40 MLOAD SWAP1 DUP2 ADD PUSH1 0x40 MSTORE DUP1 SWAP3 SWAP2 SWAP1 DUP2 DUP2 MSTORE PUSH1 0x20 ADD DUP3 DUP1 SLOAD PUSH2 0x202 SWAP1 PUSH2 0x1F04 JUMP JUMPDEST DUP1 ISZERO PUSH2 0x24F JUMPI DUP1 PUSH1 0x1F LT PUSH2 0x224 JUMPI PUSH2 0x100 DUP1 DUP4 SLOAD DIV MUL DUP4 MSTORE SWAP2 PUSH1 0x20 ADD SWAP2 PUSH2 0x24F JUMP JUMPDEST DUP3 ADD SWAP2 SWAP1 PUSH1 0x0 MSTORE PUSH1 0x20 PUSH1 0x0 KECCAK256 SWAP1 JUMPDEST DUP2 SLOAD DUP2 MSTORE SWAP1 PUSH1 0x1 ADD SWAP1 PUSH1 0x20 ADD DUP1 DUP4 GT PUSH2 0x232 JUMPI DUP3 SWAP1 SUB PUSH1 0x1F AND DUP3 ADD SWAP2 JUMPDEST POP POP POP POP POP DUP2 MSTORE PUSH1 0x20 ADD PUSH1 0x1 DUP3 ADD DUP1 SLOAD PUSH2 0x268 SWAP1 PUSH2 0x1F04 JUMP JUMPDEST DUP1 PUSH1 0x1F ADD PUSH1 0x20 DUP1 SWAP2 DIV MUL PUSH1 0x20 ADD PUSH1 0x40 MLOAD SWAP1 DUP2 ADD PUSH1 0x40 MSTORE DUP1 SWAP3 SWAP2 SWAP1 DUP2 DUP2 MSTORE PUSH1 0x20 ADD DUP3 DUP1 SLOAD PUSH2 0x294 SWAP1 PUSH2 0x1F04 JUMP JUMPDEST DUP1 ISZERO PUSH2 0x2E1 JUMPI DUP1 PUSH1 0x1F LT PUSH2 0x2B6 JUMPI PUSH2 0x100 DUP1 DUP4 SLOAD DIV MUL DUP4 MSTORE SWAP2 PUSH1 0x20 ADD SWAP2 PUSH2 0x2E1 JUMP JUMPDEST DUP3 ADD SWAP2 SWAP1 PUSH1 0x0 MSTORE PUSH1 0x20 PUSH1 0x0 KECCAK256 SWAP1 JUMPDEST DUP2 SLOAD DUP2 MSTORE SWAP1 PUSH1 0x1 ADD SWAP1 PUSH1 0x20 ADD DUP1 DUP4 GT PUSH2 0x2C4 JUMPI DUP3 SWAP1 SUB PUSH1 0x1F AND DUP3 ADD SWAP2 JUMPDEST POP POP POP POP POP DUP2 MSTORE PUSH1 0x20 ADD PUSH1 0x2 DUP3 ADD DUP1 SLOAD PUSH2 0x2FA SWAP1 PUSH2 0x1F04 JUMP JUMPDEST DUP1 PUSH1 0x1F ADD PUSH1 0x20 DUP1 SWAP2 DIV MUL PUSH1 0x20 ADD PUSH1 0x40 MLOAD SWAP1 DUP2 ADD PUSH1 0x40 MSTORE DUP1 SWAP3 SWAP2 SWAP1 DUP2 DUP2 MSTORE PUSH1 0x20 ADD DUP3 DUP1 SLOAD PUSH2 0x326 SWAP1 PUSH2 0x1F04 JUMP JUMPDEST DUP1 ISZERO PUSH2 0x373 JUMPI DUP1 PUSH1 0x1F LT PUSH2 0x348 JUMPI PUSH2 0x100 DUP1 DUP4 SLOAD DIV MUL DUP4 MSTORE SWAP2 PUSH1 0x20 ADD SWAP2 PUSH2 0x373 JUMP JUMPDEST DUP3 ADD SWAP2 SWAP1 PUSH1 0x0 MSTORE PUSH1 0x20 PUSH1 0x0 KECCAK256 SWAP1 JUMPDEST DUP2 SLOAD DUP2 MSTORE SWAP1 PUSH1 0x1 ADD SWAP1 PUSH1 0x20 ADD DUP1 DUP4 GT PUSH2 0x356 JUMPI DUP3 SWAP1 SUB PUSH1 0x1F AND DUP3 ADD SWAP2 JUMPDEST POP POP POP POP POP DUP2 MSTORE POP POP SWAP1 POP SWAP1 JUMP JUMPDEST PUSH1 0x0 DUP1 CALLER PUSH20 0xFFFFFFFFFFFFFFFFFFFFFFFFFFFFFFFFFFFFFFFF AND PUSH20 0xFFFFFFFFFFFFFFFFFFFFFFFFFFFFFFFFFFFFFFFF AND DUP2 MSTORE PUSH1 0x20 ADD SWAP1 DUP2 MSTORE PUSH1 0x20 ADD PUSH1 0x0 KECCAK256 PUSH1 0xB ADD PUSH1 0x0 DUP1 DUP3 ADD PUSH1 0x0 PUSH2 0x3D3 SWAP2 SWAP1 PUSH2 0x13E0 JUMP JUMPDEST PUSH1 0x1 DUP3 ADD PUSH1 0x0 PUSH2 0x3E3 SWAP2 SWAP1 PUSH2 0x13E0 JUMP JUMPDEST PUSH1 0x2 DUP3 ADD PUSH1 0x0 PUSH2 0x3F3 SWAP2 SWAP1 PUSH2 0x13E0 JUMP JUMPDEST POP POP DUP3 PUSH1 0x0 DUP1 CALLER PUSH20 0xFFFFFFFFFFFFFFFFFFFFFFFFFFFFFFFFFFFFFFFF AND PUSH20 0xFFFFFFFFFFFFFFFFFFFFFFFFFFFFFFFFFFFFFFFF AND DUP2 MSTORE PUSH1 0x20 ADD SWAP1 DUP2 MSTORE PUSH1 0x20 ADD PUSH1 0x0 KECCAK256 PUSH1 0xB ADD PUSH1 0x0 ADD SWAP1 DUP1 MLOAD SWAP1 PUSH1 0x20 ADD SWAP1 PUSH2 0x44D SWAP3 SWAP2 SWAP1 PUSH2 0x1401 JUMP JUMPDEST POP DUP2 PUSH1 0x0 DUP1 CALLER PUSH20 0xFFFFFFFFFFFFFFFFFFFFFFFFFFFFFFFFFFFFFFFF AND PUSH20 0xFFFFFFFFFFFFFFFFFFFFFFFFFFFFFFFFFFFFFFFF AND DUP2 MSTORE PUSH1 0x20 ADD SWAP1 DUP2 MSTORE PUSH1 0x20 ADD PUSH1 0x0 KECCAK256 PUSH1 0xB ADD PUSH1 0x1 ADD SWAP1 DUP1 MLOAD SWAP1 PUSH1 0x20 ADD SWAP1 PUSH2 0x4A6 SWAP3 SWAP2 SWAP1 PUSH2 0x1401 JUMP JUMPDEST POP DUP1 PUSH1 0x0 DUP1 CALLER PUSH20 0xFFFFFFFFFFFFFFFFFFFFFFFFFFFFFFFFFFFFFFFF AND PUSH20 0xFFFFFFFFFFFFFFFFFFFFFFFFFFFFFFFFFFFFFFFF AND DUP2 MSTORE PUSH1 0x20 ADD SWAP1 DUP2 MSTORE PUSH1 0x20 ADD PUSH1 0x0 KECCAK256 PUSH1 0xB ADD PUSH1 0x2 ADD SWAP1 DUP1 MLOAD SWAP1 PUSH1 0x20 ADD SWAP1 PUSH2 0x4FF SWAP3 SWAP2 SWAP1 PUSH2 0x1401 JUMP JUMPDEST POP POP POP POP JUMP JUMPDEST PUSH1 0x0 DUP1 CALLER PUSH20 0xFFFFFFFFFFFFFFFFFFFFFFFFFFFFFFFFFFFFFFFF AND PUSH20 0xFFFFFFFFFFFFFFFFFFFFFFFFFFFFFFFFFFFFFFFF AND DUP2 MSTORE PUSH1 0x20 ADD SWAP1 DUP2 MSTORE PUSH1 0x20 ADD PUSH1 0x0 KECCAK256 PUSH1 0x6 ADD PUSH1 0x0 DUP1 DUP3 ADD PUSH1 0x0 PUSH2 0x557 SWAP2 SWAP1 PUSH2 0x1461 JUMP JUMPDEST PUSH1 0x1 DUP3 ADD PUSH1 0x0 PUSH2 0x567 SWAP2 SWAP1 PUSH2 0x1461 JUMP JUMPDEST PUSH1 0x2 DUP3 ADD PUSH1 0x0 PUSH2 0x577 SWAP2 SWAP1 PUSH2 0x1461 JUMP JUMPDEST PUSH1 0x3 DUP3 ADD PUSH1 0x0 PUSH2 0x587 SWAP2 SWAP1 PUSH2 0x1461 JUMP JUMPDEST PUSH1 0x4 DUP3 ADD PUSH1 0x0 PUSH2 0x597 SWAP2 SWAP1 PUSH2 0x1461 JUMP JUMPDEST POP POP DUP5 PUSH1 0x0 DUP1 CALLER PUSH20 0xFFFFFFFFFFFFFFFFFFFFFFFFFFFFFFFFFFFFFFFF AND PUSH20 0xFFFFFFFFFFFFFFFFFFFFFFFFFFFFFFFFFFFFFFFF AND DUP2 MSTORE PUSH1 0x20 ADD SWAP1 DUP2 MSTORE PUSH1 0x20 ADD PUSH1 0x0 KECCAK256 PUSH1 0x6 ADD PUSH1 0x0 ADD SWAP1 DUP1 MLOAD SWAP1 PUSH1 0x20 ADD SWAP1 PUSH2 0x5F1 SWAP3 SWAP2 SWAP1 PUSH2 0x14A1 JUMP JUMPDEST POP DUP4 PUSH1 0x0 DUP1 CALLER PUSH20 0xFFFFFFFFFFFFFFFFFFFFFFFFFFFFFFFFFFFFFFFF AND PUSH20 0xFFFFFFFFFFFFFFFFFFFFFFFFFFFFFFFFFFFFFFFF AND DUP2 MSTORE PUSH1 0x20 ADD SWAP1 DUP2 MSTORE PUSH1 0x20 ADD PUSH1 0x0 KECCAK256 PUSH1 0x6 ADD PUSH1 0x1 ADD SWAP1 DUP1 MLOAD SWAP1 PUSH1 0x20 ADD SWAP1 PUSH2 0x64A SWAP3 SWAP2 SWAP1 PUSH2 0x14A1 JUMP JUMPDEST POP DUP3 PUSH1 0x0 DUP1 CALLER PUSH20 0xFFFFFFFFFFFFFFFFFFFFFFFFFFFFFFFFFFFFFFFF AND PUSH20 0xFFFFFFFFFFFFFFFFFFFFFFFFFFFFFFFFFFFFFFFF AND DUP2 MSTORE PUSH1 0x20 ADD SWAP1 DUP2 MSTORE PUSH1 0x20 ADD PUSH1 0x0 KECCAK256 PUSH1 0x6 ADD PUSH1 0x0 ADD SWAP1 DUP1 MLOAD SWAP1 PUSH1 0x20 ADD SWAP1 PUSH2 0x6A3 SWAP3 SWAP2 SWAP1 PUSH2 0x14A1 JUMP JUMPDEST POP DUP2 PUSH1 0x0 DUP1 CALLER PUSH20 0xFFFFFFFFFFFFFFFFFFFFFFFFFFFFFFFFFFFFFFFF AND PUSH20 0xFFFFFFFFFFFFFFFFFFFFFFFFFFFFFFFFFFFFFFFF AND DUP2 MSTORE PUSH1 0x20 ADD SWAP1 DUP2 MSTORE PUSH1 0x20 ADD PUSH1 0x0 KECCAK256 PUSH1 0x6 ADD PUSH1 0x1 ADD SWAP1 DUP1 MLOAD SWAP1 PUSH1 0x20 ADD SWAP1 PUSH2 0x6FC SWAP3 SWAP2 SWAP1 PUSH2 0x14A1 JUMP JUMPDEST POP DUP1 PUSH1 0x0 DUP1 CALLER PUSH20 0xFFFFFFFFFFFFFFFFFFFFFFFFFFFFFFFFFFFFFFFF AND PUSH20 0xFFFFFFFFFFFFFFFFFFFFFFFFFFFFFFFFFFFFFFFF AND DUP2 MSTORE PUSH1 0x20 ADD SWAP1 DUP2 MSTORE PUSH1 0x20 ADD PUSH1 0x0 KECCAK256 PUSH1 0x6 ADD PUSH1 0x0 ADD SWAP1 DUP1 MLOAD SWAP1 PUSH1 0x20 ADD SWAP1 PUSH2 0x755 SWAP3 SWAP2 SWAP1 PUSH2 0x14A1 JUMP JUMPDEST POP POP POP POP POP POP JUMP JUMPDEST DUP4 PUSH1 0x0 DUP1 CALLER PUSH20 0xFFFFFFFFFFFFFFFFFFFFFFFFFFFFFFFFFFFFFFFF AND PUSH20 0xFFFFFFFFFFFFFFFFFFFFFFFFFFFFFFFFFFFFFFFF AND DUP2 MSTORE PUSH1 0x20 ADD SWAP1 DUP2 MSTORE PUSH1 0x20 ADD PUSH1 0x0 KECCAK256 PUSH1 0x1 ADD SWAP1 DUP1 MLOAD SWAP1 PUSH1 0x20 ADD SWAP1 PUSH2 0x7B2 SWAP3 SWAP2 SWAP1 PUSH2 0x14A1 JUMP JUMPDEST POP DUP3 PUSH1 0x0 DUP1 CALLER PUSH20 0xFFFFFFFFFFFFFFFFFFFFFFFFFFFFFFFFFFFFFFFF AND PUSH20 0xFFFFFFFFFFFFFFFFFFFFFFFFFFFFFFFFFFFFFFFF AND DUP2 MSTORE PUSH1 0x20 ADD SWAP1 DUP2 MSTORE PUSH1 0x20 ADD PUSH1 0x0 KECCAK256 PUSH1 0x2 ADD SWAP1 DUP1 MLOAD SWAP1 PUSH1 0x20 ADD SWAP1 PUSH2 0x808 SWAP3 SWAP2 SWAP1 PUSH2 0x14A1 JUMP JUMPDEST POP DUP2 PUSH1 0x0 DUP1 CALLER PUSH20 0xFFFFFFFFFFFFFFFFFFFFFFFFFFFFFFFFFFFFFFFF AND PUSH20 0xFFFFFFFFFFFFFFFFFFFFFFFFFFFFFFFFFFFFFFFF AND DUP2 MSTORE PUSH1 0x20 ADD SWAP1 DUP2 MSTORE PUSH1 0x20 ADD PUSH1 0x0 KECCAK256 PUSH1 0x3 ADD SWAP1 DUP1 MLOAD SWAP1 PUSH1 0x20 ADD SWAP1 PUSH2 0x85E SWAP3 SWAP2 SWAP1 PUSH2 0x14A1 JUMP JUMPDEST POP DUP1 PUSH1 0x0 DUP1 CALLER PUSH20 0xFFFFFFFFFFFFFFFFFFFFFFFFFFFFFFFFFFFFFFFF AND PUSH20 0xFFFFFFFFFFFFFFFFFFFFFFFFFFFFFFFFFFFFFFFF AND DUP2 MSTORE PUSH1 0x20 ADD SWAP1 DUP2 MSTORE PUSH1 0x20 ADD PUSH1 0x0 KECCAK256 PUSH1 0x4 ADD SWAP1 DUP1 MLOAD SWAP1 PUSH1 0x20 ADD SWAP1 PUSH2 0x8B4 SWAP3 SWAP2 SWAP1 PUSH2 0x14A1 JUMP JUMPDEST POP CALLER PUSH1 0x0 DUP1 CALLER PUSH20 0xFFFFFFFFFFFFFFFFFFFFFFFFFFFFFFFFFFFFFFFF AND PUSH20 0xFFFFFFFFFFFFFFFFFFFFFFFFFFFFFFFFFFFFFFFF AND DUP2 MSTORE PUSH1 0x20 ADD SWAP1 DUP2 MSTORE PUSH1 0x20 ADD PUSH1 0x0 KECCAK256 PUSH1 0x0 ADD PUSH1 0x0 PUSH2 0x100 EXP DUP2 SLOAD DUP2 PUSH20 0xFFFFFFFFFFFFFFFFFFFFFFFFFFFFFFFFFFFFFFFF MUL NOT AND SWAP1 DUP4 PUSH20 0xFFFFFFFFFFFFFFFFFFFFFFFFFFFFFFFFFFFFFFFF AND MUL OR SWAP1 SSTORE POP TIMESTAMP PUSH1 0x0 DUP1 CALLER PUSH20 0xFFFFFFFFFFFFFFFFFFFFFFFFFFFFFFFFFFFFFFFF AND PUSH20 0xFFFFFFFFFFFFFFFFFFFFFFFFFFFFFFFFFFFFFFFF AND DUP2 MSTORE PUSH1 0x20 ADD SWAP1 DUP2 MSTORE PUSH1 0x20 ADD PUSH1 0x0 KECCAK256 PUSH1 0x5 ADD DUP2 SWAP1 SSTORE POP POP POP POP POP JUMP JUMPDEST PUSH1 0x0 PUSH1 0x20 MSTORE DUP1 PUSH1 0x0 MSTORE PUSH1 0x40 PUSH1 0x0 KECCAK256 PUSH1 0x0 SWAP2 POP SWAP1 POP DUP1 PUSH1 0x0 ADD PUSH1 0x0 SWAP1 SLOAD SWAP1 PUSH2 0x100 EXP SWAP1 DIV PUSH20 0xFFFFFFFFFFFFFFFFFFFFFFFFFFFFFFFFFFFFFFFF AND SWAP1 DUP1 PUSH1 0x1 ADD DUP1 SLOAD PUSH2 0x9CA SWAP1 PUSH2 0x1F04 JUMP JUMPDEST DUP1 PUSH1 0x1F ADD PUSH1 0x20 DUP1 SWAP2 DIV MUL PUSH1 0x20 ADD PUSH1 0x40 MLOAD SWAP1 DUP2 ADD PUSH1 0x40 MSTORE DUP1 SWAP3 SWAP2 SWAP1 DUP2 DUP2 MSTORE PUSH1 0x20 ADD DUP3 DUP1 SLOAD PUSH2 0x9F6 SWAP1 PUSH2 0x1F04 JUMP JUMPDEST DUP1 ISZERO PUSH2 0xA43 JUMPI DUP1 PUSH1 0x1F LT PUSH2 0xA18 JUMPI PUSH2 0x100 DUP1 DUP4 SLOAD DIV MUL DUP4 MSTORE SWAP2 PUSH1 0x20 ADD SWAP2 PUSH2 0xA43 JUMP JUMPDEST DUP3 ADD SWAP2 SWAP1 PUSH1 0x0 MSTORE PUSH1 0x20 PUSH1 0x0 KECCAK256 SWAP1 JUMPDEST DUP2 SLOAD DUP2 MSTORE SWAP1 PUSH1 0x1 ADD SWAP1 PUSH1 0x20 ADD DUP1 DUP4 GT PUSH2 0xA26 JUMPI DUP3 SWAP1 SUB PUSH1 0x1F AND DUP3 ADD SWAP2 JUMPDEST POP POP POP POP POP SWAP1 DUP1 PUSH1 0x2 ADD DUP1 SLOAD PUSH2 0xA58 SWAP1 PUSH2 0x1F04 JUMP JUMPDEST DUP1 PUSH1 0x1F ADD PUSH1 0x20 DUP1 SWAP2 DIV MUL PUSH1 0x20 ADD PUSH1 0x40 MLOAD SWAP1 DUP2 ADD PUSH1 0x40 MSTORE DUP1 SWAP3 SWAP2 SWAP1 DUP2 DUP2 MSTORE PUSH1 0x20 ADD DUP3 DUP1 SLOAD PUSH2 0xA84 SWAP1 PUSH2 0x1F04 JUMP JUMPDEST DUP1 ISZERO PUSH2 0xAD1 JUMPI DUP1 PUSH1 0x1F LT PUSH2 0xAA6 JUMPI PUSH2 0x100 DUP1 DUP4 SLOAD DIV MUL DUP4 MSTORE SWAP2 PUSH1 0x20 ADD SWAP2 PUSH2 0xAD1 JUMP JUMPDEST DUP3 ADD SWAP2 SWAP1 PUSH1 0x0 MSTORE PUSH1 0x20 PUSH1 0x0 KECCAK256 SWAP1 JUMPDEST DUP2 SLOAD DUP2 MSTORE SWAP1 PUSH1 0x1 ADD SWAP1 PUSH1 0x20 ADD DUP1 DUP4 GT PUSH2 0xAB4 JUMPI DUP3 SWAP1 SUB PUSH1 0x1F AND DUP3 ADD SWAP2 JUMPDEST POP POP POP POP POP SWAP1 DUP1 PUSH1 0x3 ADD DUP1 SLOAD PUSH2 0xAE6 SWAP1 PUSH2 0x1F04 JUMP JUMPDEST DUP1 PUSH1 0x1F ADD PUSH1 0x20 DUP1 SWAP2 DIV MUL PUSH1 0x20 ADD PUSH1 0x40 MLOAD SWAP1 DUP2 ADD PUSH1 0x40 MSTORE DUP1 SWAP3 SWAP2 SWAP1 DUP2 DUP2 MSTORE PUSH1 0x20 ADD DUP3 DUP1 SLOAD PUSH2 0xB12 SWAP1 PUSH2 0x1F04 JUMP JUMPDEST DUP1 ISZERO PUSH2 0xB5F JUMPI DUP1 PUSH1 0x1F LT PUSH2 0xB34 JUMPI PUSH2 0x100 DUP1 DUP4 SLOAD DIV MUL DUP4 MSTORE SWAP2 PUSH1 0x20 ADD SWAP2 PUSH2 0xB5F JUMP JUMPDEST DUP3 ADD SWAP2 SWAP1 PUSH1 0x0 MSTORE PUSH1 0x20 PUSH1 0x0 KECCAK256 SWAP1 JUMPDEST DUP2 SLOAD DUP2 MSTORE SWAP1 PUSH1 0x1 ADD SWAP1 PUSH1 0x20 ADD DUP1 DUP4 GT PUSH2 0xB42 JUMPI DUP3 SWAP1 SUB PUSH1 0x1F AND DUP3 ADD SWAP2 JUMPDEST POP POP POP POP POP SWAP1 DUP1 PUSH1 0x4 ADD DUP1 SLOAD PUSH2 0xB74 SWAP1 PUSH2 0x1F04 JUMP JUMPDEST DUP1 PUSH1 0x1F ADD PUSH1 0x20 DUP1 SWAP2 DIV MUL PUSH1 0x20 ADD PUSH1 0x40 MLOAD SWAP1 DUP2 ADD PUSH1 0x40 MSTORE DUP1 SWAP3 SWAP2 SWAP1 DUP2 DUP2 MSTORE PUSH1 0x20 ADD DUP3 DUP1 SLOAD PUSH2 0xBA0 SWAP1 PUSH2 0x1F04 JUMP JUMPDEST DUP1 ISZERO PUSH2 0xBED JUMPI DUP1 PUSH1 0x1F LT PUSH2 0xBC2 JUMPI PUSH2 0x100 DUP1 DUP4 SLOAD DIV MUL DUP4 MSTORE SWAP2 PUSH1 0x20 ADD SWAP2 PUSH2 0xBED JUMP JUMPDEST DUP3 ADD SWAP2 SWAP1 PUSH1 0x0 MSTORE PUSH1 0x20 PUSH1 0x0 KECCAK256 SWAP1 JUMPDEST DUP2 SLOAD DUP2 MSTORE SWAP1 PUSH1 0x1 ADD SWAP1 PUSH1 0x20 ADD DUP1 DUP4 GT PUSH2 0xBD0 JUMPI DUP3 SWAP1 SUB PUSH1 0x1F AND DUP3 ADD SWAP2 JUMPDEST POP POP POP POP POP SWAP1 DUP1 PUSH1 0x5 ADD SLOAD SWAP1 DUP1 PUSH1 0x6 ADD PUSH1 0x40 MLOAD DUP1 PUSH1 0xA0 ADD PUSH1 0x40 MSTORE SWAP1 DUP2 PUSH1 0x0 DUP3 ADD DUP1 SLOAD PUSH2 0xC18 SWAP1 PUSH2 0x1F04 JUMP JUMPDEST DUP1 PUSH1 0x1F ADD PUSH1 0x20 DUP1 SWAP2 DIV MUL PUSH1 0x20 ADD PUSH1 0x40 MLOAD SWAP1 DUP2 ADD PUSH1 0x40 MSTORE DUP1 SWAP3 SWAP2 SWAP1 DUP2 DUP2 MSTORE PUSH1 0x20 ADD DUP3 DUP1 SLOAD PUSH2 0xC44 SWAP1 PUSH2 0x1F04 JUMP JUMPDEST DUP1 ISZERO PUSH2 0xC91 JUMPI DUP1 PUSH1 0x1F LT PUSH2 0xC66 JUMPI PUSH2 0x100 DUP1 DUP4 SLOAD DIV MUL DUP4 MSTORE SWAP2 PUSH1 0x20 ADD SWAP2 PUSH2 0xC91 JUMP JUMPDEST DUP3 ADD SWAP2 SWAP1 PUSH1 0x0 MSTORE PUSH1 0x20 PUSH1 0x0 KECCAK256 SWAP1 JUMPDEST DUP2 SLOAD DUP2 MSTORE SWAP1 PUSH1 0x1 ADD SWAP1 PUSH1 0x20 ADD DUP1 DUP4 GT PUSH2 0xC74 JUMPI DUP3 SWAP1 SUB PUSH1 0x1F AND DUP3 ADD SWAP2 JUMPDEST POP POP POP POP POP DUP2 MSTORE PUSH1 0x20 ADD PUSH1 0x1 DUP3 ADD DUP1 SLOAD PUSH2 0xCAA SWAP1 PUSH2 0x1F04 JUMP JUMPDEST DUP1 PUSH1 0x1F ADD PUSH1 0x20 DUP1 SWAP2 DIV MUL PUSH1 0x20 ADD PUSH1 0x40 MLOAD SWAP1 DUP2 ADD PUSH1 0x40 MSTORE DUP1 SWAP3 SWAP2 SWAP1 DUP2 DUP2 MSTORE PUSH1 0x20 ADD DUP3 DUP1 SLOAD PUSH2 0xCD6 SWAP1 PUSH2 0x1F04 JUMP JUMPDEST DUP1 ISZERO PUSH2 0xD23 JUMPI DUP1 PUSH1 0x1F LT PUSH2 0xCF8 JUMPI PUSH2 0x100 DUP1 DUP4 SLOAD DIV MUL DUP4 MSTORE SWAP2 PUSH1 0x20 ADD SWAP2 PUSH2 0xD23 JUMP JUMPDEST DUP3 ADD SWAP2 SWAP1 PUSH1 0x0 MSTORE PUSH1 0x20 PUSH1 0x0 KECCAK256 SWAP1 JUMPDEST DUP2 SLOAD DUP2 MSTORE SWAP1 PUSH1 0x1 ADD SWAP1 PUSH1 0x20 ADD DUP1 DUP4 GT PUSH2 0xD06 JUMPI DUP3 SWAP1 SUB PUSH1 0x1F AND DUP3 ADD SWAP2 JUMPDEST POP POP POP POP POP DUP2 MSTORE PUSH1 0x20 ADD PUSH1 0x2 DUP3 ADD DUP1 SLOAD PUSH2 0xD3C SWAP1 PUSH2 0x1F04 JUMP JUMPDEST DUP1 PUSH1 0x1F ADD PUSH1 0x20 DUP1 SWAP2 DIV MUL PUSH1 0x20 ADD PUSH1 0x40 MLOAD SWAP1 DUP2 ADD PUSH1 0x40 MSTORE DUP1 SWAP3 SWAP2 SWAP1 DUP2 DUP2 MSTORE PUSH1 0x20 ADD DUP3 DUP1 SLOAD PUSH2 0xD68 SWAP1 PUSH2 0x1F04 JUMP JUMPDEST DUP1 ISZERO PUSH2 0xDB5 JUMPI DUP1 PUSH1 0x1F LT PUSH2 0xD8A JUMPI PUSH2 0x100 DUP1 DUP4 SLOAD DIV MUL DUP4 MSTORE SWAP2 PUSH1 0x20 ADD SWAP2 PUSH2 0xDB5 JUMP JUMPDEST DUP3 ADD SWAP2 SWAP1 PUSH1 0x0 MSTORE PUSH1 0x20 PUSH1 0x0 KECCAK256 SWAP1 JUMPDEST DUP2 SLOAD DUP2 MSTORE SWAP1 PUSH1 0x1 ADD SWAP1 PUSH1 0x20 ADD DUP1 DUP4 GT PUSH2 0xD98 JUMPI DUP3 SWAP1 SUB PUSH1 0x1F AND DUP3 ADD SWAP2 JUMPDEST POP POP POP POP POP DUP2 MSTORE PUSH1 0x20 ADD PUSH1 0x3 DUP3 ADD DUP1 SLOAD PUSH2 0xDCE SWAP1 PUSH2 0x1F04 JUMP JUMPDEST DUP1 PUSH1 0x1F ADD PUSH1 0x20 DUP1 SWAP2 DIV MUL PUSH1 0x20 ADD PUSH1 0x40 MLOAD SWAP1 DUP2 ADD PUSH1 0x40 MSTORE DUP1 SWAP3 SWAP2 SWAP1 DUP2 DUP2 MSTORE PUSH1 0x20 ADD DUP3 DUP1 SLOAD PUSH2 0xDFA SWAP1 PUSH2 0x1F04 JUMP JUMPDEST DUP1 ISZERO PUSH2 0xE47 JUMPI DUP1 PUSH1 0x1F LT PUSH2 0xE1C JUMPI PUSH2 0x100 DUP1 DUP4 SLOAD DIV MUL DUP4 MSTORE SWAP2 PUSH1 0x20 ADD SWAP2 PUSH2 0xE47 JUMP JUMPDEST DUP3 ADD SWAP2 SWAP1 PUSH1 0x0 MSTORE PUSH1 0x20 PUSH1 0x0 KECCAK256 SWAP1 JUMPDEST DUP2 SLOAD DUP2 MSTORE SWAP1 PUSH1 0x1 ADD SWAP1 PUSH1 0x20 ADD DUP1 DUP4 GT PUSH2 0xE2A JUMPI DUP3 SWAP1 SUB PUSH1 0x1F AND DUP3 ADD SWAP2 JUMPDEST POP POP POP POP POP DUP2 MSTORE PUSH1 0x20 ADD PUSH1 0x4 DUP3 ADD DUP1 SLOAD PUSH2 0xE60 SWAP1 PUSH2 0x1F04 JUMP JUMPDEST DUP1 PUSH1 0x1F ADD PUSH1 0x20 DUP1 SWAP2 DIV MUL PUSH1 0x20 ADD PUSH1 0x40 MLOAD SWAP1 DUP2 ADD PUSH1 0x40 MSTORE DUP1 SWAP3 SWAP2 SWAP1 DUP2 DUP2 MSTORE PUSH1 0x20 ADD DUP3 DUP1 SLOAD PUSH2 0xE8C SWAP1 PUSH2 0x1F04 JUMP JUMPDEST DUP1 ISZERO PUSH2 0xED9 JUMPI DUP1 PUSH1 0x1F LT PUSH2 0xEAE JUMPI PUSH2 0x100 DUP1 DUP4 SLOAD DIV MUL DUP4 MSTORE SWAP2 PUSH1 0x20 ADD SWAP2 PUSH2 0xED9 JUMP JUMPDEST DUP3 ADD SWAP2 SWAP1 PUSH1 0x0 MSTORE PUSH1 0x20 PUSH1 0x0 KECCAK256 SWAP1 JUMPDEST DUP2 SLOAD DUP2 MSTORE SWAP1 PUSH1 0x1 ADD SWAP1 PUSH1 0x20 ADD DUP1 DUP4 GT PUSH2 0xEBC JUMPI DUP3 SWAP1 SUB PUSH1 0x1F AND DUP3 ADD SWAP2 JUMPDEST POP POP POP POP POP DUP2 MSTORE POP POP SWAP1 DUP1 PUSH1 0xB ADD PUSH1 0x40 MLOAD DUP1 PUSH1 0x60 ADD PUSH1 0x40 MSTORE SWAP1 DUP2 PUSH1 0x0 DUP3 ADD DUP1 SLOAD DUP1 PUSH1 0x20 MUL PUSH1 0x20 ADD PUSH1 0x40 MLOAD SWAP1 DUP2 ADD PUSH1 0x40 MSTORE DUP1 SWAP3 SWAP2 SWAP1 DUP2 DUP2 MSTORE PUSH1 0x20 ADD PUSH1 0x0 SWAP1 JUMPDEST DUP3 DUP3 LT ISZERO PUSH2 0xFC3 JUMPI DUP4 DUP3 SWAP1 PUSH1 0x0 MSTORE PUSH1 0x20 PUSH1 0x0 KECCAK256 ADD DUP1 SLOAD PUSH2 0xF36 SWAP1 PUSH2 0x1F04 JUMP JUMPDEST DUP1 PUSH1 0x1F ADD PUSH1 0x20 DUP1 SWAP2 DIV MUL PUSH1 0x20 ADD PUSH1 0x40 MLOAD SWAP1 DUP2 ADD PUSH1 0x40 MSTORE DUP1 SWAP3 SWAP2 SWAP1 DUP2 DUP2 MSTORE PUSH1 0x20 ADD DUP3 DUP1 SLOAD PUSH2 0xF62 SWAP1 PUSH2 0x1F04 JUMP JUMPDEST DUP1 ISZERO PUSH2 0xFAF JUMPI DUP1 PUSH1 0x1F LT PUSH2 0xF84 JUMPI PUSH2 0x100 DUP1 DUP4 SLOAD DIV MUL DUP4 MSTORE SWAP2 PUSH1 0x20 ADD SWAP2 PUSH2 0xFAF JUMP JUMPDEST DUP3 ADD SWAP2 SWAP1 PUSH1 0x0 MSTORE PUSH1 0x20 PUSH1 0x0 KECCAK256 SWAP1 JUMPDEST DUP2 SLOAD DUP2 MSTORE SWAP1 PUSH1 0x1 ADD SWAP1 PUSH1 0x20 ADD DUP1 DUP4 GT PUSH2 0xF92 JUMPI DUP3 SWAP1 SUB PUSH1 0x1F AND DUP3 ADD SWAP2 JUMPDEST POP POP POP POP POP DUP2 MSTORE PUSH1 0x20 ADD SWAP1 PUSH1 0x1 ADD SWAP1 PUSH2 0xF17 JUMP JUMPDEST POP POP POP POP DUP2 MSTORE PUSH1 0x20 ADD PUSH1 0x1 DUP3 ADD DUP1 SLOAD DUP1 PUSH1 0x20 MUL PUSH1 0x20 ADD PUSH1 0x40 MLOAD SWAP1 DUP2 ADD PUSH1 0x40 MSTORE DUP1 SWAP3 SWAP2 SWAP1 DUP2 DUP2 MSTORE PUSH1 0x20 ADD PUSH1 0x0 SWAP1 JUMPDEST DUP3 DUP3 LT ISZERO PUSH2 0x109C JUMPI DUP4 DUP3 SWAP1 PUSH1 0x0 MSTORE PUSH1 0x20 PUSH1 0x0 KECCAK256 ADD DUP1 SLOAD PUSH2 0x100F SWAP1 PUSH2 0x1F04 JUMP JUMPDEST DUP1 PUSH1 0x1F ADD PUSH1 0x20 DUP1 SWAP2 DIV MUL PUSH1 0x20 ADD PUSH1 0x40 MLOAD SWAP1 DUP2 ADD PUSH1 0x40 MSTORE DUP1 SWAP3 SWAP2 SWAP1 DUP2 DUP2 MSTORE PUSH1 0x20 ADD DUP3 DUP1 SLOAD PUSH2 0x103B SWAP1 PUSH2 0x1F04 JUMP JUMPDEST DUP1 ISZERO PUSH2 0x1088 JUMPI DUP1 PUSH1 0x1F LT PUSH2 0x105D JUMPI PUSH2 0x100 DUP1 DUP4 SLOAD DIV MUL DUP4 MSTORE SWAP2 PUSH1 0x20 ADD SWAP2 PUSH2 0x1088 JUMP JUMPDEST DUP3 ADD SWAP2 SWAP1 PUSH1 0x0 MSTORE PUSH1 0x20 PUSH1 0x0 KECCAK256 SWAP1 JUMPDEST DUP2 SLOAD DUP2 MSTORE SWAP1 PUSH1 0x1 ADD SWAP1 PUSH1 0x20 ADD DUP1 DUP4 GT PUSH2 0x106B JUMPI DUP3 SWAP1 SUB PUSH1 0x1F AND DUP3 ADD SWAP2 JUMPDEST POP POP POP POP POP DUP2 MSTORE PUSH1 0x20 ADD SWAP1 PUSH1 0x1 ADD SWAP1 PUSH2 0xFF0 JUMP JUMPDEST POP POP POP POP DUP2 MSTORE PUSH1 0x20 ADD PUSH1 0x2 DUP3 ADD DUP1 SLOAD DUP1 PUSH1 0x20 MUL PUSH1 0x20 ADD PUSH1 0x40 MLOAD SWAP1 DUP2 ADD PUSH1 0x40 MSTORE DUP1 SWAP3 SWAP2 SWAP1 DUP2 DUP2 MSTORE PUSH1 0x20 ADD PUSH1 0x0 SWAP1 JUMPDEST DUP3 DUP3 LT ISZERO PUSH2 0x1175 JUMPI DUP4 DUP3 SWAP1 PUSH1 0x0 MSTORE PUSH1 0x20 PUSH1 0x0 KECCAK256 ADD DUP1 SLOAD PUSH2 0x10E8 SWAP1 PUSH2 0x1F04 JUMP JUMPDEST DUP1 PUSH1 0x1F ADD PUSH1 0x20 DUP1 SWAP2 DIV MUL PUSH1 0x20 ADD PUSH1 0x40 MLOAD SWAP1 DUP2 ADD PUSH1 0x40 MSTORE DUP1 SWAP3 SWAP2 SWAP1 DUP2 DUP2 MSTORE PUSH1 0x20 ADD DUP3 DUP1 SLOAD PUSH2 0x1114 SWAP1 PUSH2 0x1F04 JUMP JUMPDEST DUP1 ISZERO PUSH2 0x1161 JUMPI DUP1 PUSH1 0x1F LT PUSH2 0x1136 JUMPI PUSH2 0x100 DUP1 DUP4 SLOAD DIV MUL DUP4 MSTORE SWAP2 PUSH1 0x20 ADD SWAP2 PUSH2 0x1161 JUMP JUMPDEST DUP3 ADD SWAP2 SWAP1 PUSH1 0x0 MSTORE PUSH1 0x20 PUSH1 0x0 KECCAK256 SWAP1 JUMPDEST DUP2 SLOAD DUP2 MSTORE SWAP1 PUSH1 0x1 ADD SWAP1 PUSH1 0x20 ADD DUP1 DUP4 GT PUSH2 0x1144 JUMPI DUP3 SWAP1 SUB PUSH1 0x1F AND DUP3 ADD SWAP2 JUMPDEST POP POP POP POP POP DUP2 MSTORE PUSH1 0x20 ADD SWAP1 PUSH1 0x1 ADD SWAP1 PUSH2 0x10C9 JUMP JUMPDEST POP POP POP POP DUP2 MSTORE POP POP SWAP1 POP DUP9 JUMP JUMPDEST PUSH2 0x118A PUSH2 0x13BF JUMP JUMPDEST DUP4 DUP2 PUSH1 0x0 ADD DUP2 SWAP1 MSTORE POP DUP3 DUP2 PUSH1 0x20 ADD DUP2 SWAP1 MSTORE POP DUP2 DUP2 PUSH1 0x40 ADD DUP2 SWAP1 MSTORE POP PUSH1 0x0 DUP1 CALLER PUSH20 0xFFFFFFFFFFFFFFFFFFFFFFFFFFFFFFFFFFFFFFFF AND PUSH20 0xFFFFFFFFFFFFFFFFFFFFFFFFFFFFFFFFFFFFFFFF AND DUP2 MSTORE PUSH1 0x20 ADD SWAP1 DUP2 MSTORE PUSH1 0x20 ADD PUSH1 0x0 KECCAK256 PUSH1 0xE ADD DUP2 SWAP1 DUP1 PUSH1 0x1 DUP2 SLOAD ADD DUP1 DUP3 SSTORE DUP1 SWAP2 POP POP PUSH1 0x1 SWAP1 SUB SWAP1 PUSH1 0x0 MSTORE PUSH1 0x20 PUSH1 0x0 KECCAK256 SWAP1 PUSH1 0x3 MUL ADD PUSH1 0x0 SWAP1 SWAP2 SWAP1 SWAP2 SWAP1 SWAP2 POP PUSH1 0x0 DUP3 ADD MLOAD DUP2 PUSH1 0x0 ADD SWAP1 DUP1 MLOAD SWAP1 PUSH1 0x20 ADD SWAP1 PUSH2 0x122C SWAP3 SWAP2 SWAP1 PUSH2 0x14A1 JUMP JUMPDEST POP PUSH1 0x20 DUP3 ADD MLOAD DUP2 PUSH1 0x1 ADD SWAP1 DUP1 MLOAD SWAP1 PUSH1 0x20 ADD SWAP1 PUSH2 0x1249 SWAP3 SWAP2 SWAP1 PUSH2 0x14A1 JUMP JUMPDEST POP PUSH1 0x40 DUP3 ADD MLOAD DUP2 PUSH1 0x2 ADD SWAP1 DUP1 MLOAD SWAP1 PUSH1 0x20 ADD SWAP1 PUSH2 0x1266 SWAP3 SWAP2 SWAP1 PUSH2 0x14A1 JUMP JUMPDEST POP POP POP POP POP POP POP JUMP JUMPDEST PUSH1 0x0 DUP1 CALLER PUSH20 0xFFFFFFFFFFFFFFFFFFFFFFFFFFFFFFFFFFFFFFFF AND PUSH20 0xFFFFFFFFFFFFFFFFFFFFFFFFFFFFFFFFFFFFFFFF AND DUP2 MSTORE PUSH1 0x20 ADD SWAP1 DUP2 MSTORE PUSH1 0x20 ADD PUSH1 0x0 KECCAK256 PUSH1 0x0 DUP1 DUP3 ADD PUSH1 0x0 PUSH2 0x100 EXP DUP2 SLOAD SWAP1 PUSH20 0xFFFFFFFFFFFFFFFFFFFFFFFFFFFFFFFFFFFFFFFF MUL NOT AND SWAP1 SSTORE PUSH1 0x1 DUP3 ADD PUSH1 0x0 PUSH2 0x12E5 SWAP2 SWAP1 PUSH2 0x1461 JUMP JUMPDEST PUSH1 0x2 DUP3 ADD PUSH1 0x0 PUSH2 0x12F5 SWAP2 SWAP1 PUSH2 0x1461 JUMP JUMPDEST PUSH1 0x3 DUP3 ADD PUSH1 0x0 PUSH2 0x1305 SWAP2 SWAP1 PUSH2 0x1461 JUMP JUMPDEST PUSH1 0x4 DUP3 ADD PUSH1 0x0 PUSH2 0x1315 SWAP2 SWAP1 PUSH2 0x1461 JUMP JUMPDEST PUSH1 0x5 DUP3 ADD PUSH1 0x0 SWAP1 SSTORE PUSH1 0x6 DUP3 ADD PUSH1 0x0 DUP1 DUP3 ADD PUSH1 0x0 PUSH2 0x1332 SWAP2 SWAP1 PUSH2 0x1461 JUMP JUMPDEST PUSH1 0x1 DUP3 ADD PUSH1 0x0 PUSH2 0x1342 SWAP2 SWAP1 PUSH2 0x1461 JUMP JUMPDEST PUSH1 0x2 DUP3 ADD PUSH1 0x0 PUSH2 0x1352 SWAP2 SWAP1 PUSH2 0x1461 JUMP JUMPDEST PUSH1 0x3 DUP3 ADD PUSH1 0x0 PUSH2 0x1362 SWAP2 SWAP1 PUSH2 0x1461 JUMP JUMPDEST PUSH1 0x4 DUP3 ADD PUSH1 0x0 PUSH2 0x1372 SWAP2 SWAP1 PUSH2 0x1461 JUMP JUMPDEST POP POP PUSH1 0xB DUP3 ADD PUSH1 0x0 DUP1 DUP3 ADD PUSH1 0x0 PUSH2 0x1389 SWAP2 SWAP1 PUSH2 0x13E0 JUMP JUMPDEST PUSH1 0x1 DUP3 ADD PUSH1 0x0 PUSH2 0x1399 SWAP2 SWAP1 PUSH2 0x13E0 JUMP JUMPDEST PUSH1 0x2 DUP3 ADD PUSH1 0x0 PUSH2 0x13A9 SWAP2 SWAP1 PUSH2 0x13E0 JUMP JUMPDEST POP POP PUSH1 0xE DUP3 ADD PUSH1 0x0 PUSH2 0x13BB SWAP2 SWAP1 PUSH2 0x1527 JUMP JUMPDEST POP POP JUMP JUMPDEST PUSH1 0x40 MLOAD DUP1 PUSH1 0x60 ADD PUSH1 0x40 MSTORE DUP1 PUSH1 0x60 DUP2 MSTORE PUSH1 0x20 ADD PUSH1 0x60 DUP2 MSTORE PUSH1 0x20 ADD PUSH1 0x60 DUP2 MSTORE POP SWAP1 JUMP JUMPDEST POP DUP1 SLOAD PUSH1 0x0 DUP3 SSTORE SWAP1 PUSH1 0x0 MSTORE PUSH1 0x20 PUSH1 0x0 KECCAK256 SWAP1 DUP2 ADD SWAP1 PUSH2 0x13FE SWAP2 SWAP1 PUSH2 0x154B JUMP JUMPDEST POP JUMP JUMPDEST DUP3 DUP1 SLOAD DUP3 DUP3 SSTORE SWAP1 PUSH1 0x0 MSTORE PUSH1 0x20 PUSH1 0x0 KECCAK256 SWAP1 DUP2 ADD SWAP3 DUP3 ISZERO PUSH2 0x1450 JUMPI SWAP2 PUSH1 0x20 MUL DUP3 ADD JUMPDEST DUP3 DUP2 GT ISZERO PUSH2 0x144F JUMPI DUP3 MLOAD DUP3 SWAP1 DUP1 MLOAD SWAP1 PUSH1 0x20 ADD SWAP1 PUSH2 0x143F SWAP3 SWAP2 SWAP1 PUSH2 0x14A1 JUMP JUMPDEST POP SWAP2 PUSH1 0x20 ADD SWAP2 SWAP1 PUSH1 0x1 ADD SWAP1 PUSH2 0x1421 JUMP JUMPDEST JUMPDEST POP SWAP1 POP PUSH2 0x145D SWAP2 SWAP1 PUSH2 0x154B JUMP JUMPDEST POP SWAP1 JUMP JUMPDEST POP DUP1 SLOAD PUSH2 0x146D SWAP1 PUSH2 0x1F04 JUMP JUMPDEST PUSH1 0x0 DUP3 SSTORE DUP1 PUSH1 0x1F LT PUSH2 0x147F JUMPI POP PUSH2 0x149E JUMP JUMPDEST PUSH1 0x1F ADD PUSH1 0x20 SWAP1 DIV SWAP1 PUSH1 0x0 MSTORE PUSH1 0x20 PUSH1 0x0 KECCAK256 SWAP1 DUP2 ADD SWAP1 PUSH2 0x149D SWAP2 SWAP1 PUSH2 0x156F JUMP JUMPDEST JUMPDEST POP JUMP JUMPDEST DUP3 DUP1 SLOAD PUSH2 0x14AD SWAP1 PUSH2 0x1F04 JUMP JUMPDEST SWAP1 PUSH1 0x0 MSTORE PUSH1 0x20 PUSH1 0x0 KECCAK256 SWAP1 PUSH1 0x1F ADD PUSH1 0x20 SWAP1 DIV DUP2 ADD SWAP3 DUP3 PUSH2 0x14CF JUMPI PUSH1 0x0 DUP6 SSTORE PUSH2 0x1516 JUMP JUMPDEST DUP3 PUSH1 0x1F LT PUSH2 0x14E8 JUMPI DUP1 MLOAD PUSH1 0xFF NOT AND DUP4 DUP1 ADD OR DUP6 SSTORE PUSH2 0x1516 JUMP JUMPDEST DUP3 DUP1 ADD PUSH1 0x1 ADD DUP6 SSTORE DUP3 ISZERO PUSH2 0x1516 JUMPI SWAP2 DUP3 ADD JUMPDEST DUP3 DUP2 GT ISZERO PUSH2 0x1515 JUMPI DUP3 MLOAD DUP3 SSTORE SWAP2 PUSH1 0x20 ADD SWAP2 SWAP1 PUSH1 0x1 ADD SWAP1 PUSH2 0x14FA JUMP JUMPDEST JUMPDEST POP SWAP1 POP PUSH2 0x1523 SWAP2 SWAP1 PUSH2 0x156F JUMP JUMPDEST POP SWAP1 JUMP JUMPDEST POP DUP1 SLOAD PUSH1 0x0 DUP3 SSTORE PUSH1 0x3 MUL SWAP1 PUSH1 0x0 MSTORE PUSH1 0x20 PUSH1 0x0 KECCAK256 SWAP1 DUP2 ADD SWAP1 PUSH2 0x1548 SWAP2 SWAP1 PUSH2 0x158C JUMP JUMPDEST POP JUMP JUMPDEST JUMPDEST DUP1 DUP3 GT ISZERO PUSH2 0x156B JUMPI PUSH1 0x0 DUP2 DUP2 PUSH2 0x1562 SWAP2 SWAP1 PUSH2 0x1461 JUMP JUMPDEST POP PUSH1 0x1 ADD PUSH2 0x154C JUMP JUMPDEST POP SWAP1 JUMP JUMPDEST JUMPDEST DUP1 DUP3 GT ISZERO PUSH2 0x1588 JUMPI PUSH1 0x0 DUP2 PUSH1 0x0 SWAP1 SSTORE POP PUSH1 0x1 ADD PUSH2 0x1570 JUMP JUMPDEST POP SWAP1 JUMP JUMPDEST JUMPDEST DUP1 DUP3 GT ISZERO PUSH2 0x15CF JUMPI PUSH1 0x0 DUP1 DUP3 ADD PUSH1 0x0 PUSH2 0x15A6 SWAP2 SWAP1 PUSH2 0x1461 JUMP JUMPDEST PUSH1 0x1 DUP3 ADD PUSH1 0x0 PUSH2 0x15B6 SWAP2 SWAP1 PUSH2 0x1461 JUMP JUMPDEST PUSH1 0x2 DUP3 ADD PUSH1 0x0 PUSH2 0x15C6 SWAP2 SWAP1 PUSH2 0x1461 JUMP JUMPDEST POP PUSH1 0x3 ADD PUSH2 0x158D JUMP JUMPDEST POP SWAP1 JUMP JUMPDEST PUSH1 0x0 PUSH2 0x15E6 PUSH2 0x15E1 DUP5 PUSH2 0x1DC3 JUMP JUMPDEST PUSH2 0x1D9E JUMP JUMPDEST SWAP1 POP DUP1 DUP4 DUP3 MSTORE PUSH1 0x20 DUP3 ADD SWAP1 POP DUP3 DUP6 PUSH1 0x20 DUP7 MUL DUP3 ADD GT ISZERO PUSH2 0x1609 JUMPI PUSH2 0x1608 PUSH2 0x1FF9 JUMP JUMPDEST JUMPDEST PUSH1 0x0 JUMPDEST DUP6 DUP2 LT ISZERO PUSH2 0x1657 JUMPI DUP2 CALLDATALOAD PUSH8 0xFFFFFFFFFFFFFFFF DUP2 GT ISZERO PUSH2 0x162F JUMPI PUSH2 0x162E PUSH2 0x1FF4 JUMP JUMPDEST JUMPDEST DUP1 DUP7 ADD PUSH2 0x163C DUP10 DUP3 PUSH2 0x16E6 JUMP JUMPDEST DUP6 MSTORE PUSH1 0x20 DUP6 ADD SWAP5 POP PUSH1 0x20 DUP5 ADD SWAP4 POP POP POP PUSH1 0x1 DUP2 ADD SWAP1 POP PUSH2 0x160C JUMP JUMPDEST POP POP POP SWAP4 SWAP3 POP POP POP JUMP JUMPDEST PUSH1 0x0 PUSH2 0x1674 PUSH2 0x166F DUP5 PUSH2 0x1DEF JUMP JUMPDEST PUSH2 0x1D9E JUMP JUMPDEST SWAP1 POP DUP3 DUP2 MSTORE PUSH1 0x20 DUP2 ADD DUP5 DUP5 DUP5 ADD GT ISZERO PUSH2 0x1690 JUMPI PUSH2 0x168F PUSH2 0x1FFE JUMP JUMPDEST JUMPDEST PUSH2 0x169B DUP5 DUP3 DUP6 PUSH2 0x1EC2 JUMP JUMPDEST POP SWAP4 SWAP3 POP POP POP JUMP JUMPDEST PUSH1 0x0 DUP2 CALLDATALOAD SWAP1 POP PUSH2 0x16B2 DUP2 PUSH2 0x201E JUMP JUMPDEST SWAP3 SWAP2 POP POP JUMP JUMPDEST PUSH1 0x0 DUP3 PUSH1 0x1F DUP4 ADD SLT PUSH2 0x16CD JUMPI PUSH2 0x16CC PUSH2 0x1FF4 JUMP JUMPDEST JUMPDEST DUP2 CALLDATALOAD PUSH2 0x16DD DUP5 DUP3 PUSH1 0x20 DUP7 ADD PUSH2 0x15D3 JUMP JUMPDEST SWAP2 POP POP SWAP3 SWAP2 POP POP JUMP JUMPDEST PUSH1 0x0 DUP3 PUSH1 0x1F DUP4 ADD SLT PUSH2 0x16FB JUMPI PUSH2 0x16FA PUSH2 0x1FF4 JUMP JUMPDEST JUMPDEST DUP2 CALLDATALOAD PUSH2 0x170B DUP5 DUP3 PUSH1 0x20 DUP7 ADD PUSH2 0x1661 JUMP JUMPDEST SWAP2 POP POP SWAP3 SWAP2 POP POP JUMP JUMPDEST PUSH1 0x0 PUSH1 0x20 DUP3 DUP5 SUB SLT ISZERO PUSH2 0x172A JUMPI PUSH2 0x1729 PUSH2 0x2008 JUMP JUMPDEST JUMPDEST PUSH1 0x0 PUSH2 0x1738 DUP5 DUP3 DUP6 ADD PUSH2 0x16A3 JUMP JUMPDEST SWAP2 POP POP SWAP3 SWAP2 POP POP JUMP JUMPDEST PUSH1 0x0 DUP1 PUSH1 0x0 PUSH1 0x60 DUP5 DUP7 SUB SLT ISZERO PUSH2 0x175A JUMPI PUSH2 0x1759 PUSH2 0x2008 JUMP JUMPDEST JUMPDEST PUSH1 0x0 DUP5 ADD CALLDATALOAD PUSH8 0xFFFFFFFFFFFFFFFF DUP2 GT ISZERO PUSH2 0x1778 JUMPI PUSH2 0x1777 PUSH2 0x2003 JUMP JUMPDEST JUMPDEST PUSH2 0x1784 DUP7 DUP3 DUP8 ADD PUSH2 0x16B8 JUMP JUMPDEST SWAP4 POP POP PUSH1 0x20 DUP5 ADD CALLDATALOAD PUSH8 0xFFFFFFFFFFFFFFFF DUP2 GT ISZERO PUSH2 0x17A5 JUMPI PUSH2 0x17A4 PUSH2 0x2003 JUMP JUMPDEST JUMPDEST PUSH2 0x17B1 DUP7 DUP3 DUP8 ADD PUSH2 0x16B8 JUMP JUMPDEST SWAP3 POP POP PUSH1 0x40 DUP5 ADD CALLDATALOAD PUSH8 0xFFFFFFFFFFFFFFFF DUP2 GT ISZERO PUSH2 0x17D2 JUMPI PUSH2 0x17D1 PUSH2 0x2003 JUMP JUMPDEST JUMPDEST PUSH2 0x17DE DUP7 DUP3 DUP8 ADD PUSH2 0x16B8 JUMP JUMPDEST SWAP2 POP POP SWAP3 POP SWAP3 POP SWAP3 JUMP JUMPDEST PUSH1 0x0 DUP1 PUSH1 0x0 PUSH1 0x60 DUP5 DUP7 SUB SLT ISZERO PUSH2 0x1801 JUMPI PUSH2 0x1800 PUSH2 0x2008 JUMP JUMPDEST JUMPDEST PUSH1 0x0 DUP5 ADD CALLDATALOAD PUSH8 0xFFFFFFFFFFFFFFFF DUP2 GT ISZERO PUSH2 0x181F JUMPI PUSH2 0x181E PUSH2 0x2003 JUMP JUMPDEST JUMPDEST PUSH2 0x182B DUP7 DUP3 DUP8 ADD PUSH2 0x16E6 JUMP JUMPDEST SWAP4 POP POP PUSH1 0x20 DUP5 ADD CALLDATALOAD PUSH8 0xFFFFFFFFFFFFFFFF DUP2 GT ISZERO PUSH2 0x184C JUMPI PUSH2 0x184B PUSH2 0x2003 JUMP JUMPDEST JUMPDEST PUSH2 0x1858 DUP7 DUP3 DUP8 ADD PUSH2 0x16E6 JUMP JUMPDEST SWAP3 POP POP PUSH1 0x40 DUP5 ADD CALLDATALOAD PUSH8 0xFFFFFFFFFFFFFFFF DUP2 GT ISZERO PUSH2 0x1879 JUMPI PUSH2 0x1878 PUSH2 0x2003 JUMP JUMPDEST JUMPDEST PUSH2 0x1885 DUP7 DUP3 DUP8 ADD PUSH2 0x16E6 JUMP JUMPDEST SWAP2 POP POP SWAP3 POP SWAP3 POP SWAP3 JUMP JUMPDEST PUSH1 0x0 DUP1 PUSH1 0x0 DUP1 PUSH1 0x80 DUP6 DUP8 SUB SLT ISZERO PUSH2 0x18A9 JUMPI PUSH2 0x18A8 PUSH2 0x2008 JUMP JUMPDEST JUMPDEST PUSH1 0x0 DUP6 ADD CALLDATALOAD PUSH8 0xFFFFFFFFFFFFFFFF DUP2 GT ISZERO PUSH2 0x18C7 JUMPI PUSH2 0x18C6 PUSH2 0x2003 JUMP JUMPDEST JUMPDEST PUSH2 0x18D3 DUP8 DUP3 DUP9 ADD PUSH2 0x16E6 JUMP JUMPDEST SWAP5 POP POP PUSH1 0x20 DUP6 ADD CALLDATALOAD PUSH8 0xFFFFFFFFFFFFFFFF DUP2 GT ISZERO PUSH2 0x18F4 JUMPI PUSH2 0x18F3 PUSH2 0x2003 JUMP JUMPDEST JUMPDEST PUSH2 0x1900 DUP8 DUP3 DUP9 ADD PUSH2 0x16E6 JUMP JUMPDEST SWAP4 POP POP PUSH1 0x40 DUP6 ADD CALLDATALOAD PUSH8 0xFFFFFFFFFFFFFFFF DUP2 GT ISZERO PUSH2 0x1921 JUMPI PUSH2 0x1920 PUSH2 0x2003 JUMP JUMPDEST JUMPDEST PUSH2 0x192D DUP8 DUP3 DUP9 ADD PUSH2 0x16E6 JUMP JUMPDEST SWAP3 POP POP PUSH1 0x60 DUP6 ADD CALLDATALOAD PUSH8 0xFFFFFFFFFFFFFFFF DUP2 GT ISZERO PUSH2 0x194E JUMPI PUSH2 0x194D PUSH2 0x2003 JUMP JUMPDEST JUMPDEST PUSH2 0x195A DUP8 DUP3 DUP9 ADD PUSH2 0x16E6 JUMP JUMPDEST SWAP2 POP POP SWAP3 SWAP6 SWAP2 SWAP5 POP SWAP3 POP JUMP JUMPDEST PUSH1 0x0 DUP1 PUSH1 0x0 DUP1 PUSH1 0x0 PUSH1 0xA0 DUP7 DUP9 SUB SLT ISZERO PUSH2 0x1982 JUMPI PUSH2 0x1981 PUSH2 0x2008 JUMP JUMPDEST JUMPDEST PUSH1 0x0 DUP7 ADD CALLDATALOAD PUSH8 0xFFFFFFFFFFFFFFFF DUP2 GT ISZERO PUSH2 0x19A0 JUMPI PUSH2 0x199F PUSH2 0x2003 JUMP JUMPDEST JUMPDEST PUSH2 0x19AC DUP9 DUP3 DUP10 ADD PUSH2 0x16E6 JUMP JUMPDEST SWAP6 POP POP PUSH1 0x20 DUP7 ADD CALLDATALOAD PUSH8 0xFFFFFFFFFFFFFFFF DUP2 GT ISZERO PUSH2 0x19CD JUMPI PUSH2 0x19CC PUSH2 0x2003 JUMP JUMPDEST JUMPDEST PUSH2 0x19D9 DUP9 DUP3 DUP10 ADD PUSH2 0x16E6 JUMP JUMPDEST SWAP5 POP POP PUSH1 0x40 DUP7 ADD CALLDATALOAD PUSH8 0xFFFFFFFFFFFFFFFF DUP2 GT ISZERO PUSH2 0x19FA JUMPI PUSH2 0x19F9 PUSH2 0x2003 JUMP JUMPDEST JUMPDEST PUSH2 0x1A06 DUP9 DUP3 DUP10 ADD PUSH2 0x16E6 JUMP JUMPDEST SWAP4 POP POP PUSH1 0x60 DUP7 ADD CALLDATALOAD PUSH8 0xFFFFFFFFFFFFFFFF DUP2 GT ISZERO PUSH2 0x1A27 JUMPI PUSH2 0x1A26 PUSH2 0x2003 JUMP JUMPDEST JUMPDEST PUSH2 0x1A33 DUP9 DUP3 DUP10 ADD PUSH2 0x16E6 JUMP JUMPDEST SWAP3 POP POP PUSH1 0x80 DUP7 ADD CALLDATALOAD PUSH8 0xFFFFFFFFFFFFFFFF DUP2 GT ISZERO PUSH2 0x1A54 JUMPI PUSH2 0x1A53 PUSH2 0x2003 JUMP JUMPDEST JUMPDEST PUSH2 0x1A60 DUP9 DUP3 DUP10 ADD PUSH2 0x16E6 JUMP JUMPDEST SWAP2 POP POP SWAP3 SWAP6 POP SWAP3 SWAP6 SWAP1 SWAP4 POP JUMP JUMPDEST PUSH1 0x0 PUSH2 0x1A79 DUP4 DUP4 PUSH2 0x1B05 JUMP JUMPDEST SWAP1 POP SWAP3 SWAP2 POP POP JUMP JUMPDEST PUSH2 0x1A8A DUP2 PUSH2 0x1E86 JUMP JUMPDEST DUP3 MSTORE POP POP JUMP JUMPDEST PUSH1 0x0 PUSH2 0x1A9B DUP3 PUSH2 0x1E30 JUMP JUMPDEST PUSH2 0x1AA5 DUP2 DUP6 PUSH2 0x1E53 JUMP JUMPDEST SWAP4 POP DUP4 PUSH1 0x20 DUP3 MUL DUP6 ADD PUSH2 0x1AB7 DUP6 PUSH2 0x1E20 JUMP JUMPDEST DUP1 PUSH1 0x0 JUMPDEST DUP6 DUP2 LT ISZERO PUSH2 0x1AF3 JUMPI DUP5 DUP5 SUB DUP10 MSTORE DUP2 MLOAD PUSH2 0x1AD4 DUP6 DUP3 PUSH2 0x1A6D JUMP JUMPDEST SWAP5 POP PUSH2 0x1ADF DUP4 PUSH2 0x1E46 JUMP JUMPDEST SWAP3 POP PUSH1 0x20 DUP11 ADD SWAP10 POP POP PUSH1 0x1 DUP2 ADD SWAP1 POP PUSH2 0x1ABB JUMP JUMPDEST POP DUP3 SWAP8 POP DUP8 SWAP6 POP POP POP POP POP POP SWAP3 SWAP2 POP POP JUMP JUMPDEST PUSH1 0x0 PUSH2 0x1B10 DUP3 PUSH2 0x1E3B JUMP JUMPDEST PUSH2 0x1B1A DUP2 DUP6 PUSH2 0x1E64 JUMP JUMPDEST SWAP4 POP PUSH2 0x1B2A DUP2 DUP6 PUSH1 0x20 DUP7 ADD PUSH2 0x1ED1 JUMP JUMPDEST PUSH2 0x1B33 DUP2 PUSH2 0x200D JUMP JUMPDEST DUP5 ADD SWAP2 POP POP SWAP3 SWAP2 POP POP JUMP JUMPDEST PUSH1 0x0 PUSH2 0x1B49 DUP3 PUSH2 0x1E3B JUMP JUMPDEST PUSH2 0x1B53 DUP2 DUP6 PUSH2 0x1E75 JUMP JUMPDEST SWAP4 POP PUSH2 0x1B63 DUP2 DUP6 PUSH1 0x20 DUP7 ADD PUSH2 0x1ED1 JUMP JUMPDEST PUSH2 0x1B6C DUP2 PUSH2 0x200D JUMP JUMPDEST DUP5 ADD SWAP2 POP POP SWAP3 SWAP2 POP POP JUMP JUMPDEST PUSH1 0x0 PUSH1 0xA0 DUP4 ADD PUSH1 0x0 DUP4 ADD MLOAD DUP5 DUP3 SUB PUSH1 0x0 DUP7 ADD MSTORE PUSH2 0x1B94 DUP3 DUP3 PUSH2 0x1B05 JUMP JUMPDEST SWAP2 POP POP PUSH1 0x20 DUP4 ADD MLOAD DUP5 DUP3 SUB PUSH1 0x20 DUP7 ADD MSTORE PUSH2 0x1BAE DUP3 DUP3 PUSH2 0x1B05 JUMP JUMPDEST SWAP2 POP POP PUSH1 0x40 DUP4 ADD MLOAD DUP5 DUP3 SUB PUSH1 0x40 DUP7 ADD MSTORE PUSH2 0x1BC8 DUP3 DUP3 PUSH2 0x1B05 JUMP JUMPDEST SWAP2 POP POP PUSH1 0x60 DUP4 ADD MLOAD DUP5 DUP3 SUB PUSH1 0x60 DUP7 ADD MSTORE PUSH2 0x1BE2 DUP3 DUP3 PUSH2 0x1B05 JUMP JUMPDEST SWAP2 POP POP PUSH1 0x80 DUP4 ADD MLOAD DUP5 DUP3 SUB PUSH1 0x80 DUP7 ADD MSTORE PUSH2 0x1BFC DUP3 DUP3 PUSH2 0x1B05 JUMP JUMPDEST SWAP2 POP POP DUP1 SWAP2 POP POP SWAP3 SWAP2 POP POP JUMP JUMPDEST PUSH1 0x0 PUSH1 0x60 DUP4 ADD PUSH1 0x0 DUP4 ADD MLOAD DUP5 DUP3 SUB PUSH1 0x0 DUP7 ADD MSTORE PUSH2 0x1C26 DUP3 DUP3 PUSH2 0x1B05 JUMP JUMPDEST SWAP2 POP POP PUSH1 0x20 DUP4 ADD MLOAD DUP5 DUP3 SUB PUSH1 0x20 DUP7 ADD MSTORE PUSH2 0x1C40 DUP3 DUP3 PUSH2 0x1B05 JUMP JUMPDEST SWAP2 POP POP PUSH1 0x40 DUP4 ADD MLOAD DUP5 DUP3 SUB PUSH1 0x40 DUP7 ADD MSTORE PUSH2 0x1C5A DUP3 DUP3 PUSH2 0x1B05 JUMP JUMPDEST SWAP2 POP POP DUP1 SWAP2 POP POP SWAP3 SWAP2 POP POP JUMP JUMPDEST PUSH1 0x0 PUSH1 0x60 DUP4 ADD PUSH1 0x0 DUP4 ADD MLOAD DUP5 DUP3 SUB PUSH1 0x0 DUP7 ADD MSTORE PUSH2 0x1C84 DUP3 DUP3 PUSH2 0x1A90 JUMP JUMPDEST SWAP2 POP POP PUSH1 0x20 DUP4 ADD MLOAD DUP5 DUP3 SUB PUSH1 0x20 DUP7 ADD MSTORE PUSH2 0x1C9E DUP3 DUP3 PUSH2 0x1A90 JUMP JUMPDEST SWAP2 POP POP PUSH1 0x40 DUP4 ADD MLOAD DUP5 DUP3 SUB PUSH1 0x40 DUP7 ADD MSTORE PUSH2 0x1CB8 DUP3 DUP3 PUSH2 0x1A90 JUMP JUMPDEST SWAP2 POP POP DUP1 SWAP2 POP POP SWAP3 SWAP2 POP POP JUMP JUMPDEST PUSH2 0x1CCE DUP2 PUSH2 0x1EB8 JUMP JUMPDEST DUP3 MSTORE POP POP JUMP JUMPDEST PUSH1 0x0 PUSH2 0x100 DUP3 ADD SWAP1 POP PUSH2 0x1CEA PUSH1 0x0 DUP4 ADD DUP12 PUSH2 0x1A81 JUMP JUMPDEST DUP2 DUP2 SUB PUSH1 0x20 DUP4 ADD MSTORE PUSH2 0x1CFC DUP2 DUP11 PUSH2 0x1B3E JUMP JUMPDEST SWAP1 POP DUP2 DUP2 SUB PUSH1 0x40 DUP4 ADD MSTORE PUSH2 0x1D10 DUP2 DUP10 PUSH2 0x1B3E JUMP JUMPDEST SWAP1 POP DUP2 DUP2 SUB PUSH1 0x60 DUP4 ADD MSTORE PUSH2 0x1D24 DUP2 DUP9 PUSH2 0x1B3E JUMP JUMPDEST SWAP1 POP DUP2 DUP2 SUB PUSH1 0x80 DUP4 ADD MSTORE PUSH2 0x1D38 DUP2 DUP8 PUSH2 0x1B3E JUMP JUMPDEST SWAP1 POP PUSH2 0x1D47 PUSH1 0xA0 DUP4 ADD DUP7 PUSH2 0x1CC5 JUMP JUMPDEST DUP2 DUP2 SUB PUSH1 0xC0 DUP4 ADD MSTORE PUSH2 0x1D59 DUP2 DUP6 PUSH2 0x1B77 JUMP JUMPDEST SWAP1 POP DUP2 DUP2 SUB PUSH1 0xE0 DUP4 ADD MSTORE PUSH2 0x1D6D DUP2 DUP5 PUSH2 0x1C67 JUMP JUMPDEST SWAP1 POP SWAP10 SWAP9 POP POP POP POP POP POP POP POP POP JUMP JUMPDEST PUSH1 0x0 PUSH1 0x20 DUP3 ADD SWAP1 POP DUP2 DUP2 SUB PUSH1 0x0 DUP4 ADD MSTORE PUSH2 0x1D96 DUP2 DUP5 PUSH2 0x1C09 JUMP JUMPDEST SWAP1 POP SWAP3 SWAP2 POP POP JUMP JUMPDEST PUSH1 0x0 PUSH2 0x1DA8 PUSH2 0x1DB9 JUMP JUMPDEST SWAP1 POP PUSH2 0x1DB4 DUP3 DUP3 PUSH2 0x1F36 JUMP JUMPDEST SWAP2 SWAP1 POP JUMP JUMPDEST PUSH1 0x0 PUSH1 0x40 MLOAD SWAP1 POP SWAP1 JUMP JUMPDEST PUSH1 0x0 PUSH8 0xFFFFFFFFFFFFFFFF DUP3 GT ISZERO PUSH2 0x1DDE JUMPI PUSH2 0x1DDD PUSH2 0x1FC5 JUMP JUMPDEST JUMPDEST PUSH1 0x20 DUP3 MUL SWAP1 POP PUSH1 0x20 DUP2 ADD SWAP1 POP SWAP2 SWAP1 POP JUMP JUMPDEST PUSH1 0x0 PUSH8 0xFFFFFFFFFFFFFFFF DUP3 GT ISZERO PUSH2 0x1E0A JUMPI PUSH2 0x1E09 PUSH2 0x1FC5 JUMP JUMPDEST JUMPDEST PUSH2 0x1E13 DUP3 PUSH2 0x200D JUMP JUMPDEST SWAP1 POP PUSH1 0x20 DUP2 ADD SWAP1 POP SWAP2 SWAP1 POP JUMP JUMPDEST PUSH1 0x0 DUP2 SWAP1 POP PUSH1 0x20 DUP3 ADD SWAP1 POP SWAP2 SWAP1 POP JUMP JUMPDEST PUSH1 0x0 DUP2 MLOAD SWAP1 POP SWAP2 SWAP1 POP JUMP JUMPDEST PUSH1 0x0 DUP2 MLOAD SWAP1 POP SWAP2 SWAP1 POP JUMP JUMPDEST PUSH1 0x0 PUSH1 0x20 DUP3 ADD SWAP1 POP SWAP2 SWAP1 POP JUMP JUMPDEST PUSH1 0x0 DUP3 DUP3 MSTORE PUSH1 0x20 DUP3 ADD SWAP1 POP SWAP3 SWAP2 POP POP JUMP JUMPDEST PUSH1 0x0 DUP3 DUP3 MSTORE PUSH1 0x20 DUP3 ADD SWAP1 POP SWAP3 SWAP2 POP POP JUMP JUMPDEST PUSH1 0x0 DUP3 DUP3 MSTORE PUSH1 0x20 DUP3 ADD SWAP1 POP SWAP3 SWAP2 POP POP JUMP JUMPDEST PUSH1 0x0 PUSH2 0x1E91 DUP3 PUSH2 0x1E98 JUMP JUMPDEST SWAP1 POP SWAP2 SWAP1 POP JUMP JUMPDEST PUSH1 0x0 PUSH20 0xFFFFFFFFFFFFFFFFFFFFFFFFFFFFFFFFFFFFFFFF DUP3 AND SWAP1 POP SWAP2 SWAP1 POP JUMP JUMPDEST PUSH1 0x0 DUP2 SWAP1 POP SWAP2 SWAP1 POP JUMP JUMPDEST DUP3 DUP2 DUP4 CALLDATACOPY PUSH1 0x0 DUP4 DUP4 ADD MSTORE POP POP POP JUMP JUMPDEST PUSH1 0x0 JUMPDEST DUP4 DUP2 LT ISZERO PUSH2 0x1EEF JUMPI DUP1 DUP3 ADD MLOAD DUP2 DUP5 ADD MSTORE PUSH1 0x20 DUP2 ADD SWAP1 POP PUSH2 0x1ED4 JUMP JUMPDEST DUP4 DUP2 GT ISZERO PUSH2 0x1EFE JUMPI PUSH1 0x0 DUP5 DUP5 ADD MSTORE JUMPDEST POP POP POP POP JUMP JUMPDEST PUSH1 0x0 PUSH1 0x2 DUP3 DIV SWAP1 POP PUSH1 0x1 DUP3 AND DUP1 PUSH2 0x1F1C JUMPI PUSH1 0x7F DUP3 AND SWAP2 POP JUMPDEST PUSH1 0x20 DUP3 LT DUP2 EQ ISZERO PUSH2 0x1F30 JUMPI PUSH2 0x1F2F PUSH2 0x1F67 JUMP JUMPDEST JUMPDEST POP SWAP2 SWAP1 POP JUMP JUMPDEST PUSH2 0x1F3F DUP3 PUSH2 0x200D JUMP JUMPDEST DUP2 ADD DUP2 DUP2 LT PUSH8 0xFFFFFFFFFFFFFFFF DUP3 GT OR ISZERO PUSH2 0x1F5E JUMPI PUSH2 0x1F5D PUSH2 0x1FC5 JUMP JUMPDEST JUMPDEST DUP1 PUSH1 0x40 MSTORE POP POP POP JUMP JUMPDEST PUSH32 0x4E487B7100000000000000000000000000000000000000000000000000000000 PUSH1 0x0 MSTORE PUSH1 0x22 PUSH1 0x4 MSTORE PUSH1 0x24 PUSH1 0x0 REVERT JUMPDEST PUSH32 0x4E487B7100000000000000000000000000000000000000000000000000000000 PUSH1 0x0 MSTORE PUSH1 0x32 PUSH1 0x4 MSTORE PUSH1 0x24 PUSH1 0x0 REVERT JUMPDEST PUSH32 0x4E487B7100000000000000000000000000000000000000000000000000000000 PUSH1 0x0 MSTORE PUSH1 0x41 PUSH1 0x4 MSTORE PUSH1 0x24 PUSH1 0x0 REVERT JUMPDEST PUSH1 0x0 DUP1 REVERT JUMPDEST PUSH1 0x0 DUP1 REVERT JUMPDEST PUSH1 0x0 DUP1 REVERT JUMPDEST PUSH1 0x0 DUP1 REVERT JUMPDEST PUSH1 0x0 DUP1 REVERT JUMPDEST PUSH1 0x0 PUSH1 0x1F NOT PUSH1 0x1F DUP4 ADD AND SWAP1 POP SWAP2 SWAP1 POP JUMP JUMPDEST PUSH2 0x2027 DUP2 PUSH2 0x1E86 JUMP JUMPDEST DUP2 EQ PUSH2 0x2032 JUMPI PUSH1 0x0 DUP1 REVERT JUMPDEST POP JUMP INVALID LOG2 PUSH5 0x6970667358 0x22 SLT KECCAK256 GAS 0xD 0xDD SWAP10 DUP6 0xE8 DUP9 SHL SWAP3 PUSH3 0xE190A SWAP10 PUSH19 0x210FA53AC4A7E34A7696A10FE1867901C26473 PUSH16 0x6C634300080700330000000000000000 "
				},
				"gasEstimates": {
					"creation": {
						"codeDepositCost": "1659800",
						"executionCost": "1743",
						"totalCost": "1661543"
					},
					"external": {
						"createBio(string,string,string,string)": "infinite",
						"createContract(string,string,string,string,string)": "infinite",
						"createSkill(string[],string[],string[])": "infinite",
						"createUnivercity(string,string,string)": "infinite",
						"delProfile()": "infinite",
						"getEducation()": "infinite",
						"profile(address)": "infinite"
					}
				},
				"methodIdentifiers": {
					"createBio(string,string,string,string)": "8c241fc4",
					"createContract(string,string,string,string,string)": "72828388",
					"createSkill(string[],string[],string[])": "3d984d0e",
					"createUnivercity(string,string,string)": "dc6d6a83",
					"delProfile()": "fabce08f",
					"getEducation()": "1c41e2db",
					"profile(address)": "9dd9d0fd"
				}
			},
			"storageLayout": {
				"storage": [
					{
						"astId": 29,
						"contract": "contracts/Profile.sol:Profile",
						"label": "profile",
						"offset": 0,
						"slot": "0",
						"type": "t_mapping(t_address,t_struct(Bio)24_storage)"
					}
				],
				"types": {
					"t_address": {
						"encoding": "inplace",
						"label": "address",
						"numberOfBytes": "20"
					},
					"t_array(t_string_storage)dyn_storage": {
						"base": "t_string_storage",
						"encoding": "dynamic_array",
						"label": "string[]",
						"numberOfBytes": "32"
					},
					"t_array(t_struct(Education)57_storage)dyn_storage": {
						"base": "t_struct(Education)57_storage",
						"encoding": "dynamic_array",
						"label": "struct Profile.Education[]",
						"numberOfBytes": "32"
					},
					"t_mapping(t_address,t_struct(Bio)24_storage)": {
						"encoding": "mapping",
						"key": "t_address",
						"label": "mapping(address => struct Profile.Bio)",
						"numberOfBytes": "32",
						"value": "t_struct(Bio)24_storage"
					},
					"t_string_storage": {
						"encoding": "bytes",
						"label": "string",
						"numberOfBytes": "32"
					},
					"t_struct(Bio)24_storage": {
						"encoding": "inplace",
						"label": "struct Profile.Bio",
						"members": [
							{
								"astId": 3,
								"contract": "contracts/Profile.sol:Profile",
								"label": "userAddress",
								"offset": 0,
								"slot": "0",
								"type": "t_address"
							},
							{
								"astId": 5,
								"contract": "contracts/Profile.sol:Profile",
								"label": "firstName",
								"offset": 0,
								"slot": "1",
								"type": "t_string_storage"
							},
							{
								"astId": 7,
								"contract": "contracts/Profile.sol:Profile",
								"label": "middleName",
								"offset": 0,
								"slot": "2",
								"type": "t_string_storage"
							},
							{
								"astId": 9,
								"contract": "contracts/Profile.sol:Profile",
								"label": "lastName",
								"offset": 0,
								"slot": "3",
								"type": "t_string_storage"
							},
							{
								"astId": 11,
								"contract": "contracts/Profile.sol:Profile",
								"label": "profileImage",
								"offset": 0,
								"slot": "4",
								"type": "t_string_storage"
							},
							{
								"astId": 13,
								"contract": "contracts/Profile.sol:Profile",
								"label": "createDate",
								"offset": 0,
								"slot": "5",
								"type": "t_uint256"
							},
							{
								"astId": 16,
								"contract": "contracts/Profile.sol:Profile",
								"label": "privateContract",
								"offset": 0,
								"slot": "6",
								"type": "t_struct(Contract)40_storage"
							},
							{
								"astId": 19,
								"contract": "contracts/Profile.sol:Profile",
								"label": "skill",
								"offset": 0,
								"slot": "11",
								"type": "t_struct(Skill)50_storage"
							},
							{
								"astId": 23,
								"contract": "contracts/Profile.sol:Profile",
								"label": "education",
								"offset": 0,
								"slot": "14",
								"type": "t_array(t_struct(Education)57_storage)dyn_storage"
							}
						],
						"numberOfBytes": "480"
					},
					"t_struct(Contract)40_storage": {
						"encoding": "inplace",
						"label": "struct Profile.Contract",
						"members": [
							{
								"astId": 31,
								"contract": "contracts/Profile.sol:Profile",
								"label": "email",
								"offset": 0,
								"slot": "0",
								"type": "t_string_storage"
							},
							{
								"astId": 33,
								"contract": "contracts/Profile.sol:Profile",
								"label": "phone",
								"offset": 0,
								"slot": "1",
								"type": "t_string_storage"
							},
							{
								"astId": 35,
								"contract": "contracts/Profile.sol:Profile",
								"label": "github",
								"offset": 0,
								"slot": "2",
								"type": "t_string_storage"
							},
							{
								"astId": 37,
								"contract": "contracts/Profile.sol:Profile",
								"label": "gitlab",
								"offset": 0,
								"slot": "3",
								"type": "t_string_storage"
							},
							{
								"astId": 39,
								"contract": "contracts/Profile.sol:Profile",
								"label": "linkin",
								"offset": 0,
								"slot": "4",
								"type": "t_string_storage"
							}
						],
						"numberOfBytes": "160"
					},
					"t_struct(Education)57_storage": {
						"encoding": "inplace",
						"label": "struct Profile.Education",
						"members": [
							{
								"astId": 52,
								"contract": "contracts/Profile.sol:Profile",
								"label": "startDate",
								"offset": 0,
								"slot": "0",
								"type": "t_string_storage"
							},
							{
								"astId": 54,
								"contract": "contracts/Profile.sol:Profile",
								"label": "endDate",
								"offset": 0,
								"slot": "1",
								"type": "t_string_storage"
							},
							{
								"astId": 56,
								"contract": "contracts/Profile.sol:Profile",
								"label": "univercity",
								"offset": 0,
								"slot": "2",
								"type": "t_string_storage"
							}
						],
						"numberOfBytes": "96"
					},
					"t_struct(Skill)50_storage": {
						"encoding": "inplace",
						"label": "struct Profile.Skill",
						"members": [
							{
								"astId": 43,
								"contract": "contracts/Profile.sol:Profile",
								"label": "frontend",
								"offset": 0,
								"slot": "0",
								"type": "t_array(t_string_storage)dyn_storage"
							},
							{
								"astId": 46,
								"contract": "contracts/Profile.sol:Profile",
								"label": "backend",
								"offset": 0,
								"slot": "1",
								"type": "t_array(t_string_storage)dyn_storage"
							},
							{
								"astId": 49,
								"contract": "contracts/Profile.sol:Profile",
								"label": "framework",
								"offset": 0,
								"slot": "2",
								"type": "t_array(t_string_storage)dyn_storage"
							}
						],
						"numberOfBytes": "96"
					},
					"t_uint256": {
						"encoding": "inplace",
						"label": "uint256",
						"numberOfBytes": "32"
					}
				}
			},
			"userdoc": {
				"kind": "user",
				"methods": {},
				"version": 1
			}
		}
	}
}