{
	"contracts/Profile.sol": {
		"Profile": {
			"abi": [
				{
					"inputs": [
						{
							"internalType": "string",
							"name": "firstName",
							"type": "string"
						},
						{
							"internalType": "string",
							"name": "middleName",
							"type": "string"
						},
						{
							"internalType": "string",
							"name": "lastName",
							"type": "string"
						},
						{
							"internalType": "string",
							"name": "email",
							"type": "string"
						},
						{
							"internalType": "string",
							"name": "phone",
							"type": "string"
						},
						{
							"internalType": "string",
							"name": "profileImage",
							"type": "string"
						},
						{
							"internalType": "string[]",
							"name": "frontend",
							"type": "string[]"
						},
						{
							"internalType": "string[]",
							"name": "backend",
							"type": "string[]"
						},
						{
							"internalType": "string[]",
							"name": "framework",
							"type": "string[]"
						}
					],
					"name": "addBio",
					"outputs": [],
					"stateMutability": "nonpayable",
					"type": "function"
				},
				{
					"inputs": [],
					"name": "addSkill",
					"outputs": [],
					"stateMutability": "nonpayable",
					"type": "function"
				},
				{
					"inputs": [],
					"name": "delProfile",
					"outputs": [],
					"stateMutability": "nonpayable",
					"type": "function"
				},
				{
					"inputs": [
						{
							"internalType": "address",
							"name": "",
							"type": "address"
						}
					],
					"name": "profile",
					"outputs": [
						{
							"internalType": "address",
							"name": "userAddress",
							"type": "address"
						},
						{
							"internalType": "string",
							"name": "firstName",
							"type": "string"
						},
						{
							"internalType": "string",
							"name": "middleName",
							"type": "string"
						},
						{
							"internalType": "string",
							"name": "lastName",
							"type": "string"
						},
						{
							"internalType": "string",
							"name": "profileImage",
							"type": "string"
						},
						{
							"internalType": "uint256",
							"name": "createDate",
							"type": "uint256"
						},
						{
							"internalType": "string",
							"name": "education",
							"type": "string"
						},
						{
							"components": [
								{
									"internalType": "string",
									"name": "email",
									"type": "string"
								},
								{
									"internalType": "string",
									"name": "phone",
									"type": "string"
								},
								{
									"internalType": "string",
									"name": "github",
									"type": "string"
								},
								{
									"internalType": "string",
									"name": "gitlab",
									"type": "string"
								},
								{
									"internalType": "string",
									"name": "linkin",
									"type": "string"
								}
							],
							"internalType": "struct Profile.Contract",
							"name": "privateContract",
							"type": "tuple"
						},
						{
							"components": [
								{
									"internalType": "string[]",
									"name": "frontend",
									"type": "string[]"
								},
								{
									"internalType": "string[]",
									"name": "backend",
									"type": "string[]"
								},
								{
									"internalType": "string[]",
									"name": "framework",
									"type": "string[]"
								}
							],
							"internalType": "struct Profile.Skill",
							"name": "skill",
							"type": "tuple"
						}
					],
					"stateMutability": "view",
					"type": "function"
				}
			],
			"devdoc": {
				"kind": "dev",
				"methods": {},
				"version": 1
			},
			"evm": {
				"assembly": "    /* \"contracts/Profile.sol\":60:1830  contract Profile {\r... */\n  mstore(0x40, 0x80)\n  callvalue\n  dup1\n  iszero\n  tag_1\n  jumpi\n  0x00\n  dup1\n  revert\ntag_1:\n  pop\n  dataSize(sub_0)\n  dup1\n  dataOffset(sub_0)\n  0x00\n  codecopy\n  0x00\n  return\nstop\n\nsub_0: assembly {\n        /* \"contracts/Profile.sol\":60:1830  contract Profile {\r... */\n      mstore(0x40, 0x80)\n      callvalue\n      dup1\n      iszero\n      tag_1\n      jumpi\n      0x00\n      dup1\n      revert\n    tag_1:\n      pop\n      jumpi(tag_2, lt(calldatasize, 0x04))\n      shr(0xe0, calldataload(0x00))\n      dup1\n      0x9dd9d0fd\n      eq\n      tag_3\n      jumpi\n      dup1\n      0xc093e9a6\n      eq\n      tag_4\n      jumpi\n      dup1\n      0xca679f1d\n      eq\n      tag_5\n      jumpi\n      dup1\n      0xfabce08f\n      eq\n      tag_6\n      jumpi\n    tag_2:\n      0x00\n      dup1\n      revert\n        /* \"contracts/Profile.sol\":365:405  mapping (address => Bio) public  profile */\n    tag_3:\n      tag_7\n      0x04\n      dup1\n      calldatasize\n      sub\n      dup2\n      add\n      swap1\n      tag_8\n      swap2\n      swap1\n      tag_9\n      jump\t// in\n    tag_8:\n      tag_10\n      jump\t// in\n    tag_7:\n      mload(0x40)\n      tag_11\n      swap10\n      swap9\n      swap8\n      swap7\n      swap6\n      swap5\n      swap4\n      swap3\n      swap2\n      swap1\n      tag_12\n      jump\t// in\n    tag_11:\n      mload(0x40)\n      dup1\n      swap2\n      sub\n      swap1\n      return\n        /* \"contracts/Profile.sol\":1700:1736  function addSkill() public{\r... */\n    tag_4:\n      tag_13\n      tag_14\n      jump\t// in\n    tag_13:\n      stop\n        /* \"contracts/Profile.sol\":817:1692  function addBio(string memory firstName, string memory middleName, string memory lastName, string memory email, string memory phone, string memory profileImage, string[] memory frontend, string[] memory backend, string[] memory framework) public {\r... */\n    tag_5:\n      tag_15\n      0x04\n      dup1\n      calldatasize\n      sub\n      dup2\n      add\n      swap1\n      tag_16\n      swap2\n      swap1\n      tag_17\n      jump\t// in\n    tag_16:\n      tag_18\n      jump\t// in\n    tag_15:\n      stop\n        /* \"contracts/Profile.sol\":1749:1823  function delProfile() public {\r... */\n    tag_6:\n      tag_19\n      tag_20\n      jump\t// in\n    tag_19:\n      stop\n        /* \"contracts/Profile.sol\":365:405  mapping (address => Bio) public  profile */\n    tag_10:\n      mstore(0x20, 0x00)\n      dup1\n      0x00\n      mstore\n      keccak256(0x00, 0x40)\n      0x00\n      swap2\n      pop\n      swap1\n      pop\n      dup1\n      0x00\n      add\n      0x00\n      swap1\n      sload\n      swap1\n      0x0100\n      exp\n      swap1\n      div\n      0xffffffffffffffffffffffffffffffffffffffff\n      and\n      swap1\n      dup1\n      0x01\n      add\n      dup1\n      sload\n      tag_21\n      swap1\n      tag_22\n      jump\t// in\n    tag_21:\n      dup1\n      0x1f\n      add\n      0x20\n      dup1\n      swap2\n      div\n      mul\n      0x20\n      add\n      mload(0x40)\n      swap1\n      dup2\n      add\n      0x40\n      mstore\n      dup1\n      swap3\n      swap2\n      swap1\n      dup2\n      dup2\n      mstore\n      0x20\n      add\n      dup3\n      dup1\n      sload\n      tag_23\n      swap1\n      tag_22\n      jump\t// in\n    tag_23:\n      dup1\n      iszero\n      tag_24\n      jumpi\n      dup1\n      0x1f\n      lt\n      tag_25\n      jumpi\n      0x0100\n      dup1\n      dup4\n      sload\n      div\n      mul\n      dup4\n      mstore\n      swap2\n      0x20\n      add\n      swap2\n      jump(tag_24)\n    tag_25:\n      dup3\n      add\n      swap2\n      swap1\n      0x00\n      mstore\n      keccak256(0x00, 0x20)\n      swap1\n    tag_26:\n      dup2\n      sload\n      dup2\n      mstore\n      swap1\n      0x01\n      add\n      swap1\n      0x20\n      add\n      dup1\n      dup4\n      gt\n      tag_26\n      jumpi\n      dup3\n      swap1\n      sub\n      0x1f\n      and\n      dup3\n      add\n      swap2\n    tag_24:\n      pop\n      pop\n      pop\n      pop\n      pop\n      swap1\n      dup1\n      0x02\n      add\n      dup1\n      sload\n      tag_27\n      swap1\n      tag_22\n      jump\t// in\n    tag_27:\n      dup1\n      0x1f\n      add\n      0x20\n      dup1\n      swap2\n      div\n      mul\n      0x20\n      add\n      mload(0x40)\n      swap1\n      dup2\n      add\n      0x40\n      mstore\n      dup1\n      swap3\n      swap2\n      swap1\n      dup2\n      dup2\n      mstore\n      0x20\n      add\n      dup3\n      dup1\n      sload\n      tag_28\n      swap1\n      tag_22\n      jump\t// in\n    tag_28:\n      dup1\n      iszero\n      tag_29\n      jumpi\n      dup1\n      0x1f\n      lt\n      tag_30\n      jumpi\n      0x0100\n      dup1\n      dup4\n      sload\n      div\n      mul\n      dup4\n      mstore\n      swap2\n      0x20\n      add\n      swap2\n      jump(tag_29)\n    tag_30:\n      dup3\n      add\n      swap2\n      swap1\n      0x00\n      mstore\n      keccak256(0x00, 0x20)\n      swap1\n    tag_31:\n      dup2\n      sload\n      dup2\n      mstore\n      swap1\n      0x01\n      add\n      swap1\n      0x20\n      add\n      dup1\n      dup4\n      gt\n      tag_31\n      jumpi\n      dup3\n      swap1\n      sub\n      0x1f\n      and\n      dup3\n      add\n      swap2\n    tag_29:\n      pop\n      pop\n      pop\n      pop\n      pop\n      swap1\n      dup1\n      0x03\n      add\n      dup1\n      sload\n      tag_32\n      swap1\n      tag_22\n      jump\t// in\n    tag_32:\n      dup1\n      0x1f\n      add\n      0x20\n      dup1\n      swap2\n      div\n      mul\n      0x20\n      add\n      mload(0x40)\n      swap1\n      dup2\n      add\n      0x40\n      mstore\n      dup1\n      swap3\n      swap2\n      swap1\n      dup2\n      dup2\n      mstore\n      0x20\n      add\n      dup3\n      dup1\n      sload\n      tag_33\n      swap1\n      tag_22\n      jump\t// in\n    tag_33:\n      dup1\n      iszero\n      tag_34\n      jumpi\n      dup1\n      0x1f\n      lt\n      tag_35\n      jumpi\n      0x0100\n      dup1\n      dup4\n      sload\n      div\n      mul\n      dup4\n      mstore\n      swap2\n      0x20\n      add\n      swap2\n      jump(tag_34)\n    tag_35:\n      dup3\n      add\n      swap2\n      swap1\n      0x00\n      mstore\n      keccak256(0x00, 0x20)\n      swap1\n    tag_36:\n      dup2\n      sload\n      dup2\n      mstore\n      swap1\n      0x01\n      add\n      swap1\n      0x20\n      add\n      dup1\n      dup4\n      gt\n      tag_36\n      jumpi\n      dup3\n      swap1\n      sub\n      0x1f\n      and\n      dup3\n      add\n      swap2\n    tag_34:\n      pop\n      pop\n      pop\n      pop\n      pop\n      swap1\n      dup1\n      0x04\n      add\n      dup1\n      sload\n      tag_37\n      swap1\n      tag_22\n      jump\t// in\n    tag_37:\n      dup1\n      0x1f\n      add\n      0x20\n      dup1\n      swap2\n      div\n      mul\n      0x20\n      add\n      mload(0x40)\n      swap1\n      dup2\n      add\n      0x40\n      mstore\n      dup1\n      swap3\n      swap2\n      swap1\n      dup2\n      dup2\n      mstore\n      0x20\n      add\n      dup3\n      dup1\n      sload\n      tag_38\n      swap1\n      tag_22\n      jump\t// in\n    tag_38:\n      dup1\n      iszero\n      tag_39\n      jumpi\n      dup1\n      0x1f\n      lt\n      tag_40\n      jumpi\n      0x0100\n      dup1\n      dup4\n      sload\n      div\n      mul\n      dup4\n      mstore\n      swap2\n      0x20\n      add\n      swap2\n      jump(tag_39)\n    tag_40:\n      dup3\n      add\n      swap2\n      swap1\n      0x00\n      mstore\n      keccak256(0x00, 0x20)\n      swap1\n    tag_41:\n      dup2\n      sload\n      dup2\n      mstore\n      swap1\n      0x01\n      add\n      swap1\n      0x20\n      add\n      dup1\n      dup4\n      gt\n      tag_41\n      jumpi\n      dup3\n      swap1\n      sub\n      0x1f\n      and\n      dup3\n      add\n      swap2\n    tag_39:\n      pop\n      pop\n      pop\n      pop\n      pop\n      swap1\n      dup1\n      0x05\n      add\n      sload\n      swap1\n      dup1\n      0x06\n      add\n      dup1\n      sload\n      tag_42\n      swap1\n      tag_22\n      jump\t// in\n    tag_42:\n      dup1\n      0x1f\n      add\n      0x20\n      dup1\n      swap2\n      div\n      mul\n      0x20\n      add\n      mload(0x40)\n      swap1\n      dup2\n      add\n      0x40\n      mstore\n      dup1\n      swap3\n      swap2\n      swap1\n      dup2\n      dup2\n      mstore\n      0x20\n      add\n      dup3\n      dup1\n      sload\n      tag_43\n      swap1\n      tag_22\n      jump\t// in\n    tag_43:\n      dup1\n      iszero\n      tag_44\n      jumpi\n      dup1\n      0x1f\n      lt\n      tag_45\n      jumpi\n      0x0100\n      dup1\n      dup4\n      sload\n      div\n      mul\n      dup4\n      mstore\n      swap2\n      0x20\n      add\n      swap2\n      jump(tag_44)\n    tag_45:\n      dup3\n      add\n      swap2\n      swap1\n      0x00\n      mstore\n      keccak256(0x00, 0x20)\n      swap1\n    tag_46:\n      dup2\n      sload\n      dup2\n      mstore\n      swap1\n      0x01\n      add\n      swap1\n      0x20\n      add\n      dup1\n      dup4\n      gt\n      tag_46\n      jumpi\n      dup3\n      swap1\n      sub\n      0x1f\n      and\n      dup3\n      add\n      swap2\n    tag_44:\n      pop\n      pop\n      pop\n      pop\n      pop\n      swap1\n      dup1\n      0x07\n      add\n      mload(0x40)\n      dup1\n      0xa0\n      add\n      0x40\n      mstore\n      swap1\n      dup2\n      0x00\n      dup3\n      add\n      dup1\n      sload\n      tag_47\n      swap1\n      tag_22\n      jump\t// in\n    tag_47:\n      dup1\n      0x1f\n      add\n      0x20\n      dup1\n      swap2\n      div\n      mul\n      0x20\n      add\n      mload(0x40)\n      swap1\n      dup2\n      add\n      0x40\n      mstore\n      dup1\n      swap3\n      swap2\n      swap1\n      dup2\n      dup2\n      mstore\n      0x20\n      add\n      dup3\n      dup1\n      sload\n      tag_48\n      swap1\n      tag_22\n      jump\t// in\n    tag_48:\n      dup1\n      iszero\n      tag_49\n      jumpi\n      dup1\n      0x1f\n      lt\n      tag_50\n      jumpi\n      0x0100\n      dup1\n      dup4\n      sload\n      div\n      mul\n      dup4\n      mstore\n      swap2\n      0x20\n      add\n      swap2\n      jump(tag_49)\n    tag_50:\n      dup3\n      add\n      swap2\n      swap1\n      0x00\n      mstore\n      keccak256(0x00, 0x20)\n      swap1\n    tag_51:\n      dup2\n      sload\n      dup2\n      mstore\n      swap1\n      0x01\n      add\n      swap1\n      0x20\n      add\n      dup1\n      dup4\n      gt\n      tag_51\n      jumpi\n      dup3\n      swap1\n      sub\n      0x1f\n      and\n      dup3\n      add\n      swap2\n    tag_49:\n      pop\n      pop\n      pop\n      pop\n      pop\n      dup2\n      mstore\n      0x20\n      add\n      0x01\n      dup3\n      add\n      dup1\n      sload\n      tag_52\n      swap1\n      tag_22\n      jump\t// in\n    tag_52:\n      dup1\n      0x1f\n      add\n      0x20\n      dup1\n      swap2\n      div\n      mul\n      0x20\n      add\n      mload(0x40)\n      swap1\n      dup2\n      add\n      0x40\n      mstore\n      dup1\n      swap3\n      swap2\n      swap1\n      dup2\n      dup2\n      mstore\n      0x20\n      add\n      dup3\n      dup1\n      sload\n      tag_53\n      swap1\n      tag_22\n      jump\t// in\n    tag_53:\n      dup1\n      iszero\n      tag_54\n      jumpi\n      dup1\n      0x1f\n      lt\n      tag_55\n      jumpi\n      0x0100\n      dup1\n      dup4\n      sload\n      div\n      mul\n      dup4\n      mstore\n      swap2\n      0x20\n      add\n      swap2\n      jump(tag_54)\n    tag_55:\n      dup3\n      add\n      swap2\n      swap1\n      0x00\n      mstore\n      keccak256(0x00, 0x20)\n      swap1\n    tag_56:\n      dup2\n      sload\n      dup2\n      mstore\n      swap1\n      0x01\n      add\n      swap1\n      0x20\n      add\n      dup1\n      dup4\n      gt\n      tag_56\n      jumpi\n      dup3\n      swap1\n      sub\n      0x1f\n      and\n      dup3\n      add\n      swap2\n    tag_54:\n      pop\n      pop\n      pop\n      pop\n      pop\n      dup2\n      mstore\n      0x20\n      add\n      0x02\n      dup3\n      add\n      dup1\n      sload\n      tag_57\n      swap1\n      tag_22\n      jump\t// in\n    tag_57:\n      dup1\n      0x1f\n      add\n      0x20\n      dup1\n      swap2\n      div\n      mul\n      0x20\n      add\n      mload(0x40)\n      swap1\n      dup2\n      add\n      0x40\n      mstore\n      dup1\n      swap3\n      swap2\n      swap1\n      dup2\n      dup2\n      mstore\n      0x20\n      add\n      dup3\n      dup1\n      sload\n      tag_58\n      swap1\n      tag_22\n      jump\t// in\n    tag_58:\n      dup1\n      iszero\n      tag_59\n      jumpi\n      dup1\n      0x1f\n      lt\n      tag_60\n      jumpi\n      0x0100\n      dup1\n      dup4\n      sload\n      div\n      mul\n      dup4\n      mstore\n      swap2\n      0x20\n      add\n      swap2\n      jump(tag_59)\n    tag_60:\n      dup3\n      add\n      swap2\n      swap1\n      0x00\n      mstore\n      keccak256(0x00, 0x20)\n      swap1\n    tag_61:\n      dup2\n      sload\n      dup2\n      mstore\n      swap1\n      0x01\n      add\n      swap1\n      0x20\n      add\n      dup1\n      dup4\n      gt\n      tag_61\n      jumpi\n      dup3\n      swap1\n      sub\n      0x1f\n      and\n      dup3\n      add\n      swap2\n    tag_59:\n      pop\n      pop\n      pop\n      pop\n      pop\n      dup2\n      mstore\n      0x20\n      add\n      0x03\n      dup3\n      add\n      dup1\n      sload\n      tag_62\n      swap1\n      tag_22\n      jump\t// in\n    tag_62:\n      dup1\n      0x1f\n      add\n      0x20\n      dup1\n      swap2\n      div\n      mul\n      0x20\n      add\n      mload(0x40)\n      swap1\n      dup2\n      add\n      0x40\n      mstore\n      dup1\n      swap3\n      swap2\n      swap1\n      dup2\n      dup2\n      mstore\n      0x20\n      add\n      dup3\n      dup1\n      sload\n      tag_63\n      swap1\n      tag_22\n      jump\t// in\n    tag_63:\n      dup1\n      iszero\n      tag_64\n      jumpi\n      dup1\n      0x1f\n      lt\n      tag_65\n      jumpi\n      0x0100\n      dup1\n      dup4\n      sload\n      div\n      mul\n      dup4\n      mstore\n      swap2\n      0x20\n      add\n      swap2\n      jump(tag_64)\n    tag_65:\n      dup3\n      add\n      swap2\n      swap1\n      0x00\n      mstore\n      keccak256(0x00, 0x20)\n      swap1\n    tag_66:\n      dup2\n      sload\n      dup2\n      mstore\n      swap1\n      0x01\n      add\n      swap1\n      0x20\n      add\n      dup1\n      dup4\n      gt\n      tag_66\n      jumpi\n      dup3\n      swap1\n      sub\n      0x1f\n      and\n      dup3\n      add\n      swap2\n    tag_64:\n      pop\n      pop\n      pop\n      pop\n      pop\n      dup2\n      mstore\n      0x20\n      add\n      0x04\n      dup3\n      add\n      dup1\n      sload\n      tag_67\n      swap1\n      tag_22\n      jump\t// in\n    tag_67:\n      dup1\n      0x1f\n      add\n      0x20\n      dup1\n      swap2\n      div\n      mul\n      0x20\n      add\n      mload(0x40)\n      swap1\n      dup2\n      add\n      0x40\n      mstore\n      dup1\n      swap3\n      swap2\n      swap1\n      dup2\n      dup2\n      mstore\n      0x20\n      add\n      dup3\n      dup1\n      sload\n      tag_68\n      swap1\n      tag_22\n      jump\t// in\n    tag_68:\n      dup1\n      iszero\n      tag_69\n      jumpi\n      dup1\n      0x1f\n      lt\n      tag_70\n      jumpi\n      0x0100\n      dup1\n      dup4\n      sload\n      div\n      mul\n      dup4\n      mstore\n      swap2\n      0x20\n      add\n      swap2\n      jump(tag_69)\n    tag_70:\n      dup3\n      add\n      swap2\n      swap1\n      0x00\n      mstore\n      keccak256(0x00, 0x20)\n      swap1\n    tag_71:\n      dup2\n      sload\n      dup2\n      mstore\n      swap1\n      0x01\n      add\n      swap1\n      0x20\n      add\n      dup1\n      dup4\n      gt\n      tag_71\n      jumpi\n      dup3\n      swap1\n      sub\n      0x1f\n      and\n      dup3\n      add\n      swap2\n    tag_69:\n      pop\n      pop\n      pop\n      pop\n      pop\n      dup2\n      mstore\n      pop\n      pop\n      swap1\n      dup1\n      0x0c\n      add\n      mload(0x40)\n      dup1\n      0x60\n      add\n      0x40\n      mstore\n      swap1\n      dup2\n      0x00\n      dup3\n      add\n      dup1\n      sload\n      dup1\n      0x20\n      mul\n      0x20\n      add\n      mload(0x40)\n      swap1\n      dup2\n      add\n      0x40\n      mstore\n      dup1\n      swap3\n      swap2\n      swap1\n      dup2\n      dup2\n      mstore\n      0x20\n      add\n      0x00\n      swap1\n    tag_72:\n      dup3\n      dup3\n      lt\n      iszero\n      tag_73\n      jumpi\n      dup4\n      dup3\n      swap1\n      0x00\n      mstore\n      keccak256(0x00, 0x20)\n      add\n      dup1\n      sload\n      tag_75\n      swap1\n      tag_22\n      jump\t// in\n    tag_75:\n      dup1\n      0x1f\n      add\n      0x20\n      dup1\n      swap2\n      div\n      mul\n      0x20\n      add\n      mload(0x40)\n      swap1\n      dup2\n      add\n      0x40\n      mstore\n      dup1\n      swap3\n      swap2\n      swap1\n      dup2\n      dup2\n      mstore\n      0x20\n      add\n      dup3\n      dup1\n      sload\n      tag_76\n      swap1\n      tag_22\n      jump\t// in\n    tag_76:\n      dup1\n      iszero\n      tag_77\n      jumpi\n      dup1\n      0x1f\n      lt\n      tag_78\n      jumpi\n      0x0100\n      dup1\n      dup4\n      sload\n      div\n      mul\n      dup4\n      mstore\n      swap2\n      0x20\n      add\n      swap2\n      jump(tag_77)\n    tag_78:\n      dup3\n      add\n      swap2\n      swap1\n      0x00\n      mstore\n      keccak256(0x00, 0x20)\n      swap1\n    tag_79:\n      dup2\n      sload\n      dup2\n      mstore\n      swap1\n      0x01\n      add\n      swap1\n      0x20\n      add\n      dup1\n      dup4\n      gt\n      tag_79\n      jumpi\n      dup3\n      swap1\n      sub\n      0x1f\n      and\n      dup3\n      add\n      swap2\n    tag_77:\n      pop\n      pop\n      pop\n      pop\n      pop\n      dup2\n      mstore\n      0x20\n      add\n      swap1\n      0x01\n      add\n      swap1\n      jump(tag_72)\n    tag_73:\n      pop\n      pop\n      pop\n      pop\n      dup2\n      mstore\n      0x20\n      add\n      0x01\n      dup3\n      add\n      dup1\n      sload\n      dup1\n      0x20\n      mul\n      0x20\n      add\n      mload(0x40)\n      swap1\n      dup2\n      add\n      0x40\n      mstore\n      dup1\n      swap3\n      swap2\n      swap1\n      dup2\n      dup2\n      mstore\n      0x20\n      add\n      0x00\n      swap1\n    tag_80:\n      dup3\n      dup3\n      lt\n      iszero\n      tag_81\n      jumpi\n      dup4\n      dup3\n      swap1\n      0x00\n      mstore\n      keccak256(0x00, 0x20)\n      add\n      dup1\n      sload\n      tag_83\n      swap1\n      tag_22\n      jump\t// in\n    tag_83:\n      dup1\n      0x1f\n      add\n      0x20\n      dup1\n      swap2\n      div\n      mul\n      0x20\n      add\n      mload(0x40)\n      swap1\n      dup2\n      add\n      0x40\n      mstore\n      dup1\n      swap3\n      swap2\n      swap1\n      dup2\n      dup2\n      mstore\n      0x20\n      add\n      dup3\n      dup1\n      sload\n      tag_84\n      swap1\n      tag_22\n      jump\t// in\n    tag_84:\n      dup1\n      iszero\n      tag_85\n      jumpi\n      dup1\n      0x1f\n      lt\n      tag_86\n      jumpi\n      0x0100\n      dup1\n      dup4\n      sload\n      div\n      mul\n      dup4\n      mstore\n      swap2\n      0x20\n      add\n      swap2\n      jump(tag_85)\n    tag_86:\n      dup3\n      add\n      swap2\n      swap1\n      0x00\n      mstore\n      keccak256(0x00, 0x20)\n      swap1\n    tag_87:\n      dup2\n      sload\n      dup2\n      mstore\n      swap1\n      0x01\n      add\n      swap1\n      0x20\n      add\n      dup1\n      dup4\n      gt\n      tag_87\n      jumpi\n      dup3\n      swap1\n      sub\n      0x1f\n      and\n      dup3\n      add\n      swap2\n    tag_85:\n      pop\n      pop\n      pop\n      pop\n      pop\n      dup2\n      mstore\n      0x20\n      add\n      swap1\n      0x01\n      add\n      swap1\n      jump(tag_80)\n    tag_81:\n      pop\n      pop\n      pop\n      pop\n      dup2\n      mstore\n      0x20\n      add\n      0x02\n      dup3\n      add\n      dup1\n      sload\n      dup1\n      0x20\n      mul\n      0x20\n      add\n      mload(0x40)\n      swap1\n      dup2\n      add\n      0x40\n      mstore\n      dup1\n      swap3\n      swap2\n      swap1\n      dup2\n      dup2\n      mstore\n      0x20\n      add\n      0x00\n      swap1\n    tag_88:\n      dup3\n      dup3\n      lt\n      iszero\n      tag_89\n      jumpi\n      dup4\n      dup3\n      swap1\n      0x00\n      mstore\n      keccak256(0x00, 0x20)\n      add\n      dup1\n      sload\n      tag_91\n      swap1\n      tag_22\n      jump\t// in\n    tag_91:\n      dup1\n      0x1f\n      add\n      0x20\n      dup1\n      swap2\n      div\n      mul\n      0x20\n      add\n      mload(0x40)\n      swap1\n      dup2\n      add\n      0x40\n      mstore\n      dup1\n      swap3\n      swap2\n      swap1\n      dup2\n      dup2\n      mstore\n      0x20\n      add\n      dup3\n      dup1\n      sload\n      tag_92\n      swap1\n      tag_22\n      jump\t// in\n    tag_92:\n      dup1\n      iszero\n      tag_93\n      jumpi\n      dup1\n      0x1f\n      lt\n      tag_94\n      jumpi\n      0x0100\n      dup1\n      dup4\n      sload\n      div\n      mul\n      dup4\n      mstore\n      swap2\n      0x20\n      add\n      swap2\n      jump(tag_93)\n    tag_94:\n      dup3\n      add\n      swap2\n      swap1\n      0x00\n      mstore\n      keccak256(0x00, 0x20)\n      swap1\n    tag_95:\n      dup2\n      sload\n      dup2\n      mstore\n      swap1\n      0x01\n      add\n      swap1\n      0x20\n      add\n      dup1\n      dup4\n      gt\n      tag_95\n      jumpi\n      dup3\n      swap1\n      sub\n      0x1f\n      and\n      dup3\n      add\n      swap2\n    tag_93:\n      pop\n      pop\n      pop\n      pop\n      pop\n      dup2\n      mstore\n      0x20\n      add\n      swap1\n      0x01\n      add\n      swap1\n      jump(tag_88)\n    tag_89:\n      pop\n      pop\n      pop\n      pop\n      dup2\n      mstore\n      pop\n      pop\n      swap1\n      pop\n      dup10\n      jump\t// out\n        /* \"contracts/Profile.sol\":1700:1736  function addSkill() public{\r... */\n    tag_14:\n      jump\t// out\n        /* \"contracts/Profile.sol\":817:1692  function addBio(string memory firstName, string memory middleName, string memory lastName, string memory email, string memory phone, string memory profileImage, string[] memory frontend, string[] memory backend, string[] memory framework) public {\r... */\n    tag_18:\n        /* \"contracts/Profile.sol\":1106:1115  firstName */\n      dup9\n        /* \"contracts/Profile.sol\":1074:1081  profile */\n      0x00\n        /* \"contracts/Profile.sol\":1074:1093  profile[msg.sender] */\n      dup1\n        /* \"contracts/Profile.sol\":1082:1092  msg.sender */\n      caller\n        /* \"contracts/Profile.sol\":1074:1093  profile[msg.sender] */\n      0xffffffffffffffffffffffffffffffffffffffff\n      and\n      0xffffffffffffffffffffffffffffffffffffffff\n      and\n      dup2\n      mstore\n      0x20\n      add\n      swap1\n      dup2\n      mstore\n      0x20\n      add\n      0x00\n      keccak256\n        /* \"contracts/Profile.sol\":1074:1103  profile[msg.sender].firstName */\n      0x01\n      add\n        /* \"contracts/Profile.sol\":1074:1115  profile[msg.sender].firstName = firstName */\n      swap1\n      dup1\n      mload\n      swap1\n      0x20\n      add\n      swap1\n      tag_98\n      swap3\n      swap2\n      swap1\n      tag_99\n      jump\t// in\n    tag_98:\n      pop\n        /* \"contracts/Profile.sol\":1159:1169  middleName */\n      dup8\n        /* \"contracts/Profile.sol\":1126:1133  profile */\n      0x00\n        /* \"contracts/Profile.sol\":1126:1145  profile[msg.sender] */\n      dup1\n        /* \"contracts/Profile.sol\":1134:1144  msg.sender */\n      caller\n        /* \"contracts/Profile.sol\":1126:1145  profile[msg.sender] */\n      0xffffffffffffffffffffffffffffffffffffffff\n      and\n      0xffffffffffffffffffffffffffffffffffffffff\n      and\n      dup2\n      mstore\n      0x20\n      add\n      swap1\n      dup2\n      mstore\n      0x20\n      add\n      0x00\n      keccak256\n        /* \"contracts/Profile.sol\":1126:1156  profile[msg.sender].middleName */\n      0x02\n      add\n        /* \"contracts/Profile.sol\":1126:1169  profile[msg.sender].middleName = middleName */\n      swap1\n      dup1\n      mload\n      swap1\n      0x20\n      add\n      swap1\n      tag_100\n      swap3\n      swap2\n      swap1\n      tag_99\n      jump\t// in\n    tag_100:\n      pop\n        /* \"contracts/Profile.sol\":1211:1219  lastName */\n      dup7\n        /* \"contracts/Profile.sol\":1180:1187  profile */\n      0x00\n        /* \"contracts/Profile.sol\":1180:1199  profile[msg.sender] */\n      dup1\n        /* \"contracts/Profile.sol\":1188:1198  msg.sender */\n      caller\n        /* \"contracts/Profile.sol\":1180:1199  profile[msg.sender] */\n      0xffffffffffffffffffffffffffffffffffffffff\n      and\n      0xffffffffffffffffffffffffffffffffffffffff\n      and\n      dup2\n      mstore\n      0x20\n      add\n      swap1\n      dup2\n      mstore\n      0x20\n      add\n      0x00\n      keccak256\n        /* \"contracts/Profile.sol\":1180:1208  profile[msg.sender].lastName */\n      0x03\n      add\n        /* \"contracts/Profile.sol\":1180:1219  profile[msg.sender].lastName = lastName */\n      swap1\n      dup1\n      mload\n      swap1\n      0x20\n      add\n      swap1\n      tag_101\n      swap3\n      swap2\n      swap1\n      tag_99\n      jump\t// in\n    tag_101:\n      pop\n        /* \"contracts/Profile.sol\":1265:1277  profileImage */\n      dup4\n        /* \"contracts/Profile.sol\":1230:1237  profile */\n      0x00\n        /* \"contracts/Profile.sol\":1230:1249  profile[msg.sender] */\n      dup1\n        /* \"contracts/Profile.sol\":1238:1248  msg.sender */\n      caller\n        /* \"contracts/Profile.sol\":1230:1249  profile[msg.sender] */\n      0xffffffffffffffffffffffffffffffffffffffff\n      and\n      0xffffffffffffffffffffffffffffffffffffffff\n      and\n      dup2\n      mstore\n      0x20\n      add\n      swap1\n      dup2\n      mstore\n      0x20\n      add\n      0x00\n      keccak256\n        /* \"contracts/Profile.sol\":1230:1262  profile[msg.sender].profileImage */\n      0x04\n      add\n        /* \"contracts/Profile.sol\":1230:1277  profile[msg.sender].profileImage = profileImage */\n      swap1\n      dup1\n      mload\n      swap1\n      0x20\n      add\n      swap1\n      tag_102\n      swap3\n      swap2\n      swap1\n      tag_99\n      jump\t// in\n    tag_102:\n      pop\n        /* \"contracts/Profile.sol\":1322:1332  msg.sender */\n      caller\n        /* \"contracts/Profile.sol\":1288:1295  profile */\n      0x00\n        /* \"contracts/Profile.sol\":1288:1307  profile[msg.sender] */\n      dup1\n        /* \"contracts/Profile.sol\":1296:1306  msg.sender */\n      caller\n        /* \"contracts/Profile.sol\":1288:1307  profile[msg.sender] */\n      0xffffffffffffffffffffffffffffffffffffffff\n      and\n      0xffffffffffffffffffffffffffffffffffffffff\n      and\n      dup2\n      mstore\n      0x20\n      add\n      swap1\n      dup2\n      mstore\n      0x20\n      add\n      0x00\n      keccak256\n        /* \"contracts/Profile.sol\":1288:1319  profile[msg.sender].userAddress */\n      0x00\n      add\n      0x00\n        /* \"contracts/Profile.sol\":1288:1332  profile[msg.sender].userAddress = msg.sender */\n      0x0100\n      exp\n      dup2\n      sload\n      dup2\n      0xffffffffffffffffffffffffffffffffffffffff\n      mul\n      not\n      and\n      swap1\n      dup4\n      0xffffffffffffffffffffffffffffffffffffffff\n      and\n      mul\n      or\n      swap1\n      sstore\n      pop\n        /* \"contracts/Profile.sol\":1377:1392  block.timestamp */\n      timestamp\n        /* \"contracts/Profile.sol\":1344:1351  profile */\n      0x00\n        /* \"contracts/Profile.sol\":1344:1363  profile[msg.sender] */\n      dup1\n        /* \"contracts/Profile.sol\":1352:1362  msg.sender */\n      caller\n        /* \"contracts/Profile.sol\":1344:1363  profile[msg.sender] */\n      0xffffffffffffffffffffffffffffffffffffffff\n      and\n      0xffffffffffffffffffffffffffffffffffffffff\n      and\n      dup2\n      mstore\n      0x20\n      add\n      swap1\n      dup2\n      mstore\n      0x20\n      add\n      0x00\n      keccak256\n        /* \"contracts/Profile.sol\":1344:1374  profile[msg.sender].createDate */\n      0x05\n      add\n        /* \"contracts/Profile.sol\":1344:1392  profile[msg.sender].createDate = block.timestamp */\n      dup2\n      swap1\n      sstore\n      pop\n        /* \"contracts/Profile.sol\":1449:1454  email */\n      dup6\n        /* \"contracts/Profile.sol\":1405:1412  profile */\n      0x00\n        /* \"contracts/Profile.sol\":1405:1424  profile[msg.sender] */\n      dup1\n        /* \"contracts/Profile.sol\":1413:1423  msg.sender */\n      caller\n        /* \"contracts/Profile.sol\":1405:1424  profile[msg.sender] */\n      0xffffffffffffffffffffffffffffffffffffffff\n      and\n      0xffffffffffffffffffffffffffffffffffffffff\n      and\n      dup2\n      mstore\n      0x20\n      add\n      swap1\n      dup2\n      mstore\n      0x20\n      add\n      0x00\n      keccak256\n        /* \"contracts/Profile.sol\":1405:1440  profile[msg.sender].privateContract */\n      0x07\n      add\n        /* \"contracts/Profile.sol\":1405:1446  profile[msg.sender].privateContract.email */\n      0x00\n      add\n        /* \"contracts/Profile.sol\":1405:1454  profile[msg.sender].privateContract.email = email */\n      swap1\n      dup1\n      mload\n      swap1\n      0x20\n      add\n      swap1\n      tag_103\n      swap3\n      swap2\n      swap1\n      tag_99\n      jump\t// in\n    tag_103:\n      pop\n        /* \"contracts/Profile.sol\":1509:1514  phone */\n      dup5\n        /* \"contracts/Profile.sol\":1465:1472  profile */\n      0x00\n        /* \"contracts/Profile.sol\":1465:1484  profile[msg.sender] */\n      dup1\n        /* \"contracts/Profile.sol\":1473:1483  msg.sender */\n      caller\n        /* \"contracts/Profile.sol\":1465:1484  profile[msg.sender] */\n      0xffffffffffffffffffffffffffffffffffffffff\n      and\n      0xffffffffffffffffffffffffffffffffffffffff\n      and\n      dup2\n      mstore\n      0x20\n      add\n      swap1\n      dup2\n      mstore\n      0x20\n      add\n      0x00\n      keccak256\n        /* \"contracts/Profile.sol\":1465:1500  profile[msg.sender].privateContract */\n      0x07\n      add\n        /* \"contracts/Profile.sol\":1465:1506  profile[msg.sender].privateContract.phone */\n      0x01\n      add\n        /* \"contracts/Profile.sol\":1465:1514  profile[msg.sender].privateContract.phone = phone */\n      swap1\n      dup1\n      mload\n      swap1\n      0x20\n      add\n      swap1\n      tag_104\n      swap3\n      swap2\n      swap1\n      tag_99\n      jump\t// in\n    tag_104:\n      pop\n        /* \"contracts/Profile.sol\":1564:1572  frontend */\n      dup3\n        /* \"contracts/Profile.sol\":1527:1534  profile */\n      0x00\n        /* \"contracts/Profile.sol\":1527:1546  profile[msg.sender] */\n      dup1\n        /* \"contracts/Profile.sol\":1535:1545  msg.sender */\n      caller\n        /* \"contracts/Profile.sol\":1527:1546  profile[msg.sender] */\n      0xffffffffffffffffffffffffffffffffffffffff\n      and\n      0xffffffffffffffffffffffffffffffffffffffff\n      and\n      dup2\n      mstore\n      0x20\n      add\n      swap1\n      dup2\n      mstore\n      0x20\n      add\n      0x00\n      keccak256\n        /* \"contracts/Profile.sol\":1527:1552  profile[msg.sender].skill */\n      0x0c\n      add\n        /* \"contracts/Profile.sol\":1527:1561  profile[msg.sender].skill.frontend */\n      0x00\n      add\n        /* \"contracts/Profile.sol\":1527:1572  profile[msg.sender].skill.frontend = frontend */\n      swap1\n      dup1\n      mload\n      swap1\n      0x20\n      add\n      swap1\n      tag_105\n      swap3\n      swap2\n      swap1\n      tag_106\n      jump\t// in\n    tag_105:\n      pop\n        /* \"contracts/Profile.sol\":1619:1626  backend */\n      dup2\n        /* \"contracts/Profile.sol\":1583:1590  profile */\n      0x00\n        /* \"contracts/Profile.sol\":1583:1602  profile[msg.sender] */\n      dup1\n        /* \"contracts/Profile.sol\":1591:1601  msg.sender */\n      caller\n        /* \"contracts/Profile.sol\":1583:1602  profile[msg.sender] */\n      0xffffffffffffffffffffffffffffffffffffffff\n      and\n      0xffffffffffffffffffffffffffffffffffffffff\n      and\n      dup2\n      mstore\n      0x20\n      add\n      swap1\n      dup2\n      mstore\n      0x20\n      add\n      0x00\n      keccak256\n        /* \"contracts/Profile.sol\":1583:1608  profile[msg.sender].skill */\n      0x0c\n      add\n        /* \"contracts/Profile.sol\":1583:1616  profile[msg.sender].skill.backend */\n      0x01\n      add\n        /* \"contracts/Profile.sol\":1583:1626  profile[msg.sender].skill.backend = backend */\n      swap1\n      dup1\n      mload\n      swap1\n      0x20\n      add\n      swap1\n      tag_107\n      swap3\n      swap2\n      swap1\n      tag_106\n      jump\t// in\n    tag_107:\n      pop\n        /* \"contracts/Profile.sol\":1675:1684  framework */\n      dup1\n        /* \"contracts/Profile.sol\":1637:1644  profile */\n      0x00\n        /* \"contracts/Profile.sol\":1637:1656  profile[msg.sender] */\n      dup1\n        /* \"contracts/Profile.sol\":1645:1655  msg.sender */\n      caller\n        /* \"contracts/Profile.sol\":1637:1656  profile[msg.sender] */\n      0xffffffffffffffffffffffffffffffffffffffff\n      and\n      0xffffffffffffffffffffffffffffffffffffffff\n      and\n      dup2\n      mstore\n      0x20\n      add\n      swap1\n      dup2\n      mstore\n      0x20\n      add\n      0x00\n      keccak256\n        /* \"contracts/Profile.sol\":1637:1662  profile[msg.sender].skill */\n      0x0c\n      add\n        /* \"contracts/Profile.sol\":1637:1672  profile[msg.sender].skill.framework */\n      0x02\n      add\n        /* \"contracts/Profile.sol\":1637:1684  profile[msg.sender].skill.framework = framework */\n      swap1\n      dup1\n      mload\n      swap1\n      0x20\n      add\n      swap1\n      tag_108\n      swap3\n      swap2\n      swap1\n      tag_106\n      jump\t// in\n    tag_108:\n      pop\n        /* \"contracts/Profile.sol\":817:1692  function addBio(string memory firstName, string memory middleName, string memory lastName, string memory email, string memory phone, string memory profileImage, string[] memory frontend, string[] memory backend, string[] memory framework) public {\r... */\n      pop\n      pop\n      pop\n      pop\n      pop\n      pop\n      pop\n      pop\n      pop\n      jump\t// out\n        /* \"contracts/Profile.sol\":1749:1823  function delProfile() public {\r... */\n    tag_20:\n        /* \"contracts/Profile.sol\":1796:1803  profile */\n      0x00\n        /* \"contracts/Profile.sol\":1796:1815  profile[msg.sender] */\n      dup1\n        /* \"contracts/Profile.sol\":1804:1814  msg.sender */\n      caller\n        /* \"contracts/Profile.sol\":1796:1815  profile[msg.sender] */\n      0xffffffffffffffffffffffffffffffffffffffff\n      and\n      0xffffffffffffffffffffffffffffffffffffffff\n      and\n      dup2\n      mstore\n      0x20\n      add\n      swap1\n      dup2\n      mstore\n      0x20\n      add\n      0x00\n      keccak256\n      0x00\n        /* \"contracts/Profile.sol\":1789:1815  delete profile[msg.sender] */\n      dup1\n      dup3\n      add\n      exp(0x0100, 0x00)\n      dup2\n      sload\n      swap1\n      0xffffffffffffffffffffffffffffffffffffffff\n      mul\n      not\n      and\n      swap1\n      sstore\n      0x01\n      dup3\n      add\n      0x00\n      tag_110\n      swap2\n      swap1\n      tag_111\n      jump\t// in\n    tag_110:\n      0x02\n      dup3\n      add\n      0x00\n      tag_112\n      swap2\n      swap1\n      tag_111\n      jump\t// in\n    tag_112:\n      0x03\n      dup3\n      add\n      0x00\n      tag_113\n      swap2\n      swap1\n      tag_111\n      jump\t// in\n    tag_113:\n      0x04\n      dup3\n      add\n      0x00\n      tag_114\n      swap2\n      swap1\n      tag_111\n      jump\t// in\n    tag_114:\n      0x05\n      dup3\n      add\n      0x00\n      swap1\n      sstore\n      0x06\n      dup3\n      add\n      0x00\n      tag_115\n      swap2\n      swap1\n      tag_111\n      jump\t// in\n    tag_115:\n      0x07\n      dup3\n      add\n      0x00\n      dup1\n      dup3\n      add\n      0x00\n      tag_116\n      swap2\n      swap1\n      tag_111\n      jump\t// in\n    tag_116:\n      0x01\n      dup3\n      add\n      0x00\n      tag_117\n      swap2\n      swap1\n      tag_111\n      jump\t// in\n    tag_117:\n      0x02\n      dup3\n      add\n      0x00\n      tag_118\n      swap2\n      swap1\n      tag_111\n      jump\t// in\n    tag_118:\n      0x03\n      dup3\n      add\n      0x00\n      tag_119\n      swap2\n      swap1\n      tag_111\n      jump\t// in\n    tag_119:\n      0x04\n      dup3\n      add\n      0x00\n      tag_120\n      swap2\n      swap1\n      tag_111\n      jump\t// in\n    tag_120:\n      pop\n      pop\n      0x0c\n      dup3\n      add\n      0x00\n      dup1\n      dup3\n      add\n      0x00\n      tag_121\n      swap2\n      swap1\n      tag_122\n      jump\t// in\n    tag_121:\n      0x01\n      dup3\n      add\n      0x00\n      tag_123\n      swap2\n      swap1\n      tag_122\n      jump\t// in\n    tag_123:\n      0x02\n      dup3\n      add\n      0x00\n      tag_124\n      swap2\n      swap1\n      tag_122\n      jump\t// in\n    tag_124:\n      pop\n      pop\n      pop\n      pop\n        /* \"contracts/Profile.sol\":1749:1823  function delProfile() public {\r... */\n      jump\t// out\n    tag_99:\n      dup3\n      dup1\n      sload\n      tag_125\n      swap1\n      tag_22\n      jump\t// in\n    tag_125:\n      swap1\n      0x00\n      mstore\n      keccak256(0x00, 0x20)\n      swap1\n      0x1f\n      add\n      0x20\n      swap1\n      div\n      dup2\n      add\n      swap3\n      dup3\n      tag_127\n      jumpi\n      0x00\n      dup6\n      sstore\n      jump(tag_126)\n    tag_127:\n      dup3\n      0x1f\n      lt\n      tag_128\n      jumpi\n      dup1\n      mload\n      not(0xff)\n      and\n      dup4\n      dup1\n      add\n      or\n      dup6\n      sstore\n      jump(tag_126)\n    tag_128:\n      dup3\n      dup1\n      add\n      0x01\n      add\n      dup6\n      sstore\n      dup3\n      iszero\n      tag_126\n      jumpi\n      swap2\n      dup3\n      add\n    tag_129:\n      dup3\n      dup2\n      gt\n      iszero\n      tag_130\n      jumpi\n      dup3\n      mload\n      dup3\n      sstore\n      swap2\n      0x20\n      add\n      swap2\n      swap1\n      0x01\n      add\n      swap1\n      jump(tag_129)\n    tag_130:\n    tag_126:\n      pop\n      swap1\n      pop\n      tag_131\n      swap2\n      swap1\n      tag_132\n      jump\t// in\n    tag_131:\n      pop\n      swap1\n      jump\t// out\n    tag_106:\n      dup3\n      dup1\n      sload\n      dup3\n      dup3\n      sstore\n      swap1\n      0x00\n      mstore\n      keccak256(0x00, 0x20)\n      swap1\n      dup2\n      add\n      swap3\n      dup3\n      iszero\n      tag_133\n      jumpi\n      swap2\n      0x20\n      mul\n      dup3\n      add\n    tag_134:\n      dup3\n      dup2\n      gt\n      iszero\n      tag_135\n      jumpi\n      dup3\n      mload\n      dup3\n      swap1\n      dup1\n      mload\n      swap1\n      0x20\n      add\n      swap1\n      tag_136\n      swap3\n      swap2\n      swap1\n      tag_99\n      jump\t// in\n    tag_136:\n      pop\n      swap2\n      0x20\n      add\n      swap2\n      swap1\n      0x01\n      add\n      swap1\n      jump(tag_134)\n    tag_135:\n    tag_133:\n      pop\n      swap1\n      pop\n      tag_137\n      swap2\n      swap1\n      tag_138\n      jump\t// in\n    tag_137:\n      pop\n      swap1\n      jump\t// out\n    tag_111:\n      pop\n      dup1\n      sload\n      tag_139\n      swap1\n      tag_22\n      jump\t// in\n    tag_139:\n      0x00\n      dup3\n      sstore\n      dup1\n      0x1f\n      lt\n      tag_141\n      jumpi\n      pop\n      jump(tag_140)\n    tag_141:\n      0x1f\n      add\n      0x20\n      swap1\n      div\n      swap1\n      0x00\n      mstore\n      keccak256(0x00, 0x20)\n      swap1\n      dup2\n      add\n      swap1\n      tag_142\n      swap2\n      swap1\n      tag_132\n      jump\t// in\n    tag_142:\n    tag_140:\n      pop\n      jump\t// out\n    tag_122:\n      pop\n      dup1\n      sload\n      0x00\n      dup3\n      sstore\n      swap1\n      0x00\n      mstore\n      keccak256(0x00, 0x20)\n      swap1\n      dup2\n      add\n      swap1\n      tag_144\n      swap2\n      swap1\n      tag_138\n      jump\t// in\n    tag_144:\n      pop\n      jump\t// out\n    tag_132:\n    tag_145:\n      dup1\n      dup3\n      gt\n      iszero\n      tag_146\n      jumpi\n      0x00\n      dup2\n      0x00\n      swap1\n      sstore\n      pop\n      0x01\n      add\n      jump(tag_145)\n    tag_146:\n      pop\n      swap1\n      jump\t// out\n    tag_138:\n    tag_147:\n      dup1\n      dup3\n      gt\n      iszero\n      tag_148\n      jumpi\n      0x00\n      dup2\n      dup2\n      tag_149\n      swap2\n      swap1\n      tag_111\n      jump\t// in\n    tag_149:\n      pop\n      0x01\n      add\n      jump(tag_147)\n    tag_148:\n      pop\n      swap1\n      jump\t// out\n        /* \"#utility.yul\":23:980   */\n    tag_151:\n        /* \"#utility.yul\":129:134   */\n      0x00\n        /* \"#utility.yul\":154:245   */\n      tag_153\n        /* \"#utility.yul\":170:244   */\n      tag_154\n        /* \"#utility.yul\":237:243   */\n      dup5\n        /* \"#utility.yul\":170:244   */\n      tag_155\n      jump\t// in\n    tag_154:\n        /* \"#utility.yul\":154:245   */\n      tag_156\n      jump\t// in\n    tag_153:\n        /* \"#utility.yul\":145:245   */\n      swap1\n      pop\n        /* \"#utility.yul\":265:270   */\n      dup1\n        /* \"#utility.yul\":294:300   */\n      dup4\n        /* \"#utility.yul\":287:292   */\n      dup3\n        /* \"#utility.yul\":280:301   */\n      mstore\n        /* \"#utility.yul\":328:332   */\n      0x20\n        /* \"#utility.yul\":321:326   */\n      dup3\n        /* \"#utility.yul\":317:333   */\n      add\n        /* \"#utility.yul\":310:333   */\n      swap1\n      pop\n        /* \"#utility.yul\":354:360   */\n      dup3\n        /* \"#utility.yul\":404:407   */\n      dup6\n        /* \"#utility.yul\":396:400   */\n      0x20\n        /* \"#utility.yul\":388:394   */\n      dup7\n        /* \"#utility.yul\":384:401   */\n      mul\n        /* \"#utility.yul\":379:382   */\n      dup3\n        /* \"#utility.yul\":375:402   */\n      add\n        /* \"#utility.yul\":372:408   */\n      gt\n        /* \"#utility.yul\":369:512   */\n      iszero\n      tag_157\n      jumpi\n        /* \"#utility.yul\":423:502   */\n      tag_158\n      tag_159\n      jump\t// in\n    tag_158:\n        /* \"#utility.yul\":369:512   */\n    tag_157:\n        /* \"#utility.yul\":536:537   */\n      0x00\n        /* \"#utility.yul\":521:974   */\n    tag_160:\n        /* \"#utility.yul\":546:552   */\n      dup6\n        /* \"#utility.yul\":543:544   */\n      dup2\n        /* \"#utility.yul\":540:553   */\n      lt\n        /* \"#utility.yul\":521:974   */\n      iszero\n      tag_162\n      jumpi\n        /* \"#utility.yul\":628:631   */\n      dup2\n        /* \"#utility.yul\":615:632   */\n      calldataload\n        /* \"#utility.yul\":664:682   */\n      0xffffffffffffffff\n        /* \"#utility.yul\":651:662   */\n      dup2\n        /* \"#utility.yul\":648:683   */\n      gt\n        /* \"#utility.yul\":645:767   */\n      iszero\n      tag_163\n      jumpi\n        /* \"#utility.yul\":686:765   */\n      tag_164\n      tag_165\n      jump\t// in\n    tag_164:\n        /* \"#utility.yul\":645:767   */\n    tag_163:\n        /* \"#utility.yul\":810:821   */\n      dup1\n        /* \"#utility.yul\":802:808   */\n      dup7\n        /* \"#utility.yul\":798:822   */\n      add\n        /* \"#utility.yul\":848:895   */\n      tag_166\n        /* \"#utility.yul\":891:894   */\n      dup10\n        /* \"#utility.yul\":879:889   */\n      dup3\n        /* \"#utility.yul\":848:895   */\n      tag_167\n      jump\t// in\n    tag_166:\n        /* \"#utility.yul\":843:846   */\n      dup6\n        /* \"#utility.yul\":836:896   */\n      mstore\n        /* \"#utility.yul\":925:929   */\n      0x20\n        /* \"#utility.yul\":920:923   */\n      dup6\n        /* \"#utility.yul\":916:930   */\n      add\n        /* \"#utility.yul\":909:930   */\n      swap5\n      pop\n        /* \"#utility.yul\":959:963   */\n      0x20\n        /* \"#utility.yul\":954:957   */\n      dup5\n        /* \"#utility.yul\":950:964   */\n      add\n        /* \"#utility.yul\":943:964   */\n      swap4\n      pop\n        /* \"#utility.yul\":581:974   */\n      pop\n      pop\n        /* \"#utility.yul\":568:569   */\n      0x01\n        /* \"#utility.yul\":565:566   */\n      dup2\n        /* \"#utility.yul\":561:570   */\n      add\n        /* \"#utility.yul\":556:570   */\n      swap1\n      pop\n        /* \"#utility.yul\":521:974   */\n      jump(tag_160)\n    tag_162:\n        /* \"#utility.yul\":525:539   */\n      pop\n        /* \"#utility.yul\":135:980   */\n      pop\n      pop\n        /* \"#utility.yul\":23:980   */\n      swap4\n      swap3\n      pop\n      pop\n      pop\n      jump\t// out\n        /* \"#utility.yul\":986:1398   */\n    tag_168:\n        /* \"#utility.yul\":1064:1069   */\n      0x00\n        /* \"#utility.yul\":1089:1155   */\n      tag_170\n        /* \"#utility.yul\":1105:1154   */\n      tag_171\n        /* \"#utility.yul\":1147:1153   */\n      dup5\n        /* \"#utility.yul\":1105:1154   */\n      tag_172\n      jump\t// in\n    tag_171:\n        /* \"#utility.yul\":1089:1155   */\n      tag_156\n      jump\t// in\n    tag_170:\n        /* \"#utility.yul\":1080:1155   */\n      swap1\n      pop\n        /* \"#utility.yul\":1178:1184   */\n      dup3\n        /* \"#utility.yul\":1171:1176   */\n      dup2\n        /* \"#utility.yul\":1164:1185   */\n      mstore\n        /* \"#utility.yul\":1216:1220   */\n      0x20\n        /* \"#utility.yul\":1209:1214   */\n      dup2\n        /* \"#utility.yul\":1205:1221   */\n      add\n        /* \"#utility.yul\":1254:1257   */\n      dup5\n        /* \"#utility.yul\":1245:1251   */\n      dup5\n        /* \"#utility.yul\":1240:1243   */\n      dup5\n        /* \"#utility.yul\":1236:1252   */\n      add\n        /* \"#utility.yul\":1233:1258   */\n      gt\n        /* \"#utility.yul\":1230:1342   */\n      iszero\n      tag_173\n      jumpi\n        /* \"#utility.yul\":1261:1340   */\n      tag_174\n      tag_175\n      jump\t// in\n    tag_174:\n        /* \"#utility.yul\":1230:1342   */\n    tag_173:\n        /* \"#utility.yul\":1351:1392   */\n      tag_176\n        /* \"#utility.yul\":1385:1391   */\n      dup5\n        /* \"#utility.yul\":1380:1383   */\n      dup3\n        /* \"#utility.yul\":1375:1378   */\n      dup6\n        /* \"#utility.yul\":1351:1392   */\n      tag_177\n      jump\t// in\n    tag_176:\n        /* \"#utility.yul\":1070:1398   */\n      pop\n        /* \"#utility.yul\":986:1398   */\n      swap4\n      swap3\n      pop\n      pop\n      pop\n      jump\t// out\n        /* \"#utility.yul\":1404:1543   */\n    tag_178:\n        /* \"#utility.yul\":1450:1455   */\n      0x00\n        /* \"#utility.yul\":1488:1494   */\n      dup2\n        /* \"#utility.yul\":1475:1495   */\n      calldataload\n        /* \"#utility.yul\":1466:1495   */\n      swap1\n      pop\n        /* \"#utility.yul\":1504:1537   */\n      tag_180\n        /* \"#utility.yul\":1531:1536   */\n      dup2\n        /* \"#utility.yul\":1504:1537   */\n      tag_181\n      jump\t// in\n    tag_180:\n        /* \"#utility.yul\":1404:1543   */\n      swap3\n      swap2\n      pop\n      pop\n      jump\t// out\n        /* \"#utility.yul\":1565:1955   */\n    tag_182:\n        /* \"#utility.yul\":1646:1651   */\n      0x00\n        /* \"#utility.yul\":1695:1698   */\n      dup3\n        /* \"#utility.yul\":1688:1692   */\n      0x1f\n        /* \"#utility.yul\":1680:1686   */\n      dup4\n        /* \"#utility.yul\":1676:1693   */\n      add\n        /* \"#utility.yul\":1672:1699   */\n      slt\n        /* \"#utility.yul\":1662:1784   */\n      tag_184\n      jumpi\n        /* \"#utility.yul\":1703:1782   */\n      tag_185\n      tag_165\n      jump\t// in\n    tag_185:\n        /* \"#utility.yul\":1662:1784   */\n    tag_184:\n        /* \"#utility.yul\":1820:1826   */\n      dup2\n        /* \"#utility.yul\":1807:1827   */\n      calldataload\n        /* \"#utility.yul\":1845:1949   */\n      tag_186\n        /* \"#utility.yul\":1945:1948   */\n      dup5\n        /* \"#utility.yul\":1937:1943   */\n      dup3\n        /* \"#utility.yul\":1930:1934   */\n      0x20\n        /* \"#utility.yul\":1922:1928   */\n      dup7\n        /* \"#utility.yul\":1918:1935   */\n      add\n        /* \"#utility.yul\":1845:1949   */\n      tag_151\n      jump\t// in\n    tag_186:\n        /* \"#utility.yul\":1836:1949   */\n      swap2\n      pop\n        /* \"#utility.yul\":1652:1955   */\n      pop\n        /* \"#utility.yul\":1565:1955   */\n      swap3\n      swap2\n      pop\n      pop\n      jump\t// out\n        /* \"#utility.yul\":1975:2315   */\n    tag_167:\n        /* \"#utility.yul\":2031:2036   */\n      0x00\n        /* \"#utility.yul\":2080:2083   */\n      dup3\n        /* \"#utility.yul\":2073:2077   */\n      0x1f\n        /* \"#utility.yul\":2065:2071   */\n      dup4\n        /* \"#utility.yul\":2061:2078   */\n      add\n        /* \"#utility.yul\":2057:2084   */\n      slt\n        /* \"#utility.yul\":2047:2169   */\n      tag_188\n      jumpi\n        /* \"#utility.yul\":2088:2167   */\n      tag_189\n      tag_165\n      jump\t// in\n    tag_189:\n        /* \"#utility.yul\":2047:2169   */\n    tag_188:\n        /* \"#utility.yul\":2205:2211   */\n      dup2\n        /* \"#utility.yul\":2192:2212   */\n      calldataload\n        /* \"#utility.yul\":2230:2309   */\n      tag_190\n        /* \"#utility.yul\":2305:2308   */\n      dup5\n        /* \"#utility.yul\":2297:2303   */\n      dup3\n        /* \"#utility.yul\":2290:2294   */\n      0x20\n        /* \"#utility.yul\":2282:2288   */\n      dup7\n        /* \"#utility.yul\":2278:2295   */\n      add\n        /* \"#utility.yul\":2230:2309   */\n      tag_168\n      jump\t// in\n    tag_190:\n        /* \"#utility.yul\":2221:2309   */\n      swap2\n      pop\n        /* \"#utility.yul\":2037:2315   */\n      pop\n        /* \"#utility.yul\":1975:2315   */\n      swap3\n      swap2\n      pop\n      pop\n      jump\t// out\n        /* \"#utility.yul\":2321:2650   */\n    tag_9:\n        /* \"#utility.yul\":2380:2386   */\n      0x00\n        /* \"#utility.yul\":2429:2431   */\n      0x20\n        /* \"#utility.yul\":2417:2426   */\n      dup3\n        /* \"#utility.yul\":2408:2415   */\n      dup5\n        /* \"#utility.yul\":2404:2427   */\n      sub\n        /* \"#utility.yul\":2400:2432   */\n      slt\n        /* \"#utility.yul\":2397:2516   */\n      iszero\n      tag_192\n      jumpi\n        /* \"#utility.yul\":2435:2514   */\n      tag_193\n      tag_194\n      jump\t// in\n    tag_193:\n        /* \"#utility.yul\":2397:2516   */\n    tag_192:\n        /* \"#utility.yul\":2555:2556   */\n      0x00\n        /* \"#utility.yul\":2580:2633   */\n      tag_195\n        /* \"#utility.yul\":2625:2632   */\n      dup5\n        /* \"#utility.yul\":2616:2622   */\n      dup3\n        /* \"#utility.yul\":2605:2614   */\n      dup6\n        /* \"#utility.yul\":2601:2623   */\n      add\n        /* \"#utility.yul\":2580:2633   */\n      tag_178\n      jump\t// in\n    tag_195:\n        /* \"#utility.yul\":2570:2633   */\n      swap2\n      pop\n        /* \"#utility.yul\":2526:2643   */\n      pop\n        /* \"#utility.yul\":2321:2650   */\n      swap3\n      swap2\n      pop\n      pop\n      jump\t// out\n        /* \"#utility.yul\":2656:5921   */\n    tag_17:\n        /* \"#utility.yul\":2952:2958   */\n      0x00\n        /* \"#utility.yul\":2960:2966   */\n      dup1\n        /* \"#utility.yul\":2968:2974   */\n      0x00\n        /* \"#utility.yul\":2976:2982   */\n      dup1\n        /* \"#utility.yul\":2984:2990   */\n      0x00\n        /* \"#utility.yul\":2992:2998   */\n      dup1\n        /* \"#utility.yul\":3000:3006   */\n      0x00\n        /* \"#utility.yul\":3008:3014   */\n      dup1\n        /* \"#utility.yul\":3016:3022   */\n      0x00\n        /* \"#utility.yul\":3065:3068   */\n      0x0120\n        /* \"#utility.yul\":3053:3062   */\n      dup11\n        /* \"#utility.yul\":3044:3051   */\n      dup13\n        /* \"#utility.yul\":3040:3063   */\n      sub\n        /* \"#utility.yul\":3036:3069   */\n      slt\n        /* \"#utility.yul\":3033:3153   */\n      iszero\n      tag_197\n      jumpi\n        /* \"#utility.yul\":3072:3151   */\n      tag_198\n      tag_194\n      jump\t// in\n    tag_198:\n        /* \"#utility.yul\":3033:3153   */\n    tag_197:\n        /* \"#utility.yul\":3220:3221   */\n      0x00\n        /* \"#utility.yul\":3209:3218   */\n      dup11\n        /* \"#utility.yul\":3205:3222   */\n      add\n        /* \"#utility.yul\":3192:3223   */\n      calldataload\n        /* \"#utility.yul\":3250:3268   */\n      0xffffffffffffffff\n        /* \"#utility.yul\":3242:3248   */\n      dup2\n        /* \"#utility.yul\":3239:3269   */\n      gt\n        /* \"#utility.yul\":3236:3353   */\n      iszero\n      tag_199\n      jumpi\n        /* \"#utility.yul\":3272:3351   */\n      tag_200\n      tag_201\n      jump\t// in\n    tag_200:\n        /* \"#utility.yul\":3236:3353   */\n    tag_199:\n        /* \"#utility.yul\":3377:3440   */\n      tag_202\n        /* \"#utility.yul\":3432:3439   */\n      dup13\n        /* \"#utility.yul\":3423:3429   */\n      dup3\n        /* \"#utility.yul\":3412:3421   */\n      dup14\n        /* \"#utility.yul\":3408:3430   */\n      add\n        /* \"#utility.yul\":3377:3440   */\n      tag_167\n      jump\t// in\n    tag_202:\n        /* \"#utility.yul\":3367:3440   */\n      swap10\n      pop\n        /* \"#utility.yul\":3163:3450   */\n      pop\n        /* \"#utility.yul\":3517:3519   */\n      0x20\n        /* \"#utility.yul\":3506:3515   */\n      dup11\n        /* \"#utility.yul\":3502:3520   */\n      add\n        /* \"#utility.yul\":3489:3521   */\n      calldataload\n        /* \"#utility.yul\":3548:3566   */\n      0xffffffffffffffff\n        /* \"#utility.yul\":3540:3546   */\n      dup2\n        /* \"#utility.yul\":3537:3567   */\n      gt\n        /* \"#utility.yul\":3534:3651   */\n      iszero\n      tag_203\n      jumpi\n        /* \"#utility.yul\":3570:3649   */\n      tag_204\n      tag_201\n      jump\t// in\n    tag_204:\n        /* \"#utility.yul\":3534:3651   */\n    tag_203:\n        /* \"#utility.yul\":3675:3738   */\n      tag_205\n        /* \"#utility.yul\":3730:3737   */\n      dup13\n        /* \"#utility.yul\":3721:3727   */\n      dup3\n        /* \"#utility.yul\":3710:3719   */\n      dup14\n        /* \"#utility.yul\":3706:3728   */\n      add\n        /* \"#utility.yul\":3675:3738   */\n      tag_167\n      jump\t// in\n    tag_205:\n        /* \"#utility.yul\":3665:3738   */\n      swap9\n      pop\n        /* \"#utility.yul\":3460:3748   */\n      pop\n        /* \"#utility.yul\":3815:3817   */\n      0x40\n        /* \"#utility.yul\":3804:3813   */\n      dup11\n        /* \"#utility.yul\":3800:3818   */\n      add\n        /* \"#utility.yul\":3787:3819   */\n      calldataload\n        /* \"#utility.yul\":3846:3864   */\n      0xffffffffffffffff\n        /* \"#utility.yul\":3838:3844   */\n      dup2\n        /* \"#utility.yul\":3835:3865   */\n      gt\n        /* \"#utility.yul\":3832:3949   */\n      iszero\n      tag_206\n      jumpi\n        /* \"#utility.yul\":3868:3947   */\n      tag_207\n      tag_201\n      jump\t// in\n    tag_207:\n        /* \"#utility.yul\":3832:3949   */\n    tag_206:\n        /* \"#utility.yul\":3973:4036   */\n      tag_208\n        /* \"#utility.yul\":4028:4035   */\n      dup13\n        /* \"#utility.yul\":4019:4025   */\n      dup3\n        /* \"#utility.yul\":4008:4017   */\n      dup14\n        /* \"#utility.yul\":4004:4026   */\n      add\n        /* \"#utility.yul\":3973:4036   */\n      tag_167\n      jump\t// in\n    tag_208:\n        /* \"#utility.yul\":3963:4036   */\n      swap8\n      pop\n        /* \"#utility.yul\":3758:4046   */\n      pop\n        /* \"#utility.yul\":4113:4115   */\n      0x60\n        /* \"#utility.yul\":4102:4111   */\n      dup11\n        /* \"#utility.yul\":4098:4116   */\n      add\n        /* \"#utility.yul\":4085:4117   */\n      calldataload\n        /* \"#utility.yul\":4144:4162   */\n      0xffffffffffffffff\n        /* \"#utility.yul\":4136:4142   */\n      dup2\n        /* \"#utility.yul\":4133:4163   */\n      gt\n        /* \"#utility.yul\":4130:4247   */\n      iszero\n      tag_209\n      jumpi\n        /* \"#utility.yul\":4166:4245   */\n      tag_210\n      tag_201\n      jump\t// in\n    tag_210:\n        /* \"#utility.yul\":4130:4247   */\n    tag_209:\n        /* \"#utility.yul\":4271:4334   */\n      tag_211\n        /* \"#utility.yul\":4326:4333   */\n      dup13\n        /* \"#utility.yul\":4317:4323   */\n      dup3\n        /* \"#utility.yul\":4306:4315   */\n      dup14\n        /* \"#utility.yul\":4302:4324   */\n      add\n        /* \"#utility.yul\":4271:4334   */\n      tag_167\n      jump\t// in\n    tag_211:\n        /* \"#utility.yul\":4261:4334   */\n      swap7\n      pop\n        /* \"#utility.yul\":4056:4344   */\n      pop\n        /* \"#utility.yul\":4411:4414   */\n      0x80\n        /* \"#utility.yul\":4400:4409   */\n      dup11\n        /* \"#utility.yul\":4396:4415   */\n      add\n        /* \"#utility.yul\":4383:4416   */\n      calldataload\n        /* \"#utility.yul\":4443:4461   */\n      0xffffffffffffffff\n        /* \"#utility.yul\":4435:4441   */\n      dup2\n        /* \"#utility.yul\":4432:4462   */\n      gt\n        /* \"#utility.yul\":4429:4546   */\n      iszero\n      tag_212\n      jumpi\n        /* \"#utility.yul\":4465:4544   */\n      tag_213\n      tag_201\n      jump\t// in\n    tag_213:\n        /* \"#utility.yul\":4429:4546   */\n    tag_212:\n        /* \"#utility.yul\":4570:4633   */\n      tag_214\n        /* \"#utility.yul\":4625:4632   */\n      dup13\n        /* \"#utility.yul\":4616:4622   */\n      dup3\n        /* \"#utility.yul\":4605:4614   */\n      dup14\n        /* \"#utility.yul\":4601:4623   */\n      add\n        /* \"#utility.yul\":4570:4633   */\n      tag_167\n      jump\t// in\n    tag_214:\n        /* \"#utility.yul\":4560:4633   */\n      swap6\n      pop\n        /* \"#utility.yul\":4354:4643   */\n      pop\n        /* \"#utility.yul\":4710:4713   */\n      0xa0\n        /* \"#utility.yul\":4699:4708   */\n      dup11\n        /* \"#utility.yul\":4695:4714   */\n      add\n        /* \"#utility.yul\":4682:4715   */\n      calldataload\n        /* \"#utility.yul\":4742:4760   */\n      0xffffffffffffffff\n        /* \"#utility.yul\":4734:4740   */\n      dup2\n        /* \"#utility.yul\":4731:4761   */\n      gt\n        /* \"#utility.yul\":4728:4845   */\n      iszero\n      tag_215\n      jumpi\n        /* \"#utility.yul\":4764:4843   */\n      tag_216\n      tag_201\n      jump\t// in\n    tag_216:\n        /* \"#utility.yul\":4728:4845   */\n    tag_215:\n        /* \"#utility.yul\":4869:4932   */\n      tag_217\n        /* \"#utility.yul\":4924:4931   */\n      dup13\n        /* \"#utility.yul\":4915:4921   */\n      dup3\n        /* \"#utility.yul\":4904:4913   */\n      dup14\n        /* \"#utility.yul\":4900:4922   */\n      add\n        /* \"#utility.yul\":4869:4932   */\n      tag_167\n      jump\t// in\n    tag_217:\n        /* \"#utility.yul\":4859:4932   */\n      swap5\n      pop\n        /* \"#utility.yul\":4653:4942   */\n      pop\n        /* \"#utility.yul\":5009:5012   */\n      0xc0\n        /* \"#utility.yul\":4998:5007   */\n      dup11\n        /* \"#utility.yul\":4994:5013   */\n      add\n        /* \"#utility.yul\":4981:5014   */\n      calldataload\n        /* \"#utility.yul\":5041:5059   */\n      0xffffffffffffffff\n        /* \"#utility.yul\":5033:5039   */\n      dup2\n        /* \"#utility.yul\":5030:5060   */\n      gt\n        /* \"#utility.yul\":5027:5144   */\n      iszero\n      tag_218\n      jumpi\n        /* \"#utility.yul\":5063:5142   */\n      tag_219\n      tag_201\n      jump\t// in\n    tag_219:\n        /* \"#utility.yul\":5027:5144   */\n    tag_218:\n        /* \"#utility.yul\":5168:5256   */\n      tag_220\n        /* \"#utility.yul\":5248:5255   */\n      dup13\n        /* \"#utility.yul\":5239:5245   */\n      dup3\n        /* \"#utility.yul\":5228:5237   */\n      dup14\n        /* \"#utility.yul\":5224:5246   */\n      add\n        /* \"#utility.yul\":5168:5256   */\n      tag_182\n      jump\t// in\n    tag_220:\n        /* \"#utility.yul\":5158:5256   */\n      swap4\n      pop\n        /* \"#utility.yul\":4952:5266   */\n      pop\n        /* \"#utility.yul\":5333:5336   */\n      0xe0\n        /* \"#utility.yul\":5322:5331   */\n      dup11\n        /* \"#utility.yul\":5318:5337   */\n      add\n        /* \"#utility.yul\":5305:5338   */\n      calldataload\n        /* \"#utility.yul\":5365:5383   */\n      0xffffffffffffffff\n        /* \"#utility.yul\":5357:5363   */\n      dup2\n        /* \"#utility.yul\":5354:5384   */\n      gt\n        /* \"#utility.yul\":5351:5468   */\n      iszero\n      tag_221\n      jumpi\n        /* \"#utility.yul\":5387:5466   */\n      tag_222\n      tag_201\n      jump\t// in\n    tag_222:\n        /* \"#utility.yul\":5351:5468   */\n    tag_221:\n        /* \"#utility.yul\":5492:5580   */\n      tag_223\n        /* \"#utility.yul\":5572:5579   */\n      dup13\n        /* \"#utility.yul\":5563:5569   */\n      dup3\n        /* \"#utility.yul\":5552:5561   */\n      dup14\n        /* \"#utility.yul\":5548:5570   */\n      add\n        /* \"#utility.yul\":5492:5580   */\n      tag_182\n      jump\t// in\n    tag_223:\n        /* \"#utility.yul\":5482:5580   */\n      swap3\n      pop\n        /* \"#utility.yul\":5276:5590   */\n      pop\n        /* \"#utility.yul\":5657:5660   */\n      0x0100\n        /* \"#utility.yul\":5646:5655   */\n      dup11\n        /* \"#utility.yul\":5642:5661   */\n      add\n        /* \"#utility.yul\":5629:5662   */\n      calldataload\n        /* \"#utility.yul\":5689:5707   */\n      0xffffffffffffffff\n        /* \"#utility.yul\":5681:5687   */\n      dup2\n        /* \"#utility.yul\":5678:5708   */\n      gt\n        /* \"#utility.yul\":5675:5792   */\n      iszero\n      tag_224\n      jumpi\n        /* \"#utility.yul\":5711:5790   */\n      tag_225\n      tag_201\n      jump\t// in\n    tag_225:\n        /* \"#utility.yul\":5675:5792   */\n    tag_224:\n        /* \"#utility.yul\":5816:5904   */\n      tag_226\n        /* \"#utility.yul\":5896:5903   */\n      dup13\n        /* \"#utility.yul\":5887:5893   */\n      dup3\n        /* \"#utility.yul\":5876:5885   */\n      dup14\n        /* \"#utility.yul\":5872:5894   */\n      add\n        /* \"#utility.yul\":5816:5904   */\n      tag_182\n      jump\t// in\n    tag_226:\n        /* \"#utility.yul\":5806:5904   */\n      swap2\n      pop\n        /* \"#utility.yul\":5600:5914   */\n      pop\n        /* \"#utility.yul\":2656:5921   */\n      swap3\n      swap6\n      swap9\n      pop\n      swap3\n      swap6\n      swap9\n      pop\n      swap3\n      swap6\n      swap9\n      jump\t// out\n        /* \"#utility.yul\":5927:6123   */\n    tag_227:\n        /* \"#utility.yul\":6016:6026   */\n      0x00\n        /* \"#utility.yul\":6051:6117   */\n      tag_229\n        /* \"#utility.yul\":6113:6116   */\n      dup4\n        /* \"#utility.yul\":6105:6111   */\n      dup4\n        /* \"#utility.yul\":6051:6117   */\n      tag_230\n      jump\t// in\n    tag_229:\n        /* \"#utility.yul\":6037:6117   */\n      swap1\n      pop\n        /* \"#utility.yul\":5927:6123   */\n      swap3\n      swap2\n      pop\n      pop\n      jump\t// out\n        /* \"#utility.yul\":6129:6247   */\n    tag_231:\n        /* \"#utility.yul\":6216:6240   */\n      tag_233\n        /* \"#utility.yul\":6234:6239   */\n      dup2\n        /* \"#utility.yul\":6216:6240   */\n      tag_234\n      jump\t// in\n    tag_233:\n        /* \"#utility.yul\":6211:6214   */\n      dup3\n        /* \"#utility.yul\":6204:6241   */\n      mstore\n        /* \"#utility.yul\":6129:6247   */\n      pop\n      pop\n      jump\t// out\n        /* \"#utility.yul\":6281:7252   */\n    tag_235:\n        /* \"#utility.yul\":6410:6413   */\n      0x00\n        /* \"#utility.yul\":6439:6503   */\n      tag_237\n        /* \"#utility.yul\":6497:6502   */\n      dup3\n        /* \"#utility.yul\":6439:6503   */\n      tag_238\n      jump\t// in\n    tag_237:\n        /* \"#utility.yul\":6519:6605   */\n      tag_239\n        /* \"#utility.yul\":6598:6604   */\n      dup2\n        /* \"#utility.yul\":6593:6596   */\n      dup6\n        /* \"#utility.yul\":6519:6605   */\n      tag_240\n      jump\t// in\n    tag_239:\n        /* \"#utility.yul\":6512:6605   */\n      swap4\n      pop\n        /* \"#utility.yul\":6631:6634   */\n      dup4\n        /* \"#utility.yul\":6676:6680   */\n      0x20\n        /* \"#utility.yul\":6668:6674   */\n      dup3\n        /* \"#utility.yul\":6664:6681   */\n      mul\n        /* \"#utility.yul\":6659:6662   */\n      dup6\n        /* \"#utility.yul\":6655:6682   */\n      add\n        /* \"#utility.yul\":6706:6772   */\n      tag_241\n        /* \"#utility.yul\":6766:6771   */\n      dup6\n        /* \"#utility.yul\":6706:6772   */\n      tag_242\n      jump\t// in\n    tag_241:\n        /* \"#utility.yul\":6795:6802   */\n      dup1\n        /* \"#utility.yul\":6826:6827   */\n      0x00\n        /* \"#utility.yul\":6811:7207   */\n    tag_243:\n        /* \"#utility.yul\":6836:6842   */\n      dup6\n        /* \"#utility.yul\":6833:6834   */\n      dup2\n        /* \"#utility.yul\":6830:6843   */\n      lt\n        /* \"#utility.yul\":6811:7207   */\n      iszero\n      tag_245\n      jumpi\n        /* \"#utility.yul\":6907:6916   */\n      dup5\n        /* \"#utility.yul\":6901:6905   */\n      dup5\n        /* \"#utility.yul\":6897:6917   */\n      sub\n        /* \"#utility.yul\":6892:6895   */\n      dup10\n        /* \"#utility.yul\":6885:6918   */\n      mstore\n        /* \"#utility.yul\":6958:6964   */\n      dup2\n        /* \"#utility.yul\":6952:6965   */\n      mload\n        /* \"#utility.yul\":6986:7070   */\n      tag_246\n        /* \"#utility.yul\":7065:7069   */\n      dup6\n        /* \"#utility.yul\":7050:7063   */\n      dup3\n        /* \"#utility.yul\":6986:7070   */\n      tag_227\n      jump\t// in\n    tag_246:\n        /* \"#utility.yul\":6978:7070   */\n      swap5\n      pop\n        /* \"#utility.yul\":7093:7163   */\n      tag_247\n        /* \"#utility.yul\":7156:7162   */\n      dup4\n        /* \"#utility.yul\":7093:7163   */\n      tag_248\n      jump\t// in\n    tag_247:\n        /* \"#utility.yul\":7083:7163   */\n      swap3\n      pop\n        /* \"#utility.yul\":7192:7196   */\n      0x20\n        /* \"#utility.yul\":7187:7190   */\n      dup11\n        /* \"#utility.yul\":7183:7197   */\n      add\n        /* \"#utility.yul\":7176:7197   */\n      swap10\n      pop\n        /* \"#utility.yul\":6871:7207   */\n      pop\n        /* \"#utility.yul\":6858:6859   */\n      0x01\n        /* \"#utility.yul\":6855:6856   */\n      dup2\n        /* \"#utility.yul\":6851:6860   */\n      add\n        /* \"#utility.yul\":6846:6860   */\n      swap1\n      pop\n        /* \"#utility.yul\":6811:7207   */\n      jump(tag_243)\n    tag_245:\n        /* \"#utility.yul\":6815:6829   */\n      pop\n        /* \"#utility.yul\":7223:7227   */\n      dup3\n        /* \"#utility.yul\":7216:7227   */\n      swap8\n      pop\n        /* \"#utility.yul\":7243:7246   */\n      dup8\n        /* \"#utility.yul\":7236:7246   */\n      swap6\n      pop\n        /* \"#utility.yul\":6415:7252   */\n      pop\n      pop\n      pop\n      pop\n      pop\n        /* \"#utility.yul\":6281:7252   */\n      swap3\n      swap2\n      pop\n      pop\n      jump\t// out\n        /* \"#utility.yul\":7258:7602   */\n    tag_230:\n        /* \"#utility.yul\":7336:7339   */\n      0x00\n        /* \"#utility.yul\":7364:7403   */\n      tag_250\n        /* \"#utility.yul\":7397:7402   */\n      dup3\n        /* \"#utility.yul\":7364:7403   */\n      tag_251\n      jump\t// in\n    tag_250:\n        /* \"#utility.yul\":7419:7480   */\n      tag_252\n        /* \"#utility.yul\":7473:7479   */\n      dup2\n        /* \"#utility.yul\":7468:7471   */\n      dup6\n        /* \"#utility.yul\":7419:7480   */\n      tag_253\n      jump\t// in\n    tag_252:\n        /* \"#utility.yul\":7412:7480   */\n      swap4\n      pop\n        /* \"#utility.yul\":7489:7541   */\n      tag_254\n        /* \"#utility.yul\":7534:7540   */\n      dup2\n        /* \"#utility.yul\":7529:7532   */\n      dup6\n        /* \"#utility.yul\":7522:7526   */\n      0x20\n        /* \"#utility.yul\":7515:7520   */\n      dup7\n        /* \"#utility.yul\":7511:7527   */\n      add\n        /* \"#utility.yul\":7489:7541   */\n      tag_255\n      jump\t// in\n    tag_254:\n        /* \"#utility.yul\":7566:7595   */\n      tag_256\n        /* \"#utility.yul\":7588:7594   */\n      dup2\n        /* \"#utility.yul\":7566:7595   */\n      tag_257\n      jump\t// in\n    tag_256:\n        /* \"#utility.yul\":7561:7564   */\n      dup5\n        /* \"#utility.yul\":7557:7596   */\n      add\n        /* \"#utility.yul\":7550:7596   */\n      swap2\n      pop\n        /* \"#utility.yul\":7340:7602   */\n      pop\n        /* \"#utility.yul\":7258:7602   */\n      swap3\n      swap2\n      pop\n      pop\n      jump\t// out\n        /* \"#utility.yul\":7608:7972   */\n    tag_258:\n        /* \"#utility.yul\":7696:7699   */\n      0x00\n        /* \"#utility.yul\":7724:7763   */\n      tag_260\n        /* \"#utility.yul\":7757:7762   */\n      dup3\n        /* \"#utility.yul\":7724:7763   */\n      tag_251\n      jump\t// in\n    tag_260:\n        /* \"#utility.yul\":7779:7850   */\n      tag_261\n        /* \"#utility.yul\":7843:7849   */\n      dup2\n        /* \"#utility.yul\":7838:7841   */\n      dup6\n        /* \"#utility.yul\":7779:7850   */\n      tag_262\n      jump\t// in\n    tag_261:\n        /* \"#utility.yul\":7772:7850   */\n      swap4\n      pop\n        /* \"#utility.yul\":7859:7911   */\n      tag_263\n        /* \"#utility.yul\":7904:7910   */\n      dup2\n        /* \"#utility.yul\":7899:7902   */\n      dup6\n        /* \"#utility.yul\":7892:7896   */\n      0x20\n        /* \"#utility.yul\":7885:7890   */\n      dup7\n        /* \"#utility.yul\":7881:7897   */\n      add\n        /* \"#utility.yul\":7859:7911   */\n      tag_255\n      jump\t// in\n    tag_263:\n        /* \"#utility.yul\":7936:7965   */\n      tag_264\n        /* \"#utility.yul\":7958:7964   */\n      dup2\n        /* \"#utility.yul\":7936:7965   */\n      tag_257\n      jump\t// in\n    tag_264:\n        /* \"#utility.yul\":7931:7934   */\n      dup5\n        /* \"#utility.yul\":7927:7966   */\n      add\n        /* \"#utility.yul\":7920:7966   */\n      swap2\n      pop\n        /* \"#utility.yul\":7700:7972   */\n      pop\n        /* \"#utility.yul\":7608:7972   */\n      swap3\n      swap2\n      pop\n      pop\n      jump\t// out\n        /* \"#utility.yul\":8036:9454   */\n    tag_265:\n        /* \"#utility.yul\":8153:8156   */\n      0x00\n        /* \"#utility.yul\":8189:8193   */\n      0xa0\n        /* \"#utility.yul\":8184:8187   */\n      dup4\n        /* \"#utility.yul\":8180:8194   */\n      add\n        /* \"#utility.yul\":8277:8281   */\n      0x00\n        /* \"#utility.yul\":8270:8275   */\n      dup4\n        /* \"#utility.yul\":8266:8282   */\n      add\n        /* \"#utility.yul\":8260:8283   */\n      mload\n        /* \"#utility.yul\":8330:8333   */\n      dup5\n        /* \"#utility.yul\":8324:8328   */\n      dup3\n        /* \"#utility.yul\":8320:8334   */\n      sub\n        /* \"#utility.yul\":8313:8317   */\n      0x00\n        /* \"#utility.yul\":8308:8311   */\n      dup7\n        /* \"#utility.yul\":8304:8318   */\n      add\n        /* \"#utility.yul\":8297:8335   */\n      mstore\n        /* \"#utility.yul\":8356:8429   */\n      tag_267\n        /* \"#utility.yul\":8424:8428   */\n      dup3\n        /* \"#utility.yul\":8410:8422   */\n      dup3\n        /* \"#utility.yul\":8356:8429   */\n      tag_230\n      jump\t// in\n    tag_267:\n        /* \"#utility.yul\":8348:8429   */\n      swap2\n      pop\n        /* \"#utility.yul\":8204:8440   */\n      pop\n        /* \"#utility.yul\":8523:8527   */\n      0x20\n        /* \"#utility.yul\":8516:8521   */\n      dup4\n        /* \"#utility.yul\":8512:8528   */\n      add\n        /* \"#utility.yul\":8506:8529   */\n      mload\n        /* \"#utility.yul\":8576:8579   */\n      dup5\n        /* \"#utility.yul\":8570:8574   */\n      dup3\n        /* \"#utility.yul\":8566:8580   */\n      sub\n        /* \"#utility.yul\":8559:8563   */\n      0x20\n        /* \"#utility.yul\":8554:8557   */\n      dup7\n        /* \"#utility.yul\":8550:8564   */\n      add\n        /* \"#utility.yul\":8543:8581   */\n      mstore\n        /* \"#utility.yul\":8602:8675   */\n      tag_268\n        /* \"#utility.yul\":8670:8674   */\n      dup3\n        /* \"#utility.yul\":8656:8668   */\n      dup3\n        /* \"#utility.yul\":8602:8675   */\n      tag_230\n      jump\t// in\n    tag_268:\n        /* \"#utility.yul\":8594:8675   */\n      swap2\n      pop\n        /* \"#utility.yul\":8450:8686   */\n      pop\n        /* \"#utility.yul\":8770:8774   */\n      0x40\n        /* \"#utility.yul\":8763:8768   */\n      dup4\n        /* \"#utility.yul\":8759:8775   */\n      add\n        /* \"#utility.yul\":8753:8776   */\n      mload\n        /* \"#utility.yul\":8823:8826   */\n      dup5\n        /* \"#utility.yul\":8817:8821   */\n      dup3\n        /* \"#utility.yul\":8813:8827   */\n      sub\n        /* \"#utility.yul\":8806:8810   */\n      0x40\n        /* \"#utility.yul\":8801:8804   */\n      dup7\n        /* \"#utility.yul\":8797:8811   */\n      add\n        /* \"#utility.yul\":8790:8828   */\n      mstore\n        /* \"#utility.yul\":8849:8922   */\n      tag_269\n        /* \"#utility.yul\":8917:8921   */\n      dup3\n        /* \"#utility.yul\":8903:8915   */\n      dup3\n        /* \"#utility.yul\":8849:8922   */\n      tag_230\n      jump\t// in\n    tag_269:\n        /* \"#utility.yul\":8841:8922   */\n      swap2\n      pop\n        /* \"#utility.yul\":8696:8933   */\n      pop\n        /* \"#utility.yul\":9017:9021   */\n      0x60\n        /* \"#utility.yul\":9010:9015   */\n      dup4\n        /* \"#utility.yul\":9006:9022   */\n      add\n        /* \"#utility.yul\":9000:9023   */\n      mload\n        /* \"#utility.yul\":9070:9073   */\n      dup5\n        /* \"#utility.yul\":9064:9068   */\n      dup3\n        /* \"#utility.yul\":9060:9074   */\n      sub\n        /* \"#utility.yul\":9053:9057   */\n      0x60\n        /* \"#utility.yul\":9048:9051   */\n      dup7\n        /* \"#utility.yul\":9044:9058   */\n      add\n        /* \"#utility.yul\":9037:9075   */\n      mstore\n        /* \"#utility.yul\":9096:9169   */\n      tag_270\n        /* \"#utility.yul\":9164:9168   */\n      dup3\n        /* \"#utility.yul\":9150:9162   */\n      dup3\n        /* \"#utility.yul\":9096:9169   */\n      tag_230\n      jump\t// in\n    tag_270:\n        /* \"#utility.yul\":9088:9169   */\n      swap2\n      pop\n        /* \"#utility.yul\":8943:9180   */\n      pop\n        /* \"#utility.yul\":9264:9268   */\n      0x80\n        /* \"#utility.yul\":9257:9262   */\n      dup4\n        /* \"#utility.yul\":9253:9269   */\n      add\n        /* \"#utility.yul\":9247:9270   */\n      mload\n        /* \"#utility.yul\":9317:9320   */\n      dup5\n        /* \"#utility.yul\":9311:9315   */\n      dup3\n        /* \"#utility.yul\":9307:9321   */\n      sub\n        /* \"#utility.yul\":9300:9304   */\n      0x80\n        /* \"#utility.yul\":9295:9298   */\n      dup7\n        /* \"#utility.yul\":9291:9305   */\n      add\n        /* \"#utility.yul\":9284:9322   */\n      mstore\n        /* \"#utility.yul\":9343:9416   */\n      tag_271\n        /* \"#utility.yul\":9411:9415   */\n      dup3\n        /* \"#utility.yul\":9397:9409   */\n      dup3\n        /* \"#utility.yul\":9343:9416   */\n      tag_230\n      jump\t// in\n    tag_271:\n        /* \"#utility.yul\":9335:9416   */\n      swap2\n      pop\n        /* \"#utility.yul\":9190:9427   */\n      pop\n        /* \"#utility.yul\":9444:9448   */\n      dup1\n        /* \"#utility.yul\":9437:9448   */\n      swap2\n      pop\n        /* \"#utility.yul\":8158:9454   */\n      pop\n        /* \"#utility.yul\":8036:9454   */\n      swap3\n      swap2\n      pop\n      pop\n      jump\t// out\n        /* \"#utility.yul\":9512:10588   */\n    tag_272:\n        /* \"#utility.yul\":9623:9626   */\n      0x00\n        /* \"#utility.yul\":9659:9663   */\n      0x60\n        /* \"#utility.yul\":9654:9657   */\n      dup4\n        /* \"#utility.yul\":9650:9664   */\n      add\n        /* \"#utility.yul\":9750:9754   */\n      0x00\n        /* \"#utility.yul\":9743:9748   */\n      dup4\n        /* \"#utility.yul\":9739:9755   */\n      add\n        /* \"#utility.yul\":9733:9756   */\n      mload\n        /* \"#utility.yul\":9803:9806   */\n      dup5\n        /* \"#utility.yul\":9797:9801   */\n      dup3\n        /* \"#utility.yul\":9793:9807   */\n      sub\n        /* \"#utility.yul\":9786:9790   */\n      0x00\n        /* \"#utility.yul\":9781:9784   */\n      dup7\n        /* \"#utility.yul\":9777:9791   */\n      add\n        /* \"#utility.yul\":9770:9808   */\n      mstore\n        /* \"#utility.yul\":9829:9952   */\n      tag_274\n        /* \"#utility.yul\":9947:9951   */\n      dup3\n        /* \"#utility.yul\":9933:9945   */\n      dup3\n        /* \"#utility.yul\":9829:9952   */\n      tag_235\n      jump\t// in\n    tag_274:\n        /* \"#utility.yul\":9821:9952   */\n      swap2\n      pop\n        /* \"#utility.yul\":9674:9963   */\n      pop\n        /* \"#utility.yul\":10048:10052   */\n      0x20\n        /* \"#utility.yul\":10041:10046   */\n      dup4\n        /* \"#utility.yul\":10037:10053   */\n      add\n        /* \"#utility.yul\":10031:10054   */\n      mload\n        /* \"#utility.yul\":10101:10104   */\n      dup5\n        /* \"#utility.yul\":10095:10099   */\n      dup3\n        /* \"#utility.yul\":10091:10105   */\n      sub\n        /* \"#utility.yul\":10084:10088   */\n      0x20\n        /* \"#utility.yul\":10079:10082   */\n      dup7\n        /* \"#utility.yul\":10075:10089   */\n      add\n        /* \"#utility.yul\":10068:10106   */\n      mstore\n        /* \"#utility.yul\":10127:10250   */\n      tag_275\n        /* \"#utility.yul\":10245:10249   */\n      dup3\n        /* \"#utility.yul\":10231:10243   */\n      dup3\n        /* \"#utility.yul\":10127:10250   */\n      tag_235\n      jump\t// in\n    tag_275:\n        /* \"#utility.yul\":10119:10250   */\n      swap2\n      pop\n        /* \"#utility.yul\":9973:10261   */\n      pop\n        /* \"#utility.yul\":10348:10352   */\n      0x40\n        /* \"#utility.yul\":10341:10346   */\n      dup4\n        /* \"#utility.yul\":10337:10353   */\n      add\n        /* \"#utility.yul\":10331:10354   */\n      mload\n        /* \"#utility.yul\":10401:10404   */\n      dup5\n        /* \"#utility.yul\":10395:10399   */\n      dup3\n        /* \"#utility.yul\":10391:10405   */\n      sub\n        /* \"#utility.yul\":10384:10388   */\n      0x40\n        /* \"#utility.yul\":10379:10382   */\n      dup7\n        /* \"#utility.yul\":10375:10389   */\n      add\n        /* \"#utility.yul\":10368:10406   */\n      mstore\n        /* \"#utility.yul\":10427:10550   */\n      tag_276\n        /* \"#utility.yul\":10545:10549   */\n      dup3\n        /* \"#utility.yul\":10531:10543   */\n      dup3\n        /* \"#utility.yul\":10427:10550   */\n      tag_235\n      jump\t// in\n    tag_276:\n        /* \"#utility.yul\":10419:10550   */\n      swap2\n      pop\n        /* \"#utility.yul\":10271:10561   */\n      pop\n        /* \"#utility.yul\":10578:10582   */\n      dup1\n        /* \"#utility.yul\":10571:10582   */\n      swap2\n      pop\n        /* \"#utility.yul\":9628:10588   */\n      pop\n        /* \"#utility.yul\":9512:10588   */\n      swap3\n      swap2\n      pop\n      pop\n      jump\t// out\n        /* \"#utility.yul\":10594:10712   */\n    tag_277:\n        /* \"#utility.yul\":10681:10705   */\n      tag_279\n        /* \"#utility.yul\":10699:10704   */\n      dup2\n        /* \"#utility.yul\":10681:10705   */\n      tag_280\n      jump\t// in\n    tag_279:\n        /* \"#utility.yul\":10676:10679   */\n      dup3\n        /* \"#utility.yul\":10669:10706   */\n      mstore\n        /* \"#utility.yul\":10594:10712   */\n      pop\n      pop\n      jump\t// out\n        /* \"#utility.yul\":10718:12563   */\n    tag_12:\n        /* \"#utility.yul\":11225:11229   */\n      0x00\n        /* \"#utility.yul\":11263:11266   */\n      0x0120\n        /* \"#utility.yul\":11252:11261   */\n      dup3\n        /* \"#utility.yul\":11248:11267   */\n      add\n        /* \"#utility.yul\":11240:11267   */\n      swap1\n      pop\n        /* \"#utility.yul\":11277:11348   */\n      tag_282\n        /* \"#utility.yul\":11345:11346   */\n      0x00\n        /* \"#utility.yul\":11334:11343   */\n      dup4\n        /* \"#utility.yul\":11330:11347   */\n      add\n        /* \"#utility.yul\":11321:11327   */\n      dup13\n        /* \"#utility.yul\":11277:11348   */\n      tag_231\n      jump\t// in\n    tag_282:\n        /* \"#utility.yul\":11395:11404   */\n      dup2\n        /* \"#utility.yul\":11389:11393   */\n      dup2\n        /* \"#utility.yul\":11385:11405   */\n      sub\n        /* \"#utility.yul\":11380:11382   */\n      0x20\n        /* \"#utility.yul\":11369:11378   */\n      dup4\n        /* \"#utility.yul\":11365:11383   */\n      add\n        /* \"#utility.yul\":11358:11406   */\n      mstore\n        /* \"#utility.yul\":11423:11501   */\n      tag_283\n        /* \"#utility.yul\":11496:11500   */\n      dup2\n        /* \"#utility.yul\":11487:11493   */\n      dup12\n        /* \"#utility.yul\":11423:11501   */\n      tag_258\n      jump\t// in\n    tag_283:\n        /* \"#utility.yul\":11415:11501   */\n      swap1\n      pop\n        /* \"#utility.yul\":11548:11557   */\n      dup2\n        /* \"#utility.yul\":11542:11546   */\n      dup2\n        /* \"#utility.yul\":11538:11558   */\n      sub\n        /* \"#utility.yul\":11533:11535   */\n      0x40\n        /* \"#utility.yul\":11522:11531   */\n      dup4\n        /* \"#utility.yul\":11518:11536   */\n      add\n        /* \"#utility.yul\":11511:11559   */\n      mstore\n        /* \"#utility.yul\":11576:11654   */\n      tag_284\n        /* \"#utility.yul\":11649:11653   */\n      dup2\n        /* \"#utility.yul\":11640:11646   */\n      dup11\n        /* \"#utility.yul\":11576:11654   */\n      tag_258\n      jump\t// in\n    tag_284:\n        /* \"#utility.yul\":11568:11654   */\n      swap1\n      pop\n        /* \"#utility.yul\":11701:11710   */\n      dup2\n        /* \"#utility.yul\":11695:11699   */\n      dup2\n        /* \"#utility.yul\":11691:11711   */\n      sub\n        /* \"#utility.yul\":11686:11688   */\n      0x60\n        /* \"#utility.yul\":11675:11684   */\n      dup4\n        /* \"#utility.yul\":11671:11689   */\n      add\n        /* \"#utility.yul\":11664:11712   */\n      mstore\n        /* \"#utility.yul\":11729:11807   */\n      tag_285\n        /* \"#utility.yul\":11802:11806   */\n      dup2\n        /* \"#utility.yul\":11793:11799   */\n      dup10\n        /* \"#utility.yul\":11729:11807   */\n      tag_258\n      jump\t// in\n    tag_285:\n        /* \"#utility.yul\":11721:11807   */\n      swap1\n      pop\n        /* \"#utility.yul\":11855:11864   */\n      dup2\n        /* \"#utility.yul\":11849:11853   */\n      dup2\n        /* \"#utility.yul\":11845:11865   */\n      sub\n        /* \"#utility.yul\":11839:11842   */\n      0x80\n        /* \"#utility.yul\":11828:11837   */\n      dup4\n        /* \"#utility.yul\":11824:11843   */\n      add\n        /* \"#utility.yul\":11817:11866   */\n      mstore\n        /* \"#utility.yul\":11883:11961   */\n      tag_286\n        /* \"#utility.yul\":11956:11960   */\n      dup2\n        /* \"#utility.yul\":11947:11953   */\n      dup9\n        /* \"#utility.yul\":11883:11961   */\n      tag_258\n      jump\t// in\n    tag_286:\n        /* \"#utility.yul\":11875:11961   */\n      swap1\n      pop\n        /* \"#utility.yul\":11971:12044   */\n      tag_287\n        /* \"#utility.yul\":12039:12042   */\n      0xa0\n        /* \"#utility.yul\":12028:12037   */\n      dup4\n        /* \"#utility.yul\":12024:12043   */\n      add\n        /* \"#utility.yul\":12015:12021   */\n      dup8\n        /* \"#utility.yul\":11971:12044   */\n      tag_277\n      jump\t// in\n    tag_287:\n        /* \"#utility.yul\":12092:12101   */\n      dup2\n        /* \"#utility.yul\":12086:12090   */\n      dup2\n        /* \"#utility.yul\":12082:12102   */\n      sub\n        /* \"#utility.yul\":12076:12079   */\n      0xc0\n        /* \"#utility.yul\":12065:12074   */\n      dup4\n        /* \"#utility.yul\":12061:12080   */\n      add\n        /* \"#utility.yul\":12054:12103   */\n      mstore\n        /* \"#utility.yul\":12120:12198   */\n      tag_288\n        /* \"#utility.yul\":12193:12197   */\n      dup2\n        /* \"#utility.yul\":12184:12190   */\n      dup7\n        /* \"#utility.yul\":12120:12198   */\n      tag_258\n      jump\t// in\n    tag_288:\n        /* \"#utility.yul\":12112:12198   */\n      swap1\n      pop\n        /* \"#utility.yul\":12246:12255   */\n      dup2\n        /* \"#utility.yul\":12240:12244   */\n      dup2\n        /* \"#utility.yul\":12236:12256   */\n      sub\n        /* \"#utility.yul\":12230:12233   */\n      0xe0\n        /* \"#utility.yul\":12219:12228   */\n      dup4\n        /* \"#utility.yul\":12215:12234   */\n      add\n        /* \"#utility.yul\":12208:12257   */\n      mstore\n        /* \"#utility.yul\":12274:12380   */\n      tag_289\n        /* \"#utility.yul\":12375:12379   */\n      dup2\n        /* \"#utility.yul\":12366:12372   */\n      dup6\n        /* \"#utility.yul\":12274:12380   */\n      tag_265\n      jump\t// in\n    tag_289:\n        /* \"#utility.yul\":12266:12380   */\n      swap1\n      pop\n        /* \"#utility.yul\":12428:12437   */\n      dup2\n        /* \"#utility.yul\":12422:12426   */\n      dup2\n        /* \"#utility.yul\":12418:12438   */\n      sub\n        /* \"#utility.yul\":12412:12415   */\n      0x0100\n        /* \"#utility.yul\":12401:12410   */\n      dup4\n        /* \"#utility.yul\":12397:12416   */\n      add\n        /* \"#utility.yul\":12390:12439   */\n      mstore\n        /* \"#utility.yul\":12456:12556   */\n      tag_290\n        /* \"#utility.yul\":12551:12555   */\n      dup2\n        /* \"#utility.yul\":12542:12548   */\n      dup5\n        /* \"#utility.yul\":12456:12556   */\n      tag_272\n      jump\t// in\n    tag_290:\n        /* \"#utility.yul\":12448:12556   */\n      swap1\n      pop\n        /* \"#utility.yul\":10718:12563   */\n      swap11\n      swap10\n      pop\n      pop\n      pop\n      pop\n      pop\n      pop\n      pop\n      pop\n      pop\n      pop\n      jump\t// out\n        /* \"#utility.yul\":12569:12698   */\n    tag_156:\n        /* \"#utility.yul\":12603:12609   */\n      0x00\n        /* \"#utility.yul\":12630:12650   */\n      tag_292\n      tag_293\n      jump\t// in\n    tag_292:\n        /* \"#utility.yul\":12620:12650   */\n      swap1\n      pop\n        /* \"#utility.yul\":12659:12692   */\n      tag_294\n        /* \"#utility.yul\":12687:12691   */\n      dup3\n        /* \"#utility.yul\":12679:12685   */\n      dup3\n        /* \"#utility.yul\":12659:12692   */\n      tag_295\n      jump\t// in\n    tag_294:\n        /* \"#utility.yul\":12569:12698   */\n      swap2\n      swap1\n      pop\n      jump\t// out\n        /* \"#utility.yul\":12704:12779   */\n    tag_293:\n        /* \"#utility.yul\":12737:12743   */\n      0x00\n        /* \"#utility.yul\":12770:12772   */\n      0x40\n        /* \"#utility.yul\":12764:12773   */\n      mload\n        /* \"#utility.yul\":12754:12773   */\n      swap1\n      pop\n        /* \"#utility.yul\":12704:12779   */\n      swap1\n      jump\t// out\n        /* \"#utility.yul\":12785:13106   */\n    tag_155:\n        /* \"#utility.yul\":12872:12876   */\n      0x00\n        /* \"#utility.yul\":12962:12980   */\n      0xffffffffffffffff\n        /* \"#utility.yul\":12954:12960   */\n      dup3\n        /* \"#utility.yul\":12951:12981   */\n      gt\n        /* \"#utility.yul\":12948:13004   */\n      iszero\n      tag_298\n      jumpi\n        /* \"#utility.yul\":12984:13002   */\n      tag_299\n      tag_300\n      jump\t// in\n    tag_299:\n        /* \"#utility.yul\":12948:13004   */\n    tag_298:\n        /* \"#utility.yul\":13034:13038   */\n      0x20\n        /* \"#utility.yul\":13026:13032   */\n      dup3\n        /* \"#utility.yul\":13022:13039   */\n      mul\n        /* \"#utility.yul\":13014:13039   */\n      swap1\n      pop\n        /* \"#utility.yul\":13094:13098   */\n      0x20\n        /* \"#utility.yul\":13088:13092   */\n      dup2\n        /* \"#utility.yul\":13084:13099   */\n      add\n        /* \"#utility.yul\":13076:13099   */\n      swap1\n      pop\n        /* \"#utility.yul\":12785:13106   */\n      swap2\n      swap1\n      pop\n      jump\t// out\n        /* \"#utility.yul\":13112:13420   */\n    tag_172:\n        /* \"#utility.yul\":13174:13178   */\n      0x00\n        /* \"#utility.yul\":13264:13282   */\n      0xffffffffffffffff\n        /* \"#utility.yul\":13256:13262   */\n      dup3\n        /* \"#utility.yul\":13253:13283   */\n      gt\n        /* \"#utility.yul\":13250:13306   */\n      iszero\n      tag_302\n      jumpi\n        /* \"#utility.yul\":13286:13304   */\n      tag_303\n      tag_300\n      jump\t// in\n    tag_303:\n        /* \"#utility.yul\":13250:13306   */\n    tag_302:\n        /* \"#utility.yul\":13324:13353   */\n      tag_304\n        /* \"#utility.yul\":13346:13352   */\n      dup3\n        /* \"#utility.yul\":13324:13353   */\n      tag_257\n      jump\t// in\n    tag_304:\n        /* \"#utility.yul\":13316:13353   */\n      swap1\n      pop\n        /* \"#utility.yul\":13408:13412   */\n      0x20\n        /* \"#utility.yul\":13402:13406   */\n      dup2\n        /* \"#utility.yul\":13398:13413   */\n      add\n        /* \"#utility.yul\":13390:13413   */\n      swap1\n      pop\n        /* \"#utility.yul\":13112:13420   */\n      swap2\n      swap1\n      pop\n      jump\t// out\n        /* \"#utility.yul\":13426:13568   */\n    tag_242:\n        /* \"#utility.yul\":13503:13507   */\n      0x00\n        /* \"#utility.yul\":13526:13529   */\n      dup2\n        /* \"#utility.yul\":13518:13529   */\n      swap1\n      pop\n        /* \"#utility.yul\":13556:13560   */\n      0x20\n        /* \"#utility.yul\":13551:13554   */\n      dup3\n        /* \"#utility.yul\":13547:13561   */\n      add\n        /* \"#utility.yul\":13539:13561   */\n      swap1\n      pop\n        /* \"#utility.yul\":13426:13568   */\n      swap2\n      swap1\n      pop\n      jump\t// out\n        /* \"#utility.yul\":13574:13698   */\n    tag_238:\n        /* \"#utility.yul\":13651:13657   */\n      0x00\n        /* \"#utility.yul\":13685:13690   */\n      dup2\n        /* \"#utility.yul\":13679:13691   */\n      mload\n        /* \"#utility.yul\":13669:13691   */\n      swap1\n      pop\n        /* \"#utility.yul\":13574:13698   */\n      swap2\n      swap1\n      pop\n      jump\t// out\n        /* \"#utility.yul\":13704:13803   */\n    tag_251:\n        /* \"#utility.yul\":13756:13762   */\n      0x00\n        /* \"#utility.yul\":13790:13795   */\n      dup2\n        /* \"#utility.yul\":13784:13796   */\n      mload\n        /* \"#utility.yul\":13774:13796   */\n      swap1\n      pop\n        /* \"#utility.yul\":13704:13803   */\n      swap2\n      swap1\n      pop\n      jump\t// out\n        /* \"#utility.yul\":13809:13932   */\n    tag_248:\n        /* \"#utility.yul\":13889:13893   */\n      0x00\n        /* \"#utility.yul\":13921:13925   */\n      0x20\n        /* \"#utility.yul\":13916:13919   */\n      dup3\n        /* \"#utility.yul\":13912:13926   */\n      add\n        /* \"#utility.yul\":13904:13926   */\n      swap1\n      pop\n        /* \"#utility.yul\":13809:13932   */\n      swap2\n      swap1\n      pop\n      jump\t// out\n        /* \"#utility.yul\":13938:14122   */\n    tag_240:\n        /* \"#utility.yul\":14037:14048   */\n      0x00\n        /* \"#utility.yul\":14071:14077   */\n      dup3\n        /* \"#utility.yul\":14066:14069   */\n      dup3\n        /* \"#utility.yul\":14059:14078   */\n      mstore\n        /* \"#utility.yul\":14111:14115   */\n      0x20\n        /* \"#utility.yul\":14106:14109   */\n      dup3\n        /* \"#utility.yul\":14102:14116   */\n      add\n        /* \"#utility.yul\":14087:14116   */\n      swap1\n      pop\n        /* \"#utility.yul\":13938:14122   */\n      swap3\n      swap2\n      pop\n      pop\n      jump\t// out\n        /* \"#utility.yul\":14128:14287   */\n    tag_253:\n        /* \"#utility.yul\":14202:14213   */\n      0x00\n        /* \"#utility.yul\":14236:14242   */\n      dup3\n        /* \"#utility.yul\":14231:14234   */\n      dup3\n        /* \"#utility.yul\":14224:14243   */\n      mstore\n        /* \"#utility.yul\":14276:14280   */\n      0x20\n        /* \"#utility.yul\":14271:14274   */\n      dup3\n        /* \"#utility.yul\":14267:14281   */\n      add\n        /* \"#utility.yul\":14252:14281   */\n      swap1\n      pop\n        /* \"#utility.yul\":14128:14287   */\n      swap3\n      swap2\n      pop\n      pop\n      jump\t// out\n        /* \"#utility.yul\":14293:14462   */\n    tag_262:\n        /* \"#utility.yul\":14377:14388   */\n      0x00\n        /* \"#utility.yul\":14411:14417   */\n      dup3\n        /* \"#utility.yul\":14406:14409   */\n      dup3\n        /* \"#utility.yul\":14399:14418   */\n      mstore\n        /* \"#utility.yul\":14451:14455   */\n      0x20\n        /* \"#utility.yul\":14446:14449   */\n      dup3\n        /* \"#utility.yul\":14442:14456   */\n      add\n        /* \"#utility.yul\":14427:14456   */\n      swap1\n      pop\n        /* \"#utility.yul\":14293:14462   */\n      swap3\n      swap2\n      pop\n      pop\n      jump\t// out\n        /* \"#utility.yul\":14468:14564   */\n    tag_234:\n        /* \"#utility.yul\":14505:14512   */\n      0x00\n        /* \"#utility.yul\":14534:14558   */\n      tag_313\n        /* \"#utility.yul\":14552:14557   */\n      dup3\n        /* \"#utility.yul\":14534:14558   */\n      tag_314\n      jump\t// in\n    tag_313:\n        /* \"#utility.yul\":14523:14558   */\n      swap1\n      pop\n        /* \"#utility.yul\":14468:14564   */\n      swap2\n      swap1\n      pop\n      jump\t// out\n        /* \"#utility.yul\":14570:14696   */\n    tag_314:\n        /* \"#utility.yul\":14607:14614   */\n      0x00\n        /* \"#utility.yul\":14647:14689   */\n      0xffffffffffffffffffffffffffffffffffffffff\n        /* \"#utility.yul\":14640:14645   */\n      dup3\n        /* \"#utility.yul\":14636:14690   */\n      and\n        /* \"#utility.yul\":14625:14690   */\n      swap1\n      pop\n        /* \"#utility.yul\":14570:14696   */\n      swap2\n      swap1\n      pop\n      jump\t// out\n        /* \"#utility.yul\":14702:14779   */\n    tag_280:\n        /* \"#utility.yul\":14739:14746   */\n      0x00\n        /* \"#utility.yul\":14768:14773   */\n      dup2\n        /* \"#utility.yul\":14757:14773   */\n      swap1\n      pop\n        /* \"#utility.yul\":14702:14779   */\n      swap2\n      swap1\n      pop\n      jump\t// out\n        /* \"#utility.yul\":14785:14939   */\n    tag_177:\n        /* \"#utility.yul\":14869:14875   */\n      dup3\n        /* \"#utility.yul\":14864:14867   */\n      dup2\n        /* \"#utility.yul\":14859:14862   */\n      dup4\n        /* \"#utility.yul\":14846:14876   */\n      calldatacopy\n        /* \"#utility.yul\":14931:14932   */\n      0x00\n        /* \"#utility.yul\":14922:14928   */\n      dup4\n        /* \"#utility.yul\":14917:14920   */\n      dup4\n        /* \"#utility.yul\":14913:14929   */\n      add\n        /* \"#utility.yul\":14906:14933   */\n      mstore\n        /* \"#utility.yul\":14785:14939   */\n      pop\n      pop\n      pop\n      jump\t// out\n        /* \"#utility.yul\":14945:15252   */\n    tag_255:\n        /* \"#utility.yul\":15013:15014   */\n      0x00\n        /* \"#utility.yul\":15023:15136   */\n    tag_319:\n        /* \"#utility.yul\":15037:15043   */\n      dup4\n        /* \"#utility.yul\":15034:15035   */\n      dup2\n        /* \"#utility.yul\":15031:15044   */\n      lt\n        /* \"#utility.yul\":15023:15136   */\n      iszero\n      tag_321\n      jumpi\n        /* \"#utility.yul\":15122:15123   */\n      dup1\n        /* \"#utility.yul\":15117:15120   */\n      dup3\n        /* \"#utility.yul\":15113:15124   */\n      add\n        /* \"#utility.yul\":15107:15125   */\n      mload\n        /* \"#utility.yul\":15103:15104   */\n      dup2\n        /* \"#utility.yul\":15098:15101   */\n      dup5\n        /* \"#utility.yul\":15094:15105   */\n      add\n        /* \"#utility.yul\":15087:15126   */\n      mstore\n        /* \"#utility.yul\":15059:15061   */\n      0x20\n        /* \"#utility.yul\":15056:15057   */\n      dup2\n        /* \"#utility.yul\":15052:15062   */\n      add\n        /* \"#utility.yul\":15047:15062   */\n      swap1\n      pop\n        /* \"#utility.yul\":15023:15136   */\n      jump(tag_319)\n    tag_321:\n        /* \"#utility.yul\":15154:15160   */\n      dup4\n        /* \"#utility.yul\":15151:15152   */\n      dup2\n        /* \"#utility.yul\":15148:15161   */\n      gt\n        /* \"#utility.yul\":15145:15246   */\n      iszero\n      tag_322\n      jumpi\n        /* \"#utility.yul\":15234:15235   */\n      0x00\n        /* \"#utility.yul\":15225:15231   */\n      dup5\n        /* \"#utility.yul\":15220:15223   */\n      dup5\n        /* \"#utility.yul\":15216:15232   */\n      add\n        /* \"#utility.yul\":15209:15236   */\n      mstore\n        /* \"#utility.yul\":15145:15246   */\n    tag_322:\n        /* \"#utility.yul\":14994:15252   */\n      pop\n        /* \"#utility.yul\":14945:15252   */\n      pop\n      pop\n      pop\n      jump\t// out\n        /* \"#utility.yul\":15258:15578   */\n    tag_22:\n        /* \"#utility.yul\":15302:15308   */\n      0x00\n        /* \"#utility.yul\":15339:15340   */\n      0x02\n        /* \"#utility.yul\":15333:15337   */\n      dup3\n        /* \"#utility.yul\":15329:15341   */\n      div\n        /* \"#utility.yul\":15319:15341   */\n      swap1\n      pop\n        /* \"#utility.yul\":15386:15387   */\n      0x01\n        /* \"#utility.yul\":15380:15384   */\n      dup3\n        /* \"#utility.yul\":15376:15388   */\n      and\n        /* \"#utility.yul\":15407:15425   */\n      dup1\n        /* \"#utility.yul\":15397:15478   */\n      tag_324\n      jumpi\n        /* \"#utility.yul\":15463:15467   */\n      0x7f\n        /* \"#utility.yul\":15455:15461   */\n      dup3\n        /* \"#utility.yul\":15451:15468   */\n      and\n        /* \"#utility.yul\":15441:15468   */\n      swap2\n      pop\n        /* \"#utility.yul\":15397:15478   */\n    tag_324:\n        /* \"#utility.yul\":15525:15527   */\n      0x20\n        /* \"#utility.yul\":15517:15523   */\n      dup3\n        /* \"#utility.yul\":15514:15528   */\n      lt\n        /* \"#utility.yul\":15494:15512   */\n      dup2\n        /* \"#utility.yul\":15491:15529   */\n      eq\n        /* \"#utility.yul\":15488:15572   */\n      iszero\n      tag_325\n      jumpi\n        /* \"#utility.yul\":15544:15562   */\n      tag_326\n      tag_327\n      jump\t// in\n    tag_326:\n        /* \"#utility.yul\":15488:15572   */\n    tag_325:\n        /* \"#utility.yul\":15309:15578   */\n      pop\n        /* \"#utility.yul\":15258:15578   */\n      swap2\n      swap1\n      pop\n      jump\t// out\n        /* \"#utility.yul\":15584:15865   */\n    tag_295:\n        /* \"#utility.yul\":15667:15694   */\n      tag_329\n        /* \"#utility.yul\":15689:15693   */\n      dup3\n        /* \"#utility.yul\":15667:15694   */\n      tag_257\n      jump\t// in\n    tag_329:\n        /* \"#utility.yul\":15659:15665   */\n      dup2\n        /* \"#utility.yul\":15655:15695   */\n      add\n        /* \"#utility.yul\":15797:15803   */\n      dup2\n        /* \"#utility.yul\":15785:15795   */\n      dup2\n        /* \"#utility.yul\":15782:15804   */\n      lt\n        /* \"#utility.yul\":15761:15779   */\n      0xffffffffffffffff\n        /* \"#utility.yul\":15749:15759   */\n      dup3\n        /* \"#utility.yul\":15746:15780   */\n      gt\n        /* \"#utility.yul\":15743:15805   */\n      or\n        /* \"#utility.yul\":15740:15828   */\n      iszero\n      tag_330\n      jumpi\n        /* \"#utility.yul\":15808:15826   */\n      tag_331\n      tag_300\n      jump\t// in\n    tag_331:\n        /* \"#utility.yul\":15740:15828   */\n    tag_330:\n        /* \"#utility.yul\":15848:15858   */\n      dup1\n        /* \"#utility.yul\":15844:15846   */\n      0x40\n        /* \"#utility.yul\":15837:15859   */\n      mstore\n        /* \"#utility.yul\":15627:15865   */\n      pop\n        /* \"#utility.yul\":15584:15865   */\n      pop\n      pop\n      jump\t// out\n        /* \"#utility.yul\":15871:16051   */\n    tag_327:\n        /* \"#utility.yul\":15919:15996   */\n      0x4e487b7100000000000000000000000000000000000000000000000000000000\n        /* \"#utility.yul\":15916:15917   */\n      0x00\n        /* \"#utility.yul\":15909:15997   */\n      mstore\n        /* \"#utility.yul\":16016:16020   */\n      0x22\n        /* \"#utility.yul\":16013:16014   */\n      0x04\n        /* \"#utility.yul\":16006:16021   */\n      mstore\n        /* \"#utility.yul\":16040:16044   */\n      0x24\n        /* \"#utility.yul\":16037:16038   */\n      0x00\n        /* \"#utility.yul\":16030:16045   */\n      revert\n        /* \"#utility.yul\":16057:16237   */\n    tag_300:\n        /* \"#utility.yul\":16105:16182   */\n      0x4e487b7100000000000000000000000000000000000000000000000000000000\n        /* \"#utility.yul\":16102:16103   */\n      0x00\n        /* \"#utility.yul\":16095:16183   */\n      mstore\n        /* \"#utility.yul\":16202:16206   */\n      0x41\n        /* \"#utility.yul\":16199:16200   */\n      0x04\n        /* \"#utility.yul\":16192:16207   */\n      mstore\n        /* \"#utility.yul\":16226:16230   */\n      0x24\n        /* \"#utility.yul\":16223:16224   */\n      0x00\n        /* \"#utility.yul\":16216:16231   */\n      revert\n        /* \"#utility.yul\":16243:16360   */\n    tag_165:\n        /* \"#utility.yul\":16352:16353   */\n      0x00\n        /* \"#utility.yul\":16349:16350   */\n      dup1\n        /* \"#utility.yul\":16342:16354   */\n      revert\n        /* \"#utility.yul\":16366:16483   */\n    tag_159:\n        /* \"#utility.yul\":16475:16476   */\n      0x00\n        /* \"#utility.yul\":16472:16473   */\n      dup1\n        /* \"#utility.yul\":16465:16477   */\n      revert\n        /* \"#utility.yul\":16489:16606   */\n    tag_175:\n        /* \"#utility.yul\":16598:16599   */\n      0x00\n        /* \"#utility.yul\":16595:16596   */\n      dup1\n        /* \"#utility.yul\":16588:16600   */\n      revert\n        /* \"#utility.yul\":16612:16729   */\n    tag_201:\n        /* \"#utility.yul\":16721:16722   */\n      0x00\n        /* \"#utility.yul\":16718:16719   */\n      dup1\n        /* \"#utility.yul\":16711:16723   */\n      revert\n        /* \"#utility.yul\":16735:16852   */\n    tag_194:\n        /* \"#utility.yul\":16844:16845   */\n      0x00\n        /* \"#utility.yul\":16841:16842   */\n      dup1\n        /* \"#utility.yul\":16834:16846   */\n      revert\n        /* \"#utility.yul\":16858:16960   */\n    tag_257:\n        /* \"#utility.yul\":16899:16905   */\n      0x00\n        /* \"#utility.yul\":16950:16952   */\n      0x1f\n        /* \"#utility.yul\":16946:16953   */\n      not\n        /* \"#utility.yul\":16941:16943   */\n      0x1f\n        /* \"#utility.yul\":16934:16939   */\n      dup4\n        /* \"#utility.yul\":16930:16944   */\n      add\n        /* \"#utility.yul\":16926:16954   */\n      and\n        /* \"#utility.yul\":16916:16954   */\n      swap1\n      pop\n        /* \"#utility.yul\":16858:16960   */\n      swap2\n      swap1\n      pop\n      jump\t// out\n        /* \"#utility.yul\":16966:17088   */\n    tag_181:\n        /* \"#utility.yul\":17039:17063   */\n      tag_341\n        /* \"#utility.yul\":17057:17062   */\n      dup2\n        /* \"#utility.yul\":17039:17063   */\n      tag_234\n      jump\t// in\n    tag_341:\n        /* \"#utility.yul\":17032:17037   */\n      dup2\n        /* \"#utility.yul\":17029:17064   */\n      eq\n        /* \"#utility.yul\":17019:17082   */\n      tag_342\n      jumpi\n        /* \"#utility.yul\":17078:17079   */\n      0x00\n        /* \"#utility.yul\":17075:17076   */\n      dup1\n        /* \"#utility.yul\":17068:17080   */\n      revert\n        /* \"#utility.yul\":17019:17082   */\n    tag_342:\n        /* \"#utility.yul\":16966:17088   */\n      pop\n      jump\t// out\n\n    auxdata: 0xa2646970667358221220b31df2c160e24939f28afcaf5f02b13220afab554f6e5fab1c4d55bb4368efca64736f6c63430008070033\n}\n",
				"bytecode": {
					"linkReferences": {},
					"object": "608060405234801561001057600080fd5b506118a1806100206000396000f3fe608060405234801561001057600080fd5b506004361061004c5760003560e01c80639dd9d0fd14610051578063c093e9a614610089578063ca679f1d14610093578063fabce08f146100af575b600080fd5b61006b60048036038101906100669190611149565b6100b9565b60405161008099989796959493929190611545565b60405180910390f35b610091610948565b005b6100ad60048036038101906100a89190611176565b61094a565b005b6100b7610d30565b005b60006020528060005260406000206000915090508060000160009054906101000a900473ffffffffffffffffffffffffffffffffffffffff169080600101805461010290611769565b80601f016020809104026020016040519081016040528092919081815260200182805461012e90611769565b801561017b5780601f106101505761010080835404028352916020019161017b565b820191906000526020600020905b81548152906001019060200180831161015e57829003601f168201915b50505050509080600201805461019090611769565b80601f01602080910402602001604051908101604052809291908181526020018280546101bc90611769565b80156102095780601f106101de57610100808354040283529160200191610209565b820191906000526020600020905b8154815290600101906020018083116101ec57829003601f168201915b50505050509080600301805461021e90611769565b80601f016020809104026020016040519081016040528092919081815260200182805461024a90611769565b80156102975780601f1061026c57610100808354040283529160200191610297565b820191906000526020600020905b81548152906001019060200180831161027a57829003601f168201915b5050505050908060040180546102ac90611769565b80601f01602080910402602001604051908101604052809291908181526020018280546102d890611769565b80156103255780601f106102fa57610100808354040283529160200191610325565b820191906000526020600020905b81548152906001019060200180831161030857829003601f168201915b50505050509080600501549080600601805461034090611769565b80601f016020809104026020016040519081016040528092919081815260200182805461036c90611769565b80156103b95780601f1061038e576101008083540402835291602001916103b9565b820191906000526020600020905b81548152906001019060200180831161039c57829003601f168201915b505050505090806007016040518060a00160405290816000820180546103de90611769565b80601f016020809104026020016040519081016040528092919081815260200182805461040a90611769565b80156104575780601f1061042c57610100808354040283529160200191610457565b820191906000526020600020905b81548152906001019060200180831161043a57829003601f168201915b5050505050815260200160018201805461047090611769565b80601f016020809104026020016040519081016040528092919081815260200182805461049c90611769565b80156104e95780601f106104be576101008083540402835291602001916104e9565b820191906000526020600020905b8154815290600101906020018083116104cc57829003601f168201915b5050505050815260200160028201805461050290611769565b80601f016020809104026020016040519081016040528092919081815260200182805461052e90611769565b801561057b5780601f106105505761010080835404028352916020019161057b565b820191906000526020600020905b81548152906001019060200180831161055e57829003601f168201915b5050505050815260200160038201805461059490611769565b80601f01602080910402602001604051908101604052809291908181526020018280546105c090611769565b801561060d5780601f106105e25761010080835404028352916020019161060d565b820191906000526020600020905b8154815290600101906020018083116105f057829003601f168201915b5050505050815260200160048201805461062690611769565b80601f016020809104026020016040519081016040528092919081815260200182805461065290611769565b801561069f5780601f106106745761010080835404028352916020019161069f565b820191906000526020600020905b81548152906001019060200180831161068257829003601f168201915b5050505050815250509080600c0160405180606001604052908160008201805480602002602001604051908101604052809291908181526020016000905b828210156107895783829060005260206000200180546106fc90611769565b80601f016020809104026020016040519081016040528092919081815260200182805461072890611769565b80156107755780601f1061074a57610100808354040283529160200191610775565b820191906000526020600020905b81548152906001019060200180831161075857829003601f168201915b5050505050815260200190600101906106dd565b50505050815260200160018201805480602002602001604051908101604052809291908181526020016000905b828210156108625783829060005260206000200180546107d590611769565b80601f016020809104026020016040519081016040528092919081815260200182805461080190611769565b801561084e5780601f106108235761010080835404028352916020019161084e565b820191906000526020600020905b81548152906001019060200180831161083157829003601f168201915b5050505050815260200190600101906107b6565b50505050815260200160028201805480602002602001604051908101604052809291908181526020016000905b8282101561093b5783829060005260206000200180546108ae90611769565b80601f01602080910402602001604051908101604052809291908181526020018280546108da90611769565b80156109275780601f106108fc57610100808354040283529160200191610927565b820191906000526020600020905b81548152906001019060200180831161090a57829003601f168201915b50505050508152602001906001019061088f565b5050505081525050905089565b565b886000803373ffffffffffffffffffffffffffffffffffffffff1673ffffffffffffffffffffffffffffffffffffffff168152602001908152602001600020600101908051906020019061099f929190610e80565b50876000803373ffffffffffffffffffffffffffffffffffffffff1673ffffffffffffffffffffffffffffffffffffffff16815260200190815260200160002060020190805190602001906109f5929190610e80565b50866000803373ffffffffffffffffffffffffffffffffffffffff1673ffffffffffffffffffffffffffffffffffffffff1681526020019081526020016000206003019080519060200190610a4b929190610e80565b50836000803373ffffffffffffffffffffffffffffffffffffffff1673ffffffffffffffffffffffffffffffffffffffff1681526020019081526020016000206004019080519060200190610aa1929190610e80565b50336000803373ffffffffffffffffffffffffffffffffffffffff1673ffffffffffffffffffffffffffffffffffffffff16815260200190815260200160002060000160006101000a81548173ffffffffffffffffffffffffffffffffffffffff021916908373ffffffffffffffffffffffffffffffffffffffff160217905550426000803373ffffffffffffffffffffffffffffffffffffffff1673ffffffffffffffffffffffffffffffffffffffff16815260200190815260200160002060050181905550856000803373ffffffffffffffffffffffffffffffffffffffff1673ffffffffffffffffffffffffffffffffffffffff1681526020019081526020016000206007016000019080519060200190610bc0929190610e80565b50846000803373ffffffffffffffffffffffffffffffffffffffff1673ffffffffffffffffffffffffffffffffffffffff1681526020019081526020016000206007016001019080519060200190610c19929190610e80565b50826000803373ffffffffffffffffffffffffffffffffffffffff1673ffffffffffffffffffffffffffffffffffffffff168152602001908152602001600020600c016000019080519060200190610c72929190610f06565b50816000803373ffffffffffffffffffffffffffffffffffffffff1673ffffffffffffffffffffffffffffffffffffffff168152602001908152602001600020600c016001019080519060200190610ccb929190610f06565b50806000803373ffffffffffffffffffffffffffffffffffffffff1673ffffffffffffffffffffffffffffffffffffffff168152602001908152602001600020600c016002019080519060200190610d24929190610f06565b50505050505050505050565b6000803373ffffffffffffffffffffffffffffffffffffffff1673ffffffffffffffffffffffffffffffffffffffff168152602001908152602001600020600080820160006101000a81549073ffffffffffffffffffffffffffffffffffffffff0219169055600182016000610da69190610f66565b600282016000610db69190610f66565b600382016000610dc69190610f66565b600482016000610dd69190610f66565b6005820160009055600682016000610dee9190610f66565b6007820160008082016000610e039190610f66565b600182016000610e139190610f66565b600282016000610e239190610f66565b600382016000610e339190610f66565b600482016000610e439190610f66565b5050600c820160008082016000610e5a9190610fa6565b600182016000610e6a9190610fa6565b600282016000610e7a9190610fa6565b50505050565b828054610e8c90611769565b90600052602060002090601f016020900481019282610eae5760008555610ef5565b82601f10610ec757805160ff1916838001178555610ef5565b82800160010185558215610ef5579182015b82811115610ef4578251825591602001919060010190610ed9565b5b509050610f029190610fc7565b5090565b828054828255906000526020600020908101928215610f55579160200282015b82811115610f54578251829080519060200190610f44929190610e80565b5091602001919060010190610f26565b5b509050610f629190610fe4565b5090565b508054610f7290611769565b6000825580601f10610f845750610fa3565b601f016020900490600052602060002090810190610fa29190610fc7565b5b50565b5080546000825590600052602060002090810190610fc49190610fe4565b50565b5b80821115610fe0576000816000905550600101610fc8565b5090565b5b808211156110045760008181610ffb9190610f66565b50600101610fe5565b5090565b600061101b61101684611628565b611603565b9050808382526020820190508285602086028201111561103e5761103d61182f565b5b60005b8581101561108c57813567ffffffffffffffff8111156110645761106361182a565b5b808601611071898261111b565b85526020850194506020840193505050600181019050611041565b5050509392505050565b60006110a96110a484611654565b611603565b9050828152602081018484840111156110c5576110c4611834565b5b6110d0848285611727565b509392505050565b6000813590506110e781611854565b92915050565b600082601f8301126111025761110161182a565b5b8135611112848260208601611008565b91505092915050565b600082601f8301126111305761112f61182a565b5b8135611140848260208601611096565b91505092915050565b60006020828403121561115f5761115e61183e565b5b600061116d848285016110d8565b91505092915050565b60008060008060008060008060006101208a8c0312156111995761119861183e565b5b60008a013567ffffffffffffffff8111156111b7576111b6611839565b5b6111c38c828d0161111b565b99505060208a013567ffffffffffffffff8111156111e4576111e3611839565b5b6111f08c828d0161111b565b98505060408a013567ffffffffffffffff81111561121157611210611839565b5b61121d8c828d0161111b565b97505060608a013567ffffffffffffffff81111561123e5761123d611839565b5b61124a8c828d0161111b565b96505060808a013567ffffffffffffffff81111561126b5761126a611839565b5b6112778c828d0161111b565b95505060a08a013567ffffffffffffffff81111561129857611297611839565b5b6112a48c828d0161111b565b94505060c08a013567ffffffffffffffff8111156112c5576112c4611839565b5b6112d18c828d016110ed565b93505060e08a013567ffffffffffffffff8111156112f2576112f1611839565b5b6112fe8c828d016110ed565b9250506101008a013567ffffffffffffffff8111156113205761131f611839565b5b61132c8c828d016110ed565b9150509295985092959850929598565b600061134883836113d4565b905092915050565b611359816116eb565b82525050565b600061136a82611695565b61137481856116b8565b93508360208202850161138685611685565b8060005b858110156113c257848403895281516113a3858261133c565b94506113ae836116ab565b925060208a0199505060018101905061138a565b50829750879550505050505092915050565b60006113df826116a0565b6113e981856116c9565b93506113f9818560208601611736565b61140281611843565b840191505092915050565b6000611418826116a0565b61142281856116da565b9350611432818560208601611736565b61143b81611843565b840191505092915050565b600060a083016000830151848203600086015261146382826113d4565b9150506020830151848203602086015261147d82826113d4565b9150506040830151848203604086015261149782826113d4565b915050606083015184820360608601526114b182826113d4565b915050608083015184820360808601526114cb82826113d4565b9150508091505092915050565b600060608301600083015184820360008601526114f5828261135f565b9150506020830151848203602086015261150f828261135f565b91505060408301518482036040860152611529828261135f565b9150508091505092915050565b61153f8161171d565b82525050565b60006101208201905061155b600083018c611350565b818103602083015261156d818b61140d565b90508181036040830152611581818a61140d565b90508181036060830152611595818961140d565b905081810360808301526115a9818861140d565b90506115b860a0830187611536565b81810360c08301526115ca818661140d565b905081810360e08301526115de8185611446565b90508181036101008301526115f381846114d8565b90509a9950505050505050505050565b600061160d61161e565b9050611619828261179b565b919050565b6000604051905090565b600067ffffffffffffffff821115611643576116426117fb565b5b602082029050602081019050919050565b600067ffffffffffffffff82111561166f5761166e6117fb565b5b61167882611843565b9050602081019050919050565b6000819050602082019050919050565b600081519050919050565b600081519050919050565b6000602082019050919050565b600082825260208201905092915050565b600082825260208201905092915050565b600082825260208201905092915050565b60006116f6826116fd565b9050919050565b600073ffffffffffffffffffffffffffffffffffffffff82169050919050565b6000819050919050565b82818337600083830152505050565b60005b83811015611754578082015181840152602081019050611739565b83811115611763576000848401525b50505050565b6000600282049050600182168061178157607f821691505b60208210811415611795576117946117cc565b5b50919050565b6117a482611843565b810181811067ffffffffffffffff821117156117c3576117c26117fb565b5b80604052505050565b7f4e487b7100000000000000000000000000000000000000000000000000000000600052602260045260246000fd5b7f4e487b7100000000000000000000000000000000000000000000000000000000600052604160045260246000fd5b600080fd5b600080fd5b600080fd5b600080fd5b600080fd5b6000601f19601f8301169050919050565b61185d816116eb565b811461186857600080fd5b5056fea2646970667358221220b31df2c160e24939f28afcaf5f02b13220afab554f6e5fab1c4d55bb4368efca64736f6c63430008070033",
					"opcodes": "PUSH1 0x80 PUSH1 0x40 MSTORE CALLVALUE DUP1 ISZERO PUSH2 0x10 JUMPI PUSH1 0x0 DUP1 REVERT JUMPDEST POP PUSH2 0x18A1 DUP1 PUSH2 0x20 PUSH1 0x0 CODECOPY PUSH1 0x0 RETURN INVALID PUSH1 0x80 PUSH1 0x40 MSTORE CALLVALUE DUP1 ISZERO PUSH2 0x10 JUMPI PUSH1 0x0 DUP1 REVERT JUMPDEST POP PUSH1 0x4 CALLDATASIZE LT PUSH2 0x4C JUMPI PUSH1 0x0 CALLDATALOAD PUSH1 0xE0 SHR DUP1 PUSH4 0x9DD9D0FD EQ PUSH2 0x51 JUMPI DUP1 PUSH4 0xC093E9A6 EQ PUSH2 0x89 JUMPI DUP1 PUSH4 0xCA679F1D EQ PUSH2 0x93 JUMPI DUP1 PUSH4 0xFABCE08F EQ PUSH2 0xAF JUMPI JUMPDEST PUSH1 0x0 DUP1 REVERT JUMPDEST PUSH2 0x6B PUSH1 0x4 DUP1 CALLDATASIZE SUB DUP2 ADD SWAP1 PUSH2 0x66 SWAP2 SWAP1 PUSH2 0x1149 JUMP JUMPDEST PUSH2 0xB9 JUMP JUMPDEST PUSH1 0x40 MLOAD PUSH2 0x80 SWAP10 SWAP9 SWAP8 SWAP7 SWAP6 SWAP5 SWAP4 SWAP3 SWAP2 SWAP1 PUSH2 0x1545 JUMP JUMPDEST PUSH1 0x40 MLOAD DUP1 SWAP2 SUB SWAP1 RETURN JUMPDEST PUSH2 0x91 PUSH2 0x948 JUMP JUMPDEST STOP JUMPDEST PUSH2 0xAD PUSH1 0x4 DUP1 CALLDATASIZE SUB DUP2 ADD SWAP1 PUSH2 0xA8 SWAP2 SWAP1 PUSH2 0x1176 JUMP JUMPDEST PUSH2 0x94A JUMP JUMPDEST STOP JUMPDEST PUSH2 0xB7 PUSH2 0xD30 JUMP JUMPDEST STOP JUMPDEST PUSH1 0x0 PUSH1 0x20 MSTORE DUP1 PUSH1 0x0 MSTORE PUSH1 0x40 PUSH1 0x0 KECCAK256 PUSH1 0x0 SWAP2 POP SWAP1 POP DUP1 PUSH1 0x0 ADD PUSH1 0x0 SWAP1 SLOAD SWAP1 PUSH2 0x100 EXP SWAP1 DIV PUSH20 0xFFFFFFFFFFFFFFFFFFFFFFFFFFFFFFFFFFFFFFFF AND SWAP1 DUP1 PUSH1 0x1 ADD DUP1 SLOAD PUSH2 0x102 SWAP1 PUSH2 0x1769 JUMP JUMPDEST DUP1 PUSH1 0x1F ADD PUSH1 0x20 DUP1 SWAP2 DIV MUL PUSH1 0x20 ADD PUSH1 0x40 MLOAD SWAP1 DUP2 ADD PUSH1 0x40 MSTORE DUP1 SWAP3 SWAP2 SWAP1 DUP2 DUP2 MSTORE PUSH1 0x20 ADD DUP3 DUP1 SLOAD PUSH2 0x12E SWAP1 PUSH2 0x1769 JUMP JUMPDEST DUP1 ISZERO PUSH2 0x17B JUMPI DUP1 PUSH1 0x1F LT PUSH2 0x150 JUMPI PUSH2 0x100 DUP1 DUP4 SLOAD DIV MUL DUP4 MSTORE SWAP2 PUSH1 0x20 ADD SWAP2 PUSH2 0x17B JUMP JUMPDEST DUP3 ADD SWAP2 SWAP1 PUSH1 0x0 MSTORE PUSH1 0x20 PUSH1 0x0 KECCAK256 SWAP1 JUMPDEST DUP2 SLOAD DUP2 MSTORE SWAP1 PUSH1 0x1 ADD SWAP1 PUSH1 0x20 ADD DUP1 DUP4 GT PUSH2 0x15E JUMPI DUP3 SWAP1 SUB PUSH1 0x1F AND DUP3 ADD SWAP2 JUMPDEST POP POP POP POP POP SWAP1 DUP1 PUSH1 0x2 ADD DUP1 SLOAD PUSH2 0x190 SWAP1 PUSH2 0x1769 JUMP JUMPDEST DUP1 PUSH1 0x1F ADD PUSH1 0x20 DUP1 SWAP2 DIV MUL PUSH1 0x20 ADD PUSH1 0x40 MLOAD SWAP1 DUP2 ADD PUSH1 0x40 MSTORE DUP1 SWAP3 SWAP2 SWAP1 DUP2 DUP2 MSTORE PUSH1 0x20 ADD DUP3 DUP1 SLOAD PUSH2 0x1BC SWAP1 PUSH2 0x1769 JUMP JUMPDEST DUP1 ISZERO PUSH2 0x209 JUMPI DUP1 PUSH1 0x1F LT PUSH2 0x1DE JUMPI PUSH2 0x100 DUP1 DUP4 SLOAD DIV MUL DUP4 MSTORE SWAP2 PUSH1 0x20 ADD SWAP2 PUSH2 0x209 JUMP JUMPDEST DUP3 ADD SWAP2 SWAP1 PUSH1 0x0 MSTORE PUSH1 0x20 PUSH1 0x0 KECCAK256 SWAP1 JUMPDEST DUP2 SLOAD DUP2 MSTORE SWAP1 PUSH1 0x1 ADD SWAP1 PUSH1 0x20 ADD DUP1 DUP4 GT PUSH2 0x1EC JUMPI DUP3 SWAP1 SUB PUSH1 0x1F AND DUP3 ADD SWAP2 JUMPDEST POP POP POP POP POP SWAP1 DUP1 PUSH1 0x3 ADD DUP1 SLOAD PUSH2 0x21E SWAP1 PUSH2 0x1769 JUMP JUMPDEST DUP1 PUSH1 0x1F ADD PUSH1 0x20 DUP1 SWAP2 DIV MUL PUSH1 0x20 ADD PUSH1 0x40 MLOAD SWAP1 DUP2 ADD PUSH1 0x40 MSTORE DUP1 SWAP3 SWAP2 SWAP1 DUP2 DUP2 MSTORE PUSH1 0x20 ADD DUP3 DUP1 SLOAD PUSH2 0x24A SWAP1 PUSH2 0x1769 JUMP JUMPDEST DUP1 ISZERO PUSH2 0x297 JUMPI DUP1 PUSH1 0x1F LT PUSH2 0x26C JUMPI PUSH2 0x100 DUP1 DUP4 SLOAD DIV MUL DUP4 MSTORE SWAP2 PUSH1 0x20 ADD SWAP2 PUSH2 0x297 JUMP JUMPDEST DUP3 ADD SWAP2 SWAP1 PUSH1 0x0 MSTORE PUSH1 0x20 PUSH1 0x0 KECCAK256 SWAP1 JUMPDEST DUP2 SLOAD DUP2 MSTORE SWAP1 PUSH1 0x1 ADD SWAP1 PUSH1 0x20 ADD DUP1 DUP4 GT PUSH2 0x27A JUMPI DUP3 SWAP1 SUB PUSH1 0x1F AND DUP3 ADD SWAP2 JUMPDEST POP POP POP POP POP SWAP1 DUP1 PUSH1 0x4 ADD DUP1 SLOAD PUSH2 0x2AC SWAP1 PUSH2 0x1769 JUMP JUMPDEST DUP1 PUSH1 0x1F ADD PUSH1 0x20 DUP1 SWAP2 DIV MUL PUSH1 0x20 ADD PUSH1 0x40 MLOAD SWAP1 DUP2 ADD PUSH1 0x40 MSTORE DUP1 SWAP3 SWAP2 SWAP1 DUP2 DUP2 MSTORE PUSH1 0x20 ADD DUP3 DUP1 SLOAD PUSH2 0x2D8 SWAP1 PUSH2 0x1769 JUMP JUMPDEST DUP1 ISZERO PUSH2 0x325 JUMPI DUP1 PUSH1 0x1F LT PUSH2 0x2FA JUMPI PUSH2 0x100 DUP1 DUP4 SLOAD DIV MUL DUP4 MSTORE SWAP2 PUSH1 0x20 ADD SWAP2 PUSH2 0x325 JUMP JUMPDEST DUP3 ADD SWAP2 SWAP1 PUSH1 0x0 MSTORE PUSH1 0x20 PUSH1 0x0 KECCAK256 SWAP1 JUMPDEST DUP2 SLOAD DUP2 MSTORE SWAP1 PUSH1 0x1 ADD SWAP1 PUSH1 0x20 ADD DUP1 DUP4 GT PUSH2 0x308 JUMPI DUP3 SWAP1 SUB PUSH1 0x1F AND DUP3 ADD SWAP2 JUMPDEST POP POP POP POP POP SWAP1 DUP1 PUSH1 0x5 ADD SLOAD SWAP1 DUP1 PUSH1 0x6 ADD DUP1 SLOAD PUSH2 0x340 SWAP1 PUSH2 0x1769 JUMP JUMPDEST DUP1 PUSH1 0x1F ADD PUSH1 0x20 DUP1 SWAP2 DIV MUL PUSH1 0x20 ADD PUSH1 0x40 MLOAD SWAP1 DUP2 ADD PUSH1 0x40 MSTORE DUP1 SWAP3 SWAP2 SWAP1 DUP2 DUP2 MSTORE PUSH1 0x20 ADD DUP3 DUP1 SLOAD PUSH2 0x36C SWAP1 PUSH2 0x1769 JUMP JUMPDEST DUP1 ISZERO PUSH2 0x3B9 JUMPI DUP1 PUSH1 0x1F LT PUSH2 0x38E JUMPI PUSH2 0x100 DUP1 DUP4 SLOAD DIV MUL DUP4 MSTORE SWAP2 PUSH1 0x20 ADD SWAP2 PUSH2 0x3B9 JUMP JUMPDEST DUP3 ADD SWAP2 SWAP1 PUSH1 0x0 MSTORE PUSH1 0x20 PUSH1 0x0 KECCAK256 SWAP1 JUMPDEST DUP2 SLOAD DUP2 MSTORE SWAP1 PUSH1 0x1 ADD SWAP1 PUSH1 0x20 ADD DUP1 DUP4 GT PUSH2 0x39C JUMPI DUP3 SWAP1 SUB PUSH1 0x1F AND DUP3 ADD SWAP2 JUMPDEST POP POP POP POP POP SWAP1 DUP1 PUSH1 0x7 ADD PUSH1 0x40 MLOAD DUP1 PUSH1 0xA0 ADD PUSH1 0x40 MSTORE SWAP1 DUP2 PUSH1 0x0 DUP3 ADD DUP1 SLOAD PUSH2 0x3DE SWAP1 PUSH2 0x1769 JUMP JUMPDEST DUP1 PUSH1 0x1F ADD PUSH1 0x20 DUP1 SWAP2 DIV MUL PUSH1 0x20 ADD PUSH1 0x40 MLOAD SWAP1 DUP2 ADD PUSH1 0x40 MSTORE DUP1 SWAP3 SWAP2 SWAP1 DUP2 DUP2 MSTORE PUSH1 0x20 ADD DUP3 DUP1 SLOAD PUSH2 0x40A SWAP1 PUSH2 0x1769 JUMP JUMPDEST DUP1 ISZERO PUSH2 0x457 JUMPI DUP1 PUSH1 0x1F LT PUSH2 0x42C JUMPI PUSH2 0x100 DUP1 DUP4 SLOAD DIV MUL DUP4 MSTORE SWAP2 PUSH1 0x20 ADD SWAP2 PUSH2 0x457 JUMP JUMPDEST DUP3 ADD SWAP2 SWAP1 PUSH1 0x0 MSTORE PUSH1 0x20 PUSH1 0x0 KECCAK256 SWAP1 JUMPDEST DUP2 SLOAD DUP2 MSTORE SWAP1 PUSH1 0x1 ADD SWAP1 PUSH1 0x20 ADD DUP1 DUP4 GT PUSH2 0x43A JUMPI DUP3 SWAP1 SUB PUSH1 0x1F AND DUP3 ADD SWAP2 JUMPDEST POP POP POP POP POP DUP2 MSTORE PUSH1 0x20 ADD PUSH1 0x1 DUP3 ADD DUP1 SLOAD PUSH2 0x470 SWAP1 PUSH2 0x1769 JUMP JUMPDEST DUP1 PUSH1 0x1F ADD PUSH1 0x20 DUP1 SWAP2 DIV MUL PUSH1 0x20 ADD PUSH1 0x40 MLOAD SWAP1 DUP2 ADD PUSH1 0x40 MSTORE DUP1 SWAP3 SWAP2 SWAP1 DUP2 DUP2 MSTORE PUSH1 0x20 ADD DUP3 DUP1 SLOAD PUSH2 0x49C SWAP1 PUSH2 0x1769 JUMP JUMPDEST DUP1 ISZERO PUSH2 0x4E9 JUMPI DUP1 PUSH1 0x1F LT PUSH2 0x4BE JUMPI PUSH2 0x100 DUP1 DUP4 SLOAD DIV MUL DUP4 MSTORE SWAP2 PUSH1 0x20 ADD SWAP2 PUSH2 0x4E9 JUMP JUMPDEST DUP3 ADD SWAP2 SWAP1 PUSH1 0x0 MSTORE PUSH1 0x20 PUSH1 0x0 KECCAK256 SWAP1 JUMPDEST DUP2 SLOAD DUP2 MSTORE SWAP1 PUSH1 0x1 ADD SWAP1 PUSH1 0x20 ADD DUP1 DUP4 GT PUSH2 0x4CC JUMPI DUP3 SWAP1 SUB PUSH1 0x1F AND DUP3 ADD SWAP2 JUMPDEST POP POP POP POP POP DUP2 MSTORE PUSH1 0x20 ADD PUSH1 0x2 DUP3 ADD DUP1 SLOAD PUSH2 0x502 SWAP1 PUSH2 0x1769 JUMP JUMPDEST DUP1 PUSH1 0x1F ADD PUSH1 0x20 DUP1 SWAP2 DIV MUL PUSH1 0x20 ADD PUSH1 0x40 MLOAD SWAP1 DUP2 ADD PUSH1 0x40 MSTORE DUP1 SWAP3 SWAP2 SWAP1 DUP2 DUP2 MSTORE PUSH1 0x20 ADD DUP3 DUP1 SLOAD PUSH2 0x52E SWAP1 PUSH2 0x1769 JUMP JUMPDEST DUP1 ISZERO PUSH2 0x57B JUMPI DUP1 PUSH1 0x1F LT PUSH2 0x550 JUMPI PUSH2 0x100 DUP1 DUP4 SLOAD DIV MUL DUP4 MSTORE SWAP2 PUSH1 0x20 ADD SWAP2 PUSH2 0x57B JUMP JUMPDEST DUP3 ADD SWAP2 SWAP1 PUSH1 0x0 MSTORE PUSH1 0x20 PUSH1 0x0 KECCAK256 SWAP1 JUMPDEST DUP2 SLOAD DUP2 MSTORE SWAP1 PUSH1 0x1 ADD SWAP1 PUSH1 0x20 ADD DUP1 DUP4 GT PUSH2 0x55E JUMPI DUP3 SWAP1 SUB PUSH1 0x1F AND DUP3 ADD SWAP2 JUMPDEST POP POP POP POP POP DUP2 MSTORE PUSH1 0x20 ADD PUSH1 0x3 DUP3 ADD DUP1 SLOAD PUSH2 0x594 SWAP1 PUSH2 0x1769 JUMP JUMPDEST DUP1 PUSH1 0x1F ADD PUSH1 0x20 DUP1 SWAP2 DIV MUL PUSH1 0x20 ADD PUSH1 0x40 MLOAD SWAP1 DUP2 ADD PUSH1 0x40 MSTORE DUP1 SWAP3 SWAP2 SWAP1 DUP2 DUP2 MSTORE PUSH1 0x20 ADD DUP3 DUP1 SLOAD PUSH2 0x5C0 SWAP1 PUSH2 0x1769 JUMP JUMPDEST DUP1 ISZERO PUSH2 0x60D JUMPI DUP1 PUSH1 0x1F LT PUSH2 0x5E2 JUMPI PUSH2 0x100 DUP1 DUP4 SLOAD DIV MUL DUP4 MSTORE SWAP2 PUSH1 0x20 ADD SWAP2 PUSH2 0x60D JUMP JUMPDEST DUP3 ADD SWAP2 SWAP1 PUSH1 0x0 MSTORE PUSH1 0x20 PUSH1 0x0 KECCAK256 SWAP1 JUMPDEST DUP2 SLOAD DUP2 MSTORE SWAP1 PUSH1 0x1 ADD SWAP1 PUSH1 0x20 ADD DUP1 DUP4 GT PUSH2 0x5F0 JUMPI DUP3 SWAP1 SUB PUSH1 0x1F AND DUP3 ADD SWAP2 JUMPDEST POP POP POP POP POP DUP2 MSTORE PUSH1 0x20 ADD PUSH1 0x4 DUP3 ADD DUP1 SLOAD PUSH2 0x626 SWAP1 PUSH2 0x1769 JUMP JUMPDEST DUP1 PUSH1 0x1F ADD PUSH1 0x20 DUP1 SWAP2 DIV MUL PUSH1 0x20 ADD PUSH1 0x40 MLOAD SWAP1 DUP2 ADD PUSH1 0x40 MSTORE DUP1 SWAP3 SWAP2 SWAP1 DUP2 DUP2 MSTORE PUSH1 0x20 ADD DUP3 DUP1 SLOAD PUSH2 0x652 SWAP1 PUSH2 0x1769 JUMP JUMPDEST DUP1 ISZERO PUSH2 0x69F JUMPI DUP1 PUSH1 0x1F LT PUSH2 0x674 JUMPI PUSH2 0x100 DUP1 DUP4 SLOAD DIV MUL DUP4 MSTORE SWAP2 PUSH1 0x20 ADD SWAP2 PUSH2 0x69F JUMP JUMPDEST DUP3 ADD SWAP2 SWAP1 PUSH1 0x0 MSTORE PUSH1 0x20 PUSH1 0x0 KECCAK256 SWAP1 JUMPDEST DUP2 SLOAD DUP2 MSTORE SWAP1 PUSH1 0x1 ADD SWAP1 PUSH1 0x20 ADD DUP1 DUP4 GT PUSH2 0x682 JUMPI DUP3 SWAP1 SUB PUSH1 0x1F AND DUP3 ADD SWAP2 JUMPDEST POP POP POP POP POP DUP2 MSTORE POP POP SWAP1 DUP1 PUSH1 0xC ADD PUSH1 0x40 MLOAD DUP1 PUSH1 0x60 ADD PUSH1 0x40 MSTORE SWAP1 DUP2 PUSH1 0x0 DUP3 ADD DUP1 SLOAD DUP1 PUSH1 0x20 MUL PUSH1 0x20 ADD PUSH1 0x40 MLOAD SWAP1 DUP2 ADD PUSH1 0x40 MSTORE DUP1 SWAP3 SWAP2 SWAP1 DUP2 DUP2 MSTORE PUSH1 0x20 ADD PUSH1 0x0 SWAP1 JUMPDEST DUP3 DUP3 LT ISZERO PUSH2 0x789 JUMPI DUP4 DUP3 SWAP1 PUSH1 0x0 MSTORE PUSH1 0x20 PUSH1 0x0 KECCAK256 ADD DUP1 SLOAD PUSH2 0x6FC SWAP1 PUSH2 0x1769 JUMP JUMPDEST DUP1 PUSH1 0x1F ADD PUSH1 0x20 DUP1 SWAP2 DIV MUL PUSH1 0x20 ADD PUSH1 0x40 MLOAD SWAP1 DUP2 ADD PUSH1 0x40 MSTORE DUP1 SWAP3 SWAP2 SWAP1 DUP2 DUP2 MSTORE PUSH1 0x20 ADD DUP3 DUP1 SLOAD PUSH2 0x728 SWAP1 PUSH2 0x1769 JUMP JUMPDEST DUP1 ISZERO PUSH2 0x775 JUMPI DUP1 PUSH1 0x1F LT PUSH2 0x74A JUMPI PUSH2 0x100 DUP1 DUP4 SLOAD DIV MUL DUP4 MSTORE SWAP2 PUSH1 0x20 ADD SWAP2 PUSH2 0x775 JUMP JUMPDEST DUP3 ADD SWAP2 SWAP1 PUSH1 0x0 MSTORE PUSH1 0x20 PUSH1 0x0 KECCAK256 SWAP1 JUMPDEST DUP2 SLOAD DUP2 MSTORE SWAP1 PUSH1 0x1 ADD SWAP1 PUSH1 0x20 ADD DUP1 DUP4 GT PUSH2 0x758 JUMPI DUP3 SWAP1 SUB PUSH1 0x1F AND DUP3 ADD SWAP2 JUMPDEST POP POP POP POP POP DUP2 MSTORE PUSH1 0x20 ADD SWAP1 PUSH1 0x1 ADD SWAP1 PUSH2 0x6DD JUMP JUMPDEST POP POP POP POP DUP2 MSTORE PUSH1 0x20 ADD PUSH1 0x1 DUP3 ADD DUP1 SLOAD DUP1 PUSH1 0x20 MUL PUSH1 0x20 ADD PUSH1 0x40 MLOAD SWAP1 DUP2 ADD PUSH1 0x40 MSTORE DUP1 SWAP3 SWAP2 SWAP1 DUP2 DUP2 MSTORE PUSH1 0x20 ADD PUSH1 0x0 SWAP1 JUMPDEST DUP3 DUP3 LT ISZERO PUSH2 0x862 JUMPI DUP4 DUP3 SWAP1 PUSH1 0x0 MSTORE PUSH1 0x20 PUSH1 0x0 KECCAK256 ADD DUP1 SLOAD PUSH2 0x7D5 SWAP1 PUSH2 0x1769 JUMP JUMPDEST DUP1 PUSH1 0x1F ADD PUSH1 0x20 DUP1 SWAP2 DIV MUL PUSH1 0x20 ADD PUSH1 0x40 MLOAD SWAP1 DUP2 ADD PUSH1 0x40 MSTORE DUP1 SWAP3 SWAP2 SWAP1 DUP2 DUP2 MSTORE PUSH1 0x20 ADD DUP3 DUP1 SLOAD PUSH2 0x801 SWAP1 PUSH2 0x1769 JUMP JUMPDEST DUP1 ISZERO PUSH2 0x84E JUMPI DUP1 PUSH1 0x1F LT PUSH2 0x823 JUMPI PUSH2 0x100 DUP1 DUP4 SLOAD DIV MUL DUP4 MSTORE SWAP2 PUSH1 0x20 ADD SWAP2 PUSH2 0x84E JUMP JUMPDEST DUP3 ADD SWAP2 SWAP1 PUSH1 0x0 MSTORE PUSH1 0x20 PUSH1 0x0 KECCAK256 SWAP1 JUMPDEST DUP2 SLOAD DUP2 MSTORE SWAP1 PUSH1 0x1 ADD SWAP1 PUSH1 0x20 ADD DUP1 DUP4 GT PUSH2 0x831 JUMPI DUP3 SWAP1 SUB PUSH1 0x1F AND DUP3 ADD SWAP2 JUMPDEST POP POP POP POP POP DUP2 MSTORE PUSH1 0x20 ADD SWAP1 PUSH1 0x1 ADD SWAP1 PUSH2 0x7B6 JUMP JUMPDEST POP POP POP POP DUP2 MSTORE PUSH1 0x20 ADD PUSH1 0x2 DUP3 ADD DUP1 SLOAD DUP1 PUSH1 0x20 MUL PUSH1 0x20 ADD PUSH1 0x40 MLOAD SWAP1 DUP2 ADD PUSH1 0x40 MSTORE DUP1 SWAP3 SWAP2 SWAP1 DUP2 DUP2 MSTORE PUSH1 0x20 ADD PUSH1 0x0 SWAP1 JUMPDEST DUP3 DUP3 LT ISZERO PUSH2 0x93B JUMPI DUP4 DUP3 SWAP1 PUSH1 0x0 MSTORE PUSH1 0x20 PUSH1 0x0 KECCAK256 ADD DUP1 SLOAD PUSH2 0x8AE SWAP1 PUSH2 0x1769 JUMP JUMPDEST DUP1 PUSH1 0x1F ADD PUSH1 0x20 DUP1 SWAP2 DIV MUL PUSH1 0x20 ADD PUSH1 0x40 MLOAD SWAP1 DUP2 ADD PUSH1 0x40 MSTORE DUP1 SWAP3 SWAP2 SWAP1 DUP2 DUP2 MSTORE PUSH1 0x20 ADD DUP3 DUP1 SLOAD PUSH2 0x8DA SWAP1 PUSH2 0x1769 JUMP JUMPDEST DUP1 ISZERO PUSH2 0x927 JUMPI DUP1 PUSH1 0x1F LT PUSH2 0x8FC JUMPI PUSH2 0x100 DUP1 DUP4 SLOAD DIV MUL DUP4 MSTORE SWAP2 PUSH1 0x20 ADD SWAP2 PUSH2 0x927 JUMP JUMPDEST DUP3 ADD SWAP2 SWAP1 PUSH1 0x0 MSTORE PUSH1 0x20 PUSH1 0x0 KECCAK256 SWAP1 JUMPDEST DUP2 SLOAD DUP2 MSTORE SWAP1 PUSH1 0x1 ADD SWAP1 PUSH1 0x20 ADD DUP1 DUP4 GT PUSH2 0x90A JUMPI DUP3 SWAP1 SUB PUSH1 0x1F AND DUP3 ADD SWAP2 JUMPDEST POP POP POP POP POP DUP2 MSTORE PUSH1 0x20 ADD SWAP1 PUSH1 0x1 ADD SWAP1 PUSH2 0x88F JUMP JUMPDEST POP POP POP POP DUP2 MSTORE POP POP SWAP1 POP DUP10 JUMP JUMPDEST JUMP JUMPDEST DUP9 PUSH1 0x0 DUP1 CALLER PUSH20 0xFFFFFFFFFFFFFFFFFFFFFFFFFFFFFFFFFFFFFFFF AND PUSH20 0xFFFFFFFFFFFFFFFFFFFFFFFFFFFFFFFFFFFFFFFF AND DUP2 MSTORE PUSH1 0x20 ADD SWAP1 DUP2 MSTORE PUSH1 0x20 ADD PUSH1 0x0 KECCAK256 PUSH1 0x1 ADD SWAP1 DUP1 MLOAD SWAP1 PUSH1 0x20 ADD SWAP1 PUSH2 0x99F SWAP3 SWAP2 SWAP1 PUSH2 0xE80 JUMP JUMPDEST POP DUP8 PUSH1 0x0 DUP1 CALLER PUSH20 0xFFFFFFFFFFFFFFFFFFFFFFFFFFFFFFFFFFFFFFFF AND PUSH20 0xFFFFFFFFFFFFFFFFFFFFFFFFFFFFFFFFFFFFFFFF AND DUP2 MSTORE PUSH1 0x20 ADD SWAP1 DUP2 MSTORE PUSH1 0x20 ADD PUSH1 0x0 KECCAK256 PUSH1 0x2 ADD SWAP1 DUP1 MLOAD SWAP1 PUSH1 0x20 ADD SWAP1 PUSH2 0x9F5 SWAP3 SWAP2 SWAP1 PUSH2 0xE80 JUMP JUMPDEST POP DUP7 PUSH1 0x0 DUP1 CALLER PUSH20 0xFFFFFFFFFFFFFFFFFFFFFFFFFFFFFFFFFFFFFFFF AND PUSH20 0xFFFFFFFFFFFFFFFFFFFFFFFFFFFFFFFFFFFFFFFF AND DUP2 MSTORE PUSH1 0x20 ADD SWAP1 DUP2 MSTORE PUSH1 0x20 ADD PUSH1 0x0 KECCAK256 PUSH1 0x3 ADD SWAP1 DUP1 MLOAD SWAP1 PUSH1 0x20 ADD SWAP1 PUSH2 0xA4B SWAP3 SWAP2 SWAP1 PUSH2 0xE80 JUMP JUMPDEST POP DUP4 PUSH1 0x0 DUP1 CALLER PUSH20 0xFFFFFFFFFFFFFFFFFFFFFFFFFFFFFFFFFFFFFFFF AND PUSH20 0xFFFFFFFFFFFFFFFFFFFFFFFFFFFFFFFFFFFFFFFF AND DUP2 MSTORE PUSH1 0x20 ADD SWAP1 DUP2 MSTORE PUSH1 0x20 ADD PUSH1 0x0 KECCAK256 PUSH1 0x4 ADD SWAP1 DUP1 MLOAD SWAP1 PUSH1 0x20 ADD SWAP1 PUSH2 0xAA1 SWAP3 SWAP2 SWAP1 PUSH2 0xE80 JUMP JUMPDEST POP CALLER PUSH1 0x0 DUP1 CALLER PUSH20 0xFFFFFFFFFFFFFFFFFFFFFFFFFFFFFFFFFFFFFFFF AND PUSH20 0xFFFFFFFFFFFFFFFFFFFFFFFFFFFFFFFFFFFFFFFF AND DUP2 MSTORE PUSH1 0x20 ADD SWAP1 DUP2 MSTORE PUSH1 0x20 ADD PUSH1 0x0 KECCAK256 PUSH1 0x0 ADD PUSH1 0x0 PUSH2 0x100 EXP DUP2 SLOAD DUP2 PUSH20 0xFFFFFFFFFFFFFFFFFFFFFFFFFFFFFFFFFFFFFFFF MUL NOT AND SWAP1 DUP4 PUSH20 0xFFFFFFFFFFFFFFFFFFFFFFFFFFFFFFFFFFFFFFFF AND MUL OR SWAP1 SSTORE POP TIMESTAMP PUSH1 0x0 DUP1 CALLER PUSH20 0xFFFFFFFFFFFFFFFFFFFFFFFFFFFFFFFFFFFFFFFF AND PUSH20 0xFFFFFFFFFFFFFFFFFFFFFFFFFFFFFFFFFFFFFFFF AND DUP2 MSTORE PUSH1 0x20 ADD SWAP1 DUP2 MSTORE PUSH1 0x20 ADD PUSH1 0x0 KECCAK256 PUSH1 0x5 ADD DUP2 SWAP1 SSTORE POP DUP6 PUSH1 0x0 DUP1 CALLER PUSH20 0xFFFFFFFFFFFFFFFFFFFFFFFFFFFFFFFFFFFFFFFF AND PUSH20 0xFFFFFFFFFFFFFFFFFFFFFFFFFFFFFFFFFFFFFFFF AND DUP2 MSTORE PUSH1 0x20 ADD SWAP1 DUP2 MSTORE PUSH1 0x20 ADD PUSH1 0x0 KECCAK256 PUSH1 0x7 ADD PUSH1 0x0 ADD SWAP1 DUP1 MLOAD SWAP1 PUSH1 0x20 ADD SWAP1 PUSH2 0xBC0 SWAP3 SWAP2 SWAP1 PUSH2 0xE80 JUMP JUMPDEST POP DUP5 PUSH1 0x0 DUP1 CALLER PUSH20 0xFFFFFFFFFFFFFFFFFFFFFFFFFFFFFFFFFFFFFFFF AND PUSH20 0xFFFFFFFFFFFFFFFFFFFFFFFFFFFFFFFFFFFFFFFF AND DUP2 MSTORE PUSH1 0x20 ADD SWAP1 DUP2 MSTORE PUSH1 0x20 ADD PUSH1 0x0 KECCAK256 PUSH1 0x7 ADD PUSH1 0x1 ADD SWAP1 DUP1 MLOAD SWAP1 PUSH1 0x20 ADD SWAP1 PUSH2 0xC19 SWAP3 SWAP2 SWAP1 PUSH2 0xE80 JUMP JUMPDEST POP DUP3 PUSH1 0x0 DUP1 CALLER PUSH20 0xFFFFFFFFFFFFFFFFFFFFFFFFFFFFFFFFFFFFFFFF AND PUSH20 0xFFFFFFFFFFFFFFFFFFFFFFFFFFFFFFFFFFFFFFFF AND DUP2 MSTORE PUSH1 0x20 ADD SWAP1 DUP2 MSTORE PUSH1 0x20 ADD PUSH1 0x0 KECCAK256 PUSH1 0xC ADD PUSH1 0x0 ADD SWAP1 DUP1 MLOAD SWAP1 PUSH1 0x20 ADD SWAP1 PUSH2 0xC72 SWAP3 SWAP2 SWAP1 PUSH2 0xF06 JUMP JUMPDEST POP DUP2 PUSH1 0x0 DUP1 CALLER PUSH20 0xFFFFFFFFFFFFFFFFFFFFFFFFFFFFFFFFFFFFFFFF AND PUSH20 0xFFFFFFFFFFFFFFFFFFFFFFFFFFFFFFFFFFFFFFFF AND DUP2 MSTORE PUSH1 0x20 ADD SWAP1 DUP2 MSTORE PUSH1 0x20 ADD PUSH1 0x0 KECCAK256 PUSH1 0xC ADD PUSH1 0x1 ADD SWAP1 DUP1 MLOAD SWAP1 PUSH1 0x20 ADD SWAP1 PUSH2 0xCCB SWAP3 SWAP2 SWAP1 PUSH2 0xF06 JUMP JUMPDEST POP DUP1 PUSH1 0x0 DUP1 CALLER PUSH20 0xFFFFFFFFFFFFFFFFFFFFFFFFFFFFFFFFFFFFFFFF AND PUSH20 0xFFFFFFFFFFFFFFFFFFFFFFFFFFFFFFFFFFFFFFFF AND DUP2 MSTORE PUSH1 0x20 ADD SWAP1 DUP2 MSTORE PUSH1 0x20 ADD PUSH1 0x0 KECCAK256 PUSH1 0xC ADD PUSH1 0x2 ADD SWAP1 DUP1 MLOAD SWAP1 PUSH1 0x20 ADD SWAP1 PUSH2 0xD24 SWAP3 SWAP2 SWAP1 PUSH2 0xF06 JUMP JUMPDEST POP POP POP POP POP POP POP POP POP POP JUMP JUMPDEST PUSH1 0x0 DUP1 CALLER PUSH20 0xFFFFFFFFFFFFFFFFFFFFFFFFFFFFFFFFFFFFFFFF AND PUSH20 0xFFFFFFFFFFFFFFFFFFFFFFFFFFFFFFFFFFFFFFFF AND DUP2 MSTORE PUSH1 0x20 ADD SWAP1 DUP2 MSTORE PUSH1 0x20 ADD PUSH1 0x0 KECCAK256 PUSH1 0x0 DUP1 DUP3 ADD PUSH1 0x0 PUSH2 0x100 EXP DUP2 SLOAD SWAP1 PUSH20 0xFFFFFFFFFFFFFFFFFFFFFFFFFFFFFFFFFFFFFFFF MUL NOT AND SWAP1 SSTORE PUSH1 0x1 DUP3 ADD PUSH1 0x0 PUSH2 0xDA6 SWAP2 SWAP1 PUSH2 0xF66 JUMP JUMPDEST PUSH1 0x2 DUP3 ADD PUSH1 0x0 PUSH2 0xDB6 SWAP2 SWAP1 PUSH2 0xF66 JUMP JUMPDEST PUSH1 0x3 DUP3 ADD PUSH1 0x0 PUSH2 0xDC6 SWAP2 SWAP1 PUSH2 0xF66 JUMP JUMPDEST PUSH1 0x4 DUP3 ADD PUSH1 0x0 PUSH2 0xDD6 SWAP2 SWAP1 PUSH2 0xF66 JUMP JUMPDEST PUSH1 0x5 DUP3 ADD PUSH1 0x0 SWAP1 SSTORE PUSH1 0x6 DUP3 ADD PUSH1 0x0 PUSH2 0xDEE SWAP2 SWAP1 PUSH2 0xF66 JUMP JUMPDEST PUSH1 0x7 DUP3 ADD PUSH1 0x0 DUP1 DUP3 ADD PUSH1 0x0 PUSH2 0xE03 SWAP2 SWAP1 PUSH2 0xF66 JUMP JUMPDEST PUSH1 0x1 DUP3 ADD PUSH1 0x0 PUSH2 0xE13 SWAP2 SWAP1 PUSH2 0xF66 JUMP JUMPDEST PUSH1 0x2 DUP3 ADD PUSH1 0x0 PUSH2 0xE23 SWAP2 SWAP1 PUSH2 0xF66 JUMP JUMPDEST PUSH1 0x3 DUP3 ADD PUSH1 0x0 PUSH2 0xE33 SWAP2 SWAP1 PUSH2 0xF66 JUMP JUMPDEST PUSH1 0x4 DUP3 ADD PUSH1 0x0 PUSH2 0xE43 SWAP2 SWAP1 PUSH2 0xF66 JUMP JUMPDEST POP POP PUSH1 0xC DUP3 ADD PUSH1 0x0 DUP1 DUP3 ADD PUSH1 0x0 PUSH2 0xE5A SWAP2 SWAP1 PUSH2 0xFA6 JUMP JUMPDEST PUSH1 0x1 DUP3 ADD PUSH1 0x0 PUSH2 0xE6A SWAP2 SWAP1 PUSH2 0xFA6 JUMP JUMPDEST PUSH1 0x2 DUP3 ADD PUSH1 0x0 PUSH2 0xE7A SWAP2 SWAP1 PUSH2 0xFA6 JUMP JUMPDEST POP POP POP POP JUMP JUMPDEST DUP3 DUP1 SLOAD PUSH2 0xE8C SWAP1 PUSH2 0x1769 JUMP JUMPDEST SWAP1 PUSH1 0x0 MSTORE PUSH1 0x20 PUSH1 0x0 KECCAK256 SWAP1 PUSH1 0x1F ADD PUSH1 0x20 SWAP1 DIV DUP2 ADD SWAP3 DUP3 PUSH2 0xEAE JUMPI PUSH1 0x0 DUP6 SSTORE PUSH2 0xEF5 JUMP JUMPDEST DUP3 PUSH1 0x1F LT PUSH2 0xEC7 JUMPI DUP1 MLOAD PUSH1 0xFF NOT AND DUP4 DUP1 ADD OR DUP6 SSTORE PUSH2 0xEF5 JUMP JUMPDEST DUP3 DUP1 ADD PUSH1 0x1 ADD DUP6 SSTORE DUP3 ISZERO PUSH2 0xEF5 JUMPI SWAP2 DUP3 ADD JUMPDEST DUP3 DUP2 GT ISZERO PUSH2 0xEF4 JUMPI DUP3 MLOAD DUP3 SSTORE SWAP2 PUSH1 0x20 ADD SWAP2 SWAP1 PUSH1 0x1 ADD SWAP1 PUSH2 0xED9 JUMP JUMPDEST JUMPDEST POP SWAP1 POP PUSH2 0xF02 SWAP2 SWAP1 PUSH2 0xFC7 JUMP JUMPDEST POP SWAP1 JUMP JUMPDEST DUP3 DUP1 SLOAD DUP3 DUP3 SSTORE SWAP1 PUSH1 0x0 MSTORE PUSH1 0x20 PUSH1 0x0 KECCAK256 SWAP1 DUP2 ADD SWAP3 DUP3 ISZERO PUSH2 0xF55 JUMPI SWAP2 PUSH1 0x20 MUL DUP3 ADD JUMPDEST DUP3 DUP2 GT ISZERO PUSH2 0xF54 JUMPI DUP3 MLOAD DUP3 SWAP1 DUP1 MLOAD SWAP1 PUSH1 0x20 ADD SWAP1 PUSH2 0xF44 SWAP3 SWAP2 SWAP1 PUSH2 0xE80 JUMP JUMPDEST POP SWAP2 PUSH1 0x20 ADD SWAP2 SWAP1 PUSH1 0x1 ADD SWAP1 PUSH2 0xF26 JUMP JUMPDEST JUMPDEST POP SWAP1 POP PUSH2 0xF62 SWAP2 SWAP1 PUSH2 0xFE4 JUMP JUMPDEST POP SWAP1 JUMP JUMPDEST POP DUP1 SLOAD PUSH2 0xF72 SWAP1 PUSH2 0x1769 JUMP JUMPDEST PUSH1 0x0 DUP3 SSTORE DUP1 PUSH1 0x1F LT PUSH2 0xF84 JUMPI POP PUSH2 0xFA3 JUMP JUMPDEST PUSH1 0x1F ADD PUSH1 0x20 SWAP1 DIV SWAP1 PUSH1 0x0 MSTORE PUSH1 0x20 PUSH1 0x0 KECCAK256 SWAP1 DUP2 ADD SWAP1 PUSH2 0xFA2 SWAP2 SWAP1 PUSH2 0xFC7 JUMP JUMPDEST JUMPDEST POP JUMP JUMPDEST POP DUP1 SLOAD PUSH1 0x0 DUP3 SSTORE SWAP1 PUSH1 0x0 MSTORE PUSH1 0x20 PUSH1 0x0 KECCAK256 SWAP1 DUP2 ADD SWAP1 PUSH2 0xFC4 SWAP2 SWAP1 PUSH2 0xFE4 JUMP JUMPDEST POP JUMP JUMPDEST JUMPDEST DUP1 DUP3 GT ISZERO PUSH2 0xFE0 JUMPI PUSH1 0x0 DUP2 PUSH1 0x0 SWAP1 SSTORE POP PUSH1 0x1 ADD PUSH2 0xFC8 JUMP JUMPDEST POP SWAP1 JUMP JUMPDEST JUMPDEST DUP1 DUP3 GT ISZERO PUSH2 0x1004 JUMPI PUSH1 0x0 DUP2 DUP2 PUSH2 0xFFB SWAP2 SWAP1 PUSH2 0xF66 JUMP JUMPDEST POP PUSH1 0x1 ADD PUSH2 0xFE5 JUMP JUMPDEST POP SWAP1 JUMP JUMPDEST PUSH1 0x0 PUSH2 0x101B PUSH2 0x1016 DUP5 PUSH2 0x1628 JUMP JUMPDEST PUSH2 0x1603 JUMP JUMPDEST SWAP1 POP DUP1 DUP4 DUP3 MSTORE PUSH1 0x20 DUP3 ADD SWAP1 POP DUP3 DUP6 PUSH1 0x20 DUP7 MUL DUP3 ADD GT ISZERO PUSH2 0x103E JUMPI PUSH2 0x103D PUSH2 0x182F JUMP JUMPDEST JUMPDEST PUSH1 0x0 JUMPDEST DUP6 DUP2 LT ISZERO PUSH2 0x108C JUMPI DUP2 CALLDATALOAD PUSH8 0xFFFFFFFFFFFFFFFF DUP2 GT ISZERO PUSH2 0x1064 JUMPI PUSH2 0x1063 PUSH2 0x182A JUMP JUMPDEST JUMPDEST DUP1 DUP7 ADD PUSH2 0x1071 DUP10 DUP3 PUSH2 0x111B JUMP JUMPDEST DUP6 MSTORE PUSH1 0x20 DUP6 ADD SWAP5 POP PUSH1 0x20 DUP5 ADD SWAP4 POP POP POP PUSH1 0x1 DUP2 ADD SWAP1 POP PUSH2 0x1041 JUMP JUMPDEST POP POP POP SWAP4 SWAP3 POP POP POP JUMP JUMPDEST PUSH1 0x0 PUSH2 0x10A9 PUSH2 0x10A4 DUP5 PUSH2 0x1654 JUMP JUMPDEST PUSH2 0x1603 JUMP JUMPDEST SWAP1 POP DUP3 DUP2 MSTORE PUSH1 0x20 DUP2 ADD DUP5 DUP5 DUP5 ADD GT ISZERO PUSH2 0x10C5 JUMPI PUSH2 0x10C4 PUSH2 0x1834 JUMP JUMPDEST JUMPDEST PUSH2 0x10D0 DUP5 DUP3 DUP6 PUSH2 0x1727 JUMP JUMPDEST POP SWAP4 SWAP3 POP POP POP JUMP JUMPDEST PUSH1 0x0 DUP2 CALLDATALOAD SWAP1 POP PUSH2 0x10E7 DUP2 PUSH2 0x1854 JUMP JUMPDEST SWAP3 SWAP2 POP POP JUMP JUMPDEST PUSH1 0x0 DUP3 PUSH1 0x1F DUP4 ADD SLT PUSH2 0x1102 JUMPI PUSH2 0x1101 PUSH2 0x182A JUMP JUMPDEST JUMPDEST DUP2 CALLDATALOAD PUSH2 0x1112 DUP5 DUP3 PUSH1 0x20 DUP7 ADD PUSH2 0x1008 JUMP JUMPDEST SWAP2 POP POP SWAP3 SWAP2 POP POP JUMP JUMPDEST PUSH1 0x0 DUP3 PUSH1 0x1F DUP4 ADD SLT PUSH2 0x1130 JUMPI PUSH2 0x112F PUSH2 0x182A JUMP JUMPDEST JUMPDEST DUP2 CALLDATALOAD PUSH2 0x1140 DUP5 DUP3 PUSH1 0x20 DUP7 ADD PUSH2 0x1096 JUMP JUMPDEST SWAP2 POP POP SWAP3 SWAP2 POP POP JUMP JUMPDEST PUSH1 0x0 PUSH1 0x20 DUP3 DUP5 SUB SLT ISZERO PUSH2 0x115F JUMPI PUSH2 0x115E PUSH2 0x183E JUMP JUMPDEST JUMPDEST PUSH1 0x0 PUSH2 0x116D DUP5 DUP3 DUP6 ADD PUSH2 0x10D8 JUMP JUMPDEST SWAP2 POP POP SWAP3 SWAP2 POP POP JUMP JUMPDEST PUSH1 0x0 DUP1 PUSH1 0x0 DUP1 PUSH1 0x0 DUP1 PUSH1 0x0 DUP1 PUSH1 0x0 PUSH2 0x120 DUP11 DUP13 SUB SLT ISZERO PUSH2 0x1199 JUMPI PUSH2 0x1198 PUSH2 0x183E JUMP JUMPDEST JUMPDEST PUSH1 0x0 DUP11 ADD CALLDATALOAD PUSH8 0xFFFFFFFFFFFFFFFF DUP2 GT ISZERO PUSH2 0x11B7 JUMPI PUSH2 0x11B6 PUSH2 0x1839 JUMP JUMPDEST JUMPDEST PUSH2 0x11C3 DUP13 DUP3 DUP14 ADD PUSH2 0x111B JUMP JUMPDEST SWAP10 POP POP PUSH1 0x20 DUP11 ADD CALLDATALOAD PUSH8 0xFFFFFFFFFFFFFFFF DUP2 GT ISZERO PUSH2 0x11E4 JUMPI PUSH2 0x11E3 PUSH2 0x1839 JUMP JUMPDEST JUMPDEST PUSH2 0x11F0 DUP13 DUP3 DUP14 ADD PUSH2 0x111B JUMP JUMPDEST SWAP9 POP POP PUSH1 0x40 DUP11 ADD CALLDATALOAD PUSH8 0xFFFFFFFFFFFFFFFF DUP2 GT ISZERO PUSH2 0x1211 JUMPI PUSH2 0x1210 PUSH2 0x1839 JUMP JUMPDEST JUMPDEST PUSH2 0x121D DUP13 DUP3 DUP14 ADD PUSH2 0x111B JUMP JUMPDEST SWAP8 POP POP PUSH1 0x60 DUP11 ADD CALLDATALOAD PUSH8 0xFFFFFFFFFFFFFFFF DUP2 GT ISZERO PUSH2 0x123E JUMPI PUSH2 0x123D PUSH2 0x1839 JUMP JUMPDEST JUMPDEST PUSH2 0x124A DUP13 DUP3 DUP14 ADD PUSH2 0x111B JUMP JUMPDEST SWAP7 POP POP PUSH1 0x80 DUP11 ADD CALLDATALOAD PUSH8 0xFFFFFFFFFFFFFFFF DUP2 GT ISZERO PUSH2 0x126B JUMPI PUSH2 0x126A PUSH2 0x1839 JUMP JUMPDEST JUMPDEST PUSH2 0x1277 DUP13 DUP3 DUP14 ADD PUSH2 0x111B JUMP JUMPDEST SWAP6 POP POP PUSH1 0xA0 DUP11 ADD CALLDATALOAD PUSH8 0xFFFFFFFFFFFFFFFF DUP2 GT ISZERO PUSH2 0x1298 JUMPI PUSH2 0x1297 PUSH2 0x1839 JUMP JUMPDEST JUMPDEST PUSH2 0x12A4 DUP13 DUP3 DUP14 ADD PUSH2 0x111B JUMP JUMPDEST SWAP5 POP POP PUSH1 0xC0 DUP11 ADD CALLDATALOAD PUSH8 0xFFFFFFFFFFFFFFFF DUP2 GT ISZERO PUSH2 0x12C5 JUMPI PUSH2 0x12C4 PUSH2 0x1839 JUMP JUMPDEST JUMPDEST PUSH2 0x12D1 DUP13 DUP3 DUP14 ADD PUSH2 0x10ED JUMP JUMPDEST SWAP4 POP POP PUSH1 0xE0 DUP11 ADD CALLDATALOAD PUSH8 0xFFFFFFFFFFFFFFFF DUP2 GT ISZERO PUSH2 0x12F2 JUMPI PUSH2 0x12F1 PUSH2 0x1839 JUMP JUMPDEST JUMPDEST PUSH2 0x12FE DUP13 DUP3 DUP14 ADD PUSH2 0x10ED JUMP JUMPDEST SWAP3 POP POP PUSH2 0x100 DUP11 ADD CALLDATALOAD PUSH8 0xFFFFFFFFFFFFFFFF DUP2 GT ISZERO PUSH2 0x1320 JUMPI PUSH2 0x131F PUSH2 0x1839 JUMP JUMPDEST JUMPDEST PUSH2 0x132C DUP13 DUP3 DUP14 ADD PUSH2 0x10ED JUMP JUMPDEST SWAP2 POP POP SWAP3 SWAP6 SWAP9 POP SWAP3 SWAP6 SWAP9 POP SWAP3 SWAP6 SWAP9 JUMP JUMPDEST PUSH1 0x0 PUSH2 0x1348 DUP4 DUP4 PUSH2 0x13D4 JUMP JUMPDEST SWAP1 POP SWAP3 SWAP2 POP POP JUMP JUMPDEST PUSH2 0x1359 DUP2 PUSH2 0x16EB JUMP JUMPDEST DUP3 MSTORE POP POP JUMP JUMPDEST PUSH1 0x0 PUSH2 0x136A DUP3 PUSH2 0x1695 JUMP JUMPDEST PUSH2 0x1374 DUP2 DUP6 PUSH2 0x16B8 JUMP JUMPDEST SWAP4 POP DUP4 PUSH1 0x20 DUP3 MUL DUP6 ADD PUSH2 0x1386 DUP6 PUSH2 0x1685 JUMP JUMPDEST DUP1 PUSH1 0x0 JUMPDEST DUP6 DUP2 LT ISZERO PUSH2 0x13C2 JUMPI DUP5 DUP5 SUB DUP10 MSTORE DUP2 MLOAD PUSH2 0x13A3 DUP6 DUP3 PUSH2 0x133C JUMP JUMPDEST SWAP5 POP PUSH2 0x13AE DUP4 PUSH2 0x16AB JUMP JUMPDEST SWAP3 POP PUSH1 0x20 DUP11 ADD SWAP10 POP POP PUSH1 0x1 DUP2 ADD SWAP1 POP PUSH2 0x138A JUMP JUMPDEST POP DUP3 SWAP8 POP DUP8 SWAP6 POP POP POP POP POP POP SWAP3 SWAP2 POP POP JUMP JUMPDEST PUSH1 0x0 PUSH2 0x13DF DUP3 PUSH2 0x16A0 JUMP JUMPDEST PUSH2 0x13E9 DUP2 DUP6 PUSH2 0x16C9 JUMP JUMPDEST SWAP4 POP PUSH2 0x13F9 DUP2 DUP6 PUSH1 0x20 DUP7 ADD PUSH2 0x1736 JUMP JUMPDEST PUSH2 0x1402 DUP2 PUSH2 0x1843 JUMP JUMPDEST DUP5 ADD SWAP2 POP POP SWAP3 SWAP2 POP POP JUMP JUMPDEST PUSH1 0x0 PUSH2 0x1418 DUP3 PUSH2 0x16A0 JUMP JUMPDEST PUSH2 0x1422 DUP2 DUP6 PUSH2 0x16DA JUMP JUMPDEST SWAP4 POP PUSH2 0x1432 DUP2 DUP6 PUSH1 0x20 DUP7 ADD PUSH2 0x1736 JUMP JUMPDEST PUSH2 0x143B DUP2 PUSH2 0x1843 JUMP JUMPDEST DUP5 ADD SWAP2 POP POP SWAP3 SWAP2 POP POP JUMP JUMPDEST PUSH1 0x0 PUSH1 0xA0 DUP4 ADD PUSH1 0x0 DUP4 ADD MLOAD DUP5 DUP3 SUB PUSH1 0x0 DUP7 ADD MSTORE PUSH2 0x1463 DUP3 DUP3 PUSH2 0x13D4 JUMP JUMPDEST SWAP2 POP POP PUSH1 0x20 DUP4 ADD MLOAD DUP5 DUP3 SUB PUSH1 0x20 DUP7 ADD MSTORE PUSH2 0x147D DUP3 DUP3 PUSH2 0x13D4 JUMP JUMPDEST SWAP2 POP POP PUSH1 0x40 DUP4 ADD MLOAD DUP5 DUP3 SUB PUSH1 0x40 DUP7 ADD MSTORE PUSH2 0x1497 DUP3 DUP3 PUSH2 0x13D4 JUMP JUMPDEST SWAP2 POP POP PUSH1 0x60 DUP4 ADD MLOAD DUP5 DUP3 SUB PUSH1 0x60 DUP7 ADD MSTORE PUSH2 0x14B1 DUP3 DUP3 PUSH2 0x13D4 JUMP JUMPDEST SWAP2 POP POP PUSH1 0x80 DUP4 ADD MLOAD DUP5 DUP3 SUB PUSH1 0x80 DUP7 ADD MSTORE PUSH2 0x14CB DUP3 DUP3 PUSH2 0x13D4 JUMP JUMPDEST SWAP2 POP POP DUP1 SWAP2 POP POP SWAP3 SWAP2 POP POP JUMP JUMPDEST PUSH1 0x0 PUSH1 0x60 DUP4 ADD PUSH1 0x0 DUP4 ADD MLOAD DUP5 DUP3 SUB PUSH1 0x0 DUP7 ADD MSTORE PUSH2 0x14F5 DUP3 DUP3 PUSH2 0x135F JUMP JUMPDEST SWAP2 POP POP PUSH1 0x20 DUP4 ADD MLOAD DUP5 DUP3 SUB PUSH1 0x20 DUP7 ADD MSTORE PUSH2 0x150F DUP3 DUP3 PUSH2 0x135F JUMP JUMPDEST SWAP2 POP POP PUSH1 0x40 DUP4 ADD MLOAD DUP5 DUP3 SUB PUSH1 0x40 DUP7 ADD MSTORE PUSH2 0x1529 DUP3 DUP3 PUSH2 0x135F JUMP JUMPDEST SWAP2 POP POP DUP1 SWAP2 POP POP SWAP3 SWAP2 POP POP JUMP JUMPDEST PUSH2 0x153F DUP2 PUSH2 0x171D JUMP JUMPDEST DUP3 MSTORE POP POP JUMP JUMPDEST PUSH1 0x0 PUSH2 0x120 DUP3 ADD SWAP1 POP PUSH2 0x155B PUSH1 0x0 DUP4 ADD DUP13 PUSH2 0x1350 JUMP JUMPDEST DUP2 DUP2 SUB PUSH1 0x20 DUP4 ADD MSTORE PUSH2 0x156D DUP2 DUP12 PUSH2 0x140D JUMP JUMPDEST SWAP1 POP DUP2 DUP2 SUB PUSH1 0x40 DUP4 ADD MSTORE PUSH2 0x1581 DUP2 DUP11 PUSH2 0x140D JUMP JUMPDEST SWAP1 POP DUP2 DUP2 SUB PUSH1 0x60 DUP4 ADD MSTORE PUSH2 0x1595 DUP2 DUP10 PUSH2 0x140D JUMP JUMPDEST SWAP1 POP DUP2 DUP2 SUB PUSH1 0x80 DUP4 ADD MSTORE PUSH2 0x15A9 DUP2 DUP9 PUSH2 0x140D JUMP JUMPDEST SWAP1 POP PUSH2 0x15B8 PUSH1 0xA0 DUP4 ADD DUP8 PUSH2 0x1536 JUMP JUMPDEST DUP2 DUP2 SUB PUSH1 0xC0 DUP4 ADD MSTORE PUSH2 0x15CA DUP2 DUP7 PUSH2 0x140D JUMP JUMPDEST SWAP1 POP DUP2 DUP2 SUB PUSH1 0xE0 DUP4 ADD MSTORE PUSH2 0x15DE DUP2 DUP6 PUSH2 0x1446 JUMP JUMPDEST SWAP1 POP DUP2 DUP2 SUB PUSH2 0x100 DUP4 ADD MSTORE PUSH2 0x15F3 DUP2 DUP5 PUSH2 0x14D8 JUMP JUMPDEST SWAP1 POP SWAP11 SWAP10 POP POP POP POP POP POP POP POP POP POP JUMP JUMPDEST PUSH1 0x0 PUSH2 0x160D PUSH2 0x161E JUMP JUMPDEST SWAP1 POP PUSH2 0x1619 DUP3 DUP3 PUSH2 0x179B JUMP JUMPDEST SWAP2 SWAP1 POP JUMP JUMPDEST PUSH1 0x0 PUSH1 0x40 MLOAD SWAP1 POP SWAP1 JUMP JUMPDEST PUSH1 0x0 PUSH8 0xFFFFFFFFFFFFFFFF DUP3 GT ISZERO PUSH2 0x1643 JUMPI PUSH2 0x1642 PUSH2 0x17FB JUMP JUMPDEST JUMPDEST PUSH1 0x20 DUP3 MUL SWAP1 POP PUSH1 0x20 DUP2 ADD SWAP1 POP SWAP2 SWAP1 POP JUMP JUMPDEST PUSH1 0x0 PUSH8 0xFFFFFFFFFFFFFFFF DUP3 GT ISZERO PUSH2 0x166F JUMPI PUSH2 0x166E PUSH2 0x17FB JUMP JUMPDEST JUMPDEST PUSH2 0x1678 DUP3 PUSH2 0x1843 JUMP JUMPDEST SWAP1 POP PUSH1 0x20 DUP2 ADD SWAP1 POP SWAP2 SWAP1 POP JUMP JUMPDEST PUSH1 0x0 DUP2 SWAP1 POP PUSH1 0x20 DUP3 ADD SWAP1 POP SWAP2 SWAP1 POP JUMP JUMPDEST PUSH1 0x0 DUP2 MLOAD SWAP1 POP SWAP2 SWAP1 POP JUMP JUMPDEST PUSH1 0x0 DUP2 MLOAD SWAP1 POP SWAP2 SWAP1 POP JUMP JUMPDEST PUSH1 0x0 PUSH1 0x20 DUP3 ADD SWAP1 POP SWAP2 SWAP1 POP JUMP JUMPDEST PUSH1 0x0 DUP3 DUP3 MSTORE PUSH1 0x20 DUP3 ADD SWAP1 POP SWAP3 SWAP2 POP POP JUMP JUMPDEST PUSH1 0x0 DUP3 DUP3 MSTORE PUSH1 0x20 DUP3 ADD SWAP1 POP SWAP3 SWAP2 POP POP JUMP JUMPDEST PUSH1 0x0 DUP3 DUP3 MSTORE PUSH1 0x20 DUP3 ADD SWAP1 POP SWAP3 SWAP2 POP POP JUMP JUMPDEST PUSH1 0x0 PUSH2 0x16F6 DUP3 PUSH2 0x16FD JUMP JUMPDEST SWAP1 POP SWAP2 SWAP1 POP JUMP JUMPDEST PUSH1 0x0 PUSH20 0xFFFFFFFFFFFFFFFFFFFFFFFFFFFFFFFFFFFFFFFF DUP3 AND SWAP1 POP SWAP2 SWAP1 POP JUMP JUMPDEST PUSH1 0x0 DUP2 SWAP1 POP SWAP2 SWAP1 POP JUMP JUMPDEST DUP3 DUP2 DUP4 CALLDATACOPY PUSH1 0x0 DUP4 DUP4 ADD MSTORE POP POP POP JUMP JUMPDEST PUSH1 0x0 JUMPDEST DUP4 DUP2 LT ISZERO PUSH2 0x1754 JUMPI DUP1 DUP3 ADD MLOAD DUP2 DUP5 ADD MSTORE PUSH1 0x20 DUP2 ADD SWAP1 POP PUSH2 0x1739 JUMP JUMPDEST DUP4 DUP2 GT ISZERO PUSH2 0x1763 JUMPI PUSH1 0x0 DUP5 DUP5 ADD MSTORE JUMPDEST POP POP POP POP JUMP JUMPDEST PUSH1 0x0 PUSH1 0x2 DUP3 DIV SWAP1 POP PUSH1 0x1 DUP3 AND DUP1 PUSH2 0x1781 JUMPI PUSH1 0x7F DUP3 AND SWAP2 POP JUMPDEST PUSH1 0x20 DUP3 LT DUP2 EQ ISZERO PUSH2 0x1795 JUMPI PUSH2 0x1794 PUSH2 0x17CC JUMP JUMPDEST JUMPDEST POP SWAP2 SWAP1 POP JUMP JUMPDEST PUSH2 0x17A4 DUP3 PUSH2 0x1843 JUMP JUMPDEST DUP2 ADD DUP2 DUP2 LT PUSH8 0xFFFFFFFFFFFFFFFF DUP3 GT OR ISZERO PUSH2 0x17C3 JUMPI PUSH2 0x17C2 PUSH2 0x17FB JUMP JUMPDEST JUMPDEST DUP1 PUSH1 0x40 MSTORE POP POP POP JUMP JUMPDEST PUSH32 0x4E487B7100000000000000000000000000000000000000000000000000000000 PUSH1 0x0 MSTORE PUSH1 0x22 PUSH1 0x4 MSTORE PUSH1 0x24 PUSH1 0x0 REVERT JUMPDEST PUSH32 0x4E487B7100000000000000000000000000000000000000000000000000000000 PUSH1 0x0 MSTORE PUSH1 0x41 PUSH1 0x4 MSTORE PUSH1 0x24 PUSH1 0x0 REVERT JUMPDEST PUSH1 0x0 DUP1 REVERT JUMPDEST PUSH1 0x0 DUP1 REVERT JUMPDEST PUSH1 0x0 DUP1 REVERT JUMPDEST PUSH1 0x0 DUP1 REVERT JUMPDEST PUSH1 0x0 DUP1 REVERT JUMPDEST PUSH1 0x0 PUSH1 0x1F NOT PUSH1 0x1F DUP4 ADD AND SWAP1 POP SWAP2 SWAP1 POP JUMP JUMPDEST PUSH2 0x185D DUP2 PUSH2 0x16EB JUMP JUMPDEST DUP2 EQ PUSH2 0x1868 JUMPI PUSH1 0x0 DUP1 REVERT JUMPDEST POP JUMP INVALID LOG2 PUSH5 0x6970667358 0x22 SLT KECCAK256 0xB3 SAR CALLCODE 0xC1 PUSH1 0xE2 0x49 CODECOPY CALLCODE DUP11 0xFC 0xAF 0x5F MUL 0xB1 ORIGIN KECCAK256 0xAF 0xAB SSTORE 0x4F PUSH15 0x5FAB1C4D55BB4368EFCA64736F6C63 NUMBER STOP ADDMOD SMOD STOP CALLER "
				},
				"gasEstimates": {
					"creation": {
						"codeDepositCost": "1261000",
						"executionCost": "1315",
						"totalCost": "1262315"
					},
					"external": {
						"addBio(string,string,string,string,string,string,string[],string[],string[])": "infinite",
						"addSkill()": "144",
						"delProfile()": "infinite",
						"profile(address)": "infinite"
					}
				},
				"methodIdentifiers": {
					"addBio(string,string,string,string,string,string,string[],string[],string[])": "ca679f1d",
					"addSkill()": "c093e9a6",
					"delProfile()": "fabce08f",
					"profile(address)": "9dd9d0fd"
				}
			},
			"storageLayout": {
				"storage": [
					{
						"astId": 27,
						"contract": "contracts/Profile.sol:Profile",
						"label": "profile",
						"offset": 0,
						"slot": "0",
						"type": "t_mapping(t_address,t_struct(Bio)22_storage)"
					}
				],
				"types": {
					"t_address": {
						"encoding": "inplace",
						"label": "address",
						"numberOfBytes": "20"
					},
					"t_array(t_string_storage)dyn_storage": {
						"base": "t_string_storage",
						"encoding": "dynamic_array",
						"label": "string[]",
						"numberOfBytes": "32"
					},
					"t_mapping(t_address,t_struct(Bio)22_storage)": {
						"encoding": "mapping",
						"key": "t_address",
						"label": "mapping(address => struct Profile.Bio)",
						"numberOfBytes": "32",
						"value": "t_struct(Bio)22_storage"
					},
					"t_string_storage": {
						"encoding": "bytes",
						"label": "string",
						"numberOfBytes": "32"
					},
					"t_struct(Bio)22_storage": {
						"encoding": "inplace",
						"label": "struct Profile.Bio",
						"members": [
							{
								"astId": 3,
								"contract": "contracts/Profile.sol:Profile",
								"label": "userAddress",
								"offset": 0,
								"slot": "0",
								"type": "t_address"
							},
							{
								"astId": 5,
								"contract": "contracts/Profile.sol:Profile",
								"label": "firstName",
								"offset": 0,
								"slot": "1",
								"type": "t_string_storage"
							},
							{
								"astId": 7,
								"contract": "contracts/Profile.sol:Profile",
								"label": "middleName",
								"offset": 0,
								"slot": "2",
								"type": "t_string_storage"
							},
							{
								"astId": 9,
								"contract": "contracts/Profile.sol:Profile",
								"label": "lastName",
								"offset": 0,
								"slot": "3",
								"type": "t_string_storage"
							},
							{
								"astId": 11,
								"contract": "contracts/Profile.sol:Profile",
								"label": "profileImage",
								"offset": 0,
								"slot": "4",
								"type": "t_string_storage"
							},
							{
								"astId": 13,
								"contract": "contracts/Profile.sol:Profile",
								"label": "createDate",
								"offset": 0,
								"slot": "5",
								"type": "t_uint256"
							},
							{
								"astId": 15,
								"contract": "contracts/Profile.sol:Profile",
								"label": "education",
								"offset": 0,
								"slot": "6",
								"type": "t_string_storage"
							},
							{
								"astId": 18,
								"contract": "contracts/Profile.sol:Profile",
								"label": "privateContract",
								"offset": 0,
								"slot": "7",
								"type": "t_struct(Contract)38_storage"
							},
							{
								"astId": 21,
								"contract": "contracts/Profile.sol:Profile",
								"label": "skill",
								"offset": 0,
								"slot": "12",
								"type": "t_struct(Skill)48_storage"
							}
						],
						"numberOfBytes": "480"
					},
					"t_struct(Contract)38_storage": {
						"encoding": "inplace",
						"label": "struct Profile.Contract",
						"members": [
							{
								"astId": 29,
								"contract": "contracts/Profile.sol:Profile",
								"label": "email",
								"offset": 0,
								"slot": "0",
								"type": "t_string_storage"
							},
							{
								"astId": 31,
								"contract": "contracts/Profile.sol:Profile",
								"label": "phone",
								"offset": 0,
								"slot": "1",
								"type": "t_string_storage"
							},
							{
								"astId": 33,
								"contract": "contracts/Profile.sol:Profile",
								"label": "github",
								"offset": 0,
								"slot": "2",
								"type": "t_string_storage"
							},
							{
								"astId": 35,
								"contract": "contracts/Profile.sol:Profile",
								"label": "gitlab",
								"offset": 0,
								"slot": "3",
								"type": "t_string_storage"
							},
							{
								"astId": 37,
								"contract": "contracts/Profile.sol:Profile",
								"label": "linkin",
								"offset": 0,
								"slot": "4",
								"type": "t_string_storage"
							}
						],
						"numberOfBytes": "160"
					},
					"t_struct(Skill)48_storage": {
						"encoding": "inplace",
						"label": "struct Profile.Skill",
						"members": [
							{
								"astId": 41,
								"contract": "contracts/Profile.sol:Profile",
								"label": "frontend",
								"offset": 0,
								"slot": "0",
								"type": "t_array(t_string_storage)dyn_storage"
							},
							{
								"astId": 44,
								"contract": "contracts/Profile.sol:Profile",
								"label": "backend",
								"offset": 0,
								"slot": "1",
								"type": "t_array(t_string_storage)dyn_storage"
							},
							{
								"astId": 47,
								"contract": "contracts/Profile.sol:Profile",
								"label": "framework",
								"offset": 0,
								"slot": "2",
								"type": "t_array(t_string_storage)dyn_storage"
							}
						],
						"numberOfBytes": "96"
					},
					"t_uint256": {
						"encoding": "inplace",
						"label": "uint256",
						"numberOfBytes": "32"
					}
				}
			},
			"userdoc": {
				"kind": "user",
				"methods": {},
				"version": 1
			}
		}
	}
}