{
	"contracts/Profile.sol": {
		"Profile": {
			"abi": [
				{
					"inputs": [
						{
							"internalType": "string",
							"name": "email",
							"type": "string"
						},
						{
							"internalType": "string",
							"name": "phone",
							"type": "string"
						},
						{
							"internalType": "string",
							"name": "github",
							"type": "string"
						},
						{
							"internalType": "string",
							"name": "gitlab",
							"type": "string"
						},
						{
							"internalType": "string",
							"name": "linkin",
							"type": "string"
						}
					],
					"name": "createContract",
					"outputs": [],
					"stateMutability": "nonpayable",
					"type": "function"
				},
				{
					"inputs": [
						{
							"internalType": "string",
							"name": "firstName",
							"type": "string"
						},
						{
							"internalType": "string",
							"name": "middleName",
							"type": "string"
						},
						{
							"internalType": "string",
							"name": "lastName",
							"type": "string"
						},
						{
							"internalType": "string",
							"name": "profileImage",
							"type": "string"
						},
						{
							"internalType": "string",
							"name": "aboutMe",
							"type": "string"
						},
						{
							"internalType": "string",
							"name": "position",
							"type": "string"
						}
					],
					"name": "createInformation",
					"outputs": [],
					"stateMutability": "nonpayable",
					"type": "function"
				},
				{
					"inputs": [
						{
							"internalType": "string[]",
							"name": "programmingLanguages",
							"type": "string[]"
						},
						{
							"internalType": "string[]",
							"name": "framework",
							"type": "string[]"
						},
						{
							"internalType": "string[]",
							"name": "databaseAndOther",
							"type": "string[]"
						}
					],
					"name": "createSkill",
					"outputs": [],
					"stateMutability": "nonpayable",
					"type": "function"
				},
				{
					"inputs": [
						{
							"internalType": "string",
							"name": "startDate",
							"type": "string"
						},
						{
							"internalType": "string",
							"name": "endDate",
							"type": "string"
						},
						{
							"internalType": "string",
							"name": "univercity",
							"type": "string"
						},
						{
							"internalType": "string",
							"name": "major",
							"type": "string"
						},
						{
							"internalType": "string",
							"name": "finalProject",
							"type": "string"
						}
					],
					"name": "createUnivercity",
					"outputs": [],
					"stateMutability": "nonpayable",
					"type": "function"
				},
				{
					"inputs": [],
					"name": "delAllEducation",
					"outputs": [],
					"stateMutability": "nonpayable",
					"type": "function"
				},
				{
					"inputs": [],
					"name": "delInformaion",
					"outputs": [],
					"stateMutability": "nonpayable",
					"type": "function"
				},
				{
					"inputs": [],
					"name": "delProfile",
					"outputs": [],
					"stateMutability": "nonpayable",
					"type": "function"
				},
				{
					"inputs": [
						{
							"internalType": "uint256",
							"name": "index",
							"type": "uint256"
						}
					],
					"name": "getEducation",
					"outputs": [
						{
							"internalType": "string",
							"name": "",
							"type": "string"
						},
						{
							"internalType": "string",
							"name": "",
							"type": "string"
						},
						{
							"internalType": "string",
							"name": "",
							"type": "string"
						},
						{
							"internalType": "string",
							"name": "",
							"type": "string"
						},
						{
							"internalType": "string",
							"name": "",
							"type": "string"
						}
					],
					"stateMutability": "view",
					"type": "function"
				},
				{
					"inputs": [],
					"name": "getEducationCount",
					"outputs": [
						{
							"internalType": "uint256",
							"name": "",
							"type": "uint256"
						}
					],
					"stateMutability": "view",
					"type": "function"
				},
				{
					"inputs": [
						{
							"internalType": "address",
							"name": "",
							"type": "address"
						}
					],
					"name": "profile",
					"outputs": [
						{
							"components": [
								{
									"internalType": "string",
									"name": "aboutMe",
									"type": "string"
								},
								{
									"internalType": "string",
									"name": "position",
									"type": "string"
								},
								{
									"internalType": "address",
									"name": "userAddress",
									"type": "address"
								},
								{
									"internalType": "string",
									"name": "firstName",
									"type": "string"
								},
								{
									"internalType": "string",
									"name": "middleName",
									"type": "string"
								},
								{
									"internalType": "string",
									"name": "lastName",
									"type": "string"
								},
								{
									"internalType": "string",
									"name": "profileImage",
									"type": "string"
								},
								{
									"internalType": "uint256",
									"name": "createDate",
									"type": "uint256"
								}
							],
							"internalType": "struct Profile.Information",
							"name": "information",
							"type": "tuple"
						},
						{
							"components": [
								{
									"internalType": "string",
									"name": "aboutMe",
									"type": "string"
								},
								{
									"internalType": "string",
									"name": "email",
									"type": "string"
								},
								{
									"internalType": "string",
									"name": "phone",
									"type": "string"
								},
								{
									"internalType": "string",
									"name": "github",
									"type": "string"
								},
								{
									"internalType": "string",
									"name": "gitlab",
									"type": "string"
								},
								{
									"internalType": "string",
									"name": "linkin",
									"type": "string"
								}
							],
							"internalType": "struct Profile.Contract",
							"name": "privateContract",
							"type": "tuple"
						},
						{
							"components": [
								{
									"internalType": "string[]",
									"name": "programmingLanguages",
									"type": "string[]"
								},
								{
									"internalType": "string[]",
									"name": "framework",
									"type": "string[]"
								},
								{
									"internalType": "string[]",
									"name": "databaseAndOther",
									"type": "string[]"
								}
							],
							"internalType": "struct Profile.Skill",
							"name": "skill",
							"type": "tuple"
						}
					],
					"stateMutability": "view",
					"type": "function"
				}
			],
			"devdoc": {
				"kind": "dev",
				"methods": {},
				"version": 1
			},
			"evm": {
				"assembly": "    /* \"contracts/Profile.sol\":60:4173  contract Profile {\r... */\n  mstore(0x40, 0x80)\n  callvalue\n  dup1\n  iszero\n  tag_1\n  jumpi\n  0x00\n  dup1\n  revert\ntag_1:\n  pop\n  dataSize(sub_0)\n  dup1\n  dataOffset(sub_0)\n  0x00\n  codecopy\n  0x00\n  return\nstop\n\nsub_0: assembly {\n        /* \"contracts/Profile.sol\":60:4173  contract Profile {\r... */\n      mstore(0x40, 0x80)\n      callvalue\n      dup1\n      iszero\n      tag_1\n      jumpi\n      0x00\n      dup1\n      revert\n    tag_1:\n      pop\n      jumpi(tag_2, lt(calldatasize, 0x04))\n      shr(0xe0, calldataload(0x00))\n      dup1\n      0x95ea3757\n      gt\n      tag_13\n      jumpi\n      dup1\n      0x95ea3757\n      eq\n      tag_8\n      jumpi\n      dup1\n      0x9dd9d0fd\n      eq\n      tag_9\n      jumpi\n      dup1\n      0xed2217ef\n      eq\n      tag_10\n      jumpi\n      dup1\n      0xf96e32f8\n      eq\n      tag_11\n      jumpi\n      dup1\n      0xfabce08f\n      eq\n      tag_12\n      jumpi\n      jump(tag_2)\n    tag_13:\n      dup1\n      0x3d984d0e\n      eq\n      tag_3\n      jumpi\n      dup1\n      0x6212fa02\n      eq\n      tag_4\n      jumpi\n      dup1\n      0x66244dfb\n      eq\n      tag_5\n      jumpi\n      dup1\n      0x72828388\n      eq\n      tag_6\n      jumpi\n      dup1\n      0x958791ae\n      eq\n      tag_7\n      jumpi\n    tag_2:\n      0x00\n      dup1\n      revert\n        /* \"contracts/Profile.sol\":2427:2815  function createSkill(string[] memory programmingLanguages, string[] memory framework, string[] memory databaseAndOther) public {\r... */\n    tag_3:\n      tag_14\n      0x04\n      dup1\n      calldatasize\n      sub\n      dup2\n      add\n      swap1\n      tag_15\n      swap2\n      swap1\n      tag_16\n      jump\t// in\n    tag_15:\n      tag_17\n      jump\t// in\n    tag_14:\n      stop\n        /* \"contracts/Profile.sol\":3762:3880  function getEducationCount() public view returns (uint) {\r... */\n    tag_4:\n      tag_18\n      tag_19\n      jump\t// in\n    tag_18:\n      mload(0x40)\n      tag_20\n      swap2\n      swap1\n      tag_21\n      jump\t// in\n    tag_20:\n      mload(0x40)\n      dup1\n      swap2\n      sub\n      swap1\n      return\n        /* \"contracts/Profile.sol\":2882:3352  function createUnivercity(string memory startDate, string memory endDate, string memory univercity, string memory major, string memory finalProject) public {\r... */\n    tag_5:\n      tag_22\n      0x04\n      dup1\n      calldatasize\n      sub\n      dup2\n      add\n      swap1\n      tag_23\n      swap2\n      swap1\n      tag_24\n      jump\t// in\n    tag_23:\n      tag_25\n      jump\t// in\n    tag_22:\n      stop\n        /* \"contracts/Profile.sol\":1836:2340  function createContract(string memory email, string memory phone, string memory github, string memory gitlab, string memory linkin) public {\r... */\n    tag_6:\n      tag_26\n      0x04\n      dup1\n      calldatasize\n      sub\n      dup2\n      add\n      swap1\n      tag_27\n      swap2\n      swap1\n      tag_24\n      jump\t// in\n    tag_27:\n      tag_28\n      jump\t// in\n    tag_26:\n      stop\n        /* \"contracts/Profile.sol\":1065:1781  function createInformation(string memory firstName, string memory middleName, string memory lastName,  string memory profileImage, string memory aboutMe, string memory position) public {\r... */\n    tag_7:\n      tag_29\n      0x04\n      dup1\n      calldatasize\n      sub\n      dup2\n      add\n      swap1\n      tag_30\n      swap2\n      swap1\n      tag_31\n      jump\t// in\n    tag_30:\n      tag_32\n      jump\t// in\n    tag_29:\n      stop\n        /* \"contracts/Profile.sol\":3994:4086  function delInformaion() external  {\r... */\n    tag_8:\n      tag_33\n      tag_34\n      jump\t// in\n    tag_33:\n      stop\n        /* \"contracts/Profile.sol\":234:274  mapping (address => Bio) public  profile */\n    tag_9:\n      tag_35\n      0x04\n      dup1\n      calldatasize\n      sub\n      dup2\n      add\n      swap1\n      tag_36\n      swap2\n      swap1\n      tag_37\n      jump\t// in\n    tag_36:\n      tag_38\n      jump\t// in\n    tag_35:\n      mload(0x40)\n      tag_39\n      swap4\n      swap3\n      swap2\n      swap1\n      tag_40\n      jump\t// in\n    tag_39:\n      mload(0x40)\n      dup1\n      swap2\n      sub\n      swap1\n      return\n        /* \"contracts/Profile.sol\":3894:3986  function delAllEducation() external  {\r... */\n    tag_10:\n      tag_41\n      tag_42\n      jump\t// in\n    tag_41:\n      stop\n        /* \"contracts/Profile.sol\":3361:3754  function getEducation(uint index) public view returns(string memory, string memory, string memory, string memory, string memory) {\r... */\n    tag_11:\n      tag_43\n      0x04\n      dup1\n      calldatasize\n      sub\n      dup2\n      add\n      swap1\n      tag_44\n      swap2\n      swap1\n      tag_45\n      jump\t// in\n    tag_44:\n      tag_46\n      jump\t// in\n    tag_43:\n      mload(0x40)\n      tag_47\n      swap6\n      swap5\n      swap4\n      swap3\n      swap2\n      swap1\n      tag_48\n      jump\t// in\n    tag_47:\n      mload(0x40)\n      dup1\n      swap2\n      sub\n      swap1\n      return\n        /* \"contracts/Profile.sol\":4094:4170  function delProfile() external {\r... */\n    tag_12:\n      tag_49\n      tag_50\n      jump\t// in\n    tag_49:\n      stop\n        /* \"contracts/Profile.sol\":2427:2815  function createSkill(string[] memory programmingLanguages, string[] memory framework, string[] memory databaseAndOther) public {\r... */\n    tag_17:\n        /* \"contracts/Profile.sol\":2572:2579  profile */\n      0x00\n        /* \"contracts/Profile.sol\":2572:2591  profile[msg.sender] */\n      dup1\n        /* \"contracts/Profile.sol\":2580:2590  msg.sender */\n      caller\n        /* \"contracts/Profile.sol\":2572:2591  profile[msg.sender] */\n      0xffffffffffffffffffffffffffffffffffffffff\n      and\n      0xffffffffffffffffffffffffffffffffffffffff\n      and\n      dup2\n      mstore\n      0x20\n      add\n      swap1\n      dup2\n      mstore\n      0x20\n      add\n      0x00\n      keccak256\n        /* \"contracts/Profile.sol\":2572:2597  profile[msg.sender].skill */\n      0x0e\n      add\n      0x00\n        /* \"contracts/Profile.sol\":2565:2597  delete profile[msg.sender].skill */\n      dup1\n      dup3\n      add\n      0x00\n      tag_52\n      swap2\n      swap1\n      tag_53\n      jump\t// in\n    tag_52:\n      0x01\n      dup3\n      add\n      0x00\n      tag_54\n      swap2\n      swap1\n      tag_53\n      jump\t// in\n    tag_54:\n      0x02\n      dup3\n      add\n      0x00\n      tag_55\n      swap2\n      swap1\n      tag_53\n      jump\t// in\n    tag_55:\n      pop\n      pop\n        /* \"contracts/Profile.sol\":2657:2677  programmingLanguages */\n      dup3\n        /* \"contracts/Profile.sol\":2608:2615  profile */\n      0x00\n        /* \"contracts/Profile.sol\":2608:2627  profile[msg.sender] */\n      dup1\n        /* \"contracts/Profile.sol\":2616:2626  msg.sender */\n      caller\n        /* \"contracts/Profile.sol\":2608:2627  profile[msg.sender] */\n      0xffffffffffffffffffffffffffffffffffffffff\n      and\n      0xffffffffffffffffffffffffffffffffffffffff\n      and\n      dup2\n      mstore\n      0x20\n      add\n      swap1\n      dup2\n      mstore\n      0x20\n      add\n      0x00\n      keccak256\n        /* \"contracts/Profile.sol\":2608:2633  profile[msg.sender].skill */\n      0x0e\n      add\n        /* \"contracts/Profile.sol\":2608:2654  profile[msg.sender].skill.programmingLanguages */\n      0x00\n      add\n        /* \"contracts/Profile.sol\":2608:2677  profile[msg.sender].skill.programmingLanguages = programmingLanguages */\n      swap1\n      dup1\n      mload\n      swap1\n      0x20\n      add\n      swap1\n      tag_56\n      swap3\n      swap2\n      swap1\n      tag_57\n      jump\t// in\n    tag_56:\n      pop\n        /* \"contracts/Profile.sol\":2726:2735  framework */\n      dup2\n        /* \"contracts/Profile.sol\":2688:2695  profile */\n      0x00\n        /* \"contracts/Profile.sol\":2688:2707  profile[msg.sender] */\n      dup1\n        /* \"contracts/Profile.sol\":2696:2706  msg.sender */\n      caller\n        /* \"contracts/Profile.sol\":2688:2707  profile[msg.sender] */\n      0xffffffffffffffffffffffffffffffffffffffff\n      and\n      0xffffffffffffffffffffffffffffffffffffffff\n      and\n      dup2\n      mstore\n      0x20\n      add\n      swap1\n      dup2\n      mstore\n      0x20\n      add\n      0x00\n      keccak256\n        /* \"contracts/Profile.sol\":2688:2713  profile[msg.sender].skill */\n      0x0e\n      add\n        /* \"contracts/Profile.sol\":2688:2723  profile[msg.sender].skill.framework */\n      0x01\n      add\n        /* \"contracts/Profile.sol\":2688:2735  profile[msg.sender].skill.framework = framework */\n      swap1\n      dup1\n      mload\n      swap1\n      0x20\n      add\n      swap1\n      tag_58\n      swap3\n      swap2\n      swap1\n      tag_57\n      jump\t// in\n    tag_58:\n      pop\n        /* \"contracts/Profile.sol\":2791:2807  databaseAndOther */\n      dup1\n        /* \"contracts/Profile.sol\":2746:2753  profile */\n      0x00\n        /* \"contracts/Profile.sol\":2746:2765  profile[msg.sender] */\n      dup1\n        /* \"contracts/Profile.sol\":2754:2764  msg.sender */\n      caller\n        /* \"contracts/Profile.sol\":2746:2765  profile[msg.sender] */\n      0xffffffffffffffffffffffffffffffffffffffff\n      and\n      0xffffffffffffffffffffffffffffffffffffffff\n      and\n      dup2\n      mstore\n      0x20\n      add\n      swap1\n      dup2\n      mstore\n      0x20\n      add\n      0x00\n      keccak256\n        /* \"contracts/Profile.sol\":2746:2771  profile[msg.sender].skill */\n      0x0e\n      add\n        /* \"contracts/Profile.sol\":2746:2788  profile[msg.sender].skill.databaseAndOther */\n      0x02\n      add\n        /* \"contracts/Profile.sol\":2746:2807  profile[msg.sender].skill.databaseAndOther = databaseAndOther */\n      swap1\n      dup1\n      mload\n      swap1\n      0x20\n      add\n      swap1\n      tag_59\n      swap3\n      swap2\n      swap1\n      tag_57\n      jump\t// in\n    tag_59:\n      pop\n        /* \"contracts/Profile.sol\":2427:2815  function createSkill(string[] memory programmingLanguages, string[] memory framework, string[] memory databaseAndOther) public {\r... */\n      pop\n      pop\n      pop\n      jump\t// out\n        /* \"contracts/Profile.sol\":3762:3880  function getEducationCount() public view returns (uint) {\r... */\n    tag_19:\n        /* \"contracts/Profile.sol\":3812:3816  uint */\n      0x00\n        /* \"contracts/Profile.sol\":3836:3843  profile */\n      dup1\n        /* \"contracts/Profile.sol\":3836:3855  profile[msg.sender] */\n      0x00\n        /* \"contracts/Profile.sol\":3844:3854  msg.sender */\n      caller\n        /* \"contracts/Profile.sol\":3836:3855  profile[msg.sender] */\n      0xffffffffffffffffffffffffffffffffffffffff\n      and\n      0xffffffffffffffffffffffffffffffffffffffff\n      and\n      dup2\n      mstore\n      0x20\n      add\n      swap1\n      dup2\n      mstore\n      0x20\n      add\n      0x00\n      keccak256\n        /* \"contracts/Profile.sol\":3836:3865  profile[msg.sender].education */\n      0x11\n      add\n        /* \"contracts/Profile.sol\":3836:3872  profile[msg.sender].education.length */\n      dup1\n      sload\n      swap1\n      pop\n        /* \"contracts/Profile.sol\":3829:3872  return profile[msg.sender].education.length */\n      swap1\n      pop\n        /* \"contracts/Profile.sol\":3762:3880  function getEducationCount() public view returns (uint) {\r... */\n      swap1\n      jump\t// out\n        /* \"contracts/Profile.sol\":2882:3352  function createUnivercity(string memory startDate, string memory endDate, string memory univercity, string memory major, string memory finalProject) public {\r... */\n    tag_25:\n        /* \"contracts/Profile.sol\":3049:3076  Education memory _education */\n      tag_62\n      tag_63\n      jump\t// in\n    tag_62:\n        /* \"contracts/Profile.sol\":3110:3119  startDate */\n      dup6\n        /* \"contracts/Profile.sol\":3087:3097  _education */\n      dup2\n        /* \"contracts/Profile.sol\":3087:3107  _education.startDate */\n      0x00\n      add\n        /* \"contracts/Profile.sol\":3087:3119  _education.startDate = startDate */\n      dup2\n      swap1\n      mstore\n      pop\n        /* \"contracts/Profile.sol\":3151:3158  endDate */\n      dup5\n        /* \"contracts/Profile.sol\":3130:3140  _education */\n      dup2\n        /* \"contracts/Profile.sol\":3130:3148  _education.endDate */\n      0x20\n      add\n        /* \"contracts/Profile.sol\":3130:3158  _education.endDate = endDate */\n      dup2\n      swap1\n      mstore\n      pop\n        /* \"contracts/Profile.sol\":3193:3203  univercity */\n      dup4\n        /* \"contracts/Profile.sol\":3169:3179  _education */\n      dup2\n        /* \"contracts/Profile.sol\":3169:3190  _education.univercity */\n      0x40\n      add\n        /* \"contracts/Profile.sol\":3169:3203  _education.univercity = univercity */\n      dup2\n      swap1\n      mstore\n      pop\n        /* \"contracts/Profile.sol\":3233:3238  major */\n      dup3\n        /* \"contracts/Profile.sol\":3214:3224  _education */\n      dup2\n        /* \"contracts/Profile.sol\":3214:3230  _education.major */\n      0x60\n      add\n        /* \"contracts/Profile.sol\":3214:3238  _education.major = major */\n      dup2\n      swap1\n      mstore\n      pop\n        /* \"contracts/Profile.sol\":3275:3287  finalProject */\n      dup2\n        /* \"contracts/Profile.sol\":3249:3259  _education */\n      dup2\n        /* \"contracts/Profile.sol\":3249:3272  _education.finalProject */\n      0x80\n      add\n        /* \"contracts/Profile.sol\":3249:3287  _education.finalProject = finalProject */\n      dup2\n      swap1\n      mstore\n      pop\n        /* \"contracts/Profile.sol\":3298:3305  profile */\n      0x00\n        /* \"contracts/Profile.sol\":3298:3317  profile[msg.sender] */\n      dup1\n        /* \"contracts/Profile.sol\":3306:3316  msg.sender */\n      caller\n        /* \"contracts/Profile.sol\":3298:3317  profile[msg.sender] */\n      0xffffffffffffffffffffffffffffffffffffffff\n      and\n      0xffffffffffffffffffffffffffffffffffffffff\n      and\n      dup2\n      mstore\n      0x20\n      add\n      swap1\n      dup2\n      mstore\n      0x20\n      add\n      0x00\n      keccak256\n        /* \"contracts/Profile.sol\":3298:3327  profile[msg.sender].education */\n      0x11\n      add\n        /* \"contracts/Profile.sol\":3333:3343  _education */\n      dup2\n        /* \"contracts/Profile.sol\":3298:3344  profile[msg.sender].education.push(_education) */\n      swap1\n      dup1\n      0x01\n      dup2\n      sload\n      add\n      dup1\n      dup3\n      sstore\n      dup1\n      swap2\n      pop\n      pop\n      0x01\n      swap1\n      sub\n      swap1\n      0x00\n      mstore\n      keccak256(0x00, 0x20)\n      swap1\n      0x05\n      mul\n      add\n      0x00\n      swap1\n      swap2\n      swap1\n      swap2\n      swap1\n      swap2\n      pop\n      0x00\n      dup3\n      add\n      mload\n      dup2\n      0x00\n      add\n      swap1\n      dup1\n      mload\n      swap1\n      0x20\n      add\n      swap1\n      tag_65\n      swap3\n      swap2\n      swap1\n      tag_66\n      jump\t// in\n    tag_65:\n      pop\n      0x20\n      dup3\n      add\n      mload\n      dup2\n      0x01\n      add\n      swap1\n      dup1\n      mload\n      swap1\n      0x20\n      add\n      swap1\n      tag_67\n      swap3\n      swap2\n      swap1\n      tag_66\n      jump\t// in\n    tag_67:\n      pop\n      0x40\n      dup3\n      add\n      mload\n      dup2\n      0x02\n      add\n      swap1\n      dup1\n      mload\n      swap1\n      0x20\n      add\n      swap1\n      tag_68\n      swap3\n      swap2\n      swap1\n      tag_66\n      jump\t// in\n    tag_68:\n      pop\n      0x60\n      dup3\n      add\n      mload\n      dup2\n      0x03\n      add\n      swap1\n      dup1\n      mload\n      swap1\n      0x20\n      add\n      swap1\n      tag_69\n      swap3\n      swap2\n      swap1\n      tag_66\n      jump\t// in\n    tag_69:\n      pop\n      0x80\n      dup3\n      add\n      mload\n      dup2\n      0x04\n      add\n      swap1\n      dup1\n      mload\n      swap1\n      0x20\n      add\n      swap1\n      tag_70\n      swap3\n      swap2\n      swap1\n      tag_66\n      jump\t// in\n    tag_70:\n      pop\n      pop\n      pop\n        /* \"contracts/Profile.sol\":3038:3352  {\r... */\n      pop\n        /* \"contracts/Profile.sol\":2882:3352  function createUnivercity(string memory startDate, string memory endDate, string memory univercity, string memory major, string memory finalProject) public {\r... */\n      pop\n      pop\n      pop\n      pop\n      pop\n      jump\t// out\n        /* \"contracts/Profile.sol\":1836:2340  function createContract(string memory email, string memory phone, string memory github, string memory gitlab, string memory linkin) public {\r... */\n    tag_28:\n        /* \"contracts/Profile.sol\":1993:2000  profile */\n      0x00\n        /* \"contracts/Profile.sol\":1993:2012  profile[msg.sender] */\n      dup1\n        /* \"contracts/Profile.sol\":2001:2011  msg.sender */\n      caller\n        /* \"contracts/Profile.sol\":1993:2012  profile[msg.sender] */\n      0xffffffffffffffffffffffffffffffffffffffff\n      and\n      0xffffffffffffffffffffffffffffffffffffffff\n      and\n      dup2\n      mstore\n      0x20\n      add\n      swap1\n      dup2\n      mstore\n      0x20\n      add\n      0x00\n      keccak256\n        /* \"contracts/Profile.sol\":1993:2028  profile[msg.sender].privateContract */\n      0x08\n      add\n      0x00\n        /* \"contracts/Profile.sol\":1986:2028  delete profile[msg.sender].privateContract */\n      dup1\n      dup3\n      add\n      0x00\n      tag_72\n      swap2\n      swap1\n      tag_73\n      jump\t// in\n    tag_72:\n      0x01\n      dup3\n      add\n      0x00\n      tag_74\n      swap2\n      swap1\n      tag_73\n      jump\t// in\n    tag_74:\n      0x02\n      dup3\n      add\n      0x00\n      tag_75\n      swap2\n      swap1\n      tag_73\n      jump\t// in\n    tag_75:\n      0x03\n      dup3\n      add\n      0x00\n      tag_76\n      swap2\n      swap1\n      tag_73\n      jump\t// in\n    tag_76:\n      0x04\n      dup3\n      add\n      0x00\n      tag_77\n      swap2\n      swap1\n      tag_73\n      jump\t// in\n    tag_77:\n      0x05\n      dup3\n      add\n      0x00\n      tag_78\n      swap2\n      swap1\n      tag_73\n      jump\t// in\n    tag_78:\n      pop\n      pop\n        /* \"contracts/Profile.sol\":2083:2088  email */\n      dup5\n        /* \"contracts/Profile.sol\":2039:2046  profile */\n      0x00\n        /* \"contracts/Profile.sol\":2039:2058  profile[msg.sender] */\n      dup1\n        /* \"contracts/Profile.sol\":2047:2057  msg.sender */\n      caller\n        /* \"contracts/Profile.sol\":2039:2058  profile[msg.sender] */\n      0xffffffffffffffffffffffffffffffffffffffff\n      and\n      0xffffffffffffffffffffffffffffffffffffffff\n      and\n      dup2\n      mstore\n      0x20\n      add\n      swap1\n      dup2\n      mstore\n      0x20\n      add\n      0x00\n      keccak256\n        /* \"contracts/Profile.sol\":2039:2074  profile[msg.sender].privateContract */\n      0x08\n      add\n        /* \"contracts/Profile.sol\":2039:2080  profile[msg.sender].privateContract.email */\n      0x01\n      add\n        /* \"contracts/Profile.sol\":2039:2088  profile[msg.sender].privateContract.email = email */\n      swap1\n      dup1\n      mload\n      swap1\n      0x20\n      add\n      swap1\n      tag_79\n      swap3\n      swap2\n      swap1\n      tag_66\n      jump\t// in\n    tag_79:\n      pop\n        /* \"contracts/Profile.sol\":2143:2148  phone */\n      dup4\n        /* \"contracts/Profile.sol\":2099:2106  profile */\n      0x00\n        /* \"contracts/Profile.sol\":2099:2118  profile[msg.sender] */\n      dup1\n        /* \"contracts/Profile.sol\":2107:2117  msg.sender */\n      caller\n        /* \"contracts/Profile.sol\":2099:2118  profile[msg.sender] */\n      0xffffffffffffffffffffffffffffffffffffffff\n      and\n      0xffffffffffffffffffffffffffffffffffffffff\n      and\n      dup2\n      mstore\n      0x20\n      add\n      swap1\n      dup2\n      mstore\n      0x20\n      add\n      0x00\n      keccak256\n        /* \"contracts/Profile.sol\":2099:2134  profile[msg.sender].privateContract */\n      0x08\n      add\n        /* \"contracts/Profile.sol\":2099:2140  profile[msg.sender].privateContract.phone */\n      0x02\n      add\n        /* \"contracts/Profile.sol\":2099:2148  profile[msg.sender].privateContract.phone = phone */\n      swap1\n      dup1\n      mload\n      swap1\n      0x20\n      add\n      swap1\n      tag_80\n      swap3\n      swap2\n      swap1\n      tag_66\n      jump\t// in\n    tag_80:\n      pop\n        /* \"contracts/Profile.sol\":2204:2210  github */\n      dup3\n        /* \"contracts/Profile.sol\":2159:2166  profile */\n      0x00\n        /* \"contracts/Profile.sol\":2159:2178  profile[msg.sender] */\n      dup1\n        /* \"contracts/Profile.sol\":2167:2177  msg.sender */\n      caller\n        /* \"contracts/Profile.sol\":2159:2178  profile[msg.sender] */\n      0xffffffffffffffffffffffffffffffffffffffff\n      and\n      0xffffffffffffffffffffffffffffffffffffffff\n      and\n      dup2\n      mstore\n      0x20\n      add\n      swap1\n      dup2\n      mstore\n      0x20\n      add\n      0x00\n      keccak256\n        /* \"contracts/Profile.sol\":2159:2194  profile[msg.sender].privateContract */\n      0x08\n      add\n        /* \"contracts/Profile.sol\":2159:2201  profile[msg.sender].privateContract.github */\n      0x03\n      add\n        /* \"contracts/Profile.sol\":2159:2210  profile[msg.sender].privateContract.github = github */\n      swap1\n      dup1\n      mload\n      swap1\n      0x20\n      add\n      swap1\n      tag_81\n      swap3\n      swap2\n      swap1\n      tag_66\n      jump\t// in\n    tag_81:\n      pop\n        /* \"contracts/Profile.sol\":2265:2271  gitlab */\n      dup2\n        /* \"contracts/Profile.sol\":2221:2228  profile */\n      0x00\n        /* \"contracts/Profile.sol\":2221:2240  profile[msg.sender] */\n      dup1\n        /* \"contracts/Profile.sol\":2229:2239  msg.sender */\n      caller\n        /* \"contracts/Profile.sol\":2221:2240  profile[msg.sender] */\n      0xffffffffffffffffffffffffffffffffffffffff\n      and\n      0xffffffffffffffffffffffffffffffffffffffff\n      and\n      dup2\n      mstore\n      0x20\n      add\n      swap1\n      dup2\n      mstore\n      0x20\n      add\n      0x00\n      keccak256\n        /* \"contracts/Profile.sol\":2221:2256  profile[msg.sender].privateContract */\n      0x08\n      add\n        /* \"contracts/Profile.sol\":2221:2262  profile[msg.sender].privateContract.phone */\n      0x02\n      add\n        /* \"contracts/Profile.sol\":2221:2271  profile[msg.sender].privateContract.phone = gitlab */\n      swap1\n      dup1\n      mload\n      swap1\n      0x20\n      add\n      swap1\n      tag_82\n      swap3\n      swap2\n      swap1\n      tag_66\n      jump\t// in\n    tag_82:\n      pop\n        /* \"contracts/Profile.sol\":2326:2332  linkin */\n      dup1\n        /* \"contracts/Profile.sol\":2282:2289  profile */\n      0x00\n        /* \"contracts/Profile.sol\":2282:2301  profile[msg.sender] */\n      dup1\n        /* \"contracts/Profile.sol\":2290:2300  msg.sender */\n      caller\n        /* \"contracts/Profile.sol\":2282:2301  profile[msg.sender] */\n      0xffffffffffffffffffffffffffffffffffffffff\n      and\n      0xffffffffffffffffffffffffffffffffffffffff\n      and\n      dup2\n      mstore\n      0x20\n      add\n      swap1\n      dup2\n      mstore\n      0x20\n      add\n      0x00\n      keccak256\n        /* \"contracts/Profile.sol\":2282:2317  profile[msg.sender].privateContract */\n      0x08\n      add\n        /* \"contracts/Profile.sol\":2282:2323  profile[msg.sender].privateContract.email */\n      0x01\n      add\n        /* \"contracts/Profile.sol\":2282:2332  profile[msg.sender].privateContract.email = linkin */\n      swap1\n      dup1\n      mload\n      swap1\n      0x20\n      add\n      swap1\n      tag_83\n      swap3\n      swap2\n      swap1\n      tag_66\n      jump\t// in\n    tag_83:\n      pop\n        /* \"contracts/Profile.sol\":1836:2340  function createContract(string memory email, string memory phone, string memory github, string memory gitlab, string memory linkin) public {\r... */\n      pop\n      pop\n      pop\n      pop\n      pop\n      jump\t// out\n        /* \"contracts/Profile.sol\":1065:1781  function createInformation(string memory firstName, string memory middleName, string memory lastName,  string memory profileImage, string memory aboutMe, string memory position) public {\r... */\n    tag_32:\n        /* \"contracts/Profile.sol\":1305:1314  firstName */\n      dup6\n        /* \"contracts/Profile.sol\":1261:1268  profile */\n      0x00\n        /* \"contracts/Profile.sol\":1261:1280  profile[msg.sender] */\n      dup1\n        /* \"contracts/Profile.sol\":1269:1279  msg.sender */\n      caller\n        /* \"contracts/Profile.sol\":1261:1280  profile[msg.sender] */\n      0xffffffffffffffffffffffffffffffffffffffff\n      and\n      0xffffffffffffffffffffffffffffffffffffffff\n      and\n      dup2\n      mstore\n      0x20\n      add\n      swap1\n      dup2\n      mstore\n      0x20\n      add\n      0x00\n      keccak256\n        /* \"contracts/Profile.sol\":1261:1292  profile[msg.sender].information */\n      0x00\n      add\n        /* \"contracts/Profile.sol\":1261:1302  profile[msg.sender].information.firstName */\n      0x03\n      add\n        /* \"contracts/Profile.sol\":1261:1314  profile[msg.sender].information.firstName = firstName */\n      swap1\n      dup1\n      mload\n      swap1\n      0x20\n      add\n      swap1\n      tag_85\n      swap3\n      swap2\n      swap1\n      tag_66\n      jump\t// in\n    tag_85:\n      pop\n        /* \"contracts/Profile.sol\":1370:1380  middleName */\n      dup5\n        /* \"contracts/Profile.sol\":1325:1332  profile */\n      0x00\n        /* \"contracts/Profile.sol\":1325:1344  profile[msg.sender] */\n      dup1\n        /* \"contracts/Profile.sol\":1333:1343  msg.sender */\n      caller\n        /* \"contracts/Profile.sol\":1325:1344  profile[msg.sender] */\n      0xffffffffffffffffffffffffffffffffffffffff\n      and\n      0xffffffffffffffffffffffffffffffffffffffff\n      and\n      dup2\n      mstore\n      0x20\n      add\n      swap1\n      dup2\n      mstore\n      0x20\n      add\n      0x00\n      keccak256\n        /* \"contracts/Profile.sol\":1325:1356  profile[msg.sender].information */\n      0x00\n      add\n        /* \"contracts/Profile.sol\":1325:1367  profile[msg.sender].information.middleName */\n      0x04\n      add\n        /* \"contracts/Profile.sol\":1325:1380  profile[msg.sender].information.middleName = middleName */\n      swap1\n      dup1\n      mload\n      swap1\n      0x20\n      add\n      swap1\n      tag_86\n      swap3\n      swap2\n      swap1\n      tag_66\n      jump\t// in\n    tag_86:\n      pop\n        /* \"contracts/Profile.sol\":1434:1442  lastName */\n      dup4\n        /* \"contracts/Profile.sol\":1391:1398  profile */\n      0x00\n        /* \"contracts/Profile.sol\":1391:1410  profile[msg.sender] */\n      dup1\n        /* \"contracts/Profile.sol\":1399:1409  msg.sender */\n      caller\n        /* \"contracts/Profile.sol\":1391:1410  profile[msg.sender] */\n      0xffffffffffffffffffffffffffffffffffffffff\n      and\n      0xffffffffffffffffffffffffffffffffffffffff\n      and\n      dup2\n      mstore\n      0x20\n      add\n      swap1\n      dup2\n      mstore\n      0x20\n      add\n      0x00\n      keccak256\n        /* \"contracts/Profile.sol\":1391:1422  profile[msg.sender].information */\n      0x00\n      add\n        /* \"contracts/Profile.sol\":1391:1431  profile[msg.sender].information.lastName */\n      0x05\n      add\n        /* \"contracts/Profile.sol\":1391:1442  profile[msg.sender].information.lastName = lastName */\n      swap1\n      dup1\n      mload\n      swap1\n      0x20\n      add\n      swap1\n      tag_87\n      swap3\n      swap2\n      swap1\n      tag_66\n      jump\t// in\n    tag_87:\n      pop\n        /* \"contracts/Profile.sol\":1500:1512  profileImage */\n      dup3\n        /* \"contracts/Profile.sol\":1453:1460  profile */\n      0x00\n        /* \"contracts/Profile.sol\":1453:1472  profile[msg.sender] */\n      dup1\n        /* \"contracts/Profile.sol\":1461:1471  msg.sender */\n      caller\n        /* \"contracts/Profile.sol\":1453:1472  profile[msg.sender] */\n      0xffffffffffffffffffffffffffffffffffffffff\n      and\n      0xffffffffffffffffffffffffffffffffffffffff\n      and\n      dup2\n      mstore\n      0x20\n      add\n      swap1\n      dup2\n      mstore\n      0x20\n      add\n      0x00\n      keccak256\n        /* \"contracts/Profile.sol\":1453:1484  profile[msg.sender].information */\n      0x00\n      add\n        /* \"contracts/Profile.sol\":1453:1497  profile[msg.sender].information.profileImage */\n      0x06\n      add\n        /* \"contracts/Profile.sol\":1453:1512  profile[msg.sender].information.profileImage = profileImage */\n      swap1\n      dup1\n      mload\n      swap1\n      0x20\n      add\n      swap1\n      tag_88\n      swap3\n      swap2\n      swap1\n      tag_66\n      jump\t// in\n    tag_88:\n      pop\n        /* \"contracts/Profile.sol\":1565:1572  aboutMe */\n      dup2\n        /* \"contracts/Profile.sol\":1523:1530  profile */\n      0x00\n        /* \"contracts/Profile.sol\":1523:1542  profile[msg.sender] */\n      dup1\n        /* \"contracts/Profile.sol\":1531:1541  msg.sender */\n      caller\n        /* \"contracts/Profile.sol\":1523:1542  profile[msg.sender] */\n      0xffffffffffffffffffffffffffffffffffffffff\n      and\n      0xffffffffffffffffffffffffffffffffffffffff\n      and\n      dup2\n      mstore\n      0x20\n      add\n      swap1\n      dup2\n      mstore\n      0x20\n      add\n      0x00\n      keccak256\n        /* \"contracts/Profile.sol\":1523:1554  profile[msg.sender].information */\n      0x00\n      add\n        /* \"contracts/Profile.sol\":1523:1562  profile[msg.sender].information.aboutMe */\n      0x00\n      add\n        /* \"contracts/Profile.sol\":1523:1572  profile[msg.sender].information.aboutMe = aboutMe */\n      swap1\n      dup1\n      mload\n      swap1\n      0x20\n      add\n      swap1\n      tag_89\n      swap3\n      swap2\n      swap1\n      tag_66\n      jump\t// in\n    tag_89:\n      pop\n        /* \"contracts/Profile.sol\":1626:1634  position */\n      dup1\n        /* \"contracts/Profile.sol\":1583:1590  profile */\n      0x00\n        /* \"contracts/Profile.sol\":1583:1602  profile[msg.sender] */\n      dup1\n        /* \"contracts/Profile.sol\":1591:1601  msg.sender */\n      caller\n        /* \"contracts/Profile.sol\":1583:1602  profile[msg.sender] */\n      0xffffffffffffffffffffffffffffffffffffffff\n      and\n      0xffffffffffffffffffffffffffffffffffffffff\n      and\n      dup2\n      mstore\n      0x20\n      add\n      swap1\n      dup2\n      mstore\n      0x20\n      add\n      0x00\n      keccak256\n        /* \"contracts/Profile.sol\":1583:1614  profile[msg.sender].information */\n      0x00\n      add\n        /* \"contracts/Profile.sol\":1583:1623  profile[msg.sender].information.position */\n      0x01\n      add\n        /* \"contracts/Profile.sol\":1583:1634  profile[msg.sender].information.position = position */\n      swap1\n      dup1\n      mload\n      swap1\n      0x20\n      add\n      swap1\n      tag_90\n      swap3\n      swap2\n      swap1\n      tag_66\n      jump\t// in\n    tag_90:\n      pop\n        /* \"contracts/Profile.sol\":1691:1701  msg.sender */\n      caller\n        /* \"contracts/Profile.sol\":1645:1652  profile */\n      0x00\n        /* \"contracts/Profile.sol\":1645:1664  profile[msg.sender] */\n      dup1\n        /* \"contracts/Profile.sol\":1653:1663  msg.sender */\n      caller\n        /* \"contracts/Profile.sol\":1645:1664  profile[msg.sender] */\n      0xffffffffffffffffffffffffffffffffffffffff\n      and\n      0xffffffffffffffffffffffffffffffffffffffff\n      and\n      dup2\n      mstore\n      0x20\n      add\n      swap1\n      dup2\n      mstore\n      0x20\n      add\n      0x00\n      keccak256\n        /* \"contracts/Profile.sol\":1645:1676  profile[msg.sender].information */\n      0x00\n      add\n        /* \"contracts/Profile.sol\":1645:1688  profile[msg.sender].information.userAddress */\n      0x02\n      add\n      0x00\n        /* \"contracts/Profile.sol\":1645:1701  profile[msg.sender].information.userAddress = msg.sender */\n      0x0100\n      exp\n      dup2\n      sload\n      dup2\n      0xffffffffffffffffffffffffffffffffffffffff\n      mul\n      not\n      and\n      swap1\n      dup4\n      0xffffffffffffffffffffffffffffffffffffffff\n      and\n      mul\n      or\n      swap1\n      sstore\n      pop\n        /* \"contracts/Profile.sol\":1758:1773  block.timestamp */\n      timestamp\n        /* \"contracts/Profile.sol\":1713:1720  profile */\n      0x00\n        /* \"contracts/Profile.sol\":1713:1732  profile[msg.sender] */\n      dup1\n        /* \"contracts/Profile.sol\":1721:1731  msg.sender */\n      caller\n        /* \"contracts/Profile.sol\":1713:1732  profile[msg.sender] */\n      0xffffffffffffffffffffffffffffffffffffffff\n      and\n      0xffffffffffffffffffffffffffffffffffffffff\n      and\n      dup2\n      mstore\n      0x20\n      add\n      swap1\n      dup2\n      mstore\n      0x20\n      add\n      0x00\n      keccak256\n        /* \"contracts/Profile.sol\":1713:1744  profile[msg.sender].information */\n      0x00\n      add\n        /* \"contracts/Profile.sol\":1713:1755  profile[msg.sender].information.createDate */\n      0x07\n      add\n        /* \"contracts/Profile.sol\":1713:1773  profile[msg.sender].information.createDate = block.timestamp */\n      dup2\n      swap1\n      sstore\n      pop\n        /* \"contracts/Profile.sol\":1065:1781  function createInformation(string memory firstName, string memory middleName, string memory lastName,  string memory profileImage, string memory aboutMe, string memory position) public {\r... */\n      pop\n      pop\n      pop\n      pop\n      pop\n      pop\n      jump\t// out\n        /* \"contracts/Profile.sol\":3994:4086  function delInformaion() external  {\r... */\n    tag_34:\n        /* \"contracts/Profile.sol\":4047:4054  profile */\n      0x00\n        /* \"contracts/Profile.sol\":4047:4066  profile[msg.sender] */\n      dup1\n        /* \"contracts/Profile.sol\":4055:4065  msg.sender */\n      caller\n        /* \"contracts/Profile.sol\":4047:4066  profile[msg.sender] */\n      0xffffffffffffffffffffffffffffffffffffffff\n      and\n      0xffffffffffffffffffffffffffffffffffffffff\n      and\n      dup2\n      mstore\n      0x20\n      add\n      swap1\n      dup2\n      mstore\n      0x20\n      add\n      0x00\n      keccak256\n        /* \"contracts/Profile.sol\":4047:4078  profile[msg.sender].information */\n      0x00\n      add\n      0x00\n        /* \"contracts/Profile.sol\":4040:4078  delete profile[msg.sender].information */\n      dup1\n      dup3\n      add\n      0x00\n      tag_92\n      swap2\n      swap1\n      tag_73\n      jump\t// in\n    tag_92:\n      0x01\n      dup3\n      add\n      0x00\n      tag_93\n      swap2\n      swap1\n      tag_73\n      jump\t// in\n    tag_93:\n      0x02\n      dup3\n      add\n      exp(0x0100, 0x00)\n      dup2\n      sload\n      swap1\n      0xffffffffffffffffffffffffffffffffffffffff\n      mul\n      not\n      and\n      swap1\n      sstore\n      0x03\n      dup3\n      add\n      0x00\n      tag_94\n      swap2\n      swap1\n      tag_73\n      jump\t// in\n    tag_94:\n      0x04\n      dup3\n      add\n      0x00\n      tag_95\n      swap2\n      swap1\n      tag_73\n      jump\t// in\n    tag_95:\n      0x05\n      dup3\n      add\n      0x00\n      tag_96\n      swap2\n      swap1\n      tag_73\n      jump\t// in\n    tag_96:\n      0x06\n      dup3\n      add\n      0x00\n      tag_97\n      swap2\n      swap1\n      tag_73\n      jump\t// in\n    tag_97:\n      0x07\n      dup3\n      add\n      0x00\n      swap1\n      sstore\n      pop\n      pop\n        /* \"contracts/Profile.sol\":3994:4086  function delInformaion() external  {\r... */\n      jump\t// out\n        /* \"contracts/Profile.sol\":234:274  mapping (address => Bio) public  profile */\n    tag_38:\n      mstore(0x20, 0x00)\n      dup1\n      0x00\n      mstore\n      keccak256(0x00, 0x40)\n      0x00\n      swap2\n      pop\n      swap1\n      pop\n      dup1\n      0x00\n      add\n      mload(0x40)\n      dup1\n      0x0100\n      add\n      0x40\n      mstore\n      swap1\n      dup2\n      0x00\n      dup3\n      add\n      dup1\n      sload\n      tag_98\n      swap1\n      tag_99\n      jump\t// in\n    tag_98:\n      dup1\n      0x1f\n      add\n      0x20\n      dup1\n      swap2\n      div\n      mul\n      0x20\n      add\n      mload(0x40)\n      swap1\n      dup2\n      add\n      0x40\n      mstore\n      dup1\n      swap3\n      swap2\n      swap1\n      dup2\n      dup2\n      mstore\n      0x20\n      add\n      dup3\n      dup1\n      sload\n      tag_100\n      swap1\n      tag_99\n      jump\t// in\n    tag_100:\n      dup1\n      iszero\n      tag_101\n      jumpi\n      dup1\n      0x1f\n      lt\n      tag_102\n      jumpi\n      0x0100\n      dup1\n      dup4\n      sload\n      div\n      mul\n      dup4\n      mstore\n      swap2\n      0x20\n      add\n      swap2\n      jump(tag_101)\n    tag_102:\n      dup3\n      add\n      swap2\n      swap1\n      0x00\n      mstore\n      keccak256(0x00, 0x20)\n      swap1\n    tag_103:\n      dup2\n      sload\n      dup2\n      mstore\n      swap1\n      0x01\n      add\n      swap1\n      0x20\n      add\n      dup1\n      dup4\n      gt\n      tag_103\n      jumpi\n      dup3\n      swap1\n      sub\n      0x1f\n      and\n      dup3\n      add\n      swap2\n    tag_101:\n      pop\n      pop\n      pop\n      pop\n      pop\n      dup2\n      mstore\n      0x20\n      add\n      0x01\n      dup3\n      add\n      dup1\n      sload\n      tag_104\n      swap1\n      tag_99\n      jump\t// in\n    tag_104:\n      dup1\n      0x1f\n      add\n      0x20\n      dup1\n      swap2\n      div\n      mul\n      0x20\n      add\n      mload(0x40)\n      swap1\n      dup2\n      add\n      0x40\n      mstore\n      dup1\n      swap3\n      swap2\n      swap1\n      dup2\n      dup2\n      mstore\n      0x20\n      add\n      dup3\n      dup1\n      sload\n      tag_105\n      swap1\n      tag_99\n      jump\t// in\n    tag_105:\n      dup1\n      iszero\n      tag_106\n      jumpi\n      dup1\n      0x1f\n      lt\n      tag_107\n      jumpi\n      0x0100\n      dup1\n      dup4\n      sload\n      div\n      mul\n      dup4\n      mstore\n      swap2\n      0x20\n      add\n      swap2\n      jump(tag_106)\n    tag_107:\n      dup3\n      add\n      swap2\n      swap1\n      0x00\n      mstore\n      keccak256(0x00, 0x20)\n      swap1\n    tag_108:\n      dup2\n      sload\n      dup2\n      mstore\n      swap1\n      0x01\n      add\n      swap1\n      0x20\n      add\n      dup1\n      dup4\n      gt\n      tag_108\n      jumpi\n      dup3\n      swap1\n      sub\n      0x1f\n      and\n      dup3\n      add\n      swap2\n    tag_106:\n      pop\n      pop\n      pop\n      pop\n      pop\n      dup2\n      mstore\n      0x20\n      add\n      0x02\n      dup3\n      add\n      0x00\n      swap1\n      sload\n      swap1\n      0x0100\n      exp\n      swap1\n      div\n      0xffffffffffffffffffffffffffffffffffffffff\n      and\n      0xffffffffffffffffffffffffffffffffffffffff\n      and\n      0xffffffffffffffffffffffffffffffffffffffff\n      and\n      dup2\n      mstore\n      0x20\n      add\n      0x03\n      dup3\n      add\n      dup1\n      sload\n      tag_109\n      swap1\n      tag_99\n      jump\t// in\n    tag_109:\n      dup1\n      0x1f\n      add\n      0x20\n      dup1\n      swap2\n      div\n      mul\n      0x20\n      add\n      mload(0x40)\n      swap1\n      dup2\n      add\n      0x40\n      mstore\n      dup1\n      swap3\n      swap2\n      swap1\n      dup2\n      dup2\n      mstore\n      0x20\n      add\n      dup3\n      dup1\n      sload\n      tag_110\n      swap1\n      tag_99\n      jump\t// in\n    tag_110:\n      dup1\n      iszero\n      tag_111\n      jumpi\n      dup1\n      0x1f\n      lt\n      tag_112\n      jumpi\n      0x0100\n      dup1\n      dup4\n      sload\n      div\n      mul\n      dup4\n      mstore\n      swap2\n      0x20\n      add\n      swap2\n      jump(tag_111)\n    tag_112:\n      dup3\n      add\n      swap2\n      swap1\n      0x00\n      mstore\n      keccak256(0x00, 0x20)\n      swap1\n    tag_113:\n      dup2\n      sload\n      dup2\n      mstore\n      swap1\n      0x01\n      add\n      swap1\n      0x20\n      add\n      dup1\n      dup4\n      gt\n      tag_113\n      jumpi\n      dup3\n      swap1\n      sub\n      0x1f\n      and\n      dup3\n      add\n      swap2\n    tag_111:\n      pop\n      pop\n      pop\n      pop\n      pop\n      dup2\n      mstore\n      0x20\n      add\n      0x04\n      dup3\n      add\n      dup1\n      sload\n      tag_114\n      swap1\n      tag_99\n      jump\t// in\n    tag_114:\n      dup1\n      0x1f\n      add\n      0x20\n      dup1\n      swap2\n      div\n      mul\n      0x20\n      add\n      mload(0x40)\n      swap1\n      dup2\n      add\n      0x40\n      mstore\n      dup1\n      swap3\n      swap2\n      swap1\n      dup2\n      dup2\n      mstore\n      0x20\n      add\n      dup3\n      dup1\n      sload\n      tag_115\n      swap1\n      tag_99\n      jump\t// in\n    tag_115:\n      dup1\n      iszero\n      tag_116\n      jumpi\n      dup1\n      0x1f\n      lt\n      tag_117\n      jumpi\n      0x0100\n      dup1\n      dup4\n      sload\n      div\n      mul\n      dup4\n      mstore\n      swap2\n      0x20\n      add\n      swap2\n      jump(tag_116)\n    tag_117:\n      dup3\n      add\n      swap2\n      swap1\n      0x00\n      mstore\n      keccak256(0x00, 0x20)\n      swap1\n    tag_118:\n      dup2\n      sload\n      dup2\n      mstore\n      swap1\n      0x01\n      add\n      swap1\n      0x20\n      add\n      dup1\n      dup4\n      gt\n      tag_118\n      jumpi\n      dup3\n      swap1\n      sub\n      0x1f\n      and\n      dup3\n      add\n      swap2\n    tag_116:\n      pop\n      pop\n      pop\n      pop\n      pop\n      dup2\n      mstore\n      0x20\n      add\n      0x05\n      dup3\n      add\n      dup1\n      sload\n      tag_119\n      swap1\n      tag_99\n      jump\t// in\n    tag_119:\n      dup1\n      0x1f\n      add\n      0x20\n      dup1\n      swap2\n      div\n      mul\n      0x20\n      add\n      mload(0x40)\n      swap1\n      dup2\n      add\n      0x40\n      mstore\n      dup1\n      swap3\n      swap2\n      swap1\n      dup2\n      dup2\n      mstore\n      0x20\n      add\n      dup3\n      dup1\n      sload\n      tag_120\n      swap1\n      tag_99\n      jump\t// in\n    tag_120:\n      dup1\n      iszero\n      tag_121\n      jumpi\n      dup1\n      0x1f\n      lt\n      tag_122\n      jumpi\n      0x0100\n      dup1\n      dup4\n      sload\n      div\n      mul\n      dup4\n      mstore\n      swap2\n      0x20\n      add\n      swap2\n      jump(tag_121)\n    tag_122:\n      dup3\n      add\n      swap2\n      swap1\n      0x00\n      mstore\n      keccak256(0x00, 0x20)\n      swap1\n    tag_123:\n      dup2\n      sload\n      dup2\n      mstore\n      swap1\n      0x01\n      add\n      swap1\n      0x20\n      add\n      dup1\n      dup4\n      gt\n      tag_123\n      jumpi\n      dup3\n      swap1\n      sub\n      0x1f\n      and\n      dup3\n      add\n      swap2\n    tag_121:\n      pop\n      pop\n      pop\n      pop\n      pop\n      dup2\n      mstore\n      0x20\n      add\n      0x06\n      dup3\n      add\n      dup1\n      sload\n      tag_124\n      swap1\n      tag_99\n      jump\t// in\n    tag_124:\n      dup1\n      0x1f\n      add\n      0x20\n      dup1\n      swap2\n      div\n      mul\n      0x20\n      add\n      mload(0x40)\n      swap1\n      dup2\n      add\n      0x40\n      mstore\n      dup1\n      swap3\n      swap2\n      swap1\n      dup2\n      dup2\n      mstore\n      0x20\n      add\n      dup3\n      dup1\n      sload\n      tag_125\n      swap1\n      tag_99\n      jump\t// in\n    tag_125:\n      dup1\n      iszero\n      tag_126\n      jumpi\n      dup1\n      0x1f\n      lt\n      tag_127\n      jumpi\n      0x0100\n      dup1\n      dup4\n      sload\n      div\n      mul\n      dup4\n      mstore\n      swap2\n      0x20\n      add\n      swap2\n      jump(tag_126)\n    tag_127:\n      dup3\n      add\n      swap2\n      swap1\n      0x00\n      mstore\n      keccak256(0x00, 0x20)\n      swap1\n    tag_128:\n      dup2\n      sload\n      dup2\n      mstore\n      swap1\n      0x01\n      add\n      swap1\n      0x20\n      add\n      dup1\n      dup4\n      gt\n      tag_128\n      jumpi\n      dup3\n      swap1\n      sub\n      0x1f\n      and\n      dup3\n      add\n      swap2\n    tag_126:\n      pop\n      pop\n      pop\n      pop\n      pop\n      dup2\n      mstore\n      0x20\n      add\n      0x07\n      dup3\n      add\n      sload\n      dup2\n      mstore\n      pop\n      pop\n      swap1\n      dup1\n      0x08\n      add\n      mload(0x40)\n      dup1\n      0xc0\n      add\n      0x40\n      mstore\n      swap1\n      dup2\n      0x00\n      dup3\n      add\n      dup1\n      sload\n      tag_129\n      swap1\n      tag_99\n      jump\t// in\n    tag_129:\n      dup1\n      0x1f\n      add\n      0x20\n      dup1\n      swap2\n      div\n      mul\n      0x20\n      add\n      mload(0x40)\n      swap1\n      dup2\n      add\n      0x40\n      mstore\n      dup1\n      swap3\n      swap2\n      swap1\n      dup2\n      dup2\n      mstore\n      0x20\n      add\n      dup3\n      dup1\n      sload\n      tag_130\n      swap1\n      tag_99\n      jump\t// in\n    tag_130:\n      dup1\n      iszero\n      tag_131\n      jumpi\n      dup1\n      0x1f\n      lt\n      tag_132\n      jumpi\n      0x0100\n      dup1\n      dup4\n      sload\n      div\n      mul\n      dup4\n      mstore\n      swap2\n      0x20\n      add\n      swap2\n      jump(tag_131)\n    tag_132:\n      dup3\n      add\n      swap2\n      swap1\n      0x00\n      mstore\n      keccak256(0x00, 0x20)\n      swap1\n    tag_133:\n      dup2\n      sload\n      dup2\n      mstore\n      swap1\n      0x01\n      add\n      swap1\n      0x20\n      add\n      dup1\n      dup4\n      gt\n      tag_133\n      jumpi\n      dup3\n      swap1\n      sub\n      0x1f\n      and\n      dup3\n      add\n      swap2\n    tag_131:\n      pop\n      pop\n      pop\n      pop\n      pop\n      dup2\n      mstore\n      0x20\n      add\n      0x01\n      dup3\n      add\n      dup1\n      sload\n      tag_134\n      swap1\n      tag_99\n      jump\t// in\n    tag_134:\n      dup1\n      0x1f\n      add\n      0x20\n      dup1\n      swap2\n      div\n      mul\n      0x20\n      add\n      mload(0x40)\n      swap1\n      dup2\n      add\n      0x40\n      mstore\n      dup1\n      swap3\n      swap2\n      swap1\n      dup2\n      dup2\n      mstore\n      0x20\n      add\n      dup3\n      dup1\n      sload\n      tag_135\n      swap1\n      tag_99\n      jump\t// in\n    tag_135:\n      dup1\n      iszero\n      tag_136\n      jumpi\n      dup1\n      0x1f\n      lt\n      tag_137\n      jumpi\n      0x0100\n      dup1\n      dup4\n      sload\n      div\n      mul\n      dup4\n      mstore\n      swap2\n      0x20\n      add\n      swap2\n      jump(tag_136)\n    tag_137:\n      dup3\n      add\n      swap2\n      swap1\n      0x00\n      mstore\n      keccak256(0x00, 0x20)\n      swap1\n    tag_138:\n      dup2\n      sload\n      dup2\n      mstore\n      swap1\n      0x01\n      add\n      swap1\n      0x20\n      add\n      dup1\n      dup4\n      gt\n      tag_138\n      jumpi\n      dup3\n      swap1\n      sub\n      0x1f\n      and\n      dup3\n      add\n      swap2\n    tag_136:\n      pop\n      pop\n      pop\n      pop\n      pop\n      dup2\n      mstore\n      0x20\n      add\n      0x02\n      dup3\n      add\n      dup1\n      sload\n      tag_139\n      swap1\n      tag_99\n      jump\t// in\n    tag_139:\n      dup1\n      0x1f\n      add\n      0x20\n      dup1\n      swap2\n      div\n      mul\n      0x20\n      add\n      mload(0x40)\n      swap1\n      dup2\n      add\n      0x40\n      mstore\n      dup1\n      swap3\n      swap2\n      swap1\n      dup2\n      dup2\n      mstore\n      0x20\n      add\n      dup3\n      dup1\n      sload\n      tag_140\n      swap1\n      tag_99\n      jump\t// in\n    tag_140:\n      dup1\n      iszero\n      tag_141\n      jumpi\n      dup1\n      0x1f\n      lt\n      tag_142\n      jumpi\n      0x0100\n      dup1\n      dup4\n      sload\n      div\n      mul\n      dup4\n      mstore\n      swap2\n      0x20\n      add\n      swap2\n      jump(tag_141)\n    tag_142:\n      dup3\n      add\n      swap2\n      swap1\n      0x00\n      mstore\n      keccak256(0x00, 0x20)\n      swap1\n    tag_143:\n      dup2\n      sload\n      dup2\n      mstore\n      swap1\n      0x01\n      add\n      swap1\n      0x20\n      add\n      dup1\n      dup4\n      gt\n      tag_143\n      jumpi\n      dup3\n      swap1\n      sub\n      0x1f\n      and\n      dup3\n      add\n      swap2\n    tag_141:\n      pop\n      pop\n      pop\n      pop\n      pop\n      dup2\n      mstore\n      0x20\n      add\n      0x03\n      dup3\n      add\n      dup1\n      sload\n      tag_144\n      swap1\n      tag_99\n      jump\t// in\n    tag_144:\n      dup1\n      0x1f\n      add\n      0x20\n      dup1\n      swap2\n      div\n      mul\n      0x20\n      add\n      mload(0x40)\n      swap1\n      dup2\n      add\n      0x40\n      mstore\n      dup1\n      swap3\n      swap2\n      swap1\n      dup2\n      dup2\n      mstore\n      0x20\n      add\n      dup3\n      dup1\n      sload\n      tag_145\n      swap1\n      tag_99\n      jump\t// in\n    tag_145:\n      dup1\n      iszero\n      tag_146\n      jumpi\n      dup1\n      0x1f\n      lt\n      tag_147\n      jumpi\n      0x0100\n      dup1\n      dup4\n      sload\n      div\n      mul\n      dup4\n      mstore\n      swap2\n      0x20\n      add\n      swap2\n      jump(tag_146)\n    tag_147:\n      dup3\n      add\n      swap2\n      swap1\n      0x00\n      mstore\n      keccak256(0x00, 0x20)\n      swap1\n    tag_148:\n      dup2\n      sload\n      dup2\n      mstore\n      swap1\n      0x01\n      add\n      swap1\n      0x20\n      add\n      dup1\n      dup4\n      gt\n      tag_148\n      jumpi\n      dup3\n      swap1\n      sub\n      0x1f\n      and\n      dup3\n      add\n      swap2\n    tag_146:\n      pop\n      pop\n      pop\n      pop\n      pop\n      dup2\n      mstore\n      0x20\n      add\n      0x04\n      dup3\n      add\n      dup1\n      sload\n      tag_149\n      swap1\n      tag_99\n      jump\t// in\n    tag_149:\n      dup1\n      0x1f\n      add\n      0x20\n      dup1\n      swap2\n      div\n      mul\n      0x20\n      add\n      mload(0x40)\n      swap1\n      dup2\n      add\n      0x40\n      mstore\n      dup1\n      swap3\n      swap2\n      swap1\n      dup2\n      dup2\n      mstore\n      0x20\n      add\n      dup3\n      dup1\n      sload\n      tag_150\n      swap1\n      tag_99\n      jump\t// in\n    tag_150:\n      dup1\n      iszero\n      tag_151\n      jumpi\n      dup1\n      0x1f\n      lt\n      tag_152\n      jumpi\n      0x0100\n      dup1\n      dup4\n      sload\n      div\n      mul\n      dup4\n      mstore\n      swap2\n      0x20\n      add\n      swap2\n      jump(tag_151)\n    tag_152:\n      dup3\n      add\n      swap2\n      swap1\n      0x00\n      mstore\n      keccak256(0x00, 0x20)\n      swap1\n    tag_153:\n      dup2\n      sload\n      dup2\n      mstore\n      swap1\n      0x01\n      add\n      swap1\n      0x20\n      add\n      dup1\n      dup4\n      gt\n      tag_153\n      jumpi\n      dup3\n      swap1\n      sub\n      0x1f\n      and\n      dup3\n      add\n      swap2\n    tag_151:\n      pop\n      pop\n      pop\n      pop\n      pop\n      dup2\n      mstore\n      0x20\n      add\n      0x05\n      dup3\n      add\n      dup1\n      sload\n      tag_154\n      swap1\n      tag_99\n      jump\t// in\n    tag_154:\n      dup1\n      0x1f\n      add\n      0x20\n      dup1\n      swap2\n      div\n      mul\n      0x20\n      add\n      mload(0x40)\n      swap1\n      dup2\n      add\n      0x40\n      mstore\n      dup1\n      swap3\n      swap2\n      swap1\n      dup2\n      dup2\n      mstore\n      0x20\n      add\n      dup3\n      dup1\n      sload\n      tag_155\n      swap1\n      tag_99\n      jump\t// in\n    tag_155:\n      dup1\n      iszero\n      tag_156\n      jumpi\n      dup1\n      0x1f\n      lt\n      tag_157\n      jumpi\n      0x0100\n      dup1\n      dup4\n      sload\n      div\n      mul\n      dup4\n      mstore\n      swap2\n      0x20\n      add\n      swap2\n      jump(tag_156)\n    tag_157:\n      dup3\n      add\n      swap2\n      swap1\n      0x00\n      mstore\n      keccak256(0x00, 0x20)\n      swap1\n    tag_158:\n      dup2\n      sload\n      dup2\n      mstore\n      swap1\n      0x01\n      add\n      swap1\n      0x20\n      add\n      dup1\n      dup4\n      gt\n      tag_158\n      jumpi\n      dup3\n      swap1\n      sub\n      0x1f\n      and\n      dup3\n      add\n      swap2\n    tag_156:\n      pop\n      pop\n      pop\n      pop\n      pop\n      dup2\n      mstore\n      pop\n      pop\n      swap1\n      dup1\n      0x0e\n      add\n      mload(0x40)\n      dup1\n      0x60\n      add\n      0x40\n      mstore\n      swap1\n      dup2\n      0x00\n      dup3\n      add\n      dup1\n      sload\n      dup1\n      0x20\n      mul\n      0x20\n      add\n      mload(0x40)\n      swap1\n      dup2\n      add\n      0x40\n      mstore\n      dup1\n      swap3\n      swap2\n      swap1\n      dup2\n      dup2\n      mstore\n      0x20\n      add\n      0x00\n      swap1\n    tag_159:\n      dup3\n      dup3\n      lt\n      iszero\n      tag_160\n      jumpi\n      dup4\n      dup3\n      swap1\n      0x00\n      mstore\n      keccak256(0x00, 0x20)\n      add\n      dup1\n      sload\n      tag_162\n      swap1\n      tag_99\n      jump\t// in\n    tag_162:\n      dup1\n      0x1f\n      add\n      0x20\n      dup1\n      swap2\n      div\n      mul\n      0x20\n      add\n      mload(0x40)\n      swap1\n      dup2\n      add\n      0x40\n      mstore\n      dup1\n      swap3\n      swap2\n      swap1\n      dup2\n      dup2\n      mstore\n      0x20\n      add\n      dup3\n      dup1\n      sload\n      tag_163\n      swap1\n      tag_99\n      jump\t// in\n    tag_163:\n      dup1\n      iszero\n      tag_164\n      jumpi\n      dup1\n      0x1f\n      lt\n      tag_165\n      jumpi\n      0x0100\n      dup1\n      dup4\n      sload\n      div\n      mul\n      dup4\n      mstore\n      swap2\n      0x20\n      add\n      swap2\n      jump(tag_164)\n    tag_165:\n      dup3\n      add\n      swap2\n      swap1\n      0x00\n      mstore\n      keccak256(0x00, 0x20)\n      swap1\n    tag_166:\n      dup2\n      sload\n      dup2\n      mstore\n      swap1\n      0x01\n      add\n      swap1\n      0x20\n      add\n      dup1\n      dup4\n      gt\n      tag_166\n      jumpi\n      dup3\n      swap1\n      sub\n      0x1f\n      and\n      dup3\n      add\n      swap2\n    tag_164:\n      pop\n      pop\n      pop\n      pop\n      pop\n      dup2\n      mstore\n      0x20\n      add\n      swap1\n      0x01\n      add\n      swap1\n      jump(tag_159)\n    tag_160:\n      pop\n      pop\n      pop\n      pop\n      dup2\n      mstore\n      0x20\n      add\n      0x01\n      dup3\n      add\n      dup1\n      sload\n      dup1\n      0x20\n      mul\n      0x20\n      add\n      mload(0x40)\n      swap1\n      dup2\n      add\n      0x40\n      mstore\n      dup1\n      swap3\n      swap2\n      swap1\n      dup2\n      dup2\n      mstore\n      0x20\n      add\n      0x00\n      swap1\n    tag_167:\n      dup3\n      dup3\n      lt\n      iszero\n      tag_168\n      jumpi\n      dup4\n      dup3\n      swap1\n      0x00\n      mstore\n      keccak256(0x00, 0x20)\n      add\n      dup1\n      sload\n      tag_170\n      swap1\n      tag_99\n      jump\t// in\n    tag_170:\n      dup1\n      0x1f\n      add\n      0x20\n      dup1\n      swap2\n      div\n      mul\n      0x20\n      add\n      mload(0x40)\n      swap1\n      dup2\n      add\n      0x40\n      mstore\n      dup1\n      swap3\n      swap2\n      swap1\n      dup2\n      dup2\n      mstore\n      0x20\n      add\n      dup3\n      dup1\n      sload\n      tag_171\n      swap1\n      tag_99\n      jump\t// in\n    tag_171:\n      dup1\n      iszero\n      tag_172\n      jumpi\n      dup1\n      0x1f\n      lt\n      tag_173\n      jumpi\n      0x0100\n      dup1\n      dup4\n      sload\n      div\n      mul\n      dup4\n      mstore\n      swap2\n      0x20\n      add\n      swap2\n      jump(tag_172)\n    tag_173:\n      dup3\n      add\n      swap2\n      swap1\n      0x00\n      mstore\n      keccak256(0x00, 0x20)\n      swap1\n    tag_174:\n      dup2\n      sload\n      dup2\n      mstore\n      swap1\n      0x01\n      add\n      swap1\n      0x20\n      add\n      dup1\n      dup4\n      gt\n      tag_174\n      jumpi\n      dup3\n      swap1\n      sub\n      0x1f\n      and\n      dup3\n      add\n      swap2\n    tag_172:\n      pop\n      pop\n      pop\n      pop\n      pop\n      dup2\n      mstore\n      0x20\n      add\n      swap1\n      0x01\n      add\n      swap1\n      jump(tag_167)\n    tag_168:\n      pop\n      pop\n      pop\n      pop\n      dup2\n      mstore\n      0x20\n      add\n      0x02\n      dup3\n      add\n      dup1\n      sload\n      dup1\n      0x20\n      mul\n      0x20\n      add\n      mload(0x40)\n      swap1\n      dup2\n      add\n      0x40\n      mstore\n      dup1\n      swap3\n      swap2\n      swap1\n      dup2\n      dup2\n      mstore\n      0x20\n      add\n      0x00\n      swap1\n    tag_175:\n      dup3\n      dup3\n      lt\n      iszero\n      tag_176\n      jumpi\n      dup4\n      dup3\n      swap1\n      0x00\n      mstore\n      keccak256(0x00, 0x20)\n      add\n      dup1\n      sload\n      tag_178\n      swap1\n      tag_99\n      jump\t// in\n    tag_178:\n      dup1\n      0x1f\n      add\n      0x20\n      dup1\n      swap2\n      div\n      mul\n      0x20\n      add\n      mload(0x40)\n      swap1\n      dup2\n      add\n      0x40\n      mstore\n      dup1\n      swap3\n      swap2\n      swap1\n      dup2\n      dup2\n      mstore\n      0x20\n      add\n      dup3\n      dup1\n      sload\n      tag_179\n      swap1\n      tag_99\n      jump\t// in\n    tag_179:\n      dup1\n      iszero\n      tag_180\n      jumpi\n      dup1\n      0x1f\n      lt\n      tag_181\n      jumpi\n      0x0100\n      dup1\n      dup4\n      sload\n      div\n      mul\n      dup4\n      mstore\n      swap2\n      0x20\n      add\n      swap2\n      jump(tag_180)\n    tag_181:\n      dup3\n      add\n      swap2\n      swap1\n      0x00\n      mstore\n      keccak256(0x00, 0x20)\n      swap1\n    tag_182:\n      dup2\n      sload\n      dup2\n      mstore\n      swap1\n      0x01\n      add\n      swap1\n      0x20\n      add\n      dup1\n      dup4\n      gt\n      tag_182\n      jumpi\n      dup3\n      swap1\n      sub\n      0x1f\n      and\n      dup3\n      add\n      swap2\n    tag_180:\n      pop\n      pop\n      pop\n      pop\n      pop\n      dup2\n      mstore\n      0x20\n      add\n      swap1\n      0x01\n      add\n      swap1\n      jump(tag_175)\n    tag_176:\n      pop\n      pop\n      pop\n      pop\n      dup2\n      mstore\n      pop\n      pop\n      swap1\n      pop\n      dup4\n      jump\t// out\n        /* \"contracts/Profile.sol\":3894:3986  function delAllEducation() external  {\r... */\n    tag_42:\n        /* \"contracts/Profile.sol\":3949:3956  profile */\n      0x00\n        /* \"contracts/Profile.sol\":3949:3968  profile[msg.sender] */\n      dup1\n        /* \"contracts/Profile.sol\":3957:3967  msg.sender */\n      caller\n        /* \"contracts/Profile.sol\":3949:3968  profile[msg.sender] */\n      0xffffffffffffffffffffffffffffffffffffffff\n      and\n      0xffffffffffffffffffffffffffffffffffffffff\n      and\n      dup2\n      mstore\n      0x20\n      add\n      swap1\n      dup2\n      mstore\n      0x20\n      add\n      0x00\n      keccak256\n        /* \"contracts/Profile.sol\":3949:3978  profile[msg.sender].education */\n      0x11\n      add\n      0x00\n        /* \"contracts/Profile.sol\":3942:3978  delete profile[msg.sender].education */\n      tag_184\n      swap2\n      swap1\n      tag_185\n      jump\t// in\n    tag_184:\n        /* \"contracts/Profile.sol\":3894:3986  function delAllEducation() external  {\r... */\n      jump\t// out\n        /* \"contracts/Profile.sol\":3361:3754  function getEducation(uint index) public view returns(string memory, string memory, string memory, string memory, string memory) {\r... */\n    tag_46:\n        /* \"contracts/Profile.sol\":3415:3428  string memory */\n      0x60\n        /* \"contracts/Profile.sol\":3430:3443  string memory */\n      dup1\n        /* \"contracts/Profile.sol\":3445:3458  string memory */\n      0x60\n        /* \"contracts/Profile.sol\":3460:3473  string memory */\n      dup1\n        /* \"contracts/Profile.sol\":3475:3488  string memory */\n      0x60\n        /* \"contracts/Profile.sol\":3509:3516  profile */\n      0x00\n        /* \"contracts/Profile.sol\":3509:3528  profile[msg.sender] */\n      dup1\n        /* \"contracts/Profile.sol\":3517:3527  msg.sender */\n      caller\n        /* \"contracts/Profile.sol\":3509:3528  profile[msg.sender] */\n      0xffffffffffffffffffffffffffffffffffffffff\n      and\n      0xffffffffffffffffffffffffffffffffffffffff\n      and\n      dup2\n      mstore\n      0x20\n      add\n      swap1\n      dup2\n      mstore\n      0x20\n      add\n      0x00\n      keccak256\n        /* \"contracts/Profile.sol\":3509:3538  profile[msg.sender].education */\n      0x11\n      add\n        /* \"contracts/Profile.sol\":3539:3544  index */\n      dup7\n        /* \"contracts/Profile.sol\":3509:3545  profile[msg.sender].education[index] */\n      dup2\n      sload\n      dup2\n      lt\n      tag_187\n      jumpi\n      tag_188\n      tag_189\n      jump\t// in\n    tag_188:\n    tag_187:\n      swap1\n      0x00\n      mstore\n      keccak256(0x00, 0x20)\n      swap1\n      0x05\n      mul\n      add\n        /* \"contracts/Profile.sol\":3509:3555  profile[msg.sender].education[index].startDate */\n      0x00\n      add\n        /* \"contracts/Profile.sol\":3557:3564  profile */\n      0x00\n        /* \"contracts/Profile.sol\":3557:3576  profile[msg.sender] */\n      dup1\n        /* \"contracts/Profile.sol\":3565:3575  msg.sender */\n      caller\n        /* \"contracts/Profile.sol\":3557:3576  profile[msg.sender] */\n      0xffffffffffffffffffffffffffffffffffffffff\n      and\n      0xffffffffffffffffffffffffffffffffffffffff\n      and\n      dup2\n      mstore\n      0x20\n      add\n      swap1\n      dup2\n      mstore\n      0x20\n      add\n      0x00\n      keccak256\n        /* \"contracts/Profile.sol\":3557:3586  profile[msg.sender].education */\n      0x11\n      add\n        /* \"contracts/Profile.sol\":3587:3592  index */\n      dup8\n        /* \"contracts/Profile.sol\":3557:3593  profile[msg.sender].education[index] */\n      dup2\n      sload\n      dup2\n      lt\n      tag_191\n      jumpi\n      tag_192\n      tag_189\n      jump\t// in\n    tag_192:\n    tag_191:\n      swap1\n      0x00\n      mstore\n      keccak256(0x00, 0x20)\n      swap1\n      0x05\n      mul\n      add\n        /* \"contracts/Profile.sol\":3557:3601  profile[msg.sender].education[index].endDate */\n      0x01\n      add\n        /* \"contracts/Profile.sol\":3603:3610  profile */\n      0x00\n        /* \"contracts/Profile.sol\":3603:3622  profile[msg.sender] */\n      dup1\n        /* \"contracts/Profile.sol\":3611:3621  msg.sender */\n      caller\n        /* \"contracts/Profile.sol\":3603:3622  profile[msg.sender] */\n      0xffffffffffffffffffffffffffffffffffffffff\n      and\n      0xffffffffffffffffffffffffffffffffffffffff\n      and\n      dup2\n      mstore\n      0x20\n      add\n      swap1\n      dup2\n      mstore\n      0x20\n      add\n      0x00\n      keccak256\n        /* \"contracts/Profile.sol\":3603:3632  profile[msg.sender].education */\n      0x11\n      add\n        /* \"contracts/Profile.sol\":3633:3638  index */\n      dup9\n        /* \"contracts/Profile.sol\":3603:3639  profile[msg.sender].education[index] */\n      dup2\n      sload\n      dup2\n      lt\n      tag_194\n      jumpi\n      tag_195\n      tag_189\n      jump\t// in\n    tag_195:\n    tag_194:\n      swap1\n      0x00\n      mstore\n      keccak256(0x00, 0x20)\n      swap1\n      0x05\n      mul\n      add\n        /* \"contracts/Profile.sol\":3603:3650  profile[msg.sender].education[index].univercity */\n      0x02\n      add\n        /* \"contracts/Profile.sol\":3652:3659  profile */\n      0x00\n        /* \"contracts/Profile.sol\":3652:3671  profile[msg.sender] */\n      dup1\n        /* \"contracts/Profile.sol\":3660:3670  msg.sender */\n      caller\n        /* \"contracts/Profile.sol\":3652:3671  profile[msg.sender] */\n      0xffffffffffffffffffffffffffffffffffffffff\n      and\n      0xffffffffffffffffffffffffffffffffffffffff\n      and\n      dup2\n      mstore\n      0x20\n      add\n      swap1\n      dup2\n      mstore\n      0x20\n      add\n      0x00\n      keccak256\n        /* \"contracts/Profile.sol\":3652:3681  profile[msg.sender].education */\n      0x11\n      add\n        /* \"contracts/Profile.sol\":3682:3687  index */\n      dup10\n        /* \"contracts/Profile.sol\":3652:3688  profile[msg.sender].education[index] */\n      dup2\n      sload\n      dup2\n      lt\n      tag_197\n      jumpi\n      tag_198\n      tag_189\n      jump\t// in\n    tag_198:\n    tag_197:\n      swap1\n      0x00\n      mstore\n      keccak256(0x00, 0x20)\n      swap1\n      0x05\n      mul\n      add\n        /* \"contracts/Profile.sol\":3652:3694  profile[msg.sender].education[index].major */\n      0x03\n      add\n        /* \"contracts/Profile.sol\":3696:3703  profile */\n      0x00\n        /* \"contracts/Profile.sol\":3696:3715  profile[msg.sender] */\n      dup1\n        /* \"contracts/Profile.sol\":3704:3714  msg.sender */\n      caller\n        /* \"contracts/Profile.sol\":3696:3715  profile[msg.sender] */\n      0xffffffffffffffffffffffffffffffffffffffff\n      and\n      0xffffffffffffffffffffffffffffffffffffffff\n      and\n      dup2\n      mstore\n      0x20\n      add\n      swap1\n      dup2\n      mstore\n      0x20\n      add\n      0x00\n      keccak256\n        /* \"contracts/Profile.sol\":3696:3725  profile[msg.sender].education */\n      0x11\n      add\n        /* \"contracts/Profile.sol\":3726:3731  index */\n      dup11\n        /* \"contracts/Profile.sol\":3696:3732  profile[msg.sender].education[index] */\n      dup2\n      sload\n      dup2\n      lt\n      tag_200\n      jumpi\n      tag_201\n      tag_189\n      jump\t// in\n    tag_201:\n    tag_200:\n      swap1\n      0x00\n      mstore\n      keccak256(0x00, 0x20)\n      swap1\n      0x05\n      mul\n      add\n        /* \"contracts/Profile.sol\":3696:3745  profile[msg.sender].education[index].finalProject */\n      0x04\n      add\n        /* \"contracts/Profile.sol\":3501:3746  return (profile[msg.sender].education[index].startDate, profile[msg.sender].education[index].endDate, profile[msg.sender].education[index].univercity, profile[msg.sender].education[index].major, profile[msg.sender].education[index].finalProject) */\n      dup5\n      dup1\n      sload\n      tag_203\n      swap1\n      tag_99\n      jump\t// in\n    tag_203:\n      dup1\n      0x1f\n      add\n      0x20\n      dup1\n      swap2\n      div\n      mul\n      0x20\n      add\n      mload(0x40)\n      swap1\n      dup2\n      add\n      0x40\n      mstore\n      dup1\n      swap3\n      swap2\n      swap1\n      dup2\n      dup2\n      mstore\n      0x20\n      add\n      dup3\n      dup1\n      sload\n      tag_204\n      swap1\n      tag_99\n      jump\t// in\n    tag_204:\n      dup1\n      iszero\n      tag_205\n      jumpi\n      dup1\n      0x1f\n      lt\n      tag_206\n      jumpi\n      0x0100\n      dup1\n      dup4\n      sload\n      div\n      mul\n      dup4\n      mstore\n      swap2\n      0x20\n      add\n      swap2\n      jump(tag_205)\n    tag_206:\n      dup3\n      add\n      swap2\n      swap1\n      0x00\n      mstore\n      keccak256(0x00, 0x20)\n      swap1\n    tag_207:\n      dup2\n      sload\n      dup2\n      mstore\n      swap1\n      0x01\n      add\n      swap1\n      0x20\n      add\n      dup1\n      dup4\n      gt\n      tag_207\n      jumpi\n      dup3\n      swap1\n      sub\n      0x1f\n      and\n      dup3\n      add\n      swap2\n    tag_205:\n      pop\n      pop\n      pop\n      pop\n      pop\n      swap5\n      pop\n      dup4\n      dup1\n      sload\n      tag_208\n      swap1\n      tag_99\n      jump\t// in\n    tag_208:\n      dup1\n      0x1f\n      add\n      0x20\n      dup1\n      swap2\n      div\n      mul\n      0x20\n      add\n      mload(0x40)\n      swap1\n      dup2\n      add\n      0x40\n      mstore\n      dup1\n      swap3\n      swap2\n      swap1\n      dup2\n      dup2\n      mstore\n      0x20\n      add\n      dup3\n      dup1\n      sload\n      tag_209\n      swap1\n      tag_99\n      jump\t// in\n    tag_209:\n      dup1\n      iszero\n      tag_210\n      jumpi\n      dup1\n      0x1f\n      lt\n      tag_211\n      jumpi\n      0x0100\n      dup1\n      dup4\n      sload\n      div\n      mul\n      dup4\n      mstore\n      swap2\n      0x20\n      add\n      swap2\n      jump(tag_210)\n    tag_211:\n      dup3\n      add\n      swap2\n      swap1\n      0x00\n      mstore\n      keccak256(0x00, 0x20)\n      swap1\n    tag_212:\n      dup2\n      sload\n      dup2\n      mstore\n      swap1\n      0x01\n      add\n      swap1\n      0x20\n      add\n      dup1\n      dup4\n      gt\n      tag_212\n      jumpi\n      dup3\n      swap1\n      sub\n      0x1f\n      and\n      dup3\n      add\n      swap2\n    tag_210:\n      pop\n      pop\n      pop\n      pop\n      pop\n      swap4\n      pop\n      dup3\n      dup1\n      sload\n      tag_213\n      swap1\n      tag_99\n      jump\t// in\n    tag_213:\n      dup1\n      0x1f\n      add\n      0x20\n      dup1\n      swap2\n      div\n      mul\n      0x20\n      add\n      mload(0x40)\n      swap1\n      dup2\n      add\n      0x40\n      mstore\n      dup1\n      swap3\n      swap2\n      swap1\n      dup2\n      dup2\n      mstore\n      0x20\n      add\n      dup3\n      dup1\n      sload\n      tag_214\n      swap1\n      tag_99\n      jump\t// in\n    tag_214:\n      dup1\n      iszero\n      tag_215\n      jumpi\n      dup1\n      0x1f\n      lt\n      tag_216\n      jumpi\n      0x0100\n      dup1\n      dup4\n      sload\n      div\n      mul\n      dup4\n      mstore\n      swap2\n      0x20\n      add\n      swap2\n      jump(tag_215)\n    tag_216:\n      dup3\n      add\n      swap2\n      swap1\n      0x00\n      mstore\n      keccak256(0x00, 0x20)\n      swap1\n    tag_217:\n      dup2\n      sload\n      dup2\n      mstore\n      swap1\n      0x01\n      add\n      swap1\n      0x20\n      add\n      dup1\n      dup4\n      gt\n      tag_217\n      jumpi\n      dup3\n      swap1\n      sub\n      0x1f\n      and\n      dup3\n      add\n      swap2\n    tag_215:\n      pop\n      pop\n      pop\n      pop\n      pop\n      swap3\n      pop\n      dup2\n      dup1\n      sload\n      tag_218\n      swap1\n      tag_99\n      jump\t// in\n    tag_218:\n      dup1\n      0x1f\n      add\n      0x20\n      dup1\n      swap2\n      div\n      mul\n      0x20\n      add\n      mload(0x40)\n      swap1\n      dup2\n      add\n      0x40\n      mstore\n      dup1\n      swap3\n      swap2\n      swap1\n      dup2\n      dup2\n      mstore\n      0x20\n      add\n      dup3\n      dup1\n      sload\n      tag_219\n      swap1\n      tag_99\n      jump\t// in\n    tag_219:\n      dup1\n      iszero\n      tag_220\n      jumpi\n      dup1\n      0x1f\n      lt\n      tag_221\n      jumpi\n      0x0100\n      dup1\n      dup4\n      sload\n      div\n      mul\n      dup4\n      mstore\n      swap2\n      0x20\n      add\n      swap2\n      jump(tag_220)\n    tag_221:\n      dup3\n      add\n      swap2\n      swap1\n      0x00\n      mstore\n      keccak256(0x00, 0x20)\n      swap1\n    tag_222:\n      dup2\n      sload\n      dup2\n      mstore\n      swap1\n      0x01\n      add\n      swap1\n      0x20\n      add\n      dup1\n      dup4\n      gt\n      tag_222\n      jumpi\n      dup3\n      swap1\n      sub\n      0x1f\n      and\n      dup3\n      add\n      swap2\n    tag_220:\n      pop\n      pop\n      pop\n      pop\n      pop\n      swap2\n      pop\n      dup1\n      dup1\n      sload\n      tag_223\n      swap1\n      tag_99\n      jump\t// in\n    tag_223:\n      dup1\n      0x1f\n      add\n      0x20\n      dup1\n      swap2\n      div\n      mul\n      0x20\n      add\n      mload(0x40)\n      swap1\n      dup2\n      add\n      0x40\n      mstore\n      dup1\n      swap3\n      swap2\n      swap1\n      dup2\n      dup2\n      mstore\n      0x20\n      add\n      dup3\n      dup1\n      sload\n      tag_224\n      swap1\n      tag_99\n      jump\t// in\n    tag_224:\n      dup1\n      iszero\n      tag_225\n      jumpi\n      dup1\n      0x1f\n      lt\n      tag_226\n      jumpi\n      0x0100\n      dup1\n      dup4\n      sload\n      div\n      mul\n      dup4\n      mstore\n      swap2\n      0x20\n      add\n      swap2\n      jump(tag_225)\n    tag_226:\n      dup3\n      add\n      swap2\n      swap1\n      0x00\n      mstore\n      keccak256(0x00, 0x20)\n      swap1\n    tag_227:\n      dup2\n      sload\n      dup2\n      mstore\n      swap1\n      0x01\n      add\n      swap1\n      0x20\n      add\n      dup1\n      dup4\n      gt\n      tag_227\n      jumpi\n      dup3\n      swap1\n      sub\n      0x1f\n      and\n      dup3\n      add\n      swap2\n    tag_225:\n      pop\n      pop\n      pop\n      pop\n      pop\n      swap1\n      pop\n      swap5\n      pop\n      swap5\n      pop\n      swap5\n      pop\n      swap5\n      pop\n      swap5\n      pop\n        /* \"contracts/Profile.sol\":3361:3754  function getEducation(uint index) public view returns(string memory, string memory, string memory, string memory, string memory) {\r... */\n      swap2\n      swap4\n      swap6\n      swap1\n      swap3\n      swap5\n      pop\n      jump\t// out\n        /* \"contracts/Profile.sol\":4094:4170  function delProfile() external {\r... */\n    tag_50:\n        /* \"contracts/Profile.sol\":4143:4150  profile */\n      0x00\n        /* \"contracts/Profile.sol\":4143:4162  profile[msg.sender] */\n      dup1\n        /* \"contracts/Profile.sol\":4151:4161  msg.sender */\n      caller\n        /* \"contracts/Profile.sol\":4143:4162  profile[msg.sender] */\n      0xffffffffffffffffffffffffffffffffffffffff\n      and\n      0xffffffffffffffffffffffffffffffffffffffff\n      and\n      dup2\n      mstore\n      0x20\n      add\n      swap1\n      dup2\n      mstore\n      0x20\n      add\n      0x00\n      keccak256\n      0x00\n        /* \"contracts/Profile.sol\":4136:4162  delete profile[msg.sender] */\n      dup1\n      dup3\n      add\n      0x00\n      dup1\n      dup3\n      add\n      0x00\n      tag_229\n      swap2\n      swap1\n      tag_73\n      jump\t// in\n    tag_229:\n      0x01\n      dup3\n      add\n      0x00\n      tag_230\n      swap2\n      swap1\n      tag_73\n      jump\t// in\n    tag_230:\n      0x02\n      dup3\n      add\n      exp(0x0100, 0x00)\n      dup2\n      sload\n      swap1\n      0xffffffffffffffffffffffffffffffffffffffff\n      mul\n      not\n      and\n      swap1\n      sstore\n      0x03\n      dup3\n      add\n      0x00\n      tag_231\n      swap2\n      swap1\n      tag_73\n      jump\t// in\n    tag_231:\n      0x04\n      dup3\n      add\n      0x00\n      tag_232\n      swap2\n      swap1\n      tag_73\n      jump\t// in\n    tag_232:\n      0x05\n      dup3\n      add\n      0x00\n      tag_233\n      swap2\n      swap1\n      tag_73\n      jump\t// in\n    tag_233:\n      0x06\n      dup3\n      add\n      0x00\n      tag_234\n      swap2\n      swap1\n      tag_73\n      jump\t// in\n    tag_234:\n      0x07\n      dup3\n      add\n      0x00\n      swap1\n      sstore\n      pop\n      pop\n      0x08\n      dup3\n      add\n      0x00\n      dup1\n      dup3\n      add\n      0x00\n      tag_235\n      swap2\n      swap1\n      tag_73\n      jump\t// in\n    tag_235:\n      0x01\n      dup3\n      add\n      0x00\n      tag_236\n      swap2\n      swap1\n      tag_73\n      jump\t// in\n    tag_236:\n      0x02\n      dup3\n      add\n      0x00\n      tag_237\n      swap2\n      swap1\n      tag_73\n      jump\t// in\n    tag_237:\n      0x03\n      dup3\n      add\n      0x00\n      tag_238\n      swap2\n      swap1\n      tag_73\n      jump\t// in\n    tag_238:\n      0x04\n      dup3\n      add\n      0x00\n      tag_239\n      swap2\n      swap1\n      tag_73\n      jump\t// in\n    tag_239:\n      0x05\n      dup3\n      add\n      0x00\n      tag_240\n      swap2\n      swap1\n      tag_73\n      jump\t// in\n    tag_240:\n      pop\n      pop\n      0x0e\n      dup3\n      add\n      0x00\n      dup1\n      dup3\n      add\n      0x00\n      tag_241\n      swap2\n      swap1\n      tag_53\n      jump\t// in\n    tag_241:\n      0x01\n      dup3\n      add\n      0x00\n      tag_242\n      swap2\n      swap1\n      tag_53\n      jump\t// in\n    tag_242:\n      0x02\n      dup3\n      add\n      0x00\n      tag_243\n      swap2\n      swap1\n      tag_53\n      jump\t// in\n    tag_243:\n      pop\n      pop\n      0x11\n      dup3\n      add\n      0x00\n      tag_244\n      swap2\n      swap1\n      tag_185\n      jump\t// in\n    tag_244:\n      pop\n      pop\n        /* \"contracts/Profile.sol\":4094:4170  function delProfile() external {\r... */\n      jump\t// out\n    tag_53:\n      pop\n      dup1\n      sload\n      0x00\n      dup3\n      sstore\n      swap1\n      0x00\n      mstore\n      keccak256(0x00, 0x20)\n      swap1\n      dup2\n      add\n      swap1\n      tag_246\n      swap2\n      swap1\n      tag_247\n      jump\t// in\n    tag_246:\n      pop\n      jump\t// out\n    tag_57:\n      dup3\n      dup1\n      sload\n      dup3\n      dup3\n      sstore\n      swap1\n      0x00\n      mstore\n      keccak256(0x00, 0x20)\n      swap1\n      dup2\n      add\n      swap3\n      dup3\n      iszero\n      tag_248\n      jumpi\n      swap2\n      0x20\n      mul\n      dup3\n      add\n    tag_249:\n      dup3\n      dup2\n      gt\n      iszero\n      tag_250\n      jumpi\n      dup3\n      mload\n      dup3\n      swap1\n      dup1\n      mload\n      swap1\n      0x20\n      add\n      swap1\n      tag_251\n      swap3\n      swap2\n      swap1\n      tag_66\n      jump\t// in\n    tag_251:\n      pop\n      swap2\n      0x20\n      add\n      swap2\n      swap1\n      0x01\n      add\n      swap1\n      jump(tag_249)\n    tag_250:\n    tag_248:\n      pop\n      swap1\n      pop\n      tag_252\n      swap2\n      swap1\n      tag_247\n      jump\t// in\n    tag_252:\n      pop\n      swap1\n      jump\t// out\n    tag_63:\n      mload(0x40)\n      dup1\n      0xa0\n      add\n      0x40\n      mstore\n      dup1\n      0x60\n      dup2\n      mstore\n      0x20\n      add\n      0x60\n      dup2\n      mstore\n      0x20\n      add\n      0x60\n      dup2\n      mstore\n      0x20\n      add\n      0x60\n      dup2\n      mstore\n      0x20\n      add\n      0x60\n      dup2\n      mstore\n      pop\n      swap1\n      jump\t// out\n    tag_66:\n      dup3\n      dup1\n      sload\n      tag_253\n      swap1\n      tag_99\n      jump\t// in\n    tag_253:\n      swap1\n      0x00\n      mstore\n      keccak256(0x00, 0x20)\n      swap1\n      0x1f\n      add\n      0x20\n      swap1\n      div\n      dup2\n      add\n      swap3\n      dup3\n      tag_255\n      jumpi\n      0x00\n      dup6\n      sstore\n      jump(tag_254)\n    tag_255:\n      dup3\n      0x1f\n      lt\n      tag_256\n      jumpi\n      dup1\n      mload\n      not(0xff)\n      and\n      dup4\n      dup1\n      add\n      or\n      dup6\n      sstore\n      jump(tag_254)\n    tag_256:\n      dup3\n      dup1\n      add\n      0x01\n      add\n      dup6\n      sstore\n      dup3\n      iszero\n      tag_254\n      jumpi\n      swap2\n      dup3\n      add\n    tag_257:\n      dup3\n      dup2\n      gt\n      iszero\n      tag_258\n      jumpi\n      dup3\n      mload\n      dup3\n      sstore\n      swap2\n      0x20\n      add\n      swap2\n      swap1\n      0x01\n      add\n      swap1\n      jump(tag_257)\n    tag_258:\n    tag_254:\n      pop\n      swap1\n      pop\n      tag_259\n      swap2\n      swap1\n      tag_260\n      jump\t// in\n    tag_259:\n      pop\n      swap1\n      jump\t// out\n    tag_73:\n      pop\n      dup1\n      sload\n      tag_261\n      swap1\n      tag_99\n      jump\t// in\n    tag_261:\n      0x00\n      dup3\n      sstore\n      dup1\n      0x1f\n      lt\n      tag_263\n      jumpi\n      pop\n      jump(tag_262)\n    tag_263:\n      0x1f\n      add\n      0x20\n      swap1\n      div\n      swap1\n      0x00\n      mstore\n      keccak256(0x00, 0x20)\n      swap1\n      dup2\n      add\n      swap1\n      tag_264\n      swap2\n      swap1\n      tag_260\n      jump\t// in\n    tag_264:\n    tag_262:\n      pop\n      jump\t// out\n    tag_185:\n      pop\n      dup1\n      sload\n      0x00\n      dup3\n      sstore\n      0x05\n      mul\n      swap1\n      0x00\n      mstore\n      keccak256(0x00, 0x20)\n      swap1\n      dup2\n      add\n      swap1\n      tag_266\n      swap2\n      swap1\n      tag_267\n      jump\t// in\n    tag_266:\n      pop\n      jump\t// out\n    tag_247:\n    tag_268:\n      dup1\n      dup3\n      gt\n      iszero\n      tag_269\n      jumpi\n      0x00\n      dup2\n      dup2\n      tag_270\n      swap2\n      swap1\n      tag_73\n      jump\t// in\n    tag_270:\n      pop\n      0x01\n      add\n      jump(tag_268)\n    tag_269:\n      pop\n      swap1\n      jump\t// out\n    tag_260:\n    tag_271:\n      dup1\n      dup3\n      gt\n      iszero\n      tag_272\n      jumpi\n      0x00\n      dup2\n      0x00\n      swap1\n      sstore\n      pop\n      0x01\n      add\n      jump(tag_271)\n    tag_272:\n      pop\n      swap1\n      jump\t// out\n    tag_267:\n    tag_273:\n      dup1\n      dup3\n      gt\n      iszero\n      tag_274\n      jumpi\n      0x00\n      dup1\n      dup3\n      add\n      0x00\n      tag_275\n      swap2\n      swap1\n      tag_73\n      jump\t// in\n    tag_275:\n      0x01\n      dup3\n      add\n      0x00\n      tag_276\n      swap2\n      swap1\n      tag_73\n      jump\t// in\n    tag_276:\n      0x02\n      dup3\n      add\n      0x00\n      tag_277\n      swap2\n      swap1\n      tag_73\n      jump\t// in\n    tag_277:\n      0x03\n      dup3\n      add\n      0x00\n      tag_278\n      swap2\n      swap1\n      tag_73\n      jump\t// in\n    tag_278:\n      0x04\n      dup3\n      add\n      0x00\n      tag_279\n      swap2\n      swap1\n      tag_73\n      jump\t// in\n    tag_279:\n      pop\n      0x05\n      add\n      jump(tag_273)\n    tag_274:\n      pop\n      swap1\n      jump\t// out\n        /* \"#utility.yul\":23:980   */\n    tag_281:\n        /* \"#utility.yul\":129:134   */\n      0x00\n        /* \"#utility.yul\":154:245   */\n      tag_283\n        /* \"#utility.yul\":170:244   */\n      tag_284\n        /* \"#utility.yul\":237:243   */\n      dup5\n        /* \"#utility.yul\":170:244   */\n      tag_285\n      jump\t// in\n    tag_284:\n        /* \"#utility.yul\":154:245   */\n      tag_286\n      jump\t// in\n    tag_283:\n        /* \"#utility.yul\":145:245   */\n      swap1\n      pop\n        /* \"#utility.yul\":265:270   */\n      dup1\n        /* \"#utility.yul\":294:300   */\n      dup4\n        /* \"#utility.yul\":287:292   */\n      dup3\n        /* \"#utility.yul\":280:301   */\n      mstore\n        /* \"#utility.yul\":328:332   */\n      0x20\n        /* \"#utility.yul\":321:326   */\n      dup3\n        /* \"#utility.yul\":317:333   */\n      add\n        /* \"#utility.yul\":310:333   */\n      swap1\n      pop\n        /* \"#utility.yul\":354:360   */\n      dup3\n        /* \"#utility.yul\":404:407   */\n      dup6\n        /* \"#utility.yul\":396:400   */\n      0x20\n        /* \"#utility.yul\":388:394   */\n      dup7\n        /* \"#utility.yul\":384:401   */\n      mul\n        /* \"#utility.yul\":379:382   */\n      dup3\n        /* \"#utility.yul\":375:402   */\n      add\n        /* \"#utility.yul\":372:408   */\n      gt\n        /* \"#utility.yul\":369:512   */\n      iszero\n      tag_287\n      jumpi\n        /* \"#utility.yul\":423:502   */\n      tag_288\n      tag_289\n      jump\t// in\n    tag_288:\n        /* \"#utility.yul\":369:512   */\n    tag_287:\n        /* \"#utility.yul\":536:537   */\n      0x00\n        /* \"#utility.yul\":521:974   */\n    tag_290:\n        /* \"#utility.yul\":546:552   */\n      dup6\n        /* \"#utility.yul\":543:544   */\n      dup2\n        /* \"#utility.yul\":540:553   */\n      lt\n        /* \"#utility.yul\":521:974   */\n      iszero\n      tag_292\n      jumpi\n        /* \"#utility.yul\":628:631   */\n      dup2\n        /* \"#utility.yul\":615:632   */\n      calldataload\n        /* \"#utility.yul\":664:682   */\n      0xffffffffffffffff\n        /* \"#utility.yul\":651:662   */\n      dup2\n        /* \"#utility.yul\":648:683   */\n      gt\n        /* \"#utility.yul\":645:767   */\n      iszero\n      tag_293\n      jumpi\n        /* \"#utility.yul\":686:765   */\n      tag_294\n      tag_295\n      jump\t// in\n    tag_294:\n        /* \"#utility.yul\":645:767   */\n    tag_293:\n        /* \"#utility.yul\":810:821   */\n      dup1\n        /* \"#utility.yul\":802:808   */\n      dup7\n        /* \"#utility.yul\":798:822   */\n      add\n        /* \"#utility.yul\":848:895   */\n      tag_296\n        /* \"#utility.yul\":891:894   */\n      dup10\n        /* \"#utility.yul\":879:889   */\n      dup3\n        /* \"#utility.yul\":848:895   */\n      tag_297\n      jump\t// in\n    tag_296:\n        /* \"#utility.yul\":843:846   */\n      dup6\n        /* \"#utility.yul\":836:896   */\n      mstore\n        /* \"#utility.yul\":925:929   */\n      0x20\n        /* \"#utility.yul\":920:923   */\n      dup6\n        /* \"#utility.yul\":916:930   */\n      add\n        /* \"#utility.yul\":909:930   */\n      swap5\n      pop\n        /* \"#utility.yul\":959:963   */\n      0x20\n        /* \"#utility.yul\":954:957   */\n      dup5\n        /* \"#utility.yul\":950:964   */\n      add\n        /* \"#utility.yul\":943:964   */\n      swap4\n      pop\n        /* \"#utility.yul\":581:974   */\n      pop\n      pop\n        /* \"#utility.yul\":568:569   */\n      0x01\n        /* \"#utility.yul\":565:566   */\n      dup2\n        /* \"#utility.yul\":561:570   */\n      add\n        /* \"#utility.yul\":556:570   */\n      swap1\n      pop\n        /* \"#utility.yul\":521:974   */\n      jump(tag_290)\n    tag_292:\n        /* \"#utility.yul\":525:539   */\n      pop\n        /* \"#utility.yul\":135:980   */\n      pop\n      pop\n        /* \"#utility.yul\":23:980   */\n      swap4\n      swap3\n      pop\n      pop\n      pop\n      jump\t// out\n        /* \"#utility.yul\":986:1398   */\n    tag_298:\n        /* \"#utility.yul\":1064:1069   */\n      0x00\n        /* \"#utility.yul\":1089:1155   */\n      tag_300\n        /* \"#utility.yul\":1105:1154   */\n      tag_301\n        /* \"#utility.yul\":1147:1153   */\n      dup5\n        /* \"#utility.yul\":1105:1154   */\n      tag_302\n      jump\t// in\n    tag_301:\n        /* \"#utility.yul\":1089:1155   */\n      tag_286\n      jump\t// in\n    tag_300:\n        /* \"#utility.yul\":1080:1155   */\n      swap1\n      pop\n        /* \"#utility.yul\":1178:1184   */\n      dup3\n        /* \"#utility.yul\":1171:1176   */\n      dup2\n        /* \"#utility.yul\":1164:1185   */\n      mstore\n        /* \"#utility.yul\":1216:1220   */\n      0x20\n        /* \"#utility.yul\":1209:1214   */\n      dup2\n        /* \"#utility.yul\":1205:1221   */\n      add\n        /* \"#utility.yul\":1254:1257   */\n      dup5\n        /* \"#utility.yul\":1245:1251   */\n      dup5\n        /* \"#utility.yul\":1240:1243   */\n      dup5\n        /* \"#utility.yul\":1236:1252   */\n      add\n        /* \"#utility.yul\":1233:1258   */\n      gt\n        /* \"#utility.yul\":1230:1342   */\n      iszero\n      tag_303\n      jumpi\n        /* \"#utility.yul\":1261:1340   */\n      tag_304\n      tag_305\n      jump\t// in\n    tag_304:\n        /* \"#utility.yul\":1230:1342   */\n    tag_303:\n        /* \"#utility.yul\":1351:1392   */\n      tag_306\n        /* \"#utility.yul\":1385:1391   */\n      dup5\n        /* \"#utility.yul\":1380:1383   */\n      dup3\n        /* \"#utility.yul\":1375:1378   */\n      dup6\n        /* \"#utility.yul\":1351:1392   */\n      tag_307\n      jump\t// in\n    tag_306:\n        /* \"#utility.yul\":1070:1398   */\n      pop\n        /* \"#utility.yul\":986:1398   */\n      swap4\n      swap3\n      pop\n      pop\n      pop\n      jump\t// out\n        /* \"#utility.yul\":1404:1543   */\n    tag_308:\n        /* \"#utility.yul\":1450:1455   */\n      0x00\n        /* \"#utility.yul\":1488:1494   */\n      dup2\n        /* \"#utility.yul\":1475:1495   */\n      calldataload\n        /* \"#utility.yul\":1466:1495   */\n      swap1\n      pop\n        /* \"#utility.yul\":1504:1537   */\n      tag_310\n        /* \"#utility.yul\":1531:1536   */\n      dup2\n        /* \"#utility.yul\":1504:1537   */\n      tag_311\n      jump\t// in\n    tag_310:\n        /* \"#utility.yul\":1404:1543   */\n      swap3\n      swap2\n      pop\n      pop\n      jump\t// out\n        /* \"#utility.yul\":1565:1955   */\n    tag_312:\n        /* \"#utility.yul\":1646:1651   */\n      0x00\n        /* \"#utility.yul\":1695:1698   */\n      dup3\n        /* \"#utility.yul\":1688:1692   */\n      0x1f\n        /* \"#utility.yul\":1680:1686   */\n      dup4\n        /* \"#utility.yul\":1676:1693   */\n      add\n        /* \"#utility.yul\":1672:1699   */\n      slt\n        /* \"#utility.yul\":1662:1784   */\n      tag_314\n      jumpi\n        /* \"#utility.yul\":1703:1782   */\n      tag_315\n      tag_295\n      jump\t// in\n    tag_315:\n        /* \"#utility.yul\":1662:1784   */\n    tag_314:\n        /* \"#utility.yul\":1820:1826   */\n      dup2\n        /* \"#utility.yul\":1807:1827   */\n      calldataload\n        /* \"#utility.yul\":1845:1949   */\n      tag_316\n        /* \"#utility.yul\":1945:1948   */\n      dup5\n        /* \"#utility.yul\":1937:1943   */\n      dup3\n        /* \"#utility.yul\":1930:1934   */\n      0x20\n        /* \"#utility.yul\":1922:1928   */\n      dup7\n        /* \"#utility.yul\":1918:1935   */\n      add\n        /* \"#utility.yul\":1845:1949   */\n      tag_281\n      jump\t// in\n    tag_316:\n        /* \"#utility.yul\":1836:1949   */\n      swap2\n      pop\n        /* \"#utility.yul\":1652:1955   */\n      pop\n        /* \"#utility.yul\":1565:1955   */\n      swap3\n      swap2\n      pop\n      pop\n      jump\t// out\n        /* \"#utility.yul\":1975:2315   */\n    tag_297:\n        /* \"#utility.yul\":2031:2036   */\n      0x00\n        /* \"#utility.yul\":2080:2083   */\n      dup3\n        /* \"#utility.yul\":2073:2077   */\n      0x1f\n        /* \"#utility.yul\":2065:2071   */\n      dup4\n        /* \"#utility.yul\":2061:2078   */\n      add\n        /* \"#utility.yul\":2057:2084   */\n      slt\n        /* \"#utility.yul\":2047:2169   */\n      tag_318\n      jumpi\n        /* \"#utility.yul\":2088:2167   */\n      tag_319\n      tag_295\n      jump\t// in\n    tag_319:\n        /* \"#utility.yul\":2047:2169   */\n    tag_318:\n        /* \"#utility.yul\":2205:2211   */\n      dup2\n        /* \"#utility.yul\":2192:2212   */\n      calldataload\n        /* \"#utility.yul\":2230:2309   */\n      tag_320\n        /* \"#utility.yul\":2305:2308   */\n      dup5\n        /* \"#utility.yul\":2297:2303   */\n      dup3\n        /* \"#utility.yul\":2290:2294   */\n      0x20\n        /* \"#utility.yul\":2282:2288   */\n      dup7\n        /* \"#utility.yul\":2278:2295   */\n      add\n        /* \"#utility.yul\":2230:2309   */\n      tag_298\n      jump\t// in\n    tag_320:\n        /* \"#utility.yul\":2221:2309   */\n      swap2\n      pop\n        /* \"#utility.yul\":2037:2315   */\n      pop\n        /* \"#utility.yul\":1975:2315   */\n      swap3\n      swap2\n      pop\n      pop\n      jump\t// out\n        /* \"#utility.yul\":2321:2460   */\n    tag_321:\n        /* \"#utility.yul\":2367:2372   */\n      0x00\n        /* \"#utility.yul\":2405:2411   */\n      dup2\n        /* \"#utility.yul\":2392:2412   */\n      calldataload\n        /* \"#utility.yul\":2383:2412   */\n      swap1\n      pop\n        /* \"#utility.yul\":2421:2454   */\n      tag_323\n        /* \"#utility.yul\":2448:2453   */\n      dup2\n        /* \"#utility.yul\":2421:2454   */\n      tag_324\n      jump\t// in\n    tag_323:\n        /* \"#utility.yul\":2321:2460   */\n      swap3\n      swap2\n      pop\n      pop\n      jump\t// out\n        /* \"#utility.yul\":2466:2795   */\n    tag_37:\n        /* \"#utility.yul\":2525:2531   */\n      0x00\n        /* \"#utility.yul\":2574:2576   */\n      0x20\n        /* \"#utility.yul\":2562:2571   */\n      dup3\n        /* \"#utility.yul\":2553:2560   */\n      dup5\n        /* \"#utility.yul\":2549:2572   */\n      sub\n        /* \"#utility.yul\":2545:2577   */\n      slt\n        /* \"#utility.yul\":2542:2661   */\n      iszero\n      tag_326\n      jumpi\n        /* \"#utility.yul\":2580:2659   */\n      tag_327\n      tag_328\n      jump\t// in\n    tag_327:\n        /* \"#utility.yul\":2542:2661   */\n    tag_326:\n        /* \"#utility.yul\":2700:2701   */\n      0x00\n        /* \"#utility.yul\":2725:2778   */\n      tag_329\n        /* \"#utility.yul\":2770:2777   */\n      dup5\n        /* \"#utility.yul\":2761:2767   */\n      dup3\n        /* \"#utility.yul\":2750:2759   */\n      dup6\n        /* \"#utility.yul\":2746:2768   */\n      add\n        /* \"#utility.yul\":2725:2778   */\n      tag_308\n      jump\t// in\n    tag_329:\n        /* \"#utility.yul\":2715:2778   */\n      swap2\n      pop\n        /* \"#utility.yul\":2671:2788   */\n      pop\n        /* \"#utility.yul\":2466:2795   */\n      swap3\n      swap2\n      pop\n      pop\n      jump\t// out\n        /* \"#utility.yul\":2801:4110   */\n    tag_16:\n        /* \"#utility.yul\":2983:2989   */\n      0x00\n        /* \"#utility.yul\":2991:2997   */\n      dup1\n        /* \"#utility.yul\":2999:3005   */\n      0x00\n        /* \"#utility.yul\":3048:3050   */\n      0x60\n        /* \"#utility.yul\":3036:3045   */\n      dup5\n        /* \"#utility.yul\":3027:3034   */\n      dup7\n        /* \"#utility.yul\":3023:3046   */\n      sub\n        /* \"#utility.yul\":3019:3051   */\n      slt\n        /* \"#utility.yul\":3016:3135   */\n      iszero\n      tag_331\n      jumpi\n        /* \"#utility.yul\":3054:3133   */\n      tag_332\n      tag_328\n      jump\t// in\n    tag_332:\n        /* \"#utility.yul\":3016:3135   */\n    tag_331:\n        /* \"#utility.yul\":3202:3203   */\n      0x00\n        /* \"#utility.yul\":3191:3200   */\n      dup5\n        /* \"#utility.yul\":3187:3204   */\n      add\n        /* \"#utility.yul\":3174:3205   */\n      calldataload\n        /* \"#utility.yul\":3232:3250   */\n      0xffffffffffffffff\n        /* \"#utility.yul\":3224:3230   */\n      dup2\n        /* \"#utility.yul\":3221:3251   */\n      gt\n        /* \"#utility.yul\":3218:3335   */\n      iszero\n      tag_333\n      jumpi\n        /* \"#utility.yul\":3254:3333   */\n      tag_334\n      tag_335\n      jump\t// in\n    tag_334:\n        /* \"#utility.yul\":3218:3335   */\n    tag_333:\n        /* \"#utility.yul\":3359:3447   */\n      tag_336\n        /* \"#utility.yul\":3439:3446   */\n      dup7\n        /* \"#utility.yul\":3430:3436   */\n      dup3\n        /* \"#utility.yul\":3419:3428   */\n      dup8\n        /* \"#utility.yul\":3415:3437   */\n      add\n        /* \"#utility.yul\":3359:3447   */\n      tag_312\n      jump\t// in\n    tag_336:\n        /* \"#utility.yul\":3349:3447   */\n      swap4\n      pop\n        /* \"#utility.yul\":3145:3457   */\n      pop\n        /* \"#utility.yul\":3524:3526   */\n      0x20\n        /* \"#utility.yul\":3513:3522   */\n      dup5\n        /* \"#utility.yul\":3509:3527   */\n      add\n        /* \"#utility.yul\":3496:3528   */\n      calldataload\n        /* \"#utility.yul\":3555:3573   */\n      0xffffffffffffffff\n        /* \"#utility.yul\":3547:3553   */\n      dup2\n        /* \"#utility.yul\":3544:3574   */\n      gt\n        /* \"#utility.yul\":3541:3658   */\n      iszero\n      tag_337\n      jumpi\n        /* \"#utility.yul\":3577:3656   */\n      tag_338\n      tag_335\n      jump\t// in\n    tag_338:\n        /* \"#utility.yul\":3541:3658   */\n    tag_337:\n        /* \"#utility.yul\":3682:3770   */\n      tag_339\n        /* \"#utility.yul\":3762:3769   */\n      dup7\n        /* \"#utility.yul\":3753:3759   */\n      dup3\n        /* \"#utility.yul\":3742:3751   */\n      dup8\n        /* \"#utility.yul\":3738:3760   */\n      add\n        /* \"#utility.yul\":3682:3770   */\n      tag_312\n      jump\t// in\n    tag_339:\n        /* \"#utility.yul\":3672:3770   */\n      swap3\n      pop\n        /* \"#utility.yul\":3467:3780   */\n      pop\n        /* \"#utility.yul\":3847:3849   */\n      0x40\n        /* \"#utility.yul\":3836:3845   */\n      dup5\n        /* \"#utility.yul\":3832:3850   */\n      add\n        /* \"#utility.yul\":3819:3851   */\n      calldataload\n        /* \"#utility.yul\":3878:3896   */\n      0xffffffffffffffff\n        /* \"#utility.yul\":3870:3876   */\n      dup2\n        /* \"#utility.yul\":3867:3897   */\n      gt\n        /* \"#utility.yul\":3864:3981   */\n      iszero\n      tag_340\n      jumpi\n        /* \"#utility.yul\":3900:3979   */\n      tag_341\n      tag_335\n      jump\t// in\n    tag_341:\n        /* \"#utility.yul\":3864:3981   */\n    tag_340:\n        /* \"#utility.yul\":4005:4093   */\n      tag_342\n        /* \"#utility.yul\":4085:4092   */\n      dup7\n        /* \"#utility.yul\":4076:4082   */\n      dup3\n        /* \"#utility.yul\":4065:4074   */\n      dup8\n        /* \"#utility.yul\":4061:4083   */\n      add\n        /* \"#utility.yul\":4005:4093   */\n      tag_312\n      jump\t// in\n    tag_342:\n        /* \"#utility.yul\":3995:4093   */\n      swap2\n      pop\n        /* \"#utility.yul\":3790:4103   */\n      pop\n        /* \"#utility.yul\":2801:4110   */\n      swap3\n      pop\n      swap3\n      pop\n      swap3\n      jump\t// out\n        /* \"#utility.yul\":4116:5927   */\n    tag_24:\n        /* \"#utility.yul\":4261:4267   */\n      0x00\n        /* \"#utility.yul\":4269:4275   */\n      dup1\n        /* \"#utility.yul\":4277:4283   */\n      0x00\n        /* \"#utility.yul\":4285:4291   */\n      dup1\n        /* \"#utility.yul\":4293:4299   */\n      0x00\n        /* \"#utility.yul\":4342:4345   */\n      0xa0\n        /* \"#utility.yul\":4330:4339   */\n      dup7\n        /* \"#utility.yul\":4321:4328   */\n      dup9\n        /* \"#utility.yul\":4317:4340   */\n      sub\n        /* \"#utility.yul\":4313:4346   */\n      slt\n        /* \"#utility.yul\":4310:4430   */\n      iszero\n      tag_344\n      jumpi\n        /* \"#utility.yul\":4349:4428   */\n      tag_345\n      tag_328\n      jump\t// in\n    tag_345:\n        /* \"#utility.yul\":4310:4430   */\n    tag_344:\n        /* \"#utility.yul\":4497:4498   */\n      0x00\n        /* \"#utility.yul\":4486:4495   */\n      dup7\n        /* \"#utility.yul\":4482:4499   */\n      add\n        /* \"#utility.yul\":4469:4500   */\n      calldataload\n        /* \"#utility.yul\":4527:4545   */\n      0xffffffffffffffff\n        /* \"#utility.yul\":4519:4525   */\n      dup2\n        /* \"#utility.yul\":4516:4546   */\n      gt\n        /* \"#utility.yul\":4513:4630   */\n      iszero\n      tag_346\n      jumpi\n        /* \"#utility.yul\":4549:4628   */\n      tag_347\n      tag_335\n      jump\t// in\n    tag_347:\n        /* \"#utility.yul\":4513:4630   */\n    tag_346:\n        /* \"#utility.yul\":4654:4717   */\n      tag_348\n        /* \"#utility.yul\":4709:4716   */\n      dup9\n        /* \"#utility.yul\":4700:4706   */\n      dup3\n        /* \"#utility.yul\":4689:4698   */\n      dup10\n        /* \"#utility.yul\":4685:4707   */\n      add\n        /* \"#utility.yul\":4654:4717   */\n      tag_297\n      jump\t// in\n    tag_348:\n        /* \"#utility.yul\":4644:4717   */\n      swap6\n      pop\n        /* \"#utility.yul\":4440:4727   */\n      pop\n        /* \"#utility.yul\":4794:4796   */\n      0x20\n        /* \"#utility.yul\":4783:4792   */\n      dup7\n        /* \"#utility.yul\":4779:4797   */\n      add\n        /* \"#utility.yul\":4766:4798   */\n      calldataload\n        /* \"#utility.yul\":4825:4843   */\n      0xffffffffffffffff\n        /* \"#utility.yul\":4817:4823   */\n      dup2\n        /* \"#utility.yul\":4814:4844   */\n      gt\n        /* \"#utility.yul\":4811:4928   */\n      iszero\n      tag_349\n      jumpi\n        /* \"#utility.yul\":4847:4926   */\n      tag_350\n      tag_335\n      jump\t// in\n    tag_350:\n        /* \"#utility.yul\":4811:4928   */\n    tag_349:\n        /* \"#utility.yul\":4952:5015   */\n      tag_351\n        /* \"#utility.yul\":5007:5014   */\n      dup9\n        /* \"#utility.yul\":4998:5004   */\n      dup3\n        /* \"#utility.yul\":4987:4996   */\n      dup10\n        /* \"#utility.yul\":4983:5005   */\n      add\n        /* \"#utility.yul\":4952:5015   */\n      tag_297\n      jump\t// in\n    tag_351:\n        /* \"#utility.yul\":4942:5015   */\n      swap5\n      pop\n        /* \"#utility.yul\":4737:5025   */\n      pop\n        /* \"#utility.yul\":5092:5094   */\n      0x40\n        /* \"#utility.yul\":5081:5090   */\n      dup7\n        /* \"#utility.yul\":5077:5095   */\n      add\n        /* \"#utility.yul\":5064:5096   */\n      calldataload\n        /* \"#utility.yul\":5123:5141   */\n      0xffffffffffffffff\n        /* \"#utility.yul\":5115:5121   */\n      dup2\n        /* \"#utility.yul\":5112:5142   */\n      gt\n        /* \"#utility.yul\":5109:5226   */\n      iszero\n      tag_352\n      jumpi\n        /* \"#utility.yul\":5145:5224   */\n      tag_353\n      tag_335\n      jump\t// in\n    tag_353:\n        /* \"#utility.yul\":5109:5226   */\n    tag_352:\n        /* \"#utility.yul\":5250:5313   */\n      tag_354\n        /* \"#utility.yul\":5305:5312   */\n      dup9\n        /* \"#utility.yul\":5296:5302   */\n      dup3\n        /* \"#utility.yul\":5285:5294   */\n      dup10\n        /* \"#utility.yul\":5281:5303   */\n      add\n        /* \"#utility.yul\":5250:5313   */\n      tag_297\n      jump\t// in\n    tag_354:\n        /* \"#utility.yul\":5240:5313   */\n      swap4\n      pop\n        /* \"#utility.yul\":5035:5323   */\n      pop\n        /* \"#utility.yul\":5390:5392   */\n      0x60\n        /* \"#utility.yul\":5379:5388   */\n      dup7\n        /* \"#utility.yul\":5375:5393   */\n      add\n        /* \"#utility.yul\":5362:5394   */\n      calldataload\n        /* \"#utility.yul\":5421:5439   */\n      0xffffffffffffffff\n        /* \"#utility.yul\":5413:5419   */\n      dup2\n        /* \"#utility.yul\":5410:5440   */\n      gt\n        /* \"#utility.yul\":5407:5524   */\n      iszero\n      tag_355\n      jumpi\n        /* \"#utility.yul\":5443:5522   */\n      tag_356\n      tag_335\n      jump\t// in\n    tag_356:\n        /* \"#utility.yul\":5407:5524   */\n    tag_355:\n        /* \"#utility.yul\":5548:5611   */\n      tag_357\n        /* \"#utility.yul\":5603:5610   */\n      dup9\n        /* \"#utility.yul\":5594:5600   */\n      dup3\n        /* \"#utility.yul\":5583:5592   */\n      dup10\n        /* \"#utility.yul\":5579:5601   */\n      add\n        /* \"#utility.yul\":5548:5611   */\n      tag_297\n      jump\t// in\n    tag_357:\n        /* \"#utility.yul\":5538:5611   */\n      swap3\n      pop\n        /* \"#utility.yul\":5333:5621   */\n      pop\n        /* \"#utility.yul\":5688:5691   */\n      0x80\n        /* \"#utility.yul\":5677:5686   */\n      dup7\n        /* \"#utility.yul\":5673:5692   */\n      add\n        /* \"#utility.yul\":5660:5693   */\n      calldataload\n        /* \"#utility.yul\":5720:5738   */\n      0xffffffffffffffff\n        /* \"#utility.yul\":5712:5718   */\n      dup2\n        /* \"#utility.yul\":5709:5739   */\n      gt\n        /* \"#utility.yul\":5706:5823   */\n      iszero\n      tag_358\n      jumpi\n        /* \"#utility.yul\":5742:5821   */\n      tag_359\n      tag_335\n      jump\t// in\n    tag_359:\n        /* \"#utility.yul\":5706:5823   */\n    tag_358:\n        /* \"#utility.yul\":5847:5910   */\n      tag_360\n        /* \"#utility.yul\":5902:5909   */\n      dup9\n        /* \"#utility.yul\":5893:5899   */\n      dup3\n        /* \"#utility.yul\":5882:5891   */\n      dup10\n        /* \"#utility.yul\":5878:5900   */\n      add\n        /* \"#utility.yul\":5847:5910   */\n      tag_297\n      jump\t// in\n    tag_360:\n        /* \"#utility.yul\":5837:5910   */\n      swap2\n      pop\n        /* \"#utility.yul\":5631:5920   */\n      pop\n        /* \"#utility.yul\":4116:5927   */\n      swap3\n      swap6\n      pop\n      swap3\n      swap6\n      swap1\n      swap4\n      pop\n      jump\t// out\n        /* \"#utility.yul\":5933:8070   */\n    tag_31:\n        /* \"#utility.yul\":6097:6103   */\n      0x00\n        /* \"#utility.yul\":6105:6111   */\n      dup1\n        /* \"#utility.yul\":6113:6119   */\n      0x00\n        /* \"#utility.yul\":6121:6127   */\n      dup1\n        /* \"#utility.yul\":6129:6135   */\n      0x00\n        /* \"#utility.yul\":6137:6143   */\n      dup1\n        /* \"#utility.yul\":6186:6189   */\n      0xc0\n        /* \"#utility.yul\":6174:6183   */\n      dup8\n        /* \"#utility.yul\":6165:6172   */\n      dup10\n        /* \"#utility.yul\":6161:6184   */\n      sub\n        /* \"#utility.yul\":6157:6190   */\n      slt\n        /* \"#utility.yul\":6154:6274   */\n      iszero\n      tag_362\n      jumpi\n        /* \"#utility.yul\":6193:6272   */\n      tag_363\n      tag_328\n      jump\t// in\n    tag_363:\n        /* \"#utility.yul\":6154:6274   */\n    tag_362:\n        /* \"#utility.yul\":6341:6342   */\n      0x00\n        /* \"#utility.yul\":6330:6339   */\n      dup8\n        /* \"#utility.yul\":6326:6343   */\n      add\n        /* \"#utility.yul\":6313:6344   */\n      calldataload\n        /* \"#utility.yul\":6371:6389   */\n      0xffffffffffffffff\n        /* \"#utility.yul\":6363:6369   */\n      dup2\n        /* \"#utility.yul\":6360:6390   */\n      gt\n        /* \"#utility.yul\":6357:6474   */\n      iszero\n      tag_364\n      jumpi\n        /* \"#utility.yul\":6393:6472   */\n      tag_365\n      tag_335\n      jump\t// in\n    tag_365:\n        /* \"#utility.yul\":6357:6474   */\n    tag_364:\n        /* \"#utility.yul\":6498:6561   */\n      tag_366\n        /* \"#utility.yul\":6553:6560   */\n      dup10\n        /* \"#utility.yul\":6544:6550   */\n      dup3\n        /* \"#utility.yul\":6533:6542   */\n      dup11\n        /* \"#utility.yul\":6529:6551   */\n      add\n        /* \"#utility.yul\":6498:6561   */\n      tag_297\n      jump\t// in\n    tag_366:\n        /* \"#utility.yul\":6488:6561   */\n      swap7\n      pop\n        /* \"#utility.yul\":6284:6571   */\n      pop\n        /* \"#utility.yul\":6638:6640   */\n      0x20\n        /* \"#utility.yul\":6627:6636   */\n      dup8\n        /* \"#utility.yul\":6623:6641   */\n      add\n        /* \"#utility.yul\":6610:6642   */\n      calldataload\n        /* \"#utility.yul\":6669:6687   */\n      0xffffffffffffffff\n        /* \"#utility.yul\":6661:6667   */\n      dup2\n        /* \"#utility.yul\":6658:6688   */\n      gt\n        /* \"#utility.yul\":6655:6772   */\n      iszero\n      tag_367\n      jumpi\n        /* \"#utility.yul\":6691:6770   */\n      tag_368\n      tag_335\n      jump\t// in\n    tag_368:\n        /* \"#utility.yul\":6655:6772   */\n    tag_367:\n        /* \"#utility.yul\":6796:6859   */\n      tag_369\n        /* \"#utility.yul\":6851:6858   */\n      dup10\n        /* \"#utility.yul\":6842:6848   */\n      dup3\n        /* \"#utility.yul\":6831:6840   */\n      dup11\n        /* \"#utility.yul\":6827:6849   */\n      add\n        /* \"#utility.yul\":6796:6859   */\n      tag_297\n      jump\t// in\n    tag_369:\n        /* \"#utility.yul\":6786:6859   */\n      swap6\n      pop\n        /* \"#utility.yul\":6581:6869   */\n      pop\n        /* \"#utility.yul\":6936:6938   */\n      0x40\n        /* \"#utility.yul\":6925:6934   */\n      dup8\n        /* \"#utility.yul\":6921:6939   */\n      add\n        /* \"#utility.yul\":6908:6940   */\n      calldataload\n        /* \"#utility.yul\":6967:6985   */\n      0xffffffffffffffff\n        /* \"#utility.yul\":6959:6965   */\n      dup2\n        /* \"#utility.yul\":6956:6986   */\n      gt\n        /* \"#utility.yul\":6953:7070   */\n      iszero\n      tag_370\n      jumpi\n        /* \"#utility.yul\":6989:7068   */\n      tag_371\n      tag_335\n      jump\t// in\n    tag_371:\n        /* \"#utility.yul\":6953:7070   */\n    tag_370:\n        /* \"#utility.yul\":7094:7157   */\n      tag_372\n        /* \"#utility.yul\":7149:7156   */\n      dup10\n        /* \"#utility.yul\":7140:7146   */\n      dup3\n        /* \"#utility.yul\":7129:7138   */\n      dup11\n        /* \"#utility.yul\":7125:7147   */\n      add\n        /* \"#utility.yul\":7094:7157   */\n      tag_297\n      jump\t// in\n    tag_372:\n        /* \"#utility.yul\":7084:7157   */\n      swap5\n      pop\n        /* \"#utility.yul\":6879:7167   */\n      pop\n        /* \"#utility.yul\":7234:7236   */\n      0x60\n        /* \"#utility.yul\":7223:7232   */\n      dup8\n        /* \"#utility.yul\":7219:7237   */\n      add\n        /* \"#utility.yul\":7206:7238   */\n      calldataload\n        /* \"#utility.yul\":7265:7283   */\n      0xffffffffffffffff\n        /* \"#utility.yul\":7257:7263   */\n      dup2\n        /* \"#utility.yul\":7254:7284   */\n      gt\n        /* \"#utility.yul\":7251:7368   */\n      iszero\n      tag_373\n      jumpi\n        /* \"#utility.yul\":7287:7366   */\n      tag_374\n      tag_335\n      jump\t// in\n    tag_374:\n        /* \"#utility.yul\":7251:7368   */\n    tag_373:\n        /* \"#utility.yul\":7392:7455   */\n      tag_375\n        /* \"#utility.yul\":7447:7454   */\n      dup10\n        /* \"#utility.yul\":7438:7444   */\n      dup3\n        /* \"#utility.yul\":7427:7436   */\n      dup11\n        /* \"#utility.yul\":7423:7445   */\n      add\n        /* \"#utility.yul\":7392:7455   */\n      tag_297\n      jump\t// in\n    tag_375:\n        /* \"#utility.yul\":7382:7455   */\n      swap4\n      pop\n        /* \"#utility.yul\":7177:7465   */\n      pop\n        /* \"#utility.yul\":7532:7535   */\n      0x80\n        /* \"#utility.yul\":7521:7530   */\n      dup8\n        /* \"#utility.yul\":7517:7536   */\n      add\n        /* \"#utility.yul\":7504:7537   */\n      calldataload\n        /* \"#utility.yul\":7564:7582   */\n      0xffffffffffffffff\n        /* \"#utility.yul\":7556:7562   */\n      dup2\n        /* \"#utility.yul\":7553:7583   */\n      gt\n        /* \"#utility.yul\":7550:7667   */\n      iszero\n      tag_376\n      jumpi\n        /* \"#utility.yul\":7586:7665   */\n      tag_377\n      tag_335\n      jump\t// in\n    tag_377:\n        /* \"#utility.yul\":7550:7667   */\n    tag_376:\n        /* \"#utility.yul\":7691:7754   */\n      tag_378\n        /* \"#utility.yul\":7746:7753   */\n      dup10\n        /* \"#utility.yul\":7737:7743   */\n      dup3\n        /* \"#utility.yul\":7726:7735   */\n      dup11\n        /* \"#utility.yul\":7722:7744   */\n      add\n        /* \"#utility.yul\":7691:7754   */\n      tag_297\n      jump\t// in\n    tag_378:\n        /* \"#utility.yul\":7681:7754   */\n      swap3\n      pop\n        /* \"#utility.yul\":7475:7764   */\n      pop\n        /* \"#utility.yul\":7831:7834   */\n      0xa0\n        /* \"#utility.yul\":7820:7829   */\n      dup8\n        /* \"#utility.yul\":7816:7835   */\n      add\n        /* \"#utility.yul\":7803:7836   */\n      calldataload\n        /* \"#utility.yul\":7863:7881   */\n      0xffffffffffffffff\n        /* \"#utility.yul\":7855:7861   */\n      dup2\n        /* \"#utility.yul\":7852:7882   */\n      gt\n        /* \"#utility.yul\":7849:7966   */\n      iszero\n      tag_379\n      jumpi\n        /* \"#utility.yul\":7885:7964   */\n      tag_380\n      tag_335\n      jump\t// in\n    tag_380:\n        /* \"#utility.yul\":7849:7966   */\n    tag_379:\n        /* \"#utility.yul\":7990:8053   */\n      tag_381\n        /* \"#utility.yul\":8045:8052   */\n      dup10\n        /* \"#utility.yul\":8036:8042   */\n      dup3\n        /* \"#utility.yul\":8025:8034   */\n      dup11\n        /* \"#utility.yul\":8021:8043   */\n      add\n        /* \"#utility.yul\":7990:8053   */\n      tag_297\n      jump\t// in\n    tag_381:\n        /* \"#utility.yul\":7980:8053   */\n      swap2\n      pop\n        /* \"#utility.yul\":7774:8063   */\n      pop\n        /* \"#utility.yul\":5933:8070   */\n      swap3\n      swap6\n      pop\n      swap3\n      swap6\n      pop\n      swap3\n      swap6\n      jump\t// out\n        /* \"#utility.yul\":8076:8405   */\n    tag_45:\n        /* \"#utility.yul\":8135:8141   */\n      0x00\n        /* \"#utility.yul\":8184:8186   */\n      0x20\n        /* \"#utility.yul\":8172:8181   */\n      dup3\n        /* \"#utility.yul\":8163:8170   */\n      dup5\n        /* \"#utility.yul\":8159:8182   */\n      sub\n        /* \"#utility.yul\":8155:8187   */\n      slt\n        /* \"#utility.yul\":8152:8271   */\n      iszero\n      tag_383\n      jumpi\n        /* \"#utility.yul\":8190:8269   */\n      tag_384\n      tag_328\n      jump\t// in\n    tag_384:\n        /* \"#utility.yul\":8152:8271   */\n    tag_383:\n        /* \"#utility.yul\":8310:8311   */\n      0x00\n        /* \"#utility.yul\":8335:8388   */\n      tag_385\n        /* \"#utility.yul\":8380:8387   */\n      dup5\n        /* \"#utility.yul\":8371:8377   */\n      dup3\n        /* \"#utility.yul\":8360:8369   */\n      dup6\n        /* \"#utility.yul\":8356:8378   */\n      add\n        /* \"#utility.yul\":8335:8388   */\n      tag_321\n      jump\t// in\n    tag_385:\n        /* \"#utility.yul\":8325:8388   */\n      swap2\n      pop\n        /* \"#utility.yul\":8281:8398   */\n      pop\n        /* \"#utility.yul\":8076:8405   */\n      swap3\n      swap2\n      pop\n      pop\n      jump\t// out\n        /* \"#utility.yul\":8411:8607   */\n    tag_386:\n        /* \"#utility.yul\":8500:8510   */\n      0x00\n        /* \"#utility.yul\":8535:8601   */\n      tag_388\n        /* \"#utility.yul\":8597:8600   */\n      dup4\n        /* \"#utility.yul\":8589:8595   */\n      dup4\n        /* \"#utility.yul\":8535:8601   */\n      tag_389\n      jump\t// in\n    tag_388:\n        /* \"#utility.yul\":8521:8601   */\n      swap1\n      pop\n        /* \"#utility.yul\":8411:8607   */\n      swap3\n      swap2\n      pop\n      pop\n      jump\t// out\n        /* \"#utility.yul\":8613:8721   */\n    tag_390:\n        /* \"#utility.yul\":8690:8714   */\n      tag_392\n        /* \"#utility.yul\":8708:8713   */\n      dup2\n        /* \"#utility.yul\":8690:8714   */\n      tag_393\n      jump\t// in\n    tag_392:\n        /* \"#utility.yul\":8685:8688   */\n      dup3\n        /* \"#utility.yul\":8678:8715   */\n      mstore\n        /* \"#utility.yul\":8613:8721   */\n      pop\n      pop\n      jump\t// out\n        /* \"#utility.yul\":8755:9726   */\n    tag_394:\n        /* \"#utility.yul\":8884:8887   */\n      0x00\n        /* \"#utility.yul\":8913:8977   */\n      tag_396\n        /* \"#utility.yul\":8971:8976   */\n      dup3\n        /* \"#utility.yul\":8913:8977   */\n      tag_397\n      jump\t// in\n    tag_396:\n        /* \"#utility.yul\":8993:9079   */\n      tag_398\n        /* \"#utility.yul\":9072:9078   */\n      dup2\n        /* \"#utility.yul\":9067:9070   */\n      dup6\n        /* \"#utility.yul\":8993:9079   */\n      tag_399\n      jump\t// in\n    tag_398:\n        /* \"#utility.yul\":8986:9079   */\n      swap4\n      pop\n        /* \"#utility.yul\":9105:9108   */\n      dup4\n        /* \"#utility.yul\":9150:9154   */\n      0x20\n        /* \"#utility.yul\":9142:9148   */\n      dup3\n        /* \"#utility.yul\":9138:9155   */\n      mul\n        /* \"#utility.yul\":9133:9136   */\n      dup6\n        /* \"#utility.yul\":9129:9156   */\n      add\n        /* \"#utility.yul\":9180:9246   */\n      tag_400\n        /* \"#utility.yul\":9240:9245   */\n      dup6\n        /* \"#utility.yul\":9180:9246   */\n      tag_401\n      jump\t// in\n    tag_400:\n        /* \"#utility.yul\":9269:9276   */\n      dup1\n        /* \"#utility.yul\":9300:9301   */\n      0x00\n        /* \"#utility.yul\":9285:9681   */\n    tag_402:\n        /* \"#utility.yul\":9310:9316   */\n      dup6\n        /* \"#utility.yul\":9307:9308   */\n      dup2\n        /* \"#utility.yul\":9304:9317   */\n      lt\n        /* \"#utility.yul\":9285:9681   */\n      iszero\n      tag_404\n      jumpi\n        /* \"#utility.yul\":9381:9390   */\n      dup5\n        /* \"#utility.yul\":9375:9379   */\n      dup5\n        /* \"#utility.yul\":9371:9391   */\n      sub\n        /* \"#utility.yul\":9366:9369   */\n      dup10\n        /* \"#utility.yul\":9359:9392   */\n      mstore\n        /* \"#utility.yul\":9432:9438   */\n      dup2\n        /* \"#utility.yul\":9426:9439   */\n      mload\n        /* \"#utility.yul\":9460:9544   */\n      tag_405\n        /* \"#utility.yul\":9539:9543   */\n      dup6\n        /* \"#utility.yul\":9524:9537   */\n      dup3\n        /* \"#utility.yul\":9460:9544   */\n      tag_386\n      jump\t// in\n    tag_405:\n        /* \"#utility.yul\":9452:9544   */\n      swap5\n      pop\n        /* \"#utility.yul\":9567:9637   */\n      tag_406\n        /* \"#utility.yul\":9630:9636   */\n      dup4\n        /* \"#utility.yul\":9567:9637   */\n      tag_407\n      jump\t// in\n    tag_406:\n        /* \"#utility.yul\":9557:9637   */\n      swap3\n      pop\n        /* \"#utility.yul\":9666:9670   */\n      0x20\n        /* \"#utility.yul\":9661:9664   */\n      dup11\n        /* \"#utility.yul\":9657:9671   */\n      add\n        /* \"#utility.yul\":9650:9671   */\n      swap10\n      pop\n        /* \"#utility.yul\":9345:9681   */\n      pop\n        /* \"#utility.yul\":9332:9333   */\n      0x01\n        /* \"#utility.yul\":9329:9330   */\n      dup2\n        /* \"#utility.yul\":9325:9334   */\n      add\n        /* \"#utility.yul\":9320:9334   */\n      swap1\n      pop\n        /* \"#utility.yul\":9285:9681   */\n      jump(tag_402)\n    tag_404:\n        /* \"#utility.yul\":9289:9303   */\n      pop\n        /* \"#utility.yul\":9697:9701   */\n      dup3\n        /* \"#utility.yul\":9690:9701   */\n      swap8\n      pop\n        /* \"#utility.yul\":9717:9720   */\n      dup8\n        /* \"#utility.yul\":9710:9720   */\n      swap6\n      pop\n        /* \"#utility.yul\":8889:9726   */\n      pop\n      pop\n      pop\n      pop\n      pop\n        /* \"#utility.yul\":8755:9726   */\n      swap3\n      swap2\n      pop\n      pop\n      jump\t// out\n        /* \"#utility.yul\":9732:10076   */\n    tag_389:\n        /* \"#utility.yul\":9810:9813   */\n      0x00\n        /* \"#utility.yul\":9838:9877   */\n      tag_409\n        /* \"#utility.yul\":9871:9876   */\n      dup3\n        /* \"#utility.yul\":9838:9877   */\n      tag_410\n      jump\t// in\n    tag_409:\n        /* \"#utility.yul\":9893:9954   */\n      tag_411\n        /* \"#utility.yul\":9947:9953   */\n      dup2\n        /* \"#utility.yul\":9942:9945   */\n      dup6\n        /* \"#utility.yul\":9893:9954   */\n      tag_412\n      jump\t// in\n    tag_411:\n        /* \"#utility.yul\":9886:9954   */\n      swap4\n      pop\n        /* \"#utility.yul\":9963:10015   */\n      tag_413\n        /* \"#utility.yul\":10008:10014   */\n      dup2\n        /* \"#utility.yul\":10003:10006   */\n      dup6\n        /* \"#utility.yul\":9996:10000   */\n      0x20\n        /* \"#utility.yul\":9989:9994   */\n      dup7\n        /* \"#utility.yul\":9985:10001   */\n      add\n        /* \"#utility.yul\":9963:10015   */\n      tag_414\n      jump\t// in\n    tag_413:\n        /* \"#utility.yul\":10040:10069   */\n      tag_415\n        /* \"#utility.yul\":10062:10068   */\n      dup2\n        /* \"#utility.yul\":10040:10069   */\n      tag_416\n      jump\t// in\n    tag_415:\n        /* \"#utility.yul\":10035:10038   */\n      dup5\n        /* \"#utility.yul\":10031:10070   */\n      add\n        /* \"#utility.yul\":10024:10070   */\n      swap2\n      pop\n        /* \"#utility.yul\":9814:10076   */\n      pop\n        /* \"#utility.yul\":9732:10076   */\n      swap3\n      swap2\n      pop\n      pop\n      jump\t// out\n        /* \"#utility.yul\":10082:10446   */\n    tag_417:\n        /* \"#utility.yul\":10170:10173   */\n      0x00\n        /* \"#utility.yul\":10198:10237   */\n      tag_419\n        /* \"#utility.yul\":10231:10236   */\n      dup3\n        /* \"#utility.yul\":10198:10237   */\n      tag_410\n      jump\t// in\n    tag_419:\n        /* \"#utility.yul\":10253:10324   */\n      tag_420\n        /* \"#utility.yul\":10317:10323   */\n      dup2\n        /* \"#utility.yul\":10312:10315   */\n      dup6\n        /* \"#utility.yul\":10253:10324   */\n      tag_421\n      jump\t// in\n    tag_420:\n        /* \"#utility.yul\":10246:10324   */\n      swap4\n      pop\n        /* \"#utility.yul\":10333:10385   */\n      tag_422\n        /* \"#utility.yul\":10378:10384   */\n      dup2\n        /* \"#utility.yul\":10373:10376   */\n      dup6\n        /* \"#utility.yul\":10366:10370   */\n      0x20\n        /* \"#utility.yul\":10359:10364   */\n      dup7\n        /* \"#utility.yul\":10355:10371   */\n      add\n        /* \"#utility.yul\":10333:10385   */\n      tag_414\n      jump\t// in\n    tag_422:\n        /* \"#utility.yul\":10410:10439   */\n      tag_423\n        /* \"#utility.yul\":10432:10438   */\n      dup2\n        /* \"#utility.yul\":10410:10439   */\n      tag_416\n      jump\t// in\n    tag_423:\n        /* \"#utility.yul\":10405:10408   */\n      dup5\n        /* \"#utility.yul\":10401:10440   */\n      add\n        /* \"#utility.yul\":10394:10440   */\n      swap2\n      pop\n        /* \"#utility.yul\":10174:10446   */\n      pop\n        /* \"#utility.yul\":10082:10446   */\n      swap3\n      swap2\n      pop\n      pop\n      jump\t// out\n        /* \"#utility.yul\":10510:12176   */\n    tag_424:\n        /* \"#utility.yul\":10627:10630   */\n      0x00\n        /* \"#utility.yul\":10663:10667   */\n      0xc0\n        /* \"#utility.yul\":10658:10661   */\n      dup4\n        /* \"#utility.yul\":10654:10668   */\n      add\n        /* \"#utility.yul\":10753:10757   */\n      0x00\n        /* \"#utility.yul\":10746:10751   */\n      dup4\n        /* \"#utility.yul\":10742:10758   */\n      add\n        /* \"#utility.yul\":10736:10759   */\n      mload\n        /* \"#utility.yul\":10806:10809   */\n      dup5\n        /* \"#utility.yul\":10800:10804   */\n      dup3\n        /* \"#utility.yul\":10796:10810   */\n      sub\n        /* \"#utility.yul\":10789:10793   */\n      0x00\n        /* \"#utility.yul\":10784:10787   */\n      dup7\n        /* \"#utility.yul\":10780:10794   */\n      add\n        /* \"#utility.yul\":10773:10811   */\n      mstore\n        /* \"#utility.yul\":10832:10905   */\n      tag_426\n        /* \"#utility.yul\":10900:10904   */\n      dup3\n        /* \"#utility.yul\":10886:10898   */\n      dup3\n        /* \"#utility.yul\":10832:10905   */\n      tag_389\n      jump\t// in\n    tag_426:\n        /* \"#utility.yul\":10824:10905   */\n      swap2\n      pop\n        /* \"#utility.yul\":10678:10916   */\n      pop\n        /* \"#utility.yul\":10999:11003   */\n      0x20\n        /* \"#utility.yul\":10992:10997   */\n      dup4\n        /* \"#utility.yul\":10988:11004   */\n      add\n        /* \"#utility.yul\":10982:11005   */\n      mload\n        /* \"#utility.yul\":11052:11055   */\n      dup5\n        /* \"#utility.yul\":11046:11050   */\n      dup3\n        /* \"#utility.yul\":11042:11056   */\n      sub\n        /* \"#utility.yul\":11035:11039   */\n      0x20\n        /* \"#utility.yul\":11030:11033   */\n      dup7\n        /* \"#utility.yul\":11026:11040   */\n      add\n        /* \"#utility.yul\":11019:11057   */\n      mstore\n        /* \"#utility.yul\":11078:11151   */\n      tag_427\n        /* \"#utility.yul\":11146:11150   */\n      dup3\n        /* \"#utility.yul\":11132:11144   */\n      dup3\n        /* \"#utility.yul\":11078:11151   */\n      tag_389\n      jump\t// in\n    tag_427:\n        /* \"#utility.yul\":11070:11151   */\n      swap2\n      pop\n        /* \"#utility.yul\":10926:11162   */\n      pop\n        /* \"#utility.yul\":11245:11249   */\n      0x40\n        /* \"#utility.yul\":11238:11243   */\n      dup4\n        /* \"#utility.yul\":11234:11250   */\n      add\n        /* \"#utility.yul\":11228:11251   */\n      mload\n        /* \"#utility.yul\":11298:11301   */\n      dup5\n        /* \"#utility.yul\":11292:11296   */\n      dup3\n        /* \"#utility.yul\":11288:11302   */\n      sub\n        /* \"#utility.yul\":11281:11285   */\n      0x40\n        /* \"#utility.yul\":11276:11279   */\n      dup7\n        /* \"#utility.yul\":11272:11286   */\n      add\n        /* \"#utility.yul\":11265:11303   */\n      mstore\n        /* \"#utility.yul\":11324:11397   */\n      tag_428\n        /* \"#utility.yul\":11392:11396   */\n      dup3\n        /* \"#utility.yul\":11378:11390   */\n      dup3\n        /* \"#utility.yul\":11324:11397   */\n      tag_389\n      jump\t// in\n    tag_428:\n        /* \"#utility.yul\":11316:11397   */\n      swap2\n      pop\n        /* \"#utility.yul\":11172:11408   */\n      pop\n        /* \"#utility.yul\":11492:11496   */\n      0x60\n        /* \"#utility.yul\":11485:11490   */\n      dup4\n        /* \"#utility.yul\":11481:11497   */\n      add\n        /* \"#utility.yul\":11475:11498   */\n      mload\n        /* \"#utility.yul\":11545:11548   */\n      dup5\n        /* \"#utility.yul\":11539:11543   */\n      dup3\n        /* \"#utility.yul\":11535:11549   */\n      sub\n        /* \"#utility.yul\":11528:11532   */\n      0x60\n        /* \"#utility.yul\":11523:11526   */\n      dup7\n        /* \"#utility.yul\":11519:11533   */\n      add\n        /* \"#utility.yul\":11512:11550   */\n      mstore\n        /* \"#utility.yul\":11571:11644   */\n      tag_429\n        /* \"#utility.yul\":11639:11643   */\n      dup3\n        /* \"#utility.yul\":11625:11637   */\n      dup3\n        /* \"#utility.yul\":11571:11644   */\n      tag_389\n      jump\t// in\n    tag_429:\n        /* \"#utility.yul\":11563:11644   */\n      swap2\n      pop\n        /* \"#utility.yul\":11418:11655   */\n      pop\n        /* \"#utility.yul\":11739:11743   */\n      0x80\n        /* \"#utility.yul\":11732:11737   */\n      dup4\n        /* \"#utility.yul\":11728:11744   */\n      add\n        /* \"#utility.yul\":11722:11745   */\n      mload\n        /* \"#utility.yul\":11792:11795   */\n      dup5\n        /* \"#utility.yul\":11786:11790   */\n      dup3\n        /* \"#utility.yul\":11782:11796   */\n      sub\n        /* \"#utility.yul\":11775:11779   */\n      0x80\n        /* \"#utility.yul\":11770:11773   */\n      dup7\n        /* \"#utility.yul\":11766:11780   */\n      add\n        /* \"#utility.yul\":11759:11797   */\n      mstore\n        /* \"#utility.yul\":11818:11891   */\n      tag_430\n        /* \"#utility.yul\":11886:11890   */\n      dup3\n        /* \"#utility.yul\":11872:11884   */\n      dup3\n        /* \"#utility.yul\":11818:11891   */\n      tag_389\n      jump\t// in\n    tag_430:\n        /* \"#utility.yul\":11810:11891   */\n      swap2\n      pop\n        /* \"#utility.yul\":11665:11902   */\n      pop\n        /* \"#utility.yul\":11986:11990   */\n      0xa0\n        /* \"#utility.yul\":11979:11984   */\n      dup4\n        /* \"#utility.yul\":11975:11991   */\n      add\n        /* \"#utility.yul\":11969:11992   */\n      mload\n        /* \"#utility.yul\":12039:12042   */\n      dup5\n        /* \"#utility.yul\":12033:12037   */\n      dup3\n        /* \"#utility.yul\":12029:12043   */\n      sub\n        /* \"#utility.yul\":12022:12026   */\n      0xa0\n        /* \"#utility.yul\":12017:12020   */\n      dup7\n        /* \"#utility.yul\":12013:12027   */\n      add\n        /* \"#utility.yul\":12006:12044   */\n      mstore\n        /* \"#utility.yul\":12065:12138   */\n      tag_431\n        /* \"#utility.yul\":12133:12137   */\n      dup3\n        /* \"#utility.yul\":12119:12131   */\n      dup3\n        /* \"#utility.yul\":12065:12138   */\n      tag_389\n      jump\t// in\n    tag_431:\n        /* \"#utility.yul\":12057:12138   */\n      swap2\n      pop\n        /* \"#utility.yul\":11912:12149   */\n      pop\n        /* \"#utility.yul\":12166:12170   */\n      dup1\n        /* \"#utility.yul\":12159:12170   */\n      swap2\n      pop\n        /* \"#utility.yul\":10632:12176   */\n      pop\n        /* \"#utility.yul\":10510:12176   */\n      swap3\n      swap2\n      pop\n      pop\n      jump\t// out\n        /* \"#utility.yul\":12246:14300   */\n    tag_432:\n        /* \"#utility.yul\":12369:12372   */\n      0x00\n        /* \"#utility.yul\":12405:12411   */\n      0x0100\n        /* \"#utility.yul\":12400:12403   */\n      dup4\n        /* \"#utility.yul\":12396:12412   */\n      add\n        /* \"#utility.yul\":12497:12501   */\n      0x00\n        /* \"#utility.yul\":12490:12495   */\n      dup4\n        /* \"#utility.yul\":12486:12502   */\n      add\n        /* \"#utility.yul\":12480:12503   */\n      mload\n        /* \"#utility.yul\":12550:12553   */\n      dup5\n        /* \"#utility.yul\":12544:12548   */\n      dup3\n        /* \"#utility.yul\":12540:12554   */\n      sub\n        /* \"#utility.yul\":12533:12537   */\n      0x00\n        /* \"#utility.yul\":12528:12531   */\n      dup7\n        /* \"#utility.yul\":12524:12538   */\n      add\n        /* \"#utility.yul\":12517:12555   */\n      mstore\n        /* \"#utility.yul\":12576:12649   */\n      tag_434\n        /* \"#utility.yul\":12644:12648   */\n      dup3\n        /* \"#utility.yul\":12630:12642   */\n      dup3\n        /* \"#utility.yul\":12576:12649   */\n      tag_389\n      jump\t// in\n    tag_434:\n        /* \"#utility.yul\":12568:12649   */\n      swap2\n      pop\n        /* \"#utility.yul\":12422:12660   */\n      pop\n        /* \"#utility.yul\":12746:12750   */\n      0x20\n        /* \"#utility.yul\":12739:12744   */\n      dup4\n        /* \"#utility.yul\":12735:12751   */\n      add\n        /* \"#utility.yul\":12729:12752   */\n      mload\n        /* \"#utility.yul\":12799:12802   */\n      dup5\n        /* \"#utility.yul\":12793:12797   */\n      dup3\n        /* \"#utility.yul\":12789:12803   */\n      sub\n        /* \"#utility.yul\":12782:12786   */\n      0x20\n        /* \"#utility.yul\":12777:12780   */\n      dup7\n        /* \"#utility.yul\":12773:12787   */\n      add\n        /* \"#utility.yul\":12766:12804   */\n      mstore\n        /* \"#utility.yul\":12825:12898   */\n      tag_435\n        /* \"#utility.yul\":12893:12897   */\n      dup3\n        /* \"#utility.yul\":12879:12891   */\n      dup3\n        /* \"#utility.yul\":12825:12898   */\n      tag_389\n      jump\t// in\n    tag_435:\n        /* \"#utility.yul\":12817:12898   */\n      swap2\n      pop\n        /* \"#utility.yul\":12670:12909   */\n      pop\n        /* \"#utility.yul\":12998:13002   */\n      0x40\n        /* \"#utility.yul\":12991:12996   */\n      dup4\n        /* \"#utility.yul\":12987:13003   */\n      add\n        /* \"#utility.yul\":12981:13004   */\n      mload\n        /* \"#utility.yul\":13017:13080   */\n      tag_436\n        /* \"#utility.yul\":13074:13078   */\n      0x40\n        /* \"#utility.yul\":13069:13072   */\n      dup7\n        /* \"#utility.yul\":13065:13079   */\n      add\n        /* \"#utility.yul\":13051:13063   */\n      dup3\n        /* \"#utility.yul\":13017:13080   */\n      tag_390\n      jump\t// in\n    tag_436:\n        /* \"#utility.yul\":12919:13090   */\n      pop\n        /* \"#utility.yul\":13177:13181   */\n      0x60\n        /* \"#utility.yul\":13170:13175   */\n      dup4\n        /* \"#utility.yul\":13166:13182   */\n      add\n        /* \"#utility.yul\":13160:13183   */\n      mload\n        /* \"#utility.yul\":13230:13233   */\n      dup5\n        /* \"#utility.yul\":13224:13228   */\n      dup3\n        /* \"#utility.yul\":13220:13234   */\n      sub\n        /* \"#utility.yul\":13213:13217   */\n      0x60\n        /* \"#utility.yul\":13208:13211   */\n      dup7\n        /* \"#utility.yul\":13204:13218   */\n      add\n        /* \"#utility.yul\":13197:13235   */\n      mstore\n        /* \"#utility.yul\":13256:13329   */\n      tag_437\n        /* \"#utility.yul\":13324:13328   */\n      dup3\n        /* \"#utility.yul\":13310:13322   */\n      dup3\n        /* \"#utility.yul\":13256:13329   */\n      tag_389\n      jump\t// in\n    tag_437:\n        /* \"#utility.yul\":13248:13329   */\n      swap2\n      pop\n        /* \"#utility.yul\":13100:13340   */\n      pop\n        /* \"#utility.yul\":13428:13432   */\n      0x80\n        /* \"#utility.yul\":13421:13426   */\n      dup4\n        /* \"#utility.yul\":13417:13433   */\n      add\n        /* \"#utility.yul\":13411:13434   */\n      mload\n        /* \"#utility.yul\":13481:13484   */\n      dup5\n        /* \"#utility.yul\":13475:13479   */\n      dup3\n        /* \"#utility.yul\":13471:13485   */\n      sub\n        /* \"#utility.yul\":13464:13468   */\n      0x80\n        /* \"#utility.yul\":13459:13462   */\n      dup7\n        /* \"#utility.yul\":13455:13469   */\n      add\n        /* \"#utility.yul\":13448:13486   */\n      mstore\n        /* \"#utility.yul\":13507:13580   */\n      tag_438\n        /* \"#utility.yul\":13575:13579   */\n      dup3\n        /* \"#utility.yul\":13561:13573   */\n      dup3\n        /* \"#utility.yul\":13507:13580   */\n      tag_389\n      jump\t// in\n    tag_438:\n        /* \"#utility.yul\":13499:13580   */\n      swap2\n      pop\n        /* \"#utility.yul\":13350:13591   */\n      pop\n        /* \"#utility.yul\":13677:13681   */\n      0xa0\n        /* \"#utility.yul\":13670:13675   */\n      dup4\n        /* \"#utility.yul\":13666:13682   */\n      add\n        /* \"#utility.yul\":13660:13683   */\n      mload\n        /* \"#utility.yul\":13730:13733   */\n      dup5\n        /* \"#utility.yul\":13724:13728   */\n      dup3\n        /* \"#utility.yul\":13720:13734   */\n      sub\n        /* \"#utility.yul\":13713:13717   */\n      0xa0\n        /* \"#utility.yul\":13708:13711   */\n      dup7\n        /* \"#utility.yul\":13704:13718   */\n      add\n        /* \"#utility.yul\":13697:13735   */\n      mstore\n        /* \"#utility.yul\":13756:13829   */\n      tag_439\n        /* \"#utility.yul\":13824:13828   */\n      dup3\n        /* \"#utility.yul\":13810:13822   */\n      dup3\n        /* \"#utility.yul\":13756:13829   */\n      tag_389\n      jump\t// in\n    tag_439:\n        /* \"#utility.yul\":13748:13829   */\n      swap2\n      pop\n        /* \"#utility.yul\":13601:13840   */\n      pop\n        /* \"#utility.yul\":13930:13934   */\n      0xc0\n        /* \"#utility.yul\":13923:13928   */\n      dup4\n        /* \"#utility.yul\":13919:13935   */\n      add\n        /* \"#utility.yul\":13913:13936   */\n      mload\n        /* \"#utility.yul\":13983:13986   */\n      dup5\n        /* \"#utility.yul\":13977:13981   */\n      dup3\n        /* \"#utility.yul\":13973:13987   */\n      sub\n        /* \"#utility.yul\":13966:13970   */\n      0xc0\n        /* \"#utility.yul\":13961:13964   */\n      dup7\n        /* \"#utility.yul\":13957:13971   */\n      add\n        /* \"#utility.yul\":13950:13988   */\n      mstore\n        /* \"#utility.yul\":14009:14082   */\n      tag_440\n        /* \"#utility.yul\":14077:14081   */\n      dup3\n        /* \"#utility.yul\":14063:14075   */\n      dup3\n        /* \"#utility.yul\":14009:14082   */\n      tag_389\n      jump\t// in\n    tag_440:\n        /* \"#utility.yul\":14001:14082   */\n      swap2\n      pop\n        /* \"#utility.yul\":13850:14093   */\n      pop\n        /* \"#utility.yul\":14181:14185   */\n      0xe0\n        /* \"#utility.yul\":14174:14179   */\n      dup4\n        /* \"#utility.yul\":14170:14186   */\n      add\n        /* \"#utility.yul\":14164:14187   */\n      mload\n        /* \"#utility.yul\":14200:14263   */\n      tag_441\n        /* \"#utility.yul\":14257:14261   */\n      0xe0\n        /* \"#utility.yul\":14252:14255   */\n      dup7\n        /* \"#utility.yul\":14248:14262   */\n      add\n        /* \"#utility.yul\":14234:14246   */\n      dup3\n        /* \"#utility.yul\":14200:14263   */\n      tag_442\n      jump\t// in\n    tag_441:\n        /* \"#utility.yul\":14103:14273   */\n      pop\n        /* \"#utility.yul\":14290:14294   */\n      dup1\n        /* \"#utility.yul\":14283:14294   */\n      swap2\n      pop\n        /* \"#utility.yul\":12374:14300   */\n      pop\n        /* \"#utility.yul\":12246:14300   */\n      swap3\n      swap2\n      pop\n      pop\n      jump\t// out\n        /* \"#utility.yul\":14358:15455   */\n    tag_443:\n        /* \"#utility.yul\":14469:14472   */\n      0x00\n        /* \"#utility.yul\":14505:14509   */\n      0x60\n        /* \"#utility.yul\":14500:14503   */\n      dup4\n        /* \"#utility.yul\":14496:14510   */\n      add\n        /* \"#utility.yul\":14608:14612   */\n      0x00\n        /* \"#utility.yul\":14601:14606   */\n      dup4\n        /* \"#utility.yul\":14597:14613   */\n      add\n        /* \"#utility.yul\":14591:14614   */\n      mload\n        /* \"#utility.yul\":14661:14664   */\n      dup5\n        /* \"#utility.yul\":14655:14659   */\n      dup3\n        /* \"#utility.yul\":14651:14665   */\n      sub\n        /* \"#utility.yul\":14644:14648   */\n      0x00\n        /* \"#utility.yul\":14639:14642   */\n      dup7\n        /* \"#utility.yul\":14635:14649   */\n      add\n        /* \"#utility.yul\":14628:14666   */\n      mstore\n        /* \"#utility.yul\":14687:14810   */\n      tag_445\n        /* \"#utility.yul\":14805:14809   */\n      dup3\n        /* \"#utility.yul\":14791:14803   */\n      dup3\n        /* \"#utility.yul\":14687:14810   */\n      tag_394\n      jump\t// in\n    tag_445:\n        /* \"#utility.yul\":14679:14810   */\n      swap2\n      pop\n        /* \"#utility.yul\":14520:14821   */\n      pop\n        /* \"#utility.yul\":14908:14912   */\n      0x20\n        /* \"#utility.yul\":14901:14906   */\n      dup4\n        /* \"#utility.yul\":14897:14913   */\n      add\n        /* \"#utility.yul\":14891:14914   */\n      mload\n        /* \"#utility.yul\":14961:14964   */\n      dup5\n        /* \"#utility.yul\":14955:14959   */\n      dup3\n        /* \"#utility.yul\":14951:14965   */\n      sub\n        /* \"#utility.yul\":14944:14948   */\n      0x20\n        /* \"#utility.yul\":14939:14942   */\n      dup7\n        /* \"#utility.yul\":14935:14949   */\n      add\n        /* \"#utility.yul\":14928:14966   */\n      mstore\n        /* \"#utility.yul\":14987:15110   */\n      tag_446\n        /* \"#utility.yul\":15105:15109   */\n      dup3\n        /* \"#utility.yul\":15091:15103   */\n      dup3\n        /* \"#utility.yul\":14987:15110   */\n      tag_394\n      jump\t// in\n    tag_446:\n        /* \"#utility.yul\":14979:15110   */\n      swap2\n      pop\n        /* \"#utility.yul\":14831:15121   */\n      pop\n        /* \"#utility.yul\":15215:15219   */\n      0x40\n        /* \"#utility.yul\":15208:15213   */\n      dup4\n        /* \"#utility.yul\":15204:15220   */\n      add\n        /* \"#utility.yul\":15198:15221   */\n      mload\n        /* \"#utility.yul\":15268:15271   */\n      dup5\n        /* \"#utility.yul\":15262:15266   */\n      dup3\n        /* \"#utility.yul\":15258:15272   */\n      sub\n        /* \"#utility.yul\":15251:15255   */\n      0x40\n        /* \"#utility.yul\":15246:15249   */\n      dup7\n        /* \"#utility.yul\":15242:15256   */\n      add\n        /* \"#utility.yul\":15235:15273   */\n      mstore\n        /* \"#utility.yul\":15294:15417   */\n      tag_447\n        /* \"#utility.yul\":15412:15416   */\n      dup3\n        /* \"#utility.yul\":15398:15410   */\n      dup3\n        /* \"#utility.yul\":15294:15417   */\n      tag_394\n      jump\t// in\n    tag_447:\n        /* \"#utility.yul\":15286:15417   */\n      swap2\n      pop\n        /* \"#utility.yul\":15131:15428   */\n      pop\n        /* \"#utility.yul\":15445:15449   */\n      dup1\n        /* \"#utility.yul\":15438:15449   */\n      swap2\n      pop\n        /* \"#utility.yul\":14474:15455   */\n      pop\n        /* \"#utility.yul\":14358:15455   */\n      swap3\n      swap2\n      pop\n      pop\n      jump\t// out\n        /* \"#utility.yul\":15461:15569   */\n    tag_442:\n        /* \"#utility.yul\":15538:15562   */\n      tag_449\n        /* \"#utility.yul\":15556:15561   */\n      dup2\n        /* \"#utility.yul\":15538:15562   */\n      tag_450\n      jump\t// in\n    tag_449:\n        /* \"#utility.yul\":15533:15536   */\n      dup3\n        /* \"#utility.yul\":15526:15563   */\n      mstore\n        /* \"#utility.yul\":15461:15569   */\n      pop\n      pop\n      jump\t// out\n        /* \"#utility.yul\":15575:15693   */\n    tag_451:\n        /* \"#utility.yul\":15662:15686   */\n      tag_453\n        /* \"#utility.yul\":15680:15685   */\n      dup2\n        /* \"#utility.yul\":15662:15686   */\n      tag_450\n      jump\t// in\n    tag_453:\n        /* \"#utility.yul\":15657:15660   */\n      dup3\n        /* \"#utility.yul\":15650:15687   */\n      mstore\n        /* \"#utility.yul\":15575:15693   */\n      pop\n      pop\n      jump\t// out\n        /* \"#utility.yul\":15699:16818   */\n    tag_48:\n        /* \"#utility.yul\":16004:16008   */\n      0x00\n        /* \"#utility.yul\":16042:16045   */\n      0xa0\n        /* \"#utility.yul\":16031:16040   */\n      dup3\n        /* \"#utility.yul\":16027:16046   */\n      add\n        /* \"#utility.yul\":16019:16046   */\n      swap1\n      pop\n        /* \"#utility.yul\":16092:16101   */\n      dup2\n        /* \"#utility.yul\":16086:16090   */\n      dup2\n        /* \"#utility.yul\":16082:16102   */\n      sub\n        /* \"#utility.yul\":16078:16079   */\n      0x00\n        /* \"#utility.yul\":16067:16076   */\n      dup4\n        /* \"#utility.yul\":16063:16080   */\n      add\n        /* \"#utility.yul\":16056:16103   */\n      mstore\n        /* \"#utility.yul\":16120:16198   */\n      tag_455\n        /* \"#utility.yul\":16193:16197   */\n      dup2\n        /* \"#utility.yul\":16184:16190   */\n      dup9\n        /* \"#utility.yul\":16120:16198   */\n      tag_417\n      jump\t// in\n    tag_455:\n        /* \"#utility.yul\":16112:16198   */\n      swap1\n      pop\n        /* \"#utility.yul\":16245:16254   */\n      dup2\n        /* \"#utility.yul\":16239:16243   */\n      dup2\n        /* \"#utility.yul\":16235:16255   */\n      sub\n        /* \"#utility.yul\":16230:16232   */\n      0x20\n        /* \"#utility.yul\":16219:16228   */\n      dup4\n        /* \"#utility.yul\":16215:16233   */\n      add\n        /* \"#utility.yul\":16208:16256   */\n      mstore\n        /* \"#utility.yul\":16273:16351   */\n      tag_456\n        /* \"#utility.yul\":16346:16350   */\n      dup2\n        /* \"#utility.yul\":16337:16343   */\n      dup8\n        /* \"#utility.yul\":16273:16351   */\n      tag_417\n      jump\t// in\n    tag_456:\n        /* \"#utility.yul\":16265:16351   */\n      swap1\n      pop\n        /* \"#utility.yul\":16398:16407   */\n      dup2\n        /* \"#utility.yul\":16392:16396   */\n      dup2\n        /* \"#utility.yul\":16388:16408   */\n      sub\n        /* \"#utility.yul\":16383:16385   */\n      0x40\n        /* \"#utility.yul\":16372:16381   */\n      dup4\n        /* \"#utility.yul\":16368:16386   */\n      add\n        /* \"#utility.yul\":16361:16409   */\n      mstore\n        /* \"#utility.yul\":16426:16504   */\n      tag_457\n        /* \"#utility.yul\":16499:16503   */\n      dup2\n        /* \"#utility.yul\":16490:16496   */\n      dup7\n        /* \"#utility.yul\":16426:16504   */\n      tag_417\n      jump\t// in\n    tag_457:\n        /* \"#utility.yul\":16418:16504   */\n      swap1\n      pop\n        /* \"#utility.yul\":16551:16560   */\n      dup2\n        /* \"#utility.yul\":16545:16549   */\n      dup2\n        /* \"#utility.yul\":16541:16561   */\n      sub\n        /* \"#utility.yul\":16536:16538   */\n      0x60\n        /* \"#utility.yul\":16525:16534   */\n      dup4\n        /* \"#utility.yul\":16521:16539   */\n      add\n        /* \"#utility.yul\":16514:16562   */\n      mstore\n        /* \"#utility.yul\":16579:16657   */\n      tag_458\n        /* \"#utility.yul\":16652:16656   */\n      dup2\n        /* \"#utility.yul\":16643:16649   */\n      dup6\n        /* \"#utility.yul\":16579:16657   */\n      tag_417\n      jump\t// in\n    tag_458:\n        /* \"#utility.yul\":16571:16657   */\n      swap1\n      pop\n        /* \"#utility.yul\":16705:16714   */\n      dup2\n        /* \"#utility.yul\":16699:16703   */\n      dup2\n        /* \"#utility.yul\":16695:16715   */\n      sub\n        /* \"#utility.yul\":16689:16692   */\n      0x80\n        /* \"#utility.yul\":16678:16687   */\n      dup4\n        /* \"#utility.yul\":16674:16693   */\n      add\n        /* \"#utility.yul\":16667:16716   */\n      mstore\n        /* \"#utility.yul\":16733:16811   */\n      tag_459\n        /* \"#utility.yul\":16806:16810   */\n      dup2\n        /* \"#utility.yul\":16797:16803   */\n      dup5\n        /* \"#utility.yul\":16733:16811   */\n      tag_417\n      jump\t// in\n    tag_459:\n        /* \"#utility.yul\":16725:16811   */\n      swap1\n      pop\n        /* \"#utility.yul\":15699:16818   */\n      swap7\n      swap6\n      pop\n      pop\n      pop\n      pop\n      pop\n      pop\n      jump\t// out\n        /* \"#utility.yul\":16824:17707   */\n    tag_40:\n        /* \"#utility.yul\":17117:17121   */\n      0x00\n        /* \"#utility.yul\":17155:17157   */\n      0x60\n        /* \"#utility.yul\":17144:17153   */\n      dup3\n        /* \"#utility.yul\":17140:17158   */\n      add\n        /* \"#utility.yul\":17132:17158   */\n      swap1\n      pop\n        /* \"#utility.yul\":17204:17213   */\n      dup2\n        /* \"#utility.yul\":17198:17202   */\n      dup2\n        /* \"#utility.yul\":17194:17214   */\n      sub\n        /* \"#utility.yul\":17190:17191   */\n      0x00\n        /* \"#utility.yul\":17179:17188   */\n      dup4\n        /* \"#utility.yul\":17175:17192   */\n      add\n        /* \"#utility.yul\":17168:17215   */\n      mstore\n        /* \"#utility.yul\":17232:17344   */\n      tag_461\n        /* \"#utility.yul\":17339:17343   */\n      dup2\n        /* \"#utility.yul\":17330:17336   */\n      dup7\n        /* \"#utility.yul\":17232:17344   */\n      tag_432\n      jump\t// in\n    tag_461:\n        /* \"#utility.yul\":17224:17344   */\n      swap1\n      pop\n        /* \"#utility.yul\":17391:17400   */\n      dup2\n        /* \"#utility.yul\":17385:17389   */\n      dup2\n        /* \"#utility.yul\":17381:17401   */\n      sub\n        /* \"#utility.yul\":17376:17378   */\n      0x20\n        /* \"#utility.yul\":17365:17374   */\n      dup4\n        /* \"#utility.yul\":17361:17379   */\n      add\n        /* \"#utility.yul\":17354:17402   */\n      mstore\n        /* \"#utility.yul\":17419:17525   */\n      tag_462\n        /* \"#utility.yul\":17520:17524   */\n      dup2\n        /* \"#utility.yul\":17511:17517   */\n      dup6\n        /* \"#utility.yul\":17419:17525   */\n      tag_424\n      jump\t// in\n    tag_462:\n        /* \"#utility.yul\":17411:17525   */\n      swap1\n      pop\n        /* \"#utility.yul\":17572:17581   */\n      dup2\n        /* \"#utility.yul\":17566:17570   */\n      dup2\n        /* \"#utility.yul\":17562:17582   */\n      sub\n        /* \"#utility.yul\":17557:17559   */\n      0x40\n        /* \"#utility.yul\":17546:17555   */\n      dup4\n        /* \"#utility.yul\":17542:17560   */\n      add\n        /* \"#utility.yul\":17535:17583   */\n      mstore\n        /* \"#utility.yul\":17600:17700   */\n      tag_463\n        /* \"#utility.yul\":17695:17699   */\n      dup2\n        /* \"#utility.yul\":17686:17692   */\n      dup5\n        /* \"#utility.yul\":17600:17700   */\n      tag_443\n      jump\t// in\n    tag_463:\n        /* \"#utility.yul\":17592:17700   */\n      swap1\n      pop\n        /* \"#utility.yul\":16824:17707   */\n      swap5\n      swap4\n      pop\n      pop\n      pop\n      pop\n      jump\t// out\n        /* \"#utility.yul\":17713:17935   */\n    tag_21:\n        /* \"#utility.yul\":17806:17810   */\n      0x00\n        /* \"#utility.yul\":17844:17846   */\n      0x20\n        /* \"#utility.yul\":17833:17842   */\n      dup3\n        /* \"#utility.yul\":17829:17847   */\n      add\n        /* \"#utility.yul\":17821:17847   */\n      swap1\n      pop\n        /* \"#utility.yul\":17857:17928   */\n      tag_465\n        /* \"#utility.yul\":17925:17926   */\n      0x00\n        /* \"#utility.yul\":17914:17923   */\n      dup4\n        /* \"#utility.yul\":17910:17927   */\n      add\n        /* \"#utility.yul\":17901:17907   */\n      dup5\n        /* \"#utility.yul\":17857:17928   */\n      tag_451\n      jump\t// in\n    tag_465:\n        /* \"#utility.yul\":17713:17935   */\n      swap3\n      swap2\n      pop\n      pop\n      jump\t// out\n        /* \"#utility.yul\":17941:18070   */\n    tag_286:\n        /* \"#utility.yul\":17975:17981   */\n      0x00\n        /* \"#utility.yul\":18002:18022   */\n      tag_467\n      tag_468\n      jump\t// in\n    tag_467:\n        /* \"#utility.yul\":17992:18022   */\n      swap1\n      pop\n        /* \"#utility.yul\":18031:18064   */\n      tag_469\n        /* \"#utility.yul\":18059:18063   */\n      dup3\n        /* \"#utility.yul\":18051:18057   */\n      dup3\n        /* \"#utility.yul\":18031:18064   */\n      tag_470\n      jump\t// in\n    tag_469:\n        /* \"#utility.yul\":17941:18070   */\n      swap2\n      swap1\n      pop\n      jump\t// out\n        /* \"#utility.yul\":18076:18151   */\n    tag_468:\n        /* \"#utility.yul\":18109:18115   */\n      0x00\n        /* \"#utility.yul\":18142:18144   */\n      0x40\n        /* \"#utility.yul\":18136:18145   */\n      mload\n        /* \"#utility.yul\":18126:18145   */\n      swap1\n      pop\n        /* \"#utility.yul\":18076:18151   */\n      swap1\n      jump\t// out\n        /* \"#utility.yul\":18157:18478   */\n    tag_285:\n        /* \"#utility.yul\":18244:18248   */\n      0x00\n        /* \"#utility.yul\":18334:18352   */\n      0xffffffffffffffff\n        /* \"#utility.yul\":18326:18332   */\n      dup3\n        /* \"#utility.yul\":18323:18353   */\n      gt\n        /* \"#utility.yul\":18320:18376   */\n      iszero\n      tag_473\n      jumpi\n        /* \"#utility.yul\":18356:18374   */\n      tag_474\n      tag_475\n      jump\t// in\n    tag_474:\n        /* \"#utility.yul\":18320:18376   */\n    tag_473:\n        /* \"#utility.yul\":18406:18410   */\n      0x20\n        /* \"#utility.yul\":18398:18404   */\n      dup3\n        /* \"#utility.yul\":18394:18411   */\n      mul\n        /* \"#utility.yul\":18386:18411   */\n      swap1\n      pop\n        /* \"#utility.yul\":18466:18470   */\n      0x20\n        /* \"#utility.yul\":18460:18464   */\n      dup2\n        /* \"#utility.yul\":18456:18471   */\n      add\n        /* \"#utility.yul\":18448:18471   */\n      swap1\n      pop\n        /* \"#utility.yul\":18157:18478   */\n      swap2\n      swap1\n      pop\n      jump\t// out\n        /* \"#utility.yul\":18484:18792   */\n    tag_302:\n        /* \"#utility.yul\":18546:18550   */\n      0x00\n        /* \"#utility.yul\":18636:18654   */\n      0xffffffffffffffff\n        /* \"#utility.yul\":18628:18634   */\n      dup3\n        /* \"#utility.yul\":18625:18655   */\n      gt\n        /* \"#utility.yul\":18622:18678   */\n      iszero\n      tag_477\n      jumpi\n        /* \"#utility.yul\":18658:18676   */\n      tag_478\n      tag_475\n      jump\t// in\n    tag_478:\n        /* \"#utility.yul\":18622:18678   */\n    tag_477:\n        /* \"#utility.yul\":18696:18725   */\n      tag_479\n        /* \"#utility.yul\":18718:18724   */\n      dup3\n        /* \"#utility.yul\":18696:18725   */\n      tag_416\n      jump\t// in\n    tag_479:\n        /* \"#utility.yul\":18688:18725   */\n      swap1\n      pop\n        /* \"#utility.yul\":18780:18784   */\n      0x20\n        /* \"#utility.yul\":18774:18778   */\n      dup2\n        /* \"#utility.yul\":18770:18785   */\n      add\n        /* \"#utility.yul\":18762:18785   */\n      swap1\n      pop\n        /* \"#utility.yul\":18484:18792   */\n      swap2\n      swap1\n      pop\n      jump\t// out\n        /* \"#utility.yul\":18798:18940   */\n    tag_401:\n        /* \"#utility.yul\":18875:18879   */\n      0x00\n        /* \"#utility.yul\":18898:18901   */\n      dup2\n        /* \"#utility.yul\":18890:18901   */\n      swap1\n      pop\n        /* \"#utility.yul\":18928:18932   */\n      0x20\n        /* \"#utility.yul\":18923:18926   */\n      dup3\n        /* \"#utility.yul\":18919:18933   */\n      add\n        /* \"#utility.yul\":18911:18933   */\n      swap1\n      pop\n        /* \"#utility.yul\":18798:18940   */\n      swap2\n      swap1\n      pop\n      jump\t// out\n        /* \"#utility.yul\":18946:19070   */\n    tag_397:\n        /* \"#utility.yul\":19023:19029   */\n      0x00\n        /* \"#utility.yul\":19057:19062   */\n      dup2\n        /* \"#utility.yul\":19051:19063   */\n      mload\n        /* \"#utility.yul\":19041:19063   */\n      swap1\n      pop\n        /* \"#utility.yul\":18946:19070   */\n      swap2\n      swap1\n      pop\n      jump\t// out\n        /* \"#utility.yul\":19076:19175   */\n    tag_410:\n        /* \"#utility.yul\":19128:19134   */\n      0x00\n        /* \"#utility.yul\":19162:19167   */\n      dup2\n        /* \"#utility.yul\":19156:19168   */\n      mload\n        /* \"#utility.yul\":19146:19168   */\n      swap1\n      pop\n        /* \"#utility.yul\":19076:19175   */\n      swap2\n      swap1\n      pop\n      jump\t// out\n        /* \"#utility.yul\":19181:19304   */\n    tag_407:\n        /* \"#utility.yul\":19261:19265   */\n      0x00\n        /* \"#utility.yul\":19293:19297   */\n      0x20\n        /* \"#utility.yul\":19288:19291   */\n      dup3\n        /* \"#utility.yul\":19284:19298   */\n      add\n        /* \"#utility.yul\":19276:19298   */\n      swap1\n      pop\n        /* \"#utility.yul\":19181:19304   */\n      swap2\n      swap1\n      pop\n      jump\t// out\n        /* \"#utility.yul\":19310:19494   */\n    tag_399:\n        /* \"#utility.yul\":19409:19420   */\n      0x00\n        /* \"#utility.yul\":19443:19449   */\n      dup3\n        /* \"#utility.yul\":19438:19441   */\n      dup3\n        /* \"#utility.yul\":19431:19450   */\n      mstore\n        /* \"#utility.yul\":19483:19487   */\n      0x20\n        /* \"#utility.yul\":19478:19481   */\n      dup3\n        /* \"#utility.yul\":19474:19488   */\n      add\n        /* \"#utility.yul\":19459:19488   */\n      swap1\n      pop\n        /* \"#utility.yul\":19310:19494   */\n      swap3\n      swap2\n      pop\n      pop\n      jump\t// out\n        /* \"#utility.yul\":19500:19659   */\n    tag_412:\n        /* \"#utility.yul\":19574:19585   */\n      0x00\n        /* \"#utility.yul\":19608:19614   */\n      dup3\n        /* \"#utility.yul\":19603:19606   */\n      dup3\n        /* \"#utility.yul\":19596:19615   */\n      mstore\n        /* \"#utility.yul\":19648:19652   */\n      0x20\n        /* \"#utility.yul\":19643:19646   */\n      dup3\n        /* \"#utility.yul\":19639:19653   */\n      add\n        /* \"#utility.yul\":19624:19653   */\n      swap1\n      pop\n        /* \"#utility.yul\":19500:19659   */\n      swap3\n      swap2\n      pop\n      pop\n      jump\t// out\n        /* \"#utility.yul\":19665:19834   */\n    tag_421:\n        /* \"#utility.yul\":19749:19760   */\n      0x00\n        /* \"#utility.yul\":19783:19789   */\n      dup3\n        /* \"#utility.yul\":19778:19781   */\n      dup3\n        /* \"#utility.yul\":19771:19790   */\n      mstore\n        /* \"#utility.yul\":19823:19827   */\n      0x20\n        /* \"#utility.yul\":19818:19821   */\n      dup3\n        /* \"#utility.yul\":19814:19828   */\n      add\n        /* \"#utility.yul\":19799:19828   */\n      swap1\n      pop\n        /* \"#utility.yul\":19665:19834   */\n      swap3\n      swap2\n      pop\n      pop\n      jump\t// out\n        /* \"#utility.yul\":19840:19936   */\n    tag_393:\n        /* \"#utility.yul\":19877:19884   */\n      0x00\n        /* \"#utility.yul\":19906:19930   */\n      tag_488\n        /* \"#utility.yul\":19924:19929   */\n      dup3\n        /* \"#utility.yul\":19906:19930   */\n      tag_489\n      jump\t// in\n    tag_488:\n        /* \"#utility.yul\":19895:19930   */\n      swap1\n      pop\n        /* \"#utility.yul\":19840:19936   */\n      swap2\n      swap1\n      pop\n      jump\t// out\n        /* \"#utility.yul\":19942:20068   */\n    tag_489:\n        /* \"#utility.yul\":19979:19986   */\n      0x00\n        /* \"#utility.yul\":20019:20061   */\n      0xffffffffffffffffffffffffffffffffffffffff\n        /* \"#utility.yul\":20012:20017   */\n      dup3\n        /* \"#utility.yul\":20008:20062   */\n      and\n        /* \"#utility.yul\":19997:20062   */\n      swap1\n      pop\n        /* \"#utility.yul\":19942:20068   */\n      swap2\n      swap1\n      pop\n      jump\t// out\n        /* \"#utility.yul\":20074:20151   */\n    tag_450:\n        /* \"#utility.yul\":20111:20118   */\n      0x00\n        /* \"#utility.yul\":20140:20145   */\n      dup2\n        /* \"#utility.yul\":20129:20145   */\n      swap1\n      pop\n        /* \"#utility.yul\":20074:20151   */\n      swap2\n      swap1\n      pop\n      jump\t// out\n        /* \"#utility.yul\":20157:20311   */\n    tag_307:\n        /* \"#utility.yul\":20241:20247   */\n      dup3\n        /* \"#utility.yul\":20236:20239   */\n      dup2\n        /* \"#utility.yul\":20231:20234   */\n      dup4\n        /* \"#utility.yul\":20218:20248   */\n      calldatacopy\n        /* \"#utility.yul\":20303:20304   */\n      0x00\n        /* \"#utility.yul\":20294:20300   */\n      dup4\n        /* \"#utility.yul\":20289:20292   */\n      dup4\n        /* \"#utility.yul\":20285:20301   */\n      add\n        /* \"#utility.yul\":20278:20305   */\n      mstore\n        /* \"#utility.yul\":20157:20311   */\n      pop\n      pop\n      pop\n      jump\t// out\n        /* \"#utility.yul\":20317:20624   */\n    tag_414:\n        /* \"#utility.yul\":20385:20386   */\n      0x00\n        /* \"#utility.yul\":20395:20508   */\n    tag_494:\n        /* \"#utility.yul\":20409:20415   */\n      dup4\n        /* \"#utility.yul\":20406:20407   */\n      dup2\n        /* \"#utility.yul\":20403:20416   */\n      lt\n        /* \"#utility.yul\":20395:20508   */\n      iszero\n      tag_496\n      jumpi\n        /* \"#utility.yul\":20494:20495   */\n      dup1\n        /* \"#utility.yul\":20489:20492   */\n      dup3\n        /* \"#utility.yul\":20485:20496   */\n      add\n        /* \"#utility.yul\":20479:20497   */\n      mload\n        /* \"#utility.yul\":20475:20476   */\n      dup2\n        /* \"#utility.yul\":20470:20473   */\n      dup5\n        /* \"#utility.yul\":20466:20477   */\n      add\n        /* \"#utility.yul\":20459:20498   */\n      mstore\n        /* \"#utility.yul\":20431:20433   */\n      0x20\n        /* \"#utility.yul\":20428:20429   */\n      dup2\n        /* \"#utility.yul\":20424:20434   */\n      add\n        /* \"#utility.yul\":20419:20434   */\n      swap1\n      pop\n        /* \"#utility.yul\":20395:20508   */\n      jump(tag_494)\n    tag_496:\n        /* \"#utility.yul\":20526:20532   */\n      dup4\n        /* \"#utility.yul\":20523:20524   */\n      dup2\n        /* \"#utility.yul\":20520:20533   */\n      gt\n        /* \"#utility.yul\":20517:20618   */\n      iszero\n      tag_497\n      jumpi\n        /* \"#utility.yul\":20606:20607   */\n      0x00\n        /* \"#utility.yul\":20597:20603   */\n      dup5\n        /* \"#utility.yul\":20592:20595   */\n      dup5\n        /* \"#utility.yul\":20588:20604   */\n      add\n        /* \"#utility.yul\":20581:20608   */\n      mstore\n        /* \"#utility.yul\":20517:20618   */\n    tag_497:\n        /* \"#utility.yul\":20366:20624   */\n      pop\n        /* \"#utility.yul\":20317:20624   */\n      pop\n      pop\n      pop\n      jump\t// out\n        /* \"#utility.yul\":20630:20950   */\n    tag_99:\n        /* \"#utility.yul\":20674:20680   */\n      0x00\n        /* \"#utility.yul\":20711:20712   */\n      0x02\n        /* \"#utility.yul\":20705:20709   */\n      dup3\n        /* \"#utility.yul\":20701:20713   */\n      div\n        /* \"#utility.yul\":20691:20713   */\n      swap1\n      pop\n        /* \"#utility.yul\":20758:20759   */\n      0x01\n        /* \"#utility.yul\":20752:20756   */\n      dup3\n        /* \"#utility.yul\":20748:20760   */\n      and\n        /* \"#utility.yul\":20779:20797   */\n      dup1\n        /* \"#utility.yul\":20769:20850   */\n      tag_499\n      jumpi\n        /* \"#utility.yul\":20835:20839   */\n      0x7f\n        /* \"#utility.yul\":20827:20833   */\n      dup3\n        /* \"#utility.yul\":20823:20840   */\n      and\n        /* \"#utility.yul\":20813:20840   */\n      swap2\n      pop\n        /* \"#utility.yul\":20769:20850   */\n    tag_499:\n        /* \"#utility.yul\":20897:20899   */\n      0x20\n        /* \"#utility.yul\":20889:20895   */\n      dup3\n        /* \"#utility.yul\":20886:20900   */\n      lt\n        /* \"#utility.yul\":20866:20884   */\n      dup2\n        /* \"#utility.yul\":20863:20901   */\n      eq\n        /* \"#utility.yul\":20860:20944   */\n      iszero\n      tag_500\n      jumpi\n        /* \"#utility.yul\":20916:20934   */\n      tag_501\n      tag_502\n      jump\t// in\n    tag_501:\n        /* \"#utility.yul\":20860:20944   */\n    tag_500:\n        /* \"#utility.yul\":20681:20950   */\n      pop\n        /* \"#utility.yul\":20630:20950   */\n      swap2\n      swap1\n      pop\n      jump\t// out\n        /* \"#utility.yul\":20956:21237   */\n    tag_470:\n        /* \"#utility.yul\":21039:21066   */\n      tag_504\n        /* \"#utility.yul\":21061:21065   */\n      dup3\n        /* \"#utility.yul\":21039:21066   */\n      tag_416\n      jump\t// in\n    tag_504:\n        /* \"#utility.yul\":21031:21037   */\n      dup2\n        /* \"#utility.yul\":21027:21067   */\n      add\n        /* \"#utility.yul\":21169:21175   */\n      dup2\n        /* \"#utility.yul\":21157:21167   */\n      dup2\n        /* \"#utility.yul\":21154:21176   */\n      lt\n        /* \"#utility.yul\":21133:21151   */\n      0xffffffffffffffff\n        /* \"#utility.yul\":21121:21131   */\n      dup3\n        /* \"#utility.yul\":21118:21152   */\n      gt\n        /* \"#utility.yul\":21115:21177   */\n      or\n        /* \"#utility.yul\":21112:21200   */\n      iszero\n      tag_505\n      jumpi\n        /* \"#utility.yul\":21180:21198   */\n      tag_506\n      tag_475\n      jump\t// in\n    tag_506:\n        /* \"#utility.yul\":21112:21200   */\n    tag_505:\n        /* \"#utility.yul\":21220:21230   */\n      dup1\n        /* \"#utility.yul\":21216:21218   */\n      0x40\n        /* \"#utility.yul\":21209:21231   */\n      mstore\n        /* \"#utility.yul\":20999:21237   */\n      pop\n        /* \"#utility.yul\":20956:21237   */\n      pop\n      pop\n      jump\t// out\n        /* \"#utility.yul\":21243:21423   */\n    tag_502:\n        /* \"#utility.yul\":21291:21368   */\n      0x4e487b7100000000000000000000000000000000000000000000000000000000\n        /* \"#utility.yul\":21288:21289   */\n      0x00\n        /* \"#utility.yul\":21281:21369   */\n      mstore\n        /* \"#utility.yul\":21388:21392   */\n      0x22\n        /* \"#utility.yul\":21385:21386   */\n      0x04\n        /* \"#utility.yul\":21378:21393   */\n      mstore\n        /* \"#utility.yul\":21412:21416   */\n      0x24\n        /* \"#utility.yul\":21409:21410   */\n      0x00\n        /* \"#utility.yul\":21402:21417   */\n      revert\n        /* \"#utility.yul\":21429:21609   */\n    tag_189:\n        /* \"#utility.yul\":21477:21554   */\n      0x4e487b7100000000000000000000000000000000000000000000000000000000\n        /* \"#utility.yul\":21474:21475   */\n      0x00\n        /* \"#utility.yul\":21467:21555   */\n      mstore\n        /* \"#utility.yul\":21574:21578   */\n      0x32\n        /* \"#utility.yul\":21571:21572   */\n      0x04\n        /* \"#utility.yul\":21564:21579   */\n      mstore\n        /* \"#utility.yul\":21598:21602   */\n      0x24\n        /* \"#utility.yul\":21595:21596   */\n      0x00\n        /* \"#utility.yul\":21588:21603   */\n      revert\n        /* \"#utility.yul\":21615:21795   */\n    tag_475:\n        /* \"#utility.yul\":21663:21740   */\n      0x4e487b7100000000000000000000000000000000000000000000000000000000\n        /* \"#utility.yul\":21660:21661   */\n      0x00\n        /* \"#utility.yul\":21653:21741   */\n      mstore\n        /* \"#utility.yul\":21760:21764   */\n      0x41\n        /* \"#utility.yul\":21757:21758   */\n      0x04\n        /* \"#utility.yul\":21750:21765   */\n      mstore\n        /* \"#utility.yul\":21784:21788   */\n      0x24\n        /* \"#utility.yul\":21781:21782   */\n      0x00\n        /* \"#utility.yul\":21774:21789   */\n      revert\n        /* \"#utility.yul\":21801:21918   */\n    tag_295:\n        /* \"#utility.yul\":21910:21911   */\n      0x00\n        /* \"#utility.yul\":21907:21908   */\n      dup1\n        /* \"#utility.yul\":21900:21912   */\n      revert\n        /* \"#utility.yul\":21924:22041   */\n    tag_289:\n        /* \"#utility.yul\":22033:22034   */\n      0x00\n        /* \"#utility.yul\":22030:22031   */\n      dup1\n        /* \"#utility.yul\":22023:22035   */\n      revert\n        /* \"#utility.yul\":22047:22164   */\n    tag_305:\n        /* \"#utility.yul\":22156:22157   */\n      0x00\n        /* \"#utility.yul\":22153:22154   */\n      dup1\n        /* \"#utility.yul\":22146:22158   */\n      revert\n        /* \"#utility.yul\":22170:22287   */\n    tag_335:\n        /* \"#utility.yul\":22279:22280   */\n      0x00\n        /* \"#utility.yul\":22276:22277   */\n      dup1\n        /* \"#utility.yul\":22269:22281   */\n      revert\n        /* \"#utility.yul\":22293:22410   */\n    tag_328:\n        /* \"#utility.yul\":22402:22403   */\n      0x00\n        /* \"#utility.yul\":22399:22400   */\n      dup1\n        /* \"#utility.yul\":22392:22404   */\n      revert\n        /* \"#utility.yul\":22416:22518   */\n    tag_416:\n        /* \"#utility.yul\":22457:22463   */\n      0x00\n        /* \"#utility.yul\":22508:22510   */\n      0x1f\n        /* \"#utility.yul\":22504:22511   */\n      not\n        /* \"#utility.yul\":22499:22501   */\n      0x1f\n        /* \"#utility.yul\":22492:22497   */\n      dup4\n        /* \"#utility.yul\":22488:22502   */\n      add\n        /* \"#utility.yul\":22484:22512   */\n      and\n        /* \"#utility.yul\":22474:22512   */\n      swap1\n      pop\n        /* \"#utility.yul\":22416:22518   */\n      swap2\n      swap1\n      pop\n      jump\t// out\n        /* \"#utility.yul\":22524:22646   */\n    tag_311:\n        /* \"#utility.yul\":22597:22621   */\n      tag_517\n        /* \"#utility.yul\":22615:22620   */\n      dup2\n        /* \"#utility.yul\":22597:22621   */\n      tag_393\n      jump\t// in\n    tag_517:\n        /* \"#utility.yul\":22590:22595   */\n      dup2\n        /* \"#utility.yul\":22587:22622   */\n      eq\n        /* \"#utility.yul\":22577:22640   */\n      tag_518\n      jumpi\n        /* \"#utility.yul\":22636:22637   */\n      0x00\n        /* \"#utility.yul\":22633:22634   */\n      dup1\n        /* \"#utility.yul\":22626:22638   */\n      revert\n        /* \"#utility.yul\":22577:22640   */\n    tag_518:\n        /* \"#utility.yul\":22524:22646   */\n      pop\n      jump\t// out\n        /* \"#utility.yul\":22652:22774   */\n    tag_324:\n        /* \"#utility.yul\":22725:22749   */\n      tag_520\n        /* \"#utility.yul\":22743:22748   */\n      dup2\n        /* \"#utility.yul\":22725:22749   */\n      tag_450\n      jump\t// in\n    tag_520:\n        /* \"#utility.yul\":22718:22723   */\n      dup2\n        /* \"#utility.yul\":22715:22750   */\n      eq\n        /* \"#utility.yul\":22705:22768   */\n      tag_521\n      jumpi\n        /* \"#utility.yul\":22764:22765   */\n      0x00\n        /* \"#utility.yul\":22761:22762   */\n      dup1\n        /* \"#utility.yul\":22754:22766   */\n      revert\n        /* \"#utility.yul\":22705:22768   */\n    tag_521:\n        /* \"#utility.yul\":22652:22774   */\n      pop\n      jump\t// out\n\n    auxdata: 0xa2646970667358221220d7c05d3825211e9d9b90e88ee46639bd6689a9afb1c1f45cea3837b88e2b669564736f6c63430008070033\n}\n",
				"bytecode": {
					"linkReferences": {},
					"object": "608060405234801561001057600080fd5b5061292f806100206000396000f3fe608060405234801561001057600080fd5b506004361061009e5760003560e01c806395ea37571161006657806395ea3757146101315780639dd9d0fd1461013b578063ed2217ef1461016d578063f96e32f814610177578063fabce08f146101ab5761009e565b80633d984d0e146100a35780636212fa02146100bf57806366244dfb146100dd57806372828388146100f9578063958791ae14610115575b600080fd5b6100bd60048036038101906100b89190611f59565b6101b5565b005b6100c7610339565b6040516100d49190612630565b60405180910390f35b6100f760048036038101906100f29190612000565b610385565b005b610113600480360381019061010e9190612000565b6104c0565b005b61012f600480360381019061012a9190612107565b610728565b005b610139610a12565b005b61015560048036038101906101509190611f2c565b610ae7565b604051610164939291906125e4565b60405180910390f35b6101756114f3565b005b610191600480360381019061018c919061223c565b611542565b6040516101a295949392919061256e565b60405180910390f35b6101b3611a0d565b005b6000803373ffffffffffffffffffffffffffffffffffffffff1673ffffffffffffffffffffffffffffffffffffffff168152602001908152602001600020600e01600080820160006102079190611b94565b6001820160006102179190611b94565b6002820160006102279190611b94565b5050826000803373ffffffffffffffffffffffffffffffffffffffff1673ffffffffffffffffffffffffffffffffffffffff168152602001908152602001600020600e016000019080519060200190610281929190611bb5565b50816000803373ffffffffffffffffffffffffffffffffffffffff1673ffffffffffffffffffffffffffffffffffffffff168152602001908152602001600020600e0160010190805190602001906102da929190611bb5565b50806000803373ffffffffffffffffffffffffffffffffffffffff1673ffffffffffffffffffffffffffffffffffffffff168152602001908152602001600020600e016002019080519060200190610333929190611bb5565b50505050565b60008060003373ffffffffffffffffffffffffffffffffffffffff1673ffffffffffffffffffffffffffffffffffffffff16815260200190815260200160002060110180549050905090565b61038d611c15565b8581600001819052508481602001819052508381604001819052508281606001819052508181608001819052506000803373ffffffffffffffffffffffffffffffffffffffff1673ffffffffffffffffffffffffffffffffffffffff1681526020019081526020016000206011018190806001815401808255809150506001900390600052602060002090600502016000909190919091506000820151816000019080519060200190610441929190611c44565b50602082015181600101908051906020019061045e929190611c44565b50604082015181600201908051906020019061047b929190611c44565b506060820151816003019080519060200190610498929190611c44565b5060808201518160040190805190602001906104b5929190611c44565b505050505050505050565b6000803373ffffffffffffffffffffffffffffffffffffffff1673ffffffffffffffffffffffffffffffffffffffff168152602001908152602001600020600801600080820160006105129190611cca565b6001820160006105229190611cca565b6002820160006105329190611cca565b6003820160006105429190611cca565b6004820160006105529190611cca565b6005820160006105629190611cca565b5050846000803373ffffffffffffffffffffffffffffffffffffffff1673ffffffffffffffffffffffffffffffffffffffff16815260200190815260200160002060080160010190805190602001906105bc929190611c44565b50836000803373ffffffffffffffffffffffffffffffffffffffff1673ffffffffffffffffffffffffffffffffffffffff1681526020019081526020016000206008016002019080519060200190610615929190611c44565b50826000803373ffffffffffffffffffffffffffffffffffffffff1673ffffffffffffffffffffffffffffffffffffffff168152602001908152602001600020600801600301908051906020019061066e929190611c44565b50816000803373ffffffffffffffffffffffffffffffffffffffff1673ffffffffffffffffffffffffffffffffffffffff16815260200190815260200160002060080160020190805190602001906106c7929190611c44565b50806000803373ffffffffffffffffffffffffffffffffffffffff1673ffffffffffffffffffffffffffffffffffffffff1681526020019081526020016000206008016001019080519060200190610720929190611c44565b505050505050565b856000803373ffffffffffffffffffffffffffffffffffffffff1673ffffffffffffffffffffffffffffffffffffffff1681526020019081526020016000206000016003019080519060200190610780929190611c44565b50846000803373ffffffffffffffffffffffffffffffffffffffff1673ffffffffffffffffffffffffffffffffffffffff16815260200190815260200160002060000160040190805190602001906107d9929190611c44565b50836000803373ffffffffffffffffffffffffffffffffffffffff1673ffffffffffffffffffffffffffffffffffffffff1681526020019081526020016000206000016005019080519060200190610832929190611c44565b50826000803373ffffffffffffffffffffffffffffffffffffffff1673ffffffffffffffffffffffffffffffffffffffff168152602001908152602001600020600001600601908051906020019061088b929190611c44565b50816000803373ffffffffffffffffffffffffffffffffffffffff1673ffffffffffffffffffffffffffffffffffffffff16815260200190815260200160002060000160000190805190602001906108e4929190611c44565b50806000803373ffffffffffffffffffffffffffffffffffffffff1673ffffffffffffffffffffffffffffffffffffffff168152602001908152602001600020600001600101908051906020019061093d929190611c44565b50336000803373ffffffffffffffffffffffffffffffffffffffff1673ffffffffffffffffffffffffffffffffffffffff16815260200190815260200160002060000160020160006101000a81548173ffffffffffffffffffffffffffffffffffffffff021916908373ffffffffffffffffffffffffffffffffffffffff160217905550426000803373ffffffffffffffffffffffffffffffffffffffff1673ffffffffffffffffffffffffffffffffffffffff16815260200190815260200160002060000160070181905550505050505050565b6000803373ffffffffffffffffffffffffffffffffffffffff1673ffffffffffffffffffffffffffffffffffffffff16815260200190815260200160002060000160008082016000610a649190611cca565b600182016000610a749190611cca565b6002820160006101000a81549073ffffffffffffffffffffffffffffffffffffffff0219169055600382016000610aab9190611cca565b600482016000610abb9190611cca565b600582016000610acb9190611cca565b600682016000610adb9190611cca565b60078201600090555050565b60006020528060005260406000206000915090508060000160405180610100016040529081600082018054610b1b906127b1565b80601f0160208091040260200160405190810160405280929190818152602001828054610b47906127b1565b8015610b945780601f10610b6957610100808354040283529160200191610b94565b820191906000526020600020905b815481529060010190602001808311610b7757829003601f168201915b50505050508152602001600182018054610bad906127b1565b80601f0160208091040260200160405190810160405280929190818152602001828054610bd9906127b1565b8015610c265780601f10610bfb57610100808354040283529160200191610c26565b820191906000526020600020905b815481529060010190602001808311610c0957829003601f168201915b505050505081526020016002820160009054906101000a900473ffffffffffffffffffffffffffffffffffffffff1673ffffffffffffffffffffffffffffffffffffffff1673ffffffffffffffffffffffffffffffffffffffff168152602001600382018054610c95906127b1565b80601f0160208091040260200160405190810160405280929190818152602001828054610cc1906127b1565b8015610d0e5780601f10610ce357610100808354040283529160200191610d0e565b820191906000526020600020905b815481529060010190602001808311610cf157829003601f168201915b50505050508152602001600482018054610d27906127b1565b80601f0160208091040260200160405190810160405280929190818152602001828054610d53906127b1565b8015610da05780601f10610d7557610100808354040283529160200191610da0565b820191906000526020600020905b815481529060010190602001808311610d8357829003601f168201915b50505050508152602001600582018054610db9906127b1565b80601f0160208091040260200160405190810160405280929190818152602001828054610de5906127b1565b8015610e325780601f10610e0757610100808354040283529160200191610e32565b820191906000526020600020905b815481529060010190602001808311610e1557829003601f168201915b50505050508152602001600682018054610e4b906127b1565b80601f0160208091040260200160405190810160405280929190818152602001828054610e77906127b1565b8015610ec45780601f10610e9957610100808354040283529160200191610ec4565b820191906000526020600020905b815481529060010190602001808311610ea757829003601f168201915b5050505050815260200160078201548152505090806008016040518060c0016040529081600082018054610ef7906127b1565b80601f0160208091040260200160405190810160405280929190818152602001828054610f23906127b1565b8015610f705780601f10610f4557610100808354040283529160200191610f70565b820191906000526020600020905b815481529060010190602001808311610f5357829003601f168201915b50505050508152602001600182018054610f89906127b1565b80601f0160208091040260200160405190810160405280929190818152602001828054610fb5906127b1565b80156110025780601f10610fd757610100808354040283529160200191611002565b820191906000526020600020905b815481529060010190602001808311610fe557829003601f168201915b5050505050815260200160028201805461101b906127b1565b80601f0160208091040260200160405190810160405280929190818152602001828054611047906127b1565b80156110945780601f1061106957610100808354040283529160200191611094565b820191906000526020600020905b81548152906001019060200180831161107757829003601f168201915b505050505081526020016003820180546110ad906127b1565b80601f01602080910402602001604051908101604052809291908181526020018280546110d9906127b1565b80156111265780601f106110fb57610100808354040283529160200191611126565b820191906000526020600020905b81548152906001019060200180831161110957829003601f168201915b5050505050815260200160048201805461113f906127b1565b80601f016020809104026020016040519081016040528092919081815260200182805461116b906127b1565b80156111b85780601f1061118d576101008083540402835291602001916111b8565b820191906000526020600020905b81548152906001019060200180831161119b57829003601f168201915b505050505081526020016005820180546111d1906127b1565b80601f01602080910402602001604051908101604052809291908181526020018280546111fd906127b1565b801561124a5780601f1061121f5761010080835404028352916020019161124a565b820191906000526020600020905b81548152906001019060200180831161122d57829003601f168201915b5050505050815250509080600e0160405180606001604052908160008201805480602002602001604051908101604052809291908181526020016000905b828210156113345783829060005260206000200180546112a7906127b1565b80601f01602080910402602001604051908101604052809291908181526020018280546112d3906127b1565b80156113205780601f106112f557610100808354040283529160200191611320565b820191906000526020600020905b81548152906001019060200180831161130357829003601f168201915b505050505081526020019060010190611288565b50505050815260200160018201805480602002602001604051908101604052809291908181526020016000905b8282101561140d578382906000526020600020018054611380906127b1565b80601f01602080910402602001604051908101604052809291908181526020018280546113ac906127b1565b80156113f95780601f106113ce576101008083540402835291602001916113f9565b820191906000526020600020905b8154815290600101906020018083116113dc57829003601f168201915b505050505081526020019060010190611361565b50505050815260200160028201805480602002602001604051908101604052809291908181526020016000905b828210156114e6578382906000526020600020018054611459906127b1565b80601f0160208091040260200160405190810160405280929190818152602001828054611485906127b1565b80156114d25780601f106114a7576101008083540402835291602001916114d2565b820191906000526020600020905b8154815290600101906020018083116114b557829003601f168201915b50505050508152602001906001019061143a565b5050505081525050905083565b6000803373ffffffffffffffffffffffffffffffffffffffff1673ffffffffffffffffffffffffffffffffffffffff16815260200190815260200160002060110160006115409190611d0a565b565b60608060608060606000803373ffffffffffffffffffffffffffffffffffffffff1673ffffffffffffffffffffffffffffffffffffffff168152602001908152602001600020601101868154811061159d5761159c612843565b5b90600052602060002090600502016000016000803373ffffffffffffffffffffffffffffffffffffffff1673ffffffffffffffffffffffffffffffffffffffff168152602001908152602001600020601101878154811061160157611600612843565b5b90600052602060002090600502016001016000803373ffffffffffffffffffffffffffffffffffffffff1673ffffffffffffffffffffffffffffffffffffffff168152602001908152602001600020601101888154811061166557611664612843565b5b90600052602060002090600502016002016000803373ffffffffffffffffffffffffffffffffffffffff1673ffffffffffffffffffffffffffffffffffffffff16815260200190815260200160002060110189815481106116c9576116c8612843565b5b90600052602060002090600502016003016000803373ffffffffffffffffffffffffffffffffffffffff1673ffffffffffffffffffffffffffffffffffffffff1681526020019081526020016000206011018a8154811061172d5761172c612843565b5b906000526020600020906005020160040184805461174a906127b1565b80601f0160208091040260200160405190810160405280929190818152602001828054611776906127b1565b80156117c35780601f10611798576101008083540402835291602001916117c3565b820191906000526020600020905b8154815290600101906020018083116117a657829003601f168201915b505050505094508380546117d6906127b1565b80601f0160208091040260200160405190810160405280929190818152602001828054611802906127b1565b801561184f5780601f106118245761010080835404028352916020019161184f565b820191906000526020600020905b81548152906001019060200180831161183257829003601f168201915b50505050509350828054611862906127b1565b80601f016020809104026020016040519081016040528092919081815260200182805461188e906127b1565b80156118db5780601f106118b0576101008083540402835291602001916118db565b820191906000526020600020905b8154815290600101906020018083116118be57829003601f168201915b505050505092508180546118ee906127b1565b80601f016020809104026020016040519081016040528092919081815260200182805461191a906127b1565b80156119675780601f1061193c57610100808354040283529160200191611967565b820191906000526020600020905b81548152906001019060200180831161194a57829003601f168201915b5050505050915080805461197a906127b1565b80601f01602080910402602001604051908101604052809291908181526020018280546119a6906127b1565b80156119f35780601f106119c8576101008083540402835291602001916119f3565b820191906000526020600020905b8154815290600101906020018083116119d657829003601f168201915b505050505090509450945094509450945091939590929450565b6000803373ffffffffffffffffffffffffffffffffffffffff1673ffffffffffffffffffffffffffffffffffffffff168152602001908152602001600020600080820160008082016000611a619190611cca565b600182016000611a719190611cca565b6002820160006101000a81549073ffffffffffffffffffffffffffffffffffffffff0219169055600382016000611aa89190611cca565b600482016000611ab89190611cca565b600582016000611ac89190611cca565b600682016000611ad89190611cca565b600782016000905550506008820160008082016000611af79190611cca565b600182016000611b079190611cca565b600282016000611b179190611cca565b600382016000611b279190611cca565b600482016000611b379190611cca565b600582016000611b479190611cca565b5050600e820160008082016000611b5e9190611b94565b600182016000611b6e9190611b94565b600282016000611b7e9190611b94565b5050601182016000611b909190611d0a565b5050565b5080546000825590600052602060002090810190611bb29190611d2e565b50565b828054828255906000526020600020908101928215611c04579160200282015b82811115611c03578251829080519060200190611bf3929190611c44565b5091602001919060010190611bd5565b5b509050611c119190611d2e565b5090565b6040518060a0016040528060608152602001606081526020016060815260200160608152602001606081525090565b828054611c50906127b1565b90600052602060002090601f016020900481019282611c725760008555611cb9565b82601f10611c8b57805160ff1916838001178555611cb9565b82800160010185558215611cb9579182015b82811115611cb8578251825591602001919060010190611c9d565b5b509050611cc69190611d52565b5090565b508054611cd6906127b1565b6000825580601f10611ce85750611d07565b601f016020900490600052602060002090810190611d069190611d52565b5b50565b5080546000825560050290600052602060002090810190611d2b9190611d6f565b50565b5b80821115611d4e5760008181611d459190611cca565b50600101611d2f565b5090565b5b80821115611d6b576000816000905550600101611d53565b5090565b5b80821115611dd25760008082016000611d899190611cca565b600182016000611d999190611cca565b600282016000611da99190611cca565b600382016000611db99190611cca565b600482016000611dc99190611cca565b50600501611d70565b5090565b6000611de9611de484612670565b61264b565b90508083825260208201905082856020860282011115611e0c57611e0b6128a6565b5b60005b85811015611e5a57813567ffffffffffffffff811115611e3257611e316128a1565b5b808601611e3f8982611ee9565b85526020850194506020840193505050600181019050611e0f565b5050509392505050565b6000611e77611e728461269c565b61264b565b905082815260208101848484011115611e9357611e926128ab565b5b611e9e84828561276f565b509392505050565b600081359050611eb5816128cb565b92915050565b600082601f830112611ed057611ecf6128a1565b5b8135611ee0848260208601611dd6565b91505092915050565b600082601f830112611efe57611efd6128a1565b5b8135611f0e848260208601611e64565b91505092915050565b600081359050611f26816128e2565b92915050565b600060208284031215611f4257611f416128b5565b5b6000611f5084828501611ea6565b91505092915050565b600080600060608486031215611f7257611f716128b5565b5b600084013567ffffffffffffffff811115611f9057611f8f6128b0565b5b611f9c86828701611ebb565b935050602084013567ffffffffffffffff811115611fbd57611fbc6128b0565b5b611fc986828701611ebb565b925050604084013567ffffffffffffffff811115611fea57611fe96128b0565b5b611ff686828701611ebb565b9150509250925092565b600080600080600060a0868803121561201c5761201b6128b5565b5b600086013567ffffffffffffffff81111561203a576120396128b0565b5b61204688828901611ee9565b955050602086013567ffffffffffffffff811115612067576120666128b0565b5b61207388828901611ee9565b945050604086013567ffffffffffffffff811115612094576120936128b0565b5b6120a088828901611ee9565b935050606086013567ffffffffffffffff8111156120c1576120c06128b0565b5b6120cd88828901611ee9565b925050608086013567ffffffffffffffff8111156120ee576120ed6128b0565b5b6120fa88828901611ee9565b9150509295509295909350565b60008060008060008060c08789031215612124576121236128b5565b5b600087013567ffffffffffffffff811115612142576121416128b0565b5b61214e89828a01611ee9565b965050602087013567ffffffffffffffff81111561216f5761216e6128b0565b5b61217b89828a01611ee9565b955050604087013567ffffffffffffffff81111561219c5761219b6128b0565b5b6121a889828a01611ee9565b945050606087013567ffffffffffffffff8111156121c9576121c86128b0565b5b6121d589828a01611ee9565b935050608087013567ffffffffffffffff8111156121f6576121f56128b0565b5b61220289828a01611ee9565b92505060a087013567ffffffffffffffff811115612223576122226128b0565b5b61222f89828a01611ee9565b9150509295509295509295565b600060208284031215612252576122516128b5565b5b600061226084828501611f17565b91505092915050565b60006122758383612301565b905092915050565b61228681612733565b82525050565b6000612297826126dd565b6122a18185612700565b9350836020820285016122b3856126cd565b8060005b858110156122ef57848403895281516122d08582612269565b94506122db836126f3565b925060208a019950506001810190506122b7565b50829750879550505050505092915050565b600061230c826126e8565b6123168185612711565b935061232681856020860161277e565b61232f816128ba565b840191505092915050565b6000612345826126e8565b61234f8185612722565b935061235f81856020860161277e565b612368816128ba565b840191505092915050565b600060c08301600083015184820360008601526123908282612301565b915050602083015184820360208601526123aa8282612301565b915050604083015184820360408601526123c48282612301565b915050606083015184820360608601526123de8282612301565b915050608083015184820360808601526123f88282612301565b91505060a083015184820360a08601526124128282612301565b9150508091505092915050565b600061010083016000830151848203600086015261243d8282612301565b915050602083015184820360208601526124578282612301565b915050604083015161246c604086018261227d565b50606083015184820360608601526124848282612301565b9150506080830151848203608086015261249e8282612301565b91505060a083015184820360a08601526124b88282612301565b91505060c083015184820360c08601526124d28282612301565b91505060e08301516124e760e0860182612550565b508091505092915050565b6000606083016000830151848203600086015261250f828261228c565b91505060208301518482036020860152612529828261228c565b91505060408301518482036040860152612543828261228c565b9150508091505092915050565b61255981612765565b82525050565b61256881612765565b82525050565b600060a0820190508181036000830152612588818861233a565b9050818103602083015261259c818761233a565b905081810360408301526125b0818661233a565b905081810360608301526125c4818561233a565b905081810360808301526125d8818461233a565b90509695505050505050565b600060608201905081810360008301526125fe818661241f565b905081810360208301526126128185612373565b9050818103604083015261262681846124f2565b9050949350505050565b6000602082019050612645600083018461255f565b92915050565b6000612655612666565b905061266182826127e3565b919050565b6000604051905090565b600067ffffffffffffffff82111561268b5761268a612872565b5b602082029050602081019050919050565b600067ffffffffffffffff8211156126b7576126b6612872565b5b6126c0826128ba565b9050602081019050919050565b6000819050602082019050919050565b600081519050919050565b600081519050919050565b6000602082019050919050565b600082825260208201905092915050565b600082825260208201905092915050565b600082825260208201905092915050565b600061273e82612745565b9050919050565b600073ffffffffffffffffffffffffffffffffffffffff82169050919050565b6000819050919050565b82818337600083830152505050565b60005b8381101561279c578082015181840152602081019050612781565b838111156127ab576000848401525b50505050565b600060028204905060018216806127c957607f821691505b602082108114156127dd576127dc612814565b5b50919050565b6127ec826128ba565b810181811067ffffffffffffffff8211171561280b5761280a612872565b5b80604052505050565b7f4e487b7100000000000000000000000000000000000000000000000000000000600052602260045260246000fd5b7f4e487b7100000000000000000000000000000000000000000000000000000000600052603260045260246000fd5b7f4e487b7100000000000000000000000000000000000000000000000000000000600052604160045260246000fd5b600080fd5b600080fd5b600080fd5b600080fd5b600080fd5b6000601f19601f8301169050919050565b6128d481612733565b81146128df57600080fd5b50565b6128eb81612765565b81146128f657600080fd5b5056fea2646970667358221220d7c05d3825211e9d9b90e88ee46639bd6689a9afb1c1f45cea3837b88e2b669564736f6c63430008070033",
					"opcodes": "PUSH1 0x80 PUSH1 0x40 MSTORE CALLVALUE DUP1 ISZERO PUSH2 0x10 JUMPI PUSH1 0x0 DUP1 REVERT JUMPDEST POP PUSH2 0x292F DUP1 PUSH2 0x20 PUSH1 0x0 CODECOPY PUSH1 0x0 RETURN INVALID PUSH1 0x80 PUSH1 0x40 MSTORE CALLVALUE DUP1 ISZERO PUSH2 0x10 JUMPI PUSH1 0x0 DUP1 REVERT JUMPDEST POP PUSH1 0x4 CALLDATASIZE LT PUSH2 0x9E JUMPI PUSH1 0x0 CALLDATALOAD PUSH1 0xE0 SHR DUP1 PUSH4 0x95EA3757 GT PUSH2 0x66 JUMPI DUP1 PUSH4 0x95EA3757 EQ PUSH2 0x131 JUMPI DUP1 PUSH4 0x9DD9D0FD EQ PUSH2 0x13B JUMPI DUP1 PUSH4 0xED2217EF EQ PUSH2 0x16D JUMPI DUP1 PUSH4 0xF96E32F8 EQ PUSH2 0x177 JUMPI DUP1 PUSH4 0xFABCE08F EQ PUSH2 0x1AB JUMPI PUSH2 0x9E JUMP JUMPDEST DUP1 PUSH4 0x3D984D0E EQ PUSH2 0xA3 JUMPI DUP1 PUSH4 0x6212FA02 EQ PUSH2 0xBF JUMPI DUP1 PUSH4 0x66244DFB EQ PUSH2 0xDD JUMPI DUP1 PUSH4 0x72828388 EQ PUSH2 0xF9 JUMPI DUP1 PUSH4 0x958791AE EQ PUSH2 0x115 JUMPI JUMPDEST PUSH1 0x0 DUP1 REVERT JUMPDEST PUSH2 0xBD PUSH1 0x4 DUP1 CALLDATASIZE SUB DUP2 ADD SWAP1 PUSH2 0xB8 SWAP2 SWAP1 PUSH2 0x1F59 JUMP JUMPDEST PUSH2 0x1B5 JUMP JUMPDEST STOP JUMPDEST PUSH2 0xC7 PUSH2 0x339 JUMP JUMPDEST PUSH1 0x40 MLOAD PUSH2 0xD4 SWAP2 SWAP1 PUSH2 0x2630 JUMP JUMPDEST PUSH1 0x40 MLOAD DUP1 SWAP2 SUB SWAP1 RETURN JUMPDEST PUSH2 0xF7 PUSH1 0x4 DUP1 CALLDATASIZE SUB DUP2 ADD SWAP1 PUSH2 0xF2 SWAP2 SWAP1 PUSH2 0x2000 JUMP JUMPDEST PUSH2 0x385 JUMP JUMPDEST STOP JUMPDEST PUSH2 0x113 PUSH1 0x4 DUP1 CALLDATASIZE SUB DUP2 ADD SWAP1 PUSH2 0x10E SWAP2 SWAP1 PUSH2 0x2000 JUMP JUMPDEST PUSH2 0x4C0 JUMP JUMPDEST STOP JUMPDEST PUSH2 0x12F PUSH1 0x4 DUP1 CALLDATASIZE SUB DUP2 ADD SWAP1 PUSH2 0x12A SWAP2 SWAP1 PUSH2 0x2107 JUMP JUMPDEST PUSH2 0x728 JUMP JUMPDEST STOP JUMPDEST PUSH2 0x139 PUSH2 0xA12 JUMP JUMPDEST STOP JUMPDEST PUSH2 0x155 PUSH1 0x4 DUP1 CALLDATASIZE SUB DUP2 ADD SWAP1 PUSH2 0x150 SWAP2 SWAP1 PUSH2 0x1F2C JUMP JUMPDEST PUSH2 0xAE7 JUMP JUMPDEST PUSH1 0x40 MLOAD PUSH2 0x164 SWAP4 SWAP3 SWAP2 SWAP1 PUSH2 0x25E4 JUMP JUMPDEST PUSH1 0x40 MLOAD DUP1 SWAP2 SUB SWAP1 RETURN JUMPDEST PUSH2 0x175 PUSH2 0x14F3 JUMP JUMPDEST STOP JUMPDEST PUSH2 0x191 PUSH1 0x4 DUP1 CALLDATASIZE SUB DUP2 ADD SWAP1 PUSH2 0x18C SWAP2 SWAP1 PUSH2 0x223C JUMP JUMPDEST PUSH2 0x1542 JUMP JUMPDEST PUSH1 0x40 MLOAD PUSH2 0x1A2 SWAP6 SWAP5 SWAP4 SWAP3 SWAP2 SWAP1 PUSH2 0x256E JUMP JUMPDEST PUSH1 0x40 MLOAD DUP1 SWAP2 SUB SWAP1 RETURN JUMPDEST PUSH2 0x1B3 PUSH2 0x1A0D JUMP JUMPDEST STOP JUMPDEST PUSH1 0x0 DUP1 CALLER PUSH20 0xFFFFFFFFFFFFFFFFFFFFFFFFFFFFFFFFFFFFFFFF AND PUSH20 0xFFFFFFFFFFFFFFFFFFFFFFFFFFFFFFFFFFFFFFFF AND DUP2 MSTORE PUSH1 0x20 ADD SWAP1 DUP2 MSTORE PUSH1 0x20 ADD PUSH1 0x0 KECCAK256 PUSH1 0xE ADD PUSH1 0x0 DUP1 DUP3 ADD PUSH1 0x0 PUSH2 0x207 SWAP2 SWAP1 PUSH2 0x1B94 JUMP JUMPDEST PUSH1 0x1 DUP3 ADD PUSH1 0x0 PUSH2 0x217 SWAP2 SWAP1 PUSH2 0x1B94 JUMP JUMPDEST PUSH1 0x2 DUP3 ADD PUSH1 0x0 PUSH2 0x227 SWAP2 SWAP1 PUSH2 0x1B94 JUMP JUMPDEST POP POP DUP3 PUSH1 0x0 DUP1 CALLER PUSH20 0xFFFFFFFFFFFFFFFFFFFFFFFFFFFFFFFFFFFFFFFF AND PUSH20 0xFFFFFFFFFFFFFFFFFFFFFFFFFFFFFFFFFFFFFFFF AND DUP2 MSTORE PUSH1 0x20 ADD SWAP1 DUP2 MSTORE PUSH1 0x20 ADD PUSH1 0x0 KECCAK256 PUSH1 0xE ADD PUSH1 0x0 ADD SWAP1 DUP1 MLOAD SWAP1 PUSH1 0x20 ADD SWAP1 PUSH2 0x281 SWAP3 SWAP2 SWAP1 PUSH2 0x1BB5 JUMP JUMPDEST POP DUP2 PUSH1 0x0 DUP1 CALLER PUSH20 0xFFFFFFFFFFFFFFFFFFFFFFFFFFFFFFFFFFFFFFFF AND PUSH20 0xFFFFFFFFFFFFFFFFFFFFFFFFFFFFFFFFFFFFFFFF AND DUP2 MSTORE PUSH1 0x20 ADD SWAP1 DUP2 MSTORE PUSH1 0x20 ADD PUSH1 0x0 KECCAK256 PUSH1 0xE ADD PUSH1 0x1 ADD SWAP1 DUP1 MLOAD SWAP1 PUSH1 0x20 ADD SWAP1 PUSH2 0x2DA SWAP3 SWAP2 SWAP1 PUSH2 0x1BB5 JUMP JUMPDEST POP DUP1 PUSH1 0x0 DUP1 CALLER PUSH20 0xFFFFFFFFFFFFFFFFFFFFFFFFFFFFFFFFFFFFFFFF AND PUSH20 0xFFFFFFFFFFFFFFFFFFFFFFFFFFFFFFFFFFFFFFFF AND DUP2 MSTORE PUSH1 0x20 ADD SWAP1 DUP2 MSTORE PUSH1 0x20 ADD PUSH1 0x0 KECCAK256 PUSH1 0xE ADD PUSH1 0x2 ADD SWAP1 DUP1 MLOAD SWAP1 PUSH1 0x20 ADD SWAP1 PUSH2 0x333 SWAP3 SWAP2 SWAP1 PUSH2 0x1BB5 JUMP JUMPDEST POP POP POP POP JUMP JUMPDEST PUSH1 0x0 DUP1 PUSH1 0x0 CALLER PUSH20 0xFFFFFFFFFFFFFFFFFFFFFFFFFFFFFFFFFFFFFFFF AND PUSH20 0xFFFFFFFFFFFFFFFFFFFFFFFFFFFFFFFFFFFFFFFF AND DUP2 MSTORE PUSH1 0x20 ADD SWAP1 DUP2 MSTORE PUSH1 0x20 ADD PUSH1 0x0 KECCAK256 PUSH1 0x11 ADD DUP1 SLOAD SWAP1 POP SWAP1 POP SWAP1 JUMP JUMPDEST PUSH2 0x38D PUSH2 0x1C15 JUMP JUMPDEST DUP6 DUP2 PUSH1 0x0 ADD DUP2 SWAP1 MSTORE POP DUP5 DUP2 PUSH1 0x20 ADD DUP2 SWAP1 MSTORE POP DUP4 DUP2 PUSH1 0x40 ADD DUP2 SWAP1 MSTORE POP DUP3 DUP2 PUSH1 0x60 ADD DUP2 SWAP1 MSTORE POP DUP2 DUP2 PUSH1 0x80 ADD DUP2 SWAP1 MSTORE POP PUSH1 0x0 DUP1 CALLER PUSH20 0xFFFFFFFFFFFFFFFFFFFFFFFFFFFFFFFFFFFFFFFF AND PUSH20 0xFFFFFFFFFFFFFFFFFFFFFFFFFFFFFFFFFFFFFFFF AND DUP2 MSTORE PUSH1 0x20 ADD SWAP1 DUP2 MSTORE PUSH1 0x20 ADD PUSH1 0x0 KECCAK256 PUSH1 0x11 ADD DUP2 SWAP1 DUP1 PUSH1 0x1 DUP2 SLOAD ADD DUP1 DUP3 SSTORE DUP1 SWAP2 POP POP PUSH1 0x1 SWAP1 SUB SWAP1 PUSH1 0x0 MSTORE PUSH1 0x20 PUSH1 0x0 KECCAK256 SWAP1 PUSH1 0x5 MUL ADD PUSH1 0x0 SWAP1 SWAP2 SWAP1 SWAP2 SWAP1 SWAP2 POP PUSH1 0x0 DUP3 ADD MLOAD DUP2 PUSH1 0x0 ADD SWAP1 DUP1 MLOAD SWAP1 PUSH1 0x20 ADD SWAP1 PUSH2 0x441 SWAP3 SWAP2 SWAP1 PUSH2 0x1C44 JUMP JUMPDEST POP PUSH1 0x20 DUP3 ADD MLOAD DUP2 PUSH1 0x1 ADD SWAP1 DUP1 MLOAD SWAP1 PUSH1 0x20 ADD SWAP1 PUSH2 0x45E SWAP3 SWAP2 SWAP1 PUSH2 0x1C44 JUMP JUMPDEST POP PUSH1 0x40 DUP3 ADD MLOAD DUP2 PUSH1 0x2 ADD SWAP1 DUP1 MLOAD SWAP1 PUSH1 0x20 ADD SWAP1 PUSH2 0x47B SWAP3 SWAP2 SWAP1 PUSH2 0x1C44 JUMP JUMPDEST POP PUSH1 0x60 DUP3 ADD MLOAD DUP2 PUSH1 0x3 ADD SWAP1 DUP1 MLOAD SWAP1 PUSH1 0x20 ADD SWAP1 PUSH2 0x498 SWAP3 SWAP2 SWAP1 PUSH2 0x1C44 JUMP JUMPDEST POP PUSH1 0x80 DUP3 ADD MLOAD DUP2 PUSH1 0x4 ADD SWAP1 DUP1 MLOAD SWAP1 PUSH1 0x20 ADD SWAP1 PUSH2 0x4B5 SWAP3 SWAP2 SWAP1 PUSH2 0x1C44 JUMP JUMPDEST POP POP POP POP POP POP POP POP POP JUMP JUMPDEST PUSH1 0x0 DUP1 CALLER PUSH20 0xFFFFFFFFFFFFFFFFFFFFFFFFFFFFFFFFFFFFFFFF AND PUSH20 0xFFFFFFFFFFFFFFFFFFFFFFFFFFFFFFFFFFFFFFFF AND DUP2 MSTORE PUSH1 0x20 ADD SWAP1 DUP2 MSTORE PUSH1 0x20 ADD PUSH1 0x0 KECCAK256 PUSH1 0x8 ADD PUSH1 0x0 DUP1 DUP3 ADD PUSH1 0x0 PUSH2 0x512 SWAP2 SWAP1 PUSH2 0x1CCA JUMP JUMPDEST PUSH1 0x1 DUP3 ADD PUSH1 0x0 PUSH2 0x522 SWAP2 SWAP1 PUSH2 0x1CCA JUMP JUMPDEST PUSH1 0x2 DUP3 ADD PUSH1 0x0 PUSH2 0x532 SWAP2 SWAP1 PUSH2 0x1CCA JUMP JUMPDEST PUSH1 0x3 DUP3 ADD PUSH1 0x0 PUSH2 0x542 SWAP2 SWAP1 PUSH2 0x1CCA JUMP JUMPDEST PUSH1 0x4 DUP3 ADD PUSH1 0x0 PUSH2 0x552 SWAP2 SWAP1 PUSH2 0x1CCA JUMP JUMPDEST PUSH1 0x5 DUP3 ADD PUSH1 0x0 PUSH2 0x562 SWAP2 SWAP1 PUSH2 0x1CCA JUMP JUMPDEST POP POP DUP5 PUSH1 0x0 DUP1 CALLER PUSH20 0xFFFFFFFFFFFFFFFFFFFFFFFFFFFFFFFFFFFFFFFF AND PUSH20 0xFFFFFFFFFFFFFFFFFFFFFFFFFFFFFFFFFFFFFFFF AND DUP2 MSTORE PUSH1 0x20 ADD SWAP1 DUP2 MSTORE PUSH1 0x20 ADD PUSH1 0x0 KECCAK256 PUSH1 0x8 ADD PUSH1 0x1 ADD SWAP1 DUP1 MLOAD SWAP1 PUSH1 0x20 ADD SWAP1 PUSH2 0x5BC SWAP3 SWAP2 SWAP1 PUSH2 0x1C44 JUMP JUMPDEST POP DUP4 PUSH1 0x0 DUP1 CALLER PUSH20 0xFFFFFFFFFFFFFFFFFFFFFFFFFFFFFFFFFFFFFFFF AND PUSH20 0xFFFFFFFFFFFFFFFFFFFFFFFFFFFFFFFFFFFFFFFF AND DUP2 MSTORE PUSH1 0x20 ADD SWAP1 DUP2 MSTORE PUSH1 0x20 ADD PUSH1 0x0 KECCAK256 PUSH1 0x8 ADD PUSH1 0x2 ADD SWAP1 DUP1 MLOAD SWAP1 PUSH1 0x20 ADD SWAP1 PUSH2 0x615 SWAP3 SWAP2 SWAP1 PUSH2 0x1C44 JUMP JUMPDEST POP DUP3 PUSH1 0x0 DUP1 CALLER PUSH20 0xFFFFFFFFFFFFFFFFFFFFFFFFFFFFFFFFFFFFFFFF AND PUSH20 0xFFFFFFFFFFFFFFFFFFFFFFFFFFFFFFFFFFFFFFFF AND DUP2 MSTORE PUSH1 0x20 ADD SWAP1 DUP2 MSTORE PUSH1 0x20 ADD PUSH1 0x0 KECCAK256 PUSH1 0x8 ADD PUSH1 0x3 ADD SWAP1 DUP1 MLOAD SWAP1 PUSH1 0x20 ADD SWAP1 PUSH2 0x66E SWAP3 SWAP2 SWAP1 PUSH2 0x1C44 JUMP JUMPDEST POP DUP2 PUSH1 0x0 DUP1 CALLER PUSH20 0xFFFFFFFFFFFFFFFFFFFFFFFFFFFFFFFFFFFFFFFF AND PUSH20 0xFFFFFFFFFFFFFFFFFFFFFFFFFFFFFFFFFFFFFFFF AND DUP2 MSTORE PUSH1 0x20 ADD SWAP1 DUP2 MSTORE PUSH1 0x20 ADD PUSH1 0x0 KECCAK256 PUSH1 0x8 ADD PUSH1 0x2 ADD SWAP1 DUP1 MLOAD SWAP1 PUSH1 0x20 ADD SWAP1 PUSH2 0x6C7 SWAP3 SWAP2 SWAP1 PUSH2 0x1C44 JUMP JUMPDEST POP DUP1 PUSH1 0x0 DUP1 CALLER PUSH20 0xFFFFFFFFFFFFFFFFFFFFFFFFFFFFFFFFFFFFFFFF AND PUSH20 0xFFFFFFFFFFFFFFFFFFFFFFFFFFFFFFFFFFFFFFFF AND DUP2 MSTORE PUSH1 0x20 ADD SWAP1 DUP2 MSTORE PUSH1 0x20 ADD PUSH1 0x0 KECCAK256 PUSH1 0x8 ADD PUSH1 0x1 ADD SWAP1 DUP1 MLOAD SWAP1 PUSH1 0x20 ADD SWAP1 PUSH2 0x720 SWAP3 SWAP2 SWAP1 PUSH2 0x1C44 JUMP JUMPDEST POP POP POP POP POP POP JUMP JUMPDEST DUP6 PUSH1 0x0 DUP1 CALLER PUSH20 0xFFFFFFFFFFFFFFFFFFFFFFFFFFFFFFFFFFFFFFFF AND PUSH20 0xFFFFFFFFFFFFFFFFFFFFFFFFFFFFFFFFFFFFFFFF AND DUP2 MSTORE PUSH1 0x20 ADD SWAP1 DUP2 MSTORE PUSH1 0x20 ADD PUSH1 0x0 KECCAK256 PUSH1 0x0 ADD PUSH1 0x3 ADD SWAP1 DUP1 MLOAD SWAP1 PUSH1 0x20 ADD SWAP1 PUSH2 0x780 SWAP3 SWAP2 SWAP1 PUSH2 0x1C44 JUMP JUMPDEST POP DUP5 PUSH1 0x0 DUP1 CALLER PUSH20 0xFFFFFFFFFFFFFFFFFFFFFFFFFFFFFFFFFFFFFFFF AND PUSH20 0xFFFFFFFFFFFFFFFFFFFFFFFFFFFFFFFFFFFFFFFF AND DUP2 MSTORE PUSH1 0x20 ADD SWAP1 DUP2 MSTORE PUSH1 0x20 ADD PUSH1 0x0 KECCAK256 PUSH1 0x0 ADD PUSH1 0x4 ADD SWAP1 DUP1 MLOAD SWAP1 PUSH1 0x20 ADD SWAP1 PUSH2 0x7D9 SWAP3 SWAP2 SWAP1 PUSH2 0x1C44 JUMP JUMPDEST POP DUP4 PUSH1 0x0 DUP1 CALLER PUSH20 0xFFFFFFFFFFFFFFFFFFFFFFFFFFFFFFFFFFFFFFFF AND PUSH20 0xFFFFFFFFFFFFFFFFFFFFFFFFFFFFFFFFFFFFFFFF AND DUP2 MSTORE PUSH1 0x20 ADD SWAP1 DUP2 MSTORE PUSH1 0x20 ADD PUSH1 0x0 KECCAK256 PUSH1 0x0 ADD PUSH1 0x5 ADD SWAP1 DUP1 MLOAD SWAP1 PUSH1 0x20 ADD SWAP1 PUSH2 0x832 SWAP3 SWAP2 SWAP1 PUSH2 0x1C44 JUMP JUMPDEST POP DUP3 PUSH1 0x0 DUP1 CALLER PUSH20 0xFFFFFFFFFFFFFFFFFFFFFFFFFFFFFFFFFFFFFFFF AND PUSH20 0xFFFFFFFFFFFFFFFFFFFFFFFFFFFFFFFFFFFFFFFF AND DUP2 MSTORE PUSH1 0x20 ADD SWAP1 DUP2 MSTORE PUSH1 0x20 ADD PUSH1 0x0 KECCAK256 PUSH1 0x0 ADD PUSH1 0x6 ADD SWAP1 DUP1 MLOAD SWAP1 PUSH1 0x20 ADD SWAP1 PUSH2 0x88B SWAP3 SWAP2 SWAP1 PUSH2 0x1C44 JUMP JUMPDEST POP DUP2 PUSH1 0x0 DUP1 CALLER PUSH20 0xFFFFFFFFFFFFFFFFFFFFFFFFFFFFFFFFFFFFFFFF AND PUSH20 0xFFFFFFFFFFFFFFFFFFFFFFFFFFFFFFFFFFFFFFFF AND DUP2 MSTORE PUSH1 0x20 ADD SWAP1 DUP2 MSTORE PUSH1 0x20 ADD PUSH1 0x0 KECCAK256 PUSH1 0x0 ADD PUSH1 0x0 ADD SWAP1 DUP1 MLOAD SWAP1 PUSH1 0x20 ADD SWAP1 PUSH2 0x8E4 SWAP3 SWAP2 SWAP1 PUSH2 0x1C44 JUMP JUMPDEST POP DUP1 PUSH1 0x0 DUP1 CALLER PUSH20 0xFFFFFFFFFFFFFFFFFFFFFFFFFFFFFFFFFFFFFFFF AND PUSH20 0xFFFFFFFFFFFFFFFFFFFFFFFFFFFFFFFFFFFFFFFF AND DUP2 MSTORE PUSH1 0x20 ADD SWAP1 DUP2 MSTORE PUSH1 0x20 ADD PUSH1 0x0 KECCAK256 PUSH1 0x0 ADD PUSH1 0x1 ADD SWAP1 DUP1 MLOAD SWAP1 PUSH1 0x20 ADD SWAP1 PUSH2 0x93D SWAP3 SWAP2 SWAP1 PUSH2 0x1C44 JUMP JUMPDEST POP CALLER PUSH1 0x0 DUP1 CALLER PUSH20 0xFFFFFFFFFFFFFFFFFFFFFFFFFFFFFFFFFFFFFFFF AND PUSH20 0xFFFFFFFFFFFFFFFFFFFFFFFFFFFFFFFFFFFFFFFF AND DUP2 MSTORE PUSH1 0x20 ADD SWAP1 DUP2 MSTORE PUSH1 0x20 ADD PUSH1 0x0 KECCAK256 PUSH1 0x0 ADD PUSH1 0x2 ADD PUSH1 0x0 PUSH2 0x100 EXP DUP2 SLOAD DUP2 PUSH20 0xFFFFFFFFFFFFFFFFFFFFFFFFFFFFFFFFFFFFFFFF MUL NOT AND SWAP1 DUP4 PUSH20 0xFFFFFFFFFFFFFFFFFFFFFFFFFFFFFFFFFFFFFFFF AND MUL OR SWAP1 SSTORE POP TIMESTAMP PUSH1 0x0 DUP1 CALLER PUSH20 0xFFFFFFFFFFFFFFFFFFFFFFFFFFFFFFFFFFFFFFFF AND PUSH20 0xFFFFFFFFFFFFFFFFFFFFFFFFFFFFFFFFFFFFFFFF AND DUP2 MSTORE PUSH1 0x20 ADD SWAP1 DUP2 MSTORE PUSH1 0x20 ADD PUSH1 0x0 KECCAK256 PUSH1 0x0 ADD PUSH1 0x7 ADD DUP2 SWAP1 SSTORE POP POP POP POP POP POP POP JUMP JUMPDEST PUSH1 0x0 DUP1 CALLER PUSH20 0xFFFFFFFFFFFFFFFFFFFFFFFFFFFFFFFFFFFFFFFF AND PUSH20 0xFFFFFFFFFFFFFFFFFFFFFFFFFFFFFFFFFFFFFFFF AND DUP2 MSTORE PUSH1 0x20 ADD SWAP1 DUP2 MSTORE PUSH1 0x20 ADD PUSH1 0x0 KECCAK256 PUSH1 0x0 ADD PUSH1 0x0 DUP1 DUP3 ADD PUSH1 0x0 PUSH2 0xA64 SWAP2 SWAP1 PUSH2 0x1CCA JUMP JUMPDEST PUSH1 0x1 DUP3 ADD PUSH1 0x0 PUSH2 0xA74 SWAP2 SWAP1 PUSH2 0x1CCA JUMP JUMPDEST PUSH1 0x2 DUP3 ADD PUSH1 0x0 PUSH2 0x100 EXP DUP2 SLOAD SWAP1 PUSH20 0xFFFFFFFFFFFFFFFFFFFFFFFFFFFFFFFFFFFFFFFF MUL NOT AND SWAP1 SSTORE PUSH1 0x3 DUP3 ADD PUSH1 0x0 PUSH2 0xAAB SWAP2 SWAP1 PUSH2 0x1CCA JUMP JUMPDEST PUSH1 0x4 DUP3 ADD PUSH1 0x0 PUSH2 0xABB SWAP2 SWAP1 PUSH2 0x1CCA JUMP JUMPDEST PUSH1 0x5 DUP3 ADD PUSH1 0x0 PUSH2 0xACB SWAP2 SWAP1 PUSH2 0x1CCA JUMP JUMPDEST PUSH1 0x6 DUP3 ADD PUSH1 0x0 PUSH2 0xADB SWAP2 SWAP1 PUSH2 0x1CCA JUMP JUMPDEST PUSH1 0x7 DUP3 ADD PUSH1 0x0 SWAP1 SSTORE POP POP JUMP JUMPDEST PUSH1 0x0 PUSH1 0x20 MSTORE DUP1 PUSH1 0x0 MSTORE PUSH1 0x40 PUSH1 0x0 KECCAK256 PUSH1 0x0 SWAP2 POP SWAP1 POP DUP1 PUSH1 0x0 ADD PUSH1 0x40 MLOAD DUP1 PUSH2 0x100 ADD PUSH1 0x40 MSTORE SWAP1 DUP2 PUSH1 0x0 DUP3 ADD DUP1 SLOAD PUSH2 0xB1B SWAP1 PUSH2 0x27B1 JUMP JUMPDEST DUP1 PUSH1 0x1F ADD PUSH1 0x20 DUP1 SWAP2 DIV MUL PUSH1 0x20 ADD PUSH1 0x40 MLOAD SWAP1 DUP2 ADD PUSH1 0x40 MSTORE DUP1 SWAP3 SWAP2 SWAP1 DUP2 DUP2 MSTORE PUSH1 0x20 ADD DUP3 DUP1 SLOAD PUSH2 0xB47 SWAP1 PUSH2 0x27B1 JUMP JUMPDEST DUP1 ISZERO PUSH2 0xB94 JUMPI DUP1 PUSH1 0x1F LT PUSH2 0xB69 JUMPI PUSH2 0x100 DUP1 DUP4 SLOAD DIV MUL DUP4 MSTORE SWAP2 PUSH1 0x20 ADD SWAP2 PUSH2 0xB94 JUMP JUMPDEST DUP3 ADD SWAP2 SWAP1 PUSH1 0x0 MSTORE PUSH1 0x20 PUSH1 0x0 KECCAK256 SWAP1 JUMPDEST DUP2 SLOAD DUP2 MSTORE SWAP1 PUSH1 0x1 ADD SWAP1 PUSH1 0x20 ADD DUP1 DUP4 GT PUSH2 0xB77 JUMPI DUP3 SWAP1 SUB PUSH1 0x1F AND DUP3 ADD SWAP2 JUMPDEST POP POP POP POP POP DUP2 MSTORE PUSH1 0x20 ADD PUSH1 0x1 DUP3 ADD DUP1 SLOAD PUSH2 0xBAD SWAP1 PUSH2 0x27B1 JUMP JUMPDEST DUP1 PUSH1 0x1F ADD PUSH1 0x20 DUP1 SWAP2 DIV MUL PUSH1 0x20 ADD PUSH1 0x40 MLOAD SWAP1 DUP2 ADD PUSH1 0x40 MSTORE DUP1 SWAP3 SWAP2 SWAP1 DUP2 DUP2 MSTORE PUSH1 0x20 ADD DUP3 DUP1 SLOAD PUSH2 0xBD9 SWAP1 PUSH2 0x27B1 JUMP JUMPDEST DUP1 ISZERO PUSH2 0xC26 JUMPI DUP1 PUSH1 0x1F LT PUSH2 0xBFB JUMPI PUSH2 0x100 DUP1 DUP4 SLOAD DIV MUL DUP4 MSTORE SWAP2 PUSH1 0x20 ADD SWAP2 PUSH2 0xC26 JUMP JUMPDEST DUP3 ADD SWAP2 SWAP1 PUSH1 0x0 MSTORE PUSH1 0x20 PUSH1 0x0 KECCAK256 SWAP1 JUMPDEST DUP2 SLOAD DUP2 MSTORE SWAP1 PUSH1 0x1 ADD SWAP1 PUSH1 0x20 ADD DUP1 DUP4 GT PUSH2 0xC09 JUMPI DUP3 SWAP1 SUB PUSH1 0x1F AND DUP3 ADD SWAP2 JUMPDEST POP POP POP POP POP DUP2 MSTORE PUSH1 0x20 ADD PUSH1 0x2 DUP3 ADD PUSH1 0x0 SWAP1 SLOAD SWAP1 PUSH2 0x100 EXP SWAP1 DIV PUSH20 0xFFFFFFFFFFFFFFFFFFFFFFFFFFFFFFFFFFFFFFFF AND PUSH20 0xFFFFFFFFFFFFFFFFFFFFFFFFFFFFFFFFFFFFFFFF AND PUSH20 0xFFFFFFFFFFFFFFFFFFFFFFFFFFFFFFFFFFFFFFFF AND DUP2 MSTORE PUSH1 0x20 ADD PUSH1 0x3 DUP3 ADD DUP1 SLOAD PUSH2 0xC95 SWAP1 PUSH2 0x27B1 JUMP JUMPDEST DUP1 PUSH1 0x1F ADD PUSH1 0x20 DUP1 SWAP2 DIV MUL PUSH1 0x20 ADD PUSH1 0x40 MLOAD SWAP1 DUP2 ADD PUSH1 0x40 MSTORE DUP1 SWAP3 SWAP2 SWAP1 DUP2 DUP2 MSTORE PUSH1 0x20 ADD DUP3 DUP1 SLOAD PUSH2 0xCC1 SWAP1 PUSH2 0x27B1 JUMP JUMPDEST DUP1 ISZERO PUSH2 0xD0E JUMPI DUP1 PUSH1 0x1F LT PUSH2 0xCE3 JUMPI PUSH2 0x100 DUP1 DUP4 SLOAD DIV MUL DUP4 MSTORE SWAP2 PUSH1 0x20 ADD SWAP2 PUSH2 0xD0E JUMP JUMPDEST DUP3 ADD SWAP2 SWAP1 PUSH1 0x0 MSTORE PUSH1 0x20 PUSH1 0x0 KECCAK256 SWAP1 JUMPDEST DUP2 SLOAD DUP2 MSTORE SWAP1 PUSH1 0x1 ADD SWAP1 PUSH1 0x20 ADD DUP1 DUP4 GT PUSH2 0xCF1 JUMPI DUP3 SWAP1 SUB PUSH1 0x1F AND DUP3 ADD SWAP2 JUMPDEST POP POP POP POP POP DUP2 MSTORE PUSH1 0x20 ADD PUSH1 0x4 DUP3 ADD DUP1 SLOAD PUSH2 0xD27 SWAP1 PUSH2 0x27B1 JUMP JUMPDEST DUP1 PUSH1 0x1F ADD PUSH1 0x20 DUP1 SWAP2 DIV MUL PUSH1 0x20 ADD PUSH1 0x40 MLOAD SWAP1 DUP2 ADD PUSH1 0x40 MSTORE DUP1 SWAP3 SWAP2 SWAP1 DUP2 DUP2 MSTORE PUSH1 0x20 ADD DUP3 DUP1 SLOAD PUSH2 0xD53 SWAP1 PUSH2 0x27B1 JUMP JUMPDEST DUP1 ISZERO PUSH2 0xDA0 JUMPI DUP1 PUSH1 0x1F LT PUSH2 0xD75 JUMPI PUSH2 0x100 DUP1 DUP4 SLOAD DIV MUL DUP4 MSTORE SWAP2 PUSH1 0x20 ADD SWAP2 PUSH2 0xDA0 JUMP JUMPDEST DUP3 ADD SWAP2 SWAP1 PUSH1 0x0 MSTORE PUSH1 0x20 PUSH1 0x0 KECCAK256 SWAP1 JUMPDEST DUP2 SLOAD DUP2 MSTORE SWAP1 PUSH1 0x1 ADD SWAP1 PUSH1 0x20 ADD DUP1 DUP4 GT PUSH2 0xD83 JUMPI DUP3 SWAP1 SUB PUSH1 0x1F AND DUP3 ADD SWAP2 JUMPDEST POP POP POP POP POP DUP2 MSTORE PUSH1 0x20 ADD PUSH1 0x5 DUP3 ADD DUP1 SLOAD PUSH2 0xDB9 SWAP1 PUSH2 0x27B1 JUMP JUMPDEST DUP1 PUSH1 0x1F ADD PUSH1 0x20 DUP1 SWAP2 DIV MUL PUSH1 0x20 ADD PUSH1 0x40 MLOAD SWAP1 DUP2 ADD PUSH1 0x40 MSTORE DUP1 SWAP3 SWAP2 SWAP1 DUP2 DUP2 MSTORE PUSH1 0x20 ADD DUP3 DUP1 SLOAD PUSH2 0xDE5 SWAP1 PUSH2 0x27B1 JUMP JUMPDEST DUP1 ISZERO PUSH2 0xE32 JUMPI DUP1 PUSH1 0x1F LT PUSH2 0xE07 JUMPI PUSH2 0x100 DUP1 DUP4 SLOAD DIV MUL DUP4 MSTORE SWAP2 PUSH1 0x20 ADD SWAP2 PUSH2 0xE32 JUMP JUMPDEST DUP3 ADD SWAP2 SWAP1 PUSH1 0x0 MSTORE PUSH1 0x20 PUSH1 0x0 KECCAK256 SWAP1 JUMPDEST DUP2 SLOAD DUP2 MSTORE SWAP1 PUSH1 0x1 ADD SWAP1 PUSH1 0x20 ADD DUP1 DUP4 GT PUSH2 0xE15 JUMPI DUP3 SWAP1 SUB PUSH1 0x1F AND DUP3 ADD SWAP2 JUMPDEST POP POP POP POP POP DUP2 MSTORE PUSH1 0x20 ADD PUSH1 0x6 DUP3 ADD DUP1 SLOAD PUSH2 0xE4B SWAP1 PUSH2 0x27B1 JUMP JUMPDEST DUP1 PUSH1 0x1F ADD PUSH1 0x20 DUP1 SWAP2 DIV MUL PUSH1 0x20 ADD PUSH1 0x40 MLOAD SWAP1 DUP2 ADD PUSH1 0x40 MSTORE DUP1 SWAP3 SWAP2 SWAP1 DUP2 DUP2 MSTORE PUSH1 0x20 ADD DUP3 DUP1 SLOAD PUSH2 0xE77 SWAP1 PUSH2 0x27B1 JUMP JUMPDEST DUP1 ISZERO PUSH2 0xEC4 JUMPI DUP1 PUSH1 0x1F LT PUSH2 0xE99 JUMPI PUSH2 0x100 DUP1 DUP4 SLOAD DIV MUL DUP4 MSTORE SWAP2 PUSH1 0x20 ADD SWAP2 PUSH2 0xEC4 JUMP JUMPDEST DUP3 ADD SWAP2 SWAP1 PUSH1 0x0 MSTORE PUSH1 0x20 PUSH1 0x0 KECCAK256 SWAP1 JUMPDEST DUP2 SLOAD DUP2 MSTORE SWAP1 PUSH1 0x1 ADD SWAP1 PUSH1 0x20 ADD DUP1 DUP4 GT PUSH2 0xEA7 JUMPI DUP3 SWAP1 SUB PUSH1 0x1F AND DUP3 ADD SWAP2 JUMPDEST POP POP POP POP POP DUP2 MSTORE PUSH1 0x20 ADD PUSH1 0x7 DUP3 ADD SLOAD DUP2 MSTORE POP POP SWAP1 DUP1 PUSH1 0x8 ADD PUSH1 0x40 MLOAD DUP1 PUSH1 0xC0 ADD PUSH1 0x40 MSTORE SWAP1 DUP2 PUSH1 0x0 DUP3 ADD DUP1 SLOAD PUSH2 0xEF7 SWAP1 PUSH2 0x27B1 JUMP JUMPDEST DUP1 PUSH1 0x1F ADD PUSH1 0x20 DUP1 SWAP2 DIV MUL PUSH1 0x20 ADD PUSH1 0x40 MLOAD SWAP1 DUP2 ADD PUSH1 0x40 MSTORE DUP1 SWAP3 SWAP2 SWAP1 DUP2 DUP2 MSTORE PUSH1 0x20 ADD DUP3 DUP1 SLOAD PUSH2 0xF23 SWAP1 PUSH2 0x27B1 JUMP JUMPDEST DUP1 ISZERO PUSH2 0xF70 JUMPI DUP1 PUSH1 0x1F LT PUSH2 0xF45 JUMPI PUSH2 0x100 DUP1 DUP4 SLOAD DIV MUL DUP4 MSTORE SWAP2 PUSH1 0x20 ADD SWAP2 PUSH2 0xF70 JUMP JUMPDEST DUP3 ADD SWAP2 SWAP1 PUSH1 0x0 MSTORE PUSH1 0x20 PUSH1 0x0 KECCAK256 SWAP1 JUMPDEST DUP2 SLOAD DUP2 MSTORE SWAP1 PUSH1 0x1 ADD SWAP1 PUSH1 0x20 ADD DUP1 DUP4 GT PUSH2 0xF53 JUMPI DUP3 SWAP1 SUB PUSH1 0x1F AND DUP3 ADD SWAP2 JUMPDEST POP POP POP POP POP DUP2 MSTORE PUSH1 0x20 ADD PUSH1 0x1 DUP3 ADD DUP1 SLOAD PUSH2 0xF89 SWAP1 PUSH2 0x27B1 JUMP JUMPDEST DUP1 PUSH1 0x1F ADD PUSH1 0x20 DUP1 SWAP2 DIV MUL PUSH1 0x20 ADD PUSH1 0x40 MLOAD SWAP1 DUP2 ADD PUSH1 0x40 MSTORE DUP1 SWAP3 SWAP2 SWAP1 DUP2 DUP2 MSTORE PUSH1 0x20 ADD DUP3 DUP1 SLOAD PUSH2 0xFB5 SWAP1 PUSH2 0x27B1 JUMP JUMPDEST DUP1 ISZERO PUSH2 0x1002 JUMPI DUP1 PUSH1 0x1F LT PUSH2 0xFD7 JUMPI PUSH2 0x100 DUP1 DUP4 SLOAD DIV MUL DUP4 MSTORE SWAP2 PUSH1 0x20 ADD SWAP2 PUSH2 0x1002 JUMP JUMPDEST DUP3 ADD SWAP2 SWAP1 PUSH1 0x0 MSTORE PUSH1 0x20 PUSH1 0x0 KECCAK256 SWAP1 JUMPDEST DUP2 SLOAD DUP2 MSTORE SWAP1 PUSH1 0x1 ADD SWAP1 PUSH1 0x20 ADD DUP1 DUP4 GT PUSH2 0xFE5 JUMPI DUP3 SWAP1 SUB PUSH1 0x1F AND DUP3 ADD SWAP2 JUMPDEST POP POP POP POP POP DUP2 MSTORE PUSH1 0x20 ADD PUSH1 0x2 DUP3 ADD DUP1 SLOAD PUSH2 0x101B SWAP1 PUSH2 0x27B1 JUMP JUMPDEST DUP1 PUSH1 0x1F ADD PUSH1 0x20 DUP1 SWAP2 DIV MUL PUSH1 0x20 ADD PUSH1 0x40 MLOAD SWAP1 DUP2 ADD PUSH1 0x40 MSTORE DUP1 SWAP3 SWAP2 SWAP1 DUP2 DUP2 MSTORE PUSH1 0x20 ADD DUP3 DUP1 SLOAD PUSH2 0x1047 SWAP1 PUSH2 0x27B1 JUMP JUMPDEST DUP1 ISZERO PUSH2 0x1094 JUMPI DUP1 PUSH1 0x1F LT PUSH2 0x1069 JUMPI PUSH2 0x100 DUP1 DUP4 SLOAD DIV MUL DUP4 MSTORE SWAP2 PUSH1 0x20 ADD SWAP2 PUSH2 0x1094 JUMP JUMPDEST DUP3 ADD SWAP2 SWAP1 PUSH1 0x0 MSTORE PUSH1 0x20 PUSH1 0x0 KECCAK256 SWAP1 JUMPDEST DUP2 SLOAD DUP2 MSTORE SWAP1 PUSH1 0x1 ADD SWAP1 PUSH1 0x20 ADD DUP1 DUP4 GT PUSH2 0x1077 JUMPI DUP3 SWAP1 SUB PUSH1 0x1F AND DUP3 ADD SWAP2 JUMPDEST POP POP POP POP POP DUP2 MSTORE PUSH1 0x20 ADD PUSH1 0x3 DUP3 ADD DUP1 SLOAD PUSH2 0x10AD SWAP1 PUSH2 0x27B1 JUMP JUMPDEST DUP1 PUSH1 0x1F ADD PUSH1 0x20 DUP1 SWAP2 DIV MUL PUSH1 0x20 ADD PUSH1 0x40 MLOAD SWAP1 DUP2 ADD PUSH1 0x40 MSTORE DUP1 SWAP3 SWAP2 SWAP1 DUP2 DUP2 MSTORE PUSH1 0x20 ADD DUP3 DUP1 SLOAD PUSH2 0x10D9 SWAP1 PUSH2 0x27B1 JUMP JUMPDEST DUP1 ISZERO PUSH2 0x1126 JUMPI DUP1 PUSH1 0x1F LT PUSH2 0x10FB JUMPI PUSH2 0x100 DUP1 DUP4 SLOAD DIV MUL DUP4 MSTORE SWAP2 PUSH1 0x20 ADD SWAP2 PUSH2 0x1126 JUMP JUMPDEST DUP3 ADD SWAP2 SWAP1 PUSH1 0x0 MSTORE PUSH1 0x20 PUSH1 0x0 KECCAK256 SWAP1 JUMPDEST DUP2 SLOAD DUP2 MSTORE SWAP1 PUSH1 0x1 ADD SWAP1 PUSH1 0x20 ADD DUP1 DUP4 GT PUSH2 0x1109 JUMPI DUP3 SWAP1 SUB PUSH1 0x1F AND DUP3 ADD SWAP2 JUMPDEST POP POP POP POP POP DUP2 MSTORE PUSH1 0x20 ADD PUSH1 0x4 DUP3 ADD DUP1 SLOAD PUSH2 0x113F SWAP1 PUSH2 0x27B1 JUMP JUMPDEST DUP1 PUSH1 0x1F ADD PUSH1 0x20 DUP1 SWAP2 DIV MUL PUSH1 0x20 ADD PUSH1 0x40 MLOAD SWAP1 DUP2 ADD PUSH1 0x40 MSTORE DUP1 SWAP3 SWAP2 SWAP1 DUP2 DUP2 MSTORE PUSH1 0x20 ADD DUP3 DUP1 SLOAD PUSH2 0x116B SWAP1 PUSH2 0x27B1 JUMP JUMPDEST DUP1 ISZERO PUSH2 0x11B8 JUMPI DUP1 PUSH1 0x1F LT PUSH2 0x118D JUMPI PUSH2 0x100 DUP1 DUP4 SLOAD DIV MUL DUP4 MSTORE SWAP2 PUSH1 0x20 ADD SWAP2 PUSH2 0x11B8 JUMP JUMPDEST DUP3 ADD SWAP2 SWAP1 PUSH1 0x0 MSTORE PUSH1 0x20 PUSH1 0x0 KECCAK256 SWAP1 JUMPDEST DUP2 SLOAD DUP2 MSTORE SWAP1 PUSH1 0x1 ADD SWAP1 PUSH1 0x20 ADD DUP1 DUP4 GT PUSH2 0x119B JUMPI DUP3 SWAP1 SUB PUSH1 0x1F AND DUP3 ADD SWAP2 JUMPDEST POP POP POP POP POP DUP2 MSTORE PUSH1 0x20 ADD PUSH1 0x5 DUP3 ADD DUP1 SLOAD PUSH2 0x11D1 SWAP1 PUSH2 0x27B1 JUMP JUMPDEST DUP1 PUSH1 0x1F ADD PUSH1 0x20 DUP1 SWAP2 DIV MUL PUSH1 0x20 ADD PUSH1 0x40 MLOAD SWAP1 DUP2 ADD PUSH1 0x40 MSTORE DUP1 SWAP3 SWAP2 SWAP1 DUP2 DUP2 MSTORE PUSH1 0x20 ADD DUP3 DUP1 SLOAD PUSH2 0x11FD SWAP1 PUSH2 0x27B1 JUMP JUMPDEST DUP1 ISZERO PUSH2 0x124A JUMPI DUP1 PUSH1 0x1F LT PUSH2 0x121F JUMPI PUSH2 0x100 DUP1 DUP4 SLOAD DIV MUL DUP4 MSTORE SWAP2 PUSH1 0x20 ADD SWAP2 PUSH2 0x124A JUMP JUMPDEST DUP3 ADD SWAP2 SWAP1 PUSH1 0x0 MSTORE PUSH1 0x20 PUSH1 0x0 KECCAK256 SWAP1 JUMPDEST DUP2 SLOAD DUP2 MSTORE SWAP1 PUSH1 0x1 ADD SWAP1 PUSH1 0x20 ADD DUP1 DUP4 GT PUSH2 0x122D JUMPI DUP3 SWAP1 SUB PUSH1 0x1F AND DUP3 ADD SWAP2 JUMPDEST POP POP POP POP POP DUP2 MSTORE POP POP SWAP1 DUP1 PUSH1 0xE ADD PUSH1 0x40 MLOAD DUP1 PUSH1 0x60 ADD PUSH1 0x40 MSTORE SWAP1 DUP2 PUSH1 0x0 DUP3 ADD DUP1 SLOAD DUP1 PUSH1 0x20 MUL PUSH1 0x20 ADD PUSH1 0x40 MLOAD SWAP1 DUP2 ADD PUSH1 0x40 MSTORE DUP1 SWAP3 SWAP2 SWAP1 DUP2 DUP2 MSTORE PUSH1 0x20 ADD PUSH1 0x0 SWAP1 JUMPDEST DUP3 DUP3 LT ISZERO PUSH2 0x1334 JUMPI DUP4 DUP3 SWAP1 PUSH1 0x0 MSTORE PUSH1 0x20 PUSH1 0x0 KECCAK256 ADD DUP1 SLOAD PUSH2 0x12A7 SWAP1 PUSH2 0x27B1 JUMP JUMPDEST DUP1 PUSH1 0x1F ADD PUSH1 0x20 DUP1 SWAP2 DIV MUL PUSH1 0x20 ADD PUSH1 0x40 MLOAD SWAP1 DUP2 ADD PUSH1 0x40 MSTORE DUP1 SWAP3 SWAP2 SWAP1 DUP2 DUP2 MSTORE PUSH1 0x20 ADD DUP3 DUP1 SLOAD PUSH2 0x12D3 SWAP1 PUSH2 0x27B1 JUMP JUMPDEST DUP1 ISZERO PUSH2 0x1320 JUMPI DUP1 PUSH1 0x1F LT PUSH2 0x12F5 JUMPI PUSH2 0x100 DUP1 DUP4 SLOAD DIV MUL DUP4 MSTORE SWAP2 PUSH1 0x20 ADD SWAP2 PUSH2 0x1320 JUMP JUMPDEST DUP3 ADD SWAP2 SWAP1 PUSH1 0x0 MSTORE PUSH1 0x20 PUSH1 0x0 KECCAK256 SWAP1 JUMPDEST DUP2 SLOAD DUP2 MSTORE SWAP1 PUSH1 0x1 ADD SWAP1 PUSH1 0x20 ADD DUP1 DUP4 GT PUSH2 0x1303 JUMPI DUP3 SWAP1 SUB PUSH1 0x1F AND DUP3 ADD SWAP2 JUMPDEST POP POP POP POP POP DUP2 MSTORE PUSH1 0x20 ADD SWAP1 PUSH1 0x1 ADD SWAP1 PUSH2 0x1288 JUMP JUMPDEST POP POP POP POP DUP2 MSTORE PUSH1 0x20 ADD PUSH1 0x1 DUP3 ADD DUP1 SLOAD DUP1 PUSH1 0x20 MUL PUSH1 0x20 ADD PUSH1 0x40 MLOAD SWAP1 DUP2 ADD PUSH1 0x40 MSTORE DUP1 SWAP3 SWAP2 SWAP1 DUP2 DUP2 MSTORE PUSH1 0x20 ADD PUSH1 0x0 SWAP1 JUMPDEST DUP3 DUP3 LT ISZERO PUSH2 0x140D JUMPI DUP4 DUP3 SWAP1 PUSH1 0x0 MSTORE PUSH1 0x20 PUSH1 0x0 KECCAK256 ADD DUP1 SLOAD PUSH2 0x1380 SWAP1 PUSH2 0x27B1 JUMP JUMPDEST DUP1 PUSH1 0x1F ADD PUSH1 0x20 DUP1 SWAP2 DIV MUL PUSH1 0x20 ADD PUSH1 0x40 MLOAD SWAP1 DUP2 ADD PUSH1 0x40 MSTORE DUP1 SWAP3 SWAP2 SWAP1 DUP2 DUP2 MSTORE PUSH1 0x20 ADD DUP3 DUP1 SLOAD PUSH2 0x13AC SWAP1 PUSH2 0x27B1 JUMP JUMPDEST DUP1 ISZERO PUSH2 0x13F9 JUMPI DUP1 PUSH1 0x1F LT PUSH2 0x13CE JUMPI PUSH2 0x100 DUP1 DUP4 SLOAD DIV MUL DUP4 MSTORE SWAP2 PUSH1 0x20 ADD SWAP2 PUSH2 0x13F9 JUMP JUMPDEST DUP3 ADD SWAP2 SWAP1 PUSH1 0x0 MSTORE PUSH1 0x20 PUSH1 0x0 KECCAK256 SWAP1 JUMPDEST DUP2 SLOAD DUP2 MSTORE SWAP1 PUSH1 0x1 ADD SWAP1 PUSH1 0x20 ADD DUP1 DUP4 GT PUSH2 0x13DC JUMPI DUP3 SWAP1 SUB PUSH1 0x1F AND DUP3 ADD SWAP2 JUMPDEST POP POP POP POP POP DUP2 MSTORE PUSH1 0x20 ADD SWAP1 PUSH1 0x1 ADD SWAP1 PUSH2 0x1361 JUMP JUMPDEST POP POP POP POP DUP2 MSTORE PUSH1 0x20 ADD PUSH1 0x2 DUP3 ADD DUP1 SLOAD DUP1 PUSH1 0x20 MUL PUSH1 0x20 ADD PUSH1 0x40 MLOAD SWAP1 DUP2 ADD PUSH1 0x40 MSTORE DUP1 SWAP3 SWAP2 SWAP1 DUP2 DUP2 MSTORE PUSH1 0x20 ADD PUSH1 0x0 SWAP1 JUMPDEST DUP3 DUP3 LT ISZERO PUSH2 0x14E6 JUMPI DUP4 DUP3 SWAP1 PUSH1 0x0 MSTORE PUSH1 0x20 PUSH1 0x0 KECCAK256 ADD DUP1 SLOAD PUSH2 0x1459 SWAP1 PUSH2 0x27B1 JUMP JUMPDEST DUP1 PUSH1 0x1F ADD PUSH1 0x20 DUP1 SWAP2 DIV MUL PUSH1 0x20 ADD PUSH1 0x40 MLOAD SWAP1 DUP2 ADD PUSH1 0x40 MSTORE DUP1 SWAP3 SWAP2 SWAP1 DUP2 DUP2 MSTORE PUSH1 0x20 ADD DUP3 DUP1 SLOAD PUSH2 0x1485 SWAP1 PUSH2 0x27B1 JUMP JUMPDEST DUP1 ISZERO PUSH2 0x14D2 JUMPI DUP1 PUSH1 0x1F LT PUSH2 0x14A7 JUMPI PUSH2 0x100 DUP1 DUP4 SLOAD DIV MUL DUP4 MSTORE SWAP2 PUSH1 0x20 ADD SWAP2 PUSH2 0x14D2 JUMP JUMPDEST DUP3 ADD SWAP2 SWAP1 PUSH1 0x0 MSTORE PUSH1 0x20 PUSH1 0x0 KECCAK256 SWAP1 JUMPDEST DUP2 SLOAD DUP2 MSTORE SWAP1 PUSH1 0x1 ADD SWAP1 PUSH1 0x20 ADD DUP1 DUP4 GT PUSH2 0x14B5 JUMPI DUP3 SWAP1 SUB PUSH1 0x1F AND DUP3 ADD SWAP2 JUMPDEST POP POP POP POP POP DUP2 MSTORE PUSH1 0x20 ADD SWAP1 PUSH1 0x1 ADD SWAP1 PUSH2 0x143A JUMP JUMPDEST POP POP POP POP DUP2 MSTORE POP POP SWAP1 POP DUP4 JUMP JUMPDEST PUSH1 0x0 DUP1 CALLER PUSH20 0xFFFFFFFFFFFFFFFFFFFFFFFFFFFFFFFFFFFFFFFF AND PUSH20 0xFFFFFFFFFFFFFFFFFFFFFFFFFFFFFFFFFFFFFFFF AND DUP2 MSTORE PUSH1 0x20 ADD SWAP1 DUP2 MSTORE PUSH1 0x20 ADD PUSH1 0x0 KECCAK256 PUSH1 0x11 ADD PUSH1 0x0 PUSH2 0x1540 SWAP2 SWAP1 PUSH2 0x1D0A JUMP JUMPDEST JUMP JUMPDEST PUSH1 0x60 DUP1 PUSH1 0x60 DUP1 PUSH1 0x60 PUSH1 0x0 DUP1 CALLER PUSH20 0xFFFFFFFFFFFFFFFFFFFFFFFFFFFFFFFFFFFFFFFF AND PUSH20 0xFFFFFFFFFFFFFFFFFFFFFFFFFFFFFFFFFFFFFFFF AND DUP2 MSTORE PUSH1 0x20 ADD SWAP1 DUP2 MSTORE PUSH1 0x20 ADD PUSH1 0x0 KECCAK256 PUSH1 0x11 ADD DUP7 DUP2 SLOAD DUP2 LT PUSH2 0x159D JUMPI PUSH2 0x159C PUSH2 0x2843 JUMP JUMPDEST JUMPDEST SWAP1 PUSH1 0x0 MSTORE PUSH1 0x20 PUSH1 0x0 KECCAK256 SWAP1 PUSH1 0x5 MUL ADD PUSH1 0x0 ADD PUSH1 0x0 DUP1 CALLER PUSH20 0xFFFFFFFFFFFFFFFFFFFFFFFFFFFFFFFFFFFFFFFF AND PUSH20 0xFFFFFFFFFFFFFFFFFFFFFFFFFFFFFFFFFFFFFFFF AND DUP2 MSTORE PUSH1 0x20 ADD SWAP1 DUP2 MSTORE PUSH1 0x20 ADD PUSH1 0x0 KECCAK256 PUSH1 0x11 ADD DUP8 DUP2 SLOAD DUP2 LT PUSH2 0x1601 JUMPI PUSH2 0x1600 PUSH2 0x2843 JUMP JUMPDEST JUMPDEST SWAP1 PUSH1 0x0 MSTORE PUSH1 0x20 PUSH1 0x0 KECCAK256 SWAP1 PUSH1 0x5 MUL ADD PUSH1 0x1 ADD PUSH1 0x0 DUP1 CALLER PUSH20 0xFFFFFFFFFFFFFFFFFFFFFFFFFFFFFFFFFFFFFFFF AND PUSH20 0xFFFFFFFFFFFFFFFFFFFFFFFFFFFFFFFFFFFFFFFF AND DUP2 MSTORE PUSH1 0x20 ADD SWAP1 DUP2 MSTORE PUSH1 0x20 ADD PUSH1 0x0 KECCAK256 PUSH1 0x11 ADD DUP9 DUP2 SLOAD DUP2 LT PUSH2 0x1665 JUMPI PUSH2 0x1664 PUSH2 0x2843 JUMP JUMPDEST JUMPDEST SWAP1 PUSH1 0x0 MSTORE PUSH1 0x20 PUSH1 0x0 KECCAK256 SWAP1 PUSH1 0x5 MUL ADD PUSH1 0x2 ADD PUSH1 0x0 DUP1 CALLER PUSH20 0xFFFFFFFFFFFFFFFFFFFFFFFFFFFFFFFFFFFFFFFF AND PUSH20 0xFFFFFFFFFFFFFFFFFFFFFFFFFFFFFFFFFFFFFFFF AND DUP2 MSTORE PUSH1 0x20 ADD SWAP1 DUP2 MSTORE PUSH1 0x20 ADD PUSH1 0x0 KECCAK256 PUSH1 0x11 ADD DUP10 DUP2 SLOAD DUP2 LT PUSH2 0x16C9 JUMPI PUSH2 0x16C8 PUSH2 0x2843 JUMP JUMPDEST JUMPDEST SWAP1 PUSH1 0x0 MSTORE PUSH1 0x20 PUSH1 0x0 KECCAK256 SWAP1 PUSH1 0x5 MUL ADD PUSH1 0x3 ADD PUSH1 0x0 DUP1 CALLER PUSH20 0xFFFFFFFFFFFFFFFFFFFFFFFFFFFFFFFFFFFFFFFF AND PUSH20 0xFFFFFFFFFFFFFFFFFFFFFFFFFFFFFFFFFFFFFFFF AND DUP2 MSTORE PUSH1 0x20 ADD SWAP1 DUP2 MSTORE PUSH1 0x20 ADD PUSH1 0x0 KECCAK256 PUSH1 0x11 ADD DUP11 DUP2 SLOAD DUP2 LT PUSH2 0x172D JUMPI PUSH2 0x172C PUSH2 0x2843 JUMP JUMPDEST JUMPDEST SWAP1 PUSH1 0x0 MSTORE PUSH1 0x20 PUSH1 0x0 KECCAK256 SWAP1 PUSH1 0x5 MUL ADD PUSH1 0x4 ADD DUP5 DUP1 SLOAD PUSH2 0x174A SWAP1 PUSH2 0x27B1 JUMP JUMPDEST DUP1 PUSH1 0x1F ADD PUSH1 0x20 DUP1 SWAP2 DIV MUL PUSH1 0x20 ADD PUSH1 0x40 MLOAD SWAP1 DUP2 ADD PUSH1 0x40 MSTORE DUP1 SWAP3 SWAP2 SWAP1 DUP2 DUP2 MSTORE PUSH1 0x20 ADD DUP3 DUP1 SLOAD PUSH2 0x1776 SWAP1 PUSH2 0x27B1 JUMP JUMPDEST DUP1 ISZERO PUSH2 0x17C3 JUMPI DUP1 PUSH1 0x1F LT PUSH2 0x1798 JUMPI PUSH2 0x100 DUP1 DUP4 SLOAD DIV MUL DUP4 MSTORE SWAP2 PUSH1 0x20 ADD SWAP2 PUSH2 0x17C3 JUMP JUMPDEST DUP3 ADD SWAP2 SWAP1 PUSH1 0x0 MSTORE PUSH1 0x20 PUSH1 0x0 KECCAK256 SWAP1 JUMPDEST DUP2 SLOAD DUP2 MSTORE SWAP1 PUSH1 0x1 ADD SWAP1 PUSH1 0x20 ADD DUP1 DUP4 GT PUSH2 0x17A6 JUMPI DUP3 SWAP1 SUB PUSH1 0x1F AND DUP3 ADD SWAP2 JUMPDEST POP POP POP POP POP SWAP5 POP DUP4 DUP1 SLOAD PUSH2 0x17D6 SWAP1 PUSH2 0x27B1 JUMP JUMPDEST DUP1 PUSH1 0x1F ADD PUSH1 0x20 DUP1 SWAP2 DIV MUL PUSH1 0x20 ADD PUSH1 0x40 MLOAD SWAP1 DUP2 ADD PUSH1 0x40 MSTORE DUP1 SWAP3 SWAP2 SWAP1 DUP2 DUP2 MSTORE PUSH1 0x20 ADD DUP3 DUP1 SLOAD PUSH2 0x1802 SWAP1 PUSH2 0x27B1 JUMP JUMPDEST DUP1 ISZERO PUSH2 0x184F JUMPI DUP1 PUSH1 0x1F LT PUSH2 0x1824 JUMPI PUSH2 0x100 DUP1 DUP4 SLOAD DIV MUL DUP4 MSTORE SWAP2 PUSH1 0x20 ADD SWAP2 PUSH2 0x184F JUMP JUMPDEST DUP3 ADD SWAP2 SWAP1 PUSH1 0x0 MSTORE PUSH1 0x20 PUSH1 0x0 KECCAK256 SWAP1 JUMPDEST DUP2 SLOAD DUP2 MSTORE SWAP1 PUSH1 0x1 ADD SWAP1 PUSH1 0x20 ADD DUP1 DUP4 GT PUSH2 0x1832 JUMPI DUP3 SWAP1 SUB PUSH1 0x1F AND DUP3 ADD SWAP2 JUMPDEST POP POP POP POP POP SWAP4 POP DUP3 DUP1 SLOAD PUSH2 0x1862 SWAP1 PUSH2 0x27B1 JUMP JUMPDEST DUP1 PUSH1 0x1F ADD PUSH1 0x20 DUP1 SWAP2 DIV MUL PUSH1 0x20 ADD PUSH1 0x40 MLOAD SWAP1 DUP2 ADD PUSH1 0x40 MSTORE DUP1 SWAP3 SWAP2 SWAP1 DUP2 DUP2 MSTORE PUSH1 0x20 ADD DUP3 DUP1 SLOAD PUSH2 0x188E SWAP1 PUSH2 0x27B1 JUMP JUMPDEST DUP1 ISZERO PUSH2 0x18DB JUMPI DUP1 PUSH1 0x1F LT PUSH2 0x18B0 JUMPI PUSH2 0x100 DUP1 DUP4 SLOAD DIV MUL DUP4 MSTORE SWAP2 PUSH1 0x20 ADD SWAP2 PUSH2 0x18DB JUMP JUMPDEST DUP3 ADD SWAP2 SWAP1 PUSH1 0x0 MSTORE PUSH1 0x20 PUSH1 0x0 KECCAK256 SWAP1 JUMPDEST DUP2 SLOAD DUP2 MSTORE SWAP1 PUSH1 0x1 ADD SWAP1 PUSH1 0x20 ADD DUP1 DUP4 GT PUSH2 0x18BE JUMPI DUP3 SWAP1 SUB PUSH1 0x1F AND DUP3 ADD SWAP2 JUMPDEST POP POP POP POP POP SWAP3 POP DUP2 DUP1 SLOAD PUSH2 0x18EE SWAP1 PUSH2 0x27B1 JUMP JUMPDEST DUP1 PUSH1 0x1F ADD PUSH1 0x20 DUP1 SWAP2 DIV MUL PUSH1 0x20 ADD PUSH1 0x40 MLOAD SWAP1 DUP2 ADD PUSH1 0x40 MSTORE DUP1 SWAP3 SWAP2 SWAP1 DUP2 DUP2 MSTORE PUSH1 0x20 ADD DUP3 DUP1 SLOAD PUSH2 0x191A SWAP1 PUSH2 0x27B1 JUMP JUMPDEST DUP1 ISZERO PUSH2 0x1967 JUMPI DUP1 PUSH1 0x1F LT PUSH2 0x193C JUMPI PUSH2 0x100 DUP1 DUP4 SLOAD DIV MUL DUP4 MSTORE SWAP2 PUSH1 0x20 ADD SWAP2 PUSH2 0x1967 JUMP JUMPDEST DUP3 ADD SWAP2 SWAP1 PUSH1 0x0 MSTORE PUSH1 0x20 PUSH1 0x0 KECCAK256 SWAP1 JUMPDEST DUP2 SLOAD DUP2 MSTORE SWAP1 PUSH1 0x1 ADD SWAP1 PUSH1 0x20 ADD DUP1 DUP4 GT PUSH2 0x194A JUMPI DUP3 SWAP1 SUB PUSH1 0x1F AND DUP3 ADD SWAP2 JUMPDEST POP POP POP POP POP SWAP2 POP DUP1 DUP1 SLOAD PUSH2 0x197A SWAP1 PUSH2 0x27B1 JUMP JUMPDEST DUP1 PUSH1 0x1F ADD PUSH1 0x20 DUP1 SWAP2 DIV MUL PUSH1 0x20 ADD PUSH1 0x40 MLOAD SWAP1 DUP2 ADD PUSH1 0x40 MSTORE DUP1 SWAP3 SWAP2 SWAP1 DUP2 DUP2 MSTORE PUSH1 0x20 ADD DUP3 DUP1 SLOAD PUSH2 0x19A6 SWAP1 PUSH2 0x27B1 JUMP JUMPDEST DUP1 ISZERO PUSH2 0x19F3 JUMPI DUP1 PUSH1 0x1F LT PUSH2 0x19C8 JUMPI PUSH2 0x100 DUP1 DUP4 SLOAD DIV MUL DUP4 MSTORE SWAP2 PUSH1 0x20 ADD SWAP2 PUSH2 0x19F3 JUMP JUMPDEST DUP3 ADD SWAP2 SWAP1 PUSH1 0x0 MSTORE PUSH1 0x20 PUSH1 0x0 KECCAK256 SWAP1 JUMPDEST DUP2 SLOAD DUP2 MSTORE SWAP1 PUSH1 0x1 ADD SWAP1 PUSH1 0x20 ADD DUP1 DUP4 GT PUSH2 0x19D6 JUMPI DUP3 SWAP1 SUB PUSH1 0x1F AND DUP3 ADD SWAP2 JUMPDEST POP POP POP POP POP SWAP1 POP SWAP5 POP SWAP5 POP SWAP5 POP SWAP5 POP SWAP5 POP SWAP2 SWAP4 SWAP6 SWAP1 SWAP3 SWAP5 POP JUMP JUMPDEST PUSH1 0x0 DUP1 CALLER PUSH20 0xFFFFFFFFFFFFFFFFFFFFFFFFFFFFFFFFFFFFFFFF AND PUSH20 0xFFFFFFFFFFFFFFFFFFFFFFFFFFFFFFFFFFFFFFFF AND DUP2 MSTORE PUSH1 0x20 ADD SWAP1 DUP2 MSTORE PUSH1 0x20 ADD PUSH1 0x0 KECCAK256 PUSH1 0x0 DUP1 DUP3 ADD PUSH1 0x0 DUP1 DUP3 ADD PUSH1 0x0 PUSH2 0x1A61 SWAP2 SWAP1 PUSH2 0x1CCA JUMP JUMPDEST PUSH1 0x1 DUP3 ADD PUSH1 0x0 PUSH2 0x1A71 SWAP2 SWAP1 PUSH2 0x1CCA JUMP JUMPDEST PUSH1 0x2 DUP3 ADD PUSH1 0x0 PUSH2 0x100 EXP DUP2 SLOAD SWAP1 PUSH20 0xFFFFFFFFFFFFFFFFFFFFFFFFFFFFFFFFFFFFFFFF MUL NOT AND SWAP1 SSTORE PUSH1 0x3 DUP3 ADD PUSH1 0x0 PUSH2 0x1AA8 SWAP2 SWAP1 PUSH2 0x1CCA JUMP JUMPDEST PUSH1 0x4 DUP3 ADD PUSH1 0x0 PUSH2 0x1AB8 SWAP2 SWAP1 PUSH2 0x1CCA JUMP JUMPDEST PUSH1 0x5 DUP3 ADD PUSH1 0x0 PUSH2 0x1AC8 SWAP2 SWAP1 PUSH2 0x1CCA JUMP JUMPDEST PUSH1 0x6 DUP3 ADD PUSH1 0x0 PUSH2 0x1AD8 SWAP2 SWAP1 PUSH2 0x1CCA JUMP JUMPDEST PUSH1 0x7 DUP3 ADD PUSH1 0x0 SWAP1 SSTORE POP POP PUSH1 0x8 DUP3 ADD PUSH1 0x0 DUP1 DUP3 ADD PUSH1 0x0 PUSH2 0x1AF7 SWAP2 SWAP1 PUSH2 0x1CCA JUMP JUMPDEST PUSH1 0x1 DUP3 ADD PUSH1 0x0 PUSH2 0x1B07 SWAP2 SWAP1 PUSH2 0x1CCA JUMP JUMPDEST PUSH1 0x2 DUP3 ADD PUSH1 0x0 PUSH2 0x1B17 SWAP2 SWAP1 PUSH2 0x1CCA JUMP JUMPDEST PUSH1 0x3 DUP3 ADD PUSH1 0x0 PUSH2 0x1B27 SWAP2 SWAP1 PUSH2 0x1CCA JUMP JUMPDEST PUSH1 0x4 DUP3 ADD PUSH1 0x0 PUSH2 0x1B37 SWAP2 SWAP1 PUSH2 0x1CCA JUMP JUMPDEST PUSH1 0x5 DUP3 ADD PUSH1 0x0 PUSH2 0x1B47 SWAP2 SWAP1 PUSH2 0x1CCA JUMP JUMPDEST POP POP PUSH1 0xE DUP3 ADD PUSH1 0x0 DUP1 DUP3 ADD PUSH1 0x0 PUSH2 0x1B5E SWAP2 SWAP1 PUSH2 0x1B94 JUMP JUMPDEST PUSH1 0x1 DUP3 ADD PUSH1 0x0 PUSH2 0x1B6E SWAP2 SWAP1 PUSH2 0x1B94 JUMP JUMPDEST PUSH1 0x2 DUP3 ADD PUSH1 0x0 PUSH2 0x1B7E SWAP2 SWAP1 PUSH2 0x1B94 JUMP JUMPDEST POP POP PUSH1 0x11 DUP3 ADD PUSH1 0x0 PUSH2 0x1B90 SWAP2 SWAP1 PUSH2 0x1D0A JUMP JUMPDEST POP POP JUMP JUMPDEST POP DUP1 SLOAD PUSH1 0x0 DUP3 SSTORE SWAP1 PUSH1 0x0 MSTORE PUSH1 0x20 PUSH1 0x0 KECCAK256 SWAP1 DUP2 ADD SWAP1 PUSH2 0x1BB2 SWAP2 SWAP1 PUSH2 0x1D2E JUMP JUMPDEST POP JUMP JUMPDEST DUP3 DUP1 SLOAD DUP3 DUP3 SSTORE SWAP1 PUSH1 0x0 MSTORE PUSH1 0x20 PUSH1 0x0 KECCAK256 SWAP1 DUP2 ADD SWAP3 DUP3 ISZERO PUSH2 0x1C04 JUMPI SWAP2 PUSH1 0x20 MUL DUP3 ADD JUMPDEST DUP3 DUP2 GT ISZERO PUSH2 0x1C03 JUMPI DUP3 MLOAD DUP3 SWAP1 DUP1 MLOAD SWAP1 PUSH1 0x20 ADD SWAP1 PUSH2 0x1BF3 SWAP3 SWAP2 SWAP1 PUSH2 0x1C44 JUMP JUMPDEST POP SWAP2 PUSH1 0x20 ADD SWAP2 SWAP1 PUSH1 0x1 ADD SWAP1 PUSH2 0x1BD5 JUMP JUMPDEST JUMPDEST POP SWAP1 POP PUSH2 0x1C11 SWAP2 SWAP1 PUSH2 0x1D2E JUMP JUMPDEST POP SWAP1 JUMP JUMPDEST PUSH1 0x40 MLOAD DUP1 PUSH1 0xA0 ADD PUSH1 0x40 MSTORE DUP1 PUSH1 0x60 DUP2 MSTORE PUSH1 0x20 ADD PUSH1 0x60 DUP2 MSTORE PUSH1 0x20 ADD PUSH1 0x60 DUP2 MSTORE PUSH1 0x20 ADD PUSH1 0x60 DUP2 MSTORE PUSH1 0x20 ADD PUSH1 0x60 DUP2 MSTORE POP SWAP1 JUMP JUMPDEST DUP3 DUP1 SLOAD PUSH2 0x1C50 SWAP1 PUSH2 0x27B1 JUMP JUMPDEST SWAP1 PUSH1 0x0 MSTORE PUSH1 0x20 PUSH1 0x0 KECCAK256 SWAP1 PUSH1 0x1F ADD PUSH1 0x20 SWAP1 DIV DUP2 ADD SWAP3 DUP3 PUSH2 0x1C72 JUMPI PUSH1 0x0 DUP6 SSTORE PUSH2 0x1CB9 JUMP JUMPDEST DUP3 PUSH1 0x1F LT PUSH2 0x1C8B JUMPI DUP1 MLOAD PUSH1 0xFF NOT AND DUP4 DUP1 ADD OR DUP6 SSTORE PUSH2 0x1CB9 JUMP JUMPDEST DUP3 DUP1 ADD PUSH1 0x1 ADD DUP6 SSTORE DUP3 ISZERO PUSH2 0x1CB9 JUMPI SWAP2 DUP3 ADD JUMPDEST DUP3 DUP2 GT ISZERO PUSH2 0x1CB8 JUMPI DUP3 MLOAD DUP3 SSTORE SWAP2 PUSH1 0x20 ADD SWAP2 SWAP1 PUSH1 0x1 ADD SWAP1 PUSH2 0x1C9D JUMP JUMPDEST JUMPDEST POP SWAP1 POP PUSH2 0x1CC6 SWAP2 SWAP1 PUSH2 0x1D52 JUMP JUMPDEST POP SWAP1 JUMP JUMPDEST POP DUP1 SLOAD PUSH2 0x1CD6 SWAP1 PUSH2 0x27B1 JUMP JUMPDEST PUSH1 0x0 DUP3 SSTORE DUP1 PUSH1 0x1F LT PUSH2 0x1CE8 JUMPI POP PUSH2 0x1D07 JUMP JUMPDEST PUSH1 0x1F ADD PUSH1 0x20 SWAP1 DIV SWAP1 PUSH1 0x0 MSTORE PUSH1 0x20 PUSH1 0x0 KECCAK256 SWAP1 DUP2 ADD SWAP1 PUSH2 0x1D06 SWAP2 SWAP1 PUSH2 0x1D52 JUMP JUMPDEST JUMPDEST POP JUMP JUMPDEST POP DUP1 SLOAD PUSH1 0x0 DUP3 SSTORE PUSH1 0x5 MUL SWAP1 PUSH1 0x0 MSTORE PUSH1 0x20 PUSH1 0x0 KECCAK256 SWAP1 DUP2 ADD SWAP1 PUSH2 0x1D2B SWAP2 SWAP1 PUSH2 0x1D6F JUMP JUMPDEST POP JUMP JUMPDEST JUMPDEST DUP1 DUP3 GT ISZERO PUSH2 0x1D4E JUMPI PUSH1 0x0 DUP2 DUP2 PUSH2 0x1D45 SWAP2 SWAP1 PUSH2 0x1CCA JUMP JUMPDEST POP PUSH1 0x1 ADD PUSH2 0x1D2F JUMP JUMPDEST POP SWAP1 JUMP JUMPDEST JUMPDEST DUP1 DUP3 GT ISZERO PUSH2 0x1D6B JUMPI PUSH1 0x0 DUP2 PUSH1 0x0 SWAP1 SSTORE POP PUSH1 0x1 ADD PUSH2 0x1D53 JUMP JUMPDEST POP SWAP1 JUMP JUMPDEST JUMPDEST DUP1 DUP3 GT ISZERO PUSH2 0x1DD2 JUMPI PUSH1 0x0 DUP1 DUP3 ADD PUSH1 0x0 PUSH2 0x1D89 SWAP2 SWAP1 PUSH2 0x1CCA JUMP JUMPDEST PUSH1 0x1 DUP3 ADD PUSH1 0x0 PUSH2 0x1D99 SWAP2 SWAP1 PUSH2 0x1CCA JUMP JUMPDEST PUSH1 0x2 DUP3 ADD PUSH1 0x0 PUSH2 0x1DA9 SWAP2 SWAP1 PUSH2 0x1CCA JUMP JUMPDEST PUSH1 0x3 DUP3 ADD PUSH1 0x0 PUSH2 0x1DB9 SWAP2 SWAP1 PUSH2 0x1CCA JUMP JUMPDEST PUSH1 0x4 DUP3 ADD PUSH1 0x0 PUSH2 0x1DC9 SWAP2 SWAP1 PUSH2 0x1CCA JUMP JUMPDEST POP PUSH1 0x5 ADD PUSH2 0x1D70 JUMP JUMPDEST POP SWAP1 JUMP JUMPDEST PUSH1 0x0 PUSH2 0x1DE9 PUSH2 0x1DE4 DUP5 PUSH2 0x2670 JUMP JUMPDEST PUSH2 0x264B JUMP JUMPDEST SWAP1 POP DUP1 DUP4 DUP3 MSTORE PUSH1 0x20 DUP3 ADD SWAP1 POP DUP3 DUP6 PUSH1 0x20 DUP7 MUL DUP3 ADD GT ISZERO PUSH2 0x1E0C JUMPI PUSH2 0x1E0B PUSH2 0x28A6 JUMP JUMPDEST JUMPDEST PUSH1 0x0 JUMPDEST DUP6 DUP2 LT ISZERO PUSH2 0x1E5A JUMPI DUP2 CALLDATALOAD PUSH8 0xFFFFFFFFFFFFFFFF DUP2 GT ISZERO PUSH2 0x1E32 JUMPI PUSH2 0x1E31 PUSH2 0x28A1 JUMP JUMPDEST JUMPDEST DUP1 DUP7 ADD PUSH2 0x1E3F DUP10 DUP3 PUSH2 0x1EE9 JUMP JUMPDEST DUP6 MSTORE PUSH1 0x20 DUP6 ADD SWAP5 POP PUSH1 0x20 DUP5 ADD SWAP4 POP POP POP PUSH1 0x1 DUP2 ADD SWAP1 POP PUSH2 0x1E0F JUMP JUMPDEST POP POP POP SWAP4 SWAP3 POP POP POP JUMP JUMPDEST PUSH1 0x0 PUSH2 0x1E77 PUSH2 0x1E72 DUP5 PUSH2 0x269C JUMP JUMPDEST PUSH2 0x264B JUMP JUMPDEST SWAP1 POP DUP3 DUP2 MSTORE PUSH1 0x20 DUP2 ADD DUP5 DUP5 DUP5 ADD GT ISZERO PUSH2 0x1E93 JUMPI PUSH2 0x1E92 PUSH2 0x28AB JUMP JUMPDEST JUMPDEST PUSH2 0x1E9E DUP5 DUP3 DUP6 PUSH2 0x276F JUMP JUMPDEST POP SWAP4 SWAP3 POP POP POP JUMP JUMPDEST PUSH1 0x0 DUP2 CALLDATALOAD SWAP1 POP PUSH2 0x1EB5 DUP2 PUSH2 0x28CB JUMP JUMPDEST SWAP3 SWAP2 POP POP JUMP JUMPDEST PUSH1 0x0 DUP3 PUSH1 0x1F DUP4 ADD SLT PUSH2 0x1ED0 JUMPI PUSH2 0x1ECF PUSH2 0x28A1 JUMP JUMPDEST JUMPDEST DUP2 CALLDATALOAD PUSH2 0x1EE0 DUP5 DUP3 PUSH1 0x20 DUP7 ADD PUSH2 0x1DD6 JUMP JUMPDEST SWAP2 POP POP SWAP3 SWAP2 POP POP JUMP JUMPDEST PUSH1 0x0 DUP3 PUSH1 0x1F DUP4 ADD SLT PUSH2 0x1EFE JUMPI PUSH2 0x1EFD PUSH2 0x28A1 JUMP JUMPDEST JUMPDEST DUP2 CALLDATALOAD PUSH2 0x1F0E DUP5 DUP3 PUSH1 0x20 DUP7 ADD PUSH2 0x1E64 JUMP JUMPDEST SWAP2 POP POP SWAP3 SWAP2 POP POP JUMP JUMPDEST PUSH1 0x0 DUP2 CALLDATALOAD SWAP1 POP PUSH2 0x1F26 DUP2 PUSH2 0x28E2 JUMP JUMPDEST SWAP3 SWAP2 POP POP JUMP JUMPDEST PUSH1 0x0 PUSH1 0x20 DUP3 DUP5 SUB SLT ISZERO PUSH2 0x1F42 JUMPI PUSH2 0x1F41 PUSH2 0x28B5 JUMP JUMPDEST JUMPDEST PUSH1 0x0 PUSH2 0x1F50 DUP5 DUP3 DUP6 ADD PUSH2 0x1EA6 JUMP JUMPDEST SWAP2 POP POP SWAP3 SWAP2 POP POP JUMP JUMPDEST PUSH1 0x0 DUP1 PUSH1 0x0 PUSH1 0x60 DUP5 DUP7 SUB SLT ISZERO PUSH2 0x1F72 JUMPI PUSH2 0x1F71 PUSH2 0x28B5 JUMP JUMPDEST JUMPDEST PUSH1 0x0 DUP5 ADD CALLDATALOAD PUSH8 0xFFFFFFFFFFFFFFFF DUP2 GT ISZERO PUSH2 0x1F90 JUMPI PUSH2 0x1F8F PUSH2 0x28B0 JUMP JUMPDEST JUMPDEST PUSH2 0x1F9C DUP7 DUP3 DUP8 ADD PUSH2 0x1EBB JUMP JUMPDEST SWAP4 POP POP PUSH1 0x20 DUP5 ADD CALLDATALOAD PUSH8 0xFFFFFFFFFFFFFFFF DUP2 GT ISZERO PUSH2 0x1FBD JUMPI PUSH2 0x1FBC PUSH2 0x28B0 JUMP JUMPDEST JUMPDEST PUSH2 0x1FC9 DUP7 DUP3 DUP8 ADD PUSH2 0x1EBB JUMP JUMPDEST SWAP3 POP POP PUSH1 0x40 DUP5 ADD CALLDATALOAD PUSH8 0xFFFFFFFFFFFFFFFF DUP2 GT ISZERO PUSH2 0x1FEA JUMPI PUSH2 0x1FE9 PUSH2 0x28B0 JUMP JUMPDEST JUMPDEST PUSH2 0x1FF6 DUP7 DUP3 DUP8 ADD PUSH2 0x1EBB JUMP JUMPDEST SWAP2 POP POP SWAP3 POP SWAP3 POP SWAP3 JUMP JUMPDEST PUSH1 0x0 DUP1 PUSH1 0x0 DUP1 PUSH1 0x0 PUSH1 0xA0 DUP7 DUP9 SUB SLT ISZERO PUSH2 0x201C JUMPI PUSH2 0x201B PUSH2 0x28B5 JUMP JUMPDEST JUMPDEST PUSH1 0x0 DUP7 ADD CALLDATALOAD PUSH8 0xFFFFFFFFFFFFFFFF DUP2 GT ISZERO PUSH2 0x203A JUMPI PUSH2 0x2039 PUSH2 0x28B0 JUMP JUMPDEST JUMPDEST PUSH2 0x2046 DUP9 DUP3 DUP10 ADD PUSH2 0x1EE9 JUMP JUMPDEST SWAP6 POP POP PUSH1 0x20 DUP7 ADD CALLDATALOAD PUSH8 0xFFFFFFFFFFFFFFFF DUP2 GT ISZERO PUSH2 0x2067 JUMPI PUSH2 0x2066 PUSH2 0x28B0 JUMP JUMPDEST JUMPDEST PUSH2 0x2073 DUP9 DUP3 DUP10 ADD PUSH2 0x1EE9 JUMP JUMPDEST SWAP5 POP POP PUSH1 0x40 DUP7 ADD CALLDATALOAD PUSH8 0xFFFFFFFFFFFFFFFF DUP2 GT ISZERO PUSH2 0x2094 JUMPI PUSH2 0x2093 PUSH2 0x28B0 JUMP JUMPDEST JUMPDEST PUSH2 0x20A0 DUP9 DUP3 DUP10 ADD PUSH2 0x1EE9 JUMP JUMPDEST SWAP4 POP POP PUSH1 0x60 DUP7 ADD CALLDATALOAD PUSH8 0xFFFFFFFFFFFFFFFF DUP2 GT ISZERO PUSH2 0x20C1 JUMPI PUSH2 0x20C0 PUSH2 0x28B0 JUMP JUMPDEST JUMPDEST PUSH2 0x20CD DUP9 DUP3 DUP10 ADD PUSH2 0x1EE9 JUMP JUMPDEST SWAP3 POP POP PUSH1 0x80 DUP7 ADD CALLDATALOAD PUSH8 0xFFFFFFFFFFFFFFFF DUP2 GT ISZERO PUSH2 0x20EE JUMPI PUSH2 0x20ED PUSH2 0x28B0 JUMP JUMPDEST JUMPDEST PUSH2 0x20FA DUP9 DUP3 DUP10 ADD PUSH2 0x1EE9 JUMP JUMPDEST SWAP2 POP POP SWAP3 SWAP6 POP SWAP3 SWAP6 SWAP1 SWAP4 POP JUMP JUMPDEST PUSH1 0x0 DUP1 PUSH1 0x0 DUP1 PUSH1 0x0 DUP1 PUSH1 0xC0 DUP8 DUP10 SUB SLT ISZERO PUSH2 0x2124 JUMPI PUSH2 0x2123 PUSH2 0x28B5 JUMP JUMPDEST JUMPDEST PUSH1 0x0 DUP8 ADD CALLDATALOAD PUSH8 0xFFFFFFFFFFFFFFFF DUP2 GT ISZERO PUSH2 0x2142 JUMPI PUSH2 0x2141 PUSH2 0x28B0 JUMP JUMPDEST JUMPDEST PUSH2 0x214E DUP10 DUP3 DUP11 ADD PUSH2 0x1EE9 JUMP JUMPDEST SWAP7 POP POP PUSH1 0x20 DUP8 ADD CALLDATALOAD PUSH8 0xFFFFFFFFFFFFFFFF DUP2 GT ISZERO PUSH2 0x216F JUMPI PUSH2 0x216E PUSH2 0x28B0 JUMP JUMPDEST JUMPDEST PUSH2 0x217B DUP10 DUP3 DUP11 ADD PUSH2 0x1EE9 JUMP JUMPDEST SWAP6 POP POP PUSH1 0x40 DUP8 ADD CALLDATALOAD PUSH8 0xFFFFFFFFFFFFFFFF DUP2 GT ISZERO PUSH2 0x219C JUMPI PUSH2 0x219B PUSH2 0x28B0 JUMP JUMPDEST JUMPDEST PUSH2 0x21A8 DUP10 DUP3 DUP11 ADD PUSH2 0x1EE9 JUMP JUMPDEST SWAP5 POP POP PUSH1 0x60 DUP8 ADD CALLDATALOAD PUSH8 0xFFFFFFFFFFFFFFFF DUP2 GT ISZERO PUSH2 0x21C9 JUMPI PUSH2 0x21C8 PUSH2 0x28B0 JUMP JUMPDEST JUMPDEST PUSH2 0x21D5 DUP10 DUP3 DUP11 ADD PUSH2 0x1EE9 JUMP JUMPDEST SWAP4 POP POP PUSH1 0x80 DUP8 ADD CALLDATALOAD PUSH8 0xFFFFFFFFFFFFFFFF DUP2 GT ISZERO PUSH2 0x21F6 JUMPI PUSH2 0x21F5 PUSH2 0x28B0 JUMP JUMPDEST JUMPDEST PUSH2 0x2202 DUP10 DUP3 DUP11 ADD PUSH2 0x1EE9 JUMP JUMPDEST SWAP3 POP POP PUSH1 0xA0 DUP8 ADD CALLDATALOAD PUSH8 0xFFFFFFFFFFFFFFFF DUP2 GT ISZERO PUSH2 0x2223 JUMPI PUSH2 0x2222 PUSH2 0x28B0 JUMP JUMPDEST JUMPDEST PUSH2 0x222F DUP10 DUP3 DUP11 ADD PUSH2 0x1EE9 JUMP JUMPDEST SWAP2 POP POP SWAP3 SWAP6 POP SWAP3 SWAP6 POP SWAP3 SWAP6 JUMP JUMPDEST PUSH1 0x0 PUSH1 0x20 DUP3 DUP5 SUB SLT ISZERO PUSH2 0x2252 JUMPI PUSH2 0x2251 PUSH2 0x28B5 JUMP JUMPDEST JUMPDEST PUSH1 0x0 PUSH2 0x2260 DUP5 DUP3 DUP6 ADD PUSH2 0x1F17 JUMP JUMPDEST SWAP2 POP POP SWAP3 SWAP2 POP POP JUMP JUMPDEST PUSH1 0x0 PUSH2 0x2275 DUP4 DUP4 PUSH2 0x2301 JUMP JUMPDEST SWAP1 POP SWAP3 SWAP2 POP POP JUMP JUMPDEST PUSH2 0x2286 DUP2 PUSH2 0x2733 JUMP JUMPDEST DUP3 MSTORE POP POP JUMP JUMPDEST PUSH1 0x0 PUSH2 0x2297 DUP3 PUSH2 0x26DD JUMP JUMPDEST PUSH2 0x22A1 DUP2 DUP6 PUSH2 0x2700 JUMP JUMPDEST SWAP4 POP DUP4 PUSH1 0x20 DUP3 MUL DUP6 ADD PUSH2 0x22B3 DUP6 PUSH2 0x26CD JUMP JUMPDEST DUP1 PUSH1 0x0 JUMPDEST DUP6 DUP2 LT ISZERO PUSH2 0x22EF JUMPI DUP5 DUP5 SUB DUP10 MSTORE DUP2 MLOAD PUSH2 0x22D0 DUP6 DUP3 PUSH2 0x2269 JUMP JUMPDEST SWAP5 POP PUSH2 0x22DB DUP4 PUSH2 0x26F3 JUMP JUMPDEST SWAP3 POP PUSH1 0x20 DUP11 ADD SWAP10 POP POP PUSH1 0x1 DUP2 ADD SWAP1 POP PUSH2 0x22B7 JUMP JUMPDEST POP DUP3 SWAP8 POP DUP8 SWAP6 POP POP POP POP POP POP SWAP3 SWAP2 POP POP JUMP JUMPDEST PUSH1 0x0 PUSH2 0x230C DUP3 PUSH2 0x26E8 JUMP JUMPDEST PUSH2 0x2316 DUP2 DUP6 PUSH2 0x2711 JUMP JUMPDEST SWAP4 POP PUSH2 0x2326 DUP2 DUP6 PUSH1 0x20 DUP7 ADD PUSH2 0x277E JUMP JUMPDEST PUSH2 0x232F DUP2 PUSH2 0x28BA JUMP JUMPDEST DUP5 ADD SWAP2 POP POP SWAP3 SWAP2 POP POP JUMP JUMPDEST PUSH1 0x0 PUSH2 0x2345 DUP3 PUSH2 0x26E8 JUMP JUMPDEST PUSH2 0x234F DUP2 DUP6 PUSH2 0x2722 JUMP JUMPDEST SWAP4 POP PUSH2 0x235F DUP2 DUP6 PUSH1 0x20 DUP7 ADD PUSH2 0x277E JUMP JUMPDEST PUSH2 0x2368 DUP2 PUSH2 0x28BA JUMP JUMPDEST DUP5 ADD SWAP2 POP POP SWAP3 SWAP2 POP POP JUMP JUMPDEST PUSH1 0x0 PUSH1 0xC0 DUP4 ADD PUSH1 0x0 DUP4 ADD MLOAD DUP5 DUP3 SUB PUSH1 0x0 DUP7 ADD MSTORE PUSH2 0x2390 DUP3 DUP3 PUSH2 0x2301 JUMP JUMPDEST SWAP2 POP POP PUSH1 0x20 DUP4 ADD MLOAD DUP5 DUP3 SUB PUSH1 0x20 DUP7 ADD MSTORE PUSH2 0x23AA DUP3 DUP3 PUSH2 0x2301 JUMP JUMPDEST SWAP2 POP POP PUSH1 0x40 DUP4 ADD MLOAD DUP5 DUP3 SUB PUSH1 0x40 DUP7 ADD MSTORE PUSH2 0x23C4 DUP3 DUP3 PUSH2 0x2301 JUMP JUMPDEST SWAP2 POP POP PUSH1 0x60 DUP4 ADD MLOAD DUP5 DUP3 SUB PUSH1 0x60 DUP7 ADD MSTORE PUSH2 0x23DE DUP3 DUP3 PUSH2 0x2301 JUMP JUMPDEST SWAP2 POP POP PUSH1 0x80 DUP4 ADD MLOAD DUP5 DUP3 SUB PUSH1 0x80 DUP7 ADD MSTORE PUSH2 0x23F8 DUP3 DUP3 PUSH2 0x2301 JUMP JUMPDEST SWAP2 POP POP PUSH1 0xA0 DUP4 ADD MLOAD DUP5 DUP3 SUB PUSH1 0xA0 DUP7 ADD MSTORE PUSH2 0x2412 DUP3 DUP3 PUSH2 0x2301 JUMP JUMPDEST SWAP2 POP POP DUP1 SWAP2 POP POP SWAP3 SWAP2 POP POP JUMP JUMPDEST PUSH1 0x0 PUSH2 0x100 DUP4 ADD PUSH1 0x0 DUP4 ADD MLOAD DUP5 DUP3 SUB PUSH1 0x0 DUP7 ADD MSTORE PUSH2 0x243D DUP3 DUP3 PUSH2 0x2301 JUMP JUMPDEST SWAP2 POP POP PUSH1 0x20 DUP4 ADD MLOAD DUP5 DUP3 SUB PUSH1 0x20 DUP7 ADD MSTORE PUSH2 0x2457 DUP3 DUP3 PUSH2 0x2301 JUMP JUMPDEST SWAP2 POP POP PUSH1 0x40 DUP4 ADD MLOAD PUSH2 0x246C PUSH1 0x40 DUP7 ADD DUP3 PUSH2 0x227D JUMP JUMPDEST POP PUSH1 0x60 DUP4 ADD MLOAD DUP5 DUP3 SUB PUSH1 0x60 DUP7 ADD MSTORE PUSH2 0x2484 DUP3 DUP3 PUSH2 0x2301 JUMP JUMPDEST SWAP2 POP POP PUSH1 0x80 DUP4 ADD MLOAD DUP5 DUP3 SUB PUSH1 0x80 DUP7 ADD MSTORE PUSH2 0x249E DUP3 DUP3 PUSH2 0x2301 JUMP JUMPDEST SWAP2 POP POP PUSH1 0xA0 DUP4 ADD MLOAD DUP5 DUP3 SUB PUSH1 0xA0 DUP7 ADD MSTORE PUSH2 0x24B8 DUP3 DUP3 PUSH2 0x2301 JUMP JUMPDEST SWAP2 POP POP PUSH1 0xC0 DUP4 ADD MLOAD DUP5 DUP3 SUB PUSH1 0xC0 DUP7 ADD MSTORE PUSH2 0x24D2 DUP3 DUP3 PUSH2 0x2301 JUMP JUMPDEST SWAP2 POP POP PUSH1 0xE0 DUP4 ADD MLOAD PUSH2 0x24E7 PUSH1 0xE0 DUP7 ADD DUP3 PUSH2 0x2550 JUMP JUMPDEST POP DUP1 SWAP2 POP POP SWAP3 SWAP2 POP POP JUMP JUMPDEST PUSH1 0x0 PUSH1 0x60 DUP4 ADD PUSH1 0x0 DUP4 ADD MLOAD DUP5 DUP3 SUB PUSH1 0x0 DUP7 ADD MSTORE PUSH2 0x250F DUP3 DUP3 PUSH2 0x228C JUMP JUMPDEST SWAP2 POP POP PUSH1 0x20 DUP4 ADD MLOAD DUP5 DUP3 SUB PUSH1 0x20 DUP7 ADD MSTORE PUSH2 0x2529 DUP3 DUP3 PUSH2 0x228C JUMP JUMPDEST SWAP2 POP POP PUSH1 0x40 DUP4 ADD MLOAD DUP5 DUP3 SUB PUSH1 0x40 DUP7 ADD MSTORE PUSH2 0x2543 DUP3 DUP3 PUSH2 0x228C JUMP JUMPDEST SWAP2 POP POP DUP1 SWAP2 POP POP SWAP3 SWAP2 POP POP JUMP JUMPDEST PUSH2 0x2559 DUP2 PUSH2 0x2765 JUMP JUMPDEST DUP3 MSTORE POP POP JUMP JUMPDEST PUSH2 0x2568 DUP2 PUSH2 0x2765 JUMP JUMPDEST DUP3 MSTORE POP POP JUMP JUMPDEST PUSH1 0x0 PUSH1 0xA0 DUP3 ADD SWAP1 POP DUP2 DUP2 SUB PUSH1 0x0 DUP4 ADD MSTORE PUSH2 0x2588 DUP2 DUP9 PUSH2 0x233A JUMP JUMPDEST SWAP1 POP DUP2 DUP2 SUB PUSH1 0x20 DUP4 ADD MSTORE PUSH2 0x259C DUP2 DUP8 PUSH2 0x233A JUMP JUMPDEST SWAP1 POP DUP2 DUP2 SUB PUSH1 0x40 DUP4 ADD MSTORE PUSH2 0x25B0 DUP2 DUP7 PUSH2 0x233A JUMP JUMPDEST SWAP1 POP DUP2 DUP2 SUB PUSH1 0x60 DUP4 ADD MSTORE PUSH2 0x25C4 DUP2 DUP6 PUSH2 0x233A JUMP JUMPDEST SWAP1 POP DUP2 DUP2 SUB PUSH1 0x80 DUP4 ADD MSTORE PUSH2 0x25D8 DUP2 DUP5 PUSH2 0x233A JUMP JUMPDEST SWAP1 POP SWAP7 SWAP6 POP POP POP POP POP POP JUMP JUMPDEST PUSH1 0x0 PUSH1 0x60 DUP3 ADD SWAP1 POP DUP2 DUP2 SUB PUSH1 0x0 DUP4 ADD MSTORE PUSH2 0x25FE DUP2 DUP7 PUSH2 0x241F JUMP JUMPDEST SWAP1 POP DUP2 DUP2 SUB PUSH1 0x20 DUP4 ADD MSTORE PUSH2 0x2612 DUP2 DUP6 PUSH2 0x2373 JUMP JUMPDEST SWAP1 POP DUP2 DUP2 SUB PUSH1 0x40 DUP4 ADD MSTORE PUSH2 0x2626 DUP2 DUP5 PUSH2 0x24F2 JUMP JUMPDEST SWAP1 POP SWAP5 SWAP4 POP POP POP POP JUMP JUMPDEST PUSH1 0x0 PUSH1 0x20 DUP3 ADD SWAP1 POP PUSH2 0x2645 PUSH1 0x0 DUP4 ADD DUP5 PUSH2 0x255F JUMP JUMPDEST SWAP3 SWAP2 POP POP JUMP JUMPDEST PUSH1 0x0 PUSH2 0x2655 PUSH2 0x2666 JUMP JUMPDEST SWAP1 POP PUSH2 0x2661 DUP3 DUP3 PUSH2 0x27E3 JUMP JUMPDEST SWAP2 SWAP1 POP JUMP JUMPDEST PUSH1 0x0 PUSH1 0x40 MLOAD SWAP1 POP SWAP1 JUMP JUMPDEST PUSH1 0x0 PUSH8 0xFFFFFFFFFFFFFFFF DUP3 GT ISZERO PUSH2 0x268B JUMPI PUSH2 0x268A PUSH2 0x2872 JUMP JUMPDEST JUMPDEST PUSH1 0x20 DUP3 MUL SWAP1 POP PUSH1 0x20 DUP2 ADD SWAP1 POP SWAP2 SWAP1 POP JUMP JUMPDEST PUSH1 0x0 PUSH8 0xFFFFFFFFFFFFFFFF DUP3 GT ISZERO PUSH2 0x26B7 JUMPI PUSH2 0x26B6 PUSH2 0x2872 JUMP JUMPDEST JUMPDEST PUSH2 0x26C0 DUP3 PUSH2 0x28BA JUMP JUMPDEST SWAP1 POP PUSH1 0x20 DUP2 ADD SWAP1 POP SWAP2 SWAP1 POP JUMP JUMPDEST PUSH1 0x0 DUP2 SWAP1 POP PUSH1 0x20 DUP3 ADD SWAP1 POP SWAP2 SWAP1 POP JUMP JUMPDEST PUSH1 0x0 DUP2 MLOAD SWAP1 POP SWAP2 SWAP1 POP JUMP JUMPDEST PUSH1 0x0 DUP2 MLOAD SWAP1 POP SWAP2 SWAP1 POP JUMP JUMPDEST PUSH1 0x0 PUSH1 0x20 DUP3 ADD SWAP1 POP SWAP2 SWAP1 POP JUMP JUMPDEST PUSH1 0x0 DUP3 DUP3 MSTORE PUSH1 0x20 DUP3 ADD SWAP1 POP SWAP3 SWAP2 POP POP JUMP JUMPDEST PUSH1 0x0 DUP3 DUP3 MSTORE PUSH1 0x20 DUP3 ADD SWAP1 POP SWAP3 SWAP2 POP POP JUMP JUMPDEST PUSH1 0x0 DUP3 DUP3 MSTORE PUSH1 0x20 DUP3 ADD SWAP1 POP SWAP3 SWAP2 POP POP JUMP JUMPDEST PUSH1 0x0 PUSH2 0x273E DUP3 PUSH2 0x2745 JUMP JUMPDEST SWAP1 POP SWAP2 SWAP1 POP JUMP JUMPDEST PUSH1 0x0 PUSH20 0xFFFFFFFFFFFFFFFFFFFFFFFFFFFFFFFFFFFFFFFF DUP3 AND SWAP1 POP SWAP2 SWAP1 POP JUMP JUMPDEST PUSH1 0x0 DUP2 SWAP1 POP SWAP2 SWAP1 POP JUMP JUMPDEST DUP3 DUP2 DUP4 CALLDATACOPY PUSH1 0x0 DUP4 DUP4 ADD MSTORE POP POP POP JUMP JUMPDEST PUSH1 0x0 JUMPDEST DUP4 DUP2 LT ISZERO PUSH2 0x279C JUMPI DUP1 DUP3 ADD MLOAD DUP2 DUP5 ADD MSTORE PUSH1 0x20 DUP2 ADD SWAP1 POP PUSH2 0x2781 JUMP JUMPDEST DUP4 DUP2 GT ISZERO PUSH2 0x27AB JUMPI PUSH1 0x0 DUP5 DUP5 ADD MSTORE JUMPDEST POP POP POP POP JUMP JUMPDEST PUSH1 0x0 PUSH1 0x2 DUP3 DIV SWAP1 POP PUSH1 0x1 DUP3 AND DUP1 PUSH2 0x27C9 JUMPI PUSH1 0x7F DUP3 AND SWAP2 POP JUMPDEST PUSH1 0x20 DUP3 LT DUP2 EQ ISZERO PUSH2 0x27DD JUMPI PUSH2 0x27DC PUSH2 0x2814 JUMP JUMPDEST JUMPDEST POP SWAP2 SWAP1 POP JUMP JUMPDEST PUSH2 0x27EC DUP3 PUSH2 0x28BA JUMP JUMPDEST DUP2 ADD DUP2 DUP2 LT PUSH8 0xFFFFFFFFFFFFFFFF DUP3 GT OR ISZERO PUSH2 0x280B JUMPI PUSH2 0x280A PUSH2 0x2872 JUMP JUMPDEST JUMPDEST DUP1 PUSH1 0x40 MSTORE POP POP POP JUMP JUMPDEST PUSH32 0x4E487B7100000000000000000000000000000000000000000000000000000000 PUSH1 0x0 MSTORE PUSH1 0x22 PUSH1 0x4 MSTORE PUSH1 0x24 PUSH1 0x0 REVERT JUMPDEST PUSH32 0x4E487B7100000000000000000000000000000000000000000000000000000000 PUSH1 0x0 MSTORE PUSH1 0x32 PUSH1 0x4 MSTORE PUSH1 0x24 PUSH1 0x0 REVERT JUMPDEST PUSH32 0x4E487B7100000000000000000000000000000000000000000000000000000000 PUSH1 0x0 MSTORE PUSH1 0x41 PUSH1 0x4 MSTORE PUSH1 0x24 PUSH1 0x0 REVERT JUMPDEST PUSH1 0x0 DUP1 REVERT JUMPDEST PUSH1 0x0 DUP1 REVERT JUMPDEST PUSH1 0x0 DUP1 REVERT JUMPDEST PUSH1 0x0 DUP1 REVERT JUMPDEST PUSH1 0x0 DUP1 REVERT JUMPDEST PUSH1 0x0 PUSH1 0x1F NOT PUSH1 0x1F DUP4 ADD AND SWAP1 POP SWAP2 SWAP1 POP JUMP JUMPDEST PUSH2 0x28D4 DUP2 PUSH2 0x2733 JUMP JUMPDEST DUP2 EQ PUSH2 0x28DF JUMPI PUSH1 0x0 DUP1 REVERT JUMPDEST POP JUMP JUMPDEST PUSH2 0x28EB DUP2 PUSH2 0x2765 JUMP JUMPDEST DUP2 EQ PUSH2 0x28F6 JUMPI PUSH1 0x0 DUP1 REVERT JUMPDEST POP JUMP INVALID LOG2 PUSH5 0x6970667358 0x22 SLT KECCAK256 0xD7 0xC0 0x5D CODESIZE 0x25 0x21 0x1E SWAP14 SWAP12 SWAP1 0xE8 DUP15 0xE4 PUSH7 0x39BD6689A9AFB1 0xC1 DELEGATECALL 0x5C 0xEA CODESIZE CALLDATACOPY 0xB8 DUP15 0x2B PUSH7 0x9564736F6C6343 STOP ADDMOD SMOD STOP CALLER "
				},
				"gasEstimates": {
					"creation": {
						"codeDepositCost": "2108600",
						"executionCost": "2243",
						"totalCost": "2110843"
					},
					"external": {
						"createContract(string,string,string,string,string)": "infinite",
						"createInformation(string,string,string,string,string,string)": "infinite",
						"createSkill(string[],string[],string[])": "infinite",
						"createUnivercity(string,string,string,string,string)": "infinite",
						"delAllEducation()": "infinite",
						"delInformaion()": "infinite",
						"delProfile()": "infinite",
						"getEducation(uint256)": "infinite",
						"getEducationCount()": "2563",
						"profile(address)": "infinite"
					}
				},
				"methodIdentifiers": {
					"createContract(string,string,string,string,string)": "72828388",
					"createInformation(string,string,string,string,string,string)": "958791ae",
					"createSkill(string[],string[],string[])": "3d984d0e",
					"createUnivercity(string,string,string,string,string)": "66244dfb",
					"delAllEducation()": "ed2217ef",
					"delInformaion()": "95ea3757",
					"delProfile()": "fabce08f",
					"getEducation(uint256)": "f96e32f8",
					"getEducationCount()": "6212fa02",
					"profile(address)": "9dd9d0fd"
				}
			},
			"storageLayout": {
				"storage": [
					{
						"astId": 20,
						"contract": "contracts/Profile.sol:Profile",
						"label": "profile",
						"offset": 0,
						"slot": "0",
						"type": "t_mapping(t_address,t_struct(Bio)15_storage)"
					}
				],
				"types": {
					"t_address": {
						"encoding": "inplace",
						"label": "address",
						"numberOfBytes": "20"
					},
					"t_array(t_string_storage)dyn_storage": {
						"base": "t_string_storage",
						"encoding": "dynamic_array",
						"label": "string[]",
						"numberOfBytes": "32"
					},
					"t_array(t_struct(Education)71_storage)dyn_storage": {
						"base": "t_struct(Education)71_storage",
						"encoding": "dynamic_array",
						"label": "struct Profile.Education[]",
						"numberOfBytes": "32"
					},
					"t_mapping(t_address,t_struct(Bio)15_storage)": {
						"encoding": "mapping",
						"key": "t_address",
						"label": "mapping(address => struct Profile.Bio)",
						"numberOfBytes": "32",
						"value": "t_struct(Bio)15_storage"
					},
					"t_string_storage": {
						"encoding": "bytes",
						"label": "string",
						"numberOfBytes": "32"
					},
					"t_struct(Bio)15_storage": {
						"encoding": "inplace",
						"label": "struct Profile.Bio",
						"members": [
							{
								"astId": 4,
								"contract": "contracts/Profile.sol:Profile",
								"label": "information",
								"offset": 0,
								"slot": "0",
								"type": "t_struct(Information)37_storage"
							},
							{
								"astId": 7,
								"contract": "contracts/Profile.sol:Profile",
								"label": "privateContract",
								"offset": 0,
								"slot": "8",
								"type": "t_struct(Contract)50_storage"
							},
							{
								"astId": 10,
								"contract": "contracts/Profile.sol:Profile",
								"label": "skill",
								"offset": 0,
								"slot": "14",
								"type": "t_struct(Skill)60_storage"
							},
							{
								"astId": 14,
								"contract": "contracts/Profile.sol:Profile",
								"label": "education",
								"offset": 0,
								"slot": "17",
								"type": "t_array(t_struct(Education)71_storage)dyn_storage"
							}
						],
						"numberOfBytes": "576"
					},
					"t_struct(Contract)50_storage": {
						"encoding": "inplace",
						"label": "struct Profile.Contract",
						"members": [
							{
								"astId": 39,
								"contract": "contracts/Profile.sol:Profile",
								"label": "aboutMe",
								"offset": 0,
								"slot": "0",
								"type": "t_string_storage"
							},
							{
								"astId": 41,
								"contract": "contracts/Profile.sol:Profile",
								"label": "email",
								"offset": 0,
								"slot": "1",
								"type": "t_string_storage"
							},
							{
								"astId": 43,
								"contract": "contracts/Profile.sol:Profile",
								"label": "phone",
								"offset": 0,
								"slot": "2",
								"type": "t_string_storage"
							},
							{
								"astId": 45,
								"contract": "contracts/Profile.sol:Profile",
								"label": "github",
								"offset": 0,
								"slot": "3",
								"type": "t_string_storage"
							},
							{
								"astId": 47,
								"contract": "contracts/Profile.sol:Profile",
								"label": "gitlab",
								"offset": 0,
								"slot": "4",
								"type": "t_string_storage"
							},
							{
								"astId": 49,
								"contract": "contracts/Profile.sol:Profile",
								"label": "linkin",
								"offset": 0,
								"slot": "5",
								"type": "t_string_storage"
							}
						],
						"numberOfBytes": "192"
					},
					"t_struct(Education)71_storage": {
						"encoding": "inplace",
						"label": "struct Profile.Education",
						"members": [
							{
								"astId": 62,
								"contract": "contracts/Profile.sol:Profile",
								"label": "startDate",
								"offset": 0,
								"slot": "0",
								"type": "t_string_storage"
							},
							{
								"astId": 64,
								"contract": "contracts/Profile.sol:Profile",
								"label": "endDate",
								"offset": 0,
								"slot": "1",
								"type": "t_string_storage"
							},
							{
								"astId": 66,
								"contract": "contracts/Profile.sol:Profile",
								"label": "univercity",
								"offset": 0,
								"slot": "2",
								"type": "t_string_storage"
							},
							{
								"astId": 68,
								"contract": "contracts/Profile.sol:Profile",
								"label": "major",
								"offset": 0,
								"slot": "3",
								"type": "t_string_storage"
							},
							{
								"astId": 70,
								"contract": "contracts/Profile.sol:Profile",
								"label": "finalProject",
								"offset": 0,
								"slot": "4",
								"type": "t_string_storage"
							}
						],
						"numberOfBytes": "160"
					},
					"t_struct(Information)37_storage": {
						"encoding": "inplace",
						"label": "struct Profile.Information",
						"members": [
							{
								"astId": 22,
								"contract": "contracts/Profile.sol:Profile",
								"label": "aboutMe",
								"offset": 0,
								"slot": "0",
								"type": "t_string_storage"
							},
							{
								"astId": 24,
								"contract": "contracts/Profile.sol:Profile",
								"label": "position",
								"offset": 0,
								"slot": "1",
								"type": "t_string_storage"
							},
							{
								"astId": 26,
								"contract": "contracts/Profile.sol:Profile",
								"label": "userAddress",
								"offset": 0,
								"slot": "2",
								"type": "t_address"
							},
							{
								"astId": 28,
								"contract": "contracts/Profile.sol:Profile",
								"label": "firstName",
								"offset": 0,
								"slot": "3",
								"type": "t_string_storage"
							},
							{
								"astId": 30,
								"contract": "contracts/Profile.sol:Profile",
								"label": "middleName",
								"offset": 0,
								"slot": "4",
								"type": "t_string_storage"
							},
							{
								"astId": 32,
								"contract": "contracts/Profile.sol:Profile",
								"label": "lastName",
								"offset": 0,
								"slot": "5",
								"type": "t_string_storage"
							},
							{
								"astId": 34,
								"contract": "contracts/Profile.sol:Profile",
								"label": "profileImage",
								"offset": 0,
								"slot": "6",
								"type": "t_string_storage"
							},
							{
								"astId": 36,
								"contract": "contracts/Profile.sol:Profile",
								"label": "createDate",
								"offset": 0,
								"slot": "7",
								"type": "t_uint256"
							}
						],
						"numberOfBytes": "256"
					},
					"t_struct(Skill)60_storage": {
						"encoding": "inplace",
						"label": "struct Profile.Skill",
						"members": [
							{
								"astId": 53,
								"contract": "contracts/Profile.sol:Profile",
								"label": "programmingLanguages",
								"offset": 0,
								"slot": "0",
								"type": "t_array(t_string_storage)dyn_storage"
							},
							{
								"astId": 56,
								"contract": "contracts/Profile.sol:Profile",
								"label": "framework",
								"offset": 0,
								"slot": "1",
								"type": "t_array(t_string_storage)dyn_storage"
							},
							{
								"astId": 59,
								"contract": "contracts/Profile.sol:Profile",
								"label": "databaseAndOther",
								"offset": 0,
								"slot": "2",
								"type": "t_array(t_string_storage)dyn_storage"
							}
						],
						"numberOfBytes": "96"
					},
					"t_uint256": {
						"encoding": "inplace",
						"label": "uint256",
						"numberOfBytes": "32"
					}
				}
			},
			"userdoc": {
				"kind": "user",
				"methods": {},
				"version": 1
			}
		}
	}
}