{
	"contracts/Profile.sol": {
		"Profile": {
			"abi": [
				{
					"inputs": [
						{
							"internalType": "string",
							"name": "firstName",
							"type": "string"
						},
						{
							"internalType": "string",
							"name": "middleName",
							"type": "string"
						},
						{
							"internalType": "string",
							"name": "lastName",
							"type": "string"
						}
					],
					"name": "addBio",
					"outputs": [],
					"stateMutability": "nonpayable",
					"type": "function"
				},
				{
					"inputs": [],
					"name": "getBio",
					"outputs": [
						{
							"components": [
								{
									"internalType": "string",
									"name": "firstName",
									"type": "string"
								},
								{
									"internalType": "string",
									"name": "middleName",
									"type": "string"
								},
								{
									"internalType": "string",
									"name": "lastName",
									"type": "string"
								}
							],
							"internalType": "struct Profile.Bio",
							"name": "",
							"type": "tuple"
						}
					],
					"stateMutability": "view",
					"type": "function"
				}
			],
			"devdoc": {
				"kind": "dev",
				"methods": {},
				"version": 1
			},
			"evm": {
				"assembly": "    /* \"contracts/Profile.sol\":64:621  contract Profile {\r... */\n  mstore(0x40, 0x80)\n  callvalue\n  dup1\n  iszero\n  tag_1\n  jumpi\n  0x00\n  dup1\n  revert\ntag_1:\n  pop\n  dataSize(sub_0)\n  dup1\n  dataOffset(sub_0)\n  0x00\n  codecopy\n  0x00\n  return\nstop\n\nsub_0: assembly {\n        /* \"contracts/Profile.sol\":64:621  contract Profile {\r... */\n      mstore(0x40, 0x80)\n      callvalue\n      dup1\n      iszero\n      tag_1\n      jumpi\n      0x00\n      dup1\n      revert\n    tag_1:\n      pop\n      jumpi(tag_2, lt(calldatasize, 0x04))\n      shr(0xe0, calldataload(0x00))\n      dup1\n      0xfa165e8f\n      eq\n      tag_3\n      jumpi\n      dup1\n      0xffb40209\n      eq\n      tag_4\n      jumpi\n    tag_2:\n      0x00\n      dup1\n      revert\n        /* \"contracts/Profile.sol\":515:612  function getBio() public view returns(Bio memory ) {\r... */\n    tag_3:\n      tag_5\n      tag_6\n      jump\t// in\n    tag_5:\n      mload(0x40)\n      tag_7\n      swap2\n      swap1\n      tag_8\n      jump\t// in\n    tag_7:\n      mload(0x40)\n      dup1\n      swap2\n      sub\n      swap1\n      return\n        /* \"contracts/Profile.sol\":244:506  function addBio(string memory firstName, string memory middleName, string memory lastName) public {\r... */\n    tag_4:\n      tag_9\n      0x04\n      dup1\n      calldatasize\n      sub\n      dup2\n      add\n      swap1\n      tag_10\n      swap2\n      swap1\n      tag_11\n      jump\t// in\n    tag_10:\n      tag_12\n      jump\t// in\n    tag_9:\n      stop\n        /* \"contracts/Profile.sol\":515:612  function getBio() public view returns(Bio memory ) {\r... */\n    tag_6:\n        /* \"contracts/Profile.sol\":553:563  Bio memory */\n      tag_13\n      tag_14\n      jump\t// in\n    tag_13:\n        /* \"contracts/Profile.sol\":585:592  profile */\n      0x00\n        /* \"contracts/Profile.sol\":585:604  profile[msg.sender] */\n      dup1\n        /* \"contracts/Profile.sol\":593:603  msg.sender */\n      caller\n        /* \"contracts/Profile.sol\":585:604  profile[msg.sender] */\n      0xffffffffffffffffffffffffffffffffffffffff\n      and\n      0xffffffffffffffffffffffffffffffffffffffff\n      and\n      dup2\n      mstore\n      0x20\n      add\n      swap1\n      dup2\n      mstore\n      0x20\n      add\n      0x00\n      keccak256\n        /* \"contracts/Profile.sol\":577:604  return  profile[msg.sender] */\n      mload(0x40)\n      dup1\n      0x60\n      add\n      0x40\n      mstore\n      swap1\n      dup2\n      0x00\n      dup3\n      add\n      dup1\n      sload\n      tag_16\n      swap1\n      tag_17\n      jump\t// in\n    tag_16:\n      dup1\n      0x1f\n      add\n      0x20\n      dup1\n      swap2\n      div\n      mul\n      0x20\n      add\n      mload(0x40)\n      swap1\n      dup2\n      add\n      0x40\n      mstore\n      dup1\n      swap3\n      swap2\n      swap1\n      dup2\n      dup2\n      mstore\n      0x20\n      add\n      dup3\n      dup1\n      sload\n      tag_18\n      swap1\n      tag_17\n      jump\t// in\n    tag_18:\n      dup1\n      iszero\n      tag_19\n      jumpi\n      dup1\n      0x1f\n      lt\n      tag_20\n      jumpi\n      0x0100\n      dup1\n      dup4\n      sload\n      div\n      mul\n      dup4\n      mstore\n      swap2\n      0x20\n      add\n      swap2\n      jump(tag_19)\n    tag_20:\n      dup3\n      add\n      swap2\n      swap1\n      0x00\n      mstore\n      keccak256(0x00, 0x20)\n      swap1\n    tag_21:\n      dup2\n      sload\n      dup2\n      mstore\n      swap1\n      0x01\n      add\n      swap1\n      0x20\n      add\n      dup1\n      dup4\n      gt\n      tag_21\n      jumpi\n      dup3\n      swap1\n      sub\n      0x1f\n      and\n      dup3\n      add\n      swap2\n    tag_19:\n      pop\n      pop\n      pop\n      pop\n      pop\n      dup2\n      mstore\n      0x20\n      add\n      0x01\n      dup3\n      add\n      dup1\n      sload\n      tag_22\n      swap1\n      tag_17\n      jump\t// in\n    tag_22:\n      dup1\n      0x1f\n      add\n      0x20\n      dup1\n      swap2\n      div\n      mul\n      0x20\n      add\n      mload(0x40)\n      swap1\n      dup2\n      add\n      0x40\n      mstore\n      dup1\n      swap3\n      swap2\n      swap1\n      dup2\n      dup2\n      mstore\n      0x20\n      add\n      dup3\n      dup1\n      sload\n      tag_23\n      swap1\n      tag_17\n      jump\t// in\n    tag_23:\n      dup1\n      iszero\n      tag_24\n      jumpi\n      dup1\n      0x1f\n      lt\n      tag_25\n      jumpi\n      0x0100\n      dup1\n      dup4\n      sload\n      div\n      mul\n      dup4\n      mstore\n      swap2\n      0x20\n      add\n      swap2\n      jump(tag_24)\n    tag_25:\n      dup3\n      add\n      swap2\n      swap1\n      0x00\n      mstore\n      keccak256(0x00, 0x20)\n      swap1\n    tag_26:\n      dup2\n      sload\n      dup2\n      mstore\n      swap1\n      0x01\n      add\n      swap1\n      0x20\n      add\n      dup1\n      dup4\n      gt\n      tag_26\n      jumpi\n      dup3\n      swap1\n      sub\n      0x1f\n      and\n      dup3\n      add\n      swap2\n    tag_24:\n      pop\n      pop\n      pop\n      pop\n      pop\n      dup2\n      mstore\n      0x20\n      add\n      0x02\n      dup3\n      add\n      dup1\n      sload\n      tag_27\n      swap1\n      tag_17\n      jump\t// in\n    tag_27:\n      dup1\n      0x1f\n      add\n      0x20\n      dup1\n      swap2\n      div\n      mul\n      0x20\n      add\n      mload(0x40)\n      swap1\n      dup2\n      add\n      0x40\n      mstore\n      dup1\n      swap3\n      swap2\n      swap1\n      dup2\n      dup2\n      mstore\n      0x20\n      add\n      dup3\n      dup1\n      sload\n      tag_28\n      swap1\n      tag_17\n      jump\t// in\n    tag_28:\n      dup1\n      iszero\n      tag_29\n      jumpi\n      dup1\n      0x1f\n      lt\n      tag_30\n      jumpi\n      0x0100\n      dup1\n      dup4\n      sload\n      div\n      mul\n      dup4\n      mstore\n      swap2\n      0x20\n      add\n      swap2\n      jump(tag_29)\n    tag_30:\n      dup3\n      add\n      swap2\n      swap1\n      0x00\n      mstore\n      keccak256(0x00, 0x20)\n      swap1\n    tag_31:\n      dup2\n      sload\n      dup2\n      mstore\n      swap1\n      0x01\n      add\n      swap1\n      0x20\n      add\n      dup1\n      dup4\n      gt\n      tag_31\n      jumpi\n      dup3\n      swap1\n      sub\n      0x1f\n      and\n      dup3\n      add\n      swap2\n    tag_29:\n      pop\n      pop\n      pop\n      pop\n      pop\n      dup2\n      mstore\n      pop\n      pop\n      swap1\n      pop\n        /* \"contracts/Profile.sol\":515:612  function getBio() public view returns(Bio memory ) {\r... */\n      swap1\n      jump\t// out\n        /* \"contracts/Profile.sol\":244:506  function addBio(string memory firstName, string memory middleName, string memory lastName) public {\r... */\n    tag_12:\n        /* \"contracts/Profile.sol\":385:394  firstName */\n      dup3\n        /* \"contracts/Profile.sol\":353:360  profile */\n      0x00\n        /* \"contracts/Profile.sol\":353:372  profile[msg.sender] */\n      dup1\n        /* \"contracts/Profile.sol\":361:371  msg.sender */\n      caller\n        /* \"contracts/Profile.sol\":353:372  profile[msg.sender] */\n      0xffffffffffffffffffffffffffffffffffffffff\n      and\n      0xffffffffffffffffffffffffffffffffffffffff\n      and\n      dup2\n      mstore\n      0x20\n      add\n      swap1\n      dup2\n      mstore\n      0x20\n      add\n      0x00\n      keccak256\n        /* \"contracts/Profile.sol\":353:382  profile[msg.sender].firstName */\n      0x00\n      add\n        /* \"contracts/Profile.sol\":353:394  profile[msg.sender].firstName = firstName */\n      swap1\n      dup1\n      mload\n      swap1\n      0x20\n      add\n      swap1\n      tag_33\n      swap3\n      swap2\n      swap1\n      tag_34\n      jump\t// in\n    tag_33:\n      pop\n        /* \"contracts/Profile.sol\":438:448  middleName */\n      dup2\n        /* \"contracts/Profile.sol\":405:412  profile */\n      0x00\n        /* \"contracts/Profile.sol\":405:424  profile[msg.sender] */\n      dup1\n        /* \"contracts/Profile.sol\":413:423  msg.sender */\n      caller\n        /* \"contracts/Profile.sol\":405:424  profile[msg.sender] */\n      0xffffffffffffffffffffffffffffffffffffffff\n      and\n      0xffffffffffffffffffffffffffffffffffffffff\n      and\n      dup2\n      mstore\n      0x20\n      add\n      swap1\n      dup2\n      mstore\n      0x20\n      add\n      0x00\n      keccak256\n        /* \"contracts/Profile.sol\":405:435  profile[msg.sender].middleName */\n      0x01\n      add\n        /* \"contracts/Profile.sol\":405:448  profile[msg.sender].middleName = middleName */\n      swap1\n      dup1\n      mload\n      swap1\n      0x20\n      add\n      swap1\n      tag_35\n      swap3\n      swap2\n      swap1\n      tag_34\n      jump\t// in\n    tag_35:\n      pop\n        /* \"contracts/Profile.sol\":490:498  lastName */\n      dup1\n        /* \"contracts/Profile.sol\":459:466  profile */\n      0x00\n        /* \"contracts/Profile.sol\":459:478  profile[msg.sender] */\n      dup1\n        /* \"contracts/Profile.sol\":467:477  msg.sender */\n      caller\n        /* \"contracts/Profile.sol\":459:478  profile[msg.sender] */\n      0xffffffffffffffffffffffffffffffffffffffff\n      and\n      0xffffffffffffffffffffffffffffffffffffffff\n      and\n      dup2\n      mstore\n      0x20\n      add\n      swap1\n      dup2\n      mstore\n      0x20\n      add\n      0x00\n      keccak256\n        /* \"contracts/Profile.sol\":459:487  profile[msg.sender].lastName */\n      0x02\n      add\n        /* \"contracts/Profile.sol\":459:498  profile[msg.sender].lastName = lastName */\n      swap1\n      dup1\n      mload\n      swap1\n      0x20\n      add\n      swap1\n      tag_36\n      swap3\n      swap2\n      swap1\n      tag_34\n      jump\t// in\n    tag_36:\n      pop\n        /* \"contracts/Profile.sol\":244:506  function addBio(string memory firstName, string memory middleName, string memory lastName) public {\r... */\n      pop\n      pop\n      pop\n      jump\t// out\n    tag_14:\n      mload(0x40)\n      dup1\n      0x60\n      add\n      0x40\n      mstore\n      dup1\n      0x60\n      dup2\n      mstore\n      0x20\n      add\n      0x60\n      dup2\n      mstore\n      0x20\n      add\n      0x60\n      dup2\n      mstore\n      pop\n      swap1\n      jump\t// out\n    tag_34:\n      dup3\n      dup1\n      sload\n      tag_37\n      swap1\n      tag_17\n      jump\t// in\n    tag_37:\n      swap1\n      0x00\n      mstore\n      keccak256(0x00, 0x20)\n      swap1\n      0x1f\n      add\n      0x20\n      swap1\n      div\n      dup2\n      add\n      swap3\n      dup3\n      tag_39\n      jumpi\n      0x00\n      dup6\n      sstore\n      jump(tag_38)\n    tag_39:\n      dup3\n      0x1f\n      lt\n      tag_40\n      jumpi\n      dup1\n      mload\n      not(0xff)\n      and\n      dup4\n      dup1\n      add\n      or\n      dup6\n      sstore\n      jump(tag_38)\n    tag_40:\n      dup3\n      dup1\n      add\n      0x01\n      add\n      dup6\n      sstore\n      dup3\n      iszero\n      tag_38\n      jumpi\n      swap2\n      dup3\n      add\n    tag_41:\n      dup3\n      dup2\n      gt\n      iszero\n      tag_42\n      jumpi\n      dup3\n      mload\n      dup3\n      sstore\n      swap2\n      0x20\n      add\n      swap2\n      swap1\n      0x01\n      add\n      swap1\n      jump(tag_41)\n    tag_42:\n    tag_38:\n      pop\n      swap1\n      pop\n      tag_43\n      swap2\n      swap1\n      tag_44\n      jump\t// in\n    tag_43:\n      pop\n      swap1\n      jump\t// out\n    tag_44:\n    tag_45:\n      dup1\n      dup3\n      gt\n      iszero\n      tag_46\n      jumpi\n      0x00\n      dup2\n      0x00\n      swap1\n      sstore\n      pop\n      0x01\n      add\n      jump(tag_45)\n    tag_46:\n      pop\n      swap1\n      jump\t// out\n        /* \"#utility.yul\":7:419   */\n    tag_48:\n        /* \"#utility.yul\":85:90   */\n      0x00\n        /* \"#utility.yul\":110:176   */\n      tag_50\n        /* \"#utility.yul\":126:175   */\n      tag_51\n        /* \"#utility.yul\":168:174   */\n      dup5\n        /* \"#utility.yul\":126:175   */\n      tag_52\n      jump\t// in\n    tag_51:\n        /* \"#utility.yul\":110:176   */\n      tag_53\n      jump\t// in\n    tag_50:\n        /* \"#utility.yul\":101:176   */\n      swap1\n      pop\n        /* \"#utility.yul\":199:205   */\n      dup3\n        /* \"#utility.yul\":192:197   */\n      dup2\n        /* \"#utility.yul\":185:206   */\n      mstore\n        /* \"#utility.yul\":237:241   */\n      0x20\n        /* \"#utility.yul\":230:235   */\n      dup2\n        /* \"#utility.yul\":226:242   */\n      add\n        /* \"#utility.yul\":275:278   */\n      dup5\n        /* \"#utility.yul\":266:272   */\n      dup5\n        /* \"#utility.yul\":261:264   */\n      dup5\n        /* \"#utility.yul\":257:273   */\n      add\n        /* \"#utility.yul\":254:279   */\n      gt\n        /* \"#utility.yul\":251:363   */\n      iszero\n      tag_54\n      jumpi\n        /* \"#utility.yul\":282:361   */\n      tag_55\n      tag_56\n      jump\t// in\n    tag_55:\n        /* \"#utility.yul\":251:363   */\n    tag_54:\n        /* \"#utility.yul\":372:413   */\n      tag_57\n        /* \"#utility.yul\":406:412   */\n      dup5\n        /* \"#utility.yul\":401:404   */\n      dup3\n        /* \"#utility.yul\":396:399   */\n      dup6\n        /* \"#utility.yul\":372:413   */\n      tag_58\n      jump\t// in\n    tag_57:\n        /* \"#utility.yul\":91:419   */\n      pop\n        /* \"#utility.yul\":7:419   */\n      swap4\n      swap3\n      pop\n      pop\n      pop\n      jump\t// out\n        /* \"#utility.yul\":439:779   */\n    tag_59:\n        /* \"#utility.yul\":495:500   */\n      0x00\n        /* \"#utility.yul\":544:547   */\n      dup3\n        /* \"#utility.yul\":537:541   */\n      0x1f\n        /* \"#utility.yul\":529:535   */\n      dup4\n        /* \"#utility.yul\":525:542   */\n      add\n        /* \"#utility.yul\":521:548   */\n      slt\n        /* \"#utility.yul\":511:633   */\n      tag_61\n      jumpi\n        /* \"#utility.yul\":552:631   */\n      tag_62\n      tag_63\n      jump\t// in\n    tag_62:\n        /* \"#utility.yul\":511:633   */\n    tag_61:\n        /* \"#utility.yul\":669:675   */\n      dup2\n        /* \"#utility.yul\":656:676   */\n      calldataload\n        /* \"#utility.yul\":694:773   */\n      tag_64\n        /* \"#utility.yul\":769:772   */\n      dup5\n        /* \"#utility.yul\":761:767   */\n      dup3\n        /* \"#utility.yul\":754:758   */\n      0x20\n        /* \"#utility.yul\":746:752   */\n      dup7\n        /* \"#utility.yul\":742:759   */\n      add\n        /* \"#utility.yul\":694:773   */\n      tag_48\n      jump\t// in\n    tag_64:\n        /* \"#utility.yul\":685:773   */\n      swap2\n      pop\n        /* \"#utility.yul\":501:779   */\n      pop\n        /* \"#utility.yul\":439:779   */\n      swap3\n      swap2\n      pop\n      pop\n      jump\t// out\n        /* \"#utility.yul\":785:1944   */\n    tag_11:\n        /* \"#utility.yul\":892:898   */\n      0x00\n        /* \"#utility.yul\":900:906   */\n      dup1\n        /* \"#utility.yul\":908:914   */\n      0x00\n        /* \"#utility.yul\":957:959   */\n      0x60\n        /* \"#utility.yul\":945:954   */\n      dup5\n        /* \"#utility.yul\":936:943   */\n      dup7\n        /* \"#utility.yul\":932:955   */\n      sub\n        /* \"#utility.yul\":928:960   */\n      slt\n        /* \"#utility.yul\":925:1044   */\n      iszero\n      tag_66\n      jumpi\n        /* \"#utility.yul\":963:1042   */\n      tag_67\n      tag_68\n      jump\t// in\n    tag_67:\n        /* \"#utility.yul\":925:1044   */\n    tag_66:\n        /* \"#utility.yul\":1111:1112   */\n      0x00\n        /* \"#utility.yul\":1100:1109   */\n      dup5\n        /* \"#utility.yul\":1096:1113   */\n      add\n        /* \"#utility.yul\":1083:1114   */\n      calldataload\n        /* \"#utility.yul\":1141:1159   */\n      0xffffffffffffffff\n        /* \"#utility.yul\":1133:1139   */\n      dup2\n        /* \"#utility.yul\":1130:1160   */\n      gt\n        /* \"#utility.yul\":1127:1244   */\n      iszero\n      tag_69\n      jumpi\n        /* \"#utility.yul\":1163:1242   */\n      tag_70\n      tag_71\n      jump\t// in\n    tag_70:\n        /* \"#utility.yul\":1127:1244   */\n    tag_69:\n        /* \"#utility.yul\":1268:1331   */\n      tag_72\n        /* \"#utility.yul\":1323:1330   */\n      dup7\n        /* \"#utility.yul\":1314:1320   */\n      dup3\n        /* \"#utility.yul\":1303:1312   */\n      dup8\n        /* \"#utility.yul\":1299:1321   */\n      add\n        /* \"#utility.yul\":1268:1331   */\n      tag_59\n      jump\t// in\n    tag_72:\n        /* \"#utility.yul\":1258:1331   */\n      swap4\n      pop\n        /* \"#utility.yul\":1054:1341   */\n      pop\n        /* \"#utility.yul\":1408:1410   */\n      0x20\n        /* \"#utility.yul\":1397:1406   */\n      dup5\n        /* \"#utility.yul\":1393:1411   */\n      add\n        /* \"#utility.yul\":1380:1412   */\n      calldataload\n        /* \"#utility.yul\":1439:1457   */\n      0xffffffffffffffff\n        /* \"#utility.yul\":1431:1437   */\n      dup2\n        /* \"#utility.yul\":1428:1458   */\n      gt\n        /* \"#utility.yul\":1425:1542   */\n      iszero\n      tag_73\n      jumpi\n        /* \"#utility.yul\":1461:1540   */\n      tag_74\n      tag_71\n      jump\t// in\n    tag_74:\n        /* \"#utility.yul\":1425:1542   */\n    tag_73:\n        /* \"#utility.yul\":1566:1629   */\n      tag_75\n        /* \"#utility.yul\":1621:1628   */\n      dup7\n        /* \"#utility.yul\":1612:1618   */\n      dup3\n        /* \"#utility.yul\":1601:1610   */\n      dup8\n        /* \"#utility.yul\":1597:1619   */\n      add\n        /* \"#utility.yul\":1566:1629   */\n      tag_59\n      jump\t// in\n    tag_75:\n        /* \"#utility.yul\":1556:1629   */\n      swap3\n      pop\n        /* \"#utility.yul\":1351:1639   */\n      pop\n        /* \"#utility.yul\":1706:1708   */\n      0x40\n        /* \"#utility.yul\":1695:1704   */\n      dup5\n        /* \"#utility.yul\":1691:1709   */\n      add\n        /* \"#utility.yul\":1678:1710   */\n      calldataload\n        /* \"#utility.yul\":1737:1755   */\n      0xffffffffffffffff\n        /* \"#utility.yul\":1729:1735   */\n      dup2\n        /* \"#utility.yul\":1726:1756   */\n      gt\n        /* \"#utility.yul\":1723:1840   */\n      iszero\n      tag_76\n      jumpi\n        /* \"#utility.yul\":1759:1838   */\n      tag_77\n      tag_71\n      jump\t// in\n    tag_77:\n        /* \"#utility.yul\":1723:1840   */\n    tag_76:\n        /* \"#utility.yul\":1864:1927   */\n      tag_78\n        /* \"#utility.yul\":1919:1926   */\n      dup7\n        /* \"#utility.yul\":1910:1916   */\n      dup3\n        /* \"#utility.yul\":1899:1908   */\n      dup8\n        /* \"#utility.yul\":1895:1917   */\n      add\n        /* \"#utility.yul\":1864:1927   */\n      tag_59\n      jump\t// in\n    tag_78:\n        /* \"#utility.yul\":1854:1927   */\n      swap2\n      pop\n        /* \"#utility.yul\":1649:1937   */\n      pop\n        /* \"#utility.yul\":785:1944   */\n      swap3\n      pop\n      swap3\n      pop\n      swap3\n      jump\t// out\n        /* \"#utility.yul\":1950:2294   */\n    tag_79:\n        /* \"#utility.yul\":2028:2031   */\n      0x00\n        /* \"#utility.yul\":2056:2095   */\n      tag_81\n        /* \"#utility.yul\":2089:2094   */\n      dup3\n        /* \"#utility.yul\":2056:2095   */\n      tag_82\n      jump\t// in\n    tag_81:\n        /* \"#utility.yul\":2111:2172   */\n      tag_83\n        /* \"#utility.yul\":2165:2171   */\n      dup2\n        /* \"#utility.yul\":2160:2163   */\n      dup6\n        /* \"#utility.yul\":2111:2172   */\n      tag_84\n      jump\t// in\n    tag_83:\n        /* \"#utility.yul\":2104:2172   */\n      swap4\n      pop\n        /* \"#utility.yul\":2181:2233   */\n      tag_85\n        /* \"#utility.yul\":2226:2232   */\n      dup2\n        /* \"#utility.yul\":2221:2224   */\n      dup6\n        /* \"#utility.yul\":2214:2218   */\n      0x20\n        /* \"#utility.yul\":2207:2212   */\n      dup7\n        /* \"#utility.yul\":2203:2219   */\n      add\n        /* \"#utility.yul\":2181:2233   */\n      tag_86\n      jump\t// in\n    tag_85:\n        /* \"#utility.yul\":2258:2287   */\n      tag_87\n        /* \"#utility.yul\":2280:2286   */\n      dup2\n        /* \"#utility.yul\":2258:2287   */\n      tag_88\n      jump\t// in\n    tag_87:\n        /* \"#utility.yul\":2253:2256   */\n      dup5\n        /* \"#utility.yul\":2249:2288   */\n      add\n        /* \"#utility.yul\":2242:2288   */\n      swap2\n      pop\n        /* \"#utility.yul\":2032:2294   */\n      pop\n        /* \"#utility.yul\":1950:2294   */\n      swap3\n      swap2\n      pop\n      pop\n      jump\t// out\n        /* \"#utility.yul\":2348:3271   */\n    tag_89:\n        /* \"#utility.yul\":2453:2456   */\n      0x00\n        /* \"#utility.yul\":2489:2493   */\n      0x60\n        /* \"#utility.yul\":2484:2487   */\n      dup4\n        /* \"#utility.yul\":2480:2494   */\n      add\n        /* \"#utility.yul\":2581:2585   */\n      0x00\n        /* \"#utility.yul\":2574:2579   */\n      dup4\n        /* \"#utility.yul\":2570:2586   */\n      add\n        /* \"#utility.yul\":2564:2587   */\n      mload\n        /* \"#utility.yul\":2634:2637   */\n      dup5\n        /* \"#utility.yul\":2628:2632   */\n      dup3\n        /* \"#utility.yul\":2624:2638   */\n      sub\n        /* \"#utility.yul\":2617:2621   */\n      0x00\n        /* \"#utility.yul\":2612:2615   */\n      dup7\n        /* \"#utility.yul\":2608:2622   */\n      add\n        /* \"#utility.yul\":2601:2639   */\n      mstore\n        /* \"#utility.yul\":2660:2733   */\n      tag_91\n        /* \"#utility.yul\":2728:2732   */\n      dup3\n        /* \"#utility.yul\":2714:2726   */\n      dup3\n        /* \"#utility.yul\":2660:2733   */\n      tag_79\n      jump\t// in\n    tag_91:\n        /* \"#utility.yul\":2652:2733   */\n      swap2\n      pop\n        /* \"#utility.yul\":2504:2744   */\n      pop\n        /* \"#utility.yul\":2832:2836   */\n      0x20\n        /* \"#utility.yul\":2825:2830   */\n      dup4\n        /* \"#utility.yul\":2821:2837   */\n      add\n        /* \"#utility.yul\":2815:2838   */\n      mload\n        /* \"#utility.yul\":2885:2888   */\n      dup5\n        /* \"#utility.yul\":2879:2883   */\n      dup3\n        /* \"#utility.yul\":2875:2889   */\n      sub\n        /* \"#utility.yul\":2868:2872   */\n      0x20\n        /* \"#utility.yul\":2863:2866   */\n      dup7\n        /* \"#utility.yul\":2859:2873   */\n      add\n        /* \"#utility.yul\":2852:2890   */\n      mstore\n        /* \"#utility.yul\":2911:2984   */\n      tag_92\n        /* \"#utility.yul\":2979:2983   */\n      dup3\n        /* \"#utility.yul\":2965:2977   */\n      dup3\n        /* \"#utility.yul\":2911:2984   */\n      tag_79\n      jump\t// in\n    tag_92:\n        /* \"#utility.yul\":2903:2984   */\n      swap2\n      pop\n        /* \"#utility.yul\":2754:2995   */\n      pop\n        /* \"#utility.yul\":3081:3085   */\n      0x40\n        /* \"#utility.yul\":3074:3079   */\n      dup4\n        /* \"#utility.yul\":3070:3086   */\n      add\n        /* \"#utility.yul\":3064:3087   */\n      mload\n        /* \"#utility.yul\":3134:3137   */\n      dup5\n        /* \"#utility.yul\":3128:3132   */\n      dup3\n        /* \"#utility.yul\":3124:3138   */\n      sub\n        /* \"#utility.yul\":3117:3121   */\n      0x40\n        /* \"#utility.yul\":3112:3115   */\n      dup7\n        /* \"#utility.yul\":3108:3122   */\n      add\n        /* \"#utility.yul\":3101:3139   */\n      mstore\n        /* \"#utility.yul\":3160:3233   */\n      tag_93\n        /* \"#utility.yul\":3228:3232   */\n      dup3\n        /* \"#utility.yul\":3214:3226   */\n      dup3\n        /* \"#utility.yul\":3160:3233   */\n      tag_79\n      jump\t// in\n    tag_93:\n        /* \"#utility.yul\":3152:3233   */\n      swap2\n      pop\n        /* \"#utility.yul\":3005:3244   */\n      pop\n        /* \"#utility.yul\":3261:3265   */\n      dup1\n        /* \"#utility.yul\":3254:3265   */\n      swap2\n      pop\n        /* \"#utility.yul\":2458:3271   */\n      pop\n        /* \"#utility.yul\":2348:3271   */\n      swap3\n      swap2\n      pop\n      pop\n      jump\t// out\n        /* \"#utility.yul\":3277:3622   */\n    tag_8:\n        /* \"#utility.yul\":3406:3410   */\n      0x00\n        /* \"#utility.yul\":3444:3446   */\n      0x20\n        /* \"#utility.yul\":3433:3442   */\n      dup3\n        /* \"#utility.yul\":3429:3447   */\n      add\n        /* \"#utility.yul\":3421:3447   */\n      swap1\n      pop\n        /* \"#utility.yul\":3493:3502   */\n      dup2\n        /* \"#utility.yul\":3487:3491   */\n      dup2\n        /* \"#utility.yul\":3483:3503   */\n      sub\n        /* \"#utility.yul\":3479:3480   */\n      0x00\n        /* \"#utility.yul\":3468:3477   */\n      dup4\n        /* \"#utility.yul\":3464:3481   */\n      add\n        /* \"#utility.yul\":3457:3504   */\n      mstore\n        /* \"#utility.yul\":3521:3615   */\n      tag_95\n        /* \"#utility.yul\":3610:3614   */\n      dup2\n        /* \"#utility.yul\":3601:3607   */\n      dup5\n        /* \"#utility.yul\":3521:3615   */\n      tag_89\n      jump\t// in\n    tag_95:\n        /* \"#utility.yul\":3513:3615   */\n      swap1\n      pop\n        /* \"#utility.yul\":3277:3622   */\n      swap3\n      swap2\n      pop\n      pop\n      jump\t// out\n        /* \"#utility.yul\":3628:3757   */\n    tag_53:\n        /* \"#utility.yul\":3662:3668   */\n      0x00\n        /* \"#utility.yul\":3689:3709   */\n      tag_97\n      tag_98\n      jump\t// in\n    tag_97:\n        /* \"#utility.yul\":3679:3709   */\n      swap1\n      pop\n        /* \"#utility.yul\":3718:3751   */\n      tag_99\n        /* \"#utility.yul\":3746:3750   */\n      dup3\n        /* \"#utility.yul\":3738:3744   */\n      dup3\n        /* \"#utility.yul\":3718:3751   */\n      tag_100\n      jump\t// in\n    tag_99:\n        /* \"#utility.yul\":3628:3757   */\n      swap2\n      swap1\n      pop\n      jump\t// out\n        /* \"#utility.yul\":3763:3838   */\n    tag_98:\n        /* \"#utility.yul\":3796:3802   */\n      0x00\n        /* \"#utility.yul\":3829:3831   */\n      0x40\n        /* \"#utility.yul\":3823:3832   */\n      mload\n        /* \"#utility.yul\":3813:3832   */\n      swap1\n      pop\n        /* \"#utility.yul\":3763:3838   */\n      swap1\n      jump\t// out\n        /* \"#utility.yul\":3844:4152   */\n    tag_52:\n        /* \"#utility.yul\":3906:3910   */\n      0x00\n        /* \"#utility.yul\":3996:4014   */\n      0xffffffffffffffff\n        /* \"#utility.yul\":3988:3994   */\n      dup3\n        /* \"#utility.yul\":3985:4015   */\n      gt\n        /* \"#utility.yul\":3982:4038   */\n      iszero\n      tag_103\n      jumpi\n        /* \"#utility.yul\":4018:4036   */\n      tag_104\n      tag_105\n      jump\t// in\n    tag_104:\n        /* \"#utility.yul\":3982:4038   */\n    tag_103:\n        /* \"#utility.yul\":4056:4085   */\n      tag_106\n        /* \"#utility.yul\":4078:4084   */\n      dup3\n        /* \"#utility.yul\":4056:4085   */\n      tag_88\n      jump\t// in\n    tag_106:\n        /* \"#utility.yul\":4048:4085   */\n      swap1\n      pop\n        /* \"#utility.yul\":4140:4144   */\n      0x20\n        /* \"#utility.yul\":4134:4138   */\n      dup2\n        /* \"#utility.yul\":4130:4145   */\n      add\n        /* \"#utility.yul\":4122:4145   */\n      swap1\n      pop\n        /* \"#utility.yul\":3844:4152   */\n      swap2\n      swap1\n      pop\n      jump\t// out\n        /* \"#utility.yul\":4158:4257   */\n    tag_82:\n        /* \"#utility.yul\":4210:4216   */\n      0x00\n        /* \"#utility.yul\":4244:4249   */\n      dup2\n        /* \"#utility.yul\":4238:4250   */\n      mload\n        /* \"#utility.yul\":4228:4250   */\n      swap1\n      pop\n        /* \"#utility.yul\":4158:4257   */\n      swap2\n      swap1\n      pop\n      jump\t// out\n        /* \"#utility.yul\":4263:4422   */\n    tag_84:\n        /* \"#utility.yul\":4337:4348   */\n      0x00\n        /* \"#utility.yul\":4371:4377   */\n      dup3\n        /* \"#utility.yul\":4366:4369   */\n      dup3\n        /* \"#utility.yul\":4359:4378   */\n      mstore\n        /* \"#utility.yul\":4411:4415   */\n      0x20\n        /* \"#utility.yul\":4406:4409   */\n      dup3\n        /* \"#utility.yul\":4402:4416   */\n      add\n        /* \"#utility.yul\":4387:4416   */\n      swap1\n      pop\n        /* \"#utility.yul\":4263:4422   */\n      swap3\n      swap2\n      pop\n      pop\n      jump\t// out\n        /* \"#utility.yul\":4428:4582   */\n    tag_58:\n        /* \"#utility.yul\":4512:4518   */\n      dup3\n        /* \"#utility.yul\":4507:4510   */\n      dup2\n        /* \"#utility.yul\":4502:4505   */\n      dup4\n        /* \"#utility.yul\":4489:4519   */\n      calldatacopy\n        /* \"#utility.yul\":4574:4575   */\n      0x00\n        /* \"#utility.yul\":4565:4571   */\n      dup4\n        /* \"#utility.yul\":4560:4563   */\n      dup4\n        /* \"#utility.yul\":4556:4572   */\n      add\n        /* \"#utility.yul\":4549:4576   */\n      mstore\n        /* \"#utility.yul\":4428:4582   */\n      pop\n      pop\n      pop\n      jump\t// out\n        /* \"#utility.yul\":4588:4895   */\n    tag_86:\n        /* \"#utility.yul\":4656:4657   */\n      0x00\n        /* \"#utility.yul\":4666:4779   */\n    tag_111:\n        /* \"#utility.yul\":4680:4686   */\n      dup4\n        /* \"#utility.yul\":4677:4678   */\n      dup2\n        /* \"#utility.yul\":4674:4687   */\n      lt\n        /* \"#utility.yul\":4666:4779   */\n      iszero\n      tag_113\n      jumpi\n        /* \"#utility.yul\":4765:4766   */\n      dup1\n        /* \"#utility.yul\":4760:4763   */\n      dup3\n        /* \"#utility.yul\":4756:4767   */\n      add\n        /* \"#utility.yul\":4750:4768   */\n      mload\n        /* \"#utility.yul\":4746:4747   */\n      dup2\n        /* \"#utility.yul\":4741:4744   */\n      dup5\n        /* \"#utility.yul\":4737:4748   */\n      add\n        /* \"#utility.yul\":4730:4769   */\n      mstore\n        /* \"#utility.yul\":4702:4704   */\n      0x20\n        /* \"#utility.yul\":4699:4700   */\n      dup2\n        /* \"#utility.yul\":4695:4705   */\n      add\n        /* \"#utility.yul\":4690:4705   */\n      swap1\n      pop\n        /* \"#utility.yul\":4666:4779   */\n      jump(tag_111)\n    tag_113:\n        /* \"#utility.yul\":4797:4803   */\n      dup4\n        /* \"#utility.yul\":4794:4795   */\n      dup2\n        /* \"#utility.yul\":4791:4804   */\n      gt\n        /* \"#utility.yul\":4788:4889   */\n      iszero\n      tag_114\n      jumpi\n        /* \"#utility.yul\":4877:4878   */\n      0x00\n        /* \"#utility.yul\":4868:4874   */\n      dup5\n        /* \"#utility.yul\":4863:4866   */\n      dup5\n        /* \"#utility.yul\":4859:4875   */\n      add\n        /* \"#utility.yul\":4852:4879   */\n      mstore\n        /* \"#utility.yul\":4788:4889   */\n    tag_114:\n        /* \"#utility.yul\":4637:4895   */\n      pop\n        /* \"#utility.yul\":4588:4895   */\n      pop\n      pop\n      pop\n      jump\t// out\n        /* \"#utility.yul\":4901:5221   */\n    tag_17:\n        /* \"#utility.yul\":4945:4951   */\n      0x00\n        /* \"#utility.yul\":4982:4983   */\n      0x02\n        /* \"#utility.yul\":4976:4980   */\n      dup3\n        /* \"#utility.yul\":4972:4984   */\n      div\n        /* \"#utility.yul\":4962:4984   */\n      swap1\n      pop\n        /* \"#utility.yul\":5029:5030   */\n      0x01\n        /* \"#utility.yul\":5023:5027   */\n      dup3\n        /* \"#utility.yul\":5019:5031   */\n      and\n        /* \"#utility.yul\":5050:5068   */\n      dup1\n        /* \"#utility.yul\":5040:5121   */\n      tag_116\n      jumpi\n        /* \"#utility.yul\":5106:5110   */\n      0x7f\n        /* \"#utility.yul\":5098:5104   */\n      dup3\n        /* \"#utility.yul\":5094:5111   */\n      and\n        /* \"#utility.yul\":5084:5111   */\n      swap2\n      pop\n        /* \"#utility.yul\":5040:5121   */\n    tag_116:\n        /* \"#utility.yul\":5168:5170   */\n      0x20\n        /* \"#utility.yul\":5160:5166   */\n      dup3\n        /* \"#utility.yul\":5157:5171   */\n      lt\n        /* \"#utility.yul\":5137:5155   */\n      dup2\n        /* \"#utility.yul\":5134:5172   */\n      eq\n        /* \"#utility.yul\":5131:5215   */\n      iszero\n      tag_117\n      jumpi\n        /* \"#utility.yul\":5187:5205   */\n      tag_118\n      tag_119\n      jump\t// in\n    tag_118:\n        /* \"#utility.yul\":5131:5215   */\n    tag_117:\n        /* \"#utility.yul\":4952:5221   */\n      pop\n        /* \"#utility.yul\":4901:5221   */\n      swap2\n      swap1\n      pop\n      jump\t// out\n        /* \"#utility.yul\":5227:5508   */\n    tag_100:\n        /* \"#utility.yul\":5310:5337   */\n      tag_121\n        /* \"#utility.yul\":5332:5336   */\n      dup3\n        /* \"#utility.yul\":5310:5337   */\n      tag_88\n      jump\t// in\n    tag_121:\n        /* \"#utility.yul\":5302:5308   */\n      dup2\n        /* \"#utility.yul\":5298:5338   */\n      add\n        /* \"#utility.yul\":5440:5446   */\n      dup2\n        /* \"#utility.yul\":5428:5438   */\n      dup2\n        /* \"#utility.yul\":5425:5447   */\n      lt\n        /* \"#utility.yul\":5404:5422   */\n      0xffffffffffffffff\n        /* \"#utility.yul\":5392:5402   */\n      dup3\n        /* \"#utility.yul\":5389:5423   */\n      gt\n        /* \"#utility.yul\":5386:5448   */\n      or\n        /* \"#utility.yul\":5383:5471   */\n      iszero\n      tag_122\n      jumpi\n        /* \"#utility.yul\":5451:5469   */\n      tag_123\n      tag_105\n      jump\t// in\n    tag_123:\n        /* \"#utility.yul\":5383:5471   */\n    tag_122:\n        /* \"#utility.yul\":5491:5501   */\n      dup1\n        /* \"#utility.yul\":5487:5489   */\n      0x40\n        /* \"#utility.yul\":5480:5502   */\n      mstore\n        /* \"#utility.yul\":5270:5508   */\n      pop\n        /* \"#utility.yul\":5227:5508   */\n      pop\n      pop\n      jump\t// out\n        /* \"#utility.yul\":5514:5694   */\n    tag_119:\n        /* \"#utility.yul\":5562:5639   */\n      0x4e487b7100000000000000000000000000000000000000000000000000000000\n        /* \"#utility.yul\":5559:5560   */\n      0x00\n        /* \"#utility.yul\":5552:5640   */\n      mstore\n        /* \"#utility.yul\":5659:5663   */\n      0x22\n        /* \"#utility.yul\":5656:5657   */\n      0x04\n        /* \"#utility.yul\":5649:5664   */\n      mstore\n        /* \"#utility.yul\":5683:5687   */\n      0x24\n        /* \"#utility.yul\":5680:5681   */\n      0x00\n        /* \"#utility.yul\":5673:5688   */\n      revert\n        /* \"#utility.yul\":5700:5880   */\n    tag_105:\n        /* \"#utility.yul\":5748:5825   */\n      0x4e487b7100000000000000000000000000000000000000000000000000000000\n        /* \"#utility.yul\":5745:5746   */\n      0x00\n        /* \"#utility.yul\":5738:5826   */\n      mstore\n        /* \"#utility.yul\":5845:5849   */\n      0x41\n        /* \"#utility.yul\":5842:5843   */\n      0x04\n        /* \"#utility.yul\":5835:5850   */\n      mstore\n        /* \"#utility.yul\":5869:5873   */\n      0x24\n        /* \"#utility.yul\":5866:5867   */\n      0x00\n        /* \"#utility.yul\":5859:5874   */\n      revert\n        /* \"#utility.yul\":5886:6003   */\n    tag_63:\n        /* \"#utility.yul\":5995:5996   */\n      0x00\n        /* \"#utility.yul\":5992:5993   */\n      dup1\n        /* \"#utility.yul\":5985:5997   */\n      revert\n        /* \"#utility.yul\":6009:6126   */\n    tag_56:\n        /* \"#utility.yul\":6118:6119   */\n      0x00\n        /* \"#utility.yul\":6115:6116   */\n      dup1\n        /* \"#utility.yul\":6108:6120   */\n      revert\n        /* \"#utility.yul\":6132:6249   */\n    tag_71:\n        /* \"#utility.yul\":6241:6242   */\n      0x00\n        /* \"#utility.yul\":6238:6239   */\n      dup1\n        /* \"#utility.yul\":6231:6243   */\n      revert\n        /* \"#utility.yul\":6255:6372   */\n    tag_68:\n        /* \"#utility.yul\":6364:6365   */\n      0x00\n        /* \"#utility.yul\":6361:6362   */\n      dup1\n        /* \"#utility.yul\":6354:6366   */\n      revert\n        /* \"#utility.yul\":6378:6480   */\n    tag_88:\n        /* \"#utility.yul\":6419:6425   */\n      0x00\n        /* \"#utility.yul\":6470:6472   */\n      0x1f\n        /* \"#utility.yul\":6466:6473   */\n      not\n        /* \"#utility.yul\":6461:6463   */\n      0x1f\n        /* \"#utility.yul\":6454:6459   */\n      dup4\n        /* \"#utility.yul\":6450:6464   */\n      add\n        /* \"#utility.yul\":6446:6474   */\n      and\n        /* \"#utility.yul\":6436:6474   */\n      swap1\n      pop\n        /* \"#utility.yul\":6378:6480   */\n      swap2\n      swap1\n      pop\n      jump\t// out\n\n    auxdata: 0xa2646970667358221220b8c09c4dc147c2c37a8720f72328339eae1ff27b2d104b8a8aa59e4aef5afdc864736f6c63430008070033\n}\n",
				"bytecode": {
					"linkReferences": {},
					"object": "608060405234801561001057600080fd5b506107ec806100206000396000f3fe608060405234801561001057600080fd5b50600436106100365760003560e01c8063fa165e8f1461003b578063ffb4020914610059575b600080fd5b610043610075565b60405161005091906105fa565b60405180910390f35b610073600480360381019061006e91906104bc565b610281565b005b61007d610388565b6000803373ffffffffffffffffffffffffffffffffffffffff1673ffffffffffffffffffffffffffffffffffffffff1681526020019081526020016000206040518060600160405290816000820180546100d6906106d0565b80601f0160208091040260200160405190810160405280929190818152602001828054610102906106d0565b801561014f5780601f106101245761010080835404028352916020019161014f565b820191906000526020600020905b81548152906001019060200180831161013257829003601f168201915b50505050508152602001600182018054610168906106d0565b80601f0160208091040260200160405190810160405280929190818152602001828054610194906106d0565b80156101e15780601f106101b6576101008083540402835291602001916101e1565b820191906000526020600020905b8154815290600101906020018083116101c457829003601f168201915b505050505081526020016002820180546101fa906106d0565b80601f0160208091040260200160405190810160405280929190818152602001828054610226906106d0565b80156102735780601f1061024857610100808354040283529160200191610273565b820191906000526020600020905b81548152906001019060200180831161025657829003601f168201915b505050505081525050905090565b826000803373ffffffffffffffffffffffffffffffffffffffff1673ffffffffffffffffffffffffffffffffffffffff16815260200190815260200160002060000190805190602001906102d69291906103a9565b50816000803373ffffffffffffffffffffffffffffffffffffffff1673ffffffffffffffffffffffffffffffffffffffff168152602001908152602001600020600101908051906020019061032c9291906103a9565b50806000803373ffffffffffffffffffffffffffffffffffffffff1673ffffffffffffffffffffffffffffffffffffffff16815260200190815260200160002060020190805190602001906103829291906103a9565b50505050565b60405180606001604052806060815260200160608152602001606081525090565b8280546103b5906106d0565b90600052602060002090601f0160209004810192826103d7576000855561041e565b82601f106103f057805160ff191683800117855561041e565b8280016001018555821561041e579182015b8281111561041d578251825591602001919060010190610402565b5b50905061042b919061042f565b5090565b5b80821115610448576000816000905550600101610430565b5090565b600061045f61045a84610641565b61061c565b90508281526020810184848401111561047b5761047a610796565b5b61048684828561068e565b509392505050565b600082601f8301126104a3576104a2610791565b5b81356104b384826020860161044c565b91505092915050565b6000806000606084860312156104d5576104d46107a0565b5b600084013567ffffffffffffffff8111156104f3576104f261079b565b5b6104ff8682870161048e565b935050602084013567ffffffffffffffff8111156105205761051f61079b565b5b61052c8682870161048e565b925050604084013567ffffffffffffffff81111561054d5761054c61079b565b5b6105598682870161048e565b9150509250925092565b600061056e82610672565b610578818561067d565b935061058881856020860161069d565b610591816107a5565b840191505092915050565b600060608301600083015184820360008601526105b98282610563565b915050602083015184820360208601526105d38282610563565b915050604083015184820360408601526105ed8282610563565b9150508091505092915050565b60006020820190508181036000830152610614818461059c565b905092915050565b6000610626610637565b90506106328282610702565b919050565b6000604051905090565b600067ffffffffffffffff82111561065c5761065b610762565b5b610665826107a5565b9050602081019050919050565b600081519050919050565b600082825260208201905092915050565b82818337600083830152505050565b60005b838110156106bb5780820151818401526020810190506106a0565b838111156106ca576000848401525b50505050565b600060028204905060018216806106e857607f821691505b602082108114156106fc576106fb610733565b5b50919050565b61070b826107a5565b810181811067ffffffffffffffff8211171561072a57610729610762565b5b80604052505050565b7f4e487b7100000000000000000000000000000000000000000000000000000000600052602260045260246000fd5b7f4e487b7100000000000000000000000000000000000000000000000000000000600052604160045260246000fd5b600080fd5b600080fd5b600080fd5b600080fd5b6000601f19601f830116905091905056fea2646970667358221220b8c09c4dc147c2c37a8720f72328339eae1ff27b2d104b8a8aa59e4aef5afdc864736f6c63430008070033",
					"opcodes": "PUSH1 0x80 PUSH1 0x40 MSTORE CALLVALUE DUP1 ISZERO PUSH2 0x10 JUMPI PUSH1 0x0 DUP1 REVERT JUMPDEST POP PUSH2 0x7EC DUP1 PUSH2 0x20 PUSH1 0x0 CODECOPY PUSH1 0x0 RETURN INVALID PUSH1 0x80 PUSH1 0x40 MSTORE CALLVALUE DUP1 ISZERO PUSH2 0x10 JUMPI PUSH1 0x0 DUP1 REVERT JUMPDEST POP PUSH1 0x4 CALLDATASIZE LT PUSH2 0x36 JUMPI PUSH1 0x0 CALLDATALOAD PUSH1 0xE0 SHR DUP1 PUSH4 0xFA165E8F EQ PUSH2 0x3B JUMPI DUP1 PUSH4 0xFFB40209 EQ PUSH2 0x59 JUMPI JUMPDEST PUSH1 0x0 DUP1 REVERT JUMPDEST PUSH2 0x43 PUSH2 0x75 JUMP JUMPDEST PUSH1 0x40 MLOAD PUSH2 0x50 SWAP2 SWAP1 PUSH2 0x5FA JUMP JUMPDEST PUSH1 0x40 MLOAD DUP1 SWAP2 SUB SWAP1 RETURN JUMPDEST PUSH2 0x73 PUSH1 0x4 DUP1 CALLDATASIZE SUB DUP2 ADD SWAP1 PUSH2 0x6E SWAP2 SWAP1 PUSH2 0x4BC JUMP JUMPDEST PUSH2 0x281 JUMP JUMPDEST STOP JUMPDEST PUSH2 0x7D PUSH2 0x388 JUMP JUMPDEST PUSH1 0x0 DUP1 CALLER PUSH20 0xFFFFFFFFFFFFFFFFFFFFFFFFFFFFFFFFFFFFFFFF AND PUSH20 0xFFFFFFFFFFFFFFFFFFFFFFFFFFFFFFFFFFFFFFFF AND DUP2 MSTORE PUSH1 0x20 ADD SWAP1 DUP2 MSTORE PUSH1 0x20 ADD PUSH1 0x0 KECCAK256 PUSH1 0x40 MLOAD DUP1 PUSH1 0x60 ADD PUSH1 0x40 MSTORE SWAP1 DUP2 PUSH1 0x0 DUP3 ADD DUP1 SLOAD PUSH2 0xD6 SWAP1 PUSH2 0x6D0 JUMP JUMPDEST DUP1 PUSH1 0x1F ADD PUSH1 0x20 DUP1 SWAP2 DIV MUL PUSH1 0x20 ADD PUSH1 0x40 MLOAD SWAP1 DUP2 ADD PUSH1 0x40 MSTORE DUP1 SWAP3 SWAP2 SWAP1 DUP2 DUP2 MSTORE PUSH1 0x20 ADD DUP3 DUP1 SLOAD PUSH2 0x102 SWAP1 PUSH2 0x6D0 JUMP JUMPDEST DUP1 ISZERO PUSH2 0x14F JUMPI DUP1 PUSH1 0x1F LT PUSH2 0x124 JUMPI PUSH2 0x100 DUP1 DUP4 SLOAD DIV MUL DUP4 MSTORE SWAP2 PUSH1 0x20 ADD SWAP2 PUSH2 0x14F JUMP JUMPDEST DUP3 ADD SWAP2 SWAP1 PUSH1 0x0 MSTORE PUSH1 0x20 PUSH1 0x0 KECCAK256 SWAP1 JUMPDEST DUP2 SLOAD DUP2 MSTORE SWAP1 PUSH1 0x1 ADD SWAP1 PUSH1 0x20 ADD DUP1 DUP4 GT PUSH2 0x132 JUMPI DUP3 SWAP1 SUB PUSH1 0x1F AND DUP3 ADD SWAP2 JUMPDEST POP POP POP POP POP DUP2 MSTORE PUSH1 0x20 ADD PUSH1 0x1 DUP3 ADD DUP1 SLOAD PUSH2 0x168 SWAP1 PUSH2 0x6D0 JUMP JUMPDEST DUP1 PUSH1 0x1F ADD PUSH1 0x20 DUP1 SWAP2 DIV MUL PUSH1 0x20 ADD PUSH1 0x40 MLOAD SWAP1 DUP2 ADD PUSH1 0x40 MSTORE DUP1 SWAP3 SWAP2 SWAP1 DUP2 DUP2 MSTORE PUSH1 0x20 ADD DUP3 DUP1 SLOAD PUSH2 0x194 SWAP1 PUSH2 0x6D0 JUMP JUMPDEST DUP1 ISZERO PUSH2 0x1E1 JUMPI DUP1 PUSH1 0x1F LT PUSH2 0x1B6 JUMPI PUSH2 0x100 DUP1 DUP4 SLOAD DIV MUL DUP4 MSTORE SWAP2 PUSH1 0x20 ADD SWAP2 PUSH2 0x1E1 JUMP JUMPDEST DUP3 ADD SWAP2 SWAP1 PUSH1 0x0 MSTORE PUSH1 0x20 PUSH1 0x0 KECCAK256 SWAP1 JUMPDEST DUP2 SLOAD DUP2 MSTORE SWAP1 PUSH1 0x1 ADD SWAP1 PUSH1 0x20 ADD DUP1 DUP4 GT PUSH2 0x1C4 JUMPI DUP3 SWAP1 SUB PUSH1 0x1F AND DUP3 ADD SWAP2 JUMPDEST POP POP POP POP POP DUP2 MSTORE PUSH1 0x20 ADD PUSH1 0x2 DUP3 ADD DUP1 SLOAD PUSH2 0x1FA SWAP1 PUSH2 0x6D0 JUMP JUMPDEST DUP1 PUSH1 0x1F ADD PUSH1 0x20 DUP1 SWAP2 DIV MUL PUSH1 0x20 ADD PUSH1 0x40 MLOAD SWAP1 DUP2 ADD PUSH1 0x40 MSTORE DUP1 SWAP3 SWAP2 SWAP1 DUP2 DUP2 MSTORE PUSH1 0x20 ADD DUP3 DUP1 SLOAD PUSH2 0x226 SWAP1 PUSH2 0x6D0 JUMP JUMPDEST DUP1 ISZERO PUSH2 0x273 JUMPI DUP1 PUSH1 0x1F LT PUSH2 0x248 JUMPI PUSH2 0x100 DUP1 DUP4 SLOAD DIV MUL DUP4 MSTORE SWAP2 PUSH1 0x20 ADD SWAP2 PUSH2 0x273 JUMP JUMPDEST DUP3 ADD SWAP2 SWAP1 PUSH1 0x0 MSTORE PUSH1 0x20 PUSH1 0x0 KECCAK256 SWAP1 JUMPDEST DUP2 SLOAD DUP2 MSTORE SWAP1 PUSH1 0x1 ADD SWAP1 PUSH1 0x20 ADD DUP1 DUP4 GT PUSH2 0x256 JUMPI DUP3 SWAP1 SUB PUSH1 0x1F AND DUP3 ADD SWAP2 JUMPDEST POP POP POP POP POP DUP2 MSTORE POP POP SWAP1 POP SWAP1 JUMP JUMPDEST DUP3 PUSH1 0x0 DUP1 CALLER PUSH20 0xFFFFFFFFFFFFFFFFFFFFFFFFFFFFFFFFFFFFFFFF AND PUSH20 0xFFFFFFFFFFFFFFFFFFFFFFFFFFFFFFFFFFFFFFFF AND DUP2 MSTORE PUSH1 0x20 ADD SWAP1 DUP2 MSTORE PUSH1 0x20 ADD PUSH1 0x0 KECCAK256 PUSH1 0x0 ADD SWAP1 DUP1 MLOAD SWAP1 PUSH1 0x20 ADD SWAP1 PUSH2 0x2D6 SWAP3 SWAP2 SWAP1 PUSH2 0x3A9 JUMP JUMPDEST POP DUP2 PUSH1 0x0 DUP1 CALLER PUSH20 0xFFFFFFFFFFFFFFFFFFFFFFFFFFFFFFFFFFFFFFFF AND PUSH20 0xFFFFFFFFFFFFFFFFFFFFFFFFFFFFFFFFFFFFFFFF AND DUP2 MSTORE PUSH1 0x20 ADD SWAP1 DUP2 MSTORE PUSH1 0x20 ADD PUSH1 0x0 KECCAK256 PUSH1 0x1 ADD SWAP1 DUP1 MLOAD SWAP1 PUSH1 0x20 ADD SWAP1 PUSH2 0x32C SWAP3 SWAP2 SWAP1 PUSH2 0x3A9 JUMP JUMPDEST POP DUP1 PUSH1 0x0 DUP1 CALLER PUSH20 0xFFFFFFFFFFFFFFFFFFFFFFFFFFFFFFFFFFFFFFFF AND PUSH20 0xFFFFFFFFFFFFFFFFFFFFFFFFFFFFFFFFFFFFFFFF AND DUP2 MSTORE PUSH1 0x20 ADD SWAP1 DUP2 MSTORE PUSH1 0x20 ADD PUSH1 0x0 KECCAK256 PUSH1 0x2 ADD SWAP1 DUP1 MLOAD SWAP1 PUSH1 0x20 ADD SWAP1 PUSH2 0x382 SWAP3 SWAP2 SWAP1 PUSH2 0x3A9 JUMP JUMPDEST POP POP POP POP JUMP JUMPDEST PUSH1 0x40 MLOAD DUP1 PUSH1 0x60 ADD PUSH1 0x40 MSTORE DUP1 PUSH1 0x60 DUP2 MSTORE PUSH1 0x20 ADD PUSH1 0x60 DUP2 MSTORE PUSH1 0x20 ADD PUSH1 0x60 DUP2 MSTORE POP SWAP1 JUMP JUMPDEST DUP3 DUP1 SLOAD PUSH2 0x3B5 SWAP1 PUSH2 0x6D0 JUMP JUMPDEST SWAP1 PUSH1 0x0 MSTORE PUSH1 0x20 PUSH1 0x0 KECCAK256 SWAP1 PUSH1 0x1F ADD PUSH1 0x20 SWAP1 DIV DUP2 ADD SWAP3 DUP3 PUSH2 0x3D7 JUMPI PUSH1 0x0 DUP6 SSTORE PUSH2 0x41E JUMP JUMPDEST DUP3 PUSH1 0x1F LT PUSH2 0x3F0 JUMPI DUP1 MLOAD PUSH1 0xFF NOT AND DUP4 DUP1 ADD OR DUP6 SSTORE PUSH2 0x41E JUMP JUMPDEST DUP3 DUP1 ADD PUSH1 0x1 ADD DUP6 SSTORE DUP3 ISZERO PUSH2 0x41E JUMPI SWAP2 DUP3 ADD JUMPDEST DUP3 DUP2 GT ISZERO PUSH2 0x41D JUMPI DUP3 MLOAD DUP3 SSTORE SWAP2 PUSH1 0x20 ADD SWAP2 SWAP1 PUSH1 0x1 ADD SWAP1 PUSH2 0x402 JUMP JUMPDEST JUMPDEST POP SWAP1 POP PUSH2 0x42B SWAP2 SWAP1 PUSH2 0x42F JUMP JUMPDEST POP SWAP1 JUMP JUMPDEST JUMPDEST DUP1 DUP3 GT ISZERO PUSH2 0x448 JUMPI PUSH1 0x0 DUP2 PUSH1 0x0 SWAP1 SSTORE POP PUSH1 0x1 ADD PUSH2 0x430 JUMP JUMPDEST POP SWAP1 JUMP JUMPDEST PUSH1 0x0 PUSH2 0x45F PUSH2 0x45A DUP5 PUSH2 0x641 JUMP JUMPDEST PUSH2 0x61C JUMP JUMPDEST SWAP1 POP DUP3 DUP2 MSTORE PUSH1 0x20 DUP2 ADD DUP5 DUP5 DUP5 ADD GT ISZERO PUSH2 0x47B JUMPI PUSH2 0x47A PUSH2 0x796 JUMP JUMPDEST JUMPDEST PUSH2 0x486 DUP5 DUP3 DUP6 PUSH2 0x68E JUMP JUMPDEST POP SWAP4 SWAP3 POP POP POP JUMP JUMPDEST PUSH1 0x0 DUP3 PUSH1 0x1F DUP4 ADD SLT PUSH2 0x4A3 JUMPI PUSH2 0x4A2 PUSH2 0x791 JUMP JUMPDEST JUMPDEST DUP2 CALLDATALOAD PUSH2 0x4B3 DUP5 DUP3 PUSH1 0x20 DUP7 ADD PUSH2 0x44C JUMP JUMPDEST SWAP2 POP POP SWAP3 SWAP2 POP POP JUMP JUMPDEST PUSH1 0x0 DUP1 PUSH1 0x0 PUSH1 0x60 DUP5 DUP7 SUB SLT ISZERO PUSH2 0x4D5 JUMPI PUSH2 0x4D4 PUSH2 0x7A0 JUMP JUMPDEST JUMPDEST PUSH1 0x0 DUP5 ADD CALLDATALOAD PUSH8 0xFFFFFFFFFFFFFFFF DUP2 GT ISZERO PUSH2 0x4F3 JUMPI PUSH2 0x4F2 PUSH2 0x79B JUMP JUMPDEST JUMPDEST PUSH2 0x4FF DUP7 DUP3 DUP8 ADD PUSH2 0x48E JUMP JUMPDEST SWAP4 POP POP PUSH1 0x20 DUP5 ADD CALLDATALOAD PUSH8 0xFFFFFFFFFFFFFFFF DUP2 GT ISZERO PUSH2 0x520 JUMPI PUSH2 0x51F PUSH2 0x79B JUMP JUMPDEST JUMPDEST PUSH2 0x52C DUP7 DUP3 DUP8 ADD PUSH2 0x48E JUMP JUMPDEST SWAP3 POP POP PUSH1 0x40 DUP5 ADD CALLDATALOAD PUSH8 0xFFFFFFFFFFFFFFFF DUP2 GT ISZERO PUSH2 0x54D JUMPI PUSH2 0x54C PUSH2 0x79B JUMP JUMPDEST JUMPDEST PUSH2 0x559 DUP7 DUP3 DUP8 ADD PUSH2 0x48E JUMP JUMPDEST SWAP2 POP POP SWAP3 POP SWAP3 POP SWAP3 JUMP JUMPDEST PUSH1 0x0 PUSH2 0x56E DUP3 PUSH2 0x672 JUMP JUMPDEST PUSH2 0x578 DUP2 DUP6 PUSH2 0x67D JUMP JUMPDEST SWAP4 POP PUSH2 0x588 DUP2 DUP6 PUSH1 0x20 DUP7 ADD PUSH2 0x69D JUMP JUMPDEST PUSH2 0x591 DUP2 PUSH2 0x7A5 JUMP JUMPDEST DUP5 ADD SWAP2 POP POP SWAP3 SWAP2 POP POP JUMP JUMPDEST PUSH1 0x0 PUSH1 0x60 DUP4 ADD PUSH1 0x0 DUP4 ADD MLOAD DUP5 DUP3 SUB PUSH1 0x0 DUP7 ADD MSTORE PUSH2 0x5B9 DUP3 DUP3 PUSH2 0x563 JUMP JUMPDEST SWAP2 POP POP PUSH1 0x20 DUP4 ADD MLOAD DUP5 DUP3 SUB PUSH1 0x20 DUP7 ADD MSTORE PUSH2 0x5D3 DUP3 DUP3 PUSH2 0x563 JUMP JUMPDEST SWAP2 POP POP PUSH1 0x40 DUP4 ADD MLOAD DUP5 DUP3 SUB PUSH1 0x40 DUP7 ADD MSTORE PUSH2 0x5ED DUP3 DUP3 PUSH2 0x563 JUMP JUMPDEST SWAP2 POP POP DUP1 SWAP2 POP POP SWAP3 SWAP2 POP POP JUMP JUMPDEST PUSH1 0x0 PUSH1 0x20 DUP3 ADD SWAP1 POP DUP2 DUP2 SUB PUSH1 0x0 DUP4 ADD MSTORE PUSH2 0x614 DUP2 DUP5 PUSH2 0x59C JUMP JUMPDEST SWAP1 POP SWAP3 SWAP2 POP POP JUMP JUMPDEST PUSH1 0x0 PUSH2 0x626 PUSH2 0x637 JUMP JUMPDEST SWAP1 POP PUSH2 0x632 DUP3 DUP3 PUSH2 0x702 JUMP JUMPDEST SWAP2 SWAP1 POP JUMP JUMPDEST PUSH1 0x0 PUSH1 0x40 MLOAD SWAP1 POP SWAP1 JUMP JUMPDEST PUSH1 0x0 PUSH8 0xFFFFFFFFFFFFFFFF DUP3 GT ISZERO PUSH2 0x65C JUMPI PUSH2 0x65B PUSH2 0x762 JUMP JUMPDEST JUMPDEST PUSH2 0x665 DUP3 PUSH2 0x7A5 JUMP JUMPDEST SWAP1 POP PUSH1 0x20 DUP2 ADD SWAP1 POP SWAP2 SWAP1 POP JUMP JUMPDEST PUSH1 0x0 DUP2 MLOAD SWAP1 POP SWAP2 SWAP1 POP JUMP JUMPDEST PUSH1 0x0 DUP3 DUP3 MSTORE PUSH1 0x20 DUP3 ADD SWAP1 POP SWAP3 SWAP2 POP POP JUMP JUMPDEST DUP3 DUP2 DUP4 CALLDATACOPY PUSH1 0x0 DUP4 DUP4 ADD MSTORE POP POP POP JUMP JUMPDEST PUSH1 0x0 JUMPDEST DUP4 DUP2 LT ISZERO PUSH2 0x6BB JUMPI DUP1 DUP3 ADD MLOAD DUP2 DUP5 ADD MSTORE PUSH1 0x20 DUP2 ADD SWAP1 POP PUSH2 0x6A0 JUMP JUMPDEST DUP4 DUP2 GT ISZERO PUSH2 0x6CA JUMPI PUSH1 0x0 DUP5 DUP5 ADD MSTORE JUMPDEST POP POP POP POP JUMP JUMPDEST PUSH1 0x0 PUSH1 0x2 DUP3 DIV SWAP1 POP PUSH1 0x1 DUP3 AND DUP1 PUSH2 0x6E8 JUMPI PUSH1 0x7F DUP3 AND SWAP2 POP JUMPDEST PUSH1 0x20 DUP3 LT DUP2 EQ ISZERO PUSH2 0x6FC JUMPI PUSH2 0x6FB PUSH2 0x733 JUMP JUMPDEST JUMPDEST POP SWAP2 SWAP1 POP JUMP JUMPDEST PUSH2 0x70B DUP3 PUSH2 0x7A5 JUMP JUMPDEST DUP2 ADD DUP2 DUP2 LT PUSH8 0xFFFFFFFFFFFFFFFF DUP3 GT OR ISZERO PUSH2 0x72A JUMPI PUSH2 0x729 PUSH2 0x762 JUMP JUMPDEST JUMPDEST DUP1 PUSH1 0x40 MSTORE POP POP POP JUMP JUMPDEST PUSH32 0x4E487B7100000000000000000000000000000000000000000000000000000000 PUSH1 0x0 MSTORE PUSH1 0x22 PUSH1 0x4 MSTORE PUSH1 0x24 PUSH1 0x0 REVERT JUMPDEST PUSH32 0x4E487B7100000000000000000000000000000000000000000000000000000000 PUSH1 0x0 MSTORE PUSH1 0x41 PUSH1 0x4 MSTORE PUSH1 0x24 PUSH1 0x0 REVERT JUMPDEST PUSH1 0x0 DUP1 REVERT JUMPDEST PUSH1 0x0 DUP1 REVERT JUMPDEST PUSH1 0x0 DUP1 REVERT JUMPDEST PUSH1 0x0 DUP1 REVERT JUMPDEST PUSH1 0x0 PUSH1 0x1F NOT PUSH1 0x1F DUP4 ADD AND SWAP1 POP SWAP2 SWAP1 POP JUMP INVALID LOG2 PUSH5 0x6970667358 0x22 SLT KECCAK256 0xB8 0xC0 SWAP13 0x4D 0xC1 SELFBALANCE 0xC2 0xC3 PUSH27 0x8720F72328339EAE1FF27B2D104B8A8AA59E4AEF5AFDC864736F6C PUSH4 0x43000807 STOP CALLER "
				},
				"gasEstimates": {
					"creation": {
						"codeDepositCost": "405600",
						"executionCost": "443",
						"totalCost": "406043"
					},
					"external": {
						"addBio(string,string,string)": "infinite",
						"getBio()": "infinite"
					}
				},
				"methodIdentifiers": {
					"addBio(string,string,string)": "ffb40209",
					"getBio()": "fa165e8f"
				}
			},
			"storageLayout": {
				"storage": [
					{
						"astId": 13,
						"contract": "contracts/Profile.sol:Profile",
						"label": "profile",
						"offset": 0,
						"slot": "0",
						"type": "t_mapping(t_address,t_struct(Bio)8_storage)"
					}
				],
				"types": {
					"t_address": {
						"encoding": "inplace",
						"label": "address",
						"numberOfBytes": "20"
					},
					"t_mapping(t_address,t_struct(Bio)8_storage)": {
						"encoding": "mapping",
						"key": "t_address",
						"label": "mapping(address => struct Profile.Bio)",
						"numberOfBytes": "32",
						"value": "t_struct(Bio)8_storage"
					},
					"t_string_storage": {
						"encoding": "bytes",
						"label": "string",
						"numberOfBytes": "32"
					},
					"t_struct(Bio)8_storage": {
						"encoding": "inplace",
						"label": "struct Profile.Bio",
						"members": [
							{
								"astId": 3,
								"contract": "contracts/Profile.sol:Profile",
								"label": "firstName",
								"offset": 0,
								"slot": "0",
								"type": "t_string_storage"
							},
							{
								"astId": 5,
								"contract": "contracts/Profile.sol:Profile",
								"label": "middleName",
								"offset": 0,
								"slot": "1",
								"type": "t_string_storage"
							},
							{
								"astId": 7,
								"contract": "contracts/Profile.sol:Profile",
								"label": "lastName",
								"offset": 0,
								"slot": "2",
								"type": "t_string_storage"
							}
						],
						"numberOfBytes": "96"
					}
				}
			},
			"userdoc": {
				"kind": "user",
				"methods": {},
				"version": 1
			}
		}
	}
}