{
	"contracts/Profile.sol": {
		"Profile": {
			"abi": [
				{
					"inputs": [
						{
							"internalType": "string[]",
							"name": "frontend",
							"type": "string[]"
						},
						{
							"internalType": "string[]",
							"name": "backend",
							"type": "string[]"
						},
						{
							"internalType": "string[]",
							"name": "framework",
							"type": "string[]"
						}
					],
					"name": "addBio",
					"outputs": [],
					"stateMutability": "nonpayable",
					"type": "function"
				},
				{
					"inputs": [
						{
							"internalType": "string[]",
							"name": "_frontend",
							"type": "string[]"
						},
						{
							"internalType": "uint8",
							"name": "_type",
							"type": "uint8"
						}
					],
					"name": "addSkill",
					"outputs": [],
					"stateMutability": "nonpayable",
					"type": "function"
				},
				{
					"inputs": [],
					"name": "delProfile",
					"outputs": [],
					"stateMutability": "nonpayable",
					"type": "function"
				},
				{
					"inputs": [
						{
							"internalType": "address",
							"name": "",
							"type": "address"
						}
					],
					"name": "profile",
					"outputs": [
						{
							"internalType": "address",
							"name": "userAddress",
							"type": "address"
						},
						{
							"internalType": "string",
							"name": "firstName",
							"type": "string"
						},
						{
							"internalType": "string",
							"name": "middleName",
							"type": "string"
						},
						{
							"internalType": "string",
							"name": "lastName",
							"type": "string"
						},
						{
							"internalType": "string",
							"name": "email",
							"type": "string"
						},
						{
							"internalType": "string",
							"name": "phone",
							"type": "string"
						},
						{
							"internalType": "string",
							"name": "profileImage",
							"type": "string"
						},
						{
							"internalType": "uint256",
							"name": "createDate",
							"type": "uint256"
						}
					],
					"stateMutability": "view",
					"type": "function"
				}
			],
			"devdoc": {
				"kind": "dev",
				"methods": {},
				"version": 1
			},
			"evm": {
				"assembly": "    /* \"contracts/Profile.sol\":60:2398  contract Profile {\r... */\n  mstore(0x40, 0x80)\n  callvalue\n  dup1\n  iszero\n  tag_1\n  jumpi\n  0x00\n  dup1\n  revert\ntag_1:\n  pop\n  dataSize(sub_0)\n  dup1\n  dataOffset(sub_0)\n  0x00\n  codecopy\n  0x00\n  return\nstop\n\nsub_0: assembly {\n        /* \"contracts/Profile.sol\":60:2398  contract Profile {\r... */\n      mstore(0x40, 0x80)\n      callvalue\n      dup1\n      iszero\n      tag_1\n      jumpi\n      0x00\n      dup1\n      revert\n    tag_1:\n      pop\n      jumpi(tag_2, lt(calldatasize, 0x04))\n      shr(0xe0, calldataload(0x00))\n      dup1\n      0x0c8c0186\n      eq\n      tag_3\n      jumpi\n      dup1\n      0x9dd9d0fd\n      eq\n      tag_4\n      jumpi\n      dup1\n      0xbc5c05a8\n      eq\n      tag_5\n      jumpi\n      dup1\n      0xfabce08f\n      eq\n      tag_6\n      jumpi\n    tag_2:\n      0x00\n      dup1\n      revert\n        /* \"contracts/Profile.sol\":1405:1610  function addBio(string[] memory frontend, string[] memory backend, string[] memory framework) public {\r... */\n    tag_3:\n      tag_7\n      0x04\n      dup1\n      calldatasize\n      sub\n      dup2\n      add\n      swap1\n      tag_8\n      swap2\n      swap1\n      tag_9\n      jump\t// in\n    tag_8:\n      tag_10\n      jump\t// in\n    tag_7:\n      stop\n        /* \"contracts/Profile.sol\":411:451  mapping (address => Bio) public  profile */\n    tag_4:\n      tag_11\n      0x04\n      dup1\n      calldatasize\n      sub\n      dup2\n      add\n      swap1\n      tag_12\n      swap2\n      swap1\n      tag_13\n      jump\t// in\n    tag_12:\n      tag_14\n      jump\t// in\n    tag_11:\n      mload(0x40)\n      tag_15\n      swap9\n      swap8\n      swap7\n      swap6\n      swap5\n      swap4\n      swap3\n      swap2\n      swap1\n      tag_16\n      jump\t// in\n    tag_15:\n      mload(0x40)\n      dup1\n      swap2\n      sub\n      swap1\n      return\n        /* \"contracts/Profile.sol\":1620:2309  function addSkill(string[] memory _frontend, uint8 _type) public {\r... */\n    tag_5:\n      tag_17\n      0x04\n      dup1\n      calldatasize\n      sub\n      dup2\n      add\n      swap1\n      tag_18\n      swap2\n      swap1\n      tag_19\n      jump\t// in\n    tag_18:\n      tag_20\n      jump\t// in\n    tag_17:\n      stop\n        /* \"contracts/Profile.sol\":2317:2391  function delProfile() public {\r... */\n    tag_6:\n      tag_21\n      tag_22\n      jump\t// in\n    tag_21:\n      stop\n        /* \"contracts/Profile.sol\":1405:1610  function addBio(string[] memory frontend, string[] memory backend, string[] memory framework) public {\r... */\n    tag_10:\n        /* \"contracts/Profile.sol\":1517:1538  addSkill(frontend, 0) */\n      tag_24\n        /* \"contracts/Profile.sol\":1526:1534  frontend */\n      dup4\n        /* \"contracts/Profile.sol\":1536:1537  0 */\n      0x00\n        /* \"contracts/Profile.sol\":1517:1525  addSkill */\n      tag_20\n        /* \"contracts/Profile.sol\":1517:1538  addSkill(frontend, 0) */\n      jump\t// in\n    tag_24:\n        /* \"contracts/Profile.sol\":1549:1569  addSkill(backend, 1) */\n      tag_25\n        /* \"contracts/Profile.sol\":1558:1565  backend */\n      dup3\n        /* \"contracts/Profile.sol\":1567:1568  1 */\n      0x01\n        /* \"contracts/Profile.sol\":1549:1557  addSkill */\n      tag_20\n        /* \"contracts/Profile.sol\":1549:1569  addSkill(backend, 1) */\n      jump\t// in\n    tag_25:\n        /* \"contracts/Profile.sol\":1580:1602  addSkill(framework, 2) */\n      tag_26\n        /* \"contracts/Profile.sol\":1589:1598  framework */\n      dup2\n        /* \"contracts/Profile.sol\":1600:1601  2 */\n      0x02\n        /* \"contracts/Profile.sol\":1580:1588  addSkill */\n      tag_20\n        /* \"contracts/Profile.sol\":1580:1602  addSkill(framework, 2) */\n      jump\t// in\n    tag_26:\n        /* \"contracts/Profile.sol\":1405:1610  function addBio(string[] memory frontend, string[] memory backend, string[] memory framework) public {\r... */\n      pop\n      pop\n      pop\n      jump\t// out\n        /* \"contracts/Profile.sol\":411:451  mapping (address => Bio) public  profile */\n    tag_14:\n      mstore(0x20, 0x00)\n      dup1\n      0x00\n      mstore\n      keccak256(0x00, 0x40)\n      0x00\n      swap2\n      pop\n      swap1\n      pop\n      dup1\n      0x00\n      add\n      0x00\n      swap1\n      sload\n      swap1\n      0x0100\n      exp\n      swap1\n      div\n      0xffffffffffffffffffffffffffffffffffffffff\n      and\n      swap1\n      dup1\n      0x01\n      add\n      dup1\n      sload\n      tag_27\n      swap1\n      tag_28\n      jump\t// in\n    tag_27:\n      dup1\n      0x1f\n      add\n      0x20\n      dup1\n      swap2\n      div\n      mul\n      0x20\n      add\n      mload(0x40)\n      swap1\n      dup2\n      add\n      0x40\n      mstore\n      dup1\n      swap3\n      swap2\n      swap1\n      dup2\n      dup2\n      mstore\n      0x20\n      add\n      dup3\n      dup1\n      sload\n      tag_29\n      swap1\n      tag_28\n      jump\t// in\n    tag_29:\n      dup1\n      iszero\n      tag_30\n      jumpi\n      dup1\n      0x1f\n      lt\n      tag_31\n      jumpi\n      0x0100\n      dup1\n      dup4\n      sload\n      div\n      mul\n      dup4\n      mstore\n      swap2\n      0x20\n      add\n      swap2\n      jump(tag_30)\n    tag_31:\n      dup3\n      add\n      swap2\n      swap1\n      0x00\n      mstore\n      keccak256(0x00, 0x20)\n      swap1\n    tag_32:\n      dup2\n      sload\n      dup2\n      mstore\n      swap1\n      0x01\n      add\n      swap1\n      0x20\n      add\n      dup1\n      dup4\n      gt\n      tag_32\n      jumpi\n      dup3\n      swap1\n      sub\n      0x1f\n      and\n      dup3\n      add\n      swap2\n    tag_30:\n      pop\n      pop\n      pop\n      pop\n      pop\n      swap1\n      dup1\n      0x02\n      add\n      dup1\n      sload\n      tag_33\n      swap1\n      tag_28\n      jump\t// in\n    tag_33:\n      dup1\n      0x1f\n      add\n      0x20\n      dup1\n      swap2\n      div\n      mul\n      0x20\n      add\n      mload(0x40)\n      swap1\n      dup2\n      add\n      0x40\n      mstore\n      dup1\n      swap3\n      swap2\n      swap1\n      dup2\n      dup2\n      mstore\n      0x20\n      add\n      dup3\n      dup1\n      sload\n      tag_34\n      swap1\n      tag_28\n      jump\t// in\n    tag_34:\n      dup1\n      iszero\n      tag_35\n      jumpi\n      dup1\n      0x1f\n      lt\n      tag_36\n      jumpi\n      0x0100\n      dup1\n      dup4\n      sload\n      div\n      mul\n      dup4\n      mstore\n      swap2\n      0x20\n      add\n      swap2\n      jump(tag_35)\n    tag_36:\n      dup3\n      add\n      swap2\n      swap1\n      0x00\n      mstore\n      keccak256(0x00, 0x20)\n      swap1\n    tag_37:\n      dup2\n      sload\n      dup2\n      mstore\n      swap1\n      0x01\n      add\n      swap1\n      0x20\n      add\n      dup1\n      dup4\n      gt\n      tag_37\n      jumpi\n      dup3\n      swap1\n      sub\n      0x1f\n      and\n      dup3\n      add\n      swap2\n    tag_35:\n      pop\n      pop\n      pop\n      pop\n      pop\n      swap1\n      dup1\n      0x03\n      add\n      dup1\n      sload\n      tag_38\n      swap1\n      tag_28\n      jump\t// in\n    tag_38:\n      dup1\n      0x1f\n      add\n      0x20\n      dup1\n      swap2\n      div\n      mul\n      0x20\n      add\n      mload(0x40)\n      swap1\n      dup2\n      add\n      0x40\n      mstore\n      dup1\n      swap3\n      swap2\n      swap1\n      dup2\n      dup2\n      mstore\n      0x20\n      add\n      dup3\n      dup1\n      sload\n      tag_39\n      swap1\n      tag_28\n      jump\t// in\n    tag_39:\n      dup1\n      iszero\n      tag_40\n      jumpi\n      dup1\n      0x1f\n      lt\n      tag_41\n      jumpi\n      0x0100\n      dup1\n      dup4\n      sload\n      div\n      mul\n      dup4\n      mstore\n      swap2\n      0x20\n      add\n      swap2\n      jump(tag_40)\n    tag_41:\n      dup3\n      add\n      swap2\n      swap1\n      0x00\n      mstore\n      keccak256(0x00, 0x20)\n      swap1\n    tag_42:\n      dup2\n      sload\n      dup2\n      mstore\n      swap1\n      0x01\n      add\n      swap1\n      0x20\n      add\n      dup1\n      dup4\n      gt\n      tag_42\n      jumpi\n      dup3\n      swap1\n      sub\n      0x1f\n      and\n      dup3\n      add\n      swap2\n    tag_40:\n      pop\n      pop\n      pop\n      pop\n      pop\n      swap1\n      dup1\n      0x04\n      add\n      dup1\n      sload\n      tag_43\n      swap1\n      tag_28\n      jump\t// in\n    tag_43:\n      dup1\n      0x1f\n      add\n      0x20\n      dup1\n      swap2\n      div\n      mul\n      0x20\n      add\n      mload(0x40)\n      swap1\n      dup2\n      add\n      0x40\n      mstore\n      dup1\n      swap3\n      swap2\n      swap1\n      dup2\n      dup2\n      mstore\n      0x20\n      add\n      dup3\n      dup1\n      sload\n      tag_44\n      swap1\n      tag_28\n      jump\t// in\n    tag_44:\n      dup1\n      iszero\n      tag_45\n      jumpi\n      dup1\n      0x1f\n      lt\n      tag_46\n      jumpi\n      0x0100\n      dup1\n      dup4\n      sload\n      div\n      mul\n      dup4\n      mstore\n      swap2\n      0x20\n      add\n      swap2\n      jump(tag_45)\n    tag_46:\n      dup3\n      add\n      swap2\n      swap1\n      0x00\n      mstore\n      keccak256(0x00, 0x20)\n      swap1\n    tag_47:\n      dup2\n      sload\n      dup2\n      mstore\n      swap1\n      0x01\n      add\n      swap1\n      0x20\n      add\n      dup1\n      dup4\n      gt\n      tag_47\n      jumpi\n      dup3\n      swap1\n      sub\n      0x1f\n      and\n      dup3\n      add\n      swap2\n    tag_45:\n      pop\n      pop\n      pop\n      pop\n      pop\n      swap1\n      dup1\n      0x05\n      add\n      dup1\n      sload\n      tag_48\n      swap1\n      tag_28\n      jump\t// in\n    tag_48:\n      dup1\n      0x1f\n      add\n      0x20\n      dup1\n      swap2\n      div\n      mul\n      0x20\n      add\n      mload(0x40)\n      swap1\n      dup2\n      add\n      0x40\n      mstore\n      dup1\n      swap3\n      swap2\n      swap1\n      dup2\n      dup2\n      mstore\n      0x20\n      add\n      dup3\n      dup1\n      sload\n      tag_49\n      swap1\n      tag_28\n      jump\t// in\n    tag_49:\n      dup1\n      iszero\n      tag_50\n      jumpi\n      dup1\n      0x1f\n      lt\n      tag_51\n      jumpi\n      0x0100\n      dup1\n      dup4\n      sload\n      div\n      mul\n      dup4\n      mstore\n      swap2\n      0x20\n      add\n      swap2\n      jump(tag_50)\n    tag_51:\n      dup3\n      add\n      swap2\n      swap1\n      0x00\n      mstore\n      keccak256(0x00, 0x20)\n      swap1\n    tag_52:\n      dup2\n      sload\n      dup2\n      mstore\n      swap1\n      0x01\n      add\n      swap1\n      0x20\n      add\n      dup1\n      dup4\n      gt\n      tag_52\n      jumpi\n      dup3\n      swap1\n      sub\n      0x1f\n      and\n      dup3\n      add\n      swap2\n    tag_50:\n      pop\n      pop\n      pop\n      pop\n      pop\n      swap1\n      dup1\n      0x06\n      add\n      dup1\n      sload\n      tag_53\n      swap1\n      tag_28\n      jump\t// in\n    tag_53:\n      dup1\n      0x1f\n      add\n      0x20\n      dup1\n      swap2\n      div\n      mul\n      0x20\n      add\n      mload(0x40)\n      swap1\n      dup2\n      add\n      0x40\n      mstore\n      dup1\n      swap3\n      swap2\n      swap1\n      dup2\n      dup2\n      mstore\n      0x20\n      add\n      dup3\n      dup1\n      sload\n      tag_54\n      swap1\n      tag_28\n      jump\t// in\n    tag_54:\n      dup1\n      iszero\n      tag_55\n      jumpi\n      dup1\n      0x1f\n      lt\n      tag_56\n      jumpi\n      0x0100\n      dup1\n      dup4\n      sload\n      div\n      mul\n      dup4\n      mstore\n      swap2\n      0x20\n      add\n      swap2\n      jump(tag_55)\n    tag_56:\n      dup3\n      add\n      swap2\n      swap1\n      0x00\n      mstore\n      keccak256(0x00, 0x20)\n      swap1\n    tag_57:\n      dup2\n      sload\n      dup2\n      mstore\n      swap1\n      0x01\n      add\n      swap1\n      0x20\n      add\n      dup1\n      dup4\n      gt\n      tag_57\n      jumpi\n      dup3\n      swap1\n      sub\n      0x1f\n      and\n      dup3\n      add\n      swap2\n    tag_55:\n      pop\n      pop\n      pop\n      pop\n      pop\n      swap1\n      dup1\n      0x07\n      add\n      sload\n      swap1\n      pop\n      dup9\n      jump\t// out\n        /* \"contracts/Profile.sol\":1620:2309  function addSkill(string[] memory _frontend, uint8 _type) public {\r... */\n    tag_20:\n        /* \"contracts/Profile.sol\":1739:1740  0 */\n      0x00\n        /* \"contracts/Profile.sol\":1730:1735  _type */\n      dup2\n        /* \"contracts/Profile.sol\":1730:1740  _type == 0 */\n      0xff\n      and\n      eq\n        /* \"contracts/Profile.sol\":1727:1891  if(_type == 0){\r... */\n      iszero\n      tag_59\n      jumpi\n        /* \"contracts/Profile.sol\":1760:1767  uint8 i */\n      0x00\n        /* \"contracts/Profile.sol\":1756:1880  for(uint8 i=0; i < _frontend.length; i++) {\r... */\n    tag_60:\n        /* \"contracts/Profile.sol\":1775:1784  _frontend */\n      dup3\n        /* \"contracts/Profile.sol\":1775:1791  _frontend.length */\n      mload\n        /* \"contracts/Profile.sol\":1771:1772  i */\n      dup2\n        /* \"contracts/Profile.sol\":1771:1791  i < _frontend.length */\n      0xff\n      and\n      lt\n        /* \"contracts/Profile.sol\":1756:1880  for(uint8 i=0; i < _frontend.length; i++) {\r... */\n      iszero\n      tag_61\n      jumpi\n        /* \"contracts/Profile.sol\":1817:1824  profile */\n      0x00\n        /* \"contracts/Profile.sol\":1817:1836  profile[msg.sender] */\n      dup1\n        /* \"contracts/Profile.sol\":1825:1835  msg.sender */\n      caller\n        /* \"contracts/Profile.sol\":1817:1836  profile[msg.sender] */\n      0xffffffffffffffffffffffffffffffffffffffff\n      and\n      0xffffffffffffffffffffffffffffffffffffffff\n      and\n      dup2\n      mstore\n      0x20\n      add\n      swap1\n      dup2\n      mstore\n      0x20\n      add\n      0x00\n      keccak256\n        /* \"contracts/Profile.sol\":1817:1845  profile[msg.sender].frontend */\n      0x08\n      add\n        /* \"contracts/Profile.sol\":1851:1860  _frontend */\n      dup4\n        /* \"contracts/Profile.sol\":1861:1862  i */\n      dup3\n        /* \"contracts/Profile.sol\":1851:1863  _frontend[i] */\n      0xff\n      and\n      dup2\n      mload\n      dup2\n      lt\n      tag_63\n      jumpi\n      tag_64\n      tag_65\n      jump\t// in\n    tag_64:\n    tag_63:\n      0x20\n      mul\n      0x20\n      add\n      add\n      mload\n        /* \"contracts/Profile.sol\":1817:1864  profile[msg.sender].frontend.push(_frontend[i]) */\n      swap1\n      dup1\n      0x01\n      dup2\n      sload\n      add\n      dup1\n      dup3\n      sstore\n      dup1\n      swap2\n      pop\n      pop\n      0x01\n      swap1\n      sub\n      swap1\n      0x00\n      mstore\n      keccak256(0x00, 0x20)\n      add\n      0x00\n      swap1\n      swap2\n      swap1\n      swap2\n      swap1\n      swap2\n      pop\n      swap1\n      dup1\n      mload\n      swap1\n      0x20\n      add\n      swap1\n      tag_67\n      swap3\n      swap2\n      swap1\n      tag_68\n      jump\t// in\n    tag_67:\n      pop\n        /* \"contracts/Profile.sol\":1793:1796  i++ */\n      dup1\n      dup1\n      tag_69\n      swap1\n      tag_70\n      jump\t// in\n    tag_69:\n      swap2\n      pop\n      pop\n        /* \"contracts/Profile.sol\":1756:1880  for(uint8 i=0; i < _frontend.length; i++) {\r... */\n      jump(tag_60)\n    tag_61:\n      pop\n        /* \"contracts/Profile.sol\":1727:1891  if(_type == 0){\r... */\n    tag_59:\n        /* \"contracts/Profile.sol\":1944:1945  1 */\n      0x01\n        /* \"contracts/Profile.sol\":1935:1940  _type */\n      dup2\n        /* \"contracts/Profile.sol\":1935:1945  _type == 1 */\n      0xff\n      and\n      eq\n        /* \"contracts/Profile.sol\":1932:2095  if(_type == 1){\r... */\n      iszero\n      tag_71\n      jumpi\n        /* \"contracts/Profile.sol\":1965:1972  uint8 i */\n      0x00\n        /* \"contracts/Profile.sol\":1961:2084  for(uint8 i=0; i < _frontend.length; i++) {\r... */\n    tag_72:\n        /* \"contracts/Profile.sol\":1980:1989  _frontend */\n      dup3\n        /* \"contracts/Profile.sol\":1980:1996  _frontend.length */\n      mload\n        /* \"contracts/Profile.sol\":1976:1977  i */\n      dup2\n        /* \"contracts/Profile.sol\":1976:1996  i < _frontend.length */\n      0xff\n      and\n      lt\n        /* \"contracts/Profile.sol\":1961:2084  for(uint8 i=0; i < _frontend.length; i++) {\r... */\n      iszero\n      tag_73\n      jumpi\n        /* \"contracts/Profile.sol\":2022:2029  profile */\n      0x00\n        /* \"contracts/Profile.sol\":2022:2041  profile[msg.sender] */\n      dup1\n        /* \"contracts/Profile.sol\":2030:2040  msg.sender */\n      caller\n        /* \"contracts/Profile.sol\":2022:2041  profile[msg.sender] */\n      0xffffffffffffffffffffffffffffffffffffffff\n      and\n      0xffffffffffffffffffffffffffffffffffffffff\n      and\n      dup2\n      mstore\n      0x20\n      add\n      swap1\n      dup2\n      mstore\n      0x20\n      add\n      0x00\n      keccak256\n        /* \"contracts/Profile.sol\":2022:2049  profile[msg.sender].backend */\n      0x09\n      add\n        /* \"contracts/Profile.sol\":2055:2064  _frontend */\n      dup4\n        /* \"contracts/Profile.sol\":2065:2066  i */\n      dup3\n        /* \"contracts/Profile.sol\":2055:2067  _frontend[i] */\n      0xff\n      and\n      dup2\n      mload\n      dup2\n      lt\n      tag_75\n      jumpi\n      tag_76\n      tag_65\n      jump\t// in\n    tag_76:\n    tag_75:\n      0x20\n      mul\n      0x20\n      add\n      add\n      mload\n        /* \"contracts/Profile.sol\":2022:2068  profile[msg.sender].backend.push(_frontend[i]) */\n      swap1\n      dup1\n      0x01\n      dup2\n      sload\n      add\n      dup1\n      dup3\n      sstore\n      dup1\n      swap2\n      pop\n      pop\n      0x01\n      swap1\n      sub\n      swap1\n      0x00\n      mstore\n      keccak256(0x00, 0x20)\n      add\n      0x00\n      swap1\n      swap2\n      swap1\n      swap2\n      swap1\n      swap2\n      pop\n      swap1\n      dup1\n      mload\n      swap1\n      0x20\n      add\n      swap1\n      tag_78\n      swap3\n      swap2\n      swap1\n      tag_68\n      jump\t// in\n    tag_78:\n      pop\n        /* \"contracts/Profile.sol\":1998:2001  i++ */\n      dup1\n      dup1\n      tag_79\n      swap1\n      tag_70\n      jump\t// in\n    tag_79:\n      swap2\n      pop\n      pop\n        /* \"contracts/Profile.sol\":1961:2084  for(uint8 i=0; i < _frontend.length; i++) {\r... */\n      jump(tag_72)\n    tag_73:\n      pop\n        /* \"contracts/Profile.sol\":1932:2095  if(_type == 1){\r... */\n    tag_71:\n        /* \"contracts/Profile.sol\":2149:2150  2 */\n      0x02\n        /* \"contracts/Profile.sol\":2140:2145  _type */\n      dup2\n        /* \"contracts/Profile.sol\":2140:2150  _type == 2 */\n      0xff\n      and\n      eq\n        /* \"contracts/Profile.sol\":2137:2302  if(_type == 2){\r... */\n      iszero\n      tag_80\n      jumpi\n        /* \"contracts/Profile.sol\":2170:2177  uint8 i */\n      0x00\n        /* \"contracts/Profile.sol\":2166:2291  for(uint8 i=0; i < _frontend.length; i++) {\r... */\n    tag_81:\n        /* \"contracts/Profile.sol\":2185:2194  _frontend */\n      dup3\n        /* \"contracts/Profile.sol\":2185:2201  _frontend.length */\n      mload\n        /* \"contracts/Profile.sol\":2181:2182  i */\n      dup2\n        /* \"contracts/Profile.sol\":2181:2201  i < _frontend.length */\n      0xff\n      and\n      lt\n        /* \"contracts/Profile.sol\":2166:2291  for(uint8 i=0; i < _frontend.length; i++) {\r... */\n      iszero\n      tag_82\n      jumpi\n        /* \"contracts/Profile.sol\":2227:2234  profile */\n      0x00\n        /* \"contracts/Profile.sol\":2227:2246  profile[msg.sender] */\n      dup1\n        /* \"contracts/Profile.sol\":2235:2245  msg.sender */\n      caller\n        /* \"contracts/Profile.sol\":2227:2246  profile[msg.sender] */\n      0xffffffffffffffffffffffffffffffffffffffff\n      and\n      0xffffffffffffffffffffffffffffffffffffffff\n      and\n      dup2\n      mstore\n      0x20\n      add\n      swap1\n      dup2\n      mstore\n      0x20\n      add\n      0x00\n      keccak256\n        /* \"contracts/Profile.sol\":2227:2256  profile[msg.sender].framework */\n      0x0a\n      add\n        /* \"contracts/Profile.sol\":2262:2271  _frontend */\n      dup4\n        /* \"contracts/Profile.sol\":2272:2273  i */\n      dup3\n        /* \"contracts/Profile.sol\":2262:2274  _frontend[i] */\n      0xff\n      and\n      dup2\n      mload\n      dup2\n      lt\n      tag_84\n      jumpi\n      tag_85\n      tag_65\n      jump\t// in\n    tag_85:\n    tag_84:\n      0x20\n      mul\n      0x20\n      add\n      add\n      mload\n        /* \"contracts/Profile.sol\":2227:2275  profile[msg.sender].framework.push(_frontend[i]) */\n      swap1\n      dup1\n      0x01\n      dup2\n      sload\n      add\n      dup1\n      dup3\n      sstore\n      dup1\n      swap2\n      pop\n      pop\n      0x01\n      swap1\n      sub\n      swap1\n      0x00\n      mstore\n      keccak256(0x00, 0x20)\n      add\n      0x00\n      swap1\n      swap2\n      swap1\n      swap2\n      swap1\n      swap2\n      pop\n      swap1\n      dup1\n      mload\n      swap1\n      0x20\n      add\n      swap1\n      tag_87\n      swap3\n      swap2\n      swap1\n      tag_68\n      jump\t// in\n    tag_87:\n      pop\n        /* \"contracts/Profile.sol\":2203:2206  i++ */\n      dup1\n      dup1\n      tag_88\n      swap1\n      tag_70\n      jump\t// in\n    tag_88:\n      swap2\n      pop\n      pop\n        /* \"contracts/Profile.sol\":2166:2291  for(uint8 i=0; i < _frontend.length; i++) {\r... */\n      jump(tag_81)\n    tag_82:\n      pop\n        /* \"contracts/Profile.sol\":2137:2302  if(_type == 2){\r... */\n    tag_80:\n        /* \"contracts/Profile.sol\":1620:2309  function addSkill(string[] memory _frontend, uint8 _type) public {\r... */\n      pop\n      pop\n      jump\t// out\n        /* \"contracts/Profile.sol\":2317:2391  function delProfile() public {\r... */\n    tag_22:\n        /* \"contracts/Profile.sol\":2364:2371  profile */\n      0x00\n        /* \"contracts/Profile.sol\":2364:2383  profile[msg.sender] */\n      dup1\n        /* \"contracts/Profile.sol\":2372:2382  msg.sender */\n      caller\n        /* \"contracts/Profile.sol\":2364:2383  profile[msg.sender] */\n      0xffffffffffffffffffffffffffffffffffffffff\n      and\n      0xffffffffffffffffffffffffffffffffffffffff\n      and\n      dup2\n      mstore\n      0x20\n      add\n      swap1\n      dup2\n      mstore\n      0x20\n      add\n      0x00\n      keccak256\n      0x00\n        /* \"contracts/Profile.sol\":2357:2383  delete profile[msg.sender] */\n      dup1\n      dup3\n      add\n      exp(0x0100, 0x00)\n      dup2\n      sload\n      swap1\n      0xffffffffffffffffffffffffffffffffffffffff\n      mul\n      not\n      and\n      swap1\n      sstore\n      0x01\n      dup3\n      add\n      0x00\n      tag_90\n      swap2\n      swap1\n      tag_91\n      jump\t// in\n    tag_90:\n      0x02\n      dup3\n      add\n      0x00\n      tag_92\n      swap2\n      swap1\n      tag_91\n      jump\t// in\n    tag_92:\n      0x03\n      dup3\n      add\n      0x00\n      tag_93\n      swap2\n      swap1\n      tag_91\n      jump\t// in\n    tag_93:\n      0x04\n      dup3\n      add\n      0x00\n      tag_94\n      swap2\n      swap1\n      tag_91\n      jump\t// in\n    tag_94:\n      0x05\n      dup3\n      add\n      0x00\n      tag_95\n      swap2\n      swap1\n      tag_91\n      jump\t// in\n    tag_95:\n      0x06\n      dup3\n      add\n      0x00\n      tag_96\n      swap2\n      swap1\n      tag_91\n      jump\t// in\n    tag_96:\n      0x07\n      dup3\n      add\n      0x00\n      swap1\n      sstore\n      0x08\n      dup3\n      add\n      0x00\n      tag_97\n      swap2\n      swap1\n      tag_98\n      jump\t// in\n    tag_97:\n      0x09\n      dup3\n      add\n      0x00\n      tag_99\n      swap2\n      swap1\n      tag_98\n      jump\t// in\n    tag_99:\n      0x0a\n      dup3\n      add\n      0x00\n      tag_100\n      swap2\n      swap1\n      tag_98\n      jump\t// in\n    tag_100:\n      pop\n      pop\n        /* \"contracts/Profile.sol\":2317:2391  function delProfile() public {\r... */\n      jump\t// out\n    tag_68:\n      dup3\n      dup1\n      sload\n      tag_101\n      swap1\n      tag_28\n      jump\t// in\n    tag_101:\n      swap1\n      0x00\n      mstore\n      keccak256(0x00, 0x20)\n      swap1\n      0x1f\n      add\n      0x20\n      swap1\n      div\n      dup2\n      add\n      swap3\n      dup3\n      tag_103\n      jumpi\n      0x00\n      dup6\n      sstore\n      jump(tag_102)\n    tag_103:\n      dup3\n      0x1f\n      lt\n      tag_104\n      jumpi\n      dup1\n      mload\n      not(0xff)\n      and\n      dup4\n      dup1\n      add\n      or\n      dup6\n      sstore\n      jump(tag_102)\n    tag_104:\n      dup3\n      dup1\n      add\n      0x01\n      add\n      dup6\n      sstore\n      dup3\n      iszero\n      tag_102\n      jumpi\n      swap2\n      dup3\n      add\n    tag_105:\n      dup3\n      dup2\n      gt\n      iszero\n      tag_106\n      jumpi\n      dup3\n      mload\n      dup3\n      sstore\n      swap2\n      0x20\n      add\n      swap2\n      swap1\n      0x01\n      add\n      swap1\n      jump(tag_105)\n    tag_106:\n    tag_102:\n      pop\n      swap1\n      pop\n      tag_107\n      swap2\n      swap1\n      tag_108\n      jump\t// in\n    tag_107:\n      pop\n      swap1\n      jump\t// out\n    tag_91:\n      pop\n      dup1\n      sload\n      tag_109\n      swap1\n      tag_28\n      jump\t// in\n    tag_109:\n      0x00\n      dup3\n      sstore\n      dup1\n      0x1f\n      lt\n      tag_111\n      jumpi\n      pop\n      jump(tag_110)\n    tag_111:\n      0x1f\n      add\n      0x20\n      swap1\n      div\n      swap1\n      0x00\n      mstore\n      keccak256(0x00, 0x20)\n      swap1\n      dup2\n      add\n      swap1\n      tag_112\n      swap2\n      swap1\n      tag_108\n      jump\t// in\n    tag_112:\n    tag_110:\n      pop\n      jump\t// out\n    tag_98:\n      pop\n      dup1\n      sload\n      0x00\n      dup3\n      sstore\n      swap1\n      0x00\n      mstore\n      keccak256(0x00, 0x20)\n      swap1\n      dup2\n      add\n      swap1\n      tag_114\n      swap2\n      swap1\n      tag_115\n      jump\t// in\n    tag_114:\n      pop\n      jump\t// out\n    tag_108:\n    tag_116:\n      dup1\n      dup3\n      gt\n      iszero\n      tag_117\n      jumpi\n      0x00\n      dup2\n      0x00\n      swap1\n      sstore\n      pop\n      0x01\n      add\n      jump(tag_116)\n    tag_117:\n      pop\n      swap1\n      jump\t// out\n    tag_115:\n    tag_118:\n      dup1\n      dup3\n      gt\n      iszero\n      tag_119\n      jumpi\n      0x00\n      dup2\n      dup2\n      tag_120\n      swap2\n      swap1\n      tag_91\n      jump\t// in\n    tag_120:\n      pop\n      0x01\n      add\n      jump(tag_118)\n    tag_119:\n      pop\n      swap1\n      jump\t// out\n        /* \"#utility.yul\":23:980   */\n    tag_122:\n        /* \"#utility.yul\":129:134   */\n      0x00\n        /* \"#utility.yul\":154:245   */\n      tag_124\n        /* \"#utility.yul\":170:244   */\n      tag_125\n        /* \"#utility.yul\":237:243   */\n      dup5\n        /* \"#utility.yul\":170:244   */\n      tag_126\n      jump\t// in\n    tag_125:\n        /* \"#utility.yul\":154:245   */\n      tag_127\n      jump\t// in\n    tag_124:\n        /* \"#utility.yul\":145:245   */\n      swap1\n      pop\n        /* \"#utility.yul\":265:270   */\n      dup1\n        /* \"#utility.yul\":294:300   */\n      dup4\n        /* \"#utility.yul\":287:292   */\n      dup3\n        /* \"#utility.yul\":280:301   */\n      mstore\n        /* \"#utility.yul\":328:332   */\n      0x20\n        /* \"#utility.yul\":321:326   */\n      dup3\n        /* \"#utility.yul\":317:333   */\n      add\n        /* \"#utility.yul\":310:333   */\n      swap1\n      pop\n        /* \"#utility.yul\":354:360   */\n      dup3\n        /* \"#utility.yul\":404:407   */\n      dup6\n        /* \"#utility.yul\":396:400   */\n      0x20\n        /* \"#utility.yul\":388:394   */\n      dup7\n        /* \"#utility.yul\":384:401   */\n      mul\n        /* \"#utility.yul\":379:382   */\n      dup3\n        /* \"#utility.yul\":375:402   */\n      add\n        /* \"#utility.yul\":372:408   */\n      gt\n        /* \"#utility.yul\":369:512   */\n      iszero\n      tag_128\n      jumpi\n        /* \"#utility.yul\":423:502   */\n      tag_129\n      tag_130\n      jump\t// in\n    tag_129:\n        /* \"#utility.yul\":369:512   */\n    tag_128:\n        /* \"#utility.yul\":536:537   */\n      0x00\n        /* \"#utility.yul\":521:974   */\n    tag_131:\n        /* \"#utility.yul\":546:552   */\n      dup6\n        /* \"#utility.yul\":543:544   */\n      dup2\n        /* \"#utility.yul\":540:553   */\n      lt\n        /* \"#utility.yul\":521:974   */\n      iszero\n      tag_133\n      jumpi\n        /* \"#utility.yul\":628:631   */\n      dup2\n        /* \"#utility.yul\":615:632   */\n      calldataload\n        /* \"#utility.yul\":664:682   */\n      0xffffffffffffffff\n        /* \"#utility.yul\":651:662   */\n      dup2\n        /* \"#utility.yul\":648:683   */\n      gt\n        /* \"#utility.yul\":645:767   */\n      iszero\n      tag_134\n      jumpi\n        /* \"#utility.yul\":686:765   */\n      tag_135\n      tag_136\n      jump\t// in\n    tag_135:\n        /* \"#utility.yul\":645:767   */\n    tag_134:\n        /* \"#utility.yul\":810:821   */\n      dup1\n        /* \"#utility.yul\":802:808   */\n      dup7\n        /* \"#utility.yul\":798:822   */\n      add\n        /* \"#utility.yul\":848:895   */\n      tag_137\n        /* \"#utility.yul\":891:894   */\n      dup10\n        /* \"#utility.yul\":879:889   */\n      dup3\n        /* \"#utility.yul\":848:895   */\n      tag_138\n      jump\t// in\n    tag_137:\n        /* \"#utility.yul\":843:846   */\n      dup6\n        /* \"#utility.yul\":836:896   */\n      mstore\n        /* \"#utility.yul\":925:929   */\n      0x20\n        /* \"#utility.yul\":920:923   */\n      dup6\n        /* \"#utility.yul\":916:930   */\n      add\n        /* \"#utility.yul\":909:930   */\n      swap5\n      pop\n        /* \"#utility.yul\":959:963   */\n      0x20\n        /* \"#utility.yul\":954:957   */\n      dup5\n        /* \"#utility.yul\":950:964   */\n      add\n        /* \"#utility.yul\":943:964   */\n      swap4\n      pop\n        /* \"#utility.yul\":581:974   */\n      pop\n      pop\n        /* \"#utility.yul\":568:569   */\n      0x01\n        /* \"#utility.yul\":565:566   */\n      dup2\n        /* \"#utility.yul\":561:570   */\n      add\n        /* \"#utility.yul\":556:570   */\n      swap1\n      pop\n        /* \"#utility.yul\":521:974   */\n      jump(tag_131)\n    tag_133:\n        /* \"#utility.yul\":525:539   */\n      pop\n        /* \"#utility.yul\":135:980   */\n      pop\n      pop\n        /* \"#utility.yul\":23:980   */\n      swap4\n      swap3\n      pop\n      pop\n      pop\n      jump\t// out\n        /* \"#utility.yul\":986:1398   */\n    tag_139:\n        /* \"#utility.yul\":1064:1069   */\n      0x00\n        /* \"#utility.yul\":1089:1155   */\n      tag_141\n        /* \"#utility.yul\":1105:1154   */\n      tag_142\n        /* \"#utility.yul\":1147:1153   */\n      dup5\n        /* \"#utility.yul\":1105:1154   */\n      tag_143\n      jump\t// in\n    tag_142:\n        /* \"#utility.yul\":1089:1155   */\n      tag_127\n      jump\t// in\n    tag_141:\n        /* \"#utility.yul\":1080:1155   */\n      swap1\n      pop\n        /* \"#utility.yul\":1178:1184   */\n      dup3\n        /* \"#utility.yul\":1171:1176   */\n      dup2\n        /* \"#utility.yul\":1164:1185   */\n      mstore\n        /* \"#utility.yul\":1216:1220   */\n      0x20\n        /* \"#utility.yul\":1209:1214   */\n      dup2\n        /* \"#utility.yul\":1205:1221   */\n      add\n        /* \"#utility.yul\":1254:1257   */\n      dup5\n        /* \"#utility.yul\":1245:1251   */\n      dup5\n        /* \"#utility.yul\":1240:1243   */\n      dup5\n        /* \"#utility.yul\":1236:1252   */\n      add\n        /* \"#utility.yul\":1233:1258   */\n      gt\n        /* \"#utility.yul\":1230:1342   */\n      iszero\n      tag_144\n      jumpi\n        /* \"#utility.yul\":1261:1340   */\n      tag_145\n      tag_146\n      jump\t// in\n    tag_145:\n        /* \"#utility.yul\":1230:1342   */\n    tag_144:\n        /* \"#utility.yul\":1351:1392   */\n      tag_147\n        /* \"#utility.yul\":1385:1391   */\n      dup5\n        /* \"#utility.yul\":1380:1383   */\n      dup3\n        /* \"#utility.yul\":1375:1378   */\n      dup6\n        /* \"#utility.yul\":1351:1392   */\n      tag_148\n      jump\t// in\n    tag_147:\n        /* \"#utility.yul\":1070:1398   */\n      pop\n        /* \"#utility.yul\":986:1398   */\n      swap4\n      swap3\n      pop\n      pop\n      pop\n      jump\t// out\n        /* \"#utility.yul\":1404:1543   */\n    tag_149:\n        /* \"#utility.yul\":1450:1455   */\n      0x00\n        /* \"#utility.yul\":1488:1494   */\n      dup2\n        /* \"#utility.yul\":1475:1495   */\n      calldataload\n        /* \"#utility.yul\":1466:1495   */\n      swap1\n      pop\n        /* \"#utility.yul\":1504:1537   */\n      tag_151\n        /* \"#utility.yul\":1531:1536   */\n      dup2\n        /* \"#utility.yul\":1504:1537   */\n      tag_152\n      jump\t// in\n    tag_151:\n        /* \"#utility.yul\":1404:1543   */\n      swap3\n      swap2\n      pop\n      pop\n      jump\t// out\n        /* \"#utility.yul\":1565:1955   */\n    tag_153:\n        /* \"#utility.yul\":1646:1651   */\n      0x00\n        /* \"#utility.yul\":1695:1698   */\n      dup3\n        /* \"#utility.yul\":1688:1692   */\n      0x1f\n        /* \"#utility.yul\":1680:1686   */\n      dup4\n        /* \"#utility.yul\":1676:1693   */\n      add\n        /* \"#utility.yul\":1672:1699   */\n      slt\n        /* \"#utility.yul\":1662:1784   */\n      tag_155\n      jumpi\n        /* \"#utility.yul\":1703:1782   */\n      tag_156\n      tag_136\n      jump\t// in\n    tag_156:\n        /* \"#utility.yul\":1662:1784   */\n    tag_155:\n        /* \"#utility.yul\":1820:1826   */\n      dup2\n        /* \"#utility.yul\":1807:1827   */\n      calldataload\n        /* \"#utility.yul\":1845:1949   */\n      tag_157\n        /* \"#utility.yul\":1945:1948   */\n      dup5\n        /* \"#utility.yul\":1937:1943   */\n      dup3\n        /* \"#utility.yul\":1930:1934   */\n      0x20\n        /* \"#utility.yul\":1922:1928   */\n      dup7\n        /* \"#utility.yul\":1918:1935   */\n      add\n        /* \"#utility.yul\":1845:1949   */\n      tag_122\n      jump\t// in\n    tag_157:\n        /* \"#utility.yul\":1836:1949   */\n      swap2\n      pop\n        /* \"#utility.yul\":1652:1955   */\n      pop\n        /* \"#utility.yul\":1565:1955   */\n      swap3\n      swap2\n      pop\n      pop\n      jump\t// out\n        /* \"#utility.yul\":1975:2315   */\n    tag_138:\n        /* \"#utility.yul\":2031:2036   */\n      0x00\n        /* \"#utility.yul\":2080:2083   */\n      dup3\n        /* \"#utility.yul\":2073:2077   */\n      0x1f\n        /* \"#utility.yul\":2065:2071   */\n      dup4\n        /* \"#utility.yul\":2061:2078   */\n      add\n        /* \"#utility.yul\":2057:2084   */\n      slt\n        /* \"#utility.yul\":2047:2169   */\n      tag_159\n      jumpi\n        /* \"#utility.yul\":2088:2167   */\n      tag_160\n      tag_136\n      jump\t// in\n    tag_160:\n        /* \"#utility.yul\":2047:2169   */\n    tag_159:\n        /* \"#utility.yul\":2205:2211   */\n      dup2\n        /* \"#utility.yul\":2192:2212   */\n      calldataload\n        /* \"#utility.yul\":2230:2309   */\n      tag_161\n        /* \"#utility.yul\":2305:2308   */\n      dup5\n        /* \"#utility.yul\":2297:2303   */\n      dup3\n        /* \"#utility.yul\":2290:2294   */\n      0x20\n        /* \"#utility.yul\":2282:2288   */\n      dup7\n        /* \"#utility.yul\":2278:2295   */\n      add\n        /* \"#utility.yul\":2230:2309   */\n      tag_139\n      jump\t// in\n    tag_161:\n        /* \"#utility.yul\":2221:2309   */\n      swap2\n      pop\n        /* \"#utility.yul\":2037:2315   */\n      pop\n        /* \"#utility.yul\":1975:2315   */\n      swap3\n      swap2\n      pop\n      pop\n      jump\t// out\n        /* \"#utility.yul\":2321:2456   */\n    tag_162:\n        /* \"#utility.yul\":2365:2370   */\n      0x00\n        /* \"#utility.yul\":2403:2409   */\n      dup2\n        /* \"#utility.yul\":2390:2410   */\n      calldataload\n        /* \"#utility.yul\":2381:2410   */\n      swap1\n      pop\n        /* \"#utility.yul\":2419:2450   */\n      tag_164\n        /* \"#utility.yul\":2444:2449   */\n      dup2\n        /* \"#utility.yul\":2419:2450   */\n      tag_165\n      jump\t// in\n    tag_164:\n        /* \"#utility.yul\":2321:2456   */\n      swap3\n      swap2\n      pop\n      pop\n      jump\t// out\n        /* \"#utility.yul\":2462:2791   */\n    tag_13:\n        /* \"#utility.yul\":2521:2527   */\n      0x00\n        /* \"#utility.yul\":2570:2572   */\n      0x20\n        /* \"#utility.yul\":2558:2567   */\n      dup3\n        /* \"#utility.yul\":2549:2556   */\n      dup5\n        /* \"#utility.yul\":2545:2568   */\n      sub\n        /* \"#utility.yul\":2541:2573   */\n      slt\n        /* \"#utility.yul\":2538:2657   */\n      iszero\n      tag_167\n      jumpi\n        /* \"#utility.yul\":2576:2655   */\n      tag_168\n      tag_169\n      jump\t// in\n    tag_168:\n        /* \"#utility.yul\":2538:2657   */\n    tag_167:\n        /* \"#utility.yul\":2696:2697   */\n      0x00\n        /* \"#utility.yul\":2721:2774   */\n      tag_170\n        /* \"#utility.yul\":2766:2773   */\n      dup5\n        /* \"#utility.yul\":2757:2763   */\n      dup3\n        /* \"#utility.yul\":2746:2755   */\n      dup6\n        /* \"#utility.yul\":2742:2764   */\n      add\n        /* \"#utility.yul\":2721:2774   */\n      tag_149\n      jump\t// in\n    tag_170:\n        /* \"#utility.yul\":2711:2774   */\n      swap2\n      pop\n        /* \"#utility.yul\":2667:2784   */\n      pop\n        /* \"#utility.yul\":2462:2791   */\n      swap3\n      swap2\n      pop\n      pop\n      jump\t// out\n        /* \"#utility.yul\":2797:4106   */\n    tag_9:\n        /* \"#utility.yul\":2979:2985   */\n      0x00\n        /* \"#utility.yul\":2987:2993   */\n      dup1\n        /* \"#utility.yul\":2995:3001   */\n      0x00\n        /* \"#utility.yul\":3044:3046   */\n      0x60\n        /* \"#utility.yul\":3032:3041   */\n      dup5\n        /* \"#utility.yul\":3023:3030   */\n      dup7\n        /* \"#utility.yul\":3019:3042   */\n      sub\n        /* \"#utility.yul\":3015:3047   */\n      slt\n        /* \"#utility.yul\":3012:3131   */\n      iszero\n      tag_172\n      jumpi\n        /* \"#utility.yul\":3050:3129   */\n      tag_173\n      tag_169\n      jump\t// in\n    tag_173:\n        /* \"#utility.yul\":3012:3131   */\n    tag_172:\n        /* \"#utility.yul\":3198:3199   */\n      0x00\n        /* \"#utility.yul\":3187:3196   */\n      dup5\n        /* \"#utility.yul\":3183:3200   */\n      add\n        /* \"#utility.yul\":3170:3201   */\n      calldataload\n        /* \"#utility.yul\":3228:3246   */\n      0xffffffffffffffff\n        /* \"#utility.yul\":3220:3226   */\n      dup2\n        /* \"#utility.yul\":3217:3247   */\n      gt\n        /* \"#utility.yul\":3214:3331   */\n      iszero\n      tag_174\n      jumpi\n        /* \"#utility.yul\":3250:3329   */\n      tag_175\n      tag_176\n      jump\t// in\n    tag_175:\n        /* \"#utility.yul\":3214:3331   */\n    tag_174:\n        /* \"#utility.yul\":3355:3443   */\n      tag_177\n        /* \"#utility.yul\":3435:3442   */\n      dup7\n        /* \"#utility.yul\":3426:3432   */\n      dup3\n        /* \"#utility.yul\":3415:3424   */\n      dup8\n        /* \"#utility.yul\":3411:3433   */\n      add\n        /* \"#utility.yul\":3355:3443   */\n      tag_153\n      jump\t// in\n    tag_177:\n        /* \"#utility.yul\":3345:3443   */\n      swap4\n      pop\n        /* \"#utility.yul\":3141:3453   */\n      pop\n        /* \"#utility.yul\":3520:3522   */\n      0x20\n        /* \"#utility.yul\":3509:3518   */\n      dup5\n        /* \"#utility.yul\":3505:3523   */\n      add\n        /* \"#utility.yul\":3492:3524   */\n      calldataload\n        /* \"#utility.yul\":3551:3569   */\n      0xffffffffffffffff\n        /* \"#utility.yul\":3543:3549   */\n      dup2\n        /* \"#utility.yul\":3540:3570   */\n      gt\n        /* \"#utility.yul\":3537:3654   */\n      iszero\n      tag_178\n      jumpi\n        /* \"#utility.yul\":3573:3652   */\n      tag_179\n      tag_176\n      jump\t// in\n    tag_179:\n        /* \"#utility.yul\":3537:3654   */\n    tag_178:\n        /* \"#utility.yul\":3678:3766   */\n      tag_180\n        /* \"#utility.yul\":3758:3765   */\n      dup7\n        /* \"#utility.yul\":3749:3755   */\n      dup3\n        /* \"#utility.yul\":3738:3747   */\n      dup8\n        /* \"#utility.yul\":3734:3756   */\n      add\n        /* \"#utility.yul\":3678:3766   */\n      tag_153\n      jump\t// in\n    tag_180:\n        /* \"#utility.yul\":3668:3766   */\n      swap3\n      pop\n        /* \"#utility.yul\":3463:3776   */\n      pop\n        /* \"#utility.yul\":3843:3845   */\n      0x40\n        /* \"#utility.yul\":3832:3841   */\n      dup5\n        /* \"#utility.yul\":3828:3846   */\n      add\n        /* \"#utility.yul\":3815:3847   */\n      calldataload\n        /* \"#utility.yul\":3874:3892   */\n      0xffffffffffffffff\n        /* \"#utility.yul\":3866:3872   */\n      dup2\n        /* \"#utility.yul\":3863:3893   */\n      gt\n        /* \"#utility.yul\":3860:3977   */\n      iszero\n      tag_181\n      jumpi\n        /* \"#utility.yul\":3896:3975   */\n      tag_182\n      tag_176\n      jump\t// in\n    tag_182:\n        /* \"#utility.yul\":3860:3977   */\n    tag_181:\n        /* \"#utility.yul\":4001:4089   */\n      tag_183\n        /* \"#utility.yul\":4081:4088   */\n      dup7\n        /* \"#utility.yul\":4072:4078   */\n      dup3\n        /* \"#utility.yul\":4061:4070   */\n      dup8\n        /* \"#utility.yul\":4057:4079   */\n      add\n        /* \"#utility.yul\":4001:4089   */\n      tag_153\n      jump\t// in\n    tag_183:\n        /* \"#utility.yul\":3991:4089   */\n      swap2\n      pop\n        /* \"#utility.yul\":3786:4099   */\n      pop\n        /* \"#utility.yul\":2797:4106   */\n      swap3\n      pop\n      swap3\n      pop\n      swap3\n      jump\t// out\n        /* \"#utility.yul\":4112:4812   */\n    tag_19:\n        /* \"#utility.yul\":4213:4219   */\n      0x00\n        /* \"#utility.yul\":4221:4227   */\n      dup1\n        /* \"#utility.yul\":4270:4272   */\n      0x40\n        /* \"#utility.yul\":4258:4267   */\n      dup4\n        /* \"#utility.yul\":4249:4256   */\n      dup6\n        /* \"#utility.yul\":4245:4268   */\n      sub\n        /* \"#utility.yul\":4241:4273   */\n      slt\n        /* \"#utility.yul\":4238:4357   */\n      iszero\n      tag_185\n      jumpi\n        /* \"#utility.yul\":4276:4355   */\n      tag_186\n      tag_169\n      jump\t// in\n    tag_186:\n        /* \"#utility.yul\":4238:4357   */\n    tag_185:\n        /* \"#utility.yul\":4424:4425   */\n      0x00\n        /* \"#utility.yul\":4413:4422   */\n      dup4\n        /* \"#utility.yul\":4409:4426   */\n      add\n        /* \"#utility.yul\":4396:4427   */\n      calldataload\n        /* \"#utility.yul\":4454:4472   */\n      0xffffffffffffffff\n        /* \"#utility.yul\":4446:4452   */\n      dup2\n        /* \"#utility.yul\":4443:4473   */\n      gt\n        /* \"#utility.yul\":4440:4557   */\n      iszero\n      tag_187\n      jumpi\n        /* \"#utility.yul\":4476:4555   */\n      tag_188\n      tag_176\n      jump\t// in\n    tag_188:\n        /* \"#utility.yul\":4440:4557   */\n    tag_187:\n        /* \"#utility.yul\":4581:4669   */\n      tag_189\n        /* \"#utility.yul\":4661:4668   */\n      dup6\n        /* \"#utility.yul\":4652:4658   */\n      dup3\n        /* \"#utility.yul\":4641:4650   */\n      dup7\n        /* \"#utility.yul\":4637:4659   */\n      add\n        /* \"#utility.yul\":4581:4669   */\n      tag_153\n      jump\t// in\n    tag_189:\n        /* \"#utility.yul\":4571:4669   */\n      swap3\n      pop\n        /* \"#utility.yul\":4367:4679   */\n      pop\n        /* \"#utility.yul\":4718:4720   */\n      0x20\n        /* \"#utility.yul\":4744:4795   */\n      tag_190\n        /* \"#utility.yul\":4787:4794   */\n      dup6\n        /* \"#utility.yul\":4778:4784   */\n      dup3\n        /* \"#utility.yul\":4767:4776   */\n      dup7\n        /* \"#utility.yul\":4763:4785   */\n      add\n        /* \"#utility.yul\":4744:4795   */\n      tag_162\n      jump\t// in\n    tag_190:\n        /* \"#utility.yul\":4734:4795   */\n      swap2\n      pop\n        /* \"#utility.yul\":4689:4805   */\n      pop\n        /* \"#utility.yul\":4112:4812   */\n      swap3\n      pop\n      swap3\n      swap1\n      pop\n      jump\t// out\n        /* \"#utility.yul\":4818:4936   */\n    tag_191:\n        /* \"#utility.yul\":4905:4929   */\n      tag_193\n        /* \"#utility.yul\":4923:4928   */\n      dup2\n        /* \"#utility.yul\":4905:4929   */\n      tag_194\n      jump\t// in\n    tag_193:\n        /* \"#utility.yul\":4900:4903   */\n      dup3\n        /* \"#utility.yul\":4893:4930   */\n      mstore\n        /* \"#utility.yul\":4818:4936   */\n      pop\n      pop\n      jump\t// out\n        /* \"#utility.yul\":4942:5306   */\n    tag_195:\n        /* \"#utility.yul\":5030:5033   */\n      0x00\n        /* \"#utility.yul\":5058:5097   */\n      tag_197\n        /* \"#utility.yul\":5091:5096   */\n      dup3\n        /* \"#utility.yul\":5058:5097   */\n      tag_198\n      jump\t// in\n    tag_197:\n        /* \"#utility.yul\":5113:5184   */\n      tag_199\n        /* \"#utility.yul\":5177:5183   */\n      dup2\n        /* \"#utility.yul\":5172:5175   */\n      dup6\n        /* \"#utility.yul\":5113:5184   */\n      tag_200\n      jump\t// in\n    tag_199:\n        /* \"#utility.yul\":5106:5184   */\n      swap4\n      pop\n        /* \"#utility.yul\":5193:5245   */\n      tag_201\n        /* \"#utility.yul\":5238:5244   */\n      dup2\n        /* \"#utility.yul\":5233:5236   */\n      dup6\n        /* \"#utility.yul\":5226:5230   */\n      0x20\n        /* \"#utility.yul\":5219:5224   */\n      dup7\n        /* \"#utility.yul\":5215:5231   */\n      add\n        /* \"#utility.yul\":5193:5245   */\n      tag_202\n      jump\t// in\n    tag_201:\n        /* \"#utility.yul\":5270:5299   */\n      tag_203\n        /* \"#utility.yul\":5292:5298   */\n      dup2\n        /* \"#utility.yul\":5270:5299   */\n      tag_204\n      jump\t// in\n    tag_203:\n        /* \"#utility.yul\":5265:5268   */\n      dup5\n        /* \"#utility.yul\":5261:5300   */\n      add\n        /* \"#utility.yul\":5254:5300   */\n      swap2\n      pop\n        /* \"#utility.yul\":5034:5306   */\n      pop\n        /* \"#utility.yul\":4942:5306   */\n      swap3\n      swap2\n      pop\n      pop\n      jump\t// out\n        /* \"#utility.yul\":5312:5430   */\n    tag_205:\n        /* \"#utility.yul\":5399:5423   */\n      tag_207\n        /* \"#utility.yul\":5417:5422   */\n      dup2\n        /* \"#utility.yul\":5399:5423   */\n      tag_208\n      jump\t// in\n    tag_207:\n        /* \"#utility.yul\":5394:5397   */\n      dup3\n        /* \"#utility.yul\":5387:5424   */\n      mstore\n        /* \"#utility.yul\":5312:5430   */\n      pop\n      pop\n      jump\t// out\n        /* \"#utility.yul\":5436:6979   */\n    tag_16:\n        /* \"#utility.yul\":5845:5849   */\n      0x00\n        /* \"#utility.yul\":5883:5886   */\n      0x0100\n        /* \"#utility.yul\":5872:5881   */\n      dup3\n        /* \"#utility.yul\":5868:5887   */\n      add\n        /* \"#utility.yul\":5860:5887   */\n      swap1\n      pop\n        /* \"#utility.yul\":5897:5968   */\n      tag_210\n        /* \"#utility.yul\":5965:5966   */\n      0x00\n        /* \"#utility.yul\":5954:5963   */\n      dup4\n        /* \"#utility.yul\":5950:5967   */\n      add\n        /* \"#utility.yul\":5941:5947   */\n      dup12\n        /* \"#utility.yul\":5897:5968   */\n      tag_191\n      jump\t// in\n    tag_210:\n        /* \"#utility.yul\":6015:6024   */\n      dup2\n        /* \"#utility.yul\":6009:6013   */\n      dup2\n        /* \"#utility.yul\":6005:6025   */\n      sub\n        /* \"#utility.yul\":6000:6002   */\n      0x20\n        /* \"#utility.yul\":5989:5998   */\n      dup4\n        /* \"#utility.yul\":5985:6003   */\n      add\n        /* \"#utility.yul\":5978:6026   */\n      mstore\n        /* \"#utility.yul\":6043:6121   */\n      tag_211\n        /* \"#utility.yul\":6116:6120   */\n      dup2\n        /* \"#utility.yul\":6107:6113   */\n      dup11\n        /* \"#utility.yul\":6043:6121   */\n      tag_195\n      jump\t// in\n    tag_211:\n        /* \"#utility.yul\":6035:6121   */\n      swap1\n      pop\n        /* \"#utility.yul\":6168:6177   */\n      dup2\n        /* \"#utility.yul\":6162:6166   */\n      dup2\n        /* \"#utility.yul\":6158:6178   */\n      sub\n        /* \"#utility.yul\":6153:6155   */\n      0x40\n        /* \"#utility.yul\":6142:6151   */\n      dup4\n        /* \"#utility.yul\":6138:6156   */\n      add\n        /* \"#utility.yul\":6131:6179   */\n      mstore\n        /* \"#utility.yul\":6196:6274   */\n      tag_212\n        /* \"#utility.yul\":6269:6273   */\n      dup2\n        /* \"#utility.yul\":6260:6266   */\n      dup10\n        /* \"#utility.yul\":6196:6274   */\n      tag_195\n      jump\t// in\n    tag_212:\n        /* \"#utility.yul\":6188:6274   */\n      swap1\n      pop\n        /* \"#utility.yul\":6321:6330   */\n      dup2\n        /* \"#utility.yul\":6315:6319   */\n      dup2\n        /* \"#utility.yul\":6311:6331   */\n      sub\n        /* \"#utility.yul\":6306:6308   */\n      0x60\n        /* \"#utility.yul\":6295:6304   */\n      dup4\n        /* \"#utility.yul\":6291:6309   */\n      add\n        /* \"#utility.yul\":6284:6332   */\n      mstore\n        /* \"#utility.yul\":6349:6427   */\n      tag_213\n        /* \"#utility.yul\":6422:6426   */\n      dup2\n        /* \"#utility.yul\":6413:6419   */\n      dup9\n        /* \"#utility.yul\":6349:6427   */\n      tag_195\n      jump\t// in\n    tag_213:\n        /* \"#utility.yul\":6341:6427   */\n      swap1\n      pop\n        /* \"#utility.yul\":6475:6484   */\n      dup2\n        /* \"#utility.yul\":6469:6473   */\n      dup2\n        /* \"#utility.yul\":6465:6485   */\n      sub\n        /* \"#utility.yul\":6459:6462   */\n      0x80\n        /* \"#utility.yul\":6448:6457   */\n      dup4\n        /* \"#utility.yul\":6444:6463   */\n      add\n        /* \"#utility.yul\":6437:6486   */\n      mstore\n        /* \"#utility.yul\":6503:6581   */\n      tag_214\n        /* \"#utility.yul\":6576:6580   */\n      dup2\n        /* \"#utility.yul\":6567:6573   */\n      dup8\n        /* \"#utility.yul\":6503:6581   */\n      tag_195\n      jump\t// in\n    tag_214:\n        /* \"#utility.yul\":6495:6581   */\n      swap1\n      pop\n        /* \"#utility.yul\":6629:6638   */\n      dup2\n        /* \"#utility.yul\":6623:6627   */\n      dup2\n        /* \"#utility.yul\":6619:6639   */\n      sub\n        /* \"#utility.yul\":6613:6616   */\n      0xa0\n        /* \"#utility.yul\":6602:6611   */\n      dup4\n        /* \"#utility.yul\":6598:6617   */\n      add\n        /* \"#utility.yul\":6591:6640   */\n      mstore\n        /* \"#utility.yul\":6657:6735   */\n      tag_215\n        /* \"#utility.yul\":6730:6734   */\n      dup2\n        /* \"#utility.yul\":6721:6727   */\n      dup7\n        /* \"#utility.yul\":6657:6735   */\n      tag_195\n      jump\t// in\n    tag_215:\n        /* \"#utility.yul\":6649:6735   */\n      swap1\n      pop\n        /* \"#utility.yul\":6783:6792   */\n      dup2\n        /* \"#utility.yul\":6777:6781   */\n      dup2\n        /* \"#utility.yul\":6773:6793   */\n      sub\n        /* \"#utility.yul\":6767:6770   */\n      0xc0\n        /* \"#utility.yul\":6756:6765   */\n      dup4\n        /* \"#utility.yul\":6752:6771   */\n      add\n        /* \"#utility.yul\":6745:6794   */\n      mstore\n        /* \"#utility.yul\":6811:6889   */\n      tag_216\n        /* \"#utility.yul\":6884:6888   */\n      dup2\n        /* \"#utility.yul\":6875:6881   */\n      dup6\n        /* \"#utility.yul\":6811:6889   */\n      tag_195\n      jump\t// in\n    tag_216:\n        /* \"#utility.yul\":6803:6889   */\n      swap1\n      pop\n        /* \"#utility.yul\":6899:6972   */\n      tag_217\n        /* \"#utility.yul\":6967:6970   */\n      0xe0\n        /* \"#utility.yul\":6956:6965   */\n      dup4\n        /* \"#utility.yul\":6952:6971   */\n      add\n        /* \"#utility.yul\":6943:6949   */\n      dup5\n        /* \"#utility.yul\":6899:6972   */\n      tag_205\n      jump\t// in\n    tag_217:\n        /* \"#utility.yul\":5436:6979   */\n      swap10\n      swap9\n      pop\n      pop\n      pop\n      pop\n      pop\n      pop\n      pop\n      pop\n      pop\n      jump\t// out\n        /* \"#utility.yul\":6985:7114   */\n    tag_127:\n        /* \"#utility.yul\":7019:7025   */\n      0x00\n        /* \"#utility.yul\":7046:7066   */\n      tag_219\n      tag_220\n      jump\t// in\n    tag_219:\n        /* \"#utility.yul\":7036:7066   */\n      swap1\n      pop\n        /* \"#utility.yul\":7075:7108   */\n      tag_221\n        /* \"#utility.yul\":7103:7107   */\n      dup3\n        /* \"#utility.yul\":7095:7101   */\n      dup3\n        /* \"#utility.yul\":7075:7108   */\n      tag_222\n      jump\t// in\n    tag_221:\n        /* \"#utility.yul\":6985:7114   */\n      swap2\n      swap1\n      pop\n      jump\t// out\n        /* \"#utility.yul\":7120:7195   */\n    tag_220:\n        /* \"#utility.yul\":7153:7159   */\n      0x00\n        /* \"#utility.yul\":7186:7188   */\n      0x40\n        /* \"#utility.yul\":7180:7189   */\n      mload\n        /* \"#utility.yul\":7170:7189   */\n      swap1\n      pop\n        /* \"#utility.yul\":7120:7195   */\n      swap1\n      jump\t// out\n        /* \"#utility.yul\":7201:7522   */\n    tag_126:\n        /* \"#utility.yul\":7288:7292   */\n      0x00\n        /* \"#utility.yul\":7378:7396   */\n      0xffffffffffffffff\n        /* \"#utility.yul\":7370:7376   */\n      dup3\n        /* \"#utility.yul\":7367:7397   */\n      gt\n        /* \"#utility.yul\":7364:7420   */\n      iszero\n      tag_225\n      jumpi\n        /* \"#utility.yul\":7400:7418   */\n      tag_226\n      tag_227\n      jump\t// in\n    tag_226:\n        /* \"#utility.yul\":7364:7420   */\n    tag_225:\n        /* \"#utility.yul\":7450:7454   */\n      0x20\n        /* \"#utility.yul\":7442:7448   */\n      dup3\n        /* \"#utility.yul\":7438:7455   */\n      mul\n        /* \"#utility.yul\":7430:7455   */\n      swap1\n      pop\n        /* \"#utility.yul\":7510:7514   */\n      0x20\n        /* \"#utility.yul\":7504:7508   */\n      dup2\n        /* \"#utility.yul\":7500:7515   */\n      add\n        /* \"#utility.yul\":7492:7515   */\n      swap1\n      pop\n        /* \"#utility.yul\":7201:7522   */\n      swap2\n      swap1\n      pop\n      jump\t// out\n        /* \"#utility.yul\":7528:7836   */\n    tag_143:\n        /* \"#utility.yul\":7590:7594   */\n      0x00\n        /* \"#utility.yul\":7680:7698   */\n      0xffffffffffffffff\n        /* \"#utility.yul\":7672:7678   */\n      dup3\n        /* \"#utility.yul\":7669:7699   */\n      gt\n        /* \"#utility.yul\":7666:7722   */\n      iszero\n      tag_229\n      jumpi\n        /* \"#utility.yul\":7702:7720   */\n      tag_230\n      tag_227\n      jump\t// in\n    tag_230:\n        /* \"#utility.yul\":7666:7722   */\n    tag_229:\n        /* \"#utility.yul\":7740:7769   */\n      tag_231\n        /* \"#utility.yul\":7762:7768   */\n      dup3\n        /* \"#utility.yul\":7740:7769   */\n      tag_204\n      jump\t// in\n    tag_231:\n        /* \"#utility.yul\":7732:7769   */\n      swap1\n      pop\n        /* \"#utility.yul\":7824:7828   */\n      0x20\n        /* \"#utility.yul\":7818:7822   */\n      dup2\n        /* \"#utility.yul\":7814:7829   */\n      add\n        /* \"#utility.yul\":7806:7829   */\n      swap1\n      pop\n        /* \"#utility.yul\":7528:7836   */\n      swap2\n      swap1\n      pop\n      jump\t// out\n        /* \"#utility.yul\":7842:7941   */\n    tag_198:\n        /* \"#utility.yul\":7894:7900   */\n      0x00\n        /* \"#utility.yul\":7928:7933   */\n      dup2\n        /* \"#utility.yul\":7922:7934   */\n      mload\n        /* \"#utility.yul\":7912:7934   */\n      swap1\n      pop\n        /* \"#utility.yul\":7842:7941   */\n      swap2\n      swap1\n      pop\n      jump\t// out\n        /* \"#utility.yul\":7947:8116   */\n    tag_200:\n        /* \"#utility.yul\":8031:8042   */\n      0x00\n        /* \"#utility.yul\":8065:8071   */\n      dup3\n        /* \"#utility.yul\":8060:8063   */\n      dup3\n        /* \"#utility.yul\":8053:8072   */\n      mstore\n        /* \"#utility.yul\":8105:8109   */\n      0x20\n        /* \"#utility.yul\":8100:8103   */\n      dup3\n        /* \"#utility.yul\":8096:8110   */\n      add\n        /* \"#utility.yul\":8081:8110   */\n      swap1\n      pop\n        /* \"#utility.yul\":7947:8116   */\n      swap3\n      swap2\n      pop\n      pop\n      jump\t// out\n        /* \"#utility.yul\":8122:8218   */\n    tag_194:\n        /* \"#utility.yul\":8159:8166   */\n      0x00\n        /* \"#utility.yul\":8188:8212   */\n      tag_235\n        /* \"#utility.yul\":8206:8211   */\n      dup3\n        /* \"#utility.yul\":8188:8212   */\n      tag_236\n      jump\t// in\n    tag_235:\n        /* \"#utility.yul\":8177:8212   */\n      swap1\n      pop\n        /* \"#utility.yul\":8122:8218   */\n      swap2\n      swap1\n      pop\n      jump\t// out\n        /* \"#utility.yul\":8224:8350   */\n    tag_236:\n        /* \"#utility.yul\":8261:8268   */\n      0x00\n        /* \"#utility.yul\":8301:8343   */\n      0xffffffffffffffffffffffffffffffffffffffff\n        /* \"#utility.yul\":8294:8299   */\n      dup3\n        /* \"#utility.yul\":8290:8344   */\n      and\n        /* \"#utility.yul\":8279:8344   */\n      swap1\n      pop\n        /* \"#utility.yul\":8224:8350   */\n      swap2\n      swap1\n      pop\n      jump\t// out\n        /* \"#utility.yul\":8356:8433   */\n    tag_208:\n        /* \"#utility.yul\":8393:8400   */\n      0x00\n        /* \"#utility.yul\":8422:8427   */\n      dup2\n        /* \"#utility.yul\":8411:8427   */\n      swap1\n      pop\n        /* \"#utility.yul\":8356:8433   */\n      swap2\n      swap1\n      pop\n      jump\t// out\n        /* \"#utility.yul\":8439:8525   */\n    tag_239:\n        /* \"#utility.yul\":8474:8481   */\n      0x00\n        /* \"#utility.yul\":8514:8518   */\n      0xff\n        /* \"#utility.yul\":8507:8512   */\n      dup3\n        /* \"#utility.yul\":8503:8519   */\n      and\n        /* \"#utility.yul\":8492:8519   */\n      swap1\n      pop\n        /* \"#utility.yul\":8439:8525   */\n      swap2\n      swap1\n      pop\n      jump\t// out\n        /* \"#utility.yul\":8531:8685   */\n    tag_148:\n        /* \"#utility.yul\":8615:8621   */\n      dup3\n        /* \"#utility.yul\":8610:8613   */\n      dup2\n        /* \"#utility.yul\":8605:8608   */\n      dup4\n        /* \"#utility.yul\":8592:8622   */\n      calldatacopy\n        /* \"#utility.yul\":8677:8678   */\n      0x00\n        /* \"#utility.yul\":8668:8674   */\n      dup4\n        /* \"#utility.yul\":8663:8666   */\n      dup4\n        /* \"#utility.yul\":8659:8675   */\n      add\n        /* \"#utility.yul\":8652:8679   */\n      mstore\n        /* \"#utility.yul\":8531:8685   */\n      pop\n      pop\n      pop\n      jump\t// out\n        /* \"#utility.yul\":8691:8998   */\n    tag_202:\n        /* \"#utility.yul\":8759:8760   */\n      0x00\n        /* \"#utility.yul\":8769:8882   */\n    tag_243:\n        /* \"#utility.yul\":8783:8789   */\n      dup4\n        /* \"#utility.yul\":8780:8781   */\n      dup2\n        /* \"#utility.yul\":8777:8790   */\n      lt\n        /* \"#utility.yul\":8769:8882   */\n      iszero\n      tag_245\n      jumpi\n        /* \"#utility.yul\":8868:8869   */\n      dup1\n        /* \"#utility.yul\":8863:8866   */\n      dup3\n        /* \"#utility.yul\":8859:8870   */\n      add\n        /* \"#utility.yul\":8853:8871   */\n      mload\n        /* \"#utility.yul\":8849:8850   */\n      dup2\n        /* \"#utility.yul\":8844:8847   */\n      dup5\n        /* \"#utility.yul\":8840:8851   */\n      add\n        /* \"#utility.yul\":8833:8872   */\n      mstore\n        /* \"#utility.yul\":8805:8807   */\n      0x20\n        /* \"#utility.yul\":8802:8803   */\n      dup2\n        /* \"#utility.yul\":8798:8808   */\n      add\n        /* \"#utility.yul\":8793:8808   */\n      swap1\n      pop\n        /* \"#utility.yul\":8769:8882   */\n      jump(tag_243)\n    tag_245:\n        /* \"#utility.yul\":8900:8906   */\n      dup4\n        /* \"#utility.yul\":8897:8898   */\n      dup2\n        /* \"#utility.yul\":8894:8907   */\n      gt\n        /* \"#utility.yul\":8891:8992   */\n      iszero\n      tag_246\n      jumpi\n        /* \"#utility.yul\":8980:8981   */\n      0x00\n        /* \"#utility.yul\":8971:8977   */\n      dup5\n        /* \"#utility.yul\":8966:8969   */\n      dup5\n        /* \"#utility.yul\":8962:8978   */\n      add\n        /* \"#utility.yul\":8955:8982   */\n      mstore\n        /* \"#utility.yul\":8891:8992   */\n    tag_246:\n        /* \"#utility.yul\":8740:8998   */\n      pop\n        /* \"#utility.yul\":8691:8998   */\n      pop\n      pop\n      pop\n      jump\t// out\n        /* \"#utility.yul\":9004:9324   */\n    tag_28:\n        /* \"#utility.yul\":9048:9054   */\n      0x00\n        /* \"#utility.yul\":9085:9086   */\n      0x02\n        /* \"#utility.yul\":9079:9083   */\n      dup3\n        /* \"#utility.yul\":9075:9087   */\n      div\n        /* \"#utility.yul\":9065:9087   */\n      swap1\n      pop\n        /* \"#utility.yul\":9132:9133   */\n      0x01\n        /* \"#utility.yul\":9126:9130   */\n      dup3\n        /* \"#utility.yul\":9122:9134   */\n      and\n        /* \"#utility.yul\":9153:9171   */\n      dup1\n        /* \"#utility.yul\":9143:9224   */\n      tag_248\n      jumpi\n        /* \"#utility.yul\":9209:9213   */\n      0x7f\n        /* \"#utility.yul\":9201:9207   */\n      dup3\n        /* \"#utility.yul\":9197:9214   */\n      and\n        /* \"#utility.yul\":9187:9214   */\n      swap2\n      pop\n        /* \"#utility.yul\":9143:9224   */\n    tag_248:\n        /* \"#utility.yul\":9271:9273   */\n      0x20\n        /* \"#utility.yul\":9263:9269   */\n      dup3\n        /* \"#utility.yul\":9260:9274   */\n      lt\n        /* \"#utility.yul\":9240:9258   */\n      dup2\n        /* \"#utility.yul\":9237:9275   */\n      eq\n        /* \"#utility.yul\":9234:9318   */\n      iszero\n      tag_249\n      jumpi\n        /* \"#utility.yul\":9290:9308   */\n      tag_250\n      tag_251\n      jump\t// in\n    tag_250:\n        /* \"#utility.yul\":9234:9318   */\n    tag_249:\n        /* \"#utility.yul\":9055:9324   */\n      pop\n        /* \"#utility.yul\":9004:9324   */\n      swap2\n      swap1\n      pop\n      jump\t// out\n        /* \"#utility.yul\":9330:9611   */\n    tag_222:\n        /* \"#utility.yul\":9413:9440   */\n      tag_253\n        /* \"#utility.yul\":9435:9439   */\n      dup3\n        /* \"#utility.yul\":9413:9440   */\n      tag_204\n      jump\t// in\n    tag_253:\n        /* \"#utility.yul\":9405:9411   */\n      dup2\n        /* \"#utility.yul\":9401:9441   */\n      add\n        /* \"#utility.yul\":9543:9549   */\n      dup2\n        /* \"#utility.yul\":9531:9541   */\n      dup2\n        /* \"#utility.yul\":9528:9550   */\n      lt\n        /* \"#utility.yul\":9507:9525   */\n      0xffffffffffffffff\n        /* \"#utility.yul\":9495:9505   */\n      dup3\n        /* \"#utility.yul\":9492:9526   */\n      gt\n        /* \"#utility.yul\":9489:9551   */\n      or\n        /* \"#utility.yul\":9486:9574   */\n      iszero\n      tag_254\n      jumpi\n        /* \"#utility.yul\":9554:9572   */\n      tag_255\n      tag_227\n      jump\t// in\n    tag_255:\n        /* \"#utility.yul\":9486:9574   */\n    tag_254:\n        /* \"#utility.yul\":9594:9604   */\n      dup1\n        /* \"#utility.yul\":9590:9592   */\n      0x40\n        /* \"#utility.yul\":9583:9605   */\n      mstore\n        /* \"#utility.yul\":9373:9611   */\n      pop\n        /* \"#utility.yul\":9330:9611   */\n      pop\n      pop\n      jump\t// out\n        /* \"#utility.yul\":9617:9784   */\n    tag_70:\n        /* \"#utility.yul\":9654:9657   */\n      0x00\n        /* \"#utility.yul\":9677:9699   */\n      tag_257\n        /* \"#utility.yul\":9693:9698   */\n      dup3\n        /* \"#utility.yul\":9677:9699   */\n      tag_239\n      jump\t// in\n    tag_257:\n        /* \"#utility.yul\":9668:9699   */\n      swap2\n      pop\n        /* \"#utility.yul\":9721:9725   */\n      0xff\n        /* \"#utility.yul\":9714:9719   */\n      dup3\n        /* \"#utility.yul\":9711:9726   */\n      eq\n        /* \"#utility.yul\":9708:9749   */\n      iszero\n      tag_258\n      jumpi\n        /* \"#utility.yul\":9729:9747   */\n      tag_259\n      tag_260\n      jump\t// in\n    tag_259:\n        /* \"#utility.yul\":9708:9749   */\n    tag_258:\n        /* \"#utility.yul\":9776:9777   */\n      0x01\n        /* \"#utility.yul\":9769:9774   */\n      dup3\n        /* \"#utility.yul\":9765:9778   */\n      add\n        /* \"#utility.yul\":9758:9778   */\n      swap1\n      pop\n        /* \"#utility.yul\":9617:9784   */\n      swap2\n      swap1\n      pop\n      jump\t// out\n        /* \"#utility.yul\":9790:9970   */\n    tag_260:\n        /* \"#utility.yul\":9838:9915   */\n      0x4e487b7100000000000000000000000000000000000000000000000000000000\n        /* \"#utility.yul\":9835:9836   */\n      0x00\n        /* \"#utility.yul\":9828:9916   */\n      mstore\n        /* \"#utility.yul\":9935:9939   */\n      0x11\n        /* \"#utility.yul\":9932:9933   */\n      0x04\n        /* \"#utility.yul\":9925:9940   */\n      mstore\n        /* \"#utility.yul\":9959:9963   */\n      0x24\n        /* \"#utility.yul\":9956:9957   */\n      0x00\n        /* \"#utility.yul\":9949:9964   */\n      revert\n        /* \"#utility.yul\":9976:10156   */\n    tag_251:\n        /* \"#utility.yul\":10024:10101   */\n      0x4e487b7100000000000000000000000000000000000000000000000000000000\n        /* \"#utility.yul\":10021:10022   */\n      0x00\n        /* \"#utility.yul\":10014:10102   */\n      mstore\n        /* \"#utility.yul\":10121:10125   */\n      0x22\n        /* \"#utility.yul\":10118:10119   */\n      0x04\n        /* \"#utility.yul\":10111:10126   */\n      mstore\n        /* \"#utility.yul\":10145:10149   */\n      0x24\n        /* \"#utility.yul\":10142:10143   */\n      0x00\n        /* \"#utility.yul\":10135:10150   */\n      revert\n        /* \"#utility.yul\":10162:10342   */\n    tag_65:\n        /* \"#utility.yul\":10210:10287   */\n      0x4e487b7100000000000000000000000000000000000000000000000000000000\n        /* \"#utility.yul\":10207:10208   */\n      0x00\n        /* \"#utility.yul\":10200:10288   */\n      mstore\n        /* \"#utility.yul\":10307:10311   */\n      0x32\n        /* \"#utility.yul\":10304:10305   */\n      0x04\n        /* \"#utility.yul\":10297:10312   */\n      mstore\n        /* \"#utility.yul\":10331:10335   */\n      0x24\n        /* \"#utility.yul\":10328:10329   */\n      0x00\n        /* \"#utility.yul\":10321:10336   */\n      revert\n        /* \"#utility.yul\":10348:10528   */\n    tag_227:\n        /* \"#utility.yul\":10396:10473   */\n      0x4e487b7100000000000000000000000000000000000000000000000000000000\n        /* \"#utility.yul\":10393:10394   */\n      0x00\n        /* \"#utility.yul\":10386:10474   */\n      mstore\n        /* \"#utility.yul\":10493:10497   */\n      0x41\n        /* \"#utility.yul\":10490:10491   */\n      0x04\n        /* \"#utility.yul\":10483:10498   */\n      mstore\n        /* \"#utility.yul\":10517:10521   */\n      0x24\n        /* \"#utility.yul\":10514:10515   */\n      0x00\n        /* \"#utility.yul\":10507:10522   */\n      revert\n        /* \"#utility.yul\":10534:10651   */\n    tag_136:\n        /* \"#utility.yul\":10643:10644   */\n      0x00\n        /* \"#utility.yul\":10640:10641   */\n      dup1\n        /* \"#utility.yul\":10633:10645   */\n      revert\n        /* \"#utility.yul\":10657:10774   */\n    tag_130:\n        /* \"#utility.yul\":10766:10767   */\n      0x00\n        /* \"#utility.yul\":10763:10764   */\n      dup1\n        /* \"#utility.yul\":10756:10768   */\n      revert\n        /* \"#utility.yul\":10780:10897   */\n    tag_146:\n        /* \"#utility.yul\":10889:10890   */\n      0x00\n        /* \"#utility.yul\":10886:10887   */\n      dup1\n        /* \"#utility.yul\":10879:10891   */\n      revert\n        /* \"#utility.yul\":10903:11020   */\n    tag_176:\n        /* \"#utility.yul\":11012:11013   */\n      0x00\n        /* \"#utility.yul\":11009:11010   */\n      dup1\n        /* \"#utility.yul\":11002:11014   */\n      revert\n        /* \"#utility.yul\":11026:11143   */\n    tag_169:\n        /* \"#utility.yul\":11135:11136   */\n      0x00\n        /* \"#utility.yul\":11132:11133   */\n      dup1\n        /* \"#utility.yul\":11125:11137   */\n      revert\n        /* \"#utility.yul\":11149:11251   */\n    tag_204:\n        /* \"#utility.yul\":11190:11196   */\n      0x00\n        /* \"#utility.yul\":11241:11243   */\n      0x1f\n        /* \"#utility.yul\":11237:11244   */\n      not\n        /* \"#utility.yul\":11232:11234   */\n      0x1f\n        /* \"#utility.yul\":11225:11230   */\n      dup4\n        /* \"#utility.yul\":11221:11235   */\n      add\n        /* \"#utility.yul\":11217:11245   */\n      and\n        /* \"#utility.yul\":11207:11245   */\n      swap1\n      pop\n        /* \"#utility.yul\":11149:11251   */\n      swap2\n      swap1\n      pop\n      jump\t// out\n        /* \"#utility.yul\":11257:11379   */\n    tag_152:\n        /* \"#utility.yul\":11330:11354   */\n      tag_272\n        /* \"#utility.yul\":11348:11353   */\n      dup2\n        /* \"#utility.yul\":11330:11354   */\n      tag_194\n      jump\t// in\n    tag_272:\n        /* \"#utility.yul\":11323:11328   */\n      dup2\n        /* \"#utility.yul\":11320:11355   */\n      eq\n        /* \"#utility.yul\":11310:11373   */\n      tag_273\n      jumpi\n        /* \"#utility.yul\":11369:11370   */\n      0x00\n        /* \"#utility.yul\":11366:11367   */\n      dup1\n        /* \"#utility.yul\":11359:11371   */\n      revert\n        /* \"#utility.yul\":11310:11373   */\n    tag_273:\n        /* \"#utility.yul\":11257:11379   */\n      pop\n      jump\t// out\n        /* \"#utility.yul\":11385:11503   */\n    tag_165:\n        /* \"#utility.yul\":11456:11478   */\n      tag_275\n        /* \"#utility.yul\":11472:11477   */\n      dup2\n        /* \"#utility.yul\":11456:11478   */\n      tag_239\n      jump\t// in\n    tag_275:\n        /* \"#utility.yul\":11449:11454   */\n      dup2\n        /* \"#utility.yul\":11446:11479   */\n      eq\n        /* \"#utility.yul\":11436:11497   */\n      tag_276\n      jumpi\n        /* \"#utility.yul\":11493:11494   */\n      0x00\n        /* \"#utility.yul\":11490:11491   */\n      dup1\n        /* \"#utility.yul\":11483:11495   */\n      revert\n        /* \"#utility.yul\":11436:11497   */\n    tag_276:\n        /* \"#utility.yul\":11385:11503   */\n      pop\n      jump\t// out\n\n    auxdata: 0xa26469706673582212209eb708a6b889bd26d7c57ea1272e6d8debff0ff4fff99bdb6d259dc25e47077864736f6c63430008070033\n}\n",
				"bytecode": {
					"linkReferences": {},
					"object": "608060405234801561001057600080fd5b50610f93806100206000396000f3fe608060405234801561001057600080fd5b506004361061004c5760003560e01c80630c8c0186146100515780639dd9d0fd1461006d578063bc5c05a8146100a4578063fabce08f146100c0575b600080fd5b61006b60048036038101906100669190610a91565b6100ca565b005b61008760048036038101906100829190610a64565b6100f0565b60405161009b989796959493929190610beb565b60405180910390f35b6100be60048036038101906100b99190610b38565b610488565b005b6100c86106e4565b005b6100d5836000610488565b6100e0826001610488565b6100eb816002610488565b505050565b60006020528060005260406000206000915090508060000160009054906101000a900473ffffffffffffffffffffffffffffffffffffffff169080600101805461013990610dbc565b80601f016020809104026020016040519081016040528092919081815260200182805461016590610dbc565b80156101b25780601f10610187576101008083540402835291602001916101b2565b820191906000526020600020905b81548152906001019060200180831161019557829003601f168201915b5050505050908060020180546101c790610dbc565b80601f01602080910402602001604051908101604052809291908181526020018280546101f390610dbc565b80156102405780601f1061021557610100808354040283529160200191610240565b820191906000526020600020905b81548152906001019060200180831161022357829003601f168201915b50505050509080600301805461025590610dbc565b80601f016020809104026020016040519081016040528092919081815260200182805461028190610dbc565b80156102ce5780601f106102a3576101008083540402835291602001916102ce565b820191906000526020600020905b8154815290600101906020018083116102b157829003601f168201915b5050505050908060040180546102e390610dbc565b80601f016020809104026020016040519081016040528092919081815260200182805461030f90610dbc565b801561035c5780601f106103315761010080835404028352916020019161035c565b820191906000526020600020905b81548152906001019060200180831161033f57829003601f168201915b50505050509080600501805461037190610dbc565b80601f016020809104026020016040519081016040528092919081815260200182805461039d90610dbc565b80156103ea5780601f106103bf576101008083540402835291602001916103ea565b820191906000526020600020905b8154815290600101906020018083116103cd57829003601f168201915b5050505050908060060180546103ff90610dbc565b80601f016020809104026020016040519081016040528092919081815260200182805461042b90610dbc565b80156104785780601f1061044d57610100808354040283529160200191610478565b820191906000526020600020905b81548152906001019060200180831161045b57829003601f168201915b5050505050908060070154905088565b60008160ff1614156105505760005b82518160ff16101561054e576000803373ffffffffffffffffffffffffffffffffffffffff1673ffffffffffffffffffffffffffffffffffffffff168152602001908152602001600020600801838260ff16815181106104fa576104f9610ea7565b5b602002602001015190806001815401808255809150506001900390600052602060002001600090919091909150908051906020019061053a9291906107e6565b50808061054690610e1f565b915050610497565b505b60018160ff1614156106185760005b82518160ff161015610616576000803373ffffffffffffffffffffffffffffffffffffffff1673ffffffffffffffffffffffffffffffffffffffff168152602001908152602001600020600901838260ff16815181106105c2576105c1610ea7565b5b60200260200101519080600181540180825580915050600190039060005260206000200160009091909190915090805190602001906106029291906107e6565b50808061060e90610e1f565b91505061055f565b505b60028160ff1614156106e05760005b82518160ff1610156106de576000803373ffffffffffffffffffffffffffffffffffffffff1673ffffffffffffffffffffffffffffffffffffffff168152602001908152602001600020600a01838260ff168151811061068a57610689610ea7565b5b60200260200101519080600181540180825580915050600190039060005260206000200160009091909190915090805190602001906106ca9291906107e6565b5080806106d690610e1f565b915050610627565b505b5050565b6000803373ffffffffffffffffffffffffffffffffffffffff1673ffffffffffffffffffffffffffffffffffffffff168152602001908152602001600020600080820160006101000a81549073ffffffffffffffffffffffffffffffffffffffff021916905560018201600061075a919061086c565b60028201600061076a919061086c565b60038201600061077a919061086c565b60048201600061078a919061086c565b60058201600061079a919061086c565b6006820160006107aa919061086c565b60078201600090556008820160006107c291906108ac565b6009820160006107d291906108ac565b600a820160006107e291906108ac565b5050565b8280546107f290610dbc565b90600052602060002090601f016020900481019282610814576000855561085b565b82601f1061082d57805160ff191683800117855561085b565b8280016001018555821561085b579182015b8281111561085a57825182559160200191906001019061083f565b5b50905061086891906108cd565b5090565b50805461087890610dbc565b6000825580601f1061088a57506108a9565b601f0160209004906000526020600020908101906108a891906108cd565b5b50565b50805460008255906000526020600020908101906108ca91906108ea565b50565b5b808211156108e65760008160009055506001016108ce565b5090565b5b8082111561090a5760008181610901919061086c565b506001016108eb565b5090565b600061092161091c84610cb8565b610c93565b9050808382526020820190508285602086028201111561094457610943610f0a565b5b60005b8581101561099257813567ffffffffffffffff81111561096a57610969610f05565b5b8086016109778982610a21565b85526020850194506020840193505050600181019050610947565b5050509392505050565b60006109af6109aa84610ce4565b610c93565b9050828152602081018484840111156109cb576109ca610f0f565b5b6109d6848285610d7a565b509392505050565b6000813590506109ed81610f2f565b92915050565b600082601f830112610a0857610a07610f05565b5b8135610a1884826020860161090e565b91505092915050565b600082601f830112610a3657610a35610f05565b5b8135610a4684826020860161099c565b91505092915050565b600081359050610a5e81610f46565b92915050565b600060208284031215610a7a57610a79610f19565b5b6000610a88848285016109de565b91505092915050565b600080600060608486031215610aaa57610aa9610f19565b5b600084013567ffffffffffffffff811115610ac857610ac7610f14565b5b610ad4868287016109f3565b935050602084013567ffffffffffffffff811115610af557610af4610f14565b5b610b01868287016109f3565b925050604084013567ffffffffffffffff811115610b2257610b21610f14565b5b610b2e868287016109f3565b9150509250925092565b60008060408385031215610b4f57610b4e610f19565b5b600083013567ffffffffffffffff811115610b6d57610b6c610f14565b5b610b79858286016109f3565b9250506020610b8a85828601610a4f565b9150509250929050565b610b9d81610d31565b82525050565b6000610bae82610d15565b610bb88185610d20565b9350610bc8818560208601610d89565b610bd181610f1e565b840191505092915050565b610be581610d63565b82525050565b600061010082019050610c01600083018b610b94565b8181036020830152610c13818a610ba3565b90508181036040830152610c278189610ba3565b90508181036060830152610c3b8188610ba3565b90508181036080830152610c4f8187610ba3565b905081810360a0830152610c638186610ba3565b905081810360c0830152610c778185610ba3565b9050610c8660e0830184610bdc565b9998505050505050505050565b6000610c9d610cae565b9050610ca98282610dee565b919050565b6000604051905090565b600067ffffffffffffffff821115610cd357610cd2610ed6565b5b602082029050602081019050919050565b600067ffffffffffffffff821115610cff57610cfe610ed6565b5b610d0882610f1e565b9050602081019050919050565b600081519050919050565b600082825260208201905092915050565b6000610d3c82610d43565b9050919050565b600073ffffffffffffffffffffffffffffffffffffffff82169050919050565b6000819050919050565b600060ff82169050919050565b82818337600083830152505050565b60005b83811015610da7578082015181840152602081019050610d8c565b83811115610db6576000848401525b50505050565b60006002820490506001821680610dd457607f821691505b60208210811415610de857610de7610e78565b5b50919050565b610df782610f1e565b810181811067ffffffffffffffff82111715610e1657610e15610ed6565b5b80604052505050565b6000610e2a82610d6d565b915060ff821415610e3e57610e3d610e49565b5b600182019050919050565b7f4e487b7100000000000000000000000000000000000000000000000000000000600052601160045260246000fd5b7f4e487b7100000000000000000000000000000000000000000000000000000000600052602260045260246000fd5b7f4e487b7100000000000000000000000000000000000000000000000000000000600052603260045260246000fd5b7f4e487b7100000000000000000000000000000000000000000000000000000000600052604160045260246000fd5b600080fd5b600080fd5b600080fd5b600080fd5b600080fd5b6000601f19601f8301169050919050565b610f3881610d31565b8114610f4357600080fd5b50565b610f4f81610d6d565b8114610f5a57600080fd5b5056fea26469706673582212209eb708a6b889bd26d7c57ea1272e6d8debff0ff4fff99bdb6d259dc25e47077864736f6c63430008070033",
					"opcodes": "PUSH1 0x80 PUSH1 0x40 MSTORE CALLVALUE DUP1 ISZERO PUSH2 0x10 JUMPI PUSH1 0x0 DUP1 REVERT JUMPDEST POP PUSH2 0xF93 DUP1 PUSH2 0x20 PUSH1 0x0 CODECOPY PUSH1 0x0 RETURN INVALID PUSH1 0x80 PUSH1 0x40 MSTORE CALLVALUE DUP1 ISZERO PUSH2 0x10 JUMPI PUSH1 0x0 DUP1 REVERT JUMPDEST POP PUSH1 0x4 CALLDATASIZE LT PUSH2 0x4C JUMPI PUSH1 0x0 CALLDATALOAD PUSH1 0xE0 SHR DUP1 PUSH4 0xC8C0186 EQ PUSH2 0x51 JUMPI DUP1 PUSH4 0x9DD9D0FD EQ PUSH2 0x6D JUMPI DUP1 PUSH4 0xBC5C05A8 EQ PUSH2 0xA4 JUMPI DUP1 PUSH4 0xFABCE08F EQ PUSH2 0xC0 JUMPI JUMPDEST PUSH1 0x0 DUP1 REVERT JUMPDEST PUSH2 0x6B PUSH1 0x4 DUP1 CALLDATASIZE SUB DUP2 ADD SWAP1 PUSH2 0x66 SWAP2 SWAP1 PUSH2 0xA91 JUMP JUMPDEST PUSH2 0xCA JUMP JUMPDEST STOP JUMPDEST PUSH2 0x87 PUSH1 0x4 DUP1 CALLDATASIZE SUB DUP2 ADD SWAP1 PUSH2 0x82 SWAP2 SWAP1 PUSH2 0xA64 JUMP JUMPDEST PUSH2 0xF0 JUMP JUMPDEST PUSH1 0x40 MLOAD PUSH2 0x9B SWAP9 SWAP8 SWAP7 SWAP6 SWAP5 SWAP4 SWAP3 SWAP2 SWAP1 PUSH2 0xBEB JUMP JUMPDEST PUSH1 0x40 MLOAD DUP1 SWAP2 SUB SWAP1 RETURN JUMPDEST PUSH2 0xBE PUSH1 0x4 DUP1 CALLDATASIZE SUB DUP2 ADD SWAP1 PUSH2 0xB9 SWAP2 SWAP1 PUSH2 0xB38 JUMP JUMPDEST PUSH2 0x488 JUMP JUMPDEST STOP JUMPDEST PUSH2 0xC8 PUSH2 0x6E4 JUMP JUMPDEST STOP JUMPDEST PUSH2 0xD5 DUP4 PUSH1 0x0 PUSH2 0x488 JUMP JUMPDEST PUSH2 0xE0 DUP3 PUSH1 0x1 PUSH2 0x488 JUMP JUMPDEST PUSH2 0xEB DUP2 PUSH1 0x2 PUSH2 0x488 JUMP JUMPDEST POP POP POP JUMP JUMPDEST PUSH1 0x0 PUSH1 0x20 MSTORE DUP1 PUSH1 0x0 MSTORE PUSH1 0x40 PUSH1 0x0 KECCAK256 PUSH1 0x0 SWAP2 POP SWAP1 POP DUP1 PUSH1 0x0 ADD PUSH1 0x0 SWAP1 SLOAD SWAP1 PUSH2 0x100 EXP SWAP1 DIV PUSH20 0xFFFFFFFFFFFFFFFFFFFFFFFFFFFFFFFFFFFFFFFF AND SWAP1 DUP1 PUSH1 0x1 ADD DUP1 SLOAD PUSH2 0x139 SWAP1 PUSH2 0xDBC JUMP JUMPDEST DUP1 PUSH1 0x1F ADD PUSH1 0x20 DUP1 SWAP2 DIV MUL PUSH1 0x20 ADD PUSH1 0x40 MLOAD SWAP1 DUP2 ADD PUSH1 0x40 MSTORE DUP1 SWAP3 SWAP2 SWAP1 DUP2 DUP2 MSTORE PUSH1 0x20 ADD DUP3 DUP1 SLOAD PUSH2 0x165 SWAP1 PUSH2 0xDBC JUMP JUMPDEST DUP1 ISZERO PUSH2 0x1B2 JUMPI DUP1 PUSH1 0x1F LT PUSH2 0x187 JUMPI PUSH2 0x100 DUP1 DUP4 SLOAD DIV MUL DUP4 MSTORE SWAP2 PUSH1 0x20 ADD SWAP2 PUSH2 0x1B2 JUMP JUMPDEST DUP3 ADD SWAP2 SWAP1 PUSH1 0x0 MSTORE PUSH1 0x20 PUSH1 0x0 KECCAK256 SWAP1 JUMPDEST DUP2 SLOAD DUP2 MSTORE SWAP1 PUSH1 0x1 ADD SWAP1 PUSH1 0x20 ADD DUP1 DUP4 GT PUSH2 0x195 JUMPI DUP3 SWAP1 SUB PUSH1 0x1F AND DUP3 ADD SWAP2 JUMPDEST POP POP POP POP POP SWAP1 DUP1 PUSH1 0x2 ADD DUP1 SLOAD PUSH2 0x1C7 SWAP1 PUSH2 0xDBC JUMP JUMPDEST DUP1 PUSH1 0x1F ADD PUSH1 0x20 DUP1 SWAP2 DIV MUL PUSH1 0x20 ADD PUSH1 0x40 MLOAD SWAP1 DUP2 ADD PUSH1 0x40 MSTORE DUP1 SWAP3 SWAP2 SWAP1 DUP2 DUP2 MSTORE PUSH1 0x20 ADD DUP3 DUP1 SLOAD PUSH2 0x1F3 SWAP1 PUSH2 0xDBC JUMP JUMPDEST DUP1 ISZERO PUSH2 0x240 JUMPI DUP1 PUSH1 0x1F LT PUSH2 0x215 JUMPI PUSH2 0x100 DUP1 DUP4 SLOAD DIV MUL DUP4 MSTORE SWAP2 PUSH1 0x20 ADD SWAP2 PUSH2 0x240 JUMP JUMPDEST DUP3 ADD SWAP2 SWAP1 PUSH1 0x0 MSTORE PUSH1 0x20 PUSH1 0x0 KECCAK256 SWAP1 JUMPDEST DUP2 SLOAD DUP2 MSTORE SWAP1 PUSH1 0x1 ADD SWAP1 PUSH1 0x20 ADD DUP1 DUP4 GT PUSH2 0x223 JUMPI DUP3 SWAP1 SUB PUSH1 0x1F AND DUP3 ADD SWAP2 JUMPDEST POP POP POP POP POP SWAP1 DUP1 PUSH1 0x3 ADD DUP1 SLOAD PUSH2 0x255 SWAP1 PUSH2 0xDBC JUMP JUMPDEST DUP1 PUSH1 0x1F ADD PUSH1 0x20 DUP1 SWAP2 DIV MUL PUSH1 0x20 ADD PUSH1 0x40 MLOAD SWAP1 DUP2 ADD PUSH1 0x40 MSTORE DUP1 SWAP3 SWAP2 SWAP1 DUP2 DUP2 MSTORE PUSH1 0x20 ADD DUP3 DUP1 SLOAD PUSH2 0x281 SWAP1 PUSH2 0xDBC JUMP JUMPDEST DUP1 ISZERO PUSH2 0x2CE JUMPI DUP1 PUSH1 0x1F LT PUSH2 0x2A3 JUMPI PUSH2 0x100 DUP1 DUP4 SLOAD DIV MUL DUP4 MSTORE SWAP2 PUSH1 0x20 ADD SWAP2 PUSH2 0x2CE JUMP JUMPDEST DUP3 ADD SWAP2 SWAP1 PUSH1 0x0 MSTORE PUSH1 0x20 PUSH1 0x0 KECCAK256 SWAP1 JUMPDEST DUP2 SLOAD DUP2 MSTORE SWAP1 PUSH1 0x1 ADD SWAP1 PUSH1 0x20 ADD DUP1 DUP4 GT PUSH2 0x2B1 JUMPI DUP3 SWAP1 SUB PUSH1 0x1F AND DUP3 ADD SWAP2 JUMPDEST POP POP POP POP POP SWAP1 DUP1 PUSH1 0x4 ADD DUP1 SLOAD PUSH2 0x2E3 SWAP1 PUSH2 0xDBC JUMP JUMPDEST DUP1 PUSH1 0x1F ADD PUSH1 0x20 DUP1 SWAP2 DIV MUL PUSH1 0x20 ADD PUSH1 0x40 MLOAD SWAP1 DUP2 ADD PUSH1 0x40 MSTORE DUP1 SWAP3 SWAP2 SWAP1 DUP2 DUP2 MSTORE PUSH1 0x20 ADD DUP3 DUP1 SLOAD PUSH2 0x30F SWAP1 PUSH2 0xDBC JUMP JUMPDEST DUP1 ISZERO PUSH2 0x35C JUMPI DUP1 PUSH1 0x1F LT PUSH2 0x331 JUMPI PUSH2 0x100 DUP1 DUP4 SLOAD DIV MUL DUP4 MSTORE SWAP2 PUSH1 0x20 ADD SWAP2 PUSH2 0x35C JUMP JUMPDEST DUP3 ADD SWAP2 SWAP1 PUSH1 0x0 MSTORE PUSH1 0x20 PUSH1 0x0 KECCAK256 SWAP1 JUMPDEST DUP2 SLOAD DUP2 MSTORE SWAP1 PUSH1 0x1 ADD SWAP1 PUSH1 0x20 ADD DUP1 DUP4 GT PUSH2 0x33F JUMPI DUP3 SWAP1 SUB PUSH1 0x1F AND DUP3 ADD SWAP2 JUMPDEST POP POP POP POP POP SWAP1 DUP1 PUSH1 0x5 ADD DUP1 SLOAD PUSH2 0x371 SWAP1 PUSH2 0xDBC JUMP JUMPDEST DUP1 PUSH1 0x1F ADD PUSH1 0x20 DUP1 SWAP2 DIV MUL PUSH1 0x20 ADD PUSH1 0x40 MLOAD SWAP1 DUP2 ADD PUSH1 0x40 MSTORE DUP1 SWAP3 SWAP2 SWAP1 DUP2 DUP2 MSTORE PUSH1 0x20 ADD DUP3 DUP1 SLOAD PUSH2 0x39D SWAP1 PUSH2 0xDBC JUMP JUMPDEST DUP1 ISZERO PUSH2 0x3EA JUMPI DUP1 PUSH1 0x1F LT PUSH2 0x3BF JUMPI PUSH2 0x100 DUP1 DUP4 SLOAD DIV MUL DUP4 MSTORE SWAP2 PUSH1 0x20 ADD SWAP2 PUSH2 0x3EA JUMP JUMPDEST DUP3 ADD SWAP2 SWAP1 PUSH1 0x0 MSTORE PUSH1 0x20 PUSH1 0x0 KECCAK256 SWAP1 JUMPDEST DUP2 SLOAD DUP2 MSTORE SWAP1 PUSH1 0x1 ADD SWAP1 PUSH1 0x20 ADD DUP1 DUP4 GT PUSH2 0x3CD JUMPI DUP3 SWAP1 SUB PUSH1 0x1F AND DUP3 ADD SWAP2 JUMPDEST POP POP POP POP POP SWAP1 DUP1 PUSH1 0x6 ADD DUP1 SLOAD PUSH2 0x3FF SWAP1 PUSH2 0xDBC JUMP JUMPDEST DUP1 PUSH1 0x1F ADD PUSH1 0x20 DUP1 SWAP2 DIV MUL PUSH1 0x20 ADD PUSH1 0x40 MLOAD SWAP1 DUP2 ADD PUSH1 0x40 MSTORE DUP1 SWAP3 SWAP2 SWAP1 DUP2 DUP2 MSTORE PUSH1 0x20 ADD DUP3 DUP1 SLOAD PUSH2 0x42B SWAP1 PUSH2 0xDBC JUMP JUMPDEST DUP1 ISZERO PUSH2 0x478 JUMPI DUP1 PUSH1 0x1F LT PUSH2 0x44D JUMPI PUSH2 0x100 DUP1 DUP4 SLOAD DIV MUL DUP4 MSTORE SWAP2 PUSH1 0x20 ADD SWAP2 PUSH2 0x478 JUMP JUMPDEST DUP3 ADD SWAP2 SWAP1 PUSH1 0x0 MSTORE PUSH1 0x20 PUSH1 0x0 KECCAK256 SWAP1 JUMPDEST DUP2 SLOAD DUP2 MSTORE SWAP1 PUSH1 0x1 ADD SWAP1 PUSH1 0x20 ADD DUP1 DUP4 GT PUSH2 0x45B JUMPI DUP3 SWAP1 SUB PUSH1 0x1F AND DUP3 ADD SWAP2 JUMPDEST POP POP POP POP POP SWAP1 DUP1 PUSH1 0x7 ADD SLOAD SWAP1 POP DUP9 JUMP JUMPDEST PUSH1 0x0 DUP2 PUSH1 0xFF AND EQ ISZERO PUSH2 0x550 JUMPI PUSH1 0x0 JUMPDEST DUP3 MLOAD DUP2 PUSH1 0xFF AND LT ISZERO PUSH2 0x54E JUMPI PUSH1 0x0 DUP1 CALLER PUSH20 0xFFFFFFFFFFFFFFFFFFFFFFFFFFFFFFFFFFFFFFFF AND PUSH20 0xFFFFFFFFFFFFFFFFFFFFFFFFFFFFFFFFFFFFFFFF AND DUP2 MSTORE PUSH1 0x20 ADD SWAP1 DUP2 MSTORE PUSH1 0x20 ADD PUSH1 0x0 KECCAK256 PUSH1 0x8 ADD DUP4 DUP3 PUSH1 0xFF AND DUP2 MLOAD DUP2 LT PUSH2 0x4FA JUMPI PUSH2 0x4F9 PUSH2 0xEA7 JUMP JUMPDEST JUMPDEST PUSH1 0x20 MUL PUSH1 0x20 ADD ADD MLOAD SWAP1 DUP1 PUSH1 0x1 DUP2 SLOAD ADD DUP1 DUP3 SSTORE DUP1 SWAP2 POP POP PUSH1 0x1 SWAP1 SUB SWAP1 PUSH1 0x0 MSTORE PUSH1 0x20 PUSH1 0x0 KECCAK256 ADD PUSH1 0x0 SWAP1 SWAP2 SWAP1 SWAP2 SWAP1 SWAP2 POP SWAP1 DUP1 MLOAD SWAP1 PUSH1 0x20 ADD SWAP1 PUSH2 0x53A SWAP3 SWAP2 SWAP1 PUSH2 0x7E6 JUMP JUMPDEST POP DUP1 DUP1 PUSH2 0x546 SWAP1 PUSH2 0xE1F JUMP JUMPDEST SWAP2 POP POP PUSH2 0x497 JUMP JUMPDEST POP JUMPDEST PUSH1 0x1 DUP2 PUSH1 0xFF AND EQ ISZERO PUSH2 0x618 JUMPI PUSH1 0x0 JUMPDEST DUP3 MLOAD DUP2 PUSH1 0xFF AND LT ISZERO PUSH2 0x616 JUMPI PUSH1 0x0 DUP1 CALLER PUSH20 0xFFFFFFFFFFFFFFFFFFFFFFFFFFFFFFFFFFFFFFFF AND PUSH20 0xFFFFFFFFFFFFFFFFFFFFFFFFFFFFFFFFFFFFFFFF AND DUP2 MSTORE PUSH1 0x20 ADD SWAP1 DUP2 MSTORE PUSH1 0x20 ADD PUSH1 0x0 KECCAK256 PUSH1 0x9 ADD DUP4 DUP3 PUSH1 0xFF AND DUP2 MLOAD DUP2 LT PUSH2 0x5C2 JUMPI PUSH2 0x5C1 PUSH2 0xEA7 JUMP JUMPDEST JUMPDEST PUSH1 0x20 MUL PUSH1 0x20 ADD ADD MLOAD SWAP1 DUP1 PUSH1 0x1 DUP2 SLOAD ADD DUP1 DUP3 SSTORE DUP1 SWAP2 POP POP PUSH1 0x1 SWAP1 SUB SWAP1 PUSH1 0x0 MSTORE PUSH1 0x20 PUSH1 0x0 KECCAK256 ADD PUSH1 0x0 SWAP1 SWAP2 SWAP1 SWAP2 SWAP1 SWAP2 POP SWAP1 DUP1 MLOAD SWAP1 PUSH1 0x20 ADD SWAP1 PUSH2 0x602 SWAP3 SWAP2 SWAP1 PUSH2 0x7E6 JUMP JUMPDEST POP DUP1 DUP1 PUSH2 0x60E SWAP1 PUSH2 0xE1F JUMP JUMPDEST SWAP2 POP POP PUSH2 0x55F JUMP JUMPDEST POP JUMPDEST PUSH1 0x2 DUP2 PUSH1 0xFF AND EQ ISZERO PUSH2 0x6E0 JUMPI PUSH1 0x0 JUMPDEST DUP3 MLOAD DUP2 PUSH1 0xFF AND LT ISZERO PUSH2 0x6DE JUMPI PUSH1 0x0 DUP1 CALLER PUSH20 0xFFFFFFFFFFFFFFFFFFFFFFFFFFFFFFFFFFFFFFFF AND PUSH20 0xFFFFFFFFFFFFFFFFFFFFFFFFFFFFFFFFFFFFFFFF AND DUP2 MSTORE PUSH1 0x20 ADD SWAP1 DUP2 MSTORE PUSH1 0x20 ADD PUSH1 0x0 KECCAK256 PUSH1 0xA ADD DUP4 DUP3 PUSH1 0xFF AND DUP2 MLOAD DUP2 LT PUSH2 0x68A JUMPI PUSH2 0x689 PUSH2 0xEA7 JUMP JUMPDEST JUMPDEST PUSH1 0x20 MUL PUSH1 0x20 ADD ADD MLOAD SWAP1 DUP1 PUSH1 0x1 DUP2 SLOAD ADD DUP1 DUP3 SSTORE DUP1 SWAP2 POP POP PUSH1 0x1 SWAP1 SUB SWAP1 PUSH1 0x0 MSTORE PUSH1 0x20 PUSH1 0x0 KECCAK256 ADD PUSH1 0x0 SWAP1 SWAP2 SWAP1 SWAP2 SWAP1 SWAP2 POP SWAP1 DUP1 MLOAD SWAP1 PUSH1 0x20 ADD SWAP1 PUSH2 0x6CA SWAP3 SWAP2 SWAP1 PUSH2 0x7E6 JUMP JUMPDEST POP DUP1 DUP1 PUSH2 0x6D6 SWAP1 PUSH2 0xE1F JUMP JUMPDEST SWAP2 POP POP PUSH2 0x627 JUMP JUMPDEST POP JUMPDEST POP POP JUMP JUMPDEST PUSH1 0x0 DUP1 CALLER PUSH20 0xFFFFFFFFFFFFFFFFFFFFFFFFFFFFFFFFFFFFFFFF AND PUSH20 0xFFFFFFFFFFFFFFFFFFFFFFFFFFFFFFFFFFFFFFFF AND DUP2 MSTORE PUSH1 0x20 ADD SWAP1 DUP2 MSTORE PUSH1 0x20 ADD PUSH1 0x0 KECCAK256 PUSH1 0x0 DUP1 DUP3 ADD PUSH1 0x0 PUSH2 0x100 EXP DUP2 SLOAD SWAP1 PUSH20 0xFFFFFFFFFFFFFFFFFFFFFFFFFFFFFFFFFFFFFFFF MUL NOT AND SWAP1 SSTORE PUSH1 0x1 DUP3 ADD PUSH1 0x0 PUSH2 0x75A SWAP2 SWAP1 PUSH2 0x86C JUMP JUMPDEST PUSH1 0x2 DUP3 ADD PUSH1 0x0 PUSH2 0x76A SWAP2 SWAP1 PUSH2 0x86C JUMP JUMPDEST PUSH1 0x3 DUP3 ADD PUSH1 0x0 PUSH2 0x77A SWAP2 SWAP1 PUSH2 0x86C JUMP JUMPDEST PUSH1 0x4 DUP3 ADD PUSH1 0x0 PUSH2 0x78A SWAP2 SWAP1 PUSH2 0x86C JUMP JUMPDEST PUSH1 0x5 DUP3 ADD PUSH1 0x0 PUSH2 0x79A SWAP2 SWAP1 PUSH2 0x86C JUMP JUMPDEST PUSH1 0x6 DUP3 ADD PUSH1 0x0 PUSH2 0x7AA SWAP2 SWAP1 PUSH2 0x86C JUMP JUMPDEST PUSH1 0x7 DUP3 ADD PUSH1 0x0 SWAP1 SSTORE PUSH1 0x8 DUP3 ADD PUSH1 0x0 PUSH2 0x7C2 SWAP2 SWAP1 PUSH2 0x8AC JUMP JUMPDEST PUSH1 0x9 DUP3 ADD PUSH1 0x0 PUSH2 0x7D2 SWAP2 SWAP1 PUSH2 0x8AC JUMP JUMPDEST PUSH1 0xA DUP3 ADD PUSH1 0x0 PUSH2 0x7E2 SWAP2 SWAP1 PUSH2 0x8AC JUMP JUMPDEST POP POP JUMP JUMPDEST DUP3 DUP1 SLOAD PUSH2 0x7F2 SWAP1 PUSH2 0xDBC JUMP JUMPDEST SWAP1 PUSH1 0x0 MSTORE PUSH1 0x20 PUSH1 0x0 KECCAK256 SWAP1 PUSH1 0x1F ADD PUSH1 0x20 SWAP1 DIV DUP2 ADD SWAP3 DUP3 PUSH2 0x814 JUMPI PUSH1 0x0 DUP6 SSTORE PUSH2 0x85B JUMP JUMPDEST DUP3 PUSH1 0x1F LT PUSH2 0x82D JUMPI DUP1 MLOAD PUSH1 0xFF NOT AND DUP4 DUP1 ADD OR DUP6 SSTORE PUSH2 0x85B JUMP JUMPDEST DUP3 DUP1 ADD PUSH1 0x1 ADD DUP6 SSTORE DUP3 ISZERO PUSH2 0x85B JUMPI SWAP2 DUP3 ADD JUMPDEST DUP3 DUP2 GT ISZERO PUSH2 0x85A JUMPI DUP3 MLOAD DUP3 SSTORE SWAP2 PUSH1 0x20 ADD SWAP2 SWAP1 PUSH1 0x1 ADD SWAP1 PUSH2 0x83F JUMP JUMPDEST JUMPDEST POP SWAP1 POP PUSH2 0x868 SWAP2 SWAP1 PUSH2 0x8CD JUMP JUMPDEST POP SWAP1 JUMP JUMPDEST POP DUP1 SLOAD PUSH2 0x878 SWAP1 PUSH2 0xDBC JUMP JUMPDEST PUSH1 0x0 DUP3 SSTORE DUP1 PUSH1 0x1F LT PUSH2 0x88A JUMPI POP PUSH2 0x8A9 JUMP JUMPDEST PUSH1 0x1F ADD PUSH1 0x20 SWAP1 DIV SWAP1 PUSH1 0x0 MSTORE PUSH1 0x20 PUSH1 0x0 KECCAK256 SWAP1 DUP2 ADD SWAP1 PUSH2 0x8A8 SWAP2 SWAP1 PUSH2 0x8CD JUMP JUMPDEST JUMPDEST POP JUMP JUMPDEST POP DUP1 SLOAD PUSH1 0x0 DUP3 SSTORE SWAP1 PUSH1 0x0 MSTORE PUSH1 0x20 PUSH1 0x0 KECCAK256 SWAP1 DUP2 ADD SWAP1 PUSH2 0x8CA SWAP2 SWAP1 PUSH2 0x8EA JUMP JUMPDEST POP JUMP JUMPDEST JUMPDEST DUP1 DUP3 GT ISZERO PUSH2 0x8E6 JUMPI PUSH1 0x0 DUP2 PUSH1 0x0 SWAP1 SSTORE POP PUSH1 0x1 ADD PUSH2 0x8CE JUMP JUMPDEST POP SWAP1 JUMP JUMPDEST JUMPDEST DUP1 DUP3 GT ISZERO PUSH2 0x90A JUMPI PUSH1 0x0 DUP2 DUP2 PUSH2 0x901 SWAP2 SWAP1 PUSH2 0x86C JUMP JUMPDEST POP PUSH1 0x1 ADD PUSH2 0x8EB JUMP JUMPDEST POP SWAP1 JUMP JUMPDEST PUSH1 0x0 PUSH2 0x921 PUSH2 0x91C DUP5 PUSH2 0xCB8 JUMP JUMPDEST PUSH2 0xC93 JUMP JUMPDEST SWAP1 POP DUP1 DUP4 DUP3 MSTORE PUSH1 0x20 DUP3 ADD SWAP1 POP DUP3 DUP6 PUSH1 0x20 DUP7 MUL DUP3 ADD GT ISZERO PUSH2 0x944 JUMPI PUSH2 0x943 PUSH2 0xF0A JUMP JUMPDEST JUMPDEST PUSH1 0x0 JUMPDEST DUP6 DUP2 LT ISZERO PUSH2 0x992 JUMPI DUP2 CALLDATALOAD PUSH8 0xFFFFFFFFFFFFFFFF DUP2 GT ISZERO PUSH2 0x96A JUMPI PUSH2 0x969 PUSH2 0xF05 JUMP JUMPDEST JUMPDEST DUP1 DUP7 ADD PUSH2 0x977 DUP10 DUP3 PUSH2 0xA21 JUMP JUMPDEST DUP6 MSTORE PUSH1 0x20 DUP6 ADD SWAP5 POP PUSH1 0x20 DUP5 ADD SWAP4 POP POP POP PUSH1 0x1 DUP2 ADD SWAP1 POP PUSH2 0x947 JUMP JUMPDEST POP POP POP SWAP4 SWAP3 POP POP POP JUMP JUMPDEST PUSH1 0x0 PUSH2 0x9AF PUSH2 0x9AA DUP5 PUSH2 0xCE4 JUMP JUMPDEST PUSH2 0xC93 JUMP JUMPDEST SWAP1 POP DUP3 DUP2 MSTORE PUSH1 0x20 DUP2 ADD DUP5 DUP5 DUP5 ADD GT ISZERO PUSH2 0x9CB JUMPI PUSH2 0x9CA PUSH2 0xF0F JUMP JUMPDEST JUMPDEST PUSH2 0x9D6 DUP5 DUP3 DUP6 PUSH2 0xD7A JUMP JUMPDEST POP SWAP4 SWAP3 POP POP POP JUMP JUMPDEST PUSH1 0x0 DUP2 CALLDATALOAD SWAP1 POP PUSH2 0x9ED DUP2 PUSH2 0xF2F JUMP JUMPDEST SWAP3 SWAP2 POP POP JUMP JUMPDEST PUSH1 0x0 DUP3 PUSH1 0x1F DUP4 ADD SLT PUSH2 0xA08 JUMPI PUSH2 0xA07 PUSH2 0xF05 JUMP JUMPDEST JUMPDEST DUP2 CALLDATALOAD PUSH2 0xA18 DUP5 DUP3 PUSH1 0x20 DUP7 ADD PUSH2 0x90E JUMP JUMPDEST SWAP2 POP POP SWAP3 SWAP2 POP POP JUMP JUMPDEST PUSH1 0x0 DUP3 PUSH1 0x1F DUP4 ADD SLT PUSH2 0xA36 JUMPI PUSH2 0xA35 PUSH2 0xF05 JUMP JUMPDEST JUMPDEST DUP2 CALLDATALOAD PUSH2 0xA46 DUP5 DUP3 PUSH1 0x20 DUP7 ADD PUSH2 0x99C JUMP JUMPDEST SWAP2 POP POP SWAP3 SWAP2 POP POP JUMP JUMPDEST PUSH1 0x0 DUP2 CALLDATALOAD SWAP1 POP PUSH2 0xA5E DUP2 PUSH2 0xF46 JUMP JUMPDEST SWAP3 SWAP2 POP POP JUMP JUMPDEST PUSH1 0x0 PUSH1 0x20 DUP3 DUP5 SUB SLT ISZERO PUSH2 0xA7A JUMPI PUSH2 0xA79 PUSH2 0xF19 JUMP JUMPDEST JUMPDEST PUSH1 0x0 PUSH2 0xA88 DUP5 DUP3 DUP6 ADD PUSH2 0x9DE JUMP JUMPDEST SWAP2 POP POP SWAP3 SWAP2 POP POP JUMP JUMPDEST PUSH1 0x0 DUP1 PUSH1 0x0 PUSH1 0x60 DUP5 DUP7 SUB SLT ISZERO PUSH2 0xAAA JUMPI PUSH2 0xAA9 PUSH2 0xF19 JUMP JUMPDEST JUMPDEST PUSH1 0x0 DUP5 ADD CALLDATALOAD PUSH8 0xFFFFFFFFFFFFFFFF DUP2 GT ISZERO PUSH2 0xAC8 JUMPI PUSH2 0xAC7 PUSH2 0xF14 JUMP JUMPDEST JUMPDEST PUSH2 0xAD4 DUP7 DUP3 DUP8 ADD PUSH2 0x9F3 JUMP JUMPDEST SWAP4 POP POP PUSH1 0x20 DUP5 ADD CALLDATALOAD PUSH8 0xFFFFFFFFFFFFFFFF DUP2 GT ISZERO PUSH2 0xAF5 JUMPI PUSH2 0xAF4 PUSH2 0xF14 JUMP JUMPDEST JUMPDEST PUSH2 0xB01 DUP7 DUP3 DUP8 ADD PUSH2 0x9F3 JUMP JUMPDEST SWAP3 POP POP PUSH1 0x40 DUP5 ADD CALLDATALOAD PUSH8 0xFFFFFFFFFFFFFFFF DUP2 GT ISZERO PUSH2 0xB22 JUMPI PUSH2 0xB21 PUSH2 0xF14 JUMP JUMPDEST JUMPDEST PUSH2 0xB2E DUP7 DUP3 DUP8 ADD PUSH2 0x9F3 JUMP JUMPDEST SWAP2 POP POP SWAP3 POP SWAP3 POP SWAP3 JUMP JUMPDEST PUSH1 0x0 DUP1 PUSH1 0x40 DUP4 DUP6 SUB SLT ISZERO PUSH2 0xB4F JUMPI PUSH2 0xB4E PUSH2 0xF19 JUMP JUMPDEST JUMPDEST PUSH1 0x0 DUP4 ADD CALLDATALOAD PUSH8 0xFFFFFFFFFFFFFFFF DUP2 GT ISZERO PUSH2 0xB6D JUMPI PUSH2 0xB6C PUSH2 0xF14 JUMP JUMPDEST JUMPDEST PUSH2 0xB79 DUP6 DUP3 DUP7 ADD PUSH2 0x9F3 JUMP JUMPDEST SWAP3 POP POP PUSH1 0x20 PUSH2 0xB8A DUP6 DUP3 DUP7 ADD PUSH2 0xA4F JUMP JUMPDEST SWAP2 POP POP SWAP3 POP SWAP3 SWAP1 POP JUMP JUMPDEST PUSH2 0xB9D DUP2 PUSH2 0xD31 JUMP JUMPDEST DUP3 MSTORE POP POP JUMP JUMPDEST PUSH1 0x0 PUSH2 0xBAE DUP3 PUSH2 0xD15 JUMP JUMPDEST PUSH2 0xBB8 DUP2 DUP6 PUSH2 0xD20 JUMP JUMPDEST SWAP4 POP PUSH2 0xBC8 DUP2 DUP6 PUSH1 0x20 DUP7 ADD PUSH2 0xD89 JUMP JUMPDEST PUSH2 0xBD1 DUP2 PUSH2 0xF1E JUMP JUMPDEST DUP5 ADD SWAP2 POP POP SWAP3 SWAP2 POP POP JUMP JUMPDEST PUSH2 0xBE5 DUP2 PUSH2 0xD63 JUMP JUMPDEST DUP3 MSTORE POP POP JUMP JUMPDEST PUSH1 0x0 PUSH2 0x100 DUP3 ADD SWAP1 POP PUSH2 0xC01 PUSH1 0x0 DUP4 ADD DUP12 PUSH2 0xB94 JUMP JUMPDEST DUP2 DUP2 SUB PUSH1 0x20 DUP4 ADD MSTORE PUSH2 0xC13 DUP2 DUP11 PUSH2 0xBA3 JUMP JUMPDEST SWAP1 POP DUP2 DUP2 SUB PUSH1 0x40 DUP4 ADD MSTORE PUSH2 0xC27 DUP2 DUP10 PUSH2 0xBA3 JUMP JUMPDEST SWAP1 POP DUP2 DUP2 SUB PUSH1 0x60 DUP4 ADD MSTORE PUSH2 0xC3B DUP2 DUP9 PUSH2 0xBA3 JUMP JUMPDEST SWAP1 POP DUP2 DUP2 SUB PUSH1 0x80 DUP4 ADD MSTORE PUSH2 0xC4F DUP2 DUP8 PUSH2 0xBA3 JUMP JUMPDEST SWAP1 POP DUP2 DUP2 SUB PUSH1 0xA0 DUP4 ADD MSTORE PUSH2 0xC63 DUP2 DUP7 PUSH2 0xBA3 JUMP JUMPDEST SWAP1 POP DUP2 DUP2 SUB PUSH1 0xC0 DUP4 ADD MSTORE PUSH2 0xC77 DUP2 DUP6 PUSH2 0xBA3 JUMP JUMPDEST SWAP1 POP PUSH2 0xC86 PUSH1 0xE0 DUP4 ADD DUP5 PUSH2 0xBDC JUMP JUMPDEST SWAP10 SWAP9 POP POP POP POP POP POP POP POP POP JUMP JUMPDEST PUSH1 0x0 PUSH2 0xC9D PUSH2 0xCAE JUMP JUMPDEST SWAP1 POP PUSH2 0xCA9 DUP3 DUP3 PUSH2 0xDEE JUMP JUMPDEST SWAP2 SWAP1 POP JUMP JUMPDEST PUSH1 0x0 PUSH1 0x40 MLOAD SWAP1 POP SWAP1 JUMP JUMPDEST PUSH1 0x0 PUSH8 0xFFFFFFFFFFFFFFFF DUP3 GT ISZERO PUSH2 0xCD3 JUMPI PUSH2 0xCD2 PUSH2 0xED6 JUMP JUMPDEST JUMPDEST PUSH1 0x20 DUP3 MUL SWAP1 POP PUSH1 0x20 DUP2 ADD SWAP1 POP SWAP2 SWAP1 POP JUMP JUMPDEST PUSH1 0x0 PUSH8 0xFFFFFFFFFFFFFFFF DUP3 GT ISZERO PUSH2 0xCFF JUMPI PUSH2 0xCFE PUSH2 0xED6 JUMP JUMPDEST JUMPDEST PUSH2 0xD08 DUP3 PUSH2 0xF1E JUMP JUMPDEST SWAP1 POP PUSH1 0x20 DUP2 ADD SWAP1 POP SWAP2 SWAP1 POP JUMP JUMPDEST PUSH1 0x0 DUP2 MLOAD SWAP1 POP SWAP2 SWAP1 POP JUMP JUMPDEST PUSH1 0x0 DUP3 DUP3 MSTORE PUSH1 0x20 DUP3 ADD SWAP1 POP SWAP3 SWAP2 POP POP JUMP JUMPDEST PUSH1 0x0 PUSH2 0xD3C DUP3 PUSH2 0xD43 JUMP JUMPDEST SWAP1 POP SWAP2 SWAP1 POP JUMP JUMPDEST PUSH1 0x0 PUSH20 0xFFFFFFFFFFFFFFFFFFFFFFFFFFFFFFFFFFFFFFFF DUP3 AND SWAP1 POP SWAP2 SWAP1 POP JUMP JUMPDEST PUSH1 0x0 DUP2 SWAP1 POP SWAP2 SWAP1 POP JUMP JUMPDEST PUSH1 0x0 PUSH1 0xFF DUP3 AND SWAP1 POP SWAP2 SWAP1 POP JUMP JUMPDEST DUP3 DUP2 DUP4 CALLDATACOPY PUSH1 0x0 DUP4 DUP4 ADD MSTORE POP POP POP JUMP JUMPDEST PUSH1 0x0 JUMPDEST DUP4 DUP2 LT ISZERO PUSH2 0xDA7 JUMPI DUP1 DUP3 ADD MLOAD DUP2 DUP5 ADD MSTORE PUSH1 0x20 DUP2 ADD SWAP1 POP PUSH2 0xD8C JUMP JUMPDEST DUP4 DUP2 GT ISZERO PUSH2 0xDB6 JUMPI PUSH1 0x0 DUP5 DUP5 ADD MSTORE JUMPDEST POP POP POP POP JUMP JUMPDEST PUSH1 0x0 PUSH1 0x2 DUP3 DIV SWAP1 POP PUSH1 0x1 DUP3 AND DUP1 PUSH2 0xDD4 JUMPI PUSH1 0x7F DUP3 AND SWAP2 POP JUMPDEST PUSH1 0x20 DUP3 LT DUP2 EQ ISZERO PUSH2 0xDE8 JUMPI PUSH2 0xDE7 PUSH2 0xE78 JUMP JUMPDEST JUMPDEST POP SWAP2 SWAP1 POP JUMP JUMPDEST PUSH2 0xDF7 DUP3 PUSH2 0xF1E JUMP JUMPDEST DUP2 ADD DUP2 DUP2 LT PUSH8 0xFFFFFFFFFFFFFFFF DUP3 GT OR ISZERO PUSH2 0xE16 JUMPI PUSH2 0xE15 PUSH2 0xED6 JUMP JUMPDEST JUMPDEST DUP1 PUSH1 0x40 MSTORE POP POP POP JUMP JUMPDEST PUSH1 0x0 PUSH2 0xE2A DUP3 PUSH2 0xD6D JUMP JUMPDEST SWAP2 POP PUSH1 0xFF DUP3 EQ ISZERO PUSH2 0xE3E JUMPI PUSH2 0xE3D PUSH2 0xE49 JUMP JUMPDEST JUMPDEST PUSH1 0x1 DUP3 ADD SWAP1 POP SWAP2 SWAP1 POP JUMP JUMPDEST PUSH32 0x4E487B7100000000000000000000000000000000000000000000000000000000 PUSH1 0x0 MSTORE PUSH1 0x11 PUSH1 0x4 MSTORE PUSH1 0x24 PUSH1 0x0 REVERT JUMPDEST PUSH32 0x4E487B7100000000000000000000000000000000000000000000000000000000 PUSH1 0x0 MSTORE PUSH1 0x22 PUSH1 0x4 MSTORE PUSH1 0x24 PUSH1 0x0 REVERT JUMPDEST PUSH32 0x4E487B7100000000000000000000000000000000000000000000000000000000 PUSH1 0x0 MSTORE PUSH1 0x32 PUSH1 0x4 MSTORE PUSH1 0x24 PUSH1 0x0 REVERT JUMPDEST PUSH32 0x4E487B7100000000000000000000000000000000000000000000000000000000 PUSH1 0x0 MSTORE PUSH1 0x41 PUSH1 0x4 MSTORE PUSH1 0x24 PUSH1 0x0 REVERT JUMPDEST PUSH1 0x0 DUP1 REVERT JUMPDEST PUSH1 0x0 DUP1 REVERT JUMPDEST PUSH1 0x0 DUP1 REVERT JUMPDEST PUSH1 0x0 DUP1 REVERT JUMPDEST PUSH1 0x0 DUP1 REVERT JUMPDEST PUSH1 0x0 PUSH1 0x1F NOT PUSH1 0x1F DUP4 ADD AND SWAP1 POP SWAP2 SWAP1 POP JUMP JUMPDEST PUSH2 0xF38 DUP2 PUSH2 0xD31 JUMP JUMPDEST DUP2 EQ PUSH2 0xF43 JUMPI PUSH1 0x0 DUP1 REVERT JUMPDEST POP JUMP JUMPDEST PUSH2 0xF4F DUP2 PUSH2 0xD6D JUMP JUMPDEST DUP2 EQ PUSH2 0xF5A JUMPI PUSH1 0x0 DUP1 REVERT JUMPDEST POP JUMP INVALID LOG2 PUSH5 0x6970667358 0x22 SLT KECCAK256 SWAP15 0xB7 ADDMOD 0xA6 0xB8 DUP10 0xBD 0x26 0xD7 0xC5 PUSH31 0xA1272E6D8DEBFF0FF4FFF99BDB6D259DC25E47077864736F6C634300080700 CALLER "
				},
				"gasEstimates": {
					"creation": {
						"codeDepositCost": "797400",
						"executionCost": "831",
						"totalCost": "798231"
					},
					"external": {
						"addBio(string[],string[],string[])": "infinite",
						"addSkill(string[],uint8)": "infinite",
						"delProfile()": "infinite",
						"profile(address)": "infinite"
					}
				},
				"methodIdentifiers": {
					"addBio(string[],string[],string[])": "0c8c0186",
					"addSkill(string[],uint8)": "bc5c05a8",
					"delProfile()": "fabce08f",
					"profile(address)": "9dd9d0fd"
				}
			},
			"storageLayout": {
				"storage": [
					{
						"astId": 32,
						"contract": "contracts/Profile.sol:Profile",
						"label": "profile",
						"offset": 0,
						"slot": "0",
						"type": "t_mapping(t_address,t_struct(Bio)27_storage)"
					}
				],
				"types": {
					"t_address": {
						"encoding": "inplace",
						"label": "address",
						"numberOfBytes": "20"
					},
					"t_array(t_string_storage)dyn_storage": {
						"base": "t_string_storage",
						"encoding": "dynamic_array",
						"label": "string[]",
						"numberOfBytes": "32"
					},
					"t_mapping(t_address,t_struct(Bio)27_storage)": {
						"encoding": "mapping",
						"key": "t_address",
						"label": "mapping(address => struct Profile.Bio)",
						"numberOfBytes": "32",
						"value": "t_struct(Bio)27_storage"
					},
					"t_string_storage": {
						"encoding": "bytes",
						"label": "string",
						"numberOfBytes": "32"
					},
					"t_struct(Bio)27_storage": {
						"encoding": "inplace",
						"label": "struct Profile.Bio",
						"members": [
							{
								"astId": 3,
								"contract": "contracts/Profile.sol:Profile",
								"label": "userAddress",
								"offset": 0,
								"slot": "0",
								"type": "t_address"
							},
							{
								"astId": 5,
								"contract": "contracts/Profile.sol:Profile",
								"label": "firstName",
								"offset": 0,
								"slot": "1",
								"type": "t_string_storage"
							},
							{
								"astId": 7,
								"contract": "contracts/Profile.sol:Profile",
								"label": "middleName",
								"offset": 0,
								"slot": "2",
								"type": "t_string_storage"
							},
							{
								"astId": 9,
								"contract": "contracts/Profile.sol:Profile",
								"label": "lastName",
								"offset": 0,
								"slot": "3",
								"type": "t_string_storage"
							},
							{
								"astId": 11,
								"contract": "contracts/Profile.sol:Profile",
								"label": "email",
								"offset": 0,
								"slot": "4",
								"type": "t_string_storage"
							},
							{
								"astId": 13,
								"contract": "contracts/Profile.sol:Profile",
								"label": "phone",
								"offset": 0,
								"slot": "5",
								"type": "t_string_storage"
							},
							{
								"astId": 15,
								"contract": "contracts/Profile.sol:Profile",
								"label": "profileImage",
								"offset": 0,
								"slot": "6",
								"type": "t_string_storage"
							},
							{
								"astId": 17,
								"contract": "contracts/Profile.sol:Profile",
								"label": "createDate",
								"offset": 0,
								"slot": "7",
								"type": "t_uint256"
							},
							{
								"astId": 20,
								"contract": "contracts/Profile.sol:Profile",
								"label": "frontend",
								"offset": 0,
								"slot": "8",
								"type": "t_array(t_string_storage)dyn_storage"
							},
							{
								"astId": 23,
								"contract": "contracts/Profile.sol:Profile",
								"label": "backend",
								"offset": 0,
								"slot": "9",
								"type": "t_array(t_string_storage)dyn_storage"
							},
							{
								"astId": 26,
								"contract": "contracts/Profile.sol:Profile",
								"label": "framework",
								"offset": 0,
								"slot": "10",
								"type": "t_array(t_string_storage)dyn_storage"
							}
						],
						"numberOfBytes": "352"
					},
					"t_uint256": {
						"encoding": "inplace",
						"label": "uint256",
						"numberOfBytes": "32"
					}
				}
			},
			"userdoc": {
				"kind": "user",
				"methods": {},
				"version": 1
			}
		}
	}
}