{
	"contracts/Profile.sol": {
		"Profile": {
			"abi": [
				{
					"inputs": [
						{
							"internalType": "string",
							"name": "firstName",
							"type": "string"
						},
						{
							"internalType": "string",
							"name": "middleName",
							"type": "string"
						},
						{
							"internalType": "string",
							"name": "lastName",
							"type": "string"
						},
						{
							"internalType": "string",
							"name": "email",
							"type": "string"
						},
						{
							"internalType": "string",
							"name": "phone",
							"type": "string"
						},
						{
							"internalType": "string",
							"name": "profileImage",
							"type": "string"
						}
					],
					"name": "addBio",
					"outputs": [],
					"stateMutability": "nonpayable",
					"type": "function"
				},
				{
					"inputs": [],
					"name": "getBio",
					"outputs": [
						{
							"components": [
								{
									"internalType": "string",
									"name": "firstName",
									"type": "string"
								},
								{
									"internalType": "string",
									"name": "middleName",
									"type": "string"
								},
								{
									"internalType": "string",
									"name": "lastName",
									"type": "string"
								},
								{
									"internalType": "string",
									"name": "email",
									"type": "string"
								},
								{
									"internalType": "string",
									"name": "phone",
									"type": "string"
								},
								{
									"internalType": "string",
									"name": "profileImage",
									"type": "string"
								}
							],
							"internalType": "struct Profile.Bio",
							"name": "",
							"type": "tuple"
						}
					],
					"stateMutability": "view",
					"type": "function"
				},
				{
					"inputs": [
						{
							"internalType": "address",
							"name": "",
							"type": "address"
						}
					],
					"name": "profile",
					"outputs": [
						{
							"internalType": "string",
							"name": "firstName",
							"type": "string"
						},
						{
							"internalType": "string",
							"name": "middleName",
							"type": "string"
						},
						{
							"internalType": "string",
							"name": "lastName",
							"type": "string"
						},
						{
							"internalType": "string",
							"name": "email",
							"type": "string"
						},
						{
							"internalType": "string",
							"name": "phone",
							"type": "string"
						},
						{
							"internalType": "string",
							"name": "profileImage",
							"type": "string"
						}
					],
					"stateMutability": "view",
					"type": "function"
				},
				{
					"inputs": [
						{
							"internalType": "address",
							"name": "",
							"type": "address"
						}
					],
					"name": "skill",
					"outputs": [
						{
							"internalType": "string",
							"name": "firstName",
							"type": "string"
						},
						{
							"internalType": "string",
							"name": "middleName",
							"type": "string"
						}
					],
					"stateMutability": "view",
					"type": "function"
				}
			],
			"devdoc": {
				"kind": "dev",
				"methods": {},
				"version": 1
			},
			"evm": {
				"assembly": "    /* \"contracts/Profile.sol\":64:1055  contract Profile {\r... */\n  mstore(0x40, 0x80)\n  callvalue\n  dup1\n  iszero\n  tag_1\n  jumpi\n  0x00\n  dup1\n  revert\ntag_1:\n  pop\n  dataSize(sub_0)\n  dup1\n  dataOffset(sub_0)\n  0x00\n  codecopy\n  0x00\n  return\nstop\n\nsub_0: assembly {\n        /* \"contracts/Profile.sol\":64:1055  contract Profile {\r... */\n      mstore(0x40, 0x80)\n      callvalue\n      dup1\n      iszero\n      tag_1\n      jumpi\n      0x00\n      dup1\n      revert\n    tag_1:\n      pop\n      jumpi(tag_2, lt(calldatasize, 0x04))\n      shr(0xe0, calldataload(0x00))\n      dup1\n      0x37064614\n      eq\n      tag_3\n      jumpi\n      dup1\n      0x721041af\n      eq\n      tag_4\n      jumpi\n      dup1\n      0x9dd9d0fd\n      eq\n      tag_5\n      jumpi\n      dup1\n      0xfa165e8f\n      eq\n      tag_6\n      jumpi\n    tag_2:\n      0x00\n      dup1\n      revert\n        /* \"contracts/Profile.sol\":411:451  mapping (address => Skill) public  skill */\n    tag_3:\n      tag_7\n      0x04\n      dup1\n      calldatasize\n      sub\n      dup2\n      add\n      swap1\n      tag_8\n      swap2\n      swap1\n      tag_9\n      jump\t// in\n    tag_8:\n      tag_10\n      jump\t// in\n    tag_7:\n      mload(0x40)\n      tag_11\n      swap3\n      swap2\n      swap1\n      tag_12\n      jump\t// in\n    tag_11:\n      mload(0x40)\n      dup1\n      swap2\n      sub\n      swap1\n      return\n        /* \"contracts/Profile.sol\":464:942  function addBio(string memory firstName, string memory middleName, string memory lastName, string memory email, string memory phone, string memory profileImage) public {\r... */\n    tag_4:\n      tag_13\n      0x04\n      dup1\n      calldatasize\n      sub\n      dup2\n      add\n      swap1\n      tag_14\n      swap2\n      swap1\n      tag_15\n      jump\t// in\n    tag_14:\n      tag_16\n      jump\t// in\n    tag_13:\n      stop\n        /* \"contracts/Profile.sol\":274:314  mapping (address => Bio) public  profile */\n    tag_5:\n      tag_17\n      0x04\n      dup1\n      calldatasize\n      sub\n      dup2\n      add\n      swap1\n      tag_18\n      swap2\n      swap1\n      tag_9\n      jump\t// in\n    tag_18:\n      tag_19\n      jump\t// in\n    tag_17:\n      mload(0x40)\n      tag_20\n      swap7\n      swap6\n      swap5\n      swap4\n      swap3\n      swap2\n      swap1\n      tag_21\n      jump\t// in\n    tag_20:\n      mload(0x40)\n      dup1\n      swap2\n      sub\n      swap1\n      return\n        /* \"contracts/Profile.sol\":950:1046  function getBio() public view returns(Bio memory ) {\r... */\n    tag_6:\n      tag_22\n      tag_23\n      jump\t// in\n    tag_22:\n      mload(0x40)\n      tag_24\n      swap2\n      swap1\n      tag_25\n      jump\t// in\n    tag_24:\n      mload(0x40)\n      dup1\n      swap2\n      sub\n      swap1\n      return\n        /* \"contracts/Profile.sol\":411:451  mapping (address => Skill) public  skill */\n    tag_10:\n      mstore(0x20, 0x01)\n      dup1\n      0x00\n      mstore\n      keccak256(0x00, 0x40)\n      0x00\n      swap2\n      pop\n      swap1\n      pop\n      dup1\n      0x00\n      add\n      dup1\n      sload\n      tag_26\n      swap1\n      tag_27\n      jump\t// in\n    tag_26:\n      dup1\n      0x1f\n      add\n      0x20\n      dup1\n      swap2\n      div\n      mul\n      0x20\n      add\n      mload(0x40)\n      swap1\n      dup2\n      add\n      0x40\n      mstore\n      dup1\n      swap3\n      swap2\n      swap1\n      dup2\n      dup2\n      mstore\n      0x20\n      add\n      dup3\n      dup1\n      sload\n      tag_28\n      swap1\n      tag_27\n      jump\t// in\n    tag_28:\n      dup1\n      iszero\n      tag_29\n      jumpi\n      dup1\n      0x1f\n      lt\n      tag_30\n      jumpi\n      0x0100\n      dup1\n      dup4\n      sload\n      div\n      mul\n      dup4\n      mstore\n      swap2\n      0x20\n      add\n      swap2\n      jump(tag_29)\n    tag_30:\n      dup3\n      add\n      swap2\n      swap1\n      0x00\n      mstore\n      keccak256(0x00, 0x20)\n      swap1\n    tag_31:\n      dup2\n      sload\n      dup2\n      mstore\n      swap1\n      0x01\n      add\n      swap1\n      0x20\n      add\n      dup1\n      dup4\n      gt\n      tag_31\n      jumpi\n      dup3\n      swap1\n      sub\n      0x1f\n      and\n      dup3\n      add\n      swap2\n    tag_29:\n      pop\n      pop\n      pop\n      pop\n      pop\n      swap1\n      dup1\n      0x01\n      add\n      dup1\n      sload\n      tag_32\n      swap1\n      tag_27\n      jump\t// in\n    tag_32:\n      dup1\n      0x1f\n      add\n      0x20\n      dup1\n      swap2\n      div\n      mul\n      0x20\n      add\n      mload(0x40)\n      swap1\n      dup2\n      add\n      0x40\n      mstore\n      dup1\n      swap3\n      swap2\n      swap1\n      dup2\n      dup2\n      mstore\n      0x20\n      add\n      dup3\n      dup1\n      sload\n      tag_33\n      swap1\n      tag_27\n      jump\t// in\n    tag_33:\n      dup1\n      iszero\n      tag_34\n      jumpi\n      dup1\n      0x1f\n      lt\n      tag_35\n      jumpi\n      0x0100\n      dup1\n      dup4\n      sload\n      div\n      mul\n      dup4\n      mstore\n      swap2\n      0x20\n      add\n      swap2\n      jump(tag_34)\n    tag_35:\n      dup3\n      add\n      swap2\n      swap1\n      0x00\n      mstore\n      keccak256(0x00, 0x20)\n      swap1\n    tag_36:\n      dup2\n      sload\n      dup2\n      mstore\n      swap1\n      0x01\n      add\n      swap1\n      0x20\n      add\n      dup1\n      dup4\n      gt\n      tag_36\n      jumpi\n      dup3\n      swap1\n      sub\n      0x1f\n      and\n      dup3\n      add\n      swap2\n    tag_34:\n      pop\n      pop\n      pop\n      pop\n      pop\n      swap1\n      pop\n      dup3\n      jump\t// out\n        /* \"contracts/Profile.sol\":464:942  function addBio(string memory firstName, string memory middleName, string memory lastName, string memory email, string memory phone, string memory profileImage) public {\r... */\n    tag_16:\n        /* \"contracts/Profile.sol\":675:684  firstName */\n      dup6\n        /* \"contracts/Profile.sol\":643:650  profile */\n      0x00\n        /* \"contracts/Profile.sol\":643:662  profile[msg.sender] */\n      dup1\n        /* \"contracts/Profile.sol\":651:661  msg.sender */\n      caller\n        /* \"contracts/Profile.sol\":643:662  profile[msg.sender] */\n      0xffffffffffffffffffffffffffffffffffffffff\n      and\n      0xffffffffffffffffffffffffffffffffffffffff\n      and\n      dup2\n      mstore\n      0x20\n      add\n      swap1\n      dup2\n      mstore\n      0x20\n      add\n      0x00\n      keccak256\n        /* \"contracts/Profile.sol\":643:672  profile[msg.sender].firstName */\n      0x00\n      add\n        /* \"contracts/Profile.sol\":643:684  profile[msg.sender].firstName = firstName */\n      swap1\n      dup1\n      mload\n      swap1\n      0x20\n      add\n      swap1\n      tag_38\n      swap3\n      swap2\n      swap1\n      tag_39\n      jump\t// in\n    tag_38:\n      pop\n        /* \"contracts/Profile.sol\":728:738  middleName */\n      dup5\n        /* \"contracts/Profile.sol\":695:702  profile */\n      0x00\n        /* \"contracts/Profile.sol\":695:714  profile[msg.sender] */\n      dup1\n        /* \"contracts/Profile.sol\":703:713  msg.sender */\n      caller\n        /* \"contracts/Profile.sol\":695:714  profile[msg.sender] */\n      0xffffffffffffffffffffffffffffffffffffffff\n      and\n      0xffffffffffffffffffffffffffffffffffffffff\n      and\n      dup2\n      mstore\n      0x20\n      add\n      swap1\n      dup2\n      mstore\n      0x20\n      add\n      0x00\n      keccak256\n        /* \"contracts/Profile.sol\":695:725  profile[msg.sender].middleName */\n      0x01\n      add\n        /* \"contracts/Profile.sol\":695:738  profile[msg.sender].middleName = middleName */\n      swap1\n      dup1\n      mload\n      swap1\n      0x20\n      add\n      swap1\n      tag_40\n      swap3\n      swap2\n      swap1\n      tag_39\n      jump\t// in\n    tag_40:\n      pop\n        /* \"contracts/Profile.sol\":780:788  lastName */\n      dup4\n        /* \"contracts/Profile.sol\":749:756  profile */\n      0x00\n        /* \"contracts/Profile.sol\":749:768  profile[msg.sender] */\n      dup1\n        /* \"contracts/Profile.sol\":757:767  msg.sender */\n      caller\n        /* \"contracts/Profile.sol\":749:768  profile[msg.sender] */\n      0xffffffffffffffffffffffffffffffffffffffff\n      and\n      0xffffffffffffffffffffffffffffffffffffffff\n      and\n      dup2\n      mstore\n      0x20\n      add\n      swap1\n      dup2\n      mstore\n      0x20\n      add\n      0x00\n      keccak256\n        /* \"contracts/Profile.sol\":749:777  profile[msg.sender].lastName */\n      0x02\n      add\n        /* \"contracts/Profile.sol\":749:788  profile[msg.sender].lastName = lastName */\n      swap1\n      dup1\n      mload\n      swap1\n      0x20\n      add\n      swap1\n      tag_41\n      swap3\n      swap2\n      swap1\n      tag_39\n      jump\t// in\n    tag_41:\n      pop\n        /* \"contracts/Profile.sol\":827:832  email */\n      dup3\n        /* \"contracts/Profile.sol\":799:806  profile */\n      0x00\n        /* \"contracts/Profile.sol\":799:818  profile[msg.sender] */\n      dup1\n        /* \"contracts/Profile.sol\":807:817  msg.sender */\n      caller\n        /* \"contracts/Profile.sol\":799:818  profile[msg.sender] */\n      0xffffffffffffffffffffffffffffffffffffffff\n      and\n      0xffffffffffffffffffffffffffffffffffffffff\n      and\n      dup2\n      mstore\n      0x20\n      add\n      swap1\n      dup2\n      mstore\n      0x20\n      add\n      0x00\n      keccak256\n        /* \"contracts/Profile.sol\":799:824  profile[msg.sender].email */\n      0x03\n      add\n        /* \"contracts/Profile.sol\":799:832  profile[msg.sender].email = email */\n      swap1\n      dup1\n      mload\n      swap1\n      0x20\n      add\n      swap1\n      tag_42\n      swap3\n      swap2\n      swap1\n      tag_39\n      jump\t// in\n    tag_42:\n      pop\n        /* \"contracts/Profile.sol\":871:876  phone */\n      dup2\n        /* \"contracts/Profile.sol\":843:850  profile */\n      0x00\n        /* \"contracts/Profile.sol\":843:862  profile[msg.sender] */\n      dup1\n        /* \"contracts/Profile.sol\":851:861  msg.sender */\n      caller\n        /* \"contracts/Profile.sol\":843:862  profile[msg.sender] */\n      0xffffffffffffffffffffffffffffffffffffffff\n      and\n      0xffffffffffffffffffffffffffffffffffffffff\n      and\n      dup2\n      mstore\n      0x20\n      add\n      swap1\n      dup2\n      mstore\n      0x20\n      add\n      0x00\n      keccak256\n        /* \"contracts/Profile.sol\":843:868  profile[msg.sender].phone */\n      0x04\n      add\n        /* \"contracts/Profile.sol\":843:876  profile[msg.sender].phone = phone */\n      swap1\n      dup1\n      mload\n      swap1\n      0x20\n      add\n      swap1\n      tag_43\n      swap3\n      swap2\n      swap1\n      tag_39\n      jump\t// in\n    tag_43:\n      pop\n        /* \"contracts/Profile.sol\":922:934  profileImage */\n      dup1\n        /* \"contracts/Profile.sol\":887:894  profile */\n      0x00\n        /* \"contracts/Profile.sol\":887:906  profile[msg.sender] */\n      dup1\n        /* \"contracts/Profile.sol\":895:905  msg.sender */\n      caller\n        /* \"contracts/Profile.sol\":887:906  profile[msg.sender] */\n      0xffffffffffffffffffffffffffffffffffffffff\n      and\n      0xffffffffffffffffffffffffffffffffffffffff\n      and\n      dup2\n      mstore\n      0x20\n      add\n      swap1\n      dup2\n      mstore\n      0x20\n      add\n      0x00\n      keccak256\n        /* \"contracts/Profile.sol\":887:919  profile[msg.sender].profileImage */\n      0x05\n      add\n        /* \"contracts/Profile.sol\":887:934  profile[msg.sender].profileImage = profileImage */\n      swap1\n      dup1\n      mload\n      swap1\n      0x20\n      add\n      swap1\n      tag_44\n      swap3\n      swap2\n      swap1\n      tag_39\n      jump\t// in\n    tag_44:\n      pop\n        /* \"contracts/Profile.sol\":464:942  function addBio(string memory firstName, string memory middleName, string memory lastName, string memory email, string memory phone, string memory profileImage) public {\r... */\n      pop\n      pop\n      pop\n      pop\n      pop\n      pop\n      jump\t// out\n        /* \"contracts/Profile.sol\":274:314  mapping (address => Bio) public  profile */\n    tag_19:\n      mstore(0x20, 0x00)\n      dup1\n      0x00\n      mstore\n      keccak256(0x00, 0x40)\n      0x00\n      swap2\n      pop\n      swap1\n      pop\n      dup1\n      0x00\n      add\n      dup1\n      sload\n      tag_45\n      swap1\n      tag_27\n      jump\t// in\n    tag_45:\n      dup1\n      0x1f\n      add\n      0x20\n      dup1\n      swap2\n      div\n      mul\n      0x20\n      add\n      mload(0x40)\n      swap1\n      dup2\n      add\n      0x40\n      mstore\n      dup1\n      swap3\n      swap2\n      swap1\n      dup2\n      dup2\n      mstore\n      0x20\n      add\n      dup3\n      dup1\n      sload\n      tag_46\n      swap1\n      tag_27\n      jump\t// in\n    tag_46:\n      dup1\n      iszero\n      tag_47\n      jumpi\n      dup1\n      0x1f\n      lt\n      tag_48\n      jumpi\n      0x0100\n      dup1\n      dup4\n      sload\n      div\n      mul\n      dup4\n      mstore\n      swap2\n      0x20\n      add\n      swap2\n      jump(tag_47)\n    tag_48:\n      dup3\n      add\n      swap2\n      swap1\n      0x00\n      mstore\n      keccak256(0x00, 0x20)\n      swap1\n    tag_49:\n      dup2\n      sload\n      dup2\n      mstore\n      swap1\n      0x01\n      add\n      swap1\n      0x20\n      add\n      dup1\n      dup4\n      gt\n      tag_49\n      jumpi\n      dup3\n      swap1\n      sub\n      0x1f\n      and\n      dup3\n      add\n      swap2\n    tag_47:\n      pop\n      pop\n      pop\n      pop\n      pop\n      swap1\n      dup1\n      0x01\n      add\n      dup1\n      sload\n      tag_50\n      swap1\n      tag_27\n      jump\t// in\n    tag_50:\n      dup1\n      0x1f\n      add\n      0x20\n      dup1\n      swap2\n      div\n      mul\n      0x20\n      add\n      mload(0x40)\n      swap1\n      dup2\n      add\n      0x40\n      mstore\n      dup1\n      swap3\n      swap2\n      swap1\n      dup2\n      dup2\n      mstore\n      0x20\n      add\n      dup3\n      dup1\n      sload\n      tag_51\n      swap1\n      tag_27\n      jump\t// in\n    tag_51:\n      dup1\n      iszero\n      tag_52\n      jumpi\n      dup1\n      0x1f\n      lt\n      tag_53\n      jumpi\n      0x0100\n      dup1\n      dup4\n      sload\n      div\n      mul\n      dup4\n      mstore\n      swap2\n      0x20\n      add\n      swap2\n      jump(tag_52)\n    tag_53:\n      dup3\n      add\n      swap2\n      swap1\n      0x00\n      mstore\n      keccak256(0x00, 0x20)\n      swap1\n    tag_54:\n      dup2\n      sload\n      dup2\n      mstore\n      swap1\n      0x01\n      add\n      swap1\n      0x20\n      add\n      dup1\n      dup4\n      gt\n      tag_54\n      jumpi\n      dup3\n      swap1\n      sub\n      0x1f\n      and\n      dup3\n      add\n      swap2\n    tag_52:\n      pop\n      pop\n      pop\n      pop\n      pop\n      swap1\n      dup1\n      0x02\n      add\n      dup1\n      sload\n      tag_55\n      swap1\n      tag_27\n      jump\t// in\n    tag_55:\n      dup1\n      0x1f\n      add\n      0x20\n      dup1\n      swap2\n      div\n      mul\n      0x20\n      add\n      mload(0x40)\n      swap1\n      dup2\n      add\n      0x40\n      mstore\n      dup1\n      swap3\n      swap2\n      swap1\n      dup2\n      dup2\n      mstore\n      0x20\n      add\n      dup3\n      dup1\n      sload\n      tag_56\n      swap1\n      tag_27\n      jump\t// in\n    tag_56:\n      dup1\n      iszero\n      tag_57\n      jumpi\n      dup1\n      0x1f\n      lt\n      tag_58\n      jumpi\n      0x0100\n      dup1\n      dup4\n      sload\n      div\n      mul\n      dup4\n      mstore\n      swap2\n      0x20\n      add\n      swap2\n      jump(tag_57)\n    tag_58:\n      dup3\n      add\n      swap2\n      swap1\n      0x00\n      mstore\n      keccak256(0x00, 0x20)\n      swap1\n    tag_59:\n      dup2\n      sload\n      dup2\n      mstore\n      swap1\n      0x01\n      add\n      swap1\n      0x20\n      add\n      dup1\n      dup4\n      gt\n      tag_59\n      jumpi\n      dup3\n      swap1\n      sub\n      0x1f\n      and\n      dup3\n      add\n      swap2\n    tag_57:\n      pop\n      pop\n      pop\n      pop\n      pop\n      swap1\n      dup1\n      0x03\n      add\n      dup1\n      sload\n      tag_60\n      swap1\n      tag_27\n      jump\t// in\n    tag_60:\n      dup1\n      0x1f\n      add\n      0x20\n      dup1\n      swap2\n      div\n      mul\n      0x20\n      add\n      mload(0x40)\n      swap1\n      dup2\n      add\n      0x40\n      mstore\n      dup1\n      swap3\n      swap2\n      swap1\n      dup2\n      dup2\n      mstore\n      0x20\n      add\n      dup3\n      dup1\n      sload\n      tag_61\n      swap1\n      tag_27\n      jump\t// in\n    tag_61:\n      dup1\n      iszero\n      tag_62\n      jumpi\n      dup1\n      0x1f\n      lt\n      tag_63\n      jumpi\n      0x0100\n      dup1\n      dup4\n      sload\n      div\n      mul\n      dup4\n      mstore\n      swap2\n      0x20\n      add\n      swap2\n      jump(tag_62)\n    tag_63:\n      dup3\n      add\n      swap2\n      swap1\n      0x00\n      mstore\n      keccak256(0x00, 0x20)\n      swap1\n    tag_64:\n      dup2\n      sload\n      dup2\n      mstore\n      swap1\n      0x01\n      add\n      swap1\n      0x20\n      add\n      dup1\n      dup4\n      gt\n      tag_64\n      jumpi\n      dup3\n      swap1\n      sub\n      0x1f\n      and\n      dup3\n      add\n      swap2\n    tag_62:\n      pop\n      pop\n      pop\n      pop\n      pop\n      swap1\n      dup1\n      0x04\n      add\n      dup1\n      sload\n      tag_65\n      swap1\n      tag_27\n      jump\t// in\n    tag_65:\n      dup1\n      0x1f\n      add\n      0x20\n      dup1\n      swap2\n      div\n      mul\n      0x20\n      add\n      mload(0x40)\n      swap1\n      dup2\n      add\n      0x40\n      mstore\n      dup1\n      swap3\n      swap2\n      swap1\n      dup2\n      dup2\n      mstore\n      0x20\n      add\n      dup3\n      dup1\n      sload\n      tag_66\n      swap1\n      tag_27\n      jump\t// in\n    tag_66:\n      dup1\n      iszero\n      tag_67\n      jumpi\n      dup1\n      0x1f\n      lt\n      tag_68\n      jumpi\n      0x0100\n      dup1\n      dup4\n      sload\n      div\n      mul\n      dup4\n      mstore\n      swap2\n      0x20\n      add\n      swap2\n      jump(tag_67)\n    tag_68:\n      dup3\n      add\n      swap2\n      swap1\n      0x00\n      mstore\n      keccak256(0x00, 0x20)\n      swap1\n    tag_69:\n      dup2\n      sload\n      dup2\n      mstore\n      swap1\n      0x01\n      add\n      swap1\n      0x20\n      add\n      dup1\n      dup4\n      gt\n      tag_69\n      jumpi\n      dup3\n      swap1\n      sub\n      0x1f\n      and\n      dup3\n      add\n      swap2\n    tag_67:\n      pop\n      pop\n      pop\n      pop\n      pop\n      swap1\n      dup1\n      0x05\n      add\n      dup1\n      sload\n      tag_70\n      swap1\n      tag_27\n      jump\t// in\n    tag_70:\n      dup1\n      0x1f\n      add\n      0x20\n      dup1\n      swap2\n      div\n      mul\n      0x20\n      add\n      mload(0x40)\n      swap1\n      dup2\n      add\n      0x40\n      mstore\n      dup1\n      swap3\n      swap2\n      swap1\n      dup2\n      dup2\n      mstore\n      0x20\n      add\n      dup3\n      dup1\n      sload\n      tag_71\n      swap1\n      tag_27\n      jump\t// in\n    tag_71:\n      dup1\n      iszero\n      tag_72\n      jumpi\n      dup1\n      0x1f\n      lt\n      tag_73\n      jumpi\n      0x0100\n      dup1\n      dup4\n      sload\n      div\n      mul\n      dup4\n      mstore\n      swap2\n      0x20\n      add\n      swap2\n      jump(tag_72)\n    tag_73:\n      dup3\n      add\n      swap2\n      swap1\n      0x00\n      mstore\n      keccak256(0x00, 0x20)\n      swap1\n    tag_74:\n      dup2\n      sload\n      dup2\n      mstore\n      swap1\n      0x01\n      add\n      swap1\n      0x20\n      add\n      dup1\n      dup4\n      gt\n      tag_74\n      jumpi\n      dup3\n      swap1\n      sub\n      0x1f\n      and\n      dup3\n      add\n      swap2\n    tag_72:\n      pop\n      pop\n      pop\n      pop\n      pop\n      swap1\n      pop\n      dup7\n      jump\t// out\n        /* \"contracts/Profile.sol\":950:1046  function getBio() public view returns(Bio memory ) {\r... */\n    tag_23:\n        /* \"contracts/Profile.sol\":988:998  Bio memory */\n      tag_75\n      tag_76\n      jump\t// in\n    tag_75:\n        /* \"contracts/Profile.sol\":1019:1026  profile */\n      0x00\n        /* \"contracts/Profile.sol\":1019:1038  profile[msg.sender] */\n      dup1\n        /* \"contracts/Profile.sol\":1027:1037  msg.sender */\n      caller\n        /* \"contracts/Profile.sol\":1019:1038  profile[msg.sender] */\n      0xffffffffffffffffffffffffffffffffffffffff\n      and\n      0xffffffffffffffffffffffffffffffffffffffff\n      and\n      dup2\n      mstore\n      0x20\n      add\n      swap1\n      dup2\n      mstore\n      0x20\n      add\n      0x00\n      keccak256\n        /* \"contracts/Profile.sol\":1012:1038  return profile[msg.sender] */\n      mload(0x40)\n      dup1\n      0xc0\n      add\n      0x40\n      mstore\n      swap1\n      dup2\n      0x00\n      dup3\n      add\n      dup1\n      sload\n      tag_78\n      swap1\n      tag_27\n      jump\t// in\n    tag_78:\n      dup1\n      0x1f\n      add\n      0x20\n      dup1\n      swap2\n      div\n      mul\n      0x20\n      add\n      mload(0x40)\n      swap1\n      dup2\n      add\n      0x40\n      mstore\n      dup1\n      swap3\n      swap2\n      swap1\n      dup2\n      dup2\n      mstore\n      0x20\n      add\n      dup3\n      dup1\n      sload\n      tag_79\n      swap1\n      tag_27\n      jump\t// in\n    tag_79:\n      dup1\n      iszero\n      tag_80\n      jumpi\n      dup1\n      0x1f\n      lt\n      tag_81\n      jumpi\n      0x0100\n      dup1\n      dup4\n      sload\n      div\n      mul\n      dup4\n      mstore\n      swap2\n      0x20\n      add\n      swap2\n      jump(tag_80)\n    tag_81:\n      dup3\n      add\n      swap2\n      swap1\n      0x00\n      mstore\n      keccak256(0x00, 0x20)\n      swap1\n    tag_82:\n      dup2\n      sload\n      dup2\n      mstore\n      swap1\n      0x01\n      add\n      swap1\n      0x20\n      add\n      dup1\n      dup4\n      gt\n      tag_82\n      jumpi\n      dup3\n      swap1\n      sub\n      0x1f\n      and\n      dup3\n      add\n      swap2\n    tag_80:\n      pop\n      pop\n      pop\n      pop\n      pop\n      dup2\n      mstore\n      0x20\n      add\n      0x01\n      dup3\n      add\n      dup1\n      sload\n      tag_83\n      swap1\n      tag_27\n      jump\t// in\n    tag_83:\n      dup1\n      0x1f\n      add\n      0x20\n      dup1\n      swap2\n      div\n      mul\n      0x20\n      add\n      mload(0x40)\n      swap1\n      dup2\n      add\n      0x40\n      mstore\n      dup1\n      swap3\n      swap2\n      swap1\n      dup2\n      dup2\n      mstore\n      0x20\n      add\n      dup3\n      dup1\n      sload\n      tag_84\n      swap1\n      tag_27\n      jump\t// in\n    tag_84:\n      dup1\n      iszero\n      tag_85\n      jumpi\n      dup1\n      0x1f\n      lt\n      tag_86\n      jumpi\n      0x0100\n      dup1\n      dup4\n      sload\n      div\n      mul\n      dup4\n      mstore\n      swap2\n      0x20\n      add\n      swap2\n      jump(tag_85)\n    tag_86:\n      dup3\n      add\n      swap2\n      swap1\n      0x00\n      mstore\n      keccak256(0x00, 0x20)\n      swap1\n    tag_87:\n      dup2\n      sload\n      dup2\n      mstore\n      swap1\n      0x01\n      add\n      swap1\n      0x20\n      add\n      dup1\n      dup4\n      gt\n      tag_87\n      jumpi\n      dup3\n      swap1\n      sub\n      0x1f\n      and\n      dup3\n      add\n      swap2\n    tag_85:\n      pop\n      pop\n      pop\n      pop\n      pop\n      dup2\n      mstore\n      0x20\n      add\n      0x02\n      dup3\n      add\n      dup1\n      sload\n      tag_88\n      swap1\n      tag_27\n      jump\t// in\n    tag_88:\n      dup1\n      0x1f\n      add\n      0x20\n      dup1\n      swap2\n      div\n      mul\n      0x20\n      add\n      mload(0x40)\n      swap1\n      dup2\n      add\n      0x40\n      mstore\n      dup1\n      swap3\n      swap2\n      swap1\n      dup2\n      dup2\n      mstore\n      0x20\n      add\n      dup3\n      dup1\n      sload\n      tag_89\n      swap1\n      tag_27\n      jump\t// in\n    tag_89:\n      dup1\n      iszero\n      tag_90\n      jumpi\n      dup1\n      0x1f\n      lt\n      tag_91\n      jumpi\n      0x0100\n      dup1\n      dup4\n      sload\n      div\n      mul\n      dup4\n      mstore\n      swap2\n      0x20\n      add\n      swap2\n      jump(tag_90)\n    tag_91:\n      dup3\n      add\n      swap2\n      swap1\n      0x00\n      mstore\n      keccak256(0x00, 0x20)\n      swap1\n    tag_92:\n      dup2\n      sload\n      dup2\n      mstore\n      swap1\n      0x01\n      add\n      swap1\n      0x20\n      add\n      dup1\n      dup4\n      gt\n      tag_92\n      jumpi\n      dup3\n      swap1\n      sub\n      0x1f\n      and\n      dup3\n      add\n      swap2\n    tag_90:\n      pop\n      pop\n      pop\n      pop\n      pop\n      dup2\n      mstore\n      0x20\n      add\n      0x03\n      dup3\n      add\n      dup1\n      sload\n      tag_93\n      swap1\n      tag_27\n      jump\t// in\n    tag_93:\n      dup1\n      0x1f\n      add\n      0x20\n      dup1\n      swap2\n      div\n      mul\n      0x20\n      add\n      mload(0x40)\n      swap1\n      dup2\n      add\n      0x40\n      mstore\n      dup1\n      swap3\n      swap2\n      swap1\n      dup2\n      dup2\n      mstore\n      0x20\n      add\n      dup3\n      dup1\n      sload\n      tag_94\n      swap1\n      tag_27\n      jump\t// in\n    tag_94:\n      dup1\n      iszero\n      tag_95\n      jumpi\n      dup1\n      0x1f\n      lt\n      tag_96\n      jumpi\n      0x0100\n      dup1\n      dup4\n      sload\n      div\n      mul\n      dup4\n      mstore\n      swap2\n      0x20\n      add\n      swap2\n      jump(tag_95)\n    tag_96:\n      dup3\n      add\n      swap2\n      swap1\n      0x00\n      mstore\n      keccak256(0x00, 0x20)\n      swap1\n    tag_97:\n      dup2\n      sload\n      dup2\n      mstore\n      swap1\n      0x01\n      add\n      swap1\n      0x20\n      add\n      dup1\n      dup4\n      gt\n      tag_97\n      jumpi\n      dup3\n      swap1\n      sub\n      0x1f\n      and\n      dup3\n      add\n      swap2\n    tag_95:\n      pop\n      pop\n      pop\n      pop\n      pop\n      dup2\n      mstore\n      0x20\n      add\n      0x04\n      dup3\n      add\n      dup1\n      sload\n      tag_98\n      swap1\n      tag_27\n      jump\t// in\n    tag_98:\n      dup1\n      0x1f\n      add\n      0x20\n      dup1\n      swap2\n      div\n      mul\n      0x20\n      add\n      mload(0x40)\n      swap1\n      dup2\n      add\n      0x40\n      mstore\n      dup1\n      swap3\n      swap2\n      swap1\n      dup2\n      dup2\n      mstore\n      0x20\n      add\n      dup3\n      dup1\n      sload\n      tag_99\n      swap1\n      tag_27\n      jump\t// in\n    tag_99:\n      dup1\n      iszero\n      tag_100\n      jumpi\n      dup1\n      0x1f\n      lt\n      tag_101\n      jumpi\n      0x0100\n      dup1\n      dup4\n      sload\n      div\n      mul\n      dup4\n      mstore\n      swap2\n      0x20\n      add\n      swap2\n      jump(tag_100)\n    tag_101:\n      dup3\n      add\n      swap2\n      swap1\n      0x00\n      mstore\n      keccak256(0x00, 0x20)\n      swap1\n    tag_102:\n      dup2\n      sload\n      dup2\n      mstore\n      swap1\n      0x01\n      add\n      swap1\n      0x20\n      add\n      dup1\n      dup4\n      gt\n      tag_102\n      jumpi\n      dup3\n      swap1\n      sub\n      0x1f\n      and\n      dup3\n      add\n      swap2\n    tag_100:\n      pop\n      pop\n      pop\n      pop\n      pop\n      dup2\n      mstore\n      0x20\n      add\n      0x05\n      dup3\n      add\n      dup1\n      sload\n      tag_103\n      swap1\n      tag_27\n      jump\t// in\n    tag_103:\n      dup1\n      0x1f\n      add\n      0x20\n      dup1\n      swap2\n      div\n      mul\n      0x20\n      add\n      mload(0x40)\n      swap1\n      dup2\n      add\n      0x40\n      mstore\n      dup1\n      swap3\n      swap2\n      swap1\n      dup2\n      dup2\n      mstore\n      0x20\n      add\n      dup3\n      dup1\n      sload\n      tag_104\n      swap1\n      tag_27\n      jump\t// in\n    tag_104:\n      dup1\n      iszero\n      tag_105\n      jumpi\n      dup1\n      0x1f\n      lt\n      tag_106\n      jumpi\n      0x0100\n      dup1\n      dup4\n      sload\n      div\n      mul\n      dup4\n      mstore\n      swap2\n      0x20\n      add\n      swap2\n      jump(tag_105)\n    tag_106:\n      dup3\n      add\n      swap2\n      swap1\n      0x00\n      mstore\n      keccak256(0x00, 0x20)\n      swap1\n    tag_107:\n      dup2\n      sload\n      dup2\n      mstore\n      swap1\n      0x01\n      add\n      swap1\n      0x20\n      add\n      dup1\n      dup4\n      gt\n      tag_107\n      jumpi\n      dup3\n      swap1\n      sub\n      0x1f\n      and\n      dup3\n      add\n      swap2\n    tag_105:\n      pop\n      pop\n      pop\n      pop\n      pop\n      dup2\n      mstore\n      pop\n      pop\n      swap1\n      pop\n        /* \"contracts/Profile.sol\":950:1046  function getBio() public view returns(Bio memory ) {\r... */\n      swap1\n      jump\t// out\n    tag_39:\n      dup3\n      dup1\n      sload\n      tag_108\n      swap1\n      tag_27\n      jump\t// in\n    tag_108:\n      swap1\n      0x00\n      mstore\n      keccak256(0x00, 0x20)\n      swap1\n      0x1f\n      add\n      0x20\n      swap1\n      div\n      dup2\n      add\n      swap3\n      dup3\n      tag_110\n      jumpi\n      0x00\n      dup6\n      sstore\n      jump(tag_109)\n    tag_110:\n      dup3\n      0x1f\n      lt\n      tag_111\n      jumpi\n      dup1\n      mload\n      not(0xff)\n      and\n      dup4\n      dup1\n      add\n      or\n      dup6\n      sstore\n      jump(tag_109)\n    tag_111:\n      dup3\n      dup1\n      add\n      0x01\n      add\n      dup6\n      sstore\n      dup3\n      iszero\n      tag_109\n      jumpi\n      swap2\n      dup3\n      add\n    tag_112:\n      dup3\n      dup2\n      gt\n      iszero\n      tag_113\n      jumpi\n      dup3\n      mload\n      dup3\n      sstore\n      swap2\n      0x20\n      add\n      swap2\n      swap1\n      0x01\n      add\n      swap1\n      jump(tag_112)\n    tag_113:\n    tag_109:\n      pop\n      swap1\n      pop\n      tag_114\n      swap2\n      swap1\n      tag_115\n      jump\t// in\n    tag_114:\n      pop\n      swap1\n      jump\t// out\n    tag_76:\n      mload(0x40)\n      dup1\n      0xc0\n      add\n      0x40\n      mstore\n      dup1\n      0x60\n      dup2\n      mstore\n      0x20\n      add\n      0x60\n      dup2\n      mstore\n      0x20\n      add\n      0x60\n      dup2\n      mstore\n      0x20\n      add\n      0x60\n      dup2\n      mstore\n      0x20\n      add\n      0x60\n      dup2\n      mstore\n      0x20\n      add\n      0x60\n      dup2\n      mstore\n      pop\n      swap1\n      jump\t// out\n    tag_115:\n    tag_116:\n      dup1\n      dup3\n      gt\n      iszero\n      tag_117\n      jumpi\n      0x00\n      dup2\n      0x00\n      swap1\n      sstore\n      pop\n      0x01\n      add\n      jump(tag_116)\n    tag_117:\n      pop\n      swap1\n      jump\t// out\n        /* \"#utility.yul\":7:419   */\n    tag_119:\n        /* \"#utility.yul\":85:90   */\n      0x00\n        /* \"#utility.yul\":110:176   */\n      tag_121\n        /* \"#utility.yul\":126:175   */\n      tag_122\n        /* \"#utility.yul\":168:174   */\n      dup5\n        /* \"#utility.yul\":126:175   */\n      tag_123\n      jump\t// in\n    tag_122:\n        /* \"#utility.yul\":110:176   */\n      tag_124\n      jump\t// in\n    tag_121:\n        /* \"#utility.yul\":101:176   */\n      swap1\n      pop\n        /* \"#utility.yul\":199:205   */\n      dup3\n        /* \"#utility.yul\":192:197   */\n      dup2\n        /* \"#utility.yul\":185:206   */\n      mstore\n        /* \"#utility.yul\":237:241   */\n      0x20\n        /* \"#utility.yul\":230:235   */\n      dup2\n        /* \"#utility.yul\":226:242   */\n      add\n        /* \"#utility.yul\":275:278   */\n      dup5\n        /* \"#utility.yul\":266:272   */\n      dup5\n        /* \"#utility.yul\":261:264   */\n      dup5\n        /* \"#utility.yul\":257:273   */\n      add\n        /* \"#utility.yul\":254:279   */\n      gt\n        /* \"#utility.yul\":251:363   */\n      iszero\n      tag_125\n      jumpi\n        /* \"#utility.yul\":282:361   */\n      tag_126\n      tag_127\n      jump\t// in\n    tag_126:\n        /* \"#utility.yul\":251:363   */\n    tag_125:\n        /* \"#utility.yul\":372:413   */\n      tag_128\n        /* \"#utility.yul\":406:412   */\n      dup5\n        /* \"#utility.yul\":401:404   */\n      dup3\n        /* \"#utility.yul\":396:399   */\n      dup6\n        /* \"#utility.yul\":372:413   */\n      tag_129\n      jump\t// in\n    tag_128:\n        /* \"#utility.yul\":91:419   */\n      pop\n        /* \"#utility.yul\":7:419   */\n      swap4\n      swap3\n      pop\n      pop\n      pop\n      jump\t// out\n        /* \"#utility.yul\":425:564   */\n    tag_130:\n        /* \"#utility.yul\":471:476   */\n      0x00\n        /* \"#utility.yul\":509:515   */\n      dup2\n        /* \"#utility.yul\":496:516   */\n      calldataload\n        /* \"#utility.yul\":487:516   */\n      swap1\n      pop\n        /* \"#utility.yul\":525:558   */\n      tag_132\n        /* \"#utility.yul\":552:557   */\n      dup2\n        /* \"#utility.yul\":525:558   */\n      tag_133\n      jump\t// in\n    tag_132:\n        /* \"#utility.yul\":425:564   */\n      swap3\n      swap2\n      pop\n      pop\n      jump\t// out\n        /* \"#utility.yul\":584:924   */\n    tag_134:\n        /* \"#utility.yul\":640:645   */\n      0x00\n        /* \"#utility.yul\":689:692   */\n      dup3\n        /* \"#utility.yul\":682:686   */\n      0x1f\n        /* \"#utility.yul\":674:680   */\n      dup4\n        /* \"#utility.yul\":670:687   */\n      add\n        /* \"#utility.yul\":666:693   */\n      slt\n        /* \"#utility.yul\":656:778   */\n      tag_136\n      jumpi\n        /* \"#utility.yul\":697:776   */\n      tag_137\n      tag_138\n      jump\t// in\n    tag_137:\n        /* \"#utility.yul\":656:778   */\n    tag_136:\n        /* \"#utility.yul\":814:820   */\n      dup2\n        /* \"#utility.yul\":801:821   */\n      calldataload\n        /* \"#utility.yul\":839:918   */\n      tag_139\n        /* \"#utility.yul\":914:917   */\n      dup5\n        /* \"#utility.yul\":906:912   */\n      dup3\n        /* \"#utility.yul\":899:903   */\n      0x20\n        /* \"#utility.yul\":891:897   */\n      dup7\n        /* \"#utility.yul\":887:904   */\n      add\n        /* \"#utility.yul\":839:918   */\n      tag_119\n      jump\t// in\n    tag_139:\n        /* \"#utility.yul\":830:918   */\n      swap2\n      pop\n        /* \"#utility.yul\":646:924   */\n      pop\n        /* \"#utility.yul\":584:924   */\n      swap3\n      swap2\n      pop\n      pop\n      jump\t// out\n        /* \"#utility.yul\":930:1259   */\n    tag_9:\n        /* \"#utility.yul\":989:995   */\n      0x00\n        /* \"#utility.yul\":1038:1040   */\n      0x20\n        /* \"#utility.yul\":1026:1035   */\n      dup3\n        /* \"#utility.yul\":1017:1024   */\n      dup5\n        /* \"#utility.yul\":1013:1036   */\n      sub\n        /* \"#utility.yul\":1009:1041   */\n      slt\n        /* \"#utility.yul\":1006:1125   */\n      iszero\n      tag_141\n      jumpi\n        /* \"#utility.yul\":1044:1123   */\n      tag_142\n      tag_143\n      jump\t// in\n    tag_142:\n        /* \"#utility.yul\":1006:1125   */\n    tag_141:\n        /* \"#utility.yul\":1164:1165   */\n      0x00\n        /* \"#utility.yul\":1189:1242   */\n      tag_144\n        /* \"#utility.yul\":1234:1241   */\n      dup5\n        /* \"#utility.yul\":1225:1231   */\n      dup3\n        /* \"#utility.yul\":1214:1223   */\n      dup6\n        /* \"#utility.yul\":1210:1232   */\n      add\n        /* \"#utility.yul\":1189:1242   */\n      tag_130\n      jump\t// in\n    tag_144:\n        /* \"#utility.yul\":1179:1242   */\n      swap2\n      pop\n        /* \"#utility.yul\":1135:1252   */\n      pop\n        /* \"#utility.yul\":930:1259   */\n      swap3\n      swap2\n      pop\n      pop\n      jump\t// out\n        /* \"#utility.yul\":1265:3402   */\n    tag_15:\n        /* \"#utility.yul\":1429:1435   */\n      0x00\n        /* \"#utility.yul\":1437:1443   */\n      dup1\n        /* \"#utility.yul\":1445:1451   */\n      0x00\n        /* \"#utility.yul\":1453:1459   */\n      dup1\n        /* \"#utility.yul\":1461:1467   */\n      0x00\n        /* \"#utility.yul\":1469:1475   */\n      dup1\n        /* \"#utility.yul\":1518:1521   */\n      0xc0\n        /* \"#utility.yul\":1506:1515   */\n      dup8\n        /* \"#utility.yul\":1497:1504   */\n      dup10\n        /* \"#utility.yul\":1493:1516   */\n      sub\n        /* \"#utility.yul\":1489:1522   */\n      slt\n        /* \"#utility.yul\":1486:1606   */\n      iszero\n      tag_146\n      jumpi\n        /* \"#utility.yul\":1525:1604   */\n      tag_147\n      tag_143\n      jump\t// in\n    tag_147:\n        /* \"#utility.yul\":1486:1606   */\n    tag_146:\n        /* \"#utility.yul\":1673:1674   */\n      0x00\n        /* \"#utility.yul\":1662:1671   */\n      dup8\n        /* \"#utility.yul\":1658:1675   */\n      add\n        /* \"#utility.yul\":1645:1676   */\n      calldataload\n        /* \"#utility.yul\":1703:1721   */\n      0xffffffffffffffff\n        /* \"#utility.yul\":1695:1701   */\n      dup2\n        /* \"#utility.yul\":1692:1722   */\n      gt\n        /* \"#utility.yul\":1689:1806   */\n      iszero\n      tag_148\n      jumpi\n        /* \"#utility.yul\":1725:1804   */\n      tag_149\n      tag_150\n      jump\t// in\n    tag_149:\n        /* \"#utility.yul\":1689:1806   */\n    tag_148:\n        /* \"#utility.yul\":1830:1893   */\n      tag_151\n        /* \"#utility.yul\":1885:1892   */\n      dup10\n        /* \"#utility.yul\":1876:1882   */\n      dup3\n        /* \"#utility.yul\":1865:1874   */\n      dup11\n        /* \"#utility.yul\":1861:1883   */\n      add\n        /* \"#utility.yul\":1830:1893   */\n      tag_134\n      jump\t// in\n    tag_151:\n        /* \"#utility.yul\":1820:1893   */\n      swap7\n      pop\n        /* \"#utility.yul\":1616:1903   */\n      pop\n        /* \"#utility.yul\":1970:1972   */\n      0x20\n        /* \"#utility.yul\":1959:1968   */\n      dup8\n        /* \"#utility.yul\":1955:1973   */\n      add\n        /* \"#utility.yul\":1942:1974   */\n      calldataload\n        /* \"#utility.yul\":2001:2019   */\n      0xffffffffffffffff\n        /* \"#utility.yul\":1993:1999   */\n      dup2\n        /* \"#utility.yul\":1990:2020   */\n      gt\n        /* \"#utility.yul\":1987:2104   */\n      iszero\n      tag_152\n      jumpi\n        /* \"#utility.yul\":2023:2102   */\n      tag_153\n      tag_150\n      jump\t// in\n    tag_153:\n        /* \"#utility.yul\":1987:2104   */\n    tag_152:\n        /* \"#utility.yul\":2128:2191   */\n      tag_154\n        /* \"#utility.yul\":2183:2190   */\n      dup10\n        /* \"#utility.yul\":2174:2180   */\n      dup3\n        /* \"#utility.yul\":2163:2172   */\n      dup11\n        /* \"#utility.yul\":2159:2181   */\n      add\n        /* \"#utility.yul\":2128:2191   */\n      tag_134\n      jump\t// in\n    tag_154:\n        /* \"#utility.yul\":2118:2191   */\n      swap6\n      pop\n        /* \"#utility.yul\":1913:2201   */\n      pop\n        /* \"#utility.yul\":2268:2270   */\n      0x40\n        /* \"#utility.yul\":2257:2266   */\n      dup8\n        /* \"#utility.yul\":2253:2271   */\n      add\n        /* \"#utility.yul\":2240:2272   */\n      calldataload\n        /* \"#utility.yul\":2299:2317   */\n      0xffffffffffffffff\n        /* \"#utility.yul\":2291:2297   */\n      dup2\n        /* \"#utility.yul\":2288:2318   */\n      gt\n        /* \"#utility.yul\":2285:2402   */\n      iszero\n      tag_155\n      jumpi\n        /* \"#utility.yul\":2321:2400   */\n      tag_156\n      tag_150\n      jump\t// in\n    tag_156:\n        /* \"#utility.yul\":2285:2402   */\n    tag_155:\n        /* \"#utility.yul\":2426:2489   */\n      tag_157\n        /* \"#utility.yul\":2481:2488   */\n      dup10\n        /* \"#utility.yul\":2472:2478   */\n      dup3\n        /* \"#utility.yul\":2461:2470   */\n      dup11\n        /* \"#utility.yul\":2457:2479   */\n      add\n        /* \"#utility.yul\":2426:2489   */\n      tag_134\n      jump\t// in\n    tag_157:\n        /* \"#utility.yul\":2416:2489   */\n      swap5\n      pop\n        /* \"#utility.yul\":2211:2499   */\n      pop\n        /* \"#utility.yul\":2566:2568   */\n      0x60\n        /* \"#utility.yul\":2555:2564   */\n      dup8\n        /* \"#utility.yul\":2551:2569   */\n      add\n        /* \"#utility.yul\":2538:2570   */\n      calldataload\n        /* \"#utility.yul\":2597:2615   */\n      0xffffffffffffffff\n        /* \"#utility.yul\":2589:2595   */\n      dup2\n        /* \"#utility.yul\":2586:2616   */\n      gt\n        /* \"#utility.yul\":2583:2700   */\n      iszero\n      tag_158\n      jumpi\n        /* \"#utility.yul\":2619:2698   */\n      tag_159\n      tag_150\n      jump\t// in\n    tag_159:\n        /* \"#utility.yul\":2583:2700   */\n    tag_158:\n        /* \"#utility.yul\":2724:2787   */\n      tag_160\n        /* \"#utility.yul\":2779:2786   */\n      dup10\n        /* \"#utility.yul\":2770:2776   */\n      dup3\n        /* \"#utility.yul\":2759:2768   */\n      dup11\n        /* \"#utility.yul\":2755:2777   */\n      add\n        /* \"#utility.yul\":2724:2787   */\n      tag_134\n      jump\t// in\n    tag_160:\n        /* \"#utility.yul\":2714:2787   */\n      swap4\n      pop\n        /* \"#utility.yul\":2509:2797   */\n      pop\n        /* \"#utility.yul\":2864:2867   */\n      0x80\n        /* \"#utility.yul\":2853:2862   */\n      dup8\n        /* \"#utility.yul\":2849:2868   */\n      add\n        /* \"#utility.yul\":2836:2869   */\n      calldataload\n        /* \"#utility.yul\":2896:2914   */\n      0xffffffffffffffff\n        /* \"#utility.yul\":2888:2894   */\n      dup2\n        /* \"#utility.yul\":2885:2915   */\n      gt\n        /* \"#utility.yul\":2882:2999   */\n      iszero\n      tag_161\n      jumpi\n        /* \"#utility.yul\":2918:2997   */\n      tag_162\n      tag_150\n      jump\t// in\n    tag_162:\n        /* \"#utility.yul\":2882:2999   */\n    tag_161:\n        /* \"#utility.yul\":3023:3086   */\n      tag_163\n        /* \"#utility.yul\":3078:3085   */\n      dup10\n        /* \"#utility.yul\":3069:3075   */\n      dup3\n        /* \"#utility.yul\":3058:3067   */\n      dup11\n        /* \"#utility.yul\":3054:3076   */\n      add\n        /* \"#utility.yul\":3023:3086   */\n      tag_134\n      jump\t// in\n    tag_163:\n        /* \"#utility.yul\":3013:3086   */\n      swap3\n      pop\n        /* \"#utility.yul\":2807:3096   */\n      pop\n        /* \"#utility.yul\":3163:3166   */\n      0xa0\n        /* \"#utility.yul\":3152:3161   */\n      dup8\n        /* \"#utility.yul\":3148:3167   */\n      add\n        /* \"#utility.yul\":3135:3168   */\n      calldataload\n        /* \"#utility.yul\":3195:3213   */\n      0xffffffffffffffff\n        /* \"#utility.yul\":3187:3193   */\n      dup2\n        /* \"#utility.yul\":3184:3214   */\n      gt\n        /* \"#utility.yul\":3181:3298   */\n      iszero\n      tag_164\n      jumpi\n        /* \"#utility.yul\":3217:3296   */\n      tag_165\n      tag_150\n      jump\t// in\n    tag_165:\n        /* \"#utility.yul\":3181:3298   */\n    tag_164:\n        /* \"#utility.yul\":3322:3385   */\n      tag_166\n        /* \"#utility.yul\":3377:3384   */\n      dup10\n        /* \"#utility.yul\":3368:3374   */\n      dup3\n        /* \"#utility.yul\":3357:3366   */\n      dup11\n        /* \"#utility.yul\":3353:3375   */\n      add\n        /* \"#utility.yul\":3322:3385   */\n      tag_134\n      jump\t// in\n    tag_166:\n        /* \"#utility.yul\":3312:3385   */\n      swap2\n      pop\n        /* \"#utility.yul\":3106:3395   */\n      pop\n        /* \"#utility.yul\":1265:3402   */\n      swap3\n      swap6\n      pop\n      swap3\n      swap6\n      pop\n      swap3\n      swap6\n      jump\t// out\n        /* \"#utility.yul\":3408:3752   */\n    tag_167:\n        /* \"#utility.yul\":3486:3489   */\n      0x00\n        /* \"#utility.yul\":3514:3553   */\n      tag_169\n        /* \"#utility.yul\":3547:3552   */\n      dup3\n        /* \"#utility.yul\":3514:3553   */\n      tag_170\n      jump\t// in\n    tag_169:\n        /* \"#utility.yul\":3569:3630   */\n      tag_171\n        /* \"#utility.yul\":3623:3629   */\n      dup2\n        /* \"#utility.yul\":3618:3621   */\n      dup6\n        /* \"#utility.yul\":3569:3630   */\n      tag_172\n      jump\t// in\n    tag_171:\n        /* \"#utility.yul\":3562:3630   */\n      swap4\n      pop\n        /* \"#utility.yul\":3639:3691   */\n      tag_173\n        /* \"#utility.yul\":3684:3690   */\n      dup2\n        /* \"#utility.yul\":3679:3682   */\n      dup6\n        /* \"#utility.yul\":3672:3676   */\n      0x20\n        /* \"#utility.yul\":3665:3670   */\n      dup7\n        /* \"#utility.yul\":3661:3677   */\n      add\n        /* \"#utility.yul\":3639:3691   */\n      tag_174\n      jump\t// in\n    tag_173:\n        /* \"#utility.yul\":3716:3745   */\n      tag_175\n        /* \"#utility.yul\":3738:3744   */\n      dup2\n        /* \"#utility.yul\":3716:3745   */\n      tag_176\n      jump\t// in\n    tag_175:\n        /* \"#utility.yul\":3711:3714   */\n      dup5\n        /* \"#utility.yul\":3707:3746   */\n      add\n        /* \"#utility.yul\":3700:3746   */\n      swap2\n      pop\n        /* \"#utility.yul\":3490:3752   */\n      pop\n        /* \"#utility.yul\":3408:3752   */\n      swap3\n      swap2\n      pop\n      pop\n      jump\t// out\n        /* \"#utility.yul\":3758:4122   */\n    tag_177:\n        /* \"#utility.yul\":3846:3849   */\n      0x00\n        /* \"#utility.yul\":3874:3913   */\n      tag_179\n        /* \"#utility.yul\":3907:3912   */\n      dup3\n        /* \"#utility.yul\":3874:3913   */\n      tag_170\n      jump\t// in\n    tag_179:\n        /* \"#utility.yul\":3929:4000   */\n      tag_180\n        /* \"#utility.yul\":3993:3999   */\n      dup2\n        /* \"#utility.yul\":3988:3991   */\n      dup6\n        /* \"#utility.yul\":3929:4000   */\n      tag_181\n      jump\t// in\n    tag_180:\n        /* \"#utility.yul\":3922:4000   */\n      swap4\n      pop\n        /* \"#utility.yul\":4009:4061   */\n      tag_182\n        /* \"#utility.yul\":4054:4060   */\n      dup2\n        /* \"#utility.yul\":4049:4052   */\n      dup6\n        /* \"#utility.yul\":4042:4046   */\n      0x20\n        /* \"#utility.yul\":4035:4040   */\n      dup7\n        /* \"#utility.yul\":4031:4047   */\n      add\n        /* \"#utility.yul\":4009:4061   */\n      tag_174\n      jump\t// in\n    tag_182:\n        /* \"#utility.yul\":4086:4115   */\n      tag_183\n        /* \"#utility.yul\":4108:4114   */\n      dup2\n        /* \"#utility.yul\":4086:4115   */\n      tag_176\n      jump\t// in\n    tag_183:\n        /* \"#utility.yul\":4081:4084   */\n      dup5\n        /* \"#utility.yul\":4077:4116   */\n      add\n        /* \"#utility.yul\":4070:4116   */\n      swap2\n      pop\n        /* \"#utility.yul\":3850:4122   */\n      pop\n        /* \"#utility.yul\":3758:4122   */\n      swap3\n      swap2\n      pop\n      pop\n      jump\t// out\n        /* \"#utility.yul\":4176:5846   */\n    tag_184:\n        /* \"#utility.yul\":4283:4286   */\n      0x00\n        /* \"#utility.yul\":4319:4323   */\n      0xc0\n        /* \"#utility.yul\":4314:4317   */\n      dup4\n        /* \"#utility.yul\":4310:4324   */\n      add\n        /* \"#utility.yul\":4411:4415   */\n      0x00\n        /* \"#utility.yul\":4404:4409   */\n      dup4\n        /* \"#utility.yul\":4400:4416   */\n      add\n        /* \"#utility.yul\":4394:4417   */\n      mload\n        /* \"#utility.yul\":4464:4467   */\n      dup5\n        /* \"#utility.yul\":4458:4462   */\n      dup3\n        /* \"#utility.yul\":4454:4468   */\n      sub\n        /* \"#utility.yul\":4447:4451   */\n      0x00\n        /* \"#utility.yul\":4442:4445   */\n      dup7\n        /* \"#utility.yul\":4438:4452   */\n      add\n        /* \"#utility.yul\":4431:4469   */\n      mstore\n        /* \"#utility.yul\":4490:4563   */\n      tag_186\n        /* \"#utility.yul\":4558:4562   */\n      dup3\n        /* \"#utility.yul\":4544:4556   */\n      dup3\n        /* \"#utility.yul\":4490:4563   */\n      tag_167\n      jump\t// in\n    tag_186:\n        /* \"#utility.yul\":4482:4563   */\n      swap2\n      pop\n        /* \"#utility.yul\":4334:4574   */\n      pop\n        /* \"#utility.yul\":4662:4666   */\n      0x20\n        /* \"#utility.yul\":4655:4660   */\n      dup4\n        /* \"#utility.yul\":4651:4667   */\n      add\n        /* \"#utility.yul\":4645:4668   */\n      mload\n        /* \"#utility.yul\":4715:4718   */\n      dup5\n        /* \"#utility.yul\":4709:4713   */\n      dup3\n        /* \"#utility.yul\":4705:4719   */\n      sub\n        /* \"#utility.yul\":4698:4702   */\n      0x20\n        /* \"#utility.yul\":4693:4696   */\n      dup7\n        /* \"#utility.yul\":4689:4703   */\n      add\n        /* \"#utility.yul\":4682:4720   */\n      mstore\n        /* \"#utility.yul\":4741:4814   */\n      tag_187\n        /* \"#utility.yul\":4809:4813   */\n      dup3\n        /* \"#utility.yul\":4795:4807   */\n      dup3\n        /* \"#utility.yul\":4741:4814   */\n      tag_167\n      jump\t// in\n    tag_187:\n        /* \"#utility.yul\":4733:4814   */\n      swap2\n      pop\n        /* \"#utility.yul\":4584:4825   */\n      pop\n        /* \"#utility.yul\":4911:4915   */\n      0x40\n        /* \"#utility.yul\":4904:4909   */\n      dup4\n        /* \"#utility.yul\":4900:4916   */\n      add\n        /* \"#utility.yul\":4894:4917   */\n      mload\n        /* \"#utility.yul\":4964:4967   */\n      dup5\n        /* \"#utility.yul\":4958:4962   */\n      dup3\n        /* \"#utility.yul\":4954:4968   */\n      sub\n        /* \"#utility.yul\":4947:4951   */\n      0x40\n        /* \"#utility.yul\":4942:4945   */\n      dup7\n        /* \"#utility.yul\":4938:4952   */\n      add\n        /* \"#utility.yul\":4931:4969   */\n      mstore\n        /* \"#utility.yul\":4990:5063   */\n      tag_188\n        /* \"#utility.yul\":5058:5062   */\n      dup3\n        /* \"#utility.yul\":5044:5056   */\n      dup3\n        /* \"#utility.yul\":4990:5063   */\n      tag_167\n      jump\t// in\n    tag_188:\n        /* \"#utility.yul\":4982:5063   */\n      swap2\n      pop\n        /* \"#utility.yul\":4835:5074   */\n      pop\n        /* \"#utility.yul\":5157:5161   */\n      0x60\n        /* \"#utility.yul\":5150:5155   */\n      dup4\n        /* \"#utility.yul\":5146:5162   */\n      add\n        /* \"#utility.yul\":5140:5163   */\n      mload\n        /* \"#utility.yul\":5210:5213   */\n      dup5\n        /* \"#utility.yul\":5204:5208   */\n      dup3\n        /* \"#utility.yul\":5200:5214   */\n      sub\n        /* \"#utility.yul\":5193:5197   */\n      0x60\n        /* \"#utility.yul\":5188:5191   */\n      dup7\n        /* \"#utility.yul\":5184:5198   */\n      add\n        /* \"#utility.yul\":5177:5215   */\n      mstore\n        /* \"#utility.yul\":5236:5309   */\n      tag_189\n        /* \"#utility.yul\":5304:5308   */\n      dup3\n        /* \"#utility.yul\":5290:5302   */\n      dup3\n        /* \"#utility.yul\":5236:5309   */\n      tag_167\n      jump\t// in\n    tag_189:\n        /* \"#utility.yul\":5228:5309   */\n      swap2\n      pop\n        /* \"#utility.yul\":5084:5320   */\n      pop\n        /* \"#utility.yul\":5403:5407   */\n      0x80\n        /* \"#utility.yul\":5396:5401   */\n      dup4\n        /* \"#utility.yul\":5392:5408   */\n      add\n        /* \"#utility.yul\":5386:5409   */\n      mload\n        /* \"#utility.yul\":5456:5459   */\n      dup5\n        /* \"#utility.yul\":5450:5454   */\n      dup3\n        /* \"#utility.yul\":5446:5460   */\n      sub\n        /* \"#utility.yul\":5439:5443   */\n      0x80\n        /* \"#utility.yul\":5434:5437   */\n      dup7\n        /* \"#utility.yul\":5430:5444   */\n      add\n        /* \"#utility.yul\":5423:5461   */\n      mstore\n        /* \"#utility.yul\":5482:5555   */\n      tag_190\n        /* \"#utility.yul\":5550:5554   */\n      dup3\n        /* \"#utility.yul\":5536:5548   */\n      dup3\n        /* \"#utility.yul\":5482:5555   */\n      tag_167\n      jump\t// in\n    tag_190:\n        /* \"#utility.yul\":5474:5555   */\n      swap2\n      pop\n        /* \"#utility.yul\":5330:5566   */\n      pop\n        /* \"#utility.yul\":5656:5660   */\n      0xa0\n        /* \"#utility.yul\":5649:5654   */\n      dup4\n        /* \"#utility.yul\":5645:5661   */\n      add\n        /* \"#utility.yul\":5639:5662   */\n      mload\n        /* \"#utility.yul\":5709:5712   */\n      dup5\n        /* \"#utility.yul\":5703:5707   */\n      dup3\n        /* \"#utility.yul\":5699:5713   */\n      sub\n        /* \"#utility.yul\":5692:5696   */\n      0xa0\n        /* \"#utility.yul\":5687:5690   */\n      dup7\n        /* \"#utility.yul\":5683:5697   */\n      add\n        /* \"#utility.yul\":5676:5714   */\n      mstore\n        /* \"#utility.yul\":5735:5808   */\n      tag_191\n        /* \"#utility.yul\":5803:5807   */\n      dup3\n        /* \"#utility.yul\":5789:5801   */\n      dup3\n        /* \"#utility.yul\":5735:5808   */\n      tag_167\n      jump\t// in\n    tag_191:\n        /* \"#utility.yul\":5727:5808   */\n      swap2\n      pop\n        /* \"#utility.yul\":5576:5819   */\n      pop\n        /* \"#utility.yul\":5836:5840   */\n      dup1\n        /* \"#utility.yul\":5829:5840   */\n      swap2\n      pop\n        /* \"#utility.yul\":4288:5846   */\n      pop\n        /* \"#utility.yul\":4176:5846   */\n      swap3\n      swap2\n      pop\n      pop\n      jump\t// out\n        /* \"#utility.yul\":5852:6366   */\n    tag_12:\n        /* \"#utility.yul\":6013:6017   */\n      0x00\n        /* \"#utility.yul\":6051:6053   */\n      0x40\n        /* \"#utility.yul\":6040:6049   */\n      dup3\n        /* \"#utility.yul\":6036:6054   */\n      add\n        /* \"#utility.yul\":6028:6054   */\n      swap1\n      pop\n        /* \"#utility.yul\":6100:6109   */\n      dup2\n        /* \"#utility.yul\":6094:6098   */\n      dup2\n        /* \"#utility.yul\":6090:6110   */\n      sub\n        /* \"#utility.yul\":6086:6087   */\n      0x00\n        /* \"#utility.yul\":6075:6084   */\n      dup4\n        /* \"#utility.yul\":6071:6088   */\n      add\n        /* \"#utility.yul\":6064:6111   */\n      mstore\n        /* \"#utility.yul\":6128:6206   */\n      tag_193\n        /* \"#utility.yul\":6201:6205   */\n      dup2\n        /* \"#utility.yul\":6192:6198   */\n      dup6\n        /* \"#utility.yul\":6128:6206   */\n      tag_177\n      jump\t// in\n    tag_193:\n        /* \"#utility.yul\":6120:6206   */\n      swap1\n      pop\n        /* \"#utility.yul\":6253:6262   */\n      dup2\n        /* \"#utility.yul\":6247:6251   */\n      dup2\n        /* \"#utility.yul\":6243:6263   */\n      sub\n        /* \"#utility.yul\":6238:6240   */\n      0x20\n        /* \"#utility.yul\":6227:6236   */\n      dup4\n        /* \"#utility.yul\":6223:6241   */\n      add\n        /* \"#utility.yul\":6216:6264   */\n      mstore\n        /* \"#utility.yul\":6281:6359   */\n      tag_194\n        /* \"#utility.yul\":6354:6358   */\n      dup2\n        /* \"#utility.yul\":6345:6351   */\n      dup5\n        /* \"#utility.yul\":6281:6359   */\n      tag_177\n      jump\t// in\n    tag_194:\n        /* \"#utility.yul\":6273:6359   */\n      swap1\n      pop\n        /* \"#utility.yul\":5852:6366   */\n      swap4\n      swap3\n      pop\n      pop\n      pop\n      jump\t// out\n        /* \"#utility.yul\":6372:7693   */\n    tag_21:\n        /* \"#utility.yul\":6725:6729   */\n      0x00\n        /* \"#utility.yul\":6763:6766   */\n      0xc0\n        /* \"#utility.yul\":6752:6761   */\n      dup3\n        /* \"#utility.yul\":6748:6767   */\n      add\n        /* \"#utility.yul\":6740:6767   */\n      swap1\n      pop\n        /* \"#utility.yul\":6813:6822   */\n      dup2\n        /* \"#utility.yul\":6807:6811   */\n      dup2\n        /* \"#utility.yul\":6803:6823   */\n      sub\n        /* \"#utility.yul\":6799:6800   */\n      0x00\n        /* \"#utility.yul\":6788:6797   */\n      dup4\n        /* \"#utility.yul\":6784:6801   */\n      add\n        /* \"#utility.yul\":6777:6824   */\n      mstore\n        /* \"#utility.yul\":6841:6919   */\n      tag_196\n        /* \"#utility.yul\":6914:6918   */\n      dup2\n        /* \"#utility.yul\":6905:6911   */\n      dup10\n        /* \"#utility.yul\":6841:6919   */\n      tag_177\n      jump\t// in\n    tag_196:\n        /* \"#utility.yul\":6833:6919   */\n      swap1\n      pop\n        /* \"#utility.yul\":6966:6975   */\n      dup2\n        /* \"#utility.yul\":6960:6964   */\n      dup2\n        /* \"#utility.yul\":6956:6976   */\n      sub\n        /* \"#utility.yul\":6951:6953   */\n      0x20\n        /* \"#utility.yul\":6940:6949   */\n      dup4\n        /* \"#utility.yul\":6936:6954   */\n      add\n        /* \"#utility.yul\":6929:6977   */\n      mstore\n        /* \"#utility.yul\":6994:7072   */\n      tag_197\n        /* \"#utility.yul\":7067:7071   */\n      dup2\n        /* \"#utility.yul\":7058:7064   */\n      dup9\n        /* \"#utility.yul\":6994:7072   */\n      tag_177\n      jump\t// in\n    tag_197:\n        /* \"#utility.yul\":6986:7072   */\n      swap1\n      pop\n        /* \"#utility.yul\":7119:7128   */\n      dup2\n        /* \"#utility.yul\":7113:7117   */\n      dup2\n        /* \"#utility.yul\":7109:7129   */\n      sub\n        /* \"#utility.yul\":7104:7106   */\n      0x40\n        /* \"#utility.yul\":7093:7102   */\n      dup4\n        /* \"#utility.yul\":7089:7107   */\n      add\n        /* \"#utility.yul\":7082:7130   */\n      mstore\n        /* \"#utility.yul\":7147:7225   */\n      tag_198\n        /* \"#utility.yul\":7220:7224   */\n      dup2\n        /* \"#utility.yul\":7211:7217   */\n      dup8\n        /* \"#utility.yul\":7147:7225   */\n      tag_177\n      jump\t// in\n    tag_198:\n        /* \"#utility.yul\":7139:7225   */\n      swap1\n      pop\n        /* \"#utility.yul\":7272:7281   */\n      dup2\n        /* \"#utility.yul\":7266:7270   */\n      dup2\n        /* \"#utility.yul\":7262:7282   */\n      sub\n        /* \"#utility.yul\":7257:7259   */\n      0x60\n        /* \"#utility.yul\":7246:7255   */\n      dup4\n        /* \"#utility.yul\":7242:7260   */\n      add\n        /* \"#utility.yul\":7235:7283   */\n      mstore\n        /* \"#utility.yul\":7300:7378   */\n      tag_199\n        /* \"#utility.yul\":7373:7377   */\n      dup2\n        /* \"#utility.yul\":7364:7370   */\n      dup7\n        /* \"#utility.yul\":7300:7378   */\n      tag_177\n      jump\t// in\n    tag_199:\n        /* \"#utility.yul\":7292:7378   */\n      swap1\n      pop\n        /* \"#utility.yul\":7426:7435   */\n      dup2\n        /* \"#utility.yul\":7420:7424   */\n      dup2\n        /* \"#utility.yul\":7416:7436   */\n      sub\n        /* \"#utility.yul\":7410:7413   */\n      0x80\n        /* \"#utility.yul\":7399:7408   */\n      dup4\n        /* \"#utility.yul\":7395:7414   */\n      add\n        /* \"#utility.yul\":7388:7437   */\n      mstore\n        /* \"#utility.yul\":7454:7532   */\n      tag_200\n        /* \"#utility.yul\":7527:7531   */\n      dup2\n        /* \"#utility.yul\":7518:7524   */\n      dup6\n        /* \"#utility.yul\":7454:7532   */\n      tag_177\n      jump\t// in\n    tag_200:\n        /* \"#utility.yul\":7446:7532   */\n      swap1\n      pop\n        /* \"#utility.yul\":7580:7589   */\n      dup2\n        /* \"#utility.yul\":7574:7578   */\n      dup2\n        /* \"#utility.yul\":7570:7590   */\n      sub\n        /* \"#utility.yul\":7564:7567   */\n      0xa0\n        /* \"#utility.yul\":7553:7562   */\n      dup4\n        /* \"#utility.yul\":7549:7568   */\n      add\n        /* \"#utility.yul\":7542:7591   */\n      mstore\n        /* \"#utility.yul\":7608:7686   */\n      tag_201\n        /* \"#utility.yul\":7681:7685   */\n      dup2\n        /* \"#utility.yul\":7672:7678   */\n      dup5\n        /* \"#utility.yul\":7608:7686   */\n      tag_177\n      jump\t// in\n    tag_201:\n        /* \"#utility.yul\":7600:7686   */\n      swap1\n      pop\n        /* \"#utility.yul\":6372:7693   */\n      swap8\n      swap7\n      pop\n      pop\n      pop\n      pop\n      pop\n      pop\n      pop\n      jump\t// out\n        /* \"#utility.yul\":7699:8048   */\n    tag_25:\n        /* \"#utility.yul\":7830:7834   */\n      0x00\n        /* \"#utility.yul\":7868:7870   */\n      0x20\n        /* \"#utility.yul\":7857:7866   */\n      dup3\n        /* \"#utility.yul\":7853:7871   */\n      add\n        /* \"#utility.yul\":7845:7871   */\n      swap1\n      pop\n        /* \"#utility.yul\":7917:7926   */\n      dup2\n        /* \"#utility.yul\":7911:7915   */\n      dup2\n        /* \"#utility.yul\":7907:7927   */\n      sub\n        /* \"#utility.yul\":7903:7904   */\n      0x00\n        /* \"#utility.yul\":7892:7901   */\n      dup4\n        /* \"#utility.yul\":7888:7905   */\n      add\n        /* \"#utility.yul\":7881:7928   */\n      mstore\n        /* \"#utility.yul\":7945:8041   */\n      tag_203\n        /* \"#utility.yul\":8036:8040   */\n      dup2\n        /* \"#utility.yul\":8027:8033   */\n      dup5\n        /* \"#utility.yul\":7945:8041   */\n      tag_184\n      jump\t// in\n    tag_203:\n        /* \"#utility.yul\":7937:8041   */\n      swap1\n      pop\n        /* \"#utility.yul\":7699:8048   */\n      swap3\n      swap2\n      pop\n      pop\n      jump\t// out\n        /* \"#utility.yul\":8054:8183   */\n    tag_124:\n        /* \"#utility.yul\":8088:8094   */\n      0x00\n        /* \"#utility.yul\":8115:8135   */\n      tag_205\n      tag_206\n      jump\t// in\n    tag_205:\n        /* \"#utility.yul\":8105:8135   */\n      swap1\n      pop\n        /* \"#utility.yul\":8144:8177   */\n      tag_207\n        /* \"#utility.yul\":8172:8176   */\n      dup3\n        /* \"#utility.yul\":8164:8170   */\n      dup3\n        /* \"#utility.yul\":8144:8177   */\n      tag_208\n      jump\t// in\n    tag_207:\n        /* \"#utility.yul\":8054:8183   */\n      swap2\n      swap1\n      pop\n      jump\t// out\n        /* \"#utility.yul\":8189:8264   */\n    tag_206:\n        /* \"#utility.yul\":8222:8228   */\n      0x00\n        /* \"#utility.yul\":8255:8257   */\n      0x40\n        /* \"#utility.yul\":8249:8258   */\n      mload\n        /* \"#utility.yul\":8239:8258   */\n      swap1\n      pop\n        /* \"#utility.yul\":8189:8264   */\n      swap1\n      jump\t// out\n        /* \"#utility.yul\":8270:8578   */\n    tag_123:\n        /* \"#utility.yul\":8332:8336   */\n      0x00\n        /* \"#utility.yul\":8422:8440   */\n      0xffffffffffffffff\n        /* \"#utility.yul\":8414:8420   */\n      dup3\n        /* \"#utility.yul\":8411:8441   */\n      gt\n        /* \"#utility.yul\":8408:8464   */\n      iszero\n      tag_211\n      jumpi\n        /* \"#utility.yul\":8444:8462   */\n      tag_212\n      tag_213\n      jump\t// in\n    tag_212:\n        /* \"#utility.yul\":8408:8464   */\n    tag_211:\n        /* \"#utility.yul\":8482:8511   */\n      tag_214\n        /* \"#utility.yul\":8504:8510   */\n      dup3\n        /* \"#utility.yul\":8482:8511   */\n      tag_176\n      jump\t// in\n    tag_214:\n        /* \"#utility.yul\":8474:8511   */\n      swap1\n      pop\n        /* \"#utility.yul\":8566:8570   */\n      0x20\n        /* \"#utility.yul\":8560:8564   */\n      dup2\n        /* \"#utility.yul\":8556:8571   */\n      add\n        /* \"#utility.yul\":8548:8571   */\n      swap1\n      pop\n        /* \"#utility.yul\":8270:8578   */\n      swap2\n      swap1\n      pop\n      jump\t// out\n        /* \"#utility.yul\":8584:8683   */\n    tag_170:\n        /* \"#utility.yul\":8636:8642   */\n      0x00\n        /* \"#utility.yul\":8670:8675   */\n      dup2\n        /* \"#utility.yul\":8664:8676   */\n      mload\n        /* \"#utility.yul\":8654:8676   */\n      swap1\n      pop\n        /* \"#utility.yul\":8584:8683   */\n      swap2\n      swap1\n      pop\n      jump\t// out\n        /* \"#utility.yul\":8689:8848   */\n    tag_172:\n        /* \"#utility.yul\":8763:8774   */\n      0x00\n        /* \"#utility.yul\":8797:8803   */\n      dup3\n        /* \"#utility.yul\":8792:8795   */\n      dup3\n        /* \"#utility.yul\":8785:8804   */\n      mstore\n        /* \"#utility.yul\":8837:8841   */\n      0x20\n        /* \"#utility.yul\":8832:8835   */\n      dup3\n        /* \"#utility.yul\":8828:8842   */\n      add\n        /* \"#utility.yul\":8813:8842   */\n      swap1\n      pop\n        /* \"#utility.yul\":8689:8848   */\n      swap3\n      swap2\n      pop\n      pop\n      jump\t// out\n        /* \"#utility.yul\":8854:9023   */\n    tag_181:\n        /* \"#utility.yul\":8938:8949   */\n      0x00\n        /* \"#utility.yul\":8972:8978   */\n      dup3\n        /* \"#utility.yul\":8967:8970   */\n      dup3\n        /* \"#utility.yul\":8960:8979   */\n      mstore\n        /* \"#utility.yul\":9012:9016   */\n      0x20\n        /* \"#utility.yul\":9007:9010   */\n      dup3\n        /* \"#utility.yul\":9003:9017   */\n      add\n        /* \"#utility.yul\":8988:9017   */\n      swap1\n      pop\n        /* \"#utility.yul\":8854:9023   */\n      swap3\n      swap2\n      pop\n      pop\n      jump\t// out\n        /* \"#utility.yul\":9029:9125   */\n    tag_218:\n        /* \"#utility.yul\":9066:9073   */\n      0x00\n        /* \"#utility.yul\":9095:9119   */\n      tag_220\n        /* \"#utility.yul\":9113:9118   */\n      dup3\n        /* \"#utility.yul\":9095:9119   */\n      tag_221\n      jump\t// in\n    tag_220:\n        /* \"#utility.yul\":9084:9119   */\n      swap1\n      pop\n        /* \"#utility.yul\":9029:9125   */\n      swap2\n      swap1\n      pop\n      jump\t// out\n        /* \"#utility.yul\":9131:9257   */\n    tag_221:\n        /* \"#utility.yul\":9168:9175   */\n      0x00\n        /* \"#utility.yul\":9208:9250   */\n      0xffffffffffffffffffffffffffffffffffffffff\n        /* \"#utility.yul\":9201:9206   */\n      dup3\n        /* \"#utility.yul\":9197:9251   */\n      and\n        /* \"#utility.yul\":9186:9251   */\n      swap1\n      pop\n        /* \"#utility.yul\":9131:9257   */\n      swap2\n      swap1\n      pop\n      jump\t// out\n        /* \"#utility.yul\":9263:9417   */\n    tag_129:\n        /* \"#utility.yul\":9347:9353   */\n      dup3\n        /* \"#utility.yul\":9342:9345   */\n      dup2\n        /* \"#utility.yul\":9337:9340   */\n      dup4\n        /* \"#utility.yul\":9324:9354   */\n      calldatacopy\n        /* \"#utility.yul\":9409:9410   */\n      0x00\n        /* \"#utility.yul\":9400:9406   */\n      dup4\n        /* \"#utility.yul\":9395:9398   */\n      dup4\n        /* \"#utility.yul\":9391:9407   */\n      add\n        /* \"#utility.yul\":9384:9411   */\n      mstore\n        /* \"#utility.yul\":9263:9417   */\n      pop\n      pop\n      pop\n      jump\t// out\n        /* \"#utility.yul\":9423:9730   */\n    tag_174:\n        /* \"#utility.yul\":9491:9492   */\n      0x00\n        /* \"#utility.yul\":9501:9614   */\n    tag_225:\n        /* \"#utility.yul\":9515:9521   */\n      dup4\n        /* \"#utility.yul\":9512:9513   */\n      dup2\n        /* \"#utility.yul\":9509:9522   */\n      lt\n        /* \"#utility.yul\":9501:9614   */\n      iszero\n      tag_227\n      jumpi\n        /* \"#utility.yul\":9600:9601   */\n      dup1\n        /* \"#utility.yul\":9595:9598   */\n      dup3\n        /* \"#utility.yul\":9591:9602   */\n      add\n        /* \"#utility.yul\":9585:9603   */\n      mload\n        /* \"#utility.yul\":9581:9582   */\n      dup2\n        /* \"#utility.yul\":9576:9579   */\n      dup5\n        /* \"#utility.yul\":9572:9583   */\n      add\n        /* \"#utility.yul\":9565:9604   */\n      mstore\n        /* \"#utility.yul\":9537:9539   */\n      0x20\n        /* \"#utility.yul\":9534:9535   */\n      dup2\n        /* \"#utility.yul\":9530:9540   */\n      add\n        /* \"#utility.yul\":9525:9540   */\n      swap1\n      pop\n        /* \"#utility.yul\":9501:9614   */\n      jump(tag_225)\n    tag_227:\n        /* \"#utility.yul\":9632:9638   */\n      dup4\n        /* \"#utility.yul\":9629:9630   */\n      dup2\n        /* \"#utility.yul\":9626:9639   */\n      gt\n        /* \"#utility.yul\":9623:9724   */\n      iszero\n      tag_228\n      jumpi\n        /* \"#utility.yul\":9712:9713   */\n      0x00\n        /* \"#utility.yul\":9703:9709   */\n      dup5\n        /* \"#utility.yul\":9698:9701   */\n      dup5\n        /* \"#utility.yul\":9694:9710   */\n      add\n        /* \"#utility.yul\":9687:9714   */\n      mstore\n        /* \"#utility.yul\":9623:9724   */\n    tag_228:\n        /* \"#utility.yul\":9472:9730   */\n      pop\n        /* \"#utility.yul\":9423:9730   */\n      pop\n      pop\n      pop\n      jump\t// out\n        /* \"#utility.yul\":9736:10056   */\n    tag_27:\n        /* \"#utility.yul\":9780:9786   */\n      0x00\n        /* \"#utility.yul\":9817:9818   */\n      0x02\n        /* \"#utility.yul\":9811:9815   */\n      dup3\n        /* \"#utility.yul\":9807:9819   */\n      div\n        /* \"#utility.yul\":9797:9819   */\n      swap1\n      pop\n        /* \"#utility.yul\":9864:9865   */\n      0x01\n        /* \"#utility.yul\":9858:9862   */\n      dup3\n        /* \"#utility.yul\":9854:9866   */\n      and\n        /* \"#utility.yul\":9885:9903   */\n      dup1\n        /* \"#utility.yul\":9875:9956   */\n      tag_230\n      jumpi\n        /* \"#utility.yul\":9941:9945   */\n      0x7f\n        /* \"#utility.yul\":9933:9939   */\n      dup3\n        /* \"#utility.yul\":9929:9946   */\n      and\n        /* \"#utility.yul\":9919:9946   */\n      swap2\n      pop\n        /* \"#utility.yul\":9875:9956   */\n    tag_230:\n        /* \"#utility.yul\":10003:10005   */\n      0x20\n        /* \"#utility.yul\":9995:10001   */\n      dup3\n        /* \"#utility.yul\":9992:10006   */\n      lt\n        /* \"#utility.yul\":9972:9990   */\n      dup2\n        /* \"#utility.yul\":9969:10007   */\n      eq\n        /* \"#utility.yul\":9966:10050   */\n      iszero\n      tag_231\n      jumpi\n        /* \"#utility.yul\":10022:10040   */\n      tag_232\n      tag_233\n      jump\t// in\n    tag_232:\n        /* \"#utility.yul\":9966:10050   */\n    tag_231:\n        /* \"#utility.yul\":9787:10056   */\n      pop\n        /* \"#utility.yul\":9736:10056   */\n      swap2\n      swap1\n      pop\n      jump\t// out\n        /* \"#utility.yul\":10062:10343   */\n    tag_208:\n        /* \"#utility.yul\":10145:10172   */\n      tag_235\n        /* \"#utility.yul\":10167:10171   */\n      dup3\n        /* \"#utility.yul\":10145:10172   */\n      tag_176\n      jump\t// in\n    tag_235:\n        /* \"#utility.yul\":10137:10143   */\n      dup2\n        /* \"#utility.yul\":10133:10173   */\n      add\n        /* \"#utility.yul\":10275:10281   */\n      dup2\n        /* \"#utility.yul\":10263:10273   */\n      dup2\n        /* \"#utility.yul\":10260:10282   */\n      lt\n        /* \"#utility.yul\":10239:10257   */\n      0xffffffffffffffff\n        /* \"#utility.yul\":10227:10237   */\n      dup3\n        /* \"#utility.yul\":10224:10258   */\n      gt\n        /* \"#utility.yul\":10221:10283   */\n      or\n        /* \"#utility.yul\":10218:10306   */\n      iszero\n      tag_236\n      jumpi\n        /* \"#utility.yul\":10286:10304   */\n      tag_237\n      tag_213\n      jump\t// in\n    tag_237:\n        /* \"#utility.yul\":10218:10306   */\n    tag_236:\n        /* \"#utility.yul\":10326:10336   */\n      dup1\n        /* \"#utility.yul\":10322:10324   */\n      0x40\n        /* \"#utility.yul\":10315:10337   */\n      mstore\n        /* \"#utility.yul\":10105:10343   */\n      pop\n        /* \"#utility.yul\":10062:10343   */\n      pop\n      pop\n      jump\t// out\n        /* \"#utility.yul\":10349:10529   */\n    tag_233:\n        /* \"#utility.yul\":10397:10474   */\n      0x4e487b7100000000000000000000000000000000000000000000000000000000\n        /* \"#utility.yul\":10394:10395   */\n      0x00\n        /* \"#utility.yul\":10387:10475   */\n      mstore\n        /* \"#utility.yul\":10494:10498   */\n      0x22\n        /* \"#utility.yul\":10491:10492   */\n      0x04\n        /* \"#utility.yul\":10484:10499   */\n      mstore\n        /* \"#utility.yul\":10518:10522   */\n      0x24\n        /* \"#utility.yul\":10515:10516   */\n      0x00\n        /* \"#utility.yul\":10508:10523   */\n      revert\n        /* \"#utility.yul\":10535:10715   */\n    tag_213:\n        /* \"#utility.yul\":10583:10660   */\n      0x4e487b7100000000000000000000000000000000000000000000000000000000\n        /* \"#utility.yul\":10580:10581   */\n      0x00\n        /* \"#utility.yul\":10573:10661   */\n      mstore\n        /* \"#utility.yul\":10680:10684   */\n      0x41\n        /* \"#utility.yul\":10677:10678   */\n      0x04\n        /* \"#utility.yul\":10670:10685   */\n      mstore\n        /* \"#utility.yul\":10704:10708   */\n      0x24\n        /* \"#utility.yul\":10701:10702   */\n      0x00\n        /* \"#utility.yul\":10694:10709   */\n      revert\n        /* \"#utility.yul\":10721:10838   */\n    tag_138:\n        /* \"#utility.yul\":10830:10831   */\n      0x00\n        /* \"#utility.yul\":10827:10828   */\n      dup1\n        /* \"#utility.yul\":10820:10832   */\n      revert\n        /* \"#utility.yul\":10844:10961   */\n    tag_127:\n        /* \"#utility.yul\":10953:10954   */\n      0x00\n        /* \"#utility.yul\":10950:10951   */\n      dup1\n        /* \"#utility.yul\":10943:10955   */\n      revert\n        /* \"#utility.yul\":10967:11084   */\n    tag_150:\n        /* \"#utility.yul\":11076:11077   */\n      0x00\n        /* \"#utility.yul\":11073:11074   */\n      dup1\n        /* \"#utility.yul\":11066:11078   */\n      revert\n        /* \"#utility.yul\":11090:11207   */\n    tag_143:\n        /* \"#utility.yul\":11199:11200   */\n      0x00\n        /* \"#utility.yul\":11196:11197   */\n      dup1\n        /* \"#utility.yul\":11189:11201   */\n      revert\n        /* \"#utility.yul\":11213:11315   */\n    tag_176:\n        /* \"#utility.yul\":11254:11260   */\n      0x00\n        /* \"#utility.yul\":11305:11307   */\n      0x1f\n        /* \"#utility.yul\":11301:11308   */\n      not\n        /* \"#utility.yul\":11296:11298   */\n      0x1f\n        /* \"#utility.yul\":11289:11294   */\n      dup4\n        /* \"#utility.yul\":11285:11299   */\n      add\n        /* \"#utility.yul\":11281:11309   */\n      and\n        /* \"#utility.yul\":11271:11309   */\n      swap1\n      pop\n        /* \"#utility.yul\":11213:11315   */\n      swap2\n      swap1\n      pop\n      jump\t// out\n        /* \"#utility.yul\":11321:11443   */\n    tag_133:\n        /* \"#utility.yul\":11394:11418   */\n      tag_246\n        /* \"#utility.yul\":11412:11417   */\n      dup2\n        /* \"#utility.yul\":11394:11418   */\n      tag_218\n      jump\t// in\n    tag_246:\n        /* \"#utility.yul\":11387:11392   */\n      dup2\n        /* \"#utility.yul\":11384:11419   */\n      eq\n        /* \"#utility.yul\":11374:11437   */\n      tag_247\n      jumpi\n        /* \"#utility.yul\":11433:11434   */\n      0x00\n        /* \"#utility.yul\":11430:11431   */\n      dup1\n        /* \"#utility.yul\":11423:11435   */\n      revert\n        /* \"#utility.yul\":11374:11437   */\n    tag_247:\n        /* \"#utility.yul\":11321:11443   */\n      pop\n      jump\t// out\n\n    auxdata: 0xa2646970667358221220981fc4120585f8cb6e1634315f21cff3a6d876dd564e7455bfdb06e32bab4bc764736f6c63430008070033\n}\n",
				"bytecode": {
					"linkReferences": {},
					"object": "608060405234801561001057600080fd5b5061124b806100206000396000f3fe608060405234801561001057600080fd5b506004361061004c5760003560e01c80633706461414610051578063721041af146100825780639dd9d0fd1461009e578063fa165e8f146100d3575b600080fd5b61006b60048036038101906100669190610cbd565b6100f1565b604051610079929190610f3d565b60405180910390f35b61009c60048036038101906100979190610cea565b610225565b005b6100b860048036038101906100b39190610cbd565b610431565b6040516100ca96959493929190610f74565b60405180910390f35b6100db61079d565b6040516100e89190610fff565b60405180910390f35b600160205280600052604060002060009150905080600001805461011490611118565b80601f016020809104026020016040519081016040528092919081815260200182805461014090611118565b801561018d5780601f106101625761010080835404028352916020019161018d565b820191906000526020600020905b81548152906001019060200180831161017057829003601f168201915b5050505050908060010180546101a290611118565b80601f01602080910402602001604051908101604052809291908181526020018280546101ce90611118565b801561021b5780601f106101f05761010080835404028352916020019161021b565b820191906000526020600020905b8154815290600101906020018083116101fe57829003601f168201915b5050505050905082565b856000803373ffffffffffffffffffffffffffffffffffffffff1673ffffffffffffffffffffffffffffffffffffffff168152602001908152602001600020600001908051906020019061027a929190610b5f565b50846000803373ffffffffffffffffffffffffffffffffffffffff1673ffffffffffffffffffffffffffffffffffffffff16815260200190815260200160002060010190805190602001906102d0929190610b5f565b50836000803373ffffffffffffffffffffffffffffffffffffffff1673ffffffffffffffffffffffffffffffffffffffff1681526020019081526020016000206002019080519060200190610326929190610b5f565b50826000803373ffffffffffffffffffffffffffffffffffffffff1673ffffffffffffffffffffffffffffffffffffffff168152602001908152602001600020600301908051906020019061037c929190610b5f565b50816000803373ffffffffffffffffffffffffffffffffffffffff1673ffffffffffffffffffffffffffffffffffffffff16815260200190815260200160002060040190805190602001906103d2929190610b5f565b50806000803373ffffffffffffffffffffffffffffffffffffffff1673ffffffffffffffffffffffffffffffffffffffff1681526020019081526020016000206005019080519060200190610428929190610b5f565b50505050505050565b600060205280600052604060002060009150905080600001805461045490611118565b80601f016020809104026020016040519081016040528092919081815260200182805461048090611118565b80156104cd5780601f106104a2576101008083540402835291602001916104cd565b820191906000526020600020905b8154815290600101906020018083116104b057829003601f168201915b5050505050908060010180546104e290611118565b80601f016020809104026020016040519081016040528092919081815260200182805461050e90611118565b801561055b5780601f106105305761010080835404028352916020019161055b565b820191906000526020600020905b81548152906001019060200180831161053e57829003601f168201915b50505050509080600201805461057090611118565b80601f016020809104026020016040519081016040528092919081815260200182805461059c90611118565b80156105e95780601f106105be576101008083540402835291602001916105e9565b820191906000526020600020905b8154815290600101906020018083116105cc57829003601f168201915b5050505050908060030180546105fe90611118565b80601f016020809104026020016040519081016040528092919081815260200182805461062a90611118565b80156106775780601f1061064c57610100808354040283529160200191610677565b820191906000526020600020905b81548152906001019060200180831161065a57829003601f168201915b50505050509080600401805461068c90611118565b80601f01602080910402602001604051908101604052809291908181526020018280546106b890611118565b80156107055780601f106106da57610100808354040283529160200191610705565b820191906000526020600020905b8154815290600101906020018083116106e857829003601f168201915b50505050509080600501805461071a90611118565b80601f016020809104026020016040519081016040528092919081815260200182805461074690611118565b80156107935780601f1061076857610100808354040283529160200191610793565b820191906000526020600020905b81548152906001019060200180831161077657829003601f168201915b5050505050905086565b6107a5610be5565b6000803373ffffffffffffffffffffffffffffffffffffffff1673ffffffffffffffffffffffffffffffffffffffff1681526020019081526020016000206040518060c00160405290816000820180546107fe90611118565b80601f016020809104026020016040519081016040528092919081815260200182805461082a90611118565b80156108775780601f1061084c57610100808354040283529160200191610877565b820191906000526020600020905b81548152906001019060200180831161085a57829003601f168201915b5050505050815260200160018201805461089090611118565b80601f01602080910402602001604051908101604052809291908181526020018280546108bc90611118565b80156109095780601f106108de57610100808354040283529160200191610909565b820191906000526020600020905b8154815290600101906020018083116108ec57829003601f168201915b5050505050815260200160028201805461092290611118565b80601f016020809104026020016040519081016040528092919081815260200182805461094e90611118565b801561099b5780601f106109705761010080835404028352916020019161099b565b820191906000526020600020905b81548152906001019060200180831161097e57829003601f168201915b505050505081526020016003820180546109b490611118565b80601f01602080910402602001604051908101604052809291908181526020018280546109e090611118565b8015610a2d5780601f10610a0257610100808354040283529160200191610a2d565b820191906000526020600020905b815481529060010190602001808311610a1057829003601f168201915b50505050508152602001600482018054610a4690611118565b80601f0160208091040260200160405190810160405280929190818152602001828054610a7290611118565b8015610abf5780601f10610a9457610100808354040283529160200191610abf565b820191906000526020600020905b815481529060010190602001808311610aa257829003601f168201915b50505050508152602001600582018054610ad890611118565b80601f0160208091040260200160405190810160405280929190818152602001828054610b0490611118565b8015610b515780601f10610b2657610100808354040283529160200191610b51565b820191906000526020600020905b815481529060010190602001808311610b3457829003601f168201915b505050505081525050905090565b828054610b6b90611118565b90600052602060002090601f016020900481019282610b8d5760008555610bd4565b82601f10610ba657805160ff1916838001178555610bd4565b82800160010185558215610bd4579182015b82811115610bd3578251825591602001919060010190610bb8565b5b509050610be19190610c1b565b5090565b6040518060c001604052806060815260200160608152602001606081526020016060815260200160608152602001606081525090565b5b80821115610c34576000816000905550600101610c1c565b5090565b6000610c4b610c4684611046565b611021565b905082815260208101848484011115610c6757610c666111de565b5b610c728482856110d6565b509392505050565b600081359050610c89816111fe565b92915050565b600082601f830112610ca457610ca36111d9565b5b8135610cb4848260208601610c38565b91505092915050565b600060208284031215610cd357610cd26111e8565b5b6000610ce184828501610c7a565b91505092915050565b60008060008060008060c08789031215610d0757610d066111e8565b5b600087013567ffffffffffffffff811115610d2557610d246111e3565b5b610d3189828a01610c8f565b965050602087013567ffffffffffffffff811115610d5257610d516111e3565b5b610d5e89828a01610c8f565b955050604087013567ffffffffffffffff811115610d7f57610d7e6111e3565b5b610d8b89828a01610c8f565b945050606087013567ffffffffffffffff811115610dac57610dab6111e3565b5b610db889828a01610c8f565b935050608087013567ffffffffffffffff811115610dd957610dd86111e3565b5b610de589828a01610c8f565b92505060a087013567ffffffffffffffff811115610e0657610e056111e3565b5b610e1289828a01610c8f565b9150509295509295509295565b6000610e2a82611077565b610e348185611082565b9350610e448185602086016110e5565b610e4d816111ed565b840191505092915050565b6000610e6382611077565b610e6d8185611093565b9350610e7d8185602086016110e5565b610e86816111ed565b840191505092915050565b600060c0830160008301518482036000860152610eae8282610e1f565b91505060208301518482036020860152610ec88282610e1f565b91505060408301518482036040860152610ee28282610e1f565b91505060608301518482036060860152610efc8282610e1f565b91505060808301518482036080860152610f168282610e1f565b91505060a083015184820360a0860152610f308282610e1f565b9150508091505092915050565b60006040820190508181036000830152610f578185610e58565b90508181036020830152610f6b8184610e58565b90509392505050565b600060c0820190508181036000830152610f8e8189610e58565b90508181036020830152610fa28188610e58565b90508181036040830152610fb68187610e58565b90508181036060830152610fca8186610e58565b90508181036080830152610fde8185610e58565b905081810360a0830152610ff28184610e58565b9050979650505050505050565b600060208201905081810360008301526110198184610e91565b905092915050565b600061102b61103c565b9050611037828261114a565b919050565b6000604051905090565b600067ffffffffffffffff821115611061576110606111aa565b5b61106a826111ed565b9050602081019050919050565b600081519050919050565b600082825260208201905092915050565b600082825260208201905092915050565b60006110af826110b6565b9050919050565b600073ffffffffffffffffffffffffffffffffffffffff82169050919050565b82818337600083830152505050565b60005b838110156111035780820151818401526020810190506110e8565b83811115611112576000848401525b50505050565b6000600282049050600182168061113057607f821691505b602082108114156111445761114361117b565b5b50919050565b611153826111ed565b810181811067ffffffffffffffff82111715611172576111716111aa565b5b80604052505050565b7f4e487b7100000000000000000000000000000000000000000000000000000000600052602260045260246000fd5b7f4e487b7100000000000000000000000000000000000000000000000000000000600052604160045260246000fd5b600080fd5b600080fd5b600080fd5b600080fd5b6000601f19601f8301169050919050565b611207816110a4565b811461121257600080fd5b5056fea2646970667358221220981fc4120585f8cb6e1634315f21cff3a6d876dd564e7455bfdb06e32bab4bc764736f6c63430008070033",
					"opcodes": "PUSH1 0x80 PUSH1 0x40 MSTORE CALLVALUE DUP1 ISZERO PUSH2 0x10 JUMPI PUSH1 0x0 DUP1 REVERT JUMPDEST POP PUSH2 0x124B DUP1 PUSH2 0x20 PUSH1 0x0 CODECOPY PUSH1 0x0 RETURN INVALID PUSH1 0x80 PUSH1 0x40 MSTORE CALLVALUE DUP1 ISZERO PUSH2 0x10 JUMPI PUSH1 0x0 DUP1 REVERT JUMPDEST POP PUSH1 0x4 CALLDATASIZE LT PUSH2 0x4C JUMPI PUSH1 0x0 CALLDATALOAD PUSH1 0xE0 SHR DUP1 PUSH4 0x37064614 EQ PUSH2 0x51 JUMPI DUP1 PUSH4 0x721041AF EQ PUSH2 0x82 JUMPI DUP1 PUSH4 0x9DD9D0FD EQ PUSH2 0x9E JUMPI DUP1 PUSH4 0xFA165E8F EQ PUSH2 0xD3 JUMPI JUMPDEST PUSH1 0x0 DUP1 REVERT JUMPDEST PUSH2 0x6B PUSH1 0x4 DUP1 CALLDATASIZE SUB DUP2 ADD SWAP1 PUSH2 0x66 SWAP2 SWAP1 PUSH2 0xCBD JUMP JUMPDEST PUSH2 0xF1 JUMP JUMPDEST PUSH1 0x40 MLOAD PUSH2 0x79 SWAP3 SWAP2 SWAP1 PUSH2 0xF3D JUMP JUMPDEST PUSH1 0x40 MLOAD DUP1 SWAP2 SUB SWAP1 RETURN JUMPDEST PUSH2 0x9C PUSH1 0x4 DUP1 CALLDATASIZE SUB DUP2 ADD SWAP1 PUSH2 0x97 SWAP2 SWAP1 PUSH2 0xCEA JUMP JUMPDEST PUSH2 0x225 JUMP JUMPDEST STOP JUMPDEST PUSH2 0xB8 PUSH1 0x4 DUP1 CALLDATASIZE SUB DUP2 ADD SWAP1 PUSH2 0xB3 SWAP2 SWAP1 PUSH2 0xCBD JUMP JUMPDEST PUSH2 0x431 JUMP JUMPDEST PUSH1 0x40 MLOAD PUSH2 0xCA SWAP7 SWAP6 SWAP5 SWAP4 SWAP3 SWAP2 SWAP1 PUSH2 0xF74 JUMP JUMPDEST PUSH1 0x40 MLOAD DUP1 SWAP2 SUB SWAP1 RETURN JUMPDEST PUSH2 0xDB PUSH2 0x79D JUMP JUMPDEST PUSH1 0x40 MLOAD PUSH2 0xE8 SWAP2 SWAP1 PUSH2 0xFFF JUMP JUMPDEST PUSH1 0x40 MLOAD DUP1 SWAP2 SUB SWAP1 RETURN JUMPDEST PUSH1 0x1 PUSH1 0x20 MSTORE DUP1 PUSH1 0x0 MSTORE PUSH1 0x40 PUSH1 0x0 KECCAK256 PUSH1 0x0 SWAP2 POP SWAP1 POP DUP1 PUSH1 0x0 ADD DUP1 SLOAD PUSH2 0x114 SWAP1 PUSH2 0x1118 JUMP JUMPDEST DUP1 PUSH1 0x1F ADD PUSH1 0x20 DUP1 SWAP2 DIV MUL PUSH1 0x20 ADD PUSH1 0x40 MLOAD SWAP1 DUP2 ADD PUSH1 0x40 MSTORE DUP1 SWAP3 SWAP2 SWAP1 DUP2 DUP2 MSTORE PUSH1 0x20 ADD DUP3 DUP1 SLOAD PUSH2 0x140 SWAP1 PUSH2 0x1118 JUMP JUMPDEST DUP1 ISZERO PUSH2 0x18D JUMPI DUP1 PUSH1 0x1F LT PUSH2 0x162 JUMPI PUSH2 0x100 DUP1 DUP4 SLOAD DIV MUL DUP4 MSTORE SWAP2 PUSH1 0x20 ADD SWAP2 PUSH2 0x18D JUMP JUMPDEST DUP3 ADD SWAP2 SWAP1 PUSH1 0x0 MSTORE PUSH1 0x20 PUSH1 0x0 KECCAK256 SWAP1 JUMPDEST DUP2 SLOAD DUP2 MSTORE SWAP1 PUSH1 0x1 ADD SWAP1 PUSH1 0x20 ADD DUP1 DUP4 GT PUSH2 0x170 JUMPI DUP3 SWAP1 SUB PUSH1 0x1F AND DUP3 ADD SWAP2 JUMPDEST POP POP POP POP POP SWAP1 DUP1 PUSH1 0x1 ADD DUP1 SLOAD PUSH2 0x1A2 SWAP1 PUSH2 0x1118 JUMP JUMPDEST DUP1 PUSH1 0x1F ADD PUSH1 0x20 DUP1 SWAP2 DIV MUL PUSH1 0x20 ADD PUSH1 0x40 MLOAD SWAP1 DUP2 ADD PUSH1 0x40 MSTORE DUP1 SWAP3 SWAP2 SWAP1 DUP2 DUP2 MSTORE PUSH1 0x20 ADD DUP3 DUP1 SLOAD PUSH2 0x1CE SWAP1 PUSH2 0x1118 JUMP JUMPDEST DUP1 ISZERO PUSH2 0x21B JUMPI DUP1 PUSH1 0x1F LT PUSH2 0x1F0 JUMPI PUSH2 0x100 DUP1 DUP4 SLOAD DIV MUL DUP4 MSTORE SWAP2 PUSH1 0x20 ADD SWAP2 PUSH2 0x21B JUMP JUMPDEST DUP3 ADD SWAP2 SWAP1 PUSH1 0x0 MSTORE PUSH1 0x20 PUSH1 0x0 KECCAK256 SWAP1 JUMPDEST DUP2 SLOAD DUP2 MSTORE SWAP1 PUSH1 0x1 ADD SWAP1 PUSH1 0x20 ADD DUP1 DUP4 GT PUSH2 0x1FE JUMPI DUP3 SWAP1 SUB PUSH1 0x1F AND DUP3 ADD SWAP2 JUMPDEST POP POP POP POP POP SWAP1 POP DUP3 JUMP JUMPDEST DUP6 PUSH1 0x0 DUP1 CALLER PUSH20 0xFFFFFFFFFFFFFFFFFFFFFFFFFFFFFFFFFFFFFFFF AND PUSH20 0xFFFFFFFFFFFFFFFFFFFFFFFFFFFFFFFFFFFFFFFF AND DUP2 MSTORE PUSH1 0x20 ADD SWAP1 DUP2 MSTORE PUSH1 0x20 ADD PUSH1 0x0 KECCAK256 PUSH1 0x0 ADD SWAP1 DUP1 MLOAD SWAP1 PUSH1 0x20 ADD SWAP1 PUSH2 0x27A SWAP3 SWAP2 SWAP1 PUSH2 0xB5F JUMP JUMPDEST POP DUP5 PUSH1 0x0 DUP1 CALLER PUSH20 0xFFFFFFFFFFFFFFFFFFFFFFFFFFFFFFFFFFFFFFFF AND PUSH20 0xFFFFFFFFFFFFFFFFFFFFFFFFFFFFFFFFFFFFFFFF AND DUP2 MSTORE PUSH1 0x20 ADD SWAP1 DUP2 MSTORE PUSH1 0x20 ADD PUSH1 0x0 KECCAK256 PUSH1 0x1 ADD SWAP1 DUP1 MLOAD SWAP1 PUSH1 0x20 ADD SWAP1 PUSH2 0x2D0 SWAP3 SWAP2 SWAP1 PUSH2 0xB5F JUMP JUMPDEST POP DUP4 PUSH1 0x0 DUP1 CALLER PUSH20 0xFFFFFFFFFFFFFFFFFFFFFFFFFFFFFFFFFFFFFFFF AND PUSH20 0xFFFFFFFFFFFFFFFFFFFFFFFFFFFFFFFFFFFFFFFF AND DUP2 MSTORE PUSH1 0x20 ADD SWAP1 DUP2 MSTORE PUSH1 0x20 ADD PUSH1 0x0 KECCAK256 PUSH1 0x2 ADD SWAP1 DUP1 MLOAD SWAP1 PUSH1 0x20 ADD SWAP1 PUSH2 0x326 SWAP3 SWAP2 SWAP1 PUSH2 0xB5F JUMP JUMPDEST POP DUP3 PUSH1 0x0 DUP1 CALLER PUSH20 0xFFFFFFFFFFFFFFFFFFFFFFFFFFFFFFFFFFFFFFFF AND PUSH20 0xFFFFFFFFFFFFFFFFFFFFFFFFFFFFFFFFFFFFFFFF AND DUP2 MSTORE PUSH1 0x20 ADD SWAP1 DUP2 MSTORE PUSH1 0x20 ADD PUSH1 0x0 KECCAK256 PUSH1 0x3 ADD SWAP1 DUP1 MLOAD SWAP1 PUSH1 0x20 ADD SWAP1 PUSH2 0x37C SWAP3 SWAP2 SWAP1 PUSH2 0xB5F JUMP JUMPDEST POP DUP2 PUSH1 0x0 DUP1 CALLER PUSH20 0xFFFFFFFFFFFFFFFFFFFFFFFFFFFFFFFFFFFFFFFF AND PUSH20 0xFFFFFFFFFFFFFFFFFFFFFFFFFFFFFFFFFFFFFFFF AND DUP2 MSTORE PUSH1 0x20 ADD SWAP1 DUP2 MSTORE PUSH1 0x20 ADD PUSH1 0x0 KECCAK256 PUSH1 0x4 ADD SWAP1 DUP1 MLOAD SWAP1 PUSH1 0x20 ADD SWAP1 PUSH2 0x3D2 SWAP3 SWAP2 SWAP1 PUSH2 0xB5F JUMP JUMPDEST POP DUP1 PUSH1 0x0 DUP1 CALLER PUSH20 0xFFFFFFFFFFFFFFFFFFFFFFFFFFFFFFFFFFFFFFFF AND PUSH20 0xFFFFFFFFFFFFFFFFFFFFFFFFFFFFFFFFFFFFFFFF AND DUP2 MSTORE PUSH1 0x20 ADD SWAP1 DUP2 MSTORE PUSH1 0x20 ADD PUSH1 0x0 KECCAK256 PUSH1 0x5 ADD SWAP1 DUP1 MLOAD SWAP1 PUSH1 0x20 ADD SWAP1 PUSH2 0x428 SWAP3 SWAP2 SWAP1 PUSH2 0xB5F JUMP JUMPDEST POP POP POP POP POP POP POP JUMP JUMPDEST PUSH1 0x0 PUSH1 0x20 MSTORE DUP1 PUSH1 0x0 MSTORE PUSH1 0x40 PUSH1 0x0 KECCAK256 PUSH1 0x0 SWAP2 POP SWAP1 POP DUP1 PUSH1 0x0 ADD DUP1 SLOAD PUSH2 0x454 SWAP1 PUSH2 0x1118 JUMP JUMPDEST DUP1 PUSH1 0x1F ADD PUSH1 0x20 DUP1 SWAP2 DIV MUL PUSH1 0x20 ADD PUSH1 0x40 MLOAD SWAP1 DUP2 ADD PUSH1 0x40 MSTORE DUP1 SWAP3 SWAP2 SWAP1 DUP2 DUP2 MSTORE PUSH1 0x20 ADD DUP3 DUP1 SLOAD PUSH2 0x480 SWAP1 PUSH2 0x1118 JUMP JUMPDEST DUP1 ISZERO PUSH2 0x4CD JUMPI DUP1 PUSH1 0x1F LT PUSH2 0x4A2 JUMPI PUSH2 0x100 DUP1 DUP4 SLOAD DIV MUL DUP4 MSTORE SWAP2 PUSH1 0x20 ADD SWAP2 PUSH2 0x4CD JUMP JUMPDEST DUP3 ADD SWAP2 SWAP1 PUSH1 0x0 MSTORE PUSH1 0x20 PUSH1 0x0 KECCAK256 SWAP1 JUMPDEST DUP2 SLOAD DUP2 MSTORE SWAP1 PUSH1 0x1 ADD SWAP1 PUSH1 0x20 ADD DUP1 DUP4 GT PUSH2 0x4B0 JUMPI DUP3 SWAP1 SUB PUSH1 0x1F AND DUP3 ADD SWAP2 JUMPDEST POP POP POP POP POP SWAP1 DUP1 PUSH1 0x1 ADD DUP1 SLOAD PUSH2 0x4E2 SWAP1 PUSH2 0x1118 JUMP JUMPDEST DUP1 PUSH1 0x1F ADD PUSH1 0x20 DUP1 SWAP2 DIV MUL PUSH1 0x20 ADD PUSH1 0x40 MLOAD SWAP1 DUP2 ADD PUSH1 0x40 MSTORE DUP1 SWAP3 SWAP2 SWAP1 DUP2 DUP2 MSTORE PUSH1 0x20 ADD DUP3 DUP1 SLOAD PUSH2 0x50E SWAP1 PUSH2 0x1118 JUMP JUMPDEST DUP1 ISZERO PUSH2 0x55B JUMPI DUP1 PUSH1 0x1F LT PUSH2 0x530 JUMPI PUSH2 0x100 DUP1 DUP4 SLOAD DIV MUL DUP4 MSTORE SWAP2 PUSH1 0x20 ADD SWAP2 PUSH2 0x55B JUMP JUMPDEST DUP3 ADD SWAP2 SWAP1 PUSH1 0x0 MSTORE PUSH1 0x20 PUSH1 0x0 KECCAK256 SWAP1 JUMPDEST DUP2 SLOAD DUP2 MSTORE SWAP1 PUSH1 0x1 ADD SWAP1 PUSH1 0x20 ADD DUP1 DUP4 GT PUSH2 0x53E JUMPI DUP3 SWAP1 SUB PUSH1 0x1F AND DUP3 ADD SWAP2 JUMPDEST POP POP POP POP POP SWAP1 DUP1 PUSH1 0x2 ADD DUP1 SLOAD PUSH2 0x570 SWAP1 PUSH2 0x1118 JUMP JUMPDEST DUP1 PUSH1 0x1F ADD PUSH1 0x20 DUP1 SWAP2 DIV MUL PUSH1 0x20 ADD PUSH1 0x40 MLOAD SWAP1 DUP2 ADD PUSH1 0x40 MSTORE DUP1 SWAP3 SWAP2 SWAP1 DUP2 DUP2 MSTORE PUSH1 0x20 ADD DUP3 DUP1 SLOAD PUSH2 0x59C SWAP1 PUSH2 0x1118 JUMP JUMPDEST DUP1 ISZERO PUSH2 0x5E9 JUMPI DUP1 PUSH1 0x1F LT PUSH2 0x5BE JUMPI PUSH2 0x100 DUP1 DUP4 SLOAD DIV MUL DUP4 MSTORE SWAP2 PUSH1 0x20 ADD SWAP2 PUSH2 0x5E9 JUMP JUMPDEST DUP3 ADD SWAP2 SWAP1 PUSH1 0x0 MSTORE PUSH1 0x20 PUSH1 0x0 KECCAK256 SWAP1 JUMPDEST DUP2 SLOAD DUP2 MSTORE SWAP1 PUSH1 0x1 ADD SWAP1 PUSH1 0x20 ADD DUP1 DUP4 GT PUSH2 0x5CC JUMPI DUP3 SWAP1 SUB PUSH1 0x1F AND DUP3 ADD SWAP2 JUMPDEST POP POP POP POP POP SWAP1 DUP1 PUSH1 0x3 ADD DUP1 SLOAD PUSH2 0x5FE SWAP1 PUSH2 0x1118 JUMP JUMPDEST DUP1 PUSH1 0x1F ADD PUSH1 0x20 DUP1 SWAP2 DIV MUL PUSH1 0x20 ADD PUSH1 0x40 MLOAD SWAP1 DUP2 ADD PUSH1 0x40 MSTORE DUP1 SWAP3 SWAP2 SWAP1 DUP2 DUP2 MSTORE PUSH1 0x20 ADD DUP3 DUP1 SLOAD PUSH2 0x62A SWAP1 PUSH2 0x1118 JUMP JUMPDEST DUP1 ISZERO PUSH2 0x677 JUMPI DUP1 PUSH1 0x1F LT PUSH2 0x64C JUMPI PUSH2 0x100 DUP1 DUP4 SLOAD DIV MUL DUP4 MSTORE SWAP2 PUSH1 0x20 ADD SWAP2 PUSH2 0x677 JUMP JUMPDEST DUP3 ADD SWAP2 SWAP1 PUSH1 0x0 MSTORE PUSH1 0x20 PUSH1 0x0 KECCAK256 SWAP1 JUMPDEST DUP2 SLOAD DUP2 MSTORE SWAP1 PUSH1 0x1 ADD SWAP1 PUSH1 0x20 ADD DUP1 DUP4 GT PUSH2 0x65A JUMPI DUP3 SWAP1 SUB PUSH1 0x1F AND DUP3 ADD SWAP2 JUMPDEST POP POP POP POP POP SWAP1 DUP1 PUSH1 0x4 ADD DUP1 SLOAD PUSH2 0x68C SWAP1 PUSH2 0x1118 JUMP JUMPDEST DUP1 PUSH1 0x1F ADD PUSH1 0x20 DUP1 SWAP2 DIV MUL PUSH1 0x20 ADD PUSH1 0x40 MLOAD SWAP1 DUP2 ADD PUSH1 0x40 MSTORE DUP1 SWAP3 SWAP2 SWAP1 DUP2 DUP2 MSTORE PUSH1 0x20 ADD DUP3 DUP1 SLOAD PUSH2 0x6B8 SWAP1 PUSH2 0x1118 JUMP JUMPDEST DUP1 ISZERO PUSH2 0x705 JUMPI DUP1 PUSH1 0x1F LT PUSH2 0x6DA JUMPI PUSH2 0x100 DUP1 DUP4 SLOAD DIV MUL DUP4 MSTORE SWAP2 PUSH1 0x20 ADD SWAP2 PUSH2 0x705 JUMP JUMPDEST DUP3 ADD SWAP2 SWAP1 PUSH1 0x0 MSTORE PUSH1 0x20 PUSH1 0x0 KECCAK256 SWAP1 JUMPDEST DUP2 SLOAD DUP2 MSTORE SWAP1 PUSH1 0x1 ADD SWAP1 PUSH1 0x20 ADD DUP1 DUP4 GT PUSH2 0x6E8 JUMPI DUP3 SWAP1 SUB PUSH1 0x1F AND DUP3 ADD SWAP2 JUMPDEST POP POP POP POP POP SWAP1 DUP1 PUSH1 0x5 ADD DUP1 SLOAD PUSH2 0x71A SWAP1 PUSH2 0x1118 JUMP JUMPDEST DUP1 PUSH1 0x1F ADD PUSH1 0x20 DUP1 SWAP2 DIV MUL PUSH1 0x20 ADD PUSH1 0x40 MLOAD SWAP1 DUP2 ADD PUSH1 0x40 MSTORE DUP1 SWAP3 SWAP2 SWAP1 DUP2 DUP2 MSTORE PUSH1 0x20 ADD DUP3 DUP1 SLOAD PUSH2 0x746 SWAP1 PUSH2 0x1118 JUMP JUMPDEST DUP1 ISZERO PUSH2 0x793 JUMPI DUP1 PUSH1 0x1F LT PUSH2 0x768 JUMPI PUSH2 0x100 DUP1 DUP4 SLOAD DIV MUL DUP4 MSTORE SWAP2 PUSH1 0x20 ADD SWAP2 PUSH2 0x793 JUMP JUMPDEST DUP3 ADD SWAP2 SWAP1 PUSH1 0x0 MSTORE PUSH1 0x20 PUSH1 0x0 KECCAK256 SWAP1 JUMPDEST DUP2 SLOAD DUP2 MSTORE SWAP1 PUSH1 0x1 ADD SWAP1 PUSH1 0x20 ADD DUP1 DUP4 GT PUSH2 0x776 JUMPI DUP3 SWAP1 SUB PUSH1 0x1F AND DUP3 ADD SWAP2 JUMPDEST POP POP POP POP POP SWAP1 POP DUP7 JUMP JUMPDEST PUSH2 0x7A5 PUSH2 0xBE5 JUMP JUMPDEST PUSH1 0x0 DUP1 CALLER PUSH20 0xFFFFFFFFFFFFFFFFFFFFFFFFFFFFFFFFFFFFFFFF AND PUSH20 0xFFFFFFFFFFFFFFFFFFFFFFFFFFFFFFFFFFFFFFFF AND DUP2 MSTORE PUSH1 0x20 ADD SWAP1 DUP2 MSTORE PUSH1 0x20 ADD PUSH1 0x0 KECCAK256 PUSH1 0x40 MLOAD DUP1 PUSH1 0xC0 ADD PUSH1 0x40 MSTORE SWAP1 DUP2 PUSH1 0x0 DUP3 ADD DUP1 SLOAD PUSH2 0x7FE SWAP1 PUSH2 0x1118 JUMP JUMPDEST DUP1 PUSH1 0x1F ADD PUSH1 0x20 DUP1 SWAP2 DIV MUL PUSH1 0x20 ADD PUSH1 0x40 MLOAD SWAP1 DUP2 ADD PUSH1 0x40 MSTORE DUP1 SWAP3 SWAP2 SWAP1 DUP2 DUP2 MSTORE PUSH1 0x20 ADD DUP3 DUP1 SLOAD PUSH2 0x82A SWAP1 PUSH2 0x1118 JUMP JUMPDEST DUP1 ISZERO PUSH2 0x877 JUMPI DUP1 PUSH1 0x1F LT PUSH2 0x84C JUMPI PUSH2 0x100 DUP1 DUP4 SLOAD DIV MUL DUP4 MSTORE SWAP2 PUSH1 0x20 ADD SWAP2 PUSH2 0x877 JUMP JUMPDEST DUP3 ADD SWAP2 SWAP1 PUSH1 0x0 MSTORE PUSH1 0x20 PUSH1 0x0 KECCAK256 SWAP1 JUMPDEST DUP2 SLOAD DUP2 MSTORE SWAP1 PUSH1 0x1 ADD SWAP1 PUSH1 0x20 ADD DUP1 DUP4 GT PUSH2 0x85A JUMPI DUP3 SWAP1 SUB PUSH1 0x1F AND DUP3 ADD SWAP2 JUMPDEST POP POP POP POP POP DUP2 MSTORE PUSH1 0x20 ADD PUSH1 0x1 DUP3 ADD DUP1 SLOAD PUSH2 0x890 SWAP1 PUSH2 0x1118 JUMP JUMPDEST DUP1 PUSH1 0x1F ADD PUSH1 0x20 DUP1 SWAP2 DIV MUL PUSH1 0x20 ADD PUSH1 0x40 MLOAD SWAP1 DUP2 ADD PUSH1 0x40 MSTORE DUP1 SWAP3 SWAP2 SWAP1 DUP2 DUP2 MSTORE PUSH1 0x20 ADD DUP3 DUP1 SLOAD PUSH2 0x8BC SWAP1 PUSH2 0x1118 JUMP JUMPDEST DUP1 ISZERO PUSH2 0x909 JUMPI DUP1 PUSH1 0x1F LT PUSH2 0x8DE JUMPI PUSH2 0x100 DUP1 DUP4 SLOAD DIV MUL DUP4 MSTORE SWAP2 PUSH1 0x20 ADD SWAP2 PUSH2 0x909 JUMP JUMPDEST DUP3 ADD SWAP2 SWAP1 PUSH1 0x0 MSTORE PUSH1 0x20 PUSH1 0x0 KECCAK256 SWAP1 JUMPDEST DUP2 SLOAD DUP2 MSTORE SWAP1 PUSH1 0x1 ADD SWAP1 PUSH1 0x20 ADD DUP1 DUP4 GT PUSH2 0x8EC JUMPI DUP3 SWAP1 SUB PUSH1 0x1F AND DUP3 ADD SWAP2 JUMPDEST POP POP POP POP POP DUP2 MSTORE PUSH1 0x20 ADD PUSH1 0x2 DUP3 ADD DUP1 SLOAD PUSH2 0x922 SWAP1 PUSH2 0x1118 JUMP JUMPDEST DUP1 PUSH1 0x1F ADD PUSH1 0x20 DUP1 SWAP2 DIV MUL PUSH1 0x20 ADD PUSH1 0x40 MLOAD SWAP1 DUP2 ADD PUSH1 0x40 MSTORE DUP1 SWAP3 SWAP2 SWAP1 DUP2 DUP2 MSTORE PUSH1 0x20 ADD DUP3 DUP1 SLOAD PUSH2 0x94E SWAP1 PUSH2 0x1118 JUMP JUMPDEST DUP1 ISZERO PUSH2 0x99B JUMPI DUP1 PUSH1 0x1F LT PUSH2 0x970 JUMPI PUSH2 0x100 DUP1 DUP4 SLOAD DIV MUL DUP4 MSTORE SWAP2 PUSH1 0x20 ADD SWAP2 PUSH2 0x99B JUMP JUMPDEST DUP3 ADD SWAP2 SWAP1 PUSH1 0x0 MSTORE PUSH1 0x20 PUSH1 0x0 KECCAK256 SWAP1 JUMPDEST DUP2 SLOAD DUP2 MSTORE SWAP1 PUSH1 0x1 ADD SWAP1 PUSH1 0x20 ADD DUP1 DUP4 GT PUSH2 0x97E JUMPI DUP3 SWAP1 SUB PUSH1 0x1F AND DUP3 ADD SWAP2 JUMPDEST POP POP POP POP POP DUP2 MSTORE PUSH1 0x20 ADD PUSH1 0x3 DUP3 ADD DUP1 SLOAD PUSH2 0x9B4 SWAP1 PUSH2 0x1118 JUMP JUMPDEST DUP1 PUSH1 0x1F ADD PUSH1 0x20 DUP1 SWAP2 DIV MUL PUSH1 0x20 ADD PUSH1 0x40 MLOAD SWAP1 DUP2 ADD PUSH1 0x40 MSTORE DUP1 SWAP3 SWAP2 SWAP1 DUP2 DUP2 MSTORE PUSH1 0x20 ADD DUP3 DUP1 SLOAD PUSH2 0x9E0 SWAP1 PUSH2 0x1118 JUMP JUMPDEST DUP1 ISZERO PUSH2 0xA2D JUMPI DUP1 PUSH1 0x1F LT PUSH2 0xA02 JUMPI PUSH2 0x100 DUP1 DUP4 SLOAD DIV MUL DUP4 MSTORE SWAP2 PUSH1 0x20 ADD SWAP2 PUSH2 0xA2D JUMP JUMPDEST DUP3 ADD SWAP2 SWAP1 PUSH1 0x0 MSTORE PUSH1 0x20 PUSH1 0x0 KECCAK256 SWAP1 JUMPDEST DUP2 SLOAD DUP2 MSTORE SWAP1 PUSH1 0x1 ADD SWAP1 PUSH1 0x20 ADD DUP1 DUP4 GT PUSH2 0xA10 JUMPI DUP3 SWAP1 SUB PUSH1 0x1F AND DUP3 ADD SWAP2 JUMPDEST POP POP POP POP POP DUP2 MSTORE PUSH1 0x20 ADD PUSH1 0x4 DUP3 ADD DUP1 SLOAD PUSH2 0xA46 SWAP1 PUSH2 0x1118 JUMP JUMPDEST DUP1 PUSH1 0x1F ADD PUSH1 0x20 DUP1 SWAP2 DIV MUL PUSH1 0x20 ADD PUSH1 0x40 MLOAD SWAP1 DUP2 ADD PUSH1 0x40 MSTORE DUP1 SWAP3 SWAP2 SWAP1 DUP2 DUP2 MSTORE PUSH1 0x20 ADD DUP3 DUP1 SLOAD PUSH2 0xA72 SWAP1 PUSH2 0x1118 JUMP JUMPDEST DUP1 ISZERO PUSH2 0xABF JUMPI DUP1 PUSH1 0x1F LT PUSH2 0xA94 JUMPI PUSH2 0x100 DUP1 DUP4 SLOAD DIV MUL DUP4 MSTORE SWAP2 PUSH1 0x20 ADD SWAP2 PUSH2 0xABF JUMP JUMPDEST DUP3 ADD SWAP2 SWAP1 PUSH1 0x0 MSTORE PUSH1 0x20 PUSH1 0x0 KECCAK256 SWAP1 JUMPDEST DUP2 SLOAD DUP2 MSTORE SWAP1 PUSH1 0x1 ADD SWAP1 PUSH1 0x20 ADD DUP1 DUP4 GT PUSH2 0xAA2 JUMPI DUP3 SWAP1 SUB PUSH1 0x1F AND DUP3 ADD SWAP2 JUMPDEST POP POP POP POP POP DUP2 MSTORE PUSH1 0x20 ADD PUSH1 0x5 DUP3 ADD DUP1 SLOAD PUSH2 0xAD8 SWAP1 PUSH2 0x1118 JUMP JUMPDEST DUP1 PUSH1 0x1F ADD PUSH1 0x20 DUP1 SWAP2 DIV MUL PUSH1 0x20 ADD PUSH1 0x40 MLOAD SWAP1 DUP2 ADD PUSH1 0x40 MSTORE DUP1 SWAP3 SWAP2 SWAP1 DUP2 DUP2 MSTORE PUSH1 0x20 ADD DUP3 DUP1 SLOAD PUSH2 0xB04 SWAP1 PUSH2 0x1118 JUMP JUMPDEST DUP1 ISZERO PUSH2 0xB51 JUMPI DUP1 PUSH1 0x1F LT PUSH2 0xB26 JUMPI PUSH2 0x100 DUP1 DUP4 SLOAD DIV MUL DUP4 MSTORE SWAP2 PUSH1 0x20 ADD SWAP2 PUSH2 0xB51 JUMP JUMPDEST DUP3 ADD SWAP2 SWAP1 PUSH1 0x0 MSTORE PUSH1 0x20 PUSH1 0x0 KECCAK256 SWAP1 JUMPDEST DUP2 SLOAD DUP2 MSTORE SWAP1 PUSH1 0x1 ADD SWAP1 PUSH1 0x20 ADD DUP1 DUP4 GT PUSH2 0xB34 JUMPI DUP3 SWAP1 SUB PUSH1 0x1F AND DUP3 ADD SWAP2 JUMPDEST POP POP POP POP POP DUP2 MSTORE POP POP SWAP1 POP SWAP1 JUMP JUMPDEST DUP3 DUP1 SLOAD PUSH2 0xB6B SWAP1 PUSH2 0x1118 JUMP JUMPDEST SWAP1 PUSH1 0x0 MSTORE PUSH1 0x20 PUSH1 0x0 KECCAK256 SWAP1 PUSH1 0x1F ADD PUSH1 0x20 SWAP1 DIV DUP2 ADD SWAP3 DUP3 PUSH2 0xB8D JUMPI PUSH1 0x0 DUP6 SSTORE PUSH2 0xBD4 JUMP JUMPDEST DUP3 PUSH1 0x1F LT PUSH2 0xBA6 JUMPI DUP1 MLOAD PUSH1 0xFF NOT AND DUP4 DUP1 ADD OR DUP6 SSTORE PUSH2 0xBD4 JUMP JUMPDEST DUP3 DUP1 ADD PUSH1 0x1 ADD DUP6 SSTORE DUP3 ISZERO PUSH2 0xBD4 JUMPI SWAP2 DUP3 ADD JUMPDEST DUP3 DUP2 GT ISZERO PUSH2 0xBD3 JUMPI DUP3 MLOAD DUP3 SSTORE SWAP2 PUSH1 0x20 ADD SWAP2 SWAP1 PUSH1 0x1 ADD SWAP1 PUSH2 0xBB8 JUMP JUMPDEST JUMPDEST POP SWAP1 POP PUSH2 0xBE1 SWAP2 SWAP1 PUSH2 0xC1B JUMP JUMPDEST POP SWAP1 JUMP JUMPDEST PUSH1 0x40 MLOAD DUP1 PUSH1 0xC0 ADD PUSH1 0x40 MSTORE DUP1 PUSH1 0x60 DUP2 MSTORE PUSH1 0x20 ADD PUSH1 0x60 DUP2 MSTORE PUSH1 0x20 ADD PUSH1 0x60 DUP2 MSTORE PUSH1 0x20 ADD PUSH1 0x60 DUP2 MSTORE PUSH1 0x20 ADD PUSH1 0x60 DUP2 MSTORE PUSH1 0x20 ADD PUSH1 0x60 DUP2 MSTORE POP SWAP1 JUMP JUMPDEST JUMPDEST DUP1 DUP3 GT ISZERO PUSH2 0xC34 JUMPI PUSH1 0x0 DUP2 PUSH1 0x0 SWAP1 SSTORE POP PUSH1 0x1 ADD PUSH2 0xC1C JUMP JUMPDEST POP SWAP1 JUMP JUMPDEST PUSH1 0x0 PUSH2 0xC4B PUSH2 0xC46 DUP5 PUSH2 0x1046 JUMP JUMPDEST PUSH2 0x1021 JUMP JUMPDEST SWAP1 POP DUP3 DUP2 MSTORE PUSH1 0x20 DUP2 ADD DUP5 DUP5 DUP5 ADD GT ISZERO PUSH2 0xC67 JUMPI PUSH2 0xC66 PUSH2 0x11DE JUMP JUMPDEST JUMPDEST PUSH2 0xC72 DUP5 DUP3 DUP6 PUSH2 0x10D6 JUMP JUMPDEST POP SWAP4 SWAP3 POP POP POP JUMP JUMPDEST PUSH1 0x0 DUP2 CALLDATALOAD SWAP1 POP PUSH2 0xC89 DUP2 PUSH2 0x11FE JUMP JUMPDEST SWAP3 SWAP2 POP POP JUMP JUMPDEST PUSH1 0x0 DUP3 PUSH1 0x1F DUP4 ADD SLT PUSH2 0xCA4 JUMPI PUSH2 0xCA3 PUSH2 0x11D9 JUMP JUMPDEST JUMPDEST DUP2 CALLDATALOAD PUSH2 0xCB4 DUP5 DUP3 PUSH1 0x20 DUP7 ADD PUSH2 0xC38 JUMP JUMPDEST SWAP2 POP POP SWAP3 SWAP2 POP POP JUMP JUMPDEST PUSH1 0x0 PUSH1 0x20 DUP3 DUP5 SUB SLT ISZERO PUSH2 0xCD3 JUMPI PUSH2 0xCD2 PUSH2 0x11E8 JUMP JUMPDEST JUMPDEST PUSH1 0x0 PUSH2 0xCE1 DUP5 DUP3 DUP6 ADD PUSH2 0xC7A JUMP JUMPDEST SWAP2 POP POP SWAP3 SWAP2 POP POP JUMP JUMPDEST PUSH1 0x0 DUP1 PUSH1 0x0 DUP1 PUSH1 0x0 DUP1 PUSH1 0xC0 DUP8 DUP10 SUB SLT ISZERO PUSH2 0xD07 JUMPI PUSH2 0xD06 PUSH2 0x11E8 JUMP JUMPDEST JUMPDEST PUSH1 0x0 DUP8 ADD CALLDATALOAD PUSH8 0xFFFFFFFFFFFFFFFF DUP2 GT ISZERO PUSH2 0xD25 JUMPI PUSH2 0xD24 PUSH2 0x11E3 JUMP JUMPDEST JUMPDEST PUSH2 0xD31 DUP10 DUP3 DUP11 ADD PUSH2 0xC8F JUMP JUMPDEST SWAP7 POP POP PUSH1 0x20 DUP8 ADD CALLDATALOAD PUSH8 0xFFFFFFFFFFFFFFFF DUP2 GT ISZERO PUSH2 0xD52 JUMPI PUSH2 0xD51 PUSH2 0x11E3 JUMP JUMPDEST JUMPDEST PUSH2 0xD5E DUP10 DUP3 DUP11 ADD PUSH2 0xC8F JUMP JUMPDEST SWAP6 POP POP PUSH1 0x40 DUP8 ADD CALLDATALOAD PUSH8 0xFFFFFFFFFFFFFFFF DUP2 GT ISZERO PUSH2 0xD7F JUMPI PUSH2 0xD7E PUSH2 0x11E3 JUMP JUMPDEST JUMPDEST PUSH2 0xD8B DUP10 DUP3 DUP11 ADD PUSH2 0xC8F JUMP JUMPDEST SWAP5 POP POP PUSH1 0x60 DUP8 ADD CALLDATALOAD PUSH8 0xFFFFFFFFFFFFFFFF DUP2 GT ISZERO PUSH2 0xDAC JUMPI PUSH2 0xDAB PUSH2 0x11E3 JUMP JUMPDEST JUMPDEST PUSH2 0xDB8 DUP10 DUP3 DUP11 ADD PUSH2 0xC8F JUMP JUMPDEST SWAP4 POP POP PUSH1 0x80 DUP8 ADD CALLDATALOAD PUSH8 0xFFFFFFFFFFFFFFFF DUP2 GT ISZERO PUSH2 0xDD9 JUMPI PUSH2 0xDD8 PUSH2 0x11E3 JUMP JUMPDEST JUMPDEST PUSH2 0xDE5 DUP10 DUP3 DUP11 ADD PUSH2 0xC8F JUMP JUMPDEST SWAP3 POP POP PUSH1 0xA0 DUP8 ADD CALLDATALOAD PUSH8 0xFFFFFFFFFFFFFFFF DUP2 GT ISZERO PUSH2 0xE06 JUMPI PUSH2 0xE05 PUSH2 0x11E3 JUMP JUMPDEST JUMPDEST PUSH2 0xE12 DUP10 DUP3 DUP11 ADD PUSH2 0xC8F JUMP JUMPDEST SWAP2 POP POP SWAP3 SWAP6 POP SWAP3 SWAP6 POP SWAP3 SWAP6 JUMP JUMPDEST PUSH1 0x0 PUSH2 0xE2A DUP3 PUSH2 0x1077 JUMP JUMPDEST PUSH2 0xE34 DUP2 DUP6 PUSH2 0x1082 JUMP JUMPDEST SWAP4 POP PUSH2 0xE44 DUP2 DUP6 PUSH1 0x20 DUP7 ADD PUSH2 0x10E5 JUMP JUMPDEST PUSH2 0xE4D DUP2 PUSH2 0x11ED JUMP JUMPDEST DUP5 ADD SWAP2 POP POP SWAP3 SWAP2 POP POP JUMP JUMPDEST PUSH1 0x0 PUSH2 0xE63 DUP3 PUSH2 0x1077 JUMP JUMPDEST PUSH2 0xE6D DUP2 DUP6 PUSH2 0x1093 JUMP JUMPDEST SWAP4 POP PUSH2 0xE7D DUP2 DUP6 PUSH1 0x20 DUP7 ADD PUSH2 0x10E5 JUMP JUMPDEST PUSH2 0xE86 DUP2 PUSH2 0x11ED JUMP JUMPDEST DUP5 ADD SWAP2 POP POP SWAP3 SWAP2 POP POP JUMP JUMPDEST PUSH1 0x0 PUSH1 0xC0 DUP4 ADD PUSH1 0x0 DUP4 ADD MLOAD DUP5 DUP3 SUB PUSH1 0x0 DUP7 ADD MSTORE PUSH2 0xEAE DUP3 DUP3 PUSH2 0xE1F JUMP JUMPDEST SWAP2 POP POP PUSH1 0x20 DUP4 ADD MLOAD DUP5 DUP3 SUB PUSH1 0x20 DUP7 ADD MSTORE PUSH2 0xEC8 DUP3 DUP3 PUSH2 0xE1F JUMP JUMPDEST SWAP2 POP POP PUSH1 0x40 DUP4 ADD MLOAD DUP5 DUP3 SUB PUSH1 0x40 DUP7 ADD MSTORE PUSH2 0xEE2 DUP3 DUP3 PUSH2 0xE1F JUMP JUMPDEST SWAP2 POP POP PUSH1 0x60 DUP4 ADD MLOAD DUP5 DUP3 SUB PUSH1 0x60 DUP7 ADD MSTORE PUSH2 0xEFC DUP3 DUP3 PUSH2 0xE1F JUMP JUMPDEST SWAP2 POP POP PUSH1 0x80 DUP4 ADD MLOAD DUP5 DUP3 SUB PUSH1 0x80 DUP7 ADD MSTORE PUSH2 0xF16 DUP3 DUP3 PUSH2 0xE1F JUMP JUMPDEST SWAP2 POP POP PUSH1 0xA0 DUP4 ADD MLOAD DUP5 DUP3 SUB PUSH1 0xA0 DUP7 ADD MSTORE PUSH2 0xF30 DUP3 DUP3 PUSH2 0xE1F JUMP JUMPDEST SWAP2 POP POP DUP1 SWAP2 POP POP SWAP3 SWAP2 POP POP JUMP JUMPDEST PUSH1 0x0 PUSH1 0x40 DUP3 ADD SWAP1 POP DUP2 DUP2 SUB PUSH1 0x0 DUP4 ADD MSTORE PUSH2 0xF57 DUP2 DUP6 PUSH2 0xE58 JUMP JUMPDEST SWAP1 POP DUP2 DUP2 SUB PUSH1 0x20 DUP4 ADD MSTORE PUSH2 0xF6B DUP2 DUP5 PUSH2 0xE58 JUMP JUMPDEST SWAP1 POP SWAP4 SWAP3 POP POP POP JUMP JUMPDEST PUSH1 0x0 PUSH1 0xC0 DUP3 ADD SWAP1 POP DUP2 DUP2 SUB PUSH1 0x0 DUP4 ADD MSTORE PUSH2 0xF8E DUP2 DUP10 PUSH2 0xE58 JUMP JUMPDEST SWAP1 POP DUP2 DUP2 SUB PUSH1 0x20 DUP4 ADD MSTORE PUSH2 0xFA2 DUP2 DUP9 PUSH2 0xE58 JUMP JUMPDEST SWAP1 POP DUP2 DUP2 SUB PUSH1 0x40 DUP4 ADD MSTORE PUSH2 0xFB6 DUP2 DUP8 PUSH2 0xE58 JUMP JUMPDEST SWAP1 POP DUP2 DUP2 SUB PUSH1 0x60 DUP4 ADD MSTORE PUSH2 0xFCA DUP2 DUP7 PUSH2 0xE58 JUMP JUMPDEST SWAP1 POP DUP2 DUP2 SUB PUSH1 0x80 DUP4 ADD MSTORE PUSH2 0xFDE DUP2 DUP6 PUSH2 0xE58 JUMP JUMPDEST SWAP1 POP DUP2 DUP2 SUB PUSH1 0xA0 DUP4 ADD MSTORE PUSH2 0xFF2 DUP2 DUP5 PUSH2 0xE58 JUMP JUMPDEST SWAP1 POP SWAP8 SWAP7 POP POP POP POP POP POP POP JUMP JUMPDEST PUSH1 0x0 PUSH1 0x20 DUP3 ADD SWAP1 POP DUP2 DUP2 SUB PUSH1 0x0 DUP4 ADD MSTORE PUSH2 0x1019 DUP2 DUP5 PUSH2 0xE91 JUMP JUMPDEST SWAP1 POP SWAP3 SWAP2 POP POP JUMP JUMPDEST PUSH1 0x0 PUSH2 0x102B PUSH2 0x103C JUMP JUMPDEST SWAP1 POP PUSH2 0x1037 DUP3 DUP3 PUSH2 0x114A JUMP JUMPDEST SWAP2 SWAP1 POP JUMP JUMPDEST PUSH1 0x0 PUSH1 0x40 MLOAD SWAP1 POP SWAP1 JUMP JUMPDEST PUSH1 0x0 PUSH8 0xFFFFFFFFFFFFFFFF DUP3 GT ISZERO PUSH2 0x1061 JUMPI PUSH2 0x1060 PUSH2 0x11AA JUMP JUMPDEST JUMPDEST PUSH2 0x106A DUP3 PUSH2 0x11ED JUMP JUMPDEST SWAP1 POP PUSH1 0x20 DUP2 ADD SWAP1 POP SWAP2 SWAP1 POP JUMP JUMPDEST PUSH1 0x0 DUP2 MLOAD SWAP1 POP SWAP2 SWAP1 POP JUMP JUMPDEST PUSH1 0x0 DUP3 DUP3 MSTORE PUSH1 0x20 DUP3 ADD SWAP1 POP SWAP3 SWAP2 POP POP JUMP JUMPDEST PUSH1 0x0 DUP3 DUP3 MSTORE PUSH1 0x20 DUP3 ADD SWAP1 POP SWAP3 SWAP2 POP POP JUMP JUMPDEST PUSH1 0x0 PUSH2 0x10AF DUP3 PUSH2 0x10B6 JUMP JUMPDEST SWAP1 POP SWAP2 SWAP1 POP JUMP JUMPDEST PUSH1 0x0 PUSH20 0xFFFFFFFFFFFFFFFFFFFFFFFFFFFFFFFFFFFFFFFF DUP3 AND SWAP1 POP SWAP2 SWAP1 POP JUMP JUMPDEST DUP3 DUP2 DUP4 CALLDATACOPY PUSH1 0x0 DUP4 DUP4 ADD MSTORE POP POP POP JUMP JUMPDEST PUSH1 0x0 JUMPDEST DUP4 DUP2 LT ISZERO PUSH2 0x1103 JUMPI DUP1 DUP3 ADD MLOAD DUP2 DUP5 ADD MSTORE PUSH1 0x20 DUP2 ADD SWAP1 POP PUSH2 0x10E8 JUMP JUMPDEST DUP4 DUP2 GT ISZERO PUSH2 0x1112 JUMPI PUSH1 0x0 DUP5 DUP5 ADD MSTORE JUMPDEST POP POP POP POP JUMP JUMPDEST PUSH1 0x0 PUSH1 0x2 DUP3 DIV SWAP1 POP PUSH1 0x1 DUP3 AND DUP1 PUSH2 0x1130 JUMPI PUSH1 0x7F DUP3 AND SWAP2 POP JUMPDEST PUSH1 0x20 DUP3 LT DUP2 EQ ISZERO PUSH2 0x1144 JUMPI PUSH2 0x1143 PUSH2 0x117B JUMP JUMPDEST JUMPDEST POP SWAP2 SWAP1 POP JUMP JUMPDEST PUSH2 0x1153 DUP3 PUSH2 0x11ED JUMP JUMPDEST DUP2 ADD DUP2 DUP2 LT PUSH8 0xFFFFFFFFFFFFFFFF DUP3 GT OR ISZERO PUSH2 0x1172 JUMPI PUSH2 0x1171 PUSH2 0x11AA JUMP JUMPDEST JUMPDEST DUP1 PUSH1 0x40 MSTORE POP POP POP JUMP JUMPDEST PUSH32 0x4E487B7100000000000000000000000000000000000000000000000000000000 PUSH1 0x0 MSTORE PUSH1 0x22 PUSH1 0x4 MSTORE PUSH1 0x24 PUSH1 0x0 REVERT JUMPDEST PUSH32 0x4E487B7100000000000000000000000000000000000000000000000000000000 PUSH1 0x0 MSTORE PUSH1 0x41 PUSH1 0x4 MSTORE PUSH1 0x24 PUSH1 0x0 REVERT JUMPDEST PUSH1 0x0 DUP1 REVERT JUMPDEST PUSH1 0x0 DUP1 REVERT JUMPDEST PUSH1 0x0 DUP1 REVERT JUMPDEST PUSH1 0x0 DUP1 REVERT JUMPDEST PUSH1 0x0 PUSH1 0x1F NOT PUSH1 0x1F DUP4 ADD AND SWAP1 POP SWAP2 SWAP1 POP JUMP JUMPDEST PUSH2 0x1207 DUP2 PUSH2 0x10A4 JUMP JUMPDEST DUP2 EQ PUSH2 0x1212 JUMPI PUSH1 0x0 DUP1 REVERT JUMPDEST POP JUMP INVALID LOG2 PUSH5 0x6970667358 0x22 SLT KECCAK256 SWAP9 0x1F 0xC4 SLT SDIV DUP6 0xF8 0xCB PUSH15 0x1634315F21CFF3A6D876DD564E7455 0xBF 0xDB MOD 0xE3 0x2B 0xAB 0x4B 0xC7 PUSH5 0x736F6C6343 STOP ADDMOD SMOD STOP CALLER "
				},
				"gasEstimates": {
					"creation": {
						"codeDepositCost": "936600",
						"executionCost": "975",
						"totalCost": "937575"
					},
					"external": {
						"addBio(string,string,string,string,string,string)": "infinite",
						"getBio()": "infinite",
						"profile(address)": "infinite",
						"skill(address)": "infinite"
					}
				},
				"methodIdentifiers": {
					"addBio(string,string,string,string,string,string)": "721041af",
					"getBio()": "fa165e8f",
					"profile(address)": "9dd9d0fd",
					"skill(address)": "37064614"
				}
			},
			"storageLayout": {
				"storage": [
					{
						"astId": 19,
						"contract": "contracts/Profile.sol:Profile",
						"label": "profile",
						"offset": 0,
						"slot": "0",
						"type": "t_mapping(t_address,t_struct(Bio)14_storage)"
					},
					{
						"astId": 29,
						"contract": "contracts/Profile.sol:Profile",
						"label": "skill",
						"offset": 0,
						"slot": "1",
						"type": "t_mapping(t_address,t_struct(Skill)24_storage)"
					}
				],
				"types": {
					"t_address": {
						"encoding": "inplace",
						"label": "address",
						"numberOfBytes": "20"
					},
					"t_mapping(t_address,t_struct(Bio)14_storage)": {
						"encoding": "mapping",
						"key": "t_address",
						"label": "mapping(address => struct Profile.Bio)",
						"numberOfBytes": "32",
						"value": "t_struct(Bio)14_storage"
					},
					"t_mapping(t_address,t_struct(Skill)24_storage)": {
						"encoding": "mapping",
						"key": "t_address",
						"label": "mapping(address => struct Profile.Skill)",
						"numberOfBytes": "32",
						"value": "t_struct(Skill)24_storage"
					},
					"t_string_storage": {
						"encoding": "bytes",
						"label": "string",
						"numberOfBytes": "32"
					},
					"t_struct(Bio)14_storage": {
						"encoding": "inplace",
						"label": "struct Profile.Bio",
						"members": [
							{
								"astId": 3,
								"contract": "contracts/Profile.sol:Profile",
								"label": "firstName",
								"offset": 0,
								"slot": "0",
								"type": "t_string_storage"
							},
							{
								"astId": 5,
								"contract": "contracts/Profile.sol:Profile",
								"label": "middleName",
								"offset": 0,
								"slot": "1",
								"type": "t_string_storage"
							},
							{
								"astId": 7,
								"contract": "contracts/Profile.sol:Profile",
								"label": "lastName",
								"offset": 0,
								"slot": "2",
								"type": "t_string_storage"
							},
							{
								"astId": 9,
								"contract": "contracts/Profile.sol:Profile",
								"label": "email",
								"offset": 0,
								"slot": "3",
								"type": "t_string_storage"
							},
							{
								"astId": 11,
								"contract": "contracts/Profile.sol:Profile",
								"label": "phone",
								"offset": 0,
								"slot": "4",
								"type": "t_string_storage"
							},
							{
								"astId": 13,
								"contract": "contracts/Profile.sol:Profile",
								"label": "profileImage",
								"offset": 0,
								"slot": "5",
								"type": "t_string_storage"
							}
						],
						"numberOfBytes": "192"
					},
					"t_struct(Skill)24_storage": {
						"encoding": "inplace",
						"label": "struct Profile.Skill",
						"members": [
							{
								"astId": 21,
								"contract": "contracts/Profile.sol:Profile",
								"label": "firstName",
								"offset": 0,
								"slot": "0",
								"type": "t_string_storage"
							},
							{
								"astId": 23,
								"contract": "contracts/Profile.sol:Profile",
								"label": "middleName",
								"offset": 0,
								"slot": "1",
								"type": "t_string_storage"
							}
						],
						"numberOfBytes": "64"
					}
				}
			},
			"userdoc": {
				"kind": "user",
				"methods": {},
				"version": 1
			}
		}
	}
}