{
	"contracts/Profile.sol": {
		"Profile": {
			"abi": [
				{
					"inputs": [
						{
							"internalType": "string",
							"name": "firstName",
							"type": "string"
						},
						{
							"internalType": "string",
							"name": "middleName",
							"type": "string"
						},
						{
							"internalType": "string",
							"name": "lastName",
							"type": "string"
						},
						{
							"internalType": "string",
							"name": "email",
							"type": "string"
						},
						{
							"internalType": "string",
							"name": "phone",
							"type": "string"
						},
						{
							"internalType": "string",
							"name": "profileImage",
							"type": "string"
						}
					],
					"name": "addBio",
					"outputs": [],
					"stateMutability": "nonpayable",
					"type": "function"
				},
				{
					"inputs": [
						{
							"internalType": "address",
							"name": "_address",
							"type": "address"
						}
					],
					"name": "getBio",
					"outputs": [
						{
							"components": [
								{
									"internalType": "string",
									"name": "firstName",
									"type": "string"
								},
								{
									"internalType": "string",
									"name": "middleName",
									"type": "string"
								},
								{
									"internalType": "string",
									"name": "lastName",
									"type": "string"
								},
								{
									"internalType": "string",
									"name": "email",
									"type": "string"
								},
								{
									"internalType": "string",
									"name": "phone",
									"type": "string"
								},
								{
									"internalType": "string",
									"name": "profileImage",
									"type": "string"
								},
								{
									"internalType": "string",
									"name": "userAddress",
									"type": "string"
								}
							],
							"internalType": "struct Profile.Bio",
							"name": "",
							"type": "tuple"
						}
					],
					"stateMutability": "view",
					"type": "function"
				},
				{
					"inputs": [
						{
							"internalType": "address",
							"name": "",
							"type": "address"
						}
					],
					"name": "profile",
					"outputs": [
						{
							"internalType": "string",
							"name": "firstName",
							"type": "string"
						},
						{
							"internalType": "string",
							"name": "middleName",
							"type": "string"
						},
						{
							"internalType": "string",
							"name": "lastName",
							"type": "string"
						},
						{
							"internalType": "string",
							"name": "email",
							"type": "string"
						},
						{
							"internalType": "string",
							"name": "phone",
							"type": "string"
						},
						{
							"internalType": "string",
							"name": "profileImage",
							"type": "string"
						},
						{
							"internalType": "string",
							"name": "userAddress",
							"type": "string"
						}
					],
					"stateMutability": "view",
					"type": "function"
				}
			],
			"devdoc": {
				"kind": "dev",
				"methods": {},
				"version": 1
			},
			"evm": {
				"assembly": "    /* \"contracts/Profile.sol\":64:1141  contract Profile {\r... */\n  mstore(0x40, 0x80)\n  callvalue\n  dup1\n  iszero\n  tag_1\n  jumpi\n  0x00\n  dup1\n  revert\ntag_1:\n  pop\n  dataSize(sub_0)\n  dup1\n  dataOffset(sub_0)\n  0x00\n  codecopy\n  0x00\n  return\nstop\n\nsub_0: assembly {\n        /* \"contracts/Profile.sol\":64:1141  contract Profile {\r... */\n      mstore(0x40, 0x80)\n      callvalue\n      dup1\n      iszero\n      tag_1\n      jumpi\n      0x00\n      dup1\n      revert\n    tag_1:\n      pop\n      jumpi(tag_2, lt(calldatasize, 0x04))\n      shr(0xe0, calldataload(0x00))\n      dup1\n      0x3fd0bf17\n      eq\n      tag_3\n      jumpi\n      dup1\n      0x721041af\n      eq\n      tag_4\n      jumpi\n      dup1\n      0x9dd9d0fd\n      eq\n      tag_5\n      jumpi\n    tag_2:\n      0x00\n      dup1\n      revert\n        /* \"contracts/Profile.sol\":1022:1132  function getBio(address _address ) public view returns(Bio memory) {\r... */\n    tag_3:\n      tag_6\n      0x04\n      dup1\n      calldatasize\n      sub\n      dup2\n      add\n      swap1\n      tag_7\n      swap2\n      swap1\n      tag_8\n      jump\t// in\n    tag_7:\n      tag_9\n      jump\t// in\n    tag_6:\n      mload(0x40)\n      tag_10\n      swap2\n      swap1\n      tag_11\n      jump\t// in\n    tag_10:\n      mload(0x40)\n      dup1\n      swap2\n      sub\n      swap1\n      return\n        /* \"contracts/Profile.sol\":531:1014  function addBio(string memory firstName, string memory middleName, string memory lastName, string memory email, string memory phone, string memory profileImage) public {\r... */\n    tag_4:\n      tag_12\n      0x04\n      dup1\n      calldatasize\n      sub\n      dup2\n      add\n      swap1\n      tag_13\n      swap2\n      swap1\n      tag_14\n      jump\t// in\n    tag_13:\n      tag_15\n      jump\t// in\n    tag_12:\n      stop\n        /* \"contracts/Profile.sol\":303:343  mapping (address => Bio) public  profile */\n    tag_5:\n      tag_16\n      0x04\n      dup1\n      calldatasize\n      sub\n      dup2\n      add\n      swap1\n      tag_17\n      swap2\n      swap1\n      tag_8\n      jump\t// in\n    tag_17:\n      tag_18\n      jump\t// in\n    tag_16:\n      mload(0x40)\n      tag_19\n      swap8\n      swap7\n      swap6\n      swap5\n      swap4\n      swap3\n      swap2\n      swap1\n      tag_20\n      jump\t// in\n    tag_19:\n      mload(0x40)\n      dup1\n      swap2\n      sub\n      swap1\n      return\n        /* \"contracts/Profile.sol\":1022:1132  function getBio(address _address ) public view returns(Bio memory) {\r... */\n    tag_9:\n        /* \"contracts/Profile.sol\":1077:1087  Bio memory */\n      tag_21\n      tag_22\n      jump\t// in\n    tag_21:\n        /* \"contracts/Profile.sol\":1107:1114  profile */\n      0x00\n        /* \"contracts/Profile.sol\":1107:1124  profile[_address] */\n      dup1\n        /* \"contracts/Profile.sol\":1115:1123  _address */\n      dup4\n        /* \"contracts/Profile.sol\":1107:1124  profile[_address] */\n      0xffffffffffffffffffffffffffffffffffffffff\n      and\n      0xffffffffffffffffffffffffffffffffffffffff\n      and\n      dup2\n      mstore\n      0x20\n      add\n      swap1\n      dup2\n      mstore\n      0x20\n      add\n      0x00\n      keccak256\n        /* \"contracts/Profile.sol\":1100:1124  return profile[_address] */\n      mload(0x40)\n      dup1\n      0xe0\n      add\n      0x40\n      mstore\n      swap1\n      dup2\n      0x00\n      dup3\n      add\n      dup1\n      sload\n      tag_24\n      swap1\n      tag_25\n      jump\t// in\n    tag_24:\n      dup1\n      0x1f\n      add\n      0x20\n      dup1\n      swap2\n      div\n      mul\n      0x20\n      add\n      mload(0x40)\n      swap1\n      dup2\n      add\n      0x40\n      mstore\n      dup1\n      swap3\n      swap2\n      swap1\n      dup2\n      dup2\n      mstore\n      0x20\n      add\n      dup3\n      dup1\n      sload\n      tag_26\n      swap1\n      tag_25\n      jump\t// in\n    tag_26:\n      dup1\n      iszero\n      tag_27\n      jumpi\n      dup1\n      0x1f\n      lt\n      tag_28\n      jumpi\n      0x0100\n      dup1\n      dup4\n      sload\n      div\n      mul\n      dup4\n      mstore\n      swap2\n      0x20\n      add\n      swap2\n      jump(tag_27)\n    tag_28:\n      dup3\n      add\n      swap2\n      swap1\n      0x00\n      mstore\n      keccak256(0x00, 0x20)\n      swap1\n    tag_29:\n      dup2\n      sload\n      dup2\n      mstore\n      swap1\n      0x01\n      add\n      swap1\n      0x20\n      add\n      dup1\n      dup4\n      gt\n      tag_29\n      jumpi\n      dup3\n      swap1\n      sub\n      0x1f\n      and\n      dup3\n      add\n      swap2\n    tag_27:\n      pop\n      pop\n      pop\n      pop\n      pop\n      dup2\n      mstore\n      0x20\n      add\n      0x01\n      dup3\n      add\n      dup1\n      sload\n      tag_30\n      swap1\n      tag_25\n      jump\t// in\n    tag_30:\n      dup1\n      0x1f\n      add\n      0x20\n      dup1\n      swap2\n      div\n      mul\n      0x20\n      add\n      mload(0x40)\n      swap1\n      dup2\n      add\n      0x40\n      mstore\n      dup1\n      swap3\n      swap2\n      swap1\n      dup2\n      dup2\n      mstore\n      0x20\n      add\n      dup3\n      dup1\n      sload\n      tag_31\n      swap1\n      tag_25\n      jump\t// in\n    tag_31:\n      dup1\n      iszero\n      tag_32\n      jumpi\n      dup1\n      0x1f\n      lt\n      tag_33\n      jumpi\n      0x0100\n      dup1\n      dup4\n      sload\n      div\n      mul\n      dup4\n      mstore\n      swap2\n      0x20\n      add\n      swap2\n      jump(tag_32)\n    tag_33:\n      dup3\n      add\n      swap2\n      swap1\n      0x00\n      mstore\n      keccak256(0x00, 0x20)\n      swap1\n    tag_34:\n      dup2\n      sload\n      dup2\n      mstore\n      swap1\n      0x01\n      add\n      swap1\n      0x20\n      add\n      dup1\n      dup4\n      gt\n      tag_34\n      jumpi\n      dup3\n      swap1\n      sub\n      0x1f\n      and\n      dup3\n      add\n      swap2\n    tag_32:\n      pop\n      pop\n      pop\n      pop\n      pop\n      dup2\n      mstore\n      0x20\n      add\n      0x02\n      dup3\n      add\n      dup1\n      sload\n      tag_35\n      swap1\n      tag_25\n      jump\t// in\n    tag_35:\n      dup1\n      0x1f\n      add\n      0x20\n      dup1\n      swap2\n      div\n      mul\n      0x20\n      add\n      mload(0x40)\n      swap1\n      dup2\n      add\n      0x40\n      mstore\n      dup1\n      swap3\n      swap2\n      swap1\n      dup2\n      dup2\n      mstore\n      0x20\n      add\n      dup3\n      dup1\n      sload\n      tag_36\n      swap1\n      tag_25\n      jump\t// in\n    tag_36:\n      dup1\n      iszero\n      tag_37\n      jumpi\n      dup1\n      0x1f\n      lt\n      tag_38\n      jumpi\n      0x0100\n      dup1\n      dup4\n      sload\n      div\n      mul\n      dup4\n      mstore\n      swap2\n      0x20\n      add\n      swap2\n      jump(tag_37)\n    tag_38:\n      dup3\n      add\n      swap2\n      swap1\n      0x00\n      mstore\n      keccak256(0x00, 0x20)\n      swap1\n    tag_39:\n      dup2\n      sload\n      dup2\n      mstore\n      swap1\n      0x01\n      add\n      swap1\n      0x20\n      add\n      dup1\n      dup4\n      gt\n      tag_39\n      jumpi\n      dup3\n      swap1\n      sub\n      0x1f\n      and\n      dup3\n      add\n      swap2\n    tag_37:\n      pop\n      pop\n      pop\n      pop\n      pop\n      dup2\n      mstore\n      0x20\n      add\n      0x03\n      dup3\n      add\n      dup1\n      sload\n      tag_40\n      swap1\n      tag_25\n      jump\t// in\n    tag_40:\n      dup1\n      0x1f\n      add\n      0x20\n      dup1\n      swap2\n      div\n      mul\n      0x20\n      add\n      mload(0x40)\n      swap1\n      dup2\n      add\n      0x40\n      mstore\n      dup1\n      swap3\n      swap2\n      swap1\n      dup2\n      dup2\n      mstore\n      0x20\n      add\n      dup3\n      dup1\n      sload\n      tag_41\n      swap1\n      tag_25\n      jump\t// in\n    tag_41:\n      dup1\n      iszero\n      tag_42\n      jumpi\n      dup1\n      0x1f\n      lt\n      tag_43\n      jumpi\n      0x0100\n      dup1\n      dup4\n      sload\n      div\n      mul\n      dup4\n      mstore\n      swap2\n      0x20\n      add\n      swap2\n      jump(tag_42)\n    tag_43:\n      dup3\n      add\n      swap2\n      swap1\n      0x00\n      mstore\n      keccak256(0x00, 0x20)\n      swap1\n    tag_44:\n      dup2\n      sload\n      dup2\n      mstore\n      swap1\n      0x01\n      add\n      swap1\n      0x20\n      add\n      dup1\n      dup4\n      gt\n      tag_44\n      jumpi\n      dup3\n      swap1\n      sub\n      0x1f\n      and\n      dup3\n      add\n      swap2\n    tag_42:\n      pop\n      pop\n      pop\n      pop\n      pop\n      dup2\n      mstore\n      0x20\n      add\n      0x04\n      dup3\n      add\n      dup1\n      sload\n      tag_45\n      swap1\n      tag_25\n      jump\t// in\n    tag_45:\n      dup1\n      0x1f\n      add\n      0x20\n      dup1\n      swap2\n      div\n      mul\n      0x20\n      add\n      mload(0x40)\n      swap1\n      dup2\n      add\n      0x40\n      mstore\n      dup1\n      swap3\n      swap2\n      swap1\n      dup2\n      dup2\n      mstore\n      0x20\n      add\n      dup3\n      dup1\n      sload\n      tag_46\n      swap1\n      tag_25\n      jump\t// in\n    tag_46:\n      dup1\n      iszero\n      tag_47\n      jumpi\n      dup1\n      0x1f\n      lt\n      tag_48\n      jumpi\n      0x0100\n      dup1\n      dup4\n      sload\n      div\n      mul\n      dup4\n      mstore\n      swap2\n      0x20\n      add\n      swap2\n      jump(tag_47)\n    tag_48:\n      dup3\n      add\n      swap2\n      swap1\n      0x00\n      mstore\n      keccak256(0x00, 0x20)\n      swap1\n    tag_49:\n      dup2\n      sload\n      dup2\n      mstore\n      swap1\n      0x01\n      add\n      swap1\n      0x20\n      add\n      dup1\n      dup4\n      gt\n      tag_49\n      jumpi\n      dup3\n      swap1\n      sub\n      0x1f\n      and\n      dup3\n      add\n      swap2\n    tag_47:\n      pop\n      pop\n      pop\n      pop\n      pop\n      dup2\n      mstore\n      0x20\n      add\n      0x05\n      dup3\n      add\n      dup1\n      sload\n      tag_50\n      swap1\n      tag_25\n      jump\t// in\n    tag_50:\n      dup1\n      0x1f\n      add\n      0x20\n      dup1\n      swap2\n      div\n      mul\n      0x20\n      add\n      mload(0x40)\n      swap1\n      dup2\n      add\n      0x40\n      mstore\n      dup1\n      swap3\n      swap2\n      swap1\n      dup2\n      dup2\n      mstore\n      0x20\n      add\n      dup3\n      dup1\n      sload\n      tag_51\n      swap1\n      tag_25\n      jump\t// in\n    tag_51:\n      dup1\n      iszero\n      tag_52\n      jumpi\n      dup1\n      0x1f\n      lt\n      tag_53\n      jumpi\n      0x0100\n      dup1\n      dup4\n      sload\n      div\n      mul\n      dup4\n      mstore\n      swap2\n      0x20\n      add\n      swap2\n      jump(tag_52)\n    tag_53:\n      dup3\n      add\n      swap2\n      swap1\n      0x00\n      mstore\n      keccak256(0x00, 0x20)\n      swap1\n    tag_54:\n      dup2\n      sload\n      dup2\n      mstore\n      swap1\n      0x01\n      add\n      swap1\n      0x20\n      add\n      dup1\n      dup4\n      gt\n      tag_54\n      jumpi\n      dup3\n      swap1\n      sub\n      0x1f\n      and\n      dup3\n      add\n      swap2\n    tag_52:\n      pop\n      pop\n      pop\n      pop\n      pop\n      dup2\n      mstore\n      0x20\n      add\n      0x06\n      dup3\n      add\n      dup1\n      sload\n      tag_55\n      swap1\n      tag_25\n      jump\t// in\n    tag_55:\n      dup1\n      0x1f\n      add\n      0x20\n      dup1\n      swap2\n      div\n      mul\n      0x20\n      add\n      mload(0x40)\n      swap1\n      dup2\n      add\n      0x40\n      mstore\n      dup1\n      swap3\n      swap2\n      swap1\n      dup2\n      dup2\n      mstore\n      0x20\n      add\n      dup3\n      dup1\n      sload\n      tag_56\n      swap1\n      tag_25\n      jump\t// in\n    tag_56:\n      dup1\n      iszero\n      tag_57\n      jumpi\n      dup1\n      0x1f\n      lt\n      tag_58\n      jumpi\n      0x0100\n      dup1\n      dup4\n      sload\n      div\n      mul\n      dup4\n      mstore\n      swap2\n      0x20\n      add\n      swap2\n      jump(tag_57)\n    tag_58:\n      dup3\n      add\n      swap2\n      swap1\n      0x00\n      mstore\n      keccak256(0x00, 0x20)\n      swap1\n    tag_59:\n      dup2\n      sload\n      dup2\n      mstore\n      swap1\n      0x01\n      add\n      swap1\n      0x20\n      add\n      dup1\n      dup4\n      gt\n      tag_59\n      jumpi\n      dup3\n      swap1\n      sub\n      0x1f\n      and\n      dup3\n      add\n      swap2\n    tag_57:\n      pop\n      pop\n      pop\n      pop\n      pop\n      dup2\n      mstore\n      pop\n      pop\n      swap1\n      pop\n        /* \"contracts/Profile.sol\":1022:1132  function getBio(address _address ) public view returns(Bio memory) {\r... */\n      swap2\n      swap1\n      pop\n      jump\t// out\n        /* \"contracts/Profile.sol\":531:1014  function addBio(string memory firstName, string memory middleName, string memory lastName, string memory email, string memory phone, string memory profileImage) public {\r... */\n    tag_15:\n        /* \"contracts/Profile.sol\":738:747  firstName */\n      dup6\n        /* \"contracts/Profile.sol\":706:713  profile */\n      0x00\n        /* \"contracts/Profile.sol\":706:725  profile[msg.sender] */\n      dup1\n        /* \"contracts/Profile.sol\":714:724  msg.sender */\n      caller\n        /* \"contracts/Profile.sol\":706:725  profile[msg.sender] */\n      0xffffffffffffffffffffffffffffffffffffffff\n      and\n      0xffffffffffffffffffffffffffffffffffffffff\n      and\n      dup2\n      mstore\n      0x20\n      add\n      swap1\n      dup2\n      mstore\n      0x20\n      add\n      0x00\n      keccak256\n        /* \"contracts/Profile.sol\":706:735  profile[msg.sender].firstName */\n      0x00\n      add\n        /* \"contracts/Profile.sol\":706:747  profile[msg.sender].firstName = firstName */\n      swap1\n      dup1\n      mload\n      swap1\n      0x20\n      add\n      swap1\n      tag_61\n      swap3\n      swap2\n      swap1\n      tag_62\n      jump\t// in\n    tag_61:\n      pop\n        /* \"contracts/Profile.sol\":791:801  middleName */\n      dup5\n        /* \"contracts/Profile.sol\":758:765  profile */\n      0x00\n        /* \"contracts/Profile.sol\":758:777  profile[msg.sender] */\n      dup1\n        /* \"contracts/Profile.sol\":766:776  msg.sender */\n      caller\n        /* \"contracts/Profile.sol\":758:777  profile[msg.sender] */\n      0xffffffffffffffffffffffffffffffffffffffff\n      and\n      0xffffffffffffffffffffffffffffffffffffffff\n      and\n      dup2\n      mstore\n      0x20\n      add\n      swap1\n      dup2\n      mstore\n      0x20\n      add\n      0x00\n      keccak256\n        /* \"contracts/Profile.sol\":758:788  profile[msg.sender].middleName */\n      0x01\n      add\n        /* \"contracts/Profile.sol\":758:801  profile[msg.sender].middleName = middleName */\n      swap1\n      dup1\n      mload\n      swap1\n      0x20\n      add\n      swap1\n      tag_63\n      swap3\n      swap2\n      swap1\n      tag_62\n      jump\t// in\n    tag_63:\n      pop\n        /* \"contracts/Profile.sol\":843:851  lastName */\n      dup4\n        /* \"contracts/Profile.sol\":812:819  profile */\n      0x00\n        /* \"contracts/Profile.sol\":812:831  profile[msg.sender] */\n      dup1\n        /* \"contracts/Profile.sol\":820:830  msg.sender */\n      caller\n        /* \"contracts/Profile.sol\":812:831  profile[msg.sender] */\n      0xffffffffffffffffffffffffffffffffffffffff\n      and\n      0xffffffffffffffffffffffffffffffffffffffff\n      and\n      dup2\n      mstore\n      0x20\n      add\n      swap1\n      dup2\n      mstore\n      0x20\n      add\n      0x00\n      keccak256\n        /* \"contracts/Profile.sol\":812:840  profile[msg.sender].lastName */\n      0x02\n      add\n        /* \"contracts/Profile.sol\":812:851  profile[msg.sender].lastName = lastName */\n      swap1\n      dup1\n      mload\n      swap1\n      0x20\n      add\n      swap1\n      tag_64\n      swap3\n      swap2\n      swap1\n      tag_62\n      jump\t// in\n    tag_64:\n      pop\n        /* \"contracts/Profile.sol\":890:895  email */\n      dup3\n        /* \"contracts/Profile.sol\":862:869  profile */\n      0x00\n        /* \"contracts/Profile.sol\":862:881  profile[msg.sender] */\n      dup1\n        /* \"contracts/Profile.sol\":870:880  msg.sender */\n      caller\n        /* \"contracts/Profile.sol\":862:881  profile[msg.sender] */\n      0xffffffffffffffffffffffffffffffffffffffff\n      and\n      0xffffffffffffffffffffffffffffffffffffffff\n      and\n      dup2\n      mstore\n      0x20\n      add\n      swap1\n      dup2\n      mstore\n      0x20\n      add\n      0x00\n      keccak256\n        /* \"contracts/Profile.sol\":862:887  profile[msg.sender].email */\n      0x03\n      add\n        /* \"contracts/Profile.sol\":862:895  profile[msg.sender].email = email */\n      swap1\n      dup1\n      mload\n      swap1\n      0x20\n      add\n      swap1\n      tag_65\n      swap3\n      swap2\n      swap1\n      tag_62\n      jump\t// in\n    tag_65:\n      pop\n        /* \"contracts/Profile.sol\":934:939  phone */\n      dup2\n        /* \"contracts/Profile.sol\":906:913  profile */\n      0x00\n        /* \"contracts/Profile.sol\":906:925  profile[msg.sender] */\n      dup1\n        /* \"contracts/Profile.sol\":914:924  msg.sender */\n      caller\n        /* \"contracts/Profile.sol\":906:925  profile[msg.sender] */\n      0xffffffffffffffffffffffffffffffffffffffff\n      and\n      0xffffffffffffffffffffffffffffffffffffffff\n      and\n      dup2\n      mstore\n      0x20\n      add\n      swap1\n      dup2\n      mstore\n      0x20\n      add\n      0x00\n      keccak256\n        /* \"contracts/Profile.sol\":906:931  profile[msg.sender].phone */\n      0x04\n      add\n        /* \"contracts/Profile.sol\":906:939  profile[msg.sender].phone = phone */\n      swap1\n      dup1\n      mload\n      swap1\n      0x20\n      add\n      swap1\n      tag_66\n      swap3\n      swap2\n      swap1\n      tag_62\n      jump\t// in\n    tag_66:\n      pop\n        /* \"contracts/Profile.sol\":985:997  profileImage */\n      dup1\n        /* \"contracts/Profile.sol\":950:957  profile */\n      0x00\n        /* \"contracts/Profile.sol\":950:969  profile[msg.sender] */\n      dup1\n        /* \"contracts/Profile.sol\":958:968  msg.sender */\n      caller\n        /* \"contracts/Profile.sol\":950:969  profile[msg.sender] */\n      0xffffffffffffffffffffffffffffffffffffffff\n      and\n      0xffffffffffffffffffffffffffffffffffffffff\n      and\n      dup2\n      mstore\n      0x20\n      add\n      swap1\n      dup2\n      mstore\n      0x20\n      add\n      0x00\n      keccak256\n        /* \"contracts/Profile.sol\":950:982  profile[msg.sender].profileImage */\n      0x05\n      add\n        /* \"contracts/Profile.sol\":950:997  profile[msg.sender].profileImage = profileImage */\n      swap1\n      dup1\n      mload\n      swap1\n      0x20\n      add\n      swap1\n      tag_67\n      swap3\n      swap2\n      swap1\n      tag_62\n      jump\t// in\n    tag_67:\n      pop\n        /* \"contracts/Profile.sol\":531:1014  function addBio(string memory firstName, string memory middleName, string memory lastName, string memory email, string memory phone, string memory profileImage) public {\r... */\n      pop\n      pop\n      pop\n      pop\n      pop\n      pop\n      jump\t// out\n        /* \"contracts/Profile.sol\":303:343  mapping (address => Bio) public  profile */\n    tag_18:\n      mstore(0x20, 0x00)\n      dup1\n      0x00\n      mstore\n      keccak256(0x00, 0x40)\n      0x00\n      swap2\n      pop\n      swap1\n      pop\n      dup1\n      0x00\n      add\n      dup1\n      sload\n      tag_68\n      swap1\n      tag_25\n      jump\t// in\n    tag_68:\n      dup1\n      0x1f\n      add\n      0x20\n      dup1\n      swap2\n      div\n      mul\n      0x20\n      add\n      mload(0x40)\n      swap1\n      dup2\n      add\n      0x40\n      mstore\n      dup1\n      swap3\n      swap2\n      swap1\n      dup2\n      dup2\n      mstore\n      0x20\n      add\n      dup3\n      dup1\n      sload\n      tag_69\n      swap1\n      tag_25\n      jump\t// in\n    tag_69:\n      dup1\n      iszero\n      tag_70\n      jumpi\n      dup1\n      0x1f\n      lt\n      tag_71\n      jumpi\n      0x0100\n      dup1\n      dup4\n      sload\n      div\n      mul\n      dup4\n      mstore\n      swap2\n      0x20\n      add\n      swap2\n      jump(tag_70)\n    tag_71:\n      dup3\n      add\n      swap2\n      swap1\n      0x00\n      mstore\n      keccak256(0x00, 0x20)\n      swap1\n    tag_72:\n      dup2\n      sload\n      dup2\n      mstore\n      swap1\n      0x01\n      add\n      swap1\n      0x20\n      add\n      dup1\n      dup4\n      gt\n      tag_72\n      jumpi\n      dup3\n      swap1\n      sub\n      0x1f\n      and\n      dup3\n      add\n      swap2\n    tag_70:\n      pop\n      pop\n      pop\n      pop\n      pop\n      swap1\n      dup1\n      0x01\n      add\n      dup1\n      sload\n      tag_73\n      swap1\n      tag_25\n      jump\t// in\n    tag_73:\n      dup1\n      0x1f\n      add\n      0x20\n      dup1\n      swap2\n      div\n      mul\n      0x20\n      add\n      mload(0x40)\n      swap1\n      dup2\n      add\n      0x40\n      mstore\n      dup1\n      swap3\n      swap2\n      swap1\n      dup2\n      dup2\n      mstore\n      0x20\n      add\n      dup3\n      dup1\n      sload\n      tag_74\n      swap1\n      tag_25\n      jump\t// in\n    tag_74:\n      dup1\n      iszero\n      tag_75\n      jumpi\n      dup1\n      0x1f\n      lt\n      tag_76\n      jumpi\n      0x0100\n      dup1\n      dup4\n      sload\n      div\n      mul\n      dup4\n      mstore\n      swap2\n      0x20\n      add\n      swap2\n      jump(tag_75)\n    tag_76:\n      dup3\n      add\n      swap2\n      swap1\n      0x00\n      mstore\n      keccak256(0x00, 0x20)\n      swap1\n    tag_77:\n      dup2\n      sload\n      dup2\n      mstore\n      swap1\n      0x01\n      add\n      swap1\n      0x20\n      add\n      dup1\n      dup4\n      gt\n      tag_77\n      jumpi\n      dup3\n      swap1\n      sub\n      0x1f\n      and\n      dup3\n      add\n      swap2\n    tag_75:\n      pop\n      pop\n      pop\n      pop\n      pop\n      swap1\n      dup1\n      0x02\n      add\n      dup1\n      sload\n      tag_78\n      swap1\n      tag_25\n      jump\t// in\n    tag_78:\n      dup1\n      0x1f\n      add\n      0x20\n      dup1\n      swap2\n      div\n      mul\n      0x20\n      add\n      mload(0x40)\n      swap1\n      dup2\n      add\n      0x40\n      mstore\n      dup1\n      swap3\n      swap2\n      swap1\n      dup2\n      dup2\n      mstore\n      0x20\n      add\n      dup3\n      dup1\n      sload\n      tag_79\n      swap1\n      tag_25\n      jump\t// in\n    tag_79:\n      dup1\n      iszero\n      tag_80\n      jumpi\n      dup1\n      0x1f\n      lt\n      tag_81\n      jumpi\n      0x0100\n      dup1\n      dup4\n      sload\n      div\n      mul\n      dup4\n      mstore\n      swap2\n      0x20\n      add\n      swap2\n      jump(tag_80)\n    tag_81:\n      dup3\n      add\n      swap2\n      swap1\n      0x00\n      mstore\n      keccak256(0x00, 0x20)\n      swap1\n    tag_82:\n      dup2\n      sload\n      dup2\n      mstore\n      swap1\n      0x01\n      add\n      swap1\n      0x20\n      add\n      dup1\n      dup4\n      gt\n      tag_82\n      jumpi\n      dup3\n      swap1\n      sub\n      0x1f\n      and\n      dup3\n      add\n      swap2\n    tag_80:\n      pop\n      pop\n      pop\n      pop\n      pop\n      swap1\n      dup1\n      0x03\n      add\n      dup1\n      sload\n      tag_83\n      swap1\n      tag_25\n      jump\t// in\n    tag_83:\n      dup1\n      0x1f\n      add\n      0x20\n      dup1\n      swap2\n      div\n      mul\n      0x20\n      add\n      mload(0x40)\n      swap1\n      dup2\n      add\n      0x40\n      mstore\n      dup1\n      swap3\n      swap2\n      swap1\n      dup2\n      dup2\n      mstore\n      0x20\n      add\n      dup3\n      dup1\n      sload\n      tag_84\n      swap1\n      tag_25\n      jump\t// in\n    tag_84:\n      dup1\n      iszero\n      tag_85\n      jumpi\n      dup1\n      0x1f\n      lt\n      tag_86\n      jumpi\n      0x0100\n      dup1\n      dup4\n      sload\n      div\n      mul\n      dup4\n      mstore\n      swap2\n      0x20\n      add\n      swap2\n      jump(tag_85)\n    tag_86:\n      dup3\n      add\n      swap2\n      swap1\n      0x00\n      mstore\n      keccak256(0x00, 0x20)\n      swap1\n    tag_87:\n      dup2\n      sload\n      dup2\n      mstore\n      swap1\n      0x01\n      add\n      swap1\n      0x20\n      add\n      dup1\n      dup4\n      gt\n      tag_87\n      jumpi\n      dup3\n      swap1\n      sub\n      0x1f\n      and\n      dup3\n      add\n      swap2\n    tag_85:\n      pop\n      pop\n      pop\n      pop\n      pop\n      swap1\n      dup1\n      0x04\n      add\n      dup1\n      sload\n      tag_88\n      swap1\n      tag_25\n      jump\t// in\n    tag_88:\n      dup1\n      0x1f\n      add\n      0x20\n      dup1\n      swap2\n      div\n      mul\n      0x20\n      add\n      mload(0x40)\n      swap1\n      dup2\n      add\n      0x40\n      mstore\n      dup1\n      swap3\n      swap2\n      swap1\n      dup2\n      dup2\n      mstore\n      0x20\n      add\n      dup3\n      dup1\n      sload\n      tag_89\n      swap1\n      tag_25\n      jump\t// in\n    tag_89:\n      dup1\n      iszero\n      tag_90\n      jumpi\n      dup1\n      0x1f\n      lt\n      tag_91\n      jumpi\n      0x0100\n      dup1\n      dup4\n      sload\n      div\n      mul\n      dup4\n      mstore\n      swap2\n      0x20\n      add\n      swap2\n      jump(tag_90)\n    tag_91:\n      dup3\n      add\n      swap2\n      swap1\n      0x00\n      mstore\n      keccak256(0x00, 0x20)\n      swap1\n    tag_92:\n      dup2\n      sload\n      dup2\n      mstore\n      swap1\n      0x01\n      add\n      swap1\n      0x20\n      add\n      dup1\n      dup4\n      gt\n      tag_92\n      jumpi\n      dup3\n      swap1\n      sub\n      0x1f\n      and\n      dup3\n      add\n      swap2\n    tag_90:\n      pop\n      pop\n      pop\n      pop\n      pop\n      swap1\n      dup1\n      0x05\n      add\n      dup1\n      sload\n      tag_93\n      swap1\n      tag_25\n      jump\t// in\n    tag_93:\n      dup1\n      0x1f\n      add\n      0x20\n      dup1\n      swap2\n      div\n      mul\n      0x20\n      add\n      mload(0x40)\n      swap1\n      dup2\n      add\n      0x40\n      mstore\n      dup1\n      swap3\n      swap2\n      swap1\n      dup2\n      dup2\n      mstore\n      0x20\n      add\n      dup3\n      dup1\n      sload\n      tag_94\n      swap1\n      tag_25\n      jump\t// in\n    tag_94:\n      dup1\n      iszero\n      tag_95\n      jumpi\n      dup1\n      0x1f\n      lt\n      tag_96\n      jumpi\n      0x0100\n      dup1\n      dup4\n      sload\n      div\n      mul\n      dup4\n      mstore\n      swap2\n      0x20\n      add\n      swap2\n      jump(tag_95)\n    tag_96:\n      dup3\n      add\n      swap2\n      swap1\n      0x00\n      mstore\n      keccak256(0x00, 0x20)\n      swap1\n    tag_97:\n      dup2\n      sload\n      dup2\n      mstore\n      swap1\n      0x01\n      add\n      swap1\n      0x20\n      add\n      dup1\n      dup4\n      gt\n      tag_97\n      jumpi\n      dup3\n      swap1\n      sub\n      0x1f\n      and\n      dup3\n      add\n      swap2\n    tag_95:\n      pop\n      pop\n      pop\n      pop\n      pop\n      swap1\n      dup1\n      0x06\n      add\n      dup1\n      sload\n      tag_98\n      swap1\n      tag_25\n      jump\t// in\n    tag_98:\n      dup1\n      0x1f\n      add\n      0x20\n      dup1\n      swap2\n      div\n      mul\n      0x20\n      add\n      mload(0x40)\n      swap1\n      dup2\n      add\n      0x40\n      mstore\n      dup1\n      swap3\n      swap2\n      swap1\n      dup2\n      dup2\n      mstore\n      0x20\n      add\n      dup3\n      dup1\n      sload\n      tag_99\n      swap1\n      tag_25\n      jump\t// in\n    tag_99:\n      dup1\n      iszero\n      tag_100\n      jumpi\n      dup1\n      0x1f\n      lt\n      tag_101\n      jumpi\n      0x0100\n      dup1\n      dup4\n      sload\n      div\n      mul\n      dup4\n      mstore\n      swap2\n      0x20\n      add\n      swap2\n      jump(tag_100)\n    tag_101:\n      dup3\n      add\n      swap2\n      swap1\n      0x00\n      mstore\n      keccak256(0x00, 0x20)\n      swap1\n    tag_102:\n      dup2\n      sload\n      dup2\n      mstore\n      swap1\n      0x01\n      add\n      swap1\n      0x20\n      add\n      dup1\n      dup4\n      gt\n      tag_102\n      jumpi\n      dup3\n      swap1\n      sub\n      0x1f\n      and\n      dup3\n      add\n      swap2\n    tag_100:\n      pop\n      pop\n      pop\n      pop\n      pop\n      swap1\n      pop\n      dup8\n      jump\t// out\n    tag_22:\n      mload(0x40)\n      dup1\n      0xe0\n      add\n      0x40\n      mstore\n      dup1\n      0x60\n      dup2\n      mstore\n      0x20\n      add\n      0x60\n      dup2\n      mstore\n      0x20\n      add\n      0x60\n      dup2\n      mstore\n      0x20\n      add\n      0x60\n      dup2\n      mstore\n      0x20\n      add\n      0x60\n      dup2\n      mstore\n      0x20\n      add\n      0x60\n      dup2\n      mstore\n      0x20\n      add\n      0x60\n      dup2\n      mstore\n      pop\n      swap1\n      jump\t// out\n    tag_62:\n      dup3\n      dup1\n      sload\n      tag_103\n      swap1\n      tag_25\n      jump\t// in\n    tag_103:\n      swap1\n      0x00\n      mstore\n      keccak256(0x00, 0x20)\n      swap1\n      0x1f\n      add\n      0x20\n      swap1\n      div\n      dup2\n      add\n      swap3\n      dup3\n      tag_105\n      jumpi\n      0x00\n      dup6\n      sstore\n      jump(tag_104)\n    tag_105:\n      dup3\n      0x1f\n      lt\n      tag_106\n      jumpi\n      dup1\n      mload\n      not(0xff)\n      and\n      dup4\n      dup1\n      add\n      or\n      dup6\n      sstore\n      jump(tag_104)\n    tag_106:\n      dup3\n      dup1\n      add\n      0x01\n      add\n      dup6\n      sstore\n      dup3\n      iszero\n      tag_104\n      jumpi\n      swap2\n      dup3\n      add\n    tag_107:\n      dup3\n      dup2\n      gt\n      iszero\n      tag_108\n      jumpi\n      dup3\n      mload\n      dup3\n      sstore\n      swap2\n      0x20\n      add\n      swap2\n      swap1\n      0x01\n      add\n      swap1\n      jump(tag_107)\n    tag_108:\n    tag_104:\n      pop\n      swap1\n      pop\n      tag_109\n      swap2\n      swap1\n      tag_110\n      jump\t// in\n    tag_109:\n      pop\n      swap1\n      jump\t// out\n    tag_110:\n    tag_111:\n      dup1\n      dup3\n      gt\n      iszero\n      tag_112\n      jumpi\n      0x00\n      dup2\n      0x00\n      swap1\n      sstore\n      pop\n      0x01\n      add\n      jump(tag_111)\n    tag_112:\n      pop\n      swap1\n      jump\t// out\n        /* \"#utility.yul\":7:419   */\n    tag_114:\n        /* \"#utility.yul\":85:90   */\n      0x00\n        /* \"#utility.yul\":110:176   */\n      tag_116\n        /* \"#utility.yul\":126:175   */\n      tag_117\n        /* \"#utility.yul\":168:174   */\n      dup5\n        /* \"#utility.yul\":126:175   */\n      tag_118\n      jump\t// in\n    tag_117:\n        /* \"#utility.yul\":110:176   */\n      tag_119\n      jump\t// in\n    tag_116:\n        /* \"#utility.yul\":101:176   */\n      swap1\n      pop\n        /* \"#utility.yul\":199:205   */\n      dup3\n        /* \"#utility.yul\":192:197   */\n      dup2\n        /* \"#utility.yul\":185:206   */\n      mstore\n        /* \"#utility.yul\":237:241   */\n      0x20\n        /* \"#utility.yul\":230:235   */\n      dup2\n        /* \"#utility.yul\":226:242   */\n      add\n        /* \"#utility.yul\":275:278   */\n      dup5\n        /* \"#utility.yul\":266:272   */\n      dup5\n        /* \"#utility.yul\":261:264   */\n      dup5\n        /* \"#utility.yul\":257:273   */\n      add\n        /* \"#utility.yul\":254:279   */\n      gt\n        /* \"#utility.yul\":251:363   */\n      iszero\n      tag_120\n      jumpi\n        /* \"#utility.yul\":282:361   */\n      tag_121\n      tag_122\n      jump\t// in\n    tag_121:\n        /* \"#utility.yul\":251:363   */\n    tag_120:\n        /* \"#utility.yul\":372:413   */\n      tag_123\n        /* \"#utility.yul\":406:412   */\n      dup5\n        /* \"#utility.yul\":401:404   */\n      dup3\n        /* \"#utility.yul\":396:399   */\n      dup6\n        /* \"#utility.yul\":372:413   */\n      tag_124\n      jump\t// in\n    tag_123:\n        /* \"#utility.yul\":91:419   */\n      pop\n        /* \"#utility.yul\":7:419   */\n      swap4\n      swap3\n      pop\n      pop\n      pop\n      jump\t// out\n        /* \"#utility.yul\":425:564   */\n    tag_125:\n        /* \"#utility.yul\":471:476   */\n      0x00\n        /* \"#utility.yul\":509:515   */\n      dup2\n        /* \"#utility.yul\":496:516   */\n      calldataload\n        /* \"#utility.yul\":487:516   */\n      swap1\n      pop\n        /* \"#utility.yul\":525:558   */\n      tag_127\n        /* \"#utility.yul\":552:557   */\n      dup2\n        /* \"#utility.yul\":525:558   */\n      tag_128\n      jump\t// in\n    tag_127:\n        /* \"#utility.yul\":425:564   */\n      swap3\n      swap2\n      pop\n      pop\n      jump\t// out\n        /* \"#utility.yul\":584:924   */\n    tag_129:\n        /* \"#utility.yul\":640:645   */\n      0x00\n        /* \"#utility.yul\":689:692   */\n      dup3\n        /* \"#utility.yul\":682:686   */\n      0x1f\n        /* \"#utility.yul\":674:680   */\n      dup4\n        /* \"#utility.yul\":670:687   */\n      add\n        /* \"#utility.yul\":666:693   */\n      slt\n        /* \"#utility.yul\":656:778   */\n      tag_131\n      jumpi\n        /* \"#utility.yul\":697:776   */\n      tag_132\n      tag_133\n      jump\t// in\n    tag_132:\n        /* \"#utility.yul\":656:778   */\n    tag_131:\n        /* \"#utility.yul\":814:820   */\n      dup2\n        /* \"#utility.yul\":801:821   */\n      calldataload\n        /* \"#utility.yul\":839:918   */\n      tag_134\n        /* \"#utility.yul\":914:917   */\n      dup5\n        /* \"#utility.yul\":906:912   */\n      dup3\n        /* \"#utility.yul\":899:903   */\n      0x20\n        /* \"#utility.yul\":891:897   */\n      dup7\n        /* \"#utility.yul\":887:904   */\n      add\n        /* \"#utility.yul\":839:918   */\n      tag_114\n      jump\t// in\n    tag_134:\n        /* \"#utility.yul\":830:918   */\n      swap2\n      pop\n        /* \"#utility.yul\":646:924   */\n      pop\n        /* \"#utility.yul\":584:924   */\n      swap3\n      swap2\n      pop\n      pop\n      jump\t// out\n        /* \"#utility.yul\":930:1259   */\n    tag_8:\n        /* \"#utility.yul\":989:995   */\n      0x00\n        /* \"#utility.yul\":1038:1040   */\n      0x20\n        /* \"#utility.yul\":1026:1035   */\n      dup3\n        /* \"#utility.yul\":1017:1024   */\n      dup5\n        /* \"#utility.yul\":1013:1036   */\n      sub\n        /* \"#utility.yul\":1009:1041   */\n      slt\n        /* \"#utility.yul\":1006:1125   */\n      iszero\n      tag_136\n      jumpi\n        /* \"#utility.yul\":1044:1123   */\n      tag_137\n      tag_138\n      jump\t// in\n    tag_137:\n        /* \"#utility.yul\":1006:1125   */\n    tag_136:\n        /* \"#utility.yul\":1164:1165   */\n      0x00\n        /* \"#utility.yul\":1189:1242   */\n      tag_139\n        /* \"#utility.yul\":1234:1241   */\n      dup5\n        /* \"#utility.yul\":1225:1231   */\n      dup3\n        /* \"#utility.yul\":1214:1223   */\n      dup6\n        /* \"#utility.yul\":1210:1232   */\n      add\n        /* \"#utility.yul\":1189:1242   */\n      tag_125\n      jump\t// in\n    tag_139:\n        /* \"#utility.yul\":1179:1242   */\n      swap2\n      pop\n        /* \"#utility.yul\":1135:1252   */\n      pop\n        /* \"#utility.yul\":930:1259   */\n      swap3\n      swap2\n      pop\n      pop\n      jump\t// out\n        /* \"#utility.yul\":1265:3402   */\n    tag_14:\n        /* \"#utility.yul\":1429:1435   */\n      0x00\n        /* \"#utility.yul\":1437:1443   */\n      dup1\n        /* \"#utility.yul\":1445:1451   */\n      0x00\n        /* \"#utility.yul\":1453:1459   */\n      dup1\n        /* \"#utility.yul\":1461:1467   */\n      0x00\n        /* \"#utility.yul\":1469:1475   */\n      dup1\n        /* \"#utility.yul\":1518:1521   */\n      0xc0\n        /* \"#utility.yul\":1506:1515   */\n      dup8\n        /* \"#utility.yul\":1497:1504   */\n      dup10\n        /* \"#utility.yul\":1493:1516   */\n      sub\n        /* \"#utility.yul\":1489:1522   */\n      slt\n        /* \"#utility.yul\":1486:1606   */\n      iszero\n      tag_141\n      jumpi\n        /* \"#utility.yul\":1525:1604   */\n      tag_142\n      tag_138\n      jump\t// in\n    tag_142:\n        /* \"#utility.yul\":1486:1606   */\n    tag_141:\n        /* \"#utility.yul\":1673:1674   */\n      0x00\n        /* \"#utility.yul\":1662:1671   */\n      dup8\n        /* \"#utility.yul\":1658:1675   */\n      add\n        /* \"#utility.yul\":1645:1676   */\n      calldataload\n        /* \"#utility.yul\":1703:1721   */\n      0xffffffffffffffff\n        /* \"#utility.yul\":1695:1701   */\n      dup2\n        /* \"#utility.yul\":1692:1722   */\n      gt\n        /* \"#utility.yul\":1689:1806   */\n      iszero\n      tag_143\n      jumpi\n        /* \"#utility.yul\":1725:1804   */\n      tag_144\n      tag_145\n      jump\t// in\n    tag_144:\n        /* \"#utility.yul\":1689:1806   */\n    tag_143:\n        /* \"#utility.yul\":1830:1893   */\n      tag_146\n        /* \"#utility.yul\":1885:1892   */\n      dup10\n        /* \"#utility.yul\":1876:1882   */\n      dup3\n        /* \"#utility.yul\":1865:1874   */\n      dup11\n        /* \"#utility.yul\":1861:1883   */\n      add\n        /* \"#utility.yul\":1830:1893   */\n      tag_129\n      jump\t// in\n    tag_146:\n        /* \"#utility.yul\":1820:1893   */\n      swap7\n      pop\n        /* \"#utility.yul\":1616:1903   */\n      pop\n        /* \"#utility.yul\":1970:1972   */\n      0x20\n        /* \"#utility.yul\":1959:1968   */\n      dup8\n        /* \"#utility.yul\":1955:1973   */\n      add\n        /* \"#utility.yul\":1942:1974   */\n      calldataload\n        /* \"#utility.yul\":2001:2019   */\n      0xffffffffffffffff\n        /* \"#utility.yul\":1993:1999   */\n      dup2\n        /* \"#utility.yul\":1990:2020   */\n      gt\n        /* \"#utility.yul\":1987:2104   */\n      iszero\n      tag_147\n      jumpi\n        /* \"#utility.yul\":2023:2102   */\n      tag_148\n      tag_145\n      jump\t// in\n    tag_148:\n        /* \"#utility.yul\":1987:2104   */\n    tag_147:\n        /* \"#utility.yul\":2128:2191   */\n      tag_149\n        /* \"#utility.yul\":2183:2190   */\n      dup10\n        /* \"#utility.yul\":2174:2180   */\n      dup3\n        /* \"#utility.yul\":2163:2172   */\n      dup11\n        /* \"#utility.yul\":2159:2181   */\n      add\n        /* \"#utility.yul\":2128:2191   */\n      tag_129\n      jump\t// in\n    tag_149:\n        /* \"#utility.yul\":2118:2191   */\n      swap6\n      pop\n        /* \"#utility.yul\":1913:2201   */\n      pop\n        /* \"#utility.yul\":2268:2270   */\n      0x40\n        /* \"#utility.yul\":2257:2266   */\n      dup8\n        /* \"#utility.yul\":2253:2271   */\n      add\n        /* \"#utility.yul\":2240:2272   */\n      calldataload\n        /* \"#utility.yul\":2299:2317   */\n      0xffffffffffffffff\n        /* \"#utility.yul\":2291:2297   */\n      dup2\n        /* \"#utility.yul\":2288:2318   */\n      gt\n        /* \"#utility.yul\":2285:2402   */\n      iszero\n      tag_150\n      jumpi\n        /* \"#utility.yul\":2321:2400   */\n      tag_151\n      tag_145\n      jump\t// in\n    tag_151:\n        /* \"#utility.yul\":2285:2402   */\n    tag_150:\n        /* \"#utility.yul\":2426:2489   */\n      tag_152\n        /* \"#utility.yul\":2481:2488   */\n      dup10\n        /* \"#utility.yul\":2472:2478   */\n      dup3\n        /* \"#utility.yul\":2461:2470   */\n      dup11\n        /* \"#utility.yul\":2457:2479   */\n      add\n        /* \"#utility.yul\":2426:2489   */\n      tag_129\n      jump\t// in\n    tag_152:\n        /* \"#utility.yul\":2416:2489   */\n      swap5\n      pop\n        /* \"#utility.yul\":2211:2499   */\n      pop\n        /* \"#utility.yul\":2566:2568   */\n      0x60\n        /* \"#utility.yul\":2555:2564   */\n      dup8\n        /* \"#utility.yul\":2551:2569   */\n      add\n        /* \"#utility.yul\":2538:2570   */\n      calldataload\n        /* \"#utility.yul\":2597:2615   */\n      0xffffffffffffffff\n        /* \"#utility.yul\":2589:2595   */\n      dup2\n        /* \"#utility.yul\":2586:2616   */\n      gt\n        /* \"#utility.yul\":2583:2700   */\n      iszero\n      tag_153\n      jumpi\n        /* \"#utility.yul\":2619:2698   */\n      tag_154\n      tag_145\n      jump\t// in\n    tag_154:\n        /* \"#utility.yul\":2583:2700   */\n    tag_153:\n        /* \"#utility.yul\":2724:2787   */\n      tag_155\n        /* \"#utility.yul\":2779:2786   */\n      dup10\n        /* \"#utility.yul\":2770:2776   */\n      dup3\n        /* \"#utility.yul\":2759:2768   */\n      dup11\n        /* \"#utility.yul\":2755:2777   */\n      add\n        /* \"#utility.yul\":2724:2787   */\n      tag_129\n      jump\t// in\n    tag_155:\n        /* \"#utility.yul\":2714:2787   */\n      swap4\n      pop\n        /* \"#utility.yul\":2509:2797   */\n      pop\n        /* \"#utility.yul\":2864:2867   */\n      0x80\n        /* \"#utility.yul\":2853:2862   */\n      dup8\n        /* \"#utility.yul\":2849:2868   */\n      add\n        /* \"#utility.yul\":2836:2869   */\n      calldataload\n        /* \"#utility.yul\":2896:2914   */\n      0xffffffffffffffff\n        /* \"#utility.yul\":2888:2894   */\n      dup2\n        /* \"#utility.yul\":2885:2915   */\n      gt\n        /* \"#utility.yul\":2882:2999   */\n      iszero\n      tag_156\n      jumpi\n        /* \"#utility.yul\":2918:2997   */\n      tag_157\n      tag_145\n      jump\t// in\n    tag_157:\n        /* \"#utility.yul\":2882:2999   */\n    tag_156:\n        /* \"#utility.yul\":3023:3086   */\n      tag_158\n        /* \"#utility.yul\":3078:3085   */\n      dup10\n        /* \"#utility.yul\":3069:3075   */\n      dup3\n        /* \"#utility.yul\":3058:3067   */\n      dup11\n        /* \"#utility.yul\":3054:3076   */\n      add\n        /* \"#utility.yul\":3023:3086   */\n      tag_129\n      jump\t// in\n    tag_158:\n        /* \"#utility.yul\":3013:3086   */\n      swap3\n      pop\n        /* \"#utility.yul\":2807:3096   */\n      pop\n        /* \"#utility.yul\":3163:3166   */\n      0xa0\n        /* \"#utility.yul\":3152:3161   */\n      dup8\n        /* \"#utility.yul\":3148:3167   */\n      add\n        /* \"#utility.yul\":3135:3168   */\n      calldataload\n        /* \"#utility.yul\":3195:3213   */\n      0xffffffffffffffff\n        /* \"#utility.yul\":3187:3193   */\n      dup2\n        /* \"#utility.yul\":3184:3214   */\n      gt\n        /* \"#utility.yul\":3181:3298   */\n      iszero\n      tag_159\n      jumpi\n        /* \"#utility.yul\":3217:3296   */\n      tag_160\n      tag_145\n      jump\t// in\n    tag_160:\n        /* \"#utility.yul\":3181:3298   */\n    tag_159:\n        /* \"#utility.yul\":3322:3385   */\n      tag_161\n        /* \"#utility.yul\":3377:3384   */\n      dup10\n        /* \"#utility.yul\":3368:3374   */\n      dup3\n        /* \"#utility.yul\":3357:3366   */\n      dup11\n        /* \"#utility.yul\":3353:3375   */\n      add\n        /* \"#utility.yul\":3322:3385   */\n      tag_129\n      jump\t// in\n    tag_161:\n        /* \"#utility.yul\":3312:3385   */\n      swap2\n      pop\n        /* \"#utility.yul\":3106:3395   */\n      pop\n        /* \"#utility.yul\":1265:3402   */\n      swap3\n      swap6\n      pop\n      swap3\n      swap6\n      pop\n      swap3\n      swap6\n      jump\t// out\n        /* \"#utility.yul\":3408:3752   */\n    tag_162:\n        /* \"#utility.yul\":3486:3489   */\n      0x00\n        /* \"#utility.yul\":3514:3553   */\n      tag_164\n        /* \"#utility.yul\":3547:3552   */\n      dup3\n        /* \"#utility.yul\":3514:3553   */\n      tag_165\n      jump\t// in\n    tag_164:\n        /* \"#utility.yul\":3569:3630   */\n      tag_166\n        /* \"#utility.yul\":3623:3629   */\n      dup2\n        /* \"#utility.yul\":3618:3621   */\n      dup6\n        /* \"#utility.yul\":3569:3630   */\n      tag_167\n      jump\t// in\n    tag_166:\n        /* \"#utility.yul\":3562:3630   */\n      swap4\n      pop\n        /* \"#utility.yul\":3639:3691   */\n      tag_168\n        /* \"#utility.yul\":3684:3690   */\n      dup2\n        /* \"#utility.yul\":3679:3682   */\n      dup6\n        /* \"#utility.yul\":3672:3676   */\n      0x20\n        /* \"#utility.yul\":3665:3670   */\n      dup7\n        /* \"#utility.yul\":3661:3677   */\n      add\n        /* \"#utility.yul\":3639:3691   */\n      tag_169\n      jump\t// in\n    tag_168:\n        /* \"#utility.yul\":3716:3745   */\n      tag_170\n        /* \"#utility.yul\":3738:3744   */\n      dup2\n        /* \"#utility.yul\":3716:3745   */\n      tag_171\n      jump\t// in\n    tag_170:\n        /* \"#utility.yul\":3711:3714   */\n      dup5\n        /* \"#utility.yul\":3707:3746   */\n      add\n        /* \"#utility.yul\":3700:3746   */\n      swap2\n      pop\n        /* \"#utility.yul\":3490:3752   */\n      pop\n        /* \"#utility.yul\":3408:3752   */\n      swap3\n      swap2\n      pop\n      pop\n      jump\t// out\n        /* \"#utility.yul\":3758:4122   */\n    tag_172:\n        /* \"#utility.yul\":3846:3849   */\n      0x00\n        /* \"#utility.yul\":3874:3913   */\n      tag_174\n        /* \"#utility.yul\":3907:3912   */\n      dup3\n        /* \"#utility.yul\":3874:3913   */\n      tag_165\n      jump\t// in\n    tag_174:\n        /* \"#utility.yul\":3929:4000   */\n      tag_175\n        /* \"#utility.yul\":3993:3999   */\n      dup2\n        /* \"#utility.yul\":3988:3991   */\n      dup6\n        /* \"#utility.yul\":3929:4000   */\n      tag_176\n      jump\t// in\n    tag_175:\n        /* \"#utility.yul\":3922:4000   */\n      swap4\n      pop\n        /* \"#utility.yul\":4009:4061   */\n      tag_177\n        /* \"#utility.yul\":4054:4060   */\n      dup2\n        /* \"#utility.yul\":4049:4052   */\n      dup6\n        /* \"#utility.yul\":4042:4046   */\n      0x20\n        /* \"#utility.yul\":4035:4040   */\n      dup7\n        /* \"#utility.yul\":4031:4047   */\n      add\n        /* \"#utility.yul\":4009:4061   */\n      tag_169\n      jump\t// in\n    tag_177:\n        /* \"#utility.yul\":4086:4115   */\n      tag_178\n        /* \"#utility.yul\":4108:4114   */\n      dup2\n        /* \"#utility.yul\":4086:4115   */\n      tag_171\n      jump\t// in\n    tag_178:\n        /* \"#utility.yul\":4081:4084   */\n      dup5\n        /* \"#utility.yul\":4077:4116   */\n      add\n        /* \"#utility.yul\":4070:4116   */\n      swap2\n      pop\n        /* \"#utility.yul\":3850:4122   */\n      pop\n        /* \"#utility.yul\":3758:4122   */\n      swap3\n      swap2\n      pop\n      pop\n      jump\t// out\n        /* \"#utility.yul\":4176:6098   */\n    tag_179:\n        /* \"#utility.yul\":4283:4286   */\n      0x00\n        /* \"#utility.yul\":4319:4323   */\n      0xe0\n        /* \"#utility.yul\":4314:4317   */\n      dup4\n        /* \"#utility.yul\":4310:4324   */\n      add\n        /* \"#utility.yul\":4411:4415   */\n      0x00\n        /* \"#utility.yul\":4404:4409   */\n      dup4\n        /* \"#utility.yul\":4400:4416   */\n      add\n        /* \"#utility.yul\":4394:4417   */\n      mload\n        /* \"#utility.yul\":4464:4467   */\n      dup5\n        /* \"#utility.yul\":4458:4462   */\n      dup3\n        /* \"#utility.yul\":4454:4468   */\n      sub\n        /* \"#utility.yul\":4447:4451   */\n      0x00\n        /* \"#utility.yul\":4442:4445   */\n      dup7\n        /* \"#utility.yul\":4438:4452   */\n      add\n        /* \"#utility.yul\":4431:4469   */\n      mstore\n        /* \"#utility.yul\":4490:4563   */\n      tag_181\n        /* \"#utility.yul\":4558:4562   */\n      dup3\n        /* \"#utility.yul\":4544:4556   */\n      dup3\n        /* \"#utility.yul\":4490:4563   */\n      tag_162\n      jump\t// in\n    tag_181:\n        /* \"#utility.yul\":4482:4563   */\n      swap2\n      pop\n        /* \"#utility.yul\":4334:4574   */\n      pop\n        /* \"#utility.yul\":4662:4666   */\n      0x20\n        /* \"#utility.yul\":4655:4660   */\n      dup4\n        /* \"#utility.yul\":4651:4667   */\n      add\n        /* \"#utility.yul\":4645:4668   */\n      mload\n        /* \"#utility.yul\":4715:4718   */\n      dup5\n        /* \"#utility.yul\":4709:4713   */\n      dup3\n        /* \"#utility.yul\":4705:4719   */\n      sub\n        /* \"#utility.yul\":4698:4702   */\n      0x20\n        /* \"#utility.yul\":4693:4696   */\n      dup7\n        /* \"#utility.yul\":4689:4703   */\n      add\n        /* \"#utility.yul\":4682:4720   */\n      mstore\n        /* \"#utility.yul\":4741:4814   */\n      tag_182\n        /* \"#utility.yul\":4809:4813   */\n      dup3\n        /* \"#utility.yul\":4795:4807   */\n      dup3\n        /* \"#utility.yul\":4741:4814   */\n      tag_162\n      jump\t// in\n    tag_182:\n        /* \"#utility.yul\":4733:4814   */\n      swap2\n      pop\n        /* \"#utility.yul\":4584:4825   */\n      pop\n        /* \"#utility.yul\":4911:4915   */\n      0x40\n        /* \"#utility.yul\":4904:4909   */\n      dup4\n        /* \"#utility.yul\":4900:4916   */\n      add\n        /* \"#utility.yul\":4894:4917   */\n      mload\n        /* \"#utility.yul\":4964:4967   */\n      dup5\n        /* \"#utility.yul\":4958:4962   */\n      dup3\n        /* \"#utility.yul\":4954:4968   */\n      sub\n        /* \"#utility.yul\":4947:4951   */\n      0x40\n        /* \"#utility.yul\":4942:4945   */\n      dup7\n        /* \"#utility.yul\":4938:4952   */\n      add\n        /* \"#utility.yul\":4931:4969   */\n      mstore\n        /* \"#utility.yul\":4990:5063   */\n      tag_183\n        /* \"#utility.yul\":5058:5062   */\n      dup3\n        /* \"#utility.yul\":5044:5056   */\n      dup3\n        /* \"#utility.yul\":4990:5063   */\n      tag_162\n      jump\t// in\n    tag_183:\n        /* \"#utility.yul\":4982:5063   */\n      swap2\n      pop\n        /* \"#utility.yul\":4835:5074   */\n      pop\n        /* \"#utility.yul\":5157:5161   */\n      0x60\n        /* \"#utility.yul\":5150:5155   */\n      dup4\n        /* \"#utility.yul\":5146:5162   */\n      add\n        /* \"#utility.yul\":5140:5163   */\n      mload\n        /* \"#utility.yul\":5210:5213   */\n      dup5\n        /* \"#utility.yul\":5204:5208   */\n      dup3\n        /* \"#utility.yul\":5200:5214   */\n      sub\n        /* \"#utility.yul\":5193:5197   */\n      0x60\n        /* \"#utility.yul\":5188:5191   */\n      dup7\n        /* \"#utility.yul\":5184:5198   */\n      add\n        /* \"#utility.yul\":5177:5215   */\n      mstore\n        /* \"#utility.yul\":5236:5309   */\n      tag_184\n        /* \"#utility.yul\":5304:5308   */\n      dup3\n        /* \"#utility.yul\":5290:5302   */\n      dup3\n        /* \"#utility.yul\":5236:5309   */\n      tag_162\n      jump\t// in\n    tag_184:\n        /* \"#utility.yul\":5228:5309   */\n      swap2\n      pop\n        /* \"#utility.yul\":5084:5320   */\n      pop\n        /* \"#utility.yul\":5403:5407   */\n      0x80\n        /* \"#utility.yul\":5396:5401   */\n      dup4\n        /* \"#utility.yul\":5392:5408   */\n      add\n        /* \"#utility.yul\":5386:5409   */\n      mload\n        /* \"#utility.yul\":5456:5459   */\n      dup5\n        /* \"#utility.yul\":5450:5454   */\n      dup3\n        /* \"#utility.yul\":5446:5460   */\n      sub\n        /* \"#utility.yul\":5439:5443   */\n      0x80\n        /* \"#utility.yul\":5434:5437   */\n      dup7\n        /* \"#utility.yul\":5430:5444   */\n      add\n        /* \"#utility.yul\":5423:5461   */\n      mstore\n        /* \"#utility.yul\":5482:5555   */\n      tag_185\n        /* \"#utility.yul\":5550:5554   */\n      dup3\n        /* \"#utility.yul\":5536:5548   */\n      dup3\n        /* \"#utility.yul\":5482:5555   */\n      tag_162\n      jump\t// in\n    tag_185:\n        /* \"#utility.yul\":5474:5555   */\n      swap2\n      pop\n        /* \"#utility.yul\":5330:5566   */\n      pop\n        /* \"#utility.yul\":5656:5660   */\n      0xa0\n        /* \"#utility.yul\":5649:5654   */\n      dup4\n        /* \"#utility.yul\":5645:5661   */\n      add\n        /* \"#utility.yul\":5639:5662   */\n      mload\n        /* \"#utility.yul\":5709:5712   */\n      dup5\n        /* \"#utility.yul\":5703:5707   */\n      dup3\n        /* \"#utility.yul\":5699:5713   */\n      sub\n        /* \"#utility.yul\":5692:5696   */\n      0xa0\n        /* \"#utility.yul\":5687:5690   */\n      dup7\n        /* \"#utility.yul\":5683:5697   */\n      add\n        /* \"#utility.yul\":5676:5714   */\n      mstore\n        /* \"#utility.yul\":5735:5808   */\n      tag_186\n        /* \"#utility.yul\":5803:5807   */\n      dup3\n        /* \"#utility.yul\":5789:5801   */\n      dup3\n        /* \"#utility.yul\":5735:5808   */\n      tag_162\n      jump\t// in\n    tag_186:\n        /* \"#utility.yul\":5727:5808   */\n      swap2\n      pop\n        /* \"#utility.yul\":5576:5819   */\n      pop\n        /* \"#utility.yul\":5908:5912   */\n      0xc0\n        /* \"#utility.yul\":5901:5906   */\n      dup4\n        /* \"#utility.yul\":5897:5913   */\n      add\n        /* \"#utility.yul\":5891:5914   */\n      mload\n        /* \"#utility.yul\":5961:5964   */\n      dup5\n        /* \"#utility.yul\":5955:5959   */\n      dup3\n        /* \"#utility.yul\":5951:5965   */\n      sub\n        /* \"#utility.yul\":5944:5948   */\n      0xc0\n        /* \"#utility.yul\":5939:5942   */\n      dup7\n        /* \"#utility.yul\":5935:5949   */\n      add\n        /* \"#utility.yul\":5928:5966   */\n      mstore\n        /* \"#utility.yul\":5987:6060   */\n      tag_187\n        /* \"#utility.yul\":6055:6059   */\n      dup3\n        /* \"#utility.yul\":6041:6053   */\n      dup3\n        /* \"#utility.yul\":5987:6060   */\n      tag_162\n      jump\t// in\n    tag_187:\n        /* \"#utility.yul\":5979:6060   */\n      swap2\n      pop\n        /* \"#utility.yul\":5829:6071   */\n      pop\n        /* \"#utility.yul\":6088:6092   */\n      dup1\n        /* \"#utility.yul\":6081:6092   */\n      swap2\n      pop\n        /* \"#utility.yul\":4288:6098   */\n      pop\n        /* \"#utility.yul\":4176:6098   */\n      swap3\n      swap2\n      pop\n      pop\n      jump\t// out\n        /* \"#utility.yul\":6104:7627   */\n    tag_20:\n        /* \"#utility.yul\":6505:6509   */\n      0x00\n        /* \"#utility.yul\":6543:6546   */\n      0xe0\n        /* \"#utility.yul\":6532:6541   */\n      dup3\n        /* \"#utility.yul\":6528:6547   */\n      add\n        /* \"#utility.yul\":6520:6547   */\n      swap1\n      pop\n        /* \"#utility.yul\":6593:6602   */\n      dup2\n        /* \"#utility.yul\":6587:6591   */\n      dup2\n        /* \"#utility.yul\":6583:6603   */\n      sub\n        /* \"#utility.yul\":6579:6580   */\n      0x00\n        /* \"#utility.yul\":6568:6577   */\n      dup4\n        /* \"#utility.yul\":6564:6581   */\n      add\n        /* \"#utility.yul\":6557:6604   */\n      mstore\n        /* \"#utility.yul\":6621:6699   */\n      tag_189\n        /* \"#utility.yul\":6694:6698   */\n      dup2\n        /* \"#utility.yul\":6685:6691   */\n      dup11\n        /* \"#utility.yul\":6621:6699   */\n      tag_172\n      jump\t// in\n    tag_189:\n        /* \"#utility.yul\":6613:6699   */\n      swap1\n      pop\n        /* \"#utility.yul\":6746:6755   */\n      dup2\n        /* \"#utility.yul\":6740:6744   */\n      dup2\n        /* \"#utility.yul\":6736:6756   */\n      sub\n        /* \"#utility.yul\":6731:6733   */\n      0x20\n        /* \"#utility.yul\":6720:6729   */\n      dup4\n        /* \"#utility.yul\":6716:6734   */\n      add\n        /* \"#utility.yul\":6709:6757   */\n      mstore\n        /* \"#utility.yul\":6774:6852   */\n      tag_190\n        /* \"#utility.yul\":6847:6851   */\n      dup2\n        /* \"#utility.yul\":6838:6844   */\n      dup10\n        /* \"#utility.yul\":6774:6852   */\n      tag_172\n      jump\t// in\n    tag_190:\n        /* \"#utility.yul\":6766:6852   */\n      swap1\n      pop\n        /* \"#utility.yul\":6899:6908   */\n      dup2\n        /* \"#utility.yul\":6893:6897   */\n      dup2\n        /* \"#utility.yul\":6889:6909   */\n      sub\n        /* \"#utility.yul\":6884:6886   */\n      0x40\n        /* \"#utility.yul\":6873:6882   */\n      dup4\n        /* \"#utility.yul\":6869:6887   */\n      add\n        /* \"#utility.yul\":6862:6910   */\n      mstore\n        /* \"#utility.yul\":6927:7005   */\n      tag_191\n        /* \"#utility.yul\":7000:7004   */\n      dup2\n        /* \"#utility.yul\":6991:6997   */\n      dup9\n        /* \"#utility.yul\":6927:7005   */\n      tag_172\n      jump\t// in\n    tag_191:\n        /* \"#utility.yul\":6919:7005   */\n      swap1\n      pop\n        /* \"#utility.yul\":7052:7061   */\n      dup2\n        /* \"#utility.yul\":7046:7050   */\n      dup2\n        /* \"#utility.yul\":7042:7062   */\n      sub\n        /* \"#utility.yul\":7037:7039   */\n      0x60\n        /* \"#utility.yul\":7026:7035   */\n      dup4\n        /* \"#utility.yul\":7022:7040   */\n      add\n        /* \"#utility.yul\":7015:7063   */\n      mstore\n        /* \"#utility.yul\":7080:7158   */\n      tag_192\n        /* \"#utility.yul\":7153:7157   */\n      dup2\n        /* \"#utility.yul\":7144:7150   */\n      dup8\n        /* \"#utility.yul\":7080:7158   */\n      tag_172\n      jump\t// in\n    tag_192:\n        /* \"#utility.yul\":7072:7158   */\n      swap1\n      pop\n        /* \"#utility.yul\":7206:7215   */\n      dup2\n        /* \"#utility.yul\":7200:7204   */\n      dup2\n        /* \"#utility.yul\":7196:7216   */\n      sub\n        /* \"#utility.yul\":7190:7193   */\n      0x80\n        /* \"#utility.yul\":7179:7188   */\n      dup4\n        /* \"#utility.yul\":7175:7194   */\n      add\n        /* \"#utility.yul\":7168:7217   */\n      mstore\n        /* \"#utility.yul\":7234:7312   */\n      tag_193\n        /* \"#utility.yul\":7307:7311   */\n      dup2\n        /* \"#utility.yul\":7298:7304   */\n      dup7\n        /* \"#utility.yul\":7234:7312   */\n      tag_172\n      jump\t// in\n    tag_193:\n        /* \"#utility.yul\":7226:7312   */\n      swap1\n      pop\n        /* \"#utility.yul\":7360:7369   */\n      dup2\n        /* \"#utility.yul\":7354:7358   */\n      dup2\n        /* \"#utility.yul\":7350:7370   */\n      sub\n        /* \"#utility.yul\":7344:7347   */\n      0xa0\n        /* \"#utility.yul\":7333:7342   */\n      dup4\n        /* \"#utility.yul\":7329:7348   */\n      add\n        /* \"#utility.yul\":7322:7371   */\n      mstore\n        /* \"#utility.yul\":7388:7466   */\n      tag_194\n        /* \"#utility.yul\":7461:7465   */\n      dup2\n        /* \"#utility.yul\":7452:7458   */\n      dup6\n        /* \"#utility.yul\":7388:7466   */\n      tag_172\n      jump\t// in\n    tag_194:\n        /* \"#utility.yul\":7380:7466   */\n      swap1\n      pop\n        /* \"#utility.yul\":7514:7523   */\n      dup2\n        /* \"#utility.yul\":7508:7512   */\n      dup2\n        /* \"#utility.yul\":7504:7524   */\n      sub\n        /* \"#utility.yul\":7498:7501   */\n      0xc0\n        /* \"#utility.yul\":7487:7496   */\n      dup4\n        /* \"#utility.yul\":7483:7502   */\n      add\n        /* \"#utility.yul\":7476:7525   */\n      mstore\n        /* \"#utility.yul\":7542:7620   */\n      tag_195\n        /* \"#utility.yul\":7615:7619   */\n      dup2\n        /* \"#utility.yul\":7606:7612   */\n      dup5\n        /* \"#utility.yul\":7542:7620   */\n      tag_172\n      jump\t// in\n    tag_195:\n        /* \"#utility.yul\":7534:7620   */\n      swap1\n      pop\n        /* \"#utility.yul\":6104:7627   */\n      swap9\n      swap8\n      pop\n      pop\n      pop\n      pop\n      pop\n      pop\n      pop\n      pop\n      jump\t// out\n        /* \"#utility.yul\":7633:7982   */\n    tag_11:\n        /* \"#utility.yul\":7764:7768   */\n      0x00\n        /* \"#utility.yul\":7802:7804   */\n      0x20\n        /* \"#utility.yul\":7791:7800   */\n      dup3\n        /* \"#utility.yul\":7787:7805   */\n      add\n        /* \"#utility.yul\":7779:7805   */\n      swap1\n      pop\n        /* \"#utility.yul\":7851:7860   */\n      dup2\n        /* \"#utility.yul\":7845:7849   */\n      dup2\n        /* \"#utility.yul\":7841:7861   */\n      sub\n        /* \"#utility.yul\":7837:7838   */\n      0x00\n        /* \"#utility.yul\":7826:7835   */\n      dup4\n        /* \"#utility.yul\":7822:7839   */\n      add\n        /* \"#utility.yul\":7815:7862   */\n      mstore\n        /* \"#utility.yul\":7879:7975   */\n      tag_197\n        /* \"#utility.yul\":7970:7974   */\n      dup2\n        /* \"#utility.yul\":7961:7967   */\n      dup5\n        /* \"#utility.yul\":7879:7975   */\n      tag_179\n      jump\t// in\n    tag_197:\n        /* \"#utility.yul\":7871:7975   */\n      swap1\n      pop\n        /* \"#utility.yul\":7633:7982   */\n      swap3\n      swap2\n      pop\n      pop\n      jump\t// out\n        /* \"#utility.yul\":7988:8117   */\n    tag_119:\n        /* \"#utility.yul\":8022:8028   */\n      0x00\n        /* \"#utility.yul\":8049:8069   */\n      tag_199\n      tag_200\n      jump\t// in\n    tag_199:\n        /* \"#utility.yul\":8039:8069   */\n      swap1\n      pop\n        /* \"#utility.yul\":8078:8111   */\n      tag_201\n        /* \"#utility.yul\":8106:8110   */\n      dup3\n        /* \"#utility.yul\":8098:8104   */\n      dup3\n        /* \"#utility.yul\":8078:8111   */\n      tag_202\n      jump\t// in\n    tag_201:\n        /* \"#utility.yul\":7988:8117   */\n      swap2\n      swap1\n      pop\n      jump\t// out\n        /* \"#utility.yul\":8123:8198   */\n    tag_200:\n        /* \"#utility.yul\":8156:8162   */\n      0x00\n        /* \"#utility.yul\":8189:8191   */\n      0x40\n        /* \"#utility.yul\":8183:8192   */\n      mload\n        /* \"#utility.yul\":8173:8192   */\n      swap1\n      pop\n        /* \"#utility.yul\":8123:8198   */\n      swap1\n      jump\t// out\n        /* \"#utility.yul\":8204:8512   */\n    tag_118:\n        /* \"#utility.yul\":8266:8270   */\n      0x00\n        /* \"#utility.yul\":8356:8374   */\n      0xffffffffffffffff\n        /* \"#utility.yul\":8348:8354   */\n      dup3\n        /* \"#utility.yul\":8345:8375   */\n      gt\n        /* \"#utility.yul\":8342:8398   */\n      iszero\n      tag_205\n      jumpi\n        /* \"#utility.yul\":8378:8396   */\n      tag_206\n      tag_207\n      jump\t// in\n    tag_206:\n        /* \"#utility.yul\":8342:8398   */\n    tag_205:\n        /* \"#utility.yul\":8416:8445   */\n      tag_208\n        /* \"#utility.yul\":8438:8444   */\n      dup3\n        /* \"#utility.yul\":8416:8445   */\n      tag_171\n      jump\t// in\n    tag_208:\n        /* \"#utility.yul\":8408:8445   */\n      swap1\n      pop\n        /* \"#utility.yul\":8500:8504   */\n      0x20\n        /* \"#utility.yul\":8494:8498   */\n      dup2\n        /* \"#utility.yul\":8490:8505   */\n      add\n        /* \"#utility.yul\":8482:8505   */\n      swap1\n      pop\n        /* \"#utility.yul\":8204:8512   */\n      swap2\n      swap1\n      pop\n      jump\t// out\n        /* \"#utility.yul\":8518:8617   */\n    tag_165:\n        /* \"#utility.yul\":8570:8576   */\n      0x00\n        /* \"#utility.yul\":8604:8609   */\n      dup2\n        /* \"#utility.yul\":8598:8610   */\n      mload\n        /* \"#utility.yul\":8588:8610   */\n      swap1\n      pop\n        /* \"#utility.yul\":8518:8617   */\n      swap2\n      swap1\n      pop\n      jump\t// out\n        /* \"#utility.yul\":8623:8782   */\n    tag_167:\n        /* \"#utility.yul\":8697:8708   */\n      0x00\n        /* \"#utility.yul\":8731:8737   */\n      dup3\n        /* \"#utility.yul\":8726:8729   */\n      dup3\n        /* \"#utility.yul\":8719:8738   */\n      mstore\n        /* \"#utility.yul\":8771:8775   */\n      0x20\n        /* \"#utility.yul\":8766:8769   */\n      dup3\n        /* \"#utility.yul\":8762:8776   */\n      add\n        /* \"#utility.yul\":8747:8776   */\n      swap1\n      pop\n        /* \"#utility.yul\":8623:8782   */\n      swap3\n      swap2\n      pop\n      pop\n      jump\t// out\n        /* \"#utility.yul\":8788:8957   */\n    tag_176:\n        /* \"#utility.yul\":8872:8883   */\n      0x00\n        /* \"#utility.yul\":8906:8912   */\n      dup3\n        /* \"#utility.yul\":8901:8904   */\n      dup3\n        /* \"#utility.yul\":8894:8913   */\n      mstore\n        /* \"#utility.yul\":8946:8950   */\n      0x20\n        /* \"#utility.yul\":8941:8944   */\n      dup3\n        /* \"#utility.yul\":8937:8951   */\n      add\n        /* \"#utility.yul\":8922:8951   */\n      swap1\n      pop\n        /* \"#utility.yul\":8788:8957   */\n      swap3\n      swap2\n      pop\n      pop\n      jump\t// out\n        /* \"#utility.yul\":8963:9059   */\n    tag_212:\n        /* \"#utility.yul\":9000:9007   */\n      0x00\n        /* \"#utility.yul\":9029:9053   */\n      tag_214\n        /* \"#utility.yul\":9047:9052   */\n      dup3\n        /* \"#utility.yul\":9029:9053   */\n      tag_215\n      jump\t// in\n    tag_214:\n        /* \"#utility.yul\":9018:9053   */\n      swap1\n      pop\n        /* \"#utility.yul\":8963:9059   */\n      swap2\n      swap1\n      pop\n      jump\t// out\n        /* \"#utility.yul\":9065:9191   */\n    tag_215:\n        /* \"#utility.yul\":9102:9109   */\n      0x00\n        /* \"#utility.yul\":9142:9184   */\n      0xffffffffffffffffffffffffffffffffffffffff\n        /* \"#utility.yul\":9135:9140   */\n      dup3\n        /* \"#utility.yul\":9131:9185   */\n      and\n        /* \"#utility.yul\":9120:9185   */\n      swap1\n      pop\n        /* \"#utility.yul\":9065:9191   */\n      swap2\n      swap1\n      pop\n      jump\t// out\n        /* \"#utility.yul\":9197:9351   */\n    tag_124:\n        /* \"#utility.yul\":9281:9287   */\n      dup3\n        /* \"#utility.yul\":9276:9279   */\n      dup2\n        /* \"#utility.yul\":9271:9274   */\n      dup4\n        /* \"#utility.yul\":9258:9288   */\n      calldatacopy\n        /* \"#utility.yul\":9343:9344   */\n      0x00\n        /* \"#utility.yul\":9334:9340   */\n      dup4\n        /* \"#utility.yul\":9329:9332   */\n      dup4\n        /* \"#utility.yul\":9325:9341   */\n      add\n        /* \"#utility.yul\":9318:9345   */\n      mstore\n        /* \"#utility.yul\":9197:9351   */\n      pop\n      pop\n      pop\n      jump\t// out\n        /* \"#utility.yul\":9357:9664   */\n    tag_169:\n        /* \"#utility.yul\":9425:9426   */\n      0x00\n        /* \"#utility.yul\":9435:9548   */\n    tag_219:\n        /* \"#utility.yul\":9449:9455   */\n      dup4\n        /* \"#utility.yul\":9446:9447   */\n      dup2\n        /* \"#utility.yul\":9443:9456   */\n      lt\n        /* \"#utility.yul\":9435:9548   */\n      iszero\n      tag_221\n      jumpi\n        /* \"#utility.yul\":9534:9535   */\n      dup1\n        /* \"#utility.yul\":9529:9532   */\n      dup3\n        /* \"#utility.yul\":9525:9536   */\n      add\n        /* \"#utility.yul\":9519:9537   */\n      mload\n        /* \"#utility.yul\":9515:9516   */\n      dup2\n        /* \"#utility.yul\":9510:9513   */\n      dup5\n        /* \"#utility.yul\":9506:9517   */\n      add\n        /* \"#utility.yul\":9499:9538   */\n      mstore\n        /* \"#utility.yul\":9471:9473   */\n      0x20\n        /* \"#utility.yul\":9468:9469   */\n      dup2\n        /* \"#utility.yul\":9464:9474   */\n      add\n        /* \"#utility.yul\":9459:9474   */\n      swap1\n      pop\n        /* \"#utility.yul\":9435:9548   */\n      jump(tag_219)\n    tag_221:\n        /* \"#utility.yul\":9566:9572   */\n      dup4\n        /* \"#utility.yul\":9563:9564   */\n      dup2\n        /* \"#utility.yul\":9560:9573   */\n      gt\n        /* \"#utility.yul\":9557:9658   */\n      iszero\n      tag_222\n      jumpi\n        /* \"#utility.yul\":9646:9647   */\n      0x00\n        /* \"#utility.yul\":9637:9643   */\n      dup5\n        /* \"#utility.yul\":9632:9635   */\n      dup5\n        /* \"#utility.yul\":9628:9644   */\n      add\n        /* \"#utility.yul\":9621:9648   */\n      mstore\n        /* \"#utility.yul\":9557:9658   */\n    tag_222:\n        /* \"#utility.yul\":9406:9664   */\n      pop\n        /* \"#utility.yul\":9357:9664   */\n      pop\n      pop\n      pop\n      jump\t// out\n        /* \"#utility.yul\":9670:9990   */\n    tag_25:\n        /* \"#utility.yul\":9714:9720   */\n      0x00\n        /* \"#utility.yul\":9751:9752   */\n      0x02\n        /* \"#utility.yul\":9745:9749   */\n      dup3\n        /* \"#utility.yul\":9741:9753   */\n      div\n        /* \"#utility.yul\":9731:9753   */\n      swap1\n      pop\n        /* \"#utility.yul\":9798:9799   */\n      0x01\n        /* \"#utility.yul\":9792:9796   */\n      dup3\n        /* \"#utility.yul\":9788:9800   */\n      and\n        /* \"#utility.yul\":9819:9837   */\n      dup1\n        /* \"#utility.yul\":9809:9890   */\n      tag_224\n      jumpi\n        /* \"#utility.yul\":9875:9879   */\n      0x7f\n        /* \"#utility.yul\":9867:9873   */\n      dup3\n        /* \"#utility.yul\":9863:9880   */\n      and\n        /* \"#utility.yul\":9853:9880   */\n      swap2\n      pop\n        /* \"#utility.yul\":9809:9890   */\n    tag_224:\n        /* \"#utility.yul\":9937:9939   */\n      0x20\n        /* \"#utility.yul\":9929:9935   */\n      dup3\n        /* \"#utility.yul\":9926:9940   */\n      lt\n        /* \"#utility.yul\":9906:9924   */\n      dup2\n        /* \"#utility.yul\":9903:9941   */\n      eq\n        /* \"#utility.yul\":9900:9984   */\n      iszero\n      tag_225\n      jumpi\n        /* \"#utility.yul\":9956:9974   */\n      tag_226\n      tag_227\n      jump\t// in\n    tag_226:\n        /* \"#utility.yul\":9900:9984   */\n    tag_225:\n        /* \"#utility.yul\":9721:9990   */\n      pop\n        /* \"#utility.yul\":9670:9990   */\n      swap2\n      swap1\n      pop\n      jump\t// out\n        /* \"#utility.yul\":9996:10277   */\n    tag_202:\n        /* \"#utility.yul\":10079:10106   */\n      tag_229\n        /* \"#utility.yul\":10101:10105   */\n      dup3\n        /* \"#utility.yul\":10079:10106   */\n      tag_171\n      jump\t// in\n    tag_229:\n        /* \"#utility.yul\":10071:10077   */\n      dup2\n        /* \"#utility.yul\":10067:10107   */\n      add\n        /* \"#utility.yul\":10209:10215   */\n      dup2\n        /* \"#utility.yul\":10197:10207   */\n      dup2\n        /* \"#utility.yul\":10194:10216   */\n      lt\n        /* \"#utility.yul\":10173:10191   */\n      0xffffffffffffffff\n        /* \"#utility.yul\":10161:10171   */\n      dup3\n        /* \"#utility.yul\":10158:10192   */\n      gt\n        /* \"#utility.yul\":10155:10217   */\n      or\n        /* \"#utility.yul\":10152:10240   */\n      iszero\n      tag_230\n      jumpi\n        /* \"#utility.yul\":10220:10238   */\n      tag_231\n      tag_207\n      jump\t// in\n    tag_231:\n        /* \"#utility.yul\":10152:10240   */\n    tag_230:\n        /* \"#utility.yul\":10260:10270   */\n      dup1\n        /* \"#utility.yul\":10256:10258   */\n      0x40\n        /* \"#utility.yul\":10249:10271   */\n      mstore\n        /* \"#utility.yul\":10039:10277   */\n      pop\n        /* \"#utility.yul\":9996:10277   */\n      pop\n      pop\n      jump\t// out\n        /* \"#utility.yul\":10283:10463   */\n    tag_227:\n        /* \"#utility.yul\":10331:10408   */\n      0x4e487b7100000000000000000000000000000000000000000000000000000000\n        /* \"#utility.yul\":10328:10329   */\n      0x00\n        /* \"#utility.yul\":10321:10409   */\n      mstore\n        /* \"#utility.yul\":10428:10432   */\n      0x22\n        /* \"#utility.yul\":10425:10426   */\n      0x04\n        /* \"#utility.yul\":10418:10433   */\n      mstore\n        /* \"#utility.yul\":10452:10456   */\n      0x24\n        /* \"#utility.yul\":10449:10450   */\n      0x00\n        /* \"#utility.yul\":10442:10457   */\n      revert\n        /* \"#utility.yul\":10469:10649   */\n    tag_207:\n        /* \"#utility.yul\":10517:10594   */\n      0x4e487b7100000000000000000000000000000000000000000000000000000000\n        /* \"#utility.yul\":10514:10515   */\n      0x00\n        /* \"#utility.yul\":10507:10595   */\n      mstore\n        /* \"#utility.yul\":10614:10618   */\n      0x41\n        /* \"#utility.yul\":10611:10612   */\n      0x04\n        /* \"#utility.yul\":10604:10619   */\n      mstore\n        /* \"#utility.yul\":10638:10642   */\n      0x24\n        /* \"#utility.yul\":10635:10636   */\n      0x00\n        /* \"#utility.yul\":10628:10643   */\n      revert\n        /* \"#utility.yul\":10655:10772   */\n    tag_133:\n        /* \"#utility.yul\":10764:10765   */\n      0x00\n        /* \"#utility.yul\":10761:10762   */\n      dup1\n        /* \"#utility.yul\":10754:10766   */\n      revert\n        /* \"#utility.yul\":10778:10895   */\n    tag_122:\n        /* \"#utility.yul\":10887:10888   */\n      0x00\n        /* \"#utility.yul\":10884:10885   */\n      dup1\n        /* \"#utility.yul\":10877:10889   */\n      revert\n        /* \"#utility.yul\":10901:11018   */\n    tag_145:\n        /* \"#utility.yul\":11010:11011   */\n      0x00\n        /* \"#utility.yul\":11007:11008   */\n      dup1\n        /* \"#utility.yul\":11000:11012   */\n      revert\n        /* \"#utility.yul\":11024:11141   */\n    tag_138:\n        /* \"#utility.yul\":11133:11134   */\n      0x00\n        /* \"#utility.yul\":11130:11131   */\n      dup1\n        /* \"#utility.yul\":11123:11135   */\n      revert\n        /* \"#utility.yul\":11147:11249   */\n    tag_171:\n        /* \"#utility.yul\":11188:11194   */\n      0x00\n        /* \"#utility.yul\":11239:11241   */\n      0x1f\n        /* \"#utility.yul\":11235:11242   */\n      not\n        /* \"#utility.yul\":11230:11232   */\n      0x1f\n        /* \"#utility.yul\":11223:11228   */\n      dup4\n        /* \"#utility.yul\":11219:11233   */\n      add\n        /* \"#utility.yul\":11215:11243   */\n      and\n        /* \"#utility.yul\":11205:11243   */\n      swap1\n      pop\n        /* \"#utility.yul\":11147:11249   */\n      swap2\n      swap1\n      pop\n      jump\t// out\n        /* \"#utility.yul\":11255:11377   */\n    tag_128:\n        /* \"#utility.yul\":11328:11352   */\n      tag_240\n        /* \"#utility.yul\":11346:11351   */\n      dup2\n        /* \"#utility.yul\":11328:11352   */\n      tag_212\n      jump\t// in\n    tag_240:\n        /* \"#utility.yul\":11321:11326   */\n      dup2\n        /* \"#utility.yul\":11318:11353   */\n      eq\n        /* \"#utility.yul\":11308:11371   */\n      tag_241\n      jumpi\n        /* \"#utility.yul\":11367:11368   */\n      0x00\n        /* \"#utility.yul\":11364:11365   */\n      dup1\n        /* \"#utility.yul\":11357:11369   */\n      revert\n        /* \"#utility.yul\":11308:11371   */\n    tag_241:\n        /* \"#utility.yul\":11255:11377   */\n      pop\n      jump\t// out\n\n    auxdata: 0xa2646970667358221220e14af3c4384b1b25e30aed4ac68b71c565cca1f37ce59e3fadae24b1d919b63e64736f6c63430008070033\n}\n",
				"bytecode": {
					"linkReferences": {},
					"object": "608060405234801561001057600080fd5b5061120f806100206000396000f3fe608060405234801561001057600080fd5b50600436106100415760003560e01c80633fd0bf1714610046578063721041af146100765780639dd9d0fd14610092575b600080fd5b610060600480360381019061005b9190610c89565b6100c8565b60405161006d9190610fc3565b60405180910390f35b610090600480360381019061008b9190610cb6565b61051e565b005b6100ac60048036038101906100a79190610c89565b61072a565b6040516100bf9796959493929190610f23565b60405180910390f35b6100d0610b24565b6000808373ffffffffffffffffffffffffffffffffffffffff1673ffffffffffffffffffffffffffffffffffffffff1681526020019081526020016000206040518060e0016040529081600082018054610129906110dc565b80601f0160208091040260200160405190810160405280929190818152602001828054610155906110dc565b80156101a25780601f10610177576101008083540402835291602001916101a2565b820191906000526020600020905b81548152906001019060200180831161018557829003601f168201915b505050505081526020016001820180546101bb906110dc565b80601f01602080910402602001604051908101604052809291908181526020018280546101e7906110dc565b80156102345780601f1061020957610100808354040283529160200191610234565b820191906000526020600020905b81548152906001019060200180831161021757829003601f168201915b5050505050815260200160028201805461024d906110dc565b80601f0160208091040260200160405190810160405280929190818152602001828054610279906110dc565b80156102c65780601f1061029b576101008083540402835291602001916102c6565b820191906000526020600020905b8154815290600101906020018083116102a957829003601f168201915b505050505081526020016003820180546102df906110dc565b80601f016020809104026020016040519081016040528092919081815260200182805461030b906110dc565b80156103585780601f1061032d57610100808354040283529160200191610358565b820191906000526020600020905b81548152906001019060200180831161033b57829003601f168201915b50505050508152602001600482018054610371906110dc565b80601f016020809104026020016040519081016040528092919081815260200182805461039d906110dc565b80156103ea5780601f106103bf576101008083540402835291602001916103ea565b820191906000526020600020905b8154815290600101906020018083116103cd57829003601f168201915b50505050508152602001600582018054610403906110dc565b80601f016020809104026020016040519081016040528092919081815260200182805461042f906110dc565b801561047c5780601f106104515761010080835404028352916020019161047c565b820191906000526020600020905b81548152906001019060200180831161045f57829003601f168201915b50505050508152602001600682018054610495906110dc565b80601f01602080910402602001604051908101604052809291908181526020018280546104c1906110dc565b801561050e5780601f106104e35761010080835404028352916020019161050e565b820191906000526020600020905b8154815290600101906020018083116104f157829003601f168201915b5050505050815250509050919050565b856000803373ffffffffffffffffffffffffffffffffffffffff1673ffffffffffffffffffffffffffffffffffffffff1681526020019081526020016000206000019080519060200190610573929190610b61565b50846000803373ffffffffffffffffffffffffffffffffffffffff1673ffffffffffffffffffffffffffffffffffffffff16815260200190815260200160002060010190805190602001906105c9929190610b61565b50836000803373ffffffffffffffffffffffffffffffffffffffff1673ffffffffffffffffffffffffffffffffffffffff168152602001908152602001600020600201908051906020019061061f929190610b61565b50826000803373ffffffffffffffffffffffffffffffffffffffff1673ffffffffffffffffffffffffffffffffffffffff1681526020019081526020016000206003019080519060200190610675929190610b61565b50816000803373ffffffffffffffffffffffffffffffffffffffff1673ffffffffffffffffffffffffffffffffffffffff16815260200190815260200160002060040190805190602001906106cb929190610b61565b50806000803373ffffffffffffffffffffffffffffffffffffffff1673ffffffffffffffffffffffffffffffffffffffff1681526020019081526020016000206005019080519060200190610721929190610b61565b50505050505050565b600060205280600052604060002060009150905080600001805461074d906110dc565b80601f0160208091040260200160405190810160405280929190818152602001828054610779906110dc565b80156107c65780601f1061079b576101008083540402835291602001916107c6565b820191906000526020600020905b8154815290600101906020018083116107a957829003601f168201915b5050505050908060010180546107db906110dc565b80601f0160208091040260200160405190810160405280929190818152602001828054610807906110dc565b80156108545780601f1061082957610100808354040283529160200191610854565b820191906000526020600020905b81548152906001019060200180831161083757829003601f168201915b505050505090806002018054610869906110dc565b80601f0160208091040260200160405190810160405280929190818152602001828054610895906110dc565b80156108e25780601f106108b7576101008083540402835291602001916108e2565b820191906000526020600020905b8154815290600101906020018083116108c557829003601f168201915b5050505050908060030180546108f7906110dc565b80601f0160208091040260200160405190810160405280929190818152602001828054610923906110dc565b80156109705780601f1061094557610100808354040283529160200191610970565b820191906000526020600020905b81548152906001019060200180831161095357829003601f168201915b505050505090806004018054610985906110dc565b80601f01602080910402602001604051908101604052809291908181526020018280546109b1906110dc565b80156109fe5780601f106109d3576101008083540402835291602001916109fe565b820191906000526020600020905b8154815290600101906020018083116109e157829003601f168201915b505050505090806005018054610a13906110dc565b80601f0160208091040260200160405190810160405280929190818152602001828054610a3f906110dc565b8015610a8c5780601f10610a6157610100808354040283529160200191610a8c565b820191906000526020600020905b815481529060010190602001808311610a6f57829003601f168201915b505050505090806006018054610aa1906110dc565b80601f0160208091040260200160405190810160405280929190818152602001828054610acd906110dc565b8015610b1a5780601f10610aef57610100808354040283529160200191610b1a565b820191906000526020600020905b815481529060010190602001808311610afd57829003601f168201915b5050505050905087565b6040518060e00160405280606081526020016060815260200160608152602001606081526020016060815260200160608152602001606081525090565b828054610b6d906110dc565b90600052602060002090601f016020900481019282610b8f5760008555610bd6565b82601f10610ba857805160ff1916838001178555610bd6565b82800160010185558215610bd6579182015b82811115610bd5578251825591602001919060010190610bba565b5b509050610be39190610be7565b5090565b5b80821115610c00576000816000905550600101610be8565b5090565b6000610c17610c128461100a565b610fe5565b905082815260208101848484011115610c3357610c326111a2565b5b610c3e84828561109a565b509392505050565b600081359050610c55816111c2565b92915050565b600082601f830112610c7057610c6f61119d565b5b8135610c80848260208601610c04565b91505092915050565b600060208284031215610c9f57610c9e6111ac565b5b6000610cad84828501610c46565b91505092915050565b60008060008060008060c08789031215610cd357610cd26111ac565b5b600087013567ffffffffffffffff811115610cf157610cf06111a7565b5b610cfd89828a01610c5b565b965050602087013567ffffffffffffffff811115610d1e57610d1d6111a7565b5b610d2a89828a01610c5b565b955050604087013567ffffffffffffffff811115610d4b57610d4a6111a7565b5b610d5789828a01610c5b565b945050606087013567ffffffffffffffff811115610d7857610d776111a7565b5b610d8489828a01610c5b565b935050608087013567ffffffffffffffff811115610da557610da46111a7565b5b610db189828a01610c5b565b92505060a087013567ffffffffffffffff811115610dd257610dd16111a7565b5b610dde89828a01610c5b565b9150509295509295509295565b6000610df68261103b565b610e008185611046565b9350610e108185602086016110a9565b610e19816111b1565b840191505092915050565b6000610e2f8261103b565b610e398185611057565b9350610e498185602086016110a9565b610e52816111b1565b840191505092915050565b600060e0830160008301518482036000860152610e7a8282610deb565b91505060208301518482036020860152610e948282610deb565b91505060408301518482036040860152610eae8282610deb565b91505060608301518482036060860152610ec88282610deb565b91505060808301518482036080860152610ee28282610deb565b91505060a083015184820360a0860152610efc8282610deb565b91505060c083015184820360c0860152610f168282610deb565b9150508091505092915050565b600060e0820190508181036000830152610f3d818a610e24565b90508181036020830152610f518189610e24565b90508181036040830152610f658188610e24565b90508181036060830152610f798187610e24565b90508181036080830152610f8d8186610e24565b905081810360a0830152610fa18185610e24565b905081810360c0830152610fb58184610e24565b905098975050505050505050565b60006020820190508181036000830152610fdd8184610e5d565b905092915050565b6000610fef611000565b9050610ffb828261110e565b919050565b6000604051905090565b600067ffffffffffffffff8211156110255761102461116e565b5b61102e826111b1565b9050602081019050919050565b600081519050919050565b600082825260208201905092915050565b600082825260208201905092915050565b60006110738261107a565b9050919050565b600073ffffffffffffffffffffffffffffffffffffffff82169050919050565b82818337600083830152505050565b60005b838110156110c75780820151818401526020810190506110ac565b838111156110d6576000848401525b50505050565b600060028204905060018216806110f457607f821691505b602082108114156111085761110761113f565b5b50919050565b611117826111b1565b810181811067ffffffffffffffff821117156111365761113561116e565b5b80604052505050565b7f4e487b7100000000000000000000000000000000000000000000000000000000600052602260045260246000fd5b7f4e487b7100000000000000000000000000000000000000000000000000000000600052604160045260246000fd5b600080fd5b600080fd5b600080fd5b600080fd5b6000601f19601f8301169050919050565b6111cb81611068565b81146111d657600080fd5b5056fea2646970667358221220e14af3c4384b1b25e30aed4ac68b71c565cca1f37ce59e3fadae24b1d919b63e64736f6c63430008070033",
					"opcodes": "PUSH1 0x80 PUSH1 0x40 MSTORE CALLVALUE DUP1 ISZERO PUSH2 0x10 JUMPI PUSH1 0x0 DUP1 REVERT JUMPDEST POP PUSH2 0x120F DUP1 PUSH2 0x20 PUSH1 0x0 CODECOPY PUSH1 0x0 RETURN INVALID PUSH1 0x80 PUSH1 0x40 MSTORE CALLVALUE DUP1 ISZERO PUSH2 0x10 JUMPI PUSH1 0x0 DUP1 REVERT JUMPDEST POP PUSH1 0x4 CALLDATASIZE LT PUSH2 0x41 JUMPI PUSH1 0x0 CALLDATALOAD PUSH1 0xE0 SHR DUP1 PUSH4 0x3FD0BF17 EQ PUSH2 0x46 JUMPI DUP1 PUSH4 0x721041AF EQ PUSH2 0x76 JUMPI DUP1 PUSH4 0x9DD9D0FD EQ PUSH2 0x92 JUMPI JUMPDEST PUSH1 0x0 DUP1 REVERT JUMPDEST PUSH2 0x60 PUSH1 0x4 DUP1 CALLDATASIZE SUB DUP2 ADD SWAP1 PUSH2 0x5B SWAP2 SWAP1 PUSH2 0xC89 JUMP JUMPDEST PUSH2 0xC8 JUMP JUMPDEST PUSH1 0x40 MLOAD PUSH2 0x6D SWAP2 SWAP1 PUSH2 0xFC3 JUMP JUMPDEST PUSH1 0x40 MLOAD DUP1 SWAP2 SUB SWAP1 RETURN JUMPDEST PUSH2 0x90 PUSH1 0x4 DUP1 CALLDATASIZE SUB DUP2 ADD SWAP1 PUSH2 0x8B SWAP2 SWAP1 PUSH2 0xCB6 JUMP JUMPDEST PUSH2 0x51E JUMP JUMPDEST STOP JUMPDEST PUSH2 0xAC PUSH1 0x4 DUP1 CALLDATASIZE SUB DUP2 ADD SWAP1 PUSH2 0xA7 SWAP2 SWAP1 PUSH2 0xC89 JUMP JUMPDEST PUSH2 0x72A JUMP JUMPDEST PUSH1 0x40 MLOAD PUSH2 0xBF SWAP8 SWAP7 SWAP6 SWAP5 SWAP4 SWAP3 SWAP2 SWAP1 PUSH2 0xF23 JUMP JUMPDEST PUSH1 0x40 MLOAD DUP1 SWAP2 SUB SWAP1 RETURN JUMPDEST PUSH2 0xD0 PUSH2 0xB24 JUMP JUMPDEST PUSH1 0x0 DUP1 DUP4 PUSH20 0xFFFFFFFFFFFFFFFFFFFFFFFFFFFFFFFFFFFFFFFF AND PUSH20 0xFFFFFFFFFFFFFFFFFFFFFFFFFFFFFFFFFFFFFFFF AND DUP2 MSTORE PUSH1 0x20 ADD SWAP1 DUP2 MSTORE PUSH1 0x20 ADD PUSH1 0x0 KECCAK256 PUSH1 0x40 MLOAD DUP1 PUSH1 0xE0 ADD PUSH1 0x40 MSTORE SWAP1 DUP2 PUSH1 0x0 DUP3 ADD DUP1 SLOAD PUSH2 0x129 SWAP1 PUSH2 0x10DC JUMP JUMPDEST DUP1 PUSH1 0x1F ADD PUSH1 0x20 DUP1 SWAP2 DIV MUL PUSH1 0x20 ADD PUSH1 0x40 MLOAD SWAP1 DUP2 ADD PUSH1 0x40 MSTORE DUP1 SWAP3 SWAP2 SWAP1 DUP2 DUP2 MSTORE PUSH1 0x20 ADD DUP3 DUP1 SLOAD PUSH2 0x155 SWAP1 PUSH2 0x10DC JUMP JUMPDEST DUP1 ISZERO PUSH2 0x1A2 JUMPI DUP1 PUSH1 0x1F LT PUSH2 0x177 JUMPI PUSH2 0x100 DUP1 DUP4 SLOAD DIV MUL DUP4 MSTORE SWAP2 PUSH1 0x20 ADD SWAP2 PUSH2 0x1A2 JUMP JUMPDEST DUP3 ADD SWAP2 SWAP1 PUSH1 0x0 MSTORE PUSH1 0x20 PUSH1 0x0 KECCAK256 SWAP1 JUMPDEST DUP2 SLOAD DUP2 MSTORE SWAP1 PUSH1 0x1 ADD SWAP1 PUSH1 0x20 ADD DUP1 DUP4 GT PUSH2 0x185 JUMPI DUP3 SWAP1 SUB PUSH1 0x1F AND DUP3 ADD SWAP2 JUMPDEST POP POP POP POP POP DUP2 MSTORE PUSH1 0x20 ADD PUSH1 0x1 DUP3 ADD DUP1 SLOAD PUSH2 0x1BB SWAP1 PUSH2 0x10DC JUMP JUMPDEST DUP1 PUSH1 0x1F ADD PUSH1 0x20 DUP1 SWAP2 DIV MUL PUSH1 0x20 ADD PUSH1 0x40 MLOAD SWAP1 DUP2 ADD PUSH1 0x40 MSTORE DUP1 SWAP3 SWAP2 SWAP1 DUP2 DUP2 MSTORE PUSH1 0x20 ADD DUP3 DUP1 SLOAD PUSH2 0x1E7 SWAP1 PUSH2 0x10DC JUMP JUMPDEST DUP1 ISZERO PUSH2 0x234 JUMPI DUP1 PUSH1 0x1F LT PUSH2 0x209 JUMPI PUSH2 0x100 DUP1 DUP4 SLOAD DIV MUL DUP4 MSTORE SWAP2 PUSH1 0x20 ADD SWAP2 PUSH2 0x234 JUMP JUMPDEST DUP3 ADD SWAP2 SWAP1 PUSH1 0x0 MSTORE PUSH1 0x20 PUSH1 0x0 KECCAK256 SWAP1 JUMPDEST DUP2 SLOAD DUP2 MSTORE SWAP1 PUSH1 0x1 ADD SWAP1 PUSH1 0x20 ADD DUP1 DUP4 GT PUSH2 0x217 JUMPI DUP3 SWAP1 SUB PUSH1 0x1F AND DUP3 ADD SWAP2 JUMPDEST POP POP POP POP POP DUP2 MSTORE PUSH1 0x20 ADD PUSH1 0x2 DUP3 ADD DUP1 SLOAD PUSH2 0x24D SWAP1 PUSH2 0x10DC JUMP JUMPDEST DUP1 PUSH1 0x1F ADD PUSH1 0x20 DUP1 SWAP2 DIV MUL PUSH1 0x20 ADD PUSH1 0x40 MLOAD SWAP1 DUP2 ADD PUSH1 0x40 MSTORE DUP1 SWAP3 SWAP2 SWAP1 DUP2 DUP2 MSTORE PUSH1 0x20 ADD DUP3 DUP1 SLOAD PUSH2 0x279 SWAP1 PUSH2 0x10DC JUMP JUMPDEST DUP1 ISZERO PUSH2 0x2C6 JUMPI DUP1 PUSH1 0x1F LT PUSH2 0x29B JUMPI PUSH2 0x100 DUP1 DUP4 SLOAD DIV MUL DUP4 MSTORE SWAP2 PUSH1 0x20 ADD SWAP2 PUSH2 0x2C6 JUMP JUMPDEST DUP3 ADD SWAP2 SWAP1 PUSH1 0x0 MSTORE PUSH1 0x20 PUSH1 0x0 KECCAK256 SWAP1 JUMPDEST DUP2 SLOAD DUP2 MSTORE SWAP1 PUSH1 0x1 ADD SWAP1 PUSH1 0x20 ADD DUP1 DUP4 GT PUSH2 0x2A9 JUMPI DUP3 SWAP1 SUB PUSH1 0x1F AND DUP3 ADD SWAP2 JUMPDEST POP POP POP POP POP DUP2 MSTORE PUSH1 0x20 ADD PUSH1 0x3 DUP3 ADD DUP1 SLOAD PUSH2 0x2DF SWAP1 PUSH2 0x10DC JUMP JUMPDEST DUP1 PUSH1 0x1F ADD PUSH1 0x20 DUP1 SWAP2 DIV MUL PUSH1 0x20 ADD PUSH1 0x40 MLOAD SWAP1 DUP2 ADD PUSH1 0x40 MSTORE DUP1 SWAP3 SWAP2 SWAP1 DUP2 DUP2 MSTORE PUSH1 0x20 ADD DUP3 DUP1 SLOAD PUSH2 0x30B SWAP1 PUSH2 0x10DC JUMP JUMPDEST DUP1 ISZERO PUSH2 0x358 JUMPI DUP1 PUSH1 0x1F LT PUSH2 0x32D JUMPI PUSH2 0x100 DUP1 DUP4 SLOAD DIV MUL DUP4 MSTORE SWAP2 PUSH1 0x20 ADD SWAP2 PUSH2 0x358 JUMP JUMPDEST DUP3 ADD SWAP2 SWAP1 PUSH1 0x0 MSTORE PUSH1 0x20 PUSH1 0x0 KECCAK256 SWAP1 JUMPDEST DUP2 SLOAD DUP2 MSTORE SWAP1 PUSH1 0x1 ADD SWAP1 PUSH1 0x20 ADD DUP1 DUP4 GT PUSH2 0x33B JUMPI DUP3 SWAP1 SUB PUSH1 0x1F AND DUP3 ADD SWAP2 JUMPDEST POP POP POP POP POP DUP2 MSTORE PUSH1 0x20 ADD PUSH1 0x4 DUP3 ADD DUP1 SLOAD PUSH2 0x371 SWAP1 PUSH2 0x10DC JUMP JUMPDEST DUP1 PUSH1 0x1F ADD PUSH1 0x20 DUP1 SWAP2 DIV MUL PUSH1 0x20 ADD PUSH1 0x40 MLOAD SWAP1 DUP2 ADD PUSH1 0x40 MSTORE DUP1 SWAP3 SWAP2 SWAP1 DUP2 DUP2 MSTORE PUSH1 0x20 ADD DUP3 DUP1 SLOAD PUSH2 0x39D SWAP1 PUSH2 0x10DC JUMP JUMPDEST DUP1 ISZERO PUSH2 0x3EA JUMPI DUP1 PUSH1 0x1F LT PUSH2 0x3BF JUMPI PUSH2 0x100 DUP1 DUP4 SLOAD DIV MUL DUP4 MSTORE SWAP2 PUSH1 0x20 ADD SWAP2 PUSH2 0x3EA JUMP JUMPDEST DUP3 ADD SWAP2 SWAP1 PUSH1 0x0 MSTORE PUSH1 0x20 PUSH1 0x0 KECCAK256 SWAP1 JUMPDEST DUP2 SLOAD DUP2 MSTORE SWAP1 PUSH1 0x1 ADD SWAP1 PUSH1 0x20 ADD DUP1 DUP4 GT PUSH2 0x3CD JUMPI DUP3 SWAP1 SUB PUSH1 0x1F AND DUP3 ADD SWAP2 JUMPDEST POP POP POP POP POP DUP2 MSTORE PUSH1 0x20 ADD PUSH1 0x5 DUP3 ADD DUP1 SLOAD PUSH2 0x403 SWAP1 PUSH2 0x10DC JUMP JUMPDEST DUP1 PUSH1 0x1F ADD PUSH1 0x20 DUP1 SWAP2 DIV MUL PUSH1 0x20 ADD PUSH1 0x40 MLOAD SWAP1 DUP2 ADD PUSH1 0x40 MSTORE DUP1 SWAP3 SWAP2 SWAP1 DUP2 DUP2 MSTORE PUSH1 0x20 ADD DUP3 DUP1 SLOAD PUSH2 0x42F SWAP1 PUSH2 0x10DC JUMP JUMPDEST DUP1 ISZERO PUSH2 0x47C JUMPI DUP1 PUSH1 0x1F LT PUSH2 0x451 JUMPI PUSH2 0x100 DUP1 DUP4 SLOAD DIV MUL DUP4 MSTORE SWAP2 PUSH1 0x20 ADD SWAP2 PUSH2 0x47C JUMP JUMPDEST DUP3 ADD SWAP2 SWAP1 PUSH1 0x0 MSTORE PUSH1 0x20 PUSH1 0x0 KECCAK256 SWAP1 JUMPDEST DUP2 SLOAD DUP2 MSTORE SWAP1 PUSH1 0x1 ADD SWAP1 PUSH1 0x20 ADD DUP1 DUP4 GT PUSH2 0x45F JUMPI DUP3 SWAP1 SUB PUSH1 0x1F AND DUP3 ADD SWAP2 JUMPDEST POP POP POP POP POP DUP2 MSTORE PUSH1 0x20 ADD PUSH1 0x6 DUP3 ADD DUP1 SLOAD PUSH2 0x495 SWAP1 PUSH2 0x10DC JUMP JUMPDEST DUP1 PUSH1 0x1F ADD PUSH1 0x20 DUP1 SWAP2 DIV MUL PUSH1 0x20 ADD PUSH1 0x40 MLOAD SWAP1 DUP2 ADD PUSH1 0x40 MSTORE DUP1 SWAP3 SWAP2 SWAP1 DUP2 DUP2 MSTORE PUSH1 0x20 ADD DUP3 DUP1 SLOAD PUSH2 0x4C1 SWAP1 PUSH2 0x10DC JUMP JUMPDEST DUP1 ISZERO PUSH2 0x50E JUMPI DUP1 PUSH1 0x1F LT PUSH2 0x4E3 JUMPI PUSH2 0x100 DUP1 DUP4 SLOAD DIV MUL DUP4 MSTORE SWAP2 PUSH1 0x20 ADD SWAP2 PUSH2 0x50E JUMP JUMPDEST DUP3 ADD SWAP2 SWAP1 PUSH1 0x0 MSTORE PUSH1 0x20 PUSH1 0x0 KECCAK256 SWAP1 JUMPDEST DUP2 SLOAD DUP2 MSTORE SWAP1 PUSH1 0x1 ADD SWAP1 PUSH1 0x20 ADD DUP1 DUP4 GT PUSH2 0x4F1 JUMPI DUP3 SWAP1 SUB PUSH1 0x1F AND DUP3 ADD SWAP2 JUMPDEST POP POP POP POP POP DUP2 MSTORE POP POP SWAP1 POP SWAP2 SWAP1 POP JUMP JUMPDEST DUP6 PUSH1 0x0 DUP1 CALLER PUSH20 0xFFFFFFFFFFFFFFFFFFFFFFFFFFFFFFFFFFFFFFFF AND PUSH20 0xFFFFFFFFFFFFFFFFFFFFFFFFFFFFFFFFFFFFFFFF AND DUP2 MSTORE PUSH1 0x20 ADD SWAP1 DUP2 MSTORE PUSH1 0x20 ADD PUSH1 0x0 KECCAK256 PUSH1 0x0 ADD SWAP1 DUP1 MLOAD SWAP1 PUSH1 0x20 ADD SWAP1 PUSH2 0x573 SWAP3 SWAP2 SWAP1 PUSH2 0xB61 JUMP JUMPDEST POP DUP5 PUSH1 0x0 DUP1 CALLER PUSH20 0xFFFFFFFFFFFFFFFFFFFFFFFFFFFFFFFFFFFFFFFF AND PUSH20 0xFFFFFFFFFFFFFFFFFFFFFFFFFFFFFFFFFFFFFFFF AND DUP2 MSTORE PUSH1 0x20 ADD SWAP1 DUP2 MSTORE PUSH1 0x20 ADD PUSH1 0x0 KECCAK256 PUSH1 0x1 ADD SWAP1 DUP1 MLOAD SWAP1 PUSH1 0x20 ADD SWAP1 PUSH2 0x5C9 SWAP3 SWAP2 SWAP1 PUSH2 0xB61 JUMP JUMPDEST POP DUP4 PUSH1 0x0 DUP1 CALLER PUSH20 0xFFFFFFFFFFFFFFFFFFFFFFFFFFFFFFFFFFFFFFFF AND PUSH20 0xFFFFFFFFFFFFFFFFFFFFFFFFFFFFFFFFFFFFFFFF AND DUP2 MSTORE PUSH1 0x20 ADD SWAP1 DUP2 MSTORE PUSH1 0x20 ADD PUSH1 0x0 KECCAK256 PUSH1 0x2 ADD SWAP1 DUP1 MLOAD SWAP1 PUSH1 0x20 ADD SWAP1 PUSH2 0x61F SWAP3 SWAP2 SWAP1 PUSH2 0xB61 JUMP JUMPDEST POP DUP3 PUSH1 0x0 DUP1 CALLER PUSH20 0xFFFFFFFFFFFFFFFFFFFFFFFFFFFFFFFFFFFFFFFF AND PUSH20 0xFFFFFFFFFFFFFFFFFFFFFFFFFFFFFFFFFFFFFFFF AND DUP2 MSTORE PUSH1 0x20 ADD SWAP1 DUP2 MSTORE PUSH1 0x20 ADD PUSH1 0x0 KECCAK256 PUSH1 0x3 ADD SWAP1 DUP1 MLOAD SWAP1 PUSH1 0x20 ADD SWAP1 PUSH2 0x675 SWAP3 SWAP2 SWAP1 PUSH2 0xB61 JUMP JUMPDEST POP DUP2 PUSH1 0x0 DUP1 CALLER PUSH20 0xFFFFFFFFFFFFFFFFFFFFFFFFFFFFFFFFFFFFFFFF AND PUSH20 0xFFFFFFFFFFFFFFFFFFFFFFFFFFFFFFFFFFFFFFFF AND DUP2 MSTORE PUSH1 0x20 ADD SWAP1 DUP2 MSTORE PUSH1 0x20 ADD PUSH1 0x0 KECCAK256 PUSH1 0x4 ADD SWAP1 DUP1 MLOAD SWAP1 PUSH1 0x20 ADD SWAP1 PUSH2 0x6CB SWAP3 SWAP2 SWAP1 PUSH2 0xB61 JUMP JUMPDEST POP DUP1 PUSH1 0x0 DUP1 CALLER PUSH20 0xFFFFFFFFFFFFFFFFFFFFFFFFFFFFFFFFFFFFFFFF AND PUSH20 0xFFFFFFFFFFFFFFFFFFFFFFFFFFFFFFFFFFFFFFFF AND DUP2 MSTORE PUSH1 0x20 ADD SWAP1 DUP2 MSTORE PUSH1 0x20 ADD PUSH1 0x0 KECCAK256 PUSH1 0x5 ADD SWAP1 DUP1 MLOAD SWAP1 PUSH1 0x20 ADD SWAP1 PUSH2 0x721 SWAP3 SWAP2 SWAP1 PUSH2 0xB61 JUMP JUMPDEST POP POP POP POP POP POP POP JUMP JUMPDEST PUSH1 0x0 PUSH1 0x20 MSTORE DUP1 PUSH1 0x0 MSTORE PUSH1 0x40 PUSH1 0x0 KECCAK256 PUSH1 0x0 SWAP2 POP SWAP1 POP DUP1 PUSH1 0x0 ADD DUP1 SLOAD PUSH2 0x74D SWAP1 PUSH2 0x10DC JUMP JUMPDEST DUP1 PUSH1 0x1F ADD PUSH1 0x20 DUP1 SWAP2 DIV MUL PUSH1 0x20 ADD PUSH1 0x40 MLOAD SWAP1 DUP2 ADD PUSH1 0x40 MSTORE DUP1 SWAP3 SWAP2 SWAP1 DUP2 DUP2 MSTORE PUSH1 0x20 ADD DUP3 DUP1 SLOAD PUSH2 0x779 SWAP1 PUSH2 0x10DC JUMP JUMPDEST DUP1 ISZERO PUSH2 0x7C6 JUMPI DUP1 PUSH1 0x1F LT PUSH2 0x79B JUMPI PUSH2 0x100 DUP1 DUP4 SLOAD DIV MUL DUP4 MSTORE SWAP2 PUSH1 0x20 ADD SWAP2 PUSH2 0x7C6 JUMP JUMPDEST DUP3 ADD SWAP2 SWAP1 PUSH1 0x0 MSTORE PUSH1 0x20 PUSH1 0x0 KECCAK256 SWAP1 JUMPDEST DUP2 SLOAD DUP2 MSTORE SWAP1 PUSH1 0x1 ADD SWAP1 PUSH1 0x20 ADD DUP1 DUP4 GT PUSH2 0x7A9 JUMPI DUP3 SWAP1 SUB PUSH1 0x1F AND DUP3 ADD SWAP2 JUMPDEST POP POP POP POP POP SWAP1 DUP1 PUSH1 0x1 ADD DUP1 SLOAD PUSH2 0x7DB SWAP1 PUSH2 0x10DC JUMP JUMPDEST DUP1 PUSH1 0x1F ADD PUSH1 0x20 DUP1 SWAP2 DIV MUL PUSH1 0x20 ADD PUSH1 0x40 MLOAD SWAP1 DUP2 ADD PUSH1 0x40 MSTORE DUP1 SWAP3 SWAP2 SWAP1 DUP2 DUP2 MSTORE PUSH1 0x20 ADD DUP3 DUP1 SLOAD PUSH2 0x807 SWAP1 PUSH2 0x10DC JUMP JUMPDEST DUP1 ISZERO PUSH2 0x854 JUMPI DUP1 PUSH1 0x1F LT PUSH2 0x829 JUMPI PUSH2 0x100 DUP1 DUP4 SLOAD DIV MUL DUP4 MSTORE SWAP2 PUSH1 0x20 ADD SWAP2 PUSH2 0x854 JUMP JUMPDEST DUP3 ADD SWAP2 SWAP1 PUSH1 0x0 MSTORE PUSH1 0x20 PUSH1 0x0 KECCAK256 SWAP1 JUMPDEST DUP2 SLOAD DUP2 MSTORE SWAP1 PUSH1 0x1 ADD SWAP1 PUSH1 0x20 ADD DUP1 DUP4 GT PUSH2 0x837 JUMPI DUP3 SWAP1 SUB PUSH1 0x1F AND DUP3 ADD SWAP2 JUMPDEST POP POP POP POP POP SWAP1 DUP1 PUSH1 0x2 ADD DUP1 SLOAD PUSH2 0x869 SWAP1 PUSH2 0x10DC JUMP JUMPDEST DUP1 PUSH1 0x1F ADD PUSH1 0x20 DUP1 SWAP2 DIV MUL PUSH1 0x20 ADD PUSH1 0x40 MLOAD SWAP1 DUP2 ADD PUSH1 0x40 MSTORE DUP1 SWAP3 SWAP2 SWAP1 DUP2 DUP2 MSTORE PUSH1 0x20 ADD DUP3 DUP1 SLOAD PUSH2 0x895 SWAP1 PUSH2 0x10DC JUMP JUMPDEST DUP1 ISZERO PUSH2 0x8E2 JUMPI DUP1 PUSH1 0x1F LT PUSH2 0x8B7 JUMPI PUSH2 0x100 DUP1 DUP4 SLOAD DIV MUL DUP4 MSTORE SWAP2 PUSH1 0x20 ADD SWAP2 PUSH2 0x8E2 JUMP JUMPDEST DUP3 ADD SWAP2 SWAP1 PUSH1 0x0 MSTORE PUSH1 0x20 PUSH1 0x0 KECCAK256 SWAP1 JUMPDEST DUP2 SLOAD DUP2 MSTORE SWAP1 PUSH1 0x1 ADD SWAP1 PUSH1 0x20 ADD DUP1 DUP4 GT PUSH2 0x8C5 JUMPI DUP3 SWAP1 SUB PUSH1 0x1F AND DUP3 ADD SWAP2 JUMPDEST POP POP POP POP POP SWAP1 DUP1 PUSH1 0x3 ADD DUP1 SLOAD PUSH2 0x8F7 SWAP1 PUSH2 0x10DC JUMP JUMPDEST DUP1 PUSH1 0x1F ADD PUSH1 0x20 DUP1 SWAP2 DIV MUL PUSH1 0x20 ADD PUSH1 0x40 MLOAD SWAP1 DUP2 ADD PUSH1 0x40 MSTORE DUP1 SWAP3 SWAP2 SWAP1 DUP2 DUP2 MSTORE PUSH1 0x20 ADD DUP3 DUP1 SLOAD PUSH2 0x923 SWAP1 PUSH2 0x10DC JUMP JUMPDEST DUP1 ISZERO PUSH2 0x970 JUMPI DUP1 PUSH1 0x1F LT PUSH2 0x945 JUMPI PUSH2 0x100 DUP1 DUP4 SLOAD DIV MUL DUP4 MSTORE SWAP2 PUSH1 0x20 ADD SWAP2 PUSH2 0x970 JUMP JUMPDEST DUP3 ADD SWAP2 SWAP1 PUSH1 0x0 MSTORE PUSH1 0x20 PUSH1 0x0 KECCAK256 SWAP1 JUMPDEST DUP2 SLOAD DUP2 MSTORE SWAP1 PUSH1 0x1 ADD SWAP1 PUSH1 0x20 ADD DUP1 DUP4 GT PUSH2 0x953 JUMPI DUP3 SWAP1 SUB PUSH1 0x1F AND DUP3 ADD SWAP2 JUMPDEST POP POP POP POP POP SWAP1 DUP1 PUSH1 0x4 ADD DUP1 SLOAD PUSH2 0x985 SWAP1 PUSH2 0x10DC JUMP JUMPDEST DUP1 PUSH1 0x1F ADD PUSH1 0x20 DUP1 SWAP2 DIV MUL PUSH1 0x20 ADD PUSH1 0x40 MLOAD SWAP1 DUP2 ADD PUSH1 0x40 MSTORE DUP1 SWAP3 SWAP2 SWAP1 DUP2 DUP2 MSTORE PUSH1 0x20 ADD DUP3 DUP1 SLOAD PUSH2 0x9B1 SWAP1 PUSH2 0x10DC JUMP JUMPDEST DUP1 ISZERO PUSH2 0x9FE JUMPI DUP1 PUSH1 0x1F LT PUSH2 0x9D3 JUMPI PUSH2 0x100 DUP1 DUP4 SLOAD DIV MUL DUP4 MSTORE SWAP2 PUSH1 0x20 ADD SWAP2 PUSH2 0x9FE JUMP JUMPDEST DUP3 ADD SWAP2 SWAP1 PUSH1 0x0 MSTORE PUSH1 0x20 PUSH1 0x0 KECCAK256 SWAP1 JUMPDEST DUP2 SLOAD DUP2 MSTORE SWAP1 PUSH1 0x1 ADD SWAP1 PUSH1 0x20 ADD DUP1 DUP4 GT PUSH2 0x9E1 JUMPI DUP3 SWAP1 SUB PUSH1 0x1F AND DUP3 ADD SWAP2 JUMPDEST POP POP POP POP POP SWAP1 DUP1 PUSH1 0x5 ADD DUP1 SLOAD PUSH2 0xA13 SWAP1 PUSH2 0x10DC JUMP JUMPDEST DUP1 PUSH1 0x1F ADD PUSH1 0x20 DUP1 SWAP2 DIV MUL PUSH1 0x20 ADD PUSH1 0x40 MLOAD SWAP1 DUP2 ADD PUSH1 0x40 MSTORE DUP1 SWAP3 SWAP2 SWAP1 DUP2 DUP2 MSTORE PUSH1 0x20 ADD DUP3 DUP1 SLOAD PUSH2 0xA3F SWAP1 PUSH2 0x10DC JUMP JUMPDEST DUP1 ISZERO PUSH2 0xA8C JUMPI DUP1 PUSH1 0x1F LT PUSH2 0xA61 JUMPI PUSH2 0x100 DUP1 DUP4 SLOAD DIV MUL DUP4 MSTORE SWAP2 PUSH1 0x20 ADD SWAP2 PUSH2 0xA8C JUMP JUMPDEST DUP3 ADD SWAP2 SWAP1 PUSH1 0x0 MSTORE PUSH1 0x20 PUSH1 0x0 KECCAK256 SWAP1 JUMPDEST DUP2 SLOAD DUP2 MSTORE SWAP1 PUSH1 0x1 ADD SWAP1 PUSH1 0x20 ADD DUP1 DUP4 GT PUSH2 0xA6F JUMPI DUP3 SWAP1 SUB PUSH1 0x1F AND DUP3 ADD SWAP2 JUMPDEST POP POP POP POP POP SWAP1 DUP1 PUSH1 0x6 ADD DUP1 SLOAD PUSH2 0xAA1 SWAP1 PUSH2 0x10DC JUMP JUMPDEST DUP1 PUSH1 0x1F ADD PUSH1 0x20 DUP1 SWAP2 DIV MUL PUSH1 0x20 ADD PUSH1 0x40 MLOAD SWAP1 DUP2 ADD PUSH1 0x40 MSTORE DUP1 SWAP3 SWAP2 SWAP1 DUP2 DUP2 MSTORE PUSH1 0x20 ADD DUP3 DUP1 SLOAD PUSH2 0xACD SWAP1 PUSH2 0x10DC JUMP JUMPDEST DUP1 ISZERO PUSH2 0xB1A JUMPI DUP1 PUSH1 0x1F LT PUSH2 0xAEF JUMPI PUSH2 0x100 DUP1 DUP4 SLOAD DIV MUL DUP4 MSTORE SWAP2 PUSH1 0x20 ADD SWAP2 PUSH2 0xB1A JUMP JUMPDEST DUP3 ADD SWAP2 SWAP1 PUSH1 0x0 MSTORE PUSH1 0x20 PUSH1 0x0 KECCAK256 SWAP1 JUMPDEST DUP2 SLOAD DUP2 MSTORE SWAP1 PUSH1 0x1 ADD SWAP1 PUSH1 0x20 ADD DUP1 DUP4 GT PUSH2 0xAFD JUMPI DUP3 SWAP1 SUB PUSH1 0x1F AND DUP3 ADD SWAP2 JUMPDEST POP POP POP POP POP SWAP1 POP DUP8 JUMP JUMPDEST PUSH1 0x40 MLOAD DUP1 PUSH1 0xE0 ADD PUSH1 0x40 MSTORE DUP1 PUSH1 0x60 DUP2 MSTORE PUSH1 0x20 ADD PUSH1 0x60 DUP2 MSTORE PUSH1 0x20 ADD PUSH1 0x60 DUP2 MSTORE PUSH1 0x20 ADD PUSH1 0x60 DUP2 MSTORE PUSH1 0x20 ADD PUSH1 0x60 DUP2 MSTORE PUSH1 0x20 ADD PUSH1 0x60 DUP2 MSTORE PUSH1 0x20 ADD PUSH1 0x60 DUP2 MSTORE POP SWAP1 JUMP JUMPDEST DUP3 DUP1 SLOAD PUSH2 0xB6D SWAP1 PUSH2 0x10DC JUMP JUMPDEST SWAP1 PUSH1 0x0 MSTORE PUSH1 0x20 PUSH1 0x0 KECCAK256 SWAP1 PUSH1 0x1F ADD PUSH1 0x20 SWAP1 DIV DUP2 ADD SWAP3 DUP3 PUSH2 0xB8F JUMPI PUSH1 0x0 DUP6 SSTORE PUSH2 0xBD6 JUMP JUMPDEST DUP3 PUSH1 0x1F LT PUSH2 0xBA8 JUMPI DUP1 MLOAD PUSH1 0xFF NOT AND DUP4 DUP1 ADD OR DUP6 SSTORE PUSH2 0xBD6 JUMP JUMPDEST DUP3 DUP1 ADD PUSH1 0x1 ADD DUP6 SSTORE DUP3 ISZERO PUSH2 0xBD6 JUMPI SWAP2 DUP3 ADD JUMPDEST DUP3 DUP2 GT ISZERO PUSH2 0xBD5 JUMPI DUP3 MLOAD DUP3 SSTORE SWAP2 PUSH1 0x20 ADD SWAP2 SWAP1 PUSH1 0x1 ADD SWAP1 PUSH2 0xBBA JUMP JUMPDEST JUMPDEST POP SWAP1 POP PUSH2 0xBE3 SWAP2 SWAP1 PUSH2 0xBE7 JUMP JUMPDEST POP SWAP1 JUMP JUMPDEST JUMPDEST DUP1 DUP3 GT ISZERO PUSH2 0xC00 JUMPI PUSH1 0x0 DUP2 PUSH1 0x0 SWAP1 SSTORE POP PUSH1 0x1 ADD PUSH2 0xBE8 JUMP JUMPDEST POP SWAP1 JUMP JUMPDEST PUSH1 0x0 PUSH2 0xC17 PUSH2 0xC12 DUP5 PUSH2 0x100A JUMP JUMPDEST PUSH2 0xFE5 JUMP JUMPDEST SWAP1 POP DUP3 DUP2 MSTORE PUSH1 0x20 DUP2 ADD DUP5 DUP5 DUP5 ADD GT ISZERO PUSH2 0xC33 JUMPI PUSH2 0xC32 PUSH2 0x11A2 JUMP JUMPDEST JUMPDEST PUSH2 0xC3E DUP5 DUP3 DUP6 PUSH2 0x109A JUMP JUMPDEST POP SWAP4 SWAP3 POP POP POP JUMP JUMPDEST PUSH1 0x0 DUP2 CALLDATALOAD SWAP1 POP PUSH2 0xC55 DUP2 PUSH2 0x11C2 JUMP JUMPDEST SWAP3 SWAP2 POP POP JUMP JUMPDEST PUSH1 0x0 DUP3 PUSH1 0x1F DUP4 ADD SLT PUSH2 0xC70 JUMPI PUSH2 0xC6F PUSH2 0x119D JUMP JUMPDEST JUMPDEST DUP2 CALLDATALOAD PUSH2 0xC80 DUP5 DUP3 PUSH1 0x20 DUP7 ADD PUSH2 0xC04 JUMP JUMPDEST SWAP2 POP POP SWAP3 SWAP2 POP POP JUMP JUMPDEST PUSH1 0x0 PUSH1 0x20 DUP3 DUP5 SUB SLT ISZERO PUSH2 0xC9F JUMPI PUSH2 0xC9E PUSH2 0x11AC JUMP JUMPDEST JUMPDEST PUSH1 0x0 PUSH2 0xCAD DUP5 DUP3 DUP6 ADD PUSH2 0xC46 JUMP JUMPDEST SWAP2 POP POP SWAP3 SWAP2 POP POP JUMP JUMPDEST PUSH1 0x0 DUP1 PUSH1 0x0 DUP1 PUSH1 0x0 DUP1 PUSH1 0xC0 DUP8 DUP10 SUB SLT ISZERO PUSH2 0xCD3 JUMPI PUSH2 0xCD2 PUSH2 0x11AC JUMP JUMPDEST JUMPDEST PUSH1 0x0 DUP8 ADD CALLDATALOAD PUSH8 0xFFFFFFFFFFFFFFFF DUP2 GT ISZERO PUSH2 0xCF1 JUMPI PUSH2 0xCF0 PUSH2 0x11A7 JUMP JUMPDEST JUMPDEST PUSH2 0xCFD DUP10 DUP3 DUP11 ADD PUSH2 0xC5B JUMP JUMPDEST SWAP7 POP POP PUSH1 0x20 DUP8 ADD CALLDATALOAD PUSH8 0xFFFFFFFFFFFFFFFF DUP2 GT ISZERO PUSH2 0xD1E JUMPI PUSH2 0xD1D PUSH2 0x11A7 JUMP JUMPDEST JUMPDEST PUSH2 0xD2A DUP10 DUP3 DUP11 ADD PUSH2 0xC5B JUMP JUMPDEST SWAP6 POP POP PUSH1 0x40 DUP8 ADD CALLDATALOAD PUSH8 0xFFFFFFFFFFFFFFFF DUP2 GT ISZERO PUSH2 0xD4B JUMPI PUSH2 0xD4A PUSH2 0x11A7 JUMP JUMPDEST JUMPDEST PUSH2 0xD57 DUP10 DUP3 DUP11 ADD PUSH2 0xC5B JUMP JUMPDEST SWAP5 POP POP PUSH1 0x60 DUP8 ADD CALLDATALOAD PUSH8 0xFFFFFFFFFFFFFFFF DUP2 GT ISZERO PUSH2 0xD78 JUMPI PUSH2 0xD77 PUSH2 0x11A7 JUMP JUMPDEST JUMPDEST PUSH2 0xD84 DUP10 DUP3 DUP11 ADD PUSH2 0xC5B JUMP JUMPDEST SWAP4 POP POP PUSH1 0x80 DUP8 ADD CALLDATALOAD PUSH8 0xFFFFFFFFFFFFFFFF DUP2 GT ISZERO PUSH2 0xDA5 JUMPI PUSH2 0xDA4 PUSH2 0x11A7 JUMP JUMPDEST JUMPDEST PUSH2 0xDB1 DUP10 DUP3 DUP11 ADD PUSH2 0xC5B JUMP JUMPDEST SWAP3 POP POP PUSH1 0xA0 DUP8 ADD CALLDATALOAD PUSH8 0xFFFFFFFFFFFFFFFF DUP2 GT ISZERO PUSH2 0xDD2 JUMPI PUSH2 0xDD1 PUSH2 0x11A7 JUMP JUMPDEST JUMPDEST PUSH2 0xDDE DUP10 DUP3 DUP11 ADD PUSH2 0xC5B JUMP JUMPDEST SWAP2 POP POP SWAP3 SWAP6 POP SWAP3 SWAP6 POP SWAP3 SWAP6 JUMP JUMPDEST PUSH1 0x0 PUSH2 0xDF6 DUP3 PUSH2 0x103B JUMP JUMPDEST PUSH2 0xE00 DUP2 DUP6 PUSH2 0x1046 JUMP JUMPDEST SWAP4 POP PUSH2 0xE10 DUP2 DUP6 PUSH1 0x20 DUP7 ADD PUSH2 0x10A9 JUMP JUMPDEST PUSH2 0xE19 DUP2 PUSH2 0x11B1 JUMP JUMPDEST DUP5 ADD SWAP2 POP POP SWAP3 SWAP2 POP POP JUMP JUMPDEST PUSH1 0x0 PUSH2 0xE2F DUP3 PUSH2 0x103B JUMP JUMPDEST PUSH2 0xE39 DUP2 DUP6 PUSH2 0x1057 JUMP JUMPDEST SWAP4 POP PUSH2 0xE49 DUP2 DUP6 PUSH1 0x20 DUP7 ADD PUSH2 0x10A9 JUMP JUMPDEST PUSH2 0xE52 DUP2 PUSH2 0x11B1 JUMP JUMPDEST DUP5 ADD SWAP2 POP POP SWAP3 SWAP2 POP POP JUMP JUMPDEST PUSH1 0x0 PUSH1 0xE0 DUP4 ADD PUSH1 0x0 DUP4 ADD MLOAD DUP5 DUP3 SUB PUSH1 0x0 DUP7 ADD MSTORE PUSH2 0xE7A DUP3 DUP3 PUSH2 0xDEB JUMP JUMPDEST SWAP2 POP POP PUSH1 0x20 DUP4 ADD MLOAD DUP5 DUP3 SUB PUSH1 0x20 DUP7 ADD MSTORE PUSH2 0xE94 DUP3 DUP3 PUSH2 0xDEB JUMP JUMPDEST SWAP2 POP POP PUSH1 0x40 DUP4 ADD MLOAD DUP5 DUP3 SUB PUSH1 0x40 DUP7 ADD MSTORE PUSH2 0xEAE DUP3 DUP3 PUSH2 0xDEB JUMP JUMPDEST SWAP2 POP POP PUSH1 0x60 DUP4 ADD MLOAD DUP5 DUP3 SUB PUSH1 0x60 DUP7 ADD MSTORE PUSH2 0xEC8 DUP3 DUP3 PUSH2 0xDEB JUMP JUMPDEST SWAP2 POP POP PUSH1 0x80 DUP4 ADD MLOAD DUP5 DUP3 SUB PUSH1 0x80 DUP7 ADD MSTORE PUSH2 0xEE2 DUP3 DUP3 PUSH2 0xDEB JUMP JUMPDEST SWAP2 POP POP PUSH1 0xA0 DUP4 ADD MLOAD DUP5 DUP3 SUB PUSH1 0xA0 DUP7 ADD MSTORE PUSH2 0xEFC DUP3 DUP3 PUSH2 0xDEB JUMP JUMPDEST SWAP2 POP POP PUSH1 0xC0 DUP4 ADD MLOAD DUP5 DUP3 SUB PUSH1 0xC0 DUP7 ADD MSTORE PUSH2 0xF16 DUP3 DUP3 PUSH2 0xDEB JUMP JUMPDEST SWAP2 POP POP DUP1 SWAP2 POP POP SWAP3 SWAP2 POP POP JUMP JUMPDEST PUSH1 0x0 PUSH1 0xE0 DUP3 ADD SWAP1 POP DUP2 DUP2 SUB PUSH1 0x0 DUP4 ADD MSTORE PUSH2 0xF3D DUP2 DUP11 PUSH2 0xE24 JUMP JUMPDEST SWAP1 POP DUP2 DUP2 SUB PUSH1 0x20 DUP4 ADD MSTORE PUSH2 0xF51 DUP2 DUP10 PUSH2 0xE24 JUMP JUMPDEST SWAP1 POP DUP2 DUP2 SUB PUSH1 0x40 DUP4 ADD MSTORE PUSH2 0xF65 DUP2 DUP9 PUSH2 0xE24 JUMP JUMPDEST SWAP1 POP DUP2 DUP2 SUB PUSH1 0x60 DUP4 ADD MSTORE PUSH2 0xF79 DUP2 DUP8 PUSH2 0xE24 JUMP JUMPDEST SWAP1 POP DUP2 DUP2 SUB PUSH1 0x80 DUP4 ADD MSTORE PUSH2 0xF8D DUP2 DUP7 PUSH2 0xE24 JUMP JUMPDEST SWAP1 POP DUP2 DUP2 SUB PUSH1 0xA0 DUP4 ADD MSTORE PUSH2 0xFA1 DUP2 DUP6 PUSH2 0xE24 JUMP JUMPDEST SWAP1 POP DUP2 DUP2 SUB PUSH1 0xC0 DUP4 ADD MSTORE PUSH2 0xFB5 DUP2 DUP5 PUSH2 0xE24 JUMP JUMPDEST SWAP1 POP SWAP9 SWAP8 POP POP POP POP POP POP POP POP JUMP JUMPDEST PUSH1 0x0 PUSH1 0x20 DUP3 ADD SWAP1 POP DUP2 DUP2 SUB PUSH1 0x0 DUP4 ADD MSTORE PUSH2 0xFDD DUP2 DUP5 PUSH2 0xE5D JUMP JUMPDEST SWAP1 POP SWAP3 SWAP2 POP POP JUMP JUMPDEST PUSH1 0x0 PUSH2 0xFEF PUSH2 0x1000 JUMP JUMPDEST SWAP1 POP PUSH2 0xFFB DUP3 DUP3 PUSH2 0x110E JUMP JUMPDEST SWAP2 SWAP1 POP JUMP JUMPDEST PUSH1 0x0 PUSH1 0x40 MLOAD SWAP1 POP SWAP1 JUMP JUMPDEST PUSH1 0x0 PUSH8 0xFFFFFFFFFFFFFFFF DUP3 GT ISZERO PUSH2 0x1025 JUMPI PUSH2 0x1024 PUSH2 0x116E JUMP JUMPDEST JUMPDEST PUSH2 0x102E DUP3 PUSH2 0x11B1 JUMP JUMPDEST SWAP1 POP PUSH1 0x20 DUP2 ADD SWAP1 POP SWAP2 SWAP1 POP JUMP JUMPDEST PUSH1 0x0 DUP2 MLOAD SWAP1 POP SWAP2 SWAP1 POP JUMP JUMPDEST PUSH1 0x0 DUP3 DUP3 MSTORE PUSH1 0x20 DUP3 ADD SWAP1 POP SWAP3 SWAP2 POP POP JUMP JUMPDEST PUSH1 0x0 DUP3 DUP3 MSTORE PUSH1 0x20 DUP3 ADD SWAP1 POP SWAP3 SWAP2 POP POP JUMP JUMPDEST PUSH1 0x0 PUSH2 0x1073 DUP3 PUSH2 0x107A JUMP JUMPDEST SWAP1 POP SWAP2 SWAP1 POP JUMP JUMPDEST PUSH1 0x0 PUSH20 0xFFFFFFFFFFFFFFFFFFFFFFFFFFFFFFFFFFFFFFFF DUP3 AND SWAP1 POP SWAP2 SWAP1 POP JUMP JUMPDEST DUP3 DUP2 DUP4 CALLDATACOPY PUSH1 0x0 DUP4 DUP4 ADD MSTORE POP POP POP JUMP JUMPDEST PUSH1 0x0 JUMPDEST DUP4 DUP2 LT ISZERO PUSH2 0x10C7 JUMPI DUP1 DUP3 ADD MLOAD DUP2 DUP5 ADD MSTORE PUSH1 0x20 DUP2 ADD SWAP1 POP PUSH2 0x10AC JUMP JUMPDEST DUP4 DUP2 GT ISZERO PUSH2 0x10D6 JUMPI PUSH1 0x0 DUP5 DUP5 ADD MSTORE JUMPDEST POP POP POP POP JUMP JUMPDEST PUSH1 0x0 PUSH1 0x2 DUP3 DIV SWAP1 POP PUSH1 0x1 DUP3 AND DUP1 PUSH2 0x10F4 JUMPI PUSH1 0x7F DUP3 AND SWAP2 POP JUMPDEST PUSH1 0x20 DUP3 LT DUP2 EQ ISZERO PUSH2 0x1108 JUMPI PUSH2 0x1107 PUSH2 0x113F JUMP JUMPDEST JUMPDEST POP SWAP2 SWAP1 POP JUMP JUMPDEST PUSH2 0x1117 DUP3 PUSH2 0x11B1 JUMP JUMPDEST DUP2 ADD DUP2 DUP2 LT PUSH8 0xFFFFFFFFFFFFFFFF DUP3 GT OR ISZERO PUSH2 0x1136 JUMPI PUSH2 0x1135 PUSH2 0x116E JUMP JUMPDEST JUMPDEST DUP1 PUSH1 0x40 MSTORE POP POP POP JUMP JUMPDEST PUSH32 0x4E487B7100000000000000000000000000000000000000000000000000000000 PUSH1 0x0 MSTORE PUSH1 0x22 PUSH1 0x4 MSTORE PUSH1 0x24 PUSH1 0x0 REVERT JUMPDEST PUSH32 0x4E487B7100000000000000000000000000000000000000000000000000000000 PUSH1 0x0 MSTORE PUSH1 0x41 PUSH1 0x4 MSTORE PUSH1 0x24 PUSH1 0x0 REVERT JUMPDEST PUSH1 0x0 DUP1 REVERT JUMPDEST PUSH1 0x0 DUP1 REVERT JUMPDEST PUSH1 0x0 DUP1 REVERT JUMPDEST PUSH1 0x0 DUP1 REVERT JUMPDEST PUSH1 0x0 PUSH1 0x1F NOT PUSH1 0x1F DUP4 ADD AND SWAP1 POP SWAP2 SWAP1 POP JUMP JUMPDEST PUSH2 0x11CB DUP2 PUSH2 0x1068 JUMP JUMPDEST DUP2 EQ PUSH2 0x11D6 JUMPI PUSH1 0x0 DUP1 REVERT JUMPDEST POP JUMP INVALID LOG2 PUSH5 0x6970667358 0x22 SLT KECCAK256 0xE1 0x4A RETURN 0xC4 CODESIZE 0x4B SHL 0x25 0xE3 EXP 0xED 0x4A 0xC6 DUP12 PUSH18 0xC565CCA1F37CE59E3FADAE24B1D919B63E64 PUSH20 0x6F6C634300080700330000000000000000000000 "
				},
				"gasEstimates": {
					"creation": {
						"codeDepositCost": "924600",
						"executionCost": "962",
						"totalCost": "925562"
					},
					"external": {
						"addBio(string,string,string,string,string,string)": "infinite",
						"getBio(address)": "infinite",
						"profile(address)": "infinite"
					}
				},
				"methodIdentifiers": {
					"addBio(string,string,string,string,string,string)": "721041af",
					"getBio(address)": "3fd0bf17",
					"profile(address)": "9dd9d0fd"
				}
			},
			"storageLayout": {
				"storage": [
					{
						"astId": 21,
						"contract": "contracts/Profile.sol:Profile",
						"label": "profile",
						"offset": 0,
						"slot": "0",
						"type": "t_mapping(t_address,t_struct(Bio)16_storage)"
					}
				],
				"types": {
					"t_address": {
						"encoding": "inplace",
						"label": "address",
						"numberOfBytes": "20"
					},
					"t_mapping(t_address,t_struct(Bio)16_storage)": {
						"encoding": "mapping",
						"key": "t_address",
						"label": "mapping(address => struct Profile.Bio)",
						"numberOfBytes": "32",
						"value": "t_struct(Bio)16_storage"
					},
					"t_string_storage": {
						"encoding": "bytes",
						"label": "string",
						"numberOfBytes": "32"
					},
					"t_struct(Bio)16_storage": {
						"encoding": "inplace",
						"label": "struct Profile.Bio",
						"members": [
							{
								"astId": 3,
								"contract": "contracts/Profile.sol:Profile",
								"label": "firstName",
								"offset": 0,
								"slot": "0",
								"type": "t_string_storage"
							},
							{
								"astId": 5,
								"contract": "contracts/Profile.sol:Profile",
								"label": "middleName",
								"offset": 0,
								"slot": "1",
								"type": "t_string_storage"
							},
							{
								"astId": 7,
								"contract": "contracts/Profile.sol:Profile",
								"label": "lastName",
								"offset": 0,
								"slot": "2",
								"type": "t_string_storage"
							},
							{
								"astId": 9,
								"contract": "contracts/Profile.sol:Profile",
								"label": "email",
								"offset": 0,
								"slot": "3",
								"type": "t_string_storage"
							},
							{
								"astId": 11,
								"contract": "contracts/Profile.sol:Profile",
								"label": "phone",
								"offset": 0,
								"slot": "4",
								"type": "t_string_storage"
							},
							{
								"astId": 13,
								"contract": "contracts/Profile.sol:Profile",
								"label": "profileImage",
								"offset": 0,
								"slot": "5",
								"type": "t_string_storage"
							},
							{
								"astId": 15,
								"contract": "contracts/Profile.sol:Profile",
								"label": "userAddress",
								"offset": 0,
								"slot": "6",
								"type": "t_string_storage"
							}
						],
						"numberOfBytes": "224"
					}
				}
			},
			"userdoc": {
				"kind": "user",
				"methods": {},
				"version": 1
			}
		}
	}
}