{
	"contracts/Profile.sol": {
		"Profile": {
			"abi": [
				{
					"inputs": [
						{
							"internalType": "string[]",
							"name": "award",
							"type": "string[]"
						}
					],
					"name": "createAward",
					"outputs": [],
					"stateMutability": "nonpayable",
					"type": "function"
				},
				{
					"inputs": [
						{
							"internalType": "string[]",
							"name": "certificate",
							"type": "string[]"
						}
					],
					"name": "createCertificate",
					"outputs": [],
					"stateMutability": "nonpayable",
					"type": "function"
				},
				{
					"inputs": [
						{
							"internalType": "string",
							"name": "email",
							"type": "string"
						},
						{
							"internalType": "string",
							"name": "phone",
							"type": "string"
						},
						{
							"internalType": "string",
							"name": "github",
							"type": "string"
						},
						{
							"internalType": "string",
							"name": "gitlab",
							"type": "string"
						},
						{
							"internalType": "string",
							"name": "linkin",
							"type": "string"
						}
					],
					"name": "createContract",
					"outputs": [],
					"stateMutability": "nonpayable",
					"type": "function"
				},
				{
					"inputs": [
						{
							"internalType": "string",
							"name": "firstName",
							"type": "string"
						},
						{
							"internalType": "string",
							"name": "middleName",
							"type": "string"
						},
						{
							"internalType": "string",
							"name": "lastName",
							"type": "string"
						},
						{
							"internalType": "string",
							"name": "profileImage",
							"type": "string"
						},
						{
							"internalType": "string",
							"name": "aboutMe",
							"type": "string"
						},
						{
							"internalType": "string",
							"name": "position",
							"type": "string"
						}
					],
					"name": "createInformation",
					"outputs": [],
					"stateMutability": "nonpayable",
					"type": "function"
				},
				{
					"inputs": [
						{
							"internalType": "string[]",
							"name": "programmingLanguages",
							"type": "string[]"
						},
						{
							"internalType": "string[]",
							"name": "framework",
							"type": "string[]"
						},
						{
							"internalType": "string[]",
							"name": "databaseAndOther",
							"type": "string[]"
						}
					],
					"name": "createSkill",
					"outputs": [],
					"stateMutability": "nonpayable",
					"type": "function"
				},
				{
					"inputs": [
						{
							"internalType": "string",
							"name": "startDate",
							"type": "string"
						},
						{
							"internalType": "string",
							"name": "endDate",
							"type": "string"
						},
						{
							"internalType": "string",
							"name": "univercity",
							"type": "string"
						},
						{
							"internalType": "string",
							"name": "major",
							"type": "string"
						},
						{
							"internalType": "string",
							"name": "finalProject",
							"type": "string"
						}
					],
					"name": "createUnivercity",
					"outputs": [],
					"stateMutability": "nonpayable",
					"type": "function"
				},
				{
					"inputs": [],
					"name": "delAllEducation",
					"outputs": [],
					"stateMutability": "nonpayable",
					"type": "function"
				},
				{
					"inputs": [],
					"name": "delInformaion",
					"outputs": [],
					"stateMutability": "nonpayable",
					"type": "function"
				},
				{
					"inputs": [],
					"name": "delProfile",
					"outputs": [],
					"stateMutability": "nonpayable",
					"type": "function"
				},
				{
					"inputs": [
						{
							"internalType": "uint256",
							"name": "index",
							"type": "uint256"
						}
					],
					"name": "getEducation",
					"outputs": [
						{
							"internalType": "string",
							"name": "",
							"type": "string"
						},
						{
							"internalType": "string",
							"name": "",
							"type": "string"
						},
						{
							"internalType": "string",
							"name": "",
							"type": "string"
						},
						{
							"internalType": "string",
							"name": "",
							"type": "string"
						},
						{
							"internalType": "string",
							"name": "",
							"type": "string"
						}
					],
					"stateMutability": "view",
					"type": "function"
				},
				{
					"inputs": [],
					"name": "getEducationCount",
					"outputs": [
						{
							"internalType": "uint256",
							"name": "",
							"type": "uint256"
						}
					],
					"stateMutability": "view",
					"type": "function"
				},
				{
					"inputs": [
						{
							"internalType": "address",
							"name": "",
							"type": "address"
						}
					],
					"name": "profile",
					"outputs": [
						{
							"components": [
								{
									"internalType": "string",
									"name": "aboutMe",
									"type": "string"
								},
								{
									"internalType": "string",
									"name": "position",
									"type": "string"
								},
								{
									"internalType": "address",
									"name": "userAddress",
									"type": "address"
								},
								{
									"internalType": "string",
									"name": "firstName",
									"type": "string"
								},
								{
									"internalType": "string",
									"name": "middleName",
									"type": "string"
								},
								{
									"internalType": "string",
									"name": "lastName",
									"type": "string"
								},
								{
									"internalType": "string",
									"name": "profileImage",
									"type": "string"
								},
								{
									"internalType": "uint256",
									"name": "createDate",
									"type": "uint256"
								}
							],
							"internalType": "struct Profile.Information",
							"name": "information",
							"type": "tuple"
						},
						{
							"components": [
								{
									"internalType": "string",
									"name": "aboutMe",
									"type": "string"
								},
								{
									"internalType": "string",
									"name": "email",
									"type": "string"
								},
								{
									"internalType": "string",
									"name": "phone",
									"type": "string"
								},
								{
									"internalType": "string",
									"name": "github",
									"type": "string"
								},
								{
									"internalType": "string",
									"name": "gitlab",
									"type": "string"
								},
								{
									"internalType": "string",
									"name": "linkin",
									"type": "string"
								}
							],
							"internalType": "struct Profile.Contract",
							"name": "privateContract",
							"type": "tuple"
						},
						{
							"components": [
								{
									"internalType": "string[]",
									"name": "programmingLanguages",
									"type": "string[]"
								},
								{
									"internalType": "string[]",
									"name": "framework",
									"type": "string[]"
								},
								{
									"internalType": "string[]",
									"name": "databaseAndOther",
									"type": "string[]"
								}
							],
							"internalType": "struct Profile.Skill",
							"name": "skill",
							"type": "tuple"
						}
					],
					"stateMutability": "view",
					"type": "function"
				}
			],
			"devdoc": {
				"kind": "dev",
				"methods": {},
				"version": 1
			},
			"evm": {
				"assembly": "    /* \"contracts/Profile.sol\":60:4481  contract Profile {\r... */\n  mstore(0x40, 0x80)\n  callvalue\n  dup1\n  iszero\n  tag_1\n  jumpi\n  0x00\n  dup1\n  revert\ntag_1:\n  pop\n  dataSize(sub_0)\n  dup1\n  dataOffset(sub_0)\n  0x00\n  codecopy\n  0x00\n  return\nstop\n\nsub_0: assembly {\n        /* \"contracts/Profile.sol\":60:4481  contract Profile {\r... */\n      mstore(0x40, 0x80)\n      callvalue\n      dup1\n      iszero\n      tag_1\n      jumpi\n      0x00\n      dup1\n      revert\n    tag_1:\n      pop\n      jumpi(tag_2, lt(calldatasize, 0x04))\n      shr(0xe0, calldataload(0x00))\n      dup1\n      0x97c35b02\n      gt\n      tag_15\n      jumpi\n      dup1\n      0x97c35b02\n      eq\n      tag_9\n      jumpi\n      dup1\n      0x9dd9d0fd\n      eq\n      tag_10\n      jumpi\n      dup1\n      0xd759b830\n      eq\n      tag_11\n      jumpi\n      dup1\n      0xed2217ef\n      eq\n      tag_12\n      jumpi\n      dup1\n      0xf96e32f8\n      eq\n      tag_13\n      jumpi\n      dup1\n      0xfabce08f\n      eq\n      tag_14\n      jumpi\n      jump(tag_2)\n    tag_15:\n      dup1\n      0x3d984d0e\n      eq\n      tag_3\n      jumpi\n      dup1\n      0x6212fa02\n      eq\n      tag_4\n      jumpi\n      dup1\n      0x66244dfb\n      eq\n      tag_5\n      jumpi\n      dup1\n      0x72828388\n      eq\n      tag_6\n      jumpi\n      dup1\n      0x958791ae\n      eq\n      tag_7\n      jumpi\n      dup1\n      0x95ea3757\n      eq\n      tag_8\n      jumpi\n    tag_2:\n      0x00\n      dup1\n      revert\n        /* \"contracts/Profile.sol\":2485:2873  function createSkill(string[] memory programmingLanguages, string[] memory framework, string[] memory databaseAndOther) public {\r... */\n    tag_3:\n      tag_16\n      0x04\n      dup1\n      calldatasize\n      sub\n      dup2\n      add\n      swap1\n      tag_17\n      swap2\n      swap1\n      tag_18\n      jump\t// in\n    tag_17:\n      tag_19\n      jump\t// in\n    tag_16:\n      stop\n        /* \"contracts/Profile.sol\":3820:3938  function getEducationCount() public view returns (uint) {\r... */\n    tag_4:\n      tag_20\n      tag_21\n      jump\t// in\n    tag_20:\n      mload(0x40)\n      tag_22\n      swap2\n      swap1\n      tag_23\n      jump\t// in\n    tag_22:\n      mload(0x40)\n      dup1\n      swap2\n      sub\n      swap1\n      return\n        /* \"contracts/Profile.sol\":2940:3410  function createUnivercity(string memory startDate, string memory endDate, string memory univercity, string memory major, string memory finalProject) public {\r... */\n    tag_5:\n      tag_24\n      0x04\n      dup1\n      calldatasize\n      sub\n      dup2\n      add\n      swap1\n      tag_25\n      swap2\n      swap1\n      tag_26\n      jump\t// in\n    tag_25:\n      tag_27\n      jump\t// in\n    tag_24:\n      stop\n        /* \"contracts/Profile.sol\":1894:2398  function createContract(string memory email, string memory phone, string memory github, string memory gitlab, string memory linkin) public {\r... */\n    tag_6:\n      tag_28\n      0x04\n      dup1\n      calldatasize\n      sub\n      dup2\n      add\n      swap1\n      tag_29\n      swap2\n      swap1\n      tag_26\n      jump\t// in\n    tag_29:\n      tag_30\n      jump\t// in\n    tag_28:\n      stop\n        /* \"contracts/Profile.sol\":1123:1839  function createInformation(string memory firstName, string memory middleName, string memory lastName,  string memory profileImage, string memory aboutMe, string memory position) public {\r... */\n    tag_7:\n      tag_31\n      0x04\n      dup1\n      calldatasize\n      sub\n      dup2\n      add\n      swap1\n      tag_32\n      swap2\n      swap1\n      tag_33\n      jump\t// in\n    tag_32:\n      tag_34\n      jump\t// in\n    tag_31:\n      stop\n        /* \"contracts/Profile.sol\":4302:4394  function delInformaion() external  {\r... */\n    tag_8:\n      tag_35\n      tag_36\n      jump\t// in\n    tag_35:\n      stop\n        /* \"contracts/Profile.sol\":3946:4049  function createAward(string[] memory award) public {\r... */\n    tag_9:\n      tag_37\n      0x04\n      dup1\n      calldatasize\n      sub\n      dup2\n      add\n      swap1\n      tag_38\n      swap2\n      swap1\n      tag_39\n      jump\t// in\n    tag_38:\n      tag_40\n      jump\t// in\n    tag_37:\n      stop\n        /* \"contracts/Profile.sol\":292:332  mapping (address => Bio) public  profile */\n    tag_10:\n      tag_41\n      0x04\n      dup1\n      calldatasize\n      sub\n      dup2\n      add\n      swap1\n      tag_42\n      swap2\n      swap1\n      tag_43\n      jump\t// in\n    tag_42:\n      tag_44\n      jump\t// in\n    tag_41:\n      mload(0x40)\n      tag_45\n      swap4\n      swap3\n      swap2\n      swap1\n      tag_46\n      jump\t// in\n    tag_45:\n      mload(0x40)\n      dup1\n      swap2\n      sub\n      swap1\n      return\n        /* \"contracts/Profile.sol\":4057:4184  function createCertificate(string[] memory certificate) public {\r... */\n    tag_11:\n      tag_47\n      0x04\n      dup1\n      calldatasize\n      sub\n      dup2\n      add\n      swap1\n      tag_48\n      swap2\n      swap1\n      tag_39\n      jump\t// in\n    tag_48:\n      tag_49\n      jump\t// in\n    tag_47:\n      stop\n        /* \"contracts/Profile.sol\":4202:4294  function delAllEducation() external  {\r... */\n    tag_12:\n      tag_50\n      tag_51\n      jump\t// in\n    tag_50:\n      stop\n        /* \"contracts/Profile.sol\":3419:3812  function getEducation(uint index) public view returns(string memory, string memory, string memory, string memory, string memory) {\r... */\n    tag_13:\n      tag_52\n      0x04\n      dup1\n      calldatasize\n      sub\n      dup2\n      add\n      swap1\n      tag_53\n      swap2\n      swap1\n      tag_54\n      jump\t// in\n    tag_53:\n      tag_55\n      jump\t// in\n    tag_52:\n      mload(0x40)\n      tag_56\n      swap6\n      swap5\n      swap4\n      swap3\n      swap2\n      swap1\n      tag_57\n      jump\t// in\n    tag_56:\n      mload(0x40)\n      dup1\n      swap2\n      sub\n      swap1\n      return\n        /* \"contracts/Profile.sol\":4402:4478  function delProfile() external {\r... */\n    tag_14:\n      tag_58\n      tag_59\n      jump\t// in\n    tag_58:\n      stop\n        /* \"contracts/Profile.sol\":2485:2873  function createSkill(string[] memory programmingLanguages, string[] memory framework, string[] memory databaseAndOther) public {\r... */\n    tag_19:\n        /* \"contracts/Profile.sol\":2630:2637  profile */\n      0x00\n        /* \"contracts/Profile.sol\":2630:2649  profile[msg.sender] */\n      dup1\n        /* \"contracts/Profile.sol\":2638:2648  msg.sender */\n      caller\n        /* \"contracts/Profile.sol\":2630:2649  profile[msg.sender] */\n      0xffffffffffffffffffffffffffffffffffffffff\n      and\n      0xffffffffffffffffffffffffffffffffffffffff\n      and\n      dup2\n      mstore\n      0x20\n      add\n      swap1\n      dup2\n      mstore\n      0x20\n      add\n      0x00\n      keccak256\n        /* \"contracts/Profile.sol\":2630:2655  profile[msg.sender].skill */\n      0x0e\n      add\n      0x00\n        /* \"contracts/Profile.sol\":2623:2655  delete profile[msg.sender].skill */\n      dup1\n      dup3\n      add\n      0x00\n      tag_61\n      swap2\n      swap1\n      tag_62\n      jump\t// in\n    tag_61:\n      0x01\n      dup3\n      add\n      0x00\n      tag_63\n      swap2\n      swap1\n      tag_62\n      jump\t// in\n    tag_63:\n      0x02\n      dup3\n      add\n      0x00\n      tag_64\n      swap2\n      swap1\n      tag_62\n      jump\t// in\n    tag_64:\n      pop\n      pop\n        /* \"contracts/Profile.sol\":2715:2735  programmingLanguages */\n      dup3\n        /* \"contracts/Profile.sol\":2666:2673  profile */\n      0x00\n        /* \"contracts/Profile.sol\":2666:2685  profile[msg.sender] */\n      dup1\n        /* \"contracts/Profile.sol\":2674:2684  msg.sender */\n      caller\n        /* \"contracts/Profile.sol\":2666:2685  profile[msg.sender] */\n      0xffffffffffffffffffffffffffffffffffffffff\n      and\n      0xffffffffffffffffffffffffffffffffffffffff\n      and\n      dup2\n      mstore\n      0x20\n      add\n      swap1\n      dup2\n      mstore\n      0x20\n      add\n      0x00\n      keccak256\n        /* \"contracts/Profile.sol\":2666:2691  profile[msg.sender].skill */\n      0x0e\n      add\n        /* \"contracts/Profile.sol\":2666:2712  profile[msg.sender].skill.programmingLanguages */\n      0x00\n      add\n        /* \"contracts/Profile.sol\":2666:2735  profile[msg.sender].skill.programmingLanguages = programmingLanguages */\n      swap1\n      dup1\n      mload\n      swap1\n      0x20\n      add\n      swap1\n      tag_65\n      swap3\n      swap2\n      swap1\n      tag_66\n      jump\t// in\n    tag_65:\n      pop\n        /* \"contracts/Profile.sol\":2784:2793  framework */\n      dup2\n        /* \"contracts/Profile.sol\":2746:2753  profile */\n      0x00\n        /* \"contracts/Profile.sol\":2746:2765  profile[msg.sender] */\n      dup1\n        /* \"contracts/Profile.sol\":2754:2764  msg.sender */\n      caller\n        /* \"contracts/Profile.sol\":2746:2765  profile[msg.sender] */\n      0xffffffffffffffffffffffffffffffffffffffff\n      and\n      0xffffffffffffffffffffffffffffffffffffffff\n      and\n      dup2\n      mstore\n      0x20\n      add\n      swap1\n      dup2\n      mstore\n      0x20\n      add\n      0x00\n      keccak256\n        /* \"contracts/Profile.sol\":2746:2771  profile[msg.sender].skill */\n      0x0e\n      add\n        /* \"contracts/Profile.sol\":2746:2781  profile[msg.sender].skill.framework */\n      0x01\n      add\n        /* \"contracts/Profile.sol\":2746:2793  profile[msg.sender].skill.framework = framework */\n      swap1\n      dup1\n      mload\n      swap1\n      0x20\n      add\n      swap1\n      tag_67\n      swap3\n      swap2\n      swap1\n      tag_66\n      jump\t// in\n    tag_67:\n      pop\n        /* \"contracts/Profile.sol\":2849:2865  databaseAndOther */\n      dup1\n        /* \"contracts/Profile.sol\":2804:2811  profile */\n      0x00\n        /* \"contracts/Profile.sol\":2804:2823  profile[msg.sender] */\n      dup1\n        /* \"contracts/Profile.sol\":2812:2822  msg.sender */\n      caller\n        /* \"contracts/Profile.sol\":2804:2823  profile[msg.sender] */\n      0xffffffffffffffffffffffffffffffffffffffff\n      and\n      0xffffffffffffffffffffffffffffffffffffffff\n      and\n      dup2\n      mstore\n      0x20\n      add\n      swap1\n      dup2\n      mstore\n      0x20\n      add\n      0x00\n      keccak256\n        /* \"contracts/Profile.sol\":2804:2829  profile[msg.sender].skill */\n      0x0e\n      add\n        /* \"contracts/Profile.sol\":2804:2846  profile[msg.sender].skill.databaseAndOther */\n      0x02\n      add\n        /* \"contracts/Profile.sol\":2804:2865  profile[msg.sender].skill.databaseAndOther = databaseAndOther */\n      swap1\n      dup1\n      mload\n      swap1\n      0x20\n      add\n      swap1\n      tag_68\n      swap3\n      swap2\n      swap1\n      tag_66\n      jump\t// in\n    tag_68:\n      pop\n        /* \"contracts/Profile.sol\":2485:2873  function createSkill(string[] memory programmingLanguages, string[] memory framework, string[] memory databaseAndOther) public {\r... */\n      pop\n      pop\n      pop\n      jump\t// out\n        /* \"contracts/Profile.sol\":3820:3938  function getEducationCount() public view returns (uint) {\r... */\n    tag_21:\n        /* \"contracts/Profile.sol\":3870:3874  uint */\n      0x00\n        /* \"contracts/Profile.sol\":3894:3901  profile */\n      dup1\n        /* \"contracts/Profile.sol\":3894:3913  profile[msg.sender] */\n      0x00\n        /* \"contracts/Profile.sol\":3902:3912  msg.sender */\n      caller\n        /* \"contracts/Profile.sol\":3894:3913  profile[msg.sender] */\n      0xffffffffffffffffffffffffffffffffffffffff\n      and\n      0xffffffffffffffffffffffffffffffffffffffff\n      and\n      dup2\n      mstore\n      0x20\n      add\n      swap1\n      dup2\n      mstore\n      0x20\n      add\n      0x00\n      keccak256\n        /* \"contracts/Profile.sol\":3894:3923  profile[msg.sender].education */\n      0x11\n      add\n        /* \"contracts/Profile.sol\":3894:3930  profile[msg.sender].education.length */\n      dup1\n      sload\n      swap1\n      pop\n        /* \"contracts/Profile.sol\":3887:3930  return profile[msg.sender].education.length */\n      swap1\n      pop\n        /* \"contracts/Profile.sol\":3820:3938  function getEducationCount() public view returns (uint) {\r... */\n      swap1\n      jump\t// out\n        /* \"contracts/Profile.sol\":2940:3410  function createUnivercity(string memory startDate, string memory endDate, string memory univercity, string memory major, string memory finalProject) public {\r... */\n    tag_27:\n        /* \"contracts/Profile.sol\":3107:3134  Education memory _education */\n      tag_71\n      tag_72\n      jump\t// in\n    tag_71:\n        /* \"contracts/Profile.sol\":3168:3177  startDate */\n      dup6\n        /* \"contracts/Profile.sol\":3145:3155  _education */\n      dup2\n        /* \"contracts/Profile.sol\":3145:3165  _education.startDate */\n      0x00\n      add\n        /* \"contracts/Profile.sol\":3145:3177  _education.startDate = startDate */\n      dup2\n      swap1\n      mstore\n      pop\n        /* \"contracts/Profile.sol\":3209:3216  endDate */\n      dup5\n        /* \"contracts/Profile.sol\":3188:3198  _education */\n      dup2\n        /* \"contracts/Profile.sol\":3188:3206  _education.endDate */\n      0x20\n      add\n        /* \"contracts/Profile.sol\":3188:3216  _education.endDate = endDate */\n      dup2\n      swap1\n      mstore\n      pop\n        /* \"contracts/Profile.sol\":3251:3261  univercity */\n      dup4\n        /* \"contracts/Profile.sol\":3227:3237  _education */\n      dup2\n        /* \"contracts/Profile.sol\":3227:3248  _education.univercity */\n      0x40\n      add\n        /* \"contracts/Profile.sol\":3227:3261  _education.univercity = univercity */\n      dup2\n      swap1\n      mstore\n      pop\n        /* \"contracts/Profile.sol\":3291:3296  major */\n      dup3\n        /* \"contracts/Profile.sol\":3272:3282  _education */\n      dup2\n        /* \"contracts/Profile.sol\":3272:3288  _education.major */\n      0x60\n      add\n        /* \"contracts/Profile.sol\":3272:3296  _education.major = major */\n      dup2\n      swap1\n      mstore\n      pop\n        /* \"contracts/Profile.sol\":3333:3345  finalProject */\n      dup2\n        /* \"contracts/Profile.sol\":3307:3317  _education */\n      dup2\n        /* \"contracts/Profile.sol\":3307:3330  _education.finalProject */\n      0x80\n      add\n        /* \"contracts/Profile.sol\":3307:3345  _education.finalProject = finalProject */\n      dup2\n      swap1\n      mstore\n      pop\n        /* \"contracts/Profile.sol\":3356:3363  profile */\n      0x00\n        /* \"contracts/Profile.sol\":3356:3375  profile[msg.sender] */\n      dup1\n        /* \"contracts/Profile.sol\":3364:3374  msg.sender */\n      caller\n        /* \"contracts/Profile.sol\":3356:3375  profile[msg.sender] */\n      0xffffffffffffffffffffffffffffffffffffffff\n      and\n      0xffffffffffffffffffffffffffffffffffffffff\n      and\n      dup2\n      mstore\n      0x20\n      add\n      swap1\n      dup2\n      mstore\n      0x20\n      add\n      0x00\n      keccak256\n        /* \"contracts/Profile.sol\":3356:3385  profile[msg.sender].education */\n      0x11\n      add\n        /* \"contracts/Profile.sol\":3391:3401  _education */\n      dup2\n        /* \"contracts/Profile.sol\":3356:3402  profile[msg.sender].education.push(_education) */\n      swap1\n      dup1\n      0x01\n      dup2\n      sload\n      add\n      dup1\n      dup3\n      sstore\n      dup1\n      swap2\n      pop\n      pop\n      0x01\n      swap1\n      sub\n      swap1\n      0x00\n      mstore\n      keccak256(0x00, 0x20)\n      swap1\n      0x05\n      mul\n      add\n      0x00\n      swap1\n      swap2\n      swap1\n      swap2\n      swap1\n      swap2\n      pop\n      0x00\n      dup3\n      add\n      mload\n      dup2\n      0x00\n      add\n      swap1\n      dup1\n      mload\n      swap1\n      0x20\n      add\n      swap1\n      tag_74\n      swap3\n      swap2\n      swap1\n      tag_75\n      jump\t// in\n    tag_74:\n      pop\n      0x20\n      dup3\n      add\n      mload\n      dup2\n      0x01\n      add\n      swap1\n      dup1\n      mload\n      swap1\n      0x20\n      add\n      swap1\n      tag_76\n      swap3\n      swap2\n      swap1\n      tag_75\n      jump\t// in\n    tag_76:\n      pop\n      0x40\n      dup3\n      add\n      mload\n      dup2\n      0x02\n      add\n      swap1\n      dup1\n      mload\n      swap1\n      0x20\n      add\n      swap1\n      tag_77\n      swap3\n      swap2\n      swap1\n      tag_75\n      jump\t// in\n    tag_77:\n      pop\n      0x60\n      dup3\n      add\n      mload\n      dup2\n      0x03\n      add\n      swap1\n      dup1\n      mload\n      swap1\n      0x20\n      add\n      swap1\n      tag_78\n      swap3\n      swap2\n      swap1\n      tag_75\n      jump\t// in\n    tag_78:\n      pop\n      0x80\n      dup3\n      add\n      mload\n      dup2\n      0x04\n      add\n      swap1\n      dup1\n      mload\n      swap1\n      0x20\n      add\n      swap1\n      tag_79\n      swap3\n      swap2\n      swap1\n      tag_75\n      jump\t// in\n    tag_79:\n      pop\n      pop\n      pop\n        /* \"contracts/Profile.sol\":3096:3410  {\r... */\n      pop\n        /* \"contracts/Profile.sol\":2940:3410  function createUnivercity(string memory startDate, string memory endDate, string memory univercity, string memory major, string memory finalProject) public {\r... */\n      pop\n      pop\n      pop\n      pop\n      pop\n      jump\t// out\n        /* \"contracts/Profile.sol\":1894:2398  function createContract(string memory email, string memory phone, string memory github, string memory gitlab, string memory linkin) public {\r... */\n    tag_30:\n        /* \"contracts/Profile.sol\":2051:2058  profile */\n      0x00\n        /* \"contracts/Profile.sol\":2051:2070  profile[msg.sender] */\n      dup1\n        /* \"contracts/Profile.sol\":2059:2069  msg.sender */\n      caller\n        /* \"contracts/Profile.sol\":2051:2070  profile[msg.sender] */\n      0xffffffffffffffffffffffffffffffffffffffff\n      and\n      0xffffffffffffffffffffffffffffffffffffffff\n      and\n      dup2\n      mstore\n      0x20\n      add\n      swap1\n      dup2\n      mstore\n      0x20\n      add\n      0x00\n      keccak256\n        /* \"contracts/Profile.sol\":2051:2086  profile[msg.sender].privateContract */\n      0x08\n      add\n      0x00\n        /* \"contracts/Profile.sol\":2044:2086  delete profile[msg.sender].privateContract */\n      dup1\n      dup3\n      add\n      0x00\n      tag_81\n      swap2\n      swap1\n      tag_82\n      jump\t// in\n    tag_81:\n      0x01\n      dup3\n      add\n      0x00\n      tag_83\n      swap2\n      swap1\n      tag_82\n      jump\t// in\n    tag_83:\n      0x02\n      dup3\n      add\n      0x00\n      tag_84\n      swap2\n      swap1\n      tag_82\n      jump\t// in\n    tag_84:\n      0x03\n      dup3\n      add\n      0x00\n      tag_85\n      swap2\n      swap1\n      tag_82\n      jump\t// in\n    tag_85:\n      0x04\n      dup3\n      add\n      0x00\n      tag_86\n      swap2\n      swap1\n      tag_82\n      jump\t// in\n    tag_86:\n      0x05\n      dup3\n      add\n      0x00\n      tag_87\n      swap2\n      swap1\n      tag_82\n      jump\t// in\n    tag_87:\n      pop\n      pop\n        /* \"contracts/Profile.sol\":2141:2146  email */\n      dup5\n        /* \"contracts/Profile.sol\":2097:2104  profile */\n      0x00\n        /* \"contracts/Profile.sol\":2097:2116  profile[msg.sender] */\n      dup1\n        /* \"contracts/Profile.sol\":2105:2115  msg.sender */\n      caller\n        /* \"contracts/Profile.sol\":2097:2116  profile[msg.sender] */\n      0xffffffffffffffffffffffffffffffffffffffff\n      and\n      0xffffffffffffffffffffffffffffffffffffffff\n      and\n      dup2\n      mstore\n      0x20\n      add\n      swap1\n      dup2\n      mstore\n      0x20\n      add\n      0x00\n      keccak256\n        /* \"contracts/Profile.sol\":2097:2132  profile[msg.sender].privateContract */\n      0x08\n      add\n        /* \"contracts/Profile.sol\":2097:2138  profile[msg.sender].privateContract.email */\n      0x01\n      add\n        /* \"contracts/Profile.sol\":2097:2146  profile[msg.sender].privateContract.email = email */\n      swap1\n      dup1\n      mload\n      swap1\n      0x20\n      add\n      swap1\n      tag_88\n      swap3\n      swap2\n      swap1\n      tag_75\n      jump\t// in\n    tag_88:\n      pop\n        /* \"contracts/Profile.sol\":2201:2206  phone */\n      dup4\n        /* \"contracts/Profile.sol\":2157:2164  profile */\n      0x00\n        /* \"contracts/Profile.sol\":2157:2176  profile[msg.sender] */\n      dup1\n        /* \"contracts/Profile.sol\":2165:2175  msg.sender */\n      caller\n        /* \"contracts/Profile.sol\":2157:2176  profile[msg.sender] */\n      0xffffffffffffffffffffffffffffffffffffffff\n      and\n      0xffffffffffffffffffffffffffffffffffffffff\n      and\n      dup2\n      mstore\n      0x20\n      add\n      swap1\n      dup2\n      mstore\n      0x20\n      add\n      0x00\n      keccak256\n        /* \"contracts/Profile.sol\":2157:2192  profile[msg.sender].privateContract */\n      0x08\n      add\n        /* \"contracts/Profile.sol\":2157:2198  profile[msg.sender].privateContract.phone */\n      0x02\n      add\n        /* \"contracts/Profile.sol\":2157:2206  profile[msg.sender].privateContract.phone = phone */\n      swap1\n      dup1\n      mload\n      swap1\n      0x20\n      add\n      swap1\n      tag_89\n      swap3\n      swap2\n      swap1\n      tag_75\n      jump\t// in\n    tag_89:\n      pop\n        /* \"contracts/Profile.sol\":2262:2268  github */\n      dup3\n        /* \"contracts/Profile.sol\":2217:2224  profile */\n      0x00\n        /* \"contracts/Profile.sol\":2217:2236  profile[msg.sender] */\n      dup1\n        /* \"contracts/Profile.sol\":2225:2235  msg.sender */\n      caller\n        /* \"contracts/Profile.sol\":2217:2236  profile[msg.sender] */\n      0xffffffffffffffffffffffffffffffffffffffff\n      and\n      0xffffffffffffffffffffffffffffffffffffffff\n      and\n      dup2\n      mstore\n      0x20\n      add\n      swap1\n      dup2\n      mstore\n      0x20\n      add\n      0x00\n      keccak256\n        /* \"contracts/Profile.sol\":2217:2252  profile[msg.sender].privateContract */\n      0x08\n      add\n        /* \"contracts/Profile.sol\":2217:2259  profile[msg.sender].privateContract.github */\n      0x03\n      add\n        /* \"contracts/Profile.sol\":2217:2268  profile[msg.sender].privateContract.github = github */\n      swap1\n      dup1\n      mload\n      swap1\n      0x20\n      add\n      swap1\n      tag_90\n      swap3\n      swap2\n      swap1\n      tag_75\n      jump\t// in\n    tag_90:\n      pop\n        /* \"contracts/Profile.sol\":2323:2329  gitlab */\n      dup2\n        /* \"contracts/Profile.sol\":2279:2286  profile */\n      0x00\n        /* \"contracts/Profile.sol\":2279:2298  profile[msg.sender] */\n      dup1\n        /* \"contracts/Profile.sol\":2287:2297  msg.sender */\n      caller\n        /* \"contracts/Profile.sol\":2279:2298  profile[msg.sender] */\n      0xffffffffffffffffffffffffffffffffffffffff\n      and\n      0xffffffffffffffffffffffffffffffffffffffff\n      and\n      dup2\n      mstore\n      0x20\n      add\n      swap1\n      dup2\n      mstore\n      0x20\n      add\n      0x00\n      keccak256\n        /* \"contracts/Profile.sol\":2279:2314  profile[msg.sender].privateContract */\n      0x08\n      add\n        /* \"contracts/Profile.sol\":2279:2320  profile[msg.sender].privateContract.phone */\n      0x02\n      add\n        /* \"contracts/Profile.sol\":2279:2329  profile[msg.sender].privateContract.phone = gitlab */\n      swap1\n      dup1\n      mload\n      swap1\n      0x20\n      add\n      swap1\n      tag_91\n      swap3\n      swap2\n      swap1\n      tag_75\n      jump\t// in\n    tag_91:\n      pop\n        /* \"contracts/Profile.sol\":2384:2390  linkin */\n      dup1\n        /* \"contracts/Profile.sol\":2340:2347  profile */\n      0x00\n        /* \"contracts/Profile.sol\":2340:2359  profile[msg.sender] */\n      dup1\n        /* \"contracts/Profile.sol\":2348:2358  msg.sender */\n      caller\n        /* \"contracts/Profile.sol\":2340:2359  profile[msg.sender] */\n      0xffffffffffffffffffffffffffffffffffffffff\n      and\n      0xffffffffffffffffffffffffffffffffffffffff\n      and\n      dup2\n      mstore\n      0x20\n      add\n      swap1\n      dup2\n      mstore\n      0x20\n      add\n      0x00\n      keccak256\n        /* \"contracts/Profile.sol\":2340:2375  profile[msg.sender].privateContract */\n      0x08\n      add\n        /* \"contracts/Profile.sol\":2340:2381  profile[msg.sender].privateContract.email */\n      0x01\n      add\n        /* \"contracts/Profile.sol\":2340:2390  profile[msg.sender].privateContract.email = linkin */\n      swap1\n      dup1\n      mload\n      swap1\n      0x20\n      add\n      swap1\n      tag_92\n      swap3\n      swap2\n      swap1\n      tag_75\n      jump\t// in\n    tag_92:\n      pop\n        /* \"contracts/Profile.sol\":1894:2398  function createContract(string memory email, string memory phone, string memory github, string memory gitlab, string memory linkin) public {\r... */\n      pop\n      pop\n      pop\n      pop\n      pop\n      jump\t// out\n        /* \"contracts/Profile.sol\":1123:1839  function createInformation(string memory firstName, string memory middleName, string memory lastName,  string memory profileImage, string memory aboutMe, string memory position) public {\r... */\n    tag_34:\n        /* \"contracts/Profile.sol\":1363:1372  firstName */\n      dup6\n        /* \"contracts/Profile.sol\":1319:1326  profile */\n      0x00\n        /* \"contracts/Profile.sol\":1319:1338  profile[msg.sender] */\n      dup1\n        /* \"contracts/Profile.sol\":1327:1337  msg.sender */\n      caller\n        /* \"contracts/Profile.sol\":1319:1338  profile[msg.sender] */\n      0xffffffffffffffffffffffffffffffffffffffff\n      and\n      0xffffffffffffffffffffffffffffffffffffffff\n      and\n      dup2\n      mstore\n      0x20\n      add\n      swap1\n      dup2\n      mstore\n      0x20\n      add\n      0x00\n      keccak256\n        /* \"contracts/Profile.sol\":1319:1350  profile[msg.sender].information */\n      0x00\n      add\n        /* \"contracts/Profile.sol\":1319:1360  profile[msg.sender].information.firstName */\n      0x03\n      add\n        /* \"contracts/Profile.sol\":1319:1372  profile[msg.sender].information.firstName = firstName */\n      swap1\n      dup1\n      mload\n      swap1\n      0x20\n      add\n      swap1\n      tag_94\n      swap3\n      swap2\n      swap1\n      tag_75\n      jump\t// in\n    tag_94:\n      pop\n        /* \"contracts/Profile.sol\":1428:1438  middleName */\n      dup5\n        /* \"contracts/Profile.sol\":1383:1390  profile */\n      0x00\n        /* \"contracts/Profile.sol\":1383:1402  profile[msg.sender] */\n      dup1\n        /* \"contracts/Profile.sol\":1391:1401  msg.sender */\n      caller\n        /* \"contracts/Profile.sol\":1383:1402  profile[msg.sender] */\n      0xffffffffffffffffffffffffffffffffffffffff\n      and\n      0xffffffffffffffffffffffffffffffffffffffff\n      and\n      dup2\n      mstore\n      0x20\n      add\n      swap1\n      dup2\n      mstore\n      0x20\n      add\n      0x00\n      keccak256\n        /* \"contracts/Profile.sol\":1383:1414  profile[msg.sender].information */\n      0x00\n      add\n        /* \"contracts/Profile.sol\":1383:1425  profile[msg.sender].information.middleName */\n      0x04\n      add\n        /* \"contracts/Profile.sol\":1383:1438  profile[msg.sender].information.middleName = middleName */\n      swap1\n      dup1\n      mload\n      swap1\n      0x20\n      add\n      swap1\n      tag_95\n      swap3\n      swap2\n      swap1\n      tag_75\n      jump\t// in\n    tag_95:\n      pop\n        /* \"contracts/Profile.sol\":1492:1500  lastName */\n      dup4\n        /* \"contracts/Profile.sol\":1449:1456  profile */\n      0x00\n        /* \"contracts/Profile.sol\":1449:1468  profile[msg.sender] */\n      dup1\n        /* \"contracts/Profile.sol\":1457:1467  msg.sender */\n      caller\n        /* \"contracts/Profile.sol\":1449:1468  profile[msg.sender] */\n      0xffffffffffffffffffffffffffffffffffffffff\n      and\n      0xffffffffffffffffffffffffffffffffffffffff\n      and\n      dup2\n      mstore\n      0x20\n      add\n      swap1\n      dup2\n      mstore\n      0x20\n      add\n      0x00\n      keccak256\n        /* \"contracts/Profile.sol\":1449:1480  profile[msg.sender].information */\n      0x00\n      add\n        /* \"contracts/Profile.sol\":1449:1489  profile[msg.sender].information.lastName */\n      0x05\n      add\n        /* \"contracts/Profile.sol\":1449:1500  profile[msg.sender].information.lastName = lastName */\n      swap1\n      dup1\n      mload\n      swap1\n      0x20\n      add\n      swap1\n      tag_96\n      swap3\n      swap2\n      swap1\n      tag_75\n      jump\t// in\n    tag_96:\n      pop\n        /* \"contracts/Profile.sol\":1558:1570  profileImage */\n      dup3\n        /* \"contracts/Profile.sol\":1511:1518  profile */\n      0x00\n        /* \"contracts/Profile.sol\":1511:1530  profile[msg.sender] */\n      dup1\n        /* \"contracts/Profile.sol\":1519:1529  msg.sender */\n      caller\n        /* \"contracts/Profile.sol\":1511:1530  profile[msg.sender] */\n      0xffffffffffffffffffffffffffffffffffffffff\n      and\n      0xffffffffffffffffffffffffffffffffffffffff\n      and\n      dup2\n      mstore\n      0x20\n      add\n      swap1\n      dup2\n      mstore\n      0x20\n      add\n      0x00\n      keccak256\n        /* \"contracts/Profile.sol\":1511:1542  profile[msg.sender].information */\n      0x00\n      add\n        /* \"contracts/Profile.sol\":1511:1555  profile[msg.sender].information.profileImage */\n      0x06\n      add\n        /* \"contracts/Profile.sol\":1511:1570  profile[msg.sender].information.profileImage = profileImage */\n      swap1\n      dup1\n      mload\n      swap1\n      0x20\n      add\n      swap1\n      tag_97\n      swap3\n      swap2\n      swap1\n      tag_75\n      jump\t// in\n    tag_97:\n      pop\n        /* \"contracts/Profile.sol\":1623:1630  aboutMe */\n      dup2\n        /* \"contracts/Profile.sol\":1581:1588  profile */\n      0x00\n        /* \"contracts/Profile.sol\":1581:1600  profile[msg.sender] */\n      dup1\n        /* \"contracts/Profile.sol\":1589:1599  msg.sender */\n      caller\n        /* \"contracts/Profile.sol\":1581:1600  profile[msg.sender] */\n      0xffffffffffffffffffffffffffffffffffffffff\n      and\n      0xffffffffffffffffffffffffffffffffffffffff\n      and\n      dup2\n      mstore\n      0x20\n      add\n      swap1\n      dup2\n      mstore\n      0x20\n      add\n      0x00\n      keccak256\n        /* \"contracts/Profile.sol\":1581:1612  profile[msg.sender].information */\n      0x00\n      add\n        /* \"contracts/Profile.sol\":1581:1620  profile[msg.sender].information.aboutMe */\n      0x00\n      add\n        /* \"contracts/Profile.sol\":1581:1630  profile[msg.sender].information.aboutMe = aboutMe */\n      swap1\n      dup1\n      mload\n      swap1\n      0x20\n      add\n      swap1\n      tag_98\n      swap3\n      swap2\n      swap1\n      tag_75\n      jump\t// in\n    tag_98:\n      pop\n        /* \"contracts/Profile.sol\":1684:1692  position */\n      dup1\n        /* \"contracts/Profile.sol\":1641:1648  profile */\n      0x00\n        /* \"contracts/Profile.sol\":1641:1660  profile[msg.sender] */\n      dup1\n        /* \"contracts/Profile.sol\":1649:1659  msg.sender */\n      caller\n        /* \"contracts/Profile.sol\":1641:1660  profile[msg.sender] */\n      0xffffffffffffffffffffffffffffffffffffffff\n      and\n      0xffffffffffffffffffffffffffffffffffffffff\n      and\n      dup2\n      mstore\n      0x20\n      add\n      swap1\n      dup2\n      mstore\n      0x20\n      add\n      0x00\n      keccak256\n        /* \"contracts/Profile.sol\":1641:1672  profile[msg.sender].information */\n      0x00\n      add\n        /* \"contracts/Profile.sol\":1641:1681  profile[msg.sender].information.position */\n      0x01\n      add\n        /* \"contracts/Profile.sol\":1641:1692  profile[msg.sender].information.position = position */\n      swap1\n      dup1\n      mload\n      swap1\n      0x20\n      add\n      swap1\n      tag_99\n      swap3\n      swap2\n      swap1\n      tag_75\n      jump\t// in\n    tag_99:\n      pop\n        /* \"contracts/Profile.sol\":1749:1759  msg.sender */\n      caller\n        /* \"contracts/Profile.sol\":1703:1710  profile */\n      0x00\n        /* \"contracts/Profile.sol\":1703:1722  profile[msg.sender] */\n      dup1\n        /* \"contracts/Profile.sol\":1711:1721  msg.sender */\n      caller\n        /* \"contracts/Profile.sol\":1703:1722  profile[msg.sender] */\n      0xffffffffffffffffffffffffffffffffffffffff\n      and\n      0xffffffffffffffffffffffffffffffffffffffff\n      and\n      dup2\n      mstore\n      0x20\n      add\n      swap1\n      dup2\n      mstore\n      0x20\n      add\n      0x00\n      keccak256\n        /* \"contracts/Profile.sol\":1703:1734  profile[msg.sender].information */\n      0x00\n      add\n        /* \"contracts/Profile.sol\":1703:1746  profile[msg.sender].information.userAddress */\n      0x02\n      add\n      0x00\n        /* \"contracts/Profile.sol\":1703:1759  profile[msg.sender].information.userAddress = msg.sender */\n      0x0100\n      exp\n      dup2\n      sload\n      dup2\n      0xffffffffffffffffffffffffffffffffffffffff\n      mul\n      not\n      and\n      swap1\n      dup4\n      0xffffffffffffffffffffffffffffffffffffffff\n      and\n      mul\n      or\n      swap1\n      sstore\n      pop\n        /* \"contracts/Profile.sol\":1816:1831  block.timestamp */\n      timestamp\n        /* \"contracts/Profile.sol\":1771:1778  profile */\n      0x00\n        /* \"contracts/Profile.sol\":1771:1790  profile[msg.sender] */\n      dup1\n        /* \"contracts/Profile.sol\":1779:1789  msg.sender */\n      caller\n        /* \"contracts/Profile.sol\":1771:1790  profile[msg.sender] */\n      0xffffffffffffffffffffffffffffffffffffffff\n      and\n      0xffffffffffffffffffffffffffffffffffffffff\n      and\n      dup2\n      mstore\n      0x20\n      add\n      swap1\n      dup2\n      mstore\n      0x20\n      add\n      0x00\n      keccak256\n        /* \"contracts/Profile.sol\":1771:1802  profile[msg.sender].information */\n      0x00\n      add\n        /* \"contracts/Profile.sol\":1771:1813  profile[msg.sender].information.createDate */\n      0x07\n      add\n        /* \"contracts/Profile.sol\":1771:1831  profile[msg.sender].information.createDate = block.timestamp */\n      dup2\n      swap1\n      sstore\n      pop\n        /* \"contracts/Profile.sol\":1123:1839  function createInformation(string memory firstName, string memory middleName, string memory lastName,  string memory profileImage, string memory aboutMe, string memory position) public {\r... */\n      pop\n      pop\n      pop\n      pop\n      pop\n      pop\n      jump\t// out\n        /* \"contracts/Profile.sol\":4302:4394  function delInformaion() external  {\r... */\n    tag_36:\n        /* \"contracts/Profile.sol\":4355:4362  profile */\n      0x00\n        /* \"contracts/Profile.sol\":4355:4374  profile[msg.sender] */\n      dup1\n        /* \"contracts/Profile.sol\":4363:4373  msg.sender */\n      caller\n        /* \"contracts/Profile.sol\":4355:4374  profile[msg.sender] */\n      0xffffffffffffffffffffffffffffffffffffffff\n      and\n      0xffffffffffffffffffffffffffffffffffffffff\n      and\n      dup2\n      mstore\n      0x20\n      add\n      swap1\n      dup2\n      mstore\n      0x20\n      add\n      0x00\n      keccak256\n        /* \"contracts/Profile.sol\":4355:4386  profile[msg.sender].information */\n      0x00\n      add\n      0x00\n        /* \"contracts/Profile.sol\":4348:4386  delete profile[msg.sender].information */\n      dup1\n      dup3\n      add\n      0x00\n      tag_101\n      swap2\n      swap1\n      tag_82\n      jump\t// in\n    tag_101:\n      0x01\n      dup3\n      add\n      0x00\n      tag_102\n      swap2\n      swap1\n      tag_82\n      jump\t// in\n    tag_102:\n      0x02\n      dup3\n      add\n      exp(0x0100, 0x00)\n      dup2\n      sload\n      swap1\n      0xffffffffffffffffffffffffffffffffffffffff\n      mul\n      not\n      and\n      swap1\n      sstore\n      0x03\n      dup3\n      add\n      0x00\n      tag_103\n      swap2\n      swap1\n      tag_82\n      jump\t// in\n    tag_103:\n      0x04\n      dup3\n      add\n      0x00\n      tag_104\n      swap2\n      swap1\n      tag_82\n      jump\t// in\n    tag_104:\n      0x05\n      dup3\n      add\n      0x00\n      tag_105\n      swap2\n      swap1\n      tag_82\n      jump\t// in\n    tag_105:\n      0x06\n      dup3\n      add\n      0x00\n      tag_106\n      swap2\n      swap1\n      tag_82\n      jump\t// in\n    tag_106:\n      0x07\n      dup3\n      add\n      0x00\n      swap1\n      sstore\n      pop\n      pop\n        /* \"contracts/Profile.sol\":4302:4394  function delInformaion() external  {\r... */\n      jump\t// out\n        /* \"contracts/Profile.sol\":3946:4049  function createAward(string[] memory award) public {\r... */\n    tag_40:\n        /* \"contracts/Profile.sol\":4036:4041  award */\n      dup1\n        /* \"contracts/Profile.sol\":4008:4015  profile */\n      0x00\n        /* \"contracts/Profile.sol\":4008:4027  profile[msg.sender] */\n      dup1\n        /* \"contracts/Profile.sol\":4016:4026  msg.sender */\n      caller\n        /* \"contracts/Profile.sol\":4008:4027  profile[msg.sender] */\n      0xffffffffffffffffffffffffffffffffffffffff\n      and\n      0xffffffffffffffffffffffffffffffffffffffff\n      and\n      dup2\n      mstore\n      0x20\n      add\n      swap1\n      dup2\n      mstore\n      0x20\n      add\n      0x00\n      keccak256\n        /* \"contracts/Profile.sol\":4008:4033  profile[msg.sender].award */\n      0x13\n      add\n        /* \"contracts/Profile.sol\":4008:4041  profile[msg.sender].award = award */\n      swap1\n      dup1\n      mload\n      swap1\n      0x20\n      add\n      swap1\n      tag_108\n      swap3\n      swap2\n      swap1\n      tag_66\n      jump\t// in\n    tag_108:\n      pop\n        /* \"contracts/Profile.sol\":3946:4049  function createAward(string[] memory award) public {\r... */\n      pop\n      jump\t// out\n        /* \"contracts/Profile.sol\":292:332  mapping (address => Bio) public  profile */\n    tag_44:\n      mstore(0x20, 0x00)\n      dup1\n      0x00\n      mstore\n      keccak256(0x00, 0x40)\n      0x00\n      swap2\n      pop\n      swap1\n      pop\n      dup1\n      0x00\n      add\n      mload(0x40)\n      dup1\n      0x0100\n      add\n      0x40\n      mstore\n      swap1\n      dup2\n      0x00\n      dup3\n      add\n      dup1\n      sload\n      tag_109\n      swap1\n      tag_110\n      jump\t// in\n    tag_109:\n      dup1\n      0x1f\n      add\n      0x20\n      dup1\n      swap2\n      div\n      mul\n      0x20\n      add\n      mload(0x40)\n      swap1\n      dup2\n      add\n      0x40\n      mstore\n      dup1\n      swap3\n      swap2\n      swap1\n      dup2\n      dup2\n      mstore\n      0x20\n      add\n      dup3\n      dup1\n      sload\n      tag_111\n      swap1\n      tag_110\n      jump\t// in\n    tag_111:\n      dup1\n      iszero\n      tag_112\n      jumpi\n      dup1\n      0x1f\n      lt\n      tag_113\n      jumpi\n      0x0100\n      dup1\n      dup4\n      sload\n      div\n      mul\n      dup4\n      mstore\n      swap2\n      0x20\n      add\n      swap2\n      jump(tag_112)\n    tag_113:\n      dup3\n      add\n      swap2\n      swap1\n      0x00\n      mstore\n      keccak256(0x00, 0x20)\n      swap1\n    tag_114:\n      dup2\n      sload\n      dup2\n      mstore\n      swap1\n      0x01\n      add\n      swap1\n      0x20\n      add\n      dup1\n      dup4\n      gt\n      tag_114\n      jumpi\n      dup3\n      swap1\n      sub\n      0x1f\n      and\n      dup3\n      add\n      swap2\n    tag_112:\n      pop\n      pop\n      pop\n      pop\n      pop\n      dup2\n      mstore\n      0x20\n      add\n      0x01\n      dup3\n      add\n      dup1\n      sload\n      tag_115\n      swap1\n      tag_110\n      jump\t// in\n    tag_115:\n      dup1\n      0x1f\n      add\n      0x20\n      dup1\n      swap2\n      div\n      mul\n      0x20\n      add\n      mload(0x40)\n      swap1\n      dup2\n      add\n      0x40\n      mstore\n      dup1\n      swap3\n      swap2\n      swap1\n      dup2\n      dup2\n      mstore\n      0x20\n      add\n      dup3\n      dup1\n      sload\n      tag_116\n      swap1\n      tag_110\n      jump\t// in\n    tag_116:\n      dup1\n      iszero\n      tag_117\n      jumpi\n      dup1\n      0x1f\n      lt\n      tag_118\n      jumpi\n      0x0100\n      dup1\n      dup4\n      sload\n      div\n      mul\n      dup4\n      mstore\n      swap2\n      0x20\n      add\n      swap2\n      jump(tag_117)\n    tag_118:\n      dup3\n      add\n      swap2\n      swap1\n      0x00\n      mstore\n      keccak256(0x00, 0x20)\n      swap1\n    tag_119:\n      dup2\n      sload\n      dup2\n      mstore\n      swap1\n      0x01\n      add\n      swap1\n      0x20\n      add\n      dup1\n      dup4\n      gt\n      tag_119\n      jumpi\n      dup3\n      swap1\n      sub\n      0x1f\n      and\n      dup3\n      add\n      swap2\n    tag_117:\n      pop\n      pop\n      pop\n      pop\n      pop\n      dup2\n      mstore\n      0x20\n      add\n      0x02\n      dup3\n      add\n      0x00\n      swap1\n      sload\n      swap1\n      0x0100\n      exp\n      swap1\n      div\n      0xffffffffffffffffffffffffffffffffffffffff\n      and\n      0xffffffffffffffffffffffffffffffffffffffff\n      and\n      0xffffffffffffffffffffffffffffffffffffffff\n      and\n      dup2\n      mstore\n      0x20\n      add\n      0x03\n      dup3\n      add\n      dup1\n      sload\n      tag_120\n      swap1\n      tag_110\n      jump\t// in\n    tag_120:\n      dup1\n      0x1f\n      add\n      0x20\n      dup1\n      swap2\n      div\n      mul\n      0x20\n      add\n      mload(0x40)\n      swap1\n      dup2\n      add\n      0x40\n      mstore\n      dup1\n      swap3\n      swap2\n      swap1\n      dup2\n      dup2\n      mstore\n      0x20\n      add\n      dup3\n      dup1\n      sload\n      tag_121\n      swap1\n      tag_110\n      jump\t// in\n    tag_121:\n      dup1\n      iszero\n      tag_122\n      jumpi\n      dup1\n      0x1f\n      lt\n      tag_123\n      jumpi\n      0x0100\n      dup1\n      dup4\n      sload\n      div\n      mul\n      dup4\n      mstore\n      swap2\n      0x20\n      add\n      swap2\n      jump(tag_122)\n    tag_123:\n      dup3\n      add\n      swap2\n      swap1\n      0x00\n      mstore\n      keccak256(0x00, 0x20)\n      swap1\n    tag_124:\n      dup2\n      sload\n      dup2\n      mstore\n      swap1\n      0x01\n      add\n      swap1\n      0x20\n      add\n      dup1\n      dup4\n      gt\n      tag_124\n      jumpi\n      dup3\n      swap1\n      sub\n      0x1f\n      and\n      dup3\n      add\n      swap2\n    tag_122:\n      pop\n      pop\n      pop\n      pop\n      pop\n      dup2\n      mstore\n      0x20\n      add\n      0x04\n      dup3\n      add\n      dup1\n      sload\n      tag_125\n      swap1\n      tag_110\n      jump\t// in\n    tag_125:\n      dup1\n      0x1f\n      add\n      0x20\n      dup1\n      swap2\n      div\n      mul\n      0x20\n      add\n      mload(0x40)\n      swap1\n      dup2\n      add\n      0x40\n      mstore\n      dup1\n      swap3\n      swap2\n      swap1\n      dup2\n      dup2\n      mstore\n      0x20\n      add\n      dup3\n      dup1\n      sload\n      tag_126\n      swap1\n      tag_110\n      jump\t// in\n    tag_126:\n      dup1\n      iszero\n      tag_127\n      jumpi\n      dup1\n      0x1f\n      lt\n      tag_128\n      jumpi\n      0x0100\n      dup1\n      dup4\n      sload\n      div\n      mul\n      dup4\n      mstore\n      swap2\n      0x20\n      add\n      swap2\n      jump(tag_127)\n    tag_128:\n      dup3\n      add\n      swap2\n      swap1\n      0x00\n      mstore\n      keccak256(0x00, 0x20)\n      swap1\n    tag_129:\n      dup2\n      sload\n      dup2\n      mstore\n      swap1\n      0x01\n      add\n      swap1\n      0x20\n      add\n      dup1\n      dup4\n      gt\n      tag_129\n      jumpi\n      dup3\n      swap1\n      sub\n      0x1f\n      and\n      dup3\n      add\n      swap2\n    tag_127:\n      pop\n      pop\n      pop\n      pop\n      pop\n      dup2\n      mstore\n      0x20\n      add\n      0x05\n      dup3\n      add\n      dup1\n      sload\n      tag_130\n      swap1\n      tag_110\n      jump\t// in\n    tag_130:\n      dup1\n      0x1f\n      add\n      0x20\n      dup1\n      swap2\n      div\n      mul\n      0x20\n      add\n      mload(0x40)\n      swap1\n      dup2\n      add\n      0x40\n      mstore\n      dup1\n      swap3\n      swap2\n      swap1\n      dup2\n      dup2\n      mstore\n      0x20\n      add\n      dup3\n      dup1\n      sload\n      tag_131\n      swap1\n      tag_110\n      jump\t// in\n    tag_131:\n      dup1\n      iszero\n      tag_132\n      jumpi\n      dup1\n      0x1f\n      lt\n      tag_133\n      jumpi\n      0x0100\n      dup1\n      dup4\n      sload\n      div\n      mul\n      dup4\n      mstore\n      swap2\n      0x20\n      add\n      swap2\n      jump(tag_132)\n    tag_133:\n      dup3\n      add\n      swap2\n      swap1\n      0x00\n      mstore\n      keccak256(0x00, 0x20)\n      swap1\n    tag_134:\n      dup2\n      sload\n      dup2\n      mstore\n      swap1\n      0x01\n      add\n      swap1\n      0x20\n      add\n      dup1\n      dup4\n      gt\n      tag_134\n      jumpi\n      dup3\n      swap1\n      sub\n      0x1f\n      and\n      dup3\n      add\n      swap2\n    tag_132:\n      pop\n      pop\n      pop\n      pop\n      pop\n      dup2\n      mstore\n      0x20\n      add\n      0x06\n      dup3\n      add\n      dup1\n      sload\n      tag_135\n      swap1\n      tag_110\n      jump\t// in\n    tag_135:\n      dup1\n      0x1f\n      add\n      0x20\n      dup1\n      swap2\n      div\n      mul\n      0x20\n      add\n      mload(0x40)\n      swap1\n      dup2\n      add\n      0x40\n      mstore\n      dup1\n      swap3\n      swap2\n      swap1\n      dup2\n      dup2\n      mstore\n      0x20\n      add\n      dup3\n      dup1\n      sload\n      tag_136\n      swap1\n      tag_110\n      jump\t// in\n    tag_136:\n      dup1\n      iszero\n      tag_137\n      jumpi\n      dup1\n      0x1f\n      lt\n      tag_138\n      jumpi\n      0x0100\n      dup1\n      dup4\n      sload\n      div\n      mul\n      dup4\n      mstore\n      swap2\n      0x20\n      add\n      swap2\n      jump(tag_137)\n    tag_138:\n      dup3\n      add\n      swap2\n      swap1\n      0x00\n      mstore\n      keccak256(0x00, 0x20)\n      swap1\n    tag_139:\n      dup2\n      sload\n      dup2\n      mstore\n      swap1\n      0x01\n      add\n      swap1\n      0x20\n      add\n      dup1\n      dup4\n      gt\n      tag_139\n      jumpi\n      dup3\n      swap1\n      sub\n      0x1f\n      and\n      dup3\n      add\n      swap2\n    tag_137:\n      pop\n      pop\n      pop\n      pop\n      pop\n      dup2\n      mstore\n      0x20\n      add\n      0x07\n      dup3\n      add\n      sload\n      dup2\n      mstore\n      pop\n      pop\n      swap1\n      dup1\n      0x08\n      add\n      mload(0x40)\n      dup1\n      0xc0\n      add\n      0x40\n      mstore\n      swap1\n      dup2\n      0x00\n      dup3\n      add\n      dup1\n      sload\n      tag_140\n      swap1\n      tag_110\n      jump\t// in\n    tag_140:\n      dup1\n      0x1f\n      add\n      0x20\n      dup1\n      swap2\n      div\n      mul\n      0x20\n      add\n      mload(0x40)\n      swap1\n      dup2\n      add\n      0x40\n      mstore\n      dup1\n      swap3\n      swap2\n      swap1\n      dup2\n      dup2\n      mstore\n      0x20\n      add\n      dup3\n      dup1\n      sload\n      tag_141\n      swap1\n      tag_110\n      jump\t// in\n    tag_141:\n      dup1\n      iszero\n      tag_142\n      jumpi\n      dup1\n      0x1f\n      lt\n      tag_143\n      jumpi\n      0x0100\n      dup1\n      dup4\n      sload\n      div\n      mul\n      dup4\n      mstore\n      swap2\n      0x20\n      add\n      swap2\n      jump(tag_142)\n    tag_143:\n      dup3\n      add\n      swap2\n      swap1\n      0x00\n      mstore\n      keccak256(0x00, 0x20)\n      swap1\n    tag_144:\n      dup2\n      sload\n      dup2\n      mstore\n      swap1\n      0x01\n      add\n      swap1\n      0x20\n      add\n      dup1\n      dup4\n      gt\n      tag_144\n      jumpi\n      dup3\n      swap1\n      sub\n      0x1f\n      and\n      dup3\n      add\n      swap2\n    tag_142:\n      pop\n      pop\n      pop\n      pop\n      pop\n      dup2\n      mstore\n      0x20\n      add\n      0x01\n      dup3\n      add\n      dup1\n      sload\n      tag_145\n      swap1\n      tag_110\n      jump\t// in\n    tag_145:\n      dup1\n      0x1f\n      add\n      0x20\n      dup1\n      swap2\n      div\n      mul\n      0x20\n      add\n      mload(0x40)\n      swap1\n      dup2\n      add\n      0x40\n      mstore\n      dup1\n      swap3\n      swap2\n      swap1\n      dup2\n      dup2\n      mstore\n      0x20\n      add\n      dup3\n      dup1\n      sload\n      tag_146\n      swap1\n      tag_110\n      jump\t// in\n    tag_146:\n      dup1\n      iszero\n      tag_147\n      jumpi\n      dup1\n      0x1f\n      lt\n      tag_148\n      jumpi\n      0x0100\n      dup1\n      dup4\n      sload\n      div\n      mul\n      dup4\n      mstore\n      swap2\n      0x20\n      add\n      swap2\n      jump(tag_147)\n    tag_148:\n      dup3\n      add\n      swap2\n      swap1\n      0x00\n      mstore\n      keccak256(0x00, 0x20)\n      swap1\n    tag_149:\n      dup2\n      sload\n      dup2\n      mstore\n      swap1\n      0x01\n      add\n      swap1\n      0x20\n      add\n      dup1\n      dup4\n      gt\n      tag_149\n      jumpi\n      dup3\n      swap1\n      sub\n      0x1f\n      and\n      dup3\n      add\n      swap2\n    tag_147:\n      pop\n      pop\n      pop\n      pop\n      pop\n      dup2\n      mstore\n      0x20\n      add\n      0x02\n      dup3\n      add\n      dup1\n      sload\n      tag_150\n      swap1\n      tag_110\n      jump\t// in\n    tag_150:\n      dup1\n      0x1f\n      add\n      0x20\n      dup1\n      swap2\n      div\n      mul\n      0x20\n      add\n      mload(0x40)\n      swap1\n      dup2\n      add\n      0x40\n      mstore\n      dup1\n      swap3\n      swap2\n      swap1\n      dup2\n      dup2\n      mstore\n      0x20\n      add\n      dup3\n      dup1\n      sload\n      tag_151\n      swap1\n      tag_110\n      jump\t// in\n    tag_151:\n      dup1\n      iszero\n      tag_152\n      jumpi\n      dup1\n      0x1f\n      lt\n      tag_153\n      jumpi\n      0x0100\n      dup1\n      dup4\n      sload\n      div\n      mul\n      dup4\n      mstore\n      swap2\n      0x20\n      add\n      swap2\n      jump(tag_152)\n    tag_153:\n      dup3\n      add\n      swap2\n      swap1\n      0x00\n      mstore\n      keccak256(0x00, 0x20)\n      swap1\n    tag_154:\n      dup2\n      sload\n      dup2\n      mstore\n      swap1\n      0x01\n      add\n      swap1\n      0x20\n      add\n      dup1\n      dup4\n      gt\n      tag_154\n      jumpi\n      dup3\n      swap1\n      sub\n      0x1f\n      and\n      dup3\n      add\n      swap2\n    tag_152:\n      pop\n      pop\n      pop\n      pop\n      pop\n      dup2\n      mstore\n      0x20\n      add\n      0x03\n      dup3\n      add\n      dup1\n      sload\n      tag_155\n      swap1\n      tag_110\n      jump\t// in\n    tag_155:\n      dup1\n      0x1f\n      add\n      0x20\n      dup1\n      swap2\n      div\n      mul\n      0x20\n      add\n      mload(0x40)\n      swap1\n      dup2\n      add\n      0x40\n      mstore\n      dup1\n      swap3\n      swap2\n      swap1\n      dup2\n      dup2\n      mstore\n      0x20\n      add\n      dup3\n      dup1\n      sload\n      tag_156\n      swap1\n      tag_110\n      jump\t// in\n    tag_156:\n      dup1\n      iszero\n      tag_157\n      jumpi\n      dup1\n      0x1f\n      lt\n      tag_158\n      jumpi\n      0x0100\n      dup1\n      dup4\n      sload\n      div\n      mul\n      dup4\n      mstore\n      swap2\n      0x20\n      add\n      swap2\n      jump(tag_157)\n    tag_158:\n      dup3\n      add\n      swap2\n      swap1\n      0x00\n      mstore\n      keccak256(0x00, 0x20)\n      swap1\n    tag_159:\n      dup2\n      sload\n      dup2\n      mstore\n      swap1\n      0x01\n      add\n      swap1\n      0x20\n      add\n      dup1\n      dup4\n      gt\n      tag_159\n      jumpi\n      dup3\n      swap1\n      sub\n      0x1f\n      and\n      dup3\n      add\n      swap2\n    tag_157:\n      pop\n      pop\n      pop\n      pop\n      pop\n      dup2\n      mstore\n      0x20\n      add\n      0x04\n      dup3\n      add\n      dup1\n      sload\n      tag_160\n      swap1\n      tag_110\n      jump\t// in\n    tag_160:\n      dup1\n      0x1f\n      add\n      0x20\n      dup1\n      swap2\n      div\n      mul\n      0x20\n      add\n      mload(0x40)\n      swap1\n      dup2\n      add\n      0x40\n      mstore\n      dup1\n      swap3\n      swap2\n      swap1\n      dup2\n      dup2\n      mstore\n      0x20\n      add\n      dup3\n      dup1\n      sload\n      tag_161\n      swap1\n      tag_110\n      jump\t// in\n    tag_161:\n      dup1\n      iszero\n      tag_162\n      jumpi\n      dup1\n      0x1f\n      lt\n      tag_163\n      jumpi\n      0x0100\n      dup1\n      dup4\n      sload\n      div\n      mul\n      dup4\n      mstore\n      swap2\n      0x20\n      add\n      swap2\n      jump(tag_162)\n    tag_163:\n      dup3\n      add\n      swap2\n      swap1\n      0x00\n      mstore\n      keccak256(0x00, 0x20)\n      swap1\n    tag_164:\n      dup2\n      sload\n      dup2\n      mstore\n      swap1\n      0x01\n      add\n      swap1\n      0x20\n      add\n      dup1\n      dup4\n      gt\n      tag_164\n      jumpi\n      dup3\n      swap1\n      sub\n      0x1f\n      and\n      dup3\n      add\n      swap2\n    tag_162:\n      pop\n      pop\n      pop\n      pop\n      pop\n      dup2\n      mstore\n      0x20\n      add\n      0x05\n      dup3\n      add\n      dup1\n      sload\n      tag_165\n      swap1\n      tag_110\n      jump\t// in\n    tag_165:\n      dup1\n      0x1f\n      add\n      0x20\n      dup1\n      swap2\n      div\n      mul\n      0x20\n      add\n      mload(0x40)\n      swap1\n      dup2\n      add\n      0x40\n      mstore\n      dup1\n      swap3\n      swap2\n      swap1\n      dup2\n      dup2\n      mstore\n      0x20\n      add\n      dup3\n      dup1\n      sload\n      tag_166\n      swap1\n      tag_110\n      jump\t// in\n    tag_166:\n      dup1\n      iszero\n      tag_167\n      jumpi\n      dup1\n      0x1f\n      lt\n      tag_168\n      jumpi\n      0x0100\n      dup1\n      dup4\n      sload\n      div\n      mul\n      dup4\n      mstore\n      swap2\n      0x20\n      add\n      swap2\n      jump(tag_167)\n    tag_168:\n      dup3\n      add\n      swap2\n      swap1\n      0x00\n      mstore\n      keccak256(0x00, 0x20)\n      swap1\n    tag_169:\n      dup2\n      sload\n      dup2\n      mstore\n      swap1\n      0x01\n      add\n      swap1\n      0x20\n      add\n      dup1\n      dup4\n      gt\n      tag_169\n      jumpi\n      dup3\n      swap1\n      sub\n      0x1f\n      and\n      dup3\n      add\n      swap2\n    tag_167:\n      pop\n      pop\n      pop\n      pop\n      pop\n      dup2\n      mstore\n      pop\n      pop\n      swap1\n      dup1\n      0x0e\n      add\n      mload(0x40)\n      dup1\n      0x60\n      add\n      0x40\n      mstore\n      swap1\n      dup2\n      0x00\n      dup3\n      add\n      dup1\n      sload\n      dup1\n      0x20\n      mul\n      0x20\n      add\n      mload(0x40)\n      swap1\n      dup2\n      add\n      0x40\n      mstore\n      dup1\n      swap3\n      swap2\n      swap1\n      dup2\n      dup2\n      mstore\n      0x20\n      add\n      0x00\n      swap1\n    tag_170:\n      dup3\n      dup3\n      lt\n      iszero\n      tag_171\n      jumpi\n      dup4\n      dup3\n      swap1\n      0x00\n      mstore\n      keccak256(0x00, 0x20)\n      add\n      dup1\n      sload\n      tag_173\n      swap1\n      tag_110\n      jump\t// in\n    tag_173:\n      dup1\n      0x1f\n      add\n      0x20\n      dup1\n      swap2\n      div\n      mul\n      0x20\n      add\n      mload(0x40)\n      swap1\n      dup2\n      add\n      0x40\n      mstore\n      dup1\n      swap3\n      swap2\n      swap1\n      dup2\n      dup2\n      mstore\n      0x20\n      add\n      dup3\n      dup1\n      sload\n      tag_174\n      swap1\n      tag_110\n      jump\t// in\n    tag_174:\n      dup1\n      iszero\n      tag_175\n      jumpi\n      dup1\n      0x1f\n      lt\n      tag_176\n      jumpi\n      0x0100\n      dup1\n      dup4\n      sload\n      div\n      mul\n      dup4\n      mstore\n      swap2\n      0x20\n      add\n      swap2\n      jump(tag_175)\n    tag_176:\n      dup3\n      add\n      swap2\n      swap1\n      0x00\n      mstore\n      keccak256(0x00, 0x20)\n      swap1\n    tag_177:\n      dup2\n      sload\n      dup2\n      mstore\n      swap1\n      0x01\n      add\n      swap1\n      0x20\n      add\n      dup1\n      dup4\n      gt\n      tag_177\n      jumpi\n      dup3\n      swap1\n      sub\n      0x1f\n      and\n      dup3\n      add\n      swap2\n    tag_175:\n      pop\n      pop\n      pop\n      pop\n      pop\n      dup2\n      mstore\n      0x20\n      add\n      swap1\n      0x01\n      add\n      swap1\n      jump(tag_170)\n    tag_171:\n      pop\n      pop\n      pop\n      pop\n      dup2\n      mstore\n      0x20\n      add\n      0x01\n      dup3\n      add\n      dup1\n      sload\n      dup1\n      0x20\n      mul\n      0x20\n      add\n      mload(0x40)\n      swap1\n      dup2\n      add\n      0x40\n      mstore\n      dup1\n      swap3\n      swap2\n      swap1\n      dup2\n      dup2\n      mstore\n      0x20\n      add\n      0x00\n      swap1\n    tag_178:\n      dup3\n      dup3\n      lt\n      iszero\n      tag_179\n      jumpi\n      dup4\n      dup3\n      swap1\n      0x00\n      mstore\n      keccak256(0x00, 0x20)\n      add\n      dup1\n      sload\n      tag_181\n      swap1\n      tag_110\n      jump\t// in\n    tag_181:\n      dup1\n      0x1f\n      add\n      0x20\n      dup1\n      swap2\n      div\n      mul\n      0x20\n      add\n      mload(0x40)\n      swap1\n      dup2\n      add\n      0x40\n      mstore\n      dup1\n      swap3\n      swap2\n      swap1\n      dup2\n      dup2\n      mstore\n      0x20\n      add\n      dup3\n      dup1\n      sload\n      tag_182\n      swap1\n      tag_110\n      jump\t// in\n    tag_182:\n      dup1\n      iszero\n      tag_183\n      jumpi\n      dup1\n      0x1f\n      lt\n      tag_184\n      jumpi\n      0x0100\n      dup1\n      dup4\n      sload\n      div\n      mul\n      dup4\n      mstore\n      swap2\n      0x20\n      add\n      swap2\n      jump(tag_183)\n    tag_184:\n      dup3\n      add\n      swap2\n      swap1\n      0x00\n      mstore\n      keccak256(0x00, 0x20)\n      swap1\n    tag_185:\n      dup2\n      sload\n      dup2\n      mstore\n      swap1\n      0x01\n      add\n      swap1\n      0x20\n      add\n      dup1\n      dup4\n      gt\n      tag_185\n      jumpi\n      dup3\n      swap1\n      sub\n      0x1f\n      and\n      dup3\n      add\n      swap2\n    tag_183:\n      pop\n      pop\n      pop\n      pop\n      pop\n      dup2\n      mstore\n      0x20\n      add\n      swap1\n      0x01\n      add\n      swap1\n      jump(tag_178)\n    tag_179:\n      pop\n      pop\n      pop\n      pop\n      dup2\n      mstore\n      0x20\n      add\n      0x02\n      dup3\n      add\n      dup1\n      sload\n      dup1\n      0x20\n      mul\n      0x20\n      add\n      mload(0x40)\n      swap1\n      dup2\n      add\n      0x40\n      mstore\n      dup1\n      swap3\n      swap2\n      swap1\n      dup2\n      dup2\n      mstore\n      0x20\n      add\n      0x00\n      swap1\n    tag_186:\n      dup3\n      dup3\n      lt\n      iszero\n      tag_187\n      jumpi\n      dup4\n      dup3\n      swap1\n      0x00\n      mstore\n      keccak256(0x00, 0x20)\n      add\n      dup1\n      sload\n      tag_189\n      swap1\n      tag_110\n      jump\t// in\n    tag_189:\n      dup1\n      0x1f\n      add\n      0x20\n      dup1\n      swap2\n      div\n      mul\n      0x20\n      add\n      mload(0x40)\n      swap1\n      dup2\n      add\n      0x40\n      mstore\n      dup1\n      swap3\n      swap2\n      swap1\n      dup2\n      dup2\n      mstore\n      0x20\n      add\n      dup3\n      dup1\n      sload\n      tag_190\n      swap1\n      tag_110\n      jump\t// in\n    tag_190:\n      dup1\n      iszero\n      tag_191\n      jumpi\n      dup1\n      0x1f\n      lt\n      tag_192\n      jumpi\n      0x0100\n      dup1\n      dup4\n      sload\n      div\n      mul\n      dup4\n      mstore\n      swap2\n      0x20\n      add\n      swap2\n      jump(tag_191)\n    tag_192:\n      dup3\n      add\n      swap2\n      swap1\n      0x00\n      mstore\n      keccak256(0x00, 0x20)\n      swap1\n    tag_193:\n      dup2\n      sload\n      dup2\n      mstore\n      swap1\n      0x01\n      add\n      swap1\n      0x20\n      add\n      dup1\n      dup4\n      gt\n      tag_193\n      jumpi\n      dup3\n      swap1\n      sub\n      0x1f\n      and\n      dup3\n      add\n      swap2\n    tag_191:\n      pop\n      pop\n      pop\n      pop\n      pop\n      dup2\n      mstore\n      0x20\n      add\n      swap1\n      0x01\n      add\n      swap1\n      jump(tag_186)\n    tag_187:\n      pop\n      pop\n      pop\n      pop\n      dup2\n      mstore\n      pop\n      pop\n      swap1\n      pop\n      dup4\n      jump\t// out\n        /* \"contracts/Profile.sol\":4057:4184  function createCertificate(string[] memory certificate) public {\r... */\n    tag_49:\n        /* \"contracts/Profile.sol\":4165:4176  certificate */\n      dup1\n        /* \"contracts/Profile.sol\":4131:4138  profile */\n      0x00\n        /* \"contracts/Profile.sol\":4131:4150  profile[msg.sender] */\n      dup1\n        /* \"contracts/Profile.sol\":4139:4149  msg.sender */\n      caller\n        /* \"contracts/Profile.sol\":4131:4150  profile[msg.sender] */\n      0xffffffffffffffffffffffffffffffffffffffff\n      and\n      0xffffffffffffffffffffffffffffffffffffffff\n      and\n      dup2\n      mstore\n      0x20\n      add\n      swap1\n      dup2\n      mstore\n      0x20\n      add\n      0x00\n      keccak256\n        /* \"contracts/Profile.sol\":4131:4162  profile[msg.sender].certificate */\n      0x12\n      add\n        /* \"contracts/Profile.sol\":4131:4176  profile[msg.sender].certificate = certificate */\n      swap1\n      dup1\n      mload\n      swap1\n      0x20\n      add\n      swap1\n      tag_195\n      swap3\n      swap2\n      swap1\n      tag_66\n      jump\t// in\n    tag_195:\n      pop\n        /* \"contracts/Profile.sol\":4057:4184  function createCertificate(string[] memory certificate) public {\r... */\n      pop\n      jump\t// out\n        /* \"contracts/Profile.sol\":4202:4294  function delAllEducation() external  {\r... */\n    tag_51:\n        /* \"contracts/Profile.sol\":4257:4264  profile */\n      0x00\n        /* \"contracts/Profile.sol\":4257:4276  profile[msg.sender] */\n      dup1\n        /* \"contracts/Profile.sol\":4265:4275  msg.sender */\n      caller\n        /* \"contracts/Profile.sol\":4257:4276  profile[msg.sender] */\n      0xffffffffffffffffffffffffffffffffffffffff\n      and\n      0xffffffffffffffffffffffffffffffffffffffff\n      and\n      dup2\n      mstore\n      0x20\n      add\n      swap1\n      dup2\n      mstore\n      0x20\n      add\n      0x00\n      keccak256\n        /* \"contracts/Profile.sol\":4257:4286  profile[msg.sender].education */\n      0x11\n      add\n      0x00\n        /* \"contracts/Profile.sol\":4250:4286  delete profile[msg.sender].education */\n      tag_197\n      swap2\n      swap1\n      tag_198\n      jump\t// in\n    tag_197:\n        /* \"contracts/Profile.sol\":4202:4294  function delAllEducation() external  {\r... */\n      jump\t// out\n        /* \"contracts/Profile.sol\":3419:3812  function getEducation(uint index) public view returns(string memory, string memory, string memory, string memory, string memory) {\r... */\n    tag_55:\n        /* \"contracts/Profile.sol\":3473:3486  string memory */\n      0x60\n        /* \"contracts/Profile.sol\":3488:3501  string memory */\n      dup1\n        /* \"contracts/Profile.sol\":3503:3516  string memory */\n      0x60\n        /* \"contracts/Profile.sol\":3518:3531  string memory */\n      dup1\n        /* \"contracts/Profile.sol\":3533:3546  string memory */\n      0x60\n        /* \"contracts/Profile.sol\":3567:3574  profile */\n      0x00\n        /* \"contracts/Profile.sol\":3567:3586  profile[msg.sender] */\n      dup1\n        /* \"contracts/Profile.sol\":3575:3585  msg.sender */\n      caller\n        /* \"contracts/Profile.sol\":3567:3586  profile[msg.sender] */\n      0xffffffffffffffffffffffffffffffffffffffff\n      and\n      0xffffffffffffffffffffffffffffffffffffffff\n      and\n      dup2\n      mstore\n      0x20\n      add\n      swap1\n      dup2\n      mstore\n      0x20\n      add\n      0x00\n      keccak256\n        /* \"contracts/Profile.sol\":3567:3596  profile[msg.sender].education */\n      0x11\n      add\n        /* \"contracts/Profile.sol\":3597:3602  index */\n      dup7\n        /* \"contracts/Profile.sol\":3567:3603  profile[msg.sender].education[index] */\n      dup2\n      sload\n      dup2\n      lt\n      tag_200\n      jumpi\n      tag_201\n      tag_202\n      jump\t// in\n    tag_201:\n    tag_200:\n      swap1\n      0x00\n      mstore\n      keccak256(0x00, 0x20)\n      swap1\n      0x05\n      mul\n      add\n        /* \"contracts/Profile.sol\":3567:3613  profile[msg.sender].education[index].startDate */\n      0x00\n      add\n        /* \"contracts/Profile.sol\":3615:3622  profile */\n      0x00\n        /* \"contracts/Profile.sol\":3615:3634  profile[msg.sender] */\n      dup1\n        /* \"contracts/Profile.sol\":3623:3633  msg.sender */\n      caller\n        /* \"contracts/Profile.sol\":3615:3634  profile[msg.sender] */\n      0xffffffffffffffffffffffffffffffffffffffff\n      and\n      0xffffffffffffffffffffffffffffffffffffffff\n      and\n      dup2\n      mstore\n      0x20\n      add\n      swap1\n      dup2\n      mstore\n      0x20\n      add\n      0x00\n      keccak256\n        /* \"contracts/Profile.sol\":3615:3644  profile[msg.sender].education */\n      0x11\n      add\n        /* \"contracts/Profile.sol\":3645:3650  index */\n      dup8\n        /* \"contracts/Profile.sol\":3615:3651  profile[msg.sender].education[index] */\n      dup2\n      sload\n      dup2\n      lt\n      tag_204\n      jumpi\n      tag_205\n      tag_202\n      jump\t// in\n    tag_205:\n    tag_204:\n      swap1\n      0x00\n      mstore\n      keccak256(0x00, 0x20)\n      swap1\n      0x05\n      mul\n      add\n        /* \"contracts/Profile.sol\":3615:3659  profile[msg.sender].education[index].endDate */\n      0x01\n      add\n        /* \"contracts/Profile.sol\":3661:3668  profile */\n      0x00\n        /* \"contracts/Profile.sol\":3661:3680  profile[msg.sender] */\n      dup1\n        /* \"contracts/Profile.sol\":3669:3679  msg.sender */\n      caller\n        /* \"contracts/Profile.sol\":3661:3680  profile[msg.sender] */\n      0xffffffffffffffffffffffffffffffffffffffff\n      and\n      0xffffffffffffffffffffffffffffffffffffffff\n      and\n      dup2\n      mstore\n      0x20\n      add\n      swap1\n      dup2\n      mstore\n      0x20\n      add\n      0x00\n      keccak256\n        /* \"contracts/Profile.sol\":3661:3690  profile[msg.sender].education */\n      0x11\n      add\n        /* \"contracts/Profile.sol\":3691:3696  index */\n      dup9\n        /* \"contracts/Profile.sol\":3661:3697  profile[msg.sender].education[index] */\n      dup2\n      sload\n      dup2\n      lt\n      tag_207\n      jumpi\n      tag_208\n      tag_202\n      jump\t// in\n    tag_208:\n    tag_207:\n      swap1\n      0x00\n      mstore\n      keccak256(0x00, 0x20)\n      swap1\n      0x05\n      mul\n      add\n        /* \"contracts/Profile.sol\":3661:3708  profile[msg.sender].education[index].univercity */\n      0x02\n      add\n        /* \"contracts/Profile.sol\":3710:3717  profile */\n      0x00\n        /* \"contracts/Profile.sol\":3710:3729  profile[msg.sender] */\n      dup1\n        /* \"contracts/Profile.sol\":3718:3728  msg.sender */\n      caller\n        /* \"contracts/Profile.sol\":3710:3729  profile[msg.sender] */\n      0xffffffffffffffffffffffffffffffffffffffff\n      and\n      0xffffffffffffffffffffffffffffffffffffffff\n      and\n      dup2\n      mstore\n      0x20\n      add\n      swap1\n      dup2\n      mstore\n      0x20\n      add\n      0x00\n      keccak256\n        /* \"contracts/Profile.sol\":3710:3739  profile[msg.sender].education */\n      0x11\n      add\n        /* \"contracts/Profile.sol\":3740:3745  index */\n      dup10\n        /* \"contracts/Profile.sol\":3710:3746  profile[msg.sender].education[index] */\n      dup2\n      sload\n      dup2\n      lt\n      tag_210\n      jumpi\n      tag_211\n      tag_202\n      jump\t// in\n    tag_211:\n    tag_210:\n      swap1\n      0x00\n      mstore\n      keccak256(0x00, 0x20)\n      swap1\n      0x05\n      mul\n      add\n        /* \"contracts/Profile.sol\":3710:3752  profile[msg.sender].education[index].major */\n      0x03\n      add\n        /* \"contracts/Profile.sol\":3754:3761  profile */\n      0x00\n        /* \"contracts/Profile.sol\":3754:3773  profile[msg.sender] */\n      dup1\n        /* \"contracts/Profile.sol\":3762:3772  msg.sender */\n      caller\n        /* \"contracts/Profile.sol\":3754:3773  profile[msg.sender] */\n      0xffffffffffffffffffffffffffffffffffffffff\n      and\n      0xffffffffffffffffffffffffffffffffffffffff\n      and\n      dup2\n      mstore\n      0x20\n      add\n      swap1\n      dup2\n      mstore\n      0x20\n      add\n      0x00\n      keccak256\n        /* \"contracts/Profile.sol\":3754:3783  profile[msg.sender].education */\n      0x11\n      add\n        /* \"contracts/Profile.sol\":3784:3789  index */\n      dup11\n        /* \"contracts/Profile.sol\":3754:3790  profile[msg.sender].education[index] */\n      dup2\n      sload\n      dup2\n      lt\n      tag_213\n      jumpi\n      tag_214\n      tag_202\n      jump\t// in\n    tag_214:\n    tag_213:\n      swap1\n      0x00\n      mstore\n      keccak256(0x00, 0x20)\n      swap1\n      0x05\n      mul\n      add\n        /* \"contracts/Profile.sol\":3754:3803  profile[msg.sender].education[index].finalProject */\n      0x04\n      add\n        /* \"contracts/Profile.sol\":3559:3804  return (profile[msg.sender].education[index].startDate, profile[msg.sender].education[index].endDate, profile[msg.sender].education[index].univercity, profile[msg.sender].education[index].major, profile[msg.sender].education[index].finalProject) */\n      dup5\n      dup1\n      sload\n      tag_216\n      swap1\n      tag_110\n      jump\t// in\n    tag_216:\n      dup1\n      0x1f\n      add\n      0x20\n      dup1\n      swap2\n      div\n      mul\n      0x20\n      add\n      mload(0x40)\n      swap1\n      dup2\n      add\n      0x40\n      mstore\n      dup1\n      swap3\n      swap2\n      swap1\n      dup2\n      dup2\n      mstore\n      0x20\n      add\n      dup3\n      dup1\n      sload\n      tag_217\n      swap1\n      tag_110\n      jump\t// in\n    tag_217:\n      dup1\n      iszero\n      tag_218\n      jumpi\n      dup1\n      0x1f\n      lt\n      tag_219\n      jumpi\n      0x0100\n      dup1\n      dup4\n      sload\n      div\n      mul\n      dup4\n      mstore\n      swap2\n      0x20\n      add\n      swap2\n      jump(tag_218)\n    tag_219:\n      dup3\n      add\n      swap2\n      swap1\n      0x00\n      mstore\n      keccak256(0x00, 0x20)\n      swap1\n    tag_220:\n      dup2\n      sload\n      dup2\n      mstore\n      swap1\n      0x01\n      add\n      swap1\n      0x20\n      add\n      dup1\n      dup4\n      gt\n      tag_220\n      jumpi\n      dup3\n      swap1\n      sub\n      0x1f\n      and\n      dup3\n      add\n      swap2\n    tag_218:\n      pop\n      pop\n      pop\n      pop\n      pop\n      swap5\n      pop\n      dup4\n      dup1\n      sload\n      tag_221\n      swap1\n      tag_110\n      jump\t// in\n    tag_221:\n      dup1\n      0x1f\n      add\n      0x20\n      dup1\n      swap2\n      div\n      mul\n      0x20\n      add\n      mload(0x40)\n      swap1\n      dup2\n      add\n      0x40\n      mstore\n      dup1\n      swap3\n      swap2\n      swap1\n      dup2\n      dup2\n      mstore\n      0x20\n      add\n      dup3\n      dup1\n      sload\n      tag_222\n      swap1\n      tag_110\n      jump\t// in\n    tag_222:\n      dup1\n      iszero\n      tag_223\n      jumpi\n      dup1\n      0x1f\n      lt\n      tag_224\n      jumpi\n      0x0100\n      dup1\n      dup4\n      sload\n      div\n      mul\n      dup4\n      mstore\n      swap2\n      0x20\n      add\n      swap2\n      jump(tag_223)\n    tag_224:\n      dup3\n      add\n      swap2\n      swap1\n      0x00\n      mstore\n      keccak256(0x00, 0x20)\n      swap1\n    tag_225:\n      dup2\n      sload\n      dup2\n      mstore\n      swap1\n      0x01\n      add\n      swap1\n      0x20\n      add\n      dup1\n      dup4\n      gt\n      tag_225\n      jumpi\n      dup3\n      swap1\n      sub\n      0x1f\n      and\n      dup3\n      add\n      swap2\n    tag_223:\n      pop\n      pop\n      pop\n      pop\n      pop\n      swap4\n      pop\n      dup3\n      dup1\n      sload\n      tag_226\n      swap1\n      tag_110\n      jump\t// in\n    tag_226:\n      dup1\n      0x1f\n      add\n      0x20\n      dup1\n      swap2\n      div\n      mul\n      0x20\n      add\n      mload(0x40)\n      swap1\n      dup2\n      add\n      0x40\n      mstore\n      dup1\n      swap3\n      swap2\n      swap1\n      dup2\n      dup2\n      mstore\n      0x20\n      add\n      dup3\n      dup1\n      sload\n      tag_227\n      swap1\n      tag_110\n      jump\t// in\n    tag_227:\n      dup1\n      iszero\n      tag_228\n      jumpi\n      dup1\n      0x1f\n      lt\n      tag_229\n      jumpi\n      0x0100\n      dup1\n      dup4\n      sload\n      div\n      mul\n      dup4\n      mstore\n      swap2\n      0x20\n      add\n      swap2\n      jump(tag_228)\n    tag_229:\n      dup3\n      add\n      swap2\n      swap1\n      0x00\n      mstore\n      keccak256(0x00, 0x20)\n      swap1\n    tag_230:\n      dup2\n      sload\n      dup2\n      mstore\n      swap1\n      0x01\n      add\n      swap1\n      0x20\n      add\n      dup1\n      dup4\n      gt\n      tag_230\n      jumpi\n      dup3\n      swap1\n      sub\n      0x1f\n      and\n      dup3\n      add\n      swap2\n    tag_228:\n      pop\n      pop\n      pop\n      pop\n      pop\n      swap3\n      pop\n      dup2\n      dup1\n      sload\n      tag_231\n      swap1\n      tag_110\n      jump\t// in\n    tag_231:\n      dup1\n      0x1f\n      add\n      0x20\n      dup1\n      swap2\n      div\n      mul\n      0x20\n      add\n      mload(0x40)\n      swap1\n      dup2\n      add\n      0x40\n      mstore\n      dup1\n      swap3\n      swap2\n      swap1\n      dup2\n      dup2\n      mstore\n      0x20\n      add\n      dup3\n      dup1\n      sload\n      tag_232\n      swap1\n      tag_110\n      jump\t// in\n    tag_232:\n      dup1\n      iszero\n      tag_233\n      jumpi\n      dup1\n      0x1f\n      lt\n      tag_234\n      jumpi\n      0x0100\n      dup1\n      dup4\n      sload\n      div\n      mul\n      dup4\n      mstore\n      swap2\n      0x20\n      add\n      swap2\n      jump(tag_233)\n    tag_234:\n      dup3\n      add\n      swap2\n      swap1\n      0x00\n      mstore\n      keccak256(0x00, 0x20)\n      swap1\n    tag_235:\n      dup2\n      sload\n      dup2\n      mstore\n      swap1\n      0x01\n      add\n      swap1\n      0x20\n      add\n      dup1\n      dup4\n      gt\n      tag_235\n      jumpi\n      dup3\n      swap1\n      sub\n      0x1f\n      and\n      dup3\n      add\n      swap2\n    tag_233:\n      pop\n      pop\n      pop\n      pop\n      pop\n      swap2\n      pop\n      dup1\n      dup1\n      sload\n      tag_236\n      swap1\n      tag_110\n      jump\t// in\n    tag_236:\n      dup1\n      0x1f\n      add\n      0x20\n      dup1\n      swap2\n      div\n      mul\n      0x20\n      add\n      mload(0x40)\n      swap1\n      dup2\n      add\n      0x40\n      mstore\n      dup1\n      swap3\n      swap2\n      swap1\n      dup2\n      dup2\n      mstore\n      0x20\n      add\n      dup3\n      dup1\n      sload\n      tag_237\n      swap1\n      tag_110\n      jump\t// in\n    tag_237:\n      dup1\n      iszero\n      tag_238\n      jumpi\n      dup1\n      0x1f\n      lt\n      tag_239\n      jumpi\n      0x0100\n      dup1\n      dup4\n      sload\n      div\n      mul\n      dup4\n      mstore\n      swap2\n      0x20\n      add\n      swap2\n      jump(tag_238)\n    tag_239:\n      dup3\n      add\n      swap2\n      swap1\n      0x00\n      mstore\n      keccak256(0x00, 0x20)\n      swap1\n    tag_240:\n      dup2\n      sload\n      dup2\n      mstore\n      swap1\n      0x01\n      add\n      swap1\n      0x20\n      add\n      dup1\n      dup4\n      gt\n      tag_240\n      jumpi\n      dup3\n      swap1\n      sub\n      0x1f\n      and\n      dup3\n      add\n      swap2\n    tag_238:\n      pop\n      pop\n      pop\n      pop\n      pop\n      swap1\n      pop\n      swap5\n      pop\n      swap5\n      pop\n      swap5\n      pop\n      swap5\n      pop\n      swap5\n      pop\n        /* \"contracts/Profile.sol\":3419:3812  function getEducation(uint index) public view returns(string memory, string memory, string memory, string memory, string memory) {\r... */\n      swap2\n      swap4\n      swap6\n      swap1\n      swap3\n      swap5\n      pop\n      jump\t// out\n        /* \"contracts/Profile.sol\":4402:4478  function delProfile() external {\r... */\n    tag_59:\n        /* \"contracts/Profile.sol\":4451:4458  profile */\n      0x00\n        /* \"contracts/Profile.sol\":4451:4470  profile[msg.sender] */\n      dup1\n        /* \"contracts/Profile.sol\":4459:4469  msg.sender */\n      caller\n        /* \"contracts/Profile.sol\":4451:4470  profile[msg.sender] */\n      0xffffffffffffffffffffffffffffffffffffffff\n      and\n      0xffffffffffffffffffffffffffffffffffffffff\n      and\n      dup2\n      mstore\n      0x20\n      add\n      swap1\n      dup2\n      mstore\n      0x20\n      add\n      0x00\n      keccak256\n      0x00\n        /* \"contracts/Profile.sol\":4444:4470  delete profile[msg.sender] */\n      dup1\n      dup3\n      add\n      0x00\n      dup1\n      dup3\n      add\n      0x00\n      tag_242\n      swap2\n      swap1\n      tag_82\n      jump\t// in\n    tag_242:\n      0x01\n      dup3\n      add\n      0x00\n      tag_243\n      swap2\n      swap1\n      tag_82\n      jump\t// in\n    tag_243:\n      0x02\n      dup3\n      add\n      exp(0x0100, 0x00)\n      dup2\n      sload\n      swap1\n      0xffffffffffffffffffffffffffffffffffffffff\n      mul\n      not\n      and\n      swap1\n      sstore\n      0x03\n      dup3\n      add\n      0x00\n      tag_244\n      swap2\n      swap1\n      tag_82\n      jump\t// in\n    tag_244:\n      0x04\n      dup3\n      add\n      0x00\n      tag_245\n      swap2\n      swap1\n      tag_82\n      jump\t// in\n    tag_245:\n      0x05\n      dup3\n      add\n      0x00\n      tag_246\n      swap2\n      swap1\n      tag_82\n      jump\t// in\n    tag_246:\n      0x06\n      dup3\n      add\n      0x00\n      tag_247\n      swap2\n      swap1\n      tag_82\n      jump\t// in\n    tag_247:\n      0x07\n      dup3\n      add\n      0x00\n      swap1\n      sstore\n      pop\n      pop\n      0x08\n      dup3\n      add\n      0x00\n      dup1\n      dup3\n      add\n      0x00\n      tag_248\n      swap2\n      swap1\n      tag_82\n      jump\t// in\n    tag_248:\n      0x01\n      dup3\n      add\n      0x00\n      tag_249\n      swap2\n      swap1\n      tag_82\n      jump\t// in\n    tag_249:\n      0x02\n      dup3\n      add\n      0x00\n      tag_250\n      swap2\n      swap1\n      tag_82\n      jump\t// in\n    tag_250:\n      0x03\n      dup3\n      add\n      0x00\n      tag_251\n      swap2\n      swap1\n      tag_82\n      jump\t// in\n    tag_251:\n      0x04\n      dup3\n      add\n      0x00\n      tag_252\n      swap2\n      swap1\n      tag_82\n      jump\t// in\n    tag_252:\n      0x05\n      dup3\n      add\n      0x00\n      tag_253\n      swap2\n      swap1\n      tag_82\n      jump\t// in\n    tag_253:\n      pop\n      pop\n      0x0e\n      dup3\n      add\n      0x00\n      dup1\n      dup3\n      add\n      0x00\n      tag_254\n      swap2\n      swap1\n      tag_62\n      jump\t// in\n    tag_254:\n      0x01\n      dup3\n      add\n      0x00\n      tag_255\n      swap2\n      swap1\n      tag_62\n      jump\t// in\n    tag_255:\n      0x02\n      dup3\n      add\n      0x00\n      tag_256\n      swap2\n      swap1\n      tag_62\n      jump\t// in\n    tag_256:\n      pop\n      pop\n      0x11\n      dup3\n      add\n      0x00\n      tag_257\n      swap2\n      swap1\n      tag_198\n      jump\t// in\n    tag_257:\n      0x12\n      dup3\n      add\n      0x00\n      tag_258\n      swap2\n      swap1\n      tag_62\n      jump\t// in\n    tag_258:\n      0x13\n      dup3\n      add\n      0x00\n      tag_259\n      swap2\n      swap1\n      tag_62\n      jump\t// in\n    tag_259:\n      pop\n      pop\n        /* \"contracts/Profile.sol\":4402:4478  function delProfile() external {\r... */\n      jump\t// out\n    tag_62:\n      pop\n      dup1\n      sload\n      0x00\n      dup3\n      sstore\n      swap1\n      0x00\n      mstore\n      keccak256(0x00, 0x20)\n      swap1\n      dup2\n      add\n      swap1\n      tag_261\n      swap2\n      swap1\n      tag_262\n      jump\t// in\n    tag_261:\n      pop\n      jump\t// out\n    tag_66:\n      dup3\n      dup1\n      sload\n      dup3\n      dup3\n      sstore\n      swap1\n      0x00\n      mstore\n      keccak256(0x00, 0x20)\n      swap1\n      dup2\n      add\n      swap3\n      dup3\n      iszero\n      tag_263\n      jumpi\n      swap2\n      0x20\n      mul\n      dup3\n      add\n    tag_264:\n      dup3\n      dup2\n      gt\n      iszero\n      tag_265\n      jumpi\n      dup3\n      mload\n      dup3\n      swap1\n      dup1\n      mload\n      swap1\n      0x20\n      add\n      swap1\n      tag_266\n      swap3\n      swap2\n      swap1\n      tag_75\n      jump\t// in\n    tag_266:\n      pop\n      swap2\n      0x20\n      add\n      swap2\n      swap1\n      0x01\n      add\n      swap1\n      jump(tag_264)\n    tag_265:\n    tag_263:\n      pop\n      swap1\n      pop\n      tag_267\n      swap2\n      swap1\n      tag_262\n      jump\t// in\n    tag_267:\n      pop\n      swap1\n      jump\t// out\n    tag_72:\n      mload(0x40)\n      dup1\n      0xa0\n      add\n      0x40\n      mstore\n      dup1\n      0x60\n      dup2\n      mstore\n      0x20\n      add\n      0x60\n      dup2\n      mstore\n      0x20\n      add\n      0x60\n      dup2\n      mstore\n      0x20\n      add\n      0x60\n      dup2\n      mstore\n      0x20\n      add\n      0x60\n      dup2\n      mstore\n      pop\n      swap1\n      jump\t// out\n    tag_75:\n      dup3\n      dup1\n      sload\n      tag_268\n      swap1\n      tag_110\n      jump\t// in\n    tag_268:\n      swap1\n      0x00\n      mstore\n      keccak256(0x00, 0x20)\n      swap1\n      0x1f\n      add\n      0x20\n      swap1\n      div\n      dup2\n      add\n      swap3\n      dup3\n      tag_270\n      jumpi\n      0x00\n      dup6\n      sstore\n      jump(tag_269)\n    tag_270:\n      dup3\n      0x1f\n      lt\n      tag_271\n      jumpi\n      dup1\n      mload\n      not(0xff)\n      and\n      dup4\n      dup1\n      add\n      or\n      dup6\n      sstore\n      jump(tag_269)\n    tag_271:\n      dup3\n      dup1\n      add\n      0x01\n      add\n      dup6\n      sstore\n      dup3\n      iszero\n      tag_269\n      jumpi\n      swap2\n      dup3\n      add\n    tag_272:\n      dup3\n      dup2\n      gt\n      iszero\n      tag_273\n      jumpi\n      dup3\n      mload\n      dup3\n      sstore\n      swap2\n      0x20\n      add\n      swap2\n      swap1\n      0x01\n      add\n      swap1\n      jump(tag_272)\n    tag_273:\n    tag_269:\n      pop\n      swap1\n      pop\n      tag_274\n      swap2\n      swap1\n      tag_275\n      jump\t// in\n    tag_274:\n      pop\n      swap1\n      jump\t// out\n    tag_82:\n      pop\n      dup1\n      sload\n      tag_276\n      swap1\n      tag_110\n      jump\t// in\n    tag_276:\n      0x00\n      dup3\n      sstore\n      dup1\n      0x1f\n      lt\n      tag_278\n      jumpi\n      pop\n      jump(tag_277)\n    tag_278:\n      0x1f\n      add\n      0x20\n      swap1\n      div\n      swap1\n      0x00\n      mstore\n      keccak256(0x00, 0x20)\n      swap1\n      dup2\n      add\n      swap1\n      tag_279\n      swap2\n      swap1\n      tag_275\n      jump\t// in\n    tag_279:\n    tag_277:\n      pop\n      jump\t// out\n    tag_198:\n      pop\n      dup1\n      sload\n      0x00\n      dup3\n      sstore\n      0x05\n      mul\n      swap1\n      0x00\n      mstore\n      keccak256(0x00, 0x20)\n      swap1\n      dup2\n      add\n      swap1\n      tag_281\n      swap2\n      swap1\n      tag_282\n      jump\t// in\n    tag_281:\n      pop\n      jump\t// out\n    tag_262:\n    tag_283:\n      dup1\n      dup3\n      gt\n      iszero\n      tag_284\n      jumpi\n      0x00\n      dup2\n      dup2\n      tag_285\n      swap2\n      swap1\n      tag_82\n      jump\t// in\n    tag_285:\n      pop\n      0x01\n      add\n      jump(tag_283)\n    tag_284:\n      pop\n      swap1\n      jump\t// out\n    tag_275:\n    tag_286:\n      dup1\n      dup3\n      gt\n      iszero\n      tag_287\n      jumpi\n      0x00\n      dup2\n      0x00\n      swap1\n      sstore\n      pop\n      0x01\n      add\n      jump(tag_286)\n    tag_287:\n      pop\n      swap1\n      jump\t// out\n    tag_282:\n    tag_288:\n      dup1\n      dup3\n      gt\n      iszero\n      tag_289\n      jumpi\n      0x00\n      dup1\n      dup3\n      add\n      0x00\n      tag_290\n      swap2\n      swap1\n      tag_82\n      jump\t// in\n    tag_290:\n      0x01\n      dup3\n      add\n      0x00\n      tag_291\n      swap2\n      swap1\n      tag_82\n      jump\t// in\n    tag_291:\n      0x02\n      dup3\n      add\n      0x00\n      tag_292\n      swap2\n      swap1\n      tag_82\n      jump\t// in\n    tag_292:\n      0x03\n      dup3\n      add\n      0x00\n      tag_293\n      swap2\n      swap1\n      tag_82\n      jump\t// in\n    tag_293:\n      0x04\n      dup3\n      add\n      0x00\n      tag_294\n      swap2\n      swap1\n      tag_82\n      jump\t// in\n    tag_294:\n      pop\n      0x05\n      add\n      jump(tag_288)\n    tag_289:\n      pop\n      swap1\n      jump\t// out\n        /* \"#utility.yul\":23:980   */\n    tag_296:\n        /* \"#utility.yul\":129:134   */\n      0x00\n        /* \"#utility.yul\":154:245   */\n      tag_298\n        /* \"#utility.yul\":170:244   */\n      tag_299\n        /* \"#utility.yul\":237:243   */\n      dup5\n        /* \"#utility.yul\":170:244   */\n      tag_300\n      jump\t// in\n    tag_299:\n        /* \"#utility.yul\":154:245   */\n      tag_301\n      jump\t// in\n    tag_298:\n        /* \"#utility.yul\":145:245   */\n      swap1\n      pop\n        /* \"#utility.yul\":265:270   */\n      dup1\n        /* \"#utility.yul\":294:300   */\n      dup4\n        /* \"#utility.yul\":287:292   */\n      dup3\n        /* \"#utility.yul\":280:301   */\n      mstore\n        /* \"#utility.yul\":328:332   */\n      0x20\n        /* \"#utility.yul\":321:326   */\n      dup3\n        /* \"#utility.yul\":317:333   */\n      add\n        /* \"#utility.yul\":310:333   */\n      swap1\n      pop\n        /* \"#utility.yul\":354:360   */\n      dup3\n        /* \"#utility.yul\":404:407   */\n      dup6\n        /* \"#utility.yul\":396:400   */\n      0x20\n        /* \"#utility.yul\":388:394   */\n      dup7\n        /* \"#utility.yul\":384:401   */\n      mul\n        /* \"#utility.yul\":379:382   */\n      dup3\n        /* \"#utility.yul\":375:402   */\n      add\n        /* \"#utility.yul\":372:408   */\n      gt\n        /* \"#utility.yul\":369:512   */\n      iszero\n      tag_302\n      jumpi\n        /* \"#utility.yul\":423:502   */\n      tag_303\n      tag_304\n      jump\t// in\n    tag_303:\n        /* \"#utility.yul\":369:512   */\n    tag_302:\n        /* \"#utility.yul\":536:537   */\n      0x00\n        /* \"#utility.yul\":521:974   */\n    tag_305:\n        /* \"#utility.yul\":546:552   */\n      dup6\n        /* \"#utility.yul\":543:544   */\n      dup2\n        /* \"#utility.yul\":540:553   */\n      lt\n        /* \"#utility.yul\":521:974   */\n      iszero\n      tag_307\n      jumpi\n        /* \"#utility.yul\":628:631   */\n      dup2\n        /* \"#utility.yul\":615:632   */\n      calldataload\n        /* \"#utility.yul\":664:682   */\n      0xffffffffffffffff\n        /* \"#utility.yul\":651:662   */\n      dup2\n        /* \"#utility.yul\":648:683   */\n      gt\n        /* \"#utility.yul\":645:767   */\n      iszero\n      tag_308\n      jumpi\n        /* \"#utility.yul\":686:765   */\n      tag_309\n      tag_310\n      jump\t// in\n    tag_309:\n        /* \"#utility.yul\":645:767   */\n    tag_308:\n        /* \"#utility.yul\":810:821   */\n      dup1\n        /* \"#utility.yul\":802:808   */\n      dup7\n        /* \"#utility.yul\":798:822   */\n      add\n        /* \"#utility.yul\":848:895   */\n      tag_311\n        /* \"#utility.yul\":891:894   */\n      dup10\n        /* \"#utility.yul\":879:889   */\n      dup3\n        /* \"#utility.yul\":848:895   */\n      tag_312\n      jump\t// in\n    tag_311:\n        /* \"#utility.yul\":843:846   */\n      dup6\n        /* \"#utility.yul\":836:896   */\n      mstore\n        /* \"#utility.yul\":925:929   */\n      0x20\n        /* \"#utility.yul\":920:923   */\n      dup6\n        /* \"#utility.yul\":916:930   */\n      add\n        /* \"#utility.yul\":909:930   */\n      swap5\n      pop\n        /* \"#utility.yul\":959:963   */\n      0x20\n        /* \"#utility.yul\":954:957   */\n      dup5\n        /* \"#utility.yul\":950:964   */\n      add\n        /* \"#utility.yul\":943:964   */\n      swap4\n      pop\n        /* \"#utility.yul\":581:974   */\n      pop\n      pop\n        /* \"#utility.yul\":568:569   */\n      0x01\n        /* \"#utility.yul\":565:566   */\n      dup2\n        /* \"#utility.yul\":561:570   */\n      add\n        /* \"#utility.yul\":556:570   */\n      swap1\n      pop\n        /* \"#utility.yul\":521:974   */\n      jump(tag_305)\n    tag_307:\n        /* \"#utility.yul\":525:539   */\n      pop\n        /* \"#utility.yul\":135:980   */\n      pop\n      pop\n        /* \"#utility.yul\":23:980   */\n      swap4\n      swap3\n      pop\n      pop\n      pop\n      jump\t// out\n        /* \"#utility.yul\":986:1398   */\n    tag_313:\n        /* \"#utility.yul\":1064:1069   */\n      0x00\n        /* \"#utility.yul\":1089:1155   */\n      tag_315\n        /* \"#utility.yul\":1105:1154   */\n      tag_316\n        /* \"#utility.yul\":1147:1153   */\n      dup5\n        /* \"#utility.yul\":1105:1154   */\n      tag_317\n      jump\t// in\n    tag_316:\n        /* \"#utility.yul\":1089:1155   */\n      tag_301\n      jump\t// in\n    tag_315:\n        /* \"#utility.yul\":1080:1155   */\n      swap1\n      pop\n        /* \"#utility.yul\":1178:1184   */\n      dup3\n        /* \"#utility.yul\":1171:1176   */\n      dup2\n        /* \"#utility.yul\":1164:1185   */\n      mstore\n        /* \"#utility.yul\":1216:1220   */\n      0x20\n        /* \"#utility.yul\":1209:1214   */\n      dup2\n        /* \"#utility.yul\":1205:1221   */\n      add\n        /* \"#utility.yul\":1254:1257   */\n      dup5\n        /* \"#utility.yul\":1245:1251   */\n      dup5\n        /* \"#utility.yul\":1240:1243   */\n      dup5\n        /* \"#utility.yul\":1236:1252   */\n      add\n        /* \"#utility.yul\":1233:1258   */\n      gt\n        /* \"#utility.yul\":1230:1342   */\n      iszero\n      tag_318\n      jumpi\n        /* \"#utility.yul\":1261:1340   */\n      tag_319\n      tag_320\n      jump\t// in\n    tag_319:\n        /* \"#utility.yul\":1230:1342   */\n    tag_318:\n        /* \"#utility.yul\":1351:1392   */\n      tag_321\n        /* \"#utility.yul\":1385:1391   */\n      dup5\n        /* \"#utility.yul\":1380:1383   */\n      dup3\n        /* \"#utility.yul\":1375:1378   */\n      dup6\n        /* \"#utility.yul\":1351:1392   */\n      tag_322\n      jump\t// in\n    tag_321:\n        /* \"#utility.yul\":1070:1398   */\n      pop\n        /* \"#utility.yul\":986:1398   */\n      swap4\n      swap3\n      pop\n      pop\n      pop\n      jump\t// out\n        /* \"#utility.yul\":1404:1543   */\n    tag_323:\n        /* \"#utility.yul\":1450:1455   */\n      0x00\n        /* \"#utility.yul\":1488:1494   */\n      dup2\n        /* \"#utility.yul\":1475:1495   */\n      calldataload\n        /* \"#utility.yul\":1466:1495   */\n      swap1\n      pop\n        /* \"#utility.yul\":1504:1537   */\n      tag_325\n        /* \"#utility.yul\":1531:1536   */\n      dup2\n        /* \"#utility.yul\":1504:1537   */\n      tag_326\n      jump\t// in\n    tag_325:\n        /* \"#utility.yul\":1404:1543   */\n      swap3\n      swap2\n      pop\n      pop\n      jump\t// out\n        /* \"#utility.yul\":1565:1955   */\n    tag_327:\n        /* \"#utility.yul\":1646:1651   */\n      0x00\n        /* \"#utility.yul\":1695:1698   */\n      dup3\n        /* \"#utility.yul\":1688:1692   */\n      0x1f\n        /* \"#utility.yul\":1680:1686   */\n      dup4\n        /* \"#utility.yul\":1676:1693   */\n      add\n        /* \"#utility.yul\":1672:1699   */\n      slt\n        /* \"#utility.yul\":1662:1784   */\n      tag_329\n      jumpi\n        /* \"#utility.yul\":1703:1782   */\n      tag_330\n      tag_310\n      jump\t// in\n    tag_330:\n        /* \"#utility.yul\":1662:1784   */\n    tag_329:\n        /* \"#utility.yul\":1820:1826   */\n      dup2\n        /* \"#utility.yul\":1807:1827   */\n      calldataload\n        /* \"#utility.yul\":1845:1949   */\n      tag_331\n        /* \"#utility.yul\":1945:1948   */\n      dup5\n        /* \"#utility.yul\":1937:1943   */\n      dup3\n        /* \"#utility.yul\":1930:1934   */\n      0x20\n        /* \"#utility.yul\":1922:1928   */\n      dup7\n        /* \"#utility.yul\":1918:1935   */\n      add\n        /* \"#utility.yul\":1845:1949   */\n      tag_296\n      jump\t// in\n    tag_331:\n        /* \"#utility.yul\":1836:1949   */\n      swap2\n      pop\n        /* \"#utility.yul\":1652:1955   */\n      pop\n        /* \"#utility.yul\":1565:1955   */\n      swap3\n      swap2\n      pop\n      pop\n      jump\t// out\n        /* \"#utility.yul\":1975:2315   */\n    tag_312:\n        /* \"#utility.yul\":2031:2036   */\n      0x00\n        /* \"#utility.yul\":2080:2083   */\n      dup3\n        /* \"#utility.yul\":2073:2077   */\n      0x1f\n        /* \"#utility.yul\":2065:2071   */\n      dup4\n        /* \"#utility.yul\":2061:2078   */\n      add\n        /* \"#utility.yul\":2057:2084   */\n      slt\n        /* \"#utility.yul\":2047:2169   */\n      tag_333\n      jumpi\n        /* \"#utility.yul\":2088:2167   */\n      tag_334\n      tag_310\n      jump\t// in\n    tag_334:\n        /* \"#utility.yul\":2047:2169   */\n    tag_333:\n        /* \"#utility.yul\":2205:2211   */\n      dup2\n        /* \"#utility.yul\":2192:2212   */\n      calldataload\n        /* \"#utility.yul\":2230:2309   */\n      tag_335\n        /* \"#utility.yul\":2305:2308   */\n      dup5\n        /* \"#utility.yul\":2297:2303   */\n      dup3\n        /* \"#utility.yul\":2290:2294   */\n      0x20\n        /* \"#utility.yul\":2282:2288   */\n      dup7\n        /* \"#utility.yul\":2278:2295   */\n      add\n        /* \"#utility.yul\":2230:2309   */\n      tag_313\n      jump\t// in\n    tag_335:\n        /* \"#utility.yul\":2221:2309   */\n      swap2\n      pop\n        /* \"#utility.yul\":2037:2315   */\n      pop\n        /* \"#utility.yul\":1975:2315   */\n      swap3\n      swap2\n      pop\n      pop\n      jump\t// out\n        /* \"#utility.yul\":2321:2460   */\n    tag_336:\n        /* \"#utility.yul\":2367:2372   */\n      0x00\n        /* \"#utility.yul\":2405:2411   */\n      dup2\n        /* \"#utility.yul\":2392:2412   */\n      calldataload\n        /* \"#utility.yul\":2383:2412   */\n      swap1\n      pop\n        /* \"#utility.yul\":2421:2454   */\n      tag_338\n        /* \"#utility.yul\":2448:2453   */\n      dup2\n        /* \"#utility.yul\":2421:2454   */\n      tag_339\n      jump\t// in\n    tag_338:\n        /* \"#utility.yul\":2321:2460   */\n      swap3\n      swap2\n      pop\n      pop\n      jump\t// out\n        /* \"#utility.yul\":2466:2795   */\n    tag_43:\n        /* \"#utility.yul\":2525:2531   */\n      0x00\n        /* \"#utility.yul\":2574:2576   */\n      0x20\n        /* \"#utility.yul\":2562:2571   */\n      dup3\n        /* \"#utility.yul\":2553:2560   */\n      dup5\n        /* \"#utility.yul\":2549:2572   */\n      sub\n        /* \"#utility.yul\":2545:2577   */\n      slt\n        /* \"#utility.yul\":2542:2661   */\n      iszero\n      tag_341\n      jumpi\n        /* \"#utility.yul\":2580:2659   */\n      tag_342\n      tag_343\n      jump\t// in\n    tag_342:\n        /* \"#utility.yul\":2542:2661   */\n    tag_341:\n        /* \"#utility.yul\":2700:2701   */\n      0x00\n        /* \"#utility.yul\":2725:2778   */\n      tag_344\n        /* \"#utility.yul\":2770:2777   */\n      dup5\n        /* \"#utility.yul\":2761:2767   */\n      dup3\n        /* \"#utility.yul\":2750:2759   */\n      dup6\n        /* \"#utility.yul\":2746:2768   */\n      add\n        /* \"#utility.yul\":2725:2778   */\n      tag_323\n      jump\t// in\n    tag_344:\n        /* \"#utility.yul\":2715:2778   */\n      swap2\n      pop\n        /* \"#utility.yul\":2671:2788   */\n      pop\n        /* \"#utility.yul\":2466:2795   */\n      swap3\n      swap2\n      pop\n      pop\n      jump\t// out\n        /* \"#utility.yul\":2801:3360   */\n    tag_39:\n        /* \"#utility.yul\":2895:2901   */\n      0x00\n        /* \"#utility.yul\":2944:2946   */\n      0x20\n        /* \"#utility.yul\":2932:2941   */\n      dup3\n        /* \"#utility.yul\":2923:2930   */\n      dup5\n        /* \"#utility.yul\":2919:2942   */\n      sub\n        /* \"#utility.yul\":2915:2947   */\n      slt\n        /* \"#utility.yul\":2912:3031   */\n      iszero\n      tag_346\n      jumpi\n        /* \"#utility.yul\":2950:3029   */\n      tag_347\n      tag_343\n      jump\t// in\n    tag_347:\n        /* \"#utility.yul\":2912:3031   */\n    tag_346:\n        /* \"#utility.yul\":3098:3099   */\n      0x00\n        /* \"#utility.yul\":3087:3096   */\n      dup3\n        /* \"#utility.yul\":3083:3100   */\n      add\n        /* \"#utility.yul\":3070:3101   */\n      calldataload\n        /* \"#utility.yul\":3128:3146   */\n      0xffffffffffffffff\n        /* \"#utility.yul\":3120:3126   */\n      dup2\n        /* \"#utility.yul\":3117:3147   */\n      gt\n        /* \"#utility.yul\":3114:3231   */\n      iszero\n      tag_348\n      jumpi\n        /* \"#utility.yul\":3150:3229   */\n      tag_349\n      tag_350\n      jump\t// in\n    tag_349:\n        /* \"#utility.yul\":3114:3231   */\n    tag_348:\n        /* \"#utility.yul\":3255:3343   */\n      tag_351\n        /* \"#utility.yul\":3335:3342   */\n      dup5\n        /* \"#utility.yul\":3326:3332   */\n      dup3\n        /* \"#utility.yul\":3315:3324   */\n      dup6\n        /* \"#utility.yul\":3311:3333   */\n      add\n        /* \"#utility.yul\":3255:3343   */\n      tag_327\n      jump\t// in\n    tag_351:\n        /* \"#utility.yul\":3245:3343   */\n      swap2\n      pop\n        /* \"#utility.yul\":3041:3353   */\n      pop\n        /* \"#utility.yul\":2801:3360   */\n      swap3\n      swap2\n      pop\n      pop\n      jump\t// out\n        /* \"#utility.yul\":3366:4675   */\n    tag_18:\n        /* \"#utility.yul\":3548:3554   */\n      0x00\n        /* \"#utility.yul\":3556:3562   */\n      dup1\n        /* \"#utility.yul\":3564:3570   */\n      0x00\n        /* \"#utility.yul\":3613:3615   */\n      0x60\n        /* \"#utility.yul\":3601:3610   */\n      dup5\n        /* \"#utility.yul\":3592:3599   */\n      dup7\n        /* \"#utility.yul\":3588:3611   */\n      sub\n        /* \"#utility.yul\":3584:3616   */\n      slt\n        /* \"#utility.yul\":3581:3700   */\n      iszero\n      tag_353\n      jumpi\n        /* \"#utility.yul\":3619:3698   */\n      tag_354\n      tag_343\n      jump\t// in\n    tag_354:\n        /* \"#utility.yul\":3581:3700   */\n    tag_353:\n        /* \"#utility.yul\":3767:3768   */\n      0x00\n        /* \"#utility.yul\":3756:3765   */\n      dup5\n        /* \"#utility.yul\":3752:3769   */\n      add\n        /* \"#utility.yul\":3739:3770   */\n      calldataload\n        /* \"#utility.yul\":3797:3815   */\n      0xffffffffffffffff\n        /* \"#utility.yul\":3789:3795   */\n      dup2\n        /* \"#utility.yul\":3786:3816   */\n      gt\n        /* \"#utility.yul\":3783:3900   */\n      iszero\n      tag_355\n      jumpi\n        /* \"#utility.yul\":3819:3898   */\n      tag_356\n      tag_350\n      jump\t// in\n    tag_356:\n        /* \"#utility.yul\":3783:3900   */\n    tag_355:\n        /* \"#utility.yul\":3924:4012   */\n      tag_357\n        /* \"#utility.yul\":4004:4011   */\n      dup7\n        /* \"#utility.yul\":3995:4001   */\n      dup3\n        /* \"#utility.yul\":3984:3993   */\n      dup8\n        /* \"#utility.yul\":3980:4002   */\n      add\n        /* \"#utility.yul\":3924:4012   */\n      tag_327\n      jump\t// in\n    tag_357:\n        /* \"#utility.yul\":3914:4012   */\n      swap4\n      pop\n        /* \"#utility.yul\":3710:4022   */\n      pop\n        /* \"#utility.yul\":4089:4091   */\n      0x20\n        /* \"#utility.yul\":4078:4087   */\n      dup5\n        /* \"#utility.yul\":4074:4092   */\n      add\n        /* \"#utility.yul\":4061:4093   */\n      calldataload\n        /* \"#utility.yul\":4120:4138   */\n      0xffffffffffffffff\n        /* \"#utility.yul\":4112:4118   */\n      dup2\n        /* \"#utility.yul\":4109:4139   */\n      gt\n        /* \"#utility.yul\":4106:4223   */\n      iszero\n      tag_358\n      jumpi\n        /* \"#utility.yul\":4142:4221   */\n      tag_359\n      tag_350\n      jump\t// in\n    tag_359:\n        /* \"#utility.yul\":4106:4223   */\n    tag_358:\n        /* \"#utility.yul\":4247:4335   */\n      tag_360\n        /* \"#utility.yul\":4327:4334   */\n      dup7\n        /* \"#utility.yul\":4318:4324   */\n      dup3\n        /* \"#utility.yul\":4307:4316   */\n      dup8\n        /* \"#utility.yul\":4303:4325   */\n      add\n        /* \"#utility.yul\":4247:4335   */\n      tag_327\n      jump\t// in\n    tag_360:\n        /* \"#utility.yul\":4237:4335   */\n      swap3\n      pop\n        /* \"#utility.yul\":4032:4345   */\n      pop\n        /* \"#utility.yul\":4412:4414   */\n      0x40\n        /* \"#utility.yul\":4401:4410   */\n      dup5\n        /* \"#utility.yul\":4397:4415   */\n      add\n        /* \"#utility.yul\":4384:4416   */\n      calldataload\n        /* \"#utility.yul\":4443:4461   */\n      0xffffffffffffffff\n        /* \"#utility.yul\":4435:4441   */\n      dup2\n        /* \"#utility.yul\":4432:4462   */\n      gt\n        /* \"#utility.yul\":4429:4546   */\n      iszero\n      tag_361\n      jumpi\n        /* \"#utility.yul\":4465:4544   */\n      tag_362\n      tag_350\n      jump\t// in\n    tag_362:\n        /* \"#utility.yul\":4429:4546   */\n    tag_361:\n        /* \"#utility.yul\":4570:4658   */\n      tag_363\n        /* \"#utility.yul\":4650:4657   */\n      dup7\n        /* \"#utility.yul\":4641:4647   */\n      dup3\n        /* \"#utility.yul\":4630:4639   */\n      dup8\n        /* \"#utility.yul\":4626:4648   */\n      add\n        /* \"#utility.yul\":4570:4658   */\n      tag_327\n      jump\t// in\n    tag_363:\n        /* \"#utility.yul\":4560:4658   */\n      swap2\n      pop\n        /* \"#utility.yul\":4355:4668   */\n      pop\n        /* \"#utility.yul\":3366:4675   */\n      swap3\n      pop\n      swap3\n      pop\n      swap3\n      jump\t// out\n        /* \"#utility.yul\":4681:6492   */\n    tag_26:\n        /* \"#utility.yul\":4826:4832   */\n      0x00\n        /* \"#utility.yul\":4834:4840   */\n      dup1\n        /* \"#utility.yul\":4842:4848   */\n      0x00\n        /* \"#utility.yul\":4850:4856   */\n      dup1\n        /* \"#utility.yul\":4858:4864   */\n      0x00\n        /* \"#utility.yul\":4907:4910   */\n      0xa0\n        /* \"#utility.yul\":4895:4904   */\n      dup7\n        /* \"#utility.yul\":4886:4893   */\n      dup9\n        /* \"#utility.yul\":4882:4905   */\n      sub\n        /* \"#utility.yul\":4878:4911   */\n      slt\n        /* \"#utility.yul\":4875:4995   */\n      iszero\n      tag_365\n      jumpi\n        /* \"#utility.yul\":4914:4993   */\n      tag_366\n      tag_343\n      jump\t// in\n    tag_366:\n        /* \"#utility.yul\":4875:4995   */\n    tag_365:\n        /* \"#utility.yul\":5062:5063   */\n      0x00\n        /* \"#utility.yul\":5051:5060   */\n      dup7\n        /* \"#utility.yul\":5047:5064   */\n      add\n        /* \"#utility.yul\":5034:5065   */\n      calldataload\n        /* \"#utility.yul\":5092:5110   */\n      0xffffffffffffffff\n        /* \"#utility.yul\":5084:5090   */\n      dup2\n        /* \"#utility.yul\":5081:5111   */\n      gt\n        /* \"#utility.yul\":5078:5195   */\n      iszero\n      tag_367\n      jumpi\n        /* \"#utility.yul\":5114:5193   */\n      tag_368\n      tag_350\n      jump\t// in\n    tag_368:\n        /* \"#utility.yul\":5078:5195   */\n    tag_367:\n        /* \"#utility.yul\":5219:5282   */\n      tag_369\n        /* \"#utility.yul\":5274:5281   */\n      dup9\n        /* \"#utility.yul\":5265:5271   */\n      dup3\n        /* \"#utility.yul\":5254:5263   */\n      dup10\n        /* \"#utility.yul\":5250:5272   */\n      add\n        /* \"#utility.yul\":5219:5282   */\n      tag_312\n      jump\t// in\n    tag_369:\n        /* \"#utility.yul\":5209:5282   */\n      swap6\n      pop\n        /* \"#utility.yul\":5005:5292   */\n      pop\n        /* \"#utility.yul\":5359:5361   */\n      0x20\n        /* \"#utility.yul\":5348:5357   */\n      dup7\n        /* \"#utility.yul\":5344:5362   */\n      add\n        /* \"#utility.yul\":5331:5363   */\n      calldataload\n        /* \"#utility.yul\":5390:5408   */\n      0xffffffffffffffff\n        /* \"#utility.yul\":5382:5388   */\n      dup2\n        /* \"#utility.yul\":5379:5409   */\n      gt\n        /* \"#utility.yul\":5376:5493   */\n      iszero\n      tag_370\n      jumpi\n        /* \"#utility.yul\":5412:5491   */\n      tag_371\n      tag_350\n      jump\t// in\n    tag_371:\n        /* \"#utility.yul\":5376:5493   */\n    tag_370:\n        /* \"#utility.yul\":5517:5580   */\n      tag_372\n        /* \"#utility.yul\":5572:5579   */\n      dup9\n        /* \"#utility.yul\":5563:5569   */\n      dup3\n        /* \"#utility.yul\":5552:5561   */\n      dup10\n        /* \"#utility.yul\":5548:5570   */\n      add\n        /* \"#utility.yul\":5517:5580   */\n      tag_312\n      jump\t// in\n    tag_372:\n        /* \"#utility.yul\":5507:5580   */\n      swap5\n      pop\n        /* \"#utility.yul\":5302:5590   */\n      pop\n        /* \"#utility.yul\":5657:5659   */\n      0x40\n        /* \"#utility.yul\":5646:5655   */\n      dup7\n        /* \"#utility.yul\":5642:5660   */\n      add\n        /* \"#utility.yul\":5629:5661   */\n      calldataload\n        /* \"#utility.yul\":5688:5706   */\n      0xffffffffffffffff\n        /* \"#utility.yul\":5680:5686   */\n      dup2\n        /* \"#utility.yul\":5677:5707   */\n      gt\n        /* \"#utility.yul\":5674:5791   */\n      iszero\n      tag_373\n      jumpi\n        /* \"#utility.yul\":5710:5789   */\n      tag_374\n      tag_350\n      jump\t// in\n    tag_374:\n        /* \"#utility.yul\":5674:5791   */\n    tag_373:\n        /* \"#utility.yul\":5815:5878   */\n      tag_375\n        /* \"#utility.yul\":5870:5877   */\n      dup9\n        /* \"#utility.yul\":5861:5867   */\n      dup3\n        /* \"#utility.yul\":5850:5859   */\n      dup10\n        /* \"#utility.yul\":5846:5868   */\n      add\n        /* \"#utility.yul\":5815:5878   */\n      tag_312\n      jump\t// in\n    tag_375:\n        /* \"#utility.yul\":5805:5878   */\n      swap4\n      pop\n        /* \"#utility.yul\":5600:5888   */\n      pop\n        /* \"#utility.yul\":5955:5957   */\n      0x60\n        /* \"#utility.yul\":5944:5953   */\n      dup7\n        /* \"#utility.yul\":5940:5958   */\n      add\n        /* \"#utility.yul\":5927:5959   */\n      calldataload\n        /* \"#utility.yul\":5986:6004   */\n      0xffffffffffffffff\n        /* \"#utility.yul\":5978:5984   */\n      dup2\n        /* \"#utility.yul\":5975:6005   */\n      gt\n        /* \"#utility.yul\":5972:6089   */\n      iszero\n      tag_376\n      jumpi\n        /* \"#utility.yul\":6008:6087   */\n      tag_377\n      tag_350\n      jump\t// in\n    tag_377:\n        /* \"#utility.yul\":5972:6089   */\n    tag_376:\n        /* \"#utility.yul\":6113:6176   */\n      tag_378\n        /* \"#utility.yul\":6168:6175   */\n      dup9\n        /* \"#utility.yul\":6159:6165   */\n      dup3\n        /* \"#utility.yul\":6148:6157   */\n      dup10\n        /* \"#utility.yul\":6144:6166   */\n      add\n        /* \"#utility.yul\":6113:6176   */\n      tag_312\n      jump\t// in\n    tag_378:\n        /* \"#utility.yul\":6103:6176   */\n      swap3\n      pop\n        /* \"#utility.yul\":5898:6186   */\n      pop\n        /* \"#utility.yul\":6253:6256   */\n      0x80\n        /* \"#utility.yul\":6242:6251   */\n      dup7\n        /* \"#utility.yul\":6238:6257   */\n      add\n        /* \"#utility.yul\":6225:6258   */\n      calldataload\n        /* \"#utility.yul\":6285:6303   */\n      0xffffffffffffffff\n        /* \"#utility.yul\":6277:6283   */\n      dup2\n        /* \"#utility.yul\":6274:6304   */\n      gt\n        /* \"#utility.yul\":6271:6388   */\n      iszero\n      tag_379\n      jumpi\n        /* \"#utility.yul\":6307:6386   */\n      tag_380\n      tag_350\n      jump\t// in\n    tag_380:\n        /* \"#utility.yul\":6271:6388   */\n    tag_379:\n        /* \"#utility.yul\":6412:6475   */\n      tag_381\n        /* \"#utility.yul\":6467:6474   */\n      dup9\n        /* \"#utility.yul\":6458:6464   */\n      dup3\n        /* \"#utility.yul\":6447:6456   */\n      dup10\n        /* \"#utility.yul\":6443:6465   */\n      add\n        /* \"#utility.yul\":6412:6475   */\n      tag_312\n      jump\t// in\n    tag_381:\n        /* \"#utility.yul\":6402:6475   */\n      swap2\n      pop\n        /* \"#utility.yul\":6196:6485   */\n      pop\n        /* \"#utility.yul\":4681:6492   */\n      swap3\n      swap6\n      pop\n      swap3\n      swap6\n      swap1\n      swap4\n      pop\n      jump\t// out\n        /* \"#utility.yul\":6498:8635   */\n    tag_33:\n        /* \"#utility.yul\":6662:6668   */\n      0x00\n        /* \"#utility.yul\":6670:6676   */\n      dup1\n        /* \"#utility.yul\":6678:6684   */\n      0x00\n        /* \"#utility.yul\":6686:6692   */\n      dup1\n        /* \"#utility.yul\":6694:6700   */\n      0x00\n        /* \"#utility.yul\":6702:6708   */\n      dup1\n        /* \"#utility.yul\":6751:6754   */\n      0xc0\n        /* \"#utility.yul\":6739:6748   */\n      dup8\n        /* \"#utility.yul\":6730:6737   */\n      dup10\n        /* \"#utility.yul\":6726:6749   */\n      sub\n        /* \"#utility.yul\":6722:6755   */\n      slt\n        /* \"#utility.yul\":6719:6839   */\n      iszero\n      tag_383\n      jumpi\n        /* \"#utility.yul\":6758:6837   */\n      tag_384\n      tag_343\n      jump\t// in\n    tag_384:\n        /* \"#utility.yul\":6719:6839   */\n    tag_383:\n        /* \"#utility.yul\":6906:6907   */\n      0x00\n        /* \"#utility.yul\":6895:6904   */\n      dup8\n        /* \"#utility.yul\":6891:6908   */\n      add\n        /* \"#utility.yul\":6878:6909   */\n      calldataload\n        /* \"#utility.yul\":6936:6954   */\n      0xffffffffffffffff\n        /* \"#utility.yul\":6928:6934   */\n      dup2\n        /* \"#utility.yul\":6925:6955   */\n      gt\n        /* \"#utility.yul\":6922:7039   */\n      iszero\n      tag_385\n      jumpi\n        /* \"#utility.yul\":6958:7037   */\n      tag_386\n      tag_350\n      jump\t// in\n    tag_386:\n        /* \"#utility.yul\":6922:7039   */\n    tag_385:\n        /* \"#utility.yul\":7063:7126   */\n      tag_387\n        /* \"#utility.yul\":7118:7125   */\n      dup10\n        /* \"#utility.yul\":7109:7115   */\n      dup3\n        /* \"#utility.yul\":7098:7107   */\n      dup11\n        /* \"#utility.yul\":7094:7116   */\n      add\n        /* \"#utility.yul\":7063:7126   */\n      tag_312\n      jump\t// in\n    tag_387:\n        /* \"#utility.yul\":7053:7126   */\n      swap7\n      pop\n        /* \"#utility.yul\":6849:7136   */\n      pop\n        /* \"#utility.yul\":7203:7205   */\n      0x20\n        /* \"#utility.yul\":7192:7201   */\n      dup8\n        /* \"#utility.yul\":7188:7206   */\n      add\n        /* \"#utility.yul\":7175:7207   */\n      calldataload\n        /* \"#utility.yul\":7234:7252   */\n      0xffffffffffffffff\n        /* \"#utility.yul\":7226:7232   */\n      dup2\n        /* \"#utility.yul\":7223:7253   */\n      gt\n        /* \"#utility.yul\":7220:7337   */\n      iszero\n      tag_388\n      jumpi\n        /* \"#utility.yul\":7256:7335   */\n      tag_389\n      tag_350\n      jump\t// in\n    tag_389:\n        /* \"#utility.yul\":7220:7337   */\n    tag_388:\n        /* \"#utility.yul\":7361:7424   */\n      tag_390\n        /* \"#utility.yul\":7416:7423   */\n      dup10\n        /* \"#utility.yul\":7407:7413   */\n      dup3\n        /* \"#utility.yul\":7396:7405   */\n      dup11\n        /* \"#utility.yul\":7392:7414   */\n      add\n        /* \"#utility.yul\":7361:7424   */\n      tag_312\n      jump\t// in\n    tag_390:\n        /* \"#utility.yul\":7351:7424   */\n      swap6\n      pop\n        /* \"#utility.yul\":7146:7434   */\n      pop\n        /* \"#utility.yul\":7501:7503   */\n      0x40\n        /* \"#utility.yul\":7490:7499   */\n      dup8\n        /* \"#utility.yul\":7486:7504   */\n      add\n        /* \"#utility.yul\":7473:7505   */\n      calldataload\n        /* \"#utility.yul\":7532:7550   */\n      0xffffffffffffffff\n        /* \"#utility.yul\":7524:7530   */\n      dup2\n        /* \"#utility.yul\":7521:7551   */\n      gt\n        /* \"#utility.yul\":7518:7635   */\n      iszero\n      tag_391\n      jumpi\n        /* \"#utility.yul\":7554:7633   */\n      tag_392\n      tag_350\n      jump\t// in\n    tag_392:\n        /* \"#utility.yul\":7518:7635   */\n    tag_391:\n        /* \"#utility.yul\":7659:7722   */\n      tag_393\n        /* \"#utility.yul\":7714:7721   */\n      dup10\n        /* \"#utility.yul\":7705:7711   */\n      dup3\n        /* \"#utility.yul\":7694:7703   */\n      dup11\n        /* \"#utility.yul\":7690:7712   */\n      add\n        /* \"#utility.yul\":7659:7722   */\n      tag_312\n      jump\t// in\n    tag_393:\n        /* \"#utility.yul\":7649:7722   */\n      swap5\n      pop\n        /* \"#utility.yul\":7444:7732   */\n      pop\n        /* \"#utility.yul\":7799:7801   */\n      0x60\n        /* \"#utility.yul\":7788:7797   */\n      dup8\n        /* \"#utility.yul\":7784:7802   */\n      add\n        /* \"#utility.yul\":7771:7803   */\n      calldataload\n        /* \"#utility.yul\":7830:7848   */\n      0xffffffffffffffff\n        /* \"#utility.yul\":7822:7828   */\n      dup2\n        /* \"#utility.yul\":7819:7849   */\n      gt\n        /* \"#utility.yul\":7816:7933   */\n      iszero\n      tag_394\n      jumpi\n        /* \"#utility.yul\":7852:7931   */\n      tag_395\n      tag_350\n      jump\t// in\n    tag_395:\n        /* \"#utility.yul\":7816:7933   */\n    tag_394:\n        /* \"#utility.yul\":7957:8020   */\n      tag_396\n        /* \"#utility.yul\":8012:8019   */\n      dup10\n        /* \"#utility.yul\":8003:8009   */\n      dup3\n        /* \"#utility.yul\":7992:8001   */\n      dup11\n        /* \"#utility.yul\":7988:8010   */\n      add\n        /* \"#utility.yul\":7957:8020   */\n      tag_312\n      jump\t// in\n    tag_396:\n        /* \"#utility.yul\":7947:8020   */\n      swap4\n      pop\n        /* \"#utility.yul\":7742:8030   */\n      pop\n        /* \"#utility.yul\":8097:8100   */\n      0x80\n        /* \"#utility.yul\":8086:8095   */\n      dup8\n        /* \"#utility.yul\":8082:8101   */\n      add\n        /* \"#utility.yul\":8069:8102   */\n      calldataload\n        /* \"#utility.yul\":8129:8147   */\n      0xffffffffffffffff\n        /* \"#utility.yul\":8121:8127   */\n      dup2\n        /* \"#utility.yul\":8118:8148   */\n      gt\n        /* \"#utility.yul\":8115:8232   */\n      iszero\n      tag_397\n      jumpi\n        /* \"#utility.yul\":8151:8230   */\n      tag_398\n      tag_350\n      jump\t// in\n    tag_398:\n        /* \"#utility.yul\":8115:8232   */\n    tag_397:\n        /* \"#utility.yul\":8256:8319   */\n      tag_399\n        /* \"#utility.yul\":8311:8318   */\n      dup10\n        /* \"#utility.yul\":8302:8308   */\n      dup3\n        /* \"#utility.yul\":8291:8300   */\n      dup11\n        /* \"#utility.yul\":8287:8309   */\n      add\n        /* \"#utility.yul\":8256:8319   */\n      tag_312\n      jump\t// in\n    tag_399:\n        /* \"#utility.yul\":8246:8319   */\n      swap3\n      pop\n        /* \"#utility.yul\":8040:8329   */\n      pop\n        /* \"#utility.yul\":8396:8399   */\n      0xa0\n        /* \"#utility.yul\":8385:8394   */\n      dup8\n        /* \"#utility.yul\":8381:8400   */\n      add\n        /* \"#utility.yul\":8368:8401   */\n      calldataload\n        /* \"#utility.yul\":8428:8446   */\n      0xffffffffffffffff\n        /* \"#utility.yul\":8420:8426   */\n      dup2\n        /* \"#utility.yul\":8417:8447   */\n      gt\n        /* \"#utility.yul\":8414:8531   */\n      iszero\n      tag_400\n      jumpi\n        /* \"#utility.yul\":8450:8529   */\n      tag_401\n      tag_350\n      jump\t// in\n    tag_401:\n        /* \"#utility.yul\":8414:8531   */\n    tag_400:\n        /* \"#utility.yul\":8555:8618   */\n      tag_402\n        /* \"#utility.yul\":8610:8617   */\n      dup10\n        /* \"#utility.yul\":8601:8607   */\n      dup3\n        /* \"#utility.yul\":8590:8599   */\n      dup11\n        /* \"#utility.yul\":8586:8608   */\n      add\n        /* \"#utility.yul\":8555:8618   */\n      tag_312\n      jump\t// in\n    tag_402:\n        /* \"#utility.yul\":8545:8618   */\n      swap2\n      pop\n        /* \"#utility.yul\":8339:8628   */\n      pop\n        /* \"#utility.yul\":6498:8635   */\n      swap3\n      swap6\n      pop\n      swap3\n      swap6\n      pop\n      swap3\n      swap6\n      jump\t// out\n        /* \"#utility.yul\":8641:8970   */\n    tag_54:\n        /* \"#utility.yul\":8700:8706   */\n      0x00\n        /* \"#utility.yul\":8749:8751   */\n      0x20\n        /* \"#utility.yul\":8737:8746   */\n      dup3\n        /* \"#utility.yul\":8728:8735   */\n      dup5\n        /* \"#utility.yul\":8724:8747   */\n      sub\n        /* \"#utility.yul\":8720:8752   */\n      slt\n        /* \"#utility.yul\":8717:8836   */\n      iszero\n      tag_404\n      jumpi\n        /* \"#utility.yul\":8755:8834   */\n      tag_405\n      tag_343\n      jump\t// in\n    tag_405:\n        /* \"#utility.yul\":8717:8836   */\n    tag_404:\n        /* \"#utility.yul\":8875:8876   */\n      0x00\n        /* \"#utility.yul\":8900:8953   */\n      tag_406\n        /* \"#utility.yul\":8945:8952   */\n      dup5\n        /* \"#utility.yul\":8936:8942   */\n      dup3\n        /* \"#utility.yul\":8925:8934   */\n      dup6\n        /* \"#utility.yul\":8921:8943   */\n      add\n        /* \"#utility.yul\":8900:8953   */\n      tag_336\n      jump\t// in\n    tag_406:\n        /* \"#utility.yul\":8890:8953   */\n      swap2\n      pop\n        /* \"#utility.yul\":8846:8963   */\n      pop\n        /* \"#utility.yul\":8641:8970   */\n      swap3\n      swap2\n      pop\n      pop\n      jump\t// out\n        /* \"#utility.yul\":8976:9172   */\n    tag_407:\n        /* \"#utility.yul\":9065:9075   */\n      0x00\n        /* \"#utility.yul\":9100:9166   */\n      tag_409\n        /* \"#utility.yul\":9162:9165   */\n      dup4\n        /* \"#utility.yul\":9154:9160   */\n      dup4\n        /* \"#utility.yul\":9100:9166   */\n      tag_410\n      jump\t// in\n    tag_409:\n        /* \"#utility.yul\":9086:9166   */\n      swap1\n      pop\n        /* \"#utility.yul\":8976:9172   */\n      swap3\n      swap2\n      pop\n      pop\n      jump\t// out\n        /* \"#utility.yul\":9178:9286   */\n    tag_411:\n        /* \"#utility.yul\":9255:9279   */\n      tag_413\n        /* \"#utility.yul\":9273:9278   */\n      dup2\n        /* \"#utility.yul\":9255:9279   */\n      tag_414\n      jump\t// in\n    tag_413:\n        /* \"#utility.yul\":9250:9253   */\n      dup3\n        /* \"#utility.yul\":9243:9280   */\n      mstore\n        /* \"#utility.yul\":9178:9286   */\n      pop\n      pop\n      jump\t// out\n        /* \"#utility.yul\":9320:10291   */\n    tag_415:\n        /* \"#utility.yul\":9449:9452   */\n      0x00\n        /* \"#utility.yul\":9478:9542   */\n      tag_417\n        /* \"#utility.yul\":9536:9541   */\n      dup3\n        /* \"#utility.yul\":9478:9542   */\n      tag_418\n      jump\t// in\n    tag_417:\n        /* \"#utility.yul\":9558:9644   */\n      tag_419\n        /* \"#utility.yul\":9637:9643   */\n      dup2\n        /* \"#utility.yul\":9632:9635   */\n      dup6\n        /* \"#utility.yul\":9558:9644   */\n      tag_420\n      jump\t// in\n    tag_419:\n        /* \"#utility.yul\":9551:9644   */\n      swap4\n      pop\n        /* \"#utility.yul\":9670:9673   */\n      dup4\n        /* \"#utility.yul\":9715:9719   */\n      0x20\n        /* \"#utility.yul\":9707:9713   */\n      dup3\n        /* \"#utility.yul\":9703:9720   */\n      mul\n        /* \"#utility.yul\":9698:9701   */\n      dup6\n        /* \"#utility.yul\":9694:9721   */\n      add\n        /* \"#utility.yul\":9745:9811   */\n      tag_421\n        /* \"#utility.yul\":9805:9810   */\n      dup6\n        /* \"#utility.yul\":9745:9811   */\n      tag_422\n      jump\t// in\n    tag_421:\n        /* \"#utility.yul\":9834:9841   */\n      dup1\n        /* \"#utility.yul\":9865:9866   */\n      0x00\n        /* \"#utility.yul\":9850:10246   */\n    tag_423:\n        /* \"#utility.yul\":9875:9881   */\n      dup6\n        /* \"#utility.yul\":9872:9873   */\n      dup2\n        /* \"#utility.yul\":9869:9882   */\n      lt\n        /* \"#utility.yul\":9850:10246   */\n      iszero\n      tag_425\n      jumpi\n        /* \"#utility.yul\":9946:9955   */\n      dup5\n        /* \"#utility.yul\":9940:9944   */\n      dup5\n        /* \"#utility.yul\":9936:9956   */\n      sub\n        /* \"#utility.yul\":9931:9934   */\n      dup10\n        /* \"#utility.yul\":9924:9957   */\n      mstore\n        /* \"#utility.yul\":9997:10003   */\n      dup2\n        /* \"#utility.yul\":9991:10004   */\n      mload\n        /* \"#utility.yul\":10025:10109   */\n      tag_426\n        /* \"#utility.yul\":10104:10108   */\n      dup6\n        /* \"#utility.yul\":10089:10102   */\n      dup3\n        /* \"#utility.yul\":10025:10109   */\n      tag_407\n      jump\t// in\n    tag_426:\n        /* \"#utility.yul\":10017:10109   */\n      swap5\n      pop\n        /* \"#utility.yul\":10132:10202   */\n      tag_427\n        /* \"#utility.yul\":10195:10201   */\n      dup4\n        /* \"#utility.yul\":10132:10202   */\n      tag_428\n      jump\t// in\n    tag_427:\n        /* \"#utility.yul\":10122:10202   */\n      swap3\n      pop\n        /* \"#utility.yul\":10231:10235   */\n      0x20\n        /* \"#utility.yul\":10226:10229   */\n      dup11\n        /* \"#utility.yul\":10222:10236   */\n      add\n        /* \"#utility.yul\":10215:10236   */\n      swap10\n      pop\n        /* \"#utility.yul\":9910:10246   */\n      pop\n        /* \"#utility.yul\":9897:9898   */\n      0x01\n        /* \"#utility.yul\":9894:9895   */\n      dup2\n        /* \"#utility.yul\":9890:9899   */\n      add\n        /* \"#utility.yul\":9885:9899   */\n      swap1\n      pop\n        /* \"#utility.yul\":9850:10246   */\n      jump(tag_423)\n    tag_425:\n        /* \"#utility.yul\":9854:9868   */\n      pop\n        /* \"#utility.yul\":10262:10266   */\n      dup3\n        /* \"#utility.yul\":10255:10266   */\n      swap8\n      pop\n        /* \"#utility.yul\":10282:10285   */\n      dup8\n        /* \"#utility.yul\":10275:10285   */\n      swap6\n      pop\n        /* \"#utility.yul\":9454:10291   */\n      pop\n      pop\n      pop\n      pop\n      pop\n        /* \"#utility.yul\":9320:10291   */\n      swap3\n      swap2\n      pop\n      pop\n      jump\t// out\n        /* \"#utility.yul\":10297:10641   */\n    tag_410:\n        /* \"#utility.yul\":10375:10378   */\n      0x00\n        /* \"#utility.yul\":10403:10442   */\n      tag_430\n        /* \"#utility.yul\":10436:10441   */\n      dup3\n        /* \"#utility.yul\":10403:10442   */\n      tag_431\n      jump\t// in\n    tag_430:\n        /* \"#utility.yul\":10458:10519   */\n      tag_432\n        /* \"#utility.yul\":10512:10518   */\n      dup2\n        /* \"#utility.yul\":10507:10510   */\n      dup6\n        /* \"#utility.yul\":10458:10519   */\n      tag_433\n      jump\t// in\n    tag_432:\n        /* \"#utility.yul\":10451:10519   */\n      swap4\n      pop\n        /* \"#utility.yul\":10528:10580   */\n      tag_434\n        /* \"#utility.yul\":10573:10579   */\n      dup2\n        /* \"#utility.yul\":10568:10571   */\n      dup6\n        /* \"#utility.yul\":10561:10565   */\n      0x20\n        /* \"#utility.yul\":10554:10559   */\n      dup7\n        /* \"#utility.yul\":10550:10566   */\n      add\n        /* \"#utility.yul\":10528:10580   */\n      tag_435\n      jump\t// in\n    tag_434:\n        /* \"#utility.yul\":10605:10634   */\n      tag_436\n        /* \"#utility.yul\":10627:10633   */\n      dup2\n        /* \"#utility.yul\":10605:10634   */\n      tag_437\n      jump\t// in\n    tag_436:\n        /* \"#utility.yul\":10600:10603   */\n      dup5\n        /* \"#utility.yul\":10596:10635   */\n      add\n        /* \"#utility.yul\":10589:10635   */\n      swap2\n      pop\n        /* \"#utility.yul\":10379:10641   */\n      pop\n        /* \"#utility.yul\":10297:10641   */\n      swap3\n      swap2\n      pop\n      pop\n      jump\t// out\n        /* \"#utility.yul\":10647:11011   */\n    tag_438:\n        /* \"#utility.yul\":10735:10738   */\n      0x00\n        /* \"#utility.yul\":10763:10802   */\n      tag_440\n        /* \"#utility.yul\":10796:10801   */\n      dup3\n        /* \"#utility.yul\":10763:10802   */\n      tag_431\n      jump\t// in\n    tag_440:\n        /* \"#utility.yul\":10818:10889   */\n      tag_441\n        /* \"#utility.yul\":10882:10888   */\n      dup2\n        /* \"#utility.yul\":10877:10880   */\n      dup6\n        /* \"#utility.yul\":10818:10889   */\n      tag_442\n      jump\t// in\n    tag_441:\n        /* \"#utility.yul\":10811:10889   */\n      swap4\n      pop\n        /* \"#utility.yul\":10898:10950   */\n      tag_443\n        /* \"#utility.yul\":10943:10949   */\n      dup2\n        /* \"#utility.yul\":10938:10941   */\n      dup6\n        /* \"#utility.yul\":10931:10935   */\n      0x20\n        /* \"#utility.yul\":10924:10929   */\n      dup7\n        /* \"#utility.yul\":10920:10936   */\n      add\n        /* \"#utility.yul\":10898:10950   */\n      tag_435\n      jump\t// in\n    tag_443:\n        /* \"#utility.yul\":10975:11004   */\n      tag_444\n        /* \"#utility.yul\":10997:11003   */\n      dup2\n        /* \"#utility.yul\":10975:11004   */\n      tag_437\n      jump\t// in\n    tag_444:\n        /* \"#utility.yul\":10970:10973   */\n      dup5\n        /* \"#utility.yul\":10966:11005   */\n      add\n        /* \"#utility.yul\":10959:11005   */\n      swap2\n      pop\n        /* \"#utility.yul\":10739:11011   */\n      pop\n        /* \"#utility.yul\":10647:11011   */\n      swap3\n      swap2\n      pop\n      pop\n      jump\t// out\n        /* \"#utility.yul\":11075:12741   */\n    tag_445:\n        /* \"#utility.yul\":11192:11195   */\n      0x00\n        /* \"#utility.yul\":11228:11232   */\n      0xc0\n        /* \"#utility.yul\":11223:11226   */\n      dup4\n        /* \"#utility.yul\":11219:11233   */\n      add\n        /* \"#utility.yul\":11318:11322   */\n      0x00\n        /* \"#utility.yul\":11311:11316   */\n      dup4\n        /* \"#utility.yul\":11307:11323   */\n      add\n        /* \"#utility.yul\":11301:11324   */\n      mload\n        /* \"#utility.yul\":11371:11374   */\n      dup5\n        /* \"#utility.yul\":11365:11369   */\n      dup3\n        /* \"#utility.yul\":11361:11375   */\n      sub\n        /* \"#utility.yul\":11354:11358   */\n      0x00\n        /* \"#utility.yul\":11349:11352   */\n      dup7\n        /* \"#utility.yul\":11345:11359   */\n      add\n        /* \"#utility.yul\":11338:11376   */\n      mstore\n        /* \"#utility.yul\":11397:11470   */\n      tag_447\n        /* \"#utility.yul\":11465:11469   */\n      dup3\n        /* \"#utility.yul\":11451:11463   */\n      dup3\n        /* \"#utility.yul\":11397:11470   */\n      tag_410\n      jump\t// in\n    tag_447:\n        /* \"#utility.yul\":11389:11470   */\n      swap2\n      pop\n        /* \"#utility.yul\":11243:11481   */\n      pop\n        /* \"#utility.yul\":11564:11568   */\n      0x20\n        /* \"#utility.yul\":11557:11562   */\n      dup4\n        /* \"#utility.yul\":11553:11569   */\n      add\n        /* \"#utility.yul\":11547:11570   */\n      mload\n        /* \"#utility.yul\":11617:11620   */\n      dup5\n        /* \"#utility.yul\":11611:11615   */\n      dup3\n        /* \"#utility.yul\":11607:11621   */\n      sub\n        /* \"#utility.yul\":11600:11604   */\n      0x20\n        /* \"#utility.yul\":11595:11598   */\n      dup7\n        /* \"#utility.yul\":11591:11605   */\n      add\n        /* \"#utility.yul\":11584:11622   */\n      mstore\n        /* \"#utility.yul\":11643:11716   */\n      tag_448\n        /* \"#utility.yul\":11711:11715   */\n      dup3\n        /* \"#utility.yul\":11697:11709   */\n      dup3\n        /* \"#utility.yul\":11643:11716   */\n      tag_410\n      jump\t// in\n    tag_448:\n        /* \"#utility.yul\":11635:11716   */\n      swap2\n      pop\n        /* \"#utility.yul\":11491:11727   */\n      pop\n        /* \"#utility.yul\":11810:11814   */\n      0x40\n        /* \"#utility.yul\":11803:11808   */\n      dup4\n        /* \"#utility.yul\":11799:11815   */\n      add\n        /* \"#utility.yul\":11793:11816   */\n      mload\n        /* \"#utility.yul\":11863:11866   */\n      dup5\n        /* \"#utility.yul\":11857:11861   */\n      dup3\n        /* \"#utility.yul\":11853:11867   */\n      sub\n        /* \"#utility.yul\":11846:11850   */\n      0x40\n        /* \"#utility.yul\":11841:11844   */\n      dup7\n        /* \"#utility.yul\":11837:11851   */\n      add\n        /* \"#utility.yul\":11830:11868   */\n      mstore\n        /* \"#utility.yul\":11889:11962   */\n      tag_449\n        /* \"#utility.yul\":11957:11961   */\n      dup3\n        /* \"#utility.yul\":11943:11955   */\n      dup3\n        /* \"#utility.yul\":11889:11962   */\n      tag_410\n      jump\t// in\n    tag_449:\n        /* \"#utility.yul\":11881:11962   */\n      swap2\n      pop\n        /* \"#utility.yul\":11737:11973   */\n      pop\n        /* \"#utility.yul\":12057:12061   */\n      0x60\n        /* \"#utility.yul\":12050:12055   */\n      dup4\n        /* \"#utility.yul\":12046:12062   */\n      add\n        /* \"#utility.yul\":12040:12063   */\n      mload\n        /* \"#utility.yul\":12110:12113   */\n      dup5\n        /* \"#utility.yul\":12104:12108   */\n      dup3\n        /* \"#utility.yul\":12100:12114   */\n      sub\n        /* \"#utility.yul\":12093:12097   */\n      0x60\n        /* \"#utility.yul\":12088:12091   */\n      dup7\n        /* \"#utility.yul\":12084:12098   */\n      add\n        /* \"#utility.yul\":12077:12115   */\n      mstore\n        /* \"#utility.yul\":12136:12209   */\n      tag_450\n        /* \"#utility.yul\":12204:12208   */\n      dup3\n        /* \"#utility.yul\":12190:12202   */\n      dup3\n        /* \"#utility.yul\":12136:12209   */\n      tag_410\n      jump\t// in\n    tag_450:\n        /* \"#utility.yul\":12128:12209   */\n      swap2\n      pop\n        /* \"#utility.yul\":11983:12220   */\n      pop\n        /* \"#utility.yul\":12304:12308   */\n      0x80\n        /* \"#utility.yul\":12297:12302   */\n      dup4\n        /* \"#utility.yul\":12293:12309   */\n      add\n        /* \"#utility.yul\":12287:12310   */\n      mload\n        /* \"#utility.yul\":12357:12360   */\n      dup5\n        /* \"#utility.yul\":12351:12355   */\n      dup3\n        /* \"#utility.yul\":12347:12361   */\n      sub\n        /* \"#utility.yul\":12340:12344   */\n      0x80\n        /* \"#utility.yul\":12335:12338   */\n      dup7\n        /* \"#utility.yul\":12331:12345   */\n      add\n        /* \"#utility.yul\":12324:12362   */\n      mstore\n        /* \"#utility.yul\":12383:12456   */\n      tag_451\n        /* \"#utility.yul\":12451:12455   */\n      dup3\n        /* \"#utility.yul\":12437:12449   */\n      dup3\n        /* \"#utility.yul\":12383:12456   */\n      tag_410\n      jump\t// in\n    tag_451:\n        /* \"#utility.yul\":12375:12456   */\n      swap2\n      pop\n        /* \"#utility.yul\":12230:12467   */\n      pop\n        /* \"#utility.yul\":12551:12555   */\n      0xa0\n        /* \"#utility.yul\":12544:12549   */\n      dup4\n        /* \"#utility.yul\":12540:12556   */\n      add\n        /* \"#utility.yul\":12534:12557   */\n      mload\n        /* \"#utility.yul\":12604:12607   */\n      dup5\n        /* \"#utility.yul\":12598:12602   */\n      dup3\n        /* \"#utility.yul\":12594:12608   */\n      sub\n        /* \"#utility.yul\":12587:12591   */\n      0xa0\n        /* \"#utility.yul\":12582:12585   */\n      dup7\n        /* \"#utility.yul\":12578:12592   */\n      add\n        /* \"#utility.yul\":12571:12609   */\n      mstore\n        /* \"#utility.yul\":12630:12703   */\n      tag_452\n        /* \"#utility.yul\":12698:12702   */\n      dup3\n        /* \"#utility.yul\":12684:12696   */\n      dup3\n        /* \"#utility.yul\":12630:12703   */\n      tag_410\n      jump\t// in\n    tag_452:\n        /* \"#utility.yul\":12622:12703   */\n      swap2\n      pop\n        /* \"#utility.yul\":12477:12714   */\n      pop\n        /* \"#utility.yul\":12731:12735   */\n      dup1\n        /* \"#utility.yul\":12724:12735   */\n      swap2\n      pop\n        /* \"#utility.yul\":11197:12741   */\n      pop\n        /* \"#utility.yul\":11075:12741   */\n      swap3\n      swap2\n      pop\n      pop\n      jump\t// out\n        /* \"#utility.yul\":12811:14865   */\n    tag_453:\n        /* \"#utility.yul\":12934:12937   */\n      0x00\n        /* \"#utility.yul\":12970:12976   */\n      0x0100\n        /* \"#utility.yul\":12965:12968   */\n      dup4\n        /* \"#utility.yul\":12961:12977   */\n      add\n        /* \"#utility.yul\":13062:13066   */\n      0x00\n        /* \"#utility.yul\":13055:13060   */\n      dup4\n        /* \"#utility.yul\":13051:13067   */\n      add\n        /* \"#utility.yul\":13045:13068   */\n      mload\n        /* \"#utility.yul\":13115:13118   */\n      dup5\n        /* \"#utility.yul\":13109:13113   */\n      dup3\n        /* \"#utility.yul\":13105:13119   */\n      sub\n        /* \"#utility.yul\":13098:13102   */\n      0x00\n        /* \"#utility.yul\":13093:13096   */\n      dup7\n        /* \"#utility.yul\":13089:13103   */\n      add\n        /* \"#utility.yul\":13082:13120   */\n      mstore\n        /* \"#utility.yul\":13141:13214   */\n      tag_455\n        /* \"#utility.yul\":13209:13213   */\n      dup3\n        /* \"#utility.yul\":13195:13207   */\n      dup3\n        /* \"#utility.yul\":13141:13214   */\n      tag_410\n      jump\t// in\n    tag_455:\n        /* \"#utility.yul\":13133:13214   */\n      swap2\n      pop\n        /* \"#utility.yul\":12987:13225   */\n      pop\n        /* \"#utility.yul\":13311:13315   */\n      0x20\n        /* \"#utility.yul\":13304:13309   */\n      dup4\n        /* \"#utility.yul\":13300:13316   */\n      add\n        /* \"#utility.yul\":13294:13317   */\n      mload\n        /* \"#utility.yul\":13364:13367   */\n      dup5\n        /* \"#utility.yul\":13358:13362   */\n      dup3\n        /* \"#utility.yul\":13354:13368   */\n      sub\n        /* \"#utility.yul\":13347:13351   */\n      0x20\n        /* \"#utility.yul\":13342:13345   */\n      dup7\n        /* \"#utility.yul\":13338:13352   */\n      add\n        /* \"#utility.yul\":13331:13369   */\n      mstore\n        /* \"#utility.yul\":13390:13463   */\n      tag_456\n        /* \"#utility.yul\":13458:13462   */\n      dup3\n        /* \"#utility.yul\":13444:13456   */\n      dup3\n        /* \"#utility.yul\":13390:13463   */\n      tag_410\n      jump\t// in\n    tag_456:\n        /* \"#utility.yul\":13382:13463   */\n      swap2\n      pop\n        /* \"#utility.yul\":13235:13474   */\n      pop\n        /* \"#utility.yul\":13563:13567   */\n      0x40\n        /* \"#utility.yul\":13556:13561   */\n      dup4\n        /* \"#utility.yul\":13552:13568   */\n      add\n        /* \"#utility.yul\":13546:13569   */\n      mload\n        /* \"#utility.yul\":13582:13645   */\n      tag_457\n        /* \"#utility.yul\":13639:13643   */\n      0x40\n        /* \"#utility.yul\":13634:13637   */\n      dup7\n        /* \"#utility.yul\":13630:13644   */\n      add\n        /* \"#utility.yul\":13616:13628   */\n      dup3\n        /* \"#utility.yul\":13582:13645   */\n      tag_411\n      jump\t// in\n    tag_457:\n        /* \"#utility.yul\":13484:13655   */\n      pop\n        /* \"#utility.yul\":13742:13746   */\n      0x60\n        /* \"#utility.yul\":13735:13740   */\n      dup4\n        /* \"#utility.yul\":13731:13747   */\n      add\n        /* \"#utility.yul\":13725:13748   */\n      mload\n        /* \"#utility.yul\":13795:13798   */\n      dup5\n        /* \"#utility.yul\":13789:13793   */\n      dup3\n        /* \"#utility.yul\":13785:13799   */\n      sub\n        /* \"#utility.yul\":13778:13782   */\n      0x60\n        /* \"#utility.yul\":13773:13776   */\n      dup7\n        /* \"#utility.yul\":13769:13783   */\n      add\n        /* \"#utility.yul\":13762:13800   */\n      mstore\n        /* \"#utility.yul\":13821:13894   */\n      tag_458\n        /* \"#utility.yul\":13889:13893   */\n      dup3\n        /* \"#utility.yul\":13875:13887   */\n      dup3\n        /* \"#utility.yul\":13821:13894   */\n      tag_410\n      jump\t// in\n    tag_458:\n        /* \"#utility.yul\":13813:13894   */\n      swap2\n      pop\n        /* \"#utility.yul\":13665:13905   */\n      pop\n        /* \"#utility.yul\":13993:13997   */\n      0x80\n        /* \"#utility.yul\":13986:13991   */\n      dup4\n        /* \"#utility.yul\":13982:13998   */\n      add\n        /* \"#utility.yul\":13976:13999   */\n      mload\n        /* \"#utility.yul\":14046:14049   */\n      dup5\n        /* \"#utility.yul\":14040:14044   */\n      dup3\n        /* \"#utility.yul\":14036:14050   */\n      sub\n        /* \"#utility.yul\":14029:14033   */\n      0x80\n        /* \"#utility.yul\":14024:14027   */\n      dup7\n        /* \"#utility.yul\":14020:14034   */\n      add\n        /* \"#utility.yul\":14013:14051   */\n      mstore\n        /* \"#utility.yul\":14072:14145   */\n      tag_459\n        /* \"#utility.yul\":14140:14144   */\n      dup3\n        /* \"#utility.yul\":14126:14138   */\n      dup3\n        /* \"#utility.yul\":14072:14145   */\n      tag_410\n      jump\t// in\n    tag_459:\n        /* \"#utility.yul\":14064:14145   */\n      swap2\n      pop\n        /* \"#utility.yul\":13915:14156   */\n      pop\n        /* \"#utility.yul\":14242:14246   */\n      0xa0\n        /* \"#utility.yul\":14235:14240   */\n      dup4\n        /* \"#utility.yul\":14231:14247   */\n      add\n        /* \"#utility.yul\":14225:14248   */\n      mload\n        /* \"#utility.yul\":14295:14298   */\n      dup5\n        /* \"#utility.yul\":14289:14293   */\n      dup3\n        /* \"#utility.yul\":14285:14299   */\n      sub\n        /* \"#utility.yul\":14278:14282   */\n      0xa0\n        /* \"#utility.yul\":14273:14276   */\n      dup7\n        /* \"#utility.yul\":14269:14283   */\n      add\n        /* \"#utility.yul\":14262:14300   */\n      mstore\n        /* \"#utility.yul\":14321:14394   */\n      tag_460\n        /* \"#utility.yul\":14389:14393   */\n      dup3\n        /* \"#utility.yul\":14375:14387   */\n      dup3\n        /* \"#utility.yul\":14321:14394   */\n      tag_410\n      jump\t// in\n    tag_460:\n        /* \"#utility.yul\":14313:14394   */\n      swap2\n      pop\n        /* \"#utility.yul\":14166:14405   */\n      pop\n        /* \"#utility.yul\":14495:14499   */\n      0xc0\n        /* \"#utility.yul\":14488:14493   */\n      dup4\n        /* \"#utility.yul\":14484:14500   */\n      add\n        /* \"#utility.yul\":14478:14501   */\n      mload\n        /* \"#utility.yul\":14548:14551   */\n      dup5\n        /* \"#utility.yul\":14542:14546   */\n      dup3\n        /* \"#utility.yul\":14538:14552   */\n      sub\n        /* \"#utility.yul\":14531:14535   */\n      0xc0\n        /* \"#utility.yul\":14526:14529   */\n      dup7\n        /* \"#utility.yul\":14522:14536   */\n      add\n        /* \"#utility.yul\":14515:14553   */\n      mstore\n        /* \"#utility.yul\":14574:14647   */\n      tag_461\n        /* \"#utility.yul\":14642:14646   */\n      dup3\n        /* \"#utility.yul\":14628:14640   */\n      dup3\n        /* \"#utility.yul\":14574:14647   */\n      tag_410\n      jump\t// in\n    tag_461:\n        /* \"#utility.yul\":14566:14647   */\n      swap2\n      pop\n        /* \"#utility.yul\":14415:14658   */\n      pop\n        /* \"#utility.yul\":14746:14750   */\n      0xe0\n        /* \"#utility.yul\":14739:14744   */\n      dup4\n        /* \"#utility.yul\":14735:14751   */\n      add\n        /* \"#utility.yul\":14729:14752   */\n      mload\n        /* \"#utility.yul\":14765:14828   */\n      tag_462\n        /* \"#utility.yul\":14822:14826   */\n      0xe0\n        /* \"#utility.yul\":14817:14820   */\n      dup7\n        /* \"#utility.yul\":14813:14827   */\n      add\n        /* \"#utility.yul\":14799:14811   */\n      dup3\n        /* \"#utility.yul\":14765:14828   */\n      tag_463\n      jump\t// in\n    tag_462:\n        /* \"#utility.yul\":14668:14838   */\n      pop\n        /* \"#utility.yul\":14855:14859   */\n      dup1\n        /* \"#utility.yul\":14848:14859   */\n      swap2\n      pop\n        /* \"#utility.yul\":12939:14865   */\n      pop\n        /* \"#utility.yul\":12811:14865   */\n      swap3\n      swap2\n      pop\n      pop\n      jump\t// out\n        /* \"#utility.yul\":14923:16020   */\n    tag_464:\n        /* \"#utility.yul\":15034:15037   */\n      0x00\n        /* \"#utility.yul\":15070:15074   */\n      0x60\n        /* \"#utility.yul\":15065:15068   */\n      dup4\n        /* \"#utility.yul\":15061:15075   */\n      add\n        /* \"#utility.yul\":15173:15177   */\n      0x00\n        /* \"#utility.yul\":15166:15171   */\n      dup4\n        /* \"#utility.yul\":15162:15178   */\n      add\n        /* \"#utility.yul\":15156:15179   */\n      mload\n        /* \"#utility.yul\":15226:15229   */\n      dup5\n        /* \"#utility.yul\":15220:15224   */\n      dup3\n        /* \"#utility.yul\":15216:15230   */\n      sub\n        /* \"#utility.yul\":15209:15213   */\n      0x00\n        /* \"#utility.yul\":15204:15207   */\n      dup7\n        /* \"#utility.yul\":15200:15214   */\n      add\n        /* \"#utility.yul\":15193:15231   */\n      mstore\n        /* \"#utility.yul\":15252:15375   */\n      tag_466\n        /* \"#utility.yul\":15370:15374   */\n      dup3\n        /* \"#utility.yul\":15356:15368   */\n      dup3\n        /* \"#utility.yul\":15252:15375   */\n      tag_415\n      jump\t// in\n    tag_466:\n        /* \"#utility.yul\":15244:15375   */\n      swap2\n      pop\n        /* \"#utility.yul\":15085:15386   */\n      pop\n        /* \"#utility.yul\":15473:15477   */\n      0x20\n        /* \"#utility.yul\":15466:15471   */\n      dup4\n        /* \"#utility.yul\":15462:15478   */\n      add\n        /* \"#utility.yul\":15456:15479   */\n      mload\n        /* \"#utility.yul\":15526:15529   */\n      dup5\n        /* \"#utility.yul\":15520:15524   */\n      dup3\n        /* \"#utility.yul\":15516:15530   */\n      sub\n        /* \"#utility.yul\":15509:15513   */\n      0x20\n        /* \"#utility.yul\":15504:15507   */\n      dup7\n        /* \"#utility.yul\":15500:15514   */\n      add\n        /* \"#utility.yul\":15493:15531   */\n      mstore\n        /* \"#utility.yul\":15552:15675   */\n      tag_467\n        /* \"#utility.yul\":15670:15674   */\n      dup3\n        /* \"#utility.yul\":15656:15668   */\n      dup3\n        /* \"#utility.yul\":15552:15675   */\n      tag_415\n      jump\t// in\n    tag_467:\n        /* \"#utility.yul\":15544:15675   */\n      swap2\n      pop\n        /* \"#utility.yul\":15396:15686   */\n      pop\n        /* \"#utility.yul\":15780:15784   */\n      0x40\n        /* \"#utility.yul\":15773:15778   */\n      dup4\n        /* \"#utility.yul\":15769:15785   */\n      add\n        /* \"#utility.yul\":15763:15786   */\n      mload\n        /* \"#utility.yul\":15833:15836   */\n      dup5\n        /* \"#utility.yul\":15827:15831   */\n      dup3\n        /* \"#utility.yul\":15823:15837   */\n      sub\n        /* \"#utility.yul\":15816:15820   */\n      0x40\n        /* \"#utility.yul\":15811:15814   */\n      dup7\n        /* \"#utility.yul\":15807:15821   */\n      add\n        /* \"#utility.yul\":15800:15838   */\n      mstore\n        /* \"#utility.yul\":15859:15982   */\n      tag_468\n        /* \"#utility.yul\":15977:15981   */\n      dup3\n        /* \"#utility.yul\":15963:15975   */\n      dup3\n        /* \"#utility.yul\":15859:15982   */\n      tag_415\n      jump\t// in\n    tag_468:\n        /* \"#utility.yul\":15851:15982   */\n      swap2\n      pop\n        /* \"#utility.yul\":15696:15993   */\n      pop\n        /* \"#utility.yul\":16010:16014   */\n      dup1\n        /* \"#utility.yul\":16003:16014   */\n      swap2\n      pop\n        /* \"#utility.yul\":15039:16020   */\n      pop\n        /* \"#utility.yul\":14923:16020   */\n      swap3\n      swap2\n      pop\n      pop\n      jump\t// out\n        /* \"#utility.yul\":16026:16134   */\n    tag_463:\n        /* \"#utility.yul\":16103:16127   */\n      tag_470\n        /* \"#utility.yul\":16121:16126   */\n      dup2\n        /* \"#utility.yul\":16103:16127   */\n      tag_471\n      jump\t// in\n    tag_470:\n        /* \"#utility.yul\":16098:16101   */\n      dup3\n        /* \"#utility.yul\":16091:16128   */\n      mstore\n        /* \"#utility.yul\":16026:16134   */\n      pop\n      pop\n      jump\t// out\n        /* \"#utility.yul\":16140:16258   */\n    tag_472:\n        /* \"#utility.yul\":16227:16251   */\n      tag_474\n        /* \"#utility.yul\":16245:16250   */\n      dup2\n        /* \"#utility.yul\":16227:16251   */\n      tag_471\n      jump\t// in\n    tag_474:\n        /* \"#utility.yul\":16222:16225   */\n      dup3\n        /* \"#utility.yul\":16215:16252   */\n      mstore\n        /* \"#utility.yul\":16140:16258   */\n      pop\n      pop\n      jump\t// out\n        /* \"#utility.yul\":16264:17383   */\n    tag_57:\n        /* \"#utility.yul\":16569:16573   */\n      0x00\n        /* \"#utility.yul\":16607:16610   */\n      0xa0\n        /* \"#utility.yul\":16596:16605   */\n      dup3\n        /* \"#utility.yul\":16592:16611   */\n      add\n        /* \"#utility.yul\":16584:16611   */\n      swap1\n      pop\n        /* \"#utility.yul\":16657:16666   */\n      dup2\n        /* \"#utility.yul\":16651:16655   */\n      dup2\n        /* \"#utility.yul\":16647:16667   */\n      sub\n        /* \"#utility.yul\":16643:16644   */\n      0x00\n        /* \"#utility.yul\":16632:16641   */\n      dup4\n        /* \"#utility.yul\":16628:16645   */\n      add\n        /* \"#utility.yul\":16621:16668   */\n      mstore\n        /* \"#utility.yul\":16685:16763   */\n      tag_476\n        /* \"#utility.yul\":16758:16762   */\n      dup2\n        /* \"#utility.yul\":16749:16755   */\n      dup9\n        /* \"#utility.yul\":16685:16763   */\n      tag_438\n      jump\t// in\n    tag_476:\n        /* \"#utility.yul\":16677:16763   */\n      swap1\n      pop\n        /* \"#utility.yul\":16810:16819   */\n      dup2\n        /* \"#utility.yul\":16804:16808   */\n      dup2\n        /* \"#utility.yul\":16800:16820   */\n      sub\n        /* \"#utility.yul\":16795:16797   */\n      0x20\n        /* \"#utility.yul\":16784:16793   */\n      dup4\n        /* \"#utility.yul\":16780:16798   */\n      add\n        /* \"#utility.yul\":16773:16821   */\n      mstore\n        /* \"#utility.yul\":16838:16916   */\n      tag_477\n        /* \"#utility.yul\":16911:16915   */\n      dup2\n        /* \"#utility.yul\":16902:16908   */\n      dup8\n        /* \"#utility.yul\":16838:16916   */\n      tag_438\n      jump\t// in\n    tag_477:\n        /* \"#utility.yul\":16830:16916   */\n      swap1\n      pop\n        /* \"#utility.yul\":16963:16972   */\n      dup2\n        /* \"#utility.yul\":16957:16961   */\n      dup2\n        /* \"#utility.yul\":16953:16973   */\n      sub\n        /* \"#utility.yul\":16948:16950   */\n      0x40\n        /* \"#utility.yul\":16937:16946   */\n      dup4\n        /* \"#utility.yul\":16933:16951   */\n      add\n        /* \"#utility.yul\":16926:16974   */\n      mstore\n        /* \"#utility.yul\":16991:17069   */\n      tag_478\n        /* \"#utility.yul\":17064:17068   */\n      dup2\n        /* \"#utility.yul\":17055:17061   */\n      dup7\n        /* \"#utility.yul\":16991:17069   */\n      tag_438\n      jump\t// in\n    tag_478:\n        /* \"#utility.yul\":16983:17069   */\n      swap1\n      pop\n        /* \"#utility.yul\":17116:17125   */\n      dup2\n        /* \"#utility.yul\":17110:17114   */\n      dup2\n        /* \"#utility.yul\":17106:17126   */\n      sub\n        /* \"#utility.yul\":17101:17103   */\n      0x60\n        /* \"#utility.yul\":17090:17099   */\n      dup4\n        /* \"#utility.yul\":17086:17104   */\n      add\n        /* \"#utility.yul\":17079:17127   */\n      mstore\n        /* \"#utility.yul\":17144:17222   */\n      tag_479\n        /* \"#utility.yul\":17217:17221   */\n      dup2\n        /* \"#utility.yul\":17208:17214   */\n      dup6\n        /* \"#utility.yul\":17144:17222   */\n      tag_438\n      jump\t// in\n    tag_479:\n        /* \"#utility.yul\":17136:17222   */\n      swap1\n      pop\n        /* \"#utility.yul\":17270:17279   */\n      dup2\n        /* \"#utility.yul\":17264:17268   */\n      dup2\n        /* \"#utility.yul\":17260:17280   */\n      sub\n        /* \"#utility.yul\":17254:17257   */\n      0x80\n        /* \"#utility.yul\":17243:17252   */\n      dup4\n        /* \"#utility.yul\":17239:17258   */\n      add\n        /* \"#utility.yul\":17232:17281   */\n      mstore\n        /* \"#utility.yul\":17298:17376   */\n      tag_480\n        /* \"#utility.yul\":17371:17375   */\n      dup2\n        /* \"#utility.yul\":17362:17368   */\n      dup5\n        /* \"#utility.yul\":17298:17376   */\n      tag_438\n      jump\t// in\n    tag_480:\n        /* \"#utility.yul\":17290:17376   */\n      swap1\n      pop\n        /* \"#utility.yul\":16264:17383   */\n      swap7\n      swap6\n      pop\n      pop\n      pop\n      pop\n      pop\n      pop\n      jump\t// out\n        /* \"#utility.yul\":17389:18272   */\n    tag_46:\n        /* \"#utility.yul\":17682:17686   */\n      0x00\n        /* \"#utility.yul\":17720:17722   */\n      0x60\n        /* \"#utility.yul\":17709:17718   */\n      dup3\n        /* \"#utility.yul\":17705:17723   */\n      add\n        /* \"#utility.yul\":17697:17723   */\n      swap1\n      pop\n        /* \"#utility.yul\":17769:17778   */\n      dup2\n        /* \"#utility.yul\":17763:17767   */\n      dup2\n        /* \"#utility.yul\":17759:17779   */\n      sub\n        /* \"#utility.yul\":17755:17756   */\n      0x00\n        /* \"#utility.yul\":17744:17753   */\n      dup4\n        /* \"#utility.yul\":17740:17757   */\n      add\n        /* \"#utility.yul\":17733:17780   */\n      mstore\n        /* \"#utility.yul\":17797:17909   */\n      tag_482\n        /* \"#utility.yul\":17904:17908   */\n      dup2\n        /* \"#utility.yul\":17895:17901   */\n      dup7\n        /* \"#utility.yul\":17797:17909   */\n      tag_453\n      jump\t// in\n    tag_482:\n        /* \"#utility.yul\":17789:17909   */\n      swap1\n      pop\n        /* \"#utility.yul\":17956:17965   */\n      dup2\n        /* \"#utility.yul\":17950:17954   */\n      dup2\n        /* \"#utility.yul\":17946:17966   */\n      sub\n        /* \"#utility.yul\":17941:17943   */\n      0x20\n        /* \"#utility.yul\":17930:17939   */\n      dup4\n        /* \"#utility.yul\":17926:17944   */\n      add\n        /* \"#utility.yul\":17919:17967   */\n      mstore\n        /* \"#utility.yul\":17984:18090   */\n      tag_483\n        /* \"#utility.yul\":18085:18089   */\n      dup2\n        /* \"#utility.yul\":18076:18082   */\n      dup6\n        /* \"#utility.yul\":17984:18090   */\n      tag_445\n      jump\t// in\n    tag_483:\n        /* \"#utility.yul\":17976:18090   */\n      swap1\n      pop\n        /* \"#utility.yul\":18137:18146   */\n      dup2\n        /* \"#utility.yul\":18131:18135   */\n      dup2\n        /* \"#utility.yul\":18127:18147   */\n      sub\n        /* \"#utility.yul\":18122:18124   */\n      0x40\n        /* \"#utility.yul\":18111:18120   */\n      dup4\n        /* \"#utility.yul\":18107:18125   */\n      add\n        /* \"#utility.yul\":18100:18148   */\n      mstore\n        /* \"#utility.yul\":18165:18265   */\n      tag_484\n        /* \"#utility.yul\":18260:18264   */\n      dup2\n        /* \"#utility.yul\":18251:18257   */\n      dup5\n        /* \"#utility.yul\":18165:18265   */\n      tag_464\n      jump\t// in\n    tag_484:\n        /* \"#utility.yul\":18157:18265   */\n      swap1\n      pop\n        /* \"#utility.yul\":17389:18272   */\n      swap5\n      swap4\n      pop\n      pop\n      pop\n      pop\n      jump\t// out\n        /* \"#utility.yul\":18278:18500   */\n    tag_23:\n        /* \"#utility.yul\":18371:18375   */\n      0x00\n        /* \"#utility.yul\":18409:18411   */\n      0x20\n        /* \"#utility.yul\":18398:18407   */\n      dup3\n        /* \"#utility.yul\":18394:18412   */\n      add\n        /* \"#utility.yul\":18386:18412   */\n      swap1\n      pop\n        /* \"#utility.yul\":18422:18493   */\n      tag_486\n        /* \"#utility.yul\":18490:18491   */\n      0x00\n        /* \"#utility.yul\":18479:18488   */\n      dup4\n        /* \"#utility.yul\":18475:18492   */\n      add\n        /* \"#utility.yul\":18466:18472   */\n      dup5\n        /* \"#utility.yul\":18422:18493   */\n      tag_472\n      jump\t// in\n    tag_486:\n        /* \"#utility.yul\":18278:18500   */\n      swap3\n      swap2\n      pop\n      pop\n      jump\t// out\n        /* \"#utility.yul\":18506:18635   */\n    tag_301:\n        /* \"#utility.yul\":18540:18546   */\n      0x00\n        /* \"#utility.yul\":18567:18587   */\n      tag_488\n      tag_489\n      jump\t// in\n    tag_488:\n        /* \"#utility.yul\":18557:18587   */\n      swap1\n      pop\n        /* \"#utility.yul\":18596:18629   */\n      tag_490\n        /* \"#utility.yul\":18624:18628   */\n      dup3\n        /* \"#utility.yul\":18616:18622   */\n      dup3\n        /* \"#utility.yul\":18596:18629   */\n      tag_491\n      jump\t// in\n    tag_490:\n        /* \"#utility.yul\":18506:18635   */\n      swap2\n      swap1\n      pop\n      jump\t// out\n        /* \"#utility.yul\":18641:18716   */\n    tag_489:\n        /* \"#utility.yul\":18674:18680   */\n      0x00\n        /* \"#utility.yul\":18707:18709   */\n      0x40\n        /* \"#utility.yul\":18701:18710   */\n      mload\n        /* \"#utility.yul\":18691:18710   */\n      swap1\n      pop\n        /* \"#utility.yul\":18641:18716   */\n      swap1\n      jump\t// out\n        /* \"#utility.yul\":18722:19043   */\n    tag_300:\n        /* \"#utility.yul\":18809:18813   */\n      0x00\n        /* \"#utility.yul\":18899:18917   */\n      0xffffffffffffffff\n        /* \"#utility.yul\":18891:18897   */\n      dup3\n        /* \"#utility.yul\":18888:18918   */\n      gt\n        /* \"#utility.yul\":18885:18941   */\n      iszero\n      tag_494\n      jumpi\n        /* \"#utility.yul\":18921:18939   */\n      tag_495\n      tag_496\n      jump\t// in\n    tag_495:\n        /* \"#utility.yul\":18885:18941   */\n    tag_494:\n        /* \"#utility.yul\":18971:18975   */\n      0x20\n        /* \"#utility.yul\":18963:18969   */\n      dup3\n        /* \"#utility.yul\":18959:18976   */\n      mul\n        /* \"#utility.yul\":18951:18976   */\n      swap1\n      pop\n        /* \"#utility.yul\":19031:19035   */\n      0x20\n        /* \"#utility.yul\":19025:19029   */\n      dup2\n        /* \"#utility.yul\":19021:19036   */\n      add\n        /* \"#utility.yul\":19013:19036   */\n      swap1\n      pop\n        /* \"#utility.yul\":18722:19043   */\n      swap2\n      swap1\n      pop\n      jump\t// out\n        /* \"#utility.yul\":19049:19357   */\n    tag_317:\n        /* \"#utility.yul\":19111:19115   */\n      0x00\n        /* \"#utility.yul\":19201:19219   */\n      0xffffffffffffffff\n        /* \"#utility.yul\":19193:19199   */\n      dup3\n        /* \"#utility.yul\":19190:19220   */\n      gt\n        /* \"#utility.yul\":19187:19243   */\n      iszero\n      tag_498\n      jumpi\n        /* \"#utility.yul\":19223:19241   */\n      tag_499\n      tag_496\n      jump\t// in\n    tag_499:\n        /* \"#utility.yul\":19187:19243   */\n    tag_498:\n        /* \"#utility.yul\":19261:19290   */\n      tag_500\n        /* \"#utility.yul\":19283:19289   */\n      dup3\n        /* \"#utility.yul\":19261:19290   */\n      tag_437\n      jump\t// in\n    tag_500:\n        /* \"#utility.yul\":19253:19290   */\n      swap1\n      pop\n        /* \"#utility.yul\":19345:19349   */\n      0x20\n        /* \"#utility.yul\":19339:19343   */\n      dup2\n        /* \"#utility.yul\":19335:19350   */\n      add\n        /* \"#utility.yul\":19327:19350   */\n      swap1\n      pop\n        /* \"#utility.yul\":19049:19357   */\n      swap2\n      swap1\n      pop\n      jump\t// out\n        /* \"#utility.yul\":19363:19505   */\n    tag_422:\n        /* \"#utility.yul\":19440:19444   */\n      0x00\n        /* \"#utility.yul\":19463:19466   */\n      dup2\n        /* \"#utility.yul\":19455:19466   */\n      swap1\n      pop\n        /* \"#utility.yul\":19493:19497   */\n      0x20\n        /* \"#utility.yul\":19488:19491   */\n      dup3\n        /* \"#utility.yul\":19484:19498   */\n      add\n        /* \"#utility.yul\":19476:19498   */\n      swap1\n      pop\n        /* \"#utility.yul\":19363:19505   */\n      swap2\n      swap1\n      pop\n      jump\t// out\n        /* \"#utility.yul\":19511:19635   */\n    tag_418:\n        /* \"#utility.yul\":19588:19594   */\n      0x00\n        /* \"#utility.yul\":19622:19627   */\n      dup2\n        /* \"#utility.yul\":19616:19628   */\n      mload\n        /* \"#utility.yul\":19606:19628   */\n      swap1\n      pop\n        /* \"#utility.yul\":19511:19635   */\n      swap2\n      swap1\n      pop\n      jump\t// out\n        /* \"#utility.yul\":19641:19740   */\n    tag_431:\n        /* \"#utility.yul\":19693:19699   */\n      0x00\n        /* \"#utility.yul\":19727:19732   */\n      dup2\n        /* \"#utility.yul\":19721:19733   */\n      mload\n        /* \"#utility.yul\":19711:19733   */\n      swap1\n      pop\n        /* \"#utility.yul\":19641:19740   */\n      swap2\n      swap1\n      pop\n      jump\t// out\n        /* \"#utility.yul\":19746:19869   */\n    tag_428:\n        /* \"#utility.yul\":19826:19830   */\n      0x00\n        /* \"#utility.yul\":19858:19862   */\n      0x20\n        /* \"#utility.yul\":19853:19856   */\n      dup3\n        /* \"#utility.yul\":19849:19863   */\n      add\n        /* \"#utility.yul\":19841:19863   */\n      swap1\n      pop\n        /* \"#utility.yul\":19746:19869   */\n      swap2\n      swap1\n      pop\n      jump\t// out\n        /* \"#utility.yul\":19875:20059   */\n    tag_420:\n        /* \"#utility.yul\":19974:19985   */\n      0x00\n        /* \"#utility.yul\":20008:20014   */\n      dup3\n        /* \"#utility.yul\":20003:20006   */\n      dup3\n        /* \"#utility.yul\":19996:20015   */\n      mstore\n        /* \"#utility.yul\":20048:20052   */\n      0x20\n        /* \"#utility.yul\":20043:20046   */\n      dup3\n        /* \"#utility.yul\":20039:20053   */\n      add\n        /* \"#utility.yul\":20024:20053   */\n      swap1\n      pop\n        /* \"#utility.yul\":19875:20059   */\n      swap3\n      swap2\n      pop\n      pop\n      jump\t// out\n        /* \"#utility.yul\":20065:20224   */\n    tag_433:\n        /* \"#utility.yul\":20139:20150   */\n      0x00\n        /* \"#utility.yul\":20173:20179   */\n      dup3\n        /* \"#utility.yul\":20168:20171   */\n      dup3\n        /* \"#utility.yul\":20161:20180   */\n      mstore\n        /* \"#utility.yul\":20213:20217   */\n      0x20\n        /* \"#utility.yul\":20208:20211   */\n      dup3\n        /* \"#utility.yul\":20204:20218   */\n      add\n        /* \"#utility.yul\":20189:20218   */\n      swap1\n      pop\n        /* \"#utility.yul\":20065:20224   */\n      swap3\n      swap2\n      pop\n      pop\n      jump\t// out\n        /* \"#utility.yul\":20230:20399   */\n    tag_442:\n        /* \"#utility.yul\":20314:20325   */\n      0x00\n        /* \"#utility.yul\":20348:20354   */\n      dup3\n        /* \"#utility.yul\":20343:20346   */\n      dup3\n        /* \"#utility.yul\":20336:20355   */\n      mstore\n        /* \"#utility.yul\":20388:20392   */\n      0x20\n        /* \"#utility.yul\":20383:20386   */\n      dup3\n        /* \"#utility.yul\":20379:20393   */\n      add\n        /* \"#utility.yul\":20364:20393   */\n      swap1\n      pop\n        /* \"#utility.yul\":20230:20399   */\n      swap3\n      swap2\n      pop\n      pop\n      jump\t// out\n        /* \"#utility.yul\":20405:20501   */\n    tag_414:\n        /* \"#utility.yul\":20442:20449   */\n      0x00\n        /* \"#utility.yul\":20471:20495   */\n      tag_509\n        /* \"#utility.yul\":20489:20494   */\n      dup3\n        /* \"#utility.yul\":20471:20495   */\n      tag_510\n      jump\t// in\n    tag_509:\n        /* \"#utility.yul\":20460:20495   */\n      swap1\n      pop\n        /* \"#utility.yul\":20405:20501   */\n      swap2\n      swap1\n      pop\n      jump\t// out\n        /* \"#utility.yul\":20507:20633   */\n    tag_510:\n        /* \"#utility.yul\":20544:20551   */\n      0x00\n        /* \"#utility.yul\":20584:20626   */\n      0xffffffffffffffffffffffffffffffffffffffff\n        /* \"#utility.yul\":20577:20582   */\n      dup3\n        /* \"#utility.yul\":20573:20627   */\n      and\n        /* \"#utility.yul\":20562:20627   */\n      swap1\n      pop\n        /* \"#utility.yul\":20507:20633   */\n      swap2\n      swap1\n      pop\n      jump\t// out\n        /* \"#utility.yul\":20639:20716   */\n    tag_471:\n        /* \"#utility.yul\":20676:20683   */\n      0x00\n        /* \"#utility.yul\":20705:20710   */\n      dup2\n        /* \"#utility.yul\":20694:20710   */\n      swap1\n      pop\n        /* \"#utility.yul\":20639:20716   */\n      swap2\n      swap1\n      pop\n      jump\t// out\n        /* \"#utility.yul\":20722:20876   */\n    tag_322:\n        /* \"#utility.yul\":20806:20812   */\n      dup3\n        /* \"#utility.yul\":20801:20804   */\n      dup2\n        /* \"#utility.yul\":20796:20799   */\n      dup4\n        /* \"#utility.yul\":20783:20813   */\n      calldatacopy\n        /* \"#utility.yul\":20868:20869   */\n      0x00\n        /* \"#utility.yul\":20859:20865   */\n      dup4\n        /* \"#utility.yul\":20854:20857   */\n      dup4\n        /* \"#utility.yul\":20850:20866   */\n      add\n        /* \"#utility.yul\":20843:20870   */\n      mstore\n        /* \"#utility.yul\":20722:20876   */\n      pop\n      pop\n      pop\n      jump\t// out\n        /* \"#utility.yul\":20882:21189   */\n    tag_435:\n        /* \"#utility.yul\":20950:20951   */\n      0x00\n        /* \"#utility.yul\":20960:21073   */\n    tag_515:\n        /* \"#utility.yul\":20974:20980   */\n      dup4\n        /* \"#utility.yul\":20971:20972   */\n      dup2\n        /* \"#utility.yul\":20968:20981   */\n      lt\n        /* \"#utility.yul\":20960:21073   */\n      iszero\n      tag_517\n      jumpi\n        /* \"#utility.yul\":21059:21060   */\n      dup1\n        /* \"#utility.yul\":21054:21057   */\n      dup3\n        /* \"#utility.yul\":21050:21061   */\n      add\n        /* \"#utility.yul\":21044:21062   */\n      mload\n        /* \"#utility.yul\":21040:21041   */\n      dup2\n        /* \"#utility.yul\":21035:21038   */\n      dup5\n        /* \"#utility.yul\":21031:21042   */\n      add\n        /* \"#utility.yul\":21024:21063   */\n      mstore\n        /* \"#utility.yul\":20996:20998   */\n      0x20\n        /* \"#utility.yul\":20993:20994   */\n      dup2\n        /* \"#utility.yul\":20989:20999   */\n      add\n        /* \"#utility.yul\":20984:20999   */\n      swap1\n      pop\n        /* \"#utility.yul\":20960:21073   */\n      jump(tag_515)\n    tag_517:\n        /* \"#utility.yul\":21091:21097   */\n      dup4\n        /* \"#utility.yul\":21088:21089   */\n      dup2\n        /* \"#utility.yul\":21085:21098   */\n      gt\n        /* \"#utility.yul\":21082:21183   */\n      iszero\n      tag_518\n      jumpi\n        /* \"#utility.yul\":21171:21172   */\n      0x00\n        /* \"#utility.yul\":21162:21168   */\n      dup5\n        /* \"#utility.yul\":21157:21160   */\n      dup5\n        /* \"#utility.yul\":21153:21169   */\n      add\n        /* \"#utility.yul\":21146:21173   */\n      mstore\n        /* \"#utility.yul\":21082:21183   */\n    tag_518:\n        /* \"#utility.yul\":20931:21189   */\n      pop\n        /* \"#utility.yul\":20882:21189   */\n      pop\n      pop\n      pop\n      jump\t// out\n        /* \"#utility.yul\":21195:21515   */\n    tag_110:\n        /* \"#utility.yul\":21239:21245   */\n      0x00\n        /* \"#utility.yul\":21276:21277   */\n      0x02\n        /* \"#utility.yul\":21270:21274   */\n      dup3\n        /* \"#utility.yul\":21266:21278   */\n      div\n        /* \"#utility.yul\":21256:21278   */\n      swap1\n      pop\n        /* \"#utility.yul\":21323:21324   */\n      0x01\n        /* \"#utility.yul\":21317:21321   */\n      dup3\n        /* \"#utility.yul\":21313:21325   */\n      and\n        /* \"#utility.yul\":21344:21362   */\n      dup1\n        /* \"#utility.yul\":21334:21415   */\n      tag_520\n      jumpi\n        /* \"#utility.yul\":21400:21404   */\n      0x7f\n        /* \"#utility.yul\":21392:21398   */\n      dup3\n        /* \"#utility.yul\":21388:21405   */\n      and\n        /* \"#utility.yul\":21378:21405   */\n      swap2\n      pop\n        /* \"#utility.yul\":21334:21415   */\n    tag_520:\n        /* \"#utility.yul\":21462:21464   */\n      0x20\n        /* \"#utility.yul\":21454:21460   */\n      dup3\n        /* \"#utility.yul\":21451:21465   */\n      lt\n        /* \"#utility.yul\":21431:21449   */\n      dup2\n        /* \"#utility.yul\":21428:21466   */\n      eq\n        /* \"#utility.yul\":21425:21509   */\n      iszero\n      tag_521\n      jumpi\n        /* \"#utility.yul\":21481:21499   */\n      tag_522\n      tag_523\n      jump\t// in\n    tag_522:\n        /* \"#utility.yul\":21425:21509   */\n    tag_521:\n        /* \"#utility.yul\":21246:21515   */\n      pop\n        /* \"#utility.yul\":21195:21515   */\n      swap2\n      swap1\n      pop\n      jump\t// out\n        /* \"#utility.yul\":21521:21802   */\n    tag_491:\n        /* \"#utility.yul\":21604:21631   */\n      tag_525\n        /* \"#utility.yul\":21626:21630   */\n      dup3\n        /* \"#utility.yul\":21604:21631   */\n      tag_437\n      jump\t// in\n    tag_525:\n        /* \"#utility.yul\":21596:21602   */\n      dup2\n        /* \"#utility.yul\":21592:21632   */\n      add\n        /* \"#utility.yul\":21734:21740   */\n      dup2\n        /* \"#utility.yul\":21722:21732   */\n      dup2\n        /* \"#utility.yul\":21719:21741   */\n      lt\n        /* \"#utility.yul\":21698:21716   */\n      0xffffffffffffffff\n        /* \"#utility.yul\":21686:21696   */\n      dup3\n        /* \"#utility.yul\":21683:21717   */\n      gt\n        /* \"#utility.yul\":21680:21742   */\n      or\n        /* \"#utility.yul\":21677:21765   */\n      iszero\n      tag_526\n      jumpi\n        /* \"#utility.yul\":21745:21763   */\n      tag_527\n      tag_496\n      jump\t// in\n    tag_527:\n        /* \"#utility.yul\":21677:21765   */\n    tag_526:\n        /* \"#utility.yul\":21785:21795   */\n      dup1\n        /* \"#utility.yul\":21781:21783   */\n      0x40\n        /* \"#utility.yul\":21774:21796   */\n      mstore\n        /* \"#utility.yul\":21564:21802   */\n      pop\n        /* \"#utility.yul\":21521:21802   */\n      pop\n      pop\n      jump\t// out\n        /* \"#utility.yul\":21808:21988   */\n    tag_523:\n        /* \"#utility.yul\":21856:21933   */\n      0x4e487b7100000000000000000000000000000000000000000000000000000000\n        /* \"#utility.yul\":21853:21854   */\n      0x00\n        /* \"#utility.yul\":21846:21934   */\n      mstore\n        /* \"#utility.yul\":21953:21957   */\n      0x22\n        /* \"#utility.yul\":21950:21951   */\n      0x04\n        /* \"#utility.yul\":21943:21958   */\n      mstore\n        /* \"#utility.yul\":21977:21981   */\n      0x24\n        /* \"#utility.yul\":21974:21975   */\n      0x00\n        /* \"#utility.yul\":21967:21982   */\n      revert\n        /* \"#utility.yul\":21994:22174   */\n    tag_202:\n        /* \"#utility.yul\":22042:22119   */\n      0x4e487b7100000000000000000000000000000000000000000000000000000000\n        /* \"#utility.yul\":22039:22040   */\n      0x00\n        /* \"#utility.yul\":22032:22120   */\n      mstore\n        /* \"#utility.yul\":22139:22143   */\n      0x32\n        /* \"#utility.yul\":22136:22137   */\n      0x04\n        /* \"#utility.yul\":22129:22144   */\n      mstore\n        /* \"#utility.yul\":22163:22167   */\n      0x24\n        /* \"#utility.yul\":22160:22161   */\n      0x00\n        /* \"#utility.yul\":22153:22168   */\n      revert\n        /* \"#utility.yul\":22180:22360   */\n    tag_496:\n        /* \"#utility.yul\":22228:22305   */\n      0x4e487b7100000000000000000000000000000000000000000000000000000000\n        /* \"#utility.yul\":22225:22226   */\n      0x00\n        /* \"#utility.yul\":22218:22306   */\n      mstore\n        /* \"#utility.yul\":22325:22329   */\n      0x41\n        /* \"#utility.yul\":22322:22323   */\n      0x04\n        /* \"#utility.yul\":22315:22330   */\n      mstore\n        /* \"#utility.yul\":22349:22353   */\n      0x24\n        /* \"#utility.yul\":22346:22347   */\n      0x00\n        /* \"#utility.yul\":22339:22354   */\n      revert\n        /* \"#utility.yul\":22366:22483   */\n    tag_310:\n        /* \"#utility.yul\":22475:22476   */\n      0x00\n        /* \"#utility.yul\":22472:22473   */\n      dup1\n        /* \"#utility.yul\":22465:22477   */\n      revert\n        /* \"#utility.yul\":22489:22606   */\n    tag_304:\n        /* \"#utility.yul\":22598:22599   */\n      0x00\n        /* \"#utility.yul\":22595:22596   */\n      dup1\n        /* \"#utility.yul\":22588:22600   */\n      revert\n        /* \"#utility.yul\":22612:22729   */\n    tag_320:\n        /* \"#utility.yul\":22721:22722   */\n      0x00\n        /* \"#utility.yul\":22718:22719   */\n      dup1\n        /* \"#utility.yul\":22711:22723   */\n      revert\n        /* \"#utility.yul\":22735:22852   */\n    tag_350:\n        /* \"#utility.yul\":22844:22845   */\n      0x00\n        /* \"#utility.yul\":22841:22842   */\n      dup1\n        /* \"#utility.yul\":22834:22846   */\n      revert\n        /* \"#utility.yul\":22858:22975   */\n    tag_343:\n        /* \"#utility.yul\":22967:22968   */\n      0x00\n        /* \"#utility.yul\":22964:22965   */\n      dup1\n        /* \"#utility.yul\":22957:22969   */\n      revert\n        /* \"#utility.yul\":22981:23083   */\n    tag_437:\n        /* \"#utility.yul\":23022:23028   */\n      0x00\n        /* \"#utility.yul\":23073:23075   */\n      0x1f\n        /* \"#utility.yul\":23069:23076   */\n      not\n        /* \"#utility.yul\":23064:23066   */\n      0x1f\n        /* \"#utility.yul\":23057:23062   */\n      dup4\n        /* \"#utility.yul\":23053:23067   */\n      add\n        /* \"#utility.yul\":23049:23077   */\n      and\n        /* \"#utility.yul\":23039:23077   */\n      swap1\n      pop\n        /* \"#utility.yul\":22981:23083   */\n      swap2\n      swap1\n      pop\n      jump\t// out\n        /* \"#utility.yul\":23089:23211   */\n    tag_326:\n        /* \"#utility.yul\":23162:23186   */\n      tag_538\n        /* \"#utility.yul\":23180:23185   */\n      dup2\n        /* \"#utility.yul\":23162:23186   */\n      tag_414\n      jump\t// in\n    tag_538:\n        /* \"#utility.yul\":23155:23160   */\n      dup2\n        /* \"#utility.yul\":23152:23187   */\n      eq\n        /* \"#utility.yul\":23142:23205   */\n      tag_539\n      jumpi\n        /* \"#utility.yul\":23201:23202   */\n      0x00\n        /* \"#utility.yul\":23198:23199   */\n      dup1\n        /* \"#utility.yul\":23191:23203   */\n      revert\n        /* \"#utility.yul\":23142:23205   */\n    tag_539:\n        /* \"#utility.yul\":23089:23211   */\n      pop\n      jump\t// out\n        /* \"#utility.yul\":23217:23339   */\n    tag_339:\n        /* \"#utility.yul\":23290:23314   */\n      tag_541\n        /* \"#utility.yul\":23308:23313   */\n      dup2\n        /* \"#utility.yul\":23290:23314   */\n      tag_471\n      jump\t// in\n    tag_541:\n        /* \"#utility.yul\":23283:23288   */\n      dup2\n        /* \"#utility.yul\":23280:23315   */\n      eq\n        /* \"#utility.yul\":23270:23333   */\n      tag_542\n      jumpi\n        /* \"#utility.yul\":23329:23330   */\n      0x00\n        /* \"#utility.yul\":23326:23327   */\n      dup1\n        /* \"#utility.yul\":23319:23331   */\n      revert\n        /* \"#utility.yul\":23270:23333   */\n    tag_542:\n        /* \"#utility.yul\":23217:23339   */\n      pop\n      jump\t// out\n\n    auxdata: 0xa26469706673582212204c57e4dcd2a322a46cbaf6db29e73b71e600521de16cb6098dec3cc5ccac154364736f6c63430008070033\n}\n",
				"bytecode": {
					"linkReferences": {},
					"object": "608060405234801561001057600080fd5b50612a98806100206000396000f3fe608060405234801561001057600080fd5b50600436106100b45760003560e01c806397c35b021161007157806397c35b02146101515780639dd9d0fd1461016d578063d759b8301461019f578063ed2217ef146101bb578063f96e32f8146101c5578063fabce08f146101f9576100b4565b80633d984d0e146100b95780636212fa02146100d557806366244dfb146100f3578063728283881461010f578063958791ae1461012b57806395ea375714610147575b600080fd5b6100d360048036038101906100ce91906120c2565b610203565b005b6100dd610387565b6040516100ea9190612799565b60405180910390f35b61010d60048036038101906101089190612169565b6103d3565b005b61012960048036038101906101249190612169565b61050e565b005b61014560048036038101906101409190612270565b610776565b005b61014f610a60565b005b61016b60048036038101906101669190612079565b610b35565b005b6101876004803603810190610182919061204c565b610b8e565b6040516101969392919061274d565b60405180910390f35b6101b960048036038101906101b49190612079565b61159a565b005b6101c36115f3565b005b6101df60048036038101906101da91906123a5565b611642565b6040516101f09594939291906126d7565b60405180910390f35b610201611b0d565b005b6000803373ffffffffffffffffffffffffffffffffffffffff1673ffffffffffffffffffffffffffffffffffffffff168152602001908152602001600020600e01600080820160006102559190611cb4565b6001820160006102659190611cb4565b6002820160006102759190611cb4565b5050826000803373ffffffffffffffffffffffffffffffffffffffff1673ffffffffffffffffffffffffffffffffffffffff168152602001908152602001600020600e0160000190805190602001906102cf929190611cd5565b50816000803373ffffffffffffffffffffffffffffffffffffffff1673ffffffffffffffffffffffffffffffffffffffff168152602001908152602001600020600e016001019080519060200190610328929190611cd5565b50806000803373ffffffffffffffffffffffffffffffffffffffff1673ffffffffffffffffffffffffffffffffffffffff168152602001908152602001600020600e016002019080519060200190610381929190611cd5565b50505050565b60008060003373ffffffffffffffffffffffffffffffffffffffff1673ffffffffffffffffffffffffffffffffffffffff16815260200190815260200160002060110180549050905090565b6103db611d35565b8581600001819052508481602001819052508381604001819052508281606001819052508181608001819052506000803373ffffffffffffffffffffffffffffffffffffffff1673ffffffffffffffffffffffffffffffffffffffff168152602001908152602001600020601101819080600181540180825580915050600190039060005260206000209060050201600090919091909150600082015181600001908051906020019061048f929190611d64565b5060208201518160010190805190602001906104ac929190611d64565b5060408201518160020190805190602001906104c9929190611d64565b5060608201518160030190805190602001906104e6929190611d64565b506080820151816004019080519060200190610503929190611d64565b505050505050505050565b6000803373ffffffffffffffffffffffffffffffffffffffff1673ffffffffffffffffffffffffffffffffffffffff168152602001908152602001600020600801600080820160006105609190611dea565b6001820160006105709190611dea565b6002820160006105809190611dea565b6003820160006105909190611dea565b6004820160006105a09190611dea565b6005820160006105b09190611dea565b5050846000803373ffffffffffffffffffffffffffffffffffffffff1673ffffffffffffffffffffffffffffffffffffffff168152602001908152602001600020600801600101908051906020019061060a929190611d64565b50836000803373ffffffffffffffffffffffffffffffffffffffff1673ffffffffffffffffffffffffffffffffffffffff1681526020019081526020016000206008016002019080519060200190610663929190611d64565b50826000803373ffffffffffffffffffffffffffffffffffffffff1673ffffffffffffffffffffffffffffffffffffffff16815260200190815260200160002060080160030190805190602001906106bc929190611d64565b50816000803373ffffffffffffffffffffffffffffffffffffffff1673ffffffffffffffffffffffffffffffffffffffff1681526020019081526020016000206008016002019080519060200190610715929190611d64565b50806000803373ffffffffffffffffffffffffffffffffffffffff1673ffffffffffffffffffffffffffffffffffffffff168152602001908152602001600020600801600101908051906020019061076e929190611d64565b505050505050565b856000803373ffffffffffffffffffffffffffffffffffffffff1673ffffffffffffffffffffffffffffffffffffffff16815260200190815260200160002060000160030190805190602001906107ce929190611d64565b50846000803373ffffffffffffffffffffffffffffffffffffffff1673ffffffffffffffffffffffffffffffffffffffff1681526020019081526020016000206000016004019080519060200190610827929190611d64565b50836000803373ffffffffffffffffffffffffffffffffffffffff1673ffffffffffffffffffffffffffffffffffffffff1681526020019081526020016000206000016005019080519060200190610880929190611d64565b50826000803373ffffffffffffffffffffffffffffffffffffffff1673ffffffffffffffffffffffffffffffffffffffff16815260200190815260200160002060000160060190805190602001906108d9929190611d64565b50816000803373ffffffffffffffffffffffffffffffffffffffff1673ffffffffffffffffffffffffffffffffffffffff1681526020019081526020016000206000016000019080519060200190610932929190611d64565b50806000803373ffffffffffffffffffffffffffffffffffffffff1673ffffffffffffffffffffffffffffffffffffffff168152602001908152602001600020600001600101908051906020019061098b929190611d64565b50336000803373ffffffffffffffffffffffffffffffffffffffff1673ffffffffffffffffffffffffffffffffffffffff16815260200190815260200160002060000160020160006101000a81548173ffffffffffffffffffffffffffffffffffffffff021916908373ffffffffffffffffffffffffffffffffffffffff160217905550426000803373ffffffffffffffffffffffffffffffffffffffff1673ffffffffffffffffffffffffffffffffffffffff16815260200190815260200160002060000160070181905550505050505050565b6000803373ffffffffffffffffffffffffffffffffffffffff1673ffffffffffffffffffffffffffffffffffffffff16815260200190815260200160002060000160008082016000610ab29190611dea565b600182016000610ac29190611dea565b6002820160006101000a81549073ffffffffffffffffffffffffffffffffffffffff0219169055600382016000610af99190611dea565b600482016000610b099190611dea565b600582016000610b199190611dea565b600682016000610b299190611dea565b60078201600090555050565b806000803373ffffffffffffffffffffffffffffffffffffffff1673ffffffffffffffffffffffffffffffffffffffff1681526020019081526020016000206013019080519060200190610b8a929190611cd5565b5050565b60006020528060005260406000206000915090508060000160405180610100016040529081600082018054610bc29061291a565b80601f0160208091040260200160405190810160405280929190818152602001828054610bee9061291a565b8015610c3b5780601f10610c1057610100808354040283529160200191610c3b565b820191906000526020600020905b815481529060010190602001808311610c1e57829003601f168201915b50505050508152602001600182018054610c549061291a565b80601f0160208091040260200160405190810160405280929190818152602001828054610c809061291a565b8015610ccd5780601f10610ca257610100808354040283529160200191610ccd565b820191906000526020600020905b815481529060010190602001808311610cb057829003601f168201915b505050505081526020016002820160009054906101000a900473ffffffffffffffffffffffffffffffffffffffff1673ffffffffffffffffffffffffffffffffffffffff1673ffffffffffffffffffffffffffffffffffffffff168152602001600382018054610d3c9061291a565b80601f0160208091040260200160405190810160405280929190818152602001828054610d689061291a565b8015610db55780601f10610d8a57610100808354040283529160200191610db5565b820191906000526020600020905b815481529060010190602001808311610d9857829003601f168201915b50505050508152602001600482018054610dce9061291a565b80601f0160208091040260200160405190810160405280929190818152602001828054610dfa9061291a565b8015610e475780601f10610e1c57610100808354040283529160200191610e47565b820191906000526020600020905b815481529060010190602001808311610e2a57829003601f168201915b50505050508152602001600582018054610e609061291a565b80601f0160208091040260200160405190810160405280929190818152602001828054610e8c9061291a565b8015610ed95780601f10610eae57610100808354040283529160200191610ed9565b820191906000526020600020905b815481529060010190602001808311610ebc57829003601f168201915b50505050508152602001600682018054610ef29061291a565b80601f0160208091040260200160405190810160405280929190818152602001828054610f1e9061291a565b8015610f6b5780601f10610f4057610100808354040283529160200191610f6b565b820191906000526020600020905b815481529060010190602001808311610f4e57829003601f168201915b5050505050815260200160078201548152505090806008016040518060c0016040529081600082018054610f9e9061291a565b80601f0160208091040260200160405190810160405280929190818152602001828054610fca9061291a565b80156110175780601f10610fec57610100808354040283529160200191611017565b820191906000526020600020905b815481529060010190602001808311610ffa57829003601f168201915b505050505081526020016001820180546110309061291a565b80601f016020809104026020016040519081016040528092919081815260200182805461105c9061291a565b80156110a95780601f1061107e576101008083540402835291602001916110a9565b820191906000526020600020905b81548152906001019060200180831161108c57829003601f168201915b505050505081526020016002820180546110c29061291a565b80601f01602080910402602001604051908101604052809291908181526020018280546110ee9061291a565b801561113b5780601f106111105761010080835404028352916020019161113b565b820191906000526020600020905b81548152906001019060200180831161111e57829003601f168201915b505050505081526020016003820180546111549061291a565b80601f01602080910402602001604051908101604052809291908181526020018280546111809061291a565b80156111cd5780601f106111a2576101008083540402835291602001916111cd565b820191906000526020600020905b8154815290600101906020018083116111b057829003601f168201915b505050505081526020016004820180546111e69061291a565b80601f01602080910402602001604051908101604052809291908181526020018280546112129061291a565b801561125f5780601f106112345761010080835404028352916020019161125f565b820191906000526020600020905b81548152906001019060200180831161124257829003601f168201915b505050505081526020016005820180546112789061291a565b80601f01602080910402602001604051908101604052809291908181526020018280546112a49061291a565b80156112f15780601f106112c6576101008083540402835291602001916112f1565b820191906000526020600020905b8154815290600101906020018083116112d457829003601f168201915b5050505050815250509080600e0160405180606001604052908160008201805480602002602001604051908101604052809291908181526020016000905b828210156113db57838290600052602060002001805461134e9061291a565b80601f016020809104026020016040519081016040528092919081815260200182805461137a9061291a565b80156113c75780601f1061139c576101008083540402835291602001916113c7565b820191906000526020600020905b8154815290600101906020018083116113aa57829003601f168201915b50505050508152602001906001019061132f565b50505050815260200160018201805480602002602001604051908101604052809291908181526020016000905b828210156114b45783829060005260206000200180546114279061291a565b80601f01602080910402602001604051908101604052809291908181526020018280546114539061291a565b80156114a05780601f10611475576101008083540402835291602001916114a0565b820191906000526020600020905b81548152906001019060200180831161148357829003601f168201915b505050505081526020019060010190611408565b50505050815260200160028201805480602002602001604051908101604052809291908181526020016000905b8282101561158d5783829060005260206000200180546115009061291a565b80601f016020809104026020016040519081016040528092919081815260200182805461152c9061291a565b80156115795780601f1061154e57610100808354040283529160200191611579565b820191906000526020600020905b81548152906001019060200180831161155c57829003601f168201915b5050505050815260200190600101906114e1565b5050505081525050905083565b806000803373ffffffffffffffffffffffffffffffffffffffff1673ffffffffffffffffffffffffffffffffffffffff16815260200190815260200160002060120190805190602001906115ef929190611cd5565b5050565b6000803373ffffffffffffffffffffffffffffffffffffffff1673ffffffffffffffffffffffffffffffffffffffff16815260200190815260200160002060110160006116409190611e2a565b565b60608060608060606000803373ffffffffffffffffffffffffffffffffffffffff1673ffffffffffffffffffffffffffffffffffffffff168152602001908152602001600020601101868154811061169d5761169c6129ac565b5b90600052602060002090600502016000016000803373ffffffffffffffffffffffffffffffffffffffff1673ffffffffffffffffffffffffffffffffffffffff1681526020019081526020016000206011018781548110611701576117006129ac565b5b90600052602060002090600502016001016000803373ffffffffffffffffffffffffffffffffffffffff1673ffffffffffffffffffffffffffffffffffffffff1681526020019081526020016000206011018881548110611765576117646129ac565b5b90600052602060002090600502016002016000803373ffffffffffffffffffffffffffffffffffffffff1673ffffffffffffffffffffffffffffffffffffffff16815260200190815260200160002060110189815481106117c9576117c86129ac565b5b90600052602060002090600502016003016000803373ffffffffffffffffffffffffffffffffffffffff1673ffffffffffffffffffffffffffffffffffffffff1681526020019081526020016000206011018a8154811061182d5761182c6129ac565b5b906000526020600020906005020160040184805461184a9061291a565b80601f01602080910402602001604051908101604052809291908181526020018280546118769061291a565b80156118c35780601f10611898576101008083540402835291602001916118c3565b820191906000526020600020905b8154815290600101906020018083116118a657829003601f168201915b505050505094508380546118d69061291a565b80601f01602080910402602001604051908101604052809291908181526020018280546119029061291a565b801561194f5780601f106119245761010080835404028352916020019161194f565b820191906000526020600020905b81548152906001019060200180831161193257829003601f168201915b505050505093508280546119629061291a565b80601f016020809104026020016040519081016040528092919081815260200182805461198e9061291a565b80156119db5780601f106119b0576101008083540402835291602001916119db565b820191906000526020600020905b8154815290600101906020018083116119be57829003601f168201915b505050505092508180546119ee9061291a565b80601f0160208091040260200160405190810160405280929190818152602001828054611a1a9061291a565b8015611a675780601f10611a3c57610100808354040283529160200191611a67565b820191906000526020600020905b815481529060010190602001808311611a4a57829003601f168201915b50505050509150808054611a7a9061291a565b80601f0160208091040260200160405190810160405280929190818152602001828054611aa69061291a565b8015611af35780601f10611ac857610100808354040283529160200191611af3565b820191906000526020600020905b815481529060010190602001808311611ad657829003601f168201915b505050505090509450945094509450945091939590929450565b6000803373ffffffffffffffffffffffffffffffffffffffff1673ffffffffffffffffffffffffffffffffffffffff168152602001908152602001600020600080820160008082016000611b619190611dea565b600182016000611b719190611dea565b6002820160006101000a81549073ffffffffffffffffffffffffffffffffffffffff0219169055600382016000611ba89190611dea565b600482016000611bb89190611dea565b600582016000611bc89190611dea565b600682016000611bd89190611dea565b600782016000905550506008820160008082016000611bf79190611dea565b600182016000611c079190611dea565b600282016000611c179190611dea565b600382016000611c279190611dea565b600482016000611c379190611dea565b600582016000611c479190611dea565b5050600e820160008082016000611c5e9190611cb4565b600182016000611c6e9190611cb4565b600282016000611c7e9190611cb4565b5050601182016000611c909190611e2a565b601282016000611ca09190611cb4565b601382016000611cb09190611cb4565b5050565b5080546000825590600052602060002090810190611cd29190611e4e565b50565b828054828255906000526020600020908101928215611d24579160200282015b82811115611d23578251829080519060200190611d13929190611d64565b5091602001919060010190611cf5565b5b509050611d319190611e4e565b5090565b6040518060a0016040528060608152602001606081526020016060815260200160608152602001606081525090565b828054611d709061291a565b90600052602060002090601f016020900481019282611d925760008555611dd9565b82601f10611dab57805160ff1916838001178555611dd9565b82800160010185558215611dd9579182015b82811115611dd8578251825591602001919060010190611dbd565b5b509050611de69190611e72565b5090565b508054611df69061291a565b6000825580601f10611e085750611e27565b601f016020900490600052602060002090810190611e269190611e72565b5b50565b5080546000825560050290600052602060002090810190611e4b9190611e8f565b50565b5b80821115611e6e5760008181611e659190611dea565b50600101611e4f565b5090565b5b80821115611e8b576000816000905550600101611e73565b5090565b5b80821115611ef25760008082016000611ea99190611dea565b600182016000611eb99190611dea565b600282016000611ec99190611dea565b600382016000611ed99190611dea565b600482016000611ee99190611dea565b50600501611e90565b5090565b6000611f09611f04846127d9565b6127b4565b90508083825260208201905082856020860282011115611f2c57611f2b612a0f565b5b60005b85811015611f7a57813567ffffffffffffffff811115611f5257611f51612a0a565b5b808601611f5f8982612009565b85526020850194506020840193505050600181019050611f2f565b5050509392505050565b6000611f97611f9284612805565b6127b4565b905082815260208101848484011115611fb357611fb2612a14565b5b611fbe8482856128d8565b509392505050565b600081359050611fd581612a34565b92915050565b600082601f830112611ff057611fef612a0a565b5b8135612000848260208601611ef6565b91505092915050565b600082601f83011261201e5761201d612a0a565b5b813561202e848260208601611f84565b91505092915050565b60008135905061204681612a4b565b92915050565b60006020828403121561206257612061612a1e565b5b600061207084828501611fc6565b91505092915050565b60006020828403121561208f5761208e612a1e565b5b600082013567ffffffffffffffff8111156120ad576120ac612a19565b5b6120b984828501611fdb565b91505092915050565b6000806000606084860312156120db576120da612a1e565b5b600084013567ffffffffffffffff8111156120f9576120f8612a19565b5b61210586828701611fdb565b935050602084013567ffffffffffffffff81111561212657612125612a19565b5b61213286828701611fdb565b925050604084013567ffffffffffffffff81111561215357612152612a19565b5b61215f86828701611fdb565b9150509250925092565b600080600080600060a0868803121561218557612184612a1e565b5b600086013567ffffffffffffffff8111156121a3576121a2612a19565b5b6121af88828901612009565b955050602086013567ffffffffffffffff8111156121d0576121cf612a19565b5b6121dc88828901612009565b945050604086013567ffffffffffffffff8111156121fd576121fc612a19565b5b61220988828901612009565b935050606086013567ffffffffffffffff81111561222a57612229612a19565b5b61223688828901612009565b925050608086013567ffffffffffffffff81111561225757612256612a19565b5b61226388828901612009565b9150509295509295909350565b60008060008060008060c0878903121561228d5761228c612a1e565b5b600087013567ffffffffffffffff8111156122ab576122aa612a19565b5b6122b789828a01612009565b965050602087013567ffffffffffffffff8111156122d8576122d7612a19565b5b6122e489828a01612009565b955050604087013567ffffffffffffffff81111561230557612304612a19565b5b61231189828a01612009565b945050606087013567ffffffffffffffff81111561233257612331612a19565b5b61233e89828a01612009565b935050608087013567ffffffffffffffff81111561235f5761235e612a19565b5b61236b89828a01612009565b92505060a087013567ffffffffffffffff81111561238c5761238b612a19565b5b61239889828a01612009565b9150509295509295509295565b6000602082840312156123bb576123ba612a1e565b5b60006123c984828501612037565b91505092915050565b60006123de838361246a565b905092915050565b6123ef8161289c565b82525050565b600061240082612846565b61240a8185612869565b93508360208202850161241c85612836565b8060005b85811015612458578484038952815161243985826123d2565b94506124448361285c565b925060208a01995050600181019050612420565b50829750879550505050505092915050565b600061247582612851565b61247f818561287a565b935061248f8185602086016128e7565b61249881612a23565b840191505092915050565b60006124ae82612851565b6124b8818561288b565b93506124c88185602086016128e7565b6124d181612a23565b840191505092915050565b600060c08301600083015184820360008601526124f9828261246a565b91505060208301518482036020860152612513828261246a565b9150506040830151848203604086015261252d828261246a565b91505060608301518482036060860152612547828261246a565b91505060808301518482036080860152612561828261246a565b91505060a083015184820360a086015261257b828261246a565b9150508091505092915050565b60006101008301600083015184820360008601526125a6828261246a565b915050602083015184820360208601526125c0828261246a565b91505060408301516125d560408601826123e6565b50606083015184820360608601526125ed828261246a565b91505060808301518482036080860152612607828261246a565b91505060a083015184820360a0860152612621828261246a565b91505060c083015184820360c086015261263b828261246a565b91505060e083015161265060e08601826126b9565b508091505092915050565b6000606083016000830151848203600086015261267882826123f5565b9150506020830151848203602086015261269282826123f5565b915050604083015184820360408601526126ac82826123f5565b9150508091505092915050565b6126c2816128ce565b82525050565b6126d1816128ce565b82525050565b600060a08201905081810360008301526126f181886124a3565b9050818103602083015261270581876124a3565b9050818103604083015261271981866124a3565b9050818103606083015261272d81856124a3565b9050818103608083015261274181846124a3565b90509695505050505050565b600060608201905081810360008301526127678186612588565b9050818103602083015261277b81856124dc565b9050818103604083015261278f818461265b565b9050949350505050565b60006020820190506127ae60008301846126c8565b92915050565b60006127be6127cf565b90506127ca828261294c565b919050565b6000604051905090565b600067ffffffffffffffff8211156127f4576127f36129db565b5b602082029050602081019050919050565b600067ffffffffffffffff8211156128205761281f6129db565b5b61282982612a23565b9050602081019050919050565b6000819050602082019050919050565b600081519050919050565b600081519050919050565b6000602082019050919050565b600082825260208201905092915050565b600082825260208201905092915050565b600082825260208201905092915050565b60006128a7826128ae565b9050919050565b600073ffffffffffffffffffffffffffffffffffffffff82169050919050565b6000819050919050565b82818337600083830152505050565b60005b838110156129055780820151818401526020810190506128ea565b83811115612914576000848401525b50505050565b6000600282049050600182168061293257607f821691505b602082108114156129465761294561297d565b5b50919050565b61295582612a23565b810181811067ffffffffffffffff82111715612974576129736129db565b5b80604052505050565b7f4e487b7100000000000000000000000000000000000000000000000000000000600052602260045260246000fd5b7f4e487b7100000000000000000000000000000000000000000000000000000000600052603260045260246000fd5b7f4e487b7100000000000000000000000000000000000000000000000000000000600052604160045260246000fd5b600080fd5b600080fd5b600080fd5b600080fd5b600080fd5b6000601f19601f8301169050919050565b612a3d8161289c565b8114612a4857600080fd5b50565b612a54816128ce565b8114612a5f57600080fd5b5056fea26469706673582212204c57e4dcd2a322a46cbaf6db29e73b71e600521de16cb6098dec3cc5ccac154364736f6c63430008070033",
					"opcodes": "PUSH1 0x80 PUSH1 0x40 MSTORE CALLVALUE DUP1 ISZERO PUSH2 0x10 JUMPI PUSH1 0x0 DUP1 REVERT JUMPDEST POP PUSH2 0x2A98 DUP1 PUSH2 0x20 PUSH1 0x0 CODECOPY PUSH1 0x0 RETURN INVALID PUSH1 0x80 PUSH1 0x40 MSTORE CALLVALUE DUP1 ISZERO PUSH2 0x10 JUMPI PUSH1 0x0 DUP1 REVERT JUMPDEST POP PUSH1 0x4 CALLDATASIZE LT PUSH2 0xB4 JUMPI PUSH1 0x0 CALLDATALOAD PUSH1 0xE0 SHR DUP1 PUSH4 0x97C35B02 GT PUSH2 0x71 JUMPI DUP1 PUSH4 0x97C35B02 EQ PUSH2 0x151 JUMPI DUP1 PUSH4 0x9DD9D0FD EQ PUSH2 0x16D JUMPI DUP1 PUSH4 0xD759B830 EQ PUSH2 0x19F JUMPI DUP1 PUSH4 0xED2217EF EQ PUSH2 0x1BB JUMPI DUP1 PUSH4 0xF96E32F8 EQ PUSH2 0x1C5 JUMPI DUP1 PUSH4 0xFABCE08F EQ PUSH2 0x1F9 JUMPI PUSH2 0xB4 JUMP JUMPDEST DUP1 PUSH4 0x3D984D0E EQ PUSH2 0xB9 JUMPI DUP1 PUSH4 0x6212FA02 EQ PUSH2 0xD5 JUMPI DUP1 PUSH4 0x66244DFB EQ PUSH2 0xF3 JUMPI DUP1 PUSH4 0x72828388 EQ PUSH2 0x10F JUMPI DUP1 PUSH4 0x958791AE EQ PUSH2 0x12B JUMPI DUP1 PUSH4 0x95EA3757 EQ PUSH2 0x147 JUMPI JUMPDEST PUSH1 0x0 DUP1 REVERT JUMPDEST PUSH2 0xD3 PUSH1 0x4 DUP1 CALLDATASIZE SUB DUP2 ADD SWAP1 PUSH2 0xCE SWAP2 SWAP1 PUSH2 0x20C2 JUMP JUMPDEST PUSH2 0x203 JUMP JUMPDEST STOP JUMPDEST PUSH2 0xDD PUSH2 0x387 JUMP JUMPDEST PUSH1 0x40 MLOAD PUSH2 0xEA SWAP2 SWAP1 PUSH2 0x2799 JUMP JUMPDEST PUSH1 0x40 MLOAD DUP1 SWAP2 SUB SWAP1 RETURN JUMPDEST PUSH2 0x10D PUSH1 0x4 DUP1 CALLDATASIZE SUB DUP2 ADD SWAP1 PUSH2 0x108 SWAP2 SWAP1 PUSH2 0x2169 JUMP JUMPDEST PUSH2 0x3D3 JUMP JUMPDEST STOP JUMPDEST PUSH2 0x129 PUSH1 0x4 DUP1 CALLDATASIZE SUB DUP2 ADD SWAP1 PUSH2 0x124 SWAP2 SWAP1 PUSH2 0x2169 JUMP JUMPDEST PUSH2 0x50E JUMP JUMPDEST STOP JUMPDEST PUSH2 0x145 PUSH1 0x4 DUP1 CALLDATASIZE SUB DUP2 ADD SWAP1 PUSH2 0x140 SWAP2 SWAP1 PUSH2 0x2270 JUMP JUMPDEST PUSH2 0x776 JUMP JUMPDEST STOP JUMPDEST PUSH2 0x14F PUSH2 0xA60 JUMP JUMPDEST STOP JUMPDEST PUSH2 0x16B PUSH1 0x4 DUP1 CALLDATASIZE SUB DUP2 ADD SWAP1 PUSH2 0x166 SWAP2 SWAP1 PUSH2 0x2079 JUMP JUMPDEST PUSH2 0xB35 JUMP JUMPDEST STOP JUMPDEST PUSH2 0x187 PUSH1 0x4 DUP1 CALLDATASIZE SUB DUP2 ADD SWAP1 PUSH2 0x182 SWAP2 SWAP1 PUSH2 0x204C JUMP JUMPDEST PUSH2 0xB8E JUMP JUMPDEST PUSH1 0x40 MLOAD PUSH2 0x196 SWAP4 SWAP3 SWAP2 SWAP1 PUSH2 0x274D JUMP JUMPDEST PUSH1 0x40 MLOAD DUP1 SWAP2 SUB SWAP1 RETURN JUMPDEST PUSH2 0x1B9 PUSH1 0x4 DUP1 CALLDATASIZE SUB DUP2 ADD SWAP1 PUSH2 0x1B4 SWAP2 SWAP1 PUSH2 0x2079 JUMP JUMPDEST PUSH2 0x159A JUMP JUMPDEST STOP JUMPDEST PUSH2 0x1C3 PUSH2 0x15F3 JUMP JUMPDEST STOP JUMPDEST PUSH2 0x1DF PUSH1 0x4 DUP1 CALLDATASIZE SUB DUP2 ADD SWAP1 PUSH2 0x1DA SWAP2 SWAP1 PUSH2 0x23A5 JUMP JUMPDEST PUSH2 0x1642 JUMP JUMPDEST PUSH1 0x40 MLOAD PUSH2 0x1F0 SWAP6 SWAP5 SWAP4 SWAP3 SWAP2 SWAP1 PUSH2 0x26D7 JUMP JUMPDEST PUSH1 0x40 MLOAD DUP1 SWAP2 SUB SWAP1 RETURN JUMPDEST PUSH2 0x201 PUSH2 0x1B0D JUMP JUMPDEST STOP JUMPDEST PUSH1 0x0 DUP1 CALLER PUSH20 0xFFFFFFFFFFFFFFFFFFFFFFFFFFFFFFFFFFFFFFFF AND PUSH20 0xFFFFFFFFFFFFFFFFFFFFFFFFFFFFFFFFFFFFFFFF AND DUP2 MSTORE PUSH1 0x20 ADD SWAP1 DUP2 MSTORE PUSH1 0x20 ADD PUSH1 0x0 KECCAK256 PUSH1 0xE ADD PUSH1 0x0 DUP1 DUP3 ADD PUSH1 0x0 PUSH2 0x255 SWAP2 SWAP1 PUSH2 0x1CB4 JUMP JUMPDEST PUSH1 0x1 DUP3 ADD PUSH1 0x0 PUSH2 0x265 SWAP2 SWAP1 PUSH2 0x1CB4 JUMP JUMPDEST PUSH1 0x2 DUP3 ADD PUSH1 0x0 PUSH2 0x275 SWAP2 SWAP1 PUSH2 0x1CB4 JUMP JUMPDEST POP POP DUP3 PUSH1 0x0 DUP1 CALLER PUSH20 0xFFFFFFFFFFFFFFFFFFFFFFFFFFFFFFFFFFFFFFFF AND PUSH20 0xFFFFFFFFFFFFFFFFFFFFFFFFFFFFFFFFFFFFFFFF AND DUP2 MSTORE PUSH1 0x20 ADD SWAP1 DUP2 MSTORE PUSH1 0x20 ADD PUSH1 0x0 KECCAK256 PUSH1 0xE ADD PUSH1 0x0 ADD SWAP1 DUP1 MLOAD SWAP1 PUSH1 0x20 ADD SWAP1 PUSH2 0x2CF SWAP3 SWAP2 SWAP1 PUSH2 0x1CD5 JUMP JUMPDEST POP DUP2 PUSH1 0x0 DUP1 CALLER PUSH20 0xFFFFFFFFFFFFFFFFFFFFFFFFFFFFFFFFFFFFFFFF AND PUSH20 0xFFFFFFFFFFFFFFFFFFFFFFFFFFFFFFFFFFFFFFFF AND DUP2 MSTORE PUSH1 0x20 ADD SWAP1 DUP2 MSTORE PUSH1 0x20 ADD PUSH1 0x0 KECCAK256 PUSH1 0xE ADD PUSH1 0x1 ADD SWAP1 DUP1 MLOAD SWAP1 PUSH1 0x20 ADD SWAP1 PUSH2 0x328 SWAP3 SWAP2 SWAP1 PUSH2 0x1CD5 JUMP JUMPDEST POP DUP1 PUSH1 0x0 DUP1 CALLER PUSH20 0xFFFFFFFFFFFFFFFFFFFFFFFFFFFFFFFFFFFFFFFF AND PUSH20 0xFFFFFFFFFFFFFFFFFFFFFFFFFFFFFFFFFFFFFFFF AND DUP2 MSTORE PUSH1 0x20 ADD SWAP1 DUP2 MSTORE PUSH1 0x20 ADD PUSH1 0x0 KECCAK256 PUSH1 0xE ADD PUSH1 0x2 ADD SWAP1 DUP1 MLOAD SWAP1 PUSH1 0x20 ADD SWAP1 PUSH2 0x381 SWAP3 SWAP2 SWAP1 PUSH2 0x1CD5 JUMP JUMPDEST POP POP POP POP JUMP JUMPDEST PUSH1 0x0 DUP1 PUSH1 0x0 CALLER PUSH20 0xFFFFFFFFFFFFFFFFFFFFFFFFFFFFFFFFFFFFFFFF AND PUSH20 0xFFFFFFFFFFFFFFFFFFFFFFFFFFFFFFFFFFFFFFFF AND DUP2 MSTORE PUSH1 0x20 ADD SWAP1 DUP2 MSTORE PUSH1 0x20 ADD PUSH1 0x0 KECCAK256 PUSH1 0x11 ADD DUP1 SLOAD SWAP1 POP SWAP1 POP SWAP1 JUMP JUMPDEST PUSH2 0x3DB PUSH2 0x1D35 JUMP JUMPDEST DUP6 DUP2 PUSH1 0x0 ADD DUP2 SWAP1 MSTORE POP DUP5 DUP2 PUSH1 0x20 ADD DUP2 SWAP1 MSTORE POP DUP4 DUP2 PUSH1 0x40 ADD DUP2 SWAP1 MSTORE POP DUP3 DUP2 PUSH1 0x60 ADD DUP2 SWAP1 MSTORE POP DUP2 DUP2 PUSH1 0x80 ADD DUP2 SWAP1 MSTORE POP PUSH1 0x0 DUP1 CALLER PUSH20 0xFFFFFFFFFFFFFFFFFFFFFFFFFFFFFFFFFFFFFFFF AND PUSH20 0xFFFFFFFFFFFFFFFFFFFFFFFFFFFFFFFFFFFFFFFF AND DUP2 MSTORE PUSH1 0x20 ADD SWAP1 DUP2 MSTORE PUSH1 0x20 ADD PUSH1 0x0 KECCAK256 PUSH1 0x11 ADD DUP2 SWAP1 DUP1 PUSH1 0x1 DUP2 SLOAD ADD DUP1 DUP3 SSTORE DUP1 SWAP2 POP POP PUSH1 0x1 SWAP1 SUB SWAP1 PUSH1 0x0 MSTORE PUSH1 0x20 PUSH1 0x0 KECCAK256 SWAP1 PUSH1 0x5 MUL ADD PUSH1 0x0 SWAP1 SWAP2 SWAP1 SWAP2 SWAP1 SWAP2 POP PUSH1 0x0 DUP3 ADD MLOAD DUP2 PUSH1 0x0 ADD SWAP1 DUP1 MLOAD SWAP1 PUSH1 0x20 ADD SWAP1 PUSH2 0x48F SWAP3 SWAP2 SWAP1 PUSH2 0x1D64 JUMP JUMPDEST POP PUSH1 0x20 DUP3 ADD MLOAD DUP2 PUSH1 0x1 ADD SWAP1 DUP1 MLOAD SWAP1 PUSH1 0x20 ADD SWAP1 PUSH2 0x4AC SWAP3 SWAP2 SWAP1 PUSH2 0x1D64 JUMP JUMPDEST POP PUSH1 0x40 DUP3 ADD MLOAD DUP2 PUSH1 0x2 ADD SWAP1 DUP1 MLOAD SWAP1 PUSH1 0x20 ADD SWAP1 PUSH2 0x4C9 SWAP3 SWAP2 SWAP1 PUSH2 0x1D64 JUMP JUMPDEST POP PUSH1 0x60 DUP3 ADD MLOAD DUP2 PUSH1 0x3 ADD SWAP1 DUP1 MLOAD SWAP1 PUSH1 0x20 ADD SWAP1 PUSH2 0x4E6 SWAP3 SWAP2 SWAP1 PUSH2 0x1D64 JUMP JUMPDEST POP PUSH1 0x80 DUP3 ADD MLOAD DUP2 PUSH1 0x4 ADD SWAP1 DUP1 MLOAD SWAP1 PUSH1 0x20 ADD SWAP1 PUSH2 0x503 SWAP3 SWAP2 SWAP1 PUSH2 0x1D64 JUMP JUMPDEST POP POP POP POP POP POP POP POP POP JUMP JUMPDEST PUSH1 0x0 DUP1 CALLER PUSH20 0xFFFFFFFFFFFFFFFFFFFFFFFFFFFFFFFFFFFFFFFF AND PUSH20 0xFFFFFFFFFFFFFFFFFFFFFFFFFFFFFFFFFFFFFFFF AND DUP2 MSTORE PUSH1 0x20 ADD SWAP1 DUP2 MSTORE PUSH1 0x20 ADD PUSH1 0x0 KECCAK256 PUSH1 0x8 ADD PUSH1 0x0 DUP1 DUP3 ADD PUSH1 0x0 PUSH2 0x560 SWAP2 SWAP1 PUSH2 0x1DEA JUMP JUMPDEST PUSH1 0x1 DUP3 ADD PUSH1 0x0 PUSH2 0x570 SWAP2 SWAP1 PUSH2 0x1DEA JUMP JUMPDEST PUSH1 0x2 DUP3 ADD PUSH1 0x0 PUSH2 0x580 SWAP2 SWAP1 PUSH2 0x1DEA JUMP JUMPDEST PUSH1 0x3 DUP3 ADD PUSH1 0x0 PUSH2 0x590 SWAP2 SWAP1 PUSH2 0x1DEA JUMP JUMPDEST PUSH1 0x4 DUP3 ADD PUSH1 0x0 PUSH2 0x5A0 SWAP2 SWAP1 PUSH2 0x1DEA JUMP JUMPDEST PUSH1 0x5 DUP3 ADD PUSH1 0x0 PUSH2 0x5B0 SWAP2 SWAP1 PUSH2 0x1DEA JUMP JUMPDEST POP POP DUP5 PUSH1 0x0 DUP1 CALLER PUSH20 0xFFFFFFFFFFFFFFFFFFFFFFFFFFFFFFFFFFFFFFFF AND PUSH20 0xFFFFFFFFFFFFFFFFFFFFFFFFFFFFFFFFFFFFFFFF AND DUP2 MSTORE PUSH1 0x20 ADD SWAP1 DUP2 MSTORE PUSH1 0x20 ADD PUSH1 0x0 KECCAK256 PUSH1 0x8 ADD PUSH1 0x1 ADD SWAP1 DUP1 MLOAD SWAP1 PUSH1 0x20 ADD SWAP1 PUSH2 0x60A SWAP3 SWAP2 SWAP1 PUSH2 0x1D64 JUMP JUMPDEST POP DUP4 PUSH1 0x0 DUP1 CALLER PUSH20 0xFFFFFFFFFFFFFFFFFFFFFFFFFFFFFFFFFFFFFFFF AND PUSH20 0xFFFFFFFFFFFFFFFFFFFFFFFFFFFFFFFFFFFFFFFF AND DUP2 MSTORE PUSH1 0x20 ADD SWAP1 DUP2 MSTORE PUSH1 0x20 ADD PUSH1 0x0 KECCAK256 PUSH1 0x8 ADD PUSH1 0x2 ADD SWAP1 DUP1 MLOAD SWAP1 PUSH1 0x20 ADD SWAP1 PUSH2 0x663 SWAP3 SWAP2 SWAP1 PUSH2 0x1D64 JUMP JUMPDEST POP DUP3 PUSH1 0x0 DUP1 CALLER PUSH20 0xFFFFFFFFFFFFFFFFFFFFFFFFFFFFFFFFFFFFFFFF AND PUSH20 0xFFFFFFFFFFFFFFFFFFFFFFFFFFFFFFFFFFFFFFFF AND DUP2 MSTORE PUSH1 0x20 ADD SWAP1 DUP2 MSTORE PUSH1 0x20 ADD PUSH1 0x0 KECCAK256 PUSH1 0x8 ADD PUSH1 0x3 ADD SWAP1 DUP1 MLOAD SWAP1 PUSH1 0x20 ADD SWAP1 PUSH2 0x6BC SWAP3 SWAP2 SWAP1 PUSH2 0x1D64 JUMP JUMPDEST POP DUP2 PUSH1 0x0 DUP1 CALLER PUSH20 0xFFFFFFFFFFFFFFFFFFFFFFFFFFFFFFFFFFFFFFFF AND PUSH20 0xFFFFFFFFFFFFFFFFFFFFFFFFFFFFFFFFFFFFFFFF AND DUP2 MSTORE PUSH1 0x20 ADD SWAP1 DUP2 MSTORE PUSH1 0x20 ADD PUSH1 0x0 KECCAK256 PUSH1 0x8 ADD PUSH1 0x2 ADD SWAP1 DUP1 MLOAD SWAP1 PUSH1 0x20 ADD SWAP1 PUSH2 0x715 SWAP3 SWAP2 SWAP1 PUSH2 0x1D64 JUMP JUMPDEST POP DUP1 PUSH1 0x0 DUP1 CALLER PUSH20 0xFFFFFFFFFFFFFFFFFFFFFFFFFFFFFFFFFFFFFFFF AND PUSH20 0xFFFFFFFFFFFFFFFFFFFFFFFFFFFFFFFFFFFFFFFF AND DUP2 MSTORE PUSH1 0x20 ADD SWAP1 DUP2 MSTORE PUSH1 0x20 ADD PUSH1 0x0 KECCAK256 PUSH1 0x8 ADD PUSH1 0x1 ADD SWAP1 DUP1 MLOAD SWAP1 PUSH1 0x20 ADD SWAP1 PUSH2 0x76E SWAP3 SWAP2 SWAP1 PUSH2 0x1D64 JUMP JUMPDEST POP POP POP POP POP POP JUMP JUMPDEST DUP6 PUSH1 0x0 DUP1 CALLER PUSH20 0xFFFFFFFFFFFFFFFFFFFFFFFFFFFFFFFFFFFFFFFF AND PUSH20 0xFFFFFFFFFFFFFFFFFFFFFFFFFFFFFFFFFFFFFFFF AND DUP2 MSTORE PUSH1 0x20 ADD SWAP1 DUP2 MSTORE PUSH1 0x20 ADD PUSH1 0x0 KECCAK256 PUSH1 0x0 ADD PUSH1 0x3 ADD SWAP1 DUP1 MLOAD SWAP1 PUSH1 0x20 ADD SWAP1 PUSH2 0x7CE SWAP3 SWAP2 SWAP1 PUSH2 0x1D64 JUMP JUMPDEST POP DUP5 PUSH1 0x0 DUP1 CALLER PUSH20 0xFFFFFFFFFFFFFFFFFFFFFFFFFFFFFFFFFFFFFFFF AND PUSH20 0xFFFFFFFFFFFFFFFFFFFFFFFFFFFFFFFFFFFFFFFF AND DUP2 MSTORE PUSH1 0x20 ADD SWAP1 DUP2 MSTORE PUSH1 0x20 ADD PUSH1 0x0 KECCAK256 PUSH1 0x0 ADD PUSH1 0x4 ADD SWAP1 DUP1 MLOAD SWAP1 PUSH1 0x20 ADD SWAP1 PUSH2 0x827 SWAP3 SWAP2 SWAP1 PUSH2 0x1D64 JUMP JUMPDEST POP DUP4 PUSH1 0x0 DUP1 CALLER PUSH20 0xFFFFFFFFFFFFFFFFFFFFFFFFFFFFFFFFFFFFFFFF AND PUSH20 0xFFFFFFFFFFFFFFFFFFFFFFFFFFFFFFFFFFFFFFFF AND DUP2 MSTORE PUSH1 0x20 ADD SWAP1 DUP2 MSTORE PUSH1 0x20 ADD PUSH1 0x0 KECCAK256 PUSH1 0x0 ADD PUSH1 0x5 ADD SWAP1 DUP1 MLOAD SWAP1 PUSH1 0x20 ADD SWAP1 PUSH2 0x880 SWAP3 SWAP2 SWAP1 PUSH2 0x1D64 JUMP JUMPDEST POP DUP3 PUSH1 0x0 DUP1 CALLER PUSH20 0xFFFFFFFFFFFFFFFFFFFFFFFFFFFFFFFFFFFFFFFF AND PUSH20 0xFFFFFFFFFFFFFFFFFFFFFFFFFFFFFFFFFFFFFFFF AND DUP2 MSTORE PUSH1 0x20 ADD SWAP1 DUP2 MSTORE PUSH1 0x20 ADD PUSH1 0x0 KECCAK256 PUSH1 0x0 ADD PUSH1 0x6 ADD SWAP1 DUP1 MLOAD SWAP1 PUSH1 0x20 ADD SWAP1 PUSH2 0x8D9 SWAP3 SWAP2 SWAP1 PUSH2 0x1D64 JUMP JUMPDEST POP DUP2 PUSH1 0x0 DUP1 CALLER PUSH20 0xFFFFFFFFFFFFFFFFFFFFFFFFFFFFFFFFFFFFFFFF AND PUSH20 0xFFFFFFFFFFFFFFFFFFFFFFFFFFFFFFFFFFFFFFFF AND DUP2 MSTORE PUSH1 0x20 ADD SWAP1 DUP2 MSTORE PUSH1 0x20 ADD PUSH1 0x0 KECCAK256 PUSH1 0x0 ADD PUSH1 0x0 ADD SWAP1 DUP1 MLOAD SWAP1 PUSH1 0x20 ADD SWAP1 PUSH2 0x932 SWAP3 SWAP2 SWAP1 PUSH2 0x1D64 JUMP JUMPDEST POP DUP1 PUSH1 0x0 DUP1 CALLER PUSH20 0xFFFFFFFFFFFFFFFFFFFFFFFFFFFFFFFFFFFFFFFF AND PUSH20 0xFFFFFFFFFFFFFFFFFFFFFFFFFFFFFFFFFFFFFFFF AND DUP2 MSTORE PUSH1 0x20 ADD SWAP1 DUP2 MSTORE PUSH1 0x20 ADD PUSH1 0x0 KECCAK256 PUSH1 0x0 ADD PUSH1 0x1 ADD SWAP1 DUP1 MLOAD SWAP1 PUSH1 0x20 ADD SWAP1 PUSH2 0x98B SWAP3 SWAP2 SWAP1 PUSH2 0x1D64 JUMP JUMPDEST POP CALLER PUSH1 0x0 DUP1 CALLER PUSH20 0xFFFFFFFFFFFFFFFFFFFFFFFFFFFFFFFFFFFFFFFF AND PUSH20 0xFFFFFFFFFFFFFFFFFFFFFFFFFFFFFFFFFFFFFFFF AND DUP2 MSTORE PUSH1 0x20 ADD SWAP1 DUP2 MSTORE PUSH1 0x20 ADD PUSH1 0x0 KECCAK256 PUSH1 0x0 ADD PUSH1 0x2 ADD PUSH1 0x0 PUSH2 0x100 EXP DUP2 SLOAD DUP2 PUSH20 0xFFFFFFFFFFFFFFFFFFFFFFFFFFFFFFFFFFFFFFFF MUL NOT AND SWAP1 DUP4 PUSH20 0xFFFFFFFFFFFFFFFFFFFFFFFFFFFFFFFFFFFFFFFF AND MUL OR SWAP1 SSTORE POP TIMESTAMP PUSH1 0x0 DUP1 CALLER PUSH20 0xFFFFFFFFFFFFFFFFFFFFFFFFFFFFFFFFFFFFFFFF AND PUSH20 0xFFFFFFFFFFFFFFFFFFFFFFFFFFFFFFFFFFFFFFFF AND DUP2 MSTORE PUSH1 0x20 ADD SWAP1 DUP2 MSTORE PUSH1 0x20 ADD PUSH1 0x0 KECCAK256 PUSH1 0x0 ADD PUSH1 0x7 ADD DUP2 SWAP1 SSTORE POP POP POP POP POP POP POP JUMP JUMPDEST PUSH1 0x0 DUP1 CALLER PUSH20 0xFFFFFFFFFFFFFFFFFFFFFFFFFFFFFFFFFFFFFFFF AND PUSH20 0xFFFFFFFFFFFFFFFFFFFFFFFFFFFFFFFFFFFFFFFF AND DUP2 MSTORE PUSH1 0x20 ADD SWAP1 DUP2 MSTORE PUSH1 0x20 ADD PUSH1 0x0 KECCAK256 PUSH1 0x0 ADD PUSH1 0x0 DUP1 DUP3 ADD PUSH1 0x0 PUSH2 0xAB2 SWAP2 SWAP1 PUSH2 0x1DEA JUMP JUMPDEST PUSH1 0x1 DUP3 ADD PUSH1 0x0 PUSH2 0xAC2 SWAP2 SWAP1 PUSH2 0x1DEA JUMP JUMPDEST PUSH1 0x2 DUP3 ADD PUSH1 0x0 PUSH2 0x100 EXP DUP2 SLOAD SWAP1 PUSH20 0xFFFFFFFFFFFFFFFFFFFFFFFFFFFFFFFFFFFFFFFF MUL NOT AND SWAP1 SSTORE PUSH1 0x3 DUP3 ADD PUSH1 0x0 PUSH2 0xAF9 SWAP2 SWAP1 PUSH2 0x1DEA JUMP JUMPDEST PUSH1 0x4 DUP3 ADD PUSH1 0x0 PUSH2 0xB09 SWAP2 SWAP1 PUSH2 0x1DEA JUMP JUMPDEST PUSH1 0x5 DUP3 ADD PUSH1 0x0 PUSH2 0xB19 SWAP2 SWAP1 PUSH2 0x1DEA JUMP JUMPDEST PUSH1 0x6 DUP3 ADD PUSH1 0x0 PUSH2 0xB29 SWAP2 SWAP1 PUSH2 0x1DEA JUMP JUMPDEST PUSH1 0x7 DUP3 ADD PUSH1 0x0 SWAP1 SSTORE POP POP JUMP JUMPDEST DUP1 PUSH1 0x0 DUP1 CALLER PUSH20 0xFFFFFFFFFFFFFFFFFFFFFFFFFFFFFFFFFFFFFFFF AND PUSH20 0xFFFFFFFFFFFFFFFFFFFFFFFFFFFFFFFFFFFFFFFF AND DUP2 MSTORE PUSH1 0x20 ADD SWAP1 DUP2 MSTORE PUSH1 0x20 ADD PUSH1 0x0 KECCAK256 PUSH1 0x13 ADD SWAP1 DUP1 MLOAD SWAP1 PUSH1 0x20 ADD SWAP1 PUSH2 0xB8A SWAP3 SWAP2 SWAP1 PUSH2 0x1CD5 JUMP JUMPDEST POP POP JUMP JUMPDEST PUSH1 0x0 PUSH1 0x20 MSTORE DUP1 PUSH1 0x0 MSTORE PUSH1 0x40 PUSH1 0x0 KECCAK256 PUSH1 0x0 SWAP2 POP SWAP1 POP DUP1 PUSH1 0x0 ADD PUSH1 0x40 MLOAD DUP1 PUSH2 0x100 ADD PUSH1 0x40 MSTORE SWAP1 DUP2 PUSH1 0x0 DUP3 ADD DUP1 SLOAD PUSH2 0xBC2 SWAP1 PUSH2 0x291A JUMP JUMPDEST DUP1 PUSH1 0x1F ADD PUSH1 0x20 DUP1 SWAP2 DIV MUL PUSH1 0x20 ADD PUSH1 0x40 MLOAD SWAP1 DUP2 ADD PUSH1 0x40 MSTORE DUP1 SWAP3 SWAP2 SWAP1 DUP2 DUP2 MSTORE PUSH1 0x20 ADD DUP3 DUP1 SLOAD PUSH2 0xBEE SWAP1 PUSH2 0x291A JUMP JUMPDEST DUP1 ISZERO PUSH2 0xC3B JUMPI DUP1 PUSH1 0x1F LT PUSH2 0xC10 JUMPI PUSH2 0x100 DUP1 DUP4 SLOAD DIV MUL DUP4 MSTORE SWAP2 PUSH1 0x20 ADD SWAP2 PUSH2 0xC3B JUMP JUMPDEST DUP3 ADD SWAP2 SWAP1 PUSH1 0x0 MSTORE PUSH1 0x20 PUSH1 0x0 KECCAK256 SWAP1 JUMPDEST DUP2 SLOAD DUP2 MSTORE SWAP1 PUSH1 0x1 ADD SWAP1 PUSH1 0x20 ADD DUP1 DUP4 GT PUSH2 0xC1E JUMPI DUP3 SWAP1 SUB PUSH1 0x1F AND DUP3 ADD SWAP2 JUMPDEST POP POP POP POP POP DUP2 MSTORE PUSH1 0x20 ADD PUSH1 0x1 DUP3 ADD DUP1 SLOAD PUSH2 0xC54 SWAP1 PUSH2 0x291A JUMP JUMPDEST DUP1 PUSH1 0x1F ADD PUSH1 0x20 DUP1 SWAP2 DIV MUL PUSH1 0x20 ADD PUSH1 0x40 MLOAD SWAP1 DUP2 ADD PUSH1 0x40 MSTORE DUP1 SWAP3 SWAP2 SWAP1 DUP2 DUP2 MSTORE PUSH1 0x20 ADD DUP3 DUP1 SLOAD PUSH2 0xC80 SWAP1 PUSH2 0x291A JUMP JUMPDEST DUP1 ISZERO PUSH2 0xCCD JUMPI DUP1 PUSH1 0x1F LT PUSH2 0xCA2 JUMPI PUSH2 0x100 DUP1 DUP4 SLOAD DIV MUL DUP4 MSTORE SWAP2 PUSH1 0x20 ADD SWAP2 PUSH2 0xCCD JUMP JUMPDEST DUP3 ADD SWAP2 SWAP1 PUSH1 0x0 MSTORE PUSH1 0x20 PUSH1 0x0 KECCAK256 SWAP1 JUMPDEST DUP2 SLOAD DUP2 MSTORE SWAP1 PUSH1 0x1 ADD SWAP1 PUSH1 0x20 ADD DUP1 DUP4 GT PUSH2 0xCB0 JUMPI DUP3 SWAP1 SUB PUSH1 0x1F AND DUP3 ADD SWAP2 JUMPDEST POP POP POP POP POP DUP2 MSTORE PUSH1 0x20 ADD PUSH1 0x2 DUP3 ADD PUSH1 0x0 SWAP1 SLOAD SWAP1 PUSH2 0x100 EXP SWAP1 DIV PUSH20 0xFFFFFFFFFFFFFFFFFFFFFFFFFFFFFFFFFFFFFFFF AND PUSH20 0xFFFFFFFFFFFFFFFFFFFFFFFFFFFFFFFFFFFFFFFF AND PUSH20 0xFFFFFFFFFFFFFFFFFFFFFFFFFFFFFFFFFFFFFFFF AND DUP2 MSTORE PUSH1 0x20 ADD PUSH1 0x3 DUP3 ADD DUP1 SLOAD PUSH2 0xD3C SWAP1 PUSH2 0x291A JUMP JUMPDEST DUP1 PUSH1 0x1F ADD PUSH1 0x20 DUP1 SWAP2 DIV MUL PUSH1 0x20 ADD PUSH1 0x40 MLOAD SWAP1 DUP2 ADD PUSH1 0x40 MSTORE DUP1 SWAP3 SWAP2 SWAP1 DUP2 DUP2 MSTORE PUSH1 0x20 ADD DUP3 DUP1 SLOAD PUSH2 0xD68 SWAP1 PUSH2 0x291A JUMP JUMPDEST DUP1 ISZERO PUSH2 0xDB5 JUMPI DUP1 PUSH1 0x1F LT PUSH2 0xD8A JUMPI PUSH2 0x100 DUP1 DUP4 SLOAD DIV MUL DUP4 MSTORE SWAP2 PUSH1 0x20 ADD SWAP2 PUSH2 0xDB5 JUMP JUMPDEST DUP3 ADD SWAP2 SWAP1 PUSH1 0x0 MSTORE PUSH1 0x20 PUSH1 0x0 KECCAK256 SWAP1 JUMPDEST DUP2 SLOAD DUP2 MSTORE SWAP1 PUSH1 0x1 ADD SWAP1 PUSH1 0x20 ADD DUP1 DUP4 GT PUSH2 0xD98 JUMPI DUP3 SWAP1 SUB PUSH1 0x1F AND DUP3 ADD SWAP2 JUMPDEST POP POP POP POP POP DUP2 MSTORE PUSH1 0x20 ADD PUSH1 0x4 DUP3 ADD DUP1 SLOAD PUSH2 0xDCE SWAP1 PUSH2 0x291A JUMP JUMPDEST DUP1 PUSH1 0x1F ADD PUSH1 0x20 DUP1 SWAP2 DIV MUL PUSH1 0x20 ADD PUSH1 0x40 MLOAD SWAP1 DUP2 ADD PUSH1 0x40 MSTORE DUP1 SWAP3 SWAP2 SWAP1 DUP2 DUP2 MSTORE PUSH1 0x20 ADD DUP3 DUP1 SLOAD PUSH2 0xDFA SWAP1 PUSH2 0x291A JUMP JUMPDEST DUP1 ISZERO PUSH2 0xE47 JUMPI DUP1 PUSH1 0x1F LT PUSH2 0xE1C JUMPI PUSH2 0x100 DUP1 DUP4 SLOAD DIV MUL DUP4 MSTORE SWAP2 PUSH1 0x20 ADD SWAP2 PUSH2 0xE47 JUMP JUMPDEST DUP3 ADD SWAP2 SWAP1 PUSH1 0x0 MSTORE PUSH1 0x20 PUSH1 0x0 KECCAK256 SWAP1 JUMPDEST DUP2 SLOAD DUP2 MSTORE SWAP1 PUSH1 0x1 ADD SWAP1 PUSH1 0x20 ADD DUP1 DUP4 GT PUSH2 0xE2A JUMPI DUP3 SWAP1 SUB PUSH1 0x1F AND DUP3 ADD SWAP2 JUMPDEST POP POP POP POP POP DUP2 MSTORE PUSH1 0x20 ADD PUSH1 0x5 DUP3 ADD DUP1 SLOAD PUSH2 0xE60 SWAP1 PUSH2 0x291A JUMP JUMPDEST DUP1 PUSH1 0x1F ADD PUSH1 0x20 DUP1 SWAP2 DIV MUL PUSH1 0x20 ADD PUSH1 0x40 MLOAD SWAP1 DUP2 ADD PUSH1 0x40 MSTORE DUP1 SWAP3 SWAP2 SWAP1 DUP2 DUP2 MSTORE PUSH1 0x20 ADD DUP3 DUP1 SLOAD PUSH2 0xE8C SWAP1 PUSH2 0x291A JUMP JUMPDEST DUP1 ISZERO PUSH2 0xED9 JUMPI DUP1 PUSH1 0x1F LT PUSH2 0xEAE JUMPI PUSH2 0x100 DUP1 DUP4 SLOAD DIV MUL DUP4 MSTORE SWAP2 PUSH1 0x20 ADD SWAP2 PUSH2 0xED9 JUMP JUMPDEST DUP3 ADD SWAP2 SWAP1 PUSH1 0x0 MSTORE PUSH1 0x20 PUSH1 0x0 KECCAK256 SWAP1 JUMPDEST DUP2 SLOAD DUP2 MSTORE SWAP1 PUSH1 0x1 ADD SWAP1 PUSH1 0x20 ADD DUP1 DUP4 GT PUSH2 0xEBC JUMPI DUP3 SWAP1 SUB PUSH1 0x1F AND DUP3 ADD SWAP2 JUMPDEST POP POP POP POP POP DUP2 MSTORE PUSH1 0x20 ADD PUSH1 0x6 DUP3 ADD DUP1 SLOAD PUSH2 0xEF2 SWAP1 PUSH2 0x291A JUMP JUMPDEST DUP1 PUSH1 0x1F ADD PUSH1 0x20 DUP1 SWAP2 DIV MUL PUSH1 0x20 ADD PUSH1 0x40 MLOAD SWAP1 DUP2 ADD PUSH1 0x40 MSTORE DUP1 SWAP3 SWAP2 SWAP1 DUP2 DUP2 MSTORE PUSH1 0x20 ADD DUP3 DUP1 SLOAD PUSH2 0xF1E SWAP1 PUSH2 0x291A JUMP JUMPDEST DUP1 ISZERO PUSH2 0xF6B JUMPI DUP1 PUSH1 0x1F LT PUSH2 0xF40 JUMPI PUSH2 0x100 DUP1 DUP4 SLOAD DIV MUL DUP4 MSTORE SWAP2 PUSH1 0x20 ADD SWAP2 PUSH2 0xF6B JUMP JUMPDEST DUP3 ADD SWAP2 SWAP1 PUSH1 0x0 MSTORE PUSH1 0x20 PUSH1 0x0 KECCAK256 SWAP1 JUMPDEST DUP2 SLOAD DUP2 MSTORE SWAP1 PUSH1 0x1 ADD SWAP1 PUSH1 0x20 ADD DUP1 DUP4 GT PUSH2 0xF4E JUMPI DUP3 SWAP1 SUB PUSH1 0x1F AND DUP3 ADD SWAP2 JUMPDEST POP POP POP POP POP DUP2 MSTORE PUSH1 0x20 ADD PUSH1 0x7 DUP3 ADD SLOAD DUP2 MSTORE POP POP SWAP1 DUP1 PUSH1 0x8 ADD PUSH1 0x40 MLOAD DUP1 PUSH1 0xC0 ADD PUSH1 0x40 MSTORE SWAP1 DUP2 PUSH1 0x0 DUP3 ADD DUP1 SLOAD PUSH2 0xF9E SWAP1 PUSH2 0x291A JUMP JUMPDEST DUP1 PUSH1 0x1F ADD PUSH1 0x20 DUP1 SWAP2 DIV MUL PUSH1 0x20 ADD PUSH1 0x40 MLOAD SWAP1 DUP2 ADD PUSH1 0x40 MSTORE DUP1 SWAP3 SWAP2 SWAP1 DUP2 DUP2 MSTORE PUSH1 0x20 ADD DUP3 DUP1 SLOAD PUSH2 0xFCA SWAP1 PUSH2 0x291A JUMP JUMPDEST DUP1 ISZERO PUSH2 0x1017 JUMPI DUP1 PUSH1 0x1F LT PUSH2 0xFEC JUMPI PUSH2 0x100 DUP1 DUP4 SLOAD DIV MUL DUP4 MSTORE SWAP2 PUSH1 0x20 ADD SWAP2 PUSH2 0x1017 JUMP JUMPDEST DUP3 ADD SWAP2 SWAP1 PUSH1 0x0 MSTORE PUSH1 0x20 PUSH1 0x0 KECCAK256 SWAP1 JUMPDEST DUP2 SLOAD DUP2 MSTORE SWAP1 PUSH1 0x1 ADD SWAP1 PUSH1 0x20 ADD DUP1 DUP4 GT PUSH2 0xFFA JUMPI DUP3 SWAP1 SUB PUSH1 0x1F AND DUP3 ADD SWAP2 JUMPDEST POP POP POP POP POP DUP2 MSTORE PUSH1 0x20 ADD PUSH1 0x1 DUP3 ADD DUP1 SLOAD PUSH2 0x1030 SWAP1 PUSH2 0x291A JUMP JUMPDEST DUP1 PUSH1 0x1F ADD PUSH1 0x20 DUP1 SWAP2 DIV MUL PUSH1 0x20 ADD PUSH1 0x40 MLOAD SWAP1 DUP2 ADD PUSH1 0x40 MSTORE DUP1 SWAP3 SWAP2 SWAP1 DUP2 DUP2 MSTORE PUSH1 0x20 ADD DUP3 DUP1 SLOAD PUSH2 0x105C SWAP1 PUSH2 0x291A JUMP JUMPDEST DUP1 ISZERO PUSH2 0x10A9 JUMPI DUP1 PUSH1 0x1F LT PUSH2 0x107E JUMPI PUSH2 0x100 DUP1 DUP4 SLOAD DIV MUL DUP4 MSTORE SWAP2 PUSH1 0x20 ADD SWAP2 PUSH2 0x10A9 JUMP JUMPDEST DUP3 ADD SWAP2 SWAP1 PUSH1 0x0 MSTORE PUSH1 0x20 PUSH1 0x0 KECCAK256 SWAP1 JUMPDEST DUP2 SLOAD DUP2 MSTORE SWAP1 PUSH1 0x1 ADD SWAP1 PUSH1 0x20 ADD DUP1 DUP4 GT PUSH2 0x108C JUMPI DUP3 SWAP1 SUB PUSH1 0x1F AND DUP3 ADD SWAP2 JUMPDEST POP POP POP POP POP DUP2 MSTORE PUSH1 0x20 ADD PUSH1 0x2 DUP3 ADD DUP1 SLOAD PUSH2 0x10C2 SWAP1 PUSH2 0x291A JUMP JUMPDEST DUP1 PUSH1 0x1F ADD PUSH1 0x20 DUP1 SWAP2 DIV MUL PUSH1 0x20 ADD PUSH1 0x40 MLOAD SWAP1 DUP2 ADD PUSH1 0x40 MSTORE DUP1 SWAP3 SWAP2 SWAP1 DUP2 DUP2 MSTORE PUSH1 0x20 ADD DUP3 DUP1 SLOAD PUSH2 0x10EE SWAP1 PUSH2 0x291A JUMP JUMPDEST DUP1 ISZERO PUSH2 0x113B JUMPI DUP1 PUSH1 0x1F LT PUSH2 0x1110 JUMPI PUSH2 0x100 DUP1 DUP4 SLOAD DIV MUL DUP4 MSTORE SWAP2 PUSH1 0x20 ADD SWAP2 PUSH2 0x113B JUMP JUMPDEST DUP3 ADD SWAP2 SWAP1 PUSH1 0x0 MSTORE PUSH1 0x20 PUSH1 0x0 KECCAK256 SWAP1 JUMPDEST DUP2 SLOAD DUP2 MSTORE SWAP1 PUSH1 0x1 ADD SWAP1 PUSH1 0x20 ADD DUP1 DUP4 GT PUSH2 0x111E JUMPI DUP3 SWAP1 SUB PUSH1 0x1F AND DUP3 ADD SWAP2 JUMPDEST POP POP POP POP POP DUP2 MSTORE PUSH1 0x20 ADD PUSH1 0x3 DUP3 ADD DUP1 SLOAD PUSH2 0x1154 SWAP1 PUSH2 0x291A JUMP JUMPDEST DUP1 PUSH1 0x1F ADD PUSH1 0x20 DUP1 SWAP2 DIV MUL PUSH1 0x20 ADD PUSH1 0x40 MLOAD SWAP1 DUP2 ADD PUSH1 0x40 MSTORE DUP1 SWAP3 SWAP2 SWAP1 DUP2 DUP2 MSTORE PUSH1 0x20 ADD DUP3 DUP1 SLOAD PUSH2 0x1180 SWAP1 PUSH2 0x291A JUMP JUMPDEST DUP1 ISZERO PUSH2 0x11CD JUMPI DUP1 PUSH1 0x1F LT PUSH2 0x11A2 JUMPI PUSH2 0x100 DUP1 DUP4 SLOAD DIV MUL DUP4 MSTORE SWAP2 PUSH1 0x20 ADD SWAP2 PUSH2 0x11CD JUMP JUMPDEST DUP3 ADD SWAP2 SWAP1 PUSH1 0x0 MSTORE PUSH1 0x20 PUSH1 0x0 KECCAK256 SWAP1 JUMPDEST DUP2 SLOAD DUP2 MSTORE SWAP1 PUSH1 0x1 ADD SWAP1 PUSH1 0x20 ADD DUP1 DUP4 GT PUSH2 0x11B0 JUMPI DUP3 SWAP1 SUB PUSH1 0x1F AND DUP3 ADD SWAP2 JUMPDEST POP POP POP POP POP DUP2 MSTORE PUSH1 0x20 ADD PUSH1 0x4 DUP3 ADD DUP1 SLOAD PUSH2 0x11E6 SWAP1 PUSH2 0x291A JUMP JUMPDEST DUP1 PUSH1 0x1F ADD PUSH1 0x20 DUP1 SWAP2 DIV MUL PUSH1 0x20 ADD PUSH1 0x40 MLOAD SWAP1 DUP2 ADD PUSH1 0x40 MSTORE DUP1 SWAP3 SWAP2 SWAP1 DUP2 DUP2 MSTORE PUSH1 0x20 ADD DUP3 DUP1 SLOAD PUSH2 0x1212 SWAP1 PUSH2 0x291A JUMP JUMPDEST DUP1 ISZERO PUSH2 0x125F JUMPI DUP1 PUSH1 0x1F LT PUSH2 0x1234 JUMPI PUSH2 0x100 DUP1 DUP4 SLOAD DIV MUL DUP4 MSTORE SWAP2 PUSH1 0x20 ADD SWAP2 PUSH2 0x125F JUMP JUMPDEST DUP3 ADD SWAP2 SWAP1 PUSH1 0x0 MSTORE PUSH1 0x20 PUSH1 0x0 KECCAK256 SWAP1 JUMPDEST DUP2 SLOAD DUP2 MSTORE SWAP1 PUSH1 0x1 ADD SWAP1 PUSH1 0x20 ADD DUP1 DUP4 GT PUSH2 0x1242 JUMPI DUP3 SWAP1 SUB PUSH1 0x1F AND DUP3 ADD SWAP2 JUMPDEST POP POP POP POP POP DUP2 MSTORE PUSH1 0x20 ADD PUSH1 0x5 DUP3 ADD DUP1 SLOAD PUSH2 0x1278 SWAP1 PUSH2 0x291A JUMP JUMPDEST DUP1 PUSH1 0x1F ADD PUSH1 0x20 DUP1 SWAP2 DIV MUL PUSH1 0x20 ADD PUSH1 0x40 MLOAD SWAP1 DUP2 ADD PUSH1 0x40 MSTORE DUP1 SWAP3 SWAP2 SWAP1 DUP2 DUP2 MSTORE PUSH1 0x20 ADD DUP3 DUP1 SLOAD PUSH2 0x12A4 SWAP1 PUSH2 0x291A JUMP JUMPDEST DUP1 ISZERO PUSH2 0x12F1 JUMPI DUP1 PUSH1 0x1F LT PUSH2 0x12C6 JUMPI PUSH2 0x100 DUP1 DUP4 SLOAD DIV MUL DUP4 MSTORE SWAP2 PUSH1 0x20 ADD SWAP2 PUSH2 0x12F1 JUMP JUMPDEST DUP3 ADD SWAP2 SWAP1 PUSH1 0x0 MSTORE PUSH1 0x20 PUSH1 0x0 KECCAK256 SWAP1 JUMPDEST DUP2 SLOAD DUP2 MSTORE SWAP1 PUSH1 0x1 ADD SWAP1 PUSH1 0x20 ADD DUP1 DUP4 GT PUSH2 0x12D4 JUMPI DUP3 SWAP1 SUB PUSH1 0x1F AND DUP3 ADD SWAP2 JUMPDEST POP POP POP POP POP DUP2 MSTORE POP POP SWAP1 DUP1 PUSH1 0xE ADD PUSH1 0x40 MLOAD DUP1 PUSH1 0x60 ADD PUSH1 0x40 MSTORE SWAP1 DUP2 PUSH1 0x0 DUP3 ADD DUP1 SLOAD DUP1 PUSH1 0x20 MUL PUSH1 0x20 ADD PUSH1 0x40 MLOAD SWAP1 DUP2 ADD PUSH1 0x40 MSTORE DUP1 SWAP3 SWAP2 SWAP1 DUP2 DUP2 MSTORE PUSH1 0x20 ADD PUSH1 0x0 SWAP1 JUMPDEST DUP3 DUP3 LT ISZERO PUSH2 0x13DB JUMPI DUP4 DUP3 SWAP1 PUSH1 0x0 MSTORE PUSH1 0x20 PUSH1 0x0 KECCAK256 ADD DUP1 SLOAD PUSH2 0x134E SWAP1 PUSH2 0x291A JUMP JUMPDEST DUP1 PUSH1 0x1F ADD PUSH1 0x20 DUP1 SWAP2 DIV MUL PUSH1 0x20 ADD PUSH1 0x40 MLOAD SWAP1 DUP2 ADD PUSH1 0x40 MSTORE DUP1 SWAP3 SWAP2 SWAP1 DUP2 DUP2 MSTORE PUSH1 0x20 ADD DUP3 DUP1 SLOAD PUSH2 0x137A SWAP1 PUSH2 0x291A JUMP JUMPDEST DUP1 ISZERO PUSH2 0x13C7 JUMPI DUP1 PUSH1 0x1F LT PUSH2 0x139C JUMPI PUSH2 0x100 DUP1 DUP4 SLOAD DIV MUL DUP4 MSTORE SWAP2 PUSH1 0x20 ADD SWAP2 PUSH2 0x13C7 JUMP JUMPDEST DUP3 ADD SWAP2 SWAP1 PUSH1 0x0 MSTORE PUSH1 0x20 PUSH1 0x0 KECCAK256 SWAP1 JUMPDEST DUP2 SLOAD DUP2 MSTORE SWAP1 PUSH1 0x1 ADD SWAP1 PUSH1 0x20 ADD DUP1 DUP4 GT PUSH2 0x13AA JUMPI DUP3 SWAP1 SUB PUSH1 0x1F AND DUP3 ADD SWAP2 JUMPDEST POP POP POP POP POP DUP2 MSTORE PUSH1 0x20 ADD SWAP1 PUSH1 0x1 ADD SWAP1 PUSH2 0x132F JUMP JUMPDEST POP POP POP POP DUP2 MSTORE PUSH1 0x20 ADD PUSH1 0x1 DUP3 ADD DUP1 SLOAD DUP1 PUSH1 0x20 MUL PUSH1 0x20 ADD PUSH1 0x40 MLOAD SWAP1 DUP2 ADD PUSH1 0x40 MSTORE DUP1 SWAP3 SWAP2 SWAP1 DUP2 DUP2 MSTORE PUSH1 0x20 ADD PUSH1 0x0 SWAP1 JUMPDEST DUP3 DUP3 LT ISZERO PUSH2 0x14B4 JUMPI DUP4 DUP3 SWAP1 PUSH1 0x0 MSTORE PUSH1 0x20 PUSH1 0x0 KECCAK256 ADD DUP1 SLOAD PUSH2 0x1427 SWAP1 PUSH2 0x291A JUMP JUMPDEST DUP1 PUSH1 0x1F ADD PUSH1 0x20 DUP1 SWAP2 DIV MUL PUSH1 0x20 ADD PUSH1 0x40 MLOAD SWAP1 DUP2 ADD PUSH1 0x40 MSTORE DUP1 SWAP3 SWAP2 SWAP1 DUP2 DUP2 MSTORE PUSH1 0x20 ADD DUP3 DUP1 SLOAD PUSH2 0x1453 SWAP1 PUSH2 0x291A JUMP JUMPDEST DUP1 ISZERO PUSH2 0x14A0 JUMPI DUP1 PUSH1 0x1F LT PUSH2 0x1475 JUMPI PUSH2 0x100 DUP1 DUP4 SLOAD DIV MUL DUP4 MSTORE SWAP2 PUSH1 0x20 ADD SWAP2 PUSH2 0x14A0 JUMP JUMPDEST DUP3 ADD SWAP2 SWAP1 PUSH1 0x0 MSTORE PUSH1 0x20 PUSH1 0x0 KECCAK256 SWAP1 JUMPDEST DUP2 SLOAD DUP2 MSTORE SWAP1 PUSH1 0x1 ADD SWAP1 PUSH1 0x20 ADD DUP1 DUP4 GT PUSH2 0x1483 JUMPI DUP3 SWAP1 SUB PUSH1 0x1F AND DUP3 ADD SWAP2 JUMPDEST POP POP POP POP POP DUP2 MSTORE PUSH1 0x20 ADD SWAP1 PUSH1 0x1 ADD SWAP1 PUSH2 0x1408 JUMP JUMPDEST POP POP POP POP DUP2 MSTORE PUSH1 0x20 ADD PUSH1 0x2 DUP3 ADD DUP1 SLOAD DUP1 PUSH1 0x20 MUL PUSH1 0x20 ADD PUSH1 0x40 MLOAD SWAP1 DUP2 ADD PUSH1 0x40 MSTORE DUP1 SWAP3 SWAP2 SWAP1 DUP2 DUP2 MSTORE PUSH1 0x20 ADD PUSH1 0x0 SWAP1 JUMPDEST DUP3 DUP3 LT ISZERO PUSH2 0x158D JUMPI DUP4 DUP3 SWAP1 PUSH1 0x0 MSTORE PUSH1 0x20 PUSH1 0x0 KECCAK256 ADD DUP1 SLOAD PUSH2 0x1500 SWAP1 PUSH2 0x291A JUMP JUMPDEST DUP1 PUSH1 0x1F ADD PUSH1 0x20 DUP1 SWAP2 DIV MUL PUSH1 0x20 ADD PUSH1 0x40 MLOAD SWAP1 DUP2 ADD PUSH1 0x40 MSTORE DUP1 SWAP3 SWAP2 SWAP1 DUP2 DUP2 MSTORE PUSH1 0x20 ADD DUP3 DUP1 SLOAD PUSH2 0x152C SWAP1 PUSH2 0x291A JUMP JUMPDEST DUP1 ISZERO PUSH2 0x1579 JUMPI DUP1 PUSH1 0x1F LT PUSH2 0x154E JUMPI PUSH2 0x100 DUP1 DUP4 SLOAD DIV MUL DUP4 MSTORE SWAP2 PUSH1 0x20 ADD SWAP2 PUSH2 0x1579 JUMP JUMPDEST DUP3 ADD SWAP2 SWAP1 PUSH1 0x0 MSTORE PUSH1 0x20 PUSH1 0x0 KECCAK256 SWAP1 JUMPDEST DUP2 SLOAD DUP2 MSTORE SWAP1 PUSH1 0x1 ADD SWAP1 PUSH1 0x20 ADD DUP1 DUP4 GT PUSH2 0x155C JUMPI DUP3 SWAP1 SUB PUSH1 0x1F AND DUP3 ADD SWAP2 JUMPDEST POP POP POP POP POP DUP2 MSTORE PUSH1 0x20 ADD SWAP1 PUSH1 0x1 ADD SWAP1 PUSH2 0x14E1 JUMP JUMPDEST POP POP POP POP DUP2 MSTORE POP POP SWAP1 POP DUP4 JUMP JUMPDEST DUP1 PUSH1 0x0 DUP1 CALLER PUSH20 0xFFFFFFFFFFFFFFFFFFFFFFFFFFFFFFFFFFFFFFFF AND PUSH20 0xFFFFFFFFFFFFFFFFFFFFFFFFFFFFFFFFFFFFFFFF AND DUP2 MSTORE PUSH1 0x20 ADD SWAP1 DUP2 MSTORE PUSH1 0x20 ADD PUSH1 0x0 KECCAK256 PUSH1 0x12 ADD SWAP1 DUP1 MLOAD SWAP1 PUSH1 0x20 ADD SWAP1 PUSH2 0x15EF SWAP3 SWAP2 SWAP1 PUSH2 0x1CD5 JUMP JUMPDEST POP POP JUMP JUMPDEST PUSH1 0x0 DUP1 CALLER PUSH20 0xFFFFFFFFFFFFFFFFFFFFFFFFFFFFFFFFFFFFFFFF AND PUSH20 0xFFFFFFFFFFFFFFFFFFFFFFFFFFFFFFFFFFFFFFFF AND DUP2 MSTORE PUSH1 0x20 ADD SWAP1 DUP2 MSTORE PUSH1 0x20 ADD PUSH1 0x0 KECCAK256 PUSH1 0x11 ADD PUSH1 0x0 PUSH2 0x1640 SWAP2 SWAP1 PUSH2 0x1E2A JUMP JUMPDEST JUMP JUMPDEST PUSH1 0x60 DUP1 PUSH1 0x60 DUP1 PUSH1 0x60 PUSH1 0x0 DUP1 CALLER PUSH20 0xFFFFFFFFFFFFFFFFFFFFFFFFFFFFFFFFFFFFFFFF AND PUSH20 0xFFFFFFFFFFFFFFFFFFFFFFFFFFFFFFFFFFFFFFFF AND DUP2 MSTORE PUSH1 0x20 ADD SWAP1 DUP2 MSTORE PUSH1 0x20 ADD PUSH1 0x0 KECCAK256 PUSH1 0x11 ADD DUP7 DUP2 SLOAD DUP2 LT PUSH2 0x169D JUMPI PUSH2 0x169C PUSH2 0x29AC JUMP JUMPDEST JUMPDEST SWAP1 PUSH1 0x0 MSTORE PUSH1 0x20 PUSH1 0x0 KECCAK256 SWAP1 PUSH1 0x5 MUL ADD PUSH1 0x0 ADD PUSH1 0x0 DUP1 CALLER PUSH20 0xFFFFFFFFFFFFFFFFFFFFFFFFFFFFFFFFFFFFFFFF AND PUSH20 0xFFFFFFFFFFFFFFFFFFFFFFFFFFFFFFFFFFFFFFFF AND DUP2 MSTORE PUSH1 0x20 ADD SWAP1 DUP2 MSTORE PUSH1 0x20 ADD PUSH1 0x0 KECCAK256 PUSH1 0x11 ADD DUP8 DUP2 SLOAD DUP2 LT PUSH2 0x1701 JUMPI PUSH2 0x1700 PUSH2 0x29AC JUMP JUMPDEST JUMPDEST SWAP1 PUSH1 0x0 MSTORE PUSH1 0x20 PUSH1 0x0 KECCAK256 SWAP1 PUSH1 0x5 MUL ADD PUSH1 0x1 ADD PUSH1 0x0 DUP1 CALLER PUSH20 0xFFFFFFFFFFFFFFFFFFFFFFFFFFFFFFFFFFFFFFFF AND PUSH20 0xFFFFFFFFFFFFFFFFFFFFFFFFFFFFFFFFFFFFFFFF AND DUP2 MSTORE PUSH1 0x20 ADD SWAP1 DUP2 MSTORE PUSH1 0x20 ADD PUSH1 0x0 KECCAK256 PUSH1 0x11 ADD DUP9 DUP2 SLOAD DUP2 LT PUSH2 0x1765 JUMPI PUSH2 0x1764 PUSH2 0x29AC JUMP JUMPDEST JUMPDEST SWAP1 PUSH1 0x0 MSTORE PUSH1 0x20 PUSH1 0x0 KECCAK256 SWAP1 PUSH1 0x5 MUL ADD PUSH1 0x2 ADD PUSH1 0x0 DUP1 CALLER PUSH20 0xFFFFFFFFFFFFFFFFFFFFFFFFFFFFFFFFFFFFFFFF AND PUSH20 0xFFFFFFFFFFFFFFFFFFFFFFFFFFFFFFFFFFFFFFFF AND DUP2 MSTORE PUSH1 0x20 ADD SWAP1 DUP2 MSTORE PUSH1 0x20 ADD PUSH1 0x0 KECCAK256 PUSH1 0x11 ADD DUP10 DUP2 SLOAD DUP2 LT PUSH2 0x17C9 JUMPI PUSH2 0x17C8 PUSH2 0x29AC JUMP JUMPDEST JUMPDEST SWAP1 PUSH1 0x0 MSTORE PUSH1 0x20 PUSH1 0x0 KECCAK256 SWAP1 PUSH1 0x5 MUL ADD PUSH1 0x3 ADD PUSH1 0x0 DUP1 CALLER PUSH20 0xFFFFFFFFFFFFFFFFFFFFFFFFFFFFFFFFFFFFFFFF AND PUSH20 0xFFFFFFFFFFFFFFFFFFFFFFFFFFFFFFFFFFFFFFFF AND DUP2 MSTORE PUSH1 0x20 ADD SWAP1 DUP2 MSTORE PUSH1 0x20 ADD PUSH1 0x0 KECCAK256 PUSH1 0x11 ADD DUP11 DUP2 SLOAD DUP2 LT PUSH2 0x182D JUMPI PUSH2 0x182C PUSH2 0x29AC JUMP JUMPDEST JUMPDEST SWAP1 PUSH1 0x0 MSTORE PUSH1 0x20 PUSH1 0x0 KECCAK256 SWAP1 PUSH1 0x5 MUL ADD PUSH1 0x4 ADD DUP5 DUP1 SLOAD PUSH2 0x184A SWAP1 PUSH2 0x291A JUMP JUMPDEST DUP1 PUSH1 0x1F ADD PUSH1 0x20 DUP1 SWAP2 DIV MUL PUSH1 0x20 ADD PUSH1 0x40 MLOAD SWAP1 DUP2 ADD PUSH1 0x40 MSTORE DUP1 SWAP3 SWAP2 SWAP1 DUP2 DUP2 MSTORE PUSH1 0x20 ADD DUP3 DUP1 SLOAD PUSH2 0x1876 SWAP1 PUSH2 0x291A JUMP JUMPDEST DUP1 ISZERO PUSH2 0x18C3 JUMPI DUP1 PUSH1 0x1F LT PUSH2 0x1898 JUMPI PUSH2 0x100 DUP1 DUP4 SLOAD DIV MUL DUP4 MSTORE SWAP2 PUSH1 0x20 ADD SWAP2 PUSH2 0x18C3 JUMP JUMPDEST DUP3 ADD SWAP2 SWAP1 PUSH1 0x0 MSTORE PUSH1 0x20 PUSH1 0x0 KECCAK256 SWAP1 JUMPDEST DUP2 SLOAD DUP2 MSTORE SWAP1 PUSH1 0x1 ADD SWAP1 PUSH1 0x20 ADD DUP1 DUP4 GT PUSH2 0x18A6 JUMPI DUP3 SWAP1 SUB PUSH1 0x1F AND DUP3 ADD SWAP2 JUMPDEST POP POP POP POP POP SWAP5 POP DUP4 DUP1 SLOAD PUSH2 0x18D6 SWAP1 PUSH2 0x291A JUMP JUMPDEST DUP1 PUSH1 0x1F ADD PUSH1 0x20 DUP1 SWAP2 DIV MUL PUSH1 0x20 ADD PUSH1 0x40 MLOAD SWAP1 DUP2 ADD PUSH1 0x40 MSTORE DUP1 SWAP3 SWAP2 SWAP1 DUP2 DUP2 MSTORE PUSH1 0x20 ADD DUP3 DUP1 SLOAD PUSH2 0x1902 SWAP1 PUSH2 0x291A JUMP JUMPDEST DUP1 ISZERO PUSH2 0x194F JUMPI DUP1 PUSH1 0x1F LT PUSH2 0x1924 JUMPI PUSH2 0x100 DUP1 DUP4 SLOAD DIV MUL DUP4 MSTORE SWAP2 PUSH1 0x20 ADD SWAP2 PUSH2 0x194F JUMP JUMPDEST DUP3 ADD SWAP2 SWAP1 PUSH1 0x0 MSTORE PUSH1 0x20 PUSH1 0x0 KECCAK256 SWAP1 JUMPDEST DUP2 SLOAD DUP2 MSTORE SWAP1 PUSH1 0x1 ADD SWAP1 PUSH1 0x20 ADD DUP1 DUP4 GT PUSH2 0x1932 JUMPI DUP3 SWAP1 SUB PUSH1 0x1F AND DUP3 ADD SWAP2 JUMPDEST POP POP POP POP POP SWAP4 POP DUP3 DUP1 SLOAD PUSH2 0x1962 SWAP1 PUSH2 0x291A JUMP JUMPDEST DUP1 PUSH1 0x1F ADD PUSH1 0x20 DUP1 SWAP2 DIV MUL PUSH1 0x20 ADD PUSH1 0x40 MLOAD SWAP1 DUP2 ADD PUSH1 0x40 MSTORE DUP1 SWAP3 SWAP2 SWAP1 DUP2 DUP2 MSTORE PUSH1 0x20 ADD DUP3 DUP1 SLOAD PUSH2 0x198E SWAP1 PUSH2 0x291A JUMP JUMPDEST DUP1 ISZERO PUSH2 0x19DB JUMPI DUP1 PUSH1 0x1F LT PUSH2 0x19B0 JUMPI PUSH2 0x100 DUP1 DUP4 SLOAD DIV MUL DUP4 MSTORE SWAP2 PUSH1 0x20 ADD SWAP2 PUSH2 0x19DB JUMP JUMPDEST DUP3 ADD SWAP2 SWAP1 PUSH1 0x0 MSTORE PUSH1 0x20 PUSH1 0x0 KECCAK256 SWAP1 JUMPDEST DUP2 SLOAD DUP2 MSTORE SWAP1 PUSH1 0x1 ADD SWAP1 PUSH1 0x20 ADD DUP1 DUP4 GT PUSH2 0x19BE JUMPI DUP3 SWAP1 SUB PUSH1 0x1F AND DUP3 ADD SWAP2 JUMPDEST POP POP POP POP POP SWAP3 POP DUP2 DUP1 SLOAD PUSH2 0x19EE SWAP1 PUSH2 0x291A JUMP JUMPDEST DUP1 PUSH1 0x1F ADD PUSH1 0x20 DUP1 SWAP2 DIV MUL PUSH1 0x20 ADD PUSH1 0x40 MLOAD SWAP1 DUP2 ADD PUSH1 0x40 MSTORE DUP1 SWAP3 SWAP2 SWAP1 DUP2 DUP2 MSTORE PUSH1 0x20 ADD DUP3 DUP1 SLOAD PUSH2 0x1A1A SWAP1 PUSH2 0x291A JUMP JUMPDEST DUP1 ISZERO PUSH2 0x1A67 JUMPI DUP1 PUSH1 0x1F LT PUSH2 0x1A3C JUMPI PUSH2 0x100 DUP1 DUP4 SLOAD DIV MUL DUP4 MSTORE SWAP2 PUSH1 0x20 ADD SWAP2 PUSH2 0x1A67 JUMP JUMPDEST DUP3 ADD SWAP2 SWAP1 PUSH1 0x0 MSTORE PUSH1 0x20 PUSH1 0x0 KECCAK256 SWAP1 JUMPDEST DUP2 SLOAD DUP2 MSTORE SWAP1 PUSH1 0x1 ADD SWAP1 PUSH1 0x20 ADD DUP1 DUP4 GT PUSH2 0x1A4A JUMPI DUP3 SWAP1 SUB PUSH1 0x1F AND DUP3 ADD SWAP2 JUMPDEST POP POP POP POP POP SWAP2 POP DUP1 DUP1 SLOAD PUSH2 0x1A7A SWAP1 PUSH2 0x291A JUMP JUMPDEST DUP1 PUSH1 0x1F ADD PUSH1 0x20 DUP1 SWAP2 DIV MUL PUSH1 0x20 ADD PUSH1 0x40 MLOAD SWAP1 DUP2 ADD PUSH1 0x40 MSTORE DUP1 SWAP3 SWAP2 SWAP1 DUP2 DUP2 MSTORE PUSH1 0x20 ADD DUP3 DUP1 SLOAD PUSH2 0x1AA6 SWAP1 PUSH2 0x291A JUMP JUMPDEST DUP1 ISZERO PUSH2 0x1AF3 JUMPI DUP1 PUSH1 0x1F LT PUSH2 0x1AC8 JUMPI PUSH2 0x100 DUP1 DUP4 SLOAD DIV MUL DUP4 MSTORE SWAP2 PUSH1 0x20 ADD SWAP2 PUSH2 0x1AF3 JUMP JUMPDEST DUP3 ADD SWAP2 SWAP1 PUSH1 0x0 MSTORE PUSH1 0x20 PUSH1 0x0 KECCAK256 SWAP1 JUMPDEST DUP2 SLOAD DUP2 MSTORE SWAP1 PUSH1 0x1 ADD SWAP1 PUSH1 0x20 ADD DUP1 DUP4 GT PUSH2 0x1AD6 JUMPI DUP3 SWAP1 SUB PUSH1 0x1F AND DUP3 ADD SWAP2 JUMPDEST POP POP POP POP POP SWAP1 POP SWAP5 POP SWAP5 POP SWAP5 POP SWAP5 POP SWAP5 POP SWAP2 SWAP4 SWAP6 SWAP1 SWAP3 SWAP5 POP JUMP JUMPDEST PUSH1 0x0 DUP1 CALLER PUSH20 0xFFFFFFFFFFFFFFFFFFFFFFFFFFFFFFFFFFFFFFFF AND PUSH20 0xFFFFFFFFFFFFFFFFFFFFFFFFFFFFFFFFFFFFFFFF AND DUP2 MSTORE PUSH1 0x20 ADD SWAP1 DUP2 MSTORE PUSH1 0x20 ADD PUSH1 0x0 KECCAK256 PUSH1 0x0 DUP1 DUP3 ADD PUSH1 0x0 DUP1 DUP3 ADD PUSH1 0x0 PUSH2 0x1B61 SWAP2 SWAP1 PUSH2 0x1DEA JUMP JUMPDEST PUSH1 0x1 DUP3 ADD PUSH1 0x0 PUSH2 0x1B71 SWAP2 SWAP1 PUSH2 0x1DEA JUMP JUMPDEST PUSH1 0x2 DUP3 ADD PUSH1 0x0 PUSH2 0x100 EXP DUP2 SLOAD SWAP1 PUSH20 0xFFFFFFFFFFFFFFFFFFFFFFFFFFFFFFFFFFFFFFFF MUL NOT AND SWAP1 SSTORE PUSH1 0x3 DUP3 ADD PUSH1 0x0 PUSH2 0x1BA8 SWAP2 SWAP1 PUSH2 0x1DEA JUMP JUMPDEST PUSH1 0x4 DUP3 ADD PUSH1 0x0 PUSH2 0x1BB8 SWAP2 SWAP1 PUSH2 0x1DEA JUMP JUMPDEST PUSH1 0x5 DUP3 ADD PUSH1 0x0 PUSH2 0x1BC8 SWAP2 SWAP1 PUSH2 0x1DEA JUMP JUMPDEST PUSH1 0x6 DUP3 ADD PUSH1 0x0 PUSH2 0x1BD8 SWAP2 SWAP1 PUSH2 0x1DEA JUMP JUMPDEST PUSH1 0x7 DUP3 ADD PUSH1 0x0 SWAP1 SSTORE POP POP PUSH1 0x8 DUP3 ADD PUSH1 0x0 DUP1 DUP3 ADD PUSH1 0x0 PUSH2 0x1BF7 SWAP2 SWAP1 PUSH2 0x1DEA JUMP JUMPDEST PUSH1 0x1 DUP3 ADD PUSH1 0x0 PUSH2 0x1C07 SWAP2 SWAP1 PUSH2 0x1DEA JUMP JUMPDEST PUSH1 0x2 DUP3 ADD PUSH1 0x0 PUSH2 0x1C17 SWAP2 SWAP1 PUSH2 0x1DEA JUMP JUMPDEST PUSH1 0x3 DUP3 ADD PUSH1 0x0 PUSH2 0x1C27 SWAP2 SWAP1 PUSH2 0x1DEA JUMP JUMPDEST PUSH1 0x4 DUP3 ADD PUSH1 0x0 PUSH2 0x1C37 SWAP2 SWAP1 PUSH2 0x1DEA JUMP JUMPDEST PUSH1 0x5 DUP3 ADD PUSH1 0x0 PUSH2 0x1C47 SWAP2 SWAP1 PUSH2 0x1DEA JUMP JUMPDEST POP POP PUSH1 0xE DUP3 ADD PUSH1 0x0 DUP1 DUP3 ADD PUSH1 0x0 PUSH2 0x1C5E SWAP2 SWAP1 PUSH2 0x1CB4 JUMP JUMPDEST PUSH1 0x1 DUP3 ADD PUSH1 0x0 PUSH2 0x1C6E SWAP2 SWAP1 PUSH2 0x1CB4 JUMP JUMPDEST PUSH1 0x2 DUP3 ADD PUSH1 0x0 PUSH2 0x1C7E SWAP2 SWAP1 PUSH2 0x1CB4 JUMP JUMPDEST POP POP PUSH1 0x11 DUP3 ADD PUSH1 0x0 PUSH2 0x1C90 SWAP2 SWAP1 PUSH2 0x1E2A JUMP JUMPDEST PUSH1 0x12 DUP3 ADD PUSH1 0x0 PUSH2 0x1CA0 SWAP2 SWAP1 PUSH2 0x1CB4 JUMP JUMPDEST PUSH1 0x13 DUP3 ADD PUSH1 0x0 PUSH2 0x1CB0 SWAP2 SWAP1 PUSH2 0x1CB4 JUMP JUMPDEST POP POP JUMP JUMPDEST POP DUP1 SLOAD PUSH1 0x0 DUP3 SSTORE SWAP1 PUSH1 0x0 MSTORE PUSH1 0x20 PUSH1 0x0 KECCAK256 SWAP1 DUP2 ADD SWAP1 PUSH2 0x1CD2 SWAP2 SWAP1 PUSH2 0x1E4E JUMP JUMPDEST POP JUMP JUMPDEST DUP3 DUP1 SLOAD DUP3 DUP3 SSTORE SWAP1 PUSH1 0x0 MSTORE PUSH1 0x20 PUSH1 0x0 KECCAK256 SWAP1 DUP2 ADD SWAP3 DUP3 ISZERO PUSH2 0x1D24 JUMPI SWAP2 PUSH1 0x20 MUL DUP3 ADD JUMPDEST DUP3 DUP2 GT ISZERO PUSH2 0x1D23 JUMPI DUP3 MLOAD DUP3 SWAP1 DUP1 MLOAD SWAP1 PUSH1 0x20 ADD SWAP1 PUSH2 0x1D13 SWAP3 SWAP2 SWAP1 PUSH2 0x1D64 JUMP JUMPDEST POP SWAP2 PUSH1 0x20 ADD SWAP2 SWAP1 PUSH1 0x1 ADD SWAP1 PUSH2 0x1CF5 JUMP JUMPDEST JUMPDEST POP SWAP1 POP PUSH2 0x1D31 SWAP2 SWAP1 PUSH2 0x1E4E JUMP JUMPDEST POP SWAP1 JUMP JUMPDEST PUSH1 0x40 MLOAD DUP1 PUSH1 0xA0 ADD PUSH1 0x40 MSTORE DUP1 PUSH1 0x60 DUP2 MSTORE PUSH1 0x20 ADD PUSH1 0x60 DUP2 MSTORE PUSH1 0x20 ADD PUSH1 0x60 DUP2 MSTORE PUSH1 0x20 ADD PUSH1 0x60 DUP2 MSTORE PUSH1 0x20 ADD PUSH1 0x60 DUP2 MSTORE POP SWAP1 JUMP JUMPDEST DUP3 DUP1 SLOAD PUSH2 0x1D70 SWAP1 PUSH2 0x291A JUMP JUMPDEST SWAP1 PUSH1 0x0 MSTORE PUSH1 0x20 PUSH1 0x0 KECCAK256 SWAP1 PUSH1 0x1F ADD PUSH1 0x20 SWAP1 DIV DUP2 ADD SWAP3 DUP3 PUSH2 0x1D92 JUMPI PUSH1 0x0 DUP6 SSTORE PUSH2 0x1DD9 JUMP JUMPDEST DUP3 PUSH1 0x1F LT PUSH2 0x1DAB JUMPI DUP1 MLOAD PUSH1 0xFF NOT AND DUP4 DUP1 ADD OR DUP6 SSTORE PUSH2 0x1DD9 JUMP JUMPDEST DUP3 DUP1 ADD PUSH1 0x1 ADD DUP6 SSTORE DUP3 ISZERO PUSH2 0x1DD9 JUMPI SWAP2 DUP3 ADD JUMPDEST DUP3 DUP2 GT ISZERO PUSH2 0x1DD8 JUMPI DUP3 MLOAD DUP3 SSTORE SWAP2 PUSH1 0x20 ADD SWAP2 SWAP1 PUSH1 0x1 ADD SWAP1 PUSH2 0x1DBD JUMP JUMPDEST JUMPDEST POP SWAP1 POP PUSH2 0x1DE6 SWAP2 SWAP1 PUSH2 0x1E72 JUMP JUMPDEST POP SWAP1 JUMP JUMPDEST POP DUP1 SLOAD PUSH2 0x1DF6 SWAP1 PUSH2 0x291A JUMP JUMPDEST PUSH1 0x0 DUP3 SSTORE DUP1 PUSH1 0x1F LT PUSH2 0x1E08 JUMPI POP PUSH2 0x1E27 JUMP JUMPDEST PUSH1 0x1F ADD PUSH1 0x20 SWAP1 DIV SWAP1 PUSH1 0x0 MSTORE PUSH1 0x20 PUSH1 0x0 KECCAK256 SWAP1 DUP2 ADD SWAP1 PUSH2 0x1E26 SWAP2 SWAP1 PUSH2 0x1E72 JUMP JUMPDEST JUMPDEST POP JUMP JUMPDEST POP DUP1 SLOAD PUSH1 0x0 DUP3 SSTORE PUSH1 0x5 MUL SWAP1 PUSH1 0x0 MSTORE PUSH1 0x20 PUSH1 0x0 KECCAK256 SWAP1 DUP2 ADD SWAP1 PUSH2 0x1E4B SWAP2 SWAP1 PUSH2 0x1E8F JUMP JUMPDEST POP JUMP JUMPDEST JUMPDEST DUP1 DUP3 GT ISZERO PUSH2 0x1E6E JUMPI PUSH1 0x0 DUP2 DUP2 PUSH2 0x1E65 SWAP2 SWAP1 PUSH2 0x1DEA JUMP JUMPDEST POP PUSH1 0x1 ADD PUSH2 0x1E4F JUMP JUMPDEST POP SWAP1 JUMP JUMPDEST JUMPDEST DUP1 DUP3 GT ISZERO PUSH2 0x1E8B JUMPI PUSH1 0x0 DUP2 PUSH1 0x0 SWAP1 SSTORE POP PUSH1 0x1 ADD PUSH2 0x1E73 JUMP JUMPDEST POP SWAP1 JUMP JUMPDEST JUMPDEST DUP1 DUP3 GT ISZERO PUSH2 0x1EF2 JUMPI PUSH1 0x0 DUP1 DUP3 ADD PUSH1 0x0 PUSH2 0x1EA9 SWAP2 SWAP1 PUSH2 0x1DEA JUMP JUMPDEST PUSH1 0x1 DUP3 ADD PUSH1 0x0 PUSH2 0x1EB9 SWAP2 SWAP1 PUSH2 0x1DEA JUMP JUMPDEST PUSH1 0x2 DUP3 ADD PUSH1 0x0 PUSH2 0x1EC9 SWAP2 SWAP1 PUSH2 0x1DEA JUMP JUMPDEST PUSH1 0x3 DUP3 ADD PUSH1 0x0 PUSH2 0x1ED9 SWAP2 SWAP1 PUSH2 0x1DEA JUMP JUMPDEST PUSH1 0x4 DUP3 ADD PUSH1 0x0 PUSH2 0x1EE9 SWAP2 SWAP1 PUSH2 0x1DEA JUMP JUMPDEST POP PUSH1 0x5 ADD PUSH2 0x1E90 JUMP JUMPDEST POP SWAP1 JUMP JUMPDEST PUSH1 0x0 PUSH2 0x1F09 PUSH2 0x1F04 DUP5 PUSH2 0x27D9 JUMP JUMPDEST PUSH2 0x27B4 JUMP JUMPDEST SWAP1 POP DUP1 DUP4 DUP3 MSTORE PUSH1 0x20 DUP3 ADD SWAP1 POP DUP3 DUP6 PUSH1 0x20 DUP7 MUL DUP3 ADD GT ISZERO PUSH2 0x1F2C JUMPI PUSH2 0x1F2B PUSH2 0x2A0F JUMP JUMPDEST JUMPDEST PUSH1 0x0 JUMPDEST DUP6 DUP2 LT ISZERO PUSH2 0x1F7A JUMPI DUP2 CALLDATALOAD PUSH8 0xFFFFFFFFFFFFFFFF DUP2 GT ISZERO PUSH2 0x1F52 JUMPI PUSH2 0x1F51 PUSH2 0x2A0A JUMP JUMPDEST JUMPDEST DUP1 DUP7 ADD PUSH2 0x1F5F DUP10 DUP3 PUSH2 0x2009 JUMP JUMPDEST DUP6 MSTORE PUSH1 0x20 DUP6 ADD SWAP5 POP PUSH1 0x20 DUP5 ADD SWAP4 POP POP POP PUSH1 0x1 DUP2 ADD SWAP1 POP PUSH2 0x1F2F JUMP JUMPDEST POP POP POP SWAP4 SWAP3 POP POP POP JUMP JUMPDEST PUSH1 0x0 PUSH2 0x1F97 PUSH2 0x1F92 DUP5 PUSH2 0x2805 JUMP JUMPDEST PUSH2 0x27B4 JUMP JUMPDEST SWAP1 POP DUP3 DUP2 MSTORE PUSH1 0x20 DUP2 ADD DUP5 DUP5 DUP5 ADD GT ISZERO PUSH2 0x1FB3 JUMPI PUSH2 0x1FB2 PUSH2 0x2A14 JUMP JUMPDEST JUMPDEST PUSH2 0x1FBE DUP5 DUP3 DUP6 PUSH2 0x28D8 JUMP JUMPDEST POP SWAP4 SWAP3 POP POP POP JUMP JUMPDEST PUSH1 0x0 DUP2 CALLDATALOAD SWAP1 POP PUSH2 0x1FD5 DUP2 PUSH2 0x2A34 JUMP JUMPDEST SWAP3 SWAP2 POP POP JUMP JUMPDEST PUSH1 0x0 DUP3 PUSH1 0x1F DUP4 ADD SLT PUSH2 0x1FF0 JUMPI PUSH2 0x1FEF PUSH2 0x2A0A JUMP JUMPDEST JUMPDEST DUP2 CALLDATALOAD PUSH2 0x2000 DUP5 DUP3 PUSH1 0x20 DUP7 ADD PUSH2 0x1EF6 JUMP JUMPDEST SWAP2 POP POP SWAP3 SWAP2 POP POP JUMP JUMPDEST PUSH1 0x0 DUP3 PUSH1 0x1F DUP4 ADD SLT PUSH2 0x201E JUMPI PUSH2 0x201D PUSH2 0x2A0A JUMP JUMPDEST JUMPDEST DUP2 CALLDATALOAD PUSH2 0x202E DUP5 DUP3 PUSH1 0x20 DUP7 ADD PUSH2 0x1F84 JUMP JUMPDEST SWAP2 POP POP SWAP3 SWAP2 POP POP JUMP JUMPDEST PUSH1 0x0 DUP2 CALLDATALOAD SWAP1 POP PUSH2 0x2046 DUP2 PUSH2 0x2A4B JUMP JUMPDEST SWAP3 SWAP2 POP POP JUMP JUMPDEST PUSH1 0x0 PUSH1 0x20 DUP3 DUP5 SUB SLT ISZERO PUSH2 0x2062 JUMPI PUSH2 0x2061 PUSH2 0x2A1E JUMP JUMPDEST JUMPDEST PUSH1 0x0 PUSH2 0x2070 DUP5 DUP3 DUP6 ADD PUSH2 0x1FC6 JUMP JUMPDEST SWAP2 POP POP SWAP3 SWAP2 POP POP JUMP JUMPDEST PUSH1 0x0 PUSH1 0x20 DUP3 DUP5 SUB SLT ISZERO PUSH2 0x208F JUMPI PUSH2 0x208E PUSH2 0x2A1E JUMP JUMPDEST JUMPDEST PUSH1 0x0 DUP3 ADD CALLDATALOAD PUSH8 0xFFFFFFFFFFFFFFFF DUP2 GT ISZERO PUSH2 0x20AD JUMPI PUSH2 0x20AC PUSH2 0x2A19 JUMP JUMPDEST JUMPDEST PUSH2 0x20B9 DUP5 DUP3 DUP6 ADD PUSH2 0x1FDB JUMP JUMPDEST SWAP2 POP POP SWAP3 SWAP2 POP POP JUMP JUMPDEST PUSH1 0x0 DUP1 PUSH1 0x0 PUSH1 0x60 DUP5 DUP7 SUB SLT ISZERO PUSH2 0x20DB JUMPI PUSH2 0x20DA PUSH2 0x2A1E JUMP JUMPDEST JUMPDEST PUSH1 0x0 DUP5 ADD CALLDATALOAD PUSH8 0xFFFFFFFFFFFFFFFF DUP2 GT ISZERO PUSH2 0x20F9 JUMPI PUSH2 0x20F8 PUSH2 0x2A19 JUMP JUMPDEST JUMPDEST PUSH2 0x2105 DUP7 DUP3 DUP8 ADD PUSH2 0x1FDB JUMP JUMPDEST SWAP4 POP POP PUSH1 0x20 DUP5 ADD CALLDATALOAD PUSH8 0xFFFFFFFFFFFFFFFF DUP2 GT ISZERO PUSH2 0x2126 JUMPI PUSH2 0x2125 PUSH2 0x2A19 JUMP JUMPDEST JUMPDEST PUSH2 0x2132 DUP7 DUP3 DUP8 ADD PUSH2 0x1FDB JUMP JUMPDEST SWAP3 POP POP PUSH1 0x40 DUP5 ADD CALLDATALOAD PUSH8 0xFFFFFFFFFFFFFFFF DUP2 GT ISZERO PUSH2 0x2153 JUMPI PUSH2 0x2152 PUSH2 0x2A19 JUMP JUMPDEST JUMPDEST PUSH2 0x215F DUP7 DUP3 DUP8 ADD PUSH2 0x1FDB JUMP JUMPDEST SWAP2 POP POP SWAP3 POP SWAP3 POP SWAP3 JUMP JUMPDEST PUSH1 0x0 DUP1 PUSH1 0x0 DUP1 PUSH1 0x0 PUSH1 0xA0 DUP7 DUP9 SUB SLT ISZERO PUSH2 0x2185 JUMPI PUSH2 0x2184 PUSH2 0x2A1E JUMP JUMPDEST JUMPDEST PUSH1 0x0 DUP7 ADD CALLDATALOAD PUSH8 0xFFFFFFFFFFFFFFFF DUP2 GT ISZERO PUSH2 0x21A3 JUMPI PUSH2 0x21A2 PUSH2 0x2A19 JUMP JUMPDEST JUMPDEST PUSH2 0x21AF DUP9 DUP3 DUP10 ADD PUSH2 0x2009 JUMP JUMPDEST SWAP6 POP POP PUSH1 0x20 DUP7 ADD CALLDATALOAD PUSH8 0xFFFFFFFFFFFFFFFF DUP2 GT ISZERO PUSH2 0x21D0 JUMPI PUSH2 0x21CF PUSH2 0x2A19 JUMP JUMPDEST JUMPDEST PUSH2 0x21DC DUP9 DUP3 DUP10 ADD PUSH2 0x2009 JUMP JUMPDEST SWAP5 POP POP PUSH1 0x40 DUP7 ADD CALLDATALOAD PUSH8 0xFFFFFFFFFFFFFFFF DUP2 GT ISZERO PUSH2 0x21FD JUMPI PUSH2 0x21FC PUSH2 0x2A19 JUMP JUMPDEST JUMPDEST PUSH2 0x2209 DUP9 DUP3 DUP10 ADD PUSH2 0x2009 JUMP JUMPDEST SWAP4 POP POP PUSH1 0x60 DUP7 ADD CALLDATALOAD PUSH8 0xFFFFFFFFFFFFFFFF DUP2 GT ISZERO PUSH2 0x222A JUMPI PUSH2 0x2229 PUSH2 0x2A19 JUMP JUMPDEST JUMPDEST PUSH2 0x2236 DUP9 DUP3 DUP10 ADD PUSH2 0x2009 JUMP JUMPDEST SWAP3 POP POP PUSH1 0x80 DUP7 ADD CALLDATALOAD PUSH8 0xFFFFFFFFFFFFFFFF DUP2 GT ISZERO PUSH2 0x2257 JUMPI PUSH2 0x2256 PUSH2 0x2A19 JUMP JUMPDEST JUMPDEST PUSH2 0x2263 DUP9 DUP3 DUP10 ADD PUSH2 0x2009 JUMP JUMPDEST SWAP2 POP POP SWAP3 SWAP6 POP SWAP3 SWAP6 SWAP1 SWAP4 POP JUMP JUMPDEST PUSH1 0x0 DUP1 PUSH1 0x0 DUP1 PUSH1 0x0 DUP1 PUSH1 0xC0 DUP8 DUP10 SUB SLT ISZERO PUSH2 0x228D JUMPI PUSH2 0x228C PUSH2 0x2A1E JUMP JUMPDEST JUMPDEST PUSH1 0x0 DUP8 ADD CALLDATALOAD PUSH8 0xFFFFFFFFFFFFFFFF DUP2 GT ISZERO PUSH2 0x22AB JUMPI PUSH2 0x22AA PUSH2 0x2A19 JUMP JUMPDEST JUMPDEST PUSH2 0x22B7 DUP10 DUP3 DUP11 ADD PUSH2 0x2009 JUMP JUMPDEST SWAP7 POP POP PUSH1 0x20 DUP8 ADD CALLDATALOAD PUSH8 0xFFFFFFFFFFFFFFFF DUP2 GT ISZERO PUSH2 0x22D8 JUMPI PUSH2 0x22D7 PUSH2 0x2A19 JUMP JUMPDEST JUMPDEST PUSH2 0x22E4 DUP10 DUP3 DUP11 ADD PUSH2 0x2009 JUMP JUMPDEST SWAP6 POP POP PUSH1 0x40 DUP8 ADD CALLDATALOAD PUSH8 0xFFFFFFFFFFFFFFFF DUP2 GT ISZERO PUSH2 0x2305 JUMPI PUSH2 0x2304 PUSH2 0x2A19 JUMP JUMPDEST JUMPDEST PUSH2 0x2311 DUP10 DUP3 DUP11 ADD PUSH2 0x2009 JUMP JUMPDEST SWAP5 POP POP PUSH1 0x60 DUP8 ADD CALLDATALOAD PUSH8 0xFFFFFFFFFFFFFFFF DUP2 GT ISZERO PUSH2 0x2332 JUMPI PUSH2 0x2331 PUSH2 0x2A19 JUMP JUMPDEST JUMPDEST PUSH2 0x233E DUP10 DUP3 DUP11 ADD PUSH2 0x2009 JUMP JUMPDEST SWAP4 POP POP PUSH1 0x80 DUP8 ADD CALLDATALOAD PUSH8 0xFFFFFFFFFFFFFFFF DUP2 GT ISZERO PUSH2 0x235F JUMPI PUSH2 0x235E PUSH2 0x2A19 JUMP JUMPDEST JUMPDEST PUSH2 0x236B DUP10 DUP3 DUP11 ADD PUSH2 0x2009 JUMP JUMPDEST SWAP3 POP POP PUSH1 0xA0 DUP8 ADD CALLDATALOAD PUSH8 0xFFFFFFFFFFFFFFFF DUP2 GT ISZERO PUSH2 0x238C JUMPI PUSH2 0x238B PUSH2 0x2A19 JUMP JUMPDEST JUMPDEST PUSH2 0x2398 DUP10 DUP3 DUP11 ADD PUSH2 0x2009 JUMP JUMPDEST SWAP2 POP POP SWAP3 SWAP6 POP SWAP3 SWAP6 POP SWAP3 SWAP6 JUMP JUMPDEST PUSH1 0x0 PUSH1 0x20 DUP3 DUP5 SUB SLT ISZERO PUSH2 0x23BB JUMPI PUSH2 0x23BA PUSH2 0x2A1E JUMP JUMPDEST JUMPDEST PUSH1 0x0 PUSH2 0x23C9 DUP5 DUP3 DUP6 ADD PUSH2 0x2037 JUMP JUMPDEST SWAP2 POP POP SWAP3 SWAP2 POP POP JUMP JUMPDEST PUSH1 0x0 PUSH2 0x23DE DUP4 DUP4 PUSH2 0x246A JUMP JUMPDEST SWAP1 POP SWAP3 SWAP2 POP POP JUMP JUMPDEST PUSH2 0x23EF DUP2 PUSH2 0x289C JUMP JUMPDEST DUP3 MSTORE POP POP JUMP JUMPDEST PUSH1 0x0 PUSH2 0x2400 DUP3 PUSH2 0x2846 JUMP JUMPDEST PUSH2 0x240A DUP2 DUP6 PUSH2 0x2869 JUMP JUMPDEST SWAP4 POP DUP4 PUSH1 0x20 DUP3 MUL DUP6 ADD PUSH2 0x241C DUP6 PUSH2 0x2836 JUMP JUMPDEST DUP1 PUSH1 0x0 JUMPDEST DUP6 DUP2 LT ISZERO PUSH2 0x2458 JUMPI DUP5 DUP5 SUB DUP10 MSTORE DUP2 MLOAD PUSH2 0x2439 DUP6 DUP3 PUSH2 0x23D2 JUMP JUMPDEST SWAP5 POP PUSH2 0x2444 DUP4 PUSH2 0x285C JUMP JUMPDEST SWAP3 POP PUSH1 0x20 DUP11 ADD SWAP10 POP POP PUSH1 0x1 DUP2 ADD SWAP1 POP PUSH2 0x2420 JUMP JUMPDEST POP DUP3 SWAP8 POP DUP8 SWAP6 POP POP POP POP POP POP SWAP3 SWAP2 POP POP JUMP JUMPDEST PUSH1 0x0 PUSH2 0x2475 DUP3 PUSH2 0x2851 JUMP JUMPDEST PUSH2 0x247F DUP2 DUP6 PUSH2 0x287A JUMP JUMPDEST SWAP4 POP PUSH2 0x248F DUP2 DUP6 PUSH1 0x20 DUP7 ADD PUSH2 0x28E7 JUMP JUMPDEST PUSH2 0x2498 DUP2 PUSH2 0x2A23 JUMP JUMPDEST DUP5 ADD SWAP2 POP POP SWAP3 SWAP2 POP POP JUMP JUMPDEST PUSH1 0x0 PUSH2 0x24AE DUP3 PUSH2 0x2851 JUMP JUMPDEST PUSH2 0x24B8 DUP2 DUP6 PUSH2 0x288B JUMP JUMPDEST SWAP4 POP PUSH2 0x24C8 DUP2 DUP6 PUSH1 0x20 DUP7 ADD PUSH2 0x28E7 JUMP JUMPDEST PUSH2 0x24D1 DUP2 PUSH2 0x2A23 JUMP JUMPDEST DUP5 ADD SWAP2 POP POP SWAP3 SWAP2 POP POP JUMP JUMPDEST PUSH1 0x0 PUSH1 0xC0 DUP4 ADD PUSH1 0x0 DUP4 ADD MLOAD DUP5 DUP3 SUB PUSH1 0x0 DUP7 ADD MSTORE PUSH2 0x24F9 DUP3 DUP3 PUSH2 0x246A JUMP JUMPDEST SWAP2 POP POP PUSH1 0x20 DUP4 ADD MLOAD DUP5 DUP3 SUB PUSH1 0x20 DUP7 ADD MSTORE PUSH2 0x2513 DUP3 DUP3 PUSH2 0x246A JUMP JUMPDEST SWAP2 POP POP PUSH1 0x40 DUP4 ADD MLOAD DUP5 DUP3 SUB PUSH1 0x40 DUP7 ADD MSTORE PUSH2 0x252D DUP3 DUP3 PUSH2 0x246A JUMP JUMPDEST SWAP2 POP POP PUSH1 0x60 DUP4 ADD MLOAD DUP5 DUP3 SUB PUSH1 0x60 DUP7 ADD MSTORE PUSH2 0x2547 DUP3 DUP3 PUSH2 0x246A JUMP JUMPDEST SWAP2 POP POP PUSH1 0x80 DUP4 ADD MLOAD DUP5 DUP3 SUB PUSH1 0x80 DUP7 ADD MSTORE PUSH2 0x2561 DUP3 DUP3 PUSH2 0x246A JUMP JUMPDEST SWAP2 POP POP PUSH1 0xA0 DUP4 ADD MLOAD DUP5 DUP3 SUB PUSH1 0xA0 DUP7 ADD MSTORE PUSH2 0x257B DUP3 DUP3 PUSH2 0x246A JUMP JUMPDEST SWAP2 POP POP DUP1 SWAP2 POP POP SWAP3 SWAP2 POP POP JUMP JUMPDEST PUSH1 0x0 PUSH2 0x100 DUP4 ADD PUSH1 0x0 DUP4 ADD MLOAD DUP5 DUP3 SUB PUSH1 0x0 DUP7 ADD MSTORE PUSH2 0x25A6 DUP3 DUP3 PUSH2 0x246A JUMP JUMPDEST SWAP2 POP POP PUSH1 0x20 DUP4 ADD MLOAD DUP5 DUP3 SUB PUSH1 0x20 DUP7 ADD MSTORE PUSH2 0x25C0 DUP3 DUP3 PUSH2 0x246A JUMP JUMPDEST SWAP2 POP POP PUSH1 0x40 DUP4 ADD MLOAD PUSH2 0x25D5 PUSH1 0x40 DUP7 ADD DUP3 PUSH2 0x23E6 JUMP JUMPDEST POP PUSH1 0x60 DUP4 ADD MLOAD DUP5 DUP3 SUB PUSH1 0x60 DUP7 ADD MSTORE PUSH2 0x25ED DUP3 DUP3 PUSH2 0x246A JUMP JUMPDEST SWAP2 POP POP PUSH1 0x80 DUP4 ADD MLOAD DUP5 DUP3 SUB PUSH1 0x80 DUP7 ADD MSTORE PUSH2 0x2607 DUP3 DUP3 PUSH2 0x246A JUMP JUMPDEST SWAP2 POP POP PUSH1 0xA0 DUP4 ADD MLOAD DUP5 DUP3 SUB PUSH1 0xA0 DUP7 ADD MSTORE PUSH2 0x2621 DUP3 DUP3 PUSH2 0x246A JUMP JUMPDEST SWAP2 POP POP PUSH1 0xC0 DUP4 ADD MLOAD DUP5 DUP3 SUB PUSH1 0xC0 DUP7 ADD MSTORE PUSH2 0x263B DUP3 DUP3 PUSH2 0x246A JUMP JUMPDEST SWAP2 POP POP PUSH1 0xE0 DUP4 ADD MLOAD PUSH2 0x2650 PUSH1 0xE0 DUP7 ADD DUP3 PUSH2 0x26B9 JUMP JUMPDEST POP DUP1 SWAP2 POP POP SWAP3 SWAP2 POP POP JUMP JUMPDEST PUSH1 0x0 PUSH1 0x60 DUP4 ADD PUSH1 0x0 DUP4 ADD MLOAD DUP5 DUP3 SUB PUSH1 0x0 DUP7 ADD MSTORE PUSH2 0x2678 DUP3 DUP3 PUSH2 0x23F5 JUMP JUMPDEST SWAP2 POP POP PUSH1 0x20 DUP4 ADD MLOAD DUP5 DUP3 SUB PUSH1 0x20 DUP7 ADD MSTORE PUSH2 0x2692 DUP3 DUP3 PUSH2 0x23F5 JUMP JUMPDEST SWAP2 POP POP PUSH1 0x40 DUP4 ADD MLOAD DUP5 DUP3 SUB PUSH1 0x40 DUP7 ADD MSTORE PUSH2 0x26AC DUP3 DUP3 PUSH2 0x23F5 JUMP JUMPDEST SWAP2 POP POP DUP1 SWAP2 POP POP SWAP3 SWAP2 POP POP JUMP JUMPDEST PUSH2 0x26C2 DUP2 PUSH2 0x28CE JUMP JUMPDEST DUP3 MSTORE POP POP JUMP JUMPDEST PUSH2 0x26D1 DUP2 PUSH2 0x28CE JUMP JUMPDEST DUP3 MSTORE POP POP JUMP JUMPDEST PUSH1 0x0 PUSH1 0xA0 DUP3 ADD SWAP1 POP DUP2 DUP2 SUB PUSH1 0x0 DUP4 ADD MSTORE PUSH2 0x26F1 DUP2 DUP9 PUSH2 0x24A3 JUMP JUMPDEST SWAP1 POP DUP2 DUP2 SUB PUSH1 0x20 DUP4 ADD MSTORE PUSH2 0x2705 DUP2 DUP8 PUSH2 0x24A3 JUMP JUMPDEST SWAP1 POP DUP2 DUP2 SUB PUSH1 0x40 DUP4 ADD MSTORE PUSH2 0x2719 DUP2 DUP7 PUSH2 0x24A3 JUMP JUMPDEST SWAP1 POP DUP2 DUP2 SUB PUSH1 0x60 DUP4 ADD MSTORE PUSH2 0x272D DUP2 DUP6 PUSH2 0x24A3 JUMP JUMPDEST SWAP1 POP DUP2 DUP2 SUB PUSH1 0x80 DUP4 ADD MSTORE PUSH2 0x2741 DUP2 DUP5 PUSH2 0x24A3 JUMP JUMPDEST SWAP1 POP SWAP7 SWAP6 POP POP POP POP POP POP JUMP JUMPDEST PUSH1 0x0 PUSH1 0x60 DUP3 ADD SWAP1 POP DUP2 DUP2 SUB PUSH1 0x0 DUP4 ADD MSTORE PUSH2 0x2767 DUP2 DUP7 PUSH2 0x2588 JUMP JUMPDEST SWAP1 POP DUP2 DUP2 SUB PUSH1 0x20 DUP4 ADD MSTORE PUSH2 0x277B DUP2 DUP6 PUSH2 0x24DC JUMP JUMPDEST SWAP1 POP DUP2 DUP2 SUB PUSH1 0x40 DUP4 ADD MSTORE PUSH2 0x278F DUP2 DUP5 PUSH2 0x265B JUMP JUMPDEST SWAP1 POP SWAP5 SWAP4 POP POP POP POP JUMP JUMPDEST PUSH1 0x0 PUSH1 0x20 DUP3 ADD SWAP1 POP PUSH2 0x27AE PUSH1 0x0 DUP4 ADD DUP5 PUSH2 0x26C8 JUMP JUMPDEST SWAP3 SWAP2 POP POP JUMP JUMPDEST PUSH1 0x0 PUSH2 0x27BE PUSH2 0x27CF JUMP JUMPDEST SWAP1 POP PUSH2 0x27CA DUP3 DUP3 PUSH2 0x294C JUMP JUMPDEST SWAP2 SWAP1 POP JUMP JUMPDEST PUSH1 0x0 PUSH1 0x40 MLOAD SWAP1 POP SWAP1 JUMP JUMPDEST PUSH1 0x0 PUSH8 0xFFFFFFFFFFFFFFFF DUP3 GT ISZERO PUSH2 0x27F4 JUMPI PUSH2 0x27F3 PUSH2 0x29DB JUMP JUMPDEST JUMPDEST PUSH1 0x20 DUP3 MUL SWAP1 POP PUSH1 0x20 DUP2 ADD SWAP1 POP SWAP2 SWAP1 POP JUMP JUMPDEST PUSH1 0x0 PUSH8 0xFFFFFFFFFFFFFFFF DUP3 GT ISZERO PUSH2 0x2820 JUMPI PUSH2 0x281F PUSH2 0x29DB JUMP JUMPDEST JUMPDEST PUSH2 0x2829 DUP3 PUSH2 0x2A23 JUMP JUMPDEST SWAP1 POP PUSH1 0x20 DUP2 ADD SWAP1 POP SWAP2 SWAP1 POP JUMP JUMPDEST PUSH1 0x0 DUP2 SWAP1 POP PUSH1 0x20 DUP3 ADD SWAP1 POP SWAP2 SWAP1 POP JUMP JUMPDEST PUSH1 0x0 DUP2 MLOAD SWAP1 POP SWAP2 SWAP1 POP JUMP JUMPDEST PUSH1 0x0 DUP2 MLOAD SWAP1 POP SWAP2 SWAP1 POP JUMP JUMPDEST PUSH1 0x0 PUSH1 0x20 DUP3 ADD SWAP1 POP SWAP2 SWAP1 POP JUMP JUMPDEST PUSH1 0x0 DUP3 DUP3 MSTORE PUSH1 0x20 DUP3 ADD SWAP1 POP SWAP3 SWAP2 POP POP JUMP JUMPDEST PUSH1 0x0 DUP3 DUP3 MSTORE PUSH1 0x20 DUP3 ADD SWAP1 POP SWAP3 SWAP2 POP POP JUMP JUMPDEST PUSH1 0x0 DUP3 DUP3 MSTORE PUSH1 0x20 DUP3 ADD SWAP1 POP SWAP3 SWAP2 POP POP JUMP JUMPDEST PUSH1 0x0 PUSH2 0x28A7 DUP3 PUSH2 0x28AE JUMP JUMPDEST SWAP1 POP SWAP2 SWAP1 POP JUMP JUMPDEST PUSH1 0x0 PUSH20 0xFFFFFFFFFFFFFFFFFFFFFFFFFFFFFFFFFFFFFFFF DUP3 AND SWAP1 POP SWAP2 SWAP1 POP JUMP JUMPDEST PUSH1 0x0 DUP2 SWAP1 POP SWAP2 SWAP1 POP JUMP JUMPDEST DUP3 DUP2 DUP4 CALLDATACOPY PUSH1 0x0 DUP4 DUP4 ADD MSTORE POP POP POP JUMP JUMPDEST PUSH1 0x0 JUMPDEST DUP4 DUP2 LT ISZERO PUSH2 0x2905 JUMPI DUP1 DUP3 ADD MLOAD DUP2 DUP5 ADD MSTORE PUSH1 0x20 DUP2 ADD SWAP1 POP PUSH2 0x28EA JUMP JUMPDEST DUP4 DUP2 GT ISZERO PUSH2 0x2914 JUMPI PUSH1 0x0 DUP5 DUP5 ADD MSTORE JUMPDEST POP POP POP POP JUMP JUMPDEST PUSH1 0x0 PUSH1 0x2 DUP3 DIV SWAP1 POP PUSH1 0x1 DUP3 AND DUP1 PUSH2 0x2932 JUMPI PUSH1 0x7F DUP3 AND SWAP2 POP JUMPDEST PUSH1 0x20 DUP3 LT DUP2 EQ ISZERO PUSH2 0x2946 JUMPI PUSH2 0x2945 PUSH2 0x297D JUMP JUMPDEST JUMPDEST POP SWAP2 SWAP1 POP JUMP JUMPDEST PUSH2 0x2955 DUP3 PUSH2 0x2A23 JUMP JUMPDEST DUP2 ADD DUP2 DUP2 LT PUSH8 0xFFFFFFFFFFFFFFFF DUP3 GT OR ISZERO PUSH2 0x2974 JUMPI PUSH2 0x2973 PUSH2 0x29DB JUMP JUMPDEST JUMPDEST DUP1 PUSH1 0x40 MSTORE POP POP POP JUMP JUMPDEST PUSH32 0x4E487B7100000000000000000000000000000000000000000000000000000000 PUSH1 0x0 MSTORE PUSH1 0x22 PUSH1 0x4 MSTORE PUSH1 0x24 PUSH1 0x0 REVERT JUMPDEST PUSH32 0x4E487B7100000000000000000000000000000000000000000000000000000000 PUSH1 0x0 MSTORE PUSH1 0x32 PUSH1 0x4 MSTORE PUSH1 0x24 PUSH1 0x0 REVERT JUMPDEST PUSH32 0x4E487B7100000000000000000000000000000000000000000000000000000000 PUSH1 0x0 MSTORE PUSH1 0x41 PUSH1 0x4 MSTORE PUSH1 0x24 PUSH1 0x0 REVERT JUMPDEST PUSH1 0x0 DUP1 REVERT JUMPDEST PUSH1 0x0 DUP1 REVERT JUMPDEST PUSH1 0x0 DUP1 REVERT JUMPDEST PUSH1 0x0 DUP1 REVERT JUMPDEST PUSH1 0x0 DUP1 REVERT JUMPDEST PUSH1 0x0 PUSH1 0x1F NOT PUSH1 0x1F DUP4 ADD AND SWAP1 POP SWAP2 SWAP1 POP JUMP JUMPDEST PUSH2 0x2A3D DUP2 PUSH2 0x289C JUMP JUMPDEST DUP2 EQ PUSH2 0x2A48 JUMPI PUSH1 0x0 DUP1 REVERT JUMPDEST POP JUMP JUMPDEST PUSH2 0x2A54 DUP2 PUSH2 0x28CE JUMP JUMPDEST DUP2 EQ PUSH2 0x2A5F JUMPI PUSH1 0x0 DUP1 REVERT JUMPDEST POP JUMP INVALID LOG2 PUSH5 0x6970667358 0x22 SLT KECCAK256 0x4C JUMPI 0xE4 0xDC 0xD2 LOG3 0x22 LOG4 PUSH13 0xBAF6DB29E73B71E600521DE16C 0xB6 MULMOD DUP14 0xEC EXTCODECOPY 0xC5 0xCC 0xAC ISZERO NUMBER PUSH5 0x736F6C6343 STOP ADDMOD SMOD STOP CALLER "
				},
				"gasEstimates": {
					"creation": {
						"codeDepositCost": "2180800",
						"executionCost": "2324",
						"totalCost": "2183124"
					},
					"external": {
						"createAward(string[])": "infinite",
						"createCertificate(string[])": "infinite",
						"createContract(string,string,string,string,string)": "infinite",
						"createInformation(string,string,string,string,string,string)": "infinite",
						"createSkill(string[],string[],string[])": "infinite",
						"createUnivercity(string,string,string,string,string)": "infinite",
						"delAllEducation()": "infinite",
						"delInformaion()": "infinite",
						"delProfile()": "infinite",
						"getEducation(uint256)": "infinite",
						"getEducationCount()": "2563",
						"profile(address)": "infinite"
					}
				},
				"methodIdentifiers": {
					"createAward(string[])": "97c35b02",
					"createCertificate(string[])": "d759b830",
					"createContract(string,string,string,string,string)": "72828388",
					"createInformation(string,string,string,string,string,string)": "958791ae",
					"createSkill(string[],string[],string[])": "3d984d0e",
					"createUnivercity(string,string,string,string,string)": "66244dfb",
					"delAllEducation()": "ed2217ef",
					"delInformaion()": "95ea3757",
					"delProfile()": "fabce08f",
					"getEducation(uint256)": "f96e32f8",
					"getEducationCount()": "6212fa02",
					"profile(address)": "9dd9d0fd"
				}
			},
			"storageLayout": {
				"storage": [
					{
						"astId": 26,
						"contract": "contracts/Profile.sol:Profile",
						"label": "profile",
						"offset": 0,
						"slot": "0",
						"type": "t_mapping(t_address,t_struct(Bio)21_storage)"
					}
				],
				"types": {
					"t_address": {
						"encoding": "inplace",
						"label": "address",
						"numberOfBytes": "20"
					},
					"t_array(t_string_storage)dyn_storage": {
						"base": "t_string_storage",
						"encoding": "dynamic_array",
						"label": "string[]",
						"numberOfBytes": "32"
					},
					"t_array(t_struct(Education)77_storage)dyn_storage": {
						"base": "t_struct(Education)77_storage",
						"encoding": "dynamic_array",
						"label": "struct Profile.Education[]",
						"numberOfBytes": "32"
					},
					"t_mapping(t_address,t_struct(Bio)21_storage)": {
						"encoding": "mapping",
						"key": "t_address",
						"label": "mapping(address => struct Profile.Bio)",
						"numberOfBytes": "32",
						"value": "t_struct(Bio)21_storage"
					},
					"t_string_storage": {
						"encoding": "bytes",
						"label": "string",
						"numberOfBytes": "32"
					},
					"t_struct(Bio)21_storage": {
						"encoding": "inplace",
						"label": "struct Profile.Bio",
						"members": [
							{
								"astId": 4,
								"contract": "contracts/Profile.sol:Profile",
								"label": "information",
								"offset": 0,
								"slot": "0",
								"type": "t_struct(Information)43_storage"
							},
							{
								"astId": 7,
								"contract": "contracts/Profile.sol:Profile",
								"label": "privateContract",
								"offset": 0,
								"slot": "8",
								"type": "t_struct(Contract)56_storage"
							},
							{
								"astId": 10,
								"contract": "contracts/Profile.sol:Profile",
								"label": "skill",
								"offset": 0,
								"slot": "14",
								"type": "t_struct(Skill)66_storage"
							},
							{
								"astId": 14,
								"contract": "contracts/Profile.sol:Profile",
								"label": "education",
								"offset": 0,
								"slot": "17",
								"type": "t_array(t_struct(Education)77_storage)dyn_storage"
							},
							{
								"astId": 17,
								"contract": "contracts/Profile.sol:Profile",
								"label": "certificate",
								"offset": 0,
								"slot": "18",
								"type": "t_array(t_string_storage)dyn_storage"
							},
							{
								"astId": 20,
								"contract": "contracts/Profile.sol:Profile",
								"label": "award",
								"offset": 0,
								"slot": "19",
								"type": "t_array(t_string_storage)dyn_storage"
							}
						],
						"numberOfBytes": "640"
					},
					"t_struct(Contract)56_storage": {
						"encoding": "inplace",
						"label": "struct Profile.Contract",
						"members": [
							{
								"astId": 45,
								"contract": "contracts/Profile.sol:Profile",
								"label": "aboutMe",
								"offset": 0,
								"slot": "0",
								"type": "t_string_storage"
							},
							{
								"astId": 47,
								"contract": "contracts/Profile.sol:Profile",
								"label": "email",
								"offset": 0,
								"slot": "1",
								"type": "t_string_storage"
							},
							{
								"astId": 49,
								"contract": "contracts/Profile.sol:Profile",
								"label": "phone",
								"offset": 0,
								"slot": "2",
								"type": "t_string_storage"
							},
							{
								"astId": 51,
								"contract": "contracts/Profile.sol:Profile",
								"label": "github",
								"offset": 0,
								"slot": "3",
								"type": "t_string_storage"
							},
							{
								"astId": 53,
								"contract": "contracts/Profile.sol:Profile",
								"label": "gitlab",
								"offset": 0,
								"slot": "4",
								"type": "t_string_storage"
							},
							{
								"astId": 55,
								"contract": "contracts/Profile.sol:Profile",
								"label": "linkin",
								"offset": 0,
								"slot": "5",
								"type": "t_string_storage"
							}
						],
						"numberOfBytes": "192"
					},
					"t_struct(Education)77_storage": {
						"encoding": "inplace",
						"label": "struct Profile.Education",
						"members": [
							{
								"astId": 68,
								"contract": "contracts/Profile.sol:Profile",
								"label": "startDate",
								"offset": 0,
								"slot": "0",
								"type": "t_string_storage"
							},
							{
								"astId": 70,
								"contract": "contracts/Profile.sol:Profile",
								"label": "endDate",
								"offset": 0,
								"slot": "1",
								"type": "t_string_storage"
							},
							{
								"astId": 72,
								"contract": "contracts/Profile.sol:Profile",
								"label": "univercity",
								"offset": 0,
								"slot": "2",
								"type": "t_string_storage"
							},
							{
								"astId": 74,
								"contract": "contracts/Profile.sol:Profile",
								"label": "major",
								"offset": 0,
								"slot": "3",
								"type": "t_string_storage"
							},
							{
								"astId": 76,
								"contract": "contracts/Profile.sol:Profile",
								"label": "finalProject",
								"offset": 0,
								"slot": "4",
								"type": "t_string_storage"
							}
						],
						"numberOfBytes": "160"
					},
					"t_struct(Information)43_storage": {
						"encoding": "inplace",
						"label": "struct Profile.Information",
						"members": [
							{
								"astId": 28,
								"contract": "contracts/Profile.sol:Profile",
								"label": "aboutMe",
								"offset": 0,
								"slot": "0",
								"type": "t_string_storage"
							},
							{
								"astId": 30,
								"contract": "contracts/Profile.sol:Profile",
								"label": "position",
								"offset": 0,
								"slot": "1",
								"type": "t_string_storage"
							},
							{
								"astId": 32,
								"contract": "contracts/Profile.sol:Profile",
								"label": "userAddress",
								"offset": 0,
								"slot": "2",
								"type": "t_address"
							},
							{
								"astId": 34,
								"contract": "contracts/Profile.sol:Profile",
								"label": "firstName",
								"offset": 0,
								"slot": "3",
								"type": "t_string_storage"
							},
							{
								"astId": 36,
								"contract": "contracts/Profile.sol:Profile",
								"label": "middleName",
								"offset": 0,
								"slot": "4",
								"type": "t_string_storage"
							},
							{
								"astId": 38,
								"contract": "contracts/Profile.sol:Profile",
								"label": "lastName",
								"offset": 0,
								"slot": "5",
								"type": "t_string_storage"
							},
							{
								"astId": 40,
								"contract": "contracts/Profile.sol:Profile",
								"label": "profileImage",
								"offset": 0,
								"slot": "6",
								"type": "t_string_storage"
							},
							{
								"astId": 42,
								"contract": "contracts/Profile.sol:Profile",
								"label": "createDate",
								"offset": 0,
								"slot": "7",
								"type": "t_uint256"
							}
						],
						"numberOfBytes": "256"
					},
					"t_struct(Skill)66_storage": {
						"encoding": "inplace",
						"label": "struct Profile.Skill",
						"members": [
							{
								"astId": 59,
								"contract": "contracts/Profile.sol:Profile",
								"label": "programmingLanguages",
								"offset": 0,
								"slot": "0",
								"type": "t_array(t_string_storage)dyn_storage"
							},
							{
								"astId": 62,
								"contract": "contracts/Profile.sol:Profile",
								"label": "framework",
								"offset": 0,
								"slot": "1",
								"type": "t_array(t_string_storage)dyn_storage"
							},
							{
								"astId": 65,
								"contract": "contracts/Profile.sol:Profile",
								"label": "databaseAndOther",
								"offset": 0,
								"slot": "2",
								"type": "t_array(t_string_storage)dyn_storage"
							}
						],
						"numberOfBytes": "96"
					},
					"t_uint256": {
						"encoding": "inplace",
						"label": "uint256",
						"numberOfBytes": "32"
					}
				}
			},
			"userdoc": {
				"kind": "user",
				"methods": {},
				"version": 1
			}
		}
	}
}