{
	"contracts/Profile.sol": {
		"Profile": {
			"abi": [
				{
					"inputs": [
						{
							"internalType": "address",
							"name": "_user",
							"type": "address"
						}
					],
					"name": "addBio",
					"outputs": [],
					"stateMutability": "nonpayable",
					"type": "function"
				},
				{
					"inputs": [],
					"name": "getBio",
					"outputs": [
						{
							"internalType": "uint8",
							"name": "",
							"type": "uint8"
						}
					],
					"stateMutability": "view",
					"type": "function"
				}
			],
			"devdoc": {
				"kind": "dev",
				"methods": {},
				"version": 1
			},
			"evm": {
				"assembly": "    /* \"contracts/Profile.sol\":64:453  contract Profile {\r... */\n  mstore(0x40, 0x80)\n  callvalue\n  dup1\n  iszero\n  tag_1\n  jumpi\n  0x00\n  dup1\n  revert\ntag_1:\n  pop\n  dataSize(sub_0)\n  dup1\n  dataOffset(sub_0)\n  0x00\n  codecopy\n  0x00\n  return\nstop\n\nsub_0: assembly {\n        /* \"contracts/Profile.sol\":64:453  contract Profile {\r... */\n      mstore(0x40, 0x80)\n      callvalue\n      dup1\n      iszero\n      tag_1\n      jumpi\n      0x00\n      dup1\n      revert\n    tag_1:\n      pop\n      jumpi(tag_2, lt(calldatasize, 0x04))\n      shr(0xe0, calldataload(0x00))\n      dup1\n      0xe7862396\n      eq\n      tag_3\n      jumpi\n      dup1\n      0xfa165e8f\n      eq\n      tag_4\n      jumpi\n    tag_2:\n      0x00\n      dup1\n      revert\n        /* \"contracts/Profile.sol\":211:302  function addBio(address _user) public {\r... */\n    tag_3:\n      tag_5\n      0x04\n      dup1\n      calldatasize\n      sub\n      dup2\n      add\n      swap1\n      tag_6\n      swap2\n      swap1\n      tag_7\n      jump\t// in\n    tag_6:\n      tag_8\n      jump\t// in\n    tag_5:\n      stop\n        /* \"contracts/Profile.sol\":310:450  function getBio() public view returns(uint8) {\r... */\n    tag_4:\n      tag_9\n      tag_10\n      jump\t// in\n    tag_9:\n      mload(0x40)\n      tag_11\n      swap2\n      swap1\n      tag_12\n      jump\t// in\n    tag_11:\n      mload(0x40)\n      dup1\n      swap2\n      sub\n      swap1\n      return\n        /* \"contracts/Profile.sol\":211:302  function addBio(address _user) public {\r... */\n    tag_8:\n        /* \"contracts/Profile.sol\":277:294  Bio(\"Tim\", \"Tim\") */\n      mload(0x40)\n      dup1\n      0x40\n      add\n      0x40\n      mstore\n      dup1\n      mload(0x40)\n      dup1\n      0x40\n      add\n      0x40\n      mstore\n      dup1\n      0x03\n      dup2\n      mstore\n      0x20\n      add\n      0x54696d0000000000000000000000000000000000000000000000000000000000\n      dup2\n      mstore\n      pop\n      dup2\n      mstore\n      0x20\n      add\n      mload(0x40)\n      dup1\n      0x40\n      add\n      0x40\n      mstore\n      dup1\n      0x03\n      dup2\n      mstore\n      0x20\n      add\n      0x54696d0000000000000000000000000000000000000000000000000000000000\n      dup2\n      mstore\n      pop\n      dup2\n      mstore\n      pop\n        /* \"contracts/Profile.sol\":260:267  profile */\n      0x00\n        /* \"contracts/Profile.sol\":260:274  profile[_user] */\n      dup1\n        /* \"contracts/Profile.sol\":268:273  _user */\n      dup4\n        /* \"contracts/Profile.sol\":260:274  profile[_user] */\n      0xffffffffffffffffffffffffffffffffffffffff\n      and\n      0xffffffffffffffffffffffffffffffffffffffff\n      and\n      dup2\n      mstore\n      0x20\n      add\n      swap1\n      dup2\n      mstore\n      0x20\n      add\n      0x00\n      keccak256\n        /* \"contracts/Profile.sol\":260:294  profile[_user] = Bio(\"Tim\", \"Tim\") */\n      0x00\n      dup3\n      add\n      mload\n      dup2\n      0x00\n      add\n      swap1\n      dup1\n      mload\n      swap1\n      0x20\n      add\n      swap1\n      tag_14\n      swap3\n      swap2\n      swap1\n      tag_15\n      jump\t// in\n    tag_14:\n      pop\n      0x20\n      dup3\n      add\n      mload\n      dup2\n      0x01\n      add\n      swap1\n      dup1\n      mload\n      swap1\n      0x20\n      add\n      swap1\n      tag_16\n      swap3\n      swap2\n      swap1\n      tag_15\n      jump\t// in\n    tag_16:\n      pop\n      swap1\n      pop\n      pop\n        /* \"contracts/Profile.sol\":211:302  function addBio(address _user) public {\r... */\n      pop\n      jump\t// out\n        /* \"contracts/Profile.sol\":310:450  function getBio() public view returns(uint8) {\r... */\n    tag_10:\n        /* \"contracts/Profile.sol\":348:353  uint8 */\n      0x00\n        /* \"contracts/Profile.sol\":366:378  address user */\n      dup1\n        /* \"contracts/Profile.sol\":381:423  0x5B38Da6a701c568545dCfcB03FcB875f56beddC4 */\n      0x5b38da6a701c568545dcfcb03fcb875f56beddc4\n        /* \"contracts/Profile.sol\":366:423  address user = 0x5B38Da6a701c568545dCfcB03FcB875f56beddC4 */\n      swap1\n      pop\n        /* \"contracts/Profile.sol\":441:442  1 */\n      0x01\n        /* \"contracts/Profile.sol\":434:442  return 1 */\n      swap2\n      pop\n      pop\n        /* \"contracts/Profile.sol\":310:450  function getBio() public view returns(uint8) {\r... */\n      swap1\n      jump\t// out\n    tag_15:\n      dup3\n      dup1\n      sload\n      tag_18\n      swap1\n      tag_19\n      jump\t// in\n    tag_18:\n      swap1\n      0x00\n      mstore\n      keccak256(0x00, 0x20)\n      swap1\n      0x1f\n      add\n      0x20\n      swap1\n      div\n      dup2\n      add\n      swap3\n      dup3\n      tag_21\n      jumpi\n      0x00\n      dup6\n      sstore\n      jump(tag_20)\n    tag_21:\n      dup3\n      0x1f\n      lt\n      tag_22\n      jumpi\n      dup1\n      mload\n      not(0xff)\n      and\n      dup4\n      dup1\n      add\n      or\n      dup6\n      sstore\n      jump(tag_20)\n    tag_22:\n      dup3\n      dup1\n      add\n      0x01\n      add\n      dup6\n      sstore\n      dup3\n      iszero\n      tag_20\n      jumpi\n      swap2\n      dup3\n      add\n    tag_23:\n      dup3\n      dup2\n      gt\n      iszero\n      tag_24\n      jumpi\n      dup3\n      mload\n      dup3\n      sstore\n      swap2\n      0x20\n      add\n      swap2\n      swap1\n      0x01\n      add\n      swap1\n      jump(tag_23)\n    tag_24:\n    tag_20:\n      pop\n      swap1\n      pop\n      tag_25\n      swap2\n      swap1\n      tag_26\n      jump\t// in\n    tag_25:\n      pop\n      swap1\n      jump\t// out\n    tag_26:\n    tag_27:\n      dup1\n      dup3\n      gt\n      iszero\n      tag_28\n      jumpi\n      0x00\n      dup2\n      0x00\n      swap1\n      sstore\n      pop\n      0x01\n      add\n      jump(tag_27)\n    tag_28:\n      pop\n      swap1\n      jump\t// out\n        /* \"#utility.yul\":7:146   */\n    tag_30:\n        /* \"#utility.yul\":53:58   */\n      0x00\n        /* \"#utility.yul\":91:97   */\n      dup2\n        /* \"#utility.yul\":78:98   */\n      calldataload\n        /* \"#utility.yul\":69:98   */\n      swap1\n      pop\n        /* \"#utility.yul\":107:140   */\n      tag_32\n        /* \"#utility.yul\":134:139   */\n      dup2\n        /* \"#utility.yul\":107:140   */\n      tag_33\n      jump\t// in\n    tag_32:\n        /* \"#utility.yul\":7:146   */\n      swap3\n      swap2\n      pop\n      pop\n      jump\t// out\n        /* \"#utility.yul\":152:481   */\n    tag_7:\n        /* \"#utility.yul\":211:217   */\n      0x00\n        /* \"#utility.yul\":260:262   */\n      0x20\n        /* \"#utility.yul\":248:257   */\n      dup3\n        /* \"#utility.yul\":239:246   */\n      dup5\n        /* \"#utility.yul\":235:258   */\n      sub\n        /* \"#utility.yul\":231:263   */\n      slt\n        /* \"#utility.yul\":228:347   */\n      iszero\n      tag_35\n      jumpi\n        /* \"#utility.yul\":266:345   */\n      tag_36\n      tag_37\n      jump\t// in\n    tag_36:\n        /* \"#utility.yul\":228:347   */\n    tag_35:\n        /* \"#utility.yul\":386:387   */\n      0x00\n        /* \"#utility.yul\":411:464   */\n      tag_38\n        /* \"#utility.yul\":456:463   */\n      dup5\n        /* \"#utility.yul\":447:453   */\n      dup3\n        /* \"#utility.yul\":436:445   */\n      dup6\n        /* \"#utility.yul\":432:454   */\n      add\n        /* \"#utility.yul\":411:464   */\n      tag_30\n      jump\t// in\n    tag_38:\n        /* \"#utility.yul\":401:464   */\n      swap2\n      pop\n        /* \"#utility.yul\":357:474   */\n      pop\n        /* \"#utility.yul\":152:481   */\n      swap3\n      swap2\n      pop\n      pop\n      jump\t// out\n        /* \"#utility.yul\":487:599   */\n    tag_39:\n        /* \"#utility.yul\":570:592   */\n      tag_41\n        /* \"#utility.yul\":586:591   */\n      dup2\n        /* \"#utility.yul\":570:592   */\n      tag_42\n      jump\t// in\n    tag_41:\n        /* \"#utility.yul\":565:568   */\n      dup3\n        /* \"#utility.yul\":558:593   */\n      mstore\n        /* \"#utility.yul\":487:599   */\n      pop\n      pop\n      jump\t// out\n        /* \"#utility.yul\":605:819   */\n    tag_12:\n        /* \"#utility.yul\":694:698   */\n      0x00\n        /* \"#utility.yul\":732:734   */\n      0x20\n        /* \"#utility.yul\":721:730   */\n      dup3\n        /* \"#utility.yul\":717:735   */\n      add\n        /* \"#utility.yul\":709:735   */\n      swap1\n      pop\n        /* \"#utility.yul\":745:812   */\n      tag_44\n        /* \"#utility.yul\":809:810   */\n      0x00\n        /* \"#utility.yul\":798:807   */\n      dup4\n        /* \"#utility.yul\":794:811   */\n      add\n        /* \"#utility.yul\":785:791   */\n      dup5\n        /* \"#utility.yul\":745:812   */\n      tag_39\n      jump\t// in\n    tag_44:\n        /* \"#utility.yul\":605:819   */\n      swap3\n      swap2\n      pop\n      pop\n      jump\t// out\n        /* \"#utility.yul\":906:1002   */\n    tag_47:\n        /* \"#utility.yul\":943:950   */\n      0x00\n        /* \"#utility.yul\":972:996   */\n      tag_49\n        /* \"#utility.yul\":990:995   */\n      dup3\n        /* \"#utility.yul\":972:996   */\n      tag_50\n      jump\t// in\n    tag_49:\n        /* \"#utility.yul\":961:996   */\n      swap1\n      pop\n        /* \"#utility.yul\":906:1002   */\n      swap2\n      swap1\n      pop\n      jump\t// out\n        /* \"#utility.yul\":1008:1134   */\n    tag_50:\n        /* \"#utility.yul\":1045:1052   */\n      0x00\n        /* \"#utility.yul\":1085:1127   */\n      0xffffffffffffffffffffffffffffffffffffffff\n        /* \"#utility.yul\":1078:1083   */\n      dup3\n        /* \"#utility.yul\":1074:1128   */\n      and\n        /* \"#utility.yul\":1063:1128   */\n      swap1\n      pop\n        /* \"#utility.yul\":1008:1134   */\n      swap2\n      swap1\n      pop\n      jump\t// out\n        /* \"#utility.yul\":1140:1226   */\n    tag_42:\n        /* \"#utility.yul\":1175:1182   */\n      0x00\n        /* \"#utility.yul\":1215:1219   */\n      0xff\n        /* \"#utility.yul\":1208:1213   */\n      dup3\n        /* \"#utility.yul\":1204:1220   */\n      and\n        /* \"#utility.yul\":1193:1220   */\n      swap1\n      pop\n        /* \"#utility.yul\":1140:1226   */\n      swap2\n      swap1\n      pop\n      jump\t// out\n        /* \"#utility.yul\":1232:1552   */\n    tag_19:\n        /* \"#utility.yul\":1276:1282   */\n      0x00\n        /* \"#utility.yul\":1313:1314   */\n      0x02\n        /* \"#utility.yul\":1307:1311   */\n      dup3\n        /* \"#utility.yul\":1303:1315   */\n      div\n        /* \"#utility.yul\":1293:1315   */\n      swap1\n      pop\n        /* \"#utility.yul\":1360:1361   */\n      0x01\n        /* \"#utility.yul\":1354:1358   */\n      dup3\n        /* \"#utility.yul\":1350:1362   */\n      and\n        /* \"#utility.yul\":1381:1399   */\n      dup1\n        /* \"#utility.yul\":1371:1452   */\n      tag_54\n      jumpi\n        /* \"#utility.yul\":1437:1441   */\n      0x7f\n        /* \"#utility.yul\":1429:1435   */\n      dup3\n        /* \"#utility.yul\":1425:1442   */\n      and\n        /* \"#utility.yul\":1415:1442   */\n      swap2\n      pop\n        /* \"#utility.yul\":1371:1452   */\n    tag_54:\n        /* \"#utility.yul\":1499:1501   */\n      0x20\n        /* \"#utility.yul\":1491:1497   */\n      dup3\n        /* \"#utility.yul\":1488:1502   */\n      lt\n        /* \"#utility.yul\":1468:1486   */\n      dup2\n        /* \"#utility.yul\":1465:1503   */\n      eq\n        /* \"#utility.yul\":1462:1546   */\n      iszero\n      tag_55\n      jumpi\n        /* \"#utility.yul\":1518:1536   */\n      tag_56\n      tag_57\n      jump\t// in\n    tag_56:\n        /* \"#utility.yul\":1462:1546   */\n    tag_55:\n        /* \"#utility.yul\":1283:1552   */\n      pop\n        /* \"#utility.yul\":1232:1552   */\n      swap2\n      swap1\n      pop\n      jump\t// out\n        /* \"#utility.yul\":1558:1738   */\n    tag_57:\n        /* \"#utility.yul\":1606:1683   */\n      0x4e487b7100000000000000000000000000000000000000000000000000000000\n        /* \"#utility.yul\":1603:1604   */\n      0x00\n        /* \"#utility.yul\":1596:1684   */\n      mstore\n        /* \"#utility.yul\":1703:1707   */\n      0x22\n        /* \"#utility.yul\":1700:1701   */\n      0x04\n        /* \"#utility.yul\":1693:1708   */\n      mstore\n        /* \"#utility.yul\":1727:1731   */\n      0x24\n        /* \"#utility.yul\":1724:1725   */\n      0x00\n        /* \"#utility.yul\":1717:1732   */\n      revert\n        /* \"#utility.yul\":1867:1984   */\n    tag_37:\n        /* \"#utility.yul\":1976:1977   */\n      0x00\n        /* \"#utility.yul\":1973:1974   */\n      dup1\n        /* \"#utility.yul\":1966:1978   */\n      revert\n        /* \"#utility.yul\":1990:2112   */\n    tag_33:\n        /* \"#utility.yul\":2063:2087   */\n      tag_63\n        /* \"#utility.yul\":2081:2086   */\n      dup2\n        /* \"#utility.yul\":2063:2087   */\n      tag_47\n      jump\t// in\n    tag_63:\n        /* \"#utility.yul\":2056:2061   */\n      dup2\n        /* \"#utility.yul\":2053:2088   */\n      eq\n        /* \"#utility.yul\":2043:2106   */\n      tag_64\n      jumpi\n        /* \"#utility.yul\":2102:2103   */\n      0x00\n        /* \"#utility.yul\":2099:2100   */\n      dup1\n        /* \"#utility.yul\":2092:2104   */\n      revert\n        /* \"#utility.yul\":2043:2106   */\n    tag_64:\n        /* \"#utility.yul\":1990:2112   */\n      pop\n      jump\t// out\n\n    auxdata: 0xa26469706673582212200981819ed7d0bf840c2d42f379880ebd1575abcd24043d716ad3c331adc58cc264736f6c63430008070033\n}\n",
				"bytecode": {
					"linkReferences": {},
					"object": "608060405234801561001057600080fd5b50610395806100206000396000f3fe608060405234801561001057600080fd5b50600436106100365760003560e01c8063e78623961461003b578063fa165e8f14610057575b600080fd5b6100556004803603810190610050919061024c565b610075565b005b61005f610172565b60405161006c9190610288565b60405180910390f35b60405180604001604052806040518060400160405280600381526020017f54696d000000000000000000000000000000000000000000000000000000000081525081526020016040518060400160405280600381526020017f54696d00000000000000000000000000000000000000000000000000000000008152508152506000808373ffffffffffffffffffffffffffffffffffffffff1673ffffffffffffffffffffffffffffffffffffffff168152602001908152602001600020600082015181600001908051906020019061014e929190610194565b50602082015181600101908051906020019061016b929190610194565b5090505050565b600080735b38da6a701c568545dcfcb03fcb875f56beddc49050600191505090565b8280546101a0906102e2565b90600052602060002090601f0160209004810192826101c25760008555610209565b82601f106101db57805160ff1916838001178555610209565b82800160010185558215610209579182015b828111156102085782518255916020019190600101906101ed565b5b509050610216919061021a565b5090565b5b8082111561023357600081600090555060010161021b565b5090565b60008135905061024681610348565b92915050565b60006020828403121561026257610261610343565b5b600061027084828501610237565b91505092915050565b610282816102d5565b82525050565b600060208201905061029d6000830184610279565b92915050565b60006102ae826102b5565b9050919050565b600073ffffffffffffffffffffffffffffffffffffffff82169050919050565b600060ff82169050919050565b600060028204905060018216806102fa57607f821691505b6020821081141561030e5761030d610314565b5b50919050565b7f4e487b7100000000000000000000000000000000000000000000000000000000600052602260045260246000fd5b600080fd5b610351816102a3565b811461035c57600080fd5b5056fea26469706673582212200981819ed7d0bf840c2d42f379880ebd1575abcd24043d716ad3c331adc58cc264736f6c63430008070033",
					"opcodes": "PUSH1 0x80 PUSH1 0x40 MSTORE CALLVALUE DUP1 ISZERO PUSH2 0x10 JUMPI PUSH1 0x0 DUP1 REVERT JUMPDEST POP PUSH2 0x395 DUP1 PUSH2 0x20 PUSH1 0x0 CODECOPY PUSH1 0x0 RETURN INVALID PUSH1 0x80 PUSH1 0x40 MSTORE CALLVALUE DUP1 ISZERO PUSH2 0x10 JUMPI PUSH1 0x0 DUP1 REVERT JUMPDEST POP PUSH1 0x4 CALLDATASIZE LT PUSH2 0x36 JUMPI PUSH1 0x0 CALLDATALOAD PUSH1 0xE0 SHR DUP1 PUSH4 0xE7862396 EQ PUSH2 0x3B JUMPI DUP1 PUSH4 0xFA165E8F EQ PUSH2 0x57 JUMPI JUMPDEST PUSH1 0x0 DUP1 REVERT JUMPDEST PUSH2 0x55 PUSH1 0x4 DUP1 CALLDATASIZE SUB DUP2 ADD SWAP1 PUSH2 0x50 SWAP2 SWAP1 PUSH2 0x24C JUMP JUMPDEST PUSH2 0x75 JUMP JUMPDEST STOP JUMPDEST PUSH2 0x5F PUSH2 0x172 JUMP JUMPDEST PUSH1 0x40 MLOAD PUSH2 0x6C SWAP2 SWAP1 PUSH2 0x288 JUMP JUMPDEST PUSH1 0x40 MLOAD DUP1 SWAP2 SUB SWAP1 RETURN JUMPDEST PUSH1 0x40 MLOAD DUP1 PUSH1 0x40 ADD PUSH1 0x40 MSTORE DUP1 PUSH1 0x40 MLOAD DUP1 PUSH1 0x40 ADD PUSH1 0x40 MSTORE DUP1 PUSH1 0x3 DUP2 MSTORE PUSH1 0x20 ADD PUSH32 0x54696D0000000000000000000000000000000000000000000000000000000000 DUP2 MSTORE POP DUP2 MSTORE PUSH1 0x20 ADD PUSH1 0x40 MLOAD DUP1 PUSH1 0x40 ADD PUSH1 0x40 MSTORE DUP1 PUSH1 0x3 DUP2 MSTORE PUSH1 0x20 ADD PUSH32 0x54696D0000000000000000000000000000000000000000000000000000000000 DUP2 MSTORE POP DUP2 MSTORE POP PUSH1 0x0 DUP1 DUP4 PUSH20 0xFFFFFFFFFFFFFFFFFFFFFFFFFFFFFFFFFFFFFFFF AND PUSH20 0xFFFFFFFFFFFFFFFFFFFFFFFFFFFFFFFFFFFFFFFF AND DUP2 MSTORE PUSH1 0x20 ADD SWAP1 DUP2 MSTORE PUSH1 0x20 ADD PUSH1 0x0 KECCAK256 PUSH1 0x0 DUP3 ADD MLOAD DUP2 PUSH1 0x0 ADD SWAP1 DUP1 MLOAD SWAP1 PUSH1 0x20 ADD SWAP1 PUSH2 0x14E SWAP3 SWAP2 SWAP1 PUSH2 0x194 JUMP JUMPDEST POP PUSH1 0x20 DUP3 ADD MLOAD DUP2 PUSH1 0x1 ADD SWAP1 DUP1 MLOAD SWAP1 PUSH1 0x20 ADD SWAP1 PUSH2 0x16B SWAP3 SWAP2 SWAP1 PUSH2 0x194 JUMP JUMPDEST POP SWAP1 POP POP POP JUMP JUMPDEST PUSH1 0x0 DUP1 PUSH20 0x5B38DA6A701C568545DCFCB03FCB875F56BEDDC4 SWAP1 POP PUSH1 0x1 SWAP2 POP POP SWAP1 JUMP JUMPDEST DUP3 DUP1 SLOAD PUSH2 0x1A0 SWAP1 PUSH2 0x2E2 JUMP JUMPDEST SWAP1 PUSH1 0x0 MSTORE PUSH1 0x20 PUSH1 0x0 KECCAK256 SWAP1 PUSH1 0x1F ADD PUSH1 0x20 SWAP1 DIV DUP2 ADD SWAP3 DUP3 PUSH2 0x1C2 JUMPI PUSH1 0x0 DUP6 SSTORE PUSH2 0x209 JUMP JUMPDEST DUP3 PUSH1 0x1F LT PUSH2 0x1DB JUMPI DUP1 MLOAD PUSH1 0xFF NOT AND DUP4 DUP1 ADD OR DUP6 SSTORE PUSH2 0x209 JUMP JUMPDEST DUP3 DUP1 ADD PUSH1 0x1 ADD DUP6 SSTORE DUP3 ISZERO PUSH2 0x209 JUMPI SWAP2 DUP3 ADD JUMPDEST DUP3 DUP2 GT ISZERO PUSH2 0x208 JUMPI DUP3 MLOAD DUP3 SSTORE SWAP2 PUSH1 0x20 ADD SWAP2 SWAP1 PUSH1 0x1 ADD SWAP1 PUSH2 0x1ED JUMP JUMPDEST JUMPDEST POP SWAP1 POP PUSH2 0x216 SWAP2 SWAP1 PUSH2 0x21A JUMP JUMPDEST POP SWAP1 JUMP JUMPDEST JUMPDEST DUP1 DUP3 GT ISZERO PUSH2 0x233 JUMPI PUSH1 0x0 DUP2 PUSH1 0x0 SWAP1 SSTORE POP PUSH1 0x1 ADD PUSH2 0x21B JUMP JUMPDEST POP SWAP1 JUMP JUMPDEST PUSH1 0x0 DUP2 CALLDATALOAD SWAP1 POP PUSH2 0x246 DUP2 PUSH2 0x348 JUMP JUMPDEST SWAP3 SWAP2 POP POP JUMP JUMPDEST PUSH1 0x0 PUSH1 0x20 DUP3 DUP5 SUB SLT ISZERO PUSH2 0x262 JUMPI PUSH2 0x261 PUSH2 0x343 JUMP JUMPDEST JUMPDEST PUSH1 0x0 PUSH2 0x270 DUP5 DUP3 DUP6 ADD PUSH2 0x237 JUMP JUMPDEST SWAP2 POP POP SWAP3 SWAP2 POP POP JUMP JUMPDEST PUSH2 0x282 DUP2 PUSH2 0x2D5 JUMP JUMPDEST DUP3 MSTORE POP POP JUMP JUMPDEST PUSH1 0x0 PUSH1 0x20 DUP3 ADD SWAP1 POP PUSH2 0x29D PUSH1 0x0 DUP4 ADD DUP5 PUSH2 0x279 JUMP JUMPDEST SWAP3 SWAP2 POP POP JUMP JUMPDEST PUSH1 0x0 PUSH2 0x2AE DUP3 PUSH2 0x2B5 JUMP JUMPDEST SWAP1 POP SWAP2 SWAP1 POP JUMP JUMPDEST PUSH1 0x0 PUSH20 0xFFFFFFFFFFFFFFFFFFFFFFFFFFFFFFFFFFFFFFFF DUP3 AND SWAP1 POP SWAP2 SWAP1 POP JUMP JUMPDEST PUSH1 0x0 PUSH1 0xFF DUP3 AND SWAP1 POP SWAP2 SWAP1 POP JUMP JUMPDEST PUSH1 0x0 PUSH1 0x2 DUP3 DIV SWAP1 POP PUSH1 0x1 DUP3 AND DUP1 PUSH2 0x2FA JUMPI PUSH1 0x7F DUP3 AND SWAP2 POP JUMPDEST PUSH1 0x20 DUP3 LT DUP2 EQ ISZERO PUSH2 0x30E JUMPI PUSH2 0x30D PUSH2 0x314 JUMP JUMPDEST JUMPDEST POP SWAP2 SWAP1 POP JUMP JUMPDEST PUSH32 0x4E487B7100000000000000000000000000000000000000000000000000000000 PUSH1 0x0 MSTORE PUSH1 0x22 PUSH1 0x4 MSTORE PUSH1 0x24 PUSH1 0x0 REVERT JUMPDEST PUSH1 0x0 DUP1 REVERT JUMPDEST PUSH2 0x351 DUP2 PUSH2 0x2A3 JUMP JUMPDEST DUP2 EQ PUSH2 0x35C JUMPI PUSH1 0x0 DUP1 REVERT JUMPDEST POP JUMP INVALID LOG2 PUSH5 0x6970667358 0x22 SLT KECCAK256 MULMOD DUP2 DUP2 SWAP15 0xD7 0xD0 0xBF DUP5 0xC 0x2D TIMESTAMP RETURN PUSH26 0x880EBD1575ABCD24043D716AD3C331ADC58CC264736F6C634300 ADDMOD SMOD STOP CALLER "
				},
				"gasEstimates": {
					"creation": {
						"codeDepositCost": "183400",
						"executionCost": "226",
						"totalCost": "183626"
					},
					"external": {
						"addBio(address)": "infinite",
						"getBio()": "356"
					}
				},
				"methodIdentifiers": {
					"addBio(address)": "e7862396",
					"getBio()": "fa165e8f"
				}
			},
			"storageLayout": {
				"storage": [
					{
						"astId": 11,
						"contract": "contracts/Profile.sol:Profile",
						"label": "profile",
						"offset": 0,
						"slot": "0",
						"type": "t_mapping(t_address,t_struct(Bio)6_storage)"
					}
				],
				"types": {
					"t_address": {
						"encoding": "inplace",
						"label": "address",
						"numberOfBytes": "20"
					},
					"t_mapping(t_address,t_struct(Bio)6_storage)": {
						"encoding": "mapping",
						"key": "t_address",
						"label": "mapping(address => struct Profile.Bio)",
						"numberOfBytes": "32",
						"value": "t_struct(Bio)6_storage"
					},
					"t_string_storage": {
						"encoding": "bytes",
						"label": "string",
						"numberOfBytes": "32"
					},
					"t_struct(Bio)6_storage": {
						"encoding": "inplace",
						"label": "struct Profile.Bio",
						"members": [
							{
								"astId": 3,
								"contract": "contracts/Profile.sol:Profile",
								"label": "firstName",
								"offset": 0,
								"slot": "0",
								"type": "t_string_storage"
							},
							{
								"astId": 5,
								"contract": "contracts/Profile.sol:Profile",
								"label": "lastName",
								"offset": 0,
								"slot": "1",
								"type": "t_string_storage"
							}
						],
						"numberOfBytes": "64"
					}
				}
			},
			"userdoc": {
				"kind": "user",
				"methods": {},
				"version": 1
			}
		}
	}
}