{
	"contracts/Profile.sol": {
		"Profile": {
			"abi": [
				{
					"inputs": [
						{
							"internalType": "string",
							"name": "firstName",
							"type": "string"
						},
						{
							"internalType": "string",
							"name": "middleName",
							"type": "string"
						},
						{
							"internalType": "string",
							"name": "lastName",
							"type": "string"
						}
					],
					"name": "addBio",
					"outputs": [],
					"stateMutability": "nonpayable",
					"type": "function"
				},
				{
					"inputs": [],
					"name": "getBio",
					"outputs": [
						{
							"components": [
								{
									"internalType": "string",
									"name": "firstName",
									"type": "string"
								},
								{
									"internalType": "string",
									"name": "middleName",
									"type": "string"
								},
								{
									"internalType": "string",
									"name": "lastName",
									"type": "string"
								},
								{
									"internalType": "string",
									"name": "email",
									"type": "string"
								},
								{
									"internalType": "string",
									"name": "phone",
									"type": "string"
								}
							],
							"internalType": "struct Profile.Bio",
							"name": "",
							"type": "tuple"
						}
					],
					"stateMutability": "view",
					"type": "function"
				}
			],
			"devdoc": {
				"kind": "dev",
				"methods": {},
				"version": 1
			},
			"evm": {
				"assembly": "    /* \"contracts/Profile.sol\":64:673  contract Profile {\r... */\n  mstore(0x40, 0x80)\n  callvalue\n  dup1\n  iszero\n  tag_1\n  jumpi\n  0x00\n  dup1\n  revert\ntag_1:\n  pop\n  dataSize(sub_0)\n  dup1\n  dataOffset(sub_0)\n  0x00\n  codecopy\n  0x00\n  return\nstop\n\nsub_0: assembly {\n        /* \"contracts/Profile.sol\":64:673  contract Profile {\r... */\n      mstore(0x40, 0x80)\n      callvalue\n      dup1\n      iszero\n      tag_1\n      jumpi\n      0x00\n      dup1\n      revert\n    tag_1:\n      pop\n      jumpi(tag_2, lt(calldatasize, 0x04))\n      shr(0xe0, calldataload(0x00))\n      dup1\n      0xfa165e8f\n      eq\n      tag_3\n      jumpi\n      dup1\n      0xffb40209\n      eq\n      tag_4\n      jumpi\n    tag_2:\n      0x00\n      dup1\n      revert\n        /* \"contracts/Profile.sol\":567:664  function getBio() public view returns(Bio memory ) {\r... */\n    tag_3:\n      tag_5\n      tag_6\n      jump\t// in\n    tag_5:\n      mload(0x40)\n      tag_7\n      swap2\n      swap1\n      tag_8\n      jump\t// in\n    tag_7:\n      mload(0x40)\n      dup1\n      swap2\n      sub\n      swap1\n      return\n        /* \"contracts/Profile.sol\":296:558  function addBio(string memory firstName, string memory middleName, string memory lastName) public {\r... */\n    tag_4:\n      tag_9\n      0x04\n      dup1\n      calldatasize\n      sub\n      dup2\n      add\n      swap1\n      tag_10\n      swap2\n      swap1\n      tag_11\n      jump\t// in\n    tag_10:\n      tag_12\n      jump\t// in\n    tag_9:\n      stop\n        /* \"contracts/Profile.sol\":567:664  function getBio() public view returns(Bio memory ) {\r... */\n    tag_6:\n        /* \"contracts/Profile.sol\":605:615  Bio memory */\n      tag_13\n      tag_14\n      jump\t// in\n    tag_13:\n        /* \"contracts/Profile.sol\":637:644  profile */\n      0x00\n        /* \"contracts/Profile.sol\":637:656  profile[msg.sender] */\n      dup1\n        /* \"contracts/Profile.sol\":645:655  msg.sender */\n      caller\n        /* \"contracts/Profile.sol\":637:656  profile[msg.sender] */\n      0xffffffffffffffffffffffffffffffffffffffff\n      and\n      0xffffffffffffffffffffffffffffffffffffffff\n      and\n      dup2\n      mstore\n      0x20\n      add\n      swap1\n      dup2\n      mstore\n      0x20\n      add\n      0x00\n      keccak256\n        /* \"contracts/Profile.sol\":629:656  return  profile[msg.sender] */\n      mload(0x40)\n      dup1\n      0xa0\n      add\n      0x40\n      mstore\n      swap1\n      dup2\n      0x00\n      dup3\n      add\n      dup1\n      sload\n      tag_16\n      swap1\n      tag_17\n      jump\t// in\n    tag_16:\n      dup1\n      0x1f\n      add\n      0x20\n      dup1\n      swap2\n      div\n      mul\n      0x20\n      add\n      mload(0x40)\n      swap1\n      dup2\n      add\n      0x40\n      mstore\n      dup1\n      swap3\n      swap2\n      swap1\n      dup2\n      dup2\n      mstore\n      0x20\n      add\n      dup3\n      dup1\n      sload\n      tag_18\n      swap1\n      tag_17\n      jump\t// in\n    tag_18:\n      dup1\n      iszero\n      tag_19\n      jumpi\n      dup1\n      0x1f\n      lt\n      tag_20\n      jumpi\n      0x0100\n      dup1\n      dup4\n      sload\n      div\n      mul\n      dup4\n      mstore\n      swap2\n      0x20\n      add\n      swap2\n      jump(tag_19)\n    tag_20:\n      dup3\n      add\n      swap2\n      swap1\n      0x00\n      mstore\n      keccak256(0x00, 0x20)\n      swap1\n    tag_21:\n      dup2\n      sload\n      dup2\n      mstore\n      swap1\n      0x01\n      add\n      swap1\n      0x20\n      add\n      dup1\n      dup4\n      gt\n      tag_21\n      jumpi\n      dup3\n      swap1\n      sub\n      0x1f\n      and\n      dup3\n      add\n      swap2\n    tag_19:\n      pop\n      pop\n      pop\n      pop\n      pop\n      dup2\n      mstore\n      0x20\n      add\n      0x01\n      dup3\n      add\n      dup1\n      sload\n      tag_22\n      swap1\n      tag_17\n      jump\t// in\n    tag_22:\n      dup1\n      0x1f\n      add\n      0x20\n      dup1\n      swap2\n      div\n      mul\n      0x20\n      add\n      mload(0x40)\n      swap1\n      dup2\n      add\n      0x40\n      mstore\n      dup1\n      swap3\n      swap2\n      swap1\n      dup2\n      dup2\n      mstore\n      0x20\n      add\n      dup3\n      dup1\n      sload\n      tag_23\n      swap1\n      tag_17\n      jump\t// in\n    tag_23:\n      dup1\n      iszero\n      tag_24\n      jumpi\n      dup1\n      0x1f\n      lt\n      tag_25\n      jumpi\n      0x0100\n      dup1\n      dup4\n      sload\n      div\n      mul\n      dup4\n      mstore\n      swap2\n      0x20\n      add\n      swap2\n      jump(tag_24)\n    tag_25:\n      dup3\n      add\n      swap2\n      swap1\n      0x00\n      mstore\n      keccak256(0x00, 0x20)\n      swap1\n    tag_26:\n      dup2\n      sload\n      dup2\n      mstore\n      swap1\n      0x01\n      add\n      swap1\n      0x20\n      add\n      dup1\n      dup4\n      gt\n      tag_26\n      jumpi\n      dup3\n      swap1\n      sub\n      0x1f\n      and\n      dup3\n      add\n      swap2\n    tag_24:\n      pop\n      pop\n      pop\n      pop\n      pop\n      dup2\n      mstore\n      0x20\n      add\n      0x02\n      dup3\n      add\n      dup1\n      sload\n      tag_27\n      swap1\n      tag_17\n      jump\t// in\n    tag_27:\n      dup1\n      0x1f\n      add\n      0x20\n      dup1\n      swap2\n      div\n      mul\n      0x20\n      add\n      mload(0x40)\n      swap1\n      dup2\n      add\n      0x40\n      mstore\n      dup1\n      swap3\n      swap2\n      swap1\n      dup2\n      dup2\n      mstore\n      0x20\n      add\n      dup3\n      dup1\n      sload\n      tag_28\n      swap1\n      tag_17\n      jump\t// in\n    tag_28:\n      dup1\n      iszero\n      tag_29\n      jumpi\n      dup1\n      0x1f\n      lt\n      tag_30\n      jumpi\n      0x0100\n      dup1\n      dup4\n      sload\n      div\n      mul\n      dup4\n      mstore\n      swap2\n      0x20\n      add\n      swap2\n      jump(tag_29)\n    tag_30:\n      dup3\n      add\n      swap2\n      swap1\n      0x00\n      mstore\n      keccak256(0x00, 0x20)\n      swap1\n    tag_31:\n      dup2\n      sload\n      dup2\n      mstore\n      swap1\n      0x01\n      add\n      swap1\n      0x20\n      add\n      dup1\n      dup4\n      gt\n      tag_31\n      jumpi\n      dup3\n      swap1\n      sub\n      0x1f\n      and\n      dup3\n      add\n      swap2\n    tag_29:\n      pop\n      pop\n      pop\n      pop\n      pop\n      dup2\n      mstore\n      0x20\n      add\n      0x03\n      dup3\n      add\n      dup1\n      sload\n      tag_32\n      swap1\n      tag_17\n      jump\t// in\n    tag_32:\n      dup1\n      0x1f\n      add\n      0x20\n      dup1\n      swap2\n      div\n      mul\n      0x20\n      add\n      mload(0x40)\n      swap1\n      dup2\n      add\n      0x40\n      mstore\n      dup1\n      swap3\n      swap2\n      swap1\n      dup2\n      dup2\n      mstore\n      0x20\n      add\n      dup3\n      dup1\n      sload\n      tag_33\n      swap1\n      tag_17\n      jump\t// in\n    tag_33:\n      dup1\n      iszero\n      tag_34\n      jumpi\n      dup1\n      0x1f\n      lt\n      tag_35\n      jumpi\n      0x0100\n      dup1\n      dup4\n      sload\n      div\n      mul\n      dup4\n      mstore\n      swap2\n      0x20\n      add\n      swap2\n      jump(tag_34)\n    tag_35:\n      dup3\n      add\n      swap2\n      swap1\n      0x00\n      mstore\n      keccak256(0x00, 0x20)\n      swap1\n    tag_36:\n      dup2\n      sload\n      dup2\n      mstore\n      swap1\n      0x01\n      add\n      swap1\n      0x20\n      add\n      dup1\n      dup4\n      gt\n      tag_36\n      jumpi\n      dup3\n      swap1\n      sub\n      0x1f\n      and\n      dup3\n      add\n      swap2\n    tag_34:\n      pop\n      pop\n      pop\n      pop\n      pop\n      dup2\n      mstore\n      0x20\n      add\n      0x04\n      dup3\n      add\n      dup1\n      sload\n      tag_37\n      swap1\n      tag_17\n      jump\t// in\n    tag_37:\n      dup1\n      0x1f\n      add\n      0x20\n      dup1\n      swap2\n      div\n      mul\n      0x20\n      add\n      mload(0x40)\n      swap1\n      dup2\n      add\n      0x40\n      mstore\n      dup1\n      swap3\n      swap2\n      swap1\n      dup2\n      dup2\n      mstore\n      0x20\n      add\n      dup3\n      dup1\n      sload\n      tag_38\n      swap1\n      tag_17\n      jump\t// in\n    tag_38:\n      dup1\n      iszero\n      tag_39\n      jumpi\n      dup1\n      0x1f\n      lt\n      tag_40\n      jumpi\n      0x0100\n      dup1\n      dup4\n      sload\n      div\n      mul\n      dup4\n      mstore\n      swap2\n      0x20\n      add\n      swap2\n      jump(tag_39)\n    tag_40:\n      dup3\n      add\n      swap2\n      swap1\n      0x00\n      mstore\n      keccak256(0x00, 0x20)\n      swap1\n    tag_41:\n      dup2\n      sload\n      dup2\n      mstore\n      swap1\n      0x01\n      add\n      swap1\n      0x20\n      add\n      dup1\n      dup4\n      gt\n      tag_41\n      jumpi\n      dup3\n      swap1\n      sub\n      0x1f\n      and\n      dup3\n      add\n      swap2\n    tag_39:\n      pop\n      pop\n      pop\n      pop\n      pop\n      dup2\n      mstore\n      pop\n      pop\n      swap1\n      pop\n        /* \"contracts/Profile.sol\":567:664  function getBio() public view returns(Bio memory ) {\r... */\n      swap1\n      jump\t// out\n        /* \"contracts/Profile.sol\":296:558  function addBio(string memory firstName, string memory middleName, string memory lastName) public {\r... */\n    tag_12:\n        /* \"contracts/Profile.sol\":437:446  firstName */\n      dup3\n        /* \"contracts/Profile.sol\":405:412  profile */\n      0x00\n        /* \"contracts/Profile.sol\":405:424  profile[msg.sender] */\n      dup1\n        /* \"contracts/Profile.sol\":413:423  msg.sender */\n      caller\n        /* \"contracts/Profile.sol\":405:424  profile[msg.sender] */\n      0xffffffffffffffffffffffffffffffffffffffff\n      and\n      0xffffffffffffffffffffffffffffffffffffffff\n      and\n      dup2\n      mstore\n      0x20\n      add\n      swap1\n      dup2\n      mstore\n      0x20\n      add\n      0x00\n      keccak256\n        /* \"contracts/Profile.sol\":405:434  profile[msg.sender].firstName */\n      0x00\n      add\n        /* \"contracts/Profile.sol\":405:446  profile[msg.sender].firstName = firstName */\n      swap1\n      dup1\n      mload\n      swap1\n      0x20\n      add\n      swap1\n      tag_43\n      swap3\n      swap2\n      swap1\n      tag_44\n      jump\t// in\n    tag_43:\n      pop\n        /* \"contracts/Profile.sol\":490:500  middleName */\n      dup2\n        /* \"contracts/Profile.sol\":457:464  profile */\n      0x00\n        /* \"contracts/Profile.sol\":457:476  profile[msg.sender] */\n      dup1\n        /* \"contracts/Profile.sol\":465:475  msg.sender */\n      caller\n        /* \"contracts/Profile.sol\":457:476  profile[msg.sender] */\n      0xffffffffffffffffffffffffffffffffffffffff\n      and\n      0xffffffffffffffffffffffffffffffffffffffff\n      and\n      dup2\n      mstore\n      0x20\n      add\n      swap1\n      dup2\n      mstore\n      0x20\n      add\n      0x00\n      keccak256\n        /* \"contracts/Profile.sol\":457:487  profile[msg.sender].middleName */\n      0x01\n      add\n        /* \"contracts/Profile.sol\":457:500  profile[msg.sender].middleName = middleName */\n      swap1\n      dup1\n      mload\n      swap1\n      0x20\n      add\n      swap1\n      tag_45\n      swap3\n      swap2\n      swap1\n      tag_44\n      jump\t// in\n    tag_45:\n      pop\n        /* \"contracts/Profile.sol\":542:550  lastName */\n      dup1\n        /* \"contracts/Profile.sol\":511:518  profile */\n      0x00\n        /* \"contracts/Profile.sol\":511:530  profile[msg.sender] */\n      dup1\n        /* \"contracts/Profile.sol\":519:529  msg.sender */\n      caller\n        /* \"contracts/Profile.sol\":511:530  profile[msg.sender] */\n      0xffffffffffffffffffffffffffffffffffffffff\n      and\n      0xffffffffffffffffffffffffffffffffffffffff\n      and\n      dup2\n      mstore\n      0x20\n      add\n      swap1\n      dup2\n      mstore\n      0x20\n      add\n      0x00\n      keccak256\n        /* \"contracts/Profile.sol\":511:539  profile[msg.sender].lastName */\n      0x02\n      add\n        /* \"contracts/Profile.sol\":511:550  profile[msg.sender].lastName = lastName */\n      swap1\n      dup1\n      mload\n      swap1\n      0x20\n      add\n      swap1\n      tag_46\n      swap3\n      swap2\n      swap1\n      tag_44\n      jump\t// in\n    tag_46:\n      pop\n        /* \"contracts/Profile.sol\":296:558  function addBio(string memory firstName, string memory middleName, string memory lastName) public {\r... */\n      pop\n      pop\n      pop\n      jump\t// out\n    tag_14:\n      mload(0x40)\n      dup1\n      0xa0\n      add\n      0x40\n      mstore\n      dup1\n      0x60\n      dup2\n      mstore\n      0x20\n      add\n      0x60\n      dup2\n      mstore\n      0x20\n      add\n      0x60\n      dup2\n      mstore\n      0x20\n      add\n      0x60\n      dup2\n      mstore\n      0x20\n      add\n      0x60\n      dup2\n      mstore\n      pop\n      swap1\n      jump\t// out\n    tag_44:\n      dup3\n      dup1\n      sload\n      tag_47\n      swap1\n      tag_17\n      jump\t// in\n    tag_47:\n      swap1\n      0x00\n      mstore\n      keccak256(0x00, 0x20)\n      swap1\n      0x1f\n      add\n      0x20\n      swap1\n      div\n      dup2\n      add\n      swap3\n      dup3\n      tag_49\n      jumpi\n      0x00\n      dup6\n      sstore\n      jump(tag_48)\n    tag_49:\n      dup3\n      0x1f\n      lt\n      tag_50\n      jumpi\n      dup1\n      mload\n      not(0xff)\n      and\n      dup4\n      dup1\n      add\n      or\n      dup6\n      sstore\n      jump(tag_48)\n    tag_50:\n      dup3\n      dup1\n      add\n      0x01\n      add\n      dup6\n      sstore\n      dup3\n      iszero\n      tag_48\n      jumpi\n      swap2\n      dup3\n      add\n    tag_51:\n      dup3\n      dup2\n      gt\n      iszero\n      tag_52\n      jumpi\n      dup3\n      mload\n      dup3\n      sstore\n      swap2\n      0x20\n      add\n      swap2\n      swap1\n      0x01\n      add\n      swap1\n      jump(tag_51)\n    tag_52:\n    tag_48:\n      pop\n      swap1\n      pop\n      tag_53\n      swap2\n      swap1\n      tag_54\n      jump\t// in\n    tag_53:\n      pop\n      swap1\n      jump\t// out\n    tag_54:\n    tag_55:\n      dup1\n      dup3\n      gt\n      iszero\n      tag_56\n      jumpi\n      0x00\n      dup2\n      0x00\n      swap1\n      sstore\n      pop\n      0x01\n      add\n      jump(tag_55)\n    tag_56:\n      pop\n      swap1\n      jump\t// out\n        /* \"#utility.yul\":7:419   */\n    tag_58:\n        /* \"#utility.yul\":85:90   */\n      0x00\n        /* \"#utility.yul\":110:176   */\n      tag_60\n        /* \"#utility.yul\":126:175   */\n      tag_61\n        /* \"#utility.yul\":168:174   */\n      dup5\n        /* \"#utility.yul\":126:175   */\n      tag_62\n      jump\t// in\n    tag_61:\n        /* \"#utility.yul\":110:176   */\n      tag_63\n      jump\t// in\n    tag_60:\n        /* \"#utility.yul\":101:176   */\n      swap1\n      pop\n        /* \"#utility.yul\":199:205   */\n      dup3\n        /* \"#utility.yul\":192:197   */\n      dup2\n        /* \"#utility.yul\":185:206   */\n      mstore\n        /* \"#utility.yul\":237:241   */\n      0x20\n        /* \"#utility.yul\":230:235   */\n      dup2\n        /* \"#utility.yul\":226:242   */\n      add\n        /* \"#utility.yul\":275:278   */\n      dup5\n        /* \"#utility.yul\":266:272   */\n      dup5\n        /* \"#utility.yul\":261:264   */\n      dup5\n        /* \"#utility.yul\":257:273   */\n      add\n        /* \"#utility.yul\":254:279   */\n      gt\n        /* \"#utility.yul\":251:363   */\n      iszero\n      tag_64\n      jumpi\n        /* \"#utility.yul\":282:361   */\n      tag_65\n      tag_66\n      jump\t// in\n    tag_65:\n        /* \"#utility.yul\":251:363   */\n    tag_64:\n        /* \"#utility.yul\":372:413   */\n      tag_67\n        /* \"#utility.yul\":406:412   */\n      dup5\n        /* \"#utility.yul\":401:404   */\n      dup3\n        /* \"#utility.yul\":396:399   */\n      dup6\n        /* \"#utility.yul\":372:413   */\n      tag_68\n      jump\t// in\n    tag_67:\n        /* \"#utility.yul\":91:419   */\n      pop\n        /* \"#utility.yul\":7:419   */\n      swap4\n      swap3\n      pop\n      pop\n      pop\n      jump\t// out\n        /* \"#utility.yul\":439:779   */\n    tag_69:\n        /* \"#utility.yul\":495:500   */\n      0x00\n        /* \"#utility.yul\":544:547   */\n      dup3\n        /* \"#utility.yul\":537:541   */\n      0x1f\n        /* \"#utility.yul\":529:535   */\n      dup4\n        /* \"#utility.yul\":525:542   */\n      add\n        /* \"#utility.yul\":521:548   */\n      slt\n        /* \"#utility.yul\":511:633   */\n      tag_71\n      jumpi\n        /* \"#utility.yul\":552:631   */\n      tag_72\n      tag_73\n      jump\t// in\n    tag_72:\n        /* \"#utility.yul\":511:633   */\n    tag_71:\n        /* \"#utility.yul\":669:675   */\n      dup2\n        /* \"#utility.yul\":656:676   */\n      calldataload\n        /* \"#utility.yul\":694:773   */\n      tag_74\n        /* \"#utility.yul\":769:772   */\n      dup5\n        /* \"#utility.yul\":761:767   */\n      dup3\n        /* \"#utility.yul\":754:758   */\n      0x20\n        /* \"#utility.yul\":746:752   */\n      dup7\n        /* \"#utility.yul\":742:759   */\n      add\n        /* \"#utility.yul\":694:773   */\n      tag_58\n      jump\t// in\n    tag_74:\n        /* \"#utility.yul\":685:773   */\n      swap2\n      pop\n        /* \"#utility.yul\":501:779   */\n      pop\n        /* \"#utility.yul\":439:779   */\n      swap3\n      swap2\n      pop\n      pop\n      jump\t// out\n        /* \"#utility.yul\":785:1944   */\n    tag_11:\n        /* \"#utility.yul\":892:898   */\n      0x00\n        /* \"#utility.yul\":900:906   */\n      dup1\n        /* \"#utility.yul\":908:914   */\n      0x00\n        /* \"#utility.yul\":957:959   */\n      0x60\n        /* \"#utility.yul\":945:954   */\n      dup5\n        /* \"#utility.yul\":936:943   */\n      dup7\n        /* \"#utility.yul\":932:955   */\n      sub\n        /* \"#utility.yul\":928:960   */\n      slt\n        /* \"#utility.yul\":925:1044   */\n      iszero\n      tag_76\n      jumpi\n        /* \"#utility.yul\":963:1042   */\n      tag_77\n      tag_78\n      jump\t// in\n    tag_77:\n        /* \"#utility.yul\":925:1044   */\n    tag_76:\n        /* \"#utility.yul\":1111:1112   */\n      0x00\n        /* \"#utility.yul\":1100:1109   */\n      dup5\n        /* \"#utility.yul\":1096:1113   */\n      add\n        /* \"#utility.yul\":1083:1114   */\n      calldataload\n        /* \"#utility.yul\":1141:1159   */\n      0xffffffffffffffff\n        /* \"#utility.yul\":1133:1139   */\n      dup2\n        /* \"#utility.yul\":1130:1160   */\n      gt\n        /* \"#utility.yul\":1127:1244   */\n      iszero\n      tag_79\n      jumpi\n        /* \"#utility.yul\":1163:1242   */\n      tag_80\n      tag_81\n      jump\t// in\n    tag_80:\n        /* \"#utility.yul\":1127:1244   */\n    tag_79:\n        /* \"#utility.yul\":1268:1331   */\n      tag_82\n        /* \"#utility.yul\":1323:1330   */\n      dup7\n        /* \"#utility.yul\":1314:1320   */\n      dup3\n        /* \"#utility.yul\":1303:1312   */\n      dup8\n        /* \"#utility.yul\":1299:1321   */\n      add\n        /* \"#utility.yul\":1268:1331   */\n      tag_69\n      jump\t// in\n    tag_82:\n        /* \"#utility.yul\":1258:1331   */\n      swap4\n      pop\n        /* \"#utility.yul\":1054:1341   */\n      pop\n        /* \"#utility.yul\":1408:1410   */\n      0x20\n        /* \"#utility.yul\":1397:1406   */\n      dup5\n        /* \"#utility.yul\":1393:1411   */\n      add\n        /* \"#utility.yul\":1380:1412   */\n      calldataload\n        /* \"#utility.yul\":1439:1457   */\n      0xffffffffffffffff\n        /* \"#utility.yul\":1431:1437   */\n      dup2\n        /* \"#utility.yul\":1428:1458   */\n      gt\n        /* \"#utility.yul\":1425:1542   */\n      iszero\n      tag_83\n      jumpi\n        /* \"#utility.yul\":1461:1540   */\n      tag_84\n      tag_81\n      jump\t// in\n    tag_84:\n        /* \"#utility.yul\":1425:1542   */\n    tag_83:\n        /* \"#utility.yul\":1566:1629   */\n      tag_85\n        /* \"#utility.yul\":1621:1628   */\n      dup7\n        /* \"#utility.yul\":1612:1618   */\n      dup3\n        /* \"#utility.yul\":1601:1610   */\n      dup8\n        /* \"#utility.yul\":1597:1619   */\n      add\n        /* \"#utility.yul\":1566:1629   */\n      tag_69\n      jump\t// in\n    tag_85:\n        /* \"#utility.yul\":1556:1629   */\n      swap3\n      pop\n        /* \"#utility.yul\":1351:1639   */\n      pop\n        /* \"#utility.yul\":1706:1708   */\n      0x40\n        /* \"#utility.yul\":1695:1704   */\n      dup5\n        /* \"#utility.yul\":1691:1709   */\n      add\n        /* \"#utility.yul\":1678:1710   */\n      calldataload\n        /* \"#utility.yul\":1737:1755   */\n      0xffffffffffffffff\n        /* \"#utility.yul\":1729:1735   */\n      dup2\n        /* \"#utility.yul\":1726:1756   */\n      gt\n        /* \"#utility.yul\":1723:1840   */\n      iszero\n      tag_86\n      jumpi\n        /* \"#utility.yul\":1759:1838   */\n      tag_87\n      tag_81\n      jump\t// in\n    tag_87:\n        /* \"#utility.yul\":1723:1840   */\n    tag_86:\n        /* \"#utility.yul\":1864:1927   */\n      tag_88\n        /* \"#utility.yul\":1919:1926   */\n      dup7\n        /* \"#utility.yul\":1910:1916   */\n      dup3\n        /* \"#utility.yul\":1899:1908   */\n      dup8\n        /* \"#utility.yul\":1895:1917   */\n      add\n        /* \"#utility.yul\":1864:1927   */\n      tag_69\n      jump\t// in\n    tag_88:\n        /* \"#utility.yul\":1854:1927   */\n      swap2\n      pop\n        /* \"#utility.yul\":1649:1937   */\n      pop\n        /* \"#utility.yul\":785:1944   */\n      swap3\n      pop\n      swap3\n      pop\n      swap3\n      jump\t// out\n        /* \"#utility.yul\":1950:2294   */\n    tag_89:\n        /* \"#utility.yul\":2028:2031   */\n      0x00\n        /* \"#utility.yul\":2056:2095   */\n      tag_91\n        /* \"#utility.yul\":2089:2094   */\n      dup3\n        /* \"#utility.yul\":2056:2095   */\n      tag_92\n      jump\t// in\n    tag_91:\n        /* \"#utility.yul\":2111:2172   */\n      tag_93\n        /* \"#utility.yul\":2165:2171   */\n      dup2\n        /* \"#utility.yul\":2160:2163   */\n      dup6\n        /* \"#utility.yul\":2111:2172   */\n      tag_94\n      jump\t// in\n    tag_93:\n        /* \"#utility.yul\":2104:2172   */\n      swap4\n      pop\n        /* \"#utility.yul\":2181:2233   */\n      tag_95\n        /* \"#utility.yul\":2226:2232   */\n      dup2\n        /* \"#utility.yul\":2221:2224   */\n      dup6\n        /* \"#utility.yul\":2214:2218   */\n      0x20\n        /* \"#utility.yul\":2207:2212   */\n      dup7\n        /* \"#utility.yul\":2203:2219   */\n      add\n        /* \"#utility.yul\":2181:2233   */\n      tag_96\n      jump\t// in\n    tag_95:\n        /* \"#utility.yul\":2258:2287   */\n      tag_97\n        /* \"#utility.yul\":2280:2286   */\n      dup2\n        /* \"#utility.yul\":2258:2287   */\n      tag_98\n      jump\t// in\n    tag_97:\n        /* \"#utility.yul\":2253:2256   */\n      dup5\n        /* \"#utility.yul\":2249:2288   */\n      add\n        /* \"#utility.yul\":2242:2288   */\n      swap2\n      pop\n        /* \"#utility.yul\":2032:2294   */\n      pop\n        /* \"#utility.yul\":1950:2294   */\n      swap3\n      swap2\n      pop\n      pop\n      jump\t// out\n        /* \"#utility.yul\":2348:3765   */\n    tag_99:\n        /* \"#utility.yul\":2455:2458   */\n      0x00\n        /* \"#utility.yul\":2491:2495   */\n      0xa0\n        /* \"#utility.yul\":2486:2489   */\n      dup4\n        /* \"#utility.yul\":2482:2496   */\n      add\n        /* \"#utility.yul\":2583:2587   */\n      0x00\n        /* \"#utility.yul\":2576:2581   */\n      dup4\n        /* \"#utility.yul\":2572:2588   */\n      add\n        /* \"#utility.yul\":2566:2589   */\n      mload\n        /* \"#utility.yul\":2636:2639   */\n      dup5\n        /* \"#utility.yul\":2630:2634   */\n      dup3\n        /* \"#utility.yul\":2626:2640   */\n      sub\n        /* \"#utility.yul\":2619:2623   */\n      0x00\n        /* \"#utility.yul\":2614:2617   */\n      dup7\n        /* \"#utility.yul\":2610:2624   */\n      add\n        /* \"#utility.yul\":2603:2641   */\n      mstore\n        /* \"#utility.yul\":2662:2735   */\n      tag_101\n        /* \"#utility.yul\":2730:2734   */\n      dup3\n        /* \"#utility.yul\":2716:2728   */\n      dup3\n        /* \"#utility.yul\":2662:2735   */\n      tag_89\n      jump\t// in\n    tag_101:\n        /* \"#utility.yul\":2654:2735   */\n      swap2\n      pop\n        /* \"#utility.yul\":2506:2746   */\n      pop\n        /* \"#utility.yul\":2834:2838   */\n      0x20\n        /* \"#utility.yul\":2827:2832   */\n      dup4\n        /* \"#utility.yul\":2823:2839   */\n      add\n        /* \"#utility.yul\":2817:2840   */\n      mload\n        /* \"#utility.yul\":2887:2890   */\n      dup5\n        /* \"#utility.yul\":2881:2885   */\n      dup3\n        /* \"#utility.yul\":2877:2891   */\n      sub\n        /* \"#utility.yul\":2870:2874   */\n      0x20\n        /* \"#utility.yul\":2865:2868   */\n      dup7\n        /* \"#utility.yul\":2861:2875   */\n      add\n        /* \"#utility.yul\":2854:2892   */\n      mstore\n        /* \"#utility.yul\":2913:2986   */\n      tag_102\n        /* \"#utility.yul\":2981:2985   */\n      dup3\n        /* \"#utility.yul\":2967:2979   */\n      dup3\n        /* \"#utility.yul\":2913:2986   */\n      tag_89\n      jump\t// in\n    tag_102:\n        /* \"#utility.yul\":2905:2986   */\n      swap2\n      pop\n        /* \"#utility.yul\":2756:2997   */\n      pop\n        /* \"#utility.yul\":3083:3087   */\n      0x40\n        /* \"#utility.yul\":3076:3081   */\n      dup4\n        /* \"#utility.yul\":3072:3088   */\n      add\n        /* \"#utility.yul\":3066:3089   */\n      mload\n        /* \"#utility.yul\":3136:3139   */\n      dup5\n        /* \"#utility.yul\":3130:3134   */\n      dup3\n        /* \"#utility.yul\":3126:3140   */\n      sub\n        /* \"#utility.yul\":3119:3123   */\n      0x40\n        /* \"#utility.yul\":3114:3117   */\n      dup7\n        /* \"#utility.yul\":3110:3124   */\n      add\n        /* \"#utility.yul\":3103:3141   */\n      mstore\n        /* \"#utility.yul\":3162:3235   */\n      tag_103\n        /* \"#utility.yul\":3230:3234   */\n      dup3\n        /* \"#utility.yul\":3216:3228   */\n      dup3\n        /* \"#utility.yul\":3162:3235   */\n      tag_89\n      jump\t// in\n    tag_103:\n        /* \"#utility.yul\":3154:3235   */\n      swap2\n      pop\n        /* \"#utility.yul\":3007:3246   */\n      pop\n        /* \"#utility.yul\":3329:3333   */\n      0x60\n        /* \"#utility.yul\":3322:3327   */\n      dup4\n        /* \"#utility.yul\":3318:3334   */\n      add\n        /* \"#utility.yul\":3312:3335   */\n      mload\n        /* \"#utility.yul\":3382:3385   */\n      dup5\n        /* \"#utility.yul\":3376:3380   */\n      dup3\n        /* \"#utility.yul\":3372:3386   */\n      sub\n        /* \"#utility.yul\":3365:3369   */\n      0x60\n        /* \"#utility.yul\":3360:3363   */\n      dup7\n        /* \"#utility.yul\":3356:3370   */\n      add\n        /* \"#utility.yul\":3349:3387   */\n      mstore\n        /* \"#utility.yul\":3408:3481   */\n      tag_104\n        /* \"#utility.yul\":3476:3480   */\n      dup3\n        /* \"#utility.yul\":3462:3474   */\n      dup3\n        /* \"#utility.yul\":3408:3481   */\n      tag_89\n      jump\t// in\n    tag_104:\n        /* \"#utility.yul\":3400:3481   */\n      swap2\n      pop\n        /* \"#utility.yul\":3256:3492   */\n      pop\n        /* \"#utility.yul\":3575:3579   */\n      0x80\n        /* \"#utility.yul\":3568:3573   */\n      dup4\n        /* \"#utility.yul\":3564:3580   */\n      add\n        /* \"#utility.yul\":3558:3581   */\n      mload\n        /* \"#utility.yul\":3628:3631   */\n      dup5\n        /* \"#utility.yul\":3622:3626   */\n      dup3\n        /* \"#utility.yul\":3618:3632   */\n      sub\n        /* \"#utility.yul\":3611:3615   */\n      0x80\n        /* \"#utility.yul\":3606:3609   */\n      dup7\n        /* \"#utility.yul\":3602:3616   */\n      add\n        /* \"#utility.yul\":3595:3633   */\n      mstore\n        /* \"#utility.yul\":3654:3727   */\n      tag_105\n        /* \"#utility.yul\":3722:3726   */\n      dup3\n        /* \"#utility.yul\":3708:3720   */\n      dup3\n        /* \"#utility.yul\":3654:3727   */\n      tag_89\n      jump\t// in\n    tag_105:\n        /* \"#utility.yul\":3646:3727   */\n      swap2\n      pop\n        /* \"#utility.yul\":3502:3738   */\n      pop\n        /* \"#utility.yul\":3755:3759   */\n      dup1\n        /* \"#utility.yul\":3748:3759   */\n      swap2\n      pop\n        /* \"#utility.yul\":2460:3765   */\n      pop\n        /* \"#utility.yul\":2348:3765   */\n      swap3\n      swap2\n      pop\n      pop\n      jump\t// out\n        /* \"#utility.yul\":3771:4120   */\n    tag_8:\n        /* \"#utility.yul\":3902:3906   */\n      0x00\n        /* \"#utility.yul\":3940:3942   */\n      0x20\n        /* \"#utility.yul\":3929:3938   */\n      dup3\n        /* \"#utility.yul\":3925:3943   */\n      add\n        /* \"#utility.yul\":3917:3943   */\n      swap1\n      pop\n        /* \"#utility.yul\":3989:3998   */\n      dup2\n        /* \"#utility.yul\":3983:3987   */\n      dup2\n        /* \"#utility.yul\":3979:3999   */\n      sub\n        /* \"#utility.yul\":3975:3976   */\n      0x00\n        /* \"#utility.yul\":3964:3973   */\n      dup4\n        /* \"#utility.yul\":3960:3977   */\n      add\n        /* \"#utility.yul\":3953:4000   */\n      mstore\n        /* \"#utility.yul\":4017:4113   */\n      tag_107\n        /* \"#utility.yul\":4108:4112   */\n      dup2\n        /* \"#utility.yul\":4099:4105   */\n      dup5\n        /* \"#utility.yul\":4017:4113   */\n      tag_99\n      jump\t// in\n    tag_107:\n        /* \"#utility.yul\":4009:4113   */\n      swap1\n      pop\n        /* \"#utility.yul\":3771:4120   */\n      swap3\n      swap2\n      pop\n      pop\n      jump\t// out\n        /* \"#utility.yul\":4126:4255   */\n    tag_63:\n        /* \"#utility.yul\":4160:4166   */\n      0x00\n        /* \"#utility.yul\":4187:4207   */\n      tag_109\n      tag_110\n      jump\t// in\n    tag_109:\n        /* \"#utility.yul\":4177:4207   */\n      swap1\n      pop\n        /* \"#utility.yul\":4216:4249   */\n      tag_111\n        /* \"#utility.yul\":4244:4248   */\n      dup3\n        /* \"#utility.yul\":4236:4242   */\n      dup3\n        /* \"#utility.yul\":4216:4249   */\n      tag_112\n      jump\t// in\n    tag_111:\n        /* \"#utility.yul\":4126:4255   */\n      swap2\n      swap1\n      pop\n      jump\t// out\n        /* \"#utility.yul\":4261:4336   */\n    tag_110:\n        /* \"#utility.yul\":4294:4300   */\n      0x00\n        /* \"#utility.yul\":4327:4329   */\n      0x40\n        /* \"#utility.yul\":4321:4330   */\n      mload\n        /* \"#utility.yul\":4311:4330   */\n      swap1\n      pop\n        /* \"#utility.yul\":4261:4336   */\n      swap1\n      jump\t// out\n        /* \"#utility.yul\":4342:4650   */\n    tag_62:\n        /* \"#utility.yul\":4404:4408   */\n      0x00\n        /* \"#utility.yul\":4494:4512   */\n      0xffffffffffffffff\n        /* \"#utility.yul\":4486:4492   */\n      dup3\n        /* \"#utility.yul\":4483:4513   */\n      gt\n        /* \"#utility.yul\":4480:4536   */\n      iszero\n      tag_115\n      jumpi\n        /* \"#utility.yul\":4516:4534   */\n      tag_116\n      tag_117\n      jump\t// in\n    tag_116:\n        /* \"#utility.yul\":4480:4536   */\n    tag_115:\n        /* \"#utility.yul\":4554:4583   */\n      tag_118\n        /* \"#utility.yul\":4576:4582   */\n      dup3\n        /* \"#utility.yul\":4554:4583   */\n      tag_98\n      jump\t// in\n    tag_118:\n        /* \"#utility.yul\":4546:4583   */\n      swap1\n      pop\n        /* \"#utility.yul\":4638:4642   */\n      0x20\n        /* \"#utility.yul\":4632:4636   */\n      dup2\n        /* \"#utility.yul\":4628:4643   */\n      add\n        /* \"#utility.yul\":4620:4643   */\n      swap1\n      pop\n        /* \"#utility.yul\":4342:4650   */\n      swap2\n      swap1\n      pop\n      jump\t// out\n        /* \"#utility.yul\":4656:4755   */\n    tag_92:\n        /* \"#utility.yul\":4708:4714   */\n      0x00\n        /* \"#utility.yul\":4742:4747   */\n      dup2\n        /* \"#utility.yul\":4736:4748   */\n      mload\n        /* \"#utility.yul\":4726:4748   */\n      swap1\n      pop\n        /* \"#utility.yul\":4656:4755   */\n      swap2\n      swap1\n      pop\n      jump\t// out\n        /* \"#utility.yul\":4761:4920   */\n    tag_94:\n        /* \"#utility.yul\":4835:4846   */\n      0x00\n        /* \"#utility.yul\":4869:4875   */\n      dup3\n        /* \"#utility.yul\":4864:4867   */\n      dup3\n        /* \"#utility.yul\":4857:4876   */\n      mstore\n        /* \"#utility.yul\":4909:4913   */\n      0x20\n        /* \"#utility.yul\":4904:4907   */\n      dup3\n        /* \"#utility.yul\":4900:4914   */\n      add\n        /* \"#utility.yul\":4885:4914   */\n      swap1\n      pop\n        /* \"#utility.yul\":4761:4920   */\n      swap3\n      swap2\n      pop\n      pop\n      jump\t// out\n        /* \"#utility.yul\":4926:5080   */\n    tag_68:\n        /* \"#utility.yul\":5010:5016   */\n      dup3\n        /* \"#utility.yul\":5005:5008   */\n      dup2\n        /* \"#utility.yul\":5000:5003   */\n      dup4\n        /* \"#utility.yul\":4987:5017   */\n      calldatacopy\n        /* \"#utility.yul\":5072:5073   */\n      0x00\n        /* \"#utility.yul\":5063:5069   */\n      dup4\n        /* \"#utility.yul\":5058:5061   */\n      dup4\n        /* \"#utility.yul\":5054:5070   */\n      add\n        /* \"#utility.yul\":5047:5074   */\n      mstore\n        /* \"#utility.yul\":4926:5080   */\n      pop\n      pop\n      pop\n      jump\t// out\n        /* \"#utility.yul\":5086:5393   */\n    tag_96:\n        /* \"#utility.yul\":5154:5155   */\n      0x00\n        /* \"#utility.yul\":5164:5277   */\n    tag_123:\n        /* \"#utility.yul\":5178:5184   */\n      dup4\n        /* \"#utility.yul\":5175:5176   */\n      dup2\n        /* \"#utility.yul\":5172:5185   */\n      lt\n        /* \"#utility.yul\":5164:5277   */\n      iszero\n      tag_125\n      jumpi\n        /* \"#utility.yul\":5263:5264   */\n      dup1\n        /* \"#utility.yul\":5258:5261   */\n      dup3\n        /* \"#utility.yul\":5254:5265   */\n      add\n        /* \"#utility.yul\":5248:5266   */\n      mload\n        /* \"#utility.yul\":5244:5245   */\n      dup2\n        /* \"#utility.yul\":5239:5242   */\n      dup5\n        /* \"#utility.yul\":5235:5246   */\n      add\n        /* \"#utility.yul\":5228:5267   */\n      mstore\n        /* \"#utility.yul\":5200:5202   */\n      0x20\n        /* \"#utility.yul\":5197:5198   */\n      dup2\n        /* \"#utility.yul\":5193:5203   */\n      add\n        /* \"#utility.yul\":5188:5203   */\n      swap1\n      pop\n        /* \"#utility.yul\":5164:5277   */\n      jump(tag_123)\n    tag_125:\n        /* \"#utility.yul\":5295:5301   */\n      dup4\n        /* \"#utility.yul\":5292:5293   */\n      dup2\n        /* \"#utility.yul\":5289:5302   */\n      gt\n        /* \"#utility.yul\":5286:5387   */\n      iszero\n      tag_126\n      jumpi\n        /* \"#utility.yul\":5375:5376   */\n      0x00\n        /* \"#utility.yul\":5366:5372   */\n      dup5\n        /* \"#utility.yul\":5361:5364   */\n      dup5\n        /* \"#utility.yul\":5357:5373   */\n      add\n        /* \"#utility.yul\":5350:5377   */\n      mstore\n        /* \"#utility.yul\":5286:5387   */\n    tag_126:\n        /* \"#utility.yul\":5135:5393   */\n      pop\n        /* \"#utility.yul\":5086:5393   */\n      pop\n      pop\n      pop\n      jump\t// out\n        /* \"#utility.yul\":5399:5719   */\n    tag_17:\n        /* \"#utility.yul\":5443:5449   */\n      0x00\n        /* \"#utility.yul\":5480:5481   */\n      0x02\n        /* \"#utility.yul\":5474:5478   */\n      dup3\n        /* \"#utility.yul\":5470:5482   */\n      div\n        /* \"#utility.yul\":5460:5482   */\n      swap1\n      pop\n        /* \"#utility.yul\":5527:5528   */\n      0x01\n        /* \"#utility.yul\":5521:5525   */\n      dup3\n        /* \"#utility.yul\":5517:5529   */\n      and\n        /* \"#utility.yul\":5548:5566   */\n      dup1\n        /* \"#utility.yul\":5538:5619   */\n      tag_128\n      jumpi\n        /* \"#utility.yul\":5604:5608   */\n      0x7f\n        /* \"#utility.yul\":5596:5602   */\n      dup3\n        /* \"#utility.yul\":5592:5609   */\n      and\n        /* \"#utility.yul\":5582:5609   */\n      swap2\n      pop\n        /* \"#utility.yul\":5538:5619   */\n    tag_128:\n        /* \"#utility.yul\":5666:5668   */\n      0x20\n        /* \"#utility.yul\":5658:5664   */\n      dup3\n        /* \"#utility.yul\":5655:5669   */\n      lt\n        /* \"#utility.yul\":5635:5653   */\n      dup2\n        /* \"#utility.yul\":5632:5670   */\n      eq\n        /* \"#utility.yul\":5629:5713   */\n      iszero\n      tag_129\n      jumpi\n        /* \"#utility.yul\":5685:5703   */\n      tag_130\n      tag_131\n      jump\t// in\n    tag_130:\n        /* \"#utility.yul\":5629:5713   */\n    tag_129:\n        /* \"#utility.yul\":5450:5719   */\n      pop\n        /* \"#utility.yul\":5399:5719   */\n      swap2\n      swap1\n      pop\n      jump\t// out\n        /* \"#utility.yul\":5725:6006   */\n    tag_112:\n        /* \"#utility.yul\":5808:5835   */\n      tag_133\n        /* \"#utility.yul\":5830:5834   */\n      dup3\n        /* \"#utility.yul\":5808:5835   */\n      tag_98\n      jump\t// in\n    tag_133:\n        /* \"#utility.yul\":5800:5806   */\n      dup2\n        /* \"#utility.yul\":5796:5836   */\n      add\n        /* \"#utility.yul\":5938:5944   */\n      dup2\n        /* \"#utility.yul\":5926:5936   */\n      dup2\n        /* \"#utility.yul\":5923:5945   */\n      lt\n        /* \"#utility.yul\":5902:5920   */\n      0xffffffffffffffff\n        /* \"#utility.yul\":5890:5900   */\n      dup3\n        /* \"#utility.yul\":5887:5921   */\n      gt\n        /* \"#utility.yul\":5884:5946   */\n      or\n        /* \"#utility.yul\":5881:5969   */\n      iszero\n      tag_134\n      jumpi\n        /* \"#utility.yul\":5949:5967   */\n      tag_135\n      tag_117\n      jump\t// in\n    tag_135:\n        /* \"#utility.yul\":5881:5969   */\n    tag_134:\n        /* \"#utility.yul\":5989:5999   */\n      dup1\n        /* \"#utility.yul\":5985:5987   */\n      0x40\n        /* \"#utility.yul\":5978:6000   */\n      mstore\n        /* \"#utility.yul\":5768:6006   */\n      pop\n        /* \"#utility.yul\":5725:6006   */\n      pop\n      pop\n      jump\t// out\n        /* \"#utility.yul\":6012:6192   */\n    tag_131:\n        /* \"#utility.yul\":6060:6137   */\n      0x4e487b7100000000000000000000000000000000000000000000000000000000\n        /* \"#utility.yul\":6057:6058   */\n      0x00\n        /* \"#utility.yul\":6050:6138   */\n      mstore\n        /* \"#utility.yul\":6157:6161   */\n      0x22\n        /* \"#utility.yul\":6154:6155   */\n      0x04\n        /* \"#utility.yul\":6147:6162   */\n      mstore\n        /* \"#utility.yul\":6181:6185   */\n      0x24\n        /* \"#utility.yul\":6178:6179   */\n      0x00\n        /* \"#utility.yul\":6171:6186   */\n      revert\n        /* \"#utility.yul\":6198:6378   */\n    tag_117:\n        /* \"#utility.yul\":6246:6323   */\n      0x4e487b7100000000000000000000000000000000000000000000000000000000\n        /* \"#utility.yul\":6243:6244   */\n      0x00\n        /* \"#utility.yul\":6236:6324   */\n      mstore\n        /* \"#utility.yul\":6343:6347   */\n      0x41\n        /* \"#utility.yul\":6340:6341   */\n      0x04\n        /* \"#utility.yul\":6333:6348   */\n      mstore\n        /* \"#utility.yul\":6367:6371   */\n      0x24\n        /* \"#utility.yul\":6364:6365   */\n      0x00\n        /* \"#utility.yul\":6357:6372   */\n      revert\n        /* \"#utility.yul\":6384:6501   */\n    tag_73:\n        /* \"#utility.yul\":6493:6494   */\n      0x00\n        /* \"#utility.yul\":6490:6491   */\n      dup1\n        /* \"#utility.yul\":6483:6495   */\n      revert\n        /* \"#utility.yul\":6507:6624   */\n    tag_66:\n        /* \"#utility.yul\":6616:6617   */\n      0x00\n        /* \"#utility.yul\":6613:6614   */\n      dup1\n        /* \"#utility.yul\":6606:6618   */\n      revert\n        /* \"#utility.yul\":6630:6747   */\n    tag_81:\n        /* \"#utility.yul\":6739:6740   */\n      0x00\n        /* \"#utility.yul\":6736:6737   */\n      dup1\n        /* \"#utility.yul\":6729:6741   */\n      revert\n        /* \"#utility.yul\":6753:6870   */\n    tag_78:\n        /* \"#utility.yul\":6862:6863   */\n      0x00\n        /* \"#utility.yul\":6859:6860   */\n      dup1\n        /* \"#utility.yul\":6852:6864   */\n      revert\n        /* \"#utility.yul\":6876:6978   */\n    tag_98:\n        /* \"#utility.yul\":6917:6923   */\n      0x00\n        /* \"#utility.yul\":6968:6970   */\n      0x1f\n        /* \"#utility.yul\":6964:6971   */\n      not\n        /* \"#utility.yul\":6959:6961   */\n      0x1f\n        /* \"#utility.yul\":6952:6957   */\n      dup4\n        /* \"#utility.yul\":6948:6962   */\n      add\n        /* \"#utility.yul\":6944:6972   */\n      and\n        /* \"#utility.yul\":6934:6972   */\n      swap1\n      pop\n        /* \"#utility.yul\":6876:6978   */\n      swap2\n      swap1\n      pop\n      jump\t// out\n\n    auxdata: 0xa264697066735822122017b7c7092b993e7b3f2020486861a857d800cf6fafa993843e064ebdf540a64d64736f6c63430008070033\n}\n",
				"bytecode": {
					"linkReferences": {},
					"object": "608060405234801561001057600080fd5b50610952806100206000396000f3fe608060405234801561001057600080fd5b50600436106100365760003560e01c8063fa165e8f1461003b578063ffb4020914610059575b600080fd5b610043610075565b6040516100509190610760565b60405180910390f35b610073600480360381019061006e91906105ee565b6103a5565b005b61007d6104ac565b6000803373ffffffffffffffffffffffffffffffffffffffff1673ffffffffffffffffffffffffffffffffffffffff1681526020019081526020016000206040518060a00160405290816000820180546100d690610836565b80601f016020809104026020016040519081016040528092919081815260200182805461010290610836565b801561014f5780601f106101245761010080835404028352916020019161014f565b820191906000526020600020905b81548152906001019060200180831161013257829003601f168201915b5050505050815260200160018201805461016890610836565b80601f016020809104026020016040519081016040528092919081815260200182805461019490610836565b80156101e15780601f106101b6576101008083540402835291602001916101e1565b820191906000526020600020905b8154815290600101906020018083116101c457829003601f168201915b505050505081526020016002820180546101fa90610836565b80601f016020809104026020016040519081016040528092919081815260200182805461022690610836565b80156102735780601f1061024857610100808354040283529160200191610273565b820191906000526020600020905b81548152906001019060200180831161025657829003601f168201915b5050505050815260200160038201805461028c90610836565b80601f01602080910402602001604051908101604052809291908181526020018280546102b890610836565b80156103055780601f106102da57610100808354040283529160200191610305565b820191906000526020600020905b8154815290600101906020018083116102e857829003601f168201915b5050505050815260200160048201805461031e90610836565b80601f016020809104026020016040519081016040528092919081815260200182805461034a90610836565b80156103975780601f1061036c57610100808354040283529160200191610397565b820191906000526020600020905b81548152906001019060200180831161037a57829003601f168201915b505050505081525050905090565b826000803373ffffffffffffffffffffffffffffffffffffffff1673ffffffffffffffffffffffffffffffffffffffff16815260200190815260200160002060000190805190602001906103fa9291906104db565b50816000803373ffffffffffffffffffffffffffffffffffffffff1673ffffffffffffffffffffffffffffffffffffffff16815260200190815260200160002060010190805190602001906104509291906104db565b50806000803373ffffffffffffffffffffffffffffffffffffffff1673ffffffffffffffffffffffffffffffffffffffff16815260200190815260200160002060020190805190602001906104a69291906104db565b50505050565b6040518060a0016040528060608152602001606081526020016060815260200160608152602001606081525090565b8280546104e790610836565b90600052602060002090601f0160209004810192826105095760008555610550565b82601f1061052257805160ff1916838001178555610550565b82800160010185558215610550579182015b8281111561054f578251825591602001919060010190610534565b5b50905061055d9190610561565b5090565b5b8082111561057a576000816000905550600101610562565b5090565b600061059161058c846107a7565b610782565b9050828152602081018484840111156105ad576105ac6108fc565b5b6105b88482856107f4565b509392505050565b600082601f8301126105d5576105d46108f7565b5b81356105e584826020860161057e565b91505092915050565b60008060006060848603121561060757610606610906565b5b600084013567ffffffffffffffff81111561062557610624610901565b5b610631868287016105c0565b935050602084013567ffffffffffffffff81111561065257610651610901565b5b61065e868287016105c0565b925050604084013567ffffffffffffffff81111561067f5761067e610901565b5b61068b868287016105c0565b9150509250925092565b60006106a0826107d8565b6106aa81856107e3565b93506106ba818560208601610803565b6106c38161090b565b840191505092915050565b600060a08301600083015184820360008601526106eb8282610695565b915050602083015184820360208601526107058282610695565b9150506040830151848203604086015261071f8282610695565b915050606083015184820360608601526107398282610695565b915050608083015184820360808601526107538282610695565b9150508091505092915050565b6000602082019050818103600083015261077a81846106ce565b905092915050565b600061078c61079d565b90506107988282610868565b919050565b6000604051905090565b600067ffffffffffffffff8211156107c2576107c16108c8565b5b6107cb8261090b565b9050602081019050919050565b600081519050919050565b600082825260208201905092915050565b82818337600083830152505050565b60005b83811015610821578082015181840152602081019050610806565b83811115610830576000848401525b50505050565b6000600282049050600182168061084e57607f821691505b6020821081141561086257610861610899565b5b50919050565b6108718261090b565b810181811067ffffffffffffffff821117156108905761088f6108c8565b5b80604052505050565b7f4e487b7100000000000000000000000000000000000000000000000000000000600052602260045260246000fd5b7f4e487b7100000000000000000000000000000000000000000000000000000000600052604160045260246000fd5b600080fd5b600080fd5b600080fd5b600080fd5b6000601f19601f830116905091905056fea264697066735822122017b7c7092b993e7b3f2020486861a857d800cf6fafa993843e064ebdf540a64d64736f6c63430008070033",
					"opcodes": "PUSH1 0x80 PUSH1 0x40 MSTORE CALLVALUE DUP1 ISZERO PUSH2 0x10 JUMPI PUSH1 0x0 DUP1 REVERT JUMPDEST POP PUSH2 0x952 DUP1 PUSH2 0x20 PUSH1 0x0 CODECOPY PUSH1 0x0 RETURN INVALID PUSH1 0x80 PUSH1 0x40 MSTORE CALLVALUE DUP1 ISZERO PUSH2 0x10 JUMPI PUSH1 0x0 DUP1 REVERT JUMPDEST POP PUSH1 0x4 CALLDATASIZE LT PUSH2 0x36 JUMPI PUSH1 0x0 CALLDATALOAD PUSH1 0xE0 SHR DUP1 PUSH4 0xFA165E8F EQ PUSH2 0x3B JUMPI DUP1 PUSH4 0xFFB40209 EQ PUSH2 0x59 JUMPI JUMPDEST PUSH1 0x0 DUP1 REVERT JUMPDEST PUSH2 0x43 PUSH2 0x75 JUMP JUMPDEST PUSH1 0x40 MLOAD PUSH2 0x50 SWAP2 SWAP1 PUSH2 0x760 JUMP JUMPDEST PUSH1 0x40 MLOAD DUP1 SWAP2 SUB SWAP1 RETURN JUMPDEST PUSH2 0x73 PUSH1 0x4 DUP1 CALLDATASIZE SUB DUP2 ADD SWAP1 PUSH2 0x6E SWAP2 SWAP1 PUSH2 0x5EE JUMP JUMPDEST PUSH2 0x3A5 JUMP JUMPDEST STOP JUMPDEST PUSH2 0x7D PUSH2 0x4AC JUMP JUMPDEST PUSH1 0x0 DUP1 CALLER PUSH20 0xFFFFFFFFFFFFFFFFFFFFFFFFFFFFFFFFFFFFFFFF AND PUSH20 0xFFFFFFFFFFFFFFFFFFFFFFFFFFFFFFFFFFFFFFFF AND DUP2 MSTORE PUSH1 0x20 ADD SWAP1 DUP2 MSTORE PUSH1 0x20 ADD PUSH1 0x0 KECCAK256 PUSH1 0x40 MLOAD DUP1 PUSH1 0xA0 ADD PUSH1 0x40 MSTORE SWAP1 DUP2 PUSH1 0x0 DUP3 ADD DUP1 SLOAD PUSH2 0xD6 SWAP1 PUSH2 0x836 JUMP JUMPDEST DUP1 PUSH1 0x1F ADD PUSH1 0x20 DUP1 SWAP2 DIV MUL PUSH1 0x20 ADD PUSH1 0x40 MLOAD SWAP1 DUP2 ADD PUSH1 0x40 MSTORE DUP1 SWAP3 SWAP2 SWAP1 DUP2 DUP2 MSTORE PUSH1 0x20 ADD DUP3 DUP1 SLOAD PUSH2 0x102 SWAP1 PUSH2 0x836 JUMP JUMPDEST DUP1 ISZERO PUSH2 0x14F JUMPI DUP1 PUSH1 0x1F LT PUSH2 0x124 JUMPI PUSH2 0x100 DUP1 DUP4 SLOAD DIV MUL DUP4 MSTORE SWAP2 PUSH1 0x20 ADD SWAP2 PUSH2 0x14F JUMP JUMPDEST DUP3 ADD SWAP2 SWAP1 PUSH1 0x0 MSTORE PUSH1 0x20 PUSH1 0x0 KECCAK256 SWAP1 JUMPDEST DUP2 SLOAD DUP2 MSTORE SWAP1 PUSH1 0x1 ADD SWAP1 PUSH1 0x20 ADD DUP1 DUP4 GT PUSH2 0x132 JUMPI DUP3 SWAP1 SUB PUSH1 0x1F AND DUP3 ADD SWAP2 JUMPDEST POP POP POP POP POP DUP2 MSTORE PUSH1 0x20 ADD PUSH1 0x1 DUP3 ADD DUP1 SLOAD PUSH2 0x168 SWAP1 PUSH2 0x836 JUMP JUMPDEST DUP1 PUSH1 0x1F ADD PUSH1 0x20 DUP1 SWAP2 DIV MUL PUSH1 0x20 ADD PUSH1 0x40 MLOAD SWAP1 DUP2 ADD PUSH1 0x40 MSTORE DUP1 SWAP3 SWAP2 SWAP1 DUP2 DUP2 MSTORE PUSH1 0x20 ADD DUP3 DUP1 SLOAD PUSH2 0x194 SWAP1 PUSH2 0x836 JUMP JUMPDEST DUP1 ISZERO PUSH2 0x1E1 JUMPI DUP1 PUSH1 0x1F LT PUSH2 0x1B6 JUMPI PUSH2 0x100 DUP1 DUP4 SLOAD DIV MUL DUP4 MSTORE SWAP2 PUSH1 0x20 ADD SWAP2 PUSH2 0x1E1 JUMP JUMPDEST DUP3 ADD SWAP2 SWAP1 PUSH1 0x0 MSTORE PUSH1 0x20 PUSH1 0x0 KECCAK256 SWAP1 JUMPDEST DUP2 SLOAD DUP2 MSTORE SWAP1 PUSH1 0x1 ADD SWAP1 PUSH1 0x20 ADD DUP1 DUP4 GT PUSH2 0x1C4 JUMPI DUP3 SWAP1 SUB PUSH1 0x1F AND DUP3 ADD SWAP2 JUMPDEST POP POP POP POP POP DUP2 MSTORE PUSH1 0x20 ADD PUSH1 0x2 DUP3 ADD DUP1 SLOAD PUSH2 0x1FA SWAP1 PUSH2 0x836 JUMP JUMPDEST DUP1 PUSH1 0x1F ADD PUSH1 0x20 DUP1 SWAP2 DIV MUL PUSH1 0x20 ADD PUSH1 0x40 MLOAD SWAP1 DUP2 ADD PUSH1 0x40 MSTORE DUP1 SWAP3 SWAP2 SWAP1 DUP2 DUP2 MSTORE PUSH1 0x20 ADD DUP3 DUP1 SLOAD PUSH2 0x226 SWAP1 PUSH2 0x836 JUMP JUMPDEST DUP1 ISZERO PUSH2 0x273 JUMPI DUP1 PUSH1 0x1F LT PUSH2 0x248 JUMPI PUSH2 0x100 DUP1 DUP4 SLOAD DIV MUL DUP4 MSTORE SWAP2 PUSH1 0x20 ADD SWAP2 PUSH2 0x273 JUMP JUMPDEST DUP3 ADD SWAP2 SWAP1 PUSH1 0x0 MSTORE PUSH1 0x20 PUSH1 0x0 KECCAK256 SWAP1 JUMPDEST DUP2 SLOAD DUP2 MSTORE SWAP1 PUSH1 0x1 ADD SWAP1 PUSH1 0x20 ADD DUP1 DUP4 GT PUSH2 0x256 JUMPI DUP3 SWAP1 SUB PUSH1 0x1F AND DUP3 ADD SWAP2 JUMPDEST POP POP POP POP POP DUP2 MSTORE PUSH1 0x20 ADD PUSH1 0x3 DUP3 ADD DUP1 SLOAD PUSH2 0x28C SWAP1 PUSH2 0x836 JUMP JUMPDEST DUP1 PUSH1 0x1F ADD PUSH1 0x20 DUP1 SWAP2 DIV MUL PUSH1 0x20 ADD PUSH1 0x40 MLOAD SWAP1 DUP2 ADD PUSH1 0x40 MSTORE DUP1 SWAP3 SWAP2 SWAP1 DUP2 DUP2 MSTORE PUSH1 0x20 ADD DUP3 DUP1 SLOAD PUSH2 0x2B8 SWAP1 PUSH2 0x836 JUMP JUMPDEST DUP1 ISZERO PUSH2 0x305 JUMPI DUP1 PUSH1 0x1F LT PUSH2 0x2DA JUMPI PUSH2 0x100 DUP1 DUP4 SLOAD DIV MUL DUP4 MSTORE SWAP2 PUSH1 0x20 ADD SWAP2 PUSH2 0x305 JUMP JUMPDEST DUP3 ADD SWAP2 SWAP1 PUSH1 0x0 MSTORE PUSH1 0x20 PUSH1 0x0 KECCAK256 SWAP1 JUMPDEST DUP2 SLOAD DUP2 MSTORE SWAP1 PUSH1 0x1 ADD SWAP1 PUSH1 0x20 ADD DUP1 DUP4 GT PUSH2 0x2E8 JUMPI DUP3 SWAP1 SUB PUSH1 0x1F AND DUP3 ADD SWAP2 JUMPDEST POP POP POP POP POP DUP2 MSTORE PUSH1 0x20 ADD PUSH1 0x4 DUP3 ADD DUP1 SLOAD PUSH2 0x31E SWAP1 PUSH2 0x836 JUMP JUMPDEST DUP1 PUSH1 0x1F ADD PUSH1 0x20 DUP1 SWAP2 DIV MUL PUSH1 0x20 ADD PUSH1 0x40 MLOAD SWAP1 DUP2 ADD PUSH1 0x40 MSTORE DUP1 SWAP3 SWAP2 SWAP1 DUP2 DUP2 MSTORE PUSH1 0x20 ADD DUP3 DUP1 SLOAD PUSH2 0x34A SWAP1 PUSH2 0x836 JUMP JUMPDEST DUP1 ISZERO PUSH2 0x397 JUMPI DUP1 PUSH1 0x1F LT PUSH2 0x36C JUMPI PUSH2 0x100 DUP1 DUP4 SLOAD DIV MUL DUP4 MSTORE SWAP2 PUSH1 0x20 ADD SWAP2 PUSH2 0x397 JUMP JUMPDEST DUP3 ADD SWAP2 SWAP1 PUSH1 0x0 MSTORE PUSH1 0x20 PUSH1 0x0 KECCAK256 SWAP1 JUMPDEST DUP2 SLOAD DUP2 MSTORE SWAP1 PUSH1 0x1 ADD SWAP1 PUSH1 0x20 ADD DUP1 DUP4 GT PUSH2 0x37A JUMPI DUP3 SWAP1 SUB PUSH1 0x1F AND DUP3 ADD SWAP2 JUMPDEST POP POP POP POP POP DUP2 MSTORE POP POP SWAP1 POP SWAP1 JUMP JUMPDEST DUP3 PUSH1 0x0 DUP1 CALLER PUSH20 0xFFFFFFFFFFFFFFFFFFFFFFFFFFFFFFFFFFFFFFFF AND PUSH20 0xFFFFFFFFFFFFFFFFFFFFFFFFFFFFFFFFFFFFFFFF AND DUP2 MSTORE PUSH1 0x20 ADD SWAP1 DUP2 MSTORE PUSH1 0x20 ADD PUSH1 0x0 KECCAK256 PUSH1 0x0 ADD SWAP1 DUP1 MLOAD SWAP1 PUSH1 0x20 ADD SWAP1 PUSH2 0x3FA SWAP3 SWAP2 SWAP1 PUSH2 0x4DB JUMP JUMPDEST POP DUP2 PUSH1 0x0 DUP1 CALLER PUSH20 0xFFFFFFFFFFFFFFFFFFFFFFFFFFFFFFFFFFFFFFFF AND PUSH20 0xFFFFFFFFFFFFFFFFFFFFFFFFFFFFFFFFFFFFFFFF AND DUP2 MSTORE PUSH1 0x20 ADD SWAP1 DUP2 MSTORE PUSH1 0x20 ADD PUSH1 0x0 KECCAK256 PUSH1 0x1 ADD SWAP1 DUP1 MLOAD SWAP1 PUSH1 0x20 ADD SWAP1 PUSH2 0x450 SWAP3 SWAP2 SWAP1 PUSH2 0x4DB JUMP JUMPDEST POP DUP1 PUSH1 0x0 DUP1 CALLER PUSH20 0xFFFFFFFFFFFFFFFFFFFFFFFFFFFFFFFFFFFFFFFF AND PUSH20 0xFFFFFFFFFFFFFFFFFFFFFFFFFFFFFFFFFFFFFFFF AND DUP2 MSTORE PUSH1 0x20 ADD SWAP1 DUP2 MSTORE PUSH1 0x20 ADD PUSH1 0x0 KECCAK256 PUSH1 0x2 ADD SWAP1 DUP1 MLOAD SWAP1 PUSH1 0x20 ADD SWAP1 PUSH2 0x4A6 SWAP3 SWAP2 SWAP1 PUSH2 0x4DB JUMP JUMPDEST POP POP POP POP JUMP JUMPDEST PUSH1 0x40 MLOAD DUP1 PUSH1 0xA0 ADD PUSH1 0x40 MSTORE DUP1 PUSH1 0x60 DUP2 MSTORE PUSH1 0x20 ADD PUSH1 0x60 DUP2 MSTORE PUSH1 0x20 ADD PUSH1 0x60 DUP2 MSTORE PUSH1 0x20 ADD PUSH1 0x60 DUP2 MSTORE PUSH1 0x20 ADD PUSH1 0x60 DUP2 MSTORE POP SWAP1 JUMP JUMPDEST DUP3 DUP1 SLOAD PUSH2 0x4E7 SWAP1 PUSH2 0x836 JUMP JUMPDEST SWAP1 PUSH1 0x0 MSTORE PUSH1 0x20 PUSH1 0x0 KECCAK256 SWAP1 PUSH1 0x1F ADD PUSH1 0x20 SWAP1 DIV DUP2 ADD SWAP3 DUP3 PUSH2 0x509 JUMPI PUSH1 0x0 DUP6 SSTORE PUSH2 0x550 JUMP JUMPDEST DUP3 PUSH1 0x1F LT PUSH2 0x522 JUMPI DUP1 MLOAD PUSH1 0xFF NOT AND DUP4 DUP1 ADD OR DUP6 SSTORE PUSH2 0x550 JUMP JUMPDEST DUP3 DUP1 ADD PUSH1 0x1 ADD DUP6 SSTORE DUP3 ISZERO PUSH2 0x550 JUMPI SWAP2 DUP3 ADD JUMPDEST DUP3 DUP2 GT ISZERO PUSH2 0x54F JUMPI DUP3 MLOAD DUP3 SSTORE SWAP2 PUSH1 0x20 ADD SWAP2 SWAP1 PUSH1 0x1 ADD SWAP1 PUSH2 0x534 JUMP JUMPDEST JUMPDEST POP SWAP1 POP PUSH2 0x55D SWAP2 SWAP1 PUSH2 0x561 JUMP JUMPDEST POP SWAP1 JUMP JUMPDEST JUMPDEST DUP1 DUP3 GT ISZERO PUSH2 0x57A JUMPI PUSH1 0x0 DUP2 PUSH1 0x0 SWAP1 SSTORE POP PUSH1 0x1 ADD PUSH2 0x562 JUMP JUMPDEST POP SWAP1 JUMP JUMPDEST PUSH1 0x0 PUSH2 0x591 PUSH2 0x58C DUP5 PUSH2 0x7A7 JUMP JUMPDEST PUSH2 0x782 JUMP JUMPDEST SWAP1 POP DUP3 DUP2 MSTORE PUSH1 0x20 DUP2 ADD DUP5 DUP5 DUP5 ADD GT ISZERO PUSH2 0x5AD JUMPI PUSH2 0x5AC PUSH2 0x8FC JUMP JUMPDEST JUMPDEST PUSH2 0x5B8 DUP5 DUP3 DUP6 PUSH2 0x7F4 JUMP JUMPDEST POP SWAP4 SWAP3 POP POP POP JUMP JUMPDEST PUSH1 0x0 DUP3 PUSH1 0x1F DUP4 ADD SLT PUSH2 0x5D5 JUMPI PUSH2 0x5D4 PUSH2 0x8F7 JUMP JUMPDEST JUMPDEST DUP2 CALLDATALOAD PUSH2 0x5E5 DUP5 DUP3 PUSH1 0x20 DUP7 ADD PUSH2 0x57E JUMP JUMPDEST SWAP2 POP POP SWAP3 SWAP2 POP POP JUMP JUMPDEST PUSH1 0x0 DUP1 PUSH1 0x0 PUSH1 0x60 DUP5 DUP7 SUB SLT ISZERO PUSH2 0x607 JUMPI PUSH2 0x606 PUSH2 0x906 JUMP JUMPDEST JUMPDEST PUSH1 0x0 DUP5 ADD CALLDATALOAD PUSH8 0xFFFFFFFFFFFFFFFF DUP2 GT ISZERO PUSH2 0x625 JUMPI PUSH2 0x624 PUSH2 0x901 JUMP JUMPDEST JUMPDEST PUSH2 0x631 DUP7 DUP3 DUP8 ADD PUSH2 0x5C0 JUMP JUMPDEST SWAP4 POP POP PUSH1 0x20 DUP5 ADD CALLDATALOAD PUSH8 0xFFFFFFFFFFFFFFFF DUP2 GT ISZERO PUSH2 0x652 JUMPI PUSH2 0x651 PUSH2 0x901 JUMP JUMPDEST JUMPDEST PUSH2 0x65E DUP7 DUP3 DUP8 ADD PUSH2 0x5C0 JUMP JUMPDEST SWAP3 POP POP PUSH1 0x40 DUP5 ADD CALLDATALOAD PUSH8 0xFFFFFFFFFFFFFFFF DUP2 GT ISZERO PUSH2 0x67F JUMPI PUSH2 0x67E PUSH2 0x901 JUMP JUMPDEST JUMPDEST PUSH2 0x68B DUP7 DUP3 DUP8 ADD PUSH2 0x5C0 JUMP JUMPDEST SWAP2 POP POP SWAP3 POP SWAP3 POP SWAP3 JUMP JUMPDEST PUSH1 0x0 PUSH2 0x6A0 DUP3 PUSH2 0x7D8 JUMP JUMPDEST PUSH2 0x6AA DUP2 DUP6 PUSH2 0x7E3 JUMP JUMPDEST SWAP4 POP PUSH2 0x6BA DUP2 DUP6 PUSH1 0x20 DUP7 ADD PUSH2 0x803 JUMP JUMPDEST PUSH2 0x6C3 DUP2 PUSH2 0x90B JUMP JUMPDEST DUP5 ADD SWAP2 POP POP SWAP3 SWAP2 POP POP JUMP JUMPDEST PUSH1 0x0 PUSH1 0xA0 DUP4 ADD PUSH1 0x0 DUP4 ADD MLOAD DUP5 DUP3 SUB PUSH1 0x0 DUP7 ADD MSTORE PUSH2 0x6EB DUP3 DUP3 PUSH2 0x695 JUMP JUMPDEST SWAP2 POP POP PUSH1 0x20 DUP4 ADD MLOAD DUP5 DUP3 SUB PUSH1 0x20 DUP7 ADD MSTORE PUSH2 0x705 DUP3 DUP3 PUSH2 0x695 JUMP JUMPDEST SWAP2 POP POP PUSH1 0x40 DUP4 ADD MLOAD DUP5 DUP3 SUB PUSH1 0x40 DUP7 ADD MSTORE PUSH2 0x71F DUP3 DUP3 PUSH2 0x695 JUMP JUMPDEST SWAP2 POP POP PUSH1 0x60 DUP4 ADD MLOAD DUP5 DUP3 SUB PUSH1 0x60 DUP7 ADD MSTORE PUSH2 0x739 DUP3 DUP3 PUSH2 0x695 JUMP JUMPDEST SWAP2 POP POP PUSH1 0x80 DUP4 ADD MLOAD DUP5 DUP3 SUB PUSH1 0x80 DUP7 ADD MSTORE PUSH2 0x753 DUP3 DUP3 PUSH2 0x695 JUMP JUMPDEST SWAP2 POP POP DUP1 SWAP2 POP POP SWAP3 SWAP2 POP POP JUMP JUMPDEST PUSH1 0x0 PUSH1 0x20 DUP3 ADD SWAP1 POP DUP2 DUP2 SUB PUSH1 0x0 DUP4 ADD MSTORE PUSH2 0x77A DUP2 DUP5 PUSH2 0x6CE JUMP JUMPDEST SWAP1 POP SWAP3 SWAP2 POP POP JUMP JUMPDEST PUSH1 0x0 PUSH2 0x78C PUSH2 0x79D JUMP JUMPDEST SWAP1 POP PUSH2 0x798 DUP3 DUP3 PUSH2 0x868 JUMP JUMPDEST SWAP2 SWAP1 POP JUMP JUMPDEST PUSH1 0x0 PUSH1 0x40 MLOAD SWAP1 POP SWAP1 JUMP JUMPDEST PUSH1 0x0 PUSH8 0xFFFFFFFFFFFFFFFF DUP3 GT ISZERO PUSH2 0x7C2 JUMPI PUSH2 0x7C1 PUSH2 0x8C8 JUMP JUMPDEST JUMPDEST PUSH2 0x7CB DUP3 PUSH2 0x90B JUMP JUMPDEST SWAP1 POP PUSH1 0x20 DUP2 ADD SWAP1 POP SWAP2 SWAP1 POP JUMP JUMPDEST PUSH1 0x0 DUP2 MLOAD SWAP1 POP SWAP2 SWAP1 POP JUMP JUMPDEST PUSH1 0x0 DUP3 DUP3 MSTORE PUSH1 0x20 DUP3 ADD SWAP1 POP SWAP3 SWAP2 POP POP JUMP JUMPDEST DUP3 DUP2 DUP4 CALLDATACOPY PUSH1 0x0 DUP4 DUP4 ADD MSTORE POP POP POP JUMP JUMPDEST PUSH1 0x0 JUMPDEST DUP4 DUP2 LT ISZERO PUSH2 0x821 JUMPI DUP1 DUP3 ADD MLOAD DUP2 DUP5 ADD MSTORE PUSH1 0x20 DUP2 ADD SWAP1 POP PUSH2 0x806 JUMP JUMPDEST DUP4 DUP2 GT ISZERO PUSH2 0x830 JUMPI PUSH1 0x0 DUP5 DUP5 ADD MSTORE JUMPDEST POP POP POP POP JUMP JUMPDEST PUSH1 0x0 PUSH1 0x2 DUP3 DIV SWAP1 POP PUSH1 0x1 DUP3 AND DUP1 PUSH2 0x84E JUMPI PUSH1 0x7F DUP3 AND SWAP2 POP JUMPDEST PUSH1 0x20 DUP3 LT DUP2 EQ ISZERO PUSH2 0x862 JUMPI PUSH2 0x861 PUSH2 0x899 JUMP JUMPDEST JUMPDEST POP SWAP2 SWAP1 POP JUMP JUMPDEST PUSH2 0x871 DUP3 PUSH2 0x90B JUMP JUMPDEST DUP2 ADD DUP2 DUP2 LT PUSH8 0xFFFFFFFFFFFFFFFF DUP3 GT OR ISZERO PUSH2 0x890 JUMPI PUSH2 0x88F PUSH2 0x8C8 JUMP JUMPDEST JUMPDEST DUP1 PUSH1 0x40 MSTORE POP POP POP JUMP JUMPDEST PUSH32 0x4E487B7100000000000000000000000000000000000000000000000000000000 PUSH1 0x0 MSTORE PUSH1 0x22 PUSH1 0x4 MSTORE PUSH1 0x24 PUSH1 0x0 REVERT JUMPDEST PUSH32 0x4E487B7100000000000000000000000000000000000000000000000000000000 PUSH1 0x0 MSTORE PUSH1 0x41 PUSH1 0x4 MSTORE PUSH1 0x24 PUSH1 0x0 REVERT JUMPDEST PUSH1 0x0 DUP1 REVERT JUMPDEST PUSH1 0x0 DUP1 REVERT JUMPDEST PUSH1 0x0 DUP1 REVERT JUMPDEST PUSH1 0x0 DUP1 REVERT JUMPDEST PUSH1 0x0 PUSH1 0x1F NOT PUSH1 0x1F DUP4 ADD AND SWAP1 POP SWAP2 SWAP1 POP JUMP INVALID LOG2 PUSH5 0x6970667358 0x22 SLT KECCAK256 OR 0xB7 0xC7 MULMOD 0x2B SWAP10 RETURNDATACOPY PUSH28 0x3F2020486861A857D800CF6FAFA993843E064EBDF540A64D64736F6C PUSH4 0x43000807 STOP CALLER "
				},
				"gasEstimates": {
					"creation": {
						"codeDepositCost": "477200",
						"executionCost": "511",
						"totalCost": "477711"
					},
					"external": {
						"addBio(string,string,string)": "infinite",
						"getBio()": "infinite"
					}
				},
				"methodIdentifiers": {
					"addBio(string,string,string)": "ffb40209",
					"getBio()": "fa165e8f"
				}
			},
			"storageLayout": {
				"storage": [
					{
						"astId": 17,
						"contract": "contracts/Profile.sol:Profile",
						"label": "profile",
						"offset": 0,
						"slot": "0",
						"type": "t_mapping(t_address,t_struct(Bio)12_storage)"
					}
				],
				"types": {
					"t_address": {
						"encoding": "inplace",
						"label": "address",
						"numberOfBytes": "20"
					},
					"t_mapping(t_address,t_struct(Bio)12_storage)": {
						"encoding": "mapping",
						"key": "t_address",
						"label": "mapping(address => struct Profile.Bio)",
						"numberOfBytes": "32",
						"value": "t_struct(Bio)12_storage"
					},
					"t_string_storage": {
						"encoding": "bytes",
						"label": "string",
						"numberOfBytes": "32"
					},
					"t_struct(Bio)12_storage": {
						"encoding": "inplace",
						"label": "struct Profile.Bio",
						"members": [
							{
								"astId": 3,
								"contract": "contracts/Profile.sol:Profile",
								"label": "firstName",
								"offset": 0,
								"slot": "0",
								"type": "t_string_storage"
							},
							{
								"astId": 5,
								"contract": "contracts/Profile.sol:Profile",
								"label": "middleName",
								"offset": 0,
								"slot": "1",
								"type": "t_string_storage"
							},
							{
								"astId": 7,
								"contract": "contracts/Profile.sol:Profile",
								"label": "lastName",
								"offset": 0,
								"slot": "2",
								"type": "t_string_storage"
							},
							{
								"astId": 9,
								"contract": "contracts/Profile.sol:Profile",
								"label": "email",
								"offset": 0,
								"slot": "3",
								"type": "t_string_storage"
							},
							{
								"astId": 11,
								"contract": "contracts/Profile.sol:Profile",
								"label": "phone",
								"offset": 0,
								"slot": "4",
								"type": "t_string_storage"
							}
						],
						"numberOfBytes": "160"
					}
				}
			},
			"userdoc": {
				"kind": "user",
				"methods": {},
				"version": 1
			}
		}
	}
}