{
	"contracts/Profile.sol": {
		"Profile": {
			"abi": [
				{
					"inputs": [
						{
							"internalType": "string",
							"name": "firstName",
							"type": "string"
						},
						{
							"internalType": "string",
							"name": "middleName",
							"type": "string"
						},
						{
							"internalType": "string",
							"name": "lastName",
							"type": "string"
						},
						{
							"internalType": "string",
							"name": "email",
							"type": "string"
						},
						{
							"internalType": "string",
							"name": "phone",
							"type": "string"
						}
					],
					"name": "addBio",
					"outputs": [],
					"stateMutability": "nonpayable",
					"type": "function"
				},
				{
					"inputs": [],
					"name": "getBio",
					"outputs": [
						{
							"components": [
								{
									"internalType": "string",
									"name": "firstName",
									"type": "string"
								},
								{
									"internalType": "string",
									"name": "middleName",
									"type": "string"
								},
								{
									"internalType": "string",
									"name": "lastName",
									"type": "string"
								},
								{
									"internalType": "string",
									"name": "email",
									"type": "string"
								},
								{
									"internalType": "string",
									"name": "phone",
									"type": "string"
								},
								{
									"internalType": "string",
									"name": "profileImage",
									"type": "string"
								}
							],
							"internalType": "struct Profile.Bio",
							"name": "",
							"type": "tuple"
						}
					],
					"stateMutability": "view",
					"type": "function"
				},
				{
					"inputs": [
						{
							"internalType": "address",
							"name": "",
							"type": "address"
						}
					],
					"name": "profile",
					"outputs": [
						{
							"internalType": "string",
							"name": "firstName",
							"type": "string"
						},
						{
							"internalType": "string",
							"name": "middleName",
							"type": "string"
						},
						{
							"internalType": "string",
							"name": "lastName",
							"type": "string"
						},
						{
							"internalType": "string",
							"name": "email",
							"type": "string"
						},
						{
							"internalType": "string",
							"name": "phone",
							"type": "string"
						},
						{
							"internalType": "string",
							"name": "profileImage",
							"type": "string"
						}
					],
					"stateMutability": "view",
					"type": "function"
				}
			],
			"devdoc": {
				"kind": "dev",
				"methods": {},
				"version": 1
			},
			"evm": {
				"assembly": "    /* \"contracts/Profile.sol\":64:834  contract Profile {\r... */\n  mstore(0x40, 0x80)\n  callvalue\n  dup1\n  iszero\n  tag_1\n  jumpi\n  0x00\n  dup1\n  revert\ntag_1:\n  pop\n  dataSize(sub_0)\n  dup1\n  dataOffset(sub_0)\n  0x00\n  codecopy\n  0x00\n  return\nstop\n\nsub_0: assembly {\n        /* \"contracts/Profile.sol\":64:834  contract Profile {\r... */\n      mstore(0x40, 0x80)\n      callvalue\n      dup1\n      iszero\n      tag_1\n      jumpi\n      0x00\n      dup1\n      revert\n    tag_1:\n      pop\n      jumpi(tag_2, lt(calldatasize, 0x04))\n      shr(0xe0, calldataload(0x00))\n      dup1\n      0x3e0eb060\n      eq\n      tag_3\n      jumpi\n      dup1\n      0x9dd9d0fd\n      eq\n      tag_4\n      jumpi\n      dup1\n      0xfa165e8f\n      eq\n      tag_5\n      jumpi\n    tag_2:\n      0x00\n      dup1\n      revert\n        /* \"contracts/Profile.sol\":329:721  function addBio(string memory firstName, string memory middleName, string memory lastName, string memory email, string memory phone) public {\r... */\n    tag_3:\n      tag_6\n      0x04\n      dup1\n      calldatasize\n      sub\n      dup2\n      add\n      swap1\n      tag_7\n      swap2\n      swap1\n      tag_8\n      jump\t// in\n    tag_7:\n      tag_9\n      jump\t// in\n    tag_6:\n      stop\n        /* \"contracts/Profile.sol\":276:316  mapping (address => Bio) public  profile */\n    tag_4:\n      tag_10\n      0x04\n      dup1\n      calldatasize\n      sub\n      dup2\n      add\n      swap1\n      tag_11\n      swap2\n      swap1\n      tag_12\n      jump\t// in\n    tag_11:\n      tag_13\n      jump\t// in\n    tag_10:\n      mload(0x40)\n      tag_14\n      swap7\n      swap6\n      swap5\n      swap4\n      swap3\n      swap2\n      swap1\n      tag_15\n      jump\t// in\n    tag_14:\n      mload(0x40)\n      dup1\n      swap2\n      sub\n      swap1\n      return\n        /* \"contracts/Profile.sol\":729:825  function getBio() public view returns(Bio memory ) {\r... */\n    tag_5:\n      tag_16\n      tag_17\n      jump\t// in\n    tag_16:\n      mload(0x40)\n      tag_18\n      swap2\n      swap1\n      tag_19\n      jump\t// in\n    tag_18:\n      mload(0x40)\n      dup1\n      swap2\n      sub\n      swap1\n      return\n        /* \"contracts/Profile.sol\":329:721  function addBio(string memory firstName, string memory middleName, string memory lastName, string memory email, string memory phone) public {\r... */\n    tag_9:\n        /* \"contracts/Profile.sol\":512:521  firstName */\n      dup5\n        /* \"contracts/Profile.sol\":480:487  profile */\n      0x00\n        /* \"contracts/Profile.sol\":480:499  profile[msg.sender] */\n      dup1\n        /* \"contracts/Profile.sol\":488:498  msg.sender */\n      caller\n        /* \"contracts/Profile.sol\":480:499  profile[msg.sender] */\n      0xffffffffffffffffffffffffffffffffffffffff\n      and\n      0xffffffffffffffffffffffffffffffffffffffff\n      and\n      dup2\n      mstore\n      0x20\n      add\n      swap1\n      dup2\n      mstore\n      0x20\n      add\n      0x00\n      keccak256\n        /* \"contracts/Profile.sol\":480:509  profile[msg.sender].firstName */\n      0x00\n      add\n        /* \"contracts/Profile.sol\":480:521  profile[msg.sender].firstName = firstName */\n      swap1\n      dup1\n      mload\n      swap1\n      0x20\n      add\n      swap1\n      tag_21\n      swap3\n      swap2\n      swap1\n      tag_22\n      jump\t// in\n    tag_21:\n      pop\n        /* \"contracts/Profile.sol\":565:575  middleName */\n      dup4\n        /* \"contracts/Profile.sol\":532:539  profile */\n      0x00\n        /* \"contracts/Profile.sol\":532:551  profile[msg.sender] */\n      dup1\n        /* \"contracts/Profile.sol\":540:550  msg.sender */\n      caller\n        /* \"contracts/Profile.sol\":532:551  profile[msg.sender] */\n      0xffffffffffffffffffffffffffffffffffffffff\n      and\n      0xffffffffffffffffffffffffffffffffffffffff\n      and\n      dup2\n      mstore\n      0x20\n      add\n      swap1\n      dup2\n      mstore\n      0x20\n      add\n      0x00\n      keccak256\n        /* \"contracts/Profile.sol\":532:562  profile[msg.sender].middleName */\n      0x01\n      add\n        /* \"contracts/Profile.sol\":532:575  profile[msg.sender].middleName = middleName */\n      swap1\n      dup1\n      mload\n      swap1\n      0x20\n      add\n      swap1\n      tag_23\n      swap3\n      swap2\n      swap1\n      tag_22\n      jump\t// in\n    tag_23:\n      pop\n        /* \"contracts/Profile.sol\":617:625  lastName */\n      dup3\n        /* \"contracts/Profile.sol\":586:593  profile */\n      0x00\n        /* \"contracts/Profile.sol\":586:605  profile[msg.sender] */\n      dup1\n        /* \"contracts/Profile.sol\":594:604  msg.sender */\n      caller\n        /* \"contracts/Profile.sol\":586:605  profile[msg.sender] */\n      0xffffffffffffffffffffffffffffffffffffffff\n      and\n      0xffffffffffffffffffffffffffffffffffffffff\n      and\n      dup2\n      mstore\n      0x20\n      add\n      swap1\n      dup2\n      mstore\n      0x20\n      add\n      0x00\n      keccak256\n        /* \"contracts/Profile.sol\":586:614  profile[msg.sender].lastName */\n      0x02\n      add\n        /* \"contracts/Profile.sol\":586:625  profile[msg.sender].lastName = lastName */\n      swap1\n      dup1\n      mload\n      swap1\n      0x20\n      add\n      swap1\n      tag_24\n      swap3\n      swap2\n      swap1\n      tag_22\n      jump\t// in\n    tag_24:\n      pop\n        /* \"contracts/Profile.sol\":664:669  email */\n      dup2\n        /* \"contracts/Profile.sol\":636:643  profile */\n      0x00\n        /* \"contracts/Profile.sol\":636:655  profile[msg.sender] */\n      dup1\n        /* \"contracts/Profile.sol\":644:654  msg.sender */\n      caller\n        /* \"contracts/Profile.sol\":636:655  profile[msg.sender] */\n      0xffffffffffffffffffffffffffffffffffffffff\n      and\n      0xffffffffffffffffffffffffffffffffffffffff\n      and\n      dup2\n      mstore\n      0x20\n      add\n      swap1\n      dup2\n      mstore\n      0x20\n      add\n      0x00\n      keccak256\n        /* \"contracts/Profile.sol\":636:661  profile[msg.sender].email */\n      0x03\n      add\n        /* \"contracts/Profile.sol\":636:669  profile[msg.sender].email = email */\n      swap1\n      dup1\n      mload\n      swap1\n      0x20\n      add\n      swap1\n      tag_25\n      swap3\n      swap2\n      swap1\n      tag_22\n      jump\t// in\n    tag_25:\n      pop\n        /* \"contracts/Profile.sol\":708:713  phone */\n      dup1\n        /* \"contracts/Profile.sol\":680:687  profile */\n      0x00\n        /* \"contracts/Profile.sol\":680:699  profile[msg.sender] */\n      dup1\n        /* \"contracts/Profile.sol\":688:698  msg.sender */\n      caller\n        /* \"contracts/Profile.sol\":680:699  profile[msg.sender] */\n      0xffffffffffffffffffffffffffffffffffffffff\n      and\n      0xffffffffffffffffffffffffffffffffffffffff\n      and\n      dup2\n      mstore\n      0x20\n      add\n      swap1\n      dup2\n      mstore\n      0x20\n      add\n      0x00\n      keccak256\n        /* \"contracts/Profile.sol\":680:705  profile[msg.sender].phone */\n      0x04\n      add\n        /* \"contracts/Profile.sol\":680:713  profile[msg.sender].phone = phone */\n      swap1\n      dup1\n      mload\n      swap1\n      0x20\n      add\n      swap1\n      tag_26\n      swap3\n      swap2\n      swap1\n      tag_22\n      jump\t// in\n    tag_26:\n      pop\n        /* \"contracts/Profile.sol\":329:721  function addBio(string memory firstName, string memory middleName, string memory lastName, string memory email, string memory phone) public {\r... */\n      pop\n      pop\n      pop\n      pop\n      pop\n      jump\t// out\n        /* \"contracts/Profile.sol\":276:316  mapping (address => Bio) public  profile */\n    tag_13:\n      mstore(0x20, 0x00)\n      dup1\n      0x00\n      mstore\n      keccak256(0x00, 0x40)\n      0x00\n      swap2\n      pop\n      swap1\n      pop\n      dup1\n      0x00\n      add\n      dup1\n      sload\n      tag_27\n      swap1\n      tag_28\n      jump\t// in\n    tag_27:\n      dup1\n      0x1f\n      add\n      0x20\n      dup1\n      swap2\n      div\n      mul\n      0x20\n      add\n      mload(0x40)\n      swap1\n      dup2\n      add\n      0x40\n      mstore\n      dup1\n      swap3\n      swap2\n      swap1\n      dup2\n      dup2\n      mstore\n      0x20\n      add\n      dup3\n      dup1\n      sload\n      tag_29\n      swap1\n      tag_28\n      jump\t// in\n    tag_29:\n      dup1\n      iszero\n      tag_30\n      jumpi\n      dup1\n      0x1f\n      lt\n      tag_31\n      jumpi\n      0x0100\n      dup1\n      dup4\n      sload\n      div\n      mul\n      dup4\n      mstore\n      swap2\n      0x20\n      add\n      swap2\n      jump(tag_30)\n    tag_31:\n      dup3\n      add\n      swap2\n      swap1\n      0x00\n      mstore\n      keccak256(0x00, 0x20)\n      swap1\n    tag_32:\n      dup2\n      sload\n      dup2\n      mstore\n      swap1\n      0x01\n      add\n      swap1\n      0x20\n      add\n      dup1\n      dup4\n      gt\n      tag_32\n      jumpi\n      dup3\n      swap1\n      sub\n      0x1f\n      and\n      dup3\n      add\n      swap2\n    tag_30:\n      pop\n      pop\n      pop\n      pop\n      pop\n      swap1\n      dup1\n      0x01\n      add\n      dup1\n      sload\n      tag_33\n      swap1\n      tag_28\n      jump\t// in\n    tag_33:\n      dup1\n      0x1f\n      add\n      0x20\n      dup1\n      swap2\n      div\n      mul\n      0x20\n      add\n      mload(0x40)\n      swap1\n      dup2\n      add\n      0x40\n      mstore\n      dup1\n      swap3\n      swap2\n      swap1\n      dup2\n      dup2\n      mstore\n      0x20\n      add\n      dup3\n      dup1\n      sload\n      tag_34\n      swap1\n      tag_28\n      jump\t// in\n    tag_34:\n      dup1\n      iszero\n      tag_35\n      jumpi\n      dup1\n      0x1f\n      lt\n      tag_36\n      jumpi\n      0x0100\n      dup1\n      dup4\n      sload\n      div\n      mul\n      dup4\n      mstore\n      swap2\n      0x20\n      add\n      swap2\n      jump(tag_35)\n    tag_36:\n      dup3\n      add\n      swap2\n      swap1\n      0x00\n      mstore\n      keccak256(0x00, 0x20)\n      swap1\n    tag_37:\n      dup2\n      sload\n      dup2\n      mstore\n      swap1\n      0x01\n      add\n      swap1\n      0x20\n      add\n      dup1\n      dup4\n      gt\n      tag_37\n      jumpi\n      dup3\n      swap1\n      sub\n      0x1f\n      and\n      dup3\n      add\n      swap2\n    tag_35:\n      pop\n      pop\n      pop\n      pop\n      pop\n      swap1\n      dup1\n      0x02\n      add\n      dup1\n      sload\n      tag_38\n      swap1\n      tag_28\n      jump\t// in\n    tag_38:\n      dup1\n      0x1f\n      add\n      0x20\n      dup1\n      swap2\n      div\n      mul\n      0x20\n      add\n      mload(0x40)\n      swap1\n      dup2\n      add\n      0x40\n      mstore\n      dup1\n      swap3\n      swap2\n      swap1\n      dup2\n      dup2\n      mstore\n      0x20\n      add\n      dup3\n      dup1\n      sload\n      tag_39\n      swap1\n      tag_28\n      jump\t// in\n    tag_39:\n      dup1\n      iszero\n      tag_40\n      jumpi\n      dup1\n      0x1f\n      lt\n      tag_41\n      jumpi\n      0x0100\n      dup1\n      dup4\n      sload\n      div\n      mul\n      dup4\n      mstore\n      swap2\n      0x20\n      add\n      swap2\n      jump(tag_40)\n    tag_41:\n      dup3\n      add\n      swap2\n      swap1\n      0x00\n      mstore\n      keccak256(0x00, 0x20)\n      swap1\n    tag_42:\n      dup2\n      sload\n      dup2\n      mstore\n      swap1\n      0x01\n      add\n      swap1\n      0x20\n      add\n      dup1\n      dup4\n      gt\n      tag_42\n      jumpi\n      dup3\n      swap1\n      sub\n      0x1f\n      and\n      dup3\n      add\n      swap2\n    tag_40:\n      pop\n      pop\n      pop\n      pop\n      pop\n      swap1\n      dup1\n      0x03\n      add\n      dup1\n      sload\n      tag_43\n      swap1\n      tag_28\n      jump\t// in\n    tag_43:\n      dup1\n      0x1f\n      add\n      0x20\n      dup1\n      swap2\n      div\n      mul\n      0x20\n      add\n      mload(0x40)\n      swap1\n      dup2\n      add\n      0x40\n      mstore\n      dup1\n      swap3\n      swap2\n      swap1\n      dup2\n      dup2\n      mstore\n      0x20\n      add\n      dup3\n      dup1\n      sload\n      tag_44\n      swap1\n      tag_28\n      jump\t// in\n    tag_44:\n      dup1\n      iszero\n      tag_45\n      jumpi\n      dup1\n      0x1f\n      lt\n      tag_46\n      jumpi\n      0x0100\n      dup1\n      dup4\n      sload\n      div\n      mul\n      dup4\n      mstore\n      swap2\n      0x20\n      add\n      swap2\n      jump(tag_45)\n    tag_46:\n      dup3\n      add\n      swap2\n      swap1\n      0x00\n      mstore\n      keccak256(0x00, 0x20)\n      swap1\n    tag_47:\n      dup2\n      sload\n      dup2\n      mstore\n      swap1\n      0x01\n      add\n      swap1\n      0x20\n      add\n      dup1\n      dup4\n      gt\n      tag_47\n      jumpi\n      dup3\n      swap1\n      sub\n      0x1f\n      and\n      dup3\n      add\n      swap2\n    tag_45:\n      pop\n      pop\n      pop\n      pop\n      pop\n      swap1\n      dup1\n      0x04\n      add\n      dup1\n      sload\n      tag_48\n      swap1\n      tag_28\n      jump\t// in\n    tag_48:\n      dup1\n      0x1f\n      add\n      0x20\n      dup1\n      swap2\n      div\n      mul\n      0x20\n      add\n      mload(0x40)\n      swap1\n      dup2\n      add\n      0x40\n      mstore\n      dup1\n      swap3\n      swap2\n      swap1\n      dup2\n      dup2\n      mstore\n      0x20\n      add\n      dup3\n      dup1\n      sload\n      tag_49\n      swap1\n      tag_28\n      jump\t// in\n    tag_49:\n      dup1\n      iszero\n      tag_50\n      jumpi\n      dup1\n      0x1f\n      lt\n      tag_51\n      jumpi\n      0x0100\n      dup1\n      dup4\n      sload\n      div\n      mul\n      dup4\n      mstore\n      swap2\n      0x20\n      add\n      swap2\n      jump(tag_50)\n    tag_51:\n      dup3\n      add\n      swap2\n      swap1\n      0x00\n      mstore\n      keccak256(0x00, 0x20)\n      swap1\n    tag_52:\n      dup2\n      sload\n      dup2\n      mstore\n      swap1\n      0x01\n      add\n      swap1\n      0x20\n      add\n      dup1\n      dup4\n      gt\n      tag_52\n      jumpi\n      dup3\n      swap1\n      sub\n      0x1f\n      and\n      dup3\n      add\n      swap2\n    tag_50:\n      pop\n      pop\n      pop\n      pop\n      pop\n      swap1\n      dup1\n      0x05\n      add\n      dup1\n      sload\n      tag_53\n      swap1\n      tag_28\n      jump\t// in\n    tag_53:\n      dup1\n      0x1f\n      add\n      0x20\n      dup1\n      swap2\n      div\n      mul\n      0x20\n      add\n      mload(0x40)\n      swap1\n      dup2\n      add\n      0x40\n      mstore\n      dup1\n      swap3\n      swap2\n      swap1\n      dup2\n      dup2\n      mstore\n      0x20\n      add\n      dup3\n      dup1\n      sload\n      tag_54\n      swap1\n      tag_28\n      jump\t// in\n    tag_54:\n      dup1\n      iszero\n      tag_55\n      jumpi\n      dup1\n      0x1f\n      lt\n      tag_56\n      jumpi\n      0x0100\n      dup1\n      dup4\n      sload\n      div\n      mul\n      dup4\n      mstore\n      swap2\n      0x20\n      add\n      swap2\n      jump(tag_55)\n    tag_56:\n      dup3\n      add\n      swap2\n      swap1\n      0x00\n      mstore\n      keccak256(0x00, 0x20)\n      swap1\n    tag_57:\n      dup2\n      sload\n      dup2\n      mstore\n      swap1\n      0x01\n      add\n      swap1\n      0x20\n      add\n      dup1\n      dup4\n      gt\n      tag_57\n      jumpi\n      dup3\n      swap1\n      sub\n      0x1f\n      and\n      dup3\n      add\n      swap2\n    tag_55:\n      pop\n      pop\n      pop\n      pop\n      pop\n      swap1\n      pop\n      dup7\n      jump\t// out\n        /* \"contracts/Profile.sol\":729:825  function getBio() public view returns(Bio memory ) {\r... */\n    tag_17:\n        /* \"contracts/Profile.sol\":767:777  Bio memory */\n      tag_58\n      tag_59\n      jump\t// in\n    tag_58:\n        /* \"contracts/Profile.sol\":798:805  profile */\n      0x00\n        /* \"contracts/Profile.sol\":798:817  profile[msg.sender] */\n      dup1\n        /* \"contracts/Profile.sol\":806:816  msg.sender */\n      caller\n        /* \"contracts/Profile.sol\":798:817  profile[msg.sender] */\n      0xffffffffffffffffffffffffffffffffffffffff\n      and\n      0xffffffffffffffffffffffffffffffffffffffff\n      and\n      dup2\n      mstore\n      0x20\n      add\n      swap1\n      dup2\n      mstore\n      0x20\n      add\n      0x00\n      keccak256\n        /* \"contracts/Profile.sol\":791:817  return profile[msg.sender] */\n      mload(0x40)\n      dup1\n      0xc0\n      add\n      0x40\n      mstore\n      swap1\n      dup2\n      0x00\n      dup3\n      add\n      dup1\n      sload\n      tag_61\n      swap1\n      tag_28\n      jump\t// in\n    tag_61:\n      dup1\n      0x1f\n      add\n      0x20\n      dup1\n      swap2\n      div\n      mul\n      0x20\n      add\n      mload(0x40)\n      swap1\n      dup2\n      add\n      0x40\n      mstore\n      dup1\n      swap3\n      swap2\n      swap1\n      dup2\n      dup2\n      mstore\n      0x20\n      add\n      dup3\n      dup1\n      sload\n      tag_62\n      swap1\n      tag_28\n      jump\t// in\n    tag_62:\n      dup1\n      iszero\n      tag_63\n      jumpi\n      dup1\n      0x1f\n      lt\n      tag_64\n      jumpi\n      0x0100\n      dup1\n      dup4\n      sload\n      div\n      mul\n      dup4\n      mstore\n      swap2\n      0x20\n      add\n      swap2\n      jump(tag_63)\n    tag_64:\n      dup3\n      add\n      swap2\n      swap1\n      0x00\n      mstore\n      keccak256(0x00, 0x20)\n      swap1\n    tag_65:\n      dup2\n      sload\n      dup2\n      mstore\n      swap1\n      0x01\n      add\n      swap1\n      0x20\n      add\n      dup1\n      dup4\n      gt\n      tag_65\n      jumpi\n      dup3\n      swap1\n      sub\n      0x1f\n      and\n      dup3\n      add\n      swap2\n    tag_63:\n      pop\n      pop\n      pop\n      pop\n      pop\n      dup2\n      mstore\n      0x20\n      add\n      0x01\n      dup3\n      add\n      dup1\n      sload\n      tag_66\n      swap1\n      tag_28\n      jump\t// in\n    tag_66:\n      dup1\n      0x1f\n      add\n      0x20\n      dup1\n      swap2\n      div\n      mul\n      0x20\n      add\n      mload(0x40)\n      swap1\n      dup2\n      add\n      0x40\n      mstore\n      dup1\n      swap3\n      swap2\n      swap1\n      dup2\n      dup2\n      mstore\n      0x20\n      add\n      dup3\n      dup1\n      sload\n      tag_67\n      swap1\n      tag_28\n      jump\t// in\n    tag_67:\n      dup1\n      iszero\n      tag_68\n      jumpi\n      dup1\n      0x1f\n      lt\n      tag_69\n      jumpi\n      0x0100\n      dup1\n      dup4\n      sload\n      div\n      mul\n      dup4\n      mstore\n      swap2\n      0x20\n      add\n      swap2\n      jump(tag_68)\n    tag_69:\n      dup3\n      add\n      swap2\n      swap1\n      0x00\n      mstore\n      keccak256(0x00, 0x20)\n      swap1\n    tag_70:\n      dup2\n      sload\n      dup2\n      mstore\n      swap1\n      0x01\n      add\n      swap1\n      0x20\n      add\n      dup1\n      dup4\n      gt\n      tag_70\n      jumpi\n      dup3\n      swap1\n      sub\n      0x1f\n      and\n      dup3\n      add\n      swap2\n    tag_68:\n      pop\n      pop\n      pop\n      pop\n      pop\n      dup2\n      mstore\n      0x20\n      add\n      0x02\n      dup3\n      add\n      dup1\n      sload\n      tag_71\n      swap1\n      tag_28\n      jump\t// in\n    tag_71:\n      dup1\n      0x1f\n      add\n      0x20\n      dup1\n      swap2\n      div\n      mul\n      0x20\n      add\n      mload(0x40)\n      swap1\n      dup2\n      add\n      0x40\n      mstore\n      dup1\n      swap3\n      swap2\n      swap1\n      dup2\n      dup2\n      mstore\n      0x20\n      add\n      dup3\n      dup1\n      sload\n      tag_72\n      swap1\n      tag_28\n      jump\t// in\n    tag_72:\n      dup1\n      iszero\n      tag_73\n      jumpi\n      dup1\n      0x1f\n      lt\n      tag_74\n      jumpi\n      0x0100\n      dup1\n      dup4\n      sload\n      div\n      mul\n      dup4\n      mstore\n      swap2\n      0x20\n      add\n      swap2\n      jump(tag_73)\n    tag_74:\n      dup3\n      add\n      swap2\n      swap1\n      0x00\n      mstore\n      keccak256(0x00, 0x20)\n      swap1\n    tag_75:\n      dup2\n      sload\n      dup2\n      mstore\n      swap1\n      0x01\n      add\n      swap1\n      0x20\n      add\n      dup1\n      dup4\n      gt\n      tag_75\n      jumpi\n      dup3\n      swap1\n      sub\n      0x1f\n      and\n      dup3\n      add\n      swap2\n    tag_73:\n      pop\n      pop\n      pop\n      pop\n      pop\n      dup2\n      mstore\n      0x20\n      add\n      0x03\n      dup3\n      add\n      dup1\n      sload\n      tag_76\n      swap1\n      tag_28\n      jump\t// in\n    tag_76:\n      dup1\n      0x1f\n      add\n      0x20\n      dup1\n      swap2\n      div\n      mul\n      0x20\n      add\n      mload(0x40)\n      swap1\n      dup2\n      add\n      0x40\n      mstore\n      dup1\n      swap3\n      swap2\n      swap1\n      dup2\n      dup2\n      mstore\n      0x20\n      add\n      dup3\n      dup1\n      sload\n      tag_77\n      swap1\n      tag_28\n      jump\t// in\n    tag_77:\n      dup1\n      iszero\n      tag_78\n      jumpi\n      dup1\n      0x1f\n      lt\n      tag_79\n      jumpi\n      0x0100\n      dup1\n      dup4\n      sload\n      div\n      mul\n      dup4\n      mstore\n      swap2\n      0x20\n      add\n      swap2\n      jump(tag_78)\n    tag_79:\n      dup3\n      add\n      swap2\n      swap1\n      0x00\n      mstore\n      keccak256(0x00, 0x20)\n      swap1\n    tag_80:\n      dup2\n      sload\n      dup2\n      mstore\n      swap1\n      0x01\n      add\n      swap1\n      0x20\n      add\n      dup1\n      dup4\n      gt\n      tag_80\n      jumpi\n      dup3\n      swap1\n      sub\n      0x1f\n      and\n      dup3\n      add\n      swap2\n    tag_78:\n      pop\n      pop\n      pop\n      pop\n      pop\n      dup2\n      mstore\n      0x20\n      add\n      0x04\n      dup3\n      add\n      dup1\n      sload\n      tag_81\n      swap1\n      tag_28\n      jump\t// in\n    tag_81:\n      dup1\n      0x1f\n      add\n      0x20\n      dup1\n      swap2\n      div\n      mul\n      0x20\n      add\n      mload(0x40)\n      swap1\n      dup2\n      add\n      0x40\n      mstore\n      dup1\n      swap3\n      swap2\n      swap1\n      dup2\n      dup2\n      mstore\n      0x20\n      add\n      dup3\n      dup1\n      sload\n      tag_82\n      swap1\n      tag_28\n      jump\t// in\n    tag_82:\n      dup1\n      iszero\n      tag_83\n      jumpi\n      dup1\n      0x1f\n      lt\n      tag_84\n      jumpi\n      0x0100\n      dup1\n      dup4\n      sload\n      div\n      mul\n      dup4\n      mstore\n      swap2\n      0x20\n      add\n      swap2\n      jump(tag_83)\n    tag_84:\n      dup3\n      add\n      swap2\n      swap1\n      0x00\n      mstore\n      keccak256(0x00, 0x20)\n      swap1\n    tag_85:\n      dup2\n      sload\n      dup2\n      mstore\n      swap1\n      0x01\n      add\n      swap1\n      0x20\n      add\n      dup1\n      dup4\n      gt\n      tag_85\n      jumpi\n      dup3\n      swap1\n      sub\n      0x1f\n      and\n      dup3\n      add\n      swap2\n    tag_83:\n      pop\n      pop\n      pop\n      pop\n      pop\n      dup2\n      mstore\n      0x20\n      add\n      0x05\n      dup3\n      add\n      dup1\n      sload\n      tag_86\n      swap1\n      tag_28\n      jump\t// in\n    tag_86:\n      dup1\n      0x1f\n      add\n      0x20\n      dup1\n      swap2\n      div\n      mul\n      0x20\n      add\n      mload(0x40)\n      swap1\n      dup2\n      add\n      0x40\n      mstore\n      dup1\n      swap3\n      swap2\n      swap1\n      dup2\n      dup2\n      mstore\n      0x20\n      add\n      dup3\n      dup1\n      sload\n      tag_87\n      swap1\n      tag_28\n      jump\t// in\n    tag_87:\n      dup1\n      iszero\n      tag_88\n      jumpi\n      dup1\n      0x1f\n      lt\n      tag_89\n      jumpi\n      0x0100\n      dup1\n      dup4\n      sload\n      div\n      mul\n      dup4\n      mstore\n      swap2\n      0x20\n      add\n      swap2\n      jump(tag_88)\n    tag_89:\n      dup3\n      add\n      swap2\n      swap1\n      0x00\n      mstore\n      keccak256(0x00, 0x20)\n      swap1\n    tag_90:\n      dup2\n      sload\n      dup2\n      mstore\n      swap1\n      0x01\n      add\n      swap1\n      0x20\n      add\n      dup1\n      dup4\n      gt\n      tag_90\n      jumpi\n      dup3\n      swap1\n      sub\n      0x1f\n      and\n      dup3\n      add\n      swap2\n    tag_88:\n      pop\n      pop\n      pop\n      pop\n      pop\n      dup2\n      mstore\n      pop\n      pop\n      swap1\n      pop\n        /* \"contracts/Profile.sol\":729:825  function getBio() public view returns(Bio memory ) {\r... */\n      swap1\n      jump\t// out\n    tag_22:\n      dup3\n      dup1\n      sload\n      tag_91\n      swap1\n      tag_28\n      jump\t// in\n    tag_91:\n      swap1\n      0x00\n      mstore\n      keccak256(0x00, 0x20)\n      swap1\n      0x1f\n      add\n      0x20\n      swap1\n      div\n      dup2\n      add\n      swap3\n      dup3\n      tag_93\n      jumpi\n      0x00\n      dup6\n      sstore\n      jump(tag_92)\n    tag_93:\n      dup3\n      0x1f\n      lt\n      tag_94\n      jumpi\n      dup1\n      mload\n      not(0xff)\n      and\n      dup4\n      dup1\n      add\n      or\n      dup6\n      sstore\n      jump(tag_92)\n    tag_94:\n      dup3\n      dup1\n      add\n      0x01\n      add\n      dup6\n      sstore\n      dup3\n      iszero\n      tag_92\n      jumpi\n      swap2\n      dup3\n      add\n    tag_95:\n      dup3\n      dup2\n      gt\n      iszero\n      tag_96\n      jumpi\n      dup3\n      mload\n      dup3\n      sstore\n      swap2\n      0x20\n      add\n      swap2\n      swap1\n      0x01\n      add\n      swap1\n      jump(tag_95)\n    tag_96:\n    tag_92:\n      pop\n      swap1\n      pop\n      tag_97\n      swap2\n      swap1\n      tag_98\n      jump\t// in\n    tag_97:\n      pop\n      swap1\n      jump\t// out\n    tag_59:\n      mload(0x40)\n      dup1\n      0xc0\n      add\n      0x40\n      mstore\n      dup1\n      0x60\n      dup2\n      mstore\n      0x20\n      add\n      0x60\n      dup2\n      mstore\n      0x20\n      add\n      0x60\n      dup2\n      mstore\n      0x20\n      add\n      0x60\n      dup2\n      mstore\n      0x20\n      add\n      0x60\n      dup2\n      mstore\n      0x20\n      add\n      0x60\n      dup2\n      mstore\n      pop\n      swap1\n      jump\t// out\n    tag_98:\n    tag_99:\n      dup1\n      dup3\n      gt\n      iszero\n      tag_100\n      jumpi\n      0x00\n      dup2\n      0x00\n      swap1\n      sstore\n      pop\n      0x01\n      add\n      jump(tag_99)\n    tag_100:\n      pop\n      swap1\n      jump\t// out\n        /* \"#utility.yul\":7:419   */\n    tag_102:\n        /* \"#utility.yul\":85:90   */\n      0x00\n        /* \"#utility.yul\":110:176   */\n      tag_104\n        /* \"#utility.yul\":126:175   */\n      tag_105\n        /* \"#utility.yul\":168:174   */\n      dup5\n        /* \"#utility.yul\":126:175   */\n      tag_106\n      jump\t// in\n    tag_105:\n        /* \"#utility.yul\":110:176   */\n      tag_107\n      jump\t// in\n    tag_104:\n        /* \"#utility.yul\":101:176   */\n      swap1\n      pop\n        /* \"#utility.yul\":199:205   */\n      dup3\n        /* \"#utility.yul\":192:197   */\n      dup2\n        /* \"#utility.yul\":185:206   */\n      mstore\n        /* \"#utility.yul\":237:241   */\n      0x20\n        /* \"#utility.yul\":230:235   */\n      dup2\n        /* \"#utility.yul\":226:242   */\n      add\n        /* \"#utility.yul\":275:278   */\n      dup5\n        /* \"#utility.yul\":266:272   */\n      dup5\n        /* \"#utility.yul\":261:264   */\n      dup5\n        /* \"#utility.yul\":257:273   */\n      add\n        /* \"#utility.yul\":254:279   */\n      gt\n        /* \"#utility.yul\":251:363   */\n      iszero\n      tag_108\n      jumpi\n        /* \"#utility.yul\":282:361   */\n      tag_109\n      tag_110\n      jump\t// in\n    tag_109:\n        /* \"#utility.yul\":251:363   */\n    tag_108:\n        /* \"#utility.yul\":372:413   */\n      tag_111\n        /* \"#utility.yul\":406:412   */\n      dup5\n        /* \"#utility.yul\":401:404   */\n      dup3\n        /* \"#utility.yul\":396:399   */\n      dup6\n        /* \"#utility.yul\":372:413   */\n      tag_112\n      jump\t// in\n    tag_111:\n        /* \"#utility.yul\":91:419   */\n      pop\n        /* \"#utility.yul\":7:419   */\n      swap4\n      swap3\n      pop\n      pop\n      pop\n      jump\t// out\n        /* \"#utility.yul\":425:564   */\n    tag_113:\n        /* \"#utility.yul\":471:476   */\n      0x00\n        /* \"#utility.yul\":509:515   */\n      dup2\n        /* \"#utility.yul\":496:516   */\n      calldataload\n        /* \"#utility.yul\":487:516   */\n      swap1\n      pop\n        /* \"#utility.yul\":525:558   */\n      tag_115\n        /* \"#utility.yul\":552:557   */\n      dup2\n        /* \"#utility.yul\":525:558   */\n      tag_116\n      jump\t// in\n    tag_115:\n        /* \"#utility.yul\":425:564   */\n      swap3\n      swap2\n      pop\n      pop\n      jump\t// out\n        /* \"#utility.yul\":584:924   */\n    tag_117:\n        /* \"#utility.yul\":640:645   */\n      0x00\n        /* \"#utility.yul\":689:692   */\n      dup3\n        /* \"#utility.yul\":682:686   */\n      0x1f\n        /* \"#utility.yul\":674:680   */\n      dup4\n        /* \"#utility.yul\":670:687   */\n      add\n        /* \"#utility.yul\":666:693   */\n      slt\n        /* \"#utility.yul\":656:778   */\n      tag_119\n      jumpi\n        /* \"#utility.yul\":697:776   */\n      tag_120\n      tag_121\n      jump\t// in\n    tag_120:\n        /* \"#utility.yul\":656:778   */\n    tag_119:\n        /* \"#utility.yul\":814:820   */\n      dup2\n        /* \"#utility.yul\":801:821   */\n      calldataload\n        /* \"#utility.yul\":839:918   */\n      tag_122\n        /* \"#utility.yul\":914:917   */\n      dup5\n        /* \"#utility.yul\":906:912   */\n      dup3\n        /* \"#utility.yul\":899:903   */\n      0x20\n        /* \"#utility.yul\":891:897   */\n      dup7\n        /* \"#utility.yul\":887:904   */\n      add\n        /* \"#utility.yul\":839:918   */\n      tag_102\n      jump\t// in\n    tag_122:\n        /* \"#utility.yul\":830:918   */\n      swap2\n      pop\n        /* \"#utility.yul\":646:924   */\n      pop\n        /* \"#utility.yul\":584:924   */\n      swap3\n      swap2\n      pop\n      pop\n      jump\t// out\n        /* \"#utility.yul\":930:1259   */\n    tag_12:\n        /* \"#utility.yul\":989:995   */\n      0x00\n        /* \"#utility.yul\":1038:1040   */\n      0x20\n        /* \"#utility.yul\":1026:1035   */\n      dup3\n        /* \"#utility.yul\":1017:1024   */\n      dup5\n        /* \"#utility.yul\":1013:1036   */\n      sub\n        /* \"#utility.yul\":1009:1041   */\n      slt\n        /* \"#utility.yul\":1006:1125   */\n      iszero\n      tag_124\n      jumpi\n        /* \"#utility.yul\":1044:1123   */\n      tag_125\n      tag_126\n      jump\t// in\n    tag_125:\n        /* \"#utility.yul\":1006:1125   */\n    tag_124:\n        /* \"#utility.yul\":1164:1165   */\n      0x00\n        /* \"#utility.yul\":1189:1242   */\n      tag_127\n        /* \"#utility.yul\":1234:1241   */\n      dup5\n        /* \"#utility.yul\":1225:1231   */\n      dup3\n        /* \"#utility.yul\":1214:1223   */\n      dup6\n        /* \"#utility.yul\":1210:1232   */\n      add\n        /* \"#utility.yul\":1189:1242   */\n      tag_113\n      jump\t// in\n    tag_127:\n        /* \"#utility.yul\":1179:1242   */\n      swap2\n      pop\n        /* \"#utility.yul\":1135:1252   */\n      pop\n        /* \"#utility.yul\":930:1259   */\n      swap3\n      swap2\n      pop\n      pop\n      jump\t// out\n        /* \"#utility.yul\":1265:3076   */\n    tag_8:\n        /* \"#utility.yul\":1410:1416   */\n      0x00\n        /* \"#utility.yul\":1418:1424   */\n      dup1\n        /* \"#utility.yul\":1426:1432   */\n      0x00\n        /* \"#utility.yul\":1434:1440   */\n      dup1\n        /* \"#utility.yul\":1442:1448   */\n      0x00\n        /* \"#utility.yul\":1491:1494   */\n      0xa0\n        /* \"#utility.yul\":1479:1488   */\n      dup7\n        /* \"#utility.yul\":1470:1477   */\n      dup9\n        /* \"#utility.yul\":1466:1489   */\n      sub\n        /* \"#utility.yul\":1462:1495   */\n      slt\n        /* \"#utility.yul\":1459:1579   */\n      iszero\n      tag_129\n      jumpi\n        /* \"#utility.yul\":1498:1577   */\n      tag_130\n      tag_126\n      jump\t// in\n    tag_130:\n        /* \"#utility.yul\":1459:1579   */\n    tag_129:\n        /* \"#utility.yul\":1646:1647   */\n      0x00\n        /* \"#utility.yul\":1635:1644   */\n      dup7\n        /* \"#utility.yul\":1631:1648   */\n      add\n        /* \"#utility.yul\":1618:1649   */\n      calldataload\n        /* \"#utility.yul\":1676:1694   */\n      0xffffffffffffffff\n        /* \"#utility.yul\":1668:1674   */\n      dup2\n        /* \"#utility.yul\":1665:1695   */\n      gt\n        /* \"#utility.yul\":1662:1779   */\n      iszero\n      tag_131\n      jumpi\n        /* \"#utility.yul\":1698:1777   */\n      tag_132\n      tag_133\n      jump\t// in\n    tag_132:\n        /* \"#utility.yul\":1662:1779   */\n    tag_131:\n        /* \"#utility.yul\":1803:1866   */\n      tag_134\n        /* \"#utility.yul\":1858:1865   */\n      dup9\n        /* \"#utility.yul\":1849:1855   */\n      dup3\n        /* \"#utility.yul\":1838:1847   */\n      dup10\n        /* \"#utility.yul\":1834:1856   */\n      add\n        /* \"#utility.yul\":1803:1866   */\n      tag_117\n      jump\t// in\n    tag_134:\n        /* \"#utility.yul\":1793:1866   */\n      swap6\n      pop\n        /* \"#utility.yul\":1589:1876   */\n      pop\n        /* \"#utility.yul\":1943:1945   */\n      0x20\n        /* \"#utility.yul\":1932:1941   */\n      dup7\n        /* \"#utility.yul\":1928:1946   */\n      add\n        /* \"#utility.yul\":1915:1947   */\n      calldataload\n        /* \"#utility.yul\":1974:1992   */\n      0xffffffffffffffff\n        /* \"#utility.yul\":1966:1972   */\n      dup2\n        /* \"#utility.yul\":1963:1993   */\n      gt\n        /* \"#utility.yul\":1960:2077   */\n      iszero\n      tag_135\n      jumpi\n        /* \"#utility.yul\":1996:2075   */\n      tag_136\n      tag_133\n      jump\t// in\n    tag_136:\n        /* \"#utility.yul\":1960:2077   */\n    tag_135:\n        /* \"#utility.yul\":2101:2164   */\n      tag_137\n        /* \"#utility.yul\":2156:2163   */\n      dup9\n        /* \"#utility.yul\":2147:2153   */\n      dup3\n        /* \"#utility.yul\":2136:2145   */\n      dup10\n        /* \"#utility.yul\":2132:2154   */\n      add\n        /* \"#utility.yul\":2101:2164   */\n      tag_117\n      jump\t// in\n    tag_137:\n        /* \"#utility.yul\":2091:2164   */\n      swap5\n      pop\n        /* \"#utility.yul\":1886:2174   */\n      pop\n        /* \"#utility.yul\":2241:2243   */\n      0x40\n        /* \"#utility.yul\":2230:2239   */\n      dup7\n        /* \"#utility.yul\":2226:2244   */\n      add\n        /* \"#utility.yul\":2213:2245   */\n      calldataload\n        /* \"#utility.yul\":2272:2290   */\n      0xffffffffffffffff\n        /* \"#utility.yul\":2264:2270   */\n      dup2\n        /* \"#utility.yul\":2261:2291   */\n      gt\n        /* \"#utility.yul\":2258:2375   */\n      iszero\n      tag_138\n      jumpi\n        /* \"#utility.yul\":2294:2373   */\n      tag_139\n      tag_133\n      jump\t// in\n    tag_139:\n        /* \"#utility.yul\":2258:2375   */\n    tag_138:\n        /* \"#utility.yul\":2399:2462   */\n      tag_140\n        /* \"#utility.yul\":2454:2461   */\n      dup9\n        /* \"#utility.yul\":2445:2451   */\n      dup3\n        /* \"#utility.yul\":2434:2443   */\n      dup10\n        /* \"#utility.yul\":2430:2452   */\n      add\n        /* \"#utility.yul\":2399:2462   */\n      tag_117\n      jump\t// in\n    tag_140:\n        /* \"#utility.yul\":2389:2462   */\n      swap4\n      pop\n        /* \"#utility.yul\":2184:2472   */\n      pop\n        /* \"#utility.yul\":2539:2541   */\n      0x60\n        /* \"#utility.yul\":2528:2537   */\n      dup7\n        /* \"#utility.yul\":2524:2542   */\n      add\n        /* \"#utility.yul\":2511:2543   */\n      calldataload\n        /* \"#utility.yul\":2570:2588   */\n      0xffffffffffffffff\n        /* \"#utility.yul\":2562:2568   */\n      dup2\n        /* \"#utility.yul\":2559:2589   */\n      gt\n        /* \"#utility.yul\":2556:2673   */\n      iszero\n      tag_141\n      jumpi\n        /* \"#utility.yul\":2592:2671   */\n      tag_142\n      tag_133\n      jump\t// in\n    tag_142:\n        /* \"#utility.yul\":2556:2673   */\n    tag_141:\n        /* \"#utility.yul\":2697:2760   */\n      tag_143\n        /* \"#utility.yul\":2752:2759   */\n      dup9\n        /* \"#utility.yul\":2743:2749   */\n      dup3\n        /* \"#utility.yul\":2732:2741   */\n      dup10\n        /* \"#utility.yul\":2728:2750   */\n      add\n        /* \"#utility.yul\":2697:2760   */\n      tag_117\n      jump\t// in\n    tag_143:\n        /* \"#utility.yul\":2687:2760   */\n      swap3\n      pop\n        /* \"#utility.yul\":2482:2770   */\n      pop\n        /* \"#utility.yul\":2837:2840   */\n      0x80\n        /* \"#utility.yul\":2826:2835   */\n      dup7\n        /* \"#utility.yul\":2822:2841   */\n      add\n        /* \"#utility.yul\":2809:2842   */\n      calldataload\n        /* \"#utility.yul\":2869:2887   */\n      0xffffffffffffffff\n        /* \"#utility.yul\":2861:2867   */\n      dup2\n        /* \"#utility.yul\":2858:2888   */\n      gt\n        /* \"#utility.yul\":2855:2972   */\n      iszero\n      tag_144\n      jumpi\n        /* \"#utility.yul\":2891:2970   */\n      tag_145\n      tag_133\n      jump\t// in\n    tag_145:\n        /* \"#utility.yul\":2855:2972   */\n    tag_144:\n        /* \"#utility.yul\":2996:3059   */\n      tag_146\n        /* \"#utility.yul\":3051:3058   */\n      dup9\n        /* \"#utility.yul\":3042:3048   */\n      dup3\n        /* \"#utility.yul\":3031:3040   */\n      dup10\n        /* \"#utility.yul\":3027:3049   */\n      add\n        /* \"#utility.yul\":2996:3059   */\n      tag_117\n      jump\t// in\n    tag_146:\n        /* \"#utility.yul\":2986:3059   */\n      swap2\n      pop\n        /* \"#utility.yul\":2780:3069   */\n      pop\n        /* \"#utility.yul\":1265:3076   */\n      swap3\n      swap6\n      pop\n      swap3\n      swap6\n      swap1\n      swap4\n      pop\n      jump\t// out\n        /* \"#utility.yul\":3082:3426   */\n    tag_147:\n        /* \"#utility.yul\":3160:3163   */\n      0x00\n        /* \"#utility.yul\":3188:3227   */\n      tag_149\n        /* \"#utility.yul\":3221:3226   */\n      dup3\n        /* \"#utility.yul\":3188:3227   */\n      tag_150\n      jump\t// in\n    tag_149:\n        /* \"#utility.yul\":3243:3304   */\n      tag_151\n        /* \"#utility.yul\":3297:3303   */\n      dup2\n        /* \"#utility.yul\":3292:3295   */\n      dup6\n        /* \"#utility.yul\":3243:3304   */\n      tag_152\n      jump\t// in\n    tag_151:\n        /* \"#utility.yul\":3236:3304   */\n      swap4\n      pop\n        /* \"#utility.yul\":3313:3365   */\n      tag_153\n        /* \"#utility.yul\":3358:3364   */\n      dup2\n        /* \"#utility.yul\":3353:3356   */\n      dup6\n        /* \"#utility.yul\":3346:3350   */\n      0x20\n        /* \"#utility.yul\":3339:3344   */\n      dup7\n        /* \"#utility.yul\":3335:3351   */\n      add\n        /* \"#utility.yul\":3313:3365   */\n      tag_154\n      jump\t// in\n    tag_153:\n        /* \"#utility.yul\":3390:3419   */\n      tag_155\n        /* \"#utility.yul\":3412:3418   */\n      dup2\n        /* \"#utility.yul\":3390:3419   */\n      tag_156\n      jump\t// in\n    tag_155:\n        /* \"#utility.yul\":3385:3388   */\n      dup5\n        /* \"#utility.yul\":3381:3420   */\n      add\n        /* \"#utility.yul\":3374:3420   */\n      swap2\n      pop\n        /* \"#utility.yul\":3164:3426   */\n      pop\n        /* \"#utility.yul\":3082:3426   */\n      swap3\n      swap2\n      pop\n      pop\n      jump\t// out\n        /* \"#utility.yul\":3432:3796   */\n    tag_157:\n        /* \"#utility.yul\":3520:3523   */\n      0x00\n        /* \"#utility.yul\":3548:3587   */\n      tag_159\n        /* \"#utility.yul\":3581:3586   */\n      dup3\n        /* \"#utility.yul\":3548:3587   */\n      tag_150\n      jump\t// in\n    tag_159:\n        /* \"#utility.yul\":3603:3674   */\n      tag_160\n        /* \"#utility.yul\":3667:3673   */\n      dup2\n        /* \"#utility.yul\":3662:3665   */\n      dup6\n        /* \"#utility.yul\":3603:3674   */\n      tag_161\n      jump\t// in\n    tag_160:\n        /* \"#utility.yul\":3596:3674   */\n      swap4\n      pop\n        /* \"#utility.yul\":3683:3735   */\n      tag_162\n        /* \"#utility.yul\":3728:3734   */\n      dup2\n        /* \"#utility.yul\":3723:3726   */\n      dup6\n        /* \"#utility.yul\":3716:3720   */\n      0x20\n        /* \"#utility.yul\":3709:3714   */\n      dup7\n        /* \"#utility.yul\":3705:3721   */\n      add\n        /* \"#utility.yul\":3683:3735   */\n      tag_154\n      jump\t// in\n    tag_162:\n        /* \"#utility.yul\":3760:3789   */\n      tag_163\n        /* \"#utility.yul\":3782:3788   */\n      dup2\n        /* \"#utility.yul\":3760:3789   */\n      tag_156\n      jump\t// in\n    tag_163:\n        /* \"#utility.yul\":3755:3758   */\n      dup5\n        /* \"#utility.yul\":3751:3790   */\n      add\n        /* \"#utility.yul\":3744:3790   */\n      swap2\n      pop\n        /* \"#utility.yul\":3524:3796   */\n      pop\n        /* \"#utility.yul\":3432:3796   */\n      swap3\n      swap2\n      pop\n      pop\n      jump\t// out\n        /* \"#utility.yul\":3850:5520   */\n    tag_164:\n        /* \"#utility.yul\":3957:3960   */\n      0x00\n        /* \"#utility.yul\":3993:3997   */\n      0xc0\n        /* \"#utility.yul\":3988:3991   */\n      dup4\n        /* \"#utility.yul\":3984:3998   */\n      add\n        /* \"#utility.yul\":4085:4089   */\n      0x00\n        /* \"#utility.yul\":4078:4083   */\n      dup4\n        /* \"#utility.yul\":4074:4090   */\n      add\n        /* \"#utility.yul\":4068:4091   */\n      mload\n        /* \"#utility.yul\":4138:4141   */\n      dup5\n        /* \"#utility.yul\":4132:4136   */\n      dup3\n        /* \"#utility.yul\":4128:4142   */\n      sub\n        /* \"#utility.yul\":4121:4125   */\n      0x00\n        /* \"#utility.yul\":4116:4119   */\n      dup7\n        /* \"#utility.yul\":4112:4126   */\n      add\n        /* \"#utility.yul\":4105:4143   */\n      mstore\n        /* \"#utility.yul\":4164:4237   */\n      tag_166\n        /* \"#utility.yul\":4232:4236   */\n      dup3\n        /* \"#utility.yul\":4218:4230   */\n      dup3\n        /* \"#utility.yul\":4164:4237   */\n      tag_147\n      jump\t// in\n    tag_166:\n        /* \"#utility.yul\":4156:4237   */\n      swap2\n      pop\n        /* \"#utility.yul\":4008:4248   */\n      pop\n        /* \"#utility.yul\":4336:4340   */\n      0x20\n        /* \"#utility.yul\":4329:4334   */\n      dup4\n        /* \"#utility.yul\":4325:4341   */\n      add\n        /* \"#utility.yul\":4319:4342   */\n      mload\n        /* \"#utility.yul\":4389:4392   */\n      dup5\n        /* \"#utility.yul\":4383:4387   */\n      dup3\n        /* \"#utility.yul\":4379:4393   */\n      sub\n        /* \"#utility.yul\":4372:4376   */\n      0x20\n        /* \"#utility.yul\":4367:4370   */\n      dup7\n        /* \"#utility.yul\":4363:4377   */\n      add\n        /* \"#utility.yul\":4356:4394   */\n      mstore\n        /* \"#utility.yul\":4415:4488   */\n      tag_167\n        /* \"#utility.yul\":4483:4487   */\n      dup3\n        /* \"#utility.yul\":4469:4481   */\n      dup3\n        /* \"#utility.yul\":4415:4488   */\n      tag_147\n      jump\t// in\n    tag_167:\n        /* \"#utility.yul\":4407:4488   */\n      swap2\n      pop\n        /* \"#utility.yul\":4258:4499   */\n      pop\n        /* \"#utility.yul\":4585:4589   */\n      0x40\n        /* \"#utility.yul\":4578:4583   */\n      dup4\n        /* \"#utility.yul\":4574:4590   */\n      add\n        /* \"#utility.yul\":4568:4591   */\n      mload\n        /* \"#utility.yul\":4638:4641   */\n      dup5\n        /* \"#utility.yul\":4632:4636   */\n      dup3\n        /* \"#utility.yul\":4628:4642   */\n      sub\n        /* \"#utility.yul\":4621:4625   */\n      0x40\n        /* \"#utility.yul\":4616:4619   */\n      dup7\n        /* \"#utility.yul\":4612:4626   */\n      add\n        /* \"#utility.yul\":4605:4643   */\n      mstore\n        /* \"#utility.yul\":4664:4737   */\n      tag_168\n        /* \"#utility.yul\":4732:4736   */\n      dup3\n        /* \"#utility.yul\":4718:4730   */\n      dup3\n        /* \"#utility.yul\":4664:4737   */\n      tag_147\n      jump\t// in\n    tag_168:\n        /* \"#utility.yul\":4656:4737   */\n      swap2\n      pop\n        /* \"#utility.yul\":4509:4748   */\n      pop\n        /* \"#utility.yul\":4831:4835   */\n      0x60\n        /* \"#utility.yul\":4824:4829   */\n      dup4\n        /* \"#utility.yul\":4820:4836   */\n      add\n        /* \"#utility.yul\":4814:4837   */\n      mload\n        /* \"#utility.yul\":4884:4887   */\n      dup5\n        /* \"#utility.yul\":4878:4882   */\n      dup3\n        /* \"#utility.yul\":4874:4888   */\n      sub\n        /* \"#utility.yul\":4867:4871   */\n      0x60\n        /* \"#utility.yul\":4862:4865   */\n      dup7\n        /* \"#utility.yul\":4858:4872   */\n      add\n        /* \"#utility.yul\":4851:4889   */\n      mstore\n        /* \"#utility.yul\":4910:4983   */\n      tag_169\n        /* \"#utility.yul\":4978:4982   */\n      dup3\n        /* \"#utility.yul\":4964:4976   */\n      dup3\n        /* \"#utility.yul\":4910:4983   */\n      tag_147\n      jump\t// in\n    tag_169:\n        /* \"#utility.yul\":4902:4983   */\n      swap2\n      pop\n        /* \"#utility.yul\":4758:4994   */\n      pop\n        /* \"#utility.yul\":5077:5081   */\n      0x80\n        /* \"#utility.yul\":5070:5075   */\n      dup4\n        /* \"#utility.yul\":5066:5082   */\n      add\n        /* \"#utility.yul\":5060:5083   */\n      mload\n        /* \"#utility.yul\":5130:5133   */\n      dup5\n        /* \"#utility.yul\":5124:5128   */\n      dup3\n        /* \"#utility.yul\":5120:5134   */\n      sub\n        /* \"#utility.yul\":5113:5117   */\n      0x80\n        /* \"#utility.yul\":5108:5111   */\n      dup7\n        /* \"#utility.yul\":5104:5118   */\n      add\n        /* \"#utility.yul\":5097:5135   */\n      mstore\n        /* \"#utility.yul\":5156:5229   */\n      tag_170\n        /* \"#utility.yul\":5224:5228   */\n      dup3\n        /* \"#utility.yul\":5210:5222   */\n      dup3\n        /* \"#utility.yul\":5156:5229   */\n      tag_147\n      jump\t// in\n    tag_170:\n        /* \"#utility.yul\":5148:5229   */\n      swap2\n      pop\n        /* \"#utility.yul\":5004:5240   */\n      pop\n        /* \"#utility.yul\":5330:5334   */\n      0xa0\n        /* \"#utility.yul\":5323:5328   */\n      dup4\n        /* \"#utility.yul\":5319:5335   */\n      add\n        /* \"#utility.yul\":5313:5336   */\n      mload\n        /* \"#utility.yul\":5383:5386   */\n      dup5\n        /* \"#utility.yul\":5377:5381   */\n      dup3\n        /* \"#utility.yul\":5373:5387   */\n      sub\n        /* \"#utility.yul\":5366:5370   */\n      0xa0\n        /* \"#utility.yul\":5361:5364   */\n      dup7\n        /* \"#utility.yul\":5357:5371   */\n      add\n        /* \"#utility.yul\":5350:5388   */\n      mstore\n        /* \"#utility.yul\":5409:5482   */\n      tag_171\n        /* \"#utility.yul\":5477:5481   */\n      dup3\n        /* \"#utility.yul\":5463:5475   */\n      dup3\n        /* \"#utility.yul\":5409:5482   */\n      tag_147\n      jump\t// in\n    tag_171:\n        /* \"#utility.yul\":5401:5482   */\n      swap2\n      pop\n        /* \"#utility.yul\":5250:5493   */\n      pop\n        /* \"#utility.yul\":5510:5514   */\n      dup1\n        /* \"#utility.yul\":5503:5514   */\n      swap2\n      pop\n        /* \"#utility.yul\":3962:5520   */\n      pop\n        /* \"#utility.yul\":3850:5520   */\n      swap3\n      swap2\n      pop\n      pop\n      jump\t// out\n        /* \"#utility.yul\":5526:6847   */\n    tag_15:\n        /* \"#utility.yul\":5879:5883   */\n      0x00\n        /* \"#utility.yul\":5917:5920   */\n      0xc0\n        /* \"#utility.yul\":5906:5915   */\n      dup3\n        /* \"#utility.yul\":5902:5921   */\n      add\n        /* \"#utility.yul\":5894:5921   */\n      swap1\n      pop\n        /* \"#utility.yul\":5967:5976   */\n      dup2\n        /* \"#utility.yul\":5961:5965   */\n      dup2\n        /* \"#utility.yul\":5957:5977   */\n      sub\n        /* \"#utility.yul\":5953:5954   */\n      0x00\n        /* \"#utility.yul\":5942:5951   */\n      dup4\n        /* \"#utility.yul\":5938:5955   */\n      add\n        /* \"#utility.yul\":5931:5978   */\n      mstore\n        /* \"#utility.yul\":5995:6073   */\n      tag_173\n        /* \"#utility.yul\":6068:6072   */\n      dup2\n        /* \"#utility.yul\":6059:6065   */\n      dup10\n        /* \"#utility.yul\":5995:6073   */\n      tag_157\n      jump\t// in\n    tag_173:\n        /* \"#utility.yul\":5987:6073   */\n      swap1\n      pop\n        /* \"#utility.yul\":6120:6129   */\n      dup2\n        /* \"#utility.yul\":6114:6118   */\n      dup2\n        /* \"#utility.yul\":6110:6130   */\n      sub\n        /* \"#utility.yul\":6105:6107   */\n      0x20\n        /* \"#utility.yul\":6094:6103   */\n      dup4\n        /* \"#utility.yul\":6090:6108   */\n      add\n        /* \"#utility.yul\":6083:6131   */\n      mstore\n        /* \"#utility.yul\":6148:6226   */\n      tag_174\n        /* \"#utility.yul\":6221:6225   */\n      dup2\n        /* \"#utility.yul\":6212:6218   */\n      dup9\n        /* \"#utility.yul\":6148:6226   */\n      tag_157\n      jump\t// in\n    tag_174:\n        /* \"#utility.yul\":6140:6226   */\n      swap1\n      pop\n        /* \"#utility.yul\":6273:6282   */\n      dup2\n        /* \"#utility.yul\":6267:6271   */\n      dup2\n        /* \"#utility.yul\":6263:6283   */\n      sub\n        /* \"#utility.yul\":6258:6260   */\n      0x40\n        /* \"#utility.yul\":6247:6256   */\n      dup4\n        /* \"#utility.yul\":6243:6261   */\n      add\n        /* \"#utility.yul\":6236:6284   */\n      mstore\n        /* \"#utility.yul\":6301:6379   */\n      tag_175\n        /* \"#utility.yul\":6374:6378   */\n      dup2\n        /* \"#utility.yul\":6365:6371   */\n      dup8\n        /* \"#utility.yul\":6301:6379   */\n      tag_157\n      jump\t// in\n    tag_175:\n        /* \"#utility.yul\":6293:6379   */\n      swap1\n      pop\n        /* \"#utility.yul\":6426:6435   */\n      dup2\n        /* \"#utility.yul\":6420:6424   */\n      dup2\n        /* \"#utility.yul\":6416:6436   */\n      sub\n        /* \"#utility.yul\":6411:6413   */\n      0x60\n        /* \"#utility.yul\":6400:6409   */\n      dup4\n        /* \"#utility.yul\":6396:6414   */\n      add\n        /* \"#utility.yul\":6389:6437   */\n      mstore\n        /* \"#utility.yul\":6454:6532   */\n      tag_176\n        /* \"#utility.yul\":6527:6531   */\n      dup2\n        /* \"#utility.yul\":6518:6524   */\n      dup7\n        /* \"#utility.yul\":6454:6532   */\n      tag_157\n      jump\t// in\n    tag_176:\n        /* \"#utility.yul\":6446:6532   */\n      swap1\n      pop\n        /* \"#utility.yul\":6580:6589   */\n      dup2\n        /* \"#utility.yul\":6574:6578   */\n      dup2\n        /* \"#utility.yul\":6570:6590   */\n      sub\n        /* \"#utility.yul\":6564:6567   */\n      0x80\n        /* \"#utility.yul\":6553:6562   */\n      dup4\n        /* \"#utility.yul\":6549:6568   */\n      add\n        /* \"#utility.yul\":6542:6591   */\n      mstore\n        /* \"#utility.yul\":6608:6686   */\n      tag_177\n        /* \"#utility.yul\":6681:6685   */\n      dup2\n        /* \"#utility.yul\":6672:6678   */\n      dup6\n        /* \"#utility.yul\":6608:6686   */\n      tag_157\n      jump\t// in\n    tag_177:\n        /* \"#utility.yul\":6600:6686   */\n      swap1\n      pop\n        /* \"#utility.yul\":6734:6743   */\n      dup2\n        /* \"#utility.yul\":6728:6732   */\n      dup2\n        /* \"#utility.yul\":6724:6744   */\n      sub\n        /* \"#utility.yul\":6718:6721   */\n      0xa0\n        /* \"#utility.yul\":6707:6716   */\n      dup4\n        /* \"#utility.yul\":6703:6722   */\n      add\n        /* \"#utility.yul\":6696:6745   */\n      mstore\n        /* \"#utility.yul\":6762:6840   */\n      tag_178\n        /* \"#utility.yul\":6835:6839   */\n      dup2\n        /* \"#utility.yul\":6826:6832   */\n      dup5\n        /* \"#utility.yul\":6762:6840   */\n      tag_157\n      jump\t// in\n    tag_178:\n        /* \"#utility.yul\":6754:6840   */\n      swap1\n      pop\n        /* \"#utility.yul\":5526:6847   */\n      swap8\n      swap7\n      pop\n      pop\n      pop\n      pop\n      pop\n      pop\n      pop\n      jump\t// out\n        /* \"#utility.yul\":6853:7202   */\n    tag_19:\n        /* \"#utility.yul\":6984:6988   */\n      0x00\n        /* \"#utility.yul\":7022:7024   */\n      0x20\n        /* \"#utility.yul\":7011:7020   */\n      dup3\n        /* \"#utility.yul\":7007:7025   */\n      add\n        /* \"#utility.yul\":6999:7025   */\n      swap1\n      pop\n        /* \"#utility.yul\":7071:7080   */\n      dup2\n        /* \"#utility.yul\":7065:7069   */\n      dup2\n        /* \"#utility.yul\":7061:7081   */\n      sub\n        /* \"#utility.yul\":7057:7058   */\n      0x00\n        /* \"#utility.yul\":7046:7055   */\n      dup4\n        /* \"#utility.yul\":7042:7059   */\n      add\n        /* \"#utility.yul\":7035:7082   */\n      mstore\n        /* \"#utility.yul\":7099:7195   */\n      tag_180\n        /* \"#utility.yul\":7190:7194   */\n      dup2\n        /* \"#utility.yul\":7181:7187   */\n      dup5\n        /* \"#utility.yul\":7099:7195   */\n      tag_164\n      jump\t// in\n    tag_180:\n        /* \"#utility.yul\":7091:7195   */\n      swap1\n      pop\n        /* \"#utility.yul\":6853:7202   */\n      swap3\n      swap2\n      pop\n      pop\n      jump\t// out\n        /* \"#utility.yul\":7208:7337   */\n    tag_107:\n        /* \"#utility.yul\":7242:7248   */\n      0x00\n        /* \"#utility.yul\":7269:7289   */\n      tag_182\n      tag_183\n      jump\t// in\n    tag_182:\n        /* \"#utility.yul\":7259:7289   */\n      swap1\n      pop\n        /* \"#utility.yul\":7298:7331   */\n      tag_184\n        /* \"#utility.yul\":7326:7330   */\n      dup3\n        /* \"#utility.yul\":7318:7324   */\n      dup3\n        /* \"#utility.yul\":7298:7331   */\n      tag_185\n      jump\t// in\n    tag_184:\n        /* \"#utility.yul\":7208:7337   */\n      swap2\n      swap1\n      pop\n      jump\t// out\n        /* \"#utility.yul\":7343:7418   */\n    tag_183:\n        /* \"#utility.yul\":7376:7382   */\n      0x00\n        /* \"#utility.yul\":7409:7411   */\n      0x40\n        /* \"#utility.yul\":7403:7412   */\n      mload\n        /* \"#utility.yul\":7393:7412   */\n      swap1\n      pop\n        /* \"#utility.yul\":7343:7418   */\n      swap1\n      jump\t// out\n        /* \"#utility.yul\":7424:7732   */\n    tag_106:\n        /* \"#utility.yul\":7486:7490   */\n      0x00\n        /* \"#utility.yul\":7576:7594   */\n      0xffffffffffffffff\n        /* \"#utility.yul\":7568:7574   */\n      dup3\n        /* \"#utility.yul\":7565:7595   */\n      gt\n        /* \"#utility.yul\":7562:7618   */\n      iszero\n      tag_188\n      jumpi\n        /* \"#utility.yul\":7598:7616   */\n      tag_189\n      tag_190\n      jump\t// in\n    tag_189:\n        /* \"#utility.yul\":7562:7618   */\n    tag_188:\n        /* \"#utility.yul\":7636:7665   */\n      tag_191\n        /* \"#utility.yul\":7658:7664   */\n      dup3\n        /* \"#utility.yul\":7636:7665   */\n      tag_156\n      jump\t// in\n    tag_191:\n        /* \"#utility.yul\":7628:7665   */\n      swap1\n      pop\n        /* \"#utility.yul\":7720:7724   */\n      0x20\n        /* \"#utility.yul\":7714:7718   */\n      dup2\n        /* \"#utility.yul\":7710:7725   */\n      add\n        /* \"#utility.yul\":7702:7725   */\n      swap1\n      pop\n        /* \"#utility.yul\":7424:7732   */\n      swap2\n      swap1\n      pop\n      jump\t// out\n        /* \"#utility.yul\":7738:7837   */\n    tag_150:\n        /* \"#utility.yul\":7790:7796   */\n      0x00\n        /* \"#utility.yul\":7824:7829   */\n      dup2\n        /* \"#utility.yul\":7818:7830   */\n      mload\n        /* \"#utility.yul\":7808:7830   */\n      swap1\n      pop\n        /* \"#utility.yul\":7738:7837   */\n      swap2\n      swap1\n      pop\n      jump\t// out\n        /* \"#utility.yul\":7843:8002   */\n    tag_152:\n        /* \"#utility.yul\":7917:7928   */\n      0x00\n        /* \"#utility.yul\":7951:7957   */\n      dup3\n        /* \"#utility.yul\":7946:7949   */\n      dup3\n        /* \"#utility.yul\":7939:7958   */\n      mstore\n        /* \"#utility.yul\":7991:7995   */\n      0x20\n        /* \"#utility.yul\":7986:7989   */\n      dup3\n        /* \"#utility.yul\":7982:7996   */\n      add\n        /* \"#utility.yul\":7967:7996   */\n      swap1\n      pop\n        /* \"#utility.yul\":7843:8002   */\n      swap3\n      swap2\n      pop\n      pop\n      jump\t// out\n        /* \"#utility.yul\":8008:8177   */\n    tag_161:\n        /* \"#utility.yul\":8092:8103   */\n      0x00\n        /* \"#utility.yul\":8126:8132   */\n      dup3\n        /* \"#utility.yul\":8121:8124   */\n      dup3\n        /* \"#utility.yul\":8114:8133   */\n      mstore\n        /* \"#utility.yul\":8166:8170   */\n      0x20\n        /* \"#utility.yul\":8161:8164   */\n      dup3\n        /* \"#utility.yul\":8157:8171   */\n      add\n        /* \"#utility.yul\":8142:8171   */\n      swap1\n      pop\n        /* \"#utility.yul\":8008:8177   */\n      swap3\n      swap2\n      pop\n      pop\n      jump\t// out\n        /* \"#utility.yul\":8183:8279   */\n    tag_195:\n        /* \"#utility.yul\":8220:8227   */\n      0x00\n        /* \"#utility.yul\":8249:8273   */\n      tag_197\n        /* \"#utility.yul\":8267:8272   */\n      dup3\n        /* \"#utility.yul\":8249:8273   */\n      tag_198\n      jump\t// in\n    tag_197:\n        /* \"#utility.yul\":8238:8273   */\n      swap1\n      pop\n        /* \"#utility.yul\":8183:8279   */\n      swap2\n      swap1\n      pop\n      jump\t// out\n        /* \"#utility.yul\":8285:8411   */\n    tag_198:\n        /* \"#utility.yul\":8322:8329   */\n      0x00\n        /* \"#utility.yul\":8362:8404   */\n      0xffffffffffffffffffffffffffffffffffffffff\n        /* \"#utility.yul\":8355:8360   */\n      dup3\n        /* \"#utility.yul\":8351:8405   */\n      and\n        /* \"#utility.yul\":8340:8405   */\n      swap1\n      pop\n        /* \"#utility.yul\":8285:8411   */\n      swap2\n      swap1\n      pop\n      jump\t// out\n        /* \"#utility.yul\":8417:8571   */\n    tag_112:\n        /* \"#utility.yul\":8501:8507   */\n      dup3\n        /* \"#utility.yul\":8496:8499   */\n      dup2\n        /* \"#utility.yul\":8491:8494   */\n      dup4\n        /* \"#utility.yul\":8478:8508   */\n      calldatacopy\n        /* \"#utility.yul\":8563:8564   */\n      0x00\n        /* \"#utility.yul\":8554:8560   */\n      dup4\n        /* \"#utility.yul\":8549:8552   */\n      dup4\n        /* \"#utility.yul\":8545:8561   */\n      add\n        /* \"#utility.yul\":8538:8565   */\n      mstore\n        /* \"#utility.yul\":8417:8571   */\n      pop\n      pop\n      pop\n      jump\t// out\n        /* \"#utility.yul\":8577:8884   */\n    tag_154:\n        /* \"#utility.yul\":8645:8646   */\n      0x00\n        /* \"#utility.yul\":8655:8768   */\n    tag_202:\n        /* \"#utility.yul\":8669:8675   */\n      dup4\n        /* \"#utility.yul\":8666:8667   */\n      dup2\n        /* \"#utility.yul\":8663:8676   */\n      lt\n        /* \"#utility.yul\":8655:8768   */\n      iszero\n      tag_204\n      jumpi\n        /* \"#utility.yul\":8754:8755   */\n      dup1\n        /* \"#utility.yul\":8749:8752   */\n      dup3\n        /* \"#utility.yul\":8745:8756   */\n      add\n        /* \"#utility.yul\":8739:8757   */\n      mload\n        /* \"#utility.yul\":8735:8736   */\n      dup2\n        /* \"#utility.yul\":8730:8733   */\n      dup5\n        /* \"#utility.yul\":8726:8737   */\n      add\n        /* \"#utility.yul\":8719:8758   */\n      mstore\n        /* \"#utility.yul\":8691:8693   */\n      0x20\n        /* \"#utility.yul\":8688:8689   */\n      dup2\n        /* \"#utility.yul\":8684:8694   */\n      add\n        /* \"#utility.yul\":8679:8694   */\n      swap1\n      pop\n        /* \"#utility.yul\":8655:8768   */\n      jump(tag_202)\n    tag_204:\n        /* \"#utility.yul\":8786:8792   */\n      dup4\n        /* \"#utility.yul\":8783:8784   */\n      dup2\n        /* \"#utility.yul\":8780:8793   */\n      gt\n        /* \"#utility.yul\":8777:8878   */\n      iszero\n      tag_205\n      jumpi\n        /* \"#utility.yul\":8866:8867   */\n      0x00\n        /* \"#utility.yul\":8857:8863   */\n      dup5\n        /* \"#utility.yul\":8852:8855   */\n      dup5\n        /* \"#utility.yul\":8848:8864   */\n      add\n        /* \"#utility.yul\":8841:8868   */\n      mstore\n        /* \"#utility.yul\":8777:8878   */\n    tag_205:\n        /* \"#utility.yul\":8626:8884   */\n      pop\n        /* \"#utility.yul\":8577:8884   */\n      pop\n      pop\n      pop\n      jump\t// out\n        /* \"#utility.yul\":8890:9210   */\n    tag_28:\n        /* \"#utility.yul\":8934:8940   */\n      0x00\n        /* \"#utility.yul\":8971:8972   */\n      0x02\n        /* \"#utility.yul\":8965:8969   */\n      dup3\n        /* \"#utility.yul\":8961:8973   */\n      div\n        /* \"#utility.yul\":8951:8973   */\n      swap1\n      pop\n        /* \"#utility.yul\":9018:9019   */\n      0x01\n        /* \"#utility.yul\":9012:9016   */\n      dup3\n        /* \"#utility.yul\":9008:9020   */\n      and\n        /* \"#utility.yul\":9039:9057   */\n      dup1\n        /* \"#utility.yul\":9029:9110   */\n      tag_207\n      jumpi\n        /* \"#utility.yul\":9095:9099   */\n      0x7f\n        /* \"#utility.yul\":9087:9093   */\n      dup3\n        /* \"#utility.yul\":9083:9100   */\n      and\n        /* \"#utility.yul\":9073:9100   */\n      swap2\n      pop\n        /* \"#utility.yul\":9029:9110   */\n    tag_207:\n        /* \"#utility.yul\":9157:9159   */\n      0x20\n        /* \"#utility.yul\":9149:9155   */\n      dup3\n        /* \"#utility.yul\":9146:9160   */\n      lt\n        /* \"#utility.yul\":9126:9144   */\n      dup2\n        /* \"#utility.yul\":9123:9161   */\n      eq\n        /* \"#utility.yul\":9120:9204   */\n      iszero\n      tag_208\n      jumpi\n        /* \"#utility.yul\":9176:9194   */\n      tag_209\n      tag_210\n      jump\t// in\n    tag_209:\n        /* \"#utility.yul\":9120:9204   */\n    tag_208:\n        /* \"#utility.yul\":8941:9210   */\n      pop\n        /* \"#utility.yul\":8890:9210   */\n      swap2\n      swap1\n      pop\n      jump\t// out\n        /* \"#utility.yul\":9216:9497   */\n    tag_185:\n        /* \"#utility.yul\":9299:9326   */\n      tag_212\n        /* \"#utility.yul\":9321:9325   */\n      dup3\n        /* \"#utility.yul\":9299:9326   */\n      tag_156\n      jump\t// in\n    tag_212:\n        /* \"#utility.yul\":9291:9297   */\n      dup2\n        /* \"#utility.yul\":9287:9327   */\n      add\n        /* \"#utility.yul\":9429:9435   */\n      dup2\n        /* \"#utility.yul\":9417:9427   */\n      dup2\n        /* \"#utility.yul\":9414:9436   */\n      lt\n        /* \"#utility.yul\":9393:9411   */\n      0xffffffffffffffff\n        /* \"#utility.yul\":9381:9391   */\n      dup3\n        /* \"#utility.yul\":9378:9412   */\n      gt\n        /* \"#utility.yul\":9375:9437   */\n      or\n        /* \"#utility.yul\":9372:9460   */\n      iszero\n      tag_213\n      jumpi\n        /* \"#utility.yul\":9440:9458   */\n      tag_214\n      tag_190\n      jump\t// in\n    tag_214:\n        /* \"#utility.yul\":9372:9460   */\n    tag_213:\n        /* \"#utility.yul\":9480:9490   */\n      dup1\n        /* \"#utility.yul\":9476:9478   */\n      0x40\n        /* \"#utility.yul\":9469:9491   */\n      mstore\n        /* \"#utility.yul\":9259:9497   */\n      pop\n        /* \"#utility.yul\":9216:9497   */\n      pop\n      pop\n      jump\t// out\n        /* \"#utility.yul\":9503:9683   */\n    tag_210:\n        /* \"#utility.yul\":9551:9628   */\n      0x4e487b7100000000000000000000000000000000000000000000000000000000\n        /* \"#utility.yul\":9548:9549   */\n      0x00\n        /* \"#utility.yul\":9541:9629   */\n      mstore\n        /* \"#utility.yul\":9648:9652   */\n      0x22\n        /* \"#utility.yul\":9645:9646   */\n      0x04\n        /* \"#utility.yul\":9638:9653   */\n      mstore\n        /* \"#utility.yul\":9672:9676   */\n      0x24\n        /* \"#utility.yul\":9669:9670   */\n      0x00\n        /* \"#utility.yul\":9662:9677   */\n      revert\n        /* \"#utility.yul\":9689:9869   */\n    tag_190:\n        /* \"#utility.yul\":9737:9814   */\n      0x4e487b7100000000000000000000000000000000000000000000000000000000\n        /* \"#utility.yul\":9734:9735   */\n      0x00\n        /* \"#utility.yul\":9727:9815   */\n      mstore\n        /* \"#utility.yul\":9834:9838   */\n      0x41\n        /* \"#utility.yul\":9831:9832   */\n      0x04\n        /* \"#utility.yul\":9824:9839   */\n      mstore\n        /* \"#utility.yul\":9858:9862   */\n      0x24\n        /* \"#utility.yul\":9855:9856   */\n      0x00\n        /* \"#utility.yul\":9848:9863   */\n      revert\n        /* \"#utility.yul\":9875:9992   */\n    tag_121:\n        /* \"#utility.yul\":9984:9985   */\n      0x00\n        /* \"#utility.yul\":9981:9982   */\n      dup1\n        /* \"#utility.yul\":9974:9986   */\n      revert\n        /* \"#utility.yul\":9998:10115   */\n    tag_110:\n        /* \"#utility.yul\":10107:10108   */\n      0x00\n        /* \"#utility.yul\":10104:10105   */\n      dup1\n        /* \"#utility.yul\":10097:10109   */\n      revert\n        /* \"#utility.yul\":10121:10238   */\n    tag_133:\n        /* \"#utility.yul\":10230:10231   */\n      0x00\n        /* \"#utility.yul\":10227:10228   */\n      dup1\n        /* \"#utility.yul\":10220:10232   */\n      revert\n        /* \"#utility.yul\":10244:10361   */\n    tag_126:\n        /* \"#utility.yul\":10353:10354   */\n      0x00\n        /* \"#utility.yul\":10350:10351   */\n      dup1\n        /* \"#utility.yul\":10343:10355   */\n      revert\n        /* \"#utility.yul\":10367:10469   */\n    tag_156:\n        /* \"#utility.yul\":10408:10414   */\n      0x00\n        /* \"#utility.yul\":10459:10461   */\n      0x1f\n        /* \"#utility.yul\":10455:10462   */\n      not\n        /* \"#utility.yul\":10450:10452   */\n      0x1f\n        /* \"#utility.yul\":10443:10448   */\n      dup4\n        /* \"#utility.yul\":10439:10453   */\n      add\n        /* \"#utility.yul\":10435:10463   */\n      and\n        /* \"#utility.yul\":10425:10463   */\n      swap1\n      pop\n        /* \"#utility.yul\":10367:10469   */\n      swap2\n      swap1\n      pop\n      jump\t// out\n        /* \"#utility.yul\":10475:10597   */\n    tag_116:\n        /* \"#utility.yul\":10548:10572   */\n      tag_223\n        /* \"#utility.yul\":10566:10571   */\n      dup2\n        /* \"#utility.yul\":10548:10572   */\n      tag_195\n      jump\t// in\n    tag_223:\n        /* \"#utility.yul\":10541:10546   */\n      dup2\n        /* \"#utility.yul\":10538:10573   */\n      eq\n        /* \"#utility.yul\":10528:10591   */\n      tag_224\n      jumpi\n        /* \"#utility.yul\":10587:10588   */\n      0x00\n        /* \"#utility.yul\":10584:10585   */\n      dup1\n        /* \"#utility.yul\":10577:10589   */\n      revert\n        /* \"#utility.yul\":10528:10591   */\n    tag_224:\n        /* \"#utility.yul\":10475:10597   */\n      pop\n      jump\t// out\n\n    auxdata: 0xa264697066735822122061245bf003760c18f3e1b69dedb0d7e7d05ba2c6cca38a0aa567c0948498c2c464736f6c63430008070033\n}\n",
				"bytecode": {
					"linkReferences": {},
					"object": "608060405234801561001057600080fd5b5061101f806100206000396000f3fe608060405234801561001057600080fd5b50600436106100415760003560e01c80633e0eb060146100465780639dd9d0fd14610062578063fa165e8f14610097575b600080fd5b610060600480360381019061005b9190610b23565b6100b5565b005b61007c60048036038101906100779190610af6565b61026a565b60405161008e96959493929190610d48565b60405180910390f35b61009f6105d6565b6040516100ac9190610dd3565b60405180910390f35b846000803373ffffffffffffffffffffffffffffffffffffffff1673ffffffffffffffffffffffffffffffffffffffff168152602001908152602001600020600001908051906020019061010a929190610998565b50836000803373ffffffffffffffffffffffffffffffffffffffff1673ffffffffffffffffffffffffffffffffffffffff1681526020019081526020016000206001019080519060200190610160929190610998565b50826000803373ffffffffffffffffffffffffffffffffffffffff1673ffffffffffffffffffffffffffffffffffffffff16815260200190815260200160002060020190805190602001906101b6929190610998565b50816000803373ffffffffffffffffffffffffffffffffffffffff1673ffffffffffffffffffffffffffffffffffffffff168152602001908152602001600020600301908051906020019061020c929190610998565b50806000803373ffffffffffffffffffffffffffffffffffffffff1673ffffffffffffffffffffffffffffffffffffffff1681526020019081526020016000206004019080519060200190610262929190610998565b505050505050565b600060205280600052604060002060009150905080600001805461028d90610eec565b80601f01602080910402602001604051908101604052809291908181526020018280546102b990610eec565b80156103065780601f106102db57610100808354040283529160200191610306565b820191906000526020600020905b8154815290600101906020018083116102e957829003601f168201915b50505050509080600101805461031b90610eec565b80601f016020809104026020016040519081016040528092919081815260200182805461034790610eec565b80156103945780601f1061036957610100808354040283529160200191610394565b820191906000526020600020905b81548152906001019060200180831161037757829003601f168201915b5050505050908060020180546103a990610eec565b80601f01602080910402602001604051908101604052809291908181526020018280546103d590610eec565b80156104225780601f106103f757610100808354040283529160200191610422565b820191906000526020600020905b81548152906001019060200180831161040557829003601f168201915b50505050509080600301805461043790610eec565b80601f016020809104026020016040519081016040528092919081815260200182805461046390610eec565b80156104b05780601f10610485576101008083540402835291602001916104b0565b820191906000526020600020905b81548152906001019060200180831161049357829003601f168201915b5050505050908060040180546104c590610eec565b80601f01602080910402602001604051908101604052809291908181526020018280546104f190610eec565b801561053e5780601f106105135761010080835404028352916020019161053e565b820191906000526020600020905b81548152906001019060200180831161052157829003601f168201915b50505050509080600501805461055390610eec565b80601f016020809104026020016040519081016040528092919081815260200182805461057f90610eec565b80156105cc5780601f106105a1576101008083540402835291602001916105cc565b820191906000526020600020905b8154815290600101906020018083116105af57829003601f168201915b5050505050905086565b6105de610a1e565b6000803373ffffffffffffffffffffffffffffffffffffffff1673ffffffffffffffffffffffffffffffffffffffff1681526020019081526020016000206040518060c001604052908160008201805461063790610eec565b80601f016020809104026020016040519081016040528092919081815260200182805461066390610eec565b80156106b05780601f10610685576101008083540402835291602001916106b0565b820191906000526020600020905b81548152906001019060200180831161069357829003601f168201915b505050505081526020016001820180546106c990610eec565b80601f01602080910402602001604051908101604052809291908181526020018280546106f590610eec565b80156107425780601f1061071757610100808354040283529160200191610742565b820191906000526020600020905b81548152906001019060200180831161072557829003601f168201915b5050505050815260200160028201805461075b90610eec565b80601f016020809104026020016040519081016040528092919081815260200182805461078790610eec565b80156107d45780601f106107a9576101008083540402835291602001916107d4565b820191906000526020600020905b8154815290600101906020018083116107b757829003601f168201915b505050505081526020016003820180546107ed90610eec565b80601f016020809104026020016040519081016040528092919081815260200182805461081990610eec565b80156108665780601f1061083b57610100808354040283529160200191610866565b820191906000526020600020905b81548152906001019060200180831161084957829003601f168201915b5050505050815260200160048201805461087f90610eec565b80601f01602080910402602001604051908101604052809291908181526020018280546108ab90610eec565b80156108f85780601f106108cd576101008083540402835291602001916108f8565b820191906000526020600020905b8154815290600101906020018083116108db57829003601f168201915b5050505050815260200160058201805461091190610eec565b80601f016020809104026020016040519081016040528092919081815260200182805461093d90610eec565b801561098a5780601f1061095f5761010080835404028352916020019161098a565b820191906000526020600020905b81548152906001019060200180831161096d57829003601f168201915b505050505081525050905090565b8280546109a490610eec565b90600052602060002090601f0160209004810192826109c65760008555610a0d565b82601f106109df57805160ff1916838001178555610a0d565b82800160010185558215610a0d579182015b82811115610a0c5782518255916020019190600101906109f1565b5b509050610a1a9190610a54565b5090565b6040518060c001604052806060815260200160608152602001606081526020016060815260200160608152602001606081525090565b5b80821115610a6d576000816000905550600101610a55565b5090565b6000610a84610a7f84610e1a565b610df5565b905082815260208101848484011115610aa057610a9f610fb2565b5b610aab848285610eaa565b509392505050565b600081359050610ac281610fd2565b92915050565b600082601f830112610add57610adc610fad565b5b8135610aed848260208601610a71565b91505092915050565b600060208284031215610b0c57610b0b610fbc565b5b6000610b1a84828501610ab3565b91505092915050565b600080600080600060a08688031215610b3f57610b3e610fbc565b5b600086013567ffffffffffffffff811115610b5d57610b5c610fb7565b5b610b6988828901610ac8565b955050602086013567ffffffffffffffff811115610b8a57610b89610fb7565b5b610b9688828901610ac8565b945050604086013567ffffffffffffffff811115610bb757610bb6610fb7565b5b610bc388828901610ac8565b935050606086013567ffffffffffffffff811115610be457610be3610fb7565b5b610bf088828901610ac8565b925050608086013567ffffffffffffffff811115610c1157610c10610fb7565b5b610c1d88828901610ac8565b9150509295509295909350565b6000610c3582610e4b565b610c3f8185610e56565b9350610c4f818560208601610eb9565b610c5881610fc1565b840191505092915050565b6000610c6e82610e4b565b610c788185610e67565b9350610c88818560208601610eb9565b610c9181610fc1565b840191505092915050565b600060c0830160008301518482036000860152610cb98282610c2a565b91505060208301518482036020860152610cd38282610c2a565b91505060408301518482036040860152610ced8282610c2a565b91505060608301518482036060860152610d078282610c2a565b91505060808301518482036080860152610d218282610c2a565b91505060a083015184820360a0860152610d3b8282610c2a565b9150508091505092915050565b600060c0820190508181036000830152610d628189610c63565b90508181036020830152610d768188610c63565b90508181036040830152610d8a8187610c63565b90508181036060830152610d9e8186610c63565b90508181036080830152610db28185610c63565b905081810360a0830152610dc68184610c63565b9050979650505050505050565b60006020820190508181036000830152610ded8184610c9c565b905092915050565b6000610dff610e10565b9050610e0b8282610f1e565b919050565b6000604051905090565b600067ffffffffffffffff821115610e3557610e34610f7e565b5b610e3e82610fc1565b9050602081019050919050565b600081519050919050565b600082825260208201905092915050565b600082825260208201905092915050565b6000610e8382610e8a565b9050919050565b600073ffffffffffffffffffffffffffffffffffffffff82169050919050565b82818337600083830152505050565b60005b83811015610ed7578082015181840152602081019050610ebc565b83811115610ee6576000848401525b50505050565b60006002820490506001821680610f0457607f821691505b60208210811415610f1857610f17610f4f565b5b50919050565b610f2782610fc1565b810181811067ffffffffffffffff82111715610f4657610f45610f7e565b5b80604052505050565b7f4e487b7100000000000000000000000000000000000000000000000000000000600052602260045260246000fd5b7f4e487b7100000000000000000000000000000000000000000000000000000000600052604160045260246000fd5b600080fd5b600080fd5b600080fd5b600080fd5b6000601f19601f8301169050919050565b610fdb81610e78565b8114610fe657600080fd5b5056fea264697066735822122061245bf003760c18f3e1b69dedb0d7e7d05ba2c6cca38a0aa567c0948498c2c464736f6c63430008070033",
					"opcodes": "PUSH1 0x80 PUSH1 0x40 MSTORE CALLVALUE DUP1 ISZERO PUSH2 0x10 JUMPI PUSH1 0x0 DUP1 REVERT JUMPDEST POP PUSH2 0x101F DUP1 PUSH2 0x20 PUSH1 0x0 CODECOPY PUSH1 0x0 RETURN INVALID PUSH1 0x80 PUSH1 0x40 MSTORE CALLVALUE DUP1 ISZERO PUSH2 0x10 JUMPI PUSH1 0x0 DUP1 REVERT JUMPDEST POP PUSH1 0x4 CALLDATASIZE LT PUSH2 0x41 JUMPI PUSH1 0x0 CALLDATALOAD PUSH1 0xE0 SHR DUP1 PUSH4 0x3E0EB060 EQ PUSH2 0x46 JUMPI DUP1 PUSH4 0x9DD9D0FD EQ PUSH2 0x62 JUMPI DUP1 PUSH4 0xFA165E8F EQ PUSH2 0x97 JUMPI JUMPDEST PUSH1 0x0 DUP1 REVERT JUMPDEST PUSH2 0x60 PUSH1 0x4 DUP1 CALLDATASIZE SUB DUP2 ADD SWAP1 PUSH2 0x5B SWAP2 SWAP1 PUSH2 0xB23 JUMP JUMPDEST PUSH2 0xB5 JUMP JUMPDEST STOP JUMPDEST PUSH2 0x7C PUSH1 0x4 DUP1 CALLDATASIZE SUB DUP2 ADD SWAP1 PUSH2 0x77 SWAP2 SWAP1 PUSH2 0xAF6 JUMP JUMPDEST PUSH2 0x26A JUMP JUMPDEST PUSH1 0x40 MLOAD PUSH2 0x8E SWAP7 SWAP6 SWAP5 SWAP4 SWAP3 SWAP2 SWAP1 PUSH2 0xD48 JUMP JUMPDEST PUSH1 0x40 MLOAD DUP1 SWAP2 SUB SWAP1 RETURN JUMPDEST PUSH2 0x9F PUSH2 0x5D6 JUMP JUMPDEST PUSH1 0x40 MLOAD PUSH2 0xAC SWAP2 SWAP1 PUSH2 0xDD3 JUMP JUMPDEST PUSH1 0x40 MLOAD DUP1 SWAP2 SUB SWAP1 RETURN JUMPDEST DUP5 PUSH1 0x0 DUP1 CALLER PUSH20 0xFFFFFFFFFFFFFFFFFFFFFFFFFFFFFFFFFFFFFFFF AND PUSH20 0xFFFFFFFFFFFFFFFFFFFFFFFFFFFFFFFFFFFFFFFF AND DUP2 MSTORE PUSH1 0x20 ADD SWAP1 DUP2 MSTORE PUSH1 0x20 ADD PUSH1 0x0 KECCAK256 PUSH1 0x0 ADD SWAP1 DUP1 MLOAD SWAP1 PUSH1 0x20 ADD SWAP1 PUSH2 0x10A SWAP3 SWAP2 SWAP1 PUSH2 0x998 JUMP JUMPDEST POP DUP4 PUSH1 0x0 DUP1 CALLER PUSH20 0xFFFFFFFFFFFFFFFFFFFFFFFFFFFFFFFFFFFFFFFF AND PUSH20 0xFFFFFFFFFFFFFFFFFFFFFFFFFFFFFFFFFFFFFFFF AND DUP2 MSTORE PUSH1 0x20 ADD SWAP1 DUP2 MSTORE PUSH1 0x20 ADD PUSH1 0x0 KECCAK256 PUSH1 0x1 ADD SWAP1 DUP1 MLOAD SWAP1 PUSH1 0x20 ADD SWAP1 PUSH2 0x160 SWAP3 SWAP2 SWAP1 PUSH2 0x998 JUMP JUMPDEST POP DUP3 PUSH1 0x0 DUP1 CALLER PUSH20 0xFFFFFFFFFFFFFFFFFFFFFFFFFFFFFFFFFFFFFFFF AND PUSH20 0xFFFFFFFFFFFFFFFFFFFFFFFFFFFFFFFFFFFFFFFF AND DUP2 MSTORE PUSH1 0x20 ADD SWAP1 DUP2 MSTORE PUSH1 0x20 ADD PUSH1 0x0 KECCAK256 PUSH1 0x2 ADD SWAP1 DUP1 MLOAD SWAP1 PUSH1 0x20 ADD SWAP1 PUSH2 0x1B6 SWAP3 SWAP2 SWAP1 PUSH2 0x998 JUMP JUMPDEST POP DUP2 PUSH1 0x0 DUP1 CALLER PUSH20 0xFFFFFFFFFFFFFFFFFFFFFFFFFFFFFFFFFFFFFFFF AND PUSH20 0xFFFFFFFFFFFFFFFFFFFFFFFFFFFFFFFFFFFFFFFF AND DUP2 MSTORE PUSH1 0x20 ADD SWAP1 DUP2 MSTORE PUSH1 0x20 ADD PUSH1 0x0 KECCAK256 PUSH1 0x3 ADD SWAP1 DUP1 MLOAD SWAP1 PUSH1 0x20 ADD SWAP1 PUSH2 0x20C SWAP3 SWAP2 SWAP1 PUSH2 0x998 JUMP JUMPDEST POP DUP1 PUSH1 0x0 DUP1 CALLER PUSH20 0xFFFFFFFFFFFFFFFFFFFFFFFFFFFFFFFFFFFFFFFF AND PUSH20 0xFFFFFFFFFFFFFFFFFFFFFFFFFFFFFFFFFFFFFFFF AND DUP2 MSTORE PUSH1 0x20 ADD SWAP1 DUP2 MSTORE PUSH1 0x20 ADD PUSH1 0x0 KECCAK256 PUSH1 0x4 ADD SWAP1 DUP1 MLOAD SWAP1 PUSH1 0x20 ADD SWAP1 PUSH2 0x262 SWAP3 SWAP2 SWAP1 PUSH2 0x998 JUMP JUMPDEST POP POP POP POP POP POP JUMP JUMPDEST PUSH1 0x0 PUSH1 0x20 MSTORE DUP1 PUSH1 0x0 MSTORE PUSH1 0x40 PUSH1 0x0 KECCAK256 PUSH1 0x0 SWAP2 POP SWAP1 POP DUP1 PUSH1 0x0 ADD DUP1 SLOAD PUSH2 0x28D SWAP1 PUSH2 0xEEC JUMP JUMPDEST DUP1 PUSH1 0x1F ADD PUSH1 0x20 DUP1 SWAP2 DIV MUL PUSH1 0x20 ADD PUSH1 0x40 MLOAD SWAP1 DUP2 ADD PUSH1 0x40 MSTORE DUP1 SWAP3 SWAP2 SWAP1 DUP2 DUP2 MSTORE PUSH1 0x20 ADD DUP3 DUP1 SLOAD PUSH2 0x2B9 SWAP1 PUSH2 0xEEC JUMP JUMPDEST DUP1 ISZERO PUSH2 0x306 JUMPI DUP1 PUSH1 0x1F LT PUSH2 0x2DB JUMPI PUSH2 0x100 DUP1 DUP4 SLOAD DIV MUL DUP4 MSTORE SWAP2 PUSH1 0x20 ADD SWAP2 PUSH2 0x306 JUMP JUMPDEST DUP3 ADD SWAP2 SWAP1 PUSH1 0x0 MSTORE PUSH1 0x20 PUSH1 0x0 KECCAK256 SWAP1 JUMPDEST DUP2 SLOAD DUP2 MSTORE SWAP1 PUSH1 0x1 ADD SWAP1 PUSH1 0x20 ADD DUP1 DUP4 GT PUSH2 0x2E9 JUMPI DUP3 SWAP1 SUB PUSH1 0x1F AND DUP3 ADD SWAP2 JUMPDEST POP POP POP POP POP SWAP1 DUP1 PUSH1 0x1 ADD DUP1 SLOAD PUSH2 0x31B SWAP1 PUSH2 0xEEC JUMP JUMPDEST DUP1 PUSH1 0x1F ADD PUSH1 0x20 DUP1 SWAP2 DIV MUL PUSH1 0x20 ADD PUSH1 0x40 MLOAD SWAP1 DUP2 ADD PUSH1 0x40 MSTORE DUP1 SWAP3 SWAP2 SWAP1 DUP2 DUP2 MSTORE PUSH1 0x20 ADD DUP3 DUP1 SLOAD PUSH2 0x347 SWAP1 PUSH2 0xEEC JUMP JUMPDEST DUP1 ISZERO PUSH2 0x394 JUMPI DUP1 PUSH1 0x1F LT PUSH2 0x369 JUMPI PUSH2 0x100 DUP1 DUP4 SLOAD DIV MUL DUP4 MSTORE SWAP2 PUSH1 0x20 ADD SWAP2 PUSH2 0x394 JUMP JUMPDEST DUP3 ADD SWAP2 SWAP1 PUSH1 0x0 MSTORE PUSH1 0x20 PUSH1 0x0 KECCAK256 SWAP1 JUMPDEST DUP2 SLOAD DUP2 MSTORE SWAP1 PUSH1 0x1 ADD SWAP1 PUSH1 0x20 ADD DUP1 DUP4 GT PUSH2 0x377 JUMPI DUP3 SWAP1 SUB PUSH1 0x1F AND DUP3 ADD SWAP2 JUMPDEST POP POP POP POP POP SWAP1 DUP1 PUSH1 0x2 ADD DUP1 SLOAD PUSH2 0x3A9 SWAP1 PUSH2 0xEEC JUMP JUMPDEST DUP1 PUSH1 0x1F ADD PUSH1 0x20 DUP1 SWAP2 DIV MUL PUSH1 0x20 ADD PUSH1 0x40 MLOAD SWAP1 DUP2 ADD PUSH1 0x40 MSTORE DUP1 SWAP3 SWAP2 SWAP1 DUP2 DUP2 MSTORE PUSH1 0x20 ADD DUP3 DUP1 SLOAD PUSH2 0x3D5 SWAP1 PUSH2 0xEEC JUMP JUMPDEST DUP1 ISZERO PUSH2 0x422 JUMPI DUP1 PUSH1 0x1F LT PUSH2 0x3F7 JUMPI PUSH2 0x100 DUP1 DUP4 SLOAD DIV MUL DUP4 MSTORE SWAP2 PUSH1 0x20 ADD SWAP2 PUSH2 0x422 JUMP JUMPDEST DUP3 ADD SWAP2 SWAP1 PUSH1 0x0 MSTORE PUSH1 0x20 PUSH1 0x0 KECCAK256 SWAP1 JUMPDEST DUP2 SLOAD DUP2 MSTORE SWAP1 PUSH1 0x1 ADD SWAP1 PUSH1 0x20 ADD DUP1 DUP4 GT PUSH2 0x405 JUMPI DUP3 SWAP1 SUB PUSH1 0x1F AND DUP3 ADD SWAP2 JUMPDEST POP POP POP POP POP SWAP1 DUP1 PUSH1 0x3 ADD DUP1 SLOAD PUSH2 0x437 SWAP1 PUSH2 0xEEC JUMP JUMPDEST DUP1 PUSH1 0x1F ADD PUSH1 0x20 DUP1 SWAP2 DIV MUL PUSH1 0x20 ADD PUSH1 0x40 MLOAD SWAP1 DUP2 ADD PUSH1 0x40 MSTORE DUP1 SWAP3 SWAP2 SWAP1 DUP2 DUP2 MSTORE PUSH1 0x20 ADD DUP3 DUP1 SLOAD PUSH2 0x463 SWAP1 PUSH2 0xEEC JUMP JUMPDEST DUP1 ISZERO PUSH2 0x4B0 JUMPI DUP1 PUSH1 0x1F LT PUSH2 0x485 JUMPI PUSH2 0x100 DUP1 DUP4 SLOAD DIV MUL DUP4 MSTORE SWAP2 PUSH1 0x20 ADD SWAP2 PUSH2 0x4B0 JUMP JUMPDEST DUP3 ADD SWAP2 SWAP1 PUSH1 0x0 MSTORE PUSH1 0x20 PUSH1 0x0 KECCAK256 SWAP1 JUMPDEST DUP2 SLOAD DUP2 MSTORE SWAP1 PUSH1 0x1 ADD SWAP1 PUSH1 0x20 ADD DUP1 DUP4 GT PUSH2 0x493 JUMPI DUP3 SWAP1 SUB PUSH1 0x1F AND DUP3 ADD SWAP2 JUMPDEST POP POP POP POP POP SWAP1 DUP1 PUSH1 0x4 ADD DUP1 SLOAD PUSH2 0x4C5 SWAP1 PUSH2 0xEEC JUMP JUMPDEST DUP1 PUSH1 0x1F ADD PUSH1 0x20 DUP1 SWAP2 DIV MUL PUSH1 0x20 ADD PUSH1 0x40 MLOAD SWAP1 DUP2 ADD PUSH1 0x40 MSTORE DUP1 SWAP3 SWAP2 SWAP1 DUP2 DUP2 MSTORE PUSH1 0x20 ADD DUP3 DUP1 SLOAD PUSH2 0x4F1 SWAP1 PUSH2 0xEEC JUMP JUMPDEST DUP1 ISZERO PUSH2 0x53E JUMPI DUP1 PUSH1 0x1F LT PUSH2 0x513 JUMPI PUSH2 0x100 DUP1 DUP4 SLOAD DIV MUL DUP4 MSTORE SWAP2 PUSH1 0x20 ADD SWAP2 PUSH2 0x53E JUMP JUMPDEST DUP3 ADD SWAP2 SWAP1 PUSH1 0x0 MSTORE PUSH1 0x20 PUSH1 0x0 KECCAK256 SWAP1 JUMPDEST DUP2 SLOAD DUP2 MSTORE SWAP1 PUSH1 0x1 ADD SWAP1 PUSH1 0x20 ADD DUP1 DUP4 GT PUSH2 0x521 JUMPI DUP3 SWAP1 SUB PUSH1 0x1F AND DUP3 ADD SWAP2 JUMPDEST POP POP POP POP POP SWAP1 DUP1 PUSH1 0x5 ADD DUP1 SLOAD PUSH2 0x553 SWAP1 PUSH2 0xEEC JUMP JUMPDEST DUP1 PUSH1 0x1F ADD PUSH1 0x20 DUP1 SWAP2 DIV MUL PUSH1 0x20 ADD PUSH1 0x40 MLOAD SWAP1 DUP2 ADD PUSH1 0x40 MSTORE DUP1 SWAP3 SWAP2 SWAP1 DUP2 DUP2 MSTORE PUSH1 0x20 ADD DUP3 DUP1 SLOAD PUSH2 0x57F SWAP1 PUSH2 0xEEC JUMP JUMPDEST DUP1 ISZERO PUSH2 0x5CC JUMPI DUP1 PUSH1 0x1F LT PUSH2 0x5A1 JUMPI PUSH2 0x100 DUP1 DUP4 SLOAD DIV MUL DUP4 MSTORE SWAP2 PUSH1 0x20 ADD SWAP2 PUSH2 0x5CC JUMP JUMPDEST DUP3 ADD SWAP2 SWAP1 PUSH1 0x0 MSTORE PUSH1 0x20 PUSH1 0x0 KECCAK256 SWAP1 JUMPDEST DUP2 SLOAD DUP2 MSTORE SWAP1 PUSH1 0x1 ADD SWAP1 PUSH1 0x20 ADD DUP1 DUP4 GT PUSH2 0x5AF JUMPI DUP3 SWAP1 SUB PUSH1 0x1F AND DUP3 ADD SWAP2 JUMPDEST POP POP POP POP POP SWAP1 POP DUP7 JUMP JUMPDEST PUSH2 0x5DE PUSH2 0xA1E JUMP JUMPDEST PUSH1 0x0 DUP1 CALLER PUSH20 0xFFFFFFFFFFFFFFFFFFFFFFFFFFFFFFFFFFFFFFFF AND PUSH20 0xFFFFFFFFFFFFFFFFFFFFFFFFFFFFFFFFFFFFFFFF AND DUP2 MSTORE PUSH1 0x20 ADD SWAP1 DUP2 MSTORE PUSH1 0x20 ADD PUSH1 0x0 KECCAK256 PUSH1 0x40 MLOAD DUP1 PUSH1 0xC0 ADD PUSH1 0x40 MSTORE SWAP1 DUP2 PUSH1 0x0 DUP3 ADD DUP1 SLOAD PUSH2 0x637 SWAP1 PUSH2 0xEEC JUMP JUMPDEST DUP1 PUSH1 0x1F ADD PUSH1 0x20 DUP1 SWAP2 DIV MUL PUSH1 0x20 ADD PUSH1 0x40 MLOAD SWAP1 DUP2 ADD PUSH1 0x40 MSTORE DUP1 SWAP3 SWAP2 SWAP1 DUP2 DUP2 MSTORE PUSH1 0x20 ADD DUP3 DUP1 SLOAD PUSH2 0x663 SWAP1 PUSH2 0xEEC JUMP JUMPDEST DUP1 ISZERO PUSH2 0x6B0 JUMPI DUP1 PUSH1 0x1F LT PUSH2 0x685 JUMPI PUSH2 0x100 DUP1 DUP4 SLOAD DIV MUL DUP4 MSTORE SWAP2 PUSH1 0x20 ADD SWAP2 PUSH2 0x6B0 JUMP JUMPDEST DUP3 ADD SWAP2 SWAP1 PUSH1 0x0 MSTORE PUSH1 0x20 PUSH1 0x0 KECCAK256 SWAP1 JUMPDEST DUP2 SLOAD DUP2 MSTORE SWAP1 PUSH1 0x1 ADD SWAP1 PUSH1 0x20 ADD DUP1 DUP4 GT PUSH2 0x693 JUMPI DUP3 SWAP1 SUB PUSH1 0x1F AND DUP3 ADD SWAP2 JUMPDEST POP POP POP POP POP DUP2 MSTORE PUSH1 0x20 ADD PUSH1 0x1 DUP3 ADD DUP1 SLOAD PUSH2 0x6C9 SWAP1 PUSH2 0xEEC JUMP JUMPDEST DUP1 PUSH1 0x1F ADD PUSH1 0x20 DUP1 SWAP2 DIV MUL PUSH1 0x20 ADD PUSH1 0x40 MLOAD SWAP1 DUP2 ADD PUSH1 0x40 MSTORE DUP1 SWAP3 SWAP2 SWAP1 DUP2 DUP2 MSTORE PUSH1 0x20 ADD DUP3 DUP1 SLOAD PUSH2 0x6F5 SWAP1 PUSH2 0xEEC JUMP JUMPDEST DUP1 ISZERO PUSH2 0x742 JUMPI DUP1 PUSH1 0x1F LT PUSH2 0x717 JUMPI PUSH2 0x100 DUP1 DUP4 SLOAD DIV MUL DUP4 MSTORE SWAP2 PUSH1 0x20 ADD SWAP2 PUSH2 0x742 JUMP JUMPDEST DUP3 ADD SWAP2 SWAP1 PUSH1 0x0 MSTORE PUSH1 0x20 PUSH1 0x0 KECCAK256 SWAP1 JUMPDEST DUP2 SLOAD DUP2 MSTORE SWAP1 PUSH1 0x1 ADD SWAP1 PUSH1 0x20 ADD DUP1 DUP4 GT PUSH2 0x725 JUMPI DUP3 SWAP1 SUB PUSH1 0x1F AND DUP3 ADD SWAP2 JUMPDEST POP POP POP POP POP DUP2 MSTORE PUSH1 0x20 ADD PUSH1 0x2 DUP3 ADD DUP1 SLOAD PUSH2 0x75B SWAP1 PUSH2 0xEEC JUMP JUMPDEST DUP1 PUSH1 0x1F ADD PUSH1 0x20 DUP1 SWAP2 DIV MUL PUSH1 0x20 ADD PUSH1 0x40 MLOAD SWAP1 DUP2 ADD PUSH1 0x40 MSTORE DUP1 SWAP3 SWAP2 SWAP1 DUP2 DUP2 MSTORE PUSH1 0x20 ADD DUP3 DUP1 SLOAD PUSH2 0x787 SWAP1 PUSH2 0xEEC JUMP JUMPDEST DUP1 ISZERO PUSH2 0x7D4 JUMPI DUP1 PUSH1 0x1F LT PUSH2 0x7A9 JUMPI PUSH2 0x100 DUP1 DUP4 SLOAD DIV MUL DUP4 MSTORE SWAP2 PUSH1 0x20 ADD SWAP2 PUSH2 0x7D4 JUMP JUMPDEST DUP3 ADD SWAP2 SWAP1 PUSH1 0x0 MSTORE PUSH1 0x20 PUSH1 0x0 KECCAK256 SWAP1 JUMPDEST DUP2 SLOAD DUP2 MSTORE SWAP1 PUSH1 0x1 ADD SWAP1 PUSH1 0x20 ADD DUP1 DUP4 GT PUSH2 0x7B7 JUMPI DUP3 SWAP1 SUB PUSH1 0x1F AND DUP3 ADD SWAP2 JUMPDEST POP POP POP POP POP DUP2 MSTORE PUSH1 0x20 ADD PUSH1 0x3 DUP3 ADD DUP1 SLOAD PUSH2 0x7ED SWAP1 PUSH2 0xEEC JUMP JUMPDEST DUP1 PUSH1 0x1F ADD PUSH1 0x20 DUP1 SWAP2 DIV MUL PUSH1 0x20 ADD PUSH1 0x40 MLOAD SWAP1 DUP2 ADD PUSH1 0x40 MSTORE DUP1 SWAP3 SWAP2 SWAP1 DUP2 DUP2 MSTORE PUSH1 0x20 ADD DUP3 DUP1 SLOAD PUSH2 0x819 SWAP1 PUSH2 0xEEC JUMP JUMPDEST DUP1 ISZERO PUSH2 0x866 JUMPI DUP1 PUSH1 0x1F LT PUSH2 0x83B JUMPI PUSH2 0x100 DUP1 DUP4 SLOAD DIV MUL DUP4 MSTORE SWAP2 PUSH1 0x20 ADD SWAP2 PUSH2 0x866 JUMP JUMPDEST DUP3 ADD SWAP2 SWAP1 PUSH1 0x0 MSTORE PUSH1 0x20 PUSH1 0x0 KECCAK256 SWAP1 JUMPDEST DUP2 SLOAD DUP2 MSTORE SWAP1 PUSH1 0x1 ADD SWAP1 PUSH1 0x20 ADD DUP1 DUP4 GT PUSH2 0x849 JUMPI DUP3 SWAP1 SUB PUSH1 0x1F AND DUP3 ADD SWAP2 JUMPDEST POP POP POP POP POP DUP2 MSTORE PUSH1 0x20 ADD PUSH1 0x4 DUP3 ADD DUP1 SLOAD PUSH2 0x87F SWAP1 PUSH2 0xEEC JUMP JUMPDEST DUP1 PUSH1 0x1F ADD PUSH1 0x20 DUP1 SWAP2 DIV MUL PUSH1 0x20 ADD PUSH1 0x40 MLOAD SWAP1 DUP2 ADD PUSH1 0x40 MSTORE DUP1 SWAP3 SWAP2 SWAP1 DUP2 DUP2 MSTORE PUSH1 0x20 ADD DUP3 DUP1 SLOAD PUSH2 0x8AB SWAP1 PUSH2 0xEEC JUMP JUMPDEST DUP1 ISZERO PUSH2 0x8F8 JUMPI DUP1 PUSH1 0x1F LT PUSH2 0x8CD JUMPI PUSH2 0x100 DUP1 DUP4 SLOAD DIV MUL DUP4 MSTORE SWAP2 PUSH1 0x20 ADD SWAP2 PUSH2 0x8F8 JUMP JUMPDEST DUP3 ADD SWAP2 SWAP1 PUSH1 0x0 MSTORE PUSH1 0x20 PUSH1 0x0 KECCAK256 SWAP1 JUMPDEST DUP2 SLOAD DUP2 MSTORE SWAP1 PUSH1 0x1 ADD SWAP1 PUSH1 0x20 ADD DUP1 DUP4 GT PUSH2 0x8DB JUMPI DUP3 SWAP1 SUB PUSH1 0x1F AND DUP3 ADD SWAP2 JUMPDEST POP POP POP POP POP DUP2 MSTORE PUSH1 0x20 ADD PUSH1 0x5 DUP3 ADD DUP1 SLOAD PUSH2 0x911 SWAP1 PUSH2 0xEEC JUMP JUMPDEST DUP1 PUSH1 0x1F ADD PUSH1 0x20 DUP1 SWAP2 DIV MUL PUSH1 0x20 ADD PUSH1 0x40 MLOAD SWAP1 DUP2 ADD PUSH1 0x40 MSTORE DUP1 SWAP3 SWAP2 SWAP1 DUP2 DUP2 MSTORE PUSH1 0x20 ADD DUP3 DUP1 SLOAD PUSH2 0x93D SWAP1 PUSH2 0xEEC JUMP JUMPDEST DUP1 ISZERO PUSH2 0x98A JUMPI DUP1 PUSH1 0x1F LT PUSH2 0x95F JUMPI PUSH2 0x100 DUP1 DUP4 SLOAD DIV MUL DUP4 MSTORE SWAP2 PUSH1 0x20 ADD SWAP2 PUSH2 0x98A JUMP JUMPDEST DUP3 ADD SWAP2 SWAP1 PUSH1 0x0 MSTORE PUSH1 0x20 PUSH1 0x0 KECCAK256 SWAP1 JUMPDEST DUP2 SLOAD DUP2 MSTORE SWAP1 PUSH1 0x1 ADD SWAP1 PUSH1 0x20 ADD DUP1 DUP4 GT PUSH2 0x96D JUMPI DUP3 SWAP1 SUB PUSH1 0x1F AND DUP3 ADD SWAP2 JUMPDEST POP POP POP POP POP DUP2 MSTORE POP POP SWAP1 POP SWAP1 JUMP JUMPDEST DUP3 DUP1 SLOAD PUSH2 0x9A4 SWAP1 PUSH2 0xEEC JUMP JUMPDEST SWAP1 PUSH1 0x0 MSTORE PUSH1 0x20 PUSH1 0x0 KECCAK256 SWAP1 PUSH1 0x1F ADD PUSH1 0x20 SWAP1 DIV DUP2 ADD SWAP3 DUP3 PUSH2 0x9C6 JUMPI PUSH1 0x0 DUP6 SSTORE PUSH2 0xA0D JUMP JUMPDEST DUP3 PUSH1 0x1F LT PUSH2 0x9DF JUMPI DUP1 MLOAD PUSH1 0xFF NOT AND DUP4 DUP1 ADD OR DUP6 SSTORE PUSH2 0xA0D JUMP JUMPDEST DUP3 DUP1 ADD PUSH1 0x1 ADD DUP6 SSTORE DUP3 ISZERO PUSH2 0xA0D JUMPI SWAP2 DUP3 ADD JUMPDEST DUP3 DUP2 GT ISZERO PUSH2 0xA0C JUMPI DUP3 MLOAD DUP3 SSTORE SWAP2 PUSH1 0x20 ADD SWAP2 SWAP1 PUSH1 0x1 ADD SWAP1 PUSH2 0x9F1 JUMP JUMPDEST JUMPDEST POP SWAP1 POP PUSH2 0xA1A SWAP2 SWAP1 PUSH2 0xA54 JUMP JUMPDEST POP SWAP1 JUMP JUMPDEST PUSH1 0x40 MLOAD DUP1 PUSH1 0xC0 ADD PUSH1 0x40 MSTORE DUP1 PUSH1 0x60 DUP2 MSTORE PUSH1 0x20 ADD PUSH1 0x60 DUP2 MSTORE PUSH1 0x20 ADD PUSH1 0x60 DUP2 MSTORE PUSH1 0x20 ADD PUSH1 0x60 DUP2 MSTORE PUSH1 0x20 ADD PUSH1 0x60 DUP2 MSTORE PUSH1 0x20 ADD PUSH1 0x60 DUP2 MSTORE POP SWAP1 JUMP JUMPDEST JUMPDEST DUP1 DUP3 GT ISZERO PUSH2 0xA6D JUMPI PUSH1 0x0 DUP2 PUSH1 0x0 SWAP1 SSTORE POP PUSH1 0x1 ADD PUSH2 0xA55 JUMP JUMPDEST POP SWAP1 JUMP JUMPDEST PUSH1 0x0 PUSH2 0xA84 PUSH2 0xA7F DUP5 PUSH2 0xE1A JUMP JUMPDEST PUSH2 0xDF5 JUMP JUMPDEST SWAP1 POP DUP3 DUP2 MSTORE PUSH1 0x20 DUP2 ADD DUP5 DUP5 DUP5 ADD GT ISZERO PUSH2 0xAA0 JUMPI PUSH2 0xA9F PUSH2 0xFB2 JUMP JUMPDEST JUMPDEST PUSH2 0xAAB DUP5 DUP3 DUP6 PUSH2 0xEAA JUMP JUMPDEST POP SWAP4 SWAP3 POP POP POP JUMP JUMPDEST PUSH1 0x0 DUP2 CALLDATALOAD SWAP1 POP PUSH2 0xAC2 DUP2 PUSH2 0xFD2 JUMP JUMPDEST SWAP3 SWAP2 POP POP JUMP JUMPDEST PUSH1 0x0 DUP3 PUSH1 0x1F DUP4 ADD SLT PUSH2 0xADD JUMPI PUSH2 0xADC PUSH2 0xFAD JUMP JUMPDEST JUMPDEST DUP2 CALLDATALOAD PUSH2 0xAED DUP5 DUP3 PUSH1 0x20 DUP7 ADD PUSH2 0xA71 JUMP JUMPDEST SWAP2 POP POP SWAP3 SWAP2 POP POP JUMP JUMPDEST PUSH1 0x0 PUSH1 0x20 DUP3 DUP5 SUB SLT ISZERO PUSH2 0xB0C JUMPI PUSH2 0xB0B PUSH2 0xFBC JUMP JUMPDEST JUMPDEST PUSH1 0x0 PUSH2 0xB1A DUP5 DUP3 DUP6 ADD PUSH2 0xAB3 JUMP JUMPDEST SWAP2 POP POP SWAP3 SWAP2 POP POP JUMP JUMPDEST PUSH1 0x0 DUP1 PUSH1 0x0 DUP1 PUSH1 0x0 PUSH1 0xA0 DUP7 DUP9 SUB SLT ISZERO PUSH2 0xB3F JUMPI PUSH2 0xB3E PUSH2 0xFBC JUMP JUMPDEST JUMPDEST PUSH1 0x0 DUP7 ADD CALLDATALOAD PUSH8 0xFFFFFFFFFFFFFFFF DUP2 GT ISZERO PUSH2 0xB5D JUMPI PUSH2 0xB5C PUSH2 0xFB7 JUMP JUMPDEST JUMPDEST PUSH2 0xB69 DUP9 DUP3 DUP10 ADD PUSH2 0xAC8 JUMP JUMPDEST SWAP6 POP POP PUSH1 0x20 DUP7 ADD CALLDATALOAD PUSH8 0xFFFFFFFFFFFFFFFF DUP2 GT ISZERO PUSH2 0xB8A JUMPI PUSH2 0xB89 PUSH2 0xFB7 JUMP JUMPDEST JUMPDEST PUSH2 0xB96 DUP9 DUP3 DUP10 ADD PUSH2 0xAC8 JUMP JUMPDEST SWAP5 POP POP PUSH1 0x40 DUP7 ADD CALLDATALOAD PUSH8 0xFFFFFFFFFFFFFFFF DUP2 GT ISZERO PUSH2 0xBB7 JUMPI PUSH2 0xBB6 PUSH2 0xFB7 JUMP JUMPDEST JUMPDEST PUSH2 0xBC3 DUP9 DUP3 DUP10 ADD PUSH2 0xAC8 JUMP JUMPDEST SWAP4 POP POP PUSH1 0x60 DUP7 ADD CALLDATALOAD PUSH8 0xFFFFFFFFFFFFFFFF DUP2 GT ISZERO PUSH2 0xBE4 JUMPI PUSH2 0xBE3 PUSH2 0xFB7 JUMP JUMPDEST JUMPDEST PUSH2 0xBF0 DUP9 DUP3 DUP10 ADD PUSH2 0xAC8 JUMP JUMPDEST SWAP3 POP POP PUSH1 0x80 DUP7 ADD CALLDATALOAD PUSH8 0xFFFFFFFFFFFFFFFF DUP2 GT ISZERO PUSH2 0xC11 JUMPI PUSH2 0xC10 PUSH2 0xFB7 JUMP JUMPDEST JUMPDEST PUSH2 0xC1D DUP9 DUP3 DUP10 ADD PUSH2 0xAC8 JUMP JUMPDEST SWAP2 POP POP SWAP3 SWAP6 POP SWAP3 SWAP6 SWAP1 SWAP4 POP JUMP JUMPDEST PUSH1 0x0 PUSH2 0xC35 DUP3 PUSH2 0xE4B JUMP JUMPDEST PUSH2 0xC3F DUP2 DUP6 PUSH2 0xE56 JUMP JUMPDEST SWAP4 POP PUSH2 0xC4F DUP2 DUP6 PUSH1 0x20 DUP7 ADD PUSH2 0xEB9 JUMP JUMPDEST PUSH2 0xC58 DUP2 PUSH2 0xFC1 JUMP JUMPDEST DUP5 ADD SWAP2 POP POP SWAP3 SWAP2 POP POP JUMP JUMPDEST PUSH1 0x0 PUSH2 0xC6E DUP3 PUSH2 0xE4B JUMP JUMPDEST PUSH2 0xC78 DUP2 DUP6 PUSH2 0xE67 JUMP JUMPDEST SWAP4 POP PUSH2 0xC88 DUP2 DUP6 PUSH1 0x20 DUP7 ADD PUSH2 0xEB9 JUMP JUMPDEST PUSH2 0xC91 DUP2 PUSH2 0xFC1 JUMP JUMPDEST DUP5 ADD SWAP2 POP POP SWAP3 SWAP2 POP POP JUMP JUMPDEST PUSH1 0x0 PUSH1 0xC0 DUP4 ADD PUSH1 0x0 DUP4 ADD MLOAD DUP5 DUP3 SUB PUSH1 0x0 DUP7 ADD MSTORE PUSH2 0xCB9 DUP3 DUP3 PUSH2 0xC2A JUMP JUMPDEST SWAP2 POP POP PUSH1 0x20 DUP4 ADD MLOAD DUP5 DUP3 SUB PUSH1 0x20 DUP7 ADD MSTORE PUSH2 0xCD3 DUP3 DUP3 PUSH2 0xC2A JUMP JUMPDEST SWAP2 POP POP PUSH1 0x40 DUP4 ADD MLOAD DUP5 DUP3 SUB PUSH1 0x40 DUP7 ADD MSTORE PUSH2 0xCED DUP3 DUP3 PUSH2 0xC2A JUMP JUMPDEST SWAP2 POP POP PUSH1 0x60 DUP4 ADD MLOAD DUP5 DUP3 SUB PUSH1 0x60 DUP7 ADD MSTORE PUSH2 0xD07 DUP3 DUP3 PUSH2 0xC2A JUMP JUMPDEST SWAP2 POP POP PUSH1 0x80 DUP4 ADD MLOAD DUP5 DUP3 SUB PUSH1 0x80 DUP7 ADD MSTORE PUSH2 0xD21 DUP3 DUP3 PUSH2 0xC2A JUMP JUMPDEST SWAP2 POP POP PUSH1 0xA0 DUP4 ADD MLOAD DUP5 DUP3 SUB PUSH1 0xA0 DUP7 ADD MSTORE PUSH2 0xD3B DUP3 DUP3 PUSH2 0xC2A JUMP JUMPDEST SWAP2 POP POP DUP1 SWAP2 POP POP SWAP3 SWAP2 POP POP JUMP JUMPDEST PUSH1 0x0 PUSH1 0xC0 DUP3 ADD SWAP1 POP DUP2 DUP2 SUB PUSH1 0x0 DUP4 ADD MSTORE PUSH2 0xD62 DUP2 DUP10 PUSH2 0xC63 JUMP JUMPDEST SWAP1 POP DUP2 DUP2 SUB PUSH1 0x20 DUP4 ADD MSTORE PUSH2 0xD76 DUP2 DUP9 PUSH2 0xC63 JUMP JUMPDEST SWAP1 POP DUP2 DUP2 SUB PUSH1 0x40 DUP4 ADD MSTORE PUSH2 0xD8A DUP2 DUP8 PUSH2 0xC63 JUMP JUMPDEST SWAP1 POP DUP2 DUP2 SUB PUSH1 0x60 DUP4 ADD MSTORE PUSH2 0xD9E DUP2 DUP7 PUSH2 0xC63 JUMP JUMPDEST SWAP1 POP DUP2 DUP2 SUB PUSH1 0x80 DUP4 ADD MSTORE PUSH2 0xDB2 DUP2 DUP6 PUSH2 0xC63 JUMP JUMPDEST SWAP1 POP DUP2 DUP2 SUB PUSH1 0xA0 DUP4 ADD MSTORE PUSH2 0xDC6 DUP2 DUP5 PUSH2 0xC63 JUMP JUMPDEST SWAP1 POP SWAP8 SWAP7 POP POP POP POP POP POP POP JUMP JUMPDEST PUSH1 0x0 PUSH1 0x20 DUP3 ADD SWAP1 POP DUP2 DUP2 SUB PUSH1 0x0 DUP4 ADD MSTORE PUSH2 0xDED DUP2 DUP5 PUSH2 0xC9C JUMP JUMPDEST SWAP1 POP SWAP3 SWAP2 POP POP JUMP JUMPDEST PUSH1 0x0 PUSH2 0xDFF PUSH2 0xE10 JUMP JUMPDEST SWAP1 POP PUSH2 0xE0B DUP3 DUP3 PUSH2 0xF1E JUMP JUMPDEST SWAP2 SWAP1 POP JUMP JUMPDEST PUSH1 0x0 PUSH1 0x40 MLOAD SWAP1 POP SWAP1 JUMP JUMPDEST PUSH1 0x0 PUSH8 0xFFFFFFFFFFFFFFFF DUP3 GT ISZERO PUSH2 0xE35 JUMPI PUSH2 0xE34 PUSH2 0xF7E JUMP JUMPDEST JUMPDEST PUSH2 0xE3E DUP3 PUSH2 0xFC1 JUMP JUMPDEST SWAP1 POP PUSH1 0x20 DUP2 ADD SWAP1 POP SWAP2 SWAP1 POP JUMP JUMPDEST PUSH1 0x0 DUP2 MLOAD SWAP1 POP SWAP2 SWAP1 POP JUMP JUMPDEST PUSH1 0x0 DUP3 DUP3 MSTORE PUSH1 0x20 DUP3 ADD SWAP1 POP SWAP3 SWAP2 POP POP JUMP JUMPDEST PUSH1 0x0 DUP3 DUP3 MSTORE PUSH1 0x20 DUP3 ADD SWAP1 POP SWAP3 SWAP2 POP POP JUMP JUMPDEST PUSH1 0x0 PUSH2 0xE83 DUP3 PUSH2 0xE8A JUMP JUMPDEST SWAP1 POP SWAP2 SWAP1 POP JUMP JUMPDEST PUSH1 0x0 PUSH20 0xFFFFFFFFFFFFFFFFFFFFFFFFFFFFFFFFFFFFFFFF DUP3 AND SWAP1 POP SWAP2 SWAP1 POP JUMP JUMPDEST DUP3 DUP2 DUP4 CALLDATACOPY PUSH1 0x0 DUP4 DUP4 ADD MSTORE POP POP POP JUMP JUMPDEST PUSH1 0x0 JUMPDEST DUP4 DUP2 LT ISZERO PUSH2 0xED7 JUMPI DUP1 DUP3 ADD MLOAD DUP2 DUP5 ADD MSTORE PUSH1 0x20 DUP2 ADD SWAP1 POP PUSH2 0xEBC JUMP JUMPDEST DUP4 DUP2 GT ISZERO PUSH2 0xEE6 JUMPI PUSH1 0x0 DUP5 DUP5 ADD MSTORE JUMPDEST POP POP POP POP JUMP JUMPDEST PUSH1 0x0 PUSH1 0x2 DUP3 DIV SWAP1 POP PUSH1 0x1 DUP3 AND DUP1 PUSH2 0xF04 JUMPI PUSH1 0x7F DUP3 AND SWAP2 POP JUMPDEST PUSH1 0x20 DUP3 LT DUP2 EQ ISZERO PUSH2 0xF18 JUMPI PUSH2 0xF17 PUSH2 0xF4F JUMP JUMPDEST JUMPDEST POP SWAP2 SWAP1 POP JUMP JUMPDEST PUSH2 0xF27 DUP3 PUSH2 0xFC1 JUMP JUMPDEST DUP2 ADD DUP2 DUP2 LT PUSH8 0xFFFFFFFFFFFFFFFF DUP3 GT OR ISZERO PUSH2 0xF46 JUMPI PUSH2 0xF45 PUSH2 0xF7E JUMP JUMPDEST JUMPDEST DUP1 PUSH1 0x40 MSTORE POP POP POP JUMP JUMPDEST PUSH32 0x4E487B7100000000000000000000000000000000000000000000000000000000 PUSH1 0x0 MSTORE PUSH1 0x22 PUSH1 0x4 MSTORE PUSH1 0x24 PUSH1 0x0 REVERT JUMPDEST PUSH32 0x4E487B7100000000000000000000000000000000000000000000000000000000 PUSH1 0x0 MSTORE PUSH1 0x41 PUSH1 0x4 MSTORE PUSH1 0x24 PUSH1 0x0 REVERT JUMPDEST PUSH1 0x0 DUP1 REVERT JUMPDEST PUSH1 0x0 DUP1 REVERT JUMPDEST PUSH1 0x0 DUP1 REVERT JUMPDEST PUSH1 0x0 DUP1 REVERT JUMPDEST PUSH1 0x0 PUSH1 0x1F NOT PUSH1 0x1F DUP4 ADD AND SWAP1 POP SWAP2 SWAP1 POP JUMP JUMPDEST PUSH2 0xFDB DUP2 PUSH2 0xE78 JUMP JUMPDEST DUP2 EQ PUSH2 0xFE6 JUMPI PUSH1 0x0 DUP1 REVERT JUMPDEST POP JUMP INVALID LOG2 PUSH5 0x6970667358 0x22 SLT KECCAK256 PUSH2 0x245B CREATE SUB PUSH23 0xC18F3E1B69DEDB0D7E7D05BA2C6CCA38A0AA567C09484 SWAP9 0xC2 0xC4 PUSH5 0x736F6C6343 STOP ADDMOD SMOD STOP CALLER "
				},
				"gasEstimates": {
					"creation": {
						"codeDepositCost": "825400",
						"executionCost": "857",
						"totalCost": "826257"
					},
					"external": {
						"addBio(string,string,string,string,string)": "infinite",
						"getBio()": "infinite",
						"profile(address)": "infinite"
					}
				},
				"methodIdentifiers": {
					"addBio(string,string,string,string,string)": "3e0eb060",
					"getBio()": "fa165e8f",
					"profile(address)": "9dd9d0fd"
				}
			},
			"storageLayout": {
				"storage": [
					{
						"astId": 19,
						"contract": "contracts/Profile.sol:Profile",
						"label": "profile",
						"offset": 0,
						"slot": "0",
						"type": "t_mapping(t_address,t_struct(Bio)14_storage)"
					}
				],
				"types": {
					"t_address": {
						"encoding": "inplace",
						"label": "address",
						"numberOfBytes": "20"
					},
					"t_mapping(t_address,t_struct(Bio)14_storage)": {
						"encoding": "mapping",
						"key": "t_address",
						"label": "mapping(address => struct Profile.Bio)",
						"numberOfBytes": "32",
						"value": "t_struct(Bio)14_storage"
					},
					"t_string_storage": {
						"encoding": "bytes",
						"label": "string",
						"numberOfBytes": "32"
					},
					"t_struct(Bio)14_storage": {
						"encoding": "inplace",
						"label": "struct Profile.Bio",
						"members": [
							{
								"astId": 3,
								"contract": "contracts/Profile.sol:Profile",
								"label": "firstName",
								"offset": 0,
								"slot": "0",
								"type": "t_string_storage"
							},
							{
								"astId": 5,
								"contract": "contracts/Profile.sol:Profile",
								"label": "middleName",
								"offset": 0,
								"slot": "1",
								"type": "t_string_storage"
							},
							{
								"astId": 7,
								"contract": "contracts/Profile.sol:Profile",
								"label": "lastName",
								"offset": 0,
								"slot": "2",
								"type": "t_string_storage"
							},
							{
								"astId": 9,
								"contract": "contracts/Profile.sol:Profile",
								"label": "email",
								"offset": 0,
								"slot": "3",
								"type": "t_string_storage"
							},
							{
								"astId": 11,
								"contract": "contracts/Profile.sol:Profile",
								"label": "phone",
								"offset": 0,
								"slot": "4",
								"type": "t_string_storage"
							},
							{
								"astId": 13,
								"contract": "contracts/Profile.sol:Profile",
								"label": "profileImage",
								"offset": 0,
								"slot": "5",
								"type": "t_string_storage"
							}
						],
						"numberOfBytes": "192"
					}
				}
			},
			"userdoc": {
				"kind": "user",
				"methods": {},
				"version": 1
			}
		}
	}
}