{
	"contracts/Profile.sol": {
		"Profile": {
			"abi": [
				{
					"inputs": [
						{
							"internalType": "string[]",
							"name": "award",
							"type": "string[]"
						}
					],
					"name": "createAward",
					"outputs": [],
					"stateMutability": "nonpayable",
					"type": "function"
				},
				{
					"inputs": [
						{
							"internalType": "string[]",
							"name": "certificate",
							"type": "string[]"
						}
					],
					"name": "createCertificate",
					"outputs": [],
					"stateMutability": "nonpayable",
					"type": "function"
				},
				{
					"inputs": [
						{
							"internalType": "string",
							"name": "email",
							"type": "string"
						},
						{
							"internalType": "string",
							"name": "phone",
							"type": "string"
						},
						{
							"internalType": "string",
							"name": "github",
							"type": "string"
						},
						{
							"internalType": "string",
							"name": "gitlab",
							"type": "string"
						},
						{
							"internalType": "string",
							"name": "linkin",
							"type": "string"
						}
					],
					"name": "createContract",
					"outputs": [],
					"stateMutability": "nonpayable",
					"type": "function"
				},
				{
					"inputs": [
						{
							"internalType": "string",
							"name": "firstName",
							"type": "string"
						},
						{
							"internalType": "string",
							"name": "middleName",
							"type": "string"
						},
						{
							"internalType": "string",
							"name": "lastName",
							"type": "string"
						},
						{
							"internalType": "string",
							"name": "profileImage",
							"type": "string"
						},
						{
							"internalType": "string",
							"name": "aboutMe",
							"type": "string"
						},
						{
							"internalType": "string",
							"name": "position",
							"type": "string"
						}
					],
					"name": "createInformation",
					"outputs": [],
					"stateMutability": "nonpayable",
					"type": "function"
				},
				{
					"inputs": [
						{
							"internalType": "string[]",
							"name": "programmingLanguages",
							"type": "string[]"
						},
						{
							"internalType": "string[]",
							"name": "framework",
							"type": "string[]"
						},
						{
							"internalType": "string[]",
							"name": "databaseAndOther",
							"type": "string[]"
						}
					],
					"name": "createSkill",
					"outputs": [],
					"stateMutability": "nonpayable",
					"type": "function"
				},
				{
					"inputs": [
						{
							"internalType": "string",
							"name": "startDate",
							"type": "string"
						},
						{
							"internalType": "string",
							"name": "endDate",
							"type": "string"
						},
						{
							"internalType": "string",
							"name": "univercity",
							"type": "string"
						},
						{
							"internalType": "string",
							"name": "major",
							"type": "string"
						},
						{
							"internalType": "string",
							"name": "finalProject",
							"type": "string"
						}
					],
					"name": "createUnivercity",
					"outputs": [],
					"stateMutability": "nonpayable",
					"type": "function"
				},
				{
					"inputs": [],
					"name": "delAllEducation",
					"outputs": [],
					"stateMutability": "nonpayable",
					"type": "function"
				},
				{
					"inputs": [],
					"name": "delCertificateAndAward",
					"outputs": [],
					"stateMutability": "nonpayable",
					"type": "function"
				},
				{
					"inputs": [],
					"name": "delInformaion",
					"outputs": [],
					"stateMutability": "nonpayable",
					"type": "function"
				},
				{
					"inputs": [],
					"name": "delProfile",
					"outputs": [],
					"stateMutability": "nonpayable",
					"type": "function"
				},
				{
					"inputs": [
						{
							"internalType": "uint256",
							"name": "index",
							"type": "uint256"
						}
					],
					"name": "getEducation",
					"outputs": [
						{
							"internalType": "string",
							"name": "",
							"type": "string"
						},
						{
							"internalType": "string",
							"name": "",
							"type": "string"
						},
						{
							"internalType": "string",
							"name": "",
							"type": "string"
						},
						{
							"internalType": "string",
							"name": "",
							"type": "string"
						},
						{
							"internalType": "string",
							"name": "",
							"type": "string"
						}
					],
					"stateMutability": "view",
					"type": "function"
				},
				{
					"inputs": [],
					"name": "getEducationCount",
					"outputs": [
						{
							"internalType": "uint256",
							"name": "",
							"type": "uint256"
						}
					],
					"stateMutability": "view",
					"type": "function"
				},
				{
					"inputs": [
						{
							"internalType": "address",
							"name": "",
							"type": "address"
						}
					],
					"name": "profile",
					"outputs": [
						{
							"components": [
								{
									"internalType": "string",
									"name": "aboutMe",
									"type": "string"
								},
								{
									"internalType": "string",
									"name": "position",
									"type": "string"
								},
								{
									"internalType": "address",
									"name": "userAddress",
									"type": "address"
								},
								{
									"internalType": "string",
									"name": "firstName",
									"type": "string"
								},
								{
									"internalType": "string",
									"name": "middleName",
									"type": "string"
								},
								{
									"internalType": "string",
									"name": "lastName",
									"type": "string"
								},
								{
									"internalType": "string",
									"name": "profileImage",
									"type": "string"
								},
								{
									"internalType": "uint256",
									"name": "createDate",
									"type": "uint256"
								}
							],
							"internalType": "struct Profile.Information",
							"name": "information",
							"type": "tuple"
						},
						{
							"components": [
								{
									"internalType": "string",
									"name": "aboutMe",
									"type": "string"
								},
								{
									"internalType": "string",
									"name": "email",
									"type": "string"
								},
								{
									"internalType": "string",
									"name": "phone",
									"type": "string"
								},
								{
									"internalType": "string",
									"name": "github",
									"type": "string"
								},
								{
									"internalType": "string",
									"name": "gitlab",
									"type": "string"
								},
								{
									"internalType": "string",
									"name": "linkin",
									"type": "string"
								}
							],
							"internalType": "struct Profile.Contract",
							"name": "privateContract",
							"type": "tuple"
						},
						{
							"components": [
								{
									"internalType": "string[]",
									"name": "programmingLanguages",
									"type": "string[]"
								},
								{
									"internalType": "string[]",
									"name": "framework",
									"type": "string[]"
								},
								{
									"internalType": "string[]",
									"name": "databaseAndOther",
									"type": "string[]"
								}
							],
							"internalType": "struct Profile.Skill",
							"name": "skill",
							"type": "tuple"
						},
						{
							"components": [
								{
									"internalType": "string[]",
									"name": "certificate",
									"type": "string[]"
								},
								{
									"internalType": "string[]",
									"name": "award",
									"type": "string[]"
								}
							],
							"internalType": "struct Profile.CertificateAndAward",
							"name": "CertificateAndAward",
							"type": "tuple"
						}
					],
					"stateMutability": "view",
					"type": "function"
				}
			],
			"devdoc": {
				"kind": "dev",
				"methods": {},
				"version": 1
			},
			"evm": {
				"assembly": "    /* \"contracts/Profile.sol\":60:4745  contract Profile {\r... */\n  mstore(0x40, 0x80)\n  callvalue\n  dup1\n  iszero\n  tag_1\n  jumpi\n  0x00\n  dup1\n  revert\ntag_1:\n  pop\n  dataSize(sub_0)\n  dup1\n  dataOffset(sub_0)\n  0x00\n  codecopy\n  0x00\n  return\nstop\n\nsub_0: assembly {\n        /* \"contracts/Profile.sol\":60:4745  contract Profile {\r... */\n      mstore(0x40, 0x80)\n      callvalue\n      dup1\n      iszero\n      tag_1\n      jumpi\n      0x00\n      dup1\n      revert\n    tag_1:\n      pop\n      jumpi(tag_2, lt(calldatasize, 0x04))\n      shr(0xe0, calldataload(0x00))\n      dup1\n      0x95ea3757\n      gt\n      tag_16\n      jumpi\n      dup1\n      0xd759b830\n      gt\n      tag_17\n      jumpi\n      dup1\n      0xd759b830\n      eq\n      tag_12\n      jumpi\n      dup1\n      0xed2217ef\n      eq\n      tag_13\n      jumpi\n      dup1\n      0xf96e32f8\n      eq\n      tag_14\n      jumpi\n      dup1\n      0xfabce08f\n      eq\n      tag_15\n      jumpi\n      jump(tag_2)\n    tag_17:\n      dup1\n      0x95ea3757\n      eq\n      tag_9\n      jumpi\n      dup1\n      0x97c35b02\n      eq\n      tag_10\n      jumpi\n      dup1\n      0x9dd9d0fd\n      eq\n      tag_11\n      jumpi\n      jump(tag_2)\n    tag_16:\n      dup1\n      0x3d984d0e\n      eq\n      tag_3\n      jumpi\n      dup1\n      0x4ed74067\n      eq\n      tag_4\n      jumpi\n      dup1\n      0x6212fa02\n      eq\n      tag_5\n      jumpi\n      dup1\n      0x66244dfb\n      eq\n      tag_6\n      jumpi\n      dup1\n      0x72828388\n      eq\n      tag_7\n      jumpi\n      dup1\n      0x958791ae\n      eq\n      tag_8\n      jumpi\n    tag_2:\n      0x00\n      dup1\n      revert\n        /* \"contracts/Profile.sol\":2591:2979  function createSkill(string[] memory programmingLanguages, string[] memory framework, string[] memory databaseAndOther) public {\r... */\n    tag_3:\n      tag_18\n      0x04\n      dup1\n      calldatasize\n      sub\n      dup2\n      add\n      swap1\n      tag_19\n      swap2\n      swap1\n      tag_20\n      jump\t// in\n    tag_19:\n      tag_21\n      jump\t// in\n    tag_18:\n      stop\n        /* \"contracts/Profile.sol\":4632:4740  function delCertificateAndAward() external {\r... */\n    tag_4:\n      tag_22\n      tag_23\n      jump\t// in\n    tag_22:\n      stop\n        /* \"contracts/Profile.sol\":3926:4044  function getEducationCount() public view returns (uint) {\r... */\n    tag_5:\n      tag_24\n      tag_25\n      jump\t// in\n    tag_24:\n      mload(0x40)\n      tag_26\n      swap2\n      swap1\n      tag_27\n      jump\t// in\n    tag_26:\n      mload(0x40)\n      dup1\n      swap2\n      sub\n      swap1\n      return\n        /* \"contracts/Profile.sol\":3046:3516  function createUnivercity(string memory startDate, string memory endDate, string memory univercity, string memory major, string memory finalProject) public {\r... */\n    tag_6:\n      tag_28\n      0x04\n      dup1\n      calldatasize\n      sub\n      dup2\n      add\n      swap1\n      tag_29\n      swap2\n      swap1\n      tag_30\n      jump\t// in\n    tag_29:\n      tag_31\n      jump\t// in\n    tag_28:\n      stop\n        /* \"contracts/Profile.sol\":2000:2504  function createContract(string memory email, string memory phone, string memory github, string memory gitlab, string memory linkin) public {\r... */\n    tag_7:\n      tag_32\n      0x04\n      dup1\n      calldatasize\n      sub\n      dup2\n      add\n      swap1\n      tag_33\n      swap2\n      swap1\n      tag_30\n      jump\t// in\n    tag_33:\n      tag_34\n      jump\t// in\n    tag_32:\n      stop\n        /* \"contracts/Profile.sol\":1229:1945  function createInformation(string memory firstName, string memory middleName, string memory lastName,  string memory profileImage, string memory aboutMe, string memory position) public {\r... */\n    tag_8:\n      tag_35\n      0x04\n      dup1\n      calldatasize\n      sub\n      dup2\n      add\n      swap1\n      tag_36\n      swap2\n      swap1\n      tag_37\n      jump\t// in\n    tag_36:\n      tag_38\n      jump\t// in\n    tag_35:\n      stop\n        /* \"contracts/Profile.sol\":4448:4540  function delInformaion() external  {\r... */\n    tag_9:\n      tag_39\n      tag_40\n      jump\t// in\n    tag_39:\n      stop\n        /* \"contracts/Profile.sol\":4052:4175  function createAward(string[] memory award) public {\r... */\n    tag_10:\n      tag_41\n      0x04\n      dup1\n      calldatasize\n      sub\n      dup2\n      add\n      swap1\n      tag_42\n      swap2\n      swap1\n      tag_43\n      jump\t// in\n    tag_42:\n      tag_44\n      jump\t// in\n    tag_41:\n      stop\n        /* \"contracts/Profile.sol\":291:331  mapping (address => Bio) public  profile */\n    tag_11:\n      tag_45\n      0x04\n      dup1\n      calldatasize\n      sub\n      dup2\n      add\n      swap1\n      tag_46\n      swap2\n      swap1\n      tag_47\n      jump\t// in\n    tag_46:\n      tag_48\n      jump\t// in\n    tag_45:\n      mload(0x40)\n      tag_49\n      swap5\n      swap4\n      swap3\n      swap2\n      swap1\n      tag_50\n      jump\t// in\n    tag_49:\n      mload(0x40)\n      dup1\n      swap2\n      sub\n      swap1\n      return\n        /* \"contracts/Profile.sol\":4183:4330  function createCertificate(string[] memory certificate) public {\r... */\n    tag_12:\n      tag_51\n      0x04\n      dup1\n      calldatasize\n      sub\n      dup2\n      add\n      swap1\n      tag_52\n      swap2\n      swap1\n      tag_43\n      jump\t// in\n    tag_52:\n      tag_53\n      jump\t// in\n    tag_51:\n      stop\n        /* \"contracts/Profile.sol\":4348:4440  function delAllEducation() external  {\r... */\n    tag_13:\n      tag_54\n      tag_55\n      jump\t// in\n    tag_54:\n      stop\n        /* \"contracts/Profile.sol\":3525:3918  function getEducation(uint index) public view returns(string memory, string memory, string memory, string memory, string memory) {\r... */\n    tag_14:\n      tag_56\n      0x04\n      dup1\n      calldatasize\n      sub\n      dup2\n      add\n      swap1\n      tag_57\n      swap2\n      swap1\n      tag_58\n      jump\t// in\n    tag_57:\n      tag_59\n      jump\t// in\n    tag_56:\n      mload(0x40)\n      tag_60\n      swap6\n      swap5\n      swap4\n      swap3\n      swap2\n      swap1\n      tag_61\n      jump\t// in\n    tag_60:\n      mload(0x40)\n      dup1\n      swap2\n      sub\n      swap1\n      return\n        /* \"contracts/Profile.sol\":4548:4624  function delProfile() external {\r... */\n    tag_15:\n      tag_62\n      tag_63\n      jump\t// in\n    tag_62:\n      stop\n        /* \"contracts/Profile.sol\":2591:2979  function createSkill(string[] memory programmingLanguages, string[] memory framework, string[] memory databaseAndOther) public {\r... */\n    tag_21:\n        /* \"contracts/Profile.sol\":2736:2743  profile */\n      0x00\n        /* \"contracts/Profile.sol\":2736:2755  profile[msg.sender] */\n      dup1\n        /* \"contracts/Profile.sol\":2744:2754  msg.sender */\n      caller\n        /* \"contracts/Profile.sol\":2736:2755  profile[msg.sender] */\n      0xffffffffffffffffffffffffffffffffffffffff\n      and\n      0xffffffffffffffffffffffffffffffffffffffff\n      and\n      dup2\n      mstore\n      0x20\n      add\n      swap1\n      dup2\n      mstore\n      0x20\n      add\n      0x00\n      keccak256\n        /* \"contracts/Profile.sol\":2736:2761  profile[msg.sender].skill */\n      0x0e\n      add\n      0x00\n        /* \"contracts/Profile.sol\":2729:2761  delete profile[msg.sender].skill */\n      dup1\n      dup3\n      add\n      0x00\n      tag_65\n      swap2\n      swap1\n      tag_66\n      jump\t// in\n    tag_65:\n      0x01\n      dup3\n      add\n      0x00\n      tag_67\n      swap2\n      swap1\n      tag_66\n      jump\t// in\n    tag_67:\n      0x02\n      dup3\n      add\n      0x00\n      tag_68\n      swap2\n      swap1\n      tag_66\n      jump\t// in\n    tag_68:\n      pop\n      pop\n        /* \"contracts/Profile.sol\":2821:2841  programmingLanguages */\n      dup3\n        /* \"contracts/Profile.sol\":2772:2779  profile */\n      0x00\n        /* \"contracts/Profile.sol\":2772:2791  profile[msg.sender] */\n      dup1\n        /* \"contracts/Profile.sol\":2780:2790  msg.sender */\n      caller\n        /* \"contracts/Profile.sol\":2772:2791  profile[msg.sender] */\n      0xffffffffffffffffffffffffffffffffffffffff\n      and\n      0xffffffffffffffffffffffffffffffffffffffff\n      and\n      dup2\n      mstore\n      0x20\n      add\n      swap1\n      dup2\n      mstore\n      0x20\n      add\n      0x00\n      keccak256\n        /* \"contracts/Profile.sol\":2772:2797  profile[msg.sender].skill */\n      0x0e\n      add\n        /* \"contracts/Profile.sol\":2772:2818  profile[msg.sender].skill.programmingLanguages */\n      0x00\n      add\n        /* \"contracts/Profile.sol\":2772:2841  profile[msg.sender].skill.programmingLanguages = programmingLanguages */\n      swap1\n      dup1\n      mload\n      swap1\n      0x20\n      add\n      swap1\n      tag_69\n      swap3\n      swap2\n      swap1\n      tag_70\n      jump\t// in\n    tag_69:\n      pop\n        /* \"contracts/Profile.sol\":2890:2899  framework */\n      dup2\n        /* \"contracts/Profile.sol\":2852:2859  profile */\n      0x00\n        /* \"contracts/Profile.sol\":2852:2871  profile[msg.sender] */\n      dup1\n        /* \"contracts/Profile.sol\":2860:2870  msg.sender */\n      caller\n        /* \"contracts/Profile.sol\":2852:2871  profile[msg.sender] */\n      0xffffffffffffffffffffffffffffffffffffffff\n      and\n      0xffffffffffffffffffffffffffffffffffffffff\n      and\n      dup2\n      mstore\n      0x20\n      add\n      swap1\n      dup2\n      mstore\n      0x20\n      add\n      0x00\n      keccak256\n        /* \"contracts/Profile.sol\":2852:2877  profile[msg.sender].skill */\n      0x0e\n      add\n        /* \"contracts/Profile.sol\":2852:2887  profile[msg.sender].skill.framework */\n      0x01\n      add\n        /* \"contracts/Profile.sol\":2852:2899  profile[msg.sender].skill.framework = framework */\n      swap1\n      dup1\n      mload\n      swap1\n      0x20\n      add\n      swap1\n      tag_71\n      swap3\n      swap2\n      swap1\n      tag_70\n      jump\t// in\n    tag_71:\n      pop\n        /* \"contracts/Profile.sol\":2955:2971  databaseAndOther */\n      dup1\n        /* \"contracts/Profile.sol\":2910:2917  profile */\n      0x00\n        /* \"contracts/Profile.sol\":2910:2929  profile[msg.sender] */\n      dup1\n        /* \"contracts/Profile.sol\":2918:2928  msg.sender */\n      caller\n        /* \"contracts/Profile.sol\":2910:2929  profile[msg.sender] */\n      0xffffffffffffffffffffffffffffffffffffffff\n      and\n      0xffffffffffffffffffffffffffffffffffffffff\n      and\n      dup2\n      mstore\n      0x20\n      add\n      swap1\n      dup2\n      mstore\n      0x20\n      add\n      0x00\n      keccak256\n        /* \"contracts/Profile.sol\":2910:2935  profile[msg.sender].skill */\n      0x0e\n      add\n        /* \"contracts/Profile.sol\":2910:2952  profile[msg.sender].skill.databaseAndOther */\n      0x02\n      add\n        /* \"contracts/Profile.sol\":2910:2971  profile[msg.sender].skill.databaseAndOther = databaseAndOther */\n      swap1\n      dup1\n      mload\n      swap1\n      0x20\n      add\n      swap1\n      tag_72\n      swap3\n      swap2\n      swap1\n      tag_70\n      jump\t// in\n    tag_72:\n      pop\n        /* \"contracts/Profile.sol\":2591:2979  function createSkill(string[] memory programmingLanguages, string[] memory framework, string[] memory databaseAndOther) public {\r... */\n      pop\n      pop\n      pop\n      jump\t// out\n        /* \"contracts/Profile.sol\":4632:4740  function delCertificateAndAward() external {\r... */\n    tag_23:\n        /* \"contracts/Profile.sol\":4693:4700  profile */\n      0x00\n        /* \"contracts/Profile.sol\":4693:4712  profile[msg.sender] */\n      dup1\n        /* \"contracts/Profile.sol\":4701:4711  msg.sender */\n      caller\n        /* \"contracts/Profile.sol\":4693:4712  profile[msg.sender] */\n      0xffffffffffffffffffffffffffffffffffffffff\n      and\n      0xffffffffffffffffffffffffffffffffffffffff\n      and\n      dup2\n      mstore\n      0x20\n      add\n      swap1\n      dup2\n      mstore\n      0x20\n      add\n      0x00\n      keccak256\n        /* \"contracts/Profile.sol\":4693:4732  profile[msg.sender].CertificateAndAward */\n      0x12\n      add\n      0x00\n        /* \"contracts/Profile.sol\":4686:4732  delete profile[msg.sender].CertificateAndAward */\n      dup1\n      dup3\n      add\n      0x00\n      tag_74\n      swap2\n      swap1\n      tag_66\n      jump\t// in\n    tag_74:\n      0x01\n      dup3\n      add\n      0x00\n      tag_75\n      swap2\n      swap1\n      tag_66\n      jump\t// in\n    tag_75:\n      pop\n      pop\n        /* \"contracts/Profile.sol\":4632:4740  function delCertificateAndAward() external {\r... */\n      jump\t// out\n        /* \"contracts/Profile.sol\":3926:4044  function getEducationCount() public view returns (uint) {\r... */\n    tag_25:\n        /* \"contracts/Profile.sol\":3976:3980  uint */\n      0x00\n        /* \"contracts/Profile.sol\":4000:4007  profile */\n      dup1\n        /* \"contracts/Profile.sol\":4000:4019  profile[msg.sender] */\n      0x00\n        /* \"contracts/Profile.sol\":4008:4018  msg.sender */\n      caller\n        /* \"contracts/Profile.sol\":4000:4019  profile[msg.sender] */\n      0xffffffffffffffffffffffffffffffffffffffff\n      and\n      0xffffffffffffffffffffffffffffffffffffffff\n      and\n      dup2\n      mstore\n      0x20\n      add\n      swap1\n      dup2\n      mstore\n      0x20\n      add\n      0x00\n      keccak256\n        /* \"contracts/Profile.sol\":4000:4029  profile[msg.sender].education */\n      0x11\n      add\n        /* \"contracts/Profile.sol\":4000:4036  profile[msg.sender].education.length */\n      dup1\n      sload\n      swap1\n      pop\n        /* \"contracts/Profile.sol\":3993:4036  return profile[msg.sender].education.length */\n      swap1\n      pop\n        /* \"contracts/Profile.sol\":3926:4044  function getEducationCount() public view returns (uint) {\r... */\n      swap1\n      jump\t// out\n        /* \"contracts/Profile.sol\":3046:3516  function createUnivercity(string memory startDate, string memory endDate, string memory univercity, string memory major, string memory finalProject) public {\r... */\n    tag_31:\n        /* \"contracts/Profile.sol\":3213:3240  Education memory _education */\n      tag_78\n      tag_79\n      jump\t// in\n    tag_78:\n        /* \"contracts/Profile.sol\":3274:3283  startDate */\n      dup6\n        /* \"contracts/Profile.sol\":3251:3261  _education */\n      dup2\n        /* \"contracts/Profile.sol\":3251:3271  _education.startDate */\n      0x00\n      add\n        /* \"contracts/Profile.sol\":3251:3283  _education.startDate = startDate */\n      dup2\n      swap1\n      mstore\n      pop\n        /* \"contracts/Profile.sol\":3315:3322  endDate */\n      dup5\n        /* \"contracts/Profile.sol\":3294:3304  _education */\n      dup2\n        /* \"contracts/Profile.sol\":3294:3312  _education.endDate */\n      0x20\n      add\n        /* \"contracts/Profile.sol\":3294:3322  _education.endDate = endDate */\n      dup2\n      swap1\n      mstore\n      pop\n        /* \"contracts/Profile.sol\":3357:3367  univercity */\n      dup4\n        /* \"contracts/Profile.sol\":3333:3343  _education */\n      dup2\n        /* \"contracts/Profile.sol\":3333:3354  _education.univercity */\n      0x40\n      add\n        /* \"contracts/Profile.sol\":3333:3367  _education.univercity = univercity */\n      dup2\n      swap1\n      mstore\n      pop\n        /* \"contracts/Profile.sol\":3397:3402  major */\n      dup3\n        /* \"contracts/Profile.sol\":3378:3388  _education */\n      dup2\n        /* \"contracts/Profile.sol\":3378:3394  _education.major */\n      0x60\n      add\n        /* \"contracts/Profile.sol\":3378:3402  _education.major = major */\n      dup2\n      swap1\n      mstore\n      pop\n        /* \"contracts/Profile.sol\":3439:3451  finalProject */\n      dup2\n        /* \"contracts/Profile.sol\":3413:3423  _education */\n      dup2\n        /* \"contracts/Profile.sol\":3413:3436  _education.finalProject */\n      0x80\n      add\n        /* \"contracts/Profile.sol\":3413:3451  _education.finalProject = finalProject */\n      dup2\n      swap1\n      mstore\n      pop\n        /* \"contracts/Profile.sol\":3462:3469  profile */\n      0x00\n        /* \"contracts/Profile.sol\":3462:3481  profile[msg.sender] */\n      dup1\n        /* \"contracts/Profile.sol\":3470:3480  msg.sender */\n      caller\n        /* \"contracts/Profile.sol\":3462:3481  profile[msg.sender] */\n      0xffffffffffffffffffffffffffffffffffffffff\n      and\n      0xffffffffffffffffffffffffffffffffffffffff\n      and\n      dup2\n      mstore\n      0x20\n      add\n      swap1\n      dup2\n      mstore\n      0x20\n      add\n      0x00\n      keccak256\n        /* \"contracts/Profile.sol\":3462:3491  profile[msg.sender].education */\n      0x11\n      add\n        /* \"contracts/Profile.sol\":3497:3507  _education */\n      dup2\n        /* \"contracts/Profile.sol\":3462:3508  profile[msg.sender].education.push(_education) */\n      swap1\n      dup1\n      0x01\n      dup2\n      sload\n      add\n      dup1\n      dup3\n      sstore\n      dup1\n      swap2\n      pop\n      pop\n      0x01\n      swap1\n      sub\n      swap1\n      0x00\n      mstore\n      keccak256(0x00, 0x20)\n      swap1\n      0x05\n      mul\n      add\n      0x00\n      swap1\n      swap2\n      swap1\n      swap2\n      swap1\n      swap2\n      pop\n      0x00\n      dup3\n      add\n      mload\n      dup2\n      0x00\n      add\n      swap1\n      dup1\n      mload\n      swap1\n      0x20\n      add\n      swap1\n      tag_81\n      swap3\n      swap2\n      swap1\n      tag_82\n      jump\t// in\n    tag_81:\n      pop\n      0x20\n      dup3\n      add\n      mload\n      dup2\n      0x01\n      add\n      swap1\n      dup1\n      mload\n      swap1\n      0x20\n      add\n      swap1\n      tag_83\n      swap3\n      swap2\n      swap1\n      tag_82\n      jump\t// in\n    tag_83:\n      pop\n      0x40\n      dup3\n      add\n      mload\n      dup2\n      0x02\n      add\n      swap1\n      dup1\n      mload\n      swap1\n      0x20\n      add\n      swap1\n      tag_84\n      swap3\n      swap2\n      swap1\n      tag_82\n      jump\t// in\n    tag_84:\n      pop\n      0x60\n      dup3\n      add\n      mload\n      dup2\n      0x03\n      add\n      swap1\n      dup1\n      mload\n      swap1\n      0x20\n      add\n      swap1\n      tag_85\n      swap3\n      swap2\n      swap1\n      tag_82\n      jump\t// in\n    tag_85:\n      pop\n      0x80\n      dup3\n      add\n      mload\n      dup2\n      0x04\n      add\n      swap1\n      dup1\n      mload\n      swap1\n      0x20\n      add\n      swap1\n      tag_86\n      swap3\n      swap2\n      swap1\n      tag_82\n      jump\t// in\n    tag_86:\n      pop\n      pop\n      pop\n        /* \"contracts/Profile.sol\":3202:3516  {\r... */\n      pop\n        /* \"contracts/Profile.sol\":3046:3516  function createUnivercity(string memory startDate, string memory endDate, string memory univercity, string memory major, string memory finalProject) public {\r... */\n      pop\n      pop\n      pop\n      pop\n      pop\n      jump\t// out\n        /* \"contracts/Profile.sol\":2000:2504  function createContract(string memory email, string memory phone, string memory github, string memory gitlab, string memory linkin) public {\r... */\n    tag_34:\n        /* \"contracts/Profile.sol\":2157:2164  profile */\n      0x00\n        /* \"contracts/Profile.sol\":2157:2176  profile[msg.sender] */\n      dup1\n        /* \"contracts/Profile.sol\":2165:2175  msg.sender */\n      caller\n        /* \"contracts/Profile.sol\":2157:2176  profile[msg.sender] */\n      0xffffffffffffffffffffffffffffffffffffffff\n      and\n      0xffffffffffffffffffffffffffffffffffffffff\n      and\n      dup2\n      mstore\n      0x20\n      add\n      swap1\n      dup2\n      mstore\n      0x20\n      add\n      0x00\n      keccak256\n        /* \"contracts/Profile.sol\":2157:2192  profile[msg.sender].privateContract */\n      0x08\n      add\n      0x00\n        /* \"contracts/Profile.sol\":2150:2192  delete profile[msg.sender].privateContract */\n      dup1\n      dup3\n      add\n      0x00\n      tag_88\n      swap2\n      swap1\n      tag_89\n      jump\t// in\n    tag_88:\n      0x01\n      dup3\n      add\n      0x00\n      tag_90\n      swap2\n      swap1\n      tag_89\n      jump\t// in\n    tag_90:\n      0x02\n      dup3\n      add\n      0x00\n      tag_91\n      swap2\n      swap1\n      tag_89\n      jump\t// in\n    tag_91:\n      0x03\n      dup3\n      add\n      0x00\n      tag_92\n      swap2\n      swap1\n      tag_89\n      jump\t// in\n    tag_92:\n      0x04\n      dup3\n      add\n      0x00\n      tag_93\n      swap2\n      swap1\n      tag_89\n      jump\t// in\n    tag_93:\n      0x05\n      dup3\n      add\n      0x00\n      tag_94\n      swap2\n      swap1\n      tag_89\n      jump\t// in\n    tag_94:\n      pop\n      pop\n        /* \"contracts/Profile.sol\":2247:2252  email */\n      dup5\n        /* \"contracts/Profile.sol\":2203:2210  profile */\n      0x00\n        /* \"contracts/Profile.sol\":2203:2222  profile[msg.sender] */\n      dup1\n        /* \"contracts/Profile.sol\":2211:2221  msg.sender */\n      caller\n        /* \"contracts/Profile.sol\":2203:2222  profile[msg.sender] */\n      0xffffffffffffffffffffffffffffffffffffffff\n      and\n      0xffffffffffffffffffffffffffffffffffffffff\n      and\n      dup2\n      mstore\n      0x20\n      add\n      swap1\n      dup2\n      mstore\n      0x20\n      add\n      0x00\n      keccak256\n        /* \"contracts/Profile.sol\":2203:2238  profile[msg.sender].privateContract */\n      0x08\n      add\n        /* \"contracts/Profile.sol\":2203:2244  profile[msg.sender].privateContract.email */\n      0x01\n      add\n        /* \"contracts/Profile.sol\":2203:2252  profile[msg.sender].privateContract.email = email */\n      swap1\n      dup1\n      mload\n      swap1\n      0x20\n      add\n      swap1\n      tag_95\n      swap3\n      swap2\n      swap1\n      tag_82\n      jump\t// in\n    tag_95:\n      pop\n        /* \"contracts/Profile.sol\":2307:2312  phone */\n      dup4\n        /* \"contracts/Profile.sol\":2263:2270  profile */\n      0x00\n        /* \"contracts/Profile.sol\":2263:2282  profile[msg.sender] */\n      dup1\n        /* \"contracts/Profile.sol\":2271:2281  msg.sender */\n      caller\n        /* \"contracts/Profile.sol\":2263:2282  profile[msg.sender] */\n      0xffffffffffffffffffffffffffffffffffffffff\n      and\n      0xffffffffffffffffffffffffffffffffffffffff\n      and\n      dup2\n      mstore\n      0x20\n      add\n      swap1\n      dup2\n      mstore\n      0x20\n      add\n      0x00\n      keccak256\n        /* \"contracts/Profile.sol\":2263:2298  profile[msg.sender].privateContract */\n      0x08\n      add\n        /* \"contracts/Profile.sol\":2263:2304  profile[msg.sender].privateContract.phone */\n      0x02\n      add\n        /* \"contracts/Profile.sol\":2263:2312  profile[msg.sender].privateContract.phone = phone */\n      swap1\n      dup1\n      mload\n      swap1\n      0x20\n      add\n      swap1\n      tag_96\n      swap3\n      swap2\n      swap1\n      tag_82\n      jump\t// in\n    tag_96:\n      pop\n        /* \"contracts/Profile.sol\":2368:2374  github */\n      dup3\n        /* \"contracts/Profile.sol\":2323:2330  profile */\n      0x00\n        /* \"contracts/Profile.sol\":2323:2342  profile[msg.sender] */\n      dup1\n        /* \"contracts/Profile.sol\":2331:2341  msg.sender */\n      caller\n        /* \"contracts/Profile.sol\":2323:2342  profile[msg.sender] */\n      0xffffffffffffffffffffffffffffffffffffffff\n      and\n      0xffffffffffffffffffffffffffffffffffffffff\n      and\n      dup2\n      mstore\n      0x20\n      add\n      swap1\n      dup2\n      mstore\n      0x20\n      add\n      0x00\n      keccak256\n        /* \"contracts/Profile.sol\":2323:2358  profile[msg.sender].privateContract */\n      0x08\n      add\n        /* \"contracts/Profile.sol\":2323:2365  profile[msg.sender].privateContract.github */\n      0x03\n      add\n        /* \"contracts/Profile.sol\":2323:2374  profile[msg.sender].privateContract.github = github */\n      swap1\n      dup1\n      mload\n      swap1\n      0x20\n      add\n      swap1\n      tag_97\n      swap3\n      swap2\n      swap1\n      tag_82\n      jump\t// in\n    tag_97:\n      pop\n        /* \"contracts/Profile.sol\":2429:2435  gitlab */\n      dup2\n        /* \"contracts/Profile.sol\":2385:2392  profile */\n      0x00\n        /* \"contracts/Profile.sol\":2385:2404  profile[msg.sender] */\n      dup1\n        /* \"contracts/Profile.sol\":2393:2403  msg.sender */\n      caller\n        /* \"contracts/Profile.sol\":2385:2404  profile[msg.sender] */\n      0xffffffffffffffffffffffffffffffffffffffff\n      and\n      0xffffffffffffffffffffffffffffffffffffffff\n      and\n      dup2\n      mstore\n      0x20\n      add\n      swap1\n      dup2\n      mstore\n      0x20\n      add\n      0x00\n      keccak256\n        /* \"contracts/Profile.sol\":2385:2420  profile[msg.sender].privateContract */\n      0x08\n      add\n        /* \"contracts/Profile.sol\":2385:2426  profile[msg.sender].privateContract.phone */\n      0x02\n      add\n        /* \"contracts/Profile.sol\":2385:2435  profile[msg.sender].privateContract.phone = gitlab */\n      swap1\n      dup1\n      mload\n      swap1\n      0x20\n      add\n      swap1\n      tag_98\n      swap3\n      swap2\n      swap1\n      tag_82\n      jump\t// in\n    tag_98:\n      pop\n        /* \"contracts/Profile.sol\":2490:2496  linkin */\n      dup1\n        /* \"contracts/Profile.sol\":2446:2453  profile */\n      0x00\n        /* \"contracts/Profile.sol\":2446:2465  profile[msg.sender] */\n      dup1\n        /* \"contracts/Profile.sol\":2454:2464  msg.sender */\n      caller\n        /* \"contracts/Profile.sol\":2446:2465  profile[msg.sender] */\n      0xffffffffffffffffffffffffffffffffffffffff\n      and\n      0xffffffffffffffffffffffffffffffffffffffff\n      and\n      dup2\n      mstore\n      0x20\n      add\n      swap1\n      dup2\n      mstore\n      0x20\n      add\n      0x00\n      keccak256\n        /* \"contracts/Profile.sol\":2446:2481  profile[msg.sender].privateContract */\n      0x08\n      add\n        /* \"contracts/Profile.sol\":2446:2487  profile[msg.sender].privateContract.email */\n      0x01\n      add\n        /* \"contracts/Profile.sol\":2446:2496  profile[msg.sender].privateContract.email = linkin */\n      swap1\n      dup1\n      mload\n      swap1\n      0x20\n      add\n      swap1\n      tag_99\n      swap3\n      swap2\n      swap1\n      tag_82\n      jump\t// in\n    tag_99:\n      pop\n        /* \"contracts/Profile.sol\":2000:2504  function createContract(string memory email, string memory phone, string memory github, string memory gitlab, string memory linkin) public {\r... */\n      pop\n      pop\n      pop\n      pop\n      pop\n      jump\t// out\n        /* \"contracts/Profile.sol\":1229:1945  function createInformation(string memory firstName, string memory middleName, string memory lastName,  string memory profileImage, string memory aboutMe, string memory position) public {\r... */\n    tag_38:\n        /* \"contracts/Profile.sol\":1469:1478  firstName */\n      dup6\n        /* \"contracts/Profile.sol\":1425:1432  profile */\n      0x00\n        /* \"contracts/Profile.sol\":1425:1444  profile[msg.sender] */\n      dup1\n        /* \"contracts/Profile.sol\":1433:1443  msg.sender */\n      caller\n        /* \"contracts/Profile.sol\":1425:1444  profile[msg.sender] */\n      0xffffffffffffffffffffffffffffffffffffffff\n      and\n      0xffffffffffffffffffffffffffffffffffffffff\n      and\n      dup2\n      mstore\n      0x20\n      add\n      swap1\n      dup2\n      mstore\n      0x20\n      add\n      0x00\n      keccak256\n        /* \"contracts/Profile.sol\":1425:1456  profile[msg.sender].information */\n      0x00\n      add\n        /* \"contracts/Profile.sol\":1425:1466  profile[msg.sender].information.firstName */\n      0x03\n      add\n        /* \"contracts/Profile.sol\":1425:1478  profile[msg.sender].information.firstName = firstName */\n      swap1\n      dup1\n      mload\n      swap1\n      0x20\n      add\n      swap1\n      tag_101\n      swap3\n      swap2\n      swap1\n      tag_82\n      jump\t// in\n    tag_101:\n      pop\n        /* \"contracts/Profile.sol\":1534:1544  middleName */\n      dup5\n        /* \"contracts/Profile.sol\":1489:1496  profile */\n      0x00\n        /* \"contracts/Profile.sol\":1489:1508  profile[msg.sender] */\n      dup1\n        /* \"contracts/Profile.sol\":1497:1507  msg.sender */\n      caller\n        /* \"contracts/Profile.sol\":1489:1508  profile[msg.sender] */\n      0xffffffffffffffffffffffffffffffffffffffff\n      and\n      0xffffffffffffffffffffffffffffffffffffffff\n      and\n      dup2\n      mstore\n      0x20\n      add\n      swap1\n      dup2\n      mstore\n      0x20\n      add\n      0x00\n      keccak256\n        /* \"contracts/Profile.sol\":1489:1520  profile[msg.sender].information */\n      0x00\n      add\n        /* \"contracts/Profile.sol\":1489:1531  profile[msg.sender].information.middleName */\n      0x04\n      add\n        /* \"contracts/Profile.sol\":1489:1544  profile[msg.sender].information.middleName = middleName */\n      swap1\n      dup1\n      mload\n      swap1\n      0x20\n      add\n      swap1\n      tag_102\n      swap3\n      swap2\n      swap1\n      tag_82\n      jump\t// in\n    tag_102:\n      pop\n        /* \"contracts/Profile.sol\":1598:1606  lastName */\n      dup4\n        /* \"contracts/Profile.sol\":1555:1562  profile */\n      0x00\n        /* \"contracts/Profile.sol\":1555:1574  profile[msg.sender] */\n      dup1\n        /* \"contracts/Profile.sol\":1563:1573  msg.sender */\n      caller\n        /* \"contracts/Profile.sol\":1555:1574  profile[msg.sender] */\n      0xffffffffffffffffffffffffffffffffffffffff\n      and\n      0xffffffffffffffffffffffffffffffffffffffff\n      and\n      dup2\n      mstore\n      0x20\n      add\n      swap1\n      dup2\n      mstore\n      0x20\n      add\n      0x00\n      keccak256\n        /* \"contracts/Profile.sol\":1555:1586  profile[msg.sender].information */\n      0x00\n      add\n        /* \"contracts/Profile.sol\":1555:1595  profile[msg.sender].information.lastName */\n      0x05\n      add\n        /* \"contracts/Profile.sol\":1555:1606  profile[msg.sender].information.lastName = lastName */\n      swap1\n      dup1\n      mload\n      swap1\n      0x20\n      add\n      swap1\n      tag_103\n      swap3\n      swap2\n      swap1\n      tag_82\n      jump\t// in\n    tag_103:\n      pop\n        /* \"contracts/Profile.sol\":1664:1676  profileImage */\n      dup3\n        /* \"contracts/Profile.sol\":1617:1624  profile */\n      0x00\n        /* \"contracts/Profile.sol\":1617:1636  profile[msg.sender] */\n      dup1\n        /* \"contracts/Profile.sol\":1625:1635  msg.sender */\n      caller\n        /* \"contracts/Profile.sol\":1617:1636  profile[msg.sender] */\n      0xffffffffffffffffffffffffffffffffffffffff\n      and\n      0xffffffffffffffffffffffffffffffffffffffff\n      and\n      dup2\n      mstore\n      0x20\n      add\n      swap1\n      dup2\n      mstore\n      0x20\n      add\n      0x00\n      keccak256\n        /* \"contracts/Profile.sol\":1617:1648  profile[msg.sender].information */\n      0x00\n      add\n        /* \"contracts/Profile.sol\":1617:1661  profile[msg.sender].information.profileImage */\n      0x06\n      add\n        /* \"contracts/Profile.sol\":1617:1676  profile[msg.sender].information.profileImage = profileImage */\n      swap1\n      dup1\n      mload\n      swap1\n      0x20\n      add\n      swap1\n      tag_104\n      swap3\n      swap2\n      swap1\n      tag_82\n      jump\t// in\n    tag_104:\n      pop\n        /* \"contracts/Profile.sol\":1729:1736  aboutMe */\n      dup2\n        /* \"contracts/Profile.sol\":1687:1694  profile */\n      0x00\n        /* \"contracts/Profile.sol\":1687:1706  profile[msg.sender] */\n      dup1\n        /* \"contracts/Profile.sol\":1695:1705  msg.sender */\n      caller\n        /* \"contracts/Profile.sol\":1687:1706  profile[msg.sender] */\n      0xffffffffffffffffffffffffffffffffffffffff\n      and\n      0xffffffffffffffffffffffffffffffffffffffff\n      and\n      dup2\n      mstore\n      0x20\n      add\n      swap1\n      dup2\n      mstore\n      0x20\n      add\n      0x00\n      keccak256\n        /* \"contracts/Profile.sol\":1687:1718  profile[msg.sender].information */\n      0x00\n      add\n        /* \"contracts/Profile.sol\":1687:1726  profile[msg.sender].information.aboutMe */\n      0x00\n      add\n        /* \"contracts/Profile.sol\":1687:1736  profile[msg.sender].information.aboutMe = aboutMe */\n      swap1\n      dup1\n      mload\n      swap1\n      0x20\n      add\n      swap1\n      tag_105\n      swap3\n      swap2\n      swap1\n      tag_82\n      jump\t// in\n    tag_105:\n      pop\n        /* \"contracts/Profile.sol\":1790:1798  position */\n      dup1\n        /* \"contracts/Profile.sol\":1747:1754  profile */\n      0x00\n        /* \"contracts/Profile.sol\":1747:1766  profile[msg.sender] */\n      dup1\n        /* \"contracts/Profile.sol\":1755:1765  msg.sender */\n      caller\n        /* \"contracts/Profile.sol\":1747:1766  profile[msg.sender] */\n      0xffffffffffffffffffffffffffffffffffffffff\n      and\n      0xffffffffffffffffffffffffffffffffffffffff\n      and\n      dup2\n      mstore\n      0x20\n      add\n      swap1\n      dup2\n      mstore\n      0x20\n      add\n      0x00\n      keccak256\n        /* \"contracts/Profile.sol\":1747:1778  profile[msg.sender].information */\n      0x00\n      add\n        /* \"contracts/Profile.sol\":1747:1787  profile[msg.sender].information.position */\n      0x01\n      add\n        /* \"contracts/Profile.sol\":1747:1798  profile[msg.sender].information.position = position */\n      swap1\n      dup1\n      mload\n      swap1\n      0x20\n      add\n      swap1\n      tag_106\n      swap3\n      swap2\n      swap1\n      tag_82\n      jump\t// in\n    tag_106:\n      pop\n        /* \"contracts/Profile.sol\":1855:1865  msg.sender */\n      caller\n        /* \"contracts/Profile.sol\":1809:1816  profile */\n      0x00\n        /* \"contracts/Profile.sol\":1809:1828  profile[msg.sender] */\n      dup1\n        /* \"contracts/Profile.sol\":1817:1827  msg.sender */\n      caller\n        /* \"contracts/Profile.sol\":1809:1828  profile[msg.sender] */\n      0xffffffffffffffffffffffffffffffffffffffff\n      and\n      0xffffffffffffffffffffffffffffffffffffffff\n      and\n      dup2\n      mstore\n      0x20\n      add\n      swap1\n      dup2\n      mstore\n      0x20\n      add\n      0x00\n      keccak256\n        /* \"contracts/Profile.sol\":1809:1840  profile[msg.sender].information */\n      0x00\n      add\n        /* \"contracts/Profile.sol\":1809:1852  profile[msg.sender].information.userAddress */\n      0x02\n      add\n      0x00\n        /* \"contracts/Profile.sol\":1809:1865  profile[msg.sender].information.userAddress = msg.sender */\n      0x0100\n      exp\n      dup2\n      sload\n      dup2\n      0xffffffffffffffffffffffffffffffffffffffff\n      mul\n      not\n      and\n      swap1\n      dup4\n      0xffffffffffffffffffffffffffffffffffffffff\n      and\n      mul\n      or\n      swap1\n      sstore\n      pop\n        /* \"contracts/Profile.sol\":1922:1937  block.timestamp */\n      timestamp\n        /* \"contracts/Profile.sol\":1877:1884  profile */\n      0x00\n        /* \"contracts/Profile.sol\":1877:1896  profile[msg.sender] */\n      dup1\n        /* \"contracts/Profile.sol\":1885:1895  msg.sender */\n      caller\n        /* \"contracts/Profile.sol\":1877:1896  profile[msg.sender] */\n      0xffffffffffffffffffffffffffffffffffffffff\n      and\n      0xffffffffffffffffffffffffffffffffffffffff\n      and\n      dup2\n      mstore\n      0x20\n      add\n      swap1\n      dup2\n      mstore\n      0x20\n      add\n      0x00\n      keccak256\n        /* \"contracts/Profile.sol\":1877:1908  profile[msg.sender].information */\n      0x00\n      add\n        /* \"contracts/Profile.sol\":1877:1919  profile[msg.sender].information.createDate */\n      0x07\n      add\n        /* \"contracts/Profile.sol\":1877:1937  profile[msg.sender].information.createDate = block.timestamp */\n      dup2\n      swap1\n      sstore\n      pop\n        /* \"contracts/Profile.sol\":1229:1945  function createInformation(string memory firstName, string memory middleName, string memory lastName,  string memory profileImage, string memory aboutMe, string memory position) public {\r... */\n      pop\n      pop\n      pop\n      pop\n      pop\n      pop\n      jump\t// out\n        /* \"contracts/Profile.sol\":4448:4540  function delInformaion() external  {\r... */\n    tag_40:\n        /* \"contracts/Profile.sol\":4501:4508  profile */\n      0x00\n        /* \"contracts/Profile.sol\":4501:4520  profile[msg.sender] */\n      dup1\n        /* \"contracts/Profile.sol\":4509:4519  msg.sender */\n      caller\n        /* \"contracts/Profile.sol\":4501:4520  profile[msg.sender] */\n      0xffffffffffffffffffffffffffffffffffffffff\n      and\n      0xffffffffffffffffffffffffffffffffffffffff\n      and\n      dup2\n      mstore\n      0x20\n      add\n      swap1\n      dup2\n      mstore\n      0x20\n      add\n      0x00\n      keccak256\n        /* \"contracts/Profile.sol\":4501:4532  profile[msg.sender].information */\n      0x00\n      add\n      0x00\n        /* \"contracts/Profile.sol\":4494:4532  delete profile[msg.sender].information */\n      dup1\n      dup3\n      add\n      0x00\n      tag_108\n      swap2\n      swap1\n      tag_89\n      jump\t// in\n    tag_108:\n      0x01\n      dup3\n      add\n      0x00\n      tag_109\n      swap2\n      swap1\n      tag_89\n      jump\t// in\n    tag_109:\n      0x02\n      dup3\n      add\n      exp(0x0100, 0x00)\n      dup2\n      sload\n      swap1\n      0xffffffffffffffffffffffffffffffffffffffff\n      mul\n      not\n      and\n      swap1\n      sstore\n      0x03\n      dup3\n      add\n      0x00\n      tag_110\n      swap2\n      swap1\n      tag_89\n      jump\t// in\n    tag_110:\n      0x04\n      dup3\n      add\n      0x00\n      tag_111\n      swap2\n      swap1\n      tag_89\n      jump\t// in\n    tag_111:\n      0x05\n      dup3\n      add\n      0x00\n      tag_112\n      swap2\n      swap1\n      tag_89\n      jump\t// in\n    tag_112:\n      0x06\n      dup3\n      add\n      0x00\n      tag_113\n      swap2\n      swap1\n      tag_89\n      jump\t// in\n    tag_113:\n      0x07\n      dup3\n      add\n      0x00\n      swap1\n      sstore\n      pop\n      pop\n        /* \"contracts/Profile.sol\":4448:4540  function delInformaion() external  {\r... */\n      jump\t// out\n        /* \"contracts/Profile.sol\":4052:4175  function createAward(string[] memory award) public {\r... */\n    tag_44:\n        /* \"contracts/Profile.sol\":4162:4167  award */\n      dup1\n        /* \"contracts/Profile.sol\":4114:4121  profile */\n      0x00\n        /* \"contracts/Profile.sol\":4114:4133  profile[msg.sender] */\n      dup1\n        /* \"contracts/Profile.sol\":4122:4132  msg.sender */\n      caller\n        /* \"contracts/Profile.sol\":4114:4133  profile[msg.sender] */\n      0xffffffffffffffffffffffffffffffffffffffff\n      and\n      0xffffffffffffffffffffffffffffffffffffffff\n      and\n      dup2\n      mstore\n      0x20\n      add\n      swap1\n      dup2\n      mstore\n      0x20\n      add\n      0x00\n      keccak256\n        /* \"contracts/Profile.sol\":4114:4153  profile[msg.sender].CertificateAndAward */\n      0x12\n      add\n        /* \"contracts/Profile.sol\":4114:4159  profile[msg.sender].CertificateAndAward.award */\n      0x01\n      add\n        /* \"contracts/Profile.sol\":4114:4167  profile[msg.sender].CertificateAndAward.award = award */\n      swap1\n      dup1\n      mload\n      swap1\n      0x20\n      add\n      swap1\n      tag_115\n      swap3\n      swap2\n      swap1\n      tag_70\n      jump\t// in\n    tag_115:\n      pop\n        /* \"contracts/Profile.sol\":4052:4175  function createAward(string[] memory award) public {\r... */\n      pop\n      jump\t// out\n        /* \"contracts/Profile.sol\":291:331  mapping (address => Bio) public  profile */\n    tag_48:\n      mstore(0x20, 0x00)\n      dup1\n      0x00\n      mstore\n      keccak256(0x00, 0x40)\n      0x00\n      swap2\n      pop\n      swap1\n      pop\n      dup1\n      0x00\n      add\n      mload(0x40)\n      dup1\n      0x0100\n      add\n      0x40\n      mstore\n      swap1\n      dup2\n      0x00\n      dup3\n      add\n      dup1\n      sload\n      tag_116\n      swap1\n      tag_117\n      jump\t// in\n    tag_116:\n      dup1\n      0x1f\n      add\n      0x20\n      dup1\n      swap2\n      div\n      mul\n      0x20\n      add\n      mload(0x40)\n      swap1\n      dup2\n      add\n      0x40\n      mstore\n      dup1\n      swap3\n      swap2\n      swap1\n      dup2\n      dup2\n      mstore\n      0x20\n      add\n      dup3\n      dup1\n      sload\n      tag_118\n      swap1\n      tag_117\n      jump\t// in\n    tag_118:\n      dup1\n      iszero\n      tag_119\n      jumpi\n      dup1\n      0x1f\n      lt\n      tag_120\n      jumpi\n      0x0100\n      dup1\n      dup4\n      sload\n      div\n      mul\n      dup4\n      mstore\n      swap2\n      0x20\n      add\n      swap2\n      jump(tag_119)\n    tag_120:\n      dup3\n      add\n      swap2\n      swap1\n      0x00\n      mstore\n      keccak256(0x00, 0x20)\n      swap1\n    tag_121:\n      dup2\n      sload\n      dup2\n      mstore\n      swap1\n      0x01\n      add\n      swap1\n      0x20\n      add\n      dup1\n      dup4\n      gt\n      tag_121\n      jumpi\n      dup3\n      swap1\n      sub\n      0x1f\n      and\n      dup3\n      add\n      swap2\n    tag_119:\n      pop\n      pop\n      pop\n      pop\n      pop\n      dup2\n      mstore\n      0x20\n      add\n      0x01\n      dup3\n      add\n      dup1\n      sload\n      tag_122\n      swap1\n      tag_117\n      jump\t// in\n    tag_122:\n      dup1\n      0x1f\n      add\n      0x20\n      dup1\n      swap2\n      div\n      mul\n      0x20\n      add\n      mload(0x40)\n      swap1\n      dup2\n      add\n      0x40\n      mstore\n      dup1\n      swap3\n      swap2\n      swap1\n      dup2\n      dup2\n      mstore\n      0x20\n      add\n      dup3\n      dup1\n      sload\n      tag_123\n      swap1\n      tag_117\n      jump\t// in\n    tag_123:\n      dup1\n      iszero\n      tag_124\n      jumpi\n      dup1\n      0x1f\n      lt\n      tag_125\n      jumpi\n      0x0100\n      dup1\n      dup4\n      sload\n      div\n      mul\n      dup4\n      mstore\n      swap2\n      0x20\n      add\n      swap2\n      jump(tag_124)\n    tag_125:\n      dup3\n      add\n      swap2\n      swap1\n      0x00\n      mstore\n      keccak256(0x00, 0x20)\n      swap1\n    tag_126:\n      dup2\n      sload\n      dup2\n      mstore\n      swap1\n      0x01\n      add\n      swap1\n      0x20\n      add\n      dup1\n      dup4\n      gt\n      tag_126\n      jumpi\n      dup3\n      swap1\n      sub\n      0x1f\n      and\n      dup3\n      add\n      swap2\n    tag_124:\n      pop\n      pop\n      pop\n      pop\n      pop\n      dup2\n      mstore\n      0x20\n      add\n      0x02\n      dup3\n      add\n      0x00\n      swap1\n      sload\n      swap1\n      0x0100\n      exp\n      swap1\n      div\n      0xffffffffffffffffffffffffffffffffffffffff\n      and\n      0xffffffffffffffffffffffffffffffffffffffff\n      and\n      0xffffffffffffffffffffffffffffffffffffffff\n      and\n      dup2\n      mstore\n      0x20\n      add\n      0x03\n      dup3\n      add\n      dup1\n      sload\n      tag_127\n      swap1\n      tag_117\n      jump\t// in\n    tag_127:\n      dup1\n      0x1f\n      add\n      0x20\n      dup1\n      swap2\n      div\n      mul\n      0x20\n      add\n      mload(0x40)\n      swap1\n      dup2\n      add\n      0x40\n      mstore\n      dup1\n      swap3\n      swap2\n      swap1\n      dup2\n      dup2\n      mstore\n      0x20\n      add\n      dup3\n      dup1\n      sload\n      tag_128\n      swap1\n      tag_117\n      jump\t// in\n    tag_128:\n      dup1\n      iszero\n      tag_129\n      jumpi\n      dup1\n      0x1f\n      lt\n      tag_130\n      jumpi\n      0x0100\n      dup1\n      dup4\n      sload\n      div\n      mul\n      dup4\n      mstore\n      swap2\n      0x20\n      add\n      swap2\n      jump(tag_129)\n    tag_130:\n      dup3\n      add\n      swap2\n      swap1\n      0x00\n      mstore\n      keccak256(0x00, 0x20)\n      swap1\n    tag_131:\n      dup2\n      sload\n      dup2\n      mstore\n      swap1\n      0x01\n      add\n      swap1\n      0x20\n      add\n      dup1\n      dup4\n      gt\n      tag_131\n      jumpi\n      dup3\n      swap1\n      sub\n      0x1f\n      and\n      dup3\n      add\n      swap2\n    tag_129:\n      pop\n      pop\n      pop\n      pop\n      pop\n      dup2\n      mstore\n      0x20\n      add\n      0x04\n      dup3\n      add\n      dup1\n      sload\n      tag_132\n      swap1\n      tag_117\n      jump\t// in\n    tag_132:\n      dup1\n      0x1f\n      add\n      0x20\n      dup1\n      swap2\n      div\n      mul\n      0x20\n      add\n      mload(0x40)\n      swap1\n      dup2\n      add\n      0x40\n      mstore\n      dup1\n      swap3\n      swap2\n      swap1\n      dup2\n      dup2\n      mstore\n      0x20\n      add\n      dup3\n      dup1\n      sload\n      tag_133\n      swap1\n      tag_117\n      jump\t// in\n    tag_133:\n      dup1\n      iszero\n      tag_134\n      jumpi\n      dup1\n      0x1f\n      lt\n      tag_135\n      jumpi\n      0x0100\n      dup1\n      dup4\n      sload\n      div\n      mul\n      dup4\n      mstore\n      swap2\n      0x20\n      add\n      swap2\n      jump(tag_134)\n    tag_135:\n      dup3\n      add\n      swap2\n      swap1\n      0x00\n      mstore\n      keccak256(0x00, 0x20)\n      swap1\n    tag_136:\n      dup2\n      sload\n      dup2\n      mstore\n      swap1\n      0x01\n      add\n      swap1\n      0x20\n      add\n      dup1\n      dup4\n      gt\n      tag_136\n      jumpi\n      dup3\n      swap1\n      sub\n      0x1f\n      and\n      dup3\n      add\n      swap2\n    tag_134:\n      pop\n      pop\n      pop\n      pop\n      pop\n      dup2\n      mstore\n      0x20\n      add\n      0x05\n      dup3\n      add\n      dup1\n      sload\n      tag_137\n      swap1\n      tag_117\n      jump\t// in\n    tag_137:\n      dup1\n      0x1f\n      add\n      0x20\n      dup1\n      swap2\n      div\n      mul\n      0x20\n      add\n      mload(0x40)\n      swap1\n      dup2\n      add\n      0x40\n      mstore\n      dup1\n      swap3\n      swap2\n      swap1\n      dup2\n      dup2\n      mstore\n      0x20\n      add\n      dup3\n      dup1\n      sload\n      tag_138\n      swap1\n      tag_117\n      jump\t// in\n    tag_138:\n      dup1\n      iszero\n      tag_139\n      jumpi\n      dup1\n      0x1f\n      lt\n      tag_140\n      jumpi\n      0x0100\n      dup1\n      dup4\n      sload\n      div\n      mul\n      dup4\n      mstore\n      swap2\n      0x20\n      add\n      swap2\n      jump(tag_139)\n    tag_140:\n      dup3\n      add\n      swap2\n      swap1\n      0x00\n      mstore\n      keccak256(0x00, 0x20)\n      swap1\n    tag_141:\n      dup2\n      sload\n      dup2\n      mstore\n      swap1\n      0x01\n      add\n      swap1\n      0x20\n      add\n      dup1\n      dup4\n      gt\n      tag_141\n      jumpi\n      dup3\n      swap1\n      sub\n      0x1f\n      and\n      dup3\n      add\n      swap2\n    tag_139:\n      pop\n      pop\n      pop\n      pop\n      pop\n      dup2\n      mstore\n      0x20\n      add\n      0x06\n      dup3\n      add\n      dup1\n      sload\n      tag_142\n      swap1\n      tag_117\n      jump\t// in\n    tag_142:\n      dup1\n      0x1f\n      add\n      0x20\n      dup1\n      swap2\n      div\n      mul\n      0x20\n      add\n      mload(0x40)\n      swap1\n      dup2\n      add\n      0x40\n      mstore\n      dup1\n      swap3\n      swap2\n      swap1\n      dup2\n      dup2\n      mstore\n      0x20\n      add\n      dup3\n      dup1\n      sload\n      tag_143\n      swap1\n      tag_117\n      jump\t// in\n    tag_143:\n      dup1\n      iszero\n      tag_144\n      jumpi\n      dup1\n      0x1f\n      lt\n      tag_145\n      jumpi\n      0x0100\n      dup1\n      dup4\n      sload\n      div\n      mul\n      dup4\n      mstore\n      swap2\n      0x20\n      add\n      swap2\n      jump(tag_144)\n    tag_145:\n      dup3\n      add\n      swap2\n      swap1\n      0x00\n      mstore\n      keccak256(0x00, 0x20)\n      swap1\n    tag_146:\n      dup2\n      sload\n      dup2\n      mstore\n      swap1\n      0x01\n      add\n      swap1\n      0x20\n      add\n      dup1\n      dup4\n      gt\n      tag_146\n      jumpi\n      dup3\n      swap1\n      sub\n      0x1f\n      and\n      dup3\n      add\n      swap2\n    tag_144:\n      pop\n      pop\n      pop\n      pop\n      pop\n      dup2\n      mstore\n      0x20\n      add\n      0x07\n      dup3\n      add\n      sload\n      dup2\n      mstore\n      pop\n      pop\n      swap1\n      dup1\n      0x08\n      add\n      mload(0x40)\n      dup1\n      0xc0\n      add\n      0x40\n      mstore\n      swap1\n      dup2\n      0x00\n      dup3\n      add\n      dup1\n      sload\n      tag_147\n      swap1\n      tag_117\n      jump\t// in\n    tag_147:\n      dup1\n      0x1f\n      add\n      0x20\n      dup1\n      swap2\n      div\n      mul\n      0x20\n      add\n      mload(0x40)\n      swap1\n      dup2\n      add\n      0x40\n      mstore\n      dup1\n      swap3\n      swap2\n      swap1\n      dup2\n      dup2\n      mstore\n      0x20\n      add\n      dup3\n      dup1\n      sload\n      tag_148\n      swap1\n      tag_117\n      jump\t// in\n    tag_148:\n      dup1\n      iszero\n      tag_149\n      jumpi\n      dup1\n      0x1f\n      lt\n      tag_150\n      jumpi\n      0x0100\n      dup1\n      dup4\n      sload\n      div\n      mul\n      dup4\n      mstore\n      swap2\n      0x20\n      add\n      swap2\n      jump(tag_149)\n    tag_150:\n      dup3\n      add\n      swap2\n      swap1\n      0x00\n      mstore\n      keccak256(0x00, 0x20)\n      swap1\n    tag_151:\n      dup2\n      sload\n      dup2\n      mstore\n      swap1\n      0x01\n      add\n      swap1\n      0x20\n      add\n      dup1\n      dup4\n      gt\n      tag_151\n      jumpi\n      dup3\n      swap1\n      sub\n      0x1f\n      and\n      dup3\n      add\n      swap2\n    tag_149:\n      pop\n      pop\n      pop\n      pop\n      pop\n      dup2\n      mstore\n      0x20\n      add\n      0x01\n      dup3\n      add\n      dup1\n      sload\n      tag_152\n      swap1\n      tag_117\n      jump\t// in\n    tag_152:\n      dup1\n      0x1f\n      add\n      0x20\n      dup1\n      swap2\n      div\n      mul\n      0x20\n      add\n      mload(0x40)\n      swap1\n      dup2\n      add\n      0x40\n      mstore\n      dup1\n      swap3\n      swap2\n      swap1\n      dup2\n      dup2\n      mstore\n      0x20\n      add\n      dup3\n      dup1\n      sload\n      tag_153\n      swap1\n      tag_117\n      jump\t// in\n    tag_153:\n      dup1\n      iszero\n      tag_154\n      jumpi\n      dup1\n      0x1f\n      lt\n      tag_155\n      jumpi\n      0x0100\n      dup1\n      dup4\n      sload\n      div\n      mul\n      dup4\n      mstore\n      swap2\n      0x20\n      add\n      swap2\n      jump(tag_154)\n    tag_155:\n      dup3\n      add\n      swap2\n      swap1\n      0x00\n      mstore\n      keccak256(0x00, 0x20)\n      swap1\n    tag_156:\n      dup2\n      sload\n      dup2\n      mstore\n      swap1\n      0x01\n      add\n      swap1\n      0x20\n      add\n      dup1\n      dup4\n      gt\n      tag_156\n      jumpi\n      dup3\n      swap1\n      sub\n      0x1f\n      and\n      dup3\n      add\n      swap2\n    tag_154:\n      pop\n      pop\n      pop\n      pop\n      pop\n      dup2\n      mstore\n      0x20\n      add\n      0x02\n      dup3\n      add\n      dup1\n      sload\n      tag_157\n      swap1\n      tag_117\n      jump\t// in\n    tag_157:\n      dup1\n      0x1f\n      add\n      0x20\n      dup1\n      swap2\n      div\n      mul\n      0x20\n      add\n      mload(0x40)\n      swap1\n      dup2\n      add\n      0x40\n      mstore\n      dup1\n      swap3\n      swap2\n      swap1\n      dup2\n      dup2\n      mstore\n      0x20\n      add\n      dup3\n      dup1\n      sload\n      tag_158\n      swap1\n      tag_117\n      jump\t// in\n    tag_158:\n      dup1\n      iszero\n      tag_159\n      jumpi\n      dup1\n      0x1f\n      lt\n      tag_160\n      jumpi\n      0x0100\n      dup1\n      dup4\n      sload\n      div\n      mul\n      dup4\n      mstore\n      swap2\n      0x20\n      add\n      swap2\n      jump(tag_159)\n    tag_160:\n      dup3\n      add\n      swap2\n      swap1\n      0x00\n      mstore\n      keccak256(0x00, 0x20)\n      swap1\n    tag_161:\n      dup2\n      sload\n      dup2\n      mstore\n      swap1\n      0x01\n      add\n      swap1\n      0x20\n      add\n      dup1\n      dup4\n      gt\n      tag_161\n      jumpi\n      dup3\n      swap1\n      sub\n      0x1f\n      and\n      dup3\n      add\n      swap2\n    tag_159:\n      pop\n      pop\n      pop\n      pop\n      pop\n      dup2\n      mstore\n      0x20\n      add\n      0x03\n      dup3\n      add\n      dup1\n      sload\n      tag_162\n      swap1\n      tag_117\n      jump\t// in\n    tag_162:\n      dup1\n      0x1f\n      add\n      0x20\n      dup1\n      swap2\n      div\n      mul\n      0x20\n      add\n      mload(0x40)\n      swap1\n      dup2\n      add\n      0x40\n      mstore\n      dup1\n      swap3\n      swap2\n      swap1\n      dup2\n      dup2\n      mstore\n      0x20\n      add\n      dup3\n      dup1\n      sload\n      tag_163\n      swap1\n      tag_117\n      jump\t// in\n    tag_163:\n      dup1\n      iszero\n      tag_164\n      jumpi\n      dup1\n      0x1f\n      lt\n      tag_165\n      jumpi\n      0x0100\n      dup1\n      dup4\n      sload\n      div\n      mul\n      dup4\n      mstore\n      swap2\n      0x20\n      add\n      swap2\n      jump(tag_164)\n    tag_165:\n      dup3\n      add\n      swap2\n      swap1\n      0x00\n      mstore\n      keccak256(0x00, 0x20)\n      swap1\n    tag_166:\n      dup2\n      sload\n      dup2\n      mstore\n      swap1\n      0x01\n      add\n      swap1\n      0x20\n      add\n      dup1\n      dup4\n      gt\n      tag_166\n      jumpi\n      dup3\n      swap1\n      sub\n      0x1f\n      and\n      dup3\n      add\n      swap2\n    tag_164:\n      pop\n      pop\n      pop\n      pop\n      pop\n      dup2\n      mstore\n      0x20\n      add\n      0x04\n      dup3\n      add\n      dup1\n      sload\n      tag_167\n      swap1\n      tag_117\n      jump\t// in\n    tag_167:\n      dup1\n      0x1f\n      add\n      0x20\n      dup1\n      swap2\n      div\n      mul\n      0x20\n      add\n      mload(0x40)\n      swap1\n      dup2\n      add\n      0x40\n      mstore\n      dup1\n      swap3\n      swap2\n      swap1\n      dup2\n      dup2\n      mstore\n      0x20\n      add\n      dup3\n      dup1\n      sload\n      tag_168\n      swap1\n      tag_117\n      jump\t// in\n    tag_168:\n      dup1\n      iszero\n      tag_169\n      jumpi\n      dup1\n      0x1f\n      lt\n      tag_170\n      jumpi\n      0x0100\n      dup1\n      dup4\n      sload\n      div\n      mul\n      dup4\n      mstore\n      swap2\n      0x20\n      add\n      swap2\n      jump(tag_169)\n    tag_170:\n      dup3\n      add\n      swap2\n      swap1\n      0x00\n      mstore\n      keccak256(0x00, 0x20)\n      swap1\n    tag_171:\n      dup2\n      sload\n      dup2\n      mstore\n      swap1\n      0x01\n      add\n      swap1\n      0x20\n      add\n      dup1\n      dup4\n      gt\n      tag_171\n      jumpi\n      dup3\n      swap1\n      sub\n      0x1f\n      and\n      dup3\n      add\n      swap2\n    tag_169:\n      pop\n      pop\n      pop\n      pop\n      pop\n      dup2\n      mstore\n      0x20\n      add\n      0x05\n      dup3\n      add\n      dup1\n      sload\n      tag_172\n      swap1\n      tag_117\n      jump\t// in\n    tag_172:\n      dup1\n      0x1f\n      add\n      0x20\n      dup1\n      swap2\n      div\n      mul\n      0x20\n      add\n      mload(0x40)\n      swap1\n      dup2\n      add\n      0x40\n      mstore\n      dup1\n      swap3\n      swap2\n      swap1\n      dup2\n      dup2\n      mstore\n      0x20\n      add\n      dup3\n      dup1\n      sload\n      tag_173\n      swap1\n      tag_117\n      jump\t// in\n    tag_173:\n      dup1\n      iszero\n      tag_174\n      jumpi\n      dup1\n      0x1f\n      lt\n      tag_175\n      jumpi\n      0x0100\n      dup1\n      dup4\n      sload\n      div\n      mul\n      dup4\n      mstore\n      swap2\n      0x20\n      add\n      swap2\n      jump(tag_174)\n    tag_175:\n      dup3\n      add\n      swap2\n      swap1\n      0x00\n      mstore\n      keccak256(0x00, 0x20)\n      swap1\n    tag_176:\n      dup2\n      sload\n      dup2\n      mstore\n      swap1\n      0x01\n      add\n      swap1\n      0x20\n      add\n      dup1\n      dup4\n      gt\n      tag_176\n      jumpi\n      dup3\n      swap1\n      sub\n      0x1f\n      and\n      dup3\n      add\n      swap2\n    tag_174:\n      pop\n      pop\n      pop\n      pop\n      pop\n      dup2\n      mstore\n      pop\n      pop\n      swap1\n      dup1\n      0x0e\n      add\n      mload(0x40)\n      dup1\n      0x60\n      add\n      0x40\n      mstore\n      swap1\n      dup2\n      0x00\n      dup3\n      add\n      dup1\n      sload\n      dup1\n      0x20\n      mul\n      0x20\n      add\n      mload(0x40)\n      swap1\n      dup2\n      add\n      0x40\n      mstore\n      dup1\n      swap3\n      swap2\n      swap1\n      dup2\n      dup2\n      mstore\n      0x20\n      add\n      0x00\n      swap1\n    tag_177:\n      dup3\n      dup3\n      lt\n      iszero\n      tag_178\n      jumpi\n      dup4\n      dup3\n      swap1\n      0x00\n      mstore\n      keccak256(0x00, 0x20)\n      add\n      dup1\n      sload\n      tag_180\n      swap1\n      tag_117\n      jump\t// in\n    tag_180:\n      dup1\n      0x1f\n      add\n      0x20\n      dup1\n      swap2\n      div\n      mul\n      0x20\n      add\n      mload(0x40)\n      swap1\n      dup2\n      add\n      0x40\n      mstore\n      dup1\n      swap3\n      swap2\n      swap1\n      dup2\n      dup2\n      mstore\n      0x20\n      add\n      dup3\n      dup1\n      sload\n      tag_181\n      swap1\n      tag_117\n      jump\t// in\n    tag_181:\n      dup1\n      iszero\n      tag_182\n      jumpi\n      dup1\n      0x1f\n      lt\n      tag_183\n      jumpi\n      0x0100\n      dup1\n      dup4\n      sload\n      div\n      mul\n      dup4\n      mstore\n      swap2\n      0x20\n      add\n      swap2\n      jump(tag_182)\n    tag_183:\n      dup3\n      add\n      swap2\n      swap1\n      0x00\n      mstore\n      keccak256(0x00, 0x20)\n      swap1\n    tag_184:\n      dup2\n      sload\n      dup2\n      mstore\n      swap1\n      0x01\n      add\n      swap1\n      0x20\n      add\n      dup1\n      dup4\n      gt\n      tag_184\n      jumpi\n      dup3\n      swap1\n      sub\n      0x1f\n      and\n      dup3\n      add\n      swap2\n    tag_182:\n      pop\n      pop\n      pop\n      pop\n      pop\n      dup2\n      mstore\n      0x20\n      add\n      swap1\n      0x01\n      add\n      swap1\n      jump(tag_177)\n    tag_178:\n      pop\n      pop\n      pop\n      pop\n      dup2\n      mstore\n      0x20\n      add\n      0x01\n      dup3\n      add\n      dup1\n      sload\n      dup1\n      0x20\n      mul\n      0x20\n      add\n      mload(0x40)\n      swap1\n      dup2\n      add\n      0x40\n      mstore\n      dup1\n      swap3\n      swap2\n      swap1\n      dup2\n      dup2\n      mstore\n      0x20\n      add\n      0x00\n      swap1\n    tag_185:\n      dup3\n      dup3\n      lt\n      iszero\n      tag_186\n      jumpi\n      dup4\n      dup3\n      swap1\n      0x00\n      mstore\n      keccak256(0x00, 0x20)\n      add\n      dup1\n      sload\n      tag_188\n      swap1\n      tag_117\n      jump\t// in\n    tag_188:\n      dup1\n      0x1f\n      add\n      0x20\n      dup1\n      swap2\n      div\n      mul\n      0x20\n      add\n      mload(0x40)\n      swap1\n      dup2\n      add\n      0x40\n      mstore\n      dup1\n      swap3\n      swap2\n      swap1\n      dup2\n      dup2\n      mstore\n      0x20\n      add\n      dup3\n      dup1\n      sload\n      tag_189\n      swap1\n      tag_117\n      jump\t// in\n    tag_189:\n      dup1\n      iszero\n      tag_190\n      jumpi\n      dup1\n      0x1f\n      lt\n      tag_191\n      jumpi\n      0x0100\n      dup1\n      dup4\n      sload\n      div\n      mul\n      dup4\n      mstore\n      swap2\n      0x20\n      add\n      swap2\n      jump(tag_190)\n    tag_191:\n      dup3\n      add\n      swap2\n      swap1\n      0x00\n      mstore\n      keccak256(0x00, 0x20)\n      swap1\n    tag_192:\n      dup2\n      sload\n      dup2\n      mstore\n      swap1\n      0x01\n      add\n      swap1\n      0x20\n      add\n      dup1\n      dup4\n      gt\n      tag_192\n      jumpi\n      dup3\n      swap1\n      sub\n      0x1f\n      and\n      dup3\n      add\n      swap2\n    tag_190:\n      pop\n      pop\n      pop\n      pop\n      pop\n      dup2\n      mstore\n      0x20\n      add\n      swap1\n      0x01\n      add\n      swap1\n      jump(tag_185)\n    tag_186:\n      pop\n      pop\n      pop\n      pop\n      dup2\n      mstore\n      0x20\n      add\n      0x02\n      dup3\n      add\n      dup1\n      sload\n      dup1\n      0x20\n      mul\n      0x20\n      add\n      mload(0x40)\n      swap1\n      dup2\n      add\n      0x40\n      mstore\n      dup1\n      swap3\n      swap2\n      swap1\n      dup2\n      dup2\n      mstore\n      0x20\n      add\n      0x00\n      swap1\n    tag_193:\n      dup3\n      dup3\n      lt\n      iszero\n      tag_194\n      jumpi\n      dup4\n      dup3\n      swap1\n      0x00\n      mstore\n      keccak256(0x00, 0x20)\n      add\n      dup1\n      sload\n      tag_196\n      swap1\n      tag_117\n      jump\t// in\n    tag_196:\n      dup1\n      0x1f\n      add\n      0x20\n      dup1\n      swap2\n      div\n      mul\n      0x20\n      add\n      mload(0x40)\n      swap1\n      dup2\n      add\n      0x40\n      mstore\n      dup1\n      swap3\n      swap2\n      swap1\n      dup2\n      dup2\n      mstore\n      0x20\n      add\n      dup3\n      dup1\n      sload\n      tag_197\n      swap1\n      tag_117\n      jump\t// in\n    tag_197:\n      dup1\n      iszero\n      tag_198\n      jumpi\n      dup1\n      0x1f\n      lt\n      tag_199\n      jumpi\n      0x0100\n      dup1\n      dup4\n      sload\n      div\n      mul\n      dup4\n      mstore\n      swap2\n      0x20\n      add\n      swap2\n      jump(tag_198)\n    tag_199:\n      dup3\n      add\n      swap2\n      swap1\n      0x00\n      mstore\n      keccak256(0x00, 0x20)\n      swap1\n    tag_200:\n      dup2\n      sload\n      dup2\n      mstore\n      swap1\n      0x01\n      add\n      swap1\n      0x20\n      add\n      dup1\n      dup4\n      gt\n      tag_200\n      jumpi\n      dup3\n      swap1\n      sub\n      0x1f\n      and\n      dup3\n      add\n      swap2\n    tag_198:\n      pop\n      pop\n      pop\n      pop\n      pop\n      dup2\n      mstore\n      0x20\n      add\n      swap1\n      0x01\n      add\n      swap1\n      jump(tag_193)\n    tag_194:\n      pop\n      pop\n      pop\n      pop\n      dup2\n      mstore\n      pop\n      pop\n      swap1\n      dup1\n      0x12\n      add\n      mload(0x40)\n      dup1\n      0x40\n      add\n      0x40\n      mstore\n      swap1\n      dup2\n      0x00\n      dup3\n      add\n      dup1\n      sload\n      dup1\n      0x20\n      mul\n      0x20\n      add\n      mload(0x40)\n      swap1\n      dup2\n      add\n      0x40\n      mstore\n      dup1\n      swap3\n      swap2\n      swap1\n      dup2\n      dup2\n      mstore\n      0x20\n      add\n      0x00\n      swap1\n    tag_201:\n      dup3\n      dup3\n      lt\n      iszero\n      tag_202\n      jumpi\n      dup4\n      dup3\n      swap1\n      0x00\n      mstore\n      keccak256(0x00, 0x20)\n      add\n      dup1\n      sload\n      tag_204\n      swap1\n      tag_117\n      jump\t// in\n    tag_204:\n      dup1\n      0x1f\n      add\n      0x20\n      dup1\n      swap2\n      div\n      mul\n      0x20\n      add\n      mload(0x40)\n      swap1\n      dup2\n      add\n      0x40\n      mstore\n      dup1\n      swap3\n      swap2\n      swap1\n      dup2\n      dup2\n      mstore\n      0x20\n      add\n      dup3\n      dup1\n      sload\n      tag_205\n      swap1\n      tag_117\n      jump\t// in\n    tag_205:\n      dup1\n      iszero\n      tag_206\n      jumpi\n      dup1\n      0x1f\n      lt\n      tag_207\n      jumpi\n      0x0100\n      dup1\n      dup4\n      sload\n      div\n      mul\n      dup4\n      mstore\n      swap2\n      0x20\n      add\n      swap2\n      jump(tag_206)\n    tag_207:\n      dup3\n      add\n      swap2\n      swap1\n      0x00\n      mstore\n      keccak256(0x00, 0x20)\n      swap1\n    tag_208:\n      dup2\n      sload\n      dup2\n      mstore\n      swap1\n      0x01\n      add\n      swap1\n      0x20\n      add\n      dup1\n      dup4\n      gt\n      tag_208\n      jumpi\n      dup3\n      swap1\n      sub\n      0x1f\n      and\n      dup3\n      add\n      swap2\n    tag_206:\n      pop\n      pop\n      pop\n      pop\n      pop\n      dup2\n      mstore\n      0x20\n      add\n      swap1\n      0x01\n      add\n      swap1\n      jump(tag_201)\n    tag_202:\n      pop\n      pop\n      pop\n      pop\n      dup2\n      mstore\n      0x20\n      add\n      0x01\n      dup3\n      add\n      dup1\n      sload\n      dup1\n      0x20\n      mul\n      0x20\n      add\n      mload(0x40)\n      swap1\n      dup2\n      add\n      0x40\n      mstore\n      dup1\n      swap3\n      swap2\n      swap1\n      dup2\n      dup2\n      mstore\n      0x20\n      add\n      0x00\n      swap1\n    tag_209:\n      dup3\n      dup3\n      lt\n      iszero\n      tag_210\n      jumpi\n      dup4\n      dup3\n      swap1\n      0x00\n      mstore\n      keccak256(0x00, 0x20)\n      add\n      dup1\n      sload\n      tag_212\n      swap1\n      tag_117\n      jump\t// in\n    tag_212:\n      dup1\n      0x1f\n      add\n      0x20\n      dup1\n      swap2\n      div\n      mul\n      0x20\n      add\n      mload(0x40)\n      swap1\n      dup2\n      add\n      0x40\n      mstore\n      dup1\n      swap3\n      swap2\n      swap1\n      dup2\n      dup2\n      mstore\n      0x20\n      add\n      dup3\n      dup1\n      sload\n      tag_213\n      swap1\n      tag_117\n      jump\t// in\n    tag_213:\n      dup1\n      iszero\n      tag_214\n      jumpi\n      dup1\n      0x1f\n      lt\n      tag_215\n      jumpi\n      0x0100\n      dup1\n      dup4\n      sload\n      div\n      mul\n      dup4\n      mstore\n      swap2\n      0x20\n      add\n      swap2\n      jump(tag_214)\n    tag_215:\n      dup3\n      add\n      swap2\n      swap1\n      0x00\n      mstore\n      keccak256(0x00, 0x20)\n      swap1\n    tag_216:\n      dup2\n      sload\n      dup2\n      mstore\n      swap1\n      0x01\n      add\n      swap1\n      0x20\n      add\n      dup1\n      dup4\n      gt\n      tag_216\n      jumpi\n      dup3\n      swap1\n      sub\n      0x1f\n      and\n      dup3\n      add\n      swap2\n    tag_214:\n      pop\n      pop\n      pop\n      pop\n      pop\n      dup2\n      mstore\n      0x20\n      add\n      swap1\n      0x01\n      add\n      swap1\n      jump(tag_209)\n    tag_210:\n      pop\n      pop\n      pop\n      pop\n      dup2\n      mstore\n      pop\n      pop\n      swap1\n      pop\n      dup5\n      jump\t// out\n        /* \"contracts/Profile.sol\":4183:4330  function createCertificate(string[] memory certificate) public {\r... */\n    tag_53:\n        /* \"contracts/Profile.sol\":4311:4322  certificate */\n      dup1\n        /* \"contracts/Profile.sol\":4257:4264  profile */\n      0x00\n        /* \"contracts/Profile.sol\":4257:4276  profile[msg.sender] */\n      dup1\n        /* \"contracts/Profile.sol\":4265:4275  msg.sender */\n      caller\n        /* \"contracts/Profile.sol\":4257:4276  profile[msg.sender] */\n      0xffffffffffffffffffffffffffffffffffffffff\n      and\n      0xffffffffffffffffffffffffffffffffffffffff\n      and\n      dup2\n      mstore\n      0x20\n      add\n      swap1\n      dup2\n      mstore\n      0x20\n      add\n      0x00\n      keccak256\n        /* \"contracts/Profile.sol\":4257:4296  profile[msg.sender].CertificateAndAward */\n      0x12\n      add\n        /* \"contracts/Profile.sol\":4257:4308  profile[msg.sender].CertificateAndAward.certificate */\n      0x00\n      add\n        /* \"contracts/Profile.sol\":4257:4322  profile[msg.sender].CertificateAndAward.certificate = certificate */\n      swap1\n      dup1\n      mload\n      swap1\n      0x20\n      add\n      swap1\n      tag_218\n      swap3\n      swap2\n      swap1\n      tag_70\n      jump\t// in\n    tag_218:\n      pop\n        /* \"contracts/Profile.sol\":4183:4330  function createCertificate(string[] memory certificate) public {\r... */\n      pop\n      jump\t// out\n        /* \"contracts/Profile.sol\":4348:4440  function delAllEducation() external  {\r... */\n    tag_55:\n        /* \"contracts/Profile.sol\":4403:4410  profile */\n      0x00\n        /* \"contracts/Profile.sol\":4403:4422  profile[msg.sender] */\n      dup1\n        /* \"contracts/Profile.sol\":4411:4421  msg.sender */\n      caller\n        /* \"contracts/Profile.sol\":4403:4422  profile[msg.sender] */\n      0xffffffffffffffffffffffffffffffffffffffff\n      and\n      0xffffffffffffffffffffffffffffffffffffffff\n      and\n      dup2\n      mstore\n      0x20\n      add\n      swap1\n      dup2\n      mstore\n      0x20\n      add\n      0x00\n      keccak256\n        /* \"contracts/Profile.sol\":4403:4432  profile[msg.sender].education */\n      0x11\n      add\n      0x00\n        /* \"contracts/Profile.sol\":4396:4432  delete profile[msg.sender].education */\n      tag_220\n      swap2\n      swap1\n      tag_221\n      jump\t// in\n    tag_220:\n        /* \"contracts/Profile.sol\":4348:4440  function delAllEducation() external  {\r... */\n      jump\t// out\n        /* \"contracts/Profile.sol\":3525:3918  function getEducation(uint index) public view returns(string memory, string memory, string memory, string memory, string memory) {\r... */\n    tag_59:\n        /* \"contracts/Profile.sol\":3579:3592  string memory */\n      0x60\n        /* \"contracts/Profile.sol\":3594:3607  string memory */\n      dup1\n        /* \"contracts/Profile.sol\":3609:3622  string memory */\n      0x60\n        /* \"contracts/Profile.sol\":3624:3637  string memory */\n      dup1\n        /* \"contracts/Profile.sol\":3639:3652  string memory */\n      0x60\n        /* \"contracts/Profile.sol\":3673:3680  profile */\n      0x00\n        /* \"contracts/Profile.sol\":3673:3692  profile[msg.sender] */\n      dup1\n        /* \"contracts/Profile.sol\":3681:3691  msg.sender */\n      caller\n        /* \"contracts/Profile.sol\":3673:3692  profile[msg.sender] */\n      0xffffffffffffffffffffffffffffffffffffffff\n      and\n      0xffffffffffffffffffffffffffffffffffffffff\n      and\n      dup2\n      mstore\n      0x20\n      add\n      swap1\n      dup2\n      mstore\n      0x20\n      add\n      0x00\n      keccak256\n        /* \"contracts/Profile.sol\":3673:3702  profile[msg.sender].education */\n      0x11\n      add\n        /* \"contracts/Profile.sol\":3703:3708  index */\n      dup7\n        /* \"contracts/Profile.sol\":3673:3709  profile[msg.sender].education[index] */\n      dup2\n      sload\n      dup2\n      lt\n      tag_223\n      jumpi\n      tag_224\n      tag_225\n      jump\t// in\n    tag_224:\n    tag_223:\n      swap1\n      0x00\n      mstore\n      keccak256(0x00, 0x20)\n      swap1\n      0x05\n      mul\n      add\n        /* \"contracts/Profile.sol\":3673:3719  profile[msg.sender].education[index].startDate */\n      0x00\n      add\n        /* \"contracts/Profile.sol\":3721:3728  profile */\n      0x00\n        /* \"contracts/Profile.sol\":3721:3740  profile[msg.sender] */\n      dup1\n        /* \"contracts/Profile.sol\":3729:3739  msg.sender */\n      caller\n        /* \"contracts/Profile.sol\":3721:3740  profile[msg.sender] */\n      0xffffffffffffffffffffffffffffffffffffffff\n      and\n      0xffffffffffffffffffffffffffffffffffffffff\n      and\n      dup2\n      mstore\n      0x20\n      add\n      swap1\n      dup2\n      mstore\n      0x20\n      add\n      0x00\n      keccak256\n        /* \"contracts/Profile.sol\":3721:3750  profile[msg.sender].education */\n      0x11\n      add\n        /* \"contracts/Profile.sol\":3751:3756  index */\n      dup8\n        /* \"contracts/Profile.sol\":3721:3757  profile[msg.sender].education[index] */\n      dup2\n      sload\n      dup2\n      lt\n      tag_227\n      jumpi\n      tag_228\n      tag_225\n      jump\t// in\n    tag_228:\n    tag_227:\n      swap1\n      0x00\n      mstore\n      keccak256(0x00, 0x20)\n      swap1\n      0x05\n      mul\n      add\n        /* \"contracts/Profile.sol\":3721:3765  profile[msg.sender].education[index].endDate */\n      0x01\n      add\n        /* \"contracts/Profile.sol\":3767:3774  profile */\n      0x00\n        /* \"contracts/Profile.sol\":3767:3786  profile[msg.sender] */\n      dup1\n        /* \"contracts/Profile.sol\":3775:3785  msg.sender */\n      caller\n        /* \"contracts/Profile.sol\":3767:3786  profile[msg.sender] */\n      0xffffffffffffffffffffffffffffffffffffffff\n      and\n      0xffffffffffffffffffffffffffffffffffffffff\n      and\n      dup2\n      mstore\n      0x20\n      add\n      swap1\n      dup2\n      mstore\n      0x20\n      add\n      0x00\n      keccak256\n        /* \"contracts/Profile.sol\":3767:3796  profile[msg.sender].education */\n      0x11\n      add\n        /* \"contracts/Profile.sol\":3797:3802  index */\n      dup9\n        /* \"contracts/Profile.sol\":3767:3803  profile[msg.sender].education[index] */\n      dup2\n      sload\n      dup2\n      lt\n      tag_230\n      jumpi\n      tag_231\n      tag_225\n      jump\t// in\n    tag_231:\n    tag_230:\n      swap1\n      0x00\n      mstore\n      keccak256(0x00, 0x20)\n      swap1\n      0x05\n      mul\n      add\n        /* \"contracts/Profile.sol\":3767:3814  profile[msg.sender].education[index].univercity */\n      0x02\n      add\n        /* \"contracts/Profile.sol\":3816:3823  profile */\n      0x00\n        /* \"contracts/Profile.sol\":3816:3835  profile[msg.sender] */\n      dup1\n        /* \"contracts/Profile.sol\":3824:3834  msg.sender */\n      caller\n        /* \"contracts/Profile.sol\":3816:3835  profile[msg.sender] */\n      0xffffffffffffffffffffffffffffffffffffffff\n      and\n      0xffffffffffffffffffffffffffffffffffffffff\n      and\n      dup2\n      mstore\n      0x20\n      add\n      swap1\n      dup2\n      mstore\n      0x20\n      add\n      0x00\n      keccak256\n        /* \"contracts/Profile.sol\":3816:3845  profile[msg.sender].education */\n      0x11\n      add\n        /* \"contracts/Profile.sol\":3846:3851  index */\n      dup10\n        /* \"contracts/Profile.sol\":3816:3852  profile[msg.sender].education[index] */\n      dup2\n      sload\n      dup2\n      lt\n      tag_233\n      jumpi\n      tag_234\n      tag_225\n      jump\t// in\n    tag_234:\n    tag_233:\n      swap1\n      0x00\n      mstore\n      keccak256(0x00, 0x20)\n      swap1\n      0x05\n      mul\n      add\n        /* \"contracts/Profile.sol\":3816:3858  profile[msg.sender].education[index].major */\n      0x03\n      add\n        /* \"contracts/Profile.sol\":3860:3867  profile */\n      0x00\n        /* \"contracts/Profile.sol\":3860:3879  profile[msg.sender] */\n      dup1\n        /* \"contracts/Profile.sol\":3868:3878  msg.sender */\n      caller\n        /* \"contracts/Profile.sol\":3860:3879  profile[msg.sender] */\n      0xffffffffffffffffffffffffffffffffffffffff\n      and\n      0xffffffffffffffffffffffffffffffffffffffff\n      and\n      dup2\n      mstore\n      0x20\n      add\n      swap1\n      dup2\n      mstore\n      0x20\n      add\n      0x00\n      keccak256\n        /* \"contracts/Profile.sol\":3860:3889  profile[msg.sender].education */\n      0x11\n      add\n        /* \"contracts/Profile.sol\":3890:3895  index */\n      dup11\n        /* \"contracts/Profile.sol\":3860:3896  profile[msg.sender].education[index] */\n      dup2\n      sload\n      dup2\n      lt\n      tag_236\n      jumpi\n      tag_237\n      tag_225\n      jump\t// in\n    tag_237:\n    tag_236:\n      swap1\n      0x00\n      mstore\n      keccak256(0x00, 0x20)\n      swap1\n      0x05\n      mul\n      add\n        /* \"contracts/Profile.sol\":3860:3909  profile[msg.sender].education[index].finalProject */\n      0x04\n      add\n        /* \"contracts/Profile.sol\":3665:3910  return (profile[msg.sender].education[index].startDate, profile[msg.sender].education[index].endDate, profile[msg.sender].education[index].univercity, profile[msg.sender].education[index].major, profile[msg.sender].education[index].finalProject) */\n      dup5\n      dup1\n      sload\n      tag_239\n      swap1\n      tag_117\n      jump\t// in\n    tag_239:\n      dup1\n      0x1f\n      add\n      0x20\n      dup1\n      swap2\n      div\n      mul\n      0x20\n      add\n      mload(0x40)\n      swap1\n      dup2\n      add\n      0x40\n      mstore\n      dup1\n      swap3\n      swap2\n      swap1\n      dup2\n      dup2\n      mstore\n      0x20\n      add\n      dup3\n      dup1\n      sload\n      tag_240\n      swap1\n      tag_117\n      jump\t// in\n    tag_240:\n      dup1\n      iszero\n      tag_241\n      jumpi\n      dup1\n      0x1f\n      lt\n      tag_242\n      jumpi\n      0x0100\n      dup1\n      dup4\n      sload\n      div\n      mul\n      dup4\n      mstore\n      swap2\n      0x20\n      add\n      swap2\n      jump(tag_241)\n    tag_242:\n      dup3\n      add\n      swap2\n      swap1\n      0x00\n      mstore\n      keccak256(0x00, 0x20)\n      swap1\n    tag_243:\n      dup2\n      sload\n      dup2\n      mstore\n      swap1\n      0x01\n      add\n      swap1\n      0x20\n      add\n      dup1\n      dup4\n      gt\n      tag_243\n      jumpi\n      dup3\n      swap1\n      sub\n      0x1f\n      and\n      dup3\n      add\n      swap2\n    tag_241:\n      pop\n      pop\n      pop\n      pop\n      pop\n      swap5\n      pop\n      dup4\n      dup1\n      sload\n      tag_244\n      swap1\n      tag_117\n      jump\t// in\n    tag_244:\n      dup1\n      0x1f\n      add\n      0x20\n      dup1\n      swap2\n      div\n      mul\n      0x20\n      add\n      mload(0x40)\n      swap1\n      dup2\n      add\n      0x40\n      mstore\n      dup1\n      swap3\n      swap2\n      swap1\n      dup2\n      dup2\n      mstore\n      0x20\n      add\n      dup3\n      dup1\n      sload\n      tag_245\n      swap1\n      tag_117\n      jump\t// in\n    tag_245:\n      dup1\n      iszero\n      tag_246\n      jumpi\n      dup1\n      0x1f\n      lt\n      tag_247\n      jumpi\n      0x0100\n      dup1\n      dup4\n      sload\n      div\n      mul\n      dup4\n      mstore\n      swap2\n      0x20\n      add\n      swap2\n      jump(tag_246)\n    tag_247:\n      dup3\n      add\n      swap2\n      swap1\n      0x00\n      mstore\n      keccak256(0x00, 0x20)\n      swap1\n    tag_248:\n      dup2\n      sload\n      dup2\n      mstore\n      swap1\n      0x01\n      add\n      swap1\n      0x20\n      add\n      dup1\n      dup4\n      gt\n      tag_248\n      jumpi\n      dup3\n      swap1\n      sub\n      0x1f\n      and\n      dup3\n      add\n      swap2\n    tag_246:\n      pop\n      pop\n      pop\n      pop\n      pop\n      swap4\n      pop\n      dup3\n      dup1\n      sload\n      tag_249\n      swap1\n      tag_117\n      jump\t// in\n    tag_249:\n      dup1\n      0x1f\n      add\n      0x20\n      dup1\n      swap2\n      div\n      mul\n      0x20\n      add\n      mload(0x40)\n      swap1\n      dup2\n      add\n      0x40\n      mstore\n      dup1\n      swap3\n      swap2\n      swap1\n      dup2\n      dup2\n      mstore\n      0x20\n      add\n      dup3\n      dup1\n      sload\n      tag_250\n      swap1\n      tag_117\n      jump\t// in\n    tag_250:\n      dup1\n      iszero\n      tag_251\n      jumpi\n      dup1\n      0x1f\n      lt\n      tag_252\n      jumpi\n      0x0100\n      dup1\n      dup4\n      sload\n      div\n      mul\n      dup4\n      mstore\n      swap2\n      0x20\n      add\n      swap2\n      jump(tag_251)\n    tag_252:\n      dup3\n      add\n      swap2\n      swap1\n      0x00\n      mstore\n      keccak256(0x00, 0x20)\n      swap1\n    tag_253:\n      dup2\n      sload\n      dup2\n      mstore\n      swap1\n      0x01\n      add\n      swap1\n      0x20\n      add\n      dup1\n      dup4\n      gt\n      tag_253\n      jumpi\n      dup3\n      swap1\n      sub\n      0x1f\n      and\n      dup3\n      add\n      swap2\n    tag_251:\n      pop\n      pop\n      pop\n      pop\n      pop\n      swap3\n      pop\n      dup2\n      dup1\n      sload\n      tag_254\n      swap1\n      tag_117\n      jump\t// in\n    tag_254:\n      dup1\n      0x1f\n      add\n      0x20\n      dup1\n      swap2\n      div\n      mul\n      0x20\n      add\n      mload(0x40)\n      swap1\n      dup2\n      add\n      0x40\n      mstore\n      dup1\n      swap3\n      swap2\n      swap1\n      dup2\n      dup2\n      mstore\n      0x20\n      add\n      dup3\n      dup1\n      sload\n      tag_255\n      swap1\n      tag_117\n      jump\t// in\n    tag_255:\n      dup1\n      iszero\n      tag_256\n      jumpi\n      dup1\n      0x1f\n      lt\n      tag_257\n      jumpi\n      0x0100\n      dup1\n      dup4\n      sload\n      div\n      mul\n      dup4\n      mstore\n      swap2\n      0x20\n      add\n      swap2\n      jump(tag_256)\n    tag_257:\n      dup3\n      add\n      swap2\n      swap1\n      0x00\n      mstore\n      keccak256(0x00, 0x20)\n      swap1\n    tag_258:\n      dup2\n      sload\n      dup2\n      mstore\n      swap1\n      0x01\n      add\n      swap1\n      0x20\n      add\n      dup1\n      dup4\n      gt\n      tag_258\n      jumpi\n      dup3\n      swap1\n      sub\n      0x1f\n      and\n      dup3\n      add\n      swap2\n    tag_256:\n      pop\n      pop\n      pop\n      pop\n      pop\n      swap2\n      pop\n      dup1\n      dup1\n      sload\n      tag_259\n      swap1\n      tag_117\n      jump\t// in\n    tag_259:\n      dup1\n      0x1f\n      add\n      0x20\n      dup1\n      swap2\n      div\n      mul\n      0x20\n      add\n      mload(0x40)\n      swap1\n      dup2\n      add\n      0x40\n      mstore\n      dup1\n      swap3\n      swap2\n      swap1\n      dup2\n      dup2\n      mstore\n      0x20\n      add\n      dup3\n      dup1\n      sload\n      tag_260\n      swap1\n      tag_117\n      jump\t// in\n    tag_260:\n      dup1\n      iszero\n      tag_261\n      jumpi\n      dup1\n      0x1f\n      lt\n      tag_262\n      jumpi\n      0x0100\n      dup1\n      dup4\n      sload\n      div\n      mul\n      dup4\n      mstore\n      swap2\n      0x20\n      add\n      swap2\n      jump(tag_261)\n    tag_262:\n      dup3\n      add\n      swap2\n      swap1\n      0x00\n      mstore\n      keccak256(0x00, 0x20)\n      swap1\n    tag_263:\n      dup2\n      sload\n      dup2\n      mstore\n      swap1\n      0x01\n      add\n      swap1\n      0x20\n      add\n      dup1\n      dup4\n      gt\n      tag_263\n      jumpi\n      dup3\n      swap1\n      sub\n      0x1f\n      and\n      dup3\n      add\n      swap2\n    tag_261:\n      pop\n      pop\n      pop\n      pop\n      pop\n      swap1\n      pop\n      swap5\n      pop\n      swap5\n      pop\n      swap5\n      pop\n      swap5\n      pop\n      swap5\n      pop\n        /* \"contracts/Profile.sol\":3525:3918  function getEducation(uint index) public view returns(string memory, string memory, string memory, string memory, string memory) {\r... */\n      swap2\n      swap4\n      swap6\n      swap1\n      swap3\n      swap5\n      pop\n      jump\t// out\n        /* \"contracts/Profile.sol\":4548:4624  function delProfile() external {\r... */\n    tag_63:\n        /* \"contracts/Profile.sol\":4597:4604  profile */\n      0x00\n        /* \"contracts/Profile.sol\":4597:4616  profile[msg.sender] */\n      dup1\n        /* \"contracts/Profile.sol\":4605:4615  msg.sender */\n      caller\n        /* \"contracts/Profile.sol\":4597:4616  profile[msg.sender] */\n      0xffffffffffffffffffffffffffffffffffffffff\n      and\n      0xffffffffffffffffffffffffffffffffffffffff\n      and\n      dup2\n      mstore\n      0x20\n      add\n      swap1\n      dup2\n      mstore\n      0x20\n      add\n      0x00\n      keccak256\n      0x00\n        /* \"contracts/Profile.sol\":4590:4616  delete profile[msg.sender] */\n      dup1\n      dup3\n      add\n      0x00\n      dup1\n      dup3\n      add\n      0x00\n      tag_265\n      swap2\n      swap1\n      tag_89\n      jump\t// in\n    tag_265:\n      0x01\n      dup3\n      add\n      0x00\n      tag_266\n      swap2\n      swap1\n      tag_89\n      jump\t// in\n    tag_266:\n      0x02\n      dup3\n      add\n      exp(0x0100, 0x00)\n      dup2\n      sload\n      swap1\n      0xffffffffffffffffffffffffffffffffffffffff\n      mul\n      not\n      and\n      swap1\n      sstore\n      0x03\n      dup3\n      add\n      0x00\n      tag_267\n      swap2\n      swap1\n      tag_89\n      jump\t// in\n    tag_267:\n      0x04\n      dup3\n      add\n      0x00\n      tag_268\n      swap2\n      swap1\n      tag_89\n      jump\t// in\n    tag_268:\n      0x05\n      dup3\n      add\n      0x00\n      tag_269\n      swap2\n      swap1\n      tag_89\n      jump\t// in\n    tag_269:\n      0x06\n      dup3\n      add\n      0x00\n      tag_270\n      swap2\n      swap1\n      tag_89\n      jump\t// in\n    tag_270:\n      0x07\n      dup3\n      add\n      0x00\n      swap1\n      sstore\n      pop\n      pop\n      0x08\n      dup3\n      add\n      0x00\n      dup1\n      dup3\n      add\n      0x00\n      tag_271\n      swap2\n      swap1\n      tag_89\n      jump\t// in\n    tag_271:\n      0x01\n      dup3\n      add\n      0x00\n      tag_272\n      swap2\n      swap1\n      tag_89\n      jump\t// in\n    tag_272:\n      0x02\n      dup3\n      add\n      0x00\n      tag_273\n      swap2\n      swap1\n      tag_89\n      jump\t// in\n    tag_273:\n      0x03\n      dup3\n      add\n      0x00\n      tag_274\n      swap2\n      swap1\n      tag_89\n      jump\t// in\n    tag_274:\n      0x04\n      dup3\n      add\n      0x00\n      tag_275\n      swap2\n      swap1\n      tag_89\n      jump\t// in\n    tag_275:\n      0x05\n      dup3\n      add\n      0x00\n      tag_276\n      swap2\n      swap1\n      tag_89\n      jump\t// in\n    tag_276:\n      pop\n      pop\n      0x0e\n      dup3\n      add\n      0x00\n      dup1\n      dup3\n      add\n      0x00\n      tag_277\n      swap2\n      swap1\n      tag_66\n      jump\t// in\n    tag_277:\n      0x01\n      dup3\n      add\n      0x00\n      tag_278\n      swap2\n      swap1\n      tag_66\n      jump\t// in\n    tag_278:\n      0x02\n      dup3\n      add\n      0x00\n      tag_279\n      swap2\n      swap1\n      tag_66\n      jump\t// in\n    tag_279:\n      pop\n      pop\n      0x11\n      dup3\n      add\n      0x00\n      tag_280\n      swap2\n      swap1\n      tag_221\n      jump\t// in\n    tag_280:\n      0x12\n      dup3\n      add\n      0x00\n      dup1\n      dup3\n      add\n      0x00\n      tag_281\n      swap2\n      swap1\n      tag_66\n      jump\t// in\n    tag_281:\n      0x01\n      dup3\n      add\n      0x00\n      tag_282\n      swap2\n      swap1\n      tag_66\n      jump\t// in\n    tag_282:\n      pop\n      pop\n      pop\n      pop\n        /* \"contracts/Profile.sol\":4548:4624  function delProfile() external {\r... */\n      jump\t// out\n    tag_66:\n      pop\n      dup1\n      sload\n      0x00\n      dup3\n      sstore\n      swap1\n      0x00\n      mstore\n      keccak256(0x00, 0x20)\n      swap1\n      dup2\n      add\n      swap1\n      tag_284\n      swap2\n      swap1\n      tag_285\n      jump\t// in\n    tag_284:\n      pop\n      jump\t// out\n    tag_70:\n      dup3\n      dup1\n      sload\n      dup3\n      dup3\n      sstore\n      swap1\n      0x00\n      mstore\n      keccak256(0x00, 0x20)\n      swap1\n      dup2\n      add\n      swap3\n      dup3\n      iszero\n      tag_286\n      jumpi\n      swap2\n      0x20\n      mul\n      dup3\n      add\n    tag_287:\n      dup3\n      dup2\n      gt\n      iszero\n      tag_288\n      jumpi\n      dup3\n      mload\n      dup3\n      swap1\n      dup1\n      mload\n      swap1\n      0x20\n      add\n      swap1\n      tag_289\n      swap3\n      swap2\n      swap1\n      tag_82\n      jump\t// in\n    tag_289:\n      pop\n      swap2\n      0x20\n      add\n      swap2\n      swap1\n      0x01\n      add\n      swap1\n      jump(tag_287)\n    tag_288:\n    tag_286:\n      pop\n      swap1\n      pop\n      tag_290\n      swap2\n      swap1\n      tag_285\n      jump\t// in\n    tag_290:\n      pop\n      swap1\n      jump\t// out\n    tag_79:\n      mload(0x40)\n      dup1\n      0xa0\n      add\n      0x40\n      mstore\n      dup1\n      0x60\n      dup2\n      mstore\n      0x20\n      add\n      0x60\n      dup2\n      mstore\n      0x20\n      add\n      0x60\n      dup2\n      mstore\n      0x20\n      add\n      0x60\n      dup2\n      mstore\n      0x20\n      add\n      0x60\n      dup2\n      mstore\n      pop\n      swap1\n      jump\t// out\n    tag_82:\n      dup3\n      dup1\n      sload\n      tag_291\n      swap1\n      tag_117\n      jump\t// in\n    tag_291:\n      swap1\n      0x00\n      mstore\n      keccak256(0x00, 0x20)\n      swap1\n      0x1f\n      add\n      0x20\n      swap1\n      div\n      dup2\n      add\n      swap3\n      dup3\n      tag_293\n      jumpi\n      0x00\n      dup6\n      sstore\n      jump(tag_292)\n    tag_293:\n      dup3\n      0x1f\n      lt\n      tag_294\n      jumpi\n      dup1\n      mload\n      not(0xff)\n      and\n      dup4\n      dup1\n      add\n      or\n      dup6\n      sstore\n      jump(tag_292)\n    tag_294:\n      dup3\n      dup1\n      add\n      0x01\n      add\n      dup6\n      sstore\n      dup3\n      iszero\n      tag_292\n      jumpi\n      swap2\n      dup3\n      add\n    tag_295:\n      dup3\n      dup2\n      gt\n      iszero\n      tag_296\n      jumpi\n      dup3\n      mload\n      dup3\n      sstore\n      swap2\n      0x20\n      add\n      swap2\n      swap1\n      0x01\n      add\n      swap1\n      jump(tag_295)\n    tag_296:\n    tag_292:\n      pop\n      swap1\n      pop\n      tag_297\n      swap2\n      swap1\n      tag_298\n      jump\t// in\n    tag_297:\n      pop\n      swap1\n      jump\t// out\n    tag_89:\n      pop\n      dup1\n      sload\n      tag_299\n      swap1\n      tag_117\n      jump\t// in\n    tag_299:\n      0x00\n      dup3\n      sstore\n      dup1\n      0x1f\n      lt\n      tag_301\n      jumpi\n      pop\n      jump(tag_300)\n    tag_301:\n      0x1f\n      add\n      0x20\n      swap1\n      div\n      swap1\n      0x00\n      mstore\n      keccak256(0x00, 0x20)\n      swap1\n      dup2\n      add\n      swap1\n      tag_302\n      swap2\n      swap1\n      tag_298\n      jump\t// in\n    tag_302:\n    tag_300:\n      pop\n      jump\t// out\n    tag_221:\n      pop\n      dup1\n      sload\n      0x00\n      dup3\n      sstore\n      0x05\n      mul\n      swap1\n      0x00\n      mstore\n      keccak256(0x00, 0x20)\n      swap1\n      dup2\n      add\n      swap1\n      tag_304\n      swap2\n      swap1\n      tag_305\n      jump\t// in\n    tag_304:\n      pop\n      jump\t// out\n    tag_285:\n    tag_306:\n      dup1\n      dup3\n      gt\n      iszero\n      tag_307\n      jumpi\n      0x00\n      dup2\n      dup2\n      tag_308\n      swap2\n      swap1\n      tag_89\n      jump\t// in\n    tag_308:\n      pop\n      0x01\n      add\n      jump(tag_306)\n    tag_307:\n      pop\n      swap1\n      jump\t// out\n    tag_298:\n    tag_309:\n      dup1\n      dup3\n      gt\n      iszero\n      tag_310\n      jumpi\n      0x00\n      dup2\n      0x00\n      swap1\n      sstore\n      pop\n      0x01\n      add\n      jump(tag_309)\n    tag_310:\n      pop\n      swap1\n      jump\t// out\n    tag_305:\n    tag_311:\n      dup1\n      dup3\n      gt\n      iszero\n      tag_312\n      jumpi\n      0x00\n      dup1\n      dup3\n      add\n      0x00\n      tag_313\n      swap2\n      swap1\n      tag_89\n      jump\t// in\n    tag_313:\n      0x01\n      dup3\n      add\n      0x00\n      tag_314\n      swap2\n      swap1\n      tag_89\n      jump\t// in\n    tag_314:\n      0x02\n      dup3\n      add\n      0x00\n      tag_315\n      swap2\n      swap1\n      tag_89\n      jump\t// in\n    tag_315:\n      0x03\n      dup3\n      add\n      0x00\n      tag_316\n      swap2\n      swap1\n      tag_89\n      jump\t// in\n    tag_316:\n      0x04\n      dup3\n      add\n      0x00\n      tag_317\n      swap2\n      swap1\n      tag_89\n      jump\t// in\n    tag_317:\n      pop\n      0x05\n      add\n      jump(tag_311)\n    tag_312:\n      pop\n      swap1\n      jump\t// out\n        /* \"#utility.yul\":23:980   */\n    tag_319:\n        /* \"#utility.yul\":129:134   */\n      0x00\n        /* \"#utility.yul\":154:245   */\n      tag_321\n        /* \"#utility.yul\":170:244   */\n      tag_322\n        /* \"#utility.yul\":237:243   */\n      dup5\n        /* \"#utility.yul\":170:244   */\n      tag_323\n      jump\t// in\n    tag_322:\n        /* \"#utility.yul\":154:245   */\n      tag_324\n      jump\t// in\n    tag_321:\n        /* \"#utility.yul\":145:245   */\n      swap1\n      pop\n        /* \"#utility.yul\":265:270   */\n      dup1\n        /* \"#utility.yul\":294:300   */\n      dup4\n        /* \"#utility.yul\":287:292   */\n      dup3\n        /* \"#utility.yul\":280:301   */\n      mstore\n        /* \"#utility.yul\":328:332   */\n      0x20\n        /* \"#utility.yul\":321:326   */\n      dup3\n        /* \"#utility.yul\":317:333   */\n      add\n        /* \"#utility.yul\":310:333   */\n      swap1\n      pop\n        /* \"#utility.yul\":354:360   */\n      dup3\n        /* \"#utility.yul\":404:407   */\n      dup6\n        /* \"#utility.yul\":396:400   */\n      0x20\n        /* \"#utility.yul\":388:394   */\n      dup7\n        /* \"#utility.yul\":384:401   */\n      mul\n        /* \"#utility.yul\":379:382   */\n      dup3\n        /* \"#utility.yul\":375:402   */\n      add\n        /* \"#utility.yul\":372:408   */\n      gt\n        /* \"#utility.yul\":369:512   */\n      iszero\n      tag_325\n      jumpi\n        /* \"#utility.yul\":423:502   */\n      tag_326\n      tag_327\n      jump\t// in\n    tag_326:\n        /* \"#utility.yul\":369:512   */\n    tag_325:\n        /* \"#utility.yul\":536:537   */\n      0x00\n        /* \"#utility.yul\":521:974   */\n    tag_328:\n        /* \"#utility.yul\":546:552   */\n      dup6\n        /* \"#utility.yul\":543:544   */\n      dup2\n        /* \"#utility.yul\":540:553   */\n      lt\n        /* \"#utility.yul\":521:974   */\n      iszero\n      tag_330\n      jumpi\n        /* \"#utility.yul\":628:631   */\n      dup2\n        /* \"#utility.yul\":615:632   */\n      calldataload\n        /* \"#utility.yul\":664:682   */\n      0xffffffffffffffff\n        /* \"#utility.yul\":651:662   */\n      dup2\n        /* \"#utility.yul\":648:683   */\n      gt\n        /* \"#utility.yul\":645:767   */\n      iszero\n      tag_331\n      jumpi\n        /* \"#utility.yul\":686:765   */\n      tag_332\n      tag_333\n      jump\t// in\n    tag_332:\n        /* \"#utility.yul\":645:767   */\n    tag_331:\n        /* \"#utility.yul\":810:821   */\n      dup1\n        /* \"#utility.yul\":802:808   */\n      dup7\n        /* \"#utility.yul\":798:822   */\n      add\n        /* \"#utility.yul\":848:895   */\n      tag_334\n        /* \"#utility.yul\":891:894   */\n      dup10\n        /* \"#utility.yul\":879:889   */\n      dup3\n        /* \"#utility.yul\":848:895   */\n      tag_335\n      jump\t// in\n    tag_334:\n        /* \"#utility.yul\":843:846   */\n      dup6\n        /* \"#utility.yul\":836:896   */\n      mstore\n        /* \"#utility.yul\":925:929   */\n      0x20\n        /* \"#utility.yul\":920:923   */\n      dup6\n        /* \"#utility.yul\":916:930   */\n      add\n        /* \"#utility.yul\":909:930   */\n      swap5\n      pop\n        /* \"#utility.yul\":959:963   */\n      0x20\n        /* \"#utility.yul\":954:957   */\n      dup5\n        /* \"#utility.yul\":950:964   */\n      add\n        /* \"#utility.yul\":943:964   */\n      swap4\n      pop\n        /* \"#utility.yul\":581:974   */\n      pop\n      pop\n        /* \"#utility.yul\":568:569   */\n      0x01\n        /* \"#utility.yul\":565:566   */\n      dup2\n        /* \"#utility.yul\":561:570   */\n      add\n        /* \"#utility.yul\":556:570   */\n      swap1\n      pop\n        /* \"#utility.yul\":521:974   */\n      jump(tag_328)\n    tag_330:\n        /* \"#utility.yul\":525:539   */\n      pop\n        /* \"#utility.yul\":135:980   */\n      pop\n      pop\n        /* \"#utility.yul\":23:980   */\n      swap4\n      swap3\n      pop\n      pop\n      pop\n      jump\t// out\n        /* \"#utility.yul\":986:1398   */\n    tag_336:\n        /* \"#utility.yul\":1064:1069   */\n      0x00\n        /* \"#utility.yul\":1089:1155   */\n      tag_338\n        /* \"#utility.yul\":1105:1154   */\n      tag_339\n        /* \"#utility.yul\":1147:1153   */\n      dup5\n        /* \"#utility.yul\":1105:1154   */\n      tag_340\n      jump\t// in\n    tag_339:\n        /* \"#utility.yul\":1089:1155   */\n      tag_324\n      jump\t// in\n    tag_338:\n        /* \"#utility.yul\":1080:1155   */\n      swap1\n      pop\n        /* \"#utility.yul\":1178:1184   */\n      dup3\n        /* \"#utility.yul\":1171:1176   */\n      dup2\n        /* \"#utility.yul\":1164:1185   */\n      mstore\n        /* \"#utility.yul\":1216:1220   */\n      0x20\n        /* \"#utility.yul\":1209:1214   */\n      dup2\n        /* \"#utility.yul\":1205:1221   */\n      add\n        /* \"#utility.yul\":1254:1257   */\n      dup5\n        /* \"#utility.yul\":1245:1251   */\n      dup5\n        /* \"#utility.yul\":1240:1243   */\n      dup5\n        /* \"#utility.yul\":1236:1252   */\n      add\n        /* \"#utility.yul\":1233:1258   */\n      gt\n        /* \"#utility.yul\":1230:1342   */\n      iszero\n      tag_341\n      jumpi\n        /* \"#utility.yul\":1261:1340   */\n      tag_342\n      tag_343\n      jump\t// in\n    tag_342:\n        /* \"#utility.yul\":1230:1342   */\n    tag_341:\n        /* \"#utility.yul\":1351:1392   */\n      tag_344\n        /* \"#utility.yul\":1385:1391   */\n      dup5\n        /* \"#utility.yul\":1380:1383   */\n      dup3\n        /* \"#utility.yul\":1375:1378   */\n      dup6\n        /* \"#utility.yul\":1351:1392   */\n      tag_345\n      jump\t// in\n    tag_344:\n        /* \"#utility.yul\":1070:1398   */\n      pop\n        /* \"#utility.yul\":986:1398   */\n      swap4\n      swap3\n      pop\n      pop\n      pop\n      jump\t// out\n        /* \"#utility.yul\":1404:1543   */\n    tag_346:\n        /* \"#utility.yul\":1450:1455   */\n      0x00\n        /* \"#utility.yul\":1488:1494   */\n      dup2\n        /* \"#utility.yul\":1475:1495   */\n      calldataload\n        /* \"#utility.yul\":1466:1495   */\n      swap1\n      pop\n        /* \"#utility.yul\":1504:1537   */\n      tag_348\n        /* \"#utility.yul\":1531:1536   */\n      dup2\n        /* \"#utility.yul\":1504:1537   */\n      tag_349\n      jump\t// in\n    tag_348:\n        /* \"#utility.yul\":1404:1543   */\n      swap3\n      swap2\n      pop\n      pop\n      jump\t// out\n        /* \"#utility.yul\":1565:1955   */\n    tag_350:\n        /* \"#utility.yul\":1646:1651   */\n      0x00\n        /* \"#utility.yul\":1695:1698   */\n      dup3\n        /* \"#utility.yul\":1688:1692   */\n      0x1f\n        /* \"#utility.yul\":1680:1686   */\n      dup4\n        /* \"#utility.yul\":1676:1693   */\n      add\n        /* \"#utility.yul\":1672:1699   */\n      slt\n        /* \"#utility.yul\":1662:1784   */\n      tag_352\n      jumpi\n        /* \"#utility.yul\":1703:1782   */\n      tag_353\n      tag_333\n      jump\t// in\n    tag_353:\n        /* \"#utility.yul\":1662:1784   */\n    tag_352:\n        /* \"#utility.yul\":1820:1826   */\n      dup2\n        /* \"#utility.yul\":1807:1827   */\n      calldataload\n        /* \"#utility.yul\":1845:1949   */\n      tag_354\n        /* \"#utility.yul\":1945:1948   */\n      dup5\n        /* \"#utility.yul\":1937:1943   */\n      dup3\n        /* \"#utility.yul\":1930:1934   */\n      0x20\n        /* \"#utility.yul\":1922:1928   */\n      dup7\n        /* \"#utility.yul\":1918:1935   */\n      add\n        /* \"#utility.yul\":1845:1949   */\n      tag_319\n      jump\t// in\n    tag_354:\n        /* \"#utility.yul\":1836:1949   */\n      swap2\n      pop\n        /* \"#utility.yul\":1652:1955   */\n      pop\n        /* \"#utility.yul\":1565:1955   */\n      swap3\n      swap2\n      pop\n      pop\n      jump\t// out\n        /* \"#utility.yul\":1975:2315   */\n    tag_335:\n        /* \"#utility.yul\":2031:2036   */\n      0x00\n        /* \"#utility.yul\":2080:2083   */\n      dup3\n        /* \"#utility.yul\":2073:2077   */\n      0x1f\n        /* \"#utility.yul\":2065:2071   */\n      dup4\n        /* \"#utility.yul\":2061:2078   */\n      add\n        /* \"#utility.yul\":2057:2084   */\n      slt\n        /* \"#utility.yul\":2047:2169   */\n      tag_356\n      jumpi\n        /* \"#utility.yul\":2088:2167   */\n      tag_357\n      tag_333\n      jump\t// in\n    tag_357:\n        /* \"#utility.yul\":2047:2169   */\n    tag_356:\n        /* \"#utility.yul\":2205:2211   */\n      dup2\n        /* \"#utility.yul\":2192:2212   */\n      calldataload\n        /* \"#utility.yul\":2230:2309   */\n      tag_358\n        /* \"#utility.yul\":2305:2308   */\n      dup5\n        /* \"#utility.yul\":2297:2303   */\n      dup3\n        /* \"#utility.yul\":2290:2294   */\n      0x20\n        /* \"#utility.yul\":2282:2288   */\n      dup7\n        /* \"#utility.yul\":2278:2295   */\n      add\n        /* \"#utility.yul\":2230:2309   */\n      tag_336\n      jump\t// in\n    tag_358:\n        /* \"#utility.yul\":2221:2309   */\n      swap2\n      pop\n        /* \"#utility.yul\":2037:2315   */\n      pop\n        /* \"#utility.yul\":1975:2315   */\n      swap3\n      swap2\n      pop\n      pop\n      jump\t// out\n        /* \"#utility.yul\":2321:2460   */\n    tag_359:\n        /* \"#utility.yul\":2367:2372   */\n      0x00\n        /* \"#utility.yul\":2405:2411   */\n      dup2\n        /* \"#utility.yul\":2392:2412   */\n      calldataload\n        /* \"#utility.yul\":2383:2412   */\n      swap1\n      pop\n        /* \"#utility.yul\":2421:2454   */\n      tag_361\n        /* \"#utility.yul\":2448:2453   */\n      dup2\n        /* \"#utility.yul\":2421:2454   */\n      tag_362\n      jump\t// in\n    tag_361:\n        /* \"#utility.yul\":2321:2460   */\n      swap3\n      swap2\n      pop\n      pop\n      jump\t// out\n        /* \"#utility.yul\":2466:2795   */\n    tag_47:\n        /* \"#utility.yul\":2525:2531   */\n      0x00\n        /* \"#utility.yul\":2574:2576   */\n      0x20\n        /* \"#utility.yul\":2562:2571   */\n      dup3\n        /* \"#utility.yul\":2553:2560   */\n      dup5\n        /* \"#utility.yul\":2549:2572   */\n      sub\n        /* \"#utility.yul\":2545:2577   */\n      slt\n        /* \"#utility.yul\":2542:2661   */\n      iszero\n      tag_364\n      jumpi\n        /* \"#utility.yul\":2580:2659   */\n      tag_365\n      tag_366\n      jump\t// in\n    tag_365:\n        /* \"#utility.yul\":2542:2661   */\n    tag_364:\n        /* \"#utility.yul\":2700:2701   */\n      0x00\n        /* \"#utility.yul\":2725:2778   */\n      tag_367\n        /* \"#utility.yul\":2770:2777   */\n      dup5\n        /* \"#utility.yul\":2761:2767   */\n      dup3\n        /* \"#utility.yul\":2750:2759   */\n      dup6\n        /* \"#utility.yul\":2746:2768   */\n      add\n        /* \"#utility.yul\":2725:2778   */\n      tag_346\n      jump\t// in\n    tag_367:\n        /* \"#utility.yul\":2715:2778   */\n      swap2\n      pop\n        /* \"#utility.yul\":2671:2788   */\n      pop\n        /* \"#utility.yul\":2466:2795   */\n      swap3\n      swap2\n      pop\n      pop\n      jump\t// out\n        /* \"#utility.yul\":2801:3360   */\n    tag_43:\n        /* \"#utility.yul\":2895:2901   */\n      0x00\n        /* \"#utility.yul\":2944:2946   */\n      0x20\n        /* \"#utility.yul\":2932:2941   */\n      dup3\n        /* \"#utility.yul\":2923:2930   */\n      dup5\n        /* \"#utility.yul\":2919:2942   */\n      sub\n        /* \"#utility.yul\":2915:2947   */\n      slt\n        /* \"#utility.yul\":2912:3031   */\n      iszero\n      tag_369\n      jumpi\n        /* \"#utility.yul\":2950:3029   */\n      tag_370\n      tag_366\n      jump\t// in\n    tag_370:\n        /* \"#utility.yul\":2912:3031   */\n    tag_369:\n        /* \"#utility.yul\":3098:3099   */\n      0x00\n        /* \"#utility.yul\":3087:3096   */\n      dup3\n        /* \"#utility.yul\":3083:3100   */\n      add\n        /* \"#utility.yul\":3070:3101   */\n      calldataload\n        /* \"#utility.yul\":3128:3146   */\n      0xffffffffffffffff\n        /* \"#utility.yul\":3120:3126   */\n      dup2\n        /* \"#utility.yul\":3117:3147   */\n      gt\n        /* \"#utility.yul\":3114:3231   */\n      iszero\n      tag_371\n      jumpi\n        /* \"#utility.yul\":3150:3229   */\n      tag_372\n      tag_373\n      jump\t// in\n    tag_372:\n        /* \"#utility.yul\":3114:3231   */\n    tag_371:\n        /* \"#utility.yul\":3255:3343   */\n      tag_374\n        /* \"#utility.yul\":3335:3342   */\n      dup5\n        /* \"#utility.yul\":3326:3332   */\n      dup3\n        /* \"#utility.yul\":3315:3324   */\n      dup6\n        /* \"#utility.yul\":3311:3333   */\n      add\n        /* \"#utility.yul\":3255:3343   */\n      tag_350\n      jump\t// in\n    tag_374:\n        /* \"#utility.yul\":3245:3343   */\n      swap2\n      pop\n        /* \"#utility.yul\":3041:3353   */\n      pop\n        /* \"#utility.yul\":2801:3360   */\n      swap3\n      swap2\n      pop\n      pop\n      jump\t// out\n        /* \"#utility.yul\":3366:4675   */\n    tag_20:\n        /* \"#utility.yul\":3548:3554   */\n      0x00\n        /* \"#utility.yul\":3556:3562   */\n      dup1\n        /* \"#utility.yul\":3564:3570   */\n      0x00\n        /* \"#utility.yul\":3613:3615   */\n      0x60\n        /* \"#utility.yul\":3601:3610   */\n      dup5\n        /* \"#utility.yul\":3592:3599   */\n      dup7\n        /* \"#utility.yul\":3588:3611   */\n      sub\n        /* \"#utility.yul\":3584:3616   */\n      slt\n        /* \"#utility.yul\":3581:3700   */\n      iszero\n      tag_376\n      jumpi\n        /* \"#utility.yul\":3619:3698   */\n      tag_377\n      tag_366\n      jump\t// in\n    tag_377:\n        /* \"#utility.yul\":3581:3700   */\n    tag_376:\n        /* \"#utility.yul\":3767:3768   */\n      0x00\n        /* \"#utility.yul\":3756:3765   */\n      dup5\n        /* \"#utility.yul\":3752:3769   */\n      add\n        /* \"#utility.yul\":3739:3770   */\n      calldataload\n        /* \"#utility.yul\":3797:3815   */\n      0xffffffffffffffff\n        /* \"#utility.yul\":3789:3795   */\n      dup2\n        /* \"#utility.yul\":3786:3816   */\n      gt\n        /* \"#utility.yul\":3783:3900   */\n      iszero\n      tag_378\n      jumpi\n        /* \"#utility.yul\":3819:3898   */\n      tag_379\n      tag_373\n      jump\t// in\n    tag_379:\n        /* \"#utility.yul\":3783:3900   */\n    tag_378:\n        /* \"#utility.yul\":3924:4012   */\n      tag_380\n        /* \"#utility.yul\":4004:4011   */\n      dup7\n        /* \"#utility.yul\":3995:4001   */\n      dup3\n        /* \"#utility.yul\":3984:3993   */\n      dup8\n        /* \"#utility.yul\":3980:4002   */\n      add\n        /* \"#utility.yul\":3924:4012   */\n      tag_350\n      jump\t// in\n    tag_380:\n        /* \"#utility.yul\":3914:4012   */\n      swap4\n      pop\n        /* \"#utility.yul\":3710:4022   */\n      pop\n        /* \"#utility.yul\":4089:4091   */\n      0x20\n        /* \"#utility.yul\":4078:4087   */\n      dup5\n        /* \"#utility.yul\":4074:4092   */\n      add\n        /* \"#utility.yul\":4061:4093   */\n      calldataload\n        /* \"#utility.yul\":4120:4138   */\n      0xffffffffffffffff\n        /* \"#utility.yul\":4112:4118   */\n      dup2\n        /* \"#utility.yul\":4109:4139   */\n      gt\n        /* \"#utility.yul\":4106:4223   */\n      iszero\n      tag_381\n      jumpi\n        /* \"#utility.yul\":4142:4221   */\n      tag_382\n      tag_373\n      jump\t// in\n    tag_382:\n        /* \"#utility.yul\":4106:4223   */\n    tag_381:\n        /* \"#utility.yul\":4247:4335   */\n      tag_383\n        /* \"#utility.yul\":4327:4334   */\n      dup7\n        /* \"#utility.yul\":4318:4324   */\n      dup3\n        /* \"#utility.yul\":4307:4316   */\n      dup8\n        /* \"#utility.yul\":4303:4325   */\n      add\n        /* \"#utility.yul\":4247:4335   */\n      tag_350\n      jump\t// in\n    tag_383:\n        /* \"#utility.yul\":4237:4335   */\n      swap3\n      pop\n        /* \"#utility.yul\":4032:4345   */\n      pop\n        /* \"#utility.yul\":4412:4414   */\n      0x40\n        /* \"#utility.yul\":4401:4410   */\n      dup5\n        /* \"#utility.yul\":4397:4415   */\n      add\n        /* \"#utility.yul\":4384:4416   */\n      calldataload\n        /* \"#utility.yul\":4443:4461   */\n      0xffffffffffffffff\n        /* \"#utility.yul\":4435:4441   */\n      dup2\n        /* \"#utility.yul\":4432:4462   */\n      gt\n        /* \"#utility.yul\":4429:4546   */\n      iszero\n      tag_384\n      jumpi\n        /* \"#utility.yul\":4465:4544   */\n      tag_385\n      tag_373\n      jump\t// in\n    tag_385:\n        /* \"#utility.yul\":4429:4546   */\n    tag_384:\n        /* \"#utility.yul\":4570:4658   */\n      tag_386\n        /* \"#utility.yul\":4650:4657   */\n      dup7\n        /* \"#utility.yul\":4641:4647   */\n      dup3\n        /* \"#utility.yul\":4630:4639   */\n      dup8\n        /* \"#utility.yul\":4626:4648   */\n      add\n        /* \"#utility.yul\":4570:4658   */\n      tag_350\n      jump\t// in\n    tag_386:\n        /* \"#utility.yul\":4560:4658   */\n      swap2\n      pop\n        /* \"#utility.yul\":4355:4668   */\n      pop\n        /* \"#utility.yul\":3366:4675   */\n      swap3\n      pop\n      swap3\n      pop\n      swap3\n      jump\t// out\n        /* \"#utility.yul\":4681:6492   */\n    tag_30:\n        /* \"#utility.yul\":4826:4832   */\n      0x00\n        /* \"#utility.yul\":4834:4840   */\n      dup1\n        /* \"#utility.yul\":4842:4848   */\n      0x00\n        /* \"#utility.yul\":4850:4856   */\n      dup1\n        /* \"#utility.yul\":4858:4864   */\n      0x00\n        /* \"#utility.yul\":4907:4910   */\n      0xa0\n        /* \"#utility.yul\":4895:4904   */\n      dup7\n        /* \"#utility.yul\":4886:4893   */\n      dup9\n        /* \"#utility.yul\":4882:4905   */\n      sub\n        /* \"#utility.yul\":4878:4911   */\n      slt\n        /* \"#utility.yul\":4875:4995   */\n      iszero\n      tag_388\n      jumpi\n        /* \"#utility.yul\":4914:4993   */\n      tag_389\n      tag_366\n      jump\t// in\n    tag_389:\n        /* \"#utility.yul\":4875:4995   */\n    tag_388:\n        /* \"#utility.yul\":5062:5063   */\n      0x00\n        /* \"#utility.yul\":5051:5060   */\n      dup7\n        /* \"#utility.yul\":5047:5064   */\n      add\n        /* \"#utility.yul\":5034:5065   */\n      calldataload\n        /* \"#utility.yul\":5092:5110   */\n      0xffffffffffffffff\n        /* \"#utility.yul\":5084:5090   */\n      dup2\n        /* \"#utility.yul\":5081:5111   */\n      gt\n        /* \"#utility.yul\":5078:5195   */\n      iszero\n      tag_390\n      jumpi\n        /* \"#utility.yul\":5114:5193   */\n      tag_391\n      tag_373\n      jump\t// in\n    tag_391:\n        /* \"#utility.yul\":5078:5195   */\n    tag_390:\n        /* \"#utility.yul\":5219:5282   */\n      tag_392\n        /* \"#utility.yul\":5274:5281   */\n      dup9\n        /* \"#utility.yul\":5265:5271   */\n      dup3\n        /* \"#utility.yul\":5254:5263   */\n      dup10\n        /* \"#utility.yul\":5250:5272   */\n      add\n        /* \"#utility.yul\":5219:5282   */\n      tag_335\n      jump\t// in\n    tag_392:\n        /* \"#utility.yul\":5209:5282   */\n      swap6\n      pop\n        /* \"#utility.yul\":5005:5292   */\n      pop\n        /* \"#utility.yul\":5359:5361   */\n      0x20\n        /* \"#utility.yul\":5348:5357   */\n      dup7\n        /* \"#utility.yul\":5344:5362   */\n      add\n        /* \"#utility.yul\":5331:5363   */\n      calldataload\n        /* \"#utility.yul\":5390:5408   */\n      0xffffffffffffffff\n        /* \"#utility.yul\":5382:5388   */\n      dup2\n        /* \"#utility.yul\":5379:5409   */\n      gt\n        /* \"#utility.yul\":5376:5493   */\n      iszero\n      tag_393\n      jumpi\n        /* \"#utility.yul\":5412:5491   */\n      tag_394\n      tag_373\n      jump\t// in\n    tag_394:\n        /* \"#utility.yul\":5376:5493   */\n    tag_393:\n        /* \"#utility.yul\":5517:5580   */\n      tag_395\n        /* \"#utility.yul\":5572:5579   */\n      dup9\n        /* \"#utility.yul\":5563:5569   */\n      dup3\n        /* \"#utility.yul\":5552:5561   */\n      dup10\n        /* \"#utility.yul\":5548:5570   */\n      add\n        /* \"#utility.yul\":5517:5580   */\n      tag_335\n      jump\t// in\n    tag_395:\n        /* \"#utility.yul\":5507:5580   */\n      swap5\n      pop\n        /* \"#utility.yul\":5302:5590   */\n      pop\n        /* \"#utility.yul\":5657:5659   */\n      0x40\n        /* \"#utility.yul\":5646:5655   */\n      dup7\n        /* \"#utility.yul\":5642:5660   */\n      add\n        /* \"#utility.yul\":5629:5661   */\n      calldataload\n        /* \"#utility.yul\":5688:5706   */\n      0xffffffffffffffff\n        /* \"#utility.yul\":5680:5686   */\n      dup2\n        /* \"#utility.yul\":5677:5707   */\n      gt\n        /* \"#utility.yul\":5674:5791   */\n      iszero\n      tag_396\n      jumpi\n        /* \"#utility.yul\":5710:5789   */\n      tag_397\n      tag_373\n      jump\t// in\n    tag_397:\n        /* \"#utility.yul\":5674:5791   */\n    tag_396:\n        /* \"#utility.yul\":5815:5878   */\n      tag_398\n        /* \"#utility.yul\":5870:5877   */\n      dup9\n        /* \"#utility.yul\":5861:5867   */\n      dup3\n        /* \"#utility.yul\":5850:5859   */\n      dup10\n        /* \"#utility.yul\":5846:5868   */\n      add\n        /* \"#utility.yul\":5815:5878   */\n      tag_335\n      jump\t// in\n    tag_398:\n        /* \"#utility.yul\":5805:5878   */\n      swap4\n      pop\n        /* \"#utility.yul\":5600:5888   */\n      pop\n        /* \"#utility.yul\":5955:5957   */\n      0x60\n        /* \"#utility.yul\":5944:5953   */\n      dup7\n        /* \"#utility.yul\":5940:5958   */\n      add\n        /* \"#utility.yul\":5927:5959   */\n      calldataload\n        /* \"#utility.yul\":5986:6004   */\n      0xffffffffffffffff\n        /* \"#utility.yul\":5978:5984   */\n      dup2\n        /* \"#utility.yul\":5975:6005   */\n      gt\n        /* \"#utility.yul\":5972:6089   */\n      iszero\n      tag_399\n      jumpi\n        /* \"#utility.yul\":6008:6087   */\n      tag_400\n      tag_373\n      jump\t// in\n    tag_400:\n        /* \"#utility.yul\":5972:6089   */\n    tag_399:\n        /* \"#utility.yul\":6113:6176   */\n      tag_401\n        /* \"#utility.yul\":6168:6175   */\n      dup9\n        /* \"#utility.yul\":6159:6165   */\n      dup3\n        /* \"#utility.yul\":6148:6157   */\n      dup10\n        /* \"#utility.yul\":6144:6166   */\n      add\n        /* \"#utility.yul\":6113:6176   */\n      tag_335\n      jump\t// in\n    tag_401:\n        /* \"#utility.yul\":6103:6176   */\n      swap3\n      pop\n        /* \"#utility.yul\":5898:6186   */\n      pop\n        /* \"#utility.yul\":6253:6256   */\n      0x80\n        /* \"#utility.yul\":6242:6251   */\n      dup7\n        /* \"#utility.yul\":6238:6257   */\n      add\n        /* \"#utility.yul\":6225:6258   */\n      calldataload\n        /* \"#utility.yul\":6285:6303   */\n      0xffffffffffffffff\n        /* \"#utility.yul\":6277:6283   */\n      dup2\n        /* \"#utility.yul\":6274:6304   */\n      gt\n        /* \"#utility.yul\":6271:6388   */\n      iszero\n      tag_402\n      jumpi\n        /* \"#utility.yul\":6307:6386   */\n      tag_403\n      tag_373\n      jump\t// in\n    tag_403:\n        /* \"#utility.yul\":6271:6388   */\n    tag_402:\n        /* \"#utility.yul\":6412:6475   */\n      tag_404\n        /* \"#utility.yul\":6467:6474   */\n      dup9\n        /* \"#utility.yul\":6458:6464   */\n      dup3\n        /* \"#utility.yul\":6447:6456   */\n      dup10\n        /* \"#utility.yul\":6443:6465   */\n      add\n        /* \"#utility.yul\":6412:6475   */\n      tag_335\n      jump\t// in\n    tag_404:\n        /* \"#utility.yul\":6402:6475   */\n      swap2\n      pop\n        /* \"#utility.yul\":6196:6485   */\n      pop\n        /* \"#utility.yul\":4681:6492   */\n      swap3\n      swap6\n      pop\n      swap3\n      swap6\n      swap1\n      swap4\n      pop\n      jump\t// out\n        /* \"#utility.yul\":6498:8635   */\n    tag_37:\n        /* \"#utility.yul\":6662:6668   */\n      0x00\n        /* \"#utility.yul\":6670:6676   */\n      dup1\n        /* \"#utility.yul\":6678:6684   */\n      0x00\n        /* \"#utility.yul\":6686:6692   */\n      dup1\n        /* \"#utility.yul\":6694:6700   */\n      0x00\n        /* \"#utility.yul\":6702:6708   */\n      dup1\n        /* \"#utility.yul\":6751:6754   */\n      0xc0\n        /* \"#utility.yul\":6739:6748   */\n      dup8\n        /* \"#utility.yul\":6730:6737   */\n      dup10\n        /* \"#utility.yul\":6726:6749   */\n      sub\n        /* \"#utility.yul\":6722:6755   */\n      slt\n        /* \"#utility.yul\":6719:6839   */\n      iszero\n      tag_406\n      jumpi\n        /* \"#utility.yul\":6758:6837   */\n      tag_407\n      tag_366\n      jump\t// in\n    tag_407:\n        /* \"#utility.yul\":6719:6839   */\n    tag_406:\n        /* \"#utility.yul\":6906:6907   */\n      0x00\n        /* \"#utility.yul\":6895:6904   */\n      dup8\n        /* \"#utility.yul\":6891:6908   */\n      add\n        /* \"#utility.yul\":6878:6909   */\n      calldataload\n        /* \"#utility.yul\":6936:6954   */\n      0xffffffffffffffff\n        /* \"#utility.yul\":6928:6934   */\n      dup2\n        /* \"#utility.yul\":6925:6955   */\n      gt\n        /* \"#utility.yul\":6922:7039   */\n      iszero\n      tag_408\n      jumpi\n        /* \"#utility.yul\":6958:7037   */\n      tag_409\n      tag_373\n      jump\t// in\n    tag_409:\n        /* \"#utility.yul\":6922:7039   */\n    tag_408:\n        /* \"#utility.yul\":7063:7126   */\n      tag_410\n        /* \"#utility.yul\":7118:7125   */\n      dup10\n        /* \"#utility.yul\":7109:7115   */\n      dup3\n        /* \"#utility.yul\":7098:7107   */\n      dup11\n        /* \"#utility.yul\":7094:7116   */\n      add\n        /* \"#utility.yul\":7063:7126   */\n      tag_335\n      jump\t// in\n    tag_410:\n        /* \"#utility.yul\":7053:7126   */\n      swap7\n      pop\n        /* \"#utility.yul\":6849:7136   */\n      pop\n        /* \"#utility.yul\":7203:7205   */\n      0x20\n        /* \"#utility.yul\":7192:7201   */\n      dup8\n        /* \"#utility.yul\":7188:7206   */\n      add\n        /* \"#utility.yul\":7175:7207   */\n      calldataload\n        /* \"#utility.yul\":7234:7252   */\n      0xffffffffffffffff\n        /* \"#utility.yul\":7226:7232   */\n      dup2\n        /* \"#utility.yul\":7223:7253   */\n      gt\n        /* \"#utility.yul\":7220:7337   */\n      iszero\n      tag_411\n      jumpi\n        /* \"#utility.yul\":7256:7335   */\n      tag_412\n      tag_373\n      jump\t// in\n    tag_412:\n        /* \"#utility.yul\":7220:7337   */\n    tag_411:\n        /* \"#utility.yul\":7361:7424   */\n      tag_413\n        /* \"#utility.yul\":7416:7423   */\n      dup10\n        /* \"#utility.yul\":7407:7413   */\n      dup3\n        /* \"#utility.yul\":7396:7405   */\n      dup11\n        /* \"#utility.yul\":7392:7414   */\n      add\n        /* \"#utility.yul\":7361:7424   */\n      tag_335\n      jump\t// in\n    tag_413:\n        /* \"#utility.yul\":7351:7424   */\n      swap6\n      pop\n        /* \"#utility.yul\":7146:7434   */\n      pop\n        /* \"#utility.yul\":7501:7503   */\n      0x40\n        /* \"#utility.yul\":7490:7499   */\n      dup8\n        /* \"#utility.yul\":7486:7504   */\n      add\n        /* \"#utility.yul\":7473:7505   */\n      calldataload\n        /* \"#utility.yul\":7532:7550   */\n      0xffffffffffffffff\n        /* \"#utility.yul\":7524:7530   */\n      dup2\n        /* \"#utility.yul\":7521:7551   */\n      gt\n        /* \"#utility.yul\":7518:7635   */\n      iszero\n      tag_414\n      jumpi\n        /* \"#utility.yul\":7554:7633   */\n      tag_415\n      tag_373\n      jump\t// in\n    tag_415:\n        /* \"#utility.yul\":7518:7635   */\n    tag_414:\n        /* \"#utility.yul\":7659:7722   */\n      tag_416\n        /* \"#utility.yul\":7714:7721   */\n      dup10\n        /* \"#utility.yul\":7705:7711   */\n      dup3\n        /* \"#utility.yul\":7694:7703   */\n      dup11\n        /* \"#utility.yul\":7690:7712   */\n      add\n        /* \"#utility.yul\":7659:7722   */\n      tag_335\n      jump\t// in\n    tag_416:\n        /* \"#utility.yul\":7649:7722   */\n      swap5\n      pop\n        /* \"#utility.yul\":7444:7732   */\n      pop\n        /* \"#utility.yul\":7799:7801   */\n      0x60\n        /* \"#utility.yul\":7788:7797   */\n      dup8\n        /* \"#utility.yul\":7784:7802   */\n      add\n        /* \"#utility.yul\":7771:7803   */\n      calldataload\n        /* \"#utility.yul\":7830:7848   */\n      0xffffffffffffffff\n        /* \"#utility.yul\":7822:7828   */\n      dup2\n        /* \"#utility.yul\":7819:7849   */\n      gt\n        /* \"#utility.yul\":7816:7933   */\n      iszero\n      tag_417\n      jumpi\n        /* \"#utility.yul\":7852:7931   */\n      tag_418\n      tag_373\n      jump\t// in\n    tag_418:\n        /* \"#utility.yul\":7816:7933   */\n    tag_417:\n        /* \"#utility.yul\":7957:8020   */\n      tag_419\n        /* \"#utility.yul\":8012:8019   */\n      dup10\n        /* \"#utility.yul\":8003:8009   */\n      dup3\n        /* \"#utility.yul\":7992:8001   */\n      dup11\n        /* \"#utility.yul\":7988:8010   */\n      add\n        /* \"#utility.yul\":7957:8020   */\n      tag_335\n      jump\t// in\n    tag_419:\n        /* \"#utility.yul\":7947:8020   */\n      swap4\n      pop\n        /* \"#utility.yul\":7742:8030   */\n      pop\n        /* \"#utility.yul\":8097:8100   */\n      0x80\n        /* \"#utility.yul\":8086:8095   */\n      dup8\n        /* \"#utility.yul\":8082:8101   */\n      add\n        /* \"#utility.yul\":8069:8102   */\n      calldataload\n        /* \"#utility.yul\":8129:8147   */\n      0xffffffffffffffff\n        /* \"#utility.yul\":8121:8127   */\n      dup2\n        /* \"#utility.yul\":8118:8148   */\n      gt\n        /* \"#utility.yul\":8115:8232   */\n      iszero\n      tag_420\n      jumpi\n        /* \"#utility.yul\":8151:8230   */\n      tag_421\n      tag_373\n      jump\t// in\n    tag_421:\n        /* \"#utility.yul\":8115:8232   */\n    tag_420:\n        /* \"#utility.yul\":8256:8319   */\n      tag_422\n        /* \"#utility.yul\":8311:8318   */\n      dup10\n        /* \"#utility.yul\":8302:8308   */\n      dup3\n        /* \"#utility.yul\":8291:8300   */\n      dup11\n        /* \"#utility.yul\":8287:8309   */\n      add\n        /* \"#utility.yul\":8256:8319   */\n      tag_335\n      jump\t// in\n    tag_422:\n        /* \"#utility.yul\":8246:8319   */\n      swap3\n      pop\n        /* \"#utility.yul\":8040:8329   */\n      pop\n        /* \"#utility.yul\":8396:8399   */\n      0xa0\n        /* \"#utility.yul\":8385:8394   */\n      dup8\n        /* \"#utility.yul\":8381:8400   */\n      add\n        /* \"#utility.yul\":8368:8401   */\n      calldataload\n        /* \"#utility.yul\":8428:8446   */\n      0xffffffffffffffff\n        /* \"#utility.yul\":8420:8426   */\n      dup2\n        /* \"#utility.yul\":8417:8447   */\n      gt\n        /* \"#utility.yul\":8414:8531   */\n      iszero\n      tag_423\n      jumpi\n        /* \"#utility.yul\":8450:8529   */\n      tag_424\n      tag_373\n      jump\t// in\n    tag_424:\n        /* \"#utility.yul\":8414:8531   */\n    tag_423:\n        /* \"#utility.yul\":8555:8618   */\n      tag_425\n        /* \"#utility.yul\":8610:8617   */\n      dup10\n        /* \"#utility.yul\":8601:8607   */\n      dup3\n        /* \"#utility.yul\":8590:8599   */\n      dup11\n        /* \"#utility.yul\":8586:8608   */\n      add\n        /* \"#utility.yul\":8555:8618   */\n      tag_335\n      jump\t// in\n    tag_425:\n        /* \"#utility.yul\":8545:8618   */\n      swap2\n      pop\n        /* \"#utility.yul\":8339:8628   */\n      pop\n        /* \"#utility.yul\":6498:8635   */\n      swap3\n      swap6\n      pop\n      swap3\n      swap6\n      pop\n      swap3\n      swap6\n      jump\t// out\n        /* \"#utility.yul\":8641:8970   */\n    tag_58:\n        /* \"#utility.yul\":8700:8706   */\n      0x00\n        /* \"#utility.yul\":8749:8751   */\n      0x20\n        /* \"#utility.yul\":8737:8746   */\n      dup3\n        /* \"#utility.yul\":8728:8735   */\n      dup5\n        /* \"#utility.yul\":8724:8747   */\n      sub\n        /* \"#utility.yul\":8720:8752   */\n      slt\n        /* \"#utility.yul\":8717:8836   */\n      iszero\n      tag_427\n      jumpi\n        /* \"#utility.yul\":8755:8834   */\n      tag_428\n      tag_366\n      jump\t// in\n    tag_428:\n        /* \"#utility.yul\":8717:8836   */\n    tag_427:\n        /* \"#utility.yul\":8875:8876   */\n      0x00\n        /* \"#utility.yul\":8900:8953   */\n      tag_429\n        /* \"#utility.yul\":8945:8952   */\n      dup5\n        /* \"#utility.yul\":8936:8942   */\n      dup3\n        /* \"#utility.yul\":8925:8934   */\n      dup6\n        /* \"#utility.yul\":8921:8943   */\n      add\n        /* \"#utility.yul\":8900:8953   */\n      tag_359\n      jump\t// in\n    tag_429:\n        /* \"#utility.yul\":8890:8953   */\n      swap2\n      pop\n        /* \"#utility.yul\":8846:8963   */\n      pop\n        /* \"#utility.yul\":8641:8970   */\n      swap3\n      swap2\n      pop\n      pop\n      jump\t// out\n        /* \"#utility.yul\":8976:9172   */\n    tag_430:\n        /* \"#utility.yul\":9065:9075   */\n      0x00\n        /* \"#utility.yul\":9100:9166   */\n      tag_432\n        /* \"#utility.yul\":9162:9165   */\n      dup4\n        /* \"#utility.yul\":9154:9160   */\n      dup4\n        /* \"#utility.yul\":9100:9166   */\n      tag_433\n      jump\t// in\n    tag_432:\n        /* \"#utility.yul\":9086:9166   */\n      swap1\n      pop\n        /* \"#utility.yul\":8976:9172   */\n      swap3\n      swap2\n      pop\n      pop\n      jump\t// out\n        /* \"#utility.yul\":9178:9286   */\n    tag_434:\n        /* \"#utility.yul\":9255:9279   */\n      tag_436\n        /* \"#utility.yul\":9273:9278   */\n      dup2\n        /* \"#utility.yul\":9255:9279   */\n      tag_437\n      jump\t// in\n    tag_436:\n        /* \"#utility.yul\":9250:9253   */\n      dup3\n        /* \"#utility.yul\":9243:9280   */\n      mstore\n        /* \"#utility.yul\":9178:9286   */\n      pop\n      pop\n      jump\t// out\n        /* \"#utility.yul\":9320:10291   */\n    tag_438:\n        /* \"#utility.yul\":9449:9452   */\n      0x00\n        /* \"#utility.yul\":9478:9542   */\n      tag_440\n        /* \"#utility.yul\":9536:9541   */\n      dup3\n        /* \"#utility.yul\":9478:9542   */\n      tag_441\n      jump\t// in\n    tag_440:\n        /* \"#utility.yul\":9558:9644   */\n      tag_442\n        /* \"#utility.yul\":9637:9643   */\n      dup2\n        /* \"#utility.yul\":9632:9635   */\n      dup6\n        /* \"#utility.yul\":9558:9644   */\n      tag_443\n      jump\t// in\n    tag_442:\n        /* \"#utility.yul\":9551:9644   */\n      swap4\n      pop\n        /* \"#utility.yul\":9670:9673   */\n      dup4\n        /* \"#utility.yul\":9715:9719   */\n      0x20\n        /* \"#utility.yul\":9707:9713   */\n      dup3\n        /* \"#utility.yul\":9703:9720   */\n      mul\n        /* \"#utility.yul\":9698:9701   */\n      dup6\n        /* \"#utility.yul\":9694:9721   */\n      add\n        /* \"#utility.yul\":9745:9811   */\n      tag_444\n        /* \"#utility.yul\":9805:9810   */\n      dup6\n        /* \"#utility.yul\":9745:9811   */\n      tag_445\n      jump\t// in\n    tag_444:\n        /* \"#utility.yul\":9834:9841   */\n      dup1\n        /* \"#utility.yul\":9865:9866   */\n      0x00\n        /* \"#utility.yul\":9850:10246   */\n    tag_446:\n        /* \"#utility.yul\":9875:9881   */\n      dup6\n        /* \"#utility.yul\":9872:9873   */\n      dup2\n        /* \"#utility.yul\":9869:9882   */\n      lt\n        /* \"#utility.yul\":9850:10246   */\n      iszero\n      tag_448\n      jumpi\n        /* \"#utility.yul\":9946:9955   */\n      dup5\n        /* \"#utility.yul\":9940:9944   */\n      dup5\n        /* \"#utility.yul\":9936:9956   */\n      sub\n        /* \"#utility.yul\":9931:9934   */\n      dup10\n        /* \"#utility.yul\":9924:9957   */\n      mstore\n        /* \"#utility.yul\":9997:10003   */\n      dup2\n        /* \"#utility.yul\":9991:10004   */\n      mload\n        /* \"#utility.yul\":10025:10109   */\n      tag_449\n        /* \"#utility.yul\":10104:10108   */\n      dup6\n        /* \"#utility.yul\":10089:10102   */\n      dup3\n        /* \"#utility.yul\":10025:10109   */\n      tag_430\n      jump\t// in\n    tag_449:\n        /* \"#utility.yul\":10017:10109   */\n      swap5\n      pop\n        /* \"#utility.yul\":10132:10202   */\n      tag_450\n        /* \"#utility.yul\":10195:10201   */\n      dup4\n        /* \"#utility.yul\":10132:10202   */\n      tag_451\n      jump\t// in\n    tag_450:\n        /* \"#utility.yul\":10122:10202   */\n      swap3\n      pop\n        /* \"#utility.yul\":10231:10235   */\n      0x20\n        /* \"#utility.yul\":10226:10229   */\n      dup11\n        /* \"#utility.yul\":10222:10236   */\n      add\n        /* \"#utility.yul\":10215:10236   */\n      swap10\n      pop\n        /* \"#utility.yul\":9910:10246   */\n      pop\n        /* \"#utility.yul\":9897:9898   */\n      0x01\n        /* \"#utility.yul\":9894:9895   */\n      dup2\n        /* \"#utility.yul\":9890:9899   */\n      add\n        /* \"#utility.yul\":9885:9899   */\n      swap1\n      pop\n        /* \"#utility.yul\":9850:10246   */\n      jump(tag_446)\n    tag_448:\n        /* \"#utility.yul\":9854:9868   */\n      pop\n        /* \"#utility.yul\":10262:10266   */\n      dup3\n        /* \"#utility.yul\":10255:10266   */\n      swap8\n      pop\n        /* \"#utility.yul\":10282:10285   */\n      dup8\n        /* \"#utility.yul\":10275:10285   */\n      swap6\n      pop\n        /* \"#utility.yul\":9454:10291   */\n      pop\n      pop\n      pop\n      pop\n      pop\n        /* \"#utility.yul\":9320:10291   */\n      swap3\n      swap2\n      pop\n      pop\n      jump\t// out\n        /* \"#utility.yul\":10297:10641   */\n    tag_433:\n        /* \"#utility.yul\":10375:10378   */\n      0x00\n        /* \"#utility.yul\":10403:10442   */\n      tag_453\n        /* \"#utility.yul\":10436:10441   */\n      dup3\n        /* \"#utility.yul\":10403:10442   */\n      tag_454\n      jump\t// in\n    tag_453:\n        /* \"#utility.yul\":10458:10519   */\n      tag_455\n        /* \"#utility.yul\":10512:10518   */\n      dup2\n        /* \"#utility.yul\":10507:10510   */\n      dup6\n        /* \"#utility.yul\":10458:10519   */\n      tag_456\n      jump\t// in\n    tag_455:\n        /* \"#utility.yul\":10451:10519   */\n      swap4\n      pop\n        /* \"#utility.yul\":10528:10580   */\n      tag_457\n        /* \"#utility.yul\":10573:10579   */\n      dup2\n        /* \"#utility.yul\":10568:10571   */\n      dup6\n        /* \"#utility.yul\":10561:10565   */\n      0x20\n        /* \"#utility.yul\":10554:10559   */\n      dup7\n        /* \"#utility.yul\":10550:10566   */\n      add\n        /* \"#utility.yul\":10528:10580   */\n      tag_458\n      jump\t// in\n    tag_457:\n        /* \"#utility.yul\":10605:10634   */\n      tag_459\n        /* \"#utility.yul\":10627:10633   */\n      dup2\n        /* \"#utility.yul\":10605:10634   */\n      tag_460\n      jump\t// in\n    tag_459:\n        /* \"#utility.yul\":10600:10603   */\n      dup5\n        /* \"#utility.yul\":10596:10635   */\n      add\n        /* \"#utility.yul\":10589:10635   */\n      swap2\n      pop\n        /* \"#utility.yul\":10379:10641   */\n      pop\n        /* \"#utility.yul\":10297:10641   */\n      swap3\n      swap2\n      pop\n      pop\n      jump\t// out\n        /* \"#utility.yul\":10647:11011   */\n    tag_461:\n        /* \"#utility.yul\":10735:10738   */\n      0x00\n        /* \"#utility.yul\":10763:10802   */\n      tag_463\n        /* \"#utility.yul\":10796:10801   */\n      dup3\n        /* \"#utility.yul\":10763:10802   */\n      tag_454\n      jump\t// in\n    tag_463:\n        /* \"#utility.yul\":10818:10889   */\n      tag_464\n        /* \"#utility.yul\":10882:10888   */\n      dup2\n        /* \"#utility.yul\":10877:10880   */\n      dup6\n        /* \"#utility.yul\":10818:10889   */\n      tag_465\n      jump\t// in\n    tag_464:\n        /* \"#utility.yul\":10811:10889   */\n      swap4\n      pop\n        /* \"#utility.yul\":10898:10950   */\n      tag_466\n        /* \"#utility.yul\":10943:10949   */\n      dup2\n        /* \"#utility.yul\":10938:10941   */\n      dup6\n        /* \"#utility.yul\":10931:10935   */\n      0x20\n        /* \"#utility.yul\":10924:10929   */\n      dup7\n        /* \"#utility.yul\":10920:10936   */\n      add\n        /* \"#utility.yul\":10898:10950   */\n      tag_458\n      jump\t// in\n    tag_466:\n        /* \"#utility.yul\":10975:11004   */\n      tag_467\n        /* \"#utility.yul\":10997:11003   */\n      dup2\n        /* \"#utility.yul\":10975:11004   */\n      tag_460\n      jump\t// in\n    tag_467:\n        /* \"#utility.yul\":10970:10973   */\n      dup5\n        /* \"#utility.yul\":10966:11005   */\n      add\n        /* \"#utility.yul\":10959:11005   */\n      swap2\n      pop\n        /* \"#utility.yul\":10739:11011   */\n      pop\n        /* \"#utility.yul\":10647:11011   */\n      swap3\n      swap2\n      pop\n      pop\n      jump\t// out\n        /* \"#utility.yul\":11097:11902   */\n    tag_468:\n        /* \"#utility.yul\":11236:11239   */\n      0x00\n        /* \"#utility.yul\":11272:11276   */\n      0x40\n        /* \"#utility.yul\":11267:11270   */\n      dup4\n        /* \"#utility.yul\":11263:11277   */\n      add\n        /* \"#utility.yul\":11366:11370   */\n      0x00\n        /* \"#utility.yul\":11359:11364   */\n      dup4\n        /* \"#utility.yul\":11355:11371   */\n      add\n        /* \"#utility.yul\":11349:11372   */\n      mload\n        /* \"#utility.yul\":11419:11422   */\n      dup5\n        /* \"#utility.yul\":11413:11417   */\n      dup3\n        /* \"#utility.yul\":11409:11423   */\n      sub\n        /* \"#utility.yul\":11402:11406   */\n      0x00\n        /* \"#utility.yul\":11397:11400   */\n      dup7\n        /* \"#utility.yul\":11393:11407   */\n      add\n        /* \"#utility.yul\":11386:11424   */\n      mstore\n        /* \"#utility.yul\":11445:11568   */\n      tag_470\n        /* \"#utility.yul\":11563:11567   */\n      dup3\n        /* \"#utility.yul\":11549:11561   */\n      dup3\n        /* \"#utility.yul\":11445:11568   */\n      tag_438\n      jump\t// in\n    tag_470:\n        /* \"#utility.yul\":11437:11568   */\n      swap2\n      pop\n        /* \"#utility.yul\":11287:11579   */\n      pop\n        /* \"#utility.yul\":11662:11666   */\n      0x20\n        /* \"#utility.yul\":11655:11660   */\n      dup4\n        /* \"#utility.yul\":11651:11667   */\n      add\n        /* \"#utility.yul\":11645:11668   */\n      mload\n        /* \"#utility.yul\":11715:11718   */\n      dup5\n        /* \"#utility.yul\":11709:11713   */\n      dup3\n        /* \"#utility.yul\":11705:11719   */\n      sub\n        /* \"#utility.yul\":11698:11702   */\n      0x20\n        /* \"#utility.yul\":11693:11696   */\n      dup7\n        /* \"#utility.yul\":11689:11703   */\n      add\n        /* \"#utility.yul\":11682:11720   */\n      mstore\n        /* \"#utility.yul\":11741:11864   */\n      tag_471\n        /* \"#utility.yul\":11859:11863   */\n      dup3\n        /* \"#utility.yul\":11845:11857   */\n      dup3\n        /* \"#utility.yul\":11741:11864   */\n      tag_438\n      jump\t// in\n    tag_471:\n        /* \"#utility.yul\":11733:11864   */\n      swap2\n      pop\n        /* \"#utility.yul\":11589:11875   */\n      pop\n        /* \"#utility.yul\":11892:11896   */\n      dup1\n        /* \"#utility.yul\":11885:11896   */\n      swap2\n      pop\n        /* \"#utility.yul\":11241:11902   */\n      pop\n        /* \"#utility.yul\":11097:11902   */\n      swap3\n      swap2\n      pop\n      pop\n      jump\t// out\n        /* \"#utility.yul\":11966:13632   */\n    tag_472:\n        /* \"#utility.yul\":12083:12086   */\n      0x00\n        /* \"#utility.yul\":12119:12123   */\n      0xc0\n        /* \"#utility.yul\":12114:12117   */\n      dup4\n        /* \"#utility.yul\":12110:12124   */\n      add\n        /* \"#utility.yul\":12209:12213   */\n      0x00\n        /* \"#utility.yul\":12202:12207   */\n      dup4\n        /* \"#utility.yul\":12198:12214   */\n      add\n        /* \"#utility.yul\":12192:12215   */\n      mload\n        /* \"#utility.yul\":12262:12265   */\n      dup5\n        /* \"#utility.yul\":12256:12260   */\n      dup3\n        /* \"#utility.yul\":12252:12266   */\n      sub\n        /* \"#utility.yul\":12245:12249   */\n      0x00\n        /* \"#utility.yul\":12240:12243   */\n      dup7\n        /* \"#utility.yul\":12236:12250   */\n      add\n        /* \"#utility.yul\":12229:12267   */\n      mstore\n        /* \"#utility.yul\":12288:12361   */\n      tag_474\n        /* \"#utility.yul\":12356:12360   */\n      dup3\n        /* \"#utility.yul\":12342:12354   */\n      dup3\n        /* \"#utility.yul\":12288:12361   */\n      tag_433\n      jump\t// in\n    tag_474:\n        /* \"#utility.yul\":12280:12361   */\n      swap2\n      pop\n        /* \"#utility.yul\":12134:12372   */\n      pop\n        /* \"#utility.yul\":12455:12459   */\n      0x20\n        /* \"#utility.yul\":12448:12453   */\n      dup4\n        /* \"#utility.yul\":12444:12460   */\n      add\n        /* \"#utility.yul\":12438:12461   */\n      mload\n        /* \"#utility.yul\":12508:12511   */\n      dup5\n        /* \"#utility.yul\":12502:12506   */\n      dup3\n        /* \"#utility.yul\":12498:12512   */\n      sub\n        /* \"#utility.yul\":12491:12495   */\n      0x20\n        /* \"#utility.yul\":12486:12489   */\n      dup7\n        /* \"#utility.yul\":12482:12496   */\n      add\n        /* \"#utility.yul\":12475:12513   */\n      mstore\n        /* \"#utility.yul\":12534:12607   */\n      tag_475\n        /* \"#utility.yul\":12602:12606   */\n      dup3\n        /* \"#utility.yul\":12588:12600   */\n      dup3\n        /* \"#utility.yul\":12534:12607   */\n      tag_433\n      jump\t// in\n    tag_475:\n        /* \"#utility.yul\":12526:12607   */\n      swap2\n      pop\n        /* \"#utility.yul\":12382:12618   */\n      pop\n        /* \"#utility.yul\":12701:12705   */\n      0x40\n        /* \"#utility.yul\":12694:12699   */\n      dup4\n        /* \"#utility.yul\":12690:12706   */\n      add\n        /* \"#utility.yul\":12684:12707   */\n      mload\n        /* \"#utility.yul\":12754:12757   */\n      dup5\n        /* \"#utility.yul\":12748:12752   */\n      dup3\n        /* \"#utility.yul\":12744:12758   */\n      sub\n        /* \"#utility.yul\":12737:12741   */\n      0x40\n        /* \"#utility.yul\":12732:12735   */\n      dup7\n        /* \"#utility.yul\":12728:12742   */\n      add\n        /* \"#utility.yul\":12721:12759   */\n      mstore\n        /* \"#utility.yul\":12780:12853   */\n      tag_476\n        /* \"#utility.yul\":12848:12852   */\n      dup3\n        /* \"#utility.yul\":12834:12846   */\n      dup3\n        /* \"#utility.yul\":12780:12853   */\n      tag_433\n      jump\t// in\n    tag_476:\n        /* \"#utility.yul\":12772:12853   */\n      swap2\n      pop\n        /* \"#utility.yul\":12628:12864   */\n      pop\n        /* \"#utility.yul\":12948:12952   */\n      0x60\n        /* \"#utility.yul\":12941:12946   */\n      dup4\n        /* \"#utility.yul\":12937:12953   */\n      add\n        /* \"#utility.yul\":12931:12954   */\n      mload\n        /* \"#utility.yul\":13001:13004   */\n      dup5\n        /* \"#utility.yul\":12995:12999   */\n      dup3\n        /* \"#utility.yul\":12991:13005   */\n      sub\n        /* \"#utility.yul\":12984:12988   */\n      0x60\n        /* \"#utility.yul\":12979:12982   */\n      dup7\n        /* \"#utility.yul\":12975:12989   */\n      add\n        /* \"#utility.yul\":12968:13006   */\n      mstore\n        /* \"#utility.yul\":13027:13100   */\n      tag_477\n        /* \"#utility.yul\":13095:13099   */\n      dup3\n        /* \"#utility.yul\":13081:13093   */\n      dup3\n        /* \"#utility.yul\":13027:13100   */\n      tag_433\n      jump\t// in\n    tag_477:\n        /* \"#utility.yul\":13019:13100   */\n      swap2\n      pop\n        /* \"#utility.yul\":12874:13111   */\n      pop\n        /* \"#utility.yul\":13195:13199   */\n      0x80\n        /* \"#utility.yul\":13188:13193   */\n      dup4\n        /* \"#utility.yul\":13184:13200   */\n      add\n        /* \"#utility.yul\":13178:13201   */\n      mload\n        /* \"#utility.yul\":13248:13251   */\n      dup5\n        /* \"#utility.yul\":13242:13246   */\n      dup3\n        /* \"#utility.yul\":13238:13252   */\n      sub\n        /* \"#utility.yul\":13231:13235   */\n      0x80\n        /* \"#utility.yul\":13226:13229   */\n      dup7\n        /* \"#utility.yul\":13222:13236   */\n      add\n        /* \"#utility.yul\":13215:13253   */\n      mstore\n        /* \"#utility.yul\":13274:13347   */\n      tag_478\n        /* \"#utility.yul\":13342:13346   */\n      dup3\n        /* \"#utility.yul\":13328:13340   */\n      dup3\n        /* \"#utility.yul\":13274:13347   */\n      tag_433\n      jump\t// in\n    tag_478:\n        /* \"#utility.yul\":13266:13347   */\n      swap2\n      pop\n        /* \"#utility.yul\":13121:13358   */\n      pop\n        /* \"#utility.yul\":13442:13446   */\n      0xa0\n        /* \"#utility.yul\":13435:13440   */\n      dup4\n        /* \"#utility.yul\":13431:13447   */\n      add\n        /* \"#utility.yul\":13425:13448   */\n      mload\n        /* \"#utility.yul\":13495:13498   */\n      dup5\n        /* \"#utility.yul\":13489:13493   */\n      dup3\n        /* \"#utility.yul\":13485:13499   */\n      sub\n        /* \"#utility.yul\":13478:13482   */\n      0xa0\n        /* \"#utility.yul\":13473:13476   */\n      dup7\n        /* \"#utility.yul\":13469:13483   */\n      add\n        /* \"#utility.yul\":13462:13500   */\n      mstore\n        /* \"#utility.yul\":13521:13594   */\n      tag_479\n        /* \"#utility.yul\":13589:13593   */\n      dup3\n        /* \"#utility.yul\":13575:13587   */\n      dup3\n        /* \"#utility.yul\":13521:13594   */\n      tag_433\n      jump\t// in\n    tag_479:\n        /* \"#utility.yul\":13513:13594   */\n      swap2\n      pop\n        /* \"#utility.yul\":13368:13605   */\n      pop\n        /* \"#utility.yul\":13622:13626   */\n      dup1\n        /* \"#utility.yul\":13615:13626   */\n      swap2\n      pop\n        /* \"#utility.yul\":12088:13632   */\n      pop\n        /* \"#utility.yul\":11966:13632   */\n      swap3\n      swap2\n      pop\n      pop\n      jump\t// out\n        /* \"#utility.yul\":13702:15756   */\n    tag_480:\n        /* \"#utility.yul\":13825:13828   */\n      0x00\n        /* \"#utility.yul\":13861:13867   */\n      0x0100\n        /* \"#utility.yul\":13856:13859   */\n      dup4\n        /* \"#utility.yul\":13852:13868   */\n      add\n        /* \"#utility.yul\":13953:13957   */\n      0x00\n        /* \"#utility.yul\":13946:13951   */\n      dup4\n        /* \"#utility.yul\":13942:13958   */\n      add\n        /* \"#utility.yul\":13936:13959   */\n      mload\n        /* \"#utility.yul\":14006:14009   */\n      dup5\n        /* \"#utility.yul\":14000:14004   */\n      dup3\n        /* \"#utility.yul\":13996:14010   */\n      sub\n        /* \"#utility.yul\":13989:13993   */\n      0x00\n        /* \"#utility.yul\":13984:13987   */\n      dup7\n        /* \"#utility.yul\":13980:13994   */\n      add\n        /* \"#utility.yul\":13973:14011   */\n      mstore\n        /* \"#utility.yul\":14032:14105   */\n      tag_482\n        /* \"#utility.yul\":14100:14104   */\n      dup3\n        /* \"#utility.yul\":14086:14098   */\n      dup3\n        /* \"#utility.yul\":14032:14105   */\n      tag_433\n      jump\t// in\n    tag_482:\n        /* \"#utility.yul\":14024:14105   */\n      swap2\n      pop\n        /* \"#utility.yul\":13878:14116   */\n      pop\n        /* \"#utility.yul\":14202:14206   */\n      0x20\n        /* \"#utility.yul\":14195:14200   */\n      dup4\n        /* \"#utility.yul\":14191:14207   */\n      add\n        /* \"#utility.yul\":14185:14208   */\n      mload\n        /* \"#utility.yul\":14255:14258   */\n      dup5\n        /* \"#utility.yul\":14249:14253   */\n      dup3\n        /* \"#utility.yul\":14245:14259   */\n      sub\n        /* \"#utility.yul\":14238:14242   */\n      0x20\n        /* \"#utility.yul\":14233:14236   */\n      dup7\n        /* \"#utility.yul\":14229:14243   */\n      add\n        /* \"#utility.yul\":14222:14260   */\n      mstore\n        /* \"#utility.yul\":14281:14354   */\n      tag_483\n        /* \"#utility.yul\":14349:14353   */\n      dup3\n        /* \"#utility.yul\":14335:14347   */\n      dup3\n        /* \"#utility.yul\":14281:14354   */\n      tag_433\n      jump\t// in\n    tag_483:\n        /* \"#utility.yul\":14273:14354   */\n      swap2\n      pop\n        /* \"#utility.yul\":14126:14365   */\n      pop\n        /* \"#utility.yul\":14454:14458   */\n      0x40\n        /* \"#utility.yul\":14447:14452   */\n      dup4\n        /* \"#utility.yul\":14443:14459   */\n      add\n        /* \"#utility.yul\":14437:14460   */\n      mload\n        /* \"#utility.yul\":14473:14536   */\n      tag_484\n        /* \"#utility.yul\":14530:14534   */\n      0x40\n        /* \"#utility.yul\":14525:14528   */\n      dup7\n        /* \"#utility.yul\":14521:14535   */\n      add\n        /* \"#utility.yul\":14507:14519   */\n      dup3\n        /* \"#utility.yul\":14473:14536   */\n      tag_434\n      jump\t// in\n    tag_484:\n        /* \"#utility.yul\":14375:14546   */\n      pop\n        /* \"#utility.yul\":14633:14637   */\n      0x60\n        /* \"#utility.yul\":14626:14631   */\n      dup4\n        /* \"#utility.yul\":14622:14638   */\n      add\n        /* \"#utility.yul\":14616:14639   */\n      mload\n        /* \"#utility.yul\":14686:14689   */\n      dup5\n        /* \"#utility.yul\":14680:14684   */\n      dup3\n        /* \"#utility.yul\":14676:14690   */\n      sub\n        /* \"#utility.yul\":14669:14673   */\n      0x60\n        /* \"#utility.yul\":14664:14667   */\n      dup7\n        /* \"#utility.yul\":14660:14674   */\n      add\n        /* \"#utility.yul\":14653:14691   */\n      mstore\n        /* \"#utility.yul\":14712:14785   */\n      tag_485\n        /* \"#utility.yul\":14780:14784   */\n      dup3\n        /* \"#utility.yul\":14766:14778   */\n      dup3\n        /* \"#utility.yul\":14712:14785   */\n      tag_433\n      jump\t// in\n    tag_485:\n        /* \"#utility.yul\":14704:14785   */\n      swap2\n      pop\n        /* \"#utility.yul\":14556:14796   */\n      pop\n        /* \"#utility.yul\":14884:14888   */\n      0x80\n        /* \"#utility.yul\":14877:14882   */\n      dup4\n        /* \"#utility.yul\":14873:14889   */\n      add\n        /* \"#utility.yul\":14867:14890   */\n      mload\n        /* \"#utility.yul\":14937:14940   */\n      dup5\n        /* \"#utility.yul\":14931:14935   */\n      dup3\n        /* \"#utility.yul\":14927:14941   */\n      sub\n        /* \"#utility.yul\":14920:14924   */\n      0x80\n        /* \"#utility.yul\":14915:14918   */\n      dup7\n        /* \"#utility.yul\":14911:14925   */\n      add\n        /* \"#utility.yul\":14904:14942   */\n      mstore\n        /* \"#utility.yul\":14963:15036   */\n      tag_486\n        /* \"#utility.yul\":15031:15035   */\n      dup3\n        /* \"#utility.yul\":15017:15029   */\n      dup3\n        /* \"#utility.yul\":14963:15036   */\n      tag_433\n      jump\t// in\n    tag_486:\n        /* \"#utility.yul\":14955:15036   */\n      swap2\n      pop\n        /* \"#utility.yul\":14806:15047   */\n      pop\n        /* \"#utility.yul\":15133:15137   */\n      0xa0\n        /* \"#utility.yul\":15126:15131   */\n      dup4\n        /* \"#utility.yul\":15122:15138   */\n      add\n        /* \"#utility.yul\":15116:15139   */\n      mload\n        /* \"#utility.yul\":15186:15189   */\n      dup5\n        /* \"#utility.yul\":15180:15184   */\n      dup3\n        /* \"#utility.yul\":15176:15190   */\n      sub\n        /* \"#utility.yul\":15169:15173   */\n      0xa0\n        /* \"#utility.yul\":15164:15167   */\n      dup7\n        /* \"#utility.yul\":15160:15174   */\n      add\n        /* \"#utility.yul\":15153:15191   */\n      mstore\n        /* \"#utility.yul\":15212:15285   */\n      tag_487\n        /* \"#utility.yul\":15280:15284   */\n      dup3\n        /* \"#utility.yul\":15266:15278   */\n      dup3\n        /* \"#utility.yul\":15212:15285   */\n      tag_433\n      jump\t// in\n    tag_487:\n        /* \"#utility.yul\":15204:15285   */\n      swap2\n      pop\n        /* \"#utility.yul\":15057:15296   */\n      pop\n        /* \"#utility.yul\":15386:15390   */\n      0xc0\n        /* \"#utility.yul\":15379:15384   */\n      dup4\n        /* \"#utility.yul\":15375:15391   */\n      add\n        /* \"#utility.yul\":15369:15392   */\n      mload\n        /* \"#utility.yul\":15439:15442   */\n      dup5\n        /* \"#utility.yul\":15433:15437   */\n      dup3\n        /* \"#utility.yul\":15429:15443   */\n      sub\n        /* \"#utility.yul\":15422:15426   */\n      0xc0\n        /* \"#utility.yul\":15417:15420   */\n      dup7\n        /* \"#utility.yul\":15413:15427   */\n      add\n        /* \"#utility.yul\":15406:15444   */\n      mstore\n        /* \"#utility.yul\":15465:15538   */\n      tag_488\n        /* \"#utility.yul\":15533:15537   */\n      dup3\n        /* \"#utility.yul\":15519:15531   */\n      dup3\n        /* \"#utility.yul\":15465:15538   */\n      tag_433\n      jump\t// in\n    tag_488:\n        /* \"#utility.yul\":15457:15538   */\n      swap2\n      pop\n        /* \"#utility.yul\":15306:15549   */\n      pop\n        /* \"#utility.yul\":15637:15641   */\n      0xe0\n        /* \"#utility.yul\":15630:15635   */\n      dup4\n        /* \"#utility.yul\":15626:15642   */\n      add\n        /* \"#utility.yul\":15620:15643   */\n      mload\n        /* \"#utility.yul\":15656:15719   */\n      tag_489\n        /* \"#utility.yul\":15713:15717   */\n      0xe0\n        /* \"#utility.yul\":15708:15711   */\n      dup7\n        /* \"#utility.yul\":15704:15718   */\n      add\n        /* \"#utility.yul\":15690:15702   */\n      dup3\n        /* \"#utility.yul\":15656:15719   */\n      tag_490\n      jump\t// in\n    tag_489:\n        /* \"#utility.yul\":15559:15729   */\n      pop\n        /* \"#utility.yul\":15746:15750   */\n      dup1\n        /* \"#utility.yul\":15739:15750   */\n      swap2\n      pop\n        /* \"#utility.yul\":13830:15756   */\n      pop\n        /* \"#utility.yul\":13702:15756   */\n      swap3\n      swap2\n      pop\n      pop\n      jump\t// out\n        /* \"#utility.yul\":15814:16911   */\n    tag_491:\n        /* \"#utility.yul\":15925:15928   */\n      0x00\n        /* \"#utility.yul\":15961:15965   */\n      0x60\n        /* \"#utility.yul\":15956:15959   */\n      dup4\n        /* \"#utility.yul\":15952:15966   */\n      add\n        /* \"#utility.yul\":16064:16068   */\n      0x00\n        /* \"#utility.yul\":16057:16062   */\n      dup4\n        /* \"#utility.yul\":16053:16069   */\n      add\n        /* \"#utility.yul\":16047:16070   */\n      mload\n        /* \"#utility.yul\":16117:16120   */\n      dup5\n        /* \"#utility.yul\":16111:16115   */\n      dup3\n        /* \"#utility.yul\":16107:16121   */\n      sub\n        /* \"#utility.yul\":16100:16104   */\n      0x00\n        /* \"#utility.yul\":16095:16098   */\n      dup7\n        /* \"#utility.yul\":16091:16105   */\n      add\n        /* \"#utility.yul\":16084:16122   */\n      mstore\n        /* \"#utility.yul\":16143:16266   */\n      tag_493\n        /* \"#utility.yul\":16261:16265   */\n      dup3\n        /* \"#utility.yul\":16247:16259   */\n      dup3\n        /* \"#utility.yul\":16143:16266   */\n      tag_438\n      jump\t// in\n    tag_493:\n        /* \"#utility.yul\":16135:16266   */\n      swap2\n      pop\n        /* \"#utility.yul\":15976:16277   */\n      pop\n        /* \"#utility.yul\":16364:16368   */\n      0x20\n        /* \"#utility.yul\":16357:16362   */\n      dup4\n        /* \"#utility.yul\":16353:16369   */\n      add\n        /* \"#utility.yul\":16347:16370   */\n      mload\n        /* \"#utility.yul\":16417:16420   */\n      dup5\n        /* \"#utility.yul\":16411:16415   */\n      dup3\n        /* \"#utility.yul\":16407:16421   */\n      sub\n        /* \"#utility.yul\":16400:16404   */\n      0x20\n        /* \"#utility.yul\":16395:16398   */\n      dup7\n        /* \"#utility.yul\":16391:16405   */\n      add\n        /* \"#utility.yul\":16384:16422   */\n      mstore\n        /* \"#utility.yul\":16443:16566   */\n      tag_494\n        /* \"#utility.yul\":16561:16565   */\n      dup3\n        /* \"#utility.yul\":16547:16559   */\n      dup3\n        /* \"#utility.yul\":16443:16566   */\n      tag_438\n      jump\t// in\n    tag_494:\n        /* \"#utility.yul\":16435:16566   */\n      swap2\n      pop\n        /* \"#utility.yul\":16287:16577   */\n      pop\n        /* \"#utility.yul\":16671:16675   */\n      0x40\n        /* \"#utility.yul\":16664:16669   */\n      dup4\n        /* \"#utility.yul\":16660:16676   */\n      add\n        /* \"#utility.yul\":16654:16677   */\n      mload\n        /* \"#utility.yul\":16724:16727   */\n      dup5\n        /* \"#utility.yul\":16718:16722   */\n      dup3\n        /* \"#utility.yul\":16714:16728   */\n      sub\n        /* \"#utility.yul\":16707:16711   */\n      0x40\n        /* \"#utility.yul\":16702:16705   */\n      dup7\n        /* \"#utility.yul\":16698:16712   */\n      add\n        /* \"#utility.yul\":16691:16729   */\n      mstore\n        /* \"#utility.yul\":16750:16873   */\n      tag_495\n        /* \"#utility.yul\":16868:16872   */\n      dup3\n        /* \"#utility.yul\":16854:16866   */\n      dup3\n        /* \"#utility.yul\":16750:16873   */\n      tag_438\n      jump\t// in\n    tag_495:\n        /* \"#utility.yul\":16742:16873   */\n      swap2\n      pop\n        /* \"#utility.yul\":16587:16884   */\n      pop\n        /* \"#utility.yul\":16901:16905   */\n      dup1\n        /* \"#utility.yul\":16894:16905   */\n      swap2\n      pop\n        /* \"#utility.yul\":15930:16911   */\n      pop\n        /* \"#utility.yul\":15814:16911   */\n      swap3\n      swap2\n      pop\n      pop\n      jump\t// out\n        /* \"#utility.yul\":16917:17025   */\n    tag_490:\n        /* \"#utility.yul\":16994:17018   */\n      tag_497\n        /* \"#utility.yul\":17012:17017   */\n      dup2\n        /* \"#utility.yul\":16994:17018   */\n      tag_498\n      jump\t// in\n    tag_497:\n        /* \"#utility.yul\":16989:16992   */\n      dup3\n        /* \"#utility.yul\":16982:17019   */\n      mstore\n        /* \"#utility.yul\":16917:17025   */\n      pop\n      pop\n      jump\t// out\n        /* \"#utility.yul\":17031:17149   */\n    tag_499:\n        /* \"#utility.yul\":17118:17142   */\n      tag_501\n        /* \"#utility.yul\":17136:17141   */\n      dup2\n        /* \"#utility.yul\":17118:17142   */\n      tag_498\n      jump\t// in\n    tag_501:\n        /* \"#utility.yul\":17113:17116   */\n      dup3\n        /* \"#utility.yul\":17106:17143   */\n      mstore\n        /* \"#utility.yul\":17031:17149   */\n      pop\n      pop\n      jump\t// out\n        /* \"#utility.yul\":17155:18274   */\n    tag_61:\n        /* \"#utility.yul\":17460:17464   */\n      0x00\n        /* \"#utility.yul\":17498:17501   */\n      0xa0\n        /* \"#utility.yul\":17487:17496   */\n      dup3\n        /* \"#utility.yul\":17483:17502   */\n      add\n        /* \"#utility.yul\":17475:17502   */\n      swap1\n      pop\n        /* \"#utility.yul\":17548:17557   */\n      dup2\n        /* \"#utility.yul\":17542:17546   */\n      dup2\n        /* \"#utility.yul\":17538:17558   */\n      sub\n        /* \"#utility.yul\":17534:17535   */\n      0x00\n        /* \"#utility.yul\":17523:17532   */\n      dup4\n        /* \"#utility.yul\":17519:17536   */\n      add\n        /* \"#utility.yul\":17512:17559   */\n      mstore\n        /* \"#utility.yul\":17576:17654   */\n      tag_503\n        /* \"#utility.yul\":17649:17653   */\n      dup2\n        /* \"#utility.yul\":17640:17646   */\n      dup9\n        /* \"#utility.yul\":17576:17654   */\n      tag_461\n      jump\t// in\n    tag_503:\n        /* \"#utility.yul\":17568:17654   */\n      swap1\n      pop\n        /* \"#utility.yul\":17701:17710   */\n      dup2\n        /* \"#utility.yul\":17695:17699   */\n      dup2\n        /* \"#utility.yul\":17691:17711   */\n      sub\n        /* \"#utility.yul\":17686:17688   */\n      0x20\n        /* \"#utility.yul\":17675:17684   */\n      dup4\n        /* \"#utility.yul\":17671:17689   */\n      add\n        /* \"#utility.yul\":17664:17712   */\n      mstore\n        /* \"#utility.yul\":17729:17807   */\n      tag_504\n        /* \"#utility.yul\":17802:17806   */\n      dup2\n        /* \"#utility.yul\":17793:17799   */\n      dup8\n        /* \"#utility.yul\":17729:17807   */\n      tag_461\n      jump\t// in\n    tag_504:\n        /* \"#utility.yul\":17721:17807   */\n      swap1\n      pop\n        /* \"#utility.yul\":17854:17863   */\n      dup2\n        /* \"#utility.yul\":17848:17852   */\n      dup2\n        /* \"#utility.yul\":17844:17864   */\n      sub\n        /* \"#utility.yul\":17839:17841   */\n      0x40\n        /* \"#utility.yul\":17828:17837   */\n      dup4\n        /* \"#utility.yul\":17824:17842   */\n      add\n        /* \"#utility.yul\":17817:17865   */\n      mstore\n        /* \"#utility.yul\":17882:17960   */\n      tag_505\n        /* \"#utility.yul\":17955:17959   */\n      dup2\n        /* \"#utility.yul\":17946:17952   */\n      dup7\n        /* \"#utility.yul\":17882:17960   */\n      tag_461\n      jump\t// in\n    tag_505:\n        /* \"#utility.yul\":17874:17960   */\n      swap1\n      pop\n        /* \"#utility.yul\":18007:18016   */\n      dup2\n        /* \"#utility.yul\":18001:18005   */\n      dup2\n        /* \"#utility.yul\":17997:18017   */\n      sub\n        /* \"#utility.yul\":17992:17994   */\n      0x60\n        /* \"#utility.yul\":17981:17990   */\n      dup4\n        /* \"#utility.yul\":17977:17995   */\n      add\n        /* \"#utility.yul\":17970:18018   */\n      mstore\n        /* \"#utility.yul\":18035:18113   */\n      tag_506\n        /* \"#utility.yul\":18108:18112   */\n      dup2\n        /* \"#utility.yul\":18099:18105   */\n      dup6\n        /* \"#utility.yul\":18035:18113   */\n      tag_461\n      jump\t// in\n    tag_506:\n        /* \"#utility.yul\":18027:18113   */\n      swap1\n      pop\n        /* \"#utility.yul\":18161:18170   */\n      dup2\n        /* \"#utility.yul\":18155:18159   */\n      dup2\n        /* \"#utility.yul\":18151:18171   */\n      sub\n        /* \"#utility.yul\":18145:18148   */\n      0x80\n        /* \"#utility.yul\":18134:18143   */\n      dup4\n        /* \"#utility.yul\":18130:18149   */\n      add\n        /* \"#utility.yul\":18123:18172   */\n      mstore\n        /* \"#utility.yul\":18189:18267   */\n      tag_507\n        /* \"#utility.yul\":18262:18266   */\n      dup2\n        /* \"#utility.yul\":18253:18259   */\n      dup5\n        /* \"#utility.yul\":18189:18267   */\n      tag_461\n      jump\t// in\n    tag_507:\n        /* \"#utility.yul\":18181:18267   */\n      swap1\n      pop\n        /* \"#utility.yul\":17155:18274   */\n      swap7\n      swap6\n      pop\n      pop\n      pop\n      pop\n      pop\n      pop\n      jump\t// out\n        /* \"#utility.yul\":18280:19465   */\n    tag_50:\n        /* \"#utility.yul\":18671:18675   */\n      0x00\n        /* \"#utility.yul\":18709:18712   */\n      0x80\n        /* \"#utility.yul\":18698:18707   */\n      dup3\n        /* \"#utility.yul\":18694:18713   */\n      add\n        /* \"#utility.yul\":18686:18713   */\n      swap1\n      pop\n        /* \"#utility.yul\":18759:18768   */\n      dup2\n        /* \"#utility.yul\":18753:18757   */\n      dup2\n        /* \"#utility.yul\":18749:18769   */\n      sub\n        /* \"#utility.yul\":18745:18746   */\n      0x00\n        /* \"#utility.yul\":18734:18743   */\n      dup4\n        /* \"#utility.yul\":18730:18747   */\n      add\n        /* \"#utility.yul\":18723:18770   */\n      mstore\n        /* \"#utility.yul\":18787:18899   */\n      tag_509\n        /* \"#utility.yul\":18894:18898   */\n      dup2\n        /* \"#utility.yul\":18885:18891   */\n      dup8\n        /* \"#utility.yul\":18787:18899   */\n      tag_480\n      jump\t// in\n    tag_509:\n        /* \"#utility.yul\":18779:18899   */\n      swap1\n      pop\n        /* \"#utility.yul\":18946:18955   */\n      dup2\n        /* \"#utility.yul\":18940:18944   */\n      dup2\n        /* \"#utility.yul\":18936:18956   */\n      sub\n        /* \"#utility.yul\":18931:18933   */\n      0x20\n        /* \"#utility.yul\":18920:18929   */\n      dup4\n        /* \"#utility.yul\":18916:18934   */\n      add\n        /* \"#utility.yul\":18909:18957   */\n      mstore\n        /* \"#utility.yul\":18974:19080   */\n      tag_510\n        /* \"#utility.yul\":19075:19079   */\n      dup2\n        /* \"#utility.yul\":19066:19072   */\n      dup7\n        /* \"#utility.yul\":18974:19080   */\n      tag_472\n      jump\t// in\n    tag_510:\n        /* \"#utility.yul\":18966:19080   */\n      swap1\n      pop\n        /* \"#utility.yul\":19127:19136   */\n      dup2\n        /* \"#utility.yul\":19121:19125   */\n      dup2\n        /* \"#utility.yul\":19117:19137   */\n      sub\n        /* \"#utility.yul\":19112:19114   */\n      0x40\n        /* \"#utility.yul\":19101:19110   */\n      dup4\n        /* \"#utility.yul\":19097:19115   */\n      add\n        /* \"#utility.yul\":19090:19138   */\n      mstore\n        /* \"#utility.yul\":19155:19255   */\n      tag_511\n        /* \"#utility.yul\":19250:19254   */\n      dup2\n        /* \"#utility.yul\":19241:19247   */\n      dup6\n        /* \"#utility.yul\":19155:19255   */\n      tag_491\n      jump\t// in\n    tag_511:\n        /* \"#utility.yul\":19147:19255   */\n      swap1\n      pop\n        /* \"#utility.yul\":19302:19311   */\n      dup2\n        /* \"#utility.yul\":19296:19300   */\n      dup2\n        /* \"#utility.yul\":19292:19312   */\n      sub\n        /* \"#utility.yul\":19287:19289   */\n      0x60\n        /* \"#utility.yul\":19276:19285   */\n      dup4\n        /* \"#utility.yul\":19272:19290   */\n      add\n        /* \"#utility.yul\":19265:19313   */\n      mstore\n        /* \"#utility.yul\":19330:19458   */\n      tag_512\n        /* \"#utility.yul\":19453:19457   */\n      dup2\n        /* \"#utility.yul\":19444:19450   */\n      dup5\n        /* \"#utility.yul\":19330:19458   */\n      tag_468\n      jump\t// in\n    tag_512:\n        /* \"#utility.yul\":19322:19458   */\n      swap1\n      pop\n        /* \"#utility.yul\":18280:19465   */\n      swap6\n      swap5\n      pop\n      pop\n      pop\n      pop\n      pop\n      jump\t// out\n        /* \"#utility.yul\":19471:19693   */\n    tag_27:\n        /* \"#utility.yul\":19564:19568   */\n      0x00\n        /* \"#utility.yul\":19602:19604   */\n      0x20\n        /* \"#utility.yul\":19591:19600   */\n      dup3\n        /* \"#utility.yul\":19587:19605   */\n      add\n        /* \"#utility.yul\":19579:19605   */\n      swap1\n      pop\n        /* \"#utility.yul\":19615:19686   */\n      tag_514\n        /* \"#utility.yul\":19683:19684   */\n      0x00\n        /* \"#utility.yul\":19672:19681   */\n      dup4\n        /* \"#utility.yul\":19668:19685   */\n      add\n        /* \"#utility.yul\":19659:19665   */\n      dup5\n        /* \"#utility.yul\":19615:19686   */\n      tag_499\n      jump\t// in\n    tag_514:\n        /* \"#utility.yul\":19471:19693   */\n      swap3\n      swap2\n      pop\n      pop\n      jump\t// out\n        /* \"#utility.yul\":19699:19828   */\n    tag_324:\n        /* \"#utility.yul\":19733:19739   */\n      0x00\n        /* \"#utility.yul\":19760:19780   */\n      tag_516\n      tag_517\n      jump\t// in\n    tag_516:\n        /* \"#utility.yul\":19750:19780   */\n      swap1\n      pop\n        /* \"#utility.yul\":19789:19822   */\n      tag_518\n        /* \"#utility.yul\":19817:19821   */\n      dup3\n        /* \"#utility.yul\":19809:19815   */\n      dup3\n        /* \"#utility.yul\":19789:19822   */\n      tag_519\n      jump\t// in\n    tag_518:\n        /* \"#utility.yul\":19699:19828   */\n      swap2\n      swap1\n      pop\n      jump\t// out\n        /* \"#utility.yul\":19834:19909   */\n    tag_517:\n        /* \"#utility.yul\":19867:19873   */\n      0x00\n        /* \"#utility.yul\":19900:19902   */\n      0x40\n        /* \"#utility.yul\":19894:19903   */\n      mload\n        /* \"#utility.yul\":19884:19903   */\n      swap1\n      pop\n        /* \"#utility.yul\":19834:19909   */\n      swap1\n      jump\t// out\n        /* \"#utility.yul\":19915:20236   */\n    tag_323:\n        /* \"#utility.yul\":20002:20006   */\n      0x00\n        /* \"#utility.yul\":20092:20110   */\n      0xffffffffffffffff\n        /* \"#utility.yul\":20084:20090   */\n      dup3\n        /* \"#utility.yul\":20081:20111   */\n      gt\n        /* \"#utility.yul\":20078:20134   */\n      iszero\n      tag_522\n      jumpi\n        /* \"#utility.yul\":20114:20132   */\n      tag_523\n      tag_524\n      jump\t// in\n    tag_523:\n        /* \"#utility.yul\":20078:20134   */\n    tag_522:\n        /* \"#utility.yul\":20164:20168   */\n      0x20\n        /* \"#utility.yul\":20156:20162   */\n      dup3\n        /* \"#utility.yul\":20152:20169   */\n      mul\n        /* \"#utility.yul\":20144:20169   */\n      swap1\n      pop\n        /* \"#utility.yul\":20224:20228   */\n      0x20\n        /* \"#utility.yul\":20218:20222   */\n      dup2\n        /* \"#utility.yul\":20214:20229   */\n      add\n        /* \"#utility.yul\":20206:20229   */\n      swap1\n      pop\n        /* \"#utility.yul\":19915:20236   */\n      swap2\n      swap1\n      pop\n      jump\t// out\n        /* \"#utility.yul\":20242:20550   */\n    tag_340:\n        /* \"#utility.yul\":20304:20308   */\n      0x00\n        /* \"#utility.yul\":20394:20412   */\n      0xffffffffffffffff\n        /* \"#utility.yul\":20386:20392   */\n      dup3\n        /* \"#utility.yul\":20383:20413   */\n      gt\n        /* \"#utility.yul\":20380:20436   */\n      iszero\n      tag_526\n      jumpi\n        /* \"#utility.yul\":20416:20434   */\n      tag_527\n      tag_524\n      jump\t// in\n    tag_527:\n        /* \"#utility.yul\":20380:20436   */\n    tag_526:\n        /* \"#utility.yul\":20454:20483   */\n      tag_528\n        /* \"#utility.yul\":20476:20482   */\n      dup3\n        /* \"#utility.yul\":20454:20483   */\n      tag_460\n      jump\t// in\n    tag_528:\n        /* \"#utility.yul\":20446:20483   */\n      swap1\n      pop\n        /* \"#utility.yul\":20538:20542   */\n      0x20\n        /* \"#utility.yul\":20532:20536   */\n      dup2\n        /* \"#utility.yul\":20528:20543   */\n      add\n        /* \"#utility.yul\":20520:20543   */\n      swap1\n      pop\n        /* \"#utility.yul\":20242:20550   */\n      swap2\n      swap1\n      pop\n      jump\t// out\n        /* \"#utility.yul\":20556:20698   */\n    tag_445:\n        /* \"#utility.yul\":20633:20637   */\n      0x00\n        /* \"#utility.yul\":20656:20659   */\n      dup2\n        /* \"#utility.yul\":20648:20659   */\n      swap1\n      pop\n        /* \"#utility.yul\":20686:20690   */\n      0x20\n        /* \"#utility.yul\":20681:20684   */\n      dup3\n        /* \"#utility.yul\":20677:20691   */\n      add\n        /* \"#utility.yul\":20669:20691   */\n      swap1\n      pop\n        /* \"#utility.yul\":20556:20698   */\n      swap2\n      swap1\n      pop\n      jump\t// out\n        /* \"#utility.yul\":20704:20828   */\n    tag_441:\n        /* \"#utility.yul\":20781:20787   */\n      0x00\n        /* \"#utility.yul\":20815:20820   */\n      dup2\n        /* \"#utility.yul\":20809:20821   */\n      mload\n        /* \"#utility.yul\":20799:20821   */\n      swap1\n      pop\n        /* \"#utility.yul\":20704:20828   */\n      swap2\n      swap1\n      pop\n      jump\t// out\n        /* \"#utility.yul\":20834:20933   */\n    tag_454:\n        /* \"#utility.yul\":20886:20892   */\n      0x00\n        /* \"#utility.yul\":20920:20925   */\n      dup2\n        /* \"#utility.yul\":20914:20926   */\n      mload\n        /* \"#utility.yul\":20904:20926   */\n      swap1\n      pop\n        /* \"#utility.yul\":20834:20933   */\n      swap2\n      swap1\n      pop\n      jump\t// out\n        /* \"#utility.yul\":20939:21062   */\n    tag_451:\n        /* \"#utility.yul\":21019:21023   */\n      0x00\n        /* \"#utility.yul\":21051:21055   */\n      0x20\n        /* \"#utility.yul\":21046:21049   */\n      dup3\n        /* \"#utility.yul\":21042:21056   */\n      add\n        /* \"#utility.yul\":21034:21056   */\n      swap1\n      pop\n        /* \"#utility.yul\":20939:21062   */\n      swap2\n      swap1\n      pop\n      jump\t// out\n        /* \"#utility.yul\":21068:21252   */\n    tag_443:\n        /* \"#utility.yul\":21167:21178   */\n      0x00\n        /* \"#utility.yul\":21201:21207   */\n      dup3\n        /* \"#utility.yul\":21196:21199   */\n      dup3\n        /* \"#utility.yul\":21189:21208   */\n      mstore\n        /* \"#utility.yul\":21241:21245   */\n      0x20\n        /* \"#utility.yul\":21236:21239   */\n      dup3\n        /* \"#utility.yul\":21232:21246   */\n      add\n        /* \"#utility.yul\":21217:21246   */\n      swap1\n      pop\n        /* \"#utility.yul\":21068:21252   */\n      swap3\n      swap2\n      pop\n      pop\n      jump\t// out\n        /* \"#utility.yul\":21258:21417   */\n    tag_456:\n        /* \"#utility.yul\":21332:21343   */\n      0x00\n        /* \"#utility.yul\":21366:21372   */\n      dup3\n        /* \"#utility.yul\":21361:21364   */\n      dup3\n        /* \"#utility.yul\":21354:21373   */\n      mstore\n        /* \"#utility.yul\":21406:21410   */\n      0x20\n        /* \"#utility.yul\":21401:21404   */\n      dup3\n        /* \"#utility.yul\":21397:21411   */\n      add\n        /* \"#utility.yul\":21382:21411   */\n      swap1\n      pop\n        /* \"#utility.yul\":21258:21417   */\n      swap3\n      swap2\n      pop\n      pop\n      jump\t// out\n        /* \"#utility.yul\":21423:21592   */\n    tag_465:\n        /* \"#utility.yul\":21507:21518   */\n      0x00\n        /* \"#utility.yul\":21541:21547   */\n      dup3\n        /* \"#utility.yul\":21536:21539   */\n      dup3\n        /* \"#utility.yul\":21529:21548   */\n      mstore\n        /* \"#utility.yul\":21581:21585   */\n      0x20\n        /* \"#utility.yul\":21576:21579   */\n      dup3\n        /* \"#utility.yul\":21572:21586   */\n      add\n        /* \"#utility.yul\":21557:21586   */\n      swap1\n      pop\n        /* \"#utility.yul\":21423:21592   */\n      swap3\n      swap2\n      pop\n      pop\n      jump\t// out\n        /* \"#utility.yul\":21598:21694   */\n    tag_437:\n        /* \"#utility.yul\":21635:21642   */\n      0x00\n        /* \"#utility.yul\":21664:21688   */\n      tag_537\n        /* \"#utility.yul\":21682:21687   */\n      dup3\n        /* \"#utility.yul\":21664:21688   */\n      tag_538\n      jump\t// in\n    tag_537:\n        /* \"#utility.yul\":21653:21688   */\n      swap1\n      pop\n        /* \"#utility.yul\":21598:21694   */\n      swap2\n      swap1\n      pop\n      jump\t// out\n        /* \"#utility.yul\":21700:21826   */\n    tag_538:\n        /* \"#utility.yul\":21737:21744   */\n      0x00\n        /* \"#utility.yul\":21777:21819   */\n      0xffffffffffffffffffffffffffffffffffffffff\n        /* \"#utility.yul\":21770:21775   */\n      dup3\n        /* \"#utility.yul\":21766:21820   */\n      and\n        /* \"#utility.yul\":21755:21820   */\n      swap1\n      pop\n        /* \"#utility.yul\":21700:21826   */\n      swap2\n      swap1\n      pop\n      jump\t// out\n        /* \"#utility.yul\":21832:21909   */\n    tag_498:\n        /* \"#utility.yul\":21869:21876   */\n      0x00\n        /* \"#utility.yul\":21898:21903   */\n      dup2\n        /* \"#utility.yul\":21887:21903   */\n      swap1\n      pop\n        /* \"#utility.yul\":21832:21909   */\n      swap2\n      swap1\n      pop\n      jump\t// out\n        /* \"#utility.yul\":21915:22069   */\n    tag_345:\n        /* \"#utility.yul\":21999:22005   */\n      dup3\n        /* \"#utility.yul\":21994:21997   */\n      dup2\n        /* \"#utility.yul\":21989:21992   */\n      dup4\n        /* \"#utility.yul\":21976:22006   */\n      calldatacopy\n        /* \"#utility.yul\":22061:22062   */\n      0x00\n        /* \"#utility.yul\":22052:22058   */\n      dup4\n        /* \"#utility.yul\":22047:22050   */\n      dup4\n        /* \"#utility.yul\":22043:22059   */\n      add\n        /* \"#utility.yul\":22036:22063   */\n      mstore\n        /* \"#utility.yul\":21915:22069   */\n      pop\n      pop\n      pop\n      jump\t// out\n        /* \"#utility.yul\":22075:22382   */\n    tag_458:\n        /* \"#utility.yul\":22143:22144   */\n      0x00\n        /* \"#utility.yul\":22153:22266   */\n    tag_543:\n        /* \"#utility.yul\":22167:22173   */\n      dup4\n        /* \"#utility.yul\":22164:22165   */\n      dup2\n        /* \"#utility.yul\":22161:22174   */\n      lt\n        /* \"#utility.yul\":22153:22266   */\n      iszero\n      tag_545\n      jumpi\n        /* \"#utility.yul\":22252:22253   */\n      dup1\n        /* \"#utility.yul\":22247:22250   */\n      dup3\n        /* \"#utility.yul\":22243:22254   */\n      add\n        /* \"#utility.yul\":22237:22255   */\n      mload\n        /* \"#utility.yul\":22233:22234   */\n      dup2\n        /* \"#utility.yul\":22228:22231   */\n      dup5\n        /* \"#utility.yul\":22224:22235   */\n      add\n        /* \"#utility.yul\":22217:22256   */\n      mstore\n        /* \"#utility.yul\":22189:22191   */\n      0x20\n        /* \"#utility.yul\":22186:22187   */\n      dup2\n        /* \"#utility.yul\":22182:22192   */\n      add\n        /* \"#utility.yul\":22177:22192   */\n      swap1\n      pop\n        /* \"#utility.yul\":22153:22266   */\n      jump(tag_543)\n    tag_545:\n        /* \"#utility.yul\":22284:22290   */\n      dup4\n        /* \"#utility.yul\":22281:22282   */\n      dup2\n        /* \"#utility.yul\":22278:22291   */\n      gt\n        /* \"#utility.yul\":22275:22376   */\n      iszero\n      tag_546\n      jumpi\n        /* \"#utility.yul\":22364:22365   */\n      0x00\n        /* \"#utility.yul\":22355:22361   */\n      dup5\n        /* \"#utility.yul\":22350:22353   */\n      dup5\n        /* \"#utility.yul\":22346:22362   */\n      add\n        /* \"#utility.yul\":22339:22366   */\n      mstore\n        /* \"#utility.yul\":22275:22376   */\n    tag_546:\n        /* \"#utility.yul\":22124:22382   */\n      pop\n        /* \"#utility.yul\":22075:22382   */\n      pop\n      pop\n      pop\n      jump\t// out\n        /* \"#utility.yul\":22388:22708   */\n    tag_117:\n        /* \"#utility.yul\":22432:22438   */\n      0x00\n        /* \"#utility.yul\":22469:22470   */\n      0x02\n        /* \"#utility.yul\":22463:22467   */\n      dup3\n        /* \"#utility.yul\":22459:22471   */\n      div\n        /* \"#utility.yul\":22449:22471   */\n      swap1\n      pop\n        /* \"#utility.yul\":22516:22517   */\n      0x01\n        /* \"#utility.yul\":22510:22514   */\n      dup3\n        /* \"#utility.yul\":22506:22518   */\n      and\n        /* \"#utility.yul\":22537:22555   */\n      dup1\n        /* \"#utility.yul\":22527:22608   */\n      tag_548\n      jumpi\n        /* \"#utility.yul\":22593:22597   */\n      0x7f\n        /* \"#utility.yul\":22585:22591   */\n      dup3\n        /* \"#utility.yul\":22581:22598   */\n      and\n        /* \"#utility.yul\":22571:22598   */\n      swap2\n      pop\n        /* \"#utility.yul\":22527:22608   */\n    tag_548:\n        /* \"#utility.yul\":22655:22657   */\n      0x20\n        /* \"#utility.yul\":22647:22653   */\n      dup3\n        /* \"#utility.yul\":22644:22658   */\n      lt\n        /* \"#utility.yul\":22624:22642   */\n      dup2\n        /* \"#utility.yul\":22621:22659   */\n      eq\n        /* \"#utility.yul\":22618:22702   */\n      iszero\n      tag_549\n      jumpi\n        /* \"#utility.yul\":22674:22692   */\n      tag_550\n      tag_551\n      jump\t// in\n    tag_550:\n        /* \"#utility.yul\":22618:22702   */\n    tag_549:\n        /* \"#utility.yul\":22439:22708   */\n      pop\n        /* \"#utility.yul\":22388:22708   */\n      swap2\n      swap1\n      pop\n      jump\t// out\n        /* \"#utility.yul\":22714:22995   */\n    tag_519:\n        /* \"#utility.yul\":22797:22824   */\n      tag_553\n        /* \"#utility.yul\":22819:22823   */\n      dup3\n        /* \"#utility.yul\":22797:22824   */\n      tag_460\n      jump\t// in\n    tag_553:\n        /* \"#utility.yul\":22789:22795   */\n      dup2\n        /* \"#utility.yul\":22785:22825   */\n      add\n        /* \"#utility.yul\":22927:22933   */\n      dup2\n        /* \"#utility.yul\":22915:22925   */\n      dup2\n        /* \"#utility.yul\":22912:22934   */\n      lt\n        /* \"#utility.yul\":22891:22909   */\n      0xffffffffffffffff\n        /* \"#utility.yul\":22879:22889   */\n      dup3\n        /* \"#utility.yul\":22876:22910   */\n      gt\n        /* \"#utility.yul\":22873:22935   */\n      or\n        /* \"#utility.yul\":22870:22958   */\n      iszero\n      tag_554\n      jumpi\n        /* \"#utility.yul\":22938:22956   */\n      tag_555\n      tag_524\n      jump\t// in\n    tag_555:\n        /* \"#utility.yul\":22870:22958   */\n    tag_554:\n        /* \"#utility.yul\":22978:22988   */\n      dup1\n        /* \"#utility.yul\":22974:22976   */\n      0x40\n        /* \"#utility.yul\":22967:22989   */\n      mstore\n        /* \"#utility.yul\":22757:22995   */\n      pop\n        /* \"#utility.yul\":22714:22995   */\n      pop\n      pop\n      jump\t// out\n        /* \"#utility.yul\":23001:23181   */\n    tag_551:\n        /* \"#utility.yul\":23049:23126   */\n      0x4e487b7100000000000000000000000000000000000000000000000000000000\n        /* \"#utility.yul\":23046:23047   */\n      0x00\n        /* \"#utility.yul\":23039:23127   */\n      mstore\n        /* \"#utility.yul\":23146:23150   */\n      0x22\n        /* \"#utility.yul\":23143:23144   */\n      0x04\n        /* \"#utility.yul\":23136:23151   */\n      mstore\n        /* \"#utility.yul\":23170:23174   */\n      0x24\n        /* \"#utility.yul\":23167:23168   */\n      0x00\n        /* \"#utility.yul\":23160:23175   */\n      revert\n        /* \"#utility.yul\":23187:23367   */\n    tag_225:\n        /* \"#utility.yul\":23235:23312   */\n      0x4e487b7100000000000000000000000000000000000000000000000000000000\n        /* \"#utility.yul\":23232:23233   */\n      0x00\n        /* \"#utility.yul\":23225:23313   */\n      mstore\n        /* \"#utility.yul\":23332:23336   */\n      0x32\n        /* \"#utility.yul\":23329:23330   */\n      0x04\n        /* \"#utility.yul\":23322:23337   */\n      mstore\n        /* \"#utility.yul\":23356:23360   */\n      0x24\n        /* \"#utility.yul\":23353:23354   */\n      0x00\n        /* \"#utility.yul\":23346:23361   */\n      revert\n        /* \"#utility.yul\":23373:23553   */\n    tag_524:\n        /* \"#utility.yul\":23421:23498   */\n      0x4e487b7100000000000000000000000000000000000000000000000000000000\n        /* \"#utility.yul\":23418:23419   */\n      0x00\n        /* \"#utility.yul\":23411:23499   */\n      mstore\n        /* \"#utility.yul\":23518:23522   */\n      0x41\n        /* \"#utility.yul\":23515:23516   */\n      0x04\n        /* \"#utility.yul\":23508:23523   */\n      mstore\n        /* \"#utility.yul\":23542:23546   */\n      0x24\n        /* \"#utility.yul\":23539:23540   */\n      0x00\n        /* \"#utility.yul\":23532:23547   */\n      revert\n        /* \"#utility.yul\":23559:23676   */\n    tag_333:\n        /* \"#utility.yul\":23668:23669   */\n      0x00\n        /* \"#utility.yul\":23665:23666   */\n      dup1\n        /* \"#utility.yul\":23658:23670   */\n      revert\n        /* \"#utility.yul\":23682:23799   */\n    tag_327:\n        /* \"#utility.yul\":23791:23792   */\n      0x00\n        /* \"#utility.yul\":23788:23789   */\n      dup1\n        /* \"#utility.yul\":23781:23793   */\n      revert\n        /* \"#utility.yul\":23805:23922   */\n    tag_343:\n        /* \"#utility.yul\":23914:23915   */\n      0x00\n        /* \"#utility.yul\":23911:23912   */\n      dup1\n        /* \"#utility.yul\":23904:23916   */\n      revert\n        /* \"#utility.yul\":23928:24045   */\n    tag_373:\n        /* \"#utility.yul\":24037:24038   */\n      0x00\n        /* \"#utility.yul\":24034:24035   */\n      dup1\n        /* \"#utility.yul\":24027:24039   */\n      revert\n        /* \"#utility.yul\":24051:24168   */\n    tag_366:\n        /* \"#utility.yul\":24160:24161   */\n      0x00\n        /* \"#utility.yul\":24157:24158   */\n      dup1\n        /* \"#utility.yul\":24150:24162   */\n      revert\n        /* \"#utility.yul\":24174:24276   */\n    tag_460:\n        /* \"#utility.yul\":24215:24221   */\n      0x00\n        /* \"#utility.yul\":24266:24268   */\n      0x1f\n        /* \"#utility.yul\":24262:24269   */\n      not\n        /* \"#utility.yul\":24257:24259   */\n      0x1f\n        /* \"#utility.yul\":24250:24255   */\n      dup4\n        /* \"#utility.yul\":24246:24260   */\n      add\n        /* \"#utility.yul\":24242:24270   */\n      and\n        /* \"#utility.yul\":24232:24270   */\n      swap1\n      pop\n        /* \"#utility.yul\":24174:24276   */\n      swap2\n      swap1\n      pop\n      jump\t// out\n        /* \"#utility.yul\":24282:24404   */\n    tag_349:\n        /* \"#utility.yul\":24355:24379   */\n      tag_566\n        /* \"#utility.yul\":24373:24378   */\n      dup2\n        /* \"#utility.yul\":24355:24379   */\n      tag_437\n      jump\t// in\n    tag_566:\n        /* \"#utility.yul\":24348:24353   */\n      dup2\n        /* \"#utility.yul\":24345:24380   */\n      eq\n        /* \"#utility.yul\":24335:24398   */\n      tag_567\n      jumpi\n        /* \"#utility.yul\":24394:24395   */\n      0x00\n        /* \"#utility.yul\":24391:24392   */\n      dup1\n        /* \"#utility.yul\":24384:24396   */\n      revert\n        /* \"#utility.yul\":24335:24398   */\n    tag_567:\n        /* \"#utility.yul\":24282:24404   */\n      pop\n      jump\t// out\n        /* \"#utility.yul\":24410:24532   */\n    tag_362:\n        /* \"#utility.yul\":24483:24507   */\n      tag_569\n        /* \"#utility.yul\":24501:24506   */\n      dup2\n        /* \"#utility.yul\":24483:24507   */\n      tag_498\n      jump\t// in\n    tag_569:\n        /* \"#utility.yul\":24476:24481   */\n      dup2\n        /* \"#utility.yul\":24473:24508   */\n      eq\n        /* \"#utility.yul\":24463:24526   */\n      tag_570\n      jumpi\n        /* \"#utility.yul\":24522:24523   */\n      0x00\n        /* \"#utility.yul\":24519:24520   */\n      dup1\n        /* \"#utility.yul\":24512:24524   */\n      revert\n        /* \"#utility.yul\":24463:24526   */\n    tag_570:\n        /* \"#utility.yul\":24410:24532   */\n      pop\n      jump\t// out\n\n    auxdata: 0xa2646970667358221220cb8e2549d67a132ca4064fe8deddaf8d079f49926802ced313f490219af1405564736f6c63430008070033\n}\n",
				"bytecode": {
					"linkReferences": {},
					"object": "608060405234801561001057600080fd5b50612d4c806100206000396000f3fe608060405234801561001057600080fd5b50600436106100cf5760003560e01c806395ea37571161008c578063d759b83011610066578063d759b830146101c5578063ed2217ef146101e1578063f96e32f8146101eb578063fabce08f1461021f576100cf565b806395ea37571461016c57806397c35b02146101765780639dd9d0fd14610192576100cf565b80633d984d0e146100d45780634ed74067146100f05780636212fa02146100fa57806366244dfb146101185780637282838814610134578063958791ae14610150575b600080fd5b6100ee60048036038101906100e9919061231d565b610229565b005b6100f86103ad565b005b610102610413565b60405161010f9190612a4d565b60405180910390f35b610132600480360381019061012d91906123c4565b61045f565b005b61014e600480360381019061014991906123c4565b61059a565b005b61016a600480360381019061016591906124cb565b610802565b005b610174610aec565b005b610190600480360381019061018b91906122d4565b610bc1565b005b6101ac60048036038101906101a791906122a7565b610c1d565b6040516101bc94939291906129ec565b60405180910390f35b6101df60048036038101906101da91906122d4565b6117eb565b005b6101e9611847565b005b61020560048036038101906102009190612600565b611896565b604051610216959493929190612976565b60405180910390f35b610227611d61565b005b6000803373ffffffffffffffffffffffffffffffffffffffff1673ffffffffffffffffffffffffffffffffffffffff168152602001908152602001600020600e016000808201600061027b9190611f0f565b60018201600061028b9190611f0f565b60028201600061029b9190611f0f565b5050826000803373ffffffffffffffffffffffffffffffffffffffff1673ffffffffffffffffffffffffffffffffffffffff168152602001908152602001600020600e0160000190805190602001906102f5929190611f30565b50816000803373ffffffffffffffffffffffffffffffffffffffff1673ffffffffffffffffffffffffffffffffffffffff168152602001908152602001600020600e01600101908051906020019061034e929190611f30565b50806000803373ffffffffffffffffffffffffffffffffffffffff1673ffffffffffffffffffffffffffffffffffffffff168152602001908152602001600020600e0160020190805190602001906103a7929190611f30565b50505050565b6000803373ffffffffffffffffffffffffffffffffffffffff1673ffffffffffffffffffffffffffffffffffffffff168152602001908152602001600020601201600080820160006103ff9190611f0f565b60018201600061040f9190611f0f565b5050565b60008060003373ffffffffffffffffffffffffffffffffffffffff1673ffffffffffffffffffffffffffffffffffffffff16815260200190815260200160002060110180549050905090565b610467611f90565b8581600001819052508481602001819052508381604001819052508281606001819052508181608001819052506000803373ffffffffffffffffffffffffffffffffffffffff1673ffffffffffffffffffffffffffffffffffffffff168152602001908152602001600020601101819080600181540180825580915050600190039060005260206000209060050201600090919091909150600082015181600001908051906020019061051b929190611fbf565b506020820151816001019080519060200190610538929190611fbf565b506040820151816002019080519060200190610555929190611fbf565b506060820151816003019080519060200190610572929190611fbf565b50608082015181600401908051906020019061058f929190611fbf565b505050505050505050565b6000803373ffffffffffffffffffffffffffffffffffffffff1673ffffffffffffffffffffffffffffffffffffffff168152602001908152602001600020600801600080820160006105ec9190612045565b6001820160006105fc9190612045565b60028201600061060c9190612045565b60038201600061061c9190612045565b60048201600061062c9190612045565b60058201600061063c9190612045565b5050846000803373ffffffffffffffffffffffffffffffffffffffff1673ffffffffffffffffffffffffffffffffffffffff1681526020019081526020016000206008016001019080519060200190610696929190611fbf565b50836000803373ffffffffffffffffffffffffffffffffffffffff1673ffffffffffffffffffffffffffffffffffffffff16815260200190815260200160002060080160020190805190602001906106ef929190611fbf565b50826000803373ffffffffffffffffffffffffffffffffffffffff1673ffffffffffffffffffffffffffffffffffffffff1681526020019081526020016000206008016003019080519060200190610748929190611fbf565b50816000803373ffffffffffffffffffffffffffffffffffffffff1673ffffffffffffffffffffffffffffffffffffffff16815260200190815260200160002060080160020190805190602001906107a1929190611fbf565b50806000803373ffffffffffffffffffffffffffffffffffffffff1673ffffffffffffffffffffffffffffffffffffffff16815260200190815260200160002060080160010190805190602001906107fa929190611fbf565b505050505050565b856000803373ffffffffffffffffffffffffffffffffffffffff1673ffffffffffffffffffffffffffffffffffffffff168152602001908152602001600020600001600301908051906020019061085a929190611fbf565b50846000803373ffffffffffffffffffffffffffffffffffffffff1673ffffffffffffffffffffffffffffffffffffffff16815260200190815260200160002060000160040190805190602001906108b3929190611fbf565b50836000803373ffffffffffffffffffffffffffffffffffffffff1673ffffffffffffffffffffffffffffffffffffffff168152602001908152602001600020600001600501908051906020019061090c929190611fbf565b50826000803373ffffffffffffffffffffffffffffffffffffffff1673ffffffffffffffffffffffffffffffffffffffff1681526020019081526020016000206000016006019080519060200190610965929190611fbf565b50816000803373ffffffffffffffffffffffffffffffffffffffff1673ffffffffffffffffffffffffffffffffffffffff16815260200190815260200160002060000160000190805190602001906109be929190611fbf565b50806000803373ffffffffffffffffffffffffffffffffffffffff1673ffffffffffffffffffffffffffffffffffffffff1681526020019081526020016000206000016001019080519060200190610a17929190611fbf565b50336000803373ffffffffffffffffffffffffffffffffffffffff1673ffffffffffffffffffffffffffffffffffffffff16815260200190815260200160002060000160020160006101000a81548173ffffffffffffffffffffffffffffffffffffffff021916908373ffffffffffffffffffffffffffffffffffffffff160217905550426000803373ffffffffffffffffffffffffffffffffffffffff1673ffffffffffffffffffffffffffffffffffffffff16815260200190815260200160002060000160070181905550505050505050565b6000803373ffffffffffffffffffffffffffffffffffffffff1673ffffffffffffffffffffffffffffffffffffffff16815260200190815260200160002060000160008082016000610b3e9190612045565b600182016000610b4e9190612045565b6002820160006101000a81549073ffffffffffffffffffffffffffffffffffffffff0219169055600382016000610b859190612045565b600482016000610b959190612045565b600582016000610ba59190612045565b600682016000610bb59190612045565b60078201600090555050565b806000803373ffffffffffffffffffffffffffffffffffffffff1673ffffffffffffffffffffffffffffffffffffffff1681526020019081526020016000206012016001019080519060200190610c19929190611f30565b5050565b60006020528060005260406000206000915090508060000160405180610100016040529081600082018054610c5190612bce565b80601f0160208091040260200160405190810160405280929190818152602001828054610c7d90612bce565b8015610cca5780601f10610c9f57610100808354040283529160200191610cca565b820191906000526020600020905b815481529060010190602001808311610cad57829003601f168201915b50505050508152602001600182018054610ce390612bce565b80601f0160208091040260200160405190810160405280929190818152602001828054610d0f90612bce565b8015610d5c5780601f10610d3157610100808354040283529160200191610d5c565b820191906000526020600020905b815481529060010190602001808311610d3f57829003601f168201915b505050505081526020016002820160009054906101000a900473ffffffffffffffffffffffffffffffffffffffff1673ffffffffffffffffffffffffffffffffffffffff1673ffffffffffffffffffffffffffffffffffffffff168152602001600382018054610dcb90612bce565b80601f0160208091040260200160405190810160405280929190818152602001828054610df790612bce565b8015610e445780601f10610e1957610100808354040283529160200191610e44565b820191906000526020600020905b815481529060010190602001808311610e2757829003601f168201915b50505050508152602001600482018054610e5d90612bce565b80601f0160208091040260200160405190810160405280929190818152602001828054610e8990612bce565b8015610ed65780601f10610eab57610100808354040283529160200191610ed6565b820191906000526020600020905b815481529060010190602001808311610eb957829003601f168201915b50505050508152602001600582018054610eef90612bce565b80601f0160208091040260200160405190810160405280929190818152602001828054610f1b90612bce565b8015610f685780601f10610f3d57610100808354040283529160200191610f68565b820191906000526020600020905b815481529060010190602001808311610f4b57829003601f168201915b50505050508152602001600682018054610f8190612bce565b80601f0160208091040260200160405190810160405280929190818152602001828054610fad90612bce565b8015610ffa5780601f10610fcf57610100808354040283529160200191610ffa565b820191906000526020600020905b815481529060010190602001808311610fdd57829003601f168201915b5050505050815260200160078201548152505090806008016040518060c001604052908160008201805461102d90612bce565b80601f016020809104026020016040519081016040528092919081815260200182805461105990612bce565b80156110a65780601f1061107b576101008083540402835291602001916110a6565b820191906000526020600020905b81548152906001019060200180831161108957829003601f168201915b505050505081526020016001820180546110bf90612bce565b80601f01602080910402602001604051908101604052809291908181526020018280546110eb90612bce565b80156111385780601f1061110d57610100808354040283529160200191611138565b820191906000526020600020905b81548152906001019060200180831161111b57829003601f168201915b5050505050815260200160028201805461115190612bce565b80601f016020809104026020016040519081016040528092919081815260200182805461117d90612bce565b80156111ca5780601f1061119f576101008083540402835291602001916111ca565b820191906000526020600020905b8154815290600101906020018083116111ad57829003601f168201915b505050505081526020016003820180546111e390612bce565b80601f016020809104026020016040519081016040528092919081815260200182805461120f90612bce565b801561125c5780601f106112315761010080835404028352916020019161125c565b820191906000526020600020905b81548152906001019060200180831161123f57829003601f168201915b5050505050815260200160048201805461127590612bce565b80601f01602080910402602001604051908101604052809291908181526020018280546112a190612bce565b80156112ee5780601f106112c3576101008083540402835291602001916112ee565b820191906000526020600020905b8154815290600101906020018083116112d157829003601f168201915b5050505050815260200160058201805461130790612bce565b80601f016020809104026020016040519081016040528092919081815260200182805461133390612bce565b80156113805780601f1061135557610100808354040283529160200191611380565b820191906000526020600020905b81548152906001019060200180831161136357829003601f168201915b5050505050815250509080600e0160405180606001604052908160008201805480602002602001604051908101604052809291908181526020016000905b8282101561146a5783829060005260206000200180546113dd90612bce565b80601f016020809104026020016040519081016040528092919081815260200182805461140990612bce565b80156114565780601f1061142b57610100808354040283529160200191611456565b820191906000526020600020905b81548152906001019060200180831161143957829003601f168201915b5050505050815260200190600101906113be565b50505050815260200160018201805480602002602001604051908101604052809291908181526020016000905b828210156115435783829060005260206000200180546114b690612bce565b80601f01602080910402602001604051908101604052809291908181526020018280546114e290612bce565b801561152f5780601f106115045761010080835404028352916020019161152f565b820191906000526020600020905b81548152906001019060200180831161151257829003601f168201915b505050505081526020019060010190611497565b50505050815260200160028201805480602002602001604051908101604052809291908181526020016000905b8282101561161c57838290600052602060002001805461158f90612bce565b80601f01602080910402602001604051908101604052809291908181526020018280546115bb90612bce565b80156116085780601f106115dd57610100808354040283529160200191611608565b820191906000526020600020905b8154815290600101906020018083116115eb57829003601f168201915b505050505081526020019060010190611570565b5050505081525050908060120160405180604001604052908160008201805480602002602001604051908101604052809291908181526020016000905b8282101561170557838290600052602060002001805461167890612bce565b80601f01602080910402602001604051908101604052809291908181526020018280546116a490612bce565b80156116f15780601f106116c6576101008083540402835291602001916116f1565b820191906000526020600020905b8154815290600101906020018083116116d457829003601f168201915b505050505081526020019060010190611659565b50505050815260200160018201805480602002602001604051908101604052809291908181526020016000905b828210156117de57838290600052602060002001805461175190612bce565b80601f016020809104026020016040519081016040528092919081815260200182805461177d90612bce565b80156117ca5780601f1061179f576101008083540402835291602001916117ca565b820191906000526020600020905b8154815290600101906020018083116117ad57829003601f168201915b505050505081526020019060010190611732565b5050505081525050905084565b806000803373ffffffffffffffffffffffffffffffffffffffff1673ffffffffffffffffffffffffffffffffffffffff1681526020019081526020016000206012016000019080519060200190611843929190611f30565b5050565b6000803373ffffffffffffffffffffffffffffffffffffffff1673ffffffffffffffffffffffffffffffffffffffff16815260200190815260200160002060110160006118949190612085565b565b60608060608060606000803373ffffffffffffffffffffffffffffffffffffffff1673ffffffffffffffffffffffffffffffffffffffff16815260200190815260200160002060110186815481106118f1576118f0612c60565b5b90600052602060002090600502016000016000803373ffffffffffffffffffffffffffffffffffffffff1673ffffffffffffffffffffffffffffffffffffffff168152602001908152602001600020601101878154811061195557611954612c60565b5b90600052602060002090600502016001016000803373ffffffffffffffffffffffffffffffffffffffff1673ffffffffffffffffffffffffffffffffffffffff16815260200190815260200160002060110188815481106119b9576119b8612c60565b5b90600052602060002090600502016002016000803373ffffffffffffffffffffffffffffffffffffffff1673ffffffffffffffffffffffffffffffffffffffff1681526020019081526020016000206011018981548110611a1d57611a1c612c60565b5b90600052602060002090600502016003016000803373ffffffffffffffffffffffffffffffffffffffff1673ffffffffffffffffffffffffffffffffffffffff1681526020019081526020016000206011018a81548110611a8157611a80612c60565b5b9060005260206000209060050201600401848054611a9e90612bce565b80601f0160208091040260200160405190810160405280929190818152602001828054611aca90612bce565b8015611b175780601f10611aec57610100808354040283529160200191611b17565b820191906000526020600020905b815481529060010190602001808311611afa57829003601f168201915b50505050509450838054611b2a90612bce565b80601f0160208091040260200160405190810160405280929190818152602001828054611b5690612bce565b8015611ba35780601f10611b7857610100808354040283529160200191611ba3565b820191906000526020600020905b815481529060010190602001808311611b8657829003601f168201915b50505050509350828054611bb690612bce565b80601f0160208091040260200160405190810160405280929190818152602001828054611be290612bce565b8015611c2f5780601f10611c0457610100808354040283529160200191611c2f565b820191906000526020600020905b815481529060010190602001808311611c1257829003601f168201915b50505050509250818054611c4290612bce565b80601f0160208091040260200160405190810160405280929190818152602001828054611c6e90612bce565b8015611cbb5780601f10611c9057610100808354040283529160200191611cbb565b820191906000526020600020905b815481529060010190602001808311611c9e57829003601f168201915b50505050509150808054611cce90612bce565b80601f0160208091040260200160405190810160405280929190818152602001828054611cfa90612bce565b8015611d475780601f10611d1c57610100808354040283529160200191611d47565b820191906000526020600020905b815481529060010190602001808311611d2a57829003601f168201915b505050505090509450945094509450945091939590929450565b6000803373ffffffffffffffffffffffffffffffffffffffff1673ffffffffffffffffffffffffffffffffffffffff168152602001908152602001600020600080820160008082016000611db59190612045565b600182016000611dc59190612045565b6002820160006101000a81549073ffffffffffffffffffffffffffffffffffffffff0219169055600382016000611dfc9190612045565b600482016000611e0c9190612045565b600582016000611e1c9190612045565b600682016000611e2c9190612045565b600782016000905550506008820160008082016000611e4b9190612045565b600182016000611e5b9190612045565b600282016000611e6b9190612045565b600382016000611e7b9190612045565b600482016000611e8b9190612045565b600582016000611e9b9190612045565b5050600e820160008082016000611eb29190611f0f565b600182016000611ec29190611f0f565b600282016000611ed29190611f0f565b5050601182016000611ee49190612085565b6012820160008082016000611ef99190611f0f565b600182016000611f099190611f0f565b50505050565b5080546000825590600052602060002090810190611f2d91906120a9565b50565b828054828255906000526020600020908101928215611f7f579160200282015b82811115611f7e578251829080519060200190611f6e929190611fbf565b5091602001919060010190611f50565b5b509050611f8c91906120a9565b5090565b6040518060a0016040528060608152602001606081526020016060815260200160608152602001606081525090565b828054611fcb90612bce565b90600052602060002090601f016020900481019282611fed5760008555612034565b82601f1061200657805160ff1916838001178555612034565b82800160010185558215612034579182015b82811115612033578251825591602001919060010190612018565b5b50905061204191906120cd565b5090565b50805461205190612bce565b6000825580601f106120635750612082565b601f01602090049060005260206000209081019061208191906120cd565b5b50565b50805460008255600502906000526020600020908101906120a691906120ea565b50565b5b808211156120c957600081816120c09190612045565b506001016120aa565b5090565b5b808211156120e65760008160009055506001016120ce565b5090565b5b8082111561214d57600080820160006121049190612045565b6001820160006121149190612045565b6002820160006121249190612045565b6003820160006121349190612045565b6004820160006121449190612045565b506005016120eb565b5090565b600061216461215f84612a8d565b612a68565b9050808382526020820190508285602086028201111561218757612186612cc3565b5b60005b858110156121d557813567ffffffffffffffff8111156121ad576121ac612cbe565b5b8086016121ba8982612264565b8552602085019450602084019350505060018101905061218a565b5050509392505050565b60006121f26121ed84612ab9565b612a68565b90508281526020810184848401111561220e5761220d612cc8565b5b612219848285612b8c565b509392505050565b60008135905061223081612ce8565b92915050565b600082601f83011261224b5761224a612cbe565b5b813561225b848260208601612151565b91505092915050565b600082601f83011261227957612278612cbe565b5b81356122898482602086016121df565b91505092915050565b6000813590506122a181612cff565b92915050565b6000602082840312156122bd576122bc612cd2565b5b60006122cb84828501612221565b91505092915050565b6000602082840312156122ea576122e9612cd2565b5b600082013567ffffffffffffffff81111561230857612307612ccd565b5b61231484828501612236565b91505092915050565b60008060006060848603121561233657612335612cd2565b5b600084013567ffffffffffffffff81111561235457612353612ccd565b5b61236086828701612236565b935050602084013567ffffffffffffffff81111561238157612380612ccd565b5b61238d86828701612236565b925050604084013567ffffffffffffffff8111156123ae576123ad612ccd565b5b6123ba86828701612236565b9150509250925092565b600080600080600060a086880312156123e0576123df612cd2565b5b600086013567ffffffffffffffff8111156123fe576123fd612ccd565b5b61240a88828901612264565b955050602086013567ffffffffffffffff81111561242b5761242a612ccd565b5b61243788828901612264565b945050604086013567ffffffffffffffff81111561245857612457612ccd565b5b61246488828901612264565b935050606086013567ffffffffffffffff81111561248557612484612ccd565b5b61249188828901612264565b925050608086013567ffffffffffffffff8111156124b2576124b1612ccd565b5b6124be88828901612264565b9150509295509295909350565b60008060008060008060c087890312156124e8576124e7612cd2565b5b600087013567ffffffffffffffff81111561250657612505612ccd565b5b61251289828a01612264565b965050602087013567ffffffffffffffff81111561253357612532612ccd565b5b61253f89828a01612264565b955050604087013567ffffffffffffffff8111156125605761255f612ccd565b5b61256c89828a01612264565b945050606087013567ffffffffffffffff81111561258d5761258c612ccd565b5b61259989828a01612264565b935050608087013567ffffffffffffffff8111156125ba576125b9612ccd565b5b6125c689828a01612264565b92505060a087013567ffffffffffffffff8111156125e7576125e6612ccd565b5b6125f389828a01612264565b9150509295509295509295565b60006020828403121561261657612615612cd2565b5b600061262484828501612292565b91505092915050565b600061263983836126c5565b905092915050565b61264a81612b50565b82525050565b600061265b82612afa565b6126658185612b1d565b93508360208202850161267785612aea565b8060005b858110156126b35784840389528151612694858261262d565b945061269f83612b10565b925060208a0199505060018101905061267b565b50829750879550505050505092915050565b60006126d082612b05565b6126da8185612b2e565b93506126ea818560208601612b9b565b6126f381612cd7565b840191505092915050565b600061270982612b05565b6127138185612b3f565b9350612723818560208601612b9b565b61272c81612cd7565b840191505092915050565b600060408301600083015184820360008601526127548282612650565b9150506020830151848203602086015261276e8282612650565b9150508091505092915050565b600060c083016000830151848203600086015261279882826126c5565b915050602083015184820360208601526127b282826126c5565b915050604083015184820360408601526127cc82826126c5565b915050606083015184820360608601526127e682826126c5565b9150506080830151848203608086015261280082826126c5565b91505060a083015184820360a086015261281a82826126c5565b9150508091505092915050565b600061010083016000830151848203600086015261284582826126c5565b9150506020830151848203602086015261285f82826126c5565b91505060408301516128746040860182612641565b506060830151848203606086015261288c82826126c5565b915050608083015184820360808601526128a682826126c5565b91505060a083015184820360a08601526128c082826126c5565b91505060c083015184820360c08601526128da82826126c5565b91505060e08301516128ef60e0860182612958565b508091505092915050565b600060608301600083015184820360008601526129178282612650565b915050602083015184820360208601526129318282612650565b9150506040830151848203604086015261294b8282612650565b9150508091505092915050565b61296181612b82565b82525050565b61297081612b82565b82525050565b600060a082019050818103600083015261299081886126fe565b905081810360208301526129a481876126fe565b905081810360408301526129b881866126fe565b905081810360608301526129cc81856126fe565b905081810360808301526129e081846126fe565b90509695505050505050565b60006080820190508181036000830152612a068187612827565b90508181036020830152612a1a818661277b565b90508181036040830152612a2e81856128fa565b90508181036060830152612a428184612737565b905095945050505050565b6000602082019050612a626000830184612967565b92915050565b6000612a72612a83565b9050612a7e8282612c00565b919050565b6000604051905090565b600067ffffffffffffffff821115612aa857612aa7612c8f565b5b602082029050602081019050919050565b600067ffffffffffffffff821115612ad457612ad3612c8f565b5b612add82612cd7565b9050602081019050919050565b6000819050602082019050919050565b600081519050919050565b600081519050919050565b6000602082019050919050565b600082825260208201905092915050565b600082825260208201905092915050565b600082825260208201905092915050565b6000612b5b82612b62565b9050919050565b600073ffffffffffffffffffffffffffffffffffffffff82169050919050565b6000819050919050565b82818337600083830152505050565b60005b83811015612bb9578082015181840152602081019050612b9e565b83811115612bc8576000848401525b50505050565b60006002820490506001821680612be657607f821691505b60208210811415612bfa57612bf9612c31565b5b50919050565b612c0982612cd7565b810181811067ffffffffffffffff82111715612c2857612c27612c8f565b5b80604052505050565b7f4e487b7100000000000000000000000000000000000000000000000000000000600052602260045260246000fd5b7f4e487b7100000000000000000000000000000000000000000000000000000000600052603260045260246000fd5b7f4e487b7100000000000000000000000000000000000000000000000000000000600052604160045260246000fd5b600080fd5b600080fd5b600080fd5b600080fd5b600080fd5b6000601f19601f8301169050919050565b612cf181612b50565b8114612cfc57600080fd5b50565b612d0881612b82565b8114612d1357600080fd5b5056fea2646970667358221220cb8e2549d67a132ca4064fe8deddaf8d079f49926802ced313f490219af1405564736f6c63430008070033",
					"opcodes": "PUSH1 0x80 PUSH1 0x40 MSTORE CALLVALUE DUP1 ISZERO PUSH2 0x10 JUMPI PUSH1 0x0 DUP1 REVERT JUMPDEST POP PUSH2 0x2D4C DUP1 PUSH2 0x20 PUSH1 0x0 CODECOPY PUSH1 0x0 RETURN INVALID PUSH1 0x80 PUSH1 0x40 MSTORE CALLVALUE DUP1 ISZERO PUSH2 0x10 JUMPI PUSH1 0x0 DUP1 REVERT JUMPDEST POP PUSH1 0x4 CALLDATASIZE LT PUSH2 0xCF JUMPI PUSH1 0x0 CALLDATALOAD PUSH1 0xE0 SHR DUP1 PUSH4 0x95EA3757 GT PUSH2 0x8C JUMPI DUP1 PUSH4 0xD759B830 GT PUSH2 0x66 JUMPI DUP1 PUSH4 0xD759B830 EQ PUSH2 0x1C5 JUMPI DUP1 PUSH4 0xED2217EF EQ PUSH2 0x1E1 JUMPI DUP1 PUSH4 0xF96E32F8 EQ PUSH2 0x1EB JUMPI DUP1 PUSH4 0xFABCE08F EQ PUSH2 0x21F JUMPI PUSH2 0xCF JUMP JUMPDEST DUP1 PUSH4 0x95EA3757 EQ PUSH2 0x16C JUMPI DUP1 PUSH4 0x97C35B02 EQ PUSH2 0x176 JUMPI DUP1 PUSH4 0x9DD9D0FD EQ PUSH2 0x192 JUMPI PUSH2 0xCF JUMP JUMPDEST DUP1 PUSH4 0x3D984D0E EQ PUSH2 0xD4 JUMPI DUP1 PUSH4 0x4ED74067 EQ PUSH2 0xF0 JUMPI DUP1 PUSH4 0x6212FA02 EQ PUSH2 0xFA JUMPI DUP1 PUSH4 0x66244DFB EQ PUSH2 0x118 JUMPI DUP1 PUSH4 0x72828388 EQ PUSH2 0x134 JUMPI DUP1 PUSH4 0x958791AE EQ PUSH2 0x150 JUMPI JUMPDEST PUSH1 0x0 DUP1 REVERT JUMPDEST PUSH2 0xEE PUSH1 0x4 DUP1 CALLDATASIZE SUB DUP2 ADD SWAP1 PUSH2 0xE9 SWAP2 SWAP1 PUSH2 0x231D JUMP JUMPDEST PUSH2 0x229 JUMP JUMPDEST STOP JUMPDEST PUSH2 0xF8 PUSH2 0x3AD JUMP JUMPDEST STOP JUMPDEST PUSH2 0x102 PUSH2 0x413 JUMP JUMPDEST PUSH1 0x40 MLOAD PUSH2 0x10F SWAP2 SWAP1 PUSH2 0x2A4D JUMP JUMPDEST PUSH1 0x40 MLOAD DUP1 SWAP2 SUB SWAP1 RETURN JUMPDEST PUSH2 0x132 PUSH1 0x4 DUP1 CALLDATASIZE SUB DUP2 ADD SWAP1 PUSH2 0x12D SWAP2 SWAP1 PUSH2 0x23C4 JUMP JUMPDEST PUSH2 0x45F JUMP JUMPDEST STOP JUMPDEST PUSH2 0x14E PUSH1 0x4 DUP1 CALLDATASIZE SUB DUP2 ADD SWAP1 PUSH2 0x149 SWAP2 SWAP1 PUSH2 0x23C4 JUMP JUMPDEST PUSH2 0x59A JUMP JUMPDEST STOP JUMPDEST PUSH2 0x16A PUSH1 0x4 DUP1 CALLDATASIZE SUB DUP2 ADD SWAP1 PUSH2 0x165 SWAP2 SWAP1 PUSH2 0x24CB JUMP JUMPDEST PUSH2 0x802 JUMP JUMPDEST STOP JUMPDEST PUSH2 0x174 PUSH2 0xAEC JUMP JUMPDEST STOP JUMPDEST PUSH2 0x190 PUSH1 0x4 DUP1 CALLDATASIZE SUB DUP2 ADD SWAP1 PUSH2 0x18B SWAP2 SWAP1 PUSH2 0x22D4 JUMP JUMPDEST PUSH2 0xBC1 JUMP JUMPDEST STOP JUMPDEST PUSH2 0x1AC PUSH1 0x4 DUP1 CALLDATASIZE SUB DUP2 ADD SWAP1 PUSH2 0x1A7 SWAP2 SWAP1 PUSH2 0x22A7 JUMP JUMPDEST PUSH2 0xC1D JUMP JUMPDEST PUSH1 0x40 MLOAD PUSH2 0x1BC SWAP5 SWAP4 SWAP3 SWAP2 SWAP1 PUSH2 0x29EC JUMP JUMPDEST PUSH1 0x40 MLOAD DUP1 SWAP2 SUB SWAP1 RETURN JUMPDEST PUSH2 0x1DF PUSH1 0x4 DUP1 CALLDATASIZE SUB DUP2 ADD SWAP1 PUSH2 0x1DA SWAP2 SWAP1 PUSH2 0x22D4 JUMP JUMPDEST PUSH2 0x17EB JUMP JUMPDEST STOP JUMPDEST PUSH2 0x1E9 PUSH2 0x1847 JUMP JUMPDEST STOP JUMPDEST PUSH2 0x205 PUSH1 0x4 DUP1 CALLDATASIZE SUB DUP2 ADD SWAP1 PUSH2 0x200 SWAP2 SWAP1 PUSH2 0x2600 JUMP JUMPDEST PUSH2 0x1896 JUMP JUMPDEST PUSH1 0x40 MLOAD PUSH2 0x216 SWAP6 SWAP5 SWAP4 SWAP3 SWAP2 SWAP1 PUSH2 0x2976 JUMP JUMPDEST PUSH1 0x40 MLOAD DUP1 SWAP2 SUB SWAP1 RETURN JUMPDEST PUSH2 0x227 PUSH2 0x1D61 JUMP JUMPDEST STOP JUMPDEST PUSH1 0x0 DUP1 CALLER PUSH20 0xFFFFFFFFFFFFFFFFFFFFFFFFFFFFFFFFFFFFFFFF AND PUSH20 0xFFFFFFFFFFFFFFFFFFFFFFFFFFFFFFFFFFFFFFFF AND DUP2 MSTORE PUSH1 0x20 ADD SWAP1 DUP2 MSTORE PUSH1 0x20 ADD PUSH1 0x0 KECCAK256 PUSH1 0xE ADD PUSH1 0x0 DUP1 DUP3 ADD PUSH1 0x0 PUSH2 0x27B SWAP2 SWAP1 PUSH2 0x1F0F JUMP JUMPDEST PUSH1 0x1 DUP3 ADD PUSH1 0x0 PUSH2 0x28B SWAP2 SWAP1 PUSH2 0x1F0F JUMP JUMPDEST PUSH1 0x2 DUP3 ADD PUSH1 0x0 PUSH2 0x29B SWAP2 SWAP1 PUSH2 0x1F0F JUMP JUMPDEST POP POP DUP3 PUSH1 0x0 DUP1 CALLER PUSH20 0xFFFFFFFFFFFFFFFFFFFFFFFFFFFFFFFFFFFFFFFF AND PUSH20 0xFFFFFFFFFFFFFFFFFFFFFFFFFFFFFFFFFFFFFFFF AND DUP2 MSTORE PUSH1 0x20 ADD SWAP1 DUP2 MSTORE PUSH1 0x20 ADD PUSH1 0x0 KECCAK256 PUSH1 0xE ADD PUSH1 0x0 ADD SWAP1 DUP1 MLOAD SWAP1 PUSH1 0x20 ADD SWAP1 PUSH2 0x2F5 SWAP3 SWAP2 SWAP1 PUSH2 0x1F30 JUMP JUMPDEST POP DUP2 PUSH1 0x0 DUP1 CALLER PUSH20 0xFFFFFFFFFFFFFFFFFFFFFFFFFFFFFFFFFFFFFFFF AND PUSH20 0xFFFFFFFFFFFFFFFFFFFFFFFFFFFFFFFFFFFFFFFF AND DUP2 MSTORE PUSH1 0x20 ADD SWAP1 DUP2 MSTORE PUSH1 0x20 ADD PUSH1 0x0 KECCAK256 PUSH1 0xE ADD PUSH1 0x1 ADD SWAP1 DUP1 MLOAD SWAP1 PUSH1 0x20 ADD SWAP1 PUSH2 0x34E SWAP3 SWAP2 SWAP1 PUSH2 0x1F30 JUMP JUMPDEST POP DUP1 PUSH1 0x0 DUP1 CALLER PUSH20 0xFFFFFFFFFFFFFFFFFFFFFFFFFFFFFFFFFFFFFFFF AND PUSH20 0xFFFFFFFFFFFFFFFFFFFFFFFFFFFFFFFFFFFFFFFF AND DUP2 MSTORE PUSH1 0x20 ADD SWAP1 DUP2 MSTORE PUSH1 0x20 ADD PUSH1 0x0 KECCAK256 PUSH1 0xE ADD PUSH1 0x2 ADD SWAP1 DUP1 MLOAD SWAP1 PUSH1 0x20 ADD SWAP1 PUSH2 0x3A7 SWAP3 SWAP2 SWAP1 PUSH2 0x1F30 JUMP JUMPDEST POP POP POP POP JUMP JUMPDEST PUSH1 0x0 DUP1 CALLER PUSH20 0xFFFFFFFFFFFFFFFFFFFFFFFFFFFFFFFFFFFFFFFF AND PUSH20 0xFFFFFFFFFFFFFFFFFFFFFFFFFFFFFFFFFFFFFFFF AND DUP2 MSTORE PUSH1 0x20 ADD SWAP1 DUP2 MSTORE PUSH1 0x20 ADD PUSH1 0x0 KECCAK256 PUSH1 0x12 ADD PUSH1 0x0 DUP1 DUP3 ADD PUSH1 0x0 PUSH2 0x3FF SWAP2 SWAP1 PUSH2 0x1F0F JUMP JUMPDEST PUSH1 0x1 DUP3 ADD PUSH1 0x0 PUSH2 0x40F SWAP2 SWAP1 PUSH2 0x1F0F JUMP JUMPDEST POP POP JUMP JUMPDEST PUSH1 0x0 DUP1 PUSH1 0x0 CALLER PUSH20 0xFFFFFFFFFFFFFFFFFFFFFFFFFFFFFFFFFFFFFFFF AND PUSH20 0xFFFFFFFFFFFFFFFFFFFFFFFFFFFFFFFFFFFFFFFF AND DUP2 MSTORE PUSH1 0x20 ADD SWAP1 DUP2 MSTORE PUSH1 0x20 ADD PUSH1 0x0 KECCAK256 PUSH1 0x11 ADD DUP1 SLOAD SWAP1 POP SWAP1 POP SWAP1 JUMP JUMPDEST PUSH2 0x467 PUSH2 0x1F90 JUMP JUMPDEST DUP6 DUP2 PUSH1 0x0 ADD DUP2 SWAP1 MSTORE POP DUP5 DUP2 PUSH1 0x20 ADD DUP2 SWAP1 MSTORE POP DUP4 DUP2 PUSH1 0x40 ADD DUP2 SWAP1 MSTORE POP DUP3 DUP2 PUSH1 0x60 ADD DUP2 SWAP1 MSTORE POP DUP2 DUP2 PUSH1 0x80 ADD DUP2 SWAP1 MSTORE POP PUSH1 0x0 DUP1 CALLER PUSH20 0xFFFFFFFFFFFFFFFFFFFFFFFFFFFFFFFFFFFFFFFF AND PUSH20 0xFFFFFFFFFFFFFFFFFFFFFFFFFFFFFFFFFFFFFFFF AND DUP2 MSTORE PUSH1 0x20 ADD SWAP1 DUP2 MSTORE PUSH1 0x20 ADD PUSH1 0x0 KECCAK256 PUSH1 0x11 ADD DUP2 SWAP1 DUP1 PUSH1 0x1 DUP2 SLOAD ADD DUP1 DUP3 SSTORE DUP1 SWAP2 POP POP PUSH1 0x1 SWAP1 SUB SWAP1 PUSH1 0x0 MSTORE PUSH1 0x20 PUSH1 0x0 KECCAK256 SWAP1 PUSH1 0x5 MUL ADD PUSH1 0x0 SWAP1 SWAP2 SWAP1 SWAP2 SWAP1 SWAP2 POP PUSH1 0x0 DUP3 ADD MLOAD DUP2 PUSH1 0x0 ADD SWAP1 DUP1 MLOAD SWAP1 PUSH1 0x20 ADD SWAP1 PUSH2 0x51B SWAP3 SWAP2 SWAP1 PUSH2 0x1FBF JUMP JUMPDEST POP PUSH1 0x20 DUP3 ADD MLOAD DUP2 PUSH1 0x1 ADD SWAP1 DUP1 MLOAD SWAP1 PUSH1 0x20 ADD SWAP1 PUSH2 0x538 SWAP3 SWAP2 SWAP1 PUSH2 0x1FBF JUMP JUMPDEST POP PUSH1 0x40 DUP3 ADD MLOAD DUP2 PUSH1 0x2 ADD SWAP1 DUP1 MLOAD SWAP1 PUSH1 0x20 ADD SWAP1 PUSH2 0x555 SWAP3 SWAP2 SWAP1 PUSH2 0x1FBF JUMP JUMPDEST POP PUSH1 0x60 DUP3 ADD MLOAD DUP2 PUSH1 0x3 ADD SWAP1 DUP1 MLOAD SWAP1 PUSH1 0x20 ADD SWAP1 PUSH2 0x572 SWAP3 SWAP2 SWAP1 PUSH2 0x1FBF JUMP JUMPDEST POP PUSH1 0x80 DUP3 ADD MLOAD DUP2 PUSH1 0x4 ADD SWAP1 DUP1 MLOAD SWAP1 PUSH1 0x20 ADD SWAP1 PUSH2 0x58F SWAP3 SWAP2 SWAP1 PUSH2 0x1FBF JUMP JUMPDEST POP POP POP POP POP POP POP POP POP JUMP JUMPDEST PUSH1 0x0 DUP1 CALLER PUSH20 0xFFFFFFFFFFFFFFFFFFFFFFFFFFFFFFFFFFFFFFFF AND PUSH20 0xFFFFFFFFFFFFFFFFFFFFFFFFFFFFFFFFFFFFFFFF AND DUP2 MSTORE PUSH1 0x20 ADD SWAP1 DUP2 MSTORE PUSH1 0x20 ADD PUSH1 0x0 KECCAK256 PUSH1 0x8 ADD PUSH1 0x0 DUP1 DUP3 ADD PUSH1 0x0 PUSH2 0x5EC SWAP2 SWAP1 PUSH2 0x2045 JUMP JUMPDEST PUSH1 0x1 DUP3 ADD PUSH1 0x0 PUSH2 0x5FC SWAP2 SWAP1 PUSH2 0x2045 JUMP JUMPDEST PUSH1 0x2 DUP3 ADD PUSH1 0x0 PUSH2 0x60C SWAP2 SWAP1 PUSH2 0x2045 JUMP JUMPDEST PUSH1 0x3 DUP3 ADD PUSH1 0x0 PUSH2 0x61C SWAP2 SWAP1 PUSH2 0x2045 JUMP JUMPDEST PUSH1 0x4 DUP3 ADD PUSH1 0x0 PUSH2 0x62C SWAP2 SWAP1 PUSH2 0x2045 JUMP JUMPDEST PUSH1 0x5 DUP3 ADD PUSH1 0x0 PUSH2 0x63C SWAP2 SWAP1 PUSH2 0x2045 JUMP JUMPDEST POP POP DUP5 PUSH1 0x0 DUP1 CALLER PUSH20 0xFFFFFFFFFFFFFFFFFFFFFFFFFFFFFFFFFFFFFFFF AND PUSH20 0xFFFFFFFFFFFFFFFFFFFFFFFFFFFFFFFFFFFFFFFF AND DUP2 MSTORE PUSH1 0x20 ADD SWAP1 DUP2 MSTORE PUSH1 0x20 ADD PUSH1 0x0 KECCAK256 PUSH1 0x8 ADD PUSH1 0x1 ADD SWAP1 DUP1 MLOAD SWAP1 PUSH1 0x20 ADD SWAP1 PUSH2 0x696 SWAP3 SWAP2 SWAP1 PUSH2 0x1FBF JUMP JUMPDEST POP DUP4 PUSH1 0x0 DUP1 CALLER PUSH20 0xFFFFFFFFFFFFFFFFFFFFFFFFFFFFFFFFFFFFFFFF AND PUSH20 0xFFFFFFFFFFFFFFFFFFFFFFFFFFFFFFFFFFFFFFFF AND DUP2 MSTORE PUSH1 0x20 ADD SWAP1 DUP2 MSTORE PUSH1 0x20 ADD PUSH1 0x0 KECCAK256 PUSH1 0x8 ADD PUSH1 0x2 ADD SWAP1 DUP1 MLOAD SWAP1 PUSH1 0x20 ADD SWAP1 PUSH2 0x6EF SWAP3 SWAP2 SWAP1 PUSH2 0x1FBF JUMP JUMPDEST POP DUP3 PUSH1 0x0 DUP1 CALLER PUSH20 0xFFFFFFFFFFFFFFFFFFFFFFFFFFFFFFFFFFFFFFFF AND PUSH20 0xFFFFFFFFFFFFFFFFFFFFFFFFFFFFFFFFFFFFFFFF AND DUP2 MSTORE PUSH1 0x20 ADD SWAP1 DUP2 MSTORE PUSH1 0x20 ADD PUSH1 0x0 KECCAK256 PUSH1 0x8 ADD PUSH1 0x3 ADD SWAP1 DUP1 MLOAD SWAP1 PUSH1 0x20 ADD SWAP1 PUSH2 0x748 SWAP3 SWAP2 SWAP1 PUSH2 0x1FBF JUMP JUMPDEST POP DUP2 PUSH1 0x0 DUP1 CALLER PUSH20 0xFFFFFFFFFFFFFFFFFFFFFFFFFFFFFFFFFFFFFFFF AND PUSH20 0xFFFFFFFFFFFFFFFFFFFFFFFFFFFFFFFFFFFFFFFF AND DUP2 MSTORE PUSH1 0x20 ADD SWAP1 DUP2 MSTORE PUSH1 0x20 ADD PUSH1 0x0 KECCAK256 PUSH1 0x8 ADD PUSH1 0x2 ADD SWAP1 DUP1 MLOAD SWAP1 PUSH1 0x20 ADD SWAP1 PUSH2 0x7A1 SWAP3 SWAP2 SWAP1 PUSH2 0x1FBF JUMP JUMPDEST POP DUP1 PUSH1 0x0 DUP1 CALLER PUSH20 0xFFFFFFFFFFFFFFFFFFFFFFFFFFFFFFFFFFFFFFFF AND PUSH20 0xFFFFFFFFFFFFFFFFFFFFFFFFFFFFFFFFFFFFFFFF AND DUP2 MSTORE PUSH1 0x20 ADD SWAP1 DUP2 MSTORE PUSH1 0x20 ADD PUSH1 0x0 KECCAK256 PUSH1 0x8 ADD PUSH1 0x1 ADD SWAP1 DUP1 MLOAD SWAP1 PUSH1 0x20 ADD SWAP1 PUSH2 0x7FA SWAP3 SWAP2 SWAP1 PUSH2 0x1FBF JUMP JUMPDEST POP POP POP POP POP POP JUMP JUMPDEST DUP6 PUSH1 0x0 DUP1 CALLER PUSH20 0xFFFFFFFFFFFFFFFFFFFFFFFFFFFFFFFFFFFFFFFF AND PUSH20 0xFFFFFFFFFFFFFFFFFFFFFFFFFFFFFFFFFFFFFFFF AND DUP2 MSTORE PUSH1 0x20 ADD SWAP1 DUP2 MSTORE PUSH1 0x20 ADD PUSH1 0x0 KECCAK256 PUSH1 0x0 ADD PUSH1 0x3 ADD SWAP1 DUP1 MLOAD SWAP1 PUSH1 0x20 ADD SWAP1 PUSH2 0x85A SWAP3 SWAP2 SWAP1 PUSH2 0x1FBF JUMP JUMPDEST POP DUP5 PUSH1 0x0 DUP1 CALLER PUSH20 0xFFFFFFFFFFFFFFFFFFFFFFFFFFFFFFFFFFFFFFFF AND PUSH20 0xFFFFFFFFFFFFFFFFFFFFFFFFFFFFFFFFFFFFFFFF AND DUP2 MSTORE PUSH1 0x20 ADD SWAP1 DUP2 MSTORE PUSH1 0x20 ADD PUSH1 0x0 KECCAK256 PUSH1 0x0 ADD PUSH1 0x4 ADD SWAP1 DUP1 MLOAD SWAP1 PUSH1 0x20 ADD SWAP1 PUSH2 0x8B3 SWAP3 SWAP2 SWAP1 PUSH2 0x1FBF JUMP JUMPDEST POP DUP4 PUSH1 0x0 DUP1 CALLER PUSH20 0xFFFFFFFFFFFFFFFFFFFFFFFFFFFFFFFFFFFFFFFF AND PUSH20 0xFFFFFFFFFFFFFFFFFFFFFFFFFFFFFFFFFFFFFFFF AND DUP2 MSTORE PUSH1 0x20 ADD SWAP1 DUP2 MSTORE PUSH1 0x20 ADD PUSH1 0x0 KECCAK256 PUSH1 0x0 ADD PUSH1 0x5 ADD SWAP1 DUP1 MLOAD SWAP1 PUSH1 0x20 ADD SWAP1 PUSH2 0x90C SWAP3 SWAP2 SWAP1 PUSH2 0x1FBF JUMP JUMPDEST POP DUP3 PUSH1 0x0 DUP1 CALLER PUSH20 0xFFFFFFFFFFFFFFFFFFFFFFFFFFFFFFFFFFFFFFFF AND PUSH20 0xFFFFFFFFFFFFFFFFFFFFFFFFFFFFFFFFFFFFFFFF AND DUP2 MSTORE PUSH1 0x20 ADD SWAP1 DUP2 MSTORE PUSH1 0x20 ADD PUSH1 0x0 KECCAK256 PUSH1 0x0 ADD PUSH1 0x6 ADD SWAP1 DUP1 MLOAD SWAP1 PUSH1 0x20 ADD SWAP1 PUSH2 0x965 SWAP3 SWAP2 SWAP1 PUSH2 0x1FBF JUMP JUMPDEST POP DUP2 PUSH1 0x0 DUP1 CALLER PUSH20 0xFFFFFFFFFFFFFFFFFFFFFFFFFFFFFFFFFFFFFFFF AND PUSH20 0xFFFFFFFFFFFFFFFFFFFFFFFFFFFFFFFFFFFFFFFF AND DUP2 MSTORE PUSH1 0x20 ADD SWAP1 DUP2 MSTORE PUSH1 0x20 ADD PUSH1 0x0 KECCAK256 PUSH1 0x0 ADD PUSH1 0x0 ADD SWAP1 DUP1 MLOAD SWAP1 PUSH1 0x20 ADD SWAP1 PUSH2 0x9BE SWAP3 SWAP2 SWAP1 PUSH2 0x1FBF JUMP JUMPDEST POP DUP1 PUSH1 0x0 DUP1 CALLER PUSH20 0xFFFFFFFFFFFFFFFFFFFFFFFFFFFFFFFFFFFFFFFF AND PUSH20 0xFFFFFFFFFFFFFFFFFFFFFFFFFFFFFFFFFFFFFFFF AND DUP2 MSTORE PUSH1 0x20 ADD SWAP1 DUP2 MSTORE PUSH1 0x20 ADD PUSH1 0x0 KECCAK256 PUSH1 0x0 ADD PUSH1 0x1 ADD SWAP1 DUP1 MLOAD SWAP1 PUSH1 0x20 ADD SWAP1 PUSH2 0xA17 SWAP3 SWAP2 SWAP1 PUSH2 0x1FBF JUMP JUMPDEST POP CALLER PUSH1 0x0 DUP1 CALLER PUSH20 0xFFFFFFFFFFFFFFFFFFFFFFFFFFFFFFFFFFFFFFFF AND PUSH20 0xFFFFFFFFFFFFFFFFFFFFFFFFFFFFFFFFFFFFFFFF AND DUP2 MSTORE PUSH1 0x20 ADD SWAP1 DUP2 MSTORE PUSH1 0x20 ADD PUSH1 0x0 KECCAK256 PUSH1 0x0 ADD PUSH1 0x2 ADD PUSH1 0x0 PUSH2 0x100 EXP DUP2 SLOAD DUP2 PUSH20 0xFFFFFFFFFFFFFFFFFFFFFFFFFFFFFFFFFFFFFFFF MUL NOT AND SWAP1 DUP4 PUSH20 0xFFFFFFFFFFFFFFFFFFFFFFFFFFFFFFFFFFFFFFFF AND MUL OR SWAP1 SSTORE POP TIMESTAMP PUSH1 0x0 DUP1 CALLER PUSH20 0xFFFFFFFFFFFFFFFFFFFFFFFFFFFFFFFFFFFFFFFF AND PUSH20 0xFFFFFFFFFFFFFFFFFFFFFFFFFFFFFFFFFFFFFFFF AND DUP2 MSTORE PUSH1 0x20 ADD SWAP1 DUP2 MSTORE PUSH1 0x20 ADD PUSH1 0x0 KECCAK256 PUSH1 0x0 ADD PUSH1 0x7 ADD DUP2 SWAP1 SSTORE POP POP POP POP POP POP POP JUMP JUMPDEST PUSH1 0x0 DUP1 CALLER PUSH20 0xFFFFFFFFFFFFFFFFFFFFFFFFFFFFFFFFFFFFFFFF AND PUSH20 0xFFFFFFFFFFFFFFFFFFFFFFFFFFFFFFFFFFFFFFFF AND DUP2 MSTORE PUSH1 0x20 ADD SWAP1 DUP2 MSTORE PUSH1 0x20 ADD PUSH1 0x0 KECCAK256 PUSH1 0x0 ADD PUSH1 0x0 DUP1 DUP3 ADD PUSH1 0x0 PUSH2 0xB3E SWAP2 SWAP1 PUSH2 0x2045 JUMP JUMPDEST PUSH1 0x1 DUP3 ADD PUSH1 0x0 PUSH2 0xB4E SWAP2 SWAP1 PUSH2 0x2045 JUMP JUMPDEST PUSH1 0x2 DUP3 ADD PUSH1 0x0 PUSH2 0x100 EXP DUP2 SLOAD SWAP1 PUSH20 0xFFFFFFFFFFFFFFFFFFFFFFFFFFFFFFFFFFFFFFFF MUL NOT AND SWAP1 SSTORE PUSH1 0x3 DUP3 ADD PUSH1 0x0 PUSH2 0xB85 SWAP2 SWAP1 PUSH2 0x2045 JUMP JUMPDEST PUSH1 0x4 DUP3 ADD PUSH1 0x0 PUSH2 0xB95 SWAP2 SWAP1 PUSH2 0x2045 JUMP JUMPDEST PUSH1 0x5 DUP3 ADD PUSH1 0x0 PUSH2 0xBA5 SWAP2 SWAP1 PUSH2 0x2045 JUMP JUMPDEST PUSH1 0x6 DUP3 ADD PUSH1 0x0 PUSH2 0xBB5 SWAP2 SWAP1 PUSH2 0x2045 JUMP JUMPDEST PUSH1 0x7 DUP3 ADD PUSH1 0x0 SWAP1 SSTORE POP POP JUMP JUMPDEST DUP1 PUSH1 0x0 DUP1 CALLER PUSH20 0xFFFFFFFFFFFFFFFFFFFFFFFFFFFFFFFFFFFFFFFF AND PUSH20 0xFFFFFFFFFFFFFFFFFFFFFFFFFFFFFFFFFFFFFFFF AND DUP2 MSTORE PUSH1 0x20 ADD SWAP1 DUP2 MSTORE PUSH1 0x20 ADD PUSH1 0x0 KECCAK256 PUSH1 0x12 ADD PUSH1 0x1 ADD SWAP1 DUP1 MLOAD SWAP1 PUSH1 0x20 ADD SWAP1 PUSH2 0xC19 SWAP3 SWAP2 SWAP1 PUSH2 0x1F30 JUMP JUMPDEST POP POP JUMP JUMPDEST PUSH1 0x0 PUSH1 0x20 MSTORE DUP1 PUSH1 0x0 MSTORE PUSH1 0x40 PUSH1 0x0 KECCAK256 PUSH1 0x0 SWAP2 POP SWAP1 POP DUP1 PUSH1 0x0 ADD PUSH1 0x40 MLOAD DUP1 PUSH2 0x100 ADD PUSH1 0x40 MSTORE SWAP1 DUP2 PUSH1 0x0 DUP3 ADD DUP1 SLOAD PUSH2 0xC51 SWAP1 PUSH2 0x2BCE JUMP JUMPDEST DUP1 PUSH1 0x1F ADD PUSH1 0x20 DUP1 SWAP2 DIV MUL PUSH1 0x20 ADD PUSH1 0x40 MLOAD SWAP1 DUP2 ADD PUSH1 0x40 MSTORE DUP1 SWAP3 SWAP2 SWAP1 DUP2 DUP2 MSTORE PUSH1 0x20 ADD DUP3 DUP1 SLOAD PUSH2 0xC7D SWAP1 PUSH2 0x2BCE JUMP JUMPDEST DUP1 ISZERO PUSH2 0xCCA JUMPI DUP1 PUSH1 0x1F LT PUSH2 0xC9F JUMPI PUSH2 0x100 DUP1 DUP4 SLOAD DIV MUL DUP4 MSTORE SWAP2 PUSH1 0x20 ADD SWAP2 PUSH2 0xCCA JUMP JUMPDEST DUP3 ADD SWAP2 SWAP1 PUSH1 0x0 MSTORE PUSH1 0x20 PUSH1 0x0 KECCAK256 SWAP1 JUMPDEST DUP2 SLOAD DUP2 MSTORE SWAP1 PUSH1 0x1 ADD SWAP1 PUSH1 0x20 ADD DUP1 DUP4 GT PUSH2 0xCAD JUMPI DUP3 SWAP1 SUB PUSH1 0x1F AND DUP3 ADD SWAP2 JUMPDEST POP POP POP POP POP DUP2 MSTORE PUSH1 0x20 ADD PUSH1 0x1 DUP3 ADD DUP1 SLOAD PUSH2 0xCE3 SWAP1 PUSH2 0x2BCE JUMP JUMPDEST DUP1 PUSH1 0x1F ADD PUSH1 0x20 DUP1 SWAP2 DIV MUL PUSH1 0x20 ADD PUSH1 0x40 MLOAD SWAP1 DUP2 ADD PUSH1 0x40 MSTORE DUP1 SWAP3 SWAP2 SWAP1 DUP2 DUP2 MSTORE PUSH1 0x20 ADD DUP3 DUP1 SLOAD PUSH2 0xD0F SWAP1 PUSH2 0x2BCE JUMP JUMPDEST DUP1 ISZERO PUSH2 0xD5C JUMPI DUP1 PUSH1 0x1F LT PUSH2 0xD31 JUMPI PUSH2 0x100 DUP1 DUP4 SLOAD DIV MUL DUP4 MSTORE SWAP2 PUSH1 0x20 ADD SWAP2 PUSH2 0xD5C JUMP JUMPDEST DUP3 ADD SWAP2 SWAP1 PUSH1 0x0 MSTORE PUSH1 0x20 PUSH1 0x0 KECCAK256 SWAP1 JUMPDEST DUP2 SLOAD DUP2 MSTORE SWAP1 PUSH1 0x1 ADD SWAP1 PUSH1 0x20 ADD DUP1 DUP4 GT PUSH2 0xD3F JUMPI DUP3 SWAP1 SUB PUSH1 0x1F AND DUP3 ADD SWAP2 JUMPDEST POP POP POP POP POP DUP2 MSTORE PUSH1 0x20 ADD PUSH1 0x2 DUP3 ADD PUSH1 0x0 SWAP1 SLOAD SWAP1 PUSH2 0x100 EXP SWAP1 DIV PUSH20 0xFFFFFFFFFFFFFFFFFFFFFFFFFFFFFFFFFFFFFFFF AND PUSH20 0xFFFFFFFFFFFFFFFFFFFFFFFFFFFFFFFFFFFFFFFF AND PUSH20 0xFFFFFFFFFFFFFFFFFFFFFFFFFFFFFFFFFFFFFFFF AND DUP2 MSTORE PUSH1 0x20 ADD PUSH1 0x3 DUP3 ADD DUP1 SLOAD PUSH2 0xDCB SWAP1 PUSH2 0x2BCE JUMP JUMPDEST DUP1 PUSH1 0x1F ADD PUSH1 0x20 DUP1 SWAP2 DIV MUL PUSH1 0x20 ADD PUSH1 0x40 MLOAD SWAP1 DUP2 ADD PUSH1 0x40 MSTORE DUP1 SWAP3 SWAP2 SWAP1 DUP2 DUP2 MSTORE PUSH1 0x20 ADD DUP3 DUP1 SLOAD PUSH2 0xDF7 SWAP1 PUSH2 0x2BCE JUMP JUMPDEST DUP1 ISZERO PUSH2 0xE44 JUMPI DUP1 PUSH1 0x1F LT PUSH2 0xE19 JUMPI PUSH2 0x100 DUP1 DUP4 SLOAD DIV MUL DUP4 MSTORE SWAP2 PUSH1 0x20 ADD SWAP2 PUSH2 0xE44 JUMP JUMPDEST DUP3 ADD SWAP2 SWAP1 PUSH1 0x0 MSTORE PUSH1 0x20 PUSH1 0x0 KECCAK256 SWAP1 JUMPDEST DUP2 SLOAD DUP2 MSTORE SWAP1 PUSH1 0x1 ADD SWAP1 PUSH1 0x20 ADD DUP1 DUP4 GT PUSH2 0xE27 JUMPI DUP3 SWAP1 SUB PUSH1 0x1F AND DUP3 ADD SWAP2 JUMPDEST POP POP POP POP POP DUP2 MSTORE PUSH1 0x20 ADD PUSH1 0x4 DUP3 ADD DUP1 SLOAD PUSH2 0xE5D SWAP1 PUSH2 0x2BCE JUMP JUMPDEST DUP1 PUSH1 0x1F ADD PUSH1 0x20 DUP1 SWAP2 DIV MUL PUSH1 0x20 ADD PUSH1 0x40 MLOAD SWAP1 DUP2 ADD PUSH1 0x40 MSTORE DUP1 SWAP3 SWAP2 SWAP1 DUP2 DUP2 MSTORE PUSH1 0x20 ADD DUP3 DUP1 SLOAD PUSH2 0xE89 SWAP1 PUSH2 0x2BCE JUMP JUMPDEST DUP1 ISZERO PUSH2 0xED6 JUMPI DUP1 PUSH1 0x1F LT PUSH2 0xEAB JUMPI PUSH2 0x100 DUP1 DUP4 SLOAD DIV MUL DUP4 MSTORE SWAP2 PUSH1 0x20 ADD SWAP2 PUSH2 0xED6 JUMP JUMPDEST DUP3 ADD SWAP2 SWAP1 PUSH1 0x0 MSTORE PUSH1 0x20 PUSH1 0x0 KECCAK256 SWAP1 JUMPDEST DUP2 SLOAD DUP2 MSTORE SWAP1 PUSH1 0x1 ADD SWAP1 PUSH1 0x20 ADD DUP1 DUP4 GT PUSH2 0xEB9 JUMPI DUP3 SWAP1 SUB PUSH1 0x1F AND DUP3 ADD SWAP2 JUMPDEST POP POP POP POP POP DUP2 MSTORE PUSH1 0x20 ADD PUSH1 0x5 DUP3 ADD DUP1 SLOAD PUSH2 0xEEF SWAP1 PUSH2 0x2BCE JUMP JUMPDEST DUP1 PUSH1 0x1F ADD PUSH1 0x20 DUP1 SWAP2 DIV MUL PUSH1 0x20 ADD PUSH1 0x40 MLOAD SWAP1 DUP2 ADD PUSH1 0x40 MSTORE DUP1 SWAP3 SWAP2 SWAP1 DUP2 DUP2 MSTORE PUSH1 0x20 ADD DUP3 DUP1 SLOAD PUSH2 0xF1B SWAP1 PUSH2 0x2BCE JUMP JUMPDEST DUP1 ISZERO PUSH2 0xF68 JUMPI DUP1 PUSH1 0x1F LT PUSH2 0xF3D JUMPI PUSH2 0x100 DUP1 DUP4 SLOAD DIV MUL DUP4 MSTORE SWAP2 PUSH1 0x20 ADD SWAP2 PUSH2 0xF68 JUMP JUMPDEST DUP3 ADD SWAP2 SWAP1 PUSH1 0x0 MSTORE PUSH1 0x20 PUSH1 0x0 KECCAK256 SWAP1 JUMPDEST DUP2 SLOAD DUP2 MSTORE SWAP1 PUSH1 0x1 ADD SWAP1 PUSH1 0x20 ADD DUP1 DUP4 GT PUSH2 0xF4B JUMPI DUP3 SWAP1 SUB PUSH1 0x1F AND DUP3 ADD SWAP2 JUMPDEST POP POP POP POP POP DUP2 MSTORE PUSH1 0x20 ADD PUSH1 0x6 DUP3 ADD DUP1 SLOAD PUSH2 0xF81 SWAP1 PUSH2 0x2BCE JUMP JUMPDEST DUP1 PUSH1 0x1F ADD PUSH1 0x20 DUP1 SWAP2 DIV MUL PUSH1 0x20 ADD PUSH1 0x40 MLOAD SWAP1 DUP2 ADD PUSH1 0x40 MSTORE DUP1 SWAP3 SWAP2 SWAP1 DUP2 DUP2 MSTORE PUSH1 0x20 ADD DUP3 DUP1 SLOAD PUSH2 0xFAD SWAP1 PUSH2 0x2BCE JUMP JUMPDEST DUP1 ISZERO PUSH2 0xFFA JUMPI DUP1 PUSH1 0x1F LT PUSH2 0xFCF JUMPI PUSH2 0x100 DUP1 DUP4 SLOAD DIV MUL DUP4 MSTORE SWAP2 PUSH1 0x20 ADD SWAP2 PUSH2 0xFFA JUMP JUMPDEST DUP3 ADD SWAP2 SWAP1 PUSH1 0x0 MSTORE PUSH1 0x20 PUSH1 0x0 KECCAK256 SWAP1 JUMPDEST DUP2 SLOAD DUP2 MSTORE SWAP1 PUSH1 0x1 ADD SWAP1 PUSH1 0x20 ADD DUP1 DUP4 GT PUSH2 0xFDD JUMPI DUP3 SWAP1 SUB PUSH1 0x1F AND DUP3 ADD SWAP2 JUMPDEST POP POP POP POP POP DUP2 MSTORE PUSH1 0x20 ADD PUSH1 0x7 DUP3 ADD SLOAD DUP2 MSTORE POP POP SWAP1 DUP1 PUSH1 0x8 ADD PUSH1 0x40 MLOAD DUP1 PUSH1 0xC0 ADD PUSH1 0x40 MSTORE SWAP1 DUP2 PUSH1 0x0 DUP3 ADD DUP1 SLOAD PUSH2 0x102D SWAP1 PUSH2 0x2BCE JUMP JUMPDEST DUP1 PUSH1 0x1F ADD PUSH1 0x20 DUP1 SWAP2 DIV MUL PUSH1 0x20 ADD PUSH1 0x40 MLOAD SWAP1 DUP2 ADD PUSH1 0x40 MSTORE DUP1 SWAP3 SWAP2 SWAP1 DUP2 DUP2 MSTORE PUSH1 0x20 ADD DUP3 DUP1 SLOAD PUSH2 0x1059 SWAP1 PUSH2 0x2BCE JUMP JUMPDEST DUP1 ISZERO PUSH2 0x10A6 JUMPI DUP1 PUSH1 0x1F LT PUSH2 0x107B JUMPI PUSH2 0x100 DUP1 DUP4 SLOAD DIV MUL DUP4 MSTORE SWAP2 PUSH1 0x20 ADD SWAP2 PUSH2 0x10A6 JUMP JUMPDEST DUP3 ADD SWAP2 SWAP1 PUSH1 0x0 MSTORE PUSH1 0x20 PUSH1 0x0 KECCAK256 SWAP1 JUMPDEST DUP2 SLOAD DUP2 MSTORE SWAP1 PUSH1 0x1 ADD SWAP1 PUSH1 0x20 ADD DUP1 DUP4 GT PUSH2 0x1089 JUMPI DUP3 SWAP1 SUB PUSH1 0x1F AND DUP3 ADD SWAP2 JUMPDEST POP POP POP POP POP DUP2 MSTORE PUSH1 0x20 ADD PUSH1 0x1 DUP3 ADD DUP1 SLOAD PUSH2 0x10BF SWAP1 PUSH2 0x2BCE JUMP JUMPDEST DUP1 PUSH1 0x1F ADD PUSH1 0x20 DUP1 SWAP2 DIV MUL PUSH1 0x20 ADD PUSH1 0x40 MLOAD SWAP1 DUP2 ADD PUSH1 0x40 MSTORE DUP1 SWAP3 SWAP2 SWAP1 DUP2 DUP2 MSTORE PUSH1 0x20 ADD DUP3 DUP1 SLOAD PUSH2 0x10EB SWAP1 PUSH2 0x2BCE JUMP JUMPDEST DUP1 ISZERO PUSH2 0x1138 JUMPI DUP1 PUSH1 0x1F LT PUSH2 0x110D JUMPI PUSH2 0x100 DUP1 DUP4 SLOAD DIV MUL DUP4 MSTORE SWAP2 PUSH1 0x20 ADD SWAP2 PUSH2 0x1138 JUMP JUMPDEST DUP3 ADD SWAP2 SWAP1 PUSH1 0x0 MSTORE PUSH1 0x20 PUSH1 0x0 KECCAK256 SWAP1 JUMPDEST DUP2 SLOAD DUP2 MSTORE SWAP1 PUSH1 0x1 ADD SWAP1 PUSH1 0x20 ADD DUP1 DUP4 GT PUSH2 0x111B JUMPI DUP3 SWAP1 SUB PUSH1 0x1F AND DUP3 ADD SWAP2 JUMPDEST POP POP POP POP POP DUP2 MSTORE PUSH1 0x20 ADD PUSH1 0x2 DUP3 ADD DUP1 SLOAD PUSH2 0x1151 SWAP1 PUSH2 0x2BCE JUMP JUMPDEST DUP1 PUSH1 0x1F ADD PUSH1 0x20 DUP1 SWAP2 DIV MUL PUSH1 0x20 ADD PUSH1 0x40 MLOAD SWAP1 DUP2 ADD PUSH1 0x40 MSTORE DUP1 SWAP3 SWAP2 SWAP1 DUP2 DUP2 MSTORE PUSH1 0x20 ADD DUP3 DUP1 SLOAD PUSH2 0x117D SWAP1 PUSH2 0x2BCE JUMP JUMPDEST DUP1 ISZERO PUSH2 0x11CA JUMPI DUP1 PUSH1 0x1F LT PUSH2 0x119F JUMPI PUSH2 0x100 DUP1 DUP4 SLOAD DIV MUL DUP4 MSTORE SWAP2 PUSH1 0x20 ADD SWAP2 PUSH2 0x11CA JUMP JUMPDEST DUP3 ADD SWAP2 SWAP1 PUSH1 0x0 MSTORE PUSH1 0x20 PUSH1 0x0 KECCAK256 SWAP1 JUMPDEST DUP2 SLOAD DUP2 MSTORE SWAP1 PUSH1 0x1 ADD SWAP1 PUSH1 0x20 ADD DUP1 DUP4 GT PUSH2 0x11AD JUMPI DUP3 SWAP1 SUB PUSH1 0x1F AND DUP3 ADD SWAP2 JUMPDEST POP POP POP POP POP DUP2 MSTORE PUSH1 0x20 ADD PUSH1 0x3 DUP3 ADD DUP1 SLOAD PUSH2 0x11E3 SWAP1 PUSH2 0x2BCE JUMP JUMPDEST DUP1 PUSH1 0x1F ADD PUSH1 0x20 DUP1 SWAP2 DIV MUL PUSH1 0x20 ADD PUSH1 0x40 MLOAD SWAP1 DUP2 ADD PUSH1 0x40 MSTORE DUP1 SWAP3 SWAP2 SWAP1 DUP2 DUP2 MSTORE PUSH1 0x20 ADD DUP3 DUP1 SLOAD PUSH2 0x120F SWAP1 PUSH2 0x2BCE JUMP JUMPDEST DUP1 ISZERO PUSH2 0x125C JUMPI DUP1 PUSH1 0x1F LT PUSH2 0x1231 JUMPI PUSH2 0x100 DUP1 DUP4 SLOAD DIV MUL DUP4 MSTORE SWAP2 PUSH1 0x20 ADD SWAP2 PUSH2 0x125C JUMP JUMPDEST DUP3 ADD SWAP2 SWAP1 PUSH1 0x0 MSTORE PUSH1 0x20 PUSH1 0x0 KECCAK256 SWAP1 JUMPDEST DUP2 SLOAD DUP2 MSTORE SWAP1 PUSH1 0x1 ADD SWAP1 PUSH1 0x20 ADD DUP1 DUP4 GT PUSH2 0x123F JUMPI DUP3 SWAP1 SUB PUSH1 0x1F AND DUP3 ADD SWAP2 JUMPDEST POP POP POP POP POP DUP2 MSTORE PUSH1 0x20 ADD PUSH1 0x4 DUP3 ADD DUP1 SLOAD PUSH2 0x1275 SWAP1 PUSH2 0x2BCE JUMP JUMPDEST DUP1 PUSH1 0x1F ADD PUSH1 0x20 DUP1 SWAP2 DIV MUL PUSH1 0x20 ADD PUSH1 0x40 MLOAD SWAP1 DUP2 ADD PUSH1 0x40 MSTORE DUP1 SWAP3 SWAP2 SWAP1 DUP2 DUP2 MSTORE PUSH1 0x20 ADD DUP3 DUP1 SLOAD PUSH2 0x12A1 SWAP1 PUSH2 0x2BCE JUMP JUMPDEST DUP1 ISZERO PUSH2 0x12EE JUMPI DUP1 PUSH1 0x1F LT PUSH2 0x12C3 JUMPI PUSH2 0x100 DUP1 DUP4 SLOAD DIV MUL DUP4 MSTORE SWAP2 PUSH1 0x20 ADD SWAP2 PUSH2 0x12EE JUMP JUMPDEST DUP3 ADD SWAP2 SWAP1 PUSH1 0x0 MSTORE PUSH1 0x20 PUSH1 0x0 KECCAK256 SWAP1 JUMPDEST DUP2 SLOAD DUP2 MSTORE SWAP1 PUSH1 0x1 ADD SWAP1 PUSH1 0x20 ADD DUP1 DUP4 GT PUSH2 0x12D1 JUMPI DUP3 SWAP1 SUB PUSH1 0x1F AND DUP3 ADD SWAP2 JUMPDEST POP POP POP POP POP DUP2 MSTORE PUSH1 0x20 ADD PUSH1 0x5 DUP3 ADD DUP1 SLOAD PUSH2 0x1307 SWAP1 PUSH2 0x2BCE JUMP JUMPDEST DUP1 PUSH1 0x1F ADD PUSH1 0x20 DUP1 SWAP2 DIV MUL PUSH1 0x20 ADD PUSH1 0x40 MLOAD SWAP1 DUP2 ADD PUSH1 0x40 MSTORE DUP1 SWAP3 SWAP2 SWAP1 DUP2 DUP2 MSTORE PUSH1 0x20 ADD DUP3 DUP1 SLOAD PUSH2 0x1333 SWAP1 PUSH2 0x2BCE JUMP JUMPDEST DUP1 ISZERO PUSH2 0x1380 JUMPI DUP1 PUSH1 0x1F LT PUSH2 0x1355 JUMPI PUSH2 0x100 DUP1 DUP4 SLOAD DIV MUL DUP4 MSTORE SWAP2 PUSH1 0x20 ADD SWAP2 PUSH2 0x1380 JUMP JUMPDEST DUP3 ADD SWAP2 SWAP1 PUSH1 0x0 MSTORE PUSH1 0x20 PUSH1 0x0 KECCAK256 SWAP1 JUMPDEST DUP2 SLOAD DUP2 MSTORE SWAP1 PUSH1 0x1 ADD SWAP1 PUSH1 0x20 ADD DUP1 DUP4 GT PUSH2 0x1363 JUMPI DUP3 SWAP1 SUB PUSH1 0x1F AND DUP3 ADD SWAP2 JUMPDEST POP POP POP POP POP DUP2 MSTORE POP POP SWAP1 DUP1 PUSH1 0xE ADD PUSH1 0x40 MLOAD DUP1 PUSH1 0x60 ADD PUSH1 0x40 MSTORE SWAP1 DUP2 PUSH1 0x0 DUP3 ADD DUP1 SLOAD DUP1 PUSH1 0x20 MUL PUSH1 0x20 ADD PUSH1 0x40 MLOAD SWAP1 DUP2 ADD PUSH1 0x40 MSTORE DUP1 SWAP3 SWAP2 SWAP1 DUP2 DUP2 MSTORE PUSH1 0x20 ADD PUSH1 0x0 SWAP1 JUMPDEST DUP3 DUP3 LT ISZERO PUSH2 0x146A JUMPI DUP4 DUP3 SWAP1 PUSH1 0x0 MSTORE PUSH1 0x20 PUSH1 0x0 KECCAK256 ADD DUP1 SLOAD PUSH2 0x13DD SWAP1 PUSH2 0x2BCE JUMP JUMPDEST DUP1 PUSH1 0x1F ADD PUSH1 0x20 DUP1 SWAP2 DIV MUL PUSH1 0x20 ADD PUSH1 0x40 MLOAD SWAP1 DUP2 ADD PUSH1 0x40 MSTORE DUP1 SWAP3 SWAP2 SWAP1 DUP2 DUP2 MSTORE PUSH1 0x20 ADD DUP3 DUP1 SLOAD PUSH2 0x1409 SWAP1 PUSH2 0x2BCE JUMP JUMPDEST DUP1 ISZERO PUSH2 0x1456 JUMPI DUP1 PUSH1 0x1F LT PUSH2 0x142B JUMPI PUSH2 0x100 DUP1 DUP4 SLOAD DIV MUL DUP4 MSTORE SWAP2 PUSH1 0x20 ADD SWAP2 PUSH2 0x1456 JUMP JUMPDEST DUP3 ADD SWAP2 SWAP1 PUSH1 0x0 MSTORE PUSH1 0x20 PUSH1 0x0 KECCAK256 SWAP1 JUMPDEST DUP2 SLOAD DUP2 MSTORE SWAP1 PUSH1 0x1 ADD SWAP1 PUSH1 0x20 ADD DUP1 DUP4 GT PUSH2 0x1439 JUMPI DUP3 SWAP1 SUB PUSH1 0x1F AND DUP3 ADD SWAP2 JUMPDEST POP POP POP POP POP DUP2 MSTORE PUSH1 0x20 ADD SWAP1 PUSH1 0x1 ADD SWAP1 PUSH2 0x13BE JUMP JUMPDEST POP POP POP POP DUP2 MSTORE PUSH1 0x20 ADD PUSH1 0x1 DUP3 ADD DUP1 SLOAD DUP1 PUSH1 0x20 MUL PUSH1 0x20 ADD PUSH1 0x40 MLOAD SWAP1 DUP2 ADD PUSH1 0x40 MSTORE DUP1 SWAP3 SWAP2 SWAP1 DUP2 DUP2 MSTORE PUSH1 0x20 ADD PUSH1 0x0 SWAP1 JUMPDEST DUP3 DUP3 LT ISZERO PUSH2 0x1543 JUMPI DUP4 DUP3 SWAP1 PUSH1 0x0 MSTORE PUSH1 0x20 PUSH1 0x0 KECCAK256 ADD DUP1 SLOAD PUSH2 0x14B6 SWAP1 PUSH2 0x2BCE JUMP JUMPDEST DUP1 PUSH1 0x1F ADD PUSH1 0x20 DUP1 SWAP2 DIV MUL PUSH1 0x20 ADD PUSH1 0x40 MLOAD SWAP1 DUP2 ADD PUSH1 0x40 MSTORE DUP1 SWAP3 SWAP2 SWAP1 DUP2 DUP2 MSTORE PUSH1 0x20 ADD DUP3 DUP1 SLOAD PUSH2 0x14E2 SWAP1 PUSH2 0x2BCE JUMP JUMPDEST DUP1 ISZERO PUSH2 0x152F JUMPI DUP1 PUSH1 0x1F LT PUSH2 0x1504 JUMPI PUSH2 0x100 DUP1 DUP4 SLOAD DIV MUL DUP4 MSTORE SWAP2 PUSH1 0x20 ADD SWAP2 PUSH2 0x152F JUMP JUMPDEST DUP3 ADD SWAP2 SWAP1 PUSH1 0x0 MSTORE PUSH1 0x20 PUSH1 0x0 KECCAK256 SWAP1 JUMPDEST DUP2 SLOAD DUP2 MSTORE SWAP1 PUSH1 0x1 ADD SWAP1 PUSH1 0x20 ADD DUP1 DUP4 GT PUSH2 0x1512 JUMPI DUP3 SWAP1 SUB PUSH1 0x1F AND DUP3 ADD SWAP2 JUMPDEST POP POP POP POP POP DUP2 MSTORE PUSH1 0x20 ADD SWAP1 PUSH1 0x1 ADD SWAP1 PUSH2 0x1497 JUMP JUMPDEST POP POP POP POP DUP2 MSTORE PUSH1 0x20 ADD PUSH1 0x2 DUP3 ADD DUP1 SLOAD DUP1 PUSH1 0x20 MUL PUSH1 0x20 ADD PUSH1 0x40 MLOAD SWAP1 DUP2 ADD PUSH1 0x40 MSTORE DUP1 SWAP3 SWAP2 SWAP1 DUP2 DUP2 MSTORE PUSH1 0x20 ADD PUSH1 0x0 SWAP1 JUMPDEST DUP3 DUP3 LT ISZERO PUSH2 0x161C JUMPI DUP4 DUP3 SWAP1 PUSH1 0x0 MSTORE PUSH1 0x20 PUSH1 0x0 KECCAK256 ADD DUP1 SLOAD PUSH2 0x158F SWAP1 PUSH2 0x2BCE JUMP JUMPDEST DUP1 PUSH1 0x1F ADD PUSH1 0x20 DUP1 SWAP2 DIV MUL PUSH1 0x20 ADD PUSH1 0x40 MLOAD SWAP1 DUP2 ADD PUSH1 0x40 MSTORE DUP1 SWAP3 SWAP2 SWAP1 DUP2 DUP2 MSTORE PUSH1 0x20 ADD DUP3 DUP1 SLOAD PUSH2 0x15BB SWAP1 PUSH2 0x2BCE JUMP JUMPDEST DUP1 ISZERO PUSH2 0x1608 JUMPI DUP1 PUSH1 0x1F LT PUSH2 0x15DD JUMPI PUSH2 0x100 DUP1 DUP4 SLOAD DIV MUL DUP4 MSTORE SWAP2 PUSH1 0x20 ADD SWAP2 PUSH2 0x1608 JUMP JUMPDEST DUP3 ADD SWAP2 SWAP1 PUSH1 0x0 MSTORE PUSH1 0x20 PUSH1 0x0 KECCAK256 SWAP1 JUMPDEST DUP2 SLOAD DUP2 MSTORE SWAP1 PUSH1 0x1 ADD SWAP1 PUSH1 0x20 ADD DUP1 DUP4 GT PUSH2 0x15EB JUMPI DUP3 SWAP1 SUB PUSH1 0x1F AND DUP3 ADD SWAP2 JUMPDEST POP POP POP POP POP DUP2 MSTORE PUSH1 0x20 ADD SWAP1 PUSH1 0x1 ADD SWAP1 PUSH2 0x1570 JUMP JUMPDEST POP POP POP POP DUP2 MSTORE POP POP SWAP1 DUP1 PUSH1 0x12 ADD PUSH1 0x40 MLOAD DUP1 PUSH1 0x40 ADD PUSH1 0x40 MSTORE SWAP1 DUP2 PUSH1 0x0 DUP3 ADD DUP1 SLOAD DUP1 PUSH1 0x20 MUL PUSH1 0x20 ADD PUSH1 0x40 MLOAD SWAP1 DUP2 ADD PUSH1 0x40 MSTORE DUP1 SWAP3 SWAP2 SWAP1 DUP2 DUP2 MSTORE PUSH1 0x20 ADD PUSH1 0x0 SWAP1 JUMPDEST DUP3 DUP3 LT ISZERO PUSH2 0x1705 JUMPI DUP4 DUP3 SWAP1 PUSH1 0x0 MSTORE PUSH1 0x20 PUSH1 0x0 KECCAK256 ADD DUP1 SLOAD PUSH2 0x1678 SWAP1 PUSH2 0x2BCE JUMP JUMPDEST DUP1 PUSH1 0x1F ADD PUSH1 0x20 DUP1 SWAP2 DIV MUL PUSH1 0x20 ADD PUSH1 0x40 MLOAD SWAP1 DUP2 ADD PUSH1 0x40 MSTORE DUP1 SWAP3 SWAP2 SWAP1 DUP2 DUP2 MSTORE PUSH1 0x20 ADD DUP3 DUP1 SLOAD PUSH2 0x16A4 SWAP1 PUSH2 0x2BCE JUMP JUMPDEST DUP1 ISZERO PUSH2 0x16F1 JUMPI DUP1 PUSH1 0x1F LT PUSH2 0x16C6 JUMPI PUSH2 0x100 DUP1 DUP4 SLOAD DIV MUL DUP4 MSTORE SWAP2 PUSH1 0x20 ADD SWAP2 PUSH2 0x16F1 JUMP JUMPDEST DUP3 ADD SWAP2 SWAP1 PUSH1 0x0 MSTORE PUSH1 0x20 PUSH1 0x0 KECCAK256 SWAP1 JUMPDEST DUP2 SLOAD DUP2 MSTORE SWAP1 PUSH1 0x1 ADD SWAP1 PUSH1 0x20 ADD DUP1 DUP4 GT PUSH2 0x16D4 JUMPI DUP3 SWAP1 SUB PUSH1 0x1F AND DUP3 ADD SWAP2 JUMPDEST POP POP POP POP POP DUP2 MSTORE PUSH1 0x20 ADD SWAP1 PUSH1 0x1 ADD SWAP1 PUSH2 0x1659 JUMP JUMPDEST POP POP POP POP DUP2 MSTORE PUSH1 0x20 ADD PUSH1 0x1 DUP3 ADD DUP1 SLOAD DUP1 PUSH1 0x20 MUL PUSH1 0x20 ADD PUSH1 0x40 MLOAD SWAP1 DUP2 ADD PUSH1 0x40 MSTORE DUP1 SWAP3 SWAP2 SWAP1 DUP2 DUP2 MSTORE PUSH1 0x20 ADD PUSH1 0x0 SWAP1 JUMPDEST DUP3 DUP3 LT ISZERO PUSH2 0x17DE JUMPI DUP4 DUP3 SWAP1 PUSH1 0x0 MSTORE PUSH1 0x20 PUSH1 0x0 KECCAK256 ADD DUP1 SLOAD PUSH2 0x1751 SWAP1 PUSH2 0x2BCE JUMP JUMPDEST DUP1 PUSH1 0x1F ADD PUSH1 0x20 DUP1 SWAP2 DIV MUL PUSH1 0x20 ADD PUSH1 0x40 MLOAD SWAP1 DUP2 ADD PUSH1 0x40 MSTORE DUP1 SWAP3 SWAP2 SWAP1 DUP2 DUP2 MSTORE PUSH1 0x20 ADD DUP3 DUP1 SLOAD PUSH2 0x177D SWAP1 PUSH2 0x2BCE JUMP JUMPDEST DUP1 ISZERO PUSH2 0x17CA JUMPI DUP1 PUSH1 0x1F LT PUSH2 0x179F JUMPI PUSH2 0x100 DUP1 DUP4 SLOAD DIV MUL DUP4 MSTORE SWAP2 PUSH1 0x20 ADD SWAP2 PUSH2 0x17CA JUMP JUMPDEST DUP3 ADD SWAP2 SWAP1 PUSH1 0x0 MSTORE PUSH1 0x20 PUSH1 0x0 KECCAK256 SWAP1 JUMPDEST DUP2 SLOAD DUP2 MSTORE SWAP1 PUSH1 0x1 ADD SWAP1 PUSH1 0x20 ADD DUP1 DUP4 GT PUSH2 0x17AD JUMPI DUP3 SWAP1 SUB PUSH1 0x1F AND DUP3 ADD SWAP2 JUMPDEST POP POP POP POP POP DUP2 MSTORE PUSH1 0x20 ADD SWAP1 PUSH1 0x1 ADD SWAP1 PUSH2 0x1732 JUMP JUMPDEST POP POP POP POP DUP2 MSTORE POP POP SWAP1 POP DUP5 JUMP JUMPDEST DUP1 PUSH1 0x0 DUP1 CALLER PUSH20 0xFFFFFFFFFFFFFFFFFFFFFFFFFFFFFFFFFFFFFFFF AND PUSH20 0xFFFFFFFFFFFFFFFFFFFFFFFFFFFFFFFFFFFFFFFF AND DUP2 MSTORE PUSH1 0x20 ADD SWAP1 DUP2 MSTORE PUSH1 0x20 ADD PUSH1 0x0 KECCAK256 PUSH1 0x12 ADD PUSH1 0x0 ADD SWAP1 DUP1 MLOAD SWAP1 PUSH1 0x20 ADD SWAP1 PUSH2 0x1843 SWAP3 SWAP2 SWAP1 PUSH2 0x1F30 JUMP JUMPDEST POP POP JUMP JUMPDEST PUSH1 0x0 DUP1 CALLER PUSH20 0xFFFFFFFFFFFFFFFFFFFFFFFFFFFFFFFFFFFFFFFF AND PUSH20 0xFFFFFFFFFFFFFFFFFFFFFFFFFFFFFFFFFFFFFFFF AND DUP2 MSTORE PUSH1 0x20 ADD SWAP1 DUP2 MSTORE PUSH1 0x20 ADD PUSH1 0x0 KECCAK256 PUSH1 0x11 ADD PUSH1 0x0 PUSH2 0x1894 SWAP2 SWAP1 PUSH2 0x2085 JUMP JUMPDEST JUMP JUMPDEST PUSH1 0x60 DUP1 PUSH1 0x60 DUP1 PUSH1 0x60 PUSH1 0x0 DUP1 CALLER PUSH20 0xFFFFFFFFFFFFFFFFFFFFFFFFFFFFFFFFFFFFFFFF AND PUSH20 0xFFFFFFFFFFFFFFFFFFFFFFFFFFFFFFFFFFFFFFFF AND DUP2 MSTORE PUSH1 0x20 ADD SWAP1 DUP2 MSTORE PUSH1 0x20 ADD PUSH1 0x0 KECCAK256 PUSH1 0x11 ADD DUP7 DUP2 SLOAD DUP2 LT PUSH2 0x18F1 JUMPI PUSH2 0x18F0 PUSH2 0x2C60 JUMP JUMPDEST JUMPDEST SWAP1 PUSH1 0x0 MSTORE PUSH1 0x20 PUSH1 0x0 KECCAK256 SWAP1 PUSH1 0x5 MUL ADD PUSH1 0x0 ADD PUSH1 0x0 DUP1 CALLER PUSH20 0xFFFFFFFFFFFFFFFFFFFFFFFFFFFFFFFFFFFFFFFF AND PUSH20 0xFFFFFFFFFFFFFFFFFFFFFFFFFFFFFFFFFFFFFFFF AND DUP2 MSTORE PUSH1 0x20 ADD SWAP1 DUP2 MSTORE PUSH1 0x20 ADD PUSH1 0x0 KECCAK256 PUSH1 0x11 ADD DUP8 DUP2 SLOAD DUP2 LT PUSH2 0x1955 JUMPI PUSH2 0x1954 PUSH2 0x2C60 JUMP JUMPDEST JUMPDEST SWAP1 PUSH1 0x0 MSTORE PUSH1 0x20 PUSH1 0x0 KECCAK256 SWAP1 PUSH1 0x5 MUL ADD PUSH1 0x1 ADD PUSH1 0x0 DUP1 CALLER PUSH20 0xFFFFFFFFFFFFFFFFFFFFFFFFFFFFFFFFFFFFFFFF AND PUSH20 0xFFFFFFFFFFFFFFFFFFFFFFFFFFFFFFFFFFFFFFFF AND DUP2 MSTORE PUSH1 0x20 ADD SWAP1 DUP2 MSTORE PUSH1 0x20 ADD PUSH1 0x0 KECCAK256 PUSH1 0x11 ADD DUP9 DUP2 SLOAD DUP2 LT PUSH2 0x19B9 JUMPI PUSH2 0x19B8 PUSH2 0x2C60 JUMP JUMPDEST JUMPDEST SWAP1 PUSH1 0x0 MSTORE PUSH1 0x20 PUSH1 0x0 KECCAK256 SWAP1 PUSH1 0x5 MUL ADD PUSH1 0x2 ADD PUSH1 0x0 DUP1 CALLER PUSH20 0xFFFFFFFFFFFFFFFFFFFFFFFFFFFFFFFFFFFFFFFF AND PUSH20 0xFFFFFFFFFFFFFFFFFFFFFFFFFFFFFFFFFFFFFFFF AND DUP2 MSTORE PUSH1 0x20 ADD SWAP1 DUP2 MSTORE PUSH1 0x20 ADD PUSH1 0x0 KECCAK256 PUSH1 0x11 ADD DUP10 DUP2 SLOAD DUP2 LT PUSH2 0x1A1D JUMPI PUSH2 0x1A1C PUSH2 0x2C60 JUMP JUMPDEST JUMPDEST SWAP1 PUSH1 0x0 MSTORE PUSH1 0x20 PUSH1 0x0 KECCAK256 SWAP1 PUSH1 0x5 MUL ADD PUSH1 0x3 ADD PUSH1 0x0 DUP1 CALLER PUSH20 0xFFFFFFFFFFFFFFFFFFFFFFFFFFFFFFFFFFFFFFFF AND PUSH20 0xFFFFFFFFFFFFFFFFFFFFFFFFFFFFFFFFFFFFFFFF AND DUP2 MSTORE PUSH1 0x20 ADD SWAP1 DUP2 MSTORE PUSH1 0x20 ADD PUSH1 0x0 KECCAK256 PUSH1 0x11 ADD DUP11 DUP2 SLOAD DUP2 LT PUSH2 0x1A81 JUMPI PUSH2 0x1A80 PUSH2 0x2C60 JUMP JUMPDEST JUMPDEST SWAP1 PUSH1 0x0 MSTORE PUSH1 0x20 PUSH1 0x0 KECCAK256 SWAP1 PUSH1 0x5 MUL ADD PUSH1 0x4 ADD DUP5 DUP1 SLOAD PUSH2 0x1A9E SWAP1 PUSH2 0x2BCE JUMP JUMPDEST DUP1 PUSH1 0x1F ADD PUSH1 0x20 DUP1 SWAP2 DIV MUL PUSH1 0x20 ADD PUSH1 0x40 MLOAD SWAP1 DUP2 ADD PUSH1 0x40 MSTORE DUP1 SWAP3 SWAP2 SWAP1 DUP2 DUP2 MSTORE PUSH1 0x20 ADD DUP3 DUP1 SLOAD PUSH2 0x1ACA SWAP1 PUSH2 0x2BCE JUMP JUMPDEST DUP1 ISZERO PUSH2 0x1B17 JUMPI DUP1 PUSH1 0x1F LT PUSH2 0x1AEC JUMPI PUSH2 0x100 DUP1 DUP4 SLOAD DIV MUL DUP4 MSTORE SWAP2 PUSH1 0x20 ADD SWAP2 PUSH2 0x1B17 JUMP JUMPDEST DUP3 ADD SWAP2 SWAP1 PUSH1 0x0 MSTORE PUSH1 0x20 PUSH1 0x0 KECCAK256 SWAP1 JUMPDEST DUP2 SLOAD DUP2 MSTORE SWAP1 PUSH1 0x1 ADD SWAP1 PUSH1 0x20 ADD DUP1 DUP4 GT PUSH2 0x1AFA JUMPI DUP3 SWAP1 SUB PUSH1 0x1F AND DUP3 ADD SWAP2 JUMPDEST POP POP POP POP POP SWAP5 POP DUP4 DUP1 SLOAD PUSH2 0x1B2A SWAP1 PUSH2 0x2BCE JUMP JUMPDEST DUP1 PUSH1 0x1F ADD PUSH1 0x20 DUP1 SWAP2 DIV MUL PUSH1 0x20 ADD PUSH1 0x40 MLOAD SWAP1 DUP2 ADD PUSH1 0x40 MSTORE DUP1 SWAP3 SWAP2 SWAP1 DUP2 DUP2 MSTORE PUSH1 0x20 ADD DUP3 DUP1 SLOAD PUSH2 0x1B56 SWAP1 PUSH2 0x2BCE JUMP JUMPDEST DUP1 ISZERO PUSH2 0x1BA3 JUMPI DUP1 PUSH1 0x1F LT PUSH2 0x1B78 JUMPI PUSH2 0x100 DUP1 DUP4 SLOAD DIV MUL DUP4 MSTORE SWAP2 PUSH1 0x20 ADD SWAP2 PUSH2 0x1BA3 JUMP JUMPDEST DUP3 ADD SWAP2 SWAP1 PUSH1 0x0 MSTORE PUSH1 0x20 PUSH1 0x0 KECCAK256 SWAP1 JUMPDEST DUP2 SLOAD DUP2 MSTORE SWAP1 PUSH1 0x1 ADD SWAP1 PUSH1 0x20 ADD DUP1 DUP4 GT PUSH2 0x1B86 JUMPI DUP3 SWAP1 SUB PUSH1 0x1F AND DUP3 ADD SWAP2 JUMPDEST POP POP POP POP POP SWAP4 POP DUP3 DUP1 SLOAD PUSH2 0x1BB6 SWAP1 PUSH2 0x2BCE JUMP JUMPDEST DUP1 PUSH1 0x1F ADD PUSH1 0x20 DUP1 SWAP2 DIV MUL PUSH1 0x20 ADD PUSH1 0x40 MLOAD SWAP1 DUP2 ADD PUSH1 0x40 MSTORE DUP1 SWAP3 SWAP2 SWAP1 DUP2 DUP2 MSTORE PUSH1 0x20 ADD DUP3 DUP1 SLOAD PUSH2 0x1BE2 SWAP1 PUSH2 0x2BCE JUMP JUMPDEST DUP1 ISZERO PUSH2 0x1C2F JUMPI DUP1 PUSH1 0x1F LT PUSH2 0x1C04 JUMPI PUSH2 0x100 DUP1 DUP4 SLOAD DIV MUL DUP4 MSTORE SWAP2 PUSH1 0x20 ADD SWAP2 PUSH2 0x1C2F JUMP JUMPDEST DUP3 ADD SWAP2 SWAP1 PUSH1 0x0 MSTORE PUSH1 0x20 PUSH1 0x0 KECCAK256 SWAP1 JUMPDEST DUP2 SLOAD DUP2 MSTORE SWAP1 PUSH1 0x1 ADD SWAP1 PUSH1 0x20 ADD DUP1 DUP4 GT PUSH2 0x1C12 JUMPI DUP3 SWAP1 SUB PUSH1 0x1F AND DUP3 ADD SWAP2 JUMPDEST POP POP POP POP POP SWAP3 POP DUP2 DUP1 SLOAD PUSH2 0x1C42 SWAP1 PUSH2 0x2BCE JUMP JUMPDEST DUP1 PUSH1 0x1F ADD PUSH1 0x20 DUP1 SWAP2 DIV MUL PUSH1 0x20 ADD PUSH1 0x40 MLOAD SWAP1 DUP2 ADD PUSH1 0x40 MSTORE DUP1 SWAP3 SWAP2 SWAP1 DUP2 DUP2 MSTORE PUSH1 0x20 ADD DUP3 DUP1 SLOAD PUSH2 0x1C6E SWAP1 PUSH2 0x2BCE JUMP JUMPDEST DUP1 ISZERO PUSH2 0x1CBB JUMPI DUP1 PUSH1 0x1F LT PUSH2 0x1C90 JUMPI PUSH2 0x100 DUP1 DUP4 SLOAD DIV MUL DUP4 MSTORE SWAP2 PUSH1 0x20 ADD SWAP2 PUSH2 0x1CBB JUMP JUMPDEST DUP3 ADD SWAP2 SWAP1 PUSH1 0x0 MSTORE PUSH1 0x20 PUSH1 0x0 KECCAK256 SWAP1 JUMPDEST DUP2 SLOAD DUP2 MSTORE SWAP1 PUSH1 0x1 ADD SWAP1 PUSH1 0x20 ADD DUP1 DUP4 GT PUSH2 0x1C9E JUMPI DUP3 SWAP1 SUB PUSH1 0x1F AND DUP3 ADD SWAP2 JUMPDEST POP POP POP POP POP SWAP2 POP DUP1 DUP1 SLOAD PUSH2 0x1CCE SWAP1 PUSH2 0x2BCE JUMP JUMPDEST DUP1 PUSH1 0x1F ADD PUSH1 0x20 DUP1 SWAP2 DIV MUL PUSH1 0x20 ADD PUSH1 0x40 MLOAD SWAP1 DUP2 ADD PUSH1 0x40 MSTORE DUP1 SWAP3 SWAP2 SWAP1 DUP2 DUP2 MSTORE PUSH1 0x20 ADD DUP3 DUP1 SLOAD PUSH2 0x1CFA SWAP1 PUSH2 0x2BCE JUMP JUMPDEST DUP1 ISZERO PUSH2 0x1D47 JUMPI DUP1 PUSH1 0x1F LT PUSH2 0x1D1C JUMPI PUSH2 0x100 DUP1 DUP4 SLOAD DIV MUL DUP4 MSTORE SWAP2 PUSH1 0x20 ADD SWAP2 PUSH2 0x1D47 JUMP JUMPDEST DUP3 ADD SWAP2 SWAP1 PUSH1 0x0 MSTORE PUSH1 0x20 PUSH1 0x0 KECCAK256 SWAP1 JUMPDEST DUP2 SLOAD DUP2 MSTORE SWAP1 PUSH1 0x1 ADD SWAP1 PUSH1 0x20 ADD DUP1 DUP4 GT PUSH2 0x1D2A JUMPI DUP3 SWAP1 SUB PUSH1 0x1F AND DUP3 ADD SWAP2 JUMPDEST POP POP POP POP POP SWAP1 POP SWAP5 POP SWAP5 POP SWAP5 POP SWAP5 POP SWAP5 POP SWAP2 SWAP4 SWAP6 SWAP1 SWAP3 SWAP5 POP JUMP JUMPDEST PUSH1 0x0 DUP1 CALLER PUSH20 0xFFFFFFFFFFFFFFFFFFFFFFFFFFFFFFFFFFFFFFFF AND PUSH20 0xFFFFFFFFFFFFFFFFFFFFFFFFFFFFFFFFFFFFFFFF AND DUP2 MSTORE PUSH1 0x20 ADD SWAP1 DUP2 MSTORE PUSH1 0x20 ADD PUSH1 0x0 KECCAK256 PUSH1 0x0 DUP1 DUP3 ADD PUSH1 0x0 DUP1 DUP3 ADD PUSH1 0x0 PUSH2 0x1DB5 SWAP2 SWAP1 PUSH2 0x2045 JUMP JUMPDEST PUSH1 0x1 DUP3 ADD PUSH1 0x0 PUSH2 0x1DC5 SWAP2 SWAP1 PUSH2 0x2045 JUMP JUMPDEST PUSH1 0x2 DUP3 ADD PUSH1 0x0 PUSH2 0x100 EXP DUP2 SLOAD SWAP1 PUSH20 0xFFFFFFFFFFFFFFFFFFFFFFFFFFFFFFFFFFFFFFFF MUL NOT AND SWAP1 SSTORE PUSH1 0x3 DUP3 ADD PUSH1 0x0 PUSH2 0x1DFC SWAP2 SWAP1 PUSH2 0x2045 JUMP JUMPDEST PUSH1 0x4 DUP3 ADD PUSH1 0x0 PUSH2 0x1E0C SWAP2 SWAP1 PUSH2 0x2045 JUMP JUMPDEST PUSH1 0x5 DUP3 ADD PUSH1 0x0 PUSH2 0x1E1C SWAP2 SWAP1 PUSH2 0x2045 JUMP JUMPDEST PUSH1 0x6 DUP3 ADD PUSH1 0x0 PUSH2 0x1E2C SWAP2 SWAP1 PUSH2 0x2045 JUMP JUMPDEST PUSH1 0x7 DUP3 ADD PUSH1 0x0 SWAP1 SSTORE POP POP PUSH1 0x8 DUP3 ADD PUSH1 0x0 DUP1 DUP3 ADD PUSH1 0x0 PUSH2 0x1E4B SWAP2 SWAP1 PUSH2 0x2045 JUMP JUMPDEST PUSH1 0x1 DUP3 ADD PUSH1 0x0 PUSH2 0x1E5B SWAP2 SWAP1 PUSH2 0x2045 JUMP JUMPDEST PUSH1 0x2 DUP3 ADD PUSH1 0x0 PUSH2 0x1E6B SWAP2 SWAP1 PUSH2 0x2045 JUMP JUMPDEST PUSH1 0x3 DUP3 ADD PUSH1 0x0 PUSH2 0x1E7B SWAP2 SWAP1 PUSH2 0x2045 JUMP JUMPDEST PUSH1 0x4 DUP3 ADD PUSH1 0x0 PUSH2 0x1E8B SWAP2 SWAP1 PUSH2 0x2045 JUMP JUMPDEST PUSH1 0x5 DUP3 ADD PUSH1 0x0 PUSH2 0x1E9B SWAP2 SWAP1 PUSH2 0x2045 JUMP JUMPDEST POP POP PUSH1 0xE DUP3 ADD PUSH1 0x0 DUP1 DUP3 ADD PUSH1 0x0 PUSH2 0x1EB2 SWAP2 SWAP1 PUSH2 0x1F0F JUMP JUMPDEST PUSH1 0x1 DUP3 ADD PUSH1 0x0 PUSH2 0x1EC2 SWAP2 SWAP1 PUSH2 0x1F0F JUMP JUMPDEST PUSH1 0x2 DUP3 ADD PUSH1 0x0 PUSH2 0x1ED2 SWAP2 SWAP1 PUSH2 0x1F0F JUMP JUMPDEST POP POP PUSH1 0x11 DUP3 ADD PUSH1 0x0 PUSH2 0x1EE4 SWAP2 SWAP1 PUSH2 0x2085 JUMP JUMPDEST PUSH1 0x12 DUP3 ADD PUSH1 0x0 DUP1 DUP3 ADD PUSH1 0x0 PUSH2 0x1EF9 SWAP2 SWAP1 PUSH2 0x1F0F JUMP JUMPDEST PUSH1 0x1 DUP3 ADD PUSH1 0x0 PUSH2 0x1F09 SWAP2 SWAP1 PUSH2 0x1F0F JUMP JUMPDEST POP POP POP POP JUMP JUMPDEST POP DUP1 SLOAD PUSH1 0x0 DUP3 SSTORE SWAP1 PUSH1 0x0 MSTORE PUSH1 0x20 PUSH1 0x0 KECCAK256 SWAP1 DUP2 ADD SWAP1 PUSH2 0x1F2D SWAP2 SWAP1 PUSH2 0x20A9 JUMP JUMPDEST POP JUMP JUMPDEST DUP3 DUP1 SLOAD DUP3 DUP3 SSTORE SWAP1 PUSH1 0x0 MSTORE PUSH1 0x20 PUSH1 0x0 KECCAK256 SWAP1 DUP2 ADD SWAP3 DUP3 ISZERO PUSH2 0x1F7F JUMPI SWAP2 PUSH1 0x20 MUL DUP3 ADD JUMPDEST DUP3 DUP2 GT ISZERO PUSH2 0x1F7E JUMPI DUP3 MLOAD DUP3 SWAP1 DUP1 MLOAD SWAP1 PUSH1 0x20 ADD SWAP1 PUSH2 0x1F6E SWAP3 SWAP2 SWAP1 PUSH2 0x1FBF JUMP JUMPDEST POP SWAP2 PUSH1 0x20 ADD SWAP2 SWAP1 PUSH1 0x1 ADD SWAP1 PUSH2 0x1F50 JUMP JUMPDEST JUMPDEST POP SWAP1 POP PUSH2 0x1F8C SWAP2 SWAP1 PUSH2 0x20A9 JUMP JUMPDEST POP SWAP1 JUMP JUMPDEST PUSH1 0x40 MLOAD DUP1 PUSH1 0xA0 ADD PUSH1 0x40 MSTORE DUP1 PUSH1 0x60 DUP2 MSTORE PUSH1 0x20 ADD PUSH1 0x60 DUP2 MSTORE PUSH1 0x20 ADD PUSH1 0x60 DUP2 MSTORE PUSH1 0x20 ADD PUSH1 0x60 DUP2 MSTORE PUSH1 0x20 ADD PUSH1 0x60 DUP2 MSTORE POP SWAP1 JUMP JUMPDEST DUP3 DUP1 SLOAD PUSH2 0x1FCB SWAP1 PUSH2 0x2BCE JUMP JUMPDEST SWAP1 PUSH1 0x0 MSTORE PUSH1 0x20 PUSH1 0x0 KECCAK256 SWAP1 PUSH1 0x1F ADD PUSH1 0x20 SWAP1 DIV DUP2 ADD SWAP3 DUP3 PUSH2 0x1FED JUMPI PUSH1 0x0 DUP6 SSTORE PUSH2 0x2034 JUMP JUMPDEST DUP3 PUSH1 0x1F LT PUSH2 0x2006 JUMPI DUP1 MLOAD PUSH1 0xFF NOT AND DUP4 DUP1 ADD OR DUP6 SSTORE PUSH2 0x2034 JUMP JUMPDEST DUP3 DUP1 ADD PUSH1 0x1 ADD DUP6 SSTORE DUP3 ISZERO PUSH2 0x2034 JUMPI SWAP2 DUP3 ADD JUMPDEST DUP3 DUP2 GT ISZERO PUSH2 0x2033 JUMPI DUP3 MLOAD DUP3 SSTORE SWAP2 PUSH1 0x20 ADD SWAP2 SWAP1 PUSH1 0x1 ADD SWAP1 PUSH2 0x2018 JUMP JUMPDEST JUMPDEST POP SWAP1 POP PUSH2 0x2041 SWAP2 SWAP1 PUSH2 0x20CD JUMP JUMPDEST POP SWAP1 JUMP JUMPDEST POP DUP1 SLOAD PUSH2 0x2051 SWAP1 PUSH2 0x2BCE JUMP JUMPDEST PUSH1 0x0 DUP3 SSTORE DUP1 PUSH1 0x1F LT PUSH2 0x2063 JUMPI POP PUSH2 0x2082 JUMP JUMPDEST PUSH1 0x1F ADD PUSH1 0x20 SWAP1 DIV SWAP1 PUSH1 0x0 MSTORE PUSH1 0x20 PUSH1 0x0 KECCAK256 SWAP1 DUP2 ADD SWAP1 PUSH2 0x2081 SWAP2 SWAP1 PUSH2 0x20CD JUMP JUMPDEST JUMPDEST POP JUMP JUMPDEST POP DUP1 SLOAD PUSH1 0x0 DUP3 SSTORE PUSH1 0x5 MUL SWAP1 PUSH1 0x0 MSTORE PUSH1 0x20 PUSH1 0x0 KECCAK256 SWAP1 DUP2 ADD SWAP1 PUSH2 0x20A6 SWAP2 SWAP1 PUSH2 0x20EA JUMP JUMPDEST POP JUMP JUMPDEST JUMPDEST DUP1 DUP3 GT ISZERO PUSH2 0x20C9 JUMPI PUSH1 0x0 DUP2 DUP2 PUSH2 0x20C0 SWAP2 SWAP1 PUSH2 0x2045 JUMP JUMPDEST POP PUSH1 0x1 ADD PUSH2 0x20AA JUMP JUMPDEST POP SWAP1 JUMP JUMPDEST JUMPDEST DUP1 DUP3 GT ISZERO PUSH2 0x20E6 JUMPI PUSH1 0x0 DUP2 PUSH1 0x0 SWAP1 SSTORE POP PUSH1 0x1 ADD PUSH2 0x20CE JUMP JUMPDEST POP SWAP1 JUMP JUMPDEST JUMPDEST DUP1 DUP3 GT ISZERO PUSH2 0x214D JUMPI PUSH1 0x0 DUP1 DUP3 ADD PUSH1 0x0 PUSH2 0x2104 SWAP2 SWAP1 PUSH2 0x2045 JUMP JUMPDEST PUSH1 0x1 DUP3 ADD PUSH1 0x0 PUSH2 0x2114 SWAP2 SWAP1 PUSH2 0x2045 JUMP JUMPDEST PUSH1 0x2 DUP3 ADD PUSH1 0x0 PUSH2 0x2124 SWAP2 SWAP1 PUSH2 0x2045 JUMP JUMPDEST PUSH1 0x3 DUP3 ADD PUSH1 0x0 PUSH2 0x2134 SWAP2 SWAP1 PUSH2 0x2045 JUMP JUMPDEST PUSH1 0x4 DUP3 ADD PUSH1 0x0 PUSH2 0x2144 SWAP2 SWAP1 PUSH2 0x2045 JUMP JUMPDEST POP PUSH1 0x5 ADD PUSH2 0x20EB JUMP JUMPDEST POP SWAP1 JUMP JUMPDEST PUSH1 0x0 PUSH2 0x2164 PUSH2 0x215F DUP5 PUSH2 0x2A8D JUMP JUMPDEST PUSH2 0x2A68 JUMP JUMPDEST SWAP1 POP DUP1 DUP4 DUP3 MSTORE PUSH1 0x20 DUP3 ADD SWAP1 POP DUP3 DUP6 PUSH1 0x20 DUP7 MUL DUP3 ADD GT ISZERO PUSH2 0x2187 JUMPI PUSH2 0x2186 PUSH2 0x2CC3 JUMP JUMPDEST JUMPDEST PUSH1 0x0 JUMPDEST DUP6 DUP2 LT ISZERO PUSH2 0x21D5 JUMPI DUP2 CALLDATALOAD PUSH8 0xFFFFFFFFFFFFFFFF DUP2 GT ISZERO PUSH2 0x21AD JUMPI PUSH2 0x21AC PUSH2 0x2CBE JUMP JUMPDEST JUMPDEST DUP1 DUP7 ADD PUSH2 0x21BA DUP10 DUP3 PUSH2 0x2264 JUMP JUMPDEST DUP6 MSTORE PUSH1 0x20 DUP6 ADD SWAP5 POP PUSH1 0x20 DUP5 ADD SWAP4 POP POP POP PUSH1 0x1 DUP2 ADD SWAP1 POP PUSH2 0x218A JUMP JUMPDEST POP POP POP SWAP4 SWAP3 POP POP POP JUMP JUMPDEST PUSH1 0x0 PUSH2 0x21F2 PUSH2 0x21ED DUP5 PUSH2 0x2AB9 JUMP JUMPDEST PUSH2 0x2A68 JUMP JUMPDEST SWAP1 POP DUP3 DUP2 MSTORE PUSH1 0x20 DUP2 ADD DUP5 DUP5 DUP5 ADD GT ISZERO PUSH2 0x220E JUMPI PUSH2 0x220D PUSH2 0x2CC8 JUMP JUMPDEST JUMPDEST PUSH2 0x2219 DUP5 DUP3 DUP6 PUSH2 0x2B8C JUMP JUMPDEST POP SWAP4 SWAP3 POP POP POP JUMP JUMPDEST PUSH1 0x0 DUP2 CALLDATALOAD SWAP1 POP PUSH2 0x2230 DUP2 PUSH2 0x2CE8 JUMP JUMPDEST SWAP3 SWAP2 POP POP JUMP JUMPDEST PUSH1 0x0 DUP3 PUSH1 0x1F DUP4 ADD SLT PUSH2 0x224B JUMPI PUSH2 0x224A PUSH2 0x2CBE JUMP JUMPDEST JUMPDEST DUP2 CALLDATALOAD PUSH2 0x225B DUP5 DUP3 PUSH1 0x20 DUP7 ADD PUSH2 0x2151 JUMP JUMPDEST SWAP2 POP POP SWAP3 SWAP2 POP POP JUMP JUMPDEST PUSH1 0x0 DUP3 PUSH1 0x1F DUP4 ADD SLT PUSH2 0x2279 JUMPI PUSH2 0x2278 PUSH2 0x2CBE JUMP JUMPDEST JUMPDEST DUP2 CALLDATALOAD PUSH2 0x2289 DUP5 DUP3 PUSH1 0x20 DUP7 ADD PUSH2 0x21DF JUMP JUMPDEST SWAP2 POP POP SWAP3 SWAP2 POP POP JUMP JUMPDEST PUSH1 0x0 DUP2 CALLDATALOAD SWAP1 POP PUSH2 0x22A1 DUP2 PUSH2 0x2CFF JUMP JUMPDEST SWAP3 SWAP2 POP POP JUMP JUMPDEST PUSH1 0x0 PUSH1 0x20 DUP3 DUP5 SUB SLT ISZERO PUSH2 0x22BD JUMPI PUSH2 0x22BC PUSH2 0x2CD2 JUMP JUMPDEST JUMPDEST PUSH1 0x0 PUSH2 0x22CB DUP5 DUP3 DUP6 ADD PUSH2 0x2221 JUMP JUMPDEST SWAP2 POP POP SWAP3 SWAP2 POP POP JUMP JUMPDEST PUSH1 0x0 PUSH1 0x20 DUP3 DUP5 SUB SLT ISZERO PUSH2 0x22EA JUMPI PUSH2 0x22E9 PUSH2 0x2CD2 JUMP JUMPDEST JUMPDEST PUSH1 0x0 DUP3 ADD CALLDATALOAD PUSH8 0xFFFFFFFFFFFFFFFF DUP2 GT ISZERO PUSH2 0x2308 JUMPI PUSH2 0x2307 PUSH2 0x2CCD JUMP JUMPDEST JUMPDEST PUSH2 0x2314 DUP5 DUP3 DUP6 ADD PUSH2 0x2236 JUMP JUMPDEST SWAP2 POP POP SWAP3 SWAP2 POP POP JUMP JUMPDEST PUSH1 0x0 DUP1 PUSH1 0x0 PUSH1 0x60 DUP5 DUP7 SUB SLT ISZERO PUSH2 0x2336 JUMPI PUSH2 0x2335 PUSH2 0x2CD2 JUMP JUMPDEST JUMPDEST PUSH1 0x0 DUP5 ADD CALLDATALOAD PUSH8 0xFFFFFFFFFFFFFFFF DUP2 GT ISZERO PUSH2 0x2354 JUMPI PUSH2 0x2353 PUSH2 0x2CCD JUMP JUMPDEST JUMPDEST PUSH2 0x2360 DUP7 DUP3 DUP8 ADD PUSH2 0x2236 JUMP JUMPDEST SWAP4 POP POP PUSH1 0x20 DUP5 ADD CALLDATALOAD PUSH8 0xFFFFFFFFFFFFFFFF DUP2 GT ISZERO PUSH2 0x2381 JUMPI PUSH2 0x2380 PUSH2 0x2CCD JUMP JUMPDEST JUMPDEST PUSH2 0x238D DUP7 DUP3 DUP8 ADD PUSH2 0x2236 JUMP JUMPDEST SWAP3 POP POP PUSH1 0x40 DUP5 ADD CALLDATALOAD PUSH8 0xFFFFFFFFFFFFFFFF DUP2 GT ISZERO PUSH2 0x23AE JUMPI PUSH2 0x23AD PUSH2 0x2CCD JUMP JUMPDEST JUMPDEST PUSH2 0x23BA DUP7 DUP3 DUP8 ADD PUSH2 0x2236 JUMP JUMPDEST SWAP2 POP POP SWAP3 POP SWAP3 POP SWAP3 JUMP JUMPDEST PUSH1 0x0 DUP1 PUSH1 0x0 DUP1 PUSH1 0x0 PUSH1 0xA0 DUP7 DUP9 SUB SLT ISZERO PUSH2 0x23E0 JUMPI PUSH2 0x23DF PUSH2 0x2CD2 JUMP JUMPDEST JUMPDEST PUSH1 0x0 DUP7 ADD CALLDATALOAD PUSH8 0xFFFFFFFFFFFFFFFF DUP2 GT ISZERO PUSH2 0x23FE JUMPI PUSH2 0x23FD PUSH2 0x2CCD JUMP JUMPDEST JUMPDEST PUSH2 0x240A DUP9 DUP3 DUP10 ADD PUSH2 0x2264 JUMP JUMPDEST SWAP6 POP POP PUSH1 0x20 DUP7 ADD CALLDATALOAD PUSH8 0xFFFFFFFFFFFFFFFF DUP2 GT ISZERO PUSH2 0x242B JUMPI PUSH2 0x242A PUSH2 0x2CCD JUMP JUMPDEST JUMPDEST PUSH2 0x2437 DUP9 DUP3 DUP10 ADD PUSH2 0x2264 JUMP JUMPDEST SWAP5 POP POP PUSH1 0x40 DUP7 ADD CALLDATALOAD PUSH8 0xFFFFFFFFFFFFFFFF DUP2 GT ISZERO PUSH2 0x2458 JUMPI PUSH2 0x2457 PUSH2 0x2CCD JUMP JUMPDEST JUMPDEST PUSH2 0x2464 DUP9 DUP3 DUP10 ADD PUSH2 0x2264 JUMP JUMPDEST SWAP4 POP POP PUSH1 0x60 DUP7 ADD CALLDATALOAD PUSH8 0xFFFFFFFFFFFFFFFF DUP2 GT ISZERO PUSH2 0x2485 JUMPI PUSH2 0x2484 PUSH2 0x2CCD JUMP JUMPDEST JUMPDEST PUSH2 0x2491 DUP9 DUP3 DUP10 ADD PUSH2 0x2264 JUMP JUMPDEST SWAP3 POP POP PUSH1 0x80 DUP7 ADD CALLDATALOAD PUSH8 0xFFFFFFFFFFFFFFFF DUP2 GT ISZERO PUSH2 0x24B2 JUMPI PUSH2 0x24B1 PUSH2 0x2CCD JUMP JUMPDEST JUMPDEST PUSH2 0x24BE DUP9 DUP3 DUP10 ADD PUSH2 0x2264 JUMP JUMPDEST SWAP2 POP POP SWAP3 SWAP6 POP SWAP3 SWAP6 SWAP1 SWAP4 POP JUMP JUMPDEST PUSH1 0x0 DUP1 PUSH1 0x0 DUP1 PUSH1 0x0 DUP1 PUSH1 0xC0 DUP8 DUP10 SUB SLT ISZERO PUSH2 0x24E8 JUMPI PUSH2 0x24E7 PUSH2 0x2CD2 JUMP JUMPDEST JUMPDEST PUSH1 0x0 DUP8 ADD CALLDATALOAD PUSH8 0xFFFFFFFFFFFFFFFF DUP2 GT ISZERO PUSH2 0x2506 JUMPI PUSH2 0x2505 PUSH2 0x2CCD JUMP JUMPDEST JUMPDEST PUSH2 0x2512 DUP10 DUP3 DUP11 ADD PUSH2 0x2264 JUMP JUMPDEST SWAP7 POP POP PUSH1 0x20 DUP8 ADD CALLDATALOAD PUSH8 0xFFFFFFFFFFFFFFFF DUP2 GT ISZERO PUSH2 0x2533 JUMPI PUSH2 0x2532 PUSH2 0x2CCD JUMP JUMPDEST JUMPDEST PUSH2 0x253F DUP10 DUP3 DUP11 ADD PUSH2 0x2264 JUMP JUMPDEST SWAP6 POP POP PUSH1 0x40 DUP8 ADD CALLDATALOAD PUSH8 0xFFFFFFFFFFFFFFFF DUP2 GT ISZERO PUSH2 0x2560 JUMPI PUSH2 0x255F PUSH2 0x2CCD JUMP JUMPDEST JUMPDEST PUSH2 0x256C DUP10 DUP3 DUP11 ADD PUSH2 0x2264 JUMP JUMPDEST SWAP5 POP POP PUSH1 0x60 DUP8 ADD CALLDATALOAD PUSH8 0xFFFFFFFFFFFFFFFF DUP2 GT ISZERO PUSH2 0x258D JUMPI PUSH2 0x258C PUSH2 0x2CCD JUMP JUMPDEST JUMPDEST PUSH2 0x2599 DUP10 DUP3 DUP11 ADD PUSH2 0x2264 JUMP JUMPDEST SWAP4 POP POP PUSH1 0x80 DUP8 ADD CALLDATALOAD PUSH8 0xFFFFFFFFFFFFFFFF DUP2 GT ISZERO PUSH2 0x25BA JUMPI PUSH2 0x25B9 PUSH2 0x2CCD JUMP JUMPDEST JUMPDEST PUSH2 0x25C6 DUP10 DUP3 DUP11 ADD PUSH2 0x2264 JUMP JUMPDEST SWAP3 POP POP PUSH1 0xA0 DUP8 ADD CALLDATALOAD PUSH8 0xFFFFFFFFFFFFFFFF DUP2 GT ISZERO PUSH2 0x25E7 JUMPI PUSH2 0x25E6 PUSH2 0x2CCD JUMP JUMPDEST JUMPDEST PUSH2 0x25F3 DUP10 DUP3 DUP11 ADD PUSH2 0x2264 JUMP JUMPDEST SWAP2 POP POP SWAP3 SWAP6 POP SWAP3 SWAP6 POP SWAP3 SWAP6 JUMP JUMPDEST PUSH1 0x0 PUSH1 0x20 DUP3 DUP5 SUB SLT ISZERO PUSH2 0x2616 JUMPI PUSH2 0x2615 PUSH2 0x2CD2 JUMP JUMPDEST JUMPDEST PUSH1 0x0 PUSH2 0x2624 DUP5 DUP3 DUP6 ADD PUSH2 0x2292 JUMP JUMPDEST SWAP2 POP POP SWAP3 SWAP2 POP POP JUMP JUMPDEST PUSH1 0x0 PUSH2 0x2639 DUP4 DUP4 PUSH2 0x26C5 JUMP JUMPDEST SWAP1 POP SWAP3 SWAP2 POP POP JUMP JUMPDEST PUSH2 0x264A DUP2 PUSH2 0x2B50 JUMP JUMPDEST DUP3 MSTORE POP POP JUMP JUMPDEST PUSH1 0x0 PUSH2 0x265B DUP3 PUSH2 0x2AFA JUMP JUMPDEST PUSH2 0x2665 DUP2 DUP6 PUSH2 0x2B1D JUMP JUMPDEST SWAP4 POP DUP4 PUSH1 0x20 DUP3 MUL DUP6 ADD PUSH2 0x2677 DUP6 PUSH2 0x2AEA JUMP JUMPDEST DUP1 PUSH1 0x0 JUMPDEST DUP6 DUP2 LT ISZERO PUSH2 0x26B3 JUMPI DUP5 DUP5 SUB DUP10 MSTORE DUP2 MLOAD PUSH2 0x2694 DUP6 DUP3 PUSH2 0x262D JUMP JUMPDEST SWAP5 POP PUSH2 0x269F DUP4 PUSH2 0x2B10 JUMP JUMPDEST SWAP3 POP PUSH1 0x20 DUP11 ADD SWAP10 POP POP PUSH1 0x1 DUP2 ADD SWAP1 POP PUSH2 0x267B JUMP JUMPDEST POP DUP3 SWAP8 POP DUP8 SWAP6 POP POP POP POP POP POP SWAP3 SWAP2 POP POP JUMP JUMPDEST PUSH1 0x0 PUSH2 0x26D0 DUP3 PUSH2 0x2B05 JUMP JUMPDEST PUSH2 0x26DA DUP2 DUP6 PUSH2 0x2B2E JUMP JUMPDEST SWAP4 POP PUSH2 0x26EA DUP2 DUP6 PUSH1 0x20 DUP7 ADD PUSH2 0x2B9B JUMP JUMPDEST PUSH2 0x26F3 DUP2 PUSH2 0x2CD7 JUMP JUMPDEST DUP5 ADD SWAP2 POP POP SWAP3 SWAP2 POP POP JUMP JUMPDEST PUSH1 0x0 PUSH2 0x2709 DUP3 PUSH2 0x2B05 JUMP JUMPDEST PUSH2 0x2713 DUP2 DUP6 PUSH2 0x2B3F JUMP JUMPDEST SWAP4 POP PUSH2 0x2723 DUP2 DUP6 PUSH1 0x20 DUP7 ADD PUSH2 0x2B9B JUMP JUMPDEST PUSH2 0x272C DUP2 PUSH2 0x2CD7 JUMP JUMPDEST DUP5 ADD SWAP2 POP POP SWAP3 SWAP2 POP POP JUMP JUMPDEST PUSH1 0x0 PUSH1 0x40 DUP4 ADD PUSH1 0x0 DUP4 ADD MLOAD DUP5 DUP3 SUB PUSH1 0x0 DUP7 ADD MSTORE PUSH2 0x2754 DUP3 DUP3 PUSH2 0x2650 JUMP JUMPDEST SWAP2 POP POP PUSH1 0x20 DUP4 ADD MLOAD DUP5 DUP3 SUB PUSH1 0x20 DUP7 ADD MSTORE PUSH2 0x276E DUP3 DUP3 PUSH2 0x2650 JUMP JUMPDEST SWAP2 POP POP DUP1 SWAP2 POP POP SWAP3 SWAP2 POP POP JUMP JUMPDEST PUSH1 0x0 PUSH1 0xC0 DUP4 ADD PUSH1 0x0 DUP4 ADD MLOAD DUP5 DUP3 SUB PUSH1 0x0 DUP7 ADD MSTORE PUSH2 0x2798 DUP3 DUP3 PUSH2 0x26C5 JUMP JUMPDEST SWAP2 POP POP PUSH1 0x20 DUP4 ADD MLOAD DUP5 DUP3 SUB PUSH1 0x20 DUP7 ADD MSTORE PUSH2 0x27B2 DUP3 DUP3 PUSH2 0x26C5 JUMP JUMPDEST SWAP2 POP POP PUSH1 0x40 DUP4 ADD MLOAD DUP5 DUP3 SUB PUSH1 0x40 DUP7 ADD MSTORE PUSH2 0x27CC DUP3 DUP3 PUSH2 0x26C5 JUMP JUMPDEST SWAP2 POP POP PUSH1 0x60 DUP4 ADD MLOAD DUP5 DUP3 SUB PUSH1 0x60 DUP7 ADD MSTORE PUSH2 0x27E6 DUP3 DUP3 PUSH2 0x26C5 JUMP JUMPDEST SWAP2 POP POP PUSH1 0x80 DUP4 ADD MLOAD DUP5 DUP3 SUB PUSH1 0x80 DUP7 ADD MSTORE PUSH2 0x2800 DUP3 DUP3 PUSH2 0x26C5 JUMP JUMPDEST SWAP2 POP POP PUSH1 0xA0 DUP4 ADD MLOAD DUP5 DUP3 SUB PUSH1 0xA0 DUP7 ADD MSTORE PUSH2 0x281A DUP3 DUP3 PUSH2 0x26C5 JUMP JUMPDEST SWAP2 POP POP DUP1 SWAP2 POP POP SWAP3 SWAP2 POP POP JUMP JUMPDEST PUSH1 0x0 PUSH2 0x100 DUP4 ADD PUSH1 0x0 DUP4 ADD MLOAD DUP5 DUP3 SUB PUSH1 0x0 DUP7 ADD MSTORE PUSH2 0x2845 DUP3 DUP3 PUSH2 0x26C5 JUMP JUMPDEST SWAP2 POP POP PUSH1 0x20 DUP4 ADD MLOAD DUP5 DUP3 SUB PUSH1 0x20 DUP7 ADD MSTORE PUSH2 0x285F DUP3 DUP3 PUSH2 0x26C5 JUMP JUMPDEST SWAP2 POP POP PUSH1 0x40 DUP4 ADD MLOAD PUSH2 0x2874 PUSH1 0x40 DUP7 ADD DUP3 PUSH2 0x2641 JUMP JUMPDEST POP PUSH1 0x60 DUP4 ADD MLOAD DUP5 DUP3 SUB PUSH1 0x60 DUP7 ADD MSTORE PUSH2 0x288C DUP3 DUP3 PUSH2 0x26C5 JUMP JUMPDEST SWAP2 POP POP PUSH1 0x80 DUP4 ADD MLOAD DUP5 DUP3 SUB PUSH1 0x80 DUP7 ADD MSTORE PUSH2 0x28A6 DUP3 DUP3 PUSH2 0x26C5 JUMP JUMPDEST SWAP2 POP POP PUSH1 0xA0 DUP4 ADD MLOAD DUP5 DUP3 SUB PUSH1 0xA0 DUP7 ADD MSTORE PUSH2 0x28C0 DUP3 DUP3 PUSH2 0x26C5 JUMP JUMPDEST SWAP2 POP POP PUSH1 0xC0 DUP4 ADD MLOAD DUP5 DUP3 SUB PUSH1 0xC0 DUP7 ADD MSTORE PUSH2 0x28DA DUP3 DUP3 PUSH2 0x26C5 JUMP JUMPDEST SWAP2 POP POP PUSH1 0xE0 DUP4 ADD MLOAD PUSH2 0x28EF PUSH1 0xE0 DUP7 ADD DUP3 PUSH2 0x2958 JUMP JUMPDEST POP DUP1 SWAP2 POP POP SWAP3 SWAP2 POP POP JUMP JUMPDEST PUSH1 0x0 PUSH1 0x60 DUP4 ADD PUSH1 0x0 DUP4 ADD MLOAD DUP5 DUP3 SUB PUSH1 0x0 DUP7 ADD MSTORE PUSH2 0x2917 DUP3 DUP3 PUSH2 0x2650 JUMP JUMPDEST SWAP2 POP POP PUSH1 0x20 DUP4 ADD MLOAD DUP5 DUP3 SUB PUSH1 0x20 DUP7 ADD MSTORE PUSH2 0x2931 DUP3 DUP3 PUSH2 0x2650 JUMP JUMPDEST SWAP2 POP POP PUSH1 0x40 DUP4 ADD MLOAD DUP5 DUP3 SUB PUSH1 0x40 DUP7 ADD MSTORE PUSH2 0x294B DUP3 DUP3 PUSH2 0x2650 JUMP JUMPDEST SWAP2 POP POP DUP1 SWAP2 POP POP SWAP3 SWAP2 POP POP JUMP JUMPDEST PUSH2 0x2961 DUP2 PUSH2 0x2B82 JUMP JUMPDEST DUP3 MSTORE POP POP JUMP JUMPDEST PUSH2 0x2970 DUP2 PUSH2 0x2B82 JUMP JUMPDEST DUP3 MSTORE POP POP JUMP JUMPDEST PUSH1 0x0 PUSH1 0xA0 DUP3 ADD SWAP1 POP DUP2 DUP2 SUB PUSH1 0x0 DUP4 ADD MSTORE PUSH2 0x2990 DUP2 DUP9 PUSH2 0x26FE JUMP JUMPDEST SWAP1 POP DUP2 DUP2 SUB PUSH1 0x20 DUP4 ADD MSTORE PUSH2 0x29A4 DUP2 DUP8 PUSH2 0x26FE JUMP JUMPDEST SWAP1 POP DUP2 DUP2 SUB PUSH1 0x40 DUP4 ADD MSTORE PUSH2 0x29B8 DUP2 DUP7 PUSH2 0x26FE JUMP JUMPDEST SWAP1 POP DUP2 DUP2 SUB PUSH1 0x60 DUP4 ADD MSTORE PUSH2 0x29CC DUP2 DUP6 PUSH2 0x26FE JUMP JUMPDEST SWAP1 POP DUP2 DUP2 SUB PUSH1 0x80 DUP4 ADD MSTORE PUSH2 0x29E0 DUP2 DUP5 PUSH2 0x26FE JUMP JUMPDEST SWAP1 POP SWAP7 SWAP6 POP POP POP POP POP POP JUMP JUMPDEST PUSH1 0x0 PUSH1 0x80 DUP3 ADD SWAP1 POP DUP2 DUP2 SUB PUSH1 0x0 DUP4 ADD MSTORE PUSH2 0x2A06 DUP2 DUP8 PUSH2 0x2827 JUMP JUMPDEST SWAP1 POP DUP2 DUP2 SUB PUSH1 0x20 DUP4 ADD MSTORE PUSH2 0x2A1A DUP2 DUP7 PUSH2 0x277B JUMP JUMPDEST SWAP1 POP DUP2 DUP2 SUB PUSH1 0x40 DUP4 ADD MSTORE PUSH2 0x2A2E DUP2 DUP6 PUSH2 0x28FA JUMP JUMPDEST SWAP1 POP DUP2 DUP2 SUB PUSH1 0x60 DUP4 ADD MSTORE PUSH2 0x2A42 DUP2 DUP5 PUSH2 0x2737 JUMP JUMPDEST SWAP1 POP SWAP6 SWAP5 POP POP POP POP POP JUMP JUMPDEST PUSH1 0x0 PUSH1 0x20 DUP3 ADD SWAP1 POP PUSH2 0x2A62 PUSH1 0x0 DUP4 ADD DUP5 PUSH2 0x2967 JUMP JUMPDEST SWAP3 SWAP2 POP POP JUMP JUMPDEST PUSH1 0x0 PUSH2 0x2A72 PUSH2 0x2A83 JUMP JUMPDEST SWAP1 POP PUSH2 0x2A7E DUP3 DUP3 PUSH2 0x2C00 JUMP JUMPDEST SWAP2 SWAP1 POP JUMP JUMPDEST PUSH1 0x0 PUSH1 0x40 MLOAD SWAP1 POP SWAP1 JUMP JUMPDEST PUSH1 0x0 PUSH8 0xFFFFFFFFFFFFFFFF DUP3 GT ISZERO PUSH2 0x2AA8 JUMPI PUSH2 0x2AA7 PUSH2 0x2C8F JUMP JUMPDEST JUMPDEST PUSH1 0x20 DUP3 MUL SWAP1 POP PUSH1 0x20 DUP2 ADD SWAP1 POP SWAP2 SWAP1 POP JUMP JUMPDEST PUSH1 0x0 PUSH8 0xFFFFFFFFFFFFFFFF DUP3 GT ISZERO PUSH2 0x2AD4 JUMPI PUSH2 0x2AD3 PUSH2 0x2C8F JUMP JUMPDEST JUMPDEST PUSH2 0x2ADD DUP3 PUSH2 0x2CD7 JUMP JUMPDEST SWAP1 POP PUSH1 0x20 DUP2 ADD SWAP1 POP SWAP2 SWAP1 POP JUMP JUMPDEST PUSH1 0x0 DUP2 SWAP1 POP PUSH1 0x20 DUP3 ADD SWAP1 POP SWAP2 SWAP1 POP JUMP JUMPDEST PUSH1 0x0 DUP2 MLOAD SWAP1 POP SWAP2 SWAP1 POP JUMP JUMPDEST PUSH1 0x0 DUP2 MLOAD SWAP1 POP SWAP2 SWAP1 POP JUMP JUMPDEST PUSH1 0x0 PUSH1 0x20 DUP3 ADD SWAP1 POP SWAP2 SWAP1 POP JUMP JUMPDEST PUSH1 0x0 DUP3 DUP3 MSTORE PUSH1 0x20 DUP3 ADD SWAP1 POP SWAP3 SWAP2 POP POP JUMP JUMPDEST PUSH1 0x0 DUP3 DUP3 MSTORE PUSH1 0x20 DUP3 ADD SWAP1 POP SWAP3 SWAP2 POP POP JUMP JUMPDEST PUSH1 0x0 DUP3 DUP3 MSTORE PUSH1 0x20 DUP3 ADD SWAP1 POP SWAP3 SWAP2 POP POP JUMP JUMPDEST PUSH1 0x0 PUSH2 0x2B5B DUP3 PUSH2 0x2B62 JUMP JUMPDEST SWAP1 POP SWAP2 SWAP1 POP JUMP JUMPDEST PUSH1 0x0 PUSH20 0xFFFFFFFFFFFFFFFFFFFFFFFFFFFFFFFFFFFFFFFF DUP3 AND SWAP1 POP SWAP2 SWAP1 POP JUMP JUMPDEST PUSH1 0x0 DUP2 SWAP1 POP SWAP2 SWAP1 POP JUMP JUMPDEST DUP3 DUP2 DUP4 CALLDATACOPY PUSH1 0x0 DUP4 DUP4 ADD MSTORE POP POP POP JUMP JUMPDEST PUSH1 0x0 JUMPDEST DUP4 DUP2 LT ISZERO PUSH2 0x2BB9 JUMPI DUP1 DUP3 ADD MLOAD DUP2 DUP5 ADD MSTORE PUSH1 0x20 DUP2 ADD SWAP1 POP PUSH2 0x2B9E JUMP JUMPDEST DUP4 DUP2 GT ISZERO PUSH2 0x2BC8 JUMPI PUSH1 0x0 DUP5 DUP5 ADD MSTORE JUMPDEST POP POP POP POP JUMP JUMPDEST PUSH1 0x0 PUSH1 0x2 DUP3 DIV SWAP1 POP PUSH1 0x1 DUP3 AND DUP1 PUSH2 0x2BE6 JUMPI PUSH1 0x7F DUP3 AND SWAP2 POP JUMPDEST PUSH1 0x20 DUP3 LT DUP2 EQ ISZERO PUSH2 0x2BFA JUMPI PUSH2 0x2BF9 PUSH2 0x2C31 JUMP JUMPDEST JUMPDEST POP SWAP2 SWAP1 POP JUMP JUMPDEST PUSH2 0x2C09 DUP3 PUSH2 0x2CD7 JUMP JUMPDEST DUP2 ADD DUP2 DUP2 LT PUSH8 0xFFFFFFFFFFFFFFFF DUP3 GT OR ISZERO PUSH2 0x2C28 JUMPI PUSH2 0x2C27 PUSH2 0x2C8F JUMP JUMPDEST JUMPDEST DUP1 PUSH1 0x40 MSTORE POP POP POP JUMP JUMPDEST PUSH32 0x4E487B7100000000000000000000000000000000000000000000000000000000 PUSH1 0x0 MSTORE PUSH1 0x22 PUSH1 0x4 MSTORE PUSH1 0x24 PUSH1 0x0 REVERT JUMPDEST PUSH32 0x4E487B7100000000000000000000000000000000000000000000000000000000 PUSH1 0x0 MSTORE PUSH1 0x32 PUSH1 0x4 MSTORE PUSH1 0x24 PUSH1 0x0 REVERT JUMPDEST PUSH32 0x4E487B7100000000000000000000000000000000000000000000000000000000 PUSH1 0x0 MSTORE PUSH1 0x41 PUSH1 0x4 MSTORE PUSH1 0x24 PUSH1 0x0 REVERT JUMPDEST PUSH1 0x0 DUP1 REVERT JUMPDEST PUSH1 0x0 DUP1 REVERT JUMPDEST PUSH1 0x0 DUP1 REVERT JUMPDEST PUSH1 0x0 DUP1 REVERT JUMPDEST PUSH1 0x0 DUP1 REVERT JUMPDEST PUSH1 0x0 PUSH1 0x1F NOT PUSH1 0x1F DUP4 ADD AND SWAP1 POP SWAP2 SWAP1 POP JUMP JUMPDEST PUSH2 0x2CF1 DUP2 PUSH2 0x2B50 JUMP JUMPDEST DUP2 EQ PUSH2 0x2CFC JUMPI PUSH1 0x0 DUP1 REVERT JUMPDEST POP JUMP JUMPDEST PUSH2 0x2D08 DUP2 PUSH2 0x2B82 JUMP JUMPDEST DUP2 EQ PUSH2 0x2D13 JUMPI PUSH1 0x0 DUP1 REVERT JUMPDEST POP JUMP INVALID LOG2 PUSH5 0x6970667358 0x22 SLT KECCAK256 0xCB DUP15 0x25 0x49 0xD6 PUSH27 0x132CA4064FE8DEDDAF8D079F49926802CED313F490219AF1405564 PUSH20 0x6F6C634300080700330000000000000000000000 "
				},
				"gasEstimates": {
					"creation": {
						"codeDepositCost": "2319200",
						"executionCost": "2486",
						"totalCost": "2321686"
					},
					"external": {
						"createAward(string[])": "infinite",
						"createCertificate(string[])": "infinite",
						"createContract(string,string,string,string,string)": "infinite",
						"createInformation(string,string,string,string,string,string)": "infinite",
						"createSkill(string[],string[],string[])": "infinite",
						"createUnivercity(string,string,string,string,string)": "infinite",
						"delAllEducation()": "infinite",
						"delCertificateAndAward()": "infinite",
						"delInformaion()": "infinite",
						"delProfile()": "infinite",
						"getEducation(uint256)": "infinite",
						"getEducationCount()": "2585",
						"profile(address)": "infinite"
					}
				},
				"methodIdentifiers": {
					"createAward(string[])": "97c35b02",
					"createCertificate(string[])": "d759b830",
					"createContract(string,string,string,string,string)": "72828388",
					"createInformation(string,string,string,string,string,string)": "958791ae",
					"createSkill(string[],string[],string[])": "3d984d0e",
					"createUnivercity(string,string,string,string,string)": "66244dfb",
					"delAllEducation()": "ed2217ef",
					"delCertificateAndAward()": "4ed74067",
					"delInformaion()": "95ea3757",
					"delProfile()": "fabce08f",
					"getEducation(uint256)": "f96e32f8",
					"getEducationCount()": "6212fa02",
					"profile(address)": "9dd9d0fd"
				}
			},
			"storageLayout": {
				"storage": [
					{
						"astId": 23,
						"contract": "contracts/Profile.sol:Profile",
						"label": "profile",
						"offset": 0,
						"slot": "0",
						"type": "t_mapping(t_address,t_struct(Bio)18_storage)"
					}
				],
				"types": {
					"t_address": {
						"encoding": "inplace",
						"label": "address",
						"numberOfBytes": "20"
					},
					"t_array(t_string_storage)dyn_storage": {
						"base": "t_string_storage",
						"encoding": "dynamic_array",
						"label": "string[]",
						"numberOfBytes": "32"
					},
					"t_array(t_struct(Education)74_storage)dyn_storage": {
						"base": "t_struct(Education)74_storage",
						"encoding": "dynamic_array",
						"label": "struct Profile.Education[]",
						"numberOfBytes": "32"
					},
					"t_mapping(t_address,t_struct(Bio)18_storage)": {
						"encoding": "mapping",
						"key": "t_address",
						"label": "mapping(address => struct Profile.Bio)",
						"numberOfBytes": "32",
						"value": "t_struct(Bio)18_storage"
					},
					"t_string_storage": {
						"encoding": "bytes",
						"label": "string",
						"numberOfBytes": "32"
					},
					"t_struct(Bio)18_storage": {
						"encoding": "inplace",
						"label": "struct Profile.Bio",
						"members": [
							{
								"astId": 4,
								"contract": "contracts/Profile.sol:Profile",
								"label": "information",
								"offset": 0,
								"slot": "0",
								"type": "t_struct(Information)40_storage"
							},
							{
								"astId": 7,
								"contract": "contracts/Profile.sol:Profile",
								"label": "privateContract",
								"offset": 0,
								"slot": "8",
								"type": "t_struct(Contract)53_storage"
							},
							{
								"astId": 10,
								"contract": "contracts/Profile.sol:Profile",
								"label": "skill",
								"offset": 0,
								"slot": "14",
								"type": "t_struct(Skill)63_storage"
							},
							{
								"astId": 14,
								"contract": "contracts/Profile.sol:Profile",
								"label": "education",
								"offset": 0,
								"slot": "17",
								"type": "t_array(t_struct(Education)74_storage)dyn_storage"
							},
							{
								"astId": 17,
								"contract": "contracts/Profile.sol:Profile",
								"label": "CertificateAndAward",
								"offset": 0,
								"slot": "18",
								"type": "t_struct(CertificateAndAward)81_storage"
							}
						],
						"numberOfBytes": "640"
					},
					"t_struct(CertificateAndAward)81_storage": {
						"encoding": "inplace",
						"label": "struct Profile.CertificateAndAward",
						"members": [
							{
								"astId": 77,
								"contract": "contracts/Profile.sol:Profile",
								"label": "certificate",
								"offset": 0,
								"slot": "0",
								"type": "t_array(t_string_storage)dyn_storage"
							},
							{
								"astId": 80,
								"contract": "contracts/Profile.sol:Profile",
								"label": "award",
								"offset": 0,
								"slot": "1",
								"type": "t_array(t_string_storage)dyn_storage"
							}
						],
						"numberOfBytes": "64"
					},
					"t_struct(Contract)53_storage": {
						"encoding": "inplace",
						"label": "struct Profile.Contract",
						"members": [
							{
								"astId": 42,
								"contract": "contracts/Profile.sol:Profile",
								"label": "aboutMe",
								"offset": 0,
								"slot": "0",
								"type": "t_string_storage"
							},
							{
								"astId": 44,
								"contract": "contracts/Profile.sol:Profile",
								"label": "email",
								"offset": 0,
								"slot": "1",
								"type": "t_string_storage"
							},
							{
								"astId": 46,
								"contract": "contracts/Profile.sol:Profile",
								"label": "phone",
								"offset": 0,
								"slot": "2",
								"type": "t_string_storage"
							},
							{
								"astId": 48,
								"contract": "contracts/Profile.sol:Profile",
								"label": "github",
								"offset": 0,
								"slot": "3",
								"type": "t_string_storage"
							},
							{
								"astId": 50,
								"contract": "contracts/Profile.sol:Profile",
								"label": "gitlab",
								"offset": 0,
								"slot": "4",
								"type": "t_string_storage"
							},
							{
								"astId": 52,
								"contract": "contracts/Profile.sol:Profile",
								"label": "linkin",
								"offset": 0,
								"slot": "5",
								"type": "t_string_storage"
							}
						],
						"numberOfBytes": "192"
					},
					"t_struct(Education)74_storage": {
						"encoding": "inplace",
						"label": "struct Profile.Education",
						"members": [
							{
								"astId": 65,
								"contract": "contracts/Profile.sol:Profile",
								"label": "startDate",
								"offset": 0,
								"slot": "0",
								"type": "t_string_storage"
							},
							{
								"astId": 67,
								"contract": "contracts/Profile.sol:Profile",
								"label": "endDate",
								"offset": 0,
								"slot": "1",
								"type": "t_string_storage"
							},
							{
								"astId": 69,
								"contract": "contracts/Profile.sol:Profile",
								"label": "univercity",
								"offset": 0,
								"slot": "2",
								"type": "t_string_storage"
							},
							{
								"astId": 71,
								"contract": "contracts/Profile.sol:Profile",
								"label": "major",
								"offset": 0,
								"slot": "3",
								"type": "t_string_storage"
							},
							{
								"astId": 73,
								"contract": "contracts/Profile.sol:Profile",
								"label": "finalProject",
								"offset": 0,
								"slot": "4",
								"type": "t_string_storage"
							}
						],
						"numberOfBytes": "160"
					},
					"t_struct(Information)40_storage": {
						"encoding": "inplace",
						"label": "struct Profile.Information",
						"members": [
							{
								"astId": 25,
								"contract": "contracts/Profile.sol:Profile",
								"label": "aboutMe",
								"offset": 0,
								"slot": "0",
								"type": "t_string_storage"
							},
							{
								"astId": 27,
								"contract": "contracts/Profile.sol:Profile",
								"label": "position",
								"offset": 0,
								"slot": "1",
								"type": "t_string_storage"
							},
							{
								"astId": 29,
								"contract": "contracts/Profile.sol:Profile",
								"label": "userAddress",
								"offset": 0,
								"slot": "2",
								"type": "t_address"
							},
							{
								"astId": 31,
								"contract": "contracts/Profile.sol:Profile",
								"label": "firstName",
								"offset": 0,
								"slot": "3",
								"type": "t_string_storage"
							},
							{
								"astId": 33,
								"contract": "contracts/Profile.sol:Profile",
								"label": "middleName",
								"offset": 0,
								"slot": "4",
								"type": "t_string_storage"
							},
							{
								"astId": 35,
								"contract": "contracts/Profile.sol:Profile",
								"label": "lastName",
								"offset": 0,
								"slot": "5",
								"type": "t_string_storage"
							},
							{
								"astId": 37,
								"contract": "contracts/Profile.sol:Profile",
								"label": "profileImage",
								"offset": 0,
								"slot": "6",
								"type": "t_string_storage"
							},
							{
								"astId": 39,
								"contract": "contracts/Profile.sol:Profile",
								"label": "createDate",
								"offset": 0,
								"slot": "7",
								"type": "t_uint256"
							}
						],
						"numberOfBytes": "256"
					},
					"t_struct(Skill)63_storage": {
						"encoding": "inplace",
						"label": "struct Profile.Skill",
						"members": [
							{
								"astId": 56,
								"contract": "contracts/Profile.sol:Profile",
								"label": "programmingLanguages",
								"offset": 0,
								"slot": "0",
								"type": "t_array(t_string_storage)dyn_storage"
							},
							{
								"astId": 59,
								"contract": "contracts/Profile.sol:Profile",
								"label": "framework",
								"offset": 0,
								"slot": "1",
								"type": "t_array(t_string_storage)dyn_storage"
							},
							{
								"astId": 62,
								"contract": "contracts/Profile.sol:Profile",
								"label": "databaseAndOther",
								"offset": 0,
								"slot": "2",
								"type": "t_array(t_string_storage)dyn_storage"
							}
						],
						"numberOfBytes": "96"
					},
					"t_uint256": {
						"encoding": "inplace",
						"label": "uint256",
						"numberOfBytes": "32"
					}
				}
			},
			"userdoc": {
				"kind": "user",
				"methods": {},
				"version": 1
			}
		}
	}
}