{
	"contracts/Profile.sol": {
		"Profile": {
			"abi": [
				{
					"inputs": [
						{
							"internalType": "string",
							"name": "firstName",
							"type": "string"
						},
						{
							"internalType": "string",
							"name": "middleName",
							"type": "string"
						},
						{
							"internalType": "string",
							"name": "lastName",
							"type": "string"
						},
						{
							"internalType": "string",
							"name": "email",
							"type": "string"
						},
						{
							"internalType": "string",
							"name": "phone",
							"type": "string"
						},
						{
							"internalType": "string",
							"name": "profileImage",
							"type": "string"
						}
					],
					"name": "addBio",
					"outputs": [],
					"stateMutability": "nonpayable",
					"type": "function"
				},
				{
					"inputs": [],
					"name": "delProfile",
					"outputs": [],
					"stateMutability": "nonpayable",
					"type": "function"
				},
				{
					"inputs": [
						{
							"internalType": "address",
							"name": "_address",
							"type": "address"
						}
					],
					"name": "getBio",
					"outputs": [
						{
							"components": [
								{
									"internalType": "string",
									"name": "firstName",
									"type": "string"
								},
								{
									"internalType": "string",
									"name": "middleName",
									"type": "string"
								},
								{
									"internalType": "string",
									"name": "lastName",
									"type": "string"
								},
								{
									"internalType": "string",
									"name": "email",
									"type": "string"
								},
								{
									"internalType": "string",
									"name": "phone",
									"type": "string"
								},
								{
									"internalType": "string",
									"name": "profileImage",
									"type": "string"
								},
								{
									"internalType": "address",
									"name": "userAddress",
									"type": "address"
								}
							],
							"internalType": "struct Profile.Bio",
							"name": "",
							"type": "tuple"
						}
					],
					"stateMutability": "view",
					"type": "function"
				},
				{
					"inputs": [
						{
							"internalType": "address",
							"name": "",
							"type": "address"
						}
					],
					"name": "profile",
					"outputs": [
						{
							"internalType": "string",
							"name": "firstName",
							"type": "string"
						},
						{
							"internalType": "string",
							"name": "middleName",
							"type": "string"
						},
						{
							"internalType": "string",
							"name": "lastName",
							"type": "string"
						},
						{
							"internalType": "string",
							"name": "email",
							"type": "string"
						},
						{
							"internalType": "string",
							"name": "phone",
							"type": "string"
						},
						{
							"internalType": "string",
							"name": "profileImage",
							"type": "string"
						},
						{
							"internalType": "address",
							"name": "userAddress",
							"type": "address"
						}
					],
					"stateMutability": "view",
					"type": "function"
				}
			],
			"devdoc": {
				"kind": "dev",
				"methods": {},
				"version": 1
			},
			"evm": {
				"assembly": "    /* \"contracts/Profile.sol\":64:1401  contract Profile {\r... */\n  mstore(0x40, 0x80)\n  callvalue\n  dup1\n  iszero\n  tag_1\n  jumpi\n  0x00\n  dup1\n  revert\ntag_1:\n  pop\n  dataSize(sub_0)\n  dup1\n  dataOffset(sub_0)\n  0x00\n  codecopy\n  0x00\n  return\nstop\n\nsub_0: assembly {\n        /* \"contracts/Profile.sol\":64:1401  contract Profile {\r... */\n      mstore(0x40, 0x80)\n      callvalue\n      dup1\n      iszero\n      tag_1\n      jumpi\n      0x00\n      dup1\n      revert\n    tag_1:\n      pop\n      jumpi(tag_2, lt(calldatasize, 0x04))\n      shr(0xe0, calldataload(0x00))\n      dup1\n      0x3fd0bf17\n      eq\n      tag_3\n      jumpi\n      dup1\n      0x721041af\n      eq\n      tag_4\n      jumpi\n      dup1\n      0x9dd9d0fd\n      eq\n      tag_5\n      jumpi\n      dup1\n      0xfabce08f\n      eq\n      tag_6\n      jumpi\n    tag_2:\n      0x00\n      dup1\n      revert\n        /* \"contracts/Profile.sol\":1200:1310  function getBio(address _address ) public view returns(Bio memory) {\r... */\n    tag_3:\n      tag_7\n      0x04\n      dup1\n      calldatasize\n      sub\n      dup2\n      add\n      swap1\n      tag_8\n      swap2\n      swap1\n      tag_9\n      jump\t// in\n    tag_8:\n      tag_10\n      jump\t// in\n    tag_7:\n      mload(0x40)\n      tag_11\n      swap2\n      swap1\n      tag_12\n      jump\t// in\n    tag_11:\n      mload(0x40)\n      dup1\n      swap2\n      sub\n      swap1\n      return\n        /* \"contracts/Profile.sol\":532:1192  function addBio(string memory firstName, string memory middleName, string memory lastName, string memory email, string memory phone, string memory profileImage) public {\r... */\n    tag_4:\n      tag_13\n      0x04\n      dup1\n      calldatasize\n      sub\n      dup2\n      add\n      swap1\n      tag_14\n      swap2\n      swap1\n      tag_15\n      jump\t// in\n    tag_14:\n      tag_16\n      jump\t// in\n    tag_13:\n      stop\n        /* \"contracts/Profile.sol\":304:344  mapping (address => Bio) public  profile */\n    tag_5:\n      tag_17\n      0x04\n      dup1\n      calldatasize\n      sub\n      dup2\n      add\n      swap1\n      tag_18\n      swap2\n      swap1\n      tag_9\n      jump\t// in\n    tag_18:\n      tag_19\n      jump\t// in\n    tag_17:\n      mload(0x40)\n      tag_20\n      swap8\n      swap7\n      swap6\n      swap5\n      swap4\n      swap3\n      swap2\n      swap1\n      tag_21\n      jump\t// in\n    tag_20:\n      mload(0x40)\n      dup1\n      swap2\n      sub\n      swap1\n      return\n        /* \"contracts/Profile.sol\":1318:1392  function delProfile() public {\r... */\n    tag_6:\n      tag_22\n      tag_23\n      jump\t// in\n    tag_22:\n      stop\n        /* \"contracts/Profile.sol\":1200:1310  function getBio(address _address ) public view returns(Bio memory) {\r... */\n    tag_10:\n        /* \"contracts/Profile.sol\":1255:1265  Bio memory */\n      tag_24\n      tag_25\n      jump\t// in\n    tag_24:\n        /* \"contracts/Profile.sol\":1285:1292  profile */\n      0x00\n        /* \"contracts/Profile.sol\":1285:1302  profile[_address] */\n      dup1\n        /* \"contracts/Profile.sol\":1293:1301  _address */\n      dup4\n        /* \"contracts/Profile.sol\":1285:1302  profile[_address] */\n      0xffffffffffffffffffffffffffffffffffffffff\n      and\n      0xffffffffffffffffffffffffffffffffffffffff\n      and\n      dup2\n      mstore\n      0x20\n      add\n      swap1\n      dup2\n      mstore\n      0x20\n      add\n      0x00\n      keccak256\n        /* \"contracts/Profile.sol\":1278:1302  return profile[_address] */\n      mload(0x40)\n      dup1\n      0xe0\n      add\n      0x40\n      mstore\n      swap1\n      dup2\n      0x00\n      dup3\n      add\n      dup1\n      sload\n      tag_27\n      swap1\n      tag_28\n      jump\t// in\n    tag_27:\n      dup1\n      0x1f\n      add\n      0x20\n      dup1\n      swap2\n      div\n      mul\n      0x20\n      add\n      mload(0x40)\n      swap1\n      dup2\n      add\n      0x40\n      mstore\n      dup1\n      swap3\n      swap2\n      swap1\n      dup2\n      dup2\n      mstore\n      0x20\n      add\n      dup3\n      dup1\n      sload\n      tag_29\n      swap1\n      tag_28\n      jump\t// in\n    tag_29:\n      dup1\n      iszero\n      tag_30\n      jumpi\n      dup1\n      0x1f\n      lt\n      tag_31\n      jumpi\n      0x0100\n      dup1\n      dup4\n      sload\n      div\n      mul\n      dup4\n      mstore\n      swap2\n      0x20\n      add\n      swap2\n      jump(tag_30)\n    tag_31:\n      dup3\n      add\n      swap2\n      swap1\n      0x00\n      mstore\n      keccak256(0x00, 0x20)\n      swap1\n    tag_32:\n      dup2\n      sload\n      dup2\n      mstore\n      swap1\n      0x01\n      add\n      swap1\n      0x20\n      add\n      dup1\n      dup4\n      gt\n      tag_32\n      jumpi\n      dup3\n      swap1\n      sub\n      0x1f\n      and\n      dup3\n      add\n      swap2\n    tag_30:\n      pop\n      pop\n      pop\n      pop\n      pop\n      dup2\n      mstore\n      0x20\n      add\n      0x01\n      dup3\n      add\n      dup1\n      sload\n      tag_33\n      swap1\n      tag_28\n      jump\t// in\n    tag_33:\n      dup1\n      0x1f\n      add\n      0x20\n      dup1\n      swap2\n      div\n      mul\n      0x20\n      add\n      mload(0x40)\n      swap1\n      dup2\n      add\n      0x40\n      mstore\n      dup1\n      swap3\n      swap2\n      swap1\n      dup2\n      dup2\n      mstore\n      0x20\n      add\n      dup3\n      dup1\n      sload\n      tag_34\n      swap1\n      tag_28\n      jump\t// in\n    tag_34:\n      dup1\n      iszero\n      tag_35\n      jumpi\n      dup1\n      0x1f\n      lt\n      tag_36\n      jumpi\n      0x0100\n      dup1\n      dup4\n      sload\n      div\n      mul\n      dup4\n      mstore\n      swap2\n      0x20\n      add\n      swap2\n      jump(tag_35)\n    tag_36:\n      dup3\n      add\n      swap2\n      swap1\n      0x00\n      mstore\n      keccak256(0x00, 0x20)\n      swap1\n    tag_37:\n      dup2\n      sload\n      dup2\n      mstore\n      swap1\n      0x01\n      add\n      swap1\n      0x20\n      add\n      dup1\n      dup4\n      gt\n      tag_37\n      jumpi\n      dup3\n      swap1\n      sub\n      0x1f\n      and\n      dup3\n      add\n      swap2\n    tag_35:\n      pop\n      pop\n      pop\n      pop\n      pop\n      dup2\n      mstore\n      0x20\n      add\n      0x02\n      dup3\n      add\n      dup1\n      sload\n      tag_38\n      swap1\n      tag_28\n      jump\t// in\n    tag_38:\n      dup1\n      0x1f\n      add\n      0x20\n      dup1\n      swap2\n      div\n      mul\n      0x20\n      add\n      mload(0x40)\n      swap1\n      dup2\n      add\n      0x40\n      mstore\n      dup1\n      swap3\n      swap2\n      swap1\n      dup2\n      dup2\n      mstore\n      0x20\n      add\n      dup3\n      dup1\n      sload\n      tag_39\n      swap1\n      tag_28\n      jump\t// in\n    tag_39:\n      dup1\n      iszero\n      tag_40\n      jumpi\n      dup1\n      0x1f\n      lt\n      tag_41\n      jumpi\n      0x0100\n      dup1\n      dup4\n      sload\n      div\n      mul\n      dup4\n      mstore\n      swap2\n      0x20\n      add\n      swap2\n      jump(tag_40)\n    tag_41:\n      dup3\n      add\n      swap2\n      swap1\n      0x00\n      mstore\n      keccak256(0x00, 0x20)\n      swap1\n    tag_42:\n      dup2\n      sload\n      dup2\n      mstore\n      swap1\n      0x01\n      add\n      swap1\n      0x20\n      add\n      dup1\n      dup4\n      gt\n      tag_42\n      jumpi\n      dup3\n      swap1\n      sub\n      0x1f\n      and\n      dup3\n      add\n      swap2\n    tag_40:\n      pop\n      pop\n      pop\n      pop\n      pop\n      dup2\n      mstore\n      0x20\n      add\n      0x03\n      dup3\n      add\n      dup1\n      sload\n      tag_43\n      swap1\n      tag_28\n      jump\t// in\n    tag_43:\n      dup1\n      0x1f\n      add\n      0x20\n      dup1\n      swap2\n      div\n      mul\n      0x20\n      add\n      mload(0x40)\n      swap1\n      dup2\n      add\n      0x40\n      mstore\n      dup1\n      swap3\n      swap2\n      swap1\n      dup2\n      dup2\n      mstore\n      0x20\n      add\n      dup3\n      dup1\n      sload\n      tag_44\n      swap1\n      tag_28\n      jump\t// in\n    tag_44:\n      dup1\n      iszero\n      tag_45\n      jumpi\n      dup1\n      0x1f\n      lt\n      tag_46\n      jumpi\n      0x0100\n      dup1\n      dup4\n      sload\n      div\n      mul\n      dup4\n      mstore\n      swap2\n      0x20\n      add\n      swap2\n      jump(tag_45)\n    tag_46:\n      dup3\n      add\n      swap2\n      swap1\n      0x00\n      mstore\n      keccak256(0x00, 0x20)\n      swap1\n    tag_47:\n      dup2\n      sload\n      dup2\n      mstore\n      swap1\n      0x01\n      add\n      swap1\n      0x20\n      add\n      dup1\n      dup4\n      gt\n      tag_47\n      jumpi\n      dup3\n      swap1\n      sub\n      0x1f\n      and\n      dup3\n      add\n      swap2\n    tag_45:\n      pop\n      pop\n      pop\n      pop\n      pop\n      dup2\n      mstore\n      0x20\n      add\n      0x04\n      dup3\n      add\n      dup1\n      sload\n      tag_48\n      swap1\n      tag_28\n      jump\t// in\n    tag_48:\n      dup1\n      0x1f\n      add\n      0x20\n      dup1\n      swap2\n      div\n      mul\n      0x20\n      add\n      mload(0x40)\n      swap1\n      dup2\n      add\n      0x40\n      mstore\n      dup1\n      swap3\n      swap2\n      swap1\n      dup2\n      dup2\n      mstore\n      0x20\n      add\n      dup3\n      dup1\n      sload\n      tag_49\n      swap1\n      tag_28\n      jump\t// in\n    tag_49:\n      dup1\n      iszero\n      tag_50\n      jumpi\n      dup1\n      0x1f\n      lt\n      tag_51\n      jumpi\n      0x0100\n      dup1\n      dup4\n      sload\n      div\n      mul\n      dup4\n      mstore\n      swap2\n      0x20\n      add\n      swap2\n      jump(tag_50)\n    tag_51:\n      dup3\n      add\n      swap2\n      swap1\n      0x00\n      mstore\n      keccak256(0x00, 0x20)\n      swap1\n    tag_52:\n      dup2\n      sload\n      dup2\n      mstore\n      swap1\n      0x01\n      add\n      swap1\n      0x20\n      add\n      dup1\n      dup4\n      gt\n      tag_52\n      jumpi\n      dup3\n      swap1\n      sub\n      0x1f\n      and\n      dup3\n      add\n      swap2\n    tag_50:\n      pop\n      pop\n      pop\n      pop\n      pop\n      dup2\n      mstore\n      0x20\n      add\n      0x05\n      dup3\n      add\n      dup1\n      sload\n      tag_53\n      swap1\n      tag_28\n      jump\t// in\n    tag_53:\n      dup1\n      0x1f\n      add\n      0x20\n      dup1\n      swap2\n      div\n      mul\n      0x20\n      add\n      mload(0x40)\n      swap1\n      dup2\n      add\n      0x40\n      mstore\n      dup1\n      swap3\n      swap2\n      swap1\n      dup2\n      dup2\n      mstore\n      0x20\n      add\n      dup3\n      dup1\n      sload\n      tag_54\n      swap1\n      tag_28\n      jump\t// in\n    tag_54:\n      dup1\n      iszero\n      tag_55\n      jumpi\n      dup1\n      0x1f\n      lt\n      tag_56\n      jumpi\n      0x0100\n      dup1\n      dup4\n      sload\n      div\n      mul\n      dup4\n      mstore\n      swap2\n      0x20\n      add\n      swap2\n      jump(tag_55)\n    tag_56:\n      dup3\n      add\n      swap2\n      swap1\n      0x00\n      mstore\n      keccak256(0x00, 0x20)\n      swap1\n    tag_57:\n      dup2\n      sload\n      dup2\n      mstore\n      swap1\n      0x01\n      add\n      swap1\n      0x20\n      add\n      dup1\n      dup4\n      gt\n      tag_57\n      jumpi\n      dup3\n      swap1\n      sub\n      0x1f\n      and\n      dup3\n      add\n      swap2\n    tag_55:\n      pop\n      pop\n      pop\n      pop\n      pop\n      dup2\n      mstore\n      0x20\n      add\n      0x06\n      dup3\n      add\n      0x00\n      swap1\n      sload\n      swap1\n      0x0100\n      exp\n      swap1\n      div\n      0xffffffffffffffffffffffffffffffffffffffff\n      and\n      0xffffffffffffffffffffffffffffffffffffffff\n      and\n      0xffffffffffffffffffffffffffffffffffffffff\n      and\n      dup2\n      mstore\n      pop\n      pop\n      swap1\n      pop\n        /* \"contracts/Profile.sol\":1200:1310  function getBio(address _address ) public view returns(Bio memory) {\r... */\n      swap2\n      swap1\n      pop\n      jump\t// out\n        /* \"contracts/Profile.sol\":532:1192  function addBio(string memory firstName, string memory middleName, string memory lastName, string memory email, string memory phone, string memory profileImage) public {\r... */\n    tag_16:\n        /* \"contracts/Profile.sol\":730:737  profile */\n      0x00\n        /* \"contracts/Profile.sol\":730:749  profile[msg.sender] */\n      dup1\n        /* \"contracts/Profile.sol\":738:748  msg.sender */\n      caller\n        /* \"contracts/Profile.sol\":730:749  profile[msg.sender] */\n      0xffffffffffffffffffffffffffffffffffffffff\n      and\n      0xffffffffffffffffffffffffffffffffffffffff\n      and\n      dup2\n      mstore\n      0x20\n      add\n      swap1\n      dup2\n      mstore\n      0x20\n      add\n      0x00\n      keccak256\n        /* \"contracts/Profile.sol\":730:761  profile[msg.sender].userAddress */\n      0x06\n      add\n      0x00\n      swap1\n      sload\n      swap1\n      0x0100\n      exp\n      swap1\n      div\n      0xffffffffffffffffffffffffffffffffffffffff\n      and\n        /* \"contracts/Profile.sol\":716:761  msg.sender == profile[msg.sender].userAddress */\n      0xffffffffffffffffffffffffffffffffffffffff\n      and\n        /* \"contracts/Profile.sol\":716:726  msg.sender */\n      caller\n        /* \"contracts/Profile.sol\":716:761  msg.sender == profile[msg.sender].userAddress */\n      0xffffffffffffffffffffffffffffffffffffffff\n      and\n      eq\n        /* \"contracts/Profile.sol\":713:815  if(msg.sender == profile[msg.sender].userAddress){\r... */\n      iszero\n      tag_59\n      jumpi\n        /* \"contracts/Profile.sol\":784:791  profile */\n      0x00\n        /* \"contracts/Profile.sol\":784:803  profile[msg.sender] */\n      dup1\n        /* \"contracts/Profile.sol\":792:802  msg.sender */\n      caller\n        /* \"contracts/Profile.sol\":784:803  profile[msg.sender] */\n      0xffffffffffffffffffffffffffffffffffffffff\n      and\n      0xffffffffffffffffffffffffffffffffffffffff\n      and\n      dup2\n      mstore\n      0x20\n      add\n      swap1\n      dup2\n      mstore\n      0x20\n      add\n      0x00\n      keccak256\n      0x00\n        /* \"contracts/Profile.sol\":777:803  delete profile[msg.sender] */\n      dup1\n      dup3\n      add\n      0x00\n      tag_60\n      swap2\n      swap1\n      tag_61\n      jump\t// in\n    tag_60:\n      0x01\n      dup3\n      add\n      0x00\n      tag_62\n      swap2\n      swap1\n      tag_61\n      jump\t// in\n    tag_62:\n      0x02\n      dup3\n      add\n      0x00\n      tag_63\n      swap2\n      swap1\n      tag_61\n      jump\t// in\n    tag_63:\n      0x03\n      dup3\n      add\n      0x00\n      tag_64\n      swap2\n      swap1\n      tag_61\n      jump\t// in\n    tag_64:\n      0x04\n      dup3\n      add\n      0x00\n      tag_65\n      swap2\n      swap1\n      tag_61\n      jump\t// in\n    tag_65:\n      0x05\n      dup3\n      add\n      0x00\n      tag_66\n      swap2\n      swap1\n      tag_61\n      jump\t// in\n    tag_66:\n      0x06\n      dup3\n      add\n      exp(0x0100, 0x00)\n      dup2\n      sload\n      swap1\n      0xffffffffffffffffffffffffffffffffffffffff\n      mul\n      not\n      and\n      swap1\n      sstore\n      pop\n      pop\n        /* \"contracts/Profile.sol\":713:815  if(msg.sender == profile[msg.sender].userAddress){\r... */\n    tag_59:\n        /* \"contracts/Profile.sol\":860:869  firstName */\n      dup6\n        /* \"contracts/Profile.sol\":828:835  profile */\n      0x00\n        /* \"contracts/Profile.sol\":828:847  profile[msg.sender] */\n      dup1\n        /* \"contracts/Profile.sol\":836:846  msg.sender */\n      caller\n        /* \"contracts/Profile.sol\":828:847  profile[msg.sender] */\n      0xffffffffffffffffffffffffffffffffffffffff\n      and\n      0xffffffffffffffffffffffffffffffffffffffff\n      and\n      dup2\n      mstore\n      0x20\n      add\n      swap1\n      dup2\n      mstore\n      0x20\n      add\n      0x00\n      keccak256\n        /* \"contracts/Profile.sol\":828:857  profile[msg.sender].firstName */\n      0x00\n      add\n        /* \"contracts/Profile.sol\":828:869  profile[msg.sender].firstName = firstName */\n      swap1\n      dup1\n      mload\n      swap1\n      0x20\n      add\n      swap1\n      tag_67\n      swap3\n      swap2\n      swap1\n      tag_68\n      jump\t// in\n    tag_67:\n      pop\n        /* \"contracts/Profile.sol\":913:923  middleName */\n      dup5\n        /* \"contracts/Profile.sol\":880:887  profile */\n      0x00\n        /* \"contracts/Profile.sol\":880:899  profile[msg.sender] */\n      dup1\n        /* \"contracts/Profile.sol\":888:898  msg.sender */\n      caller\n        /* \"contracts/Profile.sol\":880:899  profile[msg.sender] */\n      0xffffffffffffffffffffffffffffffffffffffff\n      and\n      0xffffffffffffffffffffffffffffffffffffffff\n      and\n      dup2\n      mstore\n      0x20\n      add\n      swap1\n      dup2\n      mstore\n      0x20\n      add\n      0x00\n      keccak256\n        /* \"contracts/Profile.sol\":880:910  profile[msg.sender].middleName */\n      0x01\n      add\n        /* \"contracts/Profile.sol\":880:923  profile[msg.sender].middleName = middleName */\n      swap1\n      dup1\n      mload\n      swap1\n      0x20\n      add\n      swap1\n      tag_69\n      swap3\n      swap2\n      swap1\n      tag_68\n      jump\t// in\n    tag_69:\n      pop\n        /* \"contracts/Profile.sol\":965:973  lastName */\n      dup4\n        /* \"contracts/Profile.sol\":934:941  profile */\n      0x00\n        /* \"contracts/Profile.sol\":934:953  profile[msg.sender] */\n      dup1\n        /* \"contracts/Profile.sol\":942:952  msg.sender */\n      caller\n        /* \"contracts/Profile.sol\":934:953  profile[msg.sender] */\n      0xffffffffffffffffffffffffffffffffffffffff\n      and\n      0xffffffffffffffffffffffffffffffffffffffff\n      and\n      dup2\n      mstore\n      0x20\n      add\n      swap1\n      dup2\n      mstore\n      0x20\n      add\n      0x00\n      keccak256\n        /* \"contracts/Profile.sol\":934:962  profile[msg.sender].lastName */\n      0x02\n      add\n        /* \"contracts/Profile.sol\":934:973  profile[msg.sender].lastName = lastName */\n      swap1\n      dup1\n      mload\n      swap1\n      0x20\n      add\n      swap1\n      tag_70\n      swap3\n      swap2\n      swap1\n      tag_68\n      jump\t// in\n    tag_70:\n      pop\n        /* \"contracts/Profile.sol\":1012:1017  email */\n      dup3\n        /* \"contracts/Profile.sol\":984:991  profile */\n      0x00\n        /* \"contracts/Profile.sol\":984:1003  profile[msg.sender] */\n      dup1\n        /* \"contracts/Profile.sol\":992:1002  msg.sender */\n      caller\n        /* \"contracts/Profile.sol\":984:1003  profile[msg.sender] */\n      0xffffffffffffffffffffffffffffffffffffffff\n      and\n      0xffffffffffffffffffffffffffffffffffffffff\n      and\n      dup2\n      mstore\n      0x20\n      add\n      swap1\n      dup2\n      mstore\n      0x20\n      add\n      0x00\n      keccak256\n        /* \"contracts/Profile.sol\":984:1009  profile[msg.sender].email */\n      0x03\n      add\n        /* \"contracts/Profile.sol\":984:1017  profile[msg.sender].email = email */\n      swap1\n      dup1\n      mload\n      swap1\n      0x20\n      add\n      swap1\n      tag_71\n      swap3\n      swap2\n      swap1\n      tag_68\n      jump\t// in\n    tag_71:\n      pop\n        /* \"contracts/Profile.sol\":1056:1061  phone */\n      dup2\n        /* \"contracts/Profile.sol\":1028:1035  profile */\n      0x00\n        /* \"contracts/Profile.sol\":1028:1047  profile[msg.sender] */\n      dup1\n        /* \"contracts/Profile.sol\":1036:1046  msg.sender */\n      caller\n        /* \"contracts/Profile.sol\":1028:1047  profile[msg.sender] */\n      0xffffffffffffffffffffffffffffffffffffffff\n      and\n      0xffffffffffffffffffffffffffffffffffffffff\n      and\n      dup2\n      mstore\n      0x20\n      add\n      swap1\n      dup2\n      mstore\n      0x20\n      add\n      0x00\n      keccak256\n        /* \"contracts/Profile.sol\":1028:1053  profile[msg.sender].phone */\n      0x04\n      add\n        /* \"contracts/Profile.sol\":1028:1061  profile[msg.sender].phone = phone */\n      swap1\n      dup1\n      mload\n      swap1\n      0x20\n      add\n      swap1\n      tag_72\n      swap3\n      swap2\n      swap1\n      tag_68\n      jump\t// in\n    tag_72:\n      pop\n        /* \"contracts/Profile.sol\":1107:1119  profileImage */\n      dup1\n        /* \"contracts/Profile.sol\":1072:1079  profile */\n      0x00\n        /* \"contracts/Profile.sol\":1072:1091  profile[msg.sender] */\n      dup1\n        /* \"contracts/Profile.sol\":1080:1090  msg.sender */\n      caller\n        /* \"contracts/Profile.sol\":1072:1091  profile[msg.sender] */\n      0xffffffffffffffffffffffffffffffffffffffff\n      and\n      0xffffffffffffffffffffffffffffffffffffffff\n      and\n      dup2\n      mstore\n      0x20\n      add\n      swap1\n      dup2\n      mstore\n      0x20\n      add\n      0x00\n      keccak256\n        /* \"contracts/Profile.sol\":1072:1104  profile[msg.sender].profileImage */\n      0x05\n      add\n        /* \"contracts/Profile.sol\":1072:1119  profile[msg.sender].profileImage = profileImage */\n      swap1\n      dup1\n      mload\n      swap1\n      0x20\n      add\n      swap1\n      tag_73\n      swap3\n      swap2\n      swap1\n      tag_68\n      jump\t// in\n    tag_73:\n      pop\n        /* \"contracts/Profile.sol\":1165:1175  msg.sender */\n      caller\n        /* \"contracts/Profile.sol\":1131:1138  profile */\n      0x00\n        /* \"contracts/Profile.sol\":1131:1150  profile[msg.sender] */\n      dup1\n        /* \"contracts/Profile.sol\":1139:1149  msg.sender */\n      caller\n        /* \"contracts/Profile.sol\":1131:1150  profile[msg.sender] */\n      0xffffffffffffffffffffffffffffffffffffffff\n      and\n      0xffffffffffffffffffffffffffffffffffffffff\n      and\n      dup2\n      mstore\n      0x20\n      add\n      swap1\n      dup2\n      mstore\n      0x20\n      add\n      0x00\n      keccak256\n        /* \"contracts/Profile.sol\":1131:1162  profile[msg.sender].userAddress */\n      0x06\n      add\n      0x00\n        /* \"contracts/Profile.sol\":1131:1175  profile[msg.sender].userAddress = msg.sender */\n      0x0100\n      exp\n      dup2\n      sload\n      dup2\n      0xffffffffffffffffffffffffffffffffffffffff\n      mul\n      not\n      and\n      swap1\n      dup4\n      0xffffffffffffffffffffffffffffffffffffffff\n      and\n      mul\n      or\n      swap1\n      sstore\n      pop\n        /* \"contracts/Profile.sol\":532:1192  function addBio(string memory firstName, string memory middleName, string memory lastName, string memory email, string memory phone, string memory profileImage) public {\r... */\n      pop\n      pop\n      pop\n      pop\n      pop\n      pop\n      jump\t// out\n        /* \"contracts/Profile.sol\":304:344  mapping (address => Bio) public  profile */\n    tag_19:\n      mstore(0x20, 0x00)\n      dup1\n      0x00\n      mstore\n      keccak256(0x00, 0x40)\n      0x00\n      swap2\n      pop\n      swap1\n      pop\n      dup1\n      0x00\n      add\n      dup1\n      sload\n      tag_74\n      swap1\n      tag_28\n      jump\t// in\n    tag_74:\n      dup1\n      0x1f\n      add\n      0x20\n      dup1\n      swap2\n      div\n      mul\n      0x20\n      add\n      mload(0x40)\n      swap1\n      dup2\n      add\n      0x40\n      mstore\n      dup1\n      swap3\n      swap2\n      swap1\n      dup2\n      dup2\n      mstore\n      0x20\n      add\n      dup3\n      dup1\n      sload\n      tag_75\n      swap1\n      tag_28\n      jump\t// in\n    tag_75:\n      dup1\n      iszero\n      tag_76\n      jumpi\n      dup1\n      0x1f\n      lt\n      tag_77\n      jumpi\n      0x0100\n      dup1\n      dup4\n      sload\n      div\n      mul\n      dup4\n      mstore\n      swap2\n      0x20\n      add\n      swap2\n      jump(tag_76)\n    tag_77:\n      dup3\n      add\n      swap2\n      swap1\n      0x00\n      mstore\n      keccak256(0x00, 0x20)\n      swap1\n    tag_78:\n      dup2\n      sload\n      dup2\n      mstore\n      swap1\n      0x01\n      add\n      swap1\n      0x20\n      add\n      dup1\n      dup4\n      gt\n      tag_78\n      jumpi\n      dup3\n      swap1\n      sub\n      0x1f\n      and\n      dup3\n      add\n      swap2\n    tag_76:\n      pop\n      pop\n      pop\n      pop\n      pop\n      swap1\n      dup1\n      0x01\n      add\n      dup1\n      sload\n      tag_79\n      swap1\n      tag_28\n      jump\t// in\n    tag_79:\n      dup1\n      0x1f\n      add\n      0x20\n      dup1\n      swap2\n      div\n      mul\n      0x20\n      add\n      mload(0x40)\n      swap1\n      dup2\n      add\n      0x40\n      mstore\n      dup1\n      swap3\n      swap2\n      swap1\n      dup2\n      dup2\n      mstore\n      0x20\n      add\n      dup3\n      dup1\n      sload\n      tag_80\n      swap1\n      tag_28\n      jump\t// in\n    tag_80:\n      dup1\n      iszero\n      tag_81\n      jumpi\n      dup1\n      0x1f\n      lt\n      tag_82\n      jumpi\n      0x0100\n      dup1\n      dup4\n      sload\n      div\n      mul\n      dup4\n      mstore\n      swap2\n      0x20\n      add\n      swap2\n      jump(tag_81)\n    tag_82:\n      dup3\n      add\n      swap2\n      swap1\n      0x00\n      mstore\n      keccak256(0x00, 0x20)\n      swap1\n    tag_83:\n      dup2\n      sload\n      dup2\n      mstore\n      swap1\n      0x01\n      add\n      swap1\n      0x20\n      add\n      dup1\n      dup4\n      gt\n      tag_83\n      jumpi\n      dup3\n      swap1\n      sub\n      0x1f\n      and\n      dup3\n      add\n      swap2\n    tag_81:\n      pop\n      pop\n      pop\n      pop\n      pop\n      swap1\n      dup1\n      0x02\n      add\n      dup1\n      sload\n      tag_84\n      swap1\n      tag_28\n      jump\t// in\n    tag_84:\n      dup1\n      0x1f\n      add\n      0x20\n      dup1\n      swap2\n      div\n      mul\n      0x20\n      add\n      mload(0x40)\n      swap1\n      dup2\n      add\n      0x40\n      mstore\n      dup1\n      swap3\n      swap2\n      swap1\n      dup2\n      dup2\n      mstore\n      0x20\n      add\n      dup3\n      dup1\n      sload\n      tag_85\n      swap1\n      tag_28\n      jump\t// in\n    tag_85:\n      dup1\n      iszero\n      tag_86\n      jumpi\n      dup1\n      0x1f\n      lt\n      tag_87\n      jumpi\n      0x0100\n      dup1\n      dup4\n      sload\n      div\n      mul\n      dup4\n      mstore\n      swap2\n      0x20\n      add\n      swap2\n      jump(tag_86)\n    tag_87:\n      dup3\n      add\n      swap2\n      swap1\n      0x00\n      mstore\n      keccak256(0x00, 0x20)\n      swap1\n    tag_88:\n      dup2\n      sload\n      dup2\n      mstore\n      swap1\n      0x01\n      add\n      swap1\n      0x20\n      add\n      dup1\n      dup4\n      gt\n      tag_88\n      jumpi\n      dup3\n      swap1\n      sub\n      0x1f\n      and\n      dup3\n      add\n      swap2\n    tag_86:\n      pop\n      pop\n      pop\n      pop\n      pop\n      swap1\n      dup1\n      0x03\n      add\n      dup1\n      sload\n      tag_89\n      swap1\n      tag_28\n      jump\t// in\n    tag_89:\n      dup1\n      0x1f\n      add\n      0x20\n      dup1\n      swap2\n      div\n      mul\n      0x20\n      add\n      mload(0x40)\n      swap1\n      dup2\n      add\n      0x40\n      mstore\n      dup1\n      swap3\n      swap2\n      swap1\n      dup2\n      dup2\n      mstore\n      0x20\n      add\n      dup3\n      dup1\n      sload\n      tag_90\n      swap1\n      tag_28\n      jump\t// in\n    tag_90:\n      dup1\n      iszero\n      tag_91\n      jumpi\n      dup1\n      0x1f\n      lt\n      tag_92\n      jumpi\n      0x0100\n      dup1\n      dup4\n      sload\n      div\n      mul\n      dup4\n      mstore\n      swap2\n      0x20\n      add\n      swap2\n      jump(tag_91)\n    tag_92:\n      dup3\n      add\n      swap2\n      swap1\n      0x00\n      mstore\n      keccak256(0x00, 0x20)\n      swap1\n    tag_93:\n      dup2\n      sload\n      dup2\n      mstore\n      swap1\n      0x01\n      add\n      swap1\n      0x20\n      add\n      dup1\n      dup4\n      gt\n      tag_93\n      jumpi\n      dup3\n      swap1\n      sub\n      0x1f\n      and\n      dup3\n      add\n      swap2\n    tag_91:\n      pop\n      pop\n      pop\n      pop\n      pop\n      swap1\n      dup1\n      0x04\n      add\n      dup1\n      sload\n      tag_94\n      swap1\n      tag_28\n      jump\t// in\n    tag_94:\n      dup1\n      0x1f\n      add\n      0x20\n      dup1\n      swap2\n      div\n      mul\n      0x20\n      add\n      mload(0x40)\n      swap1\n      dup2\n      add\n      0x40\n      mstore\n      dup1\n      swap3\n      swap2\n      swap1\n      dup2\n      dup2\n      mstore\n      0x20\n      add\n      dup3\n      dup1\n      sload\n      tag_95\n      swap1\n      tag_28\n      jump\t// in\n    tag_95:\n      dup1\n      iszero\n      tag_96\n      jumpi\n      dup1\n      0x1f\n      lt\n      tag_97\n      jumpi\n      0x0100\n      dup1\n      dup4\n      sload\n      div\n      mul\n      dup4\n      mstore\n      swap2\n      0x20\n      add\n      swap2\n      jump(tag_96)\n    tag_97:\n      dup3\n      add\n      swap2\n      swap1\n      0x00\n      mstore\n      keccak256(0x00, 0x20)\n      swap1\n    tag_98:\n      dup2\n      sload\n      dup2\n      mstore\n      swap1\n      0x01\n      add\n      swap1\n      0x20\n      add\n      dup1\n      dup4\n      gt\n      tag_98\n      jumpi\n      dup3\n      swap1\n      sub\n      0x1f\n      and\n      dup3\n      add\n      swap2\n    tag_96:\n      pop\n      pop\n      pop\n      pop\n      pop\n      swap1\n      dup1\n      0x05\n      add\n      dup1\n      sload\n      tag_99\n      swap1\n      tag_28\n      jump\t// in\n    tag_99:\n      dup1\n      0x1f\n      add\n      0x20\n      dup1\n      swap2\n      div\n      mul\n      0x20\n      add\n      mload(0x40)\n      swap1\n      dup2\n      add\n      0x40\n      mstore\n      dup1\n      swap3\n      swap2\n      swap1\n      dup2\n      dup2\n      mstore\n      0x20\n      add\n      dup3\n      dup1\n      sload\n      tag_100\n      swap1\n      tag_28\n      jump\t// in\n    tag_100:\n      dup1\n      iszero\n      tag_101\n      jumpi\n      dup1\n      0x1f\n      lt\n      tag_102\n      jumpi\n      0x0100\n      dup1\n      dup4\n      sload\n      div\n      mul\n      dup4\n      mstore\n      swap2\n      0x20\n      add\n      swap2\n      jump(tag_101)\n    tag_102:\n      dup3\n      add\n      swap2\n      swap1\n      0x00\n      mstore\n      keccak256(0x00, 0x20)\n      swap1\n    tag_103:\n      dup2\n      sload\n      dup2\n      mstore\n      swap1\n      0x01\n      add\n      swap1\n      0x20\n      add\n      dup1\n      dup4\n      gt\n      tag_103\n      jumpi\n      dup3\n      swap1\n      sub\n      0x1f\n      and\n      dup3\n      add\n      swap2\n    tag_101:\n      pop\n      pop\n      pop\n      pop\n      pop\n      swap1\n      dup1\n      0x06\n      add\n      0x00\n      swap1\n      sload\n      swap1\n      0x0100\n      exp\n      swap1\n      div\n      0xffffffffffffffffffffffffffffffffffffffff\n      and\n      swap1\n      pop\n      dup8\n      jump\t// out\n        /* \"contracts/Profile.sol\":1318:1392  function delProfile() public {\r... */\n    tag_23:\n        /* \"contracts/Profile.sol\":1365:1372  profile */\n      0x00\n        /* \"contracts/Profile.sol\":1365:1384  profile[msg.sender] */\n      dup1\n        /* \"contracts/Profile.sol\":1373:1383  msg.sender */\n      caller\n        /* \"contracts/Profile.sol\":1365:1384  profile[msg.sender] */\n      0xffffffffffffffffffffffffffffffffffffffff\n      and\n      0xffffffffffffffffffffffffffffffffffffffff\n      and\n      dup2\n      mstore\n      0x20\n      add\n      swap1\n      dup2\n      mstore\n      0x20\n      add\n      0x00\n      keccak256\n      0x00\n        /* \"contracts/Profile.sol\":1358:1384  delete profile[msg.sender] */\n      dup1\n      dup3\n      add\n      0x00\n      tag_105\n      swap2\n      swap1\n      tag_61\n      jump\t// in\n    tag_105:\n      0x01\n      dup3\n      add\n      0x00\n      tag_106\n      swap2\n      swap1\n      tag_61\n      jump\t// in\n    tag_106:\n      0x02\n      dup3\n      add\n      0x00\n      tag_107\n      swap2\n      swap1\n      tag_61\n      jump\t// in\n    tag_107:\n      0x03\n      dup3\n      add\n      0x00\n      tag_108\n      swap2\n      swap1\n      tag_61\n      jump\t// in\n    tag_108:\n      0x04\n      dup3\n      add\n      0x00\n      tag_109\n      swap2\n      swap1\n      tag_61\n      jump\t// in\n    tag_109:\n      0x05\n      dup3\n      add\n      0x00\n      tag_110\n      swap2\n      swap1\n      tag_61\n      jump\t// in\n    tag_110:\n      0x06\n      dup3\n      add\n      exp(0x0100, 0x00)\n      dup2\n      sload\n      swap1\n      0xffffffffffffffffffffffffffffffffffffffff\n      mul\n      not\n      and\n      swap1\n      sstore\n      pop\n      pop\n        /* \"contracts/Profile.sol\":1318:1392  function delProfile() public {\r... */\n      jump\t// out\n    tag_25:\n      mload(0x40)\n      dup1\n      0xe0\n      add\n      0x40\n      mstore\n      dup1\n      0x60\n      dup2\n      mstore\n      0x20\n      add\n      0x60\n      dup2\n      mstore\n      0x20\n      add\n      0x60\n      dup2\n      mstore\n      0x20\n      add\n      0x60\n      dup2\n      mstore\n      0x20\n      add\n      0x60\n      dup2\n      mstore\n      0x20\n      add\n      0x60\n      dup2\n      mstore\n      0x20\n      add\n      and(0xffffffffffffffffffffffffffffffffffffffff, 0x00)\n      dup2\n      mstore\n      pop\n      swap1\n      jump\t// out\n    tag_61:\n      pop\n      dup1\n      sload\n      tag_111\n      swap1\n      tag_28\n      jump\t// in\n    tag_111:\n      0x00\n      dup3\n      sstore\n      dup1\n      0x1f\n      lt\n      tag_113\n      jumpi\n      pop\n      jump(tag_112)\n    tag_113:\n      0x1f\n      add\n      0x20\n      swap1\n      div\n      swap1\n      0x00\n      mstore\n      keccak256(0x00, 0x20)\n      swap1\n      dup2\n      add\n      swap1\n      tag_114\n      swap2\n      swap1\n      tag_115\n      jump\t// in\n    tag_114:\n    tag_112:\n      pop\n      jump\t// out\n    tag_68:\n      dup3\n      dup1\n      sload\n      tag_116\n      swap1\n      tag_28\n      jump\t// in\n    tag_116:\n      swap1\n      0x00\n      mstore\n      keccak256(0x00, 0x20)\n      swap1\n      0x1f\n      add\n      0x20\n      swap1\n      div\n      dup2\n      add\n      swap3\n      dup3\n      tag_118\n      jumpi\n      0x00\n      dup6\n      sstore\n      jump(tag_117)\n    tag_118:\n      dup3\n      0x1f\n      lt\n      tag_119\n      jumpi\n      dup1\n      mload\n      not(0xff)\n      and\n      dup4\n      dup1\n      add\n      or\n      dup6\n      sstore\n      jump(tag_117)\n    tag_119:\n      dup3\n      dup1\n      add\n      0x01\n      add\n      dup6\n      sstore\n      dup3\n      iszero\n      tag_117\n      jumpi\n      swap2\n      dup3\n      add\n    tag_120:\n      dup3\n      dup2\n      gt\n      iszero\n      tag_121\n      jumpi\n      dup3\n      mload\n      dup3\n      sstore\n      swap2\n      0x20\n      add\n      swap2\n      swap1\n      0x01\n      add\n      swap1\n      jump(tag_120)\n    tag_121:\n    tag_117:\n      pop\n      swap1\n      pop\n      tag_122\n      swap2\n      swap1\n      tag_115\n      jump\t// in\n    tag_122:\n      pop\n      swap1\n      jump\t// out\n    tag_115:\n    tag_123:\n      dup1\n      dup3\n      gt\n      iszero\n      tag_124\n      jumpi\n      0x00\n      dup2\n      0x00\n      swap1\n      sstore\n      pop\n      0x01\n      add\n      jump(tag_123)\n    tag_124:\n      pop\n      swap1\n      jump\t// out\n        /* \"#utility.yul\":7:419   */\n    tag_126:\n        /* \"#utility.yul\":85:90   */\n      0x00\n        /* \"#utility.yul\":110:176   */\n      tag_128\n        /* \"#utility.yul\":126:175   */\n      tag_129\n        /* \"#utility.yul\":168:174   */\n      dup5\n        /* \"#utility.yul\":126:175   */\n      tag_130\n      jump\t// in\n    tag_129:\n        /* \"#utility.yul\":110:176   */\n      tag_131\n      jump\t// in\n    tag_128:\n        /* \"#utility.yul\":101:176   */\n      swap1\n      pop\n        /* \"#utility.yul\":199:205   */\n      dup3\n        /* \"#utility.yul\":192:197   */\n      dup2\n        /* \"#utility.yul\":185:206   */\n      mstore\n        /* \"#utility.yul\":237:241   */\n      0x20\n        /* \"#utility.yul\":230:235   */\n      dup2\n        /* \"#utility.yul\":226:242   */\n      add\n        /* \"#utility.yul\":275:278   */\n      dup5\n        /* \"#utility.yul\":266:272   */\n      dup5\n        /* \"#utility.yul\":261:264   */\n      dup5\n        /* \"#utility.yul\":257:273   */\n      add\n        /* \"#utility.yul\":254:279   */\n      gt\n        /* \"#utility.yul\":251:363   */\n      iszero\n      tag_132\n      jumpi\n        /* \"#utility.yul\":282:361   */\n      tag_133\n      tag_134\n      jump\t// in\n    tag_133:\n        /* \"#utility.yul\":251:363   */\n    tag_132:\n        /* \"#utility.yul\":372:413   */\n      tag_135\n        /* \"#utility.yul\":406:412   */\n      dup5\n        /* \"#utility.yul\":401:404   */\n      dup3\n        /* \"#utility.yul\":396:399   */\n      dup6\n        /* \"#utility.yul\":372:413   */\n      tag_136\n      jump\t// in\n    tag_135:\n        /* \"#utility.yul\":91:419   */\n      pop\n        /* \"#utility.yul\":7:419   */\n      swap4\n      swap3\n      pop\n      pop\n      pop\n      jump\t// out\n        /* \"#utility.yul\":425:564   */\n    tag_137:\n        /* \"#utility.yul\":471:476   */\n      0x00\n        /* \"#utility.yul\":509:515   */\n      dup2\n        /* \"#utility.yul\":496:516   */\n      calldataload\n        /* \"#utility.yul\":487:516   */\n      swap1\n      pop\n        /* \"#utility.yul\":525:558   */\n      tag_139\n        /* \"#utility.yul\":552:557   */\n      dup2\n        /* \"#utility.yul\":525:558   */\n      tag_140\n      jump\t// in\n    tag_139:\n        /* \"#utility.yul\":425:564   */\n      swap3\n      swap2\n      pop\n      pop\n      jump\t// out\n        /* \"#utility.yul\":584:924   */\n    tag_141:\n        /* \"#utility.yul\":640:645   */\n      0x00\n        /* \"#utility.yul\":689:692   */\n      dup3\n        /* \"#utility.yul\":682:686   */\n      0x1f\n        /* \"#utility.yul\":674:680   */\n      dup4\n        /* \"#utility.yul\":670:687   */\n      add\n        /* \"#utility.yul\":666:693   */\n      slt\n        /* \"#utility.yul\":656:778   */\n      tag_143\n      jumpi\n        /* \"#utility.yul\":697:776   */\n      tag_144\n      tag_145\n      jump\t// in\n    tag_144:\n        /* \"#utility.yul\":656:778   */\n    tag_143:\n        /* \"#utility.yul\":814:820   */\n      dup2\n        /* \"#utility.yul\":801:821   */\n      calldataload\n        /* \"#utility.yul\":839:918   */\n      tag_146\n        /* \"#utility.yul\":914:917   */\n      dup5\n        /* \"#utility.yul\":906:912   */\n      dup3\n        /* \"#utility.yul\":899:903   */\n      0x20\n        /* \"#utility.yul\":891:897   */\n      dup7\n        /* \"#utility.yul\":887:904   */\n      add\n        /* \"#utility.yul\":839:918   */\n      tag_126\n      jump\t// in\n    tag_146:\n        /* \"#utility.yul\":830:918   */\n      swap2\n      pop\n        /* \"#utility.yul\":646:924   */\n      pop\n        /* \"#utility.yul\":584:924   */\n      swap3\n      swap2\n      pop\n      pop\n      jump\t// out\n        /* \"#utility.yul\":930:1259   */\n    tag_9:\n        /* \"#utility.yul\":989:995   */\n      0x00\n        /* \"#utility.yul\":1038:1040   */\n      0x20\n        /* \"#utility.yul\":1026:1035   */\n      dup3\n        /* \"#utility.yul\":1017:1024   */\n      dup5\n        /* \"#utility.yul\":1013:1036   */\n      sub\n        /* \"#utility.yul\":1009:1041   */\n      slt\n        /* \"#utility.yul\":1006:1125   */\n      iszero\n      tag_148\n      jumpi\n        /* \"#utility.yul\":1044:1123   */\n      tag_149\n      tag_150\n      jump\t// in\n    tag_149:\n        /* \"#utility.yul\":1006:1125   */\n    tag_148:\n        /* \"#utility.yul\":1164:1165   */\n      0x00\n        /* \"#utility.yul\":1189:1242   */\n      tag_151\n        /* \"#utility.yul\":1234:1241   */\n      dup5\n        /* \"#utility.yul\":1225:1231   */\n      dup3\n        /* \"#utility.yul\":1214:1223   */\n      dup6\n        /* \"#utility.yul\":1210:1232   */\n      add\n        /* \"#utility.yul\":1189:1242   */\n      tag_137\n      jump\t// in\n    tag_151:\n        /* \"#utility.yul\":1179:1242   */\n      swap2\n      pop\n        /* \"#utility.yul\":1135:1252   */\n      pop\n        /* \"#utility.yul\":930:1259   */\n      swap3\n      swap2\n      pop\n      pop\n      jump\t// out\n        /* \"#utility.yul\":1265:3402   */\n    tag_15:\n        /* \"#utility.yul\":1429:1435   */\n      0x00\n        /* \"#utility.yul\":1437:1443   */\n      dup1\n        /* \"#utility.yul\":1445:1451   */\n      0x00\n        /* \"#utility.yul\":1453:1459   */\n      dup1\n        /* \"#utility.yul\":1461:1467   */\n      0x00\n        /* \"#utility.yul\":1469:1475   */\n      dup1\n        /* \"#utility.yul\":1518:1521   */\n      0xc0\n        /* \"#utility.yul\":1506:1515   */\n      dup8\n        /* \"#utility.yul\":1497:1504   */\n      dup10\n        /* \"#utility.yul\":1493:1516   */\n      sub\n        /* \"#utility.yul\":1489:1522   */\n      slt\n        /* \"#utility.yul\":1486:1606   */\n      iszero\n      tag_153\n      jumpi\n        /* \"#utility.yul\":1525:1604   */\n      tag_154\n      tag_150\n      jump\t// in\n    tag_154:\n        /* \"#utility.yul\":1486:1606   */\n    tag_153:\n        /* \"#utility.yul\":1673:1674   */\n      0x00\n        /* \"#utility.yul\":1662:1671   */\n      dup8\n        /* \"#utility.yul\":1658:1675   */\n      add\n        /* \"#utility.yul\":1645:1676   */\n      calldataload\n        /* \"#utility.yul\":1703:1721   */\n      0xffffffffffffffff\n        /* \"#utility.yul\":1695:1701   */\n      dup2\n        /* \"#utility.yul\":1692:1722   */\n      gt\n        /* \"#utility.yul\":1689:1806   */\n      iszero\n      tag_155\n      jumpi\n        /* \"#utility.yul\":1725:1804   */\n      tag_156\n      tag_157\n      jump\t// in\n    tag_156:\n        /* \"#utility.yul\":1689:1806   */\n    tag_155:\n        /* \"#utility.yul\":1830:1893   */\n      tag_158\n        /* \"#utility.yul\":1885:1892   */\n      dup10\n        /* \"#utility.yul\":1876:1882   */\n      dup3\n        /* \"#utility.yul\":1865:1874   */\n      dup11\n        /* \"#utility.yul\":1861:1883   */\n      add\n        /* \"#utility.yul\":1830:1893   */\n      tag_141\n      jump\t// in\n    tag_158:\n        /* \"#utility.yul\":1820:1893   */\n      swap7\n      pop\n        /* \"#utility.yul\":1616:1903   */\n      pop\n        /* \"#utility.yul\":1970:1972   */\n      0x20\n        /* \"#utility.yul\":1959:1968   */\n      dup8\n        /* \"#utility.yul\":1955:1973   */\n      add\n        /* \"#utility.yul\":1942:1974   */\n      calldataload\n        /* \"#utility.yul\":2001:2019   */\n      0xffffffffffffffff\n        /* \"#utility.yul\":1993:1999   */\n      dup2\n        /* \"#utility.yul\":1990:2020   */\n      gt\n        /* \"#utility.yul\":1987:2104   */\n      iszero\n      tag_159\n      jumpi\n        /* \"#utility.yul\":2023:2102   */\n      tag_160\n      tag_157\n      jump\t// in\n    tag_160:\n        /* \"#utility.yul\":1987:2104   */\n    tag_159:\n        /* \"#utility.yul\":2128:2191   */\n      tag_161\n        /* \"#utility.yul\":2183:2190   */\n      dup10\n        /* \"#utility.yul\":2174:2180   */\n      dup3\n        /* \"#utility.yul\":2163:2172   */\n      dup11\n        /* \"#utility.yul\":2159:2181   */\n      add\n        /* \"#utility.yul\":2128:2191   */\n      tag_141\n      jump\t// in\n    tag_161:\n        /* \"#utility.yul\":2118:2191   */\n      swap6\n      pop\n        /* \"#utility.yul\":1913:2201   */\n      pop\n        /* \"#utility.yul\":2268:2270   */\n      0x40\n        /* \"#utility.yul\":2257:2266   */\n      dup8\n        /* \"#utility.yul\":2253:2271   */\n      add\n        /* \"#utility.yul\":2240:2272   */\n      calldataload\n        /* \"#utility.yul\":2299:2317   */\n      0xffffffffffffffff\n        /* \"#utility.yul\":2291:2297   */\n      dup2\n        /* \"#utility.yul\":2288:2318   */\n      gt\n        /* \"#utility.yul\":2285:2402   */\n      iszero\n      tag_162\n      jumpi\n        /* \"#utility.yul\":2321:2400   */\n      tag_163\n      tag_157\n      jump\t// in\n    tag_163:\n        /* \"#utility.yul\":2285:2402   */\n    tag_162:\n        /* \"#utility.yul\":2426:2489   */\n      tag_164\n        /* \"#utility.yul\":2481:2488   */\n      dup10\n        /* \"#utility.yul\":2472:2478   */\n      dup3\n        /* \"#utility.yul\":2461:2470   */\n      dup11\n        /* \"#utility.yul\":2457:2479   */\n      add\n        /* \"#utility.yul\":2426:2489   */\n      tag_141\n      jump\t// in\n    tag_164:\n        /* \"#utility.yul\":2416:2489   */\n      swap5\n      pop\n        /* \"#utility.yul\":2211:2499   */\n      pop\n        /* \"#utility.yul\":2566:2568   */\n      0x60\n        /* \"#utility.yul\":2555:2564   */\n      dup8\n        /* \"#utility.yul\":2551:2569   */\n      add\n        /* \"#utility.yul\":2538:2570   */\n      calldataload\n        /* \"#utility.yul\":2597:2615   */\n      0xffffffffffffffff\n        /* \"#utility.yul\":2589:2595   */\n      dup2\n        /* \"#utility.yul\":2586:2616   */\n      gt\n        /* \"#utility.yul\":2583:2700   */\n      iszero\n      tag_165\n      jumpi\n        /* \"#utility.yul\":2619:2698   */\n      tag_166\n      tag_157\n      jump\t// in\n    tag_166:\n        /* \"#utility.yul\":2583:2700   */\n    tag_165:\n        /* \"#utility.yul\":2724:2787   */\n      tag_167\n        /* \"#utility.yul\":2779:2786   */\n      dup10\n        /* \"#utility.yul\":2770:2776   */\n      dup3\n        /* \"#utility.yul\":2759:2768   */\n      dup11\n        /* \"#utility.yul\":2755:2777   */\n      add\n        /* \"#utility.yul\":2724:2787   */\n      tag_141\n      jump\t// in\n    tag_167:\n        /* \"#utility.yul\":2714:2787   */\n      swap4\n      pop\n        /* \"#utility.yul\":2509:2797   */\n      pop\n        /* \"#utility.yul\":2864:2867   */\n      0x80\n        /* \"#utility.yul\":2853:2862   */\n      dup8\n        /* \"#utility.yul\":2849:2868   */\n      add\n        /* \"#utility.yul\":2836:2869   */\n      calldataload\n        /* \"#utility.yul\":2896:2914   */\n      0xffffffffffffffff\n        /* \"#utility.yul\":2888:2894   */\n      dup2\n        /* \"#utility.yul\":2885:2915   */\n      gt\n        /* \"#utility.yul\":2882:2999   */\n      iszero\n      tag_168\n      jumpi\n        /* \"#utility.yul\":2918:2997   */\n      tag_169\n      tag_157\n      jump\t// in\n    tag_169:\n        /* \"#utility.yul\":2882:2999   */\n    tag_168:\n        /* \"#utility.yul\":3023:3086   */\n      tag_170\n        /* \"#utility.yul\":3078:3085   */\n      dup10\n        /* \"#utility.yul\":3069:3075   */\n      dup3\n        /* \"#utility.yul\":3058:3067   */\n      dup11\n        /* \"#utility.yul\":3054:3076   */\n      add\n        /* \"#utility.yul\":3023:3086   */\n      tag_141\n      jump\t// in\n    tag_170:\n        /* \"#utility.yul\":3013:3086   */\n      swap3\n      pop\n        /* \"#utility.yul\":2807:3096   */\n      pop\n        /* \"#utility.yul\":3163:3166   */\n      0xa0\n        /* \"#utility.yul\":3152:3161   */\n      dup8\n        /* \"#utility.yul\":3148:3167   */\n      add\n        /* \"#utility.yul\":3135:3168   */\n      calldataload\n        /* \"#utility.yul\":3195:3213   */\n      0xffffffffffffffff\n        /* \"#utility.yul\":3187:3193   */\n      dup2\n        /* \"#utility.yul\":3184:3214   */\n      gt\n        /* \"#utility.yul\":3181:3298   */\n      iszero\n      tag_171\n      jumpi\n        /* \"#utility.yul\":3217:3296   */\n      tag_172\n      tag_157\n      jump\t// in\n    tag_172:\n        /* \"#utility.yul\":3181:3298   */\n    tag_171:\n        /* \"#utility.yul\":3322:3385   */\n      tag_173\n        /* \"#utility.yul\":3377:3384   */\n      dup10\n        /* \"#utility.yul\":3368:3374   */\n      dup3\n        /* \"#utility.yul\":3357:3366   */\n      dup11\n        /* \"#utility.yul\":3353:3375   */\n      add\n        /* \"#utility.yul\":3322:3385   */\n      tag_141\n      jump\t// in\n    tag_173:\n        /* \"#utility.yul\":3312:3385   */\n      swap2\n      pop\n        /* \"#utility.yul\":3106:3395   */\n      pop\n        /* \"#utility.yul\":1265:3402   */\n      swap3\n      swap6\n      pop\n      swap3\n      swap6\n      pop\n      swap3\n      swap6\n      jump\t// out\n        /* \"#utility.yul\":3408:3516   */\n    tag_174:\n        /* \"#utility.yul\":3485:3509   */\n      tag_176\n        /* \"#utility.yul\":3503:3508   */\n      dup2\n        /* \"#utility.yul\":3485:3509   */\n      tag_177\n      jump\t// in\n    tag_176:\n        /* \"#utility.yul\":3480:3483   */\n      dup3\n        /* \"#utility.yul\":3473:3510   */\n      mstore\n        /* \"#utility.yul\":3408:3516   */\n      pop\n      pop\n      jump\t// out\n        /* \"#utility.yul\":3522:3640   */\n    tag_178:\n        /* \"#utility.yul\":3609:3633   */\n      tag_180\n        /* \"#utility.yul\":3627:3632   */\n      dup2\n        /* \"#utility.yul\":3609:3633   */\n      tag_177\n      jump\t// in\n    tag_180:\n        /* \"#utility.yul\":3604:3607   */\n      dup3\n        /* \"#utility.yul\":3597:3634   */\n      mstore\n        /* \"#utility.yul\":3522:3640   */\n      pop\n      pop\n      jump\t// out\n        /* \"#utility.yul\":3646:3990   */\n    tag_181:\n        /* \"#utility.yul\":3724:3727   */\n      0x00\n        /* \"#utility.yul\":3752:3791   */\n      tag_183\n        /* \"#utility.yul\":3785:3790   */\n      dup3\n        /* \"#utility.yul\":3752:3791   */\n      tag_184\n      jump\t// in\n    tag_183:\n        /* \"#utility.yul\":3807:3868   */\n      tag_185\n        /* \"#utility.yul\":3861:3867   */\n      dup2\n        /* \"#utility.yul\":3856:3859   */\n      dup6\n        /* \"#utility.yul\":3807:3868   */\n      tag_186\n      jump\t// in\n    tag_185:\n        /* \"#utility.yul\":3800:3868   */\n      swap4\n      pop\n        /* \"#utility.yul\":3877:3929   */\n      tag_187\n        /* \"#utility.yul\":3922:3928   */\n      dup2\n        /* \"#utility.yul\":3917:3920   */\n      dup6\n        /* \"#utility.yul\":3910:3914   */\n      0x20\n        /* \"#utility.yul\":3903:3908   */\n      dup7\n        /* \"#utility.yul\":3899:3915   */\n      add\n        /* \"#utility.yul\":3877:3929   */\n      tag_188\n      jump\t// in\n    tag_187:\n        /* \"#utility.yul\":3954:3983   */\n      tag_189\n        /* \"#utility.yul\":3976:3982   */\n      dup2\n        /* \"#utility.yul\":3954:3983   */\n      tag_190\n      jump\t// in\n    tag_189:\n        /* \"#utility.yul\":3949:3952   */\n      dup5\n        /* \"#utility.yul\":3945:3984   */\n      add\n        /* \"#utility.yul\":3938:3984   */\n      swap2\n      pop\n        /* \"#utility.yul\":3728:3990   */\n      pop\n        /* \"#utility.yul\":3646:3990   */\n      swap3\n      swap2\n      pop\n      pop\n      jump\t// out\n        /* \"#utility.yul\":3996:4360   */\n    tag_191:\n        /* \"#utility.yul\":4084:4087   */\n      0x00\n        /* \"#utility.yul\":4112:4151   */\n      tag_193\n        /* \"#utility.yul\":4145:4150   */\n      dup3\n        /* \"#utility.yul\":4112:4151   */\n      tag_184\n      jump\t// in\n    tag_193:\n        /* \"#utility.yul\":4167:4238   */\n      tag_194\n        /* \"#utility.yul\":4231:4237   */\n      dup2\n        /* \"#utility.yul\":4226:4229   */\n      dup6\n        /* \"#utility.yul\":4167:4238   */\n      tag_195\n      jump\t// in\n    tag_194:\n        /* \"#utility.yul\":4160:4238   */\n      swap4\n      pop\n        /* \"#utility.yul\":4247:4299   */\n      tag_196\n        /* \"#utility.yul\":4292:4298   */\n      dup2\n        /* \"#utility.yul\":4287:4290   */\n      dup6\n        /* \"#utility.yul\":4280:4284   */\n      0x20\n        /* \"#utility.yul\":4273:4278   */\n      dup7\n        /* \"#utility.yul\":4269:4285   */\n      add\n        /* \"#utility.yul\":4247:4299   */\n      tag_188\n      jump\t// in\n    tag_196:\n        /* \"#utility.yul\":4324:4353   */\n      tag_197\n        /* \"#utility.yul\":4346:4352   */\n      dup2\n        /* \"#utility.yul\":4324:4353   */\n      tag_190\n      jump\t// in\n    tag_197:\n        /* \"#utility.yul\":4319:4322   */\n      dup5\n        /* \"#utility.yul\":4315:4354   */\n      add\n        /* \"#utility.yul\":4308:4354   */\n      swap2\n      pop\n        /* \"#utility.yul\":4088:4360   */\n      pop\n        /* \"#utility.yul\":3996:4360   */\n      swap3\n      swap2\n      pop\n      pop\n      jump\t// out\n        /* \"#utility.yul\":4414:6265   */\n    tag_198:\n        /* \"#utility.yul\":4521:4524   */\n      0x00\n        /* \"#utility.yul\":4557:4561   */\n      0xe0\n        /* \"#utility.yul\":4552:4555   */\n      dup4\n        /* \"#utility.yul\":4548:4562   */\n      add\n        /* \"#utility.yul\":4649:4653   */\n      0x00\n        /* \"#utility.yul\":4642:4647   */\n      dup4\n        /* \"#utility.yul\":4638:4654   */\n      add\n        /* \"#utility.yul\":4632:4655   */\n      mload\n        /* \"#utility.yul\":4702:4705   */\n      dup5\n        /* \"#utility.yul\":4696:4700   */\n      dup3\n        /* \"#utility.yul\":4692:4706   */\n      sub\n        /* \"#utility.yul\":4685:4689   */\n      0x00\n        /* \"#utility.yul\":4680:4683   */\n      dup7\n        /* \"#utility.yul\":4676:4690   */\n      add\n        /* \"#utility.yul\":4669:4707   */\n      mstore\n        /* \"#utility.yul\":4728:4801   */\n      tag_200\n        /* \"#utility.yul\":4796:4800   */\n      dup3\n        /* \"#utility.yul\":4782:4794   */\n      dup3\n        /* \"#utility.yul\":4728:4801   */\n      tag_181\n      jump\t// in\n    tag_200:\n        /* \"#utility.yul\":4720:4801   */\n      swap2\n      pop\n        /* \"#utility.yul\":4572:4812   */\n      pop\n        /* \"#utility.yul\":4900:4904   */\n      0x20\n        /* \"#utility.yul\":4893:4898   */\n      dup4\n        /* \"#utility.yul\":4889:4905   */\n      add\n        /* \"#utility.yul\":4883:4906   */\n      mload\n        /* \"#utility.yul\":4953:4956   */\n      dup5\n        /* \"#utility.yul\":4947:4951   */\n      dup3\n        /* \"#utility.yul\":4943:4957   */\n      sub\n        /* \"#utility.yul\":4936:4940   */\n      0x20\n        /* \"#utility.yul\":4931:4934   */\n      dup7\n        /* \"#utility.yul\":4927:4941   */\n      add\n        /* \"#utility.yul\":4920:4958   */\n      mstore\n        /* \"#utility.yul\":4979:5052   */\n      tag_201\n        /* \"#utility.yul\":5047:5051   */\n      dup3\n        /* \"#utility.yul\":5033:5045   */\n      dup3\n        /* \"#utility.yul\":4979:5052   */\n      tag_181\n      jump\t// in\n    tag_201:\n        /* \"#utility.yul\":4971:5052   */\n      swap2\n      pop\n        /* \"#utility.yul\":4822:5063   */\n      pop\n        /* \"#utility.yul\":5149:5153   */\n      0x40\n        /* \"#utility.yul\":5142:5147   */\n      dup4\n        /* \"#utility.yul\":5138:5154   */\n      add\n        /* \"#utility.yul\":5132:5155   */\n      mload\n        /* \"#utility.yul\":5202:5205   */\n      dup5\n        /* \"#utility.yul\":5196:5200   */\n      dup3\n        /* \"#utility.yul\":5192:5206   */\n      sub\n        /* \"#utility.yul\":5185:5189   */\n      0x40\n        /* \"#utility.yul\":5180:5183   */\n      dup7\n        /* \"#utility.yul\":5176:5190   */\n      add\n        /* \"#utility.yul\":5169:5207   */\n      mstore\n        /* \"#utility.yul\":5228:5301   */\n      tag_202\n        /* \"#utility.yul\":5296:5300   */\n      dup3\n        /* \"#utility.yul\":5282:5294   */\n      dup3\n        /* \"#utility.yul\":5228:5301   */\n      tag_181\n      jump\t// in\n    tag_202:\n        /* \"#utility.yul\":5220:5301   */\n      swap2\n      pop\n        /* \"#utility.yul\":5073:5312   */\n      pop\n        /* \"#utility.yul\":5395:5399   */\n      0x60\n        /* \"#utility.yul\":5388:5393   */\n      dup4\n        /* \"#utility.yul\":5384:5400   */\n      add\n        /* \"#utility.yul\":5378:5401   */\n      mload\n        /* \"#utility.yul\":5448:5451   */\n      dup5\n        /* \"#utility.yul\":5442:5446   */\n      dup3\n        /* \"#utility.yul\":5438:5452   */\n      sub\n        /* \"#utility.yul\":5431:5435   */\n      0x60\n        /* \"#utility.yul\":5426:5429   */\n      dup7\n        /* \"#utility.yul\":5422:5436   */\n      add\n        /* \"#utility.yul\":5415:5453   */\n      mstore\n        /* \"#utility.yul\":5474:5547   */\n      tag_203\n        /* \"#utility.yul\":5542:5546   */\n      dup3\n        /* \"#utility.yul\":5528:5540   */\n      dup3\n        /* \"#utility.yul\":5474:5547   */\n      tag_181\n      jump\t// in\n    tag_203:\n        /* \"#utility.yul\":5466:5547   */\n      swap2\n      pop\n        /* \"#utility.yul\":5322:5558   */\n      pop\n        /* \"#utility.yul\":5641:5645   */\n      0x80\n        /* \"#utility.yul\":5634:5639   */\n      dup4\n        /* \"#utility.yul\":5630:5646   */\n      add\n        /* \"#utility.yul\":5624:5647   */\n      mload\n        /* \"#utility.yul\":5694:5697   */\n      dup5\n        /* \"#utility.yul\":5688:5692   */\n      dup3\n        /* \"#utility.yul\":5684:5698   */\n      sub\n        /* \"#utility.yul\":5677:5681   */\n      0x80\n        /* \"#utility.yul\":5672:5675   */\n      dup7\n        /* \"#utility.yul\":5668:5682   */\n      add\n        /* \"#utility.yul\":5661:5699   */\n      mstore\n        /* \"#utility.yul\":5720:5793   */\n      tag_204\n        /* \"#utility.yul\":5788:5792   */\n      dup3\n        /* \"#utility.yul\":5774:5786   */\n      dup3\n        /* \"#utility.yul\":5720:5793   */\n      tag_181\n      jump\t// in\n    tag_204:\n        /* \"#utility.yul\":5712:5793   */\n      swap2\n      pop\n        /* \"#utility.yul\":5568:5804   */\n      pop\n        /* \"#utility.yul\":5894:5898   */\n      0xa0\n        /* \"#utility.yul\":5887:5892   */\n      dup4\n        /* \"#utility.yul\":5883:5899   */\n      add\n        /* \"#utility.yul\":5877:5900   */\n      mload\n        /* \"#utility.yul\":5947:5950   */\n      dup5\n        /* \"#utility.yul\":5941:5945   */\n      dup3\n        /* \"#utility.yul\":5937:5951   */\n      sub\n        /* \"#utility.yul\":5930:5934   */\n      0xa0\n        /* \"#utility.yul\":5925:5928   */\n      dup7\n        /* \"#utility.yul\":5921:5935   */\n      add\n        /* \"#utility.yul\":5914:5952   */\n      mstore\n        /* \"#utility.yul\":5973:6046   */\n      tag_205\n        /* \"#utility.yul\":6041:6045   */\n      dup3\n        /* \"#utility.yul\":6027:6039   */\n      dup3\n        /* \"#utility.yul\":5973:6046   */\n      tag_181\n      jump\t// in\n    tag_205:\n        /* \"#utility.yul\":5965:6046   */\n      swap2\n      pop\n        /* \"#utility.yul\":5814:6057   */\n      pop\n        /* \"#utility.yul\":6146:6150   */\n      0xc0\n        /* \"#utility.yul\":6139:6144   */\n      dup4\n        /* \"#utility.yul\":6135:6151   */\n      add\n        /* \"#utility.yul\":6129:6152   */\n      mload\n        /* \"#utility.yul\":6165:6228   */\n      tag_206\n        /* \"#utility.yul\":6222:6226   */\n      0xc0\n        /* \"#utility.yul\":6217:6220   */\n      dup7\n        /* \"#utility.yul\":6213:6227   */\n      add\n        /* \"#utility.yul\":6199:6211   */\n      dup3\n        /* \"#utility.yul\":6165:6228   */\n      tag_174\n      jump\t// in\n    tag_206:\n        /* \"#utility.yul\":6067:6238   */\n      pop\n        /* \"#utility.yul\":6255:6259   */\n      dup1\n        /* \"#utility.yul\":6248:6259   */\n      swap2\n      pop\n        /* \"#utility.yul\":4526:6265   */\n      pop\n        /* \"#utility.yul\":4414:6265   */\n      swap3\n      swap2\n      pop\n      pop\n      jump\t// out\n        /* \"#utility.yul\":6271:7703   */\n    tag_21:\n        /* \"#utility.yul\":6652:6656   */\n      0x00\n        /* \"#utility.yul\":6690:6693   */\n      0xe0\n        /* \"#utility.yul\":6679:6688   */\n      dup3\n        /* \"#utility.yul\":6675:6694   */\n      add\n        /* \"#utility.yul\":6667:6694   */\n      swap1\n      pop\n        /* \"#utility.yul\":6740:6749   */\n      dup2\n        /* \"#utility.yul\":6734:6738   */\n      dup2\n        /* \"#utility.yul\":6730:6750   */\n      sub\n        /* \"#utility.yul\":6726:6727   */\n      0x00\n        /* \"#utility.yul\":6715:6724   */\n      dup4\n        /* \"#utility.yul\":6711:6728   */\n      add\n        /* \"#utility.yul\":6704:6751   */\n      mstore\n        /* \"#utility.yul\":6768:6846   */\n      tag_208\n        /* \"#utility.yul\":6841:6845   */\n      dup2\n        /* \"#utility.yul\":6832:6838   */\n      dup11\n        /* \"#utility.yul\":6768:6846   */\n      tag_191\n      jump\t// in\n    tag_208:\n        /* \"#utility.yul\":6760:6846   */\n      swap1\n      pop\n        /* \"#utility.yul\":6893:6902   */\n      dup2\n        /* \"#utility.yul\":6887:6891   */\n      dup2\n        /* \"#utility.yul\":6883:6903   */\n      sub\n        /* \"#utility.yul\":6878:6880   */\n      0x20\n        /* \"#utility.yul\":6867:6876   */\n      dup4\n        /* \"#utility.yul\":6863:6881   */\n      add\n        /* \"#utility.yul\":6856:6904   */\n      mstore\n        /* \"#utility.yul\":6921:6999   */\n      tag_209\n        /* \"#utility.yul\":6994:6998   */\n      dup2\n        /* \"#utility.yul\":6985:6991   */\n      dup10\n        /* \"#utility.yul\":6921:6999   */\n      tag_191\n      jump\t// in\n    tag_209:\n        /* \"#utility.yul\":6913:6999   */\n      swap1\n      pop\n        /* \"#utility.yul\":7046:7055   */\n      dup2\n        /* \"#utility.yul\":7040:7044   */\n      dup2\n        /* \"#utility.yul\":7036:7056   */\n      sub\n        /* \"#utility.yul\":7031:7033   */\n      0x40\n        /* \"#utility.yul\":7020:7029   */\n      dup4\n        /* \"#utility.yul\":7016:7034   */\n      add\n        /* \"#utility.yul\":7009:7057   */\n      mstore\n        /* \"#utility.yul\":7074:7152   */\n      tag_210\n        /* \"#utility.yul\":7147:7151   */\n      dup2\n        /* \"#utility.yul\":7138:7144   */\n      dup9\n        /* \"#utility.yul\":7074:7152   */\n      tag_191\n      jump\t// in\n    tag_210:\n        /* \"#utility.yul\":7066:7152   */\n      swap1\n      pop\n        /* \"#utility.yul\":7199:7208   */\n      dup2\n        /* \"#utility.yul\":7193:7197   */\n      dup2\n        /* \"#utility.yul\":7189:7209   */\n      sub\n        /* \"#utility.yul\":7184:7186   */\n      0x60\n        /* \"#utility.yul\":7173:7182   */\n      dup4\n        /* \"#utility.yul\":7169:7187   */\n      add\n        /* \"#utility.yul\":7162:7210   */\n      mstore\n        /* \"#utility.yul\":7227:7305   */\n      tag_211\n        /* \"#utility.yul\":7300:7304   */\n      dup2\n        /* \"#utility.yul\":7291:7297   */\n      dup8\n        /* \"#utility.yul\":7227:7305   */\n      tag_191\n      jump\t// in\n    tag_211:\n        /* \"#utility.yul\":7219:7305   */\n      swap1\n      pop\n        /* \"#utility.yul\":7353:7362   */\n      dup2\n        /* \"#utility.yul\":7347:7351   */\n      dup2\n        /* \"#utility.yul\":7343:7363   */\n      sub\n        /* \"#utility.yul\":7337:7340   */\n      0x80\n        /* \"#utility.yul\":7326:7335   */\n      dup4\n        /* \"#utility.yul\":7322:7341   */\n      add\n        /* \"#utility.yul\":7315:7364   */\n      mstore\n        /* \"#utility.yul\":7381:7459   */\n      tag_212\n        /* \"#utility.yul\":7454:7458   */\n      dup2\n        /* \"#utility.yul\":7445:7451   */\n      dup7\n        /* \"#utility.yul\":7381:7459   */\n      tag_191\n      jump\t// in\n    tag_212:\n        /* \"#utility.yul\":7373:7459   */\n      swap1\n      pop\n        /* \"#utility.yul\":7507:7516   */\n      dup2\n        /* \"#utility.yul\":7501:7505   */\n      dup2\n        /* \"#utility.yul\":7497:7517   */\n      sub\n        /* \"#utility.yul\":7491:7494   */\n      0xa0\n        /* \"#utility.yul\":7480:7489   */\n      dup4\n        /* \"#utility.yul\":7476:7495   */\n      add\n        /* \"#utility.yul\":7469:7518   */\n      mstore\n        /* \"#utility.yul\":7535:7613   */\n      tag_213\n        /* \"#utility.yul\":7608:7612   */\n      dup2\n        /* \"#utility.yul\":7599:7605   */\n      dup6\n        /* \"#utility.yul\":7535:7613   */\n      tag_191\n      jump\t// in\n    tag_213:\n        /* \"#utility.yul\":7527:7613   */\n      swap1\n      pop\n        /* \"#utility.yul\":7623:7696   */\n      tag_214\n        /* \"#utility.yul\":7691:7694   */\n      0xc0\n        /* \"#utility.yul\":7680:7689   */\n      dup4\n        /* \"#utility.yul\":7676:7695   */\n      add\n        /* \"#utility.yul\":7667:7673   */\n      dup5\n        /* \"#utility.yul\":7623:7696   */\n      tag_178\n      jump\t// in\n    tag_214:\n        /* \"#utility.yul\":6271:7703   */\n      swap9\n      swap8\n      pop\n      pop\n      pop\n      pop\n      pop\n      pop\n      pop\n      pop\n      jump\t// out\n        /* \"#utility.yul\":7709:8058   */\n    tag_12:\n        /* \"#utility.yul\":7840:7844   */\n      0x00\n        /* \"#utility.yul\":7878:7880   */\n      0x20\n        /* \"#utility.yul\":7867:7876   */\n      dup3\n        /* \"#utility.yul\":7863:7881   */\n      add\n        /* \"#utility.yul\":7855:7881   */\n      swap1\n      pop\n        /* \"#utility.yul\":7927:7936   */\n      dup2\n        /* \"#utility.yul\":7921:7925   */\n      dup2\n        /* \"#utility.yul\":7917:7937   */\n      sub\n        /* \"#utility.yul\":7913:7914   */\n      0x00\n        /* \"#utility.yul\":7902:7911   */\n      dup4\n        /* \"#utility.yul\":7898:7915   */\n      add\n        /* \"#utility.yul\":7891:7938   */\n      mstore\n        /* \"#utility.yul\":7955:8051   */\n      tag_216\n        /* \"#utility.yul\":8046:8050   */\n      dup2\n        /* \"#utility.yul\":8037:8043   */\n      dup5\n        /* \"#utility.yul\":7955:8051   */\n      tag_198\n      jump\t// in\n    tag_216:\n        /* \"#utility.yul\":7947:8051   */\n      swap1\n      pop\n        /* \"#utility.yul\":7709:8058   */\n      swap3\n      swap2\n      pop\n      pop\n      jump\t// out\n        /* \"#utility.yul\":8064:8193   */\n    tag_131:\n        /* \"#utility.yul\":8098:8104   */\n      0x00\n        /* \"#utility.yul\":8125:8145   */\n      tag_218\n      tag_219\n      jump\t// in\n    tag_218:\n        /* \"#utility.yul\":8115:8145   */\n      swap1\n      pop\n        /* \"#utility.yul\":8154:8187   */\n      tag_220\n        /* \"#utility.yul\":8182:8186   */\n      dup3\n        /* \"#utility.yul\":8174:8180   */\n      dup3\n        /* \"#utility.yul\":8154:8187   */\n      tag_221\n      jump\t// in\n    tag_220:\n        /* \"#utility.yul\":8064:8193   */\n      swap2\n      swap1\n      pop\n      jump\t// out\n        /* \"#utility.yul\":8199:8274   */\n    tag_219:\n        /* \"#utility.yul\":8232:8238   */\n      0x00\n        /* \"#utility.yul\":8265:8267   */\n      0x40\n        /* \"#utility.yul\":8259:8268   */\n      mload\n        /* \"#utility.yul\":8249:8268   */\n      swap1\n      pop\n        /* \"#utility.yul\":8199:8274   */\n      swap1\n      jump\t// out\n        /* \"#utility.yul\":8280:8588   */\n    tag_130:\n        /* \"#utility.yul\":8342:8346   */\n      0x00\n        /* \"#utility.yul\":8432:8450   */\n      0xffffffffffffffff\n        /* \"#utility.yul\":8424:8430   */\n      dup3\n        /* \"#utility.yul\":8421:8451   */\n      gt\n        /* \"#utility.yul\":8418:8474   */\n      iszero\n      tag_224\n      jumpi\n        /* \"#utility.yul\":8454:8472   */\n      tag_225\n      tag_226\n      jump\t// in\n    tag_225:\n        /* \"#utility.yul\":8418:8474   */\n    tag_224:\n        /* \"#utility.yul\":8492:8521   */\n      tag_227\n        /* \"#utility.yul\":8514:8520   */\n      dup3\n        /* \"#utility.yul\":8492:8521   */\n      tag_190\n      jump\t// in\n    tag_227:\n        /* \"#utility.yul\":8484:8521   */\n      swap1\n      pop\n        /* \"#utility.yul\":8576:8580   */\n      0x20\n        /* \"#utility.yul\":8570:8574   */\n      dup2\n        /* \"#utility.yul\":8566:8581   */\n      add\n        /* \"#utility.yul\":8558:8581   */\n      swap1\n      pop\n        /* \"#utility.yul\":8280:8588   */\n      swap2\n      swap1\n      pop\n      jump\t// out\n        /* \"#utility.yul\":8594:8693   */\n    tag_184:\n        /* \"#utility.yul\":8646:8652   */\n      0x00\n        /* \"#utility.yul\":8680:8685   */\n      dup2\n        /* \"#utility.yul\":8674:8686   */\n      mload\n        /* \"#utility.yul\":8664:8686   */\n      swap1\n      pop\n        /* \"#utility.yul\":8594:8693   */\n      swap2\n      swap1\n      pop\n      jump\t// out\n        /* \"#utility.yul\":8699:8858   */\n    tag_186:\n        /* \"#utility.yul\":8773:8784   */\n      0x00\n        /* \"#utility.yul\":8807:8813   */\n      dup3\n        /* \"#utility.yul\":8802:8805   */\n      dup3\n        /* \"#utility.yul\":8795:8814   */\n      mstore\n        /* \"#utility.yul\":8847:8851   */\n      0x20\n        /* \"#utility.yul\":8842:8845   */\n      dup3\n        /* \"#utility.yul\":8838:8852   */\n      add\n        /* \"#utility.yul\":8823:8852   */\n      swap1\n      pop\n        /* \"#utility.yul\":8699:8858   */\n      swap3\n      swap2\n      pop\n      pop\n      jump\t// out\n        /* \"#utility.yul\":8864:9033   */\n    tag_195:\n        /* \"#utility.yul\":8948:8959   */\n      0x00\n        /* \"#utility.yul\":8982:8988   */\n      dup3\n        /* \"#utility.yul\":8977:8980   */\n      dup3\n        /* \"#utility.yul\":8970:8989   */\n      mstore\n        /* \"#utility.yul\":9022:9026   */\n      0x20\n        /* \"#utility.yul\":9017:9020   */\n      dup3\n        /* \"#utility.yul\":9013:9027   */\n      add\n        /* \"#utility.yul\":8998:9027   */\n      swap1\n      pop\n        /* \"#utility.yul\":8864:9033   */\n      swap3\n      swap2\n      pop\n      pop\n      jump\t// out\n        /* \"#utility.yul\":9039:9135   */\n    tag_177:\n        /* \"#utility.yul\":9076:9083   */\n      0x00\n        /* \"#utility.yul\":9105:9129   */\n      tag_232\n        /* \"#utility.yul\":9123:9128   */\n      dup3\n        /* \"#utility.yul\":9105:9129   */\n      tag_233\n      jump\t// in\n    tag_232:\n        /* \"#utility.yul\":9094:9129   */\n      swap1\n      pop\n        /* \"#utility.yul\":9039:9135   */\n      swap2\n      swap1\n      pop\n      jump\t// out\n        /* \"#utility.yul\":9141:9267   */\n    tag_233:\n        /* \"#utility.yul\":9178:9185   */\n      0x00\n        /* \"#utility.yul\":9218:9260   */\n      0xffffffffffffffffffffffffffffffffffffffff\n        /* \"#utility.yul\":9211:9216   */\n      dup3\n        /* \"#utility.yul\":9207:9261   */\n      and\n        /* \"#utility.yul\":9196:9261   */\n      swap1\n      pop\n        /* \"#utility.yul\":9141:9267   */\n      swap2\n      swap1\n      pop\n      jump\t// out\n        /* \"#utility.yul\":9273:9427   */\n    tag_136:\n        /* \"#utility.yul\":9357:9363   */\n      dup3\n        /* \"#utility.yul\":9352:9355   */\n      dup2\n        /* \"#utility.yul\":9347:9350   */\n      dup4\n        /* \"#utility.yul\":9334:9364   */\n      calldatacopy\n        /* \"#utility.yul\":9419:9420   */\n      0x00\n        /* \"#utility.yul\":9410:9416   */\n      dup4\n        /* \"#utility.yul\":9405:9408   */\n      dup4\n        /* \"#utility.yul\":9401:9417   */\n      add\n        /* \"#utility.yul\":9394:9421   */\n      mstore\n        /* \"#utility.yul\":9273:9427   */\n      pop\n      pop\n      pop\n      jump\t// out\n        /* \"#utility.yul\":9433:9740   */\n    tag_188:\n        /* \"#utility.yul\":9501:9502   */\n      0x00\n        /* \"#utility.yul\":9511:9624   */\n    tag_237:\n        /* \"#utility.yul\":9525:9531   */\n      dup4\n        /* \"#utility.yul\":9522:9523   */\n      dup2\n        /* \"#utility.yul\":9519:9532   */\n      lt\n        /* \"#utility.yul\":9511:9624   */\n      iszero\n      tag_239\n      jumpi\n        /* \"#utility.yul\":9610:9611   */\n      dup1\n        /* \"#utility.yul\":9605:9608   */\n      dup3\n        /* \"#utility.yul\":9601:9612   */\n      add\n        /* \"#utility.yul\":9595:9613   */\n      mload\n        /* \"#utility.yul\":9591:9592   */\n      dup2\n        /* \"#utility.yul\":9586:9589   */\n      dup5\n        /* \"#utility.yul\":9582:9593   */\n      add\n        /* \"#utility.yul\":9575:9614   */\n      mstore\n        /* \"#utility.yul\":9547:9549   */\n      0x20\n        /* \"#utility.yul\":9544:9545   */\n      dup2\n        /* \"#utility.yul\":9540:9550   */\n      add\n        /* \"#utility.yul\":9535:9550   */\n      swap1\n      pop\n        /* \"#utility.yul\":9511:9624   */\n      jump(tag_237)\n    tag_239:\n        /* \"#utility.yul\":9642:9648   */\n      dup4\n        /* \"#utility.yul\":9639:9640   */\n      dup2\n        /* \"#utility.yul\":9636:9649   */\n      gt\n        /* \"#utility.yul\":9633:9734   */\n      iszero\n      tag_240\n      jumpi\n        /* \"#utility.yul\":9722:9723   */\n      0x00\n        /* \"#utility.yul\":9713:9719   */\n      dup5\n        /* \"#utility.yul\":9708:9711   */\n      dup5\n        /* \"#utility.yul\":9704:9720   */\n      add\n        /* \"#utility.yul\":9697:9724   */\n      mstore\n        /* \"#utility.yul\":9633:9734   */\n    tag_240:\n        /* \"#utility.yul\":9482:9740   */\n      pop\n        /* \"#utility.yul\":9433:9740   */\n      pop\n      pop\n      pop\n      jump\t// out\n        /* \"#utility.yul\":9746:10066   */\n    tag_28:\n        /* \"#utility.yul\":9790:9796   */\n      0x00\n        /* \"#utility.yul\":9827:9828   */\n      0x02\n        /* \"#utility.yul\":9821:9825   */\n      dup3\n        /* \"#utility.yul\":9817:9829   */\n      div\n        /* \"#utility.yul\":9807:9829   */\n      swap1\n      pop\n        /* \"#utility.yul\":9874:9875   */\n      0x01\n        /* \"#utility.yul\":9868:9872   */\n      dup3\n        /* \"#utility.yul\":9864:9876   */\n      and\n        /* \"#utility.yul\":9895:9913   */\n      dup1\n        /* \"#utility.yul\":9885:9966   */\n      tag_242\n      jumpi\n        /* \"#utility.yul\":9951:9955   */\n      0x7f\n        /* \"#utility.yul\":9943:9949   */\n      dup3\n        /* \"#utility.yul\":9939:9956   */\n      and\n        /* \"#utility.yul\":9929:9956   */\n      swap2\n      pop\n        /* \"#utility.yul\":9885:9966   */\n    tag_242:\n        /* \"#utility.yul\":10013:10015   */\n      0x20\n        /* \"#utility.yul\":10005:10011   */\n      dup3\n        /* \"#utility.yul\":10002:10016   */\n      lt\n        /* \"#utility.yul\":9982:10000   */\n      dup2\n        /* \"#utility.yul\":9979:10017   */\n      eq\n        /* \"#utility.yul\":9976:10060   */\n      iszero\n      tag_243\n      jumpi\n        /* \"#utility.yul\":10032:10050   */\n      tag_244\n      tag_245\n      jump\t// in\n    tag_244:\n        /* \"#utility.yul\":9976:10060   */\n    tag_243:\n        /* \"#utility.yul\":9797:10066   */\n      pop\n        /* \"#utility.yul\":9746:10066   */\n      swap2\n      swap1\n      pop\n      jump\t// out\n        /* \"#utility.yul\":10072:10353   */\n    tag_221:\n        /* \"#utility.yul\":10155:10182   */\n      tag_247\n        /* \"#utility.yul\":10177:10181   */\n      dup3\n        /* \"#utility.yul\":10155:10182   */\n      tag_190\n      jump\t// in\n    tag_247:\n        /* \"#utility.yul\":10147:10153   */\n      dup2\n        /* \"#utility.yul\":10143:10183   */\n      add\n        /* \"#utility.yul\":10285:10291   */\n      dup2\n        /* \"#utility.yul\":10273:10283   */\n      dup2\n        /* \"#utility.yul\":10270:10292   */\n      lt\n        /* \"#utility.yul\":10249:10267   */\n      0xffffffffffffffff\n        /* \"#utility.yul\":10237:10247   */\n      dup3\n        /* \"#utility.yul\":10234:10268   */\n      gt\n        /* \"#utility.yul\":10231:10293   */\n      or\n        /* \"#utility.yul\":10228:10316   */\n      iszero\n      tag_248\n      jumpi\n        /* \"#utility.yul\":10296:10314   */\n      tag_249\n      tag_226\n      jump\t// in\n    tag_249:\n        /* \"#utility.yul\":10228:10316   */\n    tag_248:\n        /* \"#utility.yul\":10336:10346   */\n      dup1\n        /* \"#utility.yul\":10332:10334   */\n      0x40\n        /* \"#utility.yul\":10325:10347   */\n      mstore\n        /* \"#utility.yul\":10115:10353   */\n      pop\n        /* \"#utility.yul\":10072:10353   */\n      pop\n      pop\n      jump\t// out\n        /* \"#utility.yul\":10359:10539   */\n    tag_245:\n        /* \"#utility.yul\":10407:10484   */\n      0x4e487b7100000000000000000000000000000000000000000000000000000000\n        /* \"#utility.yul\":10404:10405   */\n      0x00\n        /* \"#utility.yul\":10397:10485   */\n      mstore\n        /* \"#utility.yul\":10504:10508   */\n      0x22\n        /* \"#utility.yul\":10501:10502   */\n      0x04\n        /* \"#utility.yul\":10494:10509   */\n      mstore\n        /* \"#utility.yul\":10528:10532   */\n      0x24\n        /* \"#utility.yul\":10525:10526   */\n      0x00\n        /* \"#utility.yul\":10518:10533   */\n      revert\n        /* \"#utility.yul\":10545:10725   */\n    tag_226:\n        /* \"#utility.yul\":10593:10670   */\n      0x4e487b7100000000000000000000000000000000000000000000000000000000\n        /* \"#utility.yul\":10590:10591   */\n      0x00\n        /* \"#utility.yul\":10583:10671   */\n      mstore\n        /* \"#utility.yul\":10690:10694   */\n      0x41\n        /* \"#utility.yul\":10687:10688   */\n      0x04\n        /* \"#utility.yul\":10680:10695   */\n      mstore\n        /* \"#utility.yul\":10714:10718   */\n      0x24\n        /* \"#utility.yul\":10711:10712   */\n      0x00\n        /* \"#utility.yul\":10704:10719   */\n      revert\n        /* \"#utility.yul\":10731:10848   */\n    tag_145:\n        /* \"#utility.yul\":10840:10841   */\n      0x00\n        /* \"#utility.yul\":10837:10838   */\n      dup1\n        /* \"#utility.yul\":10830:10842   */\n      revert\n        /* \"#utility.yul\":10854:10971   */\n    tag_134:\n        /* \"#utility.yul\":10963:10964   */\n      0x00\n        /* \"#utility.yul\":10960:10961   */\n      dup1\n        /* \"#utility.yul\":10953:10965   */\n      revert\n        /* \"#utility.yul\":10977:11094   */\n    tag_157:\n        /* \"#utility.yul\":11086:11087   */\n      0x00\n        /* \"#utility.yul\":11083:11084   */\n      dup1\n        /* \"#utility.yul\":11076:11088   */\n      revert\n        /* \"#utility.yul\":11100:11217   */\n    tag_150:\n        /* \"#utility.yul\":11209:11210   */\n      0x00\n        /* \"#utility.yul\":11206:11207   */\n      dup1\n        /* \"#utility.yul\":11199:11211   */\n      revert\n        /* \"#utility.yul\":11223:11325   */\n    tag_190:\n        /* \"#utility.yul\":11264:11270   */\n      0x00\n        /* \"#utility.yul\":11315:11317   */\n      0x1f\n        /* \"#utility.yul\":11311:11318   */\n      not\n        /* \"#utility.yul\":11306:11308   */\n      0x1f\n        /* \"#utility.yul\":11299:11304   */\n      dup4\n        /* \"#utility.yul\":11295:11309   */\n      add\n        /* \"#utility.yul\":11291:11319   */\n      and\n        /* \"#utility.yul\":11281:11319   */\n      swap1\n      pop\n        /* \"#utility.yul\":11223:11325   */\n      swap2\n      swap1\n      pop\n      jump\t// out\n        /* \"#utility.yul\":11331:11453   */\n    tag_140:\n        /* \"#utility.yul\":11404:11428   */\n      tag_258\n        /* \"#utility.yul\":11422:11427   */\n      dup2\n        /* \"#utility.yul\":11404:11428   */\n      tag_177\n      jump\t// in\n    tag_258:\n        /* \"#utility.yul\":11397:11402   */\n      dup2\n        /* \"#utility.yul\":11394:11429   */\n      eq\n        /* \"#utility.yul\":11384:11447   */\n      tag_259\n      jumpi\n        /* \"#utility.yul\":11443:11444   */\n      0x00\n        /* \"#utility.yul\":11440:11441   */\n      dup1\n        /* \"#utility.yul\":11433:11445   */\n      revert\n        /* \"#utility.yul\":11384:11447   */\n    tag_259:\n        /* \"#utility.yul\":11331:11453   */\n      pop\n      jump\t// out\n\n    auxdata: 0xa2646970667358221220043b7c0d73858ad15f52b43eae536ff61d11bd72b4a23e5234aeeecdba09fdac64736f6c63430008070033\n}\n",
				"bytecode": {
					"linkReferences": {},
					"object": "608060405234801561001057600080fd5b5061148e806100206000396000f3fe608060405234801561001057600080fd5b506004361061004c5760003560e01c80633fd0bf1714610051578063721041af146100815780639dd9d0fd1461009d578063fabce08f146100d3575b600080fd5b61006b60048036038101906100669190610ef8565b6100dd565b6040516100789190611242565b60405180910390f35b61009b60048036038101906100969190610f25565b6104f7565b005b6100b760048036038101906100b29190610ef8565b6108e1565b6040516100ca97969594939291906111a9565b60405180910390f35b6100db610c73565b005b6100e5610d3d565b6000808373ffffffffffffffffffffffffffffffffffffffff1673ffffffffffffffffffffffffffffffffffffffff1681526020019081526020016000206040518060e001604052908160008201805461013e9061135b565b80601f016020809104026020016040519081016040528092919081815260200182805461016a9061135b565b80156101b75780601f1061018c576101008083540402835291602001916101b7565b820191906000526020600020905b81548152906001019060200180831161019a57829003601f168201915b505050505081526020016001820180546101d09061135b565b80601f01602080910402602001604051908101604052809291908181526020018280546101fc9061135b565b80156102495780601f1061021e57610100808354040283529160200191610249565b820191906000526020600020905b81548152906001019060200180831161022c57829003601f168201915b505050505081526020016002820180546102629061135b565b80601f016020809104026020016040519081016040528092919081815260200182805461028e9061135b565b80156102db5780601f106102b0576101008083540402835291602001916102db565b820191906000526020600020905b8154815290600101906020018083116102be57829003601f168201915b505050505081526020016003820180546102f49061135b565b80601f01602080910402602001604051908101604052809291908181526020018280546103209061135b565b801561036d5780601f106103425761010080835404028352916020019161036d565b820191906000526020600020905b81548152906001019060200180831161035057829003601f168201915b505050505081526020016004820180546103869061135b565b80601f01602080910402602001604051908101604052809291908181526020018280546103b29061135b565b80156103ff5780601f106103d4576101008083540402835291602001916103ff565b820191906000526020600020905b8154815290600101906020018083116103e257829003601f168201915b505050505081526020016005820180546104189061135b565b80601f01602080910402602001604051908101604052809291908181526020018280546104449061135b565b80156104915780601f1061046657610100808354040283529160200191610491565b820191906000526020600020905b81548152906001019060200180831161047457829003601f168201915b505050505081526020016006820160009054906101000a900473ffffffffffffffffffffffffffffffffffffffff1673ffffffffffffffffffffffffffffffffffffffff1673ffffffffffffffffffffffffffffffffffffffff16815250509050919050565b6000803373ffffffffffffffffffffffffffffffffffffffff1673ffffffffffffffffffffffffffffffffffffffff16815260200190815260200160002060060160009054906101000a900473ffffffffffffffffffffffffffffffffffffffff1673ffffffffffffffffffffffffffffffffffffffff163373ffffffffffffffffffffffffffffffffffffffff161415610655576000803373ffffffffffffffffffffffffffffffffffffffff1673ffffffffffffffffffffffffffffffffffffffff168152602001908152602001600020600080820160006105db9190610d90565b6001820160006105eb9190610d90565b6002820160006105fb9190610d90565b60038201600061060b9190610d90565b60048201600061061b9190610d90565b60058201600061062b9190610d90565b6006820160006101000a81549073ffffffffffffffffffffffffffffffffffffffff021916905550505b856000803373ffffffffffffffffffffffffffffffffffffffff1673ffffffffffffffffffffffffffffffffffffffff16815260200190815260200160002060000190805190602001906106aa929190610dd0565b50846000803373ffffffffffffffffffffffffffffffffffffffff1673ffffffffffffffffffffffffffffffffffffffff1681526020019081526020016000206001019080519060200190610700929190610dd0565b50836000803373ffffffffffffffffffffffffffffffffffffffff1673ffffffffffffffffffffffffffffffffffffffff1681526020019081526020016000206002019080519060200190610756929190610dd0565b50826000803373ffffffffffffffffffffffffffffffffffffffff1673ffffffffffffffffffffffffffffffffffffffff16815260200190815260200160002060030190805190602001906107ac929190610dd0565b50816000803373ffffffffffffffffffffffffffffffffffffffff1673ffffffffffffffffffffffffffffffffffffffff1681526020019081526020016000206004019080519060200190610802929190610dd0565b50806000803373ffffffffffffffffffffffffffffffffffffffff1673ffffffffffffffffffffffffffffffffffffffff1681526020019081526020016000206005019080519060200190610858929190610dd0565b50336000803373ffffffffffffffffffffffffffffffffffffffff1673ffffffffffffffffffffffffffffffffffffffff16815260200190815260200160002060060160006101000a81548173ffffffffffffffffffffffffffffffffffffffff021916908373ffffffffffffffffffffffffffffffffffffffff160217905550505050505050565b60006020528060005260406000206000915090508060000180546109049061135b565b80601f01602080910402602001604051908101604052809291908181526020018280546109309061135b565b801561097d5780601f106109525761010080835404028352916020019161097d565b820191906000526020600020905b81548152906001019060200180831161096057829003601f168201915b5050505050908060010180546109929061135b565b80601f01602080910402602001604051908101604052809291908181526020018280546109be9061135b565b8015610a0b5780601f106109e057610100808354040283529160200191610a0b565b820191906000526020600020905b8154815290600101906020018083116109ee57829003601f168201915b505050505090806002018054610a209061135b565b80601f0160208091040260200160405190810160405280929190818152602001828054610a4c9061135b565b8015610a995780601f10610a6e57610100808354040283529160200191610a99565b820191906000526020600020905b815481529060010190602001808311610a7c57829003601f168201915b505050505090806003018054610aae9061135b565b80601f0160208091040260200160405190810160405280929190818152602001828054610ada9061135b565b8015610b275780601f10610afc57610100808354040283529160200191610b27565b820191906000526020600020905b815481529060010190602001808311610b0a57829003601f168201915b505050505090806004018054610b3c9061135b565b80601f0160208091040260200160405190810160405280929190818152602001828054610b689061135b565b8015610bb55780601f10610b8a57610100808354040283529160200191610bb5565b820191906000526020600020905b815481529060010190602001808311610b9857829003601f168201915b505050505090806005018054610bca9061135b565b80601f0160208091040260200160405190810160405280929190818152602001828054610bf69061135b565b8015610c435780601f10610c1857610100808354040283529160200191610c43565b820191906000526020600020905b815481529060010190602001808311610c2657829003601f168201915b5050505050908060060160009054906101000a900473ffffffffffffffffffffffffffffffffffffffff16905087565b6000803373ffffffffffffffffffffffffffffffffffffffff1673ffffffffffffffffffffffffffffffffffffffff16815260200190815260200160002060008082016000610cc29190610d90565b600182016000610cd29190610d90565b600282016000610ce29190610d90565b600382016000610cf29190610d90565b600482016000610d029190610d90565b600582016000610d129190610d90565b6006820160006101000a81549073ffffffffffffffffffffffffffffffffffffffff02191690555050565b6040518060e00160405280606081526020016060815260200160608152602001606081526020016060815260200160608152602001600073ffffffffffffffffffffffffffffffffffffffff1681525090565b508054610d9c9061135b565b6000825580601f10610dae5750610dcd565b601f016020900490600052602060002090810190610dcc9190610e56565b5b50565b828054610ddc9061135b565b90600052602060002090601f016020900481019282610dfe5760008555610e45565b82601f10610e1757805160ff1916838001178555610e45565b82800160010185558215610e45579182015b82811115610e44578251825591602001919060010190610e29565b5b509050610e529190610e56565b5090565b5b80821115610e6f576000816000905550600101610e57565b5090565b6000610e86610e8184611289565b611264565b905082815260208101848484011115610ea257610ea1611421565b5b610ead848285611319565b509392505050565b600081359050610ec481611441565b92915050565b600082601f830112610edf57610ede61141c565b5b8135610eef848260208601610e73565b91505092915050565b600060208284031215610f0e57610f0d61142b565b5b6000610f1c84828501610eb5565b91505092915050565b60008060008060008060c08789031215610f4257610f4161142b565b5b600087013567ffffffffffffffff811115610f6057610f5f611426565b5b610f6c89828a01610eca565b965050602087013567ffffffffffffffff811115610f8d57610f8c611426565b5b610f9989828a01610eca565b955050604087013567ffffffffffffffff811115610fba57610fb9611426565b5b610fc689828a01610eca565b945050606087013567ffffffffffffffff811115610fe757610fe6611426565b5b610ff389828a01610eca565b935050608087013567ffffffffffffffff81111561101457611013611426565b5b61102089828a01610eca565b92505060a087013567ffffffffffffffff81111561104157611040611426565b5b61104d89828a01610eca565b9150509295509295509295565b611063816112e7565b82525050565b611072816112e7565b82525050565b6000611083826112ba565b61108d81856112c5565b935061109d818560208601611328565b6110a681611430565b840191505092915050565b60006110bc826112ba565b6110c681856112d6565b93506110d6818560208601611328565b6110df81611430565b840191505092915050565b600060e08301600083015184820360008601526111078282611078565b915050602083015184820360208601526111218282611078565b9150506040830151848203604086015261113b8282611078565b915050606083015184820360608601526111558282611078565b9150506080830151848203608086015261116f8282611078565b91505060a083015184820360a08601526111898282611078565b91505060c083015161119e60c086018261105a565b508091505092915050565b600060e08201905081810360008301526111c3818a6110b1565b905081810360208301526111d781896110b1565b905081810360408301526111eb81886110b1565b905081810360608301526111ff81876110b1565b9050818103608083015261121381866110b1565b905081810360a083015261122781856110b1565b905061123660c0830184611069565b98975050505050505050565b6000602082019050818103600083015261125c81846110ea565b905092915050565b600061126e61127f565b905061127a828261138d565b919050565b6000604051905090565b600067ffffffffffffffff8211156112a4576112a36113ed565b5b6112ad82611430565b9050602081019050919050565b600081519050919050565b600082825260208201905092915050565b600082825260208201905092915050565b60006112f2826112f9565b9050919050565b600073ffffffffffffffffffffffffffffffffffffffff82169050919050565b82818337600083830152505050565b60005b8381101561134657808201518184015260208101905061132b565b83811115611355576000848401525b50505050565b6000600282049050600182168061137357607f821691505b60208210811415611387576113866113be565b5b50919050565b61139682611430565b810181811067ffffffffffffffff821117156113b5576113b46113ed565b5b80604052505050565b7f4e487b7100000000000000000000000000000000000000000000000000000000600052602260045260246000fd5b7f4e487b7100000000000000000000000000000000000000000000000000000000600052604160045260246000fd5b600080fd5b600080fd5b600080fd5b600080fd5b6000601f19601f8301169050919050565b61144a816112e7565b811461145557600080fd5b5056fea2646970667358221220043b7c0d73858ad15f52b43eae536ff61d11bd72b4a23e5234aeeecdba09fdac64736f6c63430008070033",
					"opcodes": "PUSH1 0x80 PUSH1 0x40 MSTORE CALLVALUE DUP1 ISZERO PUSH2 0x10 JUMPI PUSH1 0x0 DUP1 REVERT JUMPDEST POP PUSH2 0x148E DUP1 PUSH2 0x20 PUSH1 0x0 CODECOPY PUSH1 0x0 RETURN INVALID PUSH1 0x80 PUSH1 0x40 MSTORE CALLVALUE DUP1 ISZERO PUSH2 0x10 JUMPI PUSH1 0x0 DUP1 REVERT JUMPDEST POP PUSH1 0x4 CALLDATASIZE LT PUSH2 0x4C JUMPI PUSH1 0x0 CALLDATALOAD PUSH1 0xE0 SHR DUP1 PUSH4 0x3FD0BF17 EQ PUSH2 0x51 JUMPI DUP1 PUSH4 0x721041AF EQ PUSH2 0x81 JUMPI DUP1 PUSH4 0x9DD9D0FD EQ PUSH2 0x9D JUMPI DUP1 PUSH4 0xFABCE08F EQ PUSH2 0xD3 JUMPI JUMPDEST PUSH1 0x0 DUP1 REVERT JUMPDEST PUSH2 0x6B PUSH1 0x4 DUP1 CALLDATASIZE SUB DUP2 ADD SWAP1 PUSH2 0x66 SWAP2 SWAP1 PUSH2 0xEF8 JUMP JUMPDEST PUSH2 0xDD JUMP JUMPDEST PUSH1 0x40 MLOAD PUSH2 0x78 SWAP2 SWAP1 PUSH2 0x1242 JUMP JUMPDEST PUSH1 0x40 MLOAD DUP1 SWAP2 SUB SWAP1 RETURN JUMPDEST PUSH2 0x9B PUSH1 0x4 DUP1 CALLDATASIZE SUB DUP2 ADD SWAP1 PUSH2 0x96 SWAP2 SWAP1 PUSH2 0xF25 JUMP JUMPDEST PUSH2 0x4F7 JUMP JUMPDEST STOP JUMPDEST PUSH2 0xB7 PUSH1 0x4 DUP1 CALLDATASIZE SUB DUP2 ADD SWAP1 PUSH2 0xB2 SWAP2 SWAP1 PUSH2 0xEF8 JUMP JUMPDEST PUSH2 0x8E1 JUMP JUMPDEST PUSH1 0x40 MLOAD PUSH2 0xCA SWAP8 SWAP7 SWAP6 SWAP5 SWAP4 SWAP3 SWAP2 SWAP1 PUSH2 0x11A9 JUMP JUMPDEST PUSH1 0x40 MLOAD DUP1 SWAP2 SUB SWAP1 RETURN JUMPDEST PUSH2 0xDB PUSH2 0xC73 JUMP JUMPDEST STOP JUMPDEST PUSH2 0xE5 PUSH2 0xD3D JUMP JUMPDEST PUSH1 0x0 DUP1 DUP4 PUSH20 0xFFFFFFFFFFFFFFFFFFFFFFFFFFFFFFFFFFFFFFFF AND PUSH20 0xFFFFFFFFFFFFFFFFFFFFFFFFFFFFFFFFFFFFFFFF AND DUP2 MSTORE PUSH1 0x20 ADD SWAP1 DUP2 MSTORE PUSH1 0x20 ADD PUSH1 0x0 KECCAK256 PUSH1 0x40 MLOAD DUP1 PUSH1 0xE0 ADD PUSH1 0x40 MSTORE SWAP1 DUP2 PUSH1 0x0 DUP3 ADD DUP1 SLOAD PUSH2 0x13E SWAP1 PUSH2 0x135B JUMP JUMPDEST DUP1 PUSH1 0x1F ADD PUSH1 0x20 DUP1 SWAP2 DIV MUL PUSH1 0x20 ADD PUSH1 0x40 MLOAD SWAP1 DUP2 ADD PUSH1 0x40 MSTORE DUP1 SWAP3 SWAP2 SWAP1 DUP2 DUP2 MSTORE PUSH1 0x20 ADD DUP3 DUP1 SLOAD PUSH2 0x16A SWAP1 PUSH2 0x135B JUMP JUMPDEST DUP1 ISZERO PUSH2 0x1B7 JUMPI DUP1 PUSH1 0x1F LT PUSH2 0x18C JUMPI PUSH2 0x100 DUP1 DUP4 SLOAD DIV MUL DUP4 MSTORE SWAP2 PUSH1 0x20 ADD SWAP2 PUSH2 0x1B7 JUMP JUMPDEST DUP3 ADD SWAP2 SWAP1 PUSH1 0x0 MSTORE PUSH1 0x20 PUSH1 0x0 KECCAK256 SWAP1 JUMPDEST DUP2 SLOAD DUP2 MSTORE SWAP1 PUSH1 0x1 ADD SWAP1 PUSH1 0x20 ADD DUP1 DUP4 GT PUSH2 0x19A JUMPI DUP3 SWAP1 SUB PUSH1 0x1F AND DUP3 ADD SWAP2 JUMPDEST POP POP POP POP POP DUP2 MSTORE PUSH1 0x20 ADD PUSH1 0x1 DUP3 ADD DUP1 SLOAD PUSH2 0x1D0 SWAP1 PUSH2 0x135B JUMP JUMPDEST DUP1 PUSH1 0x1F ADD PUSH1 0x20 DUP1 SWAP2 DIV MUL PUSH1 0x20 ADD PUSH1 0x40 MLOAD SWAP1 DUP2 ADD PUSH1 0x40 MSTORE DUP1 SWAP3 SWAP2 SWAP1 DUP2 DUP2 MSTORE PUSH1 0x20 ADD DUP3 DUP1 SLOAD PUSH2 0x1FC SWAP1 PUSH2 0x135B JUMP JUMPDEST DUP1 ISZERO PUSH2 0x249 JUMPI DUP1 PUSH1 0x1F LT PUSH2 0x21E JUMPI PUSH2 0x100 DUP1 DUP4 SLOAD DIV MUL DUP4 MSTORE SWAP2 PUSH1 0x20 ADD SWAP2 PUSH2 0x249 JUMP JUMPDEST DUP3 ADD SWAP2 SWAP1 PUSH1 0x0 MSTORE PUSH1 0x20 PUSH1 0x0 KECCAK256 SWAP1 JUMPDEST DUP2 SLOAD DUP2 MSTORE SWAP1 PUSH1 0x1 ADD SWAP1 PUSH1 0x20 ADD DUP1 DUP4 GT PUSH2 0x22C JUMPI DUP3 SWAP1 SUB PUSH1 0x1F AND DUP3 ADD SWAP2 JUMPDEST POP POP POP POP POP DUP2 MSTORE PUSH1 0x20 ADD PUSH1 0x2 DUP3 ADD DUP1 SLOAD PUSH2 0x262 SWAP1 PUSH2 0x135B JUMP JUMPDEST DUP1 PUSH1 0x1F ADD PUSH1 0x20 DUP1 SWAP2 DIV MUL PUSH1 0x20 ADD PUSH1 0x40 MLOAD SWAP1 DUP2 ADD PUSH1 0x40 MSTORE DUP1 SWAP3 SWAP2 SWAP1 DUP2 DUP2 MSTORE PUSH1 0x20 ADD DUP3 DUP1 SLOAD PUSH2 0x28E SWAP1 PUSH2 0x135B JUMP JUMPDEST DUP1 ISZERO PUSH2 0x2DB JUMPI DUP1 PUSH1 0x1F LT PUSH2 0x2B0 JUMPI PUSH2 0x100 DUP1 DUP4 SLOAD DIV MUL DUP4 MSTORE SWAP2 PUSH1 0x20 ADD SWAP2 PUSH2 0x2DB JUMP JUMPDEST DUP3 ADD SWAP2 SWAP1 PUSH1 0x0 MSTORE PUSH1 0x20 PUSH1 0x0 KECCAK256 SWAP1 JUMPDEST DUP2 SLOAD DUP2 MSTORE SWAP1 PUSH1 0x1 ADD SWAP1 PUSH1 0x20 ADD DUP1 DUP4 GT PUSH2 0x2BE JUMPI DUP3 SWAP1 SUB PUSH1 0x1F AND DUP3 ADD SWAP2 JUMPDEST POP POP POP POP POP DUP2 MSTORE PUSH1 0x20 ADD PUSH1 0x3 DUP3 ADD DUP1 SLOAD PUSH2 0x2F4 SWAP1 PUSH2 0x135B JUMP JUMPDEST DUP1 PUSH1 0x1F ADD PUSH1 0x20 DUP1 SWAP2 DIV MUL PUSH1 0x20 ADD PUSH1 0x40 MLOAD SWAP1 DUP2 ADD PUSH1 0x40 MSTORE DUP1 SWAP3 SWAP2 SWAP1 DUP2 DUP2 MSTORE PUSH1 0x20 ADD DUP3 DUP1 SLOAD PUSH2 0x320 SWAP1 PUSH2 0x135B JUMP JUMPDEST DUP1 ISZERO PUSH2 0x36D JUMPI DUP1 PUSH1 0x1F LT PUSH2 0x342 JUMPI PUSH2 0x100 DUP1 DUP4 SLOAD DIV MUL DUP4 MSTORE SWAP2 PUSH1 0x20 ADD SWAP2 PUSH2 0x36D JUMP JUMPDEST DUP3 ADD SWAP2 SWAP1 PUSH1 0x0 MSTORE PUSH1 0x20 PUSH1 0x0 KECCAK256 SWAP1 JUMPDEST DUP2 SLOAD DUP2 MSTORE SWAP1 PUSH1 0x1 ADD SWAP1 PUSH1 0x20 ADD DUP1 DUP4 GT PUSH2 0x350 JUMPI DUP3 SWAP1 SUB PUSH1 0x1F AND DUP3 ADD SWAP2 JUMPDEST POP POP POP POP POP DUP2 MSTORE PUSH1 0x20 ADD PUSH1 0x4 DUP3 ADD DUP1 SLOAD PUSH2 0x386 SWAP1 PUSH2 0x135B JUMP JUMPDEST DUP1 PUSH1 0x1F ADD PUSH1 0x20 DUP1 SWAP2 DIV MUL PUSH1 0x20 ADD PUSH1 0x40 MLOAD SWAP1 DUP2 ADD PUSH1 0x40 MSTORE DUP1 SWAP3 SWAP2 SWAP1 DUP2 DUP2 MSTORE PUSH1 0x20 ADD DUP3 DUP1 SLOAD PUSH2 0x3B2 SWAP1 PUSH2 0x135B JUMP JUMPDEST DUP1 ISZERO PUSH2 0x3FF JUMPI DUP1 PUSH1 0x1F LT PUSH2 0x3D4 JUMPI PUSH2 0x100 DUP1 DUP4 SLOAD DIV MUL DUP4 MSTORE SWAP2 PUSH1 0x20 ADD SWAP2 PUSH2 0x3FF JUMP JUMPDEST DUP3 ADD SWAP2 SWAP1 PUSH1 0x0 MSTORE PUSH1 0x20 PUSH1 0x0 KECCAK256 SWAP1 JUMPDEST DUP2 SLOAD DUP2 MSTORE SWAP1 PUSH1 0x1 ADD SWAP1 PUSH1 0x20 ADD DUP1 DUP4 GT PUSH2 0x3E2 JUMPI DUP3 SWAP1 SUB PUSH1 0x1F AND DUP3 ADD SWAP2 JUMPDEST POP POP POP POP POP DUP2 MSTORE PUSH1 0x20 ADD PUSH1 0x5 DUP3 ADD DUP1 SLOAD PUSH2 0x418 SWAP1 PUSH2 0x135B JUMP JUMPDEST DUP1 PUSH1 0x1F ADD PUSH1 0x20 DUP1 SWAP2 DIV MUL PUSH1 0x20 ADD PUSH1 0x40 MLOAD SWAP1 DUP2 ADD PUSH1 0x40 MSTORE DUP1 SWAP3 SWAP2 SWAP1 DUP2 DUP2 MSTORE PUSH1 0x20 ADD DUP3 DUP1 SLOAD PUSH2 0x444 SWAP1 PUSH2 0x135B JUMP JUMPDEST DUP1 ISZERO PUSH2 0x491 JUMPI DUP1 PUSH1 0x1F LT PUSH2 0x466 JUMPI PUSH2 0x100 DUP1 DUP4 SLOAD DIV MUL DUP4 MSTORE SWAP2 PUSH1 0x20 ADD SWAP2 PUSH2 0x491 JUMP JUMPDEST DUP3 ADD SWAP2 SWAP1 PUSH1 0x0 MSTORE PUSH1 0x20 PUSH1 0x0 KECCAK256 SWAP1 JUMPDEST DUP2 SLOAD DUP2 MSTORE SWAP1 PUSH1 0x1 ADD SWAP1 PUSH1 0x20 ADD DUP1 DUP4 GT PUSH2 0x474 JUMPI DUP3 SWAP1 SUB PUSH1 0x1F AND DUP3 ADD SWAP2 JUMPDEST POP POP POP POP POP DUP2 MSTORE PUSH1 0x20 ADD PUSH1 0x6 DUP3 ADD PUSH1 0x0 SWAP1 SLOAD SWAP1 PUSH2 0x100 EXP SWAP1 DIV PUSH20 0xFFFFFFFFFFFFFFFFFFFFFFFFFFFFFFFFFFFFFFFF AND PUSH20 0xFFFFFFFFFFFFFFFFFFFFFFFFFFFFFFFFFFFFFFFF AND PUSH20 0xFFFFFFFFFFFFFFFFFFFFFFFFFFFFFFFFFFFFFFFF AND DUP2 MSTORE POP POP SWAP1 POP SWAP2 SWAP1 POP JUMP JUMPDEST PUSH1 0x0 DUP1 CALLER PUSH20 0xFFFFFFFFFFFFFFFFFFFFFFFFFFFFFFFFFFFFFFFF AND PUSH20 0xFFFFFFFFFFFFFFFFFFFFFFFFFFFFFFFFFFFFFFFF AND DUP2 MSTORE PUSH1 0x20 ADD SWAP1 DUP2 MSTORE PUSH1 0x20 ADD PUSH1 0x0 KECCAK256 PUSH1 0x6 ADD PUSH1 0x0 SWAP1 SLOAD SWAP1 PUSH2 0x100 EXP SWAP1 DIV PUSH20 0xFFFFFFFFFFFFFFFFFFFFFFFFFFFFFFFFFFFFFFFF AND PUSH20 0xFFFFFFFFFFFFFFFFFFFFFFFFFFFFFFFFFFFFFFFF AND CALLER PUSH20 0xFFFFFFFFFFFFFFFFFFFFFFFFFFFFFFFFFFFFFFFF AND EQ ISZERO PUSH2 0x655 JUMPI PUSH1 0x0 DUP1 CALLER PUSH20 0xFFFFFFFFFFFFFFFFFFFFFFFFFFFFFFFFFFFFFFFF AND PUSH20 0xFFFFFFFFFFFFFFFFFFFFFFFFFFFFFFFFFFFFFFFF AND DUP2 MSTORE PUSH1 0x20 ADD SWAP1 DUP2 MSTORE PUSH1 0x20 ADD PUSH1 0x0 KECCAK256 PUSH1 0x0 DUP1 DUP3 ADD PUSH1 0x0 PUSH2 0x5DB SWAP2 SWAP1 PUSH2 0xD90 JUMP JUMPDEST PUSH1 0x1 DUP3 ADD PUSH1 0x0 PUSH2 0x5EB SWAP2 SWAP1 PUSH2 0xD90 JUMP JUMPDEST PUSH1 0x2 DUP3 ADD PUSH1 0x0 PUSH2 0x5FB SWAP2 SWAP1 PUSH2 0xD90 JUMP JUMPDEST PUSH1 0x3 DUP3 ADD PUSH1 0x0 PUSH2 0x60B SWAP2 SWAP1 PUSH2 0xD90 JUMP JUMPDEST PUSH1 0x4 DUP3 ADD PUSH1 0x0 PUSH2 0x61B SWAP2 SWAP1 PUSH2 0xD90 JUMP JUMPDEST PUSH1 0x5 DUP3 ADD PUSH1 0x0 PUSH2 0x62B SWAP2 SWAP1 PUSH2 0xD90 JUMP JUMPDEST PUSH1 0x6 DUP3 ADD PUSH1 0x0 PUSH2 0x100 EXP DUP2 SLOAD SWAP1 PUSH20 0xFFFFFFFFFFFFFFFFFFFFFFFFFFFFFFFFFFFFFFFF MUL NOT AND SWAP1 SSTORE POP POP JUMPDEST DUP6 PUSH1 0x0 DUP1 CALLER PUSH20 0xFFFFFFFFFFFFFFFFFFFFFFFFFFFFFFFFFFFFFFFF AND PUSH20 0xFFFFFFFFFFFFFFFFFFFFFFFFFFFFFFFFFFFFFFFF AND DUP2 MSTORE PUSH1 0x20 ADD SWAP1 DUP2 MSTORE PUSH1 0x20 ADD PUSH1 0x0 KECCAK256 PUSH1 0x0 ADD SWAP1 DUP1 MLOAD SWAP1 PUSH1 0x20 ADD SWAP1 PUSH2 0x6AA SWAP3 SWAP2 SWAP1 PUSH2 0xDD0 JUMP JUMPDEST POP DUP5 PUSH1 0x0 DUP1 CALLER PUSH20 0xFFFFFFFFFFFFFFFFFFFFFFFFFFFFFFFFFFFFFFFF AND PUSH20 0xFFFFFFFFFFFFFFFFFFFFFFFFFFFFFFFFFFFFFFFF AND DUP2 MSTORE PUSH1 0x20 ADD SWAP1 DUP2 MSTORE PUSH1 0x20 ADD PUSH1 0x0 KECCAK256 PUSH1 0x1 ADD SWAP1 DUP1 MLOAD SWAP1 PUSH1 0x20 ADD SWAP1 PUSH2 0x700 SWAP3 SWAP2 SWAP1 PUSH2 0xDD0 JUMP JUMPDEST POP DUP4 PUSH1 0x0 DUP1 CALLER PUSH20 0xFFFFFFFFFFFFFFFFFFFFFFFFFFFFFFFFFFFFFFFF AND PUSH20 0xFFFFFFFFFFFFFFFFFFFFFFFFFFFFFFFFFFFFFFFF AND DUP2 MSTORE PUSH1 0x20 ADD SWAP1 DUP2 MSTORE PUSH1 0x20 ADD PUSH1 0x0 KECCAK256 PUSH1 0x2 ADD SWAP1 DUP1 MLOAD SWAP1 PUSH1 0x20 ADD SWAP1 PUSH2 0x756 SWAP3 SWAP2 SWAP1 PUSH2 0xDD0 JUMP JUMPDEST POP DUP3 PUSH1 0x0 DUP1 CALLER PUSH20 0xFFFFFFFFFFFFFFFFFFFFFFFFFFFFFFFFFFFFFFFF AND PUSH20 0xFFFFFFFFFFFFFFFFFFFFFFFFFFFFFFFFFFFFFFFF AND DUP2 MSTORE PUSH1 0x20 ADD SWAP1 DUP2 MSTORE PUSH1 0x20 ADD PUSH1 0x0 KECCAK256 PUSH1 0x3 ADD SWAP1 DUP1 MLOAD SWAP1 PUSH1 0x20 ADD SWAP1 PUSH2 0x7AC SWAP3 SWAP2 SWAP1 PUSH2 0xDD0 JUMP JUMPDEST POP DUP2 PUSH1 0x0 DUP1 CALLER PUSH20 0xFFFFFFFFFFFFFFFFFFFFFFFFFFFFFFFFFFFFFFFF AND PUSH20 0xFFFFFFFFFFFFFFFFFFFFFFFFFFFFFFFFFFFFFFFF AND DUP2 MSTORE PUSH1 0x20 ADD SWAP1 DUP2 MSTORE PUSH1 0x20 ADD PUSH1 0x0 KECCAK256 PUSH1 0x4 ADD SWAP1 DUP1 MLOAD SWAP1 PUSH1 0x20 ADD SWAP1 PUSH2 0x802 SWAP3 SWAP2 SWAP1 PUSH2 0xDD0 JUMP JUMPDEST POP DUP1 PUSH1 0x0 DUP1 CALLER PUSH20 0xFFFFFFFFFFFFFFFFFFFFFFFFFFFFFFFFFFFFFFFF AND PUSH20 0xFFFFFFFFFFFFFFFFFFFFFFFFFFFFFFFFFFFFFFFF AND DUP2 MSTORE PUSH1 0x20 ADD SWAP1 DUP2 MSTORE PUSH1 0x20 ADD PUSH1 0x0 KECCAK256 PUSH1 0x5 ADD SWAP1 DUP1 MLOAD SWAP1 PUSH1 0x20 ADD SWAP1 PUSH2 0x858 SWAP3 SWAP2 SWAP1 PUSH2 0xDD0 JUMP JUMPDEST POP CALLER PUSH1 0x0 DUP1 CALLER PUSH20 0xFFFFFFFFFFFFFFFFFFFFFFFFFFFFFFFFFFFFFFFF AND PUSH20 0xFFFFFFFFFFFFFFFFFFFFFFFFFFFFFFFFFFFFFFFF AND DUP2 MSTORE PUSH1 0x20 ADD SWAP1 DUP2 MSTORE PUSH1 0x20 ADD PUSH1 0x0 KECCAK256 PUSH1 0x6 ADD PUSH1 0x0 PUSH2 0x100 EXP DUP2 SLOAD DUP2 PUSH20 0xFFFFFFFFFFFFFFFFFFFFFFFFFFFFFFFFFFFFFFFF MUL NOT AND SWAP1 DUP4 PUSH20 0xFFFFFFFFFFFFFFFFFFFFFFFFFFFFFFFFFFFFFFFF AND MUL OR SWAP1 SSTORE POP POP POP POP POP POP POP JUMP JUMPDEST PUSH1 0x0 PUSH1 0x20 MSTORE DUP1 PUSH1 0x0 MSTORE PUSH1 0x40 PUSH1 0x0 KECCAK256 PUSH1 0x0 SWAP2 POP SWAP1 POP DUP1 PUSH1 0x0 ADD DUP1 SLOAD PUSH2 0x904 SWAP1 PUSH2 0x135B JUMP JUMPDEST DUP1 PUSH1 0x1F ADD PUSH1 0x20 DUP1 SWAP2 DIV MUL PUSH1 0x20 ADD PUSH1 0x40 MLOAD SWAP1 DUP2 ADD PUSH1 0x40 MSTORE DUP1 SWAP3 SWAP2 SWAP1 DUP2 DUP2 MSTORE PUSH1 0x20 ADD DUP3 DUP1 SLOAD PUSH2 0x930 SWAP1 PUSH2 0x135B JUMP JUMPDEST DUP1 ISZERO PUSH2 0x97D JUMPI DUP1 PUSH1 0x1F LT PUSH2 0x952 JUMPI PUSH2 0x100 DUP1 DUP4 SLOAD DIV MUL DUP4 MSTORE SWAP2 PUSH1 0x20 ADD SWAP2 PUSH2 0x97D JUMP JUMPDEST DUP3 ADD SWAP2 SWAP1 PUSH1 0x0 MSTORE PUSH1 0x20 PUSH1 0x0 KECCAK256 SWAP1 JUMPDEST DUP2 SLOAD DUP2 MSTORE SWAP1 PUSH1 0x1 ADD SWAP1 PUSH1 0x20 ADD DUP1 DUP4 GT PUSH2 0x960 JUMPI DUP3 SWAP1 SUB PUSH1 0x1F AND DUP3 ADD SWAP2 JUMPDEST POP POP POP POP POP SWAP1 DUP1 PUSH1 0x1 ADD DUP1 SLOAD PUSH2 0x992 SWAP1 PUSH2 0x135B JUMP JUMPDEST DUP1 PUSH1 0x1F ADD PUSH1 0x20 DUP1 SWAP2 DIV MUL PUSH1 0x20 ADD PUSH1 0x40 MLOAD SWAP1 DUP2 ADD PUSH1 0x40 MSTORE DUP1 SWAP3 SWAP2 SWAP1 DUP2 DUP2 MSTORE PUSH1 0x20 ADD DUP3 DUP1 SLOAD PUSH2 0x9BE SWAP1 PUSH2 0x135B JUMP JUMPDEST DUP1 ISZERO PUSH2 0xA0B JUMPI DUP1 PUSH1 0x1F LT PUSH2 0x9E0 JUMPI PUSH2 0x100 DUP1 DUP4 SLOAD DIV MUL DUP4 MSTORE SWAP2 PUSH1 0x20 ADD SWAP2 PUSH2 0xA0B JUMP JUMPDEST DUP3 ADD SWAP2 SWAP1 PUSH1 0x0 MSTORE PUSH1 0x20 PUSH1 0x0 KECCAK256 SWAP1 JUMPDEST DUP2 SLOAD DUP2 MSTORE SWAP1 PUSH1 0x1 ADD SWAP1 PUSH1 0x20 ADD DUP1 DUP4 GT PUSH2 0x9EE JUMPI DUP3 SWAP1 SUB PUSH1 0x1F AND DUP3 ADD SWAP2 JUMPDEST POP POP POP POP POP SWAP1 DUP1 PUSH1 0x2 ADD DUP1 SLOAD PUSH2 0xA20 SWAP1 PUSH2 0x135B JUMP JUMPDEST DUP1 PUSH1 0x1F ADD PUSH1 0x20 DUP1 SWAP2 DIV MUL PUSH1 0x20 ADD PUSH1 0x40 MLOAD SWAP1 DUP2 ADD PUSH1 0x40 MSTORE DUP1 SWAP3 SWAP2 SWAP1 DUP2 DUP2 MSTORE PUSH1 0x20 ADD DUP3 DUP1 SLOAD PUSH2 0xA4C SWAP1 PUSH2 0x135B JUMP JUMPDEST DUP1 ISZERO PUSH2 0xA99 JUMPI DUP1 PUSH1 0x1F LT PUSH2 0xA6E JUMPI PUSH2 0x100 DUP1 DUP4 SLOAD DIV MUL DUP4 MSTORE SWAP2 PUSH1 0x20 ADD SWAP2 PUSH2 0xA99 JUMP JUMPDEST DUP3 ADD SWAP2 SWAP1 PUSH1 0x0 MSTORE PUSH1 0x20 PUSH1 0x0 KECCAK256 SWAP1 JUMPDEST DUP2 SLOAD DUP2 MSTORE SWAP1 PUSH1 0x1 ADD SWAP1 PUSH1 0x20 ADD DUP1 DUP4 GT PUSH2 0xA7C JUMPI DUP3 SWAP1 SUB PUSH1 0x1F AND DUP3 ADD SWAP2 JUMPDEST POP POP POP POP POP SWAP1 DUP1 PUSH1 0x3 ADD DUP1 SLOAD PUSH2 0xAAE SWAP1 PUSH2 0x135B JUMP JUMPDEST DUP1 PUSH1 0x1F ADD PUSH1 0x20 DUP1 SWAP2 DIV MUL PUSH1 0x20 ADD PUSH1 0x40 MLOAD SWAP1 DUP2 ADD PUSH1 0x40 MSTORE DUP1 SWAP3 SWAP2 SWAP1 DUP2 DUP2 MSTORE PUSH1 0x20 ADD DUP3 DUP1 SLOAD PUSH2 0xADA SWAP1 PUSH2 0x135B JUMP JUMPDEST DUP1 ISZERO PUSH2 0xB27 JUMPI DUP1 PUSH1 0x1F LT PUSH2 0xAFC JUMPI PUSH2 0x100 DUP1 DUP4 SLOAD DIV MUL DUP4 MSTORE SWAP2 PUSH1 0x20 ADD SWAP2 PUSH2 0xB27 JUMP JUMPDEST DUP3 ADD SWAP2 SWAP1 PUSH1 0x0 MSTORE PUSH1 0x20 PUSH1 0x0 KECCAK256 SWAP1 JUMPDEST DUP2 SLOAD DUP2 MSTORE SWAP1 PUSH1 0x1 ADD SWAP1 PUSH1 0x20 ADD DUP1 DUP4 GT PUSH2 0xB0A JUMPI DUP3 SWAP1 SUB PUSH1 0x1F AND DUP3 ADD SWAP2 JUMPDEST POP POP POP POP POP SWAP1 DUP1 PUSH1 0x4 ADD DUP1 SLOAD PUSH2 0xB3C SWAP1 PUSH2 0x135B JUMP JUMPDEST DUP1 PUSH1 0x1F ADD PUSH1 0x20 DUP1 SWAP2 DIV MUL PUSH1 0x20 ADD PUSH1 0x40 MLOAD SWAP1 DUP2 ADD PUSH1 0x40 MSTORE DUP1 SWAP3 SWAP2 SWAP1 DUP2 DUP2 MSTORE PUSH1 0x20 ADD DUP3 DUP1 SLOAD PUSH2 0xB68 SWAP1 PUSH2 0x135B JUMP JUMPDEST DUP1 ISZERO PUSH2 0xBB5 JUMPI DUP1 PUSH1 0x1F LT PUSH2 0xB8A JUMPI PUSH2 0x100 DUP1 DUP4 SLOAD DIV MUL DUP4 MSTORE SWAP2 PUSH1 0x20 ADD SWAP2 PUSH2 0xBB5 JUMP JUMPDEST DUP3 ADD SWAP2 SWAP1 PUSH1 0x0 MSTORE PUSH1 0x20 PUSH1 0x0 KECCAK256 SWAP1 JUMPDEST DUP2 SLOAD DUP2 MSTORE SWAP1 PUSH1 0x1 ADD SWAP1 PUSH1 0x20 ADD DUP1 DUP4 GT PUSH2 0xB98 JUMPI DUP3 SWAP1 SUB PUSH1 0x1F AND DUP3 ADD SWAP2 JUMPDEST POP POP POP POP POP SWAP1 DUP1 PUSH1 0x5 ADD DUP1 SLOAD PUSH2 0xBCA SWAP1 PUSH2 0x135B JUMP JUMPDEST DUP1 PUSH1 0x1F ADD PUSH1 0x20 DUP1 SWAP2 DIV MUL PUSH1 0x20 ADD PUSH1 0x40 MLOAD SWAP1 DUP2 ADD PUSH1 0x40 MSTORE DUP1 SWAP3 SWAP2 SWAP1 DUP2 DUP2 MSTORE PUSH1 0x20 ADD DUP3 DUP1 SLOAD PUSH2 0xBF6 SWAP1 PUSH2 0x135B JUMP JUMPDEST DUP1 ISZERO PUSH2 0xC43 JUMPI DUP1 PUSH1 0x1F LT PUSH2 0xC18 JUMPI PUSH2 0x100 DUP1 DUP4 SLOAD DIV MUL DUP4 MSTORE SWAP2 PUSH1 0x20 ADD SWAP2 PUSH2 0xC43 JUMP JUMPDEST DUP3 ADD SWAP2 SWAP1 PUSH1 0x0 MSTORE PUSH1 0x20 PUSH1 0x0 KECCAK256 SWAP1 JUMPDEST DUP2 SLOAD DUP2 MSTORE SWAP1 PUSH1 0x1 ADD SWAP1 PUSH1 0x20 ADD DUP1 DUP4 GT PUSH2 0xC26 JUMPI DUP3 SWAP1 SUB PUSH1 0x1F AND DUP3 ADD SWAP2 JUMPDEST POP POP POP POP POP SWAP1 DUP1 PUSH1 0x6 ADD PUSH1 0x0 SWAP1 SLOAD SWAP1 PUSH2 0x100 EXP SWAP1 DIV PUSH20 0xFFFFFFFFFFFFFFFFFFFFFFFFFFFFFFFFFFFFFFFF AND SWAP1 POP DUP8 JUMP JUMPDEST PUSH1 0x0 DUP1 CALLER PUSH20 0xFFFFFFFFFFFFFFFFFFFFFFFFFFFFFFFFFFFFFFFF AND PUSH20 0xFFFFFFFFFFFFFFFFFFFFFFFFFFFFFFFFFFFFFFFF AND DUP2 MSTORE PUSH1 0x20 ADD SWAP1 DUP2 MSTORE PUSH1 0x20 ADD PUSH1 0x0 KECCAK256 PUSH1 0x0 DUP1 DUP3 ADD PUSH1 0x0 PUSH2 0xCC2 SWAP2 SWAP1 PUSH2 0xD90 JUMP JUMPDEST PUSH1 0x1 DUP3 ADD PUSH1 0x0 PUSH2 0xCD2 SWAP2 SWAP1 PUSH2 0xD90 JUMP JUMPDEST PUSH1 0x2 DUP3 ADD PUSH1 0x0 PUSH2 0xCE2 SWAP2 SWAP1 PUSH2 0xD90 JUMP JUMPDEST PUSH1 0x3 DUP3 ADD PUSH1 0x0 PUSH2 0xCF2 SWAP2 SWAP1 PUSH2 0xD90 JUMP JUMPDEST PUSH1 0x4 DUP3 ADD PUSH1 0x0 PUSH2 0xD02 SWAP2 SWAP1 PUSH2 0xD90 JUMP JUMPDEST PUSH1 0x5 DUP3 ADD PUSH1 0x0 PUSH2 0xD12 SWAP2 SWAP1 PUSH2 0xD90 JUMP JUMPDEST PUSH1 0x6 DUP3 ADD PUSH1 0x0 PUSH2 0x100 EXP DUP2 SLOAD SWAP1 PUSH20 0xFFFFFFFFFFFFFFFFFFFFFFFFFFFFFFFFFFFFFFFF MUL NOT AND SWAP1 SSTORE POP POP JUMP JUMPDEST PUSH1 0x40 MLOAD DUP1 PUSH1 0xE0 ADD PUSH1 0x40 MSTORE DUP1 PUSH1 0x60 DUP2 MSTORE PUSH1 0x20 ADD PUSH1 0x60 DUP2 MSTORE PUSH1 0x20 ADD PUSH1 0x60 DUP2 MSTORE PUSH1 0x20 ADD PUSH1 0x60 DUP2 MSTORE PUSH1 0x20 ADD PUSH1 0x60 DUP2 MSTORE PUSH1 0x20 ADD PUSH1 0x60 DUP2 MSTORE PUSH1 0x20 ADD PUSH1 0x0 PUSH20 0xFFFFFFFFFFFFFFFFFFFFFFFFFFFFFFFFFFFFFFFF AND DUP2 MSTORE POP SWAP1 JUMP JUMPDEST POP DUP1 SLOAD PUSH2 0xD9C SWAP1 PUSH2 0x135B JUMP JUMPDEST PUSH1 0x0 DUP3 SSTORE DUP1 PUSH1 0x1F LT PUSH2 0xDAE JUMPI POP PUSH2 0xDCD JUMP JUMPDEST PUSH1 0x1F ADD PUSH1 0x20 SWAP1 DIV SWAP1 PUSH1 0x0 MSTORE PUSH1 0x20 PUSH1 0x0 KECCAK256 SWAP1 DUP2 ADD SWAP1 PUSH2 0xDCC SWAP2 SWAP1 PUSH2 0xE56 JUMP JUMPDEST JUMPDEST POP JUMP JUMPDEST DUP3 DUP1 SLOAD PUSH2 0xDDC SWAP1 PUSH2 0x135B JUMP JUMPDEST SWAP1 PUSH1 0x0 MSTORE PUSH1 0x20 PUSH1 0x0 KECCAK256 SWAP1 PUSH1 0x1F ADD PUSH1 0x20 SWAP1 DIV DUP2 ADD SWAP3 DUP3 PUSH2 0xDFE JUMPI PUSH1 0x0 DUP6 SSTORE PUSH2 0xE45 JUMP JUMPDEST DUP3 PUSH1 0x1F LT PUSH2 0xE17 JUMPI DUP1 MLOAD PUSH1 0xFF NOT AND DUP4 DUP1 ADD OR DUP6 SSTORE PUSH2 0xE45 JUMP JUMPDEST DUP3 DUP1 ADD PUSH1 0x1 ADD DUP6 SSTORE DUP3 ISZERO PUSH2 0xE45 JUMPI SWAP2 DUP3 ADD JUMPDEST DUP3 DUP2 GT ISZERO PUSH2 0xE44 JUMPI DUP3 MLOAD DUP3 SSTORE SWAP2 PUSH1 0x20 ADD SWAP2 SWAP1 PUSH1 0x1 ADD SWAP1 PUSH2 0xE29 JUMP JUMPDEST JUMPDEST POP SWAP1 POP PUSH2 0xE52 SWAP2 SWAP1 PUSH2 0xE56 JUMP JUMPDEST POP SWAP1 JUMP JUMPDEST JUMPDEST DUP1 DUP3 GT ISZERO PUSH2 0xE6F JUMPI PUSH1 0x0 DUP2 PUSH1 0x0 SWAP1 SSTORE POP PUSH1 0x1 ADD PUSH2 0xE57 JUMP JUMPDEST POP SWAP1 JUMP JUMPDEST PUSH1 0x0 PUSH2 0xE86 PUSH2 0xE81 DUP5 PUSH2 0x1289 JUMP JUMPDEST PUSH2 0x1264 JUMP JUMPDEST SWAP1 POP DUP3 DUP2 MSTORE PUSH1 0x20 DUP2 ADD DUP5 DUP5 DUP5 ADD GT ISZERO PUSH2 0xEA2 JUMPI PUSH2 0xEA1 PUSH2 0x1421 JUMP JUMPDEST JUMPDEST PUSH2 0xEAD DUP5 DUP3 DUP6 PUSH2 0x1319 JUMP JUMPDEST POP SWAP4 SWAP3 POP POP POP JUMP JUMPDEST PUSH1 0x0 DUP2 CALLDATALOAD SWAP1 POP PUSH2 0xEC4 DUP2 PUSH2 0x1441 JUMP JUMPDEST SWAP3 SWAP2 POP POP JUMP JUMPDEST PUSH1 0x0 DUP3 PUSH1 0x1F DUP4 ADD SLT PUSH2 0xEDF JUMPI PUSH2 0xEDE PUSH2 0x141C JUMP JUMPDEST JUMPDEST DUP2 CALLDATALOAD PUSH2 0xEEF DUP5 DUP3 PUSH1 0x20 DUP7 ADD PUSH2 0xE73 JUMP JUMPDEST SWAP2 POP POP SWAP3 SWAP2 POP POP JUMP JUMPDEST PUSH1 0x0 PUSH1 0x20 DUP3 DUP5 SUB SLT ISZERO PUSH2 0xF0E JUMPI PUSH2 0xF0D PUSH2 0x142B JUMP JUMPDEST JUMPDEST PUSH1 0x0 PUSH2 0xF1C DUP5 DUP3 DUP6 ADD PUSH2 0xEB5 JUMP JUMPDEST SWAP2 POP POP SWAP3 SWAP2 POP POP JUMP JUMPDEST PUSH1 0x0 DUP1 PUSH1 0x0 DUP1 PUSH1 0x0 DUP1 PUSH1 0xC0 DUP8 DUP10 SUB SLT ISZERO PUSH2 0xF42 JUMPI PUSH2 0xF41 PUSH2 0x142B JUMP JUMPDEST JUMPDEST PUSH1 0x0 DUP8 ADD CALLDATALOAD PUSH8 0xFFFFFFFFFFFFFFFF DUP2 GT ISZERO PUSH2 0xF60 JUMPI PUSH2 0xF5F PUSH2 0x1426 JUMP JUMPDEST JUMPDEST PUSH2 0xF6C DUP10 DUP3 DUP11 ADD PUSH2 0xECA JUMP JUMPDEST SWAP7 POP POP PUSH1 0x20 DUP8 ADD CALLDATALOAD PUSH8 0xFFFFFFFFFFFFFFFF DUP2 GT ISZERO PUSH2 0xF8D JUMPI PUSH2 0xF8C PUSH2 0x1426 JUMP JUMPDEST JUMPDEST PUSH2 0xF99 DUP10 DUP3 DUP11 ADD PUSH2 0xECA JUMP JUMPDEST SWAP6 POP POP PUSH1 0x40 DUP8 ADD CALLDATALOAD PUSH8 0xFFFFFFFFFFFFFFFF DUP2 GT ISZERO PUSH2 0xFBA JUMPI PUSH2 0xFB9 PUSH2 0x1426 JUMP JUMPDEST JUMPDEST PUSH2 0xFC6 DUP10 DUP3 DUP11 ADD PUSH2 0xECA JUMP JUMPDEST SWAP5 POP POP PUSH1 0x60 DUP8 ADD CALLDATALOAD PUSH8 0xFFFFFFFFFFFFFFFF DUP2 GT ISZERO PUSH2 0xFE7 JUMPI PUSH2 0xFE6 PUSH2 0x1426 JUMP JUMPDEST JUMPDEST PUSH2 0xFF3 DUP10 DUP3 DUP11 ADD PUSH2 0xECA JUMP JUMPDEST SWAP4 POP POP PUSH1 0x80 DUP8 ADD CALLDATALOAD PUSH8 0xFFFFFFFFFFFFFFFF DUP2 GT ISZERO PUSH2 0x1014 JUMPI PUSH2 0x1013 PUSH2 0x1426 JUMP JUMPDEST JUMPDEST PUSH2 0x1020 DUP10 DUP3 DUP11 ADD PUSH2 0xECA JUMP JUMPDEST SWAP3 POP POP PUSH1 0xA0 DUP8 ADD CALLDATALOAD PUSH8 0xFFFFFFFFFFFFFFFF DUP2 GT ISZERO PUSH2 0x1041 JUMPI PUSH2 0x1040 PUSH2 0x1426 JUMP JUMPDEST JUMPDEST PUSH2 0x104D DUP10 DUP3 DUP11 ADD PUSH2 0xECA JUMP JUMPDEST SWAP2 POP POP SWAP3 SWAP6 POP SWAP3 SWAP6 POP SWAP3 SWAP6 JUMP JUMPDEST PUSH2 0x1063 DUP2 PUSH2 0x12E7 JUMP JUMPDEST DUP3 MSTORE POP POP JUMP JUMPDEST PUSH2 0x1072 DUP2 PUSH2 0x12E7 JUMP JUMPDEST DUP3 MSTORE POP POP JUMP JUMPDEST PUSH1 0x0 PUSH2 0x1083 DUP3 PUSH2 0x12BA JUMP JUMPDEST PUSH2 0x108D DUP2 DUP6 PUSH2 0x12C5 JUMP JUMPDEST SWAP4 POP PUSH2 0x109D DUP2 DUP6 PUSH1 0x20 DUP7 ADD PUSH2 0x1328 JUMP JUMPDEST PUSH2 0x10A6 DUP2 PUSH2 0x1430 JUMP JUMPDEST DUP5 ADD SWAP2 POP POP SWAP3 SWAP2 POP POP JUMP JUMPDEST PUSH1 0x0 PUSH2 0x10BC DUP3 PUSH2 0x12BA JUMP JUMPDEST PUSH2 0x10C6 DUP2 DUP6 PUSH2 0x12D6 JUMP JUMPDEST SWAP4 POP PUSH2 0x10D6 DUP2 DUP6 PUSH1 0x20 DUP7 ADD PUSH2 0x1328 JUMP JUMPDEST PUSH2 0x10DF DUP2 PUSH2 0x1430 JUMP JUMPDEST DUP5 ADD SWAP2 POP POP SWAP3 SWAP2 POP POP JUMP JUMPDEST PUSH1 0x0 PUSH1 0xE0 DUP4 ADD PUSH1 0x0 DUP4 ADD MLOAD DUP5 DUP3 SUB PUSH1 0x0 DUP7 ADD MSTORE PUSH2 0x1107 DUP3 DUP3 PUSH2 0x1078 JUMP JUMPDEST SWAP2 POP POP PUSH1 0x20 DUP4 ADD MLOAD DUP5 DUP3 SUB PUSH1 0x20 DUP7 ADD MSTORE PUSH2 0x1121 DUP3 DUP3 PUSH2 0x1078 JUMP JUMPDEST SWAP2 POP POP PUSH1 0x40 DUP4 ADD MLOAD DUP5 DUP3 SUB PUSH1 0x40 DUP7 ADD MSTORE PUSH2 0x113B DUP3 DUP3 PUSH2 0x1078 JUMP JUMPDEST SWAP2 POP POP PUSH1 0x60 DUP4 ADD MLOAD DUP5 DUP3 SUB PUSH1 0x60 DUP7 ADD MSTORE PUSH2 0x1155 DUP3 DUP3 PUSH2 0x1078 JUMP JUMPDEST SWAP2 POP POP PUSH1 0x80 DUP4 ADD MLOAD DUP5 DUP3 SUB PUSH1 0x80 DUP7 ADD MSTORE PUSH2 0x116F DUP3 DUP3 PUSH2 0x1078 JUMP JUMPDEST SWAP2 POP POP PUSH1 0xA0 DUP4 ADD MLOAD DUP5 DUP3 SUB PUSH1 0xA0 DUP7 ADD MSTORE PUSH2 0x1189 DUP3 DUP3 PUSH2 0x1078 JUMP JUMPDEST SWAP2 POP POP PUSH1 0xC0 DUP4 ADD MLOAD PUSH2 0x119E PUSH1 0xC0 DUP7 ADD DUP3 PUSH2 0x105A JUMP JUMPDEST POP DUP1 SWAP2 POP POP SWAP3 SWAP2 POP POP JUMP JUMPDEST PUSH1 0x0 PUSH1 0xE0 DUP3 ADD SWAP1 POP DUP2 DUP2 SUB PUSH1 0x0 DUP4 ADD MSTORE PUSH2 0x11C3 DUP2 DUP11 PUSH2 0x10B1 JUMP JUMPDEST SWAP1 POP DUP2 DUP2 SUB PUSH1 0x20 DUP4 ADD MSTORE PUSH2 0x11D7 DUP2 DUP10 PUSH2 0x10B1 JUMP JUMPDEST SWAP1 POP DUP2 DUP2 SUB PUSH1 0x40 DUP4 ADD MSTORE PUSH2 0x11EB DUP2 DUP9 PUSH2 0x10B1 JUMP JUMPDEST SWAP1 POP DUP2 DUP2 SUB PUSH1 0x60 DUP4 ADD MSTORE PUSH2 0x11FF DUP2 DUP8 PUSH2 0x10B1 JUMP JUMPDEST SWAP1 POP DUP2 DUP2 SUB PUSH1 0x80 DUP4 ADD MSTORE PUSH2 0x1213 DUP2 DUP7 PUSH2 0x10B1 JUMP JUMPDEST SWAP1 POP DUP2 DUP2 SUB PUSH1 0xA0 DUP4 ADD MSTORE PUSH2 0x1227 DUP2 DUP6 PUSH2 0x10B1 JUMP JUMPDEST SWAP1 POP PUSH2 0x1236 PUSH1 0xC0 DUP4 ADD DUP5 PUSH2 0x1069 JUMP JUMPDEST SWAP9 SWAP8 POP POP POP POP POP POP POP POP JUMP JUMPDEST PUSH1 0x0 PUSH1 0x20 DUP3 ADD SWAP1 POP DUP2 DUP2 SUB PUSH1 0x0 DUP4 ADD MSTORE PUSH2 0x125C DUP2 DUP5 PUSH2 0x10EA JUMP JUMPDEST SWAP1 POP SWAP3 SWAP2 POP POP JUMP JUMPDEST PUSH1 0x0 PUSH2 0x126E PUSH2 0x127F JUMP JUMPDEST SWAP1 POP PUSH2 0x127A DUP3 DUP3 PUSH2 0x138D JUMP JUMPDEST SWAP2 SWAP1 POP JUMP JUMPDEST PUSH1 0x0 PUSH1 0x40 MLOAD SWAP1 POP SWAP1 JUMP JUMPDEST PUSH1 0x0 PUSH8 0xFFFFFFFFFFFFFFFF DUP3 GT ISZERO PUSH2 0x12A4 JUMPI PUSH2 0x12A3 PUSH2 0x13ED JUMP JUMPDEST JUMPDEST PUSH2 0x12AD DUP3 PUSH2 0x1430 JUMP JUMPDEST SWAP1 POP PUSH1 0x20 DUP2 ADD SWAP1 POP SWAP2 SWAP1 POP JUMP JUMPDEST PUSH1 0x0 DUP2 MLOAD SWAP1 POP SWAP2 SWAP1 POP JUMP JUMPDEST PUSH1 0x0 DUP3 DUP3 MSTORE PUSH1 0x20 DUP3 ADD SWAP1 POP SWAP3 SWAP2 POP POP JUMP JUMPDEST PUSH1 0x0 DUP3 DUP3 MSTORE PUSH1 0x20 DUP3 ADD SWAP1 POP SWAP3 SWAP2 POP POP JUMP JUMPDEST PUSH1 0x0 PUSH2 0x12F2 DUP3 PUSH2 0x12F9 JUMP JUMPDEST SWAP1 POP SWAP2 SWAP1 POP JUMP JUMPDEST PUSH1 0x0 PUSH20 0xFFFFFFFFFFFFFFFFFFFFFFFFFFFFFFFFFFFFFFFF DUP3 AND SWAP1 POP SWAP2 SWAP1 POP JUMP JUMPDEST DUP3 DUP2 DUP4 CALLDATACOPY PUSH1 0x0 DUP4 DUP4 ADD MSTORE POP POP POP JUMP JUMPDEST PUSH1 0x0 JUMPDEST DUP4 DUP2 LT ISZERO PUSH2 0x1346 JUMPI DUP1 DUP3 ADD MLOAD DUP2 DUP5 ADD MSTORE PUSH1 0x20 DUP2 ADD SWAP1 POP PUSH2 0x132B JUMP JUMPDEST DUP4 DUP2 GT ISZERO PUSH2 0x1355 JUMPI PUSH1 0x0 DUP5 DUP5 ADD MSTORE JUMPDEST POP POP POP POP JUMP JUMPDEST PUSH1 0x0 PUSH1 0x2 DUP3 DIV SWAP1 POP PUSH1 0x1 DUP3 AND DUP1 PUSH2 0x1373 JUMPI PUSH1 0x7F DUP3 AND SWAP2 POP JUMPDEST PUSH1 0x20 DUP3 LT DUP2 EQ ISZERO PUSH2 0x1387 JUMPI PUSH2 0x1386 PUSH2 0x13BE JUMP JUMPDEST JUMPDEST POP SWAP2 SWAP1 POP JUMP JUMPDEST PUSH2 0x1396 DUP3 PUSH2 0x1430 JUMP JUMPDEST DUP2 ADD DUP2 DUP2 LT PUSH8 0xFFFFFFFFFFFFFFFF DUP3 GT OR ISZERO PUSH2 0x13B5 JUMPI PUSH2 0x13B4 PUSH2 0x13ED JUMP JUMPDEST JUMPDEST DUP1 PUSH1 0x40 MSTORE POP POP POP JUMP JUMPDEST PUSH32 0x4E487B7100000000000000000000000000000000000000000000000000000000 PUSH1 0x0 MSTORE PUSH1 0x22 PUSH1 0x4 MSTORE PUSH1 0x24 PUSH1 0x0 REVERT JUMPDEST PUSH32 0x4E487B7100000000000000000000000000000000000000000000000000000000 PUSH1 0x0 MSTORE PUSH1 0x41 PUSH1 0x4 MSTORE PUSH1 0x24 PUSH1 0x0 REVERT JUMPDEST PUSH1 0x0 DUP1 REVERT JUMPDEST PUSH1 0x0 DUP1 REVERT JUMPDEST PUSH1 0x0 DUP1 REVERT JUMPDEST PUSH1 0x0 DUP1 REVERT JUMPDEST PUSH1 0x0 PUSH1 0x1F NOT PUSH1 0x1F DUP4 ADD AND SWAP1 POP SWAP2 SWAP1 POP JUMP JUMPDEST PUSH2 0x144A DUP2 PUSH2 0x12E7 JUMP JUMPDEST DUP2 EQ PUSH2 0x1455 JUMPI PUSH1 0x0 DUP1 REVERT JUMPDEST POP JUMP INVALID LOG2 PUSH5 0x6970667358 0x22 SLT KECCAK256 DIV EXTCODESIZE PUSH29 0xD73858AD15F52B43EAE536FF61D11BD72B4A23E5234AEEECDBA09FDAC PUSH5 0x736F6C6343 STOP ADDMOD SMOD STOP CALLER "
				},
				"gasEstimates": {
					"creation": {
						"codeDepositCost": "1052400",
						"executionCost": "1094",
						"totalCost": "1053494"
					},
					"external": {
						"addBio(string,string,string,string,string,string)": "infinite",
						"delProfile()": "infinite",
						"getBio(address)": "infinite",
						"profile(address)": "infinite"
					}
				},
				"methodIdentifiers": {
					"addBio(string,string,string,string,string,string)": "721041af",
					"delProfile()": "fabce08f",
					"getBio(address)": "3fd0bf17",
					"profile(address)": "9dd9d0fd"
				}
			},
			"storageLayout": {
				"storage": [
					{
						"astId": 21,
						"contract": "contracts/Profile.sol:Profile",
						"label": "profile",
						"offset": 0,
						"slot": "0",
						"type": "t_mapping(t_address,t_struct(Bio)16_storage)"
					}
				],
				"types": {
					"t_address": {
						"encoding": "inplace",
						"label": "address",
						"numberOfBytes": "20"
					},
					"t_mapping(t_address,t_struct(Bio)16_storage)": {
						"encoding": "mapping",
						"key": "t_address",
						"label": "mapping(address => struct Profile.Bio)",
						"numberOfBytes": "32",
						"value": "t_struct(Bio)16_storage"
					},
					"t_string_storage": {
						"encoding": "bytes",
						"label": "string",
						"numberOfBytes": "32"
					},
					"t_struct(Bio)16_storage": {
						"encoding": "inplace",
						"label": "struct Profile.Bio",
						"members": [
							{
								"astId": 3,
								"contract": "contracts/Profile.sol:Profile",
								"label": "firstName",
								"offset": 0,
								"slot": "0",
								"type": "t_string_storage"
							},
							{
								"astId": 5,
								"contract": "contracts/Profile.sol:Profile",
								"label": "middleName",
								"offset": 0,
								"slot": "1",
								"type": "t_string_storage"
							},
							{
								"astId": 7,
								"contract": "contracts/Profile.sol:Profile",
								"label": "lastName",
								"offset": 0,
								"slot": "2",
								"type": "t_string_storage"
							},
							{
								"astId": 9,
								"contract": "contracts/Profile.sol:Profile",
								"label": "email",
								"offset": 0,
								"slot": "3",
								"type": "t_string_storage"
							},
							{
								"astId": 11,
								"contract": "contracts/Profile.sol:Profile",
								"label": "phone",
								"offset": 0,
								"slot": "4",
								"type": "t_string_storage"
							},
							{
								"astId": 13,
								"contract": "contracts/Profile.sol:Profile",
								"label": "profileImage",
								"offset": 0,
								"slot": "5",
								"type": "t_string_storage"
							},
							{
								"astId": 15,
								"contract": "contracts/Profile.sol:Profile",
								"label": "userAddress",
								"offset": 0,
								"slot": "6",
								"type": "t_address"
							}
						],
						"numberOfBytes": "224"
					}
				}
			},
			"userdoc": {
				"kind": "user",
				"methods": {},
				"version": 1
			}
		}
	}
}