{
	"contracts/Profile.sol": {
		"Profile": {
			"abi": [
				{
					"inputs": [
						{
							"internalType": "string[]",
							"name": "award",
							"type": "string[]"
						},
						{
							"internalType": "string[]",
							"name": "certificate",
							"type": "string[]"
						}
					],
					"name": "createAward",
					"outputs": [],
					"stateMutability": "nonpayable",
					"type": "function"
				},
				{
					"inputs": [
						{
							"internalType": "string",
							"name": "companyName",
							"type": "string"
						},
						{
							"internalType": "string",
							"name": "position",
							"type": "string"
						},
						{
							"internalType": "string",
							"name": "startDate",
							"type": "string"
						},
						{
							"internalType": "string",
							"name": "endDate",
							"type": "string"
						},
						{
							"internalType": "string[]",
							"name": "project",
							"type": "string[]"
						}
					],
					"name": "createCompanyExperience",
					"outputs": [],
					"stateMutability": "nonpayable",
					"type": "function"
				},
				{
					"inputs": [
						{
							"internalType": "string",
							"name": "email",
							"type": "string"
						},
						{
							"internalType": "string",
							"name": "phone",
							"type": "string"
						},
						{
							"internalType": "string",
							"name": "github",
							"type": "string"
						},
						{
							"internalType": "string",
							"name": "gitlab",
							"type": "string"
						},
						{
							"internalType": "string",
							"name": "linkedin",
							"type": "string"
						}
					],
					"name": "createContract",
					"outputs": [],
					"stateMutability": "nonpayable",
					"type": "function"
				},
				{
					"inputs": [
						{
							"internalType": "string",
							"name": "startDate",
							"type": "string"
						},
						{
							"internalType": "string",
							"name": "endDate",
							"type": "string"
						},
						{
							"internalType": "string",
							"name": "university",
							"type": "string"
						},
						{
							"internalType": "string",
							"name": "major",
							"type": "string"
						},
						{
							"internalType": "string",
							"name": "finalProject",
							"type": "string"
						}
					],
					"name": "createEducation",
					"outputs": [],
					"stateMutability": "nonpayable",
					"type": "function"
				},
				{
					"inputs": [
						{
							"internalType": "string",
							"name": "projectName",
							"type": "string"
						},
						{
							"internalType": "string",
							"name": "Detail",
							"type": "string"
						}
					],
					"name": "createFreelanceExperience",
					"outputs": [],
					"stateMutability": "nonpayable",
					"type": "function"
				},
				{
					"inputs": [
						{
							"internalType": "string",
							"name": "firstName",
							"type": "string"
						},
						{
							"internalType": "string",
							"name": "middleName",
							"type": "string"
						},
						{
							"internalType": "string",
							"name": "lastName",
							"type": "string"
						},
						{
							"internalType": "string",
							"name": "profileImage",
							"type": "string"
						},
						{
							"internalType": "string",
							"name": "aboutMe",
							"type": "string"
						},
						{
							"internalType": "string",
							"name": "position",
							"type": "string"
						}
					],
					"name": "createInformation",
					"outputs": [],
					"stateMutability": "nonpayable",
					"type": "function"
				},
				{
					"inputs": [
						{
							"internalType": "string[]",
							"name": "programmingLanguages",
							"type": "string[]"
						},
						{
							"internalType": "string[]",
							"name": "framework",
							"type": "string[]"
						},
						{
							"internalType": "string[]",
							"name": "databaseAndOther",
							"type": "string[]"
						}
					],
					"name": "createSkill",
					"outputs": [],
					"stateMutability": "nonpayable",
					"type": "function"
				},
				{
					"inputs": [],
					"name": "delAllEducation",
					"outputs": [],
					"stateMutability": "nonpayable",
					"type": "function"
				},
				{
					"inputs": [],
					"name": "delCertificateAndAward",
					"outputs": [],
					"stateMutability": "nonpayable",
					"type": "function"
				},
				{
					"inputs": [],
					"name": "delCompanyExperience",
					"outputs": [],
					"stateMutability": "nonpayable",
					"type": "function"
				},
				{
					"inputs": [],
					"name": "delFreelanceExperience",
					"outputs": [],
					"stateMutability": "nonpayable",
					"type": "function"
				},
				{
					"inputs": [],
					"name": "delInformaion",
					"outputs": [],
					"stateMutability": "nonpayable",
					"type": "function"
				},
				{
					"inputs": [],
					"name": "delProfile",
					"outputs": [],
					"stateMutability": "nonpayable",
					"type": "function"
				},
				{
					"inputs": [
						{
							"internalType": "uint256",
							"name": "index",
							"type": "uint256"
						}
					],
					"name": "getCompanyExperience",
					"outputs": [
						{
							"internalType": "string",
							"name": "",
							"type": "string"
						},
						{
							"internalType": "string",
							"name": "",
							"type": "string"
						},
						{
							"internalType": "string",
							"name": "",
							"type": "string"
						},
						{
							"internalType": "string",
							"name": "",
							"type": "string"
						},
						{
							"internalType": "string[]",
							"name": "",
							"type": "string[]"
						}
					],
					"stateMutability": "view",
					"type": "function"
				},
				{
					"inputs": [],
					"name": "getCompanyExperienceCount",
					"outputs": [
						{
							"internalType": "uint256",
							"name": "",
							"type": "uint256"
						}
					],
					"stateMutability": "view",
					"type": "function"
				},
				{
					"inputs": [
						{
							"internalType": "uint256",
							"name": "index",
							"type": "uint256"
						}
					],
					"name": "getEducation",
					"outputs": [
						{
							"internalType": "string",
							"name": "",
							"type": "string"
						},
						{
							"internalType": "string",
							"name": "",
							"type": "string"
						},
						{
							"internalType": "string",
							"name": "",
							"type": "string"
						},
						{
							"internalType": "string",
							"name": "",
							"type": "string"
						},
						{
							"internalType": "string",
							"name": "",
							"type": "string"
						}
					],
					"stateMutability": "view",
					"type": "function"
				},
				{
					"inputs": [],
					"name": "getEducationCount",
					"outputs": [
						{
							"internalType": "uint256",
							"name": "",
							"type": "uint256"
						}
					],
					"stateMutability": "view",
					"type": "function"
				},
				{
					"inputs": [
						{
							"internalType": "uint256",
							"name": "index",
							"type": "uint256"
						}
					],
					"name": "getFreelanceExperience",
					"outputs": [
						{
							"internalType": "string",
							"name": "",
							"type": "string"
						},
						{
							"internalType": "string",
							"name": "",
							"type": "string"
						}
					],
					"stateMutability": "view",
					"type": "function"
				},
				{
					"inputs": [],
					"name": "getFreelanceExperienceCount",
					"outputs": [
						{
							"internalType": "uint256",
							"name": "",
							"type": "uint256"
						}
					],
					"stateMutability": "view",
					"type": "function"
				},
				{
					"inputs": [],
					"name": "myBalance",
					"outputs": [
						{
							"internalType": "uint256",
							"name": "",
							"type": "uint256"
						}
					],
					"stateMutability": "view",
					"type": "function"
				},
				{
					"inputs": [
						{
							"internalType": "address",
							"name": "",
							"type": "address"
						}
					],
					"name": "profile",
					"outputs": [
						{
							"components": [
								{
									"internalType": "string",
									"name": "aboutMe",
									"type": "string"
								},
								{
									"internalType": "string",
									"name": "position",
									"type": "string"
								},
								{
									"internalType": "address",
									"name": "userAddress",
									"type": "address"
								},
								{
									"internalType": "string",
									"name": "firstName",
									"type": "string"
								},
								{
									"internalType": "string",
									"name": "middleName",
									"type": "string"
								},
								{
									"internalType": "string",
									"name": "lastName",
									"type": "string"
								},
								{
									"internalType": "string",
									"name": "profileImage",
									"type": "string"
								},
								{
									"internalType": "uint256",
									"name": "createDate",
									"type": "uint256"
								}
							],
							"internalType": "struct Profile.Information",
							"name": "information",
							"type": "tuple"
						},
						{
							"components": [
								{
									"internalType": "string",
									"name": "aboutMe",
									"type": "string"
								},
								{
									"internalType": "string",
									"name": "email",
									"type": "string"
								},
								{
									"internalType": "string",
									"name": "phone",
									"type": "string"
								},
								{
									"internalType": "string",
									"name": "github",
									"type": "string"
								},
								{
									"internalType": "string",
									"name": "gitlab",
									"type": "string"
								},
								{
									"internalType": "string",
									"name": "linkedin",
									"type": "string"
								}
							],
							"internalType": "struct Profile.Contract",
							"name": "privateContract",
							"type": "tuple"
						},
						{
							"components": [
								{
									"internalType": "string[]",
									"name": "programmingLanguages",
									"type": "string[]"
								},
								{
									"internalType": "string[]",
									"name": "framework",
									"type": "string[]"
								},
								{
									"internalType": "string[]",
									"name": "databaseAndOther",
									"type": "string[]"
								}
							],
							"internalType": "struct Profile.Skill",
							"name": "skill",
							"type": "tuple"
						},
						{
							"components": [
								{
									"internalType": "string[]",
									"name": "certificate",
									"type": "string[]"
								},
								{
									"internalType": "string[]",
									"name": "award",
									"type": "string[]"
								}
							],
							"internalType": "struct Profile.CertificateAndAward",
							"name": "certificateAndAward",
							"type": "tuple"
						}
					],
					"stateMutability": "view",
					"type": "function"
				}
			],
			"devdoc": {
				"kind": "dev",
				"methods": {},
				"version": 1
			},
			"evm": {
				"assembly": "    /* \"contracts/Profile.sol\":60:7037  contract Profile {\r... */\n  mstore(0x40, 0x80)\n  callvalue\n  dup1\n  iszero\n  tag_1\n  jumpi\n  0x00\n  dup1\n  revert\ntag_1:\n  pop\n  dataSize(sub_0)\n  dup1\n  dataOffset(sub_0)\n  0x00\n  codecopy\n  0x00\n  return\nstop\n\nsub_0: assembly {\n        /* \"contracts/Profile.sol\":60:7037  contract Profile {\r... */\n      mstore(0x40, 0x80)\n      callvalue\n      dup1\n      iszero\n      tag_1\n      jumpi\n      0x00\n      dup1\n      revert\n    tag_1:\n      pop\n      jumpi(tag_2, lt(calldatasize, 0x04))\n      shr(0xe0, calldataload(0x00))\n      dup1\n      0x72828388\n      gt\n      tag_24\n      jumpi\n      dup1\n      0xc8ae20ff\n      gt\n      tag_25\n      jumpi\n      dup1\n      0xc8ae20ff\n      eq\n      tag_18\n      jumpi\n      dup1\n      0xc9116b69\n      eq\n      tag_19\n      jumpi\n      dup1\n      0xeb409730\n      eq\n      tag_20\n      jumpi\n      dup1\n      0xed2217ef\n      eq\n      tag_21\n      jumpi\n      dup1\n      0xf96e32f8\n      eq\n      tag_22\n      jumpi\n      dup1\n      0xfabce08f\n      eq\n      tag_23\n      jumpi\n      jump(tag_2)\n    tag_25:\n      dup1\n      0x72828388\n      eq\n      tag_13\n      jumpi\n      dup1\n      0x958791ae\n      eq\n      tag_14\n      jumpi\n      dup1\n      0x95ea3757\n      eq\n      tag_15\n      jumpi\n      dup1\n      0x9dd9d0fd\n      eq\n      tag_16\n      jumpi\n      dup1\n      0xb240c619\n      eq\n      tag_17\n      jumpi\n      jump(tag_2)\n    tag_24:\n      dup1\n      0x420d8667\n      gt\n      tag_26\n      jumpi\n      dup1\n      0x420d8667\n      eq\n      tag_8\n      jumpi\n      dup1\n      0x47282f47\n      eq\n      tag_9\n      jumpi\n      dup1\n      0x4ed74067\n      eq\n      tag_10\n      jumpi\n      dup1\n      0x6212fa02\n      eq\n      tag_11\n      jumpi\n      dup1\n      0x6c2cc774\n      eq\n      tag_12\n      jumpi\n      jump(tag_2)\n    tag_26:\n      dup1\n      0x10301638\n      eq\n      tag_3\n      jumpi\n      dup1\n      0x119d4cac\n      eq\n      tag_4\n      jumpi\n      dup1\n      0x2a70da29\n      eq\n      tag_5\n      jumpi\n      dup1\n      0x322a9849\n      eq\n      tag_6\n      jumpi\n      dup1\n      0x3d984d0e\n      eq\n      tag_7\n      jumpi\n    tag_2:\n      0x00\n      dup1\n      revert\n        /* \"contracts/Profile.sol\":5120:5258  function getFreelanceExperienceCount() public view returns (uint) {\r... */\n    tag_3:\n      tag_27\n      tag_28\n      jump\t// in\n    tag_27:\n      mload(0x40)\n      tag_29\n      swap2\n      swap1\n      tag_30\n      jump\t// in\n    tag_29:\n      mload(0x40)\n      dup1\n      swap2\n      sub\n      swap1\n      return\n        /* \"contracts/Profile.sol\":6814:6922  function delFreelanceExperience() external {\r... */\n    tag_4:\n      tag_31\n      tag_32\n      jump\t// in\n    tag_31:\n      stop\n        /* \"contracts/Profile.sol\":5266:5814  function createCompanyExperience(string memory companyName, string memory position, string memory startDate, string memory endDate, string[] memory project) public {\r... */\n    tag_5:\n      tag_33\n      0x04\n      dup1\n      calldatasize\n      sub\n      dup2\n      add\n      swap1\n      tag_34\n      swap2\n      swap1\n      tag_35\n      jump\t// in\n    tag_34:\n      tag_36\n      jump\t// in\n    tag_33:\n      stop\n        /* \"contracts/Profile.sol\":4531:4869  function createFreelanceExperience(string memory projectName, string memory Detail) public {\r... */\n    tag_6:\n      tag_37\n      0x04\n      dup1\n      calldatasize\n      sub\n      dup2\n      add\n      swap1\n      tag_38\n      swap2\n      swap1\n      tag_39\n      jump\t// in\n    tag_38:\n      tag_40\n      jump\t// in\n    tag_37:\n      stop\n        /* \"contracts/Profile.sol\":2894:3282  function createSkill(string[] memory programmingLanguages, string[] memory framework, string[] memory databaseAndOther) public {\r... */\n    tag_7:\n      tag_41\n      0x04\n      dup1\n      calldatasize\n      sub\n      dup2\n      add\n      swap1\n      tag_42\n      swap2\n      swap1\n      tag_43\n      jump\t// in\n    tag_42:\n      tag_44\n      jump\t// in\n    tag_41:\n      stop\n        /* \"contracts/Profile.sol\":6272:6406  function getCompanyExperienceCount() public view returns (uint) {\r... */\n    tag_8:\n      tag_45\n      tag_46\n      jump\t// in\n    tag_45:\n      mload(0x40)\n      tag_47\n      swap2\n      swap1\n      tag_30\n      jump\t// in\n    tag_47:\n      mload(0x40)\n      dup1\n      swap2\n      sub\n      swap1\n      return\n        /* \"contracts/Profile.sol\":5822:6264  function getCompanyExperience(uint index) public view returns(string memory, string memory, string memory, string memory, string[] memory) {\r... */\n    tag_9:\n      tag_48\n      0x04\n      dup1\n      calldatasize\n      sub\n      dup2\n      add\n      swap1\n      tag_49\n      swap2\n      swap1\n      tag_50\n      jump\t// in\n    tag_49:\n      tag_51\n      jump\t// in\n    tag_48:\n      mload(0x40)\n      tag_52\n      swap6\n      swap5\n      swap4\n      swap3\n      swap2\n      swap1\n      tag_53\n      jump\t// in\n    tag_52:\n      mload(0x40)\n      dup1\n      swap2\n      sub\n      swap1\n      return\n        /* \"contracts/Profile.sol\":6698:6806  function delCertificateAndAward() external {\r... */\n    tag_10:\n      tag_54\n      tag_55\n      jump\t// in\n    tag_54:\n      stop\n        /* \"contracts/Profile.sol\":4169:4287  function getEducationCount() public view returns (uint) {\r... */\n    tag_11:\n      tag_56\n      tag_57\n      jump\t// in\n    tag_56:\n      mload(0x40)\n      tag_58\n      swap2\n      swap1\n      tag_30\n      jump\t// in\n    tag_58:\n      mload(0x40)\n      dup1\n      swap2\n      sub\n      swap1\n      return\n        /* \"contracts/Profile.sol\":4295:4523  function createAward(string[] memory award, string[] memory certificate) public {\r... */\n    tag_12:\n      tag_59\n      0x04\n      dup1\n      calldatasize\n      sub\n      dup2\n      add\n      swap1\n      tag_60\n      swap2\n      swap1\n      tag_61\n      jump\t// in\n    tag_60:\n      tag_62\n      jump\t// in\n    tag_59:\n      stop\n        /* \"contracts/Profile.sol\":2374:2886  function createContract(string memory email, string memory phone, string memory github, string memory gitlab, string memory linkedin) public {\r... */\n    tag_13:\n      tag_63\n      0x04\n      dup1\n      calldatasize\n      sub\n      dup2\n      add\n      swap1\n      tag_64\n      swap2\n      swap1\n      tag_65\n      jump\t// in\n    tag_64:\n      tag_66\n      jump\t// in\n    tag_63:\n      stop\n        /* \"contracts/Profile.sol\":1650:2366  function createInformation(string memory firstName, string memory middleName, string memory lastName,  string memory profileImage, string memory aboutMe, string memory position) public {\r... */\n    tag_14:\n      tag_67\n      0x04\n      dup1\n      calldatasize\n      sub\n      dup2\n      add\n      swap1\n      tag_68\n      swap2\n      swap1\n      tag_69\n      jump\t// in\n    tag_68:\n      tag_70\n      jump\t// in\n    tag_67:\n      stop\n        /* \"contracts/Profile.sol\":6514:6606  function delInformaion() external  {\r... */\n    tag_15:\n      tag_71\n      tag_72\n      jump\t// in\n    tag_71:\n      stop\n        /* \"contracts/Profile.sol\":384:424  mapping (address => Bio) public  profile */\n    tag_16:\n      tag_73\n      0x04\n      dup1\n      calldatasize\n      sub\n      dup2\n      add\n      swap1\n      tag_74\n      swap2\n      swap1\n      tag_75\n      jump\t// in\n    tag_74:\n      tag_76\n      jump\t// in\n    tag_73:\n      mload(0x40)\n      tag_77\n      swap5\n      swap4\n      swap3\n      swap2\n      swap1\n      tag_78\n      jump\t// in\n    tag_77:\n      mload(0x40)\n      dup1\n      swap2\n      sub\n      swap1\n      return\n        /* \"contracts/Profile.sol\":6930:7034  function delCompanyExperience() external {\r... */\n    tag_17:\n      tag_79\n      tag_80\n      jump\t// in\n    tag_79:\n      stop\n        /* \"contracts/Profile.sol\":3290:3759  function createEducation(string memory startDate, string memory endDate, string memory university, string memory major, string memory finalProject) public {\r... */\n    tag_18:\n      tag_81\n      0x04\n      dup1\n      calldatasize\n      sub\n      dup2\n      add\n      swap1\n      tag_82\n      swap2\n      swap1\n      tag_65\n      jump\t// in\n    tag_82:\n      tag_83\n      jump\t// in\n    tag_81:\n      stop\n        /* \"contracts/Profile.sol\":1536:1638  function myBalance() public view returns(uint256){\r... */\n    tag_19:\n      tag_84\n      tag_85\n      jump\t// in\n    tag_84:\n      mload(0x40)\n      tag_86\n      swap2\n      swap1\n      tag_30\n      jump\t// in\n    tag_86:\n      mload(0x40)\n      dup1\n      swap2\n      sub\n      swap1\n      return\n        /* \"contracts/Profile.sol\":4877:5112  function getFreelanceExperience(uint index) public view returns(string memory, string memory) {\r... */\n    tag_20:\n      tag_87\n      0x04\n      dup1\n      calldatasize\n      sub\n      dup2\n      add\n      swap1\n      tag_88\n      swap2\n      swap1\n      tag_50\n      jump\t// in\n    tag_88:\n      tag_89\n      jump\t// in\n    tag_87:\n      mload(0x40)\n      tag_90\n      swap3\n      swap2\n      swap1\n      tag_91\n      jump\t// in\n    tag_90:\n      mload(0x40)\n      dup1\n      swap2\n      sub\n      swap1\n      return\n        /* \"contracts/Profile.sol\":6414:6506  function delAllEducation() external  {\r... */\n    tag_21:\n      tag_92\n      tag_93\n      jump\t// in\n    tag_92:\n      stop\n        /* \"contracts/Profile.sol\":3768:4161  function getEducation(uint index) public view returns(string memory, string memory, string memory, string memory, string memory) {\r... */\n    tag_22:\n      tag_94\n      0x04\n      dup1\n      calldatasize\n      sub\n      dup2\n      add\n      swap1\n      tag_95\n      swap2\n      swap1\n      tag_50\n      jump\t// in\n    tag_95:\n      tag_96\n      jump\t// in\n    tag_94:\n      mload(0x40)\n      tag_97\n      swap6\n      swap5\n      swap4\n      swap3\n      swap2\n      swap1\n      tag_98\n      jump\t// in\n    tag_97:\n      mload(0x40)\n      dup1\n      swap2\n      sub\n      swap1\n      return\n        /* \"contracts/Profile.sol\":6614:6690  function delProfile() external {\r... */\n    tag_23:\n      tag_99\n      tag_100\n      jump\t// in\n    tag_99:\n      stop\n        /* \"contracts/Profile.sol\":5120:5258  function getFreelanceExperienceCount() public view returns (uint) {\r... */\n    tag_28:\n        /* \"contracts/Profile.sol\":5180:5184  uint */\n      0x00\n        /* \"contracts/Profile.sol\":5204:5211  profile */\n      dup1\n        /* \"contracts/Profile.sol\":5204:5223  profile[msg.sender] */\n      0x00\n        /* \"contracts/Profile.sol\":5212:5222  msg.sender */\n      caller\n        /* \"contracts/Profile.sol\":5204:5223  profile[msg.sender] */\n      0xffffffffffffffffffffffffffffffffffffffff\n      and\n      0xffffffffffffffffffffffffffffffffffffffff\n      and\n      dup2\n      mstore\n      0x20\n      add\n      swap1\n      dup2\n      mstore\n      0x20\n      add\n      0x00\n      keccak256\n        /* \"contracts/Profile.sol\":5204:5243  profile[msg.sender].freelanceExperience */\n      0x15\n      add\n        /* \"contracts/Profile.sol\":5204:5250  profile[msg.sender].freelanceExperience.length */\n      dup1\n      sload\n      swap1\n      pop\n        /* \"contracts/Profile.sol\":5197:5250  return profile[msg.sender].freelanceExperience.length */\n      swap1\n      pop\n        /* \"contracts/Profile.sol\":5120:5258  function getFreelanceExperienceCount() public view returns (uint) {\r... */\n      swap1\n      jump\t// out\n        /* \"contracts/Profile.sol\":6814:6922  function delFreelanceExperience() external {\r... */\n    tag_32:\n        /* \"contracts/Profile.sol\":6875:6882  profile */\n      0x00\n        /* \"contracts/Profile.sol\":6875:6894  profile[msg.sender] */\n      dup1\n        /* \"contracts/Profile.sol\":6883:6893  msg.sender */\n      caller\n        /* \"contracts/Profile.sol\":6875:6894  profile[msg.sender] */\n      0xffffffffffffffffffffffffffffffffffffffff\n      and\n      0xffffffffffffffffffffffffffffffffffffffff\n      and\n      dup2\n      mstore\n      0x20\n      add\n      swap1\n      dup2\n      mstore\n      0x20\n      add\n      0x00\n      keccak256\n        /* \"contracts/Profile.sol\":6875:6914  profile[msg.sender].freelanceExperience */\n      0x15\n      add\n      0x00\n        /* \"contracts/Profile.sol\":6868:6914  delete profile[msg.sender].freelanceExperience */\n      tag_103\n      swap2\n      swap1\n      tag_104\n      jump\t// in\n    tag_103:\n        /* \"contracts/Profile.sol\":6814:6922  function delFreelanceExperience() external {\r... */\n      jump\t// out\n        /* \"contracts/Profile.sol\":5266:5814  function createCompanyExperience(string memory companyName, string memory position, string memory startDate, string memory endDate, string[] memory project) public {\r... */\n    tag_36:\n        /* \"contracts/Profile.sol\":5441:5484  CompanyExperience memory _companyExperience */\n      tag_106\n      tag_107\n      jump\t// in\n    tag_106:\n        /* \"contracts/Profile.sol\":5528:5539  companyName */\n      dup6\n        /* \"contracts/Profile.sol\":5495:5513  _companyExperience */\n      dup2\n        /* \"contracts/Profile.sol\":5495:5525  _companyExperience.companyName */\n      0x00\n      add\n        /* \"contracts/Profile.sol\":5495:5539  _companyExperience.companyName = companyName */\n      dup2\n      swap1\n      mstore\n      pop\n        /* \"contracts/Profile.sol\":5580:5588  position */\n      dup5\n        /* \"contracts/Profile.sol\":5550:5568  _companyExperience */\n      dup2\n        /* \"contracts/Profile.sol\":5550:5577  _companyExperience.position */\n      0x20\n      add\n        /* \"contracts/Profile.sol\":5550:5588  _companyExperience.position = position */\n      dup2\n      swap1\n      mstore\n      pop\n        /* \"contracts/Profile.sol\":5630:5639  startDate */\n      dup4\n        /* \"contracts/Profile.sol\":5599:5617  _companyExperience */\n      dup2\n        /* \"contracts/Profile.sol\":5599:5627  _companyExperience.startDate */\n      0x40\n      add\n        /* \"contracts/Profile.sol\":5599:5639  _companyExperience.startDate = startDate */\n      dup2\n      swap1\n      mstore\n      pop\n        /* \"contracts/Profile.sol\":5679:5686  endDate */\n      dup3\n        /* \"contracts/Profile.sol\":5650:5668  _companyExperience */\n      dup2\n        /* \"contracts/Profile.sol\":5650:5676  _companyExperience.endDate */\n      0x60\n      add\n        /* \"contracts/Profile.sol\":5650:5686  _companyExperience.endDate = endDate */\n      dup2\n      swap1\n      mstore\n      pop\n        /* \"contracts/Profile.sol\":5726:5733  project */\n      dup2\n        /* \"contracts/Profile.sol\":5697:5715  _companyExperience */\n      dup2\n        /* \"contracts/Profile.sol\":5697:5723  _companyExperience.project */\n      0x80\n      add\n        /* \"contracts/Profile.sol\":5697:5733  _companyExperience.project = project */\n      dup2\n      swap1\n      mstore\n      pop\n        /* \"contracts/Profile.sol\":5744:5751  profile */\n      0x00\n        /* \"contracts/Profile.sol\":5744:5763  profile[msg.sender] */\n      dup1\n        /* \"contracts/Profile.sol\":5752:5762  msg.sender */\n      caller\n        /* \"contracts/Profile.sol\":5744:5763  profile[msg.sender] */\n      0xffffffffffffffffffffffffffffffffffffffff\n      and\n      0xffffffffffffffffffffffffffffffffffffffff\n      and\n      dup2\n      mstore\n      0x20\n      add\n      swap1\n      dup2\n      mstore\n      0x20\n      add\n      0x00\n      keccak256\n        /* \"contracts/Profile.sol\":5744:5781  profile[msg.sender].companyExperience */\n      0x14\n      add\n        /* \"contracts/Profile.sol\":5787:5805  _companyExperience */\n      dup2\n        /* \"contracts/Profile.sol\":5744:5806  profile[msg.sender].companyExperience.push(_companyExperience) */\n      swap1\n      dup1\n      0x01\n      dup2\n      sload\n      add\n      dup1\n      dup3\n      sstore\n      dup1\n      swap2\n      pop\n      pop\n      0x01\n      swap1\n      sub\n      swap1\n      0x00\n      mstore\n      keccak256(0x00, 0x20)\n      swap1\n      0x05\n      mul\n      add\n      0x00\n      swap1\n      swap2\n      swap1\n      swap2\n      swap1\n      swap2\n      pop\n      0x00\n      dup3\n      add\n      mload\n      dup2\n      0x00\n      add\n      swap1\n      dup1\n      mload\n      swap1\n      0x20\n      add\n      swap1\n      tag_109\n      swap3\n      swap2\n      swap1\n      tag_110\n      jump\t// in\n    tag_109:\n      pop\n      0x20\n      dup3\n      add\n      mload\n      dup2\n      0x01\n      add\n      swap1\n      dup1\n      mload\n      swap1\n      0x20\n      add\n      swap1\n      tag_111\n      swap3\n      swap2\n      swap1\n      tag_110\n      jump\t// in\n    tag_111:\n      pop\n      0x40\n      dup3\n      add\n      mload\n      dup2\n      0x02\n      add\n      swap1\n      dup1\n      mload\n      swap1\n      0x20\n      add\n      swap1\n      tag_112\n      swap3\n      swap2\n      swap1\n      tag_110\n      jump\t// in\n    tag_112:\n      pop\n      0x60\n      dup3\n      add\n      mload\n      dup2\n      0x03\n      add\n      swap1\n      dup1\n      mload\n      swap1\n      0x20\n      add\n      swap1\n      tag_113\n      swap3\n      swap2\n      swap1\n      tag_110\n      jump\t// in\n    tag_113:\n      pop\n      0x80\n      dup3\n      add\n      mload\n      dup2\n      0x04\n      add\n      swap1\n      dup1\n      mload\n      swap1\n      0x20\n      add\n      swap1\n      tag_114\n      swap3\n      swap2\n      swap1\n      tag_115\n      jump\t// in\n    tag_114:\n      pop\n      pop\n      pop\n        /* \"contracts/Profile.sol\":5430:5814  {\r... */\n      pop\n        /* \"contracts/Profile.sol\":5266:5814  function createCompanyExperience(string memory companyName, string memory position, string memory startDate, string memory endDate, string[] memory project) public {\r... */\n      pop\n      pop\n      pop\n      pop\n      pop\n      jump\t// out\n        /* \"contracts/Profile.sol\":4531:4869  function createFreelanceExperience(string memory projectName, string memory Detail) public {\r... */\n    tag_40:\n        /* \"contracts/Profile.sol\":4633:4680  FreelanceExperience memory _freelanceExperience */\n      tag_117\n      tag_118\n      jump\t// in\n    tag_117:\n        /* \"contracts/Profile.sol\":4726:4737  projectName */\n      dup3\n        /* \"contracts/Profile.sol\":4691:4711  _freelanceExperience */\n      dup2\n        /* \"contracts/Profile.sol\":4691:4723  _freelanceExperience.projectName */\n      0x00\n      add\n        /* \"contracts/Profile.sol\":4691:4737  _freelanceExperience.projectName = projectName */\n      dup2\n      swap1\n      mstore\n      pop\n        /* \"contracts/Profile.sol\":4778:4784  Detail */\n      dup2\n        /* \"contracts/Profile.sol\":4748:4768  _freelanceExperience */\n      dup2\n        /* \"contracts/Profile.sol\":4748:4775  _freelanceExperience.Detail */\n      0x20\n      add\n        /* \"contracts/Profile.sol\":4748:4784  _freelanceExperience.Detail = Detail */\n      dup2\n      swap1\n      mstore\n      pop\n        /* \"contracts/Profile.sol\":4795:4802  profile */\n      0x00\n        /* \"contracts/Profile.sol\":4795:4814  profile[msg.sender] */\n      dup1\n        /* \"contracts/Profile.sol\":4803:4813  msg.sender */\n      caller\n        /* \"contracts/Profile.sol\":4795:4814  profile[msg.sender] */\n      0xffffffffffffffffffffffffffffffffffffffff\n      and\n      0xffffffffffffffffffffffffffffffffffffffff\n      and\n      dup2\n      mstore\n      0x20\n      add\n      swap1\n      dup2\n      mstore\n      0x20\n      add\n      0x00\n      keccak256\n        /* \"contracts/Profile.sol\":4795:4834  profile[msg.sender].freelanceExperience */\n      0x15\n      add\n        /* \"contracts/Profile.sol\":4840:4860  _freelanceExperience */\n      dup2\n        /* \"contracts/Profile.sol\":4795:4861  profile[msg.sender].freelanceExperience.push(_freelanceExperience) */\n      swap1\n      dup1\n      0x01\n      dup2\n      sload\n      add\n      dup1\n      dup3\n      sstore\n      dup1\n      swap2\n      pop\n      pop\n      0x01\n      swap1\n      sub\n      swap1\n      0x00\n      mstore\n      keccak256(0x00, 0x20)\n      swap1\n      0x02\n      mul\n      add\n      0x00\n      swap1\n      swap2\n      swap1\n      swap2\n      swap1\n      swap2\n      pop\n      0x00\n      dup3\n      add\n      mload\n      dup2\n      0x00\n      add\n      swap1\n      dup1\n      mload\n      swap1\n      0x20\n      add\n      swap1\n      tag_120\n      swap3\n      swap2\n      swap1\n      tag_110\n      jump\t// in\n    tag_120:\n      pop\n      0x20\n      dup3\n      add\n      mload\n      dup2\n      0x01\n      add\n      swap1\n      dup1\n      mload\n      swap1\n      0x20\n      add\n      swap1\n      tag_121\n      swap3\n      swap2\n      swap1\n      tag_110\n      jump\t// in\n    tag_121:\n      pop\n      pop\n      pop\n        /* \"contracts/Profile.sol\":4622:4869  {\r... */\n      pop\n        /* \"contracts/Profile.sol\":4531:4869  function createFreelanceExperience(string memory projectName, string memory Detail) public {\r... */\n      pop\n      pop\n      jump\t// out\n        /* \"contracts/Profile.sol\":2894:3282  function createSkill(string[] memory programmingLanguages, string[] memory framework, string[] memory databaseAndOther) public {\r... */\n    tag_44:\n        /* \"contracts/Profile.sol\":3039:3046  profile */\n      0x00\n        /* \"contracts/Profile.sol\":3039:3058  profile[msg.sender] */\n      dup1\n        /* \"contracts/Profile.sol\":3047:3057  msg.sender */\n      caller\n        /* \"contracts/Profile.sol\":3039:3058  profile[msg.sender] */\n      0xffffffffffffffffffffffffffffffffffffffff\n      and\n      0xffffffffffffffffffffffffffffffffffffffff\n      and\n      dup2\n      mstore\n      0x20\n      add\n      swap1\n      dup2\n      mstore\n      0x20\n      add\n      0x00\n      keccak256\n        /* \"contracts/Profile.sol\":3039:3064  profile[msg.sender].skill */\n      0x0e\n      add\n      0x00\n        /* \"contracts/Profile.sol\":3032:3064  delete profile[msg.sender].skill */\n      dup1\n      dup3\n      add\n      0x00\n      tag_123\n      swap2\n      swap1\n      tag_124\n      jump\t// in\n    tag_123:\n      0x01\n      dup3\n      add\n      0x00\n      tag_125\n      swap2\n      swap1\n      tag_124\n      jump\t// in\n    tag_125:\n      0x02\n      dup3\n      add\n      0x00\n      tag_126\n      swap2\n      swap1\n      tag_124\n      jump\t// in\n    tag_126:\n      pop\n      pop\n        /* \"contracts/Profile.sol\":3124:3144  programmingLanguages */\n      dup3\n        /* \"contracts/Profile.sol\":3075:3082  profile */\n      0x00\n        /* \"contracts/Profile.sol\":3075:3094  profile[msg.sender] */\n      dup1\n        /* \"contracts/Profile.sol\":3083:3093  msg.sender */\n      caller\n        /* \"contracts/Profile.sol\":3075:3094  profile[msg.sender] */\n      0xffffffffffffffffffffffffffffffffffffffff\n      and\n      0xffffffffffffffffffffffffffffffffffffffff\n      and\n      dup2\n      mstore\n      0x20\n      add\n      swap1\n      dup2\n      mstore\n      0x20\n      add\n      0x00\n      keccak256\n        /* \"contracts/Profile.sol\":3075:3100  profile[msg.sender].skill */\n      0x0e\n      add\n        /* \"contracts/Profile.sol\":3075:3121  profile[msg.sender].skill.programmingLanguages */\n      0x00\n      add\n        /* \"contracts/Profile.sol\":3075:3144  profile[msg.sender].skill.programmingLanguages = programmingLanguages */\n      swap1\n      dup1\n      mload\n      swap1\n      0x20\n      add\n      swap1\n      tag_127\n      swap3\n      swap2\n      swap1\n      tag_115\n      jump\t// in\n    tag_127:\n      pop\n        /* \"contracts/Profile.sol\":3193:3202  framework */\n      dup2\n        /* \"contracts/Profile.sol\":3155:3162  profile */\n      0x00\n        /* \"contracts/Profile.sol\":3155:3174  profile[msg.sender] */\n      dup1\n        /* \"contracts/Profile.sol\":3163:3173  msg.sender */\n      caller\n        /* \"contracts/Profile.sol\":3155:3174  profile[msg.sender] */\n      0xffffffffffffffffffffffffffffffffffffffff\n      and\n      0xffffffffffffffffffffffffffffffffffffffff\n      and\n      dup2\n      mstore\n      0x20\n      add\n      swap1\n      dup2\n      mstore\n      0x20\n      add\n      0x00\n      keccak256\n        /* \"contracts/Profile.sol\":3155:3180  profile[msg.sender].skill */\n      0x0e\n      add\n        /* \"contracts/Profile.sol\":3155:3190  profile[msg.sender].skill.framework */\n      0x01\n      add\n        /* \"contracts/Profile.sol\":3155:3202  profile[msg.sender].skill.framework = framework */\n      swap1\n      dup1\n      mload\n      swap1\n      0x20\n      add\n      swap1\n      tag_128\n      swap3\n      swap2\n      swap1\n      tag_115\n      jump\t// in\n    tag_128:\n      pop\n        /* \"contracts/Profile.sol\":3258:3274  databaseAndOther */\n      dup1\n        /* \"contracts/Profile.sol\":3213:3220  profile */\n      0x00\n        /* \"contracts/Profile.sol\":3213:3232  profile[msg.sender] */\n      dup1\n        /* \"contracts/Profile.sol\":3221:3231  msg.sender */\n      caller\n        /* \"contracts/Profile.sol\":3213:3232  profile[msg.sender] */\n      0xffffffffffffffffffffffffffffffffffffffff\n      and\n      0xffffffffffffffffffffffffffffffffffffffff\n      and\n      dup2\n      mstore\n      0x20\n      add\n      swap1\n      dup2\n      mstore\n      0x20\n      add\n      0x00\n      keccak256\n        /* \"contracts/Profile.sol\":3213:3238  profile[msg.sender].skill */\n      0x0e\n      add\n        /* \"contracts/Profile.sol\":3213:3255  profile[msg.sender].skill.databaseAndOther */\n      0x02\n      add\n        /* \"contracts/Profile.sol\":3213:3274  profile[msg.sender].skill.databaseAndOther = databaseAndOther */\n      swap1\n      dup1\n      mload\n      swap1\n      0x20\n      add\n      swap1\n      tag_129\n      swap3\n      swap2\n      swap1\n      tag_115\n      jump\t// in\n    tag_129:\n      pop\n        /* \"contracts/Profile.sol\":2894:3282  function createSkill(string[] memory programmingLanguages, string[] memory framework, string[] memory databaseAndOther) public {\r... */\n      pop\n      pop\n      pop\n      jump\t// out\n        /* \"contracts/Profile.sol\":6272:6406  function getCompanyExperienceCount() public view returns (uint) {\r... */\n    tag_46:\n        /* \"contracts/Profile.sol\":6330:6334  uint */\n      0x00\n        /* \"contracts/Profile.sol\":6354:6361  profile */\n      dup1\n        /* \"contracts/Profile.sol\":6354:6373  profile[msg.sender] */\n      0x00\n        /* \"contracts/Profile.sol\":6362:6372  msg.sender */\n      caller\n        /* \"contracts/Profile.sol\":6354:6373  profile[msg.sender] */\n      0xffffffffffffffffffffffffffffffffffffffff\n      and\n      0xffffffffffffffffffffffffffffffffffffffff\n      and\n      dup2\n      mstore\n      0x20\n      add\n      swap1\n      dup2\n      mstore\n      0x20\n      add\n      0x00\n      keccak256\n        /* \"contracts/Profile.sol\":6354:6391  profile[msg.sender].companyExperience */\n      0x14\n      add\n        /* \"contracts/Profile.sol\":6354:6398  profile[msg.sender].companyExperience.length */\n      dup1\n      sload\n      swap1\n      pop\n        /* \"contracts/Profile.sol\":6347:6398  return profile[msg.sender].companyExperience.length */\n      swap1\n      pop\n        /* \"contracts/Profile.sol\":6272:6406  function getCompanyExperienceCount() public view returns (uint) {\r... */\n      swap1\n      jump\t// out\n        /* \"contracts/Profile.sol\":5822:6264  function getCompanyExperience(uint index) public view returns(string memory, string memory, string memory, string memory, string[] memory) {\r... */\n    tag_51:\n        /* \"contracts/Profile.sol\":5884:5897  string memory */\n      0x60\n        /* \"contracts/Profile.sol\":5899:5912  string memory */\n      dup1\n        /* \"contracts/Profile.sol\":5914:5927  string memory */\n      0x60\n        /* \"contracts/Profile.sol\":5929:5942  string memory */\n      dup1\n        /* \"contracts/Profile.sol\":5944:5959  string[] memory */\n      0x60\n        /* \"contracts/Profile.sol\":5980:5987  profile */\n      0x00\n        /* \"contracts/Profile.sol\":5980:5999  profile[msg.sender] */\n      dup1\n        /* \"contracts/Profile.sol\":5988:5998  msg.sender */\n      caller\n        /* \"contracts/Profile.sol\":5980:5999  profile[msg.sender] */\n      0xffffffffffffffffffffffffffffffffffffffff\n      and\n      0xffffffffffffffffffffffffffffffffffffffff\n      and\n      dup2\n      mstore\n      0x20\n      add\n      swap1\n      dup2\n      mstore\n      0x20\n      add\n      0x00\n      keccak256\n        /* \"contracts/Profile.sol\":5980:6017  profile[msg.sender].companyExperience */\n      0x14\n      add\n        /* \"contracts/Profile.sol\":6018:6023  index */\n      dup7\n        /* \"contracts/Profile.sol\":5980:6024  profile[msg.sender].companyExperience[index] */\n      dup2\n      sload\n      dup2\n      lt\n      tag_132\n      jumpi\n      tag_133\n      tag_134\n      jump\t// in\n    tag_133:\n    tag_132:\n      swap1\n      0x00\n      mstore\n      keccak256(0x00, 0x20)\n      swap1\n      0x05\n      mul\n      add\n        /* \"contracts/Profile.sol\":5980:6036  profile[msg.sender].companyExperience[index].companyName */\n      0x00\n      add\n        /* \"contracts/Profile.sol\":6038:6045  profile */\n      0x00\n        /* \"contracts/Profile.sol\":6038:6057  profile[msg.sender] */\n      dup1\n        /* \"contracts/Profile.sol\":6046:6056  msg.sender */\n      caller\n        /* \"contracts/Profile.sol\":6038:6057  profile[msg.sender] */\n      0xffffffffffffffffffffffffffffffffffffffff\n      and\n      0xffffffffffffffffffffffffffffffffffffffff\n      and\n      dup2\n      mstore\n      0x20\n      add\n      swap1\n      dup2\n      mstore\n      0x20\n      add\n      0x00\n      keccak256\n        /* \"contracts/Profile.sol\":6038:6075  profile[msg.sender].companyExperience */\n      0x14\n      add\n        /* \"contracts/Profile.sol\":6076:6081  index */\n      dup8\n        /* \"contracts/Profile.sol\":6038:6082  profile[msg.sender].companyExperience[index] */\n      dup2\n      sload\n      dup2\n      lt\n      tag_136\n      jumpi\n      tag_137\n      tag_134\n      jump\t// in\n    tag_137:\n    tag_136:\n      swap1\n      0x00\n      mstore\n      keccak256(0x00, 0x20)\n      swap1\n      0x05\n      mul\n      add\n        /* \"contracts/Profile.sol\":6038:6091  profile[msg.sender].companyExperience[index].position */\n      0x01\n      add\n        /* \"contracts/Profile.sol\":6093:6100  profile */\n      0x00\n        /* \"contracts/Profile.sol\":6093:6112  profile[msg.sender] */\n      dup1\n        /* \"contracts/Profile.sol\":6101:6111  msg.sender */\n      caller\n        /* \"contracts/Profile.sol\":6093:6112  profile[msg.sender] */\n      0xffffffffffffffffffffffffffffffffffffffff\n      and\n      0xffffffffffffffffffffffffffffffffffffffff\n      and\n      dup2\n      mstore\n      0x20\n      add\n      swap1\n      dup2\n      mstore\n      0x20\n      add\n      0x00\n      keccak256\n        /* \"contracts/Profile.sol\":6093:6130  profile[msg.sender].companyExperience */\n      0x14\n      add\n        /* \"contracts/Profile.sol\":6131:6136  index */\n      dup9\n        /* \"contracts/Profile.sol\":6093:6137  profile[msg.sender].companyExperience[index] */\n      dup2\n      sload\n      dup2\n      lt\n      tag_139\n      jumpi\n      tag_140\n      tag_134\n      jump\t// in\n    tag_140:\n    tag_139:\n      swap1\n      0x00\n      mstore\n      keccak256(0x00, 0x20)\n      swap1\n      0x05\n      mul\n      add\n        /* \"contracts/Profile.sol\":6093:6147  profile[msg.sender].companyExperience[index].startDate */\n      0x02\n      add\n        /* \"contracts/Profile.sol\":6149:6156  profile */\n      0x00\n        /* \"contracts/Profile.sol\":6149:6168  profile[msg.sender] */\n      dup1\n        /* \"contracts/Profile.sol\":6157:6167  msg.sender */\n      caller\n        /* \"contracts/Profile.sol\":6149:6168  profile[msg.sender] */\n      0xffffffffffffffffffffffffffffffffffffffff\n      and\n      0xffffffffffffffffffffffffffffffffffffffff\n      and\n      dup2\n      mstore\n      0x20\n      add\n      swap1\n      dup2\n      mstore\n      0x20\n      add\n      0x00\n      keccak256\n        /* \"contracts/Profile.sol\":6149:6186  profile[msg.sender].companyExperience */\n      0x14\n      add\n        /* \"contracts/Profile.sol\":6187:6192  index */\n      dup10\n        /* \"contracts/Profile.sol\":6149:6193  profile[msg.sender].companyExperience[index] */\n      dup2\n      sload\n      dup2\n      lt\n      tag_142\n      jumpi\n      tag_143\n      tag_134\n      jump\t// in\n    tag_143:\n    tag_142:\n      swap1\n      0x00\n      mstore\n      keccak256(0x00, 0x20)\n      swap1\n      0x05\n      mul\n      add\n        /* \"contracts/Profile.sol\":6149:6201  profile[msg.sender].companyExperience[index].endDate */\n      0x03\n      add\n        /* \"contracts/Profile.sol\":6203:6210  profile */\n      0x00\n        /* \"contracts/Profile.sol\":6203:6222  profile[msg.sender] */\n      dup1\n        /* \"contracts/Profile.sol\":6211:6221  msg.sender */\n      caller\n        /* \"contracts/Profile.sol\":6203:6222  profile[msg.sender] */\n      0xffffffffffffffffffffffffffffffffffffffff\n      and\n      0xffffffffffffffffffffffffffffffffffffffff\n      and\n      dup2\n      mstore\n      0x20\n      add\n      swap1\n      dup2\n      mstore\n      0x20\n      add\n      0x00\n      keccak256\n        /* \"contracts/Profile.sol\":6203:6240  profile[msg.sender].companyExperience */\n      0x14\n      add\n        /* \"contracts/Profile.sol\":6241:6246  index */\n      dup11\n        /* \"contracts/Profile.sol\":6203:6247  profile[msg.sender].companyExperience[index] */\n      dup2\n      sload\n      dup2\n      lt\n      tag_145\n      jumpi\n      tag_146\n      tag_134\n      jump\t// in\n    tag_146:\n    tag_145:\n      swap1\n      0x00\n      mstore\n      keccak256(0x00, 0x20)\n      swap1\n      0x05\n      mul\n      add\n        /* \"contracts/Profile.sol\":6203:6255  profile[msg.sender].companyExperience[index].project */\n      0x04\n      add\n        /* \"contracts/Profile.sol\":5972:6256  return (profile[msg.sender].companyExperience[index].companyName, profile[msg.sender].companyExperience[index].position, profile[msg.sender].companyExperience[index].startDate, profile[msg.sender].companyExperience[index].endDate, profile[msg.sender].companyExperience[index].project) */\n      dup5\n      dup1\n      sload\n      tag_148\n      swap1\n      tag_149\n      jump\t// in\n    tag_148:\n      dup1\n      0x1f\n      add\n      0x20\n      dup1\n      swap2\n      div\n      mul\n      0x20\n      add\n      mload(0x40)\n      swap1\n      dup2\n      add\n      0x40\n      mstore\n      dup1\n      swap3\n      swap2\n      swap1\n      dup2\n      dup2\n      mstore\n      0x20\n      add\n      dup3\n      dup1\n      sload\n      tag_150\n      swap1\n      tag_149\n      jump\t// in\n    tag_150:\n      dup1\n      iszero\n      tag_151\n      jumpi\n      dup1\n      0x1f\n      lt\n      tag_152\n      jumpi\n      0x0100\n      dup1\n      dup4\n      sload\n      div\n      mul\n      dup4\n      mstore\n      swap2\n      0x20\n      add\n      swap2\n      jump(tag_151)\n    tag_152:\n      dup3\n      add\n      swap2\n      swap1\n      0x00\n      mstore\n      keccak256(0x00, 0x20)\n      swap1\n    tag_153:\n      dup2\n      sload\n      dup2\n      mstore\n      swap1\n      0x01\n      add\n      swap1\n      0x20\n      add\n      dup1\n      dup4\n      gt\n      tag_153\n      jumpi\n      dup3\n      swap1\n      sub\n      0x1f\n      and\n      dup3\n      add\n      swap2\n    tag_151:\n      pop\n      pop\n      pop\n      pop\n      pop\n      swap5\n      pop\n      dup4\n      dup1\n      sload\n      tag_154\n      swap1\n      tag_149\n      jump\t// in\n    tag_154:\n      dup1\n      0x1f\n      add\n      0x20\n      dup1\n      swap2\n      div\n      mul\n      0x20\n      add\n      mload(0x40)\n      swap1\n      dup2\n      add\n      0x40\n      mstore\n      dup1\n      swap3\n      swap2\n      swap1\n      dup2\n      dup2\n      mstore\n      0x20\n      add\n      dup3\n      dup1\n      sload\n      tag_155\n      swap1\n      tag_149\n      jump\t// in\n    tag_155:\n      dup1\n      iszero\n      tag_156\n      jumpi\n      dup1\n      0x1f\n      lt\n      tag_157\n      jumpi\n      0x0100\n      dup1\n      dup4\n      sload\n      div\n      mul\n      dup4\n      mstore\n      swap2\n      0x20\n      add\n      swap2\n      jump(tag_156)\n    tag_157:\n      dup3\n      add\n      swap2\n      swap1\n      0x00\n      mstore\n      keccak256(0x00, 0x20)\n      swap1\n    tag_158:\n      dup2\n      sload\n      dup2\n      mstore\n      swap1\n      0x01\n      add\n      swap1\n      0x20\n      add\n      dup1\n      dup4\n      gt\n      tag_158\n      jumpi\n      dup3\n      swap1\n      sub\n      0x1f\n      and\n      dup3\n      add\n      swap2\n    tag_156:\n      pop\n      pop\n      pop\n      pop\n      pop\n      swap4\n      pop\n      dup3\n      dup1\n      sload\n      tag_159\n      swap1\n      tag_149\n      jump\t// in\n    tag_159:\n      dup1\n      0x1f\n      add\n      0x20\n      dup1\n      swap2\n      div\n      mul\n      0x20\n      add\n      mload(0x40)\n      swap1\n      dup2\n      add\n      0x40\n      mstore\n      dup1\n      swap3\n      swap2\n      swap1\n      dup2\n      dup2\n      mstore\n      0x20\n      add\n      dup3\n      dup1\n      sload\n      tag_160\n      swap1\n      tag_149\n      jump\t// in\n    tag_160:\n      dup1\n      iszero\n      tag_161\n      jumpi\n      dup1\n      0x1f\n      lt\n      tag_162\n      jumpi\n      0x0100\n      dup1\n      dup4\n      sload\n      div\n      mul\n      dup4\n      mstore\n      swap2\n      0x20\n      add\n      swap2\n      jump(tag_161)\n    tag_162:\n      dup3\n      add\n      swap2\n      swap1\n      0x00\n      mstore\n      keccak256(0x00, 0x20)\n      swap1\n    tag_163:\n      dup2\n      sload\n      dup2\n      mstore\n      swap1\n      0x01\n      add\n      swap1\n      0x20\n      add\n      dup1\n      dup4\n      gt\n      tag_163\n      jumpi\n      dup3\n      swap1\n      sub\n      0x1f\n      and\n      dup3\n      add\n      swap2\n    tag_161:\n      pop\n      pop\n      pop\n      pop\n      pop\n      swap3\n      pop\n      dup2\n      dup1\n      sload\n      tag_164\n      swap1\n      tag_149\n      jump\t// in\n    tag_164:\n      dup1\n      0x1f\n      add\n      0x20\n      dup1\n      swap2\n      div\n      mul\n      0x20\n      add\n      mload(0x40)\n      swap1\n      dup2\n      add\n      0x40\n      mstore\n      dup1\n      swap3\n      swap2\n      swap1\n      dup2\n      dup2\n      mstore\n      0x20\n      add\n      dup3\n      dup1\n      sload\n      tag_165\n      swap1\n      tag_149\n      jump\t// in\n    tag_165:\n      dup1\n      iszero\n      tag_166\n      jumpi\n      dup1\n      0x1f\n      lt\n      tag_167\n      jumpi\n      0x0100\n      dup1\n      dup4\n      sload\n      div\n      mul\n      dup4\n      mstore\n      swap2\n      0x20\n      add\n      swap2\n      jump(tag_166)\n    tag_167:\n      dup3\n      add\n      swap2\n      swap1\n      0x00\n      mstore\n      keccak256(0x00, 0x20)\n      swap1\n    tag_168:\n      dup2\n      sload\n      dup2\n      mstore\n      swap1\n      0x01\n      add\n      swap1\n      0x20\n      add\n      dup1\n      dup4\n      gt\n      tag_168\n      jumpi\n      dup3\n      swap1\n      sub\n      0x1f\n      and\n      dup3\n      add\n      swap2\n    tag_166:\n      pop\n      pop\n      pop\n      pop\n      pop\n      swap2\n      pop\n      dup1\n      dup1\n      sload\n      dup1\n      0x20\n      mul\n      0x20\n      add\n      mload(0x40)\n      swap1\n      dup2\n      add\n      0x40\n      mstore\n      dup1\n      swap3\n      swap2\n      swap1\n      dup2\n      dup2\n      mstore\n      0x20\n      add\n      0x00\n      swap1\n    tag_169:\n      dup3\n      dup3\n      lt\n      iszero\n      tag_170\n      jumpi\n      dup4\n      dup3\n      swap1\n      0x00\n      mstore\n      keccak256(0x00, 0x20)\n      add\n      dup1\n      sload\n      tag_172\n      swap1\n      tag_149\n      jump\t// in\n    tag_172:\n      dup1\n      0x1f\n      add\n      0x20\n      dup1\n      swap2\n      div\n      mul\n      0x20\n      add\n      mload(0x40)\n      swap1\n      dup2\n      add\n      0x40\n      mstore\n      dup1\n      swap3\n      swap2\n      swap1\n      dup2\n      dup2\n      mstore\n      0x20\n      add\n      dup3\n      dup1\n      sload\n      tag_173\n      swap1\n      tag_149\n      jump\t// in\n    tag_173:\n      dup1\n      iszero\n      tag_174\n      jumpi\n      dup1\n      0x1f\n      lt\n      tag_175\n      jumpi\n      0x0100\n      dup1\n      dup4\n      sload\n      div\n      mul\n      dup4\n      mstore\n      swap2\n      0x20\n      add\n      swap2\n      jump(tag_174)\n    tag_175:\n      dup3\n      add\n      swap2\n      swap1\n      0x00\n      mstore\n      keccak256(0x00, 0x20)\n      swap1\n    tag_176:\n      dup2\n      sload\n      dup2\n      mstore\n      swap1\n      0x01\n      add\n      swap1\n      0x20\n      add\n      dup1\n      dup4\n      gt\n      tag_176\n      jumpi\n      dup3\n      swap1\n      sub\n      0x1f\n      and\n      dup3\n      add\n      swap2\n    tag_174:\n      pop\n      pop\n      pop\n      pop\n      pop\n      dup2\n      mstore\n      0x20\n      add\n      swap1\n      0x01\n      add\n      swap1\n      jump(tag_169)\n    tag_170:\n      pop\n      pop\n      pop\n      pop\n      swap1\n      pop\n      swap5\n      pop\n      swap5\n      pop\n      swap5\n      pop\n      swap5\n      pop\n      swap5\n      pop\n        /* \"contracts/Profile.sol\":5822:6264  function getCompanyExperience(uint index) public view returns(string memory, string memory, string memory, string memory, string[] memory) {\r... */\n      swap2\n      swap4\n      swap6\n      swap1\n      swap3\n      swap5\n      pop\n      jump\t// out\n        /* \"contracts/Profile.sol\":6698:6806  function delCertificateAndAward() external {\r... */\n    tag_55:\n        /* \"contracts/Profile.sol\":6759:6766  profile */\n      0x00\n        /* \"contracts/Profile.sol\":6759:6778  profile[msg.sender] */\n      dup1\n        /* \"contracts/Profile.sol\":6767:6777  msg.sender */\n      caller\n        /* \"contracts/Profile.sol\":6759:6778  profile[msg.sender] */\n      0xffffffffffffffffffffffffffffffffffffffff\n      and\n      0xffffffffffffffffffffffffffffffffffffffff\n      and\n      dup2\n      mstore\n      0x20\n      add\n      swap1\n      dup2\n      mstore\n      0x20\n      add\n      0x00\n      keccak256\n        /* \"contracts/Profile.sol\":6759:6798  profile[msg.sender].certificateAndAward */\n      0x12\n      add\n      0x00\n        /* \"contracts/Profile.sol\":6752:6798  delete profile[msg.sender].certificateAndAward */\n      dup1\n      dup3\n      add\n      0x00\n      tag_178\n      swap2\n      swap1\n      tag_124\n      jump\t// in\n    tag_178:\n      0x01\n      dup3\n      add\n      0x00\n      tag_179\n      swap2\n      swap1\n      tag_124\n      jump\t// in\n    tag_179:\n      pop\n      pop\n        /* \"contracts/Profile.sol\":6698:6806  function delCertificateAndAward() external {\r... */\n      jump\t// out\n        /* \"contracts/Profile.sol\":4169:4287  function getEducationCount() public view returns (uint) {\r... */\n    tag_57:\n        /* \"contracts/Profile.sol\":4219:4223  uint */\n      0x00\n        /* \"contracts/Profile.sol\":4243:4250  profile */\n      dup1\n        /* \"contracts/Profile.sol\":4243:4262  profile[msg.sender] */\n      0x00\n        /* \"contracts/Profile.sol\":4251:4261  msg.sender */\n      caller\n        /* \"contracts/Profile.sol\":4243:4262  profile[msg.sender] */\n      0xffffffffffffffffffffffffffffffffffffffff\n      and\n      0xffffffffffffffffffffffffffffffffffffffff\n      and\n      dup2\n      mstore\n      0x20\n      add\n      swap1\n      dup2\n      mstore\n      0x20\n      add\n      0x00\n      keccak256\n        /* \"contracts/Profile.sol\":4243:4272  profile[msg.sender].education */\n      0x11\n      add\n        /* \"contracts/Profile.sol\":4243:4279  profile[msg.sender].education.length */\n      dup1\n      sload\n      swap1\n      pop\n        /* \"contracts/Profile.sol\":4236:4279  return profile[msg.sender].education.length */\n      swap1\n      pop\n        /* \"contracts/Profile.sol\":4169:4287  function getEducationCount() public view returns (uint) {\r... */\n      swap1\n      jump\t// out\n        /* \"contracts/Profile.sol\":4295:4523  function createAward(string[] memory award, string[] memory certificate) public {\r... */\n    tag_62:\n        /* \"contracts/Profile.sol\":4434:4439  award */\n      dup2\n        /* \"contracts/Profile.sol\":4386:4393  profile */\n      0x00\n        /* \"contracts/Profile.sol\":4386:4405  profile[msg.sender] */\n      dup1\n        /* \"contracts/Profile.sol\":4394:4404  msg.sender */\n      caller\n        /* \"contracts/Profile.sol\":4386:4405  profile[msg.sender] */\n      0xffffffffffffffffffffffffffffffffffffffff\n      and\n      0xffffffffffffffffffffffffffffffffffffffff\n      and\n      dup2\n      mstore\n      0x20\n      add\n      swap1\n      dup2\n      mstore\n      0x20\n      add\n      0x00\n      keccak256\n        /* \"contracts/Profile.sol\":4386:4425  profile[msg.sender].certificateAndAward */\n      0x12\n      add\n        /* \"contracts/Profile.sol\":4386:4431  profile[msg.sender].certificateAndAward.award */\n      0x01\n      add\n        /* \"contracts/Profile.sol\":4386:4439  profile[msg.sender].certificateAndAward.award = award */\n      swap1\n      dup1\n      mload\n      swap1\n      0x20\n      add\n      swap1\n      tag_182\n      swap3\n      swap2\n      swap1\n      tag_115\n      jump\t// in\n    tag_182:\n      pop\n        /* \"contracts/Profile.sol\":4504:4515  certificate */\n      dup1\n        /* \"contracts/Profile.sol\":4450:4457  profile */\n      0x00\n        /* \"contracts/Profile.sol\":4450:4469  profile[msg.sender] */\n      dup1\n        /* \"contracts/Profile.sol\":4458:4468  msg.sender */\n      caller\n        /* \"contracts/Profile.sol\":4450:4469  profile[msg.sender] */\n      0xffffffffffffffffffffffffffffffffffffffff\n      and\n      0xffffffffffffffffffffffffffffffffffffffff\n      and\n      dup2\n      mstore\n      0x20\n      add\n      swap1\n      dup2\n      mstore\n      0x20\n      add\n      0x00\n      keccak256\n        /* \"contracts/Profile.sol\":4450:4489  profile[msg.sender].certificateAndAward */\n      0x12\n      add\n        /* \"contracts/Profile.sol\":4450:4501  profile[msg.sender].certificateAndAward.certificate */\n      0x00\n      add\n        /* \"contracts/Profile.sol\":4450:4515  profile[msg.sender].certificateAndAward.certificate = certificate */\n      swap1\n      dup1\n      mload\n      swap1\n      0x20\n      add\n      swap1\n      tag_183\n      swap3\n      swap2\n      swap1\n      tag_115\n      jump\t// in\n    tag_183:\n      pop\n        /* \"contracts/Profile.sol\":4295:4523  function createAward(string[] memory award, string[] memory certificate) public {\r... */\n      pop\n      pop\n      jump\t// out\n        /* \"contracts/Profile.sol\":2374:2886  function createContract(string memory email, string memory phone, string memory github, string memory gitlab, string memory linkedin) public {\r... */\n    tag_66:\n        /* \"contracts/Profile.sol\":2533:2540  profile */\n      0x00\n        /* \"contracts/Profile.sol\":2533:2552  profile[msg.sender] */\n      dup1\n        /* \"contracts/Profile.sol\":2541:2551  msg.sender */\n      caller\n        /* \"contracts/Profile.sol\":2533:2552  profile[msg.sender] */\n      0xffffffffffffffffffffffffffffffffffffffff\n      and\n      0xffffffffffffffffffffffffffffffffffffffff\n      and\n      dup2\n      mstore\n      0x20\n      add\n      swap1\n      dup2\n      mstore\n      0x20\n      add\n      0x00\n      keccak256\n        /* \"contracts/Profile.sol\":2533:2568  profile[msg.sender].privateContract */\n      0x08\n      add\n      0x00\n        /* \"contracts/Profile.sol\":2526:2568  delete profile[msg.sender].privateContract */\n      dup1\n      dup3\n      add\n      0x00\n      tag_185\n      swap2\n      swap1\n      tag_186\n      jump\t// in\n    tag_185:\n      0x01\n      dup3\n      add\n      0x00\n      tag_187\n      swap2\n      swap1\n      tag_186\n      jump\t// in\n    tag_187:\n      0x02\n      dup3\n      add\n      0x00\n      tag_188\n      swap2\n      swap1\n      tag_186\n      jump\t// in\n    tag_188:\n      0x03\n      dup3\n      add\n      0x00\n      tag_189\n      swap2\n      swap1\n      tag_186\n      jump\t// in\n    tag_189:\n      0x04\n      dup3\n      add\n      0x00\n      tag_190\n      swap2\n      swap1\n      tag_186\n      jump\t// in\n    tag_190:\n      0x05\n      dup3\n      add\n      0x00\n      tag_191\n      swap2\n      swap1\n      tag_186\n      jump\t// in\n    tag_191:\n      pop\n      pop\n        /* \"contracts/Profile.sol\":2623:2628  email */\n      dup5\n        /* \"contracts/Profile.sol\":2579:2586  profile */\n      0x00\n        /* \"contracts/Profile.sol\":2579:2598  profile[msg.sender] */\n      dup1\n        /* \"contracts/Profile.sol\":2587:2597  msg.sender */\n      caller\n        /* \"contracts/Profile.sol\":2579:2598  profile[msg.sender] */\n      0xffffffffffffffffffffffffffffffffffffffff\n      and\n      0xffffffffffffffffffffffffffffffffffffffff\n      and\n      dup2\n      mstore\n      0x20\n      add\n      swap1\n      dup2\n      mstore\n      0x20\n      add\n      0x00\n      keccak256\n        /* \"contracts/Profile.sol\":2579:2614  profile[msg.sender].privateContract */\n      0x08\n      add\n        /* \"contracts/Profile.sol\":2579:2620  profile[msg.sender].privateContract.email */\n      0x01\n      add\n        /* \"contracts/Profile.sol\":2579:2628  profile[msg.sender].privateContract.email = email */\n      swap1\n      dup1\n      mload\n      swap1\n      0x20\n      add\n      swap1\n      tag_192\n      swap3\n      swap2\n      swap1\n      tag_110\n      jump\t// in\n    tag_192:\n      pop\n        /* \"contracts/Profile.sol\":2683:2688  phone */\n      dup4\n        /* \"contracts/Profile.sol\":2639:2646  profile */\n      0x00\n        /* \"contracts/Profile.sol\":2639:2658  profile[msg.sender] */\n      dup1\n        /* \"contracts/Profile.sol\":2647:2657  msg.sender */\n      caller\n        /* \"contracts/Profile.sol\":2639:2658  profile[msg.sender] */\n      0xffffffffffffffffffffffffffffffffffffffff\n      and\n      0xffffffffffffffffffffffffffffffffffffffff\n      and\n      dup2\n      mstore\n      0x20\n      add\n      swap1\n      dup2\n      mstore\n      0x20\n      add\n      0x00\n      keccak256\n        /* \"contracts/Profile.sol\":2639:2674  profile[msg.sender].privateContract */\n      0x08\n      add\n        /* \"contracts/Profile.sol\":2639:2680  profile[msg.sender].privateContract.phone */\n      0x02\n      add\n        /* \"contracts/Profile.sol\":2639:2688  profile[msg.sender].privateContract.phone = phone */\n      swap1\n      dup1\n      mload\n      swap1\n      0x20\n      add\n      swap1\n      tag_193\n      swap3\n      swap2\n      swap1\n      tag_110\n      jump\t// in\n    tag_193:\n      pop\n        /* \"contracts/Profile.sol\":2744:2750  github */\n      dup3\n        /* \"contracts/Profile.sol\":2699:2706  profile */\n      0x00\n        /* \"contracts/Profile.sol\":2699:2718  profile[msg.sender] */\n      dup1\n        /* \"contracts/Profile.sol\":2707:2717  msg.sender */\n      caller\n        /* \"contracts/Profile.sol\":2699:2718  profile[msg.sender] */\n      0xffffffffffffffffffffffffffffffffffffffff\n      and\n      0xffffffffffffffffffffffffffffffffffffffff\n      and\n      dup2\n      mstore\n      0x20\n      add\n      swap1\n      dup2\n      mstore\n      0x20\n      add\n      0x00\n      keccak256\n        /* \"contracts/Profile.sol\":2699:2734  profile[msg.sender].privateContract */\n      0x08\n      add\n        /* \"contracts/Profile.sol\":2699:2741  profile[msg.sender].privateContract.github */\n      0x03\n      add\n        /* \"contracts/Profile.sol\":2699:2750  profile[msg.sender].privateContract.github = github */\n      swap1\n      dup1\n      mload\n      swap1\n      0x20\n      add\n      swap1\n      tag_194\n      swap3\n      swap2\n      swap1\n      tag_110\n      jump\t// in\n    tag_194:\n      pop\n        /* \"contracts/Profile.sol\":2806:2812  gitlab */\n      dup2\n        /* \"contracts/Profile.sol\":2761:2768  profile */\n      0x00\n        /* \"contracts/Profile.sol\":2761:2780  profile[msg.sender] */\n      dup1\n        /* \"contracts/Profile.sol\":2769:2779  msg.sender */\n      caller\n        /* \"contracts/Profile.sol\":2761:2780  profile[msg.sender] */\n      0xffffffffffffffffffffffffffffffffffffffff\n      and\n      0xffffffffffffffffffffffffffffffffffffffff\n      and\n      dup2\n      mstore\n      0x20\n      add\n      swap1\n      dup2\n      mstore\n      0x20\n      add\n      0x00\n      keccak256\n        /* \"contracts/Profile.sol\":2761:2796  profile[msg.sender].privateContract */\n      0x08\n      add\n        /* \"contracts/Profile.sol\":2761:2803  profile[msg.sender].privateContract.gitlab */\n      0x04\n      add\n        /* \"contracts/Profile.sol\":2761:2812  profile[msg.sender].privateContract.gitlab = gitlab */\n      swap1\n      dup1\n      mload\n      swap1\n      0x20\n      add\n      swap1\n      tag_195\n      swap3\n      swap2\n      swap1\n      tag_110\n      jump\t// in\n    tag_195:\n      pop\n        /* \"contracts/Profile.sol\":2870:2878  linkedin */\n      dup1\n        /* \"contracts/Profile.sol\":2823:2830  profile */\n      0x00\n        /* \"contracts/Profile.sol\":2823:2842  profile[msg.sender] */\n      dup1\n        /* \"contracts/Profile.sol\":2831:2841  msg.sender */\n      caller\n        /* \"contracts/Profile.sol\":2823:2842  profile[msg.sender] */\n      0xffffffffffffffffffffffffffffffffffffffff\n      and\n      0xffffffffffffffffffffffffffffffffffffffff\n      and\n      dup2\n      mstore\n      0x20\n      add\n      swap1\n      dup2\n      mstore\n      0x20\n      add\n      0x00\n      keccak256\n        /* \"contracts/Profile.sol\":2823:2858  profile[msg.sender].privateContract */\n      0x08\n      add\n        /* \"contracts/Profile.sol\":2823:2867  profile[msg.sender].privateContract.linkedin */\n      0x05\n      add\n        /* \"contracts/Profile.sol\":2823:2878  profile[msg.sender].privateContract.linkedin = linkedin */\n      swap1\n      dup1\n      mload\n      swap1\n      0x20\n      add\n      swap1\n      tag_196\n      swap3\n      swap2\n      swap1\n      tag_110\n      jump\t// in\n    tag_196:\n      pop\n        /* \"contracts/Profile.sol\":2374:2886  function createContract(string memory email, string memory phone, string memory github, string memory gitlab, string memory linkedin) public {\r... */\n      pop\n      pop\n      pop\n      pop\n      pop\n      jump\t// out\n        /* \"contracts/Profile.sol\":1650:2366  function createInformation(string memory firstName, string memory middleName, string memory lastName,  string memory profileImage, string memory aboutMe, string memory position) public {\r... */\n    tag_70:\n        /* \"contracts/Profile.sol\":1890:1899  firstName */\n      dup6\n        /* \"contracts/Profile.sol\":1846:1853  profile */\n      0x00\n        /* \"contracts/Profile.sol\":1846:1865  profile[msg.sender] */\n      dup1\n        /* \"contracts/Profile.sol\":1854:1864  msg.sender */\n      caller\n        /* \"contracts/Profile.sol\":1846:1865  profile[msg.sender] */\n      0xffffffffffffffffffffffffffffffffffffffff\n      and\n      0xffffffffffffffffffffffffffffffffffffffff\n      and\n      dup2\n      mstore\n      0x20\n      add\n      swap1\n      dup2\n      mstore\n      0x20\n      add\n      0x00\n      keccak256\n        /* \"contracts/Profile.sol\":1846:1877  profile[msg.sender].information */\n      0x00\n      add\n        /* \"contracts/Profile.sol\":1846:1887  profile[msg.sender].information.firstName */\n      0x03\n      add\n        /* \"contracts/Profile.sol\":1846:1899  profile[msg.sender].information.firstName = firstName */\n      swap1\n      dup1\n      mload\n      swap1\n      0x20\n      add\n      swap1\n      tag_198\n      swap3\n      swap2\n      swap1\n      tag_110\n      jump\t// in\n    tag_198:\n      pop\n        /* \"contracts/Profile.sol\":1955:1965  middleName */\n      dup5\n        /* \"contracts/Profile.sol\":1910:1917  profile */\n      0x00\n        /* \"contracts/Profile.sol\":1910:1929  profile[msg.sender] */\n      dup1\n        /* \"contracts/Profile.sol\":1918:1928  msg.sender */\n      caller\n        /* \"contracts/Profile.sol\":1910:1929  profile[msg.sender] */\n      0xffffffffffffffffffffffffffffffffffffffff\n      and\n      0xffffffffffffffffffffffffffffffffffffffff\n      and\n      dup2\n      mstore\n      0x20\n      add\n      swap1\n      dup2\n      mstore\n      0x20\n      add\n      0x00\n      keccak256\n        /* \"contracts/Profile.sol\":1910:1941  profile[msg.sender].information */\n      0x00\n      add\n        /* \"contracts/Profile.sol\":1910:1952  profile[msg.sender].information.middleName */\n      0x04\n      add\n        /* \"contracts/Profile.sol\":1910:1965  profile[msg.sender].information.middleName = middleName */\n      swap1\n      dup1\n      mload\n      swap1\n      0x20\n      add\n      swap1\n      tag_199\n      swap3\n      swap2\n      swap1\n      tag_110\n      jump\t// in\n    tag_199:\n      pop\n        /* \"contracts/Profile.sol\":2019:2027  lastName */\n      dup4\n        /* \"contracts/Profile.sol\":1976:1983  profile */\n      0x00\n        /* \"contracts/Profile.sol\":1976:1995  profile[msg.sender] */\n      dup1\n        /* \"contracts/Profile.sol\":1984:1994  msg.sender */\n      caller\n        /* \"contracts/Profile.sol\":1976:1995  profile[msg.sender] */\n      0xffffffffffffffffffffffffffffffffffffffff\n      and\n      0xffffffffffffffffffffffffffffffffffffffff\n      and\n      dup2\n      mstore\n      0x20\n      add\n      swap1\n      dup2\n      mstore\n      0x20\n      add\n      0x00\n      keccak256\n        /* \"contracts/Profile.sol\":1976:2007  profile[msg.sender].information */\n      0x00\n      add\n        /* \"contracts/Profile.sol\":1976:2016  profile[msg.sender].information.lastName */\n      0x05\n      add\n        /* \"contracts/Profile.sol\":1976:2027  profile[msg.sender].information.lastName = lastName */\n      swap1\n      dup1\n      mload\n      swap1\n      0x20\n      add\n      swap1\n      tag_200\n      swap3\n      swap2\n      swap1\n      tag_110\n      jump\t// in\n    tag_200:\n      pop\n        /* \"contracts/Profile.sol\":2085:2097  profileImage */\n      dup3\n        /* \"contracts/Profile.sol\":2038:2045  profile */\n      0x00\n        /* \"contracts/Profile.sol\":2038:2057  profile[msg.sender] */\n      dup1\n        /* \"contracts/Profile.sol\":2046:2056  msg.sender */\n      caller\n        /* \"contracts/Profile.sol\":2038:2057  profile[msg.sender] */\n      0xffffffffffffffffffffffffffffffffffffffff\n      and\n      0xffffffffffffffffffffffffffffffffffffffff\n      and\n      dup2\n      mstore\n      0x20\n      add\n      swap1\n      dup2\n      mstore\n      0x20\n      add\n      0x00\n      keccak256\n        /* \"contracts/Profile.sol\":2038:2069  profile[msg.sender].information */\n      0x00\n      add\n        /* \"contracts/Profile.sol\":2038:2082  profile[msg.sender].information.profileImage */\n      0x06\n      add\n        /* \"contracts/Profile.sol\":2038:2097  profile[msg.sender].information.profileImage = profileImage */\n      swap1\n      dup1\n      mload\n      swap1\n      0x20\n      add\n      swap1\n      tag_201\n      swap3\n      swap2\n      swap1\n      tag_110\n      jump\t// in\n    tag_201:\n      pop\n        /* \"contracts/Profile.sol\":2150:2157  aboutMe */\n      dup2\n        /* \"contracts/Profile.sol\":2108:2115  profile */\n      0x00\n        /* \"contracts/Profile.sol\":2108:2127  profile[msg.sender] */\n      dup1\n        /* \"contracts/Profile.sol\":2116:2126  msg.sender */\n      caller\n        /* \"contracts/Profile.sol\":2108:2127  profile[msg.sender] */\n      0xffffffffffffffffffffffffffffffffffffffff\n      and\n      0xffffffffffffffffffffffffffffffffffffffff\n      and\n      dup2\n      mstore\n      0x20\n      add\n      swap1\n      dup2\n      mstore\n      0x20\n      add\n      0x00\n      keccak256\n        /* \"contracts/Profile.sol\":2108:2139  profile[msg.sender].information */\n      0x00\n      add\n        /* \"contracts/Profile.sol\":2108:2147  profile[msg.sender].information.aboutMe */\n      0x00\n      add\n        /* \"contracts/Profile.sol\":2108:2157  profile[msg.sender].information.aboutMe = aboutMe */\n      swap1\n      dup1\n      mload\n      swap1\n      0x20\n      add\n      swap1\n      tag_202\n      swap3\n      swap2\n      swap1\n      tag_110\n      jump\t// in\n    tag_202:\n      pop\n        /* \"contracts/Profile.sol\":2211:2219  position */\n      dup1\n        /* \"contracts/Profile.sol\":2168:2175  profile */\n      0x00\n        /* \"contracts/Profile.sol\":2168:2187  profile[msg.sender] */\n      dup1\n        /* \"contracts/Profile.sol\":2176:2186  msg.sender */\n      caller\n        /* \"contracts/Profile.sol\":2168:2187  profile[msg.sender] */\n      0xffffffffffffffffffffffffffffffffffffffff\n      and\n      0xffffffffffffffffffffffffffffffffffffffff\n      and\n      dup2\n      mstore\n      0x20\n      add\n      swap1\n      dup2\n      mstore\n      0x20\n      add\n      0x00\n      keccak256\n        /* \"contracts/Profile.sol\":2168:2199  profile[msg.sender].information */\n      0x00\n      add\n        /* \"contracts/Profile.sol\":2168:2208  profile[msg.sender].information.position */\n      0x01\n      add\n        /* \"contracts/Profile.sol\":2168:2219  profile[msg.sender].information.position = position */\n      swap1\n      dup1\n      mload\n      swap1\n      0x20\n      add\n      swap1\n      tag_203\n      swap3\n      swap2\n      swap1\n      tag_110\n      jump\t// in\n    tag_203:\n      pop\n        /* \"contracts/Profile.sol\":2276:2286  msg.sender */\n      caller\n        /* \"contracts/Profile.sol\":2230:2237  profile */\n      0x00\n        /* \"contracts/Profile.sol\":2230:2249  profile[msg.sender] */\n      dup1\n        /* \"contracts/Profile.sol\":2238:2248  msg.sender */\n      caller\n        /* \"contracts/Profile.sol\":2230:2249  profile[msg.sender] */\n      0xffffffffffffffffffffffffffffffffffffffff\n      and\n      0xffffffffffffffffffffffffffffffffffffffff\n      and\n      dup2\n      mstore\n      0x20\n      add\n      swap1\n      dup2\n      mstore\n      0x20\n      add\n      0x00\n      keccak256\n        /* \"contracts/Profile.sol\":2230:2261  profile[msg.sender].information */\n      0x00\n      add\n        /* \"contracts/Profile.sol\":2230:2273  profile[msg.sender].information.userAddress */\n      0x02\n      add\n      0x00\n        /* \"contracts/Profile.sol\":2230:2286  profile[msg.sender].information.userAddress = msg.sender */\n      0x0100\n      exp\n      dup2\n      sload\n      dup2\n      0xffffffffffffffffffffffffffffffffffffffff\n      mul\n      not\n      and\n      swap1\n      dup4\n      0xffffffffffffffffffffffffffffffffffffffff\n      and\n      mul\n      or\n      swap1\n      sstore\n      pop\n        /* \"contracts/Profile.sol\":2343:2358  block.timestamp */\n      timestamp\n        /* \"contracts/Profile.sol\":2298:2305  profile */\n      0x00\n        /* \"contracts/Profile.sol\":2298:2317  profile[msg.sender] */\n      dup1\n        /* \"contracts/Profile.sol\":2306:2316  msg.sender */\n      caller\n        /* \"contracts/Profile.sol\":2298:2317  profile[msg.sender] */\n      0xffffffffffffffffffffffffffffffffffffffff\n      and\n      0xffffffffffffffffffffffffffffffffffffffff\n      and\n      dup2\n      mstore\n      0x20\n      add\n      swap1\n      dup2\n      mstore\n      0x20\n      add\n      0x00\n      keccak256\n        /* \"contracts/Profile.sol\":2298:2329  profile[msg.sender].information */\n      0x00\n      add\n        /* \"contracts/Profile.sol\":2298:2340  profile[msg.sender].information.createDate */\n      0x07\n      add\n        /* \"contracts/Profile.sol\":2298:2358  profile[msg.sender].information.createDate = block.timestamp */\n      dup2\n      swap1\n      sstore\n      pop\n        /* \"contracts/Profile.sol\":1650:2366  function createInformation(string memory firstName, string memory middleName, string memory lastName,  string memory profileImage, string memory aboutMe, string memory position) public {\r... */\n      pop\n      pop\n      pop\n      pop\n      pop\n      pop\n      jump\t// out\n        /* \"contracts/Profile.sol\":6514:6606  function delInformaion() external  {\r... */\n    tag_72:\n        /* \"contracts/Profile.sol\":6567:6574  profile */\n      0x00\n        /* \"contracts/Profile.sol\":6567:6586  profile[msg.sender] */\n      dup1\n        /* \"contracts/Profile.sol\":6575:6585  msg.sender */\n      caller\n        /* \"contracts/Profile.sol\":6567:6586  profile[msg.sender] */\n      0xffffffffffffffffffffffffffffffffffffffff\n      and\n      0xffffffffffffffffffffffffffffffffffffffff\n      and\n      dup2\n      mstore\n      0x20\n      add\n      swap1\n      dup2\n      mstore\n      0x20\n      add\n      0x00\n      keccak256\n        /* \"contracts/Profile.sol\":6567:6598  profile[msg.sender].information */\n      0x00\n      add\n      0x00\n        /* \"contracts/Profile.sol\":6560:6598  delete profile[msg.sender].information */\n      dup1\n      dup3\n      add\n      0x00\n      tag_205\n      swap2\n      swap1\n      tag_186\n      jump\t// in\n    tag_205:\n      0x01\n      dup3\n      add\n      0x00\n      tag_206\n      swap2\n      swap1\n      tag_186\n      jump\t// in\n    tag_206:\n      0x02\n      dup3\n      add\n      exp(0x0100, 0x00)\n      dup2\n      sload\n      swap1\n      0xffffffffffffffffffffffffffffffffffffffff\n      mul\n      not\n      and\n      swap1\n      sstore\n      0x03\n      dup3\n      add\n      0x00\n      tag_207\n      swap2\n      swap1\n      tag_186\n      jump\t// in\n    tag_207:\n      0x04\n      dup3\n      add\n      0x00\n      tag_208\n      swap2\n      swap1\n      tag_186\n      jump\t// in\n    tag_208:\n      0x05\n      dup3\n      add\n      0x00\n      tag_209\n      swap2\n      swap1\n      tag_186\n      jump\t// in\n    tag_209:\n      0x06\n      dup3\n      add\n      0x00\n      tag_210\n      swap2\n      swap1\n      tag_186\n      jump\t// in\n    tag_210:\n      0x07\n      dup3\n      add\n      0x00\n      swap1\n      sstore\n      pop\n      pop\n        /* \"contracts/Profile.sol\":6514:6606  function delInformaion() external  {\r... */\n      jump\t// out\n        /* \"contracts/Profile.sol\":384:424  mapping (address => Bio) public  profile */\n    tag_76:\n      mstore(0x20, 0x00)\n      dup1\n      0x00\n      mstore\n      keccak256(0x00, 0x40)\n      0x00\n      swap2\n      pop\n      swap1\n      pop\n      dup1\n      0x00\n      add\n      mload(0x40)\n      dup1\n      0x0100\n      add\n      0x40\n      mstore\n      swap1\n      dup2\n      0x00\n      dup3\n      add\n      dup1\n      sload\n      tag_211\n      swap1\n      tag_149\n      jump\t// in\n    tag_211:\n      dup1\n      0x1f\n      add\n      0x20\n      dup1\n      swap2\n      div\n      mul\n      0x20\n      add\n      mload(0x40)\n      swap1\n      dup2\n      add\n      0x40\n      mstore\n      dup1\n      swap3\n      swap2\n      swap1\n      dup2\n      dup2\n      mstore\n      0x20\n      add\n      dup3\n      dup1\n      sload\n      tag_212\n      swap1\n      tag_149\n      jump\t// in\n    tag_212:\n      dup1\n      iszero\n      tag_213\n      jumpi\n      dup1\n      0x1f\n      lt\n      tag_214\n      jumpi\n      0x0100\n      dup1\n      dup4\n      sload\n      div\n      mul\n      dup4\n      mstore\n      swap2\n      0x20\n      add\n      swap2\n      jump(tag_213)\n    tag_214:\n      dup3\n      add\n      swap2\n      swap1\n      0x00\n      mstore\n      keccak256(0x00, 0x20)\n      swap1\n    tag_215:\n      dup2\n      sload\n      dup2\n      mstore\n      swap1\n      0x01\n      add\n      swap1\n      0x20\n      add\n      dup1\n      dup4\n      gt\n      tag_215\n      jumpi\n      dup3\n      swap1\n      sub\n      0x1f\n      and\n      dup3\n      add\n      swap2\n    tag_213:\n      pop\n      pop\n      pop\n      pop\n      pop\n      dup2\n      mstore\n      0x20\n      add\n      0x01\n      dup3\n      add\n      dup1\n      sload\n      tag_216\n      swap1\n      tag_149\n      jump\t// in\n    tag_216:\n      dup1\n      0x1f\n      add\n      0x20\n      dup1\n      swap2\n      div\n      mul\n      0x20\n      add\n      mload(0x40)\n      swap1\n      dup2\n      add\n      0x40\n      mstore\n      dup1\n      swap3\n      swap2\n      swap1\n      dup2\n      dup2\n      mstore\n      0x20\n      add\n      dup3\n      dup1\n      sload\n      tag_217\n      swap1\n      tag_149\n      jump\t// in\n    tag_217:\n      dup1\n      iszero\n      tag_218\n      jumpi\n      dup1\n      0x1f\n      lt\n      tag_219\n      jumpi\n      0x0100\n      dup1\n      dup4\n      sload\n      div\n      mul\n      dup4\n      mstore\n      swap2\n      0x20\n      add\n      swap2\n      jump(tag_218)\n    tag_219:\n      dup3\n      add\n      swap2\n      swap1\n      0x00\n      mstore\n      keccak256(0x00, 0x20)\n      swap1\n    tag_220:\n      dup2\n      sload\n      dup2\n      mstore\n      swap1\n      0x01\n      add\n      swap1\n      0x20\n      add\n      dup1\n      dup4\n      gt\n      tag_220\n      jumpi\n      dup3\n      swap1\n      sub\n      0x1f\n      and\n      dup3\n      add\n      swap2\n    tag_218:\n      pop\n      pop\n      pop\n      pop\n      pop\n      dup2\n      mstore\n      0x20\n      add\n      0x02\n      dup3\n      add\n      0x00\n      swap1\n      sload\n      swap1\n      0x0100\n      exp\n      swap1\n      div\n      0xffffffffffffffffffffffffffffffffffffffff\n      and\n      0xffffffffffffffffffffffffffffffffffffffff\n      and\n      0xffffffffffffffffffffffffffffffffffffffff\n      and\n      dup2\n      mstore\n      0x20\n      add\n      0x03\n      dup3\n      add\n      dup1\n      sload\n      tag_221\n      swap1\n      tag_149\n      jump\t// in\n    tag_221:\n      dup1\n      0x1f\n      add\n      0x20\n      dup1\n      swap2\n      div\n      mul\n      0x20\n      add\n      mload(0x40)\n      swap1\n      dup2\n      add\n      0x40\n      mstore\n      dup1\n      swap3\n      swap2\n      swap1\n      dup2\n      dup2\n      mstore\n      0x20\n      add\n      dup3\n      dup1\n      sload\n      tag_222\n      swap1\n      tag_149\n      jump\t// in\n    tag_222:\n      dup1\n      iszero\n      tag_223\n      jumpi\n      dup1\n      0x1f\n      lt\n      tag_224\n      jumpi\n      0x0100\n      dup1\n      dup4\n      sload\n      div\n      mul\n      dup4\n      mstore\n      swap2\n      0x20\n      add\n      swap2\n      jump(tag_223)\n    tag_224:\n      dup3\n      add\n      swap2\n      swap1\n      0x00\n      mstore\n      keccak256(0x00, 0x20)\n      swap1\n    tag_225:\n      dup2\n      sload\n      dup2\n      mstore\n      swap1\n      0x01\n      add\n      swap1\n      0x20\n      add\n      dup1\n      dup4\n      gt\n      tag_225\n      jumpi\n      dup3\n      swap1\n      sub\n      0x1f\n      and\n      dup3\n      add\n      swap2\n    tag_223:\n      pop\n      pop\n      pop\n      pop\n      pop\n      dup2\n      mstore\n      0x20\n      add\n      0x04\n      dup3\n      add\n      dup1\n      sload\n      tag_226\n      swap1\n      tag_149\n      jump\t// in\n    tag_226:\n      dup1\n      0x1f\n      add\n      0x20\n      dup1\n      swap2\n      div\n      mul\n      0x20\n      add\n      mload(0x40)\n      swap1\n      dup2\n      add\n      0x40\n      mstore\n      dup1\n      swap3\n      swap2\n      swap1\n      dup2\n      dup2\n      mstore\n      0x20\n      add\n      dup3\n      dup1\n      sload\n      tag_227\n      swap1\n      tag_149\n      jump\t// in\n    tag_227:\n      dup1\n      iszero\n      tag_228\n      jumpi\n      dup1\n      0x1f\n      lt\n      tag_229\n      jumpi\n      0x0100\n      dup1\n      dup4\n      sload\n      div\n      mul\n      dup4\n      mstore\n      swap2\n      0x20\n      add\n      swap2\n      jump(tag_228)\n    tag_229:\n      dup3\n      add\n      swap2\n      swap1\n      0x00\n      mstore\n      keccak256(0x00, 0x20)\n      swap1\n    tag_230:\n      dup2\n      sload\n      dup2\n      mstore\n      swap1\n      0x01\n      add\n      swap1\n      0x20\n      add\n      dup1\n      dup4\n      gt\n      tag_230\n      jumpi\n      dup3\n      swap1\n      sub\n      0x1f\n      and\n      dup3\n      add\n      swap2\n    tag_228:\n      pop\n      pop\n      pop\n      pop\n      pop\n      dup2\n      mstore\n      0x20\n      add\n      0x05\n      dup3\n      add\n      dup1\n      sload\n      tag_231\n      swap1\n      tag_149\n      jump\t// in\n    tag_231:\n      dup1\n      0x1f\n      add\n      0x20\n      dup1\n      swap2\n      div\n      mul\n      0x20\n      add\n      mload(0x40)\n      swap1\n      dup2\n      add\n      0x40\n      mstore\n      dup1\n      swap3\n      swap2\n      swap1\n      dup2\n      dup2\n      mstore\n      0x20\n      add\n      dup3\n      dup1\n      sload\n      tag_232\n      swap1\n      tag_149\n      jump\t// in\n    tag_232:\n      dup1\n      iszero\n      tag_233\n      jumpi\n      dup1\n      0x1f\n      lt\n      tag_234\n      jumpi\n      0x0100\n      dup1\n      dup4\n      sload\n      div\n      mul\n      dup4\n      mstore\n      swap2\n      0x20\n      add\n      swap2\n      jump(tag_233)\n    tag_234:\n      dup3\n      add\n      swap2\n      swap1\n      0x00\n      mstore\n      keccak256(0x00, 0x20)\n      swap1\n    tag_235:\n      dup2\n      sload\n      dup2\n      mstore\n      swap1\n      0x01\n      add\n      swap1\n      0x20\n      add\n      dup1\n      dup4\n      gt\n      tag_235\n      jumpi\n      dup3\n      swap1\n      sub\n      0x1f\n      and\n      dup3\n      add\n      swap2\n    tag_233:\n      pop\n      pop\n      pop\n      pop\n      pop\n      dup2\n      mstore\n      0x20\n      add\n      0x06\n      dup3\n      add\n      dup1\n      sload\n      tag_236\n      swap1\n      tag_149\n      jump\t// in\n    tag_236:\n      dup1\n      0x1f\n      add\n      0x20\n      dup1\n      swap2\n      div\n      mul\n      0x20\n      add\n      mload(0x40)\n      swap1\n      dup2\n      add\n      0x40\n      mstore\n      dup1\n      swap3\n      swap2\n      swap1\n      dup2\n      dup2\n      mstore\n      0x20\n      add\n      dup3\n      dup1\n      sload\n      tag_237\n      swap1\n      tag_149\n      jump\t// in\n    tag_237:\n      dup1\n      iszero\n      tag_238\n      jumpi\n      dup1\n      0x1f\n      lt\n      tag_239\n      jumpi\n      0x0100\n      dup1\n      dup4\n      sload\n      div\n      mul\n      dup4\n      mstore\n      swap2\n      0x20\n      add\n      swap2\n      jump(tag_238)\n    tag_239:\n      dup3\n      add\n      swap2\n      swap1\n      0x00\n      mstore\n      keccak256(0x00, 0x20)\n      swap1\n    tag_240:\n      dup2\n      sload\n      dup2\n      mstore\n      swap1\n      0x01\n      add\n      swap1\n      0x20\n      add\n      dup1\n      dup4\n      gt\n      tag_240\n      jumpi\n      dup3\n      swap1\n      sub\n      0x1f\n      and\n      dup3\n      add\n      swap2\n    tag_238:\n      pop\n      pop\n      pop\n      pop\n      pop\n      dup2\n      mstore\n      0x20\n      add\n      0x07\n      dup3\n      add\n      sload\n      dup2\n      mstore\n      pop\n      pop\n      swap1\n      dup1\n      0x08\n      add\n      mload(0x40)\n      dup1\n      0xc0\n      add\n      0x40\n      mstore\n      swap1\n      dup2\n      0x00\n      dup3\n      add\n      dup1\n      sload\n      tag_241\n      swap1\n      tag_149\n      jump\t// in\n    tag_241:\n      dup1\n      0x1f\n      add\n      0x20\n      dup1\n      swap2\n      div\n      mul\n      0x20\n      add\n      mload(0x40)\n      swap1\n      dup2\n      add\n      0x40\n      mstore\n      dup1\n      swap3\n      swap2\n      swap1\n      dup2\n      dup2\n      mstore\n      0x20\n      add\n      dup3\n      dup1\n      sload\n      tag_242\n      swap1\n      tag_149\n      jump\t// in\n    tag_242:\n      dup1\n      iszero\n      tag_243\n      jumpi\n      dup1\n      0x1f\n      lt\n      tag_244\n      jumpi\n      0x0100\n      dup1\n      dup4\n      sload\n      div\n      mul\n      dup4\n      mstore\n      swap2\n      0x20\n      add\n      swap2\n      jump(tag_243)\n    tag_244:\n      dup3\n      add\n      swap2\n      swap1\n      0x00\n      mstore\n      keccak256(0x00, 0x20)\n      swap1\n    tag_245:\n      dup2\n      sload\n      dup2\n      mstore\n      swap1\n      0x01\n      add\n      swap1\n      0x20\n      add\n      dup1\n      dup4\n      gt\n      tag_245\n      jumpi\n      dup3\n      swap1\n      sub\n      0x1f\n      and\n      dup3\n      add\n      swap2\n    tag_243:\n      pop\n      pop\n      pop\n      pop\n      pop\n      dup2\n      mstore\n      0x20\n      add\n      0x01\n      dup3\n      add\n      dup1\n      sload\n      tag_246\n      swap1\n      tag_149\n      jump\t// in\n    tag_246:\n      dup1\n      0x1f\n      add\n      0x20\n      dup1\n      swap2\n      div\n      mul\n      0x20\n      add\n      mload(0x40)\n      swap1\n      dup2\n      add\n      0x40\n      mstore\n      dup1\n      swap3\n      swap2\n      swap1\n      dup2\n      dup2\n      mstore\n      0x20\n      add\n      dup3\n      dup1\n      sload\n      tag_247\n      swap1\n      tag_149\n      jump\t// in\n    tag_247:\n      dup1\n      iszero\n      tag_248\n      jumpi\n      dup1\n      0x1f\n      lt\n      tag_249\n      jumpi\n      0x0100\n      dup1\n      dup4\n      sload\n      div\n      mul\n      dup4\n      mstore\n      swap2\n      0x20\n      add\n      swap2\n      jump(tag_248)\n    tag_249:\n      dup3\n      add\n      swap2\n      swap1\n      0x00\n      mstore\n      keccak256(0x00, 0x20)\n      swap1\n    tag_250:\n      dup2\n      sload\n      dup2\n      mstore\n      swap1\n      0x01\n      add\n      swap1\n      0x20\n      add\n      dup1\n      dup4\n      gt\n      tag_250\n      jumpi\n      dup3\n      swap1\n      sub\n      0x1f\n      and\n      dup3\n      add\n      swap2\n    tag_248:\n      pop\n      pop\n      pop\n      pop\n      pop\n      dup2\n      mstore\n      0x20\n      add\n      0x02\n      dup3\n      add\n      dup1\n      sload\n      tag_251\n      swap1\n      tag_149\n      jump\t// in\n    tag_251:\n      dup1\n      0x1f\n      add\n      0x20\n      dup1\n      swap2\n      div\n      mul\n      0x20\n      add\n      mload(0x40)\n      swap1\n      dup2\n      add\n      0x40\n      mstore\n      dup1\n      swap3\n      swap2\n      swap1\n      dup2\n      dup2\n      mstore\n      0x20\n      add\n      dup3\n      dup1\n      sload\n      tag_252\n      swap1\n      tag_149\n      jump\t// in\n    tag_252:\n      dup1\n      iszero\n      tag_253\n      jumpi\n      dup1\n      0x1f\n      lt\n      tag_254\n      jumpi\n      0x0100\n      dup1\n      dup4\n      sload\n      div\n      mul\n      dup4\n      mstore\n      swap2\n      0x20\n      add\n      swap2\n      jump(tag_253)\n    tag_254:\n      dup3\n      add\n      swap2\n      swap1\n      0x00\n      mstore\n      keccak256(0x00, 0x20)\n      swap1\n    tag_255:\n      dup2\n      sload\n      dup2\n      mstore\n      swap1\n      0x01\n      add\n      swap1\n      0x20\n      add\n      dup1\n      dup4\n      gt\n      tag_255\n      jumpi\n      dup3\n      swap1\n      sub\n      0x1f\n      and\n      dup3\n      add\n      swap2\n    tag_253:\n      pop\n      pop\n      pop\n      pop\n      pop\n      dup2\n      mstore\n      0x20\n      add\n      0x03\n      dup3\n      add\n      dup1\n      sload\n      tag_256\n      swap1\n      tag_149\n      jump\t// in\n    tag_256:\n      dup1\n      0x1f\n      add\n      0x20\n      dup1\n      swap2\n      div\n      mul\n      0x20\n      add\n      mload(0x40)\n      swap1\n      dup2\n      add\n      0x40\n      mstore\n      dup1\n      swap3\n      swap2\n      swap1\n      dup2\n      dup2\n      mstore\n      0x20\n      add\n      dup3\n      dup1\n      sload\n      tag_257\n      swap1\n      tag_149\n      jump\t// in\n    tag_257:\n      dup1\n      iszero\n      tag_258\n      jumpi\n      dup1\n      0x1f\n      lt\n      tag_259\n      jumpi\n      0x0100\n      dup1\n      dup4\n      sload\n      div\n      mul\n      dup4\n      mstore\n      swap2\n      0x20\n      add\n      swap2\n      jump(tag_258)\n    tag_259:\n      dup3\n      add\n      swap2\n      swap1\n      0x00\n      mstore\n      keccak256(0x00, 0x20)\n      swap1\n    tag_260:\n      dup2\n      sload\n      dup2\n      mstore\n      swap1\n      0x01\n      add\n      swap1\n      0x20\n      add\n      dup1\n      dup4\n      gt\n      tag_260\n      jumpi\n      dup3\n      swap1\n      sub\n      0x1f\n      and\n      dup3\n      add\n      swap2\n    tag_258:\n      pop\n      pop\n      pop\n      pop\n      pop\n      dup2\n      mstore\n      0x20\n      add\n      0x04\n      dup3\n      add\n      dup1\n      sload\n      tag_261\n      swap1\n      tag_149\n      jump\t// in\n    tag_261:\n      dup1\n      0x1f\n      add\n      0x20\n      dup1\n      swap2\n      div\n      mul\n      0x20\n      add\n      mload(0x40)\n      swap1\n      dup2\n      add\n      0x40\n      mstore\n      dup1\n      swap3\n      swap2\n      swap1\n      dup2\n      dup2\n      mstore\n      0x20\n      add\n      dup3\n      dup1\n      sload\n      tag_262\n      swap1\n      tag_149\n      jump\t// in\n    tag_262:\n      dup1\n      iszero\n      tag_263\n      jumpi\n      dup1\n      0x1f\n      lt\n      tag_264\n      jumpi\n      0x0100\n      dup1\n      dup4\n      sload\n      div\n      mul\n      dup4\n      mstore\n      swap2\n      0x20\n      add\n      swap2\n      jump(tag_263)\n    tag_264:\n      dup3\n      add\n      swap2\n      swap1\n      0x00\n      mstore\n      keccak256(0x00, 0x20)\n      swap1\n    tag_265:\n      dup2\n      sload\n      dup2\n      mstore\n      swap1\n      0x01\n      add\n      swap1\n      0x20\n      add\n      dup1\n      dup4\n      gt\n      tag_265\n      jumpi\n      dup3\n      swap1\n      sub\n      0x1f\n      and\n      dup3\n      add\n      swap2\n    tag_263:\n      pop\n      pop\n      pop\n      pop\n      pop\n      dup2\n      mstore\n      0x20\n      add\n      0x05\n      dup3\n      add\n      dup1\n      sload\n      tag_266\n      swap1\n      tag_149\n      jump\t// in\n    tag_266:\n      dup1\n      0x1f\n      add\n      0x20\n      dup1\n      swap2\n      div\n      mul\n      0x20\n      add\n      mload(0x40)\n      swap1\n      dup2\n      add\n      0x40\n      mstore\n      dup1\n      swap3\n      swap2\n      swap1\n      dup2\n      dup2\n      mstore\n      0x20\n      add\n      dup3\n      dup1\n      sload\n      tag_267\n      swap1\n      tag_149\n      jump\t// in\n    tag_267:\n      dup1\n      iszero\n      tag_268\n      jumpi\n      dup1\n      0x1f\n      lt\n      tag_269\n      jumpi\n      0x0100\n      dup1\n      dup4\n      sload\n      div\n      mul\n      dup4\n      mstore\n      swap2\n      0x20\n      add\n      swap2\n      jump(tag_268)\n    tag_269:\n      dup3\n      add\n      swap2\n      swap1\n      0x00\n      mstore\n      keccak256(0x00, 0x20)\n      swap1\n    tag_270:\n      dup2\n      sload\n      dup2\n      mstore\n      swap1\n      0x01\n      add\n      swap1\n      0x20\n      add\n      dup1\n      dup4\n      gt\n      tag_270\n      jumpi\n      dup3\n      swap1\n      sub\n      0x1f\n      and\n      dup3\n      add\n      swap2\n    tag_268:\n      pop\n      pop\n      pop\n      pop\n      pop\n      dup2\n      mstore\n      pop\n      pop\n      swap1\n      dup1\n      0x0e\n      add\n      mload(0x40)\n      dup1\n      0x60\n      add\n      0x40\n      mstore\n      swap1\n      dup2\n      0x00\n      dup3\n      add\n      dup1\n      sload\n      dup1\n      0x20\n      mul\n      0x20\n      add\n      mload(0x40)\n      swap1\n      dup2\n      add\n      0x40\n      mstore\n      dup1\n      swap3\n      swap2\n      swap1\n      dup2\n      dup2\n      mstore\n      0x20\n      add\n      0x00\n      swap1\n    tag_271:\n      dup3\n      dup3\n      lt\n      iszero\n      tag_272\n      jumpi\n      dup4\n      dup3\n      swap1\n      0x00\n      mstore\n      keccak256(0x00, 0x20)\n      add\n      dup1\n      sload\n      tag_274\n      swap1\n      tag_149\n      jump\t// in\n    tag_274:\n      dup1\n      0x1f\n      add\n      0x20\n      dup1\n      swap2\n      div\n      mul\n      0x20\n      add\n      mload(0x40)\n      swap1\n      dup2\n      add\n      0x40\n      mstore\n      dup1\n      swap3\n      swap2\n      swap1\n      dup2\n      dup2\n      mstore\n      0x20\n      add\n      dup3\n      dup1\n      sload\n      tag_275\n      swap1\n      tag_149\n      jump\t// in\n    tag_275:\n      dup1\n      iszero\n      tag_276\n      jumpi\n      dup1\n      0x1f\n      lt\n      tag_277\n      jumpi\n      0x0100\n      dup1\n      dup4\n      sload\n      div\n      mul\n      dup4\n      mstore\n      swap2\n      0x20\n      add\n      swap2\n      jump(tag_276)\n    tag_277:\n      dup3\n      add\n      swap2\n      swap1\n      0x00\n      mstore\n      keccak256(0x00, 0x20)\n      swap1\n    tag_278:\n      dup2\n      sload\n      dup2\n      mstore\n      swap1\n      0x01\n      add\n      swap1\n      0x20\n      add\n      dup1\n      dup4\n      gt\n      tag_278\n      jumpi\n      dup3\n      swap1\n      sub\n      0x1f\n      and\n      dup3\n      add\n      swap2\n    tag_276:\n      pop\n      pop\n      pop\n      pop\n      pop\n      dup2\n      mstore\n      0x20\n      add\n      swap1\n      0x01\n      add\n      swap1\n      jump(tag_271)\n    tag_272:\n      pop\n      pop\n      pop\n      pop\n      dup2\n      mstore\n      0x20\n      add\n      0x01\n      dup3\n      add\n      dup1\n      sload\n      dup1\n      0x20\n      mul\n      0x20\n      add\n      mload(0x40)\n      swap1\n      dup2\n      add\n      0x40\n      mstore\n      dup1\n      swap3\n      swap2\n      swap1\n      dup2\n      dup2\n      mstore\n      0x20\n      add\n      0x00\n      swap1\n    tag_279:\n      dup3\n      dup3\n      lt\n      iszero\n      tag_280\n      jumpi\n      dup4\n      dup3\n      swap1\n      0x00\n      mstore\n      keccak256(0x00, 0x20)\n      add\n      dup1\n      sload\n      tag_282\n      swap1\n      tag_149\n      jump\t// in\n    tag_282:\n      dup1\n      0x1f\n      add\n      0x20\n      dup1\n      swap2\n      div\n      mul\n      0x20\n      add\n      mload(0x40)\n      swap1\n      dup2\n      add\n      0x40\n      mstore\n      dup1\n      swap3\n      swap2\n      swap1\n      dup2\n      dup2\n      mstore\n      0x20\n      add\n      dup3\n      dup1\n      sload\n      tag_283\n      swap1\n      tag_149\n      jump\t// in\n    tag_283:\n      dup1\n      iszero\n      tag_284\n      jumpi\n      dup1\n      0x1f\n      lt\n      tag_285\n      jumpi\n      0x0100\n      dup1\n      dup4\n      sload\n      div\n      mul\n      dup4\n      mstore\n      swap2\n      0x20\n      add\n      swap2\n      jump(tag_284)\n    tag_285:\n      dup3\n      add\n      swap2\n      swap1\n      0x00\n      mstore\n      keccak256(0x00, 0x20)\n      swap1\n    tag_286:\n      dup2\n      sload\n      dup2\n      mstore\n      swap1\n      0x01\n      add\n      swap1\n      0x20\n      add\n      dup1\n      dup4\n      gt\n      tag_286\n      jumpi\n      dup3\n      swap1\n      sub\n      0x1f\n      and\n      dup3\n      add\n      swap2\n    tag_284:\n      pop\n      pop\n      pop\n      pop\n      pop\n      dup2\n      mstore\n      0x20\n      add\n      swap1\n      0x01\n      add\n      swap1\n      jump(tag_279)\n    tag_280:\n      pop\n      pop\n      pop\n      pop\n      dup2\n      mstore\n      0x20\n      add\n      0x02\n      dup3\n      add\n      dup1\n      sload\n      dup1\n      0x20\n      mul\n      0x20\n      add\n      mload(0x40)\n      swap1\n      dup2\n      add\n      0x40\n      mstore\n      dup1\n      swap3\n      swap2\n      swap1\n      dup2\n      dup2\n      mstore\n      0x20\n      add\n      0x00\n      swap1\n    tag_287:\n      dup3\n      dup3\n      lt\n      iszero\n      tag_288\n      jumpi\n      dup4\n      dup3\n      swap1\n      0x00\n      mstore\n      keccak256(0x00, 0x20)\n      add\n      dup1\n      sload\n      tag_290\n      swap1\n      tag_149\n      jump\t// in\n    tag_290:\n      dup1\n      0x1f\n      add\n      0x20\n      dup1\n      swap2\n      div\n      mul\n      0x20\n      add\n      mload(0x40)\n      swap1\n      dup2\n      add\n      0x40\n      mstore\n      dup1\n      swap3\n      swap2\n      swap1\n      dup2\n      dup2\n      mstore\n      0x20\n      add\n      dup3\n      dup1\n      sload\n      tag_291\n      swap1\n      tag_149\n      jump\t// in\n    tag_291:\n      dup1\n      iszero\n      tag_292\n      jumpi\n      dup1\n      0x1f\n      lt\n      tag_293\n      jumpi\n      0x0100\n      dup1\n      dup4\n      sload\n      div\n      mul\n      dup4\n      mstore\n      swap2\n      0x20\n      add\n      swap2\n      jump(tag_292)\n    tag_293:\n      dup3\n      add\n      swap2\n      swap1\n      0x00\n      mstore\n      keccak256(0x00, 0x20)\n      swap1\n    tag_294:\n      dup2\n      sload\n      dup2\n      mstore\n      swap1\n      0x01\n      add\n      swap1\n      0x20\n      add\n      dup1\n      dup4\n      gt\n      tag_294\n      jumpi\n      dup3\n      swap1\n      sub\n      0x1f\n      and\n      dup3\n      add\n      swap2\n    tag_292:\n      pop\n      pop\n      pop\n      pop\n      pop\n      dup2\n      mstore\n      0x20\n      add\n      swap1\n      0x01\n      add\n      swap1\n      jump(tag_287)\n    tag_288:\n      pop\n      pop\n      pop\n      pop\n      dup2\n      mstore\n      pop\n      pop\n      swap1\n      dup1\n      0x12\n      add\n      mload(0x40)\n      dup1\n      0x40\n      add\n      0x40\n      mstore\n      swap1\n      dup2\n      0x00\n      dup3\n      add\n      dup1\n      sload\n      dup1\n      0x20\n      mul\n      0x20\n      add\n      mload(0x40)\n      swap1\n      dup2\n      add\n      0x40\n      mstore\n      dup1\n      swap3\n      swap2\n      swap1\n      dup2\n      dup2\n      mstore\n      0x20\n      add\n      0x00\n      swap1\n    tag_295:\n      dup3\n      dup3\n      lt\n      iszero\n      tag_296\n      jumpi\n      dup4\n      dup3\n      swap1\n      0x00\n      mstore\n      keccak256(0x00, 0x20)\n      add\n      dup1\n      sload\n      tag_298\n      swap1\n      tag_149\n      jump\t// in\n    tag_298:\n      dup1\n      0x1f\n      add\n      0x20\n      dup1\n      swap2\n      div\n      mul\n      0x20\n      add\n      mload(0x40)\n      swap1\n      dup2\n      add\n      0x40\n      mstore\n      dup1\n      swap3\n      swap2\n      swap1\n      dup2\n      dup2\n      mstore\n      0x20\n      add\n      dup3\n      dup1\n      sload\n      tag_299\n      swap1\n      tag_149\n      jump\t// in\n    tag_299:\n      dup1\n      iszero\n      tag_300\n      jumpi\n      dup1\n      0x1f\n      lt\n      tag_301\n      jumpi\n      0x0100\n      dup1\n      dup4\n      sload\n      div\n      mul\n      dup4\n      mstore\n      swap2\n      0x20\n      add\n      swap2\n      jump(tag_300)\n    tag_301:\n      dup3\n      add\n      swap2\n      swap1\n      0x00\n      mstore\n      keccak256(0x00, 0x20)\n      swap1\n    tag_302:\n      dup2\n      sload\n      dup2\n      mstore\n      swap1\n      0x01\n      add\n      swap1\n      0x20\n      add\n      dup1\n      dup4\n      gt\n      tag_302\n      jumpi\n      dup3\n      swap1\n      sub\n      0x1f\n      and\n      dup3\n      add\n      swap2\n    tag_300:\n      pop\n      pop\n      pop\n      pop\n      pop\n      dup2\n      mstore\n      0x20\n      add\n      swap1\n      0x01\n      add\n      swap1\n      jump(tag_295)\n    tag_296:\n      pop\n      pop\n      pop\n      pop\n      dup2\n      mstore\n      0x20\n      add\n      0x01\n      dup3\n      add\n      dup1\n      sload\n      dup1\n      0x20\n      mul\n      0x20\n      add\n      mload(0x40)\n      swap1\n      dup2\n      add\n      0x40\n      mstore\n      dup1\n      swap3\n      swap2\n      swap1\n      dup2\n      dup2\n      mstore\n      0x20\n      add\n      0x00\n      swap1\n    tag_303:\n      dup3\n      dup3\n      lt\n      iszero\n      tag_304\n      jumpi\n      dup4\n      dup3\n      swap1\n      0x00\n      mstore\n      keccak256(0x00, 0x20)\n      add\n      dup1\n      sload\n      tag_306\n      swap1\n      tag_149\n      jump\t// in\n    tag_306:\n      dup1\n      0x1f\n      add\n      0x20\n      dup1\n      swap2\n      div\n      mul\n      0x20\n      add\n      mload(0x40)\n      swap1\n      dup2\n      add\n      0x40\n      mstore\n      dup1\n      swap3\n      swap2\n      swap1\n      dup2\n      dup2\n      mstore\n      0x20\n      add\n      dup3\n      dup1\n      sload\n      tag_307\n      swap1\n      tag_149\n      jump\t// in\n    tag_307:\n      dup1\n      iszero\n      tag_308\n      jumpi\n      dup1\n      0x1f\n      lt\n      tag_309\n      jumpi\n      0x0100\n      dup1\n      dup4\n      sload\n      div\n      mul\n      dup4\n      mstore\n      swap2\n      0x20\n      add\n      swap2\n      jump(tag_308)\n    tag_309:\n      dup3\n      add\n      swap2\n      swap1\n      0x00\n      mstore\n      keccak256(0x00, 0x20)\n      swap1\n    tag_310:\n      dup2\n      sload\n      dup2\n      mstore\n      swap1\n      0x01\n      add\n      swap1\n      0x20\n      add\n      dup1\n      dup4\n      gt\n      tag_310\n      jumpi\n      dup3\n      swap1\n      sub\n      0x1f\n      and\n      dup3\n      add\n      swap2\n    tag_308:\n      pop\n      pop\n      pop\n      pop\n      pop\n      dup2\n      mstore\n      0x20\n      add\n      swap1\n      0x01\n      add\n      swap1\n      jump(tag_303)\n    tag_304:\n      pop\n      pop\n      pop\n      pop\n      dup2\n      mstore\n      pop\n      pop\n      swap1\n      pop\n      dup5\n      jump\t// out\n        /* \"contracts/Profile.sol\":6930:7034  function delCompanyExperience() external {\r... */\n    tag_80:\n        /* \"contracts/Profile.sol\":6989:6996  profile */\n      0x00\n        /* \"contracts/Profile.sol\":6989:7008  profile[msg.sender] */\n      dup1\n        /* \"contracts/Profile.sol\":6997:7007  msg.sender */\n      caller\n        /* \"contracts/Profile.sol\":6989:7008  profile[msg.sender] */\n      0xffffffffffffffffffffffffffffffffffffffff\n      and\n      0xffffffffffffffffffffffffffffffffffffffff\n      and\n      dup2\n      mstore\n      0x20\n      add\n      swap1\n      dup2\n      mstore\n      0x20\n      add\n      0x00\n      keccak256\n        /* \"contracts/Profile.sol\":6989:7026  profile[msg.sender].companyExperience */\n      0x14\n      add\n      0x00\n        /* \"contracts/Profile.sol\":6982:7026  delete profile[msg.sender].companyExperience */\n      tag_312\n      swap2\n      swap1\n      tag_313\n      jump\t// in\n    tag_312:\n        /* \"contracts/Profile.sol\":6930:7034  function delCompanyExperience() external {\r... */\n      jump\t// out\n        /* \"contracts/Profile.sol\":3290:3759  function createEducation(string memory startDate, string memory endDate, string memory university, string memory major, string memory finalProject) public {\r... */\n    tag_83:\n        /* \"contracts/Profile.sol\":3456:3483  Education memory _education */\n      tag_315\n      tag_316\n      jump\t// in\n    tag_315:\n        /* \"contracts/Profile.sol\":3517:3526  startDate */\n      dup6\n        /* \"contracts/Profile.sol\":3494:3504  _education */\n      dup2\n        /* \"contracts/Profile.sol\":3494:3514  _education.startDate */\n      0x00\n      add\n        /* \"contracts/Profile.sol\":3494:3526  _education.startDate = startDate */\n      dup2\n      swap1\n      mstore\n      pop\n        /* \"contracts/Profile.sol\":3558:3565  endDate */\n      dup5\n        /* \"contracts/Profile.sol\":3537:3547  _education */\n      dup2\n        /* \"contracts/Profile.sol\":3537:3555  _education.endDate */\n      0x20\n      add\n        /* \"contracts/Profile.sol\":3537:3565  _education.endDate = endDate */\n      dup2\n      swap1\n      mstore\n      pop\n        /* \"contracts/Profile.sol\":3600:3610  university */\n      dup4\n        /* \"contracts/Profile.sol\":3576:3586  _education */\n      dup2\n        /* \"contracts/Profile.sol\":3576:3597  _education.university */\n      0x40\n      add\n        /* \"contracts/Profile.sol\":3576:3610  _education.university = university */\n      dup2\n      swap1\n      mstore\n      pop\n        /* \"contracts/Profile.sol\":3640:3645  major */\n      dup3\n        /* \"contracts/Profile.sol\":3621:3631  _education */\n      dup2\n        /* \"contracts/Profile.sol\":3621:3637  _education.major */\n      0x60\n      add\n        /* \"contracts/Profile.sol\":3621:3645  _education.major = major */\n      dup2\n      swap1\n      mstore\n      pop\n        /* \"contracts/Profile.sol\":3682:3694  finalProject */\n      dup2\n        /* \"contracts/Profile.sol\":3656:3666  _education */\n      dup2\n        /* \"contracts/Profile.sol\":3656:3679  _education.finalProject */\n      0x80\n      add\n        /* \"contracts/Profile.sol\":3656:3694  _education.finalProject = finalProject */\n      dup2\n      swap1\n      mstore\n      pop\n        /* \"contracts/Profile.sol\":3705:3712  profile */\n      0x00\n        /* \"contracts/Profile.sol\":3705:3724  profile[msg.sender] */\n      dup1\n        /* \"contracts/Profile.sol\":3713:3723  msg.sender */\n      caller\n        /* \"contracts/Profile.sol\":3705:3724  profile[msg.sender] */\n      0xffffffffffffffffffffffffffffffffffffffff\n      and\n      0xffffffffffffffffffffffffffffffffffffffff\n      and\n      dup2\n      mstore\n      0x20\n      add\n      swap1\n      dup2\n      mstore\n      0x20\n      add\n      0x00\n      keccak256\n        /* \"contracts/Profile.sol\":3705:3734  profile[msg.sender].education */\n      0x11\n      add\n        /* \"contracts/Profile.sol\":3740:3750  _education */\n      dup2\n        /* \"contracts/Profile.sol\":3705:3751  profile[msg.sender].education.push(_education) */\n      swap1\n      dup1\n      0x01\n      dup2\n      sload\n      add\n      dup1\n      dup3\n      sstore\n      dup1\n      swap2\n      pop\n      pop\n      0x01\n      swap1\n      sub\n      swap1\n      0x00\n      mstore\n      keccak256(0x00, 0x20)\n      swap1\n      0x05\n      mul\n      add\n      0x00\n      swap1\n      swap2\n      swap1\n      swap2\n      swap1\n      swap2\n      pop\n      0x00\n      dup3\n      add\n      mload\n      dup2\n      0x00\n      add\n      swap1\n      dup1\n      mload\n      swap1\n      0x20\n      add\n      swap1\n      tag_318\n      swap3\n      swap2\n      swap1\n      tag_110\n      jump\t// in\n    tag_318:\n      pop\n      0x20\n      dup3\n      add\n      mload\n      dup2\n      0x01\n      add\n      swap1\n      dup1\n      mload\n      swap1\n      0x20\n      add\n      swap1\n      tag_319\n      swap3\n      swap2\n      swap1\n      tag_110\n      jump\t// in\n    tag_319:\n      pop\n      0x40\n      dup3\n      add\n      mload\n      dup2\n      0x02\n      add\n      swap1\n      dup1\n      mload\n      swap1\n      0x20\n      add\n      swap1\n      tag_320\n      swap3\n      swap2\n      swap1\n      tag_110\n      jump\t// in\n    tag_320:\n      pop\n      0x60\n      dup3\n      add\n      mload\n      dup2\n      0x03\n      add\n      swap1\n      dup1\n      mload\n      swap1\n      0x20\n      add\n      swap1\n      tag_321\n      swap3\n      swap2\n      swap1\n      tag_110\n      jump\t// in\n    tag_321:\n      pop\n      0x80\n      dup3\n      add\n      mload\n      dup2\n      0x04\n      add\n      swap1\n      dup1\n      mload\n      swap1\n      0x20\n      add\n      swap1\n      tag_322\n      swap3\n      swap2\n      swap1\n      tag_110\n      jump\t// in\n    tag_322:\n      pop\n      pop\n      pop\n        /* \"contracts/Profile.sol\":3445:3759  {\r... */\n      pop\n        /* \"contracts/Profile.sol\":3290:3759  function createEducation(string memory startDate, string memory endDate, string memory university, string memory major, string memory finalProject) public {\r... */\n      pop\n      pop\n      pop\n      pop\n      pop\n      jump\t// out\n        /* \"contracts/Profile.sol\":1536:1638  function myBalance() public view returns(uint256){\r... */\n    tag_85:\n        /* \"contracts/Profile.sol\":1577:1584  uint256 */\n      0x00\n        /* \"contracts/Profile.sol\":1611:1621  msg.sender */\n      caller\n        /* \"contracts/Profile.sol\":1603:1630  address(msg.sender).balance */\n      0xffffffffffffffffffffffffffffffffffffffff\n      and\n      balance\n        /* \"contracts/Profile.sol\":1596:1630  return address(msg.sender).balance */\n      swap1\n      pop\n        /* \"contracts/Profile.sol\":1536:1638  function myBalance() public view returns(uint256){\r... */\n      swap1\n      jump\t// out\n        /* \"contracts/Profile.sol\":4877:5112  function getFreelanceExperience(uint index) public view returns(string memory, string memory) {\r... */\n    tag_89:\n        /* \"contracts/Profile.sol\":4941:4954  string memory */\n      0x60\n        /* \"contracts/Profile.sol\":4956:4969  string memory */\n      dup1\n        /* \"contracts/Profile.sol\":4990:4997  profile */\n      0x00\n        /* \"contracts/Profile.sol\":4990:5009  profile[msg.sender] */\n      dup1\n        /* \"contracts/Profile.sol\":4998:5008  msg.sender */\n      caller\n        /* \"contracts/Profile.sol\":4990:5009  profile[msg.sender] */\n      0xffffffffffffffffffffffffffffffffffffffff\n      and\n      0xffffffffffffffffffffffffffffffffffffffff\n      and\n      dup2\n      mstore\n      0x20\n      add\n      swap1\n      dup2\n      mstore\n      0x20\n      add\n      0x00\n      keccak256\n        /* \"contracts/Profile.sol\":4990:5029  profile[msg.sender].freelanceExperience */\n      0x15\n      add\n        /* \"contracts/Profile.sol\":5030:5035  index */\n      dup4\n        /* \"contracts/Profile.sol\":4990:5036  profile[msg.sender].freelanceExperience[index] */\n      dup2\n      sload\n      dup2\n      lt\n      tag_325\n      jumpi\n      tag_326\n      tag_134\n      jump\t// in\n    tag_326:\n    tag_325:\n      swap1\n      0x00\n      mstore\n      keccak256(0x00, 0x20)\n      swap1\n      0x02\n      mul\n      add\n        /* \"contracts/Profile.sol\":4990:5048  profile[msg.sender].freelanceExperience[index].projectName */\n      0x00\n      add\n        /* \"contracts/Profile.sol\":5050:5057  profile */\n      0x00\n        /* \"contracts/Profile.sol\":5050:5069  profile[msg.sender] */\n      dup1\n        /* \"contracts/Profile.sol\":5058:5068  msg.sender */\n      caller\n        /* \"contracts/Profile.sol\":5050:5069  profile[msg.sender] */\n      0xffffffffffffffffffffffffffffffffffffffff\n      and\n      0xffffffffffffffffffffffffffffffffffffffff\n      and\n      dup2\n      mstore\n      0x20\n      add\n      swap1\n      dup2\n      mstore\n      0x20\n      add\n      0x00\n      keccak256\n        /* \"contracts/Profile.sol\":5050:5089  profile[msg.sender].freelanceExperience */\n      0x15\n      add\n        /* \"contracts/Profile.sol\":5090:5095  index */\n      dup5\n        /* \"contracts/Profile.sol\":5050:5096  profile[msg.sender].freelanceExperience[index] */\n      dup2\n      sload\n      dup2\n      lt\n      tag_328\n      jumpi\n      tag_329\n      tag_134\n      jump\t// in\n    tag_329:\n    tag_328:\n      swap1\n      0x00\n      mstore\n      keccak256(0x00, 0x20)\n      swap1\n      0x02\n      mul\n      add\n        /* \"contracts/Profile.sol\":5050:5103  profile[msg.sender].freelanceExperience[index].Detail */\n      0x01\n      add\n        /* \"contracts/Profile.sol\":4982:5104  return (profile[msg.sender].freelanceExperience[index].projectName, profile[msg.sender].freelanceExperience[index].Detail) */\n      dup2\n      dup1\n      sload\n      tag_331\n      swap1\n      tag_149\n      jump\t// in\n    tag_331:\n      dup1\n      0x1f\n      add\n      0x20\n      dup1\n      swap2\n      div\n      mul\n      0x20\n      add\n      mload(0x40)\n      swap1\n      dup2\n      add\n      0x40\n      mstore\n      dup1\n      swap3\n      swap2\n      swap1\n      dup2\n      dup2\n      mstore\n      0x20\n      add\n      dup3\n      dup1\n      sload\n      tag_332\n      swap1\n      tag_149\n      jump\t// in\n    tag_332:\n      dup1\n      iszero\n      tag_333\n      jumpi\n      dup1\n      0x1f\n      lt\n      tag_334\n      jumpi\n      0x0100\n      dup1\n      dup4\n      sload\n      div\n      mul\n      dup4\n      mstore\n      swap2\n      0x20\n      add\n      swap2\n      jump(tag_333)\n    tag_334:\n      dup3\n      add\n      swap2\n      swap1\n      0x00\n      mstore\n      keccak256(0x00, 0x20)\n      swap1\n    tag_335:\n      dup2\n      sload\n      dup2\n      mstore\n      swap1\n      0x01\n      add\n      swap1\n      0x20\n      add\n      dup1\n      dup4\n      gt\n      tag_335\n      jumpi\n      dup3\n      swap1\n      sub\n      0x1f\n      and\n      dup3\n      add\n      swap2\n    tag_333:\n      pop\n      pop\n      pop\n      pop\n      pop\n      swap2\n      pop\n      dup1\n      dup1\n      sload\n      tag_336\n      swap1\n      tag_149\n      jump\t// in\n    tag_336:\n      dup1\n      0x1f\n      add\n      0x20\n      dup1\n      swap2\n      div\n      mul\n      0x20\n      add\n      mload(0x40)\n      swap1\n      dup2\n      add\n      0x40\n      mstore\n      dup1\n      swap3\n      swap2\n      swap1\n      dup2\n      dup2\n      mstore\n      0x20\n      add\n      dup3\n      dup1\n      sload\n      tag_337\n      swap1\n      tag_149\n      jump\t// in\n    tag_337:\n      dup1\n      iszero\n      tag_338\n      jumpi\n      dup1\n      0x1f\n      lt\n      tag_339\n      jumpi\n      0x0100\n      dup1\n      dup4\n      sload\n      div\n      mul\n      dup4\n      mstore\n      swap2\n      0x20\n      add\n      swap2\n      jump(tag_338)\n    tag_339:\n      dup3\n      add\n      swap2\n      swap1\n      0x00\n      mstore\n      keccak256(0x00, 0x20)\n      swap1\n    tag_340:\n      dup2\n      sload\n      dup2\n      mstore\n      swap1\n      0x01\n      add\n      swap1\n      0x20\n      add\n      dup1\n      dup4\n      gt\n      tag_340\n      jumpi\n      dup3\n      swap1\n      sub\n      0x1f\n      and\n      dup3\n      add\n      swap2\n    tag_338:\n      pop\n      pop\n      pop\n      pop\n      pop\n      swap1\n      pop\n      swap2\n      pop\n      swap2\n      pop\n        /* \"contracts/Profile.sol\":4877:5112  function getFreelanceExperience(uint index) public view returns(string memory, string memory) {\r... */\n      swap2\n      pop\n      swap2\n      jump\t// out\n        /* \"contracts/Profile.sol\":6414:6506  function delAllEducation() external  {\r... */\n    tag_93:\n        /* \"contracts/Profile.sol\":6469:6476  profile */\n      0x00\n        /* \"contracts/Profile.sol\":6469:6488  profile[msg.sender] */\n      dup1\n        /* \"contracts/Profile.sol\":6477:6487  msg.sender */\n      caller\n        /* \"contracts/Profile.sol\":6469:6488  profile[msg.sender] */\n      0xffffffffffffffffffffffffffffffffffffffff\n      and\n      0xffffffffffffffffffffffffffffffffffffffff\n      and\n      dup2\n      mstore\n      0x20\n      add\n      swap1\n      dup2\n      mstore\n      0x20\n      add\n      0x00\n      keccak256\n        /* \"contracts/Profile.sol\":6469:6498  profile[msg.sender].education */\n      0x11\n      add\n      0x00\n        /* \"contracts/Profile.sol\":6462:6498  delete profile[msg.sender].education */\n      tag_342\n      swap2\n      swap1\n      tag_343\n      jump\t// in\n    tag_342:\n        /* \"contracts/Profile.sol\":6414:6506  function delAllEducation() external  {\r... */\n      jump\t// out\n        /* \"contracts/Profile.sol\":3768:4161  function getEducation(uint index) public view returns(string memory, string memory, string memory, string memory, string memory) {\r... */\n    tag_96:\n        /* \"contracts/Profile.sol\":3822:3835  string memory */\n      0x60\n        /* \"contracts/Profile.sol\":3837:3850  string memory */\n      dup1\n        /* \"contracts/Profile.sol\":3852:3865  string memory */\n      0x60\n        /* \"contracts/Profile.sol\":3867:3880  string memory */\n      dup1\n        /* \"contracts/Profile.sol\":3882:3895  string memory */\n      0x60\n        /* \"contracts/Profile.sol\":3916:3923  profile */\n      0x00\n        /* \"contracts/Profile.sol\":3916:3935  profile[msg.sender] */\n      dup1\n        /* \"contracts/Profile.sol\":3924:3934  msg.sender */\n      caller\n        /* \"contracts/Profile.sol\":3916:3935  profile[msg.sender] */\n      0xffffffffffffffffffffffffffffffffffffffff\n      and\n      0xffffffffffffffffffffffffffffffffffffffff\n      and\n      dup2\n      mstore\n      0x20\n      add\n      swap1\n      dup2\n      mstore\n      0x20\n      add\n      0x00\n      keccak256\n        /* \"contracts/Profile.sol\":3916:3945  profile[msg.sender].education */\n      0x11\n      add\n        /* \"contracts/Profile.sol\":3946:3951  index */\n      dup7\n        /* \"contracts/Profile.sol\":3916:3952  profile[msg.sender].education[index] */\n      dup2\n      sload\n      dup2\n      lt\n      tag_345\n      jumpi\n      tag_346\n      tag_134\n      jump\t// in\n    tag_346:\n    tag_345:\n      swap1\n      0x00\n      mstore\n      keccak256(0x00, 0x20)\n      swap1\n      0x05\n      mul\n      add\n        /* \"contracts/Profile.sol\":3916:3962  profile[msg.sender].education[index].startDate */\n      0x00\n      add\n        /* \"contracts/Profile.sol\":3964:3971  profile */\n      0x00\n        /* \"contracts/Profile.sol\":3964:3983  profile[msg.sender] */\n      dup1\n        /* \"contracts/Profile.sol\":3972:3982  msg.sender */\n      caller\n        /* \"contracts/Profile.sol\":3964:3983  profile[msg.sender] */\n      0xffffffffffffffffffffffffffffffffffffffff\n      and\n      0xffffffffffffffffffffffffffffffffffffffff\n      and\n      dup2\n      mstore\n      0x20\n      add\n      swap1\n      dup2\n      mstore\n      0x20\n      add\n      0x00\n      keccak256\n        /* \"contracts/Profile.sol\":3964:3993  profile[msg.sender].education */\n      0x11\n      add\n        /* \"contracts/Profile.sol\":3994:3999  index */\n      dup8\n        /* \"contracts/Profile.sol\":3964:4000  profile[msg.sender].education[index] */\n      dup2\n      sload\n      dup2\n      lt\n      tag_348\n      jumpi\n      tag_349\n      tag_134\n      jump\t// in\n    tag_349:\n    tag_348:\n      swap1\n      0x00\n      mstore\n      keccak256(0x00, 0x20)\n      swap1\n      0x05\n      mul\n      add\n        /* \"contracts/Profile.sol\":3964:4008  profile[msg.sender].education[index].endDate */\n      0x01\n      add\n        /* \"contracts/Profile.sol\":4010:4017  profile */\n      0x00\n        /* \"contracts/Profile.sol\":4010:4029  profile[msg.sender] */\n      dup1\n        /* \"contracts/Profile.sol\":4018:4028  msg.sender */\n      caller\n        /* \"contracts/Profile.sol\":4010:4029  profile[msg.sender] */\n      0xffffffffffffffffffffffffffffffffffffffff\n      and\n      0xffffffffffffffffffffffffffffffffffffffff\n      and\n      dup2\n      mstore\n      0x20\n      add\n      swap1\n      dup2\n      mstore\n      0x20\n      add\n      0x00\n      keccak256\n        /* \"contracts/Profile.sol\":4010:4039  profile[msg.sender].education */\n      0x11\n      add\n        /* \"contracts/Profile.sol\":4040:4045  index */\n      dup9\n        /* \"contracts/Profile.sol\":4010:4046  profile[msg.sender].education[index] */\n      dup2\n      sload\n      dup2\n      lt\n      tag_351\n      jumpi\n      tag_352\n      tag_134\n      jump\t// in\n    tag_352:\n    tag_351:\n      swap1\n      0x00\n      mstore\n      keccak256(0x00, 0x20)\n      swap1\n      0x05\n      mul\n      add\n        /* \"contracts/Profile.sol\":4010:4057  profile[msg.sender].education[index].university */\n      0x02\n      add\n        /* \"contracts/Profile.sol\":4059:4066  profile */\n      0x00\n        /* \"contracts/Profile.sol\":4059:4078  profile[msg.sender] */\n      dup1\n        /* \"contracts/Profile.sol\":4067:4077  msg.sender */\n      caller\n        /* \"contracts/Profile.sol\":4059:4078  profile[msg.sender] */\n      0xffffffffffffffffffffffffffffffffffffffff\n      and\n      0xffffffffffffffffffffffffffffffffffffffff\n      and\n      dup2\n      mstore\n      0x20\n      add\n      swap1\n      dup2\n      mstore\n      0x20\n      add\n      0x00\n      keccak256\n        /* \"contracts/Profile.sol\":4059:4088  profile[msg.sender].education */\n      0x11\n      add\n        /* \"contracts/Profile.sol\":4089:4094  index */\n      dup10\n        /* \"contracts/Profile.sol\":4059:4095  profile[msg.sender].education[index] */\n      dup2\n      sload\n      dup2\n      lt\n      tag_354\n      jumpi\n      tag_355\n      tag_134\n      jump\t// in\n    tag_355:\n    tag_354:\n      swap1\n      0x00\n      mstore\n      keccak256(0x00, 0x20)\n      swap1\n      0x05\n      mul\n      add\n        /* \"contracts/Profile.sol\":4059:4101  profile[msg.sender].education[index].major */\n      0x03\n      add\n        /* \"contracts/Profile.sol\":4103:4110  profile */\n      0x00\n        /* \"contracts/Profile.sol\":4103:4122  profile[msg.sender] */\n      dup1\n        /* \"contracts/Profile.sol\":4111:4121  msg.sender */\n      caller\n        /* \"contracts/Profile.sol\":4103:4122  profile[msg.sender] */\n      0xffffffffffffffffffffffffffffffffffffffff\n      and\n      0xffffffffffffffffffffffffffffffffffffffff\n      and\n      dup2\n      mstore\n      0x20\n      add\n      swap1\n      dup2\n      mstore\n      0x20\n      add\n      0x00\n      keccak256\n        /* \"contracts/Profile.sol\":4103:4132  profile[msg.sender].education */\n      0x11\n      add\n        /* \"contracts/Profile.sol\":4133:4138  index */\n      dup11\n        /* \"contracts/Profile.sol\":4103:4139  profile[msg.sender].education[index] */\n      dup2\n      sload\n      dup2\n      lt\n      tag_357\n      jumpi\n      tag_358\n      tag_134\n      jump\t// in\n    tag_358:\n    tag_357:\n      swap1\n      0x00\n      mstore\n      keccak256(0x00, 0x20)\n      swap1\n      0x05\n      mul\n      add\n        /* \"contracts/Profile.sol\":4103:4152  profile[msg.sender].education[index].finalProject */\n      0x04\n      add\n        /* \"contracts/Profile.sol\":3908:4153  return (profile[msg.sender].education[index].startDate, profile[msg.sender].education[index].endDate, profile[msg.sender].education[index].university, profile[msg.sender].education[index].major, profile[msg.sender].education[index].finalProject) */\n      dup5\n      dup1\n      sload\n      tag_360\n      swap1\n      tag_149\n      jump\t// in\n    tag_360:\n      dup1\n      0x1f\n      add\n      0x20\n      dup1\n      swap2\n      div\n      mul\n      0x20\n      add\n      mload(0x40)\n      swap1\n      dup2\n      add\n      0x40\n      mstore\n      dup1\n      swap3\n      swap2\n      swap1\n      dup2\n      dup2\n      mstore\n      0x20\n      add\n      dup3\n      dup1\n      sload\n      tag_361\n      swap1\n      tag_149\n      jump\t// in\n    tag_361:\n      dup1\n      iszero\n      tag_362\n      jumpi\n      dup1\n      0x1f\n      lt\n      tag_363\n      jumpi\n      0x0100\n      dup1\n      dup4\n      sload\n      div\n      mul\n      dup4\n      mstore\n      swap2\n      0x20\n      add\n      swap2\n      jump(tag_362)\n    tag_363:\n      dup3\n      add\n      swap2\n      swap1\n      0x00\n      mstore\n      keccak256(0x00, 0x20)\n      swap1\n    tag_364:\n      dup2\n      sload\n      dup2\n      mstore\n      swap1\n      0x01\n      add\n      swap1\n      0x20\n      add\n      dup1\n      dup4\n      gt\n      tag_364\n      jumpi\n      dup3\n      swap1\n      sub\n      0x1f\n      and\n      dup3\n      add\n      swap2\n    tag_362:\n      pop\n      pop\n      pop\n      pop\n      pop\n      swap5\n      pop\n      dup4\n      dup1\n      sload\n      tag_365\n      swap1\n      tag_149\n      jump\t// in\n    tag_365:\n      dup1\n      0x1f\n      add\n      0x20\n      dup1\n      swap2\n      div\n      mul\n      0x20\n      add\n      mload(0x40)\n      swap1\n      dup2\n      add\n      0x40\n      mstore\n      dup1\n      swap3\n      swap2\n      swap1\n      dup2\n      dup2\n      mstore\n      0x20\n      add\n      dup3\n      dup1\n      sload\n      tag_366\n      swap1\n      tag_149\n      jump\t// in\n    tag_366:\n      dup1\n      iszero\n      tag_367\n      jumpi\n      dup1\n      0x1f\n      lt\n      tag_368\n      jumpi\n      0x0100\n      dup1\n      dup4\n      sload\n      div\n      mul\n      dup4\n      mstore\n      swap2\n      0x20\n      add\n      swap2\n      jump(tag_367)\n    tag_368:\n      dup3\n      add\n      swap2\n      swap1\n      0x00\n      mstore\n      keccak256(0x00, 0x20)\n      swap1\n    tag_369:\n      dup2\n      sload\n      dup2\n      mstore\n      swap1\n      0x01\n      add\n      swap1\n      0x20\n      add\n      dup1\n      dup4\n      gt\n      tag_369\n      jumpi\n      dup3\n      swap1\n      sub\n      0x1f\n      and\n      dup3\n      add\n      swap2\n    tag_367:\n      pop\n      pop\n      pop\n      pop\n      pop\n      swap4\n      pop\n      dup3\n      dup1\n      sload\n      tag_370\n      swap1\n      tag_149\n      jump\t// in\n    tag_370:\n      dup1\n      0x1f\n      add\n      0x20\n      dup1\n      swap2\n      div\n      mul\n      0x20\n      add\n      mload(0x40)\n      swap1\n      dup2\n      add\n      0x40\n      mstore\n      dup1\n      swap3\n      swap2\n      swap1\n      dup2\n      dup2\n      mstore\n      0x20\n      add\n      dup3\n      dup1\n      sload\n      tag_371\n      swap1\n      tag_149\n      jump\t// in\n    tag_371:\n      dup1\n      iszero\n      tag_372\n      jumpi\n      dup1\n      0x1f\n      lt\n      tag_373\n      jumpi\n      0x0100\n      dup1\n      dup4\n      sload\n      div\n      mul\n      dup4\n      mstore\n      swap2\n      0x20\n      add\n      swap2\n      jump(tag_372)\n    tag_373:\n      dup3\n      add\n      swap2\n      swap1\n      0x00\n      mstore\n      keccak256(0x00, 0x20)\n      swap1\n    tag_374:\n      dup2\n      sload\n      dup2\n      mstore\n      swap1\n      0x01\n      add\n      swap1\n      0x20\n      add\n      dup1\n      dup4\n      gt\n      tag_374\n      jumpi\n      dup3\n      swap1\n      sub\n      0x1f\n      and\n      dup3\n      add\n      swap2\n    tag_372:\n      pop\n      pop\n      pop\n      pop\n      pop\n      swap3\n      pop\n      dup2\n      dup1\n      sload\n      tag_375\n      swap1\n      tag_149\n      jump\t// in\n    tag_375:\n      dup1\n      0x1f\n      add\n      0x20\n      dup1\n      swap2\n      div\n      mul\n      0x20\n      add\n      mload(0x40)\n      swap1\n      dup2\n      add\n      0x40\n      mstore\n      dup1\n      swap3\n      swap2\n      swap1\n      dup2\n      dup2\n      mstore\n      0x20\n      add\n      dup3\n      dup1\n      sload\n      tag_376\n      swap1\n      tag_149\n      jump\t// in\n    tag_376:\n      dup1\n      iszero\n      tag_377\n      jumpi\n      dup1\n      0x1f\n      lt\n      tag_378\n      jumpi\n      0x0100\n      dup1\n      dup4\n      sload\n      div\n      mul\n      dup4\n      mstore\n      swap2\n      0x20\n      add\n      swap2\n      jump(tag_377)\n    tag_378:\n      dup3\n      add\n      swap2\n      swap1\n      0x00\n      mstore\n      keccak256(0x00, 0x20)\n      swap1\n    tag_379:\n      dup2\n      sload\n      dup2\n      mstore\n      swap1\n      0x01\n      add\n      swap1\n      0x20\n      add\n      dup1\n      dup4\n      gt\n      tag_379\n      jumpi\n      dup3\n      swap1\n      sub\n      0x1f\n      and\n      dup3\n      add\n      swap2\n    tag_377:\n      pop\n      pop\n      pop\n      pop\n      pop\n      swap2\n      pop\n      dup1\n      dup1\n      sload\n      tag_380\n      swap1\n      tag_149\n      jump\t// in\n    tag_380:\n      dup1\n      0x1f\n      add\n      0x20\n      dup1\n      swap2\n      div\n      mul\n      0x20\n      add\n      mload(0x40)\n      swap1\n      dup2\n      add\n      0x40\n      mstore\n      dup1\n      swap3\n      swap2\n      swap1\n      dup2\n      dup2\n      mstore\n      0x20\n      add\n      dup3\n      dup1\n      sload\n      tag_381\n      swap1\n      tag_149\n      jump\t// in\n    tag_381:\n      dup1\n      iszero\n      tag_382\n      jumpi\n      dup1\n      0x1f\n      lt\n      tag_383\n      jumpi\n      0x0100\n      dup1\n      dup4\n      sload\n      div\n      mul\n      dup4\n      mstore\n      swap2\n      0x20\n      add\n      swap2\n      jump(tag_382)\n    tag_383:\n      dup3\n      add\n      swap2\n      swap1\n      0x00\n      mstore\n      keccak256(0x00, 0x20)\n      swap1\n    tag_384:\n      dup2\n      sload\n      dup2\n      mstore\n      swap1\n      0x01\n      add\n      swap1\n      0x20\n      add\n      dup1\n      dup4\n      gt\n      tag_384\n      jumpi\n      dup3\n      swap1\n      sub\n      0x1f\n      and\n      dup3\n      add\n      swap2\n    tag_382:\n      pop\n      pop\n      pop\n      pop\n      pop\n      swap1\n      pop\n      swap5\n      pop\n      swap5\n      pop\n      swap5\n      pop\n      swap5\n      pop\n      swap5\n      pop\n        /* \"contracts/Profile.sol\":3768:4161  function getEducation(uint index) public view returns(string memory, string memory, string memory, string memory, string memory) {\r... */\n      swap2\n      swap4\n      swap6\n      swap1\n      swap3\n      swap5\n      pop\n      jump\t// out\n        /* \"contracts/Profile.sol\":6614:6690  function delProfile() external {\r... */\n    tag_100:\n        /* \"contracts/Profile.sol\":6663:6670  profile */\n      0x00\n        /* \"contracts/Profile.sol\":6663:6682  profile[msg.sender] */\n      dup1\n        /* \"contracts/Profile.sol\":6671:6681  msg.sender */\n      caller\n        /* \"contracts/Profile.sol\":6663:6682  profile[msg.sender] */\n      0xffffffffffffffffffffffffffffffffffffffff\n      and\n      0xffffffffffffffffffffffffffffffffffffffff\n      and\n      dup2\n      mstore\n      0x20\n      add\n      swap1\n      dup2\n      mstore\n      0x20\n      add\n      0x00\n      keccak256\n      0x00\n        /* \"contracts/Profile.sol\":6656:6682  delete profile[msg.sender] */\n      dup1\n      dup3\n      add\n      0x00\n      dup1\n      dup3\n      add\n      0x00\n      tag_386\n      swap2\n      swap1\n      tag_186\n      jump\t// in\n    tag_386:\n      0x01\n      dup3\n      add\n      0x00\n      tag_387\n      swap2\n      swap1\n      tag_186\n      jump\t// in\n    tag_387:\n      0x02\n      dup3\n      add\n      exp(0x0100, 0x00)\n      dup2\n      sload\n      swap1\n      0xffffffffffffffffffffffffffffffffffffffff\n      mul\n      not\n      and\n      swap1\n      sstore\n      0x03\n      dup3\n      add\n      0x00\n      tag_388\n      swap2\n      swap1\n      tag_186\n      jump\t// in\n    tag_388:\n      0x04\n      dup3\n      add\n      0x00\n      tag_389\n      swap2\n      swap1\n      tag_186\n      jump\t// in\n    tag_389:\n      0x05\n      dup3\n      add\n      0x00\n      tag_390\n      swap2\n      swap1\n      tag_186\n      jump\t// in\n    tag_390:\n      0x06\n      dup3\n      add\n      0x00\n      tag_391\n      swap2\n      swap1\n      tag_186\n      jump\t// in\n    tag_391:\n      0x07\n      dup3\n      add\n      0x00\n      swap1\n      sstore\n      pop\n      pop\n      0x08\n      dup3\n      add\n      0x00\n      dup1\n      dup3\n      add\n      0x00\n      tag_392\n      swap2\n      swap1\n      tag_186\n      jump\t// in\n    tag_392:\n      0x01\n      dup3\n      add\n      0x00\n      tag_393\n      swap2\n      swap1\n      tag_186\n      jump\t// in\n    tag_393:\n      0x02\n      dup3\n      add\n      0x00\n      tag_394\n      swap2\n      swap1\n      tag_186\n      jump\t// in\n    tag_394:\n      0x03\n      dup3\n      add\n      0x00\n      tag_395\n      swap2\n      swap1\n      tag_186\n      jump\t// in\n    tag_395:\n      0x04\n      dup3\n      add\n      0x00\n      tag_396\n      swap2\n      swap1\n      tag_186\n      jump\t// in\n    tag_396:\n      0x05\n      dup3\n      add\n      0x00\n      tag_397\n      swap2\n      swap1\n      tag_186\n      jump\t// in\n    tag_397:\n      pop\n      pop\n      0x0e\n      dup3\n      add\n      0x00\n      dup1\n      dup3\n      add\n      0x00\n      tag_398\n      swap2\n      swap1\n      tag_124\n      jump\t// in\n    tag_398:\n      0x01\n      dup3\n      add\n      0x00\n      tag_399\n      swap2\n      swap1\n      tag_124\n      jump\t// in\n    tag_399:\n      0x02\n      dup3\n      add\n      0x00\n      tag_400\n      swap2\n      swap1\n      tag_124\n      jump\t// in\n    tag_400:\n      pop\n      pop\n      0x11\n      dup3\n      add\n      0x00\n      tag_401\n      swap2\n      swap1\n      tag_343\n      jump\t// in\n    tag_401:\n      0x12\n      dup3\n      add\n      0x00\n      dup1\n      dup3\n      add\n      0x00\n      tag_402\n      swap2\n      swap1\n      tag_124\n      jump\t// in\n    tag_402:\n      0x01\n      dup3\n      add\n      0x00\n      tag_403\n      swap2\n      swap1\n      tag_124\n      jump\t// in\n    tag_403:\n      pop\n      pop\n      0x14\n      dup3\n      add\n      0x00\n      tag_404\n      swap2\n      swap1\n      tag_313\n      jump\t// in\n    tag_404:\n      0x15\n      dup3\n      add\n      0x00\n      tag_405\n      swap2\n      swap1\n      tag_104\n      jump\t// in\n    tag_405:\n      pop\n      pop\n        /* \"contracts/Profile.sol\":6614:6690  function delProfile() external {\r... */\n      jump\t// out\n    tag_104:\n      pop\n      dup1\n      sload\n      0x00\n      dup3\n      sstore\n      0x02\n      mul\n      swap1\n      0x00\n      mstore\n      keccak256(0x00, 0x20)\n      swap1\n      dup2\n      add\n      swap1\n      tag_407\n      swap2\n      swap1\n      tag_408\n      jump\t// in\n    tag_407:\n      pop\n      jump\t// out\n    tag_107:\n      mload(0x40)\n      dup1\n      0xa0\n      add\n      0x40\n      mstore\n      dup1\n      0x60\n      dup2\n      mstore\n      0x20\n      add\n      0x60\n      dup2\n      mstore\n      0x20\n      add\n      0x60\n      dup2\n      mstore\n      0x20\n      add\n      0x60\n      dup2\n      mstore\n      0x20\n      add\n      0x60\n      dup2\n      mstore\n      pop\n      swap1\n      jump\t// out\n    tag_110:\n      dup3\n      dup1\n      sload\n      tag_409\n      swap1\n      tag_149\n      jump\t// in\n    tag_409:\n      swap1\n      0x00\n      mstore\n      keccak256(0x00, 0x20)\n      swap1\n      0x1f\n      add\n      0x20\n      swap1\n      div\n      dup2\n      add\n      swap3\n      dup3\n      tag_411\n      jumpi\n      0x00\n      dup6\n      sstore\n      jump(tag_410)\n    tag_411:\n      dup3\n      0x1f\n      lt\n      tag_412\n      jumpi\n      dup1\n      mload\n      not(0xff)\n      and\n      dup4\n      dup1\n      add\n      or\n      dup6\n      sstore\n      jump(tag_410)\n    tag_412:\n      dup3\n      dup1\n      add\n      0x01\n      add\n      dup6\n      sstore\n      dup3\n      iszero\n      tag_410\n      jumpi\n      swap2\n      dup3\n      add\n    tag_413:\n      dup3\n      dup2\n      gt\n      iszero\n      tag_414\n      jumpi\n      dup3\n      mload\n      dup3\n      sstore\n      swap2\n      0x20\n      add\n      swap2\n      swap1\n      0x01\n      add\n      swap1\n      jump(tag_413)\n    tag_414:\n    tag_410:\n      pop\n      swap1\n      pop\n      tag_415\n      swap2\n      swap1\n      tag_416\n      jump\t// in\n    tag_415:\n      pop\n      swap1\n      jump\t// out\n    tag_115:\n      dup3\n      dup1\n      sload\n      dup3\n      dup3\n      sstore\n      swap1\n      0x00\n      mstore\n      keccak256(0x00, 0x20)\n      swap1\n      dup2\n      add\n      swap3\n      dup3\n      iszero\n      tag_417\n      jumpi\n      swap2\n      0x20\n      mul\n      dup3\n      add\n    tag_418:\n      dup3\n      dup2\n      gt\n      iszero\n      tag_419\n      jumpi\n      dup3\n      mload\n      dup3\n      swap1\n      dup1\n      mload\n      swap1\n      0x20\n      add\n      swap1\n      tag_420\n      swap3\n      swap2\n      swap1\n      tag_110\n      jump\t// in\n    tag_420:\n      pop\n      swap2\n      0x20\n      add\n      swap2\n      swap1\n      0x01\n      add\n      swap1\n      jump(tag_418)\n    tag_419:\n    tag_417:\n      pop\n      swap1\n      pop\n      tag_421\n      swap2\n      swap1\n      tag_422\n      jump\t// in\n    tag_421:\n      pop\n      swap1\n      jump\t// out\n    tag_118:\n      mload(0x40)\n      dup1\n      0x40\n      add\n      0x40\n      mstore\n      dup1\n      0x60\n      dup2\n      mstore\n      0x20\n      add\n      0x60\n      dup2\n      mstore\n      pop\n      swap1\n      jump\t// out\n    tag_124:\n      pop\n      dup1\n      sload\n      0x00\n      dup3\n      sstore\n      swap1\n      0x00\n      mstore\n      keccak256(0x00, 0x20)\n      swap1\n      dup2\n      add\n      swap1\n      tag_424\n      swap2\n      swap1\n      tag_422\n      jump\t// in\n    tag_424:\n      pop\n      jump\t// out\n    tag_186:\n      pop\n      dup1\n      sload\n      tag_425\n      swap1\n      tag_149\n      jump\t// in\n    tag_425:\n      0x00\n      dup3\n      sstore\n      dup1\n      0x1f\n      lt\n      tag_427\n      jumpi\n      pop\n      jump(tag_426)\n    tag_427:\n      0x1f\n      add\n      0x20\n      swap1\n      div\n      swap1\n      0x00\n      mstore\n      keccak256(0x00, 0x20)\n      swap1\n      dup2\n      add\n      swap1\n      tag_428\n      swap2\n      swap1\n      tag_416\n      jump\t// in\n    tag_428:\n    tag_426:\n      pop\n      jump\t// out\n    tag_313:\n      pop\n      dup1\n      sload\n      0x00\n      dup3\n      sstore\n      0x05\n      mul\n      swap1\n      0x00\n      mstore\n      keccak256(0x00, 0x20)\n      swap1\n      dup2\n      add\n      swap1\n      tag_430\n      swap2\n      swap1\n      tag_431\n      jump\t// in\n    tag_430:\n      pop\n      jump\t// out\n    tag_316:\n      mload(0x40)\n      dup1\n      0xa0\n      add\n      0x40\n      mstore\n      dup1\n      0x60\n      dup2\n      mstore\n      0x20\n      add\n      0x60\n      dup2\n      mstore\n      0x20\n      add\n      0x60\n      dup2\n      mstore\n      0x20\n      add\n      0x60\n      dup2\n      mstore\n      0x20\n      add\n      0x60\n      dup2\n      mstore\n      pop\n      swap1\n      jump\t// out\n    tag_343:\n      pop\n      dup1\n      sload\n      0x00\n      dup3\n      sstore\n      0x05\n      mul\n      swap1\n      0x00\n      mstore\n      keccak256(0x00, 0x20)\n      swap1\n      dup2\n      add\n      swap1\n      tag_433\n      swap2\n      swap1\n      tag_434\n      jump\t// in\n    tag_433:\n      pop\n      jump\t// out\n    tag_408:\n    tag_435:\n      dup1\n      dup3\n      gt\n      iszero\n      tag_436\n      jumpi\n      0x00\n      dup1\n      dup3\n      add\n      0x00\n      tag_437\n      swap2\n      swap1\n      tag_186\n      jump\t// in\n    tag_437:\n      0x01\n      dup3\n      add\n      0x00\n      tag_438\n      swap2\n      swap1\n      tag_186\n      jump\t// in\n    tag_438:\n      pop\n      0x02\n      add\n      jump(tag_435)\n    tag_436:\n      pop\n      swap1\n      jump\t// out\n    tag_416:\n    tag_439:\n      dup1\n      dup3\n      gt\n      iszero\n      tag_440\n      jumpi\n      0x00\n      dup2\n      0x00\n      swap1\n      sstore\n      pop\n      0x01\n      add\n      jump(tag_439)\n    tag_440:\n      pop\n      swap1\n      jump\t// out\n    tag_422:\n    tag_441:\n      dup1\n      dup3\n      gt\n      iszero\n      tag_442\n      jumpi\n      0x00\n      dup2\n      dup2\n      tag_443\n      swap2\n      swap1\n      tag_186\n      jump\t// in\n    tag_443:\n      pop\n      0x01\n      add\n      jump(tag_441)\n    tag_442:\n      pop\n      swap1\n      jump\t// out\n    tag_431:\n    tag_444:\n      dup1\n      dup3\n      gt\n      iszero\n      tag_445\n      jumpi\n      0x00\n      dup1\n      dup3\n      add\n      0x00\n      tag_446\n      swap2\n      swap1\n      tag_186\n      jump\t// in\n    tag_446:\n      0x01\n      dup3\n      add\n      0x00\n      tag_447\n      swap2\n      swap1\n      tag_186\n      jump\t// in\n    tag_447:\n      0x02\n      dup3\n      add\n      0x00\n      tag_448\n      swap2\n      swap1\n      tag_186\n      jump\t// in\n    tag_448:\n      0x03\n      dup3\n      add\n      0x00\n      tag_449\n      swap2\n      swap1\n      tag_186\n      jump\t// in\n    tag_449:\n      0x04\n      dup3\n      add\n      0x00\n      tag_450\n      swap2\n      swap1\n      tag_124\n      jump\t// in\n    tag_450:\n      pop\n      0x05\n      add\n      jump(tag_444)\n    tag_445:\n      pop\n      swap1\n      jump\t// out\n    tag_434:\n    tag_451:\n      dup1\n      dup3\n      gt\n      iszero\n      tag_452\n      jumpi\n      0x00\n      dup1\n      dup3\n      add\n      0x00\n      tag_453\n      swap2\n      swap1\n      tag_186\n      jump\t// in\n    tag_453:\n      0x01\n      dup3\n      add\n      0x00\n      tag_454\n      swap2\n      swap1\n      tag_186\n      jump\t// in\n    tag_454:\n      0x02\n      dup3\n      add\n      0x00\n      tag_455\n      swap2\n      swap1\n      tag_186\n      jump\t// in\n    tag_455:\n      0x03\n      dup3\n      add\n      0x00\n      tag_456\n      swap2\n      swap1\n      tag_186\n      jump\t// in\n    tag_456:\n      0x04\n      dup3\n      add\n      0x00\n      tag_457\n      swap2\n      swap1\n      tag_186\n      jump\t// in\n    tag_457:\n      pop\n      0x05\n      add\n      jump(tag_451)\n    tag_452:\n      pop\n      swap1\n      jump\t// out\n        /* \"#utility.yul\":23:980   */\n    tag_459:\n        /* \"#utility.yul\":129:134   */\n      0x00\n        /* \"#utility.yul\":154:245   */\n      tag_461\n        /* \"#utility.yul\":170:244   */\n      tag_462\n        /* \"#utility.yul\":237:243   */\n      dup5\n        /* \"#utility.yul\":170:244   */\n      tag_463\n      jump\t// in\n    tag_462:\n        /* \"#utility.yul\":154:245   */\n      tag_464\n      jump\t// in\n    tag_461:\n        /* \"#utility.yul\":145:245   */\n      swap1\n      pop\n        /* \"#utility.yul\":265:270   */\n      dup1\n        /* \"#utility.yul\":294:300   */\n      dup4\n        /* \"#utility.yul\":287:292   */\n      dup3\n        /* \"#utility.yul\":280:301   */\n      mstore\n        /* \"#utility.yul\":328:332   */\n      0x20\n        /* \"#utility.yul\":321:326   */\n      dup3\n        /* \"#utility.yul\":317:333   */\n      add\n        /* \"#utility.yul\":310:333   */\n      swap1\n      pop\n        /* \"#utility.yul\":354:360   */\n      dup3\n        /* \"#utility.yul\":404:407   */\n      dup6\n        /* \"#utility.yul\":396:400   */\n      0x20\n        /* \"#utility.yul\":388:394   */\n      dup7\n        /* \"#utility.yul\":384:401   */\n      mul\n        /* \"#utility.yul\":379:382   */\n      dup3\n        /* \"#utility.yul\":375:402   */\n      add\n        /* \"#utility.yul\":372:408   */\n      gt\n        /* \"#utility.yul\":369:512   */\n      iszero\n      tag_465\n      jumpi\n        /* \"#utility.yul\":423:502   */\n      tag_466\n      tag_467\n      jump\t// in\n    tag_466:\n        /* \"#utility.yul\":369:512   */\n    tag_465:\n        /* \"#utility.yul\":536:537   */\n      0x00\n        /* \"#utility.yul\":521:974   */\n    tag_468:\n        /* \"#utility.yul\":546:552   */\n      dup6\n        /* \"#utility.yul\":543:544   */\n      dup2\n        /* \"#utility.yul\":540:553   */\n      lt\n        /* \"#utility.yul\":521:974   */\n      iszero\n      tag_470\n      jumpi\n        /* \"#utility.yul\":628:631   */\n      dup2\n        /* \"#utility.yul\":615:632   */\n      calldataload\n        /* \"#utility.yul\":664:682   */\n      0xffffffffffffffff\n        /* \"#utility.yul\":651:662   */\n      dup2\n        /* \"#utility.yul\":648:683   */\n      gt\n        /* \"#utility.yul\":645:767   */\n      iszero\n      tag_471\n      jumpi\n        /* \"#utility.yul\":686:765   */\n      tag_472\n      tag_473\n      jump\t// in\n    tag_472:\n        /* \"#utility.yul\":645:767   */\n    tag_471:\n        /* \"#utility.yul\":810:821   */\n      dup1\n        /* \"#utility.yul\":802:808   */\n      dup7\n        /* \"#utility.yul\":798:822   */\n      add\n        /* \"#utility.yul\":848:895   */\n      tag_474\n        /* \"#utility.yul\":891:894   */\n      dup10\n        /* \"#utility.yul\":879:889   */\n      dup3\n        /* \"#utility.yul\":848:895   */\n      tag_475\n      jump\t// in\n    tag_474:\n        /* \"#utility.yul\":843:846   */\n      dup6\n        /* \"#utility.yul\":836:896   */\n      mstore\n        /* \"#utility.yul\":925:929   */\n      0x20\n        /* \"#utility.yul\":920:923   */\n      dup6\n        /* \"#utility.yul\":916:930   */\n      add\n        /* \"#utility.yul\":909:930   */\n      swap5\n      pop\n        /* \"#utility.yul\":959:963   */\n      0x20\n        /* \"#utility.yul\":954:957   */\n      dup5\n        /* \"#utility.yul\":950:964   */\n      add\n        /* \"#utility.yul\":943:964   */\n      swap4\n      pop\n        /* \"#utility.yul\":581:974   */\n      pop\n      pop\n        /* \"#utility.yul\":568:569   */\n      0x01\n        /* \"#utility.yul\":565:566   */\n      dup2\n        /* \"#utility.yul\":561:570   */\n      add\n        /* \"#utility.yul\":556:570   */\n      swap1\n      pop\n        /* \"#utility.yul\":521:974   */\n      jump(tag_468)\n    tag_470:\n        /* \"#utility.yul\":525:539   */\n      pop\n        /* \"#utility.yul\":135:980   */\n      pop\n      pop\n        /* \"#utility.yul\":23:980   */\n      swap4\n      swap3\n      pop\n      pop\n      pop\n      jump\t// out\n        /* \"#utility.yul\":986:1398   */\n    tag_476:\n        /* \"#utility.yul\":1064:1069   */\n      0x00\n        /* \"#utility.yul\":1089:1155   */\n      tag_478\n        /* \"#utility.yul\":1105:1154   */\n      tag_479\n        /* \"#utility.yul\":1147:1153   */\n      dup5\n        /* \"#utility.yul\":1105:1154   */\n      tag_480\n      jump\t// in\n    tag_479:\n        /* \"#utility.yul\":1089:1155   */\n      tag_464\n      jump\t// in\n    tag_478:\n        /* \"#utility.yul\":1080:1155   */\n      swap1\n      pop\n        /* \"#utility.yul\":1178:1184   */\n      dup3\n        /* \"#utility.yul\":1171:1176   */\n      dup2\n        /* \"#utility.yul\":1164:1185   */\n      mstore\n        /* \"#utility.yul\":1216:1220   */\n      0x20\n        /* \"#utility.yul\":1209:1214   */\n      dup2\n        /* \"#utility.yul\":1205:1221   */\n      add\n        /* \"#utility.yul\":1254:1257   */\n      dup5\n        /* \"#utility.yul\":1245:1251   */\n      dup5\n        /* \"#utility.yul\":1240:1243   */\n      dup5\n        /* \"#utility.yul\":1236:1252   */\n      add\n        /* \"#utility.yul\":1233:1258   */\n      gt\n        /* \"#utility.yul\":1230:1342   */\n      iszero\n      tag_481\n      jumpi\n        /* \"#utility.yul\":1261:1340   */\n      tag_482\n      tag_483\n      jump\t// in\n    tag_482:\n        /* \"#utility.yul\":1230:1342   */\n    tag_481:\n        /* \"#utility.yul\":1351:1392   */\n      tag_484\n        /* \"#utility.yul\":1385:1391   */\n      dup5\n        /* \"#utility.yul\":1380:1383   */\n      dup3\n        /* \"#utility.yul\":1375:1378   */\n      dup6\n        /* \"#utility.yul\":1351:1392   */\n      tag_485\n      jump\t// in\n    tag_484:\n        /* \"#utility.yul\":1070:1398   */\n      pop\n        /* \"#utility.yul\":986:1398   */\n      swap4\n      swap3\n      pop\n      pop\n      pop\n      jump\t// out\n        /* \"#utility.yul\":1404:1543   */\n    tag_486:\n        /* \"#utility.yul\":1450:1455   */\n      0x00\n        /* \"#utility.yul\":1488:1494   */\n      dup2\n        /* \"#utility.yul\":1475:1495   */\n      calldataload\n        /* \"#utility.yul\":1466:1495   */\n      swap1\n      pop\n        /* \"#utility.yul\":1504:1537   */\n      tag_488\n        /* \"#utility.yul\":1531:1536   */\n      dup2\n        /* \"#utility.yul\":1504:1537   */\n      tag_489\n      jump\t// in\n    tag_488:\n        /* \"#utility.yul\":1404:1543   */\n      swap3\n      swap2\n      pop\n      pop\n      jump\t// out\n        /* \"#utility.yul\":1565:1955   */\n    tag_490:\n        /* \"#utility.yul\":1646:1651   */\n      0x00\n        /* \"#utility.yul\":1695:1698   */\n      dup3\n        /* \"#utility.yul\":1688:1692   */\n      0x1f\n        /* \"#utility.yul\":1680:1686   */\n      dup4\n        /* \"#utility.yul\":1676:1693   */\n      add\n        /* \"#utility.yul\":1672:1699   */\n      slt\n        /* \"#utility.yul\":1662:1784   */\n      tag_492\n      jumpi\n        /* \"#utility.yul\":1703:1782   */\n      tag_493\n      tag_473\n      jump\t// in\n    tag_493:\n        /* \"#utility.yul\":1662:1784   */\n    tag_492:\n        /* \"#utility.yul\":1820:1826   */\n      dup2\n        /* \"#utility.yul\":1807:1827   */\n      calldataload\n        /* \"#utility.yul\":1845:1949   */\n      tag_494\n        /* \"#utility.yul\":1945:1948   */\n      dup5\n        /* \"#utility.yul\":1937:1943   */\n      dup3\n        /* \"#utility.yul\":1930:1934   */\n      0x20\n        /* \"#utility.yul\":1922:1928   */\n      dup7\n        /* \"#utility.yul\":1918:1935   */\n      add\n        /* \"#utility.yul\":1845:1949   */\n      tag_459\n      jump\t// in\n    tag_494:\n        /* \"#utility.yul\":1836:1949   */\n      swap2\n      pop\n        /* \"#utility.yul\":1652:1955   */\n      pop\n        /* \"#utility.yul\":1565:1955   */\n      swap3\n      swap2\n      pop\n      pop\n      jump\t// out\n        /* \"#utility.yul\":1975:2315   */\n    tag_475:\n        /* \"#utility.yul\":2031:2036   */\n      0x00\n        /* \"#utility.yul\":2080:2083   */\n      dup3\n        /* \"#utility.yul\":2073:2077   */\n      0x1f\n        /* \"#utility.yul\":2065:2071   */\n      dup4\n        /* \"#utility.yul\":2061:2078   */\n      add\n        /* \"#utility.yul\":2057:2084   */\n      slt\n        /* \"#utility.yul\":2047:2169   */\n      tag_496\n      jumpi\n        /* \"#utility.yul\":2088:2167   */\n      tag_497\n      tag_473\n      jump\t// in\n    tag_497:\n        /* \"#utility.yul\":2047:2169   */\n    tag_496:\n        /* \"#utility.yul\":2205:2211   */\n      dup2\n        /* \"#utility.yul\":2192:2212   */\n      calldataload\n        /* \"#utility.yul\":2230:2309   */\n      tag_498\n        /* \"#utility.yul\":2305:2308   */\n      dup5\n        /* \"#utility.yul\":2297:2303   */\n      dup3\n        /* \"#utility.yul\":2290:2294   */\n      0x20\n        /* \"#utility.yul\":2282:2288   */\n      dup7\n        /* \"#utility.yul\":2278:2295   */\n      add\n        /* \"#utility.yul\":2230:2309   */\n      tag_476\n      jump\t// in\n    tag_498:\n        /* \"#utility.yul\":2221:2309   */\n      swap2\n      pop\n        /* \"#utility.yul\":2037:2315   */\n      pop\n        /* \"#utility.yul\":1975:2315   */\n      swap3\n      swap2\n      pop\n      pop\n      jump\t// out\n        /* \"#utility.yul\":2321:2460   */\n    tag_499:\n        /* \"#utility.yul\":2367:2372   */\n      0x00\n        /* \"#utility.yul\":2405:2411   */\n      dup2\n        /* \"#utility.yul\":2392:2412   */\n      calldataload\n        /* \"#utility.yul\":2383:2412   */\n      swap1\n      pop\n        /* \"#utility.yul\":2421:2454   */\n      tag_501\n        /* \"#utility.yul\":2448:2453   */\n      dup2\n        /* \"#utility.yul\":2421:2454   */\n      tag_502\n      jump\t// in\n    tag_501:\n        /* \"#utility.yul\":2321:2460   */\n      swap3\n      swap2\n      pop\n      pop\n      jump\t// out\n        /* \"#utility.yul\":2466:2795   */\n    tag_75:\n        /* \"#utility.yul\":2525:2531   */\n      0x00\n        /* \"#utility.yul\":2574:2576   */\n      0x20\n        /* \"#utility.yul\":2562:2571   */\n      dup3\n        /* \"#utility.yul\":2553:2560   */\n      dup5\n        /* \"#utility.yul\":2549:2572   */\n      sub\n        /* \"#utility.yul\":2545:2577   */\n      slt\n        /* \"#utility.yul\":2542:2661   */\n      iszero\n      tag_504\n      jumpi\n        /* \"#utility.yul\":2580:2659   */\n      tag_505\n      tag_506\n      jump\t// in\n    tag_505:\n        /* \"#utility.yul\":2542:2661   */\n    tag_504:\n        /* \"#utility.yul\":2700:2701   */\n      0x00\n        /* \"#utility.yul\":2725:2778   */\n      tag_507\n        /* \"#utility.yul\":2770:2777   */\n      dup5\n        /* \"#utility.yul\":2761:2767   */\n      dup3\n        /* \"#utility.yul\":2750:2759   */\n      dup6\n        /* \"#utility.yul\":2746:2768   */\n      add\n        /* \"#utility.yul\":2725:2778   */\n      tag_486\n      jump\t// in\n    tag_507:\n        /* \"#utility.yul\":2715:2778   */\n      swap2\n      pop\n        /* \"#utility.yul\":2671:2788   */\n      pop\n        /* \"#utility.yul\":2466:2795   */\n      swap3\n      swap2\n      pop\n      pop\n      jump\t// out\n        /* \"#utility.yul\":2801:3735   */\n    tag_61:\n        /* \"#utility.yul\":2939:2945   */\n      0x00\n        /* \"#utility.yul\":2947:2953   */\n      dup1\n        /* \"#utility.yul\":2996:2998   */\n      0x40\n        /* \"#utility.yul\":2984:2993   */\n      dup4\n        /* \"#utility.yul\":2975:2982   */\n      dup6\n        /* \"#utility.yul\":2971:2994   */\n      sub\n        /* \"#utility.yul\":2967:2999   */\n      slt\n        /* \"#utility.yul\":2964:3083   */\n      iszero\n      tag_509\n      jumpi\n        /* \"#utility.yul\":3002:3081   */\n      tag_510\n      tag_506\n      jump\t// in\n    tag_510:\n        /* \"#utility.yul\":2964:3083   */\n    tag_509:\n        /* \"#utility.yul\":3150:3151   */\n      0x00\n        /* \"#utility.yul\":3139:3148   */\n      dup4\n        /* \"#utility.yul\":3135:3152   */\n      add\n        /* \"#utility.yul\":3122:3153   */\n      calldataload\n        /* \"#utility.yul\":3180:3198   */\n      0xffffffffffffffff\n        /* \"#utility.yul\":3172:3178   */\n      dup2\n        /* \"#utility.yul\":3169:3199   */\n      gt\n        /* \"#utility.yul\":3166:3283   */\n      iszero\n      tag_511\n      jumpi\n        /* \"#utility.yul\":3202:3281   */\n      tag_512\n      tag_513\n      jump\t// in\n    tag_512:\n        /* \"#utility.yul\":3166:3283   */\n    tag_511:\n        /* \"#utility.yul\":3307:3395   */\n      tag_514\n        /* \"#utility.yul\":3387:3394   */\n      dup6\n        /* \"#utility.yul\":3378:3384   */\n      dup3\n        /* \"#utility.yul\":3367:3376   */\n      dup7\n        /* \"#utility.yul\":3363:3385   */\n      add\n        /* \"#utility.yul\":3307:3395   */\n      tag_490\n      jump\t// in\n    tag_514:\n        /* \"#utility.yul\":3297:3395   */\n      swap3\n      pop\n        /* \"#utility.yul\":3093:3405   */\n      pop\n        /* \"#utility.yul\":3472:3474   */\n      0x20\n        /* \"#utility.yul\":3461:3470   */\n      dup4\n        /* \"#utility.yul\":3457:3475   */\n      add\n        /* \"#utility.yul\":3444:3476   */\n      calldataload\n        /* \"#utility.yul\":3503:3521   */\n      0xffffffffffffffff\n        /* \"#utility.yul\":3495:3501   */\n      dup2\n        /* \"#utility.yul\":3492:3522   */\n      gt\n        /* \"#utility.yul\":3489:3606   */\n      iszero\n      tag_515\n      jumpi\n        /* \"#utility.yul\":3525:3604   */\n      tag_516\n      tag_513\n      jump\t// in\n    tag_516:\n        /* \"#utility.yul\":3489:3606   */\n    tag_515:\n        /* \"#utility.yul\":3630:3718   */\n      tag_517\n        /* \"#utility.yul\":3710:3717   */\n      dup6\n        /* \"#utility.yul\":3701:3707   */\n      dup3\n        /* \"#utility.yul\":3690:3699   */\n      dup7\n        /* \"#utility.yul\":3686:3708   */\n      add\n        /* \"#utility.yul\":3630:3718   */\n      tag_490\n      jump\t// in\n    tag_517:\n        /* \"#utility.yul\":3620:3718   */\n      swap2\n      pop\n        /* \"#utility.yul\":3415:3728   */\n      pop\n        /* \"#utility.yul\":2801:3735   */\n      swap3\n      pop\n      swap3\n      swap1\n      pop\n      jump\t// out\n        /* \"#utility.yul\":3741:5050   */\n    tag_43:\n        /* \"#utility.yul\":3923:3929   */\n      0x00\n        /* \"#utility.yul\":3931:3937   */\n      dup1\n        /* \"#utility.yul\":3939:3945   */\n      0x00\n        /* \"#utility.yul\":3988:3990   */\n      0x60\n        /* \"#utility.yul\":3976:3985   */\n      dup5\n        /* \"#utility.yul\":3967:3974   */\n      dup7\n        /* \"#utility.yul\":3963:3986   */\n      sub\n        /* \"#utility.yul\":3959:3991   */\n      slt\n        /* \"#utility.yul\":3956:4075   */\n      iszero\n      tag_519\n      jumpi\n        /* \"#utility.yul\":3994:4073   */\n      tag_520\n      tag_506\n      jump\t// in\n    tag_520:\n        /* \"#utility.yul\":3956:4075   */\n    tag_519:\n        /* \"#utility.yul\":4142:4143   */\n      0x00\n        /* \"#utility.yul\":4131:4140   */\n      dup5\n        /* \"#utility.yul\":4127:4144   */\n      add\n        /* \"#utility.yul\":4114:4145   */\n      calldataload\n        /* \"#utility.yul\":4172:4190   */\n      0xffffffffffffffff\n        /* \"#utility.yul\":4164:4170   */\n      dup2\n        /* \"#utility.yul\":4161:4191   */\n      gt\n        /* \"#utility.yul\":4158:4275   */\n      iszero\n      tag_521\n      jumpi\n        /* \"#utility.yul\":4194:4273   */\n      tag_522\n      tag_513\n      jump\t// in\n    tag_522:\n        /* \"#utility.yul\":4158:4275   */\n    tag_521:\n        /* \"#utility.yul\":4299:4387   */\n      tag_523\n        /* \"#utility.yul\":4379:4386   */\n      dup7\n        /* \"#utility.yul\":4370:4376   */\n      dup3\n        /* \"#utility.yul\":4359:4368   */\n      dup8\n        /* \"#utility.yul\":4355:4377   */\n      add\n        /* \"#utility.yul\":4299:4387   */\n      tag_490\n      jump\t// in\n    tag_523:\n        /* \"#utility.yul\":4289:4387   */\n      swap4\n      pop\n        /* \"#utility.yul\":4085:4397   */\n      pop\n        /* \"#utility.yul\":4464:4466   */\n      0x20\n        /* \"#utility.yul\":4453:4462   */\n      dup5\n        /* \"#utility.yul\":4449:4467   */\n      add\n        /* \"#utility.yul\":4436:4468   */\n      calldataload\n        /* \"#utility.yul\":4495:4513   */\n      0xffffffffffffffff\n        /* \"#utility.yul\":4487:4493   */\n      dup2\n        /* \"#utility.yul\":4484:4514   */\n      gt\n        /* \"#utility.yul\":4481:4598   */\n      iszero\n      tag_524\n      jumpi\n        /* \"#utility.yul\":4517:4596   */\n      tag_525\n      tag_513\n      jump\t// in\n    tag_525:\n        /* \"#utility.yul\":4481:4598   */\n    tag_524:\n        /* \"#utility.yul\":4622:4710   */\n      tag_526\n        /* \"#utility.yul\":4702:4709   */\n      dup7\n        /* \"#utility.yul\":4693:4699   */\n      dup3\n        /* \"#utility.yul\":4682:4691   */\n      dup8\n        /* \"#utility.yul\":4678:4700   */\n      add\n        /* \"#utility.yul\":4622:4710   */\n      tag_490\n      jump\t// in\n    tag_526:\n        /* \"#utility.yul\":4612:4710   */\n      swap3\n      pop\n        /* \"#utility.yul\":4407:4720   */\n      pop\n        /* \"#utility.yul\":4787:4789   */\n      0x40\n        /* \"#utility.yul\":4776:4785   */\n      dup5\n        /* \"#utility.yul\":4772:4790   */\n      add\n        /* \"#utility.yul\":4759:4791   */\n      calldataload\n        /* \"#utility.yul\":4818:4836   */\n      0xffffffffffffffff\n        /* \"#utility.yul\":4810:4816   */\n      dup2\n        /* \"#utility.yul\":4807:4837   */\n      gt\n        /* \"#utility.yul\":4804:4921   */\n      iszero\n      tag_527\n      jumpi\n        /* \"#utility.yul\":4840:4919   */\n      tag_528\n      tag_513\n      jump\t// in\n    tag_528:\n        /* \"#utility.yul\":4804:4921   */\n    tag_527:\n        /* \"#utility.yul\":4945:5033   */\n      tag_529\n        /* \"#utility.yul\":5025:5032   */\n      dup7\n        /* \"#utility.yul\":5016:5022   */\n      dup3\n        /* \"#utility.yul\":5005:5014   */\n      dup8\n        /* \"#utility.yul\":5001:5023   */\n      add\n        /* \"#utility.yul\":4945:5033   */\n      tag_490\n      jump\t// in\n    tag_529:\n        /* \"#utility.yul\":4935:5033   */\n      swap2\n      pop\n        /* \"#utility.yul\":4730:5043   */\n      pop\n        /* \"#utility.yul\":3741:5050   */\n      swap3\n      pop\n      swap3\n      pop\n      swap3\n      jump\t// out\n        /* \"#utility.yul\":5056:5890   */\n    tag_39:\n        /* \"#utility.yul\":5144:5150   */\n      0x00\n        /* \"#utility.yul\":5152:5158   */\n      dup1\n        /* \"#utility.yul\":5201:5203   */\n      0x40\n        /* \"#utility.yul\":5189:5198   */\n      dup4\n        /* \"#utility.yul\":5180:5187   */\n      dup6\n        /* \"#utility.yul\":5176:5199   */\n      sub\n        /* \"#utility.yul\":5172:5204   */\n      slt\n        /* \"#utility.yul\":5169:5288   */\n      iszero\n      tag_531\n      jumpi\n        /* \"#utility.yul\":5207:5286   */\n      tag_532\n      tag_506\n      jump\t// in\n    tag_532:\n        /* \"#utility.yul\":5169:5288   */\n    tag_531:\n        /* \"#utility.yul\":5355:5356   */\n      0x00\n        /* \"#utility.yul\":5344:5353   */\n      dup4\n        /* \"#utility.yul\":5340:5357   */\n      add\n        /* \"#utility.yul\":5327:5358   */\n      calldataload\n        /* \"#utility.yul\":5385:5403   */\n      0xffffffffffffffff\n        /* \"#utility.yul\":5377:5383   */\n      dup2\n        /* \"#utility.yul\":5374:5404   */\n      gt\n        /* \"#utility.yul\":5371:5488   */\n      iszero\n      tag_533\n      jumpi\n        /* \"#utility.yul\":5407:5486   */\n      tag_534\n      tag_513\n      jump\t// in\n    tag_534:\n        /* \"#utility.yul\":5371:5488   */\n    tag_533:\n        /* \"#utility.yul\":5512:5575   */\n      tag_535\n        /* \"#utility.yul\":5567:5574   */\n      dup6\n        /* \"#utility.yul\":5558:5564   */\n      dup3\n        /* \"#utility.yul\":5547:5556   */\n      dup7\n        /* \"#utility.yul\":5543:5565   */\n      add\n        /* \"#utility.yul\":5512:5575   */\n      tag_475\n      jump\t// in\n    tag_535:\n        /* \"#utility.yul\":5502:5575   */\n      swap3\n      pop\n        /* \"#utility.yul\":5298:5585   */\n      pop\n        /* \"#utility.yul\":5652:5654   */\n      0x20\n        /* \"#utility.yul\":5641:5650   */\n      dup4\n        /* \"#utility.yul\":5637:5655   */\n      add\n        /* \"#utility.yul\":5624:5656   */\n      calldataload\n        /* \"#utility.yul\":5683:5701   */\n      0xffffffffffffffff\n        /* \"#utility.yul\":5675:5681   */\n      dup2\n        /* \"#utility.yul\":5672:5702   */\n      gt\n        /* \"#utility.yul\":5669:5786   */\n      iszero\n      tag_536\n      jumpi\n        /* \"#utility.yul\":5705:5784   */\n      tag_537\n      tag_513\n      jump\t// in\n    tag_537:\n        /* \"#utility.yul\":5669:5786   */\n    tag_536:\n        /* \"#utility.yul\":5810:5873   */\n      tag_538\n        /* \"#utility.yul\":5865:5872   */\n      dup6\n        /* \"#utility.yul\":5856:5862   */\n      dup3\n        /* \"#utility.yul\":5845:5854   */\n      dup7\n        /* \"#utility.yul\":5841:5863   */\n      add\n        /* \"#utility.yul\":5810:5873   */\n      tag_475\n      jump\t// in\n    tag_538:\n        /* \"#utility.yul\":5800:5873   */\n      swap2\n      pop\n        /* \"#utility.yul\":5595:5883   */\n      pop\n        /* \"#utility.yul\":5056:5890   */\n      swap3\n      pop\n      swap3\n      swap1\n      pop\n      jump\t// out\n        /* \"#utility.yul\":5896:7757   */\n    tag_35:\n        /* \"#utility.yul\":6066:6072   */\n      0x00\n        /* \"#utility.yul\":6074:6080   */\n      dup1\n        /* \"#utility.yul\":6082:6088   */\n      0x00\n        /* \"#utility.yul\":6090:6096   */\n      dup1\n        /* \"#utility.yul\":6098:6104   */\n      0x00\n        /* \"#utility.yul\":6147:6150   */\n      0xa0\n        /* \"#utility.yul\":6135:6144   */\n      dup7\n        /* \"#utility.yul\":6126:6133   */\n      dup9\n        /* \"#utility.yul\":6122:6145   */\n      sub\n        /* \"#utility.yul\":6118:6151   */\n      slt\n        /* \"#utility.yul\":6115:6235   */\n      iszero\n      tag_540\n      jumpi\n        /* \"#utility.yul\":6154:6233   */\n      tag_541\n      tag_506\n      jump\t// in\n    tag_541:\n        /* \"#utility.yul\":6115:6235   */\n    tag_540:\n        /* \"#utility.yul\":6302:6303   */\n      0x00\n        /* \"#utility.yul\":6291:6300   */\n      dup7\n        /* \"#utility.yul\":6287:6304   */\n      add\n        /* \"#utility.yul\":6274:6305   */\n      calldataload\n        /* \"#utility.yul\":6332:6350   */\n      0xffffffffffffffff\n        /* \"#utility.yul\":6324:6330   */\n      dup2\n        /* \"#utility.yul\":6321:6351   */\n      gt\n        /* \"#utility.yul\":6318:6435   */\n      iszero\n      tag_542\n      jumpi\n        /* \"#utility.yul\":6354:6433   */\n      tag_543\n      tag_513\n      jump\t// in\n    tag_543:\n        /* \"#utility.yul\":6318:6435   */\n    tag_542:\n        /* \"#utility.yul\":6459:6522   */\n      tag_544\n        /* \"#utility.yul\":6514:6521   */\n      dup9\n        /* \"#utility.yul\":6505:6511   */\n      dup3\n        /* \"#utility.yul\":6494:6503   */\n      dup10\n        /* \"#utility.yul\":6490:6512   */\n      add\n        /* \"#utility.yul\":6459:6522   */\n      tag_475\n      jump\t// in\n    tag_544:\n        /* \"#utility.yul\":6449:6522   */\n      swap6\n      pop\n        /* \"#utility.yul\":6245:6532   */\n      pop\n        /* \"#utility.yul\":6599:6601   */\n      0x20\n        /* \"#utility.yul\":6588:6597   */\n      dup7\n        /* \"#utility.yul\":6584:6602   */\n      add\n        /* \"#utility.yul\":6571:6603   */\n      calldataload\n        /* \"#utility.yul\":6630:6648   */\n      0xffffffffffffffff\n        /* \"#utility.yul\":6622:6628   */\n      dup2\n        /* \"#utility.yul\":6619:6649   */\n      gt\n        /* \"#utility.yul\":6616:6733   */\n      iszero\n      tag_545\n      jumpi\n        /* \"#utility.yul\":6652:6731   */\n      tag_546\n      tag_513\n      jump\t// in\n    tag_546:\n        /* \"#utility.yul\":6616:6733   */\n    tag_545:\n        /* \"#utility.yul\":6757:6820   */\n      tag_547\n        /* \"#utility.yul\":6812:6819   */\n      dup9\n        /* \"#utility.yul\":6803:6809   */\n      dup3\n        /* \"#utility.yul\":6792:6801   */\n      dup10\n        /* \"#utility.yul\":6788:6810   */\n      add\n        /* \"#utility.yul\":6757:6820   */\n      tag_475\n      jump\t// in\n    tag_547:\n        /* \"#utility.yul\":6747:6820   */\n      swap5\n      pop\n        /* \"#utility.yul\":6542:6830   */\n      pop\n        /* \"#utility.yul\":6897:6899   */\n      0x40\n        /* \"#utility.yul\":6886:6895   */\n      dup7\n        /* \"#utility.yul\":6882:6900   */\n      add\n        /* \"#utility.yul\":6869:6901   */\n      calldataload\n        /* \"#utility.yul\":6928:6946   */\n      0xffffffffffffffff\n        /* \"#utility.yul\":6920:6926   */\n      dup2\n        /* \"#utility.yul\":6917:6947   */\n      gt\n        /* \"#utility.yul\":6914:7031   */\n      iszero\n      tag_548\n      jumpi\n        /* \"#utility.yul\":6950:7029   */\n      tag_549\n      tag_513\n      jump\t// in\n    tag_549:\n        /* \"#utility.yul\":6914:7031   */\n    tag_548:\n        /* \"#utility.yul\":7055:7118   */\n      tag_550\n        /* \"#utility.yul\":7110:7117   */\n      dup9\n        /* \"#utility.yul\":7101:7107   */\n      dup3\n        /* \"#utility.yul\":7090:7099   */\n      dup10\n        /* \"#utility.yul\":7086:7108   */\n      add\n        /* \"#utility.yul\":7055:7118   */\n      tag_475\n      jump\t// in\n    tag_550:\n        /* \"#utility.yul\":7045:7118   */\n      swap4\n      pop\n        /* \"#utility.yul\":6840:7128   */\n      pop\n        /* \"#utility.yul\":7195:7197   */\n      0x60\n        /* \"#utility.yul\":7184:7193   */\n      dup7\n        /* \"#utility.yul\":7180:7198   */\n      add\n        /* \"#utility.yul\":7167:7199   */\n      calldataload\n        /* \"#utility.yul\":7226:7244   */\n      0xffffffffffffffff\n        /* \"#utility.yul\":7218:7224   */\n      dup2\n        /* \"#utility.yul\":7215:7245   */\n      gt\n        /* \"#utility.yul\":7212:7329   */\n      iszero\n      tag_551\n      jumpi\n        /* \"#utility.yul\":7248:7327   */\n      tag_552\n      tag_513\n      jump\t// in\n    tag_552:\n        /* \"#utility.yul\":7212:7329   */\n    tag_551:\n        /* \"#utility.yul\":7353:7416   */\n      tag_553\n        /* \"#utility.yul\":7408:7415   */\n      dup9\n        /* \"#utility.yul\":7399:7405   */\n      dup3\n        /* \"#utility.yul\":7388:7397   */\n      dup10\n        /* \"#utility.yul\":7384:7406   */\n      add\n        /* \"#utility.yul\":7353:7416   */\n      tag_475\n      jump\t// in\n    tag_553:\n        /* \"#utility.yul\":7343:7416   */\n      swap3\n      pop\n        /* \"#utility.yul\":7138:7426   */\n      pop\n        /* \"#utility.yul\":7493:7496   */\n      0x80\n        /* \"#utility.yul\":7482:7491   */\n      dup7\n        /* \"#utility.yul\":7478:7497   */\n      add\n        /* \"#utility.yul\":7465:7498   */\n      calldataload\n        /* \"#utility.yul\":7525:7543   */\n      0xffffffffffffffff\n        /* \"#utility.yul\":7517:7523   */\n      dup2\n        /* \"#utility.yul\":7514:7544   */\n      gt\n        /* \"#utility.yul\":7511:7628   */\n      iszero\n      tag_554\n      jumpi\n        /* \"#utility.yul\":7547:7626   */\n      tag_555\n      tag_513\n      jump\t// in\n    tag_555:\n        /* \"#utility.yul\":7511:7628   */\n    tag_554:\n        /* \"#utility.yul\":7652:7740   */\n      tag_556\n        /* \"#utility.yul\":7732:7739   */\n      dup9\n        /* \"#utility.yul\":7723:7729   */\n      dup3\n        /* \"#utility.yul\":7712:7721   */\n      dup10\n        /* \"#utility.yul\":7708:7730   */\n      add\n        /* \"#utility.yul\":7652:7740   */\n      tag_490\n      jump\t// in\n    tag_556:\n        /* \"#utility.yul\":7642:7740   */\n      swap2\n      pop\n        /* \"#utility.yul\":7436:7750   */\n      pop\n        /* \"#utility.yul\":5896:7757   */\n      swap3\n      swap6\n      pop\n      swap3\n      swap6\n      swap1\n      swap4\n      pop\n      jump\t// out\n        /* \"#utility.yul\":7763:9574   */\n    tag_65:\n        /* \"#utility.yul\":7908:7914   */\n      0x00\n        /* \"#utility.yul\":7916:7922   */\n      dup1\n        /* \"#utility.yul\":7924:7930   */\n      0x00\n        /* \"#utility.yul\":7932:7938   */\n      dup1\n        /* \"#utility.yul\":7940:7946   */\n      0x00\n        /* \"#utility.yul\":7989:7992   */\n      0xa0\n        /* \"#utility.yul\":7977:7986   */\n      dup7\n        /* \"#utility.yul\":7968:7975   */\n      dup9\n        /* \"#utility.yul\":7964:7987   */\n      sub\n        /* \"#utility.yul\":7960:7993   */\n      slt\n        /* \"#utility.yul\":7957:8077   */\n      iszero\n      tag_558\n      jumpi\n        /* \"#utility.yul\":7996:8075   */\n      tag_559\n      tag_506\n      jump\t// in\n    tag_559:\n        /* \"#utility.yul\":7957:8077   */\n    tag_558:\n        /* \"#utility.yul\":8144:8145   */\n      0x00\n        /* \"#utility.yul\":8133:8142   */\n      dup7\n        /* \"#utility.yul\":8129:8146   */\n      add\n        /* \"#utility.yul\":8116:8147   */\n      calldataload\n        /* \"#utility.yul\":8174:8192   */\n      0xffffffffffffffff\n        /* \"#utility.yul\":8166:8172   */\n      dup2\n        /* \"#utility.yul\":8163:8193   */\n      gt\n        /* \"#utility.yul\":8160:8277   */\n      iszero\n      tag_560\n      jumpi\n        /* \"#utility.yul\":8196:8275   */\n      tag_561\n      tag_513\n      jump\t// in\n    tag_561:\n        /* \"#utility.yul\":8160:8277   */\n    tag_560:\n        /* \"#utility.yul\":8301:8364   */\n      tag_562\n        /* \"#utility.yul\":8356:8363   */\n      dup9\n        /* \"#utility.yul\":8347:8353   */\n      dup3\n        /* \"#utility.yul\":8336:8345   */\n      dup10\n        /* \"#utility.yul\":8332:8354   */\n      add\n        /* \"#utility.yul\":8301:8364   */\n      tag_475\n      jump\t// in\n    tag_562:\n        /* \"#utility.yul\":8291:8364   */\n      swap6\n      pop\n        /* \"#utility.yul\":8087:8374   */\n      pop\n        /* \"#utility.yul\":8441:8443   */\n      0x20\n        /* \"#utility.yul\":8430:8439   */\n      dup7\n        /* \"#utility.yul\":8426:8444   */\n      add\n        /* \"#utility.yul\":8413:8445   */\n      calldataload\n        /* \"#utility.yul\":8472:8490   */\n      0xffffffffffffffff\n        /* \"#utility.yul\":8464:8470   */\n      dup2\n        /* \"#utility.yul\":8461:8491   */\n      gt\n        /* \"#utility.yul\":8458:8575   */\n      iszero\n      tag_563\n      jumpi\n        /* \"#utility.yul\":8494:8573   */\n      tag_564\n      tag_513\n      jump\t// in\n    tag_564:\n        /* \"#utility.yul\":8458:8575   */\n    tag_563:\n        /* \"#utility.yul\":8599:8662   */\n      tag_565\n        /* \"#utility.yul\":8654:8661   */\n      dup9\n        /* \"#utility.yul\":8645:8651   */\n      dup3\n        /* \"#utility.yul\":8634:8643   */\n      dup10\n        /* \"#utility.yul\":8630:8652   */\n      add\n        /* \"#utility.yul\":8599:8662   */\n      tag_475\n      jump\t// in\n    tag_565:\n        /* \"#utility.yul\":8589:8662   */\n      swap5\n      pop\n        /* \"#utility.yul\":8384:8672   */\n      pop\n        /* \"#utility.yul\":8739:8741   */\n      0x40\n        /* \"#utility.yul\":8728:8737   */\n      dup7\n        /* \"#utility.yul\":8724:8742   */\n      add\n        /* \"#utility.yul\":8711:8743   */\n      calldataload\n        /* \"#utility.yul\":8770:8788   */\n      0xffffffffffffffff\n        /* \"#utility.yul\":8762:8768   */\n      dup2\n        /* \"#utility.yul\":8759:8789   */\n      gt\n        /* \"#utility.yul\":8756:8873   */\n      iszero\n      tag_566\n      jumpi\n        /* \"#utility.yul\":8792:8871   */\n      tag_567\n      tag_513\n      jump\t// in\n    tag_567:\n        /* \"#utility.yul\":8756:8873   */\n    tag_566:\n        /* \"#utility.yul\":8897:8960   */\n      tag_568\n        /* \"#utility.yul\":8952:8959   */\n      dup9\n        /* \"#utility.yul\":8943:8949   */\n      dup3\n        /* \"#utility.yul\":8932:8941   */\n      dup10\n        /* \"#utility.yul\":8928:8950   */\n      add\n        /* \"#utility.yul\":8897:8960   */\n      tag_475\n      jump\t// in\n    tag_568:\n        /* \"#utility.yul\":8887:8960   */\n      swap4\n      pop\n        /* \"#utility.yul\":8682:8970   */\n      pop\n        /* \"#utility.yul\":9037:9039   */\n      0x60\n        /* \"#utility.yul\":9026:9035   */\n      dup7\n        /* \"#utility.yul\":9022:9040   */\n      add\n        /* \"#utility.yul\":9009:9041   */\n      calldataload\n        /* \"#utility.yul\":9068:9086   */\n      0xffffffffffffffff\n        /* \"#utility.yul\":9060:9066   */\n      dup2\n        /* \"#utility.yul\":9057:9087   */\n      gt\n        /* \"#utility.yul\":9054:9171   */\n      iszero\n      tag_569\n      jumpi\n        /* \"#utility.yul\":9090:9169   */\n      tag_570\n      tag_513\n      jump\t// in\n    tag_570:\n        /* \"#utility.yul\":9054:9171   */\n    tag_569:\n        /* \"#utility.yul\":9195:9258   */\n      tag_571\n        /* \"#utility.yul\":9250:9257   */\n      dup9\n        /* \"#utility.yul\":9241:9247   */\n      dup3\n        /* \"#utility.yul\":9230:9239   */\n      dup10\n        /* \"#utility.yul\":9226:9248   */\n      add\n        /* \"#utility.yul\":9195:9258   */\n      tag_475\n      jump\t// in\n    tag_571:\n        /* \"#utility.yul\":9185:9258   */\n      swap3\n      pop\n        /* \"#utility.yul\":8980:9268   */\n      pop\n        /* \"#utility.yul\":9335:9338   */\n      0x80\n        /* \"#utility.yul\":9324:9333   */\n      dup7\n        /* \"#utility.yul\":9320:9339   */\n      add\n        /* \"#utility.yul\":9307:9340   */\n      calldataload\n        /* \"#utility.yul\":9367:9385   */\n      0xffffffffffffffff\n        /* \"#utility.yul\":9359:9365   */\n      dup2\n        /* \"#utility.yul\":9356:9386   */\n      gt\n        /* \"#utility.yul\":9353:9470   */\n      iszero\n      tag_572\n      jumpi\n        /* \"#utility.yul\":9389:9468   */\n      tag_573\n      tag_513\n      jump\t// in\n    tag_573:\n        /* \"#utility.yul\":9353:9470   */\n    tag_572:\n        /* \"#utility.yul\":9494:9557   */\n      tag_574\n        /* \"#utility.yul\":9549:9556   */\n      dup9\n        /* \"#utility.yul\":9540:9546   */\n      dup3\n        /* \"#utility.yul\":9529:9538   */\n      dup10\n        /* \"#utility.yul\":9525:9547   */\n      add\n        /* \"#utility.yul\":9494:9557   */\n      tag_475\n      jump\t// in\n    tag_574:\n        /* \"#utility.yul\":9484:9557   */\n      swap2\n      pop\n        /* \"#utility.yul\":9278:9567   */\n      pop\n        /* \"#utility.yul\":7763:9574   */\n      swap3\n      swap6\n      pop\n      swap3\n      swap6\n      swap1\n      swap4\n      pop\n      jump\t// out\n        /* \"#utility.yul\":9580:11717   */\n    tag_69:\n        /* \"#utility.yul\":9744:9750   */\n      0x00\n        /* \"#utility.yul\":9752:9758   */\n      dup1\n        /* \"#utility.yul\":9760:9766   */\n      0x00\n        /* \"#utility.yul\":9768:9774   */\n      dup1\n        /* \"#utility.yul\":9776:9782   */\n      0x00\n        /* \"#utility.yul\":9784:9790   */\n      dup1\n        /* \"#utility.yul\":9833:9836   */\n      0xc0\n        /* \"#utility.yul\":9821:9830   */\n      dup8\n        /* \"#utility.yul\":9812:9819   */\n      dup10\n        /* \"#utility.yul\":9808:9831   */\n      sub\n        /* \"#utility.yul\":9804:9837   */\n      slt\n        /* \"#utility.yul\":9801:9921   */\n      iszero\n      tag_576\n      jumpi\n        /* \"#utility.yul\":9840:9919   */\n      tag_577\n      tag_506\n      jump\t// in\n    tag_577:\n        /* \"#utility.yul\":9801:9921   */\n    tag_576:\n        /* \"#utility.yul\":9988:9989   */\n      0x00\n        /* \"#utility.yul\":9977:9986   */\n      dup8\n        /* \"#utility.yul\":9973:9990   */\n      add\n        /* \"#utility.yul\":9960:9991   */\n      calldataload\n        /* \"#utility.yul\":10018:10036   */\n      0xffffffffffffffff\n        /* \"#utility.yul\":10010:10016   */\n      dup2\n        /* \"#utility.yul\":10007:10037   */\n      gt\n        /* \"#utility.yul\":10004:10121   */\n      iszero\n      tag_578\n      jumpi\n        /* \"#utility.yul\":10040:10119   */\n      tag_579\n      tag_513\n      jump\t// in\n    tag_579:\n        /* \"#utility.yul\":10004:10121   */\n    tag_578:\n        /* \"#utility.yul\":10145:10208   */\n      tag_580\n        /* \"#utility.yul\":10200:10207   */\n      dup10\n        /* \"#utility.yul\":10191:10197   */\n      dup3\n        /* \"#utility.yul\":10180:10189   */\n      dup11\n        /* \"#utility.yul\":10176:10198   */\n      add\n        /* \"#utility.yul\":10145:10208   */\n      tag_475\n      jump\t// in\n    tag_580:\n        /* \"#utility.yul\":10135:10208   */\n      swap7\n      pop\n        /* \"#utility.yul\":9931:10218   */\n      pop\n        /* \"#utility.yul\":10285:10287   */\n      0x20\n        /* \"#utility.yul\":10274:10283   */\n      dup8\n        /* \"#utility.yul\":10270:10288   */\n      add\n        /* \"#utility.yul\":10257:10289   */\n      calldataload\n        /* \"#utility.yul\":10316:10334   */\n      0xffffffffffffffff\n        /* \"#utility.yul\":10308:10314   */\n      dup2\n        /* \"#utility.yul\":10305:10335   */\n      gt\n        /* \"#utility.yul\":10302:10419   */\n      iszero\n      tag_581\n      jumpi\n        /* \"#utility.yul\":10338:10417   */\n      tag_582\n      tag_513\n      jump\t// in\n    tag_582:\n        /* \"#utility.yul\":10302:10419   */\n    tag_581:\n        /* \"#utility.yul\":10443:10506   */\n      tag_583\n        /* \"#utility.yul\":10498:10505   */\n      dup10\n        /* \"#utility.yul\":10489:10495   */\n      dup3\n        /* \"#utility.yul\":10478:10487   */\n      dup11\n        /* \"#utility.yul\":10474:10496   */\n      add\n        /* \"#utility.yul\":10443:10506   */\n      tag_475\n      jump\t// in\n    tag_583:\n        /* \"#utility.yul\":10433:10506   */\n      swap6\n      pop\n        /* \"#utility.yul\":10228:10516   */\n      pop\n        /* \"#utility.yul\":10583:10585   */\n      0x40\n        /* \"#utility.yul\":10572:10581   */\n      dup8\n        /* \"#utility.yul\":10568:10586   */\n      add\n        /* \"#utility.yul\":10555:10587   */\n      calldataload\n        /* \"#utility.yul\":10614:10632   */\n      0xffffffffffffffff\n        /* \"#utility.yul\":10606:10612   */\n      dup2\n        /* \"#utility.yul\":10603:10633   */\n      gt\n        /* \"#utility.yul\":10600:10717   */\n      iszero\n      tag_584\n      jumpi\n        /* \"#utility.yul\":10636:10715   */\n      tag_585\n      tag_513\n      jump\t// in\n    tag_585:\n        /* \"#utility.yul\":10600:10717   */\n    tag_584:\n        /* \"#utility.yul\":10741:10804   */\n      tag_586\n        /* \"#utility.yul\":10796:10803   */\n      dup10\n        /* \"#utility.yul\":10787:10793   */\n      dup3\n        /* \"#utility.yul\":10776:10785   */\n      dup11\n        /* \"#utility.yul\":10772:10794   */\n      add\n        /* \"#utility.yul\":10741:10804   */\n      tag_475\n      jump\t// in\n    tag_586:\n        /* \"#utility.yul\":10731:10804   */\n      swap5\n      pop\n        /* \"#utility.yul\":10526:10814   */\n      pop\n        /* \"#utility.yul\":10881:10883   */\n      0x60\n        /* \"#utility.yul\":10870:10879   */\n      dup8\n        /* \"#utility.yul\":10866:10884   */\n      add\n        /* \"#utility.yul\":10853:10885   */\n      calldataload\n        /* \"#utility.yul\":10912:10930   */\n      0xffffffffffffffff\n        /* \"#utility.yul\":10904:10910   */\n      dup2\n        /* \"#utility.yul\":10901:10931   */\n      gt\n        /* \"#utility.yul\":10898:11015   */\n      iszero\n      tag_587\n      jumpi\n        /* \"#utility.yul\":10934:11013   */\n      tag_588\n      tag_513\n      jump\t// in\n    tag_588:\n        /* \"#utility.yul\":10898:11015   */\n    tag_587:\n        /* \"#utility.yul\":11039:11102   */\n      tag_589\n        /* \"#utility.yul\":11094:11101   */\n      dup10\n        /* \"#utility.yul\":11085:11091   */\n      dup3\n        /* \"#utility.yul\":11074:11083   */\n      dup11\n        /* \"#utility.yul\":11070:11092   */\n      add\n        /* \"#utility.yul\":11039:11102   */\n      tag_475\n      jump\t// in\n    tag_589:\n        /* \"#utility.yul\":11029:11102   */\n      swap4\n      pop\n        /* \"#utility.yul\":10824:11112   */\n      pop\n        /* \"#utility.yul\":11179:11182   */\n      0x80\n        /* \"#utility.yul\":11168:11177   */\n      dup8\n        /* \"#utility.yul\":11164:11183   */\n      add\n        /* \"#utility.yul\":11151:11184   */\n      calldataload\n        /* \"#utility.yul\":11211:11229   */\n      0xffffffffffffffff\n        /* \"#utility.yul\":11203:11209   */\n      dup2\n        /* \"#utility.yul\":11200:11230   */\n      gt\n        /* \"#utility.yul\":11197:11314   */\n      iszero\n      tag_590\n      jumpi\n        /* \"#utility.yul\":11233:11312   */\n      tag_591\n      tag_513\n      jump\t// in\n    tag_591:\n        /* \"#utility.yul\":11197:11314   */\n    tag_590:\n        /* \"#utility.yul\":11338:11401   */\n      tag_592\n        /* \"#utility.yul\":11393:11400   */\n      dup10\n        /* \"#utility.yul\":11384:11390   */\n      dup3\n        /* \"#utility.yul\":11373:11382   */\n      dup11\n        /* \"#utility.yul\":11369:11391   */\n      add\n        /* \"#utility.yul\":11338:11401   */\n      tag_475\n      jump\t// in\n    tag_592:\n        /* \"#utility.yul\":11328:11401   */\n      swap3\n      pop\n        /* \"#utility.yul\":11122:11411   */\n      pop\n        /* \"#utility.yul\":11478:11481   */\n      0xa0\n        /* \"#utility.yul\":11467:11476   */\n      dup8\n        /* \"#utility.yul\":11463:11482   */\n      add\n        /* \"#utility.yul\":11450:11483   */\n      calldataload\n        /* \"#utility.yul\":11510:11528   */\n      0xffffffffffffffff\n        /* \"#utility.yul\":11502:11508   */\n      dup2\n        /* \"#utility.yul\":11499:11529   */\n      gt\n        /* \"#utility.yul\":11496:11613   */\n      iszero\n      tag_593\n      jumpi\n        /* \"#utility.yul\":11532:11611   */\n      tag_594\n      tag_513\n      jump\t// in\n    tag_594:\n        /* \"#utility.yul\":11496:11613   */\n    tag_593:\n        /* \"#utility.yul\":11637:11700   */\n      tag_595\n        /* \"#utility.yul\":11692:11699   */\n      dup10\n        /* \"#utility.yul\":11683:11689   */\n      dup3\n        /* \"#utility.yul\":11672:11681   */\n      dup11\n        /* \"#utility.yul\":11668:11690   */\n      add\n        /* \"#utility.yul\":11637:11700   */\n      tag_475\n      jump\t// in\n    tag_595:\n        /* \"#utility.yul\":11627:11700   */\n      swap2\n      pop\n        /* \"#utility.yul\":11421:11710   */\n      pop\n        /* \"#utility.yul\":9580:11717   */\n      swap3\n      swap6\n      pop\n      swap3\n      swap6\n      pop\n      swap3\n      swap6\n      jump\t// out\n        /* \"#utility.yul\":11723:12052   */\n    tag_50:\n        /* \"#utility.yul\":11782:11788   */\n      0x00\n        /* \"#utility.yul\":11831:11833   */\n      0x20\n        /* \"#utility.yul\":11819:11828   */\n      dup3\n        /* \"#utility.yul\":11810:11817   */\n      dup5\n        /* \"#utility.yul\":11806:11829   */\n      sub\n        /* \"#utility.yul\":11802:11834   */\n      slt\n        /* \"#utility.yul\":11799:11918   */\n      iszero\n      tag_597\n      jumpi\n        /* \"#utility.yul\":11837:11916   */\n      tag_598\n      tag_506\n      jump\t// in\n    tag_598:\n        /* \"#utility.yul\":11799:11918   */\n    tag_597:\n        /* \"#utility.yul\":11957:11958   */\n      0x00\n        /* \"#utility.yul\":11982:12035   */\n      tag_599\n        /* \"#utility.yul\":12027:12034   */\n      dup5\n        /* \"#utility.yul\":12018:12024   */\n      dup3\n        /* \"#utility.yul\":12007:12016   */\n      dup6\n        /* \"#utility.yul\":12003:12025   */\n      add\n        /* \"#utility.yul\":11982:12035   */\n      tag_499\n      jump\t// in\n    tag_599:\n        /* \"#utility.yul\":11972:12035   */\n      swap2\n      pop\n        /* \"#utility.yul\":11928:12045   */\n      pop\n        /* \"#utility.yul\":11723:12052   */\n      swap3\n      swap2\n      pop\n      pop\n      jump\t// out\n        /* \"#utility.yul\":12058:12254   */\n    tag_600:\n        /* \"#utility.yul\":12147:12157   */\n      0x00\n        /* \"#utility.yul\":12182:12248   */\n      tag_602\n        /* \"#utility.yul\":12244:12247   */\n      dup4\n        /* \"#utility.yul\":12236:12242   */\n      dup4\n        /* \"#utility.yul\":12182:12248   */\n      tag_603\n      jump\t// in\n    tag_602:\n        /* \"#utility.yul\":12168:12248   */\n      swap1\n      pop\n        /* \"#utility.yul\":12058:12254   */\n      swap3\n      swap2\n      pop\n      pop\n      jump\t// out\n        /* \"#utility.yul\":12260:12368   */\n    tag_604:\n        /* \"#utility.yul\":12337:12361   */\n      tag_606\n        /* \"#utility.yul\":12355:12360   */\n      dup2\n        /* \"#utility.yul\":12337:12361   */\n      tag_607\n      jump\t// in\n    tag_606:\n        /* \"#utility.yul\":12332:12335   */\n      dup3\n        /* \"#utility.yul\":12325:12362   */\n      mstore\n        /* \"#utility.yul\":12260:12368   */\n      pop\n      pop\n      jump\t// out\n        /* \"#utility.yul\":12402:13373   */\n    tag_608:\n        /* \"#utility.yul\":12531:12534   */\n      0x00\n        /* \"#utility.yul\":12560:12624   */\n      tag_610\n        /* \"#utility.yul\":12618:12623   */\n      dup3\n        /* \"#utility.yul\":12560:12624   */\n      tag_611\n      jump\t// in\n    tag_610:\n        /* \"#utility.yul\":12640:12726   */\n      tag_612\n        /* \"#utility.yul\":12719:12725   */\n      dup2\n        /* \"#utility.yul\":12714:12717   */\n      dup6\n        /* \"#utility.yul\":12640:12726   */\n      tag_613\n      jump\t// in\n    tag_612:\n        /* \"#utility.yul\":12633:12726   */\n      swap4\n      pop\n        /* \"#utility.yul\":12752:12755   */\n      dup4\n        /* \"#utility.yul\":12797:12801   */\n      0x20\n        /* \"#utility.yul\":12789:12795   */\n      dup3\n        /* \"#utility.yul\":12785:12802   */\n      mul\n        /* \"#utility.yul\":12780:12783   */\n      dup6\n        /* \"#utility.yul\":12776:12803   */\n      add\n        /* \"#utility.yul\":12827:12893   */\n      tag_614\n        /* \"#utility.yul\":12887:12892   */\n      dup6\n        /* \"#utility.yul\":12827:12893   */\n      tag_615\n      jump\t// in\n    tag_614:\n        /* \"#utility.yul\":12916:12923   */\n      dup1\n        /* \"#utility.yul\":12947:12948   */\n      0x00\n        /* \"#utility.yul\":12932:13328   */\n    tag_616:\n        /* \"#utility.yul\":12957:12963   */\n      dup6\n        /* \"#utility.yul\":12954:12955   */\n      dup2\n        /* \"#utility.yul\":12951:12964   */\n      lt\n        /* \"#utility.yul\":12932:13328   */\n      iszero\n      tag_618\n      jumpi\n        /* \"#utility.yul\":13028:13037   */\n      dup5\n        /* \"#utility.yul\":13022:13026   */\n      dup5\n        /* \"#utility.yul\":13018:13038   */\n      sub\n        /* \"#utility.yul\":13013:13016   */\n      dup10\n        /* \"#utility.yul\":13006:13039   */\n      mstore\n        /* \"#utility.yul\":13079:13085   */\n      dup2\n        /* \"#utility.yul\":13073:13086   */\n      mload\n        /* \"#utility.yul\":13107:13191   */\n      tag_619\n        /* \"#utility.yul\":13186:13190   */\n      dup6\n        /* \"#utility.yul\":13171:13184   */\n      dup3\n        /* \"#utility.yul\":13107:13191   */\n      tag_600\n      jump\t// in\n    tag_619:\n        /* \"#utility.yul\":13099:13191   */\n      swap5\n      pop\n        /* \"#utility.yul\":13214:13284   */\n      tag_620\n        /* \"#utility.yul\":13277:13283   */\n      dup4\n        /* \"#utility.yul\":13214:13284   */\n      tag_621\n      jump\t// in\n    tag_620:\n        /* \"#utility.yul\":13204:13284   */\n      swap3\n      pop\n        /* \"#utility.yul\":13313:13317   */\n      0x20\n        /* \"#utility.yul\":13308:13311   */\n      dup11\n        /* \"#utility.yul\":13304:13318   */\n      add\n        /* \"#utility.yul\":13297:13318   */\n      swap10\n      pop\n        /* \"#utility.yul\":12992:13328   */\n      pop\n        /* \"#utility.yul\":12979:12980   */\n      0x01\n        /* \"#utility.yul\":12976:12977   */\n      dup2\n        /* \"#utility.yul\":12972:12981   */\n      add\n        /* \"#utility.yul\":12967:12981   */\n      swap1\n      pop\n        /* \"#utility.yul\":12932:13328   */\n      jump(tag_616)\n    tag_618:\n        /* \"#utility.yul\":12936:12950   */\n      pop\n        /* \"#utility.yul\":13344:13348   */\n      dup3\n        /* \"#utility.yul\":13337:13348   */\n      swap8\n      pop\n        /* \"#utility.yul\":13364:13367   */\n      dup8\n        /* \"#utility.yul\":13357:13367   */\n      swap6\n      pop\n        /* \"#utility.yul\":12536:13373   */\n      pop\n      pop\n      pop\n      pop\n      pop\n        /* \"#utility.yul\":12402:13373   */\n      swap3\n      swap2\n      pop\n      pop\n      jump\t// out\n        /* \"#utility.yul\":13407:14398   */\n    tag_622:\n        /* \"#utility.yul\":13546:13549   */\n      0x00\n        /* \"#utility.yul\":13575:13639   */\n      tag_624\n        /* \"#utility.yul\":13633:13638   */\n      dup3\n        /* \"#utility.yul\":13575:13639   */\n      tag_611\n      jump\t// in\n    tag_624:\n        /* \"#utility.yul\":13655:13751   */\n      tag_625\n        /* \"#utility.yul\":13744:13750   */\n      dup2\n        /* \"#utility.yul\":13739:13742   */\n      dup6\n        /* \"#utility.yul\":13655:13751   */\n      tag_626\n      jump\t// in\n    tag_625:\n        /* \"#utility.yul\":13648:13751   */\n      swap4\n      pop\n        /* \"#utility.yul\":13777:13780   */\n      dup4\n        /* \"#utility.yul\":13822:13826   */\n      0x20\n        /* \"#utility.yul\":13814:13820   */\n      dup3\n        /* \"#utility.yul\":13810:13827   */\n      mul\n        /* \"#utility.yul\":13805:13808   */\n      dup6\n        /* \"#utility.yul\":13801:13828   */\n      add\n        /* \"#utility.yul\":13852:13918   */\n      tag_627\n        /* \"#utility.yul\":13912:13917   */\n      dup6\n        /* \"#utility.yul\":13852:13918   */\n      tag_615\n      jump\t// in\n    tag_627:\n        /* \"#utility.yul\":13941:13948   */\n      dup1\n        /* \"#utility.yul\":13972:13973   */\n      0x00\n        /* \"#utility.yul\":13957:14353   */\n    tag_628:\n        /* \"#utility.yul\":13982:13988   */\n      dup6\n        /* \"#utility.yul\":13979:13980   */\n      dup2\n        /* \"#utility.yul\":13976:13989   */\n      lt\n        /* \"#utility.yul\":13957:14353   */\n      iszero\n      tag_630\n      jumpi\n        /* \"#utility.yul\":14053:14062   */\n      dup5\n        /* \"#utility.yul\":14047:14051   */\n      dup5\n        /* \"#utility.yul\":14043:14063   */\n      sub\n        /* \"#utility.yul\":14038:14041   */\n      dup10\n        /* \"#utility.yul\":14031:14064   */\n      mstore\n        /* \"#utility.yul\":14104:14110   */\n      dup2\n        /* \"#utility.yul\":14098:14111   */\n      mload\n        /* \"#utility.yul\":14132:14216   */\n      tag_631\n        /* \"#utility.yul\":14211:14215   */\n      dup6\n        /* \"#utility.yul\":14196:14209   */\n      dup3\n        /* \"#utility.yul\":14132:14216   */\n      tag_600\n      jump\t// in\n    tag_631:\n        /* \"#utility.yul\":14124:14216   */\n      swap5\n      pop\n        /* \"#utility.yul\":14239:14309   */\n      tag_632\n        /* \"#utility.yul\":14302:14308   */\n      dup4\n        /* \"#utility.yul\":14239:14309   */\n      tag_621\n      jump\t// in\n    tag_632:\n        /* \"#utility.yul\":14229:14309   */\n      swap3\n      pop\n        /* \"#utility.yul\":14338:14342   */\n      0x20\n        /* \"#utility.yul\":14333:14336   */\n      dup11\n        /* \"#utility.yul\":14329:14343   */\n      add\n        /* \"#utility.yul\":14322:14343   */\n      swap10\n      pop\n        /* \"#utility.yul\":14017:14353   */\n      pop\n        /* \"#utility.yul\":14004:14005   */\n      0x01\n        /* \"#utility.yul\":14001:14002   */\n      dup2\n        /* \"#utility.yul\":13997:14006   */\n      add\n        /* \"#utility.yul\":13992:14006   */\n      swap1\n      pop\n        /* \"#utility.yul\":13957:14353   */\n      jump(tag_628)\n    tag_630:\n        /* \"#utility.yul\":13961:13975   */\n      pop\n        /* \"#utility.yul\":14369:14373   */\n      dup3\n        /* \"#utility.yul\":14362:14373   */\n      swap8\n      pop\n        /* \"#utility.yul\":14389:14392   */\n      dup8\n        /* \"#utility.yul\":14382:14392   */\n      swap6\n      pop\n        /* \"#utility.yul\":13551:14398   */\n      pop\n      pop\n      pop\n      pop\n      pop\n        /* \"#utility.yul\":13407:14398   */\n      swap3\n      swap2\n      pop\n      pop\n      jump\t// out\n        /* \"#utility.yul\":14404:14748   */\n    tag_603:\n        /* \"#utility.yul\":14482:14485   */\n      0x00\n        /* \"#utility.yul\":14510:14549   */\n      tag_634\n        /* \"#utility.yul\":14543:14548   */\n      dup3\n        /* \"#utility.yul\":14510:14549   */\n      tag_635\n      jump\t// in\n    tag_634:\n        /* \"#utility.yul\":14565:14626   */\n      tag_636\n        /* \"#utility.yul\":14619:14625   */\n      dup2\n        /* \"#utility.yul\":14614:14617   */\n      dup6\n        /* \"#utility.yul\":14565:14626   */\n      tag_637\n      jump\t// in\n    tag_636:\n        /* \"#utility.yul\":14558:14626   */\n      swap4\n      pop\n        /* \"#utility.yul\":14635:14687   */\n      tag_638\n        /* \"#utility.yul\":14680:14686   */\n      dup2\n        /* \"#utility.yul\":14675:14678   */\n      dup6\n        /* \"#utility.yul\":14668:14672   */\n      0x20\n        /* \"#utility.yul\":14661:14666   */\n      dup7\n        /* \"#utility.yul\":14657:14673   */\n      add\n        /* \"#utility.yul\":14635:14687   */\n      tag_639\n      jump\t// in\n    tag_638:\n        /* \"#utility.yul\":14712:14741   */\n      tag_640\n        /* \"#utility.yul\":14734:14740   */\n      dup2\n        /* \"#utility.yul\":14712:14741   */\n      tag_641\n      jump\t// in\n    tag_640:\n        /* \"#utility.yul\":14707:14710   */\n      dup5\n        /* \"#utility.yul\":14703:14742   */\n      add\n        /* \"#utility.yul\":14696:14742   */\n      swap2\n      pop\n        /* \"#utility.yul\":14486:14748   */\n      pop\n        /* \"#utility.yul\":14404:14748   */\n      swap3\n      swap2\n      pop\n      pop\n      jump\t// out\n        /* \"#utility.yul\":14754:15118   */\n    tag_642:\n        /* \"#utility.yul\":14842:14845   */\n      0x00\n        /* \"#utility.yul\":14870:14909   */\n      tag_644\n        /* \"#utility.yul\":14903:14908   */\n      dup3\n        /* \"#utility.yul\":14870:14909   */\n      tag_635\n      jump\t// in\n    tag_644:\n        /* \"#utility.yul\":14925:14996   */\n      tag_645\n        /* \"#utility.yul\":14989:14995   */\n      dup2\n        /* \"#utility.yul\":14984:14987   */\n      dup6\n        /* \"#utility.yul\":14925:14996   */\n      tag_646\n      jump\t// in\n    tag_645:\n        /* \"#utility.yul\":14918:14996   */\n      swap4\n      pop\n        /* \"#utility.yul\":15005:15057   */\n      tag_647\n        /* \"#utility.yul\":15050:15056   */\n      dup2\n        /* \"#utility.yul\":15045:15048   */\n      dup6\n        /* \"#utility.yul\":15038:15042   */\n      0x20\n        /* \"#utility.yul\":15031:15036   */\n      dup7\n        /* \"#utility.yul\":15027:15043   */\n      add\n        /* \"#utility.yul\":15005:15057   */\n      tag_639\n      jump\t// in\n    tag_647:\n        /* \"#utility.yul\":15082:15111   */\n      tag_648\n        /* \"#utility.yul\":15104:15110   */\n      dup2\n        /* \"#utility.yul\":15082:15111   */\n      tag_641\n      jump\t// in\n    tag_648:\n        /* \"#utility.yul\":15077:15080   */\n      dup5\n        /* \"#utility.yul\":15073:15112   */\n      add\n        /* \"#utility.yul\":15066:15112   */\n      swap2\n      pop\n        /* \"#utility.yul\":14846:15118   */\n      pop\n        /* \"#utility.yul\":14754:15118   */\n      swap3\n      swap2\n      pop\n      pop\n      jump\t// out\n        /* \"#utility.yul\":15204:16011   */\n    tag_649:\n        /* \"#utility.yul\":15345:15348   */\n      0x00\n        /* \"#utility.yul\":15381:15385   */\n      0x40\n        /* \"#utility.yul\":15376:15379   */\n      dup4\n        /* \"#utility.yul\":15372:15386   */\n      add\n        /* \"#utility.yul\":15475:15479   */\n      0x00\n        /* \"#utility.yul\":15468:15473   */\n      dup4\n        /* \"#utility.yul\":15464:15480   */\n      add\n        /* \"#utility.yul\":15458:15481   */\n      mload\n        /* \"#utility.yul\":15528:15531   */\n      dup5\n        /* \"#utility.yul\":15522:15526   */\n      dup3\n        /* \"#utility.yul\":15518:15532   */\n      sub\n        /* \"#utility.yul\":15511:15515   */\n      0x00\n        /* \"#utility.yul\":15506:15509   */\n      dup7\n        /* \"#utility.yul\":15502:15516   */\n      add\n        /* \"#utility.yul\":15495:15533   */\n      mstore\n        /* \"#utility.yul\":15554:15677   */\n      tag_651\n        /* \"#utility.yul\":15672:15676   */\n      dup3\n        /* \"#utility.yul\":15658:15670   */\n      dup3\n        /* \"#utility.yul\":15554:15677   */\n      tag_608\n      jump\t// in\n    tag_651:\n        /* \"#utility.yul\":15546:15677   */\n      swap2\n      pop\n        /* \"#utility.yul\":15396:15688   */\n      pop\n        /* \"#utility.yul\":15771:15775   */\n      0x20\n        /* \"#utility.yul\":15764:15769   */\n      dup4\n        /* \"#utility.yul\":15760:15776   */\n      add\n        /* \"#utility.yul\":15754:15777   */\n      mload\n        /* \"#utility.yul\":15824:15827   */\n      dup5\n        /* \"#utility.yul\":15818:15822   */\n      dup3\n        /* \"#utility.yul\":15814:15828   */\n      sub\n        /* \"#utility.yul\":15807:15811   */\n      0x20\n        /* \"#utility.yul\":15802:15805   */\n      dup7\n        /* \"#utility.yul\":15798:15812   */\n      add\n        /* \"#utility.yul\":15791:15829   */\n      mstore\n        /* \"#utility.yul\":15850:15973   */\n      tag_652\n        /* \"#utility.yul\":15968:15972   */\n      dup3\n        /* \"#utility.yul\":15954:15966   */\n      dup3\n        /* \"#utility.yul\":15850:15973   */\n      tag_608\n      jump\t// in\n    tag_652:\n        /* \"#utility.yul\":15842:15973   */\n      swap2\n      pop\n        /* \"#utility.yul\":15698:15984   */\n      pop\n        /* \"#utility.yul\":16001:16005   */\n      dup1\n        /* \"#utility.yul\":15994:16005   */\n      swap2\n      pop\n        /* \"#utility.yul\":15350:16011   */\n      pop\n        /* \"#utility.yul\":15204:16011   */\n      swap3\n      swap2\n      pop\n      pop\n      jump\t// out\n        /* \"#utility.yul\":16075:17743   */\n    tag_653:\n        /* \"#utility.yul\":16192:16195   */\n      0x00\n        /* \"#utility.yul\":16228:16232   */\n      0xc0\n        /* \"#utility.yul\":16223:16226   */\n      dup4\n        /* \"#utility.yul\":16219:16233   */\n      add\n        /* \"#utility.yul\":16318:16322   */\n      0x00\n        /* \"#utility.yul\":16311:16316   */\n      dup4\n        /* \"#utility.yul\":16307:16323   */\n      add\n        /* \"#utility.yul\":16301:16324   */\n      mload\n        /* \"#utility.yul\":16371:16374   */\n      dup5\n        /* \"#utility.yul\":16365:16369   */\n      dup3\n        /* \"#utility.yul\":16361:16375   */\n      sub\n        /* \"#utility.yul\":16354:16358   */\n      0x00\n        /* \"#utility.yul\":16349:16352   */\n      dup7\n        /* \"#utility.yul\":16345:16359   */\n      add\n        /* \"#utility.yul\":16338:16376   */\n      mstore\n        /* \"#utility.yul\":16397:16470   */\n      tag_655\n        /* \"#utility.yul\":16465:16469   */\n      dup3\n        /* \"#utility.yul\":16451:16463   */\n      dup3\n        /* \"#utility.yul\":16397:16470   */\n      tag_603\n      jump\t// in\n    tag_655:\n        /* \"#utility.yul\":16389:16470   */\n      swap2\n      pop\n        /* \"#utility.yul\":16243:16481   */\n      pop\n        /* \"#utility.yul\":16564:16568   */\n      0x20\n        /* \"#utility.yul\":16557:16562   */\n      dup4\n        /* \"#utility.yul\":16553:16569   */\n      add\n        /* \"#utility.yul\":16547:16570   */\n      mload\n        /* \"#utility.yul\":16617:16620   */\n      dup5\n        /* \"#utility.yul\":16611:16615   */\n      dup3\n        /* \"#utility.yul\":16607:16621   */\n      sub\n        /* \"#utility.yul\":16600:16604   */\n      0x20\n        /* \"#utility.yul\":16595:16598   */\n      dup7\n        /* \"#utility.yul\":16591:16605   */\n      add\n        /* \"#utility.yul\":16584:16622   */\n      mstore\n        /* \"#utility.yul\":16643:16716   */\n      tag_656\n        /* \"#utility.yul\":16711:16715   */\n      dup3\n        /* \"#utility.yul\":16697:16709   */\n      dup3\n        /* \"#utility.yul\":16643:16716   */\n      tag_603\n      jump\t// in\n    tag_656:\n        /* \"#utility.yul\":16635:16716   */\n      swap2\n      pop\n        /* \"#utility.yul\":16491:16727   */\n      pop\n        /* \"#utility.yul\":16810:16814   */\n      0x40\n        /* \"#utility.yul\":16803:16808   */\n      dup4\n        /* \"#utility.yul\":16799:16815   */\n      add\n        /* \"#utility.yul\":16793:16816   */\n      mload\n        /* \"#utility.yul\":16863:16866   */\n      dup5\n        /* \"#utility.yul\":16857:16861   */\n      dup3\n        /* \"#utility.yul\":16853:16867   */\n      sub\n        /* \"#utility.yul\":16846:16850   */\n      0x40\n        /* \"#utility.yul\":16841:16844   */\n      dup7\n        /* \"#utility.yul\":16837:16851   */\n      add\n        /* \"#utility.yul\":16830:16868   */\n      mstore\n        /* \"#utility.yul\":16889:16962   */\n      tag_657\n        /* \"#utility.yul\":16957:16961   */\n      dup3\n        /* \"#utility.yul\":16943:16955   */\n      dup3\n        /* \"#utility.yul\":16889:16962   */\n      tag_603\n      jump\t// in\n    tag_657:\n        /* \"#utility.yul\":16881:16962   */\n      swap2\n      pop\n        /* \"#utility.yul\":16737:16973   */\n      pop\n        /* \"#utility.yul\":17057:17061   */\n      0x60\n        /* \"#utility.yul\":17050:17055   */\n      dup4\n        /* \"#utility.yul\":17046:17062   */\n      add\n        /* \"#utility.yul\":17040:17063   */\n      mload\n        /* \"#utility.yul\":17110:17113   */\n      dup5\n        /* \"#utility.yul\":17104:17108   */\n      dup3\n        /* \"#utility.yul\":17100:17114   */\n      sub\n        /* \"#utility.yul\":17093:17097   */\n      0x60\n        /* \"#utility.yul\":17088:17091   */\n      dup7\n        /* \"#utility.yul\":17084:17098   */\n      add\n        /* \"#utility.yul\":17077:17115   */\n      mstore\n        /* \"#utility.yul\":17136:17209   */\n      tag_658\n        /* \"#utility.yul\":17204:17208   */\n      dup3\n        /* \"#utility.yul\":17190:17202   */\n      dup3\n        /* \"#utility.yul\":17136:17209   */\n      tag_603\n      jump\t// in\n    tag_658:\n        /* \"#utility.yul\":17128:17209   */\n      swap2\n      pop\n        /* \"#utility.yul\":16983:17220   */\n      pop\n        /* \"#utility.yul\":17304:17308   */\n      0x80\n        /* \"#utility.yul\":17297:17302   */\n      dup4\n        /* \"#utility.yul\":17293:17309   */\n      add\n        /* \"#utility.yul\":17287:17310   */\n      mload\n        /* \"#utility.yul\":17357:17360   */\n      dup5\n        /* \"#utility.yul\":17351:17355   */\n      dup3\n        /* \"#utility.yul\":17347:17361   */\n      sub\n        /* \"#utility.yul\":17340:17344   */\n      0x80\n        /* \"#utility.yul\":17335:17338   */\n      dup7\n        /* \"#utility.yul\":17331:17345   */\n      add\n        /* \"#utility.yul\":17324:17362   */\n      mstore\n        /* \"#utility.yul\":17383:17456   */\n      tag_659\n        /* \"#utility.yul\":17451:17455   */\n      dup3\n        /* \"#utility.yul\":17437:17449   */\n      dup3\n        /* \"#utility.yul\":17383:17456   */\n      tag_603\n      jump\t// in\n    tag_659:\n        /* \"#utility.yul\":17375:17456   */\n      swap2\n      pop\n        /* \"#utility.yul\":17230:17467   */\n      pop\n        /* \"#utility.yul\":17553:17557   */\n      0xa0\n        /* \"#utility.yul\":17546:17551   */\n      dup4\n        /* \"#utility.yul\":17542:17558   */\n      add\n        /* \"#utility.yul\":17536:17559   */\n      mload\n        /* \"#utility.yul\":17606:17609   */\n      dup5\n        /* \"#utility.yul\":17600:17604   */\n      dup3\n        /* \"#utility.yul\":17596:17610   */\n      sub\n        /* \"#utility.yul\":17589:17593   */\n      0xa0\n        /* \"#utility.yul\":17584:17587   */\n      dup7\n        /* \"#utility.yul\":17580:17594   */\n      add\n        /* \"#utility.yul\":17573:17611   */\n      mstore\n        /* \"#utility.yul\":17632:17705   */\n      tag_660\n        /* \"#utility.yul\":17700:17704   */\n      dup3\n        /* \"#utility.yul\":17686:17698   */\n      dup3\n        /* \"#utility.yul\":17632:17705   */\n      tag_603\n      jump\t// in\n    tag_660:\n        /* \"#utility.yul\":17624:17705   */\n      swap2\n      pop\n        /* \"#utility.yul\":17477:17716   */\n      pop\n        /* \"#utility.yul\":17733:17737   */\n      dup1\n        /* \"#utility.yul\":17726:17737   */\n      swap2\n      pop\n        /* \"#utility.yul\":16197:17743   */\n      pop\n        /* \"#utility.yul\":16075:17743   */\n      swap3\n      swap2\n      pop\n      pop\n      jump\t// out\n        /* \"#utility.yul\":17813:19867   */\n    tag_661:\n        /* \"#utility.yul\":17936:17939   */\n      0x00\n        /* \"#utility.yul\":17972:17978   */\n      0x0100\n        /* \"#utility.yul\":17967:17970   */\n      dup4\n        /* \"#utility.yul\":17963:17979   */\n      add\n        /* \"#utility.yul\":18064:18068   */\n      0x00\n        /* \"#utility.yul\":18057:18062   */\n      dup4\n        /* \"#utility.yul\":18053:18069   */\n      add\n        /* \"#utility.yul\":18047:18070   */\n      mload\n        /* \"#utility.yul\":18117:18120   */\n      dup5\n        /* \"#utility.yul\":18111:18115   */\n      dup3\n        /* \"#utility.yul\":18107:18121   */\n      sub\n        /* \"#utility.yul\":18100:18104   */\n      0x00\n        /* \"#utility.yul\":18095:18098   */\n      dup7\n        /* \"#utility.yul\":18091:18105   */\n      add\n        /* \"#utility.yul\":18084:18122   */\n      mstore\n        /* \"#utility.yul\":18143:18216   */\n      tag_663\n        /* \"#utility.yul\":18211:18215   */\n      dup3\n        /* \"#utility.yul\":18197:18209   */\n      dup3\n        /* \"#utility.yul\":18143:18216   */\n      tag_603\n      jump\t// in\n    tag_663:\n        /* \"#utility.yul\":18135:18216   */\n      swap2\n      pop\n        /* \"#utility.yul\":17989:18227   */\n      pop\n        /* \"#utility.yul\":18313:18317   */\n      0x20\n        /* \"#utility.yul\":18306:18311   */\n      dup4\n        /* \"#utility.yul\":18302:18318   */\n      add\n        /* \"#utility.yul\":18296:18319   */\n      mload\n        /* \"#utility.yul\":18366:18369   */\n      dup5\n        /* \"#utility.yul\":18360:18364   */\n      dup3\n        /* \"#utility.yul\":18356:18370   */\n      sub\n        /* \"#utility.yul\":18349:18353   */\n      0x20\n        /* \"#utility.yul\":18344:18347   */\n      dup7\n        /* \"#utility.yul\":18340:18354   */\n      add\n        /* \"#utility.yul\":18333:18371   */\n      mstore\n        /* \"#utility.yul\":18392:18465   */\n      tag_664\n        /* \"#utility.yul\":18460:18464   */\n      dup3\n        /* \"#utility.yul\":18446:18458   */\n      dup3\n        /* \"#utility.yul\":18392:18465   */\n      tag_603\n      jump\t// in\n    tag_664:\n        /* \"#utility.yul\":18384:18465   */\n      swap2\n      pop\n        /* \"#utility.yul\":18237:18476   */\n      pop\n        /* \"#utility.yul\":18565:18569   */\n      0x40\n        /* \"#utility.yul\":18558:18563   */\n      dup4\n        /* \"#utility.yul\":18554:18570   */\n      add\n        /* \"#utility.yul\":18548:18571   */\n      mload\n        /* \"#utility.yul\":18584:18647   */\n      tag_665\n        /* \"#utility.yul\":18641:18645   */\n      0x40\n        /* \"#utility.yul\":18636:18639   */\n      dup7\n        /* \"#utility.yul\":18632:18646   */\n      add\n        /* \"#utility.yul\":18618:18630   */\n      dup3\n        /* \"#utility.yul\":18584:18647   */\n      tag_604\n      jump\t// in\n    tag_665:\n        /* \"#utility.yul\":18486:18657   */\n      pop\n        /* \"#utility.yul\":18744:18748   */\n      0x60\n        /* \"#utility.yul\":18737:18742   */\n      dup4\n        /* \"#utility.yul\":18733:18749   */\n      add\n        /* \"#utility.yul\":18727:18750   */\n      mload\n        /* \"#utility.yul\":18797:18800   */\n      dup5\n        /* \"#utility.yul\":18791:18795   */\n      dup3\n        /* \"#utility.yul\":18787:18801   */\n      sub\n        /* \"#utility.yul\":18780:18784   */\n      0x60\n        /* \"#utility.yul\":18775:18778   */\n      dup7\n        /* \"#utility.yul\":18771:18785   */\n      add\n        /* \"#utility.yul\":18764:18802   */\n      mstore\n        /* \"#utility.yul\":18823:18896   */\n      tag_666\n        /* \"#utility.yul\":18891:18895   */\n      dup3\n        /* \"#utility.yul\":18877:18889   */\n      dup3\n        /* \"#utility.yul\":18823:18896   */\n      tag_603\n      jump\t// in\n    tag_666:\n        /* \"#utility.yul\":18815:18896   */\n      swap2\n      pop\n        /* \"#utility.yul\":18667:18907   */\n      pop\n        /* \"#utility.yul\":18995:18999   */\n      0x80\n        /* \"#utility.yul\":18988:18993   */\n      dup4\n        /* \"#utility.yul\":18984:19000   */\n      add\n        /* \"#utility.yul\":18978:19001   */\n      mload\n        /* \"#utility.yul\":19048:19051   */\n      dup5\n        /* \"#utility.yul\":19042:19046   */\n      dup3\n        /* \"#utility.yul\":19038:19052   */\n      sub\n        /* \"#utility.yul\":19031:19035   */\n      0x80\n        /* \"#utility.yul\":19026:19029   */\n      dup7\n        /* \"#utility.yul\":19022:19036   */\n      add\n        /* \"#utility.yul\":19015:19053   */\n      mstore\n        /* \"#utility.yul\":19074:19147   */\n      tag_667\n        /* \"#utility.yul\":19142:19146   */\n      dup3\n        /* \"#utility.yul\":19128:19140   */\n      dup3\n        /* \"#utility.yul\":19074:19147   */\n      tag_603\n      jump\t// in\n    tag_667:\n        /* \"#utility.yul\":19066:19147   */\n      swap2\n      pop\n        /* \"#utility.yul\":18917:19158   */\n      pop\n        /* \"#utility.yul\":19244:19248   */\n      0xa0\n        /* \"#utility.yul\":19237:19242   */\n      dup4\n        /* \"#utility.yul\":19233:19249   */\n      add\n        /* \"#utility.yul\":19227:19250   */\n      mload\n        /* \"#utility.yul\":19297:19300   */\n      dup5\n        /* \"#utility.yul\":19291:19295   */\n      dup3\n        /* \"#utility.yul\":19287:19301   */\n      sub\n        /* \"#utility.yul\":19280:19284   */\n      0xa0\n        /* \"#utility.yul\":19275:19278   */\n      dup7\n        /* \"#utility.yul\":19271:19285   */\n      add\n        /* \"#utility.yul\":19264:19302   */\n      mstore\n        /* \"#utility.yul\":19323:19396   */\n      tag_668\n        /* \"#utility.yul\":19391:19395   */\n      dup3\n        /* \"#utility.yul\":19377:19389   */\n      dup3\n        /* \"#utility.yul\":19323:19396   */\n      tag_603\n      jump\t// in\n    tag_668:\n        /* \"#utility.yul\":19315:19396   */\n      swap2\n      pop\n        /* \"#utility.yul\":19168:19407   */\n      pop\n        /* \"#utility.yul\":19497:19501   */\n      0xc0\n        /* \"#utility.yul\":19490:19495   */\n      dup4\n        /* \"#utility.yul\":19486:19502   */\n      add\n        /* \"#utility.yul\":19480:19503   */\n      mload\n        /* \"#utility.yul\":19550:19553   */\n      dup5\n        /* \"#utility.yul\":19544:19548   */\n      dup3\n        /* \"#utility.yul\":19540:19554   */\n      sub\n        /* \"#utility.yul\":19533:19537   */\n      0xc0\n        /* \"#utility.yul\":19528:19531   */\n      dup7\n        /* \"#utility.yul\":19524:19538   */\n      add\n        /* \"#utility.yul\":19517:19555   */\n      mstore\n        /* \"#utility.yul\":19576:19649   */\n      tag_669\n        /* \"#utility.yul\":19644:19648   */\n      dup3\n        /* \"#utility.yul\":19630:19642   */\n      dup3\n        /* \"#utility.yul\":19576:19649   */\n      tag_603\n      jump\t// in\n    tag_669:\n        /* \"#utility.yul\":19568:19649   */\n      swap2\n      pop\n        /* \"#utility.yul\":19417:19660   */\n      pop\n        /* \"#utility.yul\":19748:19752   */\n      0xe0\n        /* \"#utility.yul\":19741:19746   */\n      dup4\n        /* \"#utility.yul\":19737:19753   */\n      add\n        /* \"#utility.yul\":19731:19754   */\n      mload\n        /* \"#utility.yul\":19767:19830   */\n      tag_670\n        /* \"#utility.yul\":19824:19828   */\n      0xe0\n        /* \"#utility.yul\":19819:19822   */\n      dup7\n        /* \"#utility.yul\":19815:19829   */\n      add\n        /* \"#utility.yul\":19801:19813   */\n      dup3\n        /* \"#utility.yul\":19767:19830   */\n      tag_671\n      jump\t// in\n    tag_670:\n        /* \"#utility.yul\":19670:19840   */\n      pop\n        /* \"#utility.yul\":19857:19861   */\n      dup1\n        /* \"#utility.yul\":19850:19861   */\n      swap2\n      pop\n        /* \"#utility.yul\":17941:19867   */\n      pop\n        /* \"#utility.yul\":17813:19867   */\n      swap3\n      swap2\n      pop\n      pop\n      jump\t// out\n        /* \"#utility.yul\":19925:21022   */\n    tag_672:\n        /* \"#utility.yul\":20036:20039   */\n      0x00\n        /* \"#utility.yul\":20072:20076   */\n      0x60\n        /* \"#utility.yul\":20067:20070   */\n      dup4\n        /* \"#utility.yul\":20063:20077   */\n      add\n        /* \"#utility.yul\":20175:20179   */\n      0x00\n        /* \"#utility.yul\":20168:20173   */\n      dup4\n        /* \"#utility.yul\":20164:20180   */\n      add\n        /* \"#utility.yul\":20158:20181   */\n      mload\n        /* \"#utility.yul\":20228:20231   */\n      dup5\n        /* \"#utility.yul\":20222:20226   */\n      dup3\n        /* \"#utility.yul\":20218:20232   */\n      sub\n        /* \"#utility.yul\":20211:20215   */\n      0x00\n        /* \"#utility.yul\":20206:20209   */\n      dup7\n        /* \"#utility.yul\":20202:20216   */\n      add\n        /* \"#utility.yul\":20195:20233   */\n      mstore\n        /* \"#utility.yul\":20254:20377   */\n      tag_674\n        /* \"#utility.yul\":20372:20376   */\n      dup3\n        /* \"#utility.yul\":20358:20370   */\n      dup3\n        /* \"#utility.yul\":20254:20377   */\n      tag_608\n      jump\t// in\n    tag_674:\n        /* \"#utility.yul\":20246:20377   */\n      swap2\n      pop\n        /* \"#utility.yul\":20087:20388   */\n      pop\n        /* \"#utility.yul\":20475:20479   */\n      0x20\n        /* \"#utility.yul\":20468:20473   */\n      dup4\n        /* \"#utility.yul\":20464:20480   */\n      add\n        /* \"#utility.yul\":20458:20481   */\n      mload\n        /* \"#utility.yul\":20528:20531   */\n      dup5\n        /* \"#utility.yul\":20522:20526   */\n      dup3\n        /* \"#utility.yul\":20518:20532   */\n      sub\n        /* \"#utility.yul\":20511:20515   */\n      0x20\n        /* \"#utility.yul\":20506:20509   */\n      dup7\n        /* \"#utility.yul\":20502:20516   */\n      add\n        /* \"#utility.yul\":20495:20533   */\n      mstore\n        /* \"#utility.yul\":20554:20677   */\n      tag_675\n        /* \"#utility.yul\":20672:20676   */\n      dup3\n        /* \"#utility.yul\":20658:20670   */\n      dup3\n        /* \"#utility.yul\":20554:20677   */\n      tag_608\n      jump\t// in\n    tag_675:\n        /* \"#utility.yul\":20546:20677   */\n      swap2\n      pop\n        /* \"#utility.yul\":20398:20688   */\n      pop\n        /* \"#utility.yul\":20782:20786   */\n      0x40\n        /* \"#utility.yul\":20775:20780   */\n      dup4\n        /* \"#utility.yul\":20771:20787   */\n      add\n        /* \"#utility.yul\":20765:20788   */\n      mload\n        /* \"#utility.yul\":20835:20838   */\n      dup5\n        /* \"#utility.yul\":20829:20833   */\n      dup3\n        /* \"#utility.yul\":20825:20839   */\n      sub\n        /* \"#utility.yul\":20818:20822   */\n      0x40\n        /* \"#utility.yul\":20813:20816   */\n      dup7\n        /* \"#utility.yul\":20809:20823   */\n      add\n        /* \"#utility.yul\":20802:20840   */\n      mstore\n        /* \"#utility.yul\":20861:20984   */\n      tag_676\n        /* \"#utility.yul\":20979:20983   */\n      dup3\n        /* \"#utility.yul\":20965:20977   */\n      dup3\n        /* \"#utility.yul\":20861:20984   */\n      tag_608\n      jump\t// in\n    tag_676:\n        /* \"#utility.yul\":20853:20984   */\n      swap2\n      pop\n        /* \"#utility.yul\":20698:20995   */\n      pop\n        /* \"#utility.yul\":21012:21016   */\n      dup1\n        /* \"#utility.yul\":21005:21016   */\n      swap2\n      pop\n        /* \"#utility.yul\":20041:21022   */\n      pop\n        /* \"#utility.yul\":19925:21022   */\n      swap3\n      swap2\n      pop\n      pop\n      jump\t// out\n        /* \"#utility.yul\":21028:21136   */\n    tag_671:\n        /* \"#utility.yul\":21105:21129   */\n      tag_678\n        /* \"#utility.yul\":21123:21128   */\n      dup2\n        /* \"#utility.yul\":21105:21129   */\n      tag_679\n      jump\t// in\n    tag_678:\n        /* \"#utility.yul\":21100:21103   */\n      dup3\n        /* \"#utility.yul\":21093:21130   */\n      mstore\n        /* \"#utility.yul\":21028:21136   */\n      pop\n      pop\n      jump\t// out\n        /* \"#utility.yul\":21142:21260   */\n    tag_680:\n        /* \"#utility.yul\":21229:21253   */\n      tag_682\n        /* \"#utility.yul\":21247:21252   */\n      dup2\n        /* \"#utility.yul\":21229:21253   */\n      tag_679\n      jump\t// in\n    tag_682:\n        /* \"#utility.yul\":21224:21227   */\n      dup3\n        /* \"#utility.yul\":21217:21254   */\n      mstore\n        /* \"#utility.yul\":21142:21260   */\n      pop\n      pop\n      jump\t// out\n        /* \"#utility.yul\":21266:21780   */\n    tag_91:\n        /* \"#utility.yul\":21427:21431   */\n      0x00\n        /* \"#utility.yul\":21465:21467   */\n      0x40\n        /* \"#utility.yul\":21454:21463   */\n      dup3\n        /* \"#utility.yul\":21450:21468   */\n      add\n        /* \"#utility.yul\":21442:21468   */\n      swap1\n      pop\n        /* \"#utility.yul\":21514:21523   */\n      dup2\n        /* \"#utility.yul\":21508:21512   */\n      dup2\n        /* \"#utility.yul\":21504:21524   */\n      sub\n        /* \"#utility.yul\":21500:21501   */\n      0x00\n        /* \"#utility.yul\":21489:21498   */\n      dup4\n        /* \"#utility.yul\":21485:21502   */\n      add\n        /* \"#utility.yul\":21478:21525   */\n      mstore\n        /* \"#utility.yul\":21542:21620   */\n      tag_684\n        /* \"#utility.yul\":21615:21619   */\n      dup2\n        /* \"#utility.yul\":21606:21612   */\n      dup6\n        /* \"#utility.yul\":21542:21620   */\n      tag_642\n      jump\t// in\n    tag_684:\n        /* \"#utility.yul\":21534:21620   */\n      swap1\n      pop\n        /* \"#utility.yul\":21667:21676   */\n      dup2\n        /* \"#utility.yul\":21661:21665   */\n      dup2\n        /* \"#utility.yul\":21657:21677   */\n      sub\n        /* \"#utility.yul\":21652:21654   */\n      0x20\n        /* \"#utility.yul\":21641:21650   */\n      dup4\n        /* \"#utility.yul\":21637:21655   */\n      add\n        /* \"#utility.yul\":21630:21678   */\n      mstore\n        /* \"#utility.yul\":21695:21773   */\n      tag_685\n        /* \"#utility.yul\":21768:21772   */\n      dup2\n        /* \"#utility.yul\":21759:21765   */\n      dup5\n        /* \"#utility.yul\":21695:21773   */\n      tag_642\n      jump\t// in\n    tag_685:\n        /* \"#utility.yul\":21687:21773   */\n      swap1\n      pop\n        /* \"#utility.yul\":21266:21780   */\n      swap4\n      swap3\n      pop\n      pop\n      pop\n      jump\t// out\n        /* \"#utility.yul\":21786:23005   */\n    tag_53:\n        /* \"#utility.yul\":22141:22145   */\n      0x00\n        /* \"#utility.yul\":22179:22182   */\n      0xa0\n        /* \"#utility.yul\":22168:22177   */\n      dup3\n        /* \"#utility.yul\":22164:22183   */\n      add\n        /* \"#utility.yul\":22156:22183   */\n      swap1\n      pop\n        /* \"#utility.yul\":22229:22238   */\n      dup2\n        /* \"#utility.yul\":22223:22227   */\n      dup2\n        /* \"#utility.yul\":22219:22239   */\n      sub\n        /* \"#utility.yul\":22215:22216   */\n      0x00\n        /* \"#utility.yul\":22204:22213   */\n      dup4\n        /* \"#utility.yul\":22200:22217   */\n      add\n        /* \"#utility.yul\":22193:22240   */\n      mstore\n        /* \"#utility.yul\":22257:22335   */\n      tag_687\n        /* \"#utility.yul\":22330:22334   */\n      dup2\n        /* \"#utility.yul\":22321:22327   */\n      dup9\n        /* \"#utility.yul\":22257:22335   */\n      tag_642\n      jump\t// in\n    tag_687:\n        /* \"#utility.yul\":22249:22335   */\n      swap1\n      pop\n        /* \"#utility.yul\":22382:22391   */\n      dup2\n        /* \"#utility.yul\":22376:22380   */\n      dup2\n        /* \"#utility.yul\":22372:22392   */\n      sub\n        /* \"#utility.yul\":22367:22369   */\n      0x20\n        /* \"#utility.yul\":22356:22365   */\n      dup4\n        /* \"#utility.yul\":22352:22370   */\n      add\n        /* \"#utility.yul\":22345:22393   */\n      mstore\n        /* \"#utility.yul\":22410:22488   */\n      tag_688\n        /* \"#utility.yul\":22483:22487   */\n      dup2\n        /* \"#utility.yul\":22474:22480   */\n      dup8\n        /* \"#utility.yul\":22410:22488   */\n      tag_642\n      jump\t// in\n    tag_688:\n        /* \"#utility.yul\":22402:22488   */\n      swap1\n      pop\n        /* \"#utility.yul\":22535:22544   */\n      dup2\n        /* \"#utility.yul\":22529:22533   */\n      dup2\n        /* \"#utility.yul\":22525:22545   */\n      sub\n        /* \"#utility.yul\":22520:22522   */\n      0x40\n        /* \"#utility.yul\":22509:22518   */\n      dup4\n        /* \"#utility.yul\":22505:22523   */\n      add\n        /* \"#utility.yul\":22498:22546   */\n      mstore\n        /* \"#utility.yul\":22563:22641   */\n      tag_689\n        /* \"#utility.yul\":22636:22640   */\n      dup2\n        /* \"#utility.yul\":22627:22633   */\n      dup7\n        /* \"#utility.yul\":22563:22641   */\n      tag_642\n      jump\t// in\n    tag_689:\n        /* \"#utility.yul\":22555:22641   */\n      swap1\n      pop\n        /* \"#utility.yul\":22688:22697   */\n      dup2\n        /* \"#utility.yul\":22682:22686   */\n      dup2\n        /* \"#utility.yul\":22678:22698   */\n      sub\n        /* \"#utility.yul\":22673:22675   */\n      0x60\n        /* \"#utility.yul\":22662:22671   */\n      dup4\n        /* \"#utility.yul\":22658:22676   */\n      add\n        /* \"#utility.yul\":22651:22699   */\n      mstore\n        /* \"#utility.yul\":22716:22794   */\n      tag_690\n        /* \"#utility.yul\":22789:22793   */\n      dup2\n        /* \"#utility.yul\":22780:22786   */\n      dup6\n        /* \"#utility.yul\":22716:22794   */\n      tag_642\n      jump\t// in\n    tag_690:\n        /* \"#utility.yul\":22708:22794   */\n      swap1\n      pop\n        /* \"#utility.yul\":22842:22851   */\n      dup2\n        /* \"#utility.yul\":22836:22840   */\n      dup2\n        /* \"#utility.yul\":22832:22852   */\n      sub\n        /* \"#utility.yul\":22826:22829   */\n      0x80\n        /* \"#utility.yul\":22815:22824   */\n      dup4\n        /* \"#utility.yul\":22811:22830   */\n      add\n        /* \"#utility.yul\":22804:22853   */\n      mstore\n        /* \"#utility.yul\":22870:22998   */\n      tag_691\n        /* \"#utility.yul\":22993:22997   */\n      dup2\n        /* \"#utility.yul\":22984:22990   */\n      dup5\n        /* \"#utility.yul\":22870:22998   */\n      tag_622\n      jump\t// in\n    tag_691:\n        /* \"#utility.yul\":22862:22998   */\n      swap1\n      pop\n        /* \"#utility.yul\":21786:23005   */\n      swap7\n      swap6\n      pop\n      pop\n      pop\n      pop\n      pop\n      pop\n      jump\t// out\n        /* \"#utility.yul\":23011:24130   */\n    tag_98:\n        /* \"#utility.yul\":23316:23320   */\n      0x00\n        /* \"#utility.yul\":23354:23357   */\n      0xa0\n        /* \"#utility.yul\":23343:23352   */\n      dup3\n        /* \"#utility.yul\":23339:23358   */\n      add\n        /* \"#utility.yul\":23331:23358   */\n      swap1\n      pop\n        /* \"#utility.yul\":23404:23413   */\n      dup2\n        /* \"#utility.yul\":23398:23402   */\n      dup2\n        /* \"#utility.yul\":23394:23414   */\n      sub\n        /* \"#utility.yul\":23390:23391   */\n      0x00\n        /* \"#utility.yul\":23379:23388   */\n      dup4\n        /* \"#utility.yul\":23375:23392   */\n      add\n        /* \"#utility.yul\":23368:23415   */\n      mstore\n        /* \"#utility.yul\":23432:23510   */\n      tag_693\n        /* \"#utility.yul\":23505:23509   */\n      dup2\n        /* \"#utility.yul\":23496:23502   */\n      dup9\n        /* \"#utility.yul\":23432:23510   */\n      tag_642\n      jump\t// in\n    tag_693:\n        /* \"#utility.yul\":23424:23510   */\n      swap1\n      pop\n        /* \"#utility.yul\":23557:23566   */\n      dup2\n        /* \"#utility.yul\":23551:23555   */\n      dup2\n        /* \"#utility.yul\":23547:23567   */\n      sub\n        /* \"#utility.yul\":23542:23544   */\n      0x20\n        /* \"#utility.yul\":23531:23540   */\n      dup4\n        /* \"#utility.yul\":23527:23545   */\n      add\n        /* \"#utility.yul\":23520:23568   */\n      mstore\n        /* \"#utility.yul\":23585:23663   */\n      tag_694\n        /* \"#utility.yul\":23658:23662   */\n      dup2\n        /* \"#utility.yul\":23649:23655   */\n      dup8\n        /* \"#utility.yul\":23585:23663   */\n      tag_642\n      jump\t// in\n    tag_694:\n        /* \"#utility.yul\":23577:23663   */\n      swap1\n      pop\n        /* \"#utility.yul\":23710:23719   */\n      dup2\n        /* \"#utility.yul\":23704:23708   */\n      dup2\n        /* \"#utility.yul\":23700:23720   */\n      sub\n        /* \"#utility.yul\":23695:23697   */\n      0x40\n        /* \"#utility.yul\":23684:23693   */\n      dup4\n        /* \"#utility.yul\":23680:23698   */\n      add\n        /* \"#utility.yul\":23673:23721   */\n      mstore\n        /* \"#utility.yul\":23738:23816   */\n      tag_695\n        /* \"#utility.yul\":23811:23815   */\n      dup2\n        /* \"#utility.yul\":23802:23808   */\n      dup7\n        /* \"#utility.yul\":23738:23816   */\n      tag_642\n      jump\t// in\n    tag_695:\n        /* \"#utility.yul\":23730:23816   */\n      swap1\n      pop\n        /* \"#utility.yul\":23863:23872   */\n      dup2\n        /* \"#utility.yul\":23857:23861   */\n      dup2\n        /* \"#utility.yul\":23853:23873   */\n      sub\n        /* \"#utility.yul\":23848:23850   */\n      0x60\n        /* \"#utility.yul\":23837:23846   */\n      dup4\n        /* \"#utility.yul\":23833:23851   */\n      add\n        /* \"#utility.yul\":23826:23874   */\n      mstore\n        /* \"#utility.yul\":23891:23969   */\n      tag_696\n        /* \"#utility.yul\":23964:23968   */\n      dup2\n        /* \"#utility.yul\":23955:23961   */\n      dup6\n        /* \"#utility.yul\":23891:23969   */\n      tag_642\n      jump\t// in\n    tag_696:\n        /* \"#utility.yul\":23883:23969   */\n      swap1\n      pop\n        /* \"#utility.yul\":24017:24026   */\n      dup2\n        /* \"#utility.yul\":24011:24015   */\n      dup2\n        /* \"#utility.yul\":24007:24027   */\n      sub\n        /* \"#utility.yul\":24001:24004   */\n      0x80\n        /* \"#utility.yul\":23990:23999   */\n      dup4\n        /* \"#utility.yul\":23986:24005   */\n      add\n        /* \"#utility.yul\":23979:24028   */\n      mstore\n        /* \"#utility.yul\":24045:24123   */\n      tag_697\n        /* \"#utility.yul\":24118:24122   */\n      dup2\n        /* \"#utility.yul\":24109:24115   */\n      dup5\n        /* \"#utility.yul\":24045:24123   */\n      tag_642\n      jump\t// in\n    tag_697:\n        /* \"#utility.yul\":24037:24123   */\n      swap1\n      pop\n        /* \"#utility.yul\":23011:24130   */\n      swap7\n      swap6\n      pop\n      pop\n      pop\n      pop\n      pop\n      pop\n      jump\t// out\n        /* \"#utility.yul\":24136:25325   */\n    tag_78:\n        /* \"#utility.yul\":24529:24533   */\n      0x00\n        /* \"#utility.yul\":24567:24570   */\n      0x80\n        /* \"#utility.yul\":24556:24565   */\n      dup3\n        /* \"#utility.yul\":24552:24571   */\n      add\n        /* \"#utility.yul\":24544:24571   */\n      swap1\n      pop\n        /* \"#utility.yul\":24617:24626   */\n      dup2\n        /* \"#utility.yul\":24611:24615   */\n      dup2\n        /* \"#utility.yul\":24607:24627   */\n      sub\n        /* \"#utility.yul\":24603:24604   */\n      0x00\n        /* \"#utility.yul\":24592:24601   */\n      dup4\n        /* \"#utility.yul\":24588:24605   */\n      add\n        /* \"#utility.yul\":24581:24628   */\n      mstore\n        /* \"#utility.yul\":24645:24757   */\n      tag_699\n        /* \"#utility.yul\":24752:24756   */\n      dup2\n        /* \"#utility.yul\":24743:24749   */\n      dup8\n        /* \"#utility.yul\":24645:24757   */\n      tag_661\n      jump\t// in\n    tag_699:\n        /* \"#utility.yul\":24637:24757   */\n      swap1\n      pop\n        /* \"#utility.yul\":24804:24813   */\n      dup2\n        /* \"#utility.yul\":24798:24802   */\n      dup2\n        /* \"#utility.yul\":24794:24814   */\n      sub\n        /* \"#utility.yul\":24789:24791   */\n      0x20\n        /* \"#utility.yul\":24778:24787   */\n      dup4\n        /* \"#utility.yul\":24774:24792   */\n      add\n        /* \"#utility.yul\":24767:24815   */\n      mstore\n        /* \"#utility.yul\":24832:24938   */\n      tag_700\n        /* \"#utility.yul\":24933:24937   */\n      dup2\n        /* \"#utility.yul\":24924:24930   */\n      dup7\n        /* \"#utility.yul\":24832:24938   */\n      tag_653\n      jump\t// in\n    tag_700:\n        /* \"#utility.yul\":24824:24938   */\n      swap1\n      pop\n        /* \"#utility.yul\":24985:24994   */\n      dup2\n        /* \"#utility.yul\":24979:24983   */\n      dup2\n        /* \"#utility.yul\":24975:24995   */\n      sub\n        /* \"#utility.yul\":24970:24972   */\n      0x40\n        /* \"#utility.yul\":24959:24968   */\n      dup4\n        /* \"#utility.yul\":24955:24973   */\n      add\n        /* \"#utility.yul\":24948:24996   */\n      mstore\n        /* \"#utility.yul\":25013:25113   */\n      tag_701\n        /* \"#utility.yul\":25108:25112   */\n      dup2\n        /* \"#utility.yul\":25099:25105   */\n      dup6\n        /* \"#utility.yul\":25013:25113   */\n      tag_672\n      jump\t// in\n    tag_701:\n        /* \"#utility.yul\":25005:25113   */\n      swap1\n      pop\n        /* \"#utility.yul\":25160:25169   */\n      dup2\n        /* \"#utility.yul\":25154:25158   */\n      dup2\n        /* \"#utility.yul\":25150:25170   */\n      sub\n        /* \"#utility.yul\":25145:25147   */\n      0x60\n        /* \"#utility.yul\":25134:25143   */\n      dup4\n        /* \"#utility.yul\":25130:25148   */\n      add\n        /* \"#utility.yul\":25123:25171   */\n      mstore\n        /* \"#utility.yul\":25188:25318   */\n      tag_702\n        /* \"#utility.yul\":25313:25317   */\n      dup2\n        /* \"#utility.yul\":25304:25310   */\n      dup5\n        /* \"#utility.yul\":25188:25318   */\n      tag_649\n      jump\t// in\n    tag_702:\n        /* \"#utility.yul\":25180:25318   */\n      swap1\n      pop\n        /* \"#utility.yul\":24136:25325   */\n      swap6\n      swap5\n      pop\n      pop\n      pop\n      pop\n      pop\n      jump\t// out\n        /* \"#utility.yul\":25331:25553   */\n    tag_30:\n        /* \"#utility.yul\":25424:25428   */\n      0x00\n        /* \"#utility.yul\":25462:25464   */\n      0x20\n        /* \"#utility.yul\":25451:25460   */\n      dup3\n        /* \"#utility.yul\":25447:25465   */\n      add\n        /* \"#utility.yul\":25439:25465   */\n      swap1\n      pop\n        /* \"#utility.yul\":25475:25546   */\n      tag_704\n        /* \"#utility.yul\":25543:25544   */\n      0x00\n        /* \"#utility.yul\":25532:25541   */\n      dup4\n        /* \"#utility.yul\":25528:25545   */\n      add\n        /* \"#utility.yul\":25519:25525   */\n      dup5\n        /* \"#utility.yul\":25475:25546   */\n      tag_680\n      jump\t// in\n    tag_704:\n        /* \"#utility.yul\":25331:25553   */\n      swap3\n      swap2\n      pop\n      pop\n      jump\t// out\n        /* \"#utility.yul\":25559:25688   */\n    tag_464:\n        /* \"#utility.yul\":25593:25599   */\n      0x00\n        /* \"#utility.yul\":25620:25640   */\n      tag_706\n      tag_707\n      jump\t// in\n    tag_706:\n        /* \"#utility.yul\":25610:25640   */\n      swap1\n      pop\n        /* \"#utility.yul\":25649:25682   */\n      tag_708\n        /* \"#utility.yul\":25677:25681   */\n      dup3\n        /* \"#utility.yul\":25669:25675   */\n      dup3\n        /* \"#utility.yul\":25649:25682   */\n      tag_709\n      jump\t// in\n    tag_708:\n        /* \"#utility.yul\":25559:25688   */\n      swap2\n      swap1\n      pop\n      jump\t// out\n        /* \"#utility.yul\":25694:25769   */\n    tag_707:\n        /* \"#utility.yul\":25727:25733   */\n      0x00\n        /* \"#utility.yul\":25760:25762   */\n      0x40\n        /* \"#utility.yul\":25754:25763   */\n      mload\n        /* \"#utility.yul\":25744:25763   */\n      swap1\n      pop\n        /* \"#utility.yul\":25694:25769   */\n      swap1\n      jump\t// out\n        /* \"#utility.yul\":25775:26096   */\n    tag_463:\n        /* \"#utility.yul\":25862:25866   */\n      0x00\n        /* \"#utility.yul\":25952:25970   */\n      0xffffffffffffffff\n        /* \"#utility.yul\":25944:25950   */\n      dup3\n        /* \"#utility.yul\":25941:25971   */\n      gt\n        /* \"#utility.yul\":25938:25994   */\n      iszero\n      tag_712\n      jumpi\n        /* \"#utility.yul\":25974:25992   */\n      tag_713\n      tag_714\n      jump\t// in\n    tag_713:\n        /* \"#utility.yul\":25938:25994   */\n    tag_712:\n        /* \"#utility.yul\":26024:26028   */\n      0x20\n        /* \"#utility.yul\":26016:26022   */\n      dup3\n        /* \"#utility.yul\":26012:26029   */\n      mul\n        /* \"#utility.yul\":26004:26029   */\n      swap1\n      pop\n        /* \"#utility.yul\":26084:26088   */\n      0x20\n        /* \"#utility.yul\":26078:26082   */\n      dup2\n        /* \"#utility.yul\":26074:26089   */\n      add\n        /* \"#utility.yul\":26066:26089   */\n      swap1\n      pop\n        /* \"#utility.yul\":25775:26096   */\n      swap2\n      swap1\n      pop\n      jump\t// out\n        /* \"#utility.yul\":26102:26410   */\n    tag_480:\n        /* \"#utility.yul\":26164:26168   */\n      0x00\n        /* \"#utility.yul\":26254:26272   */\n      0xffffffffffffffff\n        /* \"#utility.yul\":26246:26252   */\n      dup3\n        /* \"#utility.yul\":26243:26273   */\n      gt\n        /* \"#utility.yul\":26240:26296   */\n      iszero\n      tag_716\n      jumpi\n        /* \"#utility.yul\":26276:26294   */\n      tag_717\n      tag_714\n      jump\t// in\n    tag_717:\n        /* \"#utility.yul\":26240:26296   */\n    tag_716:\n        /* \"#utility.yul\":26314:26343   */\n      tag_718\n        /* \"#utility.yul\":26336:26342   */\n      dup3\n        /* \"#utility.yul\":26314:26343   */\n      tag_641\n      jump\t// in\n    tag_718:\n        /* \"#utility.yul\":26306:26343   */\n      swap1\n      pop\n        /* \"#utility.yul\":26398:26402   */\n      0x20\n        /* \"#utility.yul\":26392:26396   */\n      dup2\n        /* \"#utility.yul\":26388:26403   */\n      add\n        /* \"#utility.yul\":26380:26403   */\n      swap1\n      pop\n        /* \"#utility.yul\":26102:26410   */\n      swap2\n      swap1\n      pop\n      jump\t// out\n        /* \"#utility.yul\":26416:26558   */\n    tag_615:\n        /* \"#utility.yul\":26493:26497   */\n      0x00\n        /* \"#utility.yul\":26516:26519   */\n      dup2\n        /* \"#utility.yul\":26508:26519   */\n      swap1\n      pop\n        /* \"#utility.yul\":26546:26550   */\n      0x20\n        /* \"#utility.yul\":26541:26544   */\n      dup3\n        /* \"#utility.yul\":26537:26551   */\n      add\n        /* \"#utility.yul\":26529:26551   */\n      swap1\n      pop\n        /* \"#utility.yul\":26416:26558   */\n      swap2\n      swap1\n      pop\n      jump\t// out\n        /* \"#utility.yul\":26564:26688   */\n    tag_611:\n        /* \"#utility.yul\":26641:26647   */\n      0x00\n        /* \"#utility.yul\":26675:26680   */\n      dup2\n        /* \"#utility.yul\":26669:26681   */\n      mload\n        /* \"#utility.yul\":26659:26681   */\n      swap1\n      pop\n        /* \"#utility.yul\":26564:26688   */\n      swap2\n      swap1\n      pop\n      jump\t// out\n        /* \"#utility.yul\":26694:26793   */\n    tag_635:\n        /* \"#utility.yul\":26746:26752   */\n      0x00\n        /* \"#utility.yul\":26780:26785   */\n      dup2\n        /* \"#utility.yul\":26774:26786   */\n      mload\n        /* \"#utility.yul\":26764:26786   */\n      swap1\n      pop\n        /* \"#utility.yul\":26694:26793   */\n      swap2\n      swap1\n      pop\n      jump\t// out\n        /* \"#utility.yul\":26799:26922   */\n    tag_621:\n        /* \"#utility.yul\":26879:26883   */\n      0x00\n        /* \"#utility.yul\":26911:26915   */\n      0x20\n        /* \"#utility.yul\":26906:26909   */\n      dup3\n        /* \"#utility.yul\":26902:26916   */\n      add\n        /* \"#utility.yul\":26894:26916   */\n      swap1\n      pop\n        /* \"#utility.yul\":26799:26922   */\n      swap2\n      swap1\n      pop\n      jump\t// out\n        /* \"#utility.yul\":26928:27112   */\n    tag_613:\n        /* \"#utility.yul\":27027:27038   */\n      0x00\n        /* \"#utility.yul\":27061:27067   */\n      dup3\n        /* \"#utility.yul\":27056:27059   */\n      dup3\n        /* \"#utility.yul\":27049:27068   */\n      mstore\n        /* \"#utility.yul\":27101:27105   */\n      0x20\n        /* \"#utility.yul\":27096:27099   */\n      dup3\n        /* \"#utility.yul\":27092:27106   */\n      add\n        /* \"#utility.yul\":27077:27106   */\n      swap1\n      pop\n        /* \"#utility.yul\":26928:27112   */\n      swap3\n      swap2\n      pop\n      pop\n      jump\t// out\n        /* \"#utility.yul\":27118:27312   */\n    tag_626:\n        /* \"#utility.yul\":27227:27238   */\n      0x00\n        /* \"#utility.yul\":27261:27267   */\n      dup3\n        /* \"#utility.yul\":27256:27259   */\n      dup3\n        /* \"#utility.yul\":27249:27268   */\n      mstore\n        /* \"#utility.yul\":27301:27305   */\n      0x20\n        /* \"#utility.yul\":27296:27299   */\n      dup3\n        /* \"#utility.yul\":27292:27306   */\n      add\n        /* \"#utility.yul\":27277:27306   */\n      swap1\n      pop\n        /* \"#utility.yul\":27118:27312   */\n      swap3\n      swap2\n      pop\n      pop\n      jump\t// out\n        /* \"#utility.yul\":27318:27477   */\n    tag_637:\n        /* \"#utility.yul\":27392:27403   */\n      0x00\n        /* \"#utility.yul\":27426:27432   */\n      dup3\n        /* \"#utility.yul\":27421:27424   */\n      dup3\n        /* \"#utility.yul\":27414:27433   */\n      mstore\n        /* \"#utility.yul\":27466:27470   */\n      0x20\n        /* \"#utility.yul\":27461:27464   */\n      dup3\n        /* \"#utility.yul\":27457:27471   */\n      add\n        /* \"#utility.yul\":27442:27471   */\n      swap1\n      pop\n        /* \"#utility.yul\":27318:27477   */\n      swap3\n      swap2\n      pop\n      pop\n      jump\t// out\n        /* \"#utility.yul\":27483:27652   */\n    tag_646:\n        /* \"#utility.yul\":27567:27578   */\n      0x00\n        /* \"#utility.yul\":27601:27607   */\n      dup3\n        /* \"#utility.yul\":27596:27599   */\n      dup3\n        /* \"#utility.yul\":27589:27608   */\n      mstore\n        /* \"#utility.yul\":27641:27645   */\n      0x20\n        /* \"#utility.yul\":27636:27639   */\n      dup3\n        /* \"#utility.yul\":27632:27646   */\n      add\n        /* \"#utility.yul\":27617:27646   */\n      swap1\n      pop\n        /* \"#utility.yul\":27483:27652   */\n      swap3\n      swap2\n      pop\n      pop\n      jump\t// out\n        /* \"#utility.yul\":27658:27754   */\n    tag_607:\n        /* \"#utility.yul\":27695:27702   */\n      0x00\n        /* \"#utility.yul\":27724:27748   */\n      tag_728\n        /* \"#utility.yul\":27742:27747   */\n      dup3\n        /* \"#utility.yul\":27724:27748   */\n      tag_729\n      jump\t// in\n    tag_728:\n        /* \"#utility.yul\":27713:27748   */\n      swap1\n      pop\n        /* \"#utility.yul\":27658:27754   */\n      swap2\n      swap1\n      pop\n      jump\t// out\n        /* \"#utility.yul\":27760:27886   */\n    tag_729:\n        /* \"#utility.yul\":27797:27804   */\n      0x00\n        /* \"#utility.yul\":27837:27879   */\n      0xffffffffffffffffffffffffffffffffffffffff\n        /* \"#utility.yul\":27830:27835   */\n      dup3\n        /* \"#utility.yul\":27826:27880   */\n      and\n        /* \"#utility.yul\":27815:27880   */\n      swap1\n      pop\n        /* \"#utility.yul\":27760:27886   */\n      swap2\n      swap1\n      pop\n      jump\t// out\n        /* \"#utility.yul\":27892:27969   */\n    tag_679:\n        /* \"#utility.yul\":27929:27936   */\n      0x00\n        /* \"#utility.yul\":27958:27963   */\n      dup2\n        /* \"#utility.yul\":27947:27963   */\n      swap1\n      pop\n        /* \"#utility.yul\":27892:27969   */\n      swap2\n      swap1\n      pop\n      jump\t// out\n        /* \"#utility.yul\":27975:28129   */\n    tag_485:\n        /* \"#utility.yul\":28059:28065   */\n      dup3\n        /* \"#utility.yul\":28054:28057   */\n      dup2\n        /* \"#utility.yul\":28049:28052   */\n      dup4\n        /* \"#utility.yul\":28036:28066   */\n      calldatacopy\n        /* \"#utility.yul\":28121:28122   */\n      0x00\n        /* \"#utility.yul\":28112:28118   */\n      dup4\n        /* \"#utility.yul\":28107:28110   */\n      dup4\n        /* \"#utility.yul\":28103:28119   */\n      add\n        /* \"#utility.yul\":28096:28123   */\n      mstore\n        /* \"#utility.yul\":27975:28129   */\n      pop\n      pop\n      pop\n      jump\t// out\n        /* \"#utility.yul\":28135:28442   */\n    tag_639:\n        /* \"#utility.yul\":28203:28204   */\n      0x00\n        /* \"#utility.yul\":28213:28326   */\n    tag_734:\n        /* \"#utility.yul\":28227:28233   */\n      dup4\n        /* \"#utility.yul\":28224:28225   */\n      dup2\n        /* \"#utility.yul\":28221:28234   */\n      lt\n        /* \"#utility.yul\":28213:28326   */\n      iszero\n      tag_736\n      jumpi\n        /* \"#utility.yul\":28312:28313   */\n      dup1\n        /* \"#utility.yul\":28307:28310   */\n      dup3\n        /* \"#utility.yul\":28303:28314   */\n      add\n        /* \"#utility.yul\":28297:28315   */\n      mload\n        /* \"#utility.yul\":28293:28294   */\n      dup2\n        /* \"#utility.yul\":28288:28291   */\n      dup5\n        /* \"#utility.yul\":28284:28295   */\n      add\n        /* \"#utility.yul\":28277:28316   */\n      mstore\n        /* \"#utility.yul\":28249:28251   */\n      0x20\n        /* \"#utility.yul\":28246:28247   */\n      dup2\n        /* \"#utility.yul\":28242:28252   */\n      add\n        /* \"#utility.yul\":28237:28252   */\n      swap1\n      pop\n        /* \"#utility.yul\":28213:28326   */\n      jump(tag_734)\n    tag_736:\n        /* \"#utility.yul\":28344:28350   */\n      dup4\n        /* \"#utility.yul\":28341:28342   */\n      dup2\n        /* \"#utility.yul\":28338:28351   */\n      gt\n        /* \"#utility.yul\":28335:28436   */\n      iszero\n      tag_737\n      jumpi\n        /* \"#utility.yul\":28424:28425   */\n      0x00\n        /* \"#utility.yul\":28415:28421   */\n      dup5\n        /* \"#utility.yul\":28410:28413   */\n      dup5\n        /* \"#utility.yul\":28406:28422   */\n      add\n        /* \"#utility.yul\":28399:28426   */\n      mstore\n        /* \"#utility.yul\":28335:28436   */\n    tag_737:\n        /* \"#utility.yul\":28184:28442   */\n      pop\n        /* \"#utility.yul\":28135:28442   */\n      pop\n      pop\n      pop\n      jump\t// out\n        /* \"#utility.yul\":28448:28768   */\n    tag_149:\n        /* \"#utility.yul\":28492:28498   */\n      0x00\n        /* \"#utility.yul\":28529:28530   */\n      0x02\n        /* \"#utility.yul\":28523:28527   */\n      dup3\n        /* \"#utility.yul\":28519:28531   */\n      div\n        /* \"#utility.yul\":28509:28531   */\n      swap1\n      pop\n        /* \"#utility.yul\":28576:28577   */\n      0x01\n        /* \"#utility.yul\":28570:28574   */\n      dup3\n        /* \"#utility.yul\":28566:28578   */\n      and\n        /* \"#utility.yul\":28597:28615   */\n      dup1\n        /* \"#utility.yul\":28587:28668   */\n      tag_739\n      jumpi\n        /* \"#utility.yul\":28653:28657   */\n      0x7f\n        /* \"#utility.yul\":28645:28651   */\n      dup3\n        /* \"#utility.yul\":28641:28658   */\n      and\n        /* \"#utility.yul\":28631:28658   */\n      swap2\n      pop\n        /* \"#utility.yul\":28587:28668   */\n    tag_739:\n        /* \"#utility.yul\":28715:28717   */\n      0x20\n        /* \"#utility.yul\":28707:28713   */\n      dup3\n        /* \"#utility.yul\":28704:28718   */\n      lt\n        /* \"#utility.yul\":28684:28702   */\n      dup2\n        /* \"#utility.yul\":28681:28719   */\n      eq\n        /* \"#utility.yul\":28678:28762   */\n      iszero\n      tag_740\n      jumpi\n        /* \"#utility.yul\":28734:28752   */\n      tag_741\n      tag_742\n      jump\t// in\n    tag_741:\n        /* \"#utility.yul\":28678:28762   */\n    tag_740:\n        /* \"#utility.yul\":28499:28768   */\n      pop\n        /* \"#utility.yul\":28448:28768   */\n      swap2\n      swap1\n      pop\n      jump\t// out\n        /* \"#utility.yul\":28774:29055   */\n    tag_709:\n        /* \"#utility.yul\":28857:28884   */\n      tag_744\n        /* \"#utility.yul\":28879:28883   */\n      dup3\n        /* \"#utility.yul\":28857:28884   */\n      tag_641\n      jump\t// in\n    tag_744:\n        /* \"#utility.yul\":28849:28855   */\n      dup2\n        /* \"#utility.yul\":28845:28885   */\n      add\n        /* \"#utility.yul\":28987:28993   */\n      dup2\n        /* \"#utility.yul\":28975:28985   */\n      dup2\n        /* \"#utility.yul\":28972:28994   */\n      lt\n        /* \"#utility.yul\":28951:28969   */\n      0xffffffffffffffff\n        /* \"#utility.yul\":28939:28949   */\n      dup3\n        /* \"#utility.yul\":28936:28970   */\n      gt\n        /* \"#utility.yul\":28933:28995   */\n      or\n        /* \"#utility.yul\":28930:29018   */\n      iszero\n      tag_745\n      jumpi\n        /* \"#utility.yul\":28998:29016   */\n      tag_746\n      tag_714\n      jump\t// in\n    tag_746:\n        /* \"#utility.yul\":28930:29018   */\n    tag_745:\n        /* \"#utility.yul\":29038:29048   */\n      dup1\n        /* \"#utility.yul\":29034:29036   */\n      0x40\n        /* \"#utility.yul\":29027:29049   */\n      mstore\n        /* \"#utility.yul\":28817:29055   */\n      pop\n        /* \"#utility.yul\":28774:29055   */\n      pop\n      pop\n      jump\t// out\n        /* \"#utility.yul\":29061:29241   */\n    tag_742:\n        /* \"#utility.yul\":29109:29186   */\n      0x4e487b7100000000000000000000000000000000000000000000000000000000\n        /* \"#utility.yul\":29106:29107   */\n      0x00\n        /* \"#utility.yul\":29099:29187   */\n      mstore\n        /* \"#utility.yul\":29206:29210   */\n      0x22\n        /* \"#utility.yul\":29203:29204   */\n      0x04\n        /* \"#utility.yul\":29196:29211   */\n      mstore\n        /* \"#utility.yul\":29230:29234   */\n      0x24\n        /* \"#utility.yul\":29227:29228   */\n      0x00\n        /* \"#utility.yul\":29220:29235   */\n      revert\n        /* \"#utility.yul\":29247:29427   */\n    tag_134:\n        /* \"#utility.yul\":29295:29372   */\n      0x4e487b7100000000000000000000000000000000000000000000000000000000\n        /* \"#utility.yul\":29292:29293   */\n      0x00\n        /* \"#utility.yul\":29285:29373   */\n      mstore\n        /* \"#utility.yul\":29392:29396   */\n      0x32\n        /* \"#utility.yul\":29389:29390   */\n      0x04\n        /* \"#utility.yul\":29382:29397   */\n      mstore\n        /* \"#utility.yul\":29416:29420   */\n      0x24\n        /* \"#utility.yul\":29413:29414   */\n      0x00\n        /* \"#utility.yul\":29406:29421   */\n      revert\n        /* \"#utility.yul\":29433:29613   */\n    tag_714:\n        /* \"#utility.yul\":29481:29558   */\n      0x4e487b7100000000000000000000000000000000000000000000000000000000\n        /* \"#utility.yul\":29478:29479   */\n      0x00\n        /* \"#utility.yul\":29471:29559   */\n      mstore\n        /* \"#utility.yul\":29578:29582   */\n      0x41\n        /* \"#utility.yul\":29575:29576   */\n      0x04\n        /* \"#utility.yul\":29568:29583   */\n      mstore\n        /* \"#utility.yul\":29602:29606   */\n      0x24\n        /* \"#utility.yul\":29599:29600   */\n      0x00\n        /* \"#utility.yul\":29592:29607   */\n      revert\n        /* \"#utility.yul\":29619:29736   */\n    tag_473:\n        /* \"#utility.yul\":29728:29729   */\n      0x00\n        /* \"#utility.yul\":29725:29726   */\n      dup1\n        /* \"#utility.yul\":29718:29730   */\n      revert\n        /* \"#utility.yul\":29742:29859   */\n    tag_467:\n        /* \"#utility.yul\":29851:29852   */\n      0x00\n        /* \"#utility.yul\":29848:29849   */\n      dup1\n        /* \"#utility.yul\":29841:29853   */\n      revert\n        /* \"#utility.yul\":29865:29982   */\n    tag_483:\n        /* \"#utility.yul\":29974:29975   */\n      0x00\n        /* \"#utility.yul\":29971:29972   */\n      dup1\n        /* \"#utility.yul\":29964:29976   */\n      revert\n        /* \"#utility.yul\":29988:30105   */\n    tag_513:\n        /* \"#utility.yul\":30097:30098   */\n      0x00\n        /* \"#utility.yul\":30094:30095   */\n      dup1\n        /* \"#utility.yul\":30087:30099   */\n      revert\n        /* \"#utility.yul\":30111:30228   */\n    tag_506:\n        /* \"#utility.yul\":30220:30221   */\n      0x00\n        /* \"#utility.yul\":30217:30218   */\n      dup1\n        /* \"#utility.yul\":30210:30222   */\n      revert\n        /* \"#utility.yul\":30234:30336   */\n    tag_641:\n        /* \"#utility.yul\":30275:30281   */\n      0x00\n        /* \"#utility.yul\":30326:30328   */\n      0x1f\n        /* \"#utility.yul\":30322:30329   */\n      not\n        /* \"#utility.yul\":30317:30319   */\n      0x1f\n        /* \"#utility.yul\":30310:30315   */\n      dup4\n        /* \"#utility.yul\":30306:30320   */\n      add\n        /* \"#utility.yul\":30302:30330   */\n      and\n        /* \"#utility.yul\":30292:30330   */\n      swap1\n      pop\n        /* \"#utility.yul\":30234:30336   */\n      swap2\n      swap1\n      pop\n      jump\t// out\n        /* \"#utility.yul\":30342:30464   */\n    tag_489:\n        /* \"#utility.yul\":30415:30439   */\n      tag_757\n        /* \"#utility.yul\":30433:30438   */\n      dup2\n        /* \"#utility.yul\":30415:30439   */\n      tag_607\n      jump\t// in\n    tag_757:\n        /* \"#utility.yul\":30408:30413   */\n      dup2\n        /* \"#utility.yul\":30405:30440   */\n      eq\n        /* \"#utility.yul\":30395:30458   */\n      tag_758\n      jumpi\n        /* \"#utility.yul\":30454:30455   */\n      0x00\n        /* \"#utility.yul\":30451:30452   */\n      dup1\n        /* \"#utility.yul\":30444:30456   */\n      revert\n        /* \"#utility.yul\":30395:30458   */\n    tag_758:\n        /* \"#utility.yul\":30342:30464   */\n      pop\n      jump\t// out\n        /* \"#utility.yul\":30470:30592   */\n    tag_502:\n        /* \"#utility.yul\":30543:30567   */\n      tag_760\n        /* \"#utility.yul\":30561:30566   */\n      dup2\n        /* \"#utility.yul\":30543:30567   */\n      tag_679\n      jump\t// in\n    tag_760:\n        /* \"#utility.yul\":30536:30541   */\n      dup2\n        /* \"#utility.yul\":30533:30568   */\n      eq\n        /* \"#utility.yul\":30523:30586   */\n      tag_761\n      jumpi\n        /* \"#utility.yul\":30582:30583   */\n      0x00\n        /* \"#utility.yul\":30579:30580   */\n      dup1\n        /* \"#utility.yul\":30572:30584   */\n      revert\n        /* \"#utility.yul\":30523:30586   */\n    tag_761:\n        /* \"#utility.yul\":30470:30592   */\n      pop\n      jump\t// out\n\n    auxdata: 0xa264697066735822122000e6dd3ad9037c1305b721f066b06d3c4a5a28edede75c78505a70d4c79494cb64736f6c63430008070033\n}\n",
				"bytecode": {
					"linkReferences": {},
					"object": "608060405234801561001057600080fd5b50613d25806100206000396000f3fe608060405234801561001057600080fd5b50600436106101375760003560e01c806372828388116100b8578063c8ae20ff1161007c578063c8ae20ff146102cd578063c9116b69146102e9578063eb40973014610307578063ed2217ef14610338578063f96e32f814610342578063fabce08f1461037657610137565b8063728283881461024e578063958791ae1461026a57806395ea3757146102865780639dd9d0fd14610290578063b240c619146102c357610137565b8063420d8667116100ff578063420d8667146101b857806347282f47146101d65780634ed740671461020a5780636212fa02146102145780636c2cc7741461023257610137565b8063103016381461013c578063119d4cac1461015a5780632a70da2914610164578063322a9849146101805780633d984d0e1461019c575b600080fd5b610144610380565b6040516101519190613a15565b60405180910390f35b6101626103cc565b005b61017e60048036038101906101799190613163565b61041b565b005b61019a600480360381019061019591906130eb565b610556565b005b6101b660048036038101906101b19190613044565b61061c565b005b6101c06107a0565b6040516101cd9190613a15565b60405180910390f35b6101f060048036038101906101eb91906134a6565b6107ec565b6040516102019594939291906138c8565b60405180910390f35b610212610cfe565b005b61021c610d64565b6040516102299190613a15565b60405180910390f35b61024c60048036038101906102479190612fcc565b610db0565b005b6102686004803603810190610263919061326a565b610e66565b005b610284600480360381019061027f9190613371565b6110ce565b005b61028e6113b8565b005b6102aa60048036038101906102a59190612f9f565b61148d565b6040516102ba94939291906139b4565b60405180910390f35b6102cb61205b565b005b6102e760048036038101906102e2919061326a565b6120aa565b005b6102f16121e5565b6040516102fe9190613a15565b60405180910390f35b610321600480360381019061031c91906134a6565b612204565b60405161032f929190613891565b60405180910390f35b6103406123f0565b005b61035c600480360381019061035791906134a6565b61243f565b60405161036d95949392919061393e565b60405180910390f35b61037e61290a565b005b60008060003373ffffffffffffffffffffffffffffffffffffffff1673ffffffffffffffffffffffffffffffffffffffff16815260200190815260200160002060150180549050905090565b6000803373ffffffffffffffffffffffffffffffffffffffff1673ffffffffffffffffffffffffffffffffffffffff16815260200190815260200160002060150160006104199190612ad8565b565b610423612afc565b8581600001819052508481602001819052508381604001819052508281606001819052508181608001819052506000803373ffffffffffffffffffffffffffffffffffffffff1673ffffffffffffffffffffffffffffffffffffffff16815260200190815260200160002060140181908060018154018082558091505060019003906000526020600020906005020160009091909190915060008201518160000190805190602001906104d7929190612b2b565b5060208201518160010190805190602001906104f4929190612b2b565b506040820151816002019080519060200190610511929190612b2b565b50606082015181600301908051906020019061052e929190612b2b565b50608082015181600401908051906020019061054b929190612bb1565b505050505050505050565b61055e612c11565b8281600001819052508181602001819052506000803373ffffffffffffffffffffffffffffffffffffffff1673ffffffffffffffffffffffffffffffffffffffff16815260200190815260200160002060150181908060018154018082558091505060019003906000526020600020906002020160009091909190915060008201518160000190805190602001906105f7929190612b2b565b506020820151816001019080519060200190610614929190612b2b565b505050505050565b6000803373ffffffffffffffffffffffffffffffffffffffff1673ffffffffffffffffffffffffffffffffffffffff168152602001908152602001600020600e016000808201600061066e9190612c2b565b60018201600061067e9190612c2b565b60028201600061068e9190612c2b565b5050826000803373ffffffffffffffffffffffffffffffffffffffff1673ffffffffffffffffffffffffffffffffffffffff168152602001908152602001600020600e0160000190805190602001906106e8929190612bb1565b50816000803373ffffffffffffffffffffffffffffffffffffffff1673ffffffffffffffffffffffffffffffffffffffff168152602001908152602001600020600e016001019080519060200190610741929190612bb1565b50806000803373ffffffffffffffffffffffffffffffffffffffff1673ffffffffffffffffffffffffffffffffffffffff168152602001908152602001600020600e01600201908051906020019061079a929190612bb1565b50505050565b60008060003373ffffffffffffffffffffffffffffffffffffffff1673ffffffffffffffffffffffffffffffffffffffff16815260200190815260200160002060140180549050905090565b60608060608060606000803373ffffffffffffffffffffffffffffffffffffffff1673ffffffffffffffffffffffffffffffffffffffff168152602001908152602001600020601401868154811061084757610846613c39565b5b90600052602060002090600502016000016000803373ffffffffffffffffffffffffffffffffffffffff1673ffffffffffffffffffffffffffffffffffffffff16815260200190815260200160002060140187815481106108ab576108aa613c39565b5b90600052602060002090600502016001016000803373ffffffffffffffffffffffffffffffffffffffff1673ffffffffffffffffffffffffffffffffffffffff168152602001908152602001600020601401888154811061090f5761090e613c39565b5b90600052602060002090600502016002016000803373ffffffffffffffffffffffffffffffffffffffff1673ffffffffffffffffffffffffffffffffffffffff168152602001908152602001600020601401898154811061097357610972613c39565b5b90600052602060002090600502016003016000803373ffffffffffffffffffffffffffffffffffffffff1673ffffffffffffffffffffffffffffffffffffffff1681526020019081526020016000206014018a815481106109d7576109d6613c39565b5b90600052602060002090600502016004018480546109f490613ba7565b80601f0160208091040260200160405190810160405280929190818152602001828054610a2090613ba7565b8015610a6d5780601f10610a4257610100808354040283529160200191610a6d565b820191906000526020600020905b815481529060010190602001808311610a5057829003601f168201915b50505050509450838054610a8090613ba7565b80601f0160208091040260200160405190810160405280929190818152602001828054610aac90613ba7565b8015610af95780601f10610ace57610100808354040283529160200191610af9565b820191906000526020600020905b815481529060010190602001808311610adc57829003601f168201915b50505050509350828054610b0c90613ba7565b80601f0160208091040260200160405190810160405280929190818152602001828054610b3890613ba7565b8015610b855780601f10610b5a57610100808354040283529160200191610b85565b820191906000526020600020905b815481529060010190602001808311610b6857829003601f168201915b50505050509250818054610b9890613ba7565b80601f0160208091040260200160405190810160405280929190818152602001828054610bc490613ba7565b8015610c115780601f10610be657610100808354040283529160200191610c11565b820191906000526020600020905b815481529060010190602001808311610bf457829003601f168201915b5050505050915080805480602002602001604051908101604052809291908181526020016000905b82821015610ce5578382906000526020600020018054610c5890613ba7565b80601f0160208091040260200160405190810160405280929190818152602001828054610c8490613ba7565b8015610cd15780601f10610ca657610100808354040283529160200191610cd1565b820191906000526020600020905b815481529060010190602001808311610cb457829003601f168201915b505050505081526020019060010190610c39565b5050505090509450945094509450945091939590929450565b6000803373ffffffffffffffffffffffffffffffffffffffff1673ffffffffffffffffffffffffffffffffffffffff16815260200190815260200160002060120160008082016000610d509190612c2b565b600182016000610d609190612c2b565b5050565b60008060003373ffffffffffffffffffffffffffffffffffffffff1673ffffffffffffffffffffffffffffffffffffffff16815260200190815260200160002060110180549050905090565b816000803373ffffffffffffffffffffffffffffffffffffffff1673ffffffffffffffffffffffffffffffffffffffff1681526020019081526020016000206012016001019080519060200190610e08929190612bb1565b50806000803373ffffffffffffffffffffffffffffffffffffffff1673ffffffffffffffffffffffffffffffffffffffff1681526020019081526020016000206012016000019080519060200190610e61929190612bb1565b505050565b6000803373ffffffffffffffffffffffffffffffffffffffff1673ffffffffffffffffffffffffffffffffffffffff16815260200190815260200160002060080160008082016000610eb89190612c4c565b600182016000610ec89190612c4c565b600282016000610ed89190612c4c565b600382016000610ee89190612c4c565b600482016000610ef89190612c4c565b600582016000610f089190612c4c565b5050846000803373ffffffffffffffffffffffffffffffffffffffff1673ffffffffffffffffffffffffffffffffffffffff1681526020019081526020016000206008016001019080519060200190610f62929190612b2b565b50836000803373ffffffffffffffffffffffffffffffffffffffff1673ffffffffffffffffffffffffffffffffffffffff1681526020019081526020016000206008016002019080519060200190610fbb929190612b2b565b50826000803373ffffffffffffffffffffffffffffffffffffffff1673ffffffffffffffffffffffffffffffffffffffff1681526020019081526020016000206008016003019080519060200190611014929190612b2b565b50816000803373ffffffffffffffffffffffffffffffffffffffff1673ffffffffffffffffffffffffffffffffffffffff168152602001908152602001600020600801600401908051906020019061106d929190612b2b565b50806000803373ffffffffffffffffffffffffffffffffffffffff1673ffffffffffffffffffffffffffffffffffffffff16815260200190815260200160002060080160050190805190602001906110c6929190612b2b565b505050505050565b856000803373ffffffffffffffffffffffffffffffffffffffff1673ffffffffffffffffffffffffffffffffffffffff1681526020019081526020016000206000016003019080519060200190611126929190612b2b565b50846000803373ffffffffffffffffffffffffffffffffffffffff1673ffffffffffffffffffffffffffffffffffffffff168152602001908152602001600020600001600401908051906020019061117f929190612b2b565b50836000803373ffffffffffffffffffffffffffffffffffffffff1673ffffffffffffffffffffffffffffffffffffffff16815260200190815260200160002060000160050190805190602001906111d8929190612b2b565b50826000803373ffffffffffffffffffffffffffffffffffffffff1673ffffffffffffffffffffffffffffffffffffffff1681526020019081526020016000206000016006019080519060200190611231929190612b2b565b50816000803373ffffffffffffffffffffffffffffffffffffffff1673ffffffffffffffffffffffffffffffffffffffff168152602001908152602001600020600001600001908051906020019061128a929190612b2b565b50806000803373ffffffffffffffffffffffffffffffffffffffff1673ffffffffffffffffffffffffffffffffffffffff16815260200190815260200160002060000160010190805190602001906112e3929190612b2b565b50336000803373ffffffffffffffffffffffffffffffffffffffff1673ffffffffffffffffffffffffffffffffffffffff16815260200190815260200160002060000160020160006101000a81548173ffffffffffffffffffffffffffffffffffffffff021916908373ffffffffffffffffffffffffffffffffffffffff160217905550426000803373ffffffffffffffffffffffffffffffffffffffff1673ffffffffffffffffffffffffffffffffffffffff16815260200190815260200160002060000160070181905550505050505050565b6000803373ffffffffffffffffffffffffffffffffffffffff1673ffffffffffffffffffffffffffffffffffffffff1681526020019081526020016000206000016000808201600061140a9190612c4c565b60018201600061141a9190612c4c565b6002820160006101000a81549073ffffffffffffffffffffffffffffffffffffffff02191690556003820160006114519190612c4c565b6004820160006114619190612c4c565b6005820160006114719190612c4c565b6006820160006114819190612c4c565b60078201600090555050565b600060205280600052604060002060009150905080600001604051806101000160405290816000820180546114c190613ba7565b80601f01602080910402602001604051908101604052809291908181526020018280546114ed90613ba7565b801561153a5780601f1061150f5761010080835404028352916020019161153a565b820191906000526020600020905b81548152906001019060200180831161151d57829003601f168201915b5050505050815260200160018201805461155390613ba7565b80601f016020809104026020016040519081016040528092919081815260200182805461157f90613ba7565b80156115cc5780601f106115a1576101008083540402835291602001916115cc565b820191906000526020600020905b8154815290600101906020018083116115af57829003601f168201915b505050505081526020016002820160009054906101000a900473ffffffffffffffffffffffffffffffffffffffff1673ffffffffffffffffffffffffffffffffffffffff1673ffffffffffffffffffffffffffffffffffffffff16815260200160038201805461163b90613ba7565b80601f016020809104026020016040519081016040528092919081815260200182805461166790613ba7565b80156116b45780601f10611689576101008083540402835291602001916116b4565b820191906000526020600020905b81548152906001019060200180831161169757829003601f168201915b505050505081526020016004820180546116cd90613ba7565b80601f01602080910402602001604051908101604052809291908181526020018280546116f990613ba7565b80156117465780601f1061171b57610100808354040283529160200191611746565b820191906000526020600020905b81548152906001019060200180831161172957829003601f168201915b5050505050815260200160058201805461175f90613ba7565b80601f016020809104026020016040519081016040528092919081815260200182805461178b90613ba7565b80156117d85780601f106117ad576101008083540402835291602001916117d8565b820191906000526020600020905b8154815290600101906020018083116117bb57829003601f168201915b505050505081526020016006820180546117f190613ba7565b80601f016020809104026020016040519081016040528092919081815260200182805461181d90613ba7565b801561186a5780601f1061183f5761010080835404028352916020019161186a565b820191906000526020600020905b81548152906001019060200180831161184d57829003601f168201915b5050505050815260200160078201548152505090806008016040518060c001604052908160008201805461189d90613ba7565b80601f01602080910402602001604051908101604052809291908181526020018280546118c990613ba7565b80156119165780601f106118eb57610100808354040283529160200191611916565b820191906000526020600020905b8154815290600101906020018083116118f957829003601f168201915b5050505050815260200160018201805461192f90613ba7565b80601f016020809104026020016040519081016040528092919081815260200182805461195b90613ba7565b80156119a85780601f1061197d576101008083540402835291602001916119a8565b820191906000526020600020905b81548152906001019060200180831161198b57829003601f168201915b505050505081526020016002820180546119c190613ba7565b80601f01602080910402602001604051908101604052809291908181526020018280546119ed90613ba7565b8015611a3a5780601f10611a0f57610100808354040283529160200191611a3a565b820191906000526020600020905b815481529060010190602001808311611a1d57829003601f168201915b50505050508152602001600382018054611a5390613ba7565b80601f0160208091040260200160405190810160405280929190818152602001828054611a7f90613ba7565b8015611acc5780601f10611aa157610100808354040283529160200191611acc565b820191906000526020600020905b815481529060010190602001808311611aaf57829003601f168201915b50505050508152602001600482018054611ae590613ba7565b80601f0160208091040260200160405190810160405280929190818152602001828054611b1190613ba7565b8015611b5e5780601f10611b3357610100808354040283529160200191611b5e565b820191906000526020600020905b815481529060010190602001808311611b4157829003601f168201915b50505050508152602001600582018054611b7790613ba7565b80601f0160208091040260200160405190810160405280929190818152602001828054611ba390613ba7565b8015611bf05780601f10611bc557610100808354040283529160200191611bf0565b820191906000526020600020905b815481529060010190602001808311611bd357829003601f168201915b5050505050815250509080600e0160405180606001604052908160008201805480602002602001604051908101604052809291908181526020016000905b82821015611cda578382906000526020600020018054611c4d90613ba7565b80601f0160208091040260200160405190810160405280929190818152602001828054611c7990613ba7565b8015611cc65780601f10611c9b57610100808354040283529160200191611cc6565b820191906000526020600020905b815481529060010190602001808311611ca957829003601f168201915b505050505081526020019060010190611c2e565b50505050815260200160018201805480602002602001604051908101604052809291908181526020016000905b82821015611db3578382906000526020600020018054611d2690613ba7565b80601f0160208091040260200160405190810160405280929190818152602001828054611d5290613ba7565b8015611d9f5780601f10611d7457610100808354040283529160200191611d9f565b820191906000526020600020905b815481529060010190602001808311611d8257829003601f168201915b505050505081526020019060010190611d07565b50505050815260200160028201805480602002602001604051908101604052809291908181526020016000905b82821015611e8c578382906000526020600020018054611dff90613ba7565b80601f0160208091040260200160405190810160405280929190818152602001828054611e2b90613ba7565b8015611e785780601f10611e4d57610100808354040283529160200191611e78565b820191906000526020600020905b815481529060010190602001808311611e5b57829003601f168201915b505050505081526020019060010190611de0565b5050505081525050908060120160405180604001604052908160008201805480602002602001604051908101604052809291908181526020016000905b82821015611f75578382906000526020600020018054611ee890613ba7565b80601f0160208091040260200160405190810160405280929190818152602001828054611f1490613ba7565b8015611f615780601f10611f3657610100808354040283529160200191611f61565b820191906000526020600020905b815481529060010190602001808311611f4457829003601f168201915b505050505081526020019060010190611ec9565b50505050815260200160018201805480602002602001604051908101604052809291908181526020016000905b8282101561204e578382906000526020600020018054611fc190613ba7565b80601f0160208091040260200160405190810160405280929190818152602001828054611fed90613ba7565b801561203a5780601f1061200f5761010080835404028352916020019161203a565b820191906000526020600020905b81548152906001019060200180831161201d57829003601f168201915b505050505081526020019060010190611fa2565b5050505081525050905084565b6000803373ffffffffffffffffffffffffffffffffffffffff1673ffffffffffffffffffffffffffffffffffffffff16815260200190815260200160002060140160006120a89190612c8c565b565b6120b2612cb0565b8581600001819052508481602001819052508381604001819052508281606001819052508181608001819052506000803373ffffffffffffffffffffffffffffffffffffffff1673ffffffffffffffffffffffffffffffffffffffff1681526020019081526020016000206011018190806001815401808255809150506001900390600052602060002090600502016000909190919091506000820151816000019080519060200190612166929190612b2b565b506020820151816001019080519060200190612183929190612b2b565b5060408201518160020190805190602001906121a0929190612b2b565b5060608201518160030190805190602001906121bd929190612b2b565b5060808201518160040190805190602001906121da929190612b2b565b505050505050505050565b60003373ffffffffffffffffffffffffffffffffffffffff1631905090565b6060806000803373ffffffffffffffffffffffffffffffffffffffff1673ffffffffffffffffffffffffffffffffffffffff168152602001908152602001600020601501838154811061225a57612259613c39565b5b90600052602060002090600202016000016000803373ffffffffffffffffffffffffffffffffffffffff1673ffffffffffffffffffffffffffffffffffffffff16815260200190815260200160002060150184815481106122be576122bd613c39565b5b90600052602060002090600202016001018180546122db90613ba7565b80601f016020809104026020016040519081016040528092919081815260200182805461230790613ba7565b80156123545780601f1061232957610100808354040283529160200191612354565b820191906000526020600020905b81548152906001019060200180831161233757829003601f168201915b5050505050915080805461236790613ba7565b80601f016020809104026020016040519081016040528092919081815260200182805461239390613ba7565b80156123e05780601f106123b5576101008083540402835291602001916123e0565b820191906000526020600020905b8154815290600101906020018083116123c357829003601f168201915b5050505050905091509150915091565b6000803373ffffffffffffffffffffffffffffffffffffffff1673ffffffffffffffffffffffffffffffffffffffff168152602001908152602001600020601101600061243d9190612cdf565b565b60608060608060606000803373ffffffffffffffffffffffffffffffffffffffff1673ffffffffffffffffffffffffffffffffffffffff168152602001908152602001600020601101868154811061249a57612499613c39565b5b90600052602060002090600502016000016000803373ffffffffffffffffffffffffffffffffffffffff1673ffffffffffffffffffffffffffffffffffffffff16815260200190815260200160002060110187815481106124fe576124fd613c39565b5b90600052602060002090600502016001016000803373ffffffffffffffffffffffffffffffffffffffff1673ffffffffffffffffffffffffffffffffffffffff168152602001908152602001600020601101888154811061256257612561613c39565b5b90600052602060002090600502016002016000803373ffffffffffffffffffffffffffffffffffffffff1673ffffffffffffffffffffffffffffffffffffffff16815260200190815260200160002060110189815481106125c6576125c5613c39565b5b90600052602060002090600502016003016000803373ffffffffffffffffffffffffffffffffffffffff1673ffffffffffffffffffffffffffffffffffffffff1681526020019081526020016000206011018a8154811061262a57612629613c39565b5b906000526020600020906005020160040184805461264790613ba7565b80601f016020809104026020016040519081016040528092919081815260200182805461267390613ba7565b80156126c05780601f10612695576101008083540402835291602001916126c0565b820191906000526020600020905b8154815290600101906020018083116126a357829003601f168201915b505050505094508380546126d390613ba7565b80601f01602080910402602001604051908101604052809291908181526020018280546126ff90613ba7565b801561274c5780601f106127215761010080835404028352916020019161274c565b820191906000526020600020905b81548152906001019060200180831161272f57829003601f168201915b5050505050935082805461275f90613ba7565b80601f016020809104026020016040519081016040528092919081815260200182805461278b90613ba7565b80156127d85780601f106127ad576101008083540402835291602001916127d8565b820191906000526020600020905b8154815290600101906020018083116127bb57829003601f168201915b505050505092508180546127eb90613ba7565b80601f016020809104026020016040519081016040528092919081815260200182805461281790613ba7565b80156128645780601f1061283957610100808354040283529160200191612864565b820191906000526020600020905b81548152906001019060200180831161284757829003601f168201915b5050505050915080805461287790613ba7565b80601f01602080910402602001604051908101604052809291908181526020018280546128a390613ba7565b80156128f05780601f106128c5576101008083540402835291602001916128f0565b820191906000526020600020905b8154815290600101906020018083116128d357829003601f168201915b505050505090509450945094509450945091939590929450565b6000803373ffffffffffffffffffffffffffffffffffffffff1673ffffffffffffffffffffffffffffffffffffffff16815260200190815260200160002060008082016000808201600061295e9190612c4c565b60018201600061296e9190612c4c565b6002820160006101000a81549073ffffffffffffffffffffffffffffffffffffffff02191690556003820160006129a59190612c4c565b6004820160006129b59190612c4c565b6005820160006129c59190612c4c565b6006820160006129d59190612c4c565b6007820160009055505060088201600080820160006129f49190612c4c565b600182016000612a049190612c4c565b600282016000612a149190612c4c565b600382016000612a249190612c4c565b600482016000612a349190612c4c565b600582016000612a449190612c4c565b5050600e820160008082016000612a5b9190612c2b565b600182016000612a6b9190612c2b565b600282016000612a7b9190612c2b565b5050601182016000612a8d9190612cdf565b6012820160008082016000612aa29190612c2b565b600182016000612ab29190612c2b565b5050601482016000612ac49190612c8c565b601582016000612ad49190612ad8565b5050565b5080546000825560020290600052602060002090810190612af99190612d03565b50565b6040518060a0016040528060608152602001606081526020016060815260200160608152602001606081525090565b828054612b3790613ba7565b90600052602060002090601f016020900481019282612b595760008555612ba0565b82601f10612b7257805160ff1916838001178555612ba0565b82800160010185558215612ba0579182015b82811115612b9f578251825591602001919060010190612b84565b5b509050612bad9190612d3a565b5090565b828054828255906000526020600020908101928215612c00579160200282015b82811115612bff578251829080519060200190612bef929190612b2b565b5091602001919060010190612bd1565b5b509050612c0d9190612d57565b5090565b604051806040016040528060608152602001606081525090565b5080546000825590600052602060002090810190612c499190612d57565b50565b508054612c5890613ba7565b6000825580601f10612c6a5750612c89565b601f016020900490600052602060002090810190612c889190612d3a565b5b50565b5080546000825560050290600052602060002090810190612cad9190612d7b565b50565b6040518060a0016040528060608152602001606081526020016060815260200160608152602001606081525090565b5080546000825560050290600052602060002090810190612d009190612de2565b50565b5b80821115612d365760008082016000612d1d9190612c4c565b600182016000612d2d9190612c4c565b50600201612d04565b5090565b5b80821115612d53576000816000905550600101612d3b565b5090565b5b80821115612d775760008181612d6e9190612c4c565b50600101612d58565b5090565b5b80821115612dde5760008082016000612d959190612c4c565b600182016000612da59190612c4c565b600282016000612db59190612c4c565b600382016000612dc59190612c4c565b600482016000612dd59190612c2b565b50600501612d7c565b5090565b5b80821115612e455760008082016000612dfc9190612c4c565b600182016000612e0c9190612c4c565b600282016000612e1c9190612c4c565b600382016000612e2c9190612c4c565b600482016000612e3c9190612c4c565b50600501612de3565b5090565b6000612e5c612e5784613a55565b613a30565b90508083825260208201905082856020860282011115612e7f57612e7e613c9c565b5b60005b85811015612ecd57813567ffffffffffffffff811115612ea557612ea4613c97565b5b808601612eb28982612f5c565b85526020850194506020840193505050600181019050612e82565b5050509392505050565b6000612eea612ee584613a81565b613a30565b905082815260208101848484011115612f0657612f05613ca1565b5b612f11848285613b65565b509392505050565b600081359050612f2881613cc1565b92915050565b600082601f830112612f4357612f42613c97565b5b8135612f53848260208601612e49565b91505092915050565b600082601f830112612f7157612f70613c97565b5b8135612f81848260208601612ed7565b91505092915050565b600081359050612f9981613cd8565b92915050565b600060208284031215612fb557612fb4613cab565b5b6000612fc384828501612f19565b91505092915050565b60008060408385031215612fe357612fe2613cab565b5b600083013567ffffffffffffffff81111561300157613000613ca6565b5b61300d85828601612f2e565b925050602083013567ffffffffffffffff81111561302e5761302d613ca6565b5b61303a85828601612f2e565b9150509250929050565b60008060006060848603121561305d5761305c613cab565b5b600084013567ffffffffffffffff81111561307b5761307a613ca6565b5b61308786828701612f2e565b935050602084013567ffffffffffffffff8111156130a8576130a7613ca6565b5b6130b486828701612f2e565b925050604084013567ffffffffffffffff8111156130d5576130d4613ca6565b5b6130e186828701612f2e565b9150509250925092565b6000806040838503121561310257613101613cab565b5b600083013567ffffffffffffffff8111156131205761311f613ca6565b5b61312c85828601612f5c565b925050602083013567ffffffffffffffff81111561314d5761314c613ca6565b5b61315985828601612f5c565b9150509250929050565b600080600080600060a0868803121561317f5761317e613cab565b5b600086013567ffffffffffffffff81111561319d5761319c613ca6565b5b6131a988828901612f5c565b955050602086013567ffffffffffffffff8111156131ca576131c9613ca6565b5b6131d688828901612f5c565b945050604086013567ffffffffffffffff8111156131f7576131f6613ca6565b5b61320388828901612f5c565b935050606086013567ffffffffffffffff81111561322457613223613ca6565b5b61323088828901612f5c565b925050608086013567ffffffffffffffff81111561325157613250613ca6565b5b61325d88828901612f2e565b9150509295509295909350565b600080600080600060a0868803121561328657613285613cab565b5b600086013567ffffffffffffffff8111156132a4576132a3613ca6565b5b6132b088828901612f5c565b955050602086013567ffffffffffffffff8111156132d1576132d0613ca6565b5b6132dd88828901612f5c565b945050604086013567ffffffffffffffff8111156132fe576132fd613ca6565b5b61330a88828901612f5c565b935050606086013567ffffffffffffffff81111561332b5761332a613ca6565b5b61333788828901612f5c565b925050608086013567ffffffffffffffff81111561335857613357613ca6565b5b61336488828901612f5c565b9150509295509295909350565b60008060008060008060c0878903121561338e5761338d613cab565b5b600087013567ffffffffffffffff8111156133ac576133ab613ca6565b5b6133b889828a01612f5c565b965050602087013567ffffffffffffffff8111156133d9576133d8613ca6565b5b6133e589828a01612f5c565b955050604087013567ffffffffffffffff81111561340657613405613ca6565b5b61341289828a01612f5c565b945050606087013567ffffffffffffffff81111561343357613432613ca6565b5b61343f89828a01612f5c565b935050608087013567ffffffffffffffff8111156134605761345f613ca6565b5b61346c89828a01612f5c565b92505060a087013567ffffffffffffffff81111561348d5761348c613ca6565b5b61349989828a01612f5c565b9150509295509295509295565b6000602082840312156134bc576134bb613cab565b5b60006134ca84828501612f8a565b91505092915050565b60006134df83836135e0565b905092915050565b6134f081613b29565b82525050565b600061350182613ac2565b61350b8185613ae5565b93508360208202850161351d85613ab2565b8060005b85811015613559578484038952815161353a85826134d3565b945061354583613ad8565b925060208a01995050600181019050613521565b50829750879550505050505092915050565b600061357682613ac2565b6135808185613af6565b93508360208202850161359285613ab2565b8060005b858110156135ce57848403895281516135af85826134d3565b94506135ba83613ad8565b925060208a01995050600181019050613596565b50829750879550505050505092915050565b60006135eb82613acd565b6135f58185613b07565b9350613605818560208601613b74565b61360e81613cb0565b840191505092915050565b600061362482613acd565b61362e8185613b18565b935061363e818560208601613b74565b61364781613cb0565b840191505092915050565b6000604083016000830151848203600086015261366f82826134f6565b9150506020830151848203602086015261368982826134f6565b9150508091505092915050565b600060c08301600083015184820360008601526136b382826135e0565b915050602083015184820360208601526136cd82826135e0565b915050604083015184820360408601526136e782826135e0565b9150506060830151848203606086015261370182826135e0565b9150506080830151848203608086015261371b82826135e0565b91505060a083015184820360a086015261373582826135e0565b9150508091505092915050565b600061010083016000830151848203600086015261376082826135e0565b9150506020830151848203602086015261377a82826135e0565b915050604083015161378f60408601826134e7565b50606083015184820360608601526137a782826135e0565b915050608083015184820360808601526137c182826135e0565b91505060a083015184820360a08601526137db82826135e0565b91505060c083015184820360c08601526137f582826135e0565b91505060e083015161380a60e0860182613873565b508091505092915050565b6000606083016000830151848203600086015261383282826134f6565b9150506020830151848203602086015261384c82826134f6565b9150506040830151848203604086015261386682826134f6565b9150508091505092915050565b61387c81613b5b565b82525050565b61388b81613b5b565b82525050565b600060408201905081810360008301526138ab8185613619565b905081810360208301526138bf8184613619565b90509392505050565b600060a08201905081810360008301526138e28188613619565b905081810360208301526138f68187613619565b9050818103604083015261390a8186613619565b9050818103606083015261391e8185613619565b90508181036080830152613932818461356b565b90509695505050505050565b600060a08201905081810360008301526139588188613619565b9050818103602083015261396c8187613619565b905081810360408301526139808186613619565b905081810360608301526139948185613619565b905081810360808301526139a88184613619565b90509695505050505050565b600060808201905081810360008301526139ce8187613742565b905081810360208301526139e28186613696565b905081810360408301526139f68185613815565b90508181036060830152613a0a8184613652565b905095945050505050565b6000602082019050613a2a6000830184613882565b92915050565b6000613a3a613a4b565b9050613a468282613bd9565b919050565b6000604051905090565b600067ffffffffffffffff821115613a7057613a6f613c68565b5b602082029050602081019050919050565b600067ffffffffffffffff821115613a9c57613a9b613c68565b5b613aa582613cb0565b9050602081019050919050565b6000819050602082019050919050565b600081519050919050565b600081519050919050565b6000602082019050919050565b600082825260208201905092915050565b600082825260208201905092915050565b600082825260208201905092915050565b600082825260208201905092915050565b6000613b3482613b3b565b9050919050565b600073ffffffffffffffffffffffffffffffffffffffff82169050919050565b6000819050919050565b82818337600083830152505050565b60005b83811015613b92578082015181840152602081019050613b77565b83811115613ba1576000848401525b50505050565b60006002820490506001821680613bbf57607f821691505b60208210811415613bd357613bd2613c0a565b5b50919050565b613be282613cb0565b810181811067ffffffffffffffff82111715613c0157613c00613c68565b5b80604052505050565b7f4e487b7100000000000000000000000000000000000000000000000000000000600052602260045260246000fd5b7f4e487b7100000000000000000000000000000000000000000000000000000000600052603260045260246000fd5b7f4e487b7100000000000000000000000000000000000000000000000000000000600052604160045260246000fd5b600080fd5b600080fd5b600080fd5b600080fd5b600080fd5b6000601f19601f8301169050919050565b613cca81613b29565b8114613cd557600080fd5b50565b613ce181613b5b565b8114613cec57600080fd5b5056fea264697066735822122000e6dd3ad9037c1305b721f066b06d3c4a5a28edede75c78505a70d4c79494cb64736f6c63430008070033",
					"opcodes": "PUSH1 0x80 PUSH1 0x40 MSTORE CALLVALUE DUP1 ISZERO PUSH2 0x10 JUMPI PUSH1 0x0 DUP1 REVERT JUMPDEST POP PUSH2 0x3D25 DUP1 PUSH2 0x20 PUSH1 0x0 CODECOPY PUSH1 0x0 RETURN INVALID PUSH1 0x80 PUSH1 0x40 MSTORE CALLVALUE DUP1 ISZERO PUSH2 0x10 JUMPI PUSH1 0x0 DUP1 REVERT JUMPDEST POP PUSH1 0x4 CALLDATASIZE LT PUSH2 0x137 JUMPI PUSH1 0x0 CALLDATALOAD PUSH1 0xE0 SHR DUP1 PUSH4 0x72828388 GT PUSH2 0xB8 JUMPI DUP1 PUSH4 0xC8AE20FF GT PUSH2 0x7C JUMPI DUP1 PUSH4 0xC8AE20FF EQ PUSH2 0x2CD JUMPI DUP1 PUSH4 0xC9116B69 EQ PUSH2 0x2E9 JUMPI DUP1 PUSH4 0xEB409730 EQ PUSH2 0x307 JUMPI DUP1 PUSH4 0xED2217EF EQ PUSH2 0x338 JUMPI DUP1 PUSH4 0xF96E32F8 EQ PUSH2 0x342 JUMPI DUP1 PUSH4 0xFABCE08F EQ PUSH2 0x376 JUMPI PUSH2 0x137 JUMP JUMPDEST DUP1 PUSH4 0x72828388 EQ PUSH2 0x24E JUMPI DUP1 PUSH4 0x958791AE EQ PUSH2 0x26A JUMPI DUP1 PUSH4 0x95EA3757 EQ PUSH2 0x286 JUMPI DUP1 PUSH4 0x9DD9D0FD EQ PUSH2 0x290 JUMPI DUP1 PUSH4 0xB240C619 EQ PUSH2 0x2C3 JUMPI PUSH2 0x137 JUMP JUMPDEST DUP1 PUSH4 0x420D8667 GT PUSH2 0xFF JUMPI DUP1 PUSH4 0x420D8667 EQ PUSH2 0x1B8 JUMPI DUP1 PUSH4 0x47282F47 EQ PUSH2 0x1D6 JUMPI DUP1 PUSH4 0x4ED74067 EQ PUSH2 0x20A JUMPI DUP1 PUSH4 0x6212FA02 EQ PUSH2 0x214 JUMPI DUP1 PUSH4 0x6C2CC774 EQ PUSH2 0x232 JUMPI PUSH2 0x137 JUMP JUMPDEST DUP1 PUSH4 0x10301638 EQ PUSH2 0x13C JUMPI DUP1 PUSH4 0x119D4CAC EQ PUSH2 0x15A JUMPI DUP1 PUSH4 0x2A70DA29 EQ PUSH2 0x164 JUMPI DUP1 PUSH4 0x322A9849 EQ PUSH2 0x180 JUMPI DUP1 PUSH4 0x3D984D0E EQ PUSH2 0x19C JUMPI JUMPDEST PUSH1 0x0 DUP1 REVERT JUMPDEST PUSH2 0x144 PUSH2 0x380 JUMP JUMPDEST PUSH1 0x40 MLOAD PUSH2 0x151 SWAP2 SWAP1 PUSH2 0x3A15 JUMP JUMPDEST PUSH1 0x40 MLOAD DUP1 SWAP2 SUB SWAP1 RETURN JUMPDEST PUSH2 0x162 PUSH2 0x3CC JUMP JUMPDEST STOP JUMPDEST PUSH2 0x17E PUSH1 0x4 DUP1 CALLDATASIZE SUB DUP2 ADD SWAP1 PUSH2 0x179 SWAP2 SWAP1 PUSH2 0x3163 JUMP JUMPDEST PUSH2 0x41B JUMP JUMPDEST STOP JUMPDEST PUSH2 0x19A PUSH1 0x4 DUP1 CALLDATASIZE SUB DUP2 ADD SWAP1 PUSH2 0x195 SWAP2 SWAP1 PUSH2 0x30EB JUMP JUMPDEST PUSH2 0x556 JUMP JUMPDEST STOP JUMPDEST PUSH2 0x1B6 PUSH1 0x4 DUP1 CALLDATASIZE SUB DUP2 ADD SWAP1 PUSH2 0x1B1 SWAP2 SWAP1 PUSH2 0x3044 JUMP JUMPDEST PUSH2 0x61C JUMP JUMPDEST STOP JUMPDEST PUSH2 0x1C0 PUSH2 0x7A0 JUMP JUMPDEST PUSH1 0x40 MLOAD PUSH2 0x1CD SWAP2 SWAP1 PUSH2 0x3A15 JUMP JUMPDEST PUSH1 0x40 MLOAD DUP1 SWAP2 SUB SWAP1 RETURN JUMPDEST PUSH2 0x1F0 PUSH1 0x4 DUP1 CALLDATASIZE SUB DUP2 ADD SWAP1 PUSH2 0x1EB SWAP2 SWAP1 PUSH2 0x34A6 JUMP JUMPDEST PUSH2 0x7EC JUMP JUMPDEST PUSH1 0x40 MLOAD PUSH2 0x201 SWAP6 SWAP5 SWAP4 SWAP3 SWAP2 SWAP1 PUSH2 0x38C8 JUMP JUMPDEST PUSH1 0x40 MLOAD DUP1 SWAP2 SUB SWAP1 RETURN JUMPDEST PUSH2 0x212 PUSH2 0xCFE JUMP JUMPDEST STOP JUMPDEST PUSH2 0x21C PUSH2 0xD64 JUMP JUMPDEST PUSH1 0x40 MLOAD PUSH2 0x229 SWAP2 SWAP1 PUSH2 0x3A15 JUMP JUMPDEST PUSH1 0x40 MLOAD DUP1 SWAP2 SUB SWAP1 RETURN JUMPDEST PUSH2 0x24C PUSH1 0x4 DUP1 CALLDATASIZE SUB DUP2 ADD SWAP1 PUSH2 0x247 SWAP2 SWAP1 PUSH2 0x2FCC JUMP JUMPDEST PUSH2 0xDB0 JUMP JUMPDEST STOP JUMPDEST PUSH2 0x268 PUSH1 0x4 DUP1 CALLDATASIZE SUB DUP2 ADD SWAP1 PUSH2 0x263 SWAP2 SWAP1 PUSH2 0x326A JUMP JUMPDEST PUSH2 0xE66 JUMP JUMPDEST STOP JUMPDEST PUSH2 0x284 PUSH1 0x4 DUP1 CALLDATASIZE SUB DUP2 ADD SWAP1 PUSH2 0x27F SWAP2 SWAP1 PUSH2 0x3371 JUMP JUMPDEST PUSH2 0x10CE JUMP JUMPDEST STOP JUMPDEST PUSH2 0x28E PUSH2 0x13B8 JUMP JUMPDEST STOP JUMPDEST PUSH2 0x2AA PUSH1 0x4 DUP1 CALLDATASIZE SUB DUP2 ADD SWAP1 PUSH2 0x2A5 SWAP2 SWAP1 PUSH2 0x2F9F JUMP JUMPDEST PUSH2 0x148D JUMP JUMPDEST PUSH1 0x40 MLOAD PUSH2 0x2BA SWAP5 SWAP4 SWAP3 SWAP2 SWAP1 PUSH2 0x39B4 JUMP JUMPDEST PUSH1 0x40 MLOAD DUP1 SWAP2 SUB SWAP1 RETURN JUMPDEST PUSH2 0x2CB PUSH2 0x205B JUMP JUMPDEST STOP JUMPDEST PUSH2 0x2E7 PUSH1 0x4 DUP1 CALLDATASIZE SUB DUP2 ADD SWAP1 PUSH2 0x2E2 SWAP2 SWAP1 PUSH2 0x326A JUMP JUMPDEST PUSH2 0x20AA JUMP JUMPDEST STOP JUMPDEST PUSH2 0x2F1 PUSH2 0x21E5 JUMP JUMPDEST PUSH1 0x40 MLOAD PUSH2 0x2FE SWAP2 SWAP1 PUSH2 0x3A15 JUMP JUMPDEST PUSH1 0x40 MLOAD DUP1 SWAP2 SUB SWAP1 RETURN JUMPDEST PUSH2 0x321 PUSH1 0x4 DUP1 CALLDATASIZE SUB DUP2 ADD SWAP1 PUSH2 0x31C SWAP2 SWAP1 PUSH2 0x34A6 JUMP JUMPDEST PUSH2 0x2204 JUMP JUMPDEST PUSH1 0x40 MLOAD PUSH2 0x32F SWAP3 SWAP2 SWAP1 PUSH2 0x3891 JUMP JUMPDEST PUSH1 0x40 MLOAD DUP1 SWAP2 SUB SWAP1 RETURN JUMPDEST PUSH2 0x340 PUSH2 0x23F0 JUMP JUMPDEST STOP JUMPDEST PUSH2 0x35C PUSH1 0x4 DUP1 CALLDATASIZE SUB DUP2 ADD SWAP1 PUSH2 0x357 SWAP2 SWAP1 PUSH2 0x34A6 JUMP JUMPDEST PUSH2 0x243F JUMP JUMPDEST PUSH1 0x40 MLOAD PUSH2 0x36D SWAP6 SWAP5 SWAP4 SWAP3 SWAP2 SWAP1 PUSH2 0x393E JUMP JUMPDEST PUSH1 0x40 MLOAD DUP1 SWAP2 SUB SWAP1 RETURN JUMPDEST PUSH2 0x37E PUSH2 0x290A JUMP JUMPDEST STOP JUMPDEST PUSH1 0x0 DUP1 PUSH1 0x0 CALLER PUSH20 0xFFFFFFFFFFFFFFFFFFFFFFFFFFFFFFFFFFFFFFFF AND PUSH20 0xFFFFFFFFFFFFFFFFFFFFFFFFFFFFFFFFFFFFFFFF AND DUP2 MSTORE PUSH1 0x20 ADD SWAP1 DUP2 MSTORE PUSH1 0x20 ADD PUSH1 0x0 KECCAK256 PUSH1 0x15 ADD DUP1 SLOAD SWAP1 POP SWAP1 POP SWAP1 JUMP JUMPDEST PUSH1 0x0 DUP1 CALLER PUSH20 0xFFFFFFFFFFFFFFFFFFFFFFFFFFFFFFFFFFFFFFFF AND PUSH20 0xFFFFFFFFFFFFFFFFFFFFFFFFFFFFFFFFFFFFFFFF AND DUP2 MSTORE PUSH1 0x20 ADD SWAP1 DUP2 MSTORE PUSH1 0x20 ADD PUSH1 0x0 KECCAK256 PUSH1 0x15 ADD PUSH1 0x0 PUSH2 0x419 SWAP2 SWAP1 PUSH2 0x2AD8 JUMP JUMPDEST JUMP JUMPDEST PUSH2 0x423 PUSH2 0x2AFC JUMP JUMPDEST DUP6 DUP2 PUSH1 0x0 ADD DUP2 SWAP1 MSTORE POP DUP5 DUP2 PUSH1 0x20 ADD DUP2 SWAP1 MSTORE POP DUP4 DUP2 PUSH1 0x40 ADD DUP2 SWAP1 MSTORE POP DUP3 DUP2 PUSH1 0x60 ADD DUP2 SWAP1 MSTORE POP DUP2 DUP2 PUSH1 0x80 ADD DUP2 SWAP1 MSTORE POP PUSH1 0x0 DUP1 CALLER PUSH20 0xFFFFFFFFFFFFFFFFFFFFFFFFFFFFFFFFFFFFFFFF AND PUSH20 0xFFFFFFFFFFFFFFFFFFFFFFFFFFFFFFFFFFFFFFFF AND DUP2 MSTORE PUSH1 0x20 ADD SWAP1 DUP2 MSTORE PUSH1 0x20 ADD PUSH1 0x0 KECCAK256 PUSH1 0x14 ADD DUP2 SWAP1 DUP1 PUSH1 0x1 DUP2 SLOAD ADD DUP1 DUP3 SSTORE DUP1 SWAP2 POP POP PUSH1 0x1 SWAP1 SUB SWAP1 PUSH1 0x0 MSTORE PUSH1 0x20 PUSH1 0x0 KECCAK256 SWAP1 PUSH1 0x5 MUL ADD PUSH1 0x0 SWAP1 SWAP2 SWAP1 SWAP2 SWAP1 SWAP2 POP PUSH1 0x0 DUP3 ADD MLOAD DUP2 PUSH1 0x0 ADD SWAP1 DUP1 MLOAD SWAP1 PUSH1 0x20 ADD SWAP1 PUSH2 0x4D7 SWAP3 SWAP2 SWAP1 PUSH2 0x2B2B JUMP JUMPDEST POP PUSH1 0x20 DUP3 ADD MLOAD DUP2 PUSH1 0x1 ADD SWAP1 DUP1 MLOAD SWAP1 PUSH1 0x20 ADD SWAP1 PUSH2 0x4F4 SWAP3 SWAP2 SWAP1 PUSH2 0x2B2B JUMP JUMPDEST POP PUSH1 0x40 DUP3 ADD MLOAD DUP2 PUSH1 0x2 ADD SWAP1 DUP1 MLOAD SWAP1 PUSH1 0x20 ADD SWAP1 PUSH2 0x511 SWAP3 SWAP2 SWAP1 PUSH2 0x2B2B JUMP JUMPDEST POP PUSH1 0x60 DUP3 ADD MLOAD DUP2 PUSH1 0x3 ADD SWAP1 DUP1 MLOAD SWAP1 PUSH1 0x20 ADD SWAP1 PUSH2 0x52E SWAP3 SWAP2 SWAP1 PUSH2 0x2B2B JUMP JUMPDEST POP PUSH1 0x80 DUP3 ADD MLOAD DUP2 PUSH1 0x4 ADD SWAP1 DUP1 MLOAD SWAP1 PUSH1 0x20 ADD SWAP1 PUSH2 0x54B SWAP3 SWAP2 SWAP1 PUSH2 0x2BB1 JUMP JUMPDEST POP POP POP POP POP POP POP POP POP JUMP JUMPDEST PUSH2 0x55E PUSH2 0x2C11 JUMP JUMPDEST DUP3 DUP2 PUSH1 0x0 ADD DUP2 SWAP1 MSTORE POP DUP2 DUP2 PUSH1 0x20 ADD DUP2 SWAP1 MSTORE POP PUSH1 0x0 DUP1 CALLER PUSH20 0xFFFFFFFFFFFFFFFFFFFFFFFFFFFFFFFFFFFFFFFF AND PUSH20 0xFFFFFFFFFFFFFFFFFFFFFFFFFFFFFFFFFFFFFFFF AND DUP2 MSTORE PUSH1 0x20 ADD SWAP1 DUP2 MSTORE PUSH1 0x20 ADD PUSH1 0x0 KECCAK256 PUSH1 0x15 ADD DUP2 SWAP1 DUP1 PUSH1 0x1 DUP2 SLOAD ADD DUP1 DUP3 SSTORE DUP1 SWAP2 POP POP PUSH1 0x1 SWAP1 SUB SWAP1 PUSH1 0x0 MSTORE PUSH1 0x20 PUSH1 0x0 KECCAK256 SWAP1 PUSH1 0x2 MUL ADD PUSH1 0x0 SWAP1 SWAP2 SWAP1 SWAP2 SWAP1 SWAP2 POP PUSH1 0x0 DUP3 ADD MLOAD DUP2 PUSH1 0x0 ADD SWAP1 DUP1 MLOAD SWAP1 PUSH1 0x20 ADD SWAP1 PUSH2 0x5F7 SWAP3 SWAP2 SWAP1 PUSH2 0x2B2B JUMP JUMPDEST POP PUSH1 0x20 DUP3 ADD MLOAD DUP2 PUSH1 0x1 ADD SWAP1 DUP1 MLOAD SWAP1 PUSH1 0x20 ADD SWAP1 PUSH2 0x614 SWAP3 SWAP2 SWAP1 PUSH2 0x2B2B JUMP JUMPDEST POP POP POP POP POP POP JUMP JUMPDEST PUSH1 0x0 DUP1 CALLER PUSH20 0xFFFFFFFFFFFFFFFFFFFFFFFFFFFFFFFFFFFFFFFF AND PUSH20 0xFFFFFFFFFFFFFFFFFFFFFFFFFFFFFFFFFFFFFFFF AND DUP2 MSTORE PUSH1 0x20 ADD SWAP1 DUP2 MSTORE PUSH1 0x20 ADD PUSH1 0x0 KECCAK256 PUSH1 0xE ADD PUSH1 0x0 DUP1 DUP3 ADD PUSH1 0x0 PUSH2 0x66E SWAP2 SWAP1 PUSH2 0x2C2B JUMP JUMPDEST PUSH1 0x1 DUP3 ADD PUSH1 0x0 PUSH2 0x67E SWAP2 SWAP1 PUSH2 0x2C2B JUMP JUMPDEST PUSH1 0x2 DUP3 ADD PUSH1 0x0 PUSH2 0x68E SWAP2 SWAP1 PUSH2 0x2C2B JUMP JUMPDEST POP POP DUP3 PUSH1 0x0 DUP1 CALLER PUSH20 0xFFFFFFFFFFFFFFFFFFFFFFFFFFFFFFFFFFFFFFFF AND PUSH20 0xFFFFFFFFFFFFFFFFFFFFFFFFFFFFFFFFFFFFFFFF AND DUP2 MSTORE PUSH1 0x20 ADD SWAP1 DUP2 MSTORE PUSH1 0x20 ADD PUSH1 0x0 KECCAK256 PUSH1 0xE ADD PUSH1 0x0 ADD SWAP1 DUP1 MLOAD SWAP1 PUSH1 0x20 ADD SWAP1 PUSH2 0x6E8 SWAP3 SWAP2 SWAP1 PUSH2 0x2BB1 JUMP JUMPDEST POP DUP2 PUSH1 0x0 DUP1 CALLER PUSH20 0xFFFFFFFFFFFFFFFFFFFFFFFFFFFFFFFFFFFFFFFF AND PUSH20 0xFFFFFFFFFFFFFFFFFFFFFFFFFFFFFFFFFFFFFFFF AND DUP2 MSTORE PUSH1 0x20 ADD SWAP1 DUP2 MSTORE PUSH1 0x20 ADD PUSH1 0x0 KECCAK256 PUSH1 0xE ADD PUSH1 0x1 ADD SWAP1 DUP1 MLOAD SWAP1 PUSH1 0x20 ADD SWAP1 PUSH2 0x741 SWAP3 SWAP2 SWAP1 PUSH2 0x2BB1 JUMP JUMPDEST POP DUP1 PUSH1 0x0 DUP1 CALLER PUSH20 0xFFFFFFFFFFFFFFFFFFFFFFFFFFFFFFFFFFFFFFFF AND PUSH20 0xFFFFFFFFFFFFFFFFFFFFFFFFFFFFFFFFFFFFFFFF AND DUP2 MSTORE PUSH1 0x20 ADD SWAP1 DUP2 MSTORE PUSH1 0x20 ADD PUSH1 0x0 KECCAK256 PUSH1 0xE ADD PUSH1 0x2 ADD SWAP1 DUP1 MLOAD SWAP1 PUSH1 0x20 ADD SWAP1 PUSH2 0x79A SWAP3 SWAP2 SWAP1 PUSH2 0x2BB1 JUMP JUMPDEST POP POP POP POP JUMP JUMPDEST PUSH1 0x0 DUP1 PUSH1 0x0 CALLER PUSH20 0xFFFFFFFFFFFFFFFFFFFFFFFFFFFFFFFFFFFFFFFF AND PUSH20 0xFFFFFFFFFFFFFFFFFFFFFFFFFFFFFFFFFFFFFFFF AND DUP2 MSTORE PUSH1 0x20 ADD SWAP1 DUP2 MSTORE PUSH1 0x20 ADD PUSH1 0x0 KECCAK256 PUSH1 0x14 ADD DUP1 SLOAD SWAP1 POP SWAP1 POP SWAP1 JUMP JUMPDEST PUSH1 0x60 DUP1 PUSH1 0x60 DUP1 PUSH1 0x60 PUSH1 0x0 DUP1 CALLER PUSH20 0xFFFFFFFFFFFFFFFFFFFFFFFFFFFFFFFFFFFFFFFF AND PUSH20 0xFFFFFFFFFFFFFFFFFFFFFFFFFFFFFFFFFFFFFFFF AND DUP2 MSTORE PUSH1 0x20 ADD SWAP1 DUP2 MSTORE PUSH1 0x20 ADD PUSH1 0x0 KECCAK256 PUSH1 0x14 ADD DUP7 DUP2 SLOAD DUP2 LT PUSH2 0x847 JUMPI PUSH2 0x846 PUSH2 0x3C39 JUMP JUMPDEST JUMPDEST SWAP1 PUSH1 0x0 MSTORE PUSH1 0x20 PUSH1 0x0 KECCAK256 SWAP1 PUSH1 0x5 MUL ADD PUSH1 0x0 ADD PUSH1 0x0 DUP1 CALLER PUSH20 0xFFFFFFFFFFFFFFFFFFFFFFFFFFFFFFFFFFFFFFFF AND PUSH20 0xFFFFFFFFFFFFFFFFFFFFFFFFFFFFFFFFFFFFFFFF AND DUP2 MSTORE PUSH1 0x20 ADD SWAP1 DUP2 MSTORE PUSH1 0x20 ADD PUSH1 0x0 KECCAK256 PUSH1 0x14 ADD DUP8 DUP2 SLOAD DUP2 LT PUSH2 0x8AB JUMPI PUSH2 0x8AA PUSH2 0x3C39 JUMP JUMPDEST JUMPDEST SWAP1 PUSH1 0x0 MSTORE PUSH1 0x20 PUSH1 0x0 KECCAK256 SWAP1 PUSH1 0x5 MUL ADD PUSH1 0x1 ADD PUSH1 0x0 DUP1 CALLER PUSH20 0xFFFFFFFFFFFFFFFFFFFFFFFFFFFFFFFFFFFFFFFF AND PUSH20 0xFFFFFFFFFFFFFFFFFFFFFFFFFFFFFFFFFFFFFFFF AND DUP2 MSTORE PUSH1 0x20 ADD SWAP1 DUP2 MSTORE PUSH1 0x20 ADD PUSH1 0x0 KECCAK256 PUSH1 0x14 ADD DUP9 DUP2 SLOAD DUP2 LT PUSH2 0x90F JUMPI PUSH2 0x90E PUSH2 0x3C39 JUMP JUMPDEST JUMPDEST SWAP1 PUSH1 0x0 MSTORE PUSH1 0x20 PUSH1 0x0 KECCAK256 SWAP1 PUSH1 0x5 MUL ADD PUSH1 0x2 ADD PUSH1 0x0 DUP1 CALLER PUSH20 0xFFFFFFFFFFFFFFFFFFFFFFFFFFFFFFFFFFFFFFFF AND PUSH20 0xFFFFFFFFFFFFFFFFFFFFFFFFFFFFFFFFFFFFFFFF AND DUP2 MSTORE PUSH1 0x20 ADD SWAP1 DUP2 MSTORE PUSH1 0x20 ADD PUSH1 0x0 KECCAK256 PUSH1 0x14 ADD DUP10 DUP2 SLOAD DUP2 LT PUSH2 0x973 JUMPI PUSH2 0x972 PUSH2 0x3C39 JUMP JUMPDEST JUMPDEST SWAP1 PUSH1 0x0 MSTORE PUSH1 0x20 PUSH1 0x0 KECCAK256 SWAP1 PUSH1 0x5 MUL ADD PUSH1 0x3 ADD PUSH1 0x0 DUP1 CALLER PUSH20 0xFFFFFFFFFFFFFFFFFFFFFFFFFFFFFFFFFFFFFFFF AND PUSH20 0xFFFFFFFFFFFFFFFFFFFFFFFFFFFFFFFFFFFFFFFF AND DUP2 MSTORE PUSH1 0x20 ADD SWAP1 DUP2 MSTORE PUSH1 0x20 ADD PUSH1 0x0 KECCAK256 PUSH1 0x14 ADD DUP11 DUP2 SLOAD DUP2 LT PUSH2 0x9D7 JUMPI PUSH2 0x9D6 PUSH2 0x3C39 JUMP JUMPDEST JUMPDEST SWAP1 PUSH1 0x0 MSTORE PUSH1 0x20 PUSH1 0x0 KECCAK256 SWAP1 PUSH1 0x5 MUL ADD PUSH1 0x4 ADD DUP5 DUP1 SLOAD PUSH2 0x9F4 SWAP1 PUSH2 0x3BA7 JUMP JUMPDEST DUP1 PUSH1 0x1F ADD PUSH1 0x20 DUP1 SWAP2 DIV MUL PUSH1 0x20 ADD PUSH1 0x40 MLOAD SWAP1 DUP2 ADD PUSH1 0x40 MSTORE DUP1 SWAP3 SWAP2 SWAP1 DUP2 DUP2 MSTORE PUSH1 0x20 ADD DUP3 DUP1 SLOAD PUSH2 0xA20 SWAP1 PUSH2 0x3BA7 JUMP JUMPDEST DUP1 ISZERO PUSH2 0xA6D JUMPI DUP1 PUSH1 0x1F LT PUSH2 0xA42 JUMPI PUSH2 0x100 DUP1 DUP4 SLOAD DIV MUL DUP4 MSTORE SWAP2 PUSH1 0x20 ADD SWAP2 PUSH2 0xA6D JUMP JUMPDEST DUP3 ADD SWAP2 SWAP1 PUSH1 0x0 MSTORE PUSH1 0x20 PUSH1 0x0 KECCAK256 SWAP1 JUMPDEST DUP2 SLOAD DUP2 MSTORE SWAP1 PUSH1 0x1 ADD SWAP1 PUSH1 0x20 ADD DUP1 DUP4 GT PUSH2 0xA50 JUMPI DUP3 SWAP1 SUB PUSH1 0x1F AND DUP3 ADD SWAP2 JUMPDEST POP POP POP POP POP SWAP5 POP DUP4 DUP1 SLOAD PUSH2 0xA80 SWAP1 PUSH2 0x3BA7 JUMP JUMPDEST DUP1 PUSH1 0x1F ADD PUSH1 0x20 DUP1 SWAP2 DIV MUL PUSH1 0x20 ADD PUSH1 0x40 MLOAD SWAP1 DUP2 ADD PUSH1 0x40 MSTORE DUP1 SWAP3 SWAP2 SWAP1 DUP2 DUP2 MSTORE PUSH1 0x20 ADD DUP3 DUP1 SLOAD PUSH2 0xAAC SWAP1 PUSH2 0x3BA7 JUMP JUMPDEST DUP1 ISZERO PUSH2 0xAF9 JUMPI DUP1 PUSH1 0x1F LT PUSH2 0xACE JUMPI PUSH2 0x100 DUP1 DUP4 SLOAD DIV MUL DUP4 MSTORE SWAP2 PUSH1 0x20 ADD SWAP2 PUSH2 0xAF9 JUMP JUMPDEST DUP3 ADD SWAP2 SWAP1 PUSH1 0x0 MSTORE PUSH1 0x20 PUSH1 0x0 KECCAK256 SWAP1 JUMPDEST DUP2 SLOAD DUP2 MSTORE SWAP1 PUSH1 0x1 ADD SWAP1 PUSH1 0x20 ADD DUP1 DUP4 GT PUSH2 0xADC JUMPI DUP3 SWAP1 SUB PUSH1 0x1F AND DUP3 ADD SWAP2 JUMPDEST POP POP POP POP POP SWAP4 POP DUP3 DUP1 SLOAD PUSH2 0xB0C SWAP1 PUSH2 0x3BA7 JUMP JUMPDEST DUP1 PUSH1 0x1F ADD PUSH1 0x20 DUP1 SWAP2 DIV MUL PUSH1 0x20 ADD PUSH1 0x40 MLOAD SWAP1 DUP2 ADD PUSH1 0x40 MSTORE DUP1 SWAP3 SWAP2 SWAP1 DUP2 DUP2 MSTORE PUSH1 0x20 ADD DUP3 DUP1 SLOAD PUSH2 0xB38 SWAP1 PUSH2 0x3BA7 JUMP JUMPDEST DUP1 ISZERO PUSH2 0xB85 JUMPI DUP1 PUSH1 0x1F LT PUSH2 0xB5A JUMPI PUSH2 0x100 DUP1 DUP4 SLOAD DIV MUL DUP4 MSTORE SWAP2 PUSH1 0x20 ADD SWAP2 PUSH2 0xB85 JUMP JUMPDEST DUP3 ADD SWAP2 SWAP1 PUSH1 0x0 MSTORE PUSH1 0x20 PUSH1 0x0 KECCAK256 SWAP1 JUMPDEST DUP2 SLOAD DUP2 MSTORE SWAP1 PUSH1 0x1 ADD SWAP1 PUSH1 0x20 ADD DUP1 DUP4 GT PUSH2 0xB68 JUMPI DUP3 SWAP1 SUB PUSH1 0x1F AND DUP3 ADD SWAP2 JUMPDEST POP POP POP POP POP SWAP3 POP DUP2 DUP1 SLOAD PUSH2 0xB98 SWAP1 PUSH2 0x3BA7 JUMP JUMPDEST DUP1 PUSH1 0x1F ADD PUSH1 0x20 DUP1 SWAP2 DIV MUL PUSH1 0x20 ADD PUSH1 0x40 MLOAD SWAP1 DUP2 ADD PUSH1 0x40 MSTORE DUP1 SWAP3 SWAP2 SWAP1 DUP2 DUP2 MSTORE PUSH1 0x20 ADD DUP3 DUP1 SLOAD PUSH2 0xBC4 SWAP1 PUSH2 0x3BA7 JUMP JUMPDEST DUP1 ISZERO PUSH2 0xC11 JUMPI DUP1 PUSH1 0x1F LT PUSH2 0xBE6 JUMPI PUSH2 0x100 DUP1 DUP4 SLOAD DIV MUL DUP4 MSTORE SWAP2 PUSH1 0x20 ADD SWAP2 PUSH2 0xC11 JUMP JUMPDEST DUP3 ADD SWAP2 SWAP1 PUSH1 0x0 MSTORE PUSH1 0x20 PUSH1 0x0 KECCAK256 SWAP1 JUMPDEST DUP2 SLOAD DUP2 MSTORE SWAP1 PUSH1 0x1 ADD SWAP1 PUSH1 0x20 ADD DUP1 DUP4 GT PUSH2 0xBF4 JUMPI DUP3 SWAP1 SUB PUSH1 0x1F AND DUP3 ADD SWAP2 JUMPDEST POP POP POP POP POP SWAP2 POP DUP1 DUP1 SLOAD DUP1 PUSH1 0x20 MUL PUSH1 0x20 ADD PUSH1 0x40 MLOAD SWAP1 DUP2 ADD PUSH1 0x40 MSTORE DUP1 SWAP3 SWAP2 SWAP1 DUP2 DUP2 MSTORE PUSH1 0x20 ADD PUSH1 0x0 SWAP1 JUMPDEST DUP3 DUP3 LT ISZERO PUSH2 0xCE5 JUMPI DUP4 DUP3 SWAP1 PUSH1 0x0 MSTORE PUSH1 0x20 PUSH1 0x0 KECCAK256 ADD DUP1 SLOAD PUSH2 0xC58 SWAP1 PUSH2 0x3BA7 JUMP JUMPDEST DUP1 PUSH1 0x1F ADD PUSH1 0x20 DUP1 SWAP2 DIV MUL PUSH1 0x20 ADD PUSH1 0x40 MLOAD SWAP1 DUP2 ADD PUSH1 0x40 MSTORE DUP1 SWAP3 SWAP2 SWAP1 DUP2 DUP2 MSTORE PUSH1 0x20 ADD DUP3 DUP1 SLOAD PUSH2 0xC84 SWAP1 PUSH2 0x3BA7 JUMP JUMPDEST DUP1 ISZERO PUSH2 0xCD1 JUMPI DUP1 PUSH1 0x1F LT PUSH2 0xCA6 JUMPI PUSH2 0x100 DUP1 DUP4 SLOAD DIV MUL DUP4 MSTORE SWAP2 PUSH1 0x20 ADD SWAP2 PUSH2 0xCD1 JUMP JUMPDEST DUP3 ADD SWAP2 SWAP1 PUSH1 0x0 MSTORE PUSH1 0x20 PUSH1 0x0 KECCAK256 SWAP1 JUMPDEST DUP2 SLOAD DUP2 MSTORE SWAP1 PUSH1 0x1 ADD SWAP1 PUSH1 0x20 ADD DUP1 DUP4 GT PUSH2 0xCB4 JUMPI DUP3 SWAP1 SUB PUSH1 0x1F AND DUP3 ADD SWAP2 JUMPDEST POP POP POP POP POP DUP2 MSTORE PUSH1 0x20 ADD SWAP1 PUSH1 0x1 ADD SWAP1 PUSH2 0xC39 JUMP JUMPDEST POP POP POP POP SWAP1 POP SWAP5 POP SWAP5 POP SWAP5 POP SWAP5 POP SWAP5 POP SWAP2 SWAP4 SWAP6 SWAP1 SWAP3 SWAP5 POP JUMP JUMPDEST PUSH1 0x0 DUP1 CALLER PUSH20 0xFFFFFFFFFFFFFFFFFFFFFFFFFFFFFFFFFFFFFFFF AND PUSH20 0xFFFFFFFFFFFFFFFFFFFFFFFFFFFFFFFFFFFFFFFF AND DUP2 MSTORE PUSH1 0x20 ADD SWAP1 DUP2 MSTORE PUSH1 0x20 ADD PUSH1 0x0 KECCAK256 PUSH1 0x12 ADD PUSH1 0x0 DUP1 DUP3 ADD PUSH1 0x0 PUSH2 0xD50 SWAP2 SWAP1 PUSH2 0x2C2B JUMP JUMPDEST PUSH1 0x1 DUP3 ADD PUSH1 0x0 PUSH2 0xD60 SWAP2 SWAP1 PUSH2 0x2C2B JUMP JUMPDEST POP POP JUMP JUMPDEST PUSH1 0x0 DUP1 PUSH1 0x0 CALLER PUSH20 0xFFFFFFFFFFFFFFFFFFFFFFFFFFFFFFFFFFFFFFFF AND PUSH20 0xFFFFFFFFFFFFFFFFFFFFFFFFFFFFFFFFFFFFFFFF AND DUP2 MSTORE PUSH1 0x20 ADD SWAP1 DUP2 MSTORE PUSH1 0x20 ADD PUSH1 0x0 KECCAK256 PUSH1 0x11 ADD DUP1 SLOAD SWAP1 POP SWAP1 POP SWAP1 JUMP JUMPDEST DUP2 PUSH1 0x0 DUP1 CALLER PUSH20 0xFFFFFFFFFFFFFFFFFFFFFFFFFFFFFFFFFFFFFFFF AND PUSH20 0xFFFFFFFFFFFFFFFFFFFFFFFFFFFFFFFFFFFFFFFF AND DUP2 MSTORE PUSH1 0x20 ADD SWAP1 DUP2 MSTORE PUSH1 0x20 ADD PUSH1 0x0 KECCAK256 PUSH1 0x12 ADD PUSH1 0x1 ADD SWAP1 DUP1 MLOAD SWAP1 PUSH1 0x20 ADD SWAP1 PUSH2 0xE08 SWAP3 SWAP2 SWAP1 PUSH2 0x2BB1 JUMP JUMPDEST POP DUP1 PUSH1 0x0 DUP1 CALLER PUSH20 0xFFFFFFFFFFFFFFFFFFFFFFFFFFFFFFFFFFFFFFFF AND PUSH20 0xFFFFFFFFFFFFFFFFFFFFFFFFFFFFFFFFFFFFFFFF AND DUP2 MSTORE PUSH1 0x20 ADD SWAP1 DUP2 MSTORE PUSH1 0x20 ADD PUSH1 0x0 KECCAK256 PUSH1 0x12 ADD PUSH1 0x0 ADD SWAP1 DUP1 MLOAD SWAP1 PUSH1 0x20 ADD SWAP1 PUSH2 0xE61 SWAP3 SWAP2 SWAP1 PUSH2 0x2BB1 JUMP JUMPDEST POP POP POP JUMP JUMPDEST PUSH1 0x0 DUP1 CALLER PUSH20 0xFFFFFFFFFFFFFFFFFFFFFFFFFFFFFFFFFFFFFFFF AND PUSH20 0xFFFFFFFFFFFFFFFFFFFFFFFFFFFFFFFFFFFFFFFF AND DUP2 MSTORE PUSH1 0x20 ADD SWAP1 DUP2 MSTORE PUSH1 0x20 ADD PUSH1 0x0 KECCAK256 PUSH1 0x8 ADD PUSH1 0x0 DUP1 DUP3 ADD PUSH1 0x0 PUSH2 0xEB8 SWAP2 SWAP1 PUSH2 0x2C4C JUMP JUMPDEST PUSH1 0x1 DUP3 ADD PUSH1 0x0 PUSH2 0xEC8 SWAP2 SWAP1 PUSH2 0x2C4C JUMP JUMPDEST PUSH1 0x2 DUP3 ADD PUSH1 0x0 PUSH2 0xED8 SWAP2 SWAP1 PUSH2 0x2C4C JUMP JUMPDEST PUSH1 0x3 DUP3 ADD PUSH1 0x0 PUSH2 0xEE8 SWAP2 SWAP1 PUSH2 0x2C4C JUMP JUMPDEST PUSH1 0x4 DUP3 ADD PUSH1 0x0 PUSH2 0xEF8 SWAP2 SWAP1 PUSH2 0x2C4C JUMP JUMPDEST PUSH1 0x5 DUP3 ADD PUSH1 0x0 PUSH2 0xF08 SWAP2 SWAP1 PUSH2 0x2C4C JUMP JUMPDEST POP POP DUP5 PUSH1 0x0 DUP1 CALLER PUSH20 0xFFFFFFFFFFFFFFFFFFFFFFFFFFFFFFFFFFFFFFFF AND PUSH20 0xFFFFFFFFFFFFFFFFFFFFFFFFFFFFFFFFFFFFFFFF AND DUP2 MSTORE PUSH1 0x20 ADD SWAP1 DUP2 MSTORE PUSH1 0x20 ADD PUSH1 0x0 KECCAK256 PUSH1 0x8 ADD PUSH1 0x1 ADD SWAP1 DUP1 MLOAD SWAP1 PUSH1 0x20 ADD SWAP1 PUSH2 0xF62 SWAP3 SWAP2 SWAP1 PUSH2 0x2B2B JUMP JUMPDEST POP DUP4 PUSH1 0x0 DUP1 CALLER PUSH20 0xFFFFFFFFFFFFFFFFFFFFFFFFFFFFFFFFFFFFFFFF AND PUSH20 0xFFFFFFFFFFFFFFFFFFFFFFFFFFFFFFFFFFFFFFFF AND DUP2 MSTORE PUSH1 0x20 ADD SWAP1 DUP2 MSTORE PUSH1 0x20 ADD PUSH1 0x0 KECCAK256 PUSH1 0x8 ADD PUSH1 0x2 ADD SWAP1 DUP1 MLOAD SWAP1 PUSH1 0x20 ADD SWAP1 PUSH2 0xFBB SWAP3 SWAP2 SWAP1 PUSH2 0x2B2B JUMP JUMPDEST POP DUP3 PUSH1 0x0 DUP1 CALLER PUSH20 0xFFFFFFFFFFFFFFFFFFFFFFFFFFFFFFFFFFFFFFFF AND PUSH20 0xFFFFFFFFFFFFFFFFFFFFFFFFFFFFFFFFFFFFFFFF AND DUP2 MSTORE PUSH1 0x20 ADD SWAP1 DUP2 MSTORE PUSH1 0x20 ADD PUSH1 0x0 KECCAK256 PUSH1 0x8 ADD PUSH1 0x3 ADD SWAP1 DUP1 MLOAD SWAP1 PUSH1 0x20 ADD SWAP1 PUSH2 0x1014 SWAP3 SWAP2 SWAP1 PUSH2 0x2B2B JUMP JUMPDEST POP DUP2 PUSH1 0x0 DUP1 CALLER PUSH20 0xFFFFFFFFFFFFFFFFFFFFFFFFFFFFFFFFFFFFFFFF AND PUSH20 0xFFFFFFFFFFFFFFFFFFFFFFFFFFFFFFFFFFFFFFFF AND DUP2 MSTORE PUSH1 0x20 ADD SWAP1 DUP2 MSTORE PUSH1 0x20 ADD PUSH1 0x0 KECCAK256 PUSH1 0x8 ADD PUSH1 0x4 ADD SWAP1 DUP1 MLOAD SWAP1 PUSH1 0x20 ADD SWAP1 PUSH2 0x106D SWAP3 SWAP2 SWAP1 PUSH2 0x2B2B JUMP JUMPDEST POP DUP1 PUSH1 0x0 DUP1 CALLER PUSH20 0xFFFFFFFFFFFFFFFFFFFFFFFFFFFFFFFFFFFFFFFF AND PUSH20 0xFFFFFFFFFFFFFFFFFFFFFFFFFFFFFFFFFFFFFFFF AND DUP2 MSTORE PUSH1 0x20 ADD SWAP1 DUP2 MSTORE PUSH1 0x20 ADD PUSH1 0x0 KECCAK256 PUSH1 0x8 ADD PUSH1 0x5 ADD SWAP1 DUP1 MLOAD SWAP1 PUSH1 0x20 ADD SWAP1 PUSH2 0x10C6 SWAP3 SWAP2 SWAP1 PUSH2 0x2B2B JUMP JUMPDEST POP POP POP POP POP POP JUMP JUMPDEST DUP6 PUSH1 0x0 DUP1 CALLER PUSH20 0xFFFFFFFFFFFFFFFFFFFFFFFFFFFFFFFFFFFFFFFF AND PUSH20 0xFFFFFFFFFFFFFFFFFFFFFFFFFFFFFFFFFFFFFFFF AND DUP2 MSTORE PUSH1 0x20 ADD SWAP1 DUP2 MSTORE PUSH1 0x20 ADD PUSH1 0x0 KECCAK256 PUSH1 0x0 ADD PUSH1 0x3 ADD SWAP1 DUP1 MLOAD SWAP1 PUSH1 0x20 ADD SWAP1 PUSH2 0x1126 SWAP3 SWAP2 SWAP1 PUSH2 0x2B2B JUMP JUMPDEST POP DUP5 PUSH1 0x0 DUP1 CALLER PUSH20 0xFFFFFFFFFFFFFFFFFFFFFFFFFFFFFFFFFFFFFFFF AND PUSH20 0xFFFFFFFFFFFFFFFFFFFFFFFFFFFFFFFFFFFFFFFF AND DUP2 MSTORE PUSH1 0x20 ADD SWAP1 DUP2 MSTORE PUSH1 0x20 ADD PUSH1 0x0 KECCAK256 PUSH1 0x0 ADD PUSH1 0x4 ADD SWAP1 DUP1 MLOAD SWAP1 PUSH1 0x20 ADD SWAP1 PUSH2 0x117F SWAP3 SWAP2 SWAP1 PUSH2 0x2B2B JUMP JUMPDEST POP DUP4 PUSH1 0x0 DUP1 CALLER PUSH20 0xFFFFFFFFFFFFFFFFFFFFFFFFFFFFFFFFFFFFFFFF AND PUSH20 0xFFFFFFFFFFFFFFFFFFFFFFFFFFFFFFFFFFFFFFFF AND DUP2 MSTORE PUSH1 0x20 ADD SWAP1 DUP2 MSTORE PUSH1 0x20 ADD PUSH1 0x0 KECCAK256 PUSH1 0x0 ADD PUSH1 0x5 ADD SWAP1 DUP1 MLOAD SWAP1 PUSH1 0x20 ADD SWAP1 PUSH2 0x11D8 SWAP3 SWAP2 SWAP1 PUSH2 0x2B2B JUMP JUMPDEST POP DUP3 PUSH1 0x0 DUP1 CALLER PUSH20 0xFFFFFFFFFFFFFFFFFFFFFFFFFFFFFFFFFFFFFFFF AND PUSH20 0xFFFFFFFFFFFFFFFFFFFFFFFFFFFFFFFFFFFFFFFF AND DUP2 MSTORE PUSH1 0x20 ADD SWAP1 DUP2 MSTORE PUSH1 0x20 ADD PUSH1 0x0 KECCAK256 PUSH1 0x0 ADD PUSH1 0x6 ADD SWAP1 DUP1 MLOAD SWAP1 PUSH1 0x20 ADD SWAP1 PUSH2 0x1231 SWAP3 SWAP2 SWAP1 PUSH2 0x2B2B JUMP JUMPDEST POP DUP2 PUSH1 0x0 DUP1 CALLER PUSH20 0xFFFFFFFFFFFFFFFFFFFFFFFFFFFFFFFFFFFFFFFF AND PUSH20 0xFFFFFFFFFFFFFFFFFFFFFFFFFFFFFFFFFFFFFFFF AND DUP2 MSTORE PUSH1 0x20 ADD SWAP1 DUP2 MSTORE PUSH1 0x20 ADD PUSH1 0x0 KECCAK256 PUSH1 0x0 ADD PUSH1 0x0 ADD SWAP1 DUP1 MLOAD SWAP1 PUSH1 0x20 ADD SWAP1 PUSH2 0x128A SWAP3 SWAP2 SWAP1 PUSH2 0x2B2B JUMP JUMPDEST POP DUP1 PUSH1 0x0 DUP1 CALLER PUSH20 0xFFFFFFFFFFFFFFFFFFFFFFFFFFFFFFFFFFFFFFFF AND PUSH20 0xFFFFFFFFFFFFFFFFFFFFFFFFFFFFFFFFFFFFFFFF AND DUP2 MSTORE PUSH1 0x20 ADD SWAP1 DUP2 MSTORE PUSH1 0x20 ADD PUSH1 0x0 KECCAK256 PUSH1 0x0 ADD PUSH1 0x1 ADD SWAP1 DUP1 MLOAD SWAP1 PUSH1 0x20 ADD SWAP1 PUSH2 0x12E3 SWAP3 SWAP2 SWAP1 PUSH2 0x2B2B JUMP JUMPDEST POP CALLER PUSH1 0x0 DUP1 CALLER PUSH20 0xFFFFFFFFFFFFFFFFFFFFFFFFFFFFFFFFFFFFFFFF AND PUSH20 0xFFFFFFFFFFFFFFFFFFFFFFFFFFFFFFFFFFFFFFFF AND DUP2 MSTORE PUSH1 0x20 ADD SWAP1 DUP2 MSTORE PUSH1 0x20 ADD PUSH1 0x0 KECCAK256 PUSH1 0x0 ADD PUSH1 0x2 ADD PUSH1 0x0 PUSH2 0x100 EXP DUP2 SLOAD DUP2 PUSH20 0xFFFFFFFFFFFFFFFFFFFFFFFFFFFFFFFFFFFFFFFF MUL NOT AND SWAP1 DUP4 PUSH20 0xFFFFFFFFFFFFFFFFFFFFFFFFFFFFFFFFFFFFFFFF AND MUL OR SWAP1 SSTORE POP TIMESTAMP PUSH1 0x0 DUP1 CALLER PUSH20 0xFFFFFFFFFFFFFFFFFFFFFFFFFFFFFFFFFFFFFFFF AND PUSH20 0xFFFFFFFFFFFFFFFFFFFFFFFFFFFFFFFFFFFFFFFF AND DUP2 MSTORE PUSH1 0x20 ADD SWAP1 DUP2 MSTORE PUSH1 0x20 ADD PUSH1 0x0 KECCAK256 PUSH1 0x0 ADD PUSH1 0x7 ADD DUP2 SWAP1 SSTORE POP POP POP POP POP POP POP JUMP JUMPDEST PUSH1 0x0 DUP1 CALLER PUSH20 0xFFFFFFFFFFFFFFFFFFFFFFFFFFFFFFFFFFFFFFFF AND PUSH20 0xFFFFFFFFFFFFFFFFFFFFFFFFFFFFFFFFFFFFFFFF AND DUP2 MSTORE PUSH1 0x20 ADD SWAP1 DUP2 MSTORE PUSH1 0x20 ADD PUSH1 0x0 KECCAK256 PUSH1 0x0 ADD PUSH1 0x0 DUP1 DUP3 ADD PUSH1 0x0 PUSH2 0x140A SWAP2 SWAP1 PUSH2 0x2C4C JUMP JUMPDEST PUSH1 0x1 DUP3 ADD PUSH1 0x0 PUSH2 0x141A SWAP2 SWAP1 PUSH2 0x2C4C JUMP JUMPDEST PUSH1 0x2 DUP3 ADD PUSH1 0x0 PUSH2 0x100 EXP DUP2 SLOAD SWAP1 PUSH20 0xFFFFFFFFFFFFFFFFFFFFFFFFFFFFFFFFFFFFFFFF MUL NOT AND SWAP1 SSTORE PUSH1 0x3 DUP3 ADD PUSH1 0x0 PUSH2 0x1451 SWAP2 SWAP1 PUSH2 0x2C4C JUMP JUMPDEST PUSH1 0x4 DUP3 ADD PUSH1 0x0 PUSH2 0x1461 SWAP2 SWAP1 PUSH2 0x2C4C JUMP JUMPDEST PUSH1 0x5 DUP3 ADD PUSH1 0x0 PUSH2 0x1471 SWAP2 SWAP1 PUSH2 0x2C4C JUMP JUMPDEST PUSH1 0x6 DUP3 ADD PUSH1 0x0 PUSH2 0x1481 SWAP2 SWAP1 PUSH2 0x2C4C JUMP JUMPDEST PUSH1 0x7 DUP3 ADD PUSH1 0x0 SWAP1 SSTORE POP POP JUMP JUMPDEST PUSH1 0x0 PUSH1 0x20 MSTORE DUP1 PUSH1 0x0 MSTORE PUSH1 0x40 PUSH1 0x0 KECCAK256 PUSH1 0x0 SWAP2 POP SWAP1 POP DUP1 PUSH1 0x0 ADD PUSH1 0x40 MLOAD DUP1 PUSH2 0x100 ADD PUSH1 0x40 MSTORE SWAP1 DUP2 PUSH1 0x0 DUP3 ADD DUP1 SLOAD PUSH2 0x14C1 SWAP1 PUSH2 0x3BA7 JUMP JUMPDEST DUP1 PUSH1 0x1F ADD PUSH1 0x20 DUP1 SWAP2 DIV MUL PUSH1 0x20 ADD PUSH1 0x40 MLOAD SWAP1 DUP2 ADD PUSH1 0x40 MSTORE DUP1 SWAP3 SWAP2 SWAP1 DUP2 DUP2 MSTORE PUSH1 0x20 ADD DUP3 DUP1 SLOAD PUSH2 0x14ED SWAP1 PUSH2 0x3BA7 JUMP JUMPDEST DUP1 ISZERO PUSH2 0x153A JUMPI DUP1 PUSH1 0x1F LT PUSH2 0x150F JUMPI PUSH2 0x100 DUP1 DUP4 SLOAD DIV MUL DUP4 MSTORE SWAP2 PUSH1 0x20 ADD SWAP2 PUSH2 0x153A JUMP JUMPDEST DUP3 ADD SWAP2 SWAP1 PUSH1 0x0 MSTORE PUSH1 0x20 PUSH1 0x0 KECCAK256 SWAP1 JUMPDEST DUP2 SLOAD DUP2 MSTORE SWAP1 PUSH1 0x1 ADD SWAP1 PUSH1 0x20 ADD DUP1 DUP4 GT PUSH2 0x151D JUMPI DUP3 SWAP1 SUB PUSH1 0x1F AND DUP3 ADD SWAP2 JUMPDEST POP POP POP POP POP DUP2 MSTORE PUSH1 0x20 ADD PUSH1 0x1 DUP3 ADD DUP1 SLOAD PUSH2 0x1553 SWAP1 PUSH2 0x3BA7 JUMP JUMPDEST DUP1 PUSH1 0x1F ADD PUSH1 0x20 DUP1 SWAP2 DIV MUL PUSH1 0x20 ADD PUSH1 0x40 MLOAD SWAP1 DUP2 ADD PUSH1 0x40 MSTORE DUP1 SWAP3 SWAP2 SWAP1 DUP2 DUP2 MSTORE PUSH1 0x20 ADD DUP3 DUP1 SLOAD PUSH2 0x157F SWAP1 PUSH2 0x3BA7 JUMP JUMPDEST DUP1 ISZERO PUSH2 0x15CC JUMPI DUP1 PUSH1 0x1F LT PUSH2 0x15A1 JUMPI PUSH2 0x100 DUP1 DUP4 SLOAD DIV MUL DUP4 MSTORE SWAP2 PUSH1 0x20 ADD SWAP2 PUSH2 0x15CC JUMP JUMPDEST DUP3 ADD SWAP2 SWAP1 PUSH1 0x0 MSTORE PUSH1 0x20 PUSH1 0x0 KECCAK256 SWAP1 JUMPDEST DUP2 SLOAD DUP2 MSTORE SWAP1 PUSH1 0x1 ADD SWAP1 PUSH1 0x20 ADD DUP1 DUP4 GT PUSH2 0x15AF JUMPI DUP3 SWAP1 SUB PUSH1 0x1F AND DUP3 ADD SWAP2 JUMPDEST POP POP POP POP POP DUP2 MSTORE PUSH1 0x20 ADD PUSH1 0x2 DUP3 ADD PUSH1 0x0 SWAP1 SLOAD SWAP1 PUSH2 0x100 EXP SWAP1 DIV PUSH20 0xFFFFFFFFFFFFFFFFFFFFFFFFFFFFFFFFFFFFFFFF AND PUSH20 0xFFFFFFFFFFFFFFFFFFFFFFFFFFFFFFFFFFFFFFFF AND PUSH20 0xFFFFFFFFFFFFFFFFFFFFFFFFFFFFFFFFFFFFFFFF AND DUP2 MSTORE PUSH1 0x20 ADD PUSH1 0x3 DUP3 ADD DUP1 SLOAD PUSH2 0x163B SWAP1 PUSH2 0x3BA7 JUMP JUMPDEST DUP1 PUSH1 0x1F ADD PUSH1 0x20 DUP1 SWAP2 DIV MUL PUSH1 0x20 ADD PUSH1 0x40 MLOAD SWAP1 DUP2 ADD PUSH1 0x40 MSTORE DUP1 SWAP3 SWAP2 SWAP1 DUP2 DUP2 MSTORE PUSH1 0x20 ADD DUP3 DUP1 SLOAD PUSH2 0x1667 SWAP1 PUSH2 0x3BA7 JUMP JUMPDEST DUP1 ISZERO PUSH2 0x16B4 JUMPI DUP1 PUSH1 0x1F LT PUSH2 0x1689 JUMPI PUSH2 0x100 DUP1 DUP4 SLOAD DIV MUL DUP4 MSTORE SWAP2 PUSH1 0x20 ADD SWAP2 PUSH2 0x16B4 JUMP JUMPDEST DUP3 ADD SWAP2 SWAP1 PUSH1 0x0 MSTORE PUSH1 0x20 PUSH1 0x0 KECCAK256 SWAP1 JUMPDEST DUP2 SLOAD DUP2 MSTORE SWAP1 PUSH1 0x1 ADD SWAP1 PUSH1 0x20 ADD DUP1 DUP4 GT PUSH2 0x1697 JUMPI DUP3 SWAP1 SUB PUSH1 0x1F AND DUP3 ADD SWAP2 JUMPDEST POP POP POP POP POP DUP2 MSTORE PUSH1 0x20 ADD PUSH1 0x4 DUP3 ADD DUP1 SLOAD PUSH2 0x16CD SWAP1 PUSH2 0x3BA7 JUMP JUMPDEST DUP1 PUSH1 0x1F ADD PUSH1 0x20 DUP1 SWAP2 DIV MUL PUSH1 0x20 ADD PUSH1 0x40 MLOAD SWAP1 DUP2 ADD PUSH1 0x40 MSTORE DUP1 SWAP3 SWAP2 SWAP1 DUP2 DUP2 MSTORE PUSH1 0x20 ADD DUP3 DUP1 SLOAD PUSH2 0x16F9 SWAP1 PUSH2 0x3BA7 JUMP JUMPDEST DUP1 ISZERO PUSH2 0x1746 JUMPI DUP1 PUSH1 0x1F LT PUSH2 0x171B JUMPI PUSH2 0x100 DUP1 DUP4 SLOAD DIV MUL DUP4 MSTORE SWAP2 PUSH1 0x20 ADD SWAP2 PUSH2 0x1746 JUMP JUMPDEST DUP3 ADD SWAP2 SWAP1 PUSH1 0x0 MSTORE PUSH1 0x20 PUSH1 0x0 KECCAK256 SWAP1 JUMPDEST DUP2 SLOAD DUP2 MSTORE SWAP1 PUSH1 0x1 ADD SWAP1 PUSH1 0x20 ADD DUP1 DUP4 GT PUSH2 0x1729 JUMPI DUP3 SWAP1 SUB PUSH1 0x1F AND DUP3 ADD SWAP2 JUMPDEST POP POP POP POP POP DUP2 MSTORE PUSH1 0x20 ADD PUSH1 0x5 DUP3 ADD DUP1 SLOAD PUSH2 0x175F SWAP1 PUSH2 0x3BA7 JUMP JUMPDEST DUP1 PUSH1 0x1F ADD PUSH1 0x20 DUP1 SWAP2 DIV MUL PUSH1 0x20 ADD PUSH1 0x40 MLOAD SWAP1 DUP2 ADD PUSH1 0x40 MSTORE DUP1 SWAP3 SWAP2 SWAP1 DUP2 DUP2 MSTORE PUSH1 0x20 ADD DUP3 DUP1 SLOAD PUSH2 0x178B SWAP1 PUSH2 0x3BA7 JUMP JUMPDEST DUP1 ISZERO PUSH2 0x17D8 JUMPI DUP1 PUSH1 0x1F LT PUSH2 0x17AD JUMPI PUSH2 0x100 DUP1 DUP4 SLOAD DIV MUL DUP4 MSTORE SWAP2 PUSH1 0x20 ADD SWAP2 PUSH2 0x17D8 JUMP JUMPDEST DUP3 ADD SWAP2 SWAP1 PUSH1 0x0 MSTORE PUSH1 0x20 PUSH1 0x0 KECCAK256 SWAP1 JUMPDEST DUP2 SLOAD DUP2 MSTORE SWAP1 PUSH1 0x1 ADD SWAP1 PUSH1 0x20 ADD DUP1 DUP4 GT PUSH2 0x17BB JUMPI DUP3 SWAP1 SUB PUSH1 0x1F AND DUP3 ADD SWAP2 JUMPDEST POP POP POP POP POP DUP2 MSTORE PUSH1 0x20 ADD PUSH1 0x6 DUP3 ADD DUP1 SLOAD PUSH2 0x17F1 SWAP1 PUSH2 0x3BA7 JUMP JUMPDEST DUP1 PUSH1 0x1F ADD PUSH1 0x20 DUP1 SWAP2 DIV MUL PUSH1 0x20 ADD PUSH1 0x40 MLOAD SWAP1 DUP2 ADD PUSH1 0x40 MSTORE DUP1 SWAP3 SWAP2 SWAP1 DUP2 DUP2 MSTORE PUSH1 0x20 ADD DUP3 DUP1 SLOAD PUSH2 0x181D SWAP1 PUSH2 0x3BA7 JUMP JUMPDEST DUP1 ISZERO PUSH2 0x186A JUMPI DUP1 PUSH1 0x1F LT PUSH2 0x183F JUMPI PUSH2 0x100 DUP1 DUP4 SLOAD DIV MUL DUP4 MSTORE SWAP2 PUSH1 0x20 ADD SWAP2 PUSH2 0x186A JUMP JUMPDEST DUP3 ADD SWAP2 SWAP1 PUSH1 0x0 MSTORE PUSH1 0x20 PUSH1 0x0 KECCAK256 SWAP1 JUMPDEST DUP2 SLOAD DUP2 MSTORE SWAP1 PUSH1 0x1 ADD SWAP1 PUSH1 0x20 ADD DUP1 DUP4 GT PUSH2 0x184D JUMPI DUP3 SWAP1 SUB PUSH1 0x1F AND DUP3 ADD SWAP2 JUMPDEST POP POP POP POP POP DUP2 MSTORE PUSH1 0x20 ADD PUSH1 0x7 DUP3 ADD SLOAD DUP2 MSTORE POP POP SWAP1 DUP1 PUSH1 0x8 ADD PUSH1 0x40 MLOAD DUP1 PUSH1 0xC0 ADD PUSH1 0x40 MSTORE SWAP1 DUP2 PUSH1 0x0 DUP3 ADD DUP1 SLOAD PUSH2 0x189D SWAP1 PUSH2 0x3BA7 JUMP JUMPDEST DUP1 PUSH1 0x1F ADD PUSH1 0x20 DUP1 SWAP2 DIV MUL PUSH1 0x20 ADD PUSH1 0x40 MLOAD SWAP1 DUP2 ADD PUSH1 0x40 MSTORE DUP1 SWAP3 SWAP2 SWAP1 DUP2 DUP2 MSTORE PUSH1 0x20 ADD DUP3 DUP1 SLOAD PUSH2 0x18C9 SWAP1 PUSH2 0x3BA7 JUMP JUMPDEST DUP1 ISZERO PUSH2 0x1916 JUMPI DUP1 PUSH1 0x1F LT PUSH2 0x18EB JUMPI PUSH2 0x100 DUP1 DUP4 SLOAD DIV MUL DUP4 MSTORE SWAP2 PUSH1 0x20 ADD SWAP2 PUSH2 0x1916 JUMP JUMPDEST DUP3 ADD SWAP2 SWAP1 PUSH1 0x0 MSTORE PUSH1 0x20 PUSH1 0x0 KECCAK256 SWAP1 JUMPDEST DUP2 SLOAD DUP2 MSTORE SWAP1 PUSH1 0x1 ADD SWAP1 PUSH1 0x20 ADD DUP1 DUP4 GT PUSH2 0x18F9 JUMPI DUP3 SWAP1 SUB PUSH1 0x1F AND DUP3 ADD SWAP2 JUMPDEST POP POP POP POP POP DUP2 MSTORE PUSH1 0x20 ADD PUSH1 0x1 DUP3 ADD DUP1 SLOAD PUSH2 0x192F SWAP1 PUSH2 0x3BA7 JUMP JUMPDEST DUP1 PUSH1 0x1F ADD PUSH1 0x20 DUP1 SWAP2 DIV MUL PUSH1 0x20 ADD PUSH1 0x40 MLOAD SWAP1 DUP2 ADD PUSH1 0x40 MSTORE DUP1 SWAP3 SWAP2 SWAP1 DUP2 DUP2 MSTORE PUSH1 0x20 ADD DUP3 DUP1 SLOAD PUSH2 0x195B SWAP1 PUSH2 0x3BA7 JUMP JUMPDEST DUP1 ISZERO PUSH2 0x19A8 JUMPI DUP1 PUSH1 0x1F LT PUSH2 0x197D JUMPI PUSH2 0x100 DUP1 DUP4 SLOAD DIV MUL DUP4 MSTORE SWAP2 PUSH1 0x20 ADD SWAP2 PUSH2 0x19A8 JUMP JUMPDEST DUP3 ADD SWAP2 SWAP1 PUSH1 0x0 MSTORE PUSH1 0x20 PUSH1 0x0 KECCAK256 SWAP1 JUMPDEST DUP2 SLOAD DUP2 MSTORE SWAP1 PUSH1 0x1 ADD SWAP1 PUSH1 0x20 ADD DUP1 DUP4 GT PUSH2 0x198B JUMPI DUP3 SWAP1 SUB PUSH1 0x1F AND DUP3 ADD SWAP2 JUMPDEST POP POP POP POP POP DUP2 MSTORE PUSH1 0x20 ADD PUSH1 0x2 DUP3 ADD DUP1 SLOAD PUSH2 0x19C1 SWAP1 PUSH2 0x3BA7 JUMP JUMPDEST DUP1 PUSH1 0x1F ADD PUSH1 0x20 DUP1 SWAP2 DIV MUL PUSH1 0x20 ADD PUSH1 0x40 MLOAD SWAP1 DUP2 ADD PUSH1 0x40 MSTORE DUP1 SWAP3 SWAP2 SWAP1 DUP2 DUP2 MSTORE PUSH1 0x20 ADD DUP3 DUP1 SLOAD PUSH2 0x19ED SWAP1 PUSH2 0x3BA7 JUMP JUMPDEST DUP1 ISZERO PUSH2 0x1A3A JUMPI DUP1 PUSH1 0x1F LT PUSH2 0x1A0F JUMPI PUSH2 0x100 DUP1 DUP4 SLOAD DIV MUL DUP4 MSTORE SWAP2 PUSH1 0x20 ADD SWAP2 PUSH2 0x1A3A JUMP JUMPDEST DUP3 ADD SWAP2 SWAP1 PUSH1 0x0 MSTORE PUSH1 0x20 PUSH1 0x0 KECCAK256 SWAP1 JUMPDEST DUP2 SLOAD DUP2 MSTORE SWAP1 PUSH1 0x1 ADD SWAP1 PUSH1 0x20 ADD DUP1 DUP4 GT PUSH2 0x1A1D JUMPI DUP3 SWAP1 SUB PUSH1 0x1F AND DUP3 ADD SWAP2 JUMPDEST POP POP POP POP POP DUP2 MSTORE PUSH1 0x20 ADD PUSH1 0x3 DUP3 ADD DUP1 SLOAD PUSH2 0x1A53 SWAP1 PUSH2 0x3BA7 JUMP JUMPDEST DUP1 PUSH1 0x1F ADD PUSH1 0x20 DUP1 SWAP2 DIV MUL PUSH1 0x20 ADD PUSH1 0x40 MLOAD SWAP1 DUP2 ADD PUSH1 0x40 MSTORE DUP1 SWAP3 SWAP2 SWAP1 DUP2 DUP2 MSTORE PUSH1 0x20 ADD DUP3 DUP1 SLOAD PUSH2 0x1A7F SWAP1 PUSH2 0x3BA7 JUMP JUMPDEST DUP1 ISZERO PUSH2 0x1ACC JUMPI DUP1 PUSH1 0x1F LT PUSH2 0x1AA1 JUMPI PUSH2 0x100 DUP1 DUP4 SLOAD DIV MUL DUP4 MSTORE SWAP2 PUSH1 0x20 ADD SWAP2 PUSH2 0x1ACC JUMP JUMPDEST DUP3 ADD SWAP2 SWAP1 PUSH1 0x0 MSTORE PUSH1 0x20 PUSH1 0x0 KECCAK256 SWAP1 JUMPDEST DUP2 SLOAD DUP2 MSTORE SWAP1 PUSH1 0x1 ADD SWAP1 PUSH1 0x20 ADD DUP1 DUP4 GT PUSH2 0x1AAF JUMPI DUP3 SWAP1 SUB PUSH1 0x1F AND DUP3 ADD SWAP2 JUMPDEST POP POP POP POP POP DUP2 MSTORE PUSH1 0x20 ADD PUSH1 0x4 DUP3 ADD DUP1 SLOAD PUSH2 0x1AE5 SWAP1 PUSH2 0x3BA7 JUMP JUMPDEST DUP1 PUSH1 0x1F ADD PUSH1 0x20 DUP1 SWAP2 DIV MUL PUSH1 0x20 ADD PUSH1 0x40 MLOAD SWAP1 DUP2 ADD PUSH1 0x40 MSTORE DUP1 SWAP3 SWAP2 SWAP1 DUP2 DUP2 MSTORE PUSH1 0x20 ADD DUP3 DUP1 SLOAD PUSH2 0x1B11 SWAP1 PUSH2 0x3BA7 JUMP JUMPDEST DUP1 ISZERO PUSH2 0x1B5E JUMPI DUP1 PUSH1 0x1F LT PUSH2 0x1B33 JUMPI PUSH2 0x100 DUP1 DUP4 SLOAD DIV MUL DUP4 MSTORE SWAP2 PUSH1 0x20 ADD SWAP2 PUSH2 0x1B5E JUMP JUMPDEST DUP3 ADD SWAP2 SWAP1 PUSH1 0x0 MSTORE PUSH1 0x20 PUSH1 0x0 KECCAK256 SWAP1 JUMPDEST DUP2 SLOAD DUP2 MSTORE SWAP1 PUSH1 0x1 ADD SWAP1 PUSH1 0x20 ADD DUP1 DUP4 GT PUSH2 0x1B41 JUMPI DUP3 SWAP1 SUB PUSH1 0x1F AND DUP3 ADD SWAP2 JUMPDEST POP POP POP POP POP DUP2 MSTORE PUSH1 0x20 ADD PUSH1 0x5 DUP3 ADD DUP1 SLOAD PUSH2 0x1B77 SWAP1 PUSH2 0x3BA7 JUMP JUMPDEST DUP1 PUSH1 0x1F ADD PUSH1 0x20 DUP1 SWAP2 DIV MUL PUSH1 0x20 ADD PUSH1 0x40 MLOAD SWAP1 DUP2 ADD PUSH1 0x40 MSTORE DUP1 SWAP3 SWAP2 SWAP1 DUP2 DUP2 MSTORE PUSH1 0x20 ADD DUP3 DUP1 SLOAD PUSH2 0x1BA3 SWAP1 PUSH2 0x3BA7 JUMP JUMPDEST DUP1 ISZERO PUSH2 0x1BF0 JUMPI DUP1 PUSH1 0x1F LT PUSH2 0x1BC5 JUMPI PUSH2 0x100 DUP1 DUP4 SLOAD DIV MUL DUP4 MSTORE SWAP2 PUSH1 0x20 ADD SWAP2 PUSH2 0x1BF0 JUMP JUMPDEST DUP3 ADD SWAP2 SWAP1 PUSH1 0x0 MSTORE PUSH1 0x20 PUSH1 0x0 KECCAK256 SWAP1 JUMPDEST DUP2 SLOAD DUP2 MSTORE SWAP1 PUSH1 0x1 ADD SWAP1 PUSH1 0x20 ADD DUP1 DUP4 GT PUSH2 0x1BD3 JUMPI DUP3 SWAP1 SUB PUSH1 0x1F AND DUP3 ADD SWAP2 JUMPDEST POP POP POP POP POP DUP2 MSTORE POP POP SWAP1 DUP1 PUSH1 0xE ADD PUSH1 0x40 MLOAD DUP1 PUSH1 0x60 ADD PUSH1 0x40 MSTORE SWAP1 DUP2 PUSH1 0x0 DUP3 ADD DUP1 SLOAD DUP1 PUSH1 0x20 MUL PUSH1 0x20 ADD PUSH1 0x40 MLOAD SWAP1 DUP2 ADD PUSH1 0x40 MSTORE DUP1 SWAP3 SWAP2 SWAP1 DUP2 DUP2 MSTORE PUSH1 0x20 ADD PUSH1 0x0 SWAP1 JUMPDEST DUP3 DUP3 LT ISZERO PUSH2 0x1CDA JUMPI DUP4 DUP3 SWAP1 PUSH1 0x0 MSTORE PUSH1 0x20 PUSH1 0x0 KECCAK256 ADD DUP1 SLOAD PUSH2 0x1C4D SWAP1 PUSH2 0x3BA7 JUMP JUMPDEST DUP1 PUSH1 0x1F ADD PUSH1 0x20 DUP1 SWAP2 DIV MUL PUSH1 0x20 ADD PUSH1 0x40 MLOAD SWAP1 DUP2 ADD PUSH1 0x40 MSTORE DUP1 SWAP3 SWAP2 SWAP1 DUP2 DUP2 MSTORE PUSH1 0x20 ADD DUP3 DUP1 SLOAD PUSH2 0x1C79 SWAP1 PUSH2 0x3BA7 JUMP JUMPDEST DUP1 ISZERO PUSH2 0x1CC6 JUMPI DUP1 PUSH1 0x1F LT PUSH2 0x1C9B JUMPI PUSH2 0x100 DUP1 DUP4 SLOAD DIV MUL DUP4 MSTORE SWAP2 PUSH1 0x20 ADD SWAP2 PUSH2 0x1CC6 JUMP JUMPDEST DUP3 ADD SWAP2 SWAP1 PUSH1 0x0 MSTORE PUSH1 0x20 PUSH1 0x0 KECCAK256 SWAP1 JUMPDEST DUP2 SLOAD DUP2 MSTORE SWAP1 PUSH1 0x1 ADD SWAP1 PUSH1 0x20 ADD DUP1 DUP4 GT PUSH2 0x1CA9 JUMPI DUP3 SWAP1 SUB PUSH1 0x1F AND DUP3 ADD SWAP2 JUMPDEST POP POP POP POP POP DUP2 MSTORE PUSH1 0x20 ADD SWAP1 PUSH1 0x1 ADD SWAP1 PUSH2 0x1C2E JUMP JUMPDEST POP POP POP POP DUP2 MSTORE PUSH1 0x20 ADD PUSH1 0x1 DUP3 ADD DUP1 SLOAD DUP1 PUSH1 0x20 MUL PUSH1 0x20 ADD PUSH1 0x40 MLOAD SWAP1 DUP2 ADD PUSH1 0x40 MSTORE DUP1 SWAP3 SWAP2 SWAP1 DUP2 DUP2 MSTORE PUSH1 0x20 ADD PUSH1 0x0 SWAP1 JUMPDEST DUP3 DUP3 LT ISZERO PUSH2 0x1DB3 JUMPI DUP4 DUP3 SWAP1 PUSH1 0x0 MSTORE PUSH1 0x20 PUSH1 0x0 KECCAK256 ADD DUP1 SLOAD PUSH2 0x1D26 SWAP1 PUSH2 0x3BA7 JUMP JUMPDEST DUP1 PUSH1 0x1F ADD PUSH1 0x20 DUP1 SWAP2 DIV MUL PUSH1 0x20 ADD PUSH1 0x40 MLOAD SWAP1 DUP2 ADD PUSH1 0x40 MSTORE DUP1 SWAP3 SWAP2 SWAP1 DUP2 DUP2 MSTORE PUSH1 0x20 ADD DUP3 DUP1 SLOAD PUSH2 0x1D52 SWAP1 PUSH2 0x3BA7 JUMP JUMPDEST DUP1 ISZERO PUSH2 0x1D9F JUMPI DUP1 PUSH1 0x1F LT PUSH2 0x1D74 JUMPI PUSH2 0x100 DUP1 DUP4 SLOAD DIV MUL DUP4 MSTORE SWAP2 PUSH1 0x20 ADD SWAP2 PUSH2 0x1D9F JUMP JUMPDEST DUP3 ADD SWAP2 SWAP1 PUSH1 0x0 MSTORE PUSH1 0x20 PUSH1 0x0 KECCAK256 SWAP1 JUMPDEST DUP2 SLOAD DUP2 MSTORE SWAP1 PUSH1 0x1 ADD SWAP1 PUSH1 0x20 ADD DUP1 DUP4 GT PUSH2 0x1D82 JUMPI DUP3 SWAP1 SUB PUSH1 0x1F AND DUP3 ADD SWAP2 JUMPDEST POP POP POP POP POP DUP2 MSTORE PUSH1 0x20 ADD SWAP1 PUSH1 0x1 ADD SWAP1 PUSH2 0x1D07 JUMP JUMPDEST POP POP POP POP DUP2 MSTORE PUSH1 0x20 ADD PUSH1 0x2 DUP3 ADD DUP1 SLOAD DUP1 PUSH1 0x20 MUL PUSH1 0x20 ADD PUSH1 0x40 MLOAD SWAP1 DUP2 ADD PUSH1 0x40 MSTORE DUP1 SWAP3 SWAP2 SWAP1 DUP2 DUP2 MSTORE PUSH1 0x20 ADD PUSH1 0x0 SWAP1 JUMPDEST DUP3 DUP3 LT ISZERO PUSH2 0x1E8C JUMPI DUP4 DUP3 SWAP1 PUSH1 0x0 MSTORE PUSH1 0x20 PUSH1 0x0 KECCAK256 ADD DUP1 SLOAD PUSH2 0x1DFF SWAP1 PUSH2 0x3BA7 JUMP JUMPDEST DUP1 PUSH1 0x1F ADD PUSH1 0x20 DUP1 SWAP2 DIV MUL PUSH1 0x20 ADD PUSH1 0x40 MLOAD SWAP1 DUP2 ADD PUSH1 0x40 MSTORE DUP1 SWAP3 SWAP2 SWAP1 DUP2 DUP2 MSTORE PUSH1 0x20 ADD DUP3 DUP1 SLOAD PUSH2 0x1E2B SWAP1 PUSH2 0x3BA7 JUMP JUMPDEST DUP1 ISZERO PUSH2 0x1E78 JUMPI DUP1 PUSH1 0x1F LT PUSH2 0x1E4D JUMPI PUSH2 0x100 DUP1 DUP4 SLOAD DIV MUL DUP4 MSTORE SWAP2 PUSH1 0x20 ADD SWAP2 PUSH2 0x1E78 JUMP JUMPDEST DUP3 ADD SWAP2 SWAP1 PUSH1 0x0 MSTORE PUSH1 0x20 PUSH1 0x0 KECCAK256 SWAP1 JUMPDEST DUP2 SLOAD DUP2 MSTORE SWAP1 PUSH1 0x1 ADD SWAP1 PUSH1 0x20 ADD DUP1 DUP4 GT PUSH2 0x1E5B JUMPI DUP3 SWAP1 SUB PUSH1 0x1F AND DUP3 ADD SWAP2 JUMPDEST POP POP POP POP POP DUP2 MSTORE PUSH1 0x20 ADD SWAP1 PUSH1 0x1 ADD SWAP1 PUSH2 0x1DE0 JUMP JUMPDEST POP POP POP POP DUP2 MSTORE POP POP SWAP1 DUP1 PUSH1 0x12 ADD PUSH1 0x40 MLOAD DUP1 PUSH1 0x40 ADD PUSH1 0x40 MSTORE SWAP1 DUP2 PUSH1 0x0 DUP3 ADD DUP1 SLOAD DUP1 PUSH1 0x20 MUL PUSH1 0x20 ADD PUSH1 0x40 MLOAD SWAP1 DUP2 ADD PUSH1 0x40 MSTORE DUP1 SWAP3 SWAP2 SWAP1 DUP2 DUP2 MSTORE PUSH1 0x20 ADD PUSH1 0x0 SWAP1 JUMPDEST DUP3 DUP3 LT ISZERO PUSH2 0x1F75 JUMPI DUP4 DUP3 SWAP1 PUSH1 0x0 MSTORE PUSH1 0x20 PUSH1 0x0 KECCAK256 ADD DUP1 SLOAD PUSH2 0x1EE8 SWAP1 PUSH2 0x3BA7 JUMP JUMPDEST DUP1 PUSH1 0x1F ADD PUSH1 0x20 DUP1 SWAP2 DIV MUL PUSH1 0x20 ADD PUSH1 0x40 MLOAD SWAP1 DUP2 ADD PUSH1 0x40 MSTORE DUP1 SWAP3 SWAP2 SWAP1 DUP2 DUP2 MSTORE PUSH1 0x20 ADD DUP3 DUP1 SLOAD PUSH2 0x1F14 SWAP1 PUSH2 0x3BA7 JUMP JUMPDEST DUP1 ISZERO PUSH2 0x1F61 JUMPI DUP1 PUSH1 0x1F LT PUSH2 0x1F36 JUMPI PUSH2 0x100 DUP1 DUP4 SLOAD DIV MUL DUP4 MSTORE SWAP2 PUSH1 0x20 ADD SWAP2 PUSH2 0x1F61 JUMP JUMPDEST DUP3 ADD SWAP2 SWAP1 PUSH1 0x0 MSTORE PUSH1 0x20 PUSH1 0x0 KECCAK256 SWAP1 JUMPDEST DUP2 SLOAD DUP2 MSTORE SWAP1 PUSH1 0x1 ADD SWAP1 PUSH1 0x20 ADD DUP1 DUP4 GT PUSH2 0x1F44 JUMPI DUP3 SWAP1 SUB PUSH1 0x1F AND DUP3 ADD SWAP2 JUMPDEST POP POP POP POP POP DUP2 MSTORE PUSH1 0x20 ADD SWAP1 PUSH1 0x1 ADD SWAP1 PUSH2 0x1EC9 JUMP JUMPDEST POP POP POP POP DUP2 MSTORE PUSH1 0x20 ADD PUSH1 0x1 DUP3 ADD DUP1 SLOAD DUP1 PUSH1 0x20 MUL PUSH1 0x20 ADD PUSH1 0x40 MLOAD SWAP1 DUP2 ADD PUSH1 0x40 MSTORE DUP1 SWAP3 SWAP2 SWAP1 DUP2 DUP2 MSTORE PUSH1 0x20 ADD PUSH1 0x0 SWAP1 JUMPDEST DUP3 DUP3 LT ISZERO PUSH2 0x204E JUMPI DUP4 DUP3 SWAP1 PUSH1 0x0 MSTORE PUSH1 0x20 PUSH1 0x0 KECCAK256 ADD DUP1 SLOAD PUSH2 0x1FC1 SWAP1 PUSH2 0x3BA7 JUMP JUMPDEST DUP1 PUSH1 0x1F ADD PUSH1 0x20 DUP1 SWAP2 DIV MUL PUSH1 0x20 ADD PUSH1 0x40 MLOAD SWAP1 DUP2 ADD PUSH1 0x40 MSTORE DUP1 SWAP3 SWAP2 SWAP1 DUP2 DUP2 MSTORE PUSH1 0x20 ADD DUP3 DUP1 SLOAD PUSH2 0x1FED SWAP1 PUSH2 0x3BA7 JUMP JUMPDEST DUP1 ISZERO PUSH2 0x203A JUMPI DUP1 PUSH1 0x1F LT PUSH2 0x200F JUMPI PUSH2 0x100 DUP1 DUP4 SLOAD DIV MUL DUP4 MSTORE SWAP2 PUSH1 0x20 ADD SWAP2 PUSH2 0x203A JUMP JUMPDEST DUP3 ADD SWAP2 SWAP1 PUSH1 0x0 MSTORE PUSH1 0x20 PUSH1 0x0 KECCAK256 SWAP1 JUMPDEST DUP2 SLOAD DUP2 MSTORE SWAP1 PUSH1 0x1 ADD SWAP1 PUSH1 0x20 ADD DUP1 DUP4 GT PUSH2 0x201D JUMPI DUP3 SWAP1 SUB PUSH1 0x1F AND DUP3 ADD SWAP2 JUMPDEST POP POP POP POP POP DUP2 MSTORE PUSH1 0x20 ADD SWAP1 PUSH1 0x1 ADD SWAP1 PUSH2 0x1FA2 JUMP JUMPDEST POP POP POP POP DUP2 MSTORE POP POP SWAP1 POP DUP5 JUMP JUMPDEST PUSH1 0x0 DUP1 CALLER PUSH20 0xFFFFFFFFFFFFFFFFFFFFFFFFFFFFFFFFFFFFFFFF AND PUSH20 0xFFFFFFFFFFFFFFFFFFFFFFFFFFFFFFFFFFFFFFFF AND DUP2 MSTORE PUSH1 0x20 ADD SWAP1 DUP2 MSTORE PUSH1 0x20 ADD PUSH1 0x0 KECCAK256 PUSH1 0x14 ADD PUSH1 0x0 PUSH2 0x20A8 SWAP2 SWAP1 PUSH2 0x2C8C JUMP JUMPDEST JUMP JUMPDEST PUSH2 0x20B2 PUSH2 0x2CB0 JUMP JUMPDEST DUP6 DUP2 PUSH1 0x0 ADD DUP2 SWAP1 MSTORE POP DUP5 DUP2 PUSH1 0x20 ADD DUP2 SWAP1 MSTORE POP DUP4 DUP2 PUSH1 0x40 ADD DUP2 SWAP1 MSTORE POP DUP3 DUP2 PUSH1 0x60 ADD DUP2 SWAP1 MSTORE POP DUP2 DUP2 PUSH1 0x80 ADD DUP2 SWAP1 MSTORE POP PUSH1 0x0 DUP1 CALLER PUSH20 0xFFFFFFFFFFFFFFFFFFFFFFFFFFFFFFFFFFFFFFFF AND PUSH20 0xFFFFFFFFFFFFFFFFFFFFFFFFFFFFFFFFFFFFFFFF AND DUP2 MSTORE PUSH1 0x20 ADD SWAP1 DUP2 MSTORE PUSH1 0x20 ADD PUSH1 0x0 KECCAK256 PUSH1 0x11 ADD DUP2 SWAP1 DUP1 PUSH1 0x1 DUP2 SLOAD ADD DUP1 DUP3 SSTORE DUP1 SWAP2 POP POP PUSH1 0x1 SWAP1 SUB SWAP1 PUSH1 0x0 MSTORE PUSH1 0x20 PUSH1 0x0 KECCAK256 SWAP1 PUSH1 0x5 MUL ADD PUSH1 0x0 SWAP1 SWAP2 SWAP1 SWAP2 SWAP1 SWAP2 POP PUSH1 0x0 DUP3 ADD MLOAD DUP2 PUSH1 0x0 ADD SWAP1 DUP1 MLOAD SWAP1 PUSH1 0x20 ADD SWAP1 PUSH2 0x2166 SWAP3 SWAP2 SWAP1 PUSH2 0x2B2B JUMP JUMPDEST POP PUSH1 0x20 DUP3 ADD MLOAD DUP2 PUSH1 0x1 ADD SWAP1 DUP1 MLOAD SWAP1 PUSH1 0x20 ADD SWAP1 PUSH2 0x2183 SWAP3 SWAP2 SWAP1 PUSH2 0x2B2B JUMP JUMPDEST POP PUSH1 0x40 DUP3 ADD MLOAD DUP2 PUSH1 0x2 ADD SWAP1 DUP1 MLOAD SWAP1 PUSH1 0x20 ADD SWAP1 PUSH2 0x21A0 SWAP3 SWAP2 SWAP1 PUSH2 0x2B2B JUMP JUMPDEST POP PUSH1 0x60 DUP3 ADD MLOAD DUP2 PUSH1 0x3 ADD SWAP1 DUP1 MLOAD SWAP1 PUSH1 0x20 ADD SWAP1 PUSH2 0x21BD SWAP3 SWAP2 SWAP1 PUSH2 0x2B2B JUMP JUMPDEST POP PUSH1 0x80 DUP3 ADD MLOAD DUP2 PUSH1 0x4 ADD SWAP1 DUP1 MLOAD SWAP1 PUSH1 0x20 ADD SWAP1 PUSH2 0x21DA SWAP3 SWAP2 SWAP1 PUSH2 0x2B2B JUMP JUMPDEST POP POP POP POP POP POP POP POP POP JUMP JUMPDEST PUSH1 0x0 CALLER PUSH20 0xFFFFFFFFFFFFFFFFFFFFFFFFFFFFFFFFFFFFFFFF AND BALANCE SWAP1 POP SWAP1 JUMP JUMPDEST PUSH1 0x60 DUP1 PUSH1 0x0 DUP1 CALLER PUSH20 0xFFFFFFFFFFFFFFFFFFFFFFFFFFFFFFFFFFFFFFFF AND PUSH20 0xFFFFFFFFFFFFFFFFFFFFFFFFFFFFFFFFFFFFFFFF AND DUP2 MSTORE PUSH1 0x20 ADD SWAP1 DUP2 MSTORE PUSH1 0x20 ADD PUSH1 0x0 KECCAK256 PUSH1 0x15 ADD DUP4 DUP2 SLOAD DUP2 LT PUSH2 0x225A JUMPI PUSH2 0x2259 PUSH2 0x3C39 JUMP JUMPDEST JUMPDEST SWAP1 PUSH1 0x0 MSTORE PUSH1 0x20 PUSH1 0x0 KECCAK256 SWAP1 PUSH1 0x2 MUL ADD PUSH1 0x0 ADD PUSH1 0x0 DUP1 CALLER PUSH20 0xFFFFFFFFFFFFFFFFFFFFFFFFFFFFFFFFFFFFFFFF AND PUSH20 0xFFFFFFFFFFFFFFFFFFFFFFFFFFFFFFFFFFFFFFFF AND DUP2 MSTORE PUSH1 0x20 ADD SWAP1 DUP2 MSTORE PUSH1 0x20 ADD PUSH1 0x0 KECCAK256 PUSH1 0x15 ADD DUP5 DUP2 SLOAD DUP2 LT PUSH2 0x22BE JUMPI PUSH2 0x22BD PUSH2 0x3C39 JUMP JUMPDEST JUMPDEST SWAP1 PUSH1 0x0 MSTORE PUSH1 0x20 PUSH1 0x0 KECCAK256 SWAP1 PUSH1 0x2 MUL ADD PUSH1 0x1 ADD DUP2 DUP1 SLOAD PUSH2 0x22DB SWAP1 PUSH2 0x3BA7 JUMP JUMPDEST DUP1 PUSH1 0x1F ADD PUSH1 0x20 DUP1 SWAP2 DIV MUL PUSH1 0x20 ADD PUSH1 0x40 MLOAD SWAP1 DUP2 ADD PUSH1 0x40 MSTORE DUP1 SWAP3 SWAP2 SWAP1 DUP2 DUP2 MSTORE PUSH1 0x20 ADD DUP3 DUP1 SLOAD PUSH2 0x2307 SWAP1 PUSH2 0x3BA7 JUMP JUMPDEST DUP1 ISZERO PUSH2 0x2354 JUMPI DUP1 PUSH1 0x1F LT PUSH2 0x2329 JUMPI PUSH2 0x100 DUP1 DUP4 SLOAD DIV MUL DUP4 MSTORE SWAP2 PUSH1 0x20 ADD SWAP2 PUSH2 0x2354 JUMP JUMPDEST DUP3 ADD SWAP2 SWAP1 PUSH1 0x0 MSTORE PUSH1 0x20 PUSH1 0x0 KECCAK256 SWAP1 JUMPDEST DUP2 SLOAD DUP2 MSTORE SWAP1 PUSH1 0x1 ADD SWAP1 PUSH1 0x20 ADD DUP1 DUP4 GT PUSH2 0x2337 JUMPI DUP3 SWAP1 SUB PUSH1 0x1F AND DUP3 ADD SWAP2 JUMPDEST POP POP POP POP POP SWAP2 POP DUP1 DUP1 SLOAD PUSH2 0x2367 SWAP1 PUSH2 0x3BA7 JUMP JUMPDEST DUP1 PUSH1 0x1F ADD PUSH1 0x20 DUP1 SWAP2 DIV MUL PUSH1 0x20 ADD PUSH1 0x40 MLOAD SWAP1 DUP2 ADD PUSH1 0x40 MSTORE DUP1 SWAP3 SWAP2 SWAP1 DUP2 DUP2 MSTORE PUSH1 0x20 ADD DUP3 DUP1 SLOAD PUSH2 0x2393 SWAP1 PUSH2 0x3BA7 JUMP JUMPDEST DUP1 ISZERO PUSH2 0x23E0 JUMPI DUP1 PUSH1 0x1F LT PUSH2 0x23B5 JUMPI PUSH2 0x100 DUP1 DUP4 SLOAD DIV MUL DUP4 MSTORE SWAP2 PUSH1 0x20 ADD SWAP2 PUSH2 0x23E0 JUMP JUMPDEST DUP3 ADD SWAP2 SWAP1 PUSH1 0x0 MSTORE PUSH1 0x20 PUSH1 0x0 KECCAK256 SWAP1 JUMPDEST DUP2 SLOAD DUP2 MSTORE SWAP1 PUSH1 0x1 ADD SWAP1 PUSH1 0x20 ADD DUP1 DUP4 GT PUSH2 0x23C3 JUMPI DUP3 SWAP1 SUB PUSH1 0x1F AND DUP3 ADD SWAP2 JUMPDEST POP POP POP POP POP SWAP1 POP SWAP2 POP SWAP2 POP SWAP2 POP SWAP2 JUMP JUMPDEST PUSH1 0x0 DUP1 CALLER PUSH20 0xFFFFFFFFFFFFFFFFFFFFFFFFFFFFFFFFFFFFFFFF AND PUSH20 0xFFFFFFFFFFFFFFFFFFFFFFFFFFFFFFFFFFFFFFFF AND DUP2 MSTORE PUSH1 0x20 ADD SWAP1 DUP2 MSTORE PUSH1 0x20 ADD PUSH1 0x0 KECCAK256 PUSH1 0x11 ADD PUSH1 0x0 PUSH2 0x243D SWAP2 SWAP1 PUSH2 0x2CDF JUMP JUMPDEST JUMP JUMPDEST PUSH1 0x60 DUP1 PUSH1 0x60 DUP1 PUSH1 0x60 PUSH1 0x0 DUP1 CALLER PUSH20 0xFFFFFFFFFFFFFFFFFFFFFFFFFFFFFFFFFFFFFFFF AND PUSH20 0xFFFFFFFFFFFFFFFFFFFFFFFFFFFFFFFFFFFFFFFF AND DUP2 MSTORE PUSH1 0x20 ADD SWAP1 DUP2 MSTORE PUSH1 0x20 ADD PUSH1 0x0 KECCAK256 PUSH1 0x11 ADD DUP7 DUP2 SLOAD DUP2 LT PUSH2 0x249A JUMPI PUSH2 0x2499 PUSH2 0x3C39 JUMP JUMPDEST JUMPDEST SWAP1 PUSH1 0x0 MSTORE PUSH1 0x20 PUSH1 0x0 KECCAK256 SWAP1 PUSH1 0x5 MUL ADD PUSH1 0x0 ADD PUSH1 0x0 DUP1 CALLER PUSH20 0xFFFFFFFFFFFFFFFFFFFFFFFFFFFFFFFFFFFFFFFF AND PUSH20 0xFFFFFFFFFFFFFFFFFFFFFFFFFFFFFFFFFFFFFFFF AND DUP2 MSTORE PUSH1 0x20 ADD SWAP1 DUP2 MSTORE PUSH1 0x20 ADD PUSH1 0x0 KECCAK256 PUSH1 0x11 ADD DUP8 DUP2 SLOAD DUP2 LT PUSH2 0x24FE JUMPI PUSH2 0x24FD PUSH2 0x3C39 JUMP JUMPDEST JUMPDEST SWAP1 PUSH1 0x0 MSTORE PUSH1 0x20 PUSH1 0x0 KECCAK256 SWAP1 PUSH1 0x5 MUL ADD PUSH1 0x1 ADD PUSH1 0x0 DUP1 CALLER PUSH20 0xFFFFFFFFFFFFFFFFFFFFFFFFFFFFFFFFFFFFFFFF AND PUSH20 0xFFFFFFFFFFFFFFFFFFFFFFFFFFFFFFFFFFFFFFFF AND DUP2 MSTORE PUSH1 0x20 ADD SWAP1 DUP2 MSTORE PUSH1 0x20 ADD PUSH1 0x0 KECCAK256 PUSH1 0x11 ADD DUP9 DUP2 SLOAD DUP2 LT PUSH2 0x2562 JUMPI PUSH2 0x2561 PUSH2 0x3C39 JUMP JUMPDEST JUMPDEST SWAP1 PUSH1 0x0 MSTORE PUSH1 0x20 PUSH1 0x0 KECCAK256 SWAP1 PUSH1 0x5 MUL ADD PUSH1 0x2 ADD PUSH1 0x0 DUP1 CALLER PUSH20 0xFFFFFFFFFFFFFFFFFFFFFFFFFFFFFFFFFFFFFFFF AND PUSH20 0xFFFFFFFFFFFFFFFFFFFFFFFFFFFFFFFFFFFFFFFF AND DUP2 MSTORE PUSH1 0x20 ADD SWAP1 DUP2 MSTORE PUSH1 0x20 ADD PUSH1 0x0 KECCAK256 PUSH1 0x11 ADD DUP10 DUP2 SLOAD DUP2 LT PUSH2 0x25C6 JUMPI PUSH2 0x25C5 PUSH2 0x3C39 JUMP JUMPDEST JUMPDEST SWAP1 PUSH1 0x0 MSTORE PUSH1 0x20 PUSH1 0x0 KECCAK256 SWAP1 PUSH1 0x5 MUL ADD PUSH1 0x3 ADD PUSH1 0x0 DUP1 CALLER PUSH20 0xFFFFFFFFFFFFFFFFFFFFFFFFFFFFFFFFFFFFFFFF AND PUSH20 0xFFFFFFFFFFFFFFFFFFFFFFFFFFFFFFFFFFFFFFFF AND DUP2 MSTORE PUSH1 0x20 ADD SWAP1 DUP2 MSTORE PUSH1 0x20 ADD PUSH1 0x0 KECCAK256 PUSH1 0x11 ADD DUP11 DUP2 SLOAD DUP2 LT PUSH2 0x262A JUMPI PUSH2 0x2629 PUSH2 0x3C39 JUMP JUMPDEST JUMPDEST SWAP1 PUSH1 0x0 MSTORE PUSH1 0x20 PUSH1 0x0 KECCAK256 SWAP1 PUSH1 0x5 MUL ADD PUSH1 0x4 ADD DUP5 DUP1 SLOAD PUSH2 0x2647 SWAP1 PUSH2 0x3BA7 JUMP JUMPDEST DUP1 PUSH1 0x1F ADD PUSH1 0x20 DUP1 SWAP2 DIV MUL PUSH1 0x20 ADD PUSH1 0x40 MLOAD SWAP1 DUP2 ADD PUSH1 0x40 MSTORE DUP1 SWAP3 SWAP2 SWAP1 DUP2 DUP2 MSTORE PUSH1 0x20 ADD DUP3 DUP1 SLOAD PUSH2 0x2673 SWAP1 PUSH2 0x3BA7 JUMP JUMPDEST DUP1 ISZERO PUSH2 0x26C0 JUMPI DUP1 PUSH1 0x1F LT PUSH2 0x2695 JUMPI PUSH2 0x100 DUP1 DUP4 SLOAD DIV MUL DUP4 MSTORE SWAP2 PUSH1 0x20 ADD SWAP2 PUSH2 0x26C0 JUMP JUMPDEST DUP3 ADD SWAP2 SWAP1 PUSH1 0x0 MSTORE PUSH1 0x20 PUSH1 0x0 KECCAK256 SWAP1 JUMPDEST DUP2 SLOAD DUP2 MSTORE SWAP1 PUSH1 0x1 ADD SWAP1 PUSH1 0x20 ADD DUP1 DUP4 GT PUSH2 0x26A3 JUMPI DUP3 SWAP1 SUB PUSH1 0x1F AND DUP3 ADD SWAP2 JUMPDEST POP POP POP POP POP SWAP5 POP DUP4 DUP1 SLOAD PUSH2 0x26D3 SWAP1 PUSH2 0x3BA7 JUMP JUMPDEST DUP1 PUSH1 0x1F ADD PUSH1 0x20 DUP1 SWAP2 DIV MUL PUSH1 0x20 ADD PUSH1 0x40 MLOAD SWAP1 DUP2 ADD PUSH1 0x40 MSTORE DUP1 SWAP3 SWAP2 SWAP1 DUP2 DUP2 MSTORE PUSH1 0x20 ADD DUP3 DUP1 SLOAD PUSH2 0x26FF SWAP1 PUSH2 0x3BA7 JUMP JUMPDEST DUP1 ISZERO PUSH2 0x274C JUMPI DUP1 PUSH1 0x1F LT PUSH2 0x2721 JUMPI PUSH2 0x100 DUP1 DUP4 SLOAD DIV MUL DUP4 MSTORE SWAP2 PUSH1 0x20 ADD SWAP2 PUSH2 0x274C JUMP JUMPDEST DUP3 ADD SWAP2 SWAP1 PUSH1 0x0 MSTORE PUSH1 0x20 PUSH1 0x0 KECCAK256 SWAP1 JUMPDEST DUP2 SLOAD DUP2 MSTORE SWAP1 PUSH1 0x1 ADD SWAP1 PUSH1 0x20 ADD DUP1 DUP4 GT PUSH2 0x272F JUMPI DUP3 SWAP1 SUB PUSH1 0x1F AND DUP3 ADD SWAP2 JUMPDEST POP POP POP POP POP SWAP4 POP DUP3 DUP1 SLOAD PUSH2 0x275F SWAP1 PUSH2 0x3BA7 JUMP JUMPDEST DUP1 PUSH1 0x1F ADD PUSH1 0x20 DUP1 SWAP2 DIV MUL PUSH1 0x20 ADD PUSH1 0x40 MLOAD SWAP1 DUP2 ADD PUSH1 0x40 MSTORE DUP1 SWAP3 SWAP2 SWAP1 DUP2 DUP2 MSTORE PUSH1 0x20 ADD DUP3 DUP1 SLOAD PUSH2 0x278B SWAP1 PUSH2 0x3BA7 JUMP JUMPDEST DUP1 ISZERO PUSH2 0x27D8 JUMPI DUP1 PUSH1 0x1F LT PUSH2 0x27AD JUMPI PUSH2 0x100 DUP1 DUP4 SLOAD DIV MUL DUP4 MSTORE SWAP2 PUSH1 0x20 ADD SWAP2 PUSH2 0x27D8 JUMP JUMPDEST DUP3 ADD SWAP2 SWAP1 PUSH1 0x0 MSTORE PUSH1 0x20 PUSH1 0x0 KECCAK256 SWAP1 JUMPDEST DUP2 SLOAD DUP2 MSTORE SWAP1 PUSH1 0x1 ADD SWAP1 PUSH1 0x20 ADD DUP1 DUP4 GT PUSH2 0x27BB JUMPI DUP3 SWAP1 SUB PUSH1 0x1F AND DUP3 ADD SWAP2 JUMPDEST POP POP POP POP POP SWAP3 POP DUP2 DUP1 SLOAD PUSH2 0x27EB SWAP1 PUSH2 0x3BA7 JUMP JUMPDEST DUP1 PUSH1 0x1F ADD PUSH1 0x20 DUP1 SWAP2 DIV MUL PUSH1 0x20 ADD PUSH1 0x40 MLOAD SWAP1 DUP2 ADD PUSH1 0x40 MSTORE DUP1 SWAP3 SWAP2 SWAP1 DUP2 DUP2 MSTORE PUSH1 0x20 ADD DUP3 DUP1 SLOAD PUSH2 0x2817 SWAP1 PUSH2 0x3BA7 JUMP JUMPDEST DUP1 ISZERO PUSH2 0x2864 JUMPI DUP1 PUSH1 0x1F LT PUSH2 0x2839 JUMPI PUSH2 0x100 DUP1 DUP4 SLOAD DIV MUL DUP4 MSTORE SWAP2 PUSH1 0x20 ADD SWAP2 PUSH2 0x2864 JUMP JUMPDEST DUP3 ADD SWAP2 SWAP1 PUSH1 0x0 MSTORE PUSH1 0x20 PUSH1 0x0 KECCAK256 SWAP1 JUMPDEST DUP2 SLOAD DUP2 MSTORE SWAP1 PUSH1 0x1 ADD SWAP1 PUSH1 0x20 ADD DUP1 DUP4 GT PUSH2 0x2847 JUMPI DUP3 SWAP1 SUB PUSH1 0x1F AND DUP3 ADD SWAP2 JUMPDEST POP POP POP POP POP SWAP2 POP DUP1 DUP1 SLOAD PUSH2 0x2877 SWAP1 PUSH2 0x3BA7 JUMP JUMPDEST DUP1 PUSH1 0x1F ADD PUSH1 0x20 DUP1 SWAP2 DIV MUL PUSH1 0x20 ADD PUSH1 0x40 MLOAD SWAP1 DUP2 ADD PUSH1 0x40 MSTORE DUP1 SWAP3 SWAP2 SWAP1 DUP2 DUP2 MSTORE PUSH1 0x20 ADD DUP3 DUP1 SLOAD PUSH2 0x28A3 SWAP1 PUSH2 0x3BA7 JUMP JUMPDEST DUP1 ISZERO PUSH2 0x28F0 JUMPI DUP1 PUSH1 0x1F LT PUSH2 0x28C5 JUMPI PUSH2 0x100 DUP1 DUP4 SLOAD DIV MUL DUP4 MSTORE SWAP2 PUSH1 0x20 ADD SWAP2 PUSH2 0x28F0 JUMP JUMPDEST DUP3 ADD SWAP2 SWAP1 PUSH1 0x0 MSTORE PUSH1 0x20 PUSH1 0x0 KECCAK256 SWAP1 JUMPDEST DUP2 SLOAD DUP2 MSTORE SWAP1 PUSH1 0x1 ADD SWAP1 PUSH1 0x20 ADD DUP1 DUP4 GT PUSH2 0x28D3 JUMPI DUP3 SWAP1 SUB PUSH1 0x1F AND DUP3 ADD SWAP2 JUMPDEST POP POP POP POP POP SWAP1 POP SWAP5 POP SWAP5 POP SWAP5 POP SWAP5 POP SWAP5 POP SWAP2 SWAP4 SWAP6 SWAP1 SWAP3 SWAP5 POP JUMP JUMPDEST PUSH1 0x0 DUP1 CALLER PUSH20 0xFFFFFFFFFFFFFFFFFFFFFFFFFFFFFFFFFFFFFFFF AND PUSH20 0xFFFFFFFFFFFFFFFFFFFFFFFFFFFFFFFFFFFFFFFF AND DUP2 MSTORE PUSH1 0x20 ADD SWAP1 DUP2 MSTORE PUSH1 0x20 ADD PUSH1 0x0 KECCAK256 PUSH1 0x0 DUP1 DUP3 ADD PUSH1 0x0 DUP1 DUP3 ADD PUSH1 0x0 PUSH2 0x295E SWAP2 SWAP1 PUSH2 0x2C4C JUMP JUMPDEST PUSH1 0x1 DUP3 ADD PUSH1 0x0 PUSH2 0x296E SWAP2 SWAP1 PUSH2 0x2C4C JUMP JUMPDEST PUSH1 0x2 DUP3 ADD PUSH1 0x0 PUSH2 0x100 EXP DUP2 SLOAD SWAP1 PUSH20 0xFFFFFFFFFFFFFFFFFFFFFFFFFFFFFFFFFFFFFFFF MUL NOT AND SWAP1 SSTORE PUSH1 0x3 DUP3 ADD PUSH1 0x0 PUSH2 0x29A5 SWAP2 SWAP1 PUSH2 0x2C4C JUMP JUMPDEST PUSH1 0x4 DUP3 ADD PUSH1 0x0 PUSH2 0x29B5 SWAP2 SWAP1 PUSH2 0x2C4C JUMP JUMPDEST PUSH1 0x5 DUP3 ADD PUSH1 0x0 PUSH2 0x29C5 SWAP2 SWAP1 PUSH2 0x2C4C JUMP JUMPDEST PUSH1 0x6 DUP3 ADD PUSH1 0x0 PUSH2 0x29D5 SWAP2 SWAP1 PUSH2 0x2C4C JUMP JUMPDEST PUSH1 0x7 DUP3 ADD PUSH1 0x0 SWAP1 SSTORE POP POP PUSH1 0x8 DUP3 ADD PUSH1 0x0 DUP1 DUP3 ADD PUSH1 0x0 PUSH2 0x29F4 SWAP2 SWAP1 PUSH2 0x2C4C JUMP JUMPDEST PUSH1 0x1 DUP3 ADD PUSH1 0x0 PUSH2 0x2A04 SWAP2 SWAP1 PUSH2 0x2C4C JUMP JUMPDEST PUSH1 0x2 DUP3 ADD PUSH1 0x0 PUSH2 0x2A14 SWAP2 SWAP1 PUSH2 0x2C4C JUMP JUMPDEST PUSH1 0x3 DUP3 ADD PUSH1 0x0 PUSH2 0x2A24 SWAP2 SWAP1 PUSH2 0x2C4C JUMP JUMPDEST PUSH1 0x4 DUP3 ADD PUSH1 0x0 PUSH2 0x2A34 SWAP2 SWAP1 PUSH2 0x2C4C JUMP JUMPDEST PUSH1 0x5 DUP3 ADD PUSH1 0x0 PUSH2 0x2A44 SWAP2 SWAP1 PUSH2 0x2C4C JUMP JUMPDEST POP POP PUSH1 0xE DUP3 ADD PUSH1 0x0 DUP1 DUP3 ADD PUSH1 0x0 PUSH2 0x2A5B SWAP2 SWAP1 PUSH2 0x2C2B JUMP JUMPDEST PUSH1 0x1 DUP3 ADD PUSH1 0x0 PUSH2 0x2A6B SWAP2 SWAP1 PUSH2 0x2C2B JUMP JUMPDEST PUSH1 0x2 DUP3 ADD PUSH1 0x0 PUSH2 0x2A7B SWAP2 SWAP1 PUSH2 0x2C2B JUMP JUMPDEST POP POP PUSH1 0x11 DUP3 ADD PUSH1 0x0 PUSH2 0x2A8D SWAP2 SWAP1 PUSH2 0x2CDF JUMP JUMPDEST PUSH1 0x12 DUP3 ADD PUSH1 0x0 DUP1 DUP3 ADD PUSH1 0x0 PUSH2 0x2AA2 SWAP2 SWAP1 PUSH2 0x2C2B JUMP JUMPDEST PUSH1 0x1 DUP3 ADD PUSH1 0x0 PUSH2 0x2AB2 SWAP2 SWAP1 PUSH2 0x2C2B JUMP JUMPDEST POP POP PUSH1 0x14 DUP3 ADD PUSH1 0x0 PUSH2 0x2AC4 SWAP2 SWAP1 PUSH2 0x2C8C JUMP JUMPDEST PUSH1 0x15 DUP3 ADD PUSH1 0x0 PUSH2 0x2AD4 SWAP2 SWAP1 PUSH2 0x2AD8 JUMP JUMPDEST POP POP JUMP JUMPDEST POP DUP1 SLOAD PUSH1 0x0 DUP3 SSTORE PUSH1 0x2 MUL SWAP1 PUSH1 0x0 MSTORE PUSH1 0x20 PUSH1 0x0 KECCAK256 SWAP1 DUP2 ADD SWAP1 PUSH2 0x2AF9 SWAP2 SWAP1 PUSH2 0x2D03 JUMP JUMPDEST POP JUMP JUMPDEST PUSH1 0x40 MLOAD DUP1 PUSH1 0xA0 ADD PUSH1 0x40 MSTORE DUP1 PUSH1 0x60 DUP2 MSTORE PUSH1 0x20 ADD PUSH1 0x60 DUP2 MSTORE PUSH1 0x20 ADD PUSH1 0x60 DUP2 MSTORE PUSH1 0x20 ADD PUSH1 0x60 DUP2 MSTORE PUSH1 0x20 ADD PUSH1 0x60 DUP2 MSTORE POP SWAP1 JUMP JUMPDEST DUP3 DUP1 SLOAD PUSH2 0x2B37 SWAP1 PUSH2 0x3BA7 JUMP JUMPDEST SWAP1 PUSH1 0x0 MSTORE PUSH1 0x20 PUSH1 0x0 KECCAK256 SWAP1 PUSH1 0x1F ADD PUSH1 0x20 SWAP1 DIV DUP2 ADD SWAP3 DUP3 PUSH2 0x2B59 JUMPI PUSH1 0x0 DUP6 SSTORE PUSH2 0x2BA0 JUMP JUMPDEST DUP3 PUSH1 0x1F LT PUSH2 0x2B72 JUMPI DUP1 MLOAD PUSH1 0xFF NOT AND DUP4 DUP1 ADD OR DUP6 SSTORE PUSH2 0x2BA0 JUMP JUMPDEST DUP3 DUP1 ADD PUSH1 0x1 ADD DUP6 SSTORE DUP3 ISZERO PUSH2 0x2BA0 JUMPI SWAP2 DUP3 ADD JUMPDEST DUP3 DUP2 GT ISZERO PUSH2 0x2B9F JUMPI DUP3 MLOAD DUP3 SSTORE SWAP2 PUSH1 0x20 ADD SWAP2 SWAP1 PUSH1 0x1 ADD SWAP1 PUSH2 0x2B84 JUMP JUMPDEST JUMPDEST POP SWAP1 POP PUSH2 0x2BAD SWAP2 SWAP1 PUSH2 0x2D3A JUMP JUMPDEST POP SWAP1 JUMP JUMPDEST DUP3 DUP1 SLOAD DUP3 DUP3 SSTORE SWAP1 PUSH1 0x0 MSTORE PUSH1 0x20 PUSH1 0x0 KECCAK256 SWAP1 DUP2 ADD SWAP3 DUP3 ISZERO PUSH2 0x2C00 JUMPI SWAP2 PUSH1 0x20 MUL DUP3 ADD JUMPDEST DUP3 DUP2 GT ISZERO PUSH2 0x2BFF JUMPI DUP3 MLOAD DUP3 SWAP1 DUP1 MLOAD SWAP1 PUSH1 0x20 ADD SWAP1 PUSH2 0x2BEF SWAP3 SWAP2 SWAP1 PUSH2 0x2B2B JUMP JUMPDEST POP SWAP2 PUSH1 0x20 ADD SWAP2 SWAP1 PUSH1 0x1 ADD SWAP1 PUSH2 0x2BD1 JUMP JUMPDEST JUMPDEST POP SWAP1 POP PUSH2 0x2C0D SWAP2 SWAP1 PUSH2 0x2D57 JUMP JUMPDEST POP SWAP1 JUMP JUMPDEST PUSH1 0x40 MLOAD DUP1 PUSH1 0x40 ADD PUSH1 0x40 MSTORE DUP1 PUSH1 0x60 DUP2 MSTORE PUSH1 0x20 ADD PUSH1 0x60 DUP2 MSTORE POP SWAP1 JUMP JUMPDEST POP DUP1 SLOAD PUSH1 0x0 DUP3 SSTORE SWAP1 PUSH1 0x0 MSTORE PUSH1 0x20 PUSH1 0x0 KECCAK256 SWAP1 DUP2 ADD SWAP1 PUSH2 0x2C49 SWAP2 SWAP1 PUSH2 0x2D57 JUMP JUMPDEST POP JUMP JUMPDEST POP DUP1 SLOAD PUSH2 0x2C58 SWAP1 PUSH2 0x3BA7 JUMP JUMPDEST PUSH1 0x0 DUP3 SSTORE DUP1 PUSH1 0x1F LT PUSH2 0x2C6A JUMPI POP PUSH2 0x2C89 JUMP JUMPDEST PUSH1 0x1F ADD PUSH1 0x20 SWAP1 DIV SWAP1 PUSH1 0x0 MSTORE PUSH1 0x20 PUSH1 0x0 KECCAK256 SWAP1 DUP2 ADD SWAP1 PUSH2 0x2C88 SWAP2 SWAP1 PUSH2 0x2D3A JUMP JUMPDEST JUMPDEST POP JUMP JUMPDEST POP DUP1 SLOAD PUSH1 0x0 DUP3 SSTORE PUSH1 0x5 MUL SWAP1 PUSH1 0x0 MSTORE PUSH1 0x20 PUSH1 0x0 KECCAK256 SWAP1 DUP2 ADD SWAP1 PUSH2 0x2CAD SWAP2 SWAP1 PUSH2 0x2D7B JUMP JUMPDEST POP JUMP JUMPDEST PUSH1 0x40 MLOAD DUP1 PUSH1 0xA0 ADD PUSH1 0x40 MSTORE DUP1 PUSH1 0x60 DUP2 MSTORE PUSH1 0x20 ADD PUSH1 0x60 DUP2 MSTORE PUSH1 0x20 ADD PUSH1 0x60 DUP2 MSTORE PUSH1 0x20 ADD PUSH1 0x60 DUP2 MSTORE PUSH1 0x20 ADD PUSH1 0x60 DUP2 MSTORE POP SWAP1 JUMP JUMPDEST POP DUP1 SLOAD PUSH1 0x0 DUP3 SSTORE PUSH1 0x5 MUL SWAP1 PUSH1 0x0 MSTORE PUSH1 0x20 PUSH1 0x0 KECCAK256 SWAP1 DUP2 ADD SWAP1 PUSH2 0x2D00 SWAP2 SWAP1 PUSH2 0x2DE2 JUMP JUMPDEST POP JUMP JUMPDEST JUMPDEST DUP1 DUP3 GT ISZERO PUSH2 0x2D36 JUMPI PUSH1 0x0 DUP1 DUP3 ADD PUSH1 0x0 PUSH2 0x2D1D SWAP2 SWAP1 PUSH2 0x2C4C JUMP JUMPDEST PUSH1 0x1 DUP3 ADD PUSH1 0x0 PUSH2 0x2D2D SWAP2 SWAP1 PUSH2 0x2C4C JUMP JUMPDEST POP PUSH1 0x2 ADD PUSH2 0x2D04 JUMP JUMPDEST POP SWAP1 JUMP JUMPDEST JUMPDEST DUP1 DUP3 GT ISZERO PUSH2 0x2D53 JUMPI PUSH1 0x0 DUP2 PUSH1 0x0 SWAP1 SSTORE POP PUSH1 0x1 ADD PUSH2 0x2D3B JUMP JUMPDEST POP SWAP1 JUMP JUMPDEST JUMPDEST DUP1 DUP3 GT ISZERO PUSH2 0x2D77 JUMPI PUSH1 0x0 DUP2 DUP2 PUSH2 0x2D6E SWAP2 SWAP1 PUSH2 0x2C4C JUMP JUMPDEST POP PUSH1 0x1 ADD PUSH2 0x2D58 JUMP JUMPDEST POP SWAP1 JUMP JUMPDEST JUMPDEST DUP1 DUP3 GT ISZERO PUSH2 0x2DDE JUMPI PUSH1 0x0 DUP1 DUP3 ADD PUSH1 0x0 PUSH2 0x2D95 SWAP2 SWAP1 PUSH2 0x2C4C JUMP JUMPDEST PUSH1 0x1 DUP3 ADD PUSH1 0x0 PUSH2 0x2DA5 SWAP2 SWAP1 PUSH2 0x2C4C JUMP JUMPDEST PUSH1 0x2 DUP3 ADD PUSH1 0x0 PUSH2 0x2DB5 SWAP2 SWAP1 PUSH2 0x2C4C JUMP JUMPDEST PUSH1 0x3 DUP3 ADD PUSH1 0x0 PUSH2 0x2DC5 SWAP2 SWAP1 PUSH2 0x2C4C JUMP JUMPDEST PUSH1 0x4 DUP3 ADD PUSH1 0x0 PUSH2 0x2DD5 SWAP2 SWAP1 PUSH2 0x2C2B JUMP JUMPDEST POP PUSH1 0x5 ADD PUSH2 0x2D7C JUMP JUMPDEST POP SWAP1 JUMP JUMPDEST JUMPDEST DUP1 DUP3 GT ISZERO PUSH2 0x2E45 JUMPI PUSH1 0x0 DUP1 DUP3 ADD PUSH1 0x0 PUSH2 0x2DFC SWAP2 SWAP1 PUSH2 0x2C4C JUMP JUMPDEST PUSH1 0x1 DUP3 ADD PUSH1 0x0 PUSH2 0x2E0C SWAP2 SWAP1 PUSH2 0x2C4C JUMP JUMPDEST PUSH1 0x2 DUP3 ADD PUSH1 0x0 PUSH2 0x2E1C SWAP2 SWAP1 PUSH2 0x2C4C JUMP JUMPDEST PUSH1 0x3 DUP3 ADD PUSH1 0x0 PUSH2 0x2E2C SWAP2 SWAP1 PUSH2 0x2C4C JUMP JUMPDEST PUSH1 0x4 DUP3 ADD PUSH1 0x0 PUSH2 0x2E3C SWAP2 SWAP1 PUSH2 0x2C4C JUMP JUMPDEST POP PUSH1 0x5 ADD PUSH2 0x2DE3 JUMP JUMPDEST POP SWAP1 JUMP JUMPDEST PUSH1 0x0 PUSH2 0x2E5C PUSH2 0x2E57 DUP5 PUSH2 0x3A55 JUMP JUMPDEST PUSH2 0x3A30 JUMP JUMPDEST SWAP1 POP DUP1 DUP4 DUP3 MSTORE PUSH1 0x20 DUP3 ADD SWAP1 POP DUP3 DUP6 PUSH1 0x20 DUP7 MUL DUP3 ADD GT ISZERO PUSH2 0x2E7F JUMPI PUSH2 0x2E7E PUSH2 0x3C9C JUMP JUMPDEST JUMPDEST PUSH1 0x0 JUMPDEST DUP6 DUP2 LT ISZERO PUSH2 0x2ECD JUMPI DUP2 CALLDATALOAD PUSH8 0xFFFFFFFFFFFFFFFF DUP2 GT ISZERO PUSH2 0x2EA5 JUMPI PUSH2 0x2EA4 PUSH2 0x3C97 JUMP JUMPDEST JUMPDEST DUP1 DUP7 ADD PUSH2 0x2EB2 DUP10 DUP3 PUSH2 0x2F5C JUMP JUMPDEST DUP6 MSTORE PUSH1 0x20 DUP6 ADD SWAP5 POP PUSH1 0x20 DUP5 ADD SWAP4 POP POP POP PUSH1 0x1 DUP2 ADD SWAP1 POP PUSH2 0x2E82 JUMP JUMPDEST POP POP POP SWAP4 SWAP3 POP POP POP JUMP JUMPDEST PUSH1 0x0 PUSH2 0x2EEA PUSH2 0x2EE5 DUP5 PUSH2 0x3A81 JUMP JUMPDEST PUSH2 0x3A30 JUMP JUMPDEST SWAP1 POP DUP3 DUP2 MSTORE PUSH1 0x20 DUP2 ADD DUP5 DUP5 DUP5 ADD GT ISZERO PUSH2 0x2F06 JUMPI PUSH2 0x2F05 PUSH2 0x3CA1 JUMP JUMPDEST JUMPDEST PUSH2 0x2F11 DUP5 DUP3 DUP6 PUSH2 0x3B65 JUMP JUMPDEST POP SWAP4 SWAP3 POP POP POP JUMP JUMPDEST PUSH1 0x0 DUP2 CALLDATALOAD SWAP1 POP PUSH2 0x2F28 DUP2 PUSH2 0x3CC1 JUMP JUMPDEST SWAP3 SWAP2 POP POP JUMP JUMPDEST PUSH1 0x0 DUP3 PUSH1 0x1F DUP4 ADD SLT PUSH2 0x2F43 JUMPI PUSH2 0x2F42 PUSH2 0x3C97 JUMP JUMPDEST JUMPDEST DUP2 CALLDATALOAD PUSH2 0x2F53 DUP5 DUP3 PUSH1 0x20 DUP7 ADD PUSH2 0x2E49 JUMP JUMPDEST SWAP2 POP POP SWAP3 SWAP2 POP POP JUMP JUMPDEST PUSH1 0x0 DUP3 PUSH1 0x1F DUP4 ADD SLT PUSH2 0x2F71 JUMPI PUSH2 0x2F70 PUSH2 0x3C97 JUMP JUMPDEST JUMPDEST DUP2 CALLDATALOAD PUSH2 0x2F81 DUP5 DUP3 PUSH1 0x20 DUP7 ADD PUSH2 0x2ED7 JUMP JUMPDEST SWAP2 POP POP SWAP3 SWAP2 POP POP JUMP JUMPDEST PUSH1 0x0 DUP2 CALLDATALOAD SWAP1 POP PUSH2 0x2F99 DUP2 PUSH2 0x3CD8 JUMP JUMPDEST SWAP3 SWAP2 POP POP JUMP JUMPDEST PUSH1 0x0 PUSH1 0x20 DUP3 DUP5 SUB SLT ISZERO PUSH2 0x2FB5 JUMPI PUSH2 0x2FB4 PUSH2 0x3CAB JUMP JUMPDEST JUMPDEST PUSH1 0x0 PUSH2 0x2FC3 DUP5 DUP3 DUP6 ADD PUSH2 0x2F19 JUMP JUMPDEST SWAP2 POP POP SWAP3 SWAP2 POP POP JUMP JUMPDEST PUSH1 0x0 DUP1 PUSH1 0x40 DUP4 DUP6 SUB SLT ISZERO PUSH2 0x2FE3 JUMPI PUSH2 0x2FE2 PUSH2 0x3CAB JUMP JUMPDEST JUMPDEST PUSH1 0x0 DUP4 ADD CALLDATALOAD PUSH8 0xFFFFFFFFFFFFFFFF DUP2 GT ISZERO PUSH2 0x3001 JUMPI PUSH2 0x3000 PUSH2 0x3CA6 JUMP JUMPDEST JUMPDEST PUSH2 0x300D DUP6 DUP3 DUP7 ADD PUSH2 0x2F2E JUMP JUMPDEST SWAP3 POP POP PUSH1 0x20 DUP4 ADD CALLDATALOAD PUSH8 0xFFFFFFFFFFFFFFFF DUP2 GT ISZERO PUSH2 0x302E JUMPI PUSH2 0x302D PUSH2 0x3CA6 JUMP JUMPDEST JUMPDEST PUSH2 0x303A DUP6 DUP3 DUP7 ADD PUSH2 0x2F2E JUMP JUMPDEST SWAP2 POP POP SWAP3 POP SWAP3 SWAP1 POP JUMP JUMPDEST PUSH1 0x0 DUP1 PUSH1 0x0 PUSH1 0x60 DUP5 DUP7 SUB SLT ISZERO PUSH2 0x305D JUMPI PUSH2 0x305C PUSH2 0x3CAB JUMP JUMPDEST JUMPDEST PUSH1 0x0 DUP5 ADD CALLDATALOAD PUSH8 0xFFFFFFFFFFFFFFFF DUP2 GT ISZERO PUSH2 0x307B JUMPI PUSH2 0x307A PUSH2 0x3CA6 JUMP JUMPDEST JUMPDEST PUSH2 0x3087 DUP7 DUP3 DUP8 ADD PUSH2 0x2F2E JUMP JUMPDEST SWAP4 POP POP PUSH1 0x20 DUP5 ADD CALLDATALOAD PUSH8 0xFFFFFFFFFFFFFFFF DUP2 GT ISZERO PUSH2 0x30A8 JUMPI PUSH2 0x30A7 PUSH2 0x3CA6 JUMP JUMPDEST JUMPDEST PUSH2 0x30B4 DUP7 DUP3 DUP8 ADD PUSH2 0x2F2E JUMP JUMPDEST SWAP3 POP POP PUSH1 0x40 DUP5 ADD CALLDATALOAD PUSH8 0xFFFFFFFFFFFFFFFF DUP2 GT ISZERO PUSH2 0x30D5 JUMPI PUSH2 0x30D4 PUSH2 0x3CA6 JUMP JUMPDEST JUMPDEST PUSH2 0x30E1 DUP7 DUP3 DUP8 ADD PUSH2 0x2F2E JUMP JUMPDEST SWAP2 POP POP SWAP3 POP SWAP3 POP SWAP3 JUMP JUMPDEST PUSH1 0x0 DUP1 PUSH1 0x40 DUP4 DUP6 SUB SLT ISZERO PUSH2 0x3102 JUMPI PUSH2 0x3101 PUSH2 0x3CAB JUMP JUMPDEST JUMPDEST PUSH1 0x0 DUP4 ADD CALLDATALOAD PUSH8 0xFFFFFFFFFFFFFFFF DUP2 GT ISZERO PUSH2 0x3120 JUMPI PUSH2 0x311F PUSH2 0x3CA6 JUMP JUMPDEST JUMPDEST PUSH2 0x312C DUP6 DUP3 DUP7 ADD PUSH2 0x2F5C JUMP JUMPDEST SWAP3 POP POP PUSH1 0x20 DUP4 ADD CALLDATALOAD PUSH8 0xFFFFFFFFFFFFFFFF DUP2 GT ISZERO PUSH2 0x314D JUMPI PUSH2 0x314C PUSH2 0x3CA6 JUMP JUMPDEST JUMPDEST PUSH2 0x3159 DUP6 DUP3 DUP7 ADD PUSH2 0x2F5C JUMP JUMPDEST SWAP2 POP POP SWAP3 POP SWAP3 SWAP1 POP JUMP JUMPDEST PUSH1 0x0 DUP1 PUSH1 0x0 DUP1 PUSH1 0x0 PUSH1 0xA0 DUP7 DUP9 SUB SLT ISZERO PUSH2 0x317F JUMPI PUSH2 0x317E PUSH2 0x3CAB JUMP JUMPDEST JUMPDEST PUSH1 0x0 DUP7 ADD CALLDATALOAD PUSH8 0xFFFFFFFFFFFFFFFF DUP2 GT ISZERO PUSH2 0x319D JUMPI PUSH2 0x319C PUSH2 0x3CA6 JUMP JUMPDEST JUMPDEST PUSH2 0x31A9 DUP9 DUP3 DUP10 ADD PUSH2 0x2F5C JUMP JUMPDEST SWAP6 POP POP PUSH1 0x20 DUP7 ADD CALLDATALOAD PUSH8 0xFFFFFFFFFFFFFFFF DUP2 GT ISZERO PUSH2 0x31CA JUMPI PUSH2 0x31C9 PUSH2 0x3CA6 JUMP JUMPDEST JUMPDEST PUSH2 0x31D6 DUP9 DUP3 DUP10 ADD PUSH2 0x2F5C JUMP JUMPDEST SWAP5 POP POP PUSH1 0x40 DUP7 ADD CALLDATALOAD PUSH8 0xFFFFFFFFFFFFFFFF DUP2 GT ISZERO PUSH2 0x31F7 JUMPI PUSH2 0x31F6 PUSH2 0x3CA6 JUMP JUMPDEST JUMPDEST PUSH2 0x3203 DUP9 DUP3 DUP10 ADD PUSH2 0x2F5C JUMP JUMPDEST SWAP4 POP POP PUSH1 0x60 DUP7 ADD CALLDATALOAD PUSH8 0xFFFFFFFFFFFFFFFF DUP2 GT ISZERO PUSH2 0x3224 JUMPI PUSH2 0x3223 PUSH2 0x3CA6 JUMP JUMPDEST JUMPDEST PUSH2 0x3230 DUP9 DUP3 DUP10 ADD PUSH2 0x2F5C JUMP JUMPDEST SWAP3 POP POP PUSH1 0x80 DUP7 ADD CALLDATALOAD PUSH8 0xFFFFFFFFFFFFFFFF DUP2 GT ISZERO PUSH2 0x3251 JUMPI PUSH2 0x3250 PUSH2 0x3CA6 JUMP JUMPDEST JUMPDEST PUSH2 0x325D DUP9 DUP3 DUP10 ADD PUSH2 0x2F2E JUMP JUMPDEST SWAP2 POP POP SWAP3 SWAP6 POP SWAP3 SWAP6 SWAP1 SWAP4 POP JUMP JUMPDEST PUSH1 0x0 DUP1 PUSH1 0x0 DUP1 PUSH1 0x0 PUSH1 0xA0 DUP7 DUP9 SUB SLT ISZERO PUSH2 0x3286 JUMPI PUSH2 0x3285 PUSH2 0x3CAB JUMP JUMPDEST JUMPDEST PUSH1 0x0 DUP7 ADD CALLDATALOAD PUSH8 0xFFFFFFFFFFFFFFFF DUP2 GT ISZERO PUSH2 0x32A4 JUMPI PUSH2 0x32A3 PUSH2 0x3CA6 JUMP JUMPDEST JUMPDEST PUSH2 0x32B0 DUP9 DUP3 DUP10 ADD PUSH2 0x2F5C JUMP JUMPDEST SWAP6 POP POP PUSH1 0x20 DUP7 ADD CALLDATALOAD PUSH8 0xFFFFFFFFFFFFFFFF DUP2 GT ISZERO PUSH2 0x32D1 JUMPI PUSH2 0x32D0 PUSH2 0x3CA6 JUMP JUMPDEST JUMPDEST PUSH2 0x32DD DUP9 DUP3 DUP10 ADD PUSH2 0x2F5C JUMP JUMPDEST SWAP5 POP POP PUSH1 0x40 DUP7 ADD CALLDATALOAD PUSH8 0xFFFFFFFFFFFFFFFF DUP2 GT ISZERO PUSH2 0x32FE JUMPI PUSH2 0x32FD PUSH2 0x3CA6 JUMP JUMPDEST JUMPDEST PUSH2 0x330A DUP9 DUP3 DUP10 ADD PUSH2 0x2F5C JUMP JUMPDEST SWAP4 POP POP PUSH1 0x60 DUP7 ADD CALLDATALOAD PUSH8 0xFFFFFFFFFFFFFFFF DUP2 GT ISZERO PUSH2 0x332B JUMPI PUSH2 0x332A PUSH2 0x3CA6 JUMP JUMPDEST JUMPDEST PUSH2 0x3337 DUP9 DUP3 DUP10 ADD PUSH2 0x2F5C JUMP JUMPDEST SWAP3 POP POP PUSH1 0x80 DUP7 ADD CALLDATALOAD PUSH8 0xFFFFFFFFFFFFFFFF DUP2 GT ISZERO PUSH2 0x3358 JUMPI PUSH2 0x3357 PUSH2 0x3CA6 JUMP JUMPDEST JUMPDEST PUSH2 0x3364 DUP9 DUP3 DUP10 ADD PUSH2 0x2F5C JUMP JUMPDEST SWAP2 POP POP SWAP3 SWAP6 POP SWAP3 SWAP6 SWAP1 SWAP4 POP JUMP JUMPDEST PUSH1 0x0 DUP1 PUSH1 0x0 DUP1 PUSH1 0x0 DUP1 PUSH1 0xC0 DUP8 DUP10 SUB SLT ISZERO PUSH2 0x338E JUMPI PUSH2 0x338D PUSH2 0x3CAB JUMP JUMPDEST JUMPDEST PUSH1 0x0 DUP8 ADD CALLDATALOAD PUSH8 0xFFFFFFFFFFFFFFFF DUP2 GT ISZERO PUSH2 0x33AC JUMPI PUSH2 0x33AB PUSH2 0x3CA6 JUMP JUMPDEST JUMPDEST PUSH2 0x33B8 DUP10 DUP3 DUP11 ADD PUSH2 0x2F5C JUMP JUMPDEST SWAP7 POP POP PUSH1 0x20 DUP8 ADD CALLDATALOAD PUSH8 0xFFFFFFFFFFFFFFFF DUP2 GT ISZERO PUSH2 0x33D9 JUMPI PUSH2 0x33D8 PUSH2 0x3CA6 JUMP JUMPDEST JUMPDEST PUSH2 0x33E5 DUP10 DUP3 DUP11 ADD PUSH2 0x2F5C JUMP JUMPDEST SWAP6 POP POP PUSH1 0x40 DUP8 ADD CALLDATALOAD PUSH8 0xFFFFFFFFFFFFFFFF DUP2 GT ISZERO PUSH2 0x3406 JUMPI PUSH2 0x3405 PUSH2 0x3CA6 JUMP JUMPDEST JUMPDEST PUSH2 0x3412 DUP10 DUP3 DUP11 ADD PUSH2 0x2F5C JUMP JUMPDEST SWAP5 POP POP PUSH1 0x60 DUP8 ADD CALLDATALOAD PUSH8 0xFFFFFFFFFFFFFFFF DUP2 GT ISZERO PUSH2 0x3433 JUMPI PUSH2 0x3432 PUSH2 0x3CA6 JUMP JUMPDEST JUMPDEST PUSH2 0x343F DUP10 DUP3 DUP11 ADD PUSH2 0x2F5C JUMP JUMPDEST SWAP4 POP POP PUSH1 0x80 DUP8 ADD CALLDATALOAD PUSH8 0xFFFFFFFFFFFFFFFF DUP2 GT ISZERO PUSH2 0x3460 JUMPI PUSH2 0x345F PUSH2 0x3CA6 JUMP JUMPDEST JUMPDEST PUSH2 0x346C DUP10 DUP3 DUP11 ADD PUSH2 0x2F5C JUMP JUMPDEST SWAP3 POP POP PUSH1 0xA0 DUP8 ADD CALLDATALOAD PUSH8 0xFFFFFFFFFFFFFFFF DUP2 GT ISZERO PUSH2 0x348D JUMPI PUSH2 0x348C PUSH2 0x3CA6 JUMP JUMPDEST JUMPDEST PUSH2 0x3499 DUP10 DUP3 DUP11 ADD PUSH2 0x2F5C JUMP JUMPDEST SWAP2 POP POP SWAP3 SWAP6 POP SWAP3 SWAP6 POP SWAP3 SWAP6 JUMP JUMPDEST PUSH1 0x0 PUSH1 0x20 DUP3 DUP5 SUB SLT ISZERO PUSH2 0x34BC JUMPI PUSH2 0x34BB PUSH2 0x3CAB JUMP JUMPDEST JUMPDEST PUSH1 0x0 PUSH2 0x34CA DUP5 DUP3 DUP6 ADD PUSH2 0x2F8A JUMP JUMPDEST SWAP2 POP POP SWAP3 SWAP2 POP POP JUMP JUMPDEST PUSH1 0x0 PUSH2 0x34DF DUP4 DUP4 PUSH2 0x35E0 JUMP JUMPDEST SWAP1 POP SWAP3 SWAP2 POP POP JUMP JUMPDEST PUSH2 0x34F0 DUP2 PUSH2 0x3B29 JUMP JUMPDEST DUP3 MSTORE POP POP JUMP JUMPDEST PUSH1 0x0 PUSH2 0x3501 DUP3 PUSH2 0x3AC2 JUMP JUMPDEST PUSH2 0x350B DUP2 DUP6 PUSH2 0x3AE5 JUMP JUMPDEST SWAP4 POP DUP4 PUSH1 0x20 DUP3 MUL DUP6 ADD PUSH2 0x351D DUP6 PUSH2 0x3AB2 JUMP JUMPDEST DUP1 PUSH1 0x0 JUMPDEST DUP6 DUP2 LT ISZERO PUSH2 0x3559 JUMPI DUP5 DUP5 SUB DUP10 MSTORE DUP2 MLOAD PUSH2 0x353A DUP6 DUP3 PUSH2 0x34D3 JUMP JUMPDEST SWAP5 POP PUSH2 0x3545 DUP4 PUSH2 0x3AD8 JUMP JUMPDEST SWAP3 POP PUSH1 0x20 DUP11 ADD SWAP10 POP POP PUSH1 0x1 DUP2 ADD SWAP1 POP PUSH2 0x3521 JUMP JUMPDEST POP DUP3 SWAP8 POP DUP8 SWAP6 POP POP POP POP POP POP SWAP3 SWAP2 POP POP JUMP JUMPDEST PUSH1 0x0 PUSH2 0x3576 DUP3 PUSH2 0x3AC2 JUMP JUMPDEST PUSH2 0x3580 DUP2 DUP6 PUSH2 0x3AF6 JUMP JUMPDEST SWAP4 POP DUP4 PUSH1 0x20 DUP3 MUL DUP6 ADD PUSH2 0x3592 DUP6 PUSH2 0x3AB2 JUMP JUMPDEST DUP1 PUSH1 0x0 JUMPDEST DUP6 DUP2 LT ISZERO PUSH2 0x35CE JUMPI DUP5 DUP5 SUB DUP10 MSTORE DUP2 MLOAD PUSH2 0x35AF DUP6 DUP3 PUSH2 0x34D3 JUMP JUMPDEST SWAP5 POP PUSH2 0x35BA DUP4 PUSH2 0x3AD8 JUMP JUMPDEST SWAP3 POP PUSH1 0x20 DUP11 ADD SWAP10 POP POP PUSH1 0x1 DUP2 ADD SWAP1 POP PUSH2 0x3596 JUMP JUMPDEST POP DUP3 SWAP8 POP DUP8 SWAP6 POP POP POP POP POP POP SWAP3 SWAP2 POP POP JUMP JUMPDEST PUSH1 0x0 PUSH2 0x35EB DUP3 PUSH2 0x3ACD JUMP JUMPDEST PUSH2 0x35F5 DUP2 DUP6 PUSH2 0x3B07 JUMP JUMPDEST SWAP4 POP PUSH2 0x3605 DUP2 DUP6 PUSH1 0x20 DUP7 ADD PUSH2 0x3B74 JUMP JUMPDEST PUSH2 0x360E DUP2 PUSH2 0x3CB0 JUMP JUMPDEST DUP5 ADD SWAP2 POP POP SWAP3 SWAP2 POP POP JUMP JUMPDEST PUSH1 0x0 PUSH2 0x3624 DUP3 PUSH2 0x3ACD JUMP JUMPDEST PUSH2 0x362E DUP2 DUP6 PUSH2 0x3B18 JUMP JUMPDEST SWAP4 POP PUSH2 0x363E DUP2 DUP6 PUSH1 0x20 DUP7 ADD PUSH2 0x3B74 JUMP JUMPDEST PUSH2 0x3647 DUP2 PUSH2 0x3CB0 JUMP JUMPDEST DUP5 ADD SWAP2 POP POP SWAP3 SWAP2 POP POP JUMP JUMPDEST PUSH1 0x0 PUSH1 0x40 DUP4 ADD PUSH1 0x0 DUP4 ADD MLOAD DUP5 DUP3 SUB PUSH1 0x0 DUP7 ADD MSTORE PUSH2 0x366F DUP3 DUP3 PUSH2 0x34F6 JUMP JUMPDEST SWAP2 POP POP PUSH1 0x20 DUP4 ADD MLOAD DUP5 DUP3 SUB PUSH1 0x20 DUP7 ADD MSTORE PUSH2 0x3689 DUP3 DUP3 PUSH2 0x34F6 JUMP JUMPDEST SWAP2 POP POP DUP1 SWAP2 POP POP SWAP3 SWAP2 POP POP JUMP JUMPDEST PUSH1 0x0 PUSH1 0xC0 DUP4 ADD PUSH1 0x0 DUP4 ADD MLOAD DUP5 DUP3 SUB PUSH1 0x0 DUP7 ADD MSTORE PUSH2 0x36B3 DUP3 DUP3 PUSH2 0x35E0 JUMP JUMPDEST SWAP2 POP POP PUSH1 0x20 DUP4 ADD MLOAD DUP5 DUP3 SUB PUSH1 0x20 DUP7 ADD MSTORE PUSH2 0x36CD DUP3 DUP3 PUSH2 0x35E0 JUMP JUMPDEST SWAP2 POP POP PUSH1 0x40 DUP4 ADD MLOAD DUP5 DUP3 SUB PUSH1 0x40 DUP7 ADD MSTORE PUSH2 0x36E7 DUP3 DUP3 PUSH2 0x35E0 JUMP JUMPDEST SWAP2 POP POP PUSH1 0x60 DUP4 ADD MLOAD DUP5 DUP3 SUB PUSH1 0x60 DUP7 ADD MSTORE PUSH2 0x3701 DUP3 DUP3 PUSH2 0x35E0 JUMP JUMPDEST SWAP2 POP POP PUSH1 0x80 DUP4 ADD MLOAD DUP5 DUP3 SUB PUSH1 0x80 DUP7 ADD MSTORE PUSH2 0x371B DUP3 DUP3 PUSH2 0x35E0 JUMP JUMPDEST SWAP2 POP POP PUSH1 0xA0 DUP4 ADD MLOAD DUP5 DUP3 SUB PUSH1 0xA0 DUP7 ADD MSTORE PUSH2 0x3735 DUP3 DUP3 PUSH2 0x35E0 JUMP JUMPDEST SWAP2 POP POP DUP1 SWAP2 POP POP SWAP3 SWAP2 POP POP JUMP JUMPDEST PUSH1 0x0 PUSH2 0x100 DUP4 ADD PUSH1 0x0 DUP4 ADD MLOAD DUP5 DUP3 SUB PUSH1 0x0 DUP7 ADD MSTORE PUSH2 0x3760 DUP3 DUP3 PUSH2 0x35E0 JUMP JUMPDEST SWAP2 POP POP PUSH1 0x20 DUP4 ADD MLOAD DUP5 DUP3 SUB PUSH1 0x20 DUP7 ADD MSTORE PUSH2 0x377A DUP3 DUP3 PUSH2 0x35E0 JUMP JUMPDEST SWAP2 POP POP PUSH1 0x40 DUP4 ADD MLOAD PUSH2 0x378F PUSH1 0x40 DUP7 ADD DUP3 PUSH2 0x34E7 JUMP JUMPDEST POP PUSH1 0x60 DUP4 ADD MLOAD DUP5 DUP3 SUB PUSH1 0x60 DUP7 ADD MSTORE PUSH2 0x37A7 DUP3 DUP3 PUSH2 0x35E0 JUMP JUMPDEST SWAP2 POP POP PUSH1 0x80 DUP4 ADD MLOAD DUP5 DUP3 SUB PUSH1 0x80 DUP7 ADD MSTORE PUSH2 0x37C1 DUP3 DUP3 PUSH2 0x35E0 JUMP JUMPDEST SWAP2 POP POP PUSH1 0xA0 DUP4 ADD MLOAD DUP5 DUP3 SUB PUSH1 0xA0 DUP7 ADD MSTORE PUSH2 0x37DB DUP3 DUP3 PUSH2 0x35E0 JUMP JUMPDEST SWAP2 POP POP PUSH1 0xC0 DUP4 ADD MLOAD DUP5 DUP3 SUB PUSH1 0xC0 DUP7 ADD MSTORE PUSH2 0x37F5 DUP3 DUP3 PUSH2 0x35E0 JUMP JUMPDEST SWAP2 POP POP PUSH1 0xE0 DUP4 ADD MLOAD PUSH2 0x380A PUSH1 0xE0 DUP7 ADD DUP3 PUSH2 0x3873 JUMP JUMPDEST POP DUP1 SWAP2 POP POP SWAP3 SWAP2 POP POP JUMP JUMPDEST PUSH1 0x0 PUSH1 0x60 DUP4 ADD PUSH1 0x0 DUP4 ADD MLOAD DUP5 DUP3 SUB PUSH1 0x0 DUP7 ADD MSTORE PUSH2 0x3832 DUP3 DUP3 PUSH2 0x34F6 JUMP JUMPDEST SWAP2 POP POP PUSH1 0x20 DUP4 ADD MLOAD DUP5 DUP3 SUB PUSH1 0x20 DUP7 ADD MSTORE PUSH2 0x384C DUP3 DUP3 PUSH2 0x34F6 JUMP JUMPDEST SWAP2 POP POP PUSH1 0x40 DUP4 ADD MLOAD DUP5 DUP3 SUB PUSH1 0x40 DUP7 ADD MSTORE PUSH2 0x3866 DUP3 DUP3 PUSH2 0x34F6 JUMP JUMPDEST SWAP2 POP POP DUP1 SWAP2 POP POP SWAP3 SWAP2 POP POP JUMP JUMPDEST PUSH2 0x387C DUP2 PUSH2 0x3B5B JUMP JUMPDEST DUP3 MSTORE POP POP JUMP JUMPDEST PUSH2 0x388B DUP2 PUSH2 0x3B5B JUMP JUMPDEST DUP3 MSTORE POP POP JUMP JUMPDEST PUSH1 0x0 PUSH1 0x40 DUP3 ADD SWAP1 POP DUP2 DUP2 SUB PUSH1 0x0 DUP4 ADD MSTORE PUSH2 0x38AB DUP2 DUP6 PUSH2 0x3619 JUMP JUMPDEST SWAP1 POP DUP2 DUP2 SUB PUSH1 0x20 DUP4 ADD MSTORE PUSH2 0x38BF DUP2 DUP5 PUSH2 0x3619 JUMP JUMPDEST SWAP1 POP SWAP4 SWAP3 POP POP POP JUMP JUMPDEST PUSH1 0x0 PUSH1 0xA0 DUP3 ADD SWAP1 POP DUP2 DUP2 SUB PUSH1 0x0 DUP4 ADD MSTORE PUSH2 0x38E2 DUP2 DUP9 PUSH2 0x3619 JUMP JUMPDEST SWAP1 POP DUP2 DUP2 SUB PUSH1 0x20 DUP4 ADD MSTORE PUSH2 0x38F6 DUP2 DUP8 PUSH2 0x3619 JUMP JUMPDEST SWAP1 POP DUP2 DUP2 SUB PUSH1 0x40 DUP4 ADD MSTORE PUSH2 0x390A DUP2 DUP7 PUSH2 0x3619 JUMP JUMPDEST SWAP1 POP DUP2 DUP2 SUB PUSH1 0x60 DUP4 ADD MSTORE PUSH2 0x391E DUP2 DUP6 PUSH2 0x3619 JUMP JUMPDEST SWAP1 POP DUP2 DUP2 SUB PUSH1 0x80 DUP4 ADD MSTORE PUSH2 0x3932 DUP2 DUP5 PUSH2 0x356B JUMP JUMPDEST SWAP1 POP SWAP7 SWAP6 POP POP POP POP POP POP JUMP JUMPDEST PUSH1 0x0 PUSH1 0xA0 DUP3 ADD SWAP1 POP DUP2 DUP2 SUB PUSH1 0x0 DUP4 ADD MSTORE PUSH2 0x3958 DUP2 DUP9 PUSH2 0x3619 JUMP JUMPDEST SWAP1 POP DUP2 DUP2 SUB PUSH1 0x20 DUP4 ADD MSTORE PUSH2 0x396C DUP2 DUP8 PUSH2 0x3619 JUMP JUMPDEST SWAP1 POP DUP2 DUP2 SUB PUSH1 0x40 DUP4 ADD MSTORE PUSH2 0x3980 DUP2 DUP7 PUSH2 0x3619 JUMP JUMPDEST SWAP1 POP DUP2 DUP2 SUB PUSH1 0x60 DUP4 ADD MSTORE PUSH2 0x3994 DUP2 DUP6 PUSH2 0x3619 JUMP JUMPDEST SWAP1 POP DUP2 DUP2 SUB PUSH1 0x80 DUP4 ADD MSTORE PUSH2 0x39A8 DUP2 DUP5 PUSH2 0x3619 JUMP JUMPDEST SWAP1 POP SWAP7 SWAP6 POP POP POP POP POP POP JUMP JUMPDEST PUSH1 0x0 PUSH1 0x80 DUP3 ADD SWAP1 POP DUP2 DUP2 SUB PUSH1 0x0 DUP4 ADD MSTORE PUSH2 0x39CE DUP2 DUP8 PUSH2 0x3742 JUMP JUMPDEST SWAP1 POP DUP2 DUP2 SUB PUSH1 0x20 DUP4 ADD MSTORE PUSH2 0x39E2 DUP2 DUP7 PUSH2 0x3696 JUMP JUMPDEST SWAP1 POP DUP2 DUP2 SUB PUSH1 0x40 DUP4 ADD MSTORE PUSH2 0x39F6 DUP2 DUP6 PUSH2 0x3815 JUMP JUMPDEST SWAP1 POP DUP2 DUP2 SUB PUSH1 0x60 DUP4 ADD MSTORE PUSH2 0x3A0A DUP2 DUP5 PUSH2 0x3652 JUMP JUMPDEST SWAP1 POP SWAP6 SWAP5 POP POP POP POP POP JUMP JUMPDEST PUSH1 0x0 PUSH1 0x20 DUP3 ADD SWAP1 POP PUSH2 0x3A2A PUSH1 0x0 DUP4 ADD DUP5 PUSH2 0x3882 JUMP JUMPDEST SWAP3 SWAP2 POP POP JUMP JUMPDEST PUSH1 0x0 PUSH2 0x3A3A PUSH2 0x3A4B JUMP JUMPDEST SWAP1 POP PUSH2 0x3A46 DUP3 DUP3 PUSH2 0x3BD9 JUMP JUMPDEST SWAP2 SWAP1 POP JUMP JUMPDEST PUSH1 0x0 PUSH1 0x40 MLOAD SWAP1 POP SWAP1 JUMP JUMPDEST PUSH1 0x0 PUSH8 0xFFFFFFFFFFFFFFFF DUP3 GT ISZERO PUSH2 0x3A70 JUMPI PUSH2 0x3A6F PUSH2 0x3C68 JUMP JUMPDEST JUMPDEST PUSH1 0x20 DUP3 MUL SWAP1 POP PUSH1 0x20 DUP2 ADD SWAP1 POP SWAP2 SWAP1 POP JUMP JUMPDEST PUSH1 0x0 PUSH8 0xFFFFFFFFFFFFFFFF DUP3 GT ISZERO PUSH2 0x3A9C JUMPI PUSH2 0x3A9B PUSH2 0x3C68 JUMP JUMPDEST JUMPDEST PUSH2 0x3AA5 DUP3 PUSH2 0x3CB0 JUMP JUMPDEST SWAP1 POP PUSH1 0x20 DUP2 ADD SWAP1 POP SWAP2 SWAP1 POP JUMP JUMPDEST PUSH1 0x0 DUP2 SWAP1 POP PUSH1 0x20 DUP3 ADD SWAP1 POP SWAP2 SWAP1 POP JUMP JUMPDEST PUSH1 0x0 DUP2 MLOAD SWAP1 POP SWAP2 SWAP1 POP JUMP JUMPDEST PUSH1 0x0 DUP2 MLOAD SWAP1 POP SWAP2 SWAP1 POP JUMP JUMPDEST PUSH1 0x0 PUSH1 0x20 DUP3 ADD SWAP1 POP SWAP2 SWAP1 POP JUMP JUMPDEST PUSH1 0x0 DUP3 DUP3 MSTORE PUSH1 0x20 DUP3 ADD SWAP1 POP SWAP3 SWAP2 POP POP JUMP JUMPDEST PUSH1 0x0 DUP3 DUP3 MSTORE PUSH1 0x20 DUP3 ADD SWAP1 POP SWAP3 SWAP2 POP POP JUMP JUMPDEST PUSH1 0x0 DUP3 DUP3 MSTORE PUSH1 0x20 DUP3 ADD SWAP1 POP SWAP3 SWAP2 POP POP JUMP JUMPDEST PUSH1 0x0 DUP3 DUP3 MSTORE PUSH1 0x20 DUP3 ADD SWAP1 POP SWAP3 SWAP2 POP POP JUMP JUMPDEST PUSH1 0x0 PUSH2 0x3B34 DUP3 PUSH2 0x3B3B JUMP JUMPDEST SWAP1 POP SWAP2 SWAP1 POP JUMP JUMPDEST PUSH1 0x0 PUSH20 0xFFFFFFFFFFFFFFFFFFFFFFFFFFFFFFFFFFFFFFFF DUP3 AND SWAP1 POP SWAP2 SWAP1 POP JUMP JUMPDEST PUSH1 0x0 DUP2 SWAP1 POP SWAP2 SWAP1 POP JUMP JUMPDEST DUP3 DUP2 DUP4 CALLDATACOPY PUSH1 0x0 DUP4 DUP4 ADD MSTORE POP POP POP JUMP JUMPDEST PUSH1 0x0 JUMPDEST DUP4 DUP2 LT ISZERO PUSH2 0x3B92 JUMPI DUP1 DUP3 ADD MLOAD DUP2 DUP5 ADD MSTORE PUSH1 0x20 DUP2 ADD SWAP1 POP PUSH2 0x3B77 JUMP JUMPDEST DUP4 DUP2 GT ISZERO PUSH2 0x3BA1 JUMPI PUSH1 0x0 DUP5 DUP5 ADD MSTORE JUMPDEST POP POP POP POP JUMP JUMPDEST PUSH1 0x0 PUSH1 0x2 DUP3 DIV SWAP1 POP PUSH1 0x1 DUP3 AND DUP1 PUSH2 0x3BBF JUMPI PUSH1 0x7F DUP3 AND SWAP2 POP JUMPDEST PUSH1 0x20 DUP3 LT DUP2 EQ ISZERO PUSH2 0x3BD3 JUMPI PUSH2 0x3BD2 PUSH2 0x3C0A JUMP JUMPDEST JUMPDEST POP SWAP2 SWAP1 POP JUMP JUMPDEST PUSH2 0x3BE2 DUP3 PUSH2 0x3CB0 JUMP JUMPDEST DUP2 ADD DUP2 DUP2 LT PUSH8 0xFFFFFFFFFFFFFFFF DUP3 GT OR ISZERO PUSH2 0x3C01 JUMPI PUSH2 0x3C00 PUSH2 0x3C68 JUMP JUMPDEST JUMPDEST DUP1 PUSH1 0x40 MSTORE POP POP POP JUMP JUMPDEST PUSH32 0x4E487B7100000000000000000000000000000000000000000000000000000000 PUSH1 0x0 MSTORE PUSH1 0x22 PUSH1 0x4 MSTORE PUSH1 0x24 PUSH1 0x0 REVERT JUMPDEST PUSH32 0x4E487B7100000000000000000000000000000000000000000000000000000000 PUSH1 0x0 MSTORE PUSH1 0x32 PUSH1 0x4 MSTORE PUSH1 0x24 PUSH1 0x0 REVERT JUMPDEST PUSH32 0x4E487B7100000000000000000000000000000000000000000000000000000000 PUSH1 0x0 MSTORE PUSH1 0x41 PUSH1 0x4 MSTORE PUSH1 0x24 PUSH1 0x0 REVERT JUMPDEST PUSH1 0x0 DUP1 REVERT JUMPDEST PUSH1 0x0 DUP1 REVERT JUMPDEST PUSH1 0x0 DUP1 REVERT JUMPDEST PUSH1 0x0 DUP1 REVERT JUMPDEST PUSH1 0x0 DUP1 REVERT JUMPDEST PUSH1 0x0 PUSH1 0x1F NOT PUSH1 0x1F DUP4 ADD AND SWAP1 POP SWAP2 SWAP1 POP JUMP JUMPDEST PUSH2 0x3CCA DUP2 PUSH2 0x3B29 JUMP JUMPDEST DUP2 EQ PUSH2 0x3CD5 JUMPI PUSH1 0x0 DUP1 REVERT JUMPDEST POP JUMP JUMPDEST PUSH2 0x3CE1 DUP2 PUSH2 0x3B5B JUMP JUMPDEST DUP2 EQ PUSH2 0x3CEC JUMPI PUSH1 0x0 DUP1 REVERT JUMPDEST POP JUMP INVALID LOG2 PUSH5 0x6970667358 0x22 SLT KECCAK256 STOP 0xE6 0xDD GASPRICE 0xD9 SUB PUSH29 0x1305B721F066B06D3C4A5A28EDEDE75C78505A70D4C79494CB64736F6C PUSH4 0x43000807 STOP CALLER "
				},
				"gasEstimates": {
					"creation": {
						"codeDepositCost": "3130600",
						"executionCost": "3459",
						"totalCost": "3134059"
					},
					"external": {
						"createAward(string[],string[])": "infinite",
						"createCompanyExperience(string,string,string,string,string[])": "infinite",
						"createContract(string,string,string,string,string)": "infinite",
						"createEducation(string,string,string,string,string)": "infinite",
						"createFreelanceExperience(string,string)": "infinite",
						"createInformation(string,string,string,string,string,string)": "infinite",
						"createSkill(string[],string[],string[])": "infinite",
						"delAllEducation()": "infinite",
						"delCertificateAndAward()": "infinite",
						"delCompanyExperience()": "infinite",
						"delFreelanceExperience()": "infinite",
						"delInformaion()": "infinite",
						"delProfile()": "infinite",
						"getCompanyExperience(uint256)": "infinite",
						"getCompanyExperienceCount()": "2563",
						"getEducation(uint256)": "infinite",
						"getEducationCount()": "2629",
						"getFreelanceExperience(uint256)": "infinite",
						"getFreelanceExperienceCount()": "2564",
						"myBalance()": "2986",
						"profile(address)": "infinite"
					}
				},
				"methodIdentifiers": {
					"createAward(string[],string[])": "6c2cc774",
					"createCompanyExperience(string,string,string,string,string[])": "2a70da29",
					"createContract(string,string,string,string,string)": "72828388",
					"createEducation(string,string,string,string,string)": "c8ae20ff",
					"createFreelanceExperience(string,string)": "322a9849",
					"createInformation(string,string,string,string,string,string)": "958791ae",
					"createSkill(string[],string[],string[])": "3d984d0e",
					"delAllEducation()": "ed2217ef",
					"delCertificateAndAward()": "4ed74067",
					"delCompanyExperience()": "b240c619",
					"delFreelanceExperience()": "119d4cac",
					"delInformaion()": "95ea3757",
					"delProfile()": "fabce08f",
					"getCompanyExperience(uint256)": "47282f47",
					"getCompanyExperienceCount()": "420d8667",
					"getEducation(uint256)": "f96e32f8",
					"getEducationCount()": "6212fa02",
					"getFreelanceExperience(uint256)": "eb409730",
					"getFreelanceExperienceCount()": "10301638",
					"myBalance()": "c9116b69",
					"profile(address)": "9dd9d0fd"
				}
			},
			"storageLayout": {
				"storage": [
					{
						"astId": 31,
						"contract": "contracts/Profile.sol:Profile",
						"label": "profile",
						"offset": 0,
						"slot": "0",
						"type": "t_mapping(t_address,t_struct(Bio)26_storage)"
					}
				],
				"types": {
					"t_address": {
						"encoding": "inplace",
						"label": "address",
						"numberOfBytes": "20"
					},
					"t_array(t_string_storage)dyn_storage": {
						"base": "t_string_storage",
						"encoding": "dynamic_array",
						"label": "string[]",
						"numberOfBytes": "32"
					},
					"t_array(t_struct(CompanyExperience)83_storage)dyn_storage": {
						"base": "t_struct(CompanyExperience)83_storage",
						"encoding": "dynamic_array",
						"label": "struct Profile.CompanyExperience[]",
						"numberOfBytes": "32"
					},
					"t_array(t_struct(Education)99_storage)dyn_storage": {
						"base": "t_struct(Education)99_storage",
						"encoding": "dynamic_array",
						"label": "struct Profile.Education[]",
						"numberOfBytes": "32"
					},
					"t_array(t_struct(FreelanceExperience)88_storage)dyn_storage": {
						"base": "t_struct(FreelanceExperience)88_storage",
						"encoding": "dynamic_array",
						"label": "struct Profile.FreelanceExperience[]",
						"numberOfBytes": "32"
					},
					"t_mapping(t_address,t_struct(Bio)26_storage)": {
						"encoding": "mapping",
						"key": "t_address",
						"label": "mapping(address => struct Profile.Bio)",
						"numberOfBytes": "32",
						"value": "t_struct(Bio)26_storage"
					},
					"t_string_storage": {
						"encoding": "bytes",
						"label": "string",
						"numberOfBytes": "32"
					},
					"t_struct(Bio)26_storage": {
						"encoding": "inplace",
						"label": "struct Profile.Bio",
						"members": [
							{
								"astId": 4,
								"contract": "contracts/Profile.sol:Profile",
								"label": "information",
								"offset": 0,
								"slot": "0",
								"type": "t_struct(Information)48_storage"
							},
							{
								"astId": 7,
								"contract": "contracts/Profile.sol:Profile",
								"label": "privateContract",
								"offset": 0,
								"slot": "8",
								"type": "t_struct(Contract)61_storage"
							},
							{
								"astId": 10,
								"contract": "contracts/Profile.sol:Profile",
								"label": "skill",
								"offset": 0,
								"slot": "14",
								"type": "t_struct(Skill)71_storage"
							},
							{
								"astId": 14,
								"contract": "contracts/Profile.sol:Profile",
								"label": "education",
								"offset": 0,
								"slot": "17",
								"type": "t_array(t_struct(Education)99_storage)dyn_storage"
							},
							{
								"astId": 17,
								"contract": "contracts/Profile.sol:Profile",
								"label": "certificateAndAward",
								"offset": 0,
								"slot": "18",
								"type": "t_struct(CertificateAndAward)106_storage"
							},
							{
								"astId": 21,
								"contract": "contracts/Profile.sol:Profile",
								"label": "companyExperience",
								"offset": 0,
								"slot": "20",
								"type": "t_array(t_struct(CompanyExperience)83_storage)dyn_storage"
							},
							{
								"astId": 25,
								"contract": "contracts/Profile.sol:Profile",
								"label": "freelanceExperience",
								"offset": 0,
								"slot": "21",
								"type": "t_array(t_struct(FreelanceExperience)88_storage)dyn_storage"
							}
						],
						"numberOfBytes": "704"
					},
					"t_struct(CertificateAndAward)106_storage": {
						"encoding": "inplace",
						"label": "struct Profile.CertificateAndAward",
						"members": [
							{
								"astId": 102,
								"contract": "contracts/Profile.sol:Profile",
								"label": "certificate",
								"offset": 0,
								"slot": "0",
								"type": "t_array(t_string_storage)dyn_storage"
							},
							{
								"astId": 105,
								"contract": "contracts/Profile.sol:Profile",
								"label": "award",
								"offset": 0,
								"slot": "1",
								"type": "t_array(t_string_storage)dyn_storage"
							}
						],
						"numberOfBytes": "64"
					},
					"t_struct(CompanyExperience)83_storage": {
						"encoding": "inplace",
						"label": "struct Profile.CompanyExperience",
						"members": [
							{
								"astId": 73,
								"contract": "contracts/Profile.sol:Profile",
								"label": "companyName",
								"offset": 0,
								"slot": "0",
								"type": "t_string_storage"
							},
							{
								"astId": 75,
								"contract": "contracts/Profile.sol:Profile",
								"label": "position",
								"offset": 0,
								"slot": "1",
								"type": "t_string_storage"
							},
							{
								"astId": 77,
								"contract": "contracts/Profile.sol:Profile",
								"label": "startDate",
								"offset": 0,
								"slot": "2",
								"type": "t_string_storage"
							},
							{
								"astId": 79,
								"contract": "contracts/Profile.sol:Profile",
								"label": "endDate",
								"offset": 0,
								"slot": "3",
								"type": "t_string_storage"
							},
							{
								"astId": 82,
								"contract": "contracts/Profile.sol:Profile",
								"label": "project",
								"offset": 0,
								"slot": "4",
								"type": "t_array(t_string_storage)dyn_storage"
							}
						],
						"numberOfBytes": "160"
					},
					"t_struct(Contract)61_storage": {
						"encoding": "inplace",
						"label": "struct Profile.Contract",
						"members": [
							{
								"astId": 50,
								"contract": "contracts/Profile.sol:Profile",
								"label": "aboutMe",
								"offset": 0,
								"slot": "0",
								"type": "t_string_storage"
							},
							{
								"astId": 52,
								"contract": "contracts/Profile.sol:Profile",
								"label": "email",
								"offset": 0,
								"slot": "1",
								"type": "t_string_storage"
							},
							{
								"astId": 54,
								"contract": "contracts/Profile.sol:Profile",
								"label": "phone",
								"offset": 0,
								"slot": "2",
								"type": "t_string_storage"
							},
							{
								"astId": 56,
								"contract": "contracts/Profile.sol:Profile",
								"label": "github",
								"offset": 0,
								"slot": "3",
								"type": "t_string_storage"
							},
							{
								"astId": 58,
								"contract": "contracts/Profile.sol:Profile",
								"label": "gitlab",
								"offset": 0,
								"slot": "4",
								"type": "t_string_storage"
							},
							{
								"astId": 60,
								"contract": "contracts/Profile.sol:Profile",
								"label": "linkedin",
								"offset": 0,
								"slot": "5",
								"type": "t_string_storage"
							}
						],
						"numberOfBytes": "192"
					},
					"t_struct(Education)99_storage": {
						"encoding": "inplace",
						"label": "struct Profile.Education",
						"members": [
							{
								"astId": 90,
								"contract": "contracts/Profile.sol:Profile",
								"label": "startDate",
								"offset": 0,
								"slot": "0",
								"type": "t_string_storage"
							},
							{
								"astId": 92,
								"contract": "contracts/Profile.sol:Profile",
								"label": "endDate",
								"offset": 0,
								"slot": "1",
								"type": "t_string_storage"
							},
							{
								"astId": 94,
								"contract": "contracts/Profile.sol:Profile",
								"label": "university",
								"offset": 0,
								"slot": "2",
								"type": "t_string_storage"
							},
							{
								"astId": 96,
								"contract": "contracts/Profile.sol:Profile",
								"label": "major",
								"offset": 0,
								"slot": "3",
								"type": "t_string_storage"
							},
							{
								"astId": 98,
								"contract": "contracts/Profile.sol:Profile",
								"label": "finalProject",
								"offset": 0,
								"slot": "4",
								"type": "t_string_storage"
							}
						],
						"numberOfBytes": "160"
					},
					"t_struct(FreelanceExperience)88_storage": {
						"encoding": "inplace",
						"label": "struct Profile.FreelanceExperience",
						"members": [
							{
								"astId": 85,
								"contract": "contracts/Profile.sol:Profile",
								"label": "projectName",
								"offset": 0,
								"slot": "0",
								"type": "t_string_storage"
							},
							{
								"astId": 87,
								"contract": "contracts/Profile.sol:Profile",
								"label": "Detail",
								"offset": 0,
								"slot": "1",
								"type": "t_string_storage"
							}
						],
						"numberOfBytes": "64"
					},
					"t_struct(Information)48_storage": {
						"encoding": "inplace",
						"label": "struct Profile.Information",
						"members": [
							{
								"astId": 33,
								"contract": "contracts/Profile.sol:Profile",
								"label": "aboutMe",
								"offset": 0,
								"slot": "0",
								"type": "t_string_storage"
							},
							{
								"astId": 35,
								"contract": "contracts/Profile.sol:Profile",
								"label": "position",
								"offset": 0,
								"slot": "1",
								"type": "t_string_storage"
							},
							{
								"astId": 37,
								"contract": "contracts/Profile.sol:Profile",
								"label": "userAddress",
								"offset": 0,
								"slot": "2",
								"type": "t_address"
							},
							{
								"astId": 39,
								"contract": "contracts/Profile.sol:Profile",
								"label": "firstName",
								"offset": 0,
								"slot": "3",
								"type": "t_string_storage"
							},
							{
								"astId": 41,
								"contract": "contracts/Profile.sol:Profile",
								"label": "middleName",
								"offset": 0,
								"slot": "4",
								"type": "t_string_storage"
							},
							{
								"astId": 43,
								"contract": "contracts/Profile.sol:Profile",
								"label": "lastName",
								"offset": 0,
								"slot": "5",
								"type": "t_string_storage"
							},
							{
								"astId": 45,
								"contract": "contracts/Profile.sol:Profile",
								"label": "profileImage",
								"offset": 0,
								"slot": "6",
								"type": "t_string_storage"
							},
							{
								"astId": 47,
								"contract": "contracts/Profile.sol:Profile",
								"label": "createDate",
								"offset": 0,
								"slot": "7",
								"type": "t_uint256"
							}
						],
						"numberOfBytes": "256"
					},
					"t_struct(Skill)71_storage": {
						"encoding": "inplace",
						"label": "struct Profile.Skill",
						"members": [
							{
								"astId": 64,
								"contract": "contracts/Profile.sol:Profile",
								"label": "programmingLanguages",
								"offset": 0,
								"slot": "0",
								"type": "t_array(t_string_storage)dyn_storage"
							},
							{
								"astId": 67,
								"contract": "contracts/Profile.sol:Profile",
								"label": "framework",
								"offset": 0,
								"slot": "1",
								"type": "t_array(t_string_storage)dyn_storage"
							},
							{
								"astId": 70,
								"contract": "contracts/Profile.sol:Profile",
								"label": "databaseAndOther",
								"offset": 0,
								"slot": "2",
								"type": "t_array(t_string_storage)dyn_storage"
							}
						],
						"numberOfBytes": "96"
					},
					"t_uint256": {
						"encoding": "inplace",
						"label": "uint256",
						"numberOfBytes": "32"
					}
				}
			},
			"userdoc": {
				"kind": "user",
				"methods": {},
				"version": 1
			}
		}
	}
}