{
	"contracts/Profile.sol": {
		"Profile": {
			"abi": [
				{
					"inputs": [
						{
							"internalType": "string",
							"name": "firstName",
							"type": "string"
						},
						{
							"internalType": "string",
							"name": "middleName",
							"type": "string"
						},
						{
							"internalType": "string",
							"name": "lastName",
							"type": "string"
						},
						{
							"internalType": "string",
							"name": "email",
							"type": "string"
						},
						{
							"internalType": "string",
							"name": "phone",
							"type": "string"
						},
						{
							"internalType": "string",
							"name": "profileImage",
							"type": "string"
						}
					],
					"name": "addBio",
					"outputs": [],
					"stateMutability": "nonpayable",
					"type": "function"
				},
				{
					"inputs": [
						{
							"internalType": "address",
							"name": "_address",
							"type": "address"
						}
					],
					"name": "getBio",
					"outputs": [
						{
							"components": [
								{
									"internalType": "string",
									"name": "firstName",
									"type": "string"
								},
								{
									"internalType": "string",
									"name": "middleName",
									"type": "string"
								},
								{
									"internalType": "string",
									"name": "lastName",
									"type": "string"
								},
								{
									"internalType": "string",
									"name": "email",
									"type": "string"
								},
								{
									"internalType": "string",
									"name": "phone",
									"type": "string"
								},
								{
									"internalType": "string",
									"name": "profileImage",
									"type": "string"
								}
							],
							"internalType": "struct Profile.Bio",
							"name": "",
							"type": "tuple"
						}
					],
					"stateMutability": "view",
					"type": "function"
				},
				{
					"inputs": [
						{
							"internalType": "address",
							"name": "",
							"type": "address"
						}
					],
					"name": "profile",
					"outputs": [
						{
							"internalType": "string",
							"name": "firstName",
							"type": "string"
						},
						{
							"internalType": "string",
							"name": "middleName",
							"type": "string"
						},
						{
							"internalType": "string",
							"name": "lastName",
							"type": "string"
						},
						{
							"internalType": "string",
							"name": "email",
							"type": "string"
						},
						{
							"internalType": "string",
							"name": "phone",
							"type": "string"
						},
						{
							"internalType": "string",
							"name": "profileImage",
							"type": "string"
						}
					],
					"stateMutability": "view",
					"type": "function"
				}
			],
			"devdoc": {
				"kind": "dev",
				"methods": {},
				"version": 1
			},
			"evm": {
				"assembly": "    /* \"contracts/Profile.sol\":64:1109  contract Profile {\r... */\n  mstore(0x40, 0x80)\n  callvalue\n  dup1\n  iszero\n  tag_1\n  jumpi\n  0x00\n  dup1\n  revert\ntag_1:\n  pop\n  dataSize(sub_0)\n  dup1\n  dataOffset(sub_0)\n  0x00\n  codecopy\n  0x00\n  return\nstop\n\nsub_0: assembly {\n        /* \"contracts/Profile.sol\":64:1109  contract Profile {\r... */\n      mstore(0x40, 0x80)\n      callvalue\n      dup1\n      iszero\n      tag_1\n      jumpi\n      0x00\n      dup1\n      revert\n    tag_1:\n      pop\n      jumpi(tag_2, lt(calldatasize, 0x04))\n      shr(0xe0, calldataload(0x00))\n      dup1\n      0x3fd0bf17\n      eq\n      tag_3\n      jumpi\n      dup1\n      0x721041af\n      eq\n      tag_4\n      jumpi\n      dup1\n      0x9dd9d0fd\n      eq\n      tag_5\n      jumpi\n    tag_2:\n      0x00\n      dup1\n      revert\n        /* \"contracts/Profile.sol\":990:1100  function getBio(address _address ) public view returns(Bio memory) {\r... */\n    tag_3:\n      tag_6\n      0x04\n      dup1\n      calldatasize\n      sub\n      dup2\n      add\n      swap1\n      tag_7\n      swap2\n      swap1\n      tag_8\n      jump\t// in\n    tag_7:\n      tag_9\n      jump\t// in\n    tag_6:\n      mload(0x40)\n      tag_10\n      swap2\n      swap1\n      tag_11\n      jump\t// in\n    tag_10:\n      mload(0x40)\n      dup1\n      swap2\n      sub\n      swap1\n      return\n        /* \"contracts/Profile.sol\":504:982  function addBio(string memory firstName, string memory middleName, string memory lastName, string memory email, string memory phone, string memory profileImage) public {\r... */\n    tag_4:\n      tag_12\n      0x04\n      dup1\n      calldatasize\n      sub\n      dup2\n      add\n      swap1\n      tag_13\n      swap2\n      swap1\n      tag_14\n      jump\t// in\n    tag_13:\n      tag_15\n      jump\t// in\n    tag_12:\n      stop\n        /* \"contracts/Profile.sol\":274:314  mapping (address => Bio) public  profile */\n    tag_5:\n      tag_16\n      0x04\n      dup1\n      calldatasize\n      sub\n      dup2\n      add\n      swap1\n      tag_17\n      swap2\n      swap1\n      tag_8\n      jump\t// in\n    tag_17:\n      tag_18\n      jump\t// in\n    tag_16:\n      mload(0x40)\n      tag_19\n      swap7\n      swap6\n      swap5\n      swap4\n      swap3\n      swap2\n      swap1\n      tag_20\n      jump\t// in\n    tag_19:\n      mload(0x40)\n      dup1\n      swap2\n      sub\n      swap1\n      return\n        /* \"contracts/Profile.sol\":990:1100  function getBio(address _address ) public view returns(Bio memory) {\r... */\n    tag_9:\n        /* \"contracts/Profile.sol\":1045:1055  Bio memory */\n      tag_21\n      tag_22\n      jump\t// in\n    tag_21:\n        /* \"contracts/Profile.sol\":1075:1082  profile */\n      0x00\n        /* \"contracts/Profile.sol\":1075:1092  profile[_address] */\n      dup1\n        /* \"contracts/Profile.sol\":1083:1091  _address */\n      dup4\n        /* \"contracts/Profile.sol\":1075:1092  profile[_address] */\n      0xffffffffffffffffffffffffffffffffffffffff\n      and\n      0xffffffffffffffffffffffffffffffffffffffff\n      and\n      dup2\n      mstore\n      0x20\n      add\n      swap1\n      dup2\n      mstore\n      0x20\n      add\n      0x00\n      keccak256\n        /* \"contracts/Profile.sol\":1068:1092  return profile[_address] */\n      mload(0x40)\n      dup1\n      0xc0\n      add\n      0x40\n      mstore\n      swap1\n      dup2\n      0x00\n      dup3\n      add\n      dup1\n      sload\n      tag_24\n      swap1\n      tag_25\n      jump\t// in\n    tag_24:\n      dup1\n      0x1f\n      add\n      0x20\n      dup1\n      swap2\n      div\n      mul\n      0x20\n      add\n      mload(0x40)\n      swap1\n      dup2\n      add\n      0x40\n      mstore\n      dup1\n      swap3\n      swap2\n      swap1\n      dup2\n      dup2\n      mstore\n      0x20\n      add\n      dup3\n      dup1\n      sload\n      tag_26\n      swap1\n      tag_25\n      jump\t// in\n    tag_26:\n      dup1\n      iszero\n      tag_27\n      jumpi\n      dup1\n      0x1f\n      lt\n      tag_28\n      jumpi\n      0x0100\n      dup1\n      dup4\n      sload\n      div\n      mul\n      dup4\n      mstore\n      swap2\n      0x20\n      add\n      swap2\n      jump(tag_27)\n    tag_28:\n      dup3\n      add\n      swap2\n      swap1\n      0x00\n      mstore\n      keccak256(0x00, 0x20)\n      swap1\n    tag_29:\n      dup2\n      sload\n      dup2\n      mstore\n      swap1\n      0x01\n      add\n      swap1\n      0x20\n      add\n      dup1\n      dup4\n      gt\n      tag_29\n      jumpi\n      dup3\n      swap1\n      sub\n      0x1f\n      and\n      dup3\n      add\n      swap2\n    tag_27:\n      pop\n      pop\n      pop\n      pop\n      pop\n      dup2\n      mstore\n      0x20\n      add\n      0x01\n      dup3\n      add\n      dup1\n      sload\n      tag_30\n      swap1\n      tag_25\n      jump\t// in\n    tag_30:\n      dup1\n      0x1f\n      add\n      0x20\n      dup1\n      swap2\n      div\n      mul\n      0x20\n      add\n      mload(0x40)\n      swap1\n      dup2\n      add\n      0x40\n      mstore\n      dup1\n      swap3\n      swap2\n      swap1\n      dup2\n      dup2\n      mstore\n      0x20\n      add\n      dup3\n      dup1\n      sload\n      tag_31\n      swap1\n      tag_25\n      jump\t// in\n    tag_31:\n      dup1\n      iszero\n      tag_32\n      jumpi\n      dup1\n      0x1f\n      lt\n      tag_33\n      jumpi\n      0x0100\n      dup1\n      dup4\n      sload\n      div\n      mul\n      dup4\n      mstore\n      swap2\n      0x20\n      add\n      swap2\n      jump(tag_32)\n    tag_33:\n      dup3\n      add\n      swap2\n      swap1\n      0x00\n      mstore\n      keccak256(0x00, 0x20)\n      swap1\n    tag_34:\n      dup2\n      sload\n      dup2\n      mstore\n      swap1\n      0x01\n      add\n      swap1\n      0x20\n      add\n      dup1\n      dup4\n      gt\n      tag_34\n      jumpi\n      dup3\n      swap1\n      sub\n      0x1f\n      and\n      dup3\n      add\n      swap2\n    tag_32:\n      pop\n      pop\n      pop\n      pop\n      pop\n      dup2\n      mstore\n      0x20\n      add\n      0x02\n      dup3\n      add\n      dup1\n      sload\n      tag_35\n      swap1\n      tag_25\n      jump\t// in\n    tag_35:\n      dup1\n      0x1f\n      add\n      0x20\n      dup1\n      swap2\n      div\n      mul\n      0x20\n      add\n      mload(0x40)\n      swap1\n      dup2\n      add\n      0x40\n      mstore\n      dup1\n      swap3\n      swap2\n      swap1\n      dup2\n      dup2\n      mstore\n      0x20\n      add\n      dup3\n      dup1\n      sload\n      tag_36\n      swap1\n      tag_25\n      jump\t// in\n    tag_36:\n      dup1\n      iszero\n      tag_37\n      jumpi\n      dup1\n      0x1f\n      lt\n      tag_38\n      jumpi\n      0x0100\n      dup1\n      dup4\n      sload\n      div\n      mul\n      dup4\n      mstore\n      swap2\n      0x20\n      add\n      swap2\n      jump(tag_37)\n    tag_38:\n      dup3\n      add\n      swap2\n      swap1\n      0x00\n      mstore\n      keccak256(0x00, 0x20)\n      swap1\n    tag_39:\n      dup2\n      sload\n      dup2\n      mstore\n      swap1\n      0x01\n      add\n      swap1\n      0x20\n      add\n      dup1\n      dup4\n      gt\n      tag_39\n      jumpi\n      dup3\n      swap1\n      sub\n      0x1f\n      and\n      dup3\n      add\n      swap2\n    tag_37:\n      pop\n      pop\n      pop\n      pop\n      pop\n      dup2\n      mstore\n      0x20\n      add\n      0x03\n      dup3\n      add\n      dup1\n      sload\n      tag_40\n      swap1\n      tag_25\n      jump\t// in\n    tag_40:\n      dup1\n      0x1f\n      add\n      0x20\n      dup1\n      swap2\n      div\n      mul\n      0x20\n      add\n      mload(0x40)\n      swap1\n      dup2\n      add\n      0x40\n      mstore\n      dup1\n      swap3\n      swap2\n      swap1\n      dup2\n      dup2\n      mstore\n      0x20\n      add\n      dup3\n      dup1\n      sload\n      tag_41\n      swap1\n      tag_25\n      jump\t// in\n    tag_41:\n      dup1\n      iszero\n      tag_42\n      jumpi\n      dup1\n      0x1f\n      lt\n      tag_43\n      jumpi\n      0x0100\n      dup1\n      dup4\n      sload\n      div\n      mul\n      dup4\n      mstore\n      swap2\n      0x20\n      add\n      swap2\n      jump(tag_42)\n    tag_43:\n      dup3\n      add\n      swap2\n      swap1\n      0x00\n      mstore\n      keccak256(0x00, 0x20)\n      swap1\n    tag_44:\n      dup2\n      sload\n      dup2\n      mstore\n      swap1\n      0x01\n      add\n      swap1\n      0x20\n      add\n      dup1\n      dup4\n      gt\n      tag_44\n      jumpi\n      dup3\n      swap1\n      sub\n      0x1f\n      and\n      dup3\n      add\n      swap2\n    tag_42:\n      pop\n      pop\n      pop\n      pop\n      pop\n      dup2\n      mstore\n      0x20\n      add\n      0x04\n      dup3\n      add\n      dup1\n      sload\n      tag_45\n      swap1\n      tag_25\n      jump\t// in\n    tag_45:\n      dup1\n      0x1f\n      add\n      0x20\n      dup1\n      swap2\n      div\n      mul\n      0x20\n      add\n      mload(0x40)\n      swap1\n      dup2\n      add\n      0x40\n      mstore\n      dup1\n      swap3\n      swap2\n      swap1\n      dup2\n      dup2\n      mstore\n      0x20\n      add\n      dup3\n      dup1\n      sload\n      tag_46\n      swap1\n      tag_25\n      jump\t// in\n    tag_46:\n      dup1\n      iszero\n      tag_47\n      jumpi\n      dup1\n      0x1f\n      lt\n      tag_48\n      jumpi\n      0x0100\n      dup1\n      dup4\n      sload\n      div\n      mul\n      dup4\n      mstore\n      swap2\n      0x20\n      add\n      swap2\n      jump(tag_47)\n    tag_48:\n      dup3\n      add\n      swap2\n      swap1\n      0x00\n      mstore\n      keccak256(0x00, 0x20)\n      swap1\n    tag_49:\n      dup2\n      sload\n      dup2\n      mstore\n      swap1\n      0x01\n      add\n      swap1\n      0x20\n      add\n      dup1\n      dup4\n      gt\n      tag_49\n      jumpi\n      dup3\n      swap1\n      sub\n      0x1f\n      and\n      dup3\n      add\n      swap2\n    tag_47:\n      pop\n      pop\n      pop\n      pop\n      pop\n      dup2\n      mstore\n      0x20\n      add\n      0x05\n      dup3\n      add\n      dup1\n      sload\n      tag_50\n      swap1\n      tag_25\n      jump\t// in\n    tag_50:\n      dup1\n      0x1f\n      add\n      0x20\n      dup1\n      swap2\n      div\n      mul\n      0x20\n      add\n      mload(0x40)\n      swap1\n      dup2\n      add\n      0x40\n      mstore\n      dup1\n      swap3\n      swap2\n      swap1\n      dup2\n      dup2\n      mstore\n      0x20\n      add\n      dup3\n      dup1\n      sload\n      tag_51\n      swap1\n      tag_25\n      jump\t// in\n    tag_51:\n      dup1\n      iszero\n      tag_52\n      jumpi\n      dup1\n      0x1f\n      lt\n      tag_53\n      jumpi\n      0x0100\n      dup1\n      dup4\n      sload\n      div\n      mul\n      dup4\n      mstore\n      swap2\n      0x20\n      add\n      swap2\n      jump(tag_52)\n    tag_53:\n      dup3\n      add\n      swap2\n      swap1\n      0x00\n      mstore\n      keccak256(0x00, 0x20)\n      swap1\n    tag_54:\n      dup2\n      sload\n      dup2\n      mstore\n      swap1\n      0x01\n      add\n      swap1\n      0x20\n      add\n      dup1\n      dup4\n      gt\n      tag_54\n      jumpi\n      dup3\n      swap1\n      sub\n      0x1f\n      and\n      dup3\n      add\n      swap2\n    tag_52:\n      pop\n      pop\n      pop\n      pop\n      pop\n      dup2\n      mstore\n      pop\n      pop\n      swap1\n      pop\n        /* \"contracts/Profile.sol\":990:1100  function getBio(address _address ) public view returns(Bio memory) {\r... */\n      swap2\n      swap1\n      pop\n      jump\t// out\n        /* \"contracts/Profile.sol\":504:982  function addBio(string memory firstName, string memory middleName, string memory lastName, string memory email, string memory phone, string memory profileImage) public {\r... */\n    tag_15:\n        /* \"contracts/Profile.sol\":715:724  firstName */\n      dup6\n        /* \"contracts/Profile.sol\":683:690  profile */\n      0x00\n        /* \"contracts/Profile.sol\":683:702  profile[msg.sender] */\n      dup1\n        /* \"contracts/Profile.sol\":691:701  msg.sender */\n      caller\n        /* \"contracts/Profile.sol\":683:702  profile[msg.sender] */\n      0xffffffffffffffffffffffffffffffffffffffff\n      and\n      0xffffffffffffffffffffffffffffffffffffffff\n      and\n      dup2\n      mstore\n      0x20\n      add\n      swap1\n      dup2\n      mstore\n      0x20\n      add\n      0x00\n      keccak256\n        /* \"contracts/Profile.sol\":683:712  profile[msg.sender].firstName */\n      0x00\n      add\n        /* \"contracts/Profile.sol\":683:724  profile[msg.sender].firstName = firstName */\n      swap1\n      dup1\n      mload\n      swap1\n      0x20\n      add\n      swap1\n      tag_56\n      swap3\n      swap2\n      swap1\n      tag_57\n      jump\t// in\n    tag_56:\n      pop\n        /* \"contracts/Profile.sol\":768:778  middleName */\n      dup5\n        /* \"contracts/Profile.sol\":735:742  profile */\n      0x00\n        /* \"contracts/Profile.sol\":735:754  profile[msg.sender] */\n      dup1\n        /* \"contracts/Profile.sol\":743:753  msg.sender */\n      caller\n        /* \"contracts/Profile.sol\":735:754  profile[msg.sender] */\n      0xffffffffffffffffffffffffffffffffffffffff\n      and\n      0xffffffffffffffffffffffffffffffffffffffff\n      and\n      dup2\n      mstore\n      0x20\n      add\n      swap1\n      dup2\n      mstore\n      0x20\n      add\n      0x00\n      keccak256\n        /* \"contracts/Profile.sol\":735:765  profile[msg.sender].middleName */\n      0x01\n      add\n        /* \"contracts/Profile.sol\":735:778  profile[msg.sender].middleName = middleName */\n      swap1\n      dup1\n      mload\n      swap1\n      0x20\n      add\n      swap1\n      tag_58\n      swap3\n      swap2\n      swap1\n      tag_57\n      jump\t// in\n    tag_58:\n      pop\n        /* \"contracts/Profile.sol\":820:828  lastName */\n      dup4\n        /* \"contracts/Profile.sol\":789:796  profile */\n      0x00\n        /* \"contracts/Profile.sol\":789:808  profile[msg.sender] */\n      dup1\n        /* \"contracts/Profile.sol\":797:807  msg.sender */\n      caller\n        /* \"contracts/Profile.sol\":789:808  profile[msg.sender] */\n      0xffffffffffffffffffffffffffffffffffffffff\n      and\n      0xffffffffffffffffffffffffffffffffffffffff\n      and\n      dup2\n      mstore\n      0x20\n      add\n      swap1\n      dup2\n      mstore\n      0x20\n      add\n      0x00\n      keccak256\n        /* \"contracts/Profile.sol\":789:817  profile[msg.sender].lastName */\n      0x02\n      add\n        /* \"contracts/Profile.sol\":789:828  profile[msg.sender].lastName = lastName */\n      swap1\n      dup1\n      mload\n      swap1\n      0x20\n      add\n      swap1\n      tag_59\n      swap3\n      swap2\n      swap1\n      tag_57\n      jump\t// in\n    tag_59:\n      pop\n        /* \"contracts/Profile.sol\":867:872  email */\n      dup3\n        /* \"contracts/Profile.sol\":839:846  profile */\n      0x00\n        /* \"contracts/Profile.sol\":839:858  profile[msg.sender] */\n      dup1\n        /* \"contracts/Profile.sol\":847:857  msg.sender */\n      caller\n        /* \"contracts/Profile.sol\":839:858  profile[msg.sender] */\n      0xffffffffffffffffffffffffffffffffffffffff\n      and\n      0xffffffffffffffffffffffffffffffffffffffff\n      and\n      dup2\n      mstore\n      0x20\n      add\n      swap1\n      dup2\n      mstore\n      0x20\n      add\n      0x00\n      keccak256\n        /* \"contracts/Profile.sol\":839:864  profile[msg.sender].email */\n      0x03\n      add\n        /* \"contracts/Profile.sol\":839:872  profile[msg.sender].email = email */\n      swap1\n      dup1\n      mload\n      swap1\n      0x20\n      add\n      swap1\n      tag_60\n      swap3\n      swap2\n      swap1\n      tag_57\n      jump\t// in\n    tag_60:\n      pop\n        /* \"contracts/Profile.sol\":911:916  phone */\n      dup2\n        /* \"contracts/Profile.sol\":883:890  profile */\n      0x00\n        /* \"contracts/Profile.sol\":883:902  profile[msg.sender] */\n      dup1\n        /* \"contracts/Profile.sol\":891:901  msg.sender */\n      caller\n        /* \"contracts/Profile.sol\":883:902  profile[msg.sender] */\n      0xffffffffffffffffffffffffffffffffffffffff\n      and\n      0xffffffffffffffffffffffffffffffffffffffff\n      and\n      dup2\n      mstore\n      0x20\n      add\n      swap1\n      dup2\n      mstore\n      0x20\n      add\n      0x00\n      keccak256\n        /* \"contracts/Profile.sol\":883:908  profile[msg.sender].phone */\n      0x04\n      add\n        /* \"contracts/Profile.sol\":883:916  profile[msg.sender].phone = phone */\n      swap1\n      dup1\n      mload\n      swap1\n      0x20\n      add\n      swap1\n      tag_61\n      swap3\n      swap2\n      swap1\n      tag_57\n      jump\t// in\n    tag_61:\n      pop\n        /* \"contracts/Profile.sol\":962:974  profileImage */\n      dup1\n        /* \"contracts/Profile.sol\":927:934  profile */\n      0x00\n        /* \"contracts/Profile.sol\":927:946  profile[msg.sender] */\n      dup1\n        /* \"contracts/Profile.sol\":935:945  msg.sender */\n      caller\n        /* \"contracts/Profile.sol\":927:946  profile[msg.sender] */\n      0xffffffffffffffffffffffffffffffffffffffff\n      and\n      0xffffffffffffffffffffffffffffffffffffffff\n      and\n      dup2\n      mstore\n      0x20\n      add\n      swap1\n      dup2\n      mstore\n      0x20\n      add\n      0x00\n      keccak256\n        /* \"contracts/Profile.sol\":927:959  profile[msg.sender].profileImage */\n      0x05\n      add\n        /* \"contracts/Profile.sol\":927:974  profile[msg.sender].profileImage = profileImage */\n      swap1\n      dup1\n      mload\n      swap1\n      0x20\n      add\n      swap1\n      tag_62\n      swap3\n      swap2\n      swap1\n      tag_57\n      jump\t// in\n    tag_62:\n      pop\n        /* \"contracts/Profile.sol\":504:982  function addBio(string memory firstName, string memory middleName, string memory lastName, string memory email, string memory phone, string memory profileImage) public {\r... */\n      pop\n      pop\n      pop\n      pop\n      pop\n      pop\n      jump\t// out\n        /* \"contracts/Profile.sol\":274:314  mapping (address => Bio) public  profile */\n    tag_18:\n      mstore(0x20, 0x00)\n      dup1\n      0x00\n      mstore\n      keccak256(0x00, 0x40)\n      0x00\n      swap2\n      pop\n      swap1\n      pop\n      dup1\n      0x00\n      add\n      dup1\n      sload\n      tag_63\n      swap1\n      tag_25\n      jump\t// in\n    tag_63:\n      dup1\n      0x1f\n      add\n      0x20\n      dup1\n      swap2\n      div\n      mul\n      0x20\n      add\n      mload(0x40)\n      swap1\n      dup2\n      add\n      0x40\n      mstore\n      dup1\n      swap3\n      swap2\n      swap1\n      dup2\n      dup2\n      mstore\n      0x20\n      add\n      dup3\n      dup1\n      sload\n      tag_64\n      swap1\n      tag_25\n      jump\t// in\n    tag_64:\n      dup1\n      iszero\n      tag_65\n      jumpi\n      dup1\n      0x1f\n      lt\n      tag_66\n      jumpi\n      0x0100\n      dup1\n      dup4\n      sload\n      div\n      mul\n      dup4\n      mstore\n      swap2\n      0x20\n      add\n      swap2\n      jump(tag_65)\n    tag_66:\n      dup3\n      add\n      swap2\n      swap1\n      0x00\n      mstore\n      keccak256(0x00, 0x20)\n      swap1\n    tag_67:\n      dup2\n      sload\n      dup2\n      mstore\n      swap1\n      0x01\n      add\n      swap1\n      0x20\n      add\n      dup1\n      dup4\n      gt\n      tag_67\n      jumpi\n      dup3\n      swap1\n      sub\n      0x1f\n      and\n      dup3\n      add\n      swap2\n    tag_65:\n      pop\n      pop\n      pop\n      pop\n      pop\n      swap1\n      dup1\n      0x01\n      add\n      dup1\n      sload\n      tag_68\n      swap1\n      tag_25\n      jump\t// in\n    tag_68:\n      dup1\n      0x1f\n      add\n      0x20\n      dup1\n      swap2\n      div\n      mul\n      0x20\n      add\n      mload(0x40)\n      swap1\n      dup2\n      add\n      0x40\n      mstore\n      dup1\n      swap3\n      swap2\n      swap1\n      dup2\n      dup2\n      mstore\n      0x20\n      add\n      dup3\n      dup1\n      sload\n      tag_69\n      swap1\n      tag_25\n      jump\t// in\n    tag_69:\n      dup1\n      iszero\n      tag_70\n      jumpi\n      dup1\n      0x1f\n      lt\n      tag_71\n      jumpi\n      0x0100\n      dup1\n      dup4\n      sload\n      div\n      mul\n      dup4\n      mstore\n      swap2\n      0x20\n      add\n      swap2\n      jump(tag_70)\n    tag_71:\n      dup3\n      add\n      swap2\n      swap1\n      0x00\n      mstore\n      keccak256(0x00, 0x20)\n      swap1\n    tag_72:\n      dup2\n      sload\n      dup2\n      mstore\n      swap1\n      0x01\n      add\n      swap1\n      0x20\n      add\n      dup1\n      dup4\n      gt\n      tag_72\n      jumpi\n      dup3\n      swap1\n      sub\n      0x1f\n      and\n      dup3\n      add\n      swap2\n    tag_70:\n      pop\n      pop\n      pop\n      pop\n      pop\n      swap1\n      dup1\n      0x02\n      add\n      dup1\n      sload\n      tag_73\n      swap1\n      tag_25\n      jump\t// in\n    tag_73:\n      dup1\n      0x1f\n      add\n      0x20\n      dup1\n      swap2\n      div\n      mul\n      0x20\n      add\n      mload(0x40)\n      swap1\n      dup2\n      add\n      0x40\n      mstore\n      dup1\n      swap3\n      swap2\n      swap1\n      dup2\n      dup2\n      mstore\n      0x20\n      add\n      dup3\n      dup1\n      sload\n      tag_74\n      swap1\n      tag_25\n      jump\t// in\n    tag_74:\n      dup1\n      iszero\n      tag_75\n      jumpi\n      dup1\n      0x1f\n      lt\n      tag_76\n      jumpi\n      0x0100\n      dup1\n      dup4\n      sload\n      div\n      mul\n      dup4\n      mstore\n      swap2\n      0x20\n      add\n      swap2\n      jump(tag_75)\n    tag_76:\n      dup3\n      add\n      swap2\n      swap1\n      0x00\n      mstore\n      keccak256(0x00, 0x20)\n      swap1\n    tag_77:\n      dup2\n      sload\n      dup2\n      mstore\n      swap1\n      0x01\n      add\n      swap1\n      0x20\n      add\n      dup1\n      dup4\n      gt\n      tag_77\n      jumpi\n      dup3\n      swap1\n      sub\n      0x1f\n      and\n      dup3\n      add\n      swap2\n    tag_75:\n      pop\n      pop\n      pop\n      pop\n      pop\n      swap1\n      dup1\n      0x03\n      add\n      dup1\n      sload\n      tag_78\n      swap1\n      tag_25\n      jump\t// in\n    tag_78:\n      dup1\n      0x1f\n      add\n      0x20\n      dup1\n      swap2\n      div\n      mul\n      0x20\n      add\n      mload(0x40)\n      swap1\n      dup2\n      add\n      0x40\n      mstore\n      dup1\n      swap3\n      swap2\n      swap1\n      dup2\n      dup2\n      mstore\n      0x20\n      add\n      dup3\n      dup1\n      sload\n      tag_79\n      swap1\n      tag_25\n      jump\t// in\n    tag_79:\n      dup1\n      iszero\n      tag_80\n      jumpi\n      dup1\n      0x1f\n      lt\n      tag_81\n      jumpi\n      0x0100\n      dup1\n      dup4\n      sload\n      div\n      mul\n      dup4\n      mstore\n      swap2\n      0x20\n      add\n      swap2\n      jump(tag_80)\n    tag_81:\n      dup3\n      add\n      swap2\n      swap1\n      0x00\n      mstore\n      keccak256(0x00, 0x20)\n      swap1\n    tag_82:\n      dup2\n      sload\n      dup2\n      mstore\n      swap1\n      0x01\n      add\n      swap1\n      0x20\n      add\n      dup1\n      dup4\n      gt\n      tag_82\n      jumpi\n      dup3\n      swap1\n      sub\n      0x1f\n      and\n      dup3\n      add\n      swap2\n    tag_80:\n      pop\n      pop\n      pop\n      pop\n      pop\n      swap1\n      dup1\n      0x04\n      add\n      dup1\n      sload\n      tag_83\n      swap1\n      tag_25\n      jump\t// in\n    tag_83:\n      dup1\n      0x1f\n      add\n      0x20\n      dup1\n      swap2\n      div\n      mul\n      0x20\n      add\n      mload(0x40)\n      swap1\n      dup2\n      add\n      0x40\n      mstore\n      dup1\n      swap3\n      swap2\n      swap1\n      dup2\n      dup2\n      mstore\n      0x20\n      add\n      dup3\n      dup1\n      sload\n      tag_84\n      swap1\n      tag_25\n      jump\t// in\n    tag_84:\n      dup1\n      iszero\n      tag_85\n      jumpi\n      dup1\n      0x1f\n      lt\n      tag_86\n      jumpi\n      0x0100\n      dup1\n      dup4\n      sload\n      div\n      mul\n      dup4\n      mstore\n      swap2\n      0x20\n      add\n      swap2\n      jump(tag_85)\n    tag_86:\n      dup3\n      add\n      swap2\n      swap1\n      0x00\n      mstore\n      keccak256(0x00, 0x20)\n      swap1\n    tag_87:\n      dup2\n      sload\n      dup2\n      mstore\n      swap1\n      0x01\n      add\n      swap1\n      0x20\n      add\n      dup1\n      dup4\n      gt\n      tag_87\n      jumpi\n      dup3\n      swap1\n      sub\n      0x1f\n      and\n      dup3\n      add\n      swap2\n    tag_85:\n      pop\n      pop\n      pop\n      pop\n      pop\n      swap1\n      dup1\n      0x05\n      add\n      dup1\n      sload\n      tag_88\n      swap1\n      tag_25\n      jump\t// in\n    tag_88:\n      dup1\n      0x1f\n      add\n      0x20\n      dup1\n      swap2\n      div\n      mul\n      0x20\n      add\n      mload(0x40)\n      swap1\n      dup2\n      add\n      0x40\n      mstore\n      dup1\n      swap3\n      swap2\n      swap1\n      dup2\n      dup2\n      mstore\n      0x20\n      add\n      dup3\n      dup1\n      sload\n      tag_89\n      swap1\n      tag_25\n      jump\t// in\n    tag_89:\n      dup1\n      iszero\n      tag_90\n      jumpi\n      dup1\n      0x1f\n      lt\n      tag_91\n      jumpi\n      0x0100\n      dup1\n      dup4\n      sload\n      div\n      mul\n      dup4\n      mstore\n      swap2\n      0x20\n      add\n      swap2\n      jump(tag_90)\n    tag_91:\n      dup3\n      add\n      swap2\n      swap1\n      0x00\n      mstore\n      keccak256(0x00, 0x20)\n      swap1\n    tag_92:\n      dup2\n      sload\n      dup2\n      mstore\n      swap1\n      0x01\n      add\n      swap1\n      0x20\n      add\n      dup1\n      dup4\n      gt\n      tag_92\n      jumpi\n      dup3\n      swap1\n      sub\n      0x1f\n      and\n      dup3\n      add\n      swap2\n    tag_90:\n      pop\n      pop\n      pop\n      pop\n      pop\n      swap1\n      pop\n      dup7\n      jump\t// out\n    tag_22:\n      mload(0x40)\n      dup1\n      0xc0\n      add\n      0x40\n      mstore\n      dup1\n      0x60\n      dup2\n      mstore\n      0x20\n      add\n      0x60\n      dup2\n      mstore\n      0x20\n      add\n      0x60\n      dup2\n      mstore\n      0x20\n      add\n      0x60\n      dup2\n      mstore\n      0x20\n      add\n      0x60\n      dup2\n      mstore\n      0x20\n      add\n      0x60\n      dup2\n      mstore\n      pop\n      swap1\n      jump\t// out\n    tag_57:\n      dup3\n      dup1\n      sload\n      tag_93\n      swap1\n      tag_25\n      jump\t// in\n    tag_93:\n      swap1\n      0x00\n      mstore\n      keccak256(0x00, 0x20)\n      swap1\n      0x1f\n      add\n      0x20\n      swap1\n      div\n      dup2\n      add\n      swap3\n      dup3\n      tag_95\n      jumpi\n      0x00\n      dup6\n      sstore\n      jump(tag_94)\n    tag_95:\n      dup3\n      0x1f\n      lt\n      tag_96\n      jumpi\n      dup1\n      mload\n      not(0xff)\n      and\n      dup4\n      dup1\n      add\n      or\n      dup6\n      sstore\n      jump(tag_94)\n    tag_96:\n      dup3\n      dup1\n      add\n      0x01\n      add\n      dup6\n      sstore\n      dup3\n      iszero\n      tag_94\n      jumpi\n      swap2\n      dup3\n      add\n    tag_97:\n      dup3\n      dup2\n      gt\n      iszero\n      tag_98\n      jumpi\n      dup3\n      mload\n      dup3\n      sstore\n      swap2\n      0x20\n      add\n      swap2\n      swap1\n      0x01\n      add\n      swap1\n      jump(tag_97)\n    tag_98:\n    tag_94:\n      pop\n      swap1\n      pop\n      tag_99\n      swap2\n      swap1\n      tag_100\n      jump\t// in\n    tag_99:\n      pop\n      swap1\n      jump\t// out\n    tag_100:\n    tag_101:\n      dup1\n      dup3\n      gt\n      iszero\n      tag_102\n      jumpi\n      0x00\n      dup2\n      0x00\n      swap1\n      sstore\n      pop\n      0x01\n      add\n      jump(tag_101)\n    tag_102:\n      pop\n      swap1\n      jump\t// out\n        /* \"#utility.yul\":7:419   */\n    tag_104:\n        /* \"#utility.yul\":85:90   */\n      0x00\n        /* \"#utility.yul\":110:176   */\n      tag_106\n        /* \"#utility.yul\":126:175   */\n      tag_107\n        /* \"#utility.yul\":168:174   */\n      dup5\n        /* \"#utility.yul\":126:175   */\n      tag_108\n      jump\t// in\n    tag_107:\n        /* \"#utility.yul\":110:176   */\n      tag_109\n      jump\t// in\n    tag_106:\n        /* \"#utility.yul\":101:176   */\n      swap1\n      pop\n        /* \"#utility.yul\":199:205   */\n      dup3\n        /* \"#utility.yul\":192:197   */\n      dup2\n        /* \"#utility.yul\":185:206   */\n      mstore\n        /* \"#utility.yul\":237:241   */\n      0x20\n        /* \"#utility.yul\":230:235   */\n      dup2\n        /* \"#utility.yul\":226:242   */\n      add\n        /* \"#utility.yul\":275:278   */\n      dup5\n        /* \"#utility.yul\":266:272   */\n      dup5\n        /* \"#utility.yul\":261:264   */\n      dup5\n        /* \"#utility.yul\":257:273   */\n      add\n        /* \"#utility.yul\":254:279   */\n      gt\n        /* \"#utility.yul\":251:363   */\n      iszero\n      tag_110\n      jumpi\n        /* \"#utility.yul\":282:361   */\n      tag_111\n      tag_112\n      jump\t// in\n    tag_111:\n        /* \"#utility.yul\":251:363   */\n    tag_110:\n        /* \"#utility.yul\":372:413   */\n      tag_113\n        /* \"#utility.yul\":406:412   */\n      dup5\n        /* \"#utility.yul\":401:404   */\n      dup3\n        /* \"#utility.yul\":396:399   */\n      dup6\n        /* \"#utility.yul\":372:413   */\n      tag_114\n      jump\t// in\n    tag_113:\n        /* \"#utility.yul\":91:419   */\n      pop\n        /* \"#utility.yul\":7:419   */\n      swap4\n      swap3\n      pop\n      pop\n      pop\n      jump\t// out\n        /* \"#utility.yul\":425:564   */\n    tag_115:\n        /* \"#utility.yul\":471:476   */\n      0x00\n        /* \"#utility.yul\":509:515   */\n      dup2\n        /* \"#utility.yul\":496:516   */\n      calldataload\n        /* \"#utility.yul\":487:516   */\n      swap1\n      pop\n        /* \"#utility.yul\":525:558   */\n      tag_117\n        /* \"#utility.yul\":552:557   */\n      dup2\n        /* \"#utility.yul\":525:558   */\n      tag_118\n      jump\t// in\n    tag_117:\n        /* \"#utility.yul\":425:564   */\n      swap3\n      swap2\n      pop\n      pop\n      jump\t// out\n        /* \"#utility.yul\":584:924   */\n    tag_119:\n        /* \"#utility.yul\":640:645   */\n      0x00\n        /* \"#utility.yul\":689:692   */\n      dup3\n        /* \"#utility.yul\":682:686   */\n      0x1f\n        /* \"#utility.yul\":674:680   */\n      dup4\n        /* \"#utility.yul\":670:687   */\n      add\n        /* \"#utility.yul\":666:693   */\n      slt\n        /* \"#utility.yul\":656:778   */\n      tag_121\n      jumpi\n        /* \"#utility.yul\":697:776   */\n      tag_122\n      tag_123\n      jump\t// in\n    tag_122:\n        /* \"#utility.yul\":656:778   */\n    tag_121:\n        /* \"#utility.yul\":814:820   */\n      dup2\n        /* \"#utility.yul\":801:821   */\n      calldataload\n        /* \"#utility.yul\":839:918   */\n      tag_124\n        /* \"#utility.yul\":914:917   */\n      dup5\n        /* \"#utility.yul\":906:912   */\n      dup3\n        /* \"#utility.yul\":899:903   */\n      0x20\n        /* \"#utility.yul\":891:897   */\n      dup7\n        /* \"#utility.yul\":887:904   */\n      add\n        /* \"#utility.yul\":839:918   */\n      tag_104\n      jump\t// in\n    tag_124:\n        /* \"#utility.yul\":830:918   */\n      swap2\n      pop\n        /* \"#utility.yul\":646:924   */\n      pop\n        /* \"#utility.yul\":584:924   */\n      swap3\n      swap2\n      pop\n      pop\n      jump\t// out\n        /* \"#utility.yul\":930:1259   */\n    tag_8:\n        /* \"#utility.yul\":989:995   */\n      0x00\n        /* \"#utility.yul\":1038:1040   */\n      0x20\n        /* \"#utility.yul\":1026:1035   */\n      dup3\n        /* \"#utility.yul\":1017:1024   */\n      dup5\n        /* \"#utility.yul\":1013:1036   */\n      sub\n        /* \"#utility.yul\":1009:1041   */\n      slt\n        /* \"#utility.yul\":1006:1125   */\n      iszero\n      tag_126\n      jumpi\n        /* \"#utility.yul\":1044:1123   */\n      tag_127\n      tag_128\n      jump\t// in\n    tag_127:\n        /* \"#utility.yul\":1006:1125   */\n    tag_126:\n        /* \"#utility.yul\":1164:1165   */\n      0x00\n        /* \"#utility.yul\":1189:1242   */\n      tag_129\n        /* \"#utility.yul\":1234:1241   */\n      dup5\n        /* \"#utility.yul\":1225:1231   */\n      dup3\n        /* \"#utility.yul\":1214:1223   */\n      dup6\n        /* \"#utility.yul\":1210:1232   */\n      add\n        /* \"#utility.yul\":1189:1242   */\n      tag_115\n      jump\t// in\n    tag_129:\n        /* \"#utility.yul\":1179:1242   */\n      swap2\n      pop\n        /* \"#utility.yul\":1135:1252   */\n      pop\n        /* \"#utility.yul\":930:1259   */\n      swap3\n      swap2\n      pop\n      pop\n      jump\t// out\n        /* \"#utility.yul\":1265:3402   */\n    tag_14:\n        /* \"#utility.yul\":1429:1435   */\n      0x00\n        /* \"#utility.yul\":1437:1443   */\n      dup1\n        /* \"#utility.yul\":1445:1451   */\n      0x00\n        /* \"#utility.yul\":1453:1459   */\n      dup1\n        /* \"#utility.yul\":1461:1467   */\n      0x00\n        /* \"#utility.yul\":1469:1475   */\n      dup1\n        /* \"#utility.yul\":1518:1521   */\n      0xc0\n        /* \"#utility.yul\":1506:1515   */\n      dup8\n        /* \"#utility.yul\":1497:1504   */\n      dup10\n        /* \"#utility.yul\":1493:1516   */\n      sub\n        /* \"#utility.yul\":1489:1522   */\n      slt\n        /* \"#utility.yul\":1486:1606   */\n      iszero\n      tag_131\n      jumpi\n        /* \"#utility.yul\":1525:1604   */\n      tag_132\n      tag_128\n      jump\t// in\n    tag_132:\n        /* \"#utility.yul\":1486:1606   */\n    tag_131:\n        /* \"#utility.yul\":1673:1674   */\n      0x00\n        /* \"#utility.yul\":1662:1671   */\n      dup8\n        /* \"#utility.yul\":1658:1675   */\n      add\n        /* \"#utility.yul\":1645:1676   */\n      calldataload\n        /* \"#utility.yul\":1703:1721   */\n      0xffffffffffffffff\n        /* \"#utility.yul\":1695:1701   */\n      dup2\n        /* \"#utility.yul\":1692:1722   */\n      gt\n        /* \"#utility.yul\":1689:1806   */\n      iszero\n      tag_133\n      jumpi\n        /* \"#utility.yul\":1725:1804   */\n      tag_134\n      tag_135\n      jump\t// in\n    tag_134:\n        /* \"#utility.yul\":1689:1806   */\n    tag_133:\n        /* \"#utility.yul\":1830:1893   */\n      tag_136\n        /* \"#utility.yul\":1885:1892   */\n      dup10\n        /* \"#utility.yul\":1876:1882   */\n      dup3\n        /* \"#utility.yul\":1865:1874   */\n      dup11\n        /* \"#utility.yul\":1861:1883   */\n      add\n        /* \"#utility.yul\":1830:1893   */\n      tag_119\n      jump\t// in\n    tag_136:\n        /* \"#utility.yul\":1820:1893   */\n      swap7\n      pop\n        /* \"#utility.yul\":1616:1903   */\n      pop\n        /* \"#utility.yul\":1970:1972   */\n      0x20\n        /* \"#utility.yul\":1959:1968   */\n      dup8\n        /* \"#utility.yul\":1955:1973   */\n      add\n        /* \"#utility.yul\":1942:1974   */\n      calldataload\n        /* \"#utility.yul\":2001:2019   */\n      0xffffffffffffffff\n        /* \"#utility.yul\":1993:1999   */\n      dup2\n        /* \"#utility.yul\":1990:2020   */\n      gt\n        /* \"#utility.yul\":1987:2104   */\n      iszero\n      tag_137\n      jumpi\n        /* \"#utility.yul\":2023:2102   */\n      tag_138\n      tag_135\n      jump\t// in\n    tag_138:\n        /* \"#utility.yul\":1987:2104   */\n    tag_137:\n        /* \"#utility.yul\":2128:2191   */\n      tag_139\n        /* \"#utility.yul\":2183:2190   */\n      dup10\n        /* \"#utility.yul\":2174:2180   */\n      dup3\n        /* \"#utility.yul\":2163:2172   */\n      dup11\n        /* \"#utility.yul\":2159:2181   */\n      add\n        /* \"#utility.yul\":2128:2191   */\n      tag_119\n      jump\t// in\n    tag_139:\n        /* \"#utility.yul\":2118:2191   */\n      swap6\n      pop\n        /* \"#utility.yul\":1913:2201   */\n      pop\n        /* \"#utility.yul\":2268:2270   */\n      0x40\n        /* \"#utility.yul\":2257:2266   */\n      dup8\n        /* \"#utility.yul\":2253:2271   */\n      add\n        /* \"#utility.yul\":2240:2272   */\n      calldataload\n        /* \"#utility.yul\":2299:2317   */\n      0xffffffffffffffff\n        /* \"#utility.yul\":2291:2297   */\n      dup2\n        /* \"#utility.yul\":2288:2318   */\n      gt\n        /* \"#utility.yul\":2285:2402   */\n      iszero\n      tag_140\n      jumpi\n        /* \"#utility.yul\":2321:2400   */\n      tag_141\n      tag_135\n      jump\t// in\n    tag_141:\n        /* \"#utility.yul\":2285:2402   */\n    tag_140:\n        /* \"#utility.yul\":2426:2489   */\n      tag_142\n        /* \"#utility.yul\":2481:2488   */\n      dup10\n        /* \"#utility.yul\":2472:2478   */\n      dup3\n        /* \"#utility.yul\":2461:2470   */\n      dup11\n        /* \"#utility.yul\":2457:2479   */\n      add\n        /* \"#utility.yul\":2426:2489   */\n      tag_119\n      jump\t// in\n    tag_142:\n        /* \"#utility.yul\":2416:2489   */\n      swap5\n      pop\n        /* \"#utility.yul\":2211:2499   */\n      pop\n        /* \"#utility.yul\":2566:2568   */\n      0x60\n        /* \"#utility.yul\":2555:2564   */\n      dup8\n        /* \"#utility.yul\":2551:2569   */\n      add\n        /* \"#utility.yul\":2538:2570   */\n      calldataload\n        /* \"#utility.yul\":2597:2615   */\n      0xffffffffffffffff\n        /* \"#utility.yul\":2589:2595   */\n      dup2\n        /* \"#utility.yul\":2586:2616   */\n      gt\n        /* \"#utility.yul\":2583:2700   */\n      iszero\n      tag_143\n      jumpi\n        /* \"#utility.yul\":2619:2698   */\n      tag_144\n      tag_135\n      jump\t// in\n    tag_144:\n        /* \"#utility.yul\":2583:2700   */\n    tag_143:\n        /* \"#utility.yul\":2724:2787   */\n      tag_145\n        /* \"#utility.yul\":2779:2786   */\n      dup10\n        /* \"#utility.yul\":2770:2776   */\n      dup3\n        /* \"#utility.yul\":2759:2768   */\n      dup11\n        /* \"#utility.yul\":2755:2777   */\n      add\n        /* \"#utility.yul\":2724:2787   */\n      tag_119\n      jump\t// in\n    tag_145:\n        /* \"#utility.yul\":2714:2787   */\n      swap4\n      pop\n        /* \"#utility.yul\":2509:2797   */\n      pop\n        /* \"#utility.yul\":2864:2867   */\n      0x80\n        /* \"#utility.yul\":2853:2862   */\n      dup8\n        /* \"#utility.yul\":2849:2868   */\n      add\n        /* \"#utility.yul\":2836:2869   */\n      calldataload\n        /* \"#utility.yul\":2896:2914   */\n      0xffffffffffffffff\n        /* \"#utility.yul\":2888:2894   */\n      dup2\n        /* \"#utility.yul\":2885:2915   */\n      gt\n        /* \"#utility.yul\":2882:2999   */\n      iszero\n      tag_146\n      jumpi\n        /* \"#utility.yul\":2918:2997   */\n      tag_147\n      tag_135\n      jump\t// in\n    tag_147:\n        /* \"#utility.yul\":2882:2999   */\n    tag_146:\n        /* \"#utility.yul\":3023:3086   */\n      tag_148\n        /* \"#utility.yul\":3078:3085   */\n      dup10\n        /* \"#utility.yul\":3069:3075   */\n      dup3\n        /* \"#utility.yul\":3058:3067   */\n      dup11\n        /* \"#utility.yul\":3054:3076   */\n      add\n        /* \"#utility.yul\":3023:3086   */\n      tag_119\n      jump\t// in\n    tag_148:\n        /* \"#utility.yul\":3013:3086   */\n      swap3\n      pop\n        /* \"#utility.yul\":2807:3096   */\n      pop\n        /* \"#utility.yul\":3163:3166   */\n      0xa0\n        /* \"#utility.yul\":3152:3161   */\n      dup8\n        /* \"#utility.yul\":3148:3167   */\n      add\n        /* \"#utility.yul\":3135:3168   */\n      calldataload\n        /* \"#utility.yul\":3195:3213   */\n      0xffffffffffffffff\n        /* \"#utility.yul\":3187:3193   */\n      dup2\n        /* \"#utility.yul\":3184:3214   */\n      gt\n        /* \"#utility.yul\":3181:3298   */\n      iszero\n      tag_149\n      jumpi\n        /* \"#utility.yul\":3217:3296   */\n      tag_150\n      tag_135\n      jump\t// in\n    tag_150:\n        /* \"#utility.yul\":3181:3298   */\n    tag_149:\n        /* \"#utility.yul\":3322:3385   */\n      tag_151\n        /* \"#utility.yul\":3377:3384   */\n      dup10\n        /* \"#utility.yul\":3368:3374   */\n      dup3\n        /* \"#utility.yul\":3357:3366   */\n      dup11\n        /* \"#utility.yul\":3353:3375   */\n      add\n        /* \"#utility.yul\":3322:3385   */\n      tag_119\n      jump\t// in\n    tag_151:\n        /* \"#utility.yul\":3312:3385   */\n      swap2\n      pop\n        /* \"#utility.yul\":3106:3395   */\n      pop\n        /* \"#utility.yul\":1265:3402   */\n      swap3\n      swap6\n      pop\n      swap3\n      swap6\n      pop\n      swap3\n      swap6\n      jump\t// out\n        /* \"#utility.yul\":3408:3752   */\n    tag_152:\n        /* \"#utility.yul\":3486:3489   */\n      0x00\n        /* \"#utility.yul\":3514:3553   */\n      tag_154\n        /* \"#utility.yul\":3547:3552   */\n      dup3\n        /* \"#utility.yul\":3514:3553   */\n      tag_155\n      jump\t// in\n    tag_154:\n        /* \"#utility.yul\":3569:3630   */\n      tag_156\n        /* \"#utility.yul\":3623:3629   */\n      dup2\n        /* \"#utility.yul\":3618:3621   */\n      dup6\n        /* \"#utility.yul\":3569:3630   */\n      tag_157\n      jump\t// in\n    tag_156:\n        /* \"#utility.yul\":3562:3630   */\n      swap4\n      pop\n        /* \"#utility.yul\":3639:3691   */\n      tag_158\n        /* \"#utility.yul\":3684:3690   */\n      dup2\n        /* \"#utility.yul\":3679:3682   */\n      dup6\n        /* \"#utility.yul\":3672:3676   */\n      0x20\n        /* \"#utility.yul\":3665:3670   */\n      dup7\n        /* \"#utility.yul\":3661:3677   */\n      add\n        /* \"#utility.yul\":3639:3691   */\n      tag_159\n      jump\t// in\n    tag_158:\n        /* \"#utility.yul\":3716:3745   */\n      tag_160\n        /* \"#utility.yul\":3738:3744   */\n      dup2\n        /* \"#utility.yul\":3716:3745   */\n      tag_161\n      jump\t// in\n    tag_160:\n        /* \"#utility.yul\":3711:3714   */\n      dup5\n        /* \"#utility.yul\":3707:3746   */\n      add\n        /* \"#utility.yul\":3700:3746   */\n      swap2\n      pop\n        /* \"#utility.yul\":3490:3752   */\n      pop\n        /* \"#utility.yul\":3408:3752   */\n      swap3\n      swap2\n      pop\n      pop\n      jump\t// out\n        /* \"#utility.yul\":3758:4122   */\n    tag_162:\n        /* \"#utility.yul\":3846:3849   */\n      0x00\n        /* \"#utility.yul\":3874:3913   */\n      tag_164\n        /* \"#utility.yul\":3907:3912   */\n      dup3\n        /* \"#utility.yul\":3874:3913   */\n      tag_155\n      jump\t// in\n    tag_164:\n        /* \"#utility.yul\":3929:4000   */\n      tag_165\n        /* \"#utility.yul\":3993:3999   */\n      dup2\n        /* \"#utility.yul\":3988:3991   */\n      dup6\n        /* \"#utility.yul\":3929:4000   */\n      tag_166\n      jump\t// in\n    tag_165:\n        /* \"#utility.yul\":3922:4000   */\n      swap4\n      pop\n        /* \"#utility.yul\":4009:4061   */\n      tag_167\n        /* \"#utility.yul\":4054:4060   */\n      dup2\n        /* \"#utility.yul\":4049:4052   */\n      dup6\n        /* \"#utility.yul\":4042:4046   */\n      0x20\n        /* \"#utility.yul\":4035:4040   */\n      dup7\n        /* \"#utility.yul\":4031:4047   */\n      add\n        /* \"#utility.yul\":4009:4061   */\n      tag_159\n      jump\t// in\n    tag_167:\n        /* \"#utility.yul\":4086:4115   */\n      tag_168\n        /* \"#utility.yul\":4108:4114   */\n      dup2\n        /* \"#utility.yul\":4086:4115   */\n      tag_161\n      jump\t// in\n    tag_168:\n        /* \"#utility.yul\":4081:4084   */\n      dup5\n        /* \"#utility.yul\":4077:4116   */\n      add\n        /* \"#utility.yul\":4070:4116   */\n      swap2\n      pop\n        /* \"#utility.yul\":3850:4122   */\n      pop\n        /* \"#utility.yul\":3758:4122   */\n      swap3\n      swap2\n      pop\n      pop\n      jump\t// out\n        /* \"#utility.yul\":4176:5846   */\n    tag_169:\n        /* \"#utility.yul\":4283:4286   */\n      0x00\n        /* \"#utility.yul\":4319:4323   */\n      0xc0\n        /* \"#utility.yul\":4314:4317   */\n      dup4\n        /* \"#utility.yul\":4310:4324   */\n      add\n        /* \"#utility.yul\":4411:4415   */\n      0x00\n        /* \"#utility.yul\":4404:4409   */\n      dup4\n        /* \"#utility.yul\":4400:4416   */\n      add\n        /* \"#utility.yul\":4394:4417   */\n      mload\n        /* \"#utility.yul\":4464:4467   */\n      dup5\n        /* \"#utility.yul\":4458:4462   */\n      dup3\n        /* \"#utility.yul\":4454:4468   */\n      sub\n        /* \"#utility.yul\":4447:4451   */\n      0x00\n        /* \"#utility.yul\":4442:4445   */\n      dup7\n        /* \"#utility.yul\":4438:4452   */\n      add\n        /* \"#utility.yul\":4431:4469   */\n      mstore\n        /* \"#utility.yul\":4490:4563   */\n      tag_171\n        /* \"#utility.yul\":4558:4562   */\n      dup3\n        /* \"#utility.yul\":4544:4556   */\n      dup3\n        /* \"#utility.yul\":4490:4563   */\n      tag_152\n      jump\t// in\n    tag_171:\n        /* \"#utility.yul\":4482:4563   */\n      swap2\n      pop\n        /* \"#utility.yul\":4334:4574   */\n      pop\n        /* \"#utility.yul\":4662:4666   */\n      0x20\n        /* \"#utility.yul\":4655:4660   */\n      dup4\n        /* \"#utility.yul\":4651:4667   */\n      add\n        /* \"#utility.yul\":4645:4668   */\n      mload\n        /* \"#utility.yul\":4715:4718   */\n      dup5\n        /* \"#utility.yul\":4709:4713   */\n      dup3\n        /* \"#utility.yul\":4705:4719   */\n      sub\n        /* \"#utility.yul\":4698:4702   */\n      0x20\n        /* \"#utility.yul\":4693:4696   */\n      dup7\n        /* \"#utility.yul\":4689:4703   */\n      add\n        /* \"#utility.yul\":4682:4720   */\n      mstore\n        /* \"#utility.yul\":4741:4814   */\n      tag_172\n        /* \"#utility.yul\":4809:4813   */\n      dup3\n        /* \"#utility.yul\":4795:4807   */\n      dup3\n        /* \"#utility.yul\":4741:4814   */\n      tag_152\n      jump\t// in\n    tag_172:\n        /* \"#utility.yul\":4733:4814   */\n      swap2\n      pop\n        /* \"#utility.yul\":4584:4825   */\n      pop\n        /* \"#utility.yul\":4911:4915   */\n      0x40\n        /* \"#utility.yul\":4904:4909   */\n      dup4\n        /* \"#utility.yul\":4900:4916   */\n      add\n        /* \"#utility.yul\":4894:4917   */\n      mload\n        /* \"#utility.yul\":4964:4967   */\n      dup5\n        /* \"#utility.yul\":4958:4962   */\n      dup3\n        /* \"#utility.yul\":4954:4968   */\n      sub\n        /* \"#utility.yul\":4947:4951   */\n      0x40\n        /* \"#utility.yul\":4942:4945   */\n      dup7\n        /* \"#utility.yul\":4938:4952   */\n      add\n        /* \"#utility.yul\":4931:4969   */\n      mstore\n        /* \"#utility.yul\":4990:5063   */\n      tag_173\n        /* \"#utility.yul\":5058:5062   */\n      dup3\n        /* \"#utility.yul\":5044:5056   */\n      dup3\n        /* \"#utility.yul\":4990:5063   */\n      tag_152\n      jump\t// in\n    tag_173:\n        /* \"#utility.yul\":4982:5063   */\n      swap2\n      pop\n        /* \"#utility.yul\":4835:5074   */\n      pop\n        /* \"#utility.yul\":5157:5161   */\n      0x60\n        /* \"#utility.yul\":5150:5155   */\n      dup4\n        /* \"#utility.yul\":5146:5162   */\n      add\n        /* \"#utility.yul\":5140:5163   */\n      mload\n        /* \"#utility.yul\":5210:5213   */\n      dup5\n        /* \"#utility.yul\":5204:5208   */\n      dup3\n        /* \"#utility.yul\":5200:5214   */\n      sub\n        /* \"#utility.yul\":5193:5197   */\n      0x60\n        /* \"#utility.yul\":5188:5191   */\n      dup7\n        /* \"#utility.yul\":5184:5198   */\n      add\n        /* \"#utility.yul\":5177:5215   */\n      mstore\n        /* \"#utility.yul\":5236:5309   */\n      tag_174\n        /* \"#utility.yul\":5304:5308   */\n      dup3\n        /* \"#utility.yul\":5290:5302   */\n      dup3\n        /* \"#utility.yul\":5236:5309   */\n      tag_152\n      jump\t// in\n    tag_174:\n        /* \"#utility.yul\":5228:5309   */\n      swap2\n      pop\n        /* \"#utility.yul\":5084:5320   */\n      pop\n        /* \"#utility.yul\":5403:5407   */\n      0x80\n        /* \"#utility.yul\":5396:5401   */\n      dup4\n        /* \"#utility.yul\":5392:5408   */\n      add\n        /* \"#utility.yul\":5386:5409   */\n      mload\n        /* \"#utility.yul\":5456:5459   */\n      dup5\n        /* \"#utility.yul\":5450:5454   */\n      dup3\n        /* \"#utility.yul\":5446:5460   */\n      sub\n        /* \"#utility.yul\":5439:5443   */\n      0x80\n        /* \"#utility.yul\":5434:5437   */\n      dup7\n        /* \"#utility.yul\":5430:5444   */\n      add\n        /* \"#utility.yul\":5423:5461   */\n      mstore\n        /* \"#utility.yul\":5482:5555   */\n      tag_175\n        /* \"#utility.yul\":5550:5554   */\n      dup3\n        /* \"#utility.yul\":5536:5548   */\n      dup3\n        /* \"#utility.yul\":5482:5555   */\n      tag_152\n      jump\t// in\n    tag_175:\n        /* \"#utility.yul\":5474:5555   */\n      swap2\n      pop\n        /* \"#utility.yul\":5330:5566   */\n      pop\n        /* \"#utility.yul\":5656:5660   */\n      0xa0\n        /* \"#utility.yul\":5649:5654   */\n      dup4\n        /* \"#utility.yul\":5645:5661   */\n      add\n        /* \"#utility.yul\":5639:5662   */\n      mload\n        /* \"#utility.yul\":5709:5712   */\n      dup5\n        /* \"#utility.yul\":5703:5707   */\n      dup3\n        /* \"#utility.yul\":5699:5713   */\n      sub\n        /* \"#utility.yul\":5692:5696   */\n      0xa0\n        /* \"#utility.yul\":5687:5690   */\n      dup7\n        /* \"#utility.yul\":5683:5697   */\n      add\n        /* \"#utility.yul\":5676:5714   */\n      mstore\n        /* \"#utility.yul\":5735:5808   */\n      tag_176\n        /* \"#utility.yul\":5803:5807   */\n      dup3\n        /* \"#utility.yul\":5789:5801   */\n      dup3\n        /* \"#utility.yul\":5735:5808   */\n      tag_152\n      jump\t// in\n    tag_176:\n        /* \"#utility.yul\":5727:5808   */\n      swap2\n      pop\n        /* \"#utility.yul\":5576:5819   */\n      pop\n        /* \"#utility.yul\":5836:5840   */\n      dup1\n        /* \"#utility.yul\":5829:5840   */\n      swap2\n      pop\n        /* \"#utility.yul\":4288:5846   */\n      pop\n        /* \"#utility.yul\":4176:5846   */\n      swap3\n      swap2\n      pop\n      pop\n      jump\t// out\n        /* \"#utility.yul\":5852:7173   */\n    tag_20:\n        /* \"#utility.yul\":6205:6209   */\n      0x00\n        /* \"#utility.yul\":6243:6246   */\n      0xc0\n        /* \"#utility.yul\":6232:6241   */\n      dup3\n        /* \"#utility.yul\":6228:6247   */\n      add\n        /* \"#utility.yul\":6220:6247   */\n      swap1\n      pop\n        /* \"#utility.yul\":6293:6302   */\n      dup2\n        /* \"#utility.yul\":6287:6291   */\n      dup2\n        /* \"#utility.yul\":6283:6303   */\n      sub\n        /* \"#utility.yul\":6279:6280   */\n      0x00\n        /* \"#utility.yul\":6268:6277   */\n      dup4\n        /* \"#utility.yul\":6264:6281   */\n      add\n        /* \"#utility.yul\":6257:6304   */\n      mstore\n        /* \"#utility.yul\":6321:6399   */\n      tag_178\n        /* \"#utility.yul\":6394:6398   */\n      dup2\n        /* \"#utility.yul\":6385:6391   */\n      dup10\n        /* \"#utility.yul\":6321:6399   */\n      tag_162\n      jump\t// in\n    tag_178:\n        /* \"#utility.yul\":6313:6399   */\n      swap1\n      pop\n        /* \"#utility.yul\":6446:6455   */\n      dup2\n        /* \"#utility.yul\":6440:6444   */\n      dup2\n        /* \"#utility.yul\":6436:6456   */\n      sub\n        /* \"#utility.yul\":6431:6433   */\n      0x20\n        /* \"#utility.yul\":6420:6429   */\n      dup4\n        /* \"#utility.yul\":6416:6434   */\n      add\n        /* \"#utility.yul\":6409:6457   */\n      mstore\n        /* \"#utility.yul\":6474:6552   */\n      tag_179\n        /* \"#utility.yul\":6547:6551   */\n      dup2\n        /* \"#utility.yul\":6538:6544   */\n      dup9\n        /* \"#utility.yul\":6474:6552   */\n      tag_162\n      jump\t// in\n    tag_179:\n        /* \"#utility.yul\":6466:6552   */\n      swap1\n      pop\n        /* \"#utility.yul\":6599:6608   */\n      dup2\n        /* \"#utility.yul\":6593:6597   */\n      dup2\n        /* \"#utility.yul\":6589:6609   */\n      sub\n        /* \"#utility.yul\":6584:6586   */\n      0x40\n        /* \"#utility.yul\":6573:6582   */\n      dup4\n        /* \"#utility.yul\":6569:6587   */\n      add\n        /* \"#utility.yul\":6562:6610   */\n      mstore\n        /* \"#utility.yul\":6627:6705   */\n      tag_180\n        /* \"#utility.yul\":6700:6704   */\n      dup2\n        /* \"#utility.yul\":6691:6697   */\n      dup8\n        /* \"#utility.yul\":6627:6705   */\n      tag_162\n      jump\t// in\n    tag_180:\n        /* \"#utility.yul\":6619:6705   */\n      swap1\n      pop\n        /* \"#utility.yul\":6752:6761   */\n      dup2\n        /* \"#utility.yul\":6746:6750   */\n      dup2\n        /* \"#utility.yul\":6742:6762   */\n      sub\n        /* \"#utility.yul\":6737:6739   */\n      0x60\n        /* \"#utility.yul\":6726:6735   */\n      dup4\n        /* \"#utility.yul\":6722:6740   */\n      add\n        /* \"#utility.yul\":6715:6763   */\n      mstore\n        /* \"#utility.yul\":6780:6858   */\n      tag_181\n        /* \"#utility.yul\":6853:6857   */\n      dup2\n        /* \"#utility.yul\":6844:6850   */\n      dup7\n        /* \"#utility.yul\":6780:6858   */\n      tag_162\n      jump\t// in\n    tag_181:\n        /* \"#utility.yul\":6772:6858   */\n      swap1\n      pop\n        /* \"#utility.yul\":6906:6915   */\n      dup2\n        /* \"#utility.yul\":6900:6904   */\n      dup2\n        /* \"#utility.yul\":6896:6916   */\n      sub\n        /* \"#utility.yul\":6890:6893   */\n      0x80\n        /* \"#utility.yul\":6879:6888   */\n      dup4\n        /* \"#utility.yul\":6875:6894   */\n      add\n        /* \"#utility.yul\":6868:6917   */\n      mstore\n        /* \"#utility.yul\":6934:7012   */\n      tag_182\n        /* \"#utility.yul\":7007:7011   */\n      dup2\n        /* \"#utility.yul\":6998:7004   */\n      dup6\n        /* \"#utility.yul\":6934:7012   */\n      tag_162\n      jump\t// in\n    tag_182:\n        /* \"#utility.yul\":6926:7012   */\n      swap1\n      pop\n        /* \"#utility.yul\":7060:7069   */\n      dup2\n        /* \"#utility.yul\":7054:7058   */\n      dup2\n        /* \"#utility.yul\":7050:7070   */\n      sub\n        /* \"#utility.yul\":7044:7047   */\n      0xa0\n        /* \"#utility.yul\":7033:7042   */\n      dup4\n        /* \"#utility.yul\":7029:7048   */\n      add\n        /* \"#utility.yul\":7022:7071   */\n      mstore\n        /* \"#utility.yul\":7088:7166   */\n      tag_183\n        /* \"#utility.yul\":7161:7165   */\n      dup2\n        /* \"#utility.yul\":7152:7158   */\n      dup5\n        /* \"#utility.yul\":7088:7166   */\n      tag_162\n      jump\t// in\n    tag_183:\n        /* \"#utility.yul\":7080:7166   */\n      swap1\n      pop\n        /* \"#utility.yul\":5852:7173   */\n      swap8\n      swap7\n      pop\n      pop\n      pop\n      pop\n      pop\n      pop\n      pop\n      jump\t// out\n        /* \"#utility.yul\":7179:7528   */\n    tag_11:\n        /* \"#utility.yul\":7310:7314   */\n      0x00\n        /* \"#utility.yul\":7348:7350   */\n      0x20\n        /* \"#utility.yul\":7337:7346   */\n      dup3\n        /* \"#utility.yul\":7333:7351   */\n      add\n        /* \"#utility.yul\":7325:7351   */\n      swap1\n      pop\n        /* \"#utility.yul\":7397:7406   */\n      dup2\n        /* \"#utility.yul\":7391:7395   */\n      dup2\n        /* \"#utility.yul\":7387:7407   */\n      sub\n        /* \"#utility.yul\":7383:7384   */\n      0x00\n        /* \"#utility.yul\":7372:7381   */\n      dup4\n        /* \"#utility.yul\":7368:7385   */\n      add\n        /* \"#utility.yul\":7361:7408   */\n      mstore\n        /* \"#utility.yul\":7425:7521   */\n      tag_185\n        /* \"#utility.yul\":7516:7520   */\n      dup2\n        /* \"#utility.yul\":7507:7513   */\n      dup5\n        /* \"#utility.yul\":7425:7521   */\n      tag_169\n      jump\t// in\n    tag_185:\n        /* \"#utility.yul\":7417:7521   */\n      swap1\n      pop\n        /* \"#utility.yul\":7179:7528   */\n      swap3\n      swap2\n      pop\n      pop\n      jump\t// out\n        /* \"#utility.yul\":7534:7663   */\n    tag_109:\n        /* \"#utility.yul\":7568:7574   */\n      0x00\n        /* \"#utility.yul\":7595:7615   */\n      tag_187\n      tag_188\n      jump\t// in\n    tag_187:\n        /* \"#utility.yul\":7585:7615   */\n      swap1\n      pop\n        /* \"#utility.yul\":7624:7657   */\n      tag_189\n        /* \"#utility.yul\":7652:7656   */\n      dup3\n        /* \"#utility.yul\":7644:7650   */\n      dup3\n        /* \"#utility.yul\":7624:7657   */\n      tag_190\n      jump\t// in\n    tag_189:\n        /* \"#utility.yul\":7534:7663   */\n      swap2\n      swap1\n      pop\n      jump\t// out\n        /* \"#utility.yul\":7669:7744   */\n    tag_188:\n        /* \"#utility.yul\":7702:7708   */\n      0x00\n        /* \"#utility.yul\":7735:7737   */\n      0x40\n        /* \"#utility.yul\":7729:7738   */\n      mload\n        /* \"#utility.yul\":7719:7738   */\n      swap1\n      pop\n        /* \"#utility.yul\":7669:7744   */\n      swap1\n      jump\t// out\n        /* \"#utility.yul\":7750:8058   */\n    tag_108:\n        /* \"#utility.yul\":7812:7816   */\n      0x00\n        /* \"#utility.yul\":7902:7920   */\n      0xffffffffffffffff\n        /* \"#utility.yul\":7894:7900   */\n      dup3\n        /* \"#utility.yul\":7891:7921   */\n      gt\n        /* \"#utility.yul\":7888:7944   */\n      iszero\n      tag_193\n      jumpi\n        /* \"#utility.yul\":7924:7942   */\n      tag_194\n      tag_195\n      jump\t// in\n    tag_194:\n        /* \"#utility.yul\":7888:7944   */\n    tag_193:\n        /* \"#utility.yul\":7962:7991   */\n      tag_196\n        /* \"#utility.yul\":7984:7990   */\n      dup3\n        /* \"#utility.yul\":7962:7991   */\n      tag_161\n      jump\t// in\n    tag_196:\n        /* \"#utility.yul\":7954:7991   */\n      swap1\n      pop\n        /* \"#utility.yul\":8046:8050   */\n      0x20\n        /* \"#utility.yul\":8040:8044   */\n      dup2\n        /* \"#utility.yul\":8036:8051   */\n      add\n        /* \"#utility.yul\":8028:8051   */\n      swap1\n      pop\n        /* \"#utility.yul\":7750:8058   */\n      swap2\n      swap1\n      pop\n      jump\t// out\n        /* \"#utility.yul\":8064:8163   */\n    tag_155:\n        /* \"#utility.yul\":8116:8122   */\n      0x00\n        /* \"#utility.yul\":8150:8155   */\n      dup2\n        /* \"#utility.yul\":8144:8156   */\n      mload\n        /* \"#utility.yul\":8134:8156   */\n      swap1\n      pop\n        /* \"#utility.yul\":8064:8163   */\n      swap2\n      swap1\n      pop\n      jump\t// out\n        /* \"#utility.yul\":8169:8328   */\n    tag_157:\n        /* \"#utility.yul\":8243:8254   */\n      0x00\n        /* \"#utility.yul\":8277:8283   */\n      dup3\n        /* \"#utility.yul\":8272:8275   */\n      dup3\n        /* \"#utility.yul\":8265:8284   */\n      mstore\n        /* \"#utility.yul\":8317:8321   */\n      0x20\n        /* \"#utility.yul\":8312:8315   */\n      dup3\n        /* \"#utility.yul\":8308:8322   */\n      add\n        /* \"#utility.yul\":8293:8322   */\n      swap1\n      pop\n        /* \"#utility.yul\":8169:8328   */\n      swap3\n      swap2\n      pop\n      pop\n      jump\t// out\n        /* \"#utility.yul\":8334:8503   */\n    tag_166:\n        /* \"#utility.yul\":8418:8429   */\n      0x00\n        /* \"#utility.yul\":8452:8458   */\n      dup3\n        /* \"#utility.yul\":8447:8450   */\n      dup3\n        /* \"#utility.yul\":8440:8459   */\n      mstore\n        /* \"#utility.yul\":8492:8496   */\n      0x20\n        /* \"#utility.yul\":8487:8490   */\n      dup3\n        /* \"#utility.yul\":8483:8497   */\n      add\n        /* \"#utility.yul\":8468:8497   */\n      swap1\n      pop\n        /* \"#utility.yul\":8334:8503   */\n      swap3\n      swap2\n      pop\n      pop\n      jump\t// out\n        /* \"#utility.yul\":8509:8605   */\n    tag_200:\n        /* \"#utility.yul\":8546:8553   */\n      0x00\n        /* \"#utility.yul\":8575:8599   */\n      tag_202\n        /* \"#utility.yul\":8593:8598   */\n      dup3\n        /* \"#utility.yul\":8575:8599   */\n      tag_203\n      jump\t// in\n    tag_202:\n        /* \"#utility.yul\":8564:8599   */\n      swap1\n      pop\n        /* \"#utility.yul\":8509:8605   */\n      swap2\n      swap1\n      pop\n      jump\t// out\n        /* \"#utility.yul\":8611:8737   */\n    tag_203:\n        /* \"#utility.yul\":8648:8655   */\n      0x00\n        /* \"#utility.yul\":8688:8730   */\n      0xffffffffffffffffffffffffffffffffffffffff\n        /* \"#utility.yul\":8681:8686   */\n      dup3\n        /* \"#utility.yul\":8677:8731   */\n      and\n        /* \"#utility.yul\":8666:8731   */\n      swap1\n      pop\n        /* \"#utility.yul\":8611:8737   */\n      swap2\n      swap1\n      pop\n      jump\t// out\n        /* \"#utility.yul\":8743:8897   */\n    tag_114:\n        /* \"#utility.yul\":8827:8833   */\n      dup3\n        /* \"#utility.yul\":8822:8825   */\n      dup2\n        /* \"#utility.yul\":8817:8820   */\n      dup4\n        /* \"#utility.yul\":8804:8834   */\n      calldatacopy\n        /* \"#utility.yul\":8889:8890   */\n      0x00\n        /* \"#utility.yul\":8880:8886   */\n      dup4\n        /* \"#utility.yul\":8875:8878   */\n      dup4\n        /* \"#utility.yul\":8871:8887   */\n      add\n        /* \"#utility.yul\":8864:8891   */\n      mstore\n        /* \"#utility.yul\":8743:8897   */\n      pop\n      pop\n      pop\n      jump\t// out\n        /* \"#utility.yul\":8903:9210   */\n    tag_159:\n        /* \"#utility.yul\":8971:8972   */\n      0x00\n        /* \"#utility.yul\":8981:9094   */\n    tag_207:\n        /* \"#utility.yul\":8995:9001   */\n      dup4\n        /* \"#utility.yul\":8992:8993   */\n      dup2\n        /* \"#utility.yul\":8989:9002   */\n      lt\n        /* \"#utility.yul\":8981:9094   */\n      iszero\n      tag_209\n      jumpi\n        /* \"#utility.yul\":9080:9081   */\n      dup1\n        /* \"#utility.yul\":9075:9078   */\n      dup3\n        /* \"#utility.yul\":9071:9082   */\n      add\n        /* \"#utility.yul\":9065:9083   */\n      mload\n        /* \"#utility.yul\":9061:9062   */\n      dup2\n        /* \"#utility.yul\":9056:9059   */\n      dup5\n        /* \"#utility.yul\":9052:9063   */\n      add\n        /* \"#utility.yul\":9045:9084   */\n      mstore\n        /* \"#utility.yul\":9017:9019   */\n      0x20\n        /* \"#utility.yul\":9014:9015   */\n      dup2\n        /* \"#utility.yul\":9010:9020   */\n      add\n        /* \"#utility.yul\":9005:9020   */\n      swap1\n      pop\n        /* \"#utility.yul\":8981:9094   */\n      jump(tag_207)\n    tag_209:\n        /* \"#utility.yul\":9112:9118   */\n      dup4\n        /* \"#utility.yul\":9109:9110   */\n      dup2\n        /* \"#utility.yul\":9106:9119   */\n      gt\n        /* \"#utility.yul\":9103:9204   */\n      iszero\n      tag_210\n      jumpi\n        /* \"#utility.yul\":9192:9193   */\n      0x00\n        /* \"#utility.yul\":9183:9189   */\n      dup5\n        /* \"#utility.yul\":9178:9181   */\n      dup5\n        /* \"#utility.yul\":9174:9190   */\n      add\n        /* \"#utility.yul\":9167:9194   */\n      mstore\n        /* \"#utility.yul\":9103:9204   */\n    tag_210:\n        /* \"#utility.yul\":8952:9210   */\n      pop\n        /* \"#utility.yul\":8903:9210   */\n      pop\n      pop\n      pop\n      jump\t// out\n        /* \"#utility.yul\":9216:9536   */\n    tag_25:\n        /* \"#utility.yul\":9260:9266   */\n      0x00\n        /* \"#utility.yul\":9297:9298   */\n      0x02\n        /* \"#utility.yul\":9291:9295   */\n      dup3\n        /* \"#utility.yul\":9287:9299   */\n      div\n        /* \"#utility.yul\":9277:9299   */\n      swap1\n      pop\n        /* \"#utility.yul\":9344:9345   */\n      0x01\n        /* \"#utility.yul\":9338:9342   */\n      dup3\n        /* \"#utility.yul\":9334:9346   */\n      and\n        /* \"#utility.yul\":9365:9383   */\n      dup1\n        /* \"#utility.yul\":9355:9436   */\n      tag_212\n      jumpi\n        /* \"#utility.yul\":9421:9425   */\n      0x7f\n        /* \"#utility.yul\":9413:9419   */\n      dup3\n        /* \"#utility.yul\":9409:9426   */\n      and\n        /* \"#utility.yul\":9399:9426   */\n      swap2\n      pop\n        /* \"#utility.yul\":9355:9436   */\n    tag_212:\n        /* \"#utility.yul\":9483:9485   */\n      0x20\n        /* \"#utility.yul\":9475:9481   */\n      dup3\n        /* \"#utility.yul\":9472:9486   */\n      lt\n        /* \"#utility.yul\":9452:9470   */\n      dup2\n        /* \"#utility.yul\":9449:9487   */\n      eq\n        /* \"#utility.yul\":9446:9530   */\n      iszero\n      tag_213\n      jumpi\n        /* \"#utility.yul\":9502:9520   */\n      tag_214\n      tag_215\n      jump\t// in\n    tag_214:\n        /* \"#utility.yul\":9446:9530   */\n    tag_213:\n        /* \"#utility.yul\":9267:9536   */\n      pop\n        /* \"#utility.yul\":9216:9536   */\n      swap2\n      swap1\n      pop\n      jump\t// out\n        /* \"#utility.yul\":9542:9823   */\n    tag_190:\n        /* \"#utility.yul\":9625:9652   */\n      tag_217\n        /* \"#utility.yul\":9647:9651   */\n      dup3\n        /* \"#utility.yul\":9625:9652   */\n      tag_161\n      jump\t// in\n    tag_217:\n        /* \"#utility.yul\":9617:9623   */\n      dup2\n        /* \"#utility.yul\":9613:9653   */\n      add\n        /* \"#utility.yul\":9755:9761   */\n      dup2\n        /* \"#utility.yul\":9743:9753   */\n      dup2\n        /* \"#utility.yul\":9740:9762   */\n      lt\n        /* \"#utility.yul\":9719:9737   */\n      0xffffffffffffffff\n        /* \"#utility.yul\":9707:9717   */\n      dup3\n        /* \"#utility.yul\":9704:9738   */\n      gt\n        /* \"#utility.yul\":9701:9763   */\n      or\n        /* \"#utility.yul\":9698:9786   */\n      iszero\n      tag_218\n      jumpi\n        /* \"#utility.yul\":9766:9784   */\n      tag_219\n      tag_195\n      jump\t// in\n    tag_219:\n        /* \"#utility.yul\":9698:9786   */\n    tag_218:\n        /* \"#utility.yul\":9806:9816   */\n      dup1\n        /* \"#utility.yul\":9802:9804   */\n      0x40\n        /* \"#utility.yul\":9795:9817   */\n      mstore\n        /* \"#utility.yul\":9585:9823   */\n      pop\n        /* \"#utility.yul\":9542:9823   */\n      pop\n      pop\n      jump\t// out\n        /* \"#utility.yul\":9829:10009   */\n    tag_215:\n        /* \"#utility.yul\":9877:9954   */\n      0x4e487b7100000000000000000000000000000000000000000000000000000000\n        /* \"#utility.yul\":9874:9875   */\n      0x00\n        /* \"#utility.yul\":9867:9955   */\n      mstore\n        /* \"#utility.yul\":9974:9978   */\n      0x22\n        /* \"#utility.yul\":9971:9972   */\n      0x04\n        /* \"#utility.yul\":9964:9979   */\n      mstore\n        /* \"#utility.yul\":9998:10002   */\n      0x24\n        /* \"#utility.yul\":9995:9996   */\n      0x00\n        /* \"#utility.yul\":9988:10003   */\n      revert\n        /* \"#utility.yul\":10015:10195   */\n    tag_195:\n        /* \"#utility.yul\":10063:10140   */\n      0x4e487b7100000000000000000000000000000000000000000000000000000000\n        /* \"#utility.yul\":10060:10061   */\n      0x00\n        /* \"#utility.yul\":10053:10141   */\n      mstore\n        /* \"#utility.yul\":10160:10164   */\n      0x41\n        /* \"#utility.yul\":10157:10158   */\n      0x04\n        /* \"#utility.yul\":10150:10165   */\n      mstore\n        /* \"#utility.yul\":10184:10188   */\n      0x24\n        /* \"#utility.yul\":10181:10182   */\n      0x00\n        /* \"#utility.yul\":10174:10189   */\n      revert\n        /* \"#utility.yul\":10201:10318   */\n    tag_123:\n        /* \"#utility.yul\":10310:10311   */\n      0x00\n        /* \"#utility.yul\":10307:10308   */\n      dup1\n        /* \"#utility.yul\":10300:10312   */\n      revert\n        /* \"#utility.yul\":10324:10441   */\n    tag_112:\n        /* \"#utility.yul\":10433:10434   */\n      0x00\n        /* \"#utility.yul\":10430:10431   */\n      dup1\n        /* \"#utility.yul\":10423:10435   */\n      revert\n        /* \"#utility.yul\":10447:10564   */\n    tag_135:\n        /* \"#utility.yul\":10556:10557   */\n      0x00\n        /* \"#utility.yul\":10553:10554   */\n      dup1\n        /* \"#utility.yul\":10546:10558   */\n      revert\n        /* \"#utility.yul\":10570:10687   */\n    tag_128:\n        /* \"#utility.yul\":10679:10680   */\n      0x00\n        /* \"#utility.yul\":10676:10677   */\n      dup1\n        /* \"#utility.yul\":10669:10681   */\n      revert\n        /* \"#utility.yul\":10693:10795   */\n    tag_161:\n        /* \"#utility.yul\":10734:10740   */\n      0x00\n        /* \"#utility.yul\":10785:10787   */\n      0x1f\n        /* \"#utility.yul\":10781:10788   */\n      not\n        /* \"#utility.yul\":10776:10778   */\n      0x1f\n        /* \"#utility.yul\":10769:10774   */\n      dup4\n        /* \"#utility.yul\":10765:10779   */\n      add\n        /* \"#utility.yul\":10761:10789   */\n      and\n        /* \"#utility.yul\":10751:10789   */\n      swap1\n      pop\n        /* \"#utility.yul\":10693:10795   */\n      swap2\n      swap1\n      pop\n      jump\t// out\n        /* \"#utility.yul\":10801:10923   */\n    tag_118:\n        /* \"#utility.yul\":10874:10898   */\n      tag_228\n        /* \"#utility.yul\":10892:10897   */\n      dup2\n        /* \"#utility.yul\":10874:10898   */\n      tag_200\n      jump\t// in\n    tag_228:\n        /* \"#utility.yul\":10867:10872   */\n      dup2\n        /* \"#utility.yul\":10864:10899   */\n      eq\n        /* \"#utility.yul\":10854:10917   */\n      tag_229\n      jumpi\n        /* \"#utility.yul\":10913:10914   */\n      0x00\n        /* \"#utility.yul\":10910:10911   */\n      dup1\n        /* \"#utility.yul\":10903:10915   */\n      revert\n        /* \"#utility.yul\":10854:10917   */\n    tag_229:\n        /* \"#utility.yul\":10801:10923   */\n      pop\n      jump\t// out\n\n    auxdata: 0xa2646970667358221220e17f3d57234355c4fc5798eba5020d68bf87de01c6b59ddf39def2a34008aee464736f6c63430008070033\n}\n",
				"bytecode": {
					"linkReferences": {},
					"object": "608060405234801561001057600080fd5b506110b8806100206000396000f3fe608060405234801561001057600080fd5b50600436106100415760003560e01c80633fd0bf1714610046578063721041af146100765780639dd9d0fd14610092575b600080fd5b610060600480360381019061005b9190610b61565b6100c7565b60405161006d9190610e6c565b60405180910390f35b610090600480360381019061008b9190610b8e565b61048b565b005b6100ac60048036038101906100a79190610b61565b610697565b6040516100be96959493929190610de1565b60405180910390f35b6100cf610a03565b6000808373ffffffffffffffffffffffffffffffffffffffff1673ffffffffffffffffffffffffffffffffffffffff1681526020019081526020016000206040518060c001604052908160008201805461012890610f85565b80601f016020809104026020016040519081016040528092919081815260200182805461015490610f85565b80156101a15780601f10610176576101008083540402835291602001916101a1565b820191906000526020600020905b81548152906001019060200180831161018457829003601f168201915b505050505081526020016001820180546101ba90610f85565b80601f01602080910402602001604051908101604052809291908181526020018280546101e690610f85565b80156102335780601f1061020857610100808354040283529160200191610233565b820191906000526020600020905b81548152906001019060200180831161021657829003601f168201915b5050505050815260200160028201805461024c90610f85565b80601f016020809104026020016040519081016040528092919081815260200182805461027890610f85565b80156102c55780601f1061029a576101008083540402835291602001916102c5565b820191906000526020600020905b8154815290600101906020018083116102a857829003601f168201915b505050505081526020016003820180546102de90610f85565b80601f016020809104026020016040519081016040528092919081815260200182805461030a90610f85565b80156103575780601f1061032c57610100808354040283529160200191610357565b820191906000526020600020905b81548152906001019060200180831161033a57829003601f168201915b5050505050815260200160048201805461037090610f85565b80601f016020809104026020016040519081016040528092919081815260200182805461039c90610f85565b80156103e95780601f106103be576101008083540402835291602001916103e9565b820191906000526020600020905b8154815290600101906020018083116103cc57829003601f168201915b5050505050815260200160058201805461040290610f85565b80601f016020809104026020016040519081016040528092919081815260200182805461042e90610f85565b801561047b5780601f106104505761010080835404028352916020019161047b565b820191906000526020600020905b81548152906001019060200180831161045e57829003601f168201915b5050505050815250509050919050565b856000803373ffffffffffffffffffffffffffffffffffffffff1673ffffffffffffffffffffffffffffffffffffffff16815260200190815260200160002060000190805190602001906104e0929190610a39565b50846000803373ffffffffffffffffffffffffffffffffffffffff1673ffffffffffffffffffffffffffffffffffffffff1681526020019081526020016000206001019080519060200190610536929190610a39565b50836000803373ffffffffffffffffffffffffffffffffffffffff1673ffffffffffffffffffffffffffffffffffffffff168152602001908152602001600020600201908051906020019061058c929190610a39565b50826000803373ffffffffffffffffffffffffffffffffffffffff1673ffffffffffffffffffffffffffffffffffffffff16815260200190815260200160002060030190805190602001906105e2929190610a39565b50816000803373ffffffffffffffffffffffffffffffffffffffff1673ffffffffffffffffffffffffffffffffffffffff1681526020019081526020016000206004019080519060200190610638929190610a39565b50806000803373ffffffffffffffffffffffffffffffffffffffff1673ffffffffffffffffffffffffffffffffffffffff168152602001908152602001600020600501908051906020019061068e929190610a39565b50505050505050565b60006020528060005260406000206000915090508060000180546106ba90610f85565b80601f01602080910402602001604051908101604052809291908181526020018280546106e690610f85565b80156107335780601f1061070857610100808354040283529160200191610733565b820191906000526020600020905b81548152906001019060200180831161071657829003601f168201915b50505050509080600101805461074890610f85565b80601f016020809104026020016040519081016040528092919081815260200182805461077490610f85565b80156107c15780601f10610796576101008083540402835291602001916107c1565b820191906000526020600020905b8154815290600101906020018083116107a457829003601f168201915b5050505050908060020180546107d690610f85565b80601f016020809104026020016040519081016040528092919081815260200182805461080290610f85565b801561084f5780601f106108245761010080835404028352916020019161084f565b820191906000526020600020905b81548152906001019060200180831161083257829003601f168201915b50505050509080600301805461086490610f85565b80601f016020809104026020016040519081016040528092919081815260200182805461089090610f85565b80156108dd5780601f106108b2576101008083540402835291602001916108dd565b820191906000526020600020905b8154815290600101906020018083116108c057829003601f168201915b5050505050908060040180546108f290610f85565b80601f016020809104026020016040519081016040528092919081815260200182805461091e90610f85565b801561096b5780601f106109405761010080835404028352916020019161096b565b820191906000526020600020905b81548152906001019060200180831161094e57829003601f168201915b50505050509080600501805461098090610f85565b80601f01602080910402602001604051908101604052809291908181526020018280546109ac90610f85565b80156109f95780601f106109ce576101008083540402835291602001916109f9565b820191906000526020600020905b8154815290600101906020018083116109dc57829003601f168201915b5050505050905086565b6040518060c001604052806060815260200160608152602001606081526020016060815260200160608152602001606081525090565b828054610a4590610f85565b90600052602060002090601f016020900481019282610a675760008555610aae565b82601f10610a8057805160ff1916838001178555610aae565b82800160010185558215610aae579182015b82811115610aad578251825591602001919060010190610a92565b5b509050610abb9190610abf565b5090565b5b80821115610ad8576000816000905550600101610ac0565b5090565b6000610aef610aea84610eb3565b610e8e565b905082815260208101848484011115610b0b57610b0a61104b565b5b610b16848285610f43565b509392505050565b600081359050610b2d8161106b565b92915050565b600082601f830112610b4857610b47611046565b5b8135610b58848260208601610adc565b91505092915050565b600060208284031215610b7757610b76611055565b5b6000610b8584828501610b1e565b91505092915050565b60008060008060008060c08789031215610bab57610baa611055565b5b600087013567ffffffffffffffff811115610bc957610bc8611050565b5b610bd589828a01610b33565b965050602087013567ffffffffffffffff811115610bf657610bf5611050565b5b610c0289828a01610b33565b955050604087013567ffffffffffffffff811115610c2357610c22611050565b5b610c2f89828a01610b33565b945050606087013567ffffffffffffffff811115610c5057610c4f611050565b5b610c5c89828a01610b33565b935050608087013567ffffffffffffffff811115610c7d57610c7c611050565b5b610c8989828a01610b33565b92505060a087013567ffffffffffffffff811115610caa57610ca9611050565b5b610cb689828a01610b33565b9150509295509295509295565b6000610cce82610ee4565b610cd88185610eef565b9350610ce8818560208601610f52565b610cf18161105a565b840191505092915050565b6000610d0782610ee4565b610d118185610f00565b9350610d21818560208601610f52565b610d2a8161105a565b840191505092915050565b600060c0830160008301518482036000860152610d528282610cc3565b91505060208301518482036020860152610d6c8282610cc3565b91505060408301518482036040860152610d868282610cc3565b91505060608301518482036060860152610da08282610cc3565b91505060808301518482036080860152610dba8282610cc3565b91505060a083015184820360a0860152610dd48282610cc3565b9150508091505092915050565b600060c0820190508181036000830152610dfb8189610cfc565b90508181036020830152610e0f8188610cfc565b90508181036040830152610e238187610cfc565b90508181036060830152610e378186610cfc565b90508181036080830152610e4b8185610cfc565b905081810360a0830152610e5f8184610cfc565b9050979650505050505050565b60006020820190508181036000830152610e868184610d35565b905092915050565b6000610e98610ea9565b9050610ea48282610fb7565b919050565b6000604051905090565b600067ffffffffffffffff821115610ece57610ecd611017565b5b610ed78261105a565b9050602081019050919050565b600081519050919050565b600082825260208201905092915050565b600082825260208201905092915050565b6000610f1c82610f23565b9050919050565b600073ffffffffffffffffffffffffffffffffffffffff82169050919050565b82818337600083830152505050565b60005b83811015610f70578082015181840152602081019050610f55565b83811115610f7f576000848401525b50505050565b60006002820490506001821680610f9d57607f821691505b60208210811415610fb157610fb0610fe8565b5b50919050565b610fc08261105a565b810181811067ffffffffffffffff82111715610fdf57610fde611017565b5b80604052505050565b7f4e487b7100000000000000000000000000000000000000000000000000000000600052602260045260246000fd5b7f4e487b7100000000000000000000000000000000000000000000000000000000600052604160045260246000fd5b600080fd5b600080fd5b600080fd5b600080fd5b6000601f19601f8301169050919050565b61107481610f11565b811461107f57600080fd5b5056fea2646970667358221220e17f3d57234355c4fc5798eba5020d68bf87de01c6b59ddf39def2a34008aee464736f6c63430008070033",
					"opcodes": "PUSH1 0x80 PUSH1 0x40 MSTORE CALLVALUE DUP1 ISZERO PUSH2 0x10 JUMPI PUSH1 0x0 DUP1 REVERT JUMPDEST POP PUSH2 0x10B8 DUP1 PUSH2 0x20 PUSH1 0x0 CODECOPY PUSH1 0x0 RETURN INVALID PUSH1 0x80 PUSH1 0x40 MSTORE CALLVALUE DUP1 ISZERO PUSH2 0x10 JUMPI PUSH1 0x0 DUP1 REVERT JUMPDEST POP PUSH1 0x4 CALLDATASIZE LT PUSH2 0x41 JUMPI PUSH1 0x0 CALLDATALOAD PUSH1 0xE0 SHR DUP1 PUSH4 0x3FD0BF17 EQ PUSH2 0x46 JUMPI DUP1 PUSH4 0x721041AF EQ PUSH2 0x76 JUMPI DUP1 PUSH4 0x9DD9D0FD EQ PUSH2 0x92 JUMPI JUMPDEST PUSH1 0x0 DUP1 REVERT JUMPDEST PUSH2 0x60 PUSH1 0x4 DUP1 CALLDATASIZE SUB DUP2 ADD SWAP1 PUSH2 0x5B SWAP2 SWAP1 PUSH2 0xB61 JUMP JUMPDEST PUSH2 0xC7 JUMP JUMPDEST PUSH1 0x40 MLOAD PUSH2 0x6D SWAP2 SWAP1 PUSH2 0xE6C JUMP JUMPDEST PUSH1 0x40 MLOAD DUP1 SWAP2 SUB SWAP1 RETURN JUMPDEST PUSH2 0x90 PUSH1 0x4 DUP1 CALLDATASIZE SUB DUP2 ADD SWAP1 PUSH2 0x8B SWAP2 SWAP1 PUSH2 0xB8E JUMP JUMPDEST PUSH2 0x48B JUMP JUMPDEST STOP JUMPDEST PUSH2 0xAC PUSH1 0x4 DUP1 CALLDATASIZE SUB DUP2 ADD SWAP1 PUSH2 0xA7 SWAP2 SWAP1 PUSH2 0xB61 JUMP JUMPDEST PUSH2 0x697 JUMP JUMPDEST PUSH1 0x40 MLOAD PUSH2 0xBE SWAP7 SWAP6 SWAP5 SWAP4 SWAP3 SWAP2 SWAP1 PUSH2 0xDE1 JUMP JUMPDEST PUSH1 0x40 MLOAD DUP1 SWAP2 SUB SWAP1 RETURN JUMPDEST PUSH2 0xCF PUSH2 0xA03 JUMP JUMPDEST PUSH1 0x0 DUP1 DUP4 PUSH20 0xFFFFFFFFFFFFFFFFFFFFFFFFFFFFFFFFFFFFFFFF AND PUSH20 0xFFFFFFFFFFFFFFFFFFFFFFFFFFFFFFFFFFFFFFFF AND DUP2 MSTORE PUSH1 0x20 ADD SWAP1 DUP2 MSTORE PUSH1 0x20 ADD PUSH1 0x0 KECCAK256 PUSH1 0x40 MLOAD DUP1 PUSH1 0xC0 ADD PUSH1 0x40 MSTORE SWAP1 DUP2 PUSH1 0x0 DUP3 ADD DUP1 SLOAD PUSH2 0x128 SWAP1 PUSH2 0xF85 JUMP JUMPDEST DUP1 PUSH1 0x1F ADD PUSH1 0x20 DUP1 SWAP2 DIV MUL PUSH1 0x20 ADD PUSH1 0x40 MLOAD SWAP1 DUP2 ADD PUSH1 0x40 MSTORE DUP1 SWAP3 SWAP2 SWAP1 DUP2 DUP2 MSTORE PUSH1 0x20 ADD DUP3 DUP1 SLOAD PUSH2 0x154 SWAP1 PUSH2 0xF85 JUMP JUMPDEST DUP1 ISZERO PUSH2 0x1A1 JUMPI DUP1 PUSH1 0x1F LT PUSH2 0x176 JUMPI PUSH2 0x100 DUP1 DUP4 SLOAD DIV MUL DUP4 MSTORE SWAP2 PUSH1 0x20 ADD SWAP2 PUSH2 0x1A1 JUMP JUMPDEST DUP3 ADD SWAP2 SWAP1 PUSH1 0x0 MSTORE PUSH1 0x20 PUSH1 0x0 KECCAK256 SWAP1 JUMPDEST DUP2 SLOAD DUP2 MSTORE SWAP1 PUSH1 0x1 ADD SWAP1 PUSH1 0x20 ADD DUP1 DUP4 GT PUSH2 0x184 JUMPI DUP3 SWAP1 SUB PUSH1 0x1F AND DUP3 ADD SWAP2 JUMPDEST POP POP POP POP POP DUP2 MSTORE PUSH1 0x20 ADD PUSH1 0x1 DUP3 ADD DUP1 SLOAD PUSH2 0x1BA SWAP1 PUSH2 0xF85 JUMP JUMPDEST DUP1 PUSH1 0x1F ADD PUSH1 0x20 DUP1 SWAP2 DIV MUL PUSH1 0x20 ADD PUSH1 0x40 MLOAD SWAP1 DUP2 ADD PUSH1 0x40 MSTORE DUP1 SWAP3 SWAP2 SWAP1 DUP2 DUP2 MSTORE PUSH1 0x20 ADD DUP3 DUP1 SLOAD PUSH2 0x1E6 SWAP1 PUSH2 0xF85 JUMP JUMPDEST DUP1 ISZERO PUSH2 0x233 JUMPI DUP1 PUSH1 0x1F LT PUSH2 0x208 JUMPI PUSH2 0x100 DUP1 DUP4 SLOAD DIV MUL DUP4 MSTORE SWAP2 PUSH1 0x20 ADD SWAP2 PUSH2 0x233 JUMP JUMPDEST DUP3 ADD SWAP2 SWAP1 PUSH1 0x0 MSTORE PUSH1 0x20 PUSH1 0x0 KECCAK256 SWAP1 JUMPDEST DUP2 SLOAD DUP2 MSTORE SWAP1 PUSH1 0x1 ADD SWAP1 PUSH1 0x20 ADD DUP1 DUP4 GT PUSH2 0x216 JUMPI DUP3 SWAP1 SUB PUSH1 0x1F AND DUP3 ADD SWAP2 JUMPDEST POP POP POP POP POP DUP2 MSTORE PUSH1 0x20 ADD PUSH1 0x2 DUP3 ADD DUP1 SLOAD PUSH2 0x24C SWAP1 PUSH2 0xF85 JUMP JUMPDEST DUP1 PUSH1 0x1F ADD PUSH1 0x20 DUP1 SWAP2 DIV MUL PUSH1 0x20 ADD PUSH1 0x40 MLOAD SWAP1 DUP2 ADD PUSH1 0x40 MSTORE DUP1 SWAP3 SWAP2 SWAP1 DUP2 DUP2 MSTORE PUSH1 0x20 ADD DUP3 DUP1 SLOAD PUSH2 0x278 SWAP1 PUSH2 0xF85 JUMP JUMPDEST DUP1 ISZERO PUSH2 0x2C5 JUMPI DUP1 PUSH1 0x1F LT PUSH2 0x29A JUMPI PUSH2 0x100 DUP1 DUP4 SLOAD DIV MUL DUP4 MSTORE SWAP2 PUSH1 0x20 ADD SWAP2 PUSH2 0x2C5 JUMP JUMPDEST DUP3 ADD SWAP2 SWAP1 PUSH1 0x0 MSTORE PUSH1 0x20 PUSH1 0x0 KECCAK256 SWAP1 JUMPDEST DUP2 SLOAD DUP2 MSTORE SWAP1 PUSH1 0x1 ADD SWAP1 PUSH1 0x20 ADD DUP1 DUP4 GT PUSH2 0x2A8 JUMPI DUP3 SWAP1 SUB PUSH1 0x1F AND DUP3 ADD SWAP2 JUMPDEST POP POP POP POP POP DUP2 MSTORE PUSH1 0x20 ADD PUSH1 0x3 DUP3 ADD DUP1 SLOAD PUSH2 0x2DE SWAP1 PUSH2 0xF85 JUMP JUMPDEST DUP1 PUSH1 0x1F ADD PUSH1 0x20 DUP1 SWAP2 DIV MUL PUSH1 0x20 ADD PUSH1 0x40 MLOAD SWAP1 DUP2 ADD PUSH1 0x40 MSTORE DUP1 SWAP3 SWAP2 SWAP1 DUP2 DUP2 MSTORE PUSH1 0x20 ADD DUP3 DUP1 SLOAD PUSH2 0x30A SWAP1 PUSH2 0xF85 JUMP JUMPDEST DUP1 ISZERO PUSH2 0x357 JUMPI DUP1 PUSH1 0x1F LT PUSH2 0x32C JUMPI PUSH2 0x100 DUP1 DUP4 SLOAD DIV MUL DUP4 MSTORE SWAP2 PUSH1 0x20 ADD SWAP2 PUSH2 0x357 JUMP JUMPDEST DUP3 ADD SWAP2 SWAP1 PUSH1 0x0 MSTORE PUSH1 0x20 PUSH1 0x0 KECCAK256 SWAP1 JUMPDEST DUP2 SLOAD DUP2 MSTORE SWAP1 PUSH1 0x1 ADD SWAP1 PUSH1 0x20 ADD DUP1 DUP4 GT PUSH2 0x33A JUMPI DUP3 SWAP1 SUB PUSH1 0x1F AND DUP3 ADD SWAP2 JUMPDEST POP POP POP POP POP DUP2 MSTORE PUSH1 0x20 ADD PUSH1 0x4 DUP3 ADD DUP1 SLOAD PUSH2 0x370 SWAP1 PUSH2 0xF85 JUMP JUMPDEST DUP1 PUSH1 0x1F ADD PUSH1 0x20 DUP1 SWAP2 DIV MUL PUSH1 0x20 ADD PUSH1 0x40 MLOAD SWAP1 DUP2 ADD PUSH1 0x40 MSTORE DUP1 SWAP3 SWAP2 SWAP1 DUP2 DUP2 MSTORE PUSH1 0x20 ADD DUP3 DUP1 SLOAD PUSH2 0x39C SWAP1 PUSH2 0xF85 JUMP JUMPDEST DUP1 ISZERO PUSH2 0x3E9 JUMPI DUP1 PUSH1 0x1F LT PUSH2 0x3BE JUMPI PUSH2 0x100 DUP1 DUP4 SLOAD DIV MUL DUP4 MSTORE SWAP2 PUSH1 0x20 ADD SWAP2 PUSH2 0x3E9 JUMP JUMPDEST DUP3 ADD SWAP2 SWAP1 PUSH1 0x0 MSTORE PUSH1 0x20 PUSH1 0x0 KECCAK256 SWAP1 JUMPDEST DUP2 SLOAD DUP2 MSTORE SWAP1 PUSH1 0x1 ADD SWAP1 PUSH1 0x20 ADD DUP1 DUP4 GT PUSH2 0x3CC JUMPI DUP3 SWAP1 SUB PUSH1 0x1F AND DUP3 ADD SWAP2 JUMPDEST POP POP POP POP POP DUP2 MSTORE PUSH1 0x20 ADD PUSH1 0x5 DUP3 ADD DUP1 SLOAD PUSH2 0x402 SWAP1 PUSH2 0xF85 JUMP JUMPDEST DUP1 PUSH1 0x1F ADD PUSH1 0x20 DUP1 SWAP2 DIV MUL PUSH1 0x20 ADD PUSH1 0x40 MLOAD SWAP1 DUP2 ADD PUSH1 0x40 MSTORE DUP1 SWAP3 SWAP2 SWAP1 DUP2 DUP2 MSTORE PUSH1 0x20 ADD DUP3 DUP1 SLOAD PUSH2 0x42E SWAP1 PUSH2 0xF85 JUMP JUMPDEST DUP1 ISZERO PUSH2 0x47B JUMPI DUP1 PUSH1 0x1F LT PUSH2 0x450 JUMPI PUSH2 0x100 DUP1 DUP4 SLOAD DIV MUL DUP4 MSTORE SWAP2 PUSH1 0x20 ADD SWAP2 PUSH2 0x47B JUMP JUMPDEST DUP3 ADD SWAP2 SWAP1 PUSH1 0x0 MSTORE PUSH1 0x20 PUSH1 0x0 KECCAK256 SWAP1 JUMPDEST DUP2 SLOAD DUP2 MSTORE SWAP1 PUSH1 0x1 ADD SWAP1 PUSH1 0x20 ADD DUP1 DUP4 GT PUSH2 0x45E JUMPI DUP3 SWAP1 SUB PUSH1 0x1F AND DUP3 ADD SWAP2 JUMPDEST POP POP POP POP POP DUP2 MSTORE POP POP SWAP1 POP SWAP2 SWAP1 POP JUMP JUMPDEST DUP6 PUSH1 0x0 DUP1 CALLER PUSH20 0xFFFFFFFFFFFFFFFFFFFFFFFFFFFFFFFFFFFFFFFF AND PUSH20 0xFFFFFFFFFFFFFFFFFFFFFFFFFFFFFFFFFFFFFFFF AND DUP2 MSTORE PUSH1 0x20 ADD SWAP1 DUP2 MSTORE PUSH1 0x20 ADD PUSH1 0x0 KECCAK256 PUSH1 0x0 ADD SWAP1 DUP1 MLOAD SWAP1 PUSH1 0x20 ADD SWAP1 PUSH2 0x4E0 SWAP3 SWAP2 SWAP1 PUSH2 0xA39 JUMP JUMPDEST POP DUP5 PUSH1 0x0 DUP1 CALLER PUSH20 0xFFFFFFFFFFFFFFFFFFFFFFFFFFFFFFFFFFFFFFFF AND PUSH20 0xFFFFFFFFFFFFFFFFFFFFFFFFFFFFFFFFFFFFFFFF AND DUP2 MSTORE PUSH1 0x20 ADD SWAP1 DUP2 MSTORE PUSH1 0x20 ADD PUSH1 0x0 KECCAK256 PUSH1 0x1 ADD SWAP1 DUP1 MLOAD SWAP1 PUSH1 0x20 ADD SWAP1 PUSH2 0x536 SWAP3 SWAP2 SWAP1 PUSH2 0xA39 JUMP JUMPDEST POP DUP4 PUSH1 0x0 DUP1 CALLER PUSH20 0xFFFFFFFFFFFFFFFFFFFFFFFFFFFFFFFFFFFFFFFF AND PUSH20 0xFFFFFFFFFFFFFFFFFFFFFFFFFFFFFFFFFFFFFFFF AND DUP2 MSTORE PUSH1 0x20 ADD SWAP1 DUP2 MSTORE PUSH1 0x20 ADD PUSH1 0x0 KECCAK256 PUSH1 0x2 ADD SWAP1 DUP1 MLOAD SWAP1 PUSH1 0x20 ADD SWAP1 PUSH2 0x58C SWAP3 SWAP2 SWAP1 PUSH2 0xA39 JUMP JUMPDEST POP DUP3 PUSH1 0x0 DUP1 CALLER PUSH20 0xFFFFFFFFFFFFFFFFFFFFFFFFFFFFFFFFFFFFFFFF AND PUSH20 0xFFFFFFFFFFFFFFFFFFFFFFFFFFFFFFFFFFFFFFFF AND DUP2 MSTORE PUSH1 0x20 ADD SWAP1 DUP2 MSTORE PUSH1 0x20 ADD PUSH1 0x0 KECCAK256 PUSH1 0x3 ADD SWAP1 DUP1 MLOAD SWAP1 PUSH1 0x20 ADD SWAP1 PUSH2 0x5E2 SWAP3 SWAP2 SWAP1 PUSH2 0xA39 JUMP JUMPDEST POP DUP2 PUSH1 0x0 DUP1 CALLER PUSH20 0xFFFFFFFFFFFFFFFFFFFFFFFFFFFFFFFFFFFFFFFF AND PUSH20 0xFFFFFFFFFFFFFFFFFFFFFFFFFFFFFFFFFFFFFFFF AND DUP2 MSTORE PUSH1 0x20 ADD SWAP1 DUP2 MSTORE PUSH1 0x20 ADD PUSH1 0x0 KECCAK256 PUSH1 0x4 ADD SWAP1 DUP1 MLOAD SWAP1 PUSH1 0x20 ADD SWAP1 PUSH2 0x638 SWAP3 SWAP2 SWAP1 PUSH2 0xA39 JUMP JUMPDEST POP DUP1 PUSH1 0x0 DUP1 CALLER PUSH20 0xFFFFFFFFFFFFFFFFFFFFFFFFFFFFFFFFFFFFFFFF AND PUSH20 0xFFFFFFFFFFFFFFFFFFFFFFFFFFFFFFFFFFFFFFFF AND DUP2 MSTORE PUSH1 0x20 ADD SWAP1 DUP2 MSTORE PUSH1 0x20 ADD PUSH1 0x0 KECCAK256 PUSH1 0x5 ADD SWAP1 DUP1 MLOAD SWAP1 PUSH1 0x20 ADD SWAP1 PUSH2 0x68E SWAP3 SWAP2 SWAP1 PUSH2 0xA39 JUMP JUMPDEST POP POP POP POP POP POP POP JUMP JUMPDEST PUSH1 0x0 PUSH1 0x20 MSTORE DUP1 PUSH1 0x0 MSTORE PUSH1 0x40 PUSH1 0x0 KECCAK256 PUSH1 0x0 SWAP2 POP SWAP1 POP DUP1 PUSH1 0x0 ADD DUP1 SLOAD PUSH2 0x6BA SWAP1 PUSH2 0xF85 JUMP JUMPDEST DUP1 PUSH1 0x1F ADD PUSH1 0x20 DUP1 SWAP2 DIV MUL PUSH1 0x20 ADD PUSH1 0x40 MLOAD SWAP1 DUP2 ADD PUSH1 0x40 MSTORE DUP1 SWAP3 SWAP2 SWAP1 DUP2 DUP2 MSTORE PUSH1 0x20 ADD DUP3 DUP1 SLOAD PUSH2 0x6E6 SWAP1 PUSH2 0xF85 JUMP JUMPDEST DUP1 ISZERO PUSH2 0x733 JUMPI DUP1 PUSH1 0x1F LT PUSH2 0x708 JUMPI PUSH2 0x100 DUP1 DUP4 SLOAD DIV MUL DUP4 MSTORE SWAP2 PUSH1 0x20 ADD SWAP2 PUSH2 0x733 JUMP JUMPDEST DUP3 ADD SWAP2 SWAP1 PUSH1 0x0 MSTORE PUSH1 0x20 PUSH1 0x0 KECCAK256 SWAP1 JUMPDEST DUP2 SLOAD DUP2 MSTORE SWAP1 PUSH1 0x1 ADD SWAP1 PUSH1 0x20 ADD DUP1 DUP4 GT PUSH2 0x716 JUMPI DUP3 SWAP1 SUB PUSH1 0x1F AND DUP3 ADD SWAP2 JUMPDEST POP POP POP POP POP SWAP1 DUP1 PUSH1 0x1 ADD DUP1 SLOAD PUSH2 0x748 SWAP1 PUSH2 0xF85 JUMP JUMPDEST DUP1 PUSH1 0x1F ADD PUSH1 0x20 DUP1 SWAP2 DIV MUL PUSH1 0x20 ADD PUSH1 0x40 MLOAD SWAP1 DUP2 ADD PUSH1 0x40 MSTORE DUP1 SWAP3 SWAP2 SWAP1 DUP2 DUP2 MSTORE PUSH1 0x20 ADD DUP3 DUP1 SLOAD PUSH2 0x774 SWAP1 PUSH2 0xF85 JUMP JUMPDEST DUP1 ISZERO PUSH2 0x7C1 JUMPI DUP1 PUSH1 0x1F LT PUSH2 0x796 JUMPI PUSH2 0x100 DUP1 DUP4 SLOAD DIV MUL DUP4 MSTORE SWAP2 PUSH1 0x20 ADD SWAP2 PUSH2 0x7C1 JUMP JUMPDEST DUP3 ADD SWAP2 SWAP1 PUSH1 0x0 MSTORE PUSH1 0x20 PUSH1 0x0 KECCAK256 SWAP1 JUMPDEST DUP2 SLOAD DUP2 MSTORE SWAP1 PUSH1 0x1 ADD SWAP1 PUSH1 0x20 ADD DUP1 DUP4 GT PUSH2 0x7A4 JUMPI DUP3 SWAP1 SUB PUSH1 0x1F AND DUP3 ADD SWAP2 JUMPDEST POP POP POP POP POP SWAP1 DUP1 PUSH1 0x2 ADD DUP1 SLOAD PUSH2 0x7D6 SWAP1 PUSH2 0xF85 JUMP JUMPDEST DUP1 PUSH1 0x1F ADD PUSH1 0x20 DUP1 SWAP2 DIV MUL PUSH1 0x20 ADD PUSH1 0x40 MLOAD SWAP1 DUP2 ADD PUSH1 0x40 MSTORE DUP1 SWAP3 SWAP2 SWAP1 DUP2 DUP2 MSTORE PUSH1 0x20 ADD DUP3 DUP1 SLOAD PUSH2 0x802 SWAP1 PUSH2 0xF85 JUMP JUMPDEST DUP1 ISZERO PUSH2 0x84F JUMPI DUP1 PUSH1 0x1F LT PUSH2 0x824 JUMPI PUSH2 0x100 DUP1 DUP4 SLOAD DIV MUL DUP4 MSTORE SWAP2 PUSH1 0x20 ADD SWAP2 PUSH2 0x84F JUMP JUMPDEST DUP3 ADD SWAP2 SWAP1 PUSH1 0x0 MSTORE PUSH1 0x20 PUSH1 0x0 KECCAK256 SWAP1 JUMPDEST DUP2 SLOAD DUP2 MSTORE SWAP1 PUSH1 0x1 ADD SWAP1 PUSH1 0x20 ADD DUP1 DUP4 GT PUSH2 0x832 JUMPI DUP3 SWAP1 SUB PUSH1 0x1F AND DUP3 ADD SWAP2 JUMPDEST POP POP POP POP POP SWAP1 DUP1 PUSH1 0x3 ADD DUP1 SLOAD PUSH2 0x864 SWAP1 PUSH2 0xF85 JUMP JUMPDEST DUP1 PUSH1 0x1F ADD PUSH1 0x20 DUP1 SWAP2 DIV MUL PUSH1 0x20 ADD PUSH1 0x40 MLOAD SWAP1 DUP2 ADD PUSH1 0x40 MSTORE DUP1 SWAP3 SWAP2 SWAP1 DUP2 DUP2 MSTORE PUSH1 0x20 ADD DUP3 DUP1 SLOAD PUSH2 0x890 SWAP1 PUSH2 0xF85 JUMP JUMPDEST DUP1 ISZERO PUSH2 0x8DD JUMPI DUP1 PUSH1 0x1F LT PUSH2 0x8B2 JUMPI PUSH2 0x100 DUP1 DUP4 SLOAD DIV MUL DUP4 MSTORE SWAP2 PUSH1 0x20 ADD SWAP2 PUSH2 0x8DD JUMP JUMPDEST DUP3 ADD SWAP2 SWAP1 PUSH1 0x0 MSTORE PUSH1 0x20 PUSH1 0x0 KECCAK256 SWAP1 JUMPDEST DUP2 SLOAD DUP2 MSTORE SWAP1 PUSH1 0x1 ADD SWAP1 PUSH1 0x20 ADD DUP1 DUP4 GT PUSH2 0x8C0 JUMPI DUP3 SWAP1 SUB PUSH1 0x1F AND DUP3 ADD SWAP2 JUMPDEST POP POP POP POP POP SWAP1 DUP1 PUSH1 0x4 ADD DUP1 SLOAD PUSH2 0x8F2 SWAP1 PUSH2 0xF85 JUMP JUMPDEST DUP1 PUSH1 0x1F ADD PUSH1 0x20 DUP1 SWAP2 DIV MUL PUSH1 0x20 ADD PUSH1 0x40 MLOAD SWAP1 DUP2 ADD PUSH1 0x40 MSTORE DUP1 SWAP3 SWAP2 SWAP1 DUP2 DUP2 MSTORE PUSH1 0x20 ADD DUP3 DUP1 SLOAD PUSH2 0x91E SWAP1 PUSH2 0xF85 JUMP JUMPDEST DUP1 ISZERO PUSH2 0x96B JUMPI DUP1 PUSH1 0x1F LT PUSH2 0x940 JUMPI PUSH2 0x100 DUP1 DUP4 SLOAD DIV MUL DUP4 MSTORE SWAP2 PUSH1 0x20 ADD SWAP2 PUSH2 0x96B JUMP JUMPDEST DUP3 ADD SWAP2 SWAP1 PUSH1 0x0 MSTORE PUSH1 0x20 PUSH1 0x0 KECCAK256 SWAP1 JUMPDEST DUP2 SLOAD DUP2 MSTORE SWAP1 PUSH1 0x1 ADD SWAP1 PUSH1 0x20 ADD DUP1 DUP4 GT PUSH2 0x94E JUMPI DUP3 SWAP1 SUB PUSH1 0x1F AND DUP3 ADD SWAP2 JUMPDEST POP POP POP POP POP SWAP1 DUP1 PUSH1 0x5 ADD DUP1 SLOAD PUSH2 0x980 SWAP1 PUSH2 0xF85 JUMP JUMPDEST DUP1 PUSH1 0x1F ADD PUSH1 0x20 DUP1 SWAP2 DIV MUL PUSH1 0x20 ADD PUSH1 0x40 MLOAD SWAP1 DUP2 ADD PUSH1 0x40 MSTORE DUP1 SWAP3 SWAP2 SWAP1 DUP2 DUP2 MSTORE PUSH1 0x20 ADD DUP3 DUP1 SLOAD PUSH2 0x9AC SWAP1 PUSH2 0xF85 JUMP JUMPDEST DUP1 ISZERO PUSH2 0x9F9 JUMPI DUP1 PUSH1 0x1F LT PUSH2 0x9CE JUMPI PUSH2 0x100 DUP1 DUP4 SLOAD DIV MUL DUP4 MSTORE SWAP2 PUSH1 0x20 ADD SWAP2 PUSH2 0x9F9 JUMP JUMPDEST DUP3 ADD SWAP2 SWAP1 PUSH1 0x0 MSTORE PUSH1 0x20 PUSH1 0x0 KECCAK256 SWAP1 JUMPDEST DUP2 SLOAD DUP2 MSTORE SWAP1 PUSH1 0x1 ADD SWAP1 PUSH1 0x20 ADD DUP1 DUP4 GT PUSH2 0x9DC JUMPI DUP3 SWAP1 SUB PUSH1 0x1F AND DUP3 ADD SWAP2 JUMPDEST POP POP POP POP POP SWAP1 POP DUP7 JUMP JUMPDEST PUSH1 0x40 MLOAD DUP1 PUSH1 0xC0 ADD PUSH1 0x40 MSTORE DUP1 PUSH1 0x60 DUP2 MSTORE PUSH1 0x20 ADD PUSH1 0x60 DUP2 MSTORE PUSH1 0x20 ADD PUSH1 0x60 DUP2 MSTORE PUSH1 0x20 ADD PUSH1 0x60 DUP2 MSTORE PUSH1 0x20 ADD PUSH1 0x60 DUP2 MSTORE PUSH1 0x20 ADD PUSH1 0x60 DUP2 MSTORE POP SWAP1 JUMP JUMPDEST DUP3 DUP1 SLOAD PUSH2 0xA45 SWAP1 PUSH2 0xF85 JUMP JUMPDEST SWAP1 PUSH1 0x0 MSTORE PUSH1 0x20 PUSH1 0x0 KECCAK256 SWAP1 PUSH1 0x1F ADD PUSH1 0x20 SWAP1 DIV DUP2 ADD SWAP3 DUP3 PUSH2 0xA67 JUMPI PUSH1 0x0 DUP6 SSTORE PUSH2 0xAAE JUMP JUMPDEST DUP3 PUSH1 0x1F LT PUSH2 0xA80 JUMPI DUP1 MLOAD PUSH1 0xFF NOT AND DUP4 DUP1 ADD OR DUP6 SSTORE PUSH2 0xAAE JUMP JUMPDEST DUP3 DUP1 ADD PUSH1 0x1 ADD DUP6 SSTORE DUP3 ISZERO PUSH2 0xAAE JUMPI SWAP2 DUP3 ADD JUMPDEST DUP3 DUP2 GT ISZERO PUSH2 0xAAD JUMPI DUP3 MLOAD DUP3 SSTORE SWAP2 PUSH1 0x20 ADD SWAP2 SWAP1 PUSH1 0x1 ADD SWAP1 PUSH2 0xA92 JUMP JUMPDEST JUMPDEST POP SWAP1 POP PUSH2 0xABB SWAP2 SWAP1 PUSH2 0xABF JUMP JUMPDEST POP SWAP1 JUMP JUMPDEST JUMPDEST DUP1 DUP3 GT ISZERO PUSH2 0xAD8 JUMPI PUSH1 0x0 DUP2 PUSH1 0x0 SWAP1 SSTORE POP PUSH1 0x1 ADD PUSH2 0xAC0 JUMP JUMPDEST POP SWAP1 JUMP JUMPDEST PUSH1 0x0 PUSH2 0xAEF PUSH2 0xAEA DUP5 PUSH2 0xEB3 JUMP JUMPDEST PUSH2 0xE8E JUMP JUMPDEST SWAP1 POP DUP3 DUP2 MSTORE PUSH1 0x20 DUP2 ADD DUP5 DUP5 DUP5 ADD GT ISZERO PUSH2 0xB0B JUMPI PUSH2 0xB0A PUSH2 0x104B JUMP JUMPDEST JUMPDEST PUSH2 0xB16 DUP5 DUP3 DUP6 PUSH2 0xF43 JUMP JUMPDEST POP SWAP4 SWAP3 POP POP POP JUMP JUMPDEST PUSH1 0x0 DUP2 CALLDATALOAD SWAP1 POP PUSH2 0xB2D DUP2 PUSH2 0x106B JUMP JUMPDEST SWAP3 SWAP2 POP POP JUMP JUMPDEST PUSH1 0x0 DUP3 PUSH1 0x1F DUP4 ADD SLT PUSH2 0xB48 JUMPI PUSH2 0xB47 PUSH2 0x1046 JUMP JUMPDEST JUMPDEST DUP2 CALLDATALOAD PUSH2 0xB58 DUP5 DUP3 PUSH1 0x20 DUP7 ADD PUSH2 0xADC JUMP JUMPDEST SWAP2 POP POP SWAP3 SWAP2 POP POP JUMP JUMPDEST PUSH1 0x0 PUSH1 0x20 DUP3 DUP5 SUB SLT ISZERO PUSH2 0xB77 JUMPI PUSH2 0xB76 PUSH2 0x1055 JUMP JUMPDEST JUMPDEST PUSH1 0x0 PUSH2 0xB85 DUP5 DUP3 DUP6 ADD PUSH2 0xB1E JUMP JUMPDEST SWAP2 POP POP SWAP3 SWAP2 POP POP JUMP JUMPDEST PUSH1 0x0 DUP1 PUSH1 0x0 DUP1 PUSH1 0x0 DUP1 PUSH1 0xC0 DUP8 DUP10 SUB SLT ISZERO PUSH2 0xBAB JUMPI PUSH2 0xBAA PUSH2 0x1055 JUMP JUMPDEST JUMPDEST PUSH1 0x0 DUP8 ADD CALLDATALOAD PUSH8 0xFFFFFFFFFFFFFFFF DUP2 GT ISZERO PUSH2 0xBC9 JUMPI PUSH2 0xBC8 PUSH2 0x1050 JUMP JUMPDEST JUMPDEST PUSH2 0xBD5 DUP10 DUP3 DUP11 ADD PUSH2 0xB33 JUMP JUMPDEST SWAP7 POP POP PUSH1 0x20 DUP8 ADD CALLDATALOAD PUSH8 0xFFFFFFFFFFFFFFFF DUP2 GT ISZERO PUSH2 0xBF6 JUMPI PUSH2 0xBF5 PUSH2 0x1050 JUMP JUMPDEST JUMPDEST PUSH2 0xC02 DUP10 DUP3 DUP11 ADD PUSH2 0xB33 JUMP JUMPDEST SWAP6 POP POP PUSH1 0x40 DUP8 ADD CALLDATALOAD PUSH8 0xFFFFFFFFFFFFFFFF DUP2 GT ISZERO PUSH2 0xC23 JUMPI PUSH2 0xC22 PUSH2 0x1050 JUMP JUMPDEST JUMPDEST PUSH2 0xC2F DUP10 DUP3 DUP11 ADD PUSH2 0xB33 JUMP JUMPDEST SWAP5 POP POP PUSH1 0x60 DUP8 ADD CALLDATALOAD PUSH8 0xFFFFFFFFFFFFFFFF DUP2 GT ISZERO PUSH2 0xC50 JUMPI PUSH2 0xC4F PUSH2 0x1050 JUMP JUMPDEST JUMPDEST PUSH2 0xC5C DUP10 DUP3 DUP11 ADD PUSH2 0xB33 JUMP JUMPDEST SWAP4 POP POP PUSH1 0x80 DUP8 ADD CALLDATALOAD PUSH8 0xFFFFFFFFFFFFFFFF DUP2 GT ISZERO PUSH2 0xC7D JUMPI PUSH2 0xC7C PUSH2 0x1050 JUMP JUMPDEST JUMPDEST PUSH2 0xC89 DUP10 DUP3 DUP11 ADD PUSH2 0xB33 JUMP JUMPDEST SWAP3 POP POP PUSH1 0xA0 DUP8 ADD CALLDATALOAD PUSH8 0xFFFFFFFFFFFFFFFF DUP2 GT ISZERO PUSH2 0xCAA JUMPI PUSH2 0xCA9 PUSH2 0x1050 JUMP JUMPDEST JUMPDEST PUSH2 0xCB6 DUP10 DUP3 DUP11 ADD PUSH2 0xB33 JUMP JUMPDEST SWAP2 POP POP SWAP3 SWAP6 POP SWAP3 SWAP6 POP SWAP3 SWAP6 JUMP JUMPDEST PUSH1 0x0 PUSH2 0xCCE DUP3 PUSH2 0xEE4 JUMP JUMPDEST PUSH2 0xCD8 DUP2 DUP6 PUSH2 0xEEF JUMP JUMPDEST SWAP4 POP PUSH2 0xCE8 DUP2 DUP6 PUSH1 0x20 DUP7 ADD PUSH2 0xF52 JUMP JUMPDEST PUSH2 0xCF1 DUP2 PUSH2 0x105A JUMP JUMPDEST DUP5 ADD SWAP2 POP POP SWAP3 SWAP2 POP POP JUMP JUMPDEST PUSH1 0x0 PUSH2 0xD07 DUP3 PUSH2 0xEE4 JUMP JUMPDEST PUSH2 0xD11 DUP2 DUP6 PUSH2 0xF00 JUMP JUMPDEST SWAP4 POP PUSH2 0xD21 DUP2 DUP6 PUSH1 0x20 DUP7 ADD PUSH2 0xF52 JUMP JUMPDEST PUSH2 0xD2A DUP2 PUSH2 0x105A JUMP JUMPDEST DUP5 ADD SWAP2 POP POP SWAP3 SWAP2 POP POP JUMP JUMPDEST PUSH1 0x0 PUSH1 0xC0 DUP4 ADD PUSH1 0x0 DUP4 ADD MLOAD DUP5 DUP3 SUB PUSH1 0x0 DUP7 ADD MSTORE PUSH2 0xD52 DUP3 DUP3 PUSH2 0xCC3 JUMP JUMPDEST SWAP2 POP POP PUSH1 0x20 DUP4 ADD MLOAD DUP5 DUP3 SUB PUSH1 0x20 DUP7 ADD MSTORE PUSH2 0xD6C DUP3 DUP3 PUSH2 0xCC3 JUMP JUMPDEST SWAP2 POP POP PUSH1 0x40 DUP4 ADD MLOAD DUP5 DUP3 SUB PUSH1 0x40 DUP7 ADD MSTORE PUSH2 0xD86 DUP3 DUP3 PUSH2 0xCC3 JUMP JUMPDEST SWAP2 POP POP PUSH1 0x60 DUP4 ADD MLOAD DUP5 DUP3 SUB PUSH1 0x60 DUP7 ADD MSTORE PUSH2 0xDA0 DUP3 DUP3 PUSH2 0xCC3 JUMP JUMPDEST SWAP2 POP POP PUSH1 0x80 DUP4 ADD MLOAD DUP5 DUP3 SUB PUSH1 0x80 DUP7 ADD MSTORE PUSH2 0xDBA DUP3 DUP3 PUSH2 0xCC3 JUMP JUMPDEST SWAP2 POP POP PUSH1 0xA0 DUP4 ADD MLOAD DUP5 DUP3 SUB PUSH1 0xA0 DUP7 ADD MSTORE PUSH2 0xDD4 DUP3 DUP3 PUSH2 0xCC3 JUMP JUMPDEST SWAP2 POP POP DUP1 SWAP2 POP POP SWAP3 SWAP2 POP POP JUMP JUMPDEST PUSH1 0x0 PUSH1 0xC0 DUP3 ADD SWAP1 POP DUP2 DUP2 SUB PUSH1 0x0 DUP4 ADD MSTORE PUSH2 0xDFB DUP2 DUP10 PUSH2 0xCFC JUMP JUMPDEST SWAP1 POP DUP2 DUP2 SUB PUSH1 0x20 DUP4 ADD MSTORE PUSH2 0xE0F DUP2 DUP9 PUSH2 0xCFC JUMP JUMPDEST SWAP1 POP DUP2 DUP2 SUB PUSH1 0x40 DUP4 ADD MSTORE PUSH2 0xE23 DUP2 DUP8 PUSH2 0xCFC JUMP JUMPDEST SWAP1 POP DUP2 DUP2 SUB PUSH1 0x60 DUP4 ADD MSTORE PUSH2 0xE37 DUP2 DUP7 PUSH2 0xCFC JUMP JUMPDEST SWAP1 POP DUP2 DUP2 SUB PUSH1 0x80 DUP4 ADD MSTORE PUSH2 0xE4B DUP2 DUP6 PUSH2 0xCFC JUMP JUMPDEST SWAP1 POP DUP2 DUP2 SUB PUSH1 0xA0 DUP4 ADD MSTORE PUSH2 0xE5F DUP2 DUP5 PUSH2 0xCFC JUMP JUMPDEST SWAP1 POP SWAP8 SWAP7 POP POP POP POP POP POP POP JUMP JUMPDEST PUSH1 0x0 PUSH1 0x20 DUP3 ADD SWAP1 POP DUP2 DUP2 SUB PUSH1 0x0 DUP4 ADD MSTORE PUSH2 0xE86 DUP2 DUP5 PUSH2 0xD35 JUMP JUMPDEST SWAP1 POP SWAP3 SWAP2 POP POP JUMP JUMPDEST PUSH1 0x0 PUSH2 0xE98 PUSH2 0xEA9 JUMP JUMPDEST SWAP1 POP PUSH2 0xEA4 DUP3 DUP3 PUSH2 0xFB7 JUMP JUMPDEST SWAP2 SWAP1 POP JUMP JUMPDEST PUSH1 0x0 PUSH1 0x40 MLOAD SWAP1 POP SWAP1 JUMP JUMPDEST PUSH1 0x0 PUSH8 0xFFFFFFFFFFFFFFFF DUP3 GT ISZERO PUSH2 0xECE JUMPI PUSH2 0xECD PUSH2 0x1017 JUMP JUMPDEST JUMPDEST PUSH2 0xED7 DUP3 PUSH2 0x105A JUMP JUMPDEST SWAP1 POP PUSH1 0x20 DUP2 ADD SWAP1 POP SWAP2 SWAP1 POP JUMP JUMPDEST PUSH1 0x0 DUP2 MLOAD SWAP1 POP SWAP2 SWAP1 POP JUMP JUMPDEST PUSH1 0x0 DUP3 DUP3 MSTORE PUSH1 0x20 DUP3 ADD SWAP1 POP SWAP3 SWAP2 POP POP JUMP JUMPDEST PUSH1 0x0 DUP3 DUP3 MSTORE PUSH1 0x20 DUP3 ADD SWAP1 POP SWAP3 SWAP2 POP POP JUMP JUMPDEST PUSH1 0x0 PUSH2 0xF1C DUP3 PUSH2 0xF23 JUMP JUMPDEST SWAP1 POP SWAP2 SWAP1 POP JUMP JUMPDEST PUSH1 0x0 PUSH20 0xFFFFFFFFFFFFFFFFFFFFFFFFFFFFFFFFFFFFFFFF DUP3 AND SWAP1 POP SWAP2 SWAP1 POP JUMP JUMPDEST DUP3 DUP2 DUP4 CALLDATACOPY PUSH1 0x0 DUP4 DUP4 ADD MSTORE POP POP POP JUMP JUMPDEST PUSH1 0x0 JUMPDEST DUP4 DUP2 LT ISZERO PUSH2 0xF70 JUMPI DUP1 DUP3 ADD MLOAD DUP2 DUP5 ADD MSTORE PUSH1 0x20 DUP2 ADD SWAP1 POP PUSH2 0xF55 JUMP JUMPDEST DUP4 DUP2 GT ISZERO PUSH2 0xF7F JUMPI PUSH1 0x0 DUP5 DUP5 ADD MSTORE JUMPDEST POP POP POP POP JUMP JUMPDEST PUSH1 0x0 PUSH1 0x2 DUP3 DIV SWAP1 POP PUSH1 0x1 DUP3 AND DUP1 PUSH2 0xF9D JUMPI PUSH1 0x7F DUP3 AND SWAP2 POP JUMPDEST PUSH1 0x20 DUP3 LT DUP2 EQ ISZERO PUSH2 0xFB1 JUMPI PUSH2 0xFB0 PUSH2 0xFE8 JUMP JUMPDEST JUMPDEST POP SWAP2 SWAP1 POP JUMP JUMPDEST PUSH2 0xFC0 DUP3 PUSH2 0x105A JUMP JUMPDEST DUP2 ADD DUP2 DUP2 LT PUSH8 0xFFFFFFFFFFFFFFFF DUP3 GT OR ISZERO PUSH2 0xFDF JUMPI PUSH2 0xFDE PUSH2 0x1017 JUMP JUMPDEST JUMPDEST DUP1 PUSH1 0x40 MSTORE POP POP POP JUMP JUMPDEST PUSH32 0x4E487B7100000000000000000000000000000000000000000000000000000000 PUSH1 0x0 MSTORE PUSH1 0x22 PUSH1 0x4 MSTORE PUSH1 0x24 PUSH1 0x0 REVERT JUMPDEST PUSH32 0x4E487B7100000000000000000000000000000000000000000000000000000000 PUSH1 0x0 MSTORE PUSH1 0x41 PUSH1 0x4 MSTORE PUSH1 0x24 PUSH1 0x0 REVERT JUMPDEST PUSH1 0x0 DUP1 REVERT JUMPDEST PUSH1 0x0 DUP1 REVERT JUMPDEST PUSH1 0x0 DUP1 REVERT JUMPDEST PUSH1 0x0 DUP1 REVERT JUMPDEST PUSH1 0x0 PUSH1 0x1F NOT PUSH1 0x1F DUP4 ADD AND SWAP1 POP SWAP2 SWAP1 POP JUMP JUMPDEST PUSH2 0x1074 DUP2 PUSH2 0xF11 JUMP JUMPDEST DUP2 EQ PUSH2 0x107F JUMPI PUSH1 0x0 DUP1 REVERT JUMPDEST POP JUMP INVALID LOG2 PUSH5 0x6970667358 0x22 SLT KECCAK256 0xE1 PUSH32 0x3D57234355C4FC5798EBA5020D68BF87DE01C6B59DDF39DEF2A34008AEE46473 PUSH16 0x6C634300080700330000000000000000 "
				},
				"gasEstimates": {
					"creation": {
						"codeDepositCost": "856000",
						"executionCost": "890",
						"totalCost": "856890"
					},
					"external": {
						"addBio(string,string,string,string,string,string)": "infinite",
						"getBio(address)": "infinite",
						"profile(address)": "infinite"
					}
				},
				"methodIdentifiers": {
					"addBio(string,string,string,string,string,string)": "721041af",
					"getBio(address)": "3fd0bf17",
					"profile(address)": "9dd9d0fd"
				}
			},
			"storageLayout": {
				"storage": [
					{
						"astId": 19,
						"contract": "contracts/Profile.sol:Profile",
						"label": "profile",
						"offset": 0,
						"slot": "0",
						"type": "t_mapping(t_address,t_struct(Bio)14_storage)"
					}
				],
				"types": {
					"t_address": {
						"encoding": "inplace",
						"label": "address",
						"numberOfBytes": "20"
					},
					"t_mapping(t_address,t_struct(Bio)14_storage)": {
						"encoding": "mapping",
						"key": "t_address",
						"label": "mapping(address => struct Profile.Bio)",
						"numberOfBytes": "32",
						"value": "t_struct(Bio)14_storage"
					},
					"t_string_storage": {
						"encoding": "bytes",
						"label": "string",
						"numberOfBytes": "32"
					},
					"t_struct(Bio)14_storage": {
						"encoding": "inplace",
						"label": "struct Profile.Bio",
						"members": [
							{
								"astId": 3,
								"contract": "contracts/Profile.sol:Profile",
								"label": "firstName",
								"offset": 0,
								"slot": "0",
								"type": "t_string_storage"
							},
							{
								"astId": 5,
								"contract": "contracts/Profile.sol:Profile",
								"label": "middleName",
								"offset": 0,
								"slot": "1",
								"type": "t_string_storage"
							},
							{
								"astId": 7,
								"contract": "contracts/Profile.sol:Profile",
								"label": "lastName",
								"offset": 0,
								"slot": "2",
								"type": "t_string_storage"
							},
							{
								"astId": 9,
								"contract": "contracts/Profile.sol:Profile",
								"label": "email",
								"offset": 0,
								"slot": "3",
								"type": "t_string_storage"
							},
							{
								"astId": 11,
								"contract": "contracts/Profile.sol:Profile",
								"label": "phone",
								"offset": 0,
								"slot": "4",
								"type": "t_string_storage"
							},
							{
								"astId": 13,
								"contract": "contracts/Profile.sol:Profile",
								"label": "profileImage",
								"offset": 0,
								"slot": "5",
								"type": "t_string_storage"
							}
						],
						"numberOfBytes": "192"
					}
				}
			},
			"userdoc": {
				"kind": "user",
				"methods": {},
				"version": 1
			}
		}
	}
}