{
	"contracts/Profile.sol": {
		"Profile": {
			"abi": [
				{
					"inputs": [
						{
							"internalType": "string[]",
							"name": "award",
							"type": "string[]"
						},
						{
							"internalType": "string[]",
							"name": "certificate",
							"type": "string[]"
						}
					],
					"name": "createAward",
					"outputs": [],
					"stateMutability": "nonpayable",
					"type": "function"
				},
				{
					"inputs": [
						{
							"internalType": "string",
							"name": "email",
							"type": "string"
						},
						{
							"internalType": "string",
							"name": "phone",
							"type": "string"
						},
						{
							"internalType": "string",
							"name": "github",
							"type": "string"
						},
						{
							"internalType": "string",
							"name": "gitlab",
							"type": "string"
						},
						{
							"internalType": "string",
							"name": "linkin",
							"type": "string"
						}
					],
					"name": "createContract",
					"outputs": [],
					"stateMutability": "nonpayable",
					"type": "function"
				},
				{
					"inputs": [
						{
							"internalType": "string",
							"name": "firstName",
							"type": "string"
						},
						{
							"internalType": "string",
							"name": "middleName",
							"type": "string"
						},
						{
							"internalType": "string",
							"name": "lastName",
							"type": "string"
						},
						{
							"internalType": "string",
							"name": "profileImage",
							"type": "string"
						},
						{
							"internalType": "string",
							"name": "aboutMe",
							"type": "string"
						},
						{
							"internalType": "string",
							"name": "position",
							"type": "string"
						}
					],
					"name": "createInformation",
					"outputs": [],
					"stateMutability": "nonpayable",
					"type": "function"
				},
				{
					"inputs": [
						{
							"internalType": "string[]",
							"name": "programmingLanguages",
							"type": "string[]"
						},
						{
							"internalType": "string[]",
							"name": "framework",
							"type": "string[]"
						},
						{
							"internalType": "string[]",
							"name": "databaseAndOther",
							"type": "string[]"
						}
					],
					"name": "createSkill",
					"outputs": [],
					"stateMutability": "nonpayable",
					"type": "function"
				},
				{
					"inputs": [
						{
							"internalType": "string",
							"name": "startDate",
							"type": "string"
						},
						{
							"internalType": "string",
							"name": "endDate",
							"type": "string"
						},
						{
							"internalType": "string",
							"name": "univercity",
							"type": "string"
						},
						{
							"internalType": "string",
							"name": "major",
							"type": "string"
						},
						{
							"internalType": "string",
							"name": "finalProject",
							"type": "string"
						}
					],
					"name": "createUnivercity",
					"outputs": [],
					"stateMutability": "nonpayable",
					"type": "function"
				},
				{
					"inputs": [],
					"name": "delAllEducation",
					"outputs": [],
					"stateMutability": "nonpayable",
					"type": "function"
				},
				{
					"inputs": [],
					"name": "delCertificateAndAward",
					"outputs": [],
					"stateMutability": "nonpayable",
					"type": "function"
				},
				{
					"inputs": [],
					"name": "delInformaion",
					"outputs": [],
					"stateMutability": "nonpayable",
					"type": "function"
				},
				{
					"inputs": [],
					"name": "delProfile",
					"outputs": [],
					"stateMutability": "nonpayable",
					"type": "function"
				},
				{
					"inputs": [
						{
							"internalType": "uint256",
							"name": "index",
							"type": "uint256"
						}
					],
					"name": "getEducation",
					"outputs": [
						{
							"internalType": "string",
							"name": "",
							"type": "string"
						},
						{
							"internalType": "string",
							"name": "",
							"type": "string"
						},
						{
							"internalType": "string",
							"name": "",
							"type": "string"
						},
						{
							"internalType": "string",
							"name": "",
							"type": "string"
						},
						{
							"internalType": "string",
							"name": "",
							"type": "string"
						}
					],
					"stateMutability": "view",
					"type": "function"
				},
				{
					"inputs": [],
					"name": "getEducationCount",
					"outputs": [
						{
							"internalType": "uint256",
							"name": "",
							"type": "uint256"
						}
					],
					"stateMutability": "view",
					"type": "function"
				},
				{
					"inputs": [
						{
							"internalType": "address",
							"name": "",
							"type": "address"
						}
					],
					"name": "profile",
					"outputs": [
						{
							"components": [
								{
									"internalType": "string",
									"name": "aboutMe",
									"type": "string"
								},
								{
									"internalType": "string",
									"name": "position",
									"type": "string"
								},
								{
									"internalType": "address",
									"name": "userAddress",
									"type": "address"
								},
								{
									"internalType": "string",
									"name": "firstName",
									"type": "string"
								},
								{
									"internalType": "string",
									"name": "middleName",
									"type": "string"
								},
								{
									"internalType": "string",
									"name": "lastName",
									"type": "string"
								},
								{
									"internalType": "string",
									"name": "profileImage",
									"type": "string"
								},
								{
									"internalType": "uint256",
									"name": "createDate",
									"type": "uint256"
								}
							],
							"internalType": "struct Profile.Information",
							"name": "information",
							"type": "tuple"
						},
						{
							"components": [
								{
									"internalType": "string",
									"name": "aboutMe",
									"type": "string"
								},
								{
									"internalType": "string",
									"name": "email",
									"type": "string"
								},
								{
									"internalType": "string",
									"name": "phone",
									"type": "string"
								},
								{
									"internalType": "string",
									"name": "github",
									"type": "string"
								},
								{
									"internalType": "string",
									"name": "gitlab",
									"type": "string"
								},
								{
									"internalType": "string",
									"name": "linkin",
									"type": "string"
								}
							],
							"internalType": "struct Profile.Contract",
							"name": "privateContract",
							"type": "tuple"
						},
						{
							"components": [
								{
									"internalType": "string[]",
									"name": "programmingLanguages",
									"type": "string[]"
								},
								{
									"internalType": "string[]",
									"name": "framework",
									"type": "string[]"
								},
								{
									"internalType": "string[]",
									"name": "databaseAndOther",
									"type": "string[]"
								}
							],
							"internalType": "struct Profile.Skill",
							"name": "skill",
							"type": "tuple"
						},
						{
							"components": [
								{
									"internalType": "string[]",
									"name": "certificate",
									"type": "string[]"
								},
								{
									"internalType": "string[]",
									"name": "award",
									"type": "string[]"
								}
							],
							"internalType": "struct Profile.CertificateAndAward",
							"name": "certificateAndAward",
							"type": "tuple"
						}
					],
					"stateMutability": "view",
					"type": "function"
				}
			],
			"devdoc": {
				"kind": "dev",
				"methods": {},
				"version": 1
			},
			"evm": {
				"assembly": "    /* \"contracts/Profile.sol\":60:4731  contract Profile {\r... */\n  mstore(0x40, 0x80)\n  callvalue\n  dup1\n  iszero\n  tag_1\n  jumpi\n  0x00\n  dup1\n  revert\ntag_1:\n  pop\n  dataSize(sub_0)\n  dup1\n  dataOffset(sub_0)\n  0x00\n  codecopy\n  0x00\n  return\nstop\n\nsub_0: assembly {\n        /* \"contracts/Profile.sol\":60:4731  contract Profile {\r... */\n      mstore(0x40, 0x80)\n      callvalue\n      dup1\n      iszero\n      tag_1\n      jumpi\n      0x00\n      dup1\n      revert\n    tag_1:\n      pop\n      jumpi(tag_2, lt(calldatasize, 0x04))\n      shr(0xe0, calldataload(0x00))\n      dup1\n      0x958791ae\n      gt\n      tag_15\n      jumpi\n      dup1\n      0x958791ae\n      eq\n      tag_9\n      jumpi\n      dup1\n      0x95ea3757\n      eq\n      tag_10\n      jumpi\n      dup1\n      0x9dd9d0fd\n      eq\n      tag_11\n      jumpi\n      dup1\n      0xed2217ef\n      eq\n      tag_12\n      jumpi\n      dup1\n      0xf96e32f8\n      eq\n      tag_13\n      jumpi\n      dup1\n      0xfabce08f\n      eq\n      tag_14\n      jumpi\n      jump(tag_2)\n    tag_15:\n      dup1\n      0x3d984d0e\n      eq\n      tag_3\n      jumpi\n      dup1\n      0x4ed74067\n      eq\n      tag_4\n      jumpi\n      dup1\n      0x6212fa02\n      eq\n      tag_5\n      jumpi\n      dup1\n      0x66244dfb\n      eq\n      tag_6\n      jumpi\n      dup1\n      0x6c2cc774\n      eq\n      tag_7\n      jumpi\n      dup1\n      0x72828388\n      eq\n      tag_8\n      jumpi\n    tag_2:\n      0x00\n      dup1\n      revert\n        /* \"contracts/Profile.sol\":2622:3010  function createSkill(string[] memory programmingLanguages, string[] memory framework, string[] memory databaseAndOther) public {\r... */\n    tag_3:\n      tag_16\n      0x04\n      dup1\n      calldatasize\n      sub\n      dup2\n      add\n      swap1\n      tag_17\n      swap2\n      swap1\n      tag_18\n      jump\t// in\n    tag_17:\n      tag_19\n      jump\t// in\n    tag_16:\n      stop\n        /* \"contracts/Profile.sol\":4618:4726  function delCertificateAndAward() external {\r... */\n    tag_4:\n      tag_20\n      tag_21\n      jump\t// in\n    tag_20:\n      stop\n        /* \"contracts/Profile.sol\":3957:4075  function getEducationCount() public view returns (uint) {\r... */\n    tag_5:\n      tag_22\n      tag_23\n      jump\t// in\n    tag_22:\n      mload(0x40)\n      tag_24\n      swap2\n      swap1\n      tag_25\n      jump\t// in\n    tag_24:\n      mload(0x40)\n      dup1\n      swap2\n      sub\n      swap1\n      return\n        /* \"contracts/Profile.sol\":3077:3547  function createUnivercity(string memory startDate, string memory endDate, string memory univercity, string memory major, string memory finalProject) public {\r... */\n    tag_6:\n      tag_26\n      0x04\n      dup1\n      calldatasize\n      sub\n      dup2\n      add\n      swap1\n      tag_27\n      swap2\n      swap1\n      tag_28\n      jump\t// in\n    tag_27:\n      tag_29\n      jump\t// in\n    tag_26:\n      stop\n        /* \"contracts/Profile.sol\":4083:4311  function createAward(string[] memory award, string[] memory certificate) public {\r... */\n    tag_7:\n      tag_30\n      0x04\n      dup1\n      calldatasize\n      sub\n      dup2\n      add\n      swap1\n      tag_31\n      swap2\n      swap1\n      tag_32\n      jump\t// in\n    tag_31:\n      tag_33\n      jump\t// in\n    tag_30:\n      stop\n        /* \"contracts/Profile.sol\":2031:2535  function createContract(string memory email, string memory phone, string memory github, string memory gitlab, string memory linkin) public {\r... */\n    tag_8:\n      tag_34\n      0x04\n      dup1\n      calldatasize\n      sub\n      dup2\n      add\n      swap1\n      tag_35\n      swap2\n      swap1\n      tag_28\n      jump\t// in\n    tag_35:\n      tag_36\n      jump\t// in\n    tag_34:\n      stop\n        /* \"contracts/Profile.sol\":1260:1976  function createInformation(string memory firstName, string memory middleName, string memory lastName,  string memory profileImage, string memory aboutMe, string memory position) public {\r... */\n    tag_9:\n      tag_37\n      0x04\n      dup1\n      calldatasize\n      sub\n      dup2\n      add\n      swap1\n      tag_38\n      swap2\n      swap1\n      tag_39\n      jump\t// in\n    tag_38:\n      tag_40\n      jump\t// in\n    tag_37:\n      stop\n        /* \"contracts/Profile.sol\":4434:4526  function delInformaion() external  {\r... */\n    tag_10:\n      tag_41\n      tag_42\n      jump\t// in\n    tag_41:\n      stop\n        /* \"contracts/Profile.sol\":322:362  mapping (address => Bio) public  profile */\n    tag_11:\n      tag_43\n      0x04\n      dup1\n      calldatasize\n      sub\n      dup2\n      add\n      swap1\n      tag_44\n      swap2\n      swap1\n      tag_45\n      jump\t// in\n    tag_44:\n      tag_46\n      jump\t// in\n    tag_43:\n      mload(0x40)\n      tag_47\n      swap5\n      swap4\n      swap3\n      swap2\n      swap1\n      tag_48\n      jump\t// in\n    tag_47:\n      mload(0x40)\n      dup1\n      swap2\n      sub\n      swap1\n      return\n        /* \"contracts/Profile.sol\":4334:4426  function delAllEducation() external  {\r... */\n    tag_12:\n      tag_49\n      tag_50\n      jump\t// in\n    tag_49:\n      stop\n        /* \"contracts/Profile.sol\":3556:3949  function getEducation(uint index) public view returns(string memory, string memory, string memory, string memory, string memory) {\r... */\n    tag_13:\n      tag_51\n      0x04\n      dup1\n      calldatasize\n      sub\n      dup2\n      add\n      swap1\n      tag_52\n      swap2\n      swap1\n      tag_53\n      jump\t// in\n    tag_52:\n      tag_54\n      jump\t// in\n    tag_51:\n      mload(0x40)\n      tag_55\n      swap6\n      swap5\n      swap4\n      swap3\n      swap2\n      swap1\n      tag_56\n      jump\t// in\n    tag_55:\n      mload(0x40)\n      dup1\n      swap2\n      sub\n      swap1\n      return\n        /* \"contracts/Profile.sol\":4534:4610  function delProfile() external {\r... */\n    tag_14:\n      tag_57\n      tag_58\n      jump\t// in\n    tag_57:\n      stop\n        /* \"contracts/Profile.sol\":2622:3010  function createSkill(string[] memory programmingLanguages, string[] memory framework, string[] memory databaseAndOther) public {\r... */\n    tag_19:\n        /* \"contracts/Profile.sol\":2767:2774  profile */\n      0x00\n        /* \"contracts/Profile.sol\":2767:2786  profile[msg.sender] */\n      dup1\n        /* \"contracts/Profile.sol\":2775:2785  msg.sender */\n      caller\n        /* \"contracts/Profile.sol\":2767:2786  profile[msg.sender] */\n      0xffffffffffffffffffffffffffffffffffffffff\n      and\n      0xffffffffffffffffffffffffffffffffffffffff\n      and\n      dup2\n      mstore\n      0x20\n      add\n      swap1\n      dup2\n      mstore\n      0x20\n      add\n      0x00\n      keccak256\n        /* \"contracts/Profile.sol\":2767:2792  profile[msg.sender].skill */\n      0x0e\n      add\n      0x00\n        /* \"contracts/Profile.sol\":2760:2792  delete profile[msg.sender].skill */\n      dup1\n      dup3\n      add\n      0x00\n      tag_60\n      swap2\n      swap1\n      tag_61\n      jump\t// in\n    tag_60:\n      0x01\n      dup3\n      add\n      0x00\n      tag_62\n      swap2\n      swap1\n      tag_61\n      jump\t// in\n    tag_62:\n      0x02\n      dup3\n      add\n      0x00\n      tag_63\n      swap2\n      swap1\n      tag_61\n      jump\t// in\n    tag_63:\n      pop\n      pop\n        /* \"contracts/Profile.sol\":2852:2872  programmingLanguages */\n      dup3\n        /* \"contracts/Profile.sol\":2803:2810  profile */\n      0x00\n        /* \"contracts/Profile.sol\":2803:2822  profile[msg.sender] */\n      dup1\n        /* \"contracts/Profile.sol\":2811:2821  msg.sender */\n      caller\n        /* \"contracts/Profile.sol\":2803:2822  profile[msg.sender] */\n      0xffffffffffffffffffffffffffffffffffffffff\n      and\n      0xffffffffffffffffffffffffffffffffffffffff\n      and\n      dup2\n      mstore\n      0x20\n      add\n      swap1\n      dup2\n      mstore\n      0x20\n      add\n      0x00\n      keccak256\n        /* \"contracts/Profile.sol\":2803:2828  profile[msg.sender].skill */\n      0x0e\n      add\n        /* \"contracts/Profile.sol\":2803:2849  profile[msg.sender].skill.programmingLanguages */\n      0x00\n      add\n        /* \"contracts/Profile.sol\":2803:2872  profile[msg.sender].skill.programmingLanguages = programmingLanguages */\n      swap1\n      dup1\n      mload\n      swap1\n      0x20\n      add\n      swap1\n      tag_64\n      swap3\n      swap2\n      swap1\n      tag_65\n      jump\t// in\n    tag_64:\n      pop\n        /* \"contracts/Profile.sol\":2921:2930  framework */\n      dup2\n        /* \"contracts/Profile.sol\":2883:2890  profile */\n      0x00\n        /* \"contracts/Profile.sol\":2883:2902  profile[msg.sender] */\n      dup1\n        /* \"contracts/Profile.sol\":2891:2901  msg.sender */\n      caller\n        /* \"contracts/Profile.sol\":2883:2902  profile[msg.sender] */\n      0xffffffffffffffffffffffffffffffffffffffff\n      and\n      0xffffffffffffffffffffffffffffffffffffffff\n      and\n      dup2\n      mstore\n      0x20\n      add\n      swap1\n      dup2\n      mstore\n      0x20\n      add\n      0x00\n      keccak256\n        /* \"contracts/Profile.sol\":2883:2908  profile[msg.sender].skill */\n      0x0e\n      add\n        /* \"contracts/Profile.sol\":2883:2918  profile[msg.sender].skill.framework */\n      0x01\n      add\n        /* \"contracts/Profile.sol\":2883:2930  profile[msg.sender].skill.framework = framework */\n      swap1\n      dup1\n      mload\n      swap1\n      0x20\n      add\n      swap1\n      tag_66\n      swap3\n      swap2\n      swap1\n      tag_65\n      jump\t// in\n    tag_66:\n      pop\n        /* \"contracts/Profile.sol\":2986:3002  databaseAndOther */\n      dup1\n        /* \"contracts/Profile.sol\":2941:2948  profile */\n      0x00\n        /* \"contracts/Profile.sol\":2941:2960  profile[msg.sender] */\n      dup1\n        /* \"contracts/Profile.sol\":2949:2959  msg.sender */\n      caller\n        /* \"contracts/Profile.sol\":2941:2960  profile[msg.sender] */\n      0xffffffffffffffffffffffffffffffffffffffff\n      and\n      0xffffffffffffffffffffffffffffffffffffffff\n      and\n      dup2\n      mstore\n      0x20\n      add\n      swap1\n      dup2\n      mstore\n      0x20\n      add\n      0x00\n      keccak256\n        /* \"contracts/Profile.sol\":2941:2966  profile[msg.sender].skill */\n      0x0e\n      add\n        /* \"contracts/Profile.sol\":2941:2983  profile[msg.sender].skill.databaseAndOther */\n      0x02\n      add\n        /* \"contracts/Profile.sol\":2941:3002  profile[msg.sender].skill.databaseAndOther = databaseAndOther */\n      swap1\n      dup1\n      mload\n      swap1\n      0x20\n      add\n      swap1\n      tag_67\n      swap3\n      swap2\n      swap1\n      tag_65\n      jump\t// in\n    tag_67:\n      pop\n        /* \"contracts/Profile.sol\":2622:3010  function createSkill(string[] memory programmingLanguages, string[] memory framework, string[] memory databaseAndOther) public {\r... */\n      pop\n      pop\n      pop\n      jump\t// out\n        /* \"contracts/Profile.sol\":4618:4726  function delCertificateAndAward() external {\r... */\n    tag_21:\n        /* \"contracts/Profile.sol\":4679:4686  profile */\n      0x00\n        /* \"contracts/Profile.sol\":4679:4698  profile[msg.sender] */\n      dup1\n        /* \"contracts/Profile.sol\":4687:4697  msg.sender */\n      caller\n        /* \"contracts/Profile.sol\":4679:4698  profile[msg.sender] */\n      0xffffffffffffffffffffffffffffffffffffffff\n      and\n      0xffffffffffffffffffffffffffffffffffffffff\n      and\n      dup2\n      mstore\n      0x20\n      add\n      swap1\n      dup2\n      mstore\n      0x20\n      add\n      0x00\n      keccak256\n        /* \"contracts/Profile.sol\":4679:4718  profile[msg.sender].certificateAndAward */\n      0x12\n      add\n      0x00\n        /* \"contracts/Profile.sol\":4672:4718  delete profile[msg.sender].certificateAndAward */\n      dup1\n      dup3\n      add\n      0x00\n      tag_69\n      swap2\n      swap1\n      tag_61\n      jump\t// in\n    tag_69:\n      0x01\n      dup3\n      add\n      0x00\n      tag_70\n      swap2\n      swap1\n      tag_61\n      jump\t// in\n    tag_70:\n      pop\n      pop\n        /* \"contracts/Profile.sol\":4618:4726  function delCertificateAndAward() external {\r... */\n      jump\t// out\n        /* \"contracts/Profile.sol\":3957:4075  function getEducationCount() public view returns (uint) {\r... */\n    tag_23:\n        /* \"contracts/Profile.sol\":4007:4011  uint */\n      0x00\n        /* \"contracts/Profile.sol\":4031:4038  profile */\n      dup1\n        /* \"contracts/Profile.sol\":4031:4050  profile[msg.sender] */\n      0x00\n        /* \"contracts/Profile.sol\":4039:4049  msg.sender */\n      caller\n        /* \"contracts/Profile.sol\":4031:4050  profile[msg.sender] */\n      0xffffffffffffffffffffffffffffffffffffffff\n      and\n      0xffffffffffffffffffffffffffffffffffffffff\n      and\n      dup2\n      mstore\n      0x20\n      add\n      swap1\n      dup2\n      mstore\n      0x20\n      add\n      0x00\n      keccak256\n        /* \"contracts/Profile.sol\":4031:4060  profile[msg.sender].education */\n      0x11\n      add\n        /* \"contracts/Profile.sol\":4031:4067  profile[msg.sender].education.length */\n      dup1\n      sload\n      swap1\n      pop\n        /* \"contracts/Profile.sol\":4024:4067  return profile[msg.sender].education.length */\n      swap1\n      pop\n        /* \"contracts/Profile.sol\":3957:4075  function getEducationCount() public view returns (uint) {\r... */\n      swap1\n      jump\t// out\n        /* \"contracts/Profile.sol\":3077:3547  function createUnivercity(string memory startDate, string memory endDate, string memory univercity, string memory major, string memory finalProject) public {\r... */\n    tag_29:\n        /* \"contracts/Profile.sol\":3244:3271  Education memory _education */\n      tag_73\n      tag_74\n      jump\t// in\n    tag_73:\n        /* \"contracts/Profile.sol\":3305:3314  startDate */\n      dup6\n        /* \"contracts/Profile.sol\":3282:3292  _education */\n      dup2\n        /* \"contracts/Profile.sol\":3282:3302  _education.startDate */\n      0x00\n      add\n        /* \"contracts/Profile.sol\":3282:3314  _education.startDate = startDate */\n      dup2\n      swap1\n      mstore\n      pop\n        /* \"contracts/Profile.sol\":3346:3353  endDate */\n      dup5\n        /* \"contracts/Profile.sol\":3325:3335  _education */\n      dup2\n        /* \"contracts/Profile.sol\":3325:3343  _education.endDate */\n      0x20\n      add\n        /* \"contracts/Profile.sol\":3325:3353  _education.endDate = endDate */\n      dup2\n      swap1\n      mstore\n      pop\n        /* \"contracts/Profile.sol\":3388:3398  univercity */\n      dup4\n        /* \"contracts/Profile.sol\":3364:3374  _education */\n      dup2\n        /* \"contracts/Profile.sol\":3364:3385  _education.univercity */\n      0x40\n      add\n        /* \"contracts/Profile.sol\":3364:3398  _education.univercity = univercity */\n      dup2\n      swap1\n      mstore\n      pop\n        /* \"contracts/Profile.sol\":3428:3433  major */\n      dup3\n        /* \"contracts/Profile.sol\":3409:3419  _education */\n      dup2\n        /* \"contracts/Profile.sol\":3409:3425  _education.major */\n      0x60\n      add\n        /* \"contracts/Profile.sol\":3409:3433  _education.major = major */\n      dup2\n      swap1\n      mstore\n      pop\n        /* \"contracts/Profile.sol\":3470:3482  finalProject */\n      dup2\n        /* \"contracts/Profile.sol\":3444:3454  _education */\n      dup2\n        /* \"contracts/Profile.sol\":3444:3467  _education.finalProject */\n      0x80\n      add\n        /* \"contracts/Profile.sol\":3444:3482  _education.finalProject = finalProject */\n      dup2\n      swap1\n      mstore\n      pop\n        /* \"contracts/Profile.sol\":3493:3500  profile */\n      0x00\n        /* \"contracts/Profile.sol\":3493:3512  profile[msg.sender] */\n      dup1\n        /* \"contracts/Profile.sol\":3501:3511  msg.sender */\n      caller\n        /* \"contracts/Profile.sol\":3493:3512  profile[msg.sender] */\n      0xffffffffffffffffffffffffffffffffffffffff\n      and\n      0xffffffffffffffffffffffffffffffffffffffff\n      and\n      dup2\n      mstore\n      0x20\n      add\n      swap1\n      dup2\n      mstore\n      0x20\n      add\n      0x00\n      keccak256\n        /* \"contracts/Profile.sol\":3493:3522  profile[msg.sender].education */\n      0x11\n      add\n        /* \"contracts/Profile.sol\":3528:3538  _education */\n      dup2\n        /* \"contracts/Profile.sol\":3493:3539  profile[msg.sender].education.push(_education) */\n      swap1\n      dup1\n      0x01\n      dup2\n      sload\n      add\n      dup1\n      dup3\n      sstore\n      dup1\n      swap2\n      pop\n      pop\n      0x01\n      swap1\n      sub\n      swap1\n      0x00\n      mstore\n      keccak256(0x00, 0x20)\n      swap1\n      0x05\n      mul\n      add\n      0x00\n      swap1\n      swap2\n      swap1\n      swap2\n      swap1\n      swap2\n      pop\n      0x00\n      dup3\n      add\n      mload\n      dup2\n      0x00\n      add\n      swap1\n      dup1\n      mload\n      swap1\n      0x20\n      add\n      swap1\n      tag_76\n      swap3\n      swap2\n      swap1\n      tag_77\n      jump\t// in\n    tag_76:\n      pop\n      0x20\n      dup3\n      add\n      mload\n      dup2\n      0x01\n      add\n      swap1\n      dup1\n      mload\n      swap1\n      0x20\n      add\n      swap1\n      tag_78\n      swap3\n      swap2\n      swap1\n      tag_77\n      jump\t// in\n    tag_78:\n      pop\n      0x40\n      dup3\n      add\n      mload\n      dup2\n      0x02\n      add\n      swap1\n      dup1\n      mload\n      swap1\n      0x20\n      add\n      swap1\n      tag_79\n      swap3\n      swap2\n      swap1\n      tag_77\n      jump\t// in\n    tag_79:\n      pop\n      0x60\n      dup3\n      add\n      mload\n      dup2\n      0x03\n      add\n      swap1\n      dup1\n      mload\n      swap1\n      0x20\n      add\n      swap1\n      tag_80\n      swap3\n      swap2\n      swap1\n      tag_77\n      jump\t// in\n    tag_80:\n      pop\n      0x80\n      dup3\n      add\n      mload\n      dup2\n      0x04\n      add\n      swap1\n      dup1\n      mload\n      swap1\n      0x20\n      add\n      swap1\n      tag_81\n      swap3\n      swap2\n      swap1\n      tag_77\n      jump\t// in\n    tag_81:\n      pop\n      pop\n      pop\n        /* \"contracts/Profile.sol\":3233:3547  {\r... */\n      pop\n        /* \"contracts/Profile.sol\":3077:3547  function createUnivercity(string memory startDate, string memory endDate, string memory univercity, string memory major, string memory finalProject) public {\r... */\n      pop\n      pop\n      pop\n      pop\n      pop\n      jump\t// out\n        /* \"contracts/Profile.sol\":4083:4311  function createAward(string[] memory award, string[] memory certificate) public {\r... */\n    tag_33:\n        /* \"contracts/Profile.sol\":4222:4227  award */\n      dup2\n        /* \"contracts/Profile.sol\":4174:4181  profile */\n      0x00\n        /* \"contracts/Profile.sol\":4174:4193  profile[msg.sender] */\n      dup1\n        /* \"contracts/Profile.sol\":4182:4192  msg.sender */\n      caller\n        /* \"contracts/Profile.sol\":4174:4193  profile[msg.sender] */\n      0xffffffffffffffffffffffffffffffffffffffff\n      and\n      0xffffffffffffffffffffffffffffffffffffffff\n      and\n      dup2\n      mstore\n      0x20\n      add\n      swap1\n      dup2\n      mstore\n      0x20\n      add\n      0x00\n      keccak256\n        /* \"contracts/Profile.sol\":4174:4213  profile[msg.sender].certificateAndAward */\n      0x12\n      add\n        /* \"contracts/Profile.sol\":4174:4219  profile[msg.sender].certificateAndAward.award */\n      0x01\n      add\n        /* \"contracts/Profile.sol\":4174:4227  profile[msg.sender].certificateAndAward.award = award */\n      swap1\n      dup1\n      mload\n      swap1\n      0x20\n      add\n      swap1\n      tag_83\n      swap3\n      swap2\n      swap1\n      tag_65\n      jump\t// in\n    tag_83:\n      pop\n        /* \"contracts/Profile.sol\":4292:4303  certificate */\n      dup1\n        /* \"contracts/Profile.sol\":4238:4245  profile */\n      0x00\n        /* \"contracts/Profile.sol\":4238:4257  profile[msg.sender] */\n      dup1\n        /* \"contracts/Profile.sol\":4246:4256  msg.sender */\n      caller\n        /* \"contracts/Profile.sol\":4238:4257  profile[msg.sender] */\n      0xffffffffffffffffffffffffffffffffffffffff\n      and\n      0xffffffffffffffffffffffffffffffffffffffff\n      and\n      dup2\n      mstore\n      0x20\n      add\n      swap1\n      dup2\n      mstore\n      0x20\n      add\n      0x00\n      keccak256\n        /* \"contracts/Profile.sol\":4238:4277  profile[msg.sender].certificateAndAward */\n      0x12\n      add\n        /* \"contracts/Profile.sol\":4238:4289  profile[msg.sender].certificateAndAward.certificate */\n      0x00\n      add\n        /* \"contracts/Profile.sol\":4238:4303  profile[msg.sender].certificateAndAward.certificate = certificate */\n      swap1\n      dup1\n      mload\n      swap1\n      0x20\n      add\n      swap1\n      tag_84\n      swap3\n      swap2\n      swap1\n      tag_65\n      jump\t// in\n    tag_84:\n      pop\n        /* \"contracts/Profile.sol\":4083:4311  function createAward(string[] memory award, string[] memory certificate) public {\r... */\n      pop\n      pop\n      jump\t// out\n        /* \"contracts/Profile.sol\":2031:2535  function createContract(string memory email, string memory phone, string memory github, string memory gitlab, string memory linkin) public {\r... */\n    tag_36:\n        /* \"contracts/Profile.sol\":2188:2195  profile */\n      0x00\n        /* \"contracts/Profile.sol\":2188:2207  profile[msg.sender] */\n      dup1\n        /* \"contracts/Profile.sol\":2196:2206  msg.sender */\n      caller\n        /* \"contracts/Profile.sol\":2188:2207  profile[msg.sender] */\n      0xffffffffffffffffffffffffffffffffffffffff\n      and\n      0xffffffffffffffffffffffffffffffffffffffff\n      and\n      dup2\n      mstore\n      0x20\n      add\n      swap1\n      dup2\n      mstore\n      0x20\n      add\n      0x00\n      keccak256\n        /* \"contracts/Profile.sol\":2188:2223  profile[msg.sender].privateContract */\n      0x08\n      add\n      0x00\n        /* \"contracts/Profile.sol\":2181:2223  delete profile[msg.sender].privateContract */\n      dup1\n      dup3\n      add\n      0x00\n      tag_86\n      swap2\n      swap1\n      tag_87\n      jump\t// in\n    tag_86:\n      0x01\n      dup3\n      add\n      0x00\n      tag_88\n      swap2\n      swap1\n      tag_87\n      jump\t// in\n    tag_88:\n      0x02\n      dup3\n      add\n      0x00\n      tag_89\n      swap2\n      swap1\n      tag_87\n      jump\t// in\n    tag_89:\n      0x03\n      dup3\n      add\n      0x00\n      tag_90\n      swap2\n      swap1\n      tag_87\n      jump\t// in\n    tag_90:\n      0x04\n      dup3\n      add\n      0x00\n      tag_91\n      swap2\n      swap1\n      tag_87\n      jump\t// in\n    tag_91:\n      0x05\n      dup3\n      add\n      0x00\n      tag_92\n      swap2\n      swap1\n      tag_87\n      jump\t// in\n    tag_92:\n      pop\n      pop\n        /* \"contracts/Profile.sol\":2278:2283  email */\n      dup5\n        /* \"contracts/Profile.sol\":2234:2241  profile */\n      0x00\n        /* \"contracts/Profile.sol\":2234:2253  profile[msg.sender] */\n      dup1\n        /* \"contracts/Profile.sol\":2242:2252  msg.sender */\n      caller\n        /* \"contracts/Profile.sol\":2234:2253  profile[msg.sender] */\n      0xffffffffffffffffffffffffffffffffffffffff\n      and\n      0xffffffffffffffffffffffffffffffffffffffff\n      and\n      dup2\n      mstore\n      0x20\n      add\n      swap1\n      dup2\n      mstore\n      0x20\n      add\n      0x00\n      keccak256\n        /* \"contracts/Profile.sol\":2234:2269  profile[msg.sender].privateContract */\n      0x08\n      add\n        /* \"contracts/Profile.sol\":2234:2275  profile[msg.sender].privateContract.email */\n      0x01\n      add\n        /* \"contracts/Profile.sol\":2234:2283  profile[msg.sender].privateContract.email = email */\n      swap1\n      dup1\n      mload\n      swap1\n      0x20\n      add\n      swap1\n      tag_93\n      swap3\n      swap2\n      swap1\n      tag_77\n      jump\t// in\n    tag_93:\n      pop\n        /* \"contracts/Profile.sol\":2338:2343  phone */\n      dup4\n        /* \"contracts/Profile.sol\":2294:2301  profile */\n      0x00\n        /* \"contracts/Profile.sol\":2294:2313  profile[msg.sender] */\n      dup1\n        /* \"contracts/Profile.sol\":2302:2312  msg.sender */\n      caller\n        /* \"contracts/Profile.sol\":2294:2313  profile[msg.sender] */\n      0xffffffffffffffffffffffffffffffffffffffff\n      and\n      0xffffffffffffffffffffffffffffffffffffffff\n      and\n      dup2\n      mstore\n      0x20\n      add\n      swap1\n      dup2\n      mstore\n      0x20\n      add\n      0x00\n      keccak256\n        /* \"contracts/Profile.sol\":2294:2329  profile[msg.sender].privateContract */\n      0x08\n      add\n        /* \"contracts/Profile.sol\":2294:2335  profile[msg.sender].privateContract.phone */\n      0x02\n      add\n        /* \"contracts/Profile.sol\":2294:2343  profile[msg.sender].privateContract.phone = phone */\n      swap1\n      dup1\n      mload\n      swap1\n      0x20\n      add\n      swap1\n      tag_94\n      swap3\n      swap2\n      swap1\n      tag_77\n      jump\t// in\n    tag_94:\n      pop\n        /* \"contracts/Profile.sol\":2399:2405  github */\n      dup3\n        /* \"contracts/Profile.sol\":2354:2361  profile */\n      0x00\n        /* \"contracts/Profile.sol\":2354:2373  profile[msg.sender] */\n      dup1\n        /* \"contracts/Profile.sol\":2362:2372  msg.sender */\n      caller\n        /* \"contracts/Profile.sol\":2354:2373  profile[msg.sender] */\n      0xffffffffffffffffffffffffffffffffffffffff\n      and\n      0xffffffffffffffffffffffffffffffffffffffff\n      and\n      dup2\n      mstore\n      0x20\n      add\n      swap1\n      dup2\n      mstore\n      0x20\n      add\n      0x00\n      keccak256\n        /* \"contracts/Profile.sol\":2354:2389  profile[msg.sender].privateContract */\n      0x08\n      add\n        /* \"contracts/Profile.sol\":2354:2396  profile[msg.sender].privateContract.github */\n      0x03\n      add\n        /* \"contracts/Profile.sol\":2354:2405  profile[msg.sender].privateContract.github = github */\n      swap1\n      dup1\n      mload\n      swap1\n      0x20\n      add\n      swap1\n      tag_95\n      swap3\n      swap2\n      swap1\n      tag_77\n      jump\t// in\n    tag_95:\n      pop\n        /* \"contracts/Profile.sol\":2460:2466  gitlab */\n      dup2\n        /* \"contracts/Profile.sol\":2416:2423  profile */\n      0x00\n        /* \"contracts/Profile.sol\":2416:2435  profile[msg.sender] */\n      dup1\n        /* \"contracts/Profile.sol\":2424:2434  msg.sender */\n      caller\n        /* \"contracts/Profile.sol\":2416:2435  profile[msg.sender] */\n      0xffffffffffffffffffffffffffffffffffffffff\n      and\n      0xffffffffffffffffffffffffffffffffffffffff\n      and\n      dup2\n      mstore\n      0x20\n      add\n      swap1\n      dup2\n      mstore\n      0x20\n      add\n      0x00\n      keccak256\n        /* \"contracts/Profile.sol\":2416:2451  profile[msg.sender].privateContract */\n      0x08\n      add\n        /* \"contracts/Profile.sol\":2416:2457  profile[msg.sender].privateContract.phone */\n      0x02\n      add\n        /* \"contracts/Profile.sol\":2416:2466  profile[msg.sender].privateContract.phone = gitlab */\n      swap1\n      dup1\n      mload\n      swap1\n      0x20\n      add\n      swap1\n      tag_96\n      swap3\n      swap2\n      swap1\n      tag_77\n      jump\t// in\n    tag_96:\n      pop\n        /* \"contracts/Profile.sol\":2521:2527  linkin */\n      dup1\n        /* \"contracts/Profile.sol\":2477:2484  profile */\n      0x00\n        /* \"contracts/Profile.sol\":2477:2496  profile[msg.sender] */\n      dup1\n        /* \"contracts/Profile.sol\":2485:2495  msg.sender */\n      caller\n        /* \"contracts/Profile.sol\":2477:2496  profile[msg.sender] */\n      0xffffffffffffffffffffffffffffffffffffffff\n      and\n      0xffffffffffffffffffffffffffffffffffffffff\n      and\n      dup2\n      mstore\n      0x20\n      add\n      swap1\n      dup2\n      mstore\n      0x20\n      add\n      0x00\n      keccak256\n        /* \"contracts/Profile.sol\":2477:2512  profile[msg.sender].privateContract */\n      0x08\n      add\n        /* \"contracts/Profile.sol\":2477:2518  profile[msg.sender].privateContract.email */\n      0x01\n      add\n        /* \"contracts/Profile.sol\":2477:2527  profile[msg.sender].privateContract.email = linkin */\n      swap1\n      dup1\n      mload\n      swap1\n      0x20\n      add\n      swap1\n      tag_97\n      swap3\n      swap2\n      swap1\n      tag_77\n      jump\t// in\n    tag_97:\n      pop\n        /* \"contracts/Profile.sol\":2031:2535  function createContract(string memory email, string memory phone, string memory github, string memory gitlab, string memory linkin) public {\r... */\n      pop\n      pop\n      pop\n      pop\n      pop\n      jump\t// out\n        /* \"contracts/Profile.sol\":1260:1976  function createInformation(string memory firstName, string memory middleName, string memory lastName,  string memory profileImage, string memory aboutMe, string memory position) public {\r... */\n    tag_40:\n        /* \"contracts/Profile.sol\":1500:1509  firstName */\n      dup6\n        /* \"contracts/Profile.sol\":1456:1463  profile */\n      0x00\n        /* \"contracts/Profile.sol\":1456:1475  profile[msg.sender] */\n      dup1\n        /* \"contracts/Profile.sol\":1464:1474  msg.sender */\n      caller\n        /* \"contracts/Profile.sol\":1456:1475  profile[msg.sender] */\n      0xffffffffffffffffffffffffffffffffffffffff\n      and\n      0xffffffffffffffffffffffffffffffffffffffff\n      and\n      dup2\n      mstore\n      0x20\n      add\n      swap1\n      dup2\n      mstore\n      0x20\n      add\n      0x00\n      keccak256\n        /* \"contracts/Profile.sol\":1456:1487  profile[msg.sender].information */\n      0x00\n      add\n        /* \"contracts/Profile.sol\":1456:1497  profile[msg.sender].information.firstName */\n      0x03\n      add\n        /* \"contracts/Profile.sol\":1456:1509  profile[msg.sender].information.firstName = firstName */\n      swap1\n      dup1\n      mload\n      swap1\n      0x20\n      add\n      swap1\n      tag_99\n      swap3\n      swap2\n      swap1\n      tag_77\n      jump\t// in\n    tag_99:\n      pop\n        /* \"contracts/Profile.sol\":1565:1575  middleName */\n      dup5\n        /* \"contracts/Profile.sol\":1520:1527  profile */\n      0x00\n        /* \"contracts/Profile.sol\":1520:1539  profile[msg.sender] */\n      dup1\n        /* \"contracts/Profile.sol\":1528:1538  msg.sender */\n      caller\n        /* \"contracts/Profile.sol\":1520:1539  profile[msg.sender] */\n      0xffffffffffffffffffffffffffffffffffffffff\n      and\n      0xffffffffffffffffffffffffffffffffffffffff\n      and\n      dup2\n      mstore\n      0x20\n      add\n      swap1\n      dup2\n      mstore\n      0x20\n      add\n      0x00\n      keccak256\n        /* \"contracts/Profile.sol\":1520:1551  profile[msg.sender].information */\n      0x00\n      add\n        /* \"contracts/Profile.sol\":1520:1562  profile[msg.sender].information.middleName */\n      0x04\n      add\n        /* \"contracts/Profile.sol\":1520:1575  profile[msg.sender].information.middleName = middleName */\n      swap1\n      dup1\n      mload\n      swap1\n      0x20\n      add\n      swap1\n      tag_100\n      swap3\n      swap2\n      swap1\n      tag_77\n      jump\t// in\n    tag_100:\n      pop\n        /* \"contracts/Profile.sol\":1629:1637  lastName */\n      dup4\n        /* \"contracts/Profile.sol\":1586:1593  profile */\n      0x00\n        /* \"contracts/Profile.sol\":1586:1605  profile[msg.sender] */\n      dup1\n        /* \"contracts/Profile.sol\":1594:1604  msg.sender */\n      caller\n        /* \"contracts/Profile.sol\":1586:1605  profile[msg.sender] */\n      0xffffffffffffffffffffffffffffffffffffffff\n      and\n      0xffffffffffffffffffffffffffffffffffffffff\n      and\n      dup2\n      mstore\n      0x20\n      add\n      swap1\n      dup2\n      mstore\n      0x20\n      add\n      0x00\n      keccak256\n        /* \"contracts/Profile.sol\":1586:1617  profile[msg.sender].information */\n      0x00\n      add\n        /* \"contracts/Profile.sol\":1586:1626  profile[msg.sender].information.lastName */\n      0x05\n      add\n        /* \"contracts/Profile.sol\":1586:1637  profile[msg.sender].information.lastName = lastName */\n      swap1\n      dup1\n      mload\n      swap1\n      0x20\n      add\n      swap1\n      tag_101\n      swap3\n      swap2\n      swap1\n      tag_77\n      jump\t// in\n    tag_101:\n      pop\n        /* \"contracts/Profile.sol\":1695:1707  profileImage */\n      dup3\n        /* \"contracts/Profile.sol\":1648:1655  profile */\n      0x00\n        /* \"contracts/Profile.sol\":1648:1667  profile[msg.sender] */\n      dup1\n        /* \"contracts/Profile.sol\":1656:1666  msg.sender */\n      caller\n        /* \"contracts/Profile.sol\":1648:1667  profile[msg.sender] */\n      0xffffffffffffffffffffffffffffffffffffffff\n      and\n      0xffffffffffffffffffffffffffffffffffffffff\n      and\n      dup2\n      mstore\n      0x20\n      add\n      swap1\n      dup2\n      mstore\n      0x20\n      add\n      0x00\n      keccak256\n        /* \"contracts/Profile.sol\":1648:1679  profile[msg.sender].information */\n      0x00\n      add\n        /* \"contracts/Profile.sol\":1648:1692  profile[msg.sender].information.profileImage */\n      0x06\n      add\n        /* \"contracts/Profile.sol\":1648:1707  profile[msg.sender].information.profileImage = profileImage */\n      swap1\n      dup1\n      mload\n      swap1\n      0x20\n      add\n      swap1\n      tag_102\n      swap3\n      swap2\n      swap1\n      tag_77\n      jump\t// in\n    tag_102:\n      pop\n        /* \"contracts/Profile.sol\":1760:1767  aboutMe */\n      dup2\n        /* \"contracts/Profile.sol\":1718:1725  profile */\n      0x00\n        /* \"contracts/Profile.sol\":1718:1737  profile[msg.sender] */\n      dup1\n        /* \"contracts/Profile.sol\":1726:1736  msg.sender */\n      caller\n        /* \"contracts/Profile.sol\":1718:1737  profile[msg.sender] */\n      0xffffffffffffffffffffffffffffffffffffffff\n      and\n      0xffffffffffffffffffffffffffffffffffffffff\n      and\n      dup2\n      mstore\n      0x20\n      add\n      swap1\n      dup2\n      mstore\n      0x20\n      add\n      0x00\n      keccak256\n        /* \"contracts/Profile.sol\":1718:1749  profile[msg.sender].information */\n      0x00\n      add\n        /* \"contracts/Profile.sol\":1718:1757  profile[msg.sender].information.aboutMe */\n      0x00\n      add\n        /* \"contracts/Profile.sol\":1718:1767  profile[msg.sender].information.aboutMe = aboutMe */\n      swap1\n      dup1\n      mload\n      swap1\n      0x20\n      add\n      swap1\n      tag_103\n      swap3\n      swap2\n      swap1\n      tag_77\n      jump\t// in\n    tag_103:\n      pop\n        /* \"contracts/Profile.sol\":1821:1829  position */\n      dup1\n        /* \"contracts/Profile.sol\":1778:1785  profile */\n      0x00\n        /* \"contracts/Profile.sol\":1778:1797  profile[msg.sender] */\n      dup1\n        /* \"contracts/Profile.sol\":1786:1796  msg.sender */\n      caller\n        /* \"contracts/Profile.sol\":1778:1797  profile[msg.sender] */\n      0xffffffffffffffffffffffffffffffffffffffff\n      and\n      0xffffffffffffffffffffffffffffffffffffffff\n      and\n      dup2\n      mstore\n      0x20\n      add\n      swap1\n      dup2\n      mstore\n      0x20\n      add\n      0x00\n      keccak256\n        /* \"contracts/Profile.sol\":1778:1809  profile[msg.sender].information */\n      0x00\n      add\n        /* \"contracts/Profile.sol\":1778:1818  profile[msg.sender].information.position */\n      0x01\n      add\n        /* \"contracts/Profile.sol\":1778:1829  profile[msg.sender].information.position = position */\n      swap1\n      dup1\n      mload\n      swap1\n      0x20\n      add\n      swap1\n      tag_104\n      swap3\n      swap2\n      swap1\n      tag_77\n      jump\t// in\n    tag_104:\n      pop\n        /* \"contracts/Profile.sol\":1886:1896  msg.sender */\n      caller\n        /* \"contracts/Profile.sol\":1840:1847  profile */\n      0x00\n        /* \"contracts/Profile.sol\":1840:1859  profile[msg.sender] */\n      dup1\n        /* \"contracts/Profile.sol\":1848:1858  msg.sender */\n      caller\n        /* \"contracts/Profile.sol\":1840:1859  profile[msg.sender] */\n      0xffffffffffffffffffffffffffffffffffffffff\n      and\n      0xffffffffffffffffffffffffffffffffffffffff\n      and\n      dup2\n      mstore\n      0x20\n      add\n      swap1\n      dup2\n      mstore\n      0x20\n      add\n      0x00\n      keccak256\n        /* \"contracts/Profile.sol\":1840:1871  profile[msg.sender].information */\n      0x00\n      add\n        /* \"contracts/Profile.sol\":1840:1883  profile[msg.sender].information.userAddress */\n      0x02\n      add\n      0x00\n        /* \"contracts/Profile.sol\":1840:1896  profile[msg.sender].information.userAddress = msg.sender */\n      0x0100\n      exp\n      dup2\n      sload\n      dup2\n      0xffffffffffffffffffffffffffffffffffffffff\n      mul\n      not\n      and\n      swap1\n      dup4\n      0xffffffffffffffffffffffffffffffffffffffff\n      and\n      mul\n      or\n      swap1\n      sstore\n      pop\n        /* \"contracts/Profile.sol\":1953:1968  block.timestamp */\n      timestamp\n        /* \"contracts/Profile.sol\":1908:1915  profile */\n      0x00\n        /* \"contracts/Profile.sol\":1908:1927  profile[msg.sender] */\n      dup1\n        /* \"contracts/Profile.sol\":1916:1926  msg.sender */\n      caller\n        /* \"contracts/Profile.sol\":1908:1927  profile[msg.sender] */\n      0xffffffffffffffffffffffffffffffffffffffff\n      and\n      0xffffffffffffffffffffffffffffffffffffffff\n      and\n      dup2\n      mstore\n      0x20\n      add\n      swap1\n      dup2\n      mstore\n      0x20\n      add\n      0x00\n      keccak256\n        /* \"contracts/Profile.sol\":1908:1939  profile[msg.sender].information */\n      0x00\n      add\n        /* \"contracts/Profile.sol\":1908:1950  profile[msg.sender].information.createDate */\n      0x07\n      add\n        /* \"contracts/Profile.sol\":1908:1968  profile[msg.sender].information.createDate = block.timestamp */\n      dup2\n      swap1\n      sstore\n      pop\n        /* \"contracts/Profile.sol\":1260:1976  function createInformation(string memory firstName, string memory middleName, string memory lastName,  string memory profileImage, string memory aboutMe, string memory position) public {\r... */\n      pop\n      pop\n      pop\n      pop\n      pop\n      pop\n      jump\t// out\n        /* \"contracts/Profile.sol\":4434:4526  function delInformaion() external  {\r... */\n    tag_42:\n        /* \"contracts/Profile.sol\":4487:4494  profile */\n      0x00\n        /* \"contracts/Profile.sol\":4487:4506  profile[msg.sender] */\n      dup1\n        /* \"contracts/Profile.sol\":4495:4505  msg.sender */\n      caller\n        /* \"contracts/Profile.sol\":4487:4506  profile[msg.sender] */\n      0xffffffffffffffffffffffffffffffffffffffff\n      and\n      0xffffffffffffffffffffffffffffffffffffffff\n      and\n      dup2\n      mstore\n      0x20\n      add\n      swap1\n      dup2\n      mstore\n      0x20\n      add\n      0x00\n      keccak256\n        /* \"contracts/Profile.sol\":4487:4518  profile[msg.sender].information */\n      0x00\n      add\n      0x00\n        /* \"contracts/Profile.sol\":4480:4518  delete profile[msg.sender].information */\n      dup1\n      dup3\n      add\n      0x00\n      tag_106\n      swap2\n      swap1\n      tag_87\n      jump\t// in\n    tag_106:\n      0x01\n      dup3\n      add\n      0x00\n      tag_107\n      swap2\n      swap1\n      tag_87\n      jump\t// in\n    tag_107:\n      0x02\n      dup3\n      add\n      exp(0x0100, 0x00)\n      dup2\n      sload\n      swap1\n      0xffffffffffffffffffffffffffffffffffffffff\n      mul\n      not\n      and\n      swap1\n      sstore\n      0x03\n      dup3\n      add\n      0x00\n      tag_108\n      swap2\n      swap1\n      tag_87\n      jump\t// in\n    tag_108:\n      0x04\n      dup3\n      add\n      0x00\n      tag_109\n      swap2\n      swap1\n      tag_87\n      jump\t// in\n    tag_109:\n      0x05\n      dup3\n      add\n      0x00\n      tag_110\n      swap2\n      swap1\n      tag_87\n      jump\t// in\n    tag_110:\n      0x06\n      dup3\n      add\n      0x00\n      tag_111\n      swap2\n      swap1\n      tag_87\n      jump\t// in\n    tag_111:\n      0x07\n      dup3\n      add\n      0x00\n      swap1\n      sstore\n      pop\n      pop\n        /* \"contracts/Profile.sol\":4434:4526  function delInformaion() external  {\r... */\n      jump\t// out\n        /* \"contracts/Profile.sol\":322:362  mapping (address => Bio) public  profile */\n    tag_46:\n      mstore(0x20, 0x00)\n      dup1\n      0x00\n      mstore\n      keccak256(0x00, 0x40)\n      0x00\n      swap2\n      pop\n      swap1\n      pop\n      dup1\n      0x00\n      add\n      mload(0x40)\n      dup1\n      0x0100\n      add\n      0x40\n      mstore\n      swap1\n      dup2\n      0x00\n      dup3\n      add\n      dup1\n      sload\n      tag_112\n      swap1\n      tag_113\n      jump\t// in\n    tag_112:\n      dup1\n      0x1f\n      add\n      0x20\n      dup1\n      swap2\n      div\n      mul\n      0x20\n      add\n      mload(0x40)\n      swap1\n      dup2\n      add\n      0x40\n      mstore\n      dup1\n      swap3\n      swap2\n      swap1\n      dup2\n      dup2\n      mstore\n      0x20\n      add\n      dup3\n      dup1\n      sload\n      tag_114\n      swap1\n      tag_113\n      jump\t// in\n    tag_114:\n      dup1\n      iszero\n      tag_115\n      jumpi\n      dup1\n      0x1f\n      lt\n      tag_116\n      jumpi\n      0x0100\n      dup1\n      dup4\n      sload\n      div\n      mul\n      dup4\n      mstore\n      swap2\n      0x20\n      add\n      swap2\n      jump(tag_115)\n    tag_116:\n      dup3\n      add\n      swap2\n      swap1\n      0x00\n      mstore\n      keccak256(0x00, 0x20)\n      swap1\n    tag_117:\n      dup2\n      sload\n      dup2\n      mstore\n      swap1\n      0x01\n      add\n      swap1\n      0x20\n      add\n      dup1\n      dup4\n      gt\n      tag_117\n      jumpi\n      dup3\n      swap1\n      sub\n      0x1f\n      and\n      dup3\n      add\n      swap2\n    tag_115:\n      pop\n      pop\n      pop\n      pop\n      pop\n      dup2\n      mstore\n      0x20\n      add\n      0x01\n      dup3\n      add\n      dup1\n      sload\n      tag_118\n      swap1\n      tag_113\n      jump\t// in\n    tag_118:\n      dup1\n      0x1f\n      add\n      0x20\n      dup1\n      swap2\n      div\n      mul\n      0x20\n      add\n      mload(0x40)\n      swap1\n      dup2\n      add\n      0x40\n      mstore\n      dup1\n      swap3\n      swap2\n      swap1\n      dup2\n      dup2\n      mstore\n      0x20\n      add\n      dup3\n      dup1\n      sload\n      tag_119\n      swap1\n      tag_113\n      jump\t// in\n    tag_119:\n      dup1\n      iszero\n      tag_120\n      jumpi\n      dup1\n      0x1f\n      lt\n      tag_121\n      jumpi\n      0x0100\n      dup1\n      dup4\n      sload\n      div\n      mul\n      dup4\n      mstore\n      swap2\n      0x20\n      add\n      swap2\n      jump(tag_120)\n    tag_121:\n      dup3\n      add\n      swap2\n      swap1\n      0x00\n      mstore\n      keccak256(0x00, 0x20)\n      swap1\n    tag_122:\n      dup2\n      sload\n      dup2\n      mstore\n      swap1\n      0x01\n      add\n      swap1\n      0x20\n      add\n      dup1\n      dup4\n      gt\n      tag_122\n      jumpi\n      dup3\n      swap1\n      sub\n      0x1f\n      and\n      dup3\n      add\n      swap2\n    tag_120:\n      pop\n      pop\n      pop\n      pop\n      pop\n      dup2\n      mstore\n      0x20\n      add\n      0x02\n      dup3\n      add\n      0x00\n      swap1\n      sload\n      swap1\n      0x0100\n      exp\n      swap1\n      div\n      0xffffffffffffffffffffffffffffffffffffffff\n      and\n      0xffffffffffffffffffffffffffffffffffffffff\n      and\n      0xffffffffffffffffffffffffffffffffffffffff\n      and\n      dup2\n      mstore\n      0x20\n      add\n      0x03\n      dup3\n      add\n      dup1\n      sload\n      tag_123\n      swap1\n      tag_113\n      jump\t// in\n    tag_123:\n      dup1\n      0x1f\n      add\n      0x20\n      dup1\n      swap2\n      div\n      mul\n      0x20\n      add\n      mload(0x40)\n      swap1\n      dup2\n      add\n      0x40\n      mstore\n      dup1\n      swap3\n      swap2\n      swap1\n      dup2\n      dup2\n      mstore\n      0x20\n      add\n      dup3\n      dup1\n      sload\n      tag_124\n      swap1\n      tag_113\n      jump\t// in\n    tag_124:\n      dup1\n      iszero\n      tag_125\n      jumpi\n      dup1\n      0x1f\n      lt\n      tag_126\n      jumpi\n      0x0100\n      dup1\n      dup4\n      sload\n      div\n      mul\n      dup4\n      mstore\n      swap2\n      0x20\n      add\n      swap2\n      jump(tag_125)\n    tag_126:\n      dup3\n      add\n      swap2\n      swap1\n      0x00\n      mstore\n      keccak256(0x00, 0x20)\n      swap1\n    tag_127:\n      dup2\n      sload\n      dup2\n      mstore\n      swap1\n      0x01\n      add\n      swap1\n      0x20\n      add\n      dup1\n      dup4\n      gt\n      tag_127\n      jumpi\n      dup3\n      swap1\n      sub\n      0x1f\n      and\n      dup3\n      add\n      swap2\n    tag_125:\n      pop\n      pop\n      pop\n      pop\n      pop\n      dup2\n      mstore\n      0x20\n      add\n      0x04\n      dup3\n      add\n      dup1\n      sload\n      tag_128\n      swap1\n      tag_113\n      jump\t// in\n    tag_128:\n      dup1\n      0x1f\n      add\n      0x20\n      dup1\n      swap2\n      div\n      mul\n      0x20\n      add\n      mload(0x40)\n      swap1\n      dup2\n      add\n      0x40\n      mstore\n      dup1\n      swap3\n      swap2\n      swap1\n      dup2\n      dup2\n      mstore\n      0x20\n      add\n      dup3\n      dup1\n      sload\n      tag_129\n      swap1\n      tag_113\n      jump\t// in\n    tag_129:\n      dup1\n      iszero\n      tag_130\n      jumpi\n      dup1\n      0x1f\n      lt\n      tag_131\n      jumpi\n      0x0100\n      dup1\n      dup4\n      sload\n      div\n      mul\n      dup4\n      mstore\n      swap2\n      0x20\n      add\n      swap2\n      jump(tag_130)\n    tag_131:\n      dup3\n      add\n      swap2\n      swap1\n      0x00\n      mstore\n      keccak256(0x00, 0x20)\n      swap1\n    tag_132:\n      dup2\n      sload\n      dup2\n      mstore\n      swap1\n      0x01\n      add\n      swap1\n      0x20\n      add\n      dup1\n      dup4\n      gt\n      tag_132\n      jumpi\n      dup3\n      swap1\n      sub\n      0x1f\n      and\n      dup3\n      add\n      swap2\n    tag_130:\n      pop\n      pop\n      pop\n      pop\n      pop\n      dup2\n      mstore\n      0x20\n      add\n      0x05\n      dup3\n      add\n      dup1\n      sload\n      tag_133\n      swap1\n      tag_113\n      jump\t// in\n    tag_133:\n      dup1\n      0x1f\n      add\n      0x20\n      dup1\n      swap2\n      div\n      mul\n      0x20\n      add\n      mload(0x40)\n      swap1\n      dup2\n      add\n      0x40\n      mstore\n      dup1\n      swap3\n      swap2\n      swap1\n      dup2\n      dup2\n      mstore\n      0x20\n      add\n      dup3\n      dup1\n      sload\n      tag_134\n      swap1\n      tag_113\n      jump\t// in\n    tag_134:\n      dup1\n      iszero\n      tag_135\n      jumpi\n      dup1\n      0x1f\n      lt\n      tag_136\n      jumpi\n      0x0100\n      dup1\n      dup4\n      sload\n      div\n      mul\n      dup4\n      mstore\n      swap2\n      0x20\n      add\n      swap2\n      jump(tag_135)\n    tag_136:\n      dup3\n      add\n      swap2\n      swap1\n      0x00\n      mstore\n      keccak256(0x00, 0x20)\n      swap1\n    tag_137:\n      dup2\n      sload\n      dup2\n      mstore\n      swap1\n      0x01\n      add\n      swap1\n      0x20\n      add\n      dup1\n      dup4\n      gt\n      tag_137\n      jumpi\n      dup3\n      swap1\n      sub\n      0x1f\n      and\n      dup3\n      add\n      swap2\n    tag_135:\n      pop\n      pop\n      pop\n      pop\n      pop\n      dup2\n      mstore\n      0x20\n      add\n      0x06\n      dup3\n      add\n      dup1\n      sload\n      tag_138\n      swap1\n      tag_113\n      jump\t// in\n    tag_138:\n      dup1\n      0x1f\n      add\n      0x20\n      dup1\n      swap2\n      div\n      mul\n      0x20\n      add\n      mload(0x40)\n      swap1\n      dup2\n      add\n      0x40\n      mstore\n      dup1\n      swap3\n      swap2\n      swap1\n      dup2\n      dup2\n      mstore\n      0x20\n      add\n      dup3\n      dup1\n      sload\n      tag_139\n      swap1\n      tag_113\n      jump\t// in\n    tag_139:\n      dup1\n      iszero\n      tag_140\n      jumpi\n      dup1\n      0x1f\n      lt\n      tag_141\n      jumpi\n      0x0100\n      dup1\n      dup4\n      sload\n      div\n      mul\n      dup4\n      mstore\n      swap2\n      0x20\n      add\n      swap2\n      jump(tag_140)\n    tag_141:\n      dup3\n      add\n      swap2\n      swap1\n      0x00\n      mstore\n      keccak256(0x00, 0x20)\n      swap1\n    tag_142:\n      dup2\n      sload\n      dup2\n      mstore\n      swap1\n      0x01\n      add\n      swap1\n      0x20\n      add\n      dup1\n      dup4\n      gt\n      tag_142\n      jumpi\n      dup3\n      swap1\n      sub\n      0x1f\n      and\n      dup3\n      add\n      swap2\n    tag_140:\n      pop\n      pop\n      pop\n      pop\n      pop\n      dup2\n      mstore\n      0x20\n      add\n      0x07\n      dup3\n      add\n      sload\n      dup2\n      mstore\n      pop\n      pop\n      swap1\n      dup1\n      0x08\n      add\n      mload(0x40)\n      dup1\n      0xc0\n      add\n      0x40\n      mstore\n      swap1\n      dup2\n      0x00\n      dup3\n      add\n      dup1\n      sload\n      tag_143\n      swap1\n      tag_113\n      jump\t// in\n    tag_143:\n      dup1\n      0x1f\n      add\n      0x20\n      dup1\n      swap2\n      div\n      mul\n      0x20\n      add\n      mload(0x40)\n      swap1\n      dup2\n      add\n      0x40\n      mstore\n      dup1\n      swap3\n      swap2\n      swap1\n      dup2\n      dup2\n      mstore\n      0x20\n      add\n      dup3\n      dup1\n      sload\n      tag_144\n      swap1\n      tag_113\n      jump\t// in\n    tag_144:\n      dup1\n      iszero\n      tag_145\n      jumpi\n      dup1\n      0x1f\n      lt\n      tag_146\n      jumpi\n      0x0100\n      dup1\n      dup4\n      sload\n      div\n      mul\n      dup4\n      mstore\n      swap2\n      0x20\n      add\n      swap2\n      jump(tag_145)\n    tag_146:\n      dup3\n      add\n      swap2\n      swap1\n      0x00\n      mstore\n      keccak256(0x00, 0x20)\n      swap1\n    tag_147:\n      dup2\n      sload\n      dup2\n      mstore\n      swap1\n      0x01\n      add\n      swap1\n      0x20\n      add\n      dup1\n      dup4\n      gt\n      tag_147\n      jumpi\n      dup3\n      swap1\n      sub\n      0x1f\n      and\n      dup3\n      add\n      swap2\n    tag_145:\n      pop\n      pop\n      pop\n      pop\n      pop\n      dup2\n      mstore\n      0x20\n      add\n      0x01\n      dup3\n      add\n      dup1\n      sload\n      tag_148\n      swap1\n      tag_113\n      jump\t// in\n    tag_148:\n      dup1\n      0x1f\n      add\n      0x20\n      dup1\n      swap2\n      div\n      mul\n      0x20\n      add\n      mload(0x40)\n      swap1\n      dup2\n      add\n      0x40\n      mstore\n      dup1\n      swap3\n      swap2\n      swap1\n      dup2\n      dup2\n      mstore\n      0x20\n      add\n      dup3\n      dup1\n      sload\n      tag_149\n      swap1\n      tag_113\n      jump\t// in\n    tag_149:\n      dup1\n      iszero\n      tag_150\n      jumpi\n      dup1\n      0x1f\n      lt\n      tag_151\n      jumpi\n      0x0100\n      dup1\n      dup4\n      sload\n      div\n      mul\n      dup4\n      mstore\n      swap2\n      0x20\n      add\n      swap2\n      jump(tag_150)\n    tag_151:\n      dup3\n      add\n      swap2\n      swap1\n      0x00\n      mstore\n      keccak256(0x00, 0x20)\n      swap1\n    tag_152:\n      dup2\n      sload\n      dup2\n      mstore\n      swap1\n      0x01\n      add\n      swap1\n      0x20\n      add\n      dup1\n      dup4\n      gt\n      tag_152\n      jumpi\n      dup3\n      swap1\n      sub\n      0x1f\n      and\n      dup3\n      add\n      swap2\n    tag_150:\n      pop\n      pop\n      pop\n      pop\n      pop\n      dup2\n      mstore\n      0x20\n      add\n      0x02\n      dup3\n      add\n      dup1\n      sload\n      tag_153\n      swap1\n      tag_113\n      jump\t// in\n    tag_153:\n      dup1\n      0x1f\n      add\n      0x20\n      dup1\n      swap2\n      div\n      mul\n      0x20\n      add\n      mload(0x40)\n      swap1\n      dup2\n      add\n      0x40\n      mstore\n      dup1\n      swap3\n      swap2\n      swap1\n      dup2\n      dup2\n      mstore\n      0x20\n      add\n      dup3\n      dup1\n      sload\n      tag_154\n      swap1\n      tag_113\n      jump\t// in\n    tag_154:\n      dup1\n      iszero\n      tag_155\n      jumpi\n      dup1\n      0x1f\n      lt\n      tag_156\n      jumpi\n      0x0100\n      dup1\n      dup4\n      sload\n      div\n      mul\n      dup4\n      mstore\n      swap2\n      0x20\n      add\n      swap2\n      jump(tag_155)\n    tag_156:\n      dup3\n      add\n      swap2\n      swap1\n      0x00\n      mstore\n      keccak256(0x00, 0x20)\n      swap1\n    tag_157:\n      dup2\n      sload\n      dup2\n      mstore\n      swap1\n      0x01\n      add\n      swap1\n      0x20\n      add\n      dup1\n      dup4\n      gt\n      tag_157\n      jumpi\n      dup3\n      swap1\n      sub\n      0x1f\n      and\n      dup3\n      add\n      swap2\n    tag_155:\n      pop\n      pop\n      pop\n      pop\n      pop\n      dup2\n      mstore\n      0x20\n      add\n      0x03\n      dup3\n      add\n      dup1\n      sload\n      tag_158\n      swap1\n      tag_113\n      jump\t// in\n    tag_158:\n      dup1\n      0x1f\n      add\n      0x20\n      dup1\n      swap2\n      div\n      mul\n      0x20\n      add\n      mload(0x40)\n      swap1\n      dup2\n      add\n      0x40\n      mstore\n      dup1\n      swap3\n      swap2\n      swap1\n      dup2\n      dup2\n      mstore\n      0x20\n      add\n      dup3\n      dup1\n      sload\n      tag_159\n      swap1\n      tag_113\n      jump\t// in\n    tag_159:\n      dup1\n      iszero\n      tag_160\n      jumpi\n      dup1\n      0x1f\n      lt\n      tag_161\n      jumpi\n      0x0100\n      dup1\n      dup4\n      sload\n      div\n      mul\n      dup4\n      mstore\n      swap2\n      0x20\n      add\n      swap2\n      jump(tag_160)\n    tag_161:\n      dup3\n      add\n      swap2\n      swap1\n      0x00\n      mstore\n      keccak256(0x00, 0x20)\n      swap1\n    tag_162:\n      dup2\n      sload\n      dup2\n      mstore\n      swap1\n      0x01\n      add\n      swap1\n      0x20\n      add\n      dup1\n      dup4\n      gt\n      tag_162\n      jumpi\n      dup3\n      swap1\n      sub\n      0x1f\n      and\n      dup3\n      add\n      swap2\n    tag_160:\n      pop\n      pop\n      pop\n      pop\n      pop\n      dup2\n      mstore\n      0x20\n      add\n      0x04\n      dup3\n      add\n      dup1\n      sload\n      tag_163\n      swap1\n      tag_113\n      jump\t// in\n    tag_163:\n      dup1\n      0x1f\n      add\n      0x20\n      dup1\n      swap2\n      div\n      mul\n      0x20\n      add\n      mload(0x40)\n      swap1\n      dup2\n      add\n      0x40\n      mstore\n      dup1\n      swap3\n      swap2\n      swap1\n      dup2\n      dup2\n      mstore\n      0x20\n      add\n      dup3\n      dup1\n      sload\n      tag_164\n      swap1\n      tag_113\n      jump\t// in\n    tag_164:\n      dup1\n      iszero\n      tag_165\n      jumpi\n      dup1\n      0x1f\n      lt\n      tag_166\n      jumpi\n      0x0100\n      dup1\n      dup4\n      sload\n      div\n      mul\n      dup4\n      mstore\n      swap2\n      0x20\n      add\n      swap2\n      jump(tag_165)\n    tag_166:\n      dup3\n      add\n      swap2\n      swap1\n      0x00\n      mstore\n      keccak256(0x00, 0x20)\n      swap1\n    tag_167:\n      dup2\n      sload\n      dup2\n      mstore\n      swap1\n      0x01\n      add\n      swap1\n      0x20\n      add\n      dup1\n      dup4\n      gt\n      tag_167\n      jumpi\n      dup3\n      swap1\n      sub\n      0x1f\n      and\n      dup3\n      add\n      swap2\n    tag_165:\n      pop\n      pop\n      pop\n      pop\n      pop\n      dup2\n      mstore\n      0x20\n      add\n      0x05\n      dup3\n      add\n      dup1\n      sload\n      tag_168\n      swap1\n      tag_113\n      jump\t// in\n    tag_168:\n      dup1\n      0x1f\n      add\n      0x20\n      dup1\n      swap2\n      div\n      mul\n      0x20\n      add\n      mload(0x40)\n      swap1\n      dup2\n      add\n      0x40\n      mstore\n      dup1\n      swap3\n      swap2\n      swap1\n      dup2\n      dup2\n      mstore\n      0x20\n      add\n      dup3\n      dup1\n      sload\n      tag_169\n      swap1\n      tag_113\n      jump\t// in\n    tag_169:\n      dup1\n      iszero\n      tag_170\n      jumpi\n      dup1\n      0x1f\n      lt\n      tag_171\n      jumpi\n      0x0100\n      dup1\n      dup4\n      sload\n      div\n      mul\n      dup4\n      mstore\n      swap2\n      0x20\n      add\n      swap2\n      jump(tag_170)\n    tag_171:\n      dup3\n      add\n      swap2\n      swap1\n      0x00\n      mstore\n      keccak256(0x00, 0x20)\n      swap1\n    tag_172:\n      dup2\n      sload\n      dup2\n      mstore\n      swap1\n      0x01\n      add\n      swap1\n      0x20\n      add\n      dup1\n      dup4\n      gt\n      tag_172\n      jumpi\n      dup3\n      swap1\n      sub\n      0x1f\n      and\n      dup3\n      add\n      swap2\n    tag_170:\n      pop\n      pop\n      pop\n      pop\n      pop\n      dup2\n      mstore\n      pop\n      pop\n      swap1\n      dup1\n      0x0e\n      add\n      mload(0x40)\n      dup1\n      0x60\n      add\n      0x40\n      mstore\n      swap1\n      dup2\n      0x00\n      dup3\n      add\n      dup1\n      sload\n      dup1\n      0x20\n      mul\n      0x20\n      add\n      mload(0x40)\n      swap1\n      dup2\n      add\n      0x40\n      mstore\n      dup1\n      swap3\n      swap2\n      swap1\n      dup2\n      dup2\n      mstore\n      0x20\n      add\n      0x00\n      swap1\n    tag_173:\n      dup3\n      dup3\n      lt\n      iszero\n      tag_174\n      jumpi\n      dup4\n      dup3\n      swap1\n      0x00\n      mstore\n      keccak256(0x00, 0x20)\n      add\n      dup1\n      sload\n      tag_176\n      swap1\n      tag_113\n      jump\t// in\n    tag_176:\n      dup1\n      0x1f\n      add\n      0x20\n      dup1\n      swap2\n      div\n      mul\n      0x20\n      add\n      mload(0x40)\n      swap1\n      dup2\n      add\n      0x40\n      mstore\n      dup1\n      swap3\n      swap2\n      swap1\n      dup2\n      dup2\n      mstore\n      0x20\n      add\n      dup3\n      dup1\n      sload\n      tag_177\n      swap1\n      tag_113\n      jump\t// in\n    tag_177:\n      dup1\n      iszero\n      tag_178\n      jumpi\n      dup1\n      0x1f\n      lt\n      tag_179\n      jumpi\n      0x0100\n      dup1\n      dup4\n      sload\n      div\n      mul\n      dup4\n      mstore\n      swap2\n      0x20\n      add\n      swap2\n      jump(tag_178)\n    tag_179:\n      dup3\n      add\n      swap2\n      swap1\n      0x00\n      mstore\n      keccak256(0x00, 0x20)\n      swap1\n    tag_180:\n      dup2\n      sload\n      dup2\n      mstore\n      swap1\n      0x01\n      add\n      swap1\n      0x20\n      add\n      dup1\n      dup4\n      gt\n      tag_180\n      jumpi\n      dup3\n      swap1\n      sub\n      0x1f\n      and\n      dup3\n      add\n      swap2\n    tag_178:\n      pop\n      pop\n      pop\n      pop\n      pop\n      dup2\n      mstore\n      0x20\n      add\n      swap1\n      0x01\n      add\n      swap1\n      jump(tag_173)\n    tag_174:\n      pop\n      pop\n      pop\n      pop\n      dup2\n      mstore\n      0x20\n      add\n      0x01\n      dup3\n      add\n      dup1\n      sload\n      dup1\n      0x20\n      mul\n      0x20\n      add\n      mload(0x40)\n      swap1\n      dup2\n      add\n      0x40\n      mstore\n      dup1\n      swap3\n      swap2\n      swap1\n      dup2\n      dup2\n      mstore\n      0x20\n      add\n      0x00\n      swap1\n    tag_181:\n      dup3\n      dup3\n      lt\n      iszero\n      tag_182\n      jumpi\n      dup4\n      dup3\n      swap1\n      0x00\n      mstore\n      keccak256(0x00, 0x20)\n      add\n      dup1\n      sload\n      tag_184\n      swap1\n      tag_113\n      jump\t// in\n    tag_184:\n      dup1\n      0x1f\n      add\n      0x20\n      dup1\n      swap2\n      div\n      mul\n      0x20\n      add\n      mload(0x40)\n      swap1\n      dup2\n      add\n      0x40\n      mstore\n      dup1\n      swap3\n      swap2\n      swap1\n      dup2\n      dup2\n      mstore\n      0x20\n      add\n      dup3\n      dup1\n      sload\n      tag_185\n      swap1\n      tag_113\n      jump\t// in\n    tag_185:\n      dup1\n      iszero\n      tag_186\n      jumpi\n      dup1\n      0x1f\n      lt\n      tag_187\n      jumpi\n      0x0100\n      dup1\n      dup4\n      sload\n      div\n      mul\n      dup4\n      mstore\n      swap2\n      0x20\n      add\n      swap2\n      jump(tag_186)\n    tag_187:\n      dup3\n      add\n      swap2\n      swap1\n      0x00\n      mstore\n      keccak256(0x00, 0x20)\n      swap1\n    tag_188:\n      dup2\n      sload\n      dup2\n      mstore\n      swap1\n      0x01\n      add\n      swap1\n      0x20\n      add\n      dup1\n      dup4\n      gt\n      tag_188\n      jumpi\n      dup3\n      swap1\n      sub\n      0x1f\n      and\n      dup3\n      add\n      swap2\n    tag_186:\n      pop\n      pop\n      pop\n      pop\n      pop\n      dup2\n      mstore\n      0x20\n      add\n      swap1\n      0x01\n      add\n      swap1\n      jump(tag_181)\n    tag_182:\n      pop\n      pop\n      pop\n      pop\n      dup2\n      mstore\n      0x20\n      add\n      0x02\n      dup3\n      add\n      dup1\n      sload\n      dup1\n      0x20\n      mul\n      0x20\n      add\n      mload(0x40)\n      swap1\n      dup2\n      add\n      0x40\n      mstore\n      dup1\n      swap3\n      swap2\n      swap1\n      dup2\n      dup2\n      mstore\n      0x20\n      add\n      0x00\n      swap1\n    tag_189:\n      dup3\n      dup3\n      lt\n      iszero\n      tag_190\n      jumpi\n      dup4\n      dup3\n      swap1\n      0x00\n      mstore\n      keccak256(0x00, 0x20)\n      add\n      dup1\n      sload\n      tag_192\n      swap1\n      tag_113\n      jump\t// in\n    tag_192:\n      dup1\n      0x1f\n      add\n      0x20\n      dup1\n      swap2\n      div\n      mul\n      0x20\n      add\n      mload(0x40)\n      swap1\n      dup2\n      add\n      0x40\n      mstore\n      dup1\n      swap3\n      swap2\n      swap1\n      dup2\n      dup2\n      mstore\n      0x20\n      add\n      dup3\n      dup1\n      sload\n      tag_193\n      swap1\n      tag_113\n      jump\t// in\n    tag_193:\n      dup1\n      iszero\n      tag_194\n      jumpi\n      dup1\n      0x1f\n      lt\n      tag_195\n      jumpi\n      0x0100\n      dup1\n      dup4\n      sload\n      div\n      mul\n      dup4\n      mstore\n      swap2\n      0x20\n      add\n      swap2\n      jump(tag_194)\n    tag_195:\n      dup3\n      add\n      swap2\n      swap1\n      0x00\n      mstore\n      keccak256(0x00, 0x20)\n      swap1\n    tag_196:\n      dup2\n      sload\n      dup2\n      mstore\n      swap1\n      0x01\n      add\n      swap1\n      0x20\n      add\n      dup1\n      dup4\n      gt\n      tag_196\n      jumpi\n      dup3\n      swap1\n      sub\n      0x1f\n      and\n      dup3\n      add\n      swap2\n    tag_194:\n      pop\n      pop\n      pop\n      pop\n      pop\n      dup2\n      mstore\n      0x20\n      add\n      swap1\n      0x01\n      add\n      swap1\n      jump(tag_189)\n    tag_190:\n      pop\n      pop\n      pop\n      pop\n      dup2\n      mstore\n      pop\n      pop\n      swap1\n      dup1\n      0x12\n      add\n      mload(0x40)\n      dup1\n      0x40\n      add\n      0x40\n      mstore\n      swap1\n      dup2\n      0x00\n      dup3\n      add\n      dup1\n      sload\n      dup1\n      0x20\n      mul\n      0x20\n      add\n      mload(0x40)\n      swap1\n      dup2\n      add\n      0x40\n      mstore\n      dup1\n      swap3\n      swap2\n      swap1\n      dup2\n      dup2\n      mstore\n      0x20\n      add\n      0x00\n      swap1\n    tag_197:\n      dup3\n      dup3\n      lt\n      iszero\n      tag_198\n      jumpi\n      dup4\n      dup3\n      swap1\n      0x00\n      mstore\n      keccak256(0x00, 0x20)\n      add\n      dup1\n      sload\n      tag_200\n      swap1\n      tag_113\n      jump\t// in\n    tag_200:\n      dup1\n      0x1f\n      add\n      0x20\n      dup1\n      swap2\n      div\n      mul\n      0x20\n      add\n      mload(0x40)\n      swap1\n      dup2\n      add\n      0x40\n      mstore\n      dup1\n      swap3\n      swap2\n      swap1\n      dup2\n      dup2\n      mstore\n      0x20\n      add\n      dup3\n      dup1\n      sload\n      tag_201\n      swap1\n      tag_113\n      jump\t// in\n    tag_201:\n      dup1\n      iszero\n      tag_202\n      jumpi\n      dup1\n      0x1f\n      lt\n      tag_203\n      jumpi\n      0x0100\n      dup1\n      dup4\n      sload\n      div\n      mul\n      dup4\n      mstore\n      swap2\n      0x20\n      add\n      swap2\n      jump(tag_202)\n    tag_203:\n      dup3\n      add\n      swap2\n      swap1\n      0x00\n      mstore\n      keccak256(0x00, 0x20)\n      swap1\n    tag_204:\n      dup2\n      sload\n      dup2\n      mstore\n      swap1\n      0x01\n      add\n      swap1\n      0x20\n      add\n      dup1\n      dup4\n      gt\n      tag_204\n      jumpi\n      dup3\n      swap1\n      sub\n      0x1f\n      and\n      dup3\n      add\n      swap2\n    tag_202:\n      pop\n      pop\n      pop\n      pop\n      pop\n      dup2\n      mstore\n      0x20\n      add\n      swap1\n      0x01\n      add\n      swap1\n      jump(tag_197)\n    tag_198:\n      pop\n      pop\n      pop\n      pop\n      dup2\n      mstore\n      0x20\n      add\n      0x01\n      dup3\n      add\n      dup1\n      sload\n      dup1\n      0x20\n      mul\n      0x20\n      add\n      mload(0x40)\n      swap1\n      dup2\n      add\n      0x40\n      mstore\n      dup1\n      swap3\n      swap2\n      swap1\n      dup2\n      dup2\n      mstore\n      0x20\n      add\n      0x00\n      swap1\n    tag_205:\n      dup3\n      dup3\n      lt\n      iszero\n      tag_206\n      jumpi\n      dup4\n      dup3\n      swap1\n      0x00\n      mstore\n      keccak256(0x00, 0x20)\n      add\n      dup1\n      sload\n      tag_208\n      swap1\n      tag_113\n      jump\t// in\n    tag_208:\n      dup1\n      0x1f\n      add\n      0x20\n      dup1\n      swap2\n      div\n      mul\n      0x20\n      add\n      mload(0x40)\n      swap1\n      dup2\n      add\n      0x40\n      mstore\n      dup1\n      swap3\n      swap2\n      swap1\n      dup2\n      dup2\n      mstore\n      0x20\n      add\n      dup3\n      dup1\n      sload\n      tag_209\n      swap1\n      tag_113\n      jump\t// in\n    tag_209:\n      dup1\n      iszero\n      tag_210\n      jumpi\n      dup1\n      0x1f\n      lt\n      tag_211\n      jumpi\n      0x0100\n      dup1\n      dup4\n      sload\n      div\n      mul\n      dup4\n      mstore\n      swap2\n      0x20\n      add\n      swap2\n      jump(tag_210)\n    tag_211:\n      dup3\n      add\n      swap2\n      swap1\n      0x00\n      mstore\n      keccak256(0x00, 0x20)\n      swap1\n    tag_212:\n      dup2\n      sload\n      dup2\n      mstore\n      swap1\n      0x01\n      add\n      swap1\n      0x20\n      add\n      dup1\n      dup4\n      gt\n      tag_212\n      jumpi\n      dup3\n      swap1\n      sub\n      0x1f\n      and\n      dup3\n      add\n      swap2\n    tag_210:\n      pop\n      pop\n      pop\n      pop\n      pop\n      dup2\n      mstore\n      0x20\n      add\n      swap1\n      0x01\n      add\n      swap1\n      jump(tag_205)\n    tag_206:\n      pop\n      pop\n      pop\n      pop\n      dup2\n      mstore\n      pop\n      pop\n      swap1\n      pop\n      dup5\n      jump\t// out\n        /* \"contracts/Profile.sol\":4334:4426  function delAllEducation() external  {\r... */\n    tag_50:\n        /* \"contracts/Profile.sol\":4389:4396  profile */\n      0x00\n        /* \"contracts/Profile.sol\":4389:4408  profile[msg.sender] */\n      dup1\n        /* \"contracts/Profile.sol\":4397:4407  msg.sender */\n      caller\n        /* \"contracts/Profile.sol\":4389:4408  profile[msg.sender] */\n      0xffffffffffffffffffffffffffffffffffffffff\n      and\n      0xffffffffffffffffffffffffffffffffffffffff\n      and\n      dup2\n      mstore\n      0x20\n      add\n      swap1\n      dup2\n      mstore\n      0x20\n      add\n      0x00\n      keccak256\n        /* \"contracts/Profile.sol\":4389:4418  profile[msg.sender].education */\n      0x11\n      add\n      0x00\n        /* \"contracts/Profile.sol\":4382:4418  delete profile[msg.sender].education */\n      tag_214\n      swap2\n      swap1\n      tag_215\n      jump\t// in\n    tag_214:\n        /* \"contracts/Profile.sol\":4334:4426  function delAllEducation() external  {\r... */\n      jump\t// out\n        /* \"contracts/Profile.sol\":3556:3949  function getEducation(uint index) public view returns(string memory, string memory, string memory, string memory, string memory) {\r... */\n    tag_54:\n        /* \"contracts/Profile.sol\":3610:3623  string memory */\n      0x60\n        /* \"contracts/Profile.sol\":3625:3638  string memory */\n      dup1\n        /* \"contracts/Profile.sol\":3640:3653  string memory */\n      0x60\n        /* \"contracts/Profile.sol\":3655:3668  string memory */\n      dup1\n        /* \"contracts/Profile.sol\":3670:3683  string memory */\n      0x60\n        /* \"contracts/Profile.sol\":3704:3711  profile */\n      0x00\n        /* \"contracts/Profile.sol\":3704:3723  profile[msg.sender] */\n      dup1\n        /* \"contracts/Profile.sol\":3712:3722  msg.sender */\n      caller\n        /* \"contracts/Profile.sol\":3704:3723  profile[msg.sender] */\n      0xffffffffffffffffffffffffffffffffffffffff\n      and\n      0xffffffffffffffffffffffffffffffffffffffff\n      and\n      dup2\n      mstore\n      0x20\n      add\n      swap1\n      dup2\n      mstore\n      0x20\n      add\n      0x00\n      keccak256\n        /* \"contracts/Profile.sol\":3704:3733  profile[msg.sender].education */\n      0x11\n      add\n        /* \"contracts/Profile.sol\":3734:3739  index */\n      dup7\n        /* \"contracts/Profile.sol\":3704:3740  profile[msg.sender].education[index] */\n      dup2\n      sload\n      dup2\n      lt\n      tag_217\n      jumpi\n      tag_218\n      tag_219\n      jump\t// in\n    tag_218:\n    tag_217:\n      swap1\n      0x00\n      mstore\n      keccak256(0x00, 0x20)\n      swap1\n      0x05\n      mul\n      add\n        /* \"contracts/Profile.sol\":3704:3750  profile[msg.sender].education[index].startDate */\n      0x00\n      add\n        /* \"contracts/Profile.sol\":3752:3759  profile */\n      0x00\n        /* \"contracts/Profile.sol\":3752:3771  profile[msg.sender] */\n      dup1\n        /* \"contracts/Profile.sol\":3760:3770  msg.sender */\n      caller\n        /* \"contracts/Profile.sol\":3752:3771  profile[msg.sender] */\n      0xffffffffffffffffffffffffffffffffffffffff\n      and\n      0xffffffffffffffffffffffffffffffffffffffff\n      and\n      dup2\n      mstore\n      0x20\n      add\n      swap1\n      dup2\n      mstore\n      0x20\n      add\n      0x00\n      keccak256\n        /* \"contracts/Profile.sol\":3752:3781  profile[msg.sender].education */\n      0x11\n      add\n        /* \"contracts/Profile.sol\":3782:3787  index */\n      dup8\n        /* \"contracts/Profile.sol\":3752:3788  profile[msg.sender].education[index] */\n      dup2\n      sload\n      dup2\n      lt\n      tag_221\n      jumpi\n      tag_222\n      tag_219\n      jump\t// in\n    tag_222:\n    tag_221:\n      swap1\n      0x00\n      mstore\n      keccak256(0x00, 0x20)\n      swap1\n      0x05\n      mul\n      add\n        /* \"contracts/Profile.sol\":3752:3796  profile[msg.sender].education[index].endDate */\n      0x01\n      add\n        /* \"contracts/Profile.sol\":3798:3805  profile */\n      0x00\n        /* \"contracts/Profile.sol\":3798:3817  profile[msg.sender] */\n      dup1\n        /* \"contracts/Profile.sol\":3806:3816  msg.sender */\n      caller\n        /* \"contracts/Profile.sol\":3798:3817  profile[msg.sender] */\n      0xffffffffffffffffffffffffffffffffffffffff\n      and\n      0xffffffffffffffffffffffffffffffffffffffff\n      and\n      dup2\n      mstore\n      0x20\n      add\n      swap1\n      dup2\n      mstore\n      0x20\n      add\n      0x00\n      keccak256\n        /* \"contracts/Profile.sol\":3798:3827  profile[msg.sender].education */\n      0x11\n      add\n        /* \"contracts/Profile.sol\":3828:3833  index */\n      dup9\n        /* \"contracts/Profile.sol\":3798:3834  profile[msg.sender].education[index] */\n      dup2\n      sload\n      dup2\n      lt\n      tag_224\n      jumpi\n      tag_225\n      tag_219\n      jump\t// in\n    tag_225:\n    tag_224:\n      swap1\n      0x00\n      mstore\n      keccak256(0x00, 0x20)\n      swap1\n      0x05\n      mul\n      add\n        /* \"contracts/Profile.sol\":3798:3845  profile[msg.sender].education[index].univercity */\n      0x02\n      add\n        /* \"contracts/Profile.sol\":3847:3854  profile */\n      0x00\n        /* \"contracts/Profile.sol\":3847:3866  profile[msg.sender] */\n      dup1\n        /* \"contracts/Profile.sol\":3855:3865  msg.sender */\n      caller\n        /* \"contracts/Profile.sol\":3847:3866  profile[msg.sender] */\n      0xffffffffffffffffffffffffffffffffffffffff\n      and\n      0xffffffffffffffffffffffffffffffffffffffff\n      and\n      dup2\n      mstore\n      0x20\n      add\n      swap1\n      dup2\n      mstore\n      0x20\n      add\n      0x00\n      keccak256\n        /* \"contracts/Profile.sol\":3847:3876  profile[msg.sender].education */\n      0x11\n      add\n        /* \"contracts/Profile.sol\":3877:3882  index */\n      dup10\n        /* \"contracts/Profile.sol\":3847:3883  profile[msg.sender].education[index] */\n      dup2\n      sload\n      dup2\n      lt\n      tag_227\n      jumpi\n      tag_228\n      tag_219\n      jump\t// in\n    tag_228:\n    tag_227:\n      swap1\n      0x00\n      mstore\n      keccak256(0x00, 0x20)\n      swap1\n      0x05\n      mul\n      add\n        /* \"contracts/Profile.sol\":3847:3889  profile[msg.sender].education[index].major */\n      0x03\n      add\n        /* \"contracts/Profile.sol\":3891:3898  profile */\n      0x00\n        /* \"contracts/Profile.sol\":3891:3910  profile[msg.sender] */\n      dup1\n        /* \"contracts/Profile.sol\":3899:3909  msg.sender */\n      caller\n        /* \"contracts/Profile.sol\":3891:3910  profile[msg.sender] */\n      0xffffffffffffffffffffffffffffffffffffffff\n      and\n      0xffffffffffffffffffffffffffffffffffffffff\n      and\n      dup2\n      mstore\n      0x20\n      add\n      swap1\n      dup2\n      mstore\n      0x20\n      add\n      0x00\n      keccak256\n        /* \"contracts/Profile.sol\":3891:3920  profile[msg.sender].education */\n      0x11\n      add\n        /* \"contracts/Profile.sol\":3921:3926  index */\n      dup11\n        /* \"contracts/Profile.sol\":3891:3927  profile[msg.sender].education[index] */\n      dup2\n      sload\n      dup2\n      lt\n      tag_230\n      jumpi\n      tag_231\n      tag_219\n      jump\t// in\n    tag_231:\n    tag_230:\n      swap1\n      0x00\n      mstore\n      keccak256(0x00, 0x20)\n      swap1\n      0x05\n      mul\n      add\n        /* \"contracts/Profile.sol\":3891:3940  profile[msg.sender].education[index].finalProject */\n      0x04\n      add\n        /* \"contracts/Profile.sol\":3696:3941  return (profile[msg.sender].education[index].startDate, profile[msg.sender].education[index].endDate, profile[msg.sender].education[index].univercity, profile[msg.sender].education[index].major, profile[msg.sender].education[index].finalProject) */\n      dup5\n      dup1\n      sload\n      tag_233\n      swap1\n      tag_113\n      jump\t// in\n    tag_233:\n      dup1\n      0x1f\n      add\n      0x20\n      dup1\n      swap2\n      div\n      mul\n      0x20\n      add\n      mload(0x40)\n      swap1\n      dup2\n      add\n      0x40\n      mstore\n      dup1\n      swap3\n      swap2\n      swap1\n      dup2\n      dup2\n      mstore\n      0x20\n      add\n      dup3\n      dup1\n      sload\n      tag_234\n      swap1\n      tag_113\n      jump\t// in\n    tag_234:\n      dup1\n      iszero\n      tag_235\n      jumpi\n      dup1\n      0x1f\n      lt\n      tag_236\n      jumpi\n      0x0100\n      dup1\n      dup4\n      sload\n      div\n      mul\n      dup4\n      mstore\n      swap2\n      0x20\n      add\n      swap2\n      jump(tag_235)\n    tag_236:\n      dup3\n      add\n      swap2\n      swap1\n      0x00\n      mstore\n      keccak256(0x00, 0x20)\n      swap1\n    tag_237:\n      dup2\n      sload\n      dup2\n      mstore\n      swap1\n      0x01\n      add\n      swap1\n      0x20\n      add\n      dup1\n      dup4\n      gt\n      tag_237\n      jumpi\n      dup3\n      swap1\n      sub\n      0x1f\n      and\n      dup3\n      add\n      swap2\n    tag_235:\n      pop\n      pop\n      pop\n      pop\n      pop\n      swap5\n      pop\n      dup4\n      dup1\n      sload\n      tag_238\n      swap1\n      tag_113\n      jump\t// in\n    tag_238:\n      dup1\n      0x1f\n      add\n      0x20\n      dup1\n      swap2\n      div\n      mul\n      0x20\n      add\n      mload(0x40)\n      swap1\n      dup2\n      add\n      0x40\n      mstore\n      dup1\n      swap3\n      swap2\n      swap1\n      dup2\n      dup2\n      mstore\n      0x20\n      add\n      dup3\n      dup1\n      sload\n      tag_239\n      swap1\n      tag_113\n      jump\t// in\n    tag_239:\n      dup1\n      iszero\n      tag_240\n      jumpi\n      dup1\n      0x1f\n      lt\n      tag_241\n      jumpi\n      0x0100\n      dup1\n      dup4\n      sload\n      div\n      mul\n      dup4\n      mstore\n      swap2\n      0x20\n      add\n      swap2\n      jump(tag_240)\n    tag_241:\n      dup3\n      add\n      swap2\n      swap1\n      0x00\n      mstore\n      keccak256(0x00, 0x20)\n      swap1\n    tag_242:\n      dup2\n      sload\n      dup2\n      mstore\n      swap1\n      0x01\n      add\n      swap1\n      0x20\n      add\n      dup1\n      dup4\n      gt\n      tag_242\n      jumpi\n      dup3\n      swap1\n      sub\n      0x1f\n      and\n      dup3\n      add\n      swap2\n    tag_240:\n      pop\n      pop\n      pop\n      pop\n      pop\n      swap4\n      pop\n      dup3\n      dup1\n      sload\n      tag_243\n      swap1\n      tag_113\n      jump\t// in\n    tag_243:\n      dup1\n      0x1f\n      add\n      0x20\n      dup1\n      swap2\n      div\n      mul\n      0x20\n      add\n      mload(0x40)\n      swap1\n      dup2\n      add\n      0x40\n      mstore\n      dup1\n      swap3\n      swap2\n      swap1\n      dup2\n      dup2\n      mstore\n      0x20\n      add\n      dup3\n      dup1\n      sload\n      tag_244\n      swap1\n      tag_113\n      jump\t// in\n    tag_244:\n      dup1\n      iszero\n      tag_245\n      jumpi\n      dup1\n      0x1f\n      lt\n      tag_246\n      jumpi\n      0x0100\n      dup1\n      dup4\n      sload\n      div\n      mul\n      dup4\n      mstore\n      swap2\n      0x20\n      add\n      swap2\n      jump(tag_245)\n    tag_246:\n      dup3\n      add\n      swap2\n      swap1\n      0x00\n      mstore\n      keccak256(0x00, 0x20)\n      swap1\n    tag_247:\n      dup2\n      sload\n      dup2\n      mstore\n      swap1\n      0x01\n      add\n      swap1\n      0x20\n      add\n      dup1\n      dup4\n      gt\n      tag_247\n      jumpi\n      dup3\n      swap1\n      sub\n      0x1f\n      and\n      dup3\n      add\n      swap2\n    tag_245:\n      pop\n      pop\n      pop\n      pop\n      pop\n      swap3\n      pop\n      dup2\n      dup1\n      sload\n      tag_248\n      swap1\n      tag_113\n      jump\t// in\n    tag_248:\n      dup1\n      0x1f\n      add\n      0x20\n      dup1\n      swap2\n      div\n      mul\n      0x20\n      add\n      mload(0x40)\n      swap1\n      dup2\n      add\n      0x40\n      mstore\n      dup1\n      swap3\n      swap2\n      swap1\n      dup2\n      dup2\n      mstore\n      0x20\n      add\n      dup3\n      dup1\n      sload\n      tag_249\n      swap1\n      tag_113\n      jump\t// in\n    tag_249:\n      dup1\n      iszero\n      tag_250\n      jumpi\n      dup1\n      0x1f\n      lt\n      tag_251\n      jumpi\n      0x0100\n      dup1\n      dup4\n      sload\n      div\n      mul\n      dup4\n      mstore\n      swap2\n      0x20\n      add\n      swap2\n      jump(tag_250)\n    tag_251:\n      dup3\n      add\n      swap2\n      swap1\n      0x00\n      mstore\n      keccak256(0x00, 0x20)\n      swap1\n    tag_252:\n      dup2\n      sload\n      dup2\n      mstore\n      swap1\n      0x01\n      add\n      swap1\n      0x20\n      add\n      dup1\n      dup4\n      gt\n      tag_252\n      jumpi\n      dup3\n      swap1\n      sub\n      0x1f\n      and\n      dup3\n      add\n      swap2\n    tag_250:\n      pop\n      pop\n      pop\n      pop\n      pop\n      swap2\n      pop\n      dup1\n      dup1\n      sload\n      tag_253\n      swap1\n      tag_113\n      jump\t// in\n    tag_253:\n      dup1\n      0x1f\n      add\n      0x20\n      dup1\n      swap2\n      div\n      mul\n      0x20\n      add\n      mload(0x40)\n      swap1\n      dup2\n      add\n      0x40\n      mstore\n      dup1\n      swap3\n      swap2\n      swap1\n      dup2\n      dup2\n      mstore\n      0x20\n      add\n      dup3\n      dup1\n      sload\n      tag_254\n      swap1\n      tag_113\n      jump\t// in\n    tag_254:\n      dup1\n      iszero\n      tag_255\n      jumpi\n      dup1\n      0x1f\n      lt\n      tag_256\n      jumpi\n      0x0100\n      dup1\n      dup4\n      sload\n      div\n      mul\n      dup4\n      mstore\n      swap2\n      0x20\n      add\n      swap2\n      jump(tag_255)\n    tag_256:\n      dup3\n      add\n      swap2\n      swap1\n      0x00\n      mstore\n      keccak256(0x00, 0x20)\n      swap1\n    tag_257:\n      dup2\n      sload\n      dup2\n      mstore\n      swap1\n      0x01\n      add\n      swap1\n      0x20\n      add\n      dup1\n      dup4\n      gt\n      tag_257\n      jumpi\n      dup3\n      swap1\n      sub\n      0x1f\n      and\n      dup3\n      add\n      swap2\n    tag_255:\n      pop\n      pop\n      pop\n      pop\n      pop\n      swap1\n      pop\n      swap5\n      pop\n      swap5\n      pop\n      swap5\n      pop\n      swap5\n      pop\n      swap5\n      pop\n        /* \"contracts/Profile.sol\":3556:3949  function getEducation(uint index) public view returns(string memory, string memory, string memory, string memory, string memory) {\r... */\n      swap2\n      swap4\n      swap6\n      swap1\n      swap3\n      swap5\n      pop\n      jump\t// out\n        /* \"contracts/Profile.sol\":4534:4610  function delProfile() external {\r... */\n    tag_58:\n        /* \"contracts/Profile.sol\":4583:4590  profile */\n      0x00\n        /* \"contracts/Profile.sol\":4583:4602  profile[msg.sender] */\n      dup1\n        /* \"contracts/Profile.sol\":4591:4601  msg.sender */\n      caller\n        /* \"contracts/Profile.sol\":4583:4602  profile[msg.sender] */\n      0xffffffffffffffffffffffffffffffffffffffff\n      and\n      0xffffffffffffffffffffffffffffffffffffffff\n      and\n      dup2\n      mstore\n      0x20\n      add\n      swap1\n      dup2\n      mstore\n      0x20\n      add\n      0x00\n      keccak256\n      0x00\n        /* \"contracts/Profile.sol\":4576:4602  delete profile[msg.sender] */\n      dup1\n      dup3\n      add\n      0x00\n      dup1\n      dup3\n      add\n      0x00\n      tag_259\n      swap2\n      swap1\n      tag_87\n      jump\t// in\n    tag_259:\n      0x01\n      dup3\n      add\n      0x00\n      tag_260\n      swap2\n      swap1\n      tag_87\n      jump\t// in\n    tag_260:\n      0x02\n      dup3\n      add\n      exp(0x0100, 0x00)\n      dup2\n      sload\n      swap1\n      0xffffffffffffffffffffffffffffffffffffffff\n      mul\n      not\n      and\n      swap1\n      sstore\n      0x03\n      dup3\n      add\n      0x00\n      tag_261\n      swap2\n      swap1\n      tag_87\n      jump\t// in\n    tag_261:\n      0x04\n      dup3\n      add\n      0x00\n      tag_262\n      swap2\n      swap1\n      tag_87\n      jump\t// in\n    tag_262:\n      0x05\n      dup3\n      add\n      0x00\n      tag_263\n      swap2\n      swap1\n      tag_87\n      jump\t// in\n    tag_263:\n      0x06\n      dup3\n      add\n      0x00\n      tag_264\n      swap2\n      swap1\n      tag_87\n      jump\t// in\n    tag_264:\n      0x07\n      dup3\n      add\n      0x00\n      swap1\n      sstore\n      pop\n      pop\n      0x08\n      dup3\n      add\n      0x00\n      dup1\n      dup3\n      add\n      0x00\n      tag_265\n      swap2\n      swap1\n      tag_87\n      jump\t// in\n    tag_265:\n      0x01\n      dup3\n      add\n      0x00\n      tag_266\n      swap2\n      swap1\n      tag_87\n      jump\t// in\n    tag_266:\n      0x02\n      dup3\n      add\n      0x00\n      tag_267\n      swap2\n      swap1\n      tag_87\n      jump\t// in\n    tag_267:\n      0x03\n      dup3\n      add\n      0x00\n      tag_268\n      swap2\n      swap1\n      tag_87\n      jump\t// in\n    tag_268:\n      0x04\n      dup3\n      add\n      0x00\n      tag_269\n      swap2\n      swap1\n      tag_87\n      jump\t// in\n    tag_269:\n      0x05\n      dup3\n      add\n      0x00\n      tag_270\n      swap2\n      swap1\n      tag_87\n      jump\t// in\n    tag_270:\n      pop\n      pop\n      0x0e\n      dup3\n      add\n      0x00\n      dup1\n      dup3\n      add\n      0x00\n      tag_271\n      swap2\n      swap1\n      tag_61\n      jump\t// in\n    tag_271:\n      0x01\n      dup3\n      add\n      0x00\n      tag_272\n      swap2\n      swap1\n      tag_61\n      jump\t// in\n    tag_272:\n      0x02\n      dup3\n      add\n      0x00\n      tag_273\n      swap2\n      swap1\n      tag_61\n      jump\t// in\n    tag_273:\n      pop\n      pop\n      0x11\n      dup3\n      add\n      0x00\n      tag_274\n      swap2\n      swap1\n      tag_215\n      jump\t// in\n    tag_274:\n      0x12\n      dup3\n      add\n      0x00\n      dup1\n      dup3\n      add\n      0x00\n      tag_275\n      swap2\n      swap1\n      tag_61\n      jump\t// in\n    tag_275:\n      0x01\n      dup3\n      add\n      0x00\n      tag_276\n      swap2\n      swap1\n      tag_61\n      jump\t// in\n    tag_276:\n      pop\n      pop\n      pop\n      pop\n        /* \"contracts/Profile.sol\":4534:4610  function delProfile() external {\r... */\n      jump\t// out\n    tag_61:\n      pop\n      dup1\n      sload\n      0x00\n      dup3\n      sstore\n      swap1\n      0x00\n      mstore\n      keccak256(0x00, 0x20)\n      swap1\n      dup2\n      add\n      swap1\n      tag_278\n      swap2\n      swap1\n      tag_279\n      jump\t// in\n    tag_278:\n      pop\n      jump\t// out\n    tag_65:\n      dup3\n      dup1\n      sload\n      dup3\n      dup3\n      sstore\n      swap1\n      0x00\n      mstore\n      keccak256(0x00, 0x20)\n      swap1\n      dup2\n      add\n      swap3\n      dup3\n      iszero\n      tag_280\n      jumpi\n      swap2\n      0x20\n      mul\n      dup3\n      add\n    tag_281:\n      dup3\n      dup2\n      gt\n      iszero\n      tag_282\n      jumpi\n      dup3\n      mload\n      dup3\n      swap1\n      dup1\n      mload\n      swap1\n      0x20\n      add\n      swap1\n      tag_283\n      swap3\n      swap2\n      swap1\n      tag_77\n      jump\t// in\n    tag_283:\n      pop\n      swap2\n      0x20\n      add\n      swap2\n      swap1\n      0x01\n      add\n      swap1\n      jump(tag_281)\n    tag_282:\n    tag_280:\n      pop\n      swap1\n      pop\n      tag_284\n      swap2\n      swap1\n      tag_279\n      jump\t// in\n    tag_284:\n      pop\n      swap1\n      jump\t// out\n    tag_74:\n      mload(0x40)\n      dup1\n      0xa0\n      add\n      0x40\n      mstore\n      dup1\n      0x60\n      dup2\n      mstore\n      0x20\n      add\n      0x60\n      dup2\n      mstore\n      0x20\n      add\n      0x60\n      dup2\n      mstore\n      0x20\n      add\n      0x60\n      dup2\n      mstore\n      0x20\n      add\n      0x60\n      dup2\n      mstore\n      pop\n      swap1\n      jump\t// out\n    tag_77:\n      dup3\n      dup1\n      sload\n      tag_285\n      swap1\n      tag_113\n      jump\t// in\n    tag_285:\n      swap1\n      0x00\n      mstore\n      keccak256(0x00, 0x20)\n      swap1\n      0x1f\n      add\n      0x20\n      swap1\n      div\n      dup2\n      add\n      swap3\n      dup3\n      tag_287\n      jumpi\n      0x00\n      dup6\n      sstore\n      jump(tag_286)\n    tag_287:\n      dup3\n      0x1f\n      lt\n      tag_288\n      jumpi\n      dup1\n      mload\n      not(0xff)\n      and\n      dup4\n      dup1\n      add\n      or\n      dup6\n      sstore\n      jump(tag_286)\n    tag_288:\n      dup3\n      dup1\n      add\n      0x01\n      add\n      dup6\n      sstore\n      dup3\n      iszero\n      tag_286\n      jumpi\n      swap2\n      dup3\n      add\n    tag_289:\n      dup3\n      dup2\n      gt\n      iszero\n      tag_290\n      jumpi\n      dup3\n      mload\n      dup3\n      sstore\n      swap2\n      0x20\n      add\n      swap2\n      swap1\n      0x01\n      add\n      swap1\n      jump(tag_289)\n    tag_290:\n    tag_286:\n      pop\n      swap1\n      pop\n      tag_291\n      swap2\n      swap1\n      tag_292\n      jump\t// in\n    tag_291:\n      pop\n      swap1\n      jump\t// out\n    tag_87:\n      pop\n      dup1\n      sload\n      tag_293\n      swap1\n      tag_113\n      jump\t// in\n    tag_293:\n      0x00\n      dup3\n      sstore\n      dup1\n      0x1f\n      lt\n      tag_295\n      jumpi\n      pop\n      jump(tag_294)\n    tag_295:\n      0x1f\n      add\n      0x20\n      swap1\n      div\n      swap1\n      0x00\n      mstore\n      keccak256(0x00, 0x20)\n      swap1\n      dup2\n      add\n      swap1\n      tag_296\n      swap2\n      swap1\n      tag_292\n      jump\t// in\n    tag_296:\n    tag_294:\n      pop\n      jump\t// out\n    tag_215:\n      pop\n      dup1\n      sload\n      0x00\n      dup3\n      sstore\n      0x05\n      mul\n      swap1\n      0x00\n      mstore\n      keccak256(0x00, 0x20)\n      swap1\n      dup2\n      add\n      swap1\n      tag_298\n      swap2\n      swap1\n      tag_299\n      jump\t// in\n    tag_298:\n      pop\n      jump\t// out\n    tag_279:\n    tag_300:\n      dup1\n      dup3\n      gt\n      iszero\n      tag_301\n      jumpi\n      0x00\n      dup2\n      dup2\n      tag_302\n      swap2\n      swap1\n      tag_87\n      jump\t// in\n    tag_302:\n      pop\n      0x01\n      add\n      jump(tag_300)\n    tag_301:\n      pop\n      swap1\n      jump\t// out\n    tag_292:\n    tag_303:\n      dup1\n      dup3\n      gt\n      iszero\n      tag_304\n      jumpi\n      0x00\n      dup2\n      0x00\n      swap1\n      sstore\n      pop\n      0x01\n      add\n      jump(tag_303)\n    tag_304:\n      pop\n      swap1\n      jump\t// out\n    tag_299:\n    tag_305:\n      dup1\n      dup3\n      gt\n      iszero\n      tag_306\n      jumpi\n      0x00\n      dup1\n      dup3\n      add\n      0x00\n      tag_307\n      swap2\n      swap1\n      tag_87\n      jump\t// in\n    tag_307:\n      0x01\n      dup3\n      add\n      0x00\n      tag_308\n      swap2\n      swap1\n      tag_87\n      jump\t// in\n    tag_308:\n      0x02\n      dup3\n      add\n      0x00\n      tag_309\n      swap2\n      swap1\n      tag_87\n      jump\t// in\n    tag_309:\n      0x03\n      dup3\n      add\n      0x00\n      tag_310\n      swap2\n      swap1\n      tag_87\n      jump\t// in\n    tag_310:\n      0x04\n      dup3\n      add\n      0x00\n      tag_311\n      swap2\n      swap1\n      tag_87\n      jump\t// in\n    tag_311:\n      pop\n      0x05\n      add\n      jump(tag_305)\n    tag_306:\n      pop\n      swap1\n      jump\t// out\n        /* \"#utility.yul\":23:980   */\n    tag_313:\n        /* \"#utility.yul\":129:134   */\n      0x00\n        /* \"#utility.yul\":154:245   */\n      tag_315\n        /* \"#utility.yul\":170:244   */\n      tag_316\n        /* \"#utility.yul\":237:243   */\n      dup5\n        /* \"#utility.yul\":170:244   */\n      tag_317\n      jump\t// in\n    tag_316:\n        /* \"#utility.yul\":154:245   */\n      tag_318\n      jump\t// in\n    tag_315:\n        /* \"#utility.yul\":145:245   */\n      swap1\n      pop\n        /* \"#utility.yul\":265:270   */\n      dup1\n        /* \"#utility.yul\":294:300   */\n      dup4\n        /* \"#utility.yul\":287:292   */\n      dup3\n        /* \"#utility.yul\":280:301   */\n      mstore\n        /* \"#utility.yul\":328:332   */\n      0x20\n        /* \"#utility.yul\":321:326   */\n      dup3\n        /* \"#utility.yul\":317:333   */\n      add\n        /* \"#utility.yul\":310:333   */\n      swap1\n      pop\n        /* \"#utility.yul\":354:360   */\n      dup3\n        /* \"#utility.yul\":404:407   */\n      dup6\n        /* \"#utility.yul\":396:400   */\n      0x20\n        /* \"#utility.yul\":388:394   */\n      dup7\n        /* \"#utility.yul\":384:401   */\n      mul\n        /* \"#utility.yul\":379:382   */\n      dup3\n        /* \"#utility.yul\":375:402   */\n      add\n        /* \"#utility.yul\":372:408   */\n      gt\n        /* \"#utility.yul\":369:512   */\n      iszero\n      tag_319\n      jumpi\n        /* \"#utility.yul\":423:502   */\n      tag_320\n      tag_321\n      jump\t// in\n    tag_320:\n        /* \"#utility.yul\":369:512   */\n    tag_319:\n        /* \"#utility.yul\":536:537   */\n      0x00\n        /* \"#utility.yul\":521:974   */\n    tag_322:\n        /* \"#utility.yul\":546:552   */\n      dup6\n        /* \"#utility.yul\":543:544   */\n      dup2\n        /* \"#utility.yul\":540:553   */\n      lt\n        /* \"#utility.yul\":521:974   */\n      iszero\n      tag_324\n      jumpi\n        /* \"#utility.yul\":628:631   */\n      dup2\n        /* \"#utility.yul\":615:632   */\n      calldataload\n        /* \"#utility.yul\":664:682   */\n      0xffffffffffffffff\n        /* \"#utility.yul\":651:662   */\n      dup2\n        /* \"#utility.yul\":648:683   */\n      gt\n        /* \"#utility.yul\":645:767   */\n      iszero\n      tag_325\n      jumpi\n        /* \"#utility.yul\":686:765   */\n      tag_326\n      tag_327\n      jump\t// in\n    tag_326:\n        /* \"#utility.yul\":645:767   */\n    tag_325:\n        /* \"#utility.yul\":810:821   */\n      dup1\n        /* \"#utility.yul\":802:808   */\n      dup7\n        /* \"#utility.yul\":798:822   */\n      add\n        /* \"#utility.yul\":848:895   */\n      tag_328\n        /* \"#utility.yul\":891:894   */\n      dup10\n        /* \"#utility.yul\":879:889   */\n      dup3\n        /* \"#utility.yul\":848:895   */\n      tag_329\n      jump\t// in\n    tag_328:\n        /* \"#utility.yul\":843:846   */\n      dup6\n        /* \"#utility.yul\":836:896   */\n      mstore\n        /* \"#utility.yul\":925:929   */\n      0x20\n        /* \"#utility.yul\":920:923   */\n      dup6\n        /* \"#utility.yul\":916:930   */\n      add\n        /* \"#utility.yul\":909:930   */\n      swap5\n      pop\n        /* \"#utility.yul\":959:963   */\n      0x20\n        /* \"#utility.yul\":954:957   */\n      dup5\n        /* \"#utility.yul\":950:964   */\n      add\n        /* \"#utility.yul\":943:964   */\n      swap4\n      pop\n        /* \"#utility.yul\":581:974   */\n      pop\n      pop\n        /* \"#utility.yul\":568:569   */\n      0x01\n        /* \"#utility.yul\":565:566   */\n      dup2\n        /* \"#utility.yul\":561:570   */\n      add\n        /* \"#utility.yul\":556:570   */\n      swap1\n      pop\n        /* \"#utility.yul\":521:974   */\n      jump(tag_322)\n    tag_324:\n        /* \"#utility.yul\":525:539   */\n      pop\n        /* \"#utility.yul\":135:980   */\n      pop\n      pop\n        /* \"#utility.yul\":23:980   */\n      swap4\n      swap3\n      pop\n      pop\n      pop\n      jump\t// out\n        /* \"#utility.yul\":986:1398   */\n    tag_330:\n        /* \"#utility.yul\":1064:1069   */\n      0x00\n        /* \"#utility.yul\":1089:1155   */\n      tag_332\n        /* \"#utility.yul\":1105:1154   */\n      tag_333\n        /* \"#utility.yul\":1147:1153   */\n      dup5\n        /* \"#utility.yul\":1105:1154   */\n      tag_334\n      jump\t// in\n    tag_333:\n        /* \"#utility.yul\":1089:1155   */\n      tag_318\n      jump\t// in\n    tag_332:\n        /* \"#utility.yul\":1080:1155   */\n      swap1\n      pop\n        /* \"#utility.yul\":1178:1184   */\n      dup3\n        /* \"#utility.yul\":1171:1176   */\n      dup2\n        /* \"#utility.yul\":1164:1185   */\n      mstore\n        /* \"#utility.yul\":1216:1220   */\n      0x20\n        /* \"#utility.yul\":1209:1214   */\n      dup2\n        /* \"#utility.yul\":1205:1221   */\n      add\n        /* \"#utility.yul\":1254:1257   */\n      dup5\n        /* \"#utility.yul\":1245:1251   */\n      dup5\n        /* \"#utility.yul\":1240:1243   */\n      dup5\n        /* \"#utility.yul\":1236:1252   */\n      add\n        /* \"#utility.yul\":1233:1258   */\n      gt\n        /* \"#utility.yul\":1230:1342   */\n      iszero\n      tag_335\n      jumpi\n        /* \"#utility.yul\":1261:1340   */\n      tag_336\n      tag_337\n      jump\t// in\n    tag_336:\n        /* \"#utility.yul\":1230:1342   */\n    tag_335:\n        /* \"#utility.yul\":1351:1392   */\n      tag_338\n        /* \"#utility.yul\":1385:1391   */\n      dup5\n        /* \"#utility.yul\":1380:1383   */\n      dup3\n        /* \"#utility.yul\":1375:1378   */\n      dup6\n        /* \"#utility.yul\":1351:1392   */\n      tag_339\n      jump\t// in\n    tag_338:\n        /* \"#utility.yul\":1070:1398   */\n      pop\n        /* \"#utility.yul\":986:1398   */\n      swap4\n      swap3\n      pop\n      pop\n      pop\n      jump\t// out\n        /* \"#utility.yul\":1404:1543   */\n    tag_340:\n        /* \"#utility.yul\":1450:1455   */\n      0x00\n        /* \"#utility.yul\":1488:1494   */\n      dup2\n        /* \"#utility.yul\":1475:1495   */\n      calldataload\n        /* \"#utility.yul\":1466:1495   */\n      swap1\n      pop\n        /* \"#utility.yul\":1504:1537   */\n      tag_342\n        /* \"#utility.yul\":1531:1536   */\n      dup2\n        /* \"#utility.yul\":1504:1537   */\n      tag_343\n      jump\t// in\n    tag_342:\n        /* \"#utility.yul\":1404:1543   */\n      swap3\n      swap2\n      pop\n      pop\n      jump\t// out\n        /* \"#utility.yul\":1565:1955   */\n    tag_344:\n        /* \"#utility.yul\":1646:1651   */\n      0x00\n        /* \"#utility.yul\":1695:1698   */\n      dup3\n        /* \"#utility.yul\":1688:1692   */\n      0x1f\n        /* \"#utility.yul\":1680:1686   */\n      dup4\n        /* \"#utility.yul\":1676:1693   */\n      add\n        /* \"#utility.yul\":1672:1699   */\n      slt\n        /* \"#utility.yul\":1662:1784   */\n      tag_346\n      jumpi\n        /* \"#utility.yul\":1703:1782   */\n      tag_347\n      tag_327\n      jump\t// in\n    tag_347:\n        /* \"#utility.yul\":1662:1784   */\n    tag_346:\n        /* \"#utility.yul\":1820:1826   */\n      dup2\n        /* \"#utility.yul\":1807:1827   */\n      calldataload\n        /* \"#utility.yul\":1845:1949   */\n      tag_348\n        /* \"#utility.yul\":1945:1948   */\n      dup5\n        /* \"#utility.yul\":1937:1943   */\n      dup3\n        /* \"#utility.yul\":1930:1934   */\n      0x20\n        /* \"#utility.yul\":1922:1928   */\n      dup7\n        /* \"#utility.yul\":1918:1935   */\n      add\n        /* \"#utility.yul\":1845:1949   */\n      tag_313\n      jump\t// in\n    tag_348:\n        /* \"#utility.yul\":1836:1949   */\n      swap2\n      pop\n        /* \"#utility.yul\":1652:1955   */\n      pop\n        /* \"#utility.yul\":1565:1955   */\n      swap3\n      swap2\n      pop\n      pop\n      jump\t// out\n        /* \"#utility.yul\":1975:2315   */\n    tag_329:\n        /* \"#utility.yul\":2031:2036   */\n      0x00\n        /* \"#utility.yul\":2080:2083   */\n      dup3\n        /* \"#utility.yul\":2073:2077   */\n      0x1f\n        /* \"#utility.yul\":2065:2071   */\n      dup4\n        /* \"#utility.yul\":2061:2078   */\n      add\n        /* \"#utility.yul\":2057:2084   */\n      slt\n        /* \"#utility.yul\":2047:2169   */\n      tag_350\n      jumpi\n        /* \"#utility.yul\":2088:2167   */\n      tag_351\n      tag_327\n      jump\t// in\n    tag_351:\n        /* \"#utility.yul\":2047:2169   */\n    tag_350:\n        /* \"#utility.yul\":2205:2211   */\n      dup2\n        /* \"#utility.yul\":2192:2212   */\n      calldataload\n        /* \"#utility.yul\":2230:2309   */\n      tag_352\n        /* \"#utility.yul\":2305:2308   */\n      dup5\n        /* \"#utility.yul\":2297:2303   */\n      dup3\n        /* \"#utility.yul\":2290:2294   */\n      0x20\n        /* \"#utility.yul\":2282:2288   */\n      dup7\n        /* \"#utility.yul\":2278:2295   */\n      add\n        /* \"#utility.yul\":2230:2309   */\n      tag_330\n      jump\t// in\n    tag_352:\n        /* \"#utility.yul\":2221:2309   */\n      swap2\n      pop\n        /* \"#utility.yul\":2037:2315   */\n      pop\n        /* \"#utility.yul\":1975:2315   */\n      swap3\n      swap2\n      pop\n      pop\n      jump\t// out\n        /* \"#utility.yul\":2321:2460   */\n    tag_353:\n        /* \"#utility.yul\":2367:2372   */\n      0x00\n        /* \"#utility.yul\":2405:2411   */\n      dup2\n        /* \"#utility.yul\":2392:2412   */\n      calldataload\n        /* \"#utility.yul\":2383:2412   */\n      swap1\n      pop\n        /* \"#utility.yul\":2421:2454   */\n      tag_355\n        /* \"#utility.yul\":2448:2453   */\n      dup2\n        /* \"#utility.yul\":2421:2454   */\n      tag_356\n      jump\t// in\n    tag_355:\n        /* \"#utility.yul\":2321:2460   */\n      swap3\n      swap2\n      pop\n      pop\n      jump\t// out\n        /* \"#utility.yul\":2466:2795   */\n    tag_45:\n        /* \"#utility.yul\":2525:2531   */\n      0x00\n        /* \"#utility.yul\":2574:2576   */\n      0x20\n        /* \"#utility.yul\":2562:2571   */\n      dup3\n        /* \"#utility.yul\":2553:2560   */\n      dup5\n        /* \"#utility.yul\":2549:2572   */\n      sub\n        /* \"#utility.yul\":2545:2577   */\n      slt\n        /* \"#utility.yul\":2542:2661   */\n      iszero\n      tag_358\n      jumpi\n        /* \"#utility.yul\":2580:2659   */\n      tag_359\n      tag_360\n      jump\t// in\n    tag_359:\n        /* \"#utility.yul\":2542:2661   */\n    tag_358:\n        /* \"#utility.yul\":2700:2701   */\n      0x00\n        /* \"#utility.yul\":2725:2778   */\n      tag_361\n        /* \"#utility.yul\":2770:2777   */\n      dup5\n        /* \"#utility.yul\":2761:2767   */\n      dup3\n        /* \"#utility.yul\":2750:2759   */\n      dup6\n        /* \"#utility.yul\":2746:2768   */\n      add\n        /* \"#utility.yul\":2725:2778   */\n      tag_340\n      jump\t// in\n    tag_361:\n        /* \"#utility.yul\":2715:2778   */\n      swap2\n      pop\n        /* \"#utility.yul\":2671:2788   */\n      pop\n        /* \"#utility.yul\":2466:2795   */\n      swap3\n      swap2\n      pop\n      pop\n      jump\t// out\n        /* \"#utility.yul\":2801:3735   */\n    tag_32:\n        /* \"#utility.yul\":2939:2945   */\n      0x00\n        /* \"#utility.yul\":2947:2953   */\n      dup1\n        /* \"#utility.yul\":2996:2998   */\n      0x40\n        /* \"#utility.yul\":2984:2993   */\n      dup4\n        /* \"#utility.yul\":2975:2982   */\n      dup6\n        /* \"#utility.yul\":2971:2994   */\n      sub\n        /* \"#utility.yul\":2967:2999   */\n      slt\n        /* \"#utility.yul\":2964:3083   */\n      iszero\n      tag_363\n      jumpi\n        /* \"#utility.yul\":3002:3081   */\n      tag_364\n      tag_360\n      jump\t// in\n    tag_364:\n        /* \"#utility.yul\":2964:3083   */\n    tag_363:\n        /* \"#utility.yul\":3150:3151   */\n      0x00\n        /* \"#utility.yul\":3139:3148   */\n      dup4\n        /* \"#utility.yul\":3135:3152   */\n      add\n        /* \"#utility.yul\":3122:3153   */\n      calldataload\n        /* \"#utility.yul\":3180:3198   */\n      0xffffffffffffffff\n        /* \"#utility.yul\":3172:3178   */\n      dup2\n        /* \"#utility.yul\":3169:3199   */\n      gt\n        /* \"#utility.yul\":3166:3283   */\n      iszero\n      tag_365\n      jumpi\n        /* \"#utility.yul\":3202:3281   */\n      tag_366\n      tag_367\n      jump\t// in\n    tag_366:\n        /* \"#utility.yul\":3166:3283   */\n    tag_365:\n        /* \"#utility.yul\":3307:3395   */\n      tag_368\n        /* \"#utility.yul\":3387:3394   */\n      dup6\n        /* \"#utility.yul\":3378:3384   */\n      dup3\n        /* \"#utility.yul\":3367:3376   */\n      dup7\n        /* \"#utility.yul\":3363:3385   */\n      add\n        /* \"#utility.yul\":3307:3395   */\n      tag_344\n      jump\t// in\n    tag_368:\n        /* \"#utility.yul\":3297:3395   */\n      swap3\n      pop\n        /* \"#utility.yul\":3093:3405   */\n      pop\n        /* \"#utility.yul\":3472:3474   */\n      0x20\n        /* \"#utility.yul\":3461:3470   */\n      dup4\n        /* \"#utility.yul\":3457:3475   */\n      add\n        /* \"#utility.yul\":3444:3476   */\n      calldataload\n        /* \"#utility.yul\":3503:3521   */\n      0xffffffffffffffff\n        /* \"#utility.yul\":3495:3501   */\n      dup2\n        /* \"#utility.yul\":3492:3522   */\n      gt\n        /* \"#utility.yul\":3489:3606   */\n      iszero\n      tag_369\n      jumpi\n        /* \"#utility.yul\":3525:3604   */\n      tag_370\n      tag_367\n      jump\t// in\n    tag_370:\n        /* \"#utility.yul\":3489:3606   */\n    tag_369:\n        /* \"#utility.yul\":3630:3718   */\n      tag_371\n        /* \"#utility.yul\":3710:3717   */\n      dup6\n        /* \"#utility.yul\":3701:3707   */\n      dup3\n        /* \"#utility.yul\":3690:3699   */\n      dup7\n        /* \"#utility.yul\":3686:3708   */\n      add\n        /* \"#utility.yul\":3630:3718   */\n      tag_344\n      jump\t// in\n    tag_371:\n        /* \"#utility.yul\":3620:3718   */\n      swap2\n      pop\n        /* \"#utility.yul\":3415:3728   */\n      pop\n        /* \"#utility.yul\":2801:3735   */\n      swap3\n      pop\n      swap3\n      swap1\n      pop\n      jump\t// out\n        /* \"#utility.yul\":3741:5050   */\n    tag_18:\n        /* \"#utility.yul\":3923:3929   */\n      0x00\n        /* \"#utility.yul\":3931:3937   */\n      dup1\n        /* \"#utility.yul\":3939:3945   */\n      0x00\n        /* \"#utility.yul\":3988:3990   */\n      0x60\n        /* \"#utility.yul\":3976:3985   */\n      dup5\n        /* \"#utility.yul\":3967:3974   */\n      dup7\n        /* \"#utility.yul\":3963:3986   */\n      sub\n        /* \"#utility.yul\":3959:3991   */\n      slt\n        /* \"#utility.yul\":3956:4075   */\n      iszero\n      tag_373\n      jumpi\n        /* \"#utility.yul\":3994:4073   */\n      tag_374\n      tag_360\n      jump\t// in\n    tag_374:\n        /* \"#utility.yul\":3956:4075   */\n    tag_373:\n        /* \"#utility.yul\":4142:4143   */\n      0x00\n        /* \"#utility.yul\":4131:4140   */\n      dup5\n        /* \"#utility.yul\":4127:4144   */\n      add\n        /* \"#utility.yul\":4114:4145   */\n      calldataload\n        /* \"#utility.yul\":4172:4190   */\n      0xffffffffffffffff\n        /* \"#utility.yul\":4164:4170   */\n      dup2\n        /* \"#utility.yul\":4161:4191   */\n      gt\n        /* \"#utility.yul\":4158:4275   */\n      iszero\n      tag_375\n      jumpi\n        /* \"#utility.yul\":4194:4273   */\n      tag_376\n      tag_367\n      jump\t// in\n    tag_376:\n        /* \"#utility.yul\":4158:4275   */\n    tag_375:\n        /* \"#utility.yul\":4299:4387   */\n      tag_377\n        /* \"#utility.yul\":4379:4386   */\n      dup7\n        /* \"#utility.yul\":4370:4376   */\n      dup3\n        /* \"#utility.yul\":4359:4368   */\n      dup8\n        /* \"#utility.yul\":4355:4377   */\n      add\n        /* \"#utility.yul\":4299:4387   */\n      tag_344\n      jump\t// in\n    tag_377:\n        /* \"#utility.yul\":4289:4387   */\n      swap4\n      pop\n        /* \"#utility.yul\":4085:4397   */\n      pop\n        /* \"#utility.yul\":4464:4466   */\n      0x20\n        /* \"#utility.yul\":4453:4462   */\n      dup5\n        /* \"#utility.yul\":4449:4467   */\n      add\n        /* \"#utility.yul\":4436:4468   */\n      calldataload\n        /* \"#utility.yul\":4495:4513   */\n      0xffffffffffffffff\n        /* \"#utility.yul\":4487:4493   */\n      dup2\n        /* \"#utility.yul\":4484:4514   */\n      gt\n        /* \"#utility.yul\":4481:4598   */\n      iszero\n      tag_378\n      jumpi\n        /* \"#utility.yul\":4517:4596   */\n      tag_379\n      tag_367\n      jump\t// in\n    tag_379:\n        /* \"#utility.yul\":4481:4598   */\n    tag_378:\n        /* \"#utility.yul\":4622:4710   */\n      tag_380\n        /* \"#utility.yul\":4702:4709   */\n      dup7\n        /* \"#utility.yul\":4693:4699   */\n      dup3\n        /* \"#utility.yul\":4682:4691   */\n      dup8\n        /* \"#utility.yul\":4678:4700   */\n      add\n        /* \"#utility.yul\":4622:4710   */\n      tag_344\n      jump\t// in\n    tag_380:\n        /* \"#utility.yul\":4612:4710   */\n      swap3\n      pop\n        /* \"#utility.yul\":4407:4720   */\n      pop\n        /* \"#utility.yul\":4787:4789   */\n      0x40\n        /* \"#utility.yul\":4776:4785   */\n      dup5\n        /* \"#utility.yul\":4772:4790   */\n      add\n        /* \"#utility.yul\":4759:4791   */\n      calldataload\n        /* \"#utility.yul\":4818:4836   */\n      0xffffffffffffffff\n        /* \"#utility.yul\":4810:4816   */\n      dup2\n        /* \"#utility.yul\":4807:4837   */\n      gt\n        /* \"#utility.yul\":4804:4921   */\n      iszero\n      tag_381\n      jumpi\n        /* \"#utility.yul\":4840:4919   */\n      tag_382\n      tag_367\n      jump\t// in\n    tag_382:\n        /* \"#utility.yul\":4804:4921   */\n    tag_381:\n        /* \"#utility.yul\":4945:5033   */\n      tag_383\n        /* \"#utility.yul\":5025:5032   */\n      dup7\n        /* \"#utility.yul\":5016:5022   */\n      dup3\n        /* \"#utility.yul\":5005:5014   */\n      dup8\n        /* \"#utility.yul\":5001:5023   */\n      add\n        /* \"#utility.yul\":4945:5033   */\n      tag_344\n      jump\t// in\n    tag_383:\n        /* \"#utility.yul\":4935:5033   */\n      swap2\n      pop\n        /* \"#utility.yul\":4730:5043   */\n      pop\n        /* \"#utility.yul\":3741:5050   */\n      swap3\n      pop\n      swap3\n      pop\n      swap3\n      jump\t// out\n        /* \"#utility.yul\":5056:6867   */\n    tag_28:\n        /* \"#utility.yul\":5201:5207   */\n      0x00\n        /* \"#utility.yul\":5209:5215   */\n      dup1\n        /* \"#utility.yul\":5217:5223   */\n      0x00\n        /* \"#utility.yul\":5225:5231   */\n      dup1\n        /* \"#utility.yul\":5233:5239   */\n      0x00\n        /* \"#utility.yul\":5282:5285   */\n      0xa0\n        /* \"#utility.yul\":5270:5279   */\n      dup7\n        /* \"#utility.yul\":5261:5268   */\n      dup9\n        /* \"#utility.yul\":5257:5280   */\n      sub\n        /* \"#utility.yul\":5253:5286   */\n      slt\n        /* \"#utility.yul\":5250:5370   */\n      iszero\n      tag_385\n      jumpi\n        /* \"#utility.yul\":5289:5368   */\n      tag_386\n      tag_360\n      jump\t// in\n    tag_386:\n        /* \"#utility.yul\":5250:5370   */\n    tag_385:\n        /* \"#utility.yul\":5437:5438   */\n      0x00\n        /* \"#utility.yul\":5426:5435   */\n      dup7\n        /* \"#utility.yul\":5422:5439   */\n      add\n        /* \"#utility.yul\":5409:5440   */\n      calldataload\n        /* \"#utility.yul\":5467:5485   */\n      0xffffffffffffffff\n        /* \"#utility.yul\":5459:5465   */\n      dup2\n        /* \"#utility.yul\":5456:5486   */\n      gt\n        /* \"#utility.yul\":5453:5570   */\n      iszero\n      tag_387\n      jumpi\n        /* \"#utility.yul\":5489:5568   */\n      tag_388\n      tag_367\n      jump\t// in\n    tag_388:\n        /* \"#utility.yul\":5453:5570   */\n    tag_387:\n        /* \"#utility.yul\":5594:5657   */\n      tag_389\n        /* \"#utility.yul\":5649:5656   */\n      dup9\n        /* \"#utility.yul\":5640:5646   */\n      dup3\n        /* \"#utility.yul\":5629:5638   */\n      dup10\n        /* \"#utility.yul\":5625:5647   */\n      add\n        /* \"#utility.yul\":5594:5657   */\n      tag_329\n      jump\t// in\n    tag_389:\n        /* \"#utility.yul\":5584:5657   */\n      swap6\n      pop\n        /* \"#utility.yul\":5380:5667   */\n      pop\n        /* \"#utility.yul\":5734:5736   */\n      0x20\n        /* \"#utility.yul\":5723:5732   */\n      dup7\n        /* \"#utility.yul\":5719:5737   */\n      add\n        /* \"#utility.yul\":5706:5738   */\n      calldataload\n        /* \"#utility.yul\":5765:5783   */\n      0xffffffffffffffff\n        /* \"#utility.yul\":5757:5763   */\n      dup2\n        /* \"#utility.yul\":5754:5784   */\n      gt\n        /* \"#utility.yul\":5751:5868   */\n      iszero\n      tag_390\n      jumpi\n        /* \"#utility.yul\":5787:5866   */\n      tag_391\n      tag_367\n      jump\t// in\n    tag_391:\n        /* \"#utility.yul\":5751:5868   */\n    tag_390:\n        /* \"#utility.yul\":5892:5955   */\n      tag_392\n        /* \"#utility.yul\":5947:5954   */\n      dup9\n        /* \"#utility.yul\":5938:5944   */\n      dup3\n        /* \"#utility.yul\":5927:5936   */\n      dup10\n        /* \"#utility.yul\":5923:5945   */\n      add\n        /* \"#utility.yul\":5892:5955   */\n      tag_329\n      jump\t// in\n    tag_392:\n        /* \"#utility.yul\":5882:5955   */\n      swap5\n      pop\n        /* \"#utility.yul\":5677:5965   */\n      pop\n        /* \"#utility.yul\":6032:6034   */\n      0x40\n        /* \"#utility.yul\":6021:6030   */\n      dup7\n        /* \"#utility.yul\":6017:6035   */\n      add\n        /* \"#utility.yul\":6004:6036   */\n      calldataload\n        /* \"#utility.yul\":6063:6081   */\n      0xffffffffffffffff\n        /* \"#utility.yul\":6055:6061   */\n      dup2\n        /* \"#utility.yul\":6052:6082   */\n      gt\n        /* \"#utility.yul\":6049:6166   */\n      iszero\n      tag_393\n      jumpi\n        /* \"#utility.yul\":6085:6164   */\n      tag_394\n      tag_367\n      jump\t// in\n    tag_394:\n        /* \"#utility.yul\":6049:6166   */\n    tag_393:\n        /* \"#utility.yul\":6190:6253   */\n      tag_395\n        /* \"#utility.yul\":6245:6252   */\n      dup9\n        /* \"#utility.yul\":6236:6242   */\n      dup3\n        /* \"#utility.yul\":6225:6234   */\n      dup10\n        /* \"#utility.yul\":6221:6243   */\n      add\n        /* \"#utility.yul\":6190:6253   */\n      tag_329\n      jump\t// in\n    tag_395:\n        /* \"#utility.yul\":6180:6253   */\n      swap4\n      pop\n        /* \"#utility.yul\":5975:6263   */\n      pop\n        /* \"#utility.yul\":6330:6332   */\n      0x60\n        /* \"#utility.yul\":6319:6328   */\n      dup7\n        /* \"#utility.yul\":6315:6333   */\n      add\n        /* \"#utility.yul\":6302:6334   */\n      calldataload\n        /* \"#utility.yul\":6361:6379   */\n      0xffffffffffffffff\n        /* \"#utility.yul\":6353:6359   */\n      dup2\n        /* \"#utility.yul\":6350:6380   */\n      gt\n        /* \"#utility.yul\":6347:6464   */\n      iszero\n      tag_396\n      jumpi\n        /* \"#utility.yul\":6383:6462   */\n      tag_397\n      tag_367\n      jump\t// in\n    tag_397:\n        /* \"#utility.yul\":6347:6464   */\n    tag_396:\n        /* \"#utility.yul\":6488:6551   */\n      tag_398\n        /* \"#utility.yul\":6543:6550   */\n      dup9\n        /* \"#utility.yul\":6534:6540   */\n      dup3\n        /* \"#utility.yul\":6523:6532   */\n      dup10\n        /* \"#utility.yul\":6519:6541   */\n      add\n        /* \"#utility.yul\":6488:6551   */\n      tag_329\n      jump\t// in\n    tag_398:\n        /* \"#utility.yul\":6478:6551   */\n      swap3\n      pop\n        /* \"#utility.yul\":6273:6561   */\n      pop\n        /* \"#utility.yul\":6628:6631   */\n      0x80\n        /* \"#utility.yul\":6617:6626   */\n      dup7\n        /* \"#utility.yul\":6613:6632   */\n      add\n        /* \"#utility.yul\":6600:6633   */\n      calldataload\n        /* \"#utility.yul\":6660:6678   */\n      0xffffffffffffffff\n        /* \"#utility.yul\":6652:6658   */\n      dup2\n        /* \"#utility.yul\":6649:6679   */\n      gt\n        /* \"#utility.yul\":6646:6763   */\n      iszero\n      tag_399\n      jumpi\n        /* \"#utility.yul\":6682:6761   */\n      tag_400\n      tag_367\n      jump\t// in\n    tag_400:\n        /* \"#utility.yul\":6646:6763   */\n    tag_399:\n        /* \"#utility.yul\":6787:6850   */\n      tag_401\n        /* \"#utility.yul\":6842:6849   */\n      dup9\n        /* \"#utility.yul\":6833:6839   */\n      dup3\n        /* \"#utility.yul\":6822:6831   */\n      dup10\n        /* \"#utility.yul\":6818:6840   */\n      add\n        /* \"#utility.yul\":6787:6850   */\n      tag_329\n      jump\t// in\n    tag_401:\n        /* \"#utility.yul\":6777:6850   */\n      swap2\n      pop\n        /* \"#utility.yul\":6571:6860   */\n      pop\n        /* \"#utility.yul\":5056:6867   */\n      swap3\n      swap6\n      pop\n      swap3\n      swap6\n      swap1\n      swap4\n      pop\n      jump\t// out\n        /* \"#utility.yul\":6873:9010   */\n    tag_39:\n        /* \"#utility.yul\":7037:7043   */\n      0x00\n        /* \"#utility.yul\":7045:7051   */\n      dup1\n        /* \"#utility.yul\":7053:7059   */\n      0x00\n        /* \"#utility.yul\":7061:7067   */\n      dup1\n        /* \"#utility.yul\":7069:7075   */\n      0x00\n        /* \"#utility.yul\":7077:7083   */\n      dup1\n        /* \"#utility.yul\":7126:7129   */\n      0xc0\n        /* \"#utility.yul\":7114:7123   */\n      dup8\n        /* \"#utility.yul\":7105:7112   */\n      dup10\n        /* \"#utility.yul\":7101:7124   */\n      sub\n        /* \"#utility.yul\":7097:7130   */\n      slt\n        /* \"#utility.yul\":7094:7214   */\n      iszero\n      tag_403\n      jumpi\n        /* \"#utility.yul\":7133:7212   */\n      tag_404\n      tag_360\n      jump\t// in\n    tag_404:\n        /* \"#utility.yul\":7094:7214   */\n    tag_403:\n        /* \"#utility.yul\":7281:7282   */\n      0x00\n        /* \"#utility.yul\":7270:7279   */\n      dup8\n        /* \"#utility.yul\":7266:7283   */\n      add\n        /* \"#utility.yul\":7253:7284   */\n      calldataload\n        /* \"#utility.yul\":7311:7329   */\n      0xffffffffffffffff\n        /* \"#utility.yul\":7303:7309   */\n      dup2\n        /* \"#utility.yul\":7300:7330   */\n      gt\n        /* \"#utility.yul\":7297:7414   */\n      iszero\n      tag_405\n      jumpi\n        /* \"#utility.yul\":7333:7412   */\n      tag_406\n      tag_367\n      jump\t// in\n    tag_406:\n        /* \"#utility.yul\":7297:7414   */\n    tag_405:\n        /* \"#utility.yul\":7438:7501   */\n      tag_407\n        /* \"#utility.yul\":7493:7500   */\n      dup10\n        /* \"#utility.yul\":7484:7490   */\n      dup3\n        /* \"#utility.yul\":7473:7482   */\n      dup11\n        /* \"#utility.yul\":7469:7491   */\n      add\n        /* \"#utility.yul\":7438:7501   */\n      tag_329\n      jump\t// in\n    tag_407:\n        /* \"#utility.yul\":7428:7501   */\n      swap7\n      pop\n        /* \"#utility.yul\":7224:7511   */\n      pop\n        /* \"#utility.yul\":7578:7580   */\n      0x20\n        /* \"#utility.yul\":7567:7576   */\n      dup8\n        /* \"#utility.yul\":7563:7581   */\n      add\n        /* \"#utility.yul\":7550:7582   */\n      calldataload\n        /* \"#utility.yul\":7609:7627   */\n      0xffffffffffffffff\n        /* \"#utility.yul\":7601:7607   */\n      dup2\n        /* \"#utility.yul\":7598:7628   */\n      gt\n        /* \"#utility.yul\":7595:7712   */\n      iszero\n      tag_408\n      jumpi\n        /* \"#utility.yul\":7631:7710   */\n      tag_409\n      tag_367\n      jump\t// in\n    tag_409:\n        /* \"#utility.yul\":7595:7712   */\n    tag_408:\n        /* \"#utility.yul\":7736:7799   */\n      tag_410\n        /* \"#utility.yul\":7791:7798   */\n      dup10\n        /* \"#utility.yul\":7782:7788   */\n      dup3\n        /* \"#utility.yul\":7771:7780   */\n      dup11\n        /* \"#utility.yul\":7767:7789   */\n      add\n        /* \"#utility.yul\":7736:7799   */\n      tag_329\n      jump\t// in\n    tag_410:\n        /* \"#utility.yul\":7726:7799   */\n      swap6\n      pop\n        /* \"#utility.yul\":7521:7809   */\n      pop\n        /* \"#utility.yul\":7876:7878   */\n      0x40\n        /* \"#utility.yul\":7865:7874   */\n      dup8\n        /* \"#utility.yul\":7861:7879   */\n      add\n        /* \"#utility.yul\":7848:7880   */\n      calldataload\n        /* \"#utility.yul\":7907:7925   */\n      0xffffffffffffffff\n        /* \"#utility.yul\":7899:7905   */\n      dup2\n        /* \"#utility.yul\":7896:7926   */\n      gt\n        /* \"#utility.yul\":7893:8010   */\n      iszero\n      tag_411\n      jumpi\n        /* \"#utility.yul\":7929:8008   */\n      tag_412\n      tag_367\n      jump\t// in\n    tag_412:\n        /* \"#utility.yul\":7893:8010   */\n    tag_411:\n        /* \"#utility.yul\":8034:8097   */\n      tag_413\n        /* \"#utility.yul\":8089:8096   */\n      dup10\n        /* \"#utility.yul\":8080:8086   */\n      dup3\n        /* \"#utility.yul\":8069:8078   */\n      dup11\n        /* \"#utility.yul\":8065:8087   */\n      add\n        /* \"#utility.yul\":8034:8097   */\n      tag_329\n      jump\t// in\n    tag_413:\n        /* \"#utility.yul\":8024:8097   */\n      swap5\n      pop\n        /* \"#utility.yul\":7819:8107   */\n      pop\n        /* \"#utility.yul\":8174:8176   */\n      0x60\n        /* \"#utility.yul\":8163:8172   */\n      dup8\n        /* \"#utility.yul\":8159:8177   */\n      add\n        /* \"#utility.yul\":8146:8178   */\n      calldataload\n        /* \"#utility.yul\":8205:8223   */\n      0xffffffffffffffff\n        /* \"#utility.yul\":8197:8203   */\n      dup2\n        /* \"#utility.yul\":8194:8224   */\n      gt\n        /* \"#utility.yul\":8191:8308   */\n      iszero\n      tag_414\n      jumpi\n        /* \"#utility.yul\":8227:8306   */\n      tag_415\n      tag_367\n      jump\t// in\n    tag_415:\n        /* \"#utility.yul\":8191:8308   */\n    tag_414:\n        /* \"#utility.yul\":8332:8395   */\n      tag_416\n        /* \"#utility.yul\":8387:8394   */\n      dup10\n        /* \"#utility.yul\":8378:8384   */\n      dup3\n        /* \"#utility.yul\":8367:8376   */\n      dup11\n        /* \"#utility.yul\":8363:8385   */\n      add\n        /* \"#utility.yul\":8332:8395   */\n      tag_329\n      jump\t// in\n    tag_416:\n        /* \"#utility.yul\":8322:8395   */\n      swap4\n      pop\n        /* \"#utility.yul\":8117:8405   */\n      pop\n        /* \"#utility.yul\":8472:8475   */\n      0x80\n        /* \"#utility.yul\":8461:8470   */\n      dup8\n        /* \"#utility.yul\":8457:8476   */\n      add\n        /* \"#utility.yul\":8444:8477   */\n      calldataload\n        /* \"#utility.yul\":8504:8522   */\n      0xffffffffffffffff\n        /* \"#utility.yul\":8496:8502   */\n      dup2\n        /* \"#utility.yul\":8493:8523   */\n      gt\n        /* \"#utility.yul\":8490:8607   */\n      iszero\n      tag_417\n      jumpi\n        /* \"#utility.yul\":8526:8605   */\n      tag_418\n      tag_367\n      jump\t// in\n    tag_418:\n        /* \"#utility.yul\":8490:8607   */\n    tag_417:\n        /* \"#utility.yul\":8631:8694   */\n      tag_419\n        /* \"#utility.yul\":8686:8693   */\n      dup10\n        /* \"#utility.yul\":8677:8683   */\n      dup3\n        /* \"#utility.yul\":8666:8675   */\n      dup11\n        /* \"#utility.yul\":8662:8684   */\n      add\n        /* \"#utility.yul\":8631:8694   */\n      tag_329\n      jump\t// in\n    tag_419:\n        /* \"#utility.yul\":8621:8694   */\n      swap3\n      pop\n        /* \"#utility.yul\":8415:8704   */\n      pop\n        /* \"#utility.yul\":8771:8774   */\n      0xa0\n        /* \"#utility.yul\":8760:8769   */\n      dup8\n        /* \"#utility.yul\":8756:8775   */\n      add\n        /* \"#utility.yul\":8743:8776   */\n      calldataload\n        /* \"#utility.yul\":8803:8821   */\n      0xffffffffffffffff\n        /* \"#utility.yul\":8795:8801   */\n      dup2\n        /* \"#utility.yul\":8792:8822   */\n      gt\n        /* \"#utility.yul\":8789:8906   */\n      iszero\n      tag_420\n      jumpi\n        /* \"#utility.yul\":8825:8904   */\n      tag_421\n      tag_367\n      jump\t// in\n    tag_421:\n        /* \"#utility.yul\":8789:8906   */\n    tag_420:\n        /* \"#utility.yul\":8930:8993   */\n      tag_422\n        /* \"#utility.yul\":8985:8992   */\n      dup10\n        /* \"#utility.yul\":8976:8982   */\n      dup3\n        /* \"#utility.yul\":8965:8974   */\n      dup11\n        /* \"#utility.yul\":8961:8983   */\n      add\n        /* \"#utility.yul\":8930:8993   */\n      tag_329\n      jump\t// in\n    tag_422:\n        /* \"#utility.yul\":8920:8993   */\n      swap2\n      pop\n        /* \"#utility.yul\":8714:9003   */\n      pop\n        /* \"#utility.yul\":6873:9010   */\n      swap3\n      swap6\n      pop\n      swap3\n      swap6\n      pop\n      swap3\n      swap6\n      jump\t// out\n        /* \"#utility.yul\":9016:9345   */\n    tag_53:\n        /* \"#utility.yul\":9075:9081   */\n      0x00\n        /* \"#utility.yul\":9124:9126   */\n      0x20\n        /* \"#utility.yul\":9112:9121   */\n      dup3\n        /* \"#utility.yul\":9103:9110   */\n      dup5\n        /* \"#utility.yul\":9099:9122   */\n      sub\n        /* \"#utility.yul\":9095:9127   */\n      slt\n        /* \"#utility.yul\":9092:9211   */\n      iszero\n      tag_424\n      jumpi\n        /* \"#utility.yul\":9130:9209   */\n      tag_425\n      tag_360\n      jump\t// in\n    tag_425:\n        /* \"#utility.yul\":9092:9211   */\n    tag_424:\n        /* \"#utility.yul\":9250:9251   */\n      0x00\n        /* \"#utility.yul\":9275:9328   */\n      tag_426\n        /* \"#utility.yul\":9320:9327   */\n      dup5\n        /* \"#utility.yul\":9311:9317   */\n      dup3\n        /* \"#utility.yul\":9300:9309   */\n      dup6\n        /* \"#utility.yul\":9296:9318   */\n      add\n        /* \"#utility.yul\":9275:9328   */\n      tag_353\n      jump\t// in\n    tag_426:\n        /* \"#utility.yul\":9265:9328   */\n      swap2\n      pop\n        /* \"#utility.yul\":9221:9338   */\n      pop\n        /* \"#utility.yul\":9016:9345   */\n      swap3\n      swap2\n      pop\n      pop\n      jump\t// out\n        /* \"#utility.yul\":9351:9547   */\n    tag_427:\n        /* \"#utility.yul\":9440:9450   */\n      0x00\n        /* \"#utility.yul\":9475:9541   */\n      tag_429\n        /* \"#utility.yul\":9537:9540   */\n      dup4\n        /* \"#utility.yul\":9529:9535   */\n      dup4\n        /* \"#utility.yul\":9475:9541   */\n      tag_430\n      jump\t// in\n    tag_429:\n        /* \"#utility.yul\":9461:9541   */\n      swap1\n      pop\n        /* \"#utility.yul\":9351:9547   */\n      swap3\n      swap2\n      pop\n      pop\n      jump\t// out\n        /* \"#utility.yul\":9553:9661   */\n    tag_431:\n        /* \"#utility.yul\":9630:9654   */\n      tag_433\n        /* \"#utility.yul\":9648:9653   */\n      dup2\n        /* \"#utility.yul\":9630:9654   */\n      tag_434\n      jump\t// in\n    tag_433:\n        /* \"#utility.yul\":9625:9628   */\n      dup3\n        /* \"#utility.yul\":9618:9655   */\n      mstore\n        /* \"#utility.yul\":9553:9661   */\n      pop\n      pop\n      jump\t// out\n        /* \"#utility.yul\":9695:10666   */\n    tag_435:\n        /* \"#utility.yul\":9824:9827   */\n      0x00\n        /* \"#utility.yul\":9853:9917   */\n      tag_437\n        /* \"#utility.yul\":9911:9916   */\n      dup3\n        /* \"#utility.yul\":9853:9917   */\n      tag_438\n      jump\t// in\n    tag_437:\n        /* \"#utility.yul\":9933:10019   */\n      tag_439\n        /* \"#utility.yul\":10012:10018   */\n      dup2\n        /* \"#utility.yul\":10007:10010   */\n      dup6\n        /* \"#utility.yul\":9933:10019   */\n      tag_440\n      jump\t// in\n    tag_439:\n        /* \"#utility.yul\":9926:10019   */\n      swap4\n      pop\n        /* \"#utility.yul\":10045:10048   */\n      dup4\n        /* \"#utility.yul\":10090:10094   */\n      0x20\n        /* \"#utility.yul\":10082:10088   */\n      dup3\n        /* \"#utility.yul\":10078:10095   */\n      mul\n        /* \"#utility.yul\":10073:10076   */\n      dup6\n        /* \"#utility.yul\":10069:10096   */\n      add\n        /* \"#utility.yul\":10120:10186   */\n      tag_441\n        /* \"#utility.yul\":10180:10185   */\n      dup6\n        /* \"#utility.yul\":10120:10186   */\n      tag_442\n      jump\t// in\n    tag_441:\n        /* \"#utility.yul\":10209:10216   */\n      dup1\n        /* \"#utility.yul\":10240:10241   */\n      0x00\n        /* \"#utility.yul\":10225:10621   */\n    tag_443:\n        /* \"#utility.yul\":10250:10256   */\n      dup6\n        /* \"#utility.yul\":10247:10248   */\n      dup2\n        /* \"#utility.yul\":10244:10257   */\n      lt\n        /* \"#utility.yul\":10225:10621   */\n      iszero\n      tag_445\n      jumpi\n        /* \"#utility.yul\":10321:10330   */\n      dup5\n        /* \"#utility.yul\":10315:10319   */\n      dup5\n        /* \"#utility.yul\":10311:10331   */\n      sub\n        /* \"#utility.yul\":10306:10309   */\n      dup10\n        /* \"#utility.yul\":10299:10332   */\n      mstore\n        /* \"#utility.yul\":10372:10378   */\n      dup2\n        /* \"#utility.yul\":10366:10379   */\n      mload\n        /* \"#utility.yul\":10400:10484   */\n      tag_446\n        /* \"#utility.yul\":10479:10483   */\n      dup6\n        /* \"#utility.yul\":10464:10477   */\n      dup3\n        /* \"#utility.yul\":10400:10484   */\n      tag_427\n      jump\t// in\n    tag_446:\n        /* \"#utility.yul\":10392:10484   */\n      swap5\n      pop\n        /* \"#utility.yul\":10507:10577   */\n      tag_447\n        /* \"#utility.yul\":10570:10576   */\n      dup4\n        /* \"#utility.yul\":10507:10577   */\n      tag_448\n      jump\t// in\n    tag_447:\n        /* \"#utility.yul\":10497:10577   */\n      swap3\n      pop\n        /* \"#utility.yul\":10606:10610   */\n      0x20\n        /* \"#utility.yul\":10601:10604   */\n      dup11\n        /* \"#utility.yul\":10597:10611   */\n      add\n        /* \"#utility.yul\":10590:10611   */\n      swap10\n      pop\n        /* \"#utility.yul\":10285:10621   */\n      pop\n        /* \"#utility.yul\":10272:10273   */\n      0x01\n        /* \"#utility.yul\":10269:10270   */\n      dup2\n        /* \"#utility.yul\":10265:10274   */\n      add\n        /* \"#utility.yul\":10260:10274   */\n      swap1\n      pop\n        /* \"#utility.yul\":10225:10621   */\n      jump(tag_443)\n    tag_445:\n        /* \"#utility.yul\":10229:10243   */\n      pop\n        /* \"#utility.yul\":10637:10641   */\n      dup3\n        /* \"#utility.yul\":10630:10641   */\n      swap8\n      pop\n        /* \"#utility.yul\":10657:10660   */\n      dup8\n        /* \"#utility.yul\":10650:10660   */\n      swap6\n      pop\n        /* \"#utility.yul\":9829:10666   */\n      pop\n      pop\n      pop\n      pop\n      pop\n        /* \"#utility.yul\":9695:10666   */\n      swap3\n      swap2\n      pop\n      pop\n      jump\t// out\n        /* \"#utility.yul\":10672:11016   */\n    tag_430:\n        /* \"#utility.yul\":10750:10753   */\n      0x00\n        /* \"#utility.yul\":10778:10817   */\n      tag_450\n        /* \"#utility.yul\":10811:10816   */\n      dup3\n        /* \"#utility.yul\":10778:10817   */\n      tag_451\n      jump\t// in\n    tag_450:\n        /* \"#utility.yul\":10833:10894   */\n      tag_452\n        /* \"#utility.yul\":10887:10893   */\n      dup2\n        /* \"#utility.yul\":10882:10885   */\n      dup6\n        /* \"#utility.yul\":10833:10894   */\n      tag_453\n      jump\t// in\n    tag_452:\n        /* \"#utility.yul\":10826:10894   */\n      swap4\n      pop\n        /* \"#utility.yul\":10903:10955   */\n      tag_454\n        /* \"#utility.yul\":10948:10954   */\n      dup2\n        /* \"#utility.yul\":10943:10946   */\n      dup6\n        /* \"#utility.yul\":10936:10940   */\n      0x20\n        /* \"#utility.yul\":10929:10934   */\n      dup7\n        /* \"#utility.yul\":10925:10941   */\n      add\n        /* \"#utility.yul\":10903:10955   */\n      tag_455\n      jump\t// in\n    tag_454:\n        /* \"#utility.yul\":10980:11009   */\n      tag_456\n        /* \"#utility.yul\":11002:11008   */\n      dup2\n        /* \"#utility.yul\":10980:11009   */\n      tag_457\n      jump\t// in\n    tag_456:\n        /* \"#utility.yul\":10975:10978   */\n      dup5\n        /* \"#utility.yul\":10971:11010   */\n      add\n        /* \"#utility.yul\":10964:11010   */\n      swap2\n      pop\n        /* \"#utility.yul\":10754:11016   */\n      pop\n        /* \"#utility.yul\":10672:11016   */\n      swap3\n      swap2\n      pop\n      pop\n      jump\t// out\n        /* \"#utility.yul\":11022:11386   */\n    tag_458:\n        /* \"#utility.yul\":11110:11113   */\n      0x00\n        /* \"#utility.yul\":11138:11177   */\n      tag_460\n        /* \"#utility.yul\":11171:11176   */\n      dup3\n        /* \"#utility.yul\":11138:11177   */\n      tag_451\n      jump\t// in\n    tag_460:\n        /* \"#utility.yul\":11193:11264   */\n      tag_461\n        /* \"#utility.yul\":11257:11263   */\n      dup2\n        /* \"#utility.yul\":11252:11255   */\n      dup6\n        /* \"#utility.yul\":11193:11264   */\n      tag_462\n      jump\t// in\n    tag_461:\n        /* \"#utility.yul\":11186:11264   */\n      swap4\n      pop\n        /* \"#utility.yul\":11273:11325   */\n      tag_463\n        /* \"#utility.yul\":11318:11324   */\n      dup2\n        /* \"#utility.yul\":11313:11316   */\n      dup6\n        /* \"#utility.yul\":11306:11310   */\n      0x20\n        /* \"#utility.yul\":11299:11304   */\n      dup7\n        /* \"#utility.yul\":11295:11311   */\n      add\n        /* \"#utility.yul\":11273:11325   */\n      tag_455\n      jump\t// in\n    tag_463:\n        /* \"#utility.yul\":11350:11379   */\n      tag_464\n        /* \"#utility.yul\":11372:11378   */\n      dup2\n        /* \"#utility.yul\":11350:11379   */\n      tag_457\n      jump\t// in\n    tag_464:\n        /* \"#utility.yul\":11345:11348   */\n      dup5\n        /* \"#utility.yul\":11341:11380   */\n      add\n        /* \"#utility.yul\":11334:11380   */\n      swap2\n      pop\n        /* \"#utility.yul\":11114:11386   */\n      pop\n        /* \"#utility.yul\":11022:11386   */\n      swap3\n      swap2\n      pop\n      pop\n      jump\t// out\n        /* \"#utility.yul\":11472:12277   */\n    tag_465:\n        /* \"#utility.yul\":11611:11614   */\n      0x00\n        /* \"#utility.yul\":11647:11651   */\n      0x40\n        /* \"#utility.yul\":11642:11645   */\n      dup4\n        /* \"#utility.yul\":11638:11652   */\n      add\n        /* \"#utility.yul\":11741:11745   */\n      0x00\n        /* \"#utility.yul\":11734:11739   */\n      dup4\n        /* \"#utility.yul\":11730:11746   */\n      add\n        /* \"#utility.yul\":11724:11747   */\n      mload\n        /* \"#utility.yul\":11794:11797   */\n      dup5\n        /* \"#utility.yul\":11788:11792   */\n      dup3\n        /* \"#utility.yul\":11784:11798   */\n      sub\n        /* \"#utility.yul\":11777:11781   */\n      0x00\n        /* \"#utility.yul\":11772:11775   */\n      dup7\n        /* \"#utility.yul\":11768:11782   */\n      add\n        /* \"#utility.yul\":11761:11799   */\n      mstore\n        /* \"#utility.yul\":11820:11943   */\n      tag_467\n        /* \"#utility.yul\":11938:11942   */\n      dup3\n        /* \"#utility.yul\":11924:11936   */\n      dup3\n        /* \"#utility.yul\":11820:11943   */\n      tag_435\n      jump\t// in\n    tag_467:\n        /* \"#utility.yul\":11812:11943   */\n      swap2\n      pop\n        /* \"#utility.yul\":11662:11954   */\n      pop\n        /* \"#utility.yul\":12037:12041   */\n      0x20\n        /* \"#utility.yul\":12030:12035   */\n      dup4\n        /* \"#utility.yul\":12026:12042   */\n      add\n        /* \"#utility.yul\":12020:12043   */\n      mload\n        /* \"#utility.yul\":12090:12093   */\n      dup5\n        /* \"#utility.yul\":12084:12088   */\n      dup3\n        /* \"#utility.yul\":12080:12094   */\n      sub\n        /* \"#utility.yul\":12073:12077   */\n      0x20\n        /* \"#utility.yul\":12068:12071   */\n      dup7\n        /* \"#utility.yul\":12064:12078   */\n      add\n        /* \"#utility.yul\":12057:12095   */\n      mstore\n        /* \"#utility.yul\":12116:12239   */\n      tag_468\n        /* \"#utility.yul\":12234:12238   */\n      dup3\n        /* \"#utility.yul\":12220:12232   */\n      dup3\n        /* \"#utility.yul\":12116:12239   */\n      tag_435\n      jump\t// in\n    tag_468:\n        /* \"#utility.yul\":12108:12239   */\n      swap2\n      pop\n        /* \"#utility.yul\":11964:12250   */\n      pop\n        /* \"#utility.yul\":12267:12271   */\n      dup1\n        /* \"#utility.yul\":12260:12271   */\n      swap2\n      pop\n        /* \"#utility.yul\":11616:12277   */\n      pop\n        /* \"#utility.yul\":11472:12277   */\n      swap3\n      swap2\n      pop\n      pop\n      jump\t// out\n        /* \"#utility.yul\":12341:14007   */\n    tag_469:\n        /* \"#utility.yul\":12458:12461   */\n      0x00\n        /* \"#utility.yul\":12494:12498   */\n      0xc0\n        /* \"#utility.yul\":12489:12492   */\n      dup4\n        /* \"#utility.yul\":12485:12499   */\n      add\n        /* \"#utility.yul\":12584:12588   */\n      0x00\n        /* \"#utility.yul\":12577:12582   */\n      dup4\n        /* \"#utility.yul\":12573:12589   */\n      add\n        /* \"#utility.yul\":12567:12590   */\n      mload\n        /* \"#utility.yul\":12637:12640   */\n      dup5\n        /* \"#utility.yul\":12631:12635   */\n      dup3\n        /* \"#utility.yul\":12627:12641   */\n      sub\n        /* \"#utility.yul\":12620:12624   */\n      0x00\n        /* \"#utility.yul\":12615:12618   */\n      dup7\n        /* \"#utility.yul\":12611:12625   */\n      add\n        /* \"#utility.yul\":12604:12642   */\n      mstore\n        /* \"#utility.yul\":12663:12736   */\n      tag_471\n        /* \"#utility.yul\":12731:12735   */\n      dup3\n        /* \"#utility.yul\":12717:12729   */\n      dup3\n        /* \"#utility.yul\":12663:12736   */\n      tag_430\n      jump\t// in\n    tag_471:\n        /* \"#utility.yul\":12655:12736   */\n      swap2\n      pop\n        /* \"#utility.yul\":12509:12747   */\n      pop\n        /* \"#utility.yul\":12830:12834   */\n      0x20\n        /* \"#utility.yul\":12823:12828   */\n      dup4\n        /* \"#utility.yul\":12819:12835   */\n      add\n        /* \"#utility.yul\":12813:12836   */\n      mload\n        /* \"#utility.yul\":12883:12886   */\n      dup5\n        /* \"#utility.yul\":12877:12881   */\n      dup3\n        /* \"#utility.yul\":12873:12887   */\n      sub\n        /* \"#utility.yul\":12866:12870   */\n      0x20\n        /* \"#utility.yul\":12861:12864   */\n      dup7\n        /* \"#utility.yul\":12857:12871   */\n      add\n        /* \"#utility.yul\":12850:12888   */\n      mstore\n        /* \"#utility.yul\":12909:12982   */\n      tag_472\n        /* \"#utility.yul\":12977:12981   */\n      dup3\n        /* \"#utility.yul\":12963:12975   */\n      dup3\n        /* \"#utility.yul\":12909:12982   */\n      tag_430\n      jump\t// in\n    tag_472:\n        /* \"#utility.yul\":12901:12982   */\n      swap2\n      pop\n        /* \"#utility.yul\":12757:12993   */\n      pop\n        /* \"#utility.yul\":13076:13080   */\n      0x40\n        /* \"#utility.yul\":13069:13074   */\n      dup4\n        /* \"#utility.yul\":13065:13081   */\n      add\n        /* \"#utility.yul\":13059:13082   */\n      mload\n        /* \"#utility.yul\":13129:13132   */\n      dup5\n        /* \"#utility.yul\":13123:13127   */\n      dup3\n        /* \"#utility.yul\":13119:13133   */\n      sub\n        /* \"#utility.yul\":13112:13116   */\n      0x40\n        /* \"#utility.yul\":13107:13110   */\n      dup7\n        /* \"#utility.yul\":13103:13117   */\n      add\n        /* \"#utility.yul\":13096:13134   */\n      mstore\n        /* \"#utility.yul\":13155:13228   */\n      tag_473\n        /* \"#utility.yul\":13223:13227   */\n      dup3\n        /* \"#utility.yul\":13209:13221   */\n      dup3\n        /* \"#utility.yul\":13155:13228   */\n      tag_430\n      jump\t// in\n    tag_473:\n        /* \"#utility.yul\":13147:13228   */\n      swap2\n      pop\n        /* \"#utility.yul\":13003:13239   */\n      pop\n        /* \"#utility.yul\":13323:13327   */\n      0x60\n        /* \"#utility.yul\":13316:13321   */\n      dup4\n        /* \"#utility.yul\":13312:13328   */\n      add\n        /* \"#utility.yul\":13306:13329   */\n      mload\n        /* \"#utility.yul\":13376:13379   */\n      dup5\n        /* \"#utility.yul\":13370:13374   */\n      dup3\n        /* \"#utility.yul\":13366:13380   */\n      sub\n        /* \"#utility.yul\":13359:13363   */\n      0x60\n        /* \"#utility.yul\":13354:13357   */\n      dup7\n        /* \"#utility.yul\":13350:13364   */\n      add\n        /* \"#utility.yul\":13343:13381   */\n      mstore\n        /* \"#utility.yul\":13402:13475   */\n      tag_474\n        /* \"#utility.yul\":13470:13474   */\n      dup3\n        /* \"#utility.yul\":13456:13468   */\n      dup3\n        /* \"#utility.yul\":13402:13475   */\n      tag_430\n      jump\t// in\n    tag_474:\n        /* \"#utility.yul\":13394:13475   */\n      swap2\n      pop\n        /* \"#utility.yul\":13249:13486   */\n      pop\n        /* \"#utility.yul\":13570:13574   */\n      0x80\n        /* \"#utility.yul\":13563:13568   */\n      dup4\n        /* \"#utility.yul\":13559:13575   */\n      add\n        /* \"#utility.yul\":13553:13576   */\n      mload\n        /* \"#utility.yul\":13623:13626   */\n      dup5\n        /* \"#utility.yul\":13617:13621   */\n      dup3\n        /* \"#utility.yul\":13613:13627   */\n      sub\n        /* \"#utility.yul\":13606:13610   */\n      0x80\n        /* \"#utility.yul\":13601:13604   */\n      dup7\n        /* \"#utility.yul\":13597:13611   */\n      add\n        /* \"#utility.yul\":13590:13628   */\n      mstore\n        /* \"#utility.yul\":13649:13722   */\n      tag_475\n        /* \"#utility.yul\":13717:13721   */\n      dup3\n        /* \"#utility.yul\":13703:13715   */\n      dup3\n        /* \"#utility.yul\":13649:13722   */\n      tag_430\n      jump\t// in\n    tag_475:\n        /* \"#utility.yul\":13641:13722   */\n      swap2\n      pop\n        /* \"#utility.yul\":13496:13733   */\n      pop\n        /* \"#utility.yul\":13817:13821   */\n      0xa0\n        /* \"#utility.yul\":13810:13815   */\n      dup4\n        /* \"#utility.yul\":13806:13822   */\n      add\n        /* \"#utility.yul\":13800:13823   */\n      mload\n        /* \"#utility.yul\":13870:13873   */\n      dup5\n        /* \"#utility.yul\":13864:13868   */\n      dup3\n        /* \"#utility.yul\":13860:13874   */\n      sub\n        /* \"#utility.yul\":13853:13857   */\n      0xa0\n        /* \"#utility.yul\":13848:13851   */\n      dup7\n        /* \"#utility.yul\":13844:13858   */\n      add\n        /* \"#utility.yul\":13837:13875   */\n      mstore\n        /* \"#utility.yul\":13896:13969   */\n      tag_476\n        /* \"#utility.yul\":13964:13968   */\n      dup3\n        /* \"#utility.yul\":13950:13962   */\n      dup3\n        /* \"#utility.yul\":13896:13969   */\n      tag_430\n      jump\t// in\n    tag_476:\n        /* \"#utility.yul\":13888:13969   */\n      swap2\n      pop\n        /* \"#utility.yul\":13743:13980   */\n      pop\n        /* \"#utility.yul\":13997:14001   */\n      dup1\n        /* \"#utility.yul\":13990:14001   */\n      swap2\n      pop\n        /* \"#utility.yul\":12463:14007   */\n      pop\n        /* \"#utility.yul\":12341:14007   */\n      swap3\n      swap2\n      pop\n      pop\n      jump\t// out\n        /* \"#utility.yul\":14077:16131   */\n    tag_477:\n        /* \"#utility.yul\":14200:14203   */\n      0x00\n        /* \"#utility.yul\":14236:14242   */\n      0x0100\n        /* \"#utility.yul\":14231:14234   */\n      dup4\n        /* \"#utility.yul\":14227:14243   */\n      add\n        /* \"#utility.yul\":14328:14332   */\n      0x00\n        /* \"#utility.yul\":14321:14326   */\n      dup4\n        /* \"#utility.yul\":14317:14333   */\n      add\n        /* \"#utility.yul\":14311:14334   */\n      mload\n        /* \"#utility.yul\":14381:14384   */\n      dup5\n        /* \"#utility.yul\":14375:14379   */\n      dup3\n        /* \"#utility.yul\":14371:14385   */\n      sub\n        /* \"#utility.yul\":14364:14368   */\n      0x00\n        /* \"#utility.yul\":14359:14362   */\n      dup7\n        /* \"#utility.yul\":14355:14369   */\n      add\n        /* \"#utility.yul\":14348:14386   */\n      mstore\n        /* \"#utility.yul\":14407:14480   */\n      tag_479\n        /* \"#utility.yul\":14475:14479   */\n      dup3\n        /* \"#utility.yul\":14461:14473   */\n      dup3\n        /* \"#utility.yul\":14407:14480   */\n      tag_430\n      jump\t// in\n    tag_479:\n        /* \"#utility.yul\":14399:14480   */\n      swap2\n      pop\n        /* \"#utility.yul\":14253:14491   */\n      pop\n        /* \"#utility.yul\":14577:14581   */\n      0x20\n        /* \"#utility.yul\":14570:14575   */\n      dup4\n        /* \"#utility.yul\":14566:14582   */\n      add\n        /* \"#utility.yul\":14560:14583   */\n      mload\n        /* \"#utility.yul\":14630:14633   */\n      dup5\n        /* \"#utility.yul\":14624:14628   */\n      dup3\n        /* \"#utility.yul\":14620:14634   */\n      sub\n        /* \"#utility.yul\":14613:14617   */\n      0x20\n        /* \"#utility.yul\":14608:14611   */\n      dup7\n        /* \"#utility.yul\":14604:14618   */\n      add\n        /* \"#utility.yul\":14597:14635   */\n      mstore\n        /* \"#utility.yul\":14656:14729   */\n      tag_480\n        /* \"#utility.yul\":14724:14728   */\n      dup3\n        /* \"#utility.yul\":14710:14722   */\n      dup3\n        /* \"#utility.yul\":14656:14729   */\n      tag_430\n      jump\t// in\n    tag_480:\n        /* \"#utility.yul\":14648:14729   */\n      swap2\n      pop\n        /* \"#utility.yul\":14501:14740   */\n      pop\n        /* \"#utility.yul\":14829:14833   */\n      0x40\n        /* \"#utility.yul\":14822:14827   */\n      dup4\n        /* \"#utility.yul\":14818:14834   */\n      add\n        /* \"#utility.yul\":14812:14835   */\n      mload\n        /* \"#utility.yul\":14848:14911   */\n      tag_481\n        /* \"#utility.yul\":14905:14909   */\n      0x40\n        /* \"#utility.yul\":14900:14903   */\n      dup7\n        /* \"#utility.yul\":14896:14910   */\n      add\n        /* \"#utility.yul\":14882:14894   */\n      dup3\n        /* \"#utility.yul\":14848:14911   */\n      tag_431\n      jump\t// in\n    tag_481:\n        /* \"#utility.yul\":14750:14921   */\n      pop\n        /* \"#utility.yul\":15008:15012   */\n      0x60\n        /* \"#utility.yul\":15001:15006   */\n      dup4\n        /* \"#utility.yul\":14997:15013   */\n      add\n        /* \"#utility.yul\":14991:15014   */\n      mload\n        /* \"#utility.yul\":15061:15064   */\n      dup5\n        /* \"#utility.yul\":15055:15059   */\n      dup3\n        /* \"#utility.yul\":15051:15065   */\n      sub\n        /* \"#utility.yul\":15044:15048   */\n      0x60\n        /* \"#utility.yul\":15039:15042   */\n      dup7\n        /* \"#utility.yul\":15035:15049   */\n      add\n        /* \"#utility.yul\":15028:15066   */\n      mstore\n        /* \"#utility.yul\":15087:15160   */\n      tag_482\n        /* \"#utility.yul\":15155:15159   */\n      dup3\n        /* \"#utility.yul\":15141:15153   */\n      dup3\n        /* \"#utility.yul\":15087:15160   */\n      tag_430\n      jump\t// in\n    tag_482:\n        /* \"#utility.yul\":15079:15160   */\n      swap2\n      pop\n        /* \"#utility.yul\":14931:15171   */\n      pop\n        /* \"#utility.yul\":15259:15263   */\n      0x80\n        /* \"#utility.yul\":15252:15257   */\n      dup4\n        /* \"#utility.yul\":15248:15264   */\n      add\n        /* \"#utility.yul\":15242:15265   */\n      mload\n        /* \"#utility.yul\":15312:15315   */\n      dup5\n        /* \"#utility.yul\":15306:15310   */\n      dup3\n        /* \"#utility.yul\":15302:15316   */\n      sub\n        /* \"#utility.yul\":15295:15299   */\n      0x80\n        /* \"#utility.yul\":15290:15293   */\n      dup7\n        /* \"#utility.yul\":15286:15300   */\n      add\n        /* \"#utility.yul\":15279:15317   */\n      mstore\n        /* \"#utility.yul\":15338:15411   */\n      tag_483\n        /* \"#utility.yul\":15406:15410   */\n      dup3\n        /* \"#utility.yul\":15392:15404   */\n      dup3\n        /* \"#utility.yul\":15338:15411   */\n      tag_430\n      jump\t// in\n    tag_483:\n        /* \"#utility.yul\":15330:15411   */\n      swap2\n      pop\n        /* \"#utility.yul\":15181:15422   */\n      pop\n        /* \"#utility.yul\":15508:15512   */\n      0xa0\n        /* \"#utility.yul\":15501:15506   */\n      dup4\n        /* \"#utility.yul\":15497:15513   */\n      add\n        /* \"#utility.yul\":15491:15514   */\n      mload\n        /* \"#utility.yul\":15561:15564   */\n      dup5\n        /* \"#utility.yul\":15555:15559   */\n      dup3\n        /* \"#utility.yul\":15551:15565   */\n      sub\n        /* \"#utility.yul\":15544:15548   */\n      0xa0\n        /* \"#utility.yul\":15539:15542   */\n      dup7\n        /* \"#utility.yul\":15535:15549   */\n      add\n        /* \"#utility.yul\":15528:15566   */\n      mstore\n        /* \"#utility.yul\":15587:15660   */\n      tag_484\n        /* \"#utility.yul\":15655:15659   */\n      dup3\n        /* \"#utility.yul\":15641:15653   */\n      dup3\n        /* \"#utility.yul\":15587:15660   */\n      tag_430\n      jump\t// in\n    tag_484:\n        /* \"#utility.yul\":15579:15660   */\n      swap2\n      pop\n        /* \"#utility.yul\":15432:15671   */\n      pop\n        /* \"#utility.yul\":15761:15765   */\n      0xc0\n        /* \"#utility.yul\":15754:15759   */\n      dup4\n        /* \"#utility.yul\":15750:15766   */\n      add\n        /* \"#utility.yul\":15744:15767   */\n      mload\n        /* \"#utility.yul\":15814:15817   */\n      dup5\n        /* \"#utility.yul\":15808:15812   */\n      dup3\n        /* \"#utility.yul\":15804:15818   */\n      sub\n        /* \"#utility.yul\":15797:15801   */\n      0xc0\n        /* \"#utility.yul\":15792:15795   */\n      dup7\n        /* \"#utility.yul\":15788:15802   */\n      add\n        /* \"#utility.yul\":15781:15819   */\n      mstore\n        /* \"#utility.yul\":15840:15913   */\n      tag_485\n        /* \"#utility.yul\":15908:15912   */\n      dup3\n        /* \"#utility.yul\":15894:15906   */\n      dup3\n        /* \"#utility.yul\":15840:15913   */\n      tag_430\n      jump\t// in\n    tag_485:\n        /* \"#utility.yul\":15832:15913   */\n      swap2\n      pop\n        /* \"#utility.yul\":15681:15924   */\n      pop\n        /* \"#utility.yul\":16012:16016   */\n      0xe0\n        /* \"#utility.yul\":16005:16010   */\n      dup4\n        /* \"#utility.yul\":16001:16017   */\n      add\n        /* \"#utility.yul\":15995:16018   */\n      mload\n        /* \"#utility.yul\":16031:16094   */\n      tag_486\n        /* \"#utility.yul\":16088:16092   */\n      0xe0\n        /* \"#utility.yul\":16083:16086   */\n      dup7\n        /* \"#utility.yul\":16079:16093   */\n      add\n        /* \"#utility.yul\":16065:16077   */\n      dup3\n        /* \"#utility.yul\":16031:16094   */\n      tag_487\n      jump\t// in\n    tag_486:\n        /* \"#utility.yul\":15934:16104   */\n      pop\n        /* \"#utility.yul\":16121:16125   */\n      dup1\n        /* \"#utility.yul\":16114:16125   */\n      swap2\n      pop\n        /* \"#utility.yul\":14205:16131   */\n      pop\n        /* \"#utility.yul\":14077:16131   */\n      swap3\n      swap2\n      pop\n      pop\n      jump\t// out\n        /* \"#utility.yul\":16189:17286   */\n    tag_488:\n        /* \"#utility.yul\":16300:16303   */\n      0x00\n        /* \"#utility.yul\":16336:16340   */\n      0x60\n        /* \"#utility.yul\":16331:16334   */\n      dup4\n        /* \"#utility.yul\":16327:16341   */\n      add\n        /* \"#utility.yul\":16439:16443   */\n      0x00\n        /* \"#utility.yul\":16432:16437   */\n      dup4\n        /* \"#utility.yul\":16428:16444   */\n      add\n        /* \"#utility.yul\":16422:16445   */\n      mload\n        /* \"#utility.yul\":16492:16495   */\n      dup5\n        /* \"#utility.yul\":16486:16490   */\n      dup3\n        /* \"#utility.yul\":16482:16496   */\n      sub\n        /* \"#utility.yul\":16475:16479   */\n      0x00\n        /* \"#utility.yul\":16470:16473   */\n      dup7\n        /* \"#utility.yul\":16466:16480   */\n      add\n        /* \"#utility.yul\":16459:16497   */\n      mstore\n        /* \"#utility.yul\":16518:16641   */\n      tag_490\n        /* \"#utility.yul\":16636:16640   */\n      dup3\n        /* \"#utility.yul\":16622:16634   */\n      dup3\n        /* \"#utility.yul\":16518:16641   */\n      tag_435\n      jump\t// in\n    tag_490:\n        /* \"#utility.yul\":16510:16641   */\n      swap2\n      pop\n        /* \"#utility.yul\":16351:16652   */\n      pop\n        /* \"#utility.yul\":16739:16743   */\n      0x20\n        /* \"#utility.yul\":16732:16737   */\n      dup4\n        /* \"#utility.yul\":16728:16744   */\n      add\n        /* \"#utility.yul\":16722:16745   */\n      mload\n        /* \"#utility.yul\":16792:16795   */\n      dup5\n        /* \"#utility.yul\":16786:16790   */\n      dup3\n        /* \"#utility.yul\":16782:16796   */\n      sub\n        /* \"#utility.yul\":16775:16779   */\n      0x20\n        /* \"#utility.yul\":16770:16773   */\n      dup7\n        /* \"#utility.yul\":16766:16780   */\n      add\n        /* \"#utility.yul\":16759:16797   */\n      mstore\n        /* \"#utility.yul\":16818:16941   */\n      tag_491\n        /* \"#utility.yul\":16936:16940   */\n      dup3\n        /* \"#utility.yul\":16922:16934   */\n      dup3\n        /* \"#utility.yul\":16818:16941   */\n      tag_435\n      jump\t// in\n    tag_491:\n        /* \"#utility.yul\":16810:16941   */\n      swap2\n      pop\n        /* \"#utility.yul\":16662:16952   */\n      pop\n        /* \"#utility.yul\":17046:17050   */\n      0x40\n        /* \"#utility.yul\":17039:17044   */\n      dup4\n        /* \"#utility.yul\":17035:17051   */\n      add\n        /* \"#utility.yul\":17029:17052   */\n      mload\n        /* \"#utility.yul\":17099:17102   */\n      dup5\n        /* \"#utility.yul\":17093:17097   */\n      dup3\n        /* \"#utility.yul\":17089:17103   */\n      sub\n        /* \"#utility.yul\":17082:17086   */\n      0x40\n        /* \"#utility.yul\":17077:17080   */\n      dup7\n        /* \"#utility.yul\":17073:17087   */\n      add\n        /* \"#utility.yul\":17066:17104   */\n      mstore\n        /* \"#utility.yul\":17125:17248   */\n      tag_492\n        /* \"#utility.yul\":17243:17247   */\n      dup3\n        /* \"#utility.yul\":17229:17241   */\n      dup3\n        /* \"#utility.yul\":17125:17248   */\n      tag_435\n      jump\t// in\n    tag_492:\n        /* \"#utility.yul\":17117:17248   */\n      swap2\n      pop\n        /* \"#utility.yul\":16962:17259   */\n      pop\n        /* \"#utility.yul\":17276:17280   */\n      dup1\n        /* \"#utility.yul\":17269:17280   */\n      swap2\n      pop\n        /* \"#utility.yul\":16305:17286   */\n      pop\n        /* \"#utility.yul\":16189:17286   */\n      swap3\n      swap2\n      pop\n      pop\n      jump\t// out\n        /* \"#utility.yul\":17292:17400   */\n    tag_487:\n        /* \"#utility.yul\":17369:17393   */\n      tag_494\n        /* \"#utility.yul\":17387:17392   */\n      dup2\n        /* \"#utility.yul\":17369:17393   */\n      tag_495\n      jump\t// in\n    tag_494:\n        /* \"#utility.yul\":17364:17367   */\n      dup3\n        /* \"#utility.yul\":17357:17394   */\n      mstore\n        /* \"#utility.yul\":17292:17400   */\n      pop\n      pop\n      jump\t// out\n        /* \"#utility.yul\":17406:17524   */\n    tag_496:\n        /* \"#utility.yul\":17493:17517   */\n      tag_498\n        /* \"#utility.yul\":17511:17516   */\n      dup2\n        /* \"#utility.yul\":17493:17517   */\n      tag_495\n      jump\t// in\n    tag_498:\n        /* \"#utility.yul\":17488:17491   */\n      dup3\n        /* \"#utility.yul\":17481:17518   */\n      mstore\n        /* \"#utility.yul\":17406:17524   */\n      pop\n      pop\n      jump\t// out\n        /* \"#utility.yul\":17530:18649   */\n    tag_56:\n        /* \"#utility.yul\":17835:17839   */\n      0x00\n        /* \"#utility.yul\":17873:17876   */\n      0xa0\n        /* \"#utility.yul\":17862:17871   */\n      dup3\n        /* \"#utility.yul\":17858:17877   */\n      add\n        /* \"#utility.yul\":17850:17877   */\n      swap1\n      pop\n        /* \"#utility.yul\":17923:17932   */\n      dup2\n        /* \"#utility.yul\":17917:17921   */\n      dup2\n        /* \"#utility.yul\":17913:17933   */\n      sub\n        /* \"#utility.yul\":17909:17910   */\n      0x00\n        /* \"#utility.yul\":17898:17907   */\n      dup4\n        /* \"#utility.yul\":17894:17911   */\n      add\n        /* \"#utility.yul\":17887:17934   */\n      mstore\n        /* \"#utility.yul\":17951:18029   */\n      tag_500\n        /* \"#utility.yul\":18024:18028   */\n      dup2\n        /* \"#utility.yul\":18015:18021   */\n      dup9\n        /* \"#utility.yul\":17951:18029   */\n      tag_458\n      jump\t// in\n    tag_500:\n        /* \"#utility.yul\":17943:18029   */\n      swap1\n      pop\n        /* \"#utility.yul\":18076:18085   */\n      dup2\n        /* \"#utility.yul\":18070:18074   */\n      dup2\n        /* \"#utility.yul\":18066:18086   */\n      sub\n        /* \"#utility.yul\":18061:18063   */\n      0x20\n        /* \"#utility.yul\":18050:18059   */\n      dup4\n        /* \"#utility.yul\":18046:18064   */\n      add\n        /* \"#utility.yul\":18039:18087   */\n      mstore\n        /* \"#utility.yul\":18104:18182   */\n      tag_501\n        /* \"#utility.yul\":18177:18181   */\n      dup2\n        /* \"#utility.yul\":18168:18174   */\n      dup8\n        /* \"#utility.yul\":18104:18182   */\n      tag_458\n      jump\t// in\n    tag_501:\n        /* \"#utility.yul\":18096:18182   */\n      swap1\n      pop\n        /* \"#utility.yul\":18229:18238   */\n      dup2\n        /* \"#utility.yul\":18223:18227   */\n      dup2\n        /* \"#utility.yul\":18219:18239   */\n      sub\n        /* \"#utility.yul\":18214:18216   */\n      0x40\n        /* \"#utility.yul\":18203:18212   */\n      dup4\n        /* \"#utility.yul\":18199:18217   */\n      add\n        /* \"#utility.yul\":18192:18240   */\n      mstore\n        /* \"#utility.yul\":18257:18335   */\n      tag_502\n        /* \"#utility.yul\":18330:18334   */\n      dup2\n        /* \"#utility.yul\":18321:18327   */\n      dup7\n        /* \"#utility.yul\":18257:18335   */\n      tag_458\n      jump\t// in\n    tag_502:\n        /* \"#utility.yul\":18249:18335   */\n      swap1\n      pop\n        /* \"#utility.yul\":18382:18391   */\n      dup2\n        /* \"#utility.yul\":18376:18380   */\n      dup2\n        /* \"#utility.yul\":18372:18392   */\n      sub\n        /* \"#utility.yul\":18367:18369   */\n      0x60\n        /* \"#utility.yul\":18356:18365   */\n      dup4\n        /* \"#utility.yul\":18352:18370   */\n      add\n        /* \"#utility.yul\":18345:18393   */\n      mstore\n        /* \"#utility.yul\":18410:18488   */\n      tag_503\n        /* \"#utility.yul\":18483:18487   */\n      dup2\n        /* \"#utility.yul\":18474:18480   */\n      dup6\n        /* \"#utility.yul\":18410:18488   */\n      tag_458\n      jump\t// in\n    tag_503:\n        /* \"#utility.yul\":18402:18488   */\n      swap1\n      pop\n        /* \"#utility.yul\":18536:18545   */\n      dup2\n        /* \"#utility.yul\":18530:18534   */\n      dup2\n        /* \"#utility.yul\":18526:18546   */\n      sub\n        /* \"#utility.yul\":18520:18523   */\n      0x80\n        /* \"#utility.yul\":18509:18518   */\n      dup4\n        /* \"#utility.yul\":18505:18524   */\n      add\n        /* \"#utility.yul\":18498:18547   */\n      mstore\n        /* \"#utility.yul\":18564:18642   */\n      tag_504\n        /* \"#utility.yul\":18637:18641   */\n      dup2\n        /* \"#utility.yul\":18628:18634   */\n      dup5\n        /* \"#utility.yul\":18564:18642   */\n      tag_458\n      jump\t// in\n    tag_504:\n        /* \"#utility.yul\":18556:18642   */\n      swap1\n      pop\n        /* \"#utility.yul\":17530:18649   */\n      swap7\n      swap6\n      pop\n      pop\n      pop\n      pop\n      pop\n      pop\n      jump\t// out\n        /* \"#utility.yul\":18655:19840   */\n    tag_48:\n        /* \"#utility.yul\":19046:19050   */\n      0x00\n        /* \"#utility.yul\":19084:19087   */\n      0x80\n        /* \"#utility.yul\":19073:19082   */\n      dup3\n        /* \"#utility.yul\":19069:19088   */\n      add\n        /* \"#utility.yul\":19061:19088   */\n      swap1\n      pop\n        /* \"#utility.yul\":19134:19143   */\n      dup2\n        /* \"#utility.yul\":19128:19132   */\n      dup2\n        /* \"#utility.yul\":19124:19144   */\n      sub\n        /* \"#utility.yul\":19120:19121   */\n      0x00\n        /* \"#utility.yul\":19109:19118   */\n      dup4\n        /* \"#utility.yul\":19105:19122   */\n      add\n        /* \"#utility.yul\":19098:19145   */\n      mstore\n        /* \"#utility.yul\":19162:19274   */\n      tag_506\n        /* \"#utility.yul\":19269:19273   */\n      dup2\n        /* \"#utility.yul\":19260:19266   */\n      dup8\n        /* \"#utility.yul\":19162:19274   */\n      tag_477\n      jump\t// in\n    tag_506:\n        /* \"#utility.yul\":19154:19274   */\n      swap1\n      pop\n        /* \"#utility.yul\":19321:19330   */\n      dup2\n        /* \"#utility.yul\":19315:19319   */\n      dup2\n        /* \"#utility.yul\":19311:19331   */\n      sub\n        /* \"#utility.yul\":19306:19308   */\n      0x20\n        /* \"#utility.yul\":19295:19304   */\n      dup4\n        /* \"#utility.yul\":19291:19309   */\n      add\n        /* \"#utility.yul\":19284:19332   */\n      mstore\n        /* \"#utility.yul\":19349:19455   */\n      tag_507\n        /* \"#utility.yul\":19450:19454   */\n      dup2\n        /* \"#utility.yul\":19441:19447   */\n      dup7\n        /* \"#utility.yul\":19349:19455   */\n      tag_469\n      jump\t// in\n    tag_507:\n        /* \"#utility.yul\":19341:19455   */\n      swap1\n      pop\n        /* \"#utility.yul\":19502:19511   */\n      dup2\n        /* \"#utility.yul\":19496:19500   */\n      dup2\n        /* \"#utility.yul\":19492:19512   */\n      sub\n        /* \"#utility.yul\":19487:19489   */\n      0x40\n        /* \"#utility.yul\":19476:19485   */\n      dup4\n        /* \"#utility.yul\":19472:19490   */\n      add\n        /* \"#utility.yul\":19465:19513   */\n      mstore\n        /* \"#utility.yul\":19530:19630   */\n      tag_508\n        /* \"#utility.yul\":19625:19629   */\n      dup2\n        /* \"#utility.yul\":19616:19622   */\n      dup6\n        /* \"#utility.yul\":19530:19630   */\n      tag_488\n      jump\t// in\n    tag_508:\n        /* \"#utility.yul\":19522:19630   */\n      swap1\n      pop\n        /* \"#utility.yul\":19677:19686   */\n      dup2\n        /* \"#utility.yul\":19671:19675   */\n      dup2\n        /* \"#utility.yul\":19667:19687   */\n      sub\n        /* \"#utility.yul\":19662:19664   */\n      0x60\n        /* \"#utility.yul\":19651:19660   */\n      dup4\n        /* \"#utility.yul\":19647:19665   */\n      add\n        /* \"#utility.yul\":19640:19688   */\n      mstore\n        /* \"#utility.yul\":19705:19833   */\n      tag_509\n        /* \"#utility.yul\":19828:19832   */\n      dup2\n        /* \"#utility.yul\":19819:19825   */\n      dup5\n        /* \"#utility.yul\":19705:19833   */\n      tag_465\n      jump\t// in\n    tag_509:\n        /* \"#utility.yul\":19697:19833   */\n      swap1\n      pop\n        /* \"#utility.yul\":18655:19840   */\n      swap6\n      swap5\n      pop\n      pop\n      pop\n      pop\n      pop\n      jump\t// out\n        /* \"#utility.yul\":19846:20068   */\n    tag_25:\n        /* \"#utility.yul\":19939:19943   */\n      0x00\n        /* \"#utility.yul\":19977:19979   */\n      0x20\n        /* \"#utility.yul\":19966:19975   */\n      dup3\n        /* \"#utility.yul\":19962:19980   */\n      add\n        /* \"#utility.yul\":19954:19980   */\n      swap1\n      pop\n        /* \"#utility.yul\":19990:20061   */\n      tag_511\n        /* \"#utility.yul\":20058:20059   */\n      0x00\n        /* \"#utility.yul\":20047:20056   */\n      dup4\n        /* \"#utility.yul\":20043:20060   */\n      add\n        /* \"#utility.yul\":20034:20040   */\n      dup5\n        /* \"#utility.yul\":19990:20061   */\n      tag_496\n      jump\t// in\n    tag_511:\n        /* \"#utility.yul\":19846:20068   */\n      swap3\n      swap2\n      pop\n      pop\n      jump\t// out\n        /* \"#utility.yul\":20074:20203   */\n    tag_318:\n        /* \"#utility.yul\":20108:20114   */\n      0x00\n        /* \"#utility.yul\":20135:20155   */\n      tag_513\n      tag_514\n      jump\t// in\n    tag_513:\n        /* \"#utility.yul\":20125:20155   */\n      swap1\n      pop\n        /* \"#utility.yul\":20164:20197   */\n      tag_515\n        /* \"#utility.yul\":20192:20196   */\n      dup3\n        /* \"#utility.yul\":20184:20190   */\n      dup3\n        /* \"#utility.yul\":20164:20197   */\n      tag_516\n      jump\t// in\n    tag_515:\n        /* \"#utility.yul\":20074:20203   */\n      swap2\n      swap1\n      pop\n      jump\t// out\n        /* \"#utility.yul\":20209:20284   */\n    tag_514:\n        /* \"#utility.yul\":20242:20248   */\n      0x00\n        /* \"#utility.yul\":20275:20277   */\n      0x40\n        /* \"#utility.yul\":20269:20278   */\n      mload\n        /* \"#utility.yul\":20259:20278   */\n      swap1\n      pop\n        /* \"#utility.yul\":20209:20284   */\n      swap1\n      jump\t// out\n        /* \"#utility.yul\":20290:20611   */\n    tag_317:\n        /* \"#utility.yul\":20377:20381   */\n      0x00\n        /* \"#utility.yul\":20467:20485   */\n      0xffffffffffffffff\n        /* \"#utility.yul\":20459:20465   */\n      dup3\n        /* \"#utility.yul\":20456:20486   */\n      gt\n        /* \"#utility.yul\":20453:20509   */\n      iszero\n      tag_519\n      jumpi\n        /* \"#utility.yul\":20489:20507   */\n      tag_520\n      tag_521\n      jump\t// in\n    tag_520:\n        /* \"#utility.yul\":20453:20509   */\n    tag_519:\n        /* \"#utility.yul\":20539:20543   */\n      0x20\n        /* \"#utility.yul\":20531:20537   */\n      dup3\n        /* \"#utility.yul\":20527:20544   */\n      mul\n        /* \"#utility.yul\":20519:20544   */\n      swap1\n      pop\n        /* \"#utility.yul\":20599:20603   */\n      0x20\n        /* \"#utility.yul\":20593:20597   */\n      dup2\n        /* \"#utility.yul\":20589:20604   */\n      add\n        /* \"#utility.yul\":20581:20604   */\n      swap1\n      pop\n        /* \"#utility.yul\":20290:20611   */\n      swap2\n      swap1\n      pop\n      jump\t// out\n        /* \"#utility.yul\":20617:20925   */\n    tag_334:\n        /* \"#utility.yul\":20679:20683   */\n      0x00\n        /* \"#utility.yul\":20769:20787   */\n      0xffffffffffffffff\n        /* \"#utility.yul\":20761:20767   */\n      dup3\n        /* \"#utility.yul\":20758:20788   */\n      gt\n        /* \"#utility.yul\":20755:20811   */\n      iszero\n      tag_523\n      jumpi\n        /* \"#utility.yul\":20791:20809   */\n      tag_524\n      tag_521\n      jump\t// in\n    tag_524:\n        /* \"#utility.yul\":20755:20811   */\n    tag_523:\n        /* \"#utility.yul\":20829:20858   */\n      tag_525\n        /* \"#utility.yul\":20851:20857   */\n      dup3\n        /* \"#utility.yul\":20829:20858   */\n      tag_457\n      jump\t// in\n    tag_525:\n        /* \"#utility.yul\":20821:20858   */\n      swap1\n      pop\n        /* \"#utility.yul\":20913:20917   */\n      0x20\n        /* \"#utility.yul\":20907:20911   */\n      dup2\n        /* \"#utility.yul\":20903:20918   */\n      add\n        /* \"#utility.yul\":20895:20918   */\n      swap1\n      pop\n        /* \"#utility.yul\":20617:20925   */\n      swap2\n      swap1\n      pop\n      jump\t// out\n        /* \"#utility.yul\":20931:21073   */\n    tag_442:\n        /* \"#utility.yul\":21008:21012   */\n      0x00\n        /* \"#utility.yul\":21031:21034   */\n      dup2\n        /* \"#utility.yul\":21023:21034   */\n      swap1\n      pop\n        /* \"#utility.yul\":21061:21065   */\n      0x20\n        /* \"#utility.yul\":21056:21059   */\n      dup3\n        /* \"#utility.yul\":21052:21066   */\n      add\n        /* \"#utility.yul\":21044:21066   */\n      swap1\n      pop\n        /* \"#utility.yul\":20931:21073   */\n      swap2\n      swap1\n      pop\n      jump\t// out\n        /* \"#utility.yul\":21079:21203   */\n    tag_438:\n        /* \"#utility.yul\":21156:21162   */\n      0x00\n        /* \"#utility.yul\":21190:21195   */\n      dup2\n        /* \"#utility.yul\":21184:21196   */\n      mload\n        /* \"#utility.yul\":21174:21196   */\n      swap1\n      pop\n        /* \"#utility.yul\":21079:21203   */\n      swap2\n      swap1\n      pop\n      jump\t// out\n        /* \"#utility.yul\":21209:21308   */\n    tag_451:\n        /* \"#utility.yul\":21261:21267   */\n      0x00\n        /* \"#utility.yul\":21295:21300   */\n      dup2\n        /* \"#utility.yul\":21289:21301   */\n      mload\n        /* \"#utility.yul\":21279:21301   */\n      swap1\n      pop\n        /* \"#utility.yul\":21209:21308   */\n      swap2\n      swap1\n      pop\n      jump\t// out\n        /* \"#utility.yul\":21314:21437   */\n    tag_448:\n        /* \"#utility.yul\":21394:21398   */\n      0x00\n        /* \"#utility.yul\":21426:21430   */\n      0x20\n        /* \"#utility.yul\":21421:21424   */\n      dup3\n        /* \"#utility.yul\":21417:21431   */\n      add\n        /* \"#utility.yul\":21409:21431   */\n      swap1\n      pop\n        /* \"#utility.yul\":21314:21437   */\n      swap2\n      swap1\n      pop\n      jump\t// out\n        /* \"#utility.yul\":21443:21627   */\n    tag_440:\n        /* \"#utility.yul\":21542:21553   */\n      0x00\n        /* \"#utility.yul\":21576:21582   */\n      dup3\n        /* \"#utility.yul\":21571:21574   */\n      dup3\n        /* \"#utility.yul\":21564:21583   */\n      mstore\n        /* \"#utility.yul\":21616:21620   */\n      0x20\n        /* \"#utility.yul\":21611:21614   */\n      dup3\n        /* \"#utility.yul\":21607:21621   */\n      add\n        /* \"#utility.yul\":21592:21621   */\n      swap1\n      pop\n        /* \"#utility.yul\":21443:21627   */\n      swap3\n      swap2\n      pop\n      pop\n      jump\t// out\n        /* \"#utility.yul\":21633:21792   */\n    tag_453:\n        /* \"#utility.yul\":21707:21718   */\n      0x00\n        /* \"#utility.yul\":21741:21747   */\n      dup3\n        /* \"#utility.yul\":21736:21739   */\n      dup3\n        /* \"#utility.yul\":21729:21748   */\n      mstore\n        /* \"#utility.yul\":21781:21785   */\n      0x20\n        /* \"#utility.yul\":21776:21779   */\n      dup3\n        /* \"#utility.yul\":21772:21786   */\n      add\n        /* \"#utility.yul\":21757:21786   */\n      swap1\n      pop\n        /* \"#utility.yul\":21633:21792   */\n      swap3\n      swap2\n      pop\n      pop\n      jump\t// out\n        /* \"#utility.yul\":21798:21967   */\n    tag_462:\n        /* \"#utility.yul\":21882:21893   */\n      0x00\n        /* \"#utility.yul\":21916:21922   */\n      dup3\n        /* \"#utility.yul\":21911:21914   */\n      dup3\n        /* \"#utility.yul\":21904:21923   */\n      mstore\n        /* \"#utility.yul\":21956:21960   */\n      0x20\n        /* \"#utility.yul\":21951:21954   */\n      dup3\n        /* \"#utility.yul\":21947:21961   */\n      add\n        /* \"#utility.yul\":21932:21961   */\n      swap1\n      pop\n        /* \"#utility.yul\":21798:21967   */\n      swap3\n      swap2\n      pop\n      pop\n      jump\t// out\n        /* \"#utility.yul\":21973:22069   */\n    tag_434:\n        /* \"#utility.yul\":22010:22017   */\n      0x00\n        /* \"#utility.yul\":22039:22063   */\n      tag_534\n        /* \"#utility.yul\":22057:22062   */\n      dup3\n        /* \"#utility.yul\":22039:22063   */\n      tag_535\n      jump\t// in\n    tag_534:\n        /* \"#utility.yul\":22028:22063   */\n      swap1\n      pop\n        /* \"#utility.yul\":21973:22069   */\n      swap2\n      swap1\n      pop\n      jump\t// out\n        /* \"#utility.yul\":22075:22201   */\n    tag_535:\n        /* \"#utility.yul\":22112:22119   */\n      0x00\n        /* \"#utility.yul\":22152:22194   */\n      0xffffffffffffffffffffffffffffffffffffffff\n        /* \"#utility.yul\":22145:22150   */\n      dup3\n        /* \"#utility.yul\":22141:22195   */\n      and\n        /* \"#utility.yul\":22130:22195   */\n      swap1\n      pop\n        /* \"#utility.yul\":22075:22201   */\n      swap2\n      swap1\n      pop\n      jump\t// out\n        /* \"#utility.yul\":22207:22284   */\n    tag_495:\n        /* \"#utility.yul\":22244:22251   */\n      0x00\n        /* \"#utility.yul\":22273:22278   */\n      dup2\n        /* \"#utility.yul\":22262:22278   */\n      swap1\n      pop\n        /* \"#utility.yul\":22207:22284   */\n      swap2\n      swap1\n      pop\n      jump\t// out\n        /* \"#utility.yul\":22290:22444   */\n    tag_339:\n        /* \"#utility.yul\":22374:22380   */\n      dup3\n        /* \"#utility.yul\":22369:22372   */\n      dup2\n        /* \"#utility.yul\":22364:22367   */\n      dup4\n        /* \"#utility.yul\":22351:22381   */\n      calldatacopy\n        /* \"#utility.yul\":22436:22437   */\n      0x00\n        /* \"#utility.yul\":22427:22433   */\n      dup4\n        /* \"#utility.yul\":22422:22425   */\n      dup4\n        /* \"#utility.yul\":22418:22434   */\n      add\n        /* \"#utility.yul\":22411:22438   */\n      mstore\n        /* \"#utility.yul\":22290:22444   */\n      pop\n      pop\n      pop\n      jump\t// out\n        /* \"#utility.yul\":22450:22757   */\n    tag_455:\n        /* \"#utility.yul\":22518:22519   */\n      0x00\n        /* \"#utility.yul\":22528:22641   */\n    tag_540:\n        /* \"#utility.yul\":22542:22548   */\n      dup4\n        /* \"#utility.yul\":22539:22540   */\n      dup2\n        /* \"#utility.yul\":22536:22549   */\n      lt\n        /* \"#utility.yul\":22528:22641   */\n      iszero\n      tag_542\n      jumpi\n        /* \"#utility.yul\":22627:22628   */\n      dup1\n        /* \"#utility.yul\":22622:22625   */\n      dup3\n        /* \"#utility.yul\":22618:22629   */\n      add\n        /* \"#utility.yul\":22612:22630   */\n      mload\n        /* \"#utility.yul\":22608:22609   */\n      dup2\n        /* \"#utility.yul\":22603:22606   */\n      dup5\n        /* \"#utility.yul\":22599:22610   */\n      add\n        /* \"#utility.yul\":22592:22631   */\n      mstore\n        /* \"#utility.yul\":22564:22566   */\n      0x20\n        /* \"#utility.yul\":22561:22562   */\n      dup2\n        /* \"#utility.yul\":22557:22567   */\n      add\n        /* \"#utility.yul\":22552:22567   */\n      swap1\n      pop\n        /* \"#utility.yul\":22528:22641   */\n      jump(tag_540)\n    tag_542:\n        /* \"#utility.yul\":22659:22665   */\n      dup4\n        /* \"#utility.yul\":22656:22657   */\n      dup2\n        /* \"#utility.yul\":22653:22666   */\n      gt\n        /* \"#utility.yul\":22650:22751   */\n      iszero\n      tag_543\n      jumpi\n        /* \"#utility.yul\":22739:22740   */\n      0x00\n        /* \"#utility.yul\":22730:22736   */\n      dup5\n        /* \"#utility.yul\":22725:22728   */\n      dup5\n        /* \"#utility.yul\":22721:22737   */\n      add\n        /* \"#utility.yul\":22714:22741   */\n      mstore\n        /* \"#utility.yul\":22650:22751   */\n    tag_543:\n        /* \"#utility.yul\":22499:22757   */\n      pop\n        /* \"#utility.yul\":22450:22757   */\n      pop\n      pop\n      pop\n      jump\t// out\n        /* \"#utility.yul\":22763:23083   */\n    tag_113:\n        /* \"#utility.yul\":22807:22813   */\n      0x00\n        /* \"#utility.yul\":22844:22845   */\n      0x02\n        /* \"#utility.yul\":22838:22842   */\n      dup3\n        /* \"#utility.yul\":22834:22846   */\n      div\n        /* \"#utility.yul\":22824:22846   */\n      swap1\n      pop\n        /* \"#utility.yul\":22891:22892   */\n      0x01\n        /* \"#utility.yul\":22885:22889   */\n      dup3\n        /* \"#utility.yul\":22881:22893   */\n      and\n        /* \"#utility.yul\":22912:22930   */\n      dup1\n        /* \"#utility.yul\":22902:22983   */\n      tag_545\n      jumpi\n        /* \"#utility.yul\":22968:22972   */\n      0x7f\n        /* \"#utility.yul\":22960:22966   */\n      dup3\n        /* \"#utility.yul\":22956:22973   */\n      and\n        /* \"#utility.yul\":22946:22973   */\n      swap2\n      pop\n        /* \"#utility.yul\":22902:22983   */\n    tag_545:\n        /* \"#utility.yul\":23030:23032   */\n      0x20\n        /* \"#utility.yul\":23022:23028   */\n      dup3\n        /* \"#utility.yul\":23019:23033   */\n      lt\n        /* \"#utility.yul\":22999:23017   */\n      dup2\n        /* \"#utility.yul\":22996:23034   */\n      eq\n        /* \"#utility.yul\":22993:23077   */\n      iszero\n      tag_546\n      jumpi\n        /* \"#utility.yul\":23049:23067   */\n      tag_547\n      tag_548\n      jump\t// in\n    tag_547:\n        /* \"#utility.yul\":22993:23077   */\n    tag_546:\n        /* \"#utility.yul\":22814:23083   */\n      pop\n        /* \"#utility.yul\":22763:23083   */\n      swap2\n      swap1\n      pop\n      jump\t// out\n        /* \"#utility.yul\":23089:23370   */\n    tag_516:\n        /* \"#utility.yul\":23172:23199   */\n      tag_550\n        /* \"#utility.yul\":23194:23198   */\n      dup3\n        /* \"#utility.yul\":23172:23199   */\n      tag_457\n      jump\t// in\n    tag_550:\n        /* \"#utility.yul\":23164:23170   */\n      dup2\n        /* \"#utility.yul\":23160:23200   */\n      add\n        /* \"#utility.yul\":23302:23308   */\n      dup2\n        /* \"#utility.yul\":23290:23300   */\n      dup2\n        /* \"#utility.yul\":23287:23309   */\n      lt\n        /* \"#utility.yul\":23266:23284   */\n      0xffffffffffffffff\n        /* \"#utility.yul\":23254:23264   */\n      dup3\n        /* \"#utility.yul\":23251:23285   */\n      gt\n        /* \"#utility.yul\":23248:23310   */\n      or\n        /* \"#utility.yul\":23245:23333   */\n      iszero\n      tag_551\n      jumpi\n        /* \"#utility.yul\":23313:23331   */\n      tag_552\n      tag_521\n      jump\t// in\n    tag_552:\n        /* \"#utility.yul\":23245:23333   */\n    tag_551:\n        /* \"#utility.yul\":23353:23363   */\n      dup1\n        /* \"#utility.yul\":23349:23351   */\n      0x40\n        /* \"#utility.yul\":23342:23364   */\n      mstore\n        /* \"#utility.yul\":23132:23370   */\n      pop\n        /* \"#utility.yul\":23089:23370   */\n      pop\n      pop\n      jump\t// out\n        /* \"#utility.yul\":23376:23556   */\n    tag_548:\n        /* \"#utility.yul\":23424:23501   */\n      0x4e487b7100000000000000000000000000000000000000000000000000000000\n        /* \"#utility.yul\":23421:23422   */\n      0x00\n        /* \"#utility.yul\":23414:23502   */\n      mstore\n        /* \"#utility.yul\":23521:23525   */\n      0x22\n        /* \"#utility.yul\":23518:23519   */\n      0x04\n        /* \"#utility.yul\":23511:23526   */\n      mstore\n        /* \"#utility.yul\":23545:23549   */\n      0x24\n        /* \"#utility.yul\":23542:23543   */\n      0x00\n        /* \"#utility.yul\":23535:23550   */\n      revert\n        /* \"#utility.yul\":23562:23742   */\n    tag_219:\n        /* \"#utility.yul\":23610:23687   */\n      0x4e487b7100000000000000000000000000000000000000000000000000000000\n        /* \"#utility.yul\":23607:23608   */\n      0x00\n        /* \"#utility.yul\":23600:23688   */\n      mstore\n        /* \"#utility.yul\":23707:23711   */\n      0x32\n        /* \"#utility.yul\":23704:23705   */\n      0x04\n        /* \"#utility.yul\":23697:23712   */\n      mstore\n        /* \"#utility.yul\":23731:23735   */\n      0x24\n        /* \"#utility.yul\":23728:23729   */\n      0x00\n        /* \"#utility.yul\":23721:23736   */\n      revert\n        /* \"#utility.yul\":23748:23928   */\n    tag_521:\n        /* \"#utility.yul\":23796:23873   */\n      0x4e487b7100000000000000000000000000000000000000000000000000000000\n        /* \"#utility.yul\":23793:23794   */\n      0x00\n        /* \"#utility.yul\":23786:23874   */\n      mstore\n        /* \"#utility.yul\":23893:23897   */\n      0x41\n        /* \"#utility.yul\":23890:23891   */\n      0x04\n        /* \"#utility.yul\":23883:23898   */\n      mstore\n        /* \"#utility.yul\":23917:23921   */\n      0x24\n        /* \"#utility.yul\":23914:23915   */\n      0x00\n        /* \"#utility.yul\":23907:23922   */\n      revert\n        /* \"#utility.yul\":23934:24051   */\n    tag_327:\n        /* \"#utility.yul\":24043:24044   */\n      0x00\n        /* \"#utility.yul\":24040:24041   */\n      dup1\n        /* \"#utility.yul\":24033:24045   */\n      revert\n        /* \"#utility.yul\":24057:24174   */\n    tag_321:\n        /* \"#utility.yul\":24166:24167   */\n      0x00\n        /* \"#utility.yul\":24163:24164   */\n      dup1\n        /* \"#utility.yul\":24156:24168   */\n      revert\n        /* \"#utility.yul\":24180:24297   */\n    tag_337:\n        /* \"#utility.yul\":24289:24290   */\n      0x00\n        /* \"#utility.yul\":24286:24287   */\n      dup1\n        /* \"#utility.yul\":24279:24291   */\n      revert\n        /* \"#utility.yul\":24303:24420   */\n    tag_367:\n        /* \"#utility.yul\":24412:24413   */\n      0x00\n        /* \"#utility.yul\":24409:24410   */\n      dup1\n        /* \"#utility.yul\":24402:24414   */\n      revert\n        /* \"#utility.yul\":24426:24543   */\n    tag_360:\n        /* \"#utility.yul\":24535:24536   */\n      0x00\n        /* \"#utility.yul\":24532:24533   */\n      dup1\n        /* \"#utility.yul\":24525:24537   */\n      revert\n        /* \"#utility.yul\":24549:24651   */\n    tag_457:\n        /* \"#utility.yul\":24590:24596   */\n      0x00\n        /* \"#utility.yul\":24641:24643   */\n      0x1f\n        /* \"#utility.yul\":24637:24644   */\n      not\n        /* \"#utility.yul\":24632:24634   */\n      0x1f\n        /* \"#utility.yul\":24625:24630   */\n      dup4\n        /* \"#utility.yul\":24621:24635   */\n      add\n        /* \"#utility.yul\":24617:24645   */\n      and\n        /* \"#utility.yul\":24607:24645   */\n      swap1\n      pop\n        /* \"#utility.yul\":24549:24651   */\n      swap2\n      swap1\n      pop\n      jump\t// out\n        /* \"#utility.yul\":24657:24779   */\n    tag_343:\n        /* \"#utility.yul\":24730:24754   */\n      tag_563\n        /* \"#utility.yul\":24748:24753   */\n      dup2\n        /* \"#utility.yul\":24730:24754   */\n      tag_434\n      jump\t// in\n    tag_563:\n        /* \"#utility.yul\":24723:24728   */\n      dup2\n        /* \"#utility.yul\":24720:24755   */\n      eq\n        /* \"#utility.yul\":24710:24773   */\n      tag_564\n      jumpi\n        /* \"#utility.yul\":24769:24770   */\n      0x00\n        /* \"#utility.yul\":24766:24767   */\n      dup1\n        /* \"#utility.yul\":24759:24771   */\n      revert\n        /* \"#utility.yul\":24710:24773   */\n    tag_564:\n        /* \"#utility.yul\":24657:24779   */\n      pop\n      jump\t// out\n        /* \"#utility.yul\":24785:24907   */\n    tag_356:\n        /* \"#utility.yul\":24858:24882   */\n      tag_566\n        /* \"#utility.yul\":24876:24881   */\n      dup2\n        /* \"#utility.yul\":24858:24882   */\n      tag_495\n      jump\t// in\n    tag_566:\n        /* \"#utility.yul\":24851:24856   */\n      dup2\n        /* \"#utility.yul\":24848:24883   */\n      eq\n        /* \"#utility.yul\":24838:24901   */\n      tag_567\n      jumpi\n        /* \"#utility.yul\":24897:24898   */\n      0x00\n        /* \"#utility.yul\":24894:24895   */\n      dup1\n        /* \"#utility.yul\":24887:24899   */\n      revert\n        /* \"#utility.yul\":24838:24901   */\n    tag_567:\n        /* \"#utility.yul\":24785:24907   */\n      pop\n      jump\t// out\n\n    auxdata: 0xa26469706673582212203fe57d851be054f885c76acb15de9866690d63cf45f675ba68c144684e5a74a864736f6c63430008070033\n}\n",
				"bytecode": {
					"linkReferences": {},
					"object": "608060405234801561001057600080fd5b50612d42806100206000396000f3fe608060405234801561001057600080fd5b50600436106100b45760003560e01c8063958791ae11610071578063958791ae1461015157806395ea37571461016d5780639dd9d0fd14610177578063ed2217ef146101aa578063f96e32f8146101b4578063fabce08f146101e8576100b4565b80633d984d0e146100b95780634ed74067146100d55780636212fa02146100df57806366244dfb146100fd5780636c2cc774146101195780637282838814610135575b600080fd5b6100d360048036038101906100ce9190612313565b6101f2565b005b6100dd610376565b005b6100e76103dc565b6040516100f49190612a43565b60405180910390f35b610117600480360381019061011291906123ba565b610428565b005b610133600480360381019061012e919061229b565b610563565b005b61014f600480360381019061014a91906123ba565b610619565b005b61016b600480360381019061016691906124c1565b610881565b005b610175610b6b565b005b610191600480360381019061018c919061226e565b610c40565b6040516101a194939291906129e2565b60405180910390f35b6101b261180e565b005b6101ce60048036038101906101c991906125f6565b61185d565b6040516101df95949392919061296c565b60405180910390f35b6101f0611d28565b005b6000803373ffffffffffffffffffffffffffffffffffffffff1673ffffffffffffffffffffffffffffffffffffffff168152602001908152602001600020600e01600080820160006102449190611ed6565b6001820160006102549190611ed6565b6002820160006102649190611ed6565b5050826000803373ffffffffffffffffffffffffffffffffffffffff1673ffffffffffffffffffffffffffffffffffffffff168152602001908152602001600020600e0160000190805190602001906102be929190611ef7565b50816000803373ffffffffffffffffffffffffffffffffffffffff1673ffffffffffffffffffffffffffffffffffffffff168152602001908152602001600020600e016001019080519060200190610317929190611ef7565b50806000803373ffffffffffffffffffffffffffffffffffffffff1673ffffffffffffffffffffffffffffffffffffffff168152602001908152602001600020600e016002019080519060200190610370929190611ef7565b50505050565b6000803373ffffffffffffffffffffffffffffffffffffffff1673ffffffffffffffffffffffffffffffffffffffff168152602001908152602001600020601201600080820160006103c89190611ed6565b6001820160006103d89190611ed6565b5050565b60008060003373ffffffffffffffffffffffffffffffffffffffff1673ffffffffffffffffffffffffffffffffffffffff16815260200190815260200160002060110180549050905090565b610430611f57565b8581600001819052508481602001819052508381604001819052508281606001819052508181608001819052506000803373ffffffffffffffffffffffffffffffffffffffff1673ffffffffffffffffffffffffffffffffffffffff16815260200190815260200160002060110181908060018154018082558091505060019003906000526020600020906005020160009091909190915060008201518160000190805190602001906104e4929190611f86565b506020820151816001019080519060200190610501929190611f86565b50604082015181600201908051906020019061051e929190611f86565b50606082015181600301908051906020019061053b929190611f86565b506080820151816004019080519060200190610558929190611f86565b505050505050505050565b816000803373ffffffffffffffffffffffffffffffffffffffff1673ffffffffffffffffffffffffffffffffffffffff16815260200190815260200160002060120160010190805190602001906105bb929190611ef7565b50806000803373ffffffffffffffffffffffffffffffffffffffff1673ffffffffffffffffffffffffffffffffffffffff1681526020019081526020016000206012016000019080519060200190610614929190611ef7565b505050565b6000803373ffffffffffffffffffffffffffffffffffffffff1673ffffffffffffffffffffffffffffffffffffffff1681526020019081526020016000206008016000808201600061066b919061200c565b60018201600061067b919061200c565b60028201600061068b919061200c565b60038201600061069b919061200c565b6004820160006106ab919061200c565b6005820160006106bb919061200c565b5050846000803373ffffffffffffffffffffffffffffffffffffffff1673ffffffffffffffffffffffffffffffffffffffff1681526020019081526020016000206008016001019080519060200190610715929190611f86565b50836000803373ffffffffffffffffffffffffffffffffffffffff1673ffffffffffffffffffffffffffffffffffffffff168152602001908152602001600020600801600201908051906020019061076e929190611f86565b50826000803373ffffffffffffffffffffffffffffffffffffffff1673ffffffffffffffffffffffffffffffffffffffff16815260200190815260200160002060080160030190805190602001906107c7929190611f86565b50816000803373ffffffffffffffffffffffffffffffffffffffff1673ffffffffffffffffffffffffffffffffffffffff1681526020019081526020016000206008016002019080519060200190610820929190611f86565b50806000803373ffffffffffffffffffffffffffffffffffffffff1673ffffffffffffffffffffffffffffffffffffffff1681526020019081526020016000206008016001019080519060200190610879929190611f86565b505050505050565b856000803373ffffffffffffffffffffffffffffffffffffffff1673ffffffffffffffffffffffffffffffffffffffff16815260200190815260200160002060000160030190805190602001906108d9929190611f86565b50846000803373ffffffffffffffffffffffffffffffffffffffff1673ffffffffffffffffffffffffffffffffffffffff1681526020019081526020016000206000016004019080519060200190610932929190611f86565b50836000803373ffffffffffffffffffffffffffffffffffffffff1673ffffffffffffffffffffffffffffffffffffffff168152602001908152602001600020600001600501908051906020019061098b929190611f86565b50826000803373ffffffffffffffffffffffffffffffffffffffff1673ffffffffffffffffffffffffffffffffffffffff16815260200190815260200160002060000160060190805190602001906109e4929190611f86565b50816000803373ffffffffffffffffffffffffffffffffffffffff1673ffffffffffffffffffffffffffffffffffffffff1681526020019081526020016000206000016000019080519060200190610a3d929190611f86565b50806000803373ffffffffffffffffffffffffffffffffffffffff1673ffffffffffffffffffffffffffffffffffffffff1681526020019081526020016000206000016001019080519060200190610a96929190611f86565b50336000803373ffffffffffffffffffffffffffffffffffffffff1673ffffffffffffffffffffffffffffffffffffffff16815260200190815260200160002060000160020160006101000a81548173ffffffffffffffffffffffffffffffffffffffff021916908373ffffffffffffffffffffffffffffffffffffffff160217905550426000803373ffffffffffffffffffffffffffffffffffffffff1673ffffffffffffffffffffffffffffffffffffffff16815260200190815260200160002060000160070181905550505050505050565b6000803373ffffffffffffffffffffffffffffffffffffffff1673ffffffffffffffffffffffffffffffffffffffff16815260200190815260200160002060000160008082016000610bbd919061200c565b600182016000610bcd919061200c565b6002820160006101000a81549073ffffffffffffffffffffffffffffffffffffffff0219169055600382016000610c04919061200c565b600482016000610c14919061200c565b600582016000610c24919061200c565b600682016000610c34919061200c565b60078201600090555050565b60006020528060005260406000206000915090508060000160405180610100016040529081600082018054610c7490612bc4565b80601f0160208091040260200160405190810160405280929190818152602001828054610ca090612bc4565b8015610ced5780601f10610cc257610100808354040283529160200191610ced565b820191906000526020600020905b815481529060010190602001808311610cd057829003601f168201915b50505050508152602001600182018054610d0690612bc4565b80601f0160208091040260200160405190810160405280929190818152602001828054610d3290612bc4565b8015610d7f5780601f10610d5457610100808354040283529160200191610d7f565b820191906000526020600020905b815481529060010190602001808311610d6257829003601f168201915b505050505081526020016002820160009054906101000a900473ffffffffffffffffffffffffffffffffffffffff1673ffffffffffffffffffffffffffffffffffffffff1673ffffffffffffffffffffffffffffffffffffffff168152602001600382018054610dee90612bc4565b80601f0160208091040260200160405190810160405280929190818152602001828054610e1a90612bc4565b8015610e675780601f10610e3c57610100808354040283529160200191610e67565b820191906000526020600020905b815481529060010190602001808311610e4a57829003601f168201915b50505050508152602001600482018054610e8090612bc4565b80601f0160208091040260200160405190810160405280929190818152602001828054610eac90612bc4565b8015610ef95780601f10610ece57610100808354040283529160200191610ef9565b820191906000526020600020905b815481529060010190602001808311610edc57829003601f168201915b50505050508152602001600582018054610f1290612bc4565b80601f0160208091040260200160405190810160405280929190818152602001828054610f3e90612bc4565b8015610f8b5780601f10610f6057610100808354040283529160200191610f8b565b820191906000526020600020905b815481529060010190602001808311610f6e57829003601f168201915b50505050508152602001600682018054610fa490612bc4565b80601f0160208091040260200160405190810160405280929190818152602001828054610fd090612bc4565b801561101d5780601f10610ff25761010080835404028352916020019161101d565b820191906000526020600020905b81548152906001019060200180831161100057829003601f168201915b5050505050815260200160078201548152505090806008016040518060c001604052908160008201805461105090612bc4565b80601f016020809104026020016040519081016040528092919081815260200182805461107c90612bc4565b80156110c95780601f1061109e576101008083540402835291602001916110c9565b820191906000526020600020905b8154815290600101906020018083116110ac57829003601f168201915b505050505081526020016001820180546110e290612bc4565b80601f016020809104026020016040519081016040528092919081815260200182805461110e90612bc4565b801561115b5780601f106111305761010080835404028352916020019161115b565b820191906000526020600020905b81548152906001019060200180831161113e57829003601f168201915b5050505050815260200160028201805461117490612bc4565b80601f01602080910402602001604051908101604052809291908181526020018280546111a090612bc4565b80156111ed5780601f106111c2576101008083540402835291602001916111ed565b820191906000526020600020905b8154815290600101906020018083116111d057829003601f168201915b5050505050815260200160038201805461120690612bc4565b80601f016020809104026020016040519081016040528092919081815260200182805461123290612bc4565b801561127f5780601f106112545761010080835404028352916020019161127f565b820191906000526020600020905b81548152906001019060200180831161126257829003601f168201915b5050505050815260200160048201805461129890612bc4565b80601f01602080910402602001604051908101604052809291908181526020018280546112c490612bc4565b80156113115780601f106112e657610100808354040283529160200191611311565b820191906000526020600020905b8154815290600101906020018083116112f457829003601f168201915b5050505050815260200160058201805461132a90612bc4565b80601f016020809104026020016040519081016040528092919081815260200182805461135690612bc4565b80156113a35780601f10611378576101008083540402835291602001916113a3565b820191906000526020600020905b81548152906001019060200180831161138657829003601f168201915b5050505050815250509080600e0160405180606001604052908160008201805480602002602001604051908101604052809291908181526020016000905b8282101561148d57838290600052602060002001805461140090612bc4565b80601f016020809104026020016040519081016040528092919081815260200182805461142c90612bc4565b80156114795780601f1061144e57610100808354040283529160200191611479565b820191906000526020600020905b81548152906001019060200180831161145c57829003601f168201915b5050505050815260200190600101906113e1565b50505050815260200160018201805480602002602001604051908101604052809291908181526020016000905b828210156115665783829060005260206000200180546114d990612bc4565b80601f016020809104026020016040519081016040528092919081815260200182805461150590612bc4565b80156115525780601f1061152757610100808354040283529160200191611552565b820191906000526020600020905b81548152906001019060200180831161153557829003601f168201915b5050505050815260200190600101906114ba565b50505050815260200160028201805480602002602001604051908101604052809291908181526020016000905b8282101561163f5783829060005260206000200180546115b290612bc4565b80601f01602080910402602001604051908101604052809291908181526020018280546115de90612bc4565b801561162b5780601f106116005761010080835404028352916020019161162b565b820191906000526020600020905b81548152906001019060200180831161160e57829003601f168201915b505050505081526020019060010190611593565b5050505081525050908060120160405180604001604052908160008201805480602002602001604051908101604052809291908181526020016000905b8282101561172857838290600052602060002001805461169b90612bc4565b80601f01602080910402602001604051908101604052809291908181526020018280546116c790612bc4565b80156117145780601f106116e957610100808354040283529160200191611714565b820191906000526020600020905b8154815290600101906020018083116116f757829003601f168201915b50505050508152602001906001019061167c565b50505050815260200160018201805480602002602001604051908101604052809291908181526020016000905b8282101561180157838290600052602060002001805461177490612bc4565b80601f01602080910402602001604051908101604052809291908181526020018280546117a090612bc4565b80156117ed5780601f106117c2576101008083540402835291602001916117ed565b820191906000526020600020905b8154815290600101906020018083116117d057829003601f168201915b505050505081526020019060010190611755565b5050505081525050905084565b6000803373ffffffffffffffffffffffffffffffffffffffff1673ffffffffffffffffffffffffffffffffffffffff168152602001908152602001600020601101600061185b919061204c565b565b60608060608060606000803373ffffffffffffffffffffffffffffffffffffffff1673ffffffffffffffffffffffffffffffffffffffff16815260200190815260200160002060110186815481106118b8576118b7612c56565b5b90600052602060002090600502016000016000803373ffffffffffffffffffffffffffffffffffffffff1673ffffffffffffffffffffffffffffffffffffffff168152602001908152602001600020601101878154811061191c5761191b612c56565b5b90600052602060002090600502016001016000803373ffffffffffffffffffffffffffffffffffffffff1673ffffffffffffffffffffffffffffffffffffffff16815260200190815260200160002060110188815481106119805761197f612c56565b5b90600052602060002090600502016002016000803373ffffffffffffffffffffffffffffffffffffffff1673ffffffffffffffffffffffffffffffffffffffff16815260200190815260200160002060110189815481106119e4576119e3612c56565b5b90600052602060002090600502016003016000803373ffffffffffffffffffffffffffffffffffffffff1673ffffffffffffffffffffffffffffffffffffffff1681526020019081526020016000206011018a81548110611a4857611a47612c56565b5b9060005260206000209060050201600401848054611a6590612bc4565b80601f0160208091040260200160405190810160405280929190818152602001828054611a9190612bc4565b8015611ade5780601f10611ab357610100808354040283529160200191611ade565b820191906000526020600020905b815481529060010190602001808311611ac157829003601f168201915b50505050509450838054611af190612bc4565b80601f0160208091040260200160405190810160405280929190818152602001828054611b1d90612bc4565b8015611b6a5780601f10611b3f57610100808354040283529160200191611b6a565b820191906000526020600020905b815481529060010190602001808311611b4d57829003601f168201915b50505050509350828054611b7d90612bc4565b80601f0160208091040260200160405190810160405280929190818152602001828054611ba990612bc4565b8015611bf65780601f10611bcb57610100808354040283529160200191611bf6565b820191906000526020600020905b815481529060010190602001808311611bd957829003601f168201915b50505050509250818054611c0990612bc4565b80601f0160208091040260200160405190810160405280929190818152602001828054611c3590612bc4565b8015611c825780601f10611c5757610100808354040283529160200191611c82565b820191906000526020600020905b815481529060010190602001808311611c6557829003601f168201915b50505050509150808054611c9590612bc4565b80601f0160208091040260200160405190810160405280929190818152602001828054611cc190612bc4565b8015611d0e5780601f10611ce357610100808354040283529160200191611d0e565b820191906000526020600020905b815481529060010190602001808311611cf157829003601f168201915b505050505090509450945094509450945091939590929450565b6000803373ffffffffffffffffffffffffffffffffffffffff1673ffffffffffffffffffffffffffffffffffffffff168152602001908152602001600020600080820160008082016000611d7c919061200c565b600182016000611d8c919061200c565b6002820160006101000a81549073ffffffffffffffffffffffffffffffffffffffff0219169055600382016000611dc3919061200c565b600482016000611dd3919061200c565b600582016000611de3919061200c565b600682016000611df3919061200c565b600782016000905550506008820160008082016000611e12919061200c565b600182016000611e22919061200c565b600282016000611e32919061200c565b600382016000611e42919061200c565b600482016000611e52919061200c565b600582016000611e62919061200c565b5050600e820160008082016000611e799190611ed6565b600182016000611e899190611ed6565b600282016000611e999190611ed6565b5050601182016000611eab919061204c565b6012820160008082016000611ec09190611ed6565b600182016000611ed09190611ed6565b50505050565b5080546000825590600052602060002090810190611ef49190612070565b50565b828054828255906000526020600020908101928215611f46579160200282015b82811115611f45578251829080519060200190611f35929190611f86565b5091602001919060010190611f17565b5b509050611f539190612070565b5090565b6040518060a0016040528060608152602001606081526020016060815260200160608152602001606081525090565b828054611f9290612bc4565b90600052602060002090601f016020900481019282611fb45760008555611ffb565b82601f10611fcd57805160ff1916838001178555611ffb565b82800160010185558215611ffb579182015b82811115611ffa578251825591602001919060010190611fdf565b5b5090506120089190612094565b5090565b50805461201890612bc4565b6000825580601f1061202a5750612049565b601f0160209004906000526020600020908101906120489190612094565b5b50565b508054600082556005029060005260206000209081019061206d91906120b1565b50565b5b808211156120905760008181612087919061200c565b50600101612071565b5090565b5b808211156120ad576000816000905550600101612095565b5090565b5b8082111561211457600080820160006120cb919061200c565b6001820160006120db919061200c565b6002820160006120eb919061200c565b6003820160006120fb919061200c565b60048201600061210b919061200c565b506005016120b2565b5090565b600061212b61212684612a83565b612a5e565b9050808382526020820190508285602086028201111561214e5761214d612cb9565b5b60005b8581101561219c57813567ffffffffffffffff81111561217457612173612cb4565b5b808601612181898261222b565b85526020850194506020840193505050600181019050612151565b5050509392505050565b60006121b96121b484612aaf565b612a5e565b9050828152602081018484840111156121d5576121d4612cbe565b5b6121e0848285612b82565b509392505050565b6000813590506121f781612cde565b92915050565b600082601f83011261221257612211612cb4565b5b8135612222848260208601612118565b91505092915050565b600082601f8301126122405761223f612cb4565b5b81356122508482602086016121a6565b91505092915050565b60008135905061226881612cf5565b92915050565b60006020828403121561228457612283612cc8565b5b6000612292848285016121e8565b91505092915050565b600080604083850312156122b2576122b1612cc8565b5b600083013567ffffffffffffffff8111156122d0576122cf612cc3565b5b6122dc858286016121fd565b925050602083013567ffffffffffffffff8111156122fd576122fc612cc3565b5b612309858286016121fd565b9150509250929050565b60008060006060848603121561232c5761232b612cc8565b5b600084013567ffffffffffffffff81111561234a57612349612cc3565b5b612356868287016121fd565b935050602084013567ffffffffffffffff81111561237757612376612cc3565b5b612383868287016121fd565b925050604084013567ffffffffffffffff8111156123a4576123a3612cc3565b5b6123b0868287016121fd565b9150509250925092565b600080600080600060a086880312156123d6576123d5612cc8565b5b600086013567ffffffffffffffff8111156123f4576123f3612cc3565b5b6124008882890161222b565b955050602086013567ffffffffffffffff81111561242157612420612cc3565b5b61242d8882890161222b565b945050604086013567ffffffffffffffff81111561244e5761244d612cc3565b5b61245a8882890161222b565b935050606086013567ffffffffffffffff81111561247b5761247a612cc3565b5b6124878882890161222b565b925050608086013567ffffffffffffffff8111156124a8576124a7612cc3565b5b6124b48882890161222b565b9150509295509295909350565b60008060008060008060c087890312156124de576124dd612cc8565b5b600087013567ffffffffffffffff8111156124fc576124fb612cc3565b5b61250889828a0161222b565b965050602087013567ffffffffffffffff81111561252957612528612cc3565b5b61253589828a0161222b565b955050604087013567ffffffffffffffff81111561255657612555612cc3565b5b61256289828a0161222b565b945050606087013567ffffffffffffffff81111561258357612582612cc3565b5b61258f89828a0161222b565b935050608087013567ffffffffffffffff8111156125b0576125af612cc3565b5b6125bc89828a0161222b565b92505060a087013567ffffffffffffffff8111156125dd576125dc612cc3565b5b6125e989828a0161222b565b9150509295509295509295565b60006020828403121561260c5761260b612cc8565b5b600061261a84828501612259565b91505092915050565b600061262f83836126bb565b905092915050565b61264081612b46565b82525050565b600061265182612af0565b61265b8185612b13565b93508360208202850161266d85612ae0565b8060005b858110156126a9578484038952815161268a8582612623565b945061269583612b06565b925060208a01995050600181019050612671565b50829750879550505050505092915050565b60006126c682612afb565b6126d08185612b24565b93506126e0818560208601612b91565b6126e981612ccd565b840191505092915050565b60006126ff82612afb565b6127098185612b35565b9350612719818560208601612b91565b61272281612ccd565b840191505092915050565b6000604083016000830151848203600086015261274a8282612646565b915050602083015184820360208601526127648282612646565b9150508091505092915050565b600060c083016000830151848203600086015261278e82826126bb565b915050602083015184820360208601526127a882826126bb565b915050604083015184820360408601526127c282826126bb565b915050606083015184820360608601526127dc82826126bb565b915050608083015184820360808601526127f682826126bb565b91505060a083015184820360a086015261281082826126bb565b9150508091505092915050565b600061010083016000830151848203600086015261283b82826126bb565b9150506020830151848203602086015261285582826126bb565b915050604083015161286a6040860182612637565b506060830151848203606086015261288282826126bb565b9150506080830151848203608086015261289c82826126bb565b91505060a083015184820360a08601526128b682826126bb565b91505060c083015184820360c08601526128d082826126bb565b91505060e08301516128e560e086018261294e565b508091505092915050565b6000606083016000830151848203600086015261290d8282612646565b915050602083015184820360208601526129278282612646565b915050604083015184820360408601526129418282612646565b9150508091505092915050565b61295781612b78565b82525050565b61296681612b78565b82525050565b600060a082019050818103600083015261298681886126f4565b9050818103602083015261299a81876126f4565b905081810360408301526129ae81866126f4565b905081810360608301526129c281856126f4565b905081810360808301526129d681846126f4565b90509695505050505050565b600060808201905081810360008301526129fc818761281d565b90508181036020830152612a108186612771565b90508181036040830152612a2481856128f0565b90508181036060830152612a38818461272d565b905095945050505050565b6000602082019050612a58600083018461295d565b92915050565b6000612a68612a79565b9050612a748282612bf6565b919050565b6000604051905090565b600067ffffffffffffffff821115612a9e57612a9d612c85565b5b602082029050602081019050919050565b600067ffffffffffffffff821115612aca57612ac9612c85565b5b612ad382612ccd565b9050602081019050919050565b6000819050602082019050919050565b600081519050919050565b600081519050919050565b6000602082019050919050565b600082825260208201905092915050565b600082825260208201905092915050565b600082825260208201905092915050565b6000612b5182612b58565b9050919050565b600073ffffffffffffffffffffffffffffffffffffffff82169050919050565b6000819050919050565b82818337600083830152505050565b60005b83811015612baf578082015181840152602081019050612b94565b83811115612bbe576000848401525b50505050565b60006002820490506001821680612bdc57607f821691505b60208210811415612bf057612bef612c27565b5b50919050565b612bff82612ccd565b810181811067ffffffffffffffff82111715612c1e57612c1d612c85565b5b80604052505050565b7f4e487b7100000000000000000000000000000000000000000000000000000000600052602260045260246000fd5b7f4e487b7100000000000000000000000000000000000000000000000000000000600052603260045260246000fd5b7f4e487b7100000000000000000000000000000000000000000000000000000000600052604160045260246000fd5b600080fd5b600080fd5b600080fd5b600080fd5b600080fd5b6000601f19601f8301169050919050565b612ce781612b46565b8114612cf257600080fd5b50565b612cfe81612b78565b8114612d0957600080fd5b5056fea26469706673582212203fe57d851be054f885c76acb15de9866690d63cf45f675ba68c144684e5a74a864736f6c63430008070033",
					"opcodes": "PUSH1 0x80 PUSH1 0x40 MSTORE CALLVALUE DUP1 ISZERO PUSH2 0x10 JUMPI PUSH1 0x0 DUP1 REVERT JUMPDEST POP PUSH2 0x2D42 DUP1 PUSH2 0x20 PUSH1 0x0 CODECOPY PUSH1 0x0 RETURN INVALID PUSH1 0x80 PUSH1 0x40 MSTORE CALLVALUE DUP1 ISZERO PUSH2 0x10 JUMPI PUSH1 0x0 DUP1 REVERT JUMPDEST POP PUSH1 0x4 CALLDATASIZE LT PUSH2 0xB4 JUMPI PUSH1 0x0 CALLDATALOAD PUSH1 0xE0 SHR DUP1 PUSH4 0x958791AE GT PUSH2 0x71 JUMPI DUP1 PUSH4 0x958791AE EQ PUSH2 0x151 JUMPI DUP1 PUSH4 0x95EA3757 EQ PUSH2 0x16D JUMPI DUP1 PUSH4 0x9DD9D0FD EQ PUSH2 0x177 JUMPI DUP1 PUSH4 0xED2217EF EQ PUSH2 0x1AA JUMPI DUP1 PUSH4 0xF96E32F8 EQ PUSH2 0x1B4 JUMPI DUP1 PUSH4 0xFABCE08F EQ PUSH2 0x1E8 JUMPI PUSH2 0xB4 JUMP JUMPDEST DUP1 PUSH4 0x3D984D0E EQ PUSH2 0xB9 JUMPI DUP1 PUSH4 0x4ED74067 EQ PUSH2 0xD5 JUMPI DUP1 PUSH4 0x6212FA02 EQ PUSH2 0xDF JUMPI DUP1 PUSH4 0x66244DFB EQ PUSH2 0xFD JUMPI DUP1 PUSH4 0x6C2CC774 EQ PUSH2 0x119 JUMPI DUP1 PUSH4 0x72828388 EQ PUSH2 0x135 JUMPI JUMPDEST PUSH1 0x0 DUP1 REVERT JUMPDEST PUSH2 0xD3 PUSH1 0x4 DUP1 CALLDATASIZE SUB DUP2 ADD SWAP1 PUSH2 0xCE SWAP2 SWAP1 PUSH2 0x2313 JUMP JUMPDEST PUSH2 0x1F2 JUMP JUMPDEST STOP JUMPDEST PUSH2 0xDD PUSH2 0x376 JUMP JUMPDEST STOP JUMPDEST PUSH2 0xE7 PUSH2 0x3DC JUMP JUMPDEST PUSH1 0x40 MLOAD PUSH2 0xF4 SWAP2 SWAP1 PUSH2 0x2A43 JUMP JUMPDEST PUSH1 0x40 MLOAD DUP1 SWAP2 SUB SWAP1 RETURN JUMPDEST PUSH2 0x117 PUSH1 0x4 DUP1 CALLDATASIZE SUB DUP2 ADD SWAP1 PUSH2 0x112 SWAP2 SWAP1 PUSH2 0x23BA JUMP JUMPDEST PUSH2 0x428 JUMP JUMPDEST STOP JUMPDEST PUSH2 0x133 PUSH1 0x4 DUP1 CALLDATASIZE SUB DUP2 ADD SWAP1 PUSH2 0x12E SWAP2 SWAP1 PUSH2 0x229B JUMP JUMPDEST PUSH2 0x563 JUMP JUMPDEST STOP JUMPDEST PUSH2 0x14F PUSH1 0x4 DUP1 CALLDATASIZE SUB DUP2 ADD SWAP1 PUSH2 0x14A SWAP2 SWAP1 PUSH2 0x23BA JUMP JUMPDEST PUSH2 0x619 JUMP JUMPDEST STOP JUMPDEST PUSH2 0x16B PUSH1 0x4 DUP1 CALLDATASIZE SUB DUP2 ADD SWAP1 PUSH2 0x166 SWAP2 SWAP1 PUSH2 0x24C1 JUMP JUMPDEST PUSH2 0x881 JUMP JUMPDEST STOP JUMPDEST PUSH2 0x175 PUSH2 0xB6B JUMP JUMPDEST STOP JUMPDEST PUSH2 0x191 PUSH1 0x4 DUP1 CALLDATASIZE SUB DUP2 ADD SWAP1 PUSH2 0x18C SWAP2 SWAP1 PUSH2 0x226E JUMP JUMPDEST PUSH2 0xC40 JUMP JUMPDEST PUSH1 0x40 MLOAD PUSH2 0x1A1 SWAP5 SWAP4 SWAP3 SWAP2 SWAP1 PUSH2 0x29E2 JUMP JUMPDEST PUSH1 0x40 MLOAD DUP1 SWAP2 SUB SWAP1 RETURN JUMPDEST PUSH2 0x1B2 PUSH2 0x180E JUMP JUMPDEST STOP JUMPDEST PUSH2 0x1CE PUSH1 0x4 DUP1 CALLDATASIZE SUB DUP2 ADD SWAP1 PUSH2 0x1C9 SWAP2 SWAP1 PUSH2 0x25F6 JUMP JUMPDEST PUSH2 0x185D JUMP JUMPDEST PUSH1 0x40 MLOAD PUSH2 0x1DF SWAP6 SWAP5 SWAP4 SWAP3 SWAP2 SWAP1 PUSH2 0x296C JUMP JUMPDEST PUSH1 0x40 MLOAD DUP1 SWAP2 SUB SWAP1 RETURN JUMPDEST PUSH2 0x1F0 PUSH2 0x1D28 JUMP JUMPDEST STOP JUMPDEST PUSH1 0x0 DUP1 CALLER PUSH20 0xFFFFFFFFFFFFFFFFFFFFFFFFFFFFFFFFFFFFFFFF AND PUSH20 0xFFFFFFFFFFFFFFFFFFFFFFFFFFFFFFFFFFFFFFFF AND DUP2 MSTORE PUSH1 0x20 ADD SWAP1 DUP2 MSTORE PUSH1 0x20 ADD PUSH1 0x0 KECCAK256 PUSH1 0xE ADD PUSH1 0x0 DUP1 DUP3 ADD PUSH1 0x0 PUSH2 0x244 SWAP2 SWAP1 PUSH2 0x1ED6 JUMP JUMPDEST PUSH1 0x1 DUP3 ADD PUSH1 0x0 PUSH2 0x254 SWAP2 SWAP1 PUSH2 0x1ED6 JUMP JUMPDEST PUSH1 0x2 DUP3 ADD PUSH1 0x0 PUSH2 0x264 SWAP2 SWAP1 PUSH2 0x1ED6 JUMP JUMPDEST POP POP DUP3 PUSH1 0x0 DUP1 CALLER PUSH20 0xFFFFFFFFFFFFFFFFFFFFFFFFFFFFFFFFFFFFFFFF AND PUSH20 0xFFFFFFFFFFFFFFFFFFFFFFFFFFFFFFFFFFFFFFFF AND DUP2 MSTORE PUSH1 0x20 ADD SWAP1 DUP2 MSTORE PUSH1 0x20 ADD PUSH1 0x0 KECCAK256 PUSH1 0xE ADD PUSH1 0x0 ADD SWAP1 DUP1 MLOAD SWAP1 PUSH1 0x20 ADD SWAP1 PUSH2 0x2BE SWAP3 SWAP2 SWAP1 PUSH2 0x1EF7 JUMP JUMPDEST POP DUP2 PUSH1 0x0 DUP1 CALLER PUSH20 0xFFFFFFFFFFFFFFFFFFFFFFFFFFFFFFFFFFFFFFFF AND PUSH20 0xFFFFFFFFFFFFFFFFFFFFFFFFFFFFFFFFFFFFFFFF AND DUP2 MSTORE PUSH1 0x20 ADD SWAP1 DUP2 MSTORE PUSH1 0x20 ADD PUSH1 0x0 KECCAK256 PUSH1 0xE ADD PUSH1 0x1 ADD SWAP1 DUP1 MLOAD SWAP1 PUSH1 0x20 ADD SWAP1 PUSH2 0x317 SWAP3 SWAP2 SWAP1 PUSH2 0x1EF7 JUMP JUMPDEST POP DUP1 PUSH1 0x0 DUP1 CALLER PUSH20 0xFFFFFFFFFFFFFFFFFFFFFFFFFFFFFFFFFFFFFFFF AND PUSH20 0xFFFFFFFFFFFFFFFFFFFFFFFFFFFFFFFFFFFFFFFF AND DUP2 MSTORE PUSH1 0x20 ADD SWAP1 DUP2 MSTORE PUSH1 0x20 ADD PUSH1 0x0 KECCAK256 PUSH1 0xE ADD PUSH1 0x2 ADD SWAP1 DUP1 MLOAD SWAP1 PUSH1 0x20 ADD SWAP1 PUSH2 0x370 SWAP3 SWAP2 SWAP1 PUSH2 0x1EF7 JUMP JUMPDEST POP POP POP POP JUMP JUMPDEST PUSH1 0x0 DUP1 CALLER PUSH20 0xFFFFFFFFFFFFFFFFFFFFFFFFFFFFFFFFFFFFFFFF AND PUSH20 0xFFFFFFFFFFFFFFFFFFFFFFFFFFFFFFFFFFFFFFFF AND DUP2 MSTORE PUSH1 0x20 ADD SWAP1 DUP2 MSTORE PUSH1 0x20 ADD PUSH1 0x0 KECCAK256 PUSH1 0x12 ADD PUSH1 0x0 DUP1 DUP3 ADD PUSH1 0x0 PUSH2 0x3C8 SWAP2 SWAP1 PUSH2 0x1ED6 JUMP JUMPDEST PUSH1 0x1 DUP3 ADD PUSH1 0x0 PUSH2 0x3D8 SWAP2 SWAP1 PUSH2 0x1ED6 JUMP JUMPDEST POP POP JUMP JUMPDEST PUSH1 0x0 DUP1 PUSH1 0x0 CALLER PUSH20 0xFFFFFFFFFFFFFFFFFFFFFFFFFFFFFFFFFFFFFFFF AND PUSH20 0xFFFFFFFFFFFFFFFFFFFFFFFFFFFFFFFFFFFFFFFF AND DUP2 MSTORE PUSH1 0x20 ADD SWAP1 DUP2 MSTORE PUSH1 0x20 ADD PUSH1 0x0 KECCAK256 PUSH1 0x11 ADD DUP1 SLOAD SWAP1 POP SWAP1 POP SWAP1 JUMP JUMPDEST PUSH2 0x430 PUSH2 0x1F57 JUMP JUMPDEST DUP6 DUP2 PUSH1 0x0 ADD DUP2 SWAP1 MSTORE POP DUP5 DUP2 PUSH1 0x20 ADD DUP2 SWAP1 MSTORE POP DUP4 DUP2 PUSH1 0x40 ADD DUP2 SWAP1 MSTORE POP DUP3 DUP2 PUSH1 0x60 ADD DUP2 SWAP1 MSTORE POP DUP2 DUP2 PUSH1 0x80 ADD DUP2 SWAP1 MSTORE POP PUSH1 0x0 DUP1 CALLER PUSH20 0xFFFFFFFFFFFFFFFFFFFFFFFFFFFFFFFFFFFFFFFF AND PUSH20 0xFFFFFFFFFFFFFFFFFFFFFFFFFFFFFFFFFFFFFFFF AND DUP2 MSTORE PUSH1 0x20 ADD SWAP1 DUP2 MSTORE PUSH1 0x20 ADD PUSH1 0x0 KECCAK256 PUSH1 0x11 ADD DUP2 SWAP1 DUP1 PUSH1 0x1 DUP2 SLOAD ADD DUP1 DUP3 SSTORE DUP1 SWAP2 POP POP PUSH1 0x1 SWAP1 SUB SWAP1 PUSH1 0x0 MSTORE PUSH1 0x20 PUSH1 0x0 KECCAK256 SWAP1 PUSH1 0x5 MUL ADD PUSH1 0x0 SWAP1 SWAP2 SWAP1 SWAP2 SWAP1 SWAP2 POP PUSH1 0x0 DUP3 ADD MLOAD DUP2 PUSH1 0x0 ADD SWAP1 DUP1 MLOAD SWAP1 PUSH1 0x20 ADD SWAP1 PUSH2 0x4E4 SWAP3 SWAP2 SWAP1 PUSH2 0x1F86 JUMP JUMPDEST POP PUSH1 0x20 DUP3 ADD MLOAD DUP2 PUSH1 0x1 ADD SWAP1 DUP1 MLOAD SWAP1 PUSH1 0x20 ADD SWAP1 PUSH2 0x501 SWAP3 SWAP2 SWAP1 PUSH2 0x1F86 JUMP JUMPDEST POP PUSH1 0x40 DUP3 ADD MLOAD DUP2 PUSH1 0x2 ADD SWAP1 DUP1 MLOAD SWAP1 PUSH1 0x20 ADD SWAP1 PUSH2 0x51E SWAP3 SWAP2 SWAP1 PUSH2 0x1F86 JUMP JUMPDEST POP PUSH1 0x60 DUP3 ADD MLOAD DUP2 PUSH1 0x3 ADD SWAP1 DUP1 MLOAD SWAP1 PUSH1 0x20 ADD SWAP1 PUSH2 0x53B SWAP3 SWAP2 SWAP1 PUSH2 0x1F86 JUMP JUMPDEST POP PUSH1 0x80 DUP3 ADD MLOAD DUP2 PUSH1 0x4 ADD SWAP1 DUP1 MLOAD SWAP1 PUSH1 0x20 ADD SWAP1 PUSH2 0x558 SWAP3 SWAP2 SWAP1 PUSH2 0x1F86 JUMP JUMPDEST POP POP POP POP POP POP POP POP POP JUMP JUMPDEST DUP2 PUSH1 0x0 DUP1 CALLER PUSH20 0xFFFFFFFFFFFFFFFFFFFFFFFFFFFFFFFFFFFFFFFF AND PUSH20 0xFFFFFFFFFFFFFFFFFFFFFFFFFFFFFFFFFFFFFFFF AND DUP2 MSTORE PUSH1 0x20 ADD SWAP1 DUP2 MSTORE PUSH1 0x20 ADD PUSH1 0x0 KECCAK256 PUSH1 0x12 ADD PUSH1 0x1 ADD SWAP1 DUP1 MLOAD SWAP1 PUSH1 0x20 ADD SWAP1 PUSH2 0x5BB SWAP3 SWAP2 SWAP1 PUSH2 0x1EF7 JUMP JUMPDEST POP DUP1 PUSH1 0x0 DUP1 CALLER PUSH20 0xFFFFFFFFFFFFFFFFFFFFFFFFFFFFFFFFFFFFFFFF AND PUSH20 0xFFFFFFFFFFFFFFFFFFFFFFFFFFFFFFFFFFFFFFFF AND DUP2 MSTORE PUSH1 0x20 ADD SWAP1 DUP2 MSTORE PUSH1 0x20 ADD PUSH1 0x0 KECCAK256 PUSH1 0x12 ADD PUSH1 0x0 ADD SWAP1 DUP1 MLOAD SWAP1 PUSH1 0x20 ADD SWAP1 PUSH2 0x614 SWAP3 SWAP2 SWAP1 PUSH2 0x1EF7 JUMP JUMPDEST POP POP POP JUMP JUMPDEST PUSH1 0x0 DUP1 CALLER PUSH20 0xFFFFFFFFFFFFFFFFFFFFFFFFFFFFFFFFFFFFFFFF AND PUSH20 0xFFFFFFFFFFFFFFFFFFFFFFFFFFFFFFFFFFFFFFFF AND DUP2 MSTORE PUSH1 0x20 ADD SWAP1 DUP2 MSTORE PUSH1 0x20 ADD PUSH1 0x0 KECCAK256 PUSH1 0x8 ADD PUSH1 0x0 DUP1 DUP3 ADD PUSH1 0x0 PUSH2 0x66B SWAP2 SWAP1 PUSH2 0x200C JUMP JUMPDEST PUSH1 0x1 DUP3 ADD PUSH1 0x0 PUSH2 0x67B SWAP2 SWAP1 PUSH2 0x200C JUMP JUMPDEST PUSH1 0x2 DUP3 ADD PUSH1 0x0 PUSH2 0x68B SWAP2 SWAP1 PUSH2 0x200C JUMP JUMPDEST PUSH1 0x3 DUP3 ADD PUSH1 0x0 PUSH2 0x69B SWAP2 SWAP1 PUSH2 0x200C JUMP JUMPDEST PUSH1 0x4 DUP3 ADD PUSH1 0x0 PUSH2 0x6AB SWAP2 SWAP1 PUSH2 0x200C JUMP JUMPDEST PUSH1 0x5 DUP3 ADD PUSH1 0x0 PUSH2 0x6BB SWAP2 SWAP1 PUSH2 0x200C JUMP JUMPDEST POP POP DUP5 PUSH1 0x0 DUP1 CALLER PUSH20 0xFFFFFFFFFFFFFFFFFFFFFFFFFFFFFFFFFFFFFFFF AND PUSH20 0xFFFFFFFFFFFFFFFFFFFFFFFFFFFFFFFFFFFFFFFF AND DUP2 MSTORE PUSH1 0x20 ADD SWAP1 DUP2 MSTORE PUSH1 0x20 ADD PUSH1 0x0 KECCAK256 PUSH1 0x8 ADD PUSH1 0x1 ADD SWAP1 DUP1 MLOAD SWAP1 PUSH1 0x20 ADD SWAP1 PUSH2 0x715 SWAP3 SWAP2 SWAP1 PUSH2 0x1F86 JUMP JUMPDEST POP DUP4 PUSH1 0x0 DUP1 CALLER PUSH20 0xFFFFFFFFFFFFFFFFFFFFFFFFFFFFFFFFFFFFFFFF AND PUSH20 0xFFFFFFFFFFFFFFFFFFFFFFFFFFFFFFFFFFFFFFFF AND DUP2 MSTORE PUSH1 0x20 ADD SWAP1 DUP2 MSTORE PUSH1 0x20 ADD PUSH1 0x0 KECCAK256 PUSH1 0x8 ADD PUSH1 0x2 ADD SWAP1 DUP1 MLOAD SWAP1 PUSH1 0x20 ADD SWAP1 PUSH2 0x76E SWAP3 SWAP2 SWAP1 PUSH2 0x1F86 JUMP JUMPDEST POP DUP3 PUSH1 0x0 DUP1 CALLER PUSH20 0xFFFFFFFFFFFFFFFFFFFFFFFFFFFFFFFFFFFFFFFF AND PUSH20 0xFFFFFFFFFFFFFFFFFFFFFFFFFFFFFFFFFFFFFFFF AND DUP2 MSTORE PUSH1 0x20 ADD SWAP1 DUP2 MSTORE PUSH1 0x20 ADD PUSH1 0x0 KECCAK256 PUSH1 0x8 ADD PUSH1 0x3 ADD SWAP1 DUP1 MLOAD SWAP1 PUSH1 0x20 ADD SWAP1 PUSH2 0x7C7 SWAP3 SWAP2 SWAP1 PUSH2 0x1F86 JUMP JUMPDEST POP DUP2 PUSH1 0x0 DUP1 CALLER PUSH20 0xFFFFFFFFFFFFFFFFFFFFFFFFFFFFFFFFFFFFFFFF AND PUSH20 0xFFFFFFFFFFFFFFFFFFFFFFFFFFFFFFFFFFFFFFFF AND DUP2 MSTORE PUSH1 0x20 ADD SWAP1 DUP2 MSTORE PUSH1 0x20 ADD PUSH1 0x0 KECCAK256 PUSH1 0x8 ADD PUSH1 0x2 ADD SWAP1 DUP1 MLOAD SWAP1 PUSH1 0x20 ADD SWAP1 PUSH2 0x820 SWAP3 SWAP2 SWAP1 PUSH2 0x1F86 JUMP JUMPDEST POP DUP1 PUSH1 0x0 DUP1 CALLER PUSH20 0xFFFFFFFFFFFFFFFFFFFFFFFFFFFFFFFFFFFFFFFF AND PUSH20 0xFFFFFFFFFFFFFFFFFFFFFFFFFFFFFFFFFFFFFFFF AND DUP2 MSTORE PUSH1 0x20 ADD SWAP1 DUP2 MSTORE PUSH1 0x20 ADD PUSH1 0x0 KECCAK256 PUSH1 0x8 ADD PUSH1 0x1 ADD SWAP1 DUP1 MLOAD SWAP1 PUSH1 0x20 ADD SWAP1 PUSH2 0x879 SWAP3 SWAP2 SWAP1 PUSH2 0x1F86 JUMP JUMPDEST POP POP POP POP POP POP JUMP JUMPDEST DUP6 PUSH1 0x0 DUP1 CALLER PUSH20 0xFFFFFFFFFFFFFFFFFFFFFFFFFFFFFFFFFFFFFFFF AND PUSH20 0xFFFFFFFFFFFFFFFFFFFFFFFFFFFFFFFFFFFFFFFF AND DUP2 MSTORE PUSH1 0x20 ADD SWAP1 DUP2 MSTORE PUSH1 0x20 ADD PUSH1 0x0 KECCAK256 PUSH1 0x0 ADD PUSH1 0x3 ADD SWAP1 DUP1 MLOAD SWAP1 PUSH1 0x20 ADD SWAP1 PUSH2 0x8D9 SWAP3 SWAP2 SWAP1 PUSH2 0x1F86 JUMP JUMPDEST POP DUP5 PUSH1 0x0 DUP1 CALLER PUSH20 0xFFFFFFFFFFFFFFFFFFFFFFFFFFFFFFFFFFFFFFFF AND PUSH20 0xFFFFFFFFFFFFFFFFFFFFFFFFFFFFFFFFFFFFFFFF AND DUP2 MSTORE PUSH1 0x20 ADD SWAP1 DUP2 MSTORE PUSH1 0x20 ADD PUSH1 0x0 KECCAK256 PUSH1 0x0 ADD PUSH1 0x4 ADD SWAP1 DUP1 MLOAD SWAP1 PUSH1 0x20 ADD SWAP1 PUSH2 0x932 SWAP3 SWAP2 SWAP1 PUSH2 0x1F86 JUMP JUMPDEST POP DUP4 PUSH1 0x0 DUP1 CALLER PUSH20 0xFFFFFFFFFFFFFFFFFFFFFFFFFFFFFFFFFFFFFFFF AND PUSH20 0xFFFFFFFFFFFFFFFFFFFFFFFFFFFFFFFFFFFFFFFF AND DUP2 MSTORE PUSH1 0x20 ADD SWAP1 DUP2 MSTORE PUSH1 0x20 ADD PUSH1 0x0 KECCAK256 PUSH1 0x0 ADD PUSH1 0x5 ADD SWAP1 DUP1 MLOAD SWAP1 PUSH1 0x20 ADD SWAP1 PUSH2 0x98B SWAP3 SWAP2 SWAP1 PUSH2 0x1F86 JUMP JUMPDEST POP DUP3 PUSH1 0x0 DUP1 CALLER PUSH20 0xFFFFFFFFFFFFFFFFFFFFFFFFFFFFFFFFFFFFFFFF AND PUSH20 0xFFFFFFFFFFFFFFFFFFFFFFFFFFFFFFFFFFFFFFFF AND DUP2 MSTORE PUSH1 0x20 ADD SWAP1 DUP2 MSTORE PUSH1 0x20 ADD PUSH1 0x0 KECCAK256 PUSH1 0x0 ADD PUSH1 0x6 ADD SWAP1 DUP1 MLOAD SWAP1 PUSH1 0x20 ADD SWAP1 PUSH2 0x9E4 SWAP3 SWAP2 SWAP1 PUSH2 0x1F86 JUMP JUMPDEST POP DUP2 PUSH1 0x0 DUP1 CALLER PUSH20 0xFFFFFFFFFFFFFFFFFFFFFFFFFFFFFFFFFFFFFFFF AND PUSH20 0xFFFFFFFFFFFFFFFFFFFFFFFFFFFFFFFFFFFFFFFF AND DUP2 MSTORE PUSH1 0x20 ADD SWAP1 DUP2 MSTORE PUSH1 0x20 ADD PUSH1 0x0 KECCAK256 PUSH1 0x0 ADD PUSH1 0x0 ADD SWAP1 DUP1 MLOAD SWAP1 PUSH1 0x20 ADD SWAP1 PUSH2 0xA3D SWAP3 SWAP2 SWAP1 PUSH2 0x1F86 JUMP JUMPDEST POP DUP1 PUSH1 0x0 DUP1 CALLER PUSH20 0xFFFFFFFFFFFFFFFFFFFFFFFFFFFFFFFFFFFFFFFF AND PUSH20 0xFFFFFFFFFFFFFFFFFFFFFFFFFFFFFFFFFFFFFFFF AND DUP2 MSTORE PUSH1 0x20 ADD SWAP1 DUP2 MSTORE PUSH1 0x20 ADD PUSH1 0x0 KECCAK256 PUSH1 0x0 ADD PUSH1 0x1 ADD SWAP1 DUP1 MLOAD SWAP1 PUSH1 0x20 ADD SWAP1 PUSH2 0xA96 SWAP3 SWAP2 SWAP1 PUSH2 0x1F86 JUMP JUMPDEST POP CALLER PUSH1 0x0 DUP1 CALLER PUSH20 0xFFFFFFFFFFFFFFFFFFFFFFFFFFFFFFFFFFFFFFFF AND PUSH20 0xFFFFFFFFFFFFFFFFFFFFFFFFFFFFFFFFFFFFFFFF AND DUP2 MSTORE PUSH1 0x20 ADD SWAP1 DUP2 MSTORE PUSH1 0x20 ADD PUSH1 0x0 KECCAK256 PUSH1 0x0 ADD PUSH1 0x2 ADD PUSH1 0x0 PUSH2 0x100 EXP DUP2 SLOAD DUP2 PUSH20 0xFFFFFFFFFFFFFFFFFFFFFFFFFFFFFFFFFFFFFFFF MUL NOT AND SWAP1 DUP4 PUSH20 0xFFFFFFFFFFFFFFFFFFFFFFFFFFFFFFFFFFFFFFFF AND MUL OR SWAP1 SSTORE POP TIMESTAMP PUSH1 0x0 DUP1 CALLER PUSH20 0xFFFFFFFFFFFFFFFFFFFFFFFFFFFFFFFFFFFFFFFF AND PUSH20 0xFFFFFFFFFFFFFFFFFFFFFFFFFFFFFFFFFFFFFFFF AND DUP2 MSTORE PUSH1 0x20 ADD SWAP1 DUP2 MSTORE PUSH1 0x20 ADD PUSH1 0x0 KECCAK256 PUSH1 0x0 ADD PUSH1 0x7 ADD DUP2 SWAP1 SSTORE POP POP POP POP POP POP POP JUMP JUMPDEST PUSH1 0x0 DUP1 CALLER PUSH20 0xFFFFFFFFFFFFFFFFFFFFFFFFFFFFFFFFFFFFFFFF AND PUSH20 0xFFFFFFFFFFFFFFFFFFFFFFFFFFFFFFFFFFFFFFFF AND DUP2 MSTORE PUSH1 0x20 ADD SWAP1 DUP2 MSTORE PUSH1 0x20 ADD PUSH1 0x0 KECCAK256 PUSH1 0x0 ADD PUSH1 0x0 DUP1 DUP3 ADD PUSH1 0x0 PUSH2 0xBBD SWAP2 SWAP1 PUSH2 0x200C JUMP JUMPDEST PUSH1 0x1 DUP3 ADD PUSH1 0x0 PUSH2 0xBCD SWAP2 SWAP1 PUSH2 0x200C JUMP JUMPDEST PUSH1 0x2 DUP3 ADD PUSH1 0x0 PUSH2 0x100 EXP DUP2 SLOAD SWAP1 PUSH20 0xFFFFFFFFFFFFFFFFFFFFFFFFFFFFFFFFFFFFFFFF MUL NOT AND SWAP1 SSTORE PUSH1 0x3 DUP3 ADD PUSH1 0x0 PUSH2 0xC04 SWAP2 SWAP1 PUSH2 0x200C JUMP JUMPDEST PUSH1 0x4 DUP3 ADD PUSH1 0x0 PUSH2 0xC14 SWAP2 SWAP1 PUSH2 0x200C JUMP JUMPDEST PUSH1 0x5 DUP3 ADD PUSH1 0x0 PUSH2 0xC24 SWAP2 SWAP1 PUSH2 0x200C JUMP JUMPDEST PUSH1 0x6 DUP3 ADD PUSH1 0x0 PUSH2 0xC34 SWAP2 SWAP1 PUSH2 0x200C JUMP JUMPDEST PUSH1 0x7 DUP3 ADD PUSH1 0x0 SWAP1 SSTORE POP POP JUMP JUMPDEST PUSH1 0x0 PUSH1 0x20 MSTORE DUP1 PUSH1 0x0 MSTORE PUSH1 0x40 PUSH1 0x0 KECCAK256 PUSH1 0x0 SWAP2 POP SWAP1 POP DUP1 PUSH1 0x0 ADD PUSH1 0x40 MLOAD DUP1 PUSH2 0x100 ADD PUSH1 0x40 MSTORE SWAP1 DUP2 PUSH1 0x0 DUP3 ADD DUP1 SLOAD PUSH2 0xC74 SWAP1 PUSH2 0x2BC4 JUMP JUMPDEST DUP1 PUSH1 0x1F ADD PUSH1 0x20 DUP1 SWAP2 DIV MUL PUSH1 0x20 ADD PUSH1 0x40 MLOAD SWAP1 DUP2 ADD PUSH1 0x40 MSTORE DUP1 SWAP3 SWAP2 SWAP1 DUP2 DUP2 MSTORE PUSH1 0x20 ADD DUP3 DUP1 SLOAD PUSH2 0xCA0 SWAP1 PUSH2 0x2BC4 JUMP JUMPDEST DUP1 ISZERO PUSH2 0xCED JUMPI DUP1 PUSH1 0x1F LT PUSH2 0xCC2 JUMPI PUSH2 0x100 DUP1 DUP4 SLOAD DIV MUL DUP4 MSTORE SWAP2 PUSH1 0x20 ADD SWAP2 PUSH2 0xCED JUMP JUMPDEST DUP3 ADD SWAP2 SWAP1 PUSH1 0x0 MSTORE PUSH1 0x20 PUSH1 0x0 KECCAK256 SWAP1 JUMPDEST DUP2 SLOAD DUP2 MSTORE SWAP1 PUSH1 0x1 ADD SWAP1 PUSH1 0x20 ADD DUP1 DUP4 GT PUSH2 0xCD0 JUMPI DUP3 SWAP1 SUB PUSH1 0x1F AND DUP3 ADD SWAP2 JUMPDEST POP POP POP POP POP DUP2 MSTORE PUSH1 0x20 ADD PUSH1 0x1 DUP3 ADD DUP1 SLOAD PUSH2 0xD06 SWAP1 PUSH2 0x2BC4 JUMP JUMPDEST DUP1 PUSH1 0x1F ADD PUSH1 0x20 DUP1 SWAP2 DIV MUL PUSH1 0x20 ADD PUSH1 0x40 MLOAD SWAP1 DUP2 ADD PUSH1 0x40 MSTORE DUP1 SWAP3 SWAP2 SWAP1 DUP2 DUP2 MSTORE PUSH1 0x20 ADD DUP3 DUP1 SLOAD PUSH2 0xD32 SWAP1 PUSH2 0x2BC4 JUMP JUMPDEST DUP1 ISZERO PUSH2 0xD7F JUMPI DUP1 PUSH1 0x1F LT PUSH2 0xD54 JUMPI PUSH2 0x100 DUP1 DUP4 SLOAD DIV MUL DUP4 MSTORE SWAP2 PUSH1 0x20 ADD SWAP2 PUSH2 0xD7F JUMP JUMPDEST DUP3 ADD SWAP2 SWAP1 PUSH1 0x0 MSTORE PUSH1 0x20 PUSH1 0x0 KECCAK256 SWAP1 JUMPDEST DUP2 SLOAD DUP2 MSTORE SWAP1 PUSH1 0x1 ADD SWAP1 PUSH1 0x20 ADD DUP1 DUP4 GT PUSH2 0xD62 JUMPI DUP3 SWAP1 SUB PUSH1 0x1F AND DUP3 ADD SWAP2 JUMPDEST POP POP POP POP POP DUP2 MSTORE PUSH1 0x20 ADD PUSH1 0x2 DUP3 ADD PUSH1 0x0 SWAP1 SLOAD SWAP1 PUSH2 0x100 EXP SWAP1 DIV PUSH20 0xFFFFFFFFFFFFFFFFFFFFFFFFFFFFFFFFFFFFFFFF AND PUSH20 0xFFFFFFFFFFFFFFFFFFFFFFFFFFFFFFFFFFFFFFFF AND PUSH20 0xFFFFFFFFFFFFFFFFFFFFFFFFFFFFFFFFFFFFFFFF AND DUP2 MSTORE PUSH1 0x20 ADD PUSH1 0x3 DUP3 ADD DUP1 SLOAD PUSH2 0xDEE SWAP1 PUSH2 0x2BC4 JUMP JUMPDEST DUP1 PUSH1 0x1F ADD PUSH1 0x20 DUP1 SWAP2 DIV MUL PUSH1 0x20 ADD PUSH1 0x40 MLOAD SWAP1 DUP2 ADD PUSH1 0x40 MSTORE DUP1 SWAP3 SWAP2 SWAP1 DUP2 DUP2 MSTORE PUSH1 0x20 ADD DUP3 DUP1 SLOAD PUSH2 0xE1A SWAP1 PUSH2 0x2BC4 JUMP JUMPDEST DUP1 ISZERO PUSH2 0xE67 JUMPI DUP1 PUSH1 0x1F LT PUSH2 0xE3C JUMPI PUSH2 0x100 DUP1 DUP4 SLOAD DIV MUL DUP4 MSTORE SWAP2 PUSH1 0x20 ADD SWAP2 PUSH2 0xE67 JUMP JUMPDEST DUP3 ADD SWAP2 SWAP1 PUSH1 0x0 MSTORE PUSH1 0x20 PUSH1 0x0 KECCAK256 SWAP1 JUMPDEST DUP2 SLOAD DUP2 MSTORE SWAP1 PUSH1 0x1 ADD SWAP1 PUSH1 0x20 ADD DUP1 DUP4 GT PUSH2 0xE4A JUMPI DUP3 SWAP1 SUB PUSH1 0x1F AND DUP3 ADD SWAP2 JUMPDEST POP POP POP POP POP DUP2 MSTORE PUSH1 0x20 ADD PUSH1 0x4 DUP3 ADD DUP1 SLOAD PUSH2 0xE80 SWAP1 PUSH2 0x2BC4 JUMP JUMPDEST DUP1 PUSH1 0x1F ADD PUSH1 0x20 DUP1 SWAP2 DIV MUL PUSH1 0x20 ADD PUSH1 0x40 MLOAD SWAP1 DUP2 ADD PUSH1 0x40 MSTORE DUP1 SWAP3 SWAP2 SWAP1 DUP2 DUP2 MSTORE PUSH1 0x20 ADD DUP3 DUP1 SLOAD PUSH2 0xEAC SWAP1 PUSH2 0x2BC4 JUMP JUMPDEST DUP1 ISZERO PUSH2 0xEF9 JUMPI DUP1 PUSH1 0x1F LT PUSH2 0xECE JUMPI PUSH2 0x100 DUP1 DUP4 SLOAD DIV MUL DUP4 MSTORE SWAP2 PUSH1 0x20 ADD SWAP2 PUSH2 0xEF9 JUMP JUMPDEST DUP3 ADD SWAP2 SWAP1 PUSH1 0x0 MSTORE PUSH1 0x20 PUSH1 0x0 KECCAK256 SWAP1 JUMPDEST DUP2 SLOAD DUP2 MSTORE SWAP1 PUSH1 0x1 ADD SWAP1 PUSH1 0x20 ADD DUP1 DUP4 GT PUSH2 0xEDC JUMPI DUP3 SWAP1 SUB PUSH1 0x1F AND DUP3 ADD SWAP2 JUMPDEST POP POP POP POP POP DUP2 MSTORE PUSH1 0x20 ADD PUSH1 0x5 DUP3 ADD DUP1 SLOAD PUSH2 0xF12 SWAP1 PUSH2 0x2BC4 JUMP JUMPDEST DUP1 PUSH1 0x1F ADD PUSH1 0x20 DUP1 SWAP2 DIV MUL PUSH1 0x20 ADD PUSH1 0x40 MLOAD SWAP1 DUP2 ADD PUSH1 0x40 MSTORE DUP1 SWAP3 SWAP2 SWAP1 DUP2 DUP2 MSTORE PUSH1 0x20 ADD DUP3 DUP1 SLOAD PUSH2 0xF3E SWAP1 PUSH2 0x2BC4 JUMP JUMPDEST DUP1 ISZERO PUSH2 0xF8B JUMPI DUP1 PUSH1 0x1F LT PUSH2 0xF60 JUMPI PUSH2 0x100 DUP1 DUP4 SLOAD DIV MUL DUP4 MSTORE SWAP2 PUSH1 0x20 ADD SWAP2 PUSH2 0xF8B JUMP JUMPDEST DUP3 ADD SWAP2 SWAP1 PUSH1 0x0 MSTORE PUSH1 0x20 PUSH1 0x0 KECCAK256 SWAP1 JUMPDEST DUP2 SLOAD DUP2 MSTORE SWAP1 PUSH1 0x1 ADD SWAP1 PUSH1 0x20 ADD DUP1 DUP4 GT PUSH2 0xF6E JUMPI DUP3 SWAP1 SUB PUSH1 0x1F AND DUP3 ADD SWAP2 JUMPDEST POP POP POP POP POP DUP2 MSTORE PUSH1 0x20 ADD PUSH1 0x6 DUP3 ADD DUP1 SLOAD PUSH2 0xFA4 SWAP1 PUSH2 0x2BC4 JUMP JUMPDEST DUP1 PUSH1 0x1F ADD PUSH1 0x20 DUP1 SWAP2 DIV MUL PUSH1 0x20 ADD PUSH1 0x40 MLOAD SWAP1 DUP2 ADD PUSH1 0x40 MSTORE DUP1 SWAP3 SWAP2 SWAP1 DUP2 DUP2 MSTORE PUSH1 0x20 ADD DUP3 DUP1 SLOAD PUSH2 0xFD0 SWAP1 PUSH2 0x2BC4 JUMP JUMPDEST DUP1 ISZERO PUSH2 0x101D JUMPI DUP1 PUSH1 0x1F LT PUSH2 0xFF2 JUMPI PUSH2 0x100 DUP1 DUP4 SLOAD DIV MUL DUP4 MSTORE SWAP2 PUSH1 0x20 ADD SWAP2 PUSH2 0x101D JUMP JUMPDEST DUP3 ADD SWAP2 SWAP1 PUSH1 0x0 MSTORE PUSH1 0x20 PUSH1 0x0 KECCAK256 SWAP1 JUMPDEST DUP2 SLOAD DUP2 MSTORE SWAP1 PUSH1 0x1 ADD SWAP1 PUSH1 0x20 ADD DUP1 DUP4 GT PUSH2 0x1000 JUMPI DUP3 SWAP1 SUB PUSH1 0x1F AND DUP3 ADD SWAP2 JUMPDEST POP POP POP POP POP DUP2 MSTORE PUSH1 0x20 ADD PUSH1 0x7 DUP3 ADD SLOAD DUP2 MSTORE POP POP SWAP1 DUP1 PUSH1 0x8 ADD PUSH1 0x40 MLOAD DUP1 PUSH1 0xC0 ADD PUSH1 0x40 MSTORE SWAP1 DUP2 PUSH1 0x0 DUP3 ADD DUP1 SLOAD PUSH2 0x1050 SWAP1 PUSH2 0x2BC4 JUMP JUMPDEST DUP1 PUSH1 0x1F ADD PUSH1 0x20 DUP1 SWAP2 DIV MUL PUSH1 0x20 ADD PUSH1 0x40 MLOAD SWAP1 DUP2 ADD PUSH1 0x40 MSTORE DUP1 SWAP3 SWAP2 SWAP1 DUP2 DUP2 MSTORE PUSH1 0x20 ADD DUP3 DUP1 SLOAD PUSH2 0x107C SWAP1 PUSH2 0x2BC4 JUMP JUMPDEST DUP1 ISZERO PUSH2 0x10C9 JUMPI DUP1 PUSH1 0x1F LT PUSH2 0x109E JUMPI PUSH2 0x100 DUP1 DUP4 SLOAD DIV MUL DUP4 MSTORE SWAP2 PUSH1 0x20 ADD SWAP2 PUSH2 0x10C9 JUMP JUMPDEST DUP3 ADD SWAP2 SWAP1 PUSH1 0x0 MSTORE PUSH1 0x20 PUSH1 0x0 KECCAK256 SWAP1 JUMPDEST DUP2 SLOAD DUP2 MSTORE SWAP1 PUSH1 0x1 ADD SWAP1 PUSH1 0x20 ADD DUP1 DUP4 GT PUSH2 0x10AC JUMPI DUP3 SWAP1 SUB PUSH1 0x1F AND DUP3 ADD SWAP2 JUMPDEST POP POP POP POP POP DUP2 MSTORE PUSH1 0x20 ADD PUSH1 0x1 DUP3 ADD DUP1 SLOAD PUSH2 0x10E2 SWAP1 PUSH2 0x2BC4 JUMP JUMPDEST DUP1 PUSH1 0x1F ADD PUSH1 0x20 DUP1 SWAP2 DIV MUL PUSH1 0x20 ADD PUSH1 0x40 MLOAD SWAP1 DUP2 ADD PUSH1 0x40 MSTORE DUP1 SWAP3 SWAP2 SWAP1 DUP2 DUP2 MSTORE PUSH1 0x20 ADD DUP3 DUP1 SLOAD PUSH2 0x110E SWAP1 PUSH2 0x2BC4 JUMP JUMPDEST DUP1 ISZERO PUSH2 0x115B JUMPI DUP1 PUSH1 0x1F LT PUSH2 0x1130 JUMPI PUSH2 0x100 DUP1 DUP4 SLOAD DIV MUL DUP4 MSTORE SWAP2 PUSH1 0x20 ADD SWAP2 PUSH2 0x115B JUMP JUMPDEST DUP3 ADD SWAP2 SWAP1 PUSH1 0x0 MSTORE PUSH1 0x20 PUSH1 0x0 KECCAK256 SWAP1 JUMPDEST DUP2 SLOAD DUP2 MSTORE SWAP1 PUSH1 0x1 ADD SWAP1 PUSH1 0x20 ADD DUP1 DUP4 GT PUSH2 0x113E JUMPI DUP3 SWAP1 SUB PUSH1 0x1F AND DUP3 ADD SWAP2 JUMPDEST POP POP POP POP POP DUP2 MSTORE PUSH1 0x20 ADD PUSH1 0x2 DUP3 ADD DUP1 SLOAD PUSH2 0x1174 SWAP1 PUSH2 0x2BC4 JUMP JUMPDEST DUP1 PUSH1 0x1F ADD PUSH1 0x20 DUP1 SWAP2 DIV MUL PUSH1 0x20 ADD PUSH1 0x40 MLOAD SWAP1 DUP2 ADD PUSH1 0x40 MSTORE DUP1 SWAP3 SWAP2 SWAP1 DUP2 DUP2 MSTORE PUSH1 0x20 ADD DUP3 DUP1 SLOAD PUSH2 0x11A0 SWAP1 PUSH2 0x2BC4 JUMP JUMPDEST DUP1 ISZERO PUSH2 0x11ED JUMPI DUP1 PUSH1 0x1F LT PUSH2 0x11C2 JUMPI PUSH2 0x100 DUP1 DUP4 SLOAD DIV MUL DUP4 MSTORE SWAP2 PUSH1 0x20 ADD SWAP2 PUSH2 0x11ED JUMP JUMPDEST DUP3 ADD SWAP2 SWAP1 PUSH1 0x0 MSTORE PUSH1 0x20 PUSH1 0x0 KECCAK256 SWAP1 JUMPDEST DUP2 SLOAD DUP2 MSTORE SWAP1 PUSH1 0x1 ADD SWAP1 PUSH1 0x20 ADD DUP1 DUP4 GT PUSH2 0x11D0 JUMPI DUP3 SWAP1 SUB PUSH1 0x1F AND DUP3 ADD SWAP2 JUMPDEST POP POP POP POP POP DUP2 MSTORE PUSH1 0x20 ADD PUSH1 0x3 DUP3 ADD DUP1 SLOAD PUSH2 0x1206 SWAP1 PUSH2 0x2BC4 JUMP JUMPDEST DUP1 PUSH1 0x1F ADD PUSH1 0x20 DUP1 SWAP2 DIV MUL PUSH1 0x20 ADD PUSH1 0x40 MLOAD SWAP1 DUP2 ADD PUSH1 0x40 MSTORE DUP1 SWAP3 SWAP2 SWAP1 DUP2 DUP2 MSTORE PUSH1 0x20 ADD DUP3 DUP1 SLOAD PUSH2 0x1232 SWAP1 PUSH2 0x2BC4 JUMP JUMPDEST DUP1 ISZERO PUSH2 0x127F JUMPI DUP1 PUSH1 0x1F LT PUSH2 0x1254 JUMPI PUSH2 0x100 DUP1 DUP4 SLOAD DIV MUL DUP4 MSTORE SWAP2 PUSH1 0x20 ADD SWAP2 PUSH2 0x127F JUMP JUMPDEST DUP3 ADD SWAP2 SWAP1 PUSH1 0x0 MSTORE PUSH1 0x20 PUSH1 0x0 KECCAK256 SWAP1 JUMPDEST DUP2 SLOAD DUP2 MSTORE SWAP1 PUSH1 0x1 ADD SWAP1 PUSH1 0x20 ADD DUP1 DUP4 GT PUSH2 0x1262 JUMPI DUP3 SWAP1 SUB PUSH1 0x1F AND DUP3 ADD SWAP2 JUMPDEST POP POP POP POP POP DUP2 MSTORE PUSH1 0x20 ADD PUSH1 0x4 DUP3 ADD DUP1 SLOAD PUSH2 0x1298 SWAP1 PUSH2 0x2BC4 JUMP JUMPDEST DUP1 PUSH1 0x1F ADD PUSH1 0x20 DUP1 SWAP2 DIV MUL PUSH1 0x20 ADD PUSH1 0x40 MLOAD SWAP1 DUP2 ADD PUSH1 0x40 MSTORE DUP1 SWAP3 SWAP2 SWAP1 DUP2 DUP2 MSTORE PUSH1 0x20 ADD DUP3 DUP1 SLOAD PUSH2 0x12C4 SWAP1 PUSH2 0x2BC4 JUMP JUMPDEST DUP1 ISZERO PUSH2 0x1311 JUMPI DUP1 PUSH1 0x1F LT PUSH2 0x12E6 JUMPI PUSH2 0x100 DUP1 DUP4 SLOAD DIV MUL DUP4 MSTORE SWAP2 PUSH1 0x20 ADD SWAP2 PUSH2 0x1311 JUMP JUMPDEST DUP3 ADD SWAP2 SWAP1 PUSH1 0x0 MSTORE PUSH1 0x20 PUSH1 0x0 KECCAK256 SWAP1 JUMPDEST DUP2 SLOAD DUP2 MSTORE SWAP1 PUSH1 0x1 ADD SWAP1 PUSH1 0x20 ADD DUP1 DUP4 GT PUSH2 0x12F4 JUMPI DUP3 SWAP1 SUB PUSH1 0x1F AND DUP3 ADD SWAP2 JUMPDEST POP POP POP POP POP DUP2 MSTORE PUSH1 0x20 ADD PUSH1 0x5 DUP3 ADD DUP1 SLOAD PUSH2 0x132A SWAP1 PUSH2 0x2BC4 JUMP JUMPDEST DUP1 PUSH1 0x1F ADD PUSH1 0x20 DUP1 SWAP2 DIV MUL PUSH1 0x20 ADD PUSH1 0x40 MLOAD SWAP1 DUP2 ADD PUSH1 0x40 MSTORE DUP1 SWAP3 SWAP2 SWAP1 DUP2 DUP2 MSTORE PUSH1 0x20 ADD DUP3 DUP1 SLOAD PUSH2 0x1356 SWAP1 PUSH2 0x2BC4 JUMP JUMPDEST DUP1 ISZERO PUSH2 0x13A3 JUMPI DUP1 PUSH1 0x1F LT PUSH2 0x1378 JUMPI PUSH2 0x100 DUP1 DUP4 SLOAD DIV MUL DUP4 MSTORE SWAP2 PUSH1 0x20 ADD SWAP2 PUSH2 0x13A3 JUMP JUMPDEST DUP3 ADD SWAP2 SWAP1 PUSH1 0x0 MSTORE PUSH1 0x20 PUSH1 0x0 KECCAK256 SWAP1 JUMPDEST DUP2 SLOAD DUP2 MSTORE SWAP1 PUSH1 0x1 ADD SWAP1 PUSH1 0x20 ADD DUP1 DUP4 GT PUSH2 0x1386 JUMPI DUP3 SWAP1 SUB PUSH1 0x1F AND DUP3 ADD SWAP2 JUMPDEST POP POP POP POP POP DUP2 MSTORE POP POP SWAP1 DUP1 PUSH1 0xE ADD PUSH1 0x40 MLOAD DUP1 PUSH1 0x60 ADD PUSH1 0x40 MSTORE SWAP1 DUP2 PUSH1 0x0 DUP3 ADD DUP1 SLOAD DUP1 PUSH1 0x20 MUL PUSH1 0x20 ADD PUSH1 0x40 MLOAD SWAP1 DUP2 ADD PUSH1 0x40 MSTORE DUP1 SWAP3 SWAP2 SWAP1 DUP2 DUP2 MSTORE PUSH1 0x20 ADD PUSH1 0x0 SWAP1 JUMPDEST DUP3 DUP3 LT ISZERO PUSH2 0x148D JUMPI DUP4 DUP3 SWAP1 PUSH1 0x0 MSTORE PUSH1 0x20 PUSH1 0x0 KECCAK256 ADD DUP1 SLOAD PUSH2 0x1400 SWAP1 PUSH2 0x2BC4 JUMP JUMPDEST DUP1 PUSH1 0x1F ADD PUSH1 0x20 DUP1 SWAP2 DIV MUL PUSH1 0x20 ADD PUSH1 0x40 MLOAD SWAP1 DUP2 ADD PUSH1 0x40 MSTORE DUP1 SWAP3 SWAP2 SWAP1 DUP2 DUP2 MSTORE PUSH1 0x20 ADD DUP3 DUP1 SLOAD PUSH2 0x142C SWAP1 PUSH2 0x2BC4 JUMP JUMPDEST DUP1 ISZERO PUSH2 0x1479 JUMPI DUP1 PUSH1 0x1F LT PUSH2 0x144E JUMPI PUSH2 0x100 DUP1 DUP4 SLOAD DIV MUL DUP4 MSTORE SWAP2 PUSH1 0x20 ADD SWAP2 PUSH2 0x1479 JUMP JUMPDEST DUP3 ADD SWAP2 SWAP1 PUSH1 0x0 MSTORE PUSH1 0x20 PUSH1 0x0 KECCAK256 SWAP1 JUMPDEST DUP2 SLOAD DUP2 MSTORE SWAP1 PUSH1 0x1 ADD SWAP1 PUSH1 0x20 ADD DUP1 DUP4 GT PUSH2 0x145C JUMPI DUP3 SWAP1 SUB PUSH1 0x1F AND DUP3 ADD SWAP2 JUMPDEST POP POP POP POP POP DUP2 MSTORE PUSH1 0x20 ADD SWAP1 PUSH1 0x1 ADD SWAP1 PUSH2 0x13E1 JUMP JUMPDEST POP POP POP POP DUP2 MSTORE PUSH1 0x20 ADD PUSH1 0x1 DUP3 ADD DUP1 SLOAD DUP1 PUSH1 0x20 MUL PUSH1 0x20 ADD PUSH1 0x40 MLOAD SWAP1 DUP2 ADD PUSH1 0x40 MSTORE DUP1 SWAP3 SWAP2 SWAP1 DUP2 DUP2 MSTORE PUSH1 0x20 ADD PUSH1 0x0 SWAP1 JUMPDEST DUP3 DUP3 LT ISZERO PUSH2 0x1566 JUMPI DUP4 DUP3 SWAP1 PUSH1 0x0 MSTORE PUSH1 0x20 PUSH1 0x0 KECCAK256 ADD DUP1 SLOAD PUSH2 0x14D9 SWAP1 PUSH2 0x2BC4 JUMP JUMPDEST DUP1 PUSH1 0x1F ADD PUSH1 0x20 DUP1 SWAP2 DIV MUL PUSH1 0x20 ADD PUSH1 0x40 MLOAD SWAP1 DUP2 ADD PUSH1 0x40 MSTORE DUP1 SWAP3 SWAP2 SWAP1 DUP2 DUP2 MSTORE PUSH1 0x20 ADD DUP3 DUP1 SLOAD PUSH2 0x1505 SWAP1 PUSH2 0x2BC4 JUMP JUMPDEST DUP1 ISZERO PUSH2 0x1552 JUMPI DUP1 PUSH1 0x1F LT PUSH2 0x1527 JUMPI PUSH2 0x100 DUP1 DUP4 SLOAD DIV MUL DUP4 MSTORE SWAP2 PUSH1 0x20 ADD SWAP2 PUSH2 0x1552 JUMP JUMPDEST DUP3 ADD SWAP2 SWAP1 PUSH1 0x0 MSTORE PUSH1 0x20 PUSH1 0x0 KECCAK256 SWAP1 JUMPDEST DUP2 SLOAD DUP2 MSTORE SWAP1 PUSH1 0x1 ADD SWAP1 PUSH1 0x20 ADD DUP1 DUP4 GT PUSH2 0x1535 JUMPI DUP3 SWAP1 SUB PUSH1 0x1F AND DUP3 ADD SWAP2 JUMPDEST POP POP POP POP POP DUP2 MSTORE PUSH1 0x20 ADD SWAP1 PUSH1 0x1 ADD SWAP1 PUSH2 0x14BA JUMP JUMPDEST POP POP POP POP DUP2 MSTORE PUSH1 0x20 ADD PUSH1 0x2 DUP3 ADD DUP1 SLOAD DUP1 PUSH1 0x20 MUL PUSH1 0x20 ADD PUSH1 0x40 MLOAD SWAP1 DUP2 ADD PUSH1 0x40 MSTORE DUP1 SWAP3 SWAP2 SWAP1 DUP2 DUP2 MSTORE PUSH1 0x20 ADD PUSH1 0x0 SWAP1 JUMPDEST DUP3 DUP3 LT ISZERO PUSH2 0x163F JUMPI DUP4 DUP3 SWAP1 PUSH1 0x0 MSTORE PUSH1 0x20 PUSH1 0x0 KECCAK256 ADD DUP1 SLOAD PUSH2 0x15B2 SWAP1 PUSH2 0x2BC4 JUMP JUMPDEST DUP1 PUSH1 0x1F ADD PUSH1 0x20 DUP1 SWAP2 DIV MUL PUSH1 0x20 ADD PUSH1 0x40 MLOAD SWAP1 DUP2 ADD PUSH1 0x40 MSTORE DUP1 SWAP3 SWAP2 SWAP1 DUP2 DUP2 MSTORE PUSH1 0x20 ADD DUP3 DUP1 SLOAD PUSH2 0x15DE SWAP1 PUSH2 0x2BC4 JUMP JUMPDEST DUP1 ISZERO PUSH2 0x162B JUMPI DUP1 PUSH1 0x1F LT PUSH2 0x1600 JUMPI PUSH2 0x100 DUP1 DUP4 SLOAD DIV MUL DUP4 MSTORE SWAP2 PUSH1 0x20 ADD SWAP2 PUSH2 0x162B JUMP JUMPDEST DUP3 ADD SWAP2 SWAP1 PUSH1 0x0 MSTORE PUSH1 0x20 PUSH1 0x0 KECCAK256 SWAP1 JUMPDEST DUP2 SLOAD DUP2 MSTORE SWAP1 PUSH1 0x1 ADD SWAP1 PUSH1 0x20 ADD DUP1 DUP4 GT PUSH2 0x160E JUMPI DUP3 SWAP1 SUB PUSH1 0x1F AND DUP3 ADD SWAP2 JUMPDEST POP POP POP POP POP DUP2 MSTORE PUSH1 0x20 ADD SWAP1 PUSH1 0x1 ADD SWAP1 PUSH2 0x1593 JUMP JUMPDEST POP POP POP POP DUP2 MSTORE POP POP SWAP1 DUP1 PUSH1 0x12 ADD PUSH1 0x40 MLOAD DUP1 PUSH1 0x40 ADD PUSH1 0x40 MSTORE SWAP1 DUP2 PUSH1 0x0 DUP3 ADD DUP1 SLOAD DUP1 PUSH1 0x20 MUL PUSH1 0x20 ADD PUSH1 0x40 MLOAD SWAP1 DUP2 ADD PUSH1 0x40 MSTORE DUP1 SWAP3 SWAP2 SWAP1 DUP2 DUP2 MSTORE PUSH1 0x20 ADD PUSH1 0x0 SWAP1 JUMPDEST DUP3 DUP3 LT ISZERO PUSH2 0x1728 JUMPI DUP4 DUP3 SWAP1 PUSH1 0x0 MSTORE PUSH1 0x20 PUSH1 0x0 KECCAK256 ADD DUP1 SLOAD PUSH2 0x169B SWAP1 PUSH2 0x2BC4 JUMP JUMPDEST DUP1 PUSH1 0x1F ADD PUSH1 0x20 DUP1 SWAP2 DIV MUL PUSH1 0x20 ADD PUSH1 0x40 MLOAD SWAP1 DUP2 ADD PUSH1 0x40 MSTORE DUP1 SWAP3 SWAP2 SWAP1 DUP2 DUP2 MSTORE PUSH1 0x20 ADD DUP3 DUP1 SLOAD PUSH2 0x16C7 SWAP1 PUSH2 0x2BC4 JUMP JUMPDEST DUP1 ISZERO PUSH2 0x1714 JUMPI DUP1 PUSH1 0x1F LT PUSH2 0x16E9 JUMPI PUSH2 0x100 DUP1 DUP4 SLOAD DIV MUL DUP4 MSTORE SWAP2 PUSH1 0x20 ADD SWAP2 PUSH2 0x1714 JUMP JUMPDEST DUP3 ADD SWAP2 SWAP1 PUSH1 0x0 MSTORE PUSH1 0x20 PUSH1 0x0 KECCAK256 SWAP1 JUMPDEST DUP2 SLOAD DUP2 MSTORE SWAP1 PUSH1 0x1 ADD SWAP1 PUSH1 0x20 ADD DUP1 DUP4 GT PUSH2 0x16F7 JUMPI DUP3 SWAP1 SUB PUSH1 0x1F AND DUP3 ADD SWAP2 JUMPDEST POP POP POP POP POP DUP2 MSTORE PUSH1 0x20 ADD SWAP1 PUSH1 0x1 ADD SWAP1 PUSH2 0x167C JUMP JUMPDEST POP POP POP POP DUP2 MSTORE PUSH1 0x20 ADD PUSH1 0x1 DUP3 ADD DUP1 SLOAD DUP1 PUSH1 0x20 MUL PUSH1 0x20 ADD PUSH1 0x40 MLOAD SWAP1 DUP2 ADD PUSH1 0x40 MSTORE DUP1 SWAP3 SWAP2 SWAP1 DUP2 DUP2 MSTORE PUSH1 0x20 ADD PUSH1 0x0 SWAP1 JUMPDEST DUP3 DUP3 LT ISZERO PUSH2 0x1801 JUMPI DUP4 DUP3 SWAP1 PUSH1 0x0 MSTORE PUSH1 0x20 PUSH1 0x0 KECCAK256 ADD DUP1 SLOAD PUSH2 0x1774 SWAP1 PUSH2 0x2BC4 JUMP JUMPDEST DUP1 PUSH1 0x1F ADD PUSH1 0x20 DUP1 SWAP2 DIV MUL PUSH1 0x20 ADD PUSH1 0x40 MLOAD SWAP1 DUP2 ADD PUSH1 0x40 MSTORE DUP1 SWAP3 SWAP2 SWAP1 DUP2 DUP2 MSTORE PUSH1 0x20 ADD DUP3 DUP1 SLOAD PUSH2 0x17A0 SWAP1 PUSH2 0x2BC4 JUMP JUMPDEST DUP1 ISZERO PUSH2 0x17ED JUMPI DUP1 PUSH1 0x1F LT PUSH2 0x17C2 JUMPI PUSH2 0x100 DUP1 DUP4 SLOAD DIV MUL DUP4 MSTORE SWAP2 PUSH1 0x20 ADD SWAP2 PUSH2 0x17ED JUMP JUMPDEST DUP3 ADD SWAP2 SWAP1 PUSH1 0x0 MSTORE PUSH1 0x20 PUSH1 0x0 KECCAK256 SWAP1 JUMPDEST DUP2 SLOAD DUP2 MSTORE SWAP1 PUSH1 0x1 ADD SWAP1 PUSH1 0x20 ADD DUP1 DUP4 GT PUSH2 0x17D0 JUMPI DUP3 SWAP1 SUB PUSH1 0x1F AND DUP3 ADD SWAP2 JUMPDEST POP POP POP POP POP DUP2 MSTORE PUSH1 0x20 ADD SWAP1 PUSH1 0x1 ADD SWAP1 PUSH2 0x1755 JUMP JUMPDEST POP POP POP POP DUP2 MSTORE POP POP SWAP1 POP DUP5 JUMP JUMPDEST PUSH1 0x0 DUP1 CALLER PUSH20 0xFFFFFFFFFFFFFFFFFFFFFFFFFFFFFFFFFFFFFFFF AND PUSH20 0xFFFFFFFFFFFFFFFFFFFFFFFFFFFFFFFFFFFFFFFF AND DUP2 MSTORE PUSH1 0x20 ADD SWAP1 DUP2 MSTORE PUSH1 0x20 ADD PUSH1 0x0 KECCAK256 PUSH1 0x11 ADD PUSH1 0x0 PUSH2 0x185B SWAP2 SWAP1 PUSH2 0x204C JUMP JUMPDEST JUMP JUMPDEST PUSH1 0x60 DUP1 PUSH1 0x60 DUP1 PUSH1 0x60 PUSH1 0x0 DUP1 CALLER PUSH20 0xFFFFFFFFFFFFFFFFFFFFFFFFFFFFFFFFFFFFFFFF AND PUSH20 0xFFFFFFFFFFFFFFFFFFFFFFFFFFFFFFFFFFFFFFFF AND DUP2 MSTORE PUSH1 0x20 ADD SWAP1 DUP2 MSTORE PUSH1 0x20 ADD PUSH1 0x0 KECCAK256 PUSH1 0x11 ADD DUP7 DUP2 SLOAD DUP2 LT PUSH2 0x18B8 JUMPI PUSH2 0x18B7 PUSH2 0x2C56 JUMP JUMPDEST JUMPDEST SWAP1 PUSH1 0x0 MSTORE PUSH1 0x20 PUSH1 0x0 KECCAK256 SWAP1 PUSH1 0x5 MUL ADD PUSH1 0x0 ADD PUSH1 0x0 DUP1 CALLER PUSH20 0xFFFFFFFFFFFFFFFFFFFFFFFFFFFFFFFFFFFFFFFF AND PUSH20 0xFFFFFFFFFFFFFFFFFFFFFFFFFFFFFFFFFFFFFFFF AND DUP2 MSTORE PUSH1 0x20 ADD SWAP1 DUP2 MSTORE PUSH1 0x20 ADD PUSH1 0x0 KECCAK256 PUSH1 0x11 ADD DUP8 DUP2 SLOAD DUP2 LT PUSH2 0x191C JUMPI PUSH2 0x191B PUSH2 0x2C56 JUMP JUMPDEST JUMPDEST SWAP1 PUSH1 0x0 MSTORE PUSH1 0x20 PUSH1 0x0 KECCAK256 SWAP1 PUSH1 0x5 MUL ADD PUSH1 0x1 ADD PUSH1 0x0 DUP1 CALLER PUSH20 0xFFFFFFFFFFFFFFFFFFFFFFFFFFFFFFFFFFFFFFFF AND PUSH20 0xFFFFFFFFFFFFFFFFFFFFFFFFFFFFFFFFFFFFFFFF AND DUP2 MSTORE PUSH1 0x20 ADD SWAP1 DUP2 MSTORE PUSH1 0x20 ADD PUSH1 0x0 KECCAK256 PUSH1 0x11 ADD DUP9 DUP2 SLOAD DUP2 LT PUSH2 0x1980 JUMPI PUSH2 0x197F PUSH2 0x2C56 JUMP JUMPDEST JUMPDEST SWAP1 PUSH1 0x0 MSTORE PUSH1 0x20 PUSH1 0x0 KECCAK256 SWAP1 PUSH1 0x5 MUL ADD PUSH1 0x2 ADD PUSH1 0x0 DUP1 CALLER PUSH20 0xFFFFFFFFFFFFFFFFFFFFFFFFFFFFFFFFFFFFFFFF AND PUSH20 0xFFFFFFFFFFFFFFFFFFFFFFFFFFFFFFFFFFFFFFFF AND DUP2 MSTORE PUSH1 0x20 ADD SWAP1 DUP2 MSTORE PUSH1 0x20 ADD PUSH1 0x0 KECCAK256 PUSH1 0x11 ADD DUP10 DUP2 SLOAD DUP2 LT PUSH2 0x19E4 JUMPI PUSH2 0x19E3 PUSH2 0x2C56 JUMP JUMPDEST JUMPDEST SWAP1 PUSH1 0x0 MSTORE PUSH1 0x20 PUSH1 0x0 KECCAK256 SWAP1 PUSH1 0x5 MUL ADD PUSH1 0x3 ADD PUSH1 0x0 DUP1 CALLER PUSH20 0xFFFFFFFFFFFFFFFFFFFFFFFFFFFFFFFFFFFFFFFF AND PUSH20 0xFFFFFFFFFFFFFFFFFFFFFFFFFFFFFFFFFFFFFFFF AND DUP2 MSTORE PUSH1 0x20 ADD SWAP1 DUP2 MSTORE PUSH1 0x20 ADD PUSH1 0x0 KECCAK256 PUSH1 0x11 ADD DUP11 DUP2 SLOAD DUP2 LT PUSH2 0x1A48 JUMPI PUSH2 0x1A47 PUSH2 0x2C56 JUMP JUMPDEST JUMPDEST SWAP1 PUSH1 0x0 MSTORE PUSH1 0x20 PUSH1 0x0 KECCAK256 SWAP1 PUSH1 0x5 MUL ADD PUSH1 0x4 ADD DUP5 DUP1 SLOAD PUSH2 0x1A65 SWAP1 PUSH2 0x2BC4 JUMP JUMPDEST DUP1 PUSH1 0x1F ADD PUSH1 0x20 DUP1 SWAP2 DIV MUL PUSH1 0x20 ADD PUSH1 0x40 MLOAD SWAP1 DUP2 ADD PUSH1 0x40 MSTORE DUP1 SWAP3 SWAP2 SWAP1 DUP2 DUP2 MSTORE PUSH1 0x20 ADD DUP3 DUP1 SLOAD PUSH2 0x1A91 SWAP1 PUSH2 0x2BC4 JUMP JUMPDEST DUP1 ISZERO PUSH2 0x1ADE JUMPI DUP1 PUSH1 0x1F LT PUSH2 0x1AB3 JUMPI PUSH2 0x100 DUP1 DUP4 SLOAD DIV MUL DUP4 MSTORE SWAP2 PUSH1 0x20 ADD SWAP2 PUSH2 0x1ADE JUMP JUMPDEST DUP3 ADD SWAP2 SWAP1 PUSH1 0x0 MSTORE PUSH1 0x20 PUSH1 0x0 KECCAK256 SWAP1 JUMPDEST DUP2 SLOAD DUP2 MSTORE SWAP1 PUSH1 0x1 ADD SWAP1 PUSH1 0x20 ADD DUP1 DUP4 GT PUSH2 0x1AC1 JUMPI DUP3 SWAP1 SUB PUSH1 0x1F AND DUP3 ADD SWAP2 JUMPDEST POP POP POP POP POP SWAP5 POP DUP4 DUP1 SLOAD PUSH2 0x1AF1 SWAP1 PUSH2 0x2BC4 JUMP JUMPDEST DUP1 PUSH1 0x1F ADD PUSH1 0x20 DUP1 SWAP2 DIV MUL PUSH1 0x20 ADD PUSH1 0x40 MLOAD SWAP1 DUP2 ADD PUSH1 0x40 MSTORE DUP1 SWAP3 SWAP2 SWAP1 DUP2 DUP2 MSTORE PUSH1 0x20 ADD DUP3 DUP1 SLOAD PUSH2 0x1B1D SWAP1 PUSH2 0x2BC4 JUMP JUMPDEST DUP1 ISZERO PUSH2 0x1B6A JUMPI DUP1 PUSH1 0x1F LT PUSH2 0x1B3F JUMPI PUSH2 0x100 DUP1 DUP4 SLOAD DIV MUL DUP4 MSTORE SWAP2 PUSH1 0x20 ADD SWAP2 PUSH2 0x1B6A JUMP JUMPDEST DUP3 ADD SWAP2 SWAP1 PUSH1 0x0 MSTORE PUSH1 0x20 PUSH1 0x0 KECCAK256 SWAP1 JUMPDEST DUP2 SLOAD DUP2 MSTORE SWAP1 PUSH1 0x1 ADD SWAP1 PUSH1 0x20 ADD DUP1 DUP4 GT PUSH2 0x1B4D JUMPI DUP3 SWAP1 SUB PUSH1 0x1F AND DUP3 ADD SWAP2 JUMPDEST POP POP POP POP POP SWAP4 POP DUP3 DUP1 SLOAD PUSH2 0x1B7D SWAP1 PUSH2 0x2BC4 JUMP JUMPDEST DUP1 PUSH1 0x1F ADD PUSH1 0x20 DUP1 SWAP2 DIV MUL PUSH1 0x20 ADD PUSH1 0x40 MLOAD SWAP1 DUP2 ADD PUSH1 0x40 MSTORE DUP1 SWAP3 SWAP2 SWAP1 DUP2 DUP2 MSTORE PUSH1 0x20 ADD DUP3 DUP1 SLOAD PUSH2 0x1BA9 SWAP1 PUSH2 0x2BC4 JUMP JUMPDEST DUP1 ISZERO PUSH2 0x1BF6 JUMPI DUP1 PUSH1 0x1F LT PUSH2 0x1BCB JUMPI PUSH2 0x100 DUP1 DUP4 SLOAD DIV MUL DUP4 MSTORE SWAP2 PUSH1 0x20 ADD SWAP2 PUSH2 0x1BF6 JUMP JUMPDEST DUP3 ADD SWAP2 SWAP1 PUSH1 0x0 MSTORE PUSH1 0x20 PUSH1 0x0 KECCAK256 SWAP1 JUMPDEST DUP2 SLOAD DUP2 MSTORE SWAP1 PUSH1 0x1 ADD SWAP1 PUSH1 0x20 ADD DUP1 DUP4 GT PUSH2 0x1BD9 JUMPI DUP3 SWAP1 SUB PUSH1 0x1F AND DUP3 ADD SWAP2 JUMPDEST POP POP POP POP POP SWAP3 POP DUP2 DUP1 SLOAD PUSH2 0x1C09 SWAP1 PUSH2 0x2BC4 JUMP JUMPDEST DUP1 PUSH1 0x1F ADD PUSH1 0x20 DUP1 SWAP2 DIV MUL PUSH1 0x20 ADD PUSH1 0x40 MLOAD SWAP1 DUP2 ADD PUSH1 0x40 MSTORE DUP1 SWAP3 SWAP2 SWAP1 DUP2 DUP2 MSTORE PUSH1 0x20 ADD DUP3 DUP1 SLOAD PUSH2 0x1C35 SWAP1 PUSH2 0x2BC4 JUMP JUMPDEST DUP1 ISZERO PUSH2 0x1C82 JUMPI DUP1 PUSH1 0x1F LT PUSH2 0x1C57 JUMPI PUSH2 0x100 DUP1 DUP4 SLOAD DIV MUL DUP4 MSTORE SWAP2 PUSH1 0x20 ADD SWAP2 PUSH2 0x1C82 JUMP JUMPDEST DUP3 ADD SWAP2 SWAP1 PUSH1 0x0 MSTORE PUSH1 0x20 PUSH1 0x0 KECCAK256 SWAP1 JUMPDEST DUP2 SLOAD DUP2 MSTORE SWAP1 PUSH1 0x1 ADD SWAP1 PUSH1 0x20 ADD DUP1 DUP4 GT PUSH2 0x1C65 JUMPI DUP3 SWAP1 SUB PUSH1 0x1F AND DUP3 ADD SWAP2 JUMPDEST POP POP POP POP POP SWAP2 POP DUP1 DUP1 SLOAD PUSH2 0x1C95 SWAP1 PUSH2 0x2BC4 JUMP JUMPDEST DUP1 PUSH1 0x1F ADD PUSH1 0x20 DUP1 SWAP2 DIV MUL PUSH1 0x20 ADD PUSH1 0x40 MLOAD SWAP1 DUP2 ADD PUSH1 0x40 MSTORE DUP1 SWAP3 SWAP2 SWAP1 DUP2 DUP2 MSTORE PUSH1 0x20 ADD DUP3 DUP1 SLOAD PUSH2 0x1CC1 SWAP1 PUSH2 0x2BC4 JUMP JUMPDEST DUP1 ISZERO PUSH2 0x1D0E JUMPI DUP1 PUSH1 0x1F LT PUSH2 0x1CE3 JUMPI PUSH2 0x100 DUP1 DUP4 SLOAD DIV MUL DUP4 MSTORE SWAP2 PUSH1 0x20 ADD SWAP2 PUSH2 0x1D0E JUMP JUMPDEST DUP3 ADD SWAP2 SWAP1 PUSH1 0x0 MSTORE PUSH1 0x20 PUSH1 0x0 KECCAK256 SWAP1 JUMPDEST DUP2 SLOAD DUP2 MSTORE SWAP1 PUSH1 0x1 ADD SWAP1 PUSH1 0x20 ADD DUP1 DUP4 GT PUSH2 0x1CF1 JUMPI DUP3 SWAP1 SUB PUSH1 0x1F AND DUP3 ADD SWAP2 JUMPDEST POP POP POP POP POP SWAP1 POP SWAP5 POP SWAP5 POP SWAP5 POP SWAP5 POP SWAP5 POP SWAP2 SWAP4 SWAP6 SWAP1 SWAP3 SWAP5 POP JUMP JUMPDEST PUSH1 0x0 DUP1 CALLER PUSH20 0xFFFFFFFFFFFFFFFFFFFFFFFFFFFFFFFFFFFFFFFF AND PUSH20 0xFFFFFFFFFFFFFFFFFFFFFFFFFFFFFFFFFFFFFFFF AND DUP2 MSTORE PUSH1 0x20 ADD SWAP1 DUP2 MSTORE PUSH1 0x20 ADD PUSH1 0x0 KECCAK256 PUSH1 0x0 DUP1 DUP3 ADD PUSH1 0x0 DUP1 DUP3 ADD PUSH1 0x0 PUSH2 0x1D7C SWAP2 SWAP1 PUSH2 0x200C JUMP JUMPDEST PUSH1 0x1 DUP3 ADD PUSH1 0x0 PUSH2 0x1D8C SWAP2 SWAP1 PUSH2 0x200C JUMP JUMPDEST PUSH1 0x2 DUP3 ADD PUSH1 0x0 PUSH2 0x100 EXP DUP2 SLOAD SWAP1 PUSH20 0xFFFFFFFFFFFFFFFFFFFFFFFFFFFFFFFFFFFFFFFF MUL NOT AND SWAP1 SSTORE PUSH1 0x3 DUP3 ADD PUSH1 0x0 PUSH2 0x1DC3 SWAP2 SWAP1 PUSH2 0x200C JUMP JUMPDEST PUSH1 0x4 DUP3 ADD PUSH1 0x0 PUSH2 0x1DD3 SWAP2 SWAP1 PUSH2 0x200C JUMP JUMPDEST PUSH1 0x5 DUP3 ADD PUSH1 0x0 PUSH2 0x1DE3 SWAP2 SWAP1 PUSH2 0x200C JUMP JUMPDEST PUSH1 0x6 DUP3 ADD PUSH1 0x0 PUSH2 0x1DF3 SWAP2 SWAP1 PUSH2 0x200C JUMP JUMPDEST PUSH1 0x7 DUP3 ADD PUSH1 0x0 SWAP1 SSTORE POP POP PUSH1 0x8 DUP3 ADD PUSH1 0x0 DUP1 DUP3 ADD PUSH1 0x0 PUSH2 0x1E12 SWAP2 SWAP1 PUSH2 0x200C JUMP JUMPDEST PUSH1 0x1 DUP3 ADD PUSH1 0x0 PUSH2 0x1E22 SWAP2 SWAP1 PUSH2 0x200C JUMP JUMPDEST PUSH1 0x2 DUP3 ADD PUSH1 0x0 PUSH2 0x1E32 SWAP2 SWAP1 PUSH2 0x200C JUMP JUMPDEST PUSH1 0x3 DUP3 ADD PUSH1 0x0 PUSH2 0x1E42 SWAP2 SWAP1 PUSH2 0x200C JUMP JUMPDEST PUSH1 0x4 DUP3 ADD PUSH1 0x0 PUSH2 0x1E52 SWAP2 SWAP1 PUSH2 0x200C JUMP JUMPDEST PUSH1 0x5 DUP3 ADD PUSH1 0x0 PUSH2 0x1E62 SWAP2 SWAP1 PUSH2 0x200C JUMP JUMPDEST POP POP PUSH1 0xE DUP3 ADD PUSH1 0x0 DUP1 DUP3 ADD PUSH1 0x0 PUSH2 0x1E79 SWAP2 SWAP1 PUSH2 0x1ED6 JUMP JUMPDEST PUSH1 0x1 DUP3 ADD PUSH1 0x0 PUSH2 0x1E89 SWAP2 SWAP1 PUSH2 0x1ED6 JUMP JUMPDEST PUSH1 0x2 DUP3 ADD PUSH1 0x0 PUSH2 0x1E99 SWAP2 SWAP1 PUSH2 0x1ED6 JUMP JUMPDEST POP POP PUSH1 0x11 DUP3 ADD PUSH1 0x0 PUSH2 0x1EAB SWAP2 SWAP1 PUSH2 0x204C JUMP JUMPDEST PUSH1 0x12 DUP3 ADD PUSH1 0x0 DUP1 DUP3 ADD PUSH1 0x0 PUSH2 0x1EC0 SWAP2 SWAP1 PUSH2 0x1ED6 JUMP JUMPDEST PUSH1 0x1 DUP3 ADD PUSH1 0x0 PUSH2 0x1ED0 SWAP2 SWAP1 PUSH2 0x1ED6 JUMP JUMPDEST POP POP POP POP JUMP JUMPDEST POP DUP1 SLOAD PUSH1 0x0 DUP3 SSTORE SWAP1 PUSH1 0x0 MSTORE PUSH1 0x20 PUSH1 0x0 KECCAK256 SWAP1 DUP2 ADD SWAP1 PUSH2 0x1EF4 SWAP2 SWAP1 PUSH2 0x2070 JUMP JUMPDEST POP JUMP JUMPDEST DUP3 DUP1 SLOAD DUP3 DUP3 SSTORE SWAP1 PUSH1 0x0 MSTORE PUSH1 0x20 PUSH1 0x0 KECCAK256 SWAP1 DUP2 ADD SWAP3 DUP3 ISZERO PUSH2 0x1F46 JUMPI SWAP2 PUSH1 0x20 MUL DUP3 ADD JUMPDEST DUP3 DUP2 GT ISZERO PUSH2 0x1F45 JUMPI DUP3 MLOAD DUP3 SWAP1 DUP1 MLOAD SWAP1 PUSH1 0x20 ADD SWAP1 PUSH2 0x1F35 SWAP3 SWAP2 SWAP1 PUSH2 0x1F86 JUMP JUMPDEST POP SWAP2 PUSH1 0x20 ADD SWAP2 SWAP1 PUSH1 0x1 ADD SWAP1 PUSH2 0x1F17 JUMP JUMPDEST JUMPDEST POP SWAP1 POP PUSH2 0x1F53 SWAP2 SWAP1 PUSH2 0x2070 JUMP JUMPDEST POP SWAP1 JUMP JUMPDEST PUSH1 0x40 MLOAD DUP1 PUSH1 0xA0 ADD PUSH1 0x40 MSTORE DUP1 PUSH1 0x60 DUP2 MSTORE PUSH1 0x20 ADD PUSH1 0x60 DUP2 MSTORE PUSH1 0x20 ADD PUSH1 0x60 DUP2 MSTORE PUSH1 0x20 ADD PUSH1 0x60 DUP2 MSTORE PUSH1 0x20 ADD PUSH1 0x60 DUP2 MSTORE POP SWAP1 JUMP JUMPDEST DUP3 DUP1 SLOAD PUSH2 0x1F92 SWAP1 PUSH2 0x2BC4 JUMP JUMPDEST SWAP1 PUSH1 0x0 MSTORE PUSH1 0x20 PUSH1 0x0 KECCAK256 SWAP1 PUSH1 0x1F ADD PUSH1 0x20 SWAP1 DIV DUP2 ADD SWAP3 DUP3 PUSH2 0x1FB4 JUMPI PUSH1 0x0 DUP6 SSTORE PUSH2 0x1FFB JUMP JUMPDEST DUP3 PUSH1 0x1F LT PUSH2 0x1FCD JUMPI DUP1 MLOAD PUSH1 0xFF NOT AND DUP4 DUP1 ADD OR DUP6 SSTORE PUSH2 0x1FFB JUMP JUMPDEST DUP3 DUP1 ADD PUSH1 0x1 ADD DUP6 SSTORE DUP3 ISZERO PUSH2 0x1FFB JUMPI SWAP2 DUP3 ADD JUMPDEST DUP3 DUP2 GT ISZERO PUSH2 0x1FFA JUMPI DUP3 MLOAD DUP3 SSTORE SWAP2 PUSH1 0x20 ADD SWAP2 SWAP1 PUSH1 0x1 ADD SWAP1 PUSH2 0x1FDF JUMP JUMPDEST JUMPDEST POP SWAP1 POP PUSH2 0x2008 SWAP2 SWAP1 PUSH2 0x2094 JUMP JUMPDEST POP SWAP1 JUMP JUMPDEST POP DUP1 SLOAD PUSH2 0x2018 SWAP1 PUSH2 0x2BC4 JUMP JUMPDEST PUSH1 0x0 DUP3 SSTORE DUP1 PUSH1 0x1F LT PUSH2 0x202A JUMPI POP PUSH2 0x2049 JUMP JUMPDEST PUSH1 0x1F ADD PUSH1 0x20 SWAP1 DIV SWAP1 PUSH1 0x0 MSTORE PUSH1 0x20 PUSH1 0x0 KECCAK256 SWAP1 DUP2 ADD SWAP1 PUSH2 0x2048 SWAP2 SWAP1 PUSH2 0x2094 JUMP JUMPDEST JUMPDEST POP JUMP JUMPDEST POP DUP1 SLOAD PUSH1 0x0 DUP3 SSTORE PUSH1 0x5 MUL SWAP1 PUSH1 0x0 MSTORE PUSH1 0x20 PUSH1 0x0 KECCAK256 SWAP1 DUP2 ADD SWAP1 PUSH2 0x206D SWAP2 SWAP1 PUSH2 0x20B1 JUMP JUMPDEST POP JUMP JUMPDEST JUMPDEST DUP1 DUP3 GT ISZERO PUSH2 0x2090 JUMPI PUSH1 0x0 DUP2 DUP2 PUSH2 0x2087 SWAP2 SWAP1 PUSH2 0x200C JUMP JUMPDEST POP PUSH1 0x1 ADD PUSH2 0x2071 JUMP JUMPDEST POP SWAP1 JUMP JUMPDEST JUMPDEST DUP1 DUP3 GT ISZERO PUSH2 0x20AD JUMPI PUSH1 0x0 DUP2 PUSH1 0x0 SWAP1 SSTORE POP PUSH1 0x1 ADD PUSH2 0x2095 JUMP JUMPDEST POP SWAP1 JUMP JUMPDEST JUMPDEST DUP1 DUP3 GT ISZERO PUSH2 0x2114 JUMPI PUSH1 0x0 DUP1 DUP3 ADD PUSH1 0x0 PUSH2 0x20CB SWAP2 SWAP1 PUSH2 0x200C JUMP JUMPDEST PUSH1 0x1 DUP3 ADD PUSH1 0x0 PUSH2 0x20DB SWAP2 SWAP1 PUSH2 0x200C JUMP JUMPDEST PUSH1 0x2 DUP3 ADD PUSH1 0x0 PUSH2 0x20EB SWAP2 SWAP1 PUSH2 0x200C JUMP JUMPDEST PUSH1 0x3 DUP3 ADD PUSH1 0x0 PUSH2 0x20FB SWAP2 SWAP1 PUSH2 0x200C JUMP JUMPDEST PUSH1 0x4 DUP3 ADD PUSH1 0x0 PUSH2 0x210B SWAP2 SWAP1 PUSH2 0x200C JUMP JUMPDEST POP PUSH1 0x5 ADD PUSH2 0x20B2 JUMP JUMPDEST POP SWAP1 JUMP JUMPDEST PUSH1 0x0 PUSH2 0x212B PUSH2 0x2126 DUP5 PUSH2 0x2A83 JUMP JUMPDEST PUSH2 0x2A5E JUMP JUMPDEST SWAP1 POP DUP1 DUP4 DUP3 MSTORE PUSH1 0x20 DUP3 ADD SWAP1 POP DUP3 DUP6 PUSH1 0x20 DUP7 MUL DUP3 ADD GT ISZERO PUSH2 0x214E JUMPI PUSH2 0x214D PUSH2 0x2CB9 JUMP JUMPDEST JUMPDEST PUSH1 0x0 JUMPDEST DUP6 DUP2 LT ISZERO PUSH2 0x219C JUMPI DUP2 CALLDATALOAD PUSH8 0xFFFFFFFFFFFFFFFF DUP2 GT ISZERO PUSH2 0x2174 JUMPI PUSH2 0x2173 PUSH2 0x2CB4 JUMP JUMPDEST JUMPDEST DUP1 DUP7 ADD PUSH2 0x2181 DUP10 DUP3 PUSH2 0x222B JUMP JUMPDEST DUP6 MSTORE PUSH1 0x20 DUP6 ADD SWAP5 POP PUSH1 0x20 DUP5 ADD SWAP4 POP POP POP PUSH1 0x1 DUP2 ADD SWAP1 POP PUSH2 0x2151 JUMP JUMPDEST POP POP POP SWAP4 SWAP3 POP POP POP JUMP JUMPDEST PUSH1 0x0 PUSH2 0x21B9 PUSH2 0x21B4 DUP5 PUSH2 0x2AAF JUMP JUMPDEST PUSH2 0x2A5E JUMP JUMPDEST SWAP1 POP DUP3 DUP2 MSTORE PUSH1 0x20 DUP2 ADD DUP5 DUP5 DUP5 ADD GT ISZERO PUSH2 0x21D5 JUMPI PUSH2 0x21D4 PUSH2 0x2CBE JUMP JUMPDEST JUMPDEST PUSH2 0x21E0 DUP5 DUP3 DUP6 PUSH2 0x2B82 JUMP JUMPDEST POP SWAP4 SWAP3 POP POP POP JUMP JUMPDEST PUSH1 0x0 DUP2 CALLDATALOAD SWAP1 POP PUSH2 0x21F7 DUP2 PUSH2 0x2CDE JUMP JUMPDEST SWAP3 SWAP2 POP POP JUMP JUMPDEST PUSH1 0x0 DUP3 PUSH1 0x1F DUP4 ADD SLT PUSH2 0x2212 JUMPI PUSH2 0x2211 PUSH2 0x2CB4 JUMP JUMPDEST JUMPDEST DUP2 CALLDATALOAD PUSH2 0x2222 DUP5 DUP3 PUSH1 0x20 DUP7 ADD PUSH2 0x2118 JUMP JUMPDEST SWAP2 POP POP SWAP3 SWAP2 POP POP JUMP JUMPDEST PUSH1 0x0 DUP3 PUSH1 0x1F DUP4 ADD SLT PUSH2 0x2240 JUMPI PUSH2 0x223F PUSH2 0x2CB4 JUMP JUMPDEST JUMPDEST DUP2 CALLDATALOAD PUSH2 0x2250 DUP5 DUP3 PUSH1 0x20 DUP7 ADD PUSH2 0x21A6 JUMP JUMPDEST SWAP2 POP POP SWAP3 SWAP2 POP POP JUMP JUMPDEST PUSH1 0x0 DUP2 CALLDATALOAD SWAP1 POP PUSH2 0x2268 DUP2 PUSH2 0x2CF5 JUMP JUMPDEST SWAP3 SWAP2 POP POP JUMP JUMPDEST PUSH1 0x0 PUSH1 0x20 DUP3 DUP5 SUB SLT ISZERO PUSH2 0x2284 JUMPI PUSH2 0x2283 PUSH2 0x2CC8 JUMP JUMPDEST JUMPDEST PUSH1 0x0 PUSH2 0x2292 DUP5 DUP3 DUP6 ADD PUSH2 0x21E8 JUMP JUMPDEST SWAP2 POP POP SWAP3 SWAP2 POP POP JUMP JUMPDEST PUSH1 0x0 DUP1 PUSH1 0x40 DUP4 DUP6 SUB SLT ISZERO PUSH2 0x22B2 JUMPI PUSH2 0x22B1 PUSH2 0x2CC8 JUMP JUMPDEST JUMPDEST PUSH1 0x0 DUP4 ADD CALLDATALOAD PUSH8 0xFFFFFFFFFFFFFFFF DUP2 GT ISZERO PUSH2 0x22D0 JUMPI PUSH2 0x22CF PUSH2 0x2CC3 JUMP JUMPDEST JUMPDEST PUSH2 0x22DC DUP6 DUP3 DUP7 ADD PUSH2 0x21FD JUMP JUMPDEST SWAP3 POP POP PUSH1 0x20 DUP4 ADD CALLDATALOAD PUSH8 0xFFFFFFFFFFFFFFFF DUP2 GT ISZERO PUSH2 0x22FD JUMPI PUSH2 0x22FC PUSH2 0x2CC3 JUMP JUMPDEST JUMPDEST PUSH2 0x2309 DUP6 DUP3 DUP7 ADD PUSH2 0x21FD JUMP JUMPDEST SWAP2 POP POP SWAP3 POP SWAP3 SWAP1 POP JUMP JUMPDEST PUSH1 0x0 DUP1 PUSH1 0x0 PUSH1 0x60 DUP5 DUP7 SUB SLT ISZERO PUSH2 0x232C JUMPI PUSH2 0x232B PUSH2 0x2CC8 JUMP JUMPDEST JUMPDEST PUSH1 0x0 DUP5 ADD CALLDATALOAD PUSH8 0xFFFFFFFFFFFFFFFF DUP2 GT ISZERO PUSH2 0x234A JUMPI PUSH2 0x2349 PUSH2 0x2CC3 JUMP JUMPDEST JUMPDEST PUSH2 0x2356 DUP7 DUP3 DUP8 ADD PUSH2 0x21FD JUMP JUMPDEST SWAP4 POP POP PUSH1 0x20 DUP5 ADD CALLDATALOAD PUSH8 0xFFFFFFFFFFFFFFFF DUP2 GT ISZERO PUSH2 0x2377 JUMPI PUSH2 0x2376 PUSH2 0x2CC3 JUMP JUMPDEST JUMPDEST PUSH2 0x2383 DUP7 DUP3 DUP8 ADD PUSH2 0x21FD JUMP JUMPDEST SWAP3 POP POP PUSH1 0x40 DUP5 ADD CALLDATALOAD PUSH8 0xFFFFFFFFFFFFFFFF DUP2 GT ISZERO PUSH2 0x23A4 JUMPI PUSH2 0x23A3 PUSH2 0x2CC3 JUMP JUMPDEST JUMPDEST PUSH2 0x23B0 DUP7 DUP3 DUP8 ADD PUSH2 0x21FD JUMP JUMPDEST SWAP2 POP POP SWAP3 POP SWAP3 POP SWAP3 JUMP JUMPDEST PUSH1 0x0 DUP1 PUSH1 0x0 DUP1 PUSH1 0x0 PUSH1 0xA0 DUP7 DUP9 SUB SLT ISZERO PUSH2 0x23D6 JUMPI PUSH2 0x23D5 PUSH2 0x2CC8 JUMP JUMPDEST JUMPDEST PUSH1 0x0 DUP7 ADD CALLDATALOAD PUSH8 0xFFFFFFFFFFFFFFFF DUP2 GT ISZERO PUSH2 0x23F4 JUMPI PUSH2 0x23F3 PUSH2 0x2CC3 JUMP JUMPDEST JUMPDEST PUSH2 0x2400 DUP9 DUP3 DUP10 ADD PUSH2 0x222B JUMP JUMPDEST SWAP6 POP POP PUSH1 0x20 DUP7 ADD CALLDATALOAD PUSH8 0xFFFFFFFFFFFFFFFF DUP2 GT ISZERO PUSH2 0x2421 JUMPI PUSH2 0x2420 PUSH2 0x2CC3 JUMP JUMPDEST JUMPDEST PUSH2 0x242D DUP9 DUP3 DUP10 ADD PUSH2 0x222B JUMP JUMPDEST SWAP5 POP POP PUSH1 0x40 DUP7 ADD CALLDATALOAD PUSH8 0xFFFFFFFFFFFFFFFF DUP2 GT ISZERO PUSH2 0x244E JUMPI PUSH2 0x244D PUSH2 0x2CC3 JUMP JUMPDEST JUMPDEST PUSH2 0x245A DUP9 DUP3 DUP10 ADD PUSH2 0x222B JUMP JUMPDEST SWAP4 POP POP PUSH1 0x60 DUP7 ADD CALLDATALOAD PUSH8 0xFFFFFFFFFFFFFFFF DUP2 GT ISZERO PUSH2 0x247B JUMPI PUSH2 0x247A PUSH2 0x2CC3 JUMP JUMPDEST JUMPDEST PUSH2 0x2487 DUP9 DUP3 DUP10 ADD PUSH2 0x222B JUMP JUMPDEST SWAP3 POP POP PUSH1 0x80 DUP7 ADD CALLDATALOAD PUSH8 0xFFFFFFFFFFFFFFFF DUP2 GT ISZERO PUSH2 0x24A8 JUMPI PUSH2 0x24A7 PUSH2 0x2CC3 JUMP JUMPDEST JUMPDEST PUSH2 0x24B4 DUP9 DUP3 DUP10 ADD PUSH2 0x222B JUMP JUMPDEST SWAP2 POP POP SWAP3 SWAP6 POP SWAP3 SWAP6 SWAP1 SWAP4 POP JUMP JUMPDEST PUSH1 0x0 DUP1 PUSH1 0x0 DUP1 PUSH1 0x0 DUP1 PUSH1 0xC0 DUP8 DUP10 SUB SLT ISZERO PUSH2 0x24DE JUMPI PUSH2 0x24DD PUSH2 0x2CC8 JUMP JUMPDEST JUMPDEST PUSH1 0x0 DUP8 ADD CALLDATALOAD PUSH8 0xFFFFFFFFFFFFFFFF DUP2 GT ISZERO PUSH2 0x24FC JUMPI PUSH2 0x24FB PUSH2 0x2CC3 JUMP JUMPDEST JUMPDEST PUSH2 0x2508 DUP10 DUP3 DUP11 ADD PUSH2 0x222B JUMP JUMPDEST SWAP7 POP POP PUSH1 0x20 DUP8 ADD CALLDATALOAD PUSH8 0xFFFFFFFFFFFFFFFF DUP2 GT ISZERO PUSH2 0x2529 JUMPI PUSH2 0x2528 PUSH2 0x2CC3 JUMP JUMPDEST JUMPDEST PUSH2 0x2535 DUP10 DUP3 DUP11 ADD PUSH2 0x222B JUMP JUMPDEST SWAP6 POP POP PUSH1 0x40 DUP8 ADD CALLDATALOAD PUSH8 0xFFFFFFFFFFFFFFFF DUP2 GT ISZERO PUSH2 0x2556 JUMPI PUSH2 0x2555 PUSH2 0x2CC3 JUMP JUMPDEST JUMPDEST PUSH2 0x2562 DUP10 DUP3 DUP11 ADD PUSH2 0x222B JUMP JUMPDEST SWAP5 POP POP PUSH1 0x60 DUP8 ADD CALLDATALOAD PUSH8 0xFFFFFFFFFFFFFFFF DUP2 GT ISZERO PUSH2 0x2583 JUMPI PUSH2 0x2582 PUSH2 0x2CC3 JUMP JUMPDEST JUMPDEST PUSH2 0x258F DUP10 DUP3 DUP11 ADD PUSH2 0x222B JUMP JUMPDEST SWAP4 POP POP PUSH1 0x80 DUP8 ADD CALLDATALOAD PUSH8 0xFFFFFFFFFFFFFFFF DUP2 GT ISZERO PUSH2 0x25B0 JUMPI PUSH2 0x25AF PUSH2 0x2CC3 JUMP JUMPDEST JUMPDEST PUSH2 0x25BC DUP10 DUP3 DUP11 ADD PUSH2 0x222B JUMP JUMPDEST SWAP3 POP POP PUSH1 0xA0 DUP8 ADD CALLDATALOAD PUSH8 0xFFFFFFFFFFFFFFFF DUP2 GT ISZERO PUSH2 0x25DD JUMPI PUSH2 0x25DC PUSH2 0x2CC3 JUMP JUMPDEST JUMPDEST PUSH2 0x25E9 DUP10 DUP3 DUP11 ADD PUSH2 0x222B JUMP JUMPDEST SWAP2 POP POP SWAP3 SWAP6 POP SWAP3 SWAP6 POP SWAP3 SWAP6 JUMP JUMPDEST PUSH1 0x0 PUSH1 0x20 DUP3 DUP5 SUB SLT ISZERO PUSH2 0x260C JUMPI PUSH2 0x260B PUSH2 0x2CC8 JUMP JUMPDEST JUMPDEST PUSH1 0x0 PUSH2 0x261A DUP5 DUP3 DUP6 ADD PUSH2 0x2259 JUMP JUMPDEST SWAP2 POP POP SWAP3 SWAP2 POP POP JUMP JUMPDEST PUSH1 0x0 PUSH2 0x262F DUP4 DUP4 PUSH2 0x26BB JUMP JUMPDEST SWAP1 POP SWAP3 SWAP2 POP POP JUMP JUMPDEST PUSH2 0x2640 DUP2 PUSH2 0x2B46 JUMP JUMPDEST DUP3 MSTORE POP POP JUMP JUMPDEST PUSH1 0x0 PUSH2 0x2651 DUP3 PUSH2 0x2AF0 JUMP JUMPDEST PUSH2 0x265B DUP2 DUP6 PUSH2 0x2B13 JUMP JUMPDEST SWAP4 POP DUP4 PUSH1 0x20 DUP3 MUL DUP6 ADD PUSH2 0x266D DUP6 PUSH2 0x2AE0 JUMP JUMPDEST DUP1 PUSH1 0x0 JUMPDEST DUP6 DUP2 LT ISZERO PUSH2 0x26A9 JUMPI DUP5 DUP5 SUB DUP10 MSTORE DUP2 MLOAD PUSH2 0x268A DUP6 DUP3 PUSH2 0x2623 JUMP JUMPDEST SWAP5 POP PUSH2 0x2695 DUP4 PUSH2 0x2B06 JUMP JUMPDEST SWAP3 POP PUSH1 0x20 DUP11 ADD SWAP10 POP POP PUSH1 0x1 DUP2 ADD SWAP1 POP PUSH2 0x2671 JUMP JUMPDEST POP DUP3 SWAP8 POP DUP8 SWAP6 POP POP POP POP POP POP SWAP3 SWAP2 POP POP JUMP JUMPDEST PUSH1 0x0 PUSH2 0x26C6 DUP3 PUSH2 0x2AFB JUMP JUMPDEST PUSH2 0x26D0 DUP2 DUP6 PUSH2 0x2B24 JUMP JUMPDEST SWAP4 POP PUSH2 0x26E0 DUP2 DUP6 PUSH1 0x20 DUP7 ADD PUSH2 0x2B91 JUMP JUMPDEST PUSH2 0x26E9 DUP2 PUSH2 0x2CCD JUMP JUMPDEST DUP5 ADD SWAP2 POP POP SWAP3 SWAP2 POP POP JUMP JUMPDEST PUSH1 0x0 PUSH2 0x26FF DUP3 PUSH2 0x2AFB JUMP JUMPDEST PUSH2 0x2709 DUP2 DUP6 PUSH2 0x2B35 JUMP JUMPDEST SWAP4 POP PUSH2 0x2719 DUP2 DUP6 PUSH1 0x20 DUP7 ADD PUSH2 0x2B91 JUMP JUMPDEST PUSH2 0x2722 DUP2 PUSH2 0x2CCD JUMP JUMPDEST DUP5 ADD SWAP2 POP POP SWAP3 SWAP2 POP POP JUMP JUMPDEST PUSH1 0x0 PUSH1 0x40 DUP4 ADD PUSH1 0x0 DUP4 ADD MLOAD DUP5 DUP3 SUB PUSH1 0x0 DUP7 ADD MSTORE PUSH2 0x274A DUP3 DUP3 PUSH2 0x2646 JUMP JUMPDEST SWAP2 POP POP PUSH1 0x20 DUP4 ADD MLOAD DUP5 DUP3 SUB PUSH1 0x20 DUP7 ADD MSTORE PUSH2 0x2764 DUP3 DUP3 PUSH2 0x2646 JUMP JUMPDEST SWAP2 POP POP DUP1 SWAP2 POP POP SWAP3 SWAP2 POP POP JUMP JUMPDEST PUSH1 0x0 PUSH1 0xC0 DUP4 ADD PUSH1 0x0 DUP4 ADD MLOAD DUP5 DUP3 SUB PUSH1 0x0 DUP7 ADD MSTORE PUSH2 0x278E DUP3 DUP3 PUSH2 0x26BB JUMP JUMPDEST SWAP2 POP POP PUSH1 0x20 DUP4 ADD MLOAD DUP5 DUP3 SUB PUSH1 0x20 DUP7 ADD MSTORE PUSH2 0x27A8 DUP3 DUP3 PUSH2 0x26BB JUMP JUMPDEST SWAP2 POP POP PUSH1 0x40 DUP4 ADD MLOAD DUP5 DUP3 SUB PUSH1 0x40 DUP7 ADD MSTORE PUSH2 0x27C2 DUP3 DUP3 PUSH2 0x26BB JUMP JUMPDEST SWAP2 POP POP PUSH1 0x60 DUP4 ADD MLOAD DUP5 DUP3 SUB PUSH1 0x60 DUP7 ADD MSTORE PUSH2 0x27DC DUP3 DUP3 PUSH2 0x26BB JUMP JUMPDEST SWAP2 POP POP PUSH1 0x80 DUP4 ADD MLOAD DUP5 DUP3 SUB PUSH1 0x80 DUP7 ADD MSTORE PUSH2 0x27F6 DUP3 DUP3 PUSH2 0x26BB JUMP JUMPDEST SWAP2 POP POP PUSH1 0xA0 DUP4 ADD MLOAD DUP5 DUP3 SUB PUSH1 0xA0 DUP7 ADD MSTORE PUSH2 0x2810 DUP3 DUP3 PUSH2 0x26BB JUMP JUMPDEST SWAP2 POP POP DUP1 SWAP2 POP POP SWAP3 SWAP2 POP POP JUMP JUMPDEST PUSH1 0x0 PUSH2 0x100 DUP4 ADD PUSH1 0x0 DUP4 ADD MLOAD DUP5 DUP3 SUB PUSH1 0x0 DUP7 ADD MSTORE PUSH2 0x283B DUP3 DUP3 PUSH2 0x26BB JUMP JUMPDEST SWAP2 POP POP PUSH1 0x20 DUP4 ADD MLOAD DUP5 DUP3 SUB PUSH1 0x20 DUP7 ADD MSTORE PUSH2 0x2855 DUP3 DUP3 PUSH2 0x26BB JUMP JUMPDEST SWAP2 POP POP PUSH1 0x40 DUP4 ADD MLOAD PUSH2 0x286A PUSH1 0x40 DUP7 ADD DUP3 PUSH2 0x2637 JUMP JUMPDEST POP PUSH1 0x60 DUP4 ADD MLOAD DUP5 DUP3 SUB PUSH1 0x60 DUP7 ADD MSTORE PUSH2 0x2882 DUP3 DUP3 PUSH2 0x26BB JUMP JUMPDEST SWAP2 POP POP PUSH1 0x80 DUP4 ADD MLOAD DUP5 DUP3 SUB PUSH1 0x80 DUP7 ADD MSTORE PUSH2 0x289C DUP3 DUP3 PUSH2 0x26BB JUMP JUMPDEST SWAP2 POP POP PUSH1 0xA0 DUP4 ADD MLOAD DUP5 DUP3 SUB PUSH1 0xA0 DUP7 ADD MSTORE PUSH2 0x28B6 DUP3 DUP3 PUSH2 0x26BB JUMP JUMPDEST SWAP2 POP POP PUSH1 0xC0 DUP4 ADD MLOAD DUP5 DUP3 SUB PUSH1 0xC0 DUP7 ADD MSTORE PUSH2 0x28D0 DUP3 DUP3 PUSH2 0x26BB JUMP JUMPDEST SWAP2 POP POP PUSH1 0xE0 DUP4 ADD MLOAD PUSH2 0x28E5 PUSH1 0xE0 DUP7 ADD DUP3 PUSH2 0x294E JUMP JUMPDEST POP DUP1 SWAP2 POP POP SWAP3 SWAP2 POP POP JUMP JUMPDEST PUSH1 0x0 PUSH1 0x60 DUP4 ADD PUSH1 0x0 DUP4 ADD MLOAD DUP5 DUP3 SUB PUSH1 0x0 DUP7 ADD MSTORE PUSH2 0x290D DUP3 DUP3 PUSH2 0x2646 JUMP JUMPDEST SWAP2 POP POP PUSH1 0x20 DUP4 ADD MLOAD DUP5 DUP3 SUB PUSH1 0x20 DUP7 ADD MSTORE PUSH2 0x2927 DUP3 DUP3 PUSH2 0x2646 JUMP JUMPDEST SWAP2 POP POP PUSH1 0x40 DUP4 ADD MLOAD DUP5 DUP3 SUB PUSH1 0x40 DUP7 ADD MSTORE PUSH2 0x2941 DUP3 DUP3 PUSH2 0x2646 JUMP JUMPDEST SWAP2 POP POP DUP1 SWAP2 POP POP SWAP3 SWAP2 POP POP JUMP JUMPDEST PUSH2 0x2957 DUP2 PUSH2 0x2B78 JUMP JUMPDEST DUP3 MSTORE POP POP JUMP JUMPDEST PUSH2 0x2966 DUP2 PUSH2 0x2B78 JUMP JUMPDEST DUP3 MSTORE POP POP JUMP JUMPDEST PUSH1 0x0 PUSH1 0xA0 DUP3 ADD SWAP1 POP DUP2 DUP2 SUB PUSH1 0x0 DUP4 ADD MSTORE PUSH2 0x2986 DUP2 DUP9 PUSH2 0x26F4 JUMP JUMPDEST SWAP1 POP DUP2 DUP2 SUB PUSH1 0x20 DUP4 ADD MSTORE PUSH2 0x299A DUP2 DUP8 PUSH2 0x26F4 JUMP JUMPDEST SWAP1 POP DUP2 DUP2 SUB PUSH1 0x40 DUP4 ADD MSTORE PUSH2 0x29AE DUP2 DUP7 PUSH2 0x26F4 JUMP JUMPDEST SWAP1 POP DUP2 DUP2 SUB PUSH1 0x60 DUP4 ADD MSTORE PUSH2 0x29C2 DUP2 DUP6 PUSH2 0x26F4 JUMP JUMPDEST SWAP1 POP DUP2 DUP2 SUB PUSH1 0x80 DUP4 ADD MSTORE PUSH2 0x29D6 DUP2 DUP5 PUSH2 0x26F4 JUMP JUMPDEST SWAP1 POP SWAP7 SWAP6 POP POP POP POP POP POP JUMP JUMPDEST PUSH1 0x0 PUSH1 0x80 DUP3 ADD SWAP1 POP DUP2 DUP2 SUB PUSH1 0x0 DUP4 ADD MSTORE PUSH2 0x29FC DUP2 DUP8 PUSH2 0x281D JUMP JUMPDEST SWAP1 POP DUP2 DUP2 SUB PUSH1 0x20 DUP4 ADD MSTORE PUSH2 0x2A10 DUP2 DUP7 PUSH2 0x2771 JUMP JUMPDEST SWAP1 POP DUP2 DUP2 SUB PUSH1 0x40 DUP4 ADD MSTORE PUSH2 0x2A24 DUP2 DUP6 PUSH2 0x28F0 JUMP JUMPDEST SWAP1 POP DUP2 DUP2 SUB PUSH1 0x60 DUP4 ADD MSTORE PUSH2 0x2A38 DUP2 DUP5 PUSH2 0x272D JUMP JUMPDEST SWAP1 POP SWAP6 SWAP5 POP POP POP POP POP JUMP JUMPDEST PUSH1 0x0 PUSH1 0x20 DUP3 ADD SWAP1 POP PUSH2 0x2A58 PUSH1 0x0 DUP4 ADD DUP5 PUSH2 0x295D JUMP JUMPDEST SWAP3 SWAP2 POP POP JUMP JUMPDEST PUSH1 0x0 PUSH2 0x2A68 PUSH2 0x2A79 JUMP JUMPDEST SWAP1 POP PUSH2 0x2A74 DUP3 DUP3 PUSH2 0x2BF6 JUMP JUMPDEST SWAP2 SWAP1 POP JUMP JUMPDEST PUSH1 0x0 PUSH1 0x40 MLOAD SWAP1 POP SWAP1 JUMP JUMPDEST PUSH1 0x0 PUSH8 0xFFFFFFFFFFFFFFFF DUP3 GT ISZERO PUSH2 0x2A9E JUMPI PUSH2 0x2A9D PUSH2 0x2C85 JUMP JUMPDEST JUMPDEST PUSH1 0x20 DUP3 MUL SWAP1 POP PUSH1 0x20 DUP2 ADD SWAP1 POP SWAP2 SWAP1 POP JUMP JUMPDEST PUSH1 0x0 PUSH8 0xFFFFFFFFFFFFFFFF DUP3 GT ISZERO PUSH2 0x2ACA JUMPI PUSH2 0x2AC9 PUSH2 0x2C85 JUMP JUMPDEST JUMPDEST PUSH2 0x2AD3 DUP3 PUSH2 0x2CCD JUMP JUMPDEST SWAP1 POP PUSH1 0x20 DUP2 ADD SWAP1 POP SWAP2 SWAP1 POP JUMP JUMPDEST PUSH1 0x0 DUP2 SWAP1 POP PUSH1 0x20 DUP3 ADD SWAP1 POP SWAP2 SWAP1 POP JUMP JUMPDEST PUSH1 0x0 DUP2 MLOAD SWAP1 POP SWAP2 SWAP1 POP JUMP JUMPDEST PUSH1 0x0 DUP2 MLOAD SWAP1 POP SWAP2 SWAP1 POP JUMP JUMPDEST PUSH1 0x0 PUSH1 0x20 DUP3 ADD SWAP1 POP SWAP2 SWAP1 POP JUMP JUMPDEST PUSH1 0x0 DUP3 DUP3 MSTORE PUSH1 0x20 DUP3 ADD SWAP1 POP SWAP3 SWAP2 POP POP JUMP JUMPDEST PUSH1 0x0 DUP3 DUP3 MSTORE PUSH1 0x20 DUP3 ADD SWAP1 POP SWAP3 SWAP2 POP POP JUMP JUMPDEST PUSH1 0x0 DUP3 DUP3 MSTORE PUSH1 0x20 DUP3 ADD SWAP1 POP SWAP3 SWAP2 POP POP JUMP JUMPDEST PUSH1 0x0 PUSH2 0x2B51 DUP3 PUSH2 0x2B58 JUMP JUMPDEST SWAP1 POP SWAP2 SWAP1 POP JUMP JUMPDEST PUSH1 0x0 PUSH20 0xFFFFFFFFFFFFFFFFFFFFFFFFFFFFFFFFFFFFFFFF DUP3 AND SWAP1 POP SWAP2 SWAP1 POP JUMP JUMPDEST PUSH1 0x0 DUP2 SWAP1 POP SWAP2 SWAP1 POP JUMP JUMPDEST DUP3 DUP2 DUP4 CALLDATACOPY PUSH1 0x0 DUP4 DUP4 ADD MSTORE POP POP POP JUMP JUMPDEST PUSH1 0x0 JUMPDEST DUP4 DUP2 LT ISZERO PUSH2 0x2BAF JUMPI DUP1 DUP3 ADD MLOAD DUP2 DUP5 ADD MSTORE PUSH1 0x20 DUP2 ADD SWAP1 POP PUSH2 0x2B94 JUMP JUMPDEST DUP4 DUP2 GT ISZERO PUSH2 0x2BBE JUMPI PUSH1 0x0 DUP5 DUP5 ADD MSTORE JUMPDEST POP POP POP POP JUMP JUMPDEST PUSH1 0x0 PUSH1 0x2 DUP3 DIV SWAP1 POP PUSH1 0x1 DUP3 AND DUP1 PUSH2 0x2BDC JUMPI PUSH1 0x7F DUP3 AND SWAP2 POP JUMPDEST PUSH1 0x20 DUP3 LT DUP2 EQ ISZERO PUSH2 0x2BF0 JUMPI PUSH2 0x2BEF PUSH2 0x2C27 JUMP JUMPDEST JUMPDEST POP SWAP2 SWAP1 POP JUMP JUMPDEST PUSH2 0x2BFF DUP3 PUSH2 0x2CCD JUMP JUMPDEST DUP2 ADD DUP2 DUP2 LT PUSH8 0xFFFFFFFFFFFFFFFF DUP3 GT OR ISZERO PUSH2 0x2C1E JUMPI PUSH2 0x2C1D PUSH2 0x2C85 JUMP JUMPDEST JUMPDEST DUP1 PUSH1 0x40 MSTORE POP POP POP JUMP JUMPDEST PUSH32 0x4E487B7100000000000000000000000000000000000000000000000000000000 PUSH1 0x0 MSTORE PUSH1 0x22 PUSH1 0x4 MSTORE PUSH1 0x24 PUSH1 0x0 REVERT JUMPDEST PUSH32 0x4E487B7100000000000000000000000000000000000000000000000000000000 PUSH1 0x0 MSTORE PUSH1 0x32 PUSH1 0x4 MSTORE PUSH1 0x24 PUSH1 0x0 REVERT JUMPDEST PUSH32 0x4E487B7100000000000000000000000000000000000000000000000000000000 PUSH1 0x0 MSTORE PUSH1 0x41 PUSH1 0x4 MSTORE PUSH1 0x24 PUSH1 0x0 REVERT JUMPDEST PUSH1 0x0 DUP1 REVERT JUMPDEST PUSH1 0x0 DUP1 REVERT JUMPDEST PUSH1 0x0 DUP1 REVERT JUMPDEST PUSH1 0x0 DUP1 REVERT JUMPDEST PUSH1 0x0 DUP1 REVERT JUMPDEST PUSH1 0x0 PUSH1 0x1F NOT PUSH1 0x1F DUP4 ADD AND SWAP1 POP SWAP2 SWAP1 POP JUMP JUMPDEST PUSH2 0x2CE7 DUP2 PUSH2 0x2B46 JUMP JUMPDEST DUP2 EQ PUSH2 0x2CF2 JUMPI PUSH1 0x0 DUP1 REVERT JUMPDEST POP JUMP JUMPDEST PUSH2 0x2CFE DUP2 PUSH2 0x2B78 JUMP JUMPDEST DUP2 EQ PUSH2 0x2D09 JUMPI PUSH1 0x0 DUP1 REVERT JUMPDEST POP JUMP INVALID LOG2 PUSH5 0x6970667358 0x22 SLT KECCAK256 EXTCODEHASH 0xE5 PUSH30 0x851BE054F885C76ACB15DE9866690D63CF45F675BA68C144684E5A74A864 PUSH20 0x6F6C634300080700330000000000000000000000 "
				},
				"gasEstimates": {
					"creation": {
						"codeDepositCost": "2317200",
						"executionCost": "2486",
						"totalCost": "2319686"
					},
					"external": {
						"createAward(string[],string[])": "infinite",
						"createContract(string,string,string,string,string)": "infinite",
						"createInformation(string,string,string,string,string,string)": "infinite",
						"createSkill(string[],string[],string[])": "infinite",
						"createUnivercity(string,string,string,string,string)": "infinite",
						"delAllEducation()": "infinite",
						"delCertificateAndAward()": "infinite",
						"delInformaion()": "infinite",
						"delProfile()": "infinite",
						"getEducation(uint256)": "infinite",
						"getEducationCount()": "2585",
						"profile(address)": "infinite"
					}
				},
				"methodIdentifiers": {
					"createAward(string[],string[])": "6c2cc774",
					"createContract(string,string,string,string,string)": "72828388",
					"createInformation(string,string,string,string,string,string)": "958791ae",
					"createSkill(string[],string[],string[])": "3d984d0e",
					"createUnivercity(string,string,string,string,string)": "66244dfb",
					"delAllEducation()": "ed2217ef",
					"delCertificateAndAward()": "4ed74067",
					"delInformaion()": "95ea3757",
					"delProfile()": "fabce08f",
					"getEducation(uint256)": "f96e32f8",
					"getEducationCount()": "6212fa02",
					"profile(address)": "9dd9d0fd"
				}
			},
			"storageLayout": {
				"storage": [
					{
						"astId": 23,
						"contract": "contracts/Profile.sol:Profile",
						"label": "profile",
						"offset": 0,
						"slot": "0",
						"type": "t_mapping(t_address,t_struct(Bio)18_storage)"
					}
				],
				"types": {
					"t_address": {
						"encoding": "inplace",
						"label": "address",
						"numberOfBytes": "20"
					},
					"t_array(t_string_storage)dyn_storage": {
						"base": "t_string_storage",
						"encoding": "dynamic_array",
						"label": "string[]",
						"numberOfBytes": "32"
					},
					"t_array(t_struct(Education)74_storage)dyn_storage": {
						"base": "t_struct(Education)74_storage",
						"encoding": "dynamic_array",
						"label": "struct Profile.Education[]",
						"numberOfBytes": "32"
					},
					"t_mapping(t_address,t_struct(Bio)18_storage)": {
						"encoding": "mapping",
						"key": "t_address",
						"label": "mapping(address => struct Profile.Bio)",
						"numberOfBytes": "32",
						"value": "t_struct(Bio)18_storage"
					},
					"t_string_storage": {
						"encoding": "bytes",
						"label": "string",
						"numberOfBytes": "32"
					},
					"t_struct(Bio)18_storage": {
						"encoding": "inplace",
						"label": "struct Profile.Bio",
						"members": [
							{
								"astId": 4,
								"contract": "contracts/Profile.sol:Profile",
								"label": "information",
								"offset": 0,
								"slot": "0",
								"type": "t_struct(Information)40_storage"
							},
							{
								"astId": 7,
								"contract": "contracts/Profile.sol:Profile",
								"label": "privateContract",
								"offset": 0,
								"slot": "8",
								"type": "t_struct(Contract)53_storage"
							},
							{
								"astId": 10,
								"contract": "contracts/Profile.sol:Profile",
								"label": "skill",
								"offset": 0,
								"slot": "14",
								"type": "t_struct(Skill)63_storage"
							},
							{
								"astId": 14,
								"contract": "contracts/Profile.sol:Profile",
								"label": "education",
								"offset": 0,
								"slot": "17",
								"type": "t_array(t_struct(Education)74_storage)dyn_storage"
							},
							{
								"astId": 17,
								"contract": "contracts/Profile.sol:Profile",
								"label": "certificateAndAward",
								"offset": 0,
								"slot": "18",
								"type": "t_struct(CertificateAndAward)81_storage"
							}
						],
						"numberOfBytes": "640"
					},
					"t_struct(CertificateAndAward)81_storage": {
						"encoding": "inplace",
						"label": "struct Profile.CertificateAndAward",
						"members": [
							{
								"astId": 77,
								"contract": "contracts/Profile.sol:Profile",
								"label": "certificate",
								"offset": 0,
								"slot": "0",
								"type": "t_array(t_string_storage)dyn_storage"
							},
							{
								"astId": 80,
								"contract": "contracts/Profile.sol:Profile",
								"label": "award",
								"offset": 0,
								"slot": "1",
								"type": "t_array(t_string_storage)dyn_storage"
							}
						],
						"numberOfBytes": "64"
					},
					"t_struct(Contract)53_storage": {
						"encoding": "inplace",
						"label": "struct Profile.Contract",
						"members": [
							{
								"astId": 42,
								"contract": "contracts/Profile.sol:Profile",
								"label": "aboutMe",
								"offset": 0,
								"slot": "0",
								"type": "t_string_storage"
							},
							{
								"astId": 44,
								"contract": "contracts/Profile.sol:Profile",
								"label": "email",
								"offset": 0,
								"slot": "1",
								"type": "t_string_storage"
							},
							{
								"astId": 46,
								"contract": "contracts/Profile.sol:Profile",
								"label": "phone",
								"offset": 0,
								"slot": "2",
								"type": "t_string_storage"
							},
							{
								"astId": 48,
								"contract": "contracts/Profile.sol:Profile",
								"label": "github",
								"offset": 0,
								"slot": "3",
								"type": "t_string_storage"
							},
							{
								"astId": 50,
								"contract": "contracts/Profile.sol:Profile",
								"label": "gitlab",
								"offset": 0,
								"slot": "4",
								"type": "t_string_storage"
							},
							{
								"astId": 52,
								"contract": "contracts/Profile.sol:Profile",
								"label": "linkin",
								"offset": 0,
								"slot": "5",
								"type": "t_string_storage"
							}
						],
						"numberOfBytes": "192"
					},
					"t_struct(Education)74_storage": {
						"encoding": "inplace",
						"label": "struct Profile.Education",
						"members": [
							{
								"astId": 65,
								"contract": "contracts/Profile.sol:Profile",
								"label": "startDate",
								"offset": 0,
								"slot": "0",
								"type": "t_string_storage"
							},
							{
								"astId": 67,
								"contract": "contracts/Profile.sol:Profile",
								"label": "endDate",
								"offset": 0,
								"slot": "1",
								"type": "t_string_storage"
							},
							{
								"astId": 69,
								"contract": "contracts/Profile.sol:Profile",
								"label": "univercity",
								"offset": 0,
								"slot": "2",
								"type": "t_string_storage"
							},
							{
								"astId": 71,
								"contract": "contracts/Profile.sol:Profile",
								"label": "major",
								"offset": 0,
								"slot": "3",
								"type": "t_string_storage"
							},
							{
								"astId": 73,
								"contract": "contracts/Profile.sol:Profile",
								"label": "finalProject",
								"offset": 0,
								"slot": "4",
								"type": "t_string_storage"
							}
						],
						"numberOfBytes": "160"
					},
					"t_struct(Information)40_storage": {
						"encoding": "inplace",
						"label": "struct Profile.Information",
						"members": [
							{
								"astId": 25,
								"contract": "contracts/Profile.sol:Profile",
								"label": "aboutMe",
								"offset": 0,
								"slot": "0",
								"type": "t_string_storage"
							},
							{
								"astId": 27,
								"contract": "contracts/Profile.sol:Profile",
								"label": "position",
								"offset": 0,
								"slot": "1",
								"type": "t_string_storage"
							},
							{
								"astId": 29,
								"contract": "contracts/Profile.sol:Profile",
								"label": "userAddress",
								"offset": 0,
								"slot": "2",
								"type": "t_address"
							},
							{
								"astId": 31,
								"contract": "contracts/Profile.sol:Profile",
								"label": "firstName",
								"offset": 0,
								"slot": "3",
								"type": "t_string_storage"
							},
							{
								"astId": 33,
								"contract": "contracts/Profile.sol:Profile",
								"label": "middleName",
								"offset": 0,
								"slot": "4",
								"type": "t_string_storage"
							},
							{
								"astId": 35,
								"contract": "contracts/Profile.sol:Profile",
								"label": "lastName",
								"offset": 0,
								"slot": "5",
								"type": "t_string_storage"
							},
							{
								"astId": 37,
								"contract": "contracts/Profile.sol:Profile",
								"label": "profileImage",
								"offset": 0,
								"slot": "6",
								"type": "t_string_storage"
							},
							{
								"astId": 39,
								"contract": "contracts/Profile.sol:Profile",
								"label": "createDate",
								"offset": 0,
								"slot": "7",
								"type": "t_uint256"
							}
						],
						"numberOfBytes": "256"
					},
					"t_struct(Skill)63_storage": {
						"encoding": "inplace",
						"label": "struct Profile.Skill",
						"members": [
							{
								"astId": 56,
								"contract": "contracts/Profile.sol:Profile",
								"label": "programmingLanguages",
								"offset": 0,
								"slot": "0",
								"type": "t_array(t_string_storage)dyn_storage"
							},
							{
								"astId": 59,
								"contract": "contracts/Profile.sol:Profile",
								"label": "framework",
								"offset": 0,
								"slot": "1",
								"type": "t_array(t_string_storage)dyn_storage"
							},
							{
								"astId": 62,
								"contract": "contracts/Profile.sol:Profile",
								"label": "databaseAndOther",
								"offset": 0,
								"slot": "2",
								"type": "t_array(t_string_storage)dyn_storage"
							}
						],
						"numberOfBytes": "96"
					},
					"t_uint256": {
						"encoding": "inplace",
						"label": "uint256",
						"numberOfBytes": "32"
					}
				}
			},
			"userdoc": {
				"kind": "user",
				"methods": {},
				"version": 1
			}
		}
	}
}