{
	"contracts/Profile.sol": {
		"Profile": {
			"abi": [
				{
					"inputs": [
						{
							"internalType": "string[]",
							"name": "award",
							"type": "string[]"
						},
						{
							"internalType": "string[]",
							"name": "certificate",
							"type": "string[]"
						}
					],
					"name": "createAward",
					"outputs": [],
					"stateMutability": "nonpayable",
					"type": "function"
				},
				{
					"inputs": [
						{
							"internalType": "string",
							"name": "email",
							"type": "string"
						},
						{
							"internalType": "string",
							"name": "phone",
							"type": "string"
						},
						{
							"internalType": "string",
							"name": "github",
							"type": "string"
						},
						{
							"internalType": "string",
							"name": "gitlab",
							"type": "string"
						},
						{
							"internalType": "string",
							"name": "linkin",
							"type": "string"
						}
					],
					"name": "createContract",
					"outputs": [],
					"stateMutability": "nonpayable",
					"type": "function"
				},
				{
					"inputs": [
						{
							"internalType": "string",
							"name": "firstName",
							"type": "string"
						},
						{
							"internalType": "string",
							"name": "middleName",
							"type": "string"
						},
						{
							"internalType": "string",
							"name": "lastName",
							"type": "string"
						},
						{
							"internalType": "string",
							"name": "profileImage",
							"type": "string"
						},
						{
							"internalType": "string",
							"name": "aboutMe",
							"type": "string"
						},
						{
							"internalType": "string",
							"name": "position",
							"type": "string"
						}
					],
					"name": "createInformation",
					"outputs": [],
					"stateMutability": "nonpayable",
					"type": "function"
				},
				{
					"inputs": [
						{
							"internalType": "string[]",
							"name": "programmingLanguages",
							"type": "string[]"
						},
						{
							"internalType": "string[]",
							"name": "framework",
							"type": "string[]"
						},
						{
							"internalType": "string[]",
							"name": "databaseAndOther",
							"type": "string[]"
						}
					],
					"name": "createSkill",
					"outputs": [],
					"stateMutability": "nonpayable",
					"type": "function"
				},
				{
					"inputs": [
						{
							"internalType": "string",
							"name": "startDate",
							"type": "string"
						},
						{
							"internalType": "string",
							"name": "endDate",
							"type": "string"
						},
						{
							"internalType": "string",
							"name": "univercity",
							"type": "string"
						},
						{
							"internalType": "string",
							"name": "major",
							"type": "string"
						},
						{
							"internalType": "string",
							"name": "finalProject",
							"type": "string"
						}
					],
					"name": "createUnivercity",
					"outputs": [],
					"stateMutability": "nonpayable",
					"type": "function"
				},
				{
					"inputs": [],
					"name": "delAllEducation",
					"outputs": [],
					"stateMutability": "nonpayable",
					"type": "function"
				},
				{
					"inputs": [],
					"name": "delCertificateAndAward",
					"outputs": [],
					"stateMutability": "nonpayable",
					"type": "function"
				},
				{
					"inputs": [],
					"name": "delInformaion",
					"outputs": [],
					"stateMutability": "nonpayable",
					"type": "function"
				},
				{
					"inputs": [],
					"name": "delProfile",
					"outputs": [],
					"stateMutability": "nonpayable",
					"type": "function"
				},
				{
					"inputs": [
						{
							"internalType": "uint256",
							"name": "index",
							"type": "uint256"
						}
					],
					"name": "getEducation",
					"outputs": [
						{
							"internalType": "string",
							"name": "",
							"type": "string"
						},
						{
							"internalType": "string",
							"name": "",
							"type": "string"
						},
						{
							"internalType": "string",
							"name": "",
							"type": "string"
						},
						{
							"internalType": "string",
							"name": "",
							"type": "string"
						},
						{
							"internalType": "string",
							"name": "",
							"type": "string"
						}
					],
					"stateMutability": "view",
					"type": "function"
				},
				{
					"inputs": [],
					"name": "getEducationCount",
					"outputs": [
						{
							"internalType": "uint256",
							"name": "",
							"type": "uint256"
						}
					],
					"stateMutability": "view",
					"type": "function"
				},
				{
					"inputs": [
						{
							"internalType": "address",
							"name": "",
							"type": "address"
						}
					],
					"name": "profile",
					"outputs": [
						{
							"components": [
								{
									"internalType": "string",
									"name": "aboutMe",
									"type": "string"
								},
								{
									"internalType": "string",
									"name": "position",
									"type": "string"
								},
								{
									"internalType": "address",
									"name": "userAddress",
									"type": "address"
								},
								{
									"internalType": "string",
									"name": "firstName",
									"type": "string"
								},
								{
									"internalType": "string",
									"name": "middleName",
									"type": "string"
								},
								{
									"internalType": "string",
									"name": "lastName",
									"type": "string"
								},
								{
									"internalType": "string",
									"name": "profileImage",
									"type": "string"
								},
								{
									"internalType": "uint256",
									"name": "createDate",
									"type": "uint256"
								}
							],
							"internalType": "struct Profile.Information",
							"name": "information",
							"type": "tuple"
						},
						{
							"components": [
								{
									"internalType": "string",
									"name": "aboutMe",
									"type": "string"
								},
								{
									"internalType": "string",
									"name": "email",
									"type": "string"
								},
								{
									"internalType": "string",
									"name": "phone",
									"type": "string"
								},
								{
									"internalType": "string",
									"name": "github",
									"type": "string"
								},
								{
									"internalType": "string",
									"name": "gitlab",
									"type": "string"
								},
								{
									"internalType": "string",
									"name": "linkin",
									"type": "string"
								}
							],
							"internalType": "struct Profile.Contract",
							"name": "privateContract",
							"type": "tuple"
						},
						{
							"components": [
								{
									"internalType": "string[]",
									"name": "programmingLanguages",
									"type": "string[]"
								},
								{
									"internalType": "string[]",
									"name": "framework",
									"type": "string[]"
								},
								{
									"internalType": "string[]",
									"name": "databaseAndOther",
									"type": "string[]"
								}
							],
							"internalType": "struct Profile.Skill",
							"name": "skill",
							"type": "tuple"
						},
						{
							"components": [
								{
									"internalType": "string[]",
									"name": "certificate",
									"type": "string[]"
								},
								{
									"internalType": "string[]",
									"name": "award",
									"type": "string[]"
								}
							],
							"internalType": "struct Profile.CertificateAndAward",
							"name": "certificateAndAward",
							"type": "tuple"
						},
						{
							"components": [
								{
									"internalType": "string",
									"name": "companyName",
									"type": "string"
								},
								{
									"internalType": "string",
									"name": "position",
									"type": "string"
								},
								{
									"internalType": "string",
									"name": "startDate",
									"type": "string"
								},
								{
									"internalType": "string",
									"name": "endDate",
									"type": "string"
								},
								{
									"internalType": "string[]",
									"name": "project",
									"type": "string[]"
								}
							],
							"internalType": "struct Profile.CompanyExperience",
							"name": "companyExperience",
							"type": "tuple"
						},
						{
							"components": [
								{
									"internalType": "string[]",
									"name": "project",
									"type": "string[]"
								}
							],
							"internalType": "struct Profile.FreelanceExperience",
							"name": "freelanceExperience",
							"type": "tuple"
						}
					],
					"stateMutability": "view",
					"type": "function"
				}
			],
			"devdoc": {
				"kind": "dev",
				"methods": {},
				"version": 1
			},
			"evm": {
				"assembly": "    /* \"contracts/Profile.sol\":60:5040  contract Profile {\r... */\n  mstore(0x40, 0x80)\n  callvalue\n  dup1\n  iszero\n  tag_1\n  jumpi\n  0x00\n  dup1\n  revert\ntag_1:\n  pop\n  dataSize(sub_0)\n  dup1\n  dataOffset(sub_0)\n  0x00\n  codecopy\n  0x00\n  return\nstop\n\nsub_0: assembly {\n        /* \"contracts/Profile.sol\":60:5040  contract Profile {\r... */\n      mstore(0x40, 0x80)\n      callvalue\n      dup1\n      iszero\n      tag_1\n      jumpi\n      0x00\n      dup1\n      revert\n    tag_1:\n      pop\n      jumpi(tag_2, lt(calldatasize, 0x04))\n      shr(0xe0, calldataload(0x00))\n      dup1\n      0x958791ae\n      gt\n      tag_15\n      jumpi\n      dup1\n      0x958791ae\n      eq\n      tag_9\n      jumpi\n      dup1\n      0x95ea3757\n      eq\n      tag_10\n      jumpi\n      dup1\n      0x9dd9d0fd\n      eq\n      tag_11\n      jumpi\n      dup1\n      0xed2217ef\n      eq\n      tag_12\n      jumpi\n      dup1\n      0xf96e32f8\n      eq\n      tag_13\n      jumpi\n      dup1\n      0xfabce08f\n      eq\n      tag_14\n      jumpi\n      jump(tag_2)\n    tag_15:\n      dup1\n      0x3d984d0e\n      eq\n      tag_3\n      jumpi\n      dup1\n      0x4ed74067\n      eq\n      tag_4\n      jumpi\n      dup1\n      0x6212fa02\n      eq\n      tag_5\n      jumpi\n      dup1\n      0x66244dfb\n      eq\n      tag_6\n      jumpi\n      dup1\n      0x6c2cc774\n      eq\n      tag_7\n      jumpi\n      dup1\n      0x72828388\n      eq\n      tag_8\n      jumpi\n    tag_2:\n      0x00\n      dup1\n      revert\n        /* \"contracts/Profile.sol\":2931:3319  function createSkill(string[] memory programmingLanguages, string[] memory framework, string[] memory databaseAndOther) public {\r... */\n    tag_3:\n      tag_16\n      0x04\n      dup1\n      calldatasize\n      sub\n      dup2\n      add\n      swap1\n      tag_17\n      swap2\n      swap1\n      tag_18\n      jump\t// in\n    tag_17:\n      tag_19\n      jump\t// in\n    tag_16:\n      stop\n        /* \"contracts/Profile.sol\":4927:5035  function delCertificateAndAward() external {\r... */\n    tag_4:\n      tag_20\n      tag_21\n      jump\t// in\n    tag_20:\n      stop\n        /* \"contracts/Profile.sol\":4266:4384  function getEducationCount() public view returns (uint) {\r... */\n    tag_5:\n      tag_22\n      tag_23\n      jump\t// in\n    tag_22:\n      mload(0x40)\n      tag_24\n      swap2\n      swap1\n      tag_25\n      jump\t// in\n    tag_24:\n      mload(0x40)\n      dup1\n      swap2\n      sub\n      swap1\n      return\n        /* \"contracts/Profile.sol\":3386:3856  function createUnivercity(string memory startDate, string memory endDate, string memory univercity, string memory major, string memory finalProject) public {\r... */\n    tag_6:\n      tag_26\n      0x04\n      dup1\n      calldatasize\n      sub\n      dup2\n      add\n      swap1\n      tag_27\n      swap2\n      swap1\n      tag_28\n      jump\t// in\n    tag_27:\n      tag_29\n      jump\t// in\n    tag_26:\n      stop\n        /* \"contracts/Profile.sol\":4392:4620  function createAward(string[] memory award, string[] memory certificate) public {\r... */\n    tag_7:\n      tag_30\n      0x04\n      dup1\n      calldatasize\n      sub\n      dup2\n      add\n      swap1\n      tag_31\n      swap2\n      swap1\n      tag_32\n      jump\t// in\n    tag_31:\n      tag_33\n      jump\t// in\n    tag_30:\n      stop\n        /* \"contracts/Profile.sol\":2340:2844  function createContract(string memory email, string memory phone, string memory github, string memory gitlab, string memory linkin) public {\r... */\n    tag_8:\n      tag_34\n      0x04\n      dup1\n      calldatasize\n      sub\n      dup2\n      add\n      swap1\n      tag_35\n      swap2\n      swap1\n      tag_28\n      jump\t// in\n    tag_35:\n      tag_36\n      jump\t// in\n    tag_34:\n      stop\n        /* \"contracts/Profile.sol\":1569:2285  function createInformation(string memory firstName, string memory middleName, string memory lastName,  string memory profileImage, string memory aboutMe, string memory position) public {\r... */\n    tag_9:\n      tag_37\n      0x04\n      dup1\n      calldatasize\n      sub\n      dup2\n      add\n      swap1\n      tag_38\n      swap2\n      swap1\n      tag_39\n      jump\t// in\n    tag_38:\n      tag_40\n      jump\t// in\n    tag_37:\n      stop\n        /* \"contracts/Profile.sol\":4743:4835  function delInformaion() external  {\r... */\n    tag_10:\n      tag_41\n      tag_42\n      jump\t// in\n    tag_41:\n      stop\n        /* \"contracts/Profile.sol\":380:420  mapping (address => Bio) public  profile */\n    tag_11:\n      tag_43\n      0x04\n      dup1\n      calldatasize\n      sub\n      dup2\n      add\n      swap1\n      tag_44\n      swap2\n      swap1\n      tag_45\n      jump\t// in\n    tag_44:\n      tag_46\n      jump\t// in\n    tag_43:\n      mload(0x40)\n      tag_47\n      swap7\n      swap6\n      swap5\n      swap4\n      swap3\n      swap2\n      swap1\n      tag_48\n      jump\t// in\n    tag_47:\n      mload(0x40)\n      dup1\n      swap2\n      sub\n      swap1\n      return\n        /* \"contracts/Profile.sol\":4643:4735  function delAllEducation() external  {\r... */\n    tag_12:\n      tag_49\n      tag_50\n      jump\t// in\n    tag_49:\n      stop\n        /* \"contracts/Profile.sol\":3865:4258  function getEducation(uint index) public view returns(string memory, string memory, string memory, string memory, string memory) {\r... */\n    tag_13:\n      tag_51\n      0x04\n      dup1\n      calldatasize\n      sub\n      dup2\n      add\n      swap1\n      tag_52\n      swap2\n      swap1\n      tag_53\n      jump\t// in\n    tag_52:\n      tag_54\n      jump\t// in\n    tag_51:\n      mload(0x40)\n      tag_55\n      swap6\n      swap5\n      swap4\n      swap3\n      swap2\n      swap1\n      tag_56\n      jump\t// in\n    tag_55:\n      mload(0x40)\n      dup1\n      swap2\n      sub\n      swap1\n      return\n        /* \"contracts/Profile.sol\":4843:4919  function delProfile() external {\r... */\n    tag_14:\n      tag_57\n      tag_58\n      jump\t// in\n    tag_57:\n      stop\n        /* \"contracts/Profile.sol\":2931:3319  function createSkill(string[] memory programmingLanguages, string[] memory framework, string[] memory databaseAndOther) public {\r... */\n    tag_19:\n        /* \"contracts/Profile.sol\":3076:3083  profile */\n      0x00\n        /* \"contracts/Profile.sol\":3076:3095  profile[msg.sender] */\n      dup1\n        /* \"contracts/Profile.sol\":3084:3094  msg.sender */\n      caller\n        /* \"contracts/Profile.sol\":3076:3095  profile[msg.sender] */\n      0xffffffffffffffffffffffffffffffffffffffff\n      and\n      0xffffffffffffffffffffffffffffffffffffffff\n      and\n      dup2\n      mstore\n      0x20\n      add\n      swap1\n      dup2\n      mstore\n      0x20\n      add\n      0x00\n      keccak256\n        /* \"contracts/Profile.sol\":3076:3101  profile[msg.sender].skill */\n      0x0e\n      add\n      0x00\n        /* \"contracts/Profile.sol\":3069:3101  delete profile[msg.sender].skill */\n      dup1\n      dup3\n      add\n      0x00\n      tag_60\n      swap2\n      swap1\n      tag_61\n      jump\t// in\n    tag_60:\n      0x01\n      dup3\n      add\n      0x00\n      tag_62\n      swap2\n      swap1\n      tag_61\n      jump\t// in\n    tag_62:\n      0x02\n      dup3\n      add\n      0x00\n      tag_63\n      swap2\n      swap1\n      tag_61\n      jump\t// in\n    tag_63:\n      pop\n      pop\n        /* \"contracts/Profile.sol\":3161:3181  programmingLanguages */\n      dup3\n        /* \"contracts/Profile.sol\":3112:3119  profile */\n      0x00\n        /* \"contracts/Profile.sol\":3112:3131  profile[msg.sender] */\n      dup1\n        /* \"contracts/Profile.sol\":3120:3130  msg.sender */\n      caller\n        /* \"contracts/Profile.sol\":3112:3131  profile[msg.sender] */\n      0xffffffffffffffffffffffffffffffffffffffff\n      and\n      0xffffffffffffffffffffffffffffffffffffffff\n      and\n      dup2\n      mstore\n      0x20\n      add\n      swap1\n      dup2\n      mstore\n      0x20\n      add\n      0x00\n      keccak256\n        /* \"contracts/Profile.sol\":3112:3137  profile[msg.sender].skill */\n      0x0e\n      add\n        /* \"contracts/Profile.sol\":3112:3158  profile[msg.sender].skill.programmingLanguages */\n      0x00\n      add\n        /* \"contracts/Profile.sol\":3112:3181  profile[msg.sender].skill.programmingLanguages = programmingLanguages */\n      swap1\n      dup1\n      mload\n      swap1\n      0x20\n      add\n      swap1\n      tag_64\n      swap3\n      swap2\n      swap1\n      tag_65\n      jump\t// in\n    tag_64:\n      pop\n        /* \"contracts/Profile.sol\":3230:3239  framework */\n      dup2\n        /* \"contracts/Profile.sol\":3192:3199  profile */\n      0x00\n        /* \"contracts/Profile.sol\":3192:3211  profile[msg.sender] */\n      dup1\n        /* \"contracts/Profile.sol\":3200:3210  msg.sender */\n      caller\n        /* \"contracts/Profile.sol\":3192:3211  profile[msg.sender] */\n      0xffffffffffffffffffffffffffffffffffffffff\n      and\n      0xffffffffffffffffffffffffffffffffffffffff\n      and\n      dup2\n      mstore\n      0x20\n      add\n      swap1\n      dup2\n      mstore\n      0x20\n      add\n      0x00\n      keccak256\n        /* \"contracts/Profile.sol\":3192:3217  profile[msg.sender].skill */\n      0x0e\n      add\n        /* \"contracts/Profile.sol\":3192:3227  profile[msg.sender].skill.framework */\n      0x01\n      add\n        /* \"contracts/Profile.sol\":3192:3239  profile[msg.sender].skill.framework = framework */\n      swap1\n      dup1\n      mload\n      swap1\n      0x20\n      add\n      swap1\n      tag_66\n      swap3\n      swap2\n      swap1\n      tag_65\n      jump\t// in\n    tag_66:\n      pop\n        /* \"contracts/Profile.sol\":3295:3311  databaseAndOther */\n      dup1\n        /* \"contracts/Profile.sol\":3250:3257  profile */\n      0x00\n        /* \"contracts/Profile.sol\":3250:3269  profile[msg.sender] */\n      dup1\n        /* \"contracts/Profile.sol\":3258:3268  msg.sender */\n      caller\n        /* \"contracts/Profile.sol\":3250:3269  profile[msg.sender] */\n      0xffffffffffffffffffffffffffffffffffffffff\n      and\n      0xffffffffffffffffffffffffffffffffffffffff\n      and\n      dup2\n      mstore\n      0x20\n      add\n      swap1\n      dup2\n      mstore\n      0x20\n      add\n      0x00\n      keccak256\n        /* \"contracts/Profile.sol\":3250:3275  profile[msg.sender].skill */\n      0x0e\n      add\n        /* \"contracts/Profile.sol\":3250:3292  profile[msg.sender].skill.databaseAndOther */\n      0x02\n      add\n        /* \"contracts/Profile.sol\":3250:3311  profile[msg.sender].skill.databaseAndOther = databaseAndOther */\n      swap1\n      dup1\n      mload\n      swap1\n      0x20\n      add\n      swap1\n      tag_67\n      swap3\n      swap2\n      swap1\n      tag_65\n      jump\t// in\n    tag_67:\n      pop\n        /* \"contracts/Profile.sol\":2931:3319  function createSkill(string[] memory programmingLanguages, string[] memory framework, string[] memory databaseAndOther) public {\r... */\n      pop\n      pop\n      pop\n      jump\t// out\n        /* \"contracts/Profile.sol\":4927:5035  function delCertificateAndAward() external {\r... */\n    tag_21:\n        /* \"contracts/Profile.sol\":4988:4995  profile */\n      0x00\n        /* \"contracts/Profile.sol\":4988:5007  profile[msg.sender] */\n      dup1\n        /* \"contracts/Profile.sol\":4996:5006  msg.sender */\n      caller\n        /* \"contracts/Profile.sol\":4988:5007  profile[msg.sender] */\n      0xffffffffffffffffffffffffffffffffffffffff\n      and\n      0xffffffffffffffffffffffffffffffffffffffff\n      and\n      dup2\n      mstore\n      0x20\n      add\n      swap1\n      dup2\n      mstore\n      0x20\n      add\n      0x00\n      keccak256\n        /* \"contracts/Profile.sol\":4988:5027  profile[msg.sender].certificateAndAward */\n      0x12\n      add\n      0x00\n        /* \"contracts/Profile.sol\":4981:5027  delete profile[msg.sender].certificateAndAward */\n      dup1\n      dup3\n      add\n      0x00\n      tag_69\n      swap2\n      swap1\n      tag_61\n      jump\t// in\n    tag_69:\n      0x01\n      dup3\n      add\n      0x00\n      tag_70\n      swap2\n      swap1\n      tag_61\n      jump\t// in\n    tag_70:\n      pop\n      pop\n        /* \"contracts/Profile.sol\":4927:5035  function delCertificateAndAward() external {\r... */\n      jump\t// out\n        /* \"contracts/Profile.sol\":4266:4384  function getEducationCount() public view returns (uint) {\r... */\n    tag_23:\n        /* \"contracts/Profile.sol\":4316:4320  uint */\n      0x00\n        /* \"contracts/Profile.sol\":4340:4347  profile */\n      dup1\n        /* \"contracts/Profile.sol\":4340:4359  profile[msg.sender] */\n      0x00\n        /* \"contracts/Profile.sol\":4348:4358  msg.sender */\n      caller\n        /* \"contracts/Profile.sol\":4340:4359  profile[msg.sender] */\n      0xffffffffffffffffffffffffffffffffffffffff\n      and\n      0xffffffffffffffffffffffffffffffffffffffff\n      and\n      dup2\n      mstore\n      0x20\n      add\n      swap1\n      dup2\n      mstore\n      0x20\n      add\n      0x00\n      keccak256\n        /* \"contracts/Profile.sol\":4340:4369  profile[msg.sender].education */\n      0x11\n      add\n        /* \"contracts/Profile.sol\":4340:4376  profile[msg.sender].education.length */\n      dup1\n      sload\n      swap1\n      pop\n        /* \"contracts/Profile.sol\":4333:4376  return profile[msg.sender].education.length */\n      swap1\n      pop\n        /* \"contracts/Profile.sol\":4266:4384  function getEducationCount() public view returns (uint) {\r... */\n      swap1\n      jump\t// out\n        /* \"contracts/Profile.sol\":3386:3856  function createUnivercity(string memory startDate, string memory endDate, string memory univercity, string memory major, string memory finalProject) public {\r... */\n    tag_29:\n        /* \"contracts/Profile.sol\":3553:3580  Education memory _education */\n      tag_73\n      tag_74\n      jump\t// in\n    tag_73:\n        /* \"contracts/Profile.sol\":3614:3623  startDate */\n      dup6\n        /* \"contracts/Profile.sol\":3591:3601  _education */\n      dup2\n        /* \"contracts/Profile.sol\":3591:3611  _education.startDate */\n      0x00\n      add\n        /* \"contracts/Profile.sol\":3591:3623  _education.startDate = startDate */\n      dup2\n      swap1\n      mstore\n      pop\n        /* \"contracts/Profile.sol\":3655:3662  endDate */\n      dup5\n        /* \"contracts/Profile.sol\":3634:3644  _education */\n      dup2\n        /* \"contracts/Profile.sol\":3634:3652  _education.endDate */\n      0x20\n      add\n        /* \"contracts/Profile.sol\":3634:3662  _education.endDate = endDate */\n      dup2\n      swap1\n      mstore\n      pop\n        /* \"contracts/Profile.sol\":3697:3707  univercity */\n      dup4\n        /* \"contracts/Profile.sol\":3673:3683  _education */\n      dup2\n        /* \"contracts/Profile.sol\":3673:3694  _education.univercity */\n      0x40\n      add\n        /* \"contracts/Profile.sol\":3673:3707  _education.univercity = univercity */\n      dup2\n      swap1\n      mstore\n      pop\n        /* \"contracts/Profile.sol\":3737:3742  major */\n      dup3\n        /* \"contracts/Profile.sol\":3718:3728  _education */\n      dup2\n        /* \"contracts/Profile.sol\":3718:3734  _education.major */\n      0x60\n      add\n        /* \"contracts/Profile.sol\":3718:3742  _education.major = major */\n      dup2\n      swap1\n      mstore\n      pop\n        /* \"contracts/Profile.sol\":3779:3791  finalProject */\n      dup2\n        /* \"contracts/Profile.sol\":3753:3763  _education */\n      dup2\n        /* \"contracts/Profile.sol\":3753:3776  _education.finalProject */\n      0x80\n      add\n        /* \"contracts/Profile.sol\":3753:3791  _education.finalProject = finalProject */\n      dup2\n      swap1\n      mstore\n      pop\n        /* \"contracts/Profile.sol\":3802:3809  profile */\n      0x00\n        /* \"contracts/Profile.sol\":3802:3821  profile[msg.sender] */\n      dup1\n        /* \"contracts/Profile.sol\":3810:3820  msg.sender */\n      caller\n        /* \"contracts/Profile.sol\":3802:3821  profile[msg.sender] */\n      0xffffffffffffffffffffffffffffffffffffffff\n      and\n      0xffffffffffffffffffffffffffffffffffffffff\n      and\n      dup2\n      mstore\n      0x20\n      add\n      swap1\n      dup2\n      mstore\n      0x20\n      add\n      0x00\n      keccak256\n        /* \"contracts/Profile.sol\":3802:3831  profile[msg.sender].education */\n      0x11\n      add\n        /* \"contracts/Profile.sol\":3837:3847  _education */\n      dup2\n        /* \"contracts/Profile.sol\":3802:3848  profile[msg.sender].education.push(_education) */\n      swap1\n      dup1\n      0x01\n      dup2\n      sload\n      add\n      dup1\n      dup3\n      sstore\n      dup1\n      swap2\n      pop\n      pop\n      0x01\n      swap1\n      sub\n      swap1\n      0x00\n      mstore\n      keccak256(0x00, 0x20)\n      swap1\n      0x05\n      mul\n      add\n      0x00\n      swap1\n      swap2\n      swap1\n      swap2\n      swap1\n      swap2\n      pop\n      0x00\n      dup3\n      add\n      mload\n      dup2\n      0x00\n      add\n      swap1\n      dup1\n      mload\n      swap1\n      0x20\n      add\n      swap1\n      tag_76\n      swap3\n      swap2\n      swap1\n      tag_77\n      jump\t// in\n    tag_76:\n      pop\n      0x20\n      dup3\n      add\n      mload\n      dup2\n      0x01\n      add\n      swap1\n      dup1\n      mload\n      swap1\n      0x20\n      add\n      swap1\n      tag_78\n      swap3\n      swap2\n      swap1\n      tag_77\n      jump\t// in\n    tag_78:\n      pop\n      0x40\n      dup3\n      add\n      mload\n      dup2\n      0x02\n      add\n      swap1\n      dup1\n      mload\n      swap1\n      0x20\n      add\n      swap1\n      tag_79\n      swap3\n      swap2\n      swap1\n      tag_77\n      jump\t// in\n    tag_79:\n      pop\n      0x60\n      dup3\n      add\n      mload\n      dup2\n      0x03\n      add\n      swap1\n      dup1\n      mload\n      swap1\n      0x20\n      add\n      swap1\n      tag_80\n      swap3\n      swap2\n      swap1\n      tag_77\n      jump\t// in\n    tag_80:\n      pop\n      0x80\n      dup3\n      add\n      mload\n      dup2\n      0x04\n      add\n      swap1\n      dup1\n      mload\n      swap1\n      0x20\n      add\n      swap1\n      tag_81\n      swap3\n      swap2\n      swap1\n      tag_77\n      jump\t// in\n    tag_81:\n      pop\n      pop\n      pop\n        /* \"contracts/Profile.sol\":3542:3856  {\r... */\n      pop\n        /* \"contracts/Profile.sol\":3386:3856  function createUnivercity(string memory startDate, string memory endDate, string memory univercity, string memory major, string memory finalProject) public {\r... */\n      pop\n      pop\n      pop\n      pop\n      pop\n      jump\t// out\n        /* \"contracts/Profile.sol\":4392:4620  function createAward(string[] memory award, string[] memory certificate) public {\r... */\n    tag_33:\n        /* \"contracts/Profile.sol\":4531:4536  award */\n      dup2\n        /* \"contracts/Profile.sol\":4483:4490  profile */\n      0x00\n        /* \"contracts/Profile.sol\":4483:4502  profile[msg.sender] */\n      dup1\n        /* \"contracts/Profile.sol\":4491:4501  msg.sender */\n      caller\n        /* \"contracts/Profile.sol\":4483:4502  profile[msg.sender] */\n      0xffffffffffffffffffffffffffffffffffffffff\n      and\n      0xffffffffffffffffffffffffffffffffffffffff\n      and\n      dup2\n      mstore\n      0x20\n      add\n      swap1\n      dup2\n      mstore\n      0x20\n      add\n      0x00\n      keccak256\n        /* \"contracts/Profile.sol\":4483:4522  profile[msg.sender].certificateAndAward */\n      0x12\n      add\n        /* \"contracts/Profile.sol\":4483:4528  profile[msg.sender].certificateAndAward.award */\n      0x01\n      add\n        /* \"contracts/Profile.sol\":4483:4536  profile[msg.sender].certificateAndAward.award = award */\n      swap1\n      dup1\n      mload\n      swap1\n      0x20\n      add\n      swap1\n      tag_83\n      swap3\n      swap2\n      swap1\n      tag_65\n      jump\t// in\n    tag_83:\n      pop\n        /* \"contracts/Profile.sol\":4601:4612  certificate */\n      dup1\n        /* \"contracts/Profile.sol\":4547:4554  profile */\n      0x00\n        /* \"contracts/Profile.sol\":4547:4566  profile[msg.sender] */\n      dup1\n        /* \"contracts/Profile.sol\":4555:4565  msg.sender */\n      caller\n        /* \"contracts/Profile.sol\":4547:4566  profile[msg.sender] */\n      0xffffffffffffffffffffffffffffffffffffffff\n      and\n      0xffffffffffffffffffffffffffffffffffffffff\n      and\n      dup2\n      mstore\n      0x20\n      add\n      swap1\n      dup2\n      mstore\n      0x20\n      add\n      0x00\n      keccak256\n        /* \"contracts/Profile.sol\":4547:4586  profile[msg.sender].certificateAndAward */\n      0x12\n      add\n        /* \"contracts/Profile.sol\":4547:4598  profile[msg.sender].certificateAndAward.certificate */\n      0x00\n      add\n        /* \"contracts/Profile.sol\":4547:4612  profile[msg.sender].certificateAndAward.certificate = certificate */\n      swap1\n      dup1\n      mload\n      swap1\n      0x20\n      add\n      swap1\n      tag_84\n      swap3\n      swap2\n      swap1\n      tag_65\n      jump\t// in\n    tag_84:\n      pop\n        /* \"contracts/Profile.sol\":4392:4620  function createAward(string[] memory award, string[] memory certificate) public {\r... */\n      pop\n      pop\n      jump\t// out\n        /* \"contracts/Profile.sol\":2340:2844  function createContract(string memory email, string memory phone, string memory github, string memory gitlab, string memory linkin) public {\r... */\n    tag_36:\n        /* \"contracts/Profile.sol\":2497:2504  profile */\n      0x00\n        /* \"contracts/Profile.sol\":2497:2516  profile[msg.sender] */\n      dup1\n        /* \"contracts/Profile.sol\":2505:2515  msg.sender */\n      caller\n        /* \"contracts/Profile.sol\":2497:2516  profile[msg.sender] */\n      0xffffffffffffffffffffffffffffffffffffffff\n      and\n      0xffffffffffffffffffffffffffffffffffffffff\n      and\n      dup2\n      mstore\n      0x20\n      add\n      swap1\n      dup2\n      mstore\n      0x20\n      add\n      0x00\n      keccak256\n        /* \"contracts/Profile.sol\":2497:2532  profile[msg.sender].privateContract */\n      0x08\n      add\n      0x00\n        /* \"contracts/Profile.sol\":2490:2532  delete profile[msg.sender].privateContract */\n      dup1\n      dup3\n      add\n      0x00\n      tag_86\n      swap2\n      swap1\n      tag_87\n      jump\t// in\n    tag_86:\n      0x01\n      dup3\n      add\n      0x00\n      tag_88\n      swap2\n      swap1\n      tag_87\n      jump\t// in\n    tag_88:\n      0x02\n      dup3\n      add\n      0x00\n      tag_89\n      swap2\n      swap1\n      tag_87\n      jump\t// in\n    tag_89:\n      0x03\n      dup3\n      add\n      0x00\n      tag_90\n      swap2\n      swap1\n      tag_87\n      jump\t// in\n    tag_90:\n      0x04\n      dup3\n      add\n      0x00\n      tag_91\n      swap2\n      swap1\n      tag_87\n      jump\t// in\n    tag_91:\n      0x05\n      dup3\n      add\n      0x00\n      tag_92\n      swap2\n      swap1\n      tag_87\n      jump\t// in\n    tag_92:\n      pop\n      pop\n        /* \"contracts/Profile.sol\":2587:2592  email */\n      dup5\n        /* \"contracts/Profile.sol\":2543:2550  profile */\n      0x00\n        /* \"contracts/Profile.sol\":2543:2562  profile[msg.sender] */\n      dup1\n        /* \"contracts/Profile.sol\":2551:2561  msg.sender */\n      caller\n        /* \"contracts/Profile.sol\":2543:2562  profile[msg.sender] */\n      0xffffffffffffffffffffffffffffffffffffffff\n      and\n      0xffffffffffffffffffffffffffffffffffffffff\n      and\n      dup2\n      mstore\n      0x20\n      add\n      swap1\n      dup2\n      mstore\n      0x20\n      add\n      0x00\n      keccak256\n        /* \"contracts/Profile.sol\":2543:2578  profile[msg.sender].privateContract */\n      0x08\n      add\n        /* \"contracts/Profile.sol\":2543:2584  profile[msg.sender].privateContract.email */\n      0x01\n      add\n        /* \"contracts/Profile.sol\":2543:2592  profile[msg.sender].privateContract.email = email */\n      swap1\n      dup1\n      mload\n      swap1\n      0x20\n      add\n      swap1\n      tag_93\n      swap3\n      swap2\n      swap1\n      tag_77\n      jump\t// in\n    tag_93:\n      pop\n        /* \"contracts/Profile.sol\":2647:2652  phone */\n      dup4\n        /* \"contracts/Profile.sol\":2603:2610  profile */\n      0x00\n        /* \"contracts/Profile.sol\":2603:2622  profile[msg.sender] */\n      dup1\n        /* \"contracts/Profile.sol\":2611:2621  msg.sender */\n      caller\n        /* \"contracts/Profile.sol\":2603:2622  profile[msg.sender] */\n      0xffffffffffffffffffffffffffffffffffffffff\n      and\n      0xffffffffffffffffffffffffffffffffffffffff\n      and\n      dup2\n      mstore\n      0x20\n      add\n      swap1\n      dup2\n      mstore\n      0x20\n      add\n      0x00\n      keccak256\n        /* \"contracts/Profile.sol\":2603:2638  profile[msg.sender].privateContract */\n      0x08\n      add\n        /* \"contracts/Profile.sol\":2603:2644  profile[msg.sender].privateContract.phone */\n      0x02\n      add\n        /* \"contracts/Profile.sol\":2603:2652  profile[msg.sender].privateContract.phone = phone */\n      swap1\n      dup1\n      mload\n      swap1\n      0x20\n      add\n      swap1\n      tag_94\n      swap3\n      swap2\n      swap1\n      tag_77\n      jump\t// in\n    tag_94:\n      pop\n        /* \"contracts/Profile.sol\":2708:2714  github */\n      dup3\n        /* \"contracts/Profile.sol\":2663:2670  profile */\n      0x00\n        /* \"contracts/Profile.sol\":2663:2682  profile[msg.sender] */\n      dup1\n        /* \"contracts/Profile.sol\":2671:2681  msg.sender */\n      caller\n        /* \"contracts/Profile.sol\":2663:2682  profile[msg.sender] */\n      0xffffffffffffffffffffffffffffffffffffffff\n      and\n      0xffffffffffffffffffffffffffffffffffffffff\n      and\n      dup2\n      mstore\n      0x20\n      add\n      swap1\n      dup2\n      mstore\n      0x20\n      add\n      0x00\n      keccak256\n        /* \"contracts/Profile.sol\":2663:2698  profile[msg.sender].privateContract */\n      0x08\n      add\n        /* \"contracts/Profile.sol\":2663:2705  profile[msg.sender].privateContract.github */\n      0x03\n      add\n        /* \"contracts/Profile.sol\":2663:2714  profile[msg.sender].privateContract.github = github */\n      swap1\n      dup1\n      mload\n      swap1\n      0x20\n      add\n      swap1\n      tag_95\n      swap3\n      swap2\n      swap1\n      tag_77\n      jump\t// in\n    tag_95:\n      pop\n        /* \"contracts/Profile.sol\":2769:2775  gitlab */\n      dup2\n        /* \"contracts/Profile.sol\":2725:2732  profile */\n      0x00\n        /* \"contracts/Profile.sol\":2725:2744  profile[msg.sender] */\n      dup1\n        /* \"contracts/Profile.sol\":2733:2743  msg.sender */\n      caller\n        /* \"contracts/Profile.sol\":2725:2744  profile[msg.sender] */\n      0xffffffffffffffffffffffffffffffffffffffff\n      and\n      0xffffffffffffffffffffffffffffffffffffffff\n      and\n      dup2\n      mstore\n      0x20\n      add\n      swap1\n      dup2\n      mstore\n      0x20\n      add\n      0x00\n      keccak256\n        /* \"contracts/Profile.sol\":2725:2760  profile[msg.sender].privateContract */\n      0x08\n      add\n        /* \"contracts/Profile.sol\":2725:2766  profile[msg.sender].privateContract.phone */\n      0x02\n      add\n        /* \"contracts/Profile.sol\":2725:2775  profile[msg.sender].privateContract.phone = gitlab */\n      swap1\n      dup1\n      mload\n      swap1\n      0x20\n      add\n      swap1\n      tag_96\n      swap3\n      swap2\n      swap1\n      tag_77\n      jump\t// in\n    tag_96:\n      pop\n        /* \"contracts/Profile.sol\":2830:2836  linkin */\n      dup1\n        /* \"contracts/Profile.sol\":2786:2793  profile */\n      0x00\n        /* \"contracts/Profile.sol\":2786:2805  profile[msg.sender] */\n      dup1\n        /* \"contracts/Profile.sol\":2794:2804  msg.sender */\n      caller\n        /* \"contracts/Profile.sol\":2786:2805  profile[msg.sender] */\n      0xffffffffffffffffffffffffffffffffffffffff\n      and\n      0xffffffffffffffffffffffffffffffffffffffff\n      and\n      dup2\n      mstore\n      0x20\n      add\n      swap1\n      dup2\n      mstore\n      0x20\n      add\n      0x00\n      keccak256\n        /* \"contracts/Profile.sol\":2786:2821  profile[msg.sender].privateContract */\n      0x08\n      add\n        /* \"contracts/Profile.sol\":2786:2827  profile[msg.sender].privateContract.email */\n      0x01\n      add\n        /* \"contracts/Profile.sol\":2786:2836  profile[msg.sender].privateContract.email = linkin */\n      swap1\n      dup1\n      mload\n      swap1\n      0x20\n      add\n      swap1\n      tag_97\n      swap3\n      swap2\n      swap1\n      tag_77\n      jump\t// in\n    tag_97:\n      pop\n        /* \"contracts/Profile.sol\":2340:2844  function createContract(string memory email, string memory phone, string memory github, string memory gitlab, string memory linkin) public {\r... */\n      pop\n      pop\n      pop\n      pop\n      pop\n      jump\t// out\n        /* \"contracts/Profile.sol\":1569:2285  function createInformation(string memory firstName, string memory middleName, string memory lastName,  string memory profileImage, string memory aboutMe, string memory position) public {\r... */\n    tag_40:\n        /* \"contracts/Profile.sol\":1809:1818  firstName */\n      dup6\n        /* \"contracts/Profile.sol\":1765:1772  profile */\n      0x00\n        /* \"contracts/Profile.sol\":1765:1784  profile[msg.sender] */\n      dup1\n        /* \"contracts/Profile.sol\":1773:1783  msg.sender */\n      caller\n        /* \"contracts/Profile.sol\":1765:1784  profile[msg.sender] */\n      0xffffffffffffffffffffffffffffffffffffffff\n      and\n      0xffffffffffffffffffffffffffffffffffffffff\n      and\n      dup2\n      mstore\n      0x20\n      add\n      swap1\n      dup2\n      mstore\n      0x20\n      add\n      0x00\n      keccak256\n        /* \"contracts/Profile.sol\":1765:1796  profile[msg.sender].information */\n      0x00\n      add\n        /* \"contracts/Profile.sol\":1765:1806  profile[msg.sender].information.firstName */\n      0x03\n      add\n        /* \"contracts/Profile.sol\":1765:1818  profile[msg.sender].information.firstName = firstName */\n      swap1\n      dup1\n      mload\n      swap1\n      0x20\n      add\n      swap1\n      tag_99\n      swap3\n      swap2\n      swap1\n      tag_77\n      jump\t// in\n    tag_99:\n      pop\n        /* \"contracts/Profile.sol\":1874:1884  middleName */\n      dup5\n        /* \"contracts/Profile.sol\":1829:1836  profile */\n      0x00\n        /* \"contracts/Profile.sol\":1829:1848  profile[msg.sender] */\n      dup1\n        /* \"contracts/Profile.sol\":1837:1847  msg.sender */\n      caller\n        /* \"contracts/Profile.sol\":1829:1848  profile[msg.sender] */\n      0xffffffffffffffffffffffffffffffffffffffff\n      and\n      0xffffffffffffffffffffffffffffffffffffffff\n      and\n      dup2\n      mstore\n      0x20\n      add\n      swap1\n      dup2\n      mstore\n      0x20\n      add\n      0x00\n      keccak256\n        /* \"contracts/Profile.sol\":1829:1860  profile[msg.sender].information */\n      0x00\n      add\n        /* \"contracts/Profile.sol\":1829:1871  profile[msg.sender].information.middleName */\n      0x04\n      add\n        /* \"contracts/Profile.sol\":1829:1884  profile[msg.sender].information.middleName = middleName */\n      swap1\n      dup1\n      mload\n      swap1\n      0x20\n      add\n      swap1\n      tag_100\n      swap3\n      swap2\n      swap1\n      tag_77\n      jump\t// in\n    tag_100:\n      pop\n        /* \"contracts/Profile.sol\":1938:1946  lastName */\n      dup4\n        /* \"contracts/Profile.sol\":1895:1902  profile */\n      0x00\n        /* \"contracts/Profile.sol\":1895:1914  profile[msg.sender] */\n      dup1\n        /* \"contracts/Profile.sol\":1903:1913  msg.sender */\n      caller\n        /* \"contracts/Profile.sol\":1895:1914  profile[msg.sender] */\n      0xffffffffffffffffffffffffffffffffffffffff\n      and\n      0xffffffffffffffffffffffffffffffffffffffff\n      and\n      dup2\n      mstore\n      0x20\n      add\n      swap1\n      dup2\n      mstore\n      0x20\n      add\n      0x00\n      keccak256\n        /* \"contracts/Profile.sol\":1895:1926  profile[msg.sender].information */\n      0x00\n      add\n        /* \"contracts/Profile.sol\":1895:1935  profile[msg.sender].information.lastName */\n      0x05\n      add\n        /* \"contracts/Profile.sol\":1895:1946  profile[msg.sender].information.lastName = lastName */\n      swap1\n      dup1\n      mload\n      swap1\n      0x20\n      add\n      swap1\n      tag_101\n      swap3\n      swap2\n      swap1\n      tag_77\n      jump\t// in\n    tag_101:\n      pop\n        /* \"contracts/Profile.sol\":2004:2016  profileImage */\n      dup3\n        /* \"contracts/Profile.sol\":1957:1964  profile */\n      0x00\n        /* \"contracts/Profile.sol\":1957:1976  profile[msg.sender] */\n      dup1\n        /* \"contracts/Profile.sol\":1965:1975  msg.sender */\n      caller\n        /* \"contracts/Profile.sol\":1957:1976  profile[msg.sender] */\n      0xffffffffffffffffffffffffffffffffffffffff\n      and\n      0xffffffffffffffffffffffffffffffffffffffff\n      and\n      dup2\n      mstore\n      0x20\n      add\n      swap1\n      dup2\n      mstore\n      0x20\n      add\n      0x00\n      keccak256\n        /* \"contracts/Profile.sol\":1957:1988  profile[msg.sender].information */\n      0x00\n      add\n        /* \"contracts/Profile.sol\":1957:2001  profile[msg.sender].information.profileImage */\n      0x06\n      add\n        /* \"contracts/Profile.sol\":1957:2016  profile[msg.sender].information.profileImage = profileImage */\n      swap1\n      dup1\n      mload\n      swap1\n      0x20\n      add\n      swap1\n      tag_102\n      swap3\n      swap2\n      swap1\n      tag_77\n      jump\t// in\n    tag_102:\n      pop\n        /* \"contracts/Profile.sol\":2069:2076  aboutMe */\n      dup2\n        /* \"contracts/Profile.sol\":2027:2034  profile */\n      0x00\n        /* \"contracts/Profile.sol\":2027:2046  profile[msg.sender] */\n      dup1\n        /* \"contracts/Profile.sol\":2035:2045  msg.sender */\n      caller\n        /* \"contracts/Profile.sol\":2027:2046  profile[msg.sender] */\n      0xffffffffffffffffffffffffffffffffffffffff\n      and\n      0xffffffffffffffffffffffffffffffffffffffff\n      and\n      dup2\n      mstore\n      0x20\n      add\n      swap1\n      dup2\n      mstore\n      0x20\n      add\n      0x00\n      keccak256\n        /* \"contracts/Profile.sol\":2027:2058  profile[msg.sender].information */\n      0x00\n      add\n        /* \"contracts/Profile.sol\":2027:2066  profile[msg.sender].information.aboutMe */\n      0x00\n      add\n        /* \"contracts/Profile.sol\":2027:2076  profile[msg.sender].information.aboutMe = aboutMe */\n      swap1\n      dup1\n      mload\n      swap1\n      0x20\n      add\n      swap1\n      tag_103\n      swap3\n      swap2\n      swap1\n      tag_77\n      jump\t// in\n    tag_103:\n      pop\n        /* \"contracts/Profile.sol\":2130:2138  position */\n      dup1\n        /* \"contracts/Profile.sol\":2087:2094  profile */\n      0x00\n        /* \"contracts/Profile.sol\":2087:2106  profile[msg.sender] */\n      dup1\n        /* \"contracts/Profile.sol\":2095:2105  msg.sender */\n      caller\n        /* \"contracts/Profile.sol\":2087:2106  profile[msg.sender] */\n      0xffffffffffffffffffffffffffffffffffffffff\n      and\n      0xffffffffffffffffffffffffffffffffffffffff\n      and\n      dup2\n      mstore\n      0x20\n      add\n      swap1\n      dup2\n      mstore\n      0x20\n      add\n      0x00\n      keccak256\n        /* \"contracts/Profile.sol\":2087:2118  profile[msg.sender].information */\n      0x00\n      add\n        /* \"contracts/Profile.sol\":2087:2127  profile[msg.sender].information.position */\n      0x01\n      add\n        /* \"contracts/Profile.sol\":2087:2138  profile[msg.sender].information.position = position */\n      swap1\n      dup1\n      mload\n      swap1\n      0x20\n      add\n      swap1\n      tag_104\n      swap3\n      swap2\n      swap1\n      tag_77\n      jump\t// in\n    tag_104:\n      pop\n        /* \"contracts/Profile.sol\":2195:2205  msg.sender */\n      caller\n        /* \"contracts/Profile.sol\":2149:2156  profile */\n      0x00\n        /* \"contracts/Profile.sol\":2149:2168  profile[msg.sender] */\n      dup1\n        /* \"contracts/Profile.sol\":2157:2167  msg.sender */\n      caller\n        /* \"contracts/Profile.sol\":2149:2168  profile[msg.sender] */\n      0xffffffffffffffffffffffffffffffffffffffff\n      and\n      0xffffffffffffffffffffffffffffffffffffffff\n      and\n      dup2\n      mstore\n      0x20\n      add\n      swap1\n      dup2\n      mstore\n      0x20\n      add\n      0x00\n      keccak256\n        /* \"contracts/Profile.sol\":2149:2180  profile[msg.sender].information */\n      0x00\n      add\n        /* \"contracts/Profile.sol\":2149:2192  profile[msg.sender].information.userAddress */\n      0x02\n      add\n      0x00\n        /* \"contracts/Profile.sol\":2149:2205  profile[msg.sender].information.userAddress = msg.sender */\n      0x0100\n      exp\n      dup2\n      sload\n      dup2\n      0xffffffffffffffffffffffffffffffffffffffff\n      mul\n      not\n      and\n      swap1\n      dup4\n      0xffffffffffffffffffffffffffffffffffffffff\n      and\n      mul\n      or\n      swap1\n      sstore\n      pop\n        /* \"contracts/Profile.sol\":2262:2277  block.timestamp */\n      timestamp\n        /* \"contracts/Profile.sol\":2217:2224  profile */\n      0x00\n        /* \"contracts/Profile.sol\":2217:2236  profile[msg.sender] */\n      dup1\n        /* \"contracts/Profile.sol\":2225:2235  msg.sender */\n      caller\n        /* \"contracts/Profile.sol\":2217:2236  profile[msg.sender] */\n      0xffffffffffffffffffffffffffffffffffffffff\n      and\n      0xffffffffffffffffffffffffffffffffffffffff\n      and\n      dup2\n      mstore\n      0x20\n      add\n      swap1\n      dup2\n      mstore\n      0x20\n      add\n      0x00\n      keccak256\n        /* \"contracts/Profile.sol\":2217:2248  profile[msg.sender].information */\n      0x00\n      add\n        /* \"contracts/Profile.sol\":2217:2259  profile[msg.sender].information.createDate */\n      0x07\n      add\n        /* \"contracts/Profile.sol\":2217:2277  profile[msg.sender].information.createDate = block.timestamp */\n      dup2\n      swap1\n      sstore\n      pop\n        /* \"contracts/Profile.sol\":1569:2285  function createInformation(string memory firstName, string memory middleName, string memory lastName,  string memory profileImage, string memory aboutMe, string memory position) public {\r... */\n      pop\n      pop\n      pop\n      pop\n      pop\n      pop\n      jump\t// out\n        /* \"contracts/Profile.sol\":4743:4835  function delInformaion() external  {\r... */\n    tag_42:\n        /* \"contracts/Profile.sol\":4796:4803  profile */\n      0x00\n        /* \"contracts/Profile.sol\":4796:4815  profile[msg.sender] */\n      dup1\n        /* \"contracts/Profile.sol\":4804:4814  msg.sender */\n      caller\n        /* \"contracts/Profile.sol\":4796:4815  profile[msg.sender] */\n      0xffffffffffffffffffffffffffffffffffffffff\n      and\n      0xffffffffffffffffffffffffffffffffffffffff\n      and\n      dup2\n      mstore\n      0x20\n      add\n      swap1\n      dup2\n      mstore\n      0x20\n      add\n      0x00\n      keccak256\n        /* \"contracts/Profile.sol\":4796:4827  profile[msg.sender].information */\n      0x00\n      add\n      0x00\n        /* \"contracts/Profile.sol\":4789:4827  delete profile[msg.sender].information */\n      dup1\n      dup3\n      add\n      0x00\n      tag_106\n      swap2\n      swap1\n      tag_87\n      jump\t// in\n    tag_106:\n      0x01\n      dup3\n      add\n      0x00\n      tag_107\n      swap2\n      swap1\n      tag_87\n      jump\t// in\n    tag_107:\n      0x02\n      dup3\n      add\n      exp(0x0100, 0x00)\n      dup2\n      sload\n      swap1\n      0xffffffffffffffffffffffffffffffffffffffff\n      mul\n      not\n      and\n      swap1\n      sstore\n      0x03\n      dup3\n      add\n      0x00\n      tag_108\n      swap2\n      swap1\n      tag_87\n      jump\t// in\n    tag_108:\n      0x04\n      dup3\n      add\n      0x00\n      tag_109\n      swap2\n      swap1\n      tag_87\n      jump\t// in\n    tag_109:\n      0x05\n      dup3\n      add\n      0x00\n      tag_110\n      swap2\n      swap1\n      tag_87\n      jump\t// in\n    tag_110:\n      0x06\n      dup3\n      add\n      0x00\n      tag_111\n      swap2\n      swap1\n      tag_87\n      jump\t// in\n    tag_111:\n      0x07\n      dup3\n      add\n      0x00\n      swap1\n      sstore\n      pop\n      pop\n        /* \"contracts/Profile.sol\":4743:4835  function delInformaion() external  {\r... */\n      jump\t// out\n        /* \"contracts/Profile.sol\":380:420  mapping (address => Bio) public  profile */\n    tag_46:\n      mstore(0x20, 0x00)\n      dup1\n      0x00\n      mstore\n      keccak256(0x00, 0x40)\n      0x00\n      swap2\n      pop\n      swap1\n      pop\n      dup1\n      0x00\n      add\n      mload(0x40)\n      dup1\n      0x0100\n      add\n      0x40\n      mstore\n      swap1\n      dup2\n      0x00\n      dup3\n      add\n      dup1\n      sload\n      tag_112\n      swap1\n      tag_113\n      jump\t// in\n    tag_112:\n      dup1\n      0x1f\n      add\n      0x20\n      dup1\n      swap2\n      div\n      mul\n      0x20\n      add\n      mload(0x40)\n      swap1\n      dup2\n      add\n      0x40\n      mstore\n      dup1\n      swap3\n      swap2\n      swap1\n      dup2\n      dup2\n      mstore\n      0x20\n      add\n      dup3\n      dup1\n      sload\n      tag_114\n      swap1\n      tag_113\n      jump\t// in\n    tag_114:\n      dup1\n      iszero\n      tag_115\n      jumpi\n      dup1\n      0x1f\n      lt\n      tag_116\n      jumpi\n      0x0100\n      dup1\n      dup4\n      sload\n      div\n      mul\n      dup4\n      mstore\n      swap2\n      0x20\n      add\n      swap2\n      jump(tag_115)\n    tag_116:\n      dup3\n      add\n      swap2\n      swap1\n      0x00\n      mstore\n      keccak256(0x00, 0x20)\n      swap1\n    tag_117:\n      dup2\n      sload\n      dup2\n      mstore\n      swap1\n      0x01\n      add\n      swap1\n      0x20\n      add\n      dup1\n      dup4\n      gt\n      tag_117\n      jumpi\n      dup3\n      swap1\n      sub\n      0x1f\n      and\n      dup3\n      add\n      swap2\n    tag_115:\n      pop\n      pop\n      pop\n      pop\n      pop\n      dup2\n      mstore\n      0x20\n      add\n      0x01\n      dup3\n      add\n      dup1\n      sload\n      tag_118\n      swap1\n      tag_113\n      jump\t// in\n    tag_118:\n      dup1\n      0x1f\n      add\n      0x20\n      dup1\n      swap2\n      div\n      mul\n      0x20\n      add\n      mload(0x40)\n      swap1\n      dup2\n      add\n      0x40\n      mstore\n      dup1\n      swap3\n      swap2\n      swap1\n      dup2\n      dup2\n      mstore\n      0x20\n      add\n      dup3\n      dup1\n      sload\n      tag_119\n      swap1\n      tag_113\n      jump\t// in\n    tag_119:\n      dup1\n      iszero\n      tag_120\n      jumpi\n      dup1\n      0x1f\n      lt\n      tag_121\n      jumpi\n      0x0100\n      dup1\n      dup4\n      sload\n      div\n      mul\n      dup4\n      mstore\n      swap2\n      0x20\n      add\n      swap2\n      jump(tag_120)\n    tag_121:\n      dup3\n      add\n      swap2\n      swap1\n      0x00\n      mstore\n      keccak256(0x00, 0x20)\n      swap1\n    tag_122:\n      dup2\n      sload\n      dup2\n      mstore\n      swap1\n      0x01\n      add\n      swap1\n      0x20\n      add\n      dup1\n      dup4\n      gt\n      tag_122\n      jumpi\n      dup3\n      swap1\n      sub\n      0x1f\n      and\n      dup3\n      add\n      swap2\n    tag_120:\n      pop\n      pop\n      pop\n      pop\n      pop\n      dup2\n      mstore\n      0x20\n      add\n      0x02\n      dup3\n      add\n      0x00\n      swap1\n      sload\n      swap1\n      0x0100\n      exp\n      swap1\n      div\n      0xffffffffffffffffffffffffffffffffffffffff\n      and\n      0xffffffffffffffffffffffffffffffffffffffff\n      and\n      0xffffffffffffffffffffffffffffffffffffffff\n      and\n      dup2\n      mstore\n      0x20\n      add\n      0x03\n      dup3\n      add\n      dup1\n      sload\n      tag_123\n      swap1\n      tag_113\n      jump\t// in\n    tag_123:\n      dup1\n      0x1f\n      add\n      0x20\n      dup1\n      swap2\n      div\n      mul\n      0x20\n      add\n      mload(0x40)\n      swap1\n      dup2\n      add\n      0x40\n      mstore\n      dup1\n      swap3\n      swap2\n      swap1\n      dup2\n      dup2\n      mstore\n      0x20\n      add\n      dup3\n      dup1\n      sload\n      tag_124\n      swap1\n      tag_113\n      jump\t// in\n    tag_124:\n      dup1\n      iszero\n      tag_125\n      jumpi\n      dup1\n      0x1f\n      lt\n      tag_126\n      jumpi\n      0x0100\n      dup1\n      dup4\n      sload\n      div\n      mul\n      dup4\n      mstore\n      swap2\n      0x20\n      add\n      swap2\n      jump(tag_125)\n    tag_126:\n      dup3\n      add\n      swap2\n      swap1\n      0x00\n      mstore\n      keccak256(0x00, 0x20)\n      swap1\n    tag_127:\n      dup2\n      sload\n      dup2\n      mstore\n      swap1\n      0x01\n      add\n      swap1\n      0x20\n      add\n      dup1\n      dup4\n      gt\n      tag_127\n      jumpi\n      dup3\n      swap1\n      sub\n      0x1f\n      and\n      dup3\n      add\n      swap2\n    tag_125:\n      pop\n      pop\n      pop\n      pop\n      pop\n      dup2\n      mstore\n      0x20\n      add\n      0x04\n      dup3\n      add\n      dup1\n      sload\n      tag_128\n      swap1\n      tag_113\n      jump\t// in\n    tag_128:\n      dup1\n      0x1f\n      add\n      0x20\n      dup1\n      swap2\n      div\n      mul\n      0x20\n      add\n      mload(0x40)\n      swap1\n      dup2\n      add\n      0x40\n      mstore\n      dup1\n      swap3\n      swap2\n      swap1\n      dup2\n      dup2\n      mstore\n      0x20\n      add\n      dup3\n      dup1\n      sload\n      tag_129\n      swap1\n      tag_113\n      jump\t// in\n    tag_129:\n      dup1\n      iszero\n      tag_130\n      jumpi\n      dup1\n      0x1f\n      lt\n      tag_131\n      jumpi\n      0x0100\n      dup1\n      dup4\n      sload\n      div\n      mul\n      dup4\n      mstore\n      swap2\n      0x20\n      add\n      swap2\n      jump(tag_130)\n    tag_131:\n      dup3\n      add\n      swap2\n      swap1\n      0x00\n      mstore\n      keccak256(0x00, 0x20)\n      swap1\n    tag_132:\n      dup2\n      sload\n      dup2\n      mstore\n      swap1\n      0x01\n      add\n      swap1\n      0x20\n      add\n      dup1\n      dup4\n      gt\n      tag_132\n      jumpi\n      dup3\n      swap1\n      sub\n      0x1f\n      and\n      dup3\n      add\n      swap2\n    tag_130:\n      pop\n      pop\n      pop\n      pop\n      pop\n      dup2\n      mstore\n      0x20\n      add\n      0x05\n      dup3\n      add\n      dup1\n      sload\n      tag_133\n      swap1\n      tag_113\n      jump\t// in\n    tag_133:\n      dup1\n      0x1f\n      add\n      0x20\n      dup1\n      swap2\n      div\n      mul\n      0x20\n      add\n      mload(0x40)\n      swap1\n      dup2\n      add\n      0x40\n      mstore\n      dup1\n      swap3\n      swap2\n      swap1\n      dup2\n      dup2\n      mstore\n      0x20\n      add\n      dup3\n      dup1\n      sload\n      tag_134\n      swap1\n      tag_113\n      jump\t// in\n    tag_134:\n      dup1\n      iszero\n      tag_135\n      jumpi\n      dup1\n      0x1f\n      lt\n      tag_136\n      jumpi\n      0x0100\n      dup1\n      dup4\n      sload\n      div\n      mul\n      dup4\n      mstore\n      swap2\n      0x20\n      add\n      swap2\n      jump(tag_135)\n    tag_136:\n      dup3\n      add\n      swap2\n      swap1\n      0x00\n      mstore\n      keccak256(0x00, 0x20)\n      swap1\n    tag_137:\n      dup2\n      sload\n      dup2\n      mstore\n      swap1\n      0x01\n      add\n      swap1\n      0x20\n      add\n      dup1\n      dup4\n      gt\n      tag_137\n      jumpi\n      dup3\n      swap1\n      sub\n      0x1f\n      and\n      dup3\n      add\n      swap2\n    tag_135:\n      pop\n      pop\n      pop\n      pop\n      pop\n      dup2\n      mstore\n      0x20\n      add\n      0x06\n      dup3\n      add\n      dup1\n      sload\n      tag_138\n      swap1\n      tag_113\n      jump\t// in\n    tag_138:\n      dup1\n      0x1f\n      add\n      0x20\n      dup1\n      swap2\n      div\n      mul\n      0x20\n      add\n      mload(0x40)\n      swap1\n      dup2\n      add\n      0x40\n      mstore\n      dup1\n      swap3\n      swap2\n      swap1\n      dup2\n      dup2\n      mstore\n      0x20\n      add\n      dup3\n      dup1\n      sload\n      tag_139\n      swap1\n      tag_113\n      jump\t// in\n    tag_139:\n      dup1\n      iszero\n      tag_140\n      jumpi\n      dup1\n      0x1f\n      lt\n      tag_141\n      jumpi\n      0x0100\n      dup1\n      dup4\n      sload\n      div\n      mul\n      dup4\n      mstore\n      swap2\n      0x20\n      add\n      swap2\n      jump(tag_140)\n    tag_141:\n      dup3\n      add\n      swap2\n      swap1\n      0x00\n      mstore\n      keccak256(0x00, 0x20)\n      swap1\n    tag_142:\n      dup2\n      sload\n      dup2\n      mstore\n      swap1\n      0x01\n      add\n      swap1\n      0x20\n      add\n      dup1\n      dup4\n      gt\n      tag_142\n      jumpi\n      dup3\n      swap1\n      sub\n      0x1f\n      and\n      dup3\n      add\n      swap2\n    tag_140:\n      pop\n      pop\n      pop\n      pop\n      pop\n      dup2\n      mstore\n      0x20\n      add\n      0x07\n      dup3\n      add\n      sload\n      dup2\n      mstore\n      pop\n      pop\n      swap1\n      dup1\n      0x08\n      add\n      mload(0x40)\n      dup1\n      0xc0\n      add\n      0x40\n      mstore\n      swap1\n      dup2\n      0x00\n      dup3\n      add\n      dup1\n      sload\n      tag_143\n      swap1\n      tag_113\n      jump\t// in\n    tag_143:\n      dup1\n      0x1f\n      add\n      0x20\n      dup1\n      swap2\n      div\n      mul\n      0x20\n      add\n      mload(0x40)\n      swap1\n      dup2\n      add\n      0x40\n      mstore\n      dup1\n      swap3\n      swap2\n      swap1\n      dup2\n      dup2\n      mstore\n      0x20\n      add\n      dup3\n      dup1\n      sload\n      tag_144\n      swap1\n      tag_113\n      jump\t// in\n    tag_144:\n      dup1\n      iszero\n      tag_145\n      jumpi\n      dup1\n      0x1f\n      lt\n      tag_146\n      jumpi\n      0x0100\n      dup1\n      dup4\n      sload\n      div\n      mul\n      dup4\n      mstore\n      swap2\n      0x20\n      add\n      swap2\n      jump(tag_145)\n    tag_146:\n      dup3\n      add\n      swap2\n      swap1\n      0x00\n      mstore\n      keccak256(0x00, 0x20)\n      swap1\n    tag_147:\n      dup2\n      sload\n      dup2\n      mstore\n      swap1\n      0x01\n      add\n      swap1\n      0x20\n      add\n      dup1\n      dup4\n      gt\n      tag_147\n      jumpi\n      dup3\n      swap1\n      sub\n      0x1f\n      and\n      dup3\n      add\n      swap2\n    tag_145:\n      pop\n      pop\n      pop\n      pop\n      pop\n      dup2\n      mstore\n      0x20\n      add\n      0x01\n      dup3\n      add\n      dup1\n      sload\n      tag_148\n      swap1\n      tag_113\n      jump\t// in\n    tag_148:\n      dup1\n      0x1f\n      add\n      0x20\n      dup1\n      swap2\n      div\n      mul\n      0x20\n      add\n      mload(0x40)\n      swap1\n      dup2\n      add\n      0x40\n      mstore\n      dup1\n      swap3\n      swap2\n      swap1\n      dup2\n      dup2\n      mstore\n      0x20\n      add\n      dup3\n      dup1\n      sload\n      tag_149\n      swap1\n      tag_113\n      jump\t// in\n    tag_149:\n      dup1\n      iszero\n      tag_150\n      jumpi\n      dup1\n      0x1f\n      lt\n      tag_151\n      jumpi\n      0x0100\n      dup1\n      dup4\n      sload\n      div\n      mul\n      dup4\n      mstore\n      swap2\n      0x20\n      add\n      swap2\n      jump(tag_150)\n    tag_151:\n      dup3\n      add\n      swap2\n      swap1\n      0x00\n      mstore\n      keccak256(0x00, 0x20)\n      swap1\n    tag_152:\n      dup2\n      sload\n      dup2\n      mstore\n      swap1\n      0x01\n      add\n      swap1\n      0x20\n      add\n      dup1\n      dup4\n      gt\n      tag_152\n      jumpi\n      dup3\n      swap1\n      sub\n      0x1f\n      and\n      dup3\n      add\n      swap2\n    tag_150:\n      pop\n      pop\n      pop\n      pop\n      pop\n      dup2\n      mstore\n      0x20\n      add\n      0x02\n      dup3\n      add\n      dup1\n      sload\n      tag_153\n      swap1\n      tag_113\n      jump\t// in\n    tag_153:\n      dup1\n      0x1f\n      add\n      0x20\n      dup1\n      swap2\n      div\n      mul\n      0x20\n      add\n      mload(0x40)\n      swap1\n      dup2\n      add\n      0x40\n      mstore\n      dup1\n      swap3\n      swap2\n      swap1\n      dup2\n      dup2\n      mstore\n      0x20\n      add\n      dup3\n      dup1\n      sload\n      tag_154\n      swap1\n      tag_113\n      jump\t// in\n    tag_154:\n      dup1\n      iszero\n      tag_155\n      jumpi\n      dup1\n      0x1f\n      lt\n      tag_156\n      jumpi\n      0x0100\n      dup1\n      dup4\n      sload\n      div\n      mul\n      dup4\n      mstore\n      swap2\n      0x20\n      add\n      swap2\n      jump(tag_155)\n    tag_156:\n      dup3\n      add\n      swap2\n      swap1\n      0x00\n      mstore\n      keccak256(0x00, 0x20)\n      swap1\n    tag_157:\n      dup2\n      sload\n      dup2\n      mstore\n      swap1\n      0x01\n      add\n      swap1\n      0x20\n      add\n      dup1\n      dup4\n      gt\n      tag_157\n      jumpi\n      dup3\n      swap1\n      sub\n      0x1f\n      and\n      dup3\n      add\n      swap2\n    tag_155:\n      pop\n      pop\n      pop\n      pop\n      pop\n      dup2\n      mstore\n      0x20\n      add\n      0x03\n      dup3\n      add\n      dup1\n      sload\n      tag_158\n      swap1\n      tag_113\n      jump\t// in\n    tag_158:\n      dup1\n      0x1f\n      add\n      0x20\n      dup1\n      swap2\n      div\n      mul\n      0x20\n      add\n      mload(0x40)\n      swap1\n      dup2\n      add\n      0x40\n      mstore\n      dup1\n      swap3\n      swap2\n      swap1\n      dup2\n      dup2\n      mstore\n      0x20\n      add\n      dup3\n      dup1\n      sload\n      tag_159\n      swap1\n      tag_113\n      jump\t// in\n    tag_159:\n      dup1\n      iszero\n      tag_160\n      jumpi\n      dup1\n      0x1f\n      lt\n      tag_161\n      jumpi\n      0x0100\n      dup1\n      dup4\n      sload\n      div\n      mul\n      dup4\n      mstore\n      swap2\n      0x20\n      add\n      swap2\n      jump(tag_160)\n    tag_161:\n      dup3\n      add\n      swap2\n      swap1\n      0x00\n      mstore\n      keccak256(0x00, 0x20)\n      swap1\n    tag_162:\n      dup2\n      sload\n      dup2\n      mstore\n      swap1\n      0x01\n      add\n      swap1\n      0x20\n      add\n      dup1\n      dup4\n      gt\n      tag_162\n      jumpi\n      dup3\n      swap1\n      sub\n      0x1f\n      and\n      dup3\n      add\n      swap2\n    tag_160:\n      pop\n      pop\n      pop\n      pop\n      pop\n      dup2\n      mstore\n      0x20\n      add\n      0x04\n      dup3\n      add\n      dup1\n      sload\n      tag_163\n      swap1\n      tag_113\n      jump\t// in\n    tag_163:\n      dup1\n      0x1f\n      add\n      0x20\n      dup1\n      swap2\n      div\n      mul\n      0x20\n      add\n      mload(0x40)\n      swap1\n      dup2\n      add\n      0x40\n      mstore\n      dup1\n      swap3\n      swap2\n      swap1\n      dup2\n      dup2\n      mstore\n      0x20\n      add\n      dup3\n      dup1\n      sload\n      tag_164\n      swap1\n      tag_113\n      jump\t// in\n    tag_164:\n      dup1\n      iszero\n      tag_165\n      jumpi\n      dup1\n      0x1f\n      lt\n      tag_166\n      jumpi\n      0x0100\n      dup1\n      dup4\n      sload\n      div\n      mul\n      dup4\n      mstore\n      swap2\n      0x20\n      add\n      swap2\n      jump(tag_165)\n    tag_166:\n      dup3\n      add\n      swap2\n      swap1\n      0x00\n      mstore\n      keccak256(0x00, 0x20)\n      swap1\n    tag_167:\n      dup2\n      sload\n      dup2\n      mstore\n      swap1\n      0x01\n      add\n      swap1\n      0x20\n      add\n      dup1\n      dup4\n      gt\n      tag_167\n      jumpi\n      dup3\n      swap1\n      sub\n      0x1f\n      and\n      dup3\n      add\n      swap2\n    tag_165:\n      pop\n      pop\n      pop\n      pop\n      pop\n      dup2\n      mstore\n      0x20\n      add\n      0x05\n      dup3\n      add\n      dup1\n      sload\n      tag_168\n      swap1\n      tag_113\n      jump\t// in\n    tag_168:\n      dup1\n      0x1f\n      add\n      0x20\n      dup1\n      swap2\n      div\n      mul\n      0x20\n      add\n      mload(0x40)\n      swap1\n      dup2\n      add\n      0x40\n      mstore\n      dup1\n      swap3\n      swap2\n      swap1\n      dup2\n      dup2\n      mstore\n      0x20\n      add\n      dup3\n      dup1\n      sload\n      tag_169\n      swap1\n      tag_113\n      jump\t// in\n    tag_169:\n      dup1\n      iszero\n      tag_170\n      jumpi\n      dup1\n      0x1f\n      lt\n      tag_171\n      jumpi\n      0x0100\n      dup1\n      dup4\n      sload\n      div\n      mul\n      dup4\n      mstore\n      swap2\n      0x20\n      add\n      swap2\n      jump(tag_170)\n    tag_171:\n      dup3\n      add\n      swap2\n      swap1\n      0x00\n      mstore\n      keccak256(0x00, 0x20)\n      swap1\n    tag_172:\n      dup2\n      sload\n      dup2\n      mstore\n      swap1\n      0x01\n      add\n      swap1\n      0x20\n      add\n      dup1\n      dup4\n      gt\n      tag_172\n      jumpi\n      dup3\n      swap1\n      sub\n      0x1f\n      and\n      dup3\n      add\n      swap2\n    tag_170:\n      pop\n      pop\n      pop\n      pop\n      pop\n      dup2\n      mstore\n      pop\n      pop\n      swap1\n      dup1\n      0x0e\n      add\n      mload(0x40)\n      dup1\n      0x60\n      add\n      0x40\n      mstore\n      swap1\n      dup2\n      0x00\n      dup3\n      add\n      dup1\n      sload\n      dup1\n      0x20\n      mul\n      0x20\n      add\n      mload(0x40)\n      swap1\n      dup2\n      add\n      0x40\n      mstore\n      dup1\n      swap3\n      swap2\n      swap1\n      dup2\n      dup2\n      mstore\n      0x20\n      add\n      0x00\n      swap1\n    tag_173:\n      dup3\n      dup3\n      lt\n      iszero\n      tag_174\n      jumpi\n      dup4\n      dup3\n      swap1\n      0x00\n      mstore\n      keccak256(0x00, 0x20)\n      add\n      dup1\n      sload\n      tag_176\n      swap1\n      tag_113\n      jump\t// in\n    tag_176:\n      dup1\n      0x1f\n      add\n      0x20\n      dup1\n      swap2\n      div\n      mul\n      0x20\n      add\n      mload(0x40)\n      swap1\n      dup2\n      add\n      0x40\n      mstore\n      dup1\n      swap3\n      swap2\n      swap1\n      dup2\n      dup2\n      mstore\n      0x20\n      add\n      dup3\n      dup1\n      sload\n      tag_177\n      swap1\n      tag_113\n      jump\t// in\n    tag_177:\n      dup1\n      iszero\n      tag_178\n      jumpi\n      dup1\n      0x1f\n      lt\n      tag_179\n      jumpi\n      0x0100\n      dup1\n      dup4\n      sload\n      div\n      mul\n      dup4\n      mstore\n      swap2\n      0x20\n      add\n      swap2\n      jump(tag_178)\n    tag_179:\n      dup3\n      add\n      swap2\n      swap1\n      0x00\n      mstore\n      keccak256(0x00, 0x20)\n      swap1\n    tag_180:\n      dup2\n      sload\n      dup2\n      mstore\n      swap1\n      0x01\n      add\n      swap1\n      0x20\n      add\n      dup1\n      dup4\n      gt\n      tag_180\n      jumpi\n      dup3\n      swap1\n      sub\n      0x1f\n      and\n      dup3\n      add\n      swap2\n    tag_178:\n      pop\n      pop\n      pop\n      pop\n      pop\n      dup2\n      mstore\n      0x20\n      add\n      swap1\n      0x01\n      add\n      swap1\n      jump(tag_173)\n    tag_174:\n      pop\n      pop\n      pop\n      pop\n      dup2\n      mstore\n      0x20\n      add\n      0x01\n      dup3\n      add\n      dup1\n      sload\n      dup1\n      0x20\n      mul\n      0x20\n      add\n      mload(0x40)\n      swap1\n      dup2\n      add\n      0x40\n      mstore\n      dup1\n      swap3\n      swap2\n      swap1\n      dup2\n      dup2\n      mstore\n      0x20\n      add\n      0x00\n      swap1\n    tag_181:\n      dup3\n      dup3\n      lt\n      iszero\n      tag_182\n      jumpi\n      dup4\n      dup3\n      swap1\n      0x00\n      mstore\n      keccak256(0x00, 0x20)\n      add\n      dup1\n      sload\n      tag_184\n      swap1\n      tag_113\n      jump\t// in\n    tag_184:\n      dup1\n      0x1f\n      add\n      0x20\n      dup1\n      swap2\n      div\n      mul\n      0x20\n      add\n      mload(0x40)\n      swap1\n      dup2\n      add\n      0x40\n      mstore\n      dup1\n      swap3\n      swap2\n      swap1\n      dup2\n      dup2\n      mstore\n      0x20\n      add\n      dup3\n      dup1\n      sload\n      tag_185\n      swap1\n      tag_113\n      jump\t// in\n    tag_185:\n      dup1\n      iszero\n      tag_186\n      jumpi\n      dup1\n      0x1f\n      lt\n      tag_187\n      jumpi\n      0x0100\n      dup1\n      dup4\n      sload\n      div\n      mul\n      dup4\n      mstore\n      swap2\n      0x20\n      add\n      swap2\n      jump(tag_186)\n    tag_187:\n      dup3\n      add\n      swap2\n      swap1\n      0x00\n      mstore\n      keccak256(0x00, 0x20)\n      swap1\n    tag_188:\n      dup2\n      sload\n      dup2\n      mstore\n      swap1\n      0x01\n      add\n      swap1\n      0x20\n      add\n      dup1\n      dup4\n      gt\n      tag_188\n      jumpi\n      dup3\n      swap1\n      sub\n      0x1f\n      and\n      dup3\n      add\n      swap2\n    tag_186:\n      pop\n      pop\n      pop\n      pop\n      pop\n      dup2\n      mstore\n      0x20\n      add\n      swap1\n      0x01\n      add\n      swap1\n      jump(tag_181)\n    tag_182:\n      pop\n      pop\n      pop\n      pop\n      dup2\n      mstore\n      0x20\n      add\n      0x02\n      dup3\n      add\n      dup1\n      sload\n      dup1\n      0x20\n      mul\n      0x20\n      add\n      mload(0x40)\n      swap1\n      dup2\n      add\n      0x40\n      mstore\n      dup1\n      swap3\n      swap2\n      swap1\n      dup2\n      dup2\n      mstore\n      0x20\n      add\n      0x00\n      swap1\n    tag_189:\n      dup3\n      dup3\n      lt\n      iszero\n      tag_190\n      jumpi\n      dup4\n      dup3\n      swap1\n      0x00\n      mstore\n      keccak256(0x00, 0x20)\n      add\n      dup1\n      sload\n      tag_192\n      swap1\n      tag_113\n      jump\t// in\n    tag_192:\n      dup1\n      0x1f\n      add\n      0x20\n      dup1\n      swap2\n      div\n      mul\n      0x20\n      add\n      mload(0x40)\n      swap1\n      dup2\n      add\n      0x40\n      mstore\n      dup1\n      swap3\n      swap2\n      swap1\n      dup2\n      dup2\n      mstore\n      0x20\n      add\n      dup3\n      dup1\n      sload\n      tag_193\n      swap1\n      tag_113\n      jump\t// in\n    tag_193:\n      dup1\n      iszero\n      tag_194\n      jumpi\n      dup1\n      0x1f\n      lt\n      tag_195\n      jumpi\n      0x0100\n      dup1\n      dup4\n      sload\n      div\n      mul\n      dup4\n      mstore\n      swap2\n      0x20\n      add\n      swap2\n      jump(tag_194)\n    tag_195:\n      dup3\n      add\n      swap2\n      swap1\n      0x00\n      mstore\n      keccak256(0x00, 0x20)\n      swap1\n    tag_196:\n      dup2\n      sload\n      dup2\n      mstore\n      swap1\n      0x01\n      add\n      swap1\n      0x20\n      add\n      dup1\n      dup4\n      gt\n      tag_196\n      jumpi\n      dup3\n      swap1\n      sub\n      0x1f\n      and\n      dup3\n      add\n      swap2\n    tag_194:\n      pop\n      pop\n      pop\n      pop\n      pop\n      dup2\n      mstore\n      0x20\n      add\n      swap1\n      0x01\n      add\n      swap1\n      jump(tag_189)\n    tag_190:\n      pop\n      pop\n      pop\n      pop\n      dup2\n      mstore\n      pop\n      pop\n      swap1\n      dup1\n      0x12\n      add\n      mload(0x40)\n      dup1\n      0x40\n      add\n      0x40\n      mstore\n      swap1\n      dup2\n      0x00\n      dup3\n      add\n      dup1\n      sload\n      dup1\n      0x20\n      mul\n      0x20\n      add\n      mload(0x40)\n      swap1\n      dup2\n      add\n      0x40\n      mstore\n      dup1\n      swap3\n      swap2\n      swap1\n      dup2\n      dup2\n      mstore\n      0x20\n      add\n      0x00\n      swap1\n    tag_197:\n      dup3\n      dup3\n      lt\n      iszero\n      tag_198\n      jumpi\n      dup4\n      dup3\n      swap1\n      0x00\n      mstore\n      keccak256(0x00, 0x20)\n      add\n      dup1\n      sload\n      tag_200\n      swap1\n      tag_113\n      jump\t// in\n    tag_200:\n      dup1\n      0x1f\n      add\n      0x20\n      dup1\n      swap2\n      div\n      mul\n      0x20\n      add\n      mload(0x40)\n      swap1\n      dup2\n      add\n      0x40\n      mstore\n      dup1\n      swap3\n      swap2\n      swap1\n      dup2\n      dup2\n      mstore\n      0x20\n      add\n      dup3\n      dup1\n      sload\n      tag_201\n      swap1\n      tag_113\n      jump\t// in\n    tag_201:\n      dup1\n      iszero\n      tag_202\n      jumpi\n      dup1\n      0x1f\n      lt\n      tag_203\n      jumpi\n      0x0100\n      dup1\n      dup4\n      sload\n      div\n      mul\n      dup4\n      mstore\n      swap2\n      0x20\n      add\n      swap2\n      jump(tag_202)\n    tag_203:\n      dup3\n      add\n      swap2\n      swap1\n      0x00\n      mstore\n      keccak256(0x00, 0x20)\n      swap1\n    tag_204:\n      dup2\n      sload\n      dup2\n      mstore\n      swap1\n      0x01\n      add\n      swap1\n      0x20\n      add\n      dup1\n      dup4\n      gt\n      tag_204\n      jumpi\n      dup3\n      swap1\n      sub\n      0x1f\n      and\n      dup3\n      add\n      swap2\n    tag_202:\n      pop\n      pop\n      pop\n      pop\n      pop\n      dup2\n      mstore\n      0x20\n      add\n      swap1\n      0x01\n      add\n      swap1\n      jump(tag_197)\n    tag_198:\n      pop\n      pop\n      pop\n      pop\n      dup2\n      mstore\n      0x20\n      add\n      0x01\n      dup3\n      add\n      dup1\n      sload\n      dup1\n      0x20\n      mul\n      0x20\n      add\n      mload(0x40)\n      swap1\n      dup2\n      add\n      0x40\n      mstore\n      dup1\n      swap3\n      swap2\n      swap1\n      dup2\n      dup2\n      mstore\n      0x20\n      add\n      0x00\n      swap1\n    tag_205:\n      dup3\n      dup3\n      lt\n      iszero\n      tag_206\n      jumpi\n      dup4\n      dup3\n      swap1\n      0x00\n      mstore\n      keccak256(0x00, 0x20)\n      add\n      dup1\n      sload\n      tag_208\n      swap1\n      tag_113\n      jump\t// in\n    tag_208:\n      dup1\n      0x1f\n      add\n      0x20\n      dup1\n      swap2\n      div\n      mul\n      0x20\n      add\n      mload(0x40)\n      swap1\n      dup2\n      add\n      0x40\n      mstore\n      dup1\n      swap3\n      swap2\n      swap1\n      dup2\n      dup2\n      mstore\n      0x20\n      add\n      dup3\n      dup1\n      sload\n      tag_209\n      swap1\n      tag_113\n      jump\t// in\n    tag_209:\n      dup1\n      iszero\n      tag_210\n      jumpi\n      dup1\n      0x1f\n      lt\n      tag_211\n      jumpi\n      0x0100\n      dup1\n      dup4\n      sload\n      div\n      mul\n      dup4\n      mstore\n      swap2\n      0x20\n      add\n      swap2\n      jump(tag_210)\n    tag_211:\n      dup3\n      add\n      swap2\n      swap1\n      0x00\n      mstore\n      keccak256(0x00, 0x20)\n      swap1\n    tag_212:\n      dup2\n      sload\n      dup2\n      mstore\n      swap1\n      0x01\n      add\n      swap1\n      0x20\n      add\n      dup1\n      dup4\n      gt\n      tag_212\n      jumpi\n      dup3\n      swap1\n      sub\n      0x1f\n      and\n      dup3\n      add\n      swap2\n    tag_210:\n      pop\n      pop\n      pop\n      pop\n      pop\n      dup2\n      mstore\n      0x20\n      add\n      swap1\n      0x01\n      add\n      swap1\n      jump(tag_205)\n    tag_206:\n      pop\n      pop\n      pop\n      pop\n      dup2\n      mstore\n      pop\n      pop\n      swap1\n      dup1\n      0x14\n      add\n      mload(0x40)\n      dup1\n      0xa0\n      add\n      0x40\n      mstore\n      swap1\n      dup2\n      0x00\n      dup3\n      add\n      dup1\n      sload\n      tag_213\n      swap1\n      tag_113\n      jump\t// in\n    tag_213:\n      dup1\n      0x1f\n      add\n      0x20\n      dup1\n      swap2\n      div\n      mul\n      0x20\n      add\n      mload(0x40)\n      swap1\n      dup2\n      add\n      0x40\n      mstore\n      dup1\n      swap3\n      swap2\n      swap1\n      dup2\n      dup2\n      mstore\n      0x20\n      add\n      dup3\n      dup1\n      sload\n      tag_214\n      swap1\n      tag_113\n      jump\t// in\n    tag_214:\n      dup1\n      iszero\n      tag_215\n      jumpi\n      dup1\n      0x1f\n      lt\n      tag_216\n      jumpi\n      0x0100\n      dup1\n      dup4\n      sload\n      div\n      mul\n      dup4\n      mstore\n      swap2\n      0x20\n      add\n      swap2\n      jump(tag_215)\n    tag_216:\n      dup3\n      add\n      swap2\n      swap1\n      0x00\n      mstore\n      keccak256(0x00, 0x20)\n      swap1\n    tag_217:\n      dup2\n      sload\n      dup2\n      mstore\n      swap1\n      0x01\n      add\n      swap1\n      0x20\n      add\n      dup1\n      dup4\n      gt\n      tag_217\n      jumpi\n      dup3\n      swap1\n      sub\n      0x1f\n      and\n      dup3\n      add\n      swap2\n    tag_215:\n      pop\n      pop\n      pop\n      pop\n      pop\n      dup2\n      mstore\n      0x20\n      add\n      0x01\n      dup3\n      add\n      dup1\n      sload\n      tag_218\n      swap1\n      tag_113\n      jump\t// in\n    tag_218:\n      dup1\n      0x1f\n      add\n      0x20\n      dup1\n      swap2\n      div\n      mul\n      0x20\n      add\n      mload(0x40)\n      swap1\n      dup2\n      add\n      0x40\n      mstore\n      dup1\n      swap3\n      swap2\n      swap1\n      dup2\n      dup2\n      mstore\n      0x20\n      add\n      dup3\n      dup1\n      sload\n      tag_219\n      swap1\n      tag_113\n      jump\t// in\n    tag_219:\n      dup1\n      iszero\n      tag_220\n      jumpi\n      dup1\n      0x1f\n      lt\n      tag_221\n      jumpi\n      0x0100\n      dup1\n      dup4\n      sload\n      div\n      mul\n      dup4\n      mstore\n      swap2\n      0x20\n      add\n      swap2\n      jump(tag_220)\n    tag_221:\n      dup3\n      add\n      swap2\n      swap1\n      0x00\n      mstore\n      keccak256(0x00, 0x20)\n      swap1\n    tag_222:\n      dup2\n      sload\n      dup2\n      mstore\n      swap1\n      0x01\n      add\n      swap1\n      0x20\n      add\n      dup1\n      dup4\n      gt\n      tag_222\n      jumpi\n      dup3\n      swap1\n      sub\n      0x1f\n      and\n      dup3\n      add\n      swap2\n    tag_220:\n      pop\n      pop\n      pop\n      pop\n      pop\n      dup2\n      mstore\n      0x20\n      add\n      0x02\n      dup3\n      add\n      dup1\n      sload\n      tag_223\n      swap1\n      tag_113\n      jump\t// in\n    tag_223:\n      dup1\n      0x1f\n      add\n      0x20\n      dup1\n      swap2\n      div\n      mul\n      0x20\n      add\n      mload(0x40)\n      swap1\n      dup2\n      add\n      0x40\n      mstore\n      dup1\n      swap3\n      swap2\n      swap1\n      dup2\n      dup2\n      mstore\n      0x20\n      add\n      dup3\n      dup1\n      sload\n      tag_224\n      swap1\n      tag_113\n      jump\t// in\n    tag_224:\n      dup1\n      iszero\n      tag_225\n      jumpi\n      dup1\n      0x1f\n      lt\n      tag_226\n      jumpi\n      0x0100\n      dup1\n      dup4\n      sload\n      div\n      mul\n      dup4\n      mstore\n      swap2\n      0x20\n      add\n      swap2\n      jump(tag_225)\n    tag_226:\n      dup3\n      add\n      swap2\n      swap1\n      0x00\n      mstore\n      keccak256(0x00, 0x20)\n      swap1\n    tag_227:\n      dup2\n      sload\n      dup2\n      mstore\n      swap1\n      0x01\n      add\n      swap1\n      0x20\n      add\n      dup1\n      dup4\n      gt\n      tag_227\n      jumpi\n      dup3\n      swap1\n      sub\n      0x1f\n      and\n      dup3\n      add\n      swap2\n    tag_225:\n      pop\n      pop\n      pop\n      pop\n      pop\n      dup2\n      mstore\n      0x20\n      add\n      0x03\n      dup3\n      add\n      dup1\n      sload\n      tag_228\n      swap1\n      tag_113\n      jump\t// in\n    tag_228:\n      dup1\n      0x1f\n      add\n      0x20\n      dup1\n      swap2\n      div\n      mul\n      0x20\n      add\n      mload(0x40)\n      swap1\n      dup2\n      add\n      0x40\n      mstore\n      dup1\n      swap3\n      swap2\n      swap1\n      dup2\n      dup2\n      mstore\n      0x20\n      add\n      dup3\n      dup1\n      sload\n      tag_229\n      swap1\n      tag_113\n      jump\t// in\n    tag_229:\n      dup1\n      iszero\n      tag_230\n      jumpi\n      dup1\n      0x1f\n      lt\n      tag_231\n      jumpi\n      0x0100\n      dup1\n      dup4\n      sload\n      div\n      mul\n      dup4\n      mstore\n      swap2\n      0x20\n      add\n      swap2\n      jump(tag_230)\n    tag_231:\n      dup3\n      add\n      swap2\n      swap1\n      0x00\n      mstore\n      keccak256(0x00, 0x20)\n      swap1\n    tag_232:\n      dup2\n      sload\n      dup2\n      mstore\n      swap1\n      0x01\n      add\n      swap1\n      0x20\n      add\n      dup1\n      dup4\n      gt\n      tag_232\n      jumpi\n      dup3\n      swap1\n      sub\n      0x1f\n      and\n      dup3\n      add\n      swap2\n    tag_230:\n      pop\n      pop\n      pop\n      pop\n      pop\n      dup2\n      mstore\n      0x20\n      add\n      0x04\n      dup3\n      add\n      dup1\n      sload\n      dup1\n      0x20\n      mul\n      0x20\n      add\n      mload(0x40)\n      swap1\n      dup2\n      add\n      0x40\n      mstore\n      dup1\n      swap3\n      swap2\n      swap1\n      dup2\n      dup2\n      mstore\n      0x20\n      add\n      0x00\n      swap1\n    tag_233:\n      dup3\n      dup3\n      lt\n      iszero\n      tag_234\n      jumpi\n      dup4\n      dup3\n      swap1\n      0x00\n      mstore\n      keccak256(0x00, 0x20)\n      add\n      dup1\n      sload\n      tag_236\n      swap1\n      tag_113\n      jump\t// in\n    tag_236:\n      dup1\n      0x1f\n      add\n      0x20\n      dup1\n      swap2\n      div\n      mul\n      0x20\n      add\n      mload(0x40)\n      swap1\n      dup2\n      add\n      0x40\n      mstore\n      dup1\n      swap3\n      swap2\n      swap1\n      dup2\n      dup2\n      mstore\n      0x20\n      add\n      dup3\n      dup1\n      sload\n      tag_237\n      swap1\n      tag_113\n      jump\t// in\n    tag_237:\n      dup1\n      iszero\n      tag_238\n      jumpi\n      dup1\n      0x1f\n      lt\n      tag_239\n      jumpi\n      0x0100\n      dup1\n      dup4\n      sload\n      div\n      mul\n      dup4\n      mstore\n      swap2\n      0x20\n      add\n      swap2\n      jump(tag_238)\n    tag_239:\n      dup3\n      add\n      swap2\n      swap1\n      0x00\n      mstore\n      keccak256(0x00, 0x20)\n      swap1\n    tag_240:\n      dup2\n      sload\n      dup2\n      mstore\n      swap1\n      0x01\n      add\n      swap1\n      0x20\n      add\n      dup1\n      dup4\n      gt\n      tag_240\n      jumpi\n      dup3\n      swap1\n      sub\n      0x1f\n      and\n      dup3\n      add\n      swap2\n    tag_238:\n      pop\n      pop\n      pop\n      pop\n      pop\n      dup2\n      mstore\n      0x20\n      add\n      swap1\n      0x01\n      add\n      swap1\n      jump(tag_233)\n    tag_234:\n      pop\n      pop\n      pop\n      pop\n      dup2\n      mstore\n      pop\n      pop\n      swap1\n      dup1\n      0x19\n      add\n      mload(0x40)\n      dup1\n      0x20\n      add\n      0x40\n      mstore\n      swap1\n      dup2\n      0x00\n      dup3\n      add\n      dup1\n      sload\n      dup1\n      0x20\n      mul\n      0x20\n      add\n      mload(0x40)\n      swap1\n      dup2\n      add\n      0x40\n      mstore\n      dup1\n      swap3\n      swap2\n      swap1\n      dup2\n      dup2\n      mstore\n      0x20\n      add\n      0x00\n      swap1\n    tag_241:\n      dup3\n      dup3\n      lt\n      iszero\n      tag_242\n      jumpi\n      dup4\n      dup3\n      swap1\n      0x00\n      mstore\n      keccak256(0x00, 0x20)\n      add\n      dup1\n      sload\n      tag_244\n      swap1\n      tag_113\n      jump\t// in\n    tag_244:\n      dup1\n      0x1f\n      add\n      0x20\n      dup1\n      swap2\n      div\n      mul\n      0x20\n      add\n      mload(0x40)\n      swap1\n      dup2\n      add\n      0x40\n      mstore\n      dup1\n      swap3\n      swap2\n      swap1\n      dup2\n      dup2\n      mstore\n      0x20\n      add\n      dup3\n      dup1\n      sload\n      tag_245\n      swap1\n      tag_113\n      jump\t// in\n    tag_245:\n      dup1\n      iszero\n      tag_246\n      jumpi\n      dup1\n      0x1f\n      lt\n      tag_247\n      jumpi\n      0x0100\n      dup1\n      dup4\n      sload\n      div\n      mul\n      dup4\n      mstore\n      swap2\n      0x20\n      add\n      swap2\n      jump(tag_246)\n    tag_247:\n      dup3\n      add\n      swap2\n      swap1\n      0x00\n      mstore\n      keccak256(0x00, 0x20)\n      swap1\n    tag_248:\n      dup2\n      sload\n      dup2\n      mstore\n      swap1\n      0x01\n      add\n      swap1\n      0x20\n      add\n      dup1\n      dup4\n      gt\n      tag_248\n      jumpi\n      dup3\n      swap1\n      sub\n      0x1f\n      and\n      dup3\n      add\n      swap2\n    tag_246:\n      pop\n      pop\n      pop\n      pop\n      pop\n      dup2\n      mstore\n      0x20\n      add\n      swap1\n      0x01\n      add\n      swap1\n      jump(tag_241)\n    tag_242:\n      pop\n      pop\n      pop\n      pop\n      dup2\n      mstore\n      pop\n      pop\n      swap1\n      pop\n      dup7\n      jump\t// out\n        /* \"contracts/Profile.sol\":4643:4735  function delAllEducation() external  {\r... */\n    tag_50:\n        /* \"contracts/Profile.sol\":4698:4705  profile */\n      0x00\n        /* \"contracts/Profile.sol\":4698:4717  profile[msg.sender] */\n      dup1\n        /* \"contracts/Profile.sol\":4706:4716  msg.sender */\n      caller\n        /* \"contracts/Profile.sol\":4698:4717  profile[msg.sender] */\n      0xffffffffffffffffffffffffffffffffffffffff\n      and\n      0xffffffffffffffffffffffffffffffffffffffff\n      and\n      dup2\n      mstore\n      0x20\n      add\n      swap1\n      dup2\n      mstore\n      0x20\n      add\n      0x00\n      keccak256\n        /* \"contracts/Profile.sol\":4698:4727  profile[msg.sender].education */\n      0x11\n      add\n      0x00\n        /* \"contracts/Profile.sol\":4691:4727  delete profile[msg.sender].education */\n      tag_250\n      swap2\n      swap1\n      tag_251\n      jump\t// in\n    tag_250:\n        /* \"contracts/Profile.sol\":4643:4735  function delAllEducation() external  {\r... */\n      jump\t// out\n        /* \"contracts/Profile.sol\":3865:4258  function getEducation(uint index) public view returns(string memory, string memory, string memory, string memory, string memory) {\r... */\n    tag_54:\n        /* \"contracts/Profile.sol\":3919:3932  string memory */\n      0x60\n        /* \"contracts/Profile.sol\":3934:3947  string memory */\n      dup1\n        /* \"contracts/Profile.sol\":3949:3962  string memory */\n      0x60\n        /* \"contracts/Profile.sol\":3964:3977  string memory */\n      dup1\n        /* \"contracts/Profile.sol\":3979:3992  string memory */\n      0x60\n        /* \"contracts/Profile.sol\":4013:4020  profile */\n      0x00\n        /* \"contracts/Profile.sol\":4013:4032  profile[msg.sender] */\n      dup1\n        /* \"contracts/Profile.sol\":4021:4031  msg.sender */\n      caller\n        /* \"contracts/Profile.sol\":4013:4032  profile[msg.sender] */\n      0xffffffffffffffffffffffffffffffffffffffff\n      and\n      0xffffffffffffffffffffffffffffffffffffffff\n      and\n      dup2\n      mstore\n      0x20\n      add\n      swap1\n      dup2\n      mstore\n      0x20\n      add\n      0x00\n      keccak256\n        /* \"contracts/Profile.sol\":4013:4042  profile[msg.sender].education */\n      0x11\n      add\n        /* \"contracts/Profile.sol\":4043:4048  index */\n      dup7\n        /* \"contracts/Profile.sol\":4013:4049  profile[msg.sender].education[index] */\n      dup2\n      sload\n      dup2\n      lt\n      tag_253\n      jumpi\n      tag_254\n      tag_255\n      jump\t// in\n    tag_254:\n    tag_253:\n      swap1\n      0x00\n      mstore\n      keccak256(0x00, 0x20)\n      swap1\n      0x05\n      mul\n      add\n        /* \"contracts/Profile.sol\":4013:4059  profile[msg.sender].education[index].startDate */\n      0x00\n      add\n        /* \"contracts/Profile.sol\":4061:4068  profile */\n      0x00\n        /* \"contracts/Profile.sol\":4061:4080  profile[msg.sender] */\n      dup1\n        /* \"contracts/Profile.sol\":4069:4079  msg.sender */\n      caller\n        /* \"contracts/Profile.sol\":4061:4080  profile[msg.sender] */\n      0xffffffffffffffffffffffffffffffffffffffff\n      and\n      0xffffffffffffffffffffffffffffffffffffffff\n      and\n      dup2\n      mstore\n      0x20\n      add\n      swap1\n      dup2\n      mstore\n      0x20\n      add\n      0x00\n      keccak256\n        /* \"contracts/Profile.sol\":4061:4090  profile[msg.sender].education */\n      0x11\n      add\n        /* \"contracts/Profile.sol\":4091:4096  index */\n      dup8\n        /* \"contracts/Profile.sol\":4061:4097  profile[msg.sender].education[index] */\n      dup2\n      sload\n      dup2\n      lt\n      tag_257\n      jumpi\n      tag_258\n      tag_255\n      jump\t// in\n    tag_258:\n    tag_257:\n      swap1\n      0x00\n      mstore\n      keccak256(0x00, 0x20)\n      swap1\n      0x05\n      mul\n      add\n        /* \"contracts/Profile.sol\":4061:4105  profile[msg.sender].education[index].endDate */\n      0x01\n      add\n        /* \"contracts/Profile.sol\":4107:4114  profile */\n      0x00\n        /* \"contracts/Profile.sol\":4107:4126  profile[msg.sender] */\n      dup1\n        /* \"contracts/Profile.sol\":4115:4125  msg.sender */\n      caller\n        /* \"contracts/Profile.sol\":4107:4126  profile[msg.sender] */\n      0xffffffffffffffffffffffffffffffffffffffff\n      and\n      0xffffffffffffffffffffffffffffffffffffffff\n      and\n      dup2\n      mstore\n      0x20\n      add\n      swap1\n      dup2\n      mstore\n      0x20\n      add\n      0x00\n      keccak256\n        /* \"contracts/Profile.sol\":4107:4136  profile[msg.sender].education */\n      0x11\n      add\n        /* \"contracts/Profile.sol\":4137:4142  index */\n      dup9\n        /* \"contracts/Profile.sol\":4107:4143  profile[msg.sender].education[index] */\n      dup2\n      sload\n      dup2\n      lt\n      tag_260\n      jumpi\n      tag_261\n      tag_255\n      jump\t// in\n    tag_261:\n    tag_260:\n      swap1\n      0x00\n      mstore\n      keccak256(0x00, 0x20)\n      swap1\n      0x05\n      mul\n      add\n        /* \"contracts/Profile.sol\":4107:4154  profile[msg.sender].education[index].univercity */\n      0x02\n      add\n        /* \"contracts/Profile.sol\":4156:4163  profile */\n      0x00\n        /* \"contracts/Profile.sol\":4156:4175  profile[msg.sender] */\n      dup1\n        /* \"contracts/Profile.sol\":4164:4174  msg.sender */\n      caller\n        /* \"contracts/Profile.sol\":4156:4175  profile[msg.sender] */\n      0xffffffffffffffffffffffffffffffffffffffff\n      and\n      0xffffffffffffffffffffffffffffffffffffffff\n      and\n      dup2\n      mstore\n      0x20\n      add\n      swap1\n      dup2\n      mstore\n      0x20\n      add\n      0x00\n      keccak256\n        /* \"contracts/Profile.sol\":4156:4185  profile[msg.sender].education */\n      0x11\n      add\n        /* \"contracts/Profile.sol\":4186:4191  index */\n      dup10\n        /* \"contracts/Profile.sol\":4156:4192  profile[msg.sender].education[index] */\n      dup2\n      sload\n      dup2\n      lt\n      tag_263\n      jumpi\n      tag_264\n      tag_255\n      jump\t// in\n    tag_264:\n    tag_263:\n      swap1\n      0x00\n      mstore\n      keccak256(0x00, 0x20)\n      swap1\n      0x05\n      mul\n      add\n        /* \"contracts/Profile.sol\":4156:4198  profile[msg.sender].education[index].major */\n      0x03\n      add\n        /* \"contracts/Profile.sol\":4200:4207  profile */\n      0x00\n        /* \"contracts/Profile.sol\":4200:4219  profile[msg.sender] */\n      dup1\n        /* \"contracts/Profile.sol\":4208:4218  msg.sender */\n      caller\n        /* \"contracts/Profile.sol\":4200:4219  profile[msg.sender] */\n      0xffffffffffffffffffffffffffffffffffffffff\n      and\n      0xffffffffffffffffffffffffffffffffffffffff\n      and\n      dup2\n      mstore\n      0x20\n      add\n      swap1\n      dup2\n      mstore\n      0x20\n      add\n      0x00\n      keccak256\n        /* \"contracts/Profile.sol\":4200:4229  profile[msg.sender].education */\n      0x11\n      add\n        /* \"contracts/Profile.sol\":4230:4235  index */\n      dup11\n        /* \"contracts/Profile.sol\":4200:4236  profile[msg.sender].education[index] */\n      dup2\n      sload\n      dup2\n      lt\n      tag_266\n      jumpi\n      tag_267\n      tag_255\n      jump\t// in\n    tag_267:\n    tag_266:\n      swap1\n      0x00\n      mstore\n      keccak256(0x00, 0x20)\n      swap1\n      0x05\n      mul\n      add\n        /* \"contracts/Profile.sol\":4200:4249  profile[msg.sender].education[index].finalProject */\n      0x04\n      add\n        /* \"contracts/Profile.sol\":4005:4250  return (profile[msg.sender].education[index].startDate, profile[msg.sender].education[index].endDate, profile[msg.sender].education[index].univercity, profile[msg.sender].education[index].major, profile[msg.sender].education[index].finalProject) */\n      dup5\n      dup1\n      sload\n      tag_269\n      swap1\n      tag_113\n      jump\t// in\n    tag_269:\n      dup1\n      0x1f\n      add\n      0x20\n      dup1\n      swap2\n      div\n      mul\n      0x20\n      add\n      mload(0x40)\n      swap1\n      dup2\n      add\n      0x40\n      mstore\n      dup1\n      swap3\n      swap2\n      swap1\n      dup2\n      dup2\n      mstore\n      0x20\n      add\n      dup3\n      dup1\n      sload\n      tag_270\n      swap1\n      tag_113\n      jump\t// in\n    tag_270:\n      dup1\n      iszero\n      tag_271\n      jumpi\n      dup1\n      0x1f\n      lt\n      tag_272\n      jumpi\n      0x0100\n      dup1\n      dup4\n      sload\n      div\n      mul\n      dup4\n      mstore\n      swap2\n      0x20\n      add\n      swap2\n      jump(tag_271)\n    tag_272:\n      dup3\n      add\n      swap2\n      swap1\n      0x00\n      mstore\n      keccak256(0x00, 0x20)\n      swap1\n    tag_273:\n      dup2\n      sload\n      dup2\n      mstore\n      swap1\n      0x01\n      add\n      swap1\n      0x20\n      add\n      dup1\n      dup4\n      gt\n      tag_273\n      jumpi\n      dup3\n      swap1\n      sub\n      0x1f\n      and\n      dup3\n      add\n      swap2\n    tag_271:\n      pop\n      pop\n      pop\n      pop\n      pop\n      swap5\n      pop\n      dup4\n      dup1\n      sload\n      tag_274\n      swap1\n      tag_113\n      jump\t// in\n    tag_274:\n      dup1\n      0x1f\n      add\n      0x20\n      dup1\n      swap2\n      div\n      mul\n      0x20\n      add\n      mload(0x40)\n      swap1\n      dup2\n      add\n      0x40\n      mstore\n      dup1\n      swap3\n      swap2\n      swap1\n      dup2\n      dup2\n      mstore\n      0x20\n      add\n      dup3\n      dup1\n      sload\n      tag_275\n      swap1\n      tag_113\n      jump\t// in\n    tag_275:\n      dup1\n      iszero\n      tag_276\n      jumpi\n      dup1\n      0x1f\n      lt\n      tag_277\n      jumpi\n      0x0100\n      dup1\n      dup4\n      sload\n      div\n      mul\n      dup4\n      mstore\n      swap2\n      0x20\n      add\n      swap2\n      jump(tag_276)\n    tag_277:\n      dup3\n      add\n      swap2\n      swap1\n      0x00\n      mstore\n      keccak256(0x00, 0x20)\n      swap1\n    tag_278:\n      dup2\n      sload\n      dup2\n      mstore\n      swap1\n      0x01\n      add\n      swap1\n      0x20\n      add\n      dup1\n      dup4\n      gt\n      tag_278\n      jumpi\n      dup3\n      swap1\n      sub\n      0x1f\n      and\n      dup3\n      add\n      swap2\n    tag_276:\n      pop\n      pop\n      pop\n      pop\n      pop\n      swap4\n      pop\n      dup3\n      dup1\n      sload\n      tag_279\n      swap1\n      tag_113\n      jump\t// in\n    tag_279:\n      dup1\n      0x1f\n      add\n      0x20\n      dup1\n      swap2\n      div\n      mul\n      0x20\n      add\n      mload(0x40)\n      swap1\n      dup2\n      add\n      0x40\n      mstore\n      dup1\n      swap3\n      swap2\n      swap1\n      dup2\n      dup2\n      mstore\n      0x20\n      add\n      dup3\n      dup1\n      sload\n      tag_280\n      swap1\n      tag_113\n      jump\t// in\n    tag_280:\n      dup1\n      iszero\n      tag_281\n      jumpi\n      dup1\n      0x1f\n      lt\n      tag_282\n      jumpi\n      0x0100\n      dup1\n      dup4\n      sload\n      div\n      mul\n      dup4\n      mstore\n      swap2\n      0x20\n      add\n      swap2\n      jump(tag_281)\n    tag_282:\n      dup3\n      add\n      swap2\n      swap1\n      0x00\n      mstore\n      keccak256(0x00, 0x20)\n      swap1\n    tag_283:\n      dup2\n      sload\n      dup2\n      mstore\n      swap1\n      0x01\n      add\n      swap1\n      0x20\n      add\n      dup1\n      dup4\n      gt\n      tag_283\n      jumpi\n      dup3\n      swap1\n      sub\n      0x1f\n      and\n      dup3\n      add\n      swap2\n    tag_281:\n      pop\n      pop\n      pop\n      pop\n      pop\n      swap3\n      pop\n      dup2\n      dup1\n      sload\n      tag_284\n      swap1\n      tag_113\n      jump\t// in\n    tag_284:\n      dup1\n      0x1f\n      add\n      0x20\n      dup1\n      swap2\n      div\n      mul\n      0x20\n      add\n      mload(0x40)\n      swap1\n      dup2\n      add\n      0x40\n      mstore\n      dup1\n      swap3\n      swap2\n      swap1\n      dup2\n      dup2\n      mstore\n      0x20\n      add\n      dup3\n      dup1\n      sload\n      tag_285\n      swap1\n      tag_113\n      jump\t// in\n    tag_285:\n      dup1\n      iszero\n      tag_286\n      jumpi\n      dup1\n      0x1f\n      lt\n      tag_287\n      jumpi\n      0x0100\n      dup1\n      dup4\n      sload\n      div\n      mul\n      dup4\n      mstore\n      swap2\n      0x20\n      add\n      swap2\n      jump(tag_286)\n    tag_287:\n      dup3\n      add\n      swap2\n      swap1\n      0x00\n      mstore\n      keccak256(0x00, 0x20)\n      swap1\n    tag_288:\n      dup2\n      sload\n      dup2\n      mstore\n      swap1\n      0x01\n      add\n      swap1\n      0x20\n      add\n      dup1\n      dup4\n      gt\n      tag_288\n      jumpi\n      dup3\n      swap1\n      sub\n      0x1f\n      and\n      dup3\n      add\n      swap2\n    tag_286:\n      pop\n      pop\n      pop\n      pop\n      pop\n      swap2\n      pop\n      dup1\n      dup1\n      sload\n      tag_289\n      swap1\n      tag_113\n      jump\t// in\n    tag_289:\n      dup1\n      0x1f\n      add\n      0x20\n      dup1\n      swap2\n      div\n      mul\n      0x20\n      add\n      mload(0x40)\n      swap1\n      dup2\n      add\n      0x40\n      mstore\n      dup1\n      swap3\n      swap2\n      swap1\n      dup2\n      dup2\n      mstore\n      0x20\n      add\n      dup3\n      dup1\n      sload\n      tag_290\n      swap1\n      tag_113\n      jump\t// in\n    tag_290:\n      dup1\n      iszero\n      tag_291\n      jumpi\n      dup1\n      0x1f\n      lt\n      tag_292\n      jumpi\n      0x0100\n      dup1\n      dup4\n      sload\n      div\n      mul\n      dup4\n      mstore\n      swap2\n      0x20\n      add\n      swap2\n      jump(tag_291)\n    tag_292:\n      dup3\n      add\n      swap2\n      swap1\n      0x00\n      mstore\n      keccak256(0x00, 0x20)\n      swap1\n    tag_293:\n      dup2\n      sload\n      dup2\n      mstore\n      swap1\n      0x01\n      add\n      swap1\n      0x20\n      add\n      dup1\n      dup4\n      gt\n      tag_293\n      jumpi\n      dup3\n      swap1\n      sub\n      0x1f\n      and\n      dup3\n      add\n      swap2\n    tag_291:\n      pop\n      pop\n      pop\n      pop\n      pop\n      swap1\n      pop\n      swap5\n      pop\n      swap5\n      pop\n      swap5\n      pop\n      swap5\n      pop\n      swap5\n      pop\n        /* \"contracts/Profile.sol\":3865:4258  function getEducation(uint index) public view returns(string memory, string memory, string memory, string memory, string memory) {\r... */\n      swap2\n      swap4\n      swap6\n      swap1\n      swap3\n      swap5\n      pop\n      jump\t// out\n        /* \"contracts/Profile.sol\":4843:4919  function delProfile() external {\r... */\n    tag_58:\n        /* \"contracts/Profile.sol\":4892:4899  profile */\n      0x00\n        /* \"contracts/Profile.sol\":4892:4911  profile[msg.sender] */\n      dup1\n        /* \"contracts/Profile.sol\":4900:4910  msg.sender */\n      caller\n        /* \"contracts/Profile.sol\":4892:4911  profile[msg.sender] */\n      0xffffffffffffffffffffffffffffffffffffffff\n      and\n      0xffffffffffffffffffffffffffffffffffffffff\n      and\n      dup2\n      mstore\n      0x20\n      add\n      swap1\n      dup2\n      mstore\n      0x20\n      add\n      0x00\n      keccak256\n      0x00\n        /* \"contracts/Profile.sol\":4885:4911  delete profile[msg.sender] */\n      dup1\n      dup3\n      add\n      0x00\n      dup1\n      dup3\n      add\n      0x00\n      tag_295\n      swap2\n      swap1\n      tag_87\n      jump\t// in\n    tag_295:\n      0x01\n      dup3\n      add\n      0x00\n      tag_296\n      swap2\n      swap1\n      tag_87\n      jump\t// in\n    tag_296:\n      0x02\n      dup3\n      add\n      exp(0x0100, 0x00)\n      dup2\n      sload\n      swap1\n      0xffffffffffffffffffffffffffffffffffffffff\n      mul\n      not\n      and\n      swap1\n      sstore\n      0x03\n      dup3\n      add\n      0x00\n      tag_297\n      swap2\n      swap1\n      tag_87\n      jump\t// in\n    tag_297:\n      0x04\n      dup3\n      add\n      0x00\n      tag_298\n      swap2\n      swap1\n      tag_87\n      jump\t// in\n    tag_298:\n      0x05\n      dup3\n      add\n      0x00\n      tag_299\n      swap2\n      swap1\n      tag_87\n      jump\t// in\n    tag_299:\n      0x06\n      dup3\n      add\n      0x00\n      tag_300\n      swap2\n      swap1\n      tag_87\n      jump\t// in\n    tag_300:\n      0x07\n      dup3\n      add\n      0x00\n      swap1\n      sstore\n      pop\n      pop\n      0x08\n      dup3\n      add\n      0x00\n      dup1\n      dup3\n      add\n      0x00\n      tag_301\n      swap2\n      swap1\n      tag_87\n      jump\t// in\n    tag_301:\n      0x01\n      dup3\n      add\n      0x00\n      tag_302\n      swap2\n      swap1\n      tag_87\n      jump\t// in\n    tag_302:\n      0x02\n      dup3\n      add\n      0x00\n      tag_303\n      swap2\n      swap1\n      tag_87\n      jump\t// in\n    tag_303:\n      0x03\n      dup3\n      add\n      0x00\n      tag_304\n      swap2\n      swap1\n      tag_87\n      jump\t// in\n    tag_304:\n      0x04\n      dup3\n      add\n      0x00\n      tag_305\n      swap2\n      swap1\n      tag_87\n      jump\t// in\n    tag_305:\n      0x05\n      dup3\n      add\n      0x00\n      tag_306\n      swap2\n      swap1\n      tag_87\n      jump\t// in\n    tag_306:\n      pop\n      pop\n      0x0e\n      dup3\n      add\n      0x00\n      dup1\n      dup3\n      add\n      0x00\n      tag_307\n      swap2\n      swap1\n      tag_61\n      jump\t// in\n    tag_307:\n      0x01\n      dup3\n      add\n      0x00\n      tag_308\n      swap2\n      swap1\n      tag_61\n      jump\t// in\n    tag_308:\n      0x02\n      dup3\n      add\n      0x00\n      tag_309\n      swap2\n      swap1\n      tag_61\n      jump\t// in\n    tag_309:\n      pop\n      pop\n      0x11\n      dup3\n      add\n      0x00\n      tag_310\n      swap2\n      swap1\n      tag_251\n      jump\t// in\n    tag_310:\n      0x12\n      dup3\n      add\n      0x00\n      dup1\n      dup3\n      add\n      0x00\n      tag_311\n      swap2\n      swap1\n      tag_61\n      jump\t// in\n    tag_311:\n      0x01\n      dup3\n      add\n      0x00\n      tag_312\n      swap2\n      swap1\n      tag_61\n      jump\t// in\n    tag_312:\n      pop\n      pop\n      0x14\n      dup3\n      add\n      0x00\n      dup1\n      dup3\n      add\n      0x00\n      tag_313\n      swap2\n      swap1\n      tag_87\n      jump\t// in\n    tag_313:\n      0x01\n      dup3\n      add\n      0x00\n      tag_314\n      swap2\n      swap1\n      tag_87\n      jump\t// in\n    tag_314:\n      0x02\n      dup3\n      add\n      0x00\n      tag_315\n      swap2\n      swap1\n      tag_87\n      jump\t// in\n    tag_315:\n      0x03\n      dup3\n      add\n      0x00\n      tag_316\n      swap2\n      swap1\n      tag_87\n      jump\t// in\n    tag_316:\n      0x04\n      dup3\n      add\n      0x00\n      tag_317\n      swap2\n      swap1\n      tag_61\n      jump\t// in\n    tag_317:\n      pop\n      pop\n      0x19\n      dup3\n      add\n      0x00\n      dup1\n      dup3\n      add\n      0x00\n      tag_318\n      swap2\n      swap1\n      tag_61\n      jump\t// in\n    tag_318:\n      pop\n      pop\n      pop\n      pop\n        /* \"contracts/Profile.sol\":4843:4919  function delProfile() external {\r... */\n      jump\t// out\n    tag_61:\n      pop\n      dup1\n      sload\n      0x00\n      dup3\n      sstore\n      swap1\n      0x00\n      mstore\n      keccak256(0x00, 0x20)\n      swap1\n      dup2\n      add\n      swap1\n      tag_320\n      swap2\n      swap1\n      tag_321\n      jump\t// in\n    tag_320:\n      pop\n      jump\t// out\n    tag_65:\n      dup3\n      dup1\n      sload\n      dup3\n      dup3\n      sstore\n      swap1\n      0x00\n      mstore\n      keccak256(0x00, 0x20)\n      swap1\n      dup2\n      add\n      swap3\n      dup3\n      iszero\n      tag_322\n      jumpi\n      swap2\n      0x20\n      mul\n      dup3\n      add\n    tag_323:\n      dup3\n      dup2\n      gt\n      iszero\n      tag_324\n      jumpi\n      dup3\n      mload\n      dup3\n      swap1\n      dup1\n      mload\n      swap1\n      0x20\n      add\n      swap1\n      tag_325\n      swap3\n      swap2\n      swap1\n      tag_77\n      jump\t// in\n    tag_325:\n      pop\n      swap2\n      0x20\n      add\n      swap2\n      swap1\n      0x01\n      add\n      swap1\n      jump(tag_323)\n    tag_324:\n    tag_322:\n      pop\n      swap1\n      pop\n      tag_326\n      swap2\n      swap1\n      tag_321\n      jump\t// in\n    tag_326:\n      pop\n      swap1\n      jump\t// out\n    tag_74:\n      mload(0x40)\n      dup1\n      0xa0\n      add\n      0x40\n      mstore\n      dup1\n      0x60\n      dup2\n      mstore\n      0x20\n      add\n      0x60\n      dup2\n      mstore\n      0x20\n      add\n      0x60\n      dup2\n      mstore\n      0x20\n      add\n      0x60\n      dup2\n      mstore\n      0x20\n      add\n      0x60\n      dup2\n      mstore\n      pop\n      swap1\n      jump\t// out\n    tag_77:\n      dup3\n      dup1\n      sload\n      tag_327\n      swap1\n      tag_113\n      jump\t// in\n    tag_327:\n      swap1\n      0x00\n      mstore\n      keccak256(0x00, 0x20)\n      swap1\n      0x1f\n      add\n      0x20\n      swap1\n      div\n      dup2\n      add\n      swap3\n      dup3\n      tag_329\n      jumpi\n      0x00\n      dup6\n      sstore\n      jump(tag_328)\n    tag_329:\n      dup3\n      0x1f\n      lt\n      tag_330\n      jumpi\n      dup1\n      mload\n      not(0xff)\n      and\n      dup4\n      dup1\n      add\n      or\n      dup6\n      sstore\n      jump(tag_328)\n    tag_330:\n      dup3\n      dup1\n      add\n      0x01\n      add\n      dup6\n      sstore\n      dup3\n      iszero\n      tag_328\n      jumpi\n      swap2\n      dup3\n      add\n    tag_331:\n      dup3\n      dup2\n      gt\n      iszero\n      tag_332\n      jumpi\n      dup3\n      mload\n      dup3\n      sstore\n      swap2\n      0x20\n      add\n      swap2\n      swap1\n      0x01\n      add\n      swap1\n      jump(tag_331)\n    tag_332:\n    tag_328:\n      pop\n      swap1\n      pop\n      tag_333\n      swap2\n      swap1\n      tag_334\n      jump\t// in\n    tag_333:\n      pop\n      swap1\n      jump\t// out\n    tag_87:\n      pop\n      dup1\n      sload\n      tag_335\n      swap1\n      tag_113\n      jump\t// in\n    tag_335:\n      0x00\n      dup3\n      sstore\n      dup1\n      0x1f\n      lt\n      tag_337\n      jumpi\n      pop\n      jump(tag_336)\n    tag_337:\n      0x1f\n      add\n      0x20\n      swap1\n      div\n      swap1\n      0x00\n      mstore\n      keccak256(0x00, 0x20)\n      swap1\n      dup2\n      add\n      swap1\n      tag_338\n      swap2\n      swap1\n      tag_334\n      jump\t// in\n    tag_338:\n    tag_336:\n      pop\n      jump\t// out\n    tag_251:\n      pop\n      dup1\n      sload\n      0x00\n      dup3\n      sstore\n      0x05\n      mul\n      swap1\n      0x00\n      mstore\n      keccak256(0x00, 0x20)\n      swap1\n      dup2\n      add\n      swap1\n      tag_340\n      swap2\n      swap1\n      tag_341\n      jump\t// in\n    tag_340:\n      pop\n      jump\t// out\n    tag_321:\n    tag_342:\n      dup1\n      dup3\n      gt\n      iszero\n      tag_343\n      jumpi\n      0x00\n      dup2\n      dup2\n      tag_344\n      swap2\n      swap1\n      tag_87\n      jump\t// in\n    tag_344:\n      pop\n      0x01\n      add\n      jump(tag_342)\n    tag_343:\n      pop\n      swap1\n      jump\t// out\n    tag_334:\n    tag_345:\n      dup1\n      dup3\n      gt\n      iszero\n      tag_346\n      jumpi\n      0x00\n      dup2\n      0x00\n      swap1\n      sstore\n      pop\n      0x01\n      add\n      jump(tag_345)\n    tag_346:\n      pop\n      swap1\n      jump\t// out\n    tag_341:\n    tag_347:\n      dup1\n      dup3\n      gt\n      iszero\n      tag_348\n      jumpi\n      0x00\n      dup1\n      dup3\n      add\n      0x00\n      tag_349\n      swap2\n      swap1\n      tag_87\n      jump\t// in\n    tag_349:\n      0x01\n      dup3\n      add\n      0x00\n      tag_350\n      swap2\n      swap1\n      tag_87\n      jump\t// in\n    tag_350:\n      0x02\n      dup3\n      add\n      0x00\n      tag_351\n      swap2\n      swap1\n      tag_87\n      jump\t// in\n    tag_351:\n      0x03\n      dup3\n      add\n      0x00\n      tag_352\n      swap2\n      swap1\n      tag_87\n      jump\t// in\n    tag_352:\n      0x04\n      dup3\n      add\n      0x00\n      tag_353\n      swap2\n      swap1\n      tag_87\n      jump\t// in\n    tag_353:\n      pop\n      0x05\n      add\n      jump(tag_347)\n    tag_348:\n      pop\n      swap1\n      jump\t// out\n        /* \"#utility.yul\":23:980   */\n    tag_355:\n        /* \"#utility.yul\":129:134   */\n      0x00\n        /* \"#utility.yul\":154:245   */\n      tag_357\n        /* \"#utility.yul\":170:244   */\n      tag_358\n        /* \"#utility.yul\":237:243   */\n      dup5\n        /* \"#utility.yul\":170:244   */\n      tag_359\n      jump\t// in\n    tag_358:\n        /* \"#utility.yul\":154:245   */\n      tag_360\n      jump\t// in\n    tag_357:\n        /* \"#utility.yul\":145:245   */\n      swap1\n      pop\n        /* \"#utility.yul\":265:270   */\n      dup1\n        /* \"#utility.yul\":294:300   */\n      dup4\n        /* \"#utility.yul\":287:292   */\n      dup3\n        /* \"#utility.yul\":280:301   */\n      mstore\n        /* \"#utility.yul\":328:332   */\n      0x20\n        /* \"#utility.yul\":321:326   */\n      dup3\n        /* \"#utility.yul\":317:333   */\n      add\n        /* \"#utility.yul\":310:333   */\n      swap1\n      pop\n        /* \"#utility.yul\":354:360   */\n      dup3\n        /* \"#utility.yul\":404:407   */\n      dup6\n        /* \"#utility.yul\":396:400   */\n      0x20\n        /* \"#utility.yul\":388:394   */\n      dup7\n        /* \"#utility.yul\":384:401   */\n      mul\n        /* \"#utility.yul\":379:382   */\n      dup3\n        /* \"#utility.yul\":375:402   */\n      add\n        /* \"#utility.yul\":372:408   */\n      gt\n        /* \"#utility.yul\":369:512   */\n      iszero\n      tag_361\n      jumpi\n        /* \"#utility.yul\":423:502   */\n      tag_362\n      tag_363\n      jump\t// in\n    tag_362:\n        /* \"#utility.yul\":369:512   */\n    tag_361:\n        /* \"#utility.yul\":536:537   */\n      0x00\n        /* \"#utility.yul\":521:974   */\n    tag_364:\n        /* \"#utility.yul\":546:552   */\n      dup6\n        /* \"#utility.yul\":543:544   */\n      dup2\n        /* \"#utility.yul\":540:553   */\n      lt\n        /* \"#utility.yul\":521:974   */\n      iszero\n      tag_366\n      jumpi\n        /* \"#utility.yul\":628:631   */\n      dup2\n        /* \"#utility.yul\":615:632   */\n      calldataload\n        /* \"#utility.yul\":664:682   */\n      0xffffffffffffffff\n        /* \"#utility.yul\":651:662   */\n      dup2\n        /* \"#utility.yul\":648:683   */\n      gt\n        /* \"#utility.yul\":645:767   */\n      iszero\n      tag_367\n      jumpi\n        /* \"#utility.yul\":686:765   */\n      tag_368\n      tag_369\n      jump\t// in\n    tag_368:\n        /* \"#utility.yul\":645:767   */\n    tag_367:\n        /* \"#utility.yul\":810:821   */\n      dup1\n        /* \"#utility.yul\":802:808   */\n      dup7\n        /* \"#utility.yul\":798:822   */\n      add\n        /* \"#utility.yul\":848:895   */\n      tag_370\n        /* \"#utility.yul\":891:894   */\n      dup10\n        /* \"#utility.yul\":879:889   */\n      dup3\n        /* \"#utility.yul\":848:895   */\n      tag_371\n      jump\t// in\n    tag_370:\n        /* \"#utility.yul\":843:846   */\n      dup6\n        /* \"#utility.yul\":836:896   */\n      mstore\n        /* \"#utility.yul\":925:929   */\n      0x20\n        /* \"#utility.yul\":920:923   */\n      dup6\n        /* \"#utility.yul\":916:930   */\n      add\n        /* \"#utility.yul\":909:930   */\n      swap5\n      pop\n        /* \"#utility.yul\":959:963   */\n      0x20\n        /* \"#utility.yul\":954:957   */\n      dup5\n        /* \"#utility.yul\":950:964   */\n      add\n        /* \"#utility.yul\":943:964   */\n      swap4\n      pop\n        /* \"#utility.yul\":581:974   */\n      pop\n      pop\n        /* \"#utility.yul\":568:569   */\n      0x01\n        /* \"#utility.yul\":565:566   */\n      dup2\n        /* \"#utility.yul\":561:570   */\n      add\n        /* \"#utility.yul\":556:570   */\n      swap1\n      pop\n        /* \"#utility.yul\":521:974   */\n      jump(tag_364)\n    tag_366:\n        /* \"#utility.yul\":525:539   */\n      pop\n        /* \"#utility.yul\":135:980   */\n      pop\n      pop\n        /* \"#utility.yul\":23:980   */\n      swap4\n      swap3\n      pop\n      pop\n      pop\n      jump\t// out\n        /* \"#utility.yul\":986:1398   */\n    tag_372:\n        /* \"#utility.yul\":1064:1069   */\n      0x00\n        /* \"#utility.yul\":1089:1155   */\n      tag_374\n        /* \"#utility.yul\":1105:1154   */\n      tag_375\n        /* \"#utility.yul\":1147:1153   */\n      dup5\n        /* \"#utility.yul\":1105:1154   */\n      tag_376\n      jump\t// in\n    tag_375:\n        /* \"#utility.yul\":1089:1155   */\n      tag_360\n      jump\t// in\n    tag_374:\n        /* \"#utility.yul\":1080:1155   */\n      swap1\n      pop\n        /* \"#utility.yul\":1178:1184   */\n      dup3\n        /* \"#utility.yul\":1171:1176   */\n      dup2\n        /* \"#utility.yul\":1164:1185   */\n      mstore\n        /* \"#utility.yul\":1216:1220   */\n      0x20\n        /* \"#utility.yul\":1209:1214   */\n      dup2\n        /* \"#utility.yul\":1205:1221   */\n      add\n        /* \"#utility.yul\":1254:1257   */\n      dup5\n        /* \"#utility.yul\":1245:1251   */\n      dup5\n        /* \"#utility.yul\":1240:1243   */\n      dup5\n        /* \"#utility.yul\":1236:1252   */\n      add\n        /* \"#utility.yul\":1233:1258   */\n      gt\n        /* \"#utility.yul\":1230:1342   */\n      iszero\n      tag_377\n      jumpi\n        /* \"#utility.yul\":1261:1340   */\n      tag_378\n      tag_379\n      jump\t// in\n    tag_378:\n        /* \"#utility.yul\":1230:1342   */\n    tag_377:\n        /* \"#utility.yul\":1351:1392   */\n      tag_380\n        /* \"#utility.yul\":1385:1391   */\n      dup5\n        /* \"#utility.yul\":1380:1383   */\n      dup3\n        /* \"#utility.yul\":1375:1378   */\n      dup6\n        /* \"#utility.yul\":1351:1392   */\n      tag_381\n      jump\t// in\n    tag_380:\n        /* \"#utility.yul\":1070:1398   */\n      pop\n        /* \"#utility.yul\":986:1398   */\n      swap4\n      swap3\n      pop\n      pop\n      pop\n      jump\t// out\n        /* \"#utility.yul\":1404:1543   */\n    tag_382:\n        /* \"#utility.yul\":1450:1455   */\n      0x00\n        /* \"#utility.yul\":1488:1494   */\n      dup2\n        /* \"#utility.yul\":1475:1495   */\n      calldataload\n        /* \"#utility.yul\":1466:1495   */\n      swap1\n      pop\n        /* \"#utility.yul\":1504:1537   */\n      tag_384\n        /* \"#utility.yul\":1531:1536   */\n      dup2\n        /* \"#utility.yul\":1504:1537   */\n      tag_385\n      jump\t// in\n    tag_384:\n        /* \"#utility.yul\":1404:1543   */\n      swap3\n      swap2\n      pop\n      pop\n      jump\t// out\n        /* \"#utility.yul\":1565:1955   */\n    tag_386:\n        /* \"#utility.yul\":1646:1651   */\n      0x00\n        /* \"#utility.yul\":1695:1698   */\n      dup3\n        /* \"#utility.yul\":1688:1692   */\n      0x1f\n        /* \"#utility.yul\":1680:1686   */\n      dup4\n        /* \"#utility.yul\":1676:1693   */\n      add\n        /* \"#utility.yul\":1672:1699   */\n      slt\n        /* \"#utility.yul\":1662:1784   */\n      tag_388\n      jumpi\n        /* \"#utility.yul\":1703:1782   */\n      tag_389\n      tag_369\n      jump\t// in\n    tag_389:\n        /* \"#utility.yul\":1662:1784   */\n    tag_388:\n        /* \"#utility.yul\":1820:1826   */\n      dup2\n        /* \"#utility.yul\":1807:1827   */\n      calldataload\n        /* \"#utility.yul\":1845:1949   */\n      tag_390\n        /* \"#utility.yul\":1945:1948   */\n      dup5\n        /* \"#utility.yul\":1937:1943   */\n      dup3\n        /* \"#utility.yul\":1930:1934   */\n      0x20\n        /* \"#utility.yul\":1922:1928   */\n      dup7\n        /* \"#utility.yul\":1918:1935   */\n      add\n        /* \"#utility.yul\":1845:1949   */\n      tag_355\n      jump\t// in\n    tag_390:\n        /* \"#utility.yul\":1836:1949   */\n      swap2\n      pop\n        /* \"#utility.yul\":1652:1955   */\n      pop\n        /* \"#utility.yul\":1565:1955   */\n      swap3\n      swap2\n      pop\n      pop\n      jump\t// out\n        /* \"#utility.yul\":1975:2315   */\n    tag_371:\n        /* \"#utility.yul\":2031:2036   */\n      0x00\n        /* \"#utility.yul\":2080:2083   */\n      dup3\n        /* \"#utility.yul\":2073:2077   */\n      0x1f\n        /* \"#utility.yul\":2065:2071   */\n      dup4\n        /* \"#utility.yul\":2061:2078   */\n      add\n        /* \"#utility.yul\":2057:2084   */\n      slt\n        /* \"#utility.yul\":2047:2169   */\n      tag_392\n      jumpi\n        /* \"#utility.yul\":2088:2167   */\n      tag_393\n      tag_369\n      jump\t// in\n    tag_393:\n        /* \"#utility.yul\":2047:2169   */\n    tag_392:\n        /* \"#utility.yul\":2205:2211   */\n      dup2\n        /* \"#utility.yul\":2192:2212   */\n      calldataload\n        /* \"#utility.yul\":2230:2309   */\n      tag_394\n        /* \"#utility.yul\":2305:2308   */\n      dup5\n        /* \"#utility.yul\":2297:2303   */\n      dup3\n        /* \"#utility.yul\":2290:2294   */\n      0x20\n        /* \"#utility.yul\":2282:2288   */\n      dup7\n        /* \"#utility.yul\":2278:2295   */\n      add\n        /* \"#utility.yul\":2230:2309   */\n      tag_372\n      jump\t// in\n    tag_394:\n        /* \"#utility.yul\":2221:2309   */\n      swap2\n      pop\n        /* \"#utility.yul\":2037:2315   */\n      pop\n        /* \"#utility.yul\":1975:2315   */\n      swap3\n      swap2\n      pop\n      pop\n      jump\t// out\n        /* \"#utility.yul\":2321:2460   */\n    tag_395:\n        /* \"#utility.yul\":2367:2372   */\n      0x00\n        /* \"#utility.yul\":2405:2411   */\n      dup2\n        /* \"#utility.yul\":2392:2412   */\n      calldataload\n        /* \"#utility.yul\":2383:2412   */\n      swap1\n      pop\n        /* \"#utility.yul\":2421:2454   */\n      tag_397\n        /* \"#utility.yul\":2448:2453   */\n      dup2\n        /* \"#utility.yul\":2421:2454   */\n      tag_398\n      jump\t// in\n    tag_397:\n        /* \"#utility.yul\":2321:2460   */\n      swap3\n      swap2\n      pop\n      pop\n      jump\t// out\n        /* \"#utility.yul\":2466:2795   */\n    tag_45:\n        /* \"#utility.yul\":2525:2531   */\n      0x00\n        /* \"#utility.yul\":2574:2576   */\n      0x20\n        /* \"#utility.yul\":2562:2571   */\n      dup3\n        /* \"#utility.yul\":2553:2560   */\n      dup5\n        /* \"#utility.yul\":2549:2572   */\n      sub\n        /* \"#utility.yul\":2545:2577   */\n      slt\n        /* \"#utility.yul\":2542:2661   */\n      iszero\n      tag_400\n      jumpi\n        /* \"#utility.yul\":2580:2659   */\n      tag_401\n      tag_402\n      jump\t// in\n    tag_401:\n        /* \"#utility.yul\":2542:2661   */\n    tag_400:\n        /* \"#utility.yul\":2700:2701   */\n      0x00\n        /* \"#utility.yul\":2725:2778   */\n      tag_403\n        /* \"#utility.yul\":2770:2777   */\n      dup5\n        /* \"#utility.yul\":2761:2767   */\n      dup3\n        /* \"#utility.yul\":2750:2759   */\n      dup6\n        /* \"#utility.yul\":2746:2768   */\n      add\n        /* \"#utility.yul\":2725:2778   */\n      tag_382\n      jump\t// in\n    tag_403:\n        /* \"#utility.yul\":2715:2778   */\n      swap2\n      pop\n        /* \"#utility.yul\":2671:2788   */\n      pop\n        /* \"#utility.yul\":2466:2795   */\n      swap3\n      swap2\n      pop\n      pop\n      jump\t// out\n        /* \"#utility.yul\":2801:3735   */\n    tag_32:\n        /* \"#utility.yul\":2939:2945   */\n      0x00\n        /* \"#utility.yul\":2947:2953   */\n      dup1\n        /* \"#utility.yul\":2996:2998   */\n      0x40\n        /* \"#utility.yul\":2984:2993   */\n      dup4\n        /* \"#utility.yul\":2975:2982   */\n      dup6\n        /* \"#utility.yul\":2971:2994   */\n      sub\n        /* \"#utility.yul\":2967:2999   */\n      slt\n        /* \"#utility.yul\":2964:3083   */\n      iszero\n      tag_405\n      jumpi\n        /* \"#utility.yul\":3002:3081   */\n      tag_406\n      tag_402\n      jump\t// in\n    tag_406:\n        /* \"#utility.yul\":2964:3083   */\n    tag_405:\n        /* \"#utility.yul\":3150:3151   */\n      0x00\n        /* \"#utility.yul\":3139:3148   */\n      dup4\n        /* \"#utility.yul\":3135:3152   */\n      add\n        /* \"#utility.yul\":3122:3153   */\n      calldataload\n        /* \"#utility.yul\":3180:3198   */\n      0xffffffffffffffff\n        /* \"#utility.yul\":3172:3178   */\n      dup2\n        /* \"#utility.yul\":3169:3199   */\n      gt\n        /* \"#utility.yul\":3166:3283   */\n      iszero\n      tag_407\n      jumpi\n        /* \"#utility.yul\":3202:3281   */\n      tag_408\n      tag_409\n      jump\t// in\n    tag_408:\n        /* \"#utility.yul\":3166:3283   */\n    tag_407:\n        /* \"#utility.yul\":3307:3395   */\n      tag_410\n        /* \"#utility.yul\":3387:3394   */\n      dup6\n        /* \"#utility.yul\":3378:3384   */\n      dup3\n        /* \"#utility.yul\":3367:3376   */\n      dup7\n        /* \"#utility.yul\":3363:3385   */\n      add\n        /* \"#utility.yul\":3307:3395   */\n      tag_386\n      jump\t// in\n    tag_410:\n        /* \"#utility.yul\":3297:3395   */\n      swap3\n      pop\n        /* \"#utility.yul\":3093:3405   */\n      pop\n        /* \"#utility.yul\":3472:3474   */\n      0x20\n        /* \"#utility.yul\":3461:3470   */\n      dup4\n        /* \"#utility.yul\":3457:3475   */\n      add\n        /* \"#utility.yul\":3444:3476   */\n      calldataload\n        /* \"#utility.yul\":3503:3521   */\n      0xffffffffffffffff\n        /* \"#utility.yul\":3495:3501   */\n      dup2\n        /* \"#utility.yul\":3492:3522   */\n      gt\n        /* \"#utility.yul\":3489:3606   */\n      iszero\n      tag_411\n      jumpi\n        /* \"#utility.yul\":3525:3604   */\n      tag_412\n      tag_409\n      jump\t// in\n    tag_412:\n        /* \"#utility.yul\":3489:3606   */\n    tag_411:\n        /* \"#utility.yul\":3630:3718   */\n      tag_413\n        /* \"#utility.yul\":3710:3717   */\n      dup6\n        /* \"#utility.yul\":3701:3707   */\n      dup3\n        /* \"#utility.yul\":3690:3699   */\n      dup7\n        /* \"#utility.yul\":3686:3708   */\n      add\n        /* \"#utility.yul\":3630:3718   */\n      tag_386\n      jump\t// in\n    tag_413:\n        /* \"#utility.yul\":3620:3718   */\n      swap2\n      pop\n        /* \"#utility.yul\":3415:3728   */\n      pop\n        /* \"#utility.yul\":2801:3735   */\n      swap3\n      pop\n      swap3\n      swap1\n      pop\n      jump\t// out\n        /* \"#utility.yul\":3741:5050   */\n    tag_18:\n        /* \"#utility.yul\":3923:3929   */\n      0x00\n        /* \"#utility.yul\":3931:3937   */\n      dup1\n        /* \"#utility.yul\":3939:3945   */\n      0x00\n        /* \"#utility.yul\":3988:3990   */\n      0x60\n        /* \"#utility.yul\":3976:3985   */\n      dup5\n        /* \"#utility.yul\":3967:3974   */\n      dup7\n        /* \"#utility.yul\":3963:3986   */\n      sub\n        /* \"#utility.yul\":3959:3991   */\n      slt\n        /* \"#utility.yul\":3956:4075   */\n      iszero\n      tag_415\n      jumpi\n        /* \"#utility.yul\":3994:4073   */\n      tag_416\n      tag_402\n      jump\t// in\n    tag_416:\n        /* \"#utility.yul\":3956:4075   */\n    tag_415:\n        /* \"#utility.yul\":4142:4143   */\n      0x00\n        /* \"#utility.yul\":4131:4140   */\n      dup5\n        /* \"#utility.yul\":4127:4144   */\n      add\n        /* \"#utility.yul\":4114:4145   */\n      calldataload\n        /* \"#utility.yul\":4172:4190   */\n      0xffffffffffffffff\n        /* \"#utility.yul\":4164:4170   */\n      dup2\n        /* \"#utility.yul\":4161:4191   */\n      gt\n        /* \"#utility.yul\":4158:4275   */\n      iszero\n      tag_417\n      jumpi\n        /* \"#utility.yul\":4194:4273   */\n      tag_418\n      tag_409\n      jump\t// in\n    tag_418:\n        /* \"#utility.yul\":4158:4275   */\n    tag_417:\n        /* \"#utility.yul\":4299:4387   */\n      tag_419\n        /* \"#utility.yul\":4379:4386   */\n      dup7\n        /* \"#utility.yul\":4370:4376   */\n      dup3\n        /* \"#utility.yul\":4359:4368   */\n      dup8\n        /* \"#utility.yul\":4355:4377   */\n      add\n        /* \"#utility.yul\":4299:4387   */\n      tag_386\n      jump\t// in\n    tag_419:\n        /* \"#utility.yul\":4289:4387   */\n      swap4\n      pop\n        /* \"#utility.yul\":4085:4397   */\n      pop\n        /* \"#utility.yul\":4464:4466   */\n      0x20\n        /* \"#utility.yul\":4453:4462   */\n      dup5\n        /* \"#utility.yul\":4449:4467   */\n      add\n        /* \"#utility.yul\":4436:4468   */\n      calldataload\n        /* \"#utility.yul\":4495:4513   */\n      0xffffffffffffffff\n        /* \"#utility.yul\":4487:4493   */\n      dup2\n        /* \"#utility.yul\":4484:4514   */\n      gt\n        /* \"#utility.yul\":4481:4598   */\n      iszero\n      tag_420\n      jumpi\n        /* \"#utility.yul\":4517:4596   */\n      tag_421\n      tag_409\n      jump\t// in\n    tag_421:\n        /* \"#utility.yul\":4481:4598   */\n    tag_420:\n        /* \"#utility.yul\":4622:4710   */\n      tag_422\n        /* \"#utility.yul\":4702:4709   */\n      dup7\n        /* \"#utility.yul\":4693:4699   */\n      dup3\n        /* \"#utility.yul\":4682:4691   */\n      dup8\n        /* \"#utility.yul\":4678:4700   */\n      add\n        /* \"#utility.yul\":4622:4710   */\n      tag_386\n      jump\t// in\n    tag_422:\n        /* \"#utility.yul\":4612:4710   */\n      swap3\n      pop\n        /* \"#utility.yul\":4407:4720   */\n      pop\n        /* \"#utility.yul\":4787:4789   */\n      0x40\n        /* \"#utility.yul\":4776:4785   */\n      dup5\n        /* \"#utility.yul\":4772:4790   */\n      add\n        /* \"#utility.yul\":4759:4791   */\n      calldataload\n        /* \"#utility.yul\":4818:4836   */\n      0xffffffffffffffff\n        /* \"#utility.yul\":4810:4816   */\n      dup2\n        /* \"#utility.yul\":4807:4837   */\n      gt\n        /* \"#utility.yul\":4804:4921   */\n      iszero\n      tag_423\n      jumpi\n        /* \"#utility.yul\":4840:4919   */\n      tag_424\n      tag_409\n      jump\t// in\n    tag_424:\n        /* \"#utility.yul\":4804:4921   */\n    tag_423:\n        /* \"#utility.yul\":4945:5033   */\n      tag_425\n        /* \"#utility.yul\":5025:5032   */\n      dup7\n        /* \"#utility.yul\":5016:5022   */\n      dup3\n        /* \"#utility.yul\":5005:5014   */\n      dup8\n        /* \"#utility.yul\":5001:5023   */\n      add\n        /* \"#utility.yul\":4945:5033   */\n      tag_386\n      jump\t// in\n    tag_425:\n        /* \"#utility.yul\":4935:5033   */\n      swap2\n      pop\n        /* \"#utility.yul\":4730:5043   */\n      pop\n        /* \"#utility.yul\":3741:5050   */\n      swap3\n      pop\n      swap3\n      pop\n      swap3\n      jump\t// out\n        /* \"#utility.yul\":5056:6867   */\n    tag_28:\n        /* \"#utility.yul\":5201:5207   */\n      0x00\n        /* \"#utility.yul\":5209:5215   */\n      dup1\n        /* \"#utility.yul\":5217:5223   */\n      0x00\n        /* \"#utility.yul\":5225:5231   */\n      dup1\n        /* \"#utility.yul\":5233:5239   */\n      0x00\n        /* \"#utility.yul\":5282:5285   */\n      0xa0\n        /* \"#utility.yul\":5270:5279   */\n      dup7\n        /* \"#utility.yul\":5261:5268   */\n      dup9\n        /* \"#utility.yul\":5257:5280   */\n      sub\n        /* \"#utility.yul\":5253:5286   */\n      slt\n        /* \"#utility.yul\":5250:5370   */\n      iszero\n      tag_427\n      jumpi\n        /* \"#utility.yul\":5289:5368   */\n      tag_428\n      tag_402\n      jump\t// in\n    tag_428:\n        /* \"#utility.yul\":5250:5370   */\n    tag_427:\n        /* \"#utility.yul\":5437:5438   */\n      0x00\n        /* \"#utility.yul\":5426:5435   */\n      dup7\n        /* \"#utility.yul\":5422:5439   */\n      add\n        /* \"#utility.yul\":5409:5440   */\n      calldataload\n        /* \"#utility.yul\":5467:5485   */\n      0xffffffffffffffff\n        /* \"#utility.yul\":5459:5465   */\n      dup2\n        /* \"#utility.yul\":5456:5486   */\n      gt\n        /* \"#utility.yul\":5453:5570   */\n      iszero\n      tag_429\n      jumpi\n        /* \"#utility.yul\":5489:5568   */\n      tag_430\n      tag_409\n      jump\t// in\n    tag_430:\n        /* \"#utility.yul\":5453:5570   */\n    tag_429:\n        /* \"#utility.yul\":5594:5657   */\n      tag_431\n        /* \"#utility.yul\":5649:5656   */\n      dup9\n        /* \"#utility.yul\":5640:5646   */\n      dup3\n        /* \"#utility.yul\":5629:5638   */\n      dup10\n        /* \"#utility.yul\":5625:5647   */\n      add\n        /* \"#utility.yul\":5594:5657   */\n      tag_371\n      jump\t// in\n    tag_431:\n        /* \"#utility.yul\":5584:5657   */\n      swap6\n      pop\n        /* \"#utility.yul\":5380:5667   */\n      pop\n        /* \"#utility.yul\":5734:5736   */\n      0x20\n        /* \"#utility.yul\":5723:5732   */\n      dup7\n        /* \"#utility.yul\":5719:5737   */\n      add\n        /* \"#utility.yul\":5706:5738   */\n      calldataload\n        /* \"#utility.yul\":5765:5783   */\n      0xffffffffffffffff\n        /* \"#utility.yul\":5757:5763   */\n      dup2\n        /* \"#utility.yul\":5754:5784   */\n      gt\n        /* \"#utility.yul\":5751:5868   */\n      iszero\n      tag_432\n      jumpi\n        /* \"#utility.yul\":5787:5866   */\n      tag_433\n      tag_409\n      jump\t// in\n    tag_433:\n        /* \"#utility.yul\":5751:5868   */\n    tag_432:\n        /* \"#utility.yul\":5892:5955   */\n      tag_434\n        /* \"#utility.yul\":5947:5954   */\n      dup9\n        /* \"#utility.yul\":5938:5944   */\n      dup3\n        /* \"#utility.yul\":5927:5936   */\n      dup10\n        /* \"#utility.yul\":5923:5945   */\n      add\n        /* \"#utility.yul\":5892:5955   */\n      tag_371\n      jump\t// in\n    tag_434:\n        /* \"#utility.yul\":5882:5955   */\n      swap5\n      pop\n        /* \"#utility.yul\":5677:5965   */\n      pop\n        /* \"#utility.yul\":6032:6034   */\n      0x40\n        /* \"#utility.yul\":6021:6030   */\n      dup7\n        /* \"#utility.yul\":6017:6035   */\n      add\n        /* \"#utility.yul\":6004:6036   */\n      calldataload\n        /* \"#utility.yul\":6063:6081   */\n      0xffffffffffffffff\n        /* \"#utility.yul\":6055:6061   */\n      dup2\n        /* \"#utility.yul\":6052:6082   */\n      gt\n        /* \"#utility.yul\":6049:6166   */\n      iszero\n      tag_435\n      jumpi\n        /* \"#utility.yul\":6085:6164   */\n      tag_436\n      tag_409\n      jump\t// in\n    tag_436:\n        /* \"#utility.yul\":6049:6166   */\n    tag_435:\n        /* \"#utility.yul\":6190:6253   */\n      tag_437\n        /* \"#utility.yul\":6245:6252   */\n      dup9\n        /* \"#utility.yul\":6236:6242   */\n      dup3\n        /* \"#utility.yul\":6225:6234   */\n      dup10\n        /* \"#utility.yul\":6221:6243   */\n      add\n        /* \"#utility.yul\":6190:6253   */\n      tag_371\n      jump\t// in\n    tag_437:\n        /* \"#utility.yul\":6180:6253   */\n      swap4\n      pop\n        /* \"#utility.yul\":5975:6263   */\n      pop\n        /* \"#utility.yul\":6330:6332   */\n      0x60\n        /* \"#utility.yul\":6319:6328   */\n      dup7\n        /* \"#utility.yul\":6315:6333   */\n      add\n        /* \"#utility.yul\":6302:6334   */\n      calldataload\n        /* \"#utility.yul\":6361:6379   */\n      0xffffffffffffffff\n        /* \"#utility.yul\":6353:6359   */\n      dup2\n        /* \"#utility.yul\":6350:6380   */\n      gt\n        /* \"#utility.yul\":6347:6464   */\n      iszero\n      tag_438\n      jumpi\n        /* \"#utility.yul\":6383:6462   */\n      tag_439\n      tag_409\n      jump\t// in\n    tag_439:\n        /* \"#utility.yul\":6347:6464   */\n    tag_438:\n        /* \"#utility.yul\":6488:6551   */\n      tag_440\n        /* \"#utility.yul\":6543:6550   */\n      dup9\n        /* \"#utility.yul\":6534:6540   */\n      dup3\n        /* \"#utility.yul\":6523:6532   */\n      dup10\n        /* \"#utility.yul\":6519:6541   */\n      add\n        /* \"#utility.yul\":6488:6551   */\n      tag_371\n      jump\t// in\n    tag_440:\n        /* \"#utility.yul\":6478:6551   */\n      swap3\n      pop\n        /* \"#utility.yul\":6273:6561   */\n      pop\n        /* \"#utility.yul\":6628:6631   */\n      0x80\n        /* \"#utility.yul\":6617:6626   */\n      dup7\n        /* \"#utility.yul\":6613:6632   */\n      add\n        /* \"#utility.yul\":6600:6633   */\n      calldataload\n        /* \"#utility.yul\":6660:6678   */\n      0xffffffffffffffff\n        /* \"#utility.yul\":6652:6658   */\n      dup2\n        /* \"#utility.yul\":6649:6679   */\n      gt\n        /* \"#utility.yul\":6646:6763   */\n      iszero\n      tag_441\n      jumpi\n        /* \"#utility.yul\":6682:6761   */\n      tag_442\n      tag_409\n      jump\t// in\n    tag_442:\n        /* \"#utility.yul\":6646:6763   */\n    tag_441:\n        /* \"#utility.yul\":6787:6850   */\n      tag_443\n        /* \"#utility.yul\":6842:6849   */\n      dup9\n        /* \"#utility.yul\":6833:6839   */\n      dup3\n        /* \"#utility.yul\":6822:6831   */\n      dup10\n        /* \"#utility.yul\":6818:6840   */\n      add\n        /* \"#utility.yul\":6787:6850   */\n      tag_371\n      jump\t// in\n    tag_443:\n        /* \"#utility.yul\":6777:6850   */\n      swap2\n      pop\n        /* \"#utility.yul\":6571:6860   */\n      pop\n        /* \"#utility.yul\":5056:6867   */\n      swap3\n      swap6\n      pop\n      swap3\n      swap6\n      swap1\n      swap4\n      pop\n      jump\t// out\n        /* \"#utility.yul\":6873:9010   */\n    tag_39:\n        /* \"#utility.yul\":7037:7043   */\n      0x00\n        /* \"#utility.yul\":7045:7051   */\n      dup1\n        /* \"#utility.yul\":7053:7059   */\n      0x00\n        /* \"#utility.yul\":7061:7067   */\n      dup1\n        /* \"#utility.yul\":7069:7075   */\n      0x00\n        /* \"#utility.yul\":7077:7083   */\n      dup1\n        /* \"#utility.yul\":7126:7129   */\n      0xc0\n        /* \"#utility.yul\":7114:7123   */\n      dup8\n        /* \"#utility.yul\":7105:7112   */\n      dup10\n        /* \"#utility.yul\":7101:7124   */\n      sub\n        /* \"#utility.yul\":7097:7130   */\n      slt\n        /* \"#utility.yul\":7094:7214   */\n      iszero\n      tag_445\n      jumpi\n        /* \"#utility.yul\":7133:7212   */\n      tag_446\n      tag_402\n      jump\t// in\n    tag_446:\n        /* \"#utility.yul\":7094:7214   */\n    tag_445:\n        /* \"#utility.yul\":7281:7282   */\n      0x00\n        /* \"#utility.yul\":7270:7279   */\n      dup8\n        /* \"#utility.yul\":7266:7283   */\n      add\n        /* \"#utility.yul\":7253:7284   */\n      calldataload\n        /* \"#utility.yul\":7311:7329   */\n      0xffffffffffffffff\n        /* \"#utility.yul\":7303:7309   */\n      dup2\n        /* \"#utility.yul\":7300:7330   */\n      gt\n        /* \"#utility.yul\":7297:7414   */\n      iszero\n      tag_447\n      jumpi\n        /* \"#utility.yul\":7333:7412   */\n      tag_448\n      tag_409\n      jump\t// in\n    tag_448:\n        /* \"#utility.yul\":7297:7414   */\n    tag_447:\n        /* \"#utility.yul\":7438:7501   */\n      tag_449\n        /* \"#utility.yul\":7493:7500   */\n      dup10\n        /* \"#utility.yul\":7484:7490   */\n      dup3\n        /* \"#utility.yul\":7473:7482   */\n      dup11\n        /* \"#utility.yul\":7469:7491   */\n      add\n        /* \"#utility.yul\":7438:7501   */\n      tag_371\n      jump\t// in\n    tag_449:\n        /* \"#utility.yul\":7428:7501   */\n      swap7\n      pop\n        /* \"#utility.yul\":7224:7511   */\n      pop\n        /* \"#utility.yul\":7578:7580   */\n      0x20\n        /* \"#utility.yul\":7567:7576   */\n      dup8\n        /* \"#utility.yul\":7563:7581   */\n      add\n        /* \"#utility.yul\":7550:7582   */\n      calldataload\n        /* \"#utility.yul\":7609:7627   */\n      0xffffffffffffffff\n        /* \"#utility.yul\":7601:7607   */\n      dup2\n        /* \"#utility.yul\":7598:7628   */\n      gt\n        /* \"#utility.yul\":7595:7712   */\n      iszero\n      tag_450\n      jumpi\n        /* \"#utility.yul\":7631:7710   */\n      tag_451\n      tag_409\n      jump\t// in\n    tag_451:\n        /* \"#utility.yul\":7595:7712   */\n    tag_450:\n        /* \"#utility.yul\":7736:7799   */\n      tag_452\n        /* \"#utility.yul\":7791:7798   */\n      dup10\n        /* \"#utility.yul\":7782:7788   */\n      dup3\n        /* \"#utility.yul\":7771:7780   */\n      dup11\n        /* \"#utility.yul\":7767:7789   */\n      add\n        /* \"#utility.yul\":7736:7799   */\n      tag_371\n      jump\t// in\n    tag_452:\n        /* \"#utility.yul\":7726:7799   */\n      swap6\n      pop\n        /* \"#utility.yul\":7521:7809   */\n      pop\n        /* \"#utility.yul\":7876:7878   */\n      0x40\n        /* \"#utility.yul\":7865:7874   */\n      dup8\n        /* \"#utility.yul\":7861:7879   */\n      add\n        /* \"#utility.yul\":7848:7880   */\n      calldataload\n        /* \"#utility.yul\":7907:7925   */\n      0xffffffffffffffff\n        /* \"#utility.yul\":7899:7905   */\n      dup2\n        /* \"#utility.yul\":7896:7926   */\n      gt\n        /* \"#utility.yul\":7893:8010   */\n      iszero\n      tag_453\n      jumpi\n        /* \"#utility.yul\":7929:8008   */\n      tag_454\n      tag_409\n      jump\t// in\n    tag_454:\n        /* \"#utility.yul\":7893:8010   */\n    tag_453:\n        /* \"#utility.yul\":8034:8097   */\n      tag_455\n        /* \"#utility.yul\":8089:8096   */\n      dup10\n        /* \"#utility.yul\":8080:8086   */\n      dup3\n        /* \"#utility.yul\":8069:8078   */\n      dup11\n        /* \"#utility.yul\":8065:8087   */\n      add\n        /* \"#utility.yul\":8034:8097   */\n      tag_371\n      jump\t// in\n    tag_455:\n        /* \"#utility.yul\":8024:8097   */\n      swap5\n      pop\n        /* \"#utility.yul\":7819:8107   */\n      pop\n        /* \"#utility.yul\":8174:8176   */\n      0x60\n        /* \"#utility.yul\":8163:8172   */\n      dup8\n        /* \"#utility.yul\":8159:8177   */\n      add\n        /* \"#utility.yul\":8146:8178   */\n      calldataload\n        /* \"#utility.yul\":8205:8223   */\n      0xffffffffffffffff\n        /* \"#utility.yul\":8197:8203   */\n      dup2\n        /* \"#utility.yul\":8194:8224   */\n      gt\n        /* \"#utility.yul\":8191:8308   */\n      iszero\n      tag_456\n      jumpi\n        /* \"#utility.yul\":8227:8306   */\n      tag_457\n      tag_409\n      jump\t// in\n    tag_457:\n        /* \"#utility.yul\":8191:8308   */\n    tag_456:\n        /* \"#utility.yul\":8332:8395   */\n      tag_458\n        /* \"#utility.yul\":8387:8394   */\n      dup10\n        /* \"#utility.yul\":8378:8384   */\n      dup3\n        /* \"#utility.yul\":8367:8376   */\n      dup11\n        /* \"#utility.yul\":8363:8385   */\n      add\n        /* \"#utility.yul\":8332:8395   */\n      tag_371\n      jump\t// in\n    tag_458:\n        /* \"#utility.yul\":8322:8395   */\n      swap4\n      pop\n        /* \"#utility.yul\":8117:8405   */\n      pop\n        /* \"#utility.yul\":8472:8475   */\n      0x80\n        /* \"#utility.yul\":8461:8470   */\n      dup8\n        /* \"#utility.yul\":8457:8476   */\n      add\n        /* \"#utility.yul\":8444:8477   */\n      calldataload\n        /* \"#utility.yul\":8504:8522   */\n      0xffffffffffffffff\n        /* \"#utility.yul\":8496:8502   */\n      dup2\n        /* \"#utility.yul\":8493:8523   */\n      gt\n        /* \"#utility.yul\":8490:8607   */\n      iszero\n      tag_459\n      jumpi\n        /* \"#utility.yul\":8526:8605   */\n      tag_460\n      tag_409\n      jump\t// in\n    tag_460:\n        /* \"#utility.yul\":8490:8607   */\n    tag_459:\n        /* \"#utility.yul\":8631:8694   */\n      tag_461\n        /* \"#utility.yul\":8686:8693   */\n      dup10\n        /* \"#utility.yul\":8677:8683   */\n      dup3\n        /* \"#utility.yul\":8666:8675   */\n      dup11\n        /* \"#utility.yul\":8662:8684   */\n      add\n        /* \"#utility.yul\":8631:8694   */\n      tag_371\n      jump\t// in\n    tag_461:\n        /* \"#utility.yul\":8621:8694   */\n      swap3\n      pop\n        /* \"#utility.yul\":8415:8704   */\n      pop\n        /* \"#utility.yul\":8771:8774   */\n      0xa0\n        /* \"#utility.yul\":8760:8769   */\n      dup8\n        /* \"#utility.yul\":8756:8775   */\n      add\n        /* \"#utility.yul\":8743:8776   */\n      calldataload\n        /* \"#utility.yul\":8803:8821   */\n      0xffffffffffffffff\n        /* \"#utility.yul\":8795:8801   */\n      dup2\n        /* \"#utility.yul\":8792:8822   */\n      gt\n        /* \"#utility.yul\":8789:8906   */\n      iszero\n      tag_462\n      jumpi\n        /* \"#utility.yul\":8825:8904   */\n      tag_463\n      tag_409\n      jump\t// in\n    tag_463:\n        /* \"#utility.yul\":8789:8906   */\n    tag_462:\n        /* \"#utility.yul\":8930:8993   */\n      tag_464\n        /* \"#utility.yul\":8985:8992   */\n      dup10\n        /* \"#utility.yul\":8976:8982   */\n      dup3\n        /* \"#utility.yul\":8965:8974   */\n      dup11\n        /* \"#utility.yul\":8961:8983   */\n      add\n        /* \"#utility.yul\":8930:8993   */\n      tag_371\n      jump\t// in\n    tag_464:\n        /* \"#utility.yul\":8920:8993   */\n      swap2\n      pop\n        /* \"#utility.yul\":8714:9003   */\n      pop\n        /* \"#utility.yul\":6873:9010   */\n      swap3\n      swap6\n      pop\n      swap3\n      swap6\n      pop\n      swap3\n      swap6\n      jump\t// out\n        /* \"#utility.yul\":9016:9345   */\n    tag_53:\n        /* \"#utility.yul\":9075:9081   */\n      0x00\n        /* \"#utility.yul\":9124:9126   */\n      0x20\n        /* \"#utility.yul\":9112:9121   */\n      dup3\n        /* \"#utility.yul\":9103:9110   */\n      dup5\n        /* \"#utility.yul\":9099:9122   */\n      sub\n        /* \"#utility.yul\":9095:9127   */\n      slt\n        /* \"#utility.yul\":9092:9211   */\n      iszero\n      tag_466\n      jumpi\n        /* \"#utility.yul\":9130:9209   */\n      tag_467\n      tag_402\n      jump\t// in\n    tag_467:\n        /* \"#utility.yul\":9092:9211   */\n    tag_466:\n        /* \"#utility.yul\":9250:9251   */\n      0x00\n        /* \"#utility.yul\":9275:9328   */\n      tag_468\n        /* \"#utility.yul\":9320:9327   */\n      dup5\n        /* \"#utility.yul\":9311:9317   */\n      dup3\n        /* \"#utility.yul\":9300:9309   */\n      dup6\n        /* \"#utility.yul\":9296:9318   */\n      add\n        /* \"#utility.yul\":9275:9328   */\n      tag_395\n      jump\t// in\n    tag_468:\n        /* \"#utility.yul\":9265:9328   */\n      swap2\n      pop\n        /* \"#utility.yul\":9221:9338   */\n      pop\n        /* \"#utility.yul\":9016:9345   */\n      swap3\n      swap2\n      pop\n      pop\n      jump\t// out\n        /* \"#utility.yul\":9351:9547   */\n    tag_469:\n        /* \"#utility.yul\":9440:9450   */\n      0x00\n        /* \"#utility.yul\":9475:9541   */\n      tag_471\n        /* \"#utility.yul\":9537:9540   */\n      dup4\n        /* \"#utility.yul\":9529:9535   */\n      dup4\n        /* \"#utility.yul\":9475:9541   */\n      tag_472\n      jump\t// in\n    tag_471:\n        /* \"#utility.yul\":9461:9541   */\n      swap1\n      pop\n        /* \"#utility.yul\":9351:9547   */\n      swap3\n      swap2\n      pop\n      pop\n      jump\t// out\n        /* \"#utility.yul\":9553:9661   */\n    tag_473:\n        /* \"#utility.yul\":9630:9654   */\n      tag_475\n        /* \"#utility.yul\":9648:9653   */\n      dup2\n        /* \"#utility.yul\":9630:9654   */\n      tag_476\n      jump\t// in\n    tag_475:\n        /* \"#utility.yul\":9625:9628   */\n      dup3\n        /* \"#utility.yul\":9618:9655   */\n      mstore\n        /* \"#utility.yul\":9553:9661   */\n      pop\n      pop\n      jump\t// out\n        /* \"#utility.yul\":9695:10666   */\n    tag_477:\n        /* \"#utility.yul\":9824:9827   */\n      0x00\n        /* \"#utility.yul\":9853:9917   */\n      tag_479\n        /* \"#utility.yul\":9911:9916   */\n      dup3\n        /* \"#utility.yul\":9853:9917   */\n      tag_480\n      jump\t// in\n    tag_479:\n        /* \"#utility.yul\":9933:10019   */\n      tag_481\n        /* \"#utility.yul\":10012:10018   */\n      dup2\n        /* \"#utility.yul\":10007:10010   */\n      dup6\n        /* \"#utility.yul\":9933:10019   */\n      tag_482\n      jump\t// in\n    tag_481:\n        /* \"#utility.yul\":9926:10019   */\n      swap4\n      pop\n        /* \"#utility.yul\":10045:10048   */\n      dup4\n        /* \"#utility.yul\":10090:10094   */\n      0x20\n        /* \"#utility.yul\":10082:10088   */\n      dup3\n        /* \"#utility.yul\":10078:10095   */\n      mul\n        /* \"#utility.yul\":10073:10076   */\n      dup6\n        /* \"#utility.yul\":10069:10096   */\n      add\n        /* \"#utility.yul\":10120:10186   */\n      tag_483\n        /* \"#utility.yul\":10180:10185   */\n      dup6\n        /* \"#utility.yul\":10120:10186   */\n      tag_484\n      jump\t// in\n    tag_483:\n        /* \"#utility.yul\":10209:10216   */\n      dup1\n        /* \"#utility.yul\":10240:10241   */\n      0x00\n        /* \"#utility.yul\":10225:10621   */\n    tag_485:\n        /* \"#utility.yul\":10250:10256   */\n      dup6\n        /* \"#utility.yul\":10247:10248   */\n      dup2\n        /* \"#utility.yul\":10244:10257   */\n      lt\n        /* \"#utility.yul\":10225:10621   */\n      iszero\n      tag_487\n      jumpi\n        /* \"#utility.yul\":10321:10330   */\n      dup5\n        /* \"#utility.yul\":10315:10319   */\n      dup5\n        /* \"#utility.yul\":10311:10331   */\n      sub\n        /* \"#utility.yul\":10306:10309   */\n      dup10\n        /* \"#utility.yul\":10299:10332   */\n      mstore\n        /* \"#utility.yul\":10372:10378   */\n      dup2\n        /* \"#utility.yul\":10366:10379   */\n      mload\n        /* \"#utility.yul\":10400:10484   */\n      tag_488\n        /* \"#utility.yul\":10479:10483   */\n      dup6\n        /* \"#utility.yul\":10464:10477   */\n      dup3\n        /* \"#utility.yul\":10400:10484   */\n      tag_469\n      jump\t// in\n    tag_488:\n        /* \"#utility.yul\":10392:10484   */\n      swap5\n      pop\n        /* \"#utility.yul\":10507:10577   */\n      tag_489\n        /* \"#utility.yul\":10570:10576   */\n      dup4\n        /* \"#utility.yul\":10507:10577   */\n      tag_490\n      jump\t// in\n    tag_489:\n        /* \"#utility.yul\":10497:10577   */\n      swap3\n      pop\n        /* \"#utility.yul\":10606:10610   */\n      0x20\n        /* \"#utility.yul\":10601:10604   */\n      dup11\n        /* \"#utility.yul\":10597:10611   */\n      add\n        /* \"#utility.yul\":10590:10611   */\n      swap10\n      pop\n        /* \"#utility.yul\":10285:10621   */\n      pop\n        /* \"#utility.yul\":10272:10273   */\n      0x01\n        /* \"#utility.yul\":10269:10270   */\n      dup2\n        /* \"#utility.yul\":10265:10274   */\n      add\n        /* \"#utility.yul\":10260:10274   */\n      swap1\n      pop\n        /* \"#utility.yul\":10225:10621   */\n      jump(tag_485)\n    tag_487:\n        /* \"#utility.yul\":10229:10243   */\n      pop\n        /* \"#utility.yul\":10637:10641   */\n      dup3\n        /* \"#utility.yul\":10630:10641   */\n      swap8\n      pop\n        /* \"#utility.yul\":10657:10660   */\n      dup8\n        /* \"#utility.yul\":10650:10660   */\n      swap6\n      pop\n        /* \"#utility.yul\":9829:10666   */\n      pop\n      pop\n      pop\n      pop\n      pop\n        /* \"#utility.yul\":9695:10666   */\n      swap3\n      swap2\n      pop\n      pop\n      jump\t// out\n        /* \"#utility.yul\":10672:11016   */\n    tag_472:\n        /* \"#utility.yul\":10750:10753   */\n      0x00\n        /* \"#utility.yul\":10778:10817   */\n      tag_492\n        /* \"#utility.yul\":10811:10816   */\n      dup3\n        /* \"#utility.yul\":10778:10817   */\n      tag_493\n      jump\t// in\n    tag_492:\n        /* \"#utility.yul\":10833:10894   */\n      tag_494\n        /* \"#utility.yul\":10887:10893   */\n      dup2\n        /* \"#utility.yul\":10882:10885   */\n      dup6\n        /* \"#utility.yul\":10833:10894   */\n      tag_495\n      jump\t// in\n    tag_494:\n        /* \"#utility.yul\":10826:10894   */\n      swap4\n      pop\n        /* \"#utility.yul\":10903:10955   */\n      tag_496\n        /* \"#utility.yul\":10948:10954   */\n      dup2\n        /* \"#utility.yul\":10943:10946   */\n      dup6\n        /* \"#utility.yul\":10936:10940   */\n      0x20\n        /* \"#utility.yul\":10929:10934   */\n      dup7\n        /* \"#utility.yul\":10925:10941   */\n      add\n        /* \"#utility.yul\":10903:10955   */\n      tag_497\n      jump\t// in\n    tag_496:\n        /* \"#utility.yul\":10980:11009   */\n      tag_498\n        /* \"#utility.yul\":11002:11008   */\n      dup2\n        /* \"#utility.yul\":10980:11009   */\n      tag_499\n      jump\t// in\n    tag_498:\n        /* \"#utility.yul\":10975:10978   */\n      dup5\n        /* \"#utility.yul\":10971:11010   */\n      add\n        /* \"#utility.yul\":10964:11010   */\n      swap2\n      pop\n        /* \"#utility.yul\":10754:11016   */\n      pop\n        /* \"#utility.yul\":10672:11016   */\n      swap3\n      swap2\n      pop\n      pop\n      jump\t// out\n        /* \"#utility.yul\":11022:11386   */\n    tag_500:\n        /* \"#utility.yul\":11110:11113   */\n      0x00\n        /* \"#utility.yul\":11138:11177   */\n      tag_502\n        /* \"#utility.yul\":11171:11176   */\n      dup3\n        /* \"#utility.yul\":11138:11177   */\n      tag_493\n      jump\t// in\n    tag_502:\n        /* \"#utility.yul\":11193:11264   */\n      tag_503\n        /* \"#utility.yul\":11257:11263   */\n      dup2\n        /* \"#utility.yul\":11252:11255   */\n      dup6\n        /* \"#utility.yul\":11193:11264   */\n      tag_504\n      jump\t// in\n    tag_503:\n        /* \"#utility.yul\":11186:11264   */\n      swap4\n      pop\n        /* \"#utility.yul\":11273:11325   */\n      tag_505\n        /* \"#utility.yul\":11318:11324   */\n      dup2\n        /* \"#utility.yul\":11313:11316   */\n      dup6\n        /* \"#utility.yul\":11306:11310   */\n      0x20\n        /* \"#utility.yul\":11299:11304   */\n      dup7\n        /* \"#utility.yul\":11295:11311   */\n      add\n        /* \"#utility.yul\":11273:11325   */\n      tag_497\n      jump\t// in\n    tag_505:\n        /* \"#utility.yul\":11350:11379   */\n      tag_506\n        /* \"#utility.yul\":11372:11378   */\n      dup2\n        /* \"#utility.yul\":11350:11379   */\n      tag_499\n      jump\t// in\n    tag_506:\n        /* \"#utility.yul\":11345:11348   */\n      dup5\n        /* \"#utility.yul\":11341:11380   */\n      add\n        /* \"#utility.yul\":11334:11380   */\n      swap2\n      pop\n        /* \"#utility.yul\":11114:11386   */\n      pop\n        /* \"#utility.yul\":11022:11386   */\n      swap3\n      swap2\n      pop\n      pop\n      jump\t// out\n        /* \"#utility.yul\":11472:12279   */\n    tag_507:\n        /* \"#utility.yul\":11613:11616   */\n      0x00\n        /* \"#utility.yul\":11649:11653   */\n      0x40\n        /* \"#utility.yul\":11644:11647   */\n      dup4\n        /* \"#utility.yul\":11640:11654   */\n      add\n        /* \"#utility.yul\":11743:11747   */\n      0x00\n        /* \"#utility.yul\":11736:11741   */\n      dup4\n        /* \"#utility.yul\":11732:11748   */\n      add\n        /* \"#utility.yul\":11726:11749   */\n      mload\n        /* \"#utility.yul\":11796:11799   */\n      dup5\n        /* \"#utility.yul\":11790:11794   */\n      dup3\n        /* \"#utility.yul\":11786:11800   */\n      sub\n        /* \"#utility.yul\":11779:11783   */\n      0x00\n        /* \"#utility.yul\":11774:11777   */\n      dup7\n        /* \"#utility.yul\":11770:11784   */\n      add\n        /* \"#utility.yul\":11763:11801   */\n      mstore\n        /* \"#utility.yul\":11822:11945   */\n      tag_509\n        /* \"#utility.yul\":11940:11944   */\n      dup3\n        /* \"#utility.yul\":11926:11938   */\n      dup3\n        /* \"#utility.yul\":11822:11945   */\n      tag_477\n      jump\t// in\n    tag_509:\n        /* \"#utility.yul\":11814:11945   */\n      swap2\n      pop\n        /* \"#utility.yul\":11664:11956   */\n      pop\n        /* \"#utility.yul\":12039:12043   */\n      0x20\n        /* \"#utility.yul\":12032:12037   */\n      dup4\n        /* \"#utility.yul\":12028:12044   */\n      add\n        /* \"#utility.yul\":12022:12045   */\n      mload\n        /* \"#utility.yul\":12092:12095   */\n      dup5\n        /* \"#utility.yul\":12086:12090   */\n      dup3\n        /* \"#utility.yul\":12082:12096   */\n      sub\n        /* \"#utility.yul\":12075:12079   */\n      0x20\n        /* \"#utility.yul\":12070:12073   */\n      dup7\n        /* \"#utility.yul\":12066:12080   */\n      add\n        /* \"#utility.yul\":12059:12097   */\n      mstore\n        /* \"#utility.yul\":12118:12241   */\n      tag_510\n        /* \"#utility.yul\":12236:12240   */\n      dup3\n        /* \"#utility.yul\":12222:12234   */\n      dup3\n        /* \"#utility.yul\":12118:12241   */\n      tag_477\n      jump\t// in\n    tag_510:\n        /* \"#utility.yul\":12110:12241   */\n      swap2\n      pop\n        /* \"#utility.yul\":11966:12252   */\n      pop\n        /* \"#utility.yul\":12269:12273   */\n      dup1\n        /* \"#utility.yul\":12262:12273   */\n      swap2\n      pop\n        /* \"#utility.yul\":11618:12279   */\n      pop\n        /* \"#utility.yul\":11472:12279   */\n      swap3\n      swap2\n      pop\n      pop\n      jump\t// out\n        /* \"#utility.yul\":12361:13861   */\n    tag_511:\n        /* \"#utility.yul\":12496:12499   */\n      0x00\n        /* \"#utility.yul\":12532:12536   */\n      0xa0\n        /* \"#utility.yul\":12527:12530   */\n      dup4\n        /* \"#utility.yul\":12523:12537   */\n      add\n        /* \"#utility.yul\":12626:12630   */\n      0x00\n        /* \"#utility.yul\":12619:12624   */\n      dup4\n        /* \"#utility.yul\":12615:12631   */\n      add\n        /* \"#utility.yul\":12609:12632   */\n      mload\n        /* \"#utility.yul\":12679:12682   */\n      dup5\n        /* \"#utility.yul\":12673:12677   */\n      dup3\n        /* \"#utility.yul\":12669:12683   */\n      sub\n        /* \"#utility.yul\":12662:12666   */\n      0x00\n        /* \"#utility.yul\":12657:12660   */\n      dup7\n        /* \"#utility.yul\":12653:12667   */\n      add\n        /* \"#utility.yul\":12646:12684   */\n      mstore\n        /* \"#utility.yul\":12705:12778   */\n      tag_513\n        /* \"#utility.yul\":12773:12777   */\n      dup3\n        /* \"#utility.yul\":12759:12771   */\n      dup3\n        /* \"#utility.yul\":12705:12778   */\n      tag_472\n      jump\t// in\n    tag_513:\n        /* \"#utility.yul\":12697:12778   */\n      swap2\n      pop\n        /* \"#utility.yul\":12547:12789   */\n      pop\n        /* \"#utility.yul\":12875:12879   */\n      0x20\n        /* \"#utility.yul\":12868:12873   */\n      dup4\n        /* \"#utility.yul\":12864:12880   */\n      add\n        /* \"#utility.yul\":12858:12881   */\n      mload\n        /* \"#utility.yul\":12928:12931   */\n      dup5\n        /* \"#utility.yul\":12922:12926   */\n      dup3\n        /* \"#utility.yul\":12918:12932   */\n      sub\n        /* \"#utility.yul\":12911:12915   */\n      0x20\n        /* \"#utility.yul\":12906:12909   */\n      dup7\n        /* \"#utility.yul\":12902:12916   */\n      add\n        /* \"#utility.yul\":12895:12933   */\n      mstore\n        /* \"#utility.yul\":12954:13027   */\n      tag_514\n        /* \"#utility.yul\":13022:13026   */\n      dup3\n        /* \"#utility.yul\":13008:13020   */\n      dup3\n        /* \"#utility.yul\":12954:13027   */\n      tag_472\n      jump\t// in\n    tag_514:\n        /* \"#utility.yul\":12946:13027   */\n      swap2\n      pop\n        /* \"#utility.yul\":12799:13038   */\n      pop\n        /* \"#utility.yul\":13125:13129   */\n      0x40\n        /* \"#utility.yul\":13118:13123   */\n      dup4\n        /* \"#utility.yul\":13114:13130   */\n      add\n        /* \"#utility.yul\":13108:13131   */\n      mload\n        /* \"#utility.yul\":13178:13181   */\n      dup5\n        /* \"#utility.yul\":13172:13176   */\n      dup3\n        /* \"#utility.yul\":13168:13182   */\n      sub\n        /* \"#utility.yul\":13161:13165   */\n      0x40\n        /* \"#utility.yul\":13156:13159   */\n      dup7\n        /* \"#utility.yul\":13152:13166   */\n      add\n        /* \"#utility.yul\":13145:13183   */\n      mstore\n        /* \"#utility.yul\":13204:13277   */\n      tag_515\n        /* \"#utility.yul\":13272:13276   */\n      dup3\n        /* \"#utility.yul\":13258:13270   */\n      dup3\n        /* \"#utility.yul\":13204:13277   */\n      tag_472\n      jump\t// in\n    tag_515:\n        /* \"#utility.yul\":13196:13277   */\n      swap2\n      pop\n        /* \"#utility.yul\":13048:13288   */\n      pop\n        /* \"#utility.yul\":13373:13377   */\n      0x60\n        /* \"#utility.yul\":13366:13371   */\n      dup4\n        /* \"#utility.yul\":13362:13378   */\n      add\n        /* \"#utility.yul\":13356:13379   */\n      mload\n        /* \"#utility.yul\":13426:13429   */\n      dup5\n        /* \"#utility.yul\":13420:13424   */\n      dup3\n        /* \"#utility.yul\":13416:13430   */\n      sub\n        /* \"#utility.yul\":13409:13413   */\n      0x60\n        /* \"#utility.yul\":13404:13407   */\n      dup7\n        /* \"#utility.yul\":13400:13414   */\n      add\n        /* \"#utility.yul\":13393:13431   */\n      mstore\n        /* \"#utility.yul\":13452:13525   */\n      tag_516\n        /* \"#utility.yul\":13520:13524   */\n      dup3\n        /* \"#utility.yul\":13506:13518   */\n      dup3\n        /* \"#utility.yul\":13452:13525   */\n      tag_472\n      jump\t// in\n    tag_516:\n        /* \"#utility.yul\":13444:13525   */\n      swap2\n      pop\n        /* \"#utility.yul\":13298:13536   */\n      pop\n        /* \"#utility.yul\":13621:13625   */\n      0x80\n        /* \"#utility.yul\":13614:13619   */\n      dup4\n        /* \"#utility.yul\":13610:13626   */\n      add\n        /* \"#utility.yul\":13604:13627   */\n      mload\n        /* \"#utility.yul\":13674:13677   */\n      dup5\n        /* \"#utility.yul\":13668:13672   */\n      dup3\n        /* \"#utility.yul\":13664:13678   */\n      sub\n        /* \"#utility.yul\":13657:13661   */\n      0x80\n        /* \"#utility.yul\":13652:13655   */\n      dup7\n        /* \"#utility.yul\":13648:13662   */\n      add\n        /* \"#utility.yul\":13641:13679   */\n      mstore\n        /* \"#utility.yul\":13700:13823   */\n      tag_517\n        /* \"#utility.yul\":13818:13822   */\n      dup3\n        /* \"#utility.yul\":13804:13816   */\n      dup3\n        /* \"#utility.yul\":13700:13823   */\n      tag_477\n      jump\t// in\n    tag_517:\n        /* \"#utility.yul\":13692:13823   */\n      swap2\n      pop\n        /* \"#utility.yul\":13546:13834   */\n      pop\n        /* \"#utility.yul\":13851:13855   */\n      dup1\n        /* \"#utility.yul\":13844:13855   */\n      swap2\n      pop\n        /* \"#utility.yul\":12501:13861   */\n      pop\n        /* \"#utility.yul\":12361:13861   */\n      swap3\n      swap2\n      pop\n      pop\n      jump\t// out\n        /* \"#utility.yul\":13925:15591   */\n    tag_518:\n        /* \"#utility.yul\":14042:14045   */\n      0x00\n        /* \"#utility.yul\":14078:14082   */\n      0xc0\n        /* \"#utility.yul\":14073:14076   */\n      dup4\n        /* \"#utility.yul\":14069:14083   */\n      add\n        /* \"#utility.yul\":14168:14172   */\n      0x00\n        /* \"#utility.yul\":14161:14166   */\n      dup4\n        /* \"#utility.yul\":14157:14173   */\n      add\n        /* \"#utility.yul\":14151:14174   */\n      mload\n        /* \"#utility.yul\":14221:14224   */\n      dup5\n        /* \"#utility.yul\":14215:14219   */\n      dup3\n        /* \"#utility.yul\":14211:14225   */\n      sub\n        /* \"#utility.yul\":14204:14208   */\n      0x00\n        /* \"#utility.yul\":14199:14202   */\n      dup7\n        /* \"#utility.yul\":14195:14209   */\n      add\n        /* \"#utility.yul\":14188:14226   */\n      mstore\n        /* \"#utility.yul\":14247:14320   */\n      tag_520\n        /* \"#utility.yul\":14315:14319   */\n      dup3\n        /* \"#utility.yul\":14301:14313   */\n      dup3\n        /* \"#utility.yul\":14247:14320   */\n      tag_472\n      jump\t// in\n    tag_520:\n        /* \"#utility.yul\":14239:14320   */\n      swap2\n      pop\n        /* \"#utility.yul\":14093:14331   */\n      pop\n        /* \"#utility.yul\":14414:14418   */\n      0x20\n        /* \"#utility.yul\":14407:14412   */\n      dup4\n        /* \"#utility.yul\":14403:14419   */\n      add\n        /* \"#utility.yul\":14397:14420   */\n      mload\n        /* \"#utility.yul\":14467:14470   */\n      dup5\n        /* \"#utility.yul\":14461:14465   */\n      dup3\n        /* \"#utility.yul\":14457:14471   */\n      sub\n        /* \"#utility.yul\":14450:14454   */\n      0x20\n        /* \"#utility.yul\":14445:14448   */\n      dup7\n        /* \"#utility.yul\":14441:14455   */\n      add\n        /* \"#utility.yul\":14434:14472   */\n      mstore\n        /* \"#utility.yul\":14493:14566   */\n      tag_521\n        /* \"#utility.yul\":14561:14565   */\n      dup3\n        /* \"#utility.yul\":14547:14559   */\n      dup3\n        /* \"#utility.yul\":14493:14566   */\n      tag_472\n      jump\t// in\n    tag_521:\n        /* \"#utility.yul\":14485:14566   */\n      swap2\n      pop\n        /* \"#utility.yul\":14341:14577   */\n      pop\n        /* \"#utility.yul\":14660:14664   */\n      0x40\n        /* \"#utility.yul\":14653:14658   */\n      dup4\n        /* \"#utility.yul\":14649:14665   */\n      add\n        /* \"#utility.yul\":14643:14666   */\n      mload\n        /* \"#utility.yul\":14713:14716   */\n      dup5\n        /* \"#utility.yul\":14707:14711   */\n      dup3\n        /* \"#utility.yul\":14703:14717   */\n      sub\n        /* \"#utility.yul\":14696:14700   */\n      0x40\n        /* \"#utility.yul\":14691:14694   */\n      dup7\n        /* \"#utility.yul\":14687:14701   */\n      add\n        /* \"#utility.yul\":14680:14718   */\n      mstore\n        /* \"#utility.yul\":14739:14812   */\n      tag_522\n        /* \"#utility.yul\":14807:14811   */\n      dup3\n        /* \"#utility.yul\":14793:14805   */\n      dup3\n        /* \"#utility.yul\":14739:14812   */\n      tag_472\n      jump\t// in\n    tag_522:\n        /* \"#utility.yul\":14731:14812   */\n      swap2\n      pop\n        /* \"#utility.yul\":14587:14823   */\n      pop\n        /* \"#utility.yul\":14907:14911   */\n      0x60\n        /* \"#utility.yul\":14900:14905   */\n      dup4\n        /* \"#utility.yul\":14896:14912   */\n      add\n        /* \"#utility.yul\":14890:14913   */\n      mload\n        /* \"#utility.yul\":14960:14963   */\n      dup5\n        /* \"#utility.yul\":14954:14958   */\n      dup3\n        /* \"#utility.yul\":14950:14964   */\n      sub\n        /* \"#utility.yul\":14943:14947   */\n      0x60\n        /* \"#utility.yul\":14938:14941   */\n      dup7\n        /* \"#utility.yul\":14934:14948   */\n      add\n        /* \"#utility.yul\":14927:14965   */\n      mstore\n        /* \"#utility.yul\":14986:15059   */\n      tag_523\n        /* \"#utility.yul\":15054:15058   */\n      dup3\n        /* \"#utility.yul\":15040:15052   */\n      dup3\n        /* \"#utility.yul\":14986:15059   */\n      tag_472\n      jump\t// in\n    tag_523:\n        /* \"#utility.yul\":14978:15059   */\n      swap2\n      pop\n        /* \"#utility.yul\":14833:15070   */\n      pop\n        /* \"#utility.yul\":15154:15158   */\n      0x80\n        /* \"#utility.yul\":15147:15152   */\n      dup4\n        /* \"#utility.yul\":15143:15159   */\n      add\n        /* \"#utility.yul\":15137:15160   */\n      mload\n        /* \"#utility.yul\":15207:15210   */\n      dup5\n        /* \"#utility.yul\":15201:15205   */\n      dup3\n        /* \"#utility.yul\":15197:15211   */\n      sub\n        /* \"#utility.yul\":15190:15194   */\n      0x80\n        /* \"#utility.yul\":15185:15188   */\n      dup7\n        /* \"#utility.yul\":15181:15195   */\n      add\n        /* \"#utility.yul\":15174:15212   */\n      mstore\n        /* \"#utility.yul\":15233:15306   */\n      tag_524\n        /* \"#utility.yul\":15301:15305   */\n      dup3\n        /* \"#utility.yul\":15287:15299   */\n      dup3\n        /* \"#utility.yul\":15233:15306   */\n      tag_472\n      jump\t// in\n    tag_524:\n        /* \"#utility.yul\":15225:15306   */\n      swap2\n      pop\n        /* \"#utility.yul\":15080:15317   */\n      pop\n        /* \"#utility.yul\":15401:15405   */\n      0xa0\n        /* \"#utility.yul\":15394:15399   */\n      dup4\n        /* \"#utility.yul\":15390:15406   */\n      add\n        /* \"#utility.yul\":15384:15407   */\n      mload\n        /* \"#utility.yul\":15454:15457   */\n      dup5\n        /* \"#utility.yul\":15448:15452   */\n      dup3\n        /* \"#utility.yul\":15444:15458   */\n      sub\n        /* \"#utility.yul\":15437:15441   */\n      0xa0\n        /* \"#utility.yul\":15432:15435   */\n      dup7\n        /* \"#utility.yul\":15428:15442   */\n      add\n        /* \"#utility.yul\":15421:15459   */\n      mstore\n        /* \"#utility.yul\":15480:15553   */\n      tag_525\n        /* \"#utility.yul\":15548:15552   */\n      dup3\n        /* \"#utility.yul\":15534:15546   */\n      dup3\n        /* \"#utility.yul\":15480:15553   */\n      tag_472\n      jump\t// in\n    tag_525:\n        /* \"#utility.yul\":15472:15553   */\n      swap2\n      pop\n        /* \"#utility.yul\":15327:15564   */\n      pop\n        /* \"#utility.yul\":15581:15585   */\n      dup1\n        /* \"#utility.yul\":15574:15585   */\n      swap2\n      pop\n        /* \"#utility.yul\":14047:15591   */\n      pop\n        /* \"#utility.yul\":13925:15591   */\n      swap3\n      swap2\n      pop\n      pop\n      jump\t// out\n        /* \"#utility.yul\":15677:16182   */\n    tag_526:\n        /* \"#utility.yul\":15816:15819   */\n      0x00\n        /* \"#utility.yul\":15852:15856   */\n      0x20\n        /* \"#utility.yul\":15847:15850   */\n      dup4\n        /* \"#utility.yul\":15843:15857   */\n      add\n        /* \"#utility.yul\":15942:15946   */\n      0x00\n        /* \"#utility.yul\":15935:15940   */\n      dup4\n        /* \"#utility.yul\":15931:15947   */\n      add\n        /* \"#utility.yul\":15925:15948   */\n      mload\n        /* \"#utility.yul\":15995:15998   */\n      dup5\n        /* \"#utility.yul\":15989:15993   */\n      dup3\n        /* \"#utility.yul\":15985:15999   */\n      sub\n        /* \"#utility.yul\":15978:15982   */\n      0x00\n        /* \"#utility.yul\":15973:15976   */\n      dup7\n        /* \"#utility.yul\":15969:15983   */\n      add\n        /* \"#utility.yul\":15962:16000   */\n      mstore\n        /* \"#utility.yul\":16021:16144   */\n      tag_528\n        /* \"#utility.yul\":16139:16143   */\n      dup3\n        /* \"#utility.yul\":16125:16137   */\n      dup3\n        /* \"#utility.yul\":16021:16144   */\n      tag_477\n      jump\t// in\n    tag_528:\n        /* \"#utility.yul\":16013:16144   */\n      swap2\n      pop\n        /* \"#utility.yul\":15867:16155   */\n      pop\n        /* \"#utility.yul\":16172:16176   */\n      dup1\n        /* \"#utility.yul\":16165:16176   */\n      swap2\n      pop\n        /* \"#utility.yul\":15821:16182   */\n      pop\n        /* \"#utility.yul\":15677:16182   */\n      swap3\n      swap2\n      pop\n      pop\n      jump\t// out\n        /* \"#utility.yul\":16252:18306   */\n    tag_529:\n        /* \"#utility.yul\":16375:16378   */\n      0x00\n        /* \"#utility.yul\":16411:16417   */\n      0x0100\n        /* \"#utility.yul\":16406:16409   */\n      dup4\n        /* \"#utility.yul\":16402:16418   */\n      add\n        /* \"#utility.yul\":16503:16507   */\n      0x00\n        /* \"#utility.yul\":16496:16501   */\n      dup4\n        /* \"#utility.yul\":16492:16508   */\n      add\n        /* \"#utility.yul\":16486:16509   */\n      mload\n        /* \"#utility.yul\":16556:16559   */\n      dup5\n        /* \"#utility.yul\":16550:16554   */\n      dup3\n        /* \"#utility.yul\":16546:16560   */\n      sub\n        /* \"#utility.yul\":16539:16543   */\n      0x00\n        /* \"#utility.yul\":16534:16537   */\n      dup7\n        /* \"#utility.yul\":16530:16544   */\n      add\n        /* \"#utility.yul\":16523:16561   */\n      mstore\n        /* \"#utility.yul\":16582:16655   */\n      tag_531\n        /* \"#utility.yul\":16650:16654   */\n      dup3\n        /* \"#utility.yul\":16636:16648   */\n      dup3\n        /* \"#utility.yul\":16582:16655   */\n      tag_472\n      jump\t// in\n    tag_531:\n        /* \"#utility.yul\":16574:16655   */\n      swap2\n      pop\n        /* \"#utility.yul\":16428:16666   */\n      pop\n        /* \"#utility.yul\":16752:16756   */\n      0x20\n        /* \"#utility.yul\":16745:16750   */\n      dup4\n        /* \"#utility.yul\":16741:16757   */\n      add\n        /* \"#utility.yul\":16735:16758   */\n      mload\n        /* \"#utility.yul\":16805:16808   */\n      dup5\n        /* \"#utility.yul\":16799:16803   */\n      dup3\n        /* \"#utility.yul\":16795:16809   */\n      sub\n        /* \"#utility.yul\":16788:16792   */\n      0x20\n        /* \"#utility.yul\":16783:16786   */\n      dup7\n        /* \"#utility.yul\":16779:16793   */\n      add\n        /* \"#utility.yul\":16772:16810   */\n      mstore\n        /* \"#utility.yul\":16831:16904   */\n      tag_532\n        /* \"#utility.yul\":16899:16903   */\n      dup3\n        /* \"#utility.yul\":16885:16897   */\n      dup3\n        /* \"#utility.yul\":16831:16904   */\n      tag_472\n      jump\t// in\n    tag_532:\n        /* \"#utility.yul\":16823:16904   */\n      swap2\n      pop\n        /* \"#utility.yul\":16676:16915   */\n      pop\n        /* \"#utility.yul\":17004:17008   */\n      0x40\n        /* \"#utility.yul\":16997:17002   */\n      dup4\n        /* \"#utility.yul\":16993:17009   */\n      add\n        /* \"#utility.yul\":16987:17010   */\n      mload\n        /* \"#utility.yul\":17023:17086   */\n      tag_533\n        /* \"#utility.yul\":17080:17084   */\n      0x40\n        /* \"#utility.yul\":17075:17078   */\n      dup7\n        /* \"#utility.yul\":17071:17085   */\n      add\n        /* \"#utility.yul\":17057:17069   */\n      dup3\n        /* \"#utility.yul\":17023:17086   */\n      tag_473\n      jump\t// in\n    tag_533:\n        /* \"#utility.yul\":16925:17096   */\n      pop\n        /* \"#utility.yul\":17183:17187   */\n      0x60\n        /* \"#utility.yul\":17176:17181   */\n      dup4\n        /* \"#utility.yul\":17172:17188   */\n      add\n        /* \"#utility.yul\":17166:17189   */\n      mload\n        /* \"#utility.yul\":17236:17239   */\n      dup5\n        /* \"#utility.yul\":17230:17234   */\n      dup3\n        /* \"#utility.yul\":17226:17240   */\n      sub\n        /* \"#utility.yul\":17219:17223   */\n      0x60\n        /* \"#utility.yul\":17214:17217   */\n      dup7\n        /* \"#utility.yul\":17210:17224   */\n      add\n        /* \"#utility.yul\":17203:17241   */\n      mstore\n        /* \"#utility.yul\":17262:17335   */\n      tag_534\n        /* \"#utility.yul\":17330:17334   */\n      dup3\n        /* \"#utility.yul\":17316:17328   */\n      dup3\n        /* \"#utility.yul\":17262:17335   */\n      tag_472\n      jump\t// in\n    tag_534:\n        /* \"#utility.yul\":17254:17335   */\n      swap2\n      pop\n        /* \"#utility.yul\":17106:17346   */\n      pop\n        /* \"#utility.yul\":17434:17438   */\n      0x80\n        /* \"#utility.yul\":17427:17432   */\n      dup4\n        /* \"#utility.yul\":17423:17439   */\n      add\n        /* \"#utility.yul\":17417:17440   */\n      mload\n        /* \"#utility.yul\":17487:17490   */\n      dup5\n        /* \"#utility.yul\":17481:17485   */\n      dup3\n        /* \"#utility.yul\":17477:17491   */\n      sub\n        /* \"#utility.yul\":17470:17474   */\n      0x80\n        /* \"#utility.yul\":17465:17468   */\n      dup7\n        /* \"#utility.yul\":17461:17475   */\n      add\n        /* \"#utility.yul\":17454:17492   */\n      mstore\n        /* \"#utility.yul\":17513:17586   */\n      tag_535\n        /* \"#utility.yul\":17581:17585   */\n      dup3\n        /* \"#utility.yul\":17567:17579   */\n      dup3\n        /* \"#utility.yul\":17513:17586   */\n      tag_472\n      jump\t// in\n    tag_535:\n        /* \"#utility.yul\":17505:17586   */\n      swap2\n      pop\n        /* \"#utility.yul\":17356:17597   */\n      pop\n        /* \"#utility.yul\":17683:17687   */\n      0xa0\n        /* \"#utility.yul\":17676:17681   */\n      dup4\n        /* \"#utility.yul\":17672:17688   */\n      add\n        /* \"#utility.yul\":17666:17689   */\n      mload\n        /* \"#utility.yul\":17736:17739   */\n      dup5\n        /* \"#utility.yul\":17730:17734   */\n      dup3\n        /* \"#utility.yul\":17726:17740   */\n      sub\n        /* \"#utility.yul\":17719:17723   */\n      0xa0\n        /* \"#utility.yul\":17714:17717   */\n      dup7\n        /* \"#utility.yul\":17710:17724   */\n      add\n        /* \"#utility.yul\":17703:17741   */\n      mstore\n        /* \"#utility.yul\":17762:17835   */\n      tag_536\n        /* \"#utility.yul\":17830:17834   */\n      dup3\n        /* \"#utility.yul\":17816:17828   */\n      dup3\n        /* \"#utility.yul\":17762:17835   */\n      tag_472\n      jump\t// in\n    tag_536:\n        /* \"#utility.yul\":17754:17835   */\n      swap2\n      pop\n        /* \"#utility.yul\":17607:17846   */\n      pop\n        /* \"#utility.yul\":17936:17940   */\n      0xc0\n        /* \"#utility.yul\":17929:17934   */\n      dup4\n        /* \"#utility.yul\":17925:17941   */\n      add\n        /* \"#utility.yul\":17919:17942   */\n      mload\n        /* \"#utility.yul\":17989:17992   */\n      dup5\n        /* \"#utility.yul\":17983:17987   */\n      dup3\n        /* \"#utility.yul\":17979:17993   */\n      sub\n        /* \"#utility.yul\":17972:17976   */\n      0xc0\n        /* \"#utility.yul\":17967:17970   */\n      dup7\n        /* \"#utility.yul\":17963:17977   */\n      add\n        /* \"#utility.yul\":17956:17994   */\n      mstore\n        /* \"#utility.yul\":18015:18088   */\n      tag_537\n        /* \"#utility.yul\":18083:18087   */\n      dup3\n        /* \"#utility.yul\":18069:18081   */\n      dup3\n        /* \"#utility.yul\":18015:18088   */\n      tag_472\n      jump\t// in\n    tag_537:\n        /* \"#utility.yul\":18007:18088   */\n      swap2\n      pop\n        /* \"#utility.yul\":17856:18099   */\n      pop\n        /* \"#utility.yul\":18187:18191   */\n      0xe0\n        /* \"#utility.yul\":18180:18185   */\n      dup4\n        /* \"#utility.yul\":18176:18192   */\n      add\n        /* \"#utility.yul\":18170:18193   */\n      mload\n        /* \"#utility.yul\":18206:18269   */\n      tag_538\n        /* \"#utility.yul\":18263:18267   */\n      0xe0\n        /* \"#utility.yul\":18258:18261   */\n      dup7\n        /* \"#utility.yul\":18254:18268   */\n      add\n        /* \"#utility.yul\":18240:18252   */\n      dup3\n        /* \"#utility.yul\":18206:18269   */\n      tag_539\n      jump\t// in\n    tag_538:\n        /* \"#utility.yul\":18109:18279   */\n      pop\n        /* \"#utility.yul\":18296:18300   */\n      dup1\n        /* \"#utility.yul\":18289:18300   */\n      swap2\n      pop\n        /* \"#utility.yul\":16380:18306   */\n      pop\n        /* \"#utility.yul\":16252:18306   */\n      swap3\n      swap2\n      pop\n      pop\n      jump\t// out\n        /* \"#utility.yul\":18364:19461   */\n    tag_540:\n        /* \"#utility.yul\":18475:18478   */\n      0x00\n        /* \"#utility.yul\":18511:18515   */\n      0x60\n        /* \"#utility.yul\":18506:18509   */\n      dup4\n        /* \"#utility.yul\":18502:18516   */\n      add\n        /* \"#utility.yul\":18614:18618   */\n      0x00\n        /* \"#utility.yul\":18607:18612   */\n      dup4\n        /* \"#utility.yul\":18603:18619   */\n      add\n        /* \"#utility.yul\":18597:18620   */\n      mload\n        /* \"#utility.yul\":18667:18670   */\n      dup5\n        /* \"#utility.yul\":18661:18665   */\n      dup3\n        /* \"#utility.yul\":18657:18671   */\n      sub\n        /* \"#utility.yul\":18650:18654   */\n      0x00\n        /* \"#utility.yul\":18645:18648   */\n      dup7\n        /* \"#utility.yul\":18641:18655   */\n      add\n        /* \"#utility.yul\":18634:18672   */\n      mstore\n        /* \"#utility.yul\":18693:18816   */\n      tag_542\n        /* \"#utility.yul\":18811:18815   */\n      dup3\n        /* \"#utility.yul\":18797:18809   */\n      dup3\n        /* \"#utility.yul\":18693:18816   */\n      tag_477\n      jump\t// in\n    tag_542:\n        /* \"#utility.yul\":18685:18816   */\n      swap2\n      pop\n        /* \"#utility.yul\":18526:18827   */\n      pop\n        /* \"#utility.yul\":18914:18918   */\n      0x20\n        /* \"#utility.yul\":18907:18912   */\n      dup4\n        /* \"#utility.yul\":18903:18919   */\n      add\n        /* \"#utility.yul\":18897:18920   */\n      mload\n        /* \"#utility.yul\":18967:18970   */\n      dup5\n        /* \"#utility.yul\":18961:18965   */\n      dup3\n        /* \"#utility.yul\":18957:18971   */\n      sub\n        /* \"#utility.yul\":18950:18954   */\n      0x20\n        /* \"#utility.yul\":18945:18948   */\n      dup7\n        /* \"#utility.yul\":18941:18955   */\n      add\n        /* \"#utility.yul\":18934:18972   */\n      mstore\n        /* \"#utility.yul\":18993:19116   */\n      tag_543\n        /* \"#utility.yul\":19111:19115   */\n      dup3\n        /* \"#utility.yul\":19097:19109   */\n      dup3\n        /* \"#utility.yul\":18993:19116   */\n      tag_477\n      jump\t// in\n    tag_543:\n        /* \"#utility.yul\":18985:19116   */\n      swap2\n      pop\n        /* \"#utility.yul\":18837:19127   */\n      pop\n        /* \"#utility.yul\":19221:19225   */\n      0x40\n        /* \"#utility.yul\":19214:19219   */\n      dup4\n        /* \"#utility.yul\":19210:19226   */\n      add\n        /* \"#utility.yul\":19204:19227   */\n      mload\n        /* \"#utility.yul\":19274:19277   */\n      dup5\n        /* \"#utility.yul\":19268:19272   */\n      dup3\n        /* \"#utility.yul\":19264:19278   */\n      sub\n        /* \"#utility.yul\":19257:19261   */\n      0x40\n        /* \"#utility.yul\":19252:19255   */\n      dup7\n        /* \"#utility.yul\":19248:19262   */\n      add\n        /* \"#utility.yul\":19241:19279   */\n      mstore\n        /* \"#utility.yul\":19300:19423   */\n      tag_544\n        /* \"#utility.yul\":19418:19422   */\n      dup3\n        /* \"#utility.yul\":19404:19416   */\n      dup3\n        /* \"#utility.yul\":19300:19423   */\n      tag_477\n      jump\t// in\n    tag_544:\n        /* \"#utility.yul\":19292:19423   */\n      swap2\n      pop\n        /* \"#utility.yul\":19137:19434   */\n      pop\n        /* \"#utility.yul\":19451:19455   */\n      dup1\n        /* \"#utility.yul\":19444:19455   */\n      swap2\n      pop\n        /* \"#utility.yul\":18480:19461   */\n      pop\n        /* \"#utility.yul\":18364:19461   */\n      swap3\n      swap2\n      pop\n      pop\n      jump\t// out\n        /* \"#utility.yul\":19467:19575   */\n    tag_539:\n        /* \"#utility.yul\":19544:19568   */\n      tag_546\n        /* \"#utility.yul\":19562:19567   */\n      dup2\n        /* \"#utility.yul\":19544:19568   */\n      tag_547\n      jump\t// in\n    tag_546:\n        /* \"#utility.yul\":19539:19542   */\n      dup3\n        /* \"#utility.yul\":19532:19569   */\n      mstore\n        /* \"#utility.yul\":19467:19575   */\n      pop\n      pop\n      jump\t// out\n        /* \"#utility.yul\":19581:19699   */\n    tag_548:\n        /* \"#utility.yul\":19668:19692   */\n      tag_550\n        /* \"#utility.yul\":19686:19691   */\n      dup2\n        /* \"#utility.yul\":19668:19692   */\n      tag_547\n      jump\t// in\n    tag_550:\n        /* \"#utility.yul\":19663:19666   */\n      dup3\n        /* \"#utility.yul\":19656:19693   */\n      mstore\n        /* \"#utility.yul\":19581:19699   */\n      pop\n      pop\n      jump\t// out\n        /* \"#utility.yul\":19705:20824   */\n    tag_56:\n        /* \"#utility.yul\":20010:20014   */\n      0x00\n        /* \"#utility.yul\":20048:20051   */\n      0xa0\n        /* \"#utility.yul\":20037:20046   */\n      dup3\n        /* \"#utility.yul\":20033:20052   */\n      add\n        /* \"#utility.yul\":20025:20052   */\n      swap1\n      pop\n        /* \"#utility.yul\":20098:20107   */\n      dup2\n        /* \"#utility.yul\":20092:20096   */\n      dup2\n        /* \"#utility.yul\":20088:20108   */\n      sub\n        /* \"#utility.yul\":20084:20085   */\n      0x00\n        /* \"#utility.yul\":20073:20082   */\n      dup4\n        /* \"#utility.yul\":20069:20086   */\n      add\n        /* \"#utility.yul\":20062:20109   */\n      mstore\n        /* \"#utility.yul\":20126:20204   */\n      tag_552\n        /* \"#utility.yul\":20199:20203   */\n      dup2\n        /* \"#utility.yul\":20190:20196   */\n      dup9\n        /* \"#utility.yul\":20126:20204   */\n      tag_500\n      jump\t// in\n    tag_552:\n        /* \"#utility.yul\":20118:20204   */\n      swap1\n      pop\n        /* \"#utility.yul\":20251:20260   */\n      dup2\n        /* \"#utility.yul\":20245:20249   */\n      dup2\n        /* \"#utility.yul\":20241:20261   */\n      sub\n        /* \"#utility.yul\":20236:20238   */\n      0x20\n        /* \"#utility.yul\":20225:20234   */\n      dup4\n        /* \"#utility.yul\":20221:20239   */\n      add\n        /* \"#utility.yul\":20214:20262   */\n      mstore\n        /* \"#utility.yul\":20279:20357   */\n      tag_553\n        /* \"#utility.yul\":20352:20356   */\n      dup2\n        /* \"#utility.yul\":20343:20349   */\n      dup8\n        /* \"#utility.yul\":20279:20357   */\n      tag_500\n      jump\t// in\n    tag_553:\n        /* \"#utility.yul\":20271:20357   */\n      swap1\n      pop\n        /* \"#utility.yul\":20404:20413   */\n      dup2\n        /* \"#utility.yul\":20398:20402   */\n      dup2\n        /* \"#utility.yul\":20394:20414   */\n      sub\n        /* \"#utility.yul\":20389:20391   */\n      0x40\n        /* \"#utility.yul\":20378:20387   */\n      dup4\n        /* \"#utility.yul\":20374:20392   */\n      add\n        /* \"#utility.yul\":20367:20415   */\n      mstore\n        /* \"#utility.yul\":20432:20510   */\n      tag_554\n        /* \"#utility.yul\":20505:20509   */\n      dup2\n        /* \"#utility.yul\":20496:20502   */\n      dup7\n        /* \"#utility.yul\":20432:20510   */\n      tag_500\n      jump\t// in\n    tag_554:\n        /* \"#utility.yul\":20424:20510   */\n      swap1\n      pop\n        /* \"#utility.yul\":20557:20566   */\n      dup2\n        /* \"#utility.yul\":20551:20555   */\n      dup2\n        /* \"#utility.yul\":20547:20567   */\n      sub\n        /* \"#utility.yul\":20542:20544   */\n      0x60\n        /* \"#utility.yul\":20531:20540   */\n      dup4\n        /* \"#utility.yul\":20527:20545   */\n      add\n        /* \"#utility.yul\":20520:20568   */\n      mstore\n        /* \"#utility.yul\":20585:20663   */\n      tag_555\n        /* \"#utility.yul\":20658:20662   */\n      dup2\n        /* \"#utility.yul\":20649:20655   */\n      dup6\n        /* \"#utility.yul\":20585:20663   */\n      tag_500\n      jump\t// in\n    tag_555:\n        /* \"#utility.yul\":20577:20663   */\n      swap1\n      pop\n        /* \"#utility.yul\":20711:20720   */\n      dup2\n        /* \"#utility.yul\":20705:20709   */\n      dup2\n        /* \"#utility.yul\":20701:20721   */\n      sub\n        /* \"#utility.yul\":20695:20698   */\n      0x80\n        /* \"#utility.yul\":20684:20693   */\n      dup4\n        /* \"#utility.yul\":20680:20699   */\n      add\n        /* \"#utility.yul\":20673:20722   */\n      mstore\n        /* \"#utility.yul\":20739:20817   */\n      tag_556\n        /* \"#utility.yul\":20812:20816   */\n      dup2\n        /* \"#utility.yul\":20803:20809   */\n      dup5\n        /* \"#utility.yul\":20739:20817   */\n      tag_500\n      jump\t// in\n    tag_556:\n        /* \"#utility.yul\":20731:20817   */\n      swap1\n      pop\n        /* \"#utility.yul\":19705:20824   */\n      swap7\n      swap6\n      pop\n      pop\n      pop\n      pop\n      pop\n      pop\n      jump\t// out\n        /* \"#utility.yul\":20830:22615   */\n    tag_48:\n        /* \"#utility.yul\":21415:21419   */\n      0x00\n        /* \"#utility.yul\":21453:21456   */\n      0xc0\n        /* \"#utility.yul\":21442:21451   */\n      dup3\n        /* \"#utility.yul\":21438:21457   */\n      add\n        /* \"#utility.yul\":21430:21457   */\n      swap1\n      pop\n        /* \"#utility.yul\":21503:21512   */\n      dup2\n        /* \"#utility.yul\":21497:21501   */\n      dup2\n        /* \"#utility.yul\":21493:21513   */\n      sub\n        /* \"#utility.yul\":21489:21490   */\n      0x00\n        /* \"#utility.yul\":21478:21487   */\n      dup4\n        /* \"#utility.yul\":21474:21491   */\n      add\n        /* \"#utility.yul\":21467:21514   */\n      mstore\n        /* \"#utility.yul\":21531:21643   */\n      tag_558\n        /* \"#utility.yul\":21638:21642   */\n      dup2\n        /* \"#utility.yul\":21629:21635   */\n      dup10\n        /* \"#utility.yul\":21531:21643   */\n      tag_529\n      jump\t// in\n    tag_558:\n        /* \"#utility.yul\":21523:21643   */\n      swap1\n      pop\n        /* \"#utility.yul\":21690:21699   */\n      dup2\n        /* \"#utility.yul\":21684:21688   */\n      dup2\n        /* \"#utility.yul\":21680:21700   */\n      sub\n        /* \"#utility.yul\":21675:21677   */\n      0x20\n        /* \"#utility.yul\":21664:21673   */\n      dup4\n        /* \"#utility.yul\":21660:21678   */\n      add\n        /* \"#utility.yul\":21653:21701   */\n      mstore\n        /* \"#utility.yul\":21718:21824   */\n      tag_559\n        /* \"#utility.yul\":21819:21823   */\n      dup2\n        /* \"#utility.yul\":21810:21816   */\n      dup9\n        /* \"#utility.yul\":21718:21824   */\n      tag_518\n      jump\t// in\n    tag_559:\n        /* \"#utility.yul\":21710:21824   */\n      swap1\n      pop\n        /* \"#utility.yul\":21871:21880   */\n      dup2\n        /* \"#utility.yul\":21865:21869   */\n      dup2\n        /* \"#utility.yul\":21861:21881   */\n      sub\n        /* \"#utility.yul\":21856:21858   */\n      0x40\n        /* \"#utility.yul\":21845:21854   */\n      dup4\n        /* \"#utility.yul\":21841:21859   */\n      add\n        /* \"#utility.yul\":21834:21882   */\n      mstore\n        /* \"#utility.yul\":21899:21999   */\n      tag_560\n        /* \"#utility.yul\":21994:21998   */\n      dup2\n        /* \"#utility.yul\":21985:21991   */\n      dup8\n        /* \"#utility.yul\":21899:21999   */\n      tag_540\n      jump\t// in\n    tag_560:\n        /* \"#utility.yul\":21891:21999   */\n      swap1\n      pop\n        /* \"#utility.yul\":22046:22055   */\n      dup2\n        /* \"#utility.yul\":22040:22044   */\n      dup2\n        /* \"#utility.yul\":22036:22056   */\n      sub\n        /* \"#utility.yul\":22031:22033   */\n      0x60\n        /* \"#utility.yul\":22020:22029   */\n      dup4\n        /* \"#utility.yul\":22016:22034   */\n      add\n        /* \"#utility.yul\":22009:22057   */\n      mstore\n        /* \"#utility.yul\":22074:22204   */\n      tag_561\n        /* \"#utility.yul\":22199:22203   */\n      dup2\n        /* \"#utility.yul\":22190:22196   */\n      dup7\n        /* \"#utility.yul\":22074:22204   */\n      tag_507\n      jump\t// in\n    tag_561:\n        /* \"#utility.yul\":22066:22204   */\n      swap1\n      pop\n        /* \"#utility.yul\":22252:22261   */\n      dup2\n        /* \"#utility.yul\":22246:22250   */\n      dup2\n        /* \"#utility.yul\":22242:22262   */\n      sub\n        /* \"#utility.yul\":22236:22239   */\n      0x80\n        /* \"#utility.yul\":22225:22234   */\n      dup4\n        /* \"#utility.yul\":22221:22240   */\n      add\n        /* \"#utility.yul\":22214:22263   */\n      mstore\n        /* \"#utility.yul\":22280:22404   */\n      tag_562\n        /* \"#utility.yul\":22399:22403   */\n      dup2\n        /* \"#utility.yul\":22390:22396   */\n      dup6\n        /* \"#utility.yul\":22280:22404   */\n      tag_511\n      jump\t// in\n    tag_562:\n        /* \"#utility.yul\":22272:22404   */\n      swap1\n      pop\n        /* \"#utility.yul\":22452:22461   */\n      dup2\n        /* \"#utility.yul\":22446:22450   */\n      dup2\n        /* \"#utility.yul\":22442:22462   */\n      sub\n        /* \"#utility.yul\":22436:22439   */\n      0xa0\n        /* \"#utility.yul\":22425:22434   */\n      dup4\n        /* \"#utility.yul\":22421:22440   */\n      add\n        /* \"#utility.yul\":22414:22463   */\n      mstore\n        /* \"#utility.yul\":22480:22608   */\n      tag_563\n        /* \"#utility.yul\":22603:22607   */\n      dup2\n        /* \"#utility.yul\":22594:22600   */\n      dup5\n        /* \"#utility.yul\":22480:22608   */\n      tag_526\n      jump\t// in\n    tag_563:\n        /* \"#utility.yul\":22472:22608   */\n      swap1\n      pop\n        /* \"#utility.yul\":20830:22615   */\n      swap8\n      swap7\n      pop\n      pop\n      pop\n      pop\n      pop\n      pop\n      pop\n      jump\t// out\n        /* \"#utility.yul\":22621:22843   */\n    tag_25:\n        /* \"#utility.yul\":22714:22718   */\n      0x00\n        /* \"#utility.yul\":22752:22754   */\n      0x20\n        /* \"#utility.yul\":22741:22750   */\n      dup3\n        /* \"#utility.yul\":22737:22755   */\n      add\n        /* \"#utility.yul\":22729:22755   */\n      swap1\n      pop\n        /* \"#utility.yul\":22765:22836   */\n      tag_565\n        /* \"#utility.yul\":22833:22834   */\n      0x00\n        /* \"#utility.yul\":22822:22831   */\n      dup4\n        /* \"#utility.yul\":22818:22835   */\n      add\n        /* \"#utility.yul\":22809:22815   */\n      dup5\n        /* \"#utility.yul\":22765:22836   */\n      tag_548\n      jump\t// in\n    tag_565:\n        /* \"#utility.yul\":22621:22843   */\n      swap3\n      swap2\n      pop\n      pop\n      jump\t// out\n        /* \"#utility.yul\":22849:22978   */\n    tag_360:\n        /* \"#utility.yul\":22883:22889   */\n      0x00\n        /* \"#utility.yul\":22910:22930   */\n      tag_567\n      tag_568\n      jump\t// in\n    tag_567:\n        /* \"#utility.yul\":22900:22930   */\n      swap1\n      pop\n        /* \"#utility.yul\":22939:22972   */\n      tag_569\n        /* \"#utility.yul\":22967:22971   */\n      dup3\n        /* \"#utility.yul\":22959:22965   */\n      dup3\n        /* \"#utility.yul\":22939:22972   */\n      tag_570\n      jump\t// in\n    tag_569:\n        /* \"#utility.yul\":22849:22978   */\n      swap2\n      swap1\n      pop\n      jump\t// out\n        /* \"#utility.yul\":22984:23059   */\n    tag_568:\n        /* \"#utility.yul\":23017:23023   */\n      0x00\n        /* \"#utility.yul\":23050:23052   */\n      0x40\n        /* \"#utility.yul\":23044:23053   */\n      mload\n        /* \"#utility.yul\":23034:23053   */\n      swap1\n      pop\n        /* \"#utility.yul\":22984:23059   */\n      swap1\n      jump\t// out\n        /* \"#utility.yul\":23065:23386   */\n    tag_359:\n        /* \"#utility.yul\":23152:23156   */\n      0x00\n        /* \"#utility.yul\":23242:23260   */\n      0xffffffffffffffff\n        /* \"#utility.yul\":23234:23240   */\n      dup3\n        /* \"#utility.yul\":23231:23261   */\n      gt\n        /* \"#utility.yul\":23228:23284   */\n      iszero\n      tag_573\n      jumpi\n        /* \"#utility.yul\":23264:23282   */\n      tag_574\n      tag_575\n      jump\t// in\n    tag_574:\n        /* \"#utility.yul\":23228:23284   */\n    tag_573:\n        /* \"#utility.yul\":23314:23318   */\n      0x20\n        /* \"#utility.yul\":23306:23312   */\n      dup3\n        /* \"#utility.yul\":23302:23319   */\n      mul\n        /* \"#utility.yul\":23294:23319   */\n      swap1\n      pop\n        /* \"#utility.yul\":23374:23378   */\n      0x20\n        /* \"#utility.yul\":23368:23372   */\n      dup2\n        /* \"#utility.yul\":23364:23379   */\n      add\n        /* \"#utility.yul\":23356:23379   */\n      swap1\n      pop\n        /* \"#utility.yul\":23065:23386   */\n      swap2\n      swap1\n      pop\n      jump\t// out\n        /* \"#utility.yul\":23392:23700   */\n    tag_376:\n        /* \"#utility.yul\":23454:23458   */\n      0x00\n        /* \"#utility.yul\":23544:23562   */\n      0xffffffffffffffff\n        /* \"#utility.yul\":23536:23542   */\n      dup3\n        /* \"#utility.yul\":23533:23563   */\n      gt\n        /* \"#utility.yul\":23530:23586   */\n      iszero\n      tag_577\n      jumpi\n        /* \"#utility.yul\":23566:23584   */\n      tag_578\n      tag_575\n      jump\t// in\n    tag_578:\n        /* \"#utility.yul\":23530:23586   */\n    tag_577:\n        /* \"#utility.yul\":23604:23633   */\n      tag_579\n        /* \"#utility.yul\":23626:23632   */\n      dup3\n        /* \"#utility.yul\":23604:23633   */\n      tag_499\n      jump\t// in\n    tag_579:\n        /* \"#utility.yul\":23596:23633   */\n      swap1\n      pop\n        /* \"#utility.yul\":23688:23692   */\n      0x20\n        /* \"#utility.yul\":23682:23686   */\n      dup2\n        /* \"#utility.yul\":23678:23693   */\n      add\n        /* \"#utility.yul\":23670:23693   */\n      swap1\n      pop\n        /* \"#utility.yul\":23392:23700   */\n      swap2\n      swap1\n      pop\n      jump\t// out\n        /* \"#utility.yul\":23706:23848   */\n    tag_484:\n        /* \"#utility.yul\":23783:23787   */\n      0x00\n        /* \"#utility.yul\":23806:23809   */\n      dup2\n        /* \"#utility.yul\":23798:23809   */\n      swap1\n      pop\n        /* \"#utility.yul\":23836:23840   */\n      0x20\n        /* \"#utility.yul\":23831:23834   */\n      dup3\n        /* \"#utility.yul\":23827:23841   */\n      add\n        /* \"#utility.yul\":23819:23841   */\n      swap1\n      pop\n        /* \"#utility.yul\":23706:23848   */\n      swap2\n      swap1\n      pop\n      jump\t// out\n        /* \"#utility.yul\":23854:23978   */\n    tag_480:\n        /* \"#utility.yul\":23931:23937   */\n      0x00\n        /* \"#utility.yul\":23965:23970   */\n      dup2\n        /* \"#utility.yul\":23959:23971   */\n      mload\n        /* \"#utility.yul\":23949:23971   */\n      swap1\n      pop\n        /* \"#utility.yul\":23854:23978   */\n      swap2\n      swap1\n      pop\n      jump\t// out\n        /* \"#utility.yul\":23984:24083   */\n    tag_493:\n        /* \"#utility.yul\":24036:24042   */\n      0x00\n        /* \"#utility.yul\":24070:24075   */\n      dup2\n        /* \"#utility.yul\":24064:24076   */\n      mload\n        /* \"#utility.yul\":24054:24076   */\n      swap1\n      pop\n        /* \"#utility.yul\":23984:24083   */\n      swap2\n      swap1\n      pop\n      jump\t// out\n        /* \"#utility.yul\":24089:24212   */\n    tag_490:\n        /* \"#utility.yul\":24169:24173   */\n      0x00\n        /* \"#utility.yul\":24201:24205   */\n      0x20\n        /* \"#utility.yul\":24196:24199   */\n      dup3\n        /* \"#utility.yul\":24192:24206   */\n      add\n        /* \"#utility.yul\":24184:24206   */\n      swap1\n      pop\n        /* \"#utility.yul\":24089:24212   */\n      swap2\n      swap1\n      pop\n      jump\t// out\n        /* \"#utility.yul\":24218:24402   */\n    tag_482:\n        /* \"#utility.yul\":24317:24328   */\n      0x00\n        /* \"#utility.yul\":24351:24357   */\n      dup3\n        /* \"#utility.yul\":24346:24349   */\n      dup3\n        /* \"#utility.yul\":24339:24358   */\n      mstore\n        /* \"#utility.yul\":24391:24395   */\n      0x20\n        /* \"#utility.yul\":24386:24389   */\n      dup3\n        /* \"#utility.yul\":24382:24396   */\n      add\n        /* \"#utility.yul\":24367:24396   */\n      swap1\n      pop\n        /* \"#utility.yul\":24218:24402   */\n      swap3\n      swap2\n      pop\n      pop\n      jump\t// out\n        /* \"#utility.yul\":24408:24567   */\n    tag_495:\n        /* \"#utility.yul\":24482:24493   */\n      0x00\n        /* \"#utility.yul\":24516:24522   */\n      dup3\n        /* \"#utility.yul\":24511:24514   */\n      dup3\n        /* \"#utility.yul\":24504:24523   */\n      mstore\n        /* \"#utility.yul\":24556:24560   */\n      0x20\n        /* \"#utility.yul\":24551:24554   */\n      dup3\n        /* \"#utility.yul\":24547:24561   */\n      add\n        /* \"#utility.yul\":24532:24561   */\n      swap1\n      pop\n        /* \"#utility.yul\":24408:24567   */\n      swap3\n      swap2\n      pop\n      pop\n      jump\t// out\n        /* \"#utility.yul\":24573:24742   */\n    tag_504:\n        /* \"#utility.yul\":24657:24668   */\n      0x00\n        /* \"#utility.yul\":24691:24697   */\n      dup3\n        /* \"#utility.yul\":24686:24689   */\n      dup3\n        /* \"#utility.yul\":24679:24698   */\n      mstore\n        /* \"#utility.yul\":24731:24735   */\n      0x20\n        /* \"#utility.yul\":24726:24729   */\n      dup3\n        /* \"#utility.yul\":24722:24736   */\n      add\n        /* \"#utility.yul\":24707:24736   */\n      swap1\n      pop\n        /* \"#utility.yul\":24573:24742   */\n      swap3\n      swap2\n      pop\n      pop\n      jump\t// out\n        /* \"#utility.yul\":24748:24844   */\n    tag_476:\n        /* \"#utility.yul\":24785:24792   */\n      0x00\n        /* \"#utility.yul\":24814:24838   */\n      tag_588\n        /* \"#utility.yul\":24832:24837   */\n      dup3\n        /* \"#utility.yul\":24814:24838   */\n      tag_589\n      jump\t// in\n    tag_588:\n        /* \"#utility.yul\":24803:24838   */\n      swap1\n      pop\n        /* \"#utility.yul\":24748:24844   */\n      swap2\n      swap1\n      pop\n      jump\t// out\n        /* \"#utility.yul\":24850:24976   */\n    tag_589:\n        /* \"#utility.yul\":24887:24894   */\n      0x00\n        /* \"#utility.yul\":24927:24969   */\n      0xffffffffffffffffffffffffffffffffffffffff\n        /* \"#utility.yul\":24920:24925   */\n      dup3\n        /* \"#utility.yul\":24916:24970   */\n      and\n        /* \"#utility.yul\":24905:24970   */\n      swap1\n      pop\n        /* \"#utility.yul\":24850:24976   */\n      swap2\n      swap1\n      pop\n      jump\t// out\n        /* \"#utility.yul\":24982:25059   */\n    tag_547:\n        /* \"#utility.yul\":25019:25026   */\n      0x00\n        /* \"#utility.yul\":25048:25053   */\n      dup2\n        /* \"#utility.yul\":25037:25053   */\n      swap1\n      pop\n        /* \"#utility.yul\":24982:25059   */\n      swap2\n      swap1\n      pop\n      jump\t// out\n        /* \"#utility.yul\":25065:25219   */\n    tag_381:\n        /* \"#utility.yul\":25149:25155   */\n      dup3\n        /* \"#utility.yul\":25144:25147   */\n      dup2\n        /* \"#utility.yul\":25139:25142   */\n      dup4\n        /* \"#utility.yul\":25126:25156   */\n      calldatacopy\n        /* \"#utility.yul\":25211:25212   */\n      0x00\n        /* \"#utility.yul\":25202:25208   */\n      dup4\n        /* \"#utility.yul\":25197:25200   */\n      dup4\n        /* \"#utility.yul\":25193:25209   */\n      add\n        /* \"#utility.yul\":25186:25213   */\n      mstore\n        /* \"#utility.yul\":25065:25219   */\n      pop\n      pop\n      pop\n      jump\t// out\n        /* \"#utility.yul\":25225:25532   */\n    tag_497:\n        /* \"#utility.yul\":25293:25294   */\n      0x00\n        /* \"#utility.yul\":25303:25416   */\n    tag_594:\n        /* \"#utility.yul\":25317:25323   */\n      dup4\n        /* \"#utility.yul\":25314:25315   */\n      dup2\n        /* \"#utility.yul\":25311:25324   */\n      lt\n        /* \"#utility.yul\":25303:25416   */\n      iszero\n      tag_596\n      jumpi\n        /* \"#utility.yul\":25402:25403   */\n      dup1\n        /* \"#utility.yul\":25397:25400   */\n      dup3\n        /* \"#utility.yul\":25393:25404   */\n      add\n        /* \"#utility.yul\":25387:25405   */\n      mload\n        /* \"#utility.yul\":25383:25384   */\n      dup2\n        /* \"#utility.yul\":25378:25381   */\n      dup5\n        /* \"#utility.yul\":25374:25385   */\n      add\n        /* \"#utility.yul\":25367:25406   */\n      mstore\n        /* \"#utility.yul\":25339:25341   */\n      0x20\n        /* \"#utility.yul\":25336:25337   */\n      dup2\n        /* \"#utility.yul\":25332:25342   */\n      add\n        /* \"#utility.yul\":25327:25342   */\n      swap1\n      pop\n        /* \"#utility.yul\":25303:25416   */\n      jump(tag_594)\n    tag_596:\n        /* \"#utility.yul\":25434:25440   */\n      dup4\n        /* \"#utility.yul\":25431:25432   */\n      dup2\n        /* \"#utility.yul\":25428:25441   */\n      gt\n        /* \"#utility.yul\":25425:25526   */\n      iszero\n      tag_597\n      jumpi\n        /* \"#utility.yul\":25514:25515   */\n      0x00\n        /* \"#utility.yul\":25505:25511   */\n      dup5\n        /* \"#utility.yul\":25500:25503   */\n      dup5\n        /* \"#utility.yul\":25496:25512   */\n      add\n        /* \"#utility.yul\":25489:25516   */\n      mstore\n        /* \"#utility.yul\":25425:25526   */\n    tag_597:\n        /* \"#utility.yul\":25274:25532   */\n      pop\n        /* \"#utility.yul\":25225:25532   */\n      pop\n      pop\n      pop\n      jump\t// out\n        /* \"#utility.yul\":25538:25858   */\n    tag_113:\n        /* \"#utility.yul\":25582:25588   */\n      0x00\n        /* \"#utility.yul\":25619:25620   */\n      0x02\n        /* \"#utility.yul\":25613:25617   */\n      dup3\n        /* \"#utility.yul\":25609:25621   */\n      div\n        /* \"#utility.yul\":25599:25621   */\n      swap1\n      pop\n        /* \"#utility.yul\":25666:25667   */\n      0x01\n        /* \"#utility.yul\":25660:25664   */\n      dup3\n        /* \"#utility.yul\":25656:25668   */\n      and\n        /* \"#utility.yul\":25687:25705   */\n      dup1\n        /* \"#utility.yul\":25677:25758   */\n      tag_599\n      jumpi\n        /* \"#utility.yul\":25743:25747   */\n      0x7f\n        /* \"#utility.yul\":25735:25741   */\n      dup3\n        /* \"#utility.yul\":25731:25748   */\n      and\n        /* \"#utility.yul\":25721:25748   */\n      swap2\n      pop\n        /* \"#utility.yul\":25677:25758   */\n    tag_599:\n        /* \"#utility.yul\":25805:25807   */\n      0x20\n        /* \"#utility.yul\":25797:25803   */\n      dup3\n        /* \"#utility.yul\":25794:25808   */\n      lt\n        /* \"#utility.yul\":25774:25792   */\n      dup2\n        /* \"#utility.yul\":25771:25809   */\n      eq\n        /* \"#utility.yul\":25768:25852   */\n      iszero\n      tag_600\n      jumpi\n        /* \"#utility.yul\":25824:25842   */\n      tag_601\n      tag_602\n      jump\t// in\n    tag_601:\n        /* \"#utility.yul\":25768:25852   */\n    tag_600:\n        /* \"#utility.yul\":25589:25858   */\n      pop\n        /* \"#utility.yul\":25538:25858   */\n      swap2\n      swap1\n      pop\n      jump\t// out\n        /* \"#utility.yul\":25864:26145   */\n    tag_570:\n        /* \"#utility.yul\":25947:25974   */\n      tag_604\n        /* \"#utility.yul\":25969:25973   */\n      dup3\n        /* \"#utility.yul\":25947:25974   */\n      tag_499\n      jump\t// in\n    tag_604:\n        /* \"#utility.yul\":25939:25945   */\n      dup2\n        /* \"#utility.yul\":25935:25975   */\n      add\n        /* \"#utility.yul\":26077:26083   */\n      dup2\n        /* \"#utility.yul\":26065:26075   */\n      dup2\n        /* \"#utility.yul\":26062:26084   */\n      lt\n        /* \"#utility.yul\":26041:26059   */\n      0xffffffffffffffff\n        /* \"#utility.yul\":26029:26039   */\n      dup3\n        /* \"#utility.yul\":26026:26060   */\n      gt\n        /* \"#utility.yul\":26023:26085   */\n      or\n        /* \"#utility.yul\":26020:26108   */\n      iszero\n      tag_605\n      jumpi\n        /* \"#utility.yul\":26088:26106   */\n      tag_606\n      tag_575\n      jump\t// in\n    tag_606:\n        /* \"#utility.yul\":26020:26108   */\n    tag_605:\n        /* \"#utility.yul\":26128:26138   */\n      dup1\n        /* \"#utility.yul\":26124:26126   */\n      0x40\n        /* \"#utility.yul\":26117:26139   */\n      mstore\n        /* \"#utility.yul\":25907:26145   */\n      pop\n        /* \"#utility.yul\":25864:26145   */\n      pop\n      pop\n      jump\t// out\n        /* \"#utility.yul\":26151:26331   */\n    tag_602:\n        /* \"#utility.yul\":26199:26276   */\n      0x4e487b7100000000000000000000000000000000000000000000000000000000\n        /* \"#utility.yul\":26196:26197   */\n      0x00\n        /* \"#utility.yul\":26189:26277   */\n      mstore\n        /* \"#utility.yul\":26296:26300   */\n      0x22\n        /* \"#utility.yul\":26293:26294   */\n      0x04\n        /* \"#utility.yul\":26286:26301   */\n      mstore\n        /* \"#utility.yul\":26320:26324   */\n      0x24\n        /* \"#utility.yul\":26317:26318   */\n      0x00\n        /* \"#utility.yul\":26310:26325   */\n      revert\n        /* \"#utility.yul\":26337:26517   */\n    tag_255:\n        /* \"#utility.yul\":26385:26462   */\n      0x4e487b7100000000000000000000000000000000000000000000000000000000\n        /* \"#utility.yul\":26382:26383   */\n      0x00\n        /* \"#utility.yul\":26375:26463   */\n      mstore\n        /* \"#utility.yul\":26482:26486   */\n      0x32\n        /* \"#utility.yul\":26479:26480   */\n      0x04\n        /* \"#utility.yul\":26472:26487   */\n      mstore\n        /* \"#utility.yul\":26506:26510   */\n      0x24\n        /* \"#utility.yul\":26503:26504   */\n      0x00\n        /* \"#utility.yul\":26496:26511   */\n      revert\n        /* \"#utility.yul\":26523:26703   */\n    tag_575:\n        /* \"#utility.yul\":26571:26648   */\n      0x4e487b7100000000000000000000000000000000000000000000000000000000\n        /* \"#utility.yul\":26568:26569   */\n      0x00\n        /* \"#utility.yul\":26561:26649   */\n      mstore\n        /* \"#utility.yul\":26668:26672   */\n      0x41\n        /* \"#utility.yul\":26665:26666   */\n      0x04\n        /* \"#utility.yul\":26658:26673   */\n      mstore\n        /* \"#utility.yul\":26692:26696   */\n      0x24\n        /* \"#utility.yul\":26689:26690   */\n      0x00\n        /* \"#utility.yul\":26682:26697   */\n      revert\n        /* \"#utility.yul\":26709:26826   */\n    tag_369:\n        /* \"#utility.yul\":26818:26819   */\n      0x00\n        /* \"#utility.yul\":26815:26816   */\n      dup1\n        /* \"#utility.yul\":26808:26820   */\n      revert\n        /* \"#utility.yul\":26832:26949   */\n    tag_363:\n        /* \"#utility.yul\":26941:26942   */\n      0x00\n        /* \"#utility.yul\":26938:26939   */\n      dup1\n        /* \"#utility.yul\":26931:26943   */\n      revert\n        /* \"#utility.yul\":26955:27072   */\n    tag_379:\n        /* \"#utility.yul\":27064:27065   */\n      0x00\n        /* \"#utility.yul\":27061:27062   */\n      dup1\n        /* \"#utility.yul\":27054:27066   */\n      revert\n        /* \"#utility.yul\":27078:27195   */\n    tag_409:\n        /* \"#utility.yul\":27187:27188   */\n      0x00\n        /* \"#utility.yul\":27184:27185   */\n      dup1\n        /* \"#utility.yul\":27177:27189   */\n      revert\n        /* \"#utility.yul\":27201:27318   */\n    tag_402:\n        /* \"#utility.yul\":27310:27311   */\n      0x00\n        /* \"#utility.yul\":27307:27308   */\n      dup1\n        /* \"#utility.yul\":27300:27312   */\n      revert\n        /* \"#utility.yul\":27324:27426   */\n    tag_499:\n        /* \"#utility.yul\":27365:27371   */\n      0x00\n        /* \"#utility.yul\":27416:27418   */\n      0x1f\n        /* \"#utility.yul\":27412:27419   */\n      not\n        /* \"#utility.yul\":27407:27409   */\n      0x1f\n        /* \"#utility.yul\":27400:27405   */\n      dup4\n        /* \"#utility.yul\":27396:27410   */\n      add\n        /* \"#utility.yul\":27392:27420   */\n      and\n        /* \"#utility.yul\":27382:27420   */\n      swap1\n      pop\n        /* \"#utility.yul\":27324:27426   */\n      swap2\n      swap1\n      pop\n      jump\t// out\n        /* \"#utility.yul\":27432:27554   */\n    tag_385:\n        /* \"#utility.yul\":27505:27529   */\n      tag_617\n        /* \"#utility.yul\":27523:27528   */\n      dup2\n        /* \"#utility.yul\":27505:27529   */\n      tag_476\n      jump\t// in\n    tag_617:\n        /* \"#utility.yul\":27498:27503   */\n      dup2\n        /* \"#utility.yul\":27495:27530   */\n      eq\n        /* \"#utility.yul\":27485:27548   */\n      tag_618\n      jumpi\n        /* \"#utility.yul\":27544:27545   */\n      0x00\n        /* \"#utility.yul\":27541:27542   */\n      dup1\n        /* \"#utility.yul\":27534:27546   */\n      revert\n        /* \"#utility.yul\":27485:27548   */\n    tag_618:\n        /* \"#utility.yul\":27432:27554   */\n      pop\n      jump\t// out\n        /* \"#utility.yul\":27560:27682   */\n    tag_398:\n        /* \"#utility.yul\":27633:27657   */\n      tag_620\n        /* \"#utility.yul\":27651:27656   */\n      dup2\n        /* \"#utility.yul\":27633:27657   */\n      tag_547\n      jump\t// in\n    tag_620:\n        /* \"#utility.yul\":27626:27631   */\n      dup2\n        /* \"#utility.yul\":27623:27658   */\n      eq\n        /* \"#utility.yul\":27613:27676   */\n      tag_621\n      jumpi\n        /* \"#utility.yul\":27672:27673   */\n      0x00\n        /* \"#utility.yul\":27669:27670   */\n      dup1\n        /* \"#utility.yul\":27662:27674   */\n      revert\n        /* \"#utility.yul\":27613:27676   */\n    tag_621:\n        /* \"#utility.yul\":27560:27682   */\n      pop\n      jump\t// out\n\n    auxdata: 0xa264697066735822122013658cd5ea2e292c800db06d5bb2171d6fd0a2b59381a2c652c1e25ac42926f564736f6c63430008070033\n}\n",
				"bytecode": {
					"linkReferences": {},
					"object": "608060405234801561001057600080fd5b506132b2806100206000396000f3fe608060405234801561001057600080fd5b50600436106100b45760003560e01c8063958791ae11610071578063958791ae1461015157806395ea37571461016d5780639dd9d0fd14610177578063ed2217ef146101ac578063f96e32f8146101b6578063fabce08f146101ea576100b4565b80633d984d0e146100b95780634ed74067146100d55780636212fa02146100df57806366244dfb146100fd5780636c2cc774146101195780637282838814610135575b600080fd5b6100d360048036038101906100ce919061279d565b6101f4565b005b6100dd610378565b005b6100e76103de565b6040516100f49190612fb3565b60405180910390f35b61011760048036038101906101129190612844565b61042a565b005b610133600480360381019061012e9190612725565b610565565b005b61014f600480360381019061014a9190612844565b61061b565b005b61016b6004803603810190610166919061294b565b610883565b005b610175610b6d565b005b610191600480360381019061018c91906126f8565b610c42565b6040516101a396959493929190612f28565b60405180910390f35b6101b4611c2a565b005b6101d060048036038101906101cb9190612a80565b611c79565b6040516101e1959493929190612eb2565b60405180910390f35b6101f2612144565b005b6000803373ffffffffffffffffffffffffffffffffffffffff1673ffffffffffffffffffffffffffffffffffffffff168152602001908152602001600020600e01600080820160006102469190612360565b6001820160006102569190612360565b6002820160006102669190612360565b5050826000803373ffffffffffffffffffffffffffffffffffffffff1673ffffffffffffffffffffffffffffffffffffffff168152602001908152602001600020600e0160000190805190602001906102c0929190612381565b50816000803373ffffffffffffffffffffffffffffffffffffffff1673ffffffffffffffffffffffffffffffffffffffff168152602001908152602001600020600e016001019080519060200190610319929190612381565b50806000803373ffffffffffffffffffffffffffffffffffffffff1673ffffffffffffffffffffffffffffffffffffffff168152602001908152602001600020600e016002019080519060200190610372929190612381565b50505050565b6000803373ffffffffffffffffffffffffffffffffffffffff1673ffffffffffffffffffffffffffffffffffffffff168152602001908152602001600020601201600080820160006103ca9190612360565b6001820160006103da9190612360565b5050565b60008060003373ffffffffffffffffffffffffffffffffffffffff1673ffffffffffffffffffffffffffffffffffffffff16815260200190815260200160002060110180549050905090565b6104326123e1565b8581600001819052508481602001819052508381604001819052508281606001819052508181608001819052506000803373ffffffffffffffffffffffffffffffffffffffff1673ffffffffffffffffffffffffffffffffffffffff16815260200190815260200160002060110181908060018154018082558091505060019003906000526020600020906005020160009091909190915060008201518160000190805190602001906104e6929190612410565b506020820151816001019080519060200190610503929190612410565b506040820151816002019080519060200190610520929190612410565b50606082015181600301908051906020019061053d929190612410565b50608082015181600401908051906020019061055a929190612410565b505050505050505050565b816000803373ffffffffffffffffffffffffffffffffffffffff1673ffffffffffffffffffffffffffffffffffffffff16815260200190815260200160002060120160010190805190602001906105bd929190612381565b50806000803373ffffffffffffffffffffffffffffffffffffffff1673ffffffffffffffffffffffffffffffffffffffff1681526020019081526020016000206012016000019080519060200190610616929190612381565b505050565b6000803373ffffffffffffffffffffffffffffffffffffffff1673ffffffffffffffffffffffffffffffffffffffff1681526020019081526020016000206008016000808201600061066d9190612496565b60018201600061067d9190612496565b60028201600061068d9190612496565b60038201600061069d9190612496565b6004820160006106ad9190612496565b6005820160006106bd9190612496565b5050846000803373ffffffffffffffffffffffffffffffffffffffff1673ffffffffffffffffffffffffffffffffffffffff1681526020019081526020016000206008016001019080519060200190610717929190612410565b50836000803373ffffffffffffffffffffffffffffffffffffffff1673ffffffffffffffffffffffffffffffffffffffff1681526020019081526020016000206008016002019080519060200190610770929190612410565b50826000803373ffffffffffffffffffffffffffffffffffffffff1673ffffffffffffffffffffffffffffffffffffffff16815260200190815260200160002060080160030190805190602001906107c9929190612410565b50816000803373ffffffffffffffffffffffffffffffffffffffff1673ffffffffffffffffffffffffffffffffffffffff1681526020019081526020016000206008016002019080519060200190610822929190612410565b50806000803373ffffffffffffffffffffffffffffffffffffffff1673ffffffffffffffffffffffffffffffffffffffff168152602001908152602001600020600801600101908051906020019061087b929190612410565b505050505050565b856000803373ffffffffffffffffffffffffffffffffffffffff1673ffffffffffffffffffffffffffffffffffffffff16815260200190815260200160002060000160030190805190602001906108db929190612410565b50846000803373ffffffffffffffffffffffffffffffffffffffff1673ffffffffffffffffffffffffffffffffffffffff1681526020019081526020016000206000016004019080519060200190610934929190612410565b50836000803373ffffffffffffffffffffffffffffffffffffffff1673ffffffffffffffffffffffffffffffffffffffff168152602001908152602001600020600001600501908051906020019061098d929190612410565b50826000803373ffffffffffffffffffffffffffffffffffffffff1673ffffffffffffffffffffffffffffffffffffffff16815260200190815260200160002060000160060190805190602001906109e6929190612410565b50816000803373ffffffffffffffffffffffffffffffffffffffff1673ffffffffffffffffffffffffffffffffffffffff1681526020019081526020016000206000016000019080519060200190610a3f929190612410565b50806000803373ffffffffffffffffffffffffffffffffffffffff1673ffffffffffffffffffffffffffffffffffffffff1681526020019081526020016000206000016001019080519060200190610a98929190612410565b50336000803373ffffffffffffffffffffffffffffffffffffffff1673ffffffffffffffffffffffffffffffffffffffff16815260200190815260200160002060000160020160006101000a81548173ffffffffffffffffffffffffffffffffffffffff021916908373ffffffffffffffffffffffffffffffffffffffff160217905550426000803373ffffffffffffffffffffffffffffffffffffffff1673ffffffffffffffffffffffffffffffffffffffff16815260200190815260200160002060000160070181905550505050505050565b6000803373ffffffffffffffffffffffffffffffffffffffff1673ffffffffffffffffffffffffffffffffffffffff16815260200190815260200160002060000160008082016000610bbf9190612496565b600182016000610bcf9190612496565b6002820160006101000a81549073ffffffffffffffffffffffffffffffffffffffff0219169055600382016000610c069190612496565b600482016000610c169190612496565b600582016000610c269190612496565b600682016000610c369190612496565b60078201600090555050565b60006020528060005260406000206000915090508060000160405180610100016040529081600082018054610c7690613134565b80601f0160208091040260200160405190810160405280929190818152602001828054610ca290613134565b8015610cef5780601f10610cc457610100808354040283529160200191610cef565b820191906000526020600020905b815481529060010190602001808311610cd257829003601f168201915b50505050508152602001600182018054610d0890613134565b80601f0160208091040260200160405190810160405280929190818152602001828054610d3490613134565b8015610d815780601f10610d5657610100808354040283529160200191610d81565b820191906000526020600020905b815481529060010190602001808311610d6457829003601f168201915b505050505081526020016002820160009054906101000a900473ffffffffffffffffffffffffffffffffffffffff1673ffffffffffffffffffffffffffffffffffffffff1673ffffffffffffffffffffffffffffffffffffffff168152602001600382018054610df090613134565b80601f0160208091040260200160405190810160405280929190818152602001828054610e1c90613134565b8015610e695780601f10610e3e57610100808354040283529160200191610e69565b820191906000526020600020905b815481529060010190602001808311610e4c57829003601f168201915b50505050508152602001600482018054610e8290613134565b80601f0160208091040260200160405190810160405280929190818152602001828054610eae90613134565b8015610efb5780601f10610ed057610100808354040283529160200191610efb565b820191906000526020600020905b815481529060010190602001808311610ede57829003601f168201915b50505050508152602001600582018054610f1490613134565b80601f0160208091040260200160405190810160405280929190818152602001828054610f4090613134565b8015610f8d5780601f10610f6257610100808354040283529160200191610f8d565b820191906000526020600020905b815481529060010190602001808311610f7057829003601f168201915b50505050508152602001600682018054610fa690613134565b80601f0160208091040260200160405190810160405280929190818152602001828054610fd290613134565b801561101f5780601f10610ff45761010080835404028352916020019161101f565b820191906000526020600020905b81548152906001019060200180831161100257829003601f168201915b5050505050815260200160078201548152505090806008016040518060c001604052908160008201805461105290613134565b80601f016020809104026020016040519081016040528092919081815260200182805461107e90613134565b80156110cb5780601f106110a0576101008083540402835291602001916110cb565b820191906000526020600020905b8154815290600101906020018083116110ae57829003601f168201915b505050505081526020016001820180546110e490613134565b80601f016020809104026020016040519081016040528092919081815260200182805461111090613134565b801561115d5780601f106111325761010080835404028352916020019161115d565b820191906000526020600020905b81548152906001019060200180831161114057829003601f168201915b5050505050815260200160028201805461117690613134565b80601f01602080910402602001604051908101604052809291908181526020018280546111a290613134565b80156111ef5780601f106111c4576101008083540402835291602001916111ef565b820191906000526020600020905b8154815290600101906020018083116111d257829003601f168201915b5050505050815260200160038201805461120890613134565b80601f016020809104026020016040519081016040528092919081815260200182805461123490613134565b80156112815780601f1061125657610100808354040283529160200191611281565b820191906000526020600020905b81548152906001019060200180831161126457829003601f168201915b5050505050815260200160048201805461129a90613134565b80601f01602080910402602001604051908101604052809291908181526020018280546112c690613134565b80156113135780601f106112e857610100808354040283529160200191611313565b820191906000526020600020905b8154815290600101906020018083116112f657829003601f168201915b5050505050815260200160058201805461132c90613134565b80601f016020809104026020016040519081016040528092919081815260200182805461135890613134565b80156113a55780601f1061137a576101008083540402835291602001916113a5565b820191906000526020600020905b81548152906001019060200180831161138857829003601f168201915b5050505050815250509080600e0160405180606001604052908160008201805480602002602001604051908101604052809291908181526020016000905b8282101561148f57838290600052602060002001805461140290613134565b80601f016020809104026020016040519081016040528092919081815260200182805461142e90613134565b801561147b5780601f106114505761010080835404028352916020019161147b565b820191906000526020600020905b81548152906001019060200180831161145e57829003601f168201915b5050505050815260200190600101906113e3565b50505050815260200160018201805480602002602001604051908101604052809291908181526020016000905b828210156115685783829060005260206000200180546114db90613134565b80601f016020809104026020016040519081016040528092919081815260200182805461150790613134565b80156115545780601f1061152957610100808354040283529160200191611554565b820191906000526020600020905b81548152906001019060200180831161153757829003601f168201915b5050505050815260200190600101906114bc565b50505050815260200160028201805480602002602001604051908101604052809291908181526020016000905b828210156116415783829060005260206000200180546115b490613134565b80601f01602080910402602001604051908101604052809291908181526020018280546115e090613134565b801561162d5780601f106116025761010080835404028352916020019161162d565b820191906000526020600020905b81548152906001019060200180831161161057829003601f168201915b505050505081526020019060010190611595565b5050505081525050908060120160405180604001604052908160008201805480602002602001604051908101604052809291908181526020016000905b8282101561172a57838290600052602060002001805461169d90613134565b80601f01602080910402602001604051908101604052809291908181526020018280546116c990613134565b80156117165780601f106116eb57610100808354040283529160200191611716565b820191906000526020600020905b8154815290600101906020018083116116f957829003601f168201915b50505050508152602001906001019061167e565b50505050815260200160018201805480602002602001604051908101604052809291908181526020016000905b8282101561180357838290600052602060002001805461177690613134565b80601f01602080910402602001604051908101604052809291908181526020018280546117a290613134565b80156117ef5780601f106117c4576101008083540402835291602001916117ef565b820191906000526020600020905b8154815290600101906020018083116117d257829003601f168201915b505050505081526020019060010190611757565b505050508152505090806014016040518060a001604052908160008201805461182b90613134565b80601f016020809104026020016040519081016040528092919081815260200182805461185790613134565b80156118a45780601f10611879576101008083540402835291602001916118a4565b820191906000526020600020905b81548152906001019060200180831161188757829003601f168201915b505050505081526020016001820180546118bd90613134565b80601f01602080910402602001604051908101604052809291908181526020018280546118e990613134565b80156119365780601f1061190b57610100808354040283529160200191611936565b820191906000526020600020905b81548152906001019060200180831161191957829003601f168201915b5050505050815260200160028201805461194f90613134565b80601f016020809104026020016040519081016040528092919081815260200182805461197b90613134565b80156119c85780601f1061199d576101008083540402835291602001916119c8565b820191906000526020600020905b8154815290600101906020018083116119ab57829003601f168201915b505050505081526020016003820180546119e190613134565b80601f0160208091040260200160405190810160405280929190818152602001828054611a0d90613134565b8015611a5a5780601f10611a2f57610100808354040283529160200191611a5a565b820191906000526020600020905b815481529060010190602001808311611a3d57829003601f168201915b5050505050815260200160048201805480602002602001604051908101604052809291908181526020016000905b82821015611b34578382906000526020600020018054611aa790613134565b80601f0160208091040260200160405190810160405280929190818152602001828054611ad390613134565b8015611b205780601f10611af557610100808354040283529160200191611b20565b820191906000526020600020905b815481529060010190602001808311611b0357829003601f168201915b505050505081526020019060010190611a88565b5050505081525050908060190160405180602001604052908160008201805480602002602001604051908101604052809291908181526020016000905b82821015611c1d578382906000526020600020018054611b9090613134565b80601f0160208091040260200160405190810160405280929190818152602001828054611bbc90613134565b8015611c095780601f10611bde57610100808354040283529160200191611c09565b820191906000526020600020905b815481529060010190602001808311611bec57829003601f168201915b505050505081526020019060010190611b71565b5050505081525050905086565b6000803373ffffffffffffffffffffffffffffffffffffffff1673ffffffffffffffffffffffffffffffffffffffff1681526020019081526020016000206011016000611c7791906124d6565b565b60608060608060606000803373ffffffffffffffffffffffffffffffffffffffff1673ffffffffffffffffffffffffffffffffffffffff1681526020019081526020016000206011018681548110611cd457611cd36131c6565b5b90600052602060002090600502016000016000803373ffffffffffffffffffffffffffffffffffffffff1673ffffffffffffffffffffffffffffffffffffffff1681526020019081526020016000206011018781548110611d3857611d376131c6565b5b90600052602060002090600502016001016000803373ffffffffffffffffffffffffffffffffffffffff1673ffffffffffffffffffffffffffffffffffffffff1681526020019081526020016000206011018881548110611d9c57611d9b6131c6565b5b90600052602060002090600502016002016000803373ffffffffffffffffffffffffffffffffffffffff1673ffffffffffffffffffffffffffffffffffffffff1681526020019081526020016000206011018981548110611e0057611dff6131c6565b5b90600052602060002090600502016003016000803373ffffffffffffffffffffffffffffffffffffffff1673ffffffffffffffffffffffffffffffffffffffff1681526020019081526020016000206011018a81548110611e6457611e636131c6565b5b9060005260206000209060050201600401848054611e8190613134565b80601f0160208091040260200160405190810160405280929190818152602001828054611ead90613134565b8015611efa5780601f10611ecf57610100808354040283529160200191611efa565b820191906000526020600020905b815481529060010190602001808311611edd57829003601f168201915b50505050509450838054611f0d90613134565b80601f0160208091040260200160405190810160405280929190818152602001828054611f3990613134565b8015611f865780601f10611f5b57610100808354040283529160200191611f86565b820191906000526020600020905b815481529060010190602001808311611f6957829003601f168201915b50505050509350828054611f9990613134565b80601f0160208091040260200160405190810160405280929190818152602001828054611fc590613134565b80156120125780601f10611fe757610100808354040283529160200191612012565b820191906000526020600020905b815481529060010190602001808311611ff557829003601f168201915b5050505050925081805461202590613134565b80601f016020809104026020016040519081016040528092919081815260200182805461205190613134565b801561209e5780601f106120735761010080835404028352916020019161209e565b820191906000526020600020905b81548152906001019060200180831161208157829003601f168201915b505050505091508080546120b190613134565b80601f01602080910402602001604051908101604052809291908181526020018280546120dd90613134565b801561212a5780601f106120ff5761010080835404028352916020019161212a565b820191906000526020600020905b81548152906001019060200180831161210d57829003601f168201915b505050505090509450945094509450945091939590929450565b6000803373ffffffffffffffffffffffffffffffffffffffff1673ffffffffffffffffffffffffffffffffffffffff1681526020019081526020016000206000808201600080820160006121989190612496565b6001820160006121a89190612496565b6002820160006101000a81549073ffffffffffffffffffffffffffffffffffffffff02191690556003820160006121df9190612496565b6004820160006121ef9190612496565b6005820160006121ff9190612496565b60068201600061220f9190612496565b60078201600090555050600882016000808201600061222e9190612496565b60018201600061223e9190612496565b60028201600061224e9190612496565b60038201600061225e9190612496565b60048201600061226e9190612496565b60058201600061227e9190612496565b5050600e8201600080820160006122959190612360565b6001820160006122a59190612360565b6002820160006122b59190612360565b50506011820160006122c791906124d6565b60128201600080820160006122dc9190612360565b6001820160006122ec9190612360565b505060148201600080820160006123039190612496565b6001820160006123139190612496565b6002820160006123239190612496565b6003820160006123339190612496565b6004820160006123439190612360565b5050601982016000808201600061235a9190612360565b50505050565b508054600082559060005260206000209081019061237e91906124fa565b50565b8280548282559060005260206000209081019282156123d0579160200282015b828111156123cf5782518290805190602001906123bf929190612410565b50916020019190600101906123a1565b5b5090506123dd91906124fa565b5090565b6040518060a0016040528060608152602001606081526020016060815260200160608152602001606081525090565b82805461241c90613134565b90600052602060002090601f01602090048101928261243e5760008555612485565b82601f1061245757805160ff1916838001178555612485565b82800160010185558215612485579182015b82811115612484578251825591602001919060010190612469565b5b509050612492919061251e565b5090565b5080546124a290613134565b6000825580601f106124b457506124d3565b601f0160209004906000526020600020908101906124d2919061251e565b5b50565b50805460008255600502906000526020600020908101906124f7919061253b565b50565b5b8082111561251a57600081816125119190612496565b506001016124fb565b5090565b5b8082111561253757600081600090555060010161251f565b5090565b5b8082111561259e57600080820160006125559190612496565b6001820160006125659190612496565b6002820160006125759190612496565b6003820160006125859190612496565b6004820160006125959190612496565b5060050161253c565b5090565b60006125b56125b084612ff3565b612fce565b905080838252602082019050828560208602820111156125d8576125d7613229565b5b60005b8581101561262657813567ffffffffffffffff8111156125fe576125fd613224565b5b80860161260b89826126b5565b855260208501945060208401935050506001810190506125db565b5050509392505050565b600061264361263e8461301f565b612fce565b90508281526020810184848401111561265f5761265e61322e565b5b61266a8482856130f2565b509392505050565b6000813590506126818161324e565b92915050565b600082601f83011261269c5761269b613224565b5b81356126ac8482602086016125a2565b91505092915050565b600082601f8301126126ca576126c9613224565b5b81356126da848260208601612630565b91505092915050565b6000813590506126f281613265565b92915050565b60006020828403121561270e5761270d613238565b5b600061271c84828501612672565b91505092915050565b6000806040838503121561273c5761273b613238565b5b600083013567ffffffffffffffff81111561275a57612759613233565b5b61276685828601612687565b925050602083013567ffffffffffffffff81111561278757612786613233565b5b61279385828601612687565b9150509250929050565b6000806000606084860312156127b6576127b5613238565b5b600084013567ffffffffffffffff8111156127d4576127d3613233565b5b6127e086828701612687565b935050602084013567ffffffffffffffff81111561280157612800613233565b5b61280d86828701612687565b925050604084013567ffffffffffffffff81111561282e5761282d613233565b5b61283a86828701612687565b9150509250925092565b600080600080600060a086880312156128605761285f613238565b5b600086013567ffffffffffffffff81111561287e5761287d613233565b5b61288a888289016126b5565b955050602086013567ffffffffffffffff8111156128ab576128aa613233565b5b6128b7888289016126b5565b945050604086013567ffffffffffffffff8111156128d8576128d7613233565b5b6128e4888289016126b5565b935050606086013567ffffffffffffffff81111561290557612904613233565b5b612911888289016126b5565b925050608086013567ffffffffffffffff81111561293257612931613233565b5b61293e888289016126b5565b9150509295509295909350565b60008060008060008060c0878903121561296857612967613238565b5b600087013567ffffffffffffffff81111561298657612985613233565b5b61299289828a016126b5565b965050602087013567ffffffffffffffff8111156129b3576129b2613233565b5b6129bf89828a016126b5565b955050604087013567ffffffffffffffff8111156129e0576129df613233565b5b6129ec89828a016126b5565b945050606087013567ffffffffffffffff811115612a0d57612a0c613233565b5b612a1989828a016126b5565b935050608087013567ffffffffffffffff811115612a3a57612a39613233565b5b612a4689828a016126b5565b92505060a087013567ffffffffffffffff811115612a6757612a66613233565b5b612a7389828a016126b5565b9150509295509295509295565b600060208284031215612a9657612a95613238565b5b6000612aa4848285016126e3565b91505092915050565b6000612ab98383612b45565b905092915050565b612aca816130b6565b82525050565b6000612adb82613060565b612ae58185613083565b935083602082028501612af785613050565b8060005b85811015612b335784840389528151612b148582612aad565b9450612b1f83613076565b925060208a01995050600181019050612afb565b50829750879550505050505092915050565b6000612b508261306b565b612b5a8185613094565b9350612b6a818560208601613101565b612b738161323d565b840191505092915050565b6000612b898261306b565b612b9381856130a5565b9350612ba3818560208601613101565b612bac8161323d565b840191505092915050565b60006040830160008301518482036000860152612bd48282612ad0565b91505060208301518482036020860152612bee8282612ad0565b9150508091505092915050565b600060a0830160008301518482036000860152612c188282612b45565b91505060208301518482036020860152612c328282612b45565b91505060408301518482036040860152612c4c8282612b45565b91505060608301518482036060860152612c668282612b45565b91505060808301518482036080860152612c808282612ad0565b9150508091505092915050565b600060c0830160008301518482036000860152612caa8282612b45565b91505060208301518482036020860152612cc48282612b45565b91505060408301518482036040860152612cde8282612b45565b91505060608301518482036060860152612cf88282612b45565b91505060808301518482036080860152612d128282612b45565b91505060a083015184820360a0860152612d2c8282612b45565b9150508091505092915050565b60006020830160008301518482036000860152612d568282612ad0565b9150508091505092915050565b6000610100830160008301518482036000860152612d818282612b45565b91505060208301518482036020860152612d9b8282612b45565b9150506040830151612db06040860182612ac1565b5060608301518482036060860152612dc88282612b45565b91505060808301518482036080860152612de28282612b45565b91505060a083015184820360a0860152612dfc8282612b45565b91505060c083015184820360c0860152612e168282612b45565b91505060e0830151612e2b60e0860182612e94565b508091505092915050565b60006060830160008301518482036000860152612e538282612ad0565b91505060208301518482036020860152612e6d8282612ad0565b91505060408301518482036040860152612e878282612ad0565b9150508091505092915050565b612e9d816130e8565b82525050565b612eac816130e8565b82525050565b600060a0820190508181036000830152612ecc8188612b7e565b90508181036020830152612ee08187612b7e565b90508181036040830152612ef48186612b7e565b90508181036060830152612f088185612b7e565b90508181036080830152612f1c8184612b7e565b90509695505050505050565b600060c0820190508181036000830152612f428189612d63565b90508181036020830152612f568188612c8d565b90508181036040830152612f6a8187612e36565b90508181036060830152612f7e8186612bb7565b90508181036080830152612f928185612bfb565b905081810360a0830152612fa68184612d39565b9050979650505050505050565b6000602082019050612fc86000830184612ea3565b92915050565b6000612fd8612fe9565b9050612fe48282613166565b919050565b6000604051905090565b600067ffffffffffffffff82111561300e5761300d6131f5565b5b602082029050602081019050919050565b600067ffffffffffffffff82111561303a576130396131f5565b5b6130438261323d565b9050602081019050919050565b6000819050602082019050919050565b600081519050919050565b600081519050919050565b6000602082019050919050565b600082825260208201905092915050565b600082825260208201905092915050565b600082825260208201905092915050565b60006130c1826130c8565b9050919050565b600073ffffffffffffffffffffffffffffffffffffffff82169050919050565b6000819050919050565b82818337600083830152505050565b60005b8381101561311f578082015181840152602081019050613104565b8381111561312e576000848401525b50505050565b6000600282049050600182168061314c57607f821691505b602082108114156131605761315f613197565b5b50919050565b61316f8261323d565b810181811067ffffffffffffffff8211171561318e5761318d6131f5565b5b80604052505050565b7f4e487b7100000000000000000000000000000000000000000000000000000000600052602260045260246000fd5b7f4e487b7100000000000000000000000000000000000000000000000000000000600052603260045260246000fd5b7f4e487b7100000000000000000000000000000000000000000000000000000000600052604160045260246000fd5b600080fd5b600080fd5b600080fd5b600080fd5b600080fd5b6000601f19601f8301169050919050565b613257816130b6565b811461326257600080fd5b50565b61326e816130e8565b811461327957600080fd5b5056fea264697066735822122013658cd5ea2e292c800db06d5bb2171d6fd0a2b59381a2c652c1e25ac42926f564736f6c63430008070033",
					"opcodes": "PUSH1 0x80 PUSH1 0x40 MSTORE CALLVALUE DUP1 ISZERO PUSH2 0x10 JUMPI PUSH1 0x0 DUP1 REVERT JUMPDEST POP PUSH2 0x32B2 DUP1 PUSH2 0x20 PUSH1 0x0 CODECOPY PUSH1 0x0 RETURN INVALID PUSH1 0x80 PUSH1 0x40 MSTORE CALLVALUE DUP1 ISZERO PUSH2 0x10 JUMPI PUSH1 0x0 DUP1 REVERT JUMPDEST POP PUSH1 0x4 CALLDATASIZE LT PUSH2 0xB4 JUMPI PUSH1 0x0 CALLDATALOAD PUSH1 0xE0 SHR DUP1 PUSH4 0x958791AE GT PUSH2 0x71 JUMPI DUP1 PUSH4 0x958791AE EQ PUSH2 0x151 JUMPI DUP1 PUSH4 0x95EA3757 EQ PUSH2 0x16D JUMPI DUP1 PUSH4 0x9DD9D0FD EQ PUSH2 0x177 JUMPI DUP1 PUSH4 0xED2217EF EQ PUSH2 0x1AC JUMPI DUP1 PUSH4 0xF96E32F8 EQ PUSH2 0x1B6 JUMPI DUP1 PUSH4 0xFABCE08F EQ PUSH2 0x1EA JUMPI PUSH2 0xB4 JUMP JUMPDEST DUP1 PUSH4 0x3D984D0E EQ PUSH2 0xB9 JUMPI DUP1 PUSH4 0x4ED74067 EQ PUSH2 0xD5 JUMPI DUP1 PUSH4 0x6212FA02 EQ PUSH2 0xDF JUMPI DUP1 PUSH4 0x66244DFB EQ PUSH2 0xFD JUMPI DUP1 PUSH4 0x6C2CC774 EQ PUSH2 0x119 JUMPI DUP1 PUSH4 0x72828388 EQ PUSH2 0x135 JUMPI JUMPDEST PUSH1 0x0 DUP1 REVERT JUMPDEST PUSH2 0xD3 PUSH1 0x4 DUP1 CALLDATASIZE SUB DUP2 ADD SWAP1 PUSH2 0xCE SWAP2 SWAP1 PUSH2 0x279D JUMP JUMPDEST PUSH2 0x1F4 JUMP JUMPDEST STOP JUMPDEST PUSH2 0xDD PUSH2 0x378 JUMP JUMPDEST STOP JUMPDEST PUSH2 0xE7 PUSH2 0x3DE JUMP JUMPDEST PUSH1 0x40 MLOAD PUSH2 0xF4 SWAP2 SWAP1 PUSH2 0x2FB3 JUMP JUMPDEST PUSH1 0x40 MLOAD DUP1 SWAP2 SUB SWAP1 RETURN JUMPDEST PUSH2 0x117 PUSH1 0x4 DUP1 CALLDATASIZE SUB DUP2 ADD SWAP1 PUSH2 0x112 SWAP2 SWAP1 PUSH2 0x2844 JUMP JUMPDEST PUSH2 0x42A JUMP JUMPDEST STOP JUMPDEST PUSH2 0x133 PUSH1 0x4 DUP1 CALLDATASIZE SUB DUP2 ADD SWAP1 PUSH2 0x12E SWAP2 SWAP1 PUSH2 0x2725 JUMP JUMPDEST PUSH2 0x565 JUMP JUMPDEST STOP JUMPDEST PUSH2 0x14F PUSH1 0x4 DUP1 CALLDATASIZE SUB DUP2 ADD SWAP1 PUSH2 0x14A SWAP2 SWAP1 PUSH2 0x2844 JUMP JUMPDEST PUSH2 0x61B JUMP JUMPDEST STOP JUMPDEST PUSH2 0x16B PUSH1 0x4 DUP1 CALLDATASIZE SUB DUP2 ADD SWAP1 PUSH2 0x166 SWAP2 SWAP1 PUSH2 0x294B JUMP JUMPDEST PUSH2 0x883 JUMP JUMPDEST STOP JUMPDEST PUSH2 0x175 PUSH2 0xB6D JUMP JUMPDEST STOP JUMPDEST PUSH2 0x191 PUSH1 0x4 DUP1 CALLDATASIZE SUB DUP2 ADD SWAP1 PUSH2 0x18C SWAP2 SWAP1 PUSH2 0x26F8 JUMP JUMPDEST PUSH2 0xC42 JUMP JUMPDEST PUSH1 0x40 MLOAD PUSH2 0x1A3 SWAP7 SWAP6 SWAP5 SWAP4 SWAP3 SWAP2 SWAP1 PUSH2 0x2F28 JUMP JUMPDEST PUSH1 0x40 MLOAD DUP1 SWAP2 SUB SWAP1 RETURN JUMPDEST PUSH2 0x1B4 PUSH2 0x1C2A JUMP JUMPDEST STOP JUMPDEST PUSH2 0x1D0 PUSH1 0x4 DUP1 CALLDATASIZE SUB DUP2 ADD SWAP1 PUSH2 0x1CB SWAP2 SWAP1 PUSH2 0x2A80 JUMP JUMPDEST PUSH2 0x1C79 JUMP JUMPDEST PUSH1 0x40 MLOAD PUSH2 0x1E1 SWAP6 SWAP5 SWAP4 SWAP3 SWAP2 SWAP1 PUSH2 0x2EB2 JUMP JUMPDEST PUSH1 0x40 MLOAD DUP1 SWAP2 SUB SWAP1 RETURN JUMPDEST PUSH2 0x1F2 PUSH2 0x2144 JUMP JUMPDEST STOP JUMPDEST PUSH1 0x0 DUP1 CALLER PUSH20 0xFFFFFFFFFFFFFFFFFFFFFFFFFFFFFFFFFFFFFFFF AND PUSH20 0xFFFFFFFFFFFFFFFFFFFFFFFFFFFFFFFFFFFFFFFF AND DUP2 MSTORE PUSH1 0x20 ADD SWAP1 DUP2 MSTORE PUSH1 0x20 ADD PUSH1 0x0 KECCAK256 PUSH1 0xE ADD PUSH1 0x0 DUP1 DUP3 ADD PUSH1 0x0 PUSH2 0x246 SWAP2 SWAP1 PUSH2 0x2360 JUMP JUMPDEST PUSH1 0x1 DUP3 ADD PUSH1 0x0 PUSH2 0x256 SWAP2 SWAP1 PUSH2 0x2360 JUMP JUMPDEST PUSH1 0x2 DUP3 ADD PUSH1 0x0 PUSH2 0x266 SWAP2 SWAP1 PUSH2 0x2360 JUMP JUMPDEST POP POP DUP3 PUSH1 0x0 DUP1 CALLER PUSH20 0xFFFFFFFFFFFFFFFFFFFFFFFFFFFFFFFFFFFFFFFF AND PUSH20 0xFFFFFFFFFFFFFFFFFFFFFFFFFFFFFFFFFFFFFFFF AND DUP2 MSTORE PUSH1 0x20 ADD SWAP1 DUP2 MSTORE PUSH1 0x20 ADD PUSH1 0x0 KECCAK256 PUSH1 0xE ADD PUSH1 0x0 ADD SWAP1 DUP1 MLOAD SWAP1 PUSH1 0x20 ADD SWAP1 PUSH2 0x2C0 SWAP3 SWAP2 SWAP1 PUSH2 0x2381 JUMP JUMPDEST POP DUP2 PUSH1 0x0 DUP1 CALLER PUSH20 0xFFFFFFFFFFFFFFFFFFFFFFFFFFFFFFFFFFFFFFFF AND PUSH20 0xFFFFFFFFFFFFFFFFFFFFFFFFFFFFFFFFFFFFFFFF AND DUP2 MSTORE PUSH1 0x20 ADD SWAP1 DUP2 MSTORE PUSH1 0x20 ADD PUSH1 0x0 KECCAK256 PUSH1 0xE ADD PUSH1 0x1 ADD SWAP1 DUP1 MLOAD SWAP1 PUSH1 0x20 ADD SWAP1 PUSH2 0x319 SWAP3 SWAP2 SWAP1 PUSH2 0x2381 JUMP JUMPDEST POP DUP1 PUSH1 0x0 DUP1 CALLER PUSH20 0xFFFFFFFFFFFFFFFFFFFFFFFFFFFFFFFFFFFFFFFF AND PUSH20 0xFFFFFFFFFFFFFFFFFFFFFFFFFFFFFFFFFFFFFFFF AND DUP2 MSTORE PUSH1 0x20 ADD SWAP1 DUP2 MSTORE PUSH1 0x20 ADD PUSH1 0x0 KECCAK256 PUSH1 0xE ADD PUSH1 0x2 ADD SWAP1 DUP1 MLOAD SWAP1 PUSH1 0x20 ADD SWAP1 PUSH2 0x372 SWAP3 SWAP2 SWAP1 PUSH2 0x2381 JUMP JUMPDEST POP POP POP POP JUMP JUMPDEST PUSH1 0x0 DUP1 CALLER PUSH20 0xFFFFFFFFFFFFFFFFFFFFFFFFFFFFFFFFFFFFFFFF AND PUSH20 0xFFFFFFFFFFFFFFFFFFFFFFFFFFFFFFFFFFFFFFFF AND DUP2 MSTORE PUSH1 0x20 ADD SWAP1 DUP2 MSTORE PUSH1 0x20 ADD PUSH1 0x0 KECCAK256 PUSH1 0x12 ADD PUSH1 0x0 DUP1 DUP3 ADD PUSH1 0x0 PUSH2 0x3CA SWAP2 SWAP1 PUSH2 0x2360 JUMP JUMPDEST PUSH1 0x1 DUP3 ADD PUSH1 0x0 PUSH2 0x3DA SWAP2 SWAP1 PUSH2 0x2360 JUMP JUMPDEST POP POP JUMP JUMPDEST PUSH1 0x0 DUP1 PUSH1 0x0 CALLER PUSH20 0xFFFFFFFFFFFFFFFFFFFFFFFFFFFFFFFFFFFFFFFF AND PUSH20 0xFFFFFFFFFFFFFFFFFFFFFFFFFFFFFFFFFFFFFFFF AND DUP2 MSTORE PUSH1 0x20 ADD SWAP1 DUP2 MSTORE PUSH1 0x20 ADD PUSH1 0x0 KECCAK256 PUSH1 0x11 ADD DUP1 SLOAD SWAP1 POP SWAP1 POP SWAP1 JUMP JUMPDEST PUSH2 0x432 PUSH2 0x23E1 JUMP JUMPDEST DUP6 DUP2 PUSH1 0x0 ADD DUP2 SWAP1 MSTORE POP DUP5 DUP2 PUSH1 0x20 ADD DUP2 SWAP1 MSTORE POP DUP4 DUP2 PUSH1 0x40 ADD DUP2 SWAP1 MSTORE POP DUP3 DUP2 PUSH1 0x60 ADD DUP2 SWAP1 MSTORE POP DUP2 DUP2 PUSH1 0x80 ADD DUP2 SWAP1 MSTORE POP PUSH1 0x0 DUP1 CALLER PUSH20 0xFFFFFFFFFFFFFFFFFFFFFFFFFFFFFFFFFFFFFFFF AND PUSH20 0xFFFFFFFFFFFFFFFFFFFFFFFFFFFFFFFFFFFFFFFF AND DUP2 MSTORE PUSH1 0x20 ADD SWAP1 DUP2 MSTORE PUSH1 0x20 ADD PUSH1 0x0 KECCAK256 PUSH1 0x11 ADD DUP2 SWAP1 DUP1 PUSH1 0x1 DUP2 SLOAD ADD DUP1 DUP3 SSTORE DUP1 SWAP2 POP POP PUSH1 0x1 SWAP1 SUB SWAP1 PUSH1 0x0 MSTORE PUSH1 0x20 PUSH1 0x0 KECCAK256 SWAP1 PUSH1 0x5 MUL ADD PUSH1 0x0 SWAP1 SWAP2 SWAP1 SWAP2 SWAP1 SWAP2 POP PUSH1 0x0 DUP3 ADD MLOAD DUP2 PUSH1 0x0 ADD SWAP1 DUP1 MLOAD SWAP1 PUSH1 0x20 ADD SWAP1 PUSH2 0x4E6 SWAP3 SWAP2 SWAP1 PUSH2 0x2410 JUMP JUMPDEST POP PUSH1 0x20 DUP3 ADD MLOAD DUP2 PUSH1 0x1 ADD SWAP1 DUP1 MLOAD SWAP1 PUSH1 0x20 ADD SWAP1 PUSH2 0x503 SWAP3 SWAP2 SWAP1 PUSH2 0x2410 JUMP JUMPDEST POP PUSH1 0x40 DUP3 ADD MLOAD DUP2 PUSH1 0x2 ADD SWAP1 DUP1 MLOAD SWAP1 PUSH1 0x20 ADD SWAP1 PUSH2 0x520 SWAP3 SWAP2 SWAP1 PUSH2 0x2410 JUMP JUMPDEST POP PUSH1 0x60 DUP3 ADD MLOAD DUP2 PUSH1 0x3 ADD SWAP1 DUP1 MLOAD SWAP1 PUSH1 0x20 ADD SWAP1 PUSH2 0x53D SWAP3 SWAP2 SWAP1 PUSH2 0x2410 JUMP JUMPDEST POP PUSH1 0x80 DUP3 ADD MLOAD DUP2 PUSH1 0x4 ADD SWAP1 DUP1 MLOAD SWAP1 PUSH1 0x20 ADD SWAP1 PUSH2 0x55A SWAP3 SWAP2 SWAP1 PUSH2 0x2410 JUMP JUMPDEST POP POP POP POP POP POP POP POP POP JUMP JUMPDEST DUP2 PUSH1 0x0 DUP1 CALLER PUSH20 0xFFFFFFFFFFFFFFFFFFFFFFFFFFFFFFFFFFFFFFFF AND PUSH20 0xFFFFFFFFFFFFFFFFFFFFFFFFFFFFFFFFFFFFFFFF AND DUP2 MSTORE PUSH1 0x20 ADD SWAP1 DUP2 MSTORE PUSH1 0x20 ADD PUSH1 0x0 KECCAK256 PUSH1 0x12 ADD PUSH1 0x1 ADD SWAP1 DUP1 MLOAD SWAP1 PUSH1 0x20 ADD SWAP1 PUSH2 0x5BD SWAP3 SWAP2 SWAP1 PUSH2 0x2381 JUMP JUMPDEST POP DUP1 PUSH1 0x0 DUP1 CALLER PUSH20 0xFFFFFFFFFFFFFFFFFFFFFFFFFFFFFFFFFFFFFFFF AND PUSH20 0xFFFFFFFFFFFFFFFFFFFFFFFFFFFFFFFFFFFFFFFF AND DUP2 MSTORE PUSH1 0x20 ADD SWAP1 DUP2 MSTORE PUSH1 0x20 ADD PUSH1 0x0 KECCAK256 PUSH1 0x12 ADD PUSH1 0x0 ADD SWAP1 DUP1 MLOAD SWAP1 PUSH1 0x20 ADD SWAP1 PUSH2 0x616 SWAP3 SWAP2 SWAP1 PUSH2 0x2381 JUMP JUMPDEST POP POP POP JUMP JUMPDEST PUSH1 0x0 DUP1 CALLER PUSH20 0xFFFFFFFFFFFFFFFFFFFFFFFFFFFFFFFFFFFFFFFF AND PUSH20 0xFFFFFFFFFFFFFFFFFFFFFFFFFFFFFFFFFFFFFFFF AND DUP2 MSTORE PUSH1 0x20 ADD SWAP1 DUP2 MSTORE PUSH1 0x20 ADD PUSH1 0x0 KECCAK256 PUSH1 0x8 ADD PUSH1 0x0 DUP1 DUP3 ADD PUSH1 0x0 PUSH2 0x66D SWAP2 SWAP1 PUSH2 0x2496 JUMP JUMPDEST PUSH1 0x1 DUP3 ADD PUSH1 0x0 PUSH2 0x67D SWAP2 SWAP1 PUSH2 0x2496 JUMP JUMPDEST PUSH1 0x2 DUP3 ADD PUSH1 0x0 PUSH2 0x68D SWAP2 SWAP1 PUSH2 0x2496 JUMP JUMPDEST PUSH1 0x3 DUP3 ADD PUSH1 0x0 PUSH2 0x69D SWAP2 SWAP1 PUSH2 0x2496 JUMP JUMPDEST PUSH1 0x4 DUP3 ADD PUSH1 0x0 PUSH2 0x6AD SWAP2 SWAP1 PUSH2 0x2496 JUMP JUMPDEST PUSH1 0x5 DUP3 ADD PUSH1 0x0 PUSH2 0x6BD SWAP2 SWAP1 PUSH2 0x2496 JUMP JUMPDEST POP POP DUP5 PUSH1 0x0 DUP1 CALLER PUSH20 0xFFFFFFFFFFFFFFFFFFFFFFFFFFFFFFFFFFFFFFFF AND PUSH20 0xFFFFFFFFFFFFFFFFFFFFFFFFFFFFFFFFFFFFFFFF AND DUP2 MSTORE PUSH1 0x20 ADD SWAP1 DUP2 MSTORE PUSH1 0x20 ADD PUSH1 0x0 KECCAK256 PUSH1 0x8 ADD PUSH1 0x1 ADD SWAP1 DUP1 MLOAD SWAP1 PUSH1 0x20 ADD SWAP1 PUSH2 0x717 SWAP3 SWAP2 SWAP1 PUSH2 0x2410 JUMP JUMPDEST POP DUP4 PUSH1 0x0 DUP1 CALLER PUSH20 0xFFFFFFFFFFFFFFFFFFFFFFFFFFFFFFFFFFFFFFFF AND PUSH20 0xFFFFFFFFFFFFFFFFFFFFFFFFFFFFFFFFFFFFFFFF AND DUP2 MSTORE PUSH1 0x20 ADD SWAP1 DUP2 MSTORE PUSH1 0x20 ADD PUSH1 0x0 KECCAK256 PUSH1 0x8 ADD PUSH1 0x2 ADD SWAP1 DUP1 MLOAD SWAP1 PUSH1 0x20 ADD SWAP1 PUSH2 0x770 SWAP3 SWAP2 SWAP1 PUSH2 0x2410 JUMP JUMPDEST POP DUP3 PUSH1 0x0 DUP1 CALLER PUSH20 0xFFFFFFFFFFFFFFFFFFFFFFFFFFFFFFFFFFFFFFFF AND PUSH20 0xFFFFFFFFFFFFFFFFFFFFFFFFFFFFFFFFFFFFFFFF AND DUP2 MSTORE PUSH1 0x20 ADD SWAP1 DUP2 MSTORE PUSH1 0x20 ADD PUSH1 0x0 KECCAK256 PUSH1 0x8 ADD PUSH1 0x3 ADD SWAP1 DUP1 MLOAD SWAP1 PUSH1 0x20 ADD SWAP1 PUSH2 0x7C9 SWAP3 SWAP2 SWAP1 PUSH2 0x2410 JUMP JUMPDEST POP DUP2 PUSH1 0x0 DUP1 CALLER PUSH20 0xFFFFFFFFFFFFFFFFFFFFFFFFFFFFFFFFFFFFFFFF AND PUSH20 0xFFFFFFFFFFFFFFFFFFFFFFFFFFFFFFFFFFFFFFFF AND DUP2 MSTORE PUSH1 0x20 ADD SWAP1 DUP2 MSTORE PUSH1 0x20 ADD PUSH1 0x0 KECCAK256 PUSH1 0x8 ADD PUSH1 0x2 ADD SWAP1 DUP1 MLOAD SWAP1 PUSH1 0x20 ADD SWAP1 PUSH2 0x822 SWAP3 SWAP2 SWAP1 PUSH2 0x2410 JUMP JUMPDEST POP DUP1 PUSH1 0x0 DUP1 CALLER PUSH20 0xFFFFFFFFFFFFFFFFFFFFFFFFFFFFFFFFFFFFFFFF AND PUSH20 0xFFFFFFFFFFFFFFFFFFFFFFFFFFFFFFFFFFFFFFFF AND DUP2 MSTORE PUSH1 0x20 ADD SWAP1 DUP2 MSTORE PUSH1 0x20 ADD PUSH1 0x0 KECCAK256 PUSH1 0x8 ADD PUSH1 0x1 ADD SWAP1 DUP1 MLOAD SWAP1 PUSH1 0x20 ADD SWAP1 PUSH2 0x87B SWAP3 SWAP2 SWAP1 PUSH2 0x2410 JUMP JUMPDEST POP POP POP POP POP POP JUMP JUMPDEST DUP6 PUSH1 0x0 DUP1 CALLER PUSH20 0xFFFFFFFFFFFFFFFFFFFFFFFFFFFFFFFFFFFFFFFF AND PUSH20 0xFFFFFFFFFFFFFFFFFFFFFFFFFFFFFFFFFFFFFFFF AND DUP2 MSTORE PUSH1 0x20 ADD SWAP1 DUP2 MSTORE PUSH1 0x20 ADD PUSH1 0x0 KECCAK256 PUSH1 0x0 ADD PUSH1 0x3 ADD SWAP1 DUP1 MLOAD SWAP1 PUSH1 0x20 ADD SWAP1 PUSH2 0x8DB SWAP3 SWAP2 SWAP1 PUSH2 0x2410 JUMP JUMPDEST POP DUP5 PUSH1 0x0 DUP1 CALLER PUSH20 0xFFFFFFFFFFFFFFFFFFFFFFFFFFFFFFFFFFFFFFFF AND PUSH20 0xFFFFFFFFFFFFFFFFFFFFFFFFFFFFFFFFFFFFFFFF AND DUP2 MSTORE PUSH1 0x20 ADD SWAP1 DUP2 MSTORE PUSH1 0x20 ADD PUSH1 0x0 KECCAK256 PUSH1 0x0 ADD PUSH1 0x4 ADD SWAP1 DUP1 MLOAD SWAP1 PUSH1 0x20 ADD SWAP1 PUSH2 0x934 SWAP3 SWAP2 SWAP1 PUSH2 0x2410 JUMP JUMPDEST POP DUP4 PUSH1 0x0 DUP1 CALLER PUSH20 0xFFFFFFFFFFFFFFFFFFFFFFFFFFFFFFFFFFFFFFFF AND PUSH20 0xFFFFFFFFFFFFFFFFFFFFFFFFFFFFFFFFFFFFFFFF AND DUP2 MSTORE PUSH1 0x20 ADD SWAP1 DUP2 MSTORE PUSH1 0x20 ADD PUSH1 0x0 KECCAK256 PUSH1 0x0 ADD PUSH1 0x5 ADD SWAP1 DUP1 MLOAD SWAP1 PUSH1 0x20 ADD SWAP1 PUSH2 0x98D SWAP3 SWAP2 SWAP1 PUSH2 0x2410 JUMP JUMPDEST POP DUP3 PUSH1 0x0 DUP1 CALLER PUSH20 0xFFFFFFFFFFFFFFFFFFFFFFFFFFFFFFFFFFFFFFFF AND PUSH20 0xFFFFFFFFFFFFFFFFFFFFFFFFFFFFFFFFFFFFFFFF AND DUP2 MSTORE PUSH1 0x20 ADD SWAP1 DUP2 MSTORE PUSH1 0x20 ADD PUSH1 0x0 KECCAK256 PUSH1 0x0 ADD PUSH1 0x6 ADD SWAP1 DUP1 MLOAD SWAP1 PUSH1 0x20 ADD SWAP1 PUSH2 0x9E6 SWAP3 SWAP2 SWAP1 PUSH2 0x2410 JUMP JUMPDEST POP DUP2 PUSH1 0x0 DUP1 CALLER PUSH20 0xFFFFFFFFFFFFFFFFFFFFFFFFFFFFFFFFFFFFFFFF AND PUSH20 0xFFFFFFFFFFFFFFFFFFFFFFFFFFFFFFFFFFFFFFFF AND DUP2 MSTORE PUSH1 0x20 ADD SWAP1 DUP2 MSTORE PUSH1 0x20 ADD PUSH1 0x0 KECCAK256 PUSH1 0x0 ADD PUSH1 0x0 ADD SWAP1 DUP1 MLOAD SWAP1 PUSH1 0x20 ADD SWAP1 PUSH2 0xA3F SWAP3 SWAP2 SWAP1 PUSH2 0x2410 JUMP JUMPDEST POP DUP1 PUSH1 0x0 DUP1 CALLER PUSH20 0xFFFFFFFFFFFFFFFFFFFFFFFFFFFFFFFFFFFFFFFF AND PUSH20 0xFFFFFFFFFFFFFFFFFFFFFFFFFFFFFFFFFFFFFFFF AND DUP2 MSTORE PUSH1 0x20 ADD SWAP1 DUP2 MSTORE PUSH1 0x20 ADD PUSH1 0x0 KECCAK256 PUSH1 0x0 ADD PUSH1 0x1 ADD SWAP1 DUP1 MLOAD SWAP1 PUSH1 0x20 ADD SWAP1 PUSH2 0xA98 SWAP3 SWAP2 SWAP1 PUSH2 0x2410 JUMP JUMPDEST POP CALLER PUSH1 0x0 DUP1 CALLER PUSH20 0xFFFFFFFFFFFFFFFFFFFFFFFFFFFFFFFFFFFFFFFF AND PUSH20 0xFFFFFFFFFFFFFFFFFFFFFFFFFFFFFFFFFFFFFFFF AND DUP2 MSTORE PUSH1 0x20 ADD SWAP1 DUP2 MSTORE PUSH1 0x20 ADD PUSH1 0x0 KECCAK256 PUSH1 0x0 ADD PUSH1 0x2 ADD PUSH1 0x0 PUSH2 0x100 EXP DUP2 SLOAD DUP2 PUSH20 0xFFFFFFFFFFFFFFFFFFFFFFFFFFFFFFFFFFFFFFFF MUL NOT AND SWAP1 DUP4 PUSH20 0xFFFFFFFFFFFFFFFFFFFFFFFFFFFFFFFFFFFFFFFF AND MUL OR SWAP1 SSTORE POP TIMESTAMP PUSH1 0x0 DUP1 CALLER PUSH20 0xFFFFFFFFFFFFFFFFFFFFFFFFFFFFFFFFFFFFFFFF AND PUSH20 0xFFFFFFFFFFFFFFFFFFFFFFFFFFFFFFFFFFFFFFFF AND DUP2 MSTORE PUSH1 0x20 ADD SWAP1 DUP2 MSTORE PUSH1 0x20 ADD PUSH1 0x0 KECCAK256 PUSH1 0x0 ADD PUSH1 0x7 ADD DUP2 SWAP1 SSTORE POP POP POP POP POP POP POP JUMP JUMPDEST PUSH1 0x0 DUP1 CALLER PUSH20 0xFFFFFFFFFFFFFFFFFFFFFFFFFFFFFFFFFFFFFFFF AND PUSH20 0xFFFFFFFFFFFFFFFFFFFFFFFFFFFFFFFFFFFFFFFF AND DUP2 MSTORE PUSH1 0x20 ADD SWAP1 DUP2 MSTORE PUSH1 0x20 ADD PUSH1 0x0 KECCAK256 PUSH1 0x0 ADD PUSH1 0x0 DUP1 DUP3 ADD PUSH1 0x0 PUSH2 0xBBF SWAP2 SWAP1 PUSH2 0x2496 JUMP JUMPDEST PUSH1 0x1 DUP3 ADD PUSH1 0x0 PUSH2 0xBCF SWAP2 SWAP1 PUSH2 0x2496 JUMP JUMPDEST PUSH1 0x2 DUP3 ADD PUSH1 0x0 PUSH2 0x100 EXP DUP2 SLOAD SWAP1 PUSH20 0xFFFFFFFFFFFFFFFFFFFFFFFFFFFFFFFFFFFFFFFF MUL NOT AND SWAP1 SSTORE PUSH1 0x3 DUP3 ADD PUSH1 0x0 PUSH2 0xC06 SWAP2 SWAP1 PUSH2 0x2496 JUMP JUMPDEST PUSH1 0x4 DUP3 ADD PUSH1 0x0 PUSH2 0xC16 SWAP2 SWAP1 PUSH2 0x2496 JUMP JUMPDEST PUSH1 0x5 DUP3 ADD PUSH1 0x0 PUSH2 0xC26 SWAP2 SWAP1 PUSH2 0x2496 JUMP JUMPDEST PUSH1 0x6 DUP3 ADD PUSH1 0x0 PUSH2 0xC36 SWAP2 SWAP1 PUSH2 0x2496 JUMP JUMPDEST PUSH1 0x7 DUP3 ADD PUSH1 0x0 SWAP1 SSTORE POP POP JUMP JUMPDEST PUSH1 0x0 PUSH1 0x20 MSTORE DUP1 PUSH1 0x0 MSTORE PUSH1 0x40 PUSH1 0x0 KECCAK256 PUSH1 0x0 SWAP2 POP SWAP1 POP DUP1 PUSH1 0x0 ADD PUSH1 0x40 MLOAD DUP1 PUSH2 0x100 ADD PUSH1 0x40 MSTORE SWAP1 DUP2 PUSH1 0x0 DUP3 ADD DUP1 SLOAD PUSH2 0xC76 SWAP1 PUSH2 0x3134 JUMP JUMPDEST DUP1 PUSH1 0x1F ADD PUSH1 0x20 DUP1 SWAP2 DIV MUL PUSH1 0x20 ADD PUSH1 0x40 MLOAD SWAP1 DUP2 ADD PUSH1 0x40 MSTORE DUP1 SWAP3 SWAP2 SWAP1 DUP2 DUP2 MSTORE PUSH1 0x20 ADD DUP3 DUP1 SLOAD PUSH2 0xCA2 SWAP1 PUSH2 0x3134 JUMP JUMPDEST DUP1 ISZERO PUSH2 0xCEF JUMPI DUP1 PUSH1 0x1F LT PUSH2 0xCC4 JUMPI PUSH2 0x100 DUP1 DUP4 SLOAD DIV MUL DUP4 MSTORE SWAP2 PUSH1 0x20 ADD SWAP2 PUSH2 0xCEF JUMP JUMPDEST DUP3 ADD SWAP2 SWAP1 PUSH1 0x0 MSTORE PUSH1 0x20 PUSH1 0x0 KECCAK256 SWAP1 JUMPDEST DUP2 SLOAD DUP2 MSTORE SWAP1 PUSH1 0x1 ADD SWAP1 PUSH1 0x20 ADD DUP1 DUP4 GT PUSH2 0xCD2 JUMPI DUP3 SWAP1 SUB PUSH1 0x1F AND DUP3 ADD SWAP2 JUMPDEST POP POP POP POP POP DUP2 MSTORE PUSH1 0x20 ADD PUSH1 0x1 DUP3 ADD DUP1 SLOAD PUSH2 0xD08 SWAP1 PUSH2 0x3134 JUMP JUMPDEST DUP1 PUSH1 0x1F ADD PUSH1 0x20 DUP1 SWAP2 DIV MUL PUSH1 0x20 ADD PUSH1 0x40 MLOAD SWAP1 DUP2 ADD PUSH1 0x40 MSTORE DUP1 SWAP3 SWAP2 SWAP1 DUP2 DUP2 MSTORE PUSH1 0x20 ADD DUP3 DUP1 SLOAD PUSH2 0xD34 SWAP1 PUSH2 0x3134 JUMP JUMPDEST DUP1 ISZERO PUSH2 0xD81 JUMPI DUP1 PUSH1 0x1F LT PUSH2 0xD56 JUMPI PUSH2 0x100 DUP1 DUP4 SLOAD DIV MUL DUP4 MSTORE SWAP2 PUSH1 0x20 ADD SWAP2 PUSH2 0xD81 JUMP JUMPDEST DUP3 ADD SWAP2 SWAP1 PUSH1 0x0 MSTORE PUSH1 0x20 PUSH1 0x0 KECCAK256 SWAP1 JUMPDEST DUP2 SLOAD DUP2 MSTORE SWAP1 PUSH1 0x1 ADD SWAP1 PUSH1 0x20 ADD DUP1 DUP4 GT PUSH2 0xD64 JUMPI DUP3 SWAP1 SUB PUSH1 0x1F AND DUP3 ADD SWAP2 JUMPDEST POP POP POP POP POP DUP2 MSTORE PUSH1 0x20 ADD PUSH1 0x2 DUP3 ADD PUSH1 0x0 SWAP1 SLOAD SWAP1 PUSH2 0x100 EXP SWAP1 DIV PUSH20 0xFFFFFFFFFFFFFFFFFFFFFFFFFFFFFFFFFFFFFFFF AND PUSH20 0xFFFFFFFFFFFFFFFFFFFFFFFFFFFFFFFFFFFFFFFF AND PUSH20 0xFFFFFFFFFFFFFFFFFFFFFFFFFFFFFFFFFFFFFFFF AND DUP2 MSTORE PUSH1 0x20 ADD PUSH1 0x3 DUP3 ADD DUP1 SLOAD PUSH2 0xDF0 SWAP1 PUSH2 0x3134 JUMP JUMPDEST DUP1 PUSH1 0x1F ADD PUSH1 0x20 DUP1 SWAP2 DIV MUL PUSH1 0x20 ADD PUSH1 0x40 MLOAD SWAP1 DUP2 ADD PUSH1 0x40 MSTORE DUP1 SWAP3 SWAP2 SWAP1 DUP2 DUP2 MSTORE PUSH1 0x20 ADD DUP3 DUP1 SLOAD PUSH2 0xE1C SWAP1 PUSH2 0x3134 JUMP JUMPDEST DUP1 ISZERO PUSH2 0xE69 JUMPI DUP1 PUSH1 0x1F LT PUSH2 0xE3E JUMPI PUSH2 0x100 DUP1 DUP4 SLOAD DIV MUL DUP4 MSTORE SWAP2 PUSH1 0x20 ADD SWAP2 PUSH2 0xE69 JUMP JUMPDEST DUP3 ADD SWAP2 SWAP1 PUSH1 0x0 MSTORE PUSH1 0x20 PUSH1 0x0 KECCAK256 SWAP1 JUMPDEST DUP2 SLOAD DUP2 MSTORE SWAP1 PUSH1 0x1 ADD SWAP1 PUSH1 0x20 ADD DUP1 DUP4 GT PUSH2 0xE4C JUMPI DUP3 SWAP1 SUB PUSH1 0x1F AND DUP3 ADD SWAP2 JUMPDEST POP POP POP POP POP DUP2 MSTORE PUSH1 0x20 ADD PUSH1 0x4 DUP3 ADD DUP1 SLOAD PUSH2 0xE82 SWAP1 PUSH2 0x3134 JUMP JUMPDEST DUP1 PUSH1 0x1F ADD PUSH1 0x20 DUP1 SWAP2 DIV MUL PUSH1 0x20 ADD PUSH1 0x40 MLOAD SWAP1 DUP2 ADD PUSH1 0x40 MSTORE DUP1 SWAP3 SWAP2 SWAP1 DUP2 DUP2 MSTORE PUSH1 0x20 ADD DUP3 DUP1 SLOAD PUSH2 0xEAE SWAP1 PUSH2 0x3134 JUMP JUMPDEST DUP1 ISZERO PUSH2 0xEFB JUMPI DUP1 PUSH1 0x1F LT PUSH2 0xED0 JUMPI PUSH2 0x100 DUP1 DUP4 SLOAD DIV MUL DUP4 MSTORE SWAP2 PUSH1 0x20 ADD SWAP2 PUSH2 0xEFB JUMP JUMPDEST DUP3 ADD SWAP2 SWAP1 PUSH1 0x0 MSTORE PUSH1 0x20 PUSH1 0x0 KECCAK256 SWAP1 JUMPDEST DUP2 SLOAD DUP2 MSTORE SWAP1 PUSH1 0x1 ADD SWAP1 PUSH1 0x20 ADD DUP1 DUP4 GT PUSH2 0xEDE JUMPI DUP3 SWAP1 SUB PUSH1 0x1F AND DUP3 ADD SWAP2 JUMPDEST POP POP POP POP POP DUP2 MSTORE PUSH1 0x20 ADD PUSH1 0x5 DUP3 ADD DUP1 SLOAD PUSH2 0xF14 SWAP1 PUSH2 0x3134 JUMP JUMPDEST DUP1 PUSH1 0x1F ADD PUSH1 0x20 DUP1 SWAP2 DIV MUL PUSH1 0x20 ADD PUSH1 0x40 MLOAD SWAP1 DUP2 ADD PUSH1 0x40 MSTORE DUP1 SWAP3 SWAP2 SWAP1 DUP2 DUP2 MSTORE PUSH1 0x20 ADD DUP3 DUP1 SLOAD PUSH2 0xF40 SWAP1 PUSH2 0x3134 JUMP JUMPDEST DUP1 ISZERO PUSH2 0xF8D JUMPI DUP1 PUSH1 0x1F LT PUSH2 0xF62 JUMPI PUSH2 0x100 DUP1 DUP4 SLOAD DIV MUL DUP4 MSTORE SWAP2 PUSH1 0x20 ADD SWAP2 PUSH2 0xF8D JUMP JUMPDEST DUP3 ADD SWAP2 SWAP1 PUSH1 0x0 MSTORE PUSH1 0x20 PUSH1 0x0 KECCAK256 SWAP1 JUMPDEST DUP2 SLOAD DUP2 MSTORE SWAP1 PUSH1 0x1 ADD SWAP1 PUSH1 0x20 ADD DUP1 DUP4 GT PUSH2 0xF70 JUMPI DUP3 SWAP1 SUB PUSH1 0x1F AND DUP3 ADD SWAP2 JUMPDEST POP POP POP POP POP DUP2 MSTORE PUSH1 0x20 ADD PUSH1 0x6 DUP3 ADD DUP1 SLOAD PUSH2 0xFA6 SWAP1 PUSH2 0x3134 JUMP JUMPDEST DUP1 PUSH1 0x1F ADD PUSH1 0x20 DUP1 SWAP2 DIV MUL PUSH1 0x20 ADD PUSH1 0x40 MLOAD SWAP1 DUP2 ADD PUSH1 0x40 MSTORE DUP1 SWAP3 SWAP2 SWAP1 DUP2 DUP2 MSTORE PUSH1 0x20 ADD DUP3 DUP1 SLOAD PUSH2 0xFD2 SWAP1 PUSH2 0x3134 JUMP JUMPDEST DUP1 ISZERO PUSH2 0x101F JUMPI DUP1 PUSH1 0x1F LT PUSH2 0xFF4 JUMPI PUSH2 0x100 DUP1 DUP4 SLOAD DIV MUL DUP4 MSTORE SWAP2 PUSH1 0x20 ADD SWAP2 PUSH2 0x101F JUMP JUMPDEST DUP3 ADD SWAP2 SWAP1 PUSH1 0x0 MSTORE PUSH1 0x20 PUSH1 0x0 KECCAK256 SWAP1 JUMPDEST DUP2 SLOAD DUP2 MSTORE SWAP1 PUSH1 0x1 ADD SWAP1 PUSH1 0x20 ADD DUP1 DUP4 GT PUSH2 0x1002 JUMPI DUP3 SWAP1 SUB PUSH1 0x1F AND DUP3 ADD SWAP2 JUMPDEST POP POP POP POP POP DUP2 MSTORE PUSH1 0x20 ADD PUSH1 0x7 DUP3 ADD SLOAD DUP2 MSTORE POP POP SWAP1 DUP1 PUSH1 0x8 ADD PUSH1 0x40 MLOAD DUP1 PUSH1 0xC0 ADD PUSH1 0x40 MSTORE SWAP1 DUP2 PUSH1 0x0 DUP3 ADD DUP1 SLOAD PUSH2 0x1052 SWAP1 PUSH2 0x3134 JUMP JUMPDEST DUP1 PUSH1 0x1F ADD PUSH1 0x20 DUP1 SWAP2 DIV MUL PUSH1 0x20 ADD PUSH1 0x40 MLOAD SWAP1 DUP2 ADD PUSH1 0x40 MSTORE DUP1 SWAP3 SWAP2 SWAP1 DUP2 DUP2 MSTORE PUSH1 0x20 ADD DUP3 DUP1 SLOAD PUSH2 0x107E SWAP1 PUSH2 0x3134 JUMP JUMPDEST DUP1 ISZERO PUSH2 0x10CB JUMPI DUP1 PUSH1 0x1F LT PUSH2 0x10A0 JUMPI PUSH2 0x100 DUP1 DUP4 SLOAD DIV MUL DUP4 MSTORE SWAP2 PUSH1 0x20 ADD SWAP2 PUSH2 0x10CB JUMP JUMPDEST DUP3 ADD SWAP2 SWAP1 PUSH1 0x0 MSTORE PUSH1 0x20 PUSH1 0x0 KECCAK256 SWAP1 JUMPDEST DUP2 SLOAD DUP2 MSTORE SWAP1 PUSH1 0x1 ADD SWAP1 PUSH1 0x20 ADD DUP1 DUP4 GT PUSH2 0x10AE JUMPI DUP3 SWAP1 SUB PUSH1 0x1F AND DUP3 ADD SWAP2 JUMPDEST POP POP POP POP POP DUP2 MSTORE PUSH1 0x20 ADD PUSH1 0x1 DUP3 ADD DUP1 SLOAD PUSH2 0x10E4 SWAP1 PUSH2 0x3134 JUMP JUMPDEST DUP1 PUSH1 0x1F ADD PUSH1 0x20 DUP1 SWAP2 DIV MUL PUSH1 0x20 ADD PUSH1 0x40 MLOAD SWAP1 DUP2 ADD PUSH1 0x40 MSTORE DUP1 SWAP3 SWAP2 SWAP1 DUP2 DUP2 MSTORE PUSH1 0x20 ADD DUP3 DUP1 SLOAD PUSH2 0x1110 SWAP1 PUSH2 0x3134 JUMP JUMPDEST DUP1 ISZERO PUSH2 0x115D JUMPI DUP1 PUSH1 0x1F LT PUSH2 0x1132 JUMPI PUSH2 0x100 DUP1 DUP4 SLOAD DIV MUL DUP4 MSTORE SWAP2 PUSH1 0x20 ADD SWAP2 PUSH2 0x115D JUMP JUMPDEST DUP3 ADD SWAP2 SWAP1 PUSH1 0x0 MSTORE PUSH1 0x20 PUSH1 0x0 KECCAK256 SWAP1 JUMPDEST DUP2 SLOAD DUP2 MSTORE SWAP1 PUSH1 0x1 ADD SWAP1 PUSH1 0x20 ADD DUP1 DUP4 GT PUSH2 0x1140 JUMPI DUP3 SWAP1 SUB PUSH1 0x1F AND DUP3 ADD SWAP2 JUMPDEST POP POP POP POP POP DUP2 MSTORE PUSH1 0x20 ADD PUSH1 0x2 DUP3 ADD DUP1 SLOAD PUSH2 0x1176 SWAP1 PUSH2 0x3134 JUMP JUMPDEST DUP1 PUSH1 0x1F ADD PUSH1 0x20 DUP1 SWAP2 DIV MUL PUSH1 0x20 ADD PUSH1 0x40 MLOAD SWAP1 DUP2 ADD PUSH1 0x40 MSTORE DUP1 SWAP3 SWAP2 SWAP1 DUP2 DUP2 MSTORE PUSH1 0x20 ADD DUP3 DUP1 SLOAD PUSH2 0x11A2 SWAP1 PUSH2 0x3134 JUMP JUMPDEST DUP1 ISZERO PUSH2 0x11EF JUMPI DUP1 PUSH1 0x1F LT PUSH2 0x11C4 JUMPI PUSH2 0x100 DUP1 DUP4 SLOAD DIV MUL DUP4 MSTORE SWAP2 PUSH1 0x20 ADD SWAP2 PUSH2 0x11EF JUMP JUMPDEST DUP3 ADD SWAP2 SWAP1 PUSH1 0x0 MSTORE PUSH1 0x20 PUSH1 0x0 KECCAK256 SWAP1 JUMPDEST DUP2 SLOAD DUP2 MSTORE SWAP1 PUSH1 0x1 ADD SWAP1 PUSH1 0x20 ADD DUP1 DUP4 GT PUSH2 0x11D2 JUMPI DUP3 SWAP1 SUB PUSH1 0x1F AND DUP3 ADD SWAP2 JUMPDEST POP POP POP POP POP DUP2 MSTORE PUSH1 0x20 ADD PUSH1 0x3 DUP3 ADD DUP1 SLOAD PUSH2 0x1208 SWAP1 PUSH2 0x3134 JUMP JUMPDEST DUP1 PUSH1 0x1F ADD PUSH1 0x20 DUP1 SWAP2 DIV MUL PUSH1 0x20 ADD PUSH1 0x40 MLOAD SWAP1 DUP2 ADD PUSH1 0x40 MSTORE DUP1 SWAP3 SWAP2 SWAP1 DUP2 DUP2 MSTORE PUSH1 0x20 ADD DUP3 DUP1 SLOAD PUSH2 0x1234 SWAP1 PUSH2 0x3134 JUMP JUMPDEST DUP1 ISZERO PUSH2 0x1281 JUMPI DUP1 PUSH1 0x1F LT PUSH2 0x1256 JUMPI PUSH2 0x100 DUP1 DUP4 SLOAD DIV MUL DUP4 MSTORE SWAP2 PUSH1 0x20 ADD SWAP2 PUSH2 0x1281 JUMP JUMPDEST DUP3 ADD SWAP2 SWAP1 PUSH1 0x0 MSTORE PUSH1 0x20 PUSH1 0x0 KECCAK256 SWAP1 JUMPDEST DUP2 SLOAD DUP2 MSTORE SWAP1 PUSH1 0x1 ADD SWAP1 PUSH1 0x20 ADD DUP1 DUP4 GT PUSH2 0x1264 JUMPI DUP3 SWAP1 SUB PUSH1 0x1F AND DUP3 ADD SWAP2 JUMPDEST POP POP POP POP POP DUP2 MSTORE PUSH1 0x20 ADD PUSH1 0x4 DUP3 ADD DUP1 SLOAD PUSH2 0x129A SWAP1 PUSH2 0x3134 JUMP JUMPDEST DUP1 PUSH1 0x1F ADD PUSH1 0x20 DUP1 SWAP2 DIV MUL PUSH1 0x20 ADD PUSH1 0x40 MLOAD SWAP1 DUP2 ADD PUSH1 0x40 MSTORE DUP1 SWAP3 SWAP2 SWAP1 DUP2 DUP2 MSTORE PUSH1 0x20 ADD DUP3 DUP1 SLOAD PUSH2 0x12C6 SWAP1 PUSH2 0x3134 JUMP JUMPDEST DUP1 ISZERO PUSH2 0x1313 JUMPI DUP1 PUSH1 0x1F LT PUSH2 0x12E8 JUMPI PUSH2 0x100 DUP1 DUP4 SLOAD DIV MUL DUP4 MSTORE SWAP2 PUSH1 0x20 ADD SWAP2 PUSH2 0x1313 JUMP JUMPDEST DUP3 ADD SWAP2 SWAP1 PUSH1 0x0 MSTORE PUSH1 0x20 PUSH1 0x0 KECCAK256 SWAP1 JUMPDEST DUP2 SLOAD DUP2 MSTORE SWAP1 PUSH1 0x1 ADD SWAP1 PUSH1 0x20 ADD DUP1 DUP4 GT PUSH2 0x12F6 JUMPI DUP3 SWAP1 SUB PUSH1 0x1F AND DUP3 ADD SWAP2 JUMPDEST POP POP POP POP POP DUP2 MSTORE PUSH1 0x20 ADD PUSH1 0x5 DUP3 ADD DUP1 SLOAD PUSH2 0x132C SWAP1 PUSH2 0x3134 JUMP JUMPDEST DUP1 PUSH1 0x1F ADD PUSH1 0x20 DUP1 SWAP2 DIV MUL PUSH1 0x20 ADD PUSH1 0x40 MLOAD SWAP1 DUP2 ADD PUSH1 0x40 MSTORE DUP1 SWAP3 SWAP2 SWAP1 DUP2 DUP2 MSTORE PUSH1 0x20 ADD DUP3 DUP1 SLOAD PUSH2 0x1358 SWAP1 PUSH2 0x3134 JUMP JUMPDEST DUP1 ISZERO PUSH2 0x13A5 JUMPI DUP1 PUSH1 0x1F LT PUSH2 0x137A JUMPI PUSH2 0x100 DUP1 DUP4 SLOAD DIV MUL DUP4 MSTORE SWAP2 PUSH1 0x20 ADD SWAP2 PUSH2 0x13A5 JUMP JUMPDEST DUP3 ADD SWAP2 SWAP1 PUSH1 0x0 MSTORE PUSH1 0x20 PUSH1 0x0 KECCAK256 SWAP1 JUMPDEST DUP2 SLOAD DUP2 MSTORE SWAP1 PUSH1 0x1 ADD SWAP1 PUSH1 0x20 ADD DUP1 DUP4 GT PUSH2 0x1388 JUMPI DUP3 SWAP1 SUB PUSH1 0x1F AND DUP3 ADD SWAP2 JUMPDEST POP POP POP POP POP DUP2 MSTORE POP POP SWAP1 DUP1 PUSH1 0xE ADD PUSH1 0x40 MLOAD DUP1 PUSH1 0x60 ADD PUSH1 0x40 MSTORE SWAP1 DUP2 PUSH1 0x0 DUP3 ADD DUP1 SLOAD DUP1 PUSH1 0x20 MUL PUSH1 0x20 ADD PUSH1 0x40 MLOAD SWAP1 DUP2 ADD PUSH1 0x40 MSTORE DUP1 SWAP3 SWAP2 SWAP1 DUP2 DUP2 MSTORE PUSH1 0x20 ADD PUSH1 0x0 SWAP1 JUMPDEST DUP3 DUP3 LT ISZERO PUSH2 0x148F JUMPI DUP4 DUP3 SWAP1 PUSH1 0x0 MSTORE PUSH1 0x20 PUSH1 0x0 KECCAK256 ADD DUP1 SLOAD PUSH2 0x1402 SWAP1 PUSH2 0x3134 JUMP JUMPDEST DUP1 PUSH1 0x1F ADD PUSH1 0x20 DUP1 SWAP2 DIV MUL PUSH1 0x20 ADD PUSH1 0x40 MLOAD SWAP1 DUP2 ADD PUSH1 0x40 MSTORE DUP1 SWAP3 SWAP2 SWAP1 DUP2 DUP2 MSTORE PUSH1 0x20 ADD DUP3 DUP1 SLOAD PUSH2 0x142E SWAP1 PUSH2 0x3134 JUMP JUMPDEST DUP1 ISZERO PUSH2 0x147B JUMPI DUP1 PUSH1 0x1F LT PUSH2 0x1450 JUMPI PUSH2 0x100 DUP1 DUP4 SLOAD DIV MUL DUP4 MSTORE SWAP2 PUSH1 0x20 ADD SWAP2 PUSH2 0x147B JUMP JUMPDEST DUP3 ADD SWAP2 SWAP1 PUSH1 0x0 MSTORE PUSH1 0x20 PUSH1 0x0 KECCAK256 SWAP1 JUMPDEST DUP2 SLOAD DUP2 MSTORE SWAP1 PUSH1 0x1 ADD SWAP1 PUSH1 0x20 ADD DUP1 DUP4 GT PUSH2 0x145E JUMPI DUP3 SWAP1 SUB PUSH1 0x1F AND DUP3 ADD SWAP2 JUMPDEST POP POP POP POP POP DUP2 MSTORE PUSH1 0x20 ADD SWAP1 PUSH1 0x1 ADD SWAP1 PUSH2 0x13E3 JUMP JUMPDEST POP POP POP POP DUP2 MSTORE PUSH1 0x20 ADD PUSH1 0x1 DUP3 ADD DUP1 SLOAD DUP1 PUSH1 0x20 MUL PUSH1 0x20 ADD PUSH1 0x40 MLOAD SWAP1 DUP2 ADD PUSH1 0x40 MSTORE DUP1 SWAP3 SWAP2 SWAP1 DUP2 DUP2 MSTORE PUSH1 0x20 ADD PUSH1 0x0 SWAP1 JUMPDEST DUP3 DUP3 LT ISZERO PUSH2 0x1568 JUMPI DUP4 DUP3 SWAP1 PUSH1 0x0 MSTORE PUSH1 0x20 PUSH1 0x0 KECCAK256 ADD DUP1 SLOAD PUSH2 0x14DB SWAP1 PUSH2 0x3134 JUMP JUMPDEST DUP1 PUSH1 0x1F ADD PUSH1 0x20 DUP1 SWAP2 DIV MUL PUSH1 0x20 ADD PUSH1 0x40 MLOAD SWAP1 DUP2 ADD PUSH1 0x40 MSTORE DUP1 SWAP3 SWAP2 SWAP1 DUP2 DUP2 MSTORE PUSH1 0x20 ADD DUP3 DUP1 SLOAD PUSH2 0x1507 SWAP1 PUSH2 0x3134 JUMP JUMPDEST DUP1 ISZERO PUSH2 0x1554 JUMPI DUP1 PUSH1 0x1F LT PUSH2 0x1529 JUMPI PUSH2 0x100 DUP1 DUP4 SLOAD DIV MUL DUP4 MSTORE SWAP2 PUSH1 0x20 ADD SWAP2 PUSH2 0x1554 JUMP JUMPDEST DUP3 ADD SWAP2 SWAP1 PUSH1 0x0 MSTORE PUSH1 0x20 PUSH1 0x0 KECCAK256 SWAP1 JUMPDEST DUP2 SLOAD DUP2 MSTORE SWAP1 PUSH1 0x1 ADD SWAP1 PUSH1 0x20 ADD DUP1 DUP4 GT PUSH2 0x1537 JUMPI DUP3 SWAP1 SUB PUSH1 0x1F AND DUP3 ADD SWAP2 JUMPDEST POP POP POP POP POP DUP2 MSTORE PUSH1 0x20 ADD SWAP1 PUSH1 0x1 ADD SWAP1 PUSH2 0x14BC JUMP JUMPDEST POP POP POP POP DUP2 MSTORE PUSH1 0x20 ADD PUSH1 0x2 DUP3 ADD DUP1 SLOAD DUP1 PUSH1 0x20 MUL PUSH1 0x20 ADD PUSH1 0x40 MLOAD SWAP1 DUP2 ADD PUSH1 0x40 MSTORE DUP1 SWAP3 SWAP2 SWAP1 DUP2 DUP2 MSTORE PUSH1 0x20 ADD PUSH1 0x0 SWAP1 JUMPDEST DUP3 DUP3 LT ISZERO PUSH2 0x1641 JUMPI DUP4 DUP3 SWAP1 PUSH1 0x0 MSTORE PUSH1 0x20 PUSH1 0x0 KECCAK256 ADD DUP1 SLOAD PUSH2 0x15B4 SWAP1 PUSH2 0x3134 JUMP JUMPDEST DUP1 PUSH1 0x1F ADD PUSH1 0x20 DUP1 SWAP2 DIV MUL PUSH1 0x20 ADD PUSH1 0x40 MLOAD SWAP1 DUP2 ADD PUSH1 0x40 MSTORE DUP1 SWAP3 SWAP2 SWAP1 DUP2 DUP2 MSTORE PUSH1 0x20 ADD DUP3 DUP1 SLOAD PUSH2 0x15E0 SWAP1 PUSH2 0x3134 JUMP JUMPDEST DUP1 ISZERO PUSH2 0x162D JUMPI DUP1 PUSH1 0x1F LT PUSH2 0x1602 JUMPI PUSH2 0x100 DUP1 DUP4 SLOAD DIV MUL DUP4 MSTORE SWAP2 PUSH1 0x20 ADD SWAP2 PUSH2 0x162D JUMP JUMPDEST DUP3 ADD SWAP2 SWAP1 PUSH1 0x0 MSTORE PUSH1 0x20 PUSH1 0x0 KECCAK256 SWAP1 JUMPDEST DUP2 SLOAD DUP2 MSTORE SWAP1 PUSH1 0x1 ADD SWAP1 PUSH1 0x20 ADD DUP1 DUP4 GT PUSH2 0x1610 JUMPI DUP3 SWAP1 SUB PUSH1 0x1F AND DUP3 ADD SWAP2 JUMPDEST POP POP POP POP POP DUP2 MSTORE PUSH1 0x20 ADD SWAP1 PUSH1 0x1 ADD SWAP1 PUSH2 0x1595 JUMP JUMPDEST POP POP POP POP DUP2 MSTORE POP POP SWAP1 DUP1 PUSH1 0x12 ADD PUSH1 0x40 MLOAD DUP1 PUSH1 0x40 ADD PUSH1 0x40 MSTORE SWAP1 DUP2 PUSH1 0x0 DUP3 ADD DUP1 SLOAD DUP1 PUSH1 0x20 MUL PUSH1 0x20 ADD PUSH1 0x40 MLOAD SWAP1 DUP2 ADD PUSH1 0x40 MSTORE DUP1 SWAP3 SWAP2 SWAP1 DUP2 DUP2 MSTORE PUSH1 0x20 ADD PUSH1 0x0 SWAP1 JUMPDEST DUP3 DUP3 LT ISZERO PUSH2 0x172A JUMPI DUP4 DUP3 SWAP1 PUSH1 0x0 MSTORE PUSH1 0x20 PUSH1 0x0 KECCAK256 ADD DUP1 SLOAD PUSH2 0x169D SWAP1 PUSH2 0x3134 JUMP JUMPDEST DUP1 PUSH1 0x1F ADD PUSH1 0x20 DUP1 SWAP2 DIV MUL PUSH1 0x20 ADD PUSH1 0x40 MLOAD SWAP1 DUP2 ADD PUSH1 0x40 MSTORE DUP1 SWAP3 SWAP2 SWAP1 DUP2 DUP2 MSTORE PUSH1 0x20 ADD DUP3 DUP1 SLOAD PUSH2 0x16C9 SWAP1 PUSH2 0x3134 JUMP JUMPDEST DUP1 ISZERO PUSH2 0x1716 JUMPI DUP1 PUSH1 0x1F LT PUSH2 0x16EB JUMPI PUSH2 0x100 DUP1 DUP4 SLOAD DIV MUL DUP4 MSTORE SWAP2 PUSH1 0x20 ADD SWAP2 PUSH2 0x1716 JUMP JUMPDEST DUP3 ADD SWAP2 SWAP1 PUSH1 0x0 MSTORE PUSH1 0x20 PUSH1 0x0 KECCAK256 SWAP1 JUMPDEST DUP2 SLOAD DUP2 MSTORE SWAP1 PUSH1 0x1 ADD SWAP1 PUSH1 0x20 ADD DUP1 DUP4 GT PUSH2 0x16F9 JUMPI DUP3 SWAP1 SUB PUSH1 0x1F AND DUP3 ADD SWAP2 JUMPDEST POP POP POP POP POP DUP2 MSTORE PUSH1 0x20 ADD SWAP1 PUSH1 0x1 ADD SWAP1 PUSH2 0x167E JUMP JUMPDEST POP POP POP POP DUP2 MSTORE PUSH1 0x20 ADD PUSH1 0x1 DUP3 ADD DUP1 SLOAD DUP1 PUSH1 0x20 MUL PUSH1 0x20 ADD PUSH1 0x40 MLOAD SWAP1 DUP2 ADD PUSH1 0x40 MSTORE DUP1 SWAP3 SWAP2 SWAP1 DUP2 DUP2 MSTORE PUSH1 0x20 ADD PUSH1 0x0 SWAP1 JUMPDEST DUP3 DUP3 LT ISZERO PUSH2 0x1803 JUMPI DUP4 DUP3 SWAP1 PUSH1 0x0 MSTORE PUSH1 0x20 PUSH1 0x0 KECCAK256 ADD DUP1 SLOAD PUSH2 0x1776 SWAP1 PUSH2 0x3134 JUMP JUMPDEST DUP1 PUSH1 0x1F ADD PUSH1 0x20 DUP1 SWAP2 DIV MUL PUSH1 0x20 ADD PUSH1 0x40 MLOAD SWAP1 DUP2 ADD PUSH1 0x40 MSTORE DUP1 SWAP3 SWAP2 SWAP1 DUP2 DUP2 MSTORE PUSH1 0x20 ADD DUP3 DUP1 SLOAD PUSH2 0x17A2 SWAP1 PUSH2 0x3134 JUMP JUMPDEST DUP1 ISZERO PUSH2 0x17EF JUMPI DUP1 PUSH1 0x1F LT PUSH2 0x17C4 JUMPI PUSH2 0x100 DUP1 DUP4 SLOAD DIV MUL DUP4 MSTORE SWAP2 PUSH1 0x20 ADD SWAP2 PUSH2 0x17EF JUMP JUMPDEST DUP3 ADD SWAP2 SWAP1 PUSH1 0x0 MSTORE PUSH1 0x20 PUSH1 0x0 KECCAK256 SWAP1 JUMPDEST DUP2 SLOAD DUP2 MSTORE SWAP1 PUSH1 0x1 ADD SWAP1 PUSH1 0x20 ADD DUP1 DUP4 GT PUSH2 0x17D2 JUMPI DUP3 SWAP1 SUB PUSH1 0x1F AND DUP3 ADD SWAP2 JUMPDEST POP POP POP POP POP DUP2 MSTORE PUSH1 0x20 ADD SWAP1 PUSH1 0x1 ADD SWAP1 PUSH2 0x1757 JUMP JUMPDEST POP POP POP POP DUP2 MSTORE POP POP SWAP1 DUP1 PUSH1 0x14 ADD PUSH1 0x40 MLOAD DUP1 PUSH1 0xA0 ADD PUSH1 0x40 MSTORE SWAP1 DUP2 PUSH1 0x0 DUP3 ADD DUP1 SLOAD PUSH2 0x182B SWAP1 PUSH2 0x3134 JUMP JUMPDEST DUP1 PUSH1 0x1F ADD PUSH1 0x20 DUP1 SWAP2 DIV MUL PUSH1 0x20 ADD PUSH1 0x40 MLOAD SWAP1 DUP2 ADD PUSH1 0x40 MSTORE DUP1 SWAP3 SWAP2 SWAP1 DUP2 DUP2 MSTORE PUSH1 0x20 ADD DUP3 DUP1 SLOAD PUSH2 0x1857 SWAP1 PUSH2 0x3134 JUMP JUMPDEST DUP1 ISZERO PUSH2 0x18A4 JUMPI DUP1 PUSH1 0x1F LT PUSH2 0x1879 JUMPI PUSH2 0x100 DUP1 DUP4 SLOAD DIV MUL DUP4 MSTORE SWAP2 PUSH1 0x20 ADD SWAP2 PUSH2 0x18A4 JUMP JUMPDEST DUP3 ADD SWAP2 SWAP1 PUSH1 0x0 MSTORE PUSH1 0x20 PUSH1 0x0 KECCAK256 SWAP1 JUMPDEST DUP2 SLOAD DUP2 MSTORE SWAP1 PUSH1 0x1 ADD SWAP1 PUSH1 0x20 ADD DUP1 DUP4 GT PUSH2 0x1887 JUMPI DUP3 SWAP1 SUB PUSH1 0x1F AND DUP3 ADD SWAP2 JUMPDEST POP POP POP POP POP DUP2 MSTORE PUSH1 0x20 ADD PUSH1 0x1 DUP3 ADD DUP1 SLOAD PUSH2 0x18BD SWAP1 PUSH2 0x3134 JUMP JUMPDEST DUP1 PUSH1 0x1F ADD PUSH1 0x20 DUP1 SWAP2 DIV MUL PUSH1 0x20 ADD PUSH1 0x40 MLOAD SWAP1 DUP2 ADD PUSH1 0x40 MSTORE DUP1 SWAP3 SWAP2 SWAP1 DUP2 DUP2 MSTORE PUSH1 0x20 ADD DUP3 DUP1 SLOAD PUSH2 0x18E9 SWAP1 PUSH2 0x3134 JUMP JUMPDEST DUP1 ISZERO PUSH2 0x1936 JUMPI DUP1 PUSH1 0x1F LT PUSH2 0x190B JUMPI PUSH2 0x100 DUP1 DUP4 SLOAD DIV MUL DUP4 MSTORE SWAP2 PUSH1 0x20 ADD SWAP2 PUSH2 0x1936 JUMP JUMPDEST DUP3 ADD SWAP2 SWAP1 PUSH1 0x0 MSTORE PUSH1 0x20 PUSH1 0x0 KECCAK256 SWAP1 JUMPDEST DUP2 SLOAD DUP2 MSTORE SWAP1 PUSH1 0x1 ADD SWAP1 PUSH1 0x20 ADD DUP1 DUP4 GT PUSH2 0x1919 JUMPI DUP3 SWAP1 SUB PUSH1 0x1F AND DUP3 ADD SWAP2 JUMPDEST POP POP POP POP POP DUP2 MSTORE PUSH1 0x20 ADD PUSH1 0x2 DUP3 ADD DUP1 SLOAD PUSH2 0x194F SWAP1 PUSH2 0x3134 JUMP JUMPDEST DUP1 PUSH1 0x1F ADD PUSH1 0x20 DUP1 SWAP2 DIV MUL PUSH1 0x20 ADD PUSH1 0x40 MLOAD SWAP1 DUP2 ADD PUSH1 0x40 MSTORE DUP1 SWAP3 SWAP2 SWAP1 DUP2 DUP2 MSTORE PUSH1 0x20 ADD DUP3 DUP1 SLOAD PUSH2 0x197B SWAP1 PUSH2 0x3134 JUMP JUMPDEST DUP1 ISZERO PUSH2 0x19C8 JUMPI DUP1 PUSH1 0x1F LT PUSH2 0x199D JUMPI PUSH2 0x100 DUP1 DUP4 SLOAD DIV MUL DUP4 MSTORE SWAP2 PUSH1 0x20 ADD SWAP2 PUSH2 0x19C8 JUMP JUMPDEST DUP3 ADD SWAP2 SWAP1 PUSH1 0x0 MSTORE PUSH1 0x20 PUSH1 0x0 KECCAK256 SWAP1 JUMPDEST DUP2 SLOAD DUP2 MSTORE SWAP1 PUSH1 0x1 ADD SWAP1 PUSH1 0x20 ADD DUP1 DUP4 GT PUSH2 0x19AB JUMPI DUP3 SWAP1 SUB PUSH1 0x1F AND DUP3 ADD SWAP2 JUMPDEST POP POP POP POP POP DUP2 MSTORE PUSH1 0x20 ADD PUSH1 0x3 DUP3 ADD DUP1 SLOAD PUSH2 0x19E1 SWAP1 PUSH2 0x3134 JUMP JUMPDEST DUP1 PUSH1 0x1F ADD PUSH1 0x20 DUP1 SWAP2 DIV MUL PUSH1 0x20 ADD PUSH1 0x40 MLOAD SWAP1 DUP2 ADD PUSH1 0x40 MSTORE DUP1 SWAP3 SWAP2 SWAP1 DUP2 DUP2 MSTORE PUSH1 0x20 ADD DUP3 DUP1 SLOAD PUSH2 0x1A0D SWAP1 PUSH2 0x3134 JUMP JUMPDEST DUP1 ISZERO PUSH2 0x1A5A JUMPI DUP1 PUSH1 0x1F LT PUSH2 0x1A2F JUMPI PUSH2 0x100 DUP1 DUP4 SLOAD DIV MUL DUP4 MSTORE SWAP2 PUSH1 0x20 ADD SWAP2 PUSH2 0x1A5A JUMP JUMPDEST DUP3 ADD SWAP2 SWAP1 PUSH1 0x0 MSTORE PUSH1 0x20 PUSH1 0x0 KECCAK256 SWAP1 JUMPDEST DUP2 SLOAD DUP2 MSTORE SWAP1 PUSH1 0x1 ADD SWAP1 PUSH1 0x20 ADD DUP1 DUP4 GT PUSH2 0x1A3D JUMPI DUP3 SWAP1 SUB PUSH1 0x1F AND DUP3 ADD SWAP2 JUMPDEST POP POP POP POP POP DUP2 MSTORE PUSH1 0x20 ADD PUSH1 0x4 DUP3 ADD DUP1 SLOAD DUP1 PUSH1 0x20 MUL PUSH1 0x20 ADD PUSH1 0x40 MLOAD SWAP1 DUP2 ADD PUSH1 0x40 MSTORE DUP1 SWAP3 SWAP2 SWAP1 DUP2 DUP2 MSTORE PUSH1 0x20 ADD PUSH1 0x0 SWAP1 JUMPDEST DUP3 DUP3 LT ISZERO PUSH2 0x1B34 JUMPI DUP4 DUP3 SWAP1 PUSH1 0x0 MSTORE PUSH1 0x20 PUSH1 0x0 KECCAK256 ADD DUP1 SLOAD PUSH2 0x1AA7 SWAP1 PUSH2 0x3134 JUMP JUMPDEST DUP1 PUSH1 0x1F ADD PUSH1 0x20 DUP1 SWAP2 DIV MUL PUSH1 0x20 ADD PUSH1 0x40 MLOAD SWAP1 DUP2 ADD PUSH1 0x40 MSTORE DUP1 SWAP3 SWAP2 SWAP1 DUP2 DUP2 MSTORE PUSH1 0x20 ADD DUP3 DUP1 SLOAD PUSH2 0x1AD3 SWAP1 PUSH2 0x3134 JUMP JUMPDEST DUP1 ISZERO PUSH2 0x1B20 JUMPI DUP1 PUSH1 0x1F LT PUSH2 0x1AF5 JUMPI PUSH2 0x100 DUP1 DUP4 SLOAD DIV MUL DUP4 MSTORE SWAP2 PUSH1 0x20 ADD SWAP2 PUSH2 0x1B20 JUMP JUMPDEST DUP3 ADD SWAP2 SWAP1 PUSH1 0x0 MSTORE PUSH1 0x20 PUSH1 0x0 KECCAK256 SWAP1 JUMPDEST DUP2 SLOAD DUP2 MSTORE SWAP1 PUSH1 0x1 ADD SWAP1 PUSH1 0x20 ADD DUP1 DUP4 GT PUSH2 0x1B03 JUMPI DUP3 SWAP1 SUB PUSH1 0x1F AND DUP3 ADD SWAP2 JUMPDEST POP POP POP POP POP DUP2 MSTORE PUSH1 0x20 ADD SWAP1 PUSH1 0x1 ADD SWAP1 PUSH2 0x1A88 JUMP JUMPDEST POP POP POP POP DUP2 MSTORE POP POP SWAP1 DUP1 PUSH1 0x19 ADD PUSH1 0x40 MLOAD DUP1 PUSH1 0x20 ADD PUSH1 0x40 MSTORE SWAP1 DUP2 PUSH1 0x0 DUP3 ADD DUP1 SLOAD DUP1 PUSH1 0x20 MUL PUSH1 0x20 ADD PUSH1 0x40 MLOAD SWAP1 DUP2 ADD PUSH1 0x40 MSTORE DUP1 SWAP3 SWAP2 SWAP1 DUP2 DUP2 MSTORE PUSH1 0x20 ADD PUSH1 0x0 SWAP1 JUMPDEST DUP3 DUP3 LT ISZERO PUSH2 0x1C1D JUMPI DUP4 DUP3 SWAP1 PUSH1 0x0 MSTORE PUSH1 0x20 PUSH1 0x0 KECCAK256 ADD DUP1 SLOAD PUSH2 0x1B90 SWAP1 PUSH2 0x3134 JUMP JUMPDEST DUP1 PUSH1 0x1F ADD PUSH1 0x20 DUP1 SWAP2 DIV MUL PUSH1 0x20 ADD PUSH1 0x40 MLOAD SWAP1 DUP2 ADD PUSH1 0x40 MSTORE DUP1 SWAP3 SWAP2 SWAP1 DUP2 DUP2 MSTORE PUSH1 0x20 ADD DUP3 DUP1 SLOAD PUSH2 0x1BBC SWAP1 PUSH2 0x3134 JUMP JUMPDEST DUP1 ISZERO PUSH2 0x1C09 JUMPI DUP1 PUSH1 0x1F LT PUSH2 0x1BDE JUMPI PUSH2 0x100 DUP1 DUP4 SLOAD DIV MUL DUP4 MSTORE SWAP2 PUSH1 0x20 ADD SWAP2 PUSH2 0x1C09 JUMP JUMPDEST DUP3 ADD SWAP2 SWAP1 PUSH1 0x0 MSTORE PUSH1 0x20 PUSH1 0x0 KECCAK256 SWAP1 JUMPDEST DUP2 SLOAD DUP2 MSTORE SWAP1 PUSH1 0x1 ADD SWAP1 PUSH1 0x20 ADD DUP1 DUP4 GT PUSH2 0x1BEC JUMPI DUP3 SWAP1 SUB PUSH1 0x1F AND DUP3 ADD SWAP2 JUMPDEST POP POP POP POP POP DUP2 MSTORE PUSH1 0x20 ADD SWAP1 PUSH1 0x1 ADD SWAP1 PUSH2 0x1B71 JUMP JUMPDEST POP POP POP POP DUP2 MSTORE POP POP SWAP1 POP DUP7 JUMP JUMPDEST PUSH1 0x0 DUP1 CALLER PUSH20 0xFFFFFFFFFFFFFFFFFFFFFFFFFFFFFFFFFFFFFFFF AND PUSH20 0xFFFFFFFFFFFFFFFFFFFFFFFFFFFFFFFFFFFFFFFF AND DUP2 MSTORE PUSH1 0x20 ADD SWAP1 DUP2 MSTORE PUSH1 0x20 ADD PUSH1 0x0 KECCAK256 PUSH1 0x11 ADD PUSH1 0x0 PUSH2 0x1C77 SWAP2 SWAP1 PUSH2 0x24D6 JUMP JUMPDEST JUMP JUMPDEST PUSH1 0x60 DUP1 PUSH1 0x60 DUP1 PUSH1 0x60 PUSH1 0x0 DUP1 CALLER PUSH20 0xFFFFFFFFFFFFFFFFFFFFFFFFFFFFFFFFFFFFFFFF AND PUSH20 0xFFFFFFFFFFFFFFFFFFFFFFFFFFFFFFFFFFFFFFFF AND DUP2 MSTORE PUSH1 0x20 ADD SWAP1 DUP2 MSTORE PUSH1 0x20 ADD PUSH1 0x0 KECCAK256 PUSH1 0x11 ADD DUP7 DUP2 SLOAD DUP2 LT PUSH2 0x1CD4 JUMPI PUSH2 0x1CD3 PUSH2 0x31C6 JUMP JUMPDEST JUMPDEST SWAP1 PUSH1 0x0 MSTORE PUSH1 0x20 PUSH1 0x0 KECCAK256 SWAP1 PUSH1 0x5 MUL ADD PUSH1 0x0 ADD PUSH1 0x0 DUP1 CALLER PUSH20 0xFFFFFFFFFFFFFFFFFFFFFFFFFFFFFFFFFFFFFFFF AND PUSH20 0xFFFFFFFFFFFFFFFFFFFFFFFFFFFFFFFFFFFFFFFF AND DUP2 MSTORE PUSH1 0x20 ADD SWAP1 DUP2 MSTORE PUSH1 0x20 ADD PUSH1 0x0 KECCAK256 PUSH1 0x11 ADD DUP8 DUP2 SLOAD DUP2 LT PUSH2 0x1D38 JUMPI PUSH2 0x1D37 PUSH2 0x31C6 JUMP JUMPDEST JUMPDEST SWAP1 PUSH1 0x0 MSTORE PUSH1 0x20 PUSH1 0x0 KECCAK256 SWAP1 PUSH1 0x5 MUL ADD PUSH1 0x1 ADD PUSH1 0x0 DUP1 CALLER PUSH20 0xFFFFFFFFFFFFFFFFFFFFFFFFFFFFFFFFFFFFFFFF AND PUSH20 0xFFFFFFFFFFFFFFFFFFFFFFFFFFFFFFFFFFFFFFFF AND DUP2 MSTORE PUSH1 0x20 ADD SWAP1 DUP2 MSTORE PUSH1 0x20 ADD PUSH1 0x0 KECCAK256 PUSH1 0x11 ADD DUP9 DUP2 SLOAD DUP2 LT PUSH2 0x1D9C JUMPI PUSH2 0x1D9B PUSH2 0x31C6 JUMP JUMPDEST JUMPDEST SWAP1 PUSH1 0x0 MSTORE PUSH1 0x20 PUSH1 0x0 KECCAK256 SWAP1 PUSH1 0x5 MUL ADD PUSH1 0x2 ADD PUSH1 0x0 DUP1 CALLER PUSH20 0xFFFFFFFFFFFFFFFFFFFFFFFFFFFFFFFFFFFFFFFF AND PUSH20 0xFFFFFFFFFFFFFFFFFFFFFFFFFFFFFFFFFFFFFFFF AND DUP2 MSTORE PUSH1 0x20 ADD SWAP1 DUP2 MSTORE PUSH1 0x20 ADD PUSH1 0x0 KECCAK256 PUSH1 0x11 ADD DUP10 DUP2 SLOAD DUP2 LT PUSH2 0x1E00 JUMPI PUSH2 0x1DFF PUSH2 0x31C6 JUMP JUMPDEST JUMPDEST SWAP1 PUSH1 0x0 MSTORE PUSH1 0x20 PUSH1 0x0 KECCAK256 SWAP1 PUSH1 0x5 MUL ADD PUSH1 0x3 ADD PUSH1 0x0 DUP1 CALLER PUSH20 0xFFFFFFFFFFFFFFFFFFFFFFFFFFFFFFFFFFFFFFFF AND PUSH20 0xFFFFFFFFFFFFFFFFFFFFFFFFFFFFFFFFFFFFFFFF AND DUP2 MSTORE PUSH1 0x20 ADD SWAP1 DUP2 MSTORE PUSH1 0x20 ADD PUSH1 0x0 KECCAK256 PUSH1 0x11 ADD DUP11 DUP2 SLOAD DUP2 LT PUSH2 0x1E64 JUMPI PUSH2 0x1E63 PUSH2 0x31C6 JUMP JUMPDEST JUMPDEST SWAP1 PUSH1 0x0 MSTORE PUSH1 0x20 PUSH1 0x0 KECCAK256 SWAP1 PUSH1 0x5 MUL ADD PUSH1 0x4 ADD DUP5 DUP1 SLOAD PUSH2 0x1E81 SWAP1 PUSH2 0x3134 JUMP JUMPDEST DUP1 PUSH1 0x1F ADD PUSH1 0x20 DUP1 SWAP2 DIV MUL PUSH1 0x20 ADD PUSH1 0x40 MLOAD SWAP1 DUP2 ADD PUSH1 0x40 MSTORE DUP1 SWAP3 SWAP2 SWAP1 DUP2 DUP2 MSTORE PUSH1 0x20 ADD DUP3 DUP1 SLOAD PUSH2 0x1EAD SWAP1 PUSH2 0x3134 JUMP JUMPDEST DUP1 ISZERO PUSH2 0x1EFA JUMPI DUP1 PUSH1 0x1F LT PUSH2 0x1ECF JUMPI PUSH2 0x100 DUP1 DUP4 SLOAD DIV MUL DUP4 MSTORE SWAP2 PUSH1 0x20 ADD SWAP2 PUSH2 0x1EFA JUMP JUMPDEST DUP3 ADD SWAP2 SWAP1 PUSH1 0x0 MSTORE PUSH1 0x20 PUSH1 0x0 KECCAK256 SWAP1 JUMPDEST DUP2 SLOAD DUP2 MSTORE SWAP1 PUSH1 0x1 ADD SWAP1 PUSH1 0x20 ADD DUP1 DUP4 GT PUSH2 0x1EDD JUMPI DUP3 SWAP1 SUB PUSH1 0x1F AND DUP3 ADD SWAP2 JUMPDEST POP POP POP POP POP SWAP5 POP DUP4 DUP1 SLOAD PUSH2 0x1F0D SWAP1 PUSH2 0x3134 JUMP JUMPDEST DUP1 PUSH1 0x1F ADD PUSH1 0x20 DUP1 SWAP2 DIV MUL PUSH1 0x20 ADD PUSH1 0x40 MLOAD SWAP1 DUP2 ADD PUSH1 0x40 MSTORE DUP1 SWAP3 SWAP2 SWAP1 DUP2 DUP2 MSTORE PUSH1 0x20 ADD DUP3 DUP1 SLOAD PUSH2 0x1F39 SWAP1 PUSH2 0x3134 JUMP JUMPDEST DUP1 ISZERO PUSH2 0x1F86 JUMPI DUP1 PUSH1 0x1F LT PUSH2 0x1F5B JUMPI PUSH2 0x100 DUP1 DUP4 SLOAD DIV MUL DUP4 MSTORE SWAP2 PUSH1 0x20 ADD SWAP2 PUSH2 0x1F86 JUMP JUMPDEST DUP3 ADD SWAP2 SWAP1 PUSH1 0x0 MSTORE PUSH1 0x20 PUSH1 0x0 KECCAK256 SWAP1 JUMPDEST DUP2 SLOAD DUP2 MSTORE SWAP1 PUSH1 0x1 ADD SWAP1 PUSH1 0x20 ADD DUP1 DUP4 GT PUSH2 0x1F69 JUMPI DUP3 SWAP1 SUB PUSH1 0x1F AND DUP3 ADD SWAP2 JUMPDEST POP POP POP POP POP SWAP4 POP DUP3 DUP1 SLOAD PUSH2 0x1F99 SWAP1 PUSH2 0x3134 JUMP JUMPDEST DUP1 PUSH1 0x1F ADD PUSH1 0x20 DUP1 SWAP2 DIV MUL PUSH1 0x20 ADD PUSH1 0x40 MLOAD SWAP1 DUP2 ADD PUSH1 0x40 MSTORE DUP1 SWAP3 SWAP2 SWAP1 DUP2 DUP2 MSTORE PUSH1 0x20 ADD DUP3 DUP1 SLOAD PUSH2 0x1FC5 SWAP1 PUSH2 0x3134 JUMP JUMPDEST DUP1 ISZERO PUSH2 0x2012 JUMPI DUP1 PUSH1 0x1F LT PUSH2 0x1FE7 JUMPI PUSH2 0x100 DUP1 DUP4 SLOAD DIV MUL DUP4 MSTORE SWAP2 PUSH1 0x20 ADD SWAP2 PUSH2 0x2012 JUMP JUMPDEST DUP3 ADD SWAP2 SWAP1 PUSH1 0x0 MSTORE PUSH1 0x20 PUSH1 0x0 KECCAK256 SWAP1 JUMPDEST DUP2 SLOAD DUP2 MSTORE SWAP1 PUSH1 0x1 ADD SWAP1 PUSH1 0x20 ADD DUP1 DUP4 GT PUSH2 0x1FF5 JUMPI DUP3 SWAP1 SUB PUSH1 0x1F AND DUP3 ADD SWAP2 JUMPDEST POP POP POP POP POP SWAP3 POP DUP2 DUP1 SLOAD PUSH2 0x2025 SWAP1 PUSH2 0x3134 JUMP JUMPDEST DUP1 PUSH1 0x1F ADD PUSH1 0x20 DUP1 SWAP2 DIV MUL PUSH1 0x20 ADD PUSH1 0x40 MLOAD SWAP1 DUP2 ADD PUSH1 0x40 MSTORE DUP1 SWAP3 SWAP2 SWAP1 DUP2 DUP2 MSTORE PUSH1 0x20 ADD DUP3 DUP1 SLOAD PUSH2 0x2051 SWAP1 PUSH2 0x3134 JUMP JUMPDEST DUP1 ISZERO PUSH2 0x209E JUMPI DUP1 PUSH1 0x1F LT PUSH2 0x2073 JUMPI PUSH2 0x100 DUP1 DUP4 SLOAD DIV MUL DUP4 MSTORE SWAP2 PUSH1 0x20 ADD SWAP2 PUSH2 0x209E JUMP JUMPDEST DUP3 ADD SWAP2 SWAP1 PUSH1 0x0 MSTORE PUSH1 0x20 PUSH1 0x0 KECCAK256 SWAP1 JUMPDEST DUP2 SLOAD DUP2 MSTORE SWAP1 PUSH1 0x1 ADD SWAP1 PUSH1 0x20 ADD DUP1 DUP4 GT PUSH2 0x2081 JUMPI DUP3 SWAP1 SUB PUSH1 0x1F AND DUP3 ADD SWAP2 JUMPDEST POP POP POP POP POP SWAP2 POP DUP1 DUP1 SLOAD PUSH2 0x20B1 SWAP1 PUSH2 0x3134 JUMP JUMPDEST DUP1 PUSH1 0x1F ADD PUSH1 0x20 DUP1 SWAP2 DIV MUL PUSH1 0x20 ADD PUSH1 0x40 MLOAD SWAP1 DUP2 ADD PUSH1 0x40 MSTORE DUP1 SWAP3 SWAP2 SWAP1 DUP2 DUP2 MSTORE PUSH1 0x20 ADD DUP3 DUP1 SLOAD PUSH2 0x20DD SWAP1 PUSH2 0x3134 JUMP JUMPDEST DUP1 ISZERO PUSH2 0x212A JUMPI DUP1 PUSH1 0x1F LT PUSH2 0x20FF JUMPI PUSH2 0x100 DUP1 DUP4 SLOAD DIV MUL DUP4 MSTORE SWAP2 PUSH1 0x20 ADD SWAP2 PUSH2 0x212A JUMP JUMPDEST DUP3 ADD SWAP2 SWAP1 PUSH1 0x0 MSTORE PUSH1 0x20 PUSH1 0x0 KECCAK256 SWAP1 JUMPDEST DUP2 SLOAD DUP2 MSTORE SWAP1 PUSH1 0x1 ADD SWAP1 PUSH1 0x20 ADD DUP1 DUP4 GT PUSH2 0x210D JUMPI DUP3 SWAP1 SUB PUSH1 0x1F AND DUP3 ADD SWAP2 JUMPDEST POP POP POP POP POP SWAP1 POP SWAP5 POP SWAP5 POP SWAP5 POP SWAP5 POP SWAP5 POP SWAP2 SWAP4 SWAP6 SWAP1 SWAP3 SWAP5 POP JUMP JUMPDEST PUSH1 0x0 DUP1 CALLER PUSH20 0xFFFFFFFFFFFFFFFFFFFFFFFFFFFFFFFFFFFFFFFF AND PUSH20 0xFFFFFFFFFFFFFFFFFFFFFFFFFFFFFFFFFFFFFFFF AND DUP2 MSTORE PUSH1 0x20 ADD SWAP1 DUP2 MSTORE PUSH1 0x20 ADD PUSH1 0x0 KECCAK256 PUSH1 0x0 DUP1 DUP3 ADD PUSH1 0x0 DUP1 DUP3 ADD PUSH1 0x0 PUSH2 0x2198 SWAP2 SWAP1 PUSH2 0x2496 JUMP JUMPDEST PUSH1 0x1 DUP3 ADD PUSH1 0x0 PUSH2 0x21A8 SWAP2 SWAP1 PUSH2 0x2496 JUMP JUMPDEST PUSH1 0x2 DUP3 ADD PUSH1 0x0 PUSH2 0x100 EXP DUP2 SLOAD SWAP1 PUSH20 0xFFFFFFFFFFFFFFFFFFFFFFFFFFFFFFFFFFFFFFFF MUL NOT AND SWAP1 SSTORE PUSH1 0x3 DUP3 ADD PUSH1 0x0 PUSH2 0x21DF SWAP2 SWAP1 PUSH2 0x2496 JUMP JUMPDEST PUSH1 0x4 DUP3 ADD PUSH1 0x0 PUSH2 0x21EF SWAP2 SWAP1 PUSH2 0x2496 JUMP JUMPDEST PUSH1 0x5 DUP3 ADD PUSH1 0x0 PUSH2 0x21FF SWAP2 SWAP1 PUSH2 0x2496 JUMP JUMPDEST PUSH1 0x6 DUP3 ADD PUSH1 0x0 PUSH2 0x220F SWAP2 SWAP1 PUSH2 0x2496 JUMP JUMPDEST PUSH1 0x7 DUP3 ADD PUSH1 0x0 SWAP1 SSTORE POP POP PUSH1 0x8 DUP3 ADD PUSH1 0x0 DUP1 DUP3 ADD PUSH1 0x0 PUSH2 0x222E SWAP2 SWAP1 PUSH2 0x2496 JUMP JUMPDEST PUSH1 0x1 DUP3 ADD PUSH1 0x0 PUSH2 0x223E SWAP2 SWAP1 PUSH2 0x2496 JUMP JUMPDEST PUSH1 0x2 DUP3 ADD PUSH1 0x0 PUSH2 0x224E SWAP2 SWAP1 PUSH2 0x2496 JUMP JUMPDEST PUSH1 0x3 DUP3 ADD PUSH1 0x0 PUSH2 0x225E SWAP2 SWAP1 PUSH2 0x2496 JUMP JUMPDEST PUSH1 0x4 DUP3 ADD PUSH1 0x0 PUSH2 0x226E SWAP2 SWAP1 PUSH2 0x2496 JUMP JUMPDEST PUSH1 0x5 DUP3 ADD PUSH1 0x0 PUSH2 0x227E SWAP2 SWAP1 PUSH2 0x2496 JUMP JUMPDEST POP POP PUSH1 0xE DUP3 ADD PUSH1 0x0 DUP1 DUP3 ADD PUSH1 0x0 PUSH2 0x2295 SWAP2 SWAP1 PUSH2 0x2360 JUMP JUMPDEST PUSH1 0x1 DUP3 ADD PUSH1 0x0 PUSH2 0x22A5 SWAP2 SWAP1 PUSH2 0x2360 JUMP JUMPDEST PUSH1 0x2 DUP3 ADD PUSH1 0x0 PUSH2 0x22B5 SWAP2 SWAP1 PUSH2 0x2360 JUMP JUMPDEST POP POP PUSH1 0x11 DUP3 ADD PUSH1 0x0 PUSH2 0x22C7 SWAP2 SWAP1 PUSH2 0x24D6 JUMP JUMPDEST PUSH1 0x12 DUP3 ADD PUSH1 0x0 DUP1 DUP3 ADD PUSH1 0x0 PUSH2 0x22DC SWAP2 SWAP1 PUSH2 0x2360 JUMP JUMPDEST PUSH1 0x1 DUP3 ADD PUSH1 0x0 PUSH2 0x22EC SWAP2 SWAP1 PUSH2 0x2360 JUMP JUMPDEST POP POP PUSH1 0x14 DUP3 ADD PUSH1 0x0 DUP1 DUP3 ADD PUSH1 0x0 PUSH2 0x2303 SWAP2 SWAP1 PUSH2 0x2496 JUMP JUMPDEST PUSH1 0x1 DUP3 ADD PUSH1 0x0 PUSH2 0x2313 SWAP2 SWAP1 PUSH2 0x2496 JUMP JUMPDEST PUSH1 0x2 DUP3 ADD PUSH1 0x0 PUSH2 0x2323 SWAP2 SWAP1 PUSH2 0x2496 JUMP JUMPDEST PUSH1 0x3 DUP3 ADD PUSH1 0x0 PUSH2 0x2333 SWAP2 SWAP1 PUSH2 0x2496 JUMP JUMPDEST PUSH1 0x4 DUP3 ADD PUSH1 0x0 PUSH2 0x2343 SWAP2 SWAP1 PUSH2 0x2360 JUMP JUMPDEST POP POP PUSH1 0x19 DUP3 ADD PUSH1 0x0 DUP1 DUP3 ADD PUSH1 0x0 PUSH2 0x235A SWAP2 SWAP1 PUSH2 0x2360 JUMP JUMPDEST POP POP POP POP JUMP JUMPDEST POP DUP1 SLOAD PUSH1 0x0 DUP3 SSTORE SWAP1 PUSH1 0x0 MSTORE PUSH1 0x20 PUSH1 0x0 KECCAK256 SWAP1 DUP2 ADD SWAP1 PUSH2 0x237E SWAP2 SWAP1 PUSH2 0x24FA JUMP JUMPDEST POP JUMP JUMPDEST DUP3 DUP1 SLOAD DUP3 DUP3 SSTORE SWAP1 PUSH1 0x0 MSTORE PUSH1 0x20 PUSH1 0x0 KECCAK256 SWAP1 DUP2 ADD SWAP3 DUP3 ISZERO PUSH2 0x23D0 JUMPI SWAP2 PUSH1 0x20 MUL DUP3 ADD JUMPDEST DUP3 DUP2 GT ISZERO PUSH2 0x23CF JUMPI DUP3 MLOAD DUP3 SWAP1 DUP1 MLOAD SWAP1 PUSH1 0x20 ADD SWAP1 PUSH2 0x23BF SWAP3 SWAP2 SWAP1 PUSH2 0x2410 JUMP JUMPDEST POP SWAP2 PUSH1 0x20 ADD SWAP2 SWAP1 PUSH1 0x1 ADD SWAP1 PUSH2 0x23A1 JUMP JUMPDEST JUMPDEST POP SWAP1 POP PUSH2 0x23DD SWAP2 SWAP1 PUSH2 0x24FA JUMP JUMPDEST POP SWAP1 JUMP JUMPDEST PUSH1 0x40 MLOAD DUP1 PUSH1 0xA0 ADD PUSH1 0x40 MSTORE DUP1 PUSH1 0x60 DUP2 MSTORE PUSH1 0x20 ADD PUSH1 0x60 DUP2 MSTORE PUSH1 0x20 ADD PUSH1 0x60 DUP2 MSTORE PUSH1 0x20 ADD PUSH1 0x60 DUP2 MSTORE PUSH1 0x20 ADD PUSH1 0x60 DUP2 MSTORE POP SWAP1 JUMP JUMPDEST DUP3 DUP1 SLOAD PUSH2 0x241C SWAP1 PUSH2 0x3134 JUMP JUMPDEST SWAP1 PUSH1 0x0 MSTORE PUSH1 0x20 PUSH1 0x0 KECCAK256 SWAP1 PUSH1 0x1F ADD PUSH1 0x20 SWAP1 DIV DUP2 ADD SWAP3 DUP3 PUSH2 0x243E JUMPI PUSH1 0x0 DUP6 SSTORE PUSH2 0x2485 JUMP JUMPDEST DUP3 PUSH1 0x1F LT PUSH2 0x2457 JUMPI DUP1 MLOAD PUSH1 0xFF NOT AND DUP4 DUP1 ADD OR DUP6 SSTORE PUSH2 0x2485 JUMP JUMPDEST DUP3 DUP1 ADD PUSH1 0x1 ADD DUP6 SSTORE DUP3 ISZERO PUSH2 0x2485 JUMPI SWAP2 DUP3 ADD JUMPDEST DUP3 DUP2 GT ISZERO PUSH2 0x2484 JUMPI DUP3 MLOAD DUP3 SSTORE SWAP2 PUSH1 0x20 ADD SWAP2 SWAP1 PUSH1 0x1 ADD SWAP1 PUSH2 0x2469 JUMP JUMPDEST JUMPDEST POP SWAP1 POP PUSH2 0x2492 SWAP2 SWAP1 PUSH2 0x251E JUMP JUMPDEST POP SWAP1 JUMP JUMPDEST POP DUP1 SLOAD PUSH2 0x24A2 SWAP1 PUSH2 0x3134 JUMP JUMPDEST PUSH1 0x0 DUP3 SSTORE DUP1 PUSH1 0x1F LT PUSH2 0x24B4 JUMPI POP PUSH2 0x24D3 JUMP JUMPDEST PUSH1 0x1F ADD PUSH1 0x20 SWAP1 DIV SWAP1 PUSH1 0x0 MSTORE PUSH1 0x20 PUSH1 0x0 KECCAK256 SWAP1 DUP2 ADD SWAP1 PUSH2 0x24D2 SWAP2 SWAP1 PUSH2 0x251E JUMP JUMPDEST JUMPDEST POP JUMP JUMPDEST POP DUP1 SLOAD PUSH1 0x0 DUP3 SSTORE PUSH1 0x5 MUL SWAP1 PUSH1 0x0 MSTORE PUSH1 0x20 PUSH1 0x0 KECCAK256 SWAP1 DUP2 ADD SWAP1 PUSH2 0x24F7 SWAP2 SWAP1 PUSH2 0x253B JUMP JUMPDEST POP JUMP JUMPDEST JUMPDEST DUP1 DUP3 GT ISZERO PUSH2 0x251A JUMPI PUSH1 0x0 DUP2 DUP2 PUSH2 0x2511 SWAP2 SWAP1 PUSH2 0x2496 JUMP JUMPDEST POP PUSH1 0x1 ADD PUSH2 0x24FB JUMP JUMPDEST POP SWAP1 JUMP JUMPDEST JUMPDEST DUP1 DUP3 GT ISZERO PUSH2 0x2537 JUMPI PUSH1 0x0 DUP2 PUSH1 0x0 SWAP1 SSTORE POP PUSH1 0x1 ADD PUSH2 0x251F JUMP JUMPDEST POP SWAP1 JUMP JUMPDEST JUMPDEST DUP1 DUP3 GT ISZERO PUSH2 0x259E JUMPI PUSH1 0x0 DUP1 DUP3 ADD PUSH1 0x0 PUSH2 0x2555 SWAP2 SWAP1 PUSH2 0x2496 JUMP JUMPDEST PUSH1 0x1 DUP3 ADD PUSH1 0x0 PUSH2 0x2565 SWAP2 SWAP1 PUSH2 0x2496 JUMP JUMPDEST PUSH1 0x2 DUP3 ADD PUSH1 0x0 PUSH2 0x2575 SWAP2 SWAP1 PUSH2 0x2496 JUMP JUMPDEST PUSH1 0x3 DUP3 ADD PUSH1 0x0 PUSH2 0x2585 SWAP2 SWAP1 PUSH2 0x2496 JUMP JUMPDEST PUSH1 0x4 DUP3 ADD PUSH1 0x0 PUSH2 0x2595 SWAP2 SWAP1 PUSH2 0x2496 JUMP JUMPDEST POP PUSH1 0x5 ADD PUSH2 0x253C JUMP JUMPDEST POP SWAP1 JUMP JUMPDEST PUSH1 0x0 PUSH2 0x25B5 PUSH2 0x25B0 DUP5 PUSH2 0x2FF3 JUMP JUMPDEST PUSH2 0x2FCE JUMP JUMPDEST SWAP1 POP DUP1 DUP4 DUP3 MSTORE PUSH1 0x20 DUP3 ADD SWAP1 POP DUP3 DUP6 PUSH1 0x20 DUP7 MUL DUP3 ADD GT ISZERO PUSH2 0x25D8 JUMPI PUSH2 0x25D7 PUSH2 0x3229 JUMP JUMPDEST JUMPDEST PUSH1 0x0 JUMPDEST DUP6 DUP2 LT ISZERO PUSH2 0x2626 JUMPI DUP2 CALLDATALOAD PUSH8 0xFFFFFFFFFFFFFFFF DUP2 GT ISZERO PUSH2 0x25FE JUMPI PUSH2 0x25FD PUSH2 0x3224 JUMP JUMPDEST JUMPDEST DUP1 DUP7 ADD PUSH2 0x260B DUP10 DUP3 PUSH2 0x26B5 JUMP JUMPDEST DUP6 MSTORE PUSH1 0x20 DUP6 ADD SWAP5 POP PUSH1 0x20 DUP5 ADD SWAP4 POP POP POP PUSH1 0x1 DUP2 ADD SWAP1 POP PUSH2 0x25DB JUMP JUMPDEST POP POP POP SWAP4 SWAP3 POP POP POP JUMP JUMPDEST PUSH1 0x0 PUSH2 0x2643 PUSH2 0x263E DUP5 PUSH2 0x301F JUMP JUMPDEST PUSH2 0x2FCE JUMP JUMPDEST SWAP1 POP DUP3 DUP2 MSTORE PUSH1 0x20 DUP2 ADD DUP5 DUP5 DUP5 ADD GT ISZERO PUSH2 0x265F JUMPI PUSH2 0x265E PUSH2 0x322E JUMP JUMPDEST JUMPDEST PUSH2 0x266A DUP5 DUP3 DUP6 PUSH2 0x30F2 JUMP JUMPDEST POP SWAP4 SWAP3 POP POP POP JUMP JUMPDEST PUSH1 0x0 DUP2 CALLDATALOAD SWAP1 POP PUSH2 0x2681 DUP2 PUSH2 0x324E JUMP JUMPDEST SWAP3 SWAP2 POP POP JUMP JUMPDEST PUSH1 0x0 DUP3 PUSH1 0x1F DUP4 ADD SLT PUSH2 0x269C JUMPI PUSH2 0x269B PUSH2 0x3224 JUMP JUMPDEST JUMPDEST DUP2 CALLDATALOAD PUSH2 0x26AC DUP5 DUP3 PUSH1 0x20 DUP7 ADD PUSH2 0x25A2 JUMP JUMPDEST SWAP2 POP POP SWAP3 SWAP2 POP POP JUMP JUMPDEST PUSH1 0x0 DUP3 PUSH1 0x1F DUP4 ADD SLT PUSH2 0x26CA JUMPI PUSH2 0x26C9 PUSH2 0x3224 JUMP JUMPDEST JUMPDEST DUP2 CALLDATALOAD PUSH2 0x26DA DUP5 DUP3 PUSH1 0x20 DUP7 ADD PUSH2 0x2630 JUMP JUMPDEST SWAP2 POP POP SWAP3 SWAP2 POP POP JUMP JUMPDEST PUSH1 0x0 DUP2 CALLDATALOAD SWAP1 POP PUSH2 0x26F2 DUP2 PUSH2 0x3265 JUMP JUMPDEST SWAP3 SWAP2 POP POP JUMP JUMPDEST PUSH1 0x0 PUSH1 0x20 DUP3 DUP5 SUB SLT ISZERO PUSH2 0x270E JUMPI PUSH2 0x270D PUSH2 0x3238 JUMP JUMPDEST JUMPDEST PUSH1 0x0 PUSH2 0x271C DUP5 DUP3 DUP6 ADD PUSH2 0x2672 JUMP JUMPDEST SWAP2 POP POP SWAP3 SWAP2 POP POP JUMP JUMPDEST PUSH1 0x0 DUP1 PUSH1 0x40 DUP4 DUP6 SUB SLT ISZERO PUSH2 0x273C JUMPI PUSH2 0x273B PUSH2 0x3238 JUMP JUMPDEST JUMPDEST PUSH1 0x0 DUP4 ADD CALLDATALOAD PUSH8 0xFFFFFFFFFFFFFFFF DUP2 GT ISZERO PUSH2 0x275A JUMPI PUSH2 0x2759 PUSH2 0x3233 JUMP JUMPDEST JUMPDEST PUSH2 0x2766 DUP6 DUP3 DUP7 ADD PUSH2 0x2687 JUMP JUMPDEST SWAP3 POP POP PUSH1 0x20 DUP4 ADD CALLDATALOAD PUSH8 0xFFFFFFFFFFFFFFFF DUP2 GT ISZERO PUSH2 0x2787 JUMPI PUSH2 0x2786 PUSH2 0x3233 JUMP JUMPDEST JUMPDEST PUSH2 0x2793 DUP6 DUP3 DUP7 ADD PUSH2 0x2687 JUMP JUMPDEST SWAP2 POP POP SWAP3 POP SWAP3 SWAP1 POP JUMP JUMPDEST PUSH1 0x0 DUP1 PUSH1 0x0 PUSH1 0x60 DUP5 DUP7 SUB SLT ISZERO PUSH2 0x27B6 JUMPI PUSH2 0x27B5 PUSH2 0x3238 JUMP JUMPDEST JUMPDEST PUSH1 0x0 DUP5 ADD CALLDATALOAD PUSH8 0xFFFFFFFFFFFFFFFF DUP2 GT ISZERO PUSH2 0x27D4 JUMPI PUSH2 0x27D3 PUSH2 0x3233 JUMP JUMPDEST JUMPDEST PUSH2 0x27E0 DUP7 DUP3 DUP8 ADD PUSH2 0x2687 JUMP JUMPDEST SWAP4 POP POP PUSH1 0x20 DUP5 ADD CALLDATALOAD PUSH8 0xFFFFFFFFFFFFFFFF DUP2 GT ISZERO PUSH2 0x2801 JUMPI PUSH2 0x2800 PUSH2 0x3233 JUMP JUMPDEST JUMPDEST PUSH2 0x280D DUP7 DUP3 DUP8 ADD PUSH2 0x2687 JUMP JUMPDEST SWAP3 POP POP PUSH1 0x40 DUP5 ADD CALLDATALOAD PUSH8 0xFFFFFFFFFFFFFFFF DUP2 GT ISZERO PUSH2 0x282E JUMPI PUSH2 0x282D PUSH2 0x3233 JUMP JUMPDEST JUMPDEST PUSH2 0x283A DUP7 DUP3 DUP8 ADD PUSH2 0x2687 JUMP JUMPDEST SWAP2 POP POP SWAP3 POP SWAP3 POP SWAP3 JUMP JUMPDEST PUSH1 0x0 DUP1 PUSH1 0x0 DUP1 PUSH1 0x0 PUSH1 0xA0 DUP7 DUP9 SUB SLT ISZERO PUSH2 0x2860 JUMPI PUSH2 0x285F PUSH2 0x3238 JUMP JUMPDEST JUMPDEST PUSH1 0x0 DUP7 ADD CALLDATALOAD PUSH8 0xFFFFFFFFFFFFFFFF DUP2 GT ISZERO PUSH2 0x287E JUMPI PUSH2 0x287D PUSH2 0x3233 JUMP JUMPDEST JUMPDEST PUSH2 0x288A DUP9 DUP3 DUP10 ADD PUSH2 0x26B5 JUMP JUMPDEST SWAP6 POP POP PUSH1 0x20 DUP7 ADD CALLDATALOAD PUSH8 0xFFFFFFFFFFFFFFFF DUP2 GT ISZERO PUSH2 0x28AB JUMPI PUSH2 0x28AA PUSH2 0x3233 JUMP JUMPDEST JUMPDEST PUSH2 0x28B7 DUP9 DUP3 DUP10 ADD PUSH2 0x26B5 JUMP JUMPDEST SWAP5 POP POP PUSH1 0x40 DUP7 ADD CALLDATALOAD PUSH8 0xFFFFFFFFFFFFFFFF DUP2 GT ISZERO PUSH2 0x28D8 JUMPI PUSH2 0x28D7 PUSH2 0x3233 JUMP JUMPDEST JUMPDEST PUSH2 0x28E4 DUP9 DUP3 DUP10 ADD PUSH2 0x26B5 JUMP JUMPDEST SWAP4 POP POP PUSH1 0x60 DUP7 ADD CALLDATALOAD PUSH8 0xFFFFFFFFFFFFFFFF DUP2 GT ISZERO PUSH2 0x2905 JUMPI PUSH2 0x2904 PUSH2 0x3233 JUMP JUMPDEST JUMPDEST PUSH2 0x2911 DUP9 DUP3 DUP10 ADD PUSH2 0x26B5 JUMP JUMPDEST SWAP3 POP POP PUSH1 0x80 DUP7 ADD CALLDATALOAD PUSH8 0xFFFFFFFFFFFFFFFF DUP2 GT ISZERO PUSH2 0x2932 JUMPI PUSH2 0x2931 PUSH2 0x3233 JUMP JUMPDEST JUMPDEST PUSH2 0x293E DUP9 DUP3 DUP10 ADD PUSH2 0x26B5 JUMP JUMPDEST SWAP2 POP POP SWAP3 SWAP6 POP SWAP3 SWAP6 SWAP1 SWAP4 POP JUMP JUMPDEST PUSH1 0x0 DUP1 PUSH1 0x0 DUP1 PUSH1 0x0 DUP1 PUSH1 0xC0 DUP8 DUP10 SUB SLT ISZERO PUSH2 0x2968 JUMPI PUSH2 0x2967 PUSH2 0x3238 JUMP JUMPDEST JUMPDEST PUSH1 0x0 DUP8 ADD CALLDATALOAD PUSH8 0xFFFFFFFFFFFFFFFF DUP2 GT ISZERO PUSH2 0x2986 JUMPI PUSH2 0x2985 PUSH2 0x3233 JUMP JUMPDEST JUMPDEST PUSH2 0x2992 DUP10 DUP3 DUP11 ADD PUSH2 0x26B5 JUMP JUMPDEST SWAP7 POP POP PUSH1 0x20 DUP8 ADD CALLDATALOAD PUSH8 0xFFFFFFFFFFFFFFFF DUP2 GT ISZERO PUSH2 0x29B3 JUMPI PUSH2 0x29B2 PUSH2 0x3233 JUMP JUMPDEST JUMPDEST PUSH2 0x29BF DUP10 DUP3 DUP11 ADD PUSH2 0x26B5 JUMP JUMPDEST SWAP6 POP POP PUSH1 0x40 DUP8 ADD CALLDATALOAD PUSH8 0xFFFFFFFFFFFFFFFF DUP2 GT ISZERO PUSH2 0x29E0 JUMPI PUSH2 0x29DF PUSH2 0x3233 JUMP JUMPDEST JUMPDEST PUSH2 0x29EC DUP10 DUP3 DUP11 ADD PUSH2 0x26B5 JUMP JUMPDEST SWAP5 POP POP PUSH1 0x60 DUP8 ADD CALLDATALOAD PUSH8 0xFFFFFFFFFFFFFFFF DUP2 GT ISZERO PUSH2 0x2A0D JUMPI PUSH2 0x2A0C PUSH2 0x3233 JUMP JUMPDEST JUMPDEST PUSH2 0x2A19 DUP10 DUP3 DUP11 ADD PUSH2 0x26B5 JUMP JUMPDEST SWAP4 POP POP PUSH1 0x80 DUP8 ADD CALLDATALOAD PUSH8 0xFFFFFFFFFFFFFFFF DUP2 GT ISZERO PUSH2 0x2A3A JUMPI PUSH2 0x2A39 PUSH2 0x3233 JUMP JUMPDEST JUMPDEST PUSH2 0x2A46 DUP10 DUP3 DUP11 ADD PUSH2 0x26B5 JUMP JUMPDEST SWAP3 POP POP PUSH1 0xA0 DUP8 ADD CALLDATALOAD PUSH8 0xFFFFFFFFFFFFFFFF DUP2 GT ISZERO PUSH2 0x2A67 JUMPI PUSH2 0x2A66 PUSH2 0x3233 JUMP JUMPDEST JUMPDEST PUSH2 0x2A73 DUP10 DUP3 DUP11 ADD PUSH2 0x26B5 JUMP JUMPDEST SWAP2 POP POP SWAP3 SWAP6 POP SWAP3 SWAP6 POP SWAP3 SWAP6 JUMP JUMPDEST PUSH1 0x0 PUSH1 0x20 DUP3 DUP5 SUB SLT ISZERO PUSH2 0x2A96 JUMPI PUSH2 0x2A95 PUSH2 0x3238 JUMP JUMPDEST JUMPDEST PUSH1 0x0 PUSH2 0x2AA4 DUP5 DUP3 DUP6 ADD PUSH2 0x26E3 JUMP JUMPDEST SWAP2 POP POP SWAP3 SWAP2 POP POP JUMP JUMPDEST PUSH1 0x0 PUSH2 0x2AB9 DUP4 DUP4 PUSH2 0x2B45 JUMP JUMPDEST SWAP1 POP SWAP3 SWAP2 POP POP JUMP JUMPDEST PUSH2 0x2ACA DUP2 PUSH2 0x30B6 JUMP JUMPDEST DUP3 MSTORE POP POP JUMP JUMPDEST PUSH1 0x0 PUSH2 0x2ADB DUP3 PUSH2 0x3060 JUMP JUMPDEST PUSH2 0x2AE5 DUP2 DUP6 PUSH2 0x3083 JUMP JUMPDEST SWAP4 POP DUP4 PUSH1 0x20 DUP3 MUL DUP6 ADD PUSH2 0x2AF7 DUP6 PUSH2 0x3050 JUMP JUMPDEST DUP1 PUSH1 0x0 JUMPDEST DUP6 DUP2 LT ISZERO PUSH2 0x2B33 JUMPI DUP5 DUP5 SUB DUP10 MSTORE DUP2 MLOAD PUSH2 0x2B14 DUP6 DUP3 PUSH2 0x2AAD JUMP JUMPDEST SWAP5 POP PUSH2 0x2B1F DUP4 PUSH2 0x3076 JUMP JUMPDEST SWAP3 POP PUSH1 0x20 DUP11 ADD SWAP10 POP POP PUSH1 0x1 DUP2 ADD SWAP1 POP PUSH2 0x2AFB JUMP JUMPDEST POP DUP3 SWAP8 POP DUP8 SWAP6 POP POP POP POP POP POP SWAP3 SWAP2 POP POP JUMP JUMPDEST PUSH1 0x0 PUSH2 0x2B50 DUP3 PUSH2 0x306B JUMP JUMPDEST PUSH2 0x2B5A DUP2 DUP6 PUSH2 0x3094 JUMP JUMPDEST SWAP4 POP PUSH2 0x2B6A DUP2 DUP6 PUSH1 0x20 DUP7 ADD PUSH2 0x3101 JUMP JUMPDEST PUSH2 0x2B73 DUP2 PUSH2 0x323D JUMP JUMPDEST DUP5 ADD SWAP2 POP POP SWAP3 SWAP2 POP POP JUMP JUMPDEST PUSH1 0x0 PUSH2 0x2B89 DUP3 PUSH2 0x306B JUMP JUMPDEST PUSH2 0x2B93 DUP2 DUP6 PUSH2 0x30A5 JUMP JUMPDEST SWAP4 POP PUSH2 0x2BA3 DUP2 DUP6 PUSH1 0x20 DUP7 ADD PUSH2 0x3101 JUMP JUMPDEST PUSH2 0x2BAC DUP2 PUSH2 0x323D JUMP JUMPDEST DUP5 ADD SWAP2 POP POP SWAP3 SWAP2 POP POP JUMP JUMPDEST PUSH1 0x0 PUSH1 0x40 DUP4 ADD PUSH1 0x0 DUP4 ADD MLOAD DUP5 DUP3 SUB PUSH1 0x0 DUP7 ADD MSTORE PUSH2 0x2BD4 DUP3 DUP3 PUSH2 0x2AD0 JUMP JUMPDEST SWAP2 POP POP PUSH1 0x20 DUP4 ADD MLOAD DUP5 DUP3 SUB PUSH1 0x20 DUP7 ADD MSTORE PUSH2 0x2BEE DUP3 DUP3 PUSH2 0x2AD0 JUMP JUMPDEST SWAP2 POP POP DUP1 SWAP2 POP POP SWAP3 SWAP2 POP POP JUMP JUMPDEST PUSH1 0x0 PUSH1 0xA0 DUP4 ADD PUSH1 0x0 DUP4 ADD MLOAD DUP5 DUP3 SUB PUSH1 0x0 DUP7 ADD MSTORE PUSH2 0x2C18 DUP3 DUP3 PUSH2 0x2B45 JUMP JUMPDEST SWAP2 POP POP PUSH1 0x20 DUP4 ADD MLOAD DUP5 DUP3 SUB PUSH1 0x20 DUP7 ADD MSTORE PUSH2 0x2C32 DUP3 DUP3 PUSH2 0x2B45 JUMP JUMPDEST SWAP2 POP POP PUSH1 0x40 DUP4 ADD MLOAD DUP5 DUP3 SUB PUSH1 0x40 DUP7 ADD MSTORE PUSH2 0x2C4C DUP3 DUP3 PUSH2 0x2B45 JUMP JUMPDEST SWAP2 POP POP PUSH1 0x60 DUP4 ADD MLOAD DUP5 DUP3 SUB PUSH1 0x60 DUP7 ADD MSTORE PUSH2 0x2C66 DUP3 DUP3 PUSH2 0x2B45 JUMP JUMPDEST SWAP2 POP POP PUSH1 0x80 DUP4 ADD MLOAD DUP5 DUP3 SUB PUSH1 0x80 DUP7 ADD MSTORE PUSH2 0x2C80 DUP3 DUP3 PUSH2 0x2AD0 JUMP JUMPDEST SWAP2 POP POP DUP1 SWAP2 POP POP SWAP3 SWAP2 POP POP JUMP JUMPDEST PUSH1 0x0 PUSH1 0xC0 DUP4 ADD PUSH1 0x0 DUP4 ADD MLOAD DUP5 DUP3 SUB PUSH1 0x0 DUP7 ADD MSTORE PUSH2 0x2CAA DUP3 DUP3 PUSH2 0x2B45 JUMP JUMPDEST SWAP2 POP POP PUSH1 0x20 DUP4 ADD MLOAD DUP5 DUP3 SUB PUSH1 0x20 DUP7 ADD MSTORE PUSH2 0x2CC4 DUP3 DUP3 PUSH2 0x2B45 JUMP JUMPDEST SWAP2 POP POP PUSH1 0x40 DUP4 ADD MLOAD DUP5 DUP3 SUB PUSH1 0x40 DUP7 ADD MSTORE PUSH2 0x2CDE DUP3 DUP3 PUSH2 0x2B45 JUMP JUMPDEST SWAP2 POP POP PUSH1 0x60 DUP4 ADD MLOAD DUP5 DUP3 SUB PUSH1 0x60 DUP7 ADD MSTORE PUSH2 0x2CF8 DUP3 DUP3 PUSH2 0x2B45 JUMP JUMPDEST SWAP2 POP POP PUSH1 0x80 DUP4 ADD MLOAD DUP5 DUP3 SUB PUSH1 0x80 DUP7 ADD MSTORE PUSH2 0x2D12 DUP3 DUP3 PUSH2 0x2B45 JUMP JUMPDEST SWAP2 POP POP PUSH1 0xA0 DUP4 ADD MLOAD DUP5 DUP3 SUB PUSH1 0xA0 DUP7 ADD MSTORE PUSH2 0x2D2C DUP3 DUP3 PUSH2 0x2B45 JUMP JUMPDEST SWAP2 POP POP DUP1 SWAP2 POP POP SWAP3 SWAP2 POP POP JUMP JUMPDEST PUSH1 0x0 PUSH1 0x20 DUP4 ADD PUSH1 0x0 DUP4 ADD MLOAD DUP5 DUP3 SUB PUSH1 0x0 DUP7 ADD MSTORE PUSH2 0x2D56 DUP3 DUP3 PUSH2 0x2AD0 JUMP JUMPDEST SWAP2 POP POP DUP1 SWAP2 POP POP SWAP3 SWAP2 POP POP JUMP JUMPDEST PUSH1 0x0 PUSH2 0x100 DUP4 ADD PUSH1 0x0 DUP4 ADD MLOAD DUP5 DUP3 SUB PUSH1 0x0 DUP7 ADD MSTORE PUSH2 0x2D81 DUP3 DUP3 PUSH2 0x2B45 JUMP JUMPDEST SWAP2 POP POP PUSH1 0x20 DUP4 ADD MLOAD DUP5 DUP3 SUB PUSH1 0x20 DUP7 ADD MSTORE PUSH2 0x2D9B DUP3 DUP3 PUSH2 0x2B45 JUMP JUMPDEST SWAP2 POP POP PUSH1 0x40 DUP4 ADD MLOAD PUSH2 0x2DB0 PUSH1 0x40 DUP7 ADD DUP3 PUSH2 0x2AC1 JUMP JUMPDEST POP PUSH1 0x60 DUP4 ADD MLOAD DUP5 DUP3 SUB PUSH1 0x60 DUP7 ADD MSTORE PUSH2 0x2DC8 DUP3 DUP3 PUSH2 0x2B45 JUMP JUMPDEST SWAP2 POP POP PUSH1 0x80 DUP4 ADD MLOAD DUP5 DUP3 SUB PUSH1 0x80 DUP7 ADD MSTORE PUSH2 0x2DE2 DUP3 DUP3 PUSH2 0x2B45 JUMP JUMPDEST SWAP2 POP POP PUSH1 0xA0 DUP4 ADD MLOAD DUP5 DUP3 SUB PUSH1 0xA0 DUP7 ADD MSTORE PUSH2 0x2DFC DUP3 DUP3 PUSH2 0x2B45 JUMP JUMPDEST SWAP2 POP POP PUSH1 0xC0 DUP4 ADD MLOAD DUP5 DUP3 SUB PUSH1 0xC0 DUP7 ADD MSTORE PUSH2 0x2E16 DUP3 DUP3 PUSH2 0x2B45 JUMP JUMPDEST SWAP2 POP POP PUSH1 0xE0 DUP4 ADD MLOAD PUSH2 0x2E2B PUSH1 0xE0 DUP7 ADD DUP3 PUSH2 0x2E94 JUMP JUMPDEST POP DUP1 SWAP2 POP POP SWAP3 SWAP2 POP POP JUMP JUMPDEST PUSH1 0x0 PUSH1 0x60 DUP4 ADD PUSH1 0x0 DUP4 ADD MLOAD DUP5 DUP3 SUB PUSH1 0x0 DUP7 ADD MSTORE PUSH2 0x2E53 DUP3 DUP3 PUSH2 0x2AD0 JUMP JUMPDEST SWAP2 POP POP PUSH1 0x20 DUP4 ADD MLOAD DUP5 DUP3 SUB PUSH1 0x20 DUP7 ADD MSTORE PUSH2 0x2E6D DUP3 DUP3 PUSH2 0x2AD0 JUMP JUMPDEST SWAP2 POP POP PUSH1 0x40 DUP4 ADD MLOAD DUP5 DUP3 SUB PUSH1 0x40 DUP7 ADD MSTORE PUSH2 0x2E87 DUP3 DUP3 PUSH2 0x2AD0 JUMP JUMPDEST SWAP2 POP POP DUP1 SWAP2 POP POP SWAP3 SWAP2 POP POP JUMP JUMPDEST PUSH2 0x2E9D DUP2 PUSH2 0x30E8 JUMP JUMPDEST DUP3 MSTORE POP POP JUMP JUMPDEST PUSH2 0x2EAC DUP2 PUSH2 0x30E8 JUMP JUMPDEST DUP3 MSTORE POP POP JUMP JUMPDEST PUSH1 0x0 PUSH1 0xA0 DUP3 ADD SWAP1 POP DUP2 DUP2 SUB PUSH1 0x0 DUP4 ADD MSTORE PUSH2 0x2ECC DUP2 DUP9 PUSH2 0x2B7E JUMP JUMPDEST SWAP1 POP DUP2 DUP2 SUB PUSH1 0x20 DUP4 ADD MSTORE PUSH2 0x2EE0 DUP2 DUP8 PUSH2 0x2B7E JUMP JUMPDEST SWAP1 POP DUP2 DUP2 SUB PUSH1 0x40 DUP4 ADD MSTORE PUSH2 0x2EF4 DUP2 DUP7 PUSH2 0x2B7E JUMP JUMPDEST SWAP1 POP DUP2 DUP2 SUB PUSH1 0x60 DUP4 ADD MSTORE PUSH2 0x2F08 DUP2 DUP6 PUSH2 0x2B7E JUMP JUMPDEST SWAP1 POP DUP2 DUP2 SUB PUSH1 0x80 DUP4 ADD MSTORE PUSH2 0x2F1C DUP2 DUP5 PUSH2 0x2B7E JUMP JUMPDEST SWAP1 POP SWAP7 SWAP6 POP POP POP POP POP POP JUMP JUMPDEST PUSH1 0x0 PUSH1 0xC0 DUP3 ADD SWAP1 POP DUP2 DUP2 SUB PUSH1 0x0 DUP4 ADD MSTORE PUSH2 0x2F42 DUP2 DUP10 PUSH2 0x2D63 JUMP JUMPDEST SWAP1 POP DUP2 DUP2 SUB PUSH1 0x20 DUP4 ADD MSTORE PUSH2 0x2F56 DUP2 DUP9 PUSH2 0x2C8D JUMP JUMPDEST SWAP1 POP DUP2 DUP2 SUB PUSH1 0x40 DUP4 ADD MSTORE PUSH2 0x2F6A DUP2 DUP8 PUSH2 0x2E36 JUMP JUMPDEST SWAP1 POP DUP2 DUP2 SUB PUSH1 0x60 DUP4 ADD MSTORE PUSH2 0x2F7E DUP2 DUP7 PUSH2 0x2BB7 JUMP JUMPDEST SWAP1 POP DUP2 DUP2 SUB PUSH1 0x80 DUP4 ADD MSTORE PUSH2 0x2F92 DUP2 DUP6 PUSH2 0x2BFB JUMP JUMPDEST SWAP1 POP DUP2 DUP2 SUB PUSH1 0xA0 DUP4 ADD MSTORE PUSH2 0x2FA6 DUP2 DUP5 PUSH2 0x2D39 JUMP JUMPDEST SWAP1 POP SWAP8 SWAP7 POP POP POP POP POP POP POP JUMP JUMPDEST PUSH1 0x0 PUSH1 0x20 DUP3 ADD SWAP1 POP PUSH2 0x2FC8 PUSH1 0x0 DUP4 ADD DUP5 PUSH2 0x2EA3 JUMP JUMPDEST SWAP3 SWAP2 POP POP JUMP JUMPDEST PUSH1 0x0 PUSH2 0x2FD8 PUSH2 0x2FE9 JUMP JUMPDEST SWAP1 POP PUSH2 0x2FE4 DUP3 DUP3 PUSH2 0x3166 JUMP JUMPDEST SWAP2 SWAP1 POP JUMP JUMPDEST PUSH1 0x0 PUSH1 0x40 MLOAD SWAP1 POP SWAP1 JUMP JUMPDEST PUSH1 0x0 PUSH8 0xFFFFFFFFFFFFFFFF DUP3 GT ISZERO PUSH2 0x300E JUMPI PUSH2 0x300D PUSH2 0x31F5 JUMP JUMPDEST JUMPDEST PUSH1 0x20 DUP3 MUL SWAP1 POP PUSH1 0x20 DUP2 ADD SWAP1 POP SWAP2 SWAP1 POP JUMP JUMPDEST PUSH1 0x0 PUSH8 0xFFFFFFFFFFFFFFFF DUP3 GT ISZERO PUSH2 0x303A JUMPI PUSH2 0x3039 PUSH2 0x31F5 JUMP JUMPDEST JUMPDEST PUSH2 0x3043 DUP3 PUSH2 0x323D JUMP JUMPDEST SWAP1 POP PUSH1 0x20 DUP2 ADD SWAP1 POP SWAP2 SWAP1 POP JUMP JUMPDEST PUSH1 0x0 DUP2 SWAP1 POP PUSH1 0x20 DUP3 ADD SWAP1 POP SWAP2 SWAP1 POP JUMP JUMPDEST PUSH1 0x0 DUP2 MLOAD SWAP1 POP SWAP2 SWAP1 POP JUMP JUMPDEST PUSH1 0x0 DUP2 MLOAD SWAP1 POP SWAP2 SWAP1 POP JUMP JUMPDEST PUSH1 0x0 PUSH1 0x20 DUP3 ADD SWAP1 POP SWAP2 SWAP1 POP JUMP JUMPDEST PUSH1 0x0 DUP3 DUP3 MSTORE PUSH1 0x20 DUP3 ADD SWAP1 POP SWAP3 SWAP2 POP POP JUMP JUMPDEST PUSH1 0x0 DUP3 DUP3 MSTORE PUSH1 0x20 DUP3 ADD SWAP1 POP SWAP3 SWAP2 POP POP JUMP JUMPDEST PUSH1 0x0 DUP3 DUP3 MSTORE PUSH1 0x20 DUP3 ADD SWAP1 POP SWAP3 SWAP2 POP POP JUMP JUMPDEST PUSH1 0x0 PUSH2 0x30C1 DUP3 PUSH2 0x30C8 JUMP JUMPDEST SWAP1 POP SWAP2 SWAP1 POP JUMP JUMPDEST PUSH1 0x0 PUSH20 0xFFFFFFFFFFFFFFFFFFFFFFFFFFFFFFFFFFFFFFFF DUP3 AND SWAP1 POP SWAP2 SWAP1 POP JUMP JUMPDEST PUSH1 0x0 DUP2 SWAP1 POP SWAP2 SWAP1 POP JUMP JUMPDEST DUP3 DUP2 DUP4 CALLDATACOPY PUSH1 0x0 DUP4 DUP4 ADD MSTORE POP POP POP JUMP JUMPDEST PUSH1 0x0 JUMPDEST DUP4 DUP2 LT ISZERO PUSH2 0x311F JUMPI DUP1 DUP3 ADD MLOAD DUP2 DUP5 ADD MSTORE PUSH1 0x20 DUP2 ADD SWAP1 POP PUSH2 0x3104 JUMP JUMPDEST DUP4 DUP2 GT ISZERO PUSH2 0x312E JUMPI PUSH1 0x0 DUP5 DUP5 ADD MSTORE JUMPDEST POP POP POP POP JUMP JUMPDEST PUSH1 0x0 PUSH1 0x2 DUP3 DIV SWAP1 POP PUSH1 0x1 DUP3 AND DUP1 PUSH2 0x314C JUMPI PUSH1 0x7F DUP3 AND SWAP2 POP JUMPDEST PUSH1 0x20 DUP3 LT DUP2 EQ ISZERO PUSH2 0x3160 JUMPI PUSH2 0x315F PUSH2 0x3197 JUMP JUMPDEST JUMPDEST POP SWAP2 SWAP1 POP JUMP JUMPDEST PUSH2 0x316F DUP3 PUSH2 0x323D JUMP JUMPDEST DUP2 ADD DUP2 DUP2 LT PUSH8 0xFFFFFFFFFFFFFFFF DUP3 GT OR ISZERO PUSH2 0x318E JUMPI PUSH2 0x318D PUSH2 0x31F5 JUMP JUMPDEST JUMPDEST DUP1 PUSH1 0x40 MSTORE POP POP POP JUMP JUMPDEST PUSH32 0x4E487B7100000000000000000000000000000000000000000000000000000000 PUSH1 0x0 MSTORE PUSH1 0x22 PUSH1 0x4 MSTORE PUSH1 0x24 PUSH1 0x0 REVERT JUMPDEST PUSH32 0x4E487B7100000000000000000000000000000000000000000000000000000000 PUSH1 0x0 MSTORE PUSH1 0x32 PUSH1 0x4 MSTORE PUSH1 0x24 PUSH1 0x0 REVERT JUMPDEST PUSH32 0x4E487B7100000000000000000000000000000000000000000000000000000000 PUSH1 0x0 MSTORE PUSH1 0x41 PUSH1 0x4 MSTORE PUSH1 0x24 PUSH1 0x0 REVERT JUMPDEST PUSH1 0x0 DUP1 REVERT JUMPDEST PUSH1 0x0 DUP1 REVERT JUMPDEST PUSH1 0x0 DUP1 REVERT JUMPDEST PUSH1 0x0 DUP1 REVERT JUMPDEST PUSH1 0x0 DUP1 REVERT JUMPDEST PUSH1 0x0 PUSH1 0x1F NOT PUSH1 0x1F DUP4 ADD AND SWAP1 POP SWAP2 SWAP1 POP JUMP JUMPDEST PUSH2 0x3257 DUP2 PUSH2 0x30B6 JUMP JUMPDEST DUP2 EQ PUSH2 0x3262 JUMPI PUSH1 0x0 DUP1 REVERT JUMPDEST POP JUMP JUMPDEST PUSH2 0x326E DUP2 PUSH2 0x30E8 JUMP JUMPDEST DUP2 EQ PUSH2 0x3279 JUMPI PUSH1 0x0 DUP1 REVERT JUMPDEST POP JUMP INVALID LOG2 PUSH5 0x6970667358 0x22 SLT KECCAK256 SGT PUSH6 0x8CD5EA2E292C DUP1 0xD 0xB0 PUSH14 0x5BB2171D6FD0A2B59381A2C652C1 0xE2 GAS 0xC4 0x29 0x26 CREATE2 PUSH5 0x736F6C6343 STOP ADDMOD SMOD STOP CALLER "
				},
				"gasEstimates": {
					"creation": {
						"codeDepositCost": "2595600",
						"executionCost": "2808",
						"totalCost": "2598408"
					},
					"external": {
						"createAward(string[],string[])": "infinite",
						"createContract(string,string,string,string,string)": "infinite",
						"createInformation(string,string,string,string,string,string)": "infinite",
						"createSkill(string[],string[],string[])": "infinite",
						"createUnivercity(string,string,string,string,string)": "infinite",
						"delAllEducation()": "infinite",
						"delCertificateAndAward()": "infinite",
						"delInformaion()": "infinite",
						"delProfile()": "infinite",
						"getEducation(uint256)": "infinite",
						"getEducationCount()": "2585",
						"profile(address)": "infinite"
					}
				},
				"methodIdentifiers": {
					"createAward(string[],string[])": "6c2cc774",
					"createContract(string,string,string,string,string)": "72828388",
					"createInformation(string,string,string,string,string,string)": "958791ae",
					"createSkill(string[],string[],string[])": "3d984d0e",
					"createUnivercity(string,string,string,string,string)": "66244dfb",
					"delAllEducation()": "ed2217ef",
					"delCertificateAndAward()": "4ed74067",
					"delInformaion()": "95ea3757",
					"delProfile()": "fabce08f",
					"getEducation(uint256)": "f96e32f8",
					"getEducationCount()": "6212fa02",
					"profile(address)": "9dd9d0fd"
				}
			},
			"storageLayout": {
				"storage": [
					{
						"astId": 29,
						"contract": "contracts/Profile.sol:Profile",
						"label": "profile",
						"offset": 0,
						"slot": "0",
						"type": "t_mapping(t_address,t_struct(Bio)24_storage)"
					}
				],
				"types": {
					"t_address": {
						"encoding": "inplace",
						"label": "address",
						"numberOfBytes": "20"
					},
					"t_array(t_string_storage)dyn_storage": {
						"base": "t_string_storage",
						"encoding": "dynamic_array",
						"label": "string[]",
						"numberOfBytes": "32"
					},
					"t_array(t_struct(Education)96_storage)dyn_storage": {
						"base": "t_struct(Education)96_storage",
						"encoding": "dynamic_array",
						"label": "struct Profile.Education[]",
						"numberOfBytes": "32"
					},
					"t_mapping(t_address,t_struct(Bio)24_storage)": {
						"encoding": "mapping",
						"key": "t_address",
						"label": "mapping(address => struct Profile.Bio)",
						"numberOfBytes": "32",
						"value": "t_struct(Bio)24_storage"
					},
					"t_string_storage": {
						"encoding": "bytes",
						"label": "string",
						"numberOfBytes": "32"
					},
					"t_struct(Bio)24_storage": {
						"encoding": "inplace",
						"label": "struct Profile.Bio",
						"members": [
							{
								"astId": 4,
								"contract": "contracts/Profile.sol:Profile",
								"label": "information",
								"offset": 0,
								"slot": "0",
								"type": "t_struct(Information)46_storage"
							},
							{
								"astId": 7,
								"contract": "contracts/Profile.sol:Profile",
								"label": "privateContract",
								"offset": 0,
								"slot": "8",
								"type": "t_struct(Contract)59_storage"
							},
							{
								"astId": 10,
								"contract": "contracts/Profile.sol:Profile",
								"label": "skill",
								"offset": 0,
								"slot": "14",
								"type": "t_struct(Skill)69_storage"
							},
							{
								"astId": 14,
								"contract": "contracts/Profile.sol:Profile",
								"label": "education",
								"offset": 0,
								"slot": "17",
								"type": "t_array(t_struct(Education)96_storage)dyn_storage"
							},
							{
								"astId": 17,
								"contract": "contracts/Profile.sol:Profile",
								"label": "certificateAndAward",
								"offset": 0,
								"slot": "18",
								"type": "t_struct(CertificateAndAward)103_storage"
							},
							{
								"astId": 20,
								"contract": "contracts/Profile.sol:Profile",
								"label": "companyExperience",
								"offset": 0,
								"slot": "20",
								"type": "t_struct(CompanyExperience)81_storage"
							},
							{
								"astId": 23,
								"contract": "contracts/Profile.sol:Profile",
								"label": "freelanceExperience",
								"offset": 0,
								"slot": "25",
								"type": "t_struct(FreelanceExperience)85_storage"
							}
						],
						"numberOfBytes": "832"
					},
					"t_struct(CertificateAndAward)103_storage": {
						"encoding": "inplace",
						"label": "struct Profile.CertificateAndAward",
						"members": [
							{
								"astId": 99,
								"contract": "contracts/Profile.sol:Profile",
								"label": "certificate",
								"offset": 0,
								"slot": "0",
								"type": "t_array(t_string_storage)dyn_storage"
							},
							{
								"astId": 102,
								"contract": "contracts/Profile.sol:Profile",
								"label": "award",
								"offset": 0,
								"slot": "1",
								"type": "t_array(t_string_storage)dyn_storage"
							}
						],
						"numberOfBytes": "64"
					},
					"t_struct(CompanyExperience)81_storage": {
						"encoding": "inplace",
						"label": "struct Profile.CompanyExperience",
						"members": [
							{
								"astId": 71,
								"contract": "contracts/Profile.sol:Profile",
								"label": "companyName",
								"offset": 0,
								"slot": "0",
								"type": "t_string_storage"
							},
							{
								"astId": 73,
								"contract": "contracts/Profile.sol:Profile",
								"label": "position",
								"offset": 0,
								"slot": "1",
								"type": "t_string_storage"
							},
							{
								"astId": 75,
								"contract": "contracts/Profile.sol:Profile",
								"label": "startDate",
								"offset": 0,
								"slot": "2",
								"type": "t_string_storage"
							},
							{
								"astId": 77,
								"contract": "contracts/Profile.sol:Profile",
								"label": "endDate",
								"offset": 0,
								"slot": "3",
								"type": "t_string_storage"
							},
							{
								"astId": 80,
								"contract": "contracts/Profile.sol:Profile",
								"label": "project",
								"offset": 0,
								"slot": "4",
								"type": "t_array(t_string_storage)dyn_storage"
							}
						],
						"numberOfBytes": "160"
					},
					"t_struct(Contract)59_storage": {
						"encoding": "inplace",
						"label": "struct Profile.Contract",
						"members": [
							{
								"astId": 48,
								"contract": "contracts/Profile.sol:Profile",
								"label": "aboutMe",
								"offset": 0,
								"slot": "0",
								"type": "t_string_storage"
							},
							{
								"astId": 50,
								"contract": "contracts/Profile.sol:Profile",
								"label": "email",
								"offset": 0,
								"slot": "1",
								"type": "t_string_storage"
							},
							{
								"astId": 52,
								"contract": "contracts/Profile.sol:Profile",
								"label": "phone",
								"offset": 0,
								"slot": "2",
								"type": "t_string_storage"
							},
							{
								"astId": 54,
								"contract": "contracts/Profile.sol:Profile",
								"label": "github",
								"offset": 0,
								"slot": "3",
								"type": "t_string_storage"
							},
							{
								"astId": 56,
								"contract": "contracts/Profile.sol:Profile",
								"label": "gitlab",
								"offset": 0,
								"slot": "4",
								"type": "t_string_storage"
							},
							{
								"astId": 58,
								"contract": "contracts/Profile.sol:Profile",
								"label": "linkin",
								"offset": 0,
								"slot": "5",
								"type": "t_string_storage"
							}
						],
						"numberOfBytes": "192"
					},
					"t_struct(Education)96_storage": {
						"encoding": "inplace",
						"label": "struct Profile.Education",
						"members": [
							{
								"astId": 87,
								"contract": "contracts/Profile.sol:Profile",
								"label": "startDate",
								"offset": 0,
								"slot": "0",
								"type": "t_string_storage"
							},
							{
								"astId": 89,
								"contract": "contracts/Profile.sol:Profile",
								"label": "endDate",
								"offset": 0,
								"slot": "1",
								"type": "t_string_storage"
							},
							{
								"astId": 91,
								"contract": "contracts/Profile.sol:Profile",
								"label": "univercity",
								"offset": 0,
								"slot": "2",
								"type": "t_string_storage"
							},
							{
								"astId": 93,
								"contract": "contracts/Profile.sol:Profile",
								"label": "major",
								"offset": 0,
								"slot": "3",
								"type": "t_string_storage"
							},
							{
								"astId": 95,
								"contract": "contracts/Profile.sol:Profile",
								"label": "finalProject",
								"offset": 0,
								"slot": "4",
								"type": "t_string_storage"
							}
						],
						"numberOfBytes": "160"
					},
					"t_struct(FreelanceExperience)85_storage": {
						"encoding": "inplace",
						"label": "struct Profile.FreelanceExperience",
						"members": [
							{
								"astId": 84,
								"contract": "contracts/Profile.sol:Profile",
								"label": "project",
								"offset": 0,
								"slot": "0",
								"type": "t_array(t_string_storage)dyn_storage"
							}
						],
						"numberOfBytes": "32"
					},
					"t_struct(Information)46_storage": {
						"encoding": "inplace",
						"label": "struct Profile.Information",
						"members": [
							{
								"astId": 31,
								"contract": "contracts/Profile.sol:Profile",
								"label": "aboutMe",
								"offset": 0,
								"slot": "0",
								"type": "t_string_storage"
							},
							{
								"astId": 33,
								"contract": "contracts/Profile.sol:Profile",
								"label": "position",
								"offset": 0,
								"slot": "1",
								"type": "t_string_storage"
							},
							{
								"astId": 35,
								"contract": "contracts/Profile.sol:Profile",
								"label": "userAddress",
								"offset": 0,
								"slot": "2",
								"type": "t_address"
							},
							{
								"astId": 37,
								"contract": "contracts/Profile.sol:Profile",
								"label": "firstName",
								"offset": 0,
								"slot": "3",
								"type": "t_string_storage"
							},
							{
								"astId": 39,
								"contract": "contracts/Profile.sol:Profile",
								"label": "middleName",
								"offset": 0,
								"slot": "4",
								"type": "t_string_storage"
							},
							{
								"astId": 41,
								"contract": "contracts/Profile.sol:Profile",
								"label": "lastName",
								"offset": 0,
								"slot": "5",
								"type": "t_string_storage"
							},
							{
								"astId": 43,
								"contract": "contracts/Profile.sol:Profile",
								"label": "profileImage",
								"offset": 0,
								"slot": "6",
								"type": "t_string_storage"
							},
							{
								"astId": 45,
								"contract": "contracts/Profile.sol:Profile",
								"label": "createDate",
								"offset": 0,
								"slot": "7",
								"type": "t_uint256"
							}
						],
						"numberOfBytes": "256"
					},
					"t_struct(Skill)69_storage": {
						"encoding": "inplace",
						"label": "struct Profile.Skill",
						"members": [
							{
								"astId": 62,
								"contract": "contracts/Profile.sol:Profile",
								"label": "programmingLanguages",
								"offset": 0,
								"slot": "0",
								"type": "t_array(t_string_storage)dyn_storage"
							},
							{
								"astId": 65,
								"contract": "contracts/Profile.sol:Profile",
								"label": "framework",
								"offset": 0,
								"slot": "1",
								"type": "t_array(t_string_storage)dyn_storage"
							},
							{
								"astId": 68,
								"contract": "contracts/Profile.sol:Profile",
								"label": "databaseAndOther",
								"offset": 0,
								"slot": "2",
								"type": "t_array(t_string_storage)dyn_storage"
							}
						],
						"numberOfBytes": "96"
					},
					"t_uint256": {
						"encoding": "inplace",
						"label": "uint256",
						"numberOfBytes": "32"
					}
				}
			},
			"userdoc": {
				"kind": "user",
				"methods": {},
				"version": 1
			}
		}
	}
}