{
	"contracts/Profile.sol": {
		"Profile": {
			"abi": [
				{
					"inputs": [
						{
							"internalType": "string",
							"name": "email",
							"type": "string"
						},
						{
							"internalType": "string",
							"name": "phone",
							"type": "string"
						},
						{
							"internalType": "string",
							"name": "github",
							"type": "string"
						},
						{
							"internalType": "string",
							"name": "gitlab",
							"type": "string"
						},
						{
							"internalType": "string",
							"name": "linkin",
							"type": "string"
						}
					],
					"name": "createContract",
					"outputs": [],
					"stateMutability": "nonpayable",
					"type": "function"
				},
				{
					"inputs": [
						{
							"internalType": "string",
							"name": "firstName",
							"type": "string"
						},
						{
							"internalType": "string",
							"name": "middleName",
							"type": "string"
						},
						{
							"internalType": "string",
							"name": "lastName",
							"type": "string"
						},
						{
							"internalType": "string",
							"name": "profileImage",
							"type": "string"
						},
						{
							"internalType": "string",
							"name": "aboutMe",
							"type": "string"
						}
					],
					"name": "createInformation",
					"outputs": [],
					"stateMutability": "nonpayable",
					"type": "function"
				},
				{
					"inputs": [
						{
							"internalType": "string[]",
							"name": "programmingLanguages",
							"type": "string[]"
						},
						{
							"internalType": "string[]",
							"name": "framework",
							"type": "string[]"
						},
						{
							"internalType": "string[]",
							"name": "databaseAndOther",
							"type": "string[]"
						}
					],
					"name": "createSkill",
					"outputs": [],
					"stateMutability": "nonpayable",
					"type": "function"
				},
				{
					"inputs": [
						{
							"internalType": "string",
							"name": "startDate",
							"type": "string"
						},
						{
							"internalType": "string",
							"name": "endDate",
							"type": "string"
						},
						{
							"internalType": "string",
							"name": "univercity",
							"type": "string"
						},
						{
							"internalType": "string",
							"name": "major",
							"type": "string"
						}
					],
					"name": "createUnivercity",
					"outputs": [],
					"stateMutability": "nonpayable",
					"type": "function"
				},
				{
					"inputs": [],
					"name": "delAllEducation",
					"outputs": [],
					"stateMutability": "nonpayable",
					"type": "function"
				},
				{
					"inputs": [],
					"name": "delInformaion",
					"outputs": [],
					"stateMutability": "nonpayable",
					"type": "function"
				},
				{
					"inputs": [],
					"name": "delProfile",
					"outputs": [],
					"stateMutability": "nonpayable",
					"type": "function"
				},
				{
					"inputs": [
						{
							"internalType": "uint256",
							"name": "index",
							"type": "uint256"
						}
					],
					"name": "getEducation",
					"outputs": [
						{
							"internalType": "string",
							"name": "",
							"type": "string"
						},
						{
							"internalType": "string",
							"name": "",
							"type": "string"
						},
						{
							"internalType": "string",
							"name": "",
							"type": "string"
						},
						{
							"internalType": "string",
							"name": "",
							"type": "string"
						}
					],
					"stateMutability": "view",
					"type": "function"
				},
				{
					"inputs": [],
					"name": "getEducationCount",
					"outputs": [
						{
							"internalType": "uint256",
							"name": "",
							"type": "uint256"
						}
					],
					"stateMutability": "view",
					"type": "function"
				},
				{
					"inputs": [
						{
							"internalType": "address",
							"name": "",
							"type": "address"
						}
					],
					"name": "profile",
					"outputs": [
						{
							"components": [
								{
									"internalType": "string",
									"name": "aboutMe",
									"type": "string"
								},
								{
									"internalType": "address",
									"name": "userAddress",
									"type": "address"
								},
								{
									"internalType": "string",
									"name": "firstName",
									"type": "string"
								},
								{
									"internalType": "string",
									"name": "middleName",
									"type": "string"
								},
								{
									"internalType": "string",
									"name": "lastName",
									"type": "string"
								},
								{
									"internalType": "string",
									"name": "profileImage",
									"type": "string"
								},
								{
									"internalType": "uint256",
									"name": "createDate",
									"type": "uint256"
								}
							],
							"internalType": "struct Profile.Information",
							"name": "information",
							"type": "tuple"
						},
						{
							"components": [
								{
									"internalType": "string",
									"name": "aboutMe",
									"type": "string"
								},
								{
									"internalType": "string",
									"name": "email",
									"type": "string"
								},
								{
									"internalType": "string",
									"name": "phone",
									"type": "string"
								},
								{
									"internalType": "string",
									"name": "github",
									"type": "string"
								},
								{
									"internalType": "string",
									"name": "gitlab",
									"type": "string"
								},
								{
									"internalType": "string",
									"name": "linkin",
									"type": "string"
								}
							],
							"internalType": "struct Profile.Contract",
							"name": "privateContract",
							"type": "tuple"
						},
						{
							"components": [
								{
									"internalType": "string[]",
									"name": "programmingLanguages",
									"type": "string[]"
								},
								{
									"internalType": "string[]",
									"name": "framework",
									"type": "string[]"
								},
								{
									"internalType": "string[]",
									"name": "databaseAndOther",
									"type": "string[]"
								}
							],
							"internalType": "struct Profile.Skill",
							"name": "skill",
							"type": "tuple"
						}
					],
					"stateMutability": "view",
					"type": "function"
				}
			],
			"devdoc": {
				"kind": "dev",
				"methods": {},
				"version": 1
			},
			"evm": {
				"assembly": "    /* \"contracts/Profile.sol\":60:3908  contract Profile {\r... */\n  mstore(0x40, 0x80)\n  callvalue\n  dup1\n  iszero\n  tag_1\n  jumpi\n  0x00\n  dup1\n  revert\ntag_1:\n  pop\n  dataSize(sub_0)\n  dup1\n  dataOffset(sub_0)\n  0x00\n  codecopy\n  0x00\n  return\nstop\n\nsub_0: assembly {\n        /* \"contracts/Profile.sol\":60:3908  contract Profile {\r... */\n      mstore(0x40, 0x80)\n      callvalue\n      dup1\n      iszero\n      tag_1\n      jumpi\n      0x00\n      dup1\n      revert\n    tag_1:\n      pop\n      jumpi(tag_2, lt(calldatasize, 0x04))\n      shr(0xe0, calldataload(0x00))\n      dup1\n      0x9dd9d0fd\n      gt\n      tag_13\n      jumpi\n      dup1\n      0x9dd9d0fd\n      eq\n      tag_8\n      jumpi\n      dup1\n      0xaac80d7a\n      eq\n      tag_9\n      jumpi\n      dup1\n      0xed2217ef\n      eq\n      tag_10\n      jumpi\n      dup1\n      0xf96e32f8\n      eq\n      tag_11\n      jumpi\n      dup1\n      0xfabce08f\n      eq\n      tag_12\n      jumpi\n      jump(tag_2)\n    tag_13:\n      dup1\n      0x3d984d0e\n      eq\n      tag_3\n      jumpi\n      dup1\n      0x6212fa02\n      eq\n      tag_4\n      jumpi\n      dup1\n      0x72828388\n      eq\n      tag_5\n      jumpi\n      dup1\n      0x95ea3757\n      eq\n      tag_6\n      jumpi\n      dup1\n      0x9d983a01\n      eq\n      tag_7\n      jumpi\n    tag_2:\n      0x00\n      dup1\n      revert\n        /* \"contracts/Profile.sol\":2307:2695  function createSkill(string[] memory programmingLanguages, string[] memory framework, string[] memory databaseAndOther) public {\r... */\n    tag_3:\n      tag_14\n      0x04\n      dup1\n      calldatasize\n      sub\n      dup2\n      add\n      swap1\n      tag_15\n      swap2\n      swap1\n      tag_16\n      jump\t// in\n    tag_15:\n      tag_17\n      jump\t// in\n    tag_14:\n      stop\n        /* \"contracts/Profile.sol\":3499:3617  function getEducationCount() public view returns (uint) {\r... */\n    tag_4:\n      tag_18\n      tag_19\n      jump\t// in\n    tag_18:\n      mload(0x40)\n      tag_20\n      swap2\n      swap1\n      tag_21\n      jump\t// in\n    tag_20:\n      mload(0x40)\n      dup1\n      swap2\n      sub\n      swap1\n      return\n        /* \"contracts/Profile.sol\":1704:2220  function createContract(string memory email, string memory phone, string memory github, string memory gitlab, string memory linkin) public {\r... */\n    tag_5:\n      tag_22\n      0x04\n      dup1\n      calldatasize\n      sub\n      dup2\n      add\n      swap1\n      tag_23\n      swap2\n      swap1\n      tag_24\n      jump\t// in\n    tag_23:\n      tag_25\n      jump\t// in\n    tag_22:\n      stop\n        /* \"contracts/Profile.sol\":3729:3821  function delInformaion() external  {\r... */\n    tag_6:\n      tag_26\n      tag_27\n      jump\t// in\n    tag_26:\n      stop\n        /* \"contracts/Profile.sol\":2762:3155  function createUnivercity(string memory startDate, string memory endDate, string memory univercity, string memory major) public {\r... */\n    tag_7:\n      tag_28\n      0x04\n      dup1\n      calldatasize\n      sub\n      dup2\n      add\n      swap1\n      tag_29\n      swap2\n      swap1\n      tag_30\n      jump\t// in\n    tag_29:\n      tag_31\n      jump\t// in\n    tag_28:\n      stop\n        /* \"contracts/Profile.sol\":234:274  mapping (address => Bio) public  profile */\n    tag_8:\n      tag_32\n      0x04\n      dup1\n      calldatasize\n      sub\n      dup2\n      add\n      swap1\n      tag_33\n      swap2\n      swap1\n      tag_34\n      jump\t// in\n    tag_33:\n      tag_35\n      jump\t// in\n    tag_32:\n      mload(0x40)\n      tag_36\n      swap4\n      swap3\n      swap2\n      swap1\n      tag_37\n      jump\t// in\n    tag_36:\n      mload(0x40)\n      dup1\n      swap2\n      sub\n      swap1\n      return\n        /* \"contracts/Profile.sol\":1017:1649  function createInformation(string memory firstName, string memory middleName, string memory lastName,  string memory profileImage, string memory aboutMe) public {\r... */\n    tag_9:\n      tag_38\n      0x04\n      dup1\n      calldatasize\n      sub\n      dup2\n      add\n      swap1\n      tag_39\n      swap2\n      swap1\n      tag_24\n      jump\t// in\n    tag_39:\n      tag_40\n      jump\t// in\n    tag_38:\n      stop\n        /* \"contracts/Profile.sol\":3629:3721  function delAllEducation() external  {\r... */\n    tag_10:\n      tag_41\n      tag_42\n      jump\t// in\n    tag_41:\n      stop\n        /* \"contracts/Profile.sol\":3164:3491  function getEducation(uint index) public view returns(string memory, string memory, string memory, string memory) {\r... */\n    tag_11:\n      tag_43\n      0x04\n      dup1\n      calldatasize\n      sub\n      dup2\n      add\n      swap1\n      tag_44\n      swap2\n      swap1\n      tag_45\n      jump\t// in\n    tag_44:\n      tag_46\n      jump\t// in\n    tag_43:\n      mload(0x40)\n      tag_47\n      swap5\n      swap4\n      swap3\n      swap2\n      swap1\n      tag_48\n      jump\t// in\n    tag_47:\n      mload(0x40)\n      dup1\n      swap2\n      sub\n      swap1\n      return\n        /* \"contracts/Profile.sol\":3829:3905  function delProfile() external {\r... */\n    tag_12:\n      tag_49\n      tag_50\n      jump\t// in\n    tag_49:\n      stop\n        /* \"contracts/Profile.sol\":2307:2695  function createSkill(string[] memory programmingLanguages, string[] memory framework, string[] memory databaseAndOther) public {\r... */\n    tag_17:\n        /* \"contracts/Profile.sol\":2452:2459  profile */\n      0x00\n        /* \"contracts/Profile.sol\":2452:2471  profile[msg.sender] */\n      dup1\n        /* \"contracts/Profile.sol\":2460:2470  msg.sender */\n      caller\n        /* \"contracts/Profile.sol\":2452:2471  profile[msg.sender] */\n      0xffffffffffffffffffffffffffffffffffffffff\n      and\n      0xffffffffffffffffffffffffffffffffffffffff\n      and\n      dup2\n      mstore\n      0x20\n      add\n      swap1\n      dup2\n      mstore\n      0x20\n      add\n      0x00\n      keccak256\n        /* \"contracts/Profile.sol\":2452:2477  profile[msg.sender].skill */\n      0x0d\n      add\n      0x00\n        /* \"contracts/Profile.sol\":2445:2477  delete profile[msg.sender].skill */\n      dup1\n      dup3\n      add\n      0x00\n      tag_52\n      swap2\n      swap1\n      tag_53\n      jump\t// in\n    tag_52:\n      0x01\n      dup3\n      add\n      0x00\n      tag_54\n      swap2\n      swap1\n      tag_53\n      jump\t// in\n    tag_54:\n      0x02\n      dup3\n      add\n      0x00\n      tag_55\n      swap2\n      swap1\n      tag_53\n      jump\t// in\n    tag_55:\n      pop\n      pop\n        /* \"contracts/Profile.sol\":2537:2557  programmingLanguages */\n      dup3\n        /* \"contracts/Profile.sol\":2488:2495  profile */\n      0x00\n        /* \"contracts/Profile.sol\":2488:2507  profile[msg.sender] */\n      dup1\n        /* \"contracts/Profile.sol\":2496:2506  msg.sender */\n      caller\n        /* \"contracts/Profile.sol\":2488:2507  profile[msg.sender] */\n      0xffffffffffffffffffffffffffffffffffffffff\n      and\n      0xffffffffffffffffffffffffffffffffffffffff\n      and\n      dup2\n      mstore\n      0x20\n      add\n      swap1\n      dup2\n      mstore\n      0x20\n      add\n      0x00\n      keccak256\n        /* \"contracts/Profile.sol\":2488:2513  profile[msg.sender].skill */\n      0x0d\n      add\n        /* \"contracts/Profile.sol\":2488:2534  profile[msg.sender].skill.programmingLanguages */\n      0x00\n      add\n        /* \"contracts/Profile.sol\":2488:2557  profile[msg.sender].skill.programmingLanguages = programmingLanguages */\n      swap1\n      dup1\n      mload\n      swap1\n      0x20\n      add\n      swap1\n      tag_56\n      swap3\n      swap2\n      swap1\n      tag_57\n      jump\t// in\n    tag_56:\n      pop\n        /* \"contracts/Profile.sol\":2606:2615  framework */\n      dup2\n        /* \"contracts/Profile.sol\":2568:2575  profile */\n      0x00\n        /* \"contracts/Profile.sol\":2568:2587  profile[msg.sender] */\n      dup1\n        /* \"contracts/Profile.sol\":2576:2586  msg.sender */\n      caller\n        /* \"contracts/Profile.sol\":2568:2587  profile[msg.sender] */\n      0xffffffffffffffffffffffffffffffffffffffff\n      and\n      0xffffffffffffffffffffffffffffffffffffffff\n      and\n      dup2\n      mstore\n      0x20\n      add\n      swap1\n      dup2\n      mstore\n      0x20\n      add\n      0x00\n      keccak256\n        /* \"contracts/Profile.sol\":2568:2593  profile[msg.sender].skill */\n      0x0d\n      add\n        /* \"contracts/Profile.sol\":2568:2603  profile[msg.sender].skill.framework */\n      0x01\n      add\n        /* \"contracts/Profile.sol\":2568:2615  profile[msg.sender].skill.framework = framework */\n      swap1\n      dup1\n      mload\n      swap1\n      0x20\n      add\n      swap1\n      tag_58\n      swap3\n      swap2\n      swap1\n      tag_57\n      jump\t// in\n    tag_58:\n      pop\n        /* \"contracts/Profile.sol\":2671:2687  databaseAndOther */\n      dup1\n        /* \"contracts/Profile.sol\":2626:2633  profile */\n      0x00\n        /* \"contracts/Profile.sol\":2626:2645  profile[msg.sender] */\n      dup1\n        /* \"contracts/Profile.sol\":2634:2644  msg.sender */\n      caller\n        /* \"contracts/Profile.sol\":2626:2645  profile[msg.sender] */\n      0xffffffffffffffffffffffffffffffffffffffff\n      and\n      0xffffffffffffffffffffffffffffffffffffffff\n      and\n      dup2\n      mstore\n      0x20\n      add\n      swap1\n      dup2\n      mstore\n      0x20\n      add\n      0x00\n      keccak256\n        /* \"contracts/Profile.sol\":2626:2651  profile[msg.sender].skill */\n      0x0d\n      add\n        /* \"contracts/Profile.sol\":2626:2668  profile[msg.sender].skill.databaseAndOther */\n      0x02\n      add\n        /* \"contracts/Profile.sol\":2626:2687  profile[msg.sender].skill.databaseAndOther = databaseAndOther */\n      swap1\n      dup1\n      mload\n      swap1\n      0x20\n      add\n      swap1\n      tag_59\n      swap3\n      swap2\n      swap1\n      tag_57\n      jump\t// in\n    tag_59:\n      pop\n        /* \"contracts/Profile.sol\":2307:2695  function createSkill(string[] memory programmingLanguages, string[] memory framework, string[] memory databaseAndOther) public {\r... */\n      pop\n      pop\n      pop\n      jump\t// out\n        /* \"contracts/Profile.sol\":3499:3617  function getEducationCount() public view returns (uint) {\r... */\n    tag_19:\n        /* \"contracts/Profile.sol\":3549:3553  uint */\n      0x00\n        /* \"contracts/Profile.sol\":3573:3580  profile */\n      dup1\n        /* \"contracts/Profile.sol\":3573:3592  profile[msg.sender] */\n      0x00\n        /* \"contracts/Profile.sol\":3581:3591  msg.sender */\n      caller\n        /* \"contracts/Profile.sol\":3573:3592  profile[msg.sender] */\n      0xffffffffffffffffffffffffffffffffffffffff\n      and\n      0xffffffffffffffffffffffffffffffffffffffff\n      and\n      dup2\n      mstore\n      0x20\n      add\n      swap1\n      dup2\n      mstore\n      0x20\n      add\n      0x00\n      keccak256\n        /* \"contracts/Profile.sol\":3573:3602  profile[msg.sender].education */\n      0x10\n      add\n        /* \"contracts/Profile.sol\":3573:3609  profile[msg.sender].education.length */\n      dup1\n      sload\n      swap1\n      pop\n        /* \"contracts/Profile.sol\":3566:3609  return profile[msg.sender].education.length */\n      swap1\n      pop\n        /* \"contracts/Profile.sol\":3499:3617  function getEducationCount() public view returns (uint) {\r... */\n      swap1\n      jump\t// out\n        /* \"contracts/Profile.sol\":1704:2220  function createContract(string memory email, string memory phone, string memory github, string memory gitlab, string memory linkin) public {\r... */\n    tag_25:\n        /* \"contracts/Profile.sol\":1861:1868  profile */\n      0x00\n        /* \"contracts/Profile.sol\":1861:1880  profile[msg.sender] */\n      dup1\n        /* \"contracts/Profile.sol\":1869:1879  msg.sender */\n      caller\n        /* \"contracts/Profile.sol\":1861:1880  profile[msg.sender] */\n      0xffffffffffffffffffffffffffffffffffffffff\n      and\n      0xffffffffffffffffffffffffffffffffffffffff\n      and\n      dup2\n      mstore\n      0x20\n      add\n      swap1\n      dup2\n      mstore\n      0x20\n      add\n      0x00\n      keccak256\n        /* \"contracts/Profile.sol\":1861:1896  profile[msg.sender].privateContract */\n      0x07\n      add\n      0x00\n        /* \"contracts/Profile.sol\":1854:1896  delete profile[msg.sender].privateContract */\n      dup1\n      dup3\n      add\n      0x00\n      tag_62\n      swap2\n      swap1\n      tag_63\n      jump\t// in\n    tag_62:\n      0x01\n      dup3\n      add\n      0x00\n      tag_64\n      swap2\n      swap1\n      tag_63\n      jump\t// in\n    tag_64:\n      0x02\n      dup3\n      add\n      0x00\n      tag_65\n      swap2\n      swap1\n      tag_63\n      jump\t// in\n    tag_65:\n      0x03\n      dup3\n      add\n      0x00\n      tag_66\n      swap2\n      swap1\n      tag_63\n      jump\t// in\n    tag_66:\n      0x04\n      dup3\n      add\n      0x00\n      tag_67\n      swap2\n      swap1\n      tag_63\n      jump\t// in\n    tag_67:\n      0x05\n      dup3\n      add\n      0x00\n      tag_68\n      swap2\n      swap1\n      tag_63\n      jump\t// in\n    tag_68:\n      pop\n      pop\n        /* \"contracts/Profile.sol\":1951:1956  email */\n      dup5\n        /* \"contracts/Profile.sol\":1907:1914  profile */\n      0x00\n        /* \"contracts/Profile.sol\":1907:1926  profile[msg.sender] */\n      dup1\n        /* \"contracts/Profile.sol\":1915:1925  msg.sender */\n      caller\n        /* \"contracts/Profile.sol\":1907:1926  profile[msg.sender] */\n      0xffffffffffffffffffffffffffffffffffffffff\n      and\n      0xffffffffffffffffffffffffffffffffffffffff\n      and\n      dup2\n      mstore\n      0x20\n      add\n      swap1\n      dup2\n      mstore\n      0x20\n      add\n      0x00\n      keccak256\n        /* \"contracts/Profile.sol\":1907:1942  profile[msg.sender].privateContract */\n      0x07\n      add\n        /* \"contracts/Profile.sol\":1907:1948  profile[msg.sender].privateContract.email */\n      0x01\n      add\n        /* \"contracts/Profile.sol\":1907:1956  profile[msg.sender].privateContract.email = email */\n      swap1\n      dup1\n      mload\n      swap1\n      0x20\n      add\n      swap1\n      tag_69\n      swap3\n      swap2\n      swap1\n      tag_70\n      jump\t// in\n    tag_69:\n      pop\n        /* \"contracts/Profile.sol\":2011:2016  phone */\n      dup4\n        /* \"contracts/Profile.sol\":1967:1974  profile */\n      0x00\n        /* \"contracts/Profile.sol\":1967:1986  profile[msg.sender] */\n      dup1\n        /* \"contracts/Profile.sol\":1975:1985  msg.sender */\n      caller\n        /* \"contracts/Profile.sol\":1967:1986  profile[msg.sender] */\n      0xffffffffffffffffffffffffffffffffffffffff\n      and\n      0xffffffffffffffffffffffffffffffffffffffff\n      and\n      dup2\n      mstore\n      0x20\n      add\n      swap1\n      dup2\n      mstore\n      0x20\n      add\n      0x00\n      keccak256\n        /* \"contracts/Profile.sol\":1967:2002  profile[msg.sender].privateContract */\n      0x07\n      add\n        /* \"contracts/Profile.sol\":1967:2008  profile[msg.sender].privateContract.phone */\n      0x02\n      add\n        /* \"contracts/Profile.sol\":1967:2016  profile[msg.sender].privateContract.phone = phone */\n      swap1\n      dup1\n      mload\n      swap1\n      0x20\n      add\n      swap1\n      tag_71\n      swap3\n      swap2\n      swap1\n      tag_70\n      jump\t// in\n    tag_71:\n      pop\n        /* \"contracts/Profile.sol\":2072:2078  github */\n      dup3\n        /* \"contracts/Profile.sol\":2027:2034  profile */\n      0x00\n        /* \"contracts/Profile.sol\":2027:2046  profile[msg.sender] */\n      dup1\n        /* \"contracts/Profile.sol\":2035:2045  msg.sender */\n      caller\n        /* \"contracts/Profile.sol\":2027:2046  profile[msg.sender] */\n      0xffffffffffffffffffffffffffffffffffffffff\n      and\n      0xffffffffffffffffffffffffffffffffffffffff\n      and\n      dup2\n      mstore\n      0x20\n      add\n      swap1\n      dup2\n      mstore\n      0x20\n      add\n      0x00\n      keccak256\n        /* \"contracts/Profile.sol\":2027:2062  profile[msg.sender].privateContract */\n      0x07\n      add\n        /* \"contracts/Profile.sol\":2027:2069  profile[msg.sender].privateContract.github */\n      0x03\n      add\n        /* \"contracts/Profile.sol\":2027:2078  profile[msg.sender].privateContract.github = github */\n      swap1\n      dup1\n      mload\n      swap1\n      0x20\n      add\n      swap1\n      tag_72\n      swap3\n      swap2\n      swap1\n      tag_70\n      jump\t// in\n    tag_72:\n      pop\n        /* \"contracts/Profile.sol\":2133:2139  gitlab */\n      dup2\n        /* \"contracts/Profile.sol\":2089:2096  profile */\n      0x00\n        /* \"contracts/Profile.sol\":2089:2108  profile[msg.sender] */\n      dup1\n        /* \"contracts/Profile.sol\":2097:2107  msg.sender */\n      caller\n        /* \"contracts/Profile.sol\":2089:2108  profile[msg.sender] */\n      0xffffffffffffffffffffffffffffffffffffffff\n      and\n      0xffffffffffffffffffffffffffffffffffffffff\n      and\n      dup2\n      mstore\n      0x20\n      add\n      swap1\n      dup2\n      mstore\n      0x20\n      add\n      0x00\n      keccak256\n        /* \"contracts/Profile.sol\":2089:2124  profile[msg.sender].privateContract */\n      0x07\n      add\n        /* \"contracts/Profile.sol\":2089:2130  profile[msg.sender].privateContract.phone */\n      0x02\n      add\n        /* \"contracts/Profile.sol\":2089:2139  profile[msg.sender].privateContract.phone = gitlab */\n      swap1\n      dup1\n      mload\n      swap1\n      0x20\n      add\n      swap1\n      tag_73\n      swap3\n      swap2\n      swap1\n      tag_70\n      jump\t// in\n    tag_73:\n      pop\n        /* \"contracts/Profile.sol\":2194:2200  linkin */\n      dup1\n        /* \"contracts/Profile.sol\":2150:2157  profile */\n      0x00\n        /* \"contracts/Profile.sol\":2150:2169  profile[msg.sender] */\n      dup1\n        /* \"contracts/Profile.sol\":2158:2168  msg.sender */\n      caller\n        /* \"contracts/Profile.sol\":2150:2169  profile[msg.sender] */\n      0xffffffffffffffffffffffffffffffffffffffff\n      and\n      0xffffffffffffffffffffffffffffffffffffffff\n      and\n      dup2\n      mstore\n      0x20\n      add\n      swap1\n      dup2\n      mstore\n      0x20\n      add\n      0x00\n      keccak256\n        /* \"contracts/Profile.sol\":2150:2185  profile[msg.sender].privateContract */\n      0x07\n      add\n        /* \"contracts/Profile.sol\":2150:2191  profile[msg.sender].privateContract.email */\n      0x01\n      add\n        /* \"contracts/Profile.sol\":2150:2200  profile[msg.sender].privateContract.email = linkin */\n      swap1\n      dup1\n      mload\n      swap1\n      0x20\n      add\n      swap1\n      tag_74\n      swap3\n      swap2\n      swap1\n      tag_70\n      jump\t// in\n    tag_74:\n      pop\n        /* \"contracts/Profile.sol\":1704:2220  function createContract(string memory email, string memory phone, string memory github, string memory gitlab, string memory linkin) public {\r... */\n      pop\n      pop\n      pop\n      pop\n      pop\n      jump\t// out\n        /* \"contracts/Profile.sol\":3729:3821  function delInformaion() external  {\r... */\n    tag_27:\n        /* \"contracts/Profile.sol\":3782:3789  profile */\n      0x00\n        /* \"contracts/Profile.sol\":3782:3801  profile[msg.sender] */\n      dup1\n        /* \"contracts/Profile.sol\":3790:3800  msg.sender */\n      caller\n        /* \"contracts/Profile.sol\":3782:3801  profile[msg.sender] */\n      0xffffffffffffffffffffffffffffffffffffffff\n      and\n      0xffffffffffffffffffffffffffffffffffffffff\n      and\n      dup2\n      mstore\n      0x20\n      add\n      swap1\n      dup2\n      mstore\n      0x20\n      add\n      0x00\n      keccak256\n        /* \"contracts/Profile.sol\":3782:3813  profile[msg.sender].information */\n      0x00\n      add\n      0x00\n        /* \"contracts/Profile.sol\":3775:3813  delete profile[msg.sender].information */\n      dup1\n      dup3\n      add\n      0x00\n      tag_76\n      swap2\n      swap1\n      tag_63\n      jump\t// in\n    tag_76:\n      0x01\n      dup3\n      add\n      exp(0x0100, 0x00)\n      dup2\n      sload\n      swap1\n      0xffffffffffffffffffffffffffffffffffffffff\n      mul\n      not\n      and\n      swap1\n      sstore\n      0x02\n      dup3\n      add\n      0x00\n      tag_77\n      swap2\n      swap1\n      tag_63\n      jump\t// in\n    tag_77:\n      0x03\n      dup3\n      add\n      0x00\n      tag_78\n      swap2\n      swap1\n      tag_63\n      jump\t// in\n    tag_78:\n      0x04\n      dup3\n      add\n      0x00\n      tag_79\n      swap2\n      swap1\n      tag_63\n      jump\t// in\n    tag_79:\n      0x05\n      dup3\n      add\n      0x00\n      tag_80\n      swap2\n      swap1\n      tag_63\n      jump\t// in\n    tag_80:\n      0x06\n      dup3\n      add\n      0x00\n      swap1\n      sstore\n      pop\n      pop\n        /* \"contracts/Profile.sol\":3729:3821  function delInformaion() external  {\r... */\n      jump\t// out\n        /* \"contracts/Profile.sol\":2762:3155  function createUnivercity(string memory startDate, string memory endDate, string memory univercity, string memory major) public {\r... */\n    tag_31:\n        /* \"contracts/Profile.sol\":2901:2928  Education memory _education */\n      tag_82\n      tag_83\n      jump\t// in\n    tag_82:\n        /* \"contracts/Profile.sol\":2962:2971  startDate */\n      dup5\n        /* \"contracts/Profile.sol\":2939:2949  _education */\n      dup2\n        /* \"contracts/Profile.sol\":2939:2959  _education.startDate */\n      0x00\n      add\n        /* \"contracts/Profile.sol\":2939:2971  _education.startDate = startDate */\n      dup2\n      swap1\n      mstore\n      pop\n        /* \"contracts/Profile.sol\":3003:3010  endDate */\n      dup4\n        /* \"contracts/Profile.sol\":2982:2992  _education */\n      dup2\n        /* \"contracts/Profile.sol\":2982:3000  _education.endDate */\n      0x20\n      add\n        /* \"contracts/Profile.sol\":2982:3010  _education.endDate = endDate */\n      dup2\n      swap1\n      mstore\n      pop\n        /* \"contracts/Profile.sol\":3045:3055  univercity */\n      dup3\n        /* \"contracts/Profile.sol\":3021:3031  _education */\n      dup2\n        /* \"contracts/Profile.sol\":3021:3042  _education.univercity */\n      0x40\n      add\n        /* \"contracts/Profile.sol\":3021:3055  _education.univercity = univercity */\n      dup2\n      swap1\n      mstore\n      pop\n        /* \"contracts/Profile.sol\":3085:3090  major */\n      dup2\n        /* \"contracts/Profile.sol\":3066:3076  _education */\n      dup2\n        /* \"contracts/Profile.sol\":3066:3082  _education.major */\n      0x60\n      add\n        /* \"contracts/Profile.sol\":3066:3090  _education.major = major */\n      dup2\n      swap1\n      mstore\n      pop\n        /* \"contracts/Profile.sol\":3101:3108  profile */\n      0x00\n        /* \"contracts/Profile.sol\":3101:3120  profile[msg.sender] */\n      dup1\n        /* \"contracts/Profile.sol\":3109:3119  msg.sender */\n      caller\n        /* \"contracts/Profile.sol\":3101:3120  profile[msg.sender] */\n      0xffffffffffffffffffffffffffffffffffffffff\n      and\n      0xffffffffffffffffffffffffffffffffffffffff\n      and\n      dup2\n      mstore\n      0x20\n      add\n      swap1\n      dup2\n      mstore\n      0x20\n      add\n      0x00\n      keccak256\n        /* \"contracts/Profile.sol\":3101:3130  profile[msg.sender].education */\n      0x10\n      add\n        /* \"contracts/Profile.sol\":3136:3146  _education */\n      dup2\n        /* \"contracts/Profile.sol\":3101:3147  profile[msg.sender].education.push(_education) */\n      swap1\n      dup1\n      0x01\n      dup2\n      sload\n      add\n      dup1\n      dup3\n      sstore\n      dup1\n      swap2\n      pop\n      pop\n      0x01\n      swap1\n      sub\n      swap1\n      0x00\n      mstore\n      keccak256(0x00, 0x20)\n      swap1\n      0x04\n      mul\n      add\n      0x00\n      swap1\n      swap2\n      swap1\n      swap2\n      swap1\n      swap2\n      pop\n      0x00\n      dup3\n      add\n      mload\n      dup2\n      0x00\n      add\n      swap1\n      dup1\n      mload\n      swap1\n      0x20\n      add\n      swap1\n      tag_85\n      swap3\n      swap2\n      swap1\n      tag_70\n      jump\t// in\n    tag_85:\n      pop\n      0x20\n      dup3\n      add\n      mload\n      dup2\n      0x01\n      add\n      swap1\n      dup1\n      mload\n      swap1\n      0x20\n      add\n      swap1\n      tag_86\n      swap3\n      swap2\n      swap1\n      tag_70\n      jump\t// in\n    tag_86:\n      pop\n      0x40\n      dup3\n      add\n      mload\n      dup2\n      0x02\n      add\n      swap1\n      dup1\n      mload\n      swap1\n      0x20\n      add\n      swap1\n      tag_87\n      swap3\n      swap2\n      swap1\n      tag_70\n      jump\t// in\n    tag_87:\n      pop\n      0x60\n      dup3\n      add\n      mload\n      dup2\n      0x03\n      add\n      swap1\n      dup1\n      mload\n      swap1\n      0x20\n      add\n      swap1\n      tag_88\n      swap3\n      swap2\n      swap1\n      tag_70\n      jump\t// in\n    tag_88:\n      pop\n      pop\n      pop\n        /* \"contracts/Profile.sol\":2890:3155  {\r... */\n      pop\n        /* \"contracts/Profile.sol\":2762:3155  function createUnivercity(string memory startDate, string memory endDate, string memory univercity, string memory major) public {\r... */\n      pop\n      pop\n      pop\n      pop\n      jump\t// out\n        /* \"contracts/Profile.sol\":234:274  mapping (address => Bio) public  profile */\n    tag_35:\n      mstore(0x20, 0x00)\n      dup1\n      0x00\n      mstore\n      keccak256(0x00, 0x40)\n      0x00\n      swap2\n      pop\n      swap1\n      pop\n      dup1\n      0x00\n      add\n      mload(0x40)\n      dup1\n      0xe0\n      add\n      0x40\n      mstore\n      swap1\n      dup2\n      0x00\n      dup3\n      add\n      dup1\n      sload\n      tag_89\n      swap1\n      tag_90\n      jump\t// in\n    tag_89:\n      dup1\n      0x1f\n      add\n      0x20\n      dup1\n      swap2\n      div\n      mul\n      0x20\n      add\n      mload(0x40)\n      swap1\n      dup2\n      add\n      0x40\n      mstore\n      dup1\n      swap3\n      swap2\n      swap1\n      dup2\n      dup2\n      mstore\n      0x20\n      add\n      dup3\n      dup1\n      sload\n      tag_91\n      swap1\n      tag_90\n      jump\t// in\n    tag_91:\n      dup1\n      iszero\n      tag_92\n      jumpi\n      dup1\n      0x1f\n      lt\n      tag_93\n      jumpi\n      0x0100\n      dup1\n      dup4\n      sload\n      div\n      mul\n      dup4\n      mstore\n      swap2\n      0x20\n      add\n      swap2\n      jump(tag_92)\n    tag_93:\n      dup3\n      add\n      swap2\n      swap1\n      0x00\n      mstore\n      keccak256(0x00, 0x20)\n      swap1\n    tag_94:\n      dup2\n      sload\n      dup2\n      mstore\n      swap1\n      0x01\n      add\n      swap1\n      0x20\n      add\n      dup1\n      dup4\n      gt\n      tag_94\n      jumpi\n      dup3\n      swap1\n      sub\n      0x1f\n      and\n      dup3\n      add\n      swap2\n    tag_92:\n      pop\n      pop\n      pop\n      pop\n      pop\n      dup2\n      mstore\n      0x20\n      add\n      0x01\n      dup3\n      add\n      0x00\n      swap1\n      sload\n      swap1\n      0x0100\n      exp\n      swap1\n      div\n      0xffffffffffffffffffffffffffffffffffffffff\n      and\n      0xffffffffffffffffffffffffffffffffffffffff\n      and\n      0xffffffffffffffffffffffffffffffffffffffff\n      and\n      dup2\n      mstore\n      0x20\n      add\n      0x02\n      dup3\n      add\n      dup1\n      sload\n      tag_95\n      swap1\n      tag_90\n      jump\t// in\n    tag_95:\n      dup1\n      0x1f\n      add\n      0x20\n      dup1\n      swap2\n      div\n      mul\n      0x20\n      add\n      mload(0x40)\n      swap1\n      dup2\n      add\n      0x40\n      mstore\n      dup1\n      swap3\n      swap2\n      swap1\n      dup2\n      dup2\n      mstore\n      0x20\n      add\n      dup3\n      dup1\n      sload\n      tag_96\n      swap1\n      tag_90\n      jump\t// in\n    tag_96:\n      dup1\n      iszero\n      tag_97\n      jumpi\n      dup1\n      0x1f\n      lt\n      tag_98\n      jumpi\n      0x0100\n      dup1\n      dup4\n      sload\n      div\n      mul\n      dup4\n      mstore\n      swap2\n      0x20\n      add\n      swap2\n      jump(tag_97)\n    tag_98:\n      dup3\n      add\n      swap2\n      swap1\n      0x00\n      mstore\n      keccak256(0x00, 0x20)\n      swap1\n    tag_99:\n      dup2\n      sload\n      dup2\n      mstore\n      swap1\n      0x01\n      add\n      swap1\n      0x20\n      add\n      dup1\n      dup4\n      gt\n      tag_99\n      jumpi\n      dup3\n      swap1\n      sub\n      0x1f\n      and\n      dup3\n      add\n      swap2\n    tag_97:\n      pop\n      pop\n      pop\n      pop\n      pop\n      dup2\n      mstore\n      0x20\n      add\n      0x03\n      dup3\n      add\n      dup1\n      sload\n      tag_100\n      swap1\n      tag_90\n      jump\t// in\n    tag_100:\n      dup1\n      0x1f\n      add\n      0x20\n      dup1\n      swap2\n      div\n      mul\n      0x20\n      add\n      mload(0x40)\n      swap1\n      dup2\n      add\n      0x40\n      mstore\n      dup1\n      swap3\n      swap2\n      swap1\n      dup2\n      dup2\n      mstore\n      0x20\n      add\n      dup3\n      dup1\n      sload\n      tag_101\n      swap1\n      tag_90\n      jump\t// in\n    tag_101:\n      dup1\n      iszero\n      tag_102\n      jumpi\n      dup1\n      0x1f\n      lt\n      tag_103\n      jumpi\n      0x0100\n      dup1\n      dup4\n      sload\n      div\n      mul\n      dup4\n      mstore\n      swap2\n      0x20\n      add\n      swap2\n      jump(tag_102)\n    tag_103:\n      dup3\n      add\n      swap2\n      swap1\n      0x00\n      mstore\n      keccak256(0x00, 0x20)\n      swap1\n    tag_104:\n      dup2\n      sload\n      dup2\n      mstore\n      swap1\n      0x01\n      add\n      swap1\n      0x20\n      add\n      dup1\n      dup4\n      gt\n      tag_104\n      jumpi\n      dup3\n      swap1\n      sub\n      0x1f\n      and\n      dup3\n      add\n      swap2\n    tag_102:\n      pop\n      pop\n      pop\n      pop\n      pop\n      dup2\n      mstore\n      0x20\n      add\n      0x04\n      dup3\n      add\n      dup1\n      sload\n      tag_105\n      swap1\n      tag_90\n      jump\t// in\n    tag_105:\n      dup1\n      0x1f\n      add\n      0x20\n      dup1\n      swap2\n      div\n      mul\n      0x20\n      add\n      mload(0x40)\n      swap1\n      dup2\n      add\n      0x40\n      mstore\n      dup1\n      swap3\n      swap2\n      swap1\n      dup2\n      dup2\n      mstore\n      0x20\n      add\n      dup3\n      dup1\n      sload\n      tag_106\n      swap1\n      tag_90\n      jump\t// in\n    tag_106:\n      dup1\n      iszero\n      tag_107\n      jumpi\n      dup1\n      0x1f\n      lt\n      tag_108\n      jumpi\n      0x0100\n      dup1\n      dup4\n      sload\n      div\n      mul\n      dup4\n      mstore\n      swap2\n      0x20\n      add\n      swap2\n      jump(tag_107)\n    tag_108:\n      dup3\n      add\n      swap2\n      swap1\n      0x00\n      mstore\n      keccak256(0x00, 0x20)\n      swap1\n    tag_109:\n      dup2\n      sload\n      dup2\n      mstore\n      swap1\n      0x01\n      add\n      swap1\n      0x20\n      add\n      dup1\n      dup4\n      gt\n      tag_109\n      jumpi\n      dup3\n      swap1\n      sub\n      0x1f\n      and\n      dup3\n      add\n      swap2\n    tag_107:\n      pop\n      pop\n      pop\n      pop\n      pop\n      dup2\n      mstore\n      0x20\n      add\n      0x05\n      dup3\n      add\n      dup1\n      sload\n      tag_110\n      swap1\n      tag_90\n      jump\t// in\n    tag_110:\n      dup1\n      0x1f\n      add\n      0x20\n      dup1\n      swap2\n      div\n      mul\n      0x20\n      add\n      mload(0x40)\n      swap1\n      dup2\n      add\n      0x40\n      mstore\n      dup1\n      swap3\n      swap2\n      swap1\n      dup2\n      dup2\n      mstore\n      0x20\n      add\n      dup3\n      dup1\n      sload\n      tag_111\n      swap1\n      tag_90\n      jump\t// in\n    tag_111:\n      dup1\n      iszero\n      tag_112\n      jumpi\n      dup1\n      0x1f\n      lt\n      tag_113\n      jumpi\n      0x0100\n      dup1\n      dup4\n      sload\n      div\n      mul\n      dup4\n      mstore\n      swap2\n      0x20\n      add\n      swap2\n      jump(tag_112)\n    tag_113:\n      dup3\n      add\n      swap2\n      swap1\n      0x00\n      mstore\n      keccak256(0x00, 0x20)\n      swap1\n    tag_114:\n      dup2\n      sload\n      dup2\n      mstore\n      swap1\n      0x01\n      add\n      swap1\n      0x20\n      add\n      dup1\n      dup4\n      gt\n      tag_114\n      jumpi\n      dup3\n      swap1\n      sub\n      0x1f\n      and\n      dup3\n      add\n      swap2\n    tag_112:\n      pop\n      pop\n      pop\n      pop\n      pop\n      dup2\n      mstore\n      0x20\n      add\n      0x06\n      dup3\n      add\n      sload\n      dup2\n      mstore\n      pop\n      pop\n      swap1\n      dup1\n      0x07\n      add\n      mload(0x40)\n      dup1\n      0xc0\n      add\n      0x40\n      mstore\n      swap1\n      dup2\n      0x00\n      dup3\n      add\n      dup1\n      sload\n      tag_115\n      swap1\n      tag_90\n      jump\t// in\n    tag_115:\n      dup1\n      0x1f\n      add\n      0x20\n      dup1\n      swap2\n      div\n      mul\n      0x20\n      add\n      mload(0x40)\n      swap1\n      dup2\n      add\n      0x40\n      mstore\n      dup1\n      swap3\n      swap2\n      swap1\n      dup2\n      dup2\n      mstore\n      0x20\n      add\n      dup3\n      dup1\n      sload\n      tag_116\n      swap1\n      tag_90\n      jump\t// in\n    tag_116:\n      dup1\n      iszero\n      tag_117\n      jumpi\n      dup1\n      0x1f\n      lt\n      tag_118\n      jumpi\n      0x0100\n      dup1\n      dup4\n      sload\n      div\n      mul\n      dup4\n      mstore\n      swap2\n      0x20\n      add\n      swap2\n      jump(tag_117)\n    tag_118:\n      dup3\n      add\n      swap2\n      swap1\n      0x00\n      mstore\n      keccak256(0x00, 0x20)\n      swap1\n    tag_119:\n      dup2\n      sload\n      dup2\n      mstore\n      swap1\n      0x01\n      add\n      swap1\n      0x20\n      add\n      dup1\n      dup4\n      gt\n      tag_119\n      jumpi\n      dup3\n      swap1\n      sub\n      0x1f\n      and\n      dup3\n      add\n      swap2\n    tag_117:\n      pop\n      pop\n      pop\n      pop\n      pop\n      dup2\n      mstore\n      0x20\n      add\n      0x01\n      dup3\n      add\n      dup1\n      sload\n      tag_120\n      swap1\n      tag_90\n      jump\t// in\n    tag_120:\n      dup1\n      0x1f\n      add\n      0x20\n      dup1\n      swap2\n      div\n      mul\n      0x20\n      add\n      mload(0x40)\n      swap1\n      dup2\n      add\n      0x40\n      mstore\n      dup1\n      swap3\n      swap2\n      swap1\n      dup2\n      dup2\n      mstore\n      0x20\n      add\n      dup3\n      dup1\n      sload\n      tag_121\n      swap1\n      tag_90\n      jump\t// in\n    tag_121:\n      dup1\n      iszero\n      tag_122\n      jumpi\n      dup1\n      0x1f\n      lt\n      tag_123\n      jumpi\n      0x0100\n      dup1\n      dup4\n      sload\n      div\n      mul\n      dup4\n      mstore\n      swap2\n      0x20\n      add\n      swap2\n      jump(tag_122)\n    tag_123:\n      dup3\n      add\n      swap2\n      swap1\n      0x00\n      mstore\n      keccak256(0x00, 0x20)\n      swap1\n    tag_124:\n      dup2\n      sload\n      dup2\n      mstore\n      swap1\n      0x01\n      add\n      swap1\n      0x20\n      add\n      dup1\n      dup4\n      gt\n      tag_124\n      jumpi\n      dup3\n      swap1\n      sub\n      0x1f\n      and\n      dup3\n      add\n      swap2\n    tag_122:\n      pop\n      pop\n      pop\n      pop\n      pop\n      dup2\n      mstore\n      0x20\n      add\n      0x02\n      dup3\n      add\n      dup1\n      sload\n      tag_125\n      swap1\n      tag_90\n      jump\t// in\n    tag_125:\n      dup1\n      0x1f\n      add\n      0x20\n      dup1\n      swap2\n      div\n      mul\n      0x20\n      add\n      mload(0x40)\n      swap1\n      dup2\n      add\n      0x40\n      mstore\n      dup1\n      swap3\n      swap2\n      swap1\n      dup2\n      dup2\n      mstore\n      0x20\n      add\n      dup3\n      dup1\n      sload\n      tag_126\n      swap1\n      tag_90\n      jump\t// in\n    tag_126:\n      dup1\n      iszero\n      tag_127\n      jumpi\n      dup1\n      0x1f\n      lt\n      tag_128\n      jumpi\n      0x0100\n      dup1\n      dup4\n      sload\n      div\n      mul\n      dup4\n      mstore\n      swap2\n      0x20\n      add\n      swap2\n      jump(tag_127)\n    tag_128:\n      dup3\n      add\n      swap2\n      swap1\n      0x00\n      mstore\n      keccak256(0x00, 0x20)\n      swap1\n    tag_129:\n      dup2\n      sload\n      dup2\n      mstore\n      swap1\n      0x01\n      add\n      swap1\n      0x20\n      add\n      dup1\n      dup4\n      gt\n      tag_129\n      jumpi\n      dup3\n      swap1\n      sub\n      0x1f\n      and\n      dup3\n      add\n      swap2\n    tag_127:\n      pop\n      pop\n      pop\n      pop\n      pop\n      dup2\n      mstore\n      0x20\n      add\n      0x03\n      dup3\n      add\n      dup1\n      sload\n      tag_130\n      swap1\n      tag_90\n      jump\t// in\n    tag_130:\n      dup1\n      0x1f\n      add\n      0x20\n      dup1\n      swap2\n      div\n      mul\n      0x20\n      add\n      mload(0x40)\n      swap1\n      dup2\n      add\n      0x40\n      mstore\n      dup1\n      swap3\n      swap2\n      swap1\n      dup2\n      dup2\n      mstore\n      0x20\n      add\n      dup3\n      dup1\n      sload\n      tag_131\n      swap1\n      tag_90\n      jump\t// in\n    tag_131:\n      dup1\n      iszero\n      tag_132\n      jumpi\n      dup1\n      0x1f\n      lt\n      tag_133\n      jumpi\n      0x0100\n      dup1\n      dup4\n      sload\n      div\n      mul\n      dup4\n      mstore\n      swap2\n      0x20\n      add\n      swap2\n      jump(tag_132)\n    tag_133:\n      dup3\n      add\n      swap2\n      swap1\n      0x00\n      mstore\n      keccak256(0x00, 0x20)\n      swap1\n    tag_134:\n      dup2\n      sload\n      dup2\n      mstore\n      swap1\n      0x01\n      add\n      swap1\n      0x20\n      add\n      dup1\n      dup4\n      gt\n      tag_134\n      jumpi\n      dup3\n      swap1\n      sub\n      0x1f\n      and\n      dup3\n      add\n      swap2\n    tag_132:\n      pop\n      pop\n      pop\n      pop\n      pop\n      dup2\n      mstore\n      0x20\n      add\n      0x04\n      dup3\n      add\n      dup1\n      sload\n      tag_135\n      swap1\n      tag_90\n      jump\t// in\n    tag_135:\n      dup1\n      0x1f\n      add\n      0x20\n      dup1\n      swap2\n      div\n      mul\n      0x20\n      add\n      mload(0x40)\n      swap1\n      dup2\n      add\n      0x40\n      mstore\n      dup1\n      swap3\n      swap2\n      swap1\n      dup2\n      dup2\n      mstore\n      0x20\n      add\n      dup3\n      dup1\n      sload\n      tag_136\n      swap1\n      tag_90\n      jump\t// in\n    tag_136:\n      dup1\n      iszero\n      tag_137\n      jumpi\n      dup1\n      0x1f\n      lt\n      tag_138\n      jumpi\n      0x0100\n      dup1\n      dup4\n      sload\n      div\n      mul\n      dup4\n      mstore\n      swap2\n      0x20\n      add\n      swap2\n      jump(tag_137)\n    tag_138:\n      dup3\n      add\n      swap2\n      swap1\n      0x00\n      mstore\n      keccak256(0x00, 0x20)\n      swap1\n    tag_139:\n      dup2\n      sload\n      dup2\n      mstore\n      swap1\n      0x01\n      add\n      swap1\n      0x20\n      add\n      dup1\n      dup4\n      gt\n      tag_139\n      jumpi\n      dup3\n      swap1\n      sub\n      0x1f\n      and\n      dup3\n      add\n      swap2\n    tag_137:\n      pop\n      pop\n      pop\n      pop\n      pop\n      dup2\n      mstore\n      0x20\n      add\n      0x05\n      dup3\n      add\n      dup1\n      sload\n      tag_140\n      swap1\n      tag_90\n      jump\t// in\n    tag_140:\n      dup1\n      0x1f\n      add\n      0x20\n      dup1\n      swap2\n      div\n      mul\n      0x20\n      add\n      mload(0x40)\n      swap1\n      dup2\n      add\n      0x40\n      mstore\n      dup1\n      swap3\n      swap2\n      swap1\n      dup2\n      dup2\n      mstore\n      0x20\n      add\n      dup3\n      dup1\n      sload\n      tag_141\n      swap1\n      tag_90\n      jump\t// in\n    tag_141:\n      dup1\n      iszero\n      tag_142\n      jumpi\n      dup1\n      0x1f\n      lt\n      tag_143\n      jumpi\n      0x0100\n      dup1\n      dup4\n      sload\n      div\n      mul\n      dup4\n      mstore\n      swap2\n      0x20\n      add\n      swap2\n      jump(tag_142)\n    tag_143:\n      dup3\n      add\n      swap2\n      swap1\n      0x00\n      mstore\n      keccak256(0x00, 0x20)\n      swap1\n    tag_144:\n      dup2\n      sload\n      dup2\n      mstore\n      swap1\n      0x01\n      add\n      swap1\n      0x20\n      add\n      dup1\n      dup4\n      gt\n      tag_144\n      jumpi\n      dup3\n      swap1\n      sub\n      0x1f\n      and\n      dup3\n      add\n      swap2\n    tag_142:\n      pop\n      pop\n      pop\n      pop\n      pop\n      dup2\n      mstore\n      pop\n      pop\n      swap1\n      dup1\n      0x0d\n      add\n      mload(0x40)\n      dup1\n      0x60\n      add\n      0x40\n      mstore\n      swap1\n      dup2\n      0x00\n      dup3\n      add\n      dup1\n      sload\n      dup1\n      0x20\n      mul\n      0x20\n      add\n      mload(0x40)\n      swap1\n      dup2\n      add\n      0x40\n      mstore\n      dup1\n      swap3\n      swap2\n      swap1\n      dup2\n      dup2\n      mstore\n      0x20\n      add\n      0x00\n      swap1\n    tag_145:\n      dup3\n      dup3\n      lt\n      iszero\n      tag_146\n      jumpi\n      dup4\n      dup3\n      swap1\n      0x00\n      mstore\n      keccak256(0x00, 0x20)\n      add\n      dup1\n      sload\n      tag_148\n      swap1\n      tag_90\n      jump\t// in\n    tag_148:\n      dup1\n      0x1f\n      add\n      0x20\n      dup1\n      swap2\n      div\n      mul\n      0x20\n      add\n      mload(0x40)\n      swap1\n      dup2\n      add\n      0x40\n      mstore\n      dup1\n      swap3\n      swap2\n      swap1\n      dup2\n      dup2\n      mstore\n      0x20\n      add\n      dup3\n      dup1\n      sload\n      tag_149\n      swap1\n      tag_90\n      jump\t// in\n    tag_149:\n      dup1\n      iszero\n      tag_150\n      jumpi\n      dup1\n      0x1f\n      lt\n      tag_151\n      jumpi\n      0x0100\n      dup1\n      dup4\n      sload\n      div\n      mul\n      dup4\n      mstore\n      swap2\n      0x20\n      add\n      swap2\n      jump(tag_150)\n    tag_151:\n      dup3\n      add\n      swap2\n      swap1\n      0x00\n      mstore\n      keccak256(0x00, 0x20)\n      swap1\n    tag_152:\n      dup2\n      sload\n      dup2\n      mstore\n      swap1\n      0x01\n      add\n      swap1\n      0x20\n      add\n      dup1\n      dup4\n      gt\n      tag_152\n      jumpi\n      dup3\n      swap1\n      sub\n      0x1f\n      and\n      dup3\n      add\n      swap2\n    tag_150:\n      pop\n      pop\n      pop\n      pop\n      pop\n      dup2\n      mstore\n      0x20\n      add\n      swap1\n      0x01\n      add\n      swap1\n      jump(tag_145)\n    tag_146:\n      pop\n      pop\n      pop\n      pop\n      dup2\n      mstore\n      0x20\n      add\n      0x01\n      dup3\n      add\n      dup1\n      sload\n      dup1\n      0x20\n      mul\n      0x20\n      add\n      mload(0x40)\n      swap1\n      dup2\n      add\n      0x40\n      mstore\n      dup1\n      swap3\n      swap2\n      swap1\n      dup2\n      dup2\n      mstore\n      0x20\n      add\n      0x00\n      swap1\n    tag_153:\n      dup3\n      dup3\n      lt\n      iszero\n      tag_154\n      jumpi\n      dup4\n      dup3\n      swap1\n      0x00\n      mstore\n      keccak256(0x00, 0x20)\n      add\n      dup1\n      sload\n      tag_156\n      swap1\n      tag_90\n      jump\t// in\n    tag_156:\n      dup1\n      0x1f\n      add\n      0x20\n      dup1\n      swap2\n      div\n      mul\n      0x20\n      add\n      mload(0x40)\n      swap1\n      dup2\n      add\n      0x40\n      mstore\n      dup1\n      swap3\n      swap2\n      swap1\n      dup2\n      dup2\n      mstore\n      0x20\n      add\n      dup3\n      dup1\n      sload\n      tag_157\n      swap1\n      tag_90\n      jump\t// in\n    tag_157:\n      dup1\n      iszero\n      tag_158\n      jumpi\n      dup1\n      0x1f\n      lt\n      tag_159\n      jumpi\n      0x0100\n      dup1\n      dup4\n      sload\n      div\n      mul\n      dup4\n      mstore\n      swap2\n      0x20\n      add\n      swap2\n      jump(tag_158)\n    tag_159:\n      dup3\n      add\n      swap2\n      swap1\n      0x00\n      mstore\n      keccak256(0x00, 0x20)\n      swap1\n    tag_160:\n      dup2\n      sload\n      dup2\n      mstore\n      swap1\n      0x01\n      add\n      swap1\n      0x20\n      add\n      dup1\n      dup4\n      gt\n      tag_160\n      jumpi\n      dup3\n      swap1\n      sub\n      0x1f\n      and\n      dup3\n      add\n      swap2\n    tag_158:\n      pop\n      pop\n      pop\n      pop\n      pop\n      dup2\n      mstore\n      0x20\n      add\n      swap1\n      0x01\n      add\n      swap1\n      jump(tag_153)\n    tag_154:\n      pop\n      pop\n      pop\n      pop\n      dup2\n      mstore\n      0x20\n      add\n      0x02\n      dup3\n      add\n      dup1\n      sload\n      dup1\n      0x20\n      mul\n      0x20\n      add\n      mload(0x40)\n      swap1\n      dup2\n      add\n      0x40\n      mstore\n      dup1\n      swap3\n      swap2\n      swap1\n      dup2\n      dup2\n      mstore\n      0x20\n      add\n      0x00\n      swap1\n    tag_161:\n      dup3\n      dup3\n      lt\n      iszero\n      tag_162\n      jumpi\n      dup4\n      dup3\n      swap1\n      0x00\n      mstore\n      keccak256(0x00, 0x20)\n      add\n      dup1\n      sload\n      tag_164\n      swap1\n      tag_90\n      jump\t// in\n    tag_164:\n      dup1\n      0x1f\n      add\n      0x20\n      dup1\n      swap2\n      div\n      mul\n      0x20\n      add\n      mload(0x40)\n      swap1\n      dup2\n      add\n      0x40\n      mstore\n      dup1\n      swap3\n      swap2\n      swap1\n      dup2\n      dup2\n      mstore\n      0x20\n      add\n      dup3\n      dup1\n      sload\n      tag_165\n      swap1\n      tag_90\n      jump\t// in\n    tag_165:\n      dup1\n      iszero\n      tag_166\n      jumpi\n      dup1\n      0x1f\n      lt\n      tag_167\n      jumpi\n      0x0100\n      dup1\n      dup4\n      sload\n      div\n      mul\n      dup4\n      mstore\n      swap2\n      0x20\n      add\n      swap2\n      jump(tag_166)\n    tag_167:\n      dup3\n      add\n      swap2\n      swap1\n      0x00\n      mstore\n      keccak256(0x00, 0x20)\n      swap1\n    tag_168:\n      dup2\n      sload\n      dup2\n      mstore\n      swap1\n      0x01\n      add\n      swap1\n      0x20\n      add\n      dup1\n      dup4\n      gt\n      tag_168\n      jumpi\n      dup3\n      swap1\n      sub\n      0x1f\n      and\n      dup3\n      add\n      swap2\n    tag_166:\n      pop\n      pop\n      pop\n      pop\n      pop\n      dup2\n      mstore\n      0x20\n      add\n      swap1\n      0x01\n      add\n      swap1\n      jump(tag_161)\n    tag_162:\n      pop\n      pop\n      pop\n      pop\n      dup2\n      mstore\n      pop\n      pop\n      swap1\n      pop\n      dup4\n      jump\t// out\n        /* \"contracts/Profile.sol\":1017:1649  function createInformation(string memory firstName, string memory middleName, string memory lastName,  string memory profileImage, string memory aboutMe) public {\r... */\n    tag_40:\n        /* \"contracts/Profile.sol\":1233:1242  firstName */\n      dup5\n        /* \"contracts/Profile.sol\":1189:1196  profile */\n      0x00\n        /* \"contracts/Profile.sol\":1189:1208  profile[msg.sender] */\n      dup1\n        /* \"contracts/Profile.sol\":1197:1207  msg.sender */\n      caller\n        /* \"contracts/Profile.sol\":1189:1208  profile[msg.sender] */\n      0xffffffffffffffffffffffffffffffffffffffff\n      and\n      0xffffffffffffffffffffffffffffffffffffffff\n      and\n      dup2\n      mstore\n      0x20\n      add\n      swap1\n      dup2\n      mstore\n      0x20\n      add\n      0x00\n      keccak256\n        /* \"contracts/Profile.sol\":1189:1220  profile[msg.sender].information */\n      0x00\n      add\n        /* \"contracts/Profile.sol\":1189:1230  profile[msg.sender].information.firstName */\n      0x02\n      add\n        /* \"contracts/Profile.sol\":1189:1242  profile[msg.sender].information.firstName = firstName */\n      swap1\n      dup1\n      mload\n      swap1\n      0x20\n      add\n      swap1\n      tag_170\n      swap3\n      swap2\n      swap1\n      tag_70\n      jump\t// in\n    tag_170:\n      pop\n        /* \"contracts/Profile.sol\":1298:1308  middleName */\n      dup4\n        /* \"contracts/Profile.sol\":1253:1260  profile */\n      0x00\n        /* \"contracts/Profile.sol\":1253:1272  profile[msg.sender] */\n      dup1\n        /* \"contracts/Profile.sol\":1261:1271  msg.sender */\n      caller\n        /* \"contracts/Profile.sol\":1253:1272  profile[msg.sender] */\n      0xffffffffffffffffffffffffffffffffffffffff\n      and\n      0xffffffffffffffffffffffffffffffffffffffff\n      and\n      dup2\n      mstore\n      0x20\n      add\n      swap1\n      dup2\n      mstore\n      0x20\n      add\n      0x00\n      keccak256\n        /* \"contracts/Profile.sol\":1253:1284  profile[msg.sender].information */\n      0x00\n      add\n        /* \"contracts/Profile.sol\":1253:1295  profile[msg.sender].information.middleName */\n      0x03\n      add\n        /* \"contracts/Profile.sol\":1253:1308  profile[msg.sender].information.middleName = middleName */\n      swap1\n      dup1\n      mload\n      swap1\n      0x20\n      add\n      swap1\n      tag_171\n      swap3\n      swap2\n      swap1\n      tag_70\n      jump\t// in\n    tag_171:\n      pop\n        /* \"contracts/Profile.sol\":1362:1370  lastName */\n      dup3\n        /* \"contracts/Profile.sol\":1319:1326  profile */\n      0x00\n        /* \"contracts/Profile.sol\":1319:1338  profile[msg.sender] */\n      dup1\n        /* \"contracts/Profile.sol\":1327:1337  msg.sender */\n      caller\n        /* \"contracts/Profile.sol\":1319:1338  profile[msg.sender] */\n      0xffffffffffffffffffffffffffffffffffffffff\n      and\n      0xffffffffffffffffffffffffffffffffffffffff\n      and\n      dup2\n      mstore\n      0x20\n      add\n      swap1\n      dup2\n      mstore\n      0x20\n      add\n      0x00\n      keccak256\n        /* \"contracts/Profile.sol\":1319:1350  profile[msg.sender].information */\n      0x00\n      add\n        /* \"contracts/Profile.sol\":1319:1359  profile[msg.sender].information.lastName */\n      0x04\n      add\n        /* \"contracts/Profile.sol\":1319:1370  profile[msg.sender].information.lastName = lastName */\n      swap1\n      dup1\n      mload\n      swap1\n      0x20\n      add\n      swap1\n      tag_172\n      swap3\n      swap2\n      swap1\n      tag_70\n      jump\t// in\n    tag_172:\n      pop\n        /* \"contracts/Profile.sol\":1428:1440  profileImage */\n      dup2\n        /* \"contracts/Profile.sol\":1381:1388  profile */\n      0x00\n        /* \"contracts/Profile.sol\":1381:1400  profile[msg.sender] */\n      dup1\n        /* \"contracts/Profile.sol\":1389:1399  msg.sender */\n      caller\n        /* \"contracts/Profile.sol\":1381:1400  profile[msg.sender] */\n      0xffffffffffffffffffffffffffffffffffffffff\n      and\n      0xffffffffffffffffffffffffffffffffffffffff\n      and\n      dup2\n      mstore\n      0x20\n      add\n      swap1\n      dup2\n      mstore\n      0x20\n      add\n      0x00\n      keccak256\n        /* \"contracts/Profile.sol\":1381:1412  profile[msg.sender].information */\n      0x00\n      add\n        /* \"contracts/Profile.sol\":1381:1425  profile[msg.sender].information.profileImage */\n      0x05\n      add\n        /* \"contracts/Profile.sol\":1381:1440  profile[msg.sender].information.profileImage = profileImage */\n      swap1\n      dup1\n      mload\n      swap1\n      0x20\n      add\n      swap1\n      tag_173\n      swap3\n      swap2\n      swap1\n      tag_70\n      jump\t// in\n    tag_173:\n      pop\n        /* \"contracts/Profile.sol\":1497:1507  msg.sender */\n      caller\n        /* \"contracts/Profile.sol\":1451:1458  profile */\n      0x00\n        /* \"contracts/Profile.sol\":1451:1470  profile[msg.sender] */\n      dup1\n        /* \"contracts/Profile.sol\":1459:1469  msg.sender */\n      caller\n        /* \"contracts/Profile.sol\":1451:1470  profile[msg.sender] */\n      0xffffffffffffffffffffffffffffffffffffffff\n      and\n      0xffffffffffffffffffffffffffffffffffffffff\n      and\n      dup2\n      mstore\n      0x20\n      add\n      swap1\n      dup2\n      mstore\n      0x20\n      add\n      0x00\n      keccak256\n        /* \"contracts/Profile.sol\":1451:1482  profile[msg.sender].information */\n      0x00\n      add\n        /* \"contracts/Profile.sol\":1451:1494  profile[msg.sender].information.userAddress */\n      0x01\n      add\n      0x00\n        /* \"contracts/Profile.sol\":1451:1507  profile[msg.sender].information.userAddress = msg.sender */\n      0x0100\n      exp\n      dup2\n      sload\n      dup2\n      0xffffffffffffffffffffffffffffffffffffffff\n      mul\n      not\n      and\n      swap1\n      dup4\n      0xffffffffffffffffffffffffffffffffffffffff\n      and\n      mul\n      or\n      swap1\n      sstore\n      pop\n        /* \"contracts/Profile.sol\":1564:1579  block.timestamp */\n      timestamp\n        /* \"contracts/Profile.sol\":1519:1526  profile */\n      0x00\n        /* \"contracts/Profile.sol\":1519:1538  profile[msg.sender] */\n      dup1\n        /* \"contracts/Profile.sol\":1527:1537  msg.sender */\n      caller\n        /* \"contracts/Profile.sol\":1519:1538  profile[msg.sender] */\n      0xffffffffffffffffffffffffffffffffffffffff\n      and\n      0xffffffffffffffffffffffffffffffffffffffff\n      and\n      dup2\n      mstore\n      0x20\n      add\n      swap1\n      dup2\n      mstore\n      0x20\n      add\n      0x00\n      keccak256\n        /* \"contracts/Profile.sol\":1519:1550  profile[msg.sender].information */\n      0x00\n      add\n        /* \"contracts/Profile.sol\":1519:1561  profile[msg.sender].information.createDate */\n      0x06\n      add\n        /* \"contracts/Profile.sol\":1519:1579  profile[msg.sender].information.createDate = block.timestamp */\n      dup2\n      swap1\n      sstore\n      pop\n        /* \"contracts/Profile.sol\":1632:1639  aboutMe */\n      dup1\n        /* \"contracts/Profile.sol\":1590:1597  profile */\n      0x00\n        /* \"contracts/Profile.sol\":1590:1609  profile[msg.sender] */\n      dup1\n        /* \"contracts/Profile.sol\":1598:1608  msg.sender */\n      caller\n        /* \"contracts/Profile.sol\":1590:1609  profile[msg.sender] */\n      0xffffffffffffffffffffffffffffffffffffffff\n      and\n      0xffffffffffffffffffffffffffffffffffffffff\n      and\n      dup2\n      mstore\n      0x20\n      add\n      swap1\n      dup2\n      mstore\n      0x20\n      add\n      0x00\n      keccak256\n        /* \"contracts/Profile.sol\":1590:1621  profile[msg.sender].information */\n      0x00\n      add\n        /* \"contracts/Profile.sol\":1590:1629  profile[msg.sender].information.aboutMe */\n      0x00\n      add\n        /* \"contracts/Profile.sol\":1590:1639  profile[msg.sender].information.aboutMe = aboutMe */\n      swap1\n      dup1\n      mload\n      swap1\n      0x20\n      add\n      swap1\n      tag_174\n      swap3\n      swap2\n      swap1\n      tag_70\n      jump\t// in\n    tag_174:\n      pop\n        /* \"contracts/Profile.sol\":1017:1649  function createInformation(string memory firstName, string memory middleName, string memory lastName,  string memory profileImage, string memory aboutMe) public {\r... */\n      pop\n      pop\n      pop\n      pop\n      pop\n      jump\t// out\n        /* \"contracts/Profile.sol\":3629:3721  function delAllEducation() external  {\r... */\n    tag_42:\n        /* \"contracts/Profile.sol\":3684:3691  profile */\n      0x00\n        /* \"contracts/Profile.sol\":3684:3703  profile[msg.sender] */\n      dup1\n        /* \"contracts/Profile.sol\":3692:3702  msg.sender */\n      caller\n        /* \"contracts/Profile.sol\":3684:3703  profile[msg.sender] */\n      0xffffffffffffffffffffffffffffffffffffffff\n      and\n      0xffffffffffffffffffffffffffffffffffffffff\n      and\n      dup2\n      mstore\n      0x20\n      add\n      swap1\n      dup2\n      mstore\n      0x20\n      add\n      0x00\n      keccak256\n        /* \"contracts/Profile.sol\":3684:3713  profile[msg.sender].education */\n      0x10\n      add\n      0x00\n        /* \"contracts/Profile.sol\":3677:3713  delete profile[msg.sender].education */\n      tag_176\n      swap2\n      swap1\n      tag_177\n      jump\t// in\n    tag_176:\n        /* \"contracts/Profile.sol\":3629:3721  function delAllEducation() external  {\r... */\n      jump\t// out\n        /* \"contracts/Profile.sol\":3164:3491  function getEducation(uint index) public view returns(string memory, string memory, string memory, string memory) {\r... */\n    tag_46:\n        /* \"contracts/Profile.sol\":3218:3231  string memory */\n      0x60\n        /* \"contracts/Profile.sol\":3233:3246  string memory */\n      dup1\n        /* \"contracts/Profile.sol\":3248:3261  string memory */\n      0x60\n        /* \"contracts/Profile.sol\":3263:3276  string memory */\n      dup1\n        /* \"contracts/Profile.sol\":3297:3304  profile */\n      0x00\n        /* \"contracts/Profile.sol\":3297:3316  profile[msg.sender] */\n      dup1\n        /* \"contracts/Profile.sol\":3305:3315  msg.sender */\n      caller\n        /* \"contracts/Profile.sol\":3297:3316  profile[msg.sender] */\n      0xffffffffffffffffffffffffffffffffffffffff\n      and\n      0xffffffffffffffffffffffffffffffffffffffff\n      and\n      dup2\n      mstore\n      0x20\n      add\n      swap1\n      dup2\n      mstore\n      0x20\n      add\n      0x00\n      keccak256\n        /* \"contracts/Profile.sol\":3297:3326  profile[msg.sender].education */\n      0x10\n      add\n        /* \"contracts/Profile.sol\":3327:3332  index */\n      dup6\n        /* \"contracts/Profile.sol\":3297:3333  profile[msg.sender].education[index] */\n      dup2\n      sload\n      dup2\n      lt\n      tag_179\n      jumpi\n      tag_180\n      tag_181\n      jump\t// in\n    tag_180:\n    tag_179:\n      swap1\n      0x00\n      mstore\n      keccak256(0x00, 0x20)\n      swap1\n      0x04\n      mul\n      add\n        /* \"contracts/Profile.sol\":3297:3343  profile[msg.sender].education[index].startDate */\n      0x00\n      add\n        /* \"contracts/Profile.sol\":3345:3352  profile */\n      0x00\n        /* \"contracts/Profile.sol\":3345:3364  profile[msg.sender] */\n      dup1\n        /* \"contracts/Profile.sol\":3353:3363  msg.sender */\n      caller\n        /* \"contracts/Profile.sol\":3345:3364  profile[msg.sender] */\n      0xffffffffffffffffffffffffffffffffffffffff\n      and\n      0xffffffffffffffffffffffffffffffffffffffff\n      and\n      dup2\n      mstore\n      0x20\n      add\n      swap1\n      dup2\n      mstore\n      0x20\n      add\n      0x00\n      keccak256\n        /* \"contracts/Profile.sol\":3345:3374  profile[msg.sender].education */\n      0x10\n      add\n        /* \"contracts/Profile.sol\":3375:3380  index */\n      dup7\n        /* \"contracts/Profile.sol\":3345:3381  profile[msg.sender].education[index] */\n      dup2\n      sload\n      dup2\n      lt\n      tag_183\n      jumpi\n      tag_184\n      tag_181\n      jump\t// in\n    tag_184:\n    tag_183:\n      swap1\n      0x00\n      mstore\n      keccak256(0x00, 0x20)\n      swap1\n      0x04\n      mul\n      add\n        /* \"contracts/Profile.sol\":3345:3389  profile[msg.sender].education[index].endDate */\n      0x01\n      add\n        /* \"contracts/Profile.sol\":3391:3398  profile */\n      0x00\n        /* \"contracts/Profile.sol\":3391:3410  profile[msg.sender] */\n      dup1\n        /* \"contracts/Profile.sol\":3399:3409  msg.sender */\n      caller\n        /* \"contracts/Profile.sol\":3391:3410  profile[msg.sender] */\n      0xffffffffffffffffffffffffffffffffffffffff\n      and\n      0xffffffffffffffffffffffffffffffffffffffff\n      and\n      dup2\n      mstore\n      0x20\n      add\n      swap1\n      dup2\n      mstore\n      0x20\n      add\n      0x00\n      keccak256\n        /* \"contracts/Profile.sol\":3391:3420  profile[msg.sender].education */\n      0x10\n      add\n        /* \"contracts/Profile.sol\":3421:3426  index */\n      dup8\n        /* \"contracts/Profile.sol\":3391:3427  profile[msg.sender].education[index] */\n      dup2\n      sload\n      dup2\n      lt\n      tag_186\n      jumpi\n      tag_187\n      tag_181\n      jump\t// in\n    tag_187:\n    tag_186:\n      swap1\n      0x00\n      mstore\n      keccak256(0x00, 0x20)\n      swap1\n      0x04\n      mul\n      add\n        /* \"contracts/Profile.sol\":3391:3438  profile[msg.sender].education[index].univercity */\n      0x02\n      add\n        /* \"contracts/Profile.sol\":3440:3447  profile */\n      0x00\n        /* \"contracts/Profile.sol\":3440:3459  profile[msg.sender] */\n      dup1\n        /* \"contracts/Profile.sol\":3448:3458  msg.sender */\n      caller\n        /* \"contracts/Profile.sol\":3440:3459  profile[msg.sender] */\n      0xffffffffffffffffffffffffffffffffffffffff\n      and\n      0xffffffffffffffffffffffffffffffffffffffff\n      and\n      dup2\n      mstore\n      0x20\n      add\n      swap1\n      dup2\n      mstore\n      0x20\n      add\n      0x00\n      keccak256\n        /* \"contracts/Profile.sol\":3440:3469  profile[msg.sender].education */\n      0x10\n      add\n        /* \"contracts/Profile.sol\":3470:3475  index */\n      dup9\n        /* \"contracts/Profile.sol\":3440:3476  profile[msg.sender].education[index] */\n      dup2\n      sload\n      dup2\n      lt\n      tag_189\n      jumpi\n      tag_190\n      tag_181\n      jump\t// in\n    tag_190:\n    tag_189:\n      swap1\n      0x00\n      mstore\n      keccak256(0x00, 0x20)\n      swap1\n      0x04\n      mul\n      add\n        /* \"contracts/Profile.sol\":3440:3482  profile[msg.sender].education[index].major */\n      0x03\n      add\n        /* \"contracts/Profile.sol\":3289:3483  return (profile[msg.sender].education[index].startDate, profile[msg.sender].education[index].endDate, profile[msg.sender].education[index].univercity, profile[msg.sender].education[index].major) */\n      dup4\n      dup1\n      sload\n      tag_192\n      swap1\n      tag_90\n      jump\t// in\n    tag_192:\n      dup1\n      0x1f\n      add\n      0x20\n      dup1\n      swap2\n      div\n      mul\n      0x20\n      add\n      mload(0x40)\n      swap1\n      dup2\n      add\n      0x40\n      mstore\n      dup1\n      swap3\n      swap2\n      swap1\n      dup2\n      dup2\n      mstore\n      0x20\n      add\n      dup3\n      dup1\n      sload\n      tag_193\n      swap1\n      tag_90\n      jump\t// in\n    tag_193:\n      dup1\n      iszero\n      tag_194\n      jumpi\n      dup1\n      0x1f\n      lt\n      tag_195\n      jumpi\n      0x0100\n      dup1\n      dup4\n      sload\n      div\n      mul\n      dup4\n      mstore\n      swap2\n      0x20\n      add\n      swap2\n      jump(tag_194)\n    tag_195:\n      dup3\n      add\n      swap2\n      swap1\n      0x00\n      mstore\n      keccak256(0x00, 0x20)\n      swap1\n    tag_196:\n      dup2\n      sload\n      dup2\n      mstore\n      swap1\n      0x01\n      add\n      swap1\n      0x20\n      add\n      dup1\n      dup4\n      gt\n      tag_196\n      jumpi\n      dup3\n      swap1\n      sub\n      0x1f\n      and\n      dup3\n      add\n      swap2\n    tag_194:\n      pop\n      pop\n      pop\n      pop\n      pop\n      swap4\n      pop\n      dup3\n      dup1\n      sload\n      tag_197\n      swap1\n      tag_90\n      jump\t// in\n    tag_197:\n      dup1\n      0x1f\n      add\n      0x20\n      dup1\n      swap2\n      div\n      mul\n      0x20\n      add\n      mload(0x40)\n      swap1\n      dup2\n      add\n      0x40\n      mstore\n      dup1\n      swap3\n      swap2\n      swap1\n      dup2\n      dup2\n      mstore\n      0x20\n      add\n      dup3\n      dup1\n      sload\n      tag_198\n      swap1\n      tag_90\n      jump\t// in\n    tag_198:\n      dup1\n      iszero\n      tag_199\n      jumpi\n      dup1\n      0x1f\n      lt\n      tag_200\n      jumpi\n      0x0100\n      dup1\n      dup4\n      sload\n      div\n      mul\n      dup4\n      mstore\n      swap2\n      0x20\n      add\n      swap2\n      jump(tag_199)\n    tag_200:\n      dup3\n      add\n      swap2\n      swap1\n      0x00\n      mstore\n      keccak256(0x00, 0x20)\n      swap1\n    tag_201:\n      dup2\n      sload\n      dup2\n      mstore\n      swap1\n      0x01\n      add\n      swap1\n      0x20\n      add\n      dup1\n      dup4\n      gt\n      tag_201\n      jumpi\n      dup3\n      swap1\n      sub\n      0x1f\n      and\n      dup3\n      add\n      swap2\n    tag_199:\n      pop\n      pop\n      pop\n      pop\n      pop\n      swap3\n      pop\n      dup2\n      dup1\n      sload\n      tag_202\n      swap1\n      tag_90\n      jump\t// in\n    tag_202:\n      dup1\n      0x1f\n      add\n      0x20\n      dup1\n      swap2\n      div\n      mul\n      0x20\n      add\n      mload(0x40)\n      swap1\n      dup2\n      add\n      0x40\n      mstore\n      dup1\n      swap3\n      swap2\n      swap1\n      dup2\n      dup2\n      mstore\n      0x20\n      add\n      dup3\n      dup1\n      sload\n      tag_203\n      swap1\n      tag_90\n      jump\t// in\n    tag_203:\n      dup1\n      iszero\n      tag_204\n      jumpi\n      dup1\n      0x1f\n      lt\n      tag_205\n      jumpi\n      0x0100\n      dup1\n      dup4\n      sload\n      div\n      mul\n      dup4\n      mstore\n      swap2\n      0x20\n      add\n      swap2\n      jump(tag_204)\n    tag_205:\n      dup3\n      add\n      swap2\n      swap1\n      0x00\n      mstore\n      keccak256(0x00, 0x20)\n      swap1\n    tag_206:\n      dup2\n      sload\n      dup2\n      mstore\n      swap1\n      0x01\n      add\n      swap1\n      0x20\n      add\n      dup1\n      dup4\n      gt\n      tag_206\n      jumpi\n      dup3\n      swap1\n      sub\n      0x1f\n      and\n      dup3\n      add\n      swap2\n    tag_204:\n      pop\n      pop\n      pop\n      pop\n      pop\n      swap2\n      pop\n      dup1\n      dup1\n      sload\n      tag_207\n      swap1\n      tag_90\n      jump\t// in\n    tag_207:\n      dup1\n      0x1f\n      add\n      0x20\n      dup1\n      swap2\n      div\n      mul\n      0x20\n      add\n      mload(0x40)\n      swap1\n      dup2\n      add\n      0x40\n      mstore\n      dup1\n      swap3\n      swap2\n      swap1\n      dup2\n      dup2\n      mstore\n      0x20\n      add\n      dup3\n      dup1\n      sload\n      tag_208\n      swap1\n      tag_90\n      jump\t// in\n    tag_208:\n      dup1\n      iszero\n      tag_209\n      jumpi\n      dup1\n      0x1f\n      lt\n      tag_210\n      jumpi\n      0x0100\n      dup1\n      dup4\n      sload\n      div\n      mul\n      dup4\n      mstore\n      swap2\n      0x20\n      add\n      swap2\n      jump(tag_209)\n    tag_210:\n      dup3\n      add\n      swap2\n      swap1\n      0x00\n      mstore\n      keccak256(0x00, 0x20)\n      swap1\n    tag_211:\n      dup2\n      sload\n      dup2\n      mstore\n      swap1\n      0x01\n      add\n      swap1\n      0x20\n      add\n      dup1\n      dup4\n      gt\n      tag_211\n      jumpi\n      dup3\n      swap1\n      sub\n      0x1f\n      and\n      dup3\n      add\n      swap2\n    tag_209:\n      pop\n      pop\n      pop\n      pop\n      pop\n      swap1\n      pop\n      swap4\n      pop\n      swap4\n      pop\n      swap4\n      pop\n      swap4\n      pop\n        /* \"contracts/Profile.sol\":3164:3491  function getEducation(uint index) public view returns(string memory, string memory, string memory, string memory) {\r... */\n      swap2\n      swap4\n      pop\n      swap2\n      swap4\n      jump\t// out\n        /* \"contracts/Profile.sol\":3829:3905  function delProfile() external {\r... */\n    tag_50:\n        /* \"contracts/Profile.sol\":3878:3885  profile */\n      0x00\n        /* \"contracts/Profile.sol\":3878:3897  profile[msg.sender] */\n      dup1\n        /* \"contracts/Profile.sol\":3886:3896  msg.sender */\n      caller\n        /* \"contracts/Profile.sol\":3878:3897  profile[msg.sender] */\n      0xffffffffffffffffffffffffffffffffffffffff\n      and\n      0xffffffffffffffffffffffffffffffffffffffff\n      and\n      dup2\n      mstore\n      0x20\n      add\n      swap1\n      dup2\n      mstore\n      0x20\n      add\n      0x00\n      keccak256\n      0x00\n        /* \"contracts/Profile.sol\":3871:3897  delete profile[msg.sender] */\n      dup1\n      dup3\n      add\n      0x00\n      dup1\n      dup3\n      add\n      0x00\n      tag_213\n      swap2\n      swap1\n      tag_63\n      jump\t// in\n    tag_213:\n      0x01\n      dup3\n      add\n      exp(0x0100, 0x00)\n      dup2\n      sload\n      swap1\n      0xffffffffffffffffffffffffffffffffffffffff\n      mul\n      not\n      and\n      swap1\n      sstore\n      0x02\n      dup3\n      add\n      0x00\n      tag_214\n      swap2\n      swap1\n      tag_63\n      jump\t// in\n    tag_214:\n      0x03\n      dup3\n      add\n      0x00\n      tag_215\n      swap2\n      swap1\n      tag_63\n      jump\t// in\n    tag_215:\n      0x04\n      dup3\n      add\n      0x00\n      tag_216\n      swap2\n      swap1\n      tag_63\n      jump\t// in\n    tag_216:\n      0x05\n      dup3\n      add\n      0x00\n      tag_217\n      swap2\n      swap1\n      tag_63\n      jump\t// in\n    tag_217:\n      0x06\n      dup3\n      add\n      0x00\n      swap1\n      sstore\n      pop\n      pop\n      0x07\n      dup3\n      add\n      0x00\n      dup1\n      dup3\n      add\n      0x00\n      tag_218\n      swap2\n      swap1\n      tag_63\n      jump\t// in\n    tag_218:\n      0x01\n      dup3\n      add\n      0x00\n      tag_219\n      swap2\n      swap1\n      tag_63\n      jump\t// in\n    tag_219:\n      0x02\n      dup3\n      add\n      0x00\n      tag_220\n      swap2\n      swap1\n      tag_63\n      jump\t// in\n    tag_220:\n      0x03\n      dup3\n      add\n      0x00\n      tag_221\n      swap2\n      swap1\n      tag_63\n      jump\t// in\n    tag_221:\n      0x04\n      dup3\n      add\n      0x00\n      tag_222\n      swap2\n      swap1\n      tag_63\n      jump\t// in\n    tag_222:\n      0x05\n      dup3\n      add\n      0x00\n      tag_223\n      swap2\n      swap1\n      tag_63\n      jump\t// in\n    tag_223:\n      pop\n      pop\n      0x0d\n      dup3\n      add\n      0x00\n      dup1\n      dup3\n      add\n      0x00\n      tag_224\n      swap2\n      swap1\n      tag_53\n      jump\t// in\n    tag_224:\n      0x01\n      dup3\n      add\n      0x00\n      tag_225\n      swap2\n      swap1\n      tag_53\n      jump\t// in\n    tag_225:\n      0x02\n      dup3\n      add\n      0x00\n      tag_226\n      swap2\n      swap1\n      tag_53\n      jump\t// in\n    tag_226:\n      pop\n      pop\n      0x10\n      dup3\n      add\n      0x00\n      tag_227\n      swap2\n      swap1\n      tag_177\n      jump\t// in\n    tag_227:\n      pop\n      pop\n        /* \"contracts/Profile.sol\":3829:3905  function delProfile() external {\r... */\n      jump\t// out\n    tag_53:\n      pop\n      dup1\n      sload\n      0x00\n      dup3\n      sstore\n      swap1\n      0x00\n      mstore\n      keccak256(0x00, 0x20)\n      swap1\n      dup2\n      add\n      swap1\n      tag_229\n      swap2\n      swap1\n      tag_230\n      jump\t// in\n    tag_229:\n      pop\n      jump\t// out\n    tag_57:\n      dup3\n      dup1\n      sload\n      dup3\n      dup3\n      sstore\n      swap1\n      0x00\n      mstore\n      keccak256(0x00, 0x20)\n      swap1\n      dup2\n      add\n      swap3\n      dup3\n      iszero\n      tag_231\n      jumpi\n      swap2\n      0x20\n      mul\n      dup3\n      add\n    tag_232:\n      dup3\n      dup2\n      gt\n      iszero\n      tag_233\n      jumpi\n      dup3\n      mload\n      dup3\n      swap1\n      dup1\n      mload\n      swap1\n      0x20\n      add\n      swap1\n      tag_234\n      swap3\n      swap2\n      swap1\n      tag_70\n      jump\t// in\n    tag_234:\n      pop\n      swap2\n      0x20\n      add\n      swap2\n      swap1\n      0x01\n      add\n      swap1\n      jump(tag_232)\n    tag_233:\n    tag_231:\n      pop\n      swap1\n      pop\n      tag_235\n      swap2\n      swap1\n      tag_230\n      jump\t// in\n    tag_235:\n      pop\n      swap1\n      jump\t// out\n    tag_63:\n      pop\n      dup1\n      sload\n      tag_236\n      swap1\n      tag_90\n      jump\t// in\n    tag_236:\n      0x00\n      dup3\n      sstore\n      dup1\n      0x1f\n      lt\n      tag_238\n      jumpi\n      pop\n      jump(tag_237)\n    tag_238:\n      0x1f\n      add\n      0x20\n      swap1\n      div\n      swap1\n      0x00\n      mstore\n      keccak256(0x00, 0x20)\n      swap1\n      dup2\n      add\n      swap1\n      tag_239\n      swap2\n      swap1\n      tag_240\n      jump\t// in\n    tag_239:\n    tag_237:\n      pop\n      jump\t// out\n    tag_70:\n      dup3\n      dup1\n      sload\n      tag_241\n      swap1\n      tag_90\n      jump\t// in\n    tag_241:\n      swap1\n      0x00\n      mstore\n      keccak256(0x00, 0x20)\n      swap1\n      0x1f\n      add\n      0x20\n      swap1\n      div\n      dup2\n      add\n      swap3\n      dup3\n      tag_243\n      jumpi\n      0x00\n      dup6\n      sstore\n      jump(tag_242)\n    tag_243:\n      dup3\n      0x1f\n      lt\n      tag_244\n      jumpi\n      dup1\n      mload\n      not(0xff)\n      and\n      dup4\n      dup1\n      add\n      or\n      dup6\n      sstore\n      jump(tag_242)\n    tag_244:\n      dup3\n      dup1\n      add\n      0x01\n      add\n      dup6\n      sstore\n      dup3\n      iszero\n      tag_242\n      jumpi\n      swap2\n      dup3\n      add\n    tag_245:\n      dup3\n      dup2\n      gt\n      iszero\n      tag_246\n      jumpi\n      dup3\n      mload\n      dup3\n      sstore\n      swap2\n      0x20\n      add\n      swap2\n      swap1\n      0x01\n      add\n      swap1\n      jump(tag_245)\n    tag_246:\n    tag_242:\n      pop\n      swap1\n      pop\n      tag_247\n      swap2\n      swap1\n      tag_240\n      jump\t// in\n    tag_247:\n      pop\n      swap1\n      jump\t// out\n    tag_83:\n      mload(0x40)\n      dup1\n      0x80\n      add\n      0x40\n      mstore\n      dup1\n      0x60\n      dup2\n      mstore\n      0x20\n      add\n      0x60\n      dup2\n      mstore\n      0x20\n      add\n      0x60\n      dup2\n      mstore\n      0x20\n      add\n      0x60\n      dup2\n      mstore\n      pop\n      swap1\n      jump\t// out\n    tag_177:\n      pop\n      dup1\n      sload\n      0x00\n      dup3\n      sstore\n      0x04\n      mul\n      swap1\n      0x00\n      mstore\n      keccak256(0x00, 0x20)\n      swap1\n      dup2\n      add\n      swap1\n      tag_249\n      swap2\n      swap1\n      tag_250\n      jump\t// in\n    tag_249:\n      pop\n      jump\t// out\n    tag_230:\n    tag_251:\n      dup1\n      dup3\n      gt\n      iszero\n      tag_252\n      jumpi\n      0x00\n      dup2\n      dup2\n      tag_253\n      swap2\n      swap1\n      tag_63\n      jump\t// in\n    tag_253:\n      pop\n      0x01\n      add\n      jump(tag_251)\n    tag_252:\n      pop\n      swap1\n      jump\t// out\n    tag_240:\n    tag_254:\n      dup1\n      dup3\n      gt\n      iszero\n      tag_255\n      jumpi\n      0x00\n      dup2\n      0x00\n      swap1\n      sstore\n      pop\n      0x01\n      add\n      jump(tag_254)\n    tag_255:\n      pop\n      swap1\n      jump\t// out\n    tag_250:\n    tag_256:\n      dup1\n      dup3\n      gt\n      iszero\n      tag_257\n      jumpi\n      0x00\n      dup1\n      dup3\n      add\n      0x00\n      tag_258\n      swap2\n      swap1\n      tag_63\n      jump\t// in\n    tag_258:\n      0x01\n      dup3\n      add\n      0x00\n      tag_259\n      swap2\n      swap1\n      tag_63\n      jump\t// in\n    tag_259:\n      0x02\n      dup3\n      add\n      0x00\n      tag_260\n      swap2\n      swap1\n      tag_63\n      jump\t// in\n    tag_260:\n      0x03\n      dup3\n      add\n      0x00\n      tag_261\n      swap2\n      swap1\n      tag_63\n      jump\t// in\n    tag_261:\n      pop\n      0x04\n      add\n      jump(tag_256)\n    tag_257:\n      pop\n      swap1\n      jump\t// out\n        /* \"#utility.yul\":23:980   */\n    tag_263:\n        /* \"#utility.yul\":129:134   */\n      0x00\n        /* \"#utility.yul\":154:245   */\n      tag_265\n        /* \"#utility.yul\":170:244   */\n      tag_266\n        /* \"#utility.yul\":237:243   */\n      dup5\n        /* \"#utility.yul\":170:244   */\n      tag_267\n      jump\t// in\n    tag_266:\n        /* \"#utility.yul\":154:245   */\n      tag_268\n      jump\t// in\n    tag_265:\n        /* \"#utility.yul\":145:245   */\n      swap1\n      pop\n        /* \"#utility.yul\":265:270   */\n      dup1\n        /* \"#utility.yul\":294:300   */\n      dup4\n        /* \"#utility.yul\":287:292   */\n      dup3\n        /* \"#utility.yul\":280:301   */\n      mstore\n        /* \"#utility.yul\":328:332   */\n      0x20\n        /* \"#utility.yul\":321:326   */\n      dup3\n        /* \"#utility.yul\":317:333   */\n      add\n        /* \"#utility.yul\":310:333   */\n      swap1\n      pop\n        /* \"#utility.yul\":354:360   */\n      dup3\n        /* \"#utility.yul\":404:407   */\n      dup6\n        /* \"#utility.yul\":396:400   */\n      0x20\n        /* \"#utility.yul\":388:394   */\n      dup7\n        /* \"#utility.yul\":384:401   */\n      mul\n        /* \"#utility.yul\":379:382   */\n      dup3\n        /* \"#utility.yul\":375:402   */\n      add\n        /* \"#utility.yul\":372:408   */\n      gt\n        /* \"#utility.yul\":369:512   */\n      iszero\n      tag_269\n      jumpi\n        /* \"#utility.yul\":423:502   */\n      tag_270\n      tag_271\n      jump\t// in\n    tag_270:\n        /* \"#utility.yul\":369:512   */\n    tag_269:\n        /* \"#utility.yul\":536:537   */\n      0x00\n        /* \"#utility.yul\":521:974   */\n    tag_272:\n        /* \"#utility.yul\":546:552   */\n      dup6\n        /* \"#utility.yul\":543:544   */\n      dup2\n        /* \"#utility.yul\":540:553   */\n      lt\n        /* \"#utility.yul\":521:974   */\n      iszero\n      tag_274\n      jumpi\n        /* \"#utility.yul\":628:631   */\n      dup2\n        /* \"#utility.yul\":615:632   */\n      calldataload\n        /* \"#utility.yul\":664:682   */\n      0xffffffffffffffff\n        /* \"#utility.yul\":651:662   */\n      dup2\n        /* \"#utility.yul\":648:683   */\n      gt\n        /* \"#utility.yul\":645:767   */\n      iszero\n      tag_275\n      jumpi\n        /* \"#utility.yul\":686:765   */\n      tag_276\n      tag_277\n      jump\t// in\n    tag_276:\n        /* \"#utility.yul\":645:767   */\n    tag_275:\n        /* \"#utility.yul\":810:821   */\n      dup1\n        /* \"#utility.yul\":802:808   */\n      dup7\n        /* \"#utility.yul\":798:822   */\n      add\n        /* \"#utility.yul\":848:895   */\n      tag_278\n        /* \"#utility.yul\":891:894   */\n      dup10\n        /* \"#utility.yul\":879:889   */\n      dup3\n        /* \"#utility.yul\":848:895   */\n      tag_279\n      jump\t// in\n    tag_278:\n        /* \"#utility.yul\":843:846   */\n      dup6\n        /* \"#utility.yul\":836:896   */\n      mstore\n        /* \"#utility.yul\":925:929   */\n      0x20\n        /* \"#utility.yul\":920:923   */\n      dup6\n        /* \"#utility.yul\":916:930   */\n      add\n        /* \"#utility.yul\":909:930   */\n      swap5\n      pop\n        /* \"#utility.yul\":959:963   */\n      0x20\n        /* \"#utility.yul\":954:957   */\n      dup5\n        /* \"#utility.yul\":950:964   */\n      add\n        /* \"#utility.yul\":943:964   */\n      swap4\n      pop\n        /* \"#utility.yul\":581:974   */\n      pop\n      pop\n        /* \"#utility.yul\":568:569   */\n      0x01\n        /* \"#utility.yul\":565:566   */\n      dup2\n        /* \"#utility.yul\":561:570   */\n      add\n        /* \"#utility.yul\":556:570   */\n      swap1\n      pop\n        /* \"#utility.yul\":521:974   */\n      jump(tag_272)\n    tag_274:\n        /* \"#utility.yul\":525:539   */\n      pop\n        /* \"#utility.yul\":135:980   */\n      pop\n      pop\n        /* \"#utility.yul\":23:980   */\n      swap4\n      swap3\n      pop\n      pop\n      pop\n      jump\t// out\n        /* \"#utility.yul\":986:1398   */\n    tag_280:\n        /* \"#utility.yul\":1064:1069   */\n      0x00\n        /* \"#utility.yul\":1089:1155   */\n      tag_282\n        /* \"#utility.yul\":1105:1154   */\n      tag_283\n        /* \"#utility.yul\":1147:1153   */\n      dup5\n        /* \"#utility.yul\":1105:1154   */\n      tag_284\n      jump\t// in\n    tag_283:\n        /* \"#utility.yul\":1089:1155   */\n      tag_268\n      jump\t// in\n    tag_282:\n        /* \"#utility.yul\":1080:1155   */\n      swap1\n      pop\n        /* \"#utility.yul\":1178:1184   */\n      dup3\n        /* \"#utility.yul\":1171:1176   */\n      dup2\n        /* \"#utility.yul\":1164:1185   */\n      mstore\n        /* \"#utility.yul\":1216:1220   */\n      0x20\n        /* \"#utility.yul\":1209:1214   */\n      dup2\n        /* \"#utility.yul\":1205:1221   */\n      add\n        /* \"#utility.yul\":1254:1257   */\n      dup5\n        /* \"#utility.yul\":1245:1251   */\n      dup5\n        /* \"#utility.yul\":1240:1243   */\n      dup5\n        /* \"#utility.yul\":1236:1252   */\n      add\n        /* \"#utility.yul\":1233:1258   */\n      gt\n        /* \"#utility.yul\":1230:1342   */\n      iszero\n      tag_285\n      jumpi\n        /* \"#utility.yul\":1261:1340   */\n      tag_286\n      tag_287\n      jump\t// in\n    tag_286:\n        /* \"#utility.yul\":1230:1342   */\n    tag_285:\n        /* \"#utility.yul\":1351:1392   */\n      tag_288\n        /* \"#utility.yul\":1385:1391   */\n      dup5\n        /* \"#utility.yul\":1380:1383   */\n      dup3\n        /* \"#utility.yul\":1375:1378   */\n      dup6\n        /* \"#utility.yul\":1351:1392   */\n      tag_289\n      jump\t// in\n    tag_288:\n        /* \"#utility.yul\":1070:1398   */\n      pop\n        /* \"#utility.yul\":986:1398   */\n      swap4\n      swap3\n      pop\n      pop\n      pop\n      jump\t// out\n        /* \"#utility.yul\":1404:1543   */\n    tag_290:\n        /* \"#utility.yul\":1450:1455   */\n      0x00\n        /* \"#utility.yul\":1488:1494   */\n      dup2\n        /* \"#utility.yul\":1475:1495   */\n      calldataload\n        /* \"#utility.yul\":1466:1495   */\n      swap1\n      pop\n        /* \"#utility.yul\":1504:1537   */\n      tag_292\n        /* \"#utility.yul\":1531:1536   */\n      dup2\n        /* \"#utility.yul\":1504:1537   */\n      tag_293\n      jump\t// in\n    tag_292:\n        /* \"#utility.yul\":1404:1543   */\n      swap3\n      swap2\n      pop\n      pop\n      jump\t// out\n        /* \"#utility.yul\":1565:1955   */\n    tag_294:\n        /* \"#utility.yul\":1646:1651   */\n      0x00\n        /* \"#utility.yul\":1695:1698   */\n      dup3\n        /* \"#utility.yul\":1688:1692   */\n      0x1f\n        /* \"#utility.yul\":1680:1686   */\n      dup4\n        /* \"#utility.yul\":1676:1693   */\n      add\n        /* \"#utility.yul\":1672:1699   */\n      slt\n        /* \"#utility.yul\":1662:1784   */\n      tag_296\n      jumpi\n        /* \"#utility.yul\":1703:1782   */\n      tag_297\n      tag_277\n      jump\t// in\n    tag_297:\n        /* \"#utility.yul\":1662:1784   */\n    tag_296:\n        /* \"#utility.yul\":1820:1826   */\n      dup2\n        /* \"#utility.yul\":1807:1827   */\n      calldataload\n        /* \"#utility.yul\":1845:1949   */\n      tag_298\n        /* \"#utility.yul\":1945:1948   */\n      dup5\n        /* \"#utility.yul\":1937:1943   */\n      dup3\n        /* \"#utility.yul\":1930:1934   */\n      0x20\n        /* \"#utility.yul\":1922:1928   */\n      dup7\n        /* \"#utility.yul\":1918:1935   */\n      add\n        /* \"#utility.yul\":1845:1949   */\n      tag_263\n      jump\t// in\n    tag_298:\n        /* \"#utility.yul\":1836:1949   */\n      swap2\n      pop\n        /* \"#utility.yul\":1652:1955   */\n      pop\n        /* \"#utility.yul\":1565:1955   */\n      swap3\n      swap2\n      pop\n      pop\n      jump\t// out\n        /* \"#utility.yul\":1975:2315   */\n    tag_279:\n        /* \"#utility.yul\":2031:2036   */\n      0x00\n        /* \"#utility.yul\":2080:2083   */\n      dup3\n        /* \"#utility.yul\":2073:2077   */\n      0x1f\n        /* \"#utility.yul\":2065:2071   */\n      dup4\n        /* \"#utility.yul\":2061:2078   */\n      add\n        /* \"#utility.yul\":2057:2084   */\n      slt\n        /* \"#utility.yul\":2047:2169   */\n      tag_300\n      jumpi\n        /* \"#utility.yul\":2088:2167   */\n      tag_301\n      tag_277\n      jump\t// in\n    tag_301:\n        /* \"#utility.yul\":2047:2169   */\n    tag_300:\n        /* \"#utility.yul\":2205:2211   */\n      dup2\n        /* \"#utility.yul\":2192:2212   */\n      calldataload\n        /* \"#utility.yul\":2230:2309   */\n      tag_302\n        /* \"#utility.yul\":2305:2308   */\n      dup5\n        /* \"#utility.yul\":2297:2303   */\n      dup3\n        /* \"#utility.yul\":2290:2294   */\n      0x20\n        /* \"#utility.yul\":2282:2288   */\n      dup7\n        /* \"#utility.yul\":2278:2295   */\n      add\n        /* \"#utility.yul\":2230:2309   */\n      tag_280\n      jump\t// in\n    tag_302:\n        /* \"#utility.yul\":2221:2309   */\n      swap2\n      pop\n        /* \"#utility.yul\":2037:2315   */\n      pop\n        /* \"#utility.yul\":1975:2315   */\n      swap3\n      swap2\n      pop\n      pop\n      jump\t// out\n        /* \"#utility.yul\":2321:2460   */\n    tag_303:\n        /* \"#utility.yul\":2367:2372   */\n      0x00\n        /* \"#utility.yul\":2405:2411   */\n      dup2\n        /* \"#utility.yul\":2392:2412   */\n      calldataload\n        /* \"#utility.yul\":2383:2412   */\n      swap1\n      pop\n        /* \"#utility.yul\":2421:2454   */\n      tag_305\n        /* \"#utility.yul\":2448:2453   */\n      dup2\n        /* \"#utility.yul\":2421:2454   */\n      tag_306\n      jump\t// in\n    tag_305:\n        /* \"#utility.yul\":2321:2460   */\n      swap3\n      swap2\n      pop\n      pop\n      jump\t// out\n        /* \"#utility.yul\":2466:2795   */\n    tag_34:\n        /* \"#utility.yul\":2525:2531   */\n      0x00\n        /* \"#utility.yul\":2574:2576   */\n      0x20\n        /* \"#utility.yul\":2562:2571   */\n      dup3\n        /* \"#utility.yul\":2553:2560   */\n      dup5\n        /* \"#utility.yul\":2549:2572   */\n      sub\n        /* \"#utility.yul\":2545:2577   */\n      slt\n        /* \"#utility.yul\":2542:2661   */\n      iszero\n      tag_308\n      jumpi\n        /* \"#utility.yul\":2580:2659   */\n      tag_309\n      tag_310\n      jump\t// in\n    tag_309:\n        /* \"#utility.yul\":2542:2661   */\n    tag_308:\n        /* \"#utility.yul\":2700:2701   */\n      0x00\n        /* \"#utility.yul\":2725:2778   */\n      tag_311\n        /* \"#utility.yul\":2770:2777   */\n      dup5\n        /* \"#utility.yul\":2761:2767   */\n      dup3\n        /* \"#utility.yul\":2750:2759   */\n      dup6\n        /* \"#utility.yul\":2746:2768   */\n      add\n        /* \"#utility.yul\":2725:2778   */\n      tag_290\n      jump\t// in\n    tag_311:\n        /* \"#utility.yul\":2715:2778   */\n      swap2\n      pop\n        /* \"#utility.yul\":2671:2788   */\n      pop\n        /* \"#utility.yul\":2466:2795   */\n      swap3\n      swap2\n      pop\n      pop\n      jump\t// out\n        /* \"#utility.yul\":2801:4110   */\n    tag_16:\n        /* \"#utility.yul\":2983:2989   */\n      0x00\n        /* \"#utility.yul\":2991:2997   */\n      dup1\n        /* \"#utility.yul\":2999:3005   */\n      0x00\n        /* \"#utility.yul\":3048:3050   */\n      0x60\n        /* \"#utility.yul\":3036:3045   */\n      dup5\n        /* \"#utility.yul\":3027:3034   */\n      dup7\n        /* \"#utility.yul\":3023:3046   */\n      sub\n        /* \"#utility.yul\":3019:3051   */\n      slt\n        /* \"#utility.yul\":3016:3135   */\n      iszero\n      tag_313\n      jumpi\n        /* \"#utility.yul\":3054:3133   */\n      tag_314\n      tag_310\n      jump\t// in\n    tag_314:\n        /* \"#utility.yul\":3016:3135   */\n    tag_313:\n        /* \"#utility.yul\":3202:3203   */\n      0x00\n        /* \"#utility.yul\":3191:3200   */\n      dup5\n        /* \"#utility.yul\":3187:3204   */\n      add\n        /* \"#utility.yul\":3174:3205   */\n      calldataload\n        /* \"#utility.yul\":3232:3250   */\n      0xffffffffffffffff\n        /* \"#utility.yul\":3224:3230   */\n      dup2\n        /* \"#utility.yul\":3221:3251   */\n      gt\n        /* \"#utility.yul\":3218:3335   */\n      iszero\n      tag_315\n      jumpi\n        /* \"#utility.yul\":3254:3333   */\n      tag_316\n      tag_317\n      jump\t// in\n    tag_316:\n        /* \"#utility.yul\":3218:3335   */\n    tag_315:\n        /* \"#utility.yul\":3359:3447   */\n      tag_318\n        /* \"#utility.yul\":3439:3446   */\n      dup7\n        /* \"#utility.yul\":3430:3436   */\n      dup3\n        /* \"#utility.yul\":3419:3428   */\n      dup8\n        /* \"#utility.yul\":3415:3437   */\n      add\n        /* \"#utility.yul\":3359:3447   */\n      tag_294\n      jump\t// in\n    tag_318:\n        /* \"#utility.yul\":3349:3447   */\n      swap4\n      pop\n        /* \"#utility.yul\":3145:3457   */\n      pop\n        /* \"#utility.yul\":3524:3526   */\n      0x20\n        /* \"#utility.yul\":3513:3522   */\n      dup5\n        /* \"#utility.yul\":3509:3527   */\n      add\n        /* \"#utility.yul\":3496:3528   */\n      calldataload\n        /* \"#utility.yul\":3555:3573   */\n      0xffffffffffffffff\n        /* \"#utility.yul\":3547:3553   */\n      dup2\n        /* \"#utility.yul\":3544:3574   */\n      gt\n        /* \"#utility.yul\":3541:3658   */\n      iszero\n      tag_319\n      jumpi\n        /* \"#utility.yul\":3577:3656   */\n      tag_320\n      tag_317\n      jump\t// in\n    tag_320:\n        /* \"#utility.yul\":3541:3658   */\n    tag_319:\n        /* \"#utility.yul\":3682:3770   */\n      tag_321\n        /* \"#utility.yul\":3762:3769   */\n      dup7\n        /* \"#utility.yul\":3753:3759   */\n      dup3\n        /* \"#utility.yul\":3742:3751   */\n      dup8\n        /* \"#utility.yul\":3738:3760   */\n      add\n        /* \"#utility.yul\":3682:3770   */\n      tag_294\n      jump\t// in\n    tag_321:\n        /* \"#utility.yul\":3672:3770   */\n      swap3\n      pop\n        /* \"#utility.yul\":3467:3780   */\n      pop\n        /* \"#utility.yul\":3847:3849   */\n      0x40\n        /* \"#utility.yul\":3836:3845   */\n      dup5\n        /* \"#utility.yul\":3832:3850   */\n      add\n        /* \"#utility.yul\":3819:3851   */\n      calldataload\n        /* \"#utility.yul\":3878:3896   */\n      0xffffffffffffffff\n        /* \"#utility.yul\":3870:3876   */\n      dup2\n        /* \"#utility.yul\":3867:3897   */\n      gt\n        /* \"#utility.yul\":3864:3981   */\n      iszero\n      tag_322\n      jumpi\n        /* \"#utility.yul\":3900:3979   */\n      tag_323\n      tag_317\n      jump\t// in\n    tag_323:\n        /* \"#utility.yul\":3864:3981   */\n    tag_322:\n        /* \"#utility.yul\":4005:4093   */\n      tag_324\n        /* \"#utility.yul\":4085:4092   */\n      dup7\n        /* \"#utility.yul\":4076:4082   */\n      dup3\n        /* \"#utility.yul\":4065:4074   */\n      dup8\n        /* \"#utility.yul\":4061:4083   */\n      add\n        /* \"#utility.yul\":4005:4093   */\n      tag_294\n      jump\t// in\n    tag_324:\n        /* \"#utility.yul\":3995:4093   */\n      swap2\n      pop\n        /* \"#utility.yul\":3790:4103   */\n      pop\n        /* \"#utility.yul\":2801:4110   */\n      swap3\n      pop\n      swap3\n      pop\n      swap3\n      jump\t// out\n        /* \"#utility.yul\":4116:5601   */\n    tag_30:\n        /* \"#utility.yul\":4242:4248   */\n      0x00\n        /* \"#utility.yul\":4250:4256   */\n      dup1\n        /* \"#utility.yul\":4258:4264   */\n      0x00\n        /* \"#utility.yul\":4266:4272   */\n      dup1\n        /* \"#utility.yul\":4315:4318   */\n      0x80\n        /* \"#utility.yul\":4303:4312   */\n      dup6\n        /* \"#utility.yul\":4294:4301   */\n      dup8\n        /* \"#utility.yul\":4290:4313   */\n      sub\n        /* \"#utility.yul\":4286:4319   */\n      slt\n        /* \"#utility.yul\":4283:4403   */\n      iszero\n      tag_326\n      jumpi\n        /* \"#utility.yul\":4322:4401   */\n      tag_327\n      tag_310\n      jump\t// in\n    tag_327:\n        /* \"#utility.yul\":4283:4403   */\n    tag_326:\n        /* \"#utility.yul\":4470:4471   */\n      0x00\n        /* \"#utility.yul\":4459:4468   */\n      dup6\n        /* \"#utility.yul\":4455:4472   */\n      add\n        /* \"#utility.yul\":4442:4473   */\n      calldataload\n        /* \"#utility.yul\":4500:4518   */\n      0xffffffffffffffff\n        /* \"#utility.yul\":4492:4498   */\n      dup2\n        /* \"#utility.yul\":4489:4519   */\n      gt\n        /* \"#utility.yul\":4486:4603   */\n      iszero\n      tag_328\n      jumpi\n        /* \"#utility.yul\":4522:4601   */\n      tag_329\n      tag_317\n      jump\t// in\n    tag_329:\n        /* \"#utility.yul\":4486:4603   */\n    tag_328:\n        /* \"#utility.yul\":4627:4690   */\n      tag_330\n        /* \"#utility.yul\":4682:4689   */\n      dup8\n        /* \"#utility.yul\":4673:4679   */\n      dup3\n        /* \"#utility.yul\":4662:4671   */\n      dup9\n        /* \"#utility.yul\":4658:4680   */\n      add\n        /* \"#utility.yul\":4627:4690   */\n      tag_279\n      jump\t// in\n    tag_330:\n        /* \"#utility.yul\":4617:4690   */\n      swap5\n      pop\n        /* \"#utility.yul\":4413:4700   */\n      pop\n        /* \"#utility.yul\":4767:4769   */\n      0x20\n        /* \"#utility.yul\":4756:4765   */\n      dup6\n        /* \"#utility.yul\":4752:4770   */\n      add\n        /* \"#utility.yul\":4739:4771   */\n      calldataload\n        /* \"#utility.yul\":4798:4816   */\n      0xffffffffffffffff\n        /* \"#utility.yul\":4790:4796   */\n      dup2\n        /* \"#utility.yul\":4787:4817   */\n      gt\n        /* \"#utility.yul\":4784:4901   */\n      iszero\n      tag_331\n      jumpi\n        /* \"#utility.yul\":4820:4899   */\n      tag_332\n      tag_317\n      jump\t// in\n    tag_332:\n        /* \"#utility.yul\":4784:4901   */\n    tag_331:\n        /* \"#utility.yul\":4925:4988   */\n      tag_333\n        /* \"#utility.yul\":4980:4987   */\n      dup8\n        /* \"#utility.yul\":4971:4977   */\n      dup3\n        /* \"#utility.yul\":4960:4969   */\n      dup9\n        /* \"#utility.yul\":4956:4978   */\n      add\n        /* \"#utility.yul\":4925:4988   */\n      tag_279\n      jump\t// in\n    tag_333:\n        /* \"#utility.yul\":4915:4988   */\n      swap4\n      pop\n        /* \"#utility.yul\":4710:4998   */\n      pop\n        /* \"#utility.yul\":5065:5067   */\n      0x40\n        /* \"#utility.yul\":5054:5063   */\n      dup6\n        /* \"#utility.yul\":5050:5068   */\n      add\n        /* \"#utility.yul\":5037:5069   */\n      calldataload\n        /* \"#utility.yul\":5096:5114   */\n      0xffffffffffffffff\n        /* \"#utility.yul\":5088:5094   */\n      dup2\n        /* \"#utility.yul\":5085:5115   */\n      gt\n        /* \"#utility.yul\":5082:5199   */\n      iszero\n      tag_334\n      jumpi\n        /* \"#utility.yul\":5118:5197   */\n      tag_335\n      tag_317\n      jump\t// in\n    tag_335:\n        /* \"#utility.yul\":5082:5199   */\n    tag_334:\n        /* \"#utility.yul\":5223:5286   */\n      tag_336\n        /* \"#utility.yul\":5278:5285   */\n      dup8\n        /* \"#utility.yul\":5269:5275   */\n      dup3\n        /* \"#utility.yul\":5258:5267   */\n      dup9\n        /* \"#utility.yul\":5254:5276   */\n      add\n        /* \"#utility.yul\":5223:5286   */\n      tag_279\n      jump\t// in\n    tag_336:\n        /* \"#utility.yul\":5213:5286   */\n      swap3\n      pop\n        /* \"#utility.yul\":5008:5296   */\n      pop\n        /* \"#utility.yul\":5363:5365   */\n      0x60\n        /* \"#utility.yul\":5352:5361   */\n      dup6\n        /* \"#utility.yul\":5348:5366   */\n      add\n        /* \"#utility.yul\":5335:5367   */\n      calldataload\n        /* \"#utility.yul\":5394:5412   */\n      0xffffffffffffffff\n        /* \"#utility.yul\":5386:5392   */\n      dup2\n        /* \"#utility.yul\":5383:5413   */\n      gt\n        /* \"#utility.yul\":5380:5497   */\n      iszero\n      tag_337\n      jumpi\n        /* \"#utility.yul\":5416:5495   */\n      tag_338\n      tag_317\n      jump\t// in\n    tag_338:\n        /* \"#utility.yul\":5380:5497   */\n    tag_337:\n        /* \"#utility.yul\":5521:5584   */\n      tag_339\n        /* \"#utility.yul\":5576:5583   */\n      dup8\n        /* \"#utility.yul\":5567:5573   */\n      dup3\n        /* \"#utility.yul\":5556:5565   */\n      dup9\n        /* \"#utility.yul\":5552:5574   */\n      add\n        /* \"#utility.yul\":5521:5584   */\n      tag_279\n      jump\t// in\n    tag_339:\n        /* \"#utility.yul\":5511:5584   */\n      swap2\n      pop\n        /* \"#utility.yul\":5306:5594   */\n      pop\n        /* \"#utility.yul\":4116:5601   */\n      swap3\n      swap6\n      swap2\n      swap5\n      pop\n      swap3\n      pop\n      jump\t// out\n        /* \"#utility.yul\":5607:7418   */\n    tag_24:\n        /* \"#utility.yul\":5752:5758   */\n      0x00\n        /* \"#utility.yul\":5760:5766   */\n      dup1\n        /* \"#utility.yul\":5768:5774   */\n      0x00\n        /* \"#utility.yul\":5776:5782   */\n      dup1\n        /* \"#utility.yul\":5784:5790   */\n      0x00\n        /* \"#utility.yul\":5833:5836   */\n      0xa0\n        /* \"#utility.yul\":5821:5830   */\n      dup7\n        /* \"#utility.yul\":5812:5819   */\n      dup9\n        /* \"#utility.yul\":5808:5831   */\n      sub\n        /* \"#utility.yul\":5804:5837   */\n      slt\n        /* \"#utility.yul\":5801:5921   */\n      iszero\n      tag_341\n      jumpi\n        /* \"#utility.yul\":5840:5919   */\n      tag_342\n      tag_310\n      jump\t// in\n    tag_342:\n        /* \"#utility.yul\":5801:5921   */\n    tag_341:\n        /* \"#utility.yul\":5988:5989   */\n      0x00\n        /* \"#utility.yul\":5977:5986   */\n      dup7\n        /* \"#utility.yul\":5973:5990   */\n      add\n        /* \"#utility.yul\":5960:5991   */\n      calldataload\n        /* \"#utility.yul\":6018:6036   */\n      0xffffffffffffffff\n        /* \"#utility.yul\":6010:6016   */\n      dup2\n        /* \"#utility.yul\":6007:6037   */\n      gt\n        /* \"#utility.yul\":6004:6121   */\n      iszero\n      tag_343\n      jumpi\n        /* \"#utility.yul\":6040:6119   */\n      tag_344\n      tag_317\n      jump\t// in\n    tag_344:\n        /* \"#utility.yul\":6004:6121   */\n    tag_343:\n        /* \"#utility.yul\":6145:6208   */\n      tag_345\n        /* \"#utility.yul\":6200:6207   */\n      dup9\n        /* \"#utility.yul\":6191:6197   */\n      dup3\n        /* \"#utility.yul\":6180:6189   */\n      dup10\n        /* \"#utility.yul\":6176:6198   */\n      add\n        /* \"#utility.yul\":6145:6208   */\n      tag_279\n      jump\t// in\n    tag_345:\n        /* \"#utility.yul\":6135:6208   */\n      swap6\n      pop\n        /* \"#utility.yul\":5931:6218   */\n      pop\n        /* \"#utility.yul\":6285:6287   */\n      0x20\n        /* \"#utility.yul\":6274:6283   */\n      dup7\n        /* \"#utility.yul\":6270:6288   */\n      add\n        /* \"#utility.yul\":6257:6289   */\n      calldataload\n        /* \"#utility.yul\":6316:6334   */\n      0xffffffffffffffff\n        /* \"#utility.yul\":6308:6314   */\n      dup2\n        /* \"#utility.yul\":6305:6335   */\n      gt\n        /* \"#utility.yul\":6302:6419   */\n      iszero\n      tag_346\n      jumpi\n        /* \"#utility.yul\":6338:6417   */\n      tag_347\n      tag_317\n      jump\t// in\n    tag_347:\n        /* \"#utility.yul\":6302:6419   */\n    tag_346:\n        /* \"#utility.yul\":6443:6506   */\n      tag_348\n        /* \"#utility.yul\":6498:6505   */\n      dup9\n        /* \"#utility.yul\":6489:6495   */\n      dup3\n        /* \"#utility.yul\":6478:6487   */\n      dup10\n        /* \"#utility.yul\":6474:6496   */\n      add\n        /* \"#utility.yul\":6443:6506   */\n      tag_279\n      jump\t// in\n    tag_348:\n        /* \"#utility.yul\":6433:6506   */\n      swap5\n      pop\n        /* \"#utility.yul\":6228:6516   */\n      pop\n        /* \"#utility.yul\":6583:6585   */\n      0x40\n        /* \"#utility.yul\":6572:6581   */\n      dup7\n        /* \"#utility.yul\":6568:6586   */\n      add\n        /* \"#utility.yul\":6555:6587   */\n      calldataload\n        /* \"#utility.yul\":6614:6632   */\n      0xffffffffffffffff\n        /* \"#utility.yul\":6606:6612   */\n      dup2\n        /* \"#utility.yul\":6603:6633   */\n      gt\n        /* \"#utility.yul\":6600:6717   */\n      iszero\n      tag_349\n      jumpi\n        /* \"#utility.yul\":6636:6715   */\n      tag_350\n      tag_317\n      jump\t// in\n    tag_350:\n        /* \"#utility.yul\":6600:6717   */\n    tag_349:\n        /* \"#utility.yul\":6741:6804   */\n      tag_351\n        /* \"#utility.yul\":6796:6803   */\n      dup9\n        /* \"#utility.yul\":6787:6793   */\n      dup3\n        /* \"#utility.yul\":6776:6785   */\n      dup10\n        /* \"#utility.yul\":6772:6794   */\n      add\n        /* \"#utility.yul\":6741:6804   */\n      tag_279\n      jump\t// in\n    tag_351:\n        /* \"#utility.yul\":6731:6804   */\n      swap4\n      pop\n        /* \"#utility.yul\":6526:6814   */\n      pop\n        /* \"#utility.yul\":6881:6883   */\n      0x60\n        /* \"#utility.yul\":6870:6879   */\n      dup7\n        /* \"#utility.yul\":6866:6884   */\n      add\n        /* \"#utility.yul\":6853:6885   */\n      calldataload\n        /* \"#utility.yul\":6912:6930   */\n      0xffffffffffffffff\n        /* \"#utility.yul\":6904:6910   */\n      dup2\n        /* \"#utility.yul\":6901:6931   */\n      gt\n        /* \"#utility.yul\":6898:7015   */\n      iszero\n      tag_352\n      jumpi\n        /* \"#utility.yul\":6934:7013   */\n      tag_353\n      tag_317\n      jump\t// in\n    tag_353:\n        /* \"#utility.yul\":6898:7015   */\n    tag_352:\n        /* \"#utility.yul\":7039:7102   */\n      tag_354\n        /* \"#utility.yul\":7094:7101   */\n      dup9\n        /* \"#utility.yul\":7085:7091   */\n      dup3\n        /* \"#utility.yul\":7074:7083   */\n      dup10\n        /* \"#utility.yul\":7070:7092   */\n      add\n        /* \"#utility.yul\":7039:7102   */\n      tag_279\n      jump\t// in\n    tag_354:\n        /* \"#utility.yul\":7029:7102   */\n      swap3\n      pop\n        /* \"#utility.yul\":6824:7112   */\n      pop\n        /* \"#utility.yul\":7179:7182   */\n      0x80\n        /* \"#utility.yul\":7168:7177   */\n      dup7\n        /* \"#utility.yul\":7164:7183   */\n      add\n        /* \"#utility.yul\":7151:7184   */\n      calldataload\n        /* \"#utility.yul\":7211:7229   */\n      0xffffffffffffffff\n        /* \"#utility.yul\":7203:7209   */\n      dup2\n        /* \"#utility.yul\":7200:7230   */\n      gt\n        /* \"#utility.yul\":7197:7314   */\n      iszero\n      tag_355\n      jumpi\n        /* \"#utility.yul\":7233:7312   */\n      tag_356\n      tag_317\n      jump\t// in\n    tag_356:\n        /* \"#utility.yul\":7197:7314   */\n    tag_355:\n        /* \"#utility.yul\":7338:7401   */\n      tag_357\n        /* \"#utility.yul\":7393:7400   */\n      dup9\n        /* \"#utility.yul\":7384:7390   */\n      dup3\n        /* \"#utility.yul\":7373:7382   */\n      dup10\n        /* \"#utility.yul\":7369:7391   */\n      add\n        /* \"#utility.yul\":7338:7401   */\n      tag_279\n      jump\t// in\n    tag_357:\n        /* \"#utility.yul\":7328:7401   */\n      swap2\n      pop\n        /* \"#utility.yul\":7122:7411   */\n      pop\n        /* \"#utility.yul\":5607:7418   */\n      swap3\n      swap6\n      pop\n      swap3\n      swap6\n      swap1\n      swap4\n      pop\n      jump\t// out\n        /* \"#utility.yul\":7424:7753   */\n    tag_45:\n        /* \"#utility.yul\":7483:7489   */\n      0x00\n        /* \"#utility.yul\":7532:7534   */\n      0x20\n        /* \"#utility.yul\":7520:7529   */\n      dup3\n        /* \"#utility.yul\":7511:7518   */\n      dup5\n        /* \"#utility.yul\":7507:7530   */\n      sub\n        /* \"#utility.yul\":7503:7535   */\n      slt\n        /* \"#utility.yul\":7500:7619   */\n      iszero\n      tag_359\n      jumpi\n        /* \"#utility.yul\":7538:7617   */\n      tag_360\n      tag_310\n      jump\t// in\n    tag_360:\n        /* \"#utility.yul\":7500:7619   */\n    tag_359:\n        /* \"#utility.yul\":7658:7659   */\n      0x00\n        /* \"#utility.yul\":7683:7736   */\n      tag_361\n        /* \"#utility.yul\":7728:7735   */\n      dup5\n        /* \"#utility.yul\":7719:7725   */\n      dup3\n        /* \"#utility.yul\":7708:7717   */\n      dup6\n        /* \"#utility.yul\":7704:7726   */\n      add\n        /* \"#utility.yul\":7683:7736   */\n      tag_303\n      jump\t// in\n    tag_361:\n        /* \"#utility.yul\":7673:7736   */\n      swap2\n      pop\n        /* \"#utility.yul\":7629:7746   */\n      pop\n        /* \"#utility.yul\":7424:7753   */\n      swap3\n      swap2\n      pop\n      pop\n      jump\t// out\n        /* \"#utility.yul\":7759:7955   */\n    tag_362:\n        /* \"#utility.yul\":7848:7858   */\n      0x00\n        /* \"#utility.yul\":7883:7949   */\n      tag_364\n        /* \"#utility.yul\":7945:7948   */\n      dup4\n        /* \"#utility.yul\":7937:7943   */\n      dup4\n        /* \"#utility.yul\":7883:7949   */\n      tag_365\n      jump\t// in\n    tag_364:\n        /* \"#utility.yul\":7869:7949   */\n      swap1\n      pop\n        /* \"#utility.yul\":7759:7955   */\n      swap3\n      swap2\n      pop\n      pop\n      jump\t// out\n        /* \"#utility.yul\":7961:8069   */\n    tag_366:\n        /* \"#utility.yul\":8038:8062   */\n      tag_368\n        /* \"#utility.yul\":8056:8061   */\n      dup2\n        /* \"#utility.yul\":8038:8062   */\n      tag_369\n      jump\t// in\n    tag_368:\n        /* \"#utility.yul\":8033:8036   */\n      dup3\n        /* \"#utility.yul\":8026:8063   */\n      mstore\n        /* \"#utility.yul\":7961:8069   */\n      pop\n      pop\n      jump\t// out\n        /* \"#utility.yul\":8103:9074   */\n    tag_370:\n        /* \"#utility.yul\":8232:8235   */\n      0x00\n        /* \"#utility.yul\":8261:8325   */\n      tag_372\n        /* \"#utility.yul\":8319:8324   */\n      dup3\n        /* \"#utility.yul\":8261:8325   */\n      tag_373\n      jump\t// in\n    tag_372:\n        /* \"#utility.yul\":8341:8427   */\n      tag_374\n        /* \"#utility.yul\":8420:8426   */\n      dup2\n        /* \"#utility.yul\":8415:8418   */\n      dup6\n        /* \"#utility.yul\":8341:8427   */\n      tag_375\n      jump\t// in\n    tag_374:\n        /* \"#utility.yul\":8334:8427   */\n      swap4\n      pop\n        /* \"#utility.yul\":8453:8456   */\n      dup4\n        /* \"#utility.yul\":8498:8502   */\n      0x20\n        /* \"#utility.yul\":8490:8496   */\n      dup3\n        /* \"#utility.yul\":8486:8503   */\n      mul\n        /* \"#utility.yul\":8481:8484   */\n      dup6\n        /* \"#utility.yul\":8477:8504   */\n      add\n        /* \"#utility.yul\":8528:8594   */\n      tag_376\n        /* \"#utility.yul\":8588:8593   */\n      dup6\n        /* \"#utility.yul\":8528:8594   */\n      tag_377\n      jump\t// in\n    tag_376:\n        /* \"#utility.yul\":8617:8624   */\n      dup1\n        /* \"#utility.yul\":8648:8649   */\n      0x00\n        /* \"#utility.yul\":8633:9029   */\n    tag_378:\n        /* \"#utility.yul\":8658:8664   */\n      dup6\n        /* \"#utility.yul\":8655:8656   */\n      dup2\n        /* \"#utility.yul\":8652:8665   */\n      lt\n        /* \"#utility.yul\":8633:9029   */\n      iszero\n      tag_380\n      jumpi\n        /* \"#utility.yul\":8729:8738   */\n      dup5\n        /* \"#utility.yul\":8723:8727   */\n      dup5\n        /* \"#utility.yul\":8719:8739   */\n      sub\n        /* \"#utility.yul\":8714:8717   */\n      dup10\n        /* \"#utility.yul\":8707:8740   */\n      mstore\n        /* \"#utility.yul\":8780:8786   */\n      dup2\n        /* \"#utility.yul\":8774:8787   */\n      mload\n        /* \"#utility.yul\":8808:8892   */\n      tag_381\n        /* \"#utility.yul\":8887:8891   */\n      dup6\n        /* \"#utility.yul\":8872:8885   */\n      dup3\n        /* \"#utility.yul\":8808:8892   */\n      tag_362\n      jump\t// in\n    tag_381:\n        /* \"#utility.yul\":8800:8892   */\n      swap5\n      pop\n        /* \"#utility.yul\":8915:8985   */\n      tag_382\n        /* \"#utility.yul\":8978:8984   */\n      dup4\n        /* \"#utility.yul\":8915:8985   */\n      tag_383\n      jump\t// in\n    tag_382:\n        /* \"#utility.yul\":8905:8985   */\n      swap3\n      pop\n        /* \"#utility.yul\":9014:9018   */\n      0x20\n        /* \"#utility.yul\":9009:9012   */\n      dup11\n        /* \"#utility.yul\":9005:9019   */\n      add\n        /* \"#utility.yul\":8998:9019   */\n      swap10\n      pop\n        /* \"#utility.yul\":8693:9029   */\n      pop\n        /* \"#utility.yul\":8680:8681   */\n      0x01\n        /* \"#utility.yul\":8677:8678   */\n      dup2\n        /* \"#utility.yul\":8673:8682   */\n      add\n        /* \"#utility.yul\":8668:8682   */\n      swap1\n      pop\n        /* \"#utility.yul\":8633:9029   */\n      jump(tag_378)\n    tag_380:\n        /* \"#utility.yul\":8637:8651   */\n      pop\n        /* \"#utility.yul\":9045:9049   */\n      dup3\n        /* \"#utility.yul\":9038:9049   */\n      swap8\n      pop\n        /* \"#utility.yul\":9065:9068   */\n      dup8\n        /* \"#utility.yul\":9058:9068   */\n      swap6\n      pop\n        /* \"#utility.yul\":8237:9074   */\n      pop\n      pop\n      pop\n      pop\n      pop\n        /* \"#utility.yul\":8103:9074   */\n      swap3\n      swap2\n      pop\n      pop\n      jump\t// out\n        /* \"#utility.yul\":9080:9424   */\n    tag_365:\n        /* \"#utility.yul\":9158:9161   */\n      0x00\n        /* \"#utility.yul\":9186:9225   */\n      tag_385\n        /* \"#utility.yul\":9219:9224   */\n      dup3\n        /* \"#utility.yul\":9186:9225   */\n      tag_386\n      jump\t// in\n    tag_385:\n        /* \"#utility.yul\":9241:9302   */\n      tag_387\n        /* \"#utility.yul\":9295:9301   */\n      dup2\n        /* \"#utility.yul\":9290:9293   */\n      dup6\n        /* \"#utility.yul\":9241:9302   */\n      tag_388\n      jump\t// in\n    tag_387:\n        /* \"#utility.yul\":9234:9302   */\n      swap4\n      pop\n        /* \"#utility.yul\":9311:9363   */\n      tag_389\n        /* \"#utility.yul\":9356:9362   */\n      dup2\n        /* \"#utility.yul\":9351:9354   */\n      dup6\n        /* \"#utility.yul\":9344:9348   */\n      0x20\n        /* \"#utility.yul\":9337:9342   */\n      dup7\n        /* \"#utility.yul\":9333:9349   */\n      add\n        /* \"#utility.yul\":9311:9363   */\n      tag_390\n      jump\t// in\n    tag_389:\n        /* \"#utility.yul\":9388:9417   */\n      tag_391\n        /* \"#utility.yul\":9410:9416   */\n      dup2\n        /* \"#utility.yul\":9388:9417   */\n      tag_392\n      jump\t// in\n    tag_391:\n        /* \"#utility.yul\":9383:9386   */\n      dup5\n        /* \"#utility.yul\":9379:9418   */\n      add\n        /* \"#utility.yul\":9372:9418   */\n      swap2\n      pop\n        /* \"#utility.yul\":9162:9424   */\n      pop\n        /* \"#utility.yul\":9080:9424   */\n      swap3\n      swap2\n      pop\n      pop\n      jump\t// out\n        /* \"#utility.yul\":9430:9794   */\n    tag_393:\n        /* \"#utility.yul\":9518:9521   */\n      0x00\n        /* \"#utility.yul\":9546:9585   */\n      tag_395\n        /* \"#utility.yul\":9579:9584   */\n      dup3\n        /* \"#utility.yul\":9546:9585   */\n      tag_386\n      jump\t// in\n    tag_395:\n        /* \"#utility.yul\":9601:9672   */\n      tag_396\n        /* \"#utility.yul\":9665:9671   */\n      dup2\n        /* \"#utility.yul\":9660:9663   */\n      dup6\n        /* \"#utility.yul\":9601:9672   */\n      tag_397\n      jump\t// in\n    tag_396:\n        /* \"#utility.yul\":9594:9672   */\n      swap4\n      pop\n        /* \"#utility.yul\":9681:9733   */\n      tag_398\n        /* \"#utility.yul\":9726:9732   */\n      dup2\n        /* \"#utility.yul\":9721:9724   */\n      dup6\n        /* \"#utility.yul\":9714:9718   */\n      0x20\n        /* \"#utility.yul\":9707:9712   */\n      dup7\n        /* \"#utility.yul\":9703:9719   */\n      add\n        /* \"#utility.yul\":9681:9733   */\n      tag_390\n      jump\t// in\n    tag_398:\n        /* \"#utility.yul\":9758:9787   */\n      tag_399\n        /* \"#utility.yul\":9780:9786   */\n      dup2\n        /* \"#utility.yul\":9758:9787   */\n      tag_392\n      jump\t// in\n    tag_399:\n        /* \"#utility.yul\":9753:9756   */\n      dup5\n        /* \"#utility.yul\":9749:9788   */\n      add\n        /* \"#utility.yul\":9742:9788   */\n      swap2\n      pop\n        /* \"#utility.yul\":9522:9794   */\n      pop\n        /* \"#utility.yul\":9430:9794   */\n      swap3\n      swap2\n      pop\n      pop\n      jump\t// out\n        /* \"#utility.yul\":9858:11524   */\n    tag_400:\n        /* \"#utility.yul\":9975:9978   */\n      0x00\n        /* \"#utility.yul\":10011:10015   */\n      0xc0\n        /* \"#utility.yul\":10006:10009   */\n      dup4\n        /* \"#utility.yul\":10002:10016   */\n      add\n        /* \"#utility.yul\":10101:10105   */\n      0x00\n        /* \"#utility.yul\":10094:10099   */\n      dup4\n        /* \"#utility.yul\":10090:10106   */\n      add\n        /* \"#utility.yul\":10084:10107   */\n      mload\n        /* \"#utility.yul\":10154:10157   */\n      dup5\n        /* \"#utility.yul\":10148:10152   */\n      dup3\n        /* \"#utility.yul\":10144:10158   */\n      sub\n        /* \"#utility.yul\":10137:10141   */\n      0x00\n        /* \"#utility.yul\":10132:10135   */\n      dup7\n        /* \"#utility.yul\":10128:10142   */\n      add\n        /* \"#utility.yul\":10121:10159   */\n      mstore\n        /* \"#utility.yul\":10180:10253   */\n      tag_402\n        /* \"#utility.yul\":10248:10252   */\n      dup3\n        /* \"#utility.yul\":10234:10246   */\n      dup3\n        /* \"#utility.yul\":10180:10253   */\n      tag_365\n      jump\t// in\n    tag_402:\n        /* \"#utility.yul\":10172:10253   */\n      swap2\n      pop\n        /* \"#utility.yul\":10026:10264   */\n      pop\n        /* \"#utility.yul\":10347:10351   */\n      0x20\n        /* \"#utility.yul\":10340:10345   */\n      dup4\n        /* \"#utility.yul\":10336:10352   */\n      add\n        /* \"#utility.yul\":10330:10353   */\n      mload\n        /* \"#utility.yul\":10400:10403   */\n      dup5\n        /* \"#utility.yul\":10394:10398   */\n      dup3\n        /* \"#utility.yul\":10390:10404   */\n      sub\n        /* \"#utility.yul\":10383:10387   */\n      0x20\n        /* \"#utility.yul\":10378:10381   */\n      dup7\n        /* \"#utility.yul\":10374:10388   */\n      add\n        /* \"#utility.yul\":10367:10405   */\n      mstore\n        /* \"#utility.yul\":10426:10499   */\n      tag_403\n        /* \"#utility.yul\":10494:10498   */\n      dup3\n        /* \"#utility.yul\":10480:10492   */\n      dup3\n        /* \"#utility.yul\":10426:10499   */\n      tag_365\n      jump\t// in\n    tag_403:\n        /* \"#utility.yul\":10418:10499   */\n      swap2\n      pop\n        /* \"#utility.yul\":10274:10510   */\n      pop\n        /* \"#utility.yul\":10593:10597   */\n      0x40\n        /* \"#utility.yul\":10586:10591   */\n      dup4\n        /* \"#utility.yul\":10582:10598   */\n      add\n        /* \"#utility.yul\":10576:10599   */\n      mload\n        /* \"#utility.yul\":10646:10649   */\n      dup5\n        /* \"#utility.yul\":10640:10644   */\n      dup3\n        /* \"#utility.yul\":10636:10650   */\n      sub\n        /* \"#utility.yul\":10629:10633   */\n      0x40\n        /* \"#utility.yul\":10624:10627   */\n      dup7\n        /* \"#utility.yul\":10620:10634   */\n      add\n        /* \"#utility.yul\":10613:10651   */\n      mstore\n        /* \"#utility.yul\":10672:10745   */\n      tag_404\n        /* \"#utility.yul\":10740:10744   */\n      dup3\n        /* \"#utility.yul\":10726:10738   */\n      dup3\n        /* \"#utility.yul\":10672:10745   */\n      tag_365\n      jump\t// in\n    tag_404:\n        /* \"#utility.yul\":10664:10745   */\n      swap2\n      pop\n        /* \"#utility.yul\":10520:10756   */\n      pop\n        /* \"#utility.yul\":10840:10844   */\n      0x60\n        /* \"#utility.yul\":10833:10838   */\n      dup4\n        /* \"#utility.yul\":10829:10845   */\n      add\n        /* \"#utility.yul\":10823:10846   */\n      mload\n        /* \"#utility.yul\":10893:10896   */\n      dup5\n        /* \"#utility.yul\":10887:10891   */\n      dup3\n        /* \"#utility.yul\":10883:10897   */\n      sub\n        /* \"#utility.yul\":10876:10880   */\n      0x60\n        /* \"#utility.yul\":10871:10874   */\n      dup7\n        /* \"#utility.yul\":10867:10881   */\n      add\n        /* \"#utility.yul\":10860:10898   */\n      mstore\n        /* \"#utility.yul\":10919:10992   */\n      tag_405\n        /* \"#utility.yul\":10987:10991   */\n      dup3\n        /* \"#utility.yul\":10973:10985   */\n      dup3\n        /* \"#utility.yul\":10919:10992   */\n      tag_365\n      jump\t// in\n    tag_405:\n        /* \"#utility.yul\":10911:10992   */\n      swap2\n      pop\n        /* \"#utility.yul\":10766:11003   */\n      pop\n        /* \"#utility.yul\":11087:11091   */\n      0x80\n        /* \"#utility.yul\":11080:11085   */\n      dup4\n        /* \"#utility.yul\":11076:11092   */\n      add\n        /* \"#utility.yul\":11070:11093   */\n      mload\n        /* \"#utility.yul\":11140:11143   */\n      dup5\n        /* \"#utility.yul\":11134:11138   */\n      dup3\n        /* \"#utility.yul\":11130:11144   */\n      sub\n        /* \"#utility.yul\":11123:11127   */\n      0x80\n        /* \"#utility.yul\":11118:11121   */\n      dup7\n        /* \"#utility.yul\":11114:11128   */\n      add\n        /* \"#utility.yul\":11107:11145   */\n      mstore\n        /* \"#utility.yul\":11166:11239   */\n      tag_406\n        /* \"#utility.yul\":11234:11238   */\n      dup3\n        /* \"#utility.yul\":11220:11232   */\n      dup3\n        /* \"#utility.yul\":11166:11239   */\n      tag_365\n      jump\t// in\n    tag_406:\n        /* \"#utility.yul\":11158:11239   */\n      swap2\n      pop\n        /* \"#utility.yul\":11013:11250   */\n      pop\n        /* \"#utility.yul\":11334:11338   */\n      0xa0\n        /* \"#utility.yul\":11327:11332   */\n      dup4\n        /* \"#utility.yul\":11323:11339   */\n      add\n        /* \"#utility.yul\":11317:11340   */\n      mload\n        /* \"#utility.yul\":11387:11390   */\n      dup5\n        /* \"#utility.yul\":11381:11385   */\n      dup3\n        /* \"#utility.yul\":11377:11391   */\n      sub\n        /* \"#utility.yul\":11370:11374   */\n      0xa0\n        /* \"#utility.yul\":11365:11368   */\n      dup7\n        /* \"#utility.yul\":11361:11375   */\n      add\n        /* \"#utility.yul\":11354:11392   */\n      mstore\n        /* \"#utility.yul\":11413:11486   */\n      tag_407\n        /* \"#utility.yul\":11481:11485   */\n      dup3\n        /* \"#utility.yul\":11467:11479   */\n      dup3\n        /* \"#utility.yul\":11413:11486   */\n      tag_365\n      jump\t// in\n    tag_407:\n        /* \"#utility.yul\":11405:11486   */\n      swap2\n      pop\n        /* \"#utility.yul\":11260:11497   */\n      pop\n        /* \"#utility.yul\":11514:11518   */\n      dup1\n        /* \"#utility.yul\":11507:11518   */\n      swap2\n      pop\n        /* \"#utility.yul\":9980:11524   */\n      pop\n        /* \"#utility.yul\":9858:11524   */\n      swap3\n      swap2\n      pop\n      pop\n      jump\t// out\n        /* \"#utility.yul\":11594:13397   */\n    tag_408:\n        /* \"#utility.yul\":11717:11720   */\n      0x00\n        /* \"#utility.yul\":11753:11757   */\n      0xe0\n        /* \"#utility.yul\":11748:11751   */\n      dup4\n        /* \"#utility.yul\":11744:11758   */\n      add\n        /* \"#utility.yul\":11843:11847   */\n      0x00\n        /* \"#utility.yul\":11836:11841   */\n      dup4\n        /* \"#utility.yul\":11832:11848   */\n      add\n        /* \"#utility.yul\":11826:11849   */\n      mload\n        /* \"#utility.yul\":11896:11899   */\n      dup5\n        /* \"#utility.yul\":11890:11894   */\n      dup3\n        /* \"#utility.yul\":11886:11900   */\n      sub\n        /* \"#utility.yul\":11879:11883   */\n      0x00\n        /* \"#utility.yul\":11874:11877   */\n      dup7\n        /* \"#utility.yul\":11870:11884   */\n      add\n        /* \"#utility.yul\":11863:11901   */\n      mstore\n        /* \"#utility.yul\":11922:11995   */\n      tag_410\n        /* \"#utility.yul\":11990:11994   */\n      dup3\n        /* \"#utility.yul\":11976:11988   */\n      dup3\n        /* \"#utility.yul\":11922:11995   */\n      tag_365\n      jump\t// in\n    tag_410:\n        /* \"#utility.yul\":11914:11995   */\n      swap2\n      pop\n        /* \"#utility.yul\":11768:12006   */\n      pop\n        /* \"#utility.yul\":12095:12099   */\n      0x20\n        /* \"#utility.yul\":12088:12093   */\n      dup4\n        /* \"#utility.yul\":12084:12100   */\n      add\n        /* \"#utility.yul\":12078:12101   */\n      mload\n        /* \"#utility.yul\":12114:12177   */\n      tag_411\n        /* \"#utility.yul\":12171:12175   */\n      0x20\n        /* \"#utility.yul\":12166:12169   */\n      dup7\n        /* \"#utility.yul\":12162:12176   */\n      add\n        /* \"#utility.yul\":12148:12160   */\n      dup3\n        /* \"#utility.yul\":12114:12177   */\n      tag_366\n      jump\t// in\n    tag_411:\n        /* \"#utility.yul\":12016:12187   */\n      pop\n        /* \"#utility.yul\":12274:12278   */\n      0x40\n        /* \"#utility.yul\":12267:12272   */\n      dup4\n        /* \"#utility.yul\":12263:12279   */\n      add\n        /* \"#utility.yul\":12257:12280   */\n      mload\n        /* \"#utility.yul\":12327:12330   */\n      dup5\n        /* \"#utility.yul\":12321:12325   */\n      dup3\n        /* \"#utility.yul\":12317:12331   */\n      sub\n        /* \"#utility.yul\":12310:12314   */\n      0x40\n        /* \"#utility.yul\":12305:12308   */\n      dup7\n        /* \"#utility.yul\":12301:12315   */\n      add\n        /* \"#utility.yul\":12294:12332   */\n      mstore\n        /* \"#utility.yul\":12353:12426   */\n      tag_412\n        /* \"#utility.yul\":12421:12425   */\n      dup3\n        /* \"#utility.yul\":12407:12419   */\n      dup3\n        /* \"#utility.yul\":12353:12426   */\n      tag_365\n      jump\t// in\n    tag_412:\n        /* \"#utility.yul\":12345:12426   */\n      swap2\n      pop\n        /* \"#utility.yul\":12197:12437   */\n      pop\n        /* \"#utility.yul\":12525:12529   */\n      0x60\n        /* \"#utility.yul\":12518:12523   */\n      dup4\n        /* \"#utility.yul\":12514:12530   */\n      add\n        /* \"#utility.yul\":12508:12531   */\n      mload\n        /* \"#utility.yul\":12578:12581   */\n      dup5\n        /* \"#utility.yul\":12572:12576   */\n      dup3\n        /* \"#utility.yul\":12568:12582   */\n      sub\n        /* \"#utility.yul\":12561:12565   */\n      0x60\n        /* \"#utility.yul\":12556:12559   */\n      dup7\n        /* \"#utility.yul\":12552:12566   */\n      add\n        /* \"#utility.yul\":12545:12583   */\n      mstore\n        /* \"#utility.yul\":12604:12677   */\n      tag_413\n        /* \"#utility.yul\":12672:12676   */\n      dup3\n        /* \"#utility.yul\":12658:12670   */\n      dup3\n        /* \"#utility.yul\":12604:12677   */\n      tag_365\n      jump\t// in\n    tag_413:\n        /* \"#utility.yul\":12596:12677   */\n      swap2\n      pop\n        /* \"#utility.yul\":12447:12688   */\n      pop\n        /* \"#utility.yul\":12774:12778   */\n      0x80\n        /* \"#utility.yul\":12767:12772   */\n      dup4\n        /* \"#utility.yul\":12763:12779   */\n      add\n        /* \"#utility.yul\":12757:12780   */\n      mload\n        /* \"#utility.yul\":12827:12830   */\n      dup5\n        /* \"#utility.yul\":12821:12825   */\n      dup3\n        /* \"#utility.yul\":12817:12831   */\n      sub\n        /* \"#utility.yul\":12810:12814   */\n      0x80\n        /* \"#utility.yul\":12805:12808   */\n      dup7\n        /* \"#utility.yul\":12801:12815   */\n      add\n        /* \"#utility.yul\":12794:12832   */\n      mstore\n        /* \"#utility.yul\":12853:12926   */\n      tag_414\n        /* \"#utility.yul\":12921:12925   */\n      dup3\n        /* \"#utility.yul\":12907:12919   */\n      dup3\n        /* \"#utility.yul\":12853:12926   */\n      tag_365\n      jump\t// in\n    tag_414:\n        /* \"#utility.yul\":12845:12926   */\n      swap2\n      pop\n        /* \"#utility.yul\":12698:12937   */\n      pop\n        /* \"#utility.yul\":13027:13031   */\n      0xa0\n        /* \"#utility.yul\":13020:13025   */\n      dup4\n        /* \"#utility.yul\":13016:13032   */\n      add\n        /* \"#utility.yul\":13010:13033   */\n      mload\n        /* \"#utility.yul\":13080:13083   */\n      dup5\n        /* \"#utility.yul\":13074:13078   */\n      dup3\n        /* \"#utility.yul\":13070:13084   */\n      sub\n        /* \"#utility.yul\":13063:13067   */\n      0xa0\n        /* \"#utility.yul\":13058:13061   */\n      dup7\n        /* \"#utility.yul\":13054:13068   */\n      add\n        /* \"#utility.yul\":13047:13085   */\n      mstore\n        /* \"#utility.yul\":13106:13179   */\n      tag_415\n        /* \"#utility.yul\":13174:13178   */\n      dup3\n        /* \"#utility.yul\":13160:13172   */\n      dup3\n        /* \"#utility.yul\":13106:13179   */\n      tag_365\n      jump\t// in\n    tag_415:\n        /* \"#utility.yul\":13098:13179   */\n      swap2\n      pop\n        /* \"#utility.yul\":12947:13190   */\n      pop\n        /* \"#utility.yul\":13278:13282   */\n      0xc0\n        /* \"#utility.yul\":13271:13276   */\n      dup4\n        /* \"#utility.yul\":13267:13283   */\n      add\n        /* \"#utility.yul\":13261:13284   */\n      mload\n        /* \"#utility.yul\":13297:13360   */\n      tag_416\n        /* \"#utility.yul\":13354:13358   */\n      0xc0\n        /* \"#utility.yul\":13349:13352   */\n      dup7\n        /* \"#utility.yul\":13345:13359   */\n      add\n        /* \"#utility.yul\":13331:13343   */\n      dup3\n        /* \"#utility.yul\":13297:13360   */\n      tag_417\n      jump\t// in\n    tag_416:\n        /* \"#utility.yul\":13200:13370   */\n      pop\n        /* \"#utility.yul\":13387:13391   */\n      dup1\n        /* \"#utility.yul\":13380:13391   */\n      swap2\n      pop\n        /* \"#utility.yul\":11722:13397   */\n      pop\n        /* \"#utility.yul\":11594:13397   */\n      swap3\n      swap2\n      pop\n      pop\n      jump\t// out\n        /* \"#utility.yul\":13455:14552   */\n    tag_418:\n        /* \"#utility.yul\":13566:13569   */\n      0x00\n        /* \"#utility.yul\":13602:13606   */\n      0x60\n        /* \"#utility.yul\":13597:13600   */\n      dup4\n        /* \"#utility.yul\":13593:13607   */\n      add\n        /* \"#utility.yul\":13705:13709   */\n      0x00\n        /* \"#utility.yul\":13698:13703   */\n      dup4\n        /* \"#utility.yul\":13694:13710   */\n      add\n        /* \"#utility.yul\":13688:13711   */\n      mload\n        /* \"#utility.yul\":13758:13761   */\n      dup5\n        /* \"#utility.yul\":13752:13756   */\n      dup3\n        /* \"#utility.yul\":13748:13762   */\n      sub\n        /* \"#utility.yul\":13741:13745   */\n      0x00\n        /* \"#utility.yul\":13736:13739   */\n      dup7\n        /* \"#utility.yul\":13732:13746   */\n      add\n        /* \"#utility.yul\":13725:13763   */\n      mstore\n        /* \"#utility.yul\":13784:13907   */\n      tag_420\n        /* \"#utility.yul\":13902:13906   */\n      dup3\n        /* \"#utility.yul\":13888:13900   */\n      dup3\n        /* \"#utility.yul\":13784:13907   */\n      tag_370\n      jump\t// in\n    tag_420:\n        /* \"#utility.yul\":13776:13907   */\n      swap2\n      pop\n        /* \"#utility.yul\":13617:13918   */\n      pop\n        /* \"#utility.yul\":14005:14009   */\n      0x20\n        /* \"#utility.yul\":13998:14003   */\n      dup4\n        /* \"#utility.yul\":13994:14010   */\n      add\n        /* \"#utility.yul\":13988:14011   */\n      mload\n        /* \"#utility.yul\":14058:14061   */\n      dup5\n        /* \"#utility.yul\":14052:14056   */\n      dup3\n        /* \"#utility.yul\":14048:14062   */\n      sub\n        /* \"#utility.yul\":14041:14045   */\n      0x20\n        /* \"#utility.yul\":14036:14039   */\n      dup7\n        /* \"#utility.yul\":14032:14046   */\n      add\n        /* \"#utility.yul\":14025:14063   */\n      mstore\n        /* \"#utility.yul\":14084:14207   */\n      tag_421\n        /* \"#utility.yul\":14202:14206   */\n      dup3\n        /* \"#utility.yul\":14188:14200   */\n      dup3\n        /* \"#utility.yul\":14084:14207   */\n      tag_370\n      jump\t// in\n    tag_421:\n        /* \"#utility.yul\":14076:14207   */\n      swap2\n      pop\n        /* \"#utility.yul\":13928:14218   */\n      pop\n        /* \"#utility.yul\":14312:14316   */\n      0x40\n        /* \"#utility.yul\":14305:14310   */\n      dup4\n        /* \"#utility.yul\":14301:14317   */\n      add\n        /* \"#utility.yul\":14295:14318   */\n      mload\n        /* \"#utility.yul\":14365:14368   */\n      dup5\n        /* \"#utility.yul\":14359:14363   */\n      dup3\n        /* \"#utility.yul\":14355:14369   */\n      sub\n        /* \"#utility.yul\":14348:14352   */\n      0x40\n        /* \"#utility.yul\":14343:14346   */\n      dup7\n        /* \"#utility.yul\":14339:14353   */\n      add\n        /* \"#utility.yul\":14332:14370   */\n      mstore\n        /* \"#utility.yul\":14391:14514   */\n      tag_422\n        /* \"#utility.yul\":14509:14513   */\n      dup3\n        /* \"#utility.yul\":14495:14507   */\n      dup3\n        /* \"#utility.yul\":14391:14514   */\n      tag_370\n      jump\t// in\n    tag_422:\n        /* \"#utility.yul\":14383:14514   */\n      swap2\n      pop\n        /* \"#utility.yul\":14228:14525   */\n      pop\n        /* \"#utility.yul\":14542:14546   */\n      dup1\n        /* \"#utility.yul\":14535:14546   */\n      swap2\n      pop\n        /* \"#utility.yul\":13571:14552   */\n      pop\n        /* \"#utility.yul\":13455:14552   */\n      swap3\n      swap2\n      pop\n      pop\n      jump\t// out\n        /* \"#utility.yul\":14558:14666   */\n    tag_417:\n        /* \"#utility.yul\":14635:14659   */\n      tag_424\n        /* \"#utility.yul\":14653:14658   */\n      dup2\n        /* \"#utility.yul\":14635:14659   */\n      tag_425\n      jump\t// in\n    tag_424:\n        /* \"#utility.yul\":14630:14633   */\n      dup3\n        /* \"#utility.yul\":14623:14660   */\n      mstore\n        /* \"#utility.yul\":14558:14666   */\n      pop\n      pop\n      jump\t// out\n        /* \"#utility.yul\":14672:14790   */\n    tag_426:\n        /* \"#utility.yul\":14759:14783   */\n      tag_428\n        /* \"#utility.yul\":14777:14782   */\n      dup2\n        /* \"#utility.yul\":14759:14783   */\n      tag_425\n      jump\t// in\n    tag_428:\n        /* \"#utility.yul\":14754:14757   */\n      dup3\n        /* \"#utility.yul\":14747:14784   */\n      mstore\n        /* \"#utility.yul\":14672:14790   */\n      pop\n      pop\n      jump\t// out\n        /* \"#utility.yul\":14796:15713   */\n    tag_48:\n        /* \"#utility.yul\":15053:15057   */\n      0x00\n        /* \"#utility.yul\":15091:15094   */\n      0x80\n        /* \"#utility.yul\":15080:15089   */\n      dup3\n        /* \"#utility.yul\":15076:15095   */\n      add\n        /* \"#utility.yul\":15068:15095   */\n      swap1\n      pop\n        /* \"#utility.yul\":15141:15150   */\n      dup2\n        /* \"#utility.yul\":15135:15139   */\n      dup2\n        /* \"#utility.yul\":15131:15151   */\n      sub\n        /* \"#utility.yul\":15127:15128   */\n      0x00\n        /* \"#utility.yul\":15116:15125   */\n      dup4\n        /* \"#utility.yul\":15112:15129   */\n      add\n        /* \"#utility.yul\":15105:15152   */\n      mstore\n        /* \"#utility.yul\":15169:15247   */\n      tag_430\n        /* \"#utility.yul\":15242:15246   */\n      dup2\n        /* \"#utility.yul\":15233:15239   */\n      dup8\n        /* \"#utility.yul\":15169:15247   */\n      tag_393\n      jump\t// in\n    tag_430:\n        /* \"#utility.yul\":15161:15247   */\n      swap1\n      pop\n        /* \"#utility.yul\":15294:15303   */\n      dup2\n        /* \"#utility.yul\":15288:15292   */\n      dup2\n        /* \"#utility.yul\":15284:15304   */\n      sub\n        /* \"#utility.yul\":15279:15281   */\n      0x20\n        /* \"#utility.yul\":15268:15277   */\n      dup4\n        /* \"#utility.yul\":15264:15282   */\n      add\n        /* \"#utility.yul\":15257:15305   */\n      mstore\n        /* \"#utility.yul\":15322:15400   */\n      tag_431\n        /* \"#utility.yul\":15395:15399   */\n      dup2\n        /* \"#utility.yul\":15386:15392   */\n      dup7\n        /* \"#utility.yul\":15322:15400   */\n      tag_393\n      jump\t// in\n    tag_431:\n        /* \"#utility.yul\":15314:15400   */\n      swap1\n      pop\n        /* \"#utility.yul\":15447:15456   */\n      dup2\n        /* \"#utility.yul\":15441:15445   */\n      dup2\n        /* \"#utility.yul\":15437:15457   */\n      sub\n        /* \"#utility.yul\":15432:15434   */\n      0x40\n        /* \"#utility.yul\":15421:15430   */\n      dup4\n        /* \"#utility.yul\":15417:15435   */\n      add\n        /* \"#utility.yul\":15410:15458   */\n      mstore\n        /* \"#utility.yul\":15475:15553   */\n      tag_432\n        /* \"#utility.yul\":15548:15552   */\n      dup2\n        /* \"#utility.yul\":15539:15545   */\n      dup6\n        /* \"#utility.yul\":15475:15553   */\n      tag_393\n      jump\t// in\n    tag_432:\n        /* \"#utility.yul\":15467:15553   */\n      swap1\n      pop\n        /* \"#utility.yul\":15600:15609   */\n      dup2\n        /* \"#utility.yul\":15594:15598   */\n      dup2\n        /* \"#utility.yul\":15590:15610   */\n      sub\n        /* \"#utility.yul\":15585:15587   */\n      0x60\n        /* \"#utility.yul\":15574:15583   */\n      dup4\n        /* \"#utility.yul\":15570:15588   */\n      add\n        /* \"#utility.yul\":15563:15611   */\n      mstore\n        /* \"#utility.yul\":15628:15706   */\n      tag_433\n        /* \"#utility.yul\":15701:15705   */\n      dup2\n        /* \"#utility.yul\":15692:15698   */\n      dup5\n        /* \"#utility.yul\":15628:15706   */\n      tag_393\n      jump\t// in\n    tag_433:\n        /* \"#utility.yul\":15620:15706   */\n      swap1\n      pop\n        /* \"#utility.yul\":14796:15713   */\n      swap6\n      swap5\n      pop\n      pop\n      pop\n      pop\n      pop\n      jump\t// out\n        /* \"#utility.yul\":15719:16602   */\n    tag_37:\n        /* \"#utility.yul\":16012:16016   */\n      0x00\n        /* \"#utility.yul\":16050:16052   */\n      0x60\n        /* \"#utility.yul\":16039:16048   */\n      dup3\n        /* \"#utility.yul\":16035:16053   */\n      add\n        /* \"#utility.yul\":16027:16053   */\n      swap1\n      pop\n        /* \"#utility.yul\":16099:16108   */\n      dup2\n        /* \"#utility.yul\":16093:16097   */\n      dup2\n        /* \"#utility.yul\":16089:16109   */\n      sub\n        /* \"#utility.yul\":16085:16086   */\n      0x00\n        /* \"#utility.yul\":16074:16083   */\n      dup4\n        /* \"#utility.yul\":16070:16087   */\n      add\n        /* \"#utility.yul\":16063:16110   */\n      mstore\n        /* \"#utility.yul\":16127:16239   */\n      tag_435\n        /* \"#utility.yul\":16234:16238   */\n      dup2\n        /* \"#utility.yul\":16225:16231   */\n      dup7\n        /* \"#utility.yul\":16127:16239   */\n      tag_408\n      jump\t// in\n    tag_435:\n        /* \"#utility.yul\":16119:16239   */\n      swap1\n      pop\n        /* \"#utility.yul\":16286:16295   */\n      dup2\n        /* \"#utility.yul\":16280:16284   */\n      dup2\n        /* \"#utility.yul\":16276:16296   */\n      sub\n        /* \"#utility.yul\":16271:16273   */\n      0x20\n        /* \"#utility.yul\":16260:16269   */\n      dup4\n        /* \"#utility.yul\":16256:16274   */\n      add\n        /* \"#utility.yul\":16249:16297   */\n      mstore\n        /* \"#utility.yul\":16314:16420   */\n      tag_436\n        /* \"#utility.yul\":16415:16419   */\n      dup2\n        /* \"#utility.yul\":16406:16412   */\n      dup6\n        /* \"#utility.yul\":16314:16420   */\n      tag_400\n      jump\t// in\n    tag_436:\n        /* \"#utility.yul\":16306:16420   */\n      swap1\n      pop\n        /* \"#utility.yul\":16467:16476   */\n      dup2\n        /* \"#utility.yul\":16461:16465   */\n      dup2\n        /* \"#utility.yul\":16457:16477   */\n      sub\n        /* \"#utility.yul\":16452:16454   */\n      0x40\n        /* \"#utility.yul\":16441:16450   */\n      dup4\n        /* \"#utility.yul\":16437:16455   */\n      add\n        /* \"#utility.yul\":16430:16478   */\n      mstore\n        /* \"#utility.yul\":16495:16595   */\n      tag_437\n        /* \"#utility.yul\":16590:16594   */\n      dup2\n        /* \"#utility.yul\":16581:16587   */\n      dup5\n        /* \"#utility.yul\":16495:16595   */\n      tag_418\n      jump\t// in\n    tag_437:\n        /* \"#utility.yul\":16487:16595   */\n      swap1\n      pop\n        /* \"#utility.yul\":15719:16602   */\n      swap5\n      swap4\n      pop\n      pop\n      pop\n      pop\n      jump\t// out\n        /* \"#utility.yul\":16608:16830   */\n    tag_21:\n        /* \"#utility.yul\":16701:16705   */\n      0x00\n        /* \"#utility.yul\":16739:16741   */\n      0x20\n        /* \"#utility.yul\":16728:16737   */\n      dup3\n        /* \"#utility.yul\":16724:16742   */\n      add\n        /* \"#utility.yul\":16716:16742   */\n      swap1\n      pop\n        /* \"#utility.yul\":16752:16823   */\n      tag_439\n        /* \"#utility.yul\":16820:16821   */\n      0x00\n        /* \"#utility.yul\":16809:16818   */\n      dup4\n        /* \"#utility.yul\":16805:16822   */\n      add\n        /* \"#utility.yul\":16796:16802   */\n      dup5\n        /* \"#utility.yul\":16752:16823   */\n      tag_426\n      jump\t// in\n    tag_439:\n        /* \"#utility.yul\":16608:16830   */\n      swap3\n      swap2\n      pop\n      pop\n      jump\t// out\n        /* \"#utility.yul\":16836:16965   */\n    tag_268:\n        /* \"#utility.yul\":16870:16876   */\n      0x00\n        /* \"#utility.yul\":16897:16917   */\n      tag_441\n      tag_442\n      jump\t// in\n    tag_441:\n        /* \"#utility.yul\":16887:16917   */\n      swap1\n      pop\n        /* \"#utility.yul\":16926:16959   */\n      tag_443\n        /* \"#utility.yul\":16954:16958   */\n      dup3\n        /* \"#utility.yul\":16946:16952   */\n      dup3\n        /* \"#utility.yul\":16926:16959   */\n      tag_444\n      jump\t// in\n    tag_443:\n        /* \"#utility.yul\":16836:16965   */\n      swap2\n      swap1\n      pop\n      jump\t// out\n        /* \"#utility.yul\":16971:17046   */\n    tag_442:\n        /* \"#utility.yul\":17004:17010   */\n      0x00\n        /* \"#utility.yul\":17037:17039   */\n      0x40\n        /* \"#utility.yul\":17031:17040   */\n      mload\n        /* \"#utility.yul\":17021:17040   */\n      swap1\n      pop\n        /* \"#utility.yul\":16971:17046   */\n      swap1\n      jump\t// out\n        /* \"#utility.yul\":17052:17373   */\n    tag_267:\n        /* \"#utility.yul\":17139:17143   */\n      0x00\n        /* \"#utility.yul\":17229:17247   */\n      0xffffffffffffffff\n        /* \"#utility.yul\":17221:17227   */\n      dup3\n        /* \"#utility.yul\":17218:17248   */\n      gt\n        /* \"#utility.yul\":17215:17271   */\n      iszero\n      tag_447\n      jumpi\n        /* \"#utility.yul\":17251:17269   */\n      tag_448\n      tag_449\n      jump\t// in\n    tag_448:\n        /* \"#utility.yul\":17215:17271   */\n    tag_447:\n        /* \"#utility.yul\":17301:17305   */\n      0x20\n        /* \"#utility.yul\":17293:17299   */\n      dup3\n        /* \"#utility.yul\":17289:17306   */\n      mul\n        /* \"#utility.yul\":17281:17306   */\n      swap1\n      pop\n        /* \"#utility.yul\":17361:17365   */\n      0x20\n        /* \"#utility.yul\":17355:17359   */\n      dup2\n        /* \"#utility.yul\":17351:17366   */\n      add\n        /* \"#utility.yul\":17343:17366   */\n      swap1\n      pop\n        /* \"#utility.yul\":17052:17373   */\n      swap2\n      swap1\n      pop\n      jump\t// out\n        /* \"#utility.yul\":17379:17687   */\n    tag_284:\n        /* \"#utility.yul\":17441:17445   */\n      0x00\n        /* \"#utility.yul\":17531:17549   */\n      0xffffffffffffffff\n        /* \"#utility.yul\":17523:17529   */\n      dup3\n        /* \"#utility.yul\":17520:17550   */\n      gt\n        /* \"#utility.yul\":17517:17573   */\n      iszero\n      tag_451\n      jumpi\n        /* \"#utility.yul\":17553:17571   */\n      tag_452\n      tag_449\n      jump\t// in\n    tag_452:\n        /* \"#utility.yul\":17517:17573   */\n    tag_451:\n        /* \"#utility.yul\":17591:17620   */\n      tag_453\n        /* \"#utility.yul\":17613:17619   */\n      dup3\n        /* \"#utility.yul\":17591:17620   */\n      tag_392\n      jump\t// in\n    tag_453:\n        /* \"#utility.yul\":17583:17620   */\n      swap1\n      pop\n        /* \"#utility.yul\":17675:17679   */\n      0x20\n        /* \"#utility.yul\":17669:17673   */\n      dup2\n        /* \"#utility.yul\":17665:17680   */\n      add\n        /* \"#utility.yul\":17657:17680   */\n      swap1\n      pop\n        /* \"#utility.yul\":17379:17687   */\n      swap2\n      swap1\n      pop\n      jump\t// out\n        /* \"#utility.yul\":17693:17835   */\n    tag_377:\n        /* \"#utility.yul\":17770:17774   */\n      0x00\n        /* \"#utility.yul\":17793:17796   */\n      dup2\n        /* \"#utility.yul\":17785:17796   */\n      swap1\n      pop\n        /* \"#utility.yul\":17823:17827   */\n      0x20\n        /* \"#utility.yul\":17818:17821   */\n      dup3\n        /* \"#utility.yul\":17814:17828   */\n      add\n        /* \"#utility.yul\":17806:17828   */\n      swap1\n      pop\n        /* \"#utility.yul\":17693:17835   */\n      swap2\n      swap1\n      pop\n      jump\t// out\n        /* \"#utility.yul\":17841:17965   */\n    tag_373:\n        /* \"#utility.yul\":17918:17924   */\n      0x00\n        /* \"#utility.yul\":17952:17957   */\n      dup2\n        /* \"#utility.yul\":17946:17958   */\n      mload\n        /* \"#utility.yul\":17936:17958   */\n      swap1\n      pop\n        /* \"#utility.yul\":17841:17965   */\n      swap2\n      swap1\n      pop\n      jump\t// out\n        /* \"#utility.yul\":17971:18070   */\n    tag_386:\n        /* \"#utility.yul\":18023:18029   */\n      0x00\n        /* \"#utility.yul\":18057:18062   */\n      dup2\n        /* \"#utility.yul\":18051:18063   */\n      mload\n        /* \"#utility.yul\":18041:18063   */\n      swap1\n      pop\n        /* \"#utility.yul\":17971:18070   */\n      swap2\n      swap1\n      pop\n      jump\t// out\n        /* \"#utility.yul\":18076:18199   */\n    tag_383:\n        /* \"#utility.yul\":18156:18160   */\n      0x00\n        /* \"#utility.yul\":18188:18192   */\n      0x20\n        /* \"#utility.yul\":18183:18186   */\n      dup3\n        /* \"#utility.yul\":18179:18193   */\n      add\n        /* \"#utility.yul\":18171:18193   */\n      swap1\n      pop\n        /* \"#utility.yul\":18076:18199   */\n      swap2\n      swap1\n      pop\n      jump\t// out\n        /* \"#utility.yul\":18205:18389   */\n    tag_375:\n        /* \"#utility.yul\":18304:18315   */\n      0x00\n        /* \"#utility.yul\":18338:18344   */\n      dup3\n        /* \"#utility.yul\":18333:18336   */\n      dup3\n        /* \"#utility.yul\":18326:18345   */\n      mstore\n        /* \"#utility.yul\":18378:18382   */\n      0x20\n        /* \"#utility.yul\":18373:18376   */\n      dup3\n        /* \"#utility.yul\":18369:18383   */\n      add\n        /* \"#utility.yul\":18354:18383   */\n      swap1\n      pop\n        /* \"#utility.yul\":18205:18389   */\n      swap3\n      swap2\n      pop\n      pop\n      jump\t// out\n        /* \"#utility.yul\":18395:18554   */\n    tag_388:\n        /* \"#utility.yul\":18469:18480   */\n      0x00\n        /* \"#utility.yul\":18503:18509   */\n      dup3\n        /* \"#utility.yul\":18498:18501   */\n      dup3\n        /* \"#utility.yul\":18491:18510   */\n      mstore\n        /* \"#utility.yul\":18543:18547   */\n      0x20\n        /* \"#utility.yul\":18538:18541   */\n      dup3\n        /* \"#utility.yul\":18534:18548   */\n      add\n        /* \"#utility.yul\":18519:18548   */\n      swap1\n      pop\n        /* \"#utility.yul\":18395:18554   */\n      swap3\n      swap2\n      pop\n      pop\n      jump\t// out\n        /* \"#utility.yul\":18560:18729   */\n    tag_397:\n        /* \"#utility.yul\":18644:18655   */\n      0x00\n        /* \"#utility.yul\":18678:18684   */\n      dup3\n        /* \"#utility.yul\":18673:18676   */\n      dup3\n        /* \"#utility.yul\":18666:18685   */\n      mstore\n        /* \"#utility.yul\":18718:18722   */\n      0x20\n        /* \"#utility.yul\":18713:18716   */\n      dup3\n        /* \"#utility.yul\":18709:18723   */\n      add\n        /* \"#utility.yul\":18694:18723   */\n      swap1\n      pop\n        /* \"#utility.yul\":18560:18729   */\n      swap3\n      swap2\n      pop\n      pop\n      jump\t// out\n        /* \"#utility.yul\":18735:18831   */\n    tag_369:\n        /* \"#utility.yul\":18772:18779   */\n      0x00\n        /* \"#utility.yul\":18801:18825   */\n      tag_462\n        /* \"#utility.yul\":18819:18824   */\n      dup3\n        /* \"#utility.yul\":18801:18825   */\n      tag_463\n      jump\t// in\n    tag_462:\n        /* \"#utility.yul\":18790:18825   */\n      swap1\n      pop\n        /* \"#utility.yul\":18735:18831   */\n      swap2\n      swap1\n      pop\n      jump\t// out\n        /* \"#utility.yul\":18837:18963   */\n    tag_463:\n        /* \"#utility.yul\":18874:18881   */\n      0x00\n        /* \"#utility.yul\":18914:18956   */\n      0xffffffffffffffffffffffffffffffffffffffff\n        /* \"#utility.yul\":18907:18912   */\n      dup3\n        /* \"#utility.yul\":18903:18957   */\n      and\n        /* \"#utility.yul\":18892:18957   */\n      swap1\n      pop\n        /* \"#utility.yul\":18837:18963   */\n      swap2\n      swap1\n      pop\n      jump\t// out\n        /* \"#utility.yul\":18969:19046   */\n    tag_425:\n        /* \"#utility.yul\":19006:19013   */\n      0x00\n        /* \"#utility.yul\":19035:19040   */\n      dup2\n        /* \"#utility.yul\":19024:19040   */\n      swap1\n      pop\n        /* \"#utility.yul\":18969:19046   */\n      swap2\n      swap1\n      pop\n      jump\t// out\n        /* \"#utility.yul\":19052:19206   */\n    tag_289:\n        /* \"#utility.yul\":19136:19142   */\n      dup3\n        /* \"#utility.yul\":19131:19134   */\n      dup2\n        /* \"#utility.yul\":19126:19129   */\n      dup4\n        /* \"#utility.yul\":19113:19143   */\n      calldatacopy\n        /* \"#utility.yul\":19198:19199   */\n      0x00\n        /* \"#utility.yul\":19189:19195   */\n      dup4\n        /* \"#utility.yul\":19184:19187   */\n      dup4\n        /* \"#utility.yul\":19180:19196   */\n      add\n        /* \"#utility.yul\":19173:19200   */\n      mstore\n        /* \"#utility.yul\":19052:19206   */\n      pop\n      pop\n      pop\n      jump\t// out\n        /* \"#utility.yul\":19212:19519   */\n    tag_390:\n        /* \"#utility.yul\":19280:19281   */\n      0x00\n        /* \"#utility.yul\":19290:19403   */\n    tag_468:\n        /* \"#utility.yul\":19304:19310   */\n      dup4\n        /* \"#utility.yul\":19301:19302   */\n      dup2\n        /* \"#utility.yul\":19298:19311   */\n      lt\n        /* \"#utility.yul\":19290:19403   */\n      iszero\n      tag_470\n      jumpi\n        /* \"#utility.yul\":19389:19390   */\n      dup1\n        /* \"#utility.yul\":19384:19387   */\n      dup3\n        /* \"#utility.yul\":19380:19391   */\n      add\n        /* \"#utility.yul\":19374:19392   */\n      mload\n        /* \"#utility.yul\":19370:19371   */\n      dup2\n        /* \"#utility.yul\":19365:19368   */\n      dup5\n        /* \"#utility.yul\":19361:19372   */\n      add\n        /* \"#utility.yul\":19354:19393   */\n      mstore\n        /* \"#utility.yul\":19326:19328   */\n      0x20\n        /* \"#utility.yul\":19323:19324   */\n      dup2\n        /* \"#utility.yul\":19319:19329   */\n      add\n        /* \"#utility.yul\":19314:19329   */\n      swap1\n      pop\n        /* \"#utility.yul\":19290:19403   */\n      jump(tag_468)\n    tag_470:\n        /* \"#utility.yul\":19421:19427   */\n      dup4\n        /* \"#utility.yul\":19418:19419   */\n      dup2\n        /* \"#utility.yul\":19415:19428   */\n      gt\n        /* \"#utility.yul\":19412:19513   */\n      iszero\n      tag_471\n      jumpi\n        /* \"#utility.yul\":19501:19502   */\n      0x00\n        /* \"#utility.yul\":19492:19498   */\n      dup5\n        /* \"#utility.yul\":19487:19490   */\n      dup5\n        /* \"#utility.yul\":19483:19499   */\n      add\n        /* \"#utility.yul\":19476:19503   */\n      mstore\n        /* \"#utility.yul\":19412:19513   */\n    tag_471:\n        /* \"#utility.yul\":19261:19519   */\n      pop\n        /* \"#utility.yul\":19212:19519   */\n      pop\n      pop\n      pop\n      jump\t// out\n        /* \"#utility.yul\":19525:19845   */\n    tag_90:\n        /* \"#utility.yul\":19569:19575   */\n      0x00\n        /* \"#utility.yul\":19606:19607   */\n      0x02\n        /* \"#utility.yul\":19600:19604   */\n      dup3\n        /* \"#utility.yul\":19596:19608   */\n      div\n        /* \"#utility.yul\":19586:19608   */\n      swap1\n      pop\n        /* \"#utility.yul\":19653:19654   */\n      0x01\n        /* \"#utility.yul\":19647:19651   */\n      dup3\n        /* \"#utility.yul\":19643:19655   */\n      and\n        /* \"#utility.yul\":19674:19692   */\n      dup1\n        /* \"#utility.yul\":19664:19745   */\n      tag_473\n      jumpi\n        /* \"#utility.yul\":19730:19734   */\n      0x7f\n        /* \"#utility.yul\":19722:19728   */\n      dup3\n        /* \"#utility.yul\":19718:19735   */\n      and\n        /* \"#utility.yul\":19708:19735   */\n      swap2\n      pop\n        /* \"#utility.yul\":19664:19745   */\n    tag_473:\n        /* \"#utility.yul\":19792:19794   */\n      0x20\n        /* \"#utility.yul\":19784:19790   */\n      dup3\n        /* \"#utility.yul\":19781:19795   */\n      lt\n        /* \"#utility.yul\":19761:19779   */\n      dup2\n        /* \"#utility.yul\":19758:19796   */\n      eq\n        /* \"#utility.yul\":19755:19839   */\n      iszero\n      tag_474\n      jumpi\n        /* \"#utility.yul\":19811:19829   */\n      tag_475\n      tag_476\n      jump\t// in\n    tag_475:\n        /* \"#utility.yul\":19755:19839   */\n    tag_474:\n        /* \"#utility.yul\":19576:19845   */\n      pop\n        /* \"#utility.yul\":19525:19845   */\n      swap2\n      swap1\n      pop\n      jump\t// out\n        /* \"#utility.yul\":19851:20132   */\n    tag_444:\n        /* \"#utility.yul\":19934:19961   */\n      tag_478\n        /* \"#utility.yul\":19956:19960   */\n      dup3\n        /* \"#utility.yul\":19934:19961   */\n      tag_392\n      jump\t// in\n    tag_478:\n        /* \"#utility.yul\":19926:19932   */\n      dup2\n        /* \"#utility.yul\":19922:19962   */\n      add\n        /* \"#utility.yul\":20064:20070   */\n      dup2\n        /* \"#utility.yul\":20052:20062   */\n      dup2\n        /* \"#utility.yul\":20049:20071   */\n      lt\n        /* \"#utility.yul\":20028:20046   */\n      0xffffffffffffffff\n        /* \"#utility.yul\":20016:20026   */\n      dup3\n        /* \"#utility.yul\":20013:20047   */\n      gt\n        /* \"#utility.yul\":20010:20072   */\n      or\n        /* \"#utility.yul\":20007:20095   */\n      iszero\n      tag_479\n      jumpi\n        /* \"#utility.yul\":20075:20093   */\n      tag_480\n      tag_449\n      jump\t// in\n    tag_480:\n        /* \"#utility.yul\":20007:20095   */\n    tag_479:\n        /* \"#utility.yul\":20115:20125   */\n      dup1\n        /* \"#utility.yul\":20111:20113   */\n      0x40\n        /* \"#utility.yul\":20104:20126   */\n      mstore\n        /* \"#utility.yul\":19894:20132   */\n      pop\n        /* \"#utility.yul\":19851:20132   */\n      pop\n      pop\n      jump\t// out\n        /* \"#utility.yul\":20138:20318   */\n    tag_476:\n        /* \"#utility.yul\":20186:20263   */\n      0x4e487b7100000000000000000000000000000000000000000000000000000000\n        /* \"#utility.yul\":20183:20184   */\n      0x00\n        /* \"#utility.yul\":20176:20264   */\n      mstore\n        /* \"#utility.yul\":20283:20287   */\n      0x22\n        /* \"#utility.yul\":20280:20281   */\n      0x04\n        /* \"#utility.yul\":20273:20288   */\n      mstore\n        /* \"#utility.yul\":20307:20311   */\n      0x24\n        /* \"#utility.yul\":20304:20305   */\n      0x00\n        /* \"#utility.yul\":20297:20312   */\n      revert\n        /* \"#utility.yul\":20324:20504   */\n    tag_181:\n        /* \"#utility.yul\":20372:20449   */\n      0x4e487b7100000000000000000000000000000000000000000000000000000000\n        /* \"#utility.yul\":20369:20370   */\n      0x00\n        /* \"#utility.yul\":20362:20450   */\n      mstore\n        /* \"#utility.yul\":20469:20473   */\n      0x32\n        /* \"#utility.yul\":20466:20467   */\n      0x04\n        /* \"#utility.yul\":20459:20474   */\n      mstore\n        /* \"#utility.yul\":20493:20497   */\n      0x24\n        /* \"#utility.yul\":20490:20491   */\n      0x00\n        /* \"#utility.yul\":20483:20498   */\n      revert\n        /* \"#utility.yul\":20510:20690   */\n    tag_449:\n        /* \"#utility.yul\":20558:20635   */\n      0x4e487b7100000000000000000000000000000000000000000000000000000000\n        /* \"#utility.yul\":20555:20556   */\n      0x00\n        /* \"#utility.yul\":20548:20636   */\n      mstore\n        /* \"#utility.yul\":20655:20659   */\n      0x41\n        /* \"#utility.yul\":20652:20653   */\n      0x04\n        /* \"#utility.yul\":20645:20660   */\n      mstore\n        /* \"#utility.yul\":20679:20683   */\n      0x24\n        /* \"#utility.yul\":20676:20677   */\n      0x00\n        /* \"#utility.yul\":20669:20684   */\n      revert\n        /* \"#utility.yul\":20696:20813   */\n    tag_277:\n        /* \"#utility.yul\":20805:20806   */\n      0x00\n        /* \"#utility.yul\":20802:20803   */\n      dup1\n        /* \"#utility.yul\":20795:20807   */\n      revert\n        /* \"#utility.yul\":20819:20936   */\n    tag_271:\n        /* \"#utility.yul\":20928:20929   */\n      0x00\n        /* \"#utility.yul\":20925:20926   */\n      dup1\n        /* \"#utility.yul\":20918:20930   */\n      revert\n        /* \"#utility.yul\":20942:21059   */\n    tag_287:\n        /* \"#utility.yul\":21051:21052   */\n      0x00\n        /* \"#utility.yul\":21048:21049   */\n      dup1\n        /* \"#utility.yul\":21041:21053   */\n      revert\n        /* \"#utility.yul\":21065:21182   */\n    tag_317:\n        /* \"#utility.yul\":21174:21175   */\n      0x00\n        /* \"#utility.yul\":21171:21172   */\n      dup1\n        /* \"#utility.yul\":21164:21176   */\n      revert\n        /* \"#utility.yul\":21188:21305   */\n    tag_310:\n        /* \"#utility.yul\":21297:21298   */\n      0x00\n        /* \"#utility.yul\":21294:21295   */\n      dup1\n        /* \"#utility.yul\":21287:21299   */\n      revert\n        /* \"#utility.yul\":21311:21413   */\n    tag_392:\n        /* \"#utility.yul\":21352:21358   */\n      0x00\n        /* \"#utility.yul\":21403:21405   */\n      0x1f\n        /* \"#utility.yul\":21399:21406   */\n      not\n        /* \"#utility.yul\":21394:21396   */\n      0x1f\n        /* \"#utility.yul\":21387:21392   */\n      dup4\n        /* \"#utility.yul\":21383:21397   */\n      add\n        /* \"#utility.yul\":21379:21407   */\n      and\n        /* \"#utility.yul\":21369:21407   */\n      swap1\n      pop\n        /* \"#utility.yul\":21311:21413   */\n      swap2\n      swap1\n      pop\n      jump\t// out\n        /* \"#utility.yul\":21419:21541   */\n    tag_293:\n        /* \"#utility.yul\":21492:21516   */\n      tag_491\n        /* \"#utility.yul\":21510:21515   */\n      dup2\n        /* \"#utility.yul\":21492:21516   */\n      tag_369\n      jump\t// in\n    tag_491:\n        /* \"#utility.yul\":21485:21490   */\n      dup2\n        /* \"#utility.yul\":21482:21517   */\n      eq\n        /* \"#utility.yul\":21472:21535   */\n      tag_492\n      jumpi\n        /* \"#utility.yul\":21531:21532   */\n      0x00\n        /* \"#utility.yul\":21528:21529   */\n      dup1\n        /* \"#utility.yul\":21521:21533   */\n      revert\n        /* \"#utility.yul\":21472:21535   */\n    tag_492:\n        /* \"#utility.yul\":21419:21541   */\n      pop\n      jump\t// out\n        /* \"#utility.yul\":21547:21669   */\n    tag_306:\n        /* \"#utility.yul\":21620:21644   */\n      tag_494\n        /* \"#utility.yul\":21638:21643   */\n      dup2\n        /* \"#utility.yul\":21620:21644   */\n      tag_425\n      jump\t// in\n    tag_494:\n        /* \"#utility.yul\":21613:21618   */\n      dup2\n        /* \"#utility.yul\":21610:21645   */\n      eq\n        /* \"#utility.yul\":21600:21663   */\n      tag_495\n      jumpi\n        /* \"#utility.yul\":21659:21660   */\n      0x00\n        /* \"#utility.yul\":21656:21657   */\n      dup1\n        /* \"#utility.yul\":21649:21661   */\n      revert\n        /* \"#utility.yul\":21600:21663   */\n    tag_495:\n        /* \"#utility.yul\":21547:21669   */\n      pop\n      jump\t// out\n\n    auxdata: 0xa2646970667358221220aec513a0879134f2ae391b7917ad42ac8fa6203241087ba5d825c3ffa4f9208964736f6c63430008070033\n}\n",
				"bytecode": {
					"linkReferences": {},
					"object": "608060405234801561001057600080fd5b5061265f806100206000396000f3fe608060405234801561001057600080fd5b506004361061009e5760003560e01c80639dd9d0fd116100665780639dd9d0fd1461011f578063aac80d7a14610151578063ed2217ef1461016d578063f96e32f814610177578063fabce08f146101aa5761009e565b80633d984d0e146100a35780636212fa02146100bf57806372828388146100dd57806395ea3757146100f95780639d983a0114610103575b600080fd5b6100bd60048036038101906100b89190611d17565b6101b4565b005b6100c7610338565b6040516100d49190612360565b60405180910390f35b6100f760048036038101906100f29190611e95565b610384565b005b6101016105ec565b005b61011d60048036038101906101189190611dbe565b6106b1565b005b61013960048036038101906101349190611cea565b6107c5565b60405161014893929190612314565b60405180910390f35b61016b60048036038101906101669190611e95565b61113e565b005b6101756113ce565b005b610191600480360381019061018c9190611f9c565b61141d565b6040516101a194939291906122b3565b60405180910390f35b6101b26117f2565b005b6000803373ffffffffffffffffffffffffffffffffffffffff1673ffffffffffffffffffffffffffffffffffffffff168152602001908152602001600020600d01600080820160006102069190611969565b6001820160006102169190611969565b6002820160006102269190611969565b5050826000803373ffffffffffffffffffffffffffffffffffffffff1673ffffffffffffffffffffffffffffffffffffffff168152602001908152602001600020600d01600001908051906020019061028092919061198a565b50816000803373ffffffffffffffffffffffffffffffffffffffff1673ffffffffffffffffffffffffffffffffffffffff168152602001908152602001600020600d0160010190805190602001906102d992919061198a565b50806000803373ffffffffffffffffffffffffffffffffffffffff1673ffffffffffffffffffffffffffffffffffffffff168152602001908152602001600020600d01600201908051906020019061033292919061198a565b50505050565b60008060003373ffffffffffffffffffffffffffffffffffffffff1673ffffffffffffffffffffffffffffffffffffffff16815260200190815260200160002060100180549050905090565b6000803373ffffffffffffffffffffffffffffffffffffffff1673ffffffffffffffffffffffffffffffffffffffff168152602001908152602001600020600701600080820160006103d691906119ea565b6001820160006103e691906119ea565b6002820160006103f691906119ea565b60038201600061040691906119ea565b60048201600061041691906119ea565b60058201600061042691906119ea565b5050846000803373ffffffffffffffffffffffffffffffffffffffff1673ffffffffffffffffffffffffffffffffffffffff1681526020019081526020016000206007016001019080519060200190610480929190611a2a565b50836000803373ffffffffffffffffffffffffffffffffffffffff1673ffffffffffffffffffffffffffffffffffffffff16815260200190815260200160002060070160020190805190602001906104d9929190611a2a565b50826000803373ffffffffffffffffffffffffffffffffffffffff1673ffffffffffffffffffffffffffffffffffffffff1681526020019081526020016000206007016003019080519060200190610532929190611a2a565b50816000803373ffffffffffffffffffffffffffffffffffffffff1673ffffffffffffffffffffffffffffffffffffffff168152602001908152602001600020600701600201908051906020019061058b929190611a2a565b50806000803373ffffffffffffffffffffffffffffffffffffffff1673ffffffffffffffffffffffffffffffffffffffff16815260200190815260200160002060070160010190805190602001906105e4929190611a2a565b505050505050565b6000803373ffffffffffffffffffffffffffffffffffffffff1673ffffffffffffffffffffffffffffffffffffffff1681526020019081526020016000206000016000808201600061063e91906119ea565b6001820160006101000a81549073ffffffffffffffffffffffffffffffffffffffff021916905560028201600061067591906119ea565b60038201600061068591906119ea565b60048201600061069591906119ea565b6005820160006106a591906119ea565b60068201600090555050565b6106b9611ab0565b8481600001819052508381602001819052508281604001819052508181606001819052506000803373ffffffffffffffffffffffffffffffffffffffff1673ffffffffffffffffffffffffffffffffffffffff1681526020019081526020016000206010018190806001815401808255809150506001900390600052602060002090600402016000909190919091506000820151816000019080519060200190610764929190611a2a565b506020820151816001019080519060200190610781929190611a2a565b50604082015181600201908051906020019061079e929190611a2a565b5060608201518160030190805190602001906107bb929190611a2a565b5050505050505050565b6000602052806000526040600020600091509050806000016040518060e00160405290816000820180546107f8906124e1565b80601f0160208091040260200160405190810160405280929190818152602001828054610824906124e1565b80156108715780601f1061084657610100808354040283529160200191610871565b820191906000526020600020905b81548152906001019060200180831161085457829003601f168201915b505050505081526020016001820160009054906101000a900473ffffffffffffffffffffffffffffffffffffffff1673ffffffffffffffffffffffffffffffffffffffff1673ffffffffffffffffffffffffffffffffffffffff1681526020016002820180546108e0906124e1565b80601f016020809104026020016040519081016040528092919081815260200182805461090c906124e1565b80156109595780601f1061092e57610100808354040283529160200191610959565b820191906000526020600020905b81548152906001019060200180831161093c57829003601f168201915b50505050508152602001600382018054610972906124e1565b80601f016020809104026020016040519081016040528092919081815260200182805461099e906124e1565b80156109eb5780601f106109c0576101008083540402835291602001916109eb565b820191906000526020600020905b8154815290600101906020018083116109ce57829003601f168201915b50505050508152602001600482018054610a04906124e1565b80601f0160208091040260200160405190810160405280929190818152602001828054610a30906124e1565b8015610a7d5780601f10610a5257610100808354040283529160200191610a7d565b820191906000526020600020905b815481529060010190602001808311610a6057829003601f168201915b50505050508152602001600582018054610a96906124e1565b80601f0160208091040260200160405190810160405280929190818152602001828054610ac2906124e1565b8015610b0f5780601f10610ae457610100808354040283529160200191610b0f565b820191906000526020600020905b815481529060010190602001808311610af257829003601f168201915b5050505050815260200160068201548152505090806007016040518060c0016040529081600082018054610b42906124e1565b80601f0160208091040260200160405190810160405280929190818152602001828054610b6e906124e1565b8015610bbb5780601f10610b9057610100808354040283529160200191610bbb565b820191906000526020600020905b815481529060010190602001808311610b9e57829003601f168201915b50505050508152602001600182018054610bd4906124e1565b80601f0160208091040260200160405190810160405280929190818152602001828054610c00906124e1565b8015610c4d5780601f10610c2257610100808354040283529160200191610c4d565b820191906000526020600020905b815481529060010190602001808311610c3057829003601f168201915b50505050508152602001600282018054610c66906124e1565b80601f0160208091040260200160405190810160405280929190818152602001828054610c92906124e1565b8015610cdf5780601f10610cb457610100808354040283529160200191610cdf565b820191906000526020600020905b815481529060010190602001808311610cc257829003601f168201915b50505050508152602001600382018054610cf8906124e1565b80601f0160208091040260200160405190810160405280929190818152602001828054610d24906124e1565b8015610d715780601f10610d4657610100808354040283529160200191610d71565b820191906000526020600020905b815481529060010190602001808311610d5457829003601f168201915b50505050508152602001600482018054610d8a906124e1565b80601f0160208091040260200160405190810160405280929190818152602001828054610db6906124e1565b8015610e035780601f10610dd857610100808354040283529160200191610e03565b820191906000526020600020905b815481529060010190602001808311610de657829003601f168201915b50505050508152602001600582018054610e1c906124e1565b80601f0160208091040260200160405190810160405280929190818152602001828054610e48906124e1565b8015610e955780601f10610e6a57610100808354040283529160200191610e95565b820191906000526020600020905b815481529060010190602001808311610e7857829003601f168201915b5050505050815250509080600d0160405180606001604052908160008201805480602002602001604051908101604052809291908181526020016000905b82821015610f7f578382906000526020600020018054610ef2906124e1565b80601f0160208091040260200160405190810160405280929190818152602001828054610f1e906124e1565b8015610f6b5780601f10610f4057610100808354040283529160200191610f6b565b820191906000526020600020905b815481529060010190602001808311610f4e57829003601f168201915b505050505081526020019060010190610ed3565b50505050815260200160018201805480602002602001604051908101604052809291908181526020016000905b82821015611058578382906000526020600020018054610fcb906124e1565b80601f0160208091040260200160405190810160405280929190818152602001828054610ff7906124e1565b80156110445780601f1061101957610100808354040283529160200191611044565b820191906000526020600020905b81548152906001019060200180831161102757829003601f168201915b505050505081526020019060010190610fac565b50505050815260200160028201805480602002602001604051908101604052809291908181526020016000905b828210156111315783829060005260206000200180546110a4906124e1565b80601f01602080910402602001604051908101604052809291908181526020018280546110d0906124e1565b801561111d5780601f106110f25761010080835404028352916020019161111d565b820191906000526020600020905b81548152906001019060200180831161110057829003601f168201915b505050505081526020019060010190611085565b5050505081525050905083565b846000803373ffffffffffffffffffffffffffffffffffffffff1673ffffffffffffffffffffffffffffffffffffffff1681526020019081526020016000206000016002019080519060200190611196929190611a2a565b50836000803373ffffffffffffffffffffffffffffffffffffffff1673ffffffffffffffffffffffffffffffffffffffff16815260200190815260200160002060000160030190805190602001906111ef929190611a2a565b50826000803373ffffffffffffffffffffffffffffffffffffffff1673ffffffffffffffffffffffffffffffffffffffff1681526020019081526020016000206000016004019080519060200190611248929190611a2a565b50816000803373ffffffffffffffffffffffffffffffffffffffff1673ffffffffffffffffffffffffffffffffffffffff16815260200190815260200160002060000160050190805190602001906112a1929190611a2a565b50336000803373ffffffffffffffffffffffffffffffffffffffff1673ffffffffffffffffffffffffffffffffffffffff16815260200190815260200160002060000160010160006101000a81548173ffffffffffffffffffffffffffffffffffffffff021916908373ffffffffffffffffffffffffffffffffffffffff160217905550426000803373ffffffffffffffffffffffffffffffffffffffff1673ffffffffffffffffffffffffffffffffffffffff16815260200190815260200160002060000160060181905550806000803373ffffffffffffffffffffffffffffffffffffffff1673ffffffffffffffffffffffffffffffffffffffff16815260200190815260200160002060000160000190805190602001906113c6929190611a2a565b505050505050565b6000803373ffffffffffffffffffffffffffffffffffffffff1673ffffffffffffffffffffffffffffffffffffffff168152602001908152602001600020601001600061141b9190611ad8565b565b6060806060806000803373ffffffffffffffffffffffffffffffffffffffff1673ffffffffffffffffffffffffffffffffffffffff168152602001908152602001600020601001858154811061147657611475612573565b5b90600052602060002090600402016000016000803373ffffffffffffffffffffffffffffffffffffffff1673ffffffffffffffffffffffffffffffffffffffff16815260200190815260200160002060100186815481106114da576114d9612573565b5b90600052602060002090600402016001016000803373ffffffffffffffffffffffffffffffffffffffff1673ffffffffffffffffffffffffffffffffffffffff168152602001908152602001600020601001878154811061153e5761153d612573565b5b90600052602060002090600402016002016000803373ffffffffffffffffffffffffffffffffffffffff1673ffffffffffffffffffffffffffffffffffffffff16815260200190815260200160002060100188815481106115a2576115a1612573565b5b90600052602060002090600402016003018380546115bf906124e1565b80601f01602080910402602001604051908101604052809291908181526020018280546115eb906124e1565b80156116385780601f1061160d57610100808354040283529160200191611638565b820191906000526020600020905b81548152906001019060200180831161161b57829003601f168201915b5050505050935082805461164b906124e1565b80601f0160208091040260200160405190810160405280929190818152602001828054611677906124e1565b80156116c45780601f10611699576101008083540402835291602001916116c4565b820191906000526020600020905b8154815290600101906020018083116116a757829003601f168201915b505050505092508180546116d7906124e1565b80601f0160208091040260200160405190810160405280929190818152602001828054611703906124e1565b80156117505780601f1061172557610100808354040283529160200191611750565b820191906000526020600020905b81548152906001019060200180831161173357829003601f168201915b50505050509150808054611763906124e1565b80601f016020809104026020016040519081016040528092919081815260200182805461178f906124e1565b80156117dc5780601f106117b1576101008083540402835291602001916117dc565b820191906000526020600020905b8154815290600101906020018083116117bf57829003601f168201915b5050505050905093509350935093509193509193565b6000803373ffffffffffffffffffffffffffffffffffffffff1673ffffffffffffffffffffffffffffffffffffffff16815260200190815260200160002060008082016000808201600061184691906119ea565b6001820160006101000a81549073ffffffffffffffffffffffffffffffffffffffff021916905560028201600061187d91906119ea565b60038201600061188d91906119ea565b60048201600061189d91906119ea565b6005820160006118ad91906119ea565b6006820160009055505060078201600080820160006118cc91906119ea565b6001820160006118dc91906119ea565b6002820160006118ec91906119ea565b6003820160006118fc91906119ea565b60048201600061190c91906119ea565b60058201600061191c91906119ea565b5050600d8201600080820160006119339190611969565b6001820160006119439190611969565b6002820160006119539190611969565b50506010820160006119659190611ad8565b5050565b50805460008255906000526020600020908101906119879190611afc565b50565b8280548282559060005260206000209081019282156119d9579160200282015b828111156119d85782518290805190602001906119c8929190611a2a565b50916020019190600101906119aa565b5b5090506119e69190611afc565b5090565b5080546119f6906124e1565b6000825580601f10611a085750611a27565b601f016020900490600052602060002090810190611a269190611b20565b5b50565b828054611a36906124e1565b90600052602060002090601f016020900481019282611a585760008555611a9f565b82601f10611a7157805160ff1916838001178555611a9f565b82800160010185558215611a9f579182015b82811115611a9e578251825591602001919060010190611a83565b5b509050611aac9190611b20565b5090565b6040518060800160405280606081526020016060815260200160608152602001606081525090565b5080546000825560040290600052602060002090810190611af99190611b3d565b50565b5b80821115611b1c5760008181611b1391906119ea565b50600101611afd565b5090565b5b80821115611b39576000816000905550600101611b21565b5090565b5b80821115611b905760008082016000611b5791906119ea565b600182016000611b6791906119ea565b600282016000611b7791906119ea565b600382016000611b8791906119ea565b50600401611b3e565b5090565b6000611ba7611ba2846123a0565b61237b565b90508083825260208201905082856020860282011115611bca57611bc96125d6565b5b60005b85811015611c1857813567ffffffffffffffff811115611bf057611bef6125d1565b5b808601611bfd8982611ca7565b85526020850194506020840193505050600181019050611bcd565b5050509392505050565b6000611c35611c30846123cc565b61237b565b905082815260208101848484011115611c5157611c506125db565b5b611c5c84828561249f565b509392505050565b600081359050611c73816125fb565b92915050565b600082601f830112611c8e57611c8d6125d1565b5b8135611c9e848260208601611b94565b91505092915050565b600082601f830112611cbc57611cbb6125d1565b5b8135611ccc848260208601611c22565b91505092915050565b600081359050611ce481612612565b92915050565b600060208284031215611d0057611cff6125e5565b5b6000611d0e84828501611c64565b91505092915050565b600080600060608486031215611d3057611d2f6125e5565b5b600084013567ffffffffffffffff811115611d4e57611d4d6125e0565b5b611d5a86828701611c79565b935050602084013567ffffffffffffffff811115611d7b57611d7a6125e0565b5b611d8786828701611c79565b925050604084013567ffffffffffffffff811115611da857611da76125e0565b5b611db486828701611c79565b9150509250925092565b60008060008060808587031215611dd857611dd76125e5565b5b600085013567ffffffffffffffff811115611df657611df56125e0565b5b611e0287828801611ca7565b945050602085013567ffffffffffffffff811115611e2357611e226125e0565b5b611e2f87828801611ca7565b935050604085013567ffffffffffffffff811115611e5057611e4f6125e0565b5b611e5c87828801611ca7565b925050606085013567ffffffffffffffff811115611e7d57611e7c6125e0565b5b611e8987828801611ca7565b91505092959194509250565b600080600080600060a08688031215611eb157611eb06125e5565b5b600086013567ffffffffffffffff811115611ecf57611ece6125e0565b5b611edb88828901611ca7565b955050602086013567ffffffffffffffff811115611efc57611efb6125e0565b5b611f0888828901611ca7565b945050604086013567ffffffffffffffff811115611f2957611f286125e0565b5b611f3588828901611ca7565b935050606086013567ffffffffffffffff811115611f5657611f556125e0565b5b611f6288828901611ca7565b925050608086013567ffffffffffffffff811115611f8357611f826125e0565b5b611f8f88828901611ca7565b9150509295509295909350565b600060208284031215611fb257611fb16125e5565b5b6000611fc084828501611cd5565b91505092915050565b6000611fd58383612061565b905092915050565b611fe681612463565b82525050565b6000611ff78261240d565b6120018185612430565b935083602082028501612013856123fd565b8060005b8581101561204f57848403895281516120308582611fc9565b945061203b83612423565b925060208a01995050600181019050612017565b50829750879550505050505092915050565b600061206c82612418565b6120768185612441565b93506120868185602086016124ae565b61208f816125ea565b840191505092915050565b60006120a582612418565b6120af8185612452565b93506120bf8185602086016124ae565b6120c8816125ea565b840191505092915050565b600060c08301600083015184820360008601526120f08282612061565b9150506020830151848203602086015261210a8282612061565b915050604083015184820360408601526121248282612061565b9150506060830151848203606086015261213e8282612061565b915050608083015184820360808601526121588282612061565b91505060a083015184820360a08601526121728282612061565b9150508091505092915050565b600060e083016000830151848203600086015261219c8282612061565b91505060208301516121b16020860182611fdd565b50604083015184820360408601526121c98282612061565b915050606083015184820360608601526121e38282612061565b915050608083015184820360808601526121fd8282612061565b91505060a083015184820360a08601526122178282612061565b91505060c083015161222c60c0860182612295565b508091505092915050565b600060608301600083015184820360008601526122548282611fec565b9150506020830151848203602086015261226e8282611fec565b915050604083015184820360408601526122888282611fec565b9150508091505092915050565b61229e81612495565b82525050565b6122ad81612495565b82525050565b600060808201905081810360008301526122cd818761209a565b905081810360208301526122e1818661209a565b905081810360408301526122f5818561209a565b90508181036060830152612309818461209a565b905095945050505050565b6000606082019050818103600083015261232e818661217f565b9050818103602083015261234281856120d3565b905081810360408301526123568184612237565b9050949350505050565b600060208201905061237560008301846122a4565b92915050565b6000612385612396565b90506123918282612513565b919050565b6000604051905090565b600067ffffffffffffffff8211156123bb576123ba6125a2565b5b602082029050602081019050919050565b600067ffffffffffffffff8211156123e7576123e66125a2565b5b6123f0826125ea565b9050602081019050919050565b6000819050602082019050919050565b600081519050919050565b600081519050919050565b6000602082019050919050565b600082825260208201905092915050565b600082825260208201905092915050565b600082825260208201905092915050565b600061246e82612475565b9050919050565b600073ffffffffffffffffffffffffffffffffffffffff82169050919050565b6000819050919050565b82818337600083830152505050565b60005b838110156124cc5780820151818401526020810190506124b1565b838111156124db576000848401525b50505050565b600060028204905060018216806124f957607f821691505b6020821081141561250d5761250c612544565b5b50919050565b61251c826125ea565b810181811067ffffffffffffffff8211171561253b5761253a6125a2565b5b80604052505050565b7f4e487b7100000000000000000000000000000000000000000000000000000000600052602260045260246000fd5b7f4e487b7100000000000000000000000000000000000000000000000000000000600052603260045260246000fd5b7f4e487b7100000000000000000000000000000000000000000000000000000000600052604160045260246000fd5b600080fd5b600080fd5b600080fd5b600080fd5b600080fd5b6000601f19601f8301169050919050565b61260481612463565b811461260f57600080fd5b50565b61261b81612495565b811461262657600080fd5b5056fea2646970667358221220aec513a0879134f2ae391b7917ad42ac8fa6203241087ba5d825c3ffa4f9208964736f6c63430008070033",
					"opcodes": "PUSH1 0x80 PUSH1 0x40 MSTORE CALLVALUE DUP1 ISZERO PUSH2 0x10 JUMPI PUSH1 0x0 DUP1 REVERT JUMPDEST POP PUSH2 0x265F DUP1 PUSH2 0x20 PUSH1 0x0 CODECOPY PUSH1 0x0 RETURN INVALID PUSH1 0x80 PUSH1 0x40 MSTORE CALLVALUE DUP1 ISZERO PUSH2 0x10 JUMPI PUSH1 0x0 DUP1 REVERT JUMPDEST POP PUSH1 0x4 CALLDATASIZE LT PUSH2 0x9E JUMPI PUSH1 0x0 CALLDATALOAD PUSH1 0xE0 SHR DUP1 PUSH4 0x9DD9D0FD GT PUSH2 0x66 JUMPI DUP1 PUSH4 0x9DD9D0FD EQ PUSH2 0x11F JUMPI DUP1 PUSH4 0xAAC80D7A EQ PUSH2 0x151 JUMPI DUP1 PUSH4 0xED2217EF EQ PUSH2 0x16D JUMPI DUP1 PUSH4 0xF96E32F8 EQ PUSH2 0x177 JUMPI DUP1 PUSH4 0xFABCE08F EQ PUSH2 0x1AA JUMPI PUSH2 0x9E JUMP JUMPDEST DUP1 PUSH4 0x3D984D0E EQ PUSH2 0xA3 JUMPI DUP1 PUSH4 0x6212FA02 EQ PUSH2 0xBF JUMPI DUP1 PUSH4 0x72828388 EQ PUSH2 0xDD JUMPI DUP1 PUSH4 0x95EA3757 EQ PUSH2 0xF9 JUMPI DUP1 PUSH4 0x9D983A01 EQ PUSH2 0x103 JUMPI JUMPDEST PUSH1 0x0 DUP1 REVERT JUMPDEST PUSH2 0xBD PUSH1 0x4 DUP1 CALLDATASIZE SUB DUP2 ADD SWAP1 PUSH2 0xB8 SWAP2 SWAP1 PUSH2 0x1D17 JUMP JUMPDEST PUSH2 0x1B4 JUMP JUMPDEST STOP JUMPDEST PUSH2 0xC7 PUSH2 0x338 JUMP JUMPDEST PUSH1 0x40 MLOAD PUSH2 0xD4 SWAP2 SWAP1 PUSH2 0x2360 JUMP JUMPDEST PUSH1 0x40 MLOAD DUP1 SWAP2 SUB SWAP1 RETURN JUMPDEST PUSH2 0xF7 PUSH1 0x4 DUP1 CALLDATASIZE SUB DUP2 ADD SWAP1 PUSH2 0xF2 SWAP2 SWAP1 PUSH2 0x1E95 JUMP JUMPDEST PUSH2 0x384 JUMP JUMPDEST STOP JUMPDEST PUSH2 0x101 PUSH2 0x5EC JUMP JUMPDEST STOP JUMPDEST PUSH2 0x11D PUSH1 0x4 DUP1 CALLDATASIZE SUB DUP2 ADD SWAP1 PUSH2 0x118 SWAP2 SWAP1 PUSH2 0x1DBE JUMP JUMPDEST PUSH2 0x6B1 JUMP JUMPDEST STOP JUMPDEST PUSH2 0x139 PUSH1 0x4 DUP1 CALLDATASIZE SUB DUP2 ADD SWAP1 PUSH2 0x134 SWAP2 SWAP1 PUSH2 0x1CEA JUMP JUMPDEST PUSH2 0x7C5 JUMP JUMPDEST PUSH1 0x40 MLOAD PUSH2 0x148 SWAP4 SWAP3 SWAP2 SWAP1 PUSH2 0x2314 JUMP JUMPDEST PUSH1 0x40 MLOAD DUP1 SWAP2 SUB SWAP1 RETURN JUMPDEST PUSH2 0x16B PUSH1 0x4 DUP1 CALLDATASIZE SUB DUP2 ADD SWAP1 PUSH2 0x166 SWAP2 SWAP1 PUSH2 0x1E95 JUMP JUMPDEST PUSH2 0x113E JUMP JUMPDEST STOP JUMPDEST PUSH2 0x175 PUSH2 0x13CE JUMP JUMPDEST STOP JUMPDEST PUSH2 0x191 PUSH1 0x4 DUP1 CALLDATASIZE SUB DUP2 ADD SWAP1 PUSH2 0x18C SWAP2 SWAP1 PUSH2 0x1F9C JUMP JUMPDEST PUSH2 0x141D JUMP JUMPDEST PUSH1 0x40 MLOAD PUSH2 0x1A1 SWAP5 SWAP4 SWAP3 SWAP2 SWAP1 PUSH2 0x22B3 JUMP JUMPDEST PUSH1 0x40 MLOAD DUP1 SWAP2 SUB SWAP1 RETURN JUMPDEST PUSH2 0x1B2 PUSH2 0x17F2 JUMP JUMPDEST STOP JUMPDEST PUSH1 0x0 DUP1 CALLER PUSH20 0xFFFFFFFFFFFFFFFFFFFFFFFFFFFFFFFFFFFFFFFF AND PUSH20 0xFFFFFFFFFFFFFFFFFFFFFFFFFFFFFFFFFFFFFFFF AND DUP2 MSTORE PUSH1 0x20 ADD SWAP1 DUP2 MSTORE PUSH1 0x20 ADD PUSH1 0x0 KECCAK256 PUSH1 0xD ADD PUSH1 0x0 DUP1 DUP3 ADD PUSH1 0x0 PUSH2 0x206 SWAP2 SWAP1 PUSH2 0x1969 JUMP JUMPDEST PUSH1 0x1 DUP3 ADD PUSH1 0x0 PUSH2 0x216 SWAP2 SWAP1 PUSH2 0x1969 JUMP JUMPDEST PUSH1 0x2 DUP3 ADD PUSH1 0x0 PUSH2 0x226 SWAP2 SWAP1 PUSH2 0x1969 JUMP JUMPDEST POP POP DUP3 PUSH1 0x0 DUP1 CALLER PUSH20 0xFFFFFFFFFFFFFFFFFFFFFFFFFFFFFFFFFFFFFFFF AND PUSH20 0xFFFFFFFFFFFFFFFFFFFFFFFFFFFFFFFFFFFFFFFF AND DUP2 MSTORE PUSH1 0x20 ADD SWAP1 DUP2 MSTORE PUSH1 0x20 ADD PUSH1 0x0 KECCAK256 PUSH1 0xD ADD PUSH1 0x0 ADD SWAP1 DUP1 MLOAD SWAP1 PUSH1 0x20 ADD SWAP1 PUSH2 0x280 SWAP3 SWAP2 SWAP1 PUSH2 0x198A JUMP JUMPDEST POP DUP2 PUSH1 0x0 DUP1 CALLER PUSH20 0xFFFFFFFFFFFFFFFFFFFFFFFFFFFFFFFFFFFFFFFF AND PUSH20 0xFFFFFFFFFFFFFFFFFFFFFFFFFFFFFFFFFFFFFFFF AND DUP2 MSTORE PUSH1 0x20 ADD SWAP1 DUP2 MSTORE PUSH1 0x20 ADD PUSH1 0x0 KECCAK256 PUSH1 0xD ADD PUSH1 0x1 ADD SWAP1 DUP1 MLOAD SWAP1 PUSH1 0x20 ADD SWAP1 PUSH2 0x2D9 SWAP3 SWAP2 SWAP1 PUSH2 0x198A JUMP JUMPDEST POP DUP1 PUSH1 0x0 DUP1 CALLER PUSH20 0xFFFFFFFFFFFFFFFFFFFFFFFFFFFFFFFFFFFFFFFF AND PUSH20 0xFFFFFFFFFFFFFFFFFFFFFFFFFFFFFFFFFFFFFFFF AND DUP2 MSTORE PUSH1 0x20 ADD SWAP1 DUP2 MSTORE PUSH1 0x20 ADD PUSH1 0x0 KECCAK256 PUSH1 0xD ADD PUSH1 0x2 ADD SWAP1 DUP1 MLOAD SWAP1 PUSH1 0x20 ADD SWAP1 PUSH2 0x332 SWAP3 SWAP2 SWAP1 PUSH2 0x198A JUMP JUMPDEST POP POP POP POP JUMP JUMPDEST PUSH1 0x0 DUP1 PUSH1 0x0 CALLER PUSH20 0xFFFFFFFFFFFFFFFFFFFFFFFFFFFFFFFFFFFFFFFF AND PUSH20 0xFFFFFFFFFFFFFFFFFFFFFFFFFFFFFFFFFFFFFFFF AND DUP2 MSTORE PUSH1 0x20 ADD SWAP1 DUP2 MSTORE PUSH1 0x20 ADD PUSH1 0x0 KECCAK256 PUSH1 0x10 ADD DUP1 SLOAD SWAP1 POP SWAP1 POP SWAP1 JUMP JUMPDEST PUSH1 0x0 DUP1 CALLER PUSH20 0xFFFFFFFFFFFFFFFFFFFFFFFFFFFFFFFFFFFFFFFF AND PUSH20 0xFFFFFFFFFFFFFFFFFFFFFFFFFFFFFFFFFFFFFFFF AND DUP2 MSTORE PUSH1 0x20 ADD SWAP1 DUP2 MSTORE PUSH1 0x20 ADD PUSH1 0x0 KECCAK256 PUSH1 0x7 ADD PUSH1 0x0 DUP1 DUP3 ADD PUSH1 0x0 PUSH2 0x3D6 SWAP2 SWAP1 PUSH2 0x19EA JUMP JUMPDEST PUSH1 0x1 DUP3 ADD PUSH1 0x0 PUSH2 0x3E6 SWAP2 SWAP1 PUSH2 0x19EA JUMP JUMPDEST PUSH1 0x2 DUP3 ADD PUSH1 0x0 PUSH2 0x3F6 SWAP2 SWAP1 PUSH2 0x19EA JUMP JUMPDEST PUSH1 0x3 DUP3 ADD PUSH1 0x0 PUSH2 0x406 SWAP2 SWAP1 PUSH2 0x19EA JUMP JUMPDEST PUSH1 0x4 DUP3 ADD PUSH1 0x0 PUSH2 0x416 SWAP2 SWAP1 PUSH2 0x19EA JUMP JUMPDEST PUSH1 0x5 DUP3 ADD PUSH1 0x0 PUSH2 0x426 SWAP2 SWAP1 PUSH2 0x19EA JUMP JUMPDEST POP POP DUP5 PUSH1 0x0 DUP1 CALLER PUSH20 0xFFFFFFFFFFFFFFFFFFFFFFFFFFFFFFFFFFFFFFFF AND PUSH20 0xFFFFFFFFFFFFFFFFFFFFFFFFFFFFFFFFFFFFFFFF AND DUP2 MSTORE PUSH1 0x20 ADD SWAP1 DUP2 MSTORE PUSH1 0x20 ADD PUSH1 0x0 KECCAK256 PUSH1 0x7 ADD PUSH1 0x1 ADD SWAP1 DUP1 MLOAD SWAP1 PUSH1 0x20 ADD SWAP1 PUSH2 0x480 SWAP3 SWAP2 SWAP1 PUSH2 0x1A2A JUMP JUMPDEST POP DUP4 PUSH1 0x0 DUP1 CALLER PUSH20 0xFFFFFFFFFFFFFFFFFFFFFFFFFFFFFFFFFFFFFFFF AND PUSH20 0xFFFFFFFFFFFFFFFFFFFFFFFFFFFFFFFFFFFFFFFF AND DUP2 MSTORE PUSH1 0x20 ADD SWAP1 DUP2 MSTORE PUSH1 0x20 ADD PUSH1 0x0 KECCAK256 PUSH1 0x7 ADD PUSH1 0x2 ADD SWAP1 DUP1 MLOAD SWAP1 PUSH1 0x20 ADD SWAP1 PUSH2 0x4D9 SWAP3 SWAP2 SWAP1 PUSH2 0x1A2A JUMP JUMPDEST POP DUP3 PUSH1 0x0 DUP1 CALLER PUSH20 0xFFFFFFFFFFFFFFFFFFFFFFFFFFFFFFFFFFFFFFFF AND PUSH20 0xFFFFFFFFFFFFFFFFFFFFFFFFFFFFFFFFFFFFFFFF AND DUP2 MSTORE PUSH1 0x20 ADD SWAP1 DUP2 MSTORE PUSH1 0x20 ADD PUSH1 0x0 KECCAK256 PUSH1 0x7 ADD PUSH1 0x3 ADD SWAP1 DUP1 MLOAD SWAP1 PUSH1 0x20 ADD SWAP1 PUSH2 0x532 SWAP3 SWAP2 SWAP1 PUSH2 0x1A2A JUMP JUMPDEST POP DUP2 PUSH1 0x0 DUP1 CALLER PUSH20 0xFFFFFFFFFFFFFFFFFFFFFFFFFFFFFFFFFFFFFFFF AND PUSH20 0xFFFFFFFFFFFFFFFFFFFFFFFFFFFFFFFFFFFFFFFF AND DUP2 MSTORE PUSH1 0x20 ADD SWAP1 DUP2 MSTORE PUSH1 0x20 ADD PUSH1 0x0 KECCAK256 PUSH1 0x7 ADD PUSH1 0x2 ADD SWAP1 DUP1 MLOAD SWAP1 PUSH1 0x20 ADD SWAP1 PUSH2 0x58B SWAP3 SWAP2 SWAP1 PUSH2 0x1A2A JUMP JUMPDEST POP DUP1 PUSH1 0x0 DUP1 CALLER PUSH20 0xFFFFFFFFFFFFFFFFFFFFFFFFFFFFFFFFFFFFFFFF AND PUSH20 0xFFFFFFFFFFFFFFFFFFFFFFFFFFFFFFFFFFFFFFFF AND DUP2 MSTORE PUSH1 0x20 ADD SWAP1 DUP2 MSTORE PUSH1 0x20 ADD PUSH1 0x0 KECCAK256 PUSH1 0x7 ADD PUSH1 0x1 ADD SWAP1 DUP1 MLOAD SWAP1 PUSH1 0x20 ADD SWAP1 PUSH2 0x5E4 SWAP3 SWAP2 SWAP1 PUSH2 0x1A2A JUMP JUMPDEST POP POP POP POP POP POP JUMP JUMPDEST PUSH1 0x0 DUP1 CALLER PUSH20 0xFFFFFFFFFFFFFFFFFFFFFFFFFFFFFFFFFFFFFFFF AND PUSH20 0xFFFFFFFFFFFFFFFFFFFFFFFFFFFFFFFFFFFFFFFF AND DUP2 MSTORE PUSH1 0x20 ADD SWAP1 DUP2 MSTORE PUSH1 0x20 ADD PUSH1 0x0 KECCAK256 PUSH1 0x0 ADD PUSH1 0x0 DUP1 DUP3 ADD PUSH1 0x0 PUSH2 0x63E SWAP2 SWAP1 PUSH2 0x19EA JUMP JUMPDEST PUSH1 0x1 DUP3 ADD PUSH1 0x0 PUSH2 0x100 EXP DUP2 SLOAD SWAP1 PUSH20 0xFFFFFFFFFFFFFFFFFFFFFFFFFFFFFFFFFFFFFFFF MUL NOT AND SWAP1 SSTORE PUSH1 0x2 DUP3 ADD PUSH1 0x0 PUSH2 0x675 SWAP2 SWAP1 PUSH2 0x19EA JUMP JUMPDEST PUSH1 0x3 DUP3 ADD PUSH1 0x0 PUSH2 0x685 SWAP2 SWAP1 PUSH2 0x19EA JUMP JUMPDEST PUSH1 0x4 DUP3 ADD PUSH1 0x0 PUSH2 0x695 SWAP2 SWAP1 PUSH2 0x19EA JUMP JUMPDEST PUSH1 0x5 DUP3 ADD PUSH1 0x0 PUSH2 0x6A5 SWAP2 SWAP1 PUSH2 0x19EA JUMP JUMPDEST PUSH1 0x6 DUP3 ADD PUSH1 0x0 SWAP1 SSTORE POP POP JUMP JUMPDEST PUSH2 0x6B9 PUSH2 0x1AB0 JUMP JUMPDEST DUP5 DUP2 PUSH1 0x0 ADD DUP2 SWAP1 MSTORE POP DUP4 DUP2 PUSH1 0x20 ADD DUP2 SWAP1 MSTORE POP DUP3 DUP2 PUSH1 0x40 ADD DUP2 SWAP1 MSTORE POP DUP2 DUP2 PUSH1 0x60 ADD DUP2 SWAP1 MSTORE POP PUSH1 0x0 DUP1 CALLER PUSH20 0xFFFFFFFFFFFFFFFFFFFFFFFFFFFFFFFFFFFFFFFF AND PUSH20 0xFFFFFFFFFFFFFFFFFFFFFFFFFFFFFFFFFFFFFFFF AND DUP2 MSTORE PUSH1 0x20 ADD SWAP1 DUP2 MSTORE PUSH1 0x20 ADD PUSH1 0x0 KECCAK256 PUSH1 0x10 ADD DUP2 SWAP1 DUP1 PUSH1 0x1 DUP2 SLOAD ADD DUP1 DUP3 SSTORE DUP1 SWAP2 POP POP PUSH1 0x1 SWAP1 SUB SWAP1 PUSH1 0x0 MSTORE PUSH1 0x20 PUSH1 0x0 KECCAK256 SWAP1 PUSH1 0x4 MUL ADD PUSH1 0x0 SWAP1 SWAP2 SWAP1 SWAP2 SWAP1 SWAP2 POP PUSH1 0x0 DUP3 ADD MLOAD DUP2 PUSH1 0x0 ADD SWAP1 DUP1 MLOAD SWAP1 PUSH1 0x20 ADD SWAP1 PUSH2 0x764 SWAP3 SWAP2 SWAP1 PUSH2 0x1A2A JUMP JUMPDEST POP PUSH1 0x20 DUP3 ADD MLOAD DUP2 PUSH1 0x1 ADD SWAP1 DUP1 MLOAD SWAP1 PUSH1 0x20 ADD SWAP1 PUSH2 0x781 SWAP3 SWAP2 SWAP1 PUSH2 0x1A2A JUMP JUMPDEST POP PUSH1 0x40 DUP3 ADD MLOAD DUP2 PUSH1 0x2 ADD SWAP1 DUP1 MLOAD SWAP1 PUSH1 0x20 ADD SWAP1 PUSH2 0x79E SWAP3 SWAP2 SWAP1 PUSH2 0x1A2A JUMP JUMPDEST POP PUSH1 0x60 DUP3 ADD MLOAD DUP2 PUSH1 0x3 ADD SWAP1 DUP1 MLOAD SWAP1 PUSH1 0x20 ADD SWAP1 PUSH2 0x7BB SWAP3 SWAP2 SWAP1 PUSH2 0x1A2A JUMP JUMPDEST POP POP POP POP POP POP POP POP JUMP JUMPDEST PUSH1 0x0 PUSH1 0x20 MSTORE DUP1 PUSH1 0x0 MSTORE PUSH1 0x40 PUSH1 0x0 KECCAK256 PUSH1 0x0 SWAP2 POP SWAP1 POP DUP1 PUSH1 0x0 ADD PUSH1 0x40 MLOAD DUP1 PUSH1 0xE0 ADD PUSH1 0x40 MSTORE SWAP1 DUP2 PUSH1 0x0 DUP3 ADD DUP1 SLOAD PUSH2 0x7F8 SWAP1 PUSH2 0x24E1 JUMP JUMPDEST DUP1 PUSH1 0x1F ADD PUSH1 0x20 DUP1 SWAP2 DIV MUL PUSH1 0x20 ADD PUSH1 0x40 MLOAD SWAP1 DUP2 ADD PUSH1 0x40 MSTORE DUP1 SWAP3 SWAP2 SWAP1 DUP2 DUP2 MSTORE PUSH1 0x20 ADD DUP3 DUP1 SLOAD PUSH2 0x824 SWAP1 PUSH2 0x24E1 JUMP JUMPDEST DUP1 ISZERO PUSH2 0x871 JUMPI DUP1 PUSH1 0x1F LT PUSH2 0x846 JUMPI PUSH2 0x100 DUP1 DUP4 SLOAD DIV MUL DUP4 MSTORE SWAP2 PUSH1 0x20 ADD SWAP2 PUSH2 0x871 JUMP JUMPDEST DUP3 ADD SWAP2 SWAP1 PUSH1 0x0 MSTORE PUSH1 0x20 PUSH1 0x0 KECCAK256 SWAP1 JUMPDEST DUP2 SLOAD DUP2 MSTORE SWAP1 PUSH1 0x1 ADD SWAP1 PUSH1 0x20 ADD DUP1 DUP4 GT PUSH2 0x854 JUMPI DUP3 SWAP1 SUB PUSH1 0x1F AND DUP3 ADD SWAP2 JUMPDEST POP POP POP POP POP DUP2 MSTORE PUSH1 0x20 ADD PUSH1 0x1 DUP3 ADD PUSH1 0x0 SWAP1 SLOAD SWAP1 PUSH2 0x100 EXP SWAP1 DIV PUSH20 0xFFFFFFFFFFFFFFFFFFFFFFFFFFFFFFFFFFFFFFFF AND PUSH20 0xFFFFFFFFFFFFFFFFFFFFFFFFFFFFFFFFFFFFFFFF AND PUSH20 0xFFFFFFFFFFFFFFFFFFFFFFFFFFFFFFFFFFFFFFFF AND DUP2 MSTORE PUSH1 0x20 ADD PUSH1 0x2 DUP3 ADD DUP1 SLOAD PUSH2 0x8E0 SWAP1 PUSH2 0x24E1 JUMP JUMPDEST DUP1 PUSH1 0x1F ADD PUSH1 0x20 DUP1 SWAP2 DIV MUL PUSH1 0x20 ADD PUSH1 0x40 MLOAD SWAP1 DUP2 ADD PUSH1 0x40 MSTORE DUP1 SWAP3 SWAP2 SWAP1 DUP2 DUP2 MSTORE PUSH1 0x20 ADD DUP3 DUP1 SLOAD PUSH2 0x90C SWAP1 PUSH2 0x24E1 JUMP JUMPDEST DUP1 ISZERO PUSH2 0x959 JUMPI DUP1 PUSH1 0x1F LT PUSH2 0x92E JUMPI PUSH2 0x100 DUP1 DUP4 SLOAD DIV MUL DUP4 MSTORE SWAP2 PUSH1 0x20 ADD SWAP2 PUSH2 0x959 JUMP JUMPDEST DUP3 ADD SWAP2 SWAP1 PUSH1 0x0 MSTORE PUSH1 0x20 PUSH1 0x0 KECCAK256 SWAP1 JUMPDEST DUP2 SLOAD DUP2 MSTORE SWAP1 PUSH1 0x1 ADD SWAP1 PUSH1 0x20 ADD DUP1 DUP4 GT PUSH2 0x93C JUMPI DUP3 SWAP1 SUB PUSH1 0x1F AND DUP3 ADD SWAP2 JUMPDEST POP POP POP POP POP DUP2 MSTORE PUSH1 0x20 ADD PUSH1 0x3 DUP3 ADD DUP1 SLOAD PUSH2 0x972 SWAP1 PUSH2 0x24E1 JUMP JUMPDEST DUP1 PUSH1 0x1F ADD PUSH1 0x20 DUP1 SWAP2 DIV MUL PUSH1 0x20 ADD PUSH1 0x40 MLOAD SWAP1 DUP2 ADD PUSH1 0x40 MSTORE DUP1 SWAP3 SWAP2 SWAP1 DUP2 DUP2 MSTORE PUSH1 0x20 ADD DUP3 DUP1 SLOAD PUSH2 0x99E SWAP1 PUSH2 0x24E1 JUMP JUMPDEST DUP1 ISZERO PUSH2 0x9EB JUMPI DUP1 PUSH1 0x1F LT PUSH2 0x9C0 JUMPI PUSH2 0x100 DUP1 DUP4 SLOAD DIV MUL DUP4 MSTORE SWAP2 PUSH1 0x20 ADD SWAP2 PUSH2 0x9EB JUMP JUMPDEST DUP3 ADD SWAP2 SWAP1 PUSH1 0x0 MSTORE PUSH1 0x20 PUSH1 0x0 KECCAK256 SWAP1 JUMPDEST DUP2 SLOAD DUP2 MSTORE SWAP1 PUSH1 0x1 ADD SWAP1 PUSH1 0x20 ADD DUP1 DUP4 GT PUSH2 0x9CE JUMPI DUP3 SWAP1 SUB PUSH1 0x1F AND DUP3 ADD SWAP2 JUMPDEST POP POP POP POP POP DUP2 MSTORE PUSH1 0x20 ADD PUSH1 0x4 DUP3 ADD DUP1 SLOAD PUSH2 0xA04 SWAP1 PUSH2 0x24E1 JUMP JUMPDEST DUP1 PUSH1 0x1F ADD PUSH1 0x20 DUP1 SWAP2 DIV MUL PUSH1 0x20 ADD PUSH1 0x40 MLOAD SWAP1 DUP2 ADD PUSH1 0x40 MSTORE DUP1 SWAP3 SWAP2 SWAP1 DUP2 DUP2 MSTORE PUSH1 0x20 ADD DUP3 DUP1 SLOAD PUSH2 0xA30 SWAP1 PUSH2 0x24E1 JUMP JUMPDEST DUP1 ISZERO PUSH2 0xA7D JUMPI DUP1 PUSH1 0x1F LT PUSH2 0xA52 JUMPI PUSH2 0x100 DUP1 DUP4 SLOAD DIV MUL DUP4 MSTORE SWAP2 PUSH1 0x20 ADD SWAP2 PUSH2 0xA7D JUMP JUMPDEST DUP3 ADD SWAP2 SWAP1 PUSH1 0x0 MSTORE PUSH1 0x20 PUSH1 0x0 KECCAK256 SWAP1 JUMPDEST DUP2 SLOAD DUP2 MSTORE SWAP1 PUSH1 0x1 ADD SWAP1 PUSH1 0x20 ADD DUP1 DUP4 GT PUSH2 0xA60 JUMPI DUP3 SWAP1 SUB PUSH1 0x1F AND DUP3 ADD SWAP2 JUMPDEST POP POP POP POP POP DUP2 MSTORE PUSH1 0x20 ADD PUSH1 0x5 DUP3 ADD DUP1 SLOAD PUSH2 0xA96 SWAP1 PUSH2 0x24E1 JUMP JUMPDEST DUP1 PUSH1 0x1F ADD PUSH1 0x20 DUP1 SWAP2 DIV MUL PUSH1 0x20 ADD PUSH1 0x40 MLOAD SWAP1 DUP2 ADD PUSH1 0x40 MSTORE DUP1 SWAP3 SWAP2 SWAP1 DUP2 DUP2 MSTORE PUSH1 0x20 ADD DUP3 DUP1 SLOAD PUSH2 0xAC2 SWAP1 PUSH2 0x24E1 JUMP JUMPDEST DUP1 ISZERO PUSH2 0xB0F JUMPI DUP1 PUSH1 0x1F LT PUSH2 0xAE4 JUMPI PUSH2 0x100 DUP1 DUP4 SLOAD DIV MUL DUP4 MSTORE SWAP2 PUSH1 0x20 ADD SWAP2 PUSH2 0xB0F JUMP JUMPDEST DUP3 ADD SWAP2 SWAP1 PUSH1 0x0 MSTORE PUSH1 0x20 PUSH1 0x0 KECCAK256 SWAP1 JUMPDEST DUP2 SLOAD DUP2 MSTORE SWAP1 PUSH1 0x1 ADD SWAP1 PUSH1 0x20 ADD DUP1 DUP4 GT PUSH2 0xAF2 JUMPI DUP3 SWAP1 SUB PUSH1 0x1F AND DUP3 ADD SWAP2 JUMPDEST POP POP POP POP POP DUP2 MSTORE PUSH1 0x20 ADD PUSH1 0x6 DUP3 ADD SLOAD DUP2 MSTORE POP POP SWAP1 DUP1 PUSH1 0x7 ADD PUSH1 0x40 MLOAD DUP1 PUSH1 0xC0 ADD PUSH1 0x40 MSTORE SWAP1 DUP2 PUSH1 0x0 DUP3 ADD DUP1 SLOAD PUSH2 0xB42 SWAP1 PUSH2 0x24E1 JUMP JUMPDEST DUP1 PUSH1 0x1F ADD PUSH1 0x20 DUP1 SWAP2 DIV MUL PUSH1 0x20 ADD PUSH1 0x40 MLOAD SWAP1 DUP2 ADD PUSH1 0x40 MSTORE DUP1 SWAP3 SWAP2 SWAP1 DUP2 DUP2 MSTORE PUSH1 0x20 ADD DUP3 DUP1 SLOAD PUSH2 0xB6E SWAP1 PUSH2 0x24E1 JUMP JUMPDEST DUP1 ISZERO PUSH2 0xBBB JUMPI DUP1 PUSH1 0x1F LT PUSH2 0xB90 JUMPI PUSH2 0x100 DUP1 DUP4 SLOAD DIV MUL DUP4 MSTORE SWAP2 PUSH1 0x20 ADD SWAP2 PUSH2 0xBBB JUMP JUMPDEST DUP3 ADD SWAP2 SWAP1 PUSH1 0x0 MSTORE PUSH1 0x20 PUSH1 0x0 KECCAK256 SWAP1 JUMPDEST DUP2 SLOAD DUP2 MSTORE SWAP1 PUSH1 0x1 ADD SWAP1 PUSH1 0x20 ADD DUP1 DUP4 GT PUSH2 0xB9E JUMPI DUP3 SWAP1 SUB PUSH1 0x1F AND DUP3 ADD SWAP2 JUMPDEST POP POP POP POP POP DUP2 MSTORE PUSH1 0x20 ADD PUSH1 0x1 DUP3 ADD DUP1 SLOAD PUSH2 0xBD4 SWAP1 PUSH2 0x24E1 JUMP JUMPDEST DUP1 PUSH1 0x1F ADD PUSH1 0x20 DUP1 SWAP2 DIV MUL PUSH1 0x20 ADD PUSH1 0x40 MLOAD SWAP1 DUP2 ADD PUSH1 0x40 MSTORE DUP1 SWAP3 SWAP2 SWAP1 DUP2 DUP2 MSTORE PUSH1 0x20 ADD DUP3 DUP1 SLOAD PUSH2 0xC00 SWAP1 PUSH2 0x24E1 JUMP JUMPDEST DUP1 ISZERO PUSH2 0xC4D JUMPI DUP1 PUSH1 0x1F LT PUSH2 0xC22 JUMPI PUSH2 0x100 DUP1 DUP4 SLOAD DIV MUL DUP4 MSTORE SWAP2 PUSH1 0x20 ADD SWAP2 PUSH2 0xC4D JUMP JUMPDEST DUP3 ADD SWAP2 SWAP1 PUSH1 0x0 MSTORE PUSH1 0x20 PUSH1 0x0 KECCAK256 SWAP1 JUMPDEST DUP2 SLOAD DUP2 MSTORE SWAP1 PUSH1 0x1 ADD SWAP1 PUSH1 0x20 ADD DUP1 DUP4 GT PUSH2 0xC30 JUMPI DUP3 SWAP1 SUB PUSH1 0x1F AND DUP3 ADD SWAP2 JUMPDEST POP POP POP POP POP DUP2 MSTORE PUSH1 0x20 ADD PUSH1 0x2 DUP3 ADD DUP1 SLOAD PUSH2 0xC66 SWAP1 PUSH2 0x24E1 JUMP JUMPDEST DUP1 PUSH1 0x1F ADD PUSH1 0x20 DUP1 SWAP2 DIV MUL PUSH1 0x20 ADD PUSH1 0x40 MLOAD SWAP1 DUP2 ADD PUSH1 0x40 MSTORE DUP1 SWAP3 SWAP2 SWAP1 DUP2 DUP2 MSTORE PUSH1 0x20 ADD DUP3 DUP1 SLOAD PUSH2 0xC92 SWAP1 PUSH2 0x24E1 JUMP JUMPDEST DUP1 ISZERO PUSH2 0xCDF JUMPI DUP1 PUSH1 0x1F LT PUSH2 0xCB4 JUMPI PUSH2 0x100 DUP1 DUP4 SLOAD DIV MUL DUP4 MSTORE SWAP2 PUSH1 0x20 ADD SWAP2 PUSH2 0xCDF JUMP JUMPDEST DUP3 ADD SWAP2 SWAP1 PUSH1 0x0 MSTORE PUSH1 0x20 PUSH1 0x0 KECCAK256 SWAP1 JUMPDEST DUP2 SLOAD DUP2 MSTORE SWAP1 PUSH1 0x1 ADD SWAP1 PUSH1 0x20 ADD DUP1 DUP4 GT PUSH2 0xCC2 JUMPI DUP3 SWAP1 SUB PUSH1 0x1F AND DUP3 ADD SWAP2 JUMPDEST POP POP POP POP POP DUP2 MSTORE PUSH1 0x20 ADD PUSH1 0x3 DUP3 ADD DUP1 SLOAD PUSH2 0xCF8 SWAP1 PUSH2 0x24E1 JUMP JUMPDEST DUP1 PUSH1 0x1F ADD PUSH1 0x20 DUP1 SWAP2 DIV MUL PUSH1 0x20 ADD PUSH1 0x40 MLOAD SWAP1 DUP2 ADD PUSH1 0x40 MSTORE DUP1 SWAP3 SWAP2 SWAP1 DUP2 DUP2 MSTORE PUSH1 0x20 ADD DUP3 DUP1 SLOAD PUSH2 0xD24 SWAP1 PUSH2 0x24E1 JUMP JUMPDEST DUP1 ISZERO PUSH2 0xD71 JUMPI DUP1 PUSH1 0x1F LT PUSH2 0xD46 JUMPI PUSH2 0x100 DUP1 DUP4 SLOAD DIV MUL DUP4 MSTORE SWAP2 PUSH1 0x20 ADD SWAP2 PUSH2 0xD71 JUMP JUMPDEST DUP3 ADD SWAP2 SWAP1 PUSH1 0x0 MSTORE PUSH1 0x20 PUSH1 0x0 KECCAK256 SWAP1 JUMPDEST DUP2 SLOAD DUP2 MSTORE SWAP1 PUSH1 0x1 ADD SWAP1 PUSH1 0x20 ADD DUP1 DUP4 GT PUSH2 0xD54 JUMPI DUP3 SWAP1 SUB PUSH1 0x1F AND DUP3 ADD SWAP2 JUMPDEST POP POP POP POP POP DUP2 MSTORE PUSH1 0x20 ADD PUSH1 0x4 DUP3 ADD DUP1 SLOAD PUSH2 0xD8A SWAP1 PUSH2 0x24E1 JUMP JUMPDEST DUP1 PUSH1 0x1F ADD PUSH1 0x20 DUP1 SWAP2 DIV MUL PUSH1 0x20 ADD PUSH1 0x40 MLOAD SWAP1 DUP2 ADD PUSH1 0x40 MSTORE DUP1 SWAP3 SWAP2 SWAP1 DUP2 DUP2 MSTORE PUSH1 0x20 ADD DUP3 DUP1 SLOAD PUSH2 0xDB6 SWAP1 PUSH2 0x24E1 JUMP JUMPDEST DUP1 ISZERO PUSH2 0xE03 JUMPI DUP1 PUSH1 0x1F LT PUSH2 0xDD8 JUMPI PUSH2 0x100 DUP1 DUP4 SLOAD DIV MUL DUP4 MSTORE SWAP2 PUSH1 0x20 ADD SWAP2 PUSH2 0xE03 JUMP JUMPDEST DUP3 ADD SWAP2 SWAP1 PUSH1 0x0 MSTORE PUSH1 0x20 PUSH1 0x0 KECCAK256 SWAP1 JUMPDEST DUP2 SLOAD DUP2 MSTORE SWAP1 PUSH1 0x1 ADD SWAP1 PUSH1 0x20 ADD DUP1 DUP4 GT PUSH2 0xDE6 JUMPI DUP3 SWAP1 SUB PUSH1 0x1F AND DUP3 ADD SWAP2 JUMPDEST POP POP POP POP POP DUP2 MSTORE PUSH1 0x20 ADD PUSH1 0x5 DUP3 ADD DUP1 SLOAD PUSH2 0xE1C SWAP1 PUSH2 0x24E1 JUMP JUMPDEST DUP1 PUSH1 0x1F ADD PUSH1 0x20 DUP1 SWAP2 DIV MUL PUSH1 0x20 ADD PUSH1 0x40 MLOAD SWAP1 DUP2 ADD PUSH1 0x40 MSTORE DUP1 SWAP3 SWAP2 SWAP1 DUP2 DUP2 MSTORE PUSH1 0x20 ADD DUP3 DUP1 SLOAD PUSH2 0xE48 SWAP1 PUSH2 0x24E1 JUMP JUMPDEST DUP1 ISZERO PUSH2 0xE95 JUMPI DUP1 PUSH1 0x1F LT PUSH2 0xE6A JUMPI PUSH2 0x100 DUP1 DUP4 SLOAD DIV MUL DUP4 MSTORE SWAP2 PUSH1 0x20 ADD SWAP2 PUSH2 0xE95 JUMP JUMPDEST DUP3 ADD SWAP2 SWAP1 PUSH1 0x0 MSTORE PUSH1 0x20 PUSH1 0x0 KECCAK256 SWAP1 JUMPDEST DUP2 SLOAD DUP2 MSTORE SWAP1 PUSH1 0x1 ADD SWAP1 PUSH1 0x20 ADD DUP1 DUP4 GT PUSH2 0xE78 JUMPI DUP3 SWAP1 SUB PUSH1 0x1F AND DUP3 ADD SWAP2 JUMPDEST POP POP POP POP POP DUP2 MSTORE POP POP SWAP1 DUP1 PUSH1 0xD ADD PUSH1 0x40 MLOAD DUP1 PUSH1 0x60 ADD PUSH1 0x40 MSTORE SWAP1 DUP2 PUSH1 0x0 DUP3 ADD DUP1 SLOAD DUP1 PUSH1 0x20 MUL PUSH1 0x20 ADD PUSH1 0x40 MLOAD SWAP1 DUP2 ADD PUSH1 0x40 MSTORE DUP1 SWAP3 SWAP2 SWAP1 DUP2 DUP2 MSTORE PUSH1 0x20 ADD PUSH1 0x0 SWAP1 JUMPDEST DUP3 DUP3 LT ISZERO PUSH2 0xF7F JUMPI DUP4 DUP3 SWAP1 PUSH1 0x0 MSTORE PUSH1 0x20 PUSH1 0x0 KECCAK256 ADD DUP1 SLOAD PUSH2 0xEF2 SWAP1 PUSH2 0x24E1 JUMP JUMPDEST DUP1 PUSH1 0x1F ADD PUSH1 0x20 DUP1 SWAP2 DIV MUL PUSH1 0x20 ADD PUSH1 0x40 MLOAD SWAP1 DUP2 ADD PUSH1 0x40 MSTORE DUP1 SWAP3 SWAP2 SWAP1 DUP2 DUP2 MSTORE PUSH1 0x20 ADD DUP3 DUP1 SLOAD PUSH2 0xF1E SWAP1 PUSH2 0x24E1 JUMP JUMPDEST DUP1 ISZERO PUSH2 0xF6B JUMPI DUP1 PUSH1 0x1F LT PUSH2 0xF40 JUMPI PUSH2 0x100 DUP1 DUP4 SLOAD DIV MUL DUP4 MSTORE SWAP2 PUSH1 0x20 ADD SWAP2 PUSH2 0xF6B JUMP JUMPDEST DUP3 ADD SWAP2 SWAP1 PUSH1 0x0 MSTORE PUSH1 0x20 PUSH1 0x0 KECCAK256 SWAP1 JUMPDEST DUP2 SLOAD DUP2 MSTORE SWAP1 PUSH1 0x1 ADD SWAP1 PUSH1 0x20 ADD DUP1 DUP4 GT PUSH2 0xF4E JUMPI DUP3 SWAP1 SUB PUSH1 0x1F AND DUP3 ADD SWAP2 JUMPDEST POP POP POP POP POP DUP2 MSTORE PUSH1 0x20 ADD SWAP1 PUSH1 0x1 ADD SWAP1 PUSH2 0xED3 JUMP JUMPDEST POP POP POP POP DUP2 MSTORE PUSH1 0x20 ADD PUSH1 0x1 DUP3 ADD DUP1 SLOAD DUP1 PUSH1 0x20 MUL PUSH1 0x20 ADD PUSH1 0x40 MLOAD SWAP1 DUP2 ADD PUSH1 0x40 MSTORE DUP1 SWAP3 SWAP2 SWAP1 DUP2 DUP2 MSTORE PUSH1 0x20 ADD PUSH1 0x0 SWAP1 JUMPDEST DUP3 DUP3 LT ISZERO PUSH2 0x1058 JUMPI DUP4 DUP3 SWAP1 PUSH1 0x0 MSTORE PUSH1 0x20 PUSH1 0x0 KECCAK256 ADD DUP1 SLOAD PUSH2 0xFCB SWAP1 PUSH2 0x24E1 JUMP JUMPDEST DUP1 PUSH1 0x1F ADD PUSH1 0x20 DUP1 SWAP2 DIV MUL PUSH1 0x20 ADD PUSH1 0x40 MLOAD SWAP1 DUP2 ADD PUSH1 0x40 MSTORE DUP1 SWAP3 SWAP2 SWAP1 DUP2 DUP2 MSTORE PUSH1 0x20 ADD DUP3 DUP1 SLOAD PUSH2 0xFF7 SWAP1 PUSH2 0x24E1 JUMP JUMPDEST DUP1 ISZERO PUSH2 0x1044 JUMPI DUP1 PUSH1 0x1F LT PUSH2 0x1019 JUMPI PUSH2 0x100 DUP1 DUP4 SLOAD DIV MUL DUP4 MSTORE SWAP2 PUSH1 0x20 ADD SWAP2 PUSH2 0x1044 JUMP JUMPDEST DUP3 ADD SWAP2 SWAP1 PUSH1 0x0 MSTORE PUSH1 0x20 PUSH1 0x0 KECCAK256 SWAP1 JUMPDEST DUP2 SLOAD DUP2 MSTORE SWAP1 PUSH1 0x1 ADD SWAP1 PUSH1 0x20 ADD DUP1 DUP4 GT PUSH2 0x1027 JUMPI DUP3 SWAP1 SUB PUSH1 0x1F AND DUP3 ADD SWAP2 JUMPDEST POP POP POP POP POP DUP2 MSTORE PUSH1 0x20 ADD SWAP1 PUSH1 0x1 ADD SWAP1 PUSH2 0xFAC JUMP JUMPDEST POP POP POP POP DUP2 MSTORE PUSH1 0x20 ADD PUSH1 0x2 DUP3 ADD DUP1 SLOAD DUP1 PUSH1 0x20 MUL PUSH1 0x20 ADD PUSH1 0x40 MLOAD SWAP1 DUP2 ADD PUSH1 0x40 MSTORE DUP1 SWAP3 SWAP2 SWAP1 DUP2 DUP2 MSTORE PUSH1 0x20 ADD PUSH1 0x0 SWAP1 JUMPDEST DUP3 DUP3 LT ISZERO PUSH2 0x1131 JUMPI DUP4 DUP3 SWAP1 PUSH1 0x0 MSTORE PUSH1 0x20 PUSH1 0x0 KECCAK256 ADD DUP1 SLOAD PUSH2 0x10A4 SWAP1 PUSH2 0x24E1 JUMP JUMPDEST DUP1 PUSH1 0x1F ADD PUSH1 0x20 DUP1 SWAP2 DIV MUL PUSH1 0x20 ADD PUSH1 0x40 MLOAD SWAP1 DUP2 ADD PUSH1 0x40 MSTORE DUP1 SWAP3 SWAP2 SWAP1 DUP2 DUP2 MSTORE PUSH1 0x20 ADD DUP3 DUP1 SLOAD PUSH2 0x10D0 SWAP1 PUSH2 0x24E1 JUMP JUMPDEST DUP1 ISZERO PUSH2 0x111D JUMPI DUP1 PUSH1 0x1F LT PUSH2 0x10F2 JUMPI PUSH2 0x100 DUP1 DUP4 SLOAD DIV MUL DUP4 MSTORE SWAP2 PUSH1 0x20 ADD SWAP2 PUSH2 0x111D JUMP JUMPDEST DUP3 ADD SWAP2 SWAP1 PUSH1 0x0 MSTORE PUSH1 0x20 PUSH1 0x0 KECCAK256 SWAP1 JUMPDEST DUP2 SLOAD DUP2 MSTORE SWAP1 PUSH1 0x1 ADD SWAP1 PUSH1 0x20 ADD DUP1 DUP4 GT PUSH2 0x1100 JUMPI DUP3 SWAP1 SUB PUSH1 0x1F AND DUP3 ADD SWAP2 JUMPDEST POP POP POP POP POP DUP2 MSTORE PUSH1 0x20 ADD SWAP1 PUSH1 0x1 ADD SWAP1 PUSH2 0x1085 JUMP JUMPDEST POP POP POP POP DUP2 MSTORE POP POP SWAP1 POP DUP4 JUMP JUMPDEST DUP5 PUSH1 0x0 DUP1 CALLER PUSH20 0xFFFFFFFFFFFFFFFFFFFFFFFFFFFFFFFFFFFFFFFF AND PUSH20 0xFFFFFFFFFFFFFFFFFFFFFFFFFFFFFFFFFFFFFFFF AND DUP2 MSTORE PUSH1 0x20 ADD SWAP1 DUP2 MSTORE PUSH1 0x20 ADD PUSH1 0x0 KECCAK256 PUSH1 0x0 ADD PUSH1 0x2 ADD SWAP1 DUP1 MLOAD SWAP1 PUSH1 0x20 ADD SWAP1 PUSH2 0x1196 SWAP3 SWAP2 SWAP1 PUSH2 0x1A2A JUMP JUMPDEST POP DUP4 PUSH1 0x0 DUP1 CALLER PUSH20 0xFFFFFFFFFFFFFFFFFFFFFFFFFFFFFFFFFFFFFFFF AND PUSH20 0xFFFFFFFFFFFFFFFFFFFFFFFFFFFFFFFFFFFFFFFF AND DUP2 MSTORE PUSH1 0x20 ADD SWAP1 DUP2 MSTORE PUSH1 0x20 ADD PUSH1 0x0 KECCAK256 PUSH1 0x0 ADD PUSH1 0x3 ADD SWAP1 DUP1 MLOAD SWAP1 PUSH1 0x20 ADD SWAP1 PUSH2 0x11EF SWAP3 SWAP2 SWAP1 PUSH2 0x1A2A JUMP JUMPDEST POP DUP3 PUSH1 0x0 DUP1 CALLER PUSH20 0xFFFFFFFFFFFFFFFFFFFFFFFFFFFFFFFFFFFFFFFF AND PUSH20 0xFFFFFFFFFFFFFFFFFFFFFFFFFFFFFFFFFFFFFFFF AND DUP2 MSTORE PUSH1 0x20 ADD SWAP1 DUP2 MSTORE PUSH1 0x20 ADD PUSH1 0x0 KECCAK256 PUSH1 0x0 ADD PUSH1 0x4 ADD SWAP1 DUP1 MLOAD SWAP1 PUSH1 0x20 ADD SWAP1 PUSH2 0x1248 SWAP3 SWAP2 SWAP1 PUSH2 0x1A2A JUMP JUMPDEST POP DUP2 PUSH1 0x0 DUP1 CALLER PUSH20 0xFFFFFFFFFFFFFFFFFFFFFFFFFFFFFFFFFFFFFFFF AND PUSH20 0xFFFFFFFFFFFFFFFFFFFFFFFFFFFFFFFFFFFFFFFF AND DUP2 MSTORE PUSH1 0x20 ADD SWAP1 DUP2 MSTORE PUSH1 0x20 ADD PUSH1 0x0 KECCAK256 PUSH1 0x0 ADD PUSH1 0x5 ADD SWAP1 DUP1 MLOAD SWAP1 PUSH1 0x20 ADD SWAP1 PUSH2 0x12A1 SWAP3 SWAP2 SWAP1 PUSH2 0x1A2A JUMP JUMPDEST POP CALLER PUSH1 0x0 DUP1 CALLER PUSH20 0xFFFFFFFFFFFFFFFFFFFFFFFFFFFFFFFFFFFFFFFF AND PUSH20 0xFFFFFFFFFFFFFFFFFFFFFFFFFFFFFFFFFFFFFFFF AND DUP2 MSTORE PUSH1 0x20 ADD SWAP1 DUP2 MSTORE PUSH1 0x20 ADD PUSH1 0x0 KECCAK256 PUSH1 0x0 ADD PUSH1 0x1 ADD PUSH1 0x0 PUSH2 0x100 EXP DUP2 SLOAD DUP2 PUSH20 0xFFFFFFFFFFFFFFFFFFFFFFFFFFFFFFFFFFFFFFFF MUL NOT AND SWAP1 DUP4 PUSH20 0xFFFFFFFFFFFFFFFFFFFFFFFFFFFFFFFFFFFFFFFF AND MUL OR SWAP1 SSTORE POP TIMESTAMP PUSH1 0x0 DUP1 CALLER PUSH20 0xFFFFFFFFFFFFFFFFFFFFFFFFFFFFFFFFFFFFFFFF AND PUSH20 0xFFFFFFFFFFFFFFFFFFFFFFFFFFFFFFFFFFFFFFFF AND DUP2 MSTORE PUSH1 0x20 ADD SWAP1 DUP2 MSTORE PUSH1 0x20 ADD PUSH1 0x0 KECCAK256 PUSH1 0x0 ADD PUSH1 0x6 ADD DUP2 SWAP1 SSTORE POP DUP1 PUSH1 0x0 DUP1 CALLER PUSH20 0xFFFFFFFFFFFFFFFFFFFFFFFFFFFFFFFFFFFFFFFF AND PUSH20 0xFFFFFFFFFFFFFFFFFFFFFFFFFFFFFFFFFFFFFFFF AND DUP2 MSTORE PUSH1 0x20 ADD SWAP1 DUP2 MSTORE PUSH1 0x20 ADD PUSH1 0x0 KECCAK256 PUSH1 0x0 ADD PUSH1 0x0 ADD SWAP1 DUP1 MLOAD SWAP1 PUSH1 0x20 ADD SWAP1 PUSH2 0x13C6 SWAP3 SWAP2 SWAP1 PUSH2 0x1A2A JUMP JUMPDEST POP POP POP POP POP POP JUMP JUMPDEST PUSH1 0x0 DUP1 CALLER PUSH20 0xFFFFFFFFFFFFFFFFFFFFFFFFFFFFFFFFFFFFFFFF AND PUSH20 0xFFFFFFFFFFFFFFFFFFFFFFFFFFFFFFFFFFFFFFFF AND DUP2 MSTORE PUSH1 0x20 ADD SWAP1 DUP2 MSTORE PUSH1 0x20 ADD PUSH1 0x0 KECCAK256 PUSH1 0x10 ADD PUSH1 0x0 PUSH2 0x141B SWAP2 SWAP1 PUSH2 0x1AD8 JUMP JUMPDEST JUMP JUMPDEST PUSH1 0x60 DUP1 PUSH1 0x60 DUP1 PUSH1 0x0 DUP1 CALLER PUSH20 0xFFFFFFFFFFFFFFFFFFFFFFFFFFFFFFFFFFFFFFFF AND PUSH20 0xFFFFFFFFFFFFFFFFFFFFFFFFFFFFFFFFFFFFFFFF AND DUP2 MSTORE PUSH1 0x20 ADD SWAP1 DUP2 MSTORE PUSH1 0x20 ADD PUSH1 0x0 KECCAK256 PUSH1 0x10 ADD DUP6 DUP2 SLOAD DUP2 LT PUSH2 0x1476 JUMPI PUSH2 0x1475 PUSH2 0x2573 JUMP JUMPDEST JUMPDEST SWAP1 PUSH1 0x0 MSTORE PUSH1 0x20 PUSH1 0x0 KECCAK256 SWAP1 PUSH1 0x4 MUL ADD PUSH1 0x0 ADD PUSH1 0x0 DUP1 CALLER PUSH20 0xFFFFFFFFFFFFFFFFFFFFFFFFFFFFFFFFFFFFFFFF AND PUSH20 0xFFFFFFFFFFFFFFFFFFFFFFFFFFFFFFFFFFFFFFFF AND DUP2 MSTORE PUSH1 0x20 ADD SWAP1 DUP2 MSTORE PUSH1 0x20 ADD PUSH1 0x0 KECCAK256 PUSH1 0x10 ADD DUP7 DUP2 SLOAD DUP2 LT PUSH2 0x14DA JUMPI PUSH2 0x14D9 PUSH2 0x2573 JUMP JUMPDEST JUMPDEST SWAP1 PUSH1 0x0 MSTORE PUSH1 0x20 PUSH1 0x0 KECCAK256 SWAP1 PUSH1 0x4 MUL ADD PUSH1 0x1 ADD PUSH1 0x0 DUP1 CALLER PUSH20 0xFFFFFFFFFFFFFFFFFFFFFFFFFFFFFFFFFFFFFFFF AND PUSH20 0xFFFFFFFFFFFFFFFFFFFFFFFFFFFFFFFFFFFFFFFF AND DUP2 MSTORE PUSH1 0x20 ADD SWAP1 DUP2 MSTORE PUSH1 0x20 ADD PUSH1 0x0 KECCAK256 PUSH1 0x10 ADD DUP8 DUP2 SLOAD DUP2 LT PUSH2 0x153E JUMPI PUSH2 0x153D PUSH2 0x2573 JUMP JUMPDEST JUMPDEST SWAP1 PUSH1 0x0 MSTORE PUSH1 0x20 PUSH1 0x0 KECCAK256 SWAP1 PUSH1 0x4 MUL ADD PUSH1 0x2 ADD PUSH1 0x0 DUP1 CALLER PUSH20 0xFFFFFFFFFFFFFFFFFFFFFFFFFFFFFFFFFFFFFFFF AND PUSH20 0xFFFFFFFFFFFFFFFFFFFFFFFFFFFFFFFFFFFFFFFF AND DUP2 MSTORE PUSH1 0x20 ADD SWAP1 DUP2 MSTORE PUSH1 0x20 ADD PUSH1 0x0 KECCAK256 PUSH1 0x10 ADD DUP9 DUP2 SLOAD DUP2 LT PUSH2 0x15A2 JUMPI PUSH2 0x15A1 PUSH2 0x2573 JUMP JUMPDEST JUMPDEST SWAP1 PUSH1 0x0 MSTORE PUSH1 0x20 PUSH1 0x0 KECCAK256 SWAP1 PUSH1 0x4 MUL ADD PUSH1 0x3 ADD DUP4 DUP1 SLOAD PUSH2 0x15BF SWAP1 PUSH2 0x24E1 JUMP JUMPDEST DUP1 PUSH1 0x1F ADD PUSH1 0x20 DUP1 SWAP2 DIV MUL PUSH1 0x20 ADD PUSH1 0x40 MLOAD SWAP1 DUP2 ADD PUSH1 0x40 MSTORE DUP1 SWAP3 SWAP2 SWAP1 DUP2 DUP2 MSTORE PUSH1 0x20 ADD DUP3 DUP1 SLOAD PUSH2 0x15EB SWAP1 PUSH2 0x24E1 JUMP JUMPDEST DUP1 ISZERO PUSH2 0x1638 JUMPI DUP1 PUSH1 0x1F LT PUSH2 0x160D JUMPI PUSH2 0x100 DUP1 DUP4 SLOAD DIV MUL DUP4 MSTORE SWAP2 PUSH1 0x20 ADD SWAP2 PUSH2 0x1638 JUMP JUMPDEST DUP3 ADD SWAP2 SWAP1 PUSH1 0x0 MSTORE PUSH1 0x20 PUSH1 0x0 KECCAK256 SWAP1 JUMPDEST DUP2 SLOAD DUP2 MSTORE SWAP1 PUSH1 0x1 ADD SWAP1 PUSH1 0x20 ADD DUP1 DUP4 GT PUSH2 0x161B JUMPI DUP3 SWAP1 SUB PUSH1 0x1F AND DUP3 ADD SWAP2 JUMPDEST POP POP POP POP POP SWAP4 POP DUP3 DUP1 SLOAD PUSH2 0x164B SWAP1 PUSH2 0x24E1 JUMP JUMPDEST DUP1 PUSH1 0x1F ADD PUSH1 0x20 DUP1 SWAP2 DIV MUL PUSH1 0x20 ADD PUSH1 0x40 MLOAD SWAP1 DUP2 ADD PUSH1 0x40 MSTORE DUP1 SWAP3 SWAP2 SWAP1 DUP2 DUP2 MSTORE PUSH1 0x20 ADD DUP3 DUP1 SLOAD PUSH2 0x1677 SWAP1 PUSH2 0x24E1 JUMP JUMPDEST DUP1 ISZERO PUSH2 0x16C4 JUMPI DUP1 PUSH1 0x1F LT PUSH2 0x1699 JUMPI PUSH2 0x100 DUP1 DUP4 SLOAD DIV MUL DUP4 MSTORE SWAP2 PUSH1 0x20 ADD SWAP2 PUSH2 0x16C4 JUMP JUMPDEST DUP3 ADD SWAP2 SWAP1 PUSH1 0x0 MSTORE PUSH1 0x20 PUSH1 0x0 KECCAK256 SWAP1 JUMPDEST DUP2 SLOAD DUP2 MSTORE SWAP1 PUSH1 0x1 ADD SWAP1 PUSH1 0x20 ADD DUP1 DUP4 GT PUSH2 0x16A7 JUMPI DUP3 SWAP1 SUB PUSH1 0x1F AND DUP3 ADD SWAP2 JUMPDEST POP POP POP POP POP SWAP3 POP DUP2 DUP1 SLOAD PUSH2 0x16D7 SWAP1 PUSH2 0x24E1 JUMP JUMPDEST DUP1 PUSH1 0x1F ADD PUSH1 0x20 DUP1 SWAP2 DIV MUL PUSH1 0x20 ADD PUSH1 0x40 MLOAD SWAP1 DUP2 ADD PUSH1 0x40 MSTORE DUP1 SWAP3 SWAP2 SWAP1 DUP2 DUP2 MSTORE PUSH1 0x20 ADD DUP3 DUP1 SLOAD PUSH2 0x1703 SWAP1 PUSH2 0x24E1 JUMP JUMPDEST DUP1 ISZERO PUSH2 0x1750 JUMPI DUP1 PUSH1 0x1F LT PUSH2 0x1725 JUMPI PUSH2 0x100 DUP1 DUP4 SLOAD DIV MUL DUP4 MSTORE SWAP2 PUSH1 0x20 ADD SWAP2 PUSH2 0x1750 JUMP JUMPDEST DUP3 ADD SWAP2 SWAP1 PUSH1 0x0 MSTORE PUSH1 0x20 PUSH1 0x0 KECCAK256 SWAP1 JUMPDEST DUP2 SLOAD DUP2 MSTORE SWAP1 PUSH1 0x1 ADD SWAP1 PUSH1 0x20 ADD DUP1 DUP4 GT PUSH2 0x1733 JUMPI DUP3 SWAP1 SUB PUSH1 0x1F AND DUP3 ADD SWAP2 JUMPDEST POP POP POP POP POP SWAP2 POP DUP1 DUP1 SLOAD PUSH2 0x1763 SWAP1 PUSH2 0x24E1 JUMP JUMPDEST DUP1 PUSH1 0x1F ADD PUSH1 0x20 DUP1 SWAP2 DIV MUL PUSH1 0x20 ADD PUSH1 0x40 MLOAD SWAP1 DUP2 ADD PUSH1 0x40 MSTORE DUP1 SWAP3 SWAP2 SWAP1 DUP2 DUP2 MSTORE PUSH1 0x20 ADD DUP3 DUP1 SLOAD PUSH2 0x178F SWAP1 PUSH2 0x24E1 JUMP JUMPDEST DUP1 ISZERO PUSH2 0x17DC JUMPI DUP1 PUSH1 0x1F LT PUSH2 0x17B1 JUMPI PUSH2 0x100 DUP1 DUP4 SLOAD DIV MUL DUP4 MSTORE SWAP2 PUSH1 0x20 ADD SWAP2 PUSH2 0x17DC JUMP JUMPDEST DUP3 ADD SWAP2 SWAP1 PUSH1 0x0 MSTORE PUSH1 0x20 PUSH1 0x0 KECCAK256 SWAP1 JUMPDEST DUP2 SLOAD DUP2 MSTORE SWAP1 PUSH1 0x1 ADD SWAP1 PUSH1 0x20 ADD DUP1 DUP4 GT PUSH2 0x17BF JUMPI DUP3 SWAP1 SUB PUSH1 0x1F AND DUP3 ADD SWAP2 JUMPDEST POP POP POP POP POP SWAP1 POP SWAP4 POP SWAP4 POP SWAP4 POP SWAP4 POP SWAP2 SWAP4 POP SWAP2 SWAP4 JUMP JUMPDEST PUSH1 0x0 DUP1 CALLER PUSH20 0xFFFFFFFFFFFFFFFFFFFFFFFFFFFFFFFFFFFFFFFF AND PUSH20 0xFFFFFFFFFFFFFFFFFFFFFFFFFFFFFFFFFFFFFFFF AND DUP2 MSTORE PUSH1 0x20 ADD SWAP1 DUP2 MSTORE PUSH1 0x20 ADD PUSH1 0x0 KECCAK256 PUSH1 0x0 DUP1 DUP3 ADD PUSH1 0x0 DUP1 DUP3 ADD PUSH1 0x0 PUSH2 0x1846 SWAP2 SWAP1 PUSH2 0x19EA JUMP JUMPDEST PUSH1 0x1 DUP3 ADD PUSH1 0x0 PUSH2 0x100 EXP DUP2 SLOAD SWAP1 PUSH20 0xFFFFFFFFFFFFFFFFFFFFFFFFFFFFFFFFFFFFFFFF MUL NOT AND SWAP1 SSTORE PUSH1 0x2 DUP3 ADD PUSH1 0x0 PUSH2 0x187D SWAP2 SWAP1 PUSH2 0x19EA JUMP JUMPDEST PUSH1 0x3 DUP3 ADD PUSH1 0x0 PUSH2 0x188D SWAP2 SWAP1 PUSH2 0x19EA JUMP JUMPDEST PUSH1 0x4 DUP3 ADD PUSH1 0x0 PUSH2 0x189D SWAP2 SWAP1 PUSH2 0x19EA JUMP JUMPDEST PUSH1 0x5 DUP3 ADD PUSH1 0x0 PUSH2 0x18AD SWAP2 SWAP1 PUSH2 0x19EA JUMP JUMPDEST PUSH1 0x6 DUP3 ADD PUSH1 0x0 SWAP1 SSTORE POP POP PUSH1 0x7 DUP3 ADD PUSH1 0x0 DUP1 DUP3 ADD PUSH1 0x0 PUSH2 0x18CC SWAP2 SWAP1 PUSH2 0x19EA JUMP JUMPDEST PUSH1 0x1 DUP3 ADD PUSH1 0x0 PUSH2 0x18DC SWAP2 SWAP1 PUSH2 0x19EA JUMP JUMPDEST PUSH1 0x2 DUP3 ADD PUSH1 0x0 PUSH2 0x18EC SWAP2 SWAP1 PUSH2 0x19EA JUMP JUMPDEST PUSH1 0x3 DUP3 ADD PUSH1 0x0 PUSH2 0x18FC SWAP2 SWAP1 PUSH2 0x19EA JUMP JUMPDEST PUSH1 0x4 DUP3 ADD PUSH1 0x0 PUSH2 0x190C SWAP2 SWAP1 PUSH2 0x19EA JUMP JUMPDEST PUSH1 0x5 DUP3 ADD PUSH1 0x0 PUSH2 0x191C SWAP2 SWAP1 PUSH2 0x19EA JUMP JUMPDEST POP POP PUSH1 0xD DUP3 ADD PUSH1 0x0 DUP1 DUP3 ADD PUSH1 0x0 PUSH2 0x1933 SWAP2 SWAP1 PUSH2 0x1969 JUMP JUMPDEST PUSH1 0x1 DUP3 ADD PUSH1 0x0 PUSH2 0x1943 SWAP2 SWAP1 PUSH2 0x1969 JUMP JUMPDEST PUSH1 0x2 DUP3 ADD PUSH1 0x0 PUSH2 0x1953 SWAP2 SWAP1 PUSH2 0x1969 JUMP JUMPDEST POP POP PUSH1 0x10 DUP3 ADD PUSH1 0x0 PUSH2 0x1965 SWAP2 SWAP1 PUSH2 0x1AD8 JUMP JUMPDEST POP POP JUMP JUMPDEST POP DUP1 SLOAD PUSH1 0x0 DUP3 SSTORE SWAP1 PUSH1 0x0 MSTORE PUSH1 0x20 PUSH1 0x0 KECCAK256 SWAP1 DUP2 ADD SWAP1 PUSH2 0x1987 SWAP2 SWAP1 PUSH2 0x1AFC JUMP JUMPDEST POP JUMP JUMPDEST DUP3 DUP1 SLOAD DUP3 DUP3 SSTORE SWAP1 PUSH1 0x0 MSTORE PUSH1 0x20 PUSH1 0x0 KECCAK256 SWAP1 DUP2 ADD SWAP3 DUP3 ISZERO PUSH2 0x19D9 JUMPI SWAP2 PUSH1 0x20 MUL DUP3 ADD JUMPDEST DUP3 DUP2 GT ISZERO PUSH2 0x19D8 JUMPI DUP3 MLOAD DUP3 SWAP1 DUP1 MLOAD SWAP1 PUSH1 0x20 ADD SWAP1 PUSH2 0x19C8 SWAP3 SWAP2 SWAP1 PUSH2 0x1A2A JUMP JUMPDEST POP SWAP2 PUSH1 0x20 ADD SWAP2 SWAP1 PUSH1 0x1 ADD SWAP1 PUSH2 0x19AA JUMP JUMPDEST JUMPDEST POP SWAP1 POP PUSH2 0x19E6 SWAP2 SWAP1 PUSH2 0x1AFC JUMP JUMPDEST POP SWAP1 JUMP JUMPDEST POP DUP1 SLOAD PUSH2 0x19F6 SWAP1 PUSH2 0x24E1 JUMP JUMPDEST PUSH1 0x0 DUP3 SSTORE DUP1 PUSH1 0x1F LT PUSH2 0x1A08 JUMPI POP PUSH2 0x1A27 JUMP JUMPDEST PUSH1 0x1F ADD PUSH1 0x20 SWAP1 DIV SWAP1 PUSH1 0x0 MSTORE PUSH1 0x20 PUSH1 0x0 KECCAK256 SWAP1 DUP2 ADD SWAP1 PUSH2 0x1A26 SWAP2 SWAP1 PUSH2 0x1B20 JUMP JUMPDEST JUMPDEST POP JUMP JUMPDEST DUP3 DUP1 SLOAD PUSH2 0x1A36 SWAP1 PUSH2 0x24E1 JUMP JUMPDEST SWAP1 PUSH1 0x0 MSTORE PUSH1 0x20 PUSH1 0x0 KECCAK256 SWAP1 PUSH1 0x1F ADD PUSH1 0x20 SWAP1 DIV DUP2 ADD SWAP3 DUP3 PUSH2 0x1A58 JUMPI PUSH1 0x0 DUP6 SSTORE PUSH2 0x1A9F JUMP JUMPDEST DUP3 PUSH1 0x1F LT PUSH2 0x1A71 JUMPI DUP1 MLOAD PUSH1 0xFF NOT AND DUP4 DUP1 ADD OR DUP6 SSTORE PUSH2 0x1A9F JUMP JUMPDEST DUP3 DUP1 ADD PUSH1 0x1 ADD DUP6 SSTORE DUP3 ISZERO PUSH2 0x1A9F JUMPI SWAP2 DUP3 ADD JUMPDEST DUP3 DUP2 GT ISZERO PUSH2 0x1A9E JUMPI DUP3 MLOAD DUP3 SSTORE SWAP2 PUSH1 0x20 ADD SWAP2 SWAP1 PUSH1 0x1 ADD SWAP1 PUSH2 0x1A83 JUMP JUMPDEST JUMPDEST POP SWAP1 POP PUSH2 0x1AAC SWAP2 SWAP1 PUSH2 0x1B20 JUMP JUMPDEST POP SWAP1 JUMP JUMPDEST PUSH1 0x40 MLOAD DUP1 PUSH1 0x80 ADD PUSH1 0x40 MSTORE DUP1 PUSH1 0x60 DUP2 MSTORE PUSH1 0x20 ADD PUSH1 0x60 DUP2 MSTORE PUSH1 0x20 ADD PUSH1 0x60 DUP2 MSTORE PUSH1 0x20 ADD PUSH1 0x60 DUP2 MSTORE POP SWAP1 JUMP JUMPDEST POP DUP1 SLOAD PUSH1 0x0 DUP3 SSTORE PUSH1 0x4 MUL SWAP1 PUSH1 0x0 MSTORE PUSH1 0x20 PUSH1 0x0 KECCAK256 SWAP1 DUP2 ADD SWAP1 PUSH2 0x1AF9 SWAP2 SWAP1 PUSH2 0x1B3D JUMP JUMPDEST POP JUMP JUMPDEST JUMPDEST DUP1 DUP3 GT ISZERO PUSH2 0x1B1C JUMPI PUSH1 0x0 DUP2 DUP2 PUSH2 0x1B13 SWAP2 SWAP1 PUSH2 0x19EA JUMP JUMPDEST POP PUSH1 0x1 ADD PUSH2 0x1AFD JUMP JUMPDEST POP SWAP1 JUMP JUMPDEST JUMPDEST DUP1 DUP3 GT ISZERO PUSH2 0x1B39 JUMPI PUSH1 0x0 DUP2 PUSH1 0x0 SWAP1 SSTORE POP PUSH1 0x1 ADD PUSH2 0x1B21 JUMP JUMPDEST POP SWAP1 JUMP JUMPDEST JUMPDEST DUP1 DUP3 GT ISZERO PUSH2 0x1B90 JUMPI PUSH1 0x0 DUP1 DUP3 ADD PUSH1 0x0 PUSH2 0x1B57 SWAP2 SWAP1 PUSH2 0x19EA JUMP JUMPDEST PUSH1 0x1 DUP3 ADD PUSH1 0x0 PUSH2 0x1B67 SWAP2 SWAP1 PUSH2 0x19EA JUMP JUMPDEST PUSH1 0x2 DUP3 ADD PUSH1 0x0 PUSH2 0x1B77 SWAP2 SWAP1 PUSH2 0x19EA JUMP JUMPDEST PUSH1 0x3 DUP3 ADD PUSH1 0x0 PUSH2 0x1B87 SWAP2 SWAP1 PUSH2 0x19EA JUMP JUMPDEST POP PUSH1 0x4 ADD PUSH2 0x1B3E JUMP JUMPDEST POP SWAP1 JUMP JUMPDEST PUSH1 0x0 PUSH2 0x1BA7 PUSH2 0x1BA2 DUP5 PUSH2 0x23A0 JUMP JUMPDEST PUSH2 0x237B JUMP JUMPDEST SWAP1 POP DUP1 DUP4 DUP3 MSTORE PUSH1 0x20 DUP3 ADD SWAP1 POP DUP3 DUP6 PUSH1 0x20 DUP7 MUL DUP3 ADD GT ISZERO PUSH2 0x1BCA JUMPI PUSH2 0x1BC9 PUSH2 0x25D6 JUMP JUMPDEST JUMPDEST PUSH1 0x0 JUMPDEST DUP6 DUP2 LT ISZERO PUSH2 0x1C18 JUMPI DUP2 CALLDATALOAD PUSH8 0xFFFFFFFFFFFFFFFF DUP2 GT ISZERO PUSH2 0x1BF0 JUMPI PUSH2 0x1BEF PUSH2 0x25D1 JUMP JUMPDEST JUMPDEST DUP1 DUP7 ADD PUSH2 0x1BFD DUP10 DUP3 PUSH2 0x1CA7 JUMP JUMPDEST DUP6 MSTORE PUSH1 0x20 DUP6 ADD SWAP5 POP PUSH1 0x20 DUP5 ADD SWAP4 POP POP POP PUSH1 0x1 DUP2 ADD SWAP1 POP PUSH2 0x1BCD JUMP JUMPDEST POP POP POP SWAP4 SWAP3 POP POP POP JUMP JUMPDEST PUSH1 0x0 PUSH2 0x1C35 PUSH2 0x1C30 DUP5 PUSH2 0x23CC JUMP JUMPDEST PUSH2 0x237B JUMP JUMPDEST SWAP1 POP DUP3 DUP2 MSTORE PUSH1 0x20 DUP2 ADD DUP5 DUP5 DUP5 ADD GT ISZERO PUSH2 0x1C51 JUMPI PUSH2 0x1C50 PUSH2 0x25DB JUMP JUMPDEST JUMPDEST PUSH2 0x1C5C DUP5 DUP3 DUP6 PUSH2 0x249F JUMP JUMPDEST POP SWAP4 SWAP3 POP POP POP JUMP JUMPDEST PUSH1 0x0 DUP2 CALLDATALOAD SWAP1 POP PUSH2 0x1C73 DUP2 PUSH2 0x25FB JUMP JUMPDEST SWAP3 SWAP2 POP POP JUMP JUMPDEST PUSH1 0x0 DUP3 PUSH1 0x1F DUP4 ADD SLT PUSH2 0x1C8E JUMPI PUSH2 0x1C8D PUSH2 0x25D1 JUMP JUMPDEST JUMPDEST DUP2 CALLDATALOAD PUSH2 0x1C9E DUP5 DUP3 PUSH1 0x20 DUP7 ADD PUSH2 0x1B94 JUMP JUMPDEST SWAP2 POP POP SWAP3 SWAP2 POP POP JUMP JUMPDEST PUSH1 0x0 DUP3 PUSH1 0x1F DUP4 ADD SLT PUSH2 0x1CBC JUMPI PUSH2 0x1CBB PUSH2 0x25D1 JUMP JUMPDEST JUMPDEST DUP2 CALLDATALOAD PUSH2 0x1CCC DUP5 DUP3 PUSH1 0x20 DUP7 ADD PUSH2 0x1C22 JUMP JUMPDEST SWAP2 POP POP SWAP3 SWAP2 POP POP JUMP JUMPDEST PUSH1 0x0 DUP2 CALLDATALOAD SWAP1 POP PUSH2 0x1CE4 DUP2 PUSH2 0x2612 JUMP JUMPDEST SWAP3 SWAP2 POP POP JUMP JUMPDEST PUSH1 0x0 PUSH1 0x20 DUP3 DUP5 SUB SLT ISZERO PUSH2 0x1D00 JUMPI PUSH2 0x1CFF PUSH2 0x25E5 JUMP JUMPDEST JUMPDEST PUSH1 0x0 PUSH2 0x1D0E DUP5 DUP3 DUP6 ADD PUSH2 0x1C64 JUMP JUMPDEST SWAP2 POP POP SWAP3 SWAP2 POP POP JUMP JUMPDEST PUSH1 0x0 DUP1 PUSH1 0x0 PUSH1 0x60 DUP5 DUP7 SUB SLT ISZERO PUSH2 0x1D30 JUMPI PUSH2 0x1D2F PUSH2 0x25E5 JUMP JUMPDEST JUMPDEST PUSH1 0x0 DUP5 ADD CALLDATALOAD PUSH8 0xFFFFFFFFFFFFFFFF DUP2 GT ISZERO PUSH2 0x1D4E JUMPI PUSH2 0x1D4D PUSH2 0x25E0 JUMP JUMPDEST JUMPDEST PUSH2 0x1D5A DUP7 DUP3 DUP8 ADD PUSH2 0x1C79 JUMP JUMPDEST SWAP4 POP POP PUSH1 0x20 DUP5 ADD CALLDATALOAD PUSH8 0xFFFFFFFFFFFFFFFF DUP2 GT ISZERO PUSH2 0x1D7B JUMPI PUSH2 0x1D7A PUSH2 0x25E0 JUMP JUMPDEST JUMPDEST PUSH2 0x1D87 DUP7 DUP3 DUP8 ADD PUSH2 0x1C79 JUMP JUMPDEST SWAP3 POP POP PUSH1 0x40 DUP5 ADD CALLDATALOAD PUSH8 0xFFFFFFFFFFFFFFFF DUP2 GT ISZERO PUSH2 0x1DA8 JUMPI PUSH2 0x1DA7 PUSH2 0x25E0 JUMP JUMPDEST JUMPDEST PUSH2 0x1DB4 DUP7 DUP3 DUP8 ADD PUSH2 0x1C79 JUMP JUMPDEST SWAP2 POP POP SWAP3 POP SWAP3 POP SWAP3 JUMP JUMPDEST PUSH1 0x0 DUP1 PUSH1 0x0 DUP1 PUSH1 0x80 DUP6 DUP8 SUB SLT ISZERO PUSH2 0x1DD8 JUMPI PUSH2 0x1DD7 PUSH2 0x25E5 JUMP JUMPDEST JUMPDEST PUSH1 0x0 DUP6 ADD CALLDATALOAD PUSH8 0xFFFFFFFFFFFFFFFF DUP2 GT ISZERO PUSH2 0x1DF6 JUMPI PUSH2 0x1DF5 PUSH2 0x25E0 JUMP JUMPDEST JUMPDEST PUSH2 0x1E02 DUP8 DUP3 DUP9 ADD PUSH2 0x1CA7 JUMP JUMPDEST SWAP5 POP POP PUSH1 0x20 DUP6 ADD CALLDATALOAD PUSH8 0xFFFFFFFFFFFFFFFF DUP2 GT ISZERO PUSH2 0x1E23 JUMPI PUSH2 0x1E22 PUSH2 0x25E0 JUMP JUMPDEST JUMPDEST PUSH2 0x1E2F DUP8 DUP3 DUP9 ADD PUSH2 0x1CA7 JUMP JUMPDEST SWAP4 POP POP PUSH1 0x40 DUP6 ADD CALLDATALOAD PUSH8 0xFFFFFFFFFFFFFFFF DUP2 GT ISZERO PUSH2 0x1E50 JUMPI PUSH2 0x1E4F PUSH2 0x25E0 JUMP JUMPDEST JUMPDEST PUSH2 0x1E5C DUP8 DUP3 DUP9 ADD PUSH2 0x1CA7 JUMP JUMPDEST SWAP3 POP POP PUSH1 0x60 DUP6 ADD CALLDATALOAD PUSH8 0xFFFFFFFFFFFFFFFF DUP2 GT ISZERO PUSH2 0x1E7D JUMPI PUSH2 0x1E7C PUSH2 0x25E0 JUMP JUMPDEST JUMPDEST PUSH2 0x1E89 DUP8 DUP3 DUP9 ADD PUSH2 0x1CA7 JUMP JUMPDEST SWAP2 POP POP SWAP3 SWAP6 SWAP2 SWAP5 POP SWAP3 POP JUMP JUMPDEST PUSH1 0x0 DUP1 PUSH1 0x0 DUP1 PUSH1 0x0 PUSH1 0xA0 DUP7 DUP9 SUB SLT ISZERO PUSH2 0x1EB1 JUMPI PUSH2 0x1EB0 PUSH2 0x25E5 JUMP JUMPDEST JUMPDEST PUSH1 0x0 DUP7 ADD CALLDATALOAD PUSH8 0xFFFFFFFFFFFFFFFF DUP2 GT ISZERO PUSH2 0x1ECF JUMPI PUSH2 0x1ECE PUSH2 0x25E0 JUMP JUMPDEST JUMPDEST PUSH2 0x1EDB DUP9 DUP3 DUP10 ADD PUSH2 0x1CA7 JUMP JUMPDEST SWAP6 POP POP PUSH1 0x20 DUP7 ADD CALLDATALOAD PUSH8 0xFFFFFFFFFFFFFFFF DUP2 GT ISZERO PUSH2 0x1EFC JUMPI PUSH2 0x1EFB PUSH2 0x25E0 JUMP JUMPDEST JUMPDEST PUSH2 0x1F08 DUP9 DUP3 DUP10 ADD PUSH2 0x1CA7 JUMP JUMPDEST SWAP5 POP POP PUSH1 0x40 DUP7 ADD CALLDATALOAD PUSH8 0xFFFFFFFFFFFFFFFF DUP2 GT ISZERO PUSH2 0x1F29 JUMPI PUSH2 0x1F28 PUSH2 0x25E0 JUMP JUMPDEST JUMPDEST PUSH2 0x1F35 DUP9 DUP3 DUP10 ADD PUSH2 0x1CA7 JUMP JUMPDEST SWAP4 POP POP PUSH1 0x60 DUP7 ADD CALLDATALOAD PUSH8 0xFFFFFFFFFFFFFFFF DUP2 GT ISZERO PUSH2 0x1F56 JUMPI PUSH2 0x1F55 PUSH2 0x25E0 JUMP JUMPDEST JUMPDEST PUSH2 0x1F62 DUP9 DUP3 DUP10 ADD PUSH2 0x1CA7 JUMP JUMPDEST SWAP3 POP POP PUSH1 0x80 DUP7 ADD CALLDATALOAD PUSH8 0xFFFFFFFFFFFFFFFF DUP2 GT ISZERO PUSH2 0x1F83 JUMPI PUSH2 0x1F82 PUSH2 0x25E0 JUMP JUMPDEST JUMPDEST PUSH2 0x1F8F DUP9 DUP3 DUP10 ADD PUSH2 0x1CA7 JUMP JUMPDEST SWAP2 POP POP SWAP3 SWAP6 POP SWAP3 SWAP6 SWAP1 SWAP4 POP JUMP JUMPDEST PUSH1 0x0 PUSH1 0x20 DUP3 DUP5 SUB SLT ISZERO PUSH2 0x1FB2 JUMPI PUSH2 0x1FB1 PUSH2 0x25E5 JUMP JUMPDEST JUMPDEST PUSH1 0x0 PUSH2 0x1FC0 DUP5 DUP3 DUP6 ADD PUSH2 0x1CD5 JUMP JUMPDEST SWAP2 POP POP SWAP3 SWAP2 POP POP JUMP JUMPDEST PUSH1 0x0 PUSH2 0x1FD5 DUP4 DUP4 PUSH2 0x2061 JUMP JUMPDEST SWAP1 POP SWAP3 SWAP2 POP POP JUMP JUMPDEST PUSH2 0x1FE6 DUP2 PUSH2 0x2463 JUMP JUMPDEST DUP3 MSTORE POP POP JUMP JUMPDEST PUSH1 0x0 PUSH2 0x1FF7 DUP3 PUSH2 0x240D JUMP JUMPDEST PUSH2 0x2001 DUP2 DUP6 PUSH2 0x2430 JUMP JUMPDEST SWAP4 POP DUP4 PUSH1 0x20 DUP3 MUL DUP6 ADD PUSH2 0x2013 DUP6 PUSH2 0x23FD JUMP JUMPDEST DUP1 PUSH1 0x0 JUMPDEST DUP6 DUP2 LT ISZERO PUSH2 0x204F JUMPI DUP5 DUP5 SUB DUP10 MSTORE DUP2 MLOAD PUSH2 0x2030 DUP6 DUP3 PUSH2 0x1FC9 JUMP JUMPDEST SWAP5 POP PUSH2 0x203B DUP4 PUSH2 0x2423 JUMP JUMPDEST SWAP3 POP PUSH1 0x20 DUP11 ADD SWAP10 POP POP PUSH1 0x1 DUP2 ADD SWAP1 POP PUSH2 0x2017 JUMP JUMPDEST POP DUP3 SWAP8 POP DUP8 SWAP6 POP POP POP POP POP POP SWAP3 SWAP2 POP POP JUMP JUMPDEST PUSH1 0x0 PUSH2 0x206C DUP3 PUSH2 0x2418 JUMP JUMPDEST PUSH2 0x2076 DUP2 DUP6 PUSH2 0x2441 JUMP JUMPDEST SWAP4 POP PUSH2 0x2086 DUP2 DUP6 PUSH1 0x20 DUP7 ADD PUSH2 0x24AE JUMP JUMPDEST PUSH2 0x208F DUP2 PUSH2 0x25EA JUMP JUMPDEST DUP5 ADD SWAP2 POP POP SWAP3 SWAP2 POP POP JUMP JUMPDEST PUSH1 0x0 PUSH2 0x20A5 DUP3 PUSH2 0x2418 JUMP JUMPDEST PUSH2 0x20AF DUP2 DUP6 PUSH2 0x2452 JUMP JUMPDEST SWAP4 POP PUSH2 0x20BF DUP2 DUP6 PUSH1 0x20 DUP7 ADD PUSH2 0x24AE JUMP JUMPDEST PUSH2 0x20C8 DUP2 PUSH2 0x25EA JUMP JUMPDEST DUP5 ADD SWAP2 POP POP SWAP3 SWAP2 POP POP JUMP JUMPDEST PUSH1 0x0 PUSH1 0xC0 DUP4 ADD PUSH1 0x0 DUP4 ADD MLOAD DUP5 DUP3 SUB PUSH1 0x0 DUP7 ADD MSTORE PUSH2 0x20F0 DUP3 DUP3 PUSH2 0x2061 JUMP JUMPDEST SWAP2 POP POP PUSH1 0x20 DUP4 ADD MLOAD DUP5 DUP3 SUB PUSH1 0x20 DUP7 ADD MSTORE PUSH2 0x210A DUP3 DUP3 PUSH2 0x2061 JUMP JUMPDEST SWAP2 POP POP PUSH1 0x40 DUP4 ADD MLOAD DUP5 DUP3 SUB PUSH1 0x40 DUP7 ADD MSTORE PUSH2 0x2124 DUP3 DUP3 PUSH2 0x2061 JUMP JUMPDEST SWAP2 POP POP PUSH1 0x60 DUP4 ADD MLOAD DUP5 DUP3 SUB PUSH1 0x60 DUP7 ADD MSTORE PUSH2 0x213E DUP3 DUP3 PUSH2 0x2061 JUMP JUMPDEST SWAP2 POP POP PUSH1 0x80 DUP4 ADD MLOAD DUP5 DUP3 SUB PUSH1 0x80 DUP7 ADD MSTORE PUSH2 0x2158 DUP3 DUP3 PUSH2 0x2061 JUMP JUMPDEST SWAP2 POP POP PUSH1 0xA0 DUP4 ADD MLOAD DUP5 DUP3 SUB PUSH1 0xA0 DUP7 ADD MSTORE PUSH2 0x2172 DUP3 DUP3 PUSH2 0x2061 JUMP JUMPDEST SWAP2 POP POP DUP1 SWAP2 POP POP SWAP3 SWAP2 POP POP JUMP JUMPDEST PUSH1 0x0 PUSH1 0xE0 DUP4 ADD PUSH1 0x0 DUP4 ADD MLOAD DUP5 DUP3 SUB PUSH1 0x0 DUP7 ADD MSTORE PUSH2 0x219C DUP3 DUP3 PUSH2 0x2061 JUMP JUMPDEST SWAP2 POP POP PUSH1 0x20 DUP4 ADD MLOAD PUSH2 0x21B1 PUSH1 0x20 DUP7 ADD DUP3 PUSH2 0x1FDD JUMP JUMPDEST POP PUSH1 0x40 DUP4 ADD MLOAD DUP5 DUP3 SUB PUSH1 0x40 DUP7 ADD MSTORE PUSH2 0x21C9 DUP3 DUP3 PUSH2 0x2061 JUMP JUMPDEST SWAP2 POP POP PUSH1 0x60 DUP4 ADD MLOAD DUP5 DUP3 SUB PUSH1 0x60 DUP7 ADD MSTORE PUSH2 0x21E3 DUP3 DUP3 PUSH2 0x2061 JUMP JUMPDEST SWAP2 POP POP PUSH1 0x80 DUP4 ADD MLOAD DUP5 DUP3 SUB PUSH1 0x80 DUP7 ADD MSTORE PUSH2 0x21FD DUP3 DUP3 PUSH2 0x2061 JUMP JUMPDEST SWAP2 POP POP PUSH1 0xA0 DUP4 ADD MLOAD DUP5 DUP3 SUB PUSH1 0xA0 DUP7 ADD MSTORE PUSH2 0x2217 DUP3 DUP3 PUSH2 0x2061 JUMP JUMPDEST SWAP2 POP POP PUSH1 0xC0 DUP4 ADD MLOAD PUSH2 0x222C PUSH1 0xC0 DUP7 ADD DUP3 PUSH2 0x2295 JUMP JUMPDEST POP DUP1 SWAP2 POP POP SWAP3 SWAP2 POP POP JUMP JUMPDEST PUSH1 0x0 PUSH1 0x60 DUP4 ADD PUSH1 0x0 DUP4 ADD MLOAD DUP5 DUP3 SUB PUSH1 0x0 DUP7 ADD MSTORE PUSH2 0x2254 DUP3 DUP3 PUSH2 0x1FEC JUMP JUMPDEST SWAP2 POP POP PUSH1 0x20 DUP4 ADD MLOAD DUP5 DUP3 SUB PUSH1 0x20 DUP7 ADD MSTORE PUSH2 0x226E DUP3 DUP3 PUSH2 0x1FEC JUMP JUMPDEST SWAP2 POP POP PUSH1 0x40 DUP4 ADD MLOAD DUP5 DUP3 SUB PUSH1 0x40 DUP7 ADD MSTORE PUSH2 0x2288 DUP3 DUP3 PUSH2 0x1FEC JUMP JUMPDEST SWAP2 POP POP DUP1 SWAP2 POP POP SWAP3 SWAP2 POP POP JUMP JUMPDEST PUSH2 0x229E DUP2 PUSH2 0x2495 JUMP JUMPDEST DUP3 MSTORE POP POP JUMP JUMPDEST PUSH2 0x22AD DUP2 PUSH2 0x2495 JUMP JUMPDEST DUP3 MSTORE POP POP JUMP JUMPDEST PUSH1 0x0 PUSH1 0x80 DUP3 ADD SWAP1 POP DUP2 DUP2 SUB PUSH1 0x0 DUP4 ADD MSTORE PUSH2 0x22CD DUP2 DUP8 PUSH2 0x209A JUMP JUMPDEST SWAP1 POP DUP2 DUP2 SUB PUSH1 0x20 DUP4 ADD MSTORE PUSH2 0x22E1 DUP2 DUP7 PUSH2 0x209A JUMP JUMPDEST SWAP1 POP DUP2 DUP2 SUB PUSH1 0x40 DUP4 ADD MSTORE PUSH2 0x22F5 DUP2 DUP6 PUSH2 0x209A JUMP JUMPDEST SWAP1 POP DUP2 DUP2 SUB PUSH1 0x60 DUP4 ADD MSTORE PUSH2 0x2309 DUP2 DUP5 PUSH2 0x209A JUMP JUMPDEST SWAP1 POP SWAP6 SWAP5 POP POP POP POP POP JUMP JUMPDEST PUSH1 0x0 PUSH1 0x60 DUP3 ADD SWAP1 POP DUP2 DUP2 SUB PUSH1 0x0 DUP4 ADD MSTORE PUSH2 0x232E DUP2 DUP7 PUSH2 0x217F JUMP JUMPDEST SWAP1 POP DUP2 DUP2 SUB PUSH1 0x20 DUP4 ADD MSTORE PUSH2 0x2342 DUP2 DUP6 PUSH2 0x20D3 JUMP JUMPDEST SWAP1 POP DUP2 DUP2 SUB PUSH1 0x40 DUP4 ADD MSTORE PUSH2 0x2356 DUP2 DUP5 PUSH2 0x2237 JUMP JUMPDEST SWAP1 POP SWAP5 SWAP4 POP POP POP POP JUMP JUMPDEST PUSH1 0x0 PUSH1 0x20 DUP3 ADD SWAP1 POP PUSH2 0x2375 PUSH1 0x0 DUP4 ADD DUP5 PUSH2 0x22A4 JUMP JUMPDEST SWAP3 SWAP2 POP POP JUMP JUMPDEST PUSH1 0x0 PUSH2 0x2385 PUSH2 0x2396 JUMP JUMPDEST SWAP1 POP PUSH2 0x2391 DUP3 DUP3 PUSH2 0x2513 JUMP JUMPDEST SWAP2 SWAP1 POP JUMP JUMPDEST PUSH1 0x0 PUSH1 0x40 MLOAD SWAP1 POP SWAP1 JUMP JUMPDEST PUSH1 0x0 PUSH8 0xFFFFFFFFFFFFFFFF DUP3 GT ISZERO PUSH2 0x23BB JUMPI PUSH2 0x23BA PUSH2 0x25A2 JUMP JUMPDEST JUMPDEST PUSH1 0x20 DUP3 MUL SWAP1 POP PUSH1 0x20 DUP2 ADD SWAP1 POP SWAP2 SWAP1 POP JUMP JUMPDEST PUSH1 0x0 PUSH8 0xFFFFFFFFFFFFFFFF DUP3 GT ISZERO PUSH2 0x23E7 JUMPI PUSH2 0x23E6 PUSH2 0x25A2 JUMP JUMPDEST JUMPDEST PUSH2 0x23F0 DUP3 PUSH2 0x25EA JUMP JUMPDEST SWAP1 POP PUSH1 0x20 DUP2 ADD SWAP1 POP SWAP2 SWAP1 POP JUMP JUMPDEST PUSH1 0x0 DUP2 SWAP1 POP PUSH1 0x20 DUP3 ADD SWAP1 POP SWAP2 SWAP1 POP JUMP JUMPDEST PUSH1 0x0 DUP2 MLOAD SWAP1 POP SWAP2 SWAP1 POP JUMP JUMPDEST PUSH1 0x0 DUP2 MLOAD SWAP1 POP SWAP2 SWAP1 POP JUMP JUMPDEST PUSH1 0x0 PUSH1 0x20 DUP3 ADD SWAP1 POP SWAP2 SWAP1 POP JUMP JUMPDEST PUSH1 0x0 DUP3 DUP3 MSTORE PUSH1 0x20 DUP3 ADD SWAP1 POP SWAP3 SWAP2 POP POP JUMP JUMPDEST PUSH1 0x0 DUP3 DUP3 MSTORE PUSH1 0x20 DUP3 ADD SWAP1 POP SWAP3 SWAP2 POP POP JUMP JUMPDEST PUSH1 0x0 DUP3 DUP3 MSTORE PUSH1 0x20 DUP3 ADD SWAP1 POP SWAP3 SWAP2 POP POP JUMP JUMPDEST PUSH1 0x0 PUSH2 0x246E DUP3 PUSH2 0x2475 JUMP JUMPDEST SWAP1 POP SWAP2 SWAP1 POP JUMP JUMPDEST PUSH1 0x0 PUSH20 0xFFFFFFFFFFFFFFFFFFFFFFFFFFFFFFFFFFFFFFFF DUP3 AND SWAP1 POP SWAP2 SWAP1 POP JUMP JUMPDEST PUSH1 0x0 DUP2 SWAP1 POP SWAP2 SWAP1 POP JUMP JUMPDEST DUP3 DUP2 DUP4 CALLDATACOPY PUSH1 0x0 DUP4 DUP4 ADD MSTORE POP POP POP JUMP JUMPDEST PUSH1 0x0 JUMPDEST DUP4 DUP2 LT ISZERO PUSH2 0x24CC JUMPI DUP1 DUP3 ADD MLOAD DUP2 DUP5 ADD MSTORE PUSH1 0x20 DUP2 ADD SWAP1 POP PUSH2 0x24B1 JUMP JUMPDEST DUP4 DUP2 GT ISZERO PUSH2 0x24DB JUMPI PUSH1 0x0 DUP5 DUP5 ADD MSTORE JUMPDEST POP POP POP POP JUMP JUMPDEST PUSH1 0x0 PUSH1 0x2 DUP3 DIV SWAP1 POP PUSH1 0x1 DUP3 AND DUP1 PUSH2 0x24F9 JUMPI PUSH1 0x7F DUP3 AND SWAP2 POP JUMPDEST PUSH1 0x20 DUP3 LT DUP2 EQ ISZERO PUSH2 0x250D JUMPI PUSH2 0x250C PUSH2 0x2544 JUMP JUMPDEST JUMPDEST POP SWAP2 SWAP1 POP JUMP JUMPDEST PUSH2 0x251C DUP3 PUSH2 0x25EA JUMP JUMPDEST DUP2 ADD DUP2 DUP2 LT PUSH8 0xFFFFFFFFFFFFFFFF DUP3 GT OR ISZERO PUSH2 0x253B JUMPI PUSH2 0x253A PUSH2 0x25A2 JUMP JUMPDEST JUMPDEST DUP1 PUSH1 0x40 MSTORE POP POP POP JUMP JUMPDEST PUSH32 0x4E487B7100000000000000000000000000000000000000000000000000000000 PUSH1 0x0 MSTORE PUSH1 0x22 PUSH1 0x4 MSTORE PUSH1 0x24 PUSH1 0x0 REVERT JUMPDEST PUSH32 0x4E487B7100000000000000000000000000000000000000000000000000000000 PUSH1 0x0 MSTORE PUSH1 0x32 PUSH1 0x4 MSTORE PUSH1 0x24 PUSH1 0x0 REVERT JUMPDEST PUSH32 0x4E487B7100000000000000000000000000000000000000000000000000000000 PUSH1 0x0 MSTORE PUSH1 0x41 PUSH1 0x4 MSTORE PUSH1 0x24 PUSH1 0x0 REVERT JUMPDEST PUSH1 0x0 DUP1 REVERT JUMPDEST PUSH1 0x0 DUP1 REVERT JUMPDEST PUSH1 0x0 DUP1 REVERT JUMPDEST PUSH1 0x0 DUP1 REVERT JUMPDEST PUSH1 0x0 DUP1 REVERT JUMPDEST PUSH1 0x0 PUSH1 0x1F NOT PUSH1 0x1F DUP4 ADD AND SWAP1 POP SWAP2 SWAP1 POP JUMP JUMPDEST PUSH2 0x2604 DUP2 PUSH2 0x2463 JUMP JUMPDEST DUP2 EQ PUSH2 0x260F JUMPI PUSH1 0x0 DUP1 REVERT JUMPDEST POP JUMP JUMPDEST PUSH2 0x261B DUP2 PUSH2 0x2495 JUMP JUMPDEST DUP2 EQ PUSH2 0x2626 JUMPI PUSH1 0x0 DUP1 REVERT JUMPDEST POP JUMP INVALID LOG2 PUSH5 0x6970667358 0x22 SLT KECCAK256 0xAE 0xC5 SGT LOG0 DUP8 SWAP2 CALLVALUE CALLCODE 0xAE CODECOPY SHL PUSH26 0x17AD42AC8FA6203241087BA5D825C3FFA4F9208964736F6C6343 STOP ADDMOD SMOD STOP CALLER "
				},
				"gasEstimates": {
					"creation": {
						"codeDepositCost": "1964600",
						"executionCost": "2077",
						"totalCost": "1966677"
					},
					"external": {
						"createContract(string,string,string,string,string)": "infinite",
						"createInformation(string,string,string,string,string)": "infinite",
						"createSkill(string[],string[],string[])": "infinite",
						"createUnivercity(string,string,string,string)": "infinite",
						"delAllEducation()": "infinite",
						"delInformaion()": "infinite",
						"delProfile()": "infinite",
						"getEducation(uint256)": "infinite",
						"getEducationCount()": "2563",
						"profile(address)": "infinite"
					}
				},
				"methodIdentifiers": {
					"createContract(string,string,string,string,string)": "72828388",
					"createInformation(string,string,string,string,string)": "aac80d7a",
					"createSkill(string[],string[],string[])": "3d984d0e",
					"createUnivercity(string,string,string,string)": "9d983a01",
					"delAllEducation()": "ed2217ef",
					"delInformaion()": "95ea3757",
					"delProfile()": "fabce08f",
					"getEducation(uint256)": "f96e32f8",
					"getEducationCount()": "6212fa02",
					"profile(address)": "9dd9d0fd"
				}
			},
			"storageLayout": {
				"storage": [
					{
						"astId": 20,
						"contract": "contracts/Profile.sol:Profile",
						"label": "profile",
						"offset": 0,
						"slot": "0",
						"type": "t_mapping(t_address,t_struct(Bio)15_storage)"
					}
				],
				"types": {
					"t_address": {
						"encoding": "inplace",
						"label": "address",
						"numberOfBytes": "20"
					},
					"t_array(t_string_storage)dyn_storage": {
						"base": "t_string_storage",
						"encoding": "dynamic_array",
						"label": "string[]",
						"numberOfBytes": "32"
					},
					"t_array(t_struct(Education)67_storage)dyn_storage": {
						"base": "t_struct(Education)67_storage",
						"encoding": "dynamic_array",
						"label": "struct Profile.Education[]",
						"numberOfBytes": "32"
					},
					"t_mapping(t_address,t_struct(Bio)15_storage)": {
						"encoding": "mapping",
						"key": "t_address",
						"label": "mapping(address => struct Profile.Bio)",
						"numberOfBytes": "32",
						"value": "t_struct(Bio)15_storage"
					},
					"t_string_storage": {
						"encoding": "bytes",
						"label": "string",
						"numberOfBytes": "32"
					},
					"t_struct(Bio)15_storage": {
						"encoding": "inplace",
						"label": "struct Profile.Bio",
						"members": [
							{
								"astId": 4,
								"contract": "contracts/Profile.sol:Profile",
								"label": "information",
								"offset": 0,
								"slot": "0",
								"type": "t_struct(Information)35_storage"
							},
							{
								"astId": 7,
								"contract": "contracts/Profile.sol:Profile",
								"label": "privateContract",
								"offset": 0,
								"slot": "7",
								"type": "t_struct(Contract)48_storage"
							},
							{
								"astId": 10,
								"contract": "contracts/Profile.sol:Profile",
								"label": "skill",
								"offset": 0,
								"slot": "13",
								"type": "t_struct(Skill)58_storage"
							},
							{
								"astId": 14,
								"contract": "contracts/Profile.sol:Profile",
								"label": "education",
								"offset": 0,
								"slot": "16",
								"type": "t_array(t_struct(Education)67_storage)dyn_storage"
							}
						],
						"numberOfBytes": "544"
					},
					"t_struct(Contract)48_storage": {
						"encoding": "inplace",
						"label": "struct Profile.Contract",
						"members": [
							{
								"astId": 37,
								"contract": "contracts/Profile.sol:Profile",
								"label": "aboutMe",
								"offset": 0,
								"slot": "0",
								"type": "t_string_storage"
							},
							{
								"astId": 39,
								"contract": "contracts/Profile.sol:Profile",
								"label": "email",
								"offset": 0,
								"slot": "1",
								"type": "t_string_storage"
							},
							{
								"astId": 41,
								"contract": "contracts/Profile.sol:Profile",
								"label": "phone",
								"offset": 0,
								"slot": "2",
								"type": "t_string_storage"
							},
							{
								"astId": 43,
								"contract": "contracts/Profile.sol:Profile",
								"label": "github",
								"offset": 0,
								"slot": "3",
								"type": "t_string_storage"
							},
							{
								"astId": 45,
								"contract": "contracts/Profile.sol:Profile",
								"label": "gitlab",
								"offset": 0,
								"slot": "4",
								"type": "t_string_storage"
							},
							{
								"astId": 47,
								"contract": "contracts/Profile.sol:Profile",
								"label": "linkin",
								"offset": 0,
								"slot": "5",
								"type": "t_string_storage"
							}
						],
						"numberOfBytes": "192"
					},
					"t_struct(Education)67_storage": {
						"encoding": "inplace",
						"label": "struct Profile.Education",
						"members": [
							{
								"astId": 60,
								"contract": "contracts/Profile.sol:Profile",
								"label": "startDate",
								"offset": 0,
								"slot": "0",
								"type": "t_string_storage"
							},
							{
								"astId": 62,
								"contract": "contracts/Profile.sol:Profile",
								"label": "endDate",
								"offset": 0,
								"slot": "1",
								"type": "t_string_storage"
							},
							{
								"astId": 64,
								"contract": "contracts/Profile.sol:Profile",
								"label": "univercity",
								"offset": 0,
								"slot": "2",
								"type": "t_string_storage"
							},
							{
								"astId": 66,
								"contract": "contracts/Profile.sol:Profile",
								"label": "major",
								"offset": 0,
								"slot": "3",
								"type": "t_string_storage"
							}
						],
						"numberOfBytes": "128"
					},
					"t_struct(Information)35_storage": {
						"encoding": "inplace",
						"label": "struct Profile.Information",
						"members": [
							{
								"astId": 22,
								"contract": "contracts/Profile.sol:Profile",
								"label": "aboutMe",
								"offset": 0,
								"slot": "0",
								"type": "t_string_storage"
							},
							{
								"astId": 24,
								"contract": "contracts/Profile.sol:Profile",
								"label": "userAddress",
								"offset": 0,
								"slot": "1",
								"type": "t_address"
							},
							{
								"astId": 26,
								"contract": "contracts/Profile.sol:Profile",
								"label": "firstName",
								"offset": 0,
								"slot": "2",
								"type": "t_string_storage"
							},
							{
								"astId": 28,
								"contract": "contracts/Profile.sol:Profile",
								"label": "middleName",
								"offset": 0,
								"slot": "3",
								"type": "t_string_storage"
							},
							{
								"astId": 30,
								"contract": "contracts/Profile.sol:Profile",
								"label": "lastName",
								"offset": 0,
								"slot": "4",
								"type": "t_string_storage"
							},
							{
								"astId": 32,
								"contract": "contracts/Profile.sol:Profile",
								"label": "profileImage",
								"offset": 0,
								"slot": "5",
								"type": "t_string_storage"
							},
							{
								"astId": 34,
								"contract": "contracts/Profile.sol:Profile",
								"label": "createDate",
								"offset": 0,
								"slot": "6",
								"type": "t_uint256"
							}
						],
						"numberOfBytes": "224"
					},
					"t_struct(Skill)58_storage": {
						"encoding": "inplace",
						"label": "struct Profile.Skill",
						"members": [
							{
								"astId": 51,
								"contract": "contracts/Profile.sol:Profile",
								"label": "programmingLanguages",
								"offset": 0,
								"slot": "0",
								"type": "t_array(t_string_storage)dyn_storage"
							},
							{
								"astId": 54,
								"contract": "contracts/Profile.sol:Profile",
								"label": "framework",
								"offset": 0,
								"slot": "1",
								"type": "t_array(t_string_storage)dyn_storage"
							},
							{
								"astId": 57,
								"contract": "contracts/Profile.sol:Profile",
								"label": "databaseAndOther",
								"offset": 0,
								"slot": "2",
								"type": "t_array(t_string_storage)dyn_storage"
							}
						],
						"numberOfBytes": "96"
					},
					"t_uint256": {
						"encoding": "inplace",
						"label": "uint256",
						"numberOfBytes": "32"
					}
				}
			},
			"userdoc": {
				"kind": "user",
				"methods": {},
				"version": 1
			}
		}
	}
}