{
	"contracts/Profile.sol": {
		"Profile": {
			"abi": [
				{
					"inputs": [
						{
							"internalType": "string",
							"name": "firstName",
							"type": "string"
						},
						{
							"internalType": "string",
							"name": "middleName",
							"type": "string"
						},
						{
							"internalType": "string",
							"name": "lastName",
							"type": "string"
						},
						{
							"internalType": "string",
							"name": "email",
							"type": "string"
						},
						{
							"internalType": "string",
							"name": "phone",
							"type": "string"
						},
						{
							"internalType": "string",
							"name": "profileImage",
							"type": "string"
						},
						{
							"internalType": "string[]",
							"name": "frontend",
							"type": "string[]"
						},
						{
							"internalType": "string[]",
							"name": "backend",
							"type": "string[]"
						},
						{
							"internalType": "string[]",
							"name": "framework",
							"type": "string[]"
						}
					],
					"name": "addBio",
					"outputs": [],
					"stateMutability": "nonpayable",
					"type": "function"
				},
				{
					"inputs": [
						{
							"internalType": "string[]",
							"name": "_frontend",
							"type": "string[]"
						},
						{
							"internalType": "uint8",
							"name": "_type",
							"type": "uint8"
						}
					],
					"name": "addSkill",
					"outputs": [],
					"stateMutability": "nonpayable",
					"type": "function"
				},
				{
					"inputs": [],
					"name": "delProfile",
					"outputs": [],
					"stateMutability": "nonpayable",
					"type": "function"
				},
				{
					"inputs": [
						{
							"internalType": "address",
							"name": "",
							"type": "address"
						}
					],
					"name": "profile",
					"outputs": [
						{
							"internalType": "address",
							"name": "userAddress",
							"type": "address"
						},
						{
							"internalType": "string",
							"name": "firstName",
							"type": "string"
						},
						{
							"internalType": "string",
							"name": "middleName",
							"type": "string"
						},
						{
							"internalType": "string",
							"name": "lastName",
							"type": "string"
						},
						{
							"internalType": "string",
							"name": "email",
							"type": "string"
						},
						{
							"internalType": "string",
							"name": "phone",
							"type": "string"
						},
						{
							"internalType": "string",
							"name": "profileImage",
							"type": "string"
						},
						{
							"internalType": "uint256",
							"name": "createDate",
							"type": "uint256"
						}
					],
					"stateMutability": "view",
					"type": "function"
				}
			],
			"devdoc": {
				"kind": "dev",
				"methods": {},
				"version": 1
			},
			"evm": {
				"assembly": "    /* \"contracts/Profile.sol\":60:2143  contract Profile {\r... */\n  mstore(0x40, 0x80)\n  callvalue\n  dup1\n  iszero\n  tag_1\n  jumpi\n  0x00\n  dup1\n  revert\ntag_1:\n  pop\n  dataSize(sub_0)\n  dup1\n  dataOffset(sub_0)\n  0x00\n  codecopy\n  0x00\n  return\nstop\n\nsub_0: assembly {\n        /* \"contracts/Profile.sol\":60:2143  contract Profile {\r... */\n      mstore(0x40, 0x80)\n      callvalue\n      dup1\n      iszero\n      tag_1\n      jumpi\n      0x00\n      dup1\n      revert\n    tag_1:\n      pop\n      jumpi(tag_2, lt(calldatasize, 0x04))\n      shr(0xe0, calldataload(0x00))\n      dup1\n      0x9dd9d0fd\n      eq\n      tag_3\n      jumpi\n      dup1\n      0xbc5c05a8\n      eq\n      tag_4\n      jumpi\n      dup1\n      0xca679f1d\n      eq\n      tag_5\n      jumpi\n      dup1\n      0xfabce08f\n      eq\n      tag_6\n      jumpi\n    tag_2:\n      0x00\n      dup1\n      revert\n        /* \"contracts/Profile.sol\":411:451  mapping (address => Bio) public  profile */\n    tag_3:\n      tag_7\n      0x04\n      dup1\n      calldatasize\n      sub\n      dup2\n      add\n      swap1\n      tag_8\n      swap2\n      swap1\n      tag_9\n      jump\t// in\n    tag_8:\n      tag_10\n      jump\t// in\n    tag_7:\n      mload(0x40)\n      tag_11\n      swap9\n      swap8\n      swap7\n      swap6\n      swap5\n      swap4\n      swap3\n      swap2\n      swap1\n      tag_12\n      jump\t// in\n    tag_11:\n      mload(0x40)\n      dup1\n      swap2\n      sub\n      swap1\n      return\n        /* \"contracts/Profile.sol\":1365:2054  function addSkill(string[] memory _frontend, uint8 _type) public {\r... */\n    tag_4:\n      tag_13\n      0x04\n      dup1\n      calldatasize\n      sub\n      dup2\n      add\n      swap1\n      tag_14\n      swap2\n      swap1\n      tag_15\n      jump\t// in\n    tag_14:\n      tag_16\n      jump\t// in\n    tag_13:\n      stop\n        /* \"contracts/Profile.sol\":590:1357  function addBio(string memory firstName, string memory middleName, string memory lastName, string memory email, string memory phone, string memory profileImage, string[] memory frontend, string[] memory backend, string[] memory framework) public {\r... */\n    tag_5:\n      tag_17\n      0x04\n      dup1\n      calldatasize\n      sub\n      dup2\n      add\n      swap1\n      tag_18\n      swap2\n      swap1\n      tag_19\n      jump\t// in\n    tag_18:\n      tag_20\n      jump\t// in\n    tag_17:\n      stop\n        /* \"contracts/Profile.sol\":2062:2136  function delProfile() public {\r... */\n    tag_6:\n      tag_21\n      tag_22\n      jump\t// in\n    tag_21:\n      stop\n        /* \"contracts/Profile.sol\":411:451  mapping (address => Bio) public  profile */\n    tag_10:\n      mstore(0x20, 0x00)\n      dup1\n      0x00\n      mstore\n      keccak256(0x00, 0x40)\n      0x00\n      swap2\n      pop\n      swap1\n      pop\n      dup1\n      0x00\n      add\n      0x00\n      swap1\n      sload\n      swap1\n      0x0100\n      exp\n      swap1\n      div\n      0xffffffffffffffffffffffffffffffffffffffff\n      and\n      swap1\n      dup1\n      0x01\n      add\n      dup1\n      sload\n      tag_23\n      swap1\n      tag_24\n      jump\t// in\n    tag_23:\n      dup1\n      0x1f\n      add\n      0x20\n      dup1\n      swap2\n      div\n      mul\n      0x20\n      add\n      mload(0x40)\n      swap1\n      dup2\n      add\n      0x40\n      mstore\n      dup1\n      swap3\n      swap2\n      swap1\n      dup2\n      dup2\n      mstore\n      0x20\n      add\n      dup3\n      dup1\n      sload\n      tag_25\n      swap1\n      tag_24\n      jump\t// in\n    tag_25:\n      dup1\n      iszero\n      tag_26\n      jumpi\n      dup1\n      0x1f\n      lt\n      tag_27\n      jumpi\n      0x0100\n      dup1\n      dup4\n      sload\n      div\n      mul\n      dup4\n      mstore\n      swap2\n      0x20\n      add\n      swap2\n      jump(tag_26)\n    tag_27:\n      dup3\n      add\n      swap2\n      swap1\n      0x00\n      mstore\n      keccak256(0x00, 0x20)\n      swap1\n    tag_28:\n      dup2\n      sload\n      dup2\n      mstore\n      swap1\n      0x01\n      add\n      swap1\n      0x20\n      add\n      dup1\n      dup4\n      gt\n      tag_28\n      jumpi\n      dup3\n      swap1\n      sub\n      0x1f\n      and\n      dup3\n      add\n      swap2\n    tag_26:\n      pop\n      pop\n      pop\n      pop\n      pop\n      swap1\n      dup1\n      0x02\n      add\n      dup1\n      sload\n      tag_29\n      swap1\n      tag_24\n      jump\t// in\n    tag_29:\n      dup1\n      0x1f\n      add\n      0x20\n      dup1\n      swap2\n      div\n      mul\n      0x20\n      add\n      mload(0x40)\n      swap1\n      dup2\n      add\n      0x40\n      mstore\n      dup1\n      swap3\n      swap2\n      swap1\n      dup2\n      dup2\n      mstore\n      0x20\n      add\n      dup3\n      dup1\n      sload\n      tag_30\n      swap1\n      tag_24\n      jump\t// in\n    tag_30:\n      dup1\n      iszero\n      tag_31\n      jumpi\n      dup1\n      0x1f\n      lt\n      tag_32\n      jumpi\n      0x0100\n      dup1\n      dup4\n      sload\n      div\n      mul\n      dup4\n      mstore\n      swap2\n      0x20\n      add\n      swap2\n      jump(tag_31)\n    tag_32:\n      dup3\n      add\n      swap2\n      swap1\n      0x00\n      mstore\n      keccak256(0x00, 0x20)\n      swap1\n    tag_33:\n      dup2\n      sload\n      dup2\n      mstore\n      swap1\n      0x01\n      add\n      swap1\n      0x20\n      add\n      dup1\n      dup4\n      gt\n      tag_33\n      jumpi\n      dup3\n      swap1\n      sub\n      0x1f\n      and\n      dup3\n      add\n      swap2\n    tag_31:\n      pop\n      pop\n      pop\n      pop\n      pop\n      swap1\n      dup1\n      0x03\n      add\n      dup1\n      sload\n      tag_34\n      swap1\n      tag_24\n      jump\t// in\n    tag_34:\n      dup1\n      0x1f\n      add\n      0x20\n      dup1\n      swap2\n      div\n      mul\n      0x20\n      add\n      mload(0x40)\n      swap1\n      dup2\n      add\n      0x40\n      mstore\n      dup1\n      swap3\n      swap2\n      swap1\n      dup2\n      dup2\n      mstore\n      0x20\n      add\n      dup3\n      dup1\n      sload\n      tag_35\n      swap1\n      tag_24\n      jump\t// in\n    tag_35:\n      dup1\n      iszero\n      tag_36\n      jumpi\n      dup1\n      0x1f\n      lt\n      tag_37\n      jumpi\n      0x0100\n      dup1\n      dup4\n      sload\n      div\n      mul\n      dup4\n      mstore\n      swap2\n      0x20\n      add\n      swap2\n      jump(tag_36)\n    tag_37:\n      dup3\n      add\n      swap2\n      swap1\n      0x00\n      mstore\n      keccak256(0x00, 0x20)\n      swap1\n    tag_38:\n      dup2\n      sload\n      dup2\n      mstore\n      swap1\n      0x01\n      add\n      swap1\n      0x20\n      add\n      dup1\n      dup4\n      gt\n      tag_38\n      jumpi\n      dup3\n      swap1\n      sub\n      0x1f\n      and\n      dup3\n      add\n      swap2\n    tag_36:\n      pop\n      pop\n      pop\n      pop\n      pop\n      swap1\n      dup1\n      0x04\n      add\n      dup1\n      sload\n      tag_39\n      swap1\n      tag_24\n      jump\t// in\n    tag_39:\n      dup1\n      0x1f\n      add\n      0x20\n      dup1\n      swap2\n      div\n      mul\n      0x20\n      add\n      mload(0x40)\n      swap1\n      dup2\n      add\n      0x40\n      mstore\n      dup1\n      swap3\n      swap2\n      swap1\n      dup2\n      dup2\n      mstore\n      0x20\n      add\n      dup3\n      dup1\n      sload\n      tag_40\n      swap1\n      tag_24\n      jump\t// in\n    tag_40:\n      dup1\n      iszero\n      tag_41\n      jumpi\n      dup1\n      0x1f\n      lt\n      tag_42\n      jumpi\n      0x0100\n      dup1\n      dup4\n      sload\n      div\n      mul\n      dup4\n      mstore\n      swap2\n      0x20\n      add\n      swap2\n      jump(tag_41)\n    tag_42:\n      dup3\n      add\n      swap2\n      swap1\n      0x00\n      mstore\n      keccak256(0x00, 0x20)\n      swap1\n    tag_43:\n      dup2\n      sload\n      dup2\n      mstore\n      swap1\n      0x01\n      add\n      swap1\n      0x20\n      add\n      dup1\n      dup4\n      gt\n      tag_43\n      jumpi\n      dup3\n      swap1\n      sub\n      0x1f\n      and\n      dup3\n      add\n      swap2\n    tag_41:\n      pop\n      pop\n      pop\n      pop\n      pop\n      swap1\n      dup1\n      0x05\n      add\n      dup1\n      sload\n      tag_44\n      swap1\n      tag_24\n      jump\t// in\n    tag_44:\n      dup1\n      0x1f\n      add\n      0x20\n      dup1\n      swap2\n      div\n      mul\n      0x20\n      add\n      mload(0x40)\n      swap1\n      dup2\n      add\n      0x40\n      mstore\n      dup1\n      swap3\n      swap2\n      swap1\n      dup2\n      dup2\n      mstore\n      0x20\n      add\n      dup3\n      dup1\n      sload\n      tag_45\n      swap1\n      tag_24\n      jump\t// in\n    tag_45:\n      dup1\n      iszero\n      tag_46\n      jumpi\n      dup1\n      0x1f\n      lt\n      tag_47\n      jumpi\n      0x0100\n      dup1\n      dup4\n      sload\n      div\n      mul\n      dup4\n      mstore\n      swap2\n      0x20\n      add\n      swap2\n      jump(tag_46)\n    tag_47:\n      dup3\n      add\n      swap2\n      swap1\n      0x00\n      mstore\n      keccak256(0x00, 0x20)\n      swap1\n    tag_48:\n      dup2\n      sload\n      dup2\n      mstore\n      swap1\n      0x01\n      add\n      swap1\n      0x20\n      add\n      dup1\n      dup4\n      gt\n      tag_48\n      jumpi\n      dup3\n      swap1\n      sub\n      0x1f\n      and\n      dup3\n      add\n      swap2\n    tag_46:\n      pop\n      pop\n      pop\n      pop\n      pop\n      swap1\n      dup1\n      0x06\n      add\n      dup1\n      sload\n      tag_49\n      swap1\n      tag_24\n      jump\t// in\n    tag_49:\n      dup1\n      0x1f\n      add\n      0x20\n      dup1\n      swap2\n      div\n      mul\n      0x20\n      add\n      mload(0x40)\n      swap1\n      dup2\n      add\n      0x40\n      mstore\n      dup1\n      swap3\n      swap2\n      swap1\n      dup2\n      dup2\n      mstore\n      0x20\n      add\n      dup3\n      dup1\n      sload\n      tag_50\n      swap1\n      tag_24\n      jump\t// in\n    tag_50:\n      dup1\n      iszero\n      tag_51\n      jumpi\n      dup1\n      0x1f\n      lt\n      tag_52\n      jumpi\n      0x0100\n      dup1\n      dup4\n      sload\n      div\n      mul\n      dup4\n      mstore\n      swap2\n      0x20\n      add\n      swap2\n      jump(tag_51)\n    tag_52:\n      dup3\n      add\n      swap2\n      swap1\n      0x00\n      mstore\n      keccak256(0x00, 0x20)\n      swap1\n    tag_53:\n      dup2\n      sload\n      dup2\n      mstore\n      swap1\n      0x01\n      add\n      swap1\n      0x20\n      add\n      dup1\n      dup4\n      gt\n      tag_53\n      jumpi\n      dup3\n      swap1\n      sub\n      0x1f\n      and\n      dup3\n      add\n      swap2\n    tag_51:\n      pop\n      pop\n      pop\n      pop\n      pop\n      swap1\n      dup1\n      0x07\n      add\n      sload\n      swap1\n      pop\n      dup9\n      jump\t// out\n        /* \"contracts/Profile.sol\":1365:2054  function addSkill(string[] memory _frontend, uint8 _type) public {\r... */\n    tag_16:\n        /* \"contracts/Profile.sol\":1484:1485  0 */\n      0x00\n        /* \"contracts/Profile.sol\":1475:1480  _type */\n      dup2\n        /* \"contracts/Profile.sol\":1475:1485  _type == 0 */\n      0xff\n      and\n      eq\n        /* \"contracts/Profile.sol\":1472:1636  if(_type == 0){\r... */\n      iszero\n      tag_55\n      jumpi\n        /* \"contracts/Profile.sol\":1505:1512  uint8 i */\n      0x00\n        /* \"contracts/Profile.sol\":1501:1625  for(uint8 i=0; i < _frontend.length; i++) {\r... */\n    tag_56:\n        /* \"contracts/Profile.sol\":1520:1529  _frontend */\n      dup3\n        /* \"contracts/Profile.sol\":1520:1536  _frontend.length */\n      mload\n        /* \"contracts/Profile.sol\":1516:1517  i */\n      dup2\n        /* \"contracts/Profile.sol\":1516:1536  i < _frontend.length */\n      0xff\n      and\n      lt\n        /* \"contracts/Profile.sol\":1501:1625  for(uint8 i=0; i < _frontend.length; i++) {\r... */\n      iszero\n      tag_57\n      jumpi\n        /* \"contracts/Profile.sol\":1562:1569  profile */\n      0x00\n        /* \"contracts/Profile.sol\":1562:1581  profile[msg.sender] */\n      dup1\n        /* \"contracts/Profile.sol\":1570:1580  msg.sender */\n      caller\n        /* \"contracts/Profile.sol\":1562:1581  profile[msg.sender] */\n      0xffffffffffffffffffffffffffffffffffffffff\n      and\n      0xffffffffffffffffffffffffffffffffffffffff\n      and\n      dup2\n      mstore\n      0x20\n      add\n      swap1\n      dup2\n      mstore\n      0x20\n      add\n      0x00\n      keccak256\n        /* \"contracts/Profile.sol\":1562:1590  profile[msg.sender].frontend */\n      0x08\n      add\n        /* \"contracts/Profile.sol\":1596:1605  _frontend */\n      dup4\n        /* \"contracts/Profile.sol\":1606:1607  i */\n      dup3\n        /* \"contracts/Profile.sol\":1596:1608  _frontend[i] */\n      0xff\n      and\n      dup2\n      mload\n      dup2\n      lt\n      tag_59\n      jumpi\n      tag_60\n      tag_61\n      jump\t// in\n    tag_60:\n    tag_59:\n      0x20\n      mul\n      0x20\n      add\n      add\n      mload\n        /* \"contracts/Profile.sol\":1562:1609  profile[msg.sender].frontend.push(_frontend[i]) */\n      swap1\n      dup1\n      0x01\n      dup2\n      sload\n      add\n      dup1\n      dup3\n      sstore\n      dup1\n      swap2\n      pop\n      pop\n      0x01\n      swap1\n      sub\n      swap1\n      0x00\n      mstore\n      keccak256(0x00, 0x20)\n      add\n      0x00\n      swap1\n      swap2\n      swap1\n      swap2\n      swap1\n      swap2\n      pop\n      swap1\n      dup1\n      mload\n      swap1\n      0x20\n      add\n      swap1\n      tag_63\n      swap3\n      swap2\n      swap1\n      tag_64\n      jump\t// in\n    tag_63:\n      pop\n        /* \"contracts/Profile.sol\":1538:1541  i++ */\n      dup1\n      dup1\n      tag_65\n      swap1\n      tag_66\n      jump\t// in\n    tag_65:\n      swap2\n      pop\n      pop\n        /* \"contracts/Profile.sol\":1501:1625  for(uint8 i=0; i < _frontend.length; i++) {\r... */\n      jump(tag_56)\n    tag_57:\n      pop\n        /* \"contracts/Profile.sol\":1472:1636  if(_type == 0){\r... */\n    tag_55:\n        /* \"contracts/Profile.sol\":1689:1690  1 */\n      0x01\n        /* \"contracts/Profile.sol\":1680:1685  _type */\n      dup2\n        /* \"contracts/Profile.sol\":1680:1690  _type == 1 */\n      0xff\n      and\n      eq\n        /* \"contracts/Profile.sol\":1677:1840  if(_type == 1){\r... */\n      iszero\n      tag_67\n      jumpi\n        /* \"contracts/Profile.sol\":1710:1717  uint8 i */\n      0x00\n        /* \"contracts/Profile.sol\":1706:1829  for(uint8 i=0; i < _frontend.length; i++) {\r... */\n    tag_68:\n        /* \"contracts/Profile.sol\":1725:1734  _frontend */\n      dup3\n        /* \"contracts/Profile.sol\":1725:1741  _frontend.length */\n      mload\n        /* \"contracts/Profile.sol\":1721:1722  i */\n      dup2\n        /* \"contracts/Profile.sol\":1721:1741  i < _frontend.length */\n      0xff\n      and\n      lt\n        /* \"contracts/Profile.sol\":1706:1829  for(uint8 i=0; i < _frontend.length; i++) {\r... */\n      iszero\n      tag_69\n      jumpi\n        /* \"contracts/Profile.sol\":1767:1774  profile */\n      0x00\n        /* \"contracts/Profile.sol\":1767:1786  profile[msg.sender] */\n      dup1\n        /* \"contracts/Profile.sol\":1775:1785  msg.sender */\n      caller\n        /* \"contracts/Profile.sol\":1767:1786  profile[msg.sender] */\n      0xffffffffffffffffffffffffffffffffffffffff\n      and\n      0xffffffffffffffffffffffffffffffffffffffff\n      and\n      dup2\n      mstore\n      0x20\n      add\n      swap1\n      dup2\n      mstore\n      0x20\n      add\n      0x00\n      keccak256\n        /* \"contracts/Profile.sol\":1767:1794  profile[msg.sender].backend */\n      0x09\n      add\n        /* \"contracts/Profile.sol\":1800:1809  _frontend */\n      dup4\n        /* \"contracts/Profile.sol\":1810:1811  i */\n      dup3\n        /* \"contracts/Profile.sol\":1800:1812  _frontend[i] */\n      0xff\n      and\n      dup2\n      mload\n      dup2\n      lt\n      tag_71\n      jumpi\n      tag_72\n      tag_61\n      jump\t// in\n    tag_72:\n    tag_71:\n      0x20\n      mul\n      0x20\n      add\n      add\n      mload\n        /* \"contracts/Profile.sol\":1767:1813  profile[msg.sender].backend.push(_frontend[i]) */\n      swap1\n      dup1\n      0x01\n      dup2\n      sload\n      add\n      dup1\n      dup3\n      sstore\n      dup1\n      swap2\n      pop\n      pop\n      0x01\n      swap1\n      sub\n      swap1\n      0x00\n      mstore\n      keccak256(0x00, 0x20)\n      add\n      0x00\n      swap1\n      swap2\n      swap1\n      swap2\n      swap1\n      swap2\n      pop\n      swap1\n      dup1\n      mload\n      swap1\n      0x20\n      add\n      swap1\n      tag_74\n      swap3\n      swap2\n      swap1\n      tag_64\n      jump\t// in\n    tag_74:\n      pop\n        /* \"contracts/Profile.sol\":1743:1746  i++ */\n      dup1\n      dup1\n      tag_75\n      swap1\n      tag_66\n      jump\t// in\n    tag_75:\n      swap2\n      pop\n      pop\n        /* \"contracts/Profile.sol\":1706:1829  for(uint8 i=0; i < _frontend.length; i++) {\r... */\n      jump(tag_68)\n    tag_69:\n      pop\n        /* \"contracts/Profile.sol\":1677:1840  if(_type == 1){\r... */\n    tag_67:\n        /* \"contracts/Profile.sol\":1894:1895  2 */\n      0x02\n        /* \"contracts/Profile.sol\":1885:1890  _type */\n      dup2\n        /* \"contracts/Profile.sol\":1885:1895  _type == 2 */\n      0xff\n      and\n      eq\n        /* \"contracts/Profile.sol\":1882:2047  if(_type == 2){\r... */\n      iszero\n      tag_76\n      jumpi\n        /* \"contracts/Profile.sol\":1915:1922  uint8 i */\n      0x00\n        /* \"contracts/Profile.sol\":1911:2036  for(uint8 i=0; i < _frontend.length; i++) {\r... */\n    tag_77:\n        /* \"contracts/Profile.sol\":1930:1939  _frontend */\n      dup3\n        /* \"contracts/Profile.sol\":1930:1946  _frontend.length */\n      mload\n        /* \"contracts/Profile.sol\":1926:1927  i */\n      dup2\n        /* \"contracts/Profile.sol\":1926:1946  i < _frontend.length */\n      0xff\n      and\n      lt\n        /* \"contracts/Profile.sol\":1911:2036  for(uint8 i=0; i < _frontend.length; i++) {\r... */\n      iszero\n      tag_78\n      jumpi\n        /* \"contracts/Profile.sol\":1972:1979  profile */\n      0x00\n        /* \"contracts/Profile.sol\":1972:1991  profile[msg.sender] */\n      dup1\n        /* \"contracts/Profile.sol\":1980:1990  msg.sender */\n      caller\n        /* \"contracts/Profile.sol\":1972:1991  profile[msg.sender] */\n      0xffffffffffffffffffffffffffffffffffffffff\n      and\n      0xffffffffffffffffffffffffffffffffffffffff\n      and\n      dup2\n      mstore\n      0x20\n      add\n      swap1\n      dup2\n      mstore\n      0x20\n      add\n      0x00\n      keccak256\n        /* \"contracts/Profile.sol\":1972:2001  profile[msg.sender].framework */\n      0x0a\n      add\n        /* \"contracts/Profile.sol\":2007:2016  _frontend */\n      dup4\n        /* \"contracts/Profile.sol\":2017:2018  i */\n      dup3\n        /* \"contracts/Profile.sol\":2007:2019  _frontend[i] */\n      0xff\n      and\n      dup2\n      mload\n      dup2\n      lt\n      tag_80\n      jumpi\n      tag_81\n      tag_61\n      jump\t// in\n    tag_81:\n    tag_80:\n      0x20\n      mul\n      0x20\n      add\n      add\n      mload\n        /* \"contracts/Profile.sol\":1972:2020  profile[msg.sender].framework.push(_frontend[i]) */\n      swap1\n      dup1\n      0x01\n      dup2\n      sload\n      add\n      dup1\n      dup3\n      sstore\n      dup1\n      swap2\n      pop\n      pop\n      0x01\n      swap1\n      sub\n      swap1\n      0x00\n      mstore\n      keccak256(0x00, 0x20)\n      add\n      0x00\n      swap1\n      swap2\n      swap1\n      swap2\n      swap1\n      swap2\n      pop\n      swap1\n      dup1\n      mload\n      swap1\n      0x20\n      add\n      swap1\n      tag_83\n      swap3\n      swap2\n      swap1\n      tag_64\n      jump\t// in\n    tag_83:\n      pop\n        /* \"contracts/Profile.sol\":1948:1951  i++ */\n      dup1\n      dup1\n      tag_84\n      swap1\n      tag_66\n      jump\t// in\n    tag_84:\n      swap2\n      pop\n      pop\n        /* \"contracts/Profile.sol\":1911:2036  for(uint8 i=0; i < _frontend.length; i++) {\r... */\n      jump(tag_77)\n    tag_78:\n      pop\n        /* \"contracts/Profile.sol\":1882:2047  if(_type == 2){\r... */\n    tag_76:\n        /* \"contracts/Profile.sol\":1365:2054  function addSkill(string[] memory _frontend, uint8 _type) public {\r... */\n      pop\n      pop\n      jump\t// out\n        /* \"contracts/Profile.sol\":590:1357  function addBio(string memory firstName, string memory middleName, string memory lastName, string memory email, string memory phone, string memory profileImage, string[] memory frontend, string[] memory backend, string[] memory framework) public {\r... */\n    tag_20:\n        /* \"contracts/Profile.sol\":879:888  firstName */\n      dup9\n        /* \"contracts/Profile.sol\":847:854  profile */\n      0x00\n        /* \"contracts/Profile.sol\":847:866  profile[msg.sender] */\n      dup1\n        /* \"contracts/Profile.sol\":855:865  msg.sender */\n      caller\n        /* \"contracts/Profile.sol\":847:866  profile[msg.sender] */\n      0xffffffffffffffffffffffffffffffffffffffff\n      and\n      0xffffffffffffffffffffffffffffffffffffffff\n      and\n      dup2\n      mstore\n      0x20\n      add\n      swap1\n      dup2\n      mstore\n      0x20\n      add\n      0x00\n      keccak256\n        /* \"contracts/Profile.sol\":847:876  profile[msg.sender].firstName */\n      0x01\n      add\n        /* \"contracts/Profile.sol\":847:888  profile[msg.sender].firstName = firstName */\n      swap1\n      dup1\n      mload\n      swap1\n      0x20\n      add\n      swap1\n      tag_86\n      swap3\n      swap2\n      swap1\n      tag_64\n      jump\t// in\n    tag_86:\n      pop\n        /* \"contracts/Profile.sol\":932:942  middleName */\n      dup8\n        /* \"contracts/Profile.sol\":899:906  profile */\n      0x00\n        /* \"contracts/Profile.sol\":899:918  profile[msg.sender] */\n      dup1\n        /* \"contracts/Profile.sol\":907:917  msg.sender */\n      caller\n        /* \"contracts/Profile.sol\":899:918  profile[msg.sender] */\n      0xffffffffffffffffffffffffffffffffffffffff\n      and\n      0xffffffffffffffffffffffffffffffffffffffff\n      and\n      dup2\n      mstore\n      0x20\n      add\n      swap1\n      dup2\n      mstore\n      0x20\n      add\n      0x00\n      keccak256\n        /* \"contracts/Profile.sol\":899:929  profile[msg.sender].middleName */\n      0x02\n      add\n        /* \"contracts/Profile.sol\":899:942  profile[msg.sender].middleName = middleName */\n      swap1\n      dup1\n      mload\n      swap1\n      0x20\n      add\n      swap1\n      tag_87\n      swap3\n      swap2\n      swap1\n      tag_64\n      jump\t// in\n    tag_87:\n      pop\n        /* \"contracts/Profile.sol\":984:992  lastName */\n      dup7\n        /* \"contracts/Profile.sol\":953:960  profile */\n      0x00\n        /* \"contracts/Profile.sol\":953:972  profile[msg.sender] */\n      dup1\n        /* \"contracts/Profile.sol\":961:971  msg.sender */\n      caller\n        /* \"contracts/Profile.sol\":953:972  profile[msg.sender] */\n      0xffffffffffffffffffffffffffffffffffffffff\n      and\n      0xffffffffffffffffffffffffffffffffffffffff\n      and\n      dup2\n      mstore\n      0x20\n      add\n      swap1\n      dup2\n      mstore\n      0x20\n      add\n      0x00\n      keccak256\n        /* \"contracts/Profile.sol\":953:981  profile[msg.sender].lastName */\n      0x03\n      add\n        /* \"contracts/Profile.sol\":953:992  profile[msg.sender].lastName = lastName */\n      swap1\n      dup1\n      mload\n      swap1\n      0x20\n      add\n      swap1\n      tag_88\n      swap3\n      swap2\n      swap1\n      tag_64\n      jump\t// in\n    tag_88:\n      pop\n        /* \"contracts/Profile.sol\":1031:1036  email */\n      dup6\n        /* \"contracts/Profile.sol\":1003:1010  profile */\n      0x00\n        /* \"contracts/Profile.sol\":1003:1022  profile[msg.sender] */\n      dup1\n        /* \"contracts/Profile.sol\":1011:1021  msg.sender */\n      caller\n        /* \"contracts/Profile.sol\":1003:1022  profile[msg.sender] */\n      0xffffffffffffffffffffffffffffffffffffffff\n      and\n      0xffffffffffffffffffffffffffffffffffffffff\n      and\n      dup2\n      mstore\n      0x20\n      add\n      swap1\n      dup2\n      mstore\n      0x20\n      add\n      0x00\n      keccak256\n        /* \"contracts/Profile.sol\":1003:1028  profile[msg.sender].email */\n      0x04\n      add\n        /* \"contracts/Profile.sol\":1003:1036  profile[msg.sender].email = email */\n      swap1\n      dup1\n      mload\n      swap1\n      0x20\n      add\n      swap1\n      tag_89\n      swap3\n      swap2\n      swap1\n      tag_64\n      jump\t// in\n    tag_89:\n      pop\n        /* \"contracts/Profile.sol\":1075:1080  phone */\n      dup5\n        /* \"contracts/Profile.sol\":1047:1054  profile */\n      0x00\n        /* \"contracts/Profile.sol\":1047:1066  profile[msg.sender] */\n      dup1\n        /* \"contracts/Profile.sol\":1055:1065  msg.sender */\n      caller\n        /* \"contracts/Profile.sol\":1047:1066  profile[msg.sender] */\n      0xffffffffffffffffffffffffffffffffffffffff\n      and\n      0xffffffffffffffffffffffffffffffffffffffff\n      and\n      dup2\n      mstore\n      0x20\n      add\n      swap1\n      dup2\n      mstore\n      0x20\n      add\n      0x00\n      keccak256\n        /* \"contracts/Profile.sol\":1047:1072  profile[msg.sender].phone */\n      0x05\n      add\n        /* \"contracts/Profile.sol\":1047:1080  profile[msg.sender].phone = phone */\n      swap1\n      dup1\n      mload\n      swap1\n      0x20\n      add\n      swap1\n      tag_90\n      swap3\n      swap2\n      swap1\n      tag_64\n      jump\t// in\n    tag_90:\n      pop\n        /* \"contracts/Profile.sol\":1126:1138  profileImage */\n      dup4\n        /* \"contracts/Profile.sol\":1091:1098  profile */\n      0x00\n        /* \"contracts/Profile.sol\":1091:1110  profile[msg.sender] */\n      dup1\n        /* \"contracts/Profile.sol\":1099:1109  msg.sender */\n      caller\n        /* \"contracts/Profile.sol\":1091:1110  profile[msg.sender] */\n      0xffffffffffffffffffffffffffffffffffffffff\n      and\n      0xffffffffffffffffffffffffffffffffffffffff\n      and\n      dup2\n      mstore\n      0x20\n      add\n      swap1\n      dup2\n      mstore\n      0x20\n      add\n      0x00\n      keccak256\n        /* \"contracts/Profile.sol\":1091:1123  profile[msg.sender].profileImage */\n      0x06\n      add\n        /* \"contracts/Profile.sol\":1091:1138  profile[msg.sender].profileImage = profileImage */\n      swap1\n      dup1\n      mload\n      swap1\n      0x20\n      add\n      swap1\n      tag_91\n      swap3\n      swap2\n      swap1\n      tag_64\n      jump\t// in\n    tag_91:\n      pop\n        /* \"contracts/Profile.sol\":1183:1193  msg.sender */\n      caller\n        /* \"contracts/Profile.sol\":1149:1156  profile */\n      0x00\n        /* \"contracts/Profile.sol\":1149:1168  profile[msg.sender] */\n      dup1\n        /* \"contracts/Profile.sol\":1157:1167  msg.sender */\n      caller\n        /* \"contracts/Profile.sol\":1149:1168  profile[msg.sender] */\n      0xffffffffffffffffffffffffffffffffffffffff\n      and\n      0xffffffffffffffffffffffffffffffffffffffff\n      and\n      dup2\n      mstore\n      0x20\n      add\n      swap1\n      dup2\n      mstore\n      0x20\n      add\n      0x00\n      keccak256\n        /* \"contracts/Profile.sol\":1149:1180  profile[msg.sender].userAddress */\n      0x00\n      add\n      0x00\n        /* \"contracts/Profile.sol\":1149:1193  profile[msg.sender].userAddress = msg.sender */\n      0x0100\n      exp\n      dup2\n      sload\n      dup2\n      0xffffffffffffffffffffffffffffffffffffffff\n      mul\n      not\n      and\n      swap1\n      dup4\n      0xffffffffffffffffffffffffffffffffffffffff\n      and\n      mul\n      or\n      swap1\n      sstore\n      pop\n        /* \"contracts/Profile.sol\":1238:1253  block.timestamp */\n      timestamp\n        /* \"contracts/Profile.sol\":1205:1212  profile */\n      0x00\n        /* \"contracts/Profile.sol\":1205:1224  profile[msg.sender] */\n      dup1\n        /* \"contracts/Profile.sol\":1213:1223  msg.sender */\n      caller\n        /* \"contracts/Profile.sol\":1205:1224  profile[msg.sender] */\n      0xffffffffffffffffffffffffffffffffffffffff\n      and\n      0xffffffffffffffffffffffffffffffffffffffff\n      and\n      dup2\n      mstore\n      0x20\n      add\n      swap1\n      dup2\n      mstore\n      0x20\n      add\n      0x00\n      keccak256\n        /* \"contracts/Profile.sol\":1205:1235  profile[msg.sender].createDate */\n      0x07\n      add\n        /* \"contracts/Profile.sol\":1205:1253  profile[msg.sender].createDate = block.timestamp */\n      dup2\n      swap1\n      sstore\n      pop\n        /* \"contracts/Profile.sol\":1264:1285  addSkill(frontend, 0) */\n      tag_92\n        /* \"contracts/Profile.sol\":1273:1281  frontend */\n      dup4\n        /* \"contracts/Profile.sol\":1283:1284  0 */\n      0x00\n        /* \"contracts/Profile.sol\":1264:1272  addSkill */\n      tag_16\n        /* \"contracts/Profile.sol\":1264:1285  addSkill(frontend, 0) */\n      jump\t// in\n    tag_92:\n        /* \"contracts/Profile.sol\":1296:1316  addSkill(backend, 1) */\n      tag_93\n        /* \"contracts/Profile.sol\":1305:1312  backend */\n      dup3\n        /* \"contracts/Profile.sol\":1314:1315  1 */\n      0x01\n        /* \"contracts/Profile.sol\":1296:1304  addSkill */\n      tag_16\n        /* \"contracts/Profile.sol\":1296:1316  addSkill(backend, 1) */\n      jump\t// in\n    tag_93:\n        /* \"contracts/Profile.sol\":1327:1349  addSkill(framework, 2) */\n      tag_94\n        /* \"contracts/Profile.sol\":1336:1345  framework */\n      dup2\n        /* \"contracts/Profile.sol\":1347:1348  2 */\n      0x02\n        /* \"contracts/Profile.sol\":1327:1335  addSkill */\n      tag_16\n        /* \"contracts/Profile.sol\":1327:1349  addSkill(framework, 2) */\n      jump\t// in\n    tag_94:\n        /* \"contracts/Profile.sol\":590:1357  function addBio(string memory firstName, string memory middleName, string memory lastName, string memory email, string memory phone, string memory profileImage, string[] memory frontend, string[] memory backend, string[] memory framework) public {\r... */\n      pop\n      pop\n      pop\n      pop\n      pop\n      pop\n      pop\n      pop\n      pop\n      jump\t// out\n        /* \"contracts/Profile.sol\":2062:2136  function delProfile() public {\r... */\n    tag_22:\n        /* \"contracts/Profile.sol\":2109:2116  profile */\n      0x00\n        /* \"contracts/Profile.sol\":2109:2128  profile[msg.sender] */\n      dup1\n        /* \"contracts/Profile.sol\":2117:2127  msg.sender */\n      caller\n        /* \"contracts/Profile.sol\":2109:2128  profile[msg.sender] */\n      0xffffffffffffffffffffffffffffffffffffffff\n      and\n      0xffffffffffffffffffffffffffffffffffffffff\n      and\n      dup2\n      mstore\n      0x20\n      add\n      swap1\n      dup2\n      mstore\n      0x20\n      add\n      0x00\n      keccak256\n      0x00\n        /* \"contracts/Profile.sol\":2102:2128  delete profile[msg.sender] */\n      dup1\n      dup3\n      add\n      exp(0x0100, 0x00)\n      dup2\n      sload\n      swap1\n      0xffffffffffffffffffffffffffffffffffffffff\n      mul\n      not\n      and\n      swap1\n      sstore\n      0x01\n      dup3\n      add\n      0x00\n      tag_96\n      swap2\n      swap1\n      tag_97\n      jump\t// in\n    tag_96:\n      0x02\n      dup3\n      add\n      0x00\n      tag_98\n      swap2\n      swap1\n      tag_97\n      jump\t// in\n    tag_98:\n      0x03\n      dup3\n      add\n      0x00\n      tag_99\n      swap2\n      swap1\n      tag_97\n      jump\t// in\n    tag_99:\n      0x04\n      dup3\n      add\n      0x00\n      tag_100\n      swap2\n      swap1\n      tag_97\n      jump\t// in\n    tag_100:\n      0x05\n      dup3\n      add\n      0x00\n      tag_101\n      swap2\n      swap1\n      tag_97\n      jump\t// in\n    tag_101:\n      0x06\n      dup3\n      add\n      0x00\n      tag_102\n      swap2\n      swap1\n      tag_97\n      jump\t// in\n    tag_102:\n      0x07\n      dup3\n      add\n      0x00\n      swap1\n      sstore\n      0x08\n      dup3\n      add\n      0x00\n      tag_103\n      swap2\n      swap1\n      tag_104\n      jump\t// in\n    tag_103:\n      0x09\n      dup3\n      add\n      0x00\n      tag_105\n      swap2\n      swap1\n      tag_104\n      jump\t// in\n    tag_105:\n      0x0a\n      dup3\n      add\n      0x00\n      tag_106\n      swap2\n      swap1\n      tag_104\n      jump\t// in\n    tag_106:\n      pop\n      pop\n        /* \"contracts/Profile.sol\":2062:2136  function delProfile() public {\r... */\n      jump\t// out\n    tag_64:\n      dup3\n      dup1\n      sload\n      tag_107\n      swap1\n      tag_24\n      jump\t// in\n    tag_107:\n      swap1\n      0x00\n      mstore\n      keccak256(0x00, 0x20)\n      swap1\n      0x1f\n      add\n      0x20\n      swap1\n      div\n      dup2\n      add\n      swap3\n      dup3\n      tag_109\n      jumpi\n      0x00\n      dup6\n      sstore\n      jump(tag_108)\n    tag_109:\n      dup3\n      0x1f\n      lt\n      tag_110\n      jumpi\n      dup1\n      mload\n      not(0xff)\n      and\n      dup4\n      dup1\n      add\n      or\n      dup6\n      sstore\n      jump(tag_108)\n    tag_110:\n      dup3\n      dup1\n      add\n      0x01\n      add\n      dup6\n      sstore\n      dup3\n      iszero\n      tag_108\n      jumpi\n      swap2\n      dup3\n      add\n    tag_111:\n      dup3\n      dup2\n      gt\n      iszero\n      tag_112\n      jumpi\n      dup3\n      mload\n      dup3\n      sstore\n      swap2\n      0x20\n      add\n      swap2\n      swap1\n      0x01\n      add\n      swap1\n      jump(tag_111)\n    tag_112:\n    tag_108:\n      pop\n      swap1\n      pop\n      tag_113\n      swap2\n      swap1\n      tag_114\n      jump\t// in\n    tag_113:\n      pop\n      swap1\n      jump\t// out\n    tag_97:\n      pop\n      dup1\n      sload\n      tag_115\n      swap1\n      tag_24\n      jump\t// in\n    tag_115:\n      0x00\n      dup3\n      sstore\n      dup1\n      0x1f\n      lt\n      tag_117\n      jumpi\n      pop\n      jump(tag_116)\n    tag_117:\n      0x1f\n      add\n      0x20\n      swap1\n      div\n      swap1\n      0x00\n      mstore\n      keccak256(0x00, 0x20)\n      swap1\n      dup2\n      add\n      swap1\n      tag_118\n      swap2\n      swap1\n      tag_114\n      jump\t// in\n    tag_118:\n    tag_116:\n      pop\n      jump\t// out\n    tag_104:\n      pop\n      dup1\n      sload\n      0x00\n      dup3\n      sstore\n      swap1\n      0x00\n      mstore\n      keccak256(0x00, 0x20)\n      swap1\n      dup2\n      add\n      swap1\n      tag_120\n      swap2\n      swap1\n      tag_121\n      jump\t// in\n    tag_120:\n      pop\n      jump\t// out\n    tag_114:\n    tag_122:\n      dup1\n      dup3\n      gt\n      iszero\n      tag_123\n      jumpi\n      0x00\n      dup2\n      0x00\n      swap1\n      sstore\n      pop\n      0x01\n      add\n      jump(tag_122)\n    tag_123:\n      pop\n      swap1\n      jump\t// out\n    tag_121:\n    tag_124:\n      dup1\n      dup3\n      gt\n      iszero\n      tag_125\n      jumpi\n      0x00\n      dup2\n      dup2\n      tag_126\n      swap2\n      swap1\n      tag_97\n      jump\t// in\n    tag_126:\n      pop\n      0x01\n      add\n      jump(tag_124)\n    tag_125:\n      pop\n      swap1\n      jump\t// out\n        /* \"#utility.yul\":23:980   */\n    tag_128:\n        /* \"#utility.yul\":129:134   */\n      0x00\n        /* \"#utility.yul\":154:245   */\n      tag_130\n        /* \"#utility.yul\":170:244   */\n      tag_131\n        /* \"#utility.yul\":237:243   */\n      dup5\n        /* \"#utility.yul\":170:244   */\n      tag_132\n      jump\t// in\n    tag_131:\n        /* \"#utility.yul\":154:245   */\n      tag_133\n      jump\t// in\n    tag_130:\n        /* \"#utility.yul\":145:245   */\n      swap1\n      pop\n        /* \"#utility.yul\":265:270   */\n      dup1\n        /* \"#utility.yul\":294:300   */\n      dup4\n        /* \"#utility.yul\":287:292   */\n      dup3\n        /* \"#utility.yul\":280:301   */\n      mstore\n        /* \"#utility.yul\":328:332   */\n      0x20\n        /* \"#utility.yul\":321:326   */\n      dup3\n        /* \"#utility.yul\":317:333   */\n      add\n        /* \"#utility.yul\":310:333   */\n      swap1\n      pop\n        /* \"#utility.yul\":354:360   */\n      dup3\n        /* \"#utility.yul\":404:407   */\n      dup6\n        /* \"#utility.yul\":396:400   */\n      0x20\n        /* \"#utility.yul\":388:394   */\n      dup7\n        /* \"#utility.yul\":384:401   */\n      mul\n        /* \"#utility.yul\":379:382   */\n      dup3\n        /* \"#utility.yul\":375:402   */\n      add\n        /* \"#utility.yul\":372:408   */\n      gt\n        /* \"#utility.yul\":369:512   */\n      iszero\n      tag_134\n      jumpi\n        /* \"#utility.yul\":423:502   */\n      tag_135\n      tag_136\n      jump\t// in\n    tag_135:\n        /* \"#utility.yul\":369:512   */\n    tag_134:\n        /* \"#utility.yul\":536:537   */\n      0x00\n        /* \"#utility.yul\":521:974   */\n    tag_137:\n        /* \"#utility.yul\":546:552   */\n      dup6\n        /* \"#utility.yul\":543:544   */\n      dup2\n        /* \"#utility.yul\":540:553   */\n      lt\n        /* \"#utility.yul\":521:974   */\n      iszero\n      tag_139\n      jumpi\n        /* \"#utility.yul\":628:631   */\n      dup2\n        /* \"#utility.yul\":615:632   */\n      calldataload\n        /* \"#utility.yul\":664:682   */\n      0xffffffffffffffff\n        /* \"#utility.yul\":651:662   */\n      dup2\n        /* \"#utility.yul\":648:683   */\n      gt\n        /* \"#utility.yul\":645:767   */\n      iszero\n      tag_140\n      jumpi\n        /* \"#utility.yul\":686:765   */\n      tag_141\n      tag_142\n      jump\t// in\n    tag_141:\n        /* \"#utility.yul\":645:767   */\n    tag_140:\n        /* \"#utility.yul\":810:821   */\n      dup1\n        /* \"#utility.yul\":802:808   */\n      dup7\n        /* \"#utility.yul\":798:822   */\n      add\n        /* \"#utility.yul\":848:895   */\n      tag_143\n        /* \"#utility.yul\":891:894   */\n      dup10\n        /* \"#utility.yul\":879:889   */\n      dup3\n        /* \"#utility.yul\":848:895   */\n      tag_144\n      jump\t// in\n    tag_143:\n        /* \"#utility.yul\":843:846   */\n      dup6\n        /* \"#utility.yul\":836:896   */\n      mstore\n        /* \"#utility.yul\":925:929   */\n      0x20\n        /* \"#utility.yul\":920:923   */\n      dup6\n        /* \"#utility.yul\":916:930   */\n      add\n        /* \"#utility.yul\":909:930   */\n      swap5\n      pop\n        /* \"#utility.yul\":959:963   */\n      0x20\n        /* \"#utility.yul\":954:957   */\n      dup5\n        /* \"#utility.yul\":950:964   */\n      add\n        /* \"#utility.yul\":943:964   */\n      swap4\n      pop\n        /* \"#utility.yul\":581:974   */\n      pop\n      pop\n        /* \"#utility.yul\":568:569   */\n      0x01\n        /* \"#utility.yul\":565:566   */\n      dup2\n        /* \"#utility.yul\":561:570   */\n      add\n        /* \"#utility.yul\":556:570   */\n      swap1\n      pop\n        /* \"#utility.yul\":521:974   */\n      jump(tag_137)\n    tag_139:\n        /* \"#utility.yul\":525:539   */\n      pop\n        /* \"#utility.yul\":135:980   */\n      pop\n      pop\n        /* \"#utility.yul\":23:980   */\n      swap4\n      swap3\n      pop\n      pop\n      pop\n      jump\t// out\n        /* \"#utility.yul\":986:1398   */\n    tag_145:\n        /* \"#utility.yul\":1064:1069   */\n      0x00\n        /* \"#utility.yul\":1089:1155   */\n      tag_147\n        /* \"#utility.yul\":1105:1154   */\n      tag_148\n        /* \"#utility.yul\":1147:1153   */\n      dup5\n        /* \"#utility.yul\":1105:1154   */\n      tag_149\n      jump\t// in\n    tag_148:\n        /* \"#utility.yul\":1089:1155   */\n      tag_133\n      jump\t// in\n    tag_147:\n        /* \"#utility.yul\":1080:1155   */\n      swap1\n      pop\n        /* \"#utility.yul\":1178:1184   */\n      dup3\n        /* \"#utility.yul\":1171:1176   */\n      dup2\n        /* \"#utility.yul\":1164:1185   */\n      mstore\n        /* \"#utility.yul\":1216:1220   */\n      0x20\n        /* \"#utility.yul\":1209:1214   */\n      dup2\n        /* \"#utility.yul\":1205:1221   */\n      add\n        /* \"#utility.yul\":1254:1257   */\n      dup5\n        /* \"#utility.yul\":1245:1251   */\n      dup5\n        /* \"#utility.yul\":1240:1243   */\n      dup5\n        /* \"#utility.yul\":1236:1252   */\n      add\n        /* \"#utility.yul\":1233:1258   */\n      gt\n        /* \"#utility.yul\":1230:1342   */\n      iszero\n      tag_150\n      jumpi\n        /* \"#utility.yul\":1261:1340   */\n      tag_151\n      tag_152\n      jump\t// in\n    tag_151:\n        /* \"#utility.yul\":1230:1342   */\n    tag_150:\n        /* \"#utility.yul\":1351:1392   */\n      tag_153\n        /* \"#utility.yul\":1385:1391   */\n      dup5\n        /* \"#utility.yul\":1380:1383   */\n      dup3\n        /* \"#utility.yul\":1375:1378   */\n      dup6\n        /* \"#utility.yul\":1351:1392   */\n      tag_154\n      jump\t// in\n    tag_153:\n        /* \"#utility.yul\":1070:1398   */\n      pop\n        /* \"#utility.yul\":986:1398   */\n      swap4\n      swap3\n      pop\n      pop\n      pop\n      jump\t// out\n        /* \"#utility.yul\":1404:1543   */\n    tag_155:\n        /* \"#utility.yul\":1450:1455   */\n      0x00\n        /* \"#utility.yul\":1488:1494   */\n      dup2\n        /* \"#utility.yul\":1475:1495   */\n      calldataload\n        /* \"#utility.yul\":1466:1495   */\n      swap1\n      pop\n        /* \"#utility.yul\":1504:1537   */\n      tag_157\n        /* \"#utility.yul\":1531:1536   */\n      dup2\n        /* \"#utility.yul\":1504:1537   */\n      tag_158\n      jump\t// in\n    tag_157:\n        /* \"#utility.yul\":1404:1543   */\n      swap3\n      swap2\n      pop\n      pop\n      jump\t// out\n        /* \"#utility.yul\":1565:1955   */\n    tag_159:\n        /* \"#utility.yul\":1646:1651   */\n      0x00\n        /* \"#utility.yul\":1695:1698   */\n      dup3\n        /* \"#utility.yul\":1688:1692   */\n      0x1f\n        /* \"#utility.yul\":1680:1686   */\n      dup4\n        /* \"#utility.yul\":1676:1693   */\n      add\n        /* \"#utility.yul\":1672:1699   */\n      slt\n        /* \"#utility.yul\":1662:1784   */\n      tag_161\n      jumpi\n        /* \"#utility.yul\":1703:1782   */\n      tag_162\n      tag_142\n      jump\t// in\n    tag_162:\n        /* \"#utility.yul\":1662:1784   */\n    tag_161:\n        /* \"#utility.yul\":1820:1826   */\n      dup2\n        /* \"#utility.yul\":1807:1827   */\n      calldataload\n        /* \"#utility.yul\":1845:1949   */\n      tag_163\n        /* \"#utility.yul\":1945:1948   */\n      dup5\n        /* \"#utility.yul\":1937:1943   */\n      dup3\n        /* \"#utility.yul\":1930:1934   */\n      0x20\n        /* \"#utility.yul\":1922:1928   */\n      dup7\n        /* \"#utility.yul\":1918:1935   */\n      add\n        /* \"#utility.yul\":1845:1949   */\n      tag_128\n      jump\t// in\n    tag_163:\n        /* \"#utility.yul\":1836:1949   */\n      swap2\n      pop\n        /* \"#utility.yul\":1652:1955   */\n      pop\n        /* \"#utility.yul\":1565:1955   */\n      swap3\n      swap2\n      pop\n      pop\n      jump\t// out\n        /* \"#utility.yul\":1975:2315   */\n    tag_144:\n        /* \"#utility.yul\":2031:2036   */\n      0x00\n        /* \"#utility.yul\":2080:2083   */\n      dup3\n        /* \"#utility.yul\":2073:2077   */\n      0x1f\n        /* \"#utility.yul\":2065:2071   */\n      dup4\n        /* \"#utility.yul\":2061:2078   */\n      add\n        /* \"#utility.yul\":2057:2084   */\n      slt\n        /* \"#utility.yul\":2047:2169   */\n      tag_165\n      jumpi\n        /* \"#utility.yul\":2088:2167   */\n      tag_166\n      tag_142\n      jump\t// in\n    tag_166:\n        /* \"#utility.yul\":2047:2169   */\n    tag_165:\n        /* \"#utility.yul\":2205:2211   */\n      dup2\n        /* \"#utility.yul\":2192:2212   */\n      calldataload\n        /* \"#utility.yul\":2230:2309   */\n      tag_167\n        /* \"#utility.yul\":2305:2308   */\n      dup5\n        /* \"#utility.yul\":2297:2303   */\n      dup3\n        /* \"#utility.yul\":2290:2294   */\n      0x20\n        /* \"#utility.yul\":2282:2288   */\n      dup7\n        /* \"#utility.yul\":2278:2295   */\n      add\n        /* \"#utility.yul\":2230:2309   */\n      tag_145\n      jump\t// in\n    tag_167:\n        /* \"#utility.yul\":2221:2309   */\n      swap2\n      pop\n        /* \"#utility.yul\":2037:2315   */\n      pop\n        /* \"#utility.yul\":1975:2315   */\n      swap3\n      swap2\n      pop\n      pop\n      jump\t// out\n        /* \"#utility.yul\":2321:2456   */\n    tag_168:\n        /* \"#utility.yul\":2365:2370   */\n      0x00\n        /* \"#utility.yul\":2403:2409   */\n      dup2\n        /* \"#utility.yul\":2390:2410   */\n      calldataload\n        /* \"#utility.yul\":2381:2410   */\n      swap1\n      pop\n        /* \"#utility.yul\":2419:2450   */\n      tag_170\n        /* \"#utility.yul\":2444:2449   */\n      dup2\n        /* \"#utility.yul\":2419:2450   */\n      tag_171\n      jump\t// in\n    tag_170:\n        /* \"#utility.yul\":2321:2456   */\n      swap3\n      swap2\n      pop\n      pop\n      jump\t// out\n        /* \"#utility.yul\":2462:2791   */\n    tag_9:\n        /* \"#utility.yul\":2521:2527   */\n      0x00\n        /* \"#utility.yul\":2570:2572   */\n      0x20\n        /* \"#utility.yul\":2558:2567   */\n      dup3\n        /* \"#utility.yul\":2549:2556   */\n      dup5\n        /* \"#utility.yul\":2545:2568   */\n      sub\n        /* \"#utility.yul\":2541:2573   */\n      slt\n        /* \"#utility.yul\":2538:2657   */\n      iszero\n      tag_173\n      jumpi\n        /* \"#utility.yul\":2576:2655   */\n      tag_174\n      tag_175\n      jump\t// in\n    tag_174:\n        /* \"#utility.yul\":2538:2657   */\n    tag_173:\n        /* \"#utility.yul\":2696:2697   */\n      0x00\n        /* \"#utility.yul\":2721:2774   */\n      tag_176\n        /* \"#utility.yul\":2766:2773   */\n      dup5\n        /* \"#utility.yul\":2757:2763   */\n      dup3\n        /* \"#utility.yul\":2746:2755   */\n      dup6\n        /* \"#utility.yul\":2742:2764   */\n      add\n        /* \"#utility.yul\":2721:2774   */\n      tag_155\n      jump\t// in\n    tag_176:\n        /* \"#utility.yul\":2711:2774   */\n      swap2\n      pop\n        /* \"#utility.yul\":2667:2784   */\n      pop\n        /* \"#utility.yul\":2462:2791   */\n      swap3\n      swap2\n      pop\n      pop\n      jump\t// out\n        /* \"#utility.yul\":2797:3497   */\n    tag_15:\n        /* \"#utility.yul\":2898:2904   */\n      0x00\n        /* \"#utility.yul\":2906:2912   */\n      dup1\n        /* \"#utility.yul\":2955:2957   */\n      0x40\n        /* \"#utility.yul\":2943:2952   */\n      dup4\n        /* \"#utility.yul\":2934:2941   */\n      dup6\n        /* \"#utility.yul\":2930:2953   */\n      sub\n        /* \"#utility.yul\":2926:2958   */\n      slt\n        /* \"#utility.yul\":2923:3042   */\n      iszero\n      tag_178\n      jumpi\n        /* \"#utility.yul\":2961:3040   */\n      tag_179\n      tag_175\n      jump\t// in\n    tag_179:\n        /* \"#utility.yul\":2923:3042   */\n    tag_178:\n        /* \"#utility.yul\":3109:3110   */\n      0x00\n        /* \"#utility.yul\":3098:3107   */\n      dup4\n        /* \"#utility.yul\":3094:3111   */\n      add\n        /* \"#utility.yul\":3081:3112   */\n      calldataload\n        /* \"#utility.yul\":3139:3157   */\n      0xffffffffffffffff\n        /* \"#utility.yul\":3131:3137   */\n      dup2\n        /* \"#utility.yul\":3128:3158   */\n      gt\n        /* \"#utility.yul\":3125:3242   */\n      iszero\n      tag_180\n      jumpi\n        /* \"#utility.yul\":3161:3240   */\n      tag_181\n      tag_182\n      jump\t// in\n    tag_181:\n        /* \"#utility.yul\":3125:3242   */\n    tag_180:\n        /* \"#utility.yul\":3266:3354   */\n      tag_183\n        /* \"#utility.yul\":3346:3353   */\n      dup6\n        /* \"#utility.yul\":3337:3343   */\n      dup3\n        /* \"#utility.yul\":3326:3335   */\n      dup7\n        /* \"#utility.yul\":3322:3344   */\n      add\n        /* \"#utility.yul\":3266:3354   */\n      tag_159\n      jump\t// in\n    tag_183:\n        /* \"#utility.yul\":3256:3354   */\n      swap3\n      pop\n        /* \"#utility.yul\":3052:3364   */\n      pop\n        /* \"#utility.yul\":3403:3405   */\n      0x20\n        /* \"#utility.yul\":3429:3480   */\n      tag_184\n        /* \"#utility.yul\":3472:3479   */\n      dup6\n        /* \"#utility.yul\":3463:3469   */\n      dup3\n        /* \"#utility.yul\":3452:3461   */\n      dup7\n        /* \"#utility.yul\":3448:3470   */\n      add\n        /* \"#utility.yul\":3429:3480   */\n      tag_168\n      jump\t// in\n    tag_184:\n        /* \"#utility.yul\":3419:3480   */\n      swap2\n      pop\n        /* \"#utility.yul\":3374:3490   */\n      pop\n        /* \"#utility.yul\":2797:3497   */\n      swap3\n      pop\n      swap3\n      swap1\n      pop\n      jump\t// out\n        /* \"#utility.yul\":3503:6768   */\n    tag_19:\n        /* \"#utility.yul\":3799:3805   */\n      0x00\n        /* \"#utility.yul\":3807:3813   */\n      dup1\n        /* \"#utility.yul\":3815:3821   */\n      0x00\n        /* \"#utility.yul\":3823:3829   */\n      dup1\n        /* \"#utility.yul\":3831:3837   */\n      0x00\n        /* \"#utility.yul\":3839:3845   */\n      dup1\n        /* \"#utility.yul\":3847:3853   */\n      0x00\n        /* \"#utility.yul\":3855:3861   */\n      dup1\n        /* \"#utility.yul\":3863:3869   */\n      0x00\n        /* \"#utility.yul\":3912:3915   */\n      0x0120\n        /* \"#utility.yul\":3900:3909   */\n      dup11\n        /* \"#utility.yul\":3891:3898   */\n      dup13\n        /* \"#utility.yul\":3887:3910   */\n      sub\n        /* \"#utility.yul\":3883:3916   */\n      slt\n        /* \"#utility.yul\":3880:4000   */\n      iszero\n      tag_186\n      jumpi\n        /* \"#utility.yul\":3919:3998   */\n      tag_187\n      tag_175\n      jump\t// in\n    tag_187:\n        /* \"#utility.yul\":3880:4000   */\n    tag_186:\n        /* \"#utility.yul\":4067:4068   */\n      0x00\n        /* \"#utility.yul\":4056:4065   */\n      dup11\n        /* \"#utility.yul\":4052:4069   */\n      add\n        /* \"#utility.yul\":4039:4070   */\n      calldataload\n        /* \"#utility.yul\":4097:4115   */\n      0xffffffffffffffff\n        /* \"#utility.yul\":4089:4095   */\n      dup2\n        /* \"#utility.yul\":4086:4116   */\n      gt\n        /* \"#utility.yul\":4083:4200   */\n      iszero\n      tag_188\n      jumpi\n        /* \"#utility.yul\":4119:4198   */\n      tag_189\n      tag_182\n      jump\t// in\n    tag_189:\n        /* \"#utility.yul\":4083:4200   */\n    tag_188:\n        /* \"#utility.yul\":4224:4287   */\n      tag_190\n        /* \"#utility.yul\":4279:4286   */\n      dup13\n        /* \"#utility.yul\":4270:4276   */\n      dup3\n        /* \"#utility.yul\":4259:4268   */\n      dup14\n        /* \"#utility.yul\":4255:4277   */\n      add\n        /* \"#utility.yul\":4224:4287   */\n      tag_144\n      jump\t// in\n    tag_190:\n        /* \"#utility.yul\":4214:4287   */\n      swap10\n      pop\n        /* \"#utility.yul\":4010:4297   */\n      pop\n        /* \"#utility.yul\":4364:4366   */\n      0x20\n        /* \"#utility.yul\":4353:4362   */\n      dup11\n        /* \"#utility.yul\":4349:4367   */\n      add\n        /* \"#utility.yul\":4336:4368   */\n      calldataload\n        /* \"#utility.yul\":4395:4413   */\n      0xffffffffffffffff\n        /* \"#utility.yul\":4387:4393   */\n      dup2\n        /* \"#utility.yul\":4384:4414   */\n      gt\n        /* \"#utility.yul\":4381:4498   */\n      iszero\n      tag_191\n      jumpi\n        /* \"#utility.yul\":4417:4496   */\n      tag_192\n      tag_182\n      jump\t// in\n    tag_192:\n        /* \"#utility.yul\":4381:4498   */\n    tag_191:\n        /* \"#utility.yul\":4522:4585   */\n      tag_193\n        /* \"#utility.yul\":4577:4584   */\n      dup13\n        /* \"#utility.yul\":4568:4574   */\n      dup3\n        /* \"#utility.yul\":4557:4566   */\n      dup14\n        /* \"#utility.yul\":4553:4575   */\n      add\n        /* \"#utility.yul\":4522:4585   */\n      tag_144\n      jump\t// in\n    tag_193:\n        /* \"#utility.yul\":4512:4585   */\n      swap9\n      pop\n        /* \"#utility.yul\":4307:4595   */\n      pop\n        /* \"#utility.yul\":4662:4664   */\n      0x40\n        /* \"#utility.yul\":4651:4660   */\n      dup11\n        /* \"#utility.yul\":4647:4665   */\n      add\n        /* \"#utility.yul\":4634:4666   */\n      calldataload\n        /* \"#utility.yul\":4693:4711   */\n      0xffffffffffffffff\n        /* \"#utility.yul\":4685:4691   */\n      dup2\n        /* \"#utility.yul\":4682:4712   */\n      gt\n        /* \"#utility.yul\":4679:4796   */\n      iszero\n      tag_194\n      jumpi\n        /* \"#utility.yul\":4715:4794   */\n      tag_195\n      tag_182\n      jump\t// in\n    tag_195:\n        /* \"#utility.yul\":4679:4796   */\n    tag_194:\n        /* \"#utility.yul\":4820:4883   */\n      tag_196\n        /* \"#utility.yul\":4875:4882   */\n      dup13\n        /* \"#utility.yul\":4866:4872   */\n      dup3\n        /* \"#utility.yul\":4855:4864   */\n      dup14\n        /* \"#utility.yul\":4851:4873   */\n      add\n        /* \"#utility.yul\":4820:4883   */\n      tag_144\n      jump\t// in\n    tag_196:\n        /* \"#utility.yul\":4810:4883   */\n      swap8\n      pop\n        /* \"#utility.yul\":4605:4893   */\n      pop\n        /* \"#utility.yul\":4960:4962   */\n      0x60\n        /* \"#utility.yul\":4949:4958   */\n      dup11\n        /* \"#utility.yul\":4945:4963   */\n      add\n        /* \"#utility.yul\":4932:4964   */\n      calldataload\n        /* \"#utility.yul\":4991:5009   */\n      0xffffffffffffffff\n        /* \"#utility.yul\":4983:4989   */\n      dup2\n        /* \"#utility.yul\":4980:5010   */\n      gt\n        /* \"#utility.yul\":4977:5094   */\n      iszero\n      tag_197\n      jumpi\n        /* \"#utility.yul\":5013:5092   */\n      tag_198\n      tag_182\n      jump\t// in\n    tag_198:\n        /* \"#utility.yul\":4977:5094   */\n    tag_197:\n        /* \"#utility.yul\":5118:5181   */\n      tag_199\n        /* \"#utility.yul\":5173:5180   */\n      dup13\n        /* \"#utility.yul\":5164:5170   */\n      dup3\n        /* \"#utility.yul\":5153:5162   */\n      dup14\n        /* \"#utility.yul\":5149:5171   */\n      add\n        /* \"#utility.yul\":5118:5181   */\n      tag_144\n      jump\t// in\n    tag_199:\n        /* \"#utility.yul\":5108:5181   */\n      swap7\n      pop\n        /* \"#utility.yul\":4903:5191   */\n      pop\n        /* \"#utility.yul\":5258:5261   */\n      0x80\n        /* \"#utility.yul\":5247:5256   */\n      dup11\n        /* \"#utility.yul\":5243:5262   */\n      add\n        /* \"#utility.yul\":5230:5263   */\n      calldataload\n        /* \"#utility.yul\":5290:5308   */\n      0xffffffffffffffff\n        /* \"#utility.yul\":5282:5288   */\n      dup2\n        /* \"#utility.yul\":5279:5309   */\n      gt\n        /* \"#utility.yul\":5276:5393   */\n      iszero\n      tag_200\n      jumpi\n        /* \"#utility.yul\":5312:5391   */\n      tag_201\n      tag_182\n      jump\t// in\n    tag_201:\n        /* \"#utility.yul\":5276:5393   */\n    tag_200:\n        /* \"#utility.yul\":5417:5480   */\n      tag_202\n        /* \"#utility.yul\":5472:5479   */\n      dup13\n        /* \"#utility.yul\":5463:5469   */\n      dup3\n        /* \"#utility.yul\":5452:5461   */\n      dup14\n        /* \"#utility.yul\":5448:5470   */\n      add\n        /* \"#utility.yul\":5417:5480   */\n      tag_144\n      jump\t// in\n    tag_202:\n        /* \"#utility.yul\":5407:5480   */\n      swap6\n      pop\n        /* \"#utility.yul\":5201:5490   */\n      pop\n        /* \"#utility.yul\":5557:5560   */\n      0xa0\n        /* \"#utility.yul\":5546:5555   */\n      dup11\n        /* \"#utility.yul\":5542:5561   */\n      add\n        /* \"#utility.yul\":5529:5562   */\n      calldataload\n        /* \"#utility.yul\":5589:5607   */\n      0xffffffffffffffff\n        /* \"#utility.yul\":5581:5587   */\n      dup2\n        /* \"#utility.yul\":5578:5608   */\n      gt\n        /* \"#utility.yul\":5575:5692   */\n      iszero\n      tag_203\n      jumpi\n        /* \"#utility.yul\":5611:5690   */\n      tag_204\n      tag_182\n      jump\t// in\n    tag_204:\n        /* \"#utility.yul\":5575:5692   */\n    tag_203:\n        /* \"#utility.yul\":5716:5779   */\n      tag_205\n        /* \"#utility.yul\":5771:5778   */\n      dup13\n        /* \"#utility.yul\":5762:5768   */\n      dup3\n        /* \"#utility.yul\":5751:5760   */\n      dup14\n        /* \"#utility.yul\":5747:5769   */\n      add\n        /* \"#utility.yul\":5716:5779   */\n      tag_144\n      jump\t// in\n    tag_205:\n        /* \"#utility.yul\":5706:5779   */\n      swap5\n      pop\n        /* \"#utility.yul\":5500:5789   */\n      pop\n        /* \"#utility.yul\":5856:5859   */\n      0xc0\n        /* \"#utility.yul\":5845:5854   */\n      dup11\n        /* \"#utility.yul\":5841:5860   */\n      add\n        /* \"#utility.yul\":5828:5861   */\n      calldataload\n        /* \"#utility.yul\":5888:5906   */\n      0xffffffffffffffff\n        /* \"#utility.yul\":5880:5886   */\n      dup2\n        /* \"#utility.yul\":5877:5907   */\n      gt\n        /* \"#utility.yul\":5874:5991   */\n      iszero\n      tag_206\n      jumpi\n        /* \"#utility.yul\":5910:5989   */\n      tag_207\n      tag_182\n      jump\t// in\n    tag_207:\n        /* \"#utility.yul\":5874:5991   */\n    tag_206:\n        /* \"#utility.yul\":6015:6103   */\n      tag_208\n        /* \"#utility.yul\":6095:6102   */\n      dup13\n        /* \"#utility.yul\":6086:6092   */\n      dup3\n        /* \"#utility.yul\":6075:6084   */\n      dup14\n        /* \"#utility.yul\":6071:6093   */\n      add\n        /* \"#utility.yul\":6015:6103   */\n      tag_159\n      jump\t// in\n    tag_208:\n        /* \"#utility.yul\":6005:6103   */\n      swap4\n      pop\n        /* \"#utility.yul\":5799:6113   */\n      pop\n        /* \"#utility.yul\":6180:6183   */\n      0xe0\n        /* \"#utility.yul\":6169:6178   */\n      dup11\n        /* \"#utility.yul\":6165:6184   */\n      add\n        /* \"#utility.yul\":6152:6185   */\n      calldataload\n        /* \"#utility.yul\":6212:6230   */\n      0xffffffffffffffff\n        /* \"#utility.yul\":6204:6210   */\n      dup2\n        /* \"#utility.yul\":6201:6231   */\n      gt\n        /* \"#utility.yul\":6198:6315   */\n      iszero\n      tag_209\n      jumpi\n        /* \"#utility.yul\":6234:6313   */\n      tag_210\n      tag_182\n      jump\t// in\n    tag_210:\n        /* \"#utility.yul\":6198:6315   */\n    tag_209:\n        /* \"#utility.yul\":6339:6427   */\n      tag_211\n        /* \"#utility.yul\":6419:6426   */\n      dup13\n        /* \"#utility.yul\":6410:6416   */\n      dup3\n        /* \"#utility.yul\":6399:6408   */\n      dup14\n        /* \"#utility.yul\":6395:6417   */\n      add\n        /* \"#utility.yul\":6339:6427   */\n      tag_159\n      jump\t// in\n    tag_211:\n        /* \"#utility.yul\":6329:6427   */\n      swap3\n      pop\n        /* \"#utility.yul\":6123:6437   */\n      pop\n        /* \"#utility.yul\":6504:6507   */\n      0x0100\n        /* \"#utility.yul\":6493:6502   */\n      dup11\n        /* \"#utility.yul\":6489:6508   */\n      add\n        /* \"#utility.yul\":6476:6509   */\n      calldataload\n        /* \"#utility.yul\":6536:6554   */\n      0xffffffffffffffff\n        /* \"#utility.yul\":6528:6534   */\n      dup2\n        /* \"#utility.yul\":6525:6555   */\n      gt\n        /* \"#utility.yul\":6522:6639   */\n      iszero\n      tag_212\n      jumpi\n        /* \"#utility.yul\":6558:6637   */\n      tag_213\n      tag_182\n      jump\t// in\n    tag_213:\n        /* \"#utility.yul\":6522:6639   */\n    tag_212:\n        /* \"#utility.yul\":6663:6751   */\n      tag_214\n        /* \"#utility.yul\":6743:6750   */\n      dup13\n        /* \"#utility.yul\":6734:6740   */\n      dup3\n        /* \"#utility.yul\":6723:6732   */\n      dup14\n        /* \"#utility.yul\":6719:6741   */\n      add\n        /* \"#utility.yul\":6663:6751   */\n      tag_159\n      jump\t// in\n    tag_214:\n        /* \"#utility.yul\":6653:6751   */\n      swap2\n      pop\n        /* \"#utility.yul\":6447:6761   */\n      pop\n        /* \"#utility.yul\":3503:6768   */\n      swap3\n      swap6\n      swap9\n      pop\n      swap3\n      swap6\n      swap9\n      pop\n      swap3\n      swap6\n      swap9\n      jump\t// out\n        /* \"#utility.yul\":6774:6892   */\n    tag_215:\n        /* \"#utility.yul\":6861:6885   */\n      tag_217\n        /* \"#utility.yul\":6879:6884   */\n      dup2\n        /* \"#utility.yul\":6861:6885   */\n      tag_218\n      jump\t// in\n    tag_217:\n        /* \"#utility.yul\":6856:6859   */\n      dup3\n        /* \"#utility.yul\":6849:6886   */\n      mstore\n        /* \"#utility.yul\":6774:6892   */\n      pop\n      pop\n      jump\t// out\n        /* \"#utility.yul\":6898:7262   */\n    tag_219:\n        /* \"#utility.yul\":6986:6989   */\n      0x00\n        /* \"#utility.yul\":7014:7053   */\n      tag_221\n        /* \"#utility.yul\":7047:7052   */\n      dup3\n        /* \"#utility.yul\":7014:7053   */\n      tag_222\n      jump\t// in\n    tag_221:\n        /* \"#utility.yul\":7069:7140   */\n      tag_223\n        /* \"#utility.yul\":7133:7139   */\n      dup2\n        /* \"#utility.yul\":7128:7131   */\n      dup6\n        /* \"#utility.yul\":7069:7140   */\n      tag_224\n      jump\t// in\n    tag_223:\n        /* \"#utility.yul\":7062:7140   */\n      swap4\n      pop\n        /* \"#utility.yul\":7149:7201   */\n      tag_225\n        /* \"#utility.yul\":7194:7200   */\n      dup2\n        /* \"#utility.yul\":7189:7192   */\n      dup6\n        /* \"#utility.yul\":7182:7186   */\n      0x20\n        /* \"#utility.yul\":7175:7180   */\n      dup7\n        /* \"#utility.yul\":7171:7187   */\n      add\n        /* \"#utility.yul\":7149:7201   */\n      tag_226\n      jump\t// in\n    tag_225:\n        /* \"#utility.yul\":7226:7255   */\n      tag_227\n        /* \"#utility.yul\":7248:7254   */\n      dup2\n        /* \"#utility.yul\":7226:7255   */\n      tag_228\n      jump\t// in\n    tag_227:\n        /* \"#utility.yul\":7221:7224   */\n      dup5\n        /* \"#utility.yul\":7217:7256   */\n      add\n        /* \"#utility.yul\":7210:7256   */\n      swap2\n      pop\n        /* \"#utility.yul\":6990:7262   */\n      pop\n        /* \"#utility.yul\":6898:7262   */\n      swap3\n      swap2\n      pop\n      pop\n      jump\t// out\n        /* \"#utility.yul\":7268:7386   */\n    tag_229:\n        /* \"#utility.yul\":7355:7379   */\n      tag_231\n        /* \"#utility.yul\":7373:7378   */\n      dup2\n        /* \"#utility.yul\":7355:7379   */\n      tag_232\n      jump\t// in\n    tag_231:\n        /* \"#utility.yul\":7350:7353   */\n      dup3\n        /* \"#utility.yul\":7343:7380   */\n      mstore\n        /* \"#utility.yul\":7268:7386   */\n      pop\n      pop\n      jump\t// out\n        /* \"#utility.yul\":7392:8935   */\n    tag_12:\n        /* \"#utility.yul\":7801:7805   */\n      0x00\n        /* \"#utility.yul\":7839:7842   */\n      0x0100\n        /* \"#utility.yul\":7828:7837   */\n      dup3\n        /* \"#utility.yul\":7824:7843   */\n      add\n        /* \"#utility.yul\":7816:7843   */\n      swap1\n      pop\n        /* \"#utility.yul\":7853:7924   */\n      tag_234\n        /* \"#utility.yul\":7921:7922   */\n      0x00\n        /* \"#utility.yul\":7910:7919   */\n      dup4\n        /* \"#utility.yul\":7906:7923   */\n      add\n        /* \"#utility.yul\":7897:7903   */\n      dup12\n        /* \"#utility.yul\":7853:7924   */\n      tag_215\n      jump\t// in\n    tag_234:\n        /* \"#utility.yul\":7971:7980   */\n      dup2\n        /* \"#utility.yul\":7965:7969   */\n      dup2\n        /* \"#utility.yul\":7961:7981   */\n      sub\n        /* \"#utility.yul\":7956:7958   */\n      0x20\n        /* \"#utility.yul\":7945:7954   */\n      dup4\n        /* \"#utility.yul\":7941:7959   */\n      add\n        /* \"#utility.yul\":7934:7982   */\n      mstore\n        /* \"#utility.yul\":7999:8077   */\n      tag_235\n        /* \"#utility.yul\":8072:8076   */\n      dup2\n        /* \"#utility.yul\":8063:8069   */\n      dup11\n        /* \"#utility.yul\":7999:8077   */\n      tag_219\n      jump\t// in\n    tag_235:\n        /* \"#utility.yul\":7991:8077   */\n      swap1\n      pop\n        /* \"#utility.yul\":8124:8133   */\n      dup2\n        /* \"#utility.yul\":8118:8122   */\n      dup2\n        /* \"#utility.yul\":8114:8134   */\n      sub\n        /* \"#utility.yul\":8109:8111   */\n      0x40\n        /* \"#utility.yul\":8098:8107   */\n      dup4\n        /* \"#utility.yul\":8094:8112   */\n      add\n        /* \"#utility.yul\":8087:8135   */\n      mstore\n        /* \"#utility.yul\":8152:8230   */\n      tag_236\n        /* \"#utility.yul\":8225:8229   */\n      dup2\n        /* \"#utility.yul\":8216:8222   */\n      dup10\n        /* \"#utility.yul\":8152:8230   */\n      tag_219\n      jump\t// in\n    tag_236:\n        /* \"#utility.yul\":8144:8230   */\n      swap1\n      pop\n        /* \"#utility.yul\":8277:8286   */\n      dup2\n        /* \"#utility.yul\":8271:8275   */\n      dup2\n        /* \"#utility.yul\":8267:8287   */\n      sub\n        /* \"#utility.yul\":8262:8264   */\n      0x60\n        /* \"#utility.yul\":8251:8260   */\n      dup4\n        /* \"#utility.yul\":8247:8265   */\n      add\n        /* \"#utility.yul\":8240:8288   */\n      mstore\n        /* \"#utility.yul\":8305:8383   */\n      tag_237\n        /* \"#utility.yul\":8378:8382   */\n      dup2\n        /* \"#utility.yul\":8369:8375   */\n      dup9\n        /* \"#utility.yul\":8305:8383   */\n      tag_219\n      jump\t// in\n    tag_237:\n        /* \"#utility.yul\":8297:8383   */\n      swap1\n      pop\n        /* \"#utility.yul\":8431:8440   */\n      dup2\n        /* \"#utility.yul\":8425:8429   */\n      dup2\n        /* \"#utility.yul\":8421:8441   */\n      sub\n        /* \"#utility.yul\":8415:8418   */\n      0x80\n        /* \"#utility.yul\":8404:8413   */\n      dup4\n        /* \"#utility.yul\":8400:8419   */\n      add\n        /* \"#utility.yul\":8393:8442   */\n      mstore\n        /* \"#utility.yul\":8459:8537   */\n      tag_238\n        /* \"#utility.yul\":8532:8536   */\n      dup2\n        /* \"#utility.yul\":8523:8529   */\n      dup8\n        /* \"#utility.yul\":8459:8537   */\n      tag_219\n      jump\t// in\n    tag_238:\n        /* \"#utility.yul\":8451:8537   */\n      swap1\n      pop\n        /* \"#utility.yul\":8585:8594   */\n      dup2\n        /* \"#utility.yul\":8579:8583   */\n      dup2\n        /* \"#utility.yul\":8575:8595   */\n      sub\n        /* \"#utility.yul\":8569:8572   */\n      0xa0\n        /* \"#utility.yul\":8558:8567   */\n      dup4\n        /* \"#utility.yul\":8554:8573   */\n      add\n        /* \"#utility.yul\":8547:8596   */\n      mstore\n        /* \"#utility.yul\":8613:8691   */\n      tag_239\n        /* \"#utility.yul\":8686:8690   */\n      dup2\n        /* \"#utility.yul\":8677:8683   */\n      dup7\n        /* \"#utility.yul\":8613:8691   */\n      tag_219\n      jump\t// in\n    tag_239:\n        /* \"#utility.yul\":8605:8691   */\n      swap1\n      pop\n        /* \"#utility.yul\":8739:8748   */\n      dup2\n        /* \"#utility.yul\":8733:8737   */\n      dup2\n        /* \"#utility.yul\":8729:8749   */\n      sub\n        /* \"#utility.yul\":8723:8726   */\n      0xc0\n        /* \"#utility.yul\":8712:8721   */\n      dup4\n        /* \"#utility.yul\":8708:8727   */\n      add\n        /* \"#utility.yul\":8701:8750   */\n      mstore\n        /* \"#utility.yul\":8767:8845   */\n      tag_240\n        /* \"#utility.yul\":8840:8844   */\n      dup2\n        /* \"#utility.yul\":8831:8837   */\n      dup6\n        /* \"#utility.yul\":8767:8845   */\n      tag_219\n      jump\t// in\n    tag_240:\n        /* \"#utility.yul\":8759:8845   */\n      swap1\n      pop\n        /* \"#utility.yul\":8855:8928   */\n      tag_241\n        /* \"#utility.yul\":8923:8926   */\n      0xe0\n        /* \"#utility.yul\":8912:8921   */\n      dup4\n        /* \"#utility.yul\":8908:8927   */\n      add\n        /* \"#utility.yul\":8899:8905   */\n      dup5\n        /* \"#utility.yul\":8855:8928   */\n      tag_229\n      jump\t// in\n    tag_241:\n        /* \"#utility.yul\":7392:8935   */\n      swap10\n      swap9\n      pop\n      pop\n      pop\n      pop\n      pop\n      pop\n      pop\n      pop\n      pop\n      jump\t// out\n        /* \"#utility.yul\":8941:9070   */\n    tag_133:\n        /* \"#utility.yul\":8975:8981   */\n      0x00\n        /* \"#utility.yul\":9002:9022   */\n      tag_243\n      tag_244\n      jump\t// in\n    tag_243:\n        /* \"#utility.yul\":8992:9022   */\n      swap1\n      pop\n        /* \"#utility.yul\":9031:9064   */\n      tag_245\n        /* \"#utility.yul\":9059:9063   */\n      dup3\n        /* \"#utility.yul\":9051:9057   */\n      dup3\n        /* \"#utility.yul\":9031:9064   */\n      tag_246\n      jump\t// in\n    tag_245:\n        /* \"#utility.yul\":8941:9070   */\n      swap2\n      swap1\n      pop\n      jump\t// out\n        /* \"#utility.yul\":9076:9151   */\n    tag_244:\n        /* \"#utility.yul\":9109:9115   */\n      0x00\n        /* \"#utility.yul\":9142:9144   */\n      0x40\n        /* \"#utility.yul\":9136:9145   */\n      mload\n        /* \"#utility.yul\":9126:9145   */\n      swap1\n      pop\n        /* \"#utility.yul\":9076:9151   */\n      swap1\n      jump\t// out\n        /* \"#utility.yul\":9157:9478   */\n    tag_132:\n        /* \"#utility.yul\":9244:9248   */\n      0x00\n        /* \"#utility.yul\":9334:9352   */\n      0xffffffffffffffff\n        /* \"#utility.yul\":9326:9332   */\n      dup3\n        /* \"#utility.yul\":9323:9353   */\n      gt\n        /* \"#utility.yul\":9320:9376   */\n      iszero\n      tag_249\n      jumpi\n        /* \"#utility.yul\":9356:9374   */\n      tag_250\n      tag_251\n      jump\t// in\n    tag_250:\n        /* \"#utility.yul\":9320:9376   */\n    tag_249:\n        /* \"#utility.yul\":9406:9410   */\n      0x20\n        /* \"#utility.yul\":9398:9404   */\n      dup3\n        /* \"#utility.yul\":9394:9411   */\n      mul\n        /* \"#utility.yul\":9386:9411   */\n      swap1\n      pop\n        /* \"#utility.yul\":9466:9470   */\n      0x20\n        /* \"#utility.yul\":9460:9464   */\n      dup2\n        /* \"#utility.yul\":9456:9471   */\n      add\n        /* \"#utility.yul\":9448:9471   */\n      swap1\n      pop\n        /* \"#utility.yul\":9157:9478   */\n      swap2\n      swap1\n      pop\n      jump\t// out\n        /* \"#utility.yul\":9484:9792   */\n    tag_149:\n        /* \"#utility.yul\":9546:9550   */\n      0x00\n        /* \"#utility.yul\":9636:9654   */\n      0xffffffffffffffff\n        /* \"#utility.yul\":9628:9634   */\n      dup3\n        /* \"#utility.yul\":9625:9655   */\n      gt\n        /* \"#utility.yul\":9622:9678   */\n      iszero\n      tag_253\n      jumpi\n        /* \"#utility.yul\":9658:9676   */\n      tag_254\n      tag_251\n      jump\t// in\n    tag_254:\n        /* \"#utility.yul\":9622:9678   */\n    tag_253:\n        /* \"#utility.yul\":9696:9725   */\n      tag_255\n        /* \"#utility.yul\":9718:9724   */\n      dup3\n        /* \"#utility.yul\":9696:9725   */\n      tag_228\n      jump\t// in\n    tag_255:\n        /* \"#utility.yul\":9688:9725   */\n      swap1\n      pop\n        /* \"#utility.yul\":9780:9784   */\n      0x20\n        /* \"#utility.yul\":9774:9778   */\n      dup2\n        /* \"#utility.yul\":9770:9785   */\n      add\n        /* \"#utility.yul\":9762:9785   */\n      swap1\n      pop\n        /* \"#utility.yul\":9484:9792   */\n      swap2\n      swap1\n      pop\n      jump\t// out\n        /* \"#utility.yul\":9798:9897   */\n    tag_222:\n        /* \"#utility.yul\":9850:9856   */\n      0x00\n        /* \"#utility.yul\":9884:9889   */\n      dup2\n        /* \"#utility.yul\":9878:9890   */\n      mload\n        /* \"#utility.yul\":9868:9890   */\n      swap1\n      pop\n        /* \"#utility.yul\":9798:9897   */\n      swap2\n      swap1\n      pop\n      jump\t// out\n        /* \"#utility.yul\":9903:10072   */\n    tag_224:\n        /* \"#utility.yul\":9987:9998   */\n      0x00\n        /* \"#utility.yul\":10021:10027   */\n      dup3\n        /* \"#utility.yul\":10016:10019   */\n      dup3\n        /* \"#utility.yul\":10009:10028   */\n      mstore\n        /* \"#utility.yul\":10061:10065   */\n      0x20\n        /* \"#utility.yul\":10056:10059   */\n      dup3\n        /* \"#utility.yul\":10052:10066   */\n      add\n        /* \"#utility.yul\":10037:10066   */\n      swap1\n      pop\n        /* \"#utility.yul\":9903:10072   */\n      swap3\n      swap2\n      pop\n      pop\n      jump\t// out\n        /* \"#utility.yul\":10078:10174   */\n    tag_218:\n        /* \"#utility.yul\":10115:10122   */\n      0x00\n        /* \"#utility.yul\":10144:10168   */\n      tag_259\n        /* \"#utility.yul\":10162:10167   */\n      dup3\n        /* \"#utility.yul\":10144:10168   */\n      tag_260\n      jump\t// in\n    tag_259:\n        /* \"#utility.yul\":10133:10168   */\n      swap1\n      pop\n        /* \"#utility.yul\":10078:10174   */\n      swap2\n      swap1\n      pop\n      jump\t// out\n        /* \"#utility.yul\":10180:10306   */\n    tag_260:\n        /* \"#utility.yul\":10217:10224   */\n      0x00\n        /* \"#utility.yul\":10257:10299   */\n      0xffffffffffffffffffffffffffffffffffffffff\n        /* \"#utility.yul\":10250:10255   */\n      dup3\n        /* \"#utility.yul\":10246:10300   */\n      and\n        /* \"#utility.yul\":10235:10300   */\n      swap1\n      pop\n        /* \"#utility.yul\":10180:10306   */\n      swap2\n      swap1\n      pop\n      jump\t// out\n        /* \"#utility.yul\":10312:10389   */\n    tag_232:\n        /* \"#utility.yul\":10349:10356   */\n      0x00\n        /* \"#utility.yul\":10378:10383   */\n      dup2\n        /* \"#utility.yul\":10367:10383   */\n      swap1\n      pop\n        /* \"#utility.yul\":10312:10389   */\n      swap2\n      swap1\n      pop\n      jump\t// out\n        /* \"#utility.yul\":10395:10481   */\n    tag_263:\n        /* \"#utility.yul\":10430:10437   */\n      0x00\n        /* \"#utility.yul\":10470:10474   */\n      0xff\n        /* \"#utility.yul\":10463:10468   */\n      dup3\n        /* \"#utility.yul\":10459:10475   */\n      and\n        /* \"#utility.yul\":10448:10475   */\n      swap1\n      pop\n        /* \"#utility.yul\":10395:10481   */\n      swap2\n      swap1\n      pop\n      jump\t// out\n        /* \"#utility.yul\":10487:10641   */\n    tag_154:\n        /* \"#utility.yul\":10571:10577   */\n      dup3\n        /* \"#utility.yul\":10566:10569   */\n      dup2\n        /* \"#utility.yul\":10561:10564   */\n      dup4\n        /* \"#utility.yul\":10548:10578   */\n      calldatacopy\n        /* \"#utility.yul\":10633:10634   */\n      0x00\n        /* \"#utility.yul\":10624:10630   */\n      dup4\n        /* \"#utility.yul\":10619:10622   */\n      dup4\n        /* \"#utility.yul\":10615:10631   */\n      add\n        /* \"#utility.yul\":10608:10635   */\n      mstore\n        /* \"#utility.yul\":10487:10641   */\n      pop\n      pop\n      pop\n      jump\t// out\n        /* \"#utility.yul\":10647:10954   */\n    tag_226:\n        /* \"#utility.yul\":10715:10716   */\n      0x00\n        /* \"#utility.yul\":10725:10838   */\n    tag_267:\n        /* \"#utility.yul\":10739:10745   */\n      dup4\n        /* \"#utility.yul\":10736:10737   */\n      dup2\n        /* \"#utility.yul\":10733:10746   */\n      lt\n        /* \"#utility.yul\":10725:10838   */\n      iszero\n      tag_269\n      jumpi\n        /* \"#utility.yul\":10824:10825   */\n      dup1\n        /* \"#utility.yul\":10819:10822   */\n      dup3\n        /* \"#utility.yul\":10815:10826   */\n      add\n        /* \"#utility.yul\":10809:10827   */\n      mload\n        /* \"#utility.yul\":10805:10806   */\n      dup2\n        /* \"#utility.yul\":10800:10803   */\n      dup5\n        /* \"#utility.yul\":10796:10807   */\n      add\n        /* \"#utility.yul\":10789:10828   */\n      mstore\n        /* \"#utility.yul\":10761:10763   */\n      0x20\n        /* \"#utility.yul\":10758:10759   */\n      dup2\n        /* \"#utility.yul\":10754:10764   */\n      add\n        /* \"#utility.yul\":10749:10764   */\n      swap1\n      pop\n        /* \"#utility.yul\":10725:10838   */\n      jump(tag_267)\n    tag_269:\n        /* \"#utility.yul\":10856:10862   */\n      dup4\n        /* \"#utility.yul\":10853:10854   */\n      dup2\n        /* \"#utility.yul\":10850:10863   */\n      gt\n        /* \"#utility.yul\":10847:10948   */\n      iszero\n      tag_270\n      jumpi\n        /* \"#utility.yul\":10936:10937   */\n      0x00\n        /* \"#utility.yul\":10927:10933   */\n      dup5\n        /* \"#utility.yul\":10922:10925   */\n      dup5\n        /* \"#utility.yul\":10918:10934   */\n      add\n        /* \"#utility.yul\":10911:10938   */\n      mstore\n        /* \"#utility.yul\":10847:10948   */\n    tag_270:\n        /* \"#utility.yul\":10696:10954   */\n      pop\n        /* \"#utility.yul\":10647:10954   */\n      pop\n      pop\n      pop\n      jump\t// out\n        /* \"#utility.yul\":10960:11280   */\n    tag_24:\n        /* \"#utility.yul\":11004:11010   */\n      0x00\n        /* \"#utility.yul\":11041:11042   */\n      0x02\n        /* \"#utility.yul\":11035:11039   */\n      dup3\n        /* \"#utility.yul\":11031:11043   */\n      div\n        /* \"#utility.yul\":11021:11043   */\n      swap1\n      pop\n        /* \"#utility.yul\":11088:11089   */\n      0x01\n        /* \"#utility.yul\":11082:11086   */\n      dup3\n        /* \"#utility.yul\":11078:11090   */\n      and\n        /* \"#utility.yul\":11109:11127   */\n      dup1\n        /* \"#utility.yul\":11099:11180   */\n      tag_272\n      jumpi\n        /* \"#utility.yul\":11165:11169   */\n      0x7f\n        /* \"#utility.yul\":11157:11163   */\n      dup3\n        /* \"#utility.yul\":11153:11170   */\n      and\n        /* \"#utility.yul\":11143:11170   */\n      swap2\n      pop\n        /* \"#utility.yul\":11099:11180   */\n    tag_272:\n        /* \"#utility.yul\":11227:11229   */\n      0x20\n        /* \"#utility.yul\":11219:11225   */\n      dup3\n        /* \"#utility.yul\":11216:11230   */\n      lt\n        /* \"#utility.yul\":11196:11214   */\n      dup2\n        /* \"#utility.yul\":11193:11231   */\n      eq\n        /* \"#utility.yul\":11190:11274   */\n      iszero\n      tag_273\n      jumpi\n        /* \"#utility.yul\":11246:11264   */\n      tag_274\n      tag_275\n      jump\t// in\n    tag_274:\n        /* \"#utility.yul\":11190:11274   */\n    tag_273:\n        /* \"#utility.yul\":11011:11280   */\n      pop\n        /* \"#utility.yul\":10960:11280   */\n      swap2\n      swap1\n      pop\n      jump\t// out\n        /* \"#utility.yul\":11286:11567   */\n    tag_246:\n        /* \"#utility.yul\":11369:11396   */\n      tag_277\n        /* \"#utility.yul\":11391:11395   */\n      dup3\n        /* \"#utility.yul\":11369:11396   */\n      tag_228\n      jump\t// in\n    tag_277:\n        /* \"#utility.yul\":11361:11367   */\n      dup2\n        /* \"#utility.yul\":11357:11397   */\n      add\n        /* \"#utility.yul\":11499:11505   */\n      dup2\n        /* \"#utility.yul\":11487:11497   */\n      dup2\n        /* \"#utility.yul\":11484:11506   */\n      lt\n        /* \"#utility.yul\":11463:11481   */\n      0xffffffffffffffff\n        /* \"#utility.yul\":11451:11461   */\n      dup3\n        /* \"#utility.yul\":11448:11482   */\n      gt\n        /* \"#utility.yul\":11445:11507   */\n      or\n        /* \"#utility.yul\":11442:11530   */\n      iszero\n      tag_278\n      jumpi\n        /* \"#utility.yul\":11510:11528   */\n      tag_279\n      tag_251\n      jump\t// in\n    tag_279:\n        /* \"#utility.yul\":11442:11530   */\n    tag_278:\n        /* \"#utility.yul\":11550:11560   */\n      dup1\n        /* \"#utility.yul\":11546:11548   */\n      0x40\n        /* \"#utility.yul\":11539:11561   */\n      mstore\n        /* \"#utility.yul\":11329:11567   */\n      pop\n        /* \"#utility.yul\":11286:11567   */\n      pop\n      pop\n      jump\t// out\n        /* \"#utility.yul\":11573:11740   */\n    tag_66:\n        /* \"#utility.yul\":11610:11613   */\n      0x00\n        /* \"#utility.yul\":11633:11655   */\n      tag_281\n        /* \"#utility.yul\":11649:11654   */\n      dup3\n        /* \"#utility.yul\":11633:11655   */\n      tag_263\n      jump\t// in\n    tag_281:\n        /* \"#utility.yul\":11624:11655   */\n      swap2\n      pop\n        /* \"#utility.yul\":11677:11681   */\n      0xff\n        /* \"#utility.yul\":11670:11675   */\n      dup3\n        /* \"#utility.yul\":11667:11682   */\n      eq\n        /* \"#utility.yul\":11664:11705   */\n      iszero\n      tag_282\n      jumpi\n        /* \"#utility.yul\":11685:11703   */\n      tag_283\n      tag_284\n      jump\t// in\n    tag_283:\n        /* \"#utility.yul\":11664:11705   */\n    tag_282:\n        /* \"#utility.yul\":11732:11733   */\n      0x01\n        /* \"#utility.yul\":11725:11730   */\n      dup3\n        /* \"#utility.yul\":11721:11734   */\n      add\n        /* \"#utility.yul\":11714:11734   */\n      swap1\n      pop\n        /* \"#utility.yul\":11573:11740   */\n      swap2\n      swap1\n      pop\n      jump\t// out\n        /* \"#utility.yul\":11746:11926   */\n    tag_284:\n        /* \"#utility.yul\":11794:11871   */\n      0x4e487b7100000000000000000000000000000000000000000000000000000000\n        /* \"#utility.yul\":11791:11792   */\n      0x00\n        /* \"#utility.yul\":11784:11872   */\n      mstore\n        /* \"#utility.yul\":11891:11895   */\n      0x11\n        /* \"#utility.yul\":11888:11889   */\n      0x04\n        /* \"#utility.yul\":11881:11896   */\n      mstore\n        /* \"#utility.yul\":11915:11919   */\n      0x24\n        /* \"#utility.yul\":11912:11913   */\n      0x00\n        /* \"#utility.yul\":11905:11920   */\n      revert\n        /* \"#utility.yul\":11932:12112   */\n    tag_275:\n        /* \"#utility.yul\":11980:12057   */\n      0x4e487b7100000000000000000000000000000000000000000000000000000000\n        /* \"#utility.yul\":11977:11978   */\n      0x00\n        /* \"#utility.yul\":11970:12058   */\n      mstore\n        /* \"#utility.yul\":12077:12081   */\n      0x22\n        /* \"#utility.yul\":12074:12075   */\n      0x04\n        /* \"#utility.yul\":12067:12082   */\n      mstore\n        /* \"#utility.yul\":12101:12105   */\n      0x24\n        /* \"#utility.yul\":12098:12099   */\n      0x00\n        /* \"#utility.yul\":12091:12106   */\n      revert\n        /* \"#utility.yul\":12118:12298   */\n    tag_61:\n        /* \"#utility.yul\":12166:12243   */\n      0x4e487b7100000000000000000000000000000000000000000000000000000000\n        /* \"#utility.yul\":12163:12164   */\n      0x00\n        /* \"#utility.yul\":12156:12244   */\n      mstore\n        /* \"#utility.yul\":12263:12267   */\n      0x32\n        /* \"#utility.yul\":12260:12261   */\n      0x04\n        /* \"#utility.yul\":12253:12268   */\n      mstore\n        /* \"#utility.yul\":12287:12291   */\n      0x24\n        /* \"#utility.yul\":12284:12285   */\n      0x00\n        /* \"#utility.yul\":12277:12292   */\n      revert\n        /* \"#utility.yul\":12304:12484   */\n    tag_251:\n        /* \"#utility.yul\":12352:12429   */\n      0x4e487b7100000000000000000000000000000000000000000000000000000000\n        /* \"#utility.yul\":12349:12350   */\n      0x00\n        /* \"#utility.yul\":12342:12430   */\n      mstore\n        /* \"#utility.yul\":12449:12453   */\n      0x41\n        /* \"#utility.yul\":12446:12447   */\n      0x04\n        /* \"#utility.yul\":12439:12454   */\n      mstore\n        /* \"#utility.yul\":12473:12477   */\n      0x24\n        /* \"#utility.yul\":12470:12471   */\n      0x00\n        /* \"#utility.yul\":12463:12478   */\n      revert\n        /* \"#utility.yul\":12490:12607   */\n    tag_142:\n        /* \"#utility.yul\":12599:12600   */\n      0x00\n        /* \"#utility.yul\":12596:12597   */\n      dup1\n        /* \"#utility.yul\":12589:12601   */\n      revert\n        /* \"#utility.yul\":12613:12730   */\n    tag_136:\n        /* \"#utility.yul\":12722:12723   */\n      0x00\n        /* \"#utility.yul\":12719:12720   */\n      dup1\n        /* \"#utility.yul\":12712:12724   */\n      revert\n        /* \"#utility.yul\":12736:12853   */\n    tag_152:\n        /* \"#utility.yul\":12845:12846   */\n      0x00\n        /* \"#utility.yul\":12842:12843   */\n      dup1\n        /* \"#utility.yul\":12835:12847   */\n      revert\n        /* \"#utility.yul\":12859:12976   */\n    tag_182:\n        /* \"#utility.yul\":12968:12969   */\n      0x00\n        /* \"#utility.yul\":12965:12966   */\n      dup1\n        /* \"#utility.yul\":12958:12970   */\n      revert\n        /* \"#utility.yul\":12982:13099   */\n    tag_175:\n        /* \"#utility.yul\":13091:13092   */\n      0x00\n        /* \"#utility.yul\":13088:13089   */\n      dup1\n        /* \"#utility.yul\":13081:13093   */\n      revert\n        /* \"#utility.yul\":13105:13207   */\n    tag_228:\n        /* \"#utility.yul\":13146:13152   */\n      0x00\n        /* \"#utility.yul\":13197:13199   */\n      0x1f\n        /* \"#utility.yul\":13193:13200   */\n      not\n        /* \"#utility.yul\":13188:13190   */\n      0x1f\n        /* \"#utility.yul\":13181:13186   */\n      dup4\n        /* \"#utility.yul\":13177:13191   */\n      add\n        /* \"#utility.yul\":13173:13201   */\n      and\n        /* \"#utility.yul\":13163:13201   */\n      swap1\n      pop\n        /* \"#utility.yul\":13105:13207   */\n      swap2\n      swap1\n      pop\n      jump\t// out\n        /* \"#utility.yul\":13213:13335   */\n    tag_158:\n        /* \"#utility.yul\":13286:13310   */\n      tag_296\n        /* \"#utility.yul\":13304:13309   */\n      dup2\n        /* \"#utility.yul\":13286:13310   */\n      tag_218\n      jump\t// in\n    tag_296:\n        /* \"#utility.yul\":13279:13284   */\n      dup2\n        /* \"#utility.yul\":13276:13311   */\n      eq\n        /* \"#utility.yul\":13266:13329   */\n      tag_297\n      jumpi\n        /* \"#utility.yul\":13325:13326   */\n      0x00\n        /* \"#utility.yul\":13322:13323   */\n      dup1\n        /* \"#utility.yul\":13315:13327   */\n      revert\n        /* \"#utility.yul\":13266:13329   */\n    tag_297:\n        /* \"#utility.yul\":13213:13335   */\n      pop\n      jump\t// out\n        /* \"#utility.yul\":13341:13459   */\n    tag_171:\n        /* \"#utility.yul\":13412:13434   */\n      tag_299\n        /* \"#utility.yul\":13428:13433   */\n      dup2\n        /* \"#utility.yul\":13412:13434   */\n      tag_263\n      jump\t// in\n    tag_299:\n        /* \"#utility.yul\":13405:13410   */\n      dup2\n        /* \"#utility.yul\":13402:13435   */\n      eq\n        /* \"#utility.yul\":13392:13453   */\n      tag_300\n      jumpi\n        /* \"#utility.yul\":13449:13450   */\n      0x00\n        /* \"#utility.yul\":13446:13447   */\n      dup1\n        /* \"#utility.yul\":13439:13451   */\n      revert\n        /* \"#utility.yul\":13392:13453   */\n    tag_300:\n        /* \"#utility.yul\":13341:13459   */\n      pop\n      jump\t// out\n\n    auxdata: 0xa26469706673582212203c6922f768dff173b69ab743ccacc75ed3a67229f3fdc58c37f65f6e0cd4b49c64736f6c63430008070033\n}\n",
				"bytecode": {
					"linkReferences": {},
					"object": "608060405234801561001057600080fd5b50611382806100206000396000f3fe608060405234801561001057600080fd5b506004361061004c5760003560e01c80639dd9d0fd14610051578063bc5c05a814610088578063ca679f1d146100a4578063fabce08f146100c0575b600080fd5b61006b60048036038101906100669190610d34565b6100ca565b60405161007f989796959493929190610fda565b60405180910390f35b6100a2600480360381019061009d9190610d61565b610462565b005b6100be60048036038101906100b99190610dbd565b6106be565b005b6100c86109b4565b005b60006020528060005260406000206000915090508060000160009054906101000a900473ffffffffffffffffffffffffffffffffffffffff1690806001018054610113906111ab565b80601f016020809104026020016040519081016040528092919081815260200182805461013f906111ab565b801561018c5780601f106101615761010080835404028352916020019161018c565b820191906000526020600020905b81548152906001019060200180831161016f57829003601f168201915b5050505050908060020180546101a1906111ab565b80601f01602080910402602001604051908101604052809291908181526020018280546101cd906111ab565b801561021a5780601f106101ef5761010080835404028352916020019161021a565b820191906000526020600020905b8154815290600101906020018083116101fd57829003601f168201915b50505050509080600301805461022f906111ab565b80601f016020809104026020016040519081016040528092919081815260200182805461025b906111ab565b80156102a85780601f1061027d576101008083540402835291602001916102a8565b820191906000526020600020905b81548152906001019060200180831161028b57829003601f168201915b5050505050908060040180546102bd906111ab565b80601f01602080910402602001604051908101604052809291908181526020018280546102e9906111ab565b80156103365780601f1061030b57610100808354040283529160200191610336565b820191906000526020600020905b81548152906001019060200180831161031957829003601f168201915b50505050509080600501805461034b906111ab565b80601f0160208091040260200160405190810160405280929190818152602001828054610377906111ab565b80156103c45780601f10610399576101008083540402835291602001916103c4565b820191906000526020600020905b8154815290600101906020018083116103a757829003601f168201915b5050505050908060060180546103d9906111ab565b80601f0160208091040260200160405190810160405280929190818152602001828054610405906111ab565b80156104525780601f1061042757610100808354040283529160200191610452565b820191906000526020600020905b81548152906001019060200180831161043557829003601f168201915b5050505050908060070154905088565b60008160ff16141561052a5760005b82518160ff161015610528576000803373ffffffffffffffffffffffffffffffffffffffff1673ffffffffffffffffffffffffffffffffffffffff168152602001908152602001600020600801838260ff16815181106104d4576104d3611296565b5b6020026020010151908060018154018082558091505060019003906000526020600020016000909190919091509080519060200190610514929190610ab6565b5080806105209061120e565b915050610471565b505b60018160ff1614156105f25760005b82518160ff1610156105f0576000803373ffffffffffffffffffffffffffffffffffffffff1673ffffffffffffffffffffffffffffffffffffffff168152602001908152602001600020600901838260ff168151811061059c5761059b611296565b5b60200260200101519080600181540180825580915050600190039060005260206000200160009091909190915090805190602001906105dc929190610ab6565b5080806105e89061120e565b915050610539565b505b60028160ff1614156106ba5760005b82518160ff1610156106b8576000803373ffffffffffffffffffffffffffffffffffffffff1673ffffffffffffffffffffffffffffffffffffffff168152602001908152602001600020600a01838260ff168151811061066457610663611296565b5b60200260200101519080600181540180825580915050600190039060005260206000200160009091909190915090805190602001906106a4929190610ab6565b5080806106b09061120e565b915050610601565b505b5050565b886000803373ffffffffffffffffffffffffffffffffffffffff1673ffffffffffffffffffffffffffffffffffffffff1681526020019081526020016000206001019080519060200190610713929190610ab6565b50876000803373ffffffffffffffffffffffffffffffffffffffff1673ffffffffffffffffffffffffffffffffffffffff1681526020019081526020016000206002019080519060200190610769929190610ab6565b50866000803373ffffffffffffffffffffffffffffffffffffffff1673ffffffffffffffffffffffffffffffffffffffff16815260200190815260200160002060030190805190602001906107bf929190610ab6565b50856000803373ffffffffffffffffffffffffffffffffffffffff1673ffffffffffffffffffffffffffffffffffffffff1681526020019081526020016000206004019080519060200190610815929190610ab6565b50846000803373ffffffffffffffffffffffffffffffffffffffff1673ffffffffffffffffffffffffffffffffffffffff168152602001908152602001600020600501908051906020019061086b929190610ab6565b50836000803373ffffffffffffffffffffffffffffffffffffffff1673ffffffffffffffffffffffffffffffffffffffff16815260200190815260200160002060060190805190602001906108c1929190610ab6565b50336000803373ffffffffffffffffffffffffffffffffffffffff1673ffffffffffffffffffffffffffffffffffffffff16815260200190815260200160002060000160006101000a81548173ffffffffffffffffffffffffffffffffffffffff021916908373ffffffffffffffffffffffffffffffffffffffff160217905550426000803373ffffffffffffffffffffffffffffffffffffffff1673ffffffffffffffffffffffffffffffffffffffff16815260200190815260200160002060070181905550610993836000610462565b61099e826001610462565b6109a9816002610462565b505050505050505050565b6000803373ffffffffffffffffffffffffffffffffffffffff1673ffffffffffffffffffffffffffffffffffffffff168152602001908152602001600020600080820160006101000a81549073ffffffffffffffffffffffffffffffffffffffff0219169055600182016000610a2a9190610b3c565b600282016000610a3a9190610b3c565b600382016000610a4a9190610b3c565b600482016000610a5a9190610b3c565b600582016000610a6a9190610b3c565b600682016000610a7a9190610b3c565b6007820160009055600882016000610a929190610b7c565b600982016000610aa29190610b7c565b600a82016000610ab29190610b7c565b5050565b828054610ac2906111ab565b90600052602060002090601f016020900481019282610ae45760008555610b2b565b82601f10610afd57805160ff1916838001178555610b2b565b82800160010185558215610b2b579182015b82811115610b2a578251825591602001919060010190610b0f565b5b509050610b389190610b9d565b5090565b508054610b48906111ab565b6000825580601f10610b5a5750610b79565b601f016020900490600052602060002090810190610b789190610b9d565b5b50565b5080546000825590600052602060002090810190610b9a9190610bba565b50565b5b80821115610bb6576000816000905550600101610b9e565b5090565b5b80821115610bda5760008181610bd19190610b3c565b50600101610bbb565b5090565b6000610bf1610bec846110a7565b611082565b90508083825260208201905082856020860282011115610c1457610c136112f9565b5b60005b85811015610c6257813567ffffffffffffffff811115610c3a57610c396112f4565b5b808601610c478982610cf1565b85526020850194506020840193505050600181019050610c17565b5050509392505050565b6000610c7f610c7a846110d3565b611082565b905082815260208101848484011115610c9b57610c9a6112fe565b5b610ca6848285611169565b509392505050565b600081359050610cbd8161131e565b92915050565b600082601f830112610cd857610cd76112f4565b5b8135610ce8848260208601610bde565b91505092915050565b600082601f830112610d0657610d056112f4565b5b8135610d16848260208601610c6c565b91505092915050565b600081359050610d2e81611335565b92915050565b600060208284031215610d4a57610d49611308565b5b6000610d5884828501610cae565b91505092915050565b60008060408385031215610d7857610d77611308565b5b600083013567ffffffffffffffff811115610d9657610d95611303565b5b610da285828601610cc3565b9250506020610db385828601610d1f565b9150509250929050565b60008060008060008060008060006101208a8c031215610de057610ddf611308565b5b60008a013567ffffffffffffffff811115610dfe57610dfd611303565b5b610e0a8c828d01610cf1565b99505060208a013567ffffffffffffffff811115610e2b57610e2a611303565b5b610e378c828d01610cf1565b98505060408a013567ffffffffffffffff811115610e5857610e57611303565b5b610e648c828d01610cf1565b97505060608a013567ffffffffffffffff811115610e8557610e84611303565b5b610e918c828d01610cf1565b96505060808a013567ffffffffffffffff811115610eb257610eb1611303565b5b610ebe8c828d01610cf1565b95505060a08a013567ffffffffffffffff811115610edf57610ede611303565b5b610eeb8c828d01610cf1565b94505060c08a013567ffffffffffffffff811115610f0c57610f0b611303565b5b610f188c828d01610cc3565b93505060e08a013567ffffffffffffffff811115610f3957610f38611303565b5b610f458c828d01610cc3565b9250506101008a013567ffffffffffffffff811115610f6757610f66611303565b5b610f738c828d01610cc3565b9150509295985092959850929598565b610f8c81611120565b82525050565b6000610f9d82611104565b610fa7818561110f565b9350610fb7818560208601611178565b610fc08161130d565b840191505092915050565b610fd481611152565b82525050565b600061010082019050610ff0600083018b610f83565b8181036020830152611002818a610f92565b905081810360408301526110168189610f92565b9050818103606083015261102a8188610f92565b9050818103608083015261103e8187610f92565b905081810360a08301526110528186610f92565b905081810360c08301526110668185610f92565b905061107560e0830184610fcb565b9998505050505050505050565b600061108c61109d565b905061109882826111dd565b919050565b6000604051905090565b600067ffffffffffffffff8211156110c2576110c16112c5565b5b602082029050602081019050919050565b600067ffffffffffffffff8211156110ee576110ed6112c5565b5b6110f78261130d565b9050602081019050919050565b600081519050919050565b600082825260208201905092915050565b600061112b82611132565b9050919050565b600073ffffffffffffffffffffffffffffffffffffffff82169050919050565b6000819050919050565b600060ff82169050919050565b82818337600083830152505050565b60005b8381101561119657808201518184015260208101905061117b565b838111156111a5576000848401525b50505050565b600060028204905060018216806111c357607f821691505b602082108114156111d7576111d6611267565b5b50919050565b6111e68261130d565b810181811067ffffffffffffffff82111715611205576112046112c5565b5b80604052505050565b60006112198261115c565b915060ff82141561122d5761122c611238565b5b600182019050919050565b7f4e487b7100000000000000000000000000000000000000000000000000000000600052601160045260246000fd5b7f4e487b7100000000000000000000000000000000000000000000000000000000600052602260045260246000fd5b7f4e487b7100000000000000000000000000000000000000000000000000000000600052603260045260246000fd5b7f4e487b7100000000000000000000000000000000000000000000000000000000600052604160045260246000fd5b600080fd5b600080fd5b600080fd5b600080fd5b600080fd5b6000601f19601f8301169050919050565b61132781611120565b811461133257600080fd5b50565b61133e8161115c565b811461134957600080fd5b5056fea26469706673582212203c6922f768dff173b69ab743ccacc75ed3a67229f3fdc58c37f65f6e0cd4b49c64736f6c63430008070033",
					"opcodes": "PUSH1 0x80 PUSH1 0x40 MSTORE CALLVALUE DUP1 ISZERO PUSH2 0x10 JUMPI PUSH1 0x0 DUP1 REVERT JUMPDEST POP PUSH2 0x1382 DUP1 PUSH2 0x20 PUSH1 0x0 CODECOPY PUSH1 0x0 RETURN INVALID PUSH1 0x80 PUSH1 0x40 MSTORE CALLVALUE DUP1 ISZERO PUSH2 0x10 JUMPI PUSH1 0x0 DUP1 REVERT JUMPDEST POP PUSH1 0x4 CALLDATASIZE LT PUSH2 0x4C JUMPI PUSH1 0x0 CALLDATALOAD PUSH1 0xE0 SHR DUP1 PUSH4 0x9DD9D0FD EQ PUSH2 0x51 JUMPI DUP1 PUSH4 0xBC5C05A8 EQ PUSH2 0x88 JUMPI DUP1 PUSH4 0xCA679F1D EQ PUSH2 0xA4 JUMPI DUP1 PUSH4 0xFABCE08F EQ PUSH2 0xC0 JUMPI JUMPDEST PUSH1 0x0 DUP1 REVERT JUMPDEST PUSH2 0x6B PUSH1 0x4 DUP1 CALLDATASIZE SUB DUP2 ADD SWAP1 PUSH2 0x66 SWAP2 SWAP1 PUSH2 0xD34 JUMP JUMPDEST PUSH2 0xCA JUMP JUMPDEST PUSH1 0x40 MLOAD PUSH2 0x7F SWAP9 SWAP8 SWAP7 SWAP6 SWAP5 SWAP4 SWAP3 SWAP2 SWAP1 PUSH2 0xFDA JUMP JUMPDEST PUSH1 0x40 MLOAD DUP1 SWAP2 SUB SWAP1 RETURN JUMPDEST PUSH2 0xA2 PUSH1 0x4 DUP1 CALLDATASIZE SUB DUP2 ADD SWAP1 PUSH2 0x9D SWAP2 SWAP1 PUSH2 0xD61 JUMP JUMPDEST PUSH2 0x462 JUMP JUMPDEST STOP JUMPDEST PUSH2 0xBE PUSH1 0x4 DUP1 CALLDATASIZE SUB DUP2 ADD SWAP1 PUSH2 0xB9 SWAP2 SWAP1 PUSH2 0xDBD JUMP JUMPDEST PUSH2 0x6BE JUMP JUMPDEST STOP JUMPDEST PUSH2 0xC8 PUSH2 0x9B4 JUMP JUMPDEST STOP JUMPDEST PUSH1 0x0 PUSH1 0x20 MSTORE DUP1 PUSH1 0x0 MSTORE PUSH1 0x40 PUSH1 0x0 KECCAK256 PUSH1 0x0 SWAP2 POP SWAP1 POP DUP1 PUSH1 0x0 ADD PUSH1 0x0 SWAP1 SLOAD SWAP1 PUSH2 0x100 EXP SWAP1 DIV PUSH20 0xFFFFFFFFFFFFFFFFFFFFFFFFFFFFFFFFFFFFFFFF AND SWAP1 DUP1 PUSH1 0x1 ADD DUP1 SLOAD PUSH2 0x113 SWAP1 PUSH2 0x11AB JUMP JUMPDEST DUP1 PUSH1 0x1F ADD PUSH1 0x20 DUP1 SWAP2 DIV MUL PUSH1 0x20 ADD PUSH1 0x40 MLOAD SWAP1 DUP2 ADD PUSH1 0x40 MSTORE DUP1 SWAP3 SWAP2 SWAP1 DUP2 DUP2 MSTORE PUSH1 0x20 ADD DUP3 DUP1 SLOAD PUSH2 0x13F SWAP1 PUSH2 0x11AB JUMP JUMPDEST DUP1 ISZERO PUSH2 0x18C JUMPI DUP1 PUSH1 0x1F LT PUSH2 0x161 JUMPI PUSH2 0x100 DUP1 DUP4 SLOAD DIV MUL DUP4 MSTORE SWAP2 PUSH1 0x20 ADD SWAP2 PUSH2 0x18C JUMP JUMPDEST DUP3 ADD SWAP2 SWAP1 PUSH1 0x0 MSTORE PUSH1 0x20 PUSH1 0x0 KECCAK256 SWAP1 JUMPDEST DUP2 SLOAD DUP2 MSTORE SWAP1 PUSH1 0x1 ADD SWAP1 PUSH1 0x20 ADD DUP1 DUP4 GT PUSH2 0x16F JUMPI DUP3 SWAP1 SUB PUSH1 0x1F AND DUP3 ADD SWAP2 JUMPDEST POP POP POP POP POP SWAP1 DUP1 PUSH1 0x2 ADD DUP1 SLOAD PUSH2 0x1A1 SWAP1 PUSH2 0x11AB JUMP JUMPDEST DUP1 PUSH1 0x1F ADD PUSH1 0x20 DUP1 SWAP2 DIV MUL PUSH1 0x20 ADD PUSH1 0x40 MLOAD SWAP1 DUP2 ADD PUSH1 0x40 MSTORE DUP1 SWAP3 SWAP2 SWAP1 DUP2 DUP2 MSTORE PUSH1 0x20 ADD DUP3 DUP1 SLOAD PUSH2 0x1CD SWAP1 PUSH2 0x11AB JUMP JUMPDEST DUP1 ISZERO PUSH2 0x21A JUMPI DUP1 PUSH1 0x1F LT PUSH2 0x1EF JUMPI PUSH2 0x100 DUP1 DUP4 SLOAD DIV MUL DUP4 MSTORE SWAP2 PUSH1 0x20 ADD SWAP2 PUSH2 0x21A JUMP JUMPDEST DUP3 ADD SWAP2 SWAP1 PUSH1 0x0 MSTORE PUSH1 0x20 PUSH1 0x0 KECCAK256 SWAP1 JUMPDEST DUP2 SLOAD DUP2 MSTORE SWAP1 PUSH1 0x1 ADD SWAP1 PUSH1 0x20 ADD DUP1 DUP4 GT PUSH2 0x1FD JUMPI DUP3 SWAP1 SUB PUSH1 0x1F AND DUP3 ADD SWAP2 JUMPDEST POP POP POP POP POP SWAP1 DUP1 PUSH1 0x3 ADD DUP1 SLOAD PUSH2 0x22F SWAP1 PUSH2 0x11AB JUMP JUMPDEST DUP1 PUSH1 0x1F ADD PUSH1 0x20 DUP1 SWAP2 DIV MUL PUSH1 0x20 ADD PUSH1 0x40 MLOAD SWAP1 DUP2 ADD PUSH1 0x40 MSTORE DUP1 SWAP3 SWAP2 SWAP1 DUP2 DUP2 MSTORE PUSH1 0x20 ADD DUP3 DUP1 SLOAD PUSH2 0x25B SWAP1 PUSH2 0x11AB JUMP JUMPDEST DUP1 ISZERO PUSH2 0x2A8 JUMPI DUP1 PUSH1 0x1F LT PUSH2 0x27D JUMPI PUSH2 0x100 DUP1 DUP4 SLOAD DIV MUL DUP4 MSTORE SWAP2 PUSH1 0x20 ADD SWAP2 PUSH2 0x2A8 JUMP JUMPDEST DUP3 ADD SWAP2 SWAP1 PUSH1 0x0 MSTORE PUSH1 0x20 PUSH1 0x0 KECCAK256 SWAP1 JUMPDEST DUP2 SLOAD DUP2 MSTORE SWAP1 PUSH1 0x1 ADD SWAP1 PUSH1 0x20 ADD DUP1 DUP4 GT PUSH2 0x28B JUMPI DUP3 SWAP1 SUB PUSH1 0x1F AND DUP3 ADD SWAP2 JUMPDEST POP POP POP POP POP SWAP1 DUP1 PUSH1 0x4 ADD DUP1 SLOAD PUSH2 0x2BD SWAP1 PUSH2 0x11AB JUMP JUMPDEST DUP1 PUSH1 0x1F ADD PUSH1 0x20 DUP1 SWAP2 DIV MUL PUSH1 0x20 ADD PUSH1 0x40 MLOAD SWAP1 DUP2 ADD PUSH1 0x40 MSTORE DUP1 SWAP3 SWAP2 SWAP1 DUP2 DUP2 MSTORE PUSH1 0x20 ADD DUP3 DUP1 SLOAD PUSH2 0x2E9 SWAP1 PUSH2 0x11AB JUMP JUMPDEST DUP1 ISZERO PUSH2 0x336 JUMPI DUP1 PUSH1 0x1F LT PUSH2 0x30B JUMPI PUSH2 0x100 DUP1 DUP4 SLOAD DIV MUL DUP4 MSTORE SWAP2 PUSH1 0x20 ADD SWAP2 PUSH2 0x336 JUMP JUMPDEST DUP3 ADD SWAP2 SWAP1 PUSH1 0x0 MSTORE PUSH1 0x20 PUSH1 0x0 KECCAK256 SWAP1 JUMPDEST DUP2 SLOAD DUP2 MSTORE SWAP1 PUSH1 0x1 ADD SWAP1 PUSH1 0x20 ADD DUP1 DUP4 GT PUSH2 0x319 JUMPI DUP3 SWAP1 SUB PUSH1 0x1F AND DUP3 ADD SWAP2 JUMPDEST POP POP POP POP POP SWAP1 DUP1 PUSH1 0x5 ADD DUP1 SLOAD PUSH2 0x34B SWAP1 PUSH2 0x11AB JUMP JUMPDEST DUP1 PUSH1 0x1F ADD PUSH1 0x20 DUP1 SWAP2 DIV MUL PUSH1 0x20 ADD PUSH1 0x40 MLOAD SWAP1 DUP2 ADD PUSH1 0x40 MSTORE DUP1 SWAP3 SWAP2 SWAP1 DUP2 DUP2 MSTORE PUSH1 0x20 ADD DUP3 DUP1 SLOAD PUSH2 0x377 SWAP1 PUSH2 0x11AB JUMP JUMPDEST DUP1 ISZERO PUSH2 0x3C4 JUMPI DUP1 PUSH1 0x1F LT PUSH2 0x399 JUMPI PUSH2 0x100 DUP1 DUP4 SLOAD DIV MUL DUP4 MSTORE SWAP2 PUSH1 0x20 ADD SWAP2 PUSH2 0x3C4 JUMP JUMPDEST DUP3 ADD SWAP2 SWAP1 PUSH1 0x0 MSTORE PUSH1 0x20 PUSH1 0x0 KECCAK256 SWAP1 JUMPDEST DUP2 SLOAD DUP2 MSTORE SWAP1 PUSH1 0x1 ADD SWAP1 PUSH1 0x20 ADD DUP1 DUP4 GT PUSH2 0x3A7 JUMPI DUP3 SWAP1 SUB PUSH1 0x1F AND DUP3 ADD SWAP2 JUMPDEST POP POP POP POP POP SWAP1 DUP1 PUSH1 0x6 ADD DUP1 SLOAD PUSH2 0x3D9 SWAP1 PUSH2 0x11AB JUMP JUMPDEST DUP1 PUSH1 0x1F ADD PUSH1 0x20 DUP1 SWAP2 DIV MUL PUSH1 0x20 ADD PUSH1 0x40 MLOAD SWAP1 DUP2 ADD PUSH1 0x40 MSTORE DUP1 SWAP3 SWAP2 SWAP1 DUP2 DUP2 MSTORE PUSH1 0x20 ADD DUP3 DUP1 SLOAD PUSH2 0x405 SWAP1 PUSH2 0x11AB JUMP JUMPDEST DUP1 ISZERO PUSH2 0x452 JUMPI DUP1 PUSH1 0x1F LT PUSH2 0x427 JUMPI PUSH2 0x100 DUP1 DUP4 SLOAD DIV MUL DUP4 MSTORE SWAP2 PUSH1 0x20 ADD SWAP2 PUSH2 0x452 JUMP JUMPDEST DUP3 ADD SWAP2 SWAP1 PUSH1 0x0 MSTORE PUSH1 0x20 PUSH1 0x0 KECCAK256 SWAP1 JUMPDEST DUP2 SLOAD DUP2 MSTORE SWAP1 PUSH1 0x1 ADD SWAP1 PUSH1 0x20 ADD DUP1 DUP4 GT PUSH2 0x435 JUMPI DUP3 SWAP1 SUB PUSH1 0x1F AND DUP3 ADD SWAP2 JUMPDEST POP POP POP POP POP SWAP1 DUP1 PUSH1 0x7 ADD SLOAD SWAP1 POP DUP9 JUMP JUMPDEST PUSH1 0x0 DUP2 PUSH1 0xFF AND EQ ISZERO PUSH2 0x52A JUMPI PUSH1 0x0 JUMPDEST DUP3 MLOAD DUP2 PUSH1 0xFF AND LT ISZERO PUSH2 0x528 JUMPI PUSH1 0x0 DUP1 CALLER PUSH20 0xFFFFFFFFFFFFFFFFFFFFFFFFFFFFFFFFFFFFFFFF AND PUSH20 0xFFFFFFFFFFFFFFFFFFFFFFFFFFFFFFFFFFFFFFFF AND DUP2 MSTORE PUSH1 0x20 ADD SWAP1 DUP2 MSTORE PUSH1 0x20 ADD PUSH1 0x0 KECCAK256 PUSH1 0x8 ADD DUP4 DUP3 PUSH1 0xFF AND DUP2 MLOAD DUP2 LT PUSH2 0x4D4 JUMPI PUSH2 0x4D3 PUSH2 0x1296 JUMP JUMPDEST JUMPDEST PUSH1 0x20 MUL PUSH1 0x20 ADD ADD MLOAD SWAP1 DUP1 PUSH1 0x1 DUP2 SLOAD ADD DUP1 DUP3 SSTORE DUP1 SWAP2 POP POP PUSH1 0x1 SWAP1 SUB SWAP1 PUSH1 0x0 MSTORE PUSH1 0x20 PUSH1 0x0 KECCAK256 ADD PUSH1 0x0 SWAP1 SWAP2 SWAP1 SWAP2 SWAP1 SWAP2 POP SWAP1 DUP1 MLOAD SWAP1 PUSH1 0x20 ADD SWAP1 PUSH2 0x514 SWAP3 SWAP2 SWAP1 PUSH2 0xAB6 JUMP JUMPDEST POP DUP1 DUP1 PUSH2 0x520 SWAP1 PUSH2 0x120E JUMP JUMPDEST SWAP2 POP POP PUSH2 0x471 JUMP JUMPDEST POP JUMPDEST PUSH1 0x1 DUP2 PUSH1 0xFF AND EQ ISZERO PUSH2 0x5F2 JUMPI PUSH1 0x0 JUMPDEST DUP3 MLOAD DUP2 PUSH1 0xFF AND LT ISZERO PUSH2 0x5F0 JUMPI PUSH1 0x0 DUP1 CALLER PUSH20 0xFFFFFFFFFFFFFFFFFFFFFFFFFFFFFFFFFFFFFFFF AND PUSH20 0xFFFFFFFFFFFFFFFFFFFFFFFFFFFFFFFFFFFFFFFF AND DUP2 MSTORE PUSH1 0x20 ADD SWAP1 DUP2 MSTORE PUSH1 0x20 ADD PUSH1 0x0 KECCAK256 PUSH1 0x9 ADD DUP4 DUP3 PUSH1 0xFF AND DUP2 MLOAD DUP2 LT PUSH2 0x59C JUMPI PUSH2 0x59B PUSH2 0x1296 JUMP JUMPDEST JUMPDEST PUSH1 0x20 MUL PUSH1 0x20 ADD ADD MLOAD SWAP1 DUP1 PUSH1 0x1 DUP2 SLOAD ADD DUP1 DUP3 SSTORE DUP1 SWAP2 POP POP PUSH1 0x1 SWAP1 SUB SWAP1 PUSH1 0x0 MSTORE PUSH1 0x20 PUSH1 0x0 KECCAK256 ADD PUSH1 0x0 SWAP1 SWAP2 SWAP1 SWAP2 SWAP1 SWAP2 POP SWAP1 DUP1 MLOAD SWAP1 PUSH1 0x20 ADD SWAP1 PUSH2 0x5DC SWAP3 SWAP2 SWAP1 PUSH2 0xAB6 JUMP JUMPDEST POP DUP1 DUP1 PUSH2 0x5E8 SWAP1 PUSH2 0x120E JUMP JUMPDEST SWAP2 POP POP PUSH2 0x539 JUMP JUMPDEST POP JUMPDEST PUSH1 0x2 DUP2 PUSH1 0xFF AND EQ ISZERO PUSH2 0x6BA JUMPI PUSH1 0x0 JUMPDEST DUP3 MLOAD DUP2 PUSH1 0xFF AND LT ISZERO PUSH2 0x6B8 JUMPI PUSH1 0x0 DUP1 CALLER PUSH20 0xFFFFFFFFFFFFFFFFFFFFFFFFFFFFFFFFFFFFFFFF AND PUSH20 0xFFFFFFFFFFFFFFFFFFFFFFFFFFFFFFFFFFFFFFFF AND DUP2 MSTORE PUSH1 0x20 ADD SWAP1 DUP2 MSTORE PUSH1 0x20 ADD PUSH1 0x0 KECCAK256 PUSH1 0xA ADD DUP4 DUP3 PUSH1 0xFF AND DUP2 MLOAD DUP2 LT PUSH2 0x664 JUMPI PUSH2 0x663 PUSH2 0x1296 JUMP JUMPDEST JUMPDEST PUSH1 0x20 MUL PUSH1 0x20 ADD ADD MLOAD SWAP1 DUP1 PUSH1 0x1 DUP2 SLOAD ADD DUP1 DUP3 SSTORE DUP1 SWAP2 POP POP PUSH1 0x1 SWAP1 SUB SWAP1 PUSH1 0x0 MSTORE PUSH1 0x20 PUSH1 0x0 KECCAK256 ADD PUSH1 0x0 SWAP1 SWAP2 SWAP1 SWAP2 SWAP1 SWAP2 POP SWAP1 DUP1 MLOAD SWAP1 PUSH1 0x20 ADD SWAP1 PUSH2 0x6A4 SWAP3 SWAP2 SWAP1 PUSH2 0xAB6 JUMP JUMPDEST POP DUP1 DUP1 PUSH2 0x6B0 SWAP1 PUSH2 0x120E JUMP JUMPDEST SWAP2 POP POP PUSH2 0x601 JUMP JUMPDEST POP JUMPDEST POP POP JUMP JUMPDEST DUP9 PUSH1 0x0 DUP1 CALLER PUSH20 0xFFFFFFFFFFFFFFFFFFFFFFFFFFFFFFFFFFFFFFFF AND PUSH20 0xFFFFFFFFFFFFFFFFFFFFFFFFFFFFFFFFFFFFFFFF AND DUP2 MSTORE PUSH1 0x20 ADD SWAP1 DUP2 MSTORE PUSH1 0x20 ADD PUSH1 0x0 KECCAK256 PUSH1 0x1 ADD SWAP1 DUP1 MLOAD SWAP1 PUSH1 0x20 ADD SWAP1 PUSH2 0x713 SWAP3 SWAP2 SWAP1 PUSH2 0xAB6 JUMP JUMPDEST POP DUP8 PUSH1 0x0 DUP1 CALLER PUSH20 0xFFFFFFFFFFFFFFFFFFFFFFFFFFFFFFFFFFFFFFFF AND PUSH20 0xFFFFFFFFFFFFFFFFFFFFFFFFFFFFFFFFFFFFFFFF AND DUP2 MSTORE PUSH1 0x20 ADD SWAP1 DUP2 MSTORE PUSH1 0x20 ADD PUSH1 0x0 KECCAK256 PUSH1 0x2 ADD SWAP1 DUP1 MLOAD SWAP1 PUSH1 0x20 ADD SWAP1 PUSH2 0x769 SWAP3 SWAP2 SWAP1 PUSH2 0xAB6 JUMP JUMPDEST POP DUP7 PUSH1 0x0 DUP1 CALLER PUSH20 0xFFFFFFFFFFFFFFFFFFFFFFFFFFFFFFFFFFFFFFFF AND PUSH20 0xFFFFFFFFFFFFFFFFFFFFFFFFFFFFFFFFFFFFFFFF AND DUP2 MSTORE PUSH1 0x20 ADD SWAP1 DUP2 MSTORE PUSH1 0x20 ADD PUSH1 0x0 KECCAK256 PUSH1 0x3 ADD SWAP1 DUP1 MLOAD SWAP1 PUSH1 0x20 ADD SWAP1 PUSH2 0x7BF SWAP3 SWAP2 SWAP1 PUSH2 0xAB6 JUMP JUMPDEST POP DUP6 PUSH1 0x0 DUP1 CALLER PUSH20 0xFFFFFFFFFFFFFFFFFFFFFFFFFFFFFFFFFFFFFFFF AND PUSH20 0xFFFFFFFFFFFFFFFFFFFFFFFFFFFFFFFFFFFFFFFF AND DUP2 MSTORE PUSH1 0x20 ADD SWAP1 DUP2 MSTORE PUSH1 0x20 ADD PUSH1 0x0 KECCAK256 PUSH1 0x4 ADD SWAP1 DUP1 MLOAD SWAP1 PUSH1 0x20 ADD SWAP1 PUSH2 0x815 SWAP3 SWAP2 SWAP1 PUSH2 0xAB6 JUMP JUMPDEST POP DUP5 PUSH1 0x0 DUP1 CALLER PUSH20 0xFFFFFFFFFFFFFFFFFFFFFFFFFFFFFFFFFFFFFFFF AND PUSH20 0xFFFFFFFFFFFFFFFFFFFFFFFFFFFFFFFFFFFFFFFF AND DUP2 MSTORE PUSH1 0x20 ADD SWAP1 DUP2 MSTORE PUSH1 0x20 ADD PUSH1 0x0 KECCAK256 PUSH1 0x5 ADD SWAP1 DUP1 MLOAD SWAP1 PUSH1 0x20 ADD SWAP1 PUSH2 0x86B SWAP3 SWAP2 SWAP1 PUSH2 0xAB6 JUMP JUMPDEST POP DUP4 PUSH1 0x0 DUP1 CALLER PUSH20 0xFFFFFFFFFFFFFFFFFFFFFFFFFFFFFFFFFFFFFFFF AND PUSH20 0xFFFFFFFFFFFFFFFFFFFFFFFFFFFFFFFFFFFFFFFF AND DUP2 MSTORE PUSH1 0x20 ADD SWAP1 DUP2 MSTORE PUSH1 0x20 ADD PUSH1 0x0 KECCAK256 PUSH1 0x6 ADD SWAP1 DUP1 MLOAD SWAP1 PUSH1 0x20 ADD SWAP1 PUSH2 0x8C1 SWAP3 SWAP2 SWAP1 PUSH2 0xAB6 JUMP JUMPDEST POP CALLER PUSH1 0x0 DUP1 CALLER PUSH20 0xFFFFFFFFFFFFFFFFFFFFFFFFFFFFFFFFFFFFFFFF AND PUSH20 0xFFFFFFFFFFFFFFFFFFFFFFFFFFFFFFFFFFFFFFFF AND DUP2 MSTORE PUSH1 0x20 ADD SWAP1 DUP2 MSTORE PUSH1 0x20 ADD PUSH1 0x0 KECCAK256 PUSH1 0x0 ADD PUSH1 0x0 PUSH2 0x100 EXP DUP2 SLOAD DUP2 PUSH20 0xFFFFFFFFFFFFFFFFFFFFFFFFFFFFFFFFFFFFFFFF MUL NOT AND SWAP1 DUP4 PUSH20 0xFFFFFFFFFFFFFFFFFFFFFFFFFFFFFFFFFFFFFFFF AND MUL OR SWAP1 SSTORE POP TIMESTAMP PUSH1 0x0 DUP1 CALLER PUSH20 0xFFFFFFFFFFFFFFFFFFFFFFFFFFFFFFFFFFFFFFFF AND PUSH20 0xFFFFFFFFFFFFFFFFFFFFFFFFFFFFFFFFFFFFFFFF AND DUP2 MSTORE PUSH1 0x20 ADD SWAP1 DUP2 MSTORE PUSH1 0x20 ADD PUSH1 0x0 KECCAK256 PUSH1 0x7 ADD DUP2 SWAP1 SSTORE POP PUSH2 0x993 DUP4 PUSH1 0x0 PUSH2 0x462 JUMP JUMPDEST PUSH2 0x99E DUP3 PUSH1 0x1 PUSH2 0x462 JUMP JUMPDEST PUSH2 0x9A9 DUP2 PUSH1 0x2 PUSH2 0x462 JUMP JUMPDEST POP POP POP POP POP POP POP POP POP JUMP JUMPDEST PUSH1 0x0 DUP1 CALLER PUSH20 0xFFFFFFFFFFFFFFFFFFFFFFFFFFFFFFFFFFFFFFFF AND PUSH20 0xFFFFFFFFFFFFFFFFFFFFFFFFFFFFFFFFFFFFFFFF AND DUP2 MSTORE PUSH1 0x20 ADD SWAP1 DUP2 MSTORE PUSH1 0x20 ADD PUSH1 0x0 KECCAK256 PUSH1 0x0 DUP1 DUP3 ADD PUSH1 0x0 PUSH2 0x100 EXP DUP2 SLOAD SWAP1 PUSH20 0xFFFFFFFFFFFFFFFFFFFFFFFFFFFFFFFFFFFFFFFF MUL NOT AND SWAP1 SSTORE PUSH1 0x1 DUP3 ADD PUSH1 0x0 PUSH2 0xA2A SWAP2 SWAP1 PUSH2 0xB3C JUMP JUMPDEST PUSH1 0x2 DUP3 ADD PUSH1 0x0 PUSH2 0xA3A SWAP2 SWAP1 PUSH2 0xB3C JUMP JUMPDEST PUSH1 0x3 DUP3 ADD PUSH1 0x0 PUSH2 0xA4A SWAP2 SWAP1 PUSH2 0xB3C JUMP JUMPDEST PUSH1 0x4 DUP3 ADD PUSH1 0x0 PUSH2 0xA5A SWAP2 SWAP1 PUSH2 0xB3C JUMP JUMPDEST PUSH1 0x5 DUP3 ADD PUSH1 0x0 PUSH2 0xA6A SWAP2 SWAP1 PUSH2 0xB3C JUMP JUMPDEST PUSH1 0x6 DUP3 ADD PUSH1 0x0 PUSH2 0xA7A SWAP2 SWAP1 PUSH2 0xB3C JUMP JUMPDEST PUSH1 0x7 DUP3 ADD PUSH1 0x0 SWAP1 SSTORE PUSH1 0x8 DUP3 ADD PUSH1 0x0 PUSH2 0xA92 SWAP2 SWAP1 PUSH2 0xB7C JUMP JUMPDEST PUSH1 0x9 DUP3 ADD PUSH1 0x0 PUSH2 0xAA2 SWAP2 SWAP1 PUSH2 0xB7C JUMP JUMPDEST PUSH1 0xA DUP3 ADD PUSH1 0x0 PUSH2 0xAB2 SWAP2 SWAP1 PUSH2 0xB7C JUMP JUMPDEST POP POP JUMP JUMPDEST DUP3 DUP1 SLOAD PUSH2 0xAC2 SWAP1 PUSH2 0x11AB JUMP JUMPDEST SWAP1 PUSH1 0x0 MSTORE PUSH1 0x20 PUSH1 0x0 KECCAK256 SWAP1 PUSH1 0x1F ADD PUSH1 0x20 SWAP1 DIV DUP2 ADD SWAP3 DUP3 PUSH2 0xAE4 JUMPI PUSH1 0x0 DUP6 SSTORE PUSH2 0xB2B JUMP JUMPDEST DUP3 PUSH1 0x1F LT PUSH2 0xAFD JUMPI DUP1 MLOAD PUSH1 0xFF NOT AND DUP4 DUP1 ADD OR DUP6 SSTORE PUSH2 0xB2B JUMP JUMPDEST DUP3 DUP1 ADD PUSH1 0x1 ADD DUP6 SSTORE DUP3 ISZERO PUSH2 0xB2B JUMPI SWAP2 DUP3 ADD JUMPDEST DUP3 DUP2 GT ISZERO PUSH2 0xB2A JUMPI DUP3 MLOAD DUP3 SSTORE SWAP2 PUSH1 0x20 ADD SWAP2 SWAP1 PUSH1 0x1 ADD SWAP1 PUSH2 0xB0F JUMP JUMPDEST JUMPDEST POP SWAP1 POP PUSH2 0xB38 SWAP2 SWAP1 PUSH2 0xB9D JUMP JUMPDEST POP SWAP1 JUMP JUMPDEST POP DUP1 SLOAD PUSH2 0xB48 SWAP1 PUSH2 0x11AB JUMP JUMPDEST PUSH1 0x0 DUP3 SSTORE DUP1 PUSH1 0x1F LT PUSH2 0xB5A JUMPI POP PUSH2 0xB79 JUMP JUMPDEST PUSH1 0x1F ADD PUSH1 0x20 SWAP1 DIV SWAP1 PUSH1 0x0 MSTORE PUSH1 0x20 PUSH1 0x0 KECCAK256 SWAP1 DUP2 ADD SWAP1 PUSH2 0xB78 SWAP2 SWAP1 PUSH2 0xB9D JUMP JUMPDEST JUMPDEST POP JUMP JUMPDEST POP DUP1 SLOAD PUSH1 0x0 DUP3 SSTORE SWAP1 PUSH1 0x0 MSTORE PUSH1 0x20 PUSH1 0x0 KECCAK256 SWAP1 DUP2 ADD SWAP1 PUSH2 0xB9A SWAP2 SWAP1 PUSH2 0xBBA JUMP JUMPDEST POP JUMP JUMPDEST JUMPDEST DUP1 DUP3 GT ISZERO PUSH2 0xBB6 JUMPI PUSH1 0x0 DUP2 PUSH1 0x0 SWAP1 SSTORE POP PUSH1 0x1 ADD PUSH2 0xB9E JUMP JUMPDEST POP SWAP1 JUMP JUMPDEST JUMPDEST DUP1 DUP3 GT ISZERO PUSH2 0xBDA JUMPI PUSH1 0x0 DUP2 DUP2 PUSH2 0xBD1 SWAP2 SWAP1 PUSH2 0xB3C JUMP JUMPDEST POP PUSH1 0x1 ADD PUSH2 0xBBB JUMP JUMPDEST POP SWAP1 JUMP JUMPDEST PUSH1 0x0 PUSH2 0xBF1 PUSH2 0xBEC DUP5 PUSH2 0x10A7 JUMP JUMPDEST PUSH2 0x1082 JUMP JUMPDEST SWAP1 POP DUP1 DUP4 DUP3 MSTORE PUSH1 0x20 DUP3 ADD SWAP1 POP DUP3 DUP6 PUSH1 0x20 DUP7 MUL DUP3 ADD GT ISZERO PUSH2 0xC14 JUMPI PUSH2 0xC13 PUSH2 0x12F9 JUMP JUMPDEST JUMPDEST PUSH1 0x0 JUMPDEST DUP6 DUP2 LT ISZERO PUSH2 0xC62 JUMPI DUP2 CALLDATALOAD PUSH8 0xFFFFFFFFFFFFFFFF DUP2 GT ISZERO PUSH2 0xC3A JUMPI PUSH2 0xC39 PUSH2 0x12F4 JUMP JUMPDEST JUMPDEST DUP1 DUP7 ADD PUSH2 0xC47 DUP10 DUP3 PUSH2 0xCF1 JUMP JUMPDEST DUP6 MSTORE PUSH1 0x20 DUP6 ADD SWAP5 POP PUSH1 0x20 DUP5 ADD SWAP4 POP POP POP PUSH1 0x1 DUP2 ADD SWAP1 POP PUSH2 0xC17 JUMP JUMPDEST POP POP POP SWAP4 SWAP3 POP POP POP JUMP JUMPDEST PUSH1 0x0 PUSH2 0xC7F PUSH2 0xC7A DUP5 PUSH2 0x10D3 JUMP JUMPDEST PUSH2 0x1082 JUMP JUMPDEST SWAP1 POP DUP3 DUP2 MSTORE PUSH1 0x20 DUP2 ADD DUP5 DUP5 DUP5 ADD GT ISZERO PUSH2 0xC9B JUMPI PUSH2 0xC9A PUSH2 0x12FE JUMP JUMPDEST JUMPDEST PUSH2 0xCA6 DUP5 DUP3 DUP6 PUSH2 0x1169 JUMP JUMPDEST POP SWAP4 SWAP3 POP POP POP JUMP JUMPDEST PUSH1 0x0 DUP2 CALLDATALOAD SWAP1 POP PUSH2 0xCBD DUP2 PUSH2 0x131E JUMP JUMPDEST SWAP3 SWAP2 POP POP JUMP JUMPDEST PUSH1 0x0 DUP3 PUSH1 0x1F DUP4 ADD SLT PUSH2 0xCD8 JUMPI PUSH2 0xCD7 PUSH2 0x12F4 JUMP JUMPDEST JUMPDEST DUP2 CALLDATALOAD PUSH2 0xCE8 DUP5 DUP3 PUSH1 0x20 DUP7 ADD PUSH2 0xBDE JUMP JUMPDEST SWAP2 POP POP SWAP3 SWAP2 POP POP JUMP JUMPDEST PUSH1 0x0 DUP3 PUSH1 0x1F DUP4 ADD SLT PUSH2 0xD06 JUMPI PUSH2 0xD05 PUSH2 0x12F4 JUMP JUMPDEST JUMPDEST DUP2 CALLDATALOAD PUSH2 0xD16 DUP5 DUP3 PUSH1 0x20 DUP7 ADD PUSH2 0xC6C JUMP JUMPDEST SWAP2 POP POP SWAP3 SWAP2 POP POP JUMP JUMPDEST PUSH1 0x0 DUP2 CALLDATALOAD SWAP1 POP PUSH2 0xD2E DUP2 PUSH2 0x1335 JUMP JUMPDEST SWAP3 SWAP2 POP POP JUMP JUMPDEST PUSH1 0x0 PUSH1 0x20 DUP3 DUP5 SUB SLT ISZERO PUSH2 0xD4A JUMPI PUSH2 0xD49 PUSH2 0x1308 JUMP JUMPDEST JUMPDEST PUSH1 0x0 PUSH2 0xD58 DUP5 DUP3 DUP6 ADD PUSH2 0xCAE JUMP JUMPDEST SWAP2 POP POP SWAP3 SWAP2 POP POP JUMP JUMPDEST PUSH1 0x0 DUP1 PUSH1 0x40 DUP4 DUP6 SUB SLT ISZERO PUSH2 0xD78 JUMPI PUSH2 0xD77 PUSH2 0x1308 JUMP JUMPDEST JUMPDEST PUSH1 0x0 DUP4 ADD CALLDATALOAD PUSH8 0xFFFFFFFFFFFFFFFF DUP2 GT ISZERO PUSH2 0xD96 JUMPI PUSH2 0xD95 PUSH2 0x1303 JUMP JUMPDEST JUMPDEST PUSH2 0xDA2 DUP6 DUP3 DUP7 ADD PUSH2 0xCC3 JUMP JUMPDEST SWAP3 POP POP PUSH1 0x20 PUSH2 0xDB3 DUP6 DUP3 DUP7 ADD PUSH2 0xD1F JUMP JUMPDEST SWAP2 POP POP SWAP3 POP SWAP3 SWAP1 POP JUMP JUMPDEST PUSH1 0x0 DUP1 PUSH1 0x0 DUP1 PUSH1 0x0 DUP1 PUSH1 0x0 DUP1 PUSH1 0x0 PUSH2 0x120 DUP11 DUP13 SUB SLT ISZERO PUSH2 0xDE0 JUMPI PUSH2 0xDDF PUSH2 0x1308 JUMP JUMPDEST JUMPDEST PUSH1 0x0 DUP11 ADD CALLDATALOAD PUSH8 0xFFFFFFFFFFFFFFFF DUP2 GT ISZERO PUSH2 0xDFE JUMPI PUSH2 0xDFD PUSH2 0x1303 JUMP JUMPDEST JUMPDEST PUSH2 0xE0A DUP13 DUP3 DUP14 ADD PUSH2 0xCF1 JUMP JUMPDEST SWAP10 POP POP PUSH1 0x20 DUP11 ADD CALLDATALOAD PUSH8 0xFFFFFFFFFFFFFFFF DUP2 GT ISZERO PUSH2 0xE2B JUMPI PUSH2 0xE2A PUSH2 0x1303 JUMP JUMPDEST JUMPDEST PUSH2 0xE37 DUP13 DUP3 DUP14 ADD PUSH2 0xCF1 JUMP JUMPDEST SWAP9 POP POP PUSH1 0x40 DUP11 ADD CALLDATALOAD PUSH8 0xFFFFFFFFFFFFFFFF DUP2 GT ISZERO PUSH2 0xE58 JUMPI PUSH2 0xE57 PUSH2 0x1303 JUMP JUMPDEST JUMPDEST PUSH2 0xE64 DUP13 DUP3 DUP14 ADD PUSH2 0xCF1 JUMP JUMPDEST SWAP8 POP POP PUSH1 0x60 DUP11 ADD CALLDATALOAD PUSH8 0xFFFFFFFFFFFFFFFF DUP2 GT ISZERO PUSH2 0xE85 JUMPI PUSH2 0xE84 PUSH2 0x1303 JUMP JUMPDEST JUMPDEST PUSH2 0xE91 DUP13 DUP3 DUP14 ADD PUSH2 0xCF1 JUMP JUMPDEST SWAP7 POP POP PUSH1 0x80 DUP11 ADD CALLDATALOAD PUSH8 0xFFFFFFFFFFFFFFFF DUP2 GT ISZERO PUSH2 0xEB2 JUMPI PUSH2 0xEB1 PUSH2 0x1303 JUMP JUMPDEST JUMPDEST PUSH2 0xEBE DUP13 DUP3 DUP14 ADD PUSH2 0xCF1 JUMP JUMPDEST SWAP6 POP POP PUSH1 0xA0 DUP11 ADD CALLDATALOAD PUSH8 0xFFFFFFFFFFFFFFFF DUP2 GT ISZERO PUSH2 0xEDF JUMPI PUSH2 0xEDE PUSH2 0x1303 JUMP JUMPDEST JUMPDEST PUSH2 0xEEB DUP13 DUP3 DUP14 ADD PUSH2 0xCF1 JUMP JUMPDEST SWAP5 POP POP PUSH1 0xC0 DUP11 ADD CALLDATALOAD PUSH8 0xFFFFFFFFFFFFFFFF DUP2 GT ISZERO PUSH2 0xF0C JUMPI PUSH2 0xF0B PUSH2 0x1303 JUMP JUMPDEST JUMPDEST PUSH2 0xF18 DUP13 DUP3 DUP14 ADD PUSH2 0xCC3 JUMP JUMPDEST SWAP4 POP POP PUSH1 0xE0 DUP11 ADD CALLDATALOAD PUSH8 0xFFFFFFFFFFFFFFFF DUP2 GT ISZERO PUSH2 0xF39 JUMPI PUSH2 0xF38 PUSH2 0x1303 JUMP JUMPDEST JUMPDEST PUSH2 0xF45 DUP13 DUP3 DUP14 ADD PUSH2 0xCC3 JUMP JUMPDEST SWAP3 POP POP PUSH2 0x100 DUP11 ADD CALLDATALOAD PUSH8 0xFFFFFFFFFFFFFFFF DUP2 GT ISZERO PUSH2 0xF67 JUMPI PUSH2 0xF66 PUSH2 0x1303 JUMP JUMPDEST JUMPDEST PUSH2 0xF73 DUP13 DUP3 DUP14 ADD PUSH2 0xCC3 JUMP JUMPDEST SWAP2 POP POP SWAP3 SWAP6 SWAP9 POP SWAP3 SWAP6 SWAP9 POP SWAP3 SWAP6 SWAP9 JUMP JUMPDEST PUSH2 0xF8C DUP2 PUSH2 0x1120 JUMP JUMPDEST DUP3 MSTORE POP POP JUMP JUMPDEST PUSH1 0x0 PUSH2 0xF9D DUP3 PUSH2 0x1104 JUMP JUMPDEST PUSH2 0xFA7 DUP2 DUP6 PUSH2 0x110F JUMP JUMPDEST SWAP4 POP PUSH2 0xFB7 DUP2 DUP6 PUSH1 0x20 DUP7 ADD PUSH2 0x1178 JUMP JUMPDEST PUSH2 0xFC0 DUP2 PUSH2 0x130D JUMP JUMPDEST DUP5 ADD SWAP2 POP POP SWAP3 SWAP2 POP POP JUMP JUMPDEST PUSH2 0xFD4 DUP2 PUSH2 0x1152 JUMP JUMPDEST DUP3 MSTORE POP POP JUMP JUMPDEST PUSH1 0x0 PUSH2 0x100 DUP3 ADD SWAP1 POP PUSH2 0xFF0 PUSH1 0x0 DUP4 ADD DUP12 PUSH2 0xF83 JUMP JUMPDEST DUP2 DUP2 SUB PUSH1 0x20 DUP4 ADD MSTORE PUSH2 0x1002 DUP2 DUP11 PUSH2 0xF92 JUMP JUMPDEST SWAP1 POP DUP2 DUP2 SUB PUSH1 0x40 DUP4 ADD MSTORE PUSH2 0x1016 DUP2 DUP10 PUSH2 0xF92 JUMP JUMPDEST SWAP1 POP DUP2 DUP2 SUB PUSH1 0x60 DUP4 ADD MSTORE PUSH2 0x102A DUP2 DUP9 PUSH2 0xF92 JUMP JUMPDEST SWAP1 POP DUP2 DUP2 SUB PUSH1 0x80 DUP4 ADD MSTORE PUSH2 0x103E DUP2 DUP8 PUSH2 0xF92 JUMP JUMPDEST SWAP1 POP DUP2 DUP2 SUB PUSH1 0xA0 DUP4 ADD MSTORE PUSH2 0x1052 DUP2 DUP7 PUSH2 0xF92 JUMP JUMPDEST SWAP1 POP DUP2 DUP2 SUB PUSH1 0xC0 DUP4 ADD MSTORE PUSH2 0x1066 DUP2 DUP6 PUSH2 0xF92 JUMP JUMPDEST SWAP1 POP PUSH2 0x1075 PUSH1 0xE0 DUP4 ADD DUP5 PUSH2 0xFCB JUMP JUMPDEST SWAP10 SWAP9 POP POP POP POP POP POP POP POP POP JUMP JUMPDEST PUSH1 0x0 PUSH2 0x108C PUSH2 0x109D JUMP JUMPDEST SWAP1 POP PUSH2 0x1098 DUP3 DUP3 PUSH2 0x11DD JUMP JUMPDEST SWAP2 SWAP1 POP JUMP JUMPDEST PUSH1 0x0 PUSH1 0x40 MLOAD SWAP1 POP SWAP1 JUMP JUMPDEST PUSH1 0x0 PUSH8 0xFFFFFFFFFFFFFFFF DUP3 GT ISZERO PUSH2 0x10C2 JUMPI PUSH2 0x10C1 PUSH2 0x12C5 JUMP JUMPDEST JUMPDEST PUSH1 0x20 DUP3 MUL SWAP1 POP PUSH1 0x20 DUP2 ADD SWAP1 POP SWAP2 SWAP1 POP JUMP JUMPDEST PUSH1 0x0 PUSH8 0xFFFFFFFFFFFFFFFF DUP3 GT ISZERO PUSH2 0x10EE JUMPI PUSH2 0x10ED PUSH2 0x12C5 JUMP JUMPDEST JUMPDEST PUSH2 0x10F7 DUP3 PUSH2 0x130D JUMP JUMPDEST SWAP1 POP PUSH1 0x20 DUP2 ADD SWAP1 POP SWAP2 SWAP1 POP JUMP JUMPDEST PUSH1 0x0 DUP2 MLOAD SWAP1 POP SWAP2 SWAP1 POP JUMP JUMPDEST PUSH1 0x0 DUP3 DUP3 MSTORE PUSH1 0x20 DUP3 ADD SWAP1 POP SWAP3 SWAP2 POP POP JUMP JUMPDEST PUSH1 0x0 PUSH2 0x112B DUP3 PUSH2 0x1132 JUMP JUMPDEST SWAP1 POP SWAP2 SWAP1 POP JUMP JUMPDEST PUSH1 0x0 PUSH20 0xFFFFFFFFFFFFFFFFFFFFFFFFFFFFFFFFFFFFFFFF DUP3 AND SWAP1 POP SWAP2 SWAP1 POP JUMP JUMPDEST PUSH1 0x0 DUP2 SWAP1 POP SWAP2 SWAP1 POP JUMP JUMPDEST PUSH1 0x0 PUSH1 0xFF DUP3 AND SWAP1 POP SWAP2 SWAP1 POP JUMP JUMPDEST DUP3 DUP2 DUP4 CALLDATACOPY PUSH1 0x0 DUP4 DUP4 ADD MSTORE POP POP POP JUMP JUMPDEST PUSH1 0x0 JUMPDEST DUP4 DUP2 LT ISZERO PUSH2 0x1196 JUMPI DUP1 DUP3 ADD MLOAD DUP2 DUP5 ADD MSTORE PUSH1 0x20 DUP2 ADD SWAP1 POP PUSH2 0x117B JUMP JUMPDEST DUP4 DUP2 GT ISZERO PUSH2 0x11A5 JUMPI PUSH1 0x0 DUP5 DUP5 ADD MSTORE JUMPDEST POP POP POP POP JUMP JUMPDEST PUSH1 0x0 PUSH1 0x2 DUP3 DIV SWAP1 POP PUSH1 0x1 DUP3 AND DUP1 PUSH2 0x11C3 JUMPI PUSH1 0x7F DUP3 AND SWAP2 POP JUMPDEST PUSH1 0x20 DUP3 LT DUP2 EQ ISZERO PUSH2 0x11D7 JUMPI PUSH2 0x11D6 PUSH2 0x1267 JUMP JUMPDEST JUMPDEST POP SWAP2 SWAP1 POP JUMP JUMPDEST PUSH2 0x11E6 DUP3 PUSH2 0x130D JUMP JUMPDEST DUP2 ADD DUP2 DUP2 LT PUSH8 0xFFFFFFFFFFFFFFFF DUP3 GT OR ISZERO PUSH2 0x1205 JUMPI PUSH2 0x1204 PUSH2 0x12C5 JUMP JUMPDEST JUMPDEST DUP1 PUSH1 0x40 MSTORE POP POP POP JUMP JUMPDEST PUSH1 0x0 PUSH2 0x1219 DUP3 PUSH2 0x115C JUMP JUMPDEST SWAP2 POP PUSH1 0xFF DUP3 EQ ISZERO PUSH2 0x122D JUMPI PUSH2 0x122C PUSH2 0x1238 JUMP JUMPDEST JUMPDEST PUSH1 0x1 DUP3 ADD SWAP1 POP SWAP2 SWAP1 POP JUMP JUMPDEST PUSH32 0x4E487B7100000000000000000000000000000000000000000000000000000000 PUSH1 0x0 MSTORE PUSH1 0x11 PUSH1 0x4 MSTORE PUSH1 0x24 PUSH1 0x0 REVERT JUMPDEST PUSH32 0x4E487B7100000000000000000000000000000000000000000000000000000000 PUSH1 0x0 MSTORE PUSH1 0x22 PUSH1 0x4 MSTORE PUSH1 0x24 PUSH1 0x0 REVERT JUMPDEST PUSH32 0x4E487B7100000000000000000000000000000000000000000000000000000000 PUSH1 0x0 MSTORE PUSH1 0x32 PUSH1 0x4 MSTORE PUSH1 0x24 PUSH1 0x0 REVERT JUMPDEST PUSH32 0x4E487B7100000000000000000000000000000000000000000000000000000000 PUSH1 0x0 MSTORE PUSH1 0x41 PUSH1 0x4 MSTORE PUSH1 0x24 PUSH1 0x0 REVERT JUMPDEST PUSH1 0x0 DUP1 REVERT JUMPDEST PUSH1 0x0 DUP1 REVERT JUMPDEST PUSH1 0x0 DUP1 REVERT JUMPDEST PUSH1 0x0 DUP1 REVERT JUMPDEST PUSH1 0x0 DUP1 REVERT JUMPDEST PUSH1 0x0 PUSH1 0x1F NOT PUSH1 0x1F DUP4 ADD AND SWAP1 POP SWAP2 SWAP1 POP JUMP JUMPDEST PUSH2 0x1327 DUP2 PUSH2 0x1120 JUMP JUMPDEST DUP2 EQ PUSH2 0x1332 JUMPI PUSH1 0x0 DUP1 REVERT JUMPDEST POP JUMP JUMPDEST PUSH2 0x133E DUP2 PUSH2 0x115C JUMP JUMPDEST DUP2 EQ PUSH2 0x1349 JUMPI PUSH1 0x0 DUP1 REVERT JUMPDEST POP JUMP INVALID LOG2 PUSH5 0x6970667358 0x22 SLT KECCAK256 EXTCODECOPY PUSH10 0x22F768DFF173B69AB743 0xCC 0xAC 0xC7 0x5E 0xD3 0xA6 PUSH19 0x29F3FDC58C37F65F6E0CD4B49C64736F6C6343 STOP ADDMOD SMOD STOP CALLER "
				},
				"gasEstimates": {
					"creation": {
						"codeDepositCost": "998800",
						"executionCost": "1041",
						"totalCost": "999841"
					},
					"external": {
						"addBio(string,string,string,string,string,string,string[],string[],string[])": "infinite",
						"addSkill(string[],uint8)": "infinite",
						"delProfile()": "infinite",
						"profile(address)": "infinite"
					}
				},
				"methodIdentifiers": {
					"addBio(string,string,string,string,string,string,string[],string[],string[])": "ca679f1d",
					"addSkill(string[],uint8)": "bc5c05a8",
					"delProfile()": "fabce08f",
					"profile(address)": "9dd9d0fd"
				}
			},
			"storageLayout": {
				"storage": [
					{
						"astId": 32,
						"contract": "contracts/Profile.sol:Profile",
						"label": "profile",
						"offset": 0,
						"slot": "0",
						"type": "t_mapping(t_address,t_struct(Bio)27_storage)"
					}
				],
				"types": {
					"t_address": {
						"encoding": "inplace",
						"label": "address",
						"numberOfBytes": "20"
					},
					"t_array(t_string_storage)dyn_storage": {
						"base": "t_string_storage",
						"encoding": "dynamic_array",
						"label": "string[]",
						"numberOfBytes": "32"
					},
					"t_mapping(t_address,t_struct(Bio)27_storage)": {
						"encoding": "mapping",
						"key": "t_address",
						"label": "mapping(address => struct Profile.Bio)",
						"numberOfBytes": "32",
						"value": "t_struct(Bio)27_storage"
					},
					"t_string_storage": {
						"encoding": "bytes",
						"label": "string",
						"numberOfBytes": "32"
					},
					"t_struct(Bio)27_storage": {
						"encoding": "inplace",
						"label": "struct Profile.Bio",
						"members": [
							{
								"astId": 3,
								"contract": "contracts/Profile.sol:Profile",
								"label": "userAddress",
								"offset": 0,
								"slot": "0",
								"type": "t_address"
							},
							{
								"astId": 5,
								"contract": "contracts/Profile.sol:Profile",
								"label": "firstName",
								"offset": 0,
								"slot": "1",
								"type": "t_string_storage"
							},
							{
								"astId": 7,
								"contract": "contracts/Profile.sol:Profile",
								"label": "middleName",
								"offset": 0,
								"slot": "2",
								"type": "t_string_storage"
							},
							{
								"astId": 9,
								"contract": "contracts/Profile.sol:Profile",
								"label": "lastName",
								"offset": 0,
								"slot": "3",
								"type": "t_string_storage"
							},
							{
								"astId": 11,
								"contract": "contracts/Profile.sol:Profile",
								"label": "email",
								"offset": 0,
								"slot": "4",
								"type": "t_string_storage"
							},
							{
								"astId": 13,
								"contract": "contracts/Profile.sol:Profile",
								"label": "phone",
								"offset": 0,
								"slot": "5",
								"type": "t_string_storage"
							},
							{
								"astId": 15,
								"contract": "contracts/Profile.sol:Profile",
								"label": "profileImage",
								"offset": 0,
								"slot": "6",
								"type": "t_string_storage"
							},
							{
								"astId": 17,
								"contract": "contracts/Profile.sol:Profile",
								"label": "createDate",
								"offset": 0,
								"slot": "7",
								"type": "t_uint256"
							},
							{
								"astId": 20,
								"contract": "contracts/Profile.sol:Profile",
								"label": "frontend",
								"offset": 0,
								"slot": "8",
								"type": "t_array(t_string_storage)dyn_storage"
							},
							{
								"astId": 23,
								"contract": "contracts/Profile.sol:Profile",
								"label": "backend",
								"offset": 0,
								"slot": "9",
								"type": "t_array(t_string_storage)dyn_storage"
							},
							{
								"astId": 26,
								"contract": "contracts/Profile.sol:Profile",
								"label": "framework",
								"offset": 0,
								"slot": "10",
								"type": "t_array(t_string_storage)dyn_storage"
							}
						],
						"numberOfBytes": "352"
					},
					"t_uint256": {
						"encoding": "inplace",
						"label": "uint256",
						"numberOfBytes": "32"
					}
				}
			},
			"userdoc": {
				"kind": "user",
				"methods": {},
				"version": 1
			}
		}
	}
}