{
	"contracts/Profile.sol": {
		"CrowdFunding": {
			"abi": [
				{
					"inputs": [
						{
							"internalType": "uint256",
							"name": "campaignID",
							"type": "uint256"
						}
					],
					"name": "checkGoalReached",
					"outputs": [
						{
							"internalType": "bool",
							"name": "reached",
							"type": "bool"
						}
					],
					"stateMutability": "nonpayable",
					"type": "function"
				},
				{
					"inputs": [
						{
							"internalType": "uint256",
							"name": "campaignID",
							"type": "uint256"
						}
					],
					"name": "contribute",
					"outputs": [],
					"stateMutability": "payable",
					"type": "function"
				},
				{
					"inputs": [
						{
							"internalType": "address payable",
							"name": "beneficiary",
							"type": "address"
						},
						{
							"internalType": "uint256",
							"name": "goal",
							"type": "uint256"
						}
					],
					"name": "newCampaign",
					"outputs": [
						{
							"internalType": "uint256",
							"name": "campaignID",
							"type": "uint256"
						}
					],
					"stateMutability": "nonpayable",
					"type": "function"
				}
			],
			"devdoc": {
				"kind": "dev",
				"methods": {},
				"version": 1
			},
			"evm": {
				"assembly": "    /* \"contracts/Profile.sol\":291:1961  contract CrowdFunding {\r... */\n  mstore(0x40, 0x80)\n  callvalue\n  dup1\n  iszero\n  tag_1\n  jumpi\n  0x00\n  dup1\n  revert\ntag_1:\n  pop\n  dataSize(sub_0)\n  dup1\n  dataOffset(sub_0)\n  0x00\n  codecopy\n  0x00\n  return\nstop\n\nsub_0: assembly {\n        /* \"contracts/Profile.sol\":291:1961  contract CrowdFunding {\r... */\n      mstore(0x40, 0x80)\n      jumpi(tag_1, lt(calldatasize, 0x04))\n      shr(0xe0, calldataload(0x00))\n      dup1\n      0x5b2329d4\n      eq\n      tag_2\n      jumpi\n      dup1\n      0xc1cbbca7\n      eq\n      tag_3\n      jumpi\n      dup1\n      0xf7572cf3\n      eq\n      tag_4\n      jumpi\n    tag_1:\n      0x00\n      dup1\n      revert\n        /* \"contracts/Profile.sol\":1639:1958  function checkGoalReached(uint campaignID) public returns (bool reached) {\r... */\n    tag_2:\n      callvalue\n      dup1\n      iszero\n      tag_5\n      jumpi\n      0x00\n      dup1\n      revert\n    tag_5:\n      pop\n      tag_6\n      0x04\n      dup1\n      calldatasize\n      sub\n      dup2\n      add\n      swap1\n      tag_7\n      swap2\n      swap1\n      tag_8\n      jump\t// in\n    tag_7:\n      tag_9\n      jump\t// in\n    tag_6:\n      mload(0x40)\n      tag_10\n      swap2\n      swap1\n      tag_11\n      jump\t// in\n    tag_10:\n      mload(0x40)\n      dup1\n      swap2\n      sub\n      swap1\n      return\n        /* \"contracts/Profile.sol\":1190:1631  function contribute(uint campaignID) public payable {\r... */\n    tag_3:\n      tag_12\n      0x04\n      dup1\n      calldatasize\n      sub\n      dup2\n      add\n      swap1\n      tag_13\n      swap2\n      swap1\n      tag_8\n      jump\t// in\n    tag_13:\n      tag_14\n      jump\t// in\n    tag_12:\n      stop\n        /* \"contracts/Profile.sol\":701:1182  function newCampaign(address payable beneficiary, uint goal) public returns (uint campaignID) {\r... */\n    tag_4:\n      callvalue\n      dup1\n      iszero\n      tag_15\n      jumpi\n      0x00\n      dup1\n      revert\n    tag_15:\n      pop\n      tag_16\n      0x04\n      dup1\n      calldatasize\n      sub\n      dup2\n      add\n      swap1\n      tag_17\n      swap2\n      swap1\n      tag_18\n      jump\t// in\n    tag_17:\n      tag_19\n      jump\t// in\n    tag_16:\n      mload(0x40)\n      tag_20\n      swap2\n      swap1\n      tag_21\n      jump\t// in\n    tag_20:\n      mload(0x40)\n      dup1\n      swap2\n      sub\n      swap1\n      return\n        /* \"contracts/Profile.sol\":1639:1958  function checkGoalReached(uint campaignID) public returns (bool reached) {\r... */\n    tag_9:\n        /* \"contracts/Profile.sol\":1698:1710  bool reached */\n      0x00\n        /* \"contracts/Profile.sol\":1723:1741  Campaign storage c */\n      dup1\n        /* \"contracts/Profile.sol\":1744:1753  campaigns */\n      0x01\n        /* \"contracts/Profile.sol\":1744:1765  campaigns[campaignID] */\n      0x00\n        /* \"contracts/Profile.sol\":1754:1764  campaignID */\n      dup5\n        /* \"contracts/Profile.sol\":1744:1765  campaigns[campaignID] */\n      dup2\n      mstore\n      0x20\n      add\n      swap1\n      dup2\n      mstore\n      0x20\n      add\n      0x00\n      keccak256\n        /* \"contracts/Profile.sol\":1723:1765  Campaign storage c = campaigns[campaignID] */\n      swap1\n      pop\n        /* \"contracts/Profile.sol\":1791:1792  c */\n      dup1\n        /* \"contracts/Profile.sol\":1791:1804  c.fundingGoal */\n      0x01\n      add\n      sload\n        /* \"contracts/Profile.sol\":1780:1781  c */\n      dup2\n        /* \"contracts/Profile.sol\":1780:1788  c.amount */\n      0x03\n      add\n      sload\n        /* \"contracts/Profile.sol\":1780:1804  c.amount < c.fundingGoal */\n      lt\n        /* \"contracts/Profile.sol\":1776:1831  if (c.amount < c.fundingGoal)\r... */\n      iszero\n      tag_23\n      jumpi\n        /* \"contracts/Profile.sol\":1826:1831  false */\n      0x00\n        /* \"contracts/Profile.sol\":1819:1831  return false */\n      swap2\n      pop\n      pop\n      jump(tag_22)\n        /* \"contracts/Profile.sol\":1776:1831  if (c.amount < c.fundingGoal)\r... */\n    tag_23:\n        /* \"contracts/Profile.sol\":1842:1853  uint amount */\n      0x00\n        /* \"contracts/Profile.sol\":1856:1857  c */\n      dup2\n        /* \"contracts/Profile.sol\":1856:1864  c.amount */\n      0x03\n      add\n      sload\n        /* \"contracts/Profile.sol\":1842:1864  uint amount = c.amount */\n      swap1\n      pop\n        /* \"contracts/Profile.sol\":1886:1887  0 */\n      0x00\n        /* \"contracts/Profile.sol\":1875:1876  c */\n      dup3\n        /* \"contracts/Profile.sol\":1875:1883  c.amount */\n      0x03\n      add\n        /* \"contracts/Profile.sol\":1875:1887  c.amount = 0 */\n      dup2\n      swap1\n      sstore\n      pop\n        /* \"contracts/Profile.sol\":1898:1899  c */\n      dup2\n        /* \"contracts/Profile.sol\":1898:1911  c.beneficiary */\n      0x00\n      add\n      0x00\n      swap1\n      sload\n      swap1\n      0x0100\n      exp\n      swap1\n      div\n      0xffffffffffffffffffffffffffffffffffffffff\n      and\n        /* \"contracts/Profile.sol\":1898:1920  c.beneficiary.transfer */\n      0xffffffffffffffffffffffffffffffffffffffff\n      and\n        /* \"contracts/Profile.sol\":1898:1928  c.beneficiary.transfer(amount) */\n      0x08fc\n        /* \"contracts/Profile.sol\":1921:1927  amount */\n      dup3\n        /* \"contracts/Profile.sol\":1898:1928  c.beneficiary.transfer(amount) */\n      swap1\n      dup2\n      iszero\n      mul\n      swap1\n      mload(0x40)\n      0x00\n      mload(0x40)\n      dup1\n      dup4\n      sub\n      dup2\n      dup6\n      dup9\n      dup9\n      call\n      swap4\n      pop\n      pop\n      pop\n      pop\n      iszero\n      dup1\n      iszero\n      tag_25\n      jumpi\n      returndatasize\n      0x00\n      dup1\n      returndatacopy\n      revert(0x00, returndatasize)\n    tag_25:\n      pop\n        /* \"contracts/Profile.sol\":1946:1950  true */\n      0x01\n        /* \"contracts/Profile.sol\":1939:1950  return true */\n      swap3\n      pop\n      pop\n      pop\n        /* \"contracts/Profile.sol\":1639:1958  function checkGoalReached(uint campaignID) public returns (bool reached) {\r... */\n    tag_22:\n      swap2\n      swap1\n      pop\n      jump\t// out\n        /* \"contracts/Profile.sol\":1190:1631  function contribute(uint campaignID) public payable {\r... */\n    tag_14:\n        /* \"contracts/Profile.sol\":1253:1271  Campaign storage c */\n      0x00\n        /* \"contracts/Profile.sol\":1274:1283  campaigns */\n      0x01\n        /* \"contracts/Profile.sol\":1274:1295  campaigns[campaignID] */\n      0x00\n        /* \"contracts/Profile.sol\":1284:1294  campaignID */\n      dup4\n        /* \"contracts/Profile.sol\":1274:1295  campaigns[campaignID] */\n      dup2\n      mstore\n      0x20\n      add\n      swap1\n      dup2\n      mstore\n      0x20\n      add\n      0x00\n      keccak256\n        /* \"contracts/Profile.sol\":1253:1295  Campaign storage c = campaigns[campaignID] */\n      swap1\n      pop\n        /* \"contracts/Profile.sol\":1546:1591  Funder({addr: msg.sender, amount: msg.value}) */\n      mload(0x40)\n      dup1\n      0x40\n      add\n      0x40\n      mstore\n      dup1\n        /* \"contracts/Profile.sol\":1560:1570  msg.sender */\n      caller\n        /* \"contracts/Profile.sol\":1546:1591  Funder({addr: msg.sender, amount: msg.value}) */\n      0xffffffffffffffffffffffffffffffffffffffff\n      and\n      dup2\n      mstore\n      0x20\n      add\n        /* \"contracts/Profile.sol\":1580:1589  msg.value */\n      callvalue\n        /* \"contracts/Profile.sol\":1546:1591  Funder({addr: msg.sender, amount: msg.value}) */\n      dup2\n      mstore\n      pop\n        /* \"contracts/Profile.sol\":1518:1519  c */\n      dup2\n        /* \"contracts/Profile.sol\":1518:1527  c.funders */\n      0x04\n      add\n        /* \"contracts/Profile.sol\":1518:1543  c.funders[c.numFunders++] */\n      0x00\n        /* \"contracts/Profile.sol\":1528:1529  c */\n      dup4\n        /* \"contracts/Profile.sol\":1528:1540  c.numFunders */\n      0x02\n      add\n      0x00\n        /* \"contracts/Profile.sol\":1528:1542  c.numFunders++ */\n      dup2\n      sload\n      dup1\n      swap3\n      swap2\n      swap1\n      tag_27\n      swap1\n      tag_28\n      jump\t// in\n    tag_27:\n      swap2\n      swap1\n      pop\n      sstore\n        /* \"contracts/Profile.sol\":1518:1543  c.funders[c.numFunders++] */\n      dup2\n      mstore\n      0x20\n      add\n      swap1\n      dup2\n      mstore\n      0x20\n      add\n      0x00\n      keccak256\n        /* \"contracts/Profile.sol\":1518:1591  c.funders[c.numFunders++] = Funder({addr: msg.sender, amount: msg.value}) */\n      0x00\n      dup3\n      add\n      mload\n      dup2\n      0x00\n      add\n      exp(0x0100, 0x00)\n      dup2\n      sload\n      dup2\n      0xffffffffffffffffffffffffffffffffffffffff\n      mul\n      not\n      and\n      swap1\n      dup4\n      0xffffffffffffffffffffffffffffffffffffffff\n      and\n      mul\n      or\n      swap1\n      sstore\n      pop\n      0x20\n      dup3\n      add\n      mload\n      dup2\n      0x01\n      add\n      sstore\n      swap1\n      pop\n      pop\n        /* \"contracts/Profile.sol\":1614:1623  msg.value */\n      callvalue\n        /* \"contracts/Profile.sol\":1602:1603  c */\n      dup2\n        /* \"contracts/Profile.sol\":1602:1610  c.amount */\n      0x03\n      add\n      0x00\n        /* \"contracts/Profile.sol\":1602:1623  c.amount += msg.value */\n      dup3\n      dup3\n      sload\n      tag_29\n      swap2\n      swap1\n      tag_30\n      jump\t// in\n    tag_29:\n      swap3\n      pop\n      pop\n      dup2\n      swap1\n      sstore\n      pop\n        /* \"contracts/Profile.sol\":1242:1631  {\r... */\n      pop\n        /* \"contracts/Profile.sol\":1190:1631  function contribute(uint campaignID) public payable {\r... */\n      pop\n      jump\t// out\n        /* \"contracts/Profile.sol\":701:1182  function newCampaign(address payable beneficiary, uint goal) public returns (uint campaignID) {\r... */\n    tag_19:\n        /* \"contracts/Profile.sol\":778:793  uint campaignID */\n      0x00\n        /* \"contracts/Profile.sol\":819:831  numCampaigns */\n      dup1\n      0x00\n        /* \"contracts/Profile.sol\":819:833  numCampaigns++ */\n      dup2\n      sload\n      dup1\n      swap3\n      swap2\n      swap1\n      tag_32\n      swap1\n      tag_28\n      jump\t// in\n    tag_32:\n      swap2\n      swap1\n      pop\n      sstore\n        /* \"contracts/Profile.sol\":806:833  campaignID = numCampaigns++ */\n      swap1\n      pop\n        /* \"contracts/Profile.sol\":1063:1081  Campaign storage c */\n      0x00\n        /* \"contracts/Profile.sol\":1084:1093  campaigns */\n      0x01\n        /* \"contracts/Profile.sol\":1084:1105  campaigns[campaignID] */\n      0x00\n        /* \"contracts/Profile.sol\":1094:1104  campaignID */\n      dup4\n        /* \"contracts/Profile.sol\":1084:1105  campaigns[campaignID] */\n      dup2\n      mstore\n      0x20\n      add\n      swap1\n      dup2\n      mstore\n      0x20\n      add\n      0x00\n      keccak256\n        /* \"contracts/Profile.sol\":1063:1105  Campaign storage c = campaigns[campaignID] */\n      swap1\n      pop\n        /* \"contracts/Profile.sol\":1132:1143  beneficiary */\n      dup4\n        /* \"contracts/Profile.sol\":1116:1117  c */\n      dup2\n        /* \"contracts/Profile.sol\":1116:1129  c.beneficiary */\n      0x00\n      add\n      0x00\n        /* \"contracts/Profile.sol\":1116:1143  c.beneficiary = beneficiary */\n      0x0100\n      exp\n      dup2\n      sload\n      dup2\n      0xffffffffffffffffffffffffffffffffffffffff\n      mul\n      not\n      and\n      swap1\n      dup4\n      0xffffffffffffffffffffffffffffffffffffffff\n      and\n      mul\n      or\n      swap1\n      sstore\n      pop\n        /* \"contracts/Profile.sol\":1170:1174  goal */\n      dup3\n        /* \"contracts/Profile.sol\":1154:1155  c */\n      dup2\n        /* \"contracts/Profile.sol\":1154:1167  c.fundingGoal */\n      0x01\n      add\n        /* \"contracts/Profile.sol\":1154:1174  c.fundingGoal = goal */\n      dup2\n      swap1\n      sstore\n      pop\n        /* \"contracts/Profile.sol\":795:1182  {\r... */\n      pop\n        /* \"contracts/Profile.sol\":701:1182  function newCampaign(address payable beneficiary, uint goal) public returns (uint campaignID) {\r... */\n      swap3\n      swap2\n      pop\n      pop\n      jump\t// out\n        /* \"#utility.yul\":7:162   */\n    tag_34:\n        /* \"#utility.yul\":61:66   */\n      0x00\n        /* \"#utility.yul\":99:105   */\n      dup2\n        /* \"#utility.yul\":86:106   */\n      calldataload\n        /* \"#utility.yul\":77:106   */\n      swap1\n      pop\n        /* \"#utility.yul\":115:156   */\n      tag_36\n        /* \"#utility.yul\":150:155   */\n      dup2\n        /* \"#utility.yul\":115:156   */\n      tag_37\n      jump\t// in\n    tag_36:\n        /* \"#utility.yul\":7:162   */\n      swap3\n      swap2\n      pop\n      pop\n      jump\t// out\n        /* \"#utility.yul\":168:307   */\n    tag_38:\n        /* \"#utility.yul\":214:219   */\n      0x00\n        /* \"#utility.yul\":252:258   */\n      dup2\n        /* \"#utility.yul\":239:259   */\n      calldataload\n        /* \"#utility.yul\":230:259   */\n      swap1\n      pop\n        /* \"#utility.yul\":268:301   */\n      tag_40\n        /* \"#utility.yul\":295:300   */\n      dup2\n        /* \"#utility.yul\":268:301   */\n      tag_41\n      jump\t// in\n    tag_40:\n        /* \"#utility.yul\":168:307   */\n      swap3\n      swap2\n      pop\n      pop\n      jump\t// out\n        /* \"#utility.yul\":313:803   */\n    tag_18:\n        /* \"#utility.yul\":389:395   */\n      0x00\n        /* \"#utility.yul\":397:403   */\n      dup1\n        /* \"#utility.yul\":446:448   */\n      0x40\n        /* \"#utility.yul\":434:443   */\n      dup4\n        /* \"#utility.yul\":425:432   */\n      dup6\n        /* \"#utility.yul\":421:444   */\n      sub\n        /* \"#utility.yul\":417:449   */\n      slt\n        /* \"#utility.yul\":414:533   */\n      iszero\n      tag_43\n      jumpi\n        /* \"#utility.yul\":452:531   */\n      tag_44\n      tag_45\n      jump\t// in\n    tag_44:\n        /* \"#utility.yul\":414:533   */\n    tag_43:\n        /* \"#utility.yul\":572:573   */\n      0x00\n        /* \"#utility.yul\":597:658   */\n      tag_46\n        /* \"#utility.yul\":650:657   */\n      dup6\n        /* \"#utility.yul\":641:647   */\n      dup3\n        /* \"#utility.yul\":630:639   */\n      dup7\n        /* \"#utility.yul\":626:648   */\n      add\n        /* \"#utility.yul\":597:658   */\n      tag_34\n      jump\t// in\n    tag_46:\n        /* \"#utility.yul\":587:658   */\n      swap3\n      pop\n        /* \"#utility.yul\":543:668   */\n      pop\n        /* \"#utility.yul\":707:709   */\n      0x20\n        /* \"#utility.yul\":733:786   */\n      tag_47\n        /* \"#utility.yul\":778:785   */\n      dup6\n        /* \"#utility.yul\":769:775   */\n      dup3\n        /* \"#utility.yul\":758:767   */\n      dup7\n        /* \"#utility.yul\":754:776   */\n      add\n        /* \"#utility.yul\":733:786   */\n      tag_38\n      jump\t// in\n    tag_47:\n        /* \"#utility.yul\":723:786   */\n      swap2\n      pop\n        /* \"#utility.yul\":678:796   */\n      pop\n        /* \"#utility.yul\":313:803   */\n      swap3\n      pop\n      swap3\n      swap1\n      pop\n      jump\t// out\n        /* \"#utility.yul\":809:1138   */\n    tag_8:\n        /* \"#utility.yul\":868:874   */\n      0x00\n        /* \"#utility.yul\":917:919   */\n      0x20\n        /* \"#utility.yul\":905:914   */\n      dup3\n        /* \"#utility.yul\":896:903   */\n      dup5\n        /* \"#utility.yul\":892:915   */\n      sub\n        /* \"#utility.yul\":888:920   */\n      slt\n        /* \"#utility.yul\":885:1004   */\n      iszero\n      tag_49\n      jumpi\n        /* \"#utility.yul\":923:1002   */\n      tag_50\n      tag_45\n      jump\t// in\n    tag_50:\n        /* \"#utility.yul\":885:1004   */\n    tag_49:\n        /* \"#utility.yul\":1043:1044   */\n      0x00\n        /* \"#utility.yul\":1068:1121   */\n      tag_51\n        /* \"#utility.yul\":1113:1120   */\n      dup5\n        /* \"#utility.yul\":1104:1110   */\n      dup3\n        /* \"#utility.yul\":1093:1102   */\n      dup6\n        /* \"#utility.yul\":1089:1111   */\n      add\n        /* \"#utility.yul\":1068:1121   */\n      tag_38\n      jump\t// in\n    tag_51:\n        /* \"#utility.yul\":1058:1121   */\n      swap2\n      pop\n        /* \"#utility.yul\":1014:1131   */\n      pop\n        /* \"#utility.yul\":809:1138   */\n      swap3\n      swap2\n      pop\n      pop\n      jump\t// out\n        /* \"#utility.yul\":1144:1253   */\n    tag_52:\n        /* \"#utility.yul\":1225:1246   */\n      tag_54\n        /* \"#utility.yul\":1240:1245   */\n      dup2\n        /* \"#utility.yul\":1225:1246   */\n      tag_55\n      jump\t// in\n    tag_54:\n        /* \"#utility.yul\":1220:1223   */\n      dup3\n        /* \"#utility.yul\":1213:1247   */\n      mstore\n        /* \"#utility.yul\":1144:1253   */\n      pop\n      pop\n      jump\t// out\n        /* \"#utility.yul\":1259:1377   */\n    tag_56:\n        /* \"#utility.yul\":1346:1370   */\n      tag_58\n        /* \"#utility.yul\":1364:1369   */\n      dup2\n        /* \"#utility.yul\":1346:1370   */\n      tag_59\n      jump\t// in\n    tag_58:\n        /* \"#utility.yul\":1341:1344   */\n      dup3\n        /* \"#utility.yul\":1334:1371   */\n      mstore\n        /* \"#utility.yul\":1259:1377   */\n      pop\n      pop\n      jump\t// out\n        /* \"#utility.yul\":1383:1593   */\n    tag_11:\n        /* \"#utility.yul\":1470:1474   */\n      0x00\n        /* \"#utility.yul\":1508:1510   */\n      0x20\n        /* \"#utility.yul\":1497:1506   */\n      dup3\n        /* \"#utility.yul\":1493:1511   */\n      add\n        /* \"#utility.yul\":1485:1511   */\n      swap1\n      pop\n        /* \"#utility.yul\":1521:1586   */\n      tag_61\n        /* \"#utility.yul\":1583:1584   */\n      0x00\n        /* \"#utility.yul\":1572:1581   */\n      dup4\n        /* \"#utility.yul\":1568:1585   */\n      add\n        /* \"#utility.yul\":1559:1565   */\n      dup5\n        /* \"#utility.yul\":1521:1586   */\n      tag_52\n      jump\t// in\n    tag_61:\n        /* \"#utility.yul\":1383:1593   */\n      swap3\n      swap2\n      pop\n      pop\n      jump\t// out\n        /* \"#utility.yul\":1599:1821   */\n    tag_21:\n        /* \"#utility.yul\":1692:1696   */\n      0x00\n        /* \"#utility.yul\":1730:1732   */\n      0x20\n        /* \"#utility.yul\":1719:1728   */\n      dup3\n        /* \"#utility.yul\":1715:1733   */\n      add\n        /* \"#utility.yul\":1707:1733   */\n      swap1\n      pop\n        /* \"#utility.yul\":1743:1814   */\n      tag_63\n        /* \"#utility.yul\":1811:1812   */\n      0x00\n        /* \"#utility.yul\":1800:1809   */\n      dup4\n        /* \"#utility.yul\":1796:1813   */\n      add\n        /* \"#utility.yul\":1787:1793   */\n      dup5\n        /* \"#utility.yul\":1743:1814   */\n      tag_56\n      jump\t// in\n    tag_63:\n        /* \"#utility.yul\":1599:1821   */\n      swap3\n      swap2\n      pop\n      pop\n      jump\t// out\n        /* \"#utility.yul\":1908:2213   */\n    tag_30:\n        /* \"#utility.yul\":1948:1951   */\n      0x00\n        /* \"#utility.yul\":1967:1987   */\n      tag_67\n        /* \"#utility.yul\":1985:1986   */\n      dup3\n        /* \"#utility.yul\":1967:1987   */\n      tag_59\n      jump\t// in\n    tag_67:\n        /* \"#utility.yul\":1962:1987   */\n      swap2\n      pop\n        /* \"#utility.yul\":2001:2021   */\n      tag_68\n        /* \"#utility.yul\":2019:2020   */\n      dup4\n        /* \"#utility.yul\":2001:2021   */\n      tag_59\n      jump\t// in\n    tag_68:\n        /* \"#utility.yul\":1996:2021   */\n      swap3\n      pop\n        /* \"#utility.yul\":2155:2156   */\n      dup3\n        /* \"#utility.yul\":2087:2153   */\n      0xffffffffffffffffffffffffffffffffffffffffffffffffffffffffffffffff\n        /* \"#utility.yul\":2083:2157   */\n      sub\n        /* \"#utility.yul\":2080:2081   */\n      dup3\n        /* \"#utility.yul\":2077:2158   */\n      gt\n        /* \"#utility.yul\":2074:2181   */\n      iszero\n      tag_69\n      jumpi\n        /* \"#utility.yul\":2161:2179   */\n      tag_70\n      tag_71\n      jump\t// in\n    tag_70:\n        /* \"#utility.yul\":2074:2181   */\n    tag_69:\n        /* \"#utility.yul\":2205:2206   */\n      dup3\n        /* \"#utility.yul\":2202:2203   */\n      dup3\n        /* \"#utility.yul\":2198:2207   */\n      add\n        /* \"#utility.yul\":2191:2207   */\n      swap1\n      pop\n        /* \"#utility.yul\":1908:2213   */\n      swap3\n      swap2\n      pop\n      pop\n      jump\t// out\n        /* \"#utility.yul\":2219:2323   */\n    tag_72:\n        /* \"#utility.yul\":2264:2271   */\n      0x00\n        /* \"#utility.yul\":2293:2317   */\n      tag_74\n        /* \"#utility.yul\":2311:2316   */\n      dup3\n        /* \"#utility.yul\":2293:2317   */\n      tag_75\n      jump\t// in\n    tag_74:\n        /* \"#utility.yul\":2282:2317   */\n      swap1\n      pop\n        /* \"#utility.yul\":2219:2323   */\n      swap2\n      swap1\n      pop\n      jump\t// out\n        /* \"#utility.yul\":2329:2419   */\n    tag_55:\n        /* \"#utility.yul\":2363:2370   */\n      0x00\n        /* \"#utility.yul\":2406:2411   */\n      dup2\n        /* \"#utility.yul\":2399:2412   */\n      iszero\n        /* \"#utility.yul\":2392:2413   */\n      iszero\n        /* \"#utility.yul\":2381:2413   */\n      swap1\n      pop\n        /* \"#utility.yul\":2329:2419   */\n      swap2\n      swap1\n      pop\n      jump\t// out\n        /* \"#utility.yul\":2425:2551   */\n    tag_75:\n        /* \"#utility.yul\":2462:2469   */\n      0x00\n        /* \"#utility.yul\":2502:2544   */\n      0xffffffffffffffffffffffffffffffffffffffff\n        /* \"#utility.yul\":2495:2500   */\n      dup3\n        /* \"#utility.yul\":2491:2545   */\n      and\n        /* \"#utility.yul\":2480:2545   */\n      swap1\n      pop\n        /* \"#utility.yul\":2425:2551   */\n      swap2\n      swap1\n      pop\n      jump\t// out\n        /* \"#utility.yul\":2557:2634   */\n    tag_59:\n        /* \"#utility.yul\":2594:2601   */\n      0x00\n        /* \"#utility.yul\":2623:2628   */\n      dup2\n        /* \"#utility.yul\":2612:2628   */\n      swap1\n      pop\n        /* \"#utility.yul\":2557:2634   */\n      swap2\n      swap1\n      pop\n      jump\t// out\n        /* \"#utility.yul\":2640:2873   */\n    tag_28:\n        /* \"#utility.yul\":2679:2682   */\n      0x00\n        /* \"#utility.yul\":2702:2726   */\n      tag_80\n        /* \"#utility.yul\":2720:2725   */\n      dup3\n        /* \"#utility.yul\":2702:2726   */\n      tag_59\n      jump\t// in\n    tag_80:\n        /* \"#utility.yul\":2693:2726   */\n      swap2\n      pop\n        /* \"#utility.yul\":2748:2814   */\n      0xffffffffffffffffffffffffffffffffffffffffffffffffffffffffffffffff\n        /* \"#utility.yul\":2741:2746   */\n      dup3\n        /* \"#utility.yul\":2738:2815   */\n      eq\n        /* \"#utility.yul\":2735:2838   */\n      iszero\n      tag_81\n      jumpi\n        /* \"#utility.yul\":2818:2836   */\n      tag_82\n      tag_71\n      jump\t// in\n    tag_82:\n        /* \"#utility.yul\":2735:2838   */\n    tag_81:\n        /* \"#utility.yul\":2865:2866   */\n      0x01\n        /* \"#utility.yul\":2858:2863   */\n      dup3\n        /* \"#utility.yul\":2854:2867   */\n      add\n        /* \"#utility.yul\":2847:2867   */\n      swap1\n      pop\n        /* \"#utility.yul\":2640:2873   */\n      swap2\n      swap1\n      pop\n      jump\t// out\n        /* \"#utility.yul\":2879:3059   */\n    tag_71:\n        /* \"#utility.yul\":2927:3004   */\n      0x4e487b7100000000000000000000000000000000000000000000000000000000\n        /* \"#utility.yul\":2924:2925   */\n      0x00\n        /* \"#utility.yul\":2917:3005   */\n      mstore\n        /* \"#utility.yul\":3024:3028   */\n      0x11\n        /* \"#utility.yul\":3021:3022   */\n      0x04\n        /* \"#utility.yul\":3014:3029   */\n      mstore\n        /* \"#utility.yul\":3048:3052   */\n      0x24\n        /* \"#utility.yul\":3045:3046   */\n      0x00\n        /* \"#utility.yul\":3038:3053   */\n      revert\n        /* \"#utility.yul\":3188:3305   */\n    tag_45:\n        /* \"#utility.yul\":3297:3298   */\n      0x00\n        /* \"#utility.yul\":3294:3295   */\n      dup1\n        /* \"#utility.yul\":3287:3299   */\n      revert\n        /* \"#utility.yul\":3311:3449   */\n    tag_37:\n        /* \"#utility.yul\":3392:3424   */\n      tag_88\n        /* \"#utility.yul\":3418:3423   */\n      dup2\n        /* \"#utility.yul\":3392:3424   */\n      tag_72\n      jump\t// in\n    tag_88:\n        /* \"#utility.yul\":3385:3390   */\n      dup2\n        /* \"#utility.yul\":3382:3425   */\n      eq\n        /* \"#utility.yul\":3372:3443   */\n      tag_89\n      jumpi\n        /* \"#utility.yul\":3439:3440   */\n      0x00\n        /* \"#utility.yul\":3436:3437   */\n      dup1\n        /* \"#utility.yul\":3429:3441   */\n      revert\n        /* \"#utility.yul\":3372:3443   */\n    tag_89:\n        /* \"#utility.yul\":3311:3449   */\n      pop\n      jump\t// out\n        /* \"#utility.yul\":3455:3577   */\n    tag_41:\n        /* \"#utility.yul\":3528:3552   */\n      tag_91\n        /* \"#utility.yul\":3546:3551   */\n      dup2\n        /* \"#utility.yul\":3528:3552   */\n      tag_59\n      jump\t// in\n    tag_91:\n        /* \"#utility.yul\":3521:3526   */\n      dup2\n        /* \"#utility.yul\":3518:3553   */\n      eq\n        /* \"#utility.yul\":3508:3571   */\n      tag_92\n      jumpi\n        /* \"#utility.yul\":3567:3568   */\n      0x00\n        /* \"#utility.yul\":3564:3565   */\n      dup1\n        /* \"#utility.yul\":3557:3569   */\n      revert\n        /* \"#utility.yul\":3508:3571   */\n    tag_92:\n        /* \"#utility.yul\":3455:3577   */\n      pop\n      jump\t// out\n\n    auxdata: 0xa2646970667358221220ded2a5396fa57c1546c69d1e7113f4808a19b0dc1d32c4a7927a0862fb0f240564736f6c63430008070033\n}\n",
				"bytecode": {
					"linkReferences": {},
					"object": "608060405234801561001057600080fd5b5061055b806100206000396000f3fe6080604052600436106100345760003560e01c80635b2329d414610039578063c1cbbca714610076578063f7572cf314610092575b600080fd5b34801561004557600080fd5b50610060600480360381019061005b919061035b565b6100cf565b60405161006d91906103a6565b60405180910390f35b610090600480360381019061008b919061035b565b61018b565b005b34801561009e57600080fd5b506100b960048036038101906100b4919061031b565b61026d565b6040516100c691906103c1565b60405180910390f35b600080600160008481526020019081526020016000209050806001015481600301541015610101576000915050610186565b600081600301549050600082600301819055508160000160009054906101000a900473ffffffffffffffffffffffffffffffffffffffff1673ffffffffffffffffffffffffffffffffffffffff166108fc829081150290604051600060405180830381858888f1935050505015801561017e573d6000803e3d6000fd5b506001925050505b919050565b600060016000838152602001908152602001600020905060405180604001604052803373ffffffffffffffffffffffffffffffffffffffff168152602001348152508160040160008360020160008154809291906101e89061047a565b91905055815260200190815260200160002060008201518160000160006101000a81548173ffffffffffffffffffffffffffffffffffffffff021916908373ffffffffffffffffffffffffffffffffffffffff160217905550602082015181600101559050503481600301600082825461026291906103dc565b925050819055505050565b60008060008154809291906102819061047a565b9190505590506000600160008381526020019081526020016000209050838160000160006101000a81548173ffffffffffffffffffffffffffffffffffffffff021916908373ffffffffffffffffffffffffffffffffffffffff1602179055508281600101819055505092915050565b600081359050610300816104f7565b92915050565b6000813590506103158161050e565b92915050565b60008060408385031215610332576103316104f2565b5b6000610340858286016102f1565b925050602061035185828601610306565b9150509250929050565b600060208284031215610371576103706104f2565b5b600061037f84828501610306565b91505092915050565b61039181610444565b82525050565b6103a081610470565b82525050565b60006020820190506103bb6000830184610388565b92915050565b60006020820190506103d66000830184610397565b92915050565b60006103e782610470565b91506103f283610470565b9250827fffffffffffffffffffffffffffffffffffffffffffffffffffffffffffffffff03821115610427576104266104c3565b5b828201905092915050565b600061043d82610450565b9050919050565b60008115159050919050565b600073ffffffffffffffffffffffffffffffffffffffff82169050919050565b6000819050919050565b600061048582610470565b91507fffffffffffffffffffffffffffffffffffffffffffffffffffffffffffffffff8214156104b8576104b76104c3565b5b600182019050919050565b7f4e487b7100000000000000000000000000000000000000000000000000000000600052601160045260246000fd5b600080fd5b61050081610432565b811461050b57600080fd5b50565b61051781610470565b811461052257600080fd5b5056fea2646970667358221220ded2a5396fa57c1546c69d1e7113f4808a19b0dc1d32c4a7927a0862fb0f240564736f6c63430008070033",
					"opcodes": "PUSH1 0x80 PUSH1 0x40 MSTORE CALLVALUE DUP1 ISZERO PUSH2 0x10 JUMPI PUSH1 0x0 DUP1 REVERT JUMPDEST POP PUSH2 0x55B DUP1 PUSH2 0x20 PUSH1 0x0 CODECOPY PUSH1 0x0 RETURN INVALID PUSH1 0x80 PUSH1 0x40 MSTORE PUSH1 0x4 CALLDATASIZE LT PUSH2 0x34 JUMPI PUSH1 0x0 CALLDATALOAD PUSH1 0xE0 SHR DUP1 PUSH4 0x5B2329D4 EQ PUSH2 0x39 JUMPI DUP1 PUSH4 0xC1CBBCA7 EQ PUSH2 0x76 JUMPI DUP1 PUSH4 0xF7572CF3 EQ PUSH2 0x92 JUMPI JUMPDEST PUSH1 0x0 DUP1 REVERT JUMPDEST CALLVALUE DUP1 ISZERO PUSH2 0x45 JUMPI PUSH1 0x0 DUP1 REVERT JUMPDEST POP PUSH2 0x60 PUSH1 0x4 DUP1 CALLDATASIZE SUB DUP2 ADD SWAP1 PUSH2 0x5B SWAP2 SWAP1 PUSH2 0x35B JUMP JUMPDEST PUSH2 0xCF JUMP JUMPDEST PUSH1 0x40 MLOAD PUSH2 0x6D SWAP2 SWAP1 PUSH2 0x3A6 JUMP JUMPDEST PUSH1 0x40 MLOAD DUP1 SWAP2 SUB SWAP1 RETURN JUMPDEST PUSH2 0x90 PUSH1 0x4 DUP1 CALLDATASIZE SUB DUP2 ADD SWAP1 PUSH2 0x8B SWAP2 SWAP1 PUSH2 0x35B JUMP JUMPDEST PUSH2 0x18B JUMP JUMPDEST STOP JUMPDEST CALLVALUE DUP1 ISZERO PUSH2 0x9E JUMPI PUSH1 0x0 DUP1 REVERT JUMPDEST POP PUSH2 0xB9 PUSH1 0x4 DUP1 CALLDATASIZE SUB DUP2 ADD SWAP1 PUSH2 0xB4 SWAP2 SWAP1 PUSH2 0x31B JUMP JUMPDEST PUSH2 0x26D JUMP JUMPDEST PUSH1 0x40 MLOAD PUSH2 0xC6 SWAP2 SWAP1 PUSH2 0x3C1 JUMP JUMPDEST PUSH1 0x40 MLOAD DUP1 SWAP2 SUB SWAP1 RETURN JUMPDEST PUSH1 0x0 DUP1 PUSH1 0x1 PUSH1 0x0 DUP5 DUP2 MSTORE PUSH1 0x20 ADD SWAP1 DUP2 MSTORE PUSH1 0x20 ADD PUSH1 0x0 KECCAK256 SWAP1 POP DUP1 PUSH1 0x1 ADD SLOAD DUP2 PUSH1 0x3 ADD SLOAD LT ISZERO PUSH2 0x101 JUMPI PUSH1 0x0 SWAP2 POP POP PUSH2 0x186 JUMP JUMPDEST PUSH1 0x0 DUP2 PUSH1 0x3 ADD SLOAD SWAP1 POP PUSH1 0x0 DUP3 PUSH1 0x3 ADD DUP2 SWAP1 SSTORE POP DUP2 PUSH1 0x0 ADD PUSH1 0x0 SWAP1 SLOAD SWAP1 PUSH2 0x100 EXP SWAP1 DIV PUSH20 0xFFFFFFFFFFFFFFFFFFFFFFFFFFFFFFFFFFFFFFFF AND PUSH20 0xFFFFFFFFFFFFFFFFFFFFFFFFFFFFFFFFFFFFFFFF AND PUSH2 0x8FC DUP3 SWAP1 DUP2 ISZERO MUL SWAP1 PUSH1 0x40 MLOAD PUSH1 0x0 PUSH1 0x40 MLOAD DUP1 DUP4 SUB DUP2 DUP6 DUP9 DUP9 CALL SWAP4 POP POP POP POP ISZERO DUP1 ISZERO PUSH2 0x17E JUMPI RETURNDATASIZE PUSH1 0x0 DUP1 RETURNDATACOPY RETURNDATASIZE PUSH1 0x0 REVERT JUMPDEST POP PUSH1 0x1 SWAP3 POP POP POP JUMPDEST SWAP2 SWAP1 POP JUMP JUMPDEST PUSH1 0x0 PUSH1 0x1 PUSH1 0x0 DUP4 DUP2 MSTORE PUSH1 0x20 ADD SWAP1 DUP2 MSTORE PUSH1 0x20 ADD PUSH1 0x0 KECCAK256 SWAP1 POP PUSH1 0x40 MLOAD DUP1 PUSH1 0x40 ADD PUSH1 0x40 MSTORE DUP1 CALLER PUSH20 0xFFFFFFFFFFFFFFFFFFFFFFFFFFFFFFFFFFFFFFFF AND DUP2 MSTORE PUSH1 0x20 ADD CALLVALUE DUP2 MSTORE POP DUP2 PUSH1 0x4 ADD PUSH1 0x0 DUP4 PUSH1 0x2 ADD PUSH1 0x0 DUP2 SLOAD DUP1 SWAP3 SWAP2 SWAP1 PUSH2 0x1E8 SWAP1 PUSH2 0x47A JUMP JUMPDEST SWAP2 SWAP1 POP SSTORE DUP2 MSTORE PUSH1 0x20 ADD SWAP1 DUP2 MSTORE PUSH1 0x20 ADD PUSH1 0x0 KECCAK256 PUSH1 0x0 DUP3 ADD MLOAD DUP2 PUSH1 0x0 ADD PUSH1 0x0 PUSH2 0x100 EXP DUP2 SLOAD DUP2 PUSH20 0xFFFFFFFFFFFFFFFFFFFFFFFFFFFFFFFFFFFFFFFF MUL NOT AND SWAP1 DUP4 PUSH20 0xFFFFFFFFFFFFFFFFFFFFFFFFFFFFFFFFFFFFFFFF AND MUL OR SWAP1 SSTORE POP PUSH1 0x20 DUP3 ADD MLOAD DUP2 PUSH1 0x1 ADD SSTORE SWAP1 POP POP CALLVALUE DUP2 PUSH1 0x3 ADD PUSH1 0x0 DUP3 DUP3 SLOAD PUSH2 0x262 SWAP2 SWAP1 PUSH2 0x3DC JUMP JUMPDEST SWAP3 POP POP DUP2 SWAP1 SSTORE POP POP POP JUMP JUMPDEST PUSH1 0x0 DUP1 PUSH1 0x0 DUP2 SLOAD DUP1 SWAP3 SWAP2 SWAP1 PUSH2 0x281 SWAP1 PUSH2 0x47A JUMP JUMPDEST SWAP2 SWAP1 POP SSTORE SWAP1 POP PUSH1 0x0 PUSH1 0x1 PUSH1 0x0 DUP4 DUP2 MSTORE PUSH1 0x20 ADD SWAP1 DUP2 MSTORE PUSH1 0x20 ADD PUSH1 0x0 KECCAK256 SWAP1 POP DUP4 DUP2 PUSH1 0x0 ADD PUSH1 0x0 PUSH2 0x100 EXP DUP2 SLOAD DUP2 PUSH20 0xFFFFFFFFFFFFFFFFFFFFFFFFFFFFFFFFFFFFFFFF MUL NOT AND SWAP1 DUP4 PUSH20 0xFFFFFFFFFFFFFFFFFFFFFFFFFFFFFFFFFFFFFFFF AND MUL OR SWAP1 SSTORE POP DUP3 DUP2 PUSH1 0x1 ADD DUP2 SWAP1 SSTORE POP POP SWAP3 SWAP2 POP POP JUMP JUMPDEST PUSH1 0x0 DUP2 CALLDATALOAD SWAP1 POP PUSH2 0x300 DUP2 PUSH2 0x4F7 JUMP JUMPDEST SWAP3 SWAP2 POP POP JUMP JUMPDEST PUSH1 0x0 DUP2 CALLDATALOAD SWAP1 POP PUSH2 0x315 DUP2 PUSH2 0x50E JUMP JUMPDEST SWAP3 SWAP2 POP POP JUMP JUMPDEST PUSH1 0x0 DUP1 PUSH1 0x40 DUP4 DUP6 SUB SLT ISZERO PUSH2 0x332 JUMPI PUSH2 0x331 PUSH2 0x4F2 JUMP JUMPDEST JUMPDEST PUSH1 0x0 PUSH2 0x340 DUP6 DUP3 DUP7 ADD PUSH2 0x2F1 JUMP JUMPDEST SWAP3 POP POP PUSH1 0x20 PUSH2 0x351 DUP6 DUP3 DUP7 ADD PUSH2 0x306 JUMP JUMPDEST SWAP2 POP POP SWAP3 POP SWAP3 SWAP1 POP JUMP JUMPDEST PUSH1 0x0 PUSH1 0x20 DUP3 DUP5 SUB SLT ISZERO PUSH2 0x371 JUMPI PUSH2 0x370 PUSH2 0x4F2 JUMP JUMPDEST JUMPDEST PUSH1 0x0 PUSH2 0x37F DUP5 DUP3 DUP6 ADD PUSH2 0x306 JUMP JUMPDEST SWAP2 POP POP SWAP3 SWAP2 POP POP JUMP JUMPDEST PUSH2 0x391 DUP2 PUSH2 0x444 JUMP JUMPDEST DUP3 MSTORE POP POP JUMP JUMPDEST PUSH2 0x3A0 DUP2 PUSH2 0x470 JUMP JUMPDEST DUP3 MSTORE POP POP JUMP JUMPDEST PUSH1 0x0 PUSH1 0x20 DUP3 ADD SWAP1 POP PUSH2 0x3BB PUSH1 0x0 DUP4 ADD DUP5 PUSH2 0x388 JUMP JUMPDEST SWAP3 SWAP2 POP POP JUMP JUMPDEST PUSH1 0x0 PUSH1 0x20 DUP3 ADD SWAP1 POP PUSH2 0x3D6 PUSH1 0x0 DUP4 ADD DUP5 PUSH2 0x397 JUMP JUMPDEST SWAP3 SWAP2 POP POP JUMP JUMPDEST PUSH1 0x0 PUSH2 0x3E7 DUP3 PUSH2 0x470 JUMP JUMPDEST SWAP2 POP PUSH2 0x3F2 DUP4 PUSH2 0x470 JUMP JUMPDEST SWAP3 POP DUP3 PUSH32 0xFFFFFFFFFFFFFFFFFFFFFFFFFFFFFFFFFFFFFFFFFFFFFFFFFFFFFFFFFFFFFFFF SUB DUP3 GT ISZERO PUSH2 0x427 JUMPI PUSH2 0x426 PUSH2 0x4C3 JUMP JUMPDEST JUMPDEST DUP3 DUP3 ADD SWAP1 POP SWAP3 SWAP2 POP POP JUMP JUMPDEST PUSH1 0x0 PUSH2 0x43D DUP3 PUSH2 0x450 JUMP JUMPDEST SWAP1 POP SWAP2 SWAP1 POP JUMP JUMPDEST PUSH1 0x0 DUP2 ISZERO ISZERO SWAP1 POP SWAP2 SWAP1 POP JUMP JUMPDEST PUSH1 0x0 PUSH20 0xFFFFFFFFFFFFFFFFFFFFFFFFFFFFFFFFFFFFFFFF DUP3 AND SWAP1 POP SWAP2 SWAP1 POP JUMP JUMPDEST PUSH1 0x0 DUP2 SWAP1 POP SWAP2 SWAP1 POP JUMP JUMPDEST PUSH1 0x0 PUSH2 0x485 DUP3 PUSH2 0x470 JUMP JUMPDEST SWAP2 POP PUSH32 0xFFFFFFFFFFFFFFFFFFFFFFFFFFFFFFFFFFFFFFFFFFFFFFFFFFFFFFFFFFFFFFFF DUP3 EQ ISZERO PUSH2 0x4B8 JUMPI PUSH2 0x4B7 PUSH2 0x4C3 JUMP JUMPDEST JUMPDEST PUSH1 0x1 DUP3 ADD SWAP1 POP SWAP2 SWAP1 POP JUMP JUMPDEST PUSH32 0x4E487B7100000000000000000000000000000000000000000000000000000000 PUSH1 0x0 MSTORE PUSH1 0x11 PUSH1 0x4 MSTORE PUSH1 0x24 PUSH1 0x0 REVERT JUMPDEST PUSH1 0x0 DUP1 REVERT JUMPDEST PUSH2 0x500 DUP2 PUSH2 0x432 JUMP JUMPDEST DUP2 EQ PUSH2 0x50B JUMPI PUSH1 0x0 DUP1 REVERT JUMPDEST POP JUMP JUMPDEST PUSH2 0x517 DUP2 PUSH2 0x470 JUMP JUMPDEST DUP2 EQ PUSH2 0x522 JUMPI PUSH1 0x0 DUP1 REVERT JUMPDEST POP JUMP INVALID LOG2 PUSH5 0x6970667358 0x22 SLT KECCAK256 0xDE 0xD2 0xA5 CODECOPY PUSH16 0xA57C1546C69D1E7113F4808A19B0DC1D ORIGIN 0xC4 0xA7 SWAP3 PUSH27 0x862FB0F240564736F6C6343000807003300000000000000000000 "
				},
				"gasEstimates": {
					"creation": {
						"codeDepositCost": "274200",
						"executionCost": "312",
						"totalCost": "274512"
					},
					"external": {
						"checkGoalReached(uint256)": "infinite",
						"contribute(uint256)": "infinite",
						"newCampaign(address,uint256)": "infinite"
					}
				},
				"methodIdentifiers": {
					"checkGoalReached(uint256)": "5b2329d4",
					"contribute(uint256)": "c1cbbca7",
					"newCampaign(address,uint256)": "f7572cf3"
				}
			},
			"storageLayout": {
				"storage": [
					{
						"astId": 22,
						"contract": "contracts/Profile.sol:CrowdFunding",
						"label": "numCampaigns",
						"offset": 0,
						"slot": "0",
						"type": "t_uint256"
					},
					{
						"astId": 27,
						"contract": "contracts/Profile.sol:CrowdFunding",
						"label": "campaigns",
						"offset": 0,
						"slot": "1",
						"type": "t_mapping(t_uint256,t_struct(Campaign)20_storage)"
					}
				],
				"types": {
					"t_address": {
						"encoding": "inplace",
						"label": "address",
						"numberOfBytes": "20"
					},
					"t_address_payable": {
						"encoding": "inplace",
						"label": "address payable",
						"numberOfBytes": "20"
					},
					"t_mapping(t_uint256,t_struct(Campaign)20_storage)": {
						"encoding": "mapping",
						"key": "t_uint256",
						"label": "mapping(uint256 => struct CrowdFunding.Campaign)",
						"numberOfBytes": "32",
						"value": "t_struct(Campaign)20_storage"
					},
					"t_mapping(t_uint256,t_struct(Funder)6_storage)": {
						"encoding": "mapping",
						"key": "t_uint256",
						"label": "mapping(uint256 => struct Funder)",
						"numberOfBytes": "32",
						"value": "t_struct(Funder)6_storage"
					},
					"t_struct(Campaign)20_storage": {
						"encoding": "inplace",
						"label": "struct CrowdFunding.Campaign",
						"members": [
							{
								"astId": 8,
								"contract": "contracts/Profile.sol:CrowdFunding",
								"label": "beneficiary",
								"offset": 0,
								"slot": "0",
								"type": "t_address_payable"
							},
							{
								"astId": 10,
								"contract": "contracts/Profile.sol:CrowdFunding",
								"label": "fundingGoal",
								"offset": 0,
								"slot": "1",
								"type": "t_uint256"
							},
							{
								"astId": 12,
								"contract": "contracts/Profile.sol:CrowdFunding",
								"label": "numFunders",
								"offset": 0,
								"slot": "2",
								"type": "t_uint256"
							},
							{
								"astId": 14,
								"contract": "contracts/Profile.sol:CrowdFunding",
								"label": "amount",
								"offset": 0,
								"slot": "3",
								"type": "t_uint256"
							},
							{
								"astId": 19,
								"contract": "contracts/Profile.sol:CrowdFunding",
								"label": "funders",
								"offset": 0,
								"slot": "4",
								"type": "t_mapping(t_uint256,t_struct(Funder)6_storage)"
							}
						],
						"numberOfBytes": "160"
					},
					"t_struct(Funder)6_storage": {
						"encoding": "inplace",
						"label": "struct Funder",
						"members": [
							{
								"astId": 3,
								"contract": "contracts/Profile.sol:CrowdFunding",
								"label": "addr",
								"offset": 0,
								"slot": "0",
								"type": "t_address"
							},
							{
								"astId": 5,
								"contract": "contracts/Profile.sol:CrowdFunding",
								"label": "amount",
								"offset": 0,
								"slot": "1",
								"type": "t_uint256"
							}
						],
						"numberOfBytes": "64"
					},
					"t_uint256": {
						"encoding": "inplace",
						"label": "uint256",
						"numberOfBytes": "32"
					}
				}
			},
			"userdoc": {
				"kind": "user",
				"methods": {},
				"version": 1
			}
		}
	}
}