{
	"contracts/Profile.sol": {
		"Profile": {
			"abi": [
				{
					"inputs": [
						{
							"internalType": "string",
							"name": "firstName",
							"type": "string"
						},
						{
							"internalType": "string",
							"name": "middleName",
							"type": "string"
						},
						{
							"internalType": "string",
							"name": "lastName",
							"type": "string"
						},
						{
							"internalType": "string",
							"name": "profileImage",
							"type": "string"
						}
					],
					"name": "createBio",
					"outputs": [],
					"stateMutability": "nonpayable",
					"type": "function"
				},
				{
					"inputs": [
						{
							"internalType": "string",
							"name": "email",
							"type": "string"
						},
						{
							"internalType": "string",
							"name": "phone",
							"type": "string"
						},
						{
							"internalType": "string",
							"name": "github",
							"type": "string"
						},
						{
							"internalType": "string",
							"name": "gitlab",
							"type": "string"
						},
						{
							"internalType": "string",
							"name": "linkin",
							"type": "string"
						}
					],
					"name": "createContract",
					"outputs": [],
					"stateMutability": "nonpayable",
					"type": "function"
				},
				{
					"inputs": [
						{
							"internalType": "string[]",
							"name": "frontend",
							"type": "string[]"
						},
						{
							"internalType": "string[]",
							"name": "backend",
							"type": "string[]"
						},
						{
							"internalType": "string[]",
							"name": "framework",
							"type": "string[]"
						}
					],
					"name": "createSkill",
					"outputs": [],
					"stateMutability": "nonpayable",
					"type": "function"
				},
				{
					"inputs": [
						{
							"internalType": "string",
							"name": "startDate",
							"type": "string"
						},
						{
							"internalType": "string",
							"name": "endDate",
							"type": "string"
						},
						{
							"internalType": "string",
							"name": "univercity",
							"type": "string"
						}
					],
					"name": "createUnivercity",
					"outputs": [],
					"stateMutability": "nonpayable",
					"type": "function"
				},
				{
					"inputs": [],
					"name": "delAllEducation",
					"outputs": [],
					"stateMutability": "nonpayable",
					"type": "function"
				},
				{
					"inputs": [],
					"name": "delProfile",
					"outputs": [],
					"stateMutability": "nonpayable",
					"type": "function"
				},
				{
					"inputs": [
						{
							"internalType": "uint256",
							"name": "index",
							"type": "uint256"
						}
					],
					"name": "getEducation",
					"outputs": [
						{
							"internalType": "string",
							"name": "",
							"type": "string"
						},
						{
							"internalType": "string",
							"name": "",
							"type": "string"
						},
						{
							"internalType": "string",
							"name": "",
							"type": "string"
						}
					],
					"stateMutability": "view",
					"type": "function"
				},
				{
					"inputs": [],
					"name": "getEducationCount",
					"outputs": [
						{
							"internalType": "uint256",
							"name": "",
							"type": "uint256"
						}
					],
					"stateMutability": "view",
					"type": "function"
				},
				{
					"inputs": [
						{
							"internalType": "address",
							"name": "",
							"type": "address"
						}
					],
					"name": "profile",
					"outputs": [
						{
							"internalType": "address",
							"name": "userAddress",
							"type": "address"
						},
						{
							"internalType": "string",
							"name": "firstName",
							"type": "string"
						},
						{
							"internalType": "string",
							"name": "middleName",
							"type": "string"
						},
						{
							"internalType": "string",
							"name": "lastName",
							"type": "string"
						},
						{
							"internalType": "string",
							"name": "profileImage",
							"type": "string"
						},
						{
							"internalType": "uint256",
							"name": "createDate",
							"type": "uint256"
						},
						{
							"components": [
								{
									"internalType": "string",
									"name": "email",
									"type": "string"
								},
								{
									"internalType": "string",
									"name": "phone",
									"type": "string"
								},
								{
									"internalType": "string",
									"name": "github",
									"type": "string"
								},
								{
									"internalType": "string",
									"name": "gitlab",
									"type": "string"
								},
								{
									"internalType": "string",
									"name": "linkin",
									"type": "string"
								}
							],
							"internalType": "struct Profile.Contract",
							"name": "privateContract",
							"type": "tuple"
						},
						{
							"components": [
								{
									"internalType": "string[]",
									"name": "frontend",
									"type": "string[]"
								},
								{
									"internalType": "string[]",
									"name": "backend",
									"type": "string[]"
								},
								{
									"internalType": "string[]",
									"name": "framework",
									"type": "string[]"
								}
							],
							"internalType": "struct Profile.Skill",
							"name": "skill",
							"type": "tuple"
						}
					],
					"stateMutability": "view",
					"type": "function"
				}
			],
			"devdoc": {
				"kind": "dev",
				"methods": {},
				"version": 1
			},
			"evm": {
				"assembly": "    /* \"contracts/Profile.sol\":60:3269  contract Profile {\r... */\n  mstore(0x40, 0x80)\n  callvalue\n  dup1\n  iszero\n  tag_1\n  jumpi\n  0x00\n  dup1\n  revert\ntag_1:\n  pop\n  dataSize(sub_0)\n  dup1\n  dataOffset(sub_0)\n  0x00\n  codecopy\n  0x00\n  return\nstop\n\nsub_0: assembly {\n        /* \"contracts/Profile.sol\":60:3269  contract Profile {\r... */\n      mstore(0x40, 0x80)\n      callvalue\n      dup1\n      iszero\n      tag_1\n      jumpi\n      0x00\n      dup1\n      revert\n    tag_1:\n      pop\n      jumpi(tag_2, lt(calldatasize, 0x04))\n      shr(0xe0, calldataload(0x00))\n      dup1\n      0x9dd9d0fd\n      gt\n      tag_12\n      jumpi\n      dup1\n      0x9dd9d0fd\n      eq\n      tag_7\n      jumpi\n      dup1\n      0xdc6d6a83\n      eq\n      tag_8\n      jumpi\n      dup1\n      0xed2217ef\n      eq\n      tag_9\n      jumpi\n      dup1\n      0xf96e32f8\n      eq\n      tag_10\n      jumpi\n      dup1\n      0xfabce08f\n      eq\n      tag_11\n      jumpi\n      jump(tag_2)\n    tag_12:\n      dup1\n      0x3d984d0e\n      eq\n      tag_3\n      jumpi\n      dup1\n      0x6212fa02\n      eq\n      tag_4\n      jumpi\n      dup1\n      0x72828388\n      eq\n      tag_5\n      jumpi\n      dup1\n      0x8c241fc4\n      eq\n      tag_6\n      jumpi\n    tag_2:\n      0x00\n      dup1\n      revert\n        /* \"contracts/Profile.sol\":1950:2275  function createSkill(string[] memory frontend, string[] memory backend, string[] memory framework) public {\r... */\n    tag_3:\n      tag_13\n      0x04\n      dup1\n      calldatasize\n      sub\n      dup2\n      add\n      swap1\n      tag_14\n      swap2\n      swap1\n      tag_15\n      jump\t// in\n    tag_14:\n      tag_16\n      jump\t// in\n    tag_13:\n      stop\n        /* \"contracts/Profile.sol\":2964:3082  function getEducationCount() public view returns (uint) {\r... */\n    tag_4:\n      tag_17\n      tag_18\n      jump\t// in\n    tag_17:\n      mload(0x40)\n      tag_19\n      swap2\n      swap1\n      tag_20\n      jump\t// in\n    tag_19:\n      mload(0x40)\n      dup1\n      swap2\n      sub\n      swap1\n      return\n        /* \"contracts/Profile.sol\":1360:1863  function createContract(string memory email, string memory phone, string memory github, string memory gitlab, string memory linkin) public {\r... */\n    tag_5:\n      tag_21\n      0x04\n      dup1\n      calldatasize\n      sub\n      dup2\n      add\n      swap1\n      tag_22\n      swap2\n      swap1\n      tag_23\n      jump\t// in\n    tag_22:\n      tag_24\n      jump\t// in\n    tag_21:\n      stop\n        /* \"contracts/Profile.sol\":838:1305  function createBio(string memory firstName, string memory middleName, string memory lastName,  string memory profileImage) public {\r... */\n    tag_6:\n      tag_25\n      0x04\n      dup1\n      calldatasize\n      sub\n      dup2\n      add\n      swap1\n      tag_26\n      swap2\n      swap1\n      tag_27\n      jump\t// in\n    tag_26:\n      tag_28\n      jump\t// in\n    tag_25:\n      stop\n        /* \"contracts/Profile.sol\":370:410  mapping (address => Bio) public  profile */\n    tag_7:\n      tag_29\n      0x04\n      dup1\n      calldatasize\n      sub\n      dup2\n      add\n      swap1\n      tag_30\n      swap2\n      swap1\n      tag_31\n      jump\t// in\n    tag_30:\n      tag_32\n      jump\t// in\n    tag_29:\n      mload(0x40)\n      tag_33\n      swap9\n      swap8\n      swap7\n      swap6\n      swap5\n      swap4\n      swap3\n      swap2\n      swap1\n      tag_34\n      jump\t// in\n    tag_33:\n      mload(0x40)\n      dup1\n      swap2\n      sub\n      swap1\n      return\n        /* \"contracts/Profile.sol\":2342:2679  function createUnivercity(string memory startDate, string memory endDate, string memory univercity) public {\r... */\n    tag_8:\n      tag_35\n      0x04\n      dup1\n      calldatasize\n      sub\n      dup2\n      add\n      swap1\n      tag_36\n      swap2\n      swap1\n      tag_37\n      jump\t// in\n    tag_36:\n      tag_38\n      jump\t// in\n    tag_35:\n      stop\n        /* \"contracts/Profile.sol\":3090:3182  function delAllEducation() external  {\r... */\n    tag_9:\n      tag_39\n      tag_40\n      jump\t// in\n    tag_39:\n      stop\n        /* \"contracts/Profile.sol\":2688:2956  function getEducation(uint index) public view returns(string memory, string memory, string memory) {\r... */\n    tag_10:\n      tag_41\n      0x04\n      dup1\n      calldatasize\n      sub\n      dup2\n      add\n      swap1\n      tag_42\n      swap2\n      swap1\n      tag_43\n      jump\t// in\n    tag_42:\n      tag_44\n      jump\t// in\n    tag_41:\n      mload(0x40)\n      tag_45\n      swap4\n      swap3\n      swap2\n      swap1\n      tag_46\n      jump\t// in\n    tag_45:\n      mload(0x40)\n      dup1\n      swap2\n      sub\n      swap1\n      return\n        /* \"contracts/Profile.sol\":3190:3266  function delProfile() external {\r... */\n    tag_11:\n      tag_47\n      tag_48\n      jump\t// in\n    tag_47:\n      stop\n        /* \"contracts/Profile.sol\":1950:2275  function createSkill(string[] memory frontend, string[] memory backend, string[] memory framework) public {\r... */\n    tag_16:\n        /* \"contracts/Profile.sol\":2074:2081  profile */\n      0x00\n        /* \"contracts/Profile.sol\":2074:2093  profile[msg.sender] */\n      dup1\n        /* \"contracts/Profile.sol\":2082:2092  msg.sender */\n      caller\n        /* \"contracts/Profile.sol\":2074:2093  profile[msg.sender] */\n      0xffffffffffffffffffffffffffffffffffffffff\n      and\n      0xffffffffffffffffffffffffffffffffffffffff\n      and\n      dup2\n      mstore\n      0x20\n      add\n      swap1\n      dup2\n      mstore\n      0x20\n      add\n      0x00\n      keccak256\n        /* \"contracts/Profile.sol\":2074:2099  profile[msg.sender].skill */\n      0x0b\n      add\n      0x00\n        /* \"contracts/Profile.sol\":2067:2099  delete profile[msg.sender].skill */\n      dup1\n      dup3\n      add\n      0x00\n      tag_50\n      swap2\n      swap1\n      tag_51\n      jump\t// in\n    tag_50:\n      0x01\n      dup3\n      add\n      0x00\n      tag_52\n      swap2\n      swap1\n      tag_51\n      jump\t// in\n    tag_52:\n      0x02\n      dup3\n      add\n      0x00\n      tag_53\n      swap2\n      swap1\n      tag_51\n      jump\t// in\n    tag_53:\n      pop\n      pop\n        /* \"contracts/Profile.sol\":2147:2155  frontend */\n      dup3\n        /* \"contracts/Profile.sol\":2110:2117  profile */\n      0x00\n        /* \"contracts/Profile.sol\":2110:2129  profile[msg.sender] */\n      dup1\n        /* \"contracts/Profile.sol\":2118:2128  msg.sender */\n      caller\n        /* \"contracts/Profile.sol\":2110:2129  profile[msg.sender] */\n      0xffffffffffffffffffffffffffffffffffffffff\n      and\n      0xffffffffffffffffffffffffffffffffffffffff\n      and\n      dup2\n      mstore\n      0x20\n      add\n      swap1\n      dup2\n      mstore\n      0x20\n      add\n      0x00\n      keccak256\n        /* \"contracts/Profile.sol\":2110:2135  profile[msg.sender].skill */\n      0x0b\n      add\n        /* \"contracts/Profile.sol\":2110:2144  profile[msg.sender].skill.frontend */\n      0x00\n      add\n        /* \"contracts/Profile.sol\":2110:2155  profile[msg.sender].skill.frontend = frontend */\n      swap1\n      dup1\n      mload\n      swap1\n      0x20\n      add\n      swap1\n      tag_54\n      swap3\n      swap2\n      swap1\n      tag_55\n      jump\t// in\n    tag_54:\n      pop\n        /* \"contracts/Profile.sol\":2202:2209  backend */\n      dup2\n        /* \"contracts/Profile.sol\":2166:2173  profile */\n      0x00\n        /* \"contracts/Profile.sol\":2166:2185  profile[msg.sender] */\n      dup1\n        /* \"contracts/Profile.sol\":2174:2184  msg.sender */\n      caller\n        /* \"contracts/Profile.sol\":2166:2185  profile[msg.sender] */\n      0xffffffffffffffffffffffffffffffffffffffff\n      and\n      0xffffffffffffffffffffffffffffffffffffffff\n      and\n      dup2\n      mstore\n      0x20\n      add\n      swap1\n      dup2\n      mstore\n      0x20\n      add\n      0x00\n      keccak256\n        /* \"contracts/Profile.sol\":2166:2191  profile[msg.sender].skill */\n      0x0b\n      add\n        /* \"contracts/Profile.sol\":2166:2199  profile[msg.sender].skill.backend */\n      0x01\n      add\n        /* \"contracts/Profile.sol\":2166:2209  profile[msg.sender].skill.backend = backend */\n      swap1\n      dup1\n      mload\n      swap1\n      0x20\n      add\n      swap1\n      tag_56\n      swap3\n      swap2\n      swap1\n      tag_55\n      jump\t// in\n    tag_56:\n      pop\n        /* \"contracts/Profile.sol\":2258:2267  framework */\n      dup1\n        /* \"contracts/Profile.sol\":2220:2227  profile */\n      0x00\n        /* \"contracts/Profile.sol\":2220:2239  profile[msg.sender] */\n      dup1\n        /* \"contracts/Profile.sol\":2228:2238  msg.sender */\n      caller\n        /* \"contracts/Profile.sol\":2220:2239  profile[msg.sender] */\n      0xffffffffffffffffffffffffffffffffffffffff\n      and\n      0xffffffffffffffffffffffffffffffffffffffff\n      and\n      dup2\n      mstore\n      0x20\n      add\n      swap1\n      dup2\n      mstore\n      0x20\n      add\n      0x00\n      keccak256\n        /* \"contracts/Profile.sol\":2220:2245  profile[msg.sender].skill */\n      0x0b\n      add\n        /* \"contracts/Profile.sol\":2220:2255  profile[msg.sender].skill.framework */\n      0x02\n      add\n        /* \"contracts/Profile.sol\":2220:2267  profile[msg.sender].skill.framework = framework */\n      swap1\n      dup1\n      mload\n      swap1\n      0x20\n      add\n      swap1\n      tag_57\n      swap3\n      swap2\n      swap1\n      tag_55\n      jump\t// in\n    tag_57:\n      pop\n        /* \"contracts/Profile.sol\":1950:2275  function createSkill(string[] memory frontend, string[] memory backend, string[] memory framework) public {\r... */\n      pop\n      pop\n      pop\n      jump\t// out\n        /* \"contracts/Profile.sol\":2964:3082  function getEducationCount() public view returns (uint) {\r... */\n    tag_18:\n        /* \"contracts/Profile.sol\":3014:3018  uint */\n      0x00\n        /* \"contracts/Profile.sol\":3038:3045  profile */\n      dup1\n        /* \"contracts/Profile.sol\":3038:3057  profile[msg.sender] */\n      0x00\n        /* \"contracts/Profile.sol\":3046:3056  msg.sender */\n      caller\n        /* \"contracts/Profile.sol\":3038:3057  profile[msg.sender] */\n      0xffffffffffffffffffffffffffffffffffffffff\n      and\n      0xffffffffffffffffffffffffffffffffffffffff\n      and\n      dup2\n      mstore\n      0x20\n      add\n      swap1\n      dup2\n      mstore\n      0x20\n      add\n      0x00\n      keccak256\n        /* \"contracts/Profile.sol\":3038:3067  profile[msg.sender].education */\n      0x0e\n      add\n        /* \"contracts/Profile.sol\":3038:3074  profile[msg.sender].education.length */\n      dup1\n      sload\n      swap1\n      pop\n        /* \"contracts/Profile.sol\":3031:3074  return profile[msg.sender].education.length */\n      swap1\n      pop\n        /* \"contracts/Profile.sol\":2964:3082  function getEducationCount() public view returns (uint) {\r... */\n      swap1\n      jump\t// out\n        /* \"contracts/Profile.sol\":1360:1863  function createContract(string memory email, string memory phone, string memory github, string memory gitlab, string memory linkin) public {\r... */\n    tag_24:\n        /* \"contracts/Profile.sol\":1517:1524  profile */\n      0x00\n        /* \"contracts/Profile.sol\":1517:1536  profile[msg.sender] */\n      dup1\n        /* \"contracts/Profile.sol\":1525:1535  msg.sender */\n      caller\n        /* \"contracts/Profile.sol\":1517:1536  profile[msg.sender] */\n      0xffffffffffffffffffffffffffffffffffffffff\n      and\n      0xffffffffffffffffffffffffffffffffffffffff\n      and\n      dup2\n      mstore\n      0x20\n      add\n      swap1\n      dup2\n      mstore\n      0x20\n      add\n      0x00\n      keccak256\n        /* \"contracts/Profile.sol\":1517:1552  profile[msg.sender].privateContract */\n      0x06\n      add\n      0x00\n        /* \"contracts/Profile.sol\":1510:1552  delete profile[msg.sender].privateContract */\n      dup1\n      dup3\n      add\n      0x00\n      tag_60\n      swap2\n      swap1\n      tag_61\n      jump\t// in\n    tag_60:\n      0x01\n      dup3\n      add\n      0x00\n      tag_62\n      swap2\n      swap1\n      tag_61\n      jump\t// in\n    tag_62:\n      0x02\n      dup3\n      add\n      0x00\n      tag_63\n      swap2\n      swap1\n      tag_61\n      jump\t// in\n    tag_63:\n      0x03\n      dup3\n      add\n      0x00\n      tag_64\n      swap2\n      swap1\n      tag_61\n      jump\t// in\n    tag_64:\n      0x04\n      dup3\n      add\n      0x00\n      tag_65\n      swap2\n      swap1\n      tag_61\n      jump\t// in\n    tag_65:\n      pop\n      pop\n        /* \"contracts/Profile.sol\":1607:1612  email */\n      dup5\n        /* \"contracts/Profile.sol\":1563:1570  profile */\n      0x00\n        /* \"contracts/Profile.sol\":1563:1582  profile[msg.sender] */\n      dup1\n        /* \"contracts/Profile.sol\":1571:1581  msg.sender */\n      caller\n        /* \"contracts/Profile.sol\":1563:1582  profile[msg.sender] */\n      0xffffffffffffffffffffffffffffffffffffffff\n      and\n      0xffffffffffffffffffffffffffffffffffffffff\n      and\n      dup2\n      mstore\n      0x20\n      add\n      swap1\n      dup2\n      mstore\n      0x20\n      add\n      0x00\n      keccak256\n        /* \"contracts/Profile.sol\":1563:1598  profile[msg.sender].privateContract */\n      0x06\n      add\n        /* \"contracts/Profile.sol\":1563:1604  profile[msg.sender].privateContract.email */\n      0x00\n      add\n        /* \"contracts/Profile.sol\":1563:1612  profile[msg.sender].privateContract.email = email */\n      swap1\n      dup1\n      mload\n      swap1\n      0x20\n      add\n      swap1\n      tag_66\n      swap3\n      swap2\n      swap1\n      tag_67\n      jump\t// in\n    tag_66:\n      pop\n        /* \"contracts/Profile.sol\":1667:1672  phone */\n      dup4\n        /* \"contracts/Profile.sol\":1623:1630  profile */\n      0x00\n        /* \"contracts/Profile.sol\":1623:1642  profile[msg.sender] */\n      dup1\n        /* \"contracts/Profile.sol\":1631:1641  msg.sender */\n      caller\n        /* \"contracts/Profile.sol\":1623:1642  profile[msg.sender] */\n      0xffffffffffffffffffffffffffffffffffffffff\n      and\n      0xffffffffffffffffffffffffffffffffffffffff\n      and\n      dup2\n      mstore\n      0x20\n      add\n      swap1\n      dup2\n      mstore\n      0x20\n      add\n      0x00\n      keccak256\n        /* \"contracts/Profile.sol\":1623:1658  profile[msg.sender].privateContract */\n      0x06\n      add\n        /* \"contracts/Profile.sol\":1623:1664  profile[msg.sender].privateContract.phone */\n      0x01\n      add\n        /* \"contracts/Profile.sol\":1623:1672  profile[msg.sender].privateContract.phone = phone */\n      swap1\n      dup1\n      mload\n      swap1\n      0x20\n      add\n      swap1\n      tag_68\n      swap3\n      swap2\n      swap1\n      tag_67\n      jump\t// in\n    tag_68:\n      pop\n        /* \"contracts/Profile.sol\":1727:1733  github */\n      dup3\n        /* \"contracts/Profile.sol\":1683:1690  profile */\n      0x00\n        /* \"contracts/Profile.sol\":1683:1702  profile[msg.sender] */\n      dup1\n        /* \"contracts/Profile.sol\":1691:1701  msg.sender */\n      caller\n        /* \"contracts/Profile.sol\":1683:1702  profile[msg.sender] */\n      0xffffffffffffffffffffffffffffffffffffffff\n      and\n      0xffffffffffffffffffffffffffffffffffffffff\n      and\n      dup2\n      mstore\n      0x20\n      add\n      swap1\n      dup2\n      mstore\n      0x20\n      add\n      0x00\n      keccak256\n        /* \"contracts/Profile.sol\":1683:1718  profile[msg.sender].privateContract */\n      0x06\n      add\n        /* \"contracts/Profile.sol\":1683:1724  profile[msg.sender].privateContract.email */\n      0x00\n      add\n        /* \"contracts/Profile.sol\":1683:1733  profile[msg.sender].privateContract.email = github */\n      swap1\n      dup1\n      mload\n      swap1\n      0x20\n      add\n      swap1\n      tag_69\n      swap3\n      swap2\n      swap1\n      tag_67\n      jump\t// in\n    tag_69:\n      pop\n        /* \"contracts/Profile.sol\":1788:1794  gitlab */\n      dup2\n        /* \"contracts/Profile.sol\":1744:1751  profile */\n      0x00\n        /* \"contracts/Profile.sol\":1744:1763  profile[msg.sender] */\n      dup1\n        /* \"contracts/Profile.sol\":1752:1762  msg.sender */\n      caller\n        /* \"contracts/Profile.sol\":1744:1763  profile[msg.sender] */\n      0xffffffffffffffffffffffffffffffffffffffff\n      and\n      0xffffffffffffffffffffffffffffffffffffffff\n      and\n      dup2\n      mstore\n      0x20\n      add\n      swap1\n      dup2\n      mstore\n      0x20\n      add\n      0x00\n      keccak256\n        /* \"contracts/Profile.sol\":1744:1779  profile[msg.sender].privateContract */\n      0x06\n      add\n        /* \"contracts/Profile.sol\":1744:1785  profile[msg.sender].privateContract.phone */\n      0x01\n      add\n        /* \"contracts/Profile.sol\":1744:1794  profile[msg.sender].privateContract.phone = gitlab */\n      swap1\n      dup1\n      mload\n      swap1\n      0x20\n      add\n      swap1\n      tag_70\n      swap3\n      swap2\n      swap1\n      tag_67\n      jump\t// in\n    tag_70:\n      pop\n        /* \"contracts/Profile.sol\":1849:1855  linkin */\n      dup1\n        /* \"contracts/Profile.sol\":1805:1812  profile */\n      0x00\n        /* \"contracts/Profile.sol\":1805:1824  profile[msg.sender] */\n      dup1\n        /* \"contracts/Profile.sol\":1813:1823  msg.sender */\n      caller\n        /* \"contracts/Profile.sol\":1805:1824  profile[msg.sender] */\n      0xffffffffffffffffffffffffffffffffffffffff\n      and\n      0xffffffffffffffffffffffffffffffffffffffff\n      and\n      dup2\n      mstore\n      0x20\n      add\n      swap1\n      dup2\n      mstore\n      0x20\n      add\n      0x00\n      keccak256\n        /* \"contracts/Profile.sol\":1805:1840  profile[msg.sender].privateContract */\n      0x06\n      add\n        /* \"contracts/Profile.sol\":1805:1846  profile[msg.sender].privateContract.email */\n      0x00\n      add\n        /* \"contracts/Profile.sol\":1805:1855  profile[msg.sender].privateContract.email = linkin */\n      swap1\n      dup1\n      mload\n      swap1\n      0x20\n      add\n      swap1\n      tag_71\n      swap3\n      swap2\n      swap1\n      tag_67\n      jump\t// in\n    tag_71:\n      pop\n        /* \"contracts/Profile.sol\":1360:1863  function createContract(string memory email, string memory phone, string memory github, string memory gitlab, string memory linkin) public {\r... */\n      pop\n      pop\n      pop\n      pop\n      pop\n      jump\t// out\n        /* \"contracts/Profile.sol\":838:1305  function createBio(string memory firstName, string memory middleName, string memory lastName,  string memory profileImage) public {\r... */\n    tag_28:\n        /* \"contracts/Profile.sol\":1011:1020  firstName */\n      dup4\n        /* \"contracts/Profile.sol\":979:986  profile */\n      0x00\n        /* \"contracts/Profile.sol\":979:998  profile[msg.sender] */\n      dup1\n        /* \"contracts/Profile.sol\":987:997  msg.sender */\n      caller\n        /* \"contracts/Profile.sol\":979:998  profile[msg.sender] */\n      0xffffffffffffffffffffffffffffffffffffffff\n      and\n      0xffffffffffffffffffffffffffffffffffffffff\n      and\n      dup2\n      mstore\n      0x20\n      add\n      swap1\n      dup2\n      mstore\n      0x20\n      add\n      0x00\n      keccak256\n        /* \"contracts/Profile.sol\":979:1008  profile[msg.sender].firstName */\n      0x01\n      add\n        /* \"contracts/Profile.sol\":979:1020  profile[msg.sender].firstName = firstName */\n      swap1\n      dup1\n      mload\n      swap1\n      0x20\n      add\n      swap1\n      tag_73\n      swap3\n      swap2\n      swap1\n      tag_67\n      jump\t// in\n    tag_73:\n      pop\n        /* \"contracts/Profile.sol\":1064:1074  middleName */\n      dup3\n        /* \"contracts/Profile.sol\":1031:1038  profile */\n      0x00\n        /* \"contracts/Profile.sol\":1031:1050  profile[msg.sender] */\n      dup1\n        /* \"contracts/Profile.sol\":1039:1049  msg.sender */\n      caller\n        /* \"contracts/Profile.sol\":1031:1050  profile[msg.sender] */\n      0xffffffffffffffffffffffffffffffffffffffff\n      and\n      0xffffffffffffffffffffffffffffffffffffffff\n      and\n      dup2\n      mstore\n      0x20\n      add\n      swap1\n      dup2\n      mstore\n      0x20\n      add\n      0x00\n      keccak256\n        /* \"contracts/Profile.sol\":1031:1061  profile[msg.sender].middleName */\n      0x02\n      add\n        /* \"contracts/Profile.sol\":1031:1074  profile[msg.sender].middleName = middleName */\n      swap1\n      dup1\n      mload\n      swap1\n      0x20\n      add\n      swap1\n      tag_74\n      swap3\n      swap2\n      swap1\n      tag_67\n      jump\t// in\n    tag_74:\n      pop\n        /* \"contracts/Profile.sol\":1116:1124  lastName */\n      dup2\n        /* \"contracts/Profile.sol\":1085:1092  profile */\n      0x00\n        /* \"contracts/Profile.sol\":1085:1104  profile[msg.sender] */\n      dup1\n        /* \"contracts/Profile.sol\":1093:1103  msg.sender */\n      caller\n        /* \"contracts/Profile.sol\":1085:1104  profile[msg.sender] */\n      0xffffffffffffffffffffffffffffffffffffffff\n      and\n      0xffffffffffffffffffffffffffffffffffffffff\n      and\n      dup2\n      mstore\n      0x20\n      add\n      swap1\n      dup2\n      mstore\n      0x20\n      add\n      0x00\n      keccak256\n        /* \"contracts/Profile.sol\":1085:1113  profile[msg.sender].lastName */\n      0x03\n      add\n        /* \"contracts/Profile.sol\":1085:1124  profile[msg.sender].lastName = lastName */\n      swap1\n      dup1\n      mload\n      swap1\n      0x20\n      add\n      swap1\n      tag_75\n      swap3\n      swap2\n      swap1\n      tag_67\n      jump\t// in\n    tag_75:\n      pop\n        /* \"contracts/Profile.sol\":1170:1182  profileImage */\n      dup1\n        /* \"contracts/Profile.sol\":1135:1142  profile */\n      0x00\n        /* \"contracts/Profile.sol\":1135:1154  profile[msg.sender] */\n      dup1\n        /* \"contracts/Profile.sol\":1143:1153  msg.sender */\n      caller\n        /* \"contracts/Profile.sol\":1135:1154  profile[msg.sender] */\n      0xffffffffffffffffffffffffffffffffffffffff\n      and\n      0xffffffffffffffffffffffffffffffffffffffff\n      and\n      dup2\n      mstore\n      0x20\n      add\n      swap1\n      dup2\n      mstore\n      0x20\n      add\n      0x00\n      keccak256\n        /* \"contracts/Profile.sol\":1135:1167  profile[msg.sender].profileImage */\n      0x04\n      add\n        /* \"contracts/Profile.sol\":1135:1182  profile[msg.sender].profileImage = profileImage */\n      swap1\n      dup1\n      mload\n      swap1\n      0x20\n      add\n      swap1\n      tag_76\n      swap3\n      swap2\n      swap1\n      tag_67\n      jump\t// in\n    tag_76:\n      pop\n        /* \"contracts/Profile.sol\":1227:1237  msg.sender */\n      caller\n        /* \"contracts/Profile.sol\":1193:1200  profile */\n      0x00\n        /* \"contracts/Profile.sol\":1193:1212  profile[msg.sender] */\n      dup1\n        /* \"contracts/Profile.sol\":1201:1211  msg.sender */\n      caller\n        /* \"contracts/Profile.sol\":1193:1212  profile[msg.sender] */\n      0xffffffffffffffffffffffffffffffffffffffff\n      and\n      0xffffffffffffffffffffffffffffffffffffffff\n      and\n      dup2\n      mstore\n      0x20\n      add\n      swap1\n      dup2\n      mstore\n      0x20\n      add\n      0x00\n      keccak256\n        /* \"contracts/Profile.sol\":1193:1224  profile[msg.sender].userAddress */\n      0x00\n      add\n      0x00\n        /* \"contracts/Profile.sol\":1193:1237  profile[msg.sender].userAddress = msg.sender */\n      0x0100\n      exp\n      dup2\n      sload\n      dup2\n      0xffffffffffffffffffffffffffffffffffffffff\n      mul\n      not\n      and\n      swap1\n      dup4\n      0xffffffffffffffffffffffffffffffffffffffff\n      and\n      mul\n      or\n      swap1\n      sstore\n      pop\n        /* \"contracts/Profile.sol\":1282:1297  block.timestamp */\n      timestamp\n        /* \"contracts/Profile.sol\":1249:1256  profile */\n      0x00\n        /* \"contracts/Profile.sol\":1249:1268  profile[msg.sender] */\n      dup1\n        /* \"contracts/Profile.sol\":1257:1267  msg.sender */\n      caller\n        /* \"contracts/Profile.sol\":1249:1268  profile[msg.sender] */\n      0xffffffffffffffffffffffffffffffffffffffff\n      and\n      0xffffffffffffffffffffffffffffffffffffffff\n      and\n      dup2\n      mstore\n      0x20\n      add\n      swap1\n      dup2\n      mstore\n      0x20\n      add\n      0x00\n      keccak256\n        /* \"contracts/Profile.sol\":1249:1279  profile[msg.sender].createDate */\n      0x05\n      add\n        /* \"contracts/Profile.sol\":1249:1297  profile[msg.sender].createDate = block.timestamp */\n      dup2\n      swap1\n      sstore\n      pop\n        /* \"contracts/Profile.sol\":838:1305  function createBio(string memory firstName, string memory middleName, string memory lastName,  string memory profileImage) public {\r... */\n      pop\n      pop\n      pop\n      pop\n      jump\t// out\n        /* \"contracts/Profile.sol\":370:410  mapping (address => Bio) public  profile */\n    tag_32:\n      mstore(0x20, 0x00)\n      dup1\n      0x00\n      mstore\n      keccak256(0x00, 0x40)\n      0x00\n      swap2\n      pop\n      swap1\n      pop\n      dup1\n      0x00\n      add\n      0x00\n      swap1\n      sload\n      swap1\n      0x0100\n      exp\n      swap1\n      div\n      0xffffffffffffffffffffffffffffffffffffffff\n      and\n      swap1\n      dup1\n      0x01\n      add\n      dup1\n      sload\n      tag_77\n      swap1\n      tag_78\n      jump\t// in\n    tag_77:\n      dup1\n      0x1f\n      add\n      0x20\n      dup1\n      swap2\n      div\n      mul\n      0x20\n      add\n      mload(0x40)\n      swap1\n      dup2\n      add\n      0x40\n      mstore\n      dup1\n      swap3\n      swap2\n      swap1\n      dup2\n      dup2\n      mstore\n      0x20\n      add\n      dup3\n      dup1\n      sload\n      tag_79\n      swap1\n      tag_78\n      jump\t// in\n    tag_79:\n      dup1\n      iszero\n      tag_80\n      jumpi\n      dup1\n      0x1f\n      lt\n      tag_81\n      jumpi\n      0x0100\n      dup1\n      dup4\n      sload\n      div\n      mul\n      dup4\n      mstore\n      swap2\n      0x20\n      add\n      swap2\n      jump(tag_80)\n    tag_81:\n      dup3\n      add\n      swap2\n      swap1\n      0x00\n      mstore\n      keccak256(0x00, 0x20)\n      swap1\n    tag_82:\n      dup2\n      sload\n      dup2\n      mstore\n      swap1\n      0x01\n      add\n      swap1\n      0x20\n      add\n      dup1\n      dup4\n      gt\n      tag_82\n      jumpi\n      dup3\n      swap1\n      sub\n      0x1f\n      and\n      dup3\n      add\n      swap2\n    tag_80:\n      pop\n      pop\n      pop\n      pop\n      pop\n      swap1\n      dup1\n      0x02\n      add\n      dup1\n      sload\n      tag_83\n      swap1\n      tag_78\n      jump\t// in\n    tag_83:\n      dup1\n      0x1f\n      add\n      0x20\n      dup1\n      swap2\n      div\n      mul\n      0x20\n      add\n      mload(0x40)\n      swap1\n      dup2\n      add\n      0x40\n      mstore\n      dup1\n      swap3\n      swap2\n      swap1\n      dup2\n      dup2\n      mstore\n      0x20\n      add\n      dup3\n      dup1\n      sload\n      tag_84\n      swap1\n      tag_78\n      jump\t// in\n    tag_84:\n      dup1\n      iszero\n      tag_85\n      jumpi\n      dup1\n      0x1f\n      lt\n      tag_86\n      jumpi\n      0x0100\n      dup1\n      dup4\n      sload\n      div\n      mul\n      dup4\n      mstore\n      swap2\n      0x20\n      add\n      swap2\n      jump(tag_85)\n    tag_86:\n      dup3\n      add\n      swap2\n      swap1\n      0x00\n      mstore\n      keccak256(0x00, 0x20)\n      swap1\n    tag_87:\n      dup2\n      sload\n      dup2\n      mstore\n      swap1\n      0x01\n      add\n      swap1\n      0x20\n      add\n      dup1\n      dup4\n      gt\n      tag_87\n      jumpi\n      dup3\n      swap1\n      sub\n      0x1f\n      and\n      dup3\n      add\n      swap2\n    tag_85:\n      pop\n      pop\n      pop\n      pop\n      pop\n      swap1\n      dup1\n      0x03\n      add\n      dup1\n      sload\n      tag_88\n      swap1\n      tag_78\n      jump\t// in\n    tag_88:\n      dup1\n      0x1f\n      add\n      0x20\n      dup1\n      swap2\n      div\n      mul\n      0x20\n      add\n      mload(0x40)\n      swap1\n      dup2\n      add\n      0x40\n      mstore\n      dup1\n      swap3\n      swap2\n      swap1\n      dup2\n      dup2\n      mstore\n      0x20\n      add\n      dup3\n      dup1\n      sload\n      tag_89\n      swap1\n      tag_78\n      jump\t// in\n    tag_89:\n      dup1\n      iszero\n      tag_90\n      jumpi\n      dup1\n      0x1f\n      lt\n      tag_91\n      jumpi\n      0x0100\n      dup1\n      dup4\n      sload\n      div\n      mul\n      dup4\n      mstore\n      swap2\n      0x20\n      add\n      swap2\n      jump(tag_90)\n    tag_91:\n      dup3\n      add\n      swap2\n      swap1\n      0x00\n      mstore\n      keccak256(0x00, 0x20)\n      swap1\n    tag_92:\n      dup2\n      sload\n      dup2\n      mstore\n      swap1\n      0x01\n      add\n      swap1\n      0x20\n      add\n      dup1\n      dup4\n      gt\n      tag_92\n      jumpi\n      dup3\n      swap1\n      sub\n      0x1f\n      and\n      dup3\n      add\n      swap2\n    tag_90:\n      pop\n      pop\n      pop\n      pop\n      pop\n      swap1\n      dup1\n      0x04\n      add\n      dup1\n      sload\n      tag_93\n      swap1\n      tag_78\n      jump\t// in\n    tag_93:\n      dup1\n      0x1f\n      add\n      0x20\n      dup1\n      swap2\n      div\n      mul\n      0x20\n      add\n      mload(0x40)\n      swap1\n      dup2\n      add\n      0x40\n      mstore\n      dup1\n      swap3\n      swap2\n      swap1\n      dup2\n      dup2\n      mstore\n      0x20\n      add\n      dup3\n      dup1\n      sload\n      tag_94\n      swap1\n      tag_78\n      jump\t// in\n    tag_94:\n      dup1\n      iszero\n      tag_95\n      jumpi\n      dup1\n      0x1f\n      lt\n      tag_96\n      jumpi\n      0x0100\n      dup1\n      dup4\n      sload\n      div\n      mul\n      dup4\n      mstore\n      swap2\n      0x20\n      add\n      swap2\n      jump(tag_95)\n    tag_96:\n      dup3\n      add\n      swap2\n      swap1\n      0x00\n      mstore\n      keccak256(0x00, 0x20)\n      swap1\n    tag_97:\n      dup2\n      sload\n      dup2\n      mstore\n      swap1\n      0x01\n      add\n      swap1\n      0x20\n      add\n      dup1\n      dup4\n      gt\n      tag_97\n      jumpi\n      dup3\n      swap1\n      sub\n      0x1f\n      and\n      dup3\n      add\n      swap2\n    tag_95:\n      pop\n      pop\n      pop\n      pop\n      pop\n      swap1\n      dup1\n      0x05\n      add\n      sload\n      swap1\n      dup1\n      0x06\n      add\n      mload(0x40)\n      dup1\n      0xa0\n      add\n      0x40\n      mstore\n      swap1\n      dup2\n      0x00\n      dup3\n      add\n      dup1\n      sload\n      tag_98\n      swap1\n      tag_78\n      jump\t// in\n    tag_98:\n      dup1\n      0x1f\n      add\n      0x20\n      dup1\n      swap2\n      div\n      mul\n      0x20\n      add\n      mload(0x40)\n      swap1\n      dup2\n      add\n      0x40\n      mstore\n      dup1\n      swap3\n      swap2\n      swap1\n      dup2\n      dup2\n      mstore\n      0x20\n      add\n      dup3\n      dup1\n      sload\n      tag_99\n      swap1\n      tag_78\n      jump\t// in\n    tag_99:\n      dup1\n      iszero\n      tag_100\n      jumpi\n      dup1\n      0x1f\n      lt\n      tag_101\n      jumpi\n      0x0100\n      dup1\n      dup4\n      sload\n      div\n      mul\n      dup4\n      mstore\n      swap2\n      0x20\n      add\n      swap2\n      jump(tag_100)\n    tag_101:\n      dup3\n      add\n      swap2\n      swap1\n      0x00\n      mstore\n      keccak256(0x00, 0x20)\n      swap1\n    tag_102:\n      dup2\n      sload\n      dup2\n      mstore\n      swap1\n      0x01\n      add\n      swap1\n      0x20\n      add\n      dup1\n      dup4\n      gt\n      tag_102\n      jumpi\n      dup3\n      swap1\n      sub\n      0x1f\n      and\n      dup3\n      add\n      swap2\n    tag_100:\n      pop\n      pop\n      pop\n      pop\n      pop\n      dup2\n      mstore\n      0x20\n      add\n      0x01\n      dup3\n      add\n      dup1\n      sload\n      tag_103\n      swap1\n      tag_78\n      jump\t// in\n    tag_103:\n      dup1\n      0x1f\n      add\n      0x20\n      dup1\n      swap2\n      div\n      mul\n      0x20\n      add\n      mload(0x40)\n      swap1\n      dup2\n      add\n      0x40\n      mstore\n      dup1\n      swap3\n      swap2\n      swap1\n      dup2\n      dup2\n      mstore\n      0x20\n      add\n      dup3\n      dup1\n      sload\n      tag_104\n      swap1\n      tag_78\n      jump\t// in\n    tag_104:\n      dup1\n      iszero\n      tag_105\n      jumpi\n      dup1\n      0x1f\n      lt\n      tag_106\n      jumpi\n      0x0100\n      dup1\n      dup4\n      sload\n      div\n      mul\n      dup4\n      mstore\n      swap2\n      0x20\n      add\n      swap2\n      jump(tag_105)\n    tag_106:\n      dup3\n      add\n      swap2\n      swap1\n      0x00\n      mstore\n      keccak256(0x00, 0x20)\n      swap1\n    tag_107:\n      dup2\n      sload\n      dup2\n      mstore\n      swap1\n      0x01\n      add\n      swap1\n      0x20\n      add\n      dup1\n      dup4\n      gt\n      tag_107\n      jumpi\n      dup3\n      swap1\n      sub\n      0x1f\n      and\n      dup3\n      add\n      swap2\n    tag_105:\n      pop\n      pop\n      pop\n      pop\n      pop\n      dup2\n      mstore\n      0x20\n      add\n      0x02\n      dup3\n      add\n      dup1\n      sload\n      tag_108\n      swap1\n      tag_78\n      jump\t// in\n    tag_108:\n      dup1\n      0x1f\n      add\n      0x20\n      dup1\n      swap2\n      div\n      mul\n      0x20\n      add\n      mload(0x40)\n      swap1\n      dup2\n      add\n      0x40\n      mstore\n      dup1\n      swap3\n      swap2\n      swap1\n      dup2\n      dup2\n      mstore\n      0x20\n      add\n      dup3\n      dup1\n      sload\n      tag_109\n      swap1\n      tag_78\n      jump\t// in\n    tag_109:\n      dup1\n      iszero\n      tag_110\n      jumpi\n      dup1\n      0x1f\n      lt\n      tag_111\n      jumpi\n      0x0100\n      dup1\n      dup4\n      sload\n      div\n      mul\n      dup4\n      mstore\n      swap2\n      0x20\n      add\n      swap2\n      jump(tag_110)\n    tag_111:\n      dup3\n      add\n      swap2\n      swap1\n      0x00\n      mstore\n      keccak256(0x00, 0x20)\n      swap1\n    tag_112:\n      dup2\n      sload\n      dup2\n      mstore\n      swap1\n      0x01\n      add\n      swap1\n      0x20\n      add\n      dup1\n      dup4\n      gt\n      tag_112\n      jumpi\n      dup3\n      swap1\n      sub\n      0x1f\n      and\n      dup3\n      add\n      swap2\n    tag_110:\n      pop\n      pop\n      pop\n      pop\n      pop\n      dup2\n      mstore\n      0x20\n      add\n      0x03\n      dup3\n      add\n      dup1\n      sload\n      tag_113\n      swap1\n      tag_78\n      jump\t// in\n    tag_113:\n      dup1\n      0x1f\n      add\n      0x20\n      dup1\n      swap2\n      div\n      mul\n      0x20\n      add\n      mload(0x40)\n      swap1\n      dup2\n      add\n      0x40\n      mstore\n      dup1\n      swap3\n      swap2\n      swap1\n      dup2\n      dup2\n      mstore\n      0x20\n      add\n      dup3\n      dup1\n      sload\n      tag_114\n      swap1\n      tag_78\n      jump\t// in\n    tag_114:\n      dup1\n      iszero\n      tag_115\n      jumpi\n      dup1\n      0x1f\n      lt\n      tag_116\n      jumpi\n      0x0100\n      dup1\n      dup4\n      sload\n      div\n      mul\n      dup4\n      mstore\n      swap2\n      0x20\n      add\n      swap2\n      jump(tag_115)\n    tag_116:\n      dup3\n      add\n      swap2\n      swap1\n      0x00\n      mstore\n      keccak256(0x00, 0x20)\n      swap1\n    tag_117:\n      dup2\n      sload\n      dup2\n      mstore\n      swap1\n      0x01\n      add\n      swap1\n      0x20\n      add\n      dup1\n      dup4\n      gt\n      tag_117\n      jumpi\n      dup3\n      swap1\n      sub\n      0x1f\n      and\n      dup3\n      add\n      swap2\n    tag_115:\n      pop\n      pop\n      pop\n      pop\n      pop\n      dup2\n      mstore\n      0x20\n      add\n      0x04\n      dup3\n      add\n      dup1\n      sload\n      tag_118\n      swap1\n      tag_78\n      jump\t// in\n    tag_118:\n      dup1\n      0x1f\n      add\n      0x20\n      dup1\n      swap2\n      div\n      mul\n      0x20\n      add\n      mload(0x40)\n      swap1\n      dup2\n      add\n      0x40\n      mstore\n      dup1\n      swap3\n      swap2\n      swap1\n      dup2\n      dup2\n      mstore\n      0x20\n      add\n      dup3\n      dup1\n      sload\n      tag_119\n      swap1\n      tag_78\n      jump\t// in\n    tag_119:\n      dup1\n      iszero\n      tag_120\n      jumpi\n      dup1\n      0x1f\n      lt\n      tag_121\n      jumpi\n      0x0100\n      dup1\n      dup4\n      sload\n      div\n      mul\n      dup4\n      mstore\n      swap2\n      0x20\n      add\n      swap2\n      jump(tag_120)\n    tag_121:\n      dup3\n      add\n      swap2\n      swap1\n      0x00\n      mstore\n      keccak256(0x00, 0x20)\n      swap1\n    tag_122:\n      dup2\n      sload\n      dup2\n      mstore\n      swap1\n      0x01\n      add\n      swap1\n      0x20\n      add\n      dup1\n      dup4\n      gt\n      tag_122\n      jumpi\n      dup3\n      swap1\n      sub\n      0x1f\n      and\n      dup3\n      add\n      swap2\n    tag_120:\n      pop\n      pop\n      pop\n      pop\n      pop\n      dup2\n      mstore\n      pop\n      pop\n      swap1\n      dup1\n      0x0b\n      add\n      mload(0x40)\n      dup1\n      0x60\n      add\n      0x40\n      mstore\n      swap1\n      dup2\n      0x00\n      dup3\n      add\n      dup1\n      sload\n      dup1\n      0x20\n      mul\n      0x20\n      add\n      mload(0x40)\n      swap1\n      dup2\n      add\n      0x40\n      mstore\n      dup1\n      swap3\n      swap2\n      swap1\n      dup2\n      dup2\n      mstore\n      0x20\n      add\n      0x00\n      swap1\n    tag_123:\n      dup3\n      dup3\n      lt\n      iszero\n      tag_124\n      jumpi\n      dup4\n      dup3\n      swap1\n      0x00\n      mstore\n      keccak256(0x00, 0x20)\n      add\n      dup1\n      sload\n      tag_126\n      swap1\n      tag_78\n      jump\t// in\n    tag_126:\n      dup1\n      0x1f\n      add\n      0x20\n      dup1\n      swap2\n      div\n      mul\n      0x20\n      add\n      mload(0x40)\n      swap1\n      dup2\n      add\n      0x40\n      mstore\n      dup1\n      swap3\n      swap2\n      swap1\n      dup2\n      dup2\n      mstore\n      0x20\n      add\n      dup3\n      dup1\n      sload\n      tag_127\n      swap1\n      tag_78\n      jump\t// in\n    tag_127:\n      dup1\n      iszero\n      tag_128\n      jumpi\n      dup1\n      0x1f\n      lt\n      tag_129\n      jumpi\n      0x0100\n      dup1\n      dup4\n      sload\n      div\n      mul\n      dup4\n      mstore\n      swap2\n      0x20\n      add\n      swap2\n      jump(tag_128)\n    tag_129:\n      dup3\n      add\n      swap2\n      swap1\n      0x00\n      mstore\n      keccak256(0x00, 0x20)\n      swap1\n    tag_130:\n      dup2\n      sload\n      dup2\n      mstore\n      swap1\n      0x01\n      add\n      swap1\n      0x20\n      add\n      dup1\n      dup4\n      gt\n      tag_130\n      jumpi\n      dup3\n      swap1\n      sub\n      0x1f\n      and\n      dup3\n      add\n      swap2\n    tag_128:\n      pop\n      pop\n      pop\n      pop\n      pop\n      dup2\n      mstore\n      0x20\n      add\n      swap1\n      0x01\n      add\n      swap1\n      jump(tag_123)\n    tag_124:\n      pop\n      pop\n      pop\n      pop\n      dup2\n      mstore\n      0x20\n      add\n      0x01\n      dup3\n      add\n      dup1\n      sload\n      dup1\n      0x20\n      mul\n      0x20\n      add\n      mload(0x40)\n      swap1\n      dup2\n      add\n      0x40\n      mstore\n      dup1\n      swap3\n      swap2\n      swap1\n      dup2\n      dup2\n      mstore\n      0x20\n      add\n      0x00\n      swap1\n    tag_131:\n      dup3\n      dup3\n      lt\n      iszero\n      tag_132\n      jumpi\n      dup4\n      dup3\n      swap1\n      0x00\n      mstore\n      keccak256(0x00, 0x20)\n      add\n      dup1\n      sload\n      tag_134\n      swap1\n      tag_78\n      jump\t// in\n    tag_134:\n      dup1\n      0x1f\n      add\n      0x20\n      dup1\n      swap2\n      div\n      mul\n      0x20\n      add\n      mload(0x40)\n      swap1\n      dup2\n      add\n      0x40\n      mstore\n      dup1\n      swap3\n      swap2\n      swap1\n      dup2\n      dup2\n      mstore\n      0x20\n      add\n      dup3\n      dup1\n      sload\n      tag_135\n      swap1\n      tag_78\n      jump\t// in\n    tag_135:\n      dup1\n      iszero\n      tag_136\n      jumpi\n      dup1\n      0x1f\n      lt\n      tag_137\n      jumpi\n      0x0100\n      dup1\n      dup4\n      sload\n      div\n      mul\n      dup4\n      mstore\n      swap2\n      0x20\n      add\n      swap2\n      jump(tag_136)\n    tag_137:\n      dup3\n      add\n      swap2\n      swap1\n      0x00\n      mstore\n      keccak256(0x00, 0x20)\n      swap1\n    tag_138:\n      dup2\n      sload\n      dup2\n      mstore\n      swap1\n      0x01\n      add\n      swap1\n      0x20\n      add\n      dup1\n      dup4\n      gt\n      tag_138\n      jumpi\n      dup3\n      swap1\n      sub\n      0x1f\n      and\n      dup3\n      add\n      swap2\n    tag_136:\n      pop\n      pop\n      pop\n      pop\n      pop\n      dup2\n      mstore\n      0x20\n      add\n      swap1\n      0x01\n      add\n      swap1\n      jump(tag_131)\n    tag_132:\n      pop\n      pop\n      pop\n      pop\n      dup2\n      mstore\n      0x20\n      add\n      0x02\n      dup3\n      add\n      dup1\n      sload\n      dup1\n      0x20\n      mul\n      0x20\n      add\n      mload(0x40)\n      swap1\n      dup2\n      add\n      0x40\n      mstore\n      dup1\n      swap3\n      swap2\n      swap1\n      dup2\n      dup2\n      mstore\n      0x20\n      add\n      0x00\n      swap1\n    tag_139:\n      dup3\n      dup3\n      lt\n      iszero\n      tag_140\n      jumpi\n      dup4\n      dup3\n      swap1\n      0x00\n      mstore\n      keccak256(0x00, 0x20)\n      add\n      dup1\n      sload\n      tag_142\n      swap1\n      tag_78\n      jump\t// in\n    tag_142:\n      dup1\n      0x1f\n      add\n      0x20\n      dup1\n      swap2\n      div\n      mul\n      0x20\n      add\n      mload(0x40)\n      swap1\n      dup2\n      add\n      0x40\n      mstore\n      dup1\n      swap3\n      swap2\n      swap1\n      dup2\n      dup2\n      mstore\n      0x20\n      add\n      dup3\n      dup1\n      sload\n      tag_143\n      swap1\n      tag_78\n      jump\t// in\n    tag_143:\n      dup1\n      iszero\n      tag_144\n      jumpi\n      dup1\n      0x1f\n      lt\n      tag_145\n      jumpi\n      0x0100\n      dup1\n      dup4\n      sload\n      div\n      mul\n      dup4\n      mstore\n      swap2\n      0x20\n      add\n      swap2\n      jump(tag_144)\n    tag_145:\n      dup3\n      add\n      swap2\n      swap1\n      0x00\n      mstore\n      keccak256(0x00, 0x20)\n      swap1\n    tag_146:\n      dup2\n      sload\n      dup2\n      mstore\n      swap1\n      0x01\n      add\n      swap1\n      0x20\n      add\n      dup1\n      dup4\n      gt\n      tag_146\n      jumpi\n      dup3\n      swap1\n      sub\n      0x1f\n      and\n      dup3\n      add\n      swap2\n    tag_144:\n      pop\n      pop\n      pop\n      pop\n      pop\n      dup2\n      mstore\n      0x20\n      add\n      swap1\n      0x01\n      add\n      swap1\n      jump(tag_139)\n    tag_140:\n      pop\n      pop\n      pop\n      pop\n      dup2\n      mstore\n      pop\n      pop\n      swap1\n      pop\n      dup9\n      jump\t// out\n        /* \"contracts/Profile.sol\":2342:2679  function createUnivercity(string memory startDate, string memory endDate, string memory univercity) public {\r... */\n    tag_38:\n        /* \"contracts/Profile.sol\":2460:2487  Education memory _education */\n      tag_148\n      tag_149\n      jump\t// in\n    tag_148:\n        /* \"contracts/Profile.sol\":2521:2530  startDate */\n      dup4\n        /* \"contracts/Profile.sol\":2498:2508  _education */\n      dup2\n        /* \"contracts/Profile.sol\":2498:2518  _education.startDate */\n      0x00\n      add\n        /* \"contracts/Profile.sol\":2498:2530  _education.startDate = startDate */\n      dup2\n      swap1\n      mstore\n      pop\n        /* \"contracts/Profile.sol\":2562:2569  endDate */\n      dup3\n        /* \"contracts/Profile.sol\":2541:2551  _education */\n      dup2\n        /* \"contracts/Profile.sol\":2541:2559  _education.endDate */\n      0x20\n      add\n        /* \"contracts/Profile.sol\":2541:2569  _education.endDate = endDate */\n      dup2\n      swap1\n      mstore\n      pop\n        /* \"contracts/Profile.sol\":2604:2614  univercity */\n      dup2\n        /* \"contracts/Profile.sol\":2580:2590  _education */\n      dup2\n        /* \"contracts/Profile.sol\":2580:2601  _education.univercity */\n      0x40\n      add\n        /* \"contracts/Profile.sol\":2580:2614  _education.univercity = univercity */\n      dup2\n      swap1\n      mstore\n      pop\n        /* \"contracts/Profile.sol\":2625:2632  profile */\n      0x00\n        /* \"contracts/Profile.sol\":2625:2644  profile[msg.sender] */\n      dup1\n        /* \"contracts/Profile.sol\":2633:2643  msg.sender */\n      caller\n        /* \"contracts/Profile.sol\":2625:2644  profile[msg.sender] */\n      0xffffffffffffffffffffffffffffffffffffffff\n      and\n      0xffffffffffffffffffffffffffffffffffffffff\n      and\n      dup2\n      mstore\n      0x20\n      add\n      swap1\n      dup2\n      mstore\n      0x20\n      add\n      0x00\n      keccak256\n        /* \"contracts/Profile.sol\":2625:2654  profile[msg.sender].education */\n      0x0e\n      add\n        /* \"contracts/Profile.sol\":2660:2670  _education */\n      dup2\n        /* \"contracts/Profile.sol\":2625:2671  profile[msg.sender].education.push(_education) */\n      swap1\n      dup1\n      0x01\n      dup2\n      sload\n      add\n      dup1\n      dup3\n      sstore\n      dup1\n      swap2\n      pop\n      pop\n      0x01\n      swap1\n      sub\n      swap1\n      0x00\n      mstore\n      keccak256(0x00, 0x20)\n      swap1\n      0x03\n      mul\n      add\n      0x00\n      swap1\n      swap2\n      swap1\n      swap2\n      swap1\n      swap2\n      pop\n      0x00\n      dup3\n      add\n      mload\n      dup2\n      0x00\n      add\n      swap1\n      dup1\n      mload\n      swap1\n      0x20\n      add\n      swap1\n      tag_151\n      swap3\n      swap2\n      swap1\n      tag_67\n      jump\t// in\n    tag_151:\n      pop\n      0x20\n      dup3\n      add\n      mload\n      dup2\n      0x01\n      add\n      swap1\n      dup1\n      mload\n      swap1\n      0x20\n      add\n      swap1\n      tag_152\n      swap3\n      swap2\n      swap1\n      tag_67\n      jump\t// in\n    tag_152:\n      pop\n      0x40\n      dup3\n      add\n      mload\n      dup2\n      0x02\n      add\n      swap1\n      dup1\n      mload\n      swap1\n      0x20\n      add\n      swap1\n      tag_153\n      swap3\n      swap2\n      swap1\n      tag_67\n      jump\t// in\n    tag_153:\n      pop\n      pop\n      pop\n        /* \"contracts/Profile.sol\":2449:2679  {\r... */\n      pop\n        /* \"contracts/Profile.sol\":2342:2679  function createUnivercity(string memory startDate, string memory endDate, string memory univercity) public {\r... */\n      pop\n      pop\n      pop\n      jump\t// out\n        /* \"contracts/Profile.sol\":3090:3182  function delAllEducation() external  {\r... */\n    tag_40:\n        /* \"contracts/Profile.sol\":3145:3152  profile */\n      0x00\n        /* \"contracts/Profile.sol\":3145:3164  profile[msg.sender] */\n      dup1\n        /* \"contracts/Profile.sol\":3153:3163  msg.sender */\n      caller\n        /* \"contracts/Profile.sol\":3145:3164  profile[msg.sender] */\n      0xffffffffffffffffffffffffffffffffffffffff\n      and\n      0xffffffffffffffffffffffffffffffffffffffff\n      and\n      dup2\n      mstore\n      0x20\n      add\n      swap1\n      dup2\n      mstore\n      0x20\n      add\n      0x00\n      keccak256\n        /* \"contracts/Profile.sol\":3145:3174  profile[msg.sender].education */\n      0x0e\n      add\n      0x00\n        /* \"contracts/Profile.sol\":3138:3174  delete profile[msg.sender].education */\n      tag_155\n      swap2\n      swap1\n      tag_156\n      jump\t// in\n    tag_155:\n        /* \"contracts/Profile.sol\":3090:3182  function delAllEducation() external  {\r... */\n      jump\t// out\n        /* \"contracts/Profile.sol\":2688:2956  function getEducation(uint index) public view returns(string memory, string memory, string memory) {\r... */\n    tag_44:\n        /* \"contracts/Profile.sol\":2742:2755  string memory */\n      0x60\n        /* \"contracts/Profile.sol\":2757:2770  string memory */\n      dup1\n        /* \"contracts/Profile.sol\":2772:2785  string memory */\n      0x60\n        /* \"contracts/Profile.sol\":2806:2813  profile */\n      0x00\n        /* \"contracts/Profile.sol\":2806:2825  profile[msg.sender] */\n      dup1\n        /* \"contracts/Profile.sol\":2814:2824  msg.sender */\n      caller\n        /* \"contracts/Profile.sol\":2806:2825  profile[msg.sender] */\n      0xffffffffffffffffffffffffffffffffffffffff\n      and\n      0xffffffffffffffffffffffffffffffffffffffff\n      and\n      dup2\n      mstore\n      0x20\n      add\n      swap1\n      dup2\n      mstore\n      0x20\n      add\n      0x00\n      keccak256\n        /* \"contracts/Profile.sol\":2806:2835  profile[msg.sender].education */\n      0x0e\n      add\n        /* \"contracts/Profile.sol\":2836:2841  index */\n      dup5\n        /* \"contracts/Profile.sol\":2806:2842  profile[msg.sender].education[index] */\n      dup2\n      sload\n      dup2\n      lt\n      tag_158\n      jumpi\n      tag_159\n      tag_160\n      jump\t// in\n    tag_159:\n    tag_158:\n      swap1\n      0x00\n      mstore\n      keccak256(0x00, 0x20)\n      swap1\n      0x03\n      mul\n      add\n        /* \"contracts/Profile.sol\":2806:2852  profile[msg.sender].education[index].startDate */\n      0x00\n      add\n        /* \"contracts/Profile.sol\":2854:2861  profile */\n      0x00\n        /* \"contracts/Profile.sol\":2854:2873  profile[msg.sender] */\n      dup1\n        /* \"contracts/Profile.sol\":2862:2872  msg.sender */\n      caller\n        /* \"contracts/Profile.sol\":2854:2873  profile[msg.sender] */\n      0xffffffffffffffffffffffffffffffffffffffff\n      and\n      0xffffffffffffffffffffffffffffffffffffffff\n      and\n      dup2\n      mstore\n      0x20\n      add\n      swap1\n      dup2\n      mstore\n      0x20\n      add\n      0x00\n      keccak256\n        /* \"contracts/Profile.sol\":2854:2883  profile[msg.sender].education */\n      0x0e\n      add\n        /* \"contracts/Profile.sol\":2884:2889  index */\n      dup6\n        /* \"contracts/Profile.sol\":2854:2890  profile[msg.sender].education[index] */\n      dup2\n      sload\n      dup2\n      lt\n      tag_162\n      jumpi\n      tag_163\n      tag_160\n      jump\t// in\n    tag_163:\n    tag_162:\n      swap1\n      0x00\n      mstore\n      keccak256(0x00, 0x20)\n      swap1\n      0x03\n      mul\n      add\n        /* \"contracts/Profile.sol\":2854:2898  profile[msg.sender].education[index].endDate */\n      0x01\n      add\n        /* \"contracts/Profile.sol\":2900:2907  profile */\n      0x00\n        /* \"contracts/Profile.sol\":2900:2919  profile[msg.sender] */\n      dup1\n        /* \"contracts/Profile.sol\":2908:2918  msg.sender */\n      caller\n        /* \"contracts/Profile.sol\":2900:2919  profile[msg.sender] */\n      0xffffffffffffffffffffffffffffffffffffffff\n      and\n      0xffffffffffffffffffffffffffffffffffffffff\n      and\n      dup2\n      mstore\n      0x20\n      add\n      swap1\n      dup2\n      mstore\n      0x20\n      add\n      0x00\n      keccak256\n        /* \"contracts/Profile.sol\":2900:2929  profile[msg.sender].education */\n      0x0e\n      add\n        /* \"contracts/Profile.sol\":2930:2935  index */\n      dup7\n        /* \"contracts/Profile.sol\":2900:2936  profile[msg.sender].education[index] */\n      dup2\n      sload\n      dup2\n      lt\n      tag_165\n      jumpi\n      tag_166\n      tag_160\n      jump\t// in\n    tag_166:\n    tag_165:\n      swap1\n      0x00\n      mstore\n      keccak256(0x00, 0x20)\n      swap1\n      0x03\n      mul\n      add\n        /* \"contracts/Profile.sol\":2900:2947  profile[msg.sender].education[index].univercity */\n      0x02\n      add\n        /* \"contracts/Profile.sol\":2798:2948  return (profile[msg.sender].education[index].startDate, profile[msg.sender].education[index].endDate, profile[msg.sender].education[index].univercity) */\n      dup3\n      dup1\n      sload\n      tag_168\n      swap1\n      tag_78\n      jump\t// in\n    tag_168:\n      dup1\n      0x1f\n      add\n      0x20\n      dup1\n      swap2\n      div\n      mul\n      0x20\n      add\n      mload(0x40)\n      swap1\n      dup2\n      add\n      0x40\n      mstore\n      dup1\n      swap3\n      swap2\n      swap1\n      dup2\n      dup2\n      mstore\n      0x20\n      add\n      dup3\n      dup1\n      sload\n      tag_169\n      swap1\n      tag_78\n      jump\t// in\n    tag_169:\n      dup1\n      iszero\n      tag_170\n      jumpi\n      dup1\n      0x1f\n      lt\n      tag_171\n      jumpi\n      0x0100\n      dup1\n      dup4\n      sload\n      div\n      mul\n      dup4\n      mstore\n      swap2\n      0x20\n      add\n      swap2\n      jump(tag_170)\n    tag_171:\n      dup3\n      add\n      swap2\n      swap1\n      0x00\n      mstore\n      keccak256(0x00, 0x20)\n      swap1\n    tag_172:\n      dup2\n      sload\n      dup2\n      mstore\n      swap1\n      0x01\n      add\n      swap1\n      0x20\n      add\n      dup1\n      dup4\n      gt\n      tag_172\n      jumpi\n      dup3\n      swap1\n      sub\n      0x1f\n      and\n      dup3\n      add\n      swap2\n    tag_170:\n      pop\n      pop\n      pop\n      pop\n      pop\n      swap3\n      pop\n      dup2\n      dup1\n      sload\n      tag_173\n      swap1\n      tag_78\n      jump\t// in\n    tag_173:\n      dup1\n      0x1f\n      add\n      0x20\n      dup1\n      swap2\n      div\n      mul\n      0x20\n      add\n      mload(0x40)\n      swap1\n      dup2\n      add\n      0x40\n      mstore\n      dup1\n      swap3\n      swap2\n      swap1\n      dup2\n      dup2\n      mstore\n      0x20\n      add\n      dup3\n      dup1\n      sload\n      tag_174\n      swap1\n      tag_78\n      jump\t// in\n    tag_174:\n      dup1\n      iszero\n      tag_175\n      jumpi\n      dup1\n      0x1f\n      lt\n      tag_176\n      jumpi\n      0x0100\n      dup1\n      dup4\n      sload\n      div\n      mul\n      dup4\n      mstore\n      swap2\n      0x20\n      add\n      swap2\n      jump(tag_175)\n    tag_176:\n      dup3\n      add\n      swap2\n      swap1\n      0x00\n      mstore\n      keccak256(0x00, 0x20)\n      swap1\n    tag_177:\n      dup2\n      sload\n      dup2\n      mstore\n      swap1\n      0x01\n      add\n      swap1\n      0x20\n      add\n      dup1\n      dup4\n      gt\n      tag_177\n      jumpi\n      dup3\n      swap1\n      sub\n      0x1f\n      and\n      dup3\n      add\n      swap2\n    tag_175:\n      pop\n      pop\n      pop\n      pop\n      pop\n      swap2\n      pop\n      dup1\n      dup1\n      sload\n      tag_178\n      swap1\n      tag_78\n      jump\t// in\n    tag_178:\n      dup1\n      0x1f\n      add\n      0x20\n      dup1\n      swap2\n      div\n      mul\n      0x20\n      add\n      mload(0x40)\n      swap1\n      dup2\n      add\n      0x40\n      mstore\n      dup1\n      swap3\n      swap2\n      swap1\n      dup2\n      dup2\n      mstore\n      0x20\n      add\n      dup3\n      dup1\n      sload\n      tag_179\n      swap1\n      tag_78\n      jump\t// in\n    tag_179:\n      dup1\n      iszero\n      tag_180\n      jumpi\n      dup1\n      0x1f\n      lt\n      tag_181\n      jumpi\n      0x0100\n      dup1\n      dup4\n      sload\n      div\n      mul\n      dup4\n      mstore\n      swap2\n      0x20\n      add\n      swap2\n      jump(tag_180)\n    tag_181:\n      dup3\n      add\n      swap2\n      swap1\n      0x00\n      mstore\n      keccak256(0x00, 0x20)\n      swap1\n    tag_182:\n      dup2\n      sload\n      dup2\n      mstore\n      swap1\n      0x01\n      add\n      swap1\n      0x20\n      add\n      dup1\n      dup4\n      gt\n      tag_182\n      jumpi\n      dup3\n      swap1\n      sub\n      0x1f\n      and\n      dup3\n      add\n      swap2\n    tag_180:\n      pop\n      pop\n      pop\n      pop\n      pop\n      swap1\n      pop\n      swap3\n      pop\n      swap3\n      pop\n      swap3\n      pop\n        /* \"contracts/Profile.sol\":2688:2956  function getEducation(uint index) public view returns(string memory, string memory, string memory) {\r... */\n      swap2\n      swap4\n      swap1\n      swap3\n      pop\n      jump\t// out\n        /* \"contracts/Profile.sol\":3190:3266  function delProfile() external {\r... */\n    tag_48:\n        /* \"contracts/Profile.sol\":3239:3246  profile */\n      0x00\n        /* \"contracts/Profile.sol\":3239:3258  profile[msg.sender] */\n      dup1\n        /* \"contracts/Profile.sol\":3247:3257  msg.sender */\n      caller\n        /* \"contracts/Profile.sol\":3239:3258  profile[msg.sender] */\n      0xffffffffffffffffffffffffffffffffffffffff\n      and\n      0xffffffffffffffffffffffffffffffffffffffff\n      and\n      dup2\n      mstore\n      0x20\n      add\n      swap1\n      dup2\n      mstore\n      0x20\n      add\n      0x00\n      keccak256\n      0x00\n        /* \"contracts/Profile.sol\":3232:3258  delete profile[msg.sender] */\n      dup1\n      dup3\n      add\n      exp(0x0100, 0x00)\n      dup2\n      sload\n      swap1\n      0xffffffffffffffffffffffffffffffffffffffff\n      mul\n      not\n      and\n      swap1\n      sstore\n      0x01\n      dup3\n      add\n      0x00\n      tag_184\n      swap2\n      swap1\n      tag_61\n      jump\t// in\n    tag_184:\n      0x02\n      dup3\n      add\n      0x00\n      tag_185\n      swap2\n      swap1\n      tag_61\n      jump\t// in\n    tag_185:\n      0x03\n      dup3\n      add\n      0x00\n      tag_186\n      swap2\n      swap1\n      tag_61\n      jump\t// in\n    tag_186:\n      0x04\n      dup3\n      add\n      0x00\n      tag_187\n      swap2\n      swap1\n      tag_61\n      jump\t// in\n    tag_187:\n      0x05\n      dup3\n      add\n      0x00\n      swap1\n      sstore\n      0x06\n      dup3\n      add\n      0x00\n      dup1\n      dup3\n      add\n      0x00\n      tag_188\n      swap2\n      swap1\n      tag_61\n      jump\t// in\n    tag_188:\n      0x01\n      dup3\n      add\n      0x00\n      tag_189\n      swap2\n      swap1\n      tag_61\n      jump\t// in\n    tag_189:\n      0x02\n      dup3\n      add\n      0x00\n      tag_190\n      swap2\n      swap1\n      tag_61\n      jump\t// in\n    tag_190:\n      0x03\n      dup3\n      add\n      0x00\n      tag_191\n      swap2\n      swap1\n      tag_61\n      jump\t// in\n    tag_191:\n      0x04\n      dup3\n      add\n      0x00\n      tag_192\n      swap2\n      swap1\n      tag_61\n      jump\t// in\n    tag_192:\n      pop\n      pop\n      0x0b\n      dup3\n      add\n      0x00\n      dup1\n      dup3\n      add\n      0x00\n      tag_193\n      swap2\n      swap1\n      tag_51\n      jump\t// in\n    tag_193:\n      0x01\n      dup3\n      add\n      0x00\n      tag_194\n      swap2\n      swap1\n      tag_51\n      jump\t// in\n    tag_194:\n      0x02\n      dup3\n      add\n      0x00\n      tag_195\n      swap2\n      swap1\n      tag_51\n      jump\t// in\n    tag_195:\n      pop\n      pop\n      0x0e\n      dup3\n      add\n      0x00\n      tag_196\n      swap2\n      swap1\n      tag_156\n      jump\t// in\n    tag_196:\n      pop\n      pop\n        /* \"contracts/Profile.sol\":3190:3266  function delProfile() external {\r... */\n      jump\t// out\n    tag_51:\n      pop\n      dup1\n      sload\n      0x00\n      dup3\n      sstore\n      swap1\n      0x00\n      mstore\n      keccak256(0x00, 0x20)\n      swap1\n      dup2\n      add\n      swap1\n      tag_198\n      swap2\n      swap1\n      tag_199\n      jump\t// in\n    tag_198:\n      pop\n      jump\t// out\n    tag_55:\n      dup3\n      dup1\n      sload\n      dup3\n      dup3\n      sstore\n      swap1\n      0x00\n      mstore\n      keccak256(0x00, 0x20)\n      swap1\n      dup2\n      add\n      swap3\n      dup3\n      iszero\n      tag_200\n      jumpi\n      swap2\n      0x20\n      mul\n      dup3\n      add\n    tag_201:\n      dup3\n      dup2\n      gt\n      iszero\n      tag_202\n      jumpi\n      dup3\n      mload\n      dup3\n      swap1\n      dup1\n      mload\n      swap1\n      0x20\n      add\n      swap1\n      tag_203\n      swap3\n      swap2\n      swap1\n      tag_67\n      jump\t// in\n    tag_203:\n      pop\n      swap2\n      0x20\n      add\n      swap2\n      swap1\n      0x01\n      add\n      swap1\n      jump(tag_201)\n    tag_202:\n    tag_200:\n      pop\n      swap1\n      pop\n      tag_204\n      swap2\n      swap1\n      tag_199\n      jump\t// in\n    tag_204:\n      pop\n      swap1\n      jump\t// out\n    tag_61:\n      pop\n      dup1\n      sload\n      tag_205\n      swap1\n      tag_78\n      jump\t// in\n    tag_205:\n      0x00\n      dup3\n      sstore\n      dup1\n      0x1f\n      lt\n      tag_207\n      jumpi\n      pop\n      jump(tag_206)\n    tag_207:\n      0x1f\n      add\n      0x20\n      swap1\n      div\n      swap1\n      0x00\n      mstore\n      keccak256(0x00, 0x20)\n      swap1\n      dup2\n      add\n      swap1\n      tag_208\n      swap2\n      swap1\n      tag_209\n      jump\t// in\n    tag_208:\n    tag_206:\n      pop\n      jump\t// out\n    tag_67:\n      dup3\n      dup1\n      sload\n      tag_210\n      swap1\n      tag_78\n      jump\t// in\n    tag_210:\n      swap1\n      0x00\n      mstore\n      keccak256(0x00, 0x20)\n      swap1\n      0x1f\n      add\n      0x20\n      swap1\n      div\n      dup2\n      add\n      swap3\n      dup3\n      tag_212\n      jumpi\n      0x00\n      dup6\n      sstore\n      jump(tag_211)\n    tag_212:\n      dup3\n      0x1f\n      lt\n      tag_213\n      jumpi\n      dup1\n      mload\n      not(0xff)\n      and\n      dup4\n      dup1\n      add\n      or\n      dup6\n      sstore\n      jump(tag_211)\n    tag_213:\n      dup3\n      dup1\n      add\n      0x01\n      add\n      dup6\n      sstore\n      dup3\n      iszero\n      tag_211\n      jumpi\n      swap2\n      dup3\n      add\n    tag_214:\n      dup3\n      dup2\n      gt\n      iszero\n      tag_215\n      jumpi\n      dup3\n      mload\n      dup3\n      sstore\n      swap2\n      0x20\n      add\n      swap2\n      swap1\n      0x01\n      add\n      swap1\n      jump(tag_214)\n    tag_215:\n    tag_211:\n      pop\n      swap1\n      pop\n      tag_216\n      swap2\n      swap1\n      tag_209\n      jump\t// in\n    tag_216:\n      pop\n      swap1\n      jump\t// out\n    tag_149:\n      mload(0x40)\n      dup1\n      0x60\n      add\n      0x40\n      mstore\n      dup1\n      0x60\n      dup2\n      mstore\n      0x20\n      add\n      0x60\n      dup2\n      mstore\n      0x20\n      add\n      0x60\n      dup2\n      mstore\n      pop\n      swap1\n      jump\t// out\n    tag_156:\n      pop\n      dup1\n      sload\n      0x00\n      dup3\n      sstore\n      0x03\n      mul\n      swap1\n      0x00\n      mstore\n      keccak256(0x00, 0x20)\n      swap1\n      dup2\n      add\n      swap1\n      tag_218\n      swap2\n      swap1\n      tag_219\n      jump\t// in\n    tag_218:\n      pop\n      jump\t// out\n    tag_199:\n    tag_220:\n      dup1\n      dup3\n      gt\n      iszero\n      tag_221\n      jumpi\n      0x00\n      dup2\n      dup2\n      tag_222\n      swap2\n      swap1\n      tag_61\n      jump\t// in\n    tag_222:\n      pop\n      0x01\n      add\n      jump(tag_220)\n    tag_221:\n      pop\n      swap1\n      jump\t// out\n    tag_209:\n    tag_223:\n      dup1\n      dup3\n      gt\n      iszero\n      tag_224\n      jumpi\n      0x00\n      dup2\n      0x00\n      swap1\n      sstore\n      pop\n      0x01\n      add\n      jump(tag_223)\n    tag_224:\n      pop\n      swap1\n      jump\t// out\n    tag_219:\n    tag_225:\n      dup1\n      dup3\n      gt\n      iszero\n      tag_226\n      jumpi\n      0x00\n      dup1\n      dup3\n      add\n      0x00\n      tag_227\n      swap2\n      swap1\n      tag_61\n      jump\t// in\n    tag_227:\n      0x01\n      dup3\n      add\n      0x00\n      tag_228\n      swap2\n      swap1\n      tag_61\n      jump\t// in\n    tag_228:\n      0x02\n      dup3\n      add\n      0x00\n      tag_229\n      swap2\n      swap1\n      tag_61\n      jump\t// in\n    tag_229:\n      pop\n      0x03\n      add\n      jump(tag_225)\n    tag_226:\n      pop\n      swap1\n      jump\t// out\n        /* \"#utility.yul\":23:980   */\n    tag_231:\n        /* \"#utility.yul\":129:134   */\n      0x00\n        /* \"#utility.yul\":154:245   */\n      tag_233\n        /* \"#utility.yul\":170:244   */\n      tag_234\n        /* \"#utility.yul\":237:243   */\n      dup5\n        /* \"#utility.yul\":170:244   */\n      tag_235\n      jump\t// in\n    tag_234:\n        /* \"#utility.yul\":154:245   */\n      tag_236\n      jump\t// in\n    tag_233:\n        /* \"#utility.yul\":145:245   */\n      swap1\n      pop\n        /* \"#utility.yul\":265:270   */\n      dup1\n        /* \"#utility.yul\":294:300   */\n      dup4\n        /* \"#utility.yul\":287:292   */\n      dup3\n        /* \"#utility.yul\":280:301   */\n      mstore\n        /* \"#utility.yul\":328:332   */\n      0x20\n        /* \"#utility.yul\":321:326   */\n      dup3\n        /* \"#utility.yul\":317:333   */\n      add\n        /* \"#utility.yul\":310:333   */\n      swap1\n      pop\n        /* \"#utility.yul\":354:360   */\n      dup3\n        /* \"#utility.yul\":404:407   */\n      dup6\n        /* \"#utility.yul\":396:400   */\n      0x20\n        /* \"#utility.yul\":388:394   */\n      dup7\n        /* \"#utility.yul\":384:401   */\n      mul\n        /* \"#utility.yul\":379:382   */\n      dup3\n        /* \"#utility.yul\":375:402   */\n      add\n        /* \"#utility.yul\":372:408   */\n      gt\n        /* \"#utility.yul\":369:512   */\n      iszero\n      tag_237\n      jumpi\n        /* \"#utility.yul\":423:502   */\n      tag_238\n      tag_239\n      jump\t// in\n    tag_238:\n        /* \"#utility.yul\":369:512   */\n    tag_237:\n        /* \"#utility.yul\":536:537   */\n      0x00\n        /* \"#utility.yul\":521:974   */\n    tag_240:\n        /* \"#utility.yul\":546:552   */\n      dup6\n        /* \"#utility.yul\":543:544   */\n      dup2\n        /* \"#utility.yul\":540:553   */\n      lt\n        /* \"#utility.yul\":521:974   */\n      iszero\n      tag_242\n      jumpi\n        /* \"#utility.yul\":628:631   */\n      dup2\n        /* \"#utility.yul\":615:632   */\n      calldataload\n        /* \"#utility.yul\":664:682   */\n      0xffffffffffffffff\n        /* \"#utility.yul\":651:662   */\n      dup2\n        /* \"#utility.yul\":648:683   */\n      gt\n        /* \"#utility.yul\":645:767   */\n      iszero\n      tag_243\n      jumpi\n        /* \"#utility.yul\":686:765   */\n      tag_244\n      tag_245\n      jump\t// in\n    tag_244:\n        /* \"#utility.yul\":645:767   */\n    tag_243:\n        /* \"#utility.yul\":810:821   */\n      dup1\n        /* \"#utility.yul\":802:808   */\n      dup7\n        /* \"#utility.yul\":798:822   */\n      add\n        /* \"#utility.yul\":848:895   */\n      tag_246\n        /* \"#utility.yul\":891:894   */\n      dup10\n        /* \"#utility.yul\":879:889   */\n      dup3\n        /* \"#utility.yul\":848:895   */\n      tag_247\n      jump\t// in\n    tag_246:\n        /* \"#utility.yul\":843:846   */\n      dup6\n        /* \"#utility.yul\":836:896   */\n      mstore\n        /* \"#utility.yul\":925:929   */\n      0x20\n        /* \"#utility.yul\":920:923   */\n      dup6\n        /* \"#utility.yul\":916:930   */\n      add\n        /* \"#utility.yul\":909:930   */\n      swap5\n      pop\n        /* \"#utility.yul\":959:963   */\n      0x20\n        /* \"#utility.yul\":954:957   */\n      dup5\n        /* \"#utility.yul\":950:964   */\n      add\n        /* \"#utility.yul\":943:964   */\n      swap4\n      pop\n        /* \"#utility.yul\":581:974   */\n      pop\n      pop\n        /* \"#utility.yul\":568:569   */\n      0x01\n        /* \"#utility.yul\":565:566   */\n      dup2\n        /* \"#utility.yul\":561:570   */\n      add\n        /* \"#utility.yul\":556:570   */\n      swap1\n      pop\n        /* \"#utility.yul\":521:974   */\n      jump(tag_240)\n    tag_242:\n        /* \"#utility.yul\":525:539   */\n      pop\n        /* \"#utility.yul\":135:980   */\n      pop\n      pop\n        /* \"#utility.yul\":23:980   */\n      swap4\n      swap3\n      pop\n      pop\n      pop\n      jump\t// out\n        /* \"#utility.yul\":986:1398   */\n    tag_248:\n        /* \"#utility.yul\":1064:1069   */\n      0x00\n        /* \"#utility.yul\":1089:1155   */\n      tag_250\n        /* \"#utility.yul\":1105:1154   */\n      tag_251\n        /* \"#utility.yul\":1147:1153   */\n      dup5\n        /* \"#utility.yul\":1105:1154   */\n      tag_252\n      jump\t// in\n    tag_251:\n        /* \"#utility.yul\":1089:1155   */\n      tag_236\n      jump\t// in\n    tag_250:\n        /* \"#utility.yul\":1080:1155   */\n      swap1\n      pop\n        /* \"#utility.yul\":1178:1184   */\n      dup3\n        /* \"#utility.yul\":1171:1176   */\n      dup2\n        /* \"#utility.yul\":1164:1185   */\n      mstore\n        /* \"#utility.yul\":1216:1220   */\n      0x20\n        /* \"#utility.yul\":1209:1214   */\n      dup2\n        /* \"#utility.yul\":1205:1221   */\n      add\n        /* \"#utility.yul\":1254:1257   */\n      dup5\n        /* \"#utility.yul\":1245:1251   */\n      dup5\n        /* \"#utility.yul\":1240:1243   */\n      dup5\n        /* \"#utility.yul\":1236:1252   */\n      add\n        /* \"#utility.yul\":1233:1258   */\n      gt\n        /* \"#utility.yul\":1230:1342   */\n      iszero\n      tag_253\n      jumpi\n        /* \"#utility.yul\":1261:1340   */\n      tag_254\n      tag_255\n      jump\t// in\n    tag_254:\n        /* \"#utility.yul\":1230:1342   */\n    tag_253:\n        /* \"#utility.yul\":1351:1392   */\n      tag_256\n        /* \"#utility.yul\":1385:1391   */\n      dup5\n        /* \"#utility.yul\":1380:1383   */\n      dup3\n        /* \"#utility.yul\":1375:1378   */\n      dup6\n        /* \"#utility.yul\":1351:1392   */\n      tag_257\n      jump\t// in\n    tag_256:\n        /* \"#utility.yul\":1070:1398   */\n      pop\n        /* \"#utility.yul\":986:1398   */\n      swap4\n      swap3\n      pop\n      pop\n      pop\n      jump\t// out\n        /* \"#utility.yul\":1404:1543   */\n    tag_258:\n        /* \"#utility.yul\":1450:1455   */\n      0x00\n        /* \"#utility.yul\":1488:1494   */\n      dup2\n        /* \"#utility.yul\":1475:1495   */\n      calldataload\n        /* \"#utility.yul\":1466:1495   */\n      swap1\n      pop\n        /* \"#utility.yul\":1504:1537   */\n      tag_260\n        /* \"#utility.yul\":1531:1536   */\n      dup2\n        /* \"#utility.yul\":1504:1537   */\n      tag_261\n      jump\t// in\n    tag_260:\n        /* \"#utility.yul\":1404:1543   */\n      swap3\n      swap2\n      pop\n      pop\n      jump\t// out\n        /* \"#utility.yul\":1565:1955   */\n    tag_262:\n        /* \"#utility.yul\":1646:1651   */\n      0x00\n        /* \"#utility.yul\":1695:1698   */\n      dup3\n        /* \"#utility.yul\":1688:1692   */\n      0x1f\n        /* \"#utility.yul\":1680:1686   */\n      dup4\n        /* \"#utility.yul\":1676:1693   */\n      add\n        /* \"#utility.yul\":1672:1699   */\n      slt\n        /* \"#utility.yul\":1662:1784   */\n      tag_264\n      jumpi\n        /* \"#utility.yul\":1703:1782   */\n      tag_265\n      tag_245\n      jump\t// in\n    tag_265:\n        /* \"#utility.yul\":1662:1784   */\n    tag_264:\n        /* \"#utility.yul\":1820:1826   */\n      dup2\n        /* \"#utility.yul\":1807:1827   */\n      calldataload\n        /* \"#utility.yul\":1845:1949   */\n      tag_266\n        /* \"#utility.yul\":1945:1948   */\n      dup5\n        /* \"#utility.yul\":1937:1943   */\n      dup3\n        /* \"#utility.yul\":1930:1934   */\n      0x20\n        /* \"#utility.yul\":1922:1928   */\n      dup7\n        /* \"#utility.yul\":1918:1935   */\n      add\n        /* \"#utility.yul\":1845:1949   */\n      tag_231\n      jump\t// in\n    tag_266:\n        /* \"#utility.yul\":1836:1949   */\n      swap2\n      pop\n        /* \"#utility.yul\":1652:1955   */\n      pop\n        /* \"#utility.yul\":1565:1955   */\n      swap3\n      swap2\n      pop\n      pop\n      jump\t// out\n        /* \"#utility.yul\":1975:2315   */\n    tag_247:\n        /* \"#utility.yul\":2031:2036   */\n      0x00\n        /* \"#utility.yul\":2080:2083   */\n      dup3\n        /* \"#utility.yul\":2073:2077   */\n      0x1f\n        /* \"#utility.yul\":2065:2071   */\n      dup4\n        /* \"#utility.yul\":2061:2078   */\n      add\n        /* \"#utility.yul\":2057:2084   */\n      slt\n        /* \"#utility.yul\":2047:2169   */\n      tag_268\n      jumpi\n        /* \"#utility.yul\":2088:2167   */\n      tag_269\n      tag_245\n      jump\t// in\n    tag_269:\n        /* \"#utility.yul\":2047:2169   */\n    tag_268:\n        /* \"#utility.yul\":2205:2211   */\n      dup2\n        /* \"#utility.yul\":2192:2212   */\n      calldataload\n        /* \"#utility.yul\":2230:2309   */\n      tag_270\n        /* \"#utility.yul\":2305:2308   */\n      dup5\n        /* \"#utility.yul\":2297:2303   */\n      dup3\n        /* \"#utility.yul\":2290:2294   */\n      0x20\n        /* \"#utility.yul\":2282:2288   */\n      dup7\n        /* \"#utility.yul\":2278:2295   */\n      add\n        /* \"#utility.yul\":2230:2309   */\n      tag_248\n      jump\t// in\n    tag_270:\n        /* \"#utility.yul\":2221:2309   */\n      swap2\n      pop\n        /* \"#utility.yul\":2037:2315   */\n      pop\n        /* \"#utility.yul\":1975:2315   */\n      swap3\n      swap2\n      pop\n      pop\n      jump\t// out\n        /* \"#utility.yul\":2321:2460   */\n    tag_271:\n        /* \"#utility.yul\":2367:2372   */\n      0x00\n        /* \"#utility.yul\":2405:2411   */\n      dup2\n        /* \"#utility.yul\":2392:2412   */\n      calldataload\n        /* \"#utility.yul\":2383:2412   */\n      swap1\n      pop\n        /* \"#utility.yul\":2421:2454   */\n      tag_273\n        /* \"#utility.yul\":2448:2453   */\n      dup2\n        /* \"#utility.yul\":2421:2454   */\n      tag_274\n      jump\t// in\n    tag_273:\n        /* \"#utility.yul\":2321:2460   */\n      swap3\n      swap2\n      pop\n      pop\n      jump\t// out\n        /* \"#utility.yul\":2466:2795   */\n    tag_31:\n        /* \"#utility.yul\":2525:2531   */\n      0x00\n        /* \"#utility.yul\":2574:2576   */\n      0x20\n        /* \"#utility.yul\":2562:2571   */\n      dup3\n        /* \"#utility.yul\":2553:2560   */\n      dup5\n        /* \"#utility.yul\":2549:2572   */\n      sub\n        /* \"#utility.yul\":2545:2577   */\n      slt\n        /* \"#utility.yul\":2542:2661   */\n      iszero\n      tag_276\n      jumpi\n        /* \"#utility.yul\":2580:2659   */\n      tag_277\n      tag_278\n      jump\t// in\n    tag_277:\n        /* \"#utility.yul\":2542:2661   */\n    tag_276:\n        /* \"#utility.yul\":2700:2701   */\n      0x00\n        /* \"#utility.yul\":2725:2778   */\n      tag_279\n        /* \"#utility.yul\":2770:2777   */\n      dup5\n        /* \"#utility.yul\":2761:2767   */\n      dup3\n        /* \"#utility.yul\":2750:2759   */\n      dup6\n        /* \"#utility.yul\":2746:2768   */\n      add\n        /* \"#utility.yul\":2725:2778   */\n      tag_258\n      jump\t// in\n    tag_279:\n        /* \"#utility.yul\":2715:2778   */\n      swap2\n      pop\n        /* \"#utility.yul\":2671:2788   */\n      pop\n        /* \"#utility.yul\":2466:2795   */\n      swap3\n      swap2\n      pop\n      pop\n      jump\t// out\n        /* \"#utility.yul\":2801:4110   */\n    tag_15:\n        /* \"#utility.yul\":2983:2989   */\n      0x00\n        /* \"#utility.yul\":2991:2997   */\n      dup1\n        /* \"#utility.yul\":2999:3005   */\n      0x00\n        /* \"#utility.yul\":3048:3050   */\n      0x60\n        /* \"#utility.yul\":3036:3045   */\n      dup5\n        /* \"#utility.yul\":3027:3034   */\n      dup7\n        /* \"#utility.yul\":3023:3046   */\n      sub\n        /* \"#utility.yul\":3019:3051   */\n      slt\n        /* \"#utility.yul\":3016:3135   */\n      iszero\n      tag_281\n      jumpi\n        /* \"#utility.yul\":3054:3133   */\n      tag_282\n      tag_278\n      jump\t// in\n    tag_282:\n        /* \"#utility.yul\":3016:3135   */\n    tag_281:\n        /* \"#utility.yul\":3202:3203   */\n      0x00\n        /* \"#utility.yul\":3191:3200   */\n      dup5\n        /* \"#utility.yul\":3187:3204   */\n      add\n        /* \"#utility.yul\":3174:3205   */\n      calldataload\n        /* \"#utility.yul\":3232:3250   */\n      0xffffffffffffffff\n        /* \"#utility.yul\":3224:3230   */\n      dup2\n        /* \"#utility.yul\":3221:3251   */\n      gt\n        /* \"#utility.yul\":3218:3335   */\n      iszero\n      tag_283\n      jumpi\n        /* \"#utility.yul\":3254:3333   */\n      tag_284\n      tag_285\n      jump\t// in\n    tag_284:\n        /* \"#utility.yul\":3218:3335   */\n    tag_283:\n        /* \"#utility.yul\":3359:3447   */\n      tag_286\n        /* \"#utility.yul\":3439:3446   */\n      dup7\n        /* \"#utility.yul\":3430:3436   */\n      dup3\n        /* \"#utility.yul\":3419:3428   */\n      dup8\n        /* \"#utility.yul\":3415:3437   */\n      add\n        /* \"#utility.yul\":3359:3447   */\n      tag_262\n      jump\t// in\n    tag_286:\n        /* \"#utility.yul\":3349:3447   */\n      swap4\n      pop\n        /* \"#utility.yul\":3145:3457   */\n      pop\n        /* \"#utility.yul\":3524:3526   */\n      0x20\n        /* \"#utility.yul\":3513:3522   */\n      dup5\n        /* \"#utility.yul\":3509:3527   */\n      add\n        /* \"#utility.yul\":3496:3528   */\n      calldataload\n        /* \"#utility.yul\":3555:3573   */\n      0xffffffffffffffff\n        /* \"#utility.yul\":3547:3553   */\n      dup2\n        /* \"#utility.yul\":3544:3574   */\n      gt\n        /* \"#utility.yul\":3541:3658   */\n      iszero\n      tag_287\n      jumpi\n        /* \"#utility.yul\":3577:3656   */\n      tag_288\n      tag_285\n      jump\t// in\n    tag_288:\n        /* \"#utility.yul\":3541:3658   */\n    tag_287:\n        /* \"#utility.yul\":3682:3770   */\n      tag_289\n        /* \"#utility.yul\":3762:3769   */\n      dup7\n        /* \"#utility.yul\":3753:3759   */\n      dup3\n        /* \"#utility.yul\":3742:3751   */\n      dup8\n        /* \"#utility.yul\":3738:3760   */\n      add\n        /* \"#utility.yul\":3682:3770   */\n      tag_262\n      jump\t// in\n    tag_289:\n        /* \"#utility.yul\":3672:3770   */\n      swap3\n      pop\n        /* \"#utility.yul\":3467:3780   */\n      pop\n        /* \"#utility.yul\":3847:3849   */\n      0x40\n        /* \"#utility.yul\":3836:3845   */\n      dup5\n        /* \"#utility.yul\":3832:3850   */\n      add\n        /* \"#utility.yul\":3819:3851   */\n      calldataload\n        /* \"#utility.yul\":3878:3896   */\n      0xffffffffffffffff\n        /* \"#utility.yul\":3870:3876   */\n      dup2\n        /* \"#utility.yul\":3867:3897   */\n      gt\n        /* \"#utility.yul\":3864:3981   */\n      iszero\n      tag_290\n      jumpi\n        /* \"#utility.yul\":3900:3979   */\n      tag_291\n      tag_285\n      jump\t// in\n    tag_291:\n        /* \"#utility.yul\":3864:3981   */\n    tag_290:\n        /* \"#utility.yul\":4005:4093   */\n      tag_292\n        /* \"#utility.yul\":4085:4092   */\n      dup7\n        /* \"#utility.yul\":4076:4082   */\n      dup3\n        /* \"#utility.yul\":4065:4074   */\n      dup8\n        /* \"#utility.yul\":4061:4083   */\n      add\n        /* \"#utility.yul\":4005:4093   */\n      tag_262\n      jump\t// in\n    tag_292:\n        /* \"#utility.yul\":3995:4093   */\n      swap2\n      pop\n        /* \"#utility.yul\":3790:4103   */\n      pop\n        /* \"#utility.yul\":2801:4110   */\n      swap3\n      pop\n      swap3\n      pop\n      swap3\n      jump\t// out\n        /* \"#utility.yul\":4116:5275   */\n    tag_37:\n        /* \"#utility.yul\":4223:4229   */\n      0x00\n        /* \"#utility.yul\":4231:4237   */\n      dup1\n        /* \"#utility.yul\":4239:4245   */\n      0x00\n        /* \"#utility.yul\":4288:4290   */\n      0x60\n        /* \"#utility.yul\":4276:4285   */\n      dup5\n        /* \"#utility.yul\":4267:4274   */\n      dup7\n        /* \"#utility.yul\":4263:4286   */\n      sub\n        /* \"#utility.yul\":4259:4291   */\n      slt\n        /* \"#utility.yul\":4256:4375   */\n      iszero\n      tag_294\n      jumpi\n        /* \"#utility.yul\":4294:4373   */\n      tag_295\n      tag_278\n      jump\t// in\n    tag_295:\n        /* \"#utility.yul\":4256:4375   */\n    tag_294:\n        /* \"#utility.yul\":4442:4443   */\n      0x00\n        /* \"#utility.yul\":4431:4440   */\n      dup5\n        /* \"#utility.yul\":4427:4444   */\n      add\n        /* \"#utility.yul\":4414:4445   */\n      calldataload\n        /* \"#utility.yul\":4472:4490   */\n      0xffffffffffffffff\n        /* \"#utility.yul\":4464:4470   */\n      dup2\n        /* \"#utility.yul\":4461:4491   */\n      gt\n        /* \"#utility.yul\":4458:4575   */\n      iszero\n      tag_296\n      jumpi\n        /* \"#utility.yul\":4494:4573   */\n      tag_297\n      tag_285\n      jump\t// in\n    tag_297:\n        /* \"#utility.yul\":4458:4575   */\n    tag_296:\n        /* \"#utility.yul\":4599:4662   */\n      tag_298\n        /* \"#utility.yul\":4654:4661   */\n      dup7\n        /* \"#utility.yul\":4645:4651   */\n      dup3\n        /* \"#utility.yul\":4634:4643   */\n      dup8\n        /* \"#utility.yul\":4630:4652   */\n      add\n        /* \"#utility.yul\":4599:4662   */\n      tag_247\n      jump\t// in\n    tag_298:\n        /* \"#utility.yul\":4589:4662   */\n      swap4\n      pop\n        /* \"#utility.yul\":4385:4672   */\n      pop\n        /* \"#utility.yul\":4739:4741   */\n      0x20\n        /* \"#utility.yul\":4728:4737   */\n      dup5\n        /* \"#utility.yul\":4724:4742   */\n      add\n        /* \"#utility.yul\":4711:4743   */\n      calldataload\n        /* \"#utility.yul\":4770:4788   */\n      0xffffffffffffffff\n        /* \"#utility.yul\":4762:4768   */\n      dup2\n        /* \"#utility.yul\":4759:4789   */\n      gt\n        /* \"#utility.yul\":4756:4873   */\n      iszero\n      tag_299\n      jumpi\n        /* \"#utility.yul\":4792:4871   */\n      tag_300\n      tag_285\n      jump\t// in\n    tag_300:\n        /* \"#utility.yul\":4756:4873   */\n    tag_299:\n        /* \"#utility.yul\":4897:4960   */\n      tag_301\n        /* \"#utility.yul\":4952:4959   */\n      dup7\n        /* \"#utility.yul\":4943:4949   */\n      dup3\n        /* \"#utility.yul\":4932:4941   */\n      dup8\n        /* \"#utility.yul\":4928:4950   */\n      add\n        /* \"#utility.yul\":4897:4960   */\n      tag_247\n      jump\t// in\n    tag_301:\n        /* \"#utility.yul\":4887:4960   */\n      swap3\n      pop\n        /* \"#utility.yul\":4682:4970   */\n      pop\n        /* \"#utility.yul\":5037:5039   */\n      0x40\n        /* \"#utility.yul\":5026:5035   */\n      dup5\n        /* \"#utility.yul\":5022:5040   */\n      add\n        /* \"#utility.yul\":5009:5041   */\n      calldataload\n        /* \"#utility.yul\":5068:5086   */\n      0xffffffffffffffff\n        /* \"#utility.yul\":5060:5066   */\n      dup2\n        /* \"#utility.yul\":5057:5087   */\n      gt\n        /* \"#utility.yul\":5054:5171   */\n      iszero\n      tag_302\n      jumpi\n        /* \"#utility.yul\":5090:5169   */\n      tag_303\n      tag_285\n      jump\t// in\n    tag_303:\n        /* \"#utility.yul\":5054:5171   */\n    tag_302:\n        /* \"#utility.yul\":5195:5258   */\n      tag_304\n        /* \"#utility.yul\":5250:5257   */\n      dup7\n        /* \"#utility.yul\":5241:5247   */\n      dup3\n        /* \"#utility.yul\":5230:5239   */\n      dup8\n        /* \"#utility.yul\":5226:5248   */\n      add\n        /* \"#utility.yul\":5195:5258   */\n      tag_247\n      jump\t// in\n    tag_304:\n        /* \"#utility.yul\":5185:5258   */\n      swap2\n      pop\n        /* \"#utility.yul\":4980:5268   */\n      pop\n        /* \"#utility.yul\":4116:5275   */\n      swap3\n      pop\n      swap3\n      pop\n      swap3\n      jump\t// out\n        /* \"#utility.yul\":5281:6766   */\n    tag_27:\n        /* \"#utility.yul\":5407:5413   */\n      0x00\n        /* \"#utility.yul\":5415:5421   */\n      dup1\n        /* \"#utility.yul\":5423:5429   */\n      0x00\n        /* \"#utility.yul\":5431:5437   */\n      dup1\n        /* \"#utility.yul\":5480:5483   */\n      0x80\n        /* \"#utility.yul\":5468:5477   */\n      dup6\n        /* \"#utility.yul\":5459:5466   */\n      dup8\n        /* \"#utility.yul\":5455:5478   */\n      sub\n        /* \"#utility.yul\":5451:5484   */\n      slt\n        /* \"#utility.yul\":5448:5568   */\n      iszero\n      tag_306\n      jumpi\n        /* \"#utility.yul\":5487:5566   */\n      tag_307\n      tag_278\n      jump\t// in\n    tag_307:\n        /* \"#utility.yul\":5448:5568   */\n    tag_306:\n        /* \"#utility.yul\":5635:5636   */\n      0x00\n        /* \"#utility.yul\":5624:5633   */\n      dup6\n        /* \"#utility.yul\":5620:5637   */\n      add\n        /* \"#utility.yul\":5607:5638   */\n      calldataload\n        /* \"#utility.yul\":5665:5683   */\n      0xffffffffffffffff\n        /* \"#utility.yul\":5657:5663   */\n      dup2\n        /* \"#utility.yul\":5654:5684   */\n      gt\n        /* \"#utility.yul\":5651:5768   */\n      iszero\n      tag_308\n      jumpi\n        /* \"#utility.yul\":5687:5766   */\n      tag_309\n      tag_285\n      jump\t// in\n    tag_309:\n        /* \"#utility.yul\":5651:5768   */\n    tag_308:\n        /* \"#utility.yul\":5792:5855   */\n      tag_310\n        /* \"#utility.yul\":5847:5854   */\n      dup8\n        /* \"#utility.yul\":5838:5844   */\n      dup3\n        /* \"#utility.yul\":5827:5836   */\n      dup9\n        /* \"#utility.yul\":5823:5845   */\n      add\n        /* \"#utility.yul\":5792:5855   */\n      tag_247\n      jump\t// in\n    tag_310:\n        /* \"#utility.yul\":5782:5855   */\n      swap5\n      pop\n        /* \"#utility.yul\":5578:5865   */\n      pop\n        /* \"#utility.yul\":5932:5934   */\n      0x20\n        /* \"#utility.yul\":5921:5930   */\n      dup6\n        /* \"#utility.yul\":5917:5935   */\n      add\n        /* \"#utility.yul\":5904:5936   */\n      calldataload\n        /* \"#utility.yul\":5963:5981   */\n      0xffffffffffffffff\n        /* \"#utility.yul\":5955:5961   */\n      dup2\n        /* \"#utility.yul\":5952:5982   */\n      gt\n        /* \"#utility.yul\":5949:6066   */\n      iszero\n      tag_311\n      jumpi\n        /* \"#utility.yul\":5985:6064   */\n      tag_312\n      tag_285\n      jump\t// in\n    tag_312:\n        /* \"#utility.yul\":5949:6066   */\n    tag_311:\n        /* \"#utility.yul\":6090:6153   */\n      tag_313\n        /* \"#utility.yul\":6145:6152   */\n      dup8\n        /* \"#utility.yul\":6136:6142   */\n      dup3\n        /* \"#utility.yul\":6125:6134   */\n      dup9\n        /* \"#utility.yul\":6121:6143   */\n      add\n        /* \"#utility.yul\":6090:6153   */\n      tag_247\n      jump\t// in\n    tag_313:\n        /* \"#utility.yul\":6080:6153   */\n      swap4\n      pop\n        /* \"#utility.yul\":5875:6163   */\n      pop\n        /* \"#utility.yul\":6230:6232   */\n      0x40\n        /* \"#utility.yul\":6219:6228   */\n      dup6\n        /* \"#utility.yul\":6215:6233   */\n      add\n        /* \"#utility.yul\":6202:6234   */\n      calldataload\n        /* \"#utility.yul\":6261:6279   */\n      0xffffffffffffffff\n        /* \"#utility.yul\":6253:6259   */\n      dup2\n        /* \"#utility.yul\":6250:6280   */\n      gt\n        /* \"#utility.yul\":6247:6364   */\n      iszero\n      tag_314\n      jumpi\n        /* \"#utility.yul\":6283:6362   */\n      tag_315\n      tag_285\n      jump\t// in\n    tag_315:\n        /* \"#utility.yul\":6247:6364   */\n    tag_314:\n        /* \"#utility.yul\":6388:6451   */\n      tag_316\n        /* \"#utility.yul\":6443:6450   */\n      dup8\n        /* \"#utility.yul\":6434:6440   */\n      dup3\n        /* \"#utility.yul\":6423:6432   */\n      dup9\n        /* \"#utility.yul\":6419:6441   */\n      add\n        /* \"#utility.yul\":6388:6451   */\n      tag_247\n      jump\t// in\n    tag_316:\n        /* \"#utility.yul\":6378:6451   */\n      swap3\n      pop\n        /* \"#utility.yul\":6173:6461   */\n      pop\n        /* \"#utility.yul\":6528:6530   */\n      0x60\n        /* \"#utility.yul\":6517:6526   */\n      dup6\n        /* \"#utility.yul\":6513:6531   */\n      add\n        /* \"#utility.yul\":6500:6532   */\n      calldataload\n        /* \"#utility.yul\":6559:6577   */\n      0xffffffffffffffff\n        /* \"#utility.yul\":6551:6557   */\n      dup2\n        /* \"#utility.yul\":6548:6578   */\n      gt\n        /* \"#utility.yul\":6545:6662   */\n      iszero\n      tag_317\n      jumpi\n        /* \"#utility.yul\":6581:6660   */\n      tag_318\n      tag_285\n      jump\t// in\n    tag_318:\n        /* \"#utility.yul\":6545:6662   */\n    tag_317:\n        /* \"#utility.yul\":6686:6749   */\n      tag_319\n        /* \"#utility.yul\":6741:6748   */\n      dup8\n        /* \"#utility.yul\":6732:6738   */\n      dup3\n        /* \"#utility.yul\":6721:6730   */\n      dup9\n        /* \"#utility.yul\":6717:6739   */\n      add\n        /* \"#utility.yul\":6686:6749   */\n      tag_247\n      jump\t// in\n    tag_319:\n        /* \"#utility.yul\":6676:6749   */\n      swap2\n      pop\n        /* \"#utility.yul\":6471:6759   */\n      pop\n        /* \"#utility.yul\":5281:6766   */\n      swap3\n      swap6\n      swap2\n      swap5\n      pop\n      swap3\n      pop\n      jump\t// out\n        /* \"#utility.yul\":6772:8583   */\n    tag_23:\n        /* \"#utility.yul\":6917:6923   */\n      0x00\n        /* \"#utility.yul\":6925:6931   */\n      dup1\n        /* \"#utility.yul\":6933:6939   */\n      0x00\n        /* \"#utility.yul\":6941:6947   */\n      dup1\n        /* \"#utility.yul\":6949:6955   */\n      0x00\n        /* \"#utility.yul\":6998:7001   */\n      0xa0\n        /* \"#utility.yul\":6986:6995   */\n      dup7\n        /* \"#utility.yul\":6977:6984   */\n      dup9\n        /* \"#utility.yul\":6973:6996   */\n      sub\n        /* \"#utility.yul\":6969:7002   */\n      slt\n        /* \"#utility.yul\":6966:7086   */\n      iszero\n      tag_321\n      jumpi\n        /* \"#utility.yul\":7005:7084   */\n      tag_322\n      tag_278\n      jump\t// in\n    tag_322:\n        /* \"#utility.yul\":6966:7086   */\n    tag_321:\n        /* \"#utility.yul\":7153:7154   */\n      0x00\n        /* \"#utility.yul\":7142:7151   */\n      dup7\n        /* \"#utility.yul\":7138:7155   */\n      add\n        /* \"#utility.yul\":7125:7156   */\n      calldataload\n        /* \"#utility.yul\":7183:7201   */\n      0xffffffffffffffff\n        /* \"#utility.yul\":7175:7181   */\n      dup2\n        /* \"#utility.yul\":7172:7202   */\n      gt\n        /* \"#utility.yul\":7169:7286   */\n      iszero\n      tag_323\n      jumpi\n        /* \"#utility.yul\":7205:7284   */\n      tag_324\n      tag_285\n      jump\t// in\n    tag_324:\n        /* \"#utility.yul\":7169:7286   */\n    tag_323:\n        /* \"#utility.yul\":7310:7373   */\n      tag_325\n        /* \"#utility.yul\":7365:7372   */\n      dup9\n        /* \"#utility.yul\":7356:7362   */\n      dup3\n        /* \"#utility.yul\":7345:7354   */\n      dup10\n        /* \"#utility.yul\":7341:7363   */\n      add\n        /* \"#utility.yul\":7310:7373   */\n      tag_247\n      jump\t// in\n    tag_325:\n        /* \"#utility.yul\":7300:7373   */\n      swap6\n      pop\n        /* \"#utility.yul\":7096:7383   */\n      pop\n        /* \"#utility.yul\":7450:7452   */\n      0x20\n        /* \"#utility.yul\":7439:7448   */\n      dup7\n        /* \"#utility.yul\":7435:7453   */\n      add\n        /* \"#utility.yul\":7422:7454   */\n      calldataload\n        /* \"#utility.yul\":7481:7499   */\n      0xffffffffffffffff\n        /* \"#utility.yul\":7473:7479   */\n      dup2\n        /* \"#utility.yul\":7470:7500   */\n      gt\n        /* \"#utility.yul\":7467:7584   */\n      iszero\n      tag_326\n      jumpi\n        /* \"#utility.yul\":7503:7582   */\n      tag_327\n      tag_285\n      jump\t// in\n    tag_327:\n        /* \"#utility.yul\":7467:7584   */\n    tag_326:\n        /* \"#utility.yul\":7608:7671   */\n      tag_328\n        /* \"#utility.yul\":7663:7670   */\n      dup9\n        /* \"#utility.yul\":7654:7660   */\n      dup3\n        /* \"#utility.yul\":7643:7652   */\n      dup10\n        /* \"#utility.yul\":7639:7661   */\n      add\n        /* \"#utility.yul\":7608:7671   */\n      tag_247\n      jump\t// in\n    tag_328:\n        /* \"#utility.yul\":7598:7671   */\n      swap5\n      pop\n        /* \"#utility.yul\":7393:7681   */\n      pop\n        /* \"#utility.yul\":7748:7750   */\n      0x40\n        /* \"#utility.yul\":7737:7746   */\n      dup7\n        /* \"#utility.yul\":7733:7751   */\n      add\n        /* \"#utility.yul\":7720:7752   */\n      calldataload\n        /* \"#utility.yul\":7779:7797   */\n      0xffffffffffffffff\n        /* \"#utility.yul\":7771:7777   */\n      dup2\n        /* \"#utility.yul\":7768:7798   */\n      gt\n        /* \"#utility.yul\":7765:7882   */\n      iszero\n      tag_329\n      jumpi\n        /* \"#utility.yul\":7801:7880   */\n      tag_330\n      tag_285\n      jump\t// in\n    tag_330:\n        /* \"#utility.yul\":7765:7882   */\n    tag_329:\n        /* \"#utility.yul\":7906:7969   */\n      tag_331\n        /* \"#utility.yul\":7961:7968   */\n      dup9\n        /* \"#utility.yul\":7952:7958   */\n      dup3\n        /* \"#utility.yul\":7941:7950   */\n      dup10\n        /* \"#utility.yul\":7937:7959   */\n      add\n        /* \"#utility.yul\":7906:7969   */\n      tag_247\n      jump\t// in\n    tag_331:\n        /* \"#utility.yul\":7896:7969   */\n      swap4\n      pop\n        /* \"#utility.yul\":7691:7979   */\n      pop\n        /* \"#utility.yul\":8046:8048   */\n      0x60\n        /* \"#utility.yul\":8035:8044   */\n      dup7\n        /* \"#utility.yul\":8031:8049   */\n      add\n        /* \"#utility.yul\":8018:8050   */\n      calldataload\n        /* \"#utility.yul\":8077:8095   */\n      0xffffffffffffffff\n        /* \"#utility.yul\":8069:8075   */\n      dup2\n        /* \"#utility.yul\":8066:8096   */\n      gt\n        /* \"#utility.yul\":8063:8180   */\n      iszero\n      tag_332\n      jumpi\n        /* \"#utility.yul\":8099:8178   */\n      tag_333\n      tag_285\n      jump\t// in\n    tag_333:\n        /* \"#utility.yul\":8063:8180   */\n    tag_332:\n        /* \"#utility.yul\":8204:8267   */\n      tag_334\n        /* \"#utility.yul\":8259:8266   */\n      dup9\n        /* \"#utility.yul\":8250:8256   */\n      dup3\n        /* \"#utility.yul\":8239:8248   */\n      dup10\n        /* \"#utility.yul\":8235:8257   */\n      add\n        /* \"#utility.yul\":8204:8267   */\n      tag_247\n      jump\t// in\n    tag_334:\n        /* \"#utility.yul\":8194:8267   */\n      swap3\n      pop\n        /* \"#utility.yul\":7989:8277   */\n      pop\n        /* \"#utility.yul\":8344:8347   */\n      0x80\n        /* \"#utility.yul\":8333:8342   */\n      dup7\n        /* \"#utility.yul\":8329:8348   */\n      add\n        /* \"#utility.yul\":8316:8349   */\n      calldataload\n        /* \"#utility.yul\":8376:8394   */\n      0xffffffffffffffff\n        /* \"#utility.yul\":8368:8374   */\n      dup2\n        /* \"#utility.yul\":8365:8395   */\n      gt\n        /* \"#utility.yul\":8362:8479   */\n      iszero\n      tag_335\n      jumpi\n        /* \"#utility.yul\":8398:8477   */\n      tag_336\n      tag_285\n      jump\t// in\n    tag_336:\n        /* \"#utility.yul\":8362:8479   */\n    tag_335:\n        /* \"#utility.yul\":8503:8566   */\n      tag_337\n        /* \"#utility.yul\":8558:8565   */\n      dup9\n        /* \"#utility.yul\":8549:8555   */\n      dup3\n        /* \"#utility.yul\":8538:8547   */\n      dup10\n        /* \"#utility.yul\":8534:8556   */\n      add\n        /* \"#utility.yul\":8503:8566   */\n      tag_247\n      jump\t// in\n    tag_337:\n        /* \"#utility.yul\":8493:8566   */\n      swap2\n      pop\n        /* \"#utility.yul\":8287:8576   */\n      pop\n        /* \"#utility.yul\":6772:8583   */\n      swap3\n      swap6\n      pop\n      swap3\n      swap6\n      swap1\n      swap4\n      pop\n      jump\t// out\n        /* \"#utility.yul\":8589:8918   */\n    tag_43:\n        /* \"#utility.yul\":8648:8654   */\n      0x00\n        /* \"#utility.yul\":8697:8699   */\n      0x20\n        /* \"#utility.yul\":8685:8694   */\n      dup3\n        /* \"#utility.yul\":8676:8683   */\n      dup5\n        /* \"#utility.yul\":8672:8695   */\n      sub\n        /* \"#utility.yul\":8668:8700   */\n      slt\n        /* \"#utility.yul\":8665:8784   */\n      iszero\n      tag_339\n      jumpi\n        /* \"#utility.yul\":8703:8782   */\n      tag_340\n      tag_278\n      jump\t// in\n    tag_340:\n        /* \"#utility.yul\":8665:8784   */\n    tag_339:\n        /* \"#utility.yul\":8823:8824   */\n      0x00\n        /* \"#utility.yul\":8848:8901   */\n      tag_341\n        /* \"#utility.yul\":8893:8900   */\n      dup5\n        /* \"#utility.yul\":8884:8890   */\n      dup3\n        /* \"#utility.yul\":8873:8882   */\n      dup6\n        /* \"#utility.yul\":8869:8891   */\n      add\n        /* \"#utility.yul\":8848:8901   */\n      tag_271\n      jump\t// in\n    tag_341:\n        /* \"#utility.yul\":8838:8901   */\n      swap2\n      pop\n        /* \"#utility.yul\":8794:8911   */\n      pop\n        /* \"#utility.yul\":8589:8918   */\n      swap3\n      swap2\n      pop\n      pop\n      jump\t// out\n        /* \"#utility.yul\":8924:9120   */\n    tag_342:\n        /* \"#utility.yul\":9013:9023   */\n      0x00\n        /* \"#utility.yul\":9048:9114   */\n      tag_344\n        /* \"#utility.yul\":9110:9113   */\n      dup4\n        /* \"#utility.yul\":9102:9108   */\n      dup4\n        /* \"#utility.yul\":9048:9114   */\n      tag_345\n      jump\t// in\n    tag_344:\n        /* \"#utility.yul\":9034:9114   */\n      swap1\n      pop\n        /* \"#utility.yul\":8924:9120   */\n      swap3\n      swap2\n      pop\n      pop\n      jump\t// out\n        /* \"#utility.yul\":9126:9244   */\n    tag_346:\n        /* \"#utility.yul\":9213:9237   */\n      tag_348\n        /* \"#utility.yul\":9231:9236   */\n      dup2\n        /* \"#utility.yul\":9213:9237   */\n      tag_349\n      jump\t// in\n    tag_348:\n        /* \"#utility.yul\":9208:9211   */\n      dup3\n        /* \"#utility.yul\":9201:9238   */\n      mstore\n        /* \"#utility.yul\":9126:9244   */\n      pop\n      pop\n      jump\t// out\n        /* \"#utility.yul\":9278:10249   */\n    tag_350:\n        /* \"#utility.yul\":9407:9410   */\n      0x00\n        /* \"#utility.yul\":9436:9500   */\n      tag_352\n        /* \"#utility.yul\":9494:9499   */\n      dup3\n        /* \"#utility.yul\":9436:9500   */\n      tag_353\n      jump\t// in\n    tag_352:\n        /* \"#utility.yul\":9516:9602   */\n      tag_354\n        /* \"#utility.yul\":9595:9601   */\n      dup2\n        /* \"#utility.yul\":9590:9593   */\n      dup6\n        /* \"#utility.yul\":9516:9602   */\n      tag_355\n      jump\t// in\n    tag_354:\n        /* \"#utility.yul\":9509:9602   */\n      swap4\n      pop\n        /* \"#utility.yul\":9628:9631   */\n      dup4\n        /* \"#utility.yul\":9673:9677   */\n      0x20\n        /* \"#utility.yul\":9665:9671   */\n      dup3\n        /* \"#utility.yul\":9661:9678   */\n      mul\n        /* \"#utility.yul\":9656:9659   */\n      dup6\n        /* \"#utility.yul\":9652:9679   */\n      add\n        /* \"#utility.yul\":9703:9769   */\n      tag_356\n        /* \"#utility.yul\":9763:9768   */\n      dup6\n        /* \"#utility.yul\":9703:9769   */\n      tag_357\n      jump\t// in\n    tag_356:\n        /* \"#utility.yul\":9792:9799   */\n      dup1\n        /* \"#utility.yul\":9823:9824   */\n      0x00\n        /* \"#utility.yul\":9808:10204   */\n    tag_358:\n        /* \"#utility.yul\":9833:9839   */\n      dup6\n        /* \"#utility.yul\":9830:9831   */\n      dup2\n        /* \"#utility.yul\":9827:9840   */\n      lt\n        /* \"#utility.yul\":9808:10204   */\n      iszero\n      tag_360\n      jumpi\n        /* \"#utility.yul\":9904:9913   */\n      dup5\n        /* \"#utility.yul\":9898:9902   */\n      dup5\n        /* \"#utility.yul\":9894:9914   */\n      sub\n        /* \"#utility.yul\":9889:9892   */\n      dup10\n        /* \"#utility.yul\":9882:9915   */\n      mstore\n        /* \"#utility.yul\":9955:9961   */\n      dup2\n        /* \"#utility.yul\":9949:9962   */\n      mload\n        /* \"#utility.yul\":9983:10067   */\n      tag_361\n        /* \"#utility.yul\":10062:10066   */\n      dup6\n        /* \"#utility.yul\":10047:10060   */\n      dup3\n        /* \"#utility.yul\":9983:10067   */\n      tag_342\n      jump\t// in\n    tag_361:\n        /* \"#utility.yul\":9975:10067   */\n      swap5\n      pop\n        /* \"#utility.yul\":10090:10160   */\n      tag_362\n        /* \"#utility.yul\":10153:10159   */\n      dup4\n        /* \"#utility.yul\":10090:10160   */\n      tag_363\n      jump\t// in\n    tag_362:\n        /* \"#utility.yul\":10080:10160   */\n      swap3\n      pop\n        /* \"#utility.yul\":10189:10193   */\n      0x20\n        /* \"#utility.yul\":10184:10187   */\n      dup11\n        /* \"#utility.yul\":10180:10194   */\n      add\n        /* \"#utility.yul\":10173:10194   */\n      swap10\n      pop\n        /* \"#utility.yul\":9868:10204   */\n      pop\n        /* \"#utility.yul\":9855:9856   */\n      0x01\n        /* \"#utility.yul\":9852:9853   */\n      dup2\n        /* \"#utility.yul\":9848:9857   */\n      add\n        /* \"#utility.yul\":9843:9857   */\n      swap1\n      pop\n        /* \"#utility.yul\":9808:10204   */\n      jump(tag_358)\n    tag_360:\n        /* \"#utility.yul\":9812:9826   */\n      pop\n        /* \"#utility.yul\":10220:10224   */\n      dup3\n        /* \"#utility.yul\":10213:10224   */\n      swap8\n      pop\n        /* \"#utility.yul\":10240:10243   */\n      dup8\n        /* \"#utility.yul\":10233:10243   */\n      swap6\n      pop\n        /* \"#utility.yul\":9412:10249   */\n      pop\n      pop\n      pop\n      pop\n      pop\n        /* \"#utility.yul\":9278:10249   */\n      swap3\n      swap2\n      pop\n      pop\n      jump\t// out\n        /* \"#utility.yul\":10255:10599   */\n    tag_345:\n        /* \"#utility.yul\":10333:10336   */\n      0x00\n        /* \"#utility.yul\":10361:10400   */\n      tag_365\n        /* \"#utility.yul\":10394:10399   */\n      dup3\n        /* \"#utility.yul\":10361:10400   */\n      tag_366\n      jump\t// in\n    tag_365:\n        /* \"#utility.yul\":10416:10477   */\n      tag_367\n        /* \"#utility.yul\":10470:10476   */\n      dup2\n        /* \"#utility.yul\":10465:10468   */\n      dup6\n        /* \"#utility.yul\":10416:10477   */\n      tag_368\n      jump\t// in\n    tag_367:\n        /* \"#utility.yul\":10409:10477   */\n      swap4\n      pop\n        /* \"#utility.yul\":10486:10538   */\n      tag_369\n        /* \"#utility.yul\":10531:10537   */\n      dup2\n        /* \"#utility.yul\":10526:10529   */\n      dup6\n        /* \"#utility.yul\":10519:10523   */\n      0x20\n        /* \"#utility.yul\":10512:10517   */\n      dup7\n        /* \"#utility.yul\":10508:10524   */\n      add\n        /* \"#utility.yul\":10486:10538   */\n      tag_370\n      jump\t// in\n    tag_369:\n        /* \"#utility.yul\":10563:10592   */\n      tag_371\n        /* \"#utility.yul\":10585:10591   */\n      dup2\n        /* \"#utility.yul\":10563:10592   */\n      tag_372\n      jump\t// in\n    tag_371:\n        /* \"#utility.yul\":10558:10561   */\n      dup5\n        /* \"#utility.yul\":10554:10593   */\n      add\n        /* \"#utility.yul\":10547:10593   */\n      swap2\n      pop\n        /* \"#utility.yul\":10337:10599   */\n      pop\n        /* \"#utility.yul\":10255:10599   */\n      swap3\n      swap2\n      pop\n      pop\n      jump\t// out\n        /* \"#utility.yul\":10605:10969   */\n    tag_373:\n        /* \"#utility.yul\":10693:10696   */\n      0x00\n        /* \"#utility.yul\":10721:10760   */\n      tag_375\n        /* \"#utility.yul\":10754:10759   */\n      dup3\n        /* \"#utility.yul\":10721:10760   */\n      tag_366\n      jump\t// in\n    tag_375:\n        /* \"#utility.yul\":10776:10847   */\n      tag_376\n        /* \"#utility.yul\":10840:10846   */\n      dup2\n        /* \"#utility.yul\":10835:10838   */\n      dup6\n        /* \"#utility.yul\":10776:10847   */\n      tag_377\n      jump\t// in\n    tag_376:\n        /* \"#utility.yul\":10769:10847   */\n      swap4\n      pop\n        /* \"#utility.yul\":10856:10908   */\n      tag_378\n        /* \"#utility.yul\":10901:10907   */\n      dup2\n        /* \"#utility.yul\":10896:10899   */\n      dup6\n        /* \"#utility.yul\":10889:10893   */\n      0x20\n        /* \"#utility.yul\":10882:10887   */\n      dup7\n        /* \"#utility.yul\":10878:10894   */\n      add\n        /* \"#utility.yul\":10856:10908   */\n      tag_370\n      jump\t// in\n    tag_378:\n        /* \"#utility.yul\":10933:10962   */\n      tag_379\n        /* \"#utility.yul\":10955:10961   */\n      dup2\n        /* \"#utility.yul\":10933:10962   */\n      tag_372\n      jump\t// in\n    tag_379:\n        /* \"#utility.yul\":10928:10931   */\n      dup5\n        /* \"#utility.yul\":10924:10963   */\n      add\n        /* \"#utility.yul\":10917:10963   */\n      swap2\n      pop\n        /* \"#utility.yul\":10697:10969   */\n      pop\n        /* \"#utility.yul\":10605:10969   */\n      swap3\n      swap2\n      pop\n      pop\n      jump\t// out\n        /* \"#utility.yul\":11033:12451   */\n    tag_380:\n        /* \"#utility.yul\":11150:11153   */\n      0x00\n        /* \"#utility.yul\":11186:11190   */\n      0xa0\n        /* \"#utility.yul\":11181:11184   */\n      dup4\n        /* \"#utility.yul\":11177:11191   */\n      add\n        /* \"#utility.yul\":11274:11278   */\n      0x00\n        /* \"#utility.yul\":11267:11272   */\n      dup4\n        /* \"#utility.yul\":11263:11279   */\n      add\n        /* \"#utility.yul\":11257:11280   */\n      mload\n        /* \"#utility.yul\":11327:11330   */\n      dup5\n        /* \"#utility.yul\":11321:11325   */\n      dup3\n        /* \"#utility.yul\":11317:11331   */\n      sub\n        /* \"#utility.yul\":11310:11314   */\n      0x00\n        /* \"#utility.yul\":11305:11308   */\n      dup7\n        /* \"#utility.yul\":11301:11315   */\n      add\n        /* \"#utility.yul\":11294:11332   */\n      mstore\n        /* \"#utility.yul\":11353:11426   */\n      tag_382\n        /* \"#utility.yul\":11421:11425   */\n      dup3\n        /* \"#utility.yul\":11407:11419   */\n      dup3\n        /* \"#utility.yul\":11353:11426   */\n      tag_345\n      jump\t// in\n    tag_382:\n        /* \"#utility.yul\":11345:11426   */\n      swap2\n      pop\n        /* \"#utility.yul\":11201:11437   */\n      pop\n        /* \"#utility.yul\":11520:11524   */\n      0x20\n        /* \"#utility.yul\":11513:11518   */\n      dup4\n        /* \"#utility.yul\":11509:11525   */\n      add\n        /* \"#utility.yul\":11503:11526   */\n      mload\n        /* \"#utility.yul\":11573:11576   */\n      dup5\n        /* \"#utility.yul\":11567:11571   */\n      dup3\n        /* \"#utility.yul\":11563:11577   */\n      sub\n        /* \"#utility.yul\":11556:11560   */\n      0x20\n        /* \"#utility.yul\":11551:11554   */\n      dup7\n        /* \"#utility.yul\":11547:11561   */\n      add\n        /* \"#utility.yul\":11540:11578   */\n      mstore\n        /* \"#utility.yul\":11599:11672   */\n      tag_383\n        /* \"#utility.yul\":11667:11671   */\n      dup3\n        /* \"#utility.yul\":11653:11665   */\n      dup3\n        /* \"#utility.yul\":11599:11672   */\n      tag_345\n      jump\t// in\n    tag_383:\n        /* \"#utility.yul\":11591:11672   */\n      swap2\n      pop\n        /* \"#utility.yul\":11447:11683   */\n      pop\n        /* \"#utility.yul\":11767:11771   */\n      0x40\n        /* \"#utility.yul\":11760:11765   */\n      dup4\n        /* \"#utility.yul\":11756:11772   */\n      add\n        /* \"#utility.yul\":11750:11773   */\n      mload\n        /* \"#utility.yul\":11820:11823   */\n      dup5\n        /* \"#utility.yul\":11814:11818   */\n      dup3\n        /* \"#utility.yul\":11810:11824   */\n      sub\n        /* \"#utility.yul\":11803:11807   */\n      0x40\n        /* \"#utility.yul\":11798:11801   */\n      dup7\n        /* \"#utility.yul\":11794:11808   */\n      add\n        /* \"#utility.yul\":11787:11825   */\n      mstore\n        /* \"#utility.yul\":11846:11919   */\n      tag_384\n        /* \"#utility.yul\":11914:11918   */\n      dup3\n        /* \"#utility.yul\":11900:11912   */\n      dup3\n        /* \"#utility.yul\":11846:11919   */\n      tag_345\n      jump\t// in\n    tag_384:\n        /* \"#utility.yul\":11838:11919   */\n      swap2\n      pop\n        /* \"#utility.yul\":11693:11930   */\n      pop\n        /* \"#utility.yul\":12014:12018   */\n      0x60\n        /* \"#utility.yul\":12007:12012   */\n      dup4\n        /* \"#utility.yul\":12003:12019   */\n      add\n        /* \"#utility.yul\":11997:12020   */\n      mload\n        /* \"#utility.yul\":12067:12070   */\n      dup5\n        /* \"#utility.yul\":12061:12065   */\n      dup3\n        /* \"#utility.yul\":12057:12071   */\n      sub\n        /* \"#utility.yul\":12050:12054   */\n      0x60\n        /* \"#utility.yul\":12045:12048   */\n      dup7\n        /* \"#utility.yul\":12041:12055   */\n      add\n        /* \"#utility.yul\":12034:12072   */\n      mstore\n        /* \"#utility.yul\":12093:12166   */\n      tag_385\n        /* \"#utility.yul\":12161:12165   */\n      dup3\n        /* \"#utility.yul\":12147:12159   */\n      dup3\n        /* \"#utility.yul\":12093:12166   */\n      tag_345\n      jump\t// in\n    tag_385:\n        /* \"#utility.yul\":12085:12166   */\n      swap2\n      pop\n        /* \"#utility.yul\":11940:12177   */\n      pop\n        /* \"#utility.yul\":12261:12265   */\n      0x80\n        /* \"#utility.yul\":12254:12259   */\n      dup4\n        /* \"#utility.yul\":12250:12266   */\n      add\n        /* \"#utility.yul\":12244:12267   */\n      mload\n        /* \"#utility.yul\":12314:12317   */\n      dup5\n        /* \"#utility.yul\":12308:12312   */\n      dup3\n        /* \"#utility.yul\":12304:12318   */\n      sub\n        /* \"#utility.yul\":12297:12301   */\n      0x80\n        /* \"#utility.yul\":12292:12295   */\n      dup7\n        /* \"#utility.yul\":12288:12302   */\n      add\n        /* \"#utility.yul\":12281:12319   */\n      mstore\n        /* \"#utility.yul\":12340:12413   */\n      tag_386\n        /* \"#utility.yul\":12408:12412   */\n      dup3\n        /* \"#utility.yul\":12394:12406   */\n      dup3\n        /* \"#utility.yul\":12340:12413   */\n      tag_345\n      jump\t// in\n    tag_386:\n        /* \"#utility.yul\":12332:12413   */\n      swap2\n      pop\n        /* \"#utility.yul\":12187:12424   */\n      pop\n        /* \"#utility.yul\":12441:12445   */\n      dup1\n        /* \"#utility.yul\":12434:12445   */\n      swap2\n      pop\n        /* \"#utility.yul\":11155:12451   */\n      pop\n        /* \"#utility.yul\":11033:12451   */\n      swap3\n      swap2\n      pop\n      pop\n      jump\t// out\n        /* \"#utility.yul\":12509:13585   */\n    tag_387:\n        /* \"#utility.yul\":12620:12623   */\n      0x00\n        /* \"#utility.yul\":12656:12660   */\n      0x60\n        /* \"#utility.yul\":12651:12654   */\n      dup4\n        /* \"#utility.yul\":12647:12661   */\n      add\n        /* \"#utility.yul\":12747:12751   */\n      0x00\n        /* \"#utility.yul\":12740:12745   */\n      dup4\n        /* \"#utility.yul\":12736:12752   */\n      add\n        /* \"#utility.yul\":12730:12753   */\n      mload\n        /* \"#utility.yul\":12800:12803   */\n      dup5\n        /* \"#utility.yul\":12794:12798   */\n      dup3\n        /* \"#utility.yul\":12790:12804   */\n      sub\n        /* \"#utility.yul\":12783:12787   */\n      0x00\n        /* \"#utility.yul\":12778:12781   */\n      dup7\n        /* \"#utility.yul\":12774:12788   */\n      add\n        /* \"#utility.yul\":12767:12805   */\n      mstore\n        /* \"#utility.yul\":12826:12949   */\n      tag_389\n        /* \"#utility.yul\":12944:12948   */\n      dup3\n        /* \"#utility.yul\":12930:12942   */\n      dup3\n        /* \"#utility.yul\":12826:12949   */\n      tag_350\n      jump\t// in\n    tag_389:\n        /* \"#utility.yul\":12818:12949   */\n      swap2\n      pop\n        /* \"#utility.yul\":12671:12960   */\n      pop\n        /* \"#utility.yul\":13045:13049   */\n      0x20\n        /* \"#utility.yul\":13038:13043   */\n      dup4\n        /* \"#utility.yul\":13034:13050   */\n      add\n        /* \"#utility.yul\":13028:13051   */\n      mload\n        /* \"#utility.yul\":13098:13101   */\n      dup5\n        /* \"#utility.yul\":13092:13096   */\n      dup3\n        /* \"#utility.yul\":13088:13102   */\n      sub\n        /* \"#utility.yul\":13081:13085   */\n      0x20\n        /* \"#utility.yul\":13076:13079   */\n      dup7\n        /* \"#utility.yul\":13072:13086   */\n      add\n        /* \"#utility.yul\":13065:13103   */\n      mstore\n        /* \"#utility.yul\":13124:13247   */\n      tag_390\n        /* \"#utility.yul\":13242:13246   */\n      dup3\n        /* \"#utility.yul\":13228:13240   */\n      dup3\n        /* \"#utility.yul\":13124:13247   */\n      tag_350\n      jump\t// in\n    tag_390:\n        /* \"#utility.yul\":13116:13247   */\n      swap2\n      pop\n        /* \"#utility.yul\":12970:13258   */\n      pop\n        /* \"#utility.yul\":13345:13349   */\n      0x40\n        /* \"#utility.yul\":13338:13343   */\n      dup4\n        /* \"#utility.yul\":13334:13350   */\n      add\n        /* \"#utility.yul\":13328:13351   */\n      mload\n        /* \"#utility.yul\":13398:13401   */\n      dup5\n        /* \"#utility.yul\":13392:13396   */\n      dup3\n        /* \"#utility.yul\":13388:13402   */\n      sub\n        /* \"#utility.yul\":13381:13385   */\n      0x40\n        /* \"#utility.yul\":13376:13379   */\n      dup7\n        /* \"#utility.yul\":13372:13386   */\n      add\n        /* \"#utility.yul\":13365:13403   */\n      mstore\n        /* \"#utility.yul\":13424:13547   */\n      tag_391\n        /* \"#utility.yul\":13542:13546   */\n      dup3\n        /* \"#utility.yul\":13528:13540   */\n      dup3\n        /* \"#utility.yul\":13424:13547   */\n      tag_350\n      jump\t// in\n    tag_391:\n        /* \"#utility.yul\":13416:13547   */\n      swap2\n      pop\n        /* \"#utility.yul\":13268:13558   */\n      pop\n        /* \"#utility.yul\":13575:13579   */\n      dup1\n        /* \"#utility.yul\":13568:13579   */\n      swap2\n      pop\n        /* \"#utility.yul\":12625:13585   */\n      pop\n        /* \"#utility.yul\":12509:13585   */\n      swap3\n      swap2\n      pop\n      pop\n      jump\t// out\n        /* \"#utility.yul\":13591:13709   */\n    tag_392:\n        /* \"#utility.yul\":13678:13702   */\n      tag_394\n        /* \"#utility.yul\":13696:13701   */\n      dup2\n        /* \"#utility.yul\":13678:13702   */\n      tag_395\n      jump\t// in\n    tag_394:\n        /* \"#utility.yul\":13673:13676   */\n      dup3\n        /* \"#utility.yul\":13666:13703   */\n      mstore\n        /* \"#utility.yul\":13591:13709   */\n      pop\n      pop\n      jump\t// out\n        /* \"#utility.yul\":13715:15358   */\n    tag_34:\n        /* \"#utility.yul\":14174:14178   */\n      0x00\n        /* \"#utility.yul\":14212:14215   */\n      0x0100\n        /* \"#utility.yul\":14201:14210   */\n      dup3\n        /* \"#utility.yul\":14197:14216   */\n      add\n        /* \"#utility.yul\":14189:14216   */\n      swap1\n      pop\n        /* \"#utility.yul\":14226:14297   */\n      tag_397\n        /* \"#utility.yul\":14294:14295   */\n      0x00\n        /* \"#utility.yul\":14283:14292   */\n      dup4\n        /* \"#utility.yul\":14279:14296   */\n      add\n        /* \"#utility.yul\":14270:14276   */\n      dup12\n        /* \"#utility.yul\":14226:14297   */\n      tag_346\n      jump\t// in\n    tag_397:\n        /* \"#utility.yul\":14344:14353   */\n      dup2\n        /* \"#utility.yul\":14338:14342   */\n      dup2\n        /* \"#utility.yul\":14334:14354   */\n      sub\n        /* \"#utility.yul\":14329:14331   */\n      0x20\n        /* \"#utility.yul\":14318:14327   */\n      dup4\n        /* \"#utility.yul\":14314:14332   */\n      add\n        /* \"#utility.yul\":14307:14355   */\n      mstore\n        /* \"#utility.yul\":14372:14450   */\n      tag_398\n        /* \"#utility.yul\":14445:14449   */\n      dup2\n        /* \"#utility.yul\":14436:14442   */\n      dup11\n        /* \"#utility.yul\":14372:14450   */\n      tag_373\n      jump\t// in\n    tag_398:\n        /* \"#utility.yul\":14364:14450   */\n      swap1\n      pop\n        /* \"#utility.yul\":14497:14506   */\n      dup2\n        /* \"#utility.yul\":14491:14495   */\n      dup2\n        /* \"#utility.yul\":14487:14507   */\n      sub\n        /* \"#utility.yul\":14482:14484   */\n      0x40\n        /* \"#utility.yul\":14471:14480   */\n      dup4\n        /* \"#utility.yul\":14467:14485   */\n      add\n        /* \"#utility.yul\":14460:14508   */\n      mstore\n        /* \"#utility.yul\":14525:14603   */\n      tag_399\n        /* \"#utility.yul\":14598:14602   */\n      dup2\n        /* \"#utility.yul\":14589:14595   */\n      dup10\n        /* \"#utility.yul\":14525:14603   */\n      tag_373\n      jump\t// in\n    tag_399:\n        /* \"#utility.yul\":14517:14603   */\n      swap1\n      pop\n        /* \"#utility.yul\":14650:14659   */\n      dup2\n        /* \"#utility.yul\":14644:14648   */\n      dup2\n        /* \"#utility.yul\":14640:14660   */\n      sub\n        /* \"#utility.yul\":14635:14637   */\n      0x60\n        /* \"#utility.yul\":14624:14633   */\n      dup4\n        /* \"#utility.yul\":14620:14638   */\n      add\n        /* \"#utility.yul\":14613:14661   */\n      mstore\n        /* \"#utility.yul\":14678:14756   */\n      tag_400\n        /* \"#utility.yul\":14751:14755   */\n      dup2\n        /* \"#utility.yul\":14742:14748   */\n      dup9\n        /* \"#utility.yul\":14678:14756   */\n      tag_373\n      jump\t// in\n    tag_400:\n        /* \"#utility.yul\":14670:14756   */\n      swap1\n      pop\n        /* \"#utility.yul\":14804:14813   */\n      dup2\n        /* \"#utility.yul\":14798:14802   */\n      dup2\n        /* \"#utility.yul\":14794:14814   */\n      sub\n        /* \"#utility.yul\":14788:14791   */\n      0x80\n        /* \"#utility.yul\":14777:14786   */\n      dup4\n        /* \"#utility.yul\":14773:14792   */\n      add\n        /* \"#utility.yul\":14766:14815   */\n      mstore\n        /* \"#utility.yul\":14832:14910   */\n      tag_401\n        /* \"#utility.yul\":14905:14909   */\n      dup2\n        /* \"#utility.yul\":14896:14902   */\n      dup8\n        /* \"#utility.yul\":14832:14910   */\n      tag_373\n      jump\t// in\n    tag_401:\n        /* \"#utility.yul\":14824:14910   */\n      swap1\n      pop\n        /* \"#utility.yul\":14920:14993   */\n      tag_402\n        /* \"#utility.yul\":14988:14991   */\n      0xa0\n        /* \"#utility.yul\":14977:14986   */\n      dup4\n        /* \"#utility.yul\":14973:14992   */\n      add\n        /* \"#utility.yul\":14964:14970   */\n      dup7\n        /* \"#utility.yul\":14920:14993   */\n      tag_392\n      jump\t// in\n    tag_402:\n        /* \"#utility.yul\":15041:15050   */\n      dup2\n        /* \"#utility.yul\":15035:15039   */\n      dup2\n        /* \"#utility.yul\":15031:15051   */\n      sub\n        /* \"#utility.yul\":15025:15028   */\n      0xc0\n        /* \"#utility.yul\":15014:15023   */\n      dup4\n        /* \"#utility.yul\":15010:15029   */\n      add\n        /* \"#utility.yul\":15003:15052   */\n      mstore\n        /* \"#utility.yul\":15069:15175   */\n      tag_403\n        /* \"#utility.yul\":15170:15174   */\n      dup2\n        /* \"#utility.yul\":15161:15167   */\n      dup6\n        /* \"#utility.yul\":15069:15175   */\n      tag_380\n      jump\t// in\n    tag_403:\n        /* \"#utility.yul\":15061:15175   */\n      swap1\n      pop\n        /* \"#utility.yul\":15223:15232   */\n      dup2\n        /* \"#utility.yul\":15217:15221   */\n      dup2\n        /* \"#utility.yul\":15213:15233   */\n      sub\n        /* \"#utility.yul\":15207:15210   */\n      0xe0\n        /* \"#utility.yul\":15196:15205   */\n      dup4\n        /* \"#utility.yul\":15192:15211   */\n      add\n        /* \"#utility.yul\":15185:15234   */\n      mstore\n        /* \"#utility.yul\":15251:15351   */\n      tag_404\n        /* \"#utility.yul\":15346:15350   */\n      dup2\n        /* \"#utility.yul\":15337:15343   */\n      dup5\n        /* \"#utility.yul\":15251:15351   */\n      tag_387\n      jump\t// in\n    tag_404:\n        /* \"#utility.yul\":15243:15351   */\n      swap1\n      pop\n        /* \"#utility.yul\":13715:15358   */\n      swap10\n      swap9\n      pop\n      pop\n      pop\n      pop\n      pop\n      pop\n      pop\n      pop\n      pop\n      jump\t// out\n        /* \"#utility.yul\":15364:16079   */\n    tag_46:\n        /* \"#utility.yul\":15573:15577   */\n      0x00\n        /* \"#utility.yul\":15611:15613   */\n      0x60\n        /* \"#utility.yul\":15600:15609   */\n      dup3\n        /* \"#utility.yul\":15596:15614   */\n      add\n        /* \"#utility.yul\":15588:15614   */\n      swap1\n      pop\n        /* \"#utility.yul\":15660:15669   */\n      dup2\n        /* \"#utility.yul\":15654:15658   */\n      dup2\n        /* \"#utility.yul\":15650:15670   */\n      sub\n        /* \"#utility.yul\":15646:15647   */\n      0x00\n        /* \"#utility.yul\":15635:15644   */\n      dup4\n        /* \"#utility.yul\":15631:15648   */\n      add\n        /* \"#utility.yul\":15624:15671   */\n      mstore\n        /* \"#utility.yul\":15688:15766   */\n      tag_406\n        /* \"#utility.yul\":15761:15765   */\n      dup2\n        /* \"#utility.yul\":15752:15758   */\n      dup7\n        /* \"#utility.yul\":15688:15766   */\n      tag_373\n      jump\t// in\n    tag_406:\n        /* \"#utility.yul\":15680:15766   */\n      swap1\n      pop\n        /* \"#utility.yul\":15813:15822   */\n      dup2\n        /* \"#utility.yul\":15807:15811   */\n      dup2\n        /* \"#utility.yul\":15803:15823   */\n      sub\n        /* \"#utility.yul\":15798:15800   */\n      0x20\n        /* \"#utility.yul\":15787:15796   */\n      dup4\n        /* \"#utility.yul\":15783:15801   */\n      add\n        /* \"#utility.yul\":15776:15824   */\n      mstore\n        /* \"#utility.yul\":15841:15919   */\n      tag_407\n        /* \"#utility.yul\":15914:15918   */\n      dup2\n        /* \"#utility.yul\":15905:15911   */\n      dup6\n        /* \"#utility.yul\":15841:15919   */\n      tag_373\n      jump\t// in\n    tag_407:\n        /* \"#utility.yul\":15833:15919   */\n      swap1\n      pop\n        /* \"#utility.yul\":15966:15975   */\n      dup2\n        /* \"#utility.yul\":15960:15964   */\n      dup2\n        /* \"#utility.yul\":15956:15976   */\n      sub\n        /* \"#utility.yul\":15951:15953   */\n      0x40\n        /* \"#utility.yul\":15940:15949   */\n      dup4\n        /* \"#utility.yul\":15936:15954   */\n      add\n        /* \"#utility.yul\":15929:15977   */\n      mstore\n        /* \"#utility.yul\":15994:16072   */\n      tag_408\n        /* \"#utility.yul\":16067:16071   */\n      dup2\n        /* \"#utility.yul\":16058:16064   */\n      dup5\n        /* \"#utility.yul\":15994:16072   */\n      tag_373\n      jump\t// in\n    tag_408:\n        /* \"#utility.yul\":15986:16072   */\n      swap1\n      pop\n        /* \"#utility.yul\":15364:16079   */\n      swap5\n      swap4\n      pop\n      pop\n      pop\n      pop\n      jump\t// out\n        /* \"#utility.yul\":16085:16307   */\n    tag_20:\n        /* \"#utility.yul\":16178:16182   */\n      0x00\n        /* \"#utility.yul\":16216:16218   */\n      0x20\n        /* \"#utility.yul\":16205:16214   */\n      dup3\n        /* \"#utility.yul\":16201:16219   */\n      add\n        /* \"#utility.yul\":16193:16219   */\n      swap1\n      pop\n        /* \"#utility.yul\":16229:16300   */\n      tag_410\n        /* \"#utility.yul\":16297:16298   */\n      0x00\n        /* \"#utility.yul\":16286:16295   */\n      dup4\n        /* \"#utility.yul\":16282:16299   */\n      add\n        /* \"#utility.yul\":16273:16279   */\n      dup5\n        /* \"#utility.yul\":16229:16300   */\n      tag_392\n      jump\t// in\n    tag_410:\n        /* \"#utility.yul\":16085:16307   */\n      swap3\n      swap2\n      pop\n      pop\n      jump\t// out\n        /* \"#utility.yul\":16313:16442   */\n    tag_236:\n        /* \"#utility.yul\":16347:16353   */\n      0x00\n        /* \"#utility.yul\":16374:16394   */\n      tag_412\n      tag_413\n      jump\t// in\n    tag_412:\n        /* \"#utility.yul\":16364:16394   */\n      swap1\n      pop\n        /* \"#utility.yul\":16403:16436   */\n      tag_414\n        /* \"#utility.yul\":16431:16435   */\n      dup3\n        /* \"#utility.yul\":16423:16429   */\n      dup3\n        /* \"#utility.yul\":16403:16436   */\n      tag_415\n      jump\t// in\n    tag_414:\n        /* \"#utility.yul\":16313:16442   */\n      swap2\n      swap1\n      pop\n      jump\t// out\n        /* \"#utility.yul\":16448:16523   */\n    tag_413:\n        /* \"#utility.yul\":16481:16487   */\n      0x00\n        /* \"#utility.yul\":16514:16516   */\n      0x40\n        /* \"#utility.yul\":16508:16517   */\n      mload\n        /* \"#utility.yul\":16498:16517   */\n      swap1\n      pop\n        /* \"#utility.yul\":16448:16523   */\n      swap1\n      jump\t// out\n        /* \"#utility.yul\":16529:16850   */\n    tag_235:\n        /* \"#utility.yul\":16616:16620   */\n      0x00\n        /* \"#utility.yul\":16706:16724   */\n      0xffffffffffffffff\n        /* \"#utility.yul\":16698:16704   */\n      dup3\n        /* \"#utility.yul\":16695:16725   */\n      gt\n        /* \"#utility.yul\":16692:16748   */\n      iszero\n      tag_418\n      jumpi\n        /* \"#utility.yul\":16728:16746   */\n      tag_419\n      tag_420\n      jump\t// in\n    tag_419:\n        /* \"#utility.yul\":16692:16748   */\n    tag_418:\n        /* \"#utility.yul\":16778:16782   */\n      0x20\n        /* \"#utility.yul\":16770:16776   */\n      dup3\n        /* \"#utility.yul\":16766:16783   */\n      mul\n        /* \"#utility.yul\":16758:16783   */\n      swap1\n      pop\n        /* \"#utility.yul\":16838:16842   */\n      0x20\n        /* \"#utility.yul\":16832:16836   */\n      dup2\n        /* \"#utility.yul\":16828:16843   */\n      add\n        /* \"#utility.yul\":16820:16843   */\n      swap1\n      pop\n        /* \"#utility.yul\":16529:16850   */\n      swap2\n      swap1\n      pop\n      jump\t// out\n        /* \"#utility.yul\":16856:17164   */\n    tag_252:\n        /* \"#utility.yul\":16918:16922   */\n      0x00\n        /* \"#utility.yul\":17008:17026   */\n      0xffffffffffffffff\n        /* \"#utility.yul\":17000:17006   */\n      dup3\n        /* \"#utility.yul\":16997:17027   */\n      gt\n        /* \"#utility.yul\":16994:17050   */\n      iszero\n      tag_422\n      jumpi\n        /* \"#utility.yul\":17030:17048   */\n      tag_423\n      tag_420\n      jump\t// in\n    tag_423:\n        /* \"#utility.yul\":16994:17050   */\n    tag_422:\n        /* \"#utility.yul\":17068:17097   */\n      tag_424\n        /* \"#utility.yul\":17090:17096   */\n      dup3\n        /* \"#utility.yul\":17068:17097   */\n      tag_372\n      jump\t// in\n    tag_424:\n        /* \"#utility.yul\":17060:17097   */\n      swap1\n      pop\n        /* \"#utility.yul\":17152:17156   */\n      0x20\n        /* \"#utility.yul\":17146:17150   */\n      dup2\n        /* \"#utility.yul\":17142:17157   */\n      add\n        /* \"#utility.yul\":17134:17157   */\n      swap1\n      pop\n        /* \"#utility.yul\":16856:17164   */\n      swap2\n      swap1\n      pop\n      jump\t// out\n        /* \"#utility.yul\":17170:17312   */\n    tag_357:\n        /* \"#utility.yul\":17247:17251   */\n      0x00\n        /* \"#utility.yul\":17270:17273   */\n      dup2\n        /* \"#utility.yul\":17262:17273   */\n      swap1\n      pop\n        /* \"#utility.yul\":17300:17304   */\n      0x20\n        /* \"#utility.yul\":17295:17298   */\n      dup3\n        /* \"#utility.yul\":17291:17305   */\n      add\n        /* \"#utility.yul\":17283:17305   */\n      swap1\n      pop\n        /* \"#utility.yul\":17170:17312   */\n      swap2\n      swap1\n      pop\n      jump\t// out\n        /* \"#utility.yul\":17318:17442   */\n    tag_353:\n        /* \"#utility.yul\":17395:17401   */\n      0x00\n        /* \"#utility.yul\":17429:17434   */\n      dup2\n        /* \"#utility.yul\":17423:17435   */\n      mload\n        /* \"#utility.yul\":17413:17435   */\n      swap1\n      pop\n        /* \"#utility.yul\":17318:17442   */\n      swap2\n      swap1\n      pop\n      jump\t// out\n        /* \"#utility.yul\":17448:17547   */\n    tag_366:\n        /* \"#utility.yul\":17500:17506   */\n      0x00\n        /* \"#utility.yul\":17534:17539   */\n      dup2\n        /* \"#utility.yul\":17528:17540   */\n      mload\n        /* \"#utility.yul\":17518:17540   */\n      swap1\n      pop\n        /* \"#utility.yul\":17448:17547   */\n      swap2\n      swap1\n      pop\n      jump\t// out\n        /* \"#utility.yul\":17553:17676   */\n    tag_363:\n        /* \"#utility.yul\":17633:17637   */\n      0x00\n        /* \"#utility.yul\":17665:17669   */\n      0x20\n        /* \"#utility.yul\":17660:17663   */\n      dup3\n        /* \"#utility.yul\":17656:17670   */\n      add\n        /* \"#utility.yul\":17648:17670   */\n      swap1\n      pop\n        /* \"#utility.yul\":17553:17676   */\n      swap2\n      swap1\n      pop\n      jump\t// out\n        /* \"#utility.yul\":17682:17866   */\n    tag_355:\n        /* \"#utility.yul\":17781:17792   */\n      0x00\n        /* \"#utility.yul\":17815:17821   */\n      dup3\n        /* \"#utility.yul\":17810:17813   */\n      dup3\n        /* \"#utility.yul\":17803:17822   */\n      mstore\n        /* \"#utility.yul\":17855:17859   */\n      0x20\n        /* \"#utility.yul\":17850:17853   */\n      dup3\n        /* \"#utility.yul\":17846:17860   */\n      add\n        /* \"#utility.yul\":17831:17860   */\n      swap1\n      pop\n        /* \"#utility.yul\":17682:17866   */\n      swap3\n      swap2\n      pop\n      pop\n      jump\t// out\n        /* \"#utility.yul\":17872:18031   */\n    tag_368:\n        /* \"#utility.yul\":17946:17957   */\n      0x00\n        /* \"#utility.yul\":17980:17986   */\n      dup3\n        /* \"#utility.yul\":17975:17978   */\n      dup3\n        /* \"#utility.yul\":17968:17987   */\n      mstore\n        /* \"#utility.yul\":18020:18024   */\n      0x20\n        /* \"#utility.yul\":18015:18018   */\n      dup3\n        /* \"#utility.yul\":18011:18025   */\n      add\n        /* \"#utility.yul\":17996:18025   */\n      swap1\n      pop\n        /* \"#utility.yul\":17872:18031   */\n      swap3\n      swap2\n      pop\n      pop\n      jump\t// out\n        /* \"#utility.yul\":18037:18206   */\n    tag_377:\n        /* \"#utility.yul\":18121:18132   */\n      0x00\n        /* \"#utility.yul\":18155:18161   */\n      dup3\n        /* \"#utility.yul\":18150:18153   */\n      dup3\n        /* \"#utility.yul\":18143:18162   */\n      mstore\n        /* \"#utility.yul\":18195:18199   */\n      0x20\n        /* \"#utility.yul\":18190:18193   */\n      dup3\n        /* \"#utility.yul\":18186:18200   */\n      add\n        /* \"#utility.yul\":18171:18200   */\n      swap1\n      pop\n        /* \"#utility.yul\":18037:18206   */\n      swap3\n      swap2\n      pop\n      pop\n      jump\t// out\n        /* \"#utility.yul\":18212:18308   */\n    tag_349:\n        /* \"#utility.yul\":18249:18256   */\n      0x00\n        /* \"#utility.yul\":18278:18302   */\n      tag_433\n        /* \"#utility.yul\":18296:18301   */\n      dup3\n        /* \"#utility.yul\":18278:18302   */\n      tag_434\n      jump\t// in\n    tag_433:\n        /* \"#utility.yul\":18267:18302   */\n      swap1\n      pop\n        /* \"#utility.yul\":18212:18308   */\n      swap2\n      swap1\n      pop\n      jump\t// out\n        /* \"#utility.yul\":18314:18440   */\n    tag_434:\n        /* \"#utility.yul\":18351:18358   */\n      0x00\n        /* \"#utility.yul\":18391:18433   */\n      0xffffffffffffffffffffffffffffffffffffffff\n        /* \"#utility.yul\":18384:18389   */\n      dup3\n        /* \"#utility.yul\":18380:18434   */\n      and\n        /* \"#utility.yul\":18369:18434   */\n      swap1\n      pop\n        /* \"#utility.yul\":18314:18440   */\n      swap2\n      swap1\n      pop\n      jump\t// out\n        /* \"#utility.yul\":18446:18523   */\n    tag_395:\n        /* \"#utility.yul\":18483:18490   */\n      0x00\n        /* \"#utility.yul\":18512:18517   */\n      dup2\n        /* \"#utility.yul\":18501:18517   */\n      swap1\n      pop\n        /* \"#utility.yul\":18446:18523   */\n      swap2\n      swap1\n      pop\n      jump\t// out\n        /* \"#utility.yul\":18529:18683   */\n    tag_257:\n        /* \"#utility.yul\":18613:18619   */\n      dup3\n        /* \"#utility.yul\":18608:18611   */\n      dup2\n        /* \"#utility.yul\":18603:18606   */\n      dup4\n        /* \"#utility.yul\":18590:18620   */\n      calldatacopy\n        /* \"#utility.yul\":18675:18676   */\n      0x00\n        /* \"#utility.yul\":18666:18672   */\n      dup4\n        /* \"#utility.yul\":18661:18664   */\n      dup4\n        /* \"#utility.yul\":18657:18673   */\n      add\n        /* \"#utility.yul\":18650:18677   */\n      mstore\n        /* \"#utility.yul\":18529:18683   */\n      pop\n      pop\n      pop\n      jump\t// out\n        /* \"#utility.yul\":18689:18996   */\n    tag_370:\n        /* \"#utility.yul\":18757:18758   */\n      0x00\n        /* \"#utility.yul\":18767:18880   */\n    tag_439:\n        /* \"#utility.yul\":18781:18787   */\n      dup4\n        /* \"#utility.yul\":18778:18779   */\n      dup2\n        /* \"#utility.yul\":18775:18788   */\n      lt\n        /* \"#utility.yul\":18767:18880   */\n      iszero\n      tag_441\n      jumpi\n        /* \"#utility.yul\":18866:18867   */\n      dup1\n        /* \"#utility.yul\":18861:18864   */\n      dup3\n        /* \"#utility.yul\":18857:18868   */\n      add\n        /* \"#utility.yul\":18851:18869   */\n      mload\n        /* \"#utility.yul\":18847:18848   */\n      dup2\n        /* \"#utility.yul\":18842:18845   */\n      dup5\n        /* \"#utility.yul\":18838:18849   */\n      add\n        /* \"#utility.yul\":18831:18870   */\n      mstore\n        /* \"#utility.yul\":18803:18805   */\n      0x20\n        /* \"#utility.yul\":18800:18801   */\n      dup2\n        /* \"#utility.yul\":18796:18806   */\n      add\n        /* \"#utility.yul\":18791:18806   */\n      swap1\n      pop\n        /* \"#utility.yul\":18767:18880   */\n      jump(tag_439)\n    tag_441:\n        /* \"#utility.yul\":18898:18904   */\n      dup4\n        /* \"#utility.yul\":18895:18896   */\n      dup2\n        /* \"#utility.yul\":18892:18905   */\n      gt\n        /* \"#utility.yul\":18889:18990   */\n      iszero\n      tag_442\n      jumpi\n        /* \"#utility.yul\":18978:18979   */\n      0x00\n        /* \"#utility.yul\":18969:18975   */\n      dup5\n        /* \"#utility.yul\":18964:18967   */\n      dup5\n        /* \"#utility.yul\":18960:18976   */\n      add\n        /* \"#utility.yul\":18953:18980   */\n      mstore\n        /* \"#utility.yul\":18889:18990   */\n    tag_442:\n        /* \"#utility.yul\":18738:18996   */\n      pop\n        /* \"#utility.yul\":18689:18996   */\n      pop\n      pop\n      pop\n      jump\t// out\n        /* \"#utility.yul\":19002:19322   */\n    tag_78:\n        /* \"#utility.yul\":19046:19052   */\n      0x00\n        /* \"#utility.yul\":19083:19084   */\n      0x02\n        /* \"#utility.yul\":19077:19081   */\n      dup3\n        /* \"#utility.yul\":19073:19085   */\n      div\n        /* \"#utility.yul\":19063:19085   */\n      swap1\n      pop\n        /* \"#utility.yul\":19130:19131   */\n      0x01\n        /* \"#utility.yul\":19124:19128   */\n      dup3\n        /* \"#utility.yul\":19120:19132   */\n      and\n        /* \"#utility.yul\":19151:19169   */\n      dup1\n        /* \"#utility.yul\":19141:19222   */\n      tag_444\n      jumpi\n        /* \"#utility.yul\":19207:19211   */\n      0x7f\n        /* \"#utility.yul\":19199:19205   */\n      dup3\n        /* \"#utility.yul\":19195:19212   */\n      and\n        /* \"#utility.yul\":19185:19212   */\n      swap2\n      pop\n        /* \"#utility.yul\":19141:19222   */\n    tag_444:\n        /* \"#utility.yul\":19269:19271   */\n      0x20\n        /* \"#utility.yul\":19261:19267   */\n      dup3\n        /* \"#utility.yul\":19258:19272   */\n      lt\n        /* \"#utility.yul\":19238:19256   */\n      dup2\n        /* \"#utility.yul\":19235:19273   */\n      eq\n        /* \"#utility.yul\":19232:19316   */\n      iszero\n      tag_445\n      jumpi\n        /* \"#utility.yul\":19288:19306   */\n      tag_446\n      tag_447\n      jump\t// in\n    tag_446:\n        /* \"#utility.yul\":19232:19316   */\n    tag_445:\n        /* \"#utility.yul\":19053:19322   */\n      pop\n        /* \"#utility.yul\":19002:19322   */\n      swap2\n      swap1\n      pop\n      jump\t// out\n        /* \"#utility.yul\":19328:19609   */\n    tag_415:\n        /* \"#utility.yul\":19411:19438   */\n      tag_449\n        /* \"#utility.yul\":19433:19437   */\n      dup3\n        /* \"#utility.yul\":19411:19438   */\n      tag_372\n      jump\t// in\n    tag_449:\n        /* \"#utility.yul\":19403:19409   */\n      dup2\n        /* \"#utility.yul\":19399:19439   */\n      add\n        /* \"#utility.yul\":19541:19547   */\n      dup2\n        /* \"#utility.yul\":19529:19539   */\n      dup2\n        /* \"#utility.yul\":19526:19548   */\n      lt\n        /* \"#utility.yul\":19505:19523   */\n      0xffffffffffffffff\n        /* \"#utility.yul\":19493:19503   */\n      dup3\n        /* \"#utility.yul\":19490:19524   */\n      gt\n        /* \"#utility.yul\":19487:19549   */\n      or\n        /* \"#utility.yul\":19484:19572   */\n      iszero\n      tag_450\n      jumpi\n        /* \"#utility.yul\":19552:19570   */\n      tag_451\n      tag_420\n      jump\t// in\n    tag_451:\n        /* \"#utility.yul\":19484:19572   */\n    tag_450:\n        /* \"#utility.yul\":19592:19602   */\n      dup1\n        /* \"#utility.yul\":19588:19590   */\n      0x40\n        /* \"#utility.yul\":19581:19603   */\n      mstore\n        /* \"#utility.yul\":19371:19609   */\n      pop\n        /* \"#utility.yul\":19328:19609   */\n      pop\n      pop\n      jump\t// out\n        /* \"#utility.yul\":19615:19795   */\n    tag_447:\n        /* \"#utility.yul\":19663:19740   */\n      0x4e487b7100000000000000000000000000000000000000000000000000000000\n        /* \"#utility.yul\":19660:19661   */\n      0x00\n        /* \"#utility.yul\":19653:19741   */\n      mstore\n        /* \"#utility.yul\":19760:19764   */\n      0x22\n        /* \"#utility.yul\":19757:19758   */\n      0x04\n        /* \"#utility.yul\":19750:19765   */\n      mstore\n        /* \"#utility.yul\":19784:19788   */\n      0x24\n        /* \"#utility.yul\":19781:19782   */\n      0x00\n        /* \"#utility.yul\":19774:19789   */\n      revert\n        /* \"#utility.yul\":19801:19981   */\n    tag_160:\n        /* \"#utility.yul\":19849:19926   */\n      0x4e487b7100000000000000000000000000000000000000000000000000000000\n        /* \"#utility.yul\":19846:19847   */\n      0x00\n        /* \"#utility.yul\":19839:19927   */\n      mstore\n        /* \"#utility.yul\":19946:19950   */\n      0x32\n        /* \"#utility.yul\":19943:19944   */\n      0x04\n        /* \"#utility.yul\":19936:19951   */\n      mstore\n        /* \"#utility.yul\":19970:19974   */\n      0x24\n        /* \"#utility.yul\":19967:19968   */\n      0x00\n        /* \"#utility.yul\":19960:19975   */\n      revert\n        /* \"#utility.yul\":19987:20167   */\n    tag_420:\n        /* \"#utility.yul\":20035:20112   */\n      0x4e487b7100000000000000000000000000000000000000000000000000000000\n        /* \"#utility.yul\":20032:20033   */\n      0x00\n        /* \"#utility.yul\":20025:20113   */\n      mstore\n        /* \"#utility.yul\":20132:20136   */\n      0x41\n        /* \"#utility.yul\":20129:20130   */\n      0x04\n        /* \"#utility.yul\":20122:20137   */\n      mstore\n        /* \"#utility.yul\":20156:20160   */\n      0x24\n        /* \"#utility.yul\":20153:20154   */\n      0x00\n        /* \"#utility.yul\":20146:20161   */\n      revert\n        /* \"#utility.yul\":20173:20290   */\n    tag_245:\n        /* \"#utility.yul\":20282:20283   */\n      0x00\n        /* \"#utility.yul\":20279:20280   */\n      dup1\n        /* \"#utility.yul\":20272:20284   */\n      revert\n        /* \"#utility.yul\":20296:20413   */\n    tag_239:\n        /* \"#utility.yul\":20405:20406   */\n      0x00\n        /* \"#utility.yul\":20402:20403   */\n      dup1\n        /* \"#utility.yul\":20395:20407   */\n      revert\n        /* \"#utility.yul\":20419:20536   */\n    tag_255:\n        /* \"#utility.yul\":20528:20529   */\n      0x00\n        /* \"#utility.yul\":20525:20526   */\n      dup1\n        /* \"#utility.yul\":20518:20530   */\n      revert\n        /* \"#utility.yul\":20542:20659   */\n    tag_285:\n        /* \"#utility.yul\":20651:20652   */\n      0x00\n        /* \"#utility.yul\":20648:20649   */\n      dup1\n        /* \"#utility.yul\":20641:20653   */\n      revert\n        /* \"#utility.yul\":20665:20782   */\n    tag_278:\n        /* \"#utility.yul\":20774:20775   */\n      0x00\n        /* \"#utility.yul\":20771:20772   */\n      dup1\n        /* \"#utility.yul\":20764:20776   */\n      revert\n        /* \"#utility.yul\":20788:20890   */\n    tag_372:\n        /* \"#utility.yul\":20829:20835   */\n      0x00\n        /* \"#utility.yul\":20880:20882   */\n      0x1f\n        /* \"#utility.yul\":20876:20883   */\n      not\n        /* \"#utility.yul\":20871:20873   */\n      0x1f\n        /* \"#utility.yul\":20864:20869   */\n      dup4\n        /* \"#utility.yul\":20860:20874   */\n      add\n        /* \"#utility.yul\":20856:20884   */\n      and\n        /* \"#utility.yul\":20846:20884   */\n      swap1\n      pop\n        /* \"#utility.yul\":20788:20890   */\n      swap2\n      swap1\n      pop\n      jump\t// out\n        /* \"#utility.yul\":20896:21018   */\n    tag_261:\n        /* \"#utility.yul\":20969:20993   */\n      tag_462\n        /* \"#utility.yul\":20987:20992   */\n      dup2\n        /* \"#utility.yul\":20969:20993   */\n      tag_349\n      jump\t// in\n    tag_462:\n        /* \"#utility.yul\":20962:20967   */\n      dup2\n        /* \"#utility.yul\":20959:20994   */\n      eq\n        /* \"#utility.yul\":20949:21012   */\n      tag_463\n      jumpi\n        /* \"#utility.yul\":21008:21009   */\n      0x00\n        /* \"#utility.yul\":21005:21006   */\n      dup1\n        /* \"#utility.yul\":20998:21010   */\n      revert\n        /* \"#utility.yul\":20949:21012   */\n    tag_463:\n        /* \"#utility.yul\":20896:21018   */\n      pop\n      jump\t// out\n        /* \"#utility.yul\":21024:21146   */\n    tag_274:\n        /* \"#utility.yul\":21097:21121   */\n      tag_465\n        /* \"#utility.yul\":21115:21120   */\n      dup2\n        /* \"#utility.yul\":21097:21121   */\n      tag_395\n      jump\t// in\n    tag_465:\n        /* \"#utility.yul\":21090:21095   */\n      dup2\n        /* \"#utility.yul\":21087:21122   */\n      eq\n        /* \"#utility.yul\":21077:21140   */\n      tag_466\n      jumpi\n        /* \"#utility.yul\":21136:21137   */\n      0x00\n        /* \"#utility.yul\":21133:21134   */\n      dup1\n        /* \"#utility.yul\":21126:21138   */\n      revert\n        /* \"#utility.yul\":21077:21140   */\n    tag_466:\n        /* \"#utility.yul\":21024:21146   */\n      pop\n      jump\t// out\n\n    auxdata: 0xa2646970667358221220114912dd87bb52384db01271dfe1f184a7e497105621052009a192298c103c2164736f6c63430008070033\n}\n",
				"bytecode": {
					"linkReferences": {},
					"object": "608060405234801561001057600080fd5b5061224a806100206000396000f3fe608060405234801561001057600080fd5b50600436106100935760003560e01c80639dd9d0fd116100665780639dd9d0fd1461010a578063dc6d6a8314610141578063ed2217ef1461015d578063f96e32f814610167578063fabce08f1461019957610093565b80633d984d0e146100985780636212fa02146100b457806372828388146100d25780638c241fc4146100ee575b600080fd5b6100b260048036038101906100ad91906118f5565b6101a3565b005b6100bc610327565b6040516100c99190611f4b565b60405180910390f35b6100ec60048036038101906100e79190611b1a565b610373565b005b61010860048036038101906101039190611a43565b6105cb565b005b610124600480360381019061011f91906118c8565b6107ef565b604051610138989796959493929190611e57565b60405180910390f35b61015b6004803603810190610156919061199c565b610ff0565b005b6101656110dd565b005b610181600480360381019061017c9190611c21565b61112c565b60405161019093929190611eff565b60405180910390f35b6101a161140e565b005b6000803373ffffffffffffffffffffffffffffffffffffffff1673ffffffffffffffffffffffffffffffffffffffff168152602001908152602001600020600b01600080820160006101f5919061155e565b600182016000610205919061155e565b600282016000610215919061155e565b5050826000803373ffffffffffffffffffffffffffffffffffffffff1673ffffffffffffffffffffffffffffffffffffffff168152602001908152602001600020600b01600001908051906020019061026f92919061157f565b50816000803373ffffffffffffffffffffffffffffffffffffffff1673ffffffffffffffffffffffffffffffffffffffff168152602001908152602001600020600b0160010190805190602001906102c892919061157f565b50806000803373ffffffffffffffffffffffffffffffffffffffff1673ffffffffffffffffffffffffffffffffffffffff168152602001908152602001600020600b01600201908051906020019061032192919061157f565b50505050565b60008060003373ffffffffffffffffffffffffffffffffffffffff1673ffffffffffffffffffffffffffffffffffffffff168152602001908152602001600020600e0180549050905090565b6000803373ffffffffffffffffffffffffffffffffffffffff1673ffffffffffffffffffffffffffffffffffffffff168152602001908152602001600020600601600080820160006103c591906115df565b6001820160006103d591906115df565b6002820160006103e591906115df565b6003820160006103f591906115df565b60048201600061040591906115df565b5050846000803373ffffffffffffffffffffffffffffffffffffffff1673ffffffffffffffffffffffffffffffffffffffff168152602001908152602001600020600601600001908051906020019061045f92919061161f565b50836000803373ffffffffffffffffffffffffffffffffffffffff1673ffffffffffffffffffffffffffffffffffffffff16815260200190815260200160002060060160010190805190602001906104b892919061161f565b50826000803373ffffffffffffffffffffffffffffffffffffffff1673ffffffffffffffffffffffffffffffffffffffff168152602001908152602001600020600601600001908051906020019061051192919061161f565b50816000803373ffffffffffffffffffffffffffffffffffffffff1673ffffffffffffffffffffffffffffffffffffffff168152602001908152602001600020600601600101908051906020019061056a92919061161f565b50806000803373ffffffffffffffffffffffffffffffffffffffff1673ffffffffffffffffffffffffffffffffffffffff16815260200190815260200160002060060160000190805190602001906105c392919061161f565b505050505050565b836000803373ffffffffffffffffffffffffffffffffffffffff1673ffffffffffffffffffffffffffffffffffffffff168152602001908152602001600020600101908051906020019061062092919061161f565b50826000803373ffffffffffffffffffffffffffffffffffffffff1673ffffffffffffffffffffffffffffffffffffffff168152602001908152602001600020600201908051906020019061067692919061161f565b50816000803373ffffffffffffffffffffffffffffffffffffffff1673ffffffffffffffffffffffffffffffffffffffff16815260200190815260200160002060030190805190602001906106cc92919061161f565b50806000803373ffffffffffffffffffffffffffffffffffffffff1673ffffffffffffffffffffffffffffffffffffffff168152602001908152602001600020600401908051906020019061072292919061161f565b50336000803373ffffffffffffffffffffffffffffffffffffffff1673ffffffffffffffffffffffffffffffffffffffff16815260200190815260200160002060000160006101000a81548173ffffffffffffffffffffffffffffffffffffffff021916908373ffffffffffffffffffffffffffffffffffffffff160217905550426000803373ffffffffffffffffffffffffffffffffffffffff1673ffffffffffffffffffffffffffffffffffffffff1681526020019081526020016000206005018190555050505050565b60006020528060005260406000206000915090508060000160009054906101000a900473ffffffffffffffffffffffffffffffffffffffff1690806001018054610838906120cc565b80601f0160208091040260200160405190810160405280929190818152602001828054610864906120cc565b80156108b15780601f10610886576101008083540402835291602001916108b1565b820191906000526020600020905b81548152906001019060200180831161089457829003601f168201915b5050505050908060020180546108c6906120cc565b80601f01602080910402602001604051908101604052809291908181526020018280546108f2906120cc565b801561093f5780601f106109145761010080835404028352916020019161093f565b820191906000526020600020905b81548152906001019060200180831161092257829003601f168201915b505050505090806003018054610954906120cc565b80601f0160208091040260200160405190810160405280929190818152602001828054610980906120cc565b80156109cd5780601f106109a2576101008083540402835291602001916109cd565b820191906000526020600020905b8154815290600101906020018083116109b057829003601f168201915b5050505050908060040180546109e2906120cc565b80601f0160208091040260200160405190810160405280929190818152602001828054610a0e906120cc565b8015610a5b5780601f10610a3057610100808354040283529160200191610a5b565b820191906000526020600020905b815481529060010190602001808311610a3e57829003601f168201915b505050505090806005015490806006016040518060a0016040529081600082018054610a86906120cc565b80601f0160208091040260200160405190810160405280929190818152602001828054610ab2906120cc565b8015610aff5780601f10610ad457610100808354040283529160200191610aff565b820191906000526020600020905b815481529060010190602001808311610ae257829003601f168201915b50505050508152602001600182018054610b18906120cc565b80601f0160208091040260200160405190810160405280929190818152602001828054610b44906120cc565b8015610b915780601f10610b6657610100808354040283529160200191610b91565b820191906000526020600020905b815481529060010190602001808311610b7457829003601f168201915b50505050508152602001600282018054610baa906120cc565b80601f0160208091040260200160405190810160405280929190818152602001828054610bd6906120cc565b8015610c235780601f10610bf857610100808354040283529160200191610c23565b820191906000526020600020905b815481529060010190602001808311610c0657829003601f168201915b50505050508152602001600382018054610c3c906120cc565b80601f0160208091040260200160405190810160405280929190818152602001828054610c68906120cc565b8015610cb55780601f10610c8a57610100808354040283529160200191610cb5565b820191906000526020600020905b815481529060010190602001808311610c9857829003601f168201915b50505050508152602001600482018054610cce906120cc565b80601f0160208091040260200160405190810160405280929190818152602001828054610cfa906120cc565b8015610d475780601f10610d1c57610100808354040283529160200191610d47565b820191906000526020600020905b815481529060010190602001808311610d2a57829003601f168201915b5050505050815250509080600b0160405180606001604052908160008201805480602002602001604051908101604052809291908181526020016000905b82821015610e31578382906000526020600020018054610da4906120cc565b80601f0160208091040260200160405190810160405280929190818152602001828054610dd0906120cc565b8015610e1d5780601f10610df257610100808354040283529160200191610e1d565b820191906000526020600020905b815481529060010190602001808311610e0057829003601f168201915b505050505081526020019060010190610d85565b50505050815260200160018201805480602002602001604051908101604052809291908181526020016000905b82821015610f0a578382906000526020600020018054610e7d906120cc565b80601f0160208091040260200160405190810160405280929190818152602001828054610ea9906120cc565b8015610ef65780601f10610ecb57610100808354040283529160200191610ef6565b820191906000526020600020905b815481529060010190602001808311610ed957829003601f168201915b505050505081526020019060010190610e5e565b50505050815260200160028201805480602002602001604051908101604052809291908181526020016000905b82821015610fe3578382906000526020600020018054610f56906120cc565b80601f0160208091040260200160405190810160405280929190818152602001828054610f82906120cc565b8015610fcf5780601f10610fa457610100808354040283529160200191610fcf565b820191906000526020600020905b815481529060010190602001808311610fb257829003601f168201915b505050505081526020019060010190610f37565b5050505081525050905088565b610ff86116a5565b8381600001819052508281602001819052508181604001819052506000803373ffffffffffffffffffffffffffffffffffffffff1673ffffffffffffffffffffffffffffffffffffffff168152602001908152602001600020600e01819080600181540180825580915050600190039060005260206000209060030201600090919091909150600082015181600001908051906020019061109a92919061161f565b5060208201518160010190805190602001906110b792919061161f565b5060408201518160020190805190602001906110d492919061161f565b50505050505050565b6000803373ffffffffffffffffffffffffffffffffffffffff1673ffffffffffffffffffffffffffffffffffffffff168152602001908152602001600020600e01600061112a91906116c6565b565b60608060606000803373ffffffffffffffffffffffffffffffffffffffff1673ffffffffffffffffffffffffffffffffffffffff168152602001908152602001600020600e0184815481106111845761118361215e565b5b90600052602060002090600302016000016000803373ffffffffffffffffffffffffffffffffffffffff1673ffffffffffffffffffffffffffffffffffffffff168152602001908152602001600020600e0185815481106111e8576111e761215e565b5b90600052602060002090600302016001016000803373ffffffffffffffffffffffffffffffffffffffff1673ffffffffffffffffffffffffffffffffffffffff168152602001908152602001600020600e01868154811061124c5761124b61215e565b5b9060005260206000209060030201600201828054611269906120cc565b80601f0160208091040260200160405190810160405280929190818152602001828054611295906120cc565b80156112e25780601f106112b7576101008083540402835291602001916112e2565b820191906000526020600020905b8154815290600101906020018083116112c557829003601f168201915b505050505092508180546112f5906120cc565b80601f0160208091040260200160405190810160405280929190818152602001828054611321906120cc565b801561136e5780601f106113435761010080835404028352916020019161136e565b820191906000526020600020905b81548152906001019060200180831161135157829003601f168201915b50505050509150808054611381906120cc565b80601f01602080910402602001604051908101604052809291908181526020018280546113ad906120cc565b80156113fa5780601f106113cf576101008083540402835291602001916113fa565b820191906000526020600020905b8154815290600101906020018083116113dd57829003601f168201915b505050505090509250925092509193909250565b6000803373ffffffffffffffffffffffffffffffffffffffff1673ffffffffffffffffffffffffffffffffffffffff168152602001908152602001600020600080820160006101000a81549073ffffffffffffffffffffffffffffffffffffffff021916905560018201600061148491906115df565b60028201600061149491906115df565b6003820160006114a491906115df565b6004820160006114b491906115df565b600582016000905560068201600080820160006114d191906115df565b6001820160006114e191906115df565b6002820160006114f191906115df565b60038201600061150191906115df565b60048201600061151191906115df565b5050600b820160008082016000611528919061155e565b600182016000611538919061155e565b600282016000611548919061155e565b5050600e8201600061155a91906116c6565b5050565b508054600082559060005260206000209081019061157c91906116ea565b50565b8280548282559060005260206000209081019282156115ce579160200282015b828111156115cd5782518290805190602001906115bd92919061161f565b509160200191906001019061159f565b5b5090506115db91906116ea565b5090565b5080546115eb906120cc565b6000825580601f106115fd575061161c565b601f01602090049060005260206000209081019061161b919061170e565b5b50565b82805461162b906120cc565b90600052602060002090601f01602090048101928261164d5760008555611694565b82601f1061166657805160ff1916838001178555611694565b82800160010185558215611694579182015b82811115611693578251825591602001919060010190611678565b5b5090506116a1919061170e565b5090565b60405180606001604052806060815260200160608152602001606081525090565b50805460008255600302906000526020600020908101906116e7919061172b565b50565b5b8082111561170a576000818161170191906115df565b506001016116eb565b5090565b5b8082111561172757600081600090555060010161170f565b5090565b5b8082111561176e576000808201600061174591906115df565b60018201600061175591906115df565b60028201600061176591906115df565b5060030161172c565b5090565b600061178561178084611f8b565b611f66565b905080838252602082019050828560208602820111156117a8576117a76121c1565b5b60005b858110156117f657813567ffffffffffffffff8111156117ce576117cd6121bc565b5b8086016117db8982611885565b855260208501945060208401935050506001810190506117ab565b5050509392505050565b600061181361180e84611fb7565b611f66565b90508281526020810184848401111561182f5761182e6121c6565b5b61183a84828561208a565b509392505050565b600081359050611851816121e6565b92915050565b600082601f83011261186c5761186b6121bc565b5b813561187c848260208601611772565b91505092915050565b600082601f83011261189a576118996121bc565b5b81356118aa848260208601611800565b91505092915050565b6000813590506118c2816121fd565b92915050565b6000602082840312156118de576118dd6121d0565b5b60006118ec84828501611842565b91505092915050565b60008060006060848603121561190e5761190d6121d0565b5b600084013567ffffffffffffffff81111561192c5761192b6121cb565b5b61193886828701611857565b935050602084013567ffffffffffffffff811115611959576119586121cb565b5b61196586828701611857565b925050604084013567ffffffffffffffff811115611986576119856121cb565b5b61199286828701611857565b9150509250925092565b6000806000606084860312156119b5576119b46121d0565b5b600084013567ffffffffffffffff8111156119d3576119d26121cb565b5b6119df86828701611885565b935050602084013567ffffffffffffffff811115611a00576119ff6121cb565b5b611a0c86828701611885565b925050604084013567ffffffffffffffff811115611a2d57611a2c6121cb565b5b611a3986828701611885565b9150509250925092565b60008060008060808587031215611a5d57611a5c6121d0565b5b600085013567ffffffffffffffff811115611a7b57611a7a6121cb565b5b611a8787828801611885565b945050602085013567ffffffffffffffff811115611aa857611aa76121cb565b5b611ab487828801611885565b935050604085013567ffffffffffffffff811115611ad557611ad46121cb565b5b611ae187828801611885565b925050606085013567ffffffffffffffff811115611b0257611b016121cb565b5b611b0e87828801611885565b91505092959194509250565b600080600080600060a08688031215611b3657611b356121d0565b5b600086013567ffffffffffffffff811115611b5457611b536121cb565b5b611b6088828901611885565b955050602086013567ffffffffffffffff811115611b8157611b806121cb565b5b611b8d88828901611885565b945050604086013567ffffffffffffffff811115611bae57611bad6121cb565b5b611bba88828901611885565b935050606086013567ffffffffffffffff811115611bdb57611bda6121cb565b5b611be788828901611885565b925050608086013567ffffffffffffffff811115611c0857611c076121cb565b5b611c1488828901611885565b9150509295509295909350565b600060208284031215611c3757611c366121d0565b5b6000611c45848285016118b3565b91505092915050565b6000611c5a8383611ce6565b905092915050565b611c6b8161204e565b82525050565b6000611c7c82611ff8565b611c86818561201b565b935083602082028501611c9885611fe8565b8060005b85811015611cd45784840389528151611cb58582611c4e565b9450611cc08361200e565b925060208a01995050600181019050611c9c565b50829750879550505050505092915050565b6000611cf182612003565b611cfb818561202c565b9350611d0b818560208601612099565b611d14816121d5565b840191505092915050565b6000611d2a82612003565b611d34818561203d565b9350611d44818560208601612099565b611d4d816121d5565b840191505092915050565b600060a0830160008301518482036000860152611d758282611ce6565b91505060208301518482036020860152611d8f8282611ce6565b91505060408301518482036040860152611da98282611ce6565b91505060608301518482036060860152611dc38282611ce6565b91505060808301518482036080860152611ddd8282611ce6565b9150508091505092915050565b60006060830160008301518482036000860152611e078282611c71565b91505060208301518482036020860152611e218282611c71565b91505060408301518482036040860152611e3b8282611c71565b9150508091505092915050565b611e5181612080565b82525050565b600061010082019050611e6d600083018b611c62565b8181036020830152611e7f818a611d1f565b90508181036040830152611e938189611d1f565b90508181036060830152611ea78188611d1f565b90508181036080830152611ebb8187611d1f565b9050611eca60a0830186611e48565b81810360c0830152611edc8185611d58565b905081810360e0830152611ef08184611dea565b90509998505050505050505050565b60006060820190508181036000830152611f198186611d1f565b90508181036020830152611f2d8185611d1f565b90508181036040830152611f418184611d1f565b9050949350505050565b6000602082019050611f606000830184611e48565b92915050565b6000611f70611f81565b9050611f7c82826120fe565b919050565b6000604051905090565b600067ffffffffffffffff821115611fa657611fa561218d565b5b602082029050602081019050919050565b600067ffffffffffffffff821115611fd257611fd161218d565b5b611fdb826121d5565b9050602081019050919050565b6000819050602082019050919050565b600081519050919050565b600081519050919050565b6000602082019050919050565b600082825260208201905092915050565b600082825260208201905092915050565b600082825260208201905092915050565b600061205982612060565b9050919050565b600073ffffffffffffffffffffffffffffffffffffffff82169050919050565b6000819050919050565b82818337600083830152505050565b60005b838110156120b757808201518184015260208101905061209c565b838111156120c6576000848401525b50505050565b600060028204905060018216806120e457607f821691505b602082108114156120f8576120f761212f565b5b50919050565b612107826121d5565b810181811067ffffffffffffffff821117156121265761212561218d565b5b80604052505050565b7f4e487b7100000000000000000000000000000000000000000000000000000000600052602260045260246000fd5b7f4e487b7100000000000000000000000000000000000000000000000000000000600052603260045260246000fd5b7f4e487b7100000000000000000000000000000000000000000000000000000000600052604160045260246000fd5b600080fd5b600080fd5b600080fd5b600080fd5b600080fd5b6000601f19601f8301169050919050565b6121ef8161204e565b81146121fa57600080fd5b50565b61220681612080565b811461221157600080fd5b5056fea2646970667358221220114912dd87bb52384db01271dfe1f184a7e497105621052009a192298c103c2164736f6c63430008070033",
					"opcodes": "PUSH1 0x80 PUSH1 0x40 MSTORE CALLVALUE DUP1 ISZERO PUSH2 0x10 JUMPI PUSH1 0x0 DUP1 REVERT JUMPDEST POP PUSH2 0x224A DUP1 PUSH2 0x20 PUSH1 0x0 CODECOPY PUSH1 0x0 RETURN INVALID PUSH1 0x80 PUSH1 0x40 MSTORE CALLVALUE DUP1 ISZERO PUSH2 0x10 JUMPI PUSH1 0x0 DUP1 REVERT JUMPDEST POP PUSH1 0x4 CALLDATASIZE LT PUSH2 0x93 JUMPI PUSH1 0x0 CALLDATALOAD PUSH1 0xE0 SHR DUP1 PUSH4 0x9DD9D0FD GT PUSH2 0x66 JUMPI DUP1 PUSH4 0x9DD9D0FD EQ PUSH2 0x10A JUMPI DUP1 PUSH4 0xDC6D6A83 EQ PUSH2 0x141 JUMPI DUP1 PUSH4 0xED2217EF EQ PUSH2 0x15D JUMPI DUP1 PUSH4 0xF96E32F8 EQ PUSH2 0x167 JUMPI DUP1 PUSH4 0xFABCE08F EQ PUSH2 0x199 JUMPI PUSH2 0x93 JUMP JUMPDEST DUP1 PUSH4 0x3D984D0E EQ PUSH2 0x98 JUMPI DUP1 PUSH4 0x6212FA02 EQ PUSH2 0xB4 JUMPI DUP1 PUSH4 0x72828388 EQ PUSH2 0xD2 JUMPI DUP1 PUSH4 0x8C241FC4 EQ PUSH2 0xEE JUMPI JUMPDEST PUSH1 0x0 DUP1 REVERT JUMPDEST PUSH2 0xB2 PUSH1 0x4 DUP1 CALLDATASIZE SUB DUP2 ADD SWAP1 PUSH2 0xAD SWAP2 SWAP1 PUSH2 0x18F5 JUMP JUMPDEST PUSH2 0x1A3 JUMP JUMPDEST STOP JUMPDEST PUSH2 0xBC PUSH2 0x327 JUMP JUMPDEST PUSH1 0x40 MLOAD PUSH2 0xC9 SWAP2 SWAP1 PUSH2 0x1F4B JUMP JUMPDEST PUSH1 0x40 MLOAD DUP1 SWAP2 SUB SWAP1 RETURN JUMPDEST PUSH2 0xEC PUSH1 0x4 DUP1 CALLDATASIZE SUB DUP2 ADD SWAP1 PUSH2 0xE7 SWAP2 SWAP1 PUSH2 0x1B1A JUMP JUMPDEST PUSH2 0x373 JUMP JUMPDEST STOP JUMPDEST PUSH2 0x108 PUSH1 0x4 DUP1 CALLDATASIZE SUB DUP2 ADD SWAP1 PUSH2 0x103 SWAP2 SWAP1 PUSH2 0x1A43 JUMP JUMPDEST PUSH2 0x5CB JUMP JUMPDEST STOP JUMPDEST PUSH2 0x124 PUSH1 0x4 DUP1 CALLDATASIZE SUB DUP2 ADD SWAP1 PUSH2 0x11F SWAP2 SWAP1 PUSH2 0x18C8 JUMP JUMPDEST PUSH2 0x7EF JUMP JUMPDEST PUSH1 0x40 MLOAD PUSH2 0x138 SWAP9 SWAP8 SWAP7 SWAP6 SWAP5 SWAP4 SWAP3 SWAP2 SWAP1 PUSH2 0x1E57 JUMP JUMPDEST PUSH1 0x40 MLOAD DUP1 SWAP2 SUB SWAP1 RETURN JUMPDEST PUSH2 0x15B PUSH1 0x4 DUP1 CALLDATASIZE SUB DUP2 ADD SWAP1 PUSH2 0x156 SWAP2 SWAP1 PUSH2 0x199C JUMP JUMPDEST PUSH2 0xFF0 JUMP JUMPDEST STOP JUMPDEST PUSH2 0x165 PUSH2 0x10DD JUMP JUMPDEST STOP JUMPDEST PUSH2 0x181 PUSH1 0x4 DUP1 CALLDATASIZE SUB DUP2 ADD SWAP1 PUSH2 0x17C SWAP2 SWAP1 PUSH2 0x1C21 JUMP JUMPDEST PUSH2 0x112C JUMP JUMPDEST PUSH1 0x40 MLOAD PUSH2 0x190 SWAP4 SWAP3 SWAP2 SWAP1 PUSH2 0x1EFF JUMP JUMPDEST PUSH1 0x40 MLOAD DUP1 SWAP2 SUB SWAP1 RETURN JUMPDEST PUSH2 0x1A1 PUSH2 0x140E JUMP JUMPDEST STOP JUMPDEST PUSH1 0x0 DUP1 CALLER PUSH20 0xFFFFFFFFFFFFFFFFFFFFFFFFFFFFFFFFFFFFFFFF AND PUSH20 0xFFFFFFFFFFFFFFFFFFFFFFFFFFFFFFFFFFFFFFFF AND DUP2 MSTORE PUSH1 0x20 ADD SWAP1 DUP2 MSTORE PUSH1 0x20 ADD PUSH1 0x0 KECCAK256 PUSH1 0xB ADD PUSH1 0x0 DUP1 DUP3 ADD PUSH1 0x0 PUSH2 0x1F5 SWAP2 SWAP1 PUSH2 0x155E JUMP JUMPDEST PUSH1 0x1 DUP3 ADD PUSH1 0x0 PUSH2 0x205 SWAP2 SWAP1 PUSH2 0x155E JUMP JUMPDEST PUSH1 0x2 DUP3 ADD PUSH1 0x0 PUSH2 0x215 SWAP2 SWAP1 PUSH2 0x155E JUMP JUMPDEST POP POP DUP3 PUSH1 0x0 DUP1 CALLER PUSH20 0xFFFFFFFFFFFFFFFFFFFFFFFFFFFFFFFFFFFFFFFF AND PUSH20 0xFFFFFFFFFFFFFFFFFFFFFFFFFFFFFFFFFFFFFFFF AND DUP2 MSTORE PUSH1 0x20 ADD SWAP1 DUP2 MSTORE PUSH1 0x20 ADD PUSH1 0x0 KECCAK256 PUSH1 0xB ADD PUSH1 0x0 ADD SWAP1 DUP1 MLOAD SWAP1 PUSH1 0x20 ADD SWAP1 PUSH2 0x26F SWAP3 SWAP2 SWAP1 PUSH2 0x157F JUMP JUMPDEST POP DUP2 PUSH1 0x0 DUP1 CALLER PUSH20 0xFFFFFFFFFFFFFFFFFFFFFFFFFFFFFFFFFFFFFFFF AND PUSH20 0xFFFFFFFFFFFFFFFFFFFFFFFFFFFFFFFFFFFFFFFF AND DUP2 MSTORE PUSH1 0x20 ADD SWAP1 DUP2 MSTORE PUSH1 0x20 ADD PUSH1 0x0 KECCAK256 PUSH1 0xB ADD PUSH1 0x1 ADD SWAP1 DUP1 MLOAD SWAP1 PUSH1 0x20 ADD SWAP1 PUSH2 0x2C8 SWAP3 SWAP2 SWAP1 PUSH2 0x157F JUMP JUMPDEST POP DUP1 PUSH1 0x0 DUP1 CALLER PUSH20 0xFFFFFFFFFFFFFFFFFFFFFFFFFFFFFFFFFFFFFFFF AND PUSH20 0xFFFFFFFFFFFFFFFFFFFFFFFFFFFFFFFFFFFFFFFF AND DUP2 MSTORE PUSH1 0x20 ADD SWAP1 DUP2 MSTORE PUSH1 0x20 ADD PUSH1 0x0 KECCAK256 PUSH1 0xB ADD PUSH1 0x2 ADD SWAP1 DUP1 MLOAD SWAP1 PUSH1 0x20 ADD SWAP1 PUSH2 0x321 SWAP3 SWAP2 SWAP1 PUSH2 0x157F JUMP JUMPDEST POP POP POP POP JUMP JUMPDEST PUSH1 0x0 DUP1 PUSH1 0x0 CALLER PUSH20 0xFFFFFFFFFFFFFFFFFFFFFFFFFFFFFFFFFFFFFFFF AND PUSH20 0xFFFFFFFFFFFFFFFFFFFFFFFFFFFFFFFFFFFFFFFF AND DUP2 MSTORE PUSH1 0x20 ADD SWAP1 DUP2 MSTORE PUSH1 0x20 ADD PUSH1 0x0 KECCAK256 PUSH1 0xE ADD DUP1 SLOAD SWAP1 POP SWAP1 POP SWAP1 JUMP JUMPDEST PUSH1 0x0 DUP1 CALLER PUSH20 0xFFFFFFFFFFFFFFFFFFFFFFFFFFFFFFFFFFFFFFFF AND PUSH20 0xFFFFFFFFFFFFFFFFFFFFFFFFFFFFFFFFFFFFFFFF AND DUP2 MSTORE PUSH1 0x20 ADD SWAP1 DUP2 MSTORE PUSH1 0x20 ADD PUSH1 0x0 KECCAK256 PUSH1 0x6 ADD PUSH1 0x0 DUP1 DUP3 ADD PUSH1 0x0 PUSH2 0x3C5 SWAP2 SWAP1 PUSH2 0x15DF JUMP JUMPDEST PUSH1 0x1 DUP3 ADD PUSH1 0x0 PUSH2 0x3D5 SWAP2 SWAP1 PUSH2 0x15DF JUMP JUMPDEST PUSH1 0x2 DUP3 ADD PUSH1 0x0 PUSH2 0x3E5 SWAP2 SWAP1 PUSH2 0x15DF JUMP JUMPDEST PUSH1 0x3 DUP3 ADD PUSH1 0x0 PUSH2 0x3F5 SWAP2 SWAP1 PUSH2 0x15DF JUMP JUMPDEST PUSH1 0x4 DUP3 ADD PUSH1 0x0 PUSH2 0x405 SWAP2 SWAP1 PUSH2 0x15DF JUMP JUMPDEST POP POP DUP5 PUSH1 0x0 DUP1 CALLER PUSH20 0xFFFFFFFFFFFFFFFFFFFFFFFFFFFFFFFFFFFFFFFF AND PUSH20 0xFFFFFFFFFFFFFFFFFFFFFFFFFFFFFFFFFFFFFFFF AND DUP2 MSTORE PUSH1 0x20 ADD SWAP1 DUP2 MSTORE PUSH1 0x20 ADD PUSH1 0x0 KECCAK256 PUSH1 0x6 ADD PUSH1 0x0 ADD SWAP1 DUP1 MLOAD SWAP1 PUSH1 0x20 ADD SWAP1 PUSH2 0x45F SWAP3 SWAP2 SWAP1 PUSH2 0x161F JUMP JUMPDEST POP DUP4 PUSH1 0x0 DUP1 CALLER PUSH20 0xFFFFFFFFFFFFFFFFFFFFFFFFFFFFFFFFFFFFFFFF AND PUSH20 0xFFFFFFFFFFFFFFFFFFFFFFFFFFFFFFFFFFFFFFFF AND DUP2 MSTORE PUSH1 0x20 ADD SWAP1 DUP2 MSTORE PUSH1 0x20 ADD PUSH1 0x0 KECCAK256 PUSH1 0x6 ADD PUSH1 0x1 ADD SWAP1 DUP1 MLOAD SWAP1 PUSH1 0x20 ADD SWAP1 PUSH2 0x4B8 SWAP3 SWAP2 SWAP1 PUSH2 0x161F JUMP JUMPDEST POP DUP3 PUSH1 0x0 DUP1 CALLER PUSH20 0xFFFFFFFFFFFFFFFFFFFFFFFFFFFFFFFFFFFFFFFF AND PUSH20 0xFFFFFFFFFFFFFFFFFFFFFFFFFFFFFFFFFFFFFFFF AND DUP2 MSTORE PUSH1 0x20 ADD SWAP1 DUP2 MSTORE PUSH1 0x20 ADD PUSH1 0x0 KECCAK256 PUSH1 0x6 ADD PUSH1 0x0 ADD SWAP1 DUP1 MLOAD SWAP1 PUSH1 0x20 ADD SWAP1 PUSH2 0x511 SWAP3 SWAP2 SWAP1 PUSH2 0x161F JUMP JUMPDEST POP DUP2 PUSH1 0x0 DUP1 CALLER PUSH20 0xFFFFFFFFFFFFFFFFFFFFFFFFFFFFFFFFFFFFFFFF AND PUSH20 0xFFFFFFFFFFFFFFFFFFFFFFFFFFFFFFFFFFFFFFFF AND DUP2 MSTORE PUSH1 0x20 ADD SWAP1 DUP2 MSTORE PUSH1 0x20 ADD PUSH1 0x0 KECCAK256 PUSH1 0x6 ADD PUSH1 0x1 ADD SWAP1 DUP1 MLOAD SWAP1 PUSH1 0x20 ADD SWAP1 PUSH2 0x56A SWAP3 SWAP2 SWAP1 PUSH2 0x161F JUMP JUMPDEST POP DUP1 PUSH1 0x0 DUP1 CALLER PUSH20 0xFFFFFFFFFFFFFFFFFFFFFFFFFFFFFFFFFFFFFFFF AND PUSH20 0xFFFFFFFFFFFFFFFFFFFFFFFFFFFFFFFFFFFFFFFF AND DUP2 MSTORE PUSH1 0x20 ADD SWAP1 DUP2 MSTORE PUSH1 0x20 ADD PUSH1 0x0 KECCAK256 PUSH1 0x6 ADD PUSH1 0x0 ADD SWAP1 DUP1 MLOAD SWAP1 PUSH1 0x20 ADD SWAP1 PUSH2 0x5C3 SWAP3 SWAP2 SWAP1 PUSH2 0x161F JUMP JUMPDEST POP POP POP POP POP POP JUMP JUMPDEST DUP4 PUSH1 0x0 DUP1 CALLER PUSH20 0xFFFFFFFFFFFFFFFFFFFFFFFFFFFFFFFFFFFFFFFF AND PUSH20 0xFFFFFFFFFFFFFFFFFFFFFFFFFFFFFFFFFFFFFFFF AND DUP2 MSTORE PUSH1 0x20 ADD SWAP1 DUP2 MSTORE PUSH1 0x20 ADD PUSH1 0x0 KECCAK256 PUSH1 0x1 ADD SWAP1 DUP1 MLOAD SWAP1 PUSH1 0x20 ADD SWAP1 PUSH2 0x620 SWAP3 SWAP2 SWAP1 PUSH2 0x161F JUMP JUMPDEST POP DUP3 PUSH1 0x0 DUP1 CALLER PUSH20 0xFFFFFFFFFFFFFFFFFFFFFFFFFFFFFFFFFFFFFFFF AND PUSH20 0xFFFFFFFFFFFFFFFFFFFFFFFFFFFFFFFFFFFFFFFF AND DUP2 MSTORE PUSH1 0x20 ADD SWAP1 DUP2 MSTORE PUSH1 0x20 ADD PUSH1 0x0 KECCAK256 PUSH1 0x2 ADD SWAP1 DUP1 MLOAD SWAP1 PUSH1 0x20 ADD SWAP1 PUSH2 0x676 SWAP3 SWAP2 SWAP1 PUSH2 0x161F JUMP JUMPDEST POP DUP2 PUSH1 0x0 DUP1 CALLER PUSH20 0xFFFFFFFFFFFFFFFFFFFFFFFFFFFFFFFFFFFFFFFF AND PUSH20 0xFFFFFFFFFFFFFFFFFFFFFFFFFFFFFFFFFFFFFFFF AND DUP2 MSTORE PUSH1 0x20 ADD SWAP1 DUP2 MSTORE PUSH1 0x20 ADD PUSH1 0x0 KECCAK256 PUSH1 0x3 ADD SWAP1 DUP1 MLOAD SWAP1 PUSH1 0x20 ADD SWAP1 PUSH2 0x6CC SWAP3 SWAP2 SWAP1 PUSH2 0x161F JUMP JUMPDEST POP DUP1 PUSH1 0x0 DUP1 CALLER PUSH20 0xFFFFFFFFFFFFFFFFFFFFFFFFFFFFFFFFFFFFFFFF AND PUSH20 0xFFFFFFFFFFFFFFFFFFFFFFFFFFFFFFFFFFFFFFFF AND DUP2 MSTORE PUSH1 0x20 ADD SWAP1 DUP2 MSTORE PUSH1 0x20 ADD PUSH1 0x0 KECCAK256 PUSH1 0x4 ADD SWAP1 DUP1 MLOAD SWAP1 PUSH1 0x20 ADD SWAP1 PUSH2 0x722 SWAP3 SWAP2 SWAP1 PUSH2 0x161F JUMP JUMPDEST POP CALLER PUSH1 0x0 DUP1 CALLER PUSH20 0xFFFFFFFFFFFFFFFFFFFFFFFFFFFFFFFFFFFFFFFF AND PUSH20 0xFFFFFFFFFFFFFFFFFFFFFFFFFFFFFFFFFFFFFFFF AND DUP2 MSTORE PUSH1 0x20 ADD SWAP1 DUP2 MSTORE PUSH1 0x20 ADD PUSH1 0x0 KECCAK256 PUSH1 0x0 ADD PUSH1 0x0 PUSH2 0x100 EXP DUP2 SLOAD DUP2 PUSH20 0xFFFFFFFFFFFFFFFFFFFFFFFFFFFFFFFFFFFFFFFF MUL NOT AND SWAP1 DUP4 PUSH20 0xFFFFFFFFFFFFFFFFFFFFFFFFFFFFFFFFFFFFFFFF AND MUL OR SWAP1 SSTORE POP TIMESTAMP PUSH1 0x0 DUP1 CALLER PUSH20 0xFFFFFFFFFFFFFFFFFFFFFFFFFFFFFFFFFFFFFFFF AND PUSH20 0xFFFFFFFFFFFFFFFFFFFFFFFFFFFFFFFFFFFFFFFF AND DUP2 MSTORE PUSH1 0x20 ADD SWAP1 DUP2 MSTORE PUSH1 0x20 ADD PUSH1 0x0 KECCAK256 PUSH1 0x5 ADD DUP2 SWAP1 SSTORE POP POP POP POP POP JUMP JUMPDEST PUSH1 0x0 PUSH1 0x20 MSTORE DUP1 PUSH1 0x0 MSTORE PUSH1 0x40 PUSH1 0x0 KECCAK256 PUSH1 0x0 SWAP2 POP SWAP1 POP DUP1 PUSH1 0x0 ADD PUSH1 0x0 SWAP1 SLOAD SWAP1 PUSH2 0x100 EXP SWAP1 DIV PUSH20 0xFFFFFFFFFFFFFFFFFFFFFFFFFFFFFFFFFFFFFFFF AND SWAP1 DUP1 PUSH1 0x1 ADD DUP1 SLOAD PUSH2 0x838 SWAP1 PUSH2 0x20CC JUMP JUMPDEST DUP1 PUSH1 0x1F ADD PUSH1 0x20 DUP1 SWAP2 DIV MUL PUSH1 0x20 ADD PUSH1 0x40 MLOAD SWAP1 DUP2 ADD PUSH1 0x40 MSTORE DUP1 SWAP3 SWAP2 SWAP1 DUP2 DUP2 MSTORE PUSH1 0x20 ADD DUP3 DUP1 SLOAD PUSH2 0x864 SWAP1 PUSH2 0x20CC JUMP JUMPDEST DUP1 ISZERO PUSH2 0x8B1 JUMPI DUP1 PUSH1 0x1F LT PUSH2 0x886 JUMPI PUSH2 0x100 DUP1 DUP4 SLOAD DIV MUL DUP4 MSTORE SWAP2 PUSH1 0x20 ADD SWAP2 PUSH2 0x8B1 JUMP JUMPDEST DUP3 ADD SWAP2 SWAP1 PUSH1 0x0 MSTORE PUSH1 0x20 PUSH1 0x0 KECCAK256 SWAP1 JUMPDEST DUP2 SLOAD DUP2 MSTORE SWAP1 PUSH1 0x1 ADD SWAP1 PUSH1 0x20 ADD DUP1 DUP4 GT PUSH2 0x894 JUMPI DUP3 SWAP1 SUB PUSH1 0x1F AND DUP3 ADD SWAP2 JUMPDEST POP POP POP POP POP SWAP1 DUP1 PUSH1 0x2 ADD DUP1 SLOAD PUSH2 0x8C6 SWAP1 PUSH2 0x20CC JUMP JUMPDEST DUP1 PUSH1 0x1F ADD PUSH1 0x20 DUP1 SWAP2 DIV MUL PUSH1 0x20 ADD PUSH1 0x40 MLOAD SWAP1 DUP2 ADD PUSH1 0x40 MSTORE DUP1 SWAP3 SWAP2 SWAP1 DUP2 DUP2 MSTORE PUSH1 0x20 ADD DUP3 DUP1 SLOAD PUSH2 0x8F2 SWAP1 PUSH2 0x20CC JUMP JUMPDEST DUP1 ISZERO PUSH2 0x93F JUMPI DUP1 PUSH1 0x1F LT PUSH2 0x914 JUMPI PUSH2 0x100 DUP1 DUP4 SLOAD DIV MUL DUP4 MSTORE SWAP2 PUSH1 0x20 ADD SWAP2 PUSH2 0x93F JUMP JUMPDEST DUP3 ADD SWAP2 SWAP1 PUSH1 0x0 MSTORE PUSH1 0x20 PUSH1 0x0 KECCAK256 SWAP1 JUMPDEST DUP2 SLOAD DUP2 MSTORE SWAP1 PUSH1 0x1 ADD SWAP1 PUSH1 0x20 ADD DUP1 DUP4 GT PUSH2 0x922 JUMPI DUP3 SWAP1 SUB PUSH1 0x1F AND DUP3 ADD SWAP2 JUMPDEST POP POP POP POP POP SWAP1 DUP1 PUSH1 0x3 ADD DUP1 SLOAD PUSH2 0x954 SWAP1 PUSH2 0x20CC JUMP JUMPDEST DUP1 PUSH1 0x1F ADD PUSH1 0x20 DUP1 SWAP2 DIV MUL PUSH1 0x20 ADD PUSH1 0x40 MLOAD SWAP1 DUP2 ADD PUSH1 0x40 MSTORE DUP1 SWAP3 SWAP2 SWAP1 DUP2 DUP2 MSTORE PUSH1 0x20 ADD DUP3 DUP1 SLOAD PUSH2 0x980 SWAP1 PUSH2 0x20CC JUMP JUMPDEST DUP1 ISZERO PUSH2 0x9CD JUMPI DUP1 PUSH1 0x1F LT PUSH2 0x9A2 JUMPI PUSH2 0x100 DUP1 DUP4 SLOAD DIV MUL DUP4 MSTORE SWAP2 PUSH1 0x20 ADD SWAP2 PUSH2 0x9CD JUMP JUMPDEST DUP3 ADD SWAP2 SWAP1 PUSH1 0x0 MSTORE PUSH1 0x20 PUSH1 0x0 KECCAK256 SWAP1 JUMPDEST DUP2 SLOAD DUP2 MSTORE SWAP1 PUSH1 0x1 ADD SWAP1 PUSH1 0x20 ADD DUP1 DUP4 GT PUSH2 0x9B0 JUMPI DUP3 SWAP1 SUB PUSH1 0x1F AND DUP3 ADD SWAP2 JUMPDEST POP POP POP POP POP SWAP1 DUP1 PUSH1 0x4 ADD DUP1 SLOAD PUSH2 0x9E2 SWAP1 PUSH2 0x20CC JUMP JUMPDEST DUP1 PUSH1 0x1F ADD PUSH1 0x20 DUP1 SWAP2 DIV MUL PUSH1 0x20 ADD PUSH1 0x40 MLOAD SWAP1 DUP2 ADD PUSH1 0x40 MSTORE DUP1 SWAP3 SWAP2 SWAP1 DUP2 DUP2 MSTORE PUSH1 0x20 ADD DUP3 DUP1 SLOAD PUSH2 0xA0E SWAP1 PUSH2 0x20CC JUMP JUMPDEST DUP1 ISZERO PUSH2 0xA5B JUMPI DUP1 PUSH1 0x1F LT PUSH2 0xA30 JUMPI PUSH2 0x100 DUP1 DUP4 SLOAD DIV MUL DUP4 MSTORE SWAP2 PUSH1 0x20 ADD SWAP2 PUSH2 0xA5B JUMP JUMPDEST DUP3 ADD SWAP2 SWAP1 PUSH1 0x0 MSTORE PUSH1 0x20 PUSH1 0x0 KECCAK256 SWAP1 JUMPDEST DUP2 SLOAD DUP2 MSTORE SWAP1 PUSH1 0x1 ADD SWAP1 PUSH1 0x20 ADD DUP1 DUP4 GT PUSH2 0xA3E JUMPI DUP3 SWAP1 SUB PUSH1 0x1F AND DUP3 ADD SWAP2 JUMPDEST POP POP POP POP POP SWAP1 DUP1 PUSH1 0x5 ADD SLOAD SWAP1 DUP1 PUSH1 0x6 ADD PUSH1 0x40 MLOAD DUP1 PUSH1 0xA0 ADD PUSH1 0x40 MSTORE SWAP1 DUP2 PUSH1 0x0 DUP3 ADD DUP1 SLOAD PUSH2 0xA86 SWAP1 PUSH2 0x20CC JUMP JUMPDEST DUP1 PUSH1 0x1F ADD PUSH1 0x20 DUP1 SWAP2 DIV MUL PUSH1 0x20 ADD PUSH1 0x40 MLOAD SWAP1 DUP2 ADD PUSH1 0x40 MSTORE DUP1 SWAP3 SWAP2 SWAP1 DUP2 DUP2 MSTORE PUSH1 0x20 ADD DUP3 DUP1 SLOAD PUSH2 0xAB2 SWAP1 PUSH2 0x20CC JUMP JUMPDEST DUP1 ISZERO PUSH2 0xAFF JUMPI DUP1 PUSH1 0x1F LT PUSH2 0xAD4 JUMPI PUSH2 0x100 DUP1 DUP4 SLOAD DIV MUL DUP4 MSTORE SWAP2 PUSH1 0x20 ADD SWAP2 PUSH2 0xAFF JUMP JUMPDEST DUP3 ADD SWAP2 SWAP1 PUSH1 0x0 MSTORE PUSH1 0x20 PUSH1 0x0 KECCAK256 SWAP1 JUMPDEST DUP2 SLOAD DUP2 MSTORE SWAP1 PUSH1 0x1 ADD SWAP1 PUSH1 0x20 ADD DUP1 DUP4 GT PUSH2 0xAE2 JUMPI DUP3 SWAP1 SUB PUSH1 0x1F AND DUP3 ADD SWAP2 JUMPDEST POP POP POP POP POP DUP2 MSTORE PUSH1 0x20 ADD PUSH1 0x1 DUP3 ADD DUP1 SLOAD PUSH2 0xB18 SWAP1 PUSH2 0x20CC JUMP JUMPDEST DUP1 PUSH1 0x1F ADD PUSH1 0x20 DUP1 SWAP2 DIV MUL PUSH1 0x20 ADD PUSH1 0x40 MLOAD SWAP1 DUP2 ADD PUSH1 0x40 MSTORE DUP1 SWAP3 SWAP2 SWAP1 DUP2 DUP2 MSTORE PUSH1 0x20 ADD DUP3 DUP1 SLOAD PUSH2 0xB44 SWAP1 PUSH2 0x20CC JUMP JUMPDEST DUP1 ISZERO PUSH2 0xB91 JUMPI DUP1 PUSH1 0x1F LT PUSH2 0xB66 JUMPI PUSH2 0x100 DUP1 DUP4 SLOAD DIV MUL DUP4 MSTORE SWAP2 PUSH1 0x20 ADD SWAP2 PUSH2 0xB91 JUMP JUMPDEST DUP3 ADD SWAP2 SWAP1 PUSH1 0x0 MSTORE PUSH1 0x20 PUSH1 0x0 KECCAK256 SWAP1 JUMPDEST DUP2 SLOAD DUP2 MSTORE SWAP1 PUSH1 0x1 ADD SWAP1 PUSH1 0x20 ADD DUP1 DUP4 GT PUSH2 0xB74 JUMPI DUP3 SWAP1 SUB PUSH1 0x1F AND DUP3 ADD SWAP2 JUMPDEST POP POP POP POP POP DUP2 MSTORE PUSH1 0x20 ADD PUSH1 0x2 DUP3 ADD DUP1 SLOAD PUSH2 0xBAA SWAP1 PUSH2 0x20CC JUMP JUMPDEST DUP1 PUSH1 0x1F ADD PUSH1 0x20 DUP1 SWAP2 DIV MUL PUSH1 0x20 ADD PUSH1 0x40 MLOAD SWAP1 DUP2 ADD PUSH1 0x40 MSTORE DUP1 SWAP3 SWAP2 SWAP1 DUP2 DUP2 MSTORE PUSH1 0x20 ADD DUP3 DUP1 SLOAD PUSH2 0xBD6 SWAP1 PUSH2 0x20CC JUMP JUMPDEST DUP1 ISZERO PUSH2 0xC23 JUMPI DUP1 PUSH1 0x1F LT PUSH2 0xBF8 JUMPI PUSH2 0x100 DUP1 DUP4 SLOAD DIV MUL DUP4 MSTORE SWAP2 PUSH1 0x20 ADD SWAP2 PUSH2 0xC23 JUMP JUMPDEST DUP3 ADD SWAP2 SWAP1 PUSH1 0x0 MSTORE PUSH1 0x20 PUSH1 0x0 KECCAK256 SWAP1 JUMPDEST DUP2 SLOAD DUP2 MSTORE SWAP1 PUSH1 0x1 ADD SWAP1 PUSH1 0x20 ADD DUP1 DUP4 GT PUSH2 0xC06 JUMPI DUP3 SWAP1 SUB PUSH1 0x1F AND DUP3 ADD SWAP2 JUMPDEST POP POP POP POP POP DUP2 MSTORE PUSH1 0x20 ADD PUSH1 0x3 DUP3 ADD DUP1 SLOAD PUSH2 0xC3C SWAP1 PUSH2 0x20CC JUMP JUMPDEST DUP1 PUSH1 0x1F ADD PUSH1 0x20 DUP1 SWAP2 DIV MUL PUSH1 0x20 ADD PUSH1 0x40 MLOAD SWAP1 DUP2 ADD PUSH1 0x40 MSTORE DUP1 SWAP3 SWAP2 SWAP1 DUP2 DUP2 MSTORE PUSH1 0x20 ADD DUP3 DUP1 SLOAD PUSH2 0xC68 SWAP1 PUSH2 0x20CC JUMP JUMPDEST DUP1 ISZERO PUSH2 0xCB5 JUMPI DUP1 PUSH1 0x1F LT PUSH2 0xC8A JUMPI PUSH2 0x100 DUP1 DUP4 SLOAD DIV MUL DUP4 MSTORE SWAP2 PUSH1 0x20 ADD SWAP2 PUSH2 0xCB5 JUMP JUMPDEST DUP3 ADD SWAP2 SWAP1 PUSH1 0x0 MSTORE PUSH1 0x20 PUSH1 0x0 KECCAK256 SWAP1 JUMPDEST DUP2 SLOAD DUP2 MSTORE SWAP1 PUSH1 0x1 ADD SWAP1 PUSH1 0x20 ADD DUP1 DUP4 GT PUSH2 0xC98 JUMPI DUP3 SWAP1 SUB PUSH1 0x1F AND DUP3 ADD SWAP2 JUMPDEST POP POP POP POP POP DUP2 MSTORE PUSH1 0x20 ADD PUSH1 0x4 DUP3 ADD DUP1 SLOAD PUSH2 0xCCE SWAP1 PUSH2 0x20CC JUMP JUMPDEST DUP1 PUSH1 0x1F ADD PUSH1 0x20 DUP1 SWAP2 DIV MUL PUSH1 0x20 ADD PUSH1 0x40 MLOAD SWAP1 DUP2 ADD PUSH1 0x40 MSTORE DUP1 SWAP3 SWAP2 SWAP1 DUP2 DUP2 MSTORE PUSH1 0x20 ADD DUP3 DUP1 SLOAD PUSH2 0xCFA SWAP1 PUSH2 0x20CC JUMP JUMPDEST DUP1 ISZERO PUSH2 0xD47 JUMPI DUP1 PUSH1 0x1F LT PUSH2 0xD1C JUMPI PUSH2 0x100 DUP1 DUP4 SLOAD DIV MUL DUP4 MSTORE SWAP2 PUSH1 0x20 ADD SWAP2 PUSH2 0xD47 JUMP JUMPDEST DUP3 ADD SWAP2 SWAP1 PUSH1 0x0 MSTORE PUSH1 0x20 PUSH1 0x0 KECCAK256 SWAP1 JUMPDEST DUP2 SLOAD DUP2 MSTORE SWAP1 PUSH1 0x1 ADD SWAP1 PUSH1 0x20 ADD DUP1 DUP4 GT PUSH2 0xD2A JUMPI DUP3 SWAP1 SUB PUSH1 0x1F AND DUP3 ADD SWAP2 JUMPDEST POP POP POP POP POP DUP2 MSTORE POP POP SWAP1 DUP1 PUSH1 0xB ADD PUSH1 0x40 MLOAD DUP1 PUSH1 0x60 ADD PUSH1 0x40 MSTORE SWAP1 DUP2 PUSH1 0x0 DUP3 ADD DUP1 SLOAD DUP1 PUSH1 0x20 MUL PUSH1 0x20 ADD PUSH1 0x40 MLOAD SWAP1 DUP2 ADD PUSH1 0x40 MSTORE DUP1 SWAP3 SWAP2 SWAP1 DUP2 DUP2 MSTORE PUSH1 0x20 ADD PUSH1 0x0 SWAP1 JUMPDEST DUP3 DUP3 LT ISZERO PUSH2 0xE31 JUMPI DUP4 DUP3 SWAP1 PUSH1 0x0 MSTORE PUSH1 0x20 PUSH1 0x0 KECCAK256 ADD DUP1 SLOAD PUSH2 0xDA4 SWAP1 PUSH2 0x20CC JUMP JUMPDEST DUP1 PUSH1 0x1F ADD PUSH1 0x20 DUP1 SWAP2 DIV MUL PUSH1 0x20 ADD PUSH1 0x40 MLOAD SWAP1 DUP2 ADD PUSH1 0x40 MSTORE DUP1 SWAP3 SWAP2 SWAP1 DUP2 DUP2 MSTORE PUSH1 0x20 ADD DUP3 DUP1 SLOAD PUSH2 0xDD0 SWAP1 PUSH2 0x20CC JUMP JUMPDEST DUP1 ISZERO PUSH2 0xE1D JUMPI DUP1 PUSH1 0x1F LT PUSH2 0xDF2 JUMPI PUSH2 0x100 DUP1 DUP4 SLOAD DIV MUL DUP4 MSTORE SWAP2 PUSH1 0x20 ADD SWAP2 PUSH2 0xE1D JUMP JUMPDEST DUP3 ADD SWAP2 SWAP1 PUSH1 0x0 MSTORE PUSH1 0x20 PUSH1 0x0 KECCAK256 SWAP1 JUMPDEST DUP2 SLOAD DUP2 MSTORE SWAP1 PUSH1 0x1 ADD SWAP1 PUSH1 0x20 ADD DUP1 DUP4 GT PUSH2 0xE00 JUMPI DUP3 SWAP1 SUB PUSH1 0x1F AND DUP3 ADD SWAP2 JUMPDEST POP POP POP POP POP DUP2 MSTORE PUSH1 0x20 ADD SWAP1 PUSH1 0x1 ADD SWAP1 PUSH2 0xD85 JUMP JUMPDEST POP POP POP POP DUP2 MSTORE PUSH1 0x20 ADD PUSH1 0x1 DUP3 ADD DUP1 SLOAD DUP1 PUSH1 0x20 MUL PUSH1 0x20 ADD PUSH1 0x40 MLOAD SWAP1 DUP2 ADD PUSH1 0x40 MSTORE DUP1 SWAP3 SWAP2 SWAP1 DUP2 DUP2 MSTORE PUSH1 0x20 ADD PUSH1 0x0 SWAP1 JUMPDEST DUP3 DUP3 LT ISZERO PUSH2 0xF0A JUMPI DUP4 DUP3 SWAP1 PUSH1 0x0 MSTORE PUSH1 0x20 PUSH1 0x0 KECCAK256 ADD DUP1 SLOAD PUSH2 0xE7D SWAP1 PUSH2 0x20CC JUMP JUMPDEST DUP1 PUSH1 0x1F ADD PUSH1 0x20 DUP1 SWAP2 DIV MUL PUSH1 0x20 ADD PUSH1 0x40 MLOAD SWAP1 DUP2 ADD PUSH1 0x40 MSTORE DUP1 SWAP3 SWAP2 SWAP1 DUP2 DUP2 MSTORE PUSH1 0x20 ADD DUP3 DUP1 SLOAD PUSH2 0xEA9 SWAP1 PUSH2 0x20CC JUMP JUMPDEST DUP1 ISZERO PUSH2 0xEF6 JUMPI DUP1 PUSH1 0x1F LT PUSH2 0xECB JUMPI PUSH2 0x100 DUP1 DUP4 SLOAD DIV MUL DUP4 MSTORE SWAP2 PUSH1 0x20 ADD SWAP2 PUSH2 0xEF6 JUMP JUMPDEST DUP3 ADD SWAP2 SWAP1 PUSH1 0x0 MSTORE PUSH1 0x20 PUSH1 0x0 KECCAK256 SWAP1 JUMPDEST DUP2 SLOAD DUP2 MSTORE SWAP1 PUSH1 0x1 ADD SWAP1 PUSH1 0x20 ADD DUP1 DUP4 GT PUSH2 0xED9 JUMPI DUP3 SWAP1 SUB PUSH1 0x1F AND DUP3 ADD SWAP2 JUMPDEST POP POP POP POP POP DUP2 MSTORE PUSH1 0x20 ADD SWAP1 PUSH1 0x1 ADD SWAP1 PUSH2 0xE5E JUMP JUMPDEST POP POP POP POP DUP2 MSTORE PUSH1 0x20 ADD PUSH1 0x2 DUP3 ADD DUP1 SLOAD DUP1 PUSH1 0x20 MUL PUSH1 0x20 ADD PUSH1 0x40 MLOAD SWAP1 DUP2 ADD PUSH1 0x40 MSTORE DUP1 SWAP3 SWAP2 SWAP1 DUP2 DUP2 MSTORE PUSH1 0x20 ADD PUSH1 0x0 SWAP1 JUMPDEST DUP3 DUP3 LT ISZERO PUSH2 0xFE3 JUMPI DUP4 DUP3 SWAP1 PUSH1 0x0 MSTORE PUSH1 0x20 PUSH1 0x0 KECCAK256 ADD DUP1 SLOAD PUSH2 0xF56 SWAP1 PUSH2 0x20CC JUMP JUMPDEST DUP1 PUSH1 0x1F ADD PUSH1 0x20 DUP1 SWAP2 DIV MUL PUSH1 0x20 ADD PUSH1 0x40 MLOAD SWAP1 DUP2 ADD PUSH1 0x40 MSTORE DUP1 SWAP3 SWAP2 SWAP1 DUP2 DUP2 MSTORE PUSH1 0x20 ADD DUP3 DUP1 SLOAD PUSH2 0xF82 SWAP1 PUSH2 0x20CC JUMP JUMPDEST DUP1 ISZERO PUSH2 0xFCF JUMPI DUP1 PUSH1 0x1F LT PUSH2 0xFA4 JUMPI PUSH2 0x100 DUP1 DUP4 SLOAD DIV MUL DUP4 MSTORE SWAP2 PUSH1 0x20 ADD SWAP2 PUSH2 0xFCF JUMP JUMPDEST DUP3 ADD SWAP2 SWAP1 PUSH1 0x0 MSTORE PUSH1 0x20 PUSH1 0x0 KECCAK256 SWAP1 JUMPDEST DUP2 SLOAD DUP2 MSTORE SWAP1 PUSH1 0x1 ADD SWAP1 PUSH1 0x20 ADD DUP1 DUP4 GT PUSH2 0xFB2 JUMPI DUP3 SWAP1 SUB PUSH1 0x1F AND DUP3 ADD SWAP2 JUMPDEST POP POP POP POP POP DUP2 MSTORE PUSH1 0x20 ADD SWAP1 PUSH1 0x1 ADD SWAP1 PUSH2 0xF37 JUMP JUMPDEST POP POP POP POP DUP2 MSTORE POP POP SWAP1 POP DUP9 JUMP JUMPDEST PUSH2 0xFF8 PUSH2 0x16A5 JUMP JUMPDEST DUP4 DUP2 PUSH1 0x0 ADD DUP2 SWAP1 MSTORE POP DUP3 DUP2 PUSH1 0x20 ADD DUP2 SWAP1 MSTORE POP DUP2 DUP2 PUSH1 0x40 ADD DUP2 SWAP1 MSTORE POP PUSH1 0x0 DUP1 CALLER PUSH20 0xFFFFFFFFFFFFFFFFFFFFFFFFFFFFFFFFFFFFFFFF AND PUSH20 0xFFFFFFFFFFFFFFFFFFFFFFFFFFFFFFFFFFFFFFFF AND DUP2 MSTORE PUSH1 0x20 ADD SWAP1 DUP2 MSTORE PUSH1 0x20 ADD PUSH1 0x0 KECCAK256 PUSH1 0xE ADD DUP2 SWAP1 DUP1 PUSH1 0x1 DUP2 SLOAD ADD DUP1 DUP3 SSTORE DUP1 SWAP2 POP POP PUSH1 0x1 SWAP1 SUB SWAP1 PUSH1 0x0 MSTORE PUSH1 0x20 PUSH1 0x0 KECCAK256 SWAP1 PUSH1 0x3 MUL ADD PUSH1 0x0 SWAP1 SWAP2 SWAP1 SWAP2 SWAP1 SWAP2 POP PUSH1 0x0 DUP3 ADD MLOAD DUP2 PUSH1 0x0 ADD SWAP1 DUP1 MLOAD SWAP1 PUSH1 0x20 ADD SWAP1 PUSH2 0x109A SWAP3 SWAP2 SWAP1 PUSH2 0x161F JUMP JUMPDEST POP PUSH1 0x20 DUP3 ADD MLOAD DUP2 PUSH1 0x1 ADD SWAP1 DUP1 MLOAD SWAP1 PUSH1 0x20 ADD SWAP1 PUSH2 0x10B7 SWAP3 SWAP2 SWAP1 PUSH2 0x161F JUMP JUMPDEST POP PUSH1 0x40 DUP3 ADD MLOAD DUP2 PUSH1 0x2 ADD SWAP1 DUP1 MLOAD SWAP1 PUSH1 0x20 ADD SWAP1 PUSH2 0x10D4 SWAP3 SWAP2 SWAP1 PUSH2 0x161F JUMP JUMPDEST POP POP POP POP POP POP POP JUMP JUMPDEST PUSH1 0x0 DUP1 CALLER PUSH20 0xFFFFFFFFFFFFFFFFFFFFFFFFFFFFFFFFFFFFFFFF AND PUSH20 0xFFFFFFFFFFFFFFFFFFFFFFFFFFFFFFFFFFFFFFFF AND DUP2 MSTORE PUSH1 0x20 ADD SWAP1 DUP2 MSTORE PUSH1 0x20 ADD PUSH1 0x0 KECCAK256 PUSH1 0xE ADD PUSH1 0x0 PUSH2 0x112A SWAP2 SWAP1 PUSH2 0x16C6 JUMP JUMPDEST JUMP JUMPDEST PUSH1 0x60 DUP1 PUSH1 0x60 PUSH1 0x0 DUP1 CALLER PUSH20 0xFFFFFFFFFFFFFFFFFFFFFFFFFFFFFFFFFFFFFFFF AND PUSH20 0xFFFFFFFFFFFFFFFFFFFFFFFFFFFFFFFFFFFFFFFF AND DUP2 MSTORE PUSH1 0x20 ADD SWAP1 DUP2 MSTORE PUSH1 0x20 ADD PUSH1 0x0 KECCAK256 PUSH1 0xE ADD DUP5 DUP2 SLOAD DUP2 LT PUSH2 0x1184 JUMPI PUSH2 0x1183 PUSH2 0x215E JUMP JUMPDEST JUMPDEST SWAP1 PUSH1 0x0 MSTORE PUSH1 0x20 PUSH1 0x0 KECCAK256 SWAP1 PUSH1 0x3 MUL ADD PUSH1 0x0 ADD PUSH1 0x0 DUP1 CALLER PUSH20 0xFFFFFFFFFFFFFFFFFFFFFFFFFFFFFFFFFFFFFFFF AND PUSH20 0xFFFFFFFFFFFFFFFFFFFFFFFFFFFFFFFFFFFFFFFF AND DUP2 MSTORE PUSH1 0x20 ADD SWAP1 DUP2 MSTORE PUSH1 0x20 ADD PUSH1 0x0 KECCAK256 PUSH1 0xE ADD DUP6 DUP2 SLOAD DUP2 LT PUSH2 0x11E8 JUMPI PUSH2 0x11E7 PUSH2 0x215E JUMP JUMPDEST JUMPDEST SWAP1 PUSH1 0x0 MSTORE PUSH1 0x20 PUSH1 0x0 KECCAK256 SWAP1 PUSH1 0x3 MUL ADD PUSH1 0x1 ADD PUSH1 0x0 DUP1 CALLER PUSH20 0xFFFFFFFFFFFFFFFFFFFFFFFFFFFFFFFFFFFFFFFF AND PUSH20 0xFFFFFFFFFFFFFFFFFFFFFFFFFFFFFFFFFFFFFFFF AND DUP2 MSTORE PUSH1 0x20 ADD SWAP1 DUP2 MSTORE PUSH1 0x20 ADD PUSH1 0x0 KECCAK256 PUSH1 0xE ADD DUP7 DUP2 SLOAD DUP2 LT PUSH2 0x124C JUMPI PUSH2 0x124B PUSH2 0x215E JUMP JUMPDEST JUMPDEST SWAP1 PUSH1 0x0 MSTORE PUSH1 0x20 PUSH1 0x0 KECCAK256 SWAP1 PUSH1 0x3 MUL ADD PUSH1 0x2 ADD DUP3 DUP1 SLOAD PUSH2 0x1269 SWAP1 PUSH2 0x20CC JUMP JUMPDEST DUP1 PUSH1 0x1F ADD PUSH1 0x20 DUP1 SWAP2 DIV MUL PUSH1 0x20 ADD PUSH1 0x40 MLOAD SWAP1 DUP2 ADD PUSH1 0x40 MSTORE DUP1 SWAP3 SWAP2 SWAP1 DUP2 DUP2 MSTORE PUSH1 0x20 ADD DUP3 DUP1 SLOAD PUSH2 0x1295 SWAP1 PUSH2 0x20CC JUMP JUMPDEST DUP1 ISZERO PUSH2 0x12E2 JUMPI DUP1 PUSH1 0x1F LT PUSH2 0x12B7 JUMPI PUSH2 0x100 DUP1 DUP4 SLOAD DIV MUL DUP4 MSTORE SWAP2 PUSH1 0x20 ADD SWAP2 PUSH2 0x12E2 JUMP JUMPDEST DUP3 ADD SWAP2 SWAP1 PUSH1 0x0 MSTORE PUSH1 0x20 PUSH1 0x0 KECCAK256 SWAP1 JUMPDEST DUP2 SLOAD DUP2 MSTORE SWAP1 PUSH1 0x1 ADD SWAP1 PUSH1 0x20 ADD DUP1 DUP4 GT PUSH2 0x12C5 JUMPI DUP3 SWAP1 SUB PUSH1 0x1F AND DUP3 ADD SWAP2 JUMPDEST POP POP POP POP POP SWAP3 POP DUP2 DUP1 SLOAD PUSH2 0x12F5 SWAP1 PUSH2 0x20CC JUMP JUMPDEST DUP1 PUSH1 0x1F ADD PUSH1 0x20 DUP1 SWAP2 DIV MUL PUSH1 0x20 ADD PUSH1 0x40 MLOAD SWAP1 DUP2 ADD PUSH1 0x40 MSTORE DUP1 SWAP3 SWAP2 SWAP1 DUP2 DUP2 MSTORE PUSH1 0x20 ADD DUP3 DUP1 SLOAD PUSH2 0x1321 SWAP1 PUSH2 0x20CC JUMP JUMPDEST DUP1 ISZERO PUSH2 0x136E JUMPI DUP1 PUSH1 0x1F LT PUSH2 0x1343 JUMPI PUSH2 0x100 DUP1 DUP4 SLOAD DIV MUL DUP4 MSTORE SWAP2 PUSH1 0x20 ADD SWAP2 PUSH2 0x136E JUMP JUMPDEST DUP3 ADD SWAP2 SWAP1 PUSH1 0x0 MSTORE PUSH1 0x20 PUSH1 0x0 KECCAK256 SWAP1 JUMPDEST DUP2 SLOAD DUP2 MSTORE SWAP1 PUSH1 0x1 ADD SWAP1 PUSH1 0x20 ADD DUP1 DUP4 GT PUSH2 0x1351 JUMPI DUP3 SWAP1 SUB PUSH1 0x1F AND DUP3 ADD SWAP2 JUMPDEST POP POP POP POP POP SWAP2 POP DUP1 DUP1 SLOAD PUSH2 0x1381 SWAP1 PUSH2 0x20CC JUMP JUMPDEST DUP1 PUSH1 0x1F ADD PUSH1 0x20 DUP1 SWAP2 DIV MUL PUSH1 0x20 ADD PUSH1 0x40 MLOAD SWAP1 DUP2 ADD PUSH1 0x40 MSTORE DUP1 SWAP3 SWAP2 SWAP1 DUP2 DUP2 MSTORE PUSH1 0x20 ADD DUP3 DUP1 SLOAD PUSH2 0x13AD SWAP1 PUSH2 0x20CC JUMP JUMPDEST DUP1 ISZERO PUSH2 0x13FA JUMPI DUP1 PUSH1 0x1F LT PUSH2 0x13CF JUMPI PUSH2 0x100 DUP1 DUP4 SLOAD DIV MUL DUP4 MSTORE SWAP2 PUSH1 0x20 ADD SWAP2 PUSH2 0x13FA JUMP JUMPDEST DUP3 ADD SWAP2 SWAP1 PUSH1 0x0 MSTORE PUSH1 0x20 PUSH1 0x0 KECCAK256 SWAP1 JUMPDEST DUP2 SLOAD DUP2 MSTORE SWAP1 PUSH1 0x1 ADD SWAP1 PUSH1 0x20 ADD DUP1 DUP4 GT PUSH2 0x13DD JUMPI DUP3 SWAP1 SUB PUSH1 0x1F AND DUP3 ADD SWAP2 JUMPDEST POP POP POP POP POP SWAP1 POP SWAP3 POP SWAP3 POP SWAP3 POP SWAP2 SWAP4 SWAP1 SWAP3 POP JUMP JUMPDEST PUSH1 0x0 DUP1 CALLER PUSH20 0xFFFFFFFFFFFFFFFFFFFFFFFFFFFFFFFFFFFFFFFF AND PUSH20 0xFFFFFFFFFFFFFFFFFFFFFFFFFFFFFFFFFFFFFFFF AND DUP2 MSTORE PUSH1 0x20 ADD SWAP1 DUP2 MSTORE PUSH1 0x20 ADD PUSH1 0x0 KECCAK256 PUSH1 0x0 DUP1 DUP3 ADD PUSH1 0x0 PUSH2 0x100 EXP DUP2 SLOAD SWAP1 PUSH20 0xFFFFFFFFFFFFFFFFFFFFFFFFFFFFFFFFFFFFFFFF MUL NOT AND SWAP1 SSTORE PUSH1 0x1 DUP3 ADD PUSH1 0x0 PUSH2 0x1484 SWAP2 SWAP1 PUSH2 0x15DF JUMP JUMPDEST PUSH1 0x2 DUP3 ADD PUSH1 0x0 PUSH2 0x1494 SWAP2 SWAP1 PUSH2 0x15DF JUMP JUMPDEST PUSH1 0x3 DUP3 ADD PUSH1 0x0 PUSH2 0x14A4 SWAP2 SWAP1 PUSH2 0x15DF JUMP JUMPDEST PUSH1 0x4 DUP3 ADD PUSH1 0x0 PUSH2 0x14B4 SWAP2 SWAP1 PUSH2 0x15DF JUMP JUMPDEST PUSH1 0x5 DUP3 ADD PUSH1 0x0 SWAP1 SSTORE PUSH1 0x6 DUP3 ADD PUSH1 0x0 DUP1 DUP3 ADD PUSH1 0x0 PUSH2 0x14D1 SWAP2 SWAP1 PUSH2 0x15DF JUMP JUMPDEST PUSH1 0x1 DUP3 ADD PUSH1 0x0 PUSH2 0x14E1 SWAP2 SWAP1 PUSH2 0x15DF JUMP JUMPDEST PUSH1 0x2 DUP3 ADD PUSH1 0x0 PUSH2 0x14F1 SWAP2 SWAP1 PUSH2 0x15DF JUMP JUMPDEST PUSH1 0x3 DUP3 ADD PUSH1 0x0 PUSH2 0x1501 SWAP2 SWAP1 PUSH2 0x15DF JUMP JUMPDEST PUSH1 0x4 DUP3 ADD PUSH1 0x0 PUSH2 0x1511 SWAP2 SWAP1 PUSH2 0x15DF JUMP JUMPDEST POP POP PUSH1 0xB DUP3 ADD PUSH1 0x0 DUP1 DUP3 ADD PUSH1 0x0 PUSH2 0x1528 SWAP2 SWAP1 PUSH2 0x155E JUMP JUMPDEST PUSH1 0x1 DUP3 ADD PUSH1 0x0 PUSH2 0x1538 SWAP2 SWAP1 PUSH2 0x155E JUMP JUMPDEST PUSH1 0x2 DUP3 ADD PUSH1 0x0 PUSH2 0x1548 SWAP2 SWAP1 PUSH2 0x155E JUMP JUMPDEST POP POP PUSH1 0xE DUP3 ADD PUSH1 0x0 PUSH2 0x155A SWAP2 SWAP1 PUSH2 0x16C6 JUMP JUMPDEST POP POP JUMP JUMPDEST POP DUP1 SLOAD PUSH1 0x0 DUP3 SSTORE SWAP1 PUSH1 0x0 MSTORE PUSH1 0x20 PUSH1 0x0 KECCAK256 SWAP1 DUP2 ADD SWAP1 PUSH2 0x157C SWAP2 SWAP1 PUSH2 0x16EA JUMP JUMPDEST POP JUMP JUMPDEST DUP3 DUP1 SLOAD DUP3 DUP3 SSTORE SWAP1 PUSH1 0x0 MSTORE PUSH1 0x20 PUSH1 0x0 KECCAK256 SWAP1 DUP2 ADD SWAP3 DUP3 ISZERO PUSH2 0x15CE JUMPI SWAP2 PUSH1 0x20 MUL DUP3 ADD JUMPDEST DUP3 DUP2 GT ISZERO PUSH2 0x15CD JUMPI DUP3 MLOAD DUP3 SWAP1 DUP1 MLOAD SWAP1 PUSH1 0x20 ADD SWAP1 PUSH2 0x15BD SWAP3 SWAP2 SWAP1 PUSH2 0x161F JUMP JUMPDEST POP SWAP2 PUSH1 0x20 ADD SWAP2 SWAP1 PUSH1 0x1 ADD SWAP1 PUSH2 0x159F JUMP JUMPDEST JUMPDEST POP SWAP1 POP PUSH2 0x15DB SWAP2 SWAP1 PUSH2 0x16EA JUMP JUMPDEST POP SWAP1 JUMP JUMPDEST POP DUP1 SLOAD PUSH2 0x15EB SWAP1 PUSH2 0x20CC JUMP JUMPDEST PUSH1 0x0 DUP3 SSTORE DUP1 PUSH1 0x1F LT PUSH2 0x15FD JUMPI POP PUSH2 0x161C JUMP JUMPDEST PUSH1 0x1F ADD PUSH1 0x20 SWAP1 DIV SWAP1 PUSH1 0x0 MSTORE PUSH1 0x20 PUSH1 0x0 KECCAK256 SWAP1 DUP2 ADD SWAP1 PUSH2 0x161B SWAP2 SWAP1 PUSH2 0x170E JUMP JUMPDEST JUMPDEST POP JUMP JUMPDEST DUP3 DUP1 SLOAD PUSH2 0x162B SWAP1 PUSH2 0x20CC JUMP JUMPDEST SWAP1 PUSH1 0x0 MSTORE PUSH1 0x20 PUSH1 0x0 KECCAK256 SWAP1 PUSH1 0x1F ADD PUSH1 0x20 SWAP1 DIV DUP2 ADD SWAP3 DUP3 PUSH2 0x164D JUMPI PUSH1 0x0 DUP6 SSTORE PUSH2 0x1694 JUMP JUMPDEST DUP3 PUSH1 0x1F LT PUSH2 0x1666 JUMPI DUP1 MLOAD PUSH1 0xFF NOT AND DUP4 DUP1 ADD OR DUP6 SSTORE PUSH2 0x1694 JUMP JUMPDEST DUP3 DUP1 ADD PUSH1 0x1 ADD DUP6 SSTORE DUP3 ISZERO PUSH2 0x1694 JUMPI SWAP2 DUP3 ADD JUMPDEST DUP3 DUP2 GT ISZERO PUSH2 0x1693 JUMPI DUP3 MLOAD DUP3 SSTORE SWAP2 PUSH1 0x20 ADD SWAP2 SWAP1 PUSH1 0x1 ADD SWAP1 PUSH2 0x1678 JUMP JUMPDEST JUMPDEST POP SWAP1 POP PUSH2 0x16A1 SWAP2 SWAP1 PUSH2 0x170E JUMP JUMPDEST POP SWAP1 JUMP JUMPDEST PUSH1 0x40 MLOAD DUP1 PUSH1 0x60 ADD PUSH1 0x40 MSTORE DUP1 PUSH1 0x60 DUP2 MSTORE PUSH1 0x20 ADD PUSH1 0x60 DUP2 MSTORE PUSH1 0x20 ADD PUSH1 0x60 DUP2 MSTORE POP SWAP1 JUMP JUMPDEST POP DUP1 SLOAD PUSH1 0x0 DUP3 SSTORE PUSH1 0x3 MUL SWAP1 PUSH1 0x0 MSTORE PUSH1 0x20 PUSH1 0x0 KECCAK256 SWAP1 DUP2 ADD SWAP1 PUSH2 0x16E7 SWAP2 SWAP1 PUSH2 0x172B JUMP JUMPDEST POP JUMP JUMPDEST JUMPDEST DUP1 DUP3 GT ISZERO PUSH2 0x170A JUMPI PUSH1 0x0 DUP2 DUP2 PUSH2 0x1701 SWAP2 SWAP1 PUSH2 0x15DF JUMP JUMPDEST POP PUSH1 0x1 ADD PUSH2 0x16EB JUMP JUMPDEST POP SWAP1 JUMP JUMPDEST JUMPDEST DUP1 DUP3 GT ISZERO PUSH2 0x1727 JUMPI PUSH1 0x0 DUP2 PUSH1 0x0 SWAP1 SSTORE POP PUSH1 0x1 ADD PUSH2 0x170F JUMP JUMPDEST POP SWAP1 JUMP JUMPDEST JUMPDEST DUP1 DUP3 GT ISZERO PUSH2 0x176E JUMPI PUSH1 0x0 DUP1 DUP3 ADD PUSH1 0x0 PUSH2 0x1745 SWAP2 SWAP1 PUSH2 0x15DF JUMP JUMPDEST PUSH1 0x1 DUP3 ADD PUSH1 0x0 PUSH2 0x1755 SWAP2 SWAP1 PUSH2 0x15DF JUMP JUMPDEST PUSH1 0x2 DUP3 ADD PUSH1 0x0 PUSH2 0x1765 SWAP2 SWAP1 PUSH2 0x15DF JUMP JUMPDEST POP PUSH1 0x3 ADD PUSH2 0x172C JUMP JUMPDEST POP SWAP1 JUMP JUMPDEST PUSH1 0x0 PUSH2 0x1785 PUSH2 0x1780 DUP5 PUSH2 0x1F8B JUMP JUMPDEST PUSH2 0x1F66 JUMP JUMPDEST SWAP1 POP DUP1 DUP4 DUP3 MSTORE PUSH1 0x20 DUP3 ADD SWAP1 POP DUP3 DUP6 PUSH1 0x20 DUP7 MUL DUP3 ADD GT ISZERO PUSH2 0x17A8 JUMPI PUSH2 0x17A7 PUSH2 0x21C1 JUMP JUMPDEST JUMPDEST PUSH1 0x0 JUMPDEST DUP6 DUP2 LT ISZERO PUSH2 0x17F6 JUMPI DUP2 CALLDATALOAD PUSH8 0xFFFFFFFFFFFFFFFF DUP2 GT ISZERO PUSH2 0x17CE JUMPI PUSH2 0x17CD PUSH2 0x21BC JUMP JUMPDEST JUMPDEST DUP1 DUP7 ADD PUSH2 0x17DB DUP10 DUP3 PUSH2 0x1885 JUMP JUMPDEST DUP6 MSTORE PUSH1 0x20 DUP6 ADD SWAP5 POP PUSH1 0x20 DUP5 ADD SWAP4 POP POP POP PUSH1 0x1 DUP2 ADD SWAP1 POP PUSH2 0x17AB JUMP JUMPDEST POP POP POP SWAP4 SWAP3 POP POP POP JUMP JUMPDEST PUSH1 0x0 PUSH2 0x1813 PUSH2 0x180E DUP5 PUSH2 0x1FB7 JUMP JUMPDEST PUSH2 0x1F66 JUMP JUMPDEST SWAP1 POP DUP3 DUP2 MSTORE PUSH1 0x20 DUP2 ADD DUP5 DUP5 DUP5 ADD GT ISZERO PUSH2 0x182F JUMPI PUSH2 0x182E PUSH2 0x21C6 JUMP JUMPDEST JUMPDEST PUSH2 0x183A DUP5 DUP3 DUP6 PUSH2 0x208A JUMP JUMPDEST POP SWAP4 SWAP3 POP POP POP JUMP JUMPDEST PUSH1 0x0 DUP2 CALLDATALOAD SWAP1 POP PUSH2 0x1851 DUP2 PUSH2 0x21E6 JUMP JUMPDEST SWAP3 SWAP2 POP POP JUMP JUMPDEST PUSH1 0x0 DUP3 PUSH1 0x1F DUP4 ADD SLT PUSH2 0x186C JUMPI PUSH2 0x186B PUSH2 0x21BC JUMP JUMPDEST JUMPDEST DUP2 CALLDATALOAD PUSH2 0x187C DUP5 DUP3 PUSH1 0x20 DUP7 ADD PUSH2 0x1772 JUMP JUMPDEST SWAP2 POP POP SWAP3 SWAP2 POP POP JUMP JUMPDEST PUSH1 0x0 DUP3 PUSH1 0x1F DUP4 ADD SLT PUSH2 0x189A JUMPI PUSH2 0x1899 PUSH2 0x21BC JUMP JUMPDEST JUMPDEST DUP2 CALLDATALOAD PUSH2 0x18AA DUP5 DUP3 PUSH1 0x20 DUP7 ADD PUSH2 0x1800 JUMP JUMPDEST SWAP2 POP POP SWAP3 SWAP2 POP POP JUMP JUMPDEST PUSH1 0x0 DUP2 CALLDATALOAD SWAP1 POP PUSH2 0x18C2 DUP2 PUSH2 0x21FD JUMP JUMPDEST SWAP3 SWAP2 POP POP JUMP JUMPDEST PUSH1 0x0 PUSH1 0x20 DUP3 DUP5 SUB SLT ISZERO PUSH2 0x18DE JUMPI PUSH2 0x18DD PUSH2 0x21D0 JUMP JUMPDEST JUMPDEST PUSH1 0x0 PUSH2 0x18EC DUP5 DUP3 DUP6 ADD PUSH2 0x1842 JUMP JUMPDEST SWAP2 POP POP SWAP3 SWAP2 POP POP JUMP JUMPDEST PUSH1 0x0 DUP1 PUSH1 0x0 PUSH1 0x60 DUP5 DUP7 SUB SLT ISZERO PUSH2 0x190E JUMPI PUSH2 0x190D PUSH2 0x21D0 JUMP JUMPDEST JUMPDEST PUSH1 0x0 DUP5 ADD CALLDATALOAD PUSH8 0xFFFFFFFFFFFFFFFF DUP2 GT ISZERO PUSH2 0x192C JUMPI PUSH2 0x192B PUSH2 0x21CB JUMP JUMPDEST JUMPDEST PUSH2 0x1938 DUP7 DUP3 DUP8 ADD PUSH2 0x1857 JUMP JUMPDEST SWAP4 POP POP PUSH1 0x20 DUP5 ADD CALLDATALOAD PUSH8 0xFFFFFFFFFFFFFFFF DUP2 GT ISZERO PUSH2 0x1959 JUMPI PUSH2 0x1958 PUSH2 0x21CB JUMP JUMPDEST JUMPDEST PUSH2 0x1965 DUP7 DUP3 DUP8 ADD PUSH2 0x1857 JUMP JUMPDEST SWAP3 POP POP PUSH1 0x40 DUP5 ADD CALLDATALOAD PUSH8 0xFFFFFFFFFFFFFFFF DUP2 GT ISZERO PUSH2 0x1986 JUMPI PUSH2 0x1985 PUSH2 0x21CB JUMP JUMPDEST JUMPDEST PUSH2 0x1992 DUP7 DUP3 DUP8 ADD PUSH2 0x1857 JUMP JUMPDEST SWAP2 POP POP SWAP3 POP SWAP3 POP SWAP3 JUMP JUMPDEST PUSH1 0x0 DUP1 PUSH1 0x0 PUSH1 0x60 DUP5 DUP7 SUB SLT ISZERO PUSH2 0x19B5 JUMPI PUSH2 0x19B4 PUSH2 0x21D0 JUMP JUMPDEST JUMPDEST PUSH1 0x0 DUP5 ADD CALLDATALOAD PUSH8 0xFFFFFFFFFFFFFFFF DUP2 GT ISZERO PUSH2 0x19D3 JUMPI PUSH2 0x19D2 PUSH2 0x21CB JUMP JUMPDEST JUMPDEST PUSH2 0x19DF DUP7 DUP3 DUP8 ADD PUSH2 0x1885 JUMP JUMPDEST SWAP4 POP POP PUSH1 0x20 DUP5 ADD CALLDATALOAD PUSH8 0xFFFFFFFFFFFFFFFF DUP2 GT ISZERO PUSH2 0x1A00 JUMPI PUSH2 0x19FF PUSH2 0x21CB JUMP JUMPDEST JUMPDEST PUSH2 0x1A0C DUP7 DUP3 DUP8 ADD PUSH2 0x1885 JUMP JUMPDEST SWAP3 POP POP PUSH1 0x40 DUP5 ADD CALLDATALOAD PUSH8 0xFFFFFFFFFFFFFFFF DUP2 GT ISZERO PUSH2 0x1A2D JUMPI PUSH2 0x1A2C PUSH2 0x21CB JUMP JUMPDEST JUMPDEST PUSH2 0x1A39 DUP7 DUP3 DUP8 ADD PUSH2 0x1885 JUMP JUMPDEST SWAP2 POP POP SWAP3 POP SWAP3 POP SWAP3 JUMP JUMPDEST PUSH1 0x0 DUP1 PUSH1 0x0 DUP1 PUSH1 0x80 DUP6 DUP8 SUB SLT ISZERO PUSH2 0x1A5D JUMPI PUSH2 0x1A5C PUSH2 0x21D0 JUMP JUMPDEST JUMPDEST PUSH1 0x0 DUP6 ADD CALLDATALOAD PUSH8 0xFFFFFFFFFFFFFFFF DUP2 GT ISZERO PUSH2 0x1A7B JUMPI PUSH2 0x1A7A PUSH2 0x21CB JUMP JUMPDEST JUMPDEST PUSH2 0x1A87 DUP8 DUP3 DUP9 ADD PUSH2 0x1885 JUMP JUMPDEST SWAP5 POP POP PUSH1 0x20 DUP6 ADD CALLDATALOAD PUSH8 0xFFFFFFFFFFFFFFFF DUP2 GT ISZERO PUSH2 0x1AA8 JUMPI PUSH2 0x1AA7 PUSH2 0x21CB JUMP JUMPDEST JUMPDEST PUSH2 0x1AB4 DUP8 DUP3 DUP9 ADD PUSH2 0x1885 JUMP JUMPDEST SWAP4 POP POP PUSH1 0x40 DUP6 ADD CALLDATALOAD PUSH8 0xFFFFFFFFFFFFFFFF DUP2 GT ISZERO PUSH2 0x1AD5 JUMPI PUSH2 0x1AD4 PUSH2 0x21CB JUMP JUMPDEST JUMPDEST PUSH2 0x1AE1 DUP8 DUP3 DUP9 ADD PUSH2 0x1885 JUMP JUMPDEST SWAP3 POP POP PUSH1 0x60 DUP6 ADD CALLDATALOAD PUSH8 0xFFFFFFFFFFFFFFFF DUP2 GT ISZERO PUSH2 0x1B02 JUMPI PUSH2 0x1B01 PUSH2 0x21CB JUMP JUMPDEST JUMPDEST PUSH2 0x1B0E DUP8 DUP3 DUP9 ADD PUSH2 0x1885 JUMP JUMPDEST SWAP2 POP POP SWAP3 SWAP6 SWAP2 SWAP5 POP SWAP3 POP JUMP JUMPDEST PUSH1 0x0 DUP1 PUSH1 0x0 DUP1 PUSH1 0x0 PUSH1 0xA0 DUP7 DUP9 SUB SLT ISZERO PUSH2 0x1B36 JUMPI PUSH2 0x1B35 PUSH2 0x21D0 JUMP JUMPDEST JUMPDEST PUSH1 0x0 DUP7 ADD CALLDATALOAD PUSH8 0xFFFFFFFFFFFFFFFF DUP2 GT ISZERO PUSH2 0x1B54 JUMPI PUSH2 0x1B53 PUSH2 0x21CB JUMP JUMPDEST JUMPDEST PUSH2 0x1B60 DUP9 DUP3 DUP10 ADD PUSH2 0x1885 JUMP JUMPDEST SWAP6 POP POP PUSH1 0x20 DUP7 ADD CALLDATALOAD PUSH8 0xFFFFFFFFFFFFFFFF DUP2 GT ISZERO PUSH2 0x1B81 JUMPI PUSH2 0x1B80 PUSH2 0x21CB JUMP JUMPDEST JUMPDEST PUSH2 0x1B8D DUP9 DUP3 DUP10 ADD PUSH2 0x1885 JUMP JUMPDEST SWAP5 POP POP PUSH1 0x40 DUP7 ADD CALLDATALOAD PUSH8 0xFFFFFFFFFFFFFFFF DUP2 GT ISZERO PUSH2 0x1BAE JUMPI PUSH2 0x1BAD PUSH2 0x21CB JUMP JUMPDEST JUMPDEST PUSH2 0x1BBA DUP9 DUP3 DUP10 ADD PUSH2 0x1885 JUMP JUMPDEST SWAP4 POP POP PUSH1 0x60 DUP7 ADD CALLDATALOAD PUSH8 0xFFFFFFFFFFFFFFFF DUP2 GT ISZERO PUSH2 0x1BDB JUMPI PUSH2 0x1BDA PUSH2 0x21CB JUMP JUMPDEST JUMPDEST PUSH2 0x1BE7 DUP9 DUP3 DUP10 ADD PUSH2 0x1885 JUMP JUMPDEST SWAP3 POP POP PUSH1 0x80 DUP7 ADD CALLDATALOAD PUSH8 0xFFFFFFFFFFFFFFFF DUP2 GT ISZERO PUSH2 0x1C08 JUMPI PUSH2 0x1C07 PUSH2 0x21CB JUMP JUMPDEST JUMPDEST PUSH2 0x1C14 DUP9 DUP3 DUP10 ADD PUSH2 0x1885 JUMP JUMPDEST SWAP2 POP POP SWAP3 SWAP6 POP SWAP3 SWAP6 SWAP1 SWAP4 POP JUMP JUMPDEST PUSH1 0x0 PUSH1 0x20 DUP3 DUP5 SUB SLT ISZERO PUSH2 0x1C37 JUMPI PUSH2 0x1C36 PUSH2 0x21D0 JUMP JUMPDEST JUMPDEST PUSH1 0x0 PUSH2 0x1C45 DUP5 DUP3 DUP6 ADD PUSH2 0x18B3 JUMP JUMPDEST SWAP2 POP POP SWAP3 SWAP2 POP POP JUMP JUMPDEST PUSH1 0x0 PUSH2 0x1C5A DUP4 DUP4 PUSH2 0x1CE6 JUMP JUMPDEST SWAP1 POP SWAP3 SWAP2 POP POP JUMP JUMPDEST PUSH2 0x1C6B DUP2 PUSH2 0x204E JUMP JUMPDEST DUP3 MSTORE POP POP JUMP JUMPDEST PUSH1 0x0 PUSH2 0x1C7C DUP3 PUSH2 0x1FF8 JUMP JUMPDEST PUSH2 0x1C86 DUP2 DUP6 PUSH2 0x201B JUMP JUMPDEST SWAP4 POP DUP4 PUSH1 0x20 DUP3 MUL DUP6 ADD PUSH2 0x1C98 DUP6 PUSH2 0x1FE8 JUMP JUMPDEST DUP1 PUSH1 0x0 JUMPDEST DUP6 DUP2 LT ISZERO PUSH2 0x1CD4 JUMPI DUP5 DUP5 SUB DUP10 MSTORE DUP2 MLOAD PUSH2 0x1CB5 DUP6 DUP3 PUSH2 0x1C4E JUMP JUMPDEST SWAP5 POP PUSH2 0x1CC0 DUP4 PUSH2 0x200E JUMP JUMPDEST SWAP3 POP PUSH1 0x20 DUP11 ADD SWAP10 POP POP PUSH1 0x1 DUP2 ADD SWAP1 POP PUSH2 0x1C9C JUMP JUMPDEST POP DUP3 SWAP8 POP DUP8 SWAP6 POP POP POP POP POP POP SWAP3 SWAP2 POP POP JUMP JUMPDEST PUSH1 0x0 PUSH2 0x1CF1 DUP3 PUSH2 0x2003 JUMP JUMPDEST PUSH2 0x1CFB DUP2 DUP6 PUSH2 0x202C JUMP JUMPDEST SWAP4 POP PUSH2 0x1D0B DUP2 DUP6 PUSH1 0x20 DUP7 ADD PUSH2 0x2099 JUMP JUMPDEST PUSH2 0x1D14 DUP2 PUSH2 0x21D5 JUMP JUMPDEST DUP5 ADD SWAP2 POP POP SWAP3 SWAP2 POP POP JUMP JUMPDEST PUSH1 0x0 PUSH2 0x1D2A DUP3 PUSH2 0x2003 JUMP JUMPDEST PUSH2 0x1D34 DUP2 DUP6 PUSH2 0x203D JUMP JUMPDEST SWAP4 POP PUSH2 0x1D44 DUP2 DUP6 PUSH1 0x20 DUP7 ADD PUSH2 0x2099 JUMP JUMPDEST PUSH2 0x1D4D DUP2 PUSH2 0x21D5 JUMP JUMPDEST DUP5 ADD SWAP2 POP POP SWAP3 SWAP2 POP POP JUMP JUMPDEST PUSH1 0x0 PUSH1 0xA0 DUP4 ADD PUSH1 0x0 DUP4 ADD MLOAD DUP5 DUP3 SUB PUSH1 0x0 DUP7 ADD MSTORE PUSH2 0x1D75 DUP3 DUP3 PUSH2 0x1CE6 JUMP JUMPDEST SWAP2 POP POP PUSH1 0x20 DUP4 ADD MLOAD DUP5 DUP3 SUB PUSH1 0x20 DUP7 ADD MSTORE PUSH2 0x1D8F DUP3 DUP3 PUSH2 0x1CE6 JUMP JUMPDEST SWAP2 POP POP PUSH1 0x40 DUP4 ADD MLOAD DUP5 DUP3 SUB PUSH1 0x40 DUP7 ADD MSTORE PUSH2 0x1DA9 DUP3 DUP3 PUSH2 0x1CE6 JUMP JUMPDEST SWAP2 POP POP PUSH1 0x60 DUP4 ADD MLOAD DUP5 DUP3 SUB PUSH1 0x60 DUP7 ADD MSTORE PUSH2 0x1DC3 DUP3 DUP3 PUSH2 0x1CE6 JUMP JUMPDEST SWAP2 POP POP PUSH1 0x80 DUP4 ADD MLOAD DUP5 DUP3 SUB PUSH1 0x80 DUP7 ADD MSTORE PUSH2 0x1DDD DUP3 DUP3 PUSH2 0x1CE6 JUMP JUMPDEST SWAP2 POP POP DUP1 SWAP2 POP POP SWAP3 SWAP2 POP POP JUMP JUMPDEST PUSH1 0x0 PUSH1 0x60 DUP4 ADD PUSH1 0x0 DUP4 ADD MLOAD DUP5 DUP3 SUB PUSH1 0x0 DUP7 ADD MSTORE PUSH2 0x1E07 DUP3 DUP3 PUSH2 0x1C71 JUMP JUMPDEST SWAP2 POP POP PUSH1 0x20 DUP4 ADD MLOAD DUP5 DUP3 SUB PUSH1 0x20 DUP7 ADD MSTORE PUSH2 0x1E21 DUP3 DUP3 PUSH2 0x1C71 JUMP JUMPDEST SWAP2 POP POP PUSH1 0x40 DUP4 ADD MLOAD DUP5 DUP3 SUB PUSH1 0x40 DUP7 ADD MSTORE PUSH2 0x1E3B DUP3 DUP3 PUSH2 0x1C71 JUMP JUMPDEST SWAP2 POP POP DUP1 SWAP2 POP POP SWAP3 SWAP2 POP POP JUMP JUMPDEST PUSH2 0x1E51 DUP2 PUSH2 0x2080 JUMP JUMPDEST DUP3 MSTORE POP POP JUMP JUMPDEST PUSH1 0x0 PUSH2 0x100 DUP3 ADD SWAP1 POP PUSH2 0x1E6D PUSH1 0x0 DUP4 ADD DUP12 PUSH2 0x1C62 JUMP JUMPDEST DUP2 DUP2 SUB PUSH1 0x20 DUP4 ADD MSTORE PUSH2 0x1E7F DUP2 DUP11 PUSH2 0x1D1F JUMP JUMPDEST SWAP1 POP DUP2 DUP2 SUB PUSH1 0x40 DUP4 ADD MSTORE PUSH2 0x1E93 DUP2 DUP10 PUSH2 0x1D1F JUMP JUMPDEST SWAP1 POP DUP2 DUP2 SUB PUSH1 0x60 DUP4 ADD MSTORE PUSH2 0x1EA7 DUP2 DUP9 PUSH2 0x1D1F JUMP JUMPDEST SWAP1 POP DUP2 DUP2 SUB PUSH1 0x80 DUP4 ADD MSTORE PUSH2 0x1EBB DUP2 DUP8 PUSH2 0x1D1F JUMP JUMPDEST SWAP1 POP PUSH2 0x1ECA PUSH1 0xA0 DUP4 ADD DUP7 PUSH2 0x1E48 JUMP JUMPDEST DUP2 DUP2 SUB PUSH1 0xC0 DUP4 ADD MSTORE PUSH2 0x1EDC DUP2 DUP6 PUSH2 0x1D58 JUMP JUMPDEST SWAP1 POP DUP2 DUP2 SUB PUSH1 0xE0 DUP4 ADD MSTORE PUSH2 0x1EF0 DUP2 DUP5 PUSH2 0x1DEA JUMP JUMPDEST SWAP1 POP SWAP10 SWAP9 POP POP POP POP POP POP POP POP POP JUMP JUMPDEST PUSH1 0x0 PUSH1 0x60 DUP3 ADD SWAP1 POP DUP2 DUP2 SUB PUSH1 0x0 DUP4 ADD MSTORE PUSH2 0x1F19 DUP2 DUP7 PUSH2 0x1D1F JUMP JUMPDEST SWAP1 POP DUP2 DUP2 SUB PUSH1 0x20 DUP4 ADD MSTORE PUSH2 0x1F2D DUP2 DUP6 PUSH2 0x1D1F JUMP JUMPDEST SWAP1 POP DUP2 DUP2 SUB PUSH1 0x40 DUP4 ADD MSTORE PUSH2 0x1F41 DUP2 DUP5 PUSH2 0x1D1F JUMP JUMPDEST SWAP1 POP SWAP5 SWAP4 POP POP POP POP JUMP JUMPDEST PUSH1 0x0 PUSH1 0x20 DUP3 ADD SWAP1 POP PUSH2 0x1F60 PUSH1 0x0 DUP4 ADD DUP5 PUSH2 0x1E48 JUMP JUMPDEST SWAP3 SWAP2 POP POP JUMP JUMPDEST PUSH1 0x0 PUSH2 0x1F70 PUSH2 0x1F81 JUMP JUMPDEST SWAP1 POP PUSH2 0x1F7C DUP3 DUP3 PUSH2 0x20FE JUMP JUMPDEST SWAP2 SWAP1 POP JUMP JUMPDEST PUSH1 0x0 PUSH1 0x40 MLOAD SWAP1 POP SWAP1 JUMP JUMPDEST PUSH1 0x0 PUSH8 0xFFFFFFFFFFFFFFFF DUP3 GT ISZERO PUSH2 0x1FA6 JUMPI PUSH2 0x1FA5 PUSH2 0x218D JUMP JUMPDEST JUMPDEST PUSH1 0x20 DUP3 MUL SWAP1 POP PUSH1 0x20 DUP2 ADD SWAP1 POP SWAP2 SWAP1 POP JUMP JUMPDEST PUSH1 0x0 PUSH8 0xFFFFFFFFFFFFFFFF DUP3 GT ISZERO PUSH2 0x1FD2 JUMPI PUSH2 0x1FD1 PUSH2 0x218D JUMP JUMPDEST JUMPDEST PUSH2 0x1FDB DUP3 PUSH2 0x21D5 JUMP JUMPDEST SWAP1 POP PUSH1 0x20 DUP2 ADD SWAP1 POP SWAP2 SWAP1 POP JUMP JUMPDEST PUSH1 0x0 DUP2 SWAP1 POP PUSH1 0x20 DUP3 ADD SWAP1 POP SWAP2 SWAP1 POP JUMP JUMPDEST PUSH1 0x0 DUP2 MLOAD SWAP1 POP SWAP2 SWAP1 POP JUMP JUMPDEST PUSH1 0x0 DUP2 MLOAD SWAP1 POP SWAP2 SWAP1 POP JUMP JUMPDEST PUSH1 0x0 PUSH1 0x20 DUP3 ADD SWAP1 POP SWAP2 SWAP1 POP JUMP JUMPDEST PUSH1 0x0 DUP3 DUP3 MSTORE PUSH1 0x20 DUP3 ADD SWAP1 POP SWAP3 SWAP2 POP POP JUMP JUMPDEST PUSH1 0x0 DUP3 DUP3 MSTORE PUSH1 0x20 DUP3 ADD SWAP1 POP SWAP3 SWAP2 POP POP JUMP JUMPDEST PUSH1 0x0 DUP3 DUP3 MSTORE PUSH1 0x20 DUP3 ADD SWAP1 POP SWAP3 SWAP2 POP POP JUMP JUMPDEST PUSH1 0x0 PUSH2 0x2059 DUP3 PUSH2 0x2060 JUMP JUMPDEST SWAP1 POP SWAP2 SWAP1 POP JUMP JUMPDEST PUSH1 0x0 PUSH20 0xFFFFFFFFFFFFFFFFFFFFFFFFFFFFFFFFFFFFFFFF DUP3 AND SWAP1 POP SWAP2 SWAP1 POP JUMP JUMPDEST PUSH1 0x0 DUP2 SWAP1 POP SWAP2 SWAP1 POP JUMP JUMPDEST DUP3 DUP2 DUP4 CALLDATACOPY PUSH1 0x0 DUP4 DUP4 ADD MSTORE POP POP POP JUMP JUMPDEST PUSH1 0x0 JUMPDEST DUP4 DUP2 LT ISZERO PUSH2 0x20B7 JUMPI DUP1 DUP3 ADD MLOAD DUP2 DUP5 ADD MSTORE PUSH1 0x20 DUP2 ADD SWAP1 POP PUSH2 0x209C JUMP JUMPDEST DUP4 DUP2 GT ISZERO PUSH2 0x20C6 JUMPI PUSH1 0x0 DUP5 DUP5 ADD MSTORE JUMPDEST POP POP POP POP JUMP JUMPDEST PUSH1 0x0 PUSH1 0x2 DUP3 DIV SWAP1 POP PUSH1 0x1 DUP3 AND DUP1 PUSH2 0x20E4 JUMPI PUSH1 0x7F DUP3 AND SWAP2 POP JUMPDEST PUSH1 0x20 DUP3 LT DUP2 EQ ISZERO PUSH2 0x20F8 JUMPI PUSH2 0x20F7 PUSH2 0x212F JUMP JUMPDEST JUMPDEST POP SWAP2 SWAP1 POP JUMP JUMPDEST PUSH2 0x2107 DUP3 PUSH2 0x21D5 JUMP JUMPDEST DUP2 ADD DUP2 DUP2 LT PUSH8 0xFFFFFFFFFFFFFFFF DUP3 GT OR ISZERO PUSH2 0x2126 JUMPI PUSH2 0x2125 PUSH2 0x218D JUMP JUMPDEST JUMPDEST DUP1 PUSH1 0x40 MSTORE POP POP POP JUMP JUMPDEST PUSH32 0x4E487B7100000000000000000000000000000000000000000000000000000000 PUSH1 0x0 MSTORE PUSH1 0x22 PUSH1 0x4 MSTORE PUSH1 0x24 PUSH1 0x0 REVERT JUMPDEST PUSH32 0x4E487B7100000000000000000000000000000000000000000000000000000000 PUSH1 0x0 MSTORE PUSH1 0x32 PUSH1 0x4 MSTORE PUSH1 0x24 PUSH1 0x0 REVERT JUMPDEST PUSH32 0x4E487B7100000000000000000000000000000000000000000000000000000000 PUSH1 0x0 MSTORE PUSH1 0x41 PUSH1 0x4 MSTORE PUSH1 0x24 PUSH1 0x0 REVERT JUMPDEST PUSH1 0x0 DUP1 REVERT JUMPDEST PUSH1 0x0 DUP1 REVERT JUMPDEST PUSH1 0x0 DUP1 REVERT JUMPDEST PUSH1 0x0 DUP1 REVERT JUMPDEST PUSH1 0x0 DUP1 REVERT JUMPDEST PUSH1 0x0 PUSH1 0x1F NOT PUSH1 0x1F DUP4 ADD AND SWAP1 POP SWAP2 SWAP1 POP JUMP JUMPDEST PUSH2 0x21EF DUP2 PUSH2 0x204E JUMP JUMPDEST DUP2 EQ PUSH2 0x21FA JUMPI PUSH1 0x0 DUP1 REVERT JUMPDEST POP JUMP JUMPDEST PUSH2 0x2206 DUP2 PUSH2 0x2080 JUMP JUMPDEST DUP2 EQ PUSH2 0x2211 JUMPI PUSH1 0x0 DUP1 REVERT JUMPDEST POP JUMP INVALID LOG2 PUSH5 0x6970667358 0x22 SLT KECCAK256 GT 0x49 SLT 0xDD DUP8 0xBB MSTORE CODESIZE 0x4D 0xB0 SLT PUSH18 0xDFE1F184A7E497105621052009A192298C10 EXTCODECOPY 0x21 PUSH5 0x736F6C6343 STOP ADDMOD SMOD STOP CALLER "
				},
				"gasEstimates": {
					"creation": {
						"codeDepositCost": "1755600",
						"executionCost": "1848",
						"totalCost": "1757448"
					},
					"external": {
						"createBio(string,string,string,string)": "infinite",
						"createContract(string,string,string,string,string)": "infinite",
						"createSkill(string[],string[],string[])": "infinite",
						"createUnivercity(string,string,string)": "infinite",
						"delAllEducation()": "infinite",
						"delProfile()": "infinite",
						"getEducation(uint256)": "infinite",
						"getEducationCount()": "2563",
						"profile(address)": "infinite"
					}
				},
				"methodIdentifiers": {
					"createBio(string,string,string,string)": "8c241fc4",
					"createContract(string,string,string,string,string)": "72828388",
					"createSkill(string[],string[],string[])": "3d984d0e",
					"createUnivercity(string,string,string)": "dc6d6a83",
					"delAllEducation()": "ed2217ef",
					"delProfile()": "fabce08f",
					"getEducation(uint256)": "f96e32f8",
					"getEducationCount()": "6212fa02",
					"profile(address)": "9dd9d0fd"
				}
			},
			"storageLayout": {
				"storage": [
					{
						"astId": 29,
						"contract": "contracts/Profile.sol:Profile",
						"label": "profile",
						"offset": 0,
						"slot": "0",
						"type": "t_mapping(t_address,t_struct(Bio)24_storage)"
					}
				],
				"types": {
					"t_address": {
						"encoding": "inplace",
						"label": "address",
						"numberOfBytes": "20"
					},
					"t_array(t_string_storage)dyn_storage": {
						"base": "t_string_storage",
						"encoding": "dynamic_array",
						"label": "string[]",
						"numberOfBytes": "32"
					},
					"t_array(t_struct(Education)57_storage)dyn_storage": {
						"base": "t_struct(Education)57_storage",
						"encoding": "dynamic_array",
						"label": "struct Profile.Education[]",
						"numberOfBytes": "32"
					},
					"t_mapping(t_address,t_struct(Bio)24_storage)": {
						"encoding": "mapping",
						"key": "t_address",
						"label": "mapping(address => struct Profile.Bio)",
						"numberOfBytes": "32",
						"value": "t_struct(Bio)24_storage"
					},
					"t_string_storage": {
						"encoding": "bytes",
						"label": "string",
						"numberOfBytes": "32"
					},
					"t_struct(Bio)24_storage": {
						"encoding": "inplace",
						"label": "struct Profile.Bio",
						"members": [
							{
								"astId": 3,
								"contract": "contracts/Profile.sol:Profile",
								"label": "userAddress",
								"offset": 0,
								"slot": "0",
								"type": "t_address"
							},
							{
								"astId": 5,
								"contract": "contracts/Profile.sol:Profile",
								"label": "firstName",
								"offset": 0,
								"slot": "1",
								"type": "t_string_storage"
							},
							{
								"astId": 7,
								"contract": "contracts/Profile.sol:Profile",
								"label": "middleName",
								"offset": 0,
								"slot": "2",
								"type": "t_string_storage"
							},
							{
								"astId": 9,
								"contract": "contracts/Profile.sol:Profile",
								"label": "lastName",
								"offset": 0,
								"slot": "3",
								"type": "t_string_storage"
							},
							{
								"astId": 11,
								"contract": "contracts/Profile.sol:Profile",
								"label": "profileImage",
								"offset": 0,
								"slot": "4",
								"type": "t_string_storage"
							},
							{
								"astId": 13,
								"contract": "contracts/Profile.sol:Profile",
								"label": "createDate",
								"offset": 0,
								"slot": "5",
								"type": "t_uint256"
							},
							{
								"astId": 16,
								"contract": "contracts/Profile.sol:Profile",
								"label": "privateContract",
								"offset": 0,
								"slot": "6",
								"type": "t_struct(Contract)40_storage"
							},
							{
								"astId": 19,
								"contract": "contracts/Profile.sol:Profile",
								"label": "skill",
								"offset": 0,
								"slot": "11",
								"type": "t_struct(Skill)50_storage"
							},
							{
								"astId": 23,
								"contract": "contracts/Profile.sol:Profile",
								"label": "education",
								"offset": 0,
								"slot": "14",
								"type": "t_array(t_struct(Education)57_storage)dyn_storage"
							}
						],
						"numberOfBytes": "480"
					},
					"t_struct(Contract)40_storage": {
						"encoding": "inplace",
						"label": "struct Profile.Contract",
						"members": [
							{
								"astId": 31,
								"contract": "contracts/Profile.sol:Profile",
								"label": "email",
								"offset": 0,
								"slot": "0",
								"type": "t_string_storage"
							},
							{
								"astId": 33,
								"contract": "contracts/Profile.sol:Profile",
								"label": "phone",
								"offset": 0,
								"slot": "1",
								"type": "t_string_storage"
							},
							{
								"astId": 35,
								"contract": "contracts/Profile.sol:Profile",
								"label": "github",
								"offset": 0,
								"slot": "2",
								"type": "t_string_storage"
							},
							{
								"astId": 37,
								"contract": "contracts/Profile.sol:Profile",
								"label": "gitlab",
								"offset": 0,
								"slot": "3",
								"type": "t_string_storage"
							},
							{
								"astId": 39,
								"contract": "contracts/Profile.sol:Profile",
								"label": "linkin",
								"offset": 0,
								"slot": "4",
								"type": "t_string_storage"
							}
						],
						"numberOfBytes": "160"
					},
					"t_struct(Education)57_storage": {
						"encoding": "inplace",
						"label": "struct Profile.Education",
						"members": [
							{
								"astId": 52,
								"contract": "contracts/Profile.sol:Profile",
								"label": "startDate",
								"offset": 0,
								"slot": "0",
								"type": "t_string_storage"
							},
							{
								"astId": 54,
								"contract": "contracts/Profile.sol:Profile",
								"label": "endDate",
								"offset": 0,
								"slot": "1",
								"type": "t_string_storage"
							},
							{
								"astId": 56,
								"contract": "contracts/Profile.sol:Profile",
								"label": "univercity",
								"offset": 0,
								"slot": "2",
								"type": "t_string_storage"
							}
						],
						"numberOfBytes": "96"
					},
					"t_struct(Skill)50_storage": {
						"encoding": "inplace",
						"label": "struct Profile.Skill",
						"members": [
							{
								"astId": 43,
								"contract": "contracts/Profile.sol:Profile",
								"label": "frontend",
								"offset": 0,
								"slot": "0",
								"type": "t_array(t_string_storage)dyn_storage"
							},
							{
								"astId": 46,
								"contract": "contracts/Profile.sol:Profile",
								"label": "backend",
								"offset": 0,
								"slot": "1",
								"type": "t_array(t_string_storage)dyn_storage"
							},
							{
								"astId": 49,
								"contract": "contracts/Profile.sol:Profile",
								"label": "framework",
								"offset": 0,
								"slot": "2",
								"type": "t_array(t_string_storage)dyn_storage"
							}
						],
						"numberOfBytes": "96"
					},
					"t_uint256": {
						"encoding": "inplace",
						"label": "uint256",
						"numberOfBytes": "32"
					}
				}
			},
			"userdoc": {
				"kind": "user",
				"methods": {},
				"version": 1
			}
		}
	}
}