{
	"contracts/Profile.sol": {
		"Profile": {
			"abi": [
				{
					"inputs": [],
					"name": "addBio",
					"outputs": [],
					"stateMutability": "nonpayable",
					"type": "function"
				},
				{
					"inputs": [],
					"name": "getBio",
					"outputs": [
						{
							"components": [
								{
									"internalType": "string",
									"name": "firstName",
									"type": "string"
								},
								{
									"internalType": "string",
									"name": "lastName",
									"type": "string"
								}
							],
							"internalType": "struct Profile.Bio",
							"name": "",
							"type": "tuple"
						}
					],
					"stateMutability": "view",
					"type": "function"
				}
			],
			"devdoc": {
				"kind": "dev",
				"methods": {},
				"version": 1
			},
			"evm": {
				"assembly": "    /* \"contracts/Profile.sol\":64:456  contract Profile {\r... */\n  mstore(0x40, 0x80)\n  callvalue\n  dup1\n  iszero\n  tag_1\n  jumpi\n  0x00\n  dup1\n  revert\ntag_1:\n  pop\n  dataSize(sub_0)\n  dup1\n  dataOffset(sub_0)\n  0x00\n  codecopy\n  0x00\n  return\nstop\n\nsub_0: assembly {\n        /* \"contracts/Profile.sol\":64:456  contract Profile {\r... */\n      mstore(0x40, 0x80)\n      callvalue\n      dup1\n      iszero\n      tag_1\n      jumpi\n      0x00\n      dup1\n      revert\n    tag_1:\n      pop\n      jumpi(tag_2, lt(calldatasize, 0x04))\n      shr(0xe0, calldataload(0x00))\n      dup1\n      0x92110c28\n      eq\n      tag_3\n      jumpi\n      dup1\n      0xfa165e8f\n      eq\n      tag_4\n      jumpi\n    tag_2:\n      0x00\n      dup1\n      revert\n        /* \"contracts/Profile.sol\":211:341  function addBio() public {\r... */\n    tag_3:\n      tag_5\n      tag_6\n      jump\t// in\n    tag_5:\n      stop\n        /* \"contracts/Profile.sol\":350:447  function getBio() public view returns(Bio memory ) {\r... */\n    tag_4:\n      tag_7\n      tag_8\n      jump\t// in\n    tag_7:\n      mload(0x40)\n      tag_9\n      swap2\n      swap1\n      tag_10\n      jump\t// in\n    tag_9:\n      mload(0x40)\n      dup1\n      swap2\n      sub\n      swap1\n      return\n        /* \"contracts/Profile.sol\":211:341  function addBio() public {\r... */\n    tag_6:\n        /* \"contracts/Profile.sol\":247:284  profile[msg.sender].firstName = \"Tim\" */\n      mload(0x40)\n      dup1\n      0x40\n      add\n      0x40\n      mstore\n      dup1\n      0x03\n      dup2\n      mstore\n      0x20\n      add\n      0x54696d0000000000000000000000000000000000000000000000000000000000\n      dup2\n      mstore\n      pop\n        /* \"contracts/Profile.sol\":247:254  profile */\n      0x00\n        /* \"contracts/Profile.sol\":247:266  profile[msg.sender] */\n      dup1\n        /* \"contracts/Profile.sol\":255:265  msg.sender */\n      caller\n        /* \"contracts/Profile.sol\":247:266  profile[msg.sender] */\n      0xffffffffffffffffffffffffffffffffffffffff\n      and\n      0xffffffffffffffffffffffffffffffffffffffff\n      and\n      dup2\n      mstore\n      0x20\n      add\n      swap1\n      dup2\n      mstore\n      0x20\n      add\n      0x00\n      keccak256\n        /* \"contracts/Profile.sol\":247:276  profile[msg.sender].firstName */\n      0x00\n      add\n        /* \"contracts/Profile.sol\":247:284  profile[msg.sender].firstName = \"Tim\" */\n      swap1\n      dup1\n      mload\n      swap1\n      0x20\n      add\n      swap1\n      tag_12\n      swap3\n      swap2\n      swap1\n      tag_13\n      jump\t// in\n    tag_12:\n      pop\n        /* \"contracts/Profile.sol\":295:331  profile[msg.sender].lastName = \"Tim\" */\n      mload(0x40)\n      dup1\n      0x40\n      add\n      0x40\n      mstore\n      dup1\n      0x03\n      dup2\n      mstore\n      0x20\n      add\n      0x54696d0000000000000000000000000000000000000000000000000000000000\n      dup2\n      mstore\n      pop\n        /* \"contracts/Profile.sol\":295:302  profile */\n      0x00\n        /* \"contracts/Profile.sol\":295:314  profile[msg.sender] */\n      dup1\n        /* \"contracts/Profile.sol\":303:313  msg.sender */\n      caller\n        /* \"contracts/Profile.sol\":295:314  profile[msg.sender] */\n      0xffffffffffffffffffffffffffffffffffffffff\n      and\n      0xffffffffffffffffffffffffffffffffffffffff\n      and\n      dup2\n      mstore\n      0x20\n      add\n      swap1\n      dup2\n      mstore\n      0x20\n      add\n      0x00\n      keccak256\n        /* \"contracts/Profile.sol\":295:323  profile[msg.sender].lastName */\n      0x01\n      add\n        /* \"contracts/Profile.sol\":295:331  profile[msg.sender].lastName = \"Tim\" */\n      swap1\n      dup1\n      mload\n      swap1\n      0x20\n      add\n      swap1\n      tag_14\n      swap3\n      swap2\n      swap1\n      tag_13\n      jump\t// in\n    tag_14:\n      pop\n        /* \"contracts/Profile.sol\":211:341  function addBio() public {\r... */\n      jump\t// out\n        /* \"contracts/Profile.sol\":350:447  function getBio() public view returns(Bio memory ) {\r... */\n    tag_8:\n        /* \"contracts/Profile.sol\":388:398  Bio memory */\n      tag_15\n      tag_16\n      jump\t// in\n    tag_15:\n        /* \"contracts/Profile.sol\":420:427  profile */\n      0x00\n        /* \"contracts/Profile.sol\":420:439  profile[msg.sender] */\n      dup1\n        /* \"contracts/Profile.sol\":428:438  msg.sender */\n      caller\n        /* \"contracts/Profile.sol\":420:439  profile[msg.sender] */\n      0xffffffffffffffffffffffffffffffffffffffff\n      and\n      0xffffffffffffffffffffffffffffffffffffffff\n      and\n      dup2\n      mstore\n      0x20\n      add\n      swap1\n      dup2\n      mstore\n      0x20\n      add\n      0x00\n      keccak256\n        /* \"contracts/Profile.sol\":412:439  return  profile[msg.sender] */\n      mload(0x40)\n      dup1\n      0x40\n      add\n      0x40\n      mstore\n      swap1\n      dup2\n      0x00\n      dup3\n      add\n      dup1\n      sload\n      tag_18\n      swap1\n      tag_19\n      jump\t// in\n    tag_18:\n      dup1\n      0x1f\n      add\n      0x20\n      dup1\n      swap2\n      div\n      mul\n      0x20\n      add\n      mload(0x40)\n      swap1\n      dup2\n      add\n      0x40\n      mstore\n      dup1\n      swap3\n      swap2\n      swap1\n      dup2\n      dup2\n      mstore\n      0x20\n      add\n      dup3\n      dup1\n      sload\n      tag_20\n      swap1\n      tag_19\n      jump\t// in\n    tag_20:\n      dup1\n      iszero\n      tag_21\n      jumpi\n      dup1\n      0x1f\n      lt\n      tag_22\n      jumpi\n      0x0100\n      dup1\n      dup4\n      sload\n      div\n      mul\n      dup4\n      mstore\n      swap2\n      0x20\n      add\n      swap2\n      jump(tag_21)\n    tag_22:\n      dup3\n      add\n      swap2\n      swap1\n      0x00\n      mstore\n      keccak256(0x00, 0x20)\n      swap1\n    tag_23:\n      dup2\n      sload\n      dup2\n      mstore\n      swap1\n      0x01\n      add\n      swap1\n      0x20\n      add\n      dup1\n      dup4\n      gt\n      tag_23\n      jumpi\n      dup3\n      swap1\n      sub\n      0x1f\n      and\n      dup3\n      add\n      swap2\n    tag_21:\n      pop\n      pop\n      pop\n      pop\n      pop\n      dup2\n      mstore\n      0x20\n      add\n      0x01\n      dup3\n      add\n      dup1\n      sload\n      tag_24\n      swap1\n      tag_19\n      jump\t// in\n    tag_24:\n      dup1\n      0x1f\n      add\n      0x20\n      dup1\n      swap2\n      div\n      mul\n      0x20\n      add\n      mload(0x40)\n      swap1\n      dup2\n      add\n      0x40\n      mstore\n      dup1\n      swap3\n      swap2\n      swap1\n      dup2\n      dup2\n      mstore\n      0x20\n      add\n      dup3\n      dup1\n      sload\n      tag_25\n      swap1\n      tag_19\n      jump\t// in\n    tag_25:\n      dup1\n      iszero\n      tag_26\n      jumpi\n      dup1\n      0x1f\n      lt\n      tag_27\n      jumpi\n      0x0100\n      dup1\n      dup4\n      sload\n      div\n      mul\n      dup4\n      mstore\n      swap2\n      0x20\n      add\n      swap2\n      jump(tag_26)\n    tag_27:\n      dup3\n      add\n      swap2\n      swap1\n      0x00\n      mstore\n      keccak256(0x00, 0x20)\n      swap1\n    tag_28:\n      dup2\n      sload\n      dup2\n      mstore\n      swap1\n      0x01\n      add\n      swap1\n      0x20\n      add\n      dup1\n      dup4\n      gt\n      tag_28\n      jumpi\n      dup3\n      swap1\n      sub\n      0x1f\n      and\n      dup3\n      add\n      swap2\n    tag_26:\n      pop\n      pop\n      pop\n      pop\n      pop\n      dup2\n      mstore\n      pop\n      pop\n      swap1\n      pop\n        /* \"contracts/Profile.sol\":350:447  function getBio() public view returns(Bio memory ) {\r... */\n      swap1\n      jump\t// out\n    tag_13:\n      dup3\n      dup1\n      sload\n      tag_29\n      swap1\n      tag_19\n      jump\t// in\n    tag_29:\n      swap1\n      0x00\n      mstore\n      keccak256(0x00, 0x20)\n      swap1\n      0x1f\n      add\n      0x20\n      swap1\n      div\n      dup2\n      add\n      swap3\n      dup3\n      tag_31\n      jumpi\n      0x00\n      dup6\n      sstore\n      jump(tag_30)\n    tag_31:\n      dup3\n      0x1f\n      lt\n      tag_32\n      jumpi\n      dup1\n      mload\n      not(0xff)\n      and\n      dup4\n      dup1\n      add\n      or\n      dup6\n      sstore\n      jump(tag_30)\n    tag_32:\n      dup3\n      dup1\n      add\n      0x01\n      add\n      dup6\n      sstore\n      dup3\n      iszero\n      tag_30\n      jumpi\n      swap2\n      dup3\n      add\n    tag_33:\n      dup3\n      dup2\n      gt\n      iszero\n      tag_34\n      jumpi\n      dup3\n      mload\n      dup3\n      sstore\n      swap2\n      0x20\n      add\n      swap2\n      swap1\n      0x01\n      add\n      swap1\n      jump(tag_33)\n    tag_34:\n    tag_30:\n      pop\n      swap1\n      pop\n      tag_35\n      swap2\n      swap1\n      tag_36\n      jump\t// in\n    tag_35:\n      pop\n      swap1\n      jump\t// out\n    tag_16:\n      mload(0x40)\n      dup1\n      0x40\n      add\n      0x40\n      mstore\n      dup1\n      0x60\n      dup2\n      mstore\n      0x20\n      add\n      0x60\n      dup2\n      mstore\n      pop\n      swap1\n      jump\t// out\n    tag_36:\n    tag_37:\n      dup1\n      dup3\n      gt\n      iszero\n      tag_38\n      jumpi\n      0x00\n      dup2\n      0x00\n      swap1\n      sstore\n      pop\n      0x01\n      add\n      jump(tag_37)\n    tag_38:\n      pop\n      swap1\n      jump\t// out\n        /* \"#utility.yul\":7:351   */\n    tag_40:\n        /* \"#utility.yul\":85:88   */\n      0x00\n        /* \"#utility.yul\":113:152   */\n      tag_42\n        /* \"#utility.yul\":146:151   */\n      dup3\n        /* \"#utility.yul\":113:152   */\n      tag_43\n      jump\t// in\n    tag_42:\n        /* \"#utility.yul\":168:229   */\n      tag_44\n        /* \"#utility.yul\":222:228   */\n      dup2\n        /* \"#utility.yul\":217:220   */\n      dup6\n        /* \"#utility.yul\":168:229   */\n      tag_45\n      jump\t// in\n    tag_44:\n        /* \"#utility.yul\":161:229   */\n      swap4\n      pop\n        /* \"#utility.yul\":238:290   */\n      tag_46\n        /* \"#utility.yul\":283:289   */\n      dup2\n        /* \"#utility.yul\":278:281   */\n      dup6\n        /* \"#utility.yul\":271:275   */\n      0x20\n        /* \"#utility.yul\":264:269   */\n      dup7\n        /* \"#utility.yul\":260:276   */\n      add\n        /* \"#utility.yul\":238:290   */\n      tag_47\n      jump\t// in\n    tag_46:\n        /* \"#utility.yul\":315:344   */\n      tag_48\n        /* \"#utility.yul\":337:343   */\n      dup2\n        /* \"#utility.yul\":315:344   */\n      tag_49\n      jump\t// in\n    tag_48:\n        /* \"#utility.yul\":310:313   */\n      dup5\n        /* \"#utility.yul\":306:345   */\n      add\n        /* \"#utility.yul\":299:345   */\n      swap2\n      pop\n        /* \"#utility.yul\":89:351   */\n      pop\n        /* \"#utility.yul\":7:351   */\n      swap3\n      swap2\n      pop\n      pop\n      jump\t// out\n        /* \"#utility.yul\":405:1077   */\n    tag_50:\n        /* \"#utility.yul\":510:513   */\n      0x00\n        /* \"#utility.yul\":546:550   */\n      0x40\n        /* \"#utility.yul\":541:544   */\n      dup4\n        /* \"#utility.yul\":537:551   */\n      add\n        /* \"#utility.yul\":638:642   */\n      0x00\n        /* \"#utility.yul\":631:636   */\n      dup4\n        /* \"#utility.yul\":627:643   */\n      add\n        /* \"#utility.yul\":621:644   */\n      mload\n        /* \"#utility.yul\":691:694   */\n      dup5\n        /* \"#utility.yul\":685:689   */\n      dup3\n        /* \"#utility.yul\":681:695   */\n      sub\n        /* \"#utility.yul\":674:678   */\n      0x00\n        /* \"#utility.yul\":669:672   */\n      dup7\n        /* \"#utility.yul\":665:679   */\n      add\n        /* \"#utility.yul\":658:696   */\n      mstore\n        /* \"#utility.yul\":717:790   */\n      tag_52\n        /* \"#utility.yul\":785:789   */\n      dup3\n        /* \"#utility.yul\":771:783   */\n      dup3\n        /* \"#utility.yul\":717:790   */\n      tag_40\n      jump\t// in\n    tag_52:\n        /* \"#utility.yul\":709:790   */\n      swap2\n      pop\n        /* \"#utility.yul\":561:801   */\n      pop\n        /* \"#utility.yul\":887:891   */\n      0x20\n        /* \"#utility.yul\":880:885   */\n      dup4\n        /* \"#utility.yul\":876:892   */\n      add\n        /* \"#utility.yul\":870:893   */\n      mload\n        /* \"#utility.yul\":940:943   */\n      dup5\n        /* \"#utility.yul\":934:938   */\n      dup3\n        /* \"#utility.yul\":930:944   */\n      sub\n        /* \"#utility.yul\":923:927   */\n      0x20\n        /* \"#utility.yul\":918:921   */\n      dup7\n        /* \"#utility.yul\":914:928   */\n      add\n        /* \"#utility.yul\":907:945   */\n      mstore\n        /* \"#utility.yul\":966:1039   */\n      tag_53\n        /* \"#utility.yul\":1034:1038   */\n      dup3\n        /* \"#utility.yul\":1020:1032   */\n      dup3\n        /* \"#utility.yul\":966:1039   */\n      tag_40\n      jump\t// in\n    tag_53:\n        /* \"#utility.yul\":958:1039   */\n      swap2\n      pop\n        /* \"#utility.yul\":811:1050   */\n      pop\n        /* \"#utility.yul\":1067:1071   */\n      dup1\n        /* \"#utility.yul\":1060:1071   */\n      swap2\n      pop\n        /* \"#utility.yul\":515:1077   */\n      pop\n        /* \"#utility.yul\":405:1077   */\n      swap3\n      swap2\n      pop\n      pop\n      jump\t// out\n        /* \"#utility.yul\":1083:1428   */\n    tag_10:\n        /* \"#utility.yul\":1212:1216   */\n      0x00\n        /* \"#utility.yul\":1250:1252   */\n      0x20\n        /* \"#utility.yul\":1239:1248   */\n      dup3\n        /* \"#utility.yul\":1235:1253   */\n      add\n        /* \"#utility.yul\":1227:1253   */\n      swap1\n      pop\n        /* \"#utility.yul\":1299:1308   */\n      dup2\n        /* \"#utility.yul\":1293:1297   */\n      dup2\n        /* \"#utility.yul\":1289:1309   */\n      sub\n        /* \"#utility.yul\":1285:1286   */\n      0x00\n        /* \"#utility.yul\":1274:1283   */\n      dup4\n        /* \"#utility.yul\":1270:1287   */\n      add\n        /* \"#utility.yul\":1263:1310   */\n      mstore\n        /* \"#utility.yul\":1327:1421   */\n      tag_55\n        /* \"#utility.yul\":1416:1420   */\n      dup2\n        /* \"#utility.yul\":1407:1413   */\n      dup5\n        /* \"#utility.yul\":1327:1421   */\n      tag_50\n      jump\t// in\n    tag_55:\n        /* \"#utility.yul\":1319:1421   */\n      swap1\n      pop\n        /* \"#utility.yul\":1083:1428   */\n      swap3\n      swap2\n      pop\n      pop\n      jump\t// out\n        /* \"#utility.yul\":1434:1533   */\n    tag_43:\n        /* \"#utility.yul\":1486:1492   */\n      0x00\n        /* \"#utility.yul\":1520:1525   */\n      dup2\n        /* \"#utility.yul\":1514:1526   */\n      mload\n        /* \"#utility.yul\":1504:1526   */\n      swap1\n      pop\n        /* \"#utility.yul\":1434:1533   */\n      swap2\n      swap1\n      pop\n      jump\t// out\n        /* \"#utility.yul\":1539:1698   */\n    tag_45:\n        /* \"#utility.yul\":1613:1624   */\n      0x00\n        /* \"#utility.yul\":1647:1653   */\n      dup3\n        /* \"#utility.yul\":1642:1645   */\n      dup3\n        /* \"#utility.yul\":1635:1654   */\n      mstore\n        /* \"#utility.yul\":1687:1691   */\n      0x20\n        /* \"#utility.yul\":1682:1685   */\n      dup3\n        /* \"#utility.yul\":1678:1692   */\n      add\n        /* \"#utility.yul\":1663:1692   */\n      swap1\n      pop\n        /* \"#utility.yul\":1539:1698   */\n      swap3\n      swap2\n      pop\n      pop\n      jump\t// out\n        /* \"#utility.yul\":1704:2011   */\n    tag_47:\n        /* \"#utility.yul\":1772:1773   */\n      0x00\n        /* \"#utility.yul\":1782:1895   */\n    tag_59:\n        /* \"#utility.yul\":1796:1802   */\n      dup4\n        /* \"#utility.yul\":1793:1794   */\n      dup2\n        /* \"#utility.yul\":1790:1803   */\n      lt\n        /* \"#utility.yul\":1782:1895   */\n      iszero\n      tag_61\n      jumpi\n        /* \"#utility.yul\":1881:1882   */\n      dup1\n        /* \"#utility.yul\":1876:1879   */\n      dup3\n        /* \"#utility.yul\":1872:1883   */\n      add\n        /* \"#utility.yul\":1866:1884   */\n      mload\n        /* \"#utility.yul\":1862:1863   */\n      dup2\n        /* \"#utility.yul\":1857:1860   */\n      dup5\n        /* \"#utility.yul\":1853:1864   */\n      add\n        /* \"#utility.yul\":1846:1885   */\n      mstore\n        /* \"#utility.yul\":1818:1820   */\n      0x20\n        /* \"#utility.yul\":1815:1816   */\n      dup2\n        /* \"#utility.yul\":1811:1821   */\n      add\n        /* \"#utility.yul\":1806:1821   */\n      swap1\n      pop\n        /* \"#utility.yul\":1782:1895   */\n      jump(tag_59)\n    tag_61:\n        /* \"#utility.yul\":1913:1919   */\n      dup4\n        /* \"#utility.yul\":1910:1911   */\n      dup2\n        /* \"#utility.yul\":1907:1920   */\n      gt\n        /* \"#utility.yul\":1904:2005   */\n      iszero\n      tag_62\n      jumpi\n        /* \"#utility.yul\":1993:1994   */\n      0x00\n        /* \"#utility.yul\":1984:1990   */\n      dup5\n        /* \"#utility.yul\":1979:1982   */\n      dup5\n        /* \"#utility.yul\":1975:1991   */\n      add\n        /* \"#utility.yul\":1968:1995   */\n      mstore\n        /* \"#utility.yul\":1904:2005   */\n    tag_62:\n        /* \"#utility.yul\":1753:2011   */\n      pop\n        /* \"#utility.yul\":1704:2011   */\n      pop\n      pop\n      pop\n      jump\t// out\n        /* \"#utility.yul\":2017:2337   */\n    tag_19:\n        /* \"#utility.yul\":2061:2067   */\n      0x00\n        /* \"#utility.yul\":2098:2099   */\n      0x02\n        /* \"#utility.yul\":2092:2096   */\n      dup3\n        /* \"#utility.yul\":2088:2100   */\n      div\n        /* \"#utility.yul\":2078:2100   */\n      swap1\n      pop\n        /* \"#utility.yul\":2145:2146   */\n      0x01\n        /* \"#utility.yul\":2139:2143   */\n      dup3\n        /* \"#utility.yul\":2135:2147   */\n      and\n        /* \"#utility.yul\":2166:2184   */\n      dup1\n        /* \"#utility.yul\":2156:2237   */\n      tag_64\n      jumpi\n        /* \"#utility.yul\":2222:2226   */\n      0x7f\n        /* \"#utility.yul\":2214:2220   */\n      dup3\n        /* \"#utility.yul\":2210:2227   */\n      and\n        /* \"#utility.yul\":2200:2227   */\n      swap2\n      pop\n        /* \"#utility.yul\":2156:2237   */\n    tag_64:\n        /* \"#utility.yul\":2284:2286   */\n      0x20\n        /* \"#utility.yul\":2276:2282   */\n      dup3\n        /* \"#utility.yul\":2273:2287   */\n      lt\n        /* \"#utility.yul\":2253:2271   */\n      dup2\n        /* \"#utility.yul\":2250:2288   */\n      eq\n        /* \"#utility.yul\":2247:2331   */\n      iszero\n      tag_65\n      jumpi\n        /* \"#utility.yul\":2303:2321   */\n      tag_66\n      tag_67\n      jump\t// in\n    tag_66:\n        /* \"#utility.yul\":2247:2331   */\n    tag_65:\n        /* \"#utility.yul\":2068:2337   */\n      pop\n        /* \"#utility.yul\":2017:2337   */\n      swap2\n      swap1\n      pop\n      jump\t// out\n        /* \"#utility.yul\":2343:2523   */\n    tag_67:\n        /* \"#utility.yul\":2391:2468   */\n      0x4e487b7100000000000000000000000000000000000000000000000000000000\n        /* \"#utility.yul\":2388:2389   */\n      0x00\n        /* \"#utility.yul\":2381:2469   */\n      mstore\n        /* \"#utility.yul\":2488:2492   */\n      0x22\n        /* \"#utility.yul\":2485:2486   */\n      0x04\n        /* \"#utility.yul\":2478:2493   */\n      mstore\n        /* \"#utility.yul\":2512:2516   */\n      0x24\n        /* \"#utility.yul\":2509:2510   */\n      0x00\n        /* \"#utility.yul\":2502:2517   */\n      revert\n        /* \"#utility.yul\":2529:2631   */\n    tag_49:\n        /* \"#utility.yul\":2570:2576   */\n      0x00\n        /* \"#utility.yul\":2621:2623   */\n      0x1f\n        /* \"#utility.yul\":2617:2624   */\n      not\n        /* \"#utility.yul\":2612:2614   */\n      0x1f\n        /* \"#utility.yul\":2605:2610   */\n      dup4\n        /* \"#utility.yul\":2601:2615   */\n      add\n        /* \"#utility.yul\":2597:2625   */\n      and\n        /* \"#utility.yul\":2587:2625   */\n      swap1\n      pop\n        /* \"#utility.yul\":2529:2631   */\n      swap2\n      swap1\n      pop\n      jump\t// out\n\n    auxdata: 0xa2646970667358221220f6376ac6ea12db521599aef4fe431fdfa7ebf08613c7baa16742e4b49df5e00d64736f6c63430008070033\n}\n",
				"bytecode": {
					"linkReferences": {},
					"object": "608060405234801561001057600080fd5b50610548806100206000396000f3fe608060405234801561001057600080fd5b50600436106100365760003560e01c806392110c281461003b578063fa165e8f14610045575b600080fd5b610043610063565b005b61004d61017b565b60405161005a919061042f565b60405180910390f35b6040518060400160405280600381526020017f54696d00000000000000000000000000000000000000000000000000000000008152506000803373ffffffffffffffffffffffffffffffffffffffff1673ffffffffffffffffffffffffffffffffffffffff16815260200190815260200160002060000190805190602001906100ed9291906102f5565b506040518060400160405280600381526020017f54696d00000000000000000000000000000000000000000000000000000000008152506000803373ffffffffffffffffffffffffffffffffffffffff1673ffffffffffffffffffffffffffffffffffffffff16815260200190815260200160002060010190805190602001906101789291906102f5565b50565b61018361037b565b6000803373ffffffffffffffffffffffffffffffffffffffff1673ffffffffffffffffffffffffffffffffffffffff1681526020019081526020016000206040518060400160405290816000820180546101dc906104a0565b80601f0160208091040260200160405190810160405280929190818152602001828054610208906104a0565b80156102555780601f1061022a57610100808354040283529160200191610255565b820191906000526020600020905b81548152906001019060200180831161023857829003601f168201915b5050505050815260200160018201805461026e906104a0565b80601f016020809104026020016040519081016040528092919081815260200182805461029a906104a0565b80156102e75780601f106102bc576101008083540402835291602001916102e7565b820191906000526020600020905b8154815290600101906020018083116102ca57829003601f168201915b505050505081525050905090565b828054610301906104a0565b90600052602060002090601f016020900481019282610323576000855561036a565b82601f1061033c57805160ff191683800117855561036a565b8280016001018555821561036a579182015b8281111561036957825182559160200191906001019061034e565b5b5090506103779190610395565b5090565b604051806040016040528060608152602001606081525090565b5b808211156103ae576000816000905550600101610396565b5090565b60006103bd82610451565b6103c7818561045c565b93506103d781856020860161046d565b6103e081610501565b840191505092915050565b6000604083016000830151848203600086015261040882826103b2565b9150506020830151848203602086015261042282826103b2565b9150508091505092915050565b6000602082019050818103600083015261044981846103eb565b905092915050565b600081519050919050565b600082825260208201905092915050565b60005b8381101561048b578082015181840152602081019050610470565b8381111561049a576000848401525b50505050565b600060028204905060018216806104b857607f821691505b602082108114156104cc576104cb6104d2565b5b50919050565b7f4e487b7100000000000000000000000000000000000000000000000000000000600052602260045260246000fd5b6000601f19601f830116905091905056fea2646970667358221220f6376ac6ea12db521599aef4fe431fdfa7ebf08613c7baa16742e4b49df5e00d64736f6c63430008070033",
					"opcodes": "PUSH1 0x80 PUSH1 0x40 MSTORE CALLVALUE DUP1 ISZERO PUSH2 0x10 JUMPI PUSH1 0x0 DUP1 REVERT JUMPDEST POP PUSH2 0x548 DUP1 PUSH2 0x20 PUSH1 0x0 CODECOPY PUSH1 0x0 RETURN INVALID PUSH1 0x80 PUSH1 0x40 MSTORE CALLVALUE DUP1 ISZERO PUSH2 0x10 JUMPI PUSH1 0x0 DUP1 REVERT JUMPDEST POP PUSH1 0x4 CALLDATASIZE LT PUSH2 0x36 JUMPI PUSH1 0x0 CALLDATALOAD PUSH1 0xE0 SHR DUP1 PUSH4 0x92110C28 EQ PUSH2 0x3B JUMPI DUP1 PUSH4 0xFA165E8F EQ PUSH2 0x45 JUMPI JUMPDEST PUSH1 0x0 DUP1 REVERT JUMPDEST PUSH2 0x43 PUSH2 0x63 JUMP JUMPDEST STOP JUMPDEST PUSH2 0x4D PUSH2 0x17B JUMP JUMPDEST PUSH1 0x40 MLOAD PUSH2 0x5A SWAP2 SWAP1 PUSH2 0x42F JUMP JUMPDEST PUSH1 0x40 MLOAD DUP1 SWAP2 SUB SWAP1 RETURN JUMPDEST PUSH1 0x40 MLOAD DUP1 PUSH1 0x40 ADD PUSH1 0x40 MSTORE DUP1 PUSH1 0x3 DUP2 MSTORE PUSH1 0x20 ADD PUSH32 0x54696D0000000000000000000000000000000000000000000000000000000000 DUP2 MSTORE POP PUSH1 0x0 DUP1 CALLER PUSH20 0xFFFFFFFFFFFFFFFFFFFFFFFFFFFFFFFFFFFFFFFF AND PUSH20 0xFFFFFFFFFFFFFFFFFFFFFFFFFFFFFFFFFFFFFFFF AND DUP2 MSTORE PUSH1 0x20 ADD SWAP1 DUP2 MSTORE PUSH1 0x20 ADD PUSH1 0x0 KECCAK256 PUSH1 0x0 ADD SWAP1 DUP1 MLOAD SWAP1 PUSH1 0x20 ADD SWAP1 PUSH2 0xED SWAP3 SWAP2 SWAP1 PUSH2 0x2F5 JUMP JUMPDEST POP PUSH1 0x40 MLOAD DUP1 PUSH1 0x40 ADD PUSH1 0x40 MSTORE DUP1 PUSH1 0x3 DUP2 MSTORE PUSH1 0x20 ADD PUSH32 0x54696D0000000000000000000000000000000000000000000000000000000000 DUP2 MSTORE POP PUSH1 0x0 DUP1 CALLER PUSH20 0xFFFFFFFFFFFFFFFFFFFFFFFFFFFFFFFFFFFFFFFF AND PUSH20 0xFFFFFFFFFFFFFFFFFFFFFFFFFFFFFFFFFFFFFFFF AND DUP2 MSTORE PUSH1 0x20 ADD SWAP1 DUP2 MSTORE PUSH1 0x20 ADD PUSH1 0x0 KECCAK256 PUSH1 0x1 ADD SWAP1 DUP1 MLOAD SWAP1 PUSH1 0x20 ADD SWAP1 PUSH2 0x178 SWAP3 SWAP2 SWAP1 PUSH2 0x2F5 JUMP JUMPDEST POP JUMP JUMPDEST PUSH2 0x183 PUSH2 0x37B JUMP JUMPDEST PUSH1 0x0 DUP1 CALLER PUSH20 0xFFFFFFFFFFFFFFFFFFFFFFFFFFFFFFFFFFFFFFFF AND PUSH20 0xFFFFFFFFFFFFFFFFFFFFFFFFFFFFFFFFFFFFFFFF AND DUP2 MSTORE PUSH1 0x20 ADD SWAP1 DUP2 MSTORE PUSH1 0x20 ADD PUSH1 0x0 KECCAK256 PUSH1 0x40 MLOAD DUP1 PUSH1 0x40 ADD PUSH1 0x40 MSTORE SWAP1 DUP2 PUSH1 0x0 DUP3 ADD DUP1 SLOAD PUSH2 0x1DC SWAP1 PUSH2 0x4A0 JUMP JUMPDEST DUP1 PUSH1 0x1F ADD PUSH1 0x20 DUP1 SWAP2 DIV MUL PUSH1 0x20 ADD PUSH1 0x40 MLOAD SWAP1 DUP2 ADD PUSH1 0x40 MSTORE DUP1 SWAP3 SWAP2 SWAP1 DUP2 DUP2 MSTORE PUSH1 0x20 ADD DUP3 DUP1 SLOAD PUSH2 0x208 SWAP1 PUSH2 0x4A0 JUMP JUMPDEST DUP1 ISZERO PUSH2 0x255 JUMPI DUP1 PUSH1 0x1F LT PUSH2 0x22A JUMPI PUSH2 0x100 DUP1 DUP4 SLOAD DIV MUL DUP4 MSTORE SWAP2 PUSH1 0x20 ADD SWAP2 PUSH2 0x255 JUMP JUMPDEST DUP3 ADD SWAP2 SWAP1 PUSH1 0x0 MSTORE PUSH1 0x20 PUSH1 0x0 KECCAK256 SWAP1 JUMPDEST DUP2 SLOAD DUP2 MSTORE SWAP1 PUSH1 0x1 ADD SWAP1 PUSH1 0x20 ADD DUP1 DUP4 GT PUSH2 0x238 JUMPI DUP3 SWAP1 SUB PUSH1 0x1F AND DUP3 ADD SWAP2 JUMPDEST POP POP POP POP POP DUP2 MSTORE PUSH1 0x20 ADD PUSH1 0x1 DUP3 ADD DUP1 SLOAD PUSH2 0x26E SWAP1 PUSH2 0x4A0 JUMP JUMPDEST DUP1 PUSH1 0x1F ADD PUSH1 0x20 DUP1 SWAP2 DIV MUL PUSH1 0x20 ADD PUSH1 0x40 MLOAD SWAP1 DUP2 ADD PUSH1 0x40 MSTORE DUP1 SWAP3 SWAP2 SWAP1 DUP2 DUP2 MSTORE PUSH1 0x20 ADD DUP3 DUP1 SLOAD PUSH2 0x29A SWAP1 PUSH2 0x4A0 JUMP JUMPDEST DUP1 ISZERO PUSH2 0x2E7 JUMPI DUP1 PUSH1 0x1F LT PUSH2 0x2BC JUMPI PUSH2 0x100 DUP1 DUP4 SLOAD DIV MUL DUP4 MSTORE SWAP2 PUSH1 0x20 ADD SWAP2 PUSH2 0x2E7 JUMP JUMPDEST DUP3 ADD SWAP2 SWAP1 PUSH1 0x0 MSTORE PUSH1 0x20 PUSH1 0x0 KECCAK256 SWAP1 JUMPDEST DUP2 SLOAD DUP2 MSTORE SWAP1 PUSH1 0x1 ADD SWAP1 PUSH1 0x20 ADD DUP1 DUP4 GT PUSH2 0x2CA JUMPI DUP3 SWAP1 SUB PUSH1 0x1F AND DUP3 ADD SWAP2 JUMPDEST POP POP POP POP POP DUP2 MSTORE POP POP SWAP1 POP SWAP1 JUMP JUMPDEST DUP3 DUP1 SLOAD PUSH2 0x301 SWAP1 PUSH2 0x4A0 JUMP JUMPDEST SWAP1 PUSH1 0x0 MSTORE PUSH1 0x20 PUSH1 0x0 KECCAK256 SWAP1 PUSH1 0x1F ADD PUSH1 0x20 SWAP1 DIV DUP2 ADD SWAP3 DUP3 PUSH2 0x323 JUMPI PUSH1 0x0 DUP6 SSTORE PUSH2 0x36A JUMP JUMPDEST DUP3 PUSH1 0x1F LT PUSH2 0x33C JUMPI DUP1 MLOAD PUSH1 0xFF NOT AND DUP4 DUP1 ADD OR DUP6 SSTORE PUSH2 0x36A JUMP JUMPDEST DUP3 DUP1 ADD PUSH1 0x1 ADD DUP6 SSTORE DUP3 ISZERO PUSH2 0x36A JUMPI SWAP2 DUP3 ADD JUMPDEST DUP3 DUP2 GT ISZERO PUSH2 0x369 JUMPI DUP3 MLOAD DUP3 SSTORE SWAP2 PUSH1 0x20 ADD SWAP2 SWAP1 PUSH1 0x1 ADD SWAP1 PUSH2 0x34E JUMP JUMPDEST JUMPDEST POP SWAP1 POP PUSH2 0x377 SWAP2 SWAP1 PUSH2 0x395 JUMP JUMPDEST POP SWAP1 JUMP JUMPDEST PUSH1 0x40 MLOAD DUP1 PUSH1 0x40 ADD PUSH1 0x40 MSTORE DUP1 PUSH1 0x60 DUP2 MSTORE PUSH1 0x20 ADD PUSH1 0x60 DUP2 MSTORE POP SWAP1 JUMP JUMPDEST JUMPDEST DUP1 DUP3 GT ISZERO PUSH2 0x3AE JUMPI PUSH1 0x0 DUP2 PUSH1 0x0 SWAP1 SSTORE POP PUSH1 0x1 ADD PUSH2 0x396 JUMP JUMPDEST POP SWAP1 JUMP JUMPDEST PUSH1 0x0 PUSH2 0x3BD DUP3 PUSH2 0x451 JUMP JUMPDEST PUSH2 0x3C7 DUP2 DUP6 PUSH2 0x45C JUMP JUMPDEST SWAP4 POP PUSH2 0x3D7 DUP2 DUP6 PUSH1 0x20 DUP7 ADD PUSH2 0x46D JUMP JUMPDEST PUSH2 0x3E0 DUP2 PUSH2 0x501 JUMP JUMPDEST DUP5 ADD SWAP2 POP POP SWAP3 SWAP2 POP POP JUMP JUMPDEST PUSH1 0x0 PUSH1 0x40 DUP4 ADD PUSH1 0x0 DUP4 ADD MLOAD DUP5 DUP3 SUB PUSH1 0x0 DUP7 ADD MSTORE PUSH2 0x408 DUP3 DUP3 PUSH2 0x3B2 JUMP JUMPDEST SWAP2 POP POP PUSH1 0x20 DUP4 ADD MLOAD DUP5 DUP3 SUB PUSH1 0x20 DUP7 ADD MSTORE PUSH2 0x422 DUP3 DUP3 PUSH2 0x3B2 JUMP JUMPDEST SWAP2 POP POP DUP1 SWAP2 POP POP SWAP3 SWAP2 POP POP JUMP JUMPDEST PUSH1 0x0 PUSH1 0x20 DUP3 ADD SWAP1 POP DUP2 DUP2 SUB PUSH1 0x0 DUP4 ADD MSTORE PUSH2 0x449 DUP2 DUP5 PUSH2 0x3EB JUMP JUMPDEST SWAP1 POP SWAP3 SWAP2 POP POP JUMP JUMPDEST PUSH1 0x0 DUP2 MLOAD SWAP1 POP SWAP2 SWAP1 POP JUMP JUMPDEST PUSH1 0x0 DUP3 DUP3 MSTORE PUSH1 0x20 DUP3 ADD SWAP1 POP SWAP3 SWAP2 POP POP JUMP JUMPDEST PUSH1 0x0 JUMPDEST DUP4 DUP2 LT ISZERO PUSH2 0x48B JUMPI DUP1 DUP3 ADD MLOAD DUP2 DUP5 ADD MSTORE PUSH1 0x20 DUP2 ADD SWAP1 POP PUSH2 0x470 JUMP JUMPDEST DUP4 DUP2 GT ISZERO PUSH2 0x49A JUMPI PUSH1 0x0 DUP5 DUP5 ADD MSTORE JUMPDEST POP POP POP POP JUMP JUMPDEST PUSH1 0x0 PUSH1 0x2 DUP3 DIV SWAP1 POP PUSH1 0x1 DUP3 AND DUP1 PUSH2 0x4B8 JUMPI PUSH1 0x7F DUP3 AND SWAP2 POP JUMPDEST PUSH1 0x20 DUP3 LT DUP2 EQ ISZERO PUSH2 0x4CC JUMPI PUSH2 0x4CB PUSH2 0x4D2 JUMP JUMPDEST JUMPDEST POP SWAP2 SWAP1 POP JUMP JUMPDEST PUSH32 0x4E487B7100000000000000000000000000000000000000000000000000000000 PUSH1 0x0 MSTORE PUSH1 0x22 PUSH1 0x4 MSTORE PUSH1 0x24 PUSH1 0x0 REVERT JUMPDEST PUSH1 0x0 PUSH1 0x1F NOT PUSH1 0x1F DUP4 ADD AND SWAP1 POP SWAP2 SWAP1 POP JUMP INVALID LOG2 PUSH5 0x6970667358 0x22 SLT KECCAK256 0xF6 CALLDATACOPY PUSH11 0xC6EA12DB521599AEF4FE43 0x1F 0xDF 0xA7 0xEB CREATE DUP7 SGT 0xC7 0xBA LOG1 PUSH8 0x42E4B49DF5E00D64 PUSH20 0x6F6C634300080700330000000000000000000000 "
				},
				"gasEstimates": {
					"creation": {
						"codeDepositCost": "270400",
						"executionCost": "312",
						"totalCost": "270712"
					},
					"external": {
						"addBio()": "infinite",
						"getBio()": "infinite"
					}
				},
				"methodIdentifiers": {
					"addBio()": "92110c28",
					"getBio()": "fa165e8f"
				}
			},
			"storageLayout": {
				"storage": [
					{
						"astId": 11,
						"contract": "contracts/Profile.sol:Profile",
						"label": "profile",
						"offset": 0,
						"slot": "0",
						"type": "t_mapping(t_address,t_struct(Bio)6_storage)"
					}
				],
				"types": {
					"t_address": {
						"encoding": "inplace",
						"label": "address",
						"numberOfBytes": "20"
					},
					"t_mapping(t_address,t_struct(Bio)6_storage)": {
						"encoding": "mapping",
						"key": "t_address",
						"label": "mapping(address => struct Profile.Bio)",
						"numberOfBytes": "32",
						"value": "t_struct(Bio)6_storage"
					},
					"t_string_storage": {
						"encoding": "bytes",
						"label": "string",
						"numberOfBytes": "32"
					},
					"t_struct(Bio)6_storage": {
						"encoding": "inplace",
						"label": "struct Profile.Bio",
						"members": [
							{
								"astId": 3,
								"contract": "contracts/Profile.sol:Profile",
								"label": "firstName",
								"offset": 0,
								"slot": "0",
								"type": "t_string_storage"
							},
							{
								"astId": 5,
								"contract": "contracts/Profile.sol:Profile",
								"label": "lastName",
								"offset": 0,
								"slot": "1",
								"type": "t_string_storage"
							}
						],
						"numberOfBytes": "64"
					}
				}
			},
			"userdoc": {
				"kind": "user",
				"methods": {},
				"version": 1
			}
		}
	}
}